{"hash": "e00dad84c0af76abf9f380da93ddb9e9a8347f5f978da9463cc9c0164d53def2", "blockhash": "0000000000000000001f0ddff1eddb255c1121bcd4da4f1bc9a0da00cae72433", "vout": [{"scriptPubKey": {"type": "nulldata", "hex": "6a146f6d6e69000000000000001f00000007cf73cd2f", "asm": "OP_RETURN 6f6d6e69000000000000001f00000007cf73cd2f"}, "value": 0.0, "n": 0}, {"scriptPubKey": {"reqSigs": 1, "hex": "a914e818e90b8e6b38dba66f74b35cb708bbc73e2ea787", "addresses": ["3NrEXrB9qAxXYfRt6jKtBD8QzoU2qtNWDR"], "asm": "OP_HASH160 e818e90b8e6b38dba66f74b35cb708bbc73e2ea7 OP_EQUAL", "type": "scripthash"}, "value": 2.73e-05, "n": 1}, {"scriptPubKey": {"reqSigs": 1, "hex": "a914e818e90b8e6b38dba66f74b35cb708bbc73e2ea787", "addresses": ["3NrEXrB9qAxXYfRt6jKtBD8QzoU2qtNWDR"], "asm": "OP_HASH160 e818e90b8e6b38dba66f74b35cb708bbc73e2ea7 OP_EQUAL", "type": "scripthash"}, "value": 0.0149045, "n": 2}], "hex": "01000000000102791aa107e76aa4adc050a00d9d0f26883b89ac80bdde4c0125536361f9f1bca90200000017160014278646b92155ac3813480c95eb1be610bf814ad0ffffffffd1b5cad1f5d42f745c7c3365fae6c7236dd19d6bed1c863aad75165dfad11cf30400000017160014bab39952f15a8c73a1e47825fbf6596977c31941ffffffff030000000000000000166a146f6d6e69000000000000001f00000007cf73cd2faa0a00000000000017a914e818e90b8e6b38dba66f74b35cb708bbc73e2ea78712be16000000000017a914e818e90b8e6b38dba66f74b35cb708bbc73e2ea78702483045022100c555dceb373e14115f87cce32ca3022074947f370576983c664f8f68dc26108e02204a9e62159b5de39547a6da60a87ca109f6df53389afd7dec5160a645213c5995012103eb52423f0b88820823de1d129ae44876133cac75e9cad9519650fd31bdd4b9b802473044022027792b599d8e3402fb9420f877276923b40e9897e6b15b369e8e3deb82bf177e02204f337831393a9cd3ae402d8feab7fb3cd9c0d1e07f83a2f9e4cdc29f2180a564012103a2c5557e2130228f367505d17c1341e5d1f950a8b2371e6a5d691d20a4a9d15e00000000", "vin": [{"txinwitness": ["3045022100c555dceb373e14115f87cce32ca3022074947f370576983c664f8f68dc26108e02204a9e62159b5de39547a6da60a87ca109f6df53389afd7dec5160a645213c599501", "03eb52423f0b88820823de1d129ae44876133cac75e9cad9519650fd31bdd4b9b8"], "sequence": 4294967295, "scriptSig": {"hex": "160014278646b92155ac3813480c95eb1be610bf814ad0", "asm": "0014278646b92155ac3813480c95eb1be610bf814ad0"}, "vout": 2, "txid": "a9bcf1f961635325014cdebd80ac893b88260f9d0da050c0ada46ae707a11a79"}, {"txinwitness": ["3044022027792b599d8e3402fb9420f877276923b40e9897e6b15b369e8e3deb82bf177e02204f337831393a9cd3ae402d8feab7fb3cd9c0d1e07f83a2f9e4cdc29f2180a56401", "03a2c5557e2130228f367505d17c1341e5d1f950a8b2371e6a5d691d20a4a9d15e"], "sequence": 4294967295, "scriptSig": {"hex": "160014bab39952f15a8c73a1e47825fbf6596977c31941", "asm": "0014bab39952f15a8c73a1e47825fbf6596977c31941"}, "vout": 4, "txid": "f31cd1fa5d1675ad3a861ced6b9dd16d23c7e6fa65337c5c742fd4f5d1cab5d1"}], "txid": "73437d83959236050629231317449962ffb61d60d15af77e36be215cac9665fb", "blocktime": 1537872018, "version": 1, "confirmations": 11489, "time": 1537872018, "locktime": 0, "vsize": 288, "size": 450}