{"hash": "caf5853eb4a60ab1225c7797f324ec04515e93d69b4777ac7ef0b782341afb60", "blockhash": "0000000000000000000e13cef7c366c0283d82e591d1acd082e914b08063cdf1", "vout": [{"scriptPubKey": {"reqSigs": 1, "hex": "76a9148f0ef35d5a4bfb5a28d766193c19eefdcd22cd7088ac", "addresses": ["1E3RYDoGbnBubPaCkgYVVEtYccEffskKFm"], "asm": "OP_DUP OP_HASH160 8f0ef35d5a4bfb5a28d766193c19eefdcd22cd70 OP_EQUALVERIFY OP_CHECKSIG", "type": "pubkeyhash"}, "value": 0.0022716, "n": 0}, {"scriptPubKey": {"reqSigs": 1, "hex": "a9142c6c304bd23c0fd45576b88e610409e9927336c687", "addresses": ["35juG4fQyAAWL82e6PCZe6EUGDimTmX5LL"], "asm": "OP_HASH160 2c6c304bd23c0fd45576b88e610409e9927336c6 OP_EQUAL", "type": "scripthash"}, "value": 0.01011362, "n": 1}], "hex": "02000000000102ca59003fa276ec5d0e67e4ae9555151c0ff0c40fbff23e70feade453ba8cd5900000000017160014747d511e5496a0d267e70cb8ea2acb5273f916b9feffffffceec6e0ecca652fcecb679ee9d128fbfa8ee8419137d97a0c18f9c4a6af420180100000017160014083e358493be0fdedb77b072eb984db7d0f230d8feffffff0258770300000000001976a9148f0ef35d5a4bfb5a28d766193c19eefdcd22cd7088aca26e0f000000000017a9142c6c304bd23c0fd45576b88e610409e9927336c6870247304402201fc56ad791a62f68a451ddea095799f2ad5392ef152113cd1c11622d3dd23948022017beaaa0e9bbe1071b8813399c32367c164a2d8719be46f9d56cd05c5a24e6a9012102ac1736ec55645f08807f596a43efa8d29f6a320b52edd223166627429d4370c90247304402203d2f5fb07c5e81aa2304abd9b97955443922ecf5e0d58c128d32eb8d76dd9d6b022010bff1d63d09cfacb905b81d1d8c7d03577ebd8fc51adc0bfb0e807eeeff8b550121035447883ae47344df027fe42968424e06de1a5f916fdfe73d4aa7c2bcbd4690ce0f490800", "vin": [{"txinwitness": ["304402201fc56ad791a62f68a451ddea095799f2ad5392ef152113cd1c11622d3dd23948022017beaaa0e9bbe1071b8813399c32367c164a2d8719be46f9d56cd05c5a24e6a901", "02ac1736ec55645f08807f596a43efa8d29f6a320b52edd223166627429d4370c9"], "sequence": 4294967294, "scriptSig": {"hex": "160014747d511e5496a0d267e70cb8ea2acb5273f916b9", "asm": "0014747d511e5496a0d267e70cb8ea2acb5273f916b9"}, "vout": 0, "txid": "90d58cba53e4adfe703ef2bf0fc4f00f1c155595aee4670e5dec76a23f0059ca"}, {"txinwitness": ["304402203d2f5fb07c5e81aa2304abd9b97955443922ecf5e0d58c128d32eb8d76dd9d6b022010bff1d63d09cfacb905b81d1d8c7d03577ebd8fc51adc0bfb0e807eeeff8b5501", "035447883ae47344df027fe42968424e06de1a5f916fdfe73d4aa7c2bcbd4690ce"], "sequence": 4294967294, "scriptSig": {"hex": "160014083e358493be0fdedb77b072eb984db7d0f230d8", "asm": "0014083e358493be0fdedb77b072eb984db7d0f230d8"}, "vout": 1, "txid": "1820f46a4a9c8fc1a0977d131984eea8bf8f129dee79b6ecfc52a6cc0e6eecce"}], "txid": "73484fa14664d41c708670771f4c490fa1444b7ac6bf36172d7f0742f1b06239", "blocktime": 1537871767, "version": 2, "confirmations": 11495, "time": 1537871767, "locktime": 542991, "vsize": 258, "size": 420}