{"hash": "734da20f9c157361595c4abe1984388cfe01fa42a57881bb8a54ea9f94874b7d", "blockhash": "0000000000000000000dcc0f55137456b1a82d3642486a52398922ac4d620174", "vout": [{"scriptPubKey": {"reqSigs": 1, "hex": "76a9145dab597ad4713fa62d0e6fdfa09b49887104d49988ac", "addresses": ["19YH7R2nwmweo3Mc59GAWGu4XK7Y4T3HeU"], "asm": "OP_DUP OP_HASH160 5dab597ad4713fa62d0e6fdfa09b49887104d499 OP_EQUALVERIFY OP_CHECKSIG", "type": "pubkeyhash"}, "value": 5.23333711, "n": 0}, {"scriptPubKey": {"reqSigs": 1, "hex": "a9140e58a4e4222adf30c43034f28e8c59025aa3644087", "addresses": ["32zsaL5r7YERsqyC7EJbgrbL1ehFQdSt8K"], "asm": "OP_HASH160 0e58a4e4222adf30c43034f28e8c59025aa36440 OP_EQUAL", "type": "scripthash"}, "value": 10.0, "n": 1}], "hex": "0200000003ef4bb064ebe8263528c66f11dbf925b4f7cf30f4fa3231babee890c1e6c053ae000000006a47304402207a85389c0b38c88734261ad4bb6600c6c4e59817c5a6491513d2c92eb61beb39022062d99ac91d34376a44d8908578685a472726a2057a3bc14eef08061a5b4af6d201210351bd807a51eb022824c5ad584e160fac4907c11ea93770716abdbf9559b51fd2ffffffff664a25f46aea34508d7c84cb531a2bcc5895502c2467b68436d7d9962a7b056a000000006b483045022100f21e5874e02cbede05cb860ee3471540439a458dc29a81711d1d233e9504638a022005e0fc3b168e8d18680d1c2be990dd5cfe7e51eb5b9ed623050a597f697bdfdd01210202fe0b24a103798b810c74f3626859d40193ef9e08592a3a6479ef0c1c5d3aa3ffffffff6ec196d1f59792be1d13a95e94e6684012c5cec06d2eb6b8bf1c5978378a7899030000006b483045022100babf45a0c67035ea2ce5bc05a5ace53b4faeb026de800e7e4f8411a8c2a8734c02200ef97dab6f7163f0af0de5ed1e56b9509f308056f72deba656cd3d9227c073e50121033be724c24ef9d2151a7f2769e5f5ee2160adae07a664a1793d427bc190581f02ffffffff024f70311f000000001976a9145dab597ad4713fa62d0e6fdfa09b49887104d49988ac00ca9a3b0000000017a9140e58a4e4222adf30c43034f28e8c59025aa364408700000000", "vin": [{"sequence": 4294967295, "scriptSig": {"hex": "47304402207a85389c0b38c88734261ad4bb6600c6c4e59817c5a6491513d2c92eb61beb39022062d99ac91d34376a44d8908578685a472726a2057a3bc14eef08061a5b4af6d201210351bd807a51eb022824c5ad584e160fac4907c11ea93770716abdbf9559b51fd2", "asm": "304402207a85389c0b38c88734261ad4bb6600c6c4e59817c5a6491513d2c92eb61beb39022062d99ac91d34376a44d8908578685a472726a2057a3bc14eef08061a5b4af6d2[ALL] 0351bd807a51eb022824c5ad584e160fac4907c11ea93770716abdbf9559b51fd2"}, "vout": 0, "txid": "ae53c0e6c190e8beba3132faf430cff7b425f9db116fc6283526e8eb64b04bef"}, {"sequence": 4294967295, "scriptSig": {"hex": "483045022100f21e5874e02cbede05cb860ee3471540439a458dc29a81711d1d233e9504638a022005e0fc3b168e8d18680d1c2be990dd5cfe7e51eb5b9ed623050a597f697bdfdd01210202fe0b24a103798b810c74f3626859d40193ef9e08592a3a6479ef0c1c5d3aa3", "asm": "3045022100f21e5874e02cbede05cb860ee3471540439a458dc29a81711d1d233e9504638a022005e0fc3b168e8d18680d1c2be990dd5cfe7e51eb5b9ed623050a597f697bdfdd[ALL] 0202fe0b24a103798b810c74f3626859d40193ef9e08592a3a6479ef0c1c5d3aa3"}, "vout": 0, "txid": "6a057b2a96d9d73684b667242c509558cc2b1a53cb847c8d5034ea6af4254a66"}, {"sequence": 4294967295, "scriptSig": {"hex": "483045022100babf45a0c67035ea2ce5bc05a5ace53b4faeb026de800e7e4f8411a8c2a8734c02200ef97dab6f7163f0af0de5ed1e56b9509f308056f72deba656cd3d9227c073e50121033be724c24ef9d2151a7f2769e5f5ee2160adae07a664a1793d427bc190581f02", "asm": "3045022100babf45a0c67035ea2ce5bc05a5ace53b4faeb026de800e7e4f8411a8c2a8734c02200ef97dab6f7163f0af0de5ed1e56b9509f308056f72deba656cd3d9227c073e5[ALL] 033be724c24ef9d2151a7f2769e5f5ee2160adae07a664a1793d427bc190581f02"}, "vout": 3, "txid": "99788a3778591cbfb8b62e6dc0cec5124068e6945ea9131dbe9297f5d196c16e"}], "txid": "734da20f9c157361595c4abe1984388cfe01fa42a57881bb8a54ea9f94874b7d", "blocktime": 1537870268, "version": 2, "confirmations": 11516, "time": 1537870268, "locktime": 0, "vsize": 519, "size": 519}