{"hash": "734e592b5bc8065e4f2e8051f5015ca72f26a3f96679148c97602af8fb26a8b5", "blockhash": "00000000000000000017f5eb5941039fbcee6240d03bc1f2f8e35350df66a1d8", "vout": [{"scriptPubKey": {"reqSigs": 1, "hex": "76a9149b5a62506d9d781c97e43dc508b2f82adfe4f64388ac", "addresses": ["1FAS1jAGHAhJYvPGdEbWLdo1G3k4MJT1hr"], "asm": "OP_DUP OP_HASH160 9b5a62506d9d781c97e43dc508b2f82adfe4f643 OP_EQUALVERIFY OP_CHECKSIG", "type": "pubkeyhash"}, "value": 0.03921718, "n": 0}, {"scriptPubKey": {"reqSigs": 1, "hex": "76a91428eff92053f990499a058cc446b1174cfc98a94088ac", "addresses": ["14jTWJQ3oPS4udptZrdd22QpC4TkDVu7rv"], "asm": "OP_DUP OP_HASH160 28eff92053f990499a058cc446b1174cfc98a940 OP_EQUALVERIFY OP_CHECKSIG", "type": "pubkeyhash"}, "value": 0.15, "n": 1}], "hex": "01000000022203bcd58a5cf0877c6202744bfd03fa7c0614fd4c6204dfd19d8c955bb1139d010000006b483045022100a8276b45f81e19f91f23f24b6f1fab537eb2caf739c4852449d0d131dfa7534b0220254080bbb603083d6720850c50ae8250a851f6a76b2f591ad592901bdbc212bc01210352fbf21480bacf98d96fac43095c24e9747bd24d8641407ae3ef86910c84d850ffffffffa9abc2977adf82cdbe75c79074b956c1b2821bf0ac32c7d62cbc5e36ffe701f90c0000006b483045022100e651c4a710f74765cfbdb203f7b530eae5f25b0594422e7af15ebaba628ffa2a0220165a1e2908652e19aac71af018c6fbbb1904dfdb8e2e36a1611cf7b1a143796701210366e8bf254266e52e52f400c44e73467923c3b36557f52bb3cbd144eb8390c556ffffffff0236d73b00000000001976a9149b5a62506d9d781c97e43dc508b2f82adfe4f64388acc0e1e400000000001976a91428eff92053f990499a058cc446b1174cfc98a94088ac00000000", "vin": [{"sequence": 4294967295, "scriptSig": {"hex": "483045022100a8276b45f81e19f91f23f24b6f1fab537eb2caf739c4852449d0d131dfa7534b0220254080bbb603083d6720850c50ae8250a851f6a76b2f591ad592901bdbc212bc01210352fbf21480bacf98d96fac43095c24e9747bd24d8641407ae3ef86910c84d850", "asm": "3045022100a8276b45f81e19f91f23f24b6f1fab537eb2caf739c4852449d0d131dfa7534b0220254080bbb603083d6720850c50ae8250a851f6a76b2f591ad592901bdbc212bc[ALL] 0352fbf21480bacf98d96fac43095c24e9747bd24d8641407ae3ef86910c84d850"}, "vout": 1, "txid": "9d13b15b958c9dd1df04624cfd14067cfa03fd4b7402627c87f05c8ad5bc0322"}, {"sequence": 4294967295, "scriptSig": {"hex": "483045022100e651c4a710f74765cfbdb203f7b530eae5f25b0594422e7af15ebaba628ffa2a0220165a1e2908652e19aac71af018c6fbbb1904dfdb8e2e36a1611cf7b1a143796701210366e8bf254266e52e52f400c44e73467923c3b36557f52bb3cbd144eb8390c556", "asm": "3045022100e651c4a710f74765cfbdb203f7b530eae5f25b0594422e7af15ebaba628ffa2a0220165a1e2908652e19aac71af018c6fbbb1904dfdb8e2e36a1611cf7b1a1437967[ALL] 0366e8bf254266e52e52f400c44e73467923c3b36557f52bb3cbd144eb8390c556"}, "vout": 12, "txid": "f901e7ff365ebc2cd6c732acf01b82b2c156b97490c775becd82df7a97c2aba9"}], "txid": "734e592b5bc8065e4f2e8051f5015ca72f26a3f96679148c97602af8fb26a8b5", "blocktime": 1537874412, "version": 1, "confirmations": 11466, "time": 1537874412, "locktime": 0, "vsize": 374, "size": 374}