{"hash": "a2bc8267ea9c4f5cfb7ef0349a590c6c46e3dd72a51599f1d40632ffe8ac9581", "blockhash": "00000000000000000024a2167bbff67b0be802c0b01cdd79e6331c2be6459f87", "vout": [{"scriptPubKey": {"reqSigs": 1, "hex": "00148476e298f04ba8f8d4412ca0ce8e05069578a0ec", "addresses": ["bc1qs3mw9x8sfw5034zp9jsvars9q62h3g8vwwsfy3"], "asm": "0 8476e298f04ba8f8d4412ca0ce8e05069578a0ec", "type": "witness_v0_keyhash"}, "value": 0.00066008, "n": 0}, {"scriptPubKey": {"reqSigs": 1, "hex": "a91439702fea1fa29c7e2a2c3cb94162f9adc135469987", "addresses": ["36viqNwNabfLxGP8mpm33WaZRbg3FMpfBm"], "asm": "OP_HASH160 39702fea1fa29c7e2a2c3cb94162f9adc1354699 OP_EQUAL", "type": "scripthash"}, "value": 0.00873759, "n": 1}], "hex": "01000000000101eec85031602f9ef8552432613b8b9b44efe1e65635c3f3eaf2692f234ce4a1520000000000ffffffff02d8010100000000001600148476e298f04ba8f8d4412ca0ce8e05069578a0ec1f550d000000000017a91439702fea1fa29c7e2a2c3cb94162f9adc135469987024830450221009ed30722f414a5fe1ef2b3b7089b9162d2f53560564302397fb45e4e33486d650220790a3d553d96ebdfae13a05bd8522445cc674c9c3eb5d5c4a8e0844b8c65681401210211ff1cff9d58c22ce1602b9eea4d7daa2ca5b8246cacc791c4bbdc9d761ef19d00000000", "vin": [{"txinwitness": ["30450221009ed30722f414a5fe1ef2b3b7089b9162d2f53560564302397fb45e4e33486d650220790a3d553d96ebdfae13a05bd8522445cc674c9c3eb5d5c4a8e0844b8c65681401", "0211ff1cff9d58c22ce1602b9eea4d7daa2ca5b8246cacc791c4bbdc9d761ef19d"], "sequence": 4294967295, "scriptSig": {"hex": "", "asm": ""}, "vout": 0, "txid": "52a1e44c232f69f2eaf3c33556e6e1ef449b8b3b61322455f89e2f603150c8ee"}], "txid": "734fcb7f1f64709bc1ebfb4e32e0227896f0292ba2045a0c83f4e6ef75287e4b", "blocktime": 1537870564, "version": 1, "confirmations": 11515, "time": 1537870564, "locktime": 0, "vsize": 142, "size": 224}