{"hash": "7350643137b10719ca19a552b53ff43e637d72679b760d3f2ced87d4b9f2d9ad", "blockhash": "0000000000000000000e13cef7c366c0283d82e591d1acd082e914b08063cdf1", "vout": [{"scriptPubKey": {"reqSigs": 1, "hex": "76a9142147e6b2e8bd621fba95f8f35462b462a128701388ac", "addresses": ["142yS7SjoXdVPrh2hFaDhHsva48DLwqmRQ"], "asm": "OP_DUP OP_HASH160 2147e6b2e8bd621fba95f8f35462b462a1287013 OP_EQUALVERIFY OP_CHECKSIG", "type": "pubkeyhash"}, "value": 0.00320324, "n": 0}, {"scriptPubKey": {"type": "nulldata", "hex": "6a146f6d6e69000000000000001f000001fe8c0d41c0", "asm": "OP_RETURN 6f6d6e69000000000000001f000001fe8c0d41c0"}, "value": 0.0, "n": 1}, {"scriptPubKey": {"reqSigs": 1, "hex": "76a914cb71a5b80cfc05f2920248186c8d6a4a8f49ee8e88ac", "addresses": ["1KYiKJEfdJtap9QX2v9BXJMpz2SfU4pgZw"], "asm": "OP_DUP OP_HASH160 cb71a5b80cfc05f2920248186c8d6a4a8f49ee8e OP_EQUALVERIFY OP_CHECKSIG", "type": "pubkeyhash"}, "value": 5.46e-06, "n": 2}], "hex": "0100000001663a4ba5b072fd319dcd4196124e6d8b6c1890cd226edb7784855a5b45e01314010000006a4730440220752f82cce0d79c1ce1d1cf8d0de7740fde2494ccc2b9717f2ada9ed0b990cd5502202562bbe73fc56ae012fb2e4f516f59f84f5328f99ab0b425c208fbc1af8fb58901210254e4443e2dccea7cc88684956bea872f84e53e03d60c8a110da3f380aaa0178dfeffffff0344e30400000000001976a9142147e6b2e8bd621fba95f8f35462b462a128701388ac0000000000000000166a146f6d6e69000000000000001f000001fe8c0d41c022020000000000001976a914cb71a5b80cfc05f2920248186c8d6a4a8f49ee8e88ac10490800", "vin": [{"sequence": 4294967294, "scriptSig": {"hex": "4730440220752f82cce0d79c1ce1d1cf8d0de7740fde2494ccc2b9717f2ada9ed0b990cd5502202562bbe73fc56ae012fb2e4f516f59f84f5328f99ab0b425c208fbc1af8fb58901210254e4443e2dccea7cc88684956bea872f84e53e03d60c8a110da3f380aaa0178d", "asm": "30440220752f82cce0d79c1ce1d1cf8d0de7740fde2494ccc2b9717f2ada9ed0b990cd5502202562bbe73fc56ae012fb2e4f516f59f84f5328f99ab0b425c208fbc1af8fb589[ALL] 0254e4443e2dccea7cc88684956bea872f84e53e03d60c8a110da3f380aaa0178d"}, "vout": 1, "txid": "1413e0455b5a858477db6e22cd90186c8b6d4e129641cd9d31fd72b0a54b3a66"}], "txid": "7350643137b10719ca19a552b53ff43e637d72679b760d3f2ced87d4b9f2d9ad", "blocktime": 1537871767, "version": 1, "confirmations": 11490, "time": 1537871767, "locktime": 542992, "vsize": 256, "size": 256}