{"hash": "e082b7e491a978a23395169beec60e8739049c76b416c32915314ca56a09c871", "blockhash": "00000000000000000018f53835495a110e01622372bf6ae95dc86f2b0ab887b0", "vout": [{"scriptPubKey": {"reqSigs": 1, "hex": "76a914dd6b494977beef5e4c8b2ff30d1db1816bc778b788ac", "addresses": ["1MBkrmzdZHqey9JiA76Y6ZkUTX1Efo6cb6"], "asm": "OP_DUP OP_HASH160 dd6b494977beef5e4c8b2ff30d1db1816bc778b7 OP_EQUALVERIFY OP_CHECKSIG", "type": "pubkeyhash"}, "value": 0.05191274, "n": 0}, {"scriptPubKey": {"reqSigs": 1, "hex": "a91444f021be190f5c9b6487aa0a73944a293c39af1b87", "addresses": ["37yXYEo8heurFp29nN96g1vmPN9wJoHJbY"], "asm": "OP_HASH160 44f021be190f5c9b6487aa0a73944a293c39af1b OP_EQUAL", "type": "scripthash"}, "value": 0.02491367, "n": 1}], "hex": "010000000001024d1719ebe2d652048d0c8592b58fa756a8bba8b934a0ceeffa4d8f982717e94c02000000232200207949b5ccd49f9c71d02a355b32028d32b16bd23d4429b16640b80bef9e414ec8ffffffff445b614f965f9ef55b2a4180b4a2a7f3f9494599d049968edeb71dabd2f8811e01000000232200203d522c1f9084691508361114c5a0da9ccff6e3a204f776b0f24e89a4d82e2f12ffffffff026a364f00000000001976a914dd6b494977beef5e4c8b2ff30d1db1816bc778b788ace70326000000000017a91444f021be190f5c9b6487aa0a73944a293c39af1b870400483045022100bce254a08f58e7b544bba0fe83462039c3bd19cf99c0bdb382bb8df0cc5762aa02204e3b5e05971a0c2604cabe8b9f0a0b0b5f8fd7728459e9e6a1396067390988280147304402205dffafb693c15ef56a8d98d9bb9edc6f28c8d9b5b87f16cec09e06f5713a62400220201fb9441c709e72c9d7acb5fa7b2b3888f8dce8d6a08da64364f9f54d38d31d0169522103bed9f8205ba8dd4e41358c9ea151304598112fc149c5a625f45f95b0fb2e1aed21034cdfc024236e5067349c53147b8cc9d0efc342045efbc18b03349c02852859f32103dd484fec2f4e7ad146cea9bbb31097d67244e059c224d934a5563dcf67e9f10753ae04004730440220119686bc0f1993db80b1ef0b2f09f7ff63143ad873d76ca71118a50f25efa39d022067f4eea057cfe2e82dd121ba0b4b37ed71e2dac6c516529c9461ccc7a84822de01473044022045c0dc9e276d868c71f60da5118e181b0d520eb8fb8a4f472ed6154e5963b28a022049203829046f84b23a44117dce49baf7504f8440362e1916341217d8bfc813870169522103709e3ddb1db1cec538cc6863b6e5f885850c9bcba2c0a23b9ae242b6ef7177da21034cdfc024236e5067349c53147b8cc9d0efc342045efbc18b03349c02852859f32103dd484fec2f4e7ad146cea9bbb31097d67244e059c224d934a5563dcf67e9f10753ae00000000", "vin": [{"txinwitness": ["", "3045022100bce254a08f58e7b544bba0fe83462039c3bd19cf99c0bdb382bb8df0cc5762aa02204e3b5e05971a0c2604cabe8b9f0a0b0b5f8fd7728459e9e6a13960673909882801", "304402205dffafb693c15ef56a8d98d9bb9edc6f28c8d9b5b87f16cec09e06f5713a62400220201fb9441c709e72c9d7acb5fa7b2b3888f8dce8d6a08da64364f9f54d38d31d01", "522103bed9f8205ba8dd4e41358c9ea151304598112fc149c5a625f45f95b0fb2e1aed21034cdfc024236e5067349c53147b8cc9d0efc342045efbc18b03349c02852859f32103dd484fec2f4e7ad146cea9bbb31097d67244e059c224d934a5563dcf67e9f10753ae"], "sequence": 4294967295, "scriptSig": {"hex": "2200207949b5ccd49f9c71d02a355b32028d32b16bd23d4429b16640b80bef9e414ec8", "asm": "00207949b5ccd49f9c71d02a355b32028d32b16bd23d4429b16640b80bef9e414ec8"}, "vout": 2, "txid": "4ce91727988f4dfaefcea034b9a8bba856a78fb592850c8d0452d6e2eb19174d"}, {"txinwitness": ["", "30440220119686bc0f1993db80b1ef0b2f09f7ff63143ad873d76ca71118a50f25efa39d022067f4eea057cfe2e82dd121ba0b4b37ed71e2dac6c516529c9461ccc7a84822de01", "3044022045c0dc9e276d868c71f60da5118e181b0d520eb8fb8a4f472ed6154e5963b28a022049203829046f84b23a44117dce49baf7504f8440362e1916341217d8bfc8138701", "522103709e3ddb1db1cec538cc6863b6e5f885850c9bcba2c0a23b9ae242b6ef7177da21034cdfc024236e5067349c53147b8cc9d0efc342045efbc18b03349c02852859f32103dd484fec2f4e7ad146cea9bbb31097d67244e059c224d934a5563dcf67e9f10753ae"], "sequence": 4294967295, "scriptSig": {"hex": "2200203d522c1f9084691508361114c5a0da9ccff6e3a204f776b0f24e89a4d82e2f12", "asm": "00203d522c1f9084691508361114c5a0da9ccff6e3a204f776b0f24e89a4d82e2f12"}, "vout": 1, "txid": "1e81f8d2ab1db7de8e9649d0994549f9f3a7a2b480412a5bf59e5f964f615b44"}], "txid": "73533bb68d9591e7f427864df8f927bde7aa9ae50e52fca459f9ae01327a76c5", "blocktime": 1537870928, "version": 1, "confirmations": 11514, "time": 1537870928, "locktime": 0, "vsize": 355, "size": 735}