{"hash": "7356ffd8010f24ffcbbcddf7efffc88a17eb7828d61a42db3e49153ae1323b09", "blockhash": "000000000000000000022b45ed06c6f4ccd3cf7fb5ba4856ebd2e58215665228", "vout": [{"scriptPubKey": {"reqSigs": 1, "hex": "76a9141b44764389b039dd2c92b28e1974051b36bebe8d88ac", "addresses": ["13VBG12C31WLcMHyGXkfFrdStBkcjqxuAT"], "asm": "OP_DUP OP_HASH160 1b44764389b039dd2c92b28e1974051b36bebe8d OP_EQUALVERIFY OP_CHECKSIG", "type": "pubkeyhash"}, "value": 2.141e-05, "n": 0}, {"scriptPubKey": {"reqSigs": 1, "hex": "76a914c2e740763cb43fd1a83e66c9341f44ecbd4a726a88ac", "addresses": ["1JmZ7sasoLK7Qa61RXcNQ61YuLpjGwFLoQ"], "asm": "OP_DUP OP_HASH160 c2e740763cb43fd1a83e66c9341f44ecbd4a726a OP_EQUALVERIFY OP_CHECKSIG", "type": "pubkeyhash"}, "value": 0.00468821, "n": 1}], "hex": "0100000001171a36136bf09ce77c8b02a174d5d65c94997430da5fef28b05ebea54982b2d0000000006a4730440220412b10fee29d145e3fe10465ee3bce93fd92b2300c8aadac4ef6a9b2cf76688402204665a4d1b8bc629c8d02702ed66babc1a5dfa6631195a2e2089b4e9be5567a9801210271f223af96f2a59c9adde79351a78603f4e66b271fec0e3e695334ffb43b6fdbffffffff025d080000000000001976a9141b44764389b039dd2c92b28e1974051b36bebe8d88ac55270700000000001976a914c2e740763cb43fd1a83e66c9341f44ecbd4a726a88ac00000000", "vin": [{"sequence": 4294967295, "scriptSig": {"hex": "4730440220412b10fee29d145e3fe10465ee3bce93fd92b2300c8aadac4ef6a9b2cf76688402204665a4d1b8bc629c8d02702ed66babc1a5dfa6631195a2e2089b4e9be5567a9801210271f223af96f2a59c9adde79351a78603f4e66b271fec0e3e695334ffb43b6fdb", "asm": "30440220412b10fee29d145e3fe10465ee3bce93fd92b2300c8aadac4ef6a9b2cf76688402204665a4d1b8bc629c8d02702ed66babc1a5dfa6631195a2e2089b4e9be5567a98[ALL] 0271f223af96f2a59c9adde79351a78603f4e66b271fec0e3e695334ffb43b6fdb"}, "vout": 0, "txid": "d0b28249a5be5eb028ef5fda307499945cd6d574a1028b7ce79cf06b13361a17"}], "txid": "7356ffd8010f24ffcbbcddf7efffc88a17eb7828d61a42db3e49153ae1323b09", "blocktime": 1537869901, "version": 1, "confirmations": 11524, "time": 1537869901, "locktime": 0, "vsize": 225, "size": 225}