{"hash": "7358e31f085fa969ece88b5440e570d46113244267d474dc2a4cbb2ca84c36c1", "blockhash": "0000000000000000001cda96e906b7601b7a6fb1a3b62bca570a9e5d8f4b3de1", "vout": [{"scriptPubKey": {"reqSigs": 1, "hex": "76a914f7c9e68fa47eca9cb422297b043bdb5f3bb1ab4c88ac", "addresses": ["1PbBmgfCuESyL4dE2ohU2FeadPcx7sdZBp"], "asm": "OP_DUP OP_HASH160 f7c9e68fa47eca9cb422297b043bdb5f3bb1ab4c OP_EQUALVERIFY OP_CHECKSIG", "type": "pubkeyhash"}, "value": 0.00010154, "n": 0}, {"scriptPubKey": {"reqSigs": 1, "hex": "76a9144762b3725139e3b07c464b7ac4c9aeec69dc1df488ac", "addresses": ["17WTDV29zBeg7JeWYP52EqUo8BtsZ1oeZA"], "asm": "OP_DUP OP_HASH160 4762b3725139e3b07c464b7ac4c9aeec69dc1df4 OP_EQUALVERIFY OP_CHECKSIG", "type": "pubkeyhash"}, "value": 0.07757273, "n": 1}], "hex": "0100000001423236ce8e523f54d2d4c71cd5fd30086e0020cc7307942c6dbe5745655486e7010000006b4830450221008bee38541dcc795e4385fb1010c0084612c8c9b545725b45e38d95f790f83df402207627a3560293c5554bb6aff6bf23cd79fa1aa2d6984b74065a82259aa3138659012103400d27dfb07cd8b6d54b91aa1b4e375bf307aed80229604d1eaefb9567cdab93ffffffff02aa270000000000001976a914f7c9e68fa47eca9cb422297b043bdb5f3bb1ab4c88acd95d7600000000001976a9144762b3725139e3b07c464b7ac4c9aeec69dc1df488ac00000000", "vin": [{"sequence": 4294967295, "scriptSig": {"hex": "4830450221008bee38541dcc795e4385fb1010c0084612c8c9b545725b45e38d95f790f83df402207627a3560293c5554bb6aff6bf23cd79fa1aa2d6984b74065a82259aa3138659012103400d27dfb07cd8b6d54b91aa1b4e375bf307aed80229604d1eaefb9567cdab93", "asm": "30450221008bee38541dcc795e4385fb1010c0084612c8c9b545725b45e38d95f790f83df402207627a3560293c5554bb6aff6bf23cd79fa1aa2d6984b74065a82259aa3138659[ALL] 03400d27dfb07cd8b6d54b91aa1b4e375bf307aed80229604d1eaefb9567cdab93"}, "vout": 1, "txid": "e78654654557be6d2c940773cc20006e0830fdd51cc7d4d2543f528ece363242"}], "txid": "7358e31f085fa969ece88b5440e570d46113244267d474dc2a4cbb2ca84c36c1", "blocktime": 1537873282, "version": 1, "confirmations": 11485, "time": 1537873282, "locktime": 0, "vsize": 226, "size": 226}