{"hash": "95eedfc53f63f4850bb777cf77cdf347a9819378e2a655e6a13f7c48779926c6", "blockhash": "0000000000000000001f76057863aec43deb6fa401d9628bb513d65a8098bfab", "vout": [{"scriptPubKey": {"reqSigs": 1, "hex": "a914829b94792f25bafd76e98925ac4f555037e642fe87", "addresses": ["3Dbc9NHbrQs5njVwSMinewgHEZtkgqBCqc"], "asm": "OP_HASH160 829b94792f25bafd76e98925ac4f555037e642fe OP_EQUAL", "type": "scripthash"}, "value": 0.00152053, "n": 0}, {"scriptPubKey": {"reqSigs": 1, "hex": "a914b1ca19f0fb21eef34d91efbde0a8d3032a775c0787", "addresses": ["3Hu5dk8wEyB9BKWL6ZrErpdqbR7nCmWp8n"], "asm": "OP_HASH160 b1ca19f0fb21eef34d91efbde0a8d3032a775c07 OP_EQUAL", "type": "scripthash"}, "value": 0.00756932, "n": 1}, {"scriptPubKey": {"reqSigs": 1, "hex": "a914b8a9a8ba8cf965b7df6b05afd948e53c351b2c0d87", "addresses": ["3JXRVxhrk2o9f4w3cQchBLwUeegJBj6BEp"], "asm": "OP_HASH160 b8a9a8ba8cf965b7df6b05afd948e53c351b2c0d OP_EQUAL", "type": "scripthash"}, "value": 1.09162899, "n": 2}], "hex": "0100000000010164ea868784fb670bbf1f969d8451a77f86e02e1abcbb661bb576bd4047912ca0010000002322002065d416c48a8072e0ac51c2d111eb194f009caef0332446c1bf2097316cf07fa9ffffffff03f55102000000000017a914829b94792f25bafd76e98925ac4f555037e642fe87c48c0b000000000017a914b1ca19f0fb21eef34d91efbde0a8d3032a775c078793b181060000000017a914b8a9a8ba8cf965b7df6b05afd948e53c351b2c0d8704004830450221009db24c71adf0c503689b450f876cb6ac95047f8320c44c3f4ec7729ee3e6660902207f3e2ae5a4417655244a80c9a38bc982d6cd38be4aecf4195c86af51de8a7cdd0147304402201525dfedc4e0078e1396f6b31efe1349090f06e61947d02c35ebba0c946eef3802201b65f630646fc0541cb73f386f4a54b84fb82383e9b6df6ca0a66cedb3e7b8ee0169522102f44abcf9e23c9a460da309ccca56c619c04eed3bde2c2cff5e7d78fbcd980b9c2103c9443cf3047bb6c2c82f1b0c44c36109cdc3d0d601d16d1189a1602bf8d1a0a02103bfe867059274412412e088af5572b92168c2ef495cfe6c9b7a753a009eb37c4853ae00000000", "vin": [{"txinwitness": ["", "30450221009db24c71adf0c503689b450f876cb6ac95047f8320c44c3f4ec7729ee3e6660902207f3e2ae5a4417655244a80c9a38bc982d6cd38be4aecf4195c86af51de8a7cdd01", "304402201525dfedc4e0078e1396f6b31efe1349090f06e61947d02c35ebba0c946eef3802201b65f630646fc0541cb73f386f4a54b84fb82383e9b6df6ca0a66cedb3e7b8ee01", "522102f44abcf9e23c9a460da309ccca56c619c04eed3bde2c2cff5e7d78fbcd980b9c2103c9443cf3047bb6c2c82f1b0c44c36109cdc3d0d601d16d1189a1602bf8d1a0a02103bfe867059274412412e088af5572b92168c2ef495cfe6c9b7a753a009eb37c4853ae"], "sequence": 4294967295, "scriptSig": {"hex": "22002065d416c48a8072e0ac51c2d111eb194f009caef0332446c1bf2097316cf07fa9", "asm": "002065d416c48a8072e0ac51c2d111eb194f009caef0332446c1bf2097316cf07fa9"}, "vout": 1, "txid": "a02c914740bd76b51b66bbbc1a2ee0867fa751849d961fbf0b67fb848786ea64"}], "txid": "7362d31c684a4200e11b7aa2e93a8d498660e645226b79eac74edc243bffbda0", "blocktime": 1537873891, "version": 1, "confirmations": 11475, "time": 1537873891, "locktime": 0, "vsize": 246, "size": 437}