{"hash": "b21fa396f08b3e513524bf8638b9405825ba8eb96684c139e80b2d5cba4fa8c9", "blockhash": "0000000000000000000e13cef7c366c0283d82e591d1acd082e914b08063cdf1", "vout": [{"scriptPubKey": {"reqSigs": 1, "hex": "76a914c28d0785e5cdbfb11068688028ad32ec82389ec088ac", "addresses": ["1Jjh37Jd9HP3vrVqcAk4gxjJwRbEGvzSHE"], "asm": "OP_DUP OP_HASH160 c28d0785e5cdbfb11068688028ad32ec82389ec0 OP_EQUALVERIFY OP_CHECKSIG", "type": "pubkeyhash"}, "value": 0.0032196, "n": 0}, {"scriptPubKey": {"reqSigs": 1, "hex": "a9140b2ed8de059decfc7127a577dbe82367a29cbd9d87", "addresses": ["32i9Uef9BSSr6tbq6vst8UZNcBZdwuhy4N"], "asm": "OP_HASH160 0b2ed8de059decfc7127a577dbe82367a29cbd9d OP_EQUAL", "type": "scripthash"}, "value": 0.00999625, "n": 1}], "hex": "02000000000102b08b4b2ee2f28b806a872c47338364d934dcb2cc8be96b1c724c9cd15ed060500100000017160014d695f2cddc0a6cb9e0d34164470ee0f8b70b9c94fefffffff9eda444024818d120713fe351d7bd3f73422c36216e775b39591f1bf4c544f8030000001716001476f294d1293782dede46cb69401be48fa2d87a42feffffff02a8e90400000000001976a914c28d0785e5cdbfb11068688028ad32ec82389ec088acc9400f000000000017a9140b2ed8de059decfc7127a577dbe82367a29cbd9d870247304402207a7de8372318d8e2f53d5a8a5e42040f66286c4cf33b65bea3c7d1ed1dca118402200b7557237797548e776f8ba44207b8bbb1a9a76fa37e95fb4e9e60b84a8d99a30121035fc582affd5029883f4de4d6159c82f21b144f80b55097abfb99184a84eaa71502483045022100bba09ee9fd34a9f5c53bb0479ae7da8466ee06650fd7e22f9a8a80760ee3fdda02200611a47470fe0037094459865f80ae8182e01b6a7222f3a9d873344de9b352610121025f8df1c9608ca99b07cb233ecbd81d6d124841710193f6a8d11fc9d3b4e675680f490800", "vin": [{"txinwitness": ["304402207a7de8372318d8e2f53d5a8a5e42040f66286c4cf33b65bea3c7d1ed1dca118402200b7557237797548e776f8ba44207b8bbb1a9a76fa37e95fb4e9e60b84a8d99a301", "035fc582affd5029883f4de4d6159c82f21b144f80b55097abfb99184a84eaa715"], "sequence": 4294967294, "scriptSig": {"hex": "160014d695f2cddc0a6cb9e0d34164470ee0f8b70b9c94", "asm": "0014d695f2cddc0a6cb9e0d34164470ee0f8b70b9c94"}, "vout": 1, "txid": "5060d05ed19c4c721c6be98bccb2dc34d9648333472c876a808bf2e22e4b8bb0"}, {"txinwitness": ["3045022100bba09ee9fd34a9f5c53bb0479ae7da8466ee06650fd7e22f9a8a80760ee3fdda02200611a47470fe0037094459865f80ae8182e01b6a7222f3a9d873344de9b3526101", "025f8df1c9608ca99b07cb233ecbd81d6d124841710193f6a8d11fc9d3b4e67568"], "sequence": 4294967294, "scriptSig": {"hex": "16001476f294d1293782dede46cb69401be48fa2d87a42", "asm": "001476f294d1293782dede46cb69401be48fa2d87a42"}, "vout": 3, "txid": "f844c5f41b1f59395b776e21362c42733fbdd751e33f7120d118480244a4edf9"}], "txid": "73620860db43d7ee75bf4eb1ab1abfc949c44ebcd0cd9eb5b3d1da55b639bee4", "blocktime": 1537871767, "version": 2, "confirmations": 11495, "time": 1537871767, "locktime": 542991, "vsize": 259, "size": 421}