{"hash": "c8f4ce7e3866e81e79690324e502b19bbe73a91d95829a18a23ffd36314fa734", "blockhash": "00000000000000000004ffacab907a6b429b9a5745fa0b75af4234bf69dd7176", "vout": [{"scriptPubKey": {"reqSigs": 1, "hex": "a914c8948f84ab8bc2187580e4fb86ecf2a0a06e11cf87", "addresses": ["3Kyb35jwJ7YCiAF7JRfW5VZdpyywKap5YB"], "asm": "OP_HASH160 c8948f84ab8bc2187580e4fb86ecf2a0a06e11cf OP_EQUAL", "type": "scripthash"}, "value": 4.066e-05, "n": 0}, {"scriptPubKey": {"reqSigs": 1, "hex": "a9141d7370ccde4590204155e4074f69743a8e4fac0287", "addresses": ["34Njp4ZKtmCDfqqps26wHBYQQGUo2pGkLi"], "asm": "OP_HASH160 1d7370ccde4590204155e4074f69743a8e4fac02 OP_EQUAL", "type": "scripthash"}, "value": 0.00027654, "n": 1}], "hex": "01000000000101632176d06197b24a6050a886b39a18b1857eae1807436d947daf8144ede5bf400100000023220020f63dfc12340f6360d0251c22746d6b56093e3243e96ca012a65484a5d9cf0ec0ffffffff02e20f00000000000017a914c8948f84ab8bc2187580e4fb86ecf2a0a06e11cf87066c00000000000017a9141d7370ccde4590204155e4074f69743a8e4fac0287040047304402202c16499619b9b20559493073d5186f970c7e08fdd33b19ed6ac539a1e928379102205f01727887f5b245e2cd38e8183bad559e5a4ebe5caee4db020b8968b06e33c30147304402206207b435abbdb1ae927218a3a1d0d22bfe681b5d24107dcbdcbb658df69a236502200522a0de58ac260d33dc91c4fd9e8bf3e0eb491d0770103e403577fc32ed4a8d0147522102097067a6a0cc130a9a6f6577b47bf369b840a79de31cd7457187994266b1bb7c2103338f346cab6ba87fe940591a03ac234be06520c5ab386d4b6632e8eef0d0db7652ae00000000", "vin": [{"txinwitness": ["", "304402202c16499619b9b20559493073d5186f970c7e08fdd33b19ed6ac539a1e928379102205f01727887f5b245e2cd38e8183bad559e5a4ebe5caee4db020b8968b06e33c301", "304402206207b435abbdb1ae927218a3a1d0d22bfe681b5d24107dcbdcbb658df69a236502200522a0de58ac260d33dc91c4fd9e8bf3e0eb491d0770103e403577fc32ed4a8d01", "522102097067a6a0cc130a9a6f6577b47bf369b840a79de31cd7457187994266b1bb7c2103338f346cab6ba87fe940591a03ac234be06520c5ab386d4b6632e8eef0d0db7652ae"], "sequence": 4294967295, "scriptSig": {"hex": "220020f63dfc12340f6360d0251c22746d6b56093e3243e96ca012a65484a5d9cf0ec0", "asm": "0020f63dfc12340f6360d0251c22746d6b56093e3243e96ca012a65484a5d9cf0ec0"}, "vout": 1, "txid": "40bfe5ed4481af7d946d430718ae7e85b1189ab386a850604ab29761d0762163"}], "txid": "736908a6897645b6871d92817f2a93f3df38917354f711da2d22eb4957c79f20", "blocktime": 1537875543, "version": 1, "confirmations": 11464, "time": 1537875543, "locktime": 0, "vsize": 205, "size": 370}