{"hash": "736c0c8313e023508f68d0ac7a21fa30fb1e58c711752dea46b14fb49d5acd22", "blockhash": "0000000000000000001cda96e906b7601b7a6fb1a3b62bca570a9e5d8f4b3de1", "vout": [{"scriptPubKey": {"type": "nulldata", "hex": "6a4c50000077c00001a8d5c4afb0b3e76a456476e9e5bf9ae76da98a211aaf6c953dd567cf27e7ef0c3a598d6b9b511c001fb53e65150a5baa12ad061302a340cad96f1d100759d4ba30d2c37bb011d97e02cf", "asm": "OP_RETURN 000077c00001a8d5c4afb0b3e76a456476e9e5bf9ae76da98a211aaf6c953dd567cf27e7ef0c3a598d6b9b511c001fb53e65150a5baa12ad061302a340cad96f1d100759d4ba30d2c37bb011d97e02cf"}, "value": 0.0, "n": 0}, {"scriptPubKey": {"reqSigs": 1, "hex": "76a91465bdeb5685096bfec94bb0c24b16b2e7f09c38c788ac", "addresses": ["1AGxmCWSP6ZravYwTUUFfwDXr1BxwFACfX"], "asm": "OP_DUP OP_HASH160 65bdeb5685096bfec94bb0c24b16b2e7f09c38c7 OP_EQUALVERIFY OP_CHECKSIG", "type": "pubkeyhash"}, "value": 0.0063952, "n": 1}], "hex": "0100000001be36e377a932448a9fadc2d8e5d12aa87d4b37e5fbf4891a7a2c55c392551ade000000006a47304402207a7c4241ed4851043e7a407d91f47c536a44642c024a8f231cc0150825cb17b90220381c8d556bcc692c13bf53731854aa29f02cf40f526ca9047e9e671fbfe422ae012103955527e9e7af28b71b285ba910a55996a7e4fde066bfb70fcc453424714049d9ffffffff020000000000000000536a4c50000077c00001a8d5c4afb0b3e76a456476e9e5bf9ae76da98a211aaf6c953dd567cf27e7ef0c3a598d6b9b511c001fb53e65150a5baa12ad061302a340cad96f1d100759d4ba30d2c37bb011d97e02cf20c20900000000001976a91465bdeb5685096bfec94bb0c24b16b2e7f09c38c788ac00000000", "vin": [{"sequence": 4294967295, "scriptSig": {"hex": "47304402207a7c4241ed4851043e7a407d91f47c536a44642c024a8f231cc0150825cb17b90220381c8d556bcc692c13bf53731854aa29f02cf40f526ca9047e9e671fbfe422ae012103955527e9e7af28b71b285ba910a55996a7e4fde066bfb70fcc453424714049d9", "asm": "304402207a7c4241ed4851043e7a407d91f47c536a44642c024a8f231cc0150825cb17b90220381c8d556bcc692c13bf53731854aa29f02cf40f526ca9047e9e671fbfe422ae[ALL] 03955527e9e7af28b71b285ba910a55996a7e4fde066bfb70fcc453424714049d9"}, "vout": 0, "txid": "de1a5592c3552c7a1a89f4fbe5374b7da82ad1e5d8c2ad9f8a4432a977e336be"}], "txid": "736c0c8313e023508f68d0ac7a21fa30fb1e58c711752dea46b14fb49d5acd22", "blocktime": 1537873282, "version": 1, "confirmations": 11484, "time": 1537873282, "locktime": 0, "vsize": 283, "size": 283}