{"hash": "736d5e947e5d02cfbc6d31e85097a060f5db974de9b7138d62d68ebb7238bc98", "blockhash": "0000000000000000001f0ddff1eddb255c1121bcd4da4f1bc9a0da00cae72433", "vout": [{"scriptPubKey": {"reqSigs": 1, "hex": "a914823b803a6debd8f5c13cac768c3f962b05e985c087", "addresses": ["3DZd3gAkzu71RMJt9ag6J5GXkbws2BLhF5"], "asm": "OP_HASH160 823b803a6debd8f5c13cac768c3f962b05e985c0 OP_EQUAL", "type": "scripthash"}, "value": 0.0036, "n": 0}, {"scriptPubKey": {"reqSigs": 1, "hex": "76a914bc46b3090164f75be2904bc9167b45405370194b88ac", "addresses": ["1JAWjLopLttR7gK5PaZFKjKW2ZzW8DioCA"], "asm": "OP_DUP OP_HASH160 bc46b3090164f75be2904bc9167b45405370194b OP_EQUALVERIFY OP_CHECKSIG", "type": "pubkeyhash"}, "value": 0.03026168, "n": 1}], "hex": "0100000001d4ad4019e05755fc981f5323fb720254338e9035623a62cf0ef85760f3d1d6f7010000006b483045022100d31632f857230d876ad915bb5f220a0586357b69c7988e6a6ad1d3151c1bdb890220204671d6e15e0cacbb10ea0bf4766f655caf444433cbc7ded6a3e12ed1207f1101210359d7bc8921189020d87b72ce798e7f462fb53ea2ef9499aae4880fed90eac7a8ffffffff02407e05000000000017a914823b803a6debd8f5c13cac768c3f962b05e985c087f82c2e00000000001976a914bc46b3090164f75be2904bc9167b45405370194b88ac00000000", "vin": [{"sequence": 4294967295, "scriptSig": {"hex": "483045022100d31632f857230d876ad915bb5f220a0586357b69c7988e6a6ad1d3151c1bdb890220204671d6e15e0cacbb10ea0bf4766f655caf444433cbc7ded6a3e12ed1207f1101210359d7bc8921189020d87b72ce798e7f462fb53ea2ef9499aae4880fed90eac7a8", "asm": "3045022100d31632f857230d876ad915bb5f220a0586357b69c7988e6a6ad1d3151c1bdb890220204671d6e15e0cacbb10ea0bf4766f655caf444433cbc7ded6a3e12ed1207f11[ALL] 0359d7bc8921189020d87b72ce798e7f462fb53ea2ef9499aae4880fed90eac7a8"}, "vout": 1, "txid": "f7d6d1f36057f80ecf623a6235908e33540272fb23531f98fc5557e01940add4"}], "txid": "736d5e947e5d02cfbc6d31e85097a060f5db974de9b7138d62d68ebb7238bc98", "blocktime": 1537872018, "version": 1, "confirmations": 11489, "time": 1537872018, "locktime": 0, "vsize": 224, "size": 224}