{"hash": "737051f839c8ac08434799732a26ddf32503e0d0baeeb4dd7cefbe6fa99b9cd4", "blockhash": "0000000000000000001f76057863aec43deb6fa401d9628bb513d65a8098bfab", "vout": [{"scriptPubKey": {"reqSigs": 1, "hex": "a91464a406c538f34800882e9316b12586f47403edfd87", "addresses": ["3As9zV2qvP3GrxUCdgSyQ6HzoyfoyFroBf"], "asm": "OP_HASH160 64a406c538f34800882e9316b12586f47403edfd OP_EQUAL", "type": "scripthash"}, "value": 0.00155993, "n": 0}, {"scriptPubKey": {"reqSigs": 1, "hex": "76a9141acff159a0f64bc32041fd741e253a672b5b884588ac", "addresses": ["13Smg75b9VwYjcQ34yx8fXpgq6iwLJ6mvw"], "asm": "OP_DUP OP_HASH160 1acff159a0f64bc32041fd741e253a672b5b8845 OP_EQUALVERIFY OP_CHECKSIG", "type": "pubkeyhash"}, "value": 0.0036166, "n": 1}], "hex": "010000000101279821fbd92efaae92764c8590258b7b6cdcf2abfd110b51bcf36f732d4337000000006a4730440220168758bbc67283c87335d174e7c06078f2ec70e704ce3747ac7382e940af35f5022004d03dd595586405ef0ed4551ef96ba1523840cf849ba56bc02438dc6eeb469c012103712087c8de4aa1a32bc6bd374d6ae1becf511e59b09eeee1b99ca4ebed1b13e1feffffff02596102000000000017a91464a406c538f34800882e9316b12586f47403edfd87bc840500000000001976a9141acff159a0f64bc32041fd741e253a672b5b884588ac14490800", "vin": [{"sequence": 4294967294, "scriptSig": {"hex": "4730440220168758bbc67283c87335d174e7c06078f2ec70e704ce3747ac7382e940af35f5022004d03dd595586405ef0ed4551ef96ba1523840cf849ba56bc02438dc6eeb469c012103712087c8de4aa1a32bc6bd374d6ae1becf511e59b09eeee1b99ca4ebed1b13e1", "asm": "30440220168758bbc67283c87335d174e7c06078f2ec70e704ce3747ac7382e940af35f5022004d03dd595586405ef0ed4551ef96ba1523840cf849ba56bc02438dc6eeb469c[ALL] 03712087c8de4aa1a32bc6bd374d6ae1becf511e59b09eeee1b99ca4ebed1b13e1"}, "vout": 0, "txid": "37432d736ff3bc510b11fdabf2dc6c7b8b2590854c7692aefa2ed9fb21982701"}], "txid": "737051f839c8ac08434799732a26ddf32503e0d0baeeb4dd7cefbe6fa99b9cd4", "blocktime": 1537873891, "version": 1, "confirmations": 11479, "time": 1537873891, "locktime": 542996, "vsize": 223, "size": 223}