{"hash": "73803f81f9e95cd6cc04f52a0f00c51e7ec119aea2499971c3ada34c9af79013", "blockhash": "0000000000000000001f0ddff1eddb255c1121bcd4da4f1bc9a0da00cae72433", "vout": [{"scriptPubKey": {"reqSigs": 1, "hex": "76a9148379f2ff4e56d036a9ff322813866e92fed2390588ac", "addresses": ["1CzBcJwXdu2TmjetpHXf1A7ts5mThdbdU2"], "asm": "OP_DUP OP_HASH160 8379f2ff4e56d036a9ff322813866e92fed23905 OP_EQUALVERIFY OP_CHECKSIG", "type": "pubkeyhash"}, "value": 1.62841301, "n": 0}], "hex": "020000000f179e6e62441a6e8ebe5a05f6077185c2f0e879568522b72eac2c7d023d6a446f020000006b483045022100decd6d3824e84bf738919e1b97a5331ec5a5215190edd80c18d1810a3eed4ddd022026cb2f029fdb3b1f111c2b99a6d6faae0b0b02e367445d855e70d5d0f71e9e14012102ed0f3ddc27ab0e576a34cf2ddfb31450eb083664989e59b42f4be8746cadbfb3ffffffff2b16ebff96bc4aaf15bbf71225ada6505faef026eca5c741a822f37804cc7394000000006b48304502210080fd0caec72bfbf2ef267856caf2f26ab724fe4d6c654e1cf81ac03e14b5b83402203d5bd945e8475730e18c4e3afd60f7266d8e66541712f11488c293a05543a83e0121023cb18572bb12b4af0d741da69e3f5246537c814a9bde4c25ad836b71ce5e2f08ffffffff309f9cc977fc89dfa3ee0be7a9218415e406d058c3277f1a91adfba05a9357f4840000006b483045022100ad7ec009db40cf2c22ffc90b54888410691b1d644216f2e453378e6640b32c670220468b1633c89b62553e17b2aa1257ad43446727bc3285dae188731b52ecd28b84012103235470106c66c0a502bca10581a16ad2a4e18deb9dad994ce5153436683e03e7ffffffff3295caa78dfcacd50f6458c9ebf3123191c28b144e27dfb308c4234ae4ede397000000006b483045022100cd5ef124ba530d1386ea178c76827fb5061ea9e4365ad60ec7e9e65c29016561022011094768191401c36337006c86ca8550f6b12ecd6b3907d03622cdb9278c867e01210257165d8069a9a52c92ce94ef7998ebb0a37cb1bc12b129827a981fd411205249ffffffff353f1e9bf4c3d2c25ac5d690bffd371c757f52973a59a4f68573a5910217f1a2010000006a47304402204cb42d8421d7950ef6c5b5634992d63819d0987394882a5df141404b86847fdb02206a0b0aa9231682a3fc18bdadd90864c086702ab49832ae011a0380fa124a05b601210320d390b0ab5730d89fbf8e7074ca3e57c609834c3b876c21d99f69af5934155bffffffff4741fe612d4a0037359246490776f23dc2b52852849864a56b40245ff33ded02090000006a4730440220482fa25e940a1ae40215d76ff22db07ab7eec1118a66ad600bcc0e42f5a51b9a022013e010d32634b323737733f3367e1dfce374230a3ae94931259923aeb49fc2d80121023ddbc8b36fd8e477818134fb1e221613e987a4f35c0367223b8311d031cb3ffbffffffff58be769324b5c33704fd068f8d1b35e686d89f4d43c65b4d2c3f166207e27327090000006b483045022100a7ccf61e96db3af36c3146bcf895f97d2ee1996a61c4fd597537c72021ace86a022057713d58b3010b170a1354f02bf34c52b875c715f3d909a5ec4f751a62b397bd0121034a58a5c124a1fc13fa25c9e013db4c13ec0746333ba6ba9b5acb44109b946505ffffffffb1f9411e8d6f4bf89ea089cbc4b25be184fd45c0b23701afd98679fd0ac627cb010000006a473044022006c607c640b16557b35f8f4e59c9626057148835d7766b3ad3853ffe71baa8db022012ccd7811e5c5306df4afadb12ad23a4bab12d57be28f57a9af469c20c9c27f3012102528d4f9fc555c63822cfe4ef3f3c6431c47f81bbbe806027162ab885ddcc60a0ffffffffb7643bcca4c53f7feb4e88aa7117a7dce8dca32adb86704b35220180db812f47010000006b483045022100805c3b95f27514e4112387c191e2efbab0bf6cd8b1ef367879f4877edb4d6a5f02206e180b0f474a04d27de17f7768f3238befb908041471c932b7d78591e75a53ab012102d84cdcadce1ecff5d6c71739c3b398519bd39a43395d3a81aaa30db06d0eab5affffffffc08837d5df28db00f23c40789c083441cd0ae12785c5376f0ab041502f7b37df020000006a473044022029f10010dbad7d194ff657d15e0b6434e079210f2d66df58029a8efbc019424a022026028035bdf71f328199355f80279618e6fe34a042efdbfa20a0503d87469a89012102a9e701f08f7e2d890b26d4bd362b0c4888623618549628484001162ff1c458c8ffffffffc0ffe871618f097d6ab6a25e524768eda604752123a3d4d5c350203265c051691f0100006a47304402202d9fd6090a06784208d107116c48ab7f6ee68627dd775fca8b688a54a571e21e0220624194a1c23affdec65c3eb09b5e5d001cd6b2c75032105b53ee1256cf0228b50121032d1c79b020768b0accb890c907c2502cce58c406bd0fd13b56a54f544750ebfeffffffffc60141bc7bbe09ea5e5469eb206d3afad7acbd22dd7fbfb3c197d7718779e714060000006b483045022100b4a37117608a9742cf7378158a390cd9e14fecfb60b834f4a012df08286d1b7c02206a91edcdc487aba23c4ce62710c0c37e53b5891bdc5ebce3149ce056c676acca01210256ee96401001fbb5ac37a442ec95af7b8a9884736b321666e6094b9100ff9d20ffffffffc94e8c74799a572d24733441d7acd5866318465b896cb2281c09bcbeded89f054b0100006b483045022100e71a10cd9b95590daeb478eada623fddab9795436a3fcd312df216d8a6014f8a02205ea9214e8abb4f692c82286ada106e071f05585c731861c2f6f0d2a7981058530121032eafea8a7089ec160a5e44efc4cda47d10a42722852e40701a4af9328d765f51ffffffffd723525026570dff3e9dbaa864aa1e22bb757ad2fb3673bc1eae1adcdbc70976aa0000006a47304402203364c397e4ceec62123910c7dd15d1bc91cdfd958306f4bac5180c2102ba1b4e02207e41bfe8f49fd6ff6af709150ce21cf609689a386fc4f9f00f1633de852b5efb01210276259a73d3fc5d41ebd1d014ad5ff11a7213c50ddf29f7f26b31ab146bf1db29fffffffff10aa557d6b52b47a60779293e5b89d2ff1364424e7974fd7d2591251f830dee000000006a473044022028fc270f2afc0378ea9ae431e6e160baf191ee7284d2b6bdcd00659d204c163802207e45c506e826b6a24de697871d05fd182469eccfcf64f99b6585237544b73478012103448ef994d918ef4f0eb667997cf75282f978e1a9923974e38da44defdc0309dcffffffff01d5c2b409000000001976a9148379f2ff4e56d036a9ff322813866e92fed2390588ac00000000", "vin": [{"sequence": 4294967295, "scriptSig": {"hex": "483045022100decd6d3824e84bf738919e1b97a5331ec5a5215190edd80c18d1810a3eed4ddd022026cb2f029fdb3b1f111c2b99a6d6faae0b0b02e367445d855e70d5d0f71e9e14012102ed0f3ddc27ab0e576a34cf2ddfb31450eb083664989e59b42f4be8746cadbfb3", "asm": "3045022100decd6d3824e84bf738919e1b97a5331ec5a5215190edd80c18d1810a3eed4ddd022026cb2f029fdb3b1f111c2b99a6d6faae0b0b02e367445d855e70d5d0f71e9e14[ALL] 02ed0f3ddc27ab0e576a34cf2ddfb31450eb083664989e59b42f4be8746cadbfb3"}, "vout": 2, "txid": "6f446a3d027d2cac2eb722855679e8f0c2857107f6055abe8e6e1a44626e9e17"}, {"sequence": 4294967295, "scriptSig": {"hex": "48304502210080fd0caec72bfbf2ef267856caf2f26ab724fe4d6c654e1cf81ac03e14b5b83402203d5bd945e8475730e18c4e3afd60f7266d8e66541712f11488c293a05543a83e0121023cb18572bb12b4af0d741da69e3f5246537c814a9bde4c25ad836b71ce5e2f08", "asm": "304502210080fd0caec72bfbf2ef267856caf2f26ab724fe4d6c654e1cf81ac03e14b5b83402203d5bd945e8475730e18c4e3afd60f7266d8e66541712f11488c293a05543a83e[ALL] 023cb18572bb12b4af0d741da69e3f5246537c814a9bde4c25ad836b71ce5e2f08"}, "vout": 0, "txid": "9473cc0478f322a841c7a5ec26f0ae5f50a6ad2512f7bb15af4abc96ffeb162b"}, {"sequence": 4294967295, "scriptSig": {"hex": "483045022100ad7ec009db40cf2c22ffc90b54888410691b1d644216f2e453378e6640b32c670220468b1633c89b62553e17b2aa1257ad43446727bc3285dae188731b52ecd28b84012103235470106c66c0a502bca10581a16ad2a4e18deb9dad994ce5153436683e03e7", "asm": "3045022100ad7ec009db40cf2c22ffc90b54888410691b1d644216f2e453378e6640b32c670220468b1633c89b62553e17b2aa1257ad43446727bc3285dae188731b52ecd28b84[ALL] 03235470106c66c0a502bca10581a16ad2a4e18deb9dad994ce5153436683e03e7"}, "vout": 132, "txid": "f457935aa0fbad911a7f27c358d006e4158421a9e70beea3df89fc77c99c9f30"}, {"sequence": 4294967295, "scriptSig": {"hex": "483045022100cd5ef124ba530d1386ea178c76827fb5061ea9e4365ad60ec7e9e65c29016561022011094768191401c36337006c86ca8550f6b12ecd6b3907d03622cdb9278c867e01210257165d8069a9a52c92ce94ef7998ebb0a37cb1bc12b129827a981fd411205249", "asm": "3045022100cd5ef124ba530d1386ea178c76827fb5061ea9e4365ad60ec7e9e65c29016561022011094768191401c36337006c86ca8550f6b12ecd6b3907d03622cdb9278c867e[ALL] 0257165d8069a9a52c92ce94ef7998ebb0a37cb1bc12b129827a981fd411205249"}, "vout": 0, "txid": "97e3ede44a23c408b3df274e148bc2913112f3ebc958640fd5acfc8da7ca9532"}, {"sequence": 4294967295, "scriptSig": {"hex": "47304402204cb42d8421d7950ef6c5b5634992d63819d0987394882a5df141404b86847fdb02206a0b0aa9231682a3fc18bdadd90864c086702ab49832ae011a0380fa124a05b601210320d390b0ab5730d89fbf8e7074ca3e57c609834c3b876c21d99f69af5934155b", "asm": "304402204cb42d8421d7950ef6c5b5634992d63819d0987394882a5df141404b86847fdb02206a0b0aa9231682a3fc18bdadd90864c086702ab49832ae011a0380fa124a05b6[ALL] 0320d390b0ab5730d89fbf8e7074ca3e57c609834c3b876c21d99f69af5934155b"}, "vout": 1, "txid": "a2f1170291a57385f6a4593a97527f751c37fdbf90d6c55ac2d2c3f49b1e3f35"}, {"sequence": 4294967295, "scriptSig": {"hex": "4730440220482fa25e940a1ae40215d76ff22db07ab7eec1118a66ad600bcc0e42f5a51b9a022013e010d32634b323737733f3367e1dfce374230a3ae94931259923aeb49fc2d80121023ddbc8b36fd8e477818134fb1e221613e987a4f35c0367223b8311d031cb3ffb", "asm": "30440220482fa25e940a1ae40215d76ff22db07ab7eec1118a66ad600bcc0e42f5a51b9a022013e010d32634b323737733f3367e1dfce374230a3ae94931259923aeb49fc2d8[ALL] 023ddbc8b36fd8e477818134fb1e221613e987a4f35c0367223b8311d031cb3ffb"}, "vout": 9, "txid": "02ed3df35f24406ba56498845228b5c23df276074946923537004a2d61fe4147"}, {"sequence": 4294967295, "scriptSig": {"hex": "483045022100a7ccf61e96db3af36c3146bcf895f97d2ee1996a61c4fd597537c72021ace86a022057713d58b3010b170a1354f02bf34c52b875c715f3d909a5ec4f751a62b397bd0121034a58a5c124a1fc13fa25c9e013db4c13ec0746333ba6ba9b5acb44109b946505", "asm": "3045022100a7ccf61e96db3af36c3146bcf895f97d2ee1996a61c4fd597537c72021ace86a022057713d58b3010b170a1354f02bf34c52b875c715f3d909a5ec4f751a62b397bd[ALL] 034a58a5c124a1fc13fa25c9e013db4c13ec0746333ba6ba9b5acb44109b946505"}, "vout": 9, "txid": "2773e20762163f2c4d5bc6434d9fd886e6351b8d8f06fd0437c3b5249376be58"}, {"sequence": 4294967295, "scriptSig": {"hex": "473044022006c607c640b16557b35f8f4e59c9626057148835d7766b3ad3853ffe71baa8db022012ccd7811e5c5306df4afadb12ad23a4bab12d57be28f57a9af469c20c9c27f3012102528d4f9fc555c63822cfe4ef3f3c6431c47f81bbbe806027162ab885ddcc60a0", "asm": "3044022006c607c640b16557b35f8f4e59c9626057148835d7766b3ad3853ffe71baa8db022012ccd7811e5c5306df4afadb12ad23a4bab12d57be28f57a9af469c20c9c27f3[ALL] 02528d4f9fc555c63822cfe4ef3f3c6431c47f81bbbe806027162ab885ddcc60a0"}, "vout": 1, "txid": "cb27c60afd7986d9af0137b2c045fd84e15bb2c4cb89a09ef84b6f8d1e41f9b1"}, {"sequence": 4294967295, "scriptSig": {"hex": "483045022100805c3b95f27514e4112387c191e2efbab0bf6cd8b1ef367879f4877edb4d6a5f02206e180b0f474a04d27de17f7768f3238befb908041471c932b7d78591e75a53ab012102d84cdcadce1ecff5d6c71739c3b398519bd39a43395d3a81aaa30db06d0eab5a", "asm": "3045022100805c3b95f27514e4112387c191e2efbab0bf6cd8b1ef367879f4877edb4d6a5f02206e180b0f474a04d27de17f7768f3238befb908041471c932b7d78591e75a53ab[ALL] 02d84cdcadce1ecff5d6c71739c3b398519bd39a43395d3a81aaa30db06d0eab5a"}, "vout": 1, "txid": "472f81db800122354b7086db2aa3dce8dca71771aa884eeb7f3fc5a4cc3b64b7"}, {"sequence": 4294967295, "scriptSig": {"hex": "473044022029f10010dbad7d194ff657d15e0b6434e079210f2d66df58029a8efbc019424a022026028035bdf71f328199355f80279618e6fe34a042efdbfa20a0503d87469a89012102a9e701f08f7e2d890b26d4bd362b0c4888623618549628484001162ff1c458c8", "asm": "3044022029f10010dbad7d194ff657d15e0b6434e079210f2d66df58029a8efbc019424a022026028035bdf71f328199355f80279618e6fe34a042efdbfa20a0503d87469a89[ALL] 02a9e701f08f7e2d890b26d4bd362b0c4888623618549628484001162ff1c458c8"}, "vout": 2, "txid": "df377b2f5041b00a6f37c58527e10acd4134089c78403cf200db28dfd53788c0"}, {"sequence": 4294967295, "scriptSig": {"hex": "47304402202d9fd6090a06784208d107116c48ab7f6ee68627dd775fca8b688a54a571e21e0220624194a1c23affdec65c3eb09b5e5d001cd6b2c75032105b53ee1256cf0228b50121032d1c79b020768b0accb890c907c2502cce58c406bd0fd13b56a54f544750ebfe", "asm": "304402202d9fd6090a06784208d107116c48ab7f6ee68627dd775fca8b688a54a571e21e0220624194a1c23affdec65c3eb09b5e5d001cd6b2c75032105b53ee1256cf0228b5[ALL] 032d1c79b020768b0accb890c907c2502cce58c406bd0fd13b56a54f544750ebfe"}, "vout": 287, "txid": "6951c065322050c3d5d4a323217504a6ed6847525ea2b66a7d098f6171e8ffc0"}, {"sequence": 4294967295, "scriptSig": {"hex": "483045022100b4a37117608a9742cf7378158a390cd9e14fecfb60b834f4a012df08286d1b7c02206a91edcdc487aba23c4ce62710c0c37e53b5891bdc5ebce3149ce056c676acca01210256ee96401001fbb5ac37a442ec95af7b8a9884736b321666e6094b9100ff9d20", "asm": "3045022100b4a37117608a9742cf7378158a390cd9e14fecfb60b834f4a012df08286d1b7c02206a91edcdc487aba23c4ce62710c0c37e53b5891bdc5ebce3149ce056c676acca[ALL] 0256ee96401001fbb5ac37a442ec95af7b8a9884736b321666e6094b9100ff9d20"}, "vout": 6, "txid": "14e7798771d797c1b3bf7fdd22bdacd7fa3a6d20eb69545eea09be7bbc4101c6"}, {"sequence": 4294967295, "scriptSig": {"hex": "483045022100e71a10cd9b95590daeb478eada623fddab9795436a3fcd312df216d8a6014f8a02205ea9214e8abb4f692c82286ada106e071f05585c731861c2f6f0d2a7981058530121032eafea8a7089ec160a5e44efc4cda47d10a42722852e40701a4af9328d765f51", "asm": "3045022100e71a10cd9b95590daeb478eada623fddab9795436a3fcd312df216d8a6014f8a02205ea9214e8abb4f692c82286ada106e071f05585c731861c2f6f0d2a798105853[ALL] 032eafea8a7089ec160a5e44efc4cda47d10a42722852e40701a4af9328d765f51"}, "vout": 331, "txid": "059fd8debebc091c28b26c895b46186386d5acd7413473242d579a79748c4ec9"}, {"sequence": 4294967295, "scriptSig": {"hex": "47304402203364c397e4ceec62123910c7dd15d1bc91cdfd958306f4bac5180c2102ba1b4e02207e41bfe8f49fd6ff6af709150ce21cf609689a386fc4f9f00f1633de852b5efb01210276259a73d3fc5d41ebd1d014ad5ff11a7213c50ddf29f7f26b31ab146bf1db29", "asm": "304402203364c397e4ceec62123910c7dd15d1bc91cdfd958306f4bac5180c2102ba1b4e02207e41bfe8f49fd6ff6af709150ce21cf609689a386fc4f9f00f1633de852b5efb[ALL] 0276259a73d3fc5d41ebd1d014ad5ff11a7213c50ddf29f7f26b31ab146bf1db29"}, "vout": 170, "txid": "7609c7dbdc1aae1ebc7336fbd27a75bb221eaa64a8ba9d3eff0d5726505223d7"}, {"sequence": 4294967295, "scriptSig": {"hex": "473044022028fc270f2afc0378ea9ae431e6e160baf191ee7284d2b6bdcd00659d204c163802207e45c506e826b6a24de697871d05fd182469eccfcf64f99b6585237544b73478012103448ef994d918ef4f0eb667997cf75282f978e1a9923974e38da44defdc0309dc", "asm": "3044022028fc270f2afc0378ea9ae431e6e160baf191ee7284d2b6bdcd00659d204c163802207e45c506e826b6a24de697871d05fd182469eccfcf64f99b6585237544b73478[ALL] 03448ef994d918ef4f0eb667997cf75282f978e1a9923974e38da44defdc0309dc"}, "vout": 0, "txid": "ee0d831f2591257dfd74794e426413ffd2895b3e297907a6472bb5d657a50af1"}], "txid": "73803f81f9e95cd6cc04f52a0f00c51e7ec119aea2499971c3ada34c9af79013", "blocktime": 1537872018, "version": 2, "confirmations": 11489, "time": 1537872018, "locktime": 0, "vsize": 2257, "size": 2257}