{"hash": "c8c962c569844c077958495d0070f235f8f5090e0ac5942f48f6dd41c5e97fc5", "blockhash": "0000000000000000000dcc0f55137456b1a82d3642486a52398922ac4d620174", "vout": [{"scriptPubKey": {"reqSigs": 1, "hex": "76a914a9c270ef2428747fc66798041e61420f1cac0b6788ac", "addresses": ["1GUc8RnAnYVbg6EgshcPjqKHjgMmHZVVzv"], "asm": "OP_DUP OP_HASH160 a9c270ef2428747fc66798041e61420f1cac0b67 OP_EQUALVERIFY OP_CHECKSIG", "type": "pubkeyhash"}, "value": 1.0, "n": 0}, {"scriptPubKey": {"reqSigs": 1, "hex": "a914274228cd72ec1a6024f787d377a38432fd4a98d887", "addresses": ["35GbXrpbDGVPWwDd8TiS5hULYMfraDXmNF"], "asm": "OP_HASH160 274228cd72ec1a6024f787d377a38432fd4a98d8 OP_EQUAL", "type": "scripthash"}, "value": 0.01000671, "n": 1}], "hex": "020000000001082a0303eeefb85162d5c8c261f226a494ce5650b686362afe8ea2d0248ad5081700000000171600146939d975c8802f63f2a134b6a3025607f57bba03fdffffff5921093939e0b7b1b419e010867fbfea581b67e847b8c4ebd9f064cd33bf0c9b010000001716001441d8bc18114d198318d0848ba6bce4ededa4db22fdffffff6b6918560e05d713d468e788b2490fdeaa3ae6bf2a5bcd4bf2316cd7d934841a0000000017160014fec6ec6f6670530caed2fcc48dcd21ce6d7c877dfdffffffbc8837c409d306223e0a6b04a6eeab6b233ce83f65e7ac445e98986c2dc66f0b000000001716001441d8bc18114d198318d0848ba6bce4ededa4db22fdffffffcfce4960e459bf31214615b98c31dcf30e183654bed268b3fc2e5391290cc2aa00000000171600143e0f3f84cbd8b0d8fb731e66ac017b5f9956fa50fdffffffe4a63022b051fa7ed6ff3fb28439e7bda166d98fb1176c37d84e5b17460ea684010000001716001482223999f0b7cf63082495ff7934c32f433534d4fdfffffff755fea4ad1488e3b6eac0bb79ecc1e3b6506bed6466d27c4aa5b2eb2b31403700000000171600148fc96359009b18b0ef9d7df516dfaf5d26be478cfdffffffff290f6117d14a5205a7d8bc4e3d7399bfb7afd9a6d5c189cc475231998c77990100000017160014737b8e92cf2c1380a4a64f5580721ae4dcf47542fdffffff0200e1f505000000001976a914a9c270ef2428747fc66798041e61420f1cac0b6788acdf440f000000000017a914274228cd72ec1a6024f787d377a38432fd4a98d88702473044022000b8bad4ee6a20c6024d33c03517ab282ec344c75a6b6109f66f9b44ae3a9ef902205c3009a3d527ab79e3d6722b36fdc68842102a5c3ef243afe7bd866be81fde1c0121033ad96a48f33a8f8eba87173b16e265004aaff0b6b20ff2e70d11c932579614c702483045022100908d4c8e77f1eb68221e5c6aa814f1de70b3a3fcb981e367a116428a9ab34ee402200bb3734cf7b8a9a9a0460a40bd84c84b6f8e10582163d6372ce5a305c7039da70121027ff1fc2ae46775621e0c4bc73b0b2fc75c60fc00371333d160b7457b4822ce9c02483045022100d2814b33df8f6a3a4146601d054a952f1ff81f36a55f85a2c8cdc043bba5cc0b02205728e9e71c9e10e790ececbc652ef1e3bcb0c61acd753633825f5b0275e3bd6b012102ca4f95fc4db6dce0a11a7a25e9ac4af41fe285a60d8e368e87769a127acc1d9302483045022100f1d290da8fd9a623b40dd8cf617e6422fd9054ba700ffa1f85b8c5785cca182402202386f083373d6cc3e0e16749ec7fa1f5b522ec6a7c8e48b426816e2010edcaf40121027ff1fc2ae46775621e0c4bc73b0b2fc75c60fc00371333d160b7457b4822ce9c0247304402205be86e460dbaf155dcb1eec5e167f8eca2af528332b46e6777c026ce82e5e9c702204618eaf08fcb575c644e0f8725dd4564f92d29dc0cbec8c65a9b4b333f84641801210336a92ecf43f86e282c90e3e36c54e848cd7472938175a80b64fa2122c364828e0248304502210086e31198bd0c05147e9b4ae957534dc33ab33fc53e4a569a6a8d71dedc849a7c02200b55e646906236b49af31de98c97208d2eb93a3fa3c97986e3059ecf7cf0b9f201210335000e449463d010fe0afbf0b3bf6a2ce880259a8cf908cbffd8314be178fb630248304502210088ee5c9ed63c5886aa6293df37812b6c46ce61e5961acd84ece9ba0125a118e30220582785e3f7126011090482ae241a4e341d17189ed0c52cc32fccfdb94c595d9401210225cbd566c6967524108f33a886e9567d5c3a89533171a69618c4d39a654188620247304402207031c23ec089b9024eaec609d699747841410582b420286fadf8a42df62330fa0220777015a63cf240b957713336be803122e8db9a77fb73a0239e9b591069abb80101210291060f6ab373c6a6c76131718eb16bc4939629a8e7ce9252237cb35a8f7702ed0c490800", "vin": [{"txinwitness": ["3044022000b8bad4ee6a20c6024d33c03517ab282ec344c75a6b6109f66f9b44ae3a9ef902205c3009a3d527ab79e3d6722b36fdc68842102a5c3ef243afe7bd866be81fde1c01", "033ad96a48f33a8f8eba87173b16e265004aaff0b6b20ff2e70d11c932579614c7"], "sequence": 4294967293, "scriptSig": {"hex": "1600146939d975c8802f63f2a134b6a3025607f57bba03", "asm": "00146939d975c8802f63f2a134b6a3025607f57bba03"}, "vout": 0, "txid": "1708d58a24d0a28efe2a3686b65056ce94a426f261c2c8d56251b8efee03032a"}, {"txinwitness": ["3045022100908d4c8e77f1eb68221e5c6aa814f1de70b3a3fcb981e367a116428a9ab34ee402200bb3734cf7b8a9a9a0460a40bd84c84b6f8e10582163d6372ce5a305c7039da701", "027ff1fc2ae46775621e0c4bc73b0b2fc75c60fc00371333d160b7457b4822ce9c"], "sequence": 4294967293, "scriptSig": {"hex": "16001441d8bc18114d198318d0848ba6bce4ededa4db22", "asm": "001441d8bc18114d198318d0848ba6bce4ededa4db22"}, "vout": 1, "txid": "9b0cbf33cd64f0d9ebc4b847e8671b58eabf7f8610e019b4b1b7e03939092159"}, {"txinwitness": ["3045022100d2814b33df8f6a3a4146601d054a952f1ff81f36a55f85a2c8cdc043bba5cc0b02205728e9e71c9e10e790ececbc652ef1e3bcb0c61acd753633825f5b0275e3bd6b01", "02ca4f95fc4db6dce0a11a7a25e9ac4af41fe285a60d8e368e87769a127acc1d93"], "sequence": 4294967293, "scriptSig": {"hex": "160014fec6ec6f6670530caed2fcc48dcd21ce6d7c877d", "asm": "0014fec6ec6f6670530caed2fcc48dcd21ce6d7c877d"}, "vout": 0, "txid": "1a8434d9d76c31f24bcd5b2abfe63aaade0f49b288e768d413d7050e5618696b"}, {"txinwitness": ["3045022100f1d290da8fd9a623b40dd8cf617e6422fd9054ba700ffa1f85b8c5785cca182402202386f083373d6cc3e0e16749ec7fa1f5b522ec6a7c8e48b426816e2010edcaf401", "027ff1fc2ae46775621e0c4bc73b0b2fc75c60fc00371333d160b7457b4822ce9c"], "sequence": 4294967293, "scriptSig": {"hex": "16001441d8bc18114d198318d0848ba6bce4ededa4db22", "asm": "001441d8bc18114d198318d0848ba6bce4ededa4db22"}, "vout": 0, "txid": "0b6fc62d6c98985e44ace7653fe83c236babeea6046b0a3e2206d309c43788bc"}, {"txinwitness": ["304402205be86e460dbaf155dcb1eec5e167f8eca2af528332b46e6777c026ce82e5e9c702204618eaf08fcb575c644e0f8725dd4564f92d29dc0cbec8c65a9b4b333f84641801", "0336a92ecf43f86e282c90e3e36c54e848cd7472938175a80b64fa2122c364828e"], "sequence": 4294967293, "scriptSig": {"hex": "1600143e0f3f84cbd8b0d8fb731e66ac017b5f9956fa50", "asm": "00143e0f3f84cbd8b0d8fb731e66ac017b5f9956fa50"}, "vout": 0, "txid": "aac20c2991532efcb368d2be5436180ef3dc318cb915462131bf59e46049cecf"}, {"txinwitness": ["304502210086e31198bd0c05147e9b4ae957534dc33ab33fc53e4a569a6a8d71dedc849a7c02200b55e646906236b49af31de98c97208d2eb93a3fa3c97986e3059ecf7cf0b9f201", "0335000e449463d010fe0afbf0b3bf6a2ce880259a8cf908cbffd8314be178fb63"], "sequence": 4294967293, "scriptSig": {"hex": "16001482223999f0b7cf63082495ff7934c32f433534d4", "asm": "001482223999f0b7cf63082495ff7934c32f433534d4"}, "vout": 1, "txid": "84a60e46175b4ed8376c17b18fd966a1bde73984b23fffd67efa51b02230a6e4"}, {"txinwitness": ["304502210088ee5c9ed63c5886aa6293df37812b6c46ce61e5961acd84ece9ba0125a118e30220582785e3f7126011090482ae241a4e341d17189ed0c52cc32fccfdb94c595d9401", "0225cbd566c6967524108f33a886e9567d5c3a89533171a69618c4d39a65418862"], "sequence": 4294967293, "scriptSig": {"hex": "1600148fc96359009b18b0ef9d7df516dfaf5d26be478c", "asm": "00148fc96359009b18b0ef9d7df516dfaf5d26be478c"}, "vout": 0, "txid": "3740312bebb2a54a7cd26664ed6b50b6e3c1ec79bbc0eab6e38814ada4fe55f7"}, {"txinwitness": ["304402207031c23ec089b9024eaec609d699747841410582b420286fadf8a42df62330fa0220777015a63cf240b957713336be803122e8db9a77fb73a0239e9b591069abb80101", "0291060f6ab373c6a6c76131718eb16bc4939629a8e7ce9252237cb35a8f7702ed"], "sequence": 4294967293, "scriptSig": {"hex": "160014737b8e92cf2c1380a4a64f5580721ae4dcf47542", "asm": "0014737b8e92cf2c1380a4a64f5580721ae4dcf47542"}, "vout": 1, "txid": "99778c99315247cc89c1d5a6d9afb7bf99733d4ebcd8a705524ad117610f29ff"}], "txid": "738ce6e95e2b125b17eca79d966f9be9c5c05581d7235e234574b55515573b6e", "blocktime": 1537870268, "version": 2, "confirmations": 11519, "time": 1537870268, "locktime": 542988, "vsize": 804, "size": 1451}