{"hash": "739578e1e1f192769a09d2c3ff550926dcbcf9e8113919ce145f4c5bc5ff233f", "blockhash": "0000000000000000000e13cef7c366c0283d82e591d1acd082e914b08063cdf1", "vout": [{"scriptPubKey": {"reqSigs": 1, "hex": "76a914b964ee2bf8673f2fc486fb8b48d87c569e777f1888ac", "addresses": ["1HuGvFffgWBW9TUdwmzEBbC7DPAZTFnRJF"], "asm": "OP_DUP OP_HASH160 b964ee2bf8673f2fc486fb8b48d87c569e777f18 OP_EQUALVERIFY OP_CHECKSIG", "type": "pubkeyhash"}, "value": 0.00013522, "n": 0}, {"scriptPubKey": {"reqSigs": 1, "hex": "a9149c6363a9fba6c45eee9e4cebdff1a35e2422f6a587", "addresses": ["3FwvQADohWkPc7x2a7atwrZ4XPJMY66ohz"], "asm": "OP_HASH160 9c6363a9fba6c45eee9e4cebdff1a35e2422f6a5 OP_EQUAL", "type": "scripthash"}, "value": 0.001408, "n": 1}], "hex": "0100000001e0979366b019d7dd69cf70ace660358049ddfdb906e6e612c7adb1a030358d9c010000006b4830450221009d69454756a5c597aace629507c4197fd26a5a341fa69e7e6a704a39c73f386e02206e249ccfa1d545a1e6eedacea14c96be349c540e5500482b9014ca078aeef56f0121027529fd8d8f8ee745ae78afed764cd71c6072920354752c7e4faa8e200fa5ad4bffffffff02d2340000000000001976a914b964ee2bf8673f2fc486fb8b48d87c569e777f1888ac002602000000000017a9149c6363a9fba6c45eee9e4cebdff1a35e2422f6a58700000000", "vin": [{"sequence": 4294967295, "scriptSig": {"hex": "4830450221009d69454756a5c597aace629507c4197fd26a5a341fa69e7e6a704a39c73f386e02206e249ccfa1d545a1e6eedacea14c96be349c540e5500482b9014ca078aeef56f0121027529fd8d8f8ee745ae78afed764cd71c6072920354752c7e4faa8e200fa5ad4b", "asm": "30450221009d69454756a5c597aace629507c4197fd26a5a341fa69e7e6a704a39c73f386e02206e249ccfa1d545a1e6eedacea14c96be349c540e5500482b9014ca078aeef56f[ALL] 027529fd8d8f8ee745ae78afed764cd71c6072920354752c7e4faa8e200fa5ad4b"}, "vout": 1, "txid": "9c8d3530a0b1adc712e6e606b9fddd49803560e6ac70cf69ddd719b0669397e0"}], "txid": "739578e1e1f192769a09d2c3ff550926dcbcf9e8113919ce145f4c5bc5ff233f", "blocktime": 1537871767, "version": 1, "confirmations": 11495, "time": 1537871767, "locktime": 0, "vsize": 224, "size": 224}