{"hash": "739e23e36b8e4e7f3e6aa8ca89e84c00f32d0ca03705602b58999709b97002c6", "blockhash": "0000000000000000001e0dab787dd257d1dbfcb92a98c2207d5e1078be1f4165", "vout": [{"scriptPubKey": {"reqSigs": 1, "hex": "76a914397186cde173a95f467c8319e4f691e2258f522888ac", "addresses": ["16EjWuALaPmkR2b5twkeSxT57GU9q2BX8s"], "asm": "OP_DUP OP_HASH160 397186cde173a95f467c8319e4f691e2258f5228 OP_EQUALVERIFY OP_CHECKSIG", "type": "pubkeyhash"}, "value": 0.04048644, "n": 0}], "hex": "01000000016981660532a8da1995123f2b67862771609fb4fb0149c51df935a250572c9af8000000006a47304402207ea40798cb256c12365612af423d61f35076651844531f808381813dc95a35e9022026758b4d4075704df62504c80c00f04d3f441a66f38ca3a510a10043be5aadb5012102b6d2901d6ca673e0bbe3a53e5eb072d2273d4000abfbdf9506027588942fc019ffffffff0104c73d00000000001976a914397186cde173a95f467c8319e4f691e2258f522888ac00000000", "vin": [{"sequence": 4294967295, "scriptSig": {"hex": "47304402207ea40798cb256c12365612af423d61f35076651844531f808381813dc95a35e9022026758b4d4075704df62504c80c00f04d3f441a66f38ca3a510a10043be5aadb5012102b6d2901d6ca673e0bbe3a53e5eb072d2273d4000abfbdf9506027588942fc019", "asm": "304402207ea40798cb256c12365612af423d61f35076651844531f808381813dc95a35e9022026758b4d4075704df62504c80c00f04d3f441a66f38ca3a510a10043be5aadb5[ALL] 02b6d2901d6ca673e0bbe3a53e5eb072d2273d4000abfbdf9506027588942fc019"}, "vout": 0, "txid": "f89a2c5750a235f91dc54901fbb49f60712786672b3f129519daa83205668169"}], "txid": "739e23e36b8e4e7f3e6aa8ca89e84c00f32d0ca03705602b58999709b97002c6", "blocktime": 1537872475, "version": 1, "confirmations": 11486, "time": 1537872475, "locktime": 0, "vsize": 191, "size": 191}