{"hash": "739f00682cd4627672b027464b4c43657c4334b5ad340e94f4658e4bf7bb40b0", "blockhash": "000000000000000000022b45ed06c6f4ccd3cf7fb5ba4856ebd2e58215665228", "vout": [{"scriptPubKey": {"reqSigs": 1, "hex": "76a9146bc85c165c4fd1c532d10d328ac906d7721bc9c888ac", "addresses": ["1ApuKmFhsDzBE4uMSNUzmGahZR4CN2K7nm"], "asm": "OP_DUP OP_HASH160 6bc85c165c4fd1c532d10d328ac906d7721bc9c8 OP_EQUALVERIFY OP_CHECKSIG", "type": "pubkeyhash"}, "value": 0.00032501, "n": 0}, {"scriptPubKey": {"reqSigs": 1, "hex": "76a914bc044db8e547e86b888c411980240c8a3742f91688ac", "addresses": ["1J99C5rT4WC6uyYrxmkjq7zdVmUQfJNVdd"], "asm": "OP_DUP OP_HASH160 bc044db8e547e86b888c411980240c8a3742f916 OP_EQUALVERIFY OP_CHECKSIG", "type": "pubkeyhash"}, "value": 0.01868833, "n": 1}], "hex": "0100000002ca16600d5a412cb5bcad154688832fc4b0e52b143ae817cdb670b5234ca52db6010000006a47304402206c0f51a9602d3f17fd6a82d38f35866ecf0eeda117afbafa4cac3807f2a0f1b902204b2131af379edbacf26c17750cda99e889b146be437fbf244a73f321fd20304901210391e5d11e5a1b2365d70c072d01c89b9ca4dbec0e4bdda3deb02a775004e11b48ffffffff290d2d10a06c0cfcbe10d48b8d0b3361492616bc2ad019d70e8a60867980c6ed010000006a47304402201fbd92fb1e8018b9785c124b1c29ea24bfb3f3de2d11c5e6ae4a6546cd1c8a3c022050c93eabd913c062a24b867aac9a4b217b1b38ae059b9b6f6b83eaaf26214c7b012102a56326e1aaa9cfc37950bd4a5ffd41dc74da604172390ee7da2e352d376849c3ffffffff02f57e0000000000001976a9146bc85c165c4fd1c532d10d328ac906d7721bc9c888ac21841c00000000001976a914bc044db8e547e86b888c411980240c8a3742f91688ac00000000", "vin": [{"sequence": 4294967295, "scriptSig": {"hex": "47304402206c0f51a9602d3f17fd6a82d38f35866ecf0eeda117afbafa4cac3807f2a0f1b902204b2131af379edbacf26c17750cda99e889b146be437fbf244a73f321fd20304901210391e5d11e5a1b2365d70c072d01c89b9ca4dbec0e4bdda3deb02a775004e11b48", "asm": "304402206c0f51a9602d3f17fd6a82d38f35866ecf0eeda117afbafa4cac3807f2a0f1b902204b2131af379edbacf26c17750cda99e889b146be437fbf244a73f321fd203049[ALL] 0391e5d11e5a1b2365d70c072d01c89b9ca4dbec0e4bdda3deb02a775004e11b48"}, "vout": 1, "txid": "b62da54c23b570b6cd17e83a142be5b0c42f83884615adbcb52c415a0d6016ca"}, {"sequence": 4294967295, "scriptSig": {"hex": "47304402201fbd92fb1e8018b9785c124b1c29ea24bfb3f3de2d11c5e6ae4a6546cd1c8a3c022050c93eabd913c062a24b867aac9a4b217b1b38ae059b9b6f6b83eaaf26214c7b012102a56326e1aaa9cfc37950bd4a5ffd41dc74da604172390ee7da2e352d376849c3", "asm": "304402201fbd92fb1e8018b9785c124b1c29ea24bfb3f3de2d11c5e6ae4a6546cd1c8a3c022050c93eabd913c062a24b867aac9a4b217b1b38ae059b9b6f6b83eaaf26214c7b[ALL] 02a56326e1aaa9cfc37950bd4a5ffd41dc74da604172390ee7da2e352d376849c3"}, "vout": 1, "txid": "edc6807986608a0ed719d02abc16264961330b8d8bd410befc0c6ca0102d0d29"}], "txid": "739f00682cd4627672b027464b4c43657c4334b5ad340e94f4658e4bf7bb40b0", "blocktime": 1537869901, "version": 1, "confirmations": 11523, "time": 1537869901, "locktime": 0, "vsize": 372, "size": 372}