{"hash": "73a12bb465a9f5dcc16b5df47f45195eba47c5cd19feafc1e7a1867b850307f3", "blockhash": "0000000000000000001f76057863aec43deb6fa401d9628bb513d65a8098bfab", "vout": [{"scriptPubKey": {"reqSigs": 1, "hex": "76a914e7553ca26f12884e836d1bcac74c915d1150785688ac", "addresses": ["1N6BCg3meSVERKJC3txPT8C54vpyfSdXeg"], "asm": "OP_DUP OP_HASH160 e7553ca26f12884e836d1bcac74c915d11507856 OP_EQUALVERIFY OP_CHECKSIG", "type": "pubkeyhash"}, "value": 0.00498677, "n": 0}, {"scriptPubKey": {"reqSigs": 1, "hex": "a91405d3b8ab1d7e0a140e2d1ed34f372e80482c56b287", "addresses": ["32DpwAHjgfgJH4ATSu23cWA42AVRxedDnp"], "asm": "OP_HASH160 05d3b8ab1d7e0a140e2d1ed34f372e80482c56b2 OP_EQUAL", "type": "scripthash"}, "value": 0.05, "n": 1}], "hex": "01000000019e571d2bd6272c59548d9c6c74b702888cdfe56b7f9570be72e55c8203297b18010000006b483045022100d20a782b42abb76d782bbb9a68096ef2859ed46d1aee3e6a9a79a90a7bce2a230220780886c99c4f18c159c0ec8fffe64cd5ae311d93993ff98958bdd8f8780fdb4d012103904d8ee29c098259baa9b25f90a61c6b68c705fef68e3637b285489ec8a58e94ffffffff02f59b0700000000001976a914e7553ca26f12884e836d1bcac74c915d1150785688ac404b4c000000000017a91405d3b8ab1d7e0a140e2d1ed34f372e80482c56b28700000000", "vin": [{"sequence": 4294967295, "scriptSig": {"hex": "483045022100d20a782b42abb76d782bbb9a68096ef2859ed46d1aee3e6a9a79a90a7bce2a230220780886c99c4f18c159c0ec8fffe64cd5ae311d93993ff98958bdd8f8780fdb4d012103904d8ee29c098259baa9b25f90a61c6b68c705fef68e3637b285489ec8a58e94", "asm": "3045022100d20a782b42abb76d782bbb9a68096ef2859ed46d1aee3e6a9a79a90a7bce2a230220780886c99c4f18c159c0ec8fffe64cd5ae311d93993ff98958bdd8f8780fdb4d[ALL] 03904d8ee29c098259baa9b25f90a61c6b68c705fef68e3637b285489ec8a58e94"}, "vout": 1, "txid": "187b2903825ce572be70957f6be5df8c8802b7746c9c8d54592c27d62b1d579e"}], "txid": "73a12bb465a9f5dcc16b5df47f45195eba47c5cd19feafc1e7a1867b850307f3", "blocktime": 1537873891, "version": 1, "confirmations": 11477, "time": 1537873891, "locktime": 0, "vsize": 224, "size": 224}