{"hash": "bd40644589a8d25067c74d3fb9bed5311c83d710c0982d64eff204ce388c873c", "blockhash": "0000000000000000001f76057863aec43deb6fa401d9628bb513d65a8098bfab", "vout": [{"scriptPubKey": {"reqSigs": 1, "hex": "76a914e7fcf942e0205fbc394e65b3a93467143ca1a58488ac", "addresses": ["1N9e9ETYKy36uK9c7hrVz23buER2A5fZxD"], "asm": "OP_DUP OP_HASH160 e7fcf942e0205fbc394e65b3a93467143ca1a584 OP_EQUALVERIFY OP_CHECKSIG", "type": "pubkeyhash"}, "value": 0.01508801, "n": 0}, {"scriptPubKey": {"reqSigs": 1, "hex": "0014975b03573c042d9def59620863f0c44c5da62270", "addresses": ["bc1qjadsx4euqskemm6evgyx8uxyf3w6vgnsam5yah"], "asm": "0 975b03573c042d9def59620863f0c44c5da62270", "type": "witness_v0_keyhash"}, "value": 0.00035804, "n": 1}], "hex": "010000000001015c0c6dffba3d23381790279e9611a4d9a180227fbaf99e331f34f9cbf422d0030000000000ffffffff02c1051700000000001976a914e7fcf942e0205fbc394e65b3a93467143ca1a58488acdc8b000000000000160014975b03573c042d9def59620863f0c44c5da62270024830450221009bab4a645dc0cc35355a4fecf245132ac1732c49cbf166f8d20c0cd4e3b290050220639a05db407fa5a641da8b16edfece8dfded871b401faadd350dcc2075b894dd0121029ad7fee9f0eee17c1bda7003620352e61d17dd3d455dede472f214b0be8ce74900000000", "vin": [{"txinwitness": ["30450221009bab4a645dc0cc35355a4fecf245132ac1732c49cbf166f8d20c0cd4e3b290050220639a05db407fa5a641da8b16edfece8dfded871b401faadd350dcc2075b894dd01", "029ad7fee9f0eee17c1bda7003620352e61d17dd3d455dede472f214b0be8ce749"], "sequence": 4294967295, "scriptSig": {"hex": "", "asm": ""}, "vout": 0, "txid": "03d022f4cbf9341f339ef9ba7f2280a1d9a411969e27901738233dbaff6d0c5c"}], "txid": "73a3bf3fbbd85498eb3d2c12993cfa36e04f1e46ac1dfc0ad2c326a536ed434a", "blocktime": 1537873891, "version": 1, "confirmations": 11478, "time": 1537873891, "locktime": 0, "vsize": 144, "size": 226}