{"hash": "73a688526e150703caad7643a778cdc9163c30f5b319aaa20b14d296a215cc17", "blockhash": "000000000000000000022b45ed06c6f4ccd3cf7fb5ba4856ebd2e58215665228", "vout": [{"scriptPubKey": {"reqSigs": 1, "hex": "76a914042b129622b7accf444a343cceb8a33420904c0888ac", "addresses": ["1P3JWFNNfy7h2ixRYnZhQU9YXKCjDEMf5"], "asm": "OP_DUP OP_HASH160 042b129622b7accf444a343cceb8a33420904c08 OP_EQUALVERIFY OP_CHECKSIG", "type": "pubkeyhash"}, "value": 0.0015262, "n": 0}, {"scriptPubKey": {"type": "nulldata", "hex": "6a4c500000775f0001f76f0f71b697c2d4765c059d3a016b46dc7dc7d0968d120d670c1906f999d5071489fc5a0da764ec84b34e3d7cba5baa077e06125119424c35b7bc9a9526289ac0f6612cd74e33776ee4", "asm": "OP_RETURN 0000775f0001f76f0f71b697c2d4765c059d3a016b46dc7dc7d0968d120d670c1906f999d5071489fc5a0da764ec84b34e3d7cba5baa077e06125119424c35b7bc9a9526289ac0f6612cd74e33776ee4"}, "value": 0.0, "n": 1}], "hex": "01000000018639c2dc065e32e496ec5ba2fd77d409a5c80e4d692cb37c9c369f61fda31d86010000006b483045022100b24361299c6d797a2cb03765e630b6a209d1de2475bed85549cfbdca3982734f02206033598e02de7bceeaafbd255a8caad61769017200f9d2d45e059e22c0fa4c7f012103cc2d94dc95aff05d0d608239ee7f86832ffc871e25d91adb4bc980104367de63ffffffff022c540200000000001976a914042b129622b7accf444a343cceb8a33420904c0888ac0000000000000000536a4c500000775f0001f76f0f71b697c2d4765c059d3a016b46dc7dc7d0968d120d670c1906f999d5071489fc5a0da764ec84b34e3d7cba5baa077e06125119424c35b7bc9a9526289ac0f6612cd74e33776ee400000000", "vin": [{"sequence": 4294967295, "scriptSig": {"hex": "483045022100b24361299c6d797a2cb03765e630b6a209d1de2475bed85549cfbdca3982734f02206033598e02de7bceeaafbd255a8caad61769017200f9d2d45e059e22c0fa4c7f012103cc2d94dc95aff05d0d608239ee7f86832ffc871e25d91adb4bc980104367de63", "asm": "3045022100b24361299c6d797a2cb03765e630b6a209d1de2475bed85549cfbdca3982734f02206033598e02de7bceeaafbd255a8caad61769017200f9d2d45e059e22c0fa4c7f[ALL] 03cc2d94dc95aff05d0d608239ee7f86832ffc871e25d91adb4bc980104367de63"}, "vout": 1, "txid": "861da3fd619f369c7cb32c694d0ec8a509d477fda25bec96e4325e06dcc23986"}], "txid": "73a688526e150703caad7643a778cdc9163c30f5b319aaa20b14d296a215cc17", "blocktime": 1537869901, "version": 1, "confirmations": 11523, "time": 1537869901, "locktime": 0, "vsize": 284, "size": 284}