{"hash": "4b86347e632f3305b847e18c3ddaff99ca0a3841b40b313b93a33602ffe31133", "blockhash": "00000000000000000018f53835495a110e01622372bf6ae95dc86f2b0ab887b0", "vout": [{"scriptPubKey": {"reqSigs": 1, "hex": "a91444e61f36f7fb6f488c997696ce416781f857130b87", "addresses": ["37yKYjtxsdrxyuhs9yqqmLVsrJMFRaHqq2"], "asm": "OP_HASH160 44e61f36f7fb6f488c997696ce416781f857130b OP_EQUAL", "type": "scripthash"}, "value": 0.00735, "n": 0}, {"scriptPubKey": {"reqSigs": 1, "hex": "001407979a1c4f6ca5ff44b510c292de10c5eb475aa1", "addresses": ["bc1qq7te58z0djjl7394zrpf9hssch45wk4phytkrf"], "asm": "0 07979a1c4f6ca5ff44b510c292de10c5eb475aa1", "type": "witness_v0_keyhash"}, "value": 0.00043969, "n": 1}], "hex": "0100000000010188c762858c34cc6a5252c44fc2128a044a5c351594a34662ff22ff21457d4c1f0000000017160014a8ffa7e46c73e0ad1cfddd7dc138f25a706685d5ffffffff0218370b000000000017a91444e61f36f7fb6f488c997696ce416781f857130b87c1ab00000000000016001407979a1c4f6ca5ff44b510c292de10c5eb475aa102483045022100a449a86d477bfc8ae7f113597ec1feeb70a604ae0ae3e9f7fcefca52c468c15202203ec7459fe2f59d21a243a2e33ba8f4371c01f835acc145a3316d4f13a20317d5012103e068916bca359bd11298462cb3c425f1b6470fdb08576b70dd405ccc714e30da00000000", "vin": [{"txinwitness": ["3045022100a449a86d477bfc8ae7f113597ec1feeb70a604ae0ae3e9f7fcefca52c468c15202203ec7459fe2f59d21a243a2e33ba8f4371c01f835acc145a3316d4f13a20317d501", "03e068916bca359bd11298462cb3c425f1b6470fdb08576b70dd405ccc714e30da"], "sequence": 4294967295, "scriptSig": {"hex": "160014a8ffa7e46c73e0ad1cfddd7dc138f25a706685d5", "asm": "0014a8ffa7e46c73e0ad1cfddd7dc138f25a706685d5"}, "vout": 0, "txid": "1f4c7d4521ff22ff6246a39415355c4a048a12c24fc452526acc348c8562c788"}], "txid": "73b06fe5ea61def9a9c6f334dbe40b3387d7ab24c31d990b0c833862a2973ffa", "blocktime": 1537870928, "version": 1, "confirmations": 11512, "time": 1537870928, "locktime": 0, "vsize": 165, "size": 247}