{"hash": "f38fc13d799040cf0e9b033db105343750fb8f52750becb49012ad9cea69eb16", "blockhash": "0000000000000000001cda96e906b7601b7a6fb1a3b62bca570a9e5d8f4b3de1", "vout": [{"scriptPubKey": {"reqSigs": 1, "hex": "a914f410ac0dbaf624ca6231fc58f15ee3bcd1ac424287", "addresses": ["3PwWmkHYvw7S3GR7NT4SUpDYqi2KJFDPa1"], "asm": "OP_HASH160 f410ac0dbaf624ca6231fc58f15ee3bcd1ac4242 OP_EQUAL", "type": "scripthash"}, "value": 0.32060873, "n": 0}, {"scriptPubKey": {"reqSigs": 1, "hex": "a9144b24b11634ed6c0712291ee9a71ccec40edb327c87", "addresses": ["38YLZKQc6K8ATWXMGWEEEJXqA6miZ8nSbh"], "asm": "OP_HASH160 4b24b11634ed6c0712291ee9a71ccec40edb327c OP_EQUAL", "type": "scripthash"}, "value": 0.039, "n": 1}], "hex": "02000000000101fd06f899b1c23a0864a81e50b57d8b2c7ec54d917b57e45e6146817bc8c55d5001000000171600143ff1c9ce91902ebabf84eac26974aa4ef1bc76fefdffffff02c935e9010000000017a914f410ac0dbaf624ca6231fc58f15ee3bcd1ac42428760823b000000000017a9144b24b11634ed6c0712291ee9a71ccec40edb327c87024830450221008d51466d15dac245325ac0e6cfdaa0053f15c9785ddcb5de5876f8197e645d6402202e48d10d3ee9c4426e66b99e3ab150f9af36177920b863795c4956dddf182498012103f094f65f404ff07e9a5b4dede28c3aa0973aa1a1e2a9df185507cf60741d16ef13490800", "vin": [{"txinwitness": ["30450221008d51466d15dac245325ac0e6cfdaa0053f15c9785ddcb5de5876f8197e645d6402202e48d10d3ee9c4426e66b99e3ab150f9af36177920b863795c4956dddf18249801", "03f094f65f404ff07e9a5b4dede28c3aa0973aa1a1e2a9df185507cf60741d16ef"], "sequence": 4294967293, "scriptSig": {"hex": "1600143ff1c9ce91902ebabf84eac26974aa4ef1bc76fe", "asm": "00143ff1c9ce91902ebabf84eac26974aa4ef1bc76fe"}, "vout": 1, "txid": "505dc5c87b8146615ee4577b914dc57e2c8b7db5501ea864083ac2b199f806fd"}], "txid": "73b2eb2f0e38625f7a46381e90c3bb456727acc87cb4e8e2e42668062a40d9ff", "blocktime": 1537873282, "version": 2, "confirmations": 11484, "time": 1537873282, "locktime": 542995, "vsize": 166, "size": 248}