{"hash": "949722c350f78371b00bd8e9f26ba7d1e83a7b0a17b420f90de7b91c1e656096", "blockhash": "0000000000000000001cda96e906b7601b7a6fb1a3b62bca570a9e5d8f4b3de1", "vout": [{"scriptPubKey": {"reqSigs": 1, "hex": "a9140805288308aba23cac11fce5a11725615c3e8e6887", "addresses": ["32RRWUnU92G1xr9nNZ9jyuQnrFLB6d7TGP"], "asm": "OP_HASH160 0805288308aba23cac11fce5a11725615c3e8e68 OP_EQUAL", "type": "scripthash"}, "value": 0.01336615, "n": 0}, {"scriptPubKey": {"reqSigs": 1, "hex": "a91484ae2d2d77ad3ab11af5c0a98bce33871665f68587", "addresses": ["3DnZmrmz4mrSWKY32oK7So84msL6hmLQXX"], "asm": "OP_HASH160 84ae2d2d77ad3ab11af5c0a98bce33871665f685 OP_EQUAL", "type": "scripthash"}, "value": 0.00521455, "n": 1}], "hex": "0100000000010180afd8954669758bb3591a02e2adaf319e1f01aaf76b35d91c18238797553aa700000000232200209ff633dc773767d529b8d18dc66924d2b190d78649ee148166dcfaa6f4170ca5ffffffff02276514000000000017a9140805288308aba23cac11fce5a11725615c3e8e6887eff407000000000017a91484ae2d2d77ad3ab11af5c0a98bce33871665f685870400483045022100a55e037a32ce7909b58b74d89470dcbc7e33c9eccdede6904164f08a5207bb6002202496cb50ffaa4dd4f7f477673a02df4b82077441497b5d0659bbeeaac53669fd0148304502210085921cbf056b2b007628ca4c70a5ac74c355162d2b0e4689203afe6f7c05af87022015812cef8b205fe442789742f0483b7eb9549b01337f921bdfda3fe1ce247a9a0169522103d719e0805b85f54685d6562fbfad655644b41b8f17112516b2594b31980f1da121035112a1fa4aea221fa6f3ae0d2b91749cf0b7903d981a1b7c83552b0f46b690e22103c09fa1942d21f76fe4ede41b7582f9c322fb4617ca2848a3f060074aac1723b253ae14490800", "vin": [{"txinwitness": ["", "3045022100a55e037a32ce7909b58b74d89470dcbc7e33c9eccdede6904164f08a5207bb6002202496cb50ffaa4dd4f7f477673a02df4b82077441497b5d0659bbeeaac53669fd01", "304502210085921cbf056b2b007628ca4c70a5ac74c355162d2b0e4689203afe6f7c05af87022015812cef8b205fe442789742f0483b7eb9549b01337f921bdfda3fe1ce247a9a01", "522103d719e0805b85f54685d6562fbfad655644b41b8f17112516b2594b31980f1da121035112a1fa4aea221fa6f3ae0d2b91749cf0b7903d981a1b7c83552b0f46b690e22103c09fa1942d21f76fe4ede41b7582f9c322fb4617ca2848a3f060074aac1723b253ae"], "sequence": 4294967295, "scriptSig": {"hex": "2200209ff633dc773767d529b8d18dc66924d2b190d78649ee148166dcfaa6f4170ca5", "asm": "00209ff633dc773767d529b8d18dc66924d2b190d78649ee148166dcfaa6f4170ca5"}, "vout": 0, "txid": "a73a55978723181cd9356bf7aa011f9e31afade2021a59b38b75694695d8af80"}], "txid": "73b325335153de3d957bc7d5add64cdfff761cfdf731da6a61412064488f20da", "blocktime": 1537873282, "version": 1, "confirmations": 11481, "time": 1537873282, "locktime": 542996, "vsize": 214, "size": 406}