{"hash": "176d05cd2e9056d09089f5123866de712847e6f397c429f1728a52d7251c2a55", "blockhash": "0000000000000000001cda96e906b7601b7a6fb1a3b62bca570a9e5d8f4b3de1", "vout": [{"scriptPubKey": {"reqSigs": 1, "hex": "a9147919fdae9bf34b4573fe6dab0d347977648098f487", "addresses": ["3CjLpdwnbnzwRMTovJFoBJEipDmK1v82wF"], "asm": "OP_HASH160 7919fdae9bf34b4573fe6dab0d347977648098f4 OP_EQUAL", "type": "scripthash"}, "value": 0.00406063, "n": 0}, {"scriptPubKey": {"reqSigs": 1, "hex": "76a914f3719d639119e61419ce5a79d6c8fb0f872f7af888ac", "addresses": ["1PCDJi9qoX3GPTbvkcnyqMQjfJeUkrd1Yj"], "asm": "OP_DUP OP_HASH160 f3719d639119e61419ce5a79d6c8fb0f872f7af8 OP_EQUALVERIFY OP_CHECKSIG", "type": "pubkeyhash"}, "value": 0.00453953, "n": 1}, {"scriptPubKey": {"reqSigs": 1, "hex": "a91469135cc01063cf5431ec189d144bacdead0480cc87", "addresses": ["3BGc516mNZjsUhkKthkbnr75AEmM6487Ej"], "asm": "OP_HASH160 69135cc01063cf5431ec189d144bacdead0480cc OP_EQUAL", "type": "scripthash"}, "value": 0.01081136, "n": 2}, {"scriptPubKey": {"reqSigs": 1, "hex": "a9147cf1c16474619965314c110145a24620de9fa9ba87", "addresses": ["3D5fKnxHDRmkdDuyhzYqBoBQQcE7dtsdwY"], "asm": "OP_HASH160 7cf1c16474619965314c110145a24620de9fa9ba OP_EQUAL", "type": "scripthash"}, "value": 0.0006, "n": 3}, {"scriptPubKey": {"reqSigs": 1, "hex": "a9145fc49c2ea65ed75fd2e3704d47d9b04a1807312e87", "addresses": ["3ARPeUZQ11z4nAVRiBJzSmQq9mUJ3aEwh1"], "asm": "OP_HASH160 5fc49c2ea65ed75fd2e3704d47d9b04a1807312e OP_EQUAL", "type": "scripthash"}, "value": 0.00861589, "n": 4}, {"scriptPubKey": {"reqSigs": 1, "hex": "a914abb2082ddf1e6221d6f593bfd5ceb002e7bca15e87", "addresses": ["3HLrkDv6T5b77CzK1A5joQZRHHgXTR1YV5"], "asm": "OP_HASH160 abb2082ddf1e6221d6f593bfd5ceb002e7bca15e OP_EQUAL", "type": "scripthash"}, "value": 0.02930111, "n": 5}, {"scriptPubKey": {"reqSigs": 1, "hex": "76a9148182133de40de20a85ad0516d923c59b38f04b9b88ac", "addresses": ["1ComzXZVmMuhJJYhVFXSQ7WtcuMWFFZHYd"], "asm": "OP_DUP OP_HASH160 8182133de40de20a85ad0516d923c59b38f04b9b OP_EQUALVERIFY OP_CHECKSIG", "type": "pubkeyhash"}, "value": 0.00390921, "n": 6}, {"scriptPubKey": {"reqSigs": 1, "hex": "76a9147925b141217b667377a149c7cc0138f002ddf4eb88ac", "addresses": ["1C3Zv8GgJc7tD7sfHR84fkP77hvNeUaYi7"], "asm": "OP_DUP OP_HASH160 7925b141217b667377a149c7cc0138f002ddf4eb OP_EQUALVERIFY OP_CHECKSIG", "type": "pubkeyhash"}, "value": 0.031, "n": 7}, {"scriptPubKey": {"reqSigs": 1, "hex": "76a91455608c5e9f8d19b2e248ad671b2beb8cbee50c5c88ac", "addresses": ["18nS6bpgsaJcdJRmkT15fLQkis9JpAU5dw"], "asm": "OP_DUP OP_HASH160 55608c5e9f8d19b2e248ad671b2beb8cbee50c5c OP_EQUALVERIFY OP_CHECKSIG", "type": "pubkeyhash"}, "value": 0.00626143, "n": 8}, {"scriptPubKey": {"reqSigs": 1, "hex": "76a914214a0f5f4f204a5c1a4949a2122cffc406a523ed88ac", "addresses": ["143227YJg1wodE7kKda8Dc83SbFkA13DRT"], "asm": "OP_DUP OP_HASH160 214a0f5f4f204a5c1a4949a2122cffc406a523ed OP_EQUALVERIFY OP_CHECKSIG", "type": "pubkeyhash"}, "value": 0.0034, "n": 9}, {"scriptPubKey": {"reqSigs": 1, "hex": "76a9146acdb302e34ee7f83105ac10a677508db52f305f88ac", "addresses": ["1Ajj3a2LszC5cRBD2oNRqscFAFKZkNYoig"], "asm": "OP_DUP OP_HASH160 6acdb302e34ee7f83105ac10a677508db52f305f OP_EQUALVERIFY OP_CHECKSIG", "type": "pubkeyhash"}, "value": 0.00489749, "n": 10}, {"scriptPubKey": {"reqSigs": 1, "hex": "a9145ea10c2ccda4635d6de623d3256b887593997b7787", "addresses": ["3AKNNMd3MUBhTndto1oHWPBBmxSHWMtwHt"], "asm": "OP_HASH160 5ea10c2ccda4635d6de623d3256b887593997b77 OP_EQUAL", "type": "scripthash"}, "value": 0.2, "n": 11}, {"scriptPubKey": {"reqSigs": 1, "hex": "76a9148592ea48d31fdb3c34451871241df55a4f87c45388ac", "addresses": ["1DBGsMoa4ErSfbYM5jo7xdhnyQt7AH46i2"], "asm": "OP_DUP OP_HASH160 8592ea48d31fdb3c34451871241df55a4f87c453 OP_EQUALVERIFY OP_CHECKSIG", "type": "pubkeyhash"}, "value": 0.00360032, "n": 12}, {"scriptPubKey": {"reqSigs": 1, "hex": "a91435fa97ab8fb54d858f6880c27b6a5287e05bb02d87", "addresses": ["36cRwBQaXZC5P4nYg5g9yZTaGs37NDSGjt"], "asm": "OP_HASH160 35fa97ab8fb54d858f6880c27b6a5287e05bb02d OP_EQUAL", "type": "scripthash"}, "value": 0.22933934, "n": 13}, {"scriptPubKey": {"reqSigs": 1, "hex": "a914db8458a2b00c458b73cef7d7be2af0c8081b732e87", "addresses": ["3MhiT8cUrKMkCKJ7K4KwXgXDYgRKpZsHtp"], "asm": "OP_HASH160 db8458a2b00c458b73cef7d7be2af0c8081b732e OP_EQUAL", "type": "scripthash"}, "value": 0.005, "n": 14}, {"scriptPubKey": {"reqSigs": 1, "hex": "a914e42a3beaeb29f1a0d7219a525f181bcc5247d19487", "addresses": ["3NVSakibD29yfewWkUZECePDBtTMvceyg5"], "asm": "OP_HASH160 e42a3beaeb29f1a0d7219a525f181bcc5247d194 OP_EQUAL", "type": "scripthash"}, "value": 0.00605, "n": 15}, {"scriptPubKey": {"reqSigs": 1, "hex": "a914ffb512b5c42eb4695678cd6832dc0a455bc38aa687", "addresses": ["3R159e2A3o6qVSe4c8F2hR3vCiQXYsUfiH"], "asm": "OP_HASH160 ffb512b5c42eb4695678cd6832dc0a455bc38aa6 OP_EQUAL", "type": "scripthash"}, "value": 0.00334348, "n": 16}, {"scriptPubKey": {"reqSigs": 1, "hex": "a914dc6c8486004d191942962f1bfeb9c962774ded3387", "addresses": ["3MnWagm33YHp1VotKdpk5HUrYF4HBQobaL"], "asm": "OP_HASH160 dc6c8486004d191942962f1bfeb9c962774ded33 OP_EQUAL", "type": "scripthash"}, "value": 0.00106705, "n": 17}], "hex": "0100000000010da80f84ce73d0fbf82bf93a5c4cf43ee93bd49ce51777771ce4f9fc9c8cb932c500000000fdfd0000483045022100afca188266aa6d2fd4b830c40e426646406de7ea0ee4320a8f114032e03f982002206e408a7bbe2123c376ba93f5bcb0acbfe6bb45be02bce93e307fefa9dc9cf4a40147304402202808f56d1033194591a0411065429a86a8720e4e971efcab8a8932fb9bfcb3130220321ee197967a689de816007d47c80951af40628e8a1f0baaf716ea480c38ac17014c69522102b220a1cba207bbc697ac64cb84685b9705c151f109537649b22317ad0ed703b821038af5d5aacf69dff3fe01a815d3a9ce0c1b42b1ae8416d133fc8ebddf818a462e2102c4cc8e6d6c1f1894f31efe7c99d623c128e8e2b20e5ac136bb62d3ca4c9b50c853aefffffffff4740c2335982c2c163ed6f0f072832924c53f7c4c4f5f83d2a2f31d0949928301000000fdfd0000483045022100da1c083e205f8a80f453e7da3f4ceb09236d9b1d2a1f7b7eb2f2afecf31faa4c022078f2a895c224a3a51c8415f26fed1c91d6976a288f60887b69363b168c0907a901473044022055a446f8359e88b8be1191d85844aa00ba91ba5d9911f16fe1e67921919a1569022069bed0e7036de3cc1b56e44d623ed586c96e9aed7720752d4c0059ed4ae90e21014c6952210328bcaa685bb696cdf44a7ac04f7ca5363e6495134873b6c0e6814f11807b331021032690db40070ac6ec718c7aac7e058d5cfdac2ab73a0cb50efdb4969d12f5edbf2103fa9035afd223e21af2f2bee9443e780a482fff4e276704c74bad029723c37cc953aefffffffff0b595ea9c118d701afd437f3ab42e2968480a3e40d0d787a3b1c2ed1269309c27000000fc00473044022065906c2f1d926990fbe68684b2b4c6bfb4b80d360013c86fbc30ef26c5f1fe5e02202e22fc47d1ccf599d59968967c6197f65702ce54e3a79050b6b81bc5ec4ede2e0147304402203c5b25077d833e5fc8590b1ab69b5f4c57e20b02ed9ed97fa945ee2216698b630220038da36ca445cb2a93b45ec4e069d5b277c56b9c81dd3042691c70f52339736c014c695221037c440c1e1f42afbbab8b4a20861426c44afc29f08472b4e4fb4ffee86987f4a02102c231894cea0d38e5541331e3c1c57629b84b11fccafb577252974136b7f759062102b0e0e69ccb406353a4aa1beafbc13899797825dc59af1cc7a1247c2bd21fccbc53aeffffffff71e0194bc6751b525b1e66c656b16477f046d82a7bde0b11b9798d4348469ca800000000232200200de6aaf04412e356500a5f0030d1160bb7d6c7ad22facf30c7679d9b98958b42ffffffff5e47e7c01480c71a4eb6170ed7405c47a90fe03deff362348ee88b780dd465850100000023220020684cd7e020803d175ba9ec37a7ecb3631f40b0cbe1481676502d1050fe2fb0a6ffffffffb0bf9450ab0a29f740eaa81d676a069e0a22721668aa15620d088f1698537bf100000000232200200f412ca57a05cf15b8d0dad31784538fb046dec341971aa1cf42694806e44e36fffffffff0b595ea9c118d701afd437f3ab42e2968480a3e40d0d787a3b1c2ed1269309c5e00000023220020fa4d66c79e9f36cdc734fcb65ec1d974037c3012b0f5cb14459e43eb3ec14657ffffffff65d6e6daca84422d65e9e3544a597c469ac8e5db80d6b1e09d5289b318c248411800000023220020a5e603b0351dabb406465e0ae6e0518ae5aede31ebd7320eba7f1dec921884baffffffffc7c2b0e43b918e0fbe4a7286981744f543f14f78b64d2fef1f0283bac976110402000000fc0047304402200b7e840d599b0b6e709ce6aefadb0dcfa0de5650f628b53d9fecfb211a1c16820220693cb590300170c3308c736f2de9705db7c31c7200f6dddd656dfc2bac51b5720147304402203899a3fc45949babf2e756efb133f3ffaf0d76478564fb1cfe2ce5a66d94c84202203c8d93f52a9b323734d5023576cb59f22a4651628c33e8637ee501fcbb53ccd0014c69522103a2d4300391d4a749d5f80e221a30d62b65cf6c5330285cfca32252a6dffad3d2210251aff4e658387f0a6ba612d14add23feddfabffdbf885fecf39698ca83ad08e821021954256974943f3aa520112d5e10a5ceccf8fdc5fc9b1c82bee899159b5cb40f53aeffffffff570d115d756508fe5417125a25872c237c26968914ed8ba9bee7cb2661a116410100000023220020bd73cdf120661090b4b4437a65f0e721c6d5d223f1a3320aa19d38078daccebbffffffffe2efeec83a418d19053f9deb6f34a223b3f3a8eb239a7ef7762f17a36589bf6415000000fc0047304402202553fafd4a834abf2f84a8ed1b440d85ba0ab295a23ff7656fe2b5569826fbdb02202ea2b5e3f6208cac242cd8455f939ecc145a020e1ae418f666c0db8013adb1c00147304402205a91f7d1f510940fd74d0c46350fcef898980333e3edd81d53dc1fe41cea92ab02206d93f72fd3b625343b0fcad80a0958b842062b08d976f73483dc84a59e3a2f87014c69522102a0be84e77edb5bf88169c974db8b927f1a9bc45befaefda65daf9d895e9971172103268e936d8881d48a2f530e8cb8e807cd51361497d3222db86d66d3cebb4989752102ba1d6797c905db5e494e31b5542745ce7aa88c96658f6d234eb67b0a5664ec3153aeffffffff2ef61c0c6c4367b3cd3d741428941fa65e1503dfca9507cb3094d65c4e9942af1c000000fdfe0000483045022100d42d4a17028ecf5142d790a87d9179ad2fee827dbd5894f8163f754ee7a68c3002203c94f46b266c17db51eb55bed75cb30ba0bd9a7e2aa1c7c6fbfb985f8857f71e014830450221008bee25e6d155c8c09835af95b5bbd016f03dd3096be5e89b6d2a7f8facd25123022059bb3cda328db9064e951e875aefec16f9536982593f1efc4dc54393ac3ffb31014c695221025f852457354786b46f296b7e502ba817ce3648d43768430f6a138fca29ba91ac2102ed6979871b6230f890acbc5b79df463e756b8eca63116d39d74f9664ea5f70662103e266da0069948168bef2bf8e53a06e44b2369bb4830c68ce51dde51069cfd8ef53aeffffffffabeb2a34da45d74888f903fb6fca38ca4e3326d9ab04106193fefbddbb62a00d00000000232200208ce52785279ac39e4f3bb98e9e7893781be2c4f5db504fcc852f93a63a0367b9ffffffff122f3206000000000017a9147919fdae9bf34b4573fe6dab0d347977648098f48741ed0600000000001976a914f3719d639119e61419ce5a79d6c8fb0f872f7af888ac307f10000000000017a91469135cc01063cf5431ec189d144bacdead0480cc8760ea00000000000017a9147cf1c16474619965314c110145a24620de9fa9ba8795250d000000000017a9145fc49c2ea65ed75fd2e3704d47d9b04a1807312e87bfb52c000000000017a914abb2082ddf1e6221d6f593bfd5ceb002e7bca15e8709f70500000000001976a9148182133de40de20a85ad0516d923c59b38f04b9b88ac604d2f00000000001976a9147925b141217b667377a149c7cc0138f002ddf4eb88acdf8d0900000000001976a91455608c5e9f8d19b2e248ad671b2beb8cbee50c5c88ac20300500000000001976a914214a0f5f4f204a5c1a4949a2122cffc406a523ed88ac15790700000000001976a9146acdb302e34ee7f83105ac10a677508db52f305f88ac002d31010000000017a9145ea10c2ccda4635d6de623d3256b887593997b7787607e0500000000001976a9148592ea48d31fdb3c34451871241df55a4f87c45388acaef15d010000000017a91435fa97ab8fb54d858f6880c27b6a5287e05bb02d8720a107000000000017a914db8458a2b00c458b73cef7d7be2af0c8081b732e87483b09000000000017a914e42a3beaeb29f1a0d7219a525f181bcc5247d194870c1a05000000000017a914ffb512b5c42eb4695678cd6832dc0a455bc38aa687d1a001000000000017a914dc6c8486004d191942962f1bfeb9c962774ded338700000004004730440220524554c682a191df5d07a21c5460651d31368f14a551c5c5c3382f00a2b401f0022060dc3a88eb142f1c742fdf0aa8b8bd2099049de08bd7ae1bcdde797fb7d1438f01473044022073a4b910cf767ce2e14d4b6f3dbf177103929219ce604781ccb4401c6f2cdc9c022062d907bf742549658dfb27e0e4aebca0c5a0f91e2bab25b34db71ab0c0106e9f01695221031d5df86a1c0c10aa0708aeebcc21f1ffa47e3f513c1ab59cf83299b5be9acb842103e9cd73063643155bdc4ace02d6f51c1330287fb91b56dd1e391aaa6bd8590b2e210387f9a07317b95b6964afb8fcd63d3ae3aa9eb6ebc9c0b05e7375405c9fd9827953ae0400483045022100fb0ca7087c026b343e12c9814ac0c48036f960bd2d77526234ddf71199cbb5d202201d48de375ae218fd988c34bc50218b292d2802e07029d8ab23232bcb277bbd620147304402204e2907bf6a55fbf3a8ec8369f165d8db392ef9e296567d58f6ef562a6940fb13022070c920bf0b7479704e5f0fabec18c7e0dd259a71afc1dad481d372e4f99237a501695221020f1ca9db56f6ebb84337a6d7e7034b3ffd696aa4af90bea12cdcbe0dc6b640d32102f680c77069cba3d6e12f5e38351502c4df9f2af08955fee14bb1abd6dc5241e42103cb57d7851e772beffd199360abc88c70e1620fd9e3da7a7fc452e5cbfc62edc753ae0400483045022100e03298e69bf148f39f9c0b7e27db0390c806991a13b4ff693024dcd9cdfaaefb022040226d15a13b9d0402b6fb9e4d7539599dccc7808d9cba0b6e5c7f789ddc0e15014730440220603b4963f4886cb9b37b42466677c61957a05c870840adfec0146447d7dbf823022038386c83d88a03e66f653ff2912343c161ed8180726d0b9048dccfa19338dba40169522102b98be656652ed715c458cb767e3a75a87e1e85bc3946c9eb48f0e83f1a275bc62103202ff4479b67fcd47b56e360b336b04cbfd5825b08053a980f726b572e94eab321025634dcd93befda4f0c8d85c56c1d2fe10fb30c71909225c67aa4557df64c2f4b53ae0400483045022100b304ab5132dec4abab4c4754d69ac9d8fd1b57b04e9649a6ecd99c20183437dc022037338efcf1cb223edb9adad08c428ecc17b2bb73c4311ed53c64b5b80cfdb33b014730440220081f3836cf18e442d5ea989f3d0595be5683bbe89d1b76b7f149b3c8fc8536970220777fda4acf4fb5304e566eee169d0f1cfe09389a4d2a0cf25cc9fc7473cb2fa80169522102d0dde817f8006fde296a0836bbbb42c0d754724be5d905cd9abddd52a5e3cdd0210201a12c35c31a1e1397a3b46e6304e33ebb94e50a1ca26befe3615a79df85944c2102bbd4e6406a7435c60a2c27392ebc7ab59ae9bbb6c220aab85002c4be6ab4a8bb53ae04004730440220259aeb4df753635277fc4836b3a49a024fdd389508e01f96a712d0b2a0b8332902203c5730e7de706c200c729feec6c03ccab024c720e41023ab3067580d62194f3101483045022100d939b0ca267427a32e0c5aacf7d93f87bbab0d440c120ed308f76595c9a4675702205c35076f34ae904fce36d9c269a9b22d671e8f4e75defe4a4d5ea8d3264f407701695221028cbe35fe32c8c6a5796adcac7ec40a24277c8edc82f1793ca96cb779ffd542a2210239e37c7dde3061fc18a46ee271af5164a9a91a2a330189c4c50432d4b904fd2c2102294c98d45e3e8465e3dbcdc4daa947a0e6774b3ee54b2afd9b8c17f91c4769e553ae000400483045022100960e0e6d7f788ac355757f5bb1ace783ff5ad0bd2efe0bd33a4192c61a1d71ab022003bd947a378fa7153b5e5eeb558e22cbb28d47d1052f01123a035e378fed5fb901483045022100d30f838369cae552be37eaa42e0fe1af27d250a5919ec3750f7c4afa38196c2502202b4a43771712d129817937bc4b1035236f6289b692a0e1fa51704e40d4510e0001695221032be984f69efb866e74c3712e1674cb6eba347fe44ab7fe8a775b04c6d55ea31f21034cf9f92277e5c5c8f9f8f45edf6c4e3e3f3fd786a1804e3123957482550e0dde210234a039a36f0bb7be78be09e0763316f8558b05e3768eed5e9a2dbe6029e927cb53ae00000400473044022064b9cc7654a15da7dec8dbe270e80aa38de549c6e202dd3ec92a7cff5a321f470220226adad06940c028e653c653f82a6b149d379f989bedc279b4102c178e0523b6014730440220711d7d4f3d0f0d1f449eeca8b765e82e1c69419ce384ec12ab75cc54d12549b102202ebbb9200dc4e1738a4187c779e36c109f5412feb121d2830215ab9e2eef9c95016952210317ac9ef4edbd6892939528fb4f0892144dfee40f421218b76b834fbebd6a509f210289c90ab7e222d3910bb3976052d4d97c07bc24a19fd85b00f1fa26ec17fe0a2d210319cc4c953ab1c0cec4828e508f8950c39e3f7182bd899c389229acedd659a57553ae00000000", "vin": [{"sequence": 4294967295, "scriptSig": {"hex": "00483045022100afca188266aa6d2fd4b830c40e426646406de7ea0ee4320a8f114032e03f982002206e408a7bbe2123c376ba93f5bcb0acbfe6bb45be02bce93e307fefa9dc9cf4a40147304402202808f56d1033194591a0411065429a86a8720e4e971efcab8a8932fb9bfcb3130220321ee197967a689de816007d47c80951af40628e8a1f0baaf716ea480c38ac17014c69522102b220a1cba207bbc697ac64cb84685b9705c151f109537649b22317ad0ed703b821038af5d5aacf69dff3fe01a815d3a9ce0c1b42b1ae8416d133fc8ebddf818a462e2102c4cc8e6d6c1f1894f31efe7c99d623c128e8e2b20e5ac136bb62d3ca4c9b50c853ae", "asm": "0 3045022100afca188266aa6d2fd4b830c40e426646406de7ea0ee4320a8f114032e03f982002206e408a7bbe2123c376ba93f5bcb0acbfe6bb45be02bce93e307fefa9dc9cf4a4[ALL] 304402202808f56d1033194591a0411065429a86a8720e4e971efcab8a8932fb9bfcb3130220321ee197967a689de816007d47c80951af40628e8a1f0baaf716ea480c38ac17[ALL] 522102b220a1cba207bbc697ac64cb84685b9705c151f109537649b22317ad0ed703b821038af5d5aacf69dff3fe01a815d3a9ce0c1b42b1ae8416d133fc8ebddf818a462e2102c4cc8e6d6c1f1894f31efe7c99d623c128e8e2b20e5ac136bb62d3ca4c9b50c853ae"}, "vout": 0, "txid": "c532b98c9cfcf9e41c777717e59cd43be93ef44c5c3af92bf8fbd073ce840fa8"}, {"sequence": 4294967295, "scriptSig": {"hex": "00483045022100da1c083e205f8a80f453e7da3f4ceb09236d9b1d2a1f7b7eb2f2afecf31faa4c022078f2a895c224a3a51c8415f26fed1c91d6976a288f60887b69363b168c0907a901473044022055a446f8359e88b8be1191d85844aa00ba91ba5d9911f16fe1e67921919a1569022069bed0e7036de3cc1b56e44d623ed586c96e9aed7720752d4c0059ed4ae90e21014c6952210328bcaa685bb696cdf44a7ac04f7ca5363e6495134873b6c0e6814f11807b331021032690db40070ac6ec718c7aac7e058d5cfdac2ab73a0cb50efdb4969d12f5edbf2103fa9035afd223e21af2f2bee9443e780a482fff4e276704c74bad029723c37cc953ae", "asm": "0 3045022100da1c083e205f8a80f453e7da3f4ceb09236d9b1d2a1f7b7eb2f2afecf31faa4c022078f2a895c224a3a51c8415f26fed1c91d6976a288f60887b69363b168c0907a9[ALL] 3044022055a446f8359e88b8be1191d85844aa00ba91ba5d9911f16fe1e67921919a1569022069bed0e7036de3cc1b56e44d623ed586c96e9aed7720752d4c0059ed4ae90e21[ALL] 52210328bcaa685bb696cdf44a7ac04f7ca5363e6495134873b6c0e6814f11807b331021032690db40070ac6ec718c7aac7e058d5cfdac2ab73a0cb50efdb4969d12f5edbf2103fa9035afd223e21af2f2bee9443e780a482fff4e276704c74bad029723c37cc953ae"}, "vout": 1, "txid": "839249091df3a2d2835f4f4c7c3fc524298372f0f0d63e162c2c9835230c74f4"}, {"sequence": 4294967295, "scriptSig": {"hex": "00473044022065906c2f1d926990fbe68684b2b4c6bfb4b80d360013c86fbc30ef26c5f1fe5e02202e22fc47d1ccf599d59968967c6197f65702ce54e3a79050b6b81bc5ec4ede2e0147304402203c5b25077d833e5fc8590b1ab69b5f4c57e20b02ed9ed97fa945ee2216698b630220038da36ca445cb2a93b45ec4e069d5b277c56b9c81dd3042691c70f52339736c014c695221037c440c1e1f42afbbab8b4a20861426c44afc29f08472b4e4fb4ffee86987f4a02102c231894cea0d38e5541331e3c1c57629b84b11fccafb577252974136b7f759062102b0e0e69ccb406353a4aa1beafbc13899797825dc59af1cc7a1247c2bd21fccbc53ae", "asm": "0 3044022065906c2f1d926990fbe68684b2b4c6bfb4b80d360013c86fbc30ef26c5f1fe5e02202e22fc47d1ccf599d59968967c6197f65702ce54e3a79050b6b81bc5ec4ede2e[ALL] 304402203c5b25077d833e5fc8590b1ab69b5f4c57e20b02ed9ed97fa945ee2216698b630220038da36ca445cb2a93b45ec4e069d5b277c56b9c81dd3042691c70f52339736c[ALL] 5221037c440c1e1f42afbbab8b4a20861426c44afc29f08472b4e4fb4ffee86987f4a02102c231894cea0d38e5541331e3c1c57629b84b11fccafb577252974136b7f759062102b0e0e69ccb406353a4aa1beafbc13899797825dc59af1cc7a1247c2bd21fccbc53ae"}, "vout": 39, "txid": "9c306912edc2b1a387d7d0403e0a4868292eb43a7f43fd1a708d119cea95b5f0"}, {"txinwitness": ["", "30440220524554c682a191df5d07a21c5460651d31368f14a551c5c5c3382f00a2b401f0022060dc3a88eb142f1c742fdf0aa8b8bd2099049de08bd7ae1bcdde797fb7d1438f01", "3044022073a4b910cf767ce2e14d4b6f3dbf177103929219ce604781ccb4401c6f2cdc9c022062d907bf742549658dfb27e0e4aebca0c5a0f91e2bab25b34db71ab0c0106e9f01", "5221031d5df86a1c0c10aa0708aeebcc21f1ffa47e3f513c1ab59cf83299b5be9acb842103e9cd73063643155bdc4ace02d6f51c1330287fb91b56dd1e391aaa6bd8590b2e210387f9a07317b95b6964afb8fcd63d3ae3aa9eb6ebc9c0b05e7375405c9fd9827953ae"], "sequence": 4294967295, "scriptSig": {"hex": "2200200de6aaf04412e356500a5f0030d1160bb7d6c7ad22facf30c7679d9b98958b42", "asm": "00200de6aaf04412e356500a5f0030d1160bb7d6c7ad22facf30c7679d9b98958b42"}, "vout": 0, "txid": "a89c4648438d79b9110bde7b2ad846f07764b156c6661e5b521b75c64b19e071"}, {"txinwitness": ["", "3045022100fb0ca7087c026b343e12c9814ac0c48036f960bd2d77526234ddf71199cbb5d202201d48de375ae218fd988c34bc50218b292d2802e07029d8ab23232bcb277bbd6201", "304402204e2907bf6a55fbf3a8ec8369f165d8db392ef9e296567d58f6ef562a6940fb13022070c920bf0b7479704e5f0fabec18c7e0dd259a71afc1dad481d372e4f99237a501", "5221020f1ca9db56f6ebb84337a6d7e7034b3ffd696aa4af90bea12cdcbe0dc6b640d32102f680c77069cba3d6e12f5e38351502c4df9f2af08955fee14bb1abd6dc5241e42103cb57d7851e772beffd199360abc88c70e1620fd9e3da7a7fc452e5cbfc62edc753ae"], "sequence": 4294967295, "scriptSig": {"hex": "220020684cd7e020803d175ba9ec37a7ecb3631f40b0cbe1481676502d1050fe2fb0a6", "asm": "0020684cd7e020803d175ba9ec37a7ecb3631f40b0cbe1481676502d1050fe2fb0a6"}, "vout": 1, "txid": "8565d40d788be88e3462f3ef3de00fa9475c40d70e17b64e1ac78014c0e7475e"}, {"txinwitness": ["", "3045022100e03298e69bf148f39f9c0b7e27db0390c806991a13b4ff693024dcd9cdfaaefb022040226d15a13b9d0402b6fb9e4d7539599dccc7808d9cba0b6e5c7f789ddc0e1501", "30440220603b4963f4886cb9b37b42466677c61957a05c870840adfec0146447d7dbf823022038386c83d88a03e66f653ff2912343c161ed8180726d0b9048dccfa19338dba401", "522102b98be656652ed715c458cb767e3a75a87e1e85bc3946c9eb48f0e83f1a275bc62103202ff4479b67fcd47b56e360b336b04cbfd5825b08053a980f726b572e94eab321025634dcd93befda4f0c8d85c56c1d2fe10fb30c71909225c67aa4557df64c2f4b53ae"], "sequence": 4294967295, "scriptSig": {"hex": "2200200f412ca57a05cf15b8d0dad31784538fb046dec341971aa1cf42694806e44e36", "asm": "00200f412ca57a05cf15b8d0dad31784538fb046dec341971aa1cf42694806e44e36"}, "vout": 0, "txid": "f17b5398168f080d6215aa681672220a9e066a671da8ea40f7290aab5094bfb0"}, {"txinwitness": ["", "3045022100b304ab5132dec4abab4c4754d69ac9d8fd1b57b04e9649a6ecd99c20183437dc022037338efcf1cb223edb9adad08c428ecc17b2bb73c4311ed53c64b5b80cfdb33b01", "30440220081f3836cf18e442d5ea989f3d0595be5683bbe89d1b76b7f149b3c8fc8536970220777fda4acf4fb5304e566eee169d0f1cfe09389a4d2a0cf25cc9fc7473cb2fa801", "522102d0dde817f8006fde296a0836bbbb42c0d754724be5d905cd9abddd52a5e3cdd0210201a12c35c31a1e1397a3b46e6304e33ebb94e50a1ca26befe3615a79df85944c2102bbd4e6406a7435c60a2c27392ebc7ab59ae9bbb6c220aab85002c4be6ab4a8bb53ae"], "sequence": 4294967295, "scriptSig": {"hex": "220020fa4d66c79e9f36cdc734fcb65ec1d974037c3012b0f5cb14459e43eb3ec14657", "asm": "0020fa4d66c79e9f36cdc734fcb65ec1d974037c3012b0f5cb14459e43eb3ec14657"}, "vout": 94, "txid": "9c306912edc2b1a387d7d0403e0a4868292eb43a7f43fd1a708d119cea95b5f0"}, {"txinwitness": ["", "30440220259aeb4df753635277fc4836b3a49a024fdd389508e01f96a712d0b2a0b8332902203c5730e7de706c200c729feec6c03ccab024c720e41023ab3067580d62194f3101", "3045022100d939b0ca267427a32e0c5aacf7d93f87bbab0d440c120ed308f76595c9a4675702205c35076f34ae904fce36d9c269a9b22d671e8f4e75defe4a4d5ea8d3264f407701", "5221028cbe35fe32c8c6a5796adcac7ec40a24277c8edc82f1793ca96cb779ffd542a2210239e37c7dde3061fc18a46ee271af5164a9a91a2a330189c4c50432d4b904fd2c2102294c98d45e3e8465e3dbcdc4daa947a0e6774b3ee54b2afd9b8c17f91c4769e553ae"], "sequence": 4294967295, "scriptSig": {"hex": "220020a5e603b0351dabb406465e0ae6e0518ae5aede31ebd7320eba7f1dec921884ba", "asm": "0020a5e603b0351dabb406465e0ae6e0518ae5aede31ebd7320eba7f1dec921884ba"}, "vout": 24, "txid": "4148c218b389529de0b1d680dbe5c89a467c594a54e3e9652d4284cadae6d665"}, {"sequence": 4294967295, "scriptSig": {"hex": "0047304402200b7e840d599b0b6e709ce6aefadb0dcfa0de5650f628b53d9fecfb211a1c16820220693cb590300170c3308c736f2de9705db7c31c7200f6dddd656dfc2bac51b5720147304402203899a3fc45949babf2e756efb133f3ffaf0d76478564fb1cfe2ce5a66d94c84202203c8d93f52a9b323734d5023576cb59f22a4651628c33e8637ee501fcbb53ccd0014c69522103a2d4300391d4a749d5f80e221a30d62b65cf6c5330285cfca32252a6dffad3d2210251aff4e658387f0a6ba612d14add23feddfabffdbf885fecf39698ca83ad08e821021954256974943f3aa520112d5e10a5ceccf8fdc5fc9b1c82bee899159b5cb40f53ae", "asm": "0 304402200b7e840d599b0b6e709ce6aefadb0dcfa0de5650f628b53d9fecfb211a1c16820220693cb590300170c3308c736f2de9705db7c31c7200f6dddd656dfc2bac51b572[ALL] 304402203899a3fc45949babf2e756efb133f3ffaf0d76478564fb1cfe2ce5a66d94c84202203c8d93f52a9b323734d5023576cb59f22a4651628c33e8637ee501fcbb53ccd0[ALL] 522103a2d4300391d4a749d5f80e221a30d62b65cf6c5330285cfca32252a6dffad3d2210251aff4e658387f0a6ba612d14add23feddfabffdbf885fecf39698ca83ad08e821021954256974943f3aa520112d5e10a5ceccf8fdc5fc9b1c82bee899159b5cb40f53ae"}, "vout": 2, "txid": "041176c9ba83021fef2f4db6784ff143f544179886724abe0f8e913be4b0c2c7"}, {"txinwitness": ["", "3045022100960e0e6d7f788ac355757f5bb1ace783ff5ad0bd2efe0bd33a4192c61a1d71ab022003bd947a378fa7153b5e5eeb558e22cbb28d47d1052f01123a035e378fed5fb901", "3045022100d30f838369cae552be37eaa42e0fe1af27d250a5919ec3750f7c4afa38196c2502202b4a43771712d129817937bc4b1035236f6289b692a0e1fa51704e40d4510e0001", "5221032be984f69efb866e74c3712e1674cb6eba347fe44ab7fe8a775b04c6d55ea31f21034cf9f92277e5c5c8f9f8f45edf6c4e3e3f3fd786a1804e3123957482550e0dde210234a039a36f0bb7be78be09e0763316f8558b05e3768eed5e9a2dbe6029e927cb53ae"], "sequence": 4294967295, "scriptSig": {"hex": "220020bd73cdf120661090b4b4437a65f0e721c6d5d223f1a3320aa19d38078daccebb", "asm": "0020bd73cdf120661090b4b4437a65f0e721c6d5d223f1a3320aa19d38078daccebb"}, "vout": 1, "txid": "4116a16126cbe7bea98bed148996267c232c87255a121754fe0865755d110d57"}, {"sequence": 4294967295, "scriptSig": {"hex": "0047304402202553fafd4a834abf2f84a8ed1b440d85ba0ab295a23ff7656fe2b5569826fbdb02202ea2b5e3f6208cac242cd8455f939ecc145a020e1ae418f666c0db8013adb1c00147304402205a91f7d1f510940fd74d0c46350fcef898980333e3edd81d53dc1fe41cea92ab02206d93f72fd3b625343b0fcad80a0958b842062b08d976f73483dc84a59e3a2f87014c69522102a0be84e77edb5bf88169c974db8b927f1a9bc45befaefda65daf9d895e9971172103268e936d8881d48a2f530e8cb8e807cd51361497d3222db86d66d3cebb4989752102ba1d6797c905db5e494e31b5542745ce7aa88c96658f6d234eb67b0a5664ec3153ae", "asm": "0 304402202553fafd4a834abf2f84a8ed1b440d85ba0ab295a23ff7656fe2b5569826fbdb02202ea2b5e3f6208cac242cd8455f939ecc145a020e1ae418f666c0db8013adb1c0[ALL] 304402205a91f7d1f510940fd74d0c46350fcef898980333e3edd81d53dc1fe41cea92ab02206d93f72fd3b625343b0fcad80a0958b842062b08d976f73483dc84a59e3a2f87[ALL] 522102a0be84e77edb5bf88169c974db8b927f1a9bc45befaefda65daf9d895e9971172103268e936d8881d48a2f530e8cb8e807cd51361497d3222db86d66d3cebb4989752102ba1d6797c905db5e494e31b5542745ce7aa88c96658f6d234eb67b0a5664ec3153ae"}, "vout": 21, "txid": "64bf8965a3172f76f77e9a23eba8f3b323a2346feb9d3f05198d413ac8eeefe2"}, {"sequence": 4294967295, "scriptSig": {"hex": "00483045022100d42d4a17028ecf5142d790a87d9179ad2fee827dbd5894f8163f754ee7a68c3002203c94f46b266c17db51eb55bed75cb30ba0bd9a7e2aa1c7c6fbfb985f8857f71e014830450221008bee25e6d155c8c09835af95b5bbd016f03dd3096be5e89b6d2a7f8facd25123022059bb3cda328db9064e951e875aefec16f9536982593f1efc4dc54393ac3ffb31014c695221025f852457354786b46f296b7e502ba817ce3648d43768430f6a138fca29ba91ac2102ed6979871b6230f890acbc5b79df463e756b8eca63116d39d74f9664ea5f70662103e266da0069948168bef2bf8e53a06e44b2369bb4830c68ce51dde51069cfd8ef53ae", "asm": "0 3045022100d42d4a17028ecf5142d790a87d9179ad2fee827dbd5894f8163f754ee7a68c3002203c94f46b266c17db51eb55bed75cb30ba0bd9a7e2aa1c7c6fbfb985f8857f71e[ALL] 30450221008bee25e6d155c8c09835af95b5bbd016f03dd3096be5e89b6d2a7f8facd25123022059bb3cda328db9064e951e875aefec16f9536982593f1efc4dc54393ac3ffb31[ALL] 5221025f852457354786b46f296b7e502ba817ce3648d43768430f6a138fca29ba91ac2102ed6979871b6230f890acbc5b79df463e756b8eca63116d39d74f9664ea5f70662103e266da0069948168bef2bf8e53a06e44b2369bb4830c68ce51dde51069cfd8ef53ae"}, "vout": 28, "txid": "af42994e5cd69430cb0795cadf03155ea61f942814743dcdb367436c0c1cf62e"}, {"txinwitness": ["", "3044022064b9cc7654a15da7dec8dbe270e80aa38de549c6e202dd3ec92a7cff5a321f470220226adad06940c028e653c653f82a6b149d379f989bedc279b4102c178e0523b601", "30440220711d7d4f3d0f0d1f449eeca8b765e82e1c69419ce384ec12ab75cc54d12549b102202ebbb9200dc4e1738a4187c779e36c109f5412feb121d2830215ab9e2eef9c9501", "52210317ac9ef4edbd6892939528fb4f0892144dfee40f421218b76b834fbebd6a509f210289c90ab7e222d3910bb3976052d4d97c07bc24a19fd85b00f1fa26ec17fe0a2d210319cc4c953ab1c0cec4828e508f8950c39e3f7182bd899c389229acedd659a57553ae"], "sequence": 4294967295, "scriptSig": {"hex": "2200208ce52785279ac39e4f3bb98e9e7893781be2c4f5db504fcc852f93a63a0367b9", "asm": "00208ce52785279ac39e4f3bb98e9e7893781be2c4f5db504fcc852f93a63a0367b9"}, "vout": 0, "txid": "0da062bbddfbfe93611004abd926334eca38ca6ffb03f98848d745da342aebab"}], "txid": "73b369b3a4081c0b99d5e6c6326bab879ef57a64decca730be3b38e34714dff3", "blocktime": 1537873282, "version": 1, "confirmations": 11484, "time": 1537873282, "locktime": 0, "vsize": 3345, "size": 4678}