{"hash": "cb8d11e1202069aeb63d2156d5282cd4fa3bf78684d94aab2fef84d3655a79db", "blockhash": "0000000000000000001f0ddff1eddb255c1121bcd4da4f1bc9a0da00cae72433", "vout": [{"scriptPubKey": {"reqSigs": 1, "hex": "0014fd5a2cae60f19dfdfd6cbbdaef56cab33ebda097", "addresses": ["bc1ql4dzetnq7xwlmltvh0dw74k2kvltmgyhd5nmsn"], "asm": "0 fd5a2cae60f19dfdfd6cbbdaef56cab33ebda097", "type": "witness_v0_keyhash"}, "value": 0.0004599, "n": 0}, {"scriptPubKey": {"reqSigs": 1, "hex": "76a914be32fc62cd3c28237d17a3e176fe90116175c9d088ac", "addresses": ["1JLgU1XJW4MUSnJ1jAq6ywJqH5eHD4QDDS"], "asm": "OP_DUP OP_HASH160 be32fc62cd3c28237d17a3e176fe90116175c9d0 OP_EQUALVERIFY OP_CHECKSIG", "type": "pubkeyhash"}, "value": 0.01172623, "n": 1}], "hex": "01000000000101ac41959401adbb60996b338d69de5719001882a018c1b46892eea0b9082870e1230000001716001421a12a725e610bbe248aa33b0b426d1f3854d178ffffffff02a6b3000000000000160014fd5a2cae60f19dfdfd6cbbdaef56cab33ebda0978fe41100000000001976a914be32fc62cd3c28237d17a3e176fe90116175c9d088ac02483045022100824bee3b55d82626a4739ef193ec4907bb9df03cdd0177c1c374444ed1243f0f022076334a6a8af9155ddd8b91ed7a304368052a7fd629e79531a0cbc16cfa7a6096012102e5d221653d6bcd42528831d7f3a05611d6b1472ba7c107106f7c701fc60ef84f00000000", "vin": [{"txinwitness": ["3045022100824bee3b55d82626a4739ef193ec4907bb9df03cdd0177c1c374444ed1243f0f022076334a6a8af9155ddd8b91ed7a304368052a7fd629e79531a0cbc16cfa7a609601", "02e5d221653d6bcd42528831d7f3a05611d6b1472ba7c107106f7c701fc60ef84f"], "sequence": 4294967295, "scriptSig": {"hex": "16001421a12a725e610bbe248aa33b0b426d1f3854d178", "asm": "001421a12a725e610bbe248aa33b0b426d1f3854d178"}, "vout": 35, "txid": "e1702808b9a0ee9268b4c118a08218001957de698d336b9960bbad01949541ac"}], "txid": "73b4382a3e1f87c9615ecf3553b161b239cc5e105d7ef22d581bcd4092311ec4", "blocktime": 1537872018, "version": 1, "confirmations": 11489, "time": 1537872018, "locktime": 0, "vsize": 167, "size": 249}