{"hash": "73ba6ee8056f768a6df481b91ac3e6eed4ee513ced139fbc18e7099534a17859", "blockhash": "000000000000000000022b45ed06c6f4ccd3cf7fb5ba4856ebd2e58215665228", "vout": [{"scriptPubKey": {"reqSigs": 1, "hex": "76a914d243e6abb9a60fbff430b421d2df4b7d59ec186088ac", "addresses": ["1LAnF8h3qMGx3TSwNUHVneBZUEpwE4gu3D"], "asm": "OP_DUP OP_HASH160 d243e6abb9a60fbff430b421d2df4b7d59ec1860 OP_EQUALVERIFY OP_CHECKSIG", "type": "pubkeyhash"}, "value": 0.00076972, "n": 0}, {"scriptPubKey": {"reqSigs": 1, "hex": "76a9143851f34d13937b673a7d24a1950bb5b21ce94af388ac", "addresses": ["168o1kqNquEJeR9vosUB5fw4eAwcVAgh8P"], "asm": "OP_DUP OP_HASH160 3851f34d13937b673a7d24a1950bb5b21ce94af3 OP_EQUALVERIFY OP_CHECKSIG", "type": "pubkeyhash"}, "value": 5.46e-06, "n": 1}, {"scriptPubKey": {"type": "nulldata", "hex": "6a146f6d6e69000000000000001f0000000ba43b7400", "asm": "OP_RETURN 6f6d6e69000000000000001f0000000ba43b7400"}, "value": 0.0, "n": 2}], "hex": "01000000027b84b9ef5d910e110e3b54ebaca09d2a17387f5a169d61cf79d781cca4f7099d020000006a47304402203c7e766414fa7d95bf88132ec31ed813845038a69a3181e05b192684d6af1f2d02202171c42ca846c44a55458b7856300c356cdf9ee640971cbe001d084ef7e8f4960121026f5b5c19f9cfe6dfcaa3f65f760f17874666d58f9a0e6cd0f7138fe6a0865e02ffffffff5715aca05221b66970b5e29217c458a645cd4a4e31b7fb5f8e0f122650322240000000006b483045022100d56cf1dddbd071598a691997cae2528ac0b73e38c2e80164a151ca1f56f89ebf02207c62b5ed33f9cbaca1f62132c76a11a3c85d6e804fd8ab599ceb16cd44179d7801210271977291b74f1f5f5c42157e8aae804664eaaeccfd097918450d37f28fb94d77ffffffff03ac2c0100000000001976a914d243e6abb9a60fbff430b421d2df4b7d59ec186088ac22020000000000001976a9143851f34d13937b673a7d24a1950bb5b21ce94af388ac0000000000000000166a146f6d6e69000000000000001f0000000ba43b740000000000", "vin": [{"sequence": 4294967295, "scriptSig": {"hex": "47304402203c7e766414fa7d95bf88132ec31ed813845038a69a3181e05b192684d6af1f2d02202171c42ca846c44a55458b7856300c356cdf9ee640971cbe001d084ef7e8f4960121026f5b5c19f9cfe6dfcaa3f65f760f17874666d58f9a0e6cd0f7138fe6a0865e02", "asm": "304402203c7e766414fa7d95bf88132ec31ed813845038a69a3181e05b192684d6af1f2d02202171c42ca846c44a55458b7856300c356cdf9ee640971cbe001d084ef7e8f496[ALL] 026f5b5c19f9cfe6dfcaa3f65f760f17874666d58f9a0e6cd0f7138fe6a0865e02"}, "vout": 2, "txid": "9d09f7a4cc81d779cf619d165a7f38172a9da0aceb543b0e110e915defb9847b"}, {"sequence": 4294967295, "scriptSig": {"hex": "483045022100d56cf1dddbd071598a691997cae2528ac0b73e38c2e80164a151ca1f56f89ebf02207c62b5ed33f9cbaca1f62132c76a11a3c85d6e804fd8ab599ceb16cd44179d7801210271977291b74f1f5f5c42157e8aae804664eaaeccfd097918450d37f28fb94d77", "asm": "3045022100d56cf1dddbd071598a691997cae2528ac0b73e38c2e80164a151ca1f56f89ebf02207c62b5ed33f9cbaca1f62132c76a11a3c85d6e804fd8ab599ceb16cd44179d78[ALL] 0271977291b74f1f5f5c42157e8aae804664eaaeccfd097918450d37f28fb94d77"}, "vout": 0, "txid": "4022325026120f8e5ffbb7314e4acd45a658c41792e2b57069b62152a0ac1557"}], "txid": "73ba6ee8056f768a6df481b91ac3e6eed4ee513ced139fbc18e7099534a17859", "blocktime": 1537869901, "version": 1, "confirmations": 11522, "time": 1537869901, "locktime": 0, "vsize": 404, "size": 404}