{"hash": "fdda99502c5ba467b46a84cd6d91d7a8e86acc6ebb94d2ea3e66b2d2660410ec", "blockhash": "0000000000000000000e13cef7c366c0283d82e591d1acd082e914b08063cdf1", "vout": [{"scriptPubKey": {"reqSigs": 1, "hex": "a9149a260f95e5db100c927663145a55d90e1b91ed4187", "addresses": ["3Fk5absRX7H6aGLSWjTSqeysT5yEthJ2yt"], "asm": "OP_HASH160 9a260f95e5db100c927663145a55d90e1b91ed41 OP_EQUAL", "type": "scripthash"}, "value": 21.33034137, "n": 0}, {"scriptPubKey": {"reqSigs": 1, "hex": "a9148ac12342f9917f84b90d43522cccb23fc1ea312f87", "addresses": ["3ELgYTjs8jJxwjSjCVdRbf6p45qnFvWJrL"], "asm": "OP_HASH160 8ac12342f9917f84b90d43522cccb23fc1ea312f OP_EQUAL", "type": "scripthash"}, "value": 3.0, "n": 1}], "hex": "02000000000101b7679255ca5e2c4e6061668b07f084af72c22e214027f09dfa0b42f65a5732410000000017160014f42e768f35448e85230e75adb0bf651d79031703feffffff029984237f0000000017a9149a260f95e5db100c927663145a55d90e1b91ed418700a3e1110000000017a9148ac12342f9917f84b90d43522cccb23fc1ea312f8702483045022100d2135218481a18daf75ef6a86bafefb7bcc98be704a368703065ee8e78ee04c502205bdd0d78a1ea44dcfbc820254e6ae4d87f47a3763faa4f7f40542d56a10a9155012103ef1cb166f20a6bc459847a122aff095df20141baf9c6dd136134621c5251bc5810490800", "vin": [{"txinwitness": ["3045022100d2135218481a18daf75ef6a86bafefb7bcc98be704a368703065ee8e78ee04c502205bdd0d78a1ea44dcfbc820254e6ae4d87f47a3763faa4f7f40542d56a10a915501", "03ef1cb166f20a6bc459847a122aff095df20141baf9c6dd136134621c5251bc58"], "sequence": 4294967294, "scriptSig": {"hex": "160014f42e768f35448e85230e75adb0bf651d79031703", "asm": "0014f42e768f35448e85230e75adb0bf651d79031703"}, "vout": 0, "txid": "4132575af6420bfa9df02740212ec272af84f0078b6661604e2c5eca559267b7"}], "txid": "73c025283fc80491e1a81913c949ddad21898ce3b0ff241f2d265cd9b311e2fd", "blocktime": 1537871767, "version": 2, "confirmations": 11490, "time": 1537871767, "locktime": 542992, "vsize": 166, "size": 248}