{"hash": "53c2f6b8db19d5c381d1f654528baf99bfe7ec6964862ecfd3308825ffd89ffc", "blockhash": "0000000000000000001cda96e906b7601b7a6fb1a3b62bca570a9e5d8f4b3de1", "vout": [{"scriptPubKey": {"reqSigs": 1, "hex": "a914fdeec686bf69c998a56eb446b7df52a3420c63d187", "addresses": ["3QqgvVKEE62aMgnAoXSLCfSx4A4viMUQ3R"], "asm": "OP_HASH160 fdeec686bf69c998a56eb446b7df52a3420c63d1 OP_EQUAL", "type": "scripthash"}, "value": 0.0078, "n": 0}, {"scriptPubKey": {"reqSigs": 1, "hex": "00148b57c1c155bdc11ee6aea43fe230e876417a11f6", "addresses": ["bc1q3dturs24hhq3ae4w5sl7yv8gweqh5y0kewjqgc"], "asm": "0 8b57c1c155bdc11ee6aea43fe230e876417a11f6", "type": "witness_v0_keyhash"}, "value": 0.0018528, "n": 1}], "hex": "01000000000101b2b9db1bfc3236f621fb5a64068e0ee63f5e8fc48c13714236fa543b1ec6590a00000000171600142676ee7e477d9c17d2b8b8481c1a0e2df742a970ffffffff02e0e60b000000000017a914fdeec686bf69c998a56eb446b7df52a3420c63d187c0d30200000000001600148b57c1c155bdc11ee6aea43fe230e876417a11f60247304402200a0a9af6096325c741f4f2ea16aaf3607d53d500a6ab3d4e8d6d4995fb58294902203bbf75a0fa60fffed7898a613f5b29406f5ee7a7811298b2919c3b754a9fc775012103ed5c2f6bd0329551743ee0f948cf84296c8ae7a936cfd9b026c4bd2f04678ed800000000", "vin": [{"txinwitness": ["304402200a0a9af6096325c741f4f2ea16aaf3607d53d500a6ab3d4e8d6d4995fb58294902203bbf75a0fa60fffed7898a613f5b29406f5ee7a7811298b2919c3b754a9fc77501", "03ed5c2f6bd0329551743ee0f948cf84296c8ae7a936cfd9b026c4bd2f04678ed8"], "sequence": 4294967295, "scriptSig": {"hex": "1600142676ee7e477d9c17d2b8b8481c1a0e2df742a970", "asm": "00142676ee7e477d9c17d2b8b8481c1a0e2df742a970"}, "vout": 0, "txid": "0a59c61e3b54fa364271138cc48f5e3fe60e8e06645afb21f63632fc1bdbb9b2"}], "txid": "73c29288726cb85893bfee02dcb153a3e3ffc97d6dd10a28f345a9acd1c308a1", "blocktime": 1537873282, "version": 1, "confirmations": 11484, "time": 1537873282, "locktime": 0, "vsize": 165, "size": 246}