{"hash": "73c393c13866f3d312d3ba66078de501023229b19a23f439626700e71adcac98", "blockhash": "00000000000000000004ffacab907a6b429b9a5745fa0b75af4234bf69dd7176", "vout": [{"scriptPubKey": {"reqSigs": 1, "hex": "a9140d7197100644fb95741a4bd02f1847a5c3417ec187", "addresses": ["32v6nR38rKbHF4Vfn6vmwipgkSpAb7S6D2"], "asm": "OP_HASH160 0d7197100644fb95741a4bd02f1847a5c3417ec1 OP_EQUAL", "type": "scripthash"}, "value": 0.00101851, "n": 0}, {"scriptPubKey": {"reqSigs": 1, "hex": "76a914e163d073e054266d0f5e025eebd6100b0c946b5b88ac", "addresses": ["1MYkcNyCtPmxivKoMy5v5VBkv6LuBrgrAy"], "asm": "OP_DUP OP_HASH160 e163d073e054266d0f5e025eebd6100b0c946b5b OP_EQUALVERIFY OP_CHECKSIG", "type": "pubkeyhash"}, "value": 0.09104082, "n": 1}], "hex": "01000000018609dba3f81b3943db9d9cb0b04555a55919f9f302fd54978997e147c5ca1f32010000006a4730440220238db014b7858c3f8e1573aa6727437ae6efd05ab344851c4c3b5d6d890b34240220120c147e8d926a18ad5152d7b31afc3f65daceed66b55c09ae13ac709d5944b00121033387315522fd785dc6a3184e4f2acbd937f90409a105c06583c94e6554220085ffffffff02db8d01000000000017a9140d7197100644fb95741a4bd02f1847a5c3417ec187d2ea8a00000000001976a914e163d073e054266d0f5e025eebd6100b0c946b5b88ac00000000", "vin": [{"sequence": 4294967295, "scriptSig": {"hex": "4730440220238db014b7858c3f8e1573aa6727437ae6efd05ab344851c4c3b5d6d890b34240220120c147e8d926a18ad5152d7b31afc3f65daceed66b55c09ae13ac709d5944b00121033387315522fd785dc6a3184e4f2acbd937f90409a105c06583c94e6554220085", "asm": "30440220238db014b7858c3f8e1573aa6727437ae6efd05ab344851c4c3b5d6d890b34240220120c147e8d926a18ad5152d7b31afc3f65daceed66b55c09ae13ac709d5944b0[ALL] 033387315522fd785dc6a3184e4f2acbd937f90409a105c06583c94e6554220085"}, "vout": 1, "txid": "321fcac547e197899754fd02f3f91959a55545b0b09c9ddb43391bf8a3db0986"}], "txid": "73c393c13866f3d312d3ba66078de501023229b19a23f439626700e71adcac98", "blocktime": 1537875543, "version": 1, "confirmations": 11464, "time": 1537875543, "locktime": 0, "vsize": 223, "size": 223}