{"hash": "480f0c5d7d6ee65952c71198c6fab1da97ca961847b491adf3ecbcc9442c6b31", "blockhash": "0000000000000000000e13cef7c366c0283d82e591d1acd082e914b08063cdf1", "vout": [{"scriptPubKey": {"reqSigs": 1, "hex": "76a914ca5838e769f8e7d269f694ddb135c0dda66aff7488ac", "addresses": ["1KSuBYPvhjgToay9y1tGCfh5WkA9MJt4kG"], "asm": "OP_DUP OP_HASH160 ca5838e769f8e7d269f694ddb135c0dda66aff74 OP_EQUALVERIFY OP_CHECKSIG", "type": "pubkeyhash"}, "value": 0.00305, "n": 0}, {"scriptPubKey": {"reqSigs": 1, "hex": "76a914b4d4c5dc54bfa867919aa98d85b1d19759b1668888ac", "addresses": ["1HV9XFTZFoNwS1fUJwnAMefEPRk1GThBeD"], "asm": "OP_DUP OP_HASH160 b4d4c5dc54bfa867919aa98d85b1d19759b16688 OP_EQUALVERIFY OP_CHECKSIG", "type": "pubkeyhash"}, "value": 0.19, "n": 1}, {"scriptPubKey": {"reqSigs": 1, "hex": "76a91468f67f68372409d1e2f0c4c588b8f47152d7825788ac", "addresses": ["1AZzZumESrJ9T9fu322HA44w1g5DkQuerk"], "asm": "OP_DUP OP_HASH160 68f67f68372409d1e2f0c4c588b8f47152d78257 OP_EQUALVERIFY OP_CHECKSIG", "type": "pubkeyhash"}, "value": 0.00539548, "n": 2}, {"scriptPubKey": {"reqSigs": 1, "hex": "76a91440cc37f43a57fb92a03df63a84b9d315adef57cf88ac", "addresses": ["16uctdfdRad29krVZ1GemjEctutpGqoAH4"], "asm": "OP_DUP OP_HASH160 40cc37f43a57fb92a03df63a84b9d315adef57cf OP_EQUALVERIFY OP_CHECKSIG", "type": "pubkeyhash"}, "value": 0.003, "n": 3}, {"scriptPubKey": {"reqSigs": 1, "hex": "a9145064796b9659527fd4d10fc937c4ba4e593b7fa987", "addresses": ["3926Ly2YQ2SUzwuXKyKS1zHKV2QSBDQVeo"], "asm": "OP_HASH160 5064796b9659527fd4d10fc937c4ba4e593b7fa9 OP_EQUAL", "type": "scripthash"}, "value": 10.37876292, "n": 4}, {"scriptPubKey": {"reqSigs": 1, "hex": "76a914f4c0be6c3cea0eb113e409dea281249d46a6ed7688ac", "addresses": ["1PK8mtEZLk6qmi6vwaMVaUv59T5x5g5r7V"], "asm": "OP_DUP OP_HASH160 f4c0be6c3cea0eb113e409dea281249d46a6ed76 OP_EQUALVERIFY OP_CHECKSIG", "type": "pubkeyhash"}, "value": 0.103774, "n": 5}, {"scriptPubKey": {"reqSigs": 1, "hex": "76a914ea93ba780566c97292489492a94cf3876d80993288ac", "addresses": ["1NPL6EkWNVsNTLCN4493R3kiqBLcZk94yG"], "asm": "OP_DUP OP_HASH160 ea93ba780566c97292489492a94cf3876d809932 OP_EQUALVERIFY OP_CHECKSIG", "type": "pubkeyhash"}, "value": 0.003, "n": 6}, {"scriptPubKey": {"reqSigs": 1, "hex": "76a914cfeeb892836ff84c5167d4d62f80bd6eefdb8be388ac", "addresses": ["1KxSrLMmht5gFGZajeJqEe45KUWQWC5hcY"], "asm": "OP_DUP OP_HASH160 cfeeb892836ff84c5167d4d62f80bd6eefdb8be3 OP_EQUALVERIFY OP_CHECKSIG", "type": "pubkeyhash"}, "value": 0.14, "n": 7}, {"scriptPubKey": {"reqSigs": 1, "hex": "76a914c4b3752a06438bb990fc584cc40dda341cf6711b88ac", "addresses": ["1Jw4RY7bJt7YhjZLR17Pq4JwN1dmJa7m9g"], "asm": "OP_DUP OP_HASH160 c4b3752a06438bb990fc584cc40dda341cf6711b OP_EQUALVERIFY OP_CHECKSIG", "type": "pubkeyhash"}, "value": 0.004, "n": 8}], "hex": "0200000000010182470550859df53044cadff9b527824ba8e4c0bba58bc1b4968142643b2d2214030000001716001451a80e99bfee4c9e4db9be8a9ec2126778702f89fdffffff0968a70400000000001976a914ca5838e769f8e7d269f694ddb135c0dda66aff7488acc0ea2101000000001976a914b4d4c5dc54bfa867919aa98d85b1d19759b1668888ac9c3b0800000000001976a91468f67f68372409d1e2f0c4c588b8f47152d7825788ace0930400000000001976a91440cc37f43a57fb92a03df63a84b9d315adef57cf88ac44bcdc3d0000000017a9145064796b9659527fd4d10fc937c4ba4e593b7fa987b8589e00000000001976a914f4c0be6c3cea0eb113e409dea281249d46a6ed7688ace0930400000000001976a914ea93ba780566c97292489492a94cf3876d80993288ac809fd500000000001976a914cfeeb892836ff84c5167d4d62f80bd6eefdb8be388ac801a0600000000001976a914c4b3752a06438bb990fc584cc40dda341cf6711b88ac0247304402206b829e6293d4b83e02fe41ca957421325680a848136ea920be45570c06e5630002201face17233dc614eb9dee7bf4ae666f9e3203d03dcf6b660a9e69c3720b2d7bd01210338f89b446c535b97e4442811341a06e47c20e674f33d15be0d45f9b7cc2a349010490800", "vin": [{"txinwitness": ["304402206b829e6293d4b83e02fe41ca957421325680a848136ea920be45570c06e5630002201face17233dc614eb9dee7bf4ae666f9e3203d03dcf6b660a9e69c3720b2d7bd01", "0338f89b446c535b97e4442811341a06e47c20e674f33d15be0d45f9b7cc2a3490"], "sequence": 4294967293, "scriptSig": {"hex": "16001451a80e99bfee4c9e4db9be8a9ec2126778702f89", "asm": "001451a80e99bfee4c9e4db9be8a9ec2126778702f89"}, "vout": 3, "txid": "14222d3b64428196b4c18ba5bbc0e4a84b8227b5f9dfca4430f59d8550054782"}], "txid": "73c6bdd67dcbaa57cb1ef28543828b5ef207919c7a52a4bb72c57177761a1cba", "blocktime": 1537871767, "version": 2, "confirmations": 11494, "time": 1537871767, "locktime": 542992, "vsize": 406, "size": 487}