{"hash": "73c8499a5737b841429efad0aae8ef1eb7c677074984753c4e0a8d269e4e43d2", "blockhash": "00000000000000000004ffacab907a6b429b9a5745fa0b75af4234bf69dd7176", "vout": [{"scriptPubKey": {"reqSigs": 1, "hex": "a914edc09a0aa22250e682e976a27c1d9e5251f1b26187", "addresses": ["3PN8oD8i7ShCG7A7VQu13QMntDzfJh3VHi"], "asm": "OP_HASH160 edc09a0aa22250e682e976a27c1d9e5251f1b261 OP_EQUAL", "type": "scripthash"}, "value": 0.043, "n": 0}, {"scriptPubKey": {"reqSigs": 1, "hex": "76a914c98eb31ef85e7f5f778e3bde8f09e332d4dd0d5088ac", "addresses": ["1KNjmWN9q3zBdWBTvUKNExuEwuewwjihNg"], "asm": "OP_DUP OP_HASH160 c98eb31ef85e7f5f778e3bde8f09e332d4dd0d50 OP_EQUALVERIFY OP_CHECKSIG", "type": "pubkeyhash"}, "value": 0.00020652, "n": 1}], "hex": "01000000045d500b81072d828b3e8679e89099ca64f4286111edd7f47f90bb2e06f9fd459cb20000006b483045022100f21ed3916773f7df6420080e3f3097f120a2a8b3b6276c1e0aa241f237473fb602207a946e40e6e6b0afa0034cece610f7f27c412b5ccc5035b02e4ad1be6b6a3f78012103e3bd313c046dff7b7b8923748b1a195966613daa210b18bdfe8a35cb53de56bcffffffff4b6b72ec7edf6396e1166c8f959e44566f9eb0f71db4bf0ad265648e11448f80010000006b48304502210088d593c37a7dc6a7a9fed49f770b7fd224db93599de1dd210758dfc540f00dc902204497005e5afbaa72a166fce6d8e24d3e29b55f5716678e19236db8173829bbd2012102de44c4b5a6a828b6ec780c02b1d2fe9a3347bdc258e08f29e44d67d056a8ebf0ffffffff931827f85139408c4e3c3b15e02f6a02b6e4796da92859d0102147c7ccaf6162010000006b483045022100a423100f41fc171a96ddbf63b56951fc1310e832f6f350678a40dbe96ff7cf1102204df7e7c7e4c0ae4b30ea36809dcbcbaa9680998685e142893a10ccf1d84975b6012103bfca3028076a63e55516d367927900de2ea629f9fa6815dc7408ba8a279195c6ffffffff256b191418606b11e6e2207a591502c727961087ffa870bce59b054d272d272f010000006b48304502210093dafbdbeeb26b47eb716f6a5809cf52dc231f85e2a906dd447b4a7f48631d150220420acf2956a26f420c853515a88d291fb316e12557d601a43143fee298770de3012103400dd0b4b0356ed01a7cf4b880f3d90fff9a4dc276e5f2d1f9e79f7ca07351cbffffffff02e09c41000000000017a914edc09a0aa22250e682e976a27c1d9e5251f1b26187ac500000000000001976a914c98eb31ef85e7f5f778e3bde8f09e332d4dd0d5088ac00000000", "vin": [{"sequence": 4294967295, "scriptSig": {"hex": "483045022100f21ed3916773f7df6420080e3f3097f120a2a8b3b6276c1e0aa241f237473fb602207a946e40e6e6b0afa0034cece610f7f27c412b5ccc5035b02e4ad1be6b6a3f78012103e3bd313c046dff7b7b8923748b1a195966613daa210b18bdfe8a35cb53de56bc", "asm": "3045022100f21ed3916773f7df6420080e3f3097f120a2a8b3b6276c1e0aa241f237473fb602207a946e40e6e6b0afa0034cece610f7f27c412b5ccc5035b02e4ad1be6b6a3f78[ALL] 03e3bd313c046dff7b7b8923748b1a195966613daa210b18bdfe8a35cb53de56bc"}, "vout": 178, "txid": "9c45fdf9062ebb907ff4d7ed116128f464ca9990e879863e8b822d07810b505d"}, {"sequence": 4294967295, "scriptSig": {"hex": "48304502210088d593c37a7dc6a7a9fed49f770b7fd224db93599de1dd210758dfc540f00dc902204497005e5afbaa72a166fce6d8e24d3e29b55f5716678e19236db8173829bbd2012102de44c4b5a6a828b6ec780c02b1d2fe9a3347bdc258e08f29e44d67d056a8ebf0", "asm": "304502210088d593c37a7dc6a7a9fed49f770b7fd224db93599de1dd210758dfc540f00dc902204497005e5afbaa72a166fce6d8e24d3e29b55f5716678e19236db8173829bbd2[ALL] 02de44c4b5a6a828b6ec780c02b1d2fe9a3347bdc258e08f29e44d67d056a8ebf0"}, "vout": 1, "txid": "808f44118e6465d20abfb41df7b09e6f56449e958f6c16e19663df7eec726b4b"}, {"sequence": 4294967295, "scriptSig": {"hex": "483045022100a423100f41fc171a96ddbf63b56951fc1310e832f6f350678a40dbe96ff7cf1102204df7e7c7e4c0ae4b30ea36809dcbcbaa9680998685e142893a10ccf1d84975b6012103bfca3028076a63e55516d367927900de2ea629f9fa6815dc7408ba8a279195c6", "asm": "3045022100a423100f41fc171a96ddbf63b56951fc1310e832f6f350678a40dbe96ff7cf1102204df7e7c7e4c0ae4b30ea36809dcbcbaa9680998685e142893a10ccf1d84975b6[ALL] 03bfca3028076a63e55516d367927900de2ea629f9fa6815dc7408ba8a279195c6"}, "vout": 1, "txid": "6261afccc7472110d05928a96d79e4b6026a2fe0153b3c4e8c403951f8271893"}, {"sequence": 4294967295, "scriptSig": {"hex": "48304502210093dafbdbeeb26b47eb716f6a5809cf52dc231f85e2a906dd447b4a7f48631d150220420acf2956a26f420c853515a88d291fb316e12557d601a43143fee298770de3012103400dd0b4b0356ed01a7cf4b880f3d90fff9a4dc276e5f2d1f9e79f7ca07351cb", "asm": "304502210093dafbdbeeb26b47eb716f6a5809cf52dc231f85e2a906dd447b4a7f48631d150220420acf2956a26f420c853515a88d291fb316e12557d601a43143fee298770de3[ALL] 03400dd0b4b0356ed01a7cf4b880f3d90fff9a4dc276e5f2d1f9e79f7ca07351cb"}, "vout": 1, "txid": "2f272d274d059be5bc70a8ff87109627c70215597a20e2e6116b601814196b25"}], "txid": "73c8499a5737b841429efad0aae8ef1eb7c677074984753c4e0a8d269e4e43d2", "blocktime": 1537875543, "version": 1, "confirmations": 11464, "time": 1537875543, "locktime": 0, "vsize": 668, "size": 668}