{"hash": "7cb98c6214db36bbac86a161fbebe3f57edfed78603bb8c77a60729dd3eeb323", "blockhash": "0000000000000000001e0dab787dd257d1dbfcb92a98c2207d5e1078be1f4165", "vout": [{"scriptPubKey": {"reqSigs": 1, "hex": "a91473526abcaa73f1ff18ac04349af2d42865816ed987", "addresses": ["3CCnN2uhuRk8S65csPYtwAZf56F2Zzgkd4"], "asm": "OP_HASH160 73526abcaa73f1ff18ac04349af2d42865816ed9 OP_EQUAL", "type": "scripthash"}, "value": 0.00232339, "n": 0}], "hex": "02000000000101ebe21d2d2a4f9e5da7f98198acdad41b21ccde70a94d19806fe4bc820eb1d1310000000017160014fae10664bdc144e40d890723c9a3a13e5264908fffffffff01938b03000000000017a91473526abcaa73f1ff18ac04349af2d42865816ed98702483045022100d5e69351f6a02918c636ff3d5f31c35eec85f95a0f6607829c44ae23b2f7225c02202b9c8ed81da1854e75b3873c64ea4cd87ccf658a02683570e360d314b2a8bc4101210309d763381930e17497b3682564e5bc6fccf6394b45c0933d39cac7d6953a8bb800000000", "vin": [{"txinwitness": ["3045022100d5e69351f6a02918c636ff3d5f31c35eec85f95a0f6607829c44ae23b2f7225c02202b9c8ed81da1854e75b3873c64ea4cd87ccf658a02683570e360d314b2a8bc4101", "0309d763381930e17497b3682564e5bc6fccf6394b45c0933d39cac7d6953a8bb8"], "sequence": 4294967295, "scriptSig": {"hex": "160014fae10664bdc144e40d890723c9a3a13e5264908f", "asm": "0014fae10664bdc144e40d890723c9a3a13e5264908f"}, "vout": 0, "txid": "31d1b10e82bce46f80194da970decc211bd4daac9881f9a75d9e4f2a2d1de2eb"}], "txid": "73c9d17a1df7c70b735dfacb3d7841dda2d41924b3d24f7e681ce0d675ae600b", "blocktime": 1537872475, "version": 2, "confirmations": 11486, "time": 1537872475, "locktime": 0, "vsize": 134, "size": 216}