{"hash": "379058c2fee51c5e67ceda51d8b7197a6c70f6008ad27ce791b235553917ce18", "blockhash": "00000000000000000018f53835495a110e01622372bf6ae95dc86f2b0ab887b0", "vout": [{"scriptPubKey": {"reqSigs": 1, "hex": "a9148c7445251f006bc13b1da15a049b8f2ea35eb21a87", "addresses": ["3EVfozFyPrP1VWPiqcRDVYGBCW8pM65crs"], "asm": "OP_HASH160 8c7445251f006bc13b1da15a049b8f2ea35eb21a OP_EQUAL", "type": "scripthash"}, "value": 10.82772751, "n": 0}, {"scriptPubKey": {"reqSigs": 1, "hex": "76a91459d409fa45bd178f6dcc0094700f9ed3be39fb7c88ac", "addresses": ["19By9oMSXvdJpZj6nkRzhrkLxcRjimCT3n"], "asm": "OP_DUP OP_HASH160 59d409fa45bd178f6dcc0094700f9ed3be39fb7c OP_EQUALVERIFY OP_CHECKSIG", "type": "pubkeyhash"}, "value": 0.01337808, "n": 1}], "hex": "020000000001019a2d29bdb4fe276e42c633673b50581b1fbbe2735a19ef6deff1982da2ca96bb0100000017160014d537c52184a6e399cb6c337d7f4e3a62213d456bfeffffff020fcd89400000000017a9148c7445251f006bc13b1da15a049b8f2ea35eb21a87d0691400000000001976a91459d409fa45bd178f6dcc0094700f9ed3be39fb7c88ac02483045022100c721ce2ec20091b78f609c419f96fe39c63a5b475888bfda61846cf2d12581ee022008d01bc5994609ff47e46b19152169672f2947a94c94e403dca2b0109ae0d29c0121023364ce655daf24b48bb788ed318070923f33b5e138b78507caf3c7c0fad16bf30e490800", "vin": [{"txinwitness": ["3045022100c721ce2ec20091b78f609c419f96fe39c63a5b475888bfda61846cf2d12581ee022008d01bc5994609ff47e46b19152169672f2947a94c94e403dca2b0109ae0d29c01", "023364ce655daf24b48bb788ed318070923f33b5e138b78507caf3c7c0fad16bf3"], "sequence": 4294967294, "scriptSig": {"hex": "160014d537c52184a6e399cb6c337d7f4e3a62213d456b", "asm": "0014d537c52184a6e399cb6c337d7f4e3a62213d456b"}, "vout": 1, "txid": "bb96caa22d98f1ef6def195a73e2bb1f1b58503b6733c6426e27feb4bd292d9a"}], "txid": "73ce58f5e283d64b3ba7ddb35053941657f39359641846ea116eb6368d6a84b1", "blocktime": 1537870928, "version": 2, "confirmations": 11512, "time": 1537870928, "locktime": 542990, "vsize": 168, "size": 250}