{"hash": "73d349d9069f1c524313450125f6888951ae9ed41012c03b18fe98e3f192033b", "blockhash": "0000000000000000001cda96e906b7601b7a6fb1a3b62bca570a9e5d8f4b3de1", "vout": [{"scriptPubKey": {"reqSigs": 1, "hex": "76a9149f00567bae1f151341e712ab0abbc488d12ff88e88ac", "addresses": ["1FViqyTtJ8wK4YwhaUH3QTA5PSV3Ty3zDy"], "asm": "OP_DUP OP_HASH160 9f00567bae1f151341e712ab0abbc488d12ff88e OP_EQUALVERIFY OP_CHECKSIG", "type": "pubkeyhash"}, "value": 0.0147036, "n": 0}, {"scriptPubKey": {"type": "nulldata", "hex": "6a4c50000077d500017b7451d3863b8d420c7093555b23cc0f42c2fc38c5e5bf9ae76da98a211a5bd994bab65537662fb9fa51cd26c93f5baa151f0612d711973bc782bc9a9526289ac0f6612cd74e33776ee4", "asm": "OP_RETURN 000077d500017b7451d3863b8d420c7093555b23cc0f42c2fc38c5e5bf9ae76da98a211a5bd994bab65537662fb9fa51cd26c93f5baa151f0612d711973bc782bc9a9526289ac0f6612cd74e33776ee4"}, "value": 0.0, "n": 1}], "hex": "0100000001dae43f5b139b190d3b3719b87c27e9fa07623e98a0d944b559d80cd424902df0000000006b483045022100a663b1191b15865956f3dfa73311a3e63f0eca602ece6c4c070a301b5334d38a02200cc490ddc18026c7227b18711a141ebba9dd523d46ac38adbec88fec3b3522ee0121020e60664f85237adc22cc79e057094728ceac0d982ccae9e9215f6558f7cc428affffffff02986f1600000000001976a9149f00567bae1f151341e712ab0abbc488d12ff88e88ac0000000000000000536a4c50000077d500017b7451d3863b8d420c7093555b23cc0f42c2fc38c5e5bf9ae76da98a211a5bd994bab65537662fb9fa51cd26c93f5baa151f0612d711973bc782bc9a9526289ac0f6612cd74e33776ee400000000", "vin": [{"sequence": 4294967295, "scriptSig": {"hex": "483045022100a663b1191b15865956f3dfa73311a3e63f0eca602ece6c4c070a301b5334d38a02200cc490ddc18026c7227b18711a141ebba9dd523d46ac38adbec88fec3b3522ee0121020e60664f85237adc22cc79e057094728ceac0d982ccae9e9215f6558f7cc428a", "asm": "3045022100a663b1191b15865956f3dfa73311a3e63f0eca602ece6c4c070a301b5334d38a02200cc490ddc18026c7227b18711a141ebba9dd523d46ac38adbec88fec3b3522ee[ALL] 020e60664f85237adc22cc79e057094728ceac0d982ccae9e9215f6558f7cc428a"}, "vout": 0, "txid": "f02d9024d40cd859b544d9a0983e6207fae9277cb819373b0d199b135b3fe4da"}], "txid": "73d349d9069f1c524313450125f6888951ae9ed41012c03b18fe98e3f192033b", "blocktime": 1537873282, "version": 1, "confirmations": 11484, "time": 1537873282, "locktime": 0, "vsize": 284, "size": 284}