{"hash": "f46c0d7ec0c19d7482cbac7d13f2b3db24e2150d9dedebaf15c9b83f4009fdfc", "blockhash": "00000000000000000004ffacab907a6b429b9a5745fa0b75af4234bf69dd7176", "vout": [{"scriptPubKey": {"reqSigs": 1, "hex": "a914a71c8d8cd93fe77258f7d5d0594e4140bdf1824187", "addresses": ["3GvcyUKTRQskjRhcpwmBvJw6qcL1WqgbMZ"], "asm": "OP_HASH160 a71c8d8cd93fe77258f7d5d0594e4140bdf18241 OP_EQUAL", "type": "scripthash"}, "value": 0.399, "n": 0}, {"scriptPubKey": {"reqSigs": 1, "hex": "a91477a68333fc7d2f6f6d0363d256e60e4247a37c1987", "addresses": ["3Cbfos3rZQLwqmozGZy4NyFacasCPbwtFV"], "asm": "OP_HASH160 77a68333fc7d2f6f6d0363d256e60e4247a37c19 OP_EQUAL", "type": "scripthash"}, "value": 7.15158847, "n": 1}], "hex": "02000000000101e7318e7d7111c3efdf6d341562c3eb4cda66e331d11fc8b7efe74c843fe4837f0100000017160014e19e2005b0314e6822bc17d091fe950bed1ec71dfeffffff0260d360020000000017a914a71c8d8cd93fe77258f7d5d0594e4140bdf18241873f75a02a0000000017a91477a68333fc7d2f6f6d0363d256e60e4247a37c198702483045022100a3af5fc7475a99bcd207d4047f4d117361da98d5c80f90228d18de347a08ae980220127f78b28dea5a1a630e30ab4b0f49662e570582cb534e799e721675fb97b525012103f1b5f27b8b67684cad3d799aa312c1ee35bc1bd4bada3de4208cb6b642b2147d16490800", "vin": [{"txinwitness": ["3045022100a3af5fc7475a99bcd207d4047f4d117361da98d5c80f90228d18de347a08ae980220127f78b28dea5a1a630e30ab4b0f49662e570582cb534e799e721675fb97b52501", "03f1b5f27b8b67684cad3d799aa312c1ee35bc1bd4bada3de4208cb6b642b2147d"], "sequence": 4294967294, "scriptSig": {"hex": "160014e19e2005b0314e6822bc17d091fe950bed1ec71d", "asm": "0014e19e2005b0314e6822bc17d091fe950bed1ec71d"}, "vout": 1, "txid": "7f83e43f844ce7efb7c81fd131e366da4cebc36215346ddfefc311717d8e31e7"}], "txid": "73d4a009f61e385c01a72c158d61d334a2a0d1aba440e1623a1a95946e502347", "blocktime": 1537875543, "version": 2, "confirmations": 11464, "time": 1537875543, "locktime": 542998, "vsize": 166, "size": 248}