{"hash": "73d57c0b36c0cd646266f3edbaaeb309c40014c9da139d5687c7fdfbbabda304", "blockhash": "00000000000000000018f53835495a110e01622372bf6ae95dc86f2b0ab887b0", "vout": [{"scriptPubKey": {"type": "nulldata", "hex": "6a146f6d6e69000000000000001f000000000ee6b280", "asm": "OP_RETURN 6f6d6e69000000000000001f000000000ee6b280"}, "value": 0.0, "n": 0}, {"scriptPubKey": {"reqSigs": 1, "hex": "76a9147befc52ea9e124aeee05ab98dc51e85238a6fbcf88ac", "addresses": ["1CJKM8B9Vqk1UdtyuEeewRnRvrse43k9nN"], "asm": "OP_DUP OP_HASH160 7befc52ea9e124aeee05ab98dc51e85238a6fbcf OP_EQUALVERIFY OP_CHECKSIG", "type": "pubkeyhash"}, "value": 6e-06, "n": 1}, {"scriptPubKey": {"reqSigs": 1, "hex": "76a9140e49b81f43f719255334d008a790ef674e2e72c288ac", "addresses": ["12JYmnfYU2ghzjwUAspzJsSnmJtK9bZPYR"], "asm": "OP_DUP OP_HASH160 0e49b81f43f719255334d008a790ef674e2e72c2 OP_EQUALVERIFY OP_CHECKSIG", "type": "pubkeyhash"}, "value": 0.05033072, "n": 2}, {"scriptPubKey": {"reqSigs": 1, "hex": "76a914b314d095b18e474e6a33db4f0db80115ae00466688ac", "addresses": ["1HKttaJcctpfnEfbcKYzcVFB218B1yXEeN"], "asm": "OP_DUP OP_HASH160 b314d095b18e474e6a33db4f0db80115ae004666 OP_EQUALVERIFY OP_CHECKSIG", "type": "pubkeyhash"}, "value": 6e-06, "n": 3}], "hex": "010000000214eecb13940829016a679f25dc788c335ee331cf77865f0a4c585e039de226a0010000006a473044022008c8d6190bfbbcf051aced2e681bf8eda81feab4ae192b641e6dfdfc2adbc56c02206c0a14c7175ee211cbce923790c833fe6a487d4773ffa59959e9e4523e8280d401210362a65d774aed68b8f4ab55851d730f9baa443888a6515b92f6ddfb7d17516aa6ffffffff3e42f345be4859cc35a1aae8b18b858cdbf9b100924bfbc3b603b9e81a1f245d020000006a47304402206db64242d5fd01bc223838d2e3a5b23a44649e93f89ee755a943eb9d5ac2743f022033fc282aa9e83ffc095ae0f49f91ad34a601e16438e65e84e69daae51806f68b01210361f26bf6731f956d2e62ee98a7a9fc6f0d36efdc9e6916973e7986a5ba9d19c4ffffffff040000000000000000166a146f6d6e69000000000000001f000000000ee6b28058020000000000001976a9147befc52ea9e124aeee05ab98dc51e85238a6fbcf88ac70cc4c00000000001976a9140e49b81f43f719255334d008a790ef674e2e72c288ac58020000000000001976a914b314d095b18e474e6a33db4f0db80115ae00466688ac00000000", "vin": [{"sequence": 4294967295, "scriptSig": {"hex": "473044022008c8d6190bfbbcf051aced2e681bf8eda81feab4ae192b641e6dfdfc2adbc56c02206c0a14c7175ee211cbce923790c833fe6a487d4773ffa59959e9e4523e8280d401210362a65d774aed68b8f4ab55851d730f9baa443888a6515b92f6ddfb7d17516aa6", "asm": "3044022008c8d6190bfbbcf051aced2e681bf8eda81feab4ae192b641e6dfdfc2adbc56c02206c0a14c7175ee211cbce923790c833fe6a487d4773ffa59959e9e4523e8280d4[ALL] 0362a65d774aed68b8f4ab55851d730f9baa443888a6515b92f6ddfb7d17516aa6"}, "vout": 1, "txid": "a026e29d035e584c0a5f8677cf31e35e338c78dc259f676a0129089413cbee14"}, {"sequence": 4294967295, "scriptSig": {"hex": "47304402206db64242d5fd01bc223838d2e3a5b23a44649e93f89ee755a943eb9d5ac2743f022033fc282aa9e83ffc095ae0f49f91ad34a601e16438e65e84e69daae51806f68b01210361f26bf6731f956d2e62ee98a7a9fc6f0d36efdc9e6916973e7986a5ba9d19c4", "asm": "304402206db64242d5fd01bc223838d2e3a5b23a44649e93f89ee755a943eb9d5ac2743f022033fc282aa9e83ffc095ae0f49f91ad34a601e16438e65e84e69daae51806f68b[ALL] 0361f26bf6731f956d2e62ee98a7a9fc6f0d36efdc9e6916973e7986a5ba9d19c4"}, "vout": 2, "txid": "5d241f1ae8b903b6c3fb4b9200b1f9db8c858bb1e8aaa135cc5948be45f3423e"}], "txid": "73d57c0b36c0cd646266f3edbaaeb309c40014c9da139d5687c7fdfbbabda304", "blocktime": 1537870928, "version": 1, "confirmations": 11512, "time": 1537870928, "locktime": 0, "vsize": 437, "size": 437}