{"hash": "73d8c08362fe29424c80e0b109d23048bfd763ae4fcafe9cbb108ca758b192b4", "blockhash": "0000000000000000000dcc0f55137456b1a82d3642486a52398922ac4d620174", "vout": [{"scriptPubKey": {"type": "nulldata", "hex": "6a146f6d6e69000000000000001f000000174ca30580", "asm": "OP_RETURN 6f6d6e69000000000000001f000000174ca30580"}, "value": 0.0, "n": 0}, {"scriptPubKey": {"reqSigs": 1, "hex": "76a9143a4219672ba6aa415ff26aff75e2f3ca54767e6c88ac", "addresses": ["16K3NnK1M9WfesgVNEpefKkkyev6AJLScv"], "asm": "OP_DUP OP_HASH160 3a4219672ba6aa415ff26aff75e2f3ca54767e6c OP_EQUALVERIFY OP_CHECKSIG", "type": "pubkeyhash"}, "value": 5.46e-06, "n": 1}, {"scriptPubKey": {"reqSigs": 1, "hex": "76a914a25dec4d0011064ef106a983c39c7a540699f22088ac", "addresses": ["1FoWyxwPXuj4C6abqwhjDWdz6D4PZgYRjA"], "asm": "OP_DUP OP_HASH160 a25dec4d0011064ef106a983c39c7a540699f220 OP_EQUALVERIFY OP_CHECKSIG", "type": "pubkeyhash"}, "value": 0.0198083, "n": 2}], "hex": "01000000015391acf2326c0d24959ecbf59768d3ab941d3d329fed9c34016bdcaa40bd6b76010000006b483045022100f030c53232412debf17d916df7c03c3c07951731ac920cc2f9fd0b042b3ee17902207f195de2493d5313cec5dcab7f74b80c90f0822cffad3191d8fa4571fb203189012103da5bac7b36d5aa38f531c6b9601e21bb598a4b6716ebed38b009a55dabde9440feffffff030000000000000000166a146f6d6e69000000000000001f000000174ca3058022020000000000001976a9143a4219672ba6aa415ff26aff75e2f3ca54767e6c88ac9e391e00000000001976a914a25dec4d0011064ef106a983c39c7a540699f22088ac0c490800", "vin": [{"sequence": 4294967294, "scriptSig": {"hex": "483045022100f030c53232412debf17d916df7c03c3c07951731ac920cc2f9fd0b042b3ee17902207f195de2493d5313cec5dcab7f74b80c90f0822cffad3191d8fa4571fb203189012103da5bac7b36d5aa38f531c6b9601e21bb598a4b6716ebed38b009a55dabde9440", "asm": "3045022100f030c53232412debf17d916df7c03c3c07951731ac920cc2f9fd0b042b3ee17902207f195de2493d5313cec5dcab7f74b80c90f0822cffad3191d8fa4571fb203189[ALL] 03da5bac7b36d5aa38f531c6b9601e21bb598a4b6716ebed38b009a55dabde9440"}, "vout": 1, "txid": "766bbd40aadc6b01349ced9f323d1d94abd36897f5cb9e95240d6c32f2ac9153"}], "txid": "73d8c08362fe29424c80e0b109d23048bfd763ae4fcafe9cbb108ca758b192b4", "blocktime": 1537870268, "version": 1, "confirmations": 11516, "time": 1537870268, "locktime": 542988, "vsize": 257, "size": 257}