{"hash": "73dcc66d7ee860ad8349811186e88d82c7f82b99ef4ea98cc6848bd13917c90a", "blockhash": "0000000000000000000baef3f32e3676a92c3b2e5da21b426e4f302fc371ce76", "vout": [{"scriptPubKey": {"reqSigs": 1, "hex": "a91484abc69833745d1321ac0c23a321f7eed4ba0c6987", "addresses": ["3DnWu47Gm12LXh6m3XesBtcRhLYtYoWK9a"], "asm": "OP_HASH160 84abc69833745d1321ac0c23a321f7eed4ba0c69 OP_EQUAL", "type": "scripthash"}, "value": 0.99776477, "n": 0}], "hex": "0100000028d17d2e158ab0786a1a22bc7a69cb6af3d602f792441d47aff0328976bf3d8b08000000006a47304402201fafa732c5d6f977d5f9f9dc04f8e0ff6e80930a512b37003b3329865867705502207d378766662934d812890031cbc7f062c2d036963ea3632dc07ee46b08b5bf79012102169e9f8b8ce2f8a5c40ebd158c5c265f54026fb541a6b33f3b06235dacaea8a5ffffffff822758a8379969e5f6b555b8b3e79ac5e0c341b08fefd87586f7f204d081fd0f000000006a473044022030a9b811f39355a890081676daf4cfdb61e8385c757d1b6a8e1d374f856e0aee02203f4bd62870dce8e6e8ca5034c5df5218cabba77fcbcab94390e5526f7269f5db012102cdc9bd63abc8b3b9d27ce8c9f126ca3a8dab91aba9377b0fa646b99b88eb9abcffffffff97e04f5060485e305179c549b5aee228ddcf8f0e0f41d08b61300b9a5b635417000000006b483045022100ee2e986a7037ae1111812766d318ff07e8893fdece6f6507463381430630cc1002206f5bbd3dfc62b89c4c7a9abdf3a5618fc8d303d9b617a0522020c1ce0a1a28fd012103b514ca488f6896db4085dbc84f12d8940b543da7f20fa804004287c002379489ffffffff010966bf661b5e9dbd3b5d9ab7258f07d6cc801c9c770837892e505dca6a8723000000006b483045022100d6ed83b19536f81894ce501ad4b7c254e9fb839f5b8a3fb6921419fc207fea2b022050af8d6c73c30bda0c0820ee1a908fb5ea67c4282484dbf0bfe275ab63dc781c012102ea23fe1cd0a48c9cdbfa1a5d9def75ed07629cb3d793469651d2bb6f389baef0ffffffffe9403c2b1cc5ef6f4158f64057dcc9354561bdadc3aebde9bc35547079c54d28000000006b483045022100c9ac1b1ccbb54a238deb41537b6173b1df627b1549d72b7b36b9aada3fd06ea9022009d68a7f61667d13dba8145dc053351b69600854bfa584f4dbefb3e536e1f04d0121025a0f734e99909ff2a3e57165000dfccc90a9070178d2b18166f9623657711744fffffffffc776ca2bf763d7d7e955e102ce916060401227bc6e2d1777614781df6dcd237000000006a473044022018b2d5eef7271240ed5fde3870a143a719290659098da0be5f4be7fb9455485702207dab90c2b8e19645616266c598c0e9dce9f7888c91a09f7fd89f1887b1816677012103f01df292008638910b03baefa0b7de7e59c7c3275ace2e231d60084047679507ffffffff645df3cf7360bef3eb5c46a508482304c207423b6f841ac61551e1e965f17b41000000006a473044022006d2623c43e5dd956222f10ddeaa3a55499a2322ad33248dacb4b215b440820b02200b071039fee2825aa693e318fb01b377b551445a12ea16c1cca670821468479801210323599d730703873d907d14e3b1e08aca03af0583b6b510e85d4abcd59d4ef177ffffffffcbf7117647aae1178f8c69469097fc412cf66d4a6f61b2cc7f1e8ca469034744000000006b483045022100eb83020db91571a2345695cc28abc369403adcc542aa56bad31a0089590d10d202204d7929b3422066874bf7e1b1a045c3a3792f9c4c70f9b49c608d7864e69b064d012103e4f91417be70154e545a0d48e786373cc039d2b5f7a29ccfec3a1c5be02790afffffffff1b179ae5119c6c2ac0cfbf770e1b8a1dca8eda6ca9ddcfc9380b0496c352d947000000006a47304402205f743ad75457773c49fd7eb3d4eb049247d26251c12050d8ca9fc2ea3bbb84a90220261c3506f76bb5861cd71ca0779b16309deaee9c1e360654d90f56375bd0ef7c01210346bb064355b3b90c32783400580ae092f35ee285a0950e30fe490e526923861effffffff92ccb7da91d51623eea4824c10538bf9c4ceaae8529a504b8742f3265ed0ec49000000006b4830450221009fd39f75701b6554fc05144145d4a31643c2157da54512f2bc5f2a449e40d02602203a40f51623458fc4230f58a1e67c22d97968838a1b2f25696ac77550b09a27b9012103357f9e736b84e496af0cf0cd42e931f40923af4e7f91a65c5cc48808b074899dffffffff6d88536e3aafa1e4bf331155bd1c51b0704ca59d22468bb7afffc73b64c5954a000000006b483045022100a925cc3f4e1f751f8f61959a566c11cd29651131b20bb6e18d4238dc7c1bd3f5022007431bc6f01b2ea31659b2d03d248164c32ba5de506aa1426b7d46cbe5cc53900121029a609327e89f66fb7e94c8e778e7fce0cd7a761f462a87e1c14e1077a0a91a39ffffffffcf97c16293ae17ad2e7f6edccd0422589997eb5a3d1fa3225dbef8ac74e41e4b000000006a47304402205ca7c0c578a67753eb602a779c3a3999e5532dc3dc14fe845c5764971381735802200d5c57a9f07f59eaf5be140f8a0378e82553661de81ce6cc6d0ecb73f16f1918012103a3463f20318b2682be01a22c9cae312e241142b0ebc4872fc9a90879ff6dedceffffffff6b86065df6c1d0e9d68bafb3decc463e7c54b9e8fb5b2d8bd25479475b67f84b000000006a473044022079daa81bf1f5cfdaf4824a152af346f544b8222497269e449427fb5c8236cf690220008d1f58522cc4f2bbbdc411051c568d0e601104609cdcd960363c1ce4d2149e012102b2c7927277a9a70c768464b59c5063ca38bc06a0605a1ed98a25e57f886817a3ffffffff9395c3eb0a7c6bd96bea6715b98c4c43509ca718c915803cf7b771c64fdc2d4c000000006b483045022100a468ec1f5124c13f7f8a9cead6e565875ce0eb89af19863942fc44df4dfe0e360220084fea29ea16376766f8cd2a9b3aca0f796bedfcd1cb558741b07361128ffa9b012103e4f1d09035eb4896ba61a0505c6d640ec0eca5c8e7414e336e874626debd50a9ffffffffd87efdc212ece80faa6a9289f4ca414316386ca7316c9f0f4df3f75807fb314c000000006b4830450221009a321c8b906225b649ac8970035f8762f35636f8715ca05d2d373c4111109e4b02206ed911d4bcfe63c07c4a53d28ee04e513a61ddca192b6b6b1aa41ae67b02805f0121032d3ecc8f0d157e9f1c8a2b7720a9541b81f2c929aabcd08141286ff27b4a7248fffffffffc03012e78454f907c24ac4bd8c1a0e47cee08843c81ef2e9dc5f7af3e8e1559000000006a473044022066173f2d368537a975eb79c31f5ec797d467886d9c91bedfe8cd46862538b0c702200856e8530aaf2180a9e7c409052457f9351a875fe1b43aec2f1af0a5e05b33ec0121036bed5e0af4f35bb595856316f2b79e24b922a6d0f249170d22fdaf5d9513d538ffffffff1a86d4bbc178af6b807145eaa3205a79287e4846621dbc9a6310ec404b527766000000006b48304502210086c9eebb95917e63b9f52838e66e653d25b6d1c2a1658c1b511c2e72a73974cf0220164581a1c78e5010aff80b7742ab43f6a33a0f6201dd9dfa3d52f54858d6b8e40121022c6572d3850baaeae99853b0ba7763345348125d704e1920deb9b5ff8e3ebe9cffffffff534a893d32d4ef72d9fcfc61def3784b07bca4bc615d45caa37f2dbcd0f71973000000006a473044022024e50646043de4996d4ba519073d38b7a7e050a01d885b3c8fe11fb68c922b860220121f2dd4e8c71790ae212b9cee72cb966f0249da8028217476dd670b59d78e94012103a4ad56571cb0e7a46806c6120a3f6217f578a2cfd0008a4aee34978b49fb7e48fffffffffaf340a7102cf622ac1b86e2ed4df7b5a225bf6ef1bad08db11fef446bd49176000000006a473044022064182d37bc184dd8ce528a8703cdc68d623c98e25a7d8852106e9a150c77d8d102200093880623762a4b047c7889eba58dc76168fab71f98575a8d1fae72a15d61be0121031b3e5ae46985daca694eb275b777b08b43f64ac3e1b3681a79095ebd51702888ffffffff223bb4ccc392ecca3323ee67757588a89417e7e95e7133d4ec018699b10a9a7c000000006b483045022100c610fcffe4b9584222d6b709bdaf1cc2f29c8b622a7fd06ccc104173331e0dc202202c3b8a11c2f46afe923ead8a95ed570caeea7a56878cd8313eb0abeae066312f0121033dc6dce2fe7895802b17f5bcb99ce171bcbd3909bbd4eba14b6139ac36d2fadeffffffff1f90045f7cd19a3f461e0a445f11f0543e66b92fa6c31985a7fdf505e9dce881000000006a47304402201ab59d0a9bf98e1560528d2429f0b9d1d46e9dc71f96d5f7d426ec3576a854f30220467759de9db96af3fe5040c60dcfe218c1356f2bebfbb6a6a2afe8c962941589012102a0f3a2f3cba2c7826b3a6e72f31a3c4d0f421b2c8585598bd388b9ebe43a46b5ffffffff50a7dbb060f9d7809ba169b2c2757248c1d305edf3c3901eca751f7ccb2d5584000000006a47304402201b4fe5f1b9a6b527ea0a43a3a1d57775b657d2a4b7a481652a66ed7a5b86728402202e9bebd60751b6bdef54e27224d261f11f4c526e124535b33a5c0be8b441df580121029abf1711d1c50eb8cf7bd609aa07eff32490c0c2a4a645843ff868e570c5c13affffffff667a82f2c0654d40494abbf9c3b50f60562256fdf2790f17585c233447902f85000000006a473044022062d54b4337e84a8ea085a5f9a267e938e64e3d4bef8fcb72783558a599d5f788022011cadcb553612c41ec301a805d67e5292c2a7c4e563e51c3efd5db0e92c5c500012103c84af9479852c53cb24dea76325e038b7568ba7dc6f2e64566cfa6ea585dfddeffffffff6884bb95bd6384faab384a19f9c4ae14b0506ad1796e0347967b1c8af2216287000000006b483045022100a22647ecac2cc357d861c98667247d5a313eb0839a6ce9c1789f21f9c98582b70220265c838102c91ef1c163bd5cd9f5b874cbaa0b814f94602809bde3ca2c5a9343012103f066ac81dc9208224cbf0fd0837136681b7098f9d21bc6ce3dcdcf20ccf4d4b8ffffffff57588a050fdba227eae31d0e93f5276f147c417ab9121203aa882d10c956638a000000006a473044022052ed3797a1d87649617af284e9b63c38290c3716b73c6a6f8a098f502c97f1880220756d892213b5955c97ee3eeb8315597c7ebf960c6fc45b15f9dee5bd0ee53a750121034401f775224eb71a5b85b975762018f1ffcde7692524085b62c78d324c8ca065ffffffff39e6ca00f603f885c569e8544a5d6e9742a9479742a6ab55614a176a43c54fad000000006b483045022100fb1556b208c485cb06f3e01432963684e4213adeb91d1c8bbb5c35a14db880c70220110822f6054e1f6b88078831bccb4df6e362a4ae935328aa3752fdb214b51aa60121033cb0d6cf305a428ef3b9b8944052adfa0ab9726207f274dc1ba62b31067e1006ffffffff1b8652a2798e2fb736160f2f6eec2320057ec52a17b5cb940f5c0ba6ed5a7bb5000000006b4830450221008145d6018c36e8d1d9f762db4bad69f571e727a25bf51c7878e869e57655876b0220389e01ed87700ecef92d75146c235a1ab1026a963d9a9012e674ae4a637fc81901210396263f62ed8996d14e3f5fbbcf6b000f6dded7caa67e3181a872d3dce285e4f5ffffffff01bd767c65d1f86a4e74f7f0433bb8326041fcadbe97352979fd102270ffa2b9000000006b4830450221009149e8c71a3caa8309d4704d6b745faeb83d4f9bfb197c6d3a8deff27a824246022052008aa8947db177c0c285253441eff29d48b5589b8d12c94b915fb9817d23d4012102066ecebdf383c085e1bf23c8851c54ebe913036dc2beac2fc46b4cd6782ef05bffffffffa0e539f4c4ce7140fb541b54e08a9ec2397b4a3cec031bcac080afd60dbadcc3000000006a47304402200230a995eed2626ff9264eb75457f90b5a247cb17ada1b720677796b177fa7a802207746eb9098ee7d6498b36f5328b65c2ae41c37f0f8768387f05594465abe5f060121025dbb9322a95f7200c116e5f78f736e7072bc8d9cc651068bf48f6b9797da8dd5ffffffff1ee4b9716ad84159c21f113a2044acb3693c1933bbbce8197b30e013bd754fca000000006a47304402202212ea111d5ce2e32ecc4e2acebc346a358b7ad1363df26cd1a4e8ccccdf17b6022051c46fdc52f0924160361f4f183cc632f91e94975b1e5b7bc744a2937735c3250121035090ee4838a8ace89eb88dc896f8f43ecb6570ccf72f9286c41083eb61cff692ffffffffd2d659b2dc6cd77a6f7da640a0049faa8fdf416cf50e125f81e746efa99c5bca000000006b483045022100e9d3e054eb2578d91c9cdca4fe2b6aa766604180aa6cbdc427fb4570b3aa55680220477b0432283f72670e1f8e2f31c5595532a78453c9ff4ad83099c0ac1c60c50b0121023194b0fc3cdc7246e2c287e07a855d7ec1a430589de0f77000f205ffcc6daa30ffffffff1524f188ed271099a66cd9b55130852979d69d1b5fa5ca299b4fc7389cbdeecc000000006b4830450221009703fd5d8056518b1136b7f633cf588ee4e03ee19653fc672c48283de5f388620220425f0a183192e7df876a374818d8dc0857751ae6414fe716a75e30bdd09c8db4012103583c55d5a75bae934e18cd0ed338f9db7c9632b7440d72cf2101d7cb368bad40ffffffff824dec9522b980e8a8a7d4872dd6c9c003c35c2238f329a027c017e2dcf955d6000000006b483045022100d0ccd2bddd20df4d4937a36048115a42d5953df7921ec1326154694cc22c8a22022008de81766ffb9557dd2dcf9cd4d56d09f7723106c90f198b37cd3d93718e9b210121038752e00a1ad66ab09b4288a169419ecd4a2155cb71572f370620d1fb7f2b15a8ffffffff8367b5608f727b81b87f65faca67a2713f868e637878f4061756af9305e502e1000000006a4730440220228b70b3b8bb2a221bf57a9798ea213404bfbc751b132cddd984ee3be5dfe89402201830bf8c1774c47f235e39c251841a0c9f652a4874b6d23d43f7f67cdfc47ac801210252ca5a67025a668706ce560e774279fa258bf2da100807b8fcbf89a1ab14fe32ffffffffc366ad340e5b4b4b0f73d0ebba568007506cedddee7c54fdd4cdcbd31e4977e1000000006b483045022100a26a64725577621f354890deae221095f6e77cf441c47aaf3d1cd6ff13027b6302201c6067f923094ab1e53e77a63c54d946571bc9b680cc827c4f978bbf2fae81030121028429b3b2b0be63159cb14a58d8e6dc0f806680c53b9509fcfc69be94ec5bd3d4ffffffff2e0fc2631b3a7026e84984db06835e77065448103785eba598c7a8f852bfcbe8000000006b483045022100a953256318e8f1b5c5c615663955e77bc4941e1f1029a22ecb2179351b5a84b50220351a5b6fdaa536d191631da90c0e85ab2e0f05426e741d51097794c0087220590121028d94a8d0abe17801d38f29d36a37e672bc1c61e9856bbf5083affbf5afa077f6ffffffff5a582b21ef5c8057c7977fe87f511c608d65de6a75d3c64b151d6e663d9faaf1000000006a4730440220477143ce5c4343d02a373ca75825ad824cb155fa64e0e23421bccf183f0df3cd022043c21ce718ef33d83e300c8b85cb2e09467d071690ae1f2676adc536127c0d3d0121025ff51a157d2efa1c610897ba8b7bfe410179a3a0422abec44453874f052ca93bffffffff0240f87b300b7f77780d261a365a0ab5bca071929b5b5faaeeb91b99a79c9cf4000000006a473044022009c53ad6420e2fcc0a169a00f03656f317043237fc76fc7a12180c134bceab8f02204cb98e8f4c74463780427cc081a199f49110b936541aaa737c5919b9f897842e0121021a35f31422519f3bef95da555693fe0e65f6ab2af5ec10d5e113179a6b12f17dffffffff6b0168d3f214ceb60e28e735157bac2afd9941c4ea32cc9d446af7b495c342fa000000006a4730440220182c40a540f5f1474b2f34b0494cd54e6a523d064da04ffc900d621dff2e679702206b13383cd570b8fd94b3c44d7266daad9afe2908e5ad4f36cc41f3372c7b34bf0121033a70235ad7379a83ef271686c9f2383e80563e13c64d9e564f2d36a6e1345259ffffffff5c10f1262a1e818e01e1dbb602daf5f79664c6691fb3b4efcb5c20a0095062fc000000006b4830450221009729a176de33e36eec24c29de469805a8cc5011d6ddf1be13588bc93d770907e02206983864ec6c8e8b21934d3ef3908e13c93525a350ad5570ee12ab86291bcb4630121021ed26af1d5b462ebb5095f41d39b17047908210d8c26121aaa75aee8b83febf2ffffffff01dd77f2050000000017a91484abc69833745d1321ac0c23a321f7eed4ba0c698700000000", "vin": [{"sequence": 4294967295, "scriptSig": {"hex": "47304402201fafa732c5d6f977d5f9f9dc04f8e0ff6e80930a512b37003b3329865867705502207d378766662934d812890031cbc7f062c2d036963ea3632dc07ee46b08b5bf79012102169e9f8b8ce2f8a5c40ebd158c5c265f54026fb541a6b33f3b06235dacaea8a5", "asm": "304402201fafa732c5d6f977d5f9f9dc04f8e0ff6e80930a512b37003b3329865867705502207d378766662934d812890031cbc7f062c2d036963ea3632dc07ee46b08b5bf79[ALL] 02169e9f8b8ce2f8a5c40ebd158c5c265f54026fb541a6b33f3b06235dacaea8a5"}, "vout": 0, "txid": "088b3dbf768932f0af471d4492f702d6f36acb697abc221a6a78b08a152e7dd1"}, {"sequence": 4294967295, "scriptSig": {"hex": "473044022030a9b811f39355a890081676daf4cfdb61e8385c757d1b6a8e1d374f856e0aee02203f4bd62870dce8e6e8ca5034c5df5218cabba77fcbcab94390e5526f7269f5db012102cdc9bd63abc8b3b9d27ce8c9f126ca3a8dab91aba9377b0fa646b99b88eb9abc", "asm": "3044022030a9b811f39355a890081676daf4cfdb61e8385c757d1b6a8e1d374f856e0aee02203f4bd62870dce8e6e8ca5034c5df5218cabba77fcbcab94390e5526f7269f5db[ALL] 02cdc9bd63abc8b3b9d27ce8c9f126ca3a8dab91aba9377b0fa646b99b88eb9abc"}, "vout": 0, "txid": "0ffd81d004f2f78675d8ef8fb041c3e0c59ae7b3b855b5f6e5699937a8582782"}, {"sequence": 4294967295, "scriptSig": {"hex": "483045022100ee2e986a7037ae1111812766d318ff07e8893fdece6f6507463381430630cc1002206f5bbd3dfc62b89c4c7a9abdf3a5618fc8d303d9b617a0522020c1ce0a1a28fd012103b514ca488f6896db4085dbc84f12d8940b543da7f20fa804004287c002379489", "asm": "3045022100ee2e986a7037ae1111812766d318ff07e8893fdece6f6507463381430630cc1002206f5bbd3dfc62b89c4c7a9abdf3a5618fc8d303d9b617a0522020c1ce0a1a28fd[ALL] 03b514ca488f6896db4085dbc84f12d8940b543da7f20fa804004287c002379489"}, "vout": 0, "txid": "1754635b9a0b30618bd0410f0e8fcfdd28e2aeb549c57951305e4860504fe097"}, {"sequence": 4294967295, "scriptSig": {"hex": "483045022100d6ed83b19536f81894ce501ad4b7c254e9fb839f5b8a3fb6921419fc207fea2b022050af8d6c73c30bda0c0820ee1a908fb5ea67c4282484dbf0bfe275ab63dc781c012102ea23fe1cd0a48c9cdbfa1a5d9def75ed07629cb3d793469651d2bb6f389baef0", "asm": "3045022100d6ed83b19536f81894ce501ad4b7c254e9fb839f5b8a3fb6921419fc207fea2b022050af8d6c73c30bda0c0820ee1a908fb5ea67c4282484dbf0bfe275ab63dc781c[ALL] 02ea23fe1cd0a48c9cdbfa1a5d9def75ed07629cb3d793469651d2bb6f389baef0"}, "vout": 0, "txid": "23876aca5d502e893708779c1c80ccd6078f25b79a5d3bbd9d5e1b66bf660901"}, {"sequence": 4294967295, "scriptSig": {"hex": "483045022100c9ac1b1ccbb54a238deb41537b6173b1df627b1549d72b7b36b9aada3fd06ea9022009d68a7f61667d13dba8145dc053351b69600854bfa584f4dbefb3e536e1f04d0121025a0f734e99909ff2a3e57165000dfccc90a9070178d2b18166f9623657711744", "asm": "3045022100c9ac1b1ccbb54a238deb41537b6173b1df627b1549d72b7b36b9aada3fd06ea9022009d68a7f61667d13dba8145dc053351b69600854bfa584f4dbefb3e536e1f04d[ALL] 025a0f734e99909ff2a3e57165000dfccc90a9070178d2b18166f9623657711744"}, "vout": 0, "txid": "284dc579705435bce9bdaec3adbd614535c9dc5740f658416fefc51c2b3c40e9"}, {"sequence": 4294967295, "scriptSig": {"hex": "473044022018b2d5eef7271240ed5fde3870a143a719290659098da0be5f4be7fb9455485702207dab90c2b8e19645616266c598c0e9dce9f7888c91a09f7fd89f1887b1816677012103f01df292008638910b03baefa0b7de7e59c7c3275ace2e231d60084047679507", "asm": "3044022018b2d5eef7271240ed5fde3870a143a719290659098da0be5f4be7fb9455485702207dab90c2b8e19645616266c598c0e9dce9f7888c91a09f7fd89f1887b1816677[ALL] 03f01df292008638910b03baefa0b7de7e59c7c3275ace2e231d60084047679507"}, "vout": 0, "txid": "37d2dcf61d78147677d1e2c67b2201040616e92c105e957e7d3d76bfa26c77fc"}, {"sequence": 4294967295, "scriptSig": {"hex": "473044022006d2623c43e5dd956222f10ddeaa3a55499a2322ad33248dacb4b215b440820b02200b071039fee2825aa693e318fb01b377b551445a12ea16c1cca670821468479801210323599d730703873d907d14e3b1e08aca03af0583b6b510e85d4abcd59d4ef177", "asm": "3044022006d2623c43e5dd956222f10ddeaa3a55499a2322ad33248dacb4b215b440820b02200b071039fee2825aa693e318fb01b377b551445a12ea16c1cca6708214684798[ALL] 0323599d730703873d907d14e3b1e08aca03af0583b6b510e85d4abcd59d4ef177"}, "vout": 0, "txid": "417bf165e9e15115c61a846f3b4207c204234808a5465cebf3be6073cff35d64"}, {"sequence": 4294967295, "scriptSig": {"hex": "483045022100eb83020db91571a2345695cc28abc369403adcc542aa56bad31a0089590d10d202204d7929b3422066874bf7e1b1a045c3a3792f9c4c70f9b49c608d7864e69b064d012103e4f91417be70154e545a0d48e786373cc039d2b5f7a29ccfec3a1c5be02790af", "asm": "3045022100eb83020db91571a2345695cc28abc369403adcc542aa56bad31a0089590d10d202204d7929b3422066874bf7e1b1a045c3a3792f9c4c70f9b49c608d7864e69b064d[ALL] 03e4f91417be70154e545a0d48e786373cc039d2b5f7a29ccfec3a1c5be02790af"}, "vout": 0, "txid": "44470369a48c1e7fccb2616f4a6df62c41fc979046698c8f17e1aa477611f7cb"}, {"sequence": 4294967295, "scriptSig": {"hex": "47304402205f743ad75457773c49fd7eb3d4eb049247d26251c12050d8ca9fc2ea3bbb84a90220261c3506f76bb5861cd71ca0779b16309deaee9c1e360654d90f56375bd0ef7c01210346bb064355b3b90c32783400580ae092f35ee285a0950e30fe490e526923861e", "asm": "304402205f743ad75457773c49fd7eb3d4eb049247d26251c12050d8ca9fc2ea3bbb84a90220261c3506f76bb5861cd71ca0779b16309deaee9c1e360654d90f56375bd0ef7c[ALL] 0346bb064355b3b90c32783400580ae092f35ee285a0950e30fe490e526923861e"}, "vout": 0, "txid": "47d952c396040b38c9cfdda96cda8eca1d8a1b0e77bfcfc02a6c9c11e59a171b"}, {"sequence": 4294967295, "scriptSig": {"hex": "4830450221009fd39f75701b6554fc05144145d4a31643c2157da54512f2bc5f2a449e40d02602203a40f51623458fc4230f58a1e67c22d97968838a1b2f25696ac77550b09a27b9012103357f9e736b84e496af0cf0cd42e931f40923af4e7f91a65c5cc48808b074899d", "asm": "30450221009fd39f75701b6554fc05144145d4a31643c2157da54512f2bc5f2a449e40d02602203a40f51623458fc4230f58a1e67c22d97968838a1b2f25696ac77550b09a27b9[ALL] 03357f9e736b84e496af0cf0cd42e931f40923af4e7f91a65c5cc48808b074899d"}, "vout": 0, "txid": "49ecd05e26f342874b509a52e8aacec4f98b53104c82a4ee2316d591dab7cc92"}, {"sequence": 4294967295, "scriptSig": {"hex": "483045022100a925cc3f4e1f751f8f61959a566c11cd29651131b20bb6e18d4238dc7c1bd3f5022007431bc6f01b2ea31659b2d03d248164c32ba5de506aa1426b7d46cbe5cc53900121029a609327e89f66fb7e94c8e778e7fce0cd7a761f462a87e1c14e1077a0a91a39", "asm": "3045022100a925cc3f4e1f751f8f61959a566c11cd29651131b20bb6e18d4238dc7c1bd3f5022007431bc6f01b2ea31659b2d03d248164c32ba5de506aa1426b7d46cbe5cc5390[ALL] 029a609327e89f66fb7e94c8e778e7fce0cd7a761f462a87e1c14e1077a0a91a39"}, "vout": 0, "txid": "4a95c5643bc7ffafb78b46229da54c70b0511cbd551133bfe4a1af3a6e53886d"}, {"sequence": 4294967295, "scriptSig": {"hex": "47304402205ca7c0c578a67753eb602a779c3a3999e5532dc3dc14fe845c5764971381735802200d5c57a9f07f59eaf5be140f8a0378e82553661de81ce6cc6d0ecb73f16f1918012103a3463f20318b2682be01a22c9cae312e241142b0ebc4872fc9a90879ff6dedce", "asm": "304402205ca7c0c578a67753eb602a779c3a3999e5532dc3dc14fe845c5764971381735802200d5c57a9f07f59eaf5be140f8a0378e82553661de81ce6cc6d0ecb73f16f1918[ALL] 03a3463f20318b2682be01a22c9cae312e241142b0ebc4872fc9a90879ff6dedce"}, "vout": 0, "txid": "4b1ee474acf8be5d22a31f3d5aeb9799582204cddc6e7f2ead17ae9362c197cf"}, {"sequence": 4294967295, "scriptSig": {"hex": "473044022079daa81bf1f5cfdaf4824a152af346f544b8222497269e449427fb5c8236cf690220008d1f58522cc4f2bbbdc411051c568d0e601104609cdcd960363c1ce4d2149e012102b2c7927277a9a70c768464b59c5063ca38bc06a0605a1ed98a25e57f886817a3", "asm": "3044022079daa81bf1f5cfdaf4824a152af346f544b8222497269e449427fb5c8236cf690220008d1f58522cc4f2bbbdc411051c568d0e601104609cdcd960363c1ce4d2149e[ALL] 02b2c7927277a9a70c768464b59c5063ca38bc06a0605a1ed98a25e57f886817a3"}, "vout": 0, "txid": "4bf8675b477954d28b2d5bfbe8b9547c3e46ccdeb3af8bd6e9d0c1f65d06866b"}, {"sequence": 4294967295, "scriptSig": {"hex": "483045022100a468ec1f5124c13f7f8a9cead6e565875ce0eb89af19863942fc44df4dfe0e360220084fea29ea16376766f8cd2a9b3aca0f796bedfcd1cb558741b07361128ffa9b012103e4f1d09035eb4896ba61a0505c6d640ec0eca5c8e7414e336e874626debd50a9", "asm": "3045022100a468ec1f5124c13f7f8a9cead6e565875ce0eb89af19863942fc44df4dfe0e360220084fea29ea16376766f8cd2a9b3aca0f796bedfcd1cb558741b07361128ffa9b[ALL] 03e4f1d09035eb4896ba61a0505c6d640ec0eca5c8e7414e336e874626debd50a9"}, "vout": 0, "txid": "4c2ddc4fc671b7f73c8015c918a79c50434c8cb91567ea6bd96b7c0aebc39593"}, {"sequence": 4294967295, "scriptSig": {"hex": "4830450221009a321c8b906225b649ac8970035f8762f35636f8715ca05d2d373c4111109e4b02206ed911d4bcfe63c07c4a53d28ee04e513a61ddca192b6b6b1aa41ae67b02805f0121032d3ecc8f0d157e9f1c8a2b7720a9541b81f2c929aabcd08141286ff27b4a7248", "asm": "30450221009a321c8b906225b649ac8970035f8762f35636f8715ca05d2d373c4111109e4b02206ed911d4bcfe63c07c4a53d28ee04e513a61ddca192b6b6b1aa41ae67b02805f[ALL] 032d3ecc8f0d157e9f1c8a2b7720a9541b81f2c929aabcd08141286ff27b4a7248"}, "vout": 0, "txid": "4c31fb0758f7f34d0f9f6c31a76c38164341caf489926aaa0fe8ec12c2fd7ed8"}, {"sequence": 4294967295, "scriptSig": {"hex": "473044022066173f2d368537a975eb79c31f5ec797d467886d9c91bedfe8cd46862538b0c702200856e8530aaf2180a9e7c409052457f9351a875fe1b43aec2f1af0a5e05b33ec0121036bed5e0af4f35bb595856316f2b79e24b922a6d0f249170d22fdaf5d9513d538", "asm": "3044022066173f2d368537a975eb79c31f5ec797d467886d9c91bedfe8cd46862538b0c702200856e8530aaf2180a9e7c409052457f9351a875fe1b43aec2f1af0a5e05b33ec[ALL] 036bed5e0af4f35bb595856316f2b79e24b922a6d0f249170d22fdaf5d9513d538"}, "vout": 0, "txid": "59158e3eaff7c59d2eef813c8408ee7ce4a0c1d84bac247c904f45782e0103fc"}, {"sequence": 4294967295, "scriptSig": {"hex": "48304502210086c9eebb95917e63b9f52838e66e653d25b6d1c2a1658c1b511c2e72a73974cf0220164581a1c78e5010aff80b7742ab43f6a33a0f6201dd9dfa3d52f54858d6b8e40121022c6572d3850baaeae99853b0ba7763345348125d704e1920deb9b5ff8e3ebe9c", "asm": "304502210086c9eebb95917e63b9f52838e66e653d25b6d1c2a1658c1b511c2e72a73974cf0220164581a1c78e5010aff80b7742ab43f6a33a0f6201dd9dfa3d52f54858d6b8e4[ALL] 022c6572d3850baaeae99853b0ba7763345348125d704e1920deb9b5ff8e3ebe9c"}, "vout": 0, "txid": "6677524b40ec10639abc1d6246487e28795a20a3ea4571806baf78c1bbd4861a"}, {"sequence": 4294967295, "scriptSig": {"hex": "473044022024e50646043de4996d4ba519073d38b7a7e050a01d885b3c8fe11fb68c922b860220121f2dd4e8c71790ae212b9cee72cb966f0249da8028217476dd670b59d78e94012103a4ad56571cb0e7a46806c6120a3f6217f578a2cfd0008a4aee34978b49fb7e48", "asm": "3044022024e50646043de4996d4ba519073d38b7a7e050a01d885b3c8fe11fb68c922b860220121f2dd4e8c71790ae212b9cee72cb966f0249da8028217476dd670b59d78e94[ALL] 03a4ad56571cb0e7a46806c6120a3f6217f578a2cfd0008a4aee34978b49fb7e48"}, "vout": 0, "txid": "7319f7d0bc2d7fa3ca455d61bca4bc074b78f3de61fcfcd972efd4323d894a53"}, {"sequence": 4294967295, "scriptSig": {"hex": "473044022064182d37bc184dd8ce528a8703cdc68d623c98e25a7d8852106e9a150c77d8d102200093880623762a4b047c7889eba58dc76168fab71f98575a8d1fae72a15d61be0121031b3e5ae46985daca694eb275b777b08b43f64ac3e1b3681a79095ebd51702888", "asm": "3044022064182d37bc184dd8ce528a8703cdc68d623c98e25a7d8852106e9a150c77d8d102200093880623762a4b047c7889eba58dc76168fab71f98575a8d1fae72a15d61be[ALL] 031b3e5ae46985daca694eb275b777b08b43f64ac3e1b3681a79095ebd51702888"}, "vout": 0, "txid": "7691d46b44ef1fb18dd0baf16ebf25a2b5f74dede2861bac22f62c10a740f3fa"}, {"sequence": 4294967295, "scriptSig": {"hex": "483045022100c610fcffe4b9584222d6b709bdaf1cc2f29c8b622a7fd06ccc104173331e0dc202202c3b8a11c2f46afe923ead8a95ed570caeea7a56878cd8313eb0abeae066312f0121033dc6dce2fe7895802b17f5bcb99ce171bcbd3909bbd4eba14b6139ac36d2fade", "asm": "3045022100c610fcffe4b9584222d6b709bdaf1cc2f29c8b622a7fd06ccc104173331e0dc202202c3b8a11c2f46afe923ead8a95ed570caeea7a56878cd8313eb0abeae066312f[ALL] 033dc6dce2fe7895802b17f5bcb99ce171bcbd3909bbd4eba14b6139ac36d2fade"}, "vout": 0, "txid": "7c9a0ab1998601ecd433715ee9e71794a888757567ee2333caec92c3ccb43b22"}, {"sequence": 4294967295, "scriptSig": {"hex": "47304402201ab59d0a9bf98e1560528d2429f0b9d1d46e9dc71f96d5f7d426ec3576a854f30220467759de9db96af3fe5040c60dcfe218c1356f2bebfbb6a6a2afe8c962941589012102a0f3a2f3cba2c7826b3a6e72f31a3c4d0f421b2c8585598bd388b9ebe43a46b5", "asm": "304402201ab59d0a9bf98e1560528d2429f0b9d1d46e9dc71f96d5f7d426ec3576a854f30220467759de9db96af3fe5040c60dcfe218c1356f2bebfbb6a6a2afe8c962941589[ALL] 02a0f3a2f3cba2c7826b3a6e72f31a3c4d0f421b2c8585598bd388b9ebe43a46b5"}, "vout": 0, "txid": "81e8dce905f5fda78519c3a62fb9663e54f0115f440a1e463f9ad17c5f04901f"}, {"sequence": 4294967295, "scriptSig": {"hex": "47304402201b4fe5f1b9a6b527ea0a43a3a1d57775b657d2a4b7a481652a66ed7a5b86728402202e9bebd60751b6bdef54e27224d261f11f4c526e124535b33a5c0be8b441df580121029abf1711d1c50eb8cf7bd609aa07eff32490c0c2a4a645843ff868e570c5c13a", "asm": "304402201b4fe5f1b9a6b527ea0a43a3a1d57775b657d2a4b7a481652a66ed7a5b86728402202e9bebd60751b6bdef54e27224d261f11f4c526e124535b33a5c0be8b441df58[ALL] 029abf1711d1c50eb8cf7bd609aa07eff32490c0c2a4a645843ff868e570c5c13a"}, "vout": 0, "txid": "84552dcb7c1f75ca1e90c3f3ed05d3c1487275c2b269a19b80d7f960b0dba750"}, {"sequence": 4294967295, "scriptSig": {"hex": "473044022062d54b4337e84a8ea085a5f9a267e938e64e3d4bef8fcb72783558a599d5f788022011cadcb553612c41ec301a805d67e5292c2a7c4e563e51c3efd5db0e92c5c500012103c84af9479852c53cb24dea76325e038b7568ba7dc6f2e64566cfa6ea585dfdde", "asm": "3044022062d54b4337e84a8ea085a5f9a267e938e64e3d4bef8fcb72783558a599d5f788022011cadcb553612c41ec301a805d67e5292c2a7c4e563e51c3efd5db0e92c5c500[ALL] 03c84af9479852c53cb24dea76325e038b7568ba7dc6f2e64566cfa6ea585dfdde"}, "vout": 0, "txid": "852f904734235c58170f79f2fd562256600fb5c3f9bb4a49404d65c0f2827a66"}, {"sequence": 4294967295, "scriptSig": {"hex": "483045022100a22647ecac2cc357d861c98667247d5a313eb0839a6ce9c1789f21f9c98582b70220265c838102c91ef1c163bd5cd9f5b874cbaa0b814f94602809bde3ca2c5a9343012103f066ac81dc9208224cbf0fd0837136681b7098f9d21bc6ce3dcdcf20ccf4d4b8", "asm": "3045022100a22647ecac2cc357d861c98667247d5a313eb0839a6ce9c1789f21f9c98582b70220265c838102c91ef1c163bd5cd9f5b874cbaa0b814f94602809bde3ca2c5a9343[ALL] 03f066ac81dc9208224cbf0fd0837136681b7098f9d21bc6ce3dcdcf20ccf4d4b8"}, "vout": 0, "txid": "876221f28a1c7b9647036e79d16a50b014aec4f9194a38abfa8463bd95bb8468"}, {"sequence": 4294967295, "scriptSig": {"hex": "473044022052ed3797a1d87649617af284e9b63c38290c3716b73c6a6f8a098f502c97f1880220756d892213b5955c97ee3eeb8315597c7ebf960c6fc45b15f9dee5bd0ee53a750121034401f775224eb71a5b85b975762018f1ffcde7692524085b62c78d324c8ca065", "asm": "3044022052ed3797a1d87649617af284e9b63c38290c3716b73c6a6f8a098f502c97f1880220756d892213b5955c97ee3eeb8315597c7ebf960c6fc45b15f9dee5bd0ee53a75[ALL] 034401f775224eb71a5b85b975762018f1ffcde7692524085b62c78d324c8ca065"}, "vout": 0, "txid": "8a6356c9102d88aa031212b97a417c146f27f5930e1de3ea27a2db0f058a5857"}, {"sequence": 4294967295, "scriptSig": {"hex": "483045022100fb1556b208c485cb06f3e01432963684e4213adeb91d1c8bbb5c35a14db880c70220110822f6054e1f6b88078831bccb4df6e362a4ae935328aa3752fdb214b51aa60121033cb0d6cf305a428ef3b9b8944052adfa0ab9726207f274dc1ba62b31067e1006", "asm": "3045022100fb1556b208c485cb06f3e01432963684e4213adeb91d1c8bbb5c35a14db880c70220110822f6054e1f6b88078831bccb4df6e362a4ae935328aa3752fdb214b51aa6[ALL] 033cb0d6cf305a428ef3b9b8944052adfa0ab9726207f274dc1ba62b31067e1006"}, "vout": 0, "txid": "ad4fc5436a174a6155aba6429747a942976e5d4a54e869c585f803f600cae639"}, {"sequence": 4294967295, "scriptSig": {"hex": "4830450221008145d6018c36e8d1d9f762db4bad69f571e727a25bf51c7878e869e57655876b0220389e01ed87700ecef92d75146c235a1ab1026a963d9a9012e674ae4a637fc81901210396263f62ed8996d14e3f5fbbcf6b000f6dded7caa67e3181a872d3dce285e4f5", "asm": "30450221008145d6018c36e8d1d9f762db4bad69f571e727a25bf51c7878e869e57655876b0220389e01ed87700ecef92d75146c235a1ab1026a963d9a9012e674ae4a637fc819[ALL] 0396263f62ed8996d14e3f5fbbcf6b000f6dded7caa67e3181a872d3dce285e4f5"}, "vout": 0, "txid": "b57b5aeda60b5c0f94cbb5172ac57e052023ec6e2f0f1636b72f8e79a252861b"}, {"sequence": 4294967295, "scriptSig": {"hex": "4830450221009149e8c71a3caa8309d4704d6b745faeb83d4f9bfb197c6d3a8deff27a824246022052008aa8947db177c0c285253441eff29d48b5589b8d12c94b915fb9817d23d4012102066ecebdf383c085e1bf23c8851c54ebe913036dc2beac2fc46b4cd6782ef05b", "asm": "30450221009149e8c71a3caa8309d4704d6b745faeb83d4f9bfb197c6d3a8deff27a824246022052008aa8947db177c0c285253441eff29d48b5589b8d12c94b915fb9817d23d4[ALL] 02066ecebdf383c085e1bf23c8851c54ebe913036dc2beac2fc46b4cd6782ef05b"}, "vout": 0, "txid": "b9a2ff702210fd79293597beadfc416032b83b43f0f7744e6af8d1657c76bd01"}, {"sequence": 4294967295, "scriptSig": {"hex": "47304402200230a995eed2626ff9264eb75457f90b5a247cb17ada1b720677796b177fa7a802207746eb9098ee7d6498b36f5328b65c2ae41c37f0f8768387f05594465abe5f060121025dbb9322a95f7200c116e5f78f736e7072bc8d9cc651068bf48f6b9797da8dd5", "asm": "304402200230a995eed2626ff9264eb75457f90b5a247cb17ada1b720677796b177fa7a802207746eb9098ee7d6498b36f5328b65c2ae41c37f0f8768387f05594465abe5f06[ALL] 025dbb9322a95f7200c116e5f78f736e7072bc8d9cc651068bf48f6b9797da8dd5"}, "vout": 0, "txid": "c3dcba0dd6af80c0ca1b03ec3c4a7b39c29e8ae0541b54fb4071cec4f439e5a0"}, {"sequence": 4294967295, "scriptSig": {"hex": "47304402202212ea111d5ce2e32ecc4e2acebc346a358b7ad1363df26cd1a4e8ccccdf17b6022051c46fdc52f0924160361f4f183cc632f91e94975b1e5b7bc744a2937735c3250121035090ee4838a8ace89eb88dc896f8f43ecb6570ccf72f9286c41083eb61cff692", "asm": "304402202212ea111d5ce2e32ecc4e2acebc346a358b7ad1363df26cd1a4e8ccccdf17b6022051c46fdc52f0924160361f4f183cc632f91e94975b1e5b7bc744a2937735c325[ALL] 035090ee4838a8ace89eb88dc896f8f43ecb6570ccf72f9286c41083eb61cff692"}, "vout": 0, "txid": "ca4f75bd13e0307b19e8bcbb33193c69b3ac44203a111fc25941d86a71b9e41e"}, {"sequence": 4294967295, "scriptSig": {"hex": "483045022100e9d3e054eb2578d91c9cdca4fe2b6aa766604180aa6cbdc427fb4570b3aa55680220477b0432283f72670e1f8e2f31c5595532a78453c9ff4ad83099c0ac1c60c50b0121023194b0fc3cdc7246e2c287e07a855d7ec1a430589de0f77000f205ffcc6daa30", "asm": "3045022100e9d3e054eb2578d91c9cdca4fe2b6aa766604180aa6cbdc427fb4570b3aa55680220477b0432283f72670e1f8e2f31c5595532a78453c9ff4ad83099c0ac1c60c50b[ALL] 023194b0fc3cdc7246e2c287e07a855d7ec1a430589de0f77000f205ffcc6daa30"}, "vout": 0, "txid": "ca5b9ca9ef46e7815f120ef56c41df8faa9f04a040a67d6f7ad76cdcb259d6d2"}, {"sequence": 4294967295, "scriptSig": {"hex": "4830450221009703fd5d8056518b1136b7f633cf588ee4e03ee19653fc672c48283de5f388620220425f0a183192e7df876a374818d8dc0857751ae6414fe716a75e30bdd09c8db4012103583c55d5a75bae934e18cd0ed338f9db7c9632b7440d72cf2101d7cb368bad40", "asm": "30450221009703fd5d8056518b1136b7f633cf588ee4e03ee19653fc672c48283de5f388620220425f0a183192e7df876a374818d8dc0857751ae6414fe716a75e30bdd09c8db4[ALL] 03583c55d5a75bae934e18cd0ed338f9db7c9632b7440d72cf2101d7cb368bad40"}, "vout": 0, "txid": "cceebd9c38c74f9b29caa55f1b9dd67929853051b5d96ca6991027ed88f12415"}, {"sequence": 4294967295, "scriptSig": {"hex": "483045022100d0ccd2bddd20df4d4937a36048115a42d5953df7921ec1326154694cc22c8a22022008de81766ffb9557dd2dcf9cd4d56d09f7723106c90f198b37cd3d93718e9b210121038752e00a1ad66ab09b4288a169419ecd4a2155cb71572f370620d1fb7f2b15a8", "asm": "3045022100d0ccd2bddd20df4d4937a36048115a42d5953df7921ec1326154694cc22c8a22022008de81766ffb9557dd2dcf9cd4d56d09f7723106c90f198b37cd3d93718e9b21[ALL] 038752e00a1ad66ab09b4288a169419ecd4a2155cb71572f370620d1fb7f2b15a8"}, "vout": 0, "txid": "d655f9dce217c027a029f338225cc303c0c9d62d87d4a7a8e880b92295ec4d82"}, {"sequence": 4294967295, "scriptSig": {"hex": "4730440220228b70b3b8bb2a221bf57a9798ea213404bfbc751b132cddd984ee3be5dfe89402201830bf8c1774c47f235e39c251841a0c9f652a4874b6d23d43f7f67cdfc47ac801210252ca5a67025a668706ce560e774279fa258bf2da100807b8fcbf89a1ab14fe32", "asm": "30440220228b70b3b8bb2a221bf57a9798ea213404bfbc751b132cddd984ee3be5dfe89402201830bf8c1774c47f235e39c251841a0c9f652a4874b6d23d43f7f67cdfc47ac8[ALL] 0252ca5a67025a668706ce560e774279fa258bf2da100807b8fcbf89a1ab14fe32"}, "vout": 0, "txid": "e102e50593af561706f47878638e863f71a267cafa657fb8817b728f60b56783"}, {"sequence": 4294967295, "scriptSig": {"hex": "483045022100a26a64725577621f354890deae221095f6e77cf441c47aaf3d1cd6ff13027b6302201c6067f923094ab1e53e77a63c54d946571bc9b680cc827c4f978bbf2fae81030121028429b3b2b0be63159cb14a58d8e6dc0f806680c53b9509fcfc69be94ec5bd3d4", "asm": "3045022100a26a64725577621f354890deae221095f6e77cf441c47aaf3d1cd6ff13027b6302201c6067f923094ab1e53e77a63c54d946571bc9b680cc827c4f978bbf2fae8103[ALL] 028429b3b2b0be63159cb14a58d8e6dc0f806680c53b9509fcfc69be94ec5bd3d4"}, "vout": 0, "txid": "e177491ed3cbcdd4fd547ceedded6c50078056baebd0730f4b4b5b0e34ad66c3"}, {"sequence": 4294967295, "scriptSig": {"hex": "483045022100a953256318e8f1b5c5c615663955e77bc4941e1f1029a22ecb2179351b5a84b50220351a5b6fdaa536d191631da90c0e85ab2e0f05426e741d51097794c0087220590121028d94a8d0abe17801d38f29d36a37e672bc1c61e9856bbf5083affbf5afa077f6", "asm": "3045022100a953256318e8f1b5c5c615663955e77bc4941e1f1029a22ecb2179351b5a84b50220351a5b6fdaa536d191631da90c0e85ab2e0f05426e741d51097794c008722059[ALL] 028d94a8d0abe17801d38f29d36a37e672bc1c61e9856bbf5083affbf5afa077f6"}, "vout": 0, "txid": "e8cbbf52f8a8c798a5eb853710485406775e8306db8449e826703a1b63c20f2e"}, {"sequence": 4294967295, "scriptSig": {"hex": "4730440220477143ce5c4343d02a373ca75825ad824cb155fa64e0e23421bccf183f0df3cd022043c21ce718ef33d83e300c8b85cb2e09467d071690ae1f2676adc536127c0d3d0121025ff51a157d2efa1c610897ba8b7bfe410179a3a0422abec44453874f052ca93b", "asm": "30440220477143ce5c4343d02a373ca75825ad824cb155fa64e0e23421bccf183f0df3cd022043c21ce718ef33d83e300c8b85cb2e09467d071690ae1f2676adc536127c0d3d[ALL] 025ff51a157d2efa1c610897ba8b7bfe410179a3a0422abec44453874f052ca93b"}, "vout": 0, "txid": "f1aa9f3d666e1d154bc6d3756ade658d601c517fe87f97c757805cef212b585a"}, {"sequence": 4294967295, "scriptSig": {"hex": "473044022009c53ad6420e2fcc0a169a00f03656f317043237fc76fc7a12180c134bceab8f02204cb98e8f4c74463780427cc081a199f49110b936541aaa737c5919b9f897842e0121021a35f31422519f3bef95da555693fe0e65f6ab2af5ec10d5e113179a6b12f17d", "asm": "3044022009c53ad6420e2fcc0a169a00f03656f317043237fc76fc7a12180c134bceab8f02204cb98e8f4c74463780427cc081a199f49110b936541aaa737c5919b9f897842e[ALL] 021a35f31422519f3bef95da555693fe0e65f6ab2af5ec10d5e113179a6b12f17d"}, "vout": 0, "txid": "f49c9ca7991bb9eeaa5f5b9b9271a0bcb50a5a361a260d78777f0b307bf84002"}, {"sequence": 4294967295, "scriptSig": {"hex": "4730440220182c40a540f5f1474b2f34b0494cd54e6a523d064da04ffc900d621dff2e679702206b13383cd570b8fd94b3c44d7266daad9afe2908e5ad4f36cc41f3372c7b34bf0121033a70235ad7379a83ef271686c9f2383e80563e13c64d9e564f2d36a6e1345259", "asm": "30440220182c40a540f5f1474b2f34b0494cd54e6a523d064da04ffc900d621dff2e679702206b13383cd570b8fd94b3c44d7266daad9afe2908e5ad4f36cc41f3372c7b34bf[ALL] 033a70235ad7379a83ef271686c9f2383e80563e13c64d9e564f2d36a6e1345259"}, "vout": 0, "txid": "fa42c395b4f76a449dcc32eac44199fd2aac7b1535e7280eb6ce14f2d368016b"}, {"sequence": 4294967295, "scriptSig": {"hex": "4830450221009729a176de33e36eec24c29de469805a8cc5011d6ddf1be13588bc93d770907e02206983864ec6c8e8b21934d3ef3908e13c93525a350ad5570ee12ab86291bcb4630121021ed26af1d5b462ebb5095f41d39b17047908210d8c26121aaa75aee8b83febf2", "asm": "30450221009729a176de33e36eec24c29de469805a8cc5011d6ddf1be13588bc93d770907e02206983864ec6c8e8b21934d3ef3908e13c93525a350ad5570ee12ab86291bcb463[ALL] 021ed26af1d5b462ebb5095f41d39b17047908210d8c26121aaa75aee8b83febf2"}, "vout": 0, "txid": "fc625009a0205ccbefb4b31f69c66496f7f5da02b6dbe1018e811e2a26f1105c"}], "txid": "73dcc66d7ee860ad8349811186e88d82c7f82b99ef4ea98cc6848bd13917c90a", "blocktime": 1537876114, "version": 1, "confirmations": 11460, "time": 1537876114, "locktime": 0, "vsize": 5942, "size": 5942}