{"hash": "73e1d9d89ea51263234aa23c46c041993c61fb7ff013155d74574389618cbe43", "blockhash": "0000000000000000001e0dab787dd257d1dbfcb92a98c2207d5e1078be1f4165", "vout": [{"scriptPubKey": {"reqSigs": 1, "hex": "76a91415a62d1a6d2a9336153eb6bab136c9a0bc95a14188ac", "addresses": ["12yUG9pr58CWnXFXRr5vqSJVkSAndwdsVu"], "asm": "OP_DUP OP_HASH160 15a62d1a6d2a9336153eb6bab136c9a0bc95a141 OP_EQUALVERIFY OP_CHECKSIG", "type": "pubkeyhash"}, "value": 2.112e-05, "n": 0}, {"scriptPubKey": {"reqSigs": 1, "hex": "76a914171917077850fb41778e8c6b72b3bcf40301d11588ac", "addresses": ["1378bhBzvckVjBfd2VCEgLn92QMzPgTt4V"], "asm": "OP_DUP OP_HASH160 171917077850fb41778e8c6b72b3bcf40301d115 OP_EQUALVERIFY OP_CHECKSIG", "type": "pubkeyhash"}, "value": 0.00312517, "n": 1}], "hex": "01000000015442cfb45c7f06578903c17a15a68ef92d010f4d136f53049ff303a091b6054c010000006a473044022005d9a25881e73a695070b14c5175249d80c9c7d35740e41c67181ee9d268752202200b8322e24f95efaf332a80d29c65cf1077ab50e0c6d2141ceffdd62846ea684701210347db80e366acf6c94a9d2aef8e8bfae6e5373bbb56667ae975b0e1bb84319c6dffffffff0240080000000000001976a91415a62d1a6d2a9336153eb6bab136c9a0bc95a14188acc5c40400000000001976a914171917077850fb41778e8c6b72b3bcf40301d11588ac00000000", "vin": [{"sequence": 4294967295, "scriptSig": {"hex": "473044022005d9a25881e73a695070b14c5175249d80c9c7d35740e41c67181ee9d268752202200b8322e24f95efaf332a80d29c65cf1077ab50e0c6d2141ceffdd62846ea684701210347db80e366acf6c94a9d2aef8e8bfae6e5373bbb56667ae975b0e1bb84319c6d", "asm": "3044022005d9a25881e73a695070b14c5175249d80c9c7d35740e41c67181ee9d268752202200b8322e24f95efaf332a80d29c65cf1077ab50e0c6d2141ceffdd62846ea6847[ALL] 0347db80e366acf6c94a9d2aef8e8bfae6e5373bbb56667ae975b0e1bb84319c6d"}, "vout": 1, "txid": "4c05b691a003f39f04536f134d0f012df98ea6157ac1038957067f5cb4cf4254"}], "txid": "73e1d9d89ea51263234aa23c46c041993c61fb7ff013155d74574389618cbe43", "blocktime": 1537872475, "version": 1, "confirmations": 11487, "time": 1537872475, "locktime": 0, "vsize": 225, "size": 225}