{"hash": "73e189d0b9dfebaec0f7d61c92cada8f82b411c1269dac03d00a55df82e06ff2", "blockhash": "0000000000000000000baef3f32e3676a92c3b2e5da21b426e4f302fc371ce76", "vout": [{"scriptPubKey": {"reqSigs": 1, "hex": "a9145a6d0a01664842f8617f13e0f82d12200142ed0187", "addresses": ["39w9MycQBNhX87yrJamTq6ErJbP2spY21s"], "asm": "OP_HASH160 5a6d0a01664842f8617f13e0f82d12200142ed01 OP_EQUAL", "type": "scripthash"}, "value": 0.00547891, "n": 0}, {"scriptPubKey": {"reqSigs": 1, "hex": "76a9144a0f1e2f2b0d7daeec5265f10bbbbe08ed725e8988ac", "addresses": ["17kb7c9ndg7ioSuzMWEHWECdEVUegNkcGc"], "asm": "OP_DUP OP_HASH160 4a0f1e2f2b0d7daeec5265f10bbbbe08ed725e89 OP_EQUALVERIFY OP_CHECKSIG", "type": "pubkeyhash"}, "value": 0.00080405, "n": 1}], "hex": "0100000001d8fa498d84f15024d188b799fb8d3be487d89a6b23f35562336ac297f51cd55a000000006a473044022045c1a7fb6ceb9018536ee0635e01956a09f3e8bca0148f5ffe37d4d129a55e98022072938fd191291a9c10810f4c6f7a6403b0ad398a68b9548bb58a422822c7287501210363e1776495149c5a4e92acf453a3caa19000fc804e4ba2024b600ba25e09c943ffffffff02335c08000000000017a9145a6d0a01664842f8617f13e0f82d12200142ed0187153a0100000000001976a9144a0f1e2f2b0d7daeec5265f10bbbbe08ed725e8988ac00000000", "vin": [{"sequence": 4294967295, "scriptSig": {"hex": "473044022045c1a7fb6ceb9018536ee0635e01956a09f3e8bca0148f5ffe37d4d129a55e98022072938fd191291a9c10810f4c6f7a6403b0ad398a68b9548bb58a422822c7287501210363e1776495149c5a4e92acf453a3caa19000fc804e4ba2024b600ba25e09c943", "asm": "3044022045c1a7fb6ceb9018536ee0635e01956a09f3e8bca0148f5ffe37d4d129a55e98022072938fd191291a9c10810f4c6f7a6403b0ad398a68b9548bb58a422822c72875[ALL] 0363e1776495149c5a4e92acf453a3caa19000fc804e4ba2024b600ba25e09c943"}, "vout": 0, "txid": "5ad51cf597c26a336255f3236b9ad887e43b8dfb99b788d12450f1848d49fad8"}], "txid": "73e189d0b9dfebaec0f7d61c92cada8f82b411c1269dac03d00a55df82e06ff2", "blocktime": 1537876114, "version": 1, "confirmations": 11459, "time": 1537876114, "locktime": 0, "vsize": 223, "size": 223}