{"hash": "73e3bd2cf0c8817a12f89241d4a6e46ffd48d14013bb0ea73740bff16691778f", "blockhash": "00000000000000000004ffacab907a6b429b9a5745fa0b75af4234bf69dd7176", "vout": [{"scriptPubKey": {"reqSigs": 1, "hex": "76a914d243e6abb9a60fbff430b421d2df4b7d59ec186088ac", "addresses": ["1LAnF8h3qMGx3TSwNUHVneBZUEpwE4gu3D"], "asm": "OP_DUP OP_HASH160 d243e6abb9a60fbff430b421d2df4b7d59ec1860 OP_EQUALVERIFY OP_CHECKSIG", "type": "pubkeyhash"}, "value": 0.00076972, "n": 0}, {"scriptPubKey": {"reqSigs": 1, "hex": "76a9143851f34d13937b673a7d24a1950bb5b21ce94af388ac", "addresses": ["168o1kqNquEJeR9vosUB5fw4eAwcVAgh8P"], "asm": "OP_DUP OP_HASH160 3851f34d13937b673a7d24a1950bb5b21ce94af3 OP_EQUALVERIFY OP_CHECKSIG", "type": "pubkeyhash"}, "value": 5.46e-06, "n": 1}, {"scriptPubKey": {"type": "nulldata", "hex": "6a146f6d6e69000000000000001f0000068d3dfac500", "asm": "OP_RETURN 6f6d6e69000000000000001f0000068d3dfac500"}, "value": 0.0, "n": 2}], "hex": "0100000002112bd898b653bd6395da66d9f9c0af43781e89156b1d9f6eb06d118d79eae22f020000006a473044022055d31693d8556f778c035b9cdc7c74e168c91f537e2b6f4c1f4779227186fa690220112873e12a9e181ff23eb2eef1cb5491f1b21ddfe7fd1622f0490770fb37b5ea0121030cd15b983fc10d074e0f6ddeb5c5d1bbf7a87083b823e830f6cf995801c65ad1ffffffff8edee0404e23ae3e32108e35d6962d3ad5502960f320bcee9f47a4961dfe2a8a000000006b483045022100bb9ca7eebf9e383e49d762f9dd05947fd2cc05378f58f4a5a879bae9213071db022002f227c07839033e2d3d16c9672ab0602a25bccdc80297ef076e28230eef646801210271977291b74f1f5f5c42157e8aae804664eaaeccfd097918450d37f28fb94d77ffffffff03ac2c0100000000001976a914d243e6abb9a60fbff430b421d2df4b7d59ec186088ac22020000000000001976a9143851f34d13937b673a7d24a1950bb5b21ce94af388ac0000000000000000166a146f6d6e69000000000000001f0000068d3dfac50000000000", "vin": [{"sequence": 4294967295, "scriptSig": {"hex": "473044022055d31693d8556f778c035b9cdc7c74e168c91f537e2b6f4c1f4779227186fa690220112873e12a9e181ff23eb2eef1cb5491f1b21ddfe7fd1622f0490770fb37b5ea0121030cd15b983fc10d074e0f6ddeb5c5d1bbf7a87083b823e830f6cf995801c65ad1", "asm": "3044022055d31693d8556f778c035b9cdc7c74e168c91f537e2b6f4c1f4779227186fa690220112873e12a9e181ff23eb2eef1cb5491f1b21ddfe7fd1622f0490770fb37b5ea[ALL] 030cd15b983fc10d074e0f6ddeb5c5d1bbf7a87083b823e830f6cf995801c65ad1"}, "vout": 2, "txid": "2fe2ea798d116db06e9f1d6b15891e7843afc0f9d966da9563bd53b698d82b11"}, {"sequence": 4294967295, "scriptSig": {"hex": "483045022100bb9ca7eebf9e383e49d762f9dd05947fd2cc05378f58f4a5a879bae9213071db022002f227c07839033e2d3d16c9672ab0602a25bccdc80297ef076e28230eef646801210271977291b74f1f5f5c42157e8aae804664eaaeccfd097918450d37f28fb94d77", "asm": "3045022100bb9ca7eebf9e383e49d762f9dd05947fd2cc05378f58f4a5a879bae9213071db022002f227c07839033e2d3d16c9672ab0602a25bccdc80297ef076e28230eef6468[ALL] 0271977291b74f1f5f5c42157e8aae804664eaaeccfd097918450d37f28fb94d77"}, "vout": 0, "txid": "8a2afe1d96a4479feebc20f3602950d53a2d96d6358e10323eae234e40e0de8e"}], "txid": "73e3bd2cf0c8817a12f89241d4a6e46ffd48d14013bb0ea73740bff16691778f", "blocktime": 1537875543, "version": 1, "confirmations": 11464, "time": 1537875543, "locktime": 0, "vsize": 404, "size": 404}