{"hash": "73e99b62fb94429b9351caea61dc1e4ad17ca7964313e9e63dc1fb593efa3438", "blockhash": "000000000000000000022b45ed06c6f4ccd3cf7fb5ba4856ebd2e58215665228", "vout": [{"scriptPubKey": {"reqSigs": 1, "hex": "76a914ce7ad53817396117016099e6c6931d13a684367b88ac", "addresses": ["1KpmM6YtLEmYS2u1ydYgVrwLjPFdHSGjvG"], "asm": "OP_DUP OP_HASH160 ce7ad53817396117016099e6c6931d13a684367b OP_EQUALVERIFY OP_CHECKSIG", "type": "pubkeyhash"}, "value": 0.00781392, "n": 0}, {"scriptPubKey": {"reqSigs": 1, "hex": "76a914f2d44a6583eb4d1a89d3e619e0892c07b937a3c188ac", "addresses": ["1P8xqdjDAyNpMv9cDYKBbLjaFdQTgXB5fY"], "asm": "OP_DUP OP_HASH160 f2d44a6583eb4d1a89d3e619e0892c07b937a3c1 OP_EQUALVERIFY OP_CHECKSIG", "type": "pubkeyhash"}, "value": 0.10835757, "n": 1}], "hex": "0100000001c30aa456ed9e3b8ce9accb9aeb322f555bdf87d4515142722f4aad0e2e499ebe010000006b483045022100c75d012e6694f3a752e980f6a8026b821b4b2d1cf37f2c8184f3e94ac135691202201a65b19bdfbb3e6679b08a8dab32e407fe940f200174296f42a4541f211d7c17012102fbb54bb15edbd5f088184cd35b3c275775eb06d0697bdae0b7ffeeaeeffff836ffffffff0250ec0b00000000001976a914ce7ad53817396117016099e6c6931d13a684367b88ac2d57a500000000001976a914f2d44a6583eb4d1a89d3e619e0892c07b937a3c188ac00000000", "vin": [{"sequence": 4294967295, "scriptSig": {"hex": "483045022100c75d012e6694f3a752e980f6a8026b821b4b2d1cf37f2c8184f3e94ac135691202201a65b19bdfbb3e6679b08a8dab32e407fe940f200174296f42a4541f211d7c17012102fbb54bb15edbd5f088184cd35b3c275775eb06d0697bdae0b7ffeeaeeffff836", "asm": "3045022100c75d012e6694f3a752e980f6a8026b821b4b2d1cf37f2c8184f3e94ac135691202201a65b19bdfbb3e6679b08a8dab32e407fe940f200174296f42a4541f211d7c17[ALL] 02fbb54bb15edbd5f088184cd35b3c275775eb06d0697bdae0b7ffeeaeeffff836"}, "vout": 1, "txid": "be9e492e0ead4a2f72425151d487df5b552f32eb9acbace98c3b9eed56a40ac3"}], "txid": "73e99b62fb94429b9351caea61dc1e4ad17ca7964313e9e63dc1fb593efa3438", "blocktime": 1537869901, "version": 1, "confirmations": 11524, "time": 1537869901, "locktime": 0, "vsize": 226, "size": 226}