{"hash": "73f3df742001618ae7ee068f38743ac308636efdb85e59124f24db48c62c87b8", "blockhash": "0000000000000000000baef3f32e3676a92c3b2e5da21b426e4f302fc371ce76", "vout": [{"scriptPubKey": {"reqSigs": 1, "hex": "76a914cbaf50e704afb04d801b9c0964fa43d75f4824bb88ac", "addresses": ["1KZzC7XcC8z5m2DPF589DpjkcaTPafULzp"], "asm": "OP_DUP OP_HASH160 cbaf50e704afb04d801b9c0964fa43d75f4824bb OP_EQUALVERIFY OP_CHECKSIG", "type": "pubkeyhash"}, "value": 0.0008014, "n": 0}, {"scriptPubKey": {"type": "nulldata", "hex": "6a4c50000078160001a866cb9994d8243e6e7ae9c5019d6ddc0f1b8ff117702940d64fa54d8eb2005c72d44dae95c4c3b8196aa08f2acd5baa1bdb0615687d9ad1047abc9a9526289ac0f6612cd74e33776ee4", "asm": "OP_RETURN 000078160001a866cb9994d8243e6e7ae9c5019d6ddc0f1b8ff117702940d64fa54d8eb2005c72d44dae95c4c3b8196aa08f2acd5baa1bdb0615687d9ad1047abc9a9526289ac0f6612cd74e33776ee4"}, "value": 0.0, "n": 1}], "hex": "0100000001497ccc82f666ad67af59b4f63d333fb78dd1fb6f35f6b7606846f48e72dae562010000006b483045022100871d494f1f60a9c8de61ceb030ef16153fd142f53bb0e15f87a4b05bd2f303470220295cb821572c57cf173a023cd2126625c165de0833af42da85b6dbc82b2428f20121030b642952a4267ade295eeb5232addaed05f2041d13ae38af87428d84559add04ffffffff020c390100000000001976a914cbaf50e704afb04d801b9c0964fa43d75f4824bb88ac0000000000000000536a4c50000078160001a866cb9994d8243e6e7ae9c5019d6ddc0f1b8ff117702940d64fa54d8eb2005c72d44dae95c4c3b8196aa08f2acd5baa1bdb0615687d9ad1047abc9a9526289ac0f6612cd74e33776ee400000000", "vin": [{"sequence": 4294967295, "scriptSig": {"hex": "483045022100871d494f1f60a9c8de61ceb030ef16153fd142f53bb0e15f87a4b05bd2f303470220295cb821572c57cf173a023cd2126625c165de0833af42da85b6dbc82b2428f20121030b642952a4267ade295eeb5232addaed05f2041d13ae38af87428d84559add04", "asm": "3045022100871d494f1f60a9c8de61ceb030ef16153fd142f53bb0e15f87a4b05bd2f303470220295cb821572c57cf173a023cd2126625c165de0833af42da85b6dbc82b2428f2[ALL] 030b642952a4267ade295eeb5232addaed05f2041d13ae38af87428d84559add04"}, "vout": 1, "txid": "62e5da728ef4466860b7f6356ffbd18db73f333df6b459af67ad66f682cc7c49"}], "txid": "73f3df742001618ae7ee068f38743ac308636efdb85e59124f24db48c62c87b8", "blocktime": 1537876114, "version": 1, "confirmations": 11461, "time": 1537876114, "locktime": 0, "vsize": 284, "size": 284}