{"hash": "73fd392353da5908f02eb9d9c7243bc8fd92e8aa0f6998e9372ccf78ad8dce9e", "blockhash": "00000000000000000024a2167bbff67b0be802c0b01cdd79e6331c2be6459f87", "vout": [{"scriptPubKey": {"reqSigs": 1, "hex": "76a91447514284d0e16e0df7ea2c5883d560b6f4c131e888ac", "addresses": ["17W6KerDqA4SZKHqZtLMvvqybRDnh5e8dP"], "asm": "OP_DUP OP_HASH160 47514284d0e16e0df7ea2c5883d560b6f4c131e8 OP_EQUALVERIFY OP_CHECKSIG", "type": "pubkeyhash"}, "value": 0.00259438, "n": 0}, {"scriptPubKey": {"reqSigs": 1, "hex": "a91470bc357c0d3293abbd0bd7b301f0ec875560d06a87", "addresses": ["3By751mZj56BELM5vwFBTrkDQuXiWPozM5"], "asm": "OP_HASH160 70bc357c0d3293abbd0bd7b301f0ec875560d06a OP_EQUAL", "type": "scripthash"}, "value": 0.117, "n": 1}], "hex": "0100000002c217cb41871fe3f2b8a3689e3a3496150a3482b6cb2c0dd4c2a3411f0359ba67010000006a4730440220465a449faebb80d300a0adda11a542928962a45c419f95f80b209fef6cfb588a0220691d6867613525a053360c3ec5621639fa8e195e74658f2b25d160745de848d8012103cf15d7c28270553295cc87c3d7a4e109530a10dabc10d8874e46ff25ec6353e0ffffffffc265291ff66c1e3b2860fda34aeebee7dc8e431fe3ff00666dfe24eeb2817b95000000006a47304402205c50d202ffeb6b03625cff9afde5ec8eee743c04cb6f8a01a9668c1c7368cebf02204e9d87fc2141b205135519baf5c1d0eb087e3f9ddf4210e4ca76ecedceef35d001210381fea7b242c803b5238af3d2e964f5e4cec8ecd59c02f53d5c5bb80a3cb28ecaffffffff026ef50300000000001976a91447514284d0e16e0df7ea2c5883d560b6f4c131e888ac2087b2000000000017a91470bc357c0d3293abbd0bd7b301f0ec875560d06a8700000000", "vin": [{"sequence": 4294967295, "scriptSig": {"hex": "4730440220465a449faebb80d300a0adda11a542928962a45c419f95f80b209fef6cfb588a0220691d6867613525a053360c3ec5621639fa8e195e74658f2b25d160745de848d8012103cf15d7c28270553295cc87c3d7a4e109530a10dabc10d8874e46ff25ec6353e0", "asm": "30440220465a449faebb80d300a0adda11a542928962a45c419f95f80b209fef6cfb588a0220691d6867613525a053360c3ec5621639fa8e195e74658f2b25d160745de848d8[ALL] 03cf15d7c28270553295cc87c3d7a4e109530a10dabc10d8874e46ff25ec6353e0"}, "vout": 1, "txid": "67ba59031f41a3c2d40d2ccbb682340a1596343a9e68a3b8f2e31f8741cb17c2"}, {"sequence": 4294967295, "scriptSig": {"hex": "47304402205c50d202ffeb6b03625cff9afde5ec8eee743c04cb6f8a01a9668c1c7368cebf02204e9d87fc2141b205135519baf5c1d0eb087e3f9ddf4210e4ca76ecedceef35d001210381fea7b242c803b5238af3d2e964f5e4cec8ecd59c02f53d5c5bb80a3cb28eca", "asm": "304402205c50d202ffeb6b03625cff9afde5ec8eee743c04cb6f8a01a9668c1c7368cebf02204e9d87fc2141b205135519baf5c1d0eb087e3f9ddf4210e4ca76ecedceef35d0[ALL] 0381fea7b242c803b5238af3d2e964f5e4cec8ecd59c02f53d5c5bb80a3cb28eca"}, "vout": 0, "txid": "957b81b2ee24fe6d6600ffe31f438edce7beee4aa3fd60283b1e6cf61f2965c2"}], "txid": "73fd392353da5908f02eb9d9c7243bc8fd92e8aa0f6998e9372ccf78ad8dce9e", "blocktime": 1537870564, "version": 1, "confirmations": 11515, "time": 1537870564, "locktime": 0, "vsize": 370, "size": 370}