{"hash": "73ffd456a0845b697d81ecf1b8f496df9ba5e77647855d117592461481f60fc8", "blockhash": "0000000000000000000e13cef7c366c0283d82e591d1acd082e914b08063cdf1", "vout": [{"scriptPubKey": {"reqSigs": 1, "hex": "a9149efca597f97493c1d43159ad47dadc5d2394324987", "addresses": ["3GBfM4f54bnsM5yzrziq8Bfsg4CwEYn6RU"], "asm": "OP_HASH160 9efca597f97493c1d43159ad47dadc5d23943249 OP_EQUAL", "type": "scripthash"}, "value": 0.00081991, "n": 0}, {"scriptPubKey": {"reqSigs": 1, "hex": "76a914ccea232f25e70ef35394fe52dcf1c2abd581eb1188ac", "addresses": ["1KgVLHhC8XjuMYLgePo4Uwn5oT9tWzvHjb"], "asm": "OP_DUP OP_HASH160 ccea232f25e70ef35394fe52dcf1c2abd581eb11 OP_EQUALVERIFY OP_CHECKSIG", "type": "pubkeyhash"}, "value": 0.01585216, "n": 1}], "hex": "0100000001e45fc7163981b9cf7a905f9ec8bfe4d8d26cfe58a6d42a66b6adb3599b186024010000006a47304402201c998ce880a52f6e571782bb68ab9fcbd9a14633e0df5ae9e85187d6fe49ee1902206c24623bb0d0bb88ebaab3fad3d9e73920f65b3382ce0b4c1a31ad2fc4f2a1b4012102a4676f4c6bdff58ee4aa42427044b3f9ae6132b5b3ba1f6777156e57279dff92ffffffff02474001000000000017a9149efca597f97493c1d43159ad47dadc5d239432498740301800000000001976a914ccea232f25e70ef35394fe52dcf1c2abd581eb1188ac00000000", "vin": [{"sequence": 4294967295, "scriptSig": {"hex": "47304402201c998ce880a52f6e571782bb68ab9fcbd9a14633e0df5ae9e85187d6fe49ee1902206c24623bb0d0bb88ebaab3fad3d9e73920f65b3382ce0b4c1a31ad2fc4f2a1b4012102a4676f4c6bdff58ee4aa42427044b3f9ae6132b5b3ba1f6777156e57279dff92", "asm": "304402201c998ce880a52f6e571782bb68ab9fcbd9a14633e0df5ae9e85187d6fe49ee1902206c24623bb0d0bb88ebaab3fad3d9e73920f65b3382ce0b4c1a31ad2fc4f2a1b4[ALL] 02a4676f4c6bdff58ee4aa42427044b3f9ae6132b5b3ba1f6777156e57279dff92"}, "vout": 1, "txid": "2460189b59b3adb6662ad4a658fe6cd2d8e4bfc89e5f907acfb9813916c75fe4"}], "txid": "73ffd456a0845b697d81ecf1b8f496df9ba5e77647855d117592461481f60fc8", "blocktime": 1537871767, "version": 1, "confirmations": 11495, "time": 1537871767, "locktime": 0, "vsize": 223, "size": 223}