{"hash": "bc97dbc6745416c0d4d365d16ea714c0e9cc7dc6d4a4b35815c4c93059eabfd2", "blockhash": "0000000000000000001cda96e906b7601b7a6fb1a3b62bca570a9e5d8f4b3de1", "vout": [{"scriptPubKey": {"reqSigs": 1, "hex": "a914716e62d1423fab2dd49992f8c61711978141b03a87", "addresses": ["3C2nWyVCP3BKuq2JctNjig1TXX2YvPqVHs"], "asm": "OP_HASH160 716e62d1423fab2dd49992f8c61711978141b03a OP_EQUAL", "type": "scripthash"}, "value": 2.66837924, "n": 0}], "hex": "010000000001020dcd32c3a5d90ab29a475fcda909f09668bedbdfdbce6d84fac7305254e2bc880200000017160014d3a8eec13e8f003ec096d0e69bd50d957c3a7874ffffffff2ff72541c09b0376dfc1d21ff758478720bab5770360fb6eafe1e43e5a1d3a050100000017160014430eb09a9376116160301222b508c72f2040fe92ffffffff01a49fe70f0000000017a914716e62d1423fab2dd49992f8c61711978141b03a8702473044022041e458017d09cb9bd9c2a601b5f612a5108658cc14c6b6904b98a151060f8346022040176d6993b309e3d81f41a3d93586b925e0b7045336220a3dc9c1203dc17b08012102122bbb0f6f8584b43d9caa0bc2e1a4be084092f1f8004b890e857d3dee8ed2430248304502210084b50e40005d9fc01538e75170982ae7fec192338cfd8fa3397fb59dbdb2a66c0220576f891e7948006d79ecff9cd93c12cbb7fae84c2000d634669a927f7af621cb0121030298a21a2ad275c07df45a968ccf46e9c9c55c709323bd3c04c00c181f05d50100000000", "vin": [{"txinwitness": ["3044022041e458017d09cb9bd9c2a601b5f612a5108658cc14c6b6904b98a151060f8346022040176d6993b309e3d81f41a3d93586b925e0b7045336220a3dc9c1203dc17b0801", "02122bbb0f6f8584b43d9caa0bc2e1a4be084092f1f8004b890e857d3dee8ed243"], "sequence": 4294967295, "scriptSig": {"hex": "160014d3a8eec13e8f003ec096d0e69bd50d957c3a7874", "asm": "0014d3a8eec13e8f003ec096d0e69bd50d957c3a7874"}, "vout": 2, "txid": "88bce2545230c7fa846dcedbdfdbbe6896f009a9cd5f479ab20ad9a5c332cd0d"}, {"txinwitness": ["304502210084b50e40005d9fc01538e75170982ae7fec192338cfd8fa3397fb59dbdb2a66c0220576f891e7948006d79ecff9cd93c12cbb7fae84c2000d634669a927f7af621cb01", "030298a21a2ad275c07df45a968ccf46e9c9c55c709323bd3c04c00c181f05d501"], "sequence": 4294967295, "scriptSig": {"hex": "160014430eb09a9376116160301222b508c72f2040fe92", "asm": "0014430eb09a9376116160301222b508c72f2040fe92"}, "vout": 1, "txid": "053a1d5a3ee4e1af6efb600377b5ba20874758f71fd2c1df76039bc04125f72f"}], "txid": "740154f37e1fae95cb99fb91b9b583f99c6be5413e2170bff7ce8f6f6c2b315a", "blocktime": 1537873282, "version": 1, "confirmations": 11484, "time": 1537873282, "locktime": 0, "vsize": 225, "size": 387}