{"hash": "74024b80b7009b01276ecc36c757b50e07a7e05cf55f5129a752996d8f947f9c", "blockhash": "000000000000000000022b45ed06c6f4ccd3cf7fb5ba4856ebd2e58215665228", "vout": [{"scriptPubKey": {"reqSigs": 1, "hex": "a914180222e1093376c64163b5363e4dc8d5e4ab4b7587", "addresses": ["33sxhaQCK7GVynTmapcSTed56ktiZVYx39"], "asm": "OP_HASH160 180222e1093376c64163b5363e4dc8d5e4ab4b75 OP_EQUAL", "type": "scripthash"}, "value": 0.00168, "n": 0}, {"scriptPubKey": {"reqSigs": 1, "hex": "76a91465ca72d7538854cb95356127c61a942f4ca8d58188ac", "addresses": ["1AHDmkWEciJjjajXz2CPnABdUwWekXQuhJ"], "asm": "OP_DUP OP_HASH160 65ca72d7538854cb95356127c61a942f4ca8d581 OP_EQUALVERIFY OP_CHECKSIG", "type": "pubkeyhash"}, "value": 0.01156368, "n": 1}], "hex": "02000000012d8e362a7d09f406ad9ecb624bbc9f205c14f039b8b1a3f405260fe790d6856e010000006b483045022100ae382bc00184cc95b0e85160aac8c2a499bebd9bc68ede1672c639992e8e7a2a02200a43570e4bbdd6015029dcb6caf7aad414d7228a9f54de31e72be65723356b7801210299be9979002649d3ec61687378785586af6e82678cf4f422bdf1829644acdb91feffffff02409002000000000017a914180222e1093376c64163b5363e4dc8d5e4ab4b758710a51100000000001976a91465ca72d7538854cb95356127c61a942f4ca8d58188ac0b490800", "vin": [{"sequence": 4294967294, "scriptSig": {"hex": "483045022100ae382bc00184cc95b0e85160aac8c2a499bebd9bc68ede1672c639992e8e7a2a02200a43570e4bbdd6015029dcb6caf7aad414d7228a9f54de31e72be65723356b7801210299be9979002649d3ec61687378785586af6e82678cf4f422bdf1829644acdb91", "asm": "3045022100ae382bc00184cc95b0e85160aac8c2a499bebd9bc68ede1672c639992e8e7a2a02200a43570e4bbdd6015029dcb6caf7aad414d7228a9f54de31e72be65723356b78[ALL] 0299be9979002649d3ec61687378785586af6e82678cf4f422bdf1829644acdb91"}, "vout": 1, "txid": "6e85d690e70f2605f4a3b1b839f0145c209fbc4b62cb9ead06f4097d2a368e2d"}], "txid": "74024b80b7009b01276ecc36c757b50e07a7e05cf55f5129a752996d8f947f9c", "blocktime": 1537869901, "version": 2, "confirmations": 11522, "time": 1537869901, "locktime": 542987, "vsize": 224, "size": 224}