{"hash": "c1c00407a0efe0ff6bcb486ec5af19fd2dc84af95cff2754920295892a3d929d", "blockhash": "0000000000000000000e13cef7c366c0283d82e591d1acd082e914b08063cdf1", "vout": [{"scriptPubKey": {"reqSigs": 1, "hex": "001420311c77c37e25e4f5df0aa0b58182362c245ee8", "addresses": ["bc1qyqc3ca7r0cj7fawlp2sttqvzxckzghhgh3hjph"], "asm": "0 20311c77c37e25e4f5df0aa0b58182362c245ee8", "type": "witness_v0_keyhash"}, "value": 9.458e-05, "n": 0}, {"scriptPubKey": {"reqSigs": 1, "hex": "76a9140be0938130f2531871bcfa4b578d35a506999cea88ac", "addresses": ["125oTwNKh2V5EpHuN3YYFGi3PgW42Mr5JH"], "asm": "OP_DUP OP_HASH160 0be0938130f2531871bcfa4b578d35a506999cea OP_EQUALVERIFY OP_CHECKSIG", "type": "pubkeyhash"}, "value": 0.00438699, "n": 1}], "hex": "010000000001011ddf25bf758101de871e78b109081dad6b760f1a5fe9e4a55fe11a439df3622400000000171600146eada3dbc8e3eeb5454f7f231f4a0ecd5fc45205ffffffff02f22400000000000016001420311c77c37e25e4f5df0aa0b58182362c245ee8abb10600000000001976a9140be0938130f2531871bcfa4b578d35a506999cea88ac02483045022100e085486f7d349deb643f756a6380d5550489d8f515ad5b251d4f3f9418059e2602203254a765c2987e48326be2c524d730b14d9aec30248f0f95112bd35f590969a7012103c048cdb792eafa489c1225599565141c07b6c3748601ce4775db2c0bd93df0ff00000000", "vin": [{"txinwitness": ["3045022100e085486f7d349deb643f756a6380d5550489d8f515ad5b251d4f3f9418059e2602203254a765c2987e48326be2c524d730b14d9aec30248f0f95112bd35f590969a701", "03c048cdb792eafa489c1225599565141c07b6c3748601ce4775db2c0bd93df0ff"], "sequence": 4294967295, "scriptSig": {"hex": "1600146eada3dbc8e3eeb5454f7f231f4a0ecd5fc45205", "asm": "00146eada3dbc8e3eeb5454f7f231f4a0ecd5fc45205"}, "vout": 0, "txid": "2462f39d431ae15fa5e4e95f1a0f766bad1d0809b1781e87de018175bf25df1d"}], "txid": "7402194d423875e88d4dc62462156204d33e22b99bb3d195df3f211e7e0c5047", "blocktime": 1537871767, "version": 1, "confirmations": 11495, "time": 1537871767, "locktime": 0, "vsize": 167, "size": 249}