{"hash": "51d980641e00aecad5f0010b7769772e71a93c6b3230387fd0595cf1f674f9f3", "blockhash": "0000000000000000001e0dab787dd257d1dbfcb92a98c2207d5e1078be1f4165", "vout": [{"scriptPubKey": {"reqSigs": 1, "hex": "76a914289530dba9eada24484fcbf6fd512337b251f6c388ac", "addresses": ["14hakdrF2mfMaVdVnRLSeE9TjtxLHZyxrJ"], "asm": "OP_DUP OP_HASH160 289530dba9eada24484fcbf6fd512337b251f6c3 OP_EQUALVERIFY OP_CHECKSIG", "type": "pubkeyhash"}, "value": 0.531, "n": 0}, {"scriptPubKey": {"reqSigs": 1, "hex": "a914f45b7ab6fd6e704b8bef9752630cf6f64f28299a87", "addresses": ["3Py4PSuD77ZQ6vFGQCcZzu2bGoYaCj7QbY"], "asm": "OP_HASH160 f45b7ab6fd6e704b8bef9752630cf6f64f28299a OP_EQUAL", "type": "scripthash"}, "value": 0.00098438, "n": 1}], "hex": "010000000001228ab3f0f45b66477c4d243410d8ed953d19fdb44db692be5a3ea44522aa9945a60100000017160014eb913767d658a5fc7785e3b4f1a11479e8754f95ffffff00791fc15b646accb91c6d3e0d297be0918d0a914ae59d3b79f6ed966e32cb38bb070000001716001448ad5aa632cf3e1b73dbdeb9a43d3437ce482f92ffffff00a9c4ac511de67ce7f6913f39ef02e99cdc4eda127e52607c6c9625ed0021108c0100000017160014db989fda16d161579e7646efcaa2219c56d54ab9ffffff00566817755a47eea9f967320092e60f721f102efbf150ccffba9efe4e3c0664ef020000001716001448ad5aa632cf3e1b73dbdeb9a43d3437ce482f92ffffff00e28b08c08604d3f9ca557fec8b9bb58da21114ae26ca127353ab7fdab4cf70330c0000001716001448ad5aa632cf3e1b73dbdeb9a43d3437ce482f92ffffff004bc98041907481d55437343d0d47430c06b6395a175aedbc86b197b3561823f3000000001716001448ad5aa632cf3e1b73dbdeb9a43d3437ce482f92ffffff00084b0a8d9c2b93145c8d9c9502a8b74bdc0fce0c7da97fa73b87f6aadce35e79010000001716001448ad5aa632cf3e1b73dbdeb9a43d3437ce482f92ffffff002d4516c0fa0645536fd5b4da1d32b9adfc6abd8be01d2b7179520bc0eaf50d2c060000001716001448ad5aa632cf3e1b73dbdeb9a43d3437ce482f92ffffff00a39aa1ba24cb3d8906bec9b4b1f800c8b5078ba34b1b9cac23fbb6a4097bd0c30000000017160014db989fda16d161579e7646efcaa2219c56d54ab9ffffff00d7bb2b1b905a4d0c6ef6f1449fb76043dfc1461a06abfd8f649a27601c14baad000000001716001448ad5aa632cf3e1b73dbdeb9a43d3437ce482f92ffffff007791ab376232d3b4e56721b7841207280f1e1dce9ef60f9ea122b75b697e11f9020000001716001448ad5aa632cf3e1b73dbdeb9a43d3437ce482f92ffffff00049f3bf39eb76954d32bacd0bc3d96ed7691f54c9fc78653ad0dced984904470000000001716001448ad5aa632cf3e1b73dbdeb9a43d3437ce482f92ffffff0054b9a38823086e701e3114ea235e302b68fe73f7864697caa92575f06f167dcb010000001716001448ad5aa632cf3e1b73dbdeb9a43d3437ce482f92ffffff0007017f769c4cf630887a140497f50dac22cfd1c400008c50b164a30d7f15dae6010000001716001448ad5aa632cf3e1b73dbdeb9a43d3437ce482f92ffffff00dcadc82d08a0692eea431710995bf9cb07fa50530594e60c6c0d7c2cf3309ca0030000001716001448ad5aa632cf3e1b73dbdeb9a43d3437ce482f92ffffff00033ae36e2fc7df7d486c7ca45157c109d44e5d3beff23c388c2fa5389fb538951f00000017160014db989fda16d161579e7646efcaa2219c56d54ab9ffffff00592f36e70618748b15478f4dd44b37a3035d366eda93e7d58433bc71f50291b9040000001716001448ad5aa632cf3e1b73dbdeb9a43d3437ce482f92ffffff001eb71b53479ebffd9bc2732fcf5e4ebd38e539c6633427f0a1cc020d8811f7e8000000001716001448ad5aa632cf3e1b73dbdeb9a43d3437ce482f92ffffff009a03f31bb22493b798721ba6b28b7be1dceedf05dafaffbf163acf8de5f1757f000000001716001448ad5aa632cf3e1b73dbdeb9a43d3437ce482f92ffffff002463aabcc42f015e88a9f5c028d2f1b72fd2a09db2b5ec19d43e7a377072032c000000001716001448ad5aa632cf3e1b73dbdeb9a43d3437ce482f92ffffff00d2712e57a0c88c789ef0ee15c4613fd7fde31d37ef06cd90b822a00a7efa0a7f000000001716001448ad5aa632cf3e1b73dbdeb9a43d3437ce482f92ffffff0081926f70fb17836e7526b79c36709a7a1be18d1b80562e4b2aa647380a60361f0000000017160014db989fda16d161579e7646efcaa2219c56d54ab9ffffff0086a54d3ce2bd2fedda9c48876601ac7ddb8b95f0204b8633c9514d8df44e21b20000000017160014db989fda16d161579e7646efcaa2219c56d54ab9ffffff00edc76a9d26ded0ce9538bb80f5b88772be2756a868ee8862dfbb33d5084a27990100000017160014db989fda16d161579e7646efcaa2219c56d54ab9ffffff004b788dcb54ab7e01d79ed67518aa95454ca27cc7d8779760c4e304fd73fe7496000000001716001448ad5aa632cf3e1b73dbdeb9a43d3437ce482f92ffffff007de7f9e50b981dc7cf364b905b2055a2f373455b1a3dd5a1139bf62d50ab289e020000001716001448ad5aa632cf3e1b73dbdeb9a43d3437ce482f92ffffff00c4a0a25d6e0be308da570741f7a26b4b3017d764b8159723af7fc8e097a7666a0100000017160014db989fda16d161579e7646efcaa2219c56d54ab9ffffff00042e20a1a8831384008e5152d57f596a13c0f2f8972faf2b9cab9140c7fdba2a000000001716001448ad5aa632cf3e1b73dbdeb9a43d3437ce482f92ffffff0082df12a393d2688edd47204ef4c8af390c9c161213f0997db118f3189030ccc60100000017160014db989fda16d161579e7646efcaa2219c56d54ab9ffffff000ec884b21abd702d9a4026a24ee4c4c38cce924e3e4166243aefe375c36dc3f0010000001716001448ad5aa632cf3e1b73dbdeb9a43d3437ce482f92ffffff0014e209688aebeacbe9e6133072f7ece7b42e01a2a178b08c3b7b25875c5c663d0000000017160014db989fda16d161579e7646efcaa2219c56d54ab9ffffff000c967408174f988646f1923233a3e2f19ea673183e4ab164bb9c102185436ea4000000001716001448ad5aa632cf3e1b73dbdeb9a43d3437ce482f92ffffff00a38d7163cec24e4981b3f05e7ebfcf36ec8211ad256518de0236ba415f0d0e11040000001716001448ad5aa632cf3e1b73dbdeb9a43d3437ce482f92ffffff00fb169dfcc41b6363d37398bd063aedd2032a41bb933dcb344158595c508f1e51030000001716001448ad5aa632cf3e1b73dbdeb9a43d3437ce482f92ffffff0002e03d2a03000000001976a914289530dba9eada24484fcbf6fd512337b251f6c388ac868001000000000017a914f45b7ab6fd6e704b8bef9752630cf6f64f28299a8702483045022100e50d9086ef8668545dd28d3ab4ff8f6fc1144b17fcadf7ac30c8540d005ea9c9022044e17f860e9b74dcb46e2202422767e3e15fb16d99a753591ebdd76c75832a9501210237f801e38e69183ca20c6ec487603360f112476f4c3f726408d45298d4edf622024830450221009a896459ea40a2c93edf1da286fc19cb80c7b33adc19402f99b29ba52c0d9bd702200a5f6db25c52707b5d2f5a022abbccc0ba10284f48ea97ae91720a5138acce3d01210238fa74ad5bba6c29ff0e26c6325bc982823577b003a67d6ee715f7f5ef9c98bd0247304402203f69ce5b805cbdc831bddad0b85138c4ad2cc5273ef74605739a1e4800d3ae7a02204cca35025a9d1471e67d4b8d3c819ea5cc1eb6986e1bd984bdcd05db57071f8401210288c73867fe82de26dfd5347b365a2901e190f4525ebdb2608b17ab5bd1bbaae602483045022100f0c470ac7aa8b447341f0f9b19ceb78caa7f822e870702838debda8ece3c6cd202201b3b144d57504f03333b80418994bb780dccacbd2a6cada84c8fb0efdcf9d25101210238fa74ad5bba6c29ff0e26c6325bc982823577b003a67d6ee715f7f5ef9c98bd02483045022100ba0c8b6e3f7f8ed5c425cabb44d8117766694809786008d958e3d670e51cae2b02200f402c4a6b56b5b05607d34d5bf60b9fc514c3870c1e03395081800204cdf70d01210238fa74ad5bba6c29ff0e26c6325bc982823577b003a67d6ee715f7f5ef9c98bd02483045022100803272dd970c1623af0674e6bff158ba16e958dc1d4fd083a4071272d4dcdc8a0220368e1f5893c5e617b90599aef2fbb048df89ad0cfee7a69fda69fb584e385a7901210238fa74ad5bba6c29ff0e26c6325bc982823577b003a67d6ee715f7f5ef9c98bd02473044022061b70e9e105e3e94a33df553ec170a38f7a1dcc4b2db03177b10b3e1231f08a8022043b8e2c06764721575ebc750a56871b380a159dc90c45fb435284dd1f265612d01210238fa74ad5bba6c29ff0e26c6325bc982823577b003a67d6ee715f7f5ef9c98bd024730440220783a1aa799fbdd182b755646c5e3ffe454e4652674ac92b072fd138b45f635bd022074d11e88c152ad9964716e7e5935b99f9976793dbfac290ed03f71b4e053fa2f01210238fa74ad5bba6c29ff0e26c6325bc982823577b003a67d6ee715f7f5ef9c98bd02483045022100cfacc282d2a2c39053be4356d8dc4d5295ef80f9d168a435a5826b5dbe34fd450220437ae2603b2e3ce41c13046bd60625da5f2bb8efc552c66a3da460b75f61159601210288c73867fe82de26dfd5347b365a2901e190f4525ebdb2608b17ab5bd1bbaae602483045022100881287fb8ff57d9c5adb6760cff6a026d35e9490c5b9dc7a2af450ec6a7f76ab02202b7b2e230935dfb1e2d563862839b620f9af85cdb6d7829cc0700eb092e3aef201210238fa74ad5bba6c29ff0e26c6325bc982823577b003a67d6ee715f7f5ef9c98bd02483045022100c4ec2c36a4a057f151e290769ea7849459aaebf407f899bacb29c3384332691e02206dab65a28db826452adf45793a879db6186c7836564fa4bc11b98188d2b67fb601210238fa74ad5bba6c29ff0e26c6325bc982823577b003a67d6ee715f7f5ef9c98bd0247304402204d115eab62aae6f57b54c6affd0edc8d9042d48a8962276485c0d8d5211e30470220058172d096b5965e2905be9a619cbf08c5295b83d926196eb1b5810b22326bec01210238fa74ad5bba6c29ff0e26c6325bc982823577b003a67d6ee715f7f5ef9c98bd02483045022100b20d8ad22daf79ef383d7a57ce24b144582a5c732c6138fada8cbdfbe1e9397702205c95f3d54c16e850da5c70e9027a25c82eed60669564beac2a8dc25886e4afe801210238fa74ad5bba6c29ff0e26c6325bc982823577b003a67d6ee715f7f5ef9c98bd0248304502210092d239fc64a0c51988d2db663eade5fb398b34902b245f6697821dd84dd20f9202207f3583f5f8700b321c9074cfe41a5c3f0041e5836454a37f1c6f7fbd91e0f93101210238fa74ad5bba6c29ff0e26c6325bc982823577b003a67d6ee715f7f5ef9c98bd02483045022100c333ad72aafe0032332293528b42c6d51301f668191f1438622e1635863c3ef3022046e665b67f53d34bb83b162f4fb8ba330ab3b5471dcaabbb9c900ecdee28783001210238fa74ad5bba6c29ff0e26c6325bc982823577b003a67d6ee715f7f5ef9c98bd024730440220754060974d52ac73f9342af120d42a985e1428507ac1ce3bc99ca19f2923451d0220539c4c6face69f6e346124314b275171893f3193b36c313e780a2f951dc1aa1b01210288c73867fe82de26dfd5347b365a2901e190f4525ebdb2608b17ab5bd1bbaae602483045022100bdbd02ecd54b7ad51d7bf02f80cc583af52b736e11446a99800cc77e333959ea022000c65bae8bdce0a5d96c910eb6885c586b7ca1e6757f5e194d30c52f9c969d0d01210238fa74ad5bba6c29ff0e26c6325bc982823577b003a67d6ee715f7f5ef9c98bd02483045022100b3d3855537be7ceb8e6f2f0f07dfe636721dfd905843240f042a189d2adde83602207be5d75cf137a380d7d33df557905389306b20840133b19504a3f93296c9b74101210238fa74ad5bba6c29ff0e26c6325bc982823577b003a67d6ee715f7f5ef9c98bd024830450221009fb0839937ff5486564afccf6643c59d6c430636cbffa27293f0680e7846266402203f4bdd1839fe6c66a6da8c8b531bd018ce324b2e052f25c9941f915d4b075d2301210238fa74ad5bba6c29ff0e26c6325bc982823577b003a67d6ee715f7f5ef9c98bd0247304402202d5253ca37a8eca5f1ff0344bb10e1fbcbe1da6113cb5a207d624fcc9832cf430220474f6c3db4d7a9ff119ba66b882cb7e3a3afae110b5e4fc22e791ccdda2b110901210238fa74ad5bba6c29ff0e26c6325bc982823577b003a67d6ee715f7f5ef9c98bd0247304402203fa4aac77f0c95d140710c4a70f5b43a747aa1d5fb086919a2b146490d6a922f022017a523abf9a71091ab5fce9a247f6bc9dccab4b54f8a812bf9ac0a6f59a7db5701210238fa74ad5bba6c29ff0e26c6325bc982823577b003a67d6ee715f7f5ef9c98bd0247304402205a820aa0dcd6aa08a63c4a00fae60f16996921dde23de4faffa8dc4bf0c3372c022010ebf651516ff91c18d478b66eb3a5cd94e74bf079b82d6be00e7fd97cf332dc01210288c73867fe82de26dfd5347b365a2901e190f4525ebdb2608b17ab5bd1bbaae602483045022100fcd2e9dc80ac1856771eb388c0cb9a7ef9660006679fb0e2d9e0a816a3a2937602204e6596048e966bddc8a3e602d46d603e05174c1a30ac51aa6a2ea06249b7206a01210288c73867fe82de26dfd5347b365a2901e190f4525ebdb2608b17ab5bd1bbaae602473044022028a447b0555c3317021fd06bebb99423e958d1250b30a87e8d7783d93c36ea5802202631aaf70d636cb257bce3af1843a0c7d6571925198ee36617d27b6768781c3a01210288c73867fe82de26dfd5347b365a2901e190f4525ebdb2608b17ab5bd1bbaae6024730440220256422a5b5c51803dace9aa1e04e32dc827e287fdfc78461ceaf6a10daa7cd52022000ed2fe8ffeb664f6ef7791ee83f3839d0eff7f7439d92305770d6f7c73e9b6301210238fa74ad5bba6c29ff0e26c6325bc982823577b003a67d6ee715f7f5ef9c98bd02483045022100d0328d49ad769eb5ac93bf49ac740844e9c64a985e25674c69297aa5916b45ab0220741e434308397e6e05675e5ce2ff5f8e62b8d7d867be751e0e8e7f993bf789b101210238fa74ad5bba6c29ff0e26c6325bc982823577b003a67d6ee715f7f5ef9c98bd02483045022100cf17daf6bffcf007797e6983674c8f8b81252eb22971dc08293b1ec834ec547f022028c515d3d7f5bcc03eb006302747945e615459c3f20428a84ebae9449063552101210288c73867fe82de26dfd5347b365a2901e190f4525ebdb2608b17ab5bd1bbaae602483045022100e3b69159a032c9eac5bec33bf0a7cfff2d1f7095f15dd7055b71ef74b1dcbe52022075ed916a4a63de3be8e794a5fed2e822a35bebb77eb5e8fde64c2f37b430330a01210238fa74ad5bba6c29ff0e26c6325bc982823577b003a67d6ee715f7f5ef9c98bd024830450221009581358001542f9b21f0842da19ec7aee09a6e205e4e0c4be03c574f43758536022050000714def2086816e7bdc806e10c75206b78cf5d17ed427bc22b671d3eafa201210288c73867fe82de26dfd5347b365a2901e190f4525ebdb2608b17ab5bd1bbaae60248304502210096534b9832ca21ecde76f9b8d791f1009c9f52c2ca42dce621c2fd1348879285022008ffe4a50a330e226bf6eaede4acfb690512abaed99e037cbb2cc90a8a7c60c401210238fa74ad5bba6c29ff0e26c6325bc982823577b003a67d6ee715f7f5ef9c98bd02483045022100ed3a4318a35b2ed0d0c20ec70897cc0f97185962467b35141feaf5cfd9b9687202207cb6767fdc69912713482b921faf26146b9c6453a4b2ac4a4e595dee1b96ddda01210288c73867fe82de26dfd5347b365a2901e190f4525ebdb2608b17ab5bd1bbaae602473044022027139e4216829bb3db55b47c0b62dd4cdd5e9553485291c756ffa98434ab02c8022037c23047ef0edab91a09ade5d24e23698050e1daa36271b43534e2641e9946a801210238fa74ad5bba6c29ff0e26c6325bc982823577b003a67d6ee715f7f5ef9c98bd024830450221009c8d9f54619da50e7b2daa8affb224376d78c0be2e8aef00dd4fbafbc5d175b30220298559b23274caee09878551db6e2ad125d721e03679aa1f26afd66f8e5da8e301210238fa74ad5bba6c29ff0e26c6325bc982823577b003a67d6ee715f7f5ef9c98bd0247304402204f2806df50d6cdd858a23f89380eaf14d674396a7bb5298863ecde745d187fd8022015ca071486631b49a529abceb31ebefd3b67c90f056ecd43bed9aba85c2e0a7c01210238fa74ad5bba6c29ff0e26c6325bc982823577b003a67d6ee715f7f5ef9c98bd00000000", "vin": [{"txinwitness": ["3045022100e50d9086ef8668545dd28d3ab4ff8f6fc1144b17fcadf7ac30c8540d005ea9c9022044e17f860e9b74dcb46e2202422767e3e15fb16d99a753591ebdd76c75832a9501", "0237f801e38e69183ca20c6ec487603360f112476f4c3f726408d45298d4edf622"], "sequence": 16777215, "scriptSig": {"hex": "160014eb913767d658a5fc7785e3b4f1a11479e8754f95", "asm": "0014eb913767d658a5fc7785e3b4f1a11479e8754f95"}, "vout": 1, "txid": "a64599aa2245a43e5abe92b64db4fd193d95edd81034244d7c47665bf4f0b38a"}, {"txinwitness": ["30450221009a896459ea40a2c93edf1da286fc19cb80c7b33adc19402f99b29ba52c0d9bd702200a5f6db25c52707b5d2f5a022abbccc0ba10284f48ea97ae91720a5138acce3d01", "0238fa74ad5bba6c29ff0e26c6325bc982823577b003a67d6ee715f7f5ef9c98bd"], "sequence": 16777215, "scriptSig": {"hex": "16001448ad5aa632cf3e1b73dbdeb9a43d3437ce482f92", "asm": "001448ad5aa632cf3e1b73dbdeb9a43d3437ce482f92"}, "vout": 7, "txid": "bb38cb326e96edf6793b9de54a910a8d91e07b290d3e6d1cb9cc6a645bc11f79"}, {"txinwitness": ["304402203f69ce5b805cbdc831bddad0b85138c4ad2cc5273ef74605739a1e4800d3ae7a02204cca35025a9d1471e67d4b8d3c819ea5cc1eb6986e1bd984bdcd05db57071f8401", "0288c73867fe82de26dfd5347b365a2901e190f4525ebdb2608b17ab5bd1bbaae6"], "sequence": 16777215, "scriptSig": {"hex": "160014db989fda16d161579e7646efcaa2219c56d54ab9", "asm": "0014db989fda16d161579e7646efcaa2219c56d54ab9"}, "vout": 1, "txid": "8c102100ed25966c7c60527e12da4edc9ce902ef393f91f6e77ce61d51acc4a9"}, {"txinwitness": ["3045022100f0c470ac7aa8b447341f0f9b19ceb78caa7f822e870702838debda8ece3c6cd202201b3b144d57504f03333b80418994bb780dccacbd2a6cada84c8fb0efdcf9d25101", "0238fa74ad5bba6c29ff0e26c6325bc982823577b003a67d6ee715f7f5ef9c98bd"], "sequence": 16777215, "scriptSig": {"hex": "16001448ad5aa632cf3e1b73dbdeb9a43d3437ce482f92", "asm": "001448ad5aa632cf3e1b73dbdeb9a43d3437ce482f92"}, "vout": 2, "txid": "ef64063c4efe9ebaffcc50f1fb2e101f720fe692003267f9a9ee475a75176856"}, {"txinwitness": ["3045022100ba0c8b6e3f7f8ed5c425cabb44d8117766694809786008d958e3d670e51cae2b02200f402c4a6b56b5b05607d34d5bf60b9fc514c3870c1e03395081800204cdf70d01", "0238fa74ad5bba6c29ff0e26c6325bc982823577b003a67d6ee715f7f5ef9c98bd"], "sequence": 16777215, "scriptSig": {"hex": "16001448ad5aa632cf3e1b73dbdeb9a43d3437ce482f92", "asm": "001448ad5aa632cf3e1b73dbdeb9a43d3437ce482f92"}, "vout": 12, "txid": "3370cfb4da7fab537312ca26ae1411a28db59b8bec7f55caf9d30486c0088be2"}, {"txinwitness": ["3045022100803272dd970c1623af0674e6bff158ba16e958dc1d4fd083a4071272d4dcdc8a0220368e1f5893c5e617b90599aef2fbb048df89ad0cfee7a69fda69fb584e385a7901", "0238fa74ad5bba6c29ff0e26c6325bc982823577b003a67d6ee715f7f5ef9c98bd"], "sequence": 16777215, "scriptSig": {"hex": "16001448ad5aa632cf3e1b73dbdeb9a43d3437ce482f92", "asm": "001448ad5aa632cf3e1b73dbdeb9a43d3437ce482f92"}, "vout": 0, "txid": "f3231856b397b186bced5a175a39b6060c43470d3d343754d58174904180c94b"}, {"txinwitness": ["3044022061b70e9e105e3e94a33df553ec170a38f7a1dcc4b2db03177b10b3e1231f08a8022043b8e2c06764721575ebc750a56871b380a159dc90c45fb435284dd1f265612d01", "0238fa74ad5bba6c29ff0e26c6325bc982823577b003a67d6ee715f7f5ef9c98bd"], "sequence": 16777215, "scriptSig": {"hex": "16001448ad5aa632cf3e1b73dbdeb9a43d3437ce482f92", "asm": "001448ad5aa632cf3e1b73dbdeb9a43d3437ce482f92"}, "vout": 1, "txid": "795ee3dcaaf6873ba77fa97d0cce0fdc4bb7a802959c8d5c14932b9c8d0a4b08"}, {"txinwitness": ["30440220783a1aa799fbdd182b755646c5e3ffe454e4652674ac92b072fd138b45f635bd022074d11e88c152ad9964716e7e5935b99f9976793dbfac290ed03f71b4e053fa2f01", "0238fa74ad5bba6c29ff0e26c6325bc982823577b003a67d6ee715f7f5ef9c98bd"], "sequence": 16777215, "scriptSig": {"hex": "16001448ad5aa632cf3e1b73dbdeb9a43d3437ce482f92", "asm": "001448ad5aa632cf3e1b73dbdeb9a43d3437ce482f92"}, "vout": 6, "txid": "2c0df5eac00b5279712b1de08bbd6afcadb9321ddab4d56f534506fac016452d"}, {"txinwitness": ["3045022100cfacc282d2a2c39053be4356d8dc4d5295ef80f9d168a435a5826b5dbe34fd450220437ae2603b2e3ce41c13046bd60625da5f2bb8efc552c66a3da460b75f61159601", "0288c73867fe82de26dfd5347b365a2901e190f4525ebdb2608b17ab5bd1bbaae6"], "sequence": 16777215, "scriptSig": {"hex": "160014db989fda16d161579e7646efcaa2219c56d54ab9", "asm": "0014db989fda16d161579e7646efcaa2219c56d54ab9"}, "vout": 0, "txid": "c3d07b09a4b6fb23ac9c1b4ba38b07b5c800f8b1b4c9be06893dcb24baa19aa3"}, {"txinwitness": ["3045022100881287fb8ff57d9c5adb6760cff6a026d35e9490c5b9dc7a2af450ec6a7f76ab02202b7b2e230935dfb1e2d563862839b620f9af85cdb6d7829cc0700eb092e3aef201", "0238fa74ad5bba6c29ff0e26c6325bc982823577b003a67d6ee715f7f5ef9c98bd"], "sequence": 16777215, "scriptSig": {"hex": "16001448ad5aa632cf3e1b73dbdeb9a43d3437ce482f92", "asm": "001448ad5aa632cf3e1b73dbdeb9a43d3437ce482f92"}, "vout": 0, "txid": "adba141c60279a648ffdab061a46c1df4360b79f44f1f66e0c4d5a901b2bbbd7"}, {"txinwitness": ["3045022100c4ec2c36a4a057f151e290769ea7849459aaebf407f899bacb29c3384332691e02206dab65a28db826452adf45793a879db6186c7836564fa4bc11b98188d2b67fb601", "0238fa74ad5bba6c29ff0e26c6325bc982823577b003a67d6ee715f7f5ef9c98bd"], "sequence": 16777215, "scriptSig": {"hex": "16001448ad5aa632cf3e1b73dbdeb9a43d3437ce482f92", "asm": "001448ad5aa632cf3e1b73dbdeb9a43d3437ce482f92"}, "vout": 2, "txid": "f9117e695bb722a19e0ff69ece1d1e0f28071284b72167e5b4d3326237ab9177"}, {"txinwitness": ["304402204d115eab62aae6f57b54c6affd0edc8d9042d48a8962276485c0d8d5211e30470220058172d096b5965e2905be9a619cbf08c5295b83d926196eb1b5810b22326bec01", "0238fa74ad5bba6c29ff0e26c6325bc982823577b003a67d6ee715f7f5ef9c98bd"], "sequence": 16777215, "scriptSig": {"hex": "16001448ad5aa632cf3e1b73dbdeb9a43d3437ce482f92", "asm": "001448ad5aa632cf3e1b73dbdeb9a43d3437ce482f92"}, "vout": 0, "txid": "70449084d9ce0dad5386c79f4cf59176ed963dbcd0ac2bd35469b79ef33b9f04"}, {"txinwitness": ["3045022100b20d8ad22daf79ef383d7a57ce24b144582a5c732c6138fada8cbdfbe1e9397702205c95f3d54c16e850da5c70e9027a25c82eed60669564beac2a8dc25886e4afe801", "0238fa74ad5bba6c29ff0e26c6325bc982823577b003a67d6ee715f7f5ef9c98bd"], "sequence": 16777215, "scriptSig": {"hex": "16001448ad5aa632cf3e1b73dbdeb9a43d3437ce482f92", "asm": "001448ad5aa632cf3e1b73dbdeb9a43d3437ce482f92"}, "vout": 1, "txid": "cb7d166ff07525a9ca974686f773fe682b305e23ea14311e706e082388a3b954"}, {"txinwitness": ["304502210092d239fc64a0c51988d2db663eade5fb398b34902b245f6697821dd84dd20f9202207f3583f5f8700b321c9074cfe41a5c3f0041e5836454a37f1c6f7fbd91e0f93101", "0238fa74ad5bba6c29ff0e26c6325bc982823577b003a67d6ee715f7f5ef9c98bd"], "sequence": 16777215, "scriptSig": {"hex": "16001448ad5aa632cf3e1b73dbdeb9a43d3437ce482f92", "asm": "001448ad5aa632cf3e1b73dbdeb9a43d3437ce482f92"}, "vout": 1, "txid": "e6da157f0da364b1508c0000c4d1cf22ac0df59704147a8830f64c9c767f0107"}, {"txinwitness": ["3045022100c333ad72aafe0032332293528b42c6d51301f668191f1438622e1635863c3ef3022046e665b67f53d34bb83b162f4fb8ba330ab3b5471dcaabbb9c900ecdee28783001", "0238fa74ad5bba6c29ff0e26c6325bc982823577b003a67d6ee715f7f5ef9c98bd"], "sequence": 16777215, "scriptSig": {"hex": "16001448ad5aa632cf3e1b73dbdeb9a43d3437ce482f92", "asm": "001448ad5aa632cf3e1b73dbdeb9a43d3437ce482f92"}, "vout": 3, "txid": "a09c30f32c7c0d6c0ce694055350fa07cbf95b99101743ea2e69a0082dc8addc"}, {"txinwitness": ["30440220754060974d52ac73f9342af120d42a985e1428507ac1ce3bc99ca19f2923451d0220539c4c6face69f6e346124314b275171893f3193b36c313e780a2f951dc1aa1b01", "0288c73867fe82de26dfd5347b365a2901e190f4525ebdb2608b17ab5bd1bbaae6"], "sequence": 16777215, "scriptSig": {"hex": "160014db989fda16d161579e7646efcaa2219c56d54ab9", "asm": "0014db989fda16d161579e7646efcaa2219c56d54ab9"}, "vout": 31, "txid": "9538b59f38a52f8c383cf2ef3b5d4ed409c15751a47c6c487ddfc72f6ee33a03"}, {"txinwitness": ["3045022100bdbd02ecd54b7ad51d7bf02f80cc583af52b736e11446a99800cc77e333959ea022000c65bae8bdce0a5d96c910eb6885c586b7ca1e6757f5e194d30c52f9c969d0d01", "0238fa74ad5bba6c29ff0e26c6325bc982823577b003a67d6ee715f7f5ef9c98bd"], "sequence": 16777215, "scriptSig": {"hex": "16001448ad5aa632cf3e1b73dbdeb9a43d3437ce482f92", "asm": "001448ad5aa632cf3e1b73dbdeb9a43d3437ce482f92"}, "vout": 4, "txid": "b99102f571bc3384d5e793da6e365d03a3374bd44d8f47158b741806e7362f59"}, {"txinwitness": ["3045022100b3d3855537be7ceb8e6f2f0f07dfe636721dfd905843240f042a189d2adde83602207be5d75cf137a380d7d33df557905389306b20840133b19504a3f93296c9b74101", "0238fa74ad5bba6c29ff0e26c6325bc982823577b003a67d6ee715f7f5ef9c98bd"], "sequence": 16777215, "scriptSig": {"hex": "16001448ad5aa632cf3e1b73dbdeb9a43d3437ce482f92", "asm": "001448ad5aa632cf3e1b73dbdeb9a43d3437ce482f92"}, "vout": 0, "txid": "e8f711880d02cca1f0273463c639e538bd4e5ecf2f73c29bfdbf9e47531bb71e"}, {"txinwitness": ["30450221009fb0839937ff5486564afccf6643c59d6c430636cbffa27293f0680e7846266402203f4bdd1839fe6c66a6da8c8b531bd018ce324b2e052f25c9941f915d4b075d2301", "0238fa74ad5bba6c29ff0e26c6325bc982823577b003a67d6ee715f7f5ef9c98bd"], "sequence": 16777215, "scriptSig": {"hex": "16001448ad5aa632cf3e1b73dbdeb9a43d3437ce482f92", "asm": "001448ad5aa632cf3e1b73dbdeb9a43d3437ce482f92"}, "vout": 0, "txid": "7f75f1e58dcf3a16bffffada05dfeedce17b8bb2a61b7298b79324b21bf3039a"}, {"txinwitness": ["304402202d5253ca37a8eca5f1ff0344bb10e1fbcbe1da6113cb5a207d624fcc9832cf430220474f6c3db4d7a9ff119ba66b882cb7e3a3afae110b5e4fc22e791ccdda2b110901", "0238fa74ad5bba6c29ff0e26c6325bc982823577b003a67d6ee715f7f5ef9c98bd"], "sequence": 16777215, "scriptSig": {"hex": "16001448ad5aa632cf3e1b73dbdeb9a43d3437ce482f92", "asm": "001448ad5aa632cf3e1b73dbdeb9a43d3437ce482f92"}, "vout": 0, "txid": "2c037270377a3ed419ecb5b29da0d22fb7f1d228c0f5a9885e012fc4bcaa6324"}, {"txinwitness": ["304402203fa4aac77f0c95d140710c4a70f5b43a747aa1d5fb086919a2b146490d6a922f022017a523abf9a71091ab5fce9a247f6bc9dccab4b54f8a812bf9ac0a6f59a7db5701", "0238fa74ad5bba6c29ff0e26c6325bc982823577b003a67d6ee715f7f5ef9c98bd"], "sequence": 16777215, "scriptSig": {"hex": "16001448ad5aa632cf3e1b73dbdeb9a43d3437ce482f92", "asm": "001448ad5aa632cf3e1b73dbdeb9a43d3437ce482f92"}, "vout": 0, "txid": "7f0afa7e0aa022b890cd06ef371de3fdd73f61c415eef09e788cc8a0572e71d2"}, {"txinwitness": ["304402205a820aa0dcd6aa08a63c4a00fae60f16996921dde23de4faffa8dc4bf0c3372c022010ebf651516ff91c18d478b66eb3a5cd94e74bf079b82d6be00e7fd97cf332dc01", "0288c73867fe82de26dfd5347b365a2901e190f4525ebdb2608b17ab5bd1bbaae6"], "sequence": 16777215, "scriptSig": {"hex": "160014db989fda16d161579e7646efcaa2219c56d54ab9", "asm": "0014db989fda16d161579e7646efcaa2219c56d54ab9"}, "vout": 0, "txid": "1f36600a3847a62a4b2e56801b8de11b7a9a70369cb726756e8317fb706f9281"}, {"txinwitness": ["3045022100fcd2e9dc80ac1856771eb388c0cb9a7ef9660006679fb0e2d9e0a816a3a2937602204e6596048e966bddc8a3e602d46d603e05174c1a30ac51aa6a2ea06249b7206a01", "0288c73867fe82de26dfd5347b365a2901e190f4525ebdb2608b17ab5bd1bbaae6"], "sequence": 16777215, "scriptSig": {"hex": "160014db989fda16d161579e7646efcaa2219c56d54ab9", "asm": "0014db989fda16d161579e7646efcaa2219c56d54ab9"}, "vout": 0, "txid": "b2214ef48d4d51c933864b20f0958bdb7dac016687489cdaed2fbde23c4da586"}, {"txinwitness": ["3044022028a447b0555c3317021fd06bebb99423e958d1250b30a87e8d7783d93c36ea5802202631aaf70d636cb257bce3af1843a0c7d6571925198ee36617d27b6768781c3a01", "0288c73867fe82de26dfd5347b365a2901e190f4525ebdb2608b17ab5bd1bbaae6"], "sequence": 16777215, "scriptSig": {"hex": "160014db989fda16d161579e7646efcaa2219c56d54ab9", "asm": "0014db989fda16d161579e7646efcaa2219c56d54ab9"}, "vout": 1, "txid": "99274a08d533bbdf6288ee68a85627be7287b8f580bb3895ced0de269d6ac7ed"}, {"txinwitness": ["30440220256422a5b5c51803dace9aa1e04e32dc827e287fdfc78461ceaf6a10daa7cd52022000ed2fe8ffeb664f6ef7791ee83f3839d0eff7f7439d92305770d6f7c73e9b6301", "0238fa74ad5bba6c29ff0e26c6325bc982823577b003a67d6ee715f7f5ef9c98bd"], "sequence": 16777215, "scriptSig": {"hex": "16001448ad5aa632cf3e1b73dbdeb9a43d3437ce482f92", "asm": "001448ad5aa632cf3e1b73dbdeb9a43d3437ce482f92"}, "vout": 0, "txid": "9674fe73fd04e3c4609777d8c77ca24c4595aa1875d69ed7017eab54cb8d784b"}, {"txinwitness": ["3045022100d0328d49ad769eb5ac93bf49ac740844e9c64a985e25674c69297aa5916b45ab0220741e434308397e6e05675e5ce2ff5f8e62b8d7d867be751e0e8e7f993bf789b101", "0238fa74ad5bba6c29ff0e26c6325bc982823577b003a67d6ee715f7f5ef9c98bd"], "sequence": 16777215, "scriptSig": {"hex": "16001448ad5aa632cf3e1b73dbdeb9a43d3437ce482f92", "asm": "001448ad5aa632cf3e1b73dbdeb9a43d3437ce482f92"}, "vout": 2, "txid": "9e28ab502df69b13a1d53d1a5b4573f3a255205b904b36cfc71d980be5f9e77d"}, {"txinwitness": ["3045022100cf17daf6bffcf007797e6983674c8f8b81252eb22971dc08293b1ec834ec547f022028c515d3d7f5bcc03eb006302747945e615459c3f20428a84ebae9449063552101", "0288c73867fe82de26dfd5347b365a2901e190f4525ebdb2608b17ab5bd1bbaae6"], "sequence": 16777215, "scriptSig": {"hex": "160014db989fda16d161579e7646efcaa2219c56d54ab9", "asm": "0014db989fda16d161579e7646efcaa2219c56d54ab9"}, "vout": 1, "txid": "6a66a797e0c87faf239715b864d717304b6ba2f7410757da08e30b6e5da2a0c4"}, {"txinwitness": ["3045022100e3b69159a032c9eac5bec33bf0a7cfff2d1f7095f15dd7055b71ef74b1dcbe52022075ed916a4a63de3be8e794a5fed2e822a35bebb77eb5e8fde64c2f37b430330a01", "0238fa74ad5bba6c29ff0e26c6325bc982823577b003a67d6ee715f7f5ef9c98bd"], "sequence": 16777215, "scriptSig": {"hex": "16001448ad5aa632cf3e1b73dbdeb9a43d3437ce482f92", "asm": "001448ad5aa632cf3e1b73dbdeb9a43d3437ce482f92"}, "vout": 0, "txid": "2abafdc74091ab9c2baf2f97f8f2c0136a597fd552518e00841383a8a1202e04"}, {"txinwitness": ["30450221009581358001542f9b21f0842da19ec7aee09a6e205e4e0c4be03c574f43758536022050000714def2086816e7bdc806e10c75206b78cf5d17ed427bc22b671d3eafa201", "0288c73867fe82de26dfd5347b365a2901e190f4525ebdb2608b17ab5bd1bbaae6"], "sequence": 16777215, "scriptSig": {"hex": "160014db989fda16d161579e7646efcaa2219c56d54ab9", "asm": "0014db989fda16d161579e7646efcaa2219c56d54ab9"}, "vout": 1, "txid": "c6cc309018f318b17d99f01312169c0c39afc8f44e2047dd8e68d293a312df82"}, {"txinwitness": ["304502210096534b9832ca21ecde76f9b8d791f1009c9f52c2ca42dce621c2fd1348879285022008ffe4a50a330e226bf6eaede4acfb690512abaed99e037cbb2cc90a8a7c60c401", "0238fa74ad5bba6c29ff0e26c6325bc982823577b003a67d6ee715f7f5ef9c98bd"], "sequence": 16777215, "scriptSig": {"hex": "16001448ad5aa632cf3e1b73dbdeb9a43d3437ce482f92", "asm": "001448ad5aa632cf3e1b73dbdeb9a43d3437ce482f92"}, "vout": 1, "txid": "f0c36dc375e3ef3a2466413e4e92ce8cc3c4e44ea226409a2d70bd1ab284c80e"}, {"txinwitness": ["3045022100ed3a4318a35b2ed0d0c20ec70897cc0f97185962467b35141feaf5cfd9b9687202207cb6767fdc69912713482b921faf26146b9c6453a4b2ac4a4e595dee1b96ddda01", "0288c73867fe82de26dfd5347b365a2901e190f4525ebdb2608b17ab5bd1bbaae6"], "sequence": 16777215, "scriptSig": {"hex": "160014db989fda16d161579e7646efcaa2219c56d54ab9", "asm": "0014db989fda16d161579e7646efcaa2219c56d54ab9"}, "vout": 0, "txid": "3d665c5c87257b3b8cb078a1a2012eb4e7ecf7723013e6e9cbeaeb8a6809e214"}, {"txinwitness": ["3044022027139e4216829bb3db55b47c0b62dd4cdd5e9553485291c756ffa98434ab02c8022037c23047ef0edab91a09ade5d24e23698050e1daa36271b43534e2641e9946a801", "0238fa74ad5bba6c29ff0e26c6325bc982823577b003a67d6ee715f7f5ef9c98bd"], "sequence": 16777215, "scriptSig": {"hex": "16001448ad5aa632cf3e1b73dbdeb9a43d3437ce482f92", "asm": "001448ad5aa632cf3e1b73dbdeb9a43d3437ce482f92"}, "vout": 0, "txid": "a46e438521109cbb64b14a3e1873a69ef1e2a3333292f14686984f170874960c"}, {"txinwitness": ["30450221009c8d9f54619da50e7b2daa8affb224376d78c0be2e8aef00dd4fbafbc5d175b30220298559b23274caee09878551db6e2ad125d721e03679aa1f26afd66f8e5da8e301", "0238fa74ad5bba6c29ff0e26c6325bc982823577b003a67d6ee715f7f5ef9c98bd"], "sequence": 16777215, "scriptSig": {"hex": "16001448ad5aa632cf3e1b73dbdeb9a43d3437ce482f92", "asm": "001448ad5aa632cf3e1b73dbdeb9a43d3437ce482f92"}, "vout": 4, "txid": "110e0d5f41ba3602de186525ad1182ec36cfbf7e5ef0b381494ec2ce63718da3"}, {"txinwitness": ["304402204f2806df50d6cdd858a23f89380eaf14d674396a7bb5298863ecde745d187fd8022015ca071486631b49a529abceb31ebefd3b67c90f056ecd43bed9aba85c2e0a7c01", "0238fa74ad5bba6c29ff0e26c6325bc982823577b003a67d6ee715f7f5ef9c98bd"], "sequence": 16777215, "scriptSig": {"hex": "16001448ad5aa632cf3e1b73dbdeb9a43d3437ce482f92", "asm": "001448ad5aa632cf3e1b73dbdeb9a43d3437ce482f92"}, "vout": 3, "txid": "511e8f505c59584134cb3d93bb412a03d2ed3a06bd9873d363631bc4fc9d16fb"}], "txid": "7404b2c8b5431cb77f690fe718f853561bd513f05b573198718e79393519c852", "blocktime": 1537872475, "version": 1, "confirmations": 11487, "time": 1537872475, "locktime": 0, "vsize": 3168, "size": 5914}