{"hash": "f93be7a0c7bb836b899696cafb8d6ecef478cb2ca7a2adc7dd0eccf2052e5c91", "blockhash": "0000000000000000001e0dab787dd257d1dbfcb92a98c2207d5e1078be1f4165", "vout": [{"scriptPubKey": {"reqSigs": 1, "hex": "76a914500575261a5e457fe9e5e1307a99d16b6e4a2ab688ac", "addresses": ["18J7bYnW5fjU53mYaKDXzAScJRqjmMWgDK"], "asm": "OP_DUP OP_HASH160 500575261a5e457fe9e5e1307a99d16b6e4a2ab6 OP_EQUALVERIFY OP_CHECKSIG", "type": "pubkeyhash"}, "value": 0.0072963, "n": 0}, {"scriptPubKey": {"reqSigs": 1, "hex": "a914f5342287aaa57f5c05756dbd5ef14091cc70030f87", "addresses": ["3Q3XvwKWsx3ocmCXheK6pAo5ieooFx75hh"], "asm": "OP_HASH160 f5342287aaa57f5c05756dbd5ef14091cc70030f OP_EQUAL", "type": "scripthash"}, "value": 0.10224335, "n": 1}], "hex": "01000000000102ea5f868df8f2e4e9fd58be299ab1fa39b3acb2954542d8c4c3e69bc5a4deb0460100000023220020435cdd2982c7fdc175dcd9dd08b52697e466b6ff50d77cf5ec1d69eabb499f17ffffffffa7417a7a0490c252cae56a3c37472c3fd1e31e07831bd2dee10fe767ba027e1601000000232200204fd7968ffe15cb453352a1e9ee2915eff8b6d6252d5a351f9092b82ca10eb12cffffffff021e220b00000000001976a914500575261a5e457fe9e5e1307a99d16b6e4a2ab688accf029c000000000017a914f5342287aaa57f5c05756dbd5ef14091cc70030f870400473044022043af8a2f0e57fbb5e1f64261887a50d18a507846436aaf294499627e522c445e022067841fab9a81b1581b9d0231c9d6da129950f28740b52d6092c0ae5f1541aadd01483045022100f2a14ad03226c53336780360144c71b8110ad7ebff54617ad869dc64964b38d1022067410056315ad2de14ebc0acb112a7bc3cab9152360ab52aa7c57ce364d1e6bd01475221029271f31e4d0b877d72a3b8a6695acde7fde20518556a031e7f50e2674c6e3f0b2103871fc2ca08e6950b38867e8e6a0e94ee625223d3aa0df5c65f414c6d784467e252ae0400473044022045bf1fcde8169ffb858fdfab52758e8f4fc2de79bbcd08c250faba7c112e9b2202203cab7bb523969ada14d3506d7080f8f4895235bd355daa80fc91226d4f1a669b0147304402205fe590acac859a823c16760a754a67ed93d011535b63ba5d2d8ec8bc9483046f02207fe334f186d9735cffc3baed34a50a7dc68eccf77559abe50e5acd7e00cd10e70147522103b70e79262cbb7310fe069dea7c473b53276b75c67fb841ff66279f152a3fe0172103871fc2ca08e6950b38867e8e6a0e94ee625223d3aa0df5c65f414c6d784467e252ae00000000", "vin": [{"txinwitness": ["", "3044022043af8a2f0e57fbb5e1f64261887a50d18a507846436aaf294499627e522c445e022067841fab9a81b1581b9d0231c9d6da129950f28740b52d6092c0ae5f1541aadd01", "3045022100f2a14ad03226c53336780360144c71b8110ad7ebff54617ad869dc64964b38d1022067410056315ad2de14ebc0acb112a7bc3cab9152360ab52aa7c57ce364d1e6bd01", "5221029271f31e4d0b877d72a3b8a6695acde7fde20518556a031e7f50e2674c6e3f0b2103871fc2ca08e6950b38867e8e6a0e94ee625223d3aa0df5c65f414c6d784467e252ae"], "sequence": 4294967295, "scriptSig": {"hex": "220020435cdd2982c7fdc175dcd9dd08b52697e466b6ff50d77cf5ec1d69eabb499f17", "asm": "0020435cdd2982c7fdc175dcd9dd08b52697e466b6ff50d77cf5ec1d69eabb499f17"}, "vout": 1, "txid": "46b0dea4c59be6c3c4d8424595b2acb339fab19a29be58fde9e4f2f88d865fea"}, {"txinwitness": ["", "3044022045bf1fcde8169ffb858fdfab52758e8f4fc2de79bbcd08c250faba7c112e9b2202203cab7bb523969ada14d3506d7080f8f4895235bd355daa80fc91226d4f1a669b01", "304402205fe590acac859a823c16760a754a67ed93d011535b63ba5d2d8ec8bc9483046f02207fe334f186d9735cffc3baed34a50a7dc68eccf77559abe50e5acd7e00cd10e701", "522103b70e79262cbb7310fe069dea7c473b53276b75c67fb841ff66279f152a3fe0172103871fc2ca08e6950b38867e8e6a0e94ee625223d3aa0df5c65f414c6d784467e252ae"], "sequence": 4294967295, "scriptSig": {"hex": "2200204fd7968ffe15cb453352a1e9ee2915eff8b6d6252d5a351f9092b82ca10eb12c", "asm": "00204fd7968ffe15cb453352a1e9ee2915eff8b6d6252d5a351f9092b82ca10eb12c"}, "vout": 1, "txid": "167e02ba67e70fe1ded21b83071ee3d13f2c47373c6ae5ca52c290047a7a41a7"}], "txid": "7405d300d4908a8ca8a16056ed63d77a68b8191f1e7a83e56dd9b0d0a848662d", "blocktime": 1537872475, "version": 1, "confirmations": 11487, "time": 1537872475, "locktime": 0, "vsize": 338, "size": 667}