{"hash": "7407b7b7433b902b16a040029dba96c9aa517fe8dfd553a1dcdb63df26c53baf", "blockhash": "00000000000000000018f53835495a110e01622372bf6ae95dc86f2b0ab887b0", "vout": [{"scriptPubKey": {"reqSigs": 1, "hex": "a9143df17fb121af75f0702667788119c02be3cfa85287", "addresses": ["37LYSskzDsuZqMNjF54W7QycEDJL52p68W"], "asm": "OP_HASH160 3df17fb121af75f0702667788119c02be3cfa852 OP_EQUAL", "type": "scripthash"}, "value": 1e-05, "n": 0}, {"scriptPubKey": {"reqSigs": 1, "hex": "76a914261a8aa2cf3f88a0a8216ae60a12fe4f0b4dae8f88ac", "addresses": ["14UUURrfQR6AEuBxVxsQk7LExLNgGMzqgb"], "asm": "OP_DUP OP_HASH160 261a8aa2cf3f88a0a8216ae60a12fe4f0b4dae8f OP_EQUALVERIFY OP_CHECKSIG", "type": "pubkeyhash"}, "value": 0.00282582, "n": 1}], "hex": "010000000127802ee68e917a8d946e3ad105e9966e9dd7baf79b9e3034e684fd9f70325083010000006a47304402204cf438456f95c060588ca09d38a9c04bdbcc5465f219d44a7dc3da49171f787c02203f94dbfcdd5647fb571263c38ebd3babef5f56415c664f7e77bf879f5e95af380121020e1dfd4afbe7f1a3fdb1d00029383b97008eb964220ac618d7c90f727108f518ffffffff02e80300000000000017a9143df17fb121af75f0702667788119c02be3cfa85287d64f0400000000001976a914261a8aa2cf3f88a0a8216ae60a12fe4f0b4dae8f88ac00000000", "vin": [{"sequence": 4294967295, "scriptSig": {"hex": "47304402204cf438456f95c060588ca09d38a9c04bdbcc5465f219d44a7dc3da49171f787c02203f94dbfcdd5647fb571263c38ebd3babef5f56415c664f7e77bf879f5e95af380121020e1dfd4afbe7f1a3fdb1d00029383b97008eb964220ac618d7c90f727108f518", "asm": "304402204cf438456f95c060588ca09d38a9c04bdbcc5465f219d44a7dc3da49171f787c02203f94dbfcdd5647fb571263c38ebd3babef5f56415c664f7e77bf879f5e95af38[ALL] 020e1dfd4afbe7f1a3fdb1d00029383b97008eb964220ac618d7c90f727108f518"}, "vout": 1, "txid": "835032709ffd84e634309e9bf7bad79d6e96e905d13a6e948d7a918ee62e8027"}], "txid": "7407b7b7433b902b16a040029dba96c9aa517fe8dfd553a1dcdb63df26c53baf", "blocktime": 1537870928, "version": 1, "confirmations": 11514, "time": 1537870928, "locktime": 0, "vsize": 223, "size": 223}