{"hash": "7409ca89317906b5cdc788f42f3876cdca2794284c7e53c6184bcf6980c635e7", "blockhash": "0000000000000000001e0dab787dd257d1dbfcb92a98c2207d5e1078be1f4165", "vout": [{"scriptPubKey": {"reqSigs": 1, "hex": "76a9144ab7e111dfebda373b98023fbe5690ba2815be5e88ac", "addresses": ["17p5HLzsQNyo35jkDg4Adske9JvUGRLzS4"], "asm": "OP_DUP OP_HASH160 4ab7e111dfebda373b98023fbe5690ba2815be5e OP_EQUALVERIFY OP_CHECKSIG", "type": "pubkeyhash"}, "value": 0.02942643, "n": 0}, {"scriptPubKey": {"reqSigs": 1, "hex": "76a91496ccdc6503d7e64e7195f2045ca0ee1ef7f5828488ac", "addresses": ["1EkMmm7ZTgC3qj6BayjZmsMTnf6MEQWGU7"], "asm": "OP_DUP OP_HASH160 96ccdc6503d7e64e7195f2045ca0ee1ef7f58284 OP_EQUALVERIFY OP_CHECKSIG", "type": "pubkeyhash"}, "value": 0.1502644, "n": 1}], "hex": "01000000013a9825a46e3a4420d6dab3fa11dac5eb9f54642365c217172a4437b283c72cf8010000006b483045022100a96d56b08c7f9ef749e8624836f595dc1df36a8398b24353ac7613cb24d8713e02204b3b61b32bf811946a0a7bd79373f3c96d6ffa76280c35c9d7cff24aa202b2ff012103acc28c62bd96271fae3bb69acbfb4b4b8e361466731655b5ad06181bed6bafc8ffffffff02b3e62c00000000001976a9144ab7e111dfebda373b98023fbe5690ba2815be5e88ac0849e500000000001976a91496ccdc6503d7e64e7195f2045ca0ee1ef7f5828488ac00000000", "vin": [{"sequence": 4294967295, "scriptSig": {"hex": "483045022100a96d56b08c7f9ef749e8624836f595dc1df36a8398b24353ac7613cb24d8713e02204b3b61b32bf811946a0a7bd79373f3c96d6ffa76280c35c9d7cff24aa202b2ff012103acc28c62bd96271fae3bb69acbfb4b4b8e361466731655b5ad06181bed6bafc8", "asm": "3045022100a96d56b08c7f9ef749e8624836f595dc1df36a8398b24353ac7613cb24d8713e02204b3b61b32bf811946a0a7bd79373f3c96d6ffa76280c35c9d7cff24aa202b2ff[ALL] 03acc28c62bd96271fae3bb69acbfb4b4b8e361466731655b5ad06181bed6bafc8"}, "vout": 1, "txid": "f82cc783b237442a1717c2652364549febc5da11fab3dad620443a6ea425983a"}], "txid": "7409ca89317906b5cdc788f42f3876cdca2794284c7e53c6184bcf6980c635e7", "blocktime": 1537872475, "version": 1, "confirmations": 11487, "time": 1537872475, "locktime": 0, "vsize": 226, "size": 226}