{"hash": "7409422f8b6f847c73f5e267efb471fbce04791cb9530e3773db08e18dec3233", "blockhash": "000000000000000000022b45ed06c6f4ccd3cf7fb5ba4856ebd2e58215665228", "vout": [{"scriptPubKey": {"reqSigs": 1, "hex": "76a9149e5687979b126bb708d19debda98db6d77c143b288ac", "addresses": ["1FSDRVincB7MGm26CxBdr51XfN7JGYEmEa"], "asm": "OP_DUP OP_HASH160 9e5687979b126bb708d19debda98db6d77c143b2 OP_EQUALVERIFY OP_CHECKSIG", "type": "pubkeyhash"}, "value": 0.06267976, "n": 0}, {"scriptPubKey": {"reqSigs": 1, "hex": "a914642e077d12204fa40c222ca07ae93dd71ed1aa1087", "addresses": ["3Apidtt4NesceS5HiLgudDqecZciEj2CBr"], "asm": "OP_HASH160 642e077d12204fa40c222ca07ae93dd71ed1aa10 OP_EQUAL", "type": "scripthash"}, "value": 0.012816, "n": 1}, {"scriptPubKey": {"reqSigs": 1, "hex": "76a914bc546807d6f7e0830d4af1e85299a3661a8b928088ac", "addresses": ["1JAo9ir7HaXHSMiJUa2bzXyZ1iQB6dAgMd"], "asm": "OP_DUP OP_HASH160 bc546807d6f7e0830d4af1e85299a3661a8b9280 OP_EQUALVERIFY OP_CHECKSIG", "type": "pubkeyhash"}, "value": 0.0179519, "n": 2}], "hex": "02000000015c7155f3e1bf7c0a1f9ce19b337c9f77751622256cc2a2d19101ba3e5766018e020000006b483045022100f8cc64b3a22e6fa2f2212a922100d001330da3042f1e0d8a20312bdaef1fb11c02203cdea6a6c1560eb2be82a43e747ed7a2ca44c03baa44c0fd39cd65603365a0f80121025170da66dc4e88df23523fcdb51a718671eee6fdca58f5d9700dbf7e877e7bfafdffffff0348a45f00000000001976a9149e5687979b126bb708d19debda98db6d77c143b288ac408e13000000000017a914642e077d12204fa40c222ca07ae93dd71ed1aa108776641b00000000001976a914bc546807d6f7e0830d4af1e85299a3661a8b928088ac0b490800", "vin": [{"sequence": 4294967293, "scriptSig": {"hex": "483045022100f8cc64b3a22e6fa2f2212a922100d001330da3042f1e0d8a20312bdaef1fb11c02203cdea6a6c1560eb2be82a43e747ed7a2ca44c03baa44c0fd39cd65603365a0f80121025170da66dc4e88df23523fcdb51a718671eee6fdca58f5d9700dbf7e877e7bfa", "asm": "3045022100f8cc64b3a22e6fa2f2212a922100d001330da3042f1e0d8a20312bdaef1fb11c02203cdea6a6c1560eb2be82a43e747ed7a2ca44c03baa44c0fd39cd65603365a0f8[ALL] 025170da66dc4e88df23523fcdb51a718671eee6fdca58f5d9700dbf7e877e7bfa"}, "vout": 2, "txid": "8e0166573eba0191d1a2c26c25221675779f7c339be19c1f0a7cbfe1f355715c"}], "txid": "7409422f8b6f847c73f5e267efb471fbce04791cb9530e3773db08e18dec3233", "blocktime": 1537869901, "version": 2, "confirmations": 11522, "time": 1537869901, "locktime": 542987, "vsize": 258, "size": 258}