{"hash": "436dcc2d983c25d40a50653e38bb6729259ab7b2932cc9fb4a693542f4b86e8e", "blockhash": "0000000000000000000dcc0f55137456b1a82d3642486a52398922ac4d620174", "vout": [{"scriptPubKey": {"reqSigs": 1, "hex": "76a9146d912761da758141a14e99452aea4c324ddd750088ac", "addresses": ["1AzLYNkCo1cjsEAGFPCzSubgnQte46m79X"], "asm": "OP_DUP OP_HASH160 6d912761da758141a14e99452aea4c324ddd7500 OP_EQUALVERIFY OP_CHECKSIG", "type": "pubkeyhash"}, "value": 0.5, "n": 0}, {"scriptPubKey": {"reqSigs": 1, "hex": "a91472003cb8398c200852a22cea5dc2cbe9fccdf84d87", "addresses": ["3C5oEtiH3brTC165Ni3HwgcfGmH64rM6o4"], "asm": "OP_HASH160 72003cb8398c200852a22cea5dc2cbe9fccdf84d OP_EQUAL", "type": "scripthash"}, "value": 0.01774144, "n": 1}], "hex": "0100000000010cd87d6dffe7cd968437830065667b27c4019e59e3d09c60fc81bd03189ba3c85b27000000171600140ef120af7c234da63722c01136c23dfae0540ec3ffffff002edbc63ffc1c565e17ba80afd2009016ba8b5815334f187a4be86957993c156b1b000000171600140ef120af7c234da63722c01136c23dfae0540ec3ffffff004248606f53e01ed72d358e4bec4ca1e31a61e6cdc6f6865d7b1232198bd20ddd57000000171600142d5e9b9408dbc284f26c2286f8f3b34f43680141ffffff00fc5ce39b8d1b2f2fb454f3a9e0f95003cee3e8845cbfb28698fc44ca2a0083e323000000171600140ef120af7c234da63722c01136c23dfae0540ec3ffffff009d2a84ac518e7d854acbcb3114efacf85165e51a09c0673a09ff2d0acf0549b12d000000171600140ef120af7c234da63722c01136c23dfae0540ec3ffffff00efe07980267a942fac0267f5688720ed18de849411c8cf23cb4163f485da722920000000171600140ef120af7c234da63722c01136c23dfae0540ec3ffffff006e0945045baf1535b7fad2debd5dc0049d5b7e187b508346a33f68c5afd752a223000000171600140ef120af7c234da63722c01136c23dfae0540ec3ffffff006a78713b148095138b0351d3085ff3546d2689ba6091fcb1adc8aa00b18b4b3e21000000171600140ef120af7c234da63722c01136c23dfae0540ec3ffffff0031892a26e6034af36cbeb758cd6c38c417420676be78fd6d7b8ed5690c7f419a1d000000171600140ef120af7c234da63722c01136c23dfae0540ec3ffffff0053f3227c1ee1b4c6683647b9d1f4d409915206d62de7b26ebc55c15516e0ead022000000171600140ef120af7c234da63722c01136c23dfae0540ec3ffffff001d1a3c0e30104d50461ab7310eae1e9fcc128248a3967e69f101d9d95fca66540100000017160014a795d768461415a5eae853fc38e72e0c917f98b4ffffff001687b9e410681001395af519b214d4bc28885ffc5e95dc3c4442ccd842605a19010000001716001434205e364e04efbe1c3b31774ed75c134891f41bffffff000280f0fa02000000001976a9146d912761da758141a14e99452aea4c324ddd750088ac40121b000000000017a91472003cb8398c200852a22cea5dc2cbe9fccdf84d8702483045022100fb8ae7390b4450338e186ec7ef3549246cec084f6ee6fa27bc9d23042d4e5d4a02207cb0c6e3d4a38e657396ef0fe59528bf77141b06d7b95be98e7d87e7615d462c012103ac4a8a6f273937652f79559428e10ecb3ca3d6bf3d87a6df7ca3ccaf8472380a02473044022002515cd202c27a1f4587ccaab28fc4512c7d54d38a44c9303b0dd3a50664dc9202201f18aefc7d9d5f983d0b1d0355611500edbe7d0a267a3c1949d3f7fb322dd32a012103ac4a8a6f273937652f79559428e10ecb3ca3d6bf3d87a6df7ca3ccaf8472380a02483045022100d57e60e3fa119c468e18c53e19c34421955e0f1ca10e52255451a59837c036ad022066578d095c2576a1071903ed8ba5f352dfffb17d3eae0ad4bb8178b644619f81012103d7694f79839dee832aa7edff8d0bc2ed47e1138b344d1103e28c7f86d8b5054602473044022015d843591dcc97d2f170422c7d5045ad1180878e7437a1e33f0048ef822ca2840220618bc3d665d1cbb226574069efe882e7ac96fdb9322a1a5c2c73de4f404b85a8012103ac4a8a6f273937652f79559428e10ecb3ca3d6bf3d87a6df7ca3ccaf8472380a0247304402200f3a5115f13324df29f29a96efe6920285bae0777001e54bece27f2fc7beb5a90220544b662cf2ce5523b7e4c378eb8c637d42db5d9d434c03604532e28f3f512747012103ac4a8a6f273937652f79559428e10ecb3ca3d6bf3d87a6df7ca3ccaf8472380a02473044022072c0c0c62a96f43b0ba1049211a84dae8b9aa4279d2779f4164bdf0a7a925230022021d92197f5056bd1702ba649be6df6beae45c7bf2b1159c9712b9fa23c63470d012103ac4a8a6f273937652f79559428e10ecb3ca3d6bf3d87a6df7ca3ccaf8472380a024830450221008ae931061c480306ae326a05202862fe98e22bc8972a3dd8648af25bc9cf07880220773750138f1a9d508c927f35108027a1dac6948955c736ec6e32e9f26229f25c012103ac4a8a6f273937652f79559428e10ecb3ca3d6bf3d87a6df7ca3ccaf8472380a02483045022100bf295b670c352075d71592bc2d43a489131e5d15d28d4ca7e639237100b16e8b02205b593d8879b4f2c0048a7eed6ed60a9cbde7e7bb035956a14b74313bb31cccf5012103ac4a8a6f273937652f79559428e10ecb3ca3d6bf3d87a6df7ca3ccaf8472380a024830450221008baee0bfd898cce92f8b49db5603c7f81856d5943d55cac303e2dcc512b74e6f02200e4485fdcf0029cda38afd38d7a05067ee303c175630c0187bd68ce339deacb1012103ac4a8a6f273937652f79559428e10ecb3ca3d6bf3d87a6df7ca3ccaf8472380a02483045022100948195586b16fbdc8fa5225122bf8826309f50301e208596e48de5c7f5a2eb9602205d759bd29a629bd634c0e8b9b694a5eb0d505af8f66088e18a203c62125d8794012103ac4a8a6f273937652f79559428e10ecb3ca3d6bf3d87a6df7ca3ccaf8472380a024730440220360291c9aeb283a38f08ac3d107dd49c7e3ecb16efe57d16a3ce19e8fd18ac66022024c67619a191a7add6d92dc7f0535004db318fb9c30bfff71824973f0957dc3e012103762b638e14e3c8126cf909aa05fbeeda52f931d567d5d457d299fb998575996b024730440220507488ff298832127432f30739a6e3e5d43fb773e9b7ad75f17e50dfa9abdf7b022001a03500f2d6e9c6c764797677b04ac860e035306f61ac564bc61127d6402d96012103b4a2a92943875d3c998757c4ead9d4933847c322d78442dbed35283a67e4c7ca00000000", "vin": [{"txinwitness": ["3045022100fb8ae7390b4450338e186ec7ef3549246cec084f6ee6fa27bc9d23042d4e5d4a02207cb0c6e3d4a38e657396ef0fe59528bf77141b06d7b95be98e7d87e7615d462c01", "03ac4a8a6f273937652f79559428e10ecb3ca3d6bf3d87a6df7ca3ccaf8472380a"], "sequence": 16777215, "scriptSig": {"hex": "1600140ef120af7c234da63722c01136c23dfae0540ec3", "asm": "00140ef120af7c234da63722c01136c23dfae0540ec3"}, "vout": 39, "txid": "5bc8a39b1803bd81fc609cd0e3599e01c4277b66650083378496cde7ff6d7dd8"}, {"txinwitness": ["3044022002515cd202c27a1f4587ccaab28fc4512c7d54d38a44c9303b0dd3a50664dc9202201f18aefc7d9d5f983d0b1d0355611500edbe7d0a267a3c1949d3f7fb322dd32a01", "03ac4a8a6f273937652f79559428e10ecb3ca3d6bf3d87a6df7ca3ccaf8472380a"], "sequence": 16777215, "scriptSig": {"hex": "1600140ef120af7c234da63722c01136c23dfae0540ec3", "asm": "00140ef120af7c234da63722c01136c23dfae0540ec3"}, "vout": 27, "txid": "6b153c995769e84b7a184f3315588bba169000d2af80ba175e561cfc3fc6db2e"}, {"txinwitness": ["3045022100d57e60e3fa119c468e18c53e19c34421955e0f1ca10e52255451a59837c036ad022066578d095c2576a1071903ed8ba5f352dfffb17d3eae0ad4bb8178b644619f8101", "03d7694f79839dee832aa7edff8d0bc2ed47e1138b344d1103e28c7f86d8b50546"], "sequence": 16777215, "scriptSig": {"hex": "1600142d5e9b9408dbc284f26c2286f8f3b34f43680141", "asm": "00142d5e9b9408dbc284f26c2286f8f3b34f43680141"}, "vout": 87, "txid": "dd0dd28b1932127b5d86f6c6cde6611ae3a14cec4b8e352dd71ee0536f604842"}, {"txinwitness": ["3044022015d843591dcc97d2f170422c7d5045ad1180878e7437a1e33f0048ef822ca2840220618bc3d665d1cbb226574069efe882e7ac96fdb9322a1a5c2c73de4f404b85a801", "03ac4a8a6f273937652f79559428e10ecb3ca3d6bf3d87a6df7ca3ccaf8472380a"], "sequence": 16777215, "scriptSig": {"hex": "1600140ef120af7c234da63722c01136c23dfae0540ec3", "asm": "00140ef120af7c234da63722c01136c23dfae0540ec3"}, "vout": 35, "txid": "e383002aca44fc9886b2bf5c84e8e3ce0350f9e0a9f354b42f2f1b8d9be35cfc"}, {"txinwitness": ["304402200f3a5115f13324df29f29a96efe6920285bae0777001e54bece27f2fc7beb5a90220544b662cf2ce5523b7e4c378eb8c637d42db5d9d434c03604532e28f3f51274701", "03ac4a8a6f273937652f79559428e10ecb3ca3d6bf3d87a6df7ca3ccaf8472380a"], "sequence": 16777215, "scriptSig": {"hex": "1600140ef120af7c234da63722c01136c23dfae0540ec3", "asm": "00140ef120af7c234da63722c01136c23dfae0540ec3"}, "vout": 45, "txid": "b14905cf0a2dff093a67c0091ae56551f8acef1431cbcb4a857d8e51ac842a9d"}, {"txinwitness": ["3044022072c0c0c62a96f43b0ba1049211a84dae8b9aa4279d2779f4164bdf0a7a925230022021d92197f5056bd1702ba649be6df6beae45c7bf2b1159c9712b9fa23c63470d01", "03ac4a8a6f273937652f79559428e10ecb3ca3d6bf3d87a6df7ca3ccaf8472380a"], "sequence": 16777215, "scriptSig": {"hex": "1600140ef120af7c234da63722c01136c23dfae0540ec3", "asm": "00140ef120af7c234da63722c01136c23dfae0540ec3"}, "vout": 32, "txid": "2972da85f46341cb23cfc8119484de18ed208768f56702ac2f947a268079e0ef"}, {"txinwitness": ["30450221008ae931061c480306ae326a05202862fe98e22bc8972a3dd8648af25bc9cf07880220773750138f1a9d508c927f35108027a1dac6948955c736ec6e32e9f26229f25c01", "03ac4a8a6f273937652f79559428e10ecb3ca3d6bf3d87a6df7ca3ccaf8472380a"], "sequence": 16777215, "scriptSig": {"hex": "1600140ef120af7c234da63722c01136c23dfae0540ec3", "asm": "00140ef120af7c234da63722c01136c23dfae0540ec3"}, "vout": 35, "txid": "a252d7afc5683fa34683507b187e5b9d04c05dbdded2fab73515af5b0445096e"}, {"txinwitness": ["3045022100bf295b670c352075d71592bc2d43a489131e5d15d28d4ca7e639237100b16e8b02205b593d8879b4f2c0048a7eed6ed60a9cbde7e7bb035956a14b74313bb31cccf501", "03ac4a8a6f273937652f79559428e10ecb3ca3d6bf3d87a6df7ca3ccaf8472380a"], "sequence": 16777215, "scriptSig": {"hex": "1600140ef120af7c234da63722c01136c23dfae0540ec3", "asm": "00140ef120af7c234da63722c01136c23dfae0540ec3"}, "vout": 33, "txid": "3e4b8bb100aac8adb1fc9160ba89266d54f35f08d351038b139580143b71786a"}, {"txinwitness": ["30450221008baee0bfd898cce92f8b49db5603c7f81856d5943d55cac303e2dcc512b74e6f02200e4485fdcf0029cda38afd38d7a05067ee303c175630c0187bd68ce339deacb101", "03ac4a8a6f273937652f79559428e10ecb3ca3d6bf3d87a6df7ca3ccaf8472380a"], "sequence": 16777215, "scriptSig": {"hex": "1600140ef120af7c234da63722c01136c23dfae0540ec3", "asm": "00140ef120af7c234da63722c01136c23dfae0540ec3"}, "vout": 29, "txid": "9a417f0c69d58e7b6dfd78be76064217c4386ccd58b7be6cf34a03e6262a8931"}, {"txinwitness": ["3045022100948195586b16fbdc8fa5225122bf8826309f50301e208596e48de5c7f5a2eb9602205d759bd29a629bd634c0e8b9b694a5eb0d505af8f66088e18a203c62125d879401", "03ac4a8a6f273937652f79559428e10ecb3ca3d6bf3d87a6df7ca3ccaf8472380a"], "sequence": 16777215, "scriptSig": {"hex": "1600140ef120af7c234da63722c01136c23dfae0540ec3", "asm": "00140ef120af7c234da63722c01136c23dfae0540ec3"}, "vout": 34, "txid": "d0eae01655c155bc6eb2e72dd606529109d4f4d1b9473668c6b4e11e7c22f353"}, {"txinwitness": ["30440220360291c9aeb283a38f08ac3d107dd49c7e3ecb16efe57d16a3ce19e8fd18ac66022024c67619a191a7add6d92dc7f0535004db318fb9c30bfff71824973f0957dc3e01", "03762b638e14e3c8126cf909aa05fbeeda52f931d567d5d457d299fb998575996b"], "sequence": 16777215, "scriptSig": {"hex": "160014a795d768461415a5eae853fc38e72e0c917f98b4", "asm": "0014a795d768461415a5eae853fc38e72e0c917f98b4"}, "vout": 1, "txid": "5466ca5fd9d901f1697e96a3488212cc9f1eae0e31b71a46504d10300e3c1a1d"}, {"txinwitness": ["30440220507488ff298832127432f30739a6e3e5d43fb773e9b7ad75f17e50dfa9abdf7b022001a03500f2d6e9c6c764797677b04ac860e035306f61ac564bc61127d6402d9601", "03b4a2a92943875d3c998757c4ead9d4933847c322d78442dbed35283a67e4c7ca"], "sequence": 16777215, "scriptSig": {"hex": "16001434205e364e04efbe1c3b31774ed75c134891f41b", "asm": "001434205e364e04efbe1c3b31774ed75c134891f41b"}, "vout": 1, "txid": "195a6042d8cc42443cdc955efc5f8828bcd414b219f55a3901106810e4b98716"}], "txid": "740d7967a8a06d5311a9cb9ed85c18a1785afb533197fe5b3cdc677f5d9e05f5", "blocktime": 1537870268, "version": 1, "confirmations": 11518, "time": 1537870268, "locktime": 0, "vsize": 1167, "size": 2136}