{"hash": "740e2f24510543d282bc526d476e73f290fbb6d7fd7465c0b0e3c2413fa743a7", "blockhash": "0000000000000000001cda96e906b7601b7a6fb1a3b62bca570a9e5d8f4b3de1", "vout": [{"scriptPubKey": {"reqSigs": 1, "hex": "76a91498147ca51e9390dd2508a200d1c46a22b7ae274388ac", "addresses": ["1Es8FcXpaDSMBJBwtKpbCy6cE51BU1rQWP"], "asm": "OP_DUP OP_HASH160 98147ca51e9390dd2508a200d1c46a22b7ae2743 OP_EQUALVERIFY OP_CHECKSIG", "type": "pubkeyhash"}, "value": 0.09781515, "n": 0}, {"scriptPubKey": {"reqSigs": 1, "hex": "a914f8763d4c8582b2d4b633012540abc293c1193c8687", "addresses": ["3QLm9YCDBR6ocayBCKyNepxmLEYucPBVLa"], "asm": "OP_HASH160 f8763d4c8582b2d4b633012540abc293c1193c86 OP_EQUAL", "type": "scripthash"}, "value": 0.0159062, "n": 1}], "hex": "0100000001014c58a10755dbb89777b4aead9ba1462628b1eeeb81dcc9f61b97fb821707bd00000000fdfd0000473044022068d754f406289854de7eeebf84706dc44790789f8732d3b817e7ef101df1f8e90220687b2a5faf7379d8f67468f5d20a8c59777b1fe4f25bae086852e48ad60085a501483045022100ec948a71b298bed92fb183e9e7af5242ffb1a1a4539d769d4fde12fa077f2ba802202d632ade45981385379bf8bf5d1bbb120911d237d8b05f70fef8ff205d6db233014c69522102b496e57ad7094e73bff11bb2668ae08c3f471553bc51f497169c5034d5b90ad72102a8567b1e777f13a999eedb6aeccefff6cdefb5728c8c15aac5d752593e37bc922103f6780e316f5db10996891be26af2518dc918d0ad524d3c2644633206934ea28653aeffffffff020b419500000000001976a91498147ca51e9390dd2508a200d1c46a22b7ae274388ac5c4518000000000017a914f8763d4c8582b2d4b633012540abc293c1193c868700000000", "vin": [{"sequence": 4294967295, "scriptSig": {"hex": "00473044022068d754f406289854de7eeebf84706dc44790789f8732d3b817e7ef101df1f8e90220687b2a5faf7379d8f67468f5d20a8c59777b1fe4f25bae086852e48ad60085a501483045022100ec948a71b298bed92fb183e9e7af5242ffb1a1a4539d769d4fde12fa077f2ba802202d632ade45981385379bf8bf5d1bbb120911d237d8b05f70fef8ff205d6db233014c69522102b496e57ad7094e73bff11bb2668ae08c3f471553bc51f497169c5034d5b90ad72102a8567b1e777f13a999eedb6aeccefff6cdefb5728c8c15aac5d752593e37bc922103f6780e316f5db10996891be26af2518dc918d0ad524d3c2644633206934ea28653ae", "asm": "0 3044022068d754f406289854de7eeebf84706dc44790789f8732d3b817e7ef101df1f8e90220687b2a5faf7379d8f67468f5d20a8c59777b1fe4f25bae086852e48ad60085a5[ALL] 3045022100ec948a71b298bed92fb183e9e7af5242ffb1a1a4539d769d4fde12fa077f2ba802202d632ade45981385379bf8bf5d1bbb120911d237d8b05f70fef8ff205d6db233[ALL] 522102b496e57ad7094e73bff11bb2668ae08c3f471553bc51f497169c5034d5b90ad72102a8567b1e777f13a999eedb6aeccefff6cdefb5728c8c15aac5d752593e37bc922103f6780e316f5db10996891be26af2518dc918d0ad524d3c2644633206934ea28653ae"}, "vout": 0, "txid": "bd071782fb971bf6c9dc81ebeeb1282646a19badaeb47797b8db5507a1584c01"}], "txid": "740e2f24510543d282bc526d476e73f290fbb6d7fd7465c0b0e3c2413fa743a7", "blocktime": 1537873282, "version": 1, "confirmations": 11484, "time": 1537873282, "locktime": 0, "vsize": 372, "size": 372}