{"hash": "7413809062db869189679cca274a37d02f2439621e9d1125a3b67195f4a5cc33", "blockhash": "0000000000000000001cda96e906b7601b7a6fb1a3b62bca570a9e5d8f4b3de1", "vout": [{"scriptPubKey": {"reqSigs": 1, "hex": "a91469f375adaa237cf2481420845799df4acad3015287", "addresses": ["3BMEXZVxny4xnagVZjRXSbnEyAYxxKWnae"], "asm": "OP_HASH160 69f375adaa237cf2481420845799df4acad30152 OP_EQUAL", "type": "scripthash"}, "value": 0.00391959, "n": 0}, {"scriptPubKey": {"reqSigs": 1, "hex": "00141403d45336ccc253def33ea7422ac79dfae3c308", "addresses": ["bc1qzspag5ekenp98hhn86n5y2k8nhaw8scgvpaldr"], "asm": "0 1403d45336ccc253def33ea7422ac79dfae3c308", "type": "witness_v0_keyhash"}, "value": 0.00017901, "n": 1}], "hex": "010000000170928c216a5b6301eb71793c31a1005060e7155dab0c1d04bdd79ff1db52d9c0630000006a47304402206d47ca30f5f080a47b0a02f405d129e55a5ff1ba2a91ef75eaf664ddb4dc979a02207d7093310ffd3a2e0150829d05420b5b063b3e64cbe93d4c5a584a460d3230180121037551fb9da7d4908add485a48f8c1a342336bb059586291c1bcb3d45c83dfdaf4ffffffff0217fb05000000000017a91469f375adaa237cf2481420845799df4acad3015287ed450000000000001600141403d45336ccc253def33ea7422ac79dfae3c30800000000", "vin": [{"sequence": 4294967295, "scriptSig": {"hex": "47304402206d47ca30f5f080a47b0a02f405d129e55a5ff1ba2a91ef75eaf664ddb4dc979a02207d7093310ffd3a2e0150829d05420b5b063b3e64cbe93d4c5a584a460d3230180121037551fb9da7d4908add485a48f8c1a342336bb059586291c1bcb3d45c83dfdaf4", "asm": "304402206d47ca30f5f080a47b0a02f405d129e55a5ff1ba2a91ef75eaf664ddb4dc979a02207d7093310ffd3a2e0150829d05420b5b063b3e64cbe93d4c5a584a460d323018[ALL] 037551fb9da7d4908add485a48f8c1a342336bb059586291c1bcb3d45c83dfdaf4"}, "vout": 99, "txid": "c0d952dbf19fd7bd041d0cab5d15e7605000a1313c7971eb01635b6a218c9270"}], "txid": "7413809062db869189679cca274a37d02f2439621e9d1125a3b67195f4a5cc33", "blocktime": 1537873282, "version": 1, "confirmations": 11484, "time": 1537873282, "locktime": 0, "vsize": 220, "size": 220}