{"hash": "7414eb784e6cad1337c03f5d8e219854d153a7fdef07ab6cf32cd4116a3e24e2", "blockhash": "0000000000000000001cda96e906b7601b7a6fb1a3b62bca570a9e5d8f4b3de1", "vout": [{"scriptPubKey": {"reqSigs": 1, "hex": "76a914ec1bc5cd0a0ab507dd072cb67259819d64ecdd9388ac", "addresses": ["1NXRjx7Y2AJdXCfMcm7GikBScrj17e63Dn"], "asm": "OP_DUP OP_HASH160 ec1bc5cd0a0ab507dd072cb67259819d64ecdd93 OP_EQUALVERIFY OP_CHECKSIG", "type": "pubkeyhash"}, "value": 0.03904319, "n": 0}], "hex": "010000000132c6876377723ac07d4e402806104bef1003c45b5c8b85ed2b4d7b8a659c396d010000006a47304402200bfcd7e2451868821c39f1f26ec5576a6c229e785cbc0038a38e6ad699614a8c02207886647d616d44b28f44e558e9ae1ff3452fcebdf8bb21fececb932bc29230b9012102f46fc816fb31bcaeec1a6629cb8d8ba1ad8953cde70797df5b77eecbccecd8edffffffff013f933b00000000001976a914ec1bc5cd0a0ab507dd072cb67259819d64ecdd9388ac00000000", "vin": [{"sequence": 4294967295, "scriptSig": {"hex": "47304402200bfcd7e2451868821c39f1f26ec5576a6c229e785cbc0038a38e6ad699614a8c02207886647d616d44b28f44e558e9ae1ff3452fcebdf8bb21fececb932bc29230b9012102f46fc816fb31bcaeec1a6629cb8d8ba1ad8953cde70797df5b77eecbccecd8ed", "asm": "304402200bfcd7e2451868821c39f1f26ec5576a6c229e785cbc0038a38e6ad699614a8c02207886647d616d44b28f44e558e9ae1ff3452fcebdf8bb21fececb932bc29230b9[ALL] 02f46fc816fb31bcaeec1a6629cb8d8ba1ad8953cde70797df5b77eecbccecd8ed"}, "vout": 1, "txid": "6d399c658a7b4d2bed858b5c5bc40310ef4b100628404e7dc03a72776387c632"}], "txid": "7414eb784e6cad1337c03f5d8e219854d153a7fdef07ab6cf32cd4116a3e24e2", "blocktime": 1537873282, "version": 1, "confirmations": 11485, "time": 1537873282, "locktime": 0, "vsize": 191, "size": 191}