{"hash": "4482e3d0caa1b8fd4f89692f87b3603590fad50f02a6f8c4aee4fd1d38cf634f", "blockhash": "0000000000000000001f0ddff1eddb255c1121bcd4da4f1bc9a0da00cae72433", "vout": [{"scriptPubKey": {"reqSigs": 1, "hex": "a914842a6fa9cfef02418fe7cf503c0267073453039d87", "addresses": ["3DjqxPBHmM7cikVXt2RfJBHLkAeQExSpJk"], "asm": "OP_HASH160 842a6fa9cfef02418fe7cf503c0267073453039d OP_EQUAL", "type": "scripthash"}, "value": 0.00431491, "n": 0}, {"scriptPubKey": {"reqSigs": 1, "hex": "a914b85fbf60a6ba90609a7169fe5507d39563c63dd587", "addresses": ["3JVtxVrLZFMtMtiugWpi3tF6Cg2wiNTtMX"], "asm": "OP_HASH160 b85fbf60a6ba90609a7169fe5507d39563c63dd5 OP_EQUAL", "type": "scripthash"}, "value": 0.19002788, "n": 1}], "hex": "0100000000010159ac2efe70ee69dfd3631c5e58405a74b5935a49fb1dfd8c35a24377f870ae1d010000002322002073ce2809cc3eb88107c85ccecfc8905765b7c78a3dae54cc2017f905071e8b7bffffffff02839506000000000017a914842a6fa9cfef02418fe7cf503c0267073453039d87a4f521010000000017a914b85fbf60a6ba90609a7169fe5507d39563c63dd587040047304402200d4bc43b1f7652d0a6216f6afc2f10ed3c641da855a184fdd3199afe32394d46022001187b7ab29a7dfef8d4a428b2f027aa576e4f2492fe611d04a177bdda7c3762014830450221008f52014045a2dabc0fae2e114195f51b53ed0882fbab773646fb4a735d0e082402203106143872d9e710352c344d077b58e4f3c1fa12b493621ea24731851090ef0001475221026a42a9fca583a4a65496c8ddf67116f6af889f3675cd483bf11a335e536a651b2103f62b1d27158b53be9caeae920614d9c61c0d4e3ab8a2b8afbc8e020933c6e68352ae00000000", "vin": [{"txinwitness": ["", "304402200d4bc43b1f7652d0a6216f6afc2f10ed3c641da855a184fdd3199afe32394d46022001187b7ab29a7dfef8d4a428b2f027aa576e4f2492fe611d04a177bdda7c376201", "30450221008f52014045a2dabc0fae2e114195f51b53ed0882fbab773646fb4a735d0e082402203106143872d9e710352c344d077b58e4f3c1fa12b493621ea24731851090ef0001", "5221026a42a9fca583a4a65496c8ddf67116f6af889f3675cd483bf11a335e536a651b2103f62b1d27158b53be9caeae920614d9c61c0d4e3ab8a2b8afbc8e020933c6e68352ae"], "sequence": 4294967295, "scriptSig": {"hex": "22002073ce2809cc3eb88107c85ccecfc8905765b7c78a3dae54cc2017f905071e8b7b", "asm": "002073ce2809cc3eb88107c85ccecfc8905765b7c78a3dae54cc2017f905071e8b7b"}, "vout": 1, "txid": "1dae70f87743a2358cfd1dfb495a93b5745a40585e1c63d3df69ee70fe2eac59"}], "txid": "7415734a04aff14b922ed5478cea96ccdead1ca3a82e79586b86a40087c6e761", "blocktime": 1537872018, "version": 1, "confirmations": 11489, "time": 1537872018, "locktime": 0, "vsize": 206, "size": 371}