{"hash": "741741f0f2db272ad8e01ca49c120dcd76830a74d3b6dc919a7568117e6f87bf", "blockhash": "000000000000000000022b45ed06c6f4ccd3cf7fb5ba4856ebd2e58215665228", "vout": [{"scriptPubKey": {"reqSigs": 1, "hex": "a914db5eb0dd165fd019fedec270319fd6b488767f9887", "addresses": ["3MgwLnt37Gawyts3mfA3xmBMRS7jrwJVV8"], "asm": "OP_HASH160 db5eb0dd165fd019fedec270319fd6b488767f98 OP_EQUAL", "type": "scripthash"}, "value": 1.56318104, "n": 0}], "hex": "0100000004ba28991477c9d041309d0c54787f4d3a8ecef164513a6a056338810e21420861010000006a47304402207fb567332dd62c57a12856f04a07aa1681d3bd69fdf55daccfa697c575657651022013dc137e5dee2de445ef0741fd2b09b7708e9507ade5a2f42901aeb74c960c28012102cf7dbc27e423ad7f692ee2ea32535c1e40be264774a26374aadd0912d5c50a02ffffffff44bafdd402e74cdcd3d93e0bae8ec642f6790657ac38e761249d343c81a94d86010000006a473044022059b6ce14c7191655873f774e3e4e67b5bbde172a25960b42bccd9e9a0d8c8d4f022075a3cb70970e1697b6f98f726582ee9133195ebf8cfc7e7fe776e2f5272cf77c01210384169c0560d886be232110e94f6c0e1a88b5effb08a96d585ec217122de605a7ffffffff4efe6e72aba216e43f8a2277d59ef142eacfba63802e6fdae1627fe83783718e020000006b48304502210098000a8dbf4245b1b9dca943403221a66e9174c02da1dbdf5614959f0e6c28d602202bb1acff0028ee32bf7f07f4e7713f6b67324feda1f2677e7272919ecdaed0a30121039cca02bf2fba82f019e8e6bc652362de7214d95c30c35e2a487aa0ec522bc669ffffffffd6a07e04bfed08816d52cfa6598f16668962547a04590c32af16d3a10005f0cb010000006a4730440220776447c4178e69b218a0f8e78084fbf455449acc361b689ce5a8501708e5d11f022062b65b750f6e54c5010e89381df99cbea7c39f4760c5fcad7b2cd86ce7c1131e0121037edd31a546d9eb169008fefa76228d9a78a8194a4a5534875fcd0e8e6d500453ffffffff01983951090000000017a914db5eb0dd165fd019fedec270319fd6b488767f988700000000", "vin": [{"sequence": 4294967295, "scriptSig": {"hex": "47304402207fb567332dd62c57a12856f04a07aa1681d3bd69fdf55daccfa697c575657651022013dc137e5dee2de445ef0741fd2b09b7708e9507ade5a2f42901aeb74c960c28012102cf7dbc27e423ad7f692ee2ea32535c1e40be264774a26374aadd0912d5c50a02", "asm": "304402207fb567332dd62c57a12856f04a07aa1681d3bd69fdf55daccfa697c575657651022013dc137e5dee2de445ef0741fd2b09b7708e9507ade5a2f42901aeb74c960c28[ALL] 02cf7dbc27e423ad7f692ee2ea32535c1e40be264774a26374aadd0912d5c50a02"}, "vout": 1, "txid": "610842210e813863056a3a5164f1ce8e3a4d7f78540c9d3041d0c977149928ba"}, {"sequence": 4294967295, "scriptSig": {"hex": "473044022059b6ce14c7191655873f774e3e4e67b5bbde172a25960b42bccd9e9a0d8c8d4f022075a3cb70970e1697b6f98f726582ee9133195ebf8cfc7e7fe776e2f5272cf77c01210384169c0560d886be232110e94f6c0e1a88b5effb08a96d585ec217122de605a7", "asm": "3044022059b6ce14c7191655873f774e3e4e67b5bbde172a25960b42bccd9e9a0d8c8d4f022075a3cb70970e1697b6f98f726582ee9133195ebf8cfc7e7fe776e2f5272cf77c[ALL] 0384169c0560d886be232110e94f6c0e1a88b5effb08a96d585ec217122de605a7"}, "vout": 1, "txid": "864da9813c349d2461e738ac570679f642c68eae0b3ed9d3dc4ce702d4fdba44"}, {"sequence": 4294967295, "scriptSig": {"hex": "48304502210098000a8dbf4245b1b9dca943403221a66e9174c02da1dbdf5614959f0e6c28d602202bb1acff0028ee32bf7f07f4e7713f6b67324feda1f2677e7272919ecdaed0a30121039cca02bf2fba82f019e8e6bc652362de7214d95c30c35e2a487aa0ec522bc669", "asm": "304502210098000a8dbf4245b1b9dca943403221a66e9174c02da1dbdf5614959f0e6c28d602202bb1acff0028ee32bf7f07f4e7713f6b67324feda1f2677e7272919ecdaed0a3[ALL] 039cca02bf2fba82f019e8e6bc652362de7214d95c30c35e2a487aa0ec522bc669"}, "vout": 2, "txid": "8e718337e87f62e1da6f2e8063bacfea42f19ed577228a3fe416a2ab726efe4e"}, {"sequence": 4294967295, "scriptSig": {"hex": "4730440220776447c4178e69b218a0f8e78084fbf455449acc361b689ce5a8501708e5d11f022062b65b750f6e54c5010e89381df99cbea7c39f4760c5fcad7b2cd86ce7c1131e0121037edd31a546d9eb169008fefa76228d9a78a8194a4a5534875fcd0e8e6d500453", "asm": "30440220776447c4178e69b218a0f8e78084fbf455449acc361b689ce5a8501708e5d11f022062b65b750f6e54c5010e89381df99cbea7c39f4760c5fcad7b2cd86ce7c1131e[ALL] 037edd31a546d9eb169008fefa76228d9a78a8194a4a5534875fcd0e8e6d500453"}, "vout": 1, "txid": "cbf00500a1d316af320c59047a54628966168f59a6cf526d8108edbf047ea0d6"}], "txid": "741741f0f2db272ad8e01ca49c120dcd76830a74d3b6dc919a7568117e6f87bf", "blocktime": 1537869901, "version": 1, "confirmations": 11524, "time": 1537869901, "locktime": 0, "vsize": 631, "size": 631}