{"hash": "741860bf3844f5ce7e0589db59737eef60e32d7273ae65b2adedab51006d7e41", "blockhash": "0000000000000000000baef3f32e3676a92c3b2e5da21b426e4f302fc371ce76", "vout": [{"scriptPubKey": {"reqSigs": 1, "hex": "76a9143c03f22392ddca5f6d73433d94e041b938e0ab6588ac", "addresses": ["16ULGg1pmbQ7YJ6Ghg3Y9jvPFgExWBYc2Z"], "asm": "OP_DUP OP_HASH160 3c03f22392ddca5f6d73433d94e041b938e0ab65 OP_EQUALVERIFY OP_CHECKSIG", "type": "pubkeyhash"}, "value": 0.002977, "n": 0}, {"scriptPubKey": {"reqSigs": 1, "hex": "76a9145b206f9664622ead0dadae6177454ab6d9241f1e88ac", "addresses": ["19JqM9DPh3ZKL1QV4WVYS7NTiUyjRXQyrA"], "asm": "OP_DUP OP_HASH160 5b206f9664622ead0dadae6177454ab6d9241f1e OP_EQUALVERIFY OP_CHECKSIG", "type": "pubkeyhash"}, "value": 0.57109263, "n": 1}], "hex": "0100000001319b8c7cc7accfdea14f97f4b17e604689a299600e375a9784b81cf4b839c61d010000006a4730440220037fcec21bb0cf72056196c4e07b6cdbe7f2b07219229af1932bc07854d62fc402207597c95aa2d5e07928a0b6ec25eb868b47756dd9ebba0856e9911e33ce43476d012102a752a23464af3e532ea135cd15b0bf7a977941cc52559a8f12ec6a425442f2f9ffffffff02e48a0400000000001976a9143c03f22392ddca5f6d73433d94e041b938e0ab6588ac0f6b6703000000001976a9145b206f9664622ead0dadae6177454ab6d9241f1e88ac00000000", "vin": [{"sequence": 4294967295, "scriptSig": {"hex": "4730440220037fcec21bb0cf72056196c4e07b6cdbe7f2b07219229af1932bc07854d62fc402207597c95aa2d5e07928a0b6ec25eb868b47756dd9ebba0856e9911e33ce43476d012102a752a23464af3e532ea135cd15b0bf7a977941cc52559a8f12ec6a425442f2f9", "asm": "30440220037fcec21bb0cf72056196c4e07b6cdbe7f2b07219229af1932bc07854d62fc402207597c95aa2d5e07928a0b6ec25eb868b47756dd9ebba0856e9911e33ce43476d[ALL] 02a752a23464af3e532ea135cd15b0bf7a977941cc52559a8f12ec6a425442f2f9"}, "vout": 1, "txid": "1dc639b8f41cb884975a370e6099a28946607eb1f4974fa1decfacc77c8c9b31"}], "txid": "741860bf3844f5ce7e0589db59737eef60e32d7273ae65b2adedab51006d7e41", "blocktime": 1537876114, "version": 1, "confirmations": 11460, "time": 1537876114, "locktime": 0, "vsize": 225, "size": 225}