{"hash": "820869d610e669dbb378d9223ff7c2bb265d2f9cc7458e7420c35d86858111a7", "blockhash": "0000000000000000001f76057863aec43deb6fa401d9628bb513d65a8098bfab", "vout": [{"scriptPubKey": {"reqSigs": 1, "hex": "a91474084a500da755a3b1140e0dd3b3957bc19f1c0687", "addresses": ["3CGYEpEJEYUjktwZEYtEy6c8GDNWbnS2Di"], "asm": "OP_HASH160 74084a500da755a3b1140e0dd3b3957bc19f1c06 OP_EQUAL", "type": "scripthash"}, "value": 0.003117, "n": 0}, {"scriptPubKey": {"reqSigs": 1, "hex": "a914d58806ee182b66e2461ee29824be3bc3ec791bef87", "addresses": ["3MA4ojJbqcF5erzNQKojkPv6V45qtRCXAG"], "asm": "OP_HASH160 d58806ee182b66e2461ee29824be3bc3ec791bef OP_EQUAL", "type": "scripthash"}, "value": 0.00991578, "n": 1}], "hex": "0200000000010702b387acda6bc2fb41a324fcbe07d2901fcfc5799051ee9e8e0855c5a8fd39e109000000171600149e8fc2cbb63730f17de7e29ce8f4fa798476d274feffffff1007e572bad770c7b7cd0f2fa0b1a1ba4a4df00545fc1659edff74e21e7cec6f110000001716001462b0045895212e4de7688ea5694958360962fd51feffffff2750163223eb145c8cb21a62de0f87d44c5f9c3def1f36a0f30c6178c2bca1fa5702000017160014cf36253c6b270c785ac37e38c651ef3330e1bba4feffffff4c97a8d9890f74aecb2a86aa6bfafe82b4eb19435baf7afad362ff79e50129760700000017160014bef2e4cd1acfac5a8ab9a54b4b8192feeaf8998afeffffff9a6cb31758cd965012ac6331e450cb9d4641bd00aacb6063459b7886c64e56630300000017160014bef2e4cd1acfac5a8ab9a54b4b8192feeaf8998afeffffffb3f6c2f8012ad754a210fbbfce44f34b4e5468123e98858e3d7b721f05bc47a80700000017160014bef2e4cd1acfac5a8ab9a54b4b8192feeaf8998afeffffffb529eefdc1335cc852e7cfedc2381ad8f0dd0a71af3f8fb89efdecfdf8d67686000000001716001483659a92414c848abf457828088ca8f7c43a4e12feffffff0294c104000000000017a91474084a500da755a3b1140e0dd3b3957bc19f1c06875a210f000000000017a914d58806ee182b66e2461ee29824be3bc3ec791bef87024830450221009995b14c4e48e3eefbee391374b2b2c78db9094e80a0fff08a443da9ae32c721022079c9c95b5fa51f476cd6c0fb2a6143823e9b6609d5338b37f2ecc1627bffdf01012102d43a89c92e8d3f935d8914617862e617687af18c7429d2d75aa41cd1ea9441dd0247304402201efdd198312cc092f55532ad980ee4a006d9375c979c76b6df3e0c1deb46a30302200e39f83d0018bf85a9f4becf2dee6cf250d01a73a3c981a4be62a3c9ea04c5220121038a5734aa3098c9a9d42a15b5d38e815dfad1f56250db13532a5ef15feeb3cf7a02473044022076822b98bc296010fe7c298f3b0c1d1495bcd737761b2bf1de206e669921025a02205cf98e770f67f768874eb502244380504d7861b3e59cdb4df05d02f095578b820121028b5f53f99f8d4d3664cae5b649c05b5dfc31075ff5b9b29952838856300470070247304402203f0f91b720cfe4f313cb821846fed014c62e06a46b7360f0b7dbf02d8deca66702203f1267971afcce335036b15f059ac1208cf88a9122b4d4315b2662f22128ff81012102cb40d7285be606241dc4d9b24c84fbc3dbcb6e1e1f7aec4b821ba600d54d80cd0247304402204bf278910c2b19669ee89b22ee2d078a49efe5a4e3f9be756bfd88fb3d255c1a022028677897d0ce80ef8e8becf4a6c8835d5a343be6e6023c408acde9db2c581aad012102cb40d7285be606241dc4d9b24c84fbc3dbcb6e1e1f7aec4b821ba600d54d80cd02483045022100fa487f6089c479c899178a22606d22be63c2c791e18f0d13dad8bc1ebf76f0e702205be1e3624d2c76871020ab16c06553b21a6e4fca34200374eebbb00fe1da8129012102cb40d7285be606241dc4d9b24c84fbc3dbcb6e1e1f7aec4b821ba600d54d80cd02483045022100b32c0690b27b4c66c04e36d5f6dcf315d76381f01b03a58b77f7a00b83bfb125022027b3a1a4cf24e1e27ce36f0037b0a40c9908a514e42e6eb2ad215da4a897ea12012102516fae9fa43342f0d1970c494df8c492fdeea292052b0a6ce134d12a0bc808c114490800", "vin": [{"txinwitness": ["30450221009995b14c4e48e3eefbee391374b2b2c78db9094e80a0fff08a443da9ae32c721022079c9c95b5fa51f476cd6c0fb2a6143823e9b6609d5338b37f2ecc1627bffdf0101", "02d43a89c92e8d3f935d8914617862e617687af18c7429d2d75aa41cd1ea9441dd"], "sequence": 4294967294, "scriptSig": {"hex": "1600149e8fc2cbb63730f17de7e29ce8f4fa798476d274", "asm": "00149e8fc2cbb63730f17de7e29ce8f4fa798476d274"}, "vout": 9, "txid": "e139fda8c555088e9eee519079c5cf1f90d207befc24a341fbc26bdaac87b302"}, {"txinwitness": ["304402201efdd198312cc092f55532ad980ee4a006d9375c979c76b6df3e0c1deb46a30302200e39f83d0018bf85a9f4becf2dee6cf250d01a73a3c981a4be62a3c9ea04c52201", "038a5734aa3098c9a9d42a15b5d38e815dfad1f56250db13532a5ef15feeb3cf7a"], "sequence": 4294967294, "scriptSig": {"hex": "16001462b0045895212e4de7688ea5694958360962fd51", "asm": "001462b0045895212e4de7688ea5694958360962fd51"}, "vout": 17, "txid": "6fec7c1ee274ffed5916fc4505f04d4abaa1b1a02f0fcdb7c770d7ba72e50710"}, {"txinwitness": ["3044022076822b98bc296010fe7c298f3b0c1d1495bcd737761b2bf1de206e669921025a02205cf98e770f67f768874eb502244380504d7861b3e59cdb4df05d02f095578b8201", "028b5f53f99f8d4d3664cae5b649c05b5dfc31075ff5b9b2995283885630047007"], "sequence": 4294967294, "scriptSig": {"hex": "160014cf36253c6b270c785ac37e38c651ef3330e1bba4", "asm": "0014cf36253c6b270c785ac37e38c651ef3330e1bba4"}, "vout": 599, "txid": "faa1bcc278610cf3a0361fef3d9c5f4cd4870fde621ab28c5c14eb2332165027"}, {"txinwitness": ["304402203f0f91b720cfe4f313cb821846fed014c62e06a46b7360f0b7dbf02d8deca66702203f1267971afcce335036b15f059ac1208cf88a9122b4d4315b2662f22128ff8101", "02cb40d7285be606241dc4d9b24c84fbc3dbcb6e1e1f7aec4b821ba600d54d80cd"], "sequence": 4294967294, "scriptSig": {"hex": "160014bef2e4cd1acfac5a8ab9a54b4b8192feeaf8998a", "asm": "0014bef2e4cd1acfac5a8ab9a54b4b8192feeaf8998a"}, "vout": 7, "txid": "762901e579ff62d3fa7aaf5b4319ebb482fefa6baa862acbae740f89d9a8974c"}, {"txinwitness": ["304402204bf278910c2b19669ee89b22ee2d078a49efe5a4e3f9be756bfd88fb3d255c1a022028677897d0ce80ef8e8becf4a6c8835d5a343be6e6023c408acde9db2c581aad01", "02cb40d7285be606241dc4d9b24c84fbc3dbcb6e1e1f7aec4b821ba600d54d80cd"], "sequence": 4294967294, "scriptSig": {"hex": "160014bef2e4cd1acfac5a8ab9a54b4b8192feeaf8998a", "asm": "0014bef2e4cd1acfac5a8ab9a54b4b8192feeaf8998a"}, "vout": 3, "txid": "63564ec686789b456360cbaa00bd41469dcb50e43163ac125096cd5817b36c9a"}, {"txinwitness": ["3045022100fa487f6089c479c899178a22606d22be63c2c791e18f0d13dad8bc1ebf76f0e702205be1e3624d2c76871020ab16c06553b21a6e4fca34200374eebbb00fe1da812901", "02cb40d7285be606241dc4d9b24c84fbc3dbcb6e1e1f7aec4b821ba600d54d80cd"], "sequence": 4294967294, "scriptSig": {"hex": "160014bef2e4cd1acfac5a8ab9a54b4b8192feeaf8998a", "asm": "0014bef2e4cd1acfac5a8ab9a54b4b8192feeaf8998a"}, "vout": 7, "txid": "a847bc051f727b3d8e85983e1268544e4bf344cebffb10a254d72a01f8c2f6b3"}, {"txinwitness": ["3045022100b32c0690b27b4c66c04e36d5f6dcf315d76381f01b03a58b77f7a00b83bfb125022027b3a1a4cf24e1e27ce36f0037b0a40c9908a514e42e6eb2ad215da4a897ea1201", "02516fae9fa43342f0d1970c494df8c492fdeea292052b0a6ce134d12a0bc808c1"], "sequence": 4294967294, "scriptSig": {"hex": "16001483659a92414c848abf457828088ca8f7c43a4e12", "asm": "001483659a92414c848abf457828088ca8f7c43a4e12"}, "vout": 0, "txid": "8676d6f8fdecfd9eb88f3faf710addf0d81a38c2edcfe752c85c33c1fdee29b5"}], "txid": "741a118702959cf7f83862bf6102d41b3ff90e1839bf7149e4c1b5e230ff8cbc", "blocktime": 1537873891, "version": 2, "confirmations": 11475, "time": 1537873891, "locktime": 542996, "vsize": 711, "size": 1276}