{"hash": "742844cc4110db84fdeb1d991381a54fc6bc45cb463189614dd958bf549aa520", "blockhash": "0000000000000000001f76057863aec43deb6fa401d9628bb513d65a8098bfab", "vout": [{"scriptPubKey": {"reqSigs": 1, "hex": "a91434df1b371f5fcb0e46f11c26de43e1d38b64b76187", "addresses": ["36WaLDYbtftGAXvBdErD9TLaPPtLzV86qN"], "asm": "OP_HASH160 34df1b371f5fcb0e46f11c26de43e1d38b64b761 OP_EQUAL", "type": "scripthash"}, "value": 0.06536701, "n": 0}, {"scriptPubKey": {"reqSigs": 1, "hex": "76a914446ff47562bc8c52d6d3fdd14db4c92fa3a3640688ac", "addresses": ["17Es4otWN585t5JXSeX2ch8hb9SWfozx5t"], "asm": "OP_DUP OP_HASH160 446ff47562bc8c52d6d3fdd14db4c92fa3a36406 OP_EQUALVERIFY OP_CHECKSIG", "type": "pubkeyhash"}, "value": 0.00987885, "n": 1}], "hex": "0100000001f25dd0c790f3efc59c81b185ac14e983d75e47bcf90f9db109454f7cac90f536010000006b483045022100ec69e1362f7097438a750f054216379c674b2c3b8225090f6307c016c7b58328022042bc90d6aa58ad25a5c0427451233c832c7af1a42b9d513d5893e11fe1ef7d1b012102f87e42ace41ccd75837b2c239450d4d75f08352916f73f5fc81998909001e98dffffffff02fdbd63000000000017a91434df1b371f5fcb0e46f11c26de43e1d38b64b76187ed120f00000000001976a914446ff47562bc8c52d6d3fdd14db4c92fa3a3640688ac00000000", "vin": [{"sequence": 4294967295, "scriptSig": {"hex": "483045022100ec69e1362f7097438a750f054216379c674b2c3b8225090f6307c016c7b58328022042bc90d6aa58ad25a5c0427451233c832c7af1a42b9d513d5893e11fe1ef7d1b012102f87e42ace41ccd75837b2c239450d4d75f08352916f73f5fc81998909001e98d", "asm": "3045022100ec69e1362f7097438a750f054216379c674b2c3b8225090f6307c016c7b58328022042bc90d6aa58ad25a5c0427451233c832c7af1a42b9d513d5893e11fe1ef7d1b[ALL] 02f87e42ace41ccd75837b2c239450d4d75f08352916f73f5fc81998909001e98d"}, "vout": 1, "txid": "36f590ac7c4f4509b19d0ff9bc475ed783e914ac85b1819cc5eff390c7d05df2"}], "txid": "742844cc4110db84fdeb1d991381a54fc6bc45cb463189614dd958bf549aa520", "blocktime": 1537873891, "version": 1, "confirmations": 11474, "time": 1537873891, "locktime": 0, "vsize": 224, "size": 224}