{"hash": "742ab07b75168e3f525ba7c93ca2680e0355f550725a3744f648bbc53c845e46", "blockhash": "0000000000000000001cda96e906b7601b7a6fb1a3b62bca570a9e5d8f4b3de1", "vout": [{"scriptPubKey": {"reqSigs": 1, "hex": "76a9149421cb1e5a4f0cbfa53d3bd18c190d7e5b6f0c8488ac", "addresses": ["1EWFVQBdvk2XLhD92Yf8NNVc6RweBWu31w"], "asm": "OP_DUP OP_HASH160 9421cb1e5a4f0cbfa53d3bd18c190d7e5b6f0c84 OP_EQUALVERIFY OP_CHECKSIG", "type": "pubkeyhash"}, "value": 0.00372796, "n": 0}, {"scriptPubKey": {"reqSigs": 1, "hex": "76a9144a0f1e2f2b0d7daeec5265f10bbbbe08ed725e8988ac", "addresses": ["17kb7c9ndg7ioSuzMWEHWECdEVUegNkcGc"], "asm": "OP_DUP OP_HASH160 4a0f1e2f2b0d7daeec5265f10bbbbe08ed725e89 OP_EQUALVERIFY OP_CHECKSIG", "type": "pubkeyhash"}, "value": 0.00062714, "n": 1}], "hex": "0100000001d72208818ff00bfb7328b3b613744d15448e4977d21c5ba262f8d4546a4db3ab010000006b483045022100f83abe528371a289a66a60d563ee6e5615148a464dc88df450dfd41f89e1612402203f965fe19c571026280517bef8244689b6e0afc7b9914c983b289e44288c6e6101210363e1776495149c5a4e92acf453a3caa19000fc804e4ba2024b600ba25e09c943ffffffff023cb00500000000001976a9149421cb1e5a4f0cbfa53d3bd18c190d7e5b6f0c8488acfaf40000000000001976a9144a0f1e2f2b0d7daeec5265f10bbbbe08ed725e8988ac00000000", "vin": [{"sequence": 4294967295, "scriptSig": {"hex": "483045022100f83abe528371a289a66a60d563ee6e5615148a464dc88df450dfd41f89e1612402203f965fe19c571026280517bef8244689b6e0afc7b9914c983b289e44288c6e6101210363e1776495149c5a4e92acf453a3caa19000fc804e4ba2024b600ba25e09c943", "asm": "3045022100f83abe528371a289a66a60d563ee6e5615148a464dc88df450dfd41f89e1612402203f965fe19c571026280517bef8244689b6e0afc7b9914c983b289e44288c6e61[ALL] 0363e1776495149c5a4e92acf453a3caa19000fc804e4ba2024b600ba25e09c943"}, "vout": 1, "txid": "abb34d6a54d4f862a25b1cd277498e44154d7413b6b32873fb0bf08f810822d7"}], "txid": "742ab07b75168e3f525ba7c93ca2680e0355f550725a3744f648bbc53c845e46", "blocktime": 1537873282, "version": 1, "confirmations": 11481, "time": 1537873282, "locktime": 0, "vsize": 226, "size": 226}