{"hash": "d5064f536aadb3967fc6bba92b9ff51083c52c5e7de60f52f752219e6162231b", "blockhash": "0000000000000000001cda96e906b7601b7a6fb1a3b62bca570a9e5d8f4b3de1", "vout": [{"scriptPubKey": {"reqSigs": 1, "hex": "a914ca32349a83432a9e26974c79b4fa713e9a5e335587", "addresses": ["3L88ZdavP7KXJpG6vJfd81xmDegrcdJ3Xw"], "asm": "OP_HASH160 ca32349a83432a9e26974c79b4fa713e9a5e3355 OP_EQUAL", "type": "scripthash"}, "value": 0.19454446, "n": 0}, {"scriptPubKey": {"reqSigs": 1, "hex": "a91417e135a152fe9dc07e2d218b9cd11d839b9d745b87", "addresses": ["33sHFnXVRiu61YfNkk8XCgRCqYFskP7BFQ"], "asm": "OP_HASH160 17e135a152fe9dc07e2d218b9cd11d839b9d745b OP_EQUAL", "type": "scripthash"}, "value": 0.0486, "n": 1}, {"scriptPubKey": {"reqSigs": 1, "hex": "a914b1ae7b127cfe45740efb4d457b5f6fad99f0857387", "addresses": ["3HtWYdf8SmB2HZZLPbek82bG9HgN5EdRN8"], "asm": "OP_HASH160 b1ae7b127cfe45740efb4d457b5f6fad99f08573 OP_EQUAL", "type": "scripthash"}, "value": 0.001255, "n": 2}], "hex": "01000000000101863ee0dd5eecc44d3dab2658959f2663895aa830504870268fc65f5c199f27d60100000023220020a88e11b31d867ff43a16fb153775afdb8a07d01c3c65ba13b81999b9c5ba7127ffffffff03eed928010000000017a914ca32349a83432a9e26974c79b4fa713e9a5e33558760284a000000000017a91417e135a152fe9dc07e2d218b9cd11d839b9d745b873cea01000000000017a914b1ae7b127cfe45740efb4d457b5f6fad99f08573870400463043021f10243121a345c8fe64b53a9c33b0e91379ff2064c488199e08b52e064abd6d02204ef08156b4a5564c01c90adc8fdbf07e8b202c621ce23f698424d55dc684839301483045022100adb6b226954afcbc219130dddfd558e037e1019bc330e3cf3ecf51b774f8311e02200f612ad3549d69cebf180bf4d45324fe033486194f1de8be296acefcb145a08e016952210393d49dbd66a1bc5985093b4f4e785880ce3cb993faf4329ac30e4138c0828f5c2102cb3b9620ccedd1aa87af83db7bfa9b81ffd53bd78abc9bb8c84760a32cdd760a210208473cb26b8b5128139a948090fadfd6b099e1e5695d7f8b1d6aac84113d782653ae00000000", "vin": [{"txinwitness": ["", "3043021f10243121a345c8fe64b53a9c33b0e91379ff2064c488199e08b52e064abd6d02204ef08156b4a5564c01c90adc8fdbf07e8b202c621ce23f698424d55dc684839301", "3045022100adb6b226954afcbc219130dddfd558e037e1019bc330e3cf3ecf51b774f8311e02200f612ad3549d69cebf180bf4d45324fe033486194f1de8be296acefcb145a08e01", "52210393d49dbd66a1bc5985093b4f4e785880ce3cb993faf4329ac30e4138c0828f5c2102cb3b9620ccedd1aa87af83db7bfa9b81ffd53bd78abc9bb8c84760a32cdd760a210208473cb26b8b5128139a948090fadfd6b099e1e5695d7f8b1d6aac84113d782653ae"], "sequence": 4294967295, "scriptSig": {"hex": "220020a88e11b31d867ff43a16fb153775afdb8a07d01c3c65ba13b81999b9c5ba7127", "asm": "0020a88e11b31d867ff43a16fb153775afdb8a07d01c3c65ba13b81999b9c5ba7127"}, "vout": 1, "txid": "d6279f195c5fc68f2670485030a85a8963269f955826ab3d4dc4ec5edde03e86"}], "txid": "743505df91cf40f72eae98b86f848a26e6f30fc420246934c62fc88660fb6e92", "blocktime": 1537873282, "version": 1, "confirmations": 11484, "time": 1537873282, "locktime": 0, "vsize": 246, "size": 436}