{"hash": "7436b47a54572b18c61d9b05a5b3fa18470f836fb5d87d4b3ebd0d6fc7e01dd4", "blockhash": "00000000000000000004ffacab907a6b429b9a5745fa0b75af4234bf69dd7176", "vout": [{"scriptPubKey": {"reqSigs": 1, "hex": "a9149a14734bd724004535737f3aa26974744c466fa387", "addresses": ["3FjiV17F1LqcEPbhoWL9LFNry7GSRUFdiH"], "asm": "OP_HASH160 9a14734bd724004535737f3aa26974744c466fa3 OP_EQUAL", "type": "scripthash"}, "value": 0.16108639, "n": 0}, {"scriptPubKey": {"reqSigs": 1, "hex": "76a9149661f3fcad3edfa1076d1eb84df4af24464d552c88ac", "addresses": ["1Ei9hg4b41EFNvP4CzVvr7D3rmT12iNSGK"], "asm": "OP_DUP OP_HASH160 9661f3fcad3edfa1076d1eb84df4af24464d552c OP_EQUALVERIFY OP_CHECKSIG", "type": "pubkeyhash"}, "value": 0.9135224, "n": 1}], "hex": "010000000143952dda68fb5551106ad8ff1cab1b991c2917ac34c30b70dcc606d3fd75aff3000000006b483045022100ee8a19f0df22eb3b1203ba6d963fb8f5856bb02dfa8782625cd92211048f57dd022034bddf80a236c8a85ac73dba046c56de760e343fda0dbb3d0696e2595a19e113012103190e930f9ca3b2364b28082da543b4e8c7500188adbbbe9f66cb65f9c7cca757ffffffff025fccf5000000000017a9149a14734bd724004535737f3aa26974744c466fa387b0ec7105000000001976a9149661f3fcad3edfa1076d1eb84df4af24464d552c88ac00000000", "vin": [{"sequence": 4294967295, "scriptSig": {"hex": "483045022100ee8a19f0df22eb3b1203ba6d963fb8f5856bb02dfa8782625cd92211048f57dd022034bddf80a236c8a85ac73dba046c56de760e343fda0dbb3d0696e2595a19e113012103190e930f9ca3b2364b28082da543b4e8c7500188adbbbe9f66cb65f9c7cca757", "asm": "3045022100ee8a19f0df22eb3b1203ba6d963fb8f5856bb02dfa8782625cd92211048f57dd022034bddf80a236c8a85ac73dba046c56de760e343fda0dbb3d0696e2595a19e113[ALL] 03190e930f9ca3b2364b28082da543b4e8c7500188adbbbe9f66cb65f9c7cca757"}, "vout": 0, "txid": "f3af75fdd306c6dc700bc334ac17291c991bab1cffd86a105155fb68da2d9543"}], "txid": "7436b47a54572b18c61d9b05a5b3fa18470f836fb5d87d4b3ebd0d6fc7e01dd4", "blocktime": 1537875543, "version": 1, "confirmations": 11464, "time": 1537875543, "locktime": 0, "vsize": 224, "size": 224}