{"hash": "74373b6fdb6a6d18f4671f88c609cd3f87477789d05da60de12da307fd002274", "blockhash": "0000000000000000001cda96e906b7601b7a6fb1a3b62bca570a9e5d8f4b3de1", "vout": [{"scriptPubKey": {"type": "nulldata", "hex": "6a4c50000077d30001a96b65fddc8f5ae6b662aaae5b23cc0f42c2fc38c5e5bf9ae76da98a211a43296e006fb2eb29196dd5f55e2214fc5baa14f50613007cde21a2e91d100759d4ba30d2c37bb011d97e02cf", "asm": "OP_RETURN 000077d30001a96b65fddc8f5ae6b662aaae5b23cc0f42c2fc38c5e5bf9ae76da98a211a43296e006fb2eb29196dd5f55e2214fc5baa14f50613007cde21a2e91d100759d4ba30d2c37bb011d97e02cf"}, "value": 0.0, "n": 0}, {"scriptPubKey": {"reqSigs": 1, "hex": "76a914263b4b8b29ab60adb3365a341802c84671aa33be88ac", "addresses": ["14V9iBidYsd6nJv5Gs2VQgc5PkTKETutKH"], "asm": "OP_DUP OP_HASH160 263b4b8b29ab60adb3365a341802c84671aa33be OP_EQUALVERIFY OP_CHECKSIG", "type": "pubkeyhash"}, "value": 0.0063752, "n": 1}], "hex": "010000000131707a10d0be12a0e5a19da4ad443d6bf729012b6ea46b0b6855833175f02459010000006a473044022052c684d8af4d67a13f2f7f6c955c62b48d96d155a958b1c419670b4d44cc0984022049ee85b9ab07526559bb6f0f4d6233b54cb27cf2fd823b61bb412b04264c6248012103b04078f2599a226a500f3d0f3b8819cf7c4123598e122356404a6209adf00747ffffffff020000000000000000536a4c50000077d30001a96b65fddc8f5ae6b662aaae5b23cc0f42c2fc38c5e5bf9ae76da98a211a43296e006fb2eb29196dd5f55e2214fc5baa14f50613007cde21a2e91d100759d4ba30d2c37bb011d97e02cf50ba0900000000001976a914263b4b8b29ab60adb3365a341802c84671aa33be88ac00000000", "vin": [{"sequence": 4294967295, "scriptSig": {"hex": "473044022052c684d8af4d67a13f2f7f6c955c62b48d96d155a958b1c419670b4d44cc0984022049ee85b9ab07526559bb6f0f4d6233b54cb27cf2fd823b61bb412b04264c6248012103b04078f2599a226a500f3d0f3b8819cf7c4123598e122356404a6209adf00747", "asm": "3044022052c684d8af4d67a13f2f7f6c955c62b48d96d155a958b1c419670b4d44cc0984022049ee85b9ab07526559bb6f0f4d6233b54cb27cf2fd823b61bb412b04264c6248[ALL] 03b04078f2599a226a500f3d0f3b8819cf7c4123598e122356404a6209adf00747"}, "vout": 1, "txid": "5924f075318355680b6ba46e2b0129f76b3d44ada49da1e5a012bed0107a7031"}], "txid": "74373b6fdb6a6d18f4671f88c609cd3f87477789d05da60de12da307fd002274", "blocktime": 1537873282, "version": 1, "confirmations": 11484, "time": 1537873282, "locktime": 0, "vsize": 283, "size": 283}