{"hash": "47239eb7767fa608d61d26d24b57c856306bd0eef36daedba9a900ba2dbfb0fb", "blockhash": "00000000000000000004ffacab907a6b429b9a5745fa0b75af4234bf69dd7176", "vout": [{"scriptPubKey": {"reqSigs": 1, "hex": "a914db93e9f1876acf0d8d24783e6139e9d2cd12e3a887", "addresses": ["3Mi36ngo6Lwmb8kWxPrWiEzPRzQ7PQrsQ1"], "asm": "OP_HASH160 db93e9f1876acf0d8d24783e6139e9d2cd12e3a8 OP_EQUAL", "type": "scripthash"}, "value": 0.015637, "n": 0}, {"scriptPubKey": {"reqSigs": 1, "hex": "a9144de85a1132d75d97f1af6264f08015b075f0965c87", "addresses": ["38nxJQJKaQkWBK2cuo5yKQ6qGt3by5mWv5"], "asm": "OP_HASH160 4de85a1132d75d97f1af6264f08015b075f0965c OP_EQUAL", "type": "scripthash"}, "value": 0.4985371, "n": 1}], "hex": "010000000001017e60acb78567a525c877c0245ff322b31a4c0fa6b0171cb452e08643e4dca17e1600000017160014def00ec17178d0fd8c824b73b29d1433241d1547ffffffff0234dc17000000000017a914db93e9f1876acf0d8d24783e6139e9d2cd12e3a8870eb5f8020000000017a9144de85a1132d75d97f1af6264f08015b075f0965c8702473044022035a3168ee7dfce0790ed806617abfc2abb5543d0a4ed5e0ce5946ece9336f9b6022036792bbc5d16f830d68ea0041c03a7b2869f9f22b5f30b91505556549aa4ecee012103ceea851dfbde00b263260ce04b533772ce7b2787dab5b0970d5d0c57fc94af9100000000", "vin": [{"txinwitness": ["3044022035a3168ee7dfce0790ed806617abfc2abb5543d0a4ed5e0ce5946ece9336f9b6022036792bbc5d16f830d68ea0041c03a7b2869f9f22b5f30b91505556549aa4ecee01", "03ceea851dfbde00b263260ce04b533772ce7b2787dab5b0970d5d0c57fc94af91"], "sequence": 4294967295, "scriptSig": {"hex": "160014def00ec17178d0fd8c824b73b29d1433241d1547", "asm": "0014def00ec17178d0fd8c824b73b29d1433241d1547"}, "vout": 22, "txid": "7ea1dce44386e052b41c17b0a60f4c1ab322f35f24c077c825a56785b7ac607e"}], "txid": "7438f7a1f98de88193b8bbc363bab8b4ecc3285ee7d05fa02b6ab45c438afa85", "blocktime": 1537875543, "version": 1, "confirmations": 11464, "time": 1537875543, "locktime": 0, "vsize": 166, "size": 247}