{"hash": "74421eea85e17ea60a228e7e010f4fa7abba9abc657ded5a9dd17f0c03355be7", "blockhash": "0000000000000000001cda96e906b7601b7a6fb1a3b62bca570a9e5d8f4b3de1", "vout": [{"scriptPubKey": {"reqSigs": 1, "hex": "76a914182c110a8f21e1153bb45b97e4cd6fd04defb91288ac", "addresses": ["13Cp1QMi8V9dp31CuGQaqLt6HY5WmA7Tfu"], "asm": "OP_DUP OP_HASH160 182c110a8f21e1153bb45b97e4cd6fd04defb912 OP_EQUALVERIFY OP_CHECKSIG", "type": "pubkeyhash"}, "value": 0.01090922, "n": 0}, {"scriptPubKey": {"reqSigs": 1, "hex": "76a914b0d8e07fa00ecafe33a2124c3130519dccccb66588ac", "addresses": ["1H85jdve5oZQqLMKa5EZ7CHL5Mn2PmLx8t"], "asm": "OP_DUP OP_HASH160 b0d8e07fa00ecafe33a2124c3130519dccccb665 OP_EQUALVERIFY OP_CHECKSIG", "type": "pubkeyhash"}, "value": 0.358984, "n": 1}], "hex": "0100000001445c01691c575a38cfa8e2d5a8e11b034b6a33c74d31d69a4d683487417c6b38230000006a4730440220284c2a88868f7b6bb75baf0047d41bd0a64b90b1527e88610d0d5edd44f5a99002206061d6e17bc5d491f9bd31a485e5e2975cf3c4b0b852b29a6a8d33b55651e64d0121036707b9ecb76eb3444b58fe4d9349a19c74b0daf3e1ef371771159f9b89054289ffffffff026aa51000000000001976a914182c110a8f21e1153bb45b97e4cd6fd04defb91288ac20c42302000000001976a914b0d8e07fa00ecafe33a2124c3130519dccccb66588ac00000000", "vin": [{"sequence": 4294967295, "scriptSig": {"hex": "4730440220284c2a88868f7b6bb75baf0047d41bd0a64b90b1527e88610d0d5edd44f5a99002206061d6e17bc5d491f9bd31a485e5e2975cf3c4b0b852b29a6a8d33b55651e64d0121036707b9ecb76eb3444b58fe4d9349a19c74b0daf3e1ef371771159f9b89054289", "asm": "30440220284c2a88868f7b6bb75baf0047d41bd0a64b90b1527e88610d0d5edd44f5a99002206061d6e17bc5d491f9bd31a485e5e2975cf3c4b0b852b29a6a8d33b55651e64d[ALL] 036707b9ecb76eb3444b58fe4d9349a19c74b0daf3e1ef371771159f9b89054289"}, "vout": 35, "txid": "386b7c418734684d9ad6314dc7336a4b031be1a8d5e2a8cf385a571c69015c44"}], "txid": "74421eea85e17ea60a228e7e010f4fa7abba9abc657ded5a9dd17f0c03355be7", "blocktime": 1537873282, "version": 1, "confirmations": 11484, "time": 1537873282, "locktime": 0, "vsize": 225, "size": 225}