{"hash": "7444834b89040b564d3a82546437504c6031c7ae0619fdd235ea0a38a2435136", "blockhash": "0000000000000000001e0dab787dd257d1dbfcb92a98c2207d5e1078be1f4165", "vout": [{"scriptPubKey": {"reqSigs": 1, "hex": "0014ab30899482c9462d665c539ae71062162c66061c", "addresses": ["bc1q4vcgn9yze9rz6eju2wdwwyrzzckxvpsuafqzpj"], "asm": "0 ab30899482c9462d665c539ae71062162c66061c", "type": "witness_v0_keyhash"}, "value": 3.061e-05, "n": 0}, {"scriptPubKey": {"reqSigs": 1, "hex": "76a91414ea1612de9ba14d2f22a333e00839155c688a8188ac", "addresses": ["12uawS6ZjNKEkatUVbXYryHELV6Wev2pS6"], "asm": "OP_DUP OP_HASH160 14ea1612de9ba14d2f22a333e00839155c688a81 OP_EQUALVERIFY OP_CHECKSIG", "type": "pubkeyhash"}, "value": 0.00423842, "n": 1}], "hex": "010000000170928c216a5b6301eb71793c31a1005060e7155dab0c1d04bdd79ff1db52d9c04a0000006a4730440220151cbbc1a32ec9777a8cfb0b967ac096873ba024c39cdc9b28a3315aee0e1bd302202721f3dfab793af93268b2e4e1eb6cff69210f386d63534e65fb718497003bc1012103659f1119a1aa6ee70a6207ceb0cd10c37a6f24aeab4be8c4005b3ba15ff7696affffffff02f50b000000000000160014ab30899482c9462d665c539ae71062162c66061ca2770600000000001976a91414ea1612de9ba14d2f22a333e00839155c688a8188ac00000000", "vin": [{"sequence": 4294967295, "scriptSig": {"hex": "4730440220151cbbc1a32ec9777a8cfb0b967ac096873ba024c39cdc9b28a3315aee0e1bd302202721f3dfab793af93268b2e4e1eb6cff69210f386d63534e65fb718497003bc1012103659f1119a1aa6ee70a6207ceb0cd10c37a6f24aeab4be8c4005b3ba15ff7696a", "asm": "30440220151cbbc1a32ec9777a8cfb0b967ac096873ba024c39cdc9b28a3315aee0e1bd302202721f3dfab793af93268b2e4e1eb6cff69210f386d63534e65fb718497003bc1[ALL] 03659f1119a1aa6ee70a6207ceb0cd10c37a6f24aeab4be8c4005b3ba15ff7696a"}, "vout": 74, "txid": "c0d952dbf19fd7bd041d0cab5d15e7605000a1313c7971eb01635b6a218c9270"}], "txid": "7444834b89040b564d3a82546437504c6031c7ae0619fdd235ea0a38a2435136", "blocktime": 1537872475, "version": 1, "confirmations": 11486, "time": 1537872475, "locktime": 0, "vsize": 222, "size": 222}