{"hash": "74474ddcb51f754f8fb927ab34bbca52f34ff4245429ae6af7e790af15ce64ae", "blockhash": "0000000000000000001f76057863aec43deb6fa401d9628bb513d65a8098bfab", "vout": [{"scriptPubKey": {"reqSigs": 1, "hex": "76a91472e2364e814e76d43cdf7fd38acb863a54b158e888ac", "addresses": ["1BUT2N5R22VawEh2umSurkdG6Y8PChPquR"], "asm": "OP_DUP OP_HASH160 72e2364e814e76d43cdf7fd38acb863a54b158e8 OP_EQUALVERIFY OP_CHECKSIG", "type": "pubkeyhash"}, "value": 0.0468199, "n": 0}, {"scriptPubKey": {"reqSigs": 1, "hex": "76a9141fa0cf105b7dab15550c6c5e584fbc7dc425cd9688ac", "addresses": ["13tEb9BX51Bau36XB7ztXWLXYt5q8r6kDv"], "asm": "OP_DUP OP_HASH160 1fa0cf105b7dab15550c6c5e584fbc7dc425cd96 OP_EQUALVERIFY OP_CHECKSIG", "type": "pubkeyhash"}, "value": 0.56713489, "n": 1}], "hex": "0100000001f8646571022a9dd5358d7c369924be71a12cc0fccb9850d648c1e31bce05b9ac010000006b483045022100a1ef142157025a6f6336ff61cfbc3f0bf9f4da96813868a35689f3554c668030022045201b49003e64c150ef362924b915412da71a10a4156005ddf9b6769e0ce8850121026cef1f24dde8e20994dfea287bdd275edfceb57638cb1154244a7ccc2f7e0c41ffffffff0206714700000000001976a91472e2364e814e76d43cdf7fd38acb863a54b158e888ac11616103000000001976a9141fa0cf105b7dab15550c6c5e584fbc7dc425cd9688ac00000000", "vin": [{"sequence": 4294967295, "scriptSig": {"hex": "483045022100a1ef142157025a6f6336ff61cfbc3f0bf9f4da96813868a35689f3554c668030022045201b49003e64c150ef362924b915412da71a10a4156005ddf9b6769e0ce8850121026cef1f24dde8e20994dfea287bdd275edfceb57638cb1154244a7ccc2f7e0c41", "asm": "3045022100a1ef142157025a6f6336ff61cfbc3f0bf9f4da96813868a35689f3554c668030022045201b49003e64c150ef362924b915412da71a10a4156005ddf9b6769e0ce885[ALL] 026cef1f24dde8e20994dfea287bdd275edfceb57638cb1154244a7ccc2f7e0c41"}, "vout": 1, "txid": "acb905ce1be3c148d65098cbfcc02ca171be2499367c8d35d59d2a02716564f8"}], "txid": "74474ddcb51f754f8fb927ab34bbca52f34ff4245429ae6af7e790af15ce64ae", "blocktime": 1537873891, "version": 1, "confirmations": 11478, "time": 1537873891, "locktime": 0, "vsize": 226, "size": 226}