{"hash": "744708d0276cb5a94ec3e6a240b11abdecb4480d40e6419d28ddf4d871ff4252", "blockhash": "0000000000000000000e13cef7c366c0283d82e591d1acd082e914b08063cdf1", "vout": [{"scriptPubKey": {"reqSigs": 1, "hex": "76a91493755ec45c8bdb4437c8b367c9b757592e17b32788ac", "addresses": ["1ESgwDuAtZs84UegcjrNPF5thiE8QaPCSo"], "asm": "OP_DUP OP_HASH160 93755ec45c8bdb4437c8b367c9b757592e17b327 OP_EQUALVERIFY OP_CHECKSIG", "type": "pubkeyhash"}, "value": 0.32449, "n": 0}], "hex": "010000000183e848fceeaf7cf0dacac25a9dca328eb559cee8251d2dea76c1073dc4cdc902000000006a47304402202bbb122896b5ed5ff4137b61cae09392c79c58d25d1d82b50c983da12e5cba0d0220589bc33def06863a0422833dd777208eef9cca8ee2b2962d96efb9286c938d0c012102c8fc1c36747f757616081ff5df49417fb92b4e438eb6f134aba8ed1ce0491636fcffffff01e821ef01000000001976a91493755ec45c8bdb4437c8b367c9b757592e17b32788ac00000000", "vin": [{"sequence": 4294967292, "scriptSig": {"hex": "47304402202bbb122896b5ed5ff4137b61cae09392c79c58d25d1d82b50c983da12e5cba0d0220589bc33def06863a0422833dd777208eef9cca8ee2b2962d96efb9286c938d0c012102c8fc1c36747f757616081ff5df49417fb92b4e438eb6f134aba8ed1ce0491636", "asm": "304402202bbb122896b5ed5ff4137b61cae09392c79c58d25d1d82b50c983da12e5cba0d0220589bc33def06863a0422833dd777208eef9cca8ee2b2962d96efb9286c938d0c[ALL] 02c8fc1c36747f757616081ff5df49417fb92b4e438eb6f134aba8ed1ce0491636"}, "vout": 0, "txid": "02c9cdc43d07c176ea2d1d25e8ce59b58e32ca9d5ac2cadaf07cafeefc48e883"}], "txid": "744708d0276cb5a94ec3e6a240b11abdecb4480d40e6419d28ddf4d871ff4252", "blocktime": 1537871767, "version": 1, "confirmations": 11490, "time": 1537871767, "locktime": 0, "vsize": 191, "size": 191}