{"hash": "99eb344b0fc1b97fbfdc1a8db71da336acbb981d06c06b372e86a753e9471778", "blockhash": "00000000000000000004ffacab907a6b429b9a5745fa0b75af4234bf69dd7176", "vout": [{"scriptPubKey": {"reqSigs": 1, "hex": "76a9143e044aa851fcbab786af66a691365c9cdf61153f88ac", "addresses": ["16ev35iFAZasjtMqRA3N3gbj57RYJfoZdU"], "asm": "OP_DUP OP_HASH160 3e044aa851fcbab786af66a691365c9cdf61153f OP_EQUALVERIFY OP_CHECKSIG", "type": "pubkeyhash"}, "value": 0.04608, "n": 0}, {"scriptPubKey": {"reqSigs": 1, "hex": "a914dee0a1cc9f055700143e0f4ecee53180ab3530dc87", "addresses": ["3N1V2qWA5hpScEmS72pMooYRmXUiLmwPQQ"], "asm": "OP_HASH160 dee0a1cc9f055700143e0f4ecee53180ab3530dc OP_EQUAL", "type": "scripthash"}, "value": 0.73627561, "n": 1}], "hex": "0200000000010177b0745dba9d7e1bf8aa4466d1a0dc8e6782464a545391d1a0b80fff1948e7fd0100000017160014cb5dbe423de4d42b6425c6921084c6197a5d2937ffffffff0200504600000000001976a9143e044aa851fcbab786af66a691365c9cdf61153f88aca97763040000000017a914dee0a1cc9f055700143e0f4ecee53180ab3530dc8702483045022100b0a227cbf3bd14299ebe15459b03b45c437f0a22dbf73791c77f69996be84d5d02207bc07ffdeafa18401a095d01a16bf60b6fa260848c2f8f373358f2a62e515dcf012102acecad485eda786cbe0422823b7594aea6854abb5ec85e267f1c4b87f3f758f700000000", "vin": [{"txinwitness": ["3045022100b0a227cbf3bd14299ebe15459b03b45c437f0a22dbf73791c77f69996be84d5d02207bc07ffdeafa18401a095d01a16bf60b6fa260848c2f8f373358f2a62e515dcf01", "02acecad485eda786cbe0422823b7594aea6854abb5ec85e267f1c4b87f3f758f7"], "sequence": 4294967295, "scriptSig": {"hex": "160014cb5dbe423de4d42b6425c6921084c6197a5d2937", "asm": "0014cb5dbe423de4d42b6425c6921084c6197a5d2937"}, "vout": 1, "txid": "fde74819ff0fb8a0d19153544a4682678edca0d16644aaf81b7e9dba5d74b077"}], "txid": "74515659bd15e2aa0bc99c29d9374d85a52fdec3ca6be804df11510025365bc8", "blocktime": 1537875543, "version": 2, "confirmations": 11464, "time": 1537875543, "locktime": 0, "vsize": 168, "size": 250}