{"hash": "cf73f507af9752ba5de711231ce23fa72355e3c7d864dbef47c871b2a8049452", "blockhash": "0000000000000000000e13cef7c366c0283d82e591d1acd082e914b08063cdf1", "vout": [{"scriptPubKey": {"reqSigs": 1, "hex": "a9149cbcb39aa822a5847494cf41cddd30f5a1884e4987", "addresses": ["3FymPgg3cVxFeGmhnJoetBHMzVNkqWUDCX"], "asm": "OP_HASH160 9cbcb39aa822a5847494cf41cddd30f5a1884e49 OP_EQUAL", "type": "scripthash"}, "value": 0.01002806, "n": 0}, {"scriptPubKey": {"reqSigs": 1, "hex": "76a914e2e935237afbbfe00bd99aaa81246024105058c788ac", "addresses": ["1Mgo5uCE8xnPyzaSukNvFp2KYQNQKmaVky"], "asm": "OP_DUP OP_HASH160 e2e935237afbbfe00bd99aaa81246024105058c7 OP_EQUALVERIFY OP_CHECKSIG", "type": "pubkeyhash"}, "value": 0.0029296, "n": 1}], "hex": "0200000000010239769df1b85351c8a2fa79e35906ac133a98e87182fb287a5eda8cbea3926ef40000000017160014298432aff235bf0ea31bc95ea789dd2071db55f8feffffffa4b96d757fc04939073b082e144b4f94893f05bbf475ad11102ec04b14a728d00800000017160014345da59e8d573f015e4bd66ac917b27c89359cddfeffffff02364d0f000000000017a9149cbcb39aa822a5847494cf41cddd30f5a1884e498760780400000000001976a914e2e935237afbbfe00bd99aaa81246024105058c788ac02473044022039e8c999004015279a3800226c101d0e6e5e7fda75f933f5062bd434434d671f02202dacae2da7d414d215c5bf059aea4e5b274f6b7710aa14df3c2b9d3d6b5a3da3012102723d78a7a33cbc54e3adb1c5fc44e7c525de2fd4ca9999bfaa0f22230aca0b8602473044022036530b8bd35d2e1bc8cb64740fc58ed20182140cd7ed810437ce9a953507bb38022038ac5f5af6dac11a665c1f2f1b11662ee231479156abf1cb564ec9a2913725f001210324d2b7a303362e1263700a5f4311ee91bef39baeb660172b5d162521a008827410490800", "vin": [{"txinwitness": ["3044022039e8c999004015279a3800226c101d0e6e5e7fda75f933f5062bd434434d671f02202dacae2da7d414d215c5bf059aea4e5b274f6b7710aa14df3c2b9d3d6b5a3da301", "02723d78a7a33cbc54e3adb1c5fc44e7c525de2fd4ca9999bfaa0f22230aca0b86"], "sequence": 4294967294, "scriptSig": {"hex": "160014298432aff235bf0ea31bc95ea789dd2071db55f8", "asm": "0014298432aff235bf0ea31bc95ea789dd2071db55f8"}, "vout": 0, "txid": "f46e92a3be8cda5e7a28fb8271e8983a13ac0659e379faa2c85153b8f19d7639"}, {"txinwitness": ["3044022036530b8bd35d2e1bc8cb64740fc58ed20182140cd7ed810437ce9a953507bb38022038ac5f5af6dac11a665c1f2f1b11662ee231479156abf1cb564ec9a2913725f001", "0324d2b7a303362e1263700a5f4311ee91bef39baeb660172b5d162521a0088274"], "sequence": 4294967294, "scriptSig": {"hex": "160014345da59e8d573f015e4bd66ac917b27c89359cdd", "asm": "0014345da59e8d573f015e4bd66ac917b27c89359cdd"}, "vout": 8, "txid": "d028a7144bc02e1011ad75f4bb053f89944f4b142e083b073949c07f756db9a4"}], "txid": "7455a6093a6b80816669313843d140eebdd72eea1a3058ccdd14a4366ba55c90", "blocktime": 1537871767, "version": 2, "confirmations": 11495, "time": 1537871767, "locktime": 542992, "vsize": 258, "size": 420}