{"hash": "cde0c5c77539a9898b10d3f0c3c638dee20585ba2388676479adc80f1519e977", "blockhash": "00000000000000000004ffacab907a6b429b9a5745fa0b75af4234bf69dd7176", "vout": [{"scriptPubKey": {"reqSigs": 1, "hex": "a914f9ec4a5398e93729b1b1ded7aef329104bdac59c87", "addresses": ["3QUVF3rbL6zkXL5uk5mQbf5uFRVJr3Ejyo"], "asm": "OP_HASH160 f9ec4a5398e93729b1b1ded7aef329104bdac59c OP_EQUAL", "type": "scripthash"}, "value": 30.75834113, "n": 0}, {"scriptPubKey": {"reqSigs": 1, "hex": "a9144c6d7880474e5a0ca28f922126797c0b68635bb487", "addresses": ["38f8RHFQ8v6avZqCmaYTga5bTYiuhoM6fh"], "asm": "OP_HASH160 4c6d7880474e5a0ca28f922126797c0b68635bb4 OP_EQUAL", "type": "scripthash"}, "value": 7.59902027, "n": 1}], "hex": "020000000001010fac55a3ebcd580a9e081c1874c560a2081bd28a5d42e74d7506aa5d1abff15400000000171600141fcbcb202d3c094d909913d2f510a0df1964be41feffffff02018155b70000000017a914f9ec4a5398e93729b1b1ded7aef329104bdac59c874b2f4b2d0000000017a9144c6d7880474e5a0ca28f922126797c0b68635bb48702483045022100a365ace4b5d46a3b7d3aca4e38a970ebe6006b9d8ae7c31d0f381f5fbb99abae02205b4743e744cceb9eac743481565b4306ccce250d8d7cc5b3f6e15a5f27db24a60121025c4eb5011c8f018d0ab67a09042eda57e289628eb4436a26d692e30591c1adb716490800", "vin": [{"txinwitness": ["3045022100a365ace4b5d46a3b7d3aca4e38a970ebe6006b9d8ae7c31d0f381f5fbb99abae02205b4743e744cceb9eac743481565b4306ccce250d8d7cc5b3f6e15a5f27db24a601", "025c4eb5011c8f018d0ab67a09042eda57e289628eb4436a26d692e30591c1adb7"], "sequence": 4294967294, "scriptSig": {"hex": "1600141fcbcb202d3c094d909913d2f510a0df1964be41", "asm": "00141fcbcb202d3c094d909913d2f510a0df1964be41"}, "vout": 0, "txid": "54f1bf1a5daa06754de7425d8ad21b08a260c574181c089e0a58cdeba355ac0f"}], "txid": "745818311b070710bd6a888907f4a48dd8a0b068cbfb273c52048979a96c81c7", "blocktime": 1537875543, "version": 2, "confirmations": 11464, "time": 1537875543, "locktime": 542998, "vsize": 166, "size": 248}