{"hash": "745a09ee718c75b328d01f34de0fd5efbc3026abfdad20676797bf730d11a18b", "blockhash": "00000000000000000024a2167bbff67b0be802c0b01cdd79e6331c2be6459f87", "vout": [{"scriptPubKey": {"type": "nulldata", "hex": "6a146f6d6e69000000000000001f0000002258bb1faf", "asm": "OP_RETURN 6f6d6e69000000000000001f0000002258bb1faf"}, "value": 0.0, "n": 0}, {"scriptPubKey": {"reqSigs": 1, "hex": "76a914a25dec4d0011064ef106a983c39c7a540699f22088ac", "addresses": ["1FoWyxwPXuj4C6abqwhjDWdz6D4PZgYRjA"], "asm": "OP_DUP OP_HASH160 a25dec4d0011064ef106a983c39c7a540699f220 OP_EQUALVERIFY OP_CHECKSIG", "type": "pubkeyhash"}, "value": 0.01995188, "n": 1}, {"scriptPubKey": {"reqSigs": 1, "hex": "76a91433195518b4fff3d325304eedcd9d24f07166cfe888ac", "addresses": ["15fBoun1ycfXmD4FpSE7xiTEEdmHMHoPyb"], "asm": "OP_DUP OP_HASH160 33195518b4fff3d325304eedcd9d24f07166cfe8 OP_EQUALVERIFY OP_CHECKSIG", "type": "pubkeyhash"}, "value": 5.46e-06, "n": 2}], "hex": "0100000001a44813c76173a4fe9689194c29809e35be05f1741d9b5e1e9e8bd44070ac1fea630000006a4730440220474e45493917f229aac94f7b5513f44f51d553177b19e804b595c4a880e1974802205ac108b7d769d0024369792ff2f61284b4f9be6ec7adae2be884ec6eebafea68012103da5bac7b36d5aa38f531c6b9601e21bb598a4b6716ebed38b009a55dabde9440feffffff030000000000000000166a146f6d6e69000000000000001f0000002258bb1fafb4711e00000000001976a914a25dec4d0011064ef106a983c39c7a540699f22088ac22020000000000001976a91433195518b4fff3d325304eedcd9d24f07166cfe888ac0c490800", "vin": [{"sequence": 4294967294, "scriptSig": {"hex": "4730440220474e45493917f229aac94f7b5513f44f51d553177b19e804b595c4a880e1974802205ac108b7d769d0024369792ff2f61284b4f9be6ec7adae2be884ec6eebafea68012103da5bac7b36d5aa38f531c6b9601e21bb598a4b6716ebed38b009a55dabde9440", "asm": "30440220474e45493917f229aac94f7b5513f44f51d553177b19e804b595c4a880e1974802205ac108b7d769d0024369792ff2f61284b4f9be6ec7adae2be884ec6eebafea68[ALL] 03da5bac7b36d5aa38f531c6b9601e21bb598a4b6716ebed38b009a55dabde9440"}, "vout": 99, "txid": "ea1fac7040d48b9e1e5e9b1d74f105be359e80294c198996fea47361c71348a4"}], "txid": "745a09ee718c75b328d01f34de0fd5efbc3026abfdad20676797bf730d11a18b", "blocktime": 1537870564, "version": 1, "confirmations": 11515, "time": 1537870564, "locktime": 542988, "vsize": 256, "size": 256}