{"hash": "745a14870f11e5c9579634004b7d004131644bb7574b1109ce8d0f2165092941", "blockhash": "0000000000000000001f0ddff1eddb255c1121bcd4da4f1bc9a0da00cae72433", "vout": [{"scriptPubKey": {"reqSigs": 1, "hex": "a9146dbce5e9e7b94b1d6945ed80584037be9288364f87", "addresses": ["3BhFsKi6PGNNKVFHcasRe8Jw556tvhfJwR"], "asm": "OP_HASH160 6dbce5e9e7b94b1d6945ed80584037be9288364f OP_EQUAL", "type": "scripthash"}, "value": 0.00276092, "n": 0}], "hex": "0100000001134880b7a044064e3b756b99c46a26e60c03e2ae55953ce69ad5e23a122bd661010000006b483045022100a43878f5b56c9d6c25894729ed80d12ad73b2b875df7c4ae8da710a0465decb502205e469ac13c5014131e029dd36c927beae90580825f7314385ae936f5aacc17b60121020e0f8721cb516f3f5b3d2628d5d22017c021738bdf55501bd925829df55c1b38ffffffff017c3604000000000017a9146dbce5e9e7b94b1d6945ed80584037be9288364f8700000000", "vin": [{"sequence": 4294967295, "scriptSig": {"hex": "483045022100a43878f5b56c9d6c25894729ed80d12ad73b2b875df7c4ae8da710a0465decb502205e469ac13c5014131e029dd36c927beae90580825f7314385ae936f5aacc17b60121020e0f8721cb516f3f5b3d2628d5d22017c021738bdf55501bd925829df55c1b38", "asm": "3045022100a43878f5b56c9d6c25894729ed80d12ad73b2b875df7c4ae8da710a0465decb502205e469ac13c5014131e029dd36c927beae90580825f7314385ae936f5aacc17b6[ALL] 020e0f8721cb516f3f5b3d2628d5d22017c021738bdf55501bd925829df55c1b38"}, "vout": 1, "txid": "61d62b123ae2d59ae63c9555aee2030ce6266ac4996b753b4e0644a0b7804813"}], "txid": "745a14870f11e5c9579634004b7d004131644bb7574b1109ce8d0f2165092941", "blocktime": 1537872018, "version": 1, "confirmations": 11489, "time": 1537872018, "locktime": 0, "vsize": 190, "size": 190}