{"hash": "7460f35b6bf598c94fe5ea4136636f145be11163ff4a3b62207fb21bf4cec0f5", "blockhash": "00000000000000000018f53835495a110e01622372bf6ae95dc86f2b0ab887b0", "vout": [{"scriptPubKey": {"reqSigs": 1, "hex": "a914b55775c0ed52cea935d0d28b805cf026b1198bab87", "addresses": ["3JDs16DEzHnvskJEZVTHLsMMjGwiXSJuFz"], "asm": "OP_HASH160 b55775c0ed52cea935d0d28b805cf026b1198bab OP_EQUAL", "type": "scripthash"}, "value": 0.0207801, "n": 0}, {"scriptPubKey": {"reqSigs": 1, "hex": "76a914b7000f21da0c51f57e60d21e549ff4cbb32b839988ac", "addresses": ["1HgcjDJEwe6KBTnEoXURL6UNscdpw9Vehm"], "asm": "OP_DUP OP_HASH160 b7000f21da0c51f57e60d21e549ff4cbb32b8399 OP_EQUALVERIFY OP_CHECKSIG", "type": "pubkeyhash"}, "value": 3.92068402, "n": 1}], "hex": "010000000163d38bbaed8238722af3ace13d379eeedb0834af4322aa4973e1070d54fbcdb6010000006b483045022100b0119191650961a930424c7de4cc9624e22693b873d83b0ef743737ab948c02802206efb09f0575a6664866c0d6355c17a2c34f3f319b997d30f281677bfb3189e94012103cd800f81d903544411cdc62af2f2fdef6ff55e37ae97454b628dfe16f214353effffffff023ab51f000000000017a914b55775c0ed52cea935d0d28b805cf026b1198bab87327d5e17000000001976a914b7000f21da0c51f57e60d21e549ff4cbb32b839988ac00000000", "vin": [{"sequence": 4294967295, "scriptSig": {"hex": "483045022100b0119191650961a930424c7de4cc9624e22693b873d83b0ef743737ab948c02802206efb09f0575a6664866c0d6355c17a2c34f3f319b997d30f281677bfb3189e94012103cd800f81d903544411cdc62af2f2fdef6ff55e37ae97454b628dfe16f214353e", "asm": "3045022100b0119191650961a930424c7de4cc9624e22693b873d83b0ef743737ab948c02802206efb09f0575a6664866c0d6355c17a2c34f3f319b997d30f281677bfb3189e94[ALL] 03cd800f81d903544411cdc62af2f2fdef6ff55e37ae97454b628dfe16f214353e"}, "vout": 1, "txid": "b6cdfb540d07e17349aa2243af3408dbee9e373de1acf32a723882edba8bd363"}], "txid": "7460f35b6bf598c94fe5ea4136636f145be11163ff4a3b62207fb21bf4cec0f5", "blocktime": 1537870928, "version": 1, "confirmations": 11512, "time": 1537870928, "locktime": 0, "vsize": 224, "size": 224}