{"hash": "7460be9c319b4f59bd4b3fe48c39a9962e53ebafed0c1508c5eb477e7c879bd9", "blockhash": "0000000000000000001cda96e906b7601b7a6fb1a3b62bca570a9e5d8f4b3de1", "vout": [{"scriptPubKey": {"reqSigs": 1, "hex": "76a91428bc73d5d1b523577f87184b831b98936cb77de088ac", "addresses": ["14iPnai53WZNztNcaHo3gP9Trx9LN4JsJ2"], "asm": "OP_DUP OP_HASH160 28bc73d5d1b523577f87184b831b98936cb77de0 OP_EQUALVERIFY OP_CHECKSIG", "type": "pubkeyhash"}, "value": 0.00865121, "n": 0}, {"scriptPubKey": {"reqSigs": 1, "hex": "76a914146a3cd97247940f26cf08d3182fe9f28a6d13cc88ac", "addresses": ["12rwnMw9M52QkjVFehJuhnsf1DKmLAFG5F"], "asm": "OP_DUP OP_HASH160 146a3cd97247940f26cf08d3182fe9f28a6d13cc OP_EQUALVERIFY OP_CHECKSIG", "type": "pubkeyhash"}, "value": 0.625446, "n": 1}], "hex": "0100000001fa5ca4583826136cc1ec9f1075f522481d1bdff9bee2564028272af8c617715f000000006b483045022100ca9c0833ebe64afe8acb8282dec91479bc8eab1f3eeb63d8c6f4277f12c9d2670220286437b7b7ff9aaa34615928132e8b58c69de48accc3c45e0914f404c23fd4680121024ae11505e78cdc8a28722531e05a384b20180307097bfbbd2065394787f47d17ffffffff0261330d00000000001976a91428bc73d5d1b523577f87184b831b98936cb77de088acd85aba03000000001976a914146a3cd97247940f26cf08d3182fe9f28a6d13cc88ac00000000", "vin": [{"sequence": 4294967295, "scriptSig": {"hex": "483045022100ca9c0833ebe64afe8acb8282dec91479bc8eab1f3eeb63d8c6f4277f12c9d2670220286437b7b7ff9aaa34615928132e8b58c69de48accc3c45e0914f404c23fd4680121024ae11505e78cdc8a28722531e05a384b20180307097bfbbd2065394787f47d17", "asm": "3045022100ca9c0833ebe64afe8acb8282dec91479bc8eab1f3eeb63d8c6f4277f12c9d2670220286437b7b7ff9aaa34615928132e8b58c69de48accc3c45e0914f404c23fd468[ALL] 024ae11505e78cdc8a28722531e05a384b20180307097bfbbd2065394787f47d17"}, "vout": 0, "txid": "5f7117c6f82a27284056e2bef9df1b1d4822f575109fecc16c13263858a45cfa"}], "txid": "7460be9c319b4f59bd4b3fe48c39a9962e53ebafed0c1508c5eb477e7c879bd9", "blocktime": 1537873282, "version": 1, "confirmations": 11485, "time": 1537873282, "locktime": 0, "vsize": 226, "size": 226}