{"hash": "b5a057c758c729d08df766d44c818e489d348caf2b3f2af54f11972bd46224cd", "blockhash": "00000000000000000004ffacab907a6b429b9a5745fa0b75af4234bf69dd7176", "vout": [{"scriptPubKey": {"reqSigs": 1, "hex": "76a914cefbd3b7451f400696ea52a78e20f0dceadaf7d088ac", "addresses": ["1KsRsmMtspwW13HrhNAxMLySpYnqtE9iCr"], "asm": "OP_DUP OP_HASH160 cefbd3b7451f400696ea52a78e20f0dceadaf7d0 OP_EQUALVERIFY OP_CHECKSIG", "type": "pubkeyhash"}, "value": 0.00364922, "n": 0}, {"scriptPubKey": {"reqSigs": 1, "hex": "a914112f365ef02799b73347c7a826972561d435493e87", "addresses": ["33FsyBLJcstrH9dejcDQwYGCLRp9x4xhqD"], "asm": "OP_HASH160 112f365ef02799b73347c7a826972561d435493e OP_EQUAL", "type": "scripthash"}, "value": 1.99633994, "n": 1}], "hex": "02000000000101adf0ed42468bbd954c235c2f90783695fa48764e1127eb8ff132a00d67a36ae90200000017160014872570f4a1de3dacb7a1a015f25b2061b4168240ffffffff027a910500000000001976a914cefbd3b7451f400696ea52a78e20f0dceadaf7d088ac4a2ce60b0000000017a914112f365ef02799b73347c7a826972561d435493e8702483045022100c37e8cd6bff8515b017e36e43c19c0c4f3bd8e474475e1e1393f01e34bd31b0402205691c2ab2d4fc84f4b094dd7c413d2e8153a7228923e6eb14afdfdde9bc9db0a0121028dd5b865fa3110151512fa2e08cb246a47451dbbe6809c318d7c6b138d45afe500000000", "vin": [{"txinwitness": ["3045022100c37e8cd6bff8515b017e36e43c19c0c4f3bd8e474475e1e1393f01e34bd31b0402205691c2ab2d4fc84f4b094dd7c413d2e8153a7228923e6eb14afdfdde9bc9db0a01", "028dd5b865fa3110151512fa2e08cb246a47451dbbe6809c318d7c6b138d45afe5"], "sequence": 4294967295, "scriptSig": {"hex": "160014872570f4a1de3dacb7a1a015f25b2061b4168240", "asm": "0014872570f4a1de3dacb7a1a015f25b2061b4168240"}, "vout": 2, "txid": "e96aa3670da032f18feb27114e7648fa953678902f5c234c95bd8b4642edf0ad"}], "txid": "746bcd54862528ae95f6f9eecf760f6a537ca86107d951b96b37e41171d56e35", "blocktime": 1537875543, "version": 2, "confirmations": 11464, "time": 1537875543, "locktime": 0, "vsize": 168, "size": 250}