{"hash": "747359c41c4c4a17f04d5ad874d21ac5e54d16243dd3dfd69d64ba11dac1ea26", "blockhash": "0000000000000000000e13cef7c366c0283d82e591d1acd082e914b08063cdf1", "vout": [{"scriptPubKey": {"reqSigs": 1, "hex": "76a914cf6b5f867d2698c96ad8fa3d2a8b11beffed95fe88ac", "addresses": ["1KujW8JQPF3hefPDGabCsNoAoAFTSA77Yh"], "asm": "OP_DUP OP_HASH160 cf6b5f867d2698c96ad8fa3d2a8b11beffed95fe OP_EQUALVERIFY OP_CHECKSIG", "type": "pubkeyhash"}, "value": 0.0064452, "n": 0}, {"scriptPubKey": {"type": "nulldata", "hex": "6a4c50000077900001cafff553811a05816ed077b4e3ef3236678a625097bcbefa6b8351586b4ee56a6fac4c11619f7f1abf07921ee9335baa0c7d06141dc4978739fb1d100759d4ba30d2c37bb011d97e02cf", "asm": "OP_RETURN 000077900001cafff553811a05816ed077b4e3ef3236678a625097bcbefa6b8351586b4ee56a6fac4c11619f7f1abf07921ee9335baa0c7d06141dc4978739fb1d100759d4ba30d2c37bb011d97e02cf"}, "value": 0.0, "n": 1}], "hex": "01000000016e9931306e42fe97bb014bb5a2f11092e8db1990bb965d4cb7d27d7bad2150dd000000006b483045022100d9fad3e3f1a987365816655583db3c01f3398499dcf469b8ab5d155beb1e940502203cbf5a893a2d7bc8ee5dd8d6a1b420b683968f01a0159b7bd58219c9476ee27d012102d29988880a8c0b8d72214c85430316b8078283336c0f83aacc0f4c4984b63618ffffffff02a8d50900000000001976a914cf6b5f867d2698c96ad8fa3d2a8b11beffed95fe88ac0000000000000000536a4c50000077900001cafff553811a05816ed077b4e3ef3236678a625097bcbefa6b8351586b4ee56a6fac4c11619f7f1abf07921ee9335baa0c7d06141dc4978739fb1d100759d4ba30d2c37bb011d97e02cf00000000", "vin": [{"sequence": 4294967295, "scriptSig": {"hex": "483045022100d9fad3e3f1a987365816655583db3c01f3398499dcf469b8ab5d155beb1e940502203cbf5a893a2d7bc8ee5dd8d6a1b420b683968f01a0159b7bd58219c9476ee27d012102d29988880a8c0b8d72214c85430316b8078283336c0f83aacc0f4c4984b63618", "asm": "3045022100d9fad3e3f1a987365816655583db3c01f3398499dcf469b8ab5d155beb1e940502203cbf5a893a2d7bc8ee5dd8d6a1b420b683968f01a0159b7bd58219c9476ee27d[ALL] 02d29988880a8c0b8d72214c85430316b8078283336c0f83aacc0f4c4984b63618"}, "vout": 0, "txid": "dd5021ad7b7dd2b74c5d96bb9019dbe89210f1a2b54b01bb97fe426e3031996e"}], "txid": "747359c41c4c4a17f04d5ad874d21ac5e54d16243dd3dfd69d64ba11dac1ea26", "blocktime": 1537871767, "version": 1, "confirmations": 11495, "time": 1537871767, "locktime": 0, "vsize": 284, "size": 284}