{"hash": "c404f85fe1ea2001c716ec5a8c8b8bb526437f87d65fb1df571822b07ad4e6b6", "blockhash": "0000000000000000000baef3f32e3676a92c3b2e5da21b426e4f302fc371ce76", "vout": [{"scriptPubKey": {"reqSigs": 1, "hex": "a914a28bb4b1f41c1489c5133cad519586c507812d3487", "addresses": ["3GWUkYz12DCmjcCQZLY9XKLepuYUsTVXLn"], "asm": "OP_HASH160 a28bb4b1f41c1489c5133cad519586c507812d34 OP_EQUAL", "type": "scripthash"}, "value": 0.07130245, "n": 0}, {"scriptPubKey": {"reqSigs": 1, "hex": "a91458b2a325e8d901520846764253820bbdc03ea97b87", "addresses": ["39n1PMwUGdRnZTFNw516Xj5bfbpXUX7MJy"], "asm": "OP_HASH160 58b2a325e8d901520846764253820bbdc03ea97b OP_EQUAL", "type": "scripthash"}, "value": 13.68185486, "n": 1}], "hex": "02000000000101abeebbebd1965e6a9e2e047305b46417018109d5dc86de2e33a3a5378c0de8f50200000017160014684f4b925c80ce8eb916456c0d286c03d12a6b9cffffffff0285cc6c000000000017a914a28bb4b1f41c1489c5133cad519586c507812d34878eda8c510000000017a91458b2a325e8d901520846764253820bbdc03ea97b870247304402207999703ab2da8a7fd5b72e02fc4eaa356d02aea6a8ed32c0c3b0ecace2a50f2c02205b4741ebc9d853c661afeeb42129ed06bbaa567873c8b3e0b0b6d5fc7e3a97d101210361b9f97064f38401bdbbc68acb7ba31ae4289c361967d2682946efc12dfc5ae100000000", "vin": [{"txinwitness": ["304402207999703ab2da8a7fd5b72e02fc4eaa356d02aea6a8ed32c0c3b0ecace2a50f2c02205b4741ebc9d853c661afeeb42129ed06bbaa567873c8b3e0b0b6d5fc7e3a97d101", "0361b9f97064f38401bdbbc68acb7ba31ae4289c361967d2682946efc12dfc5ae1"], "sequence": 4294967295, "scriptSig": {"hex": "160014684f4b925c80ce8eb916456c0d286c03d12a6b9c", "asm": "0014684f4b925c80ce8eb916456c0d286c03d12a6b9c"}, "vout": 2, "txid": "f5e80d8c37a5a3332ede86dcd50981011764b40573042e9e6a5e96d1ebbbeeab"}], "txid": "7478b8cfcb0983d5ba742fa24412746345dedbb5083497d948dea030c39bed57", "blocktime": 1537876114, "version": 2, "confirmations": 11460, "time": 1537876114, "locktime": 0, "vsize": 166, "size": 247}