{"hash": "7480db5f484afd571b67622b0400874e5349d059059177a9890d3fd7c75da088", "blockhash": "00000000000000000017f5eb5941039fbcee6240d03bc1f2f8e35350df66a1d8", "vout": [{"scriptPubKey": {"reqSigs": 1, "hex": "76a914cff5fb750bc48054d02902548ea80e9c040dd15a88ac", "addresses": ["1KxbYrdBbHaSSVtJozW36sP7DdAtGLL68y"], "asm": "OP_DUP OP_HASH160 cff5fb750bc48054d02902548ea80e9c040dd15a OP_EQUALVERIFY OP_CHECKSIG", "type": "pubkeyhash"}, "value": 0.03644991, "n": 0}, {"scriptPubKey": {"type": "nulldata", "hex": "6a146f6d6e69000000000000001f00000004a817c800", "asm": "OP_RETURN 6f6d6e69000000000000001f00000004a817c800"}, "value": 0.0, "n": 1}, {"scriptPubKey": {"reqSigs": 1, "hex": "76a9141accf264d86be27cd1a27cf167bc48c70da20aa788ac", "addresses": ["13Si5wnAfiDPQzkL2XJBCkGgD8vmGgd4ef"], "asm": "OP_DUP OP_HASH160 1accf264d86be27cd1a27cf167bc48c70da20aa7 OP_EQUALVERIFY OP_CHECKSIG", "type": "pubkeyhash"}, "value": 5.46e-06, "n": 2}], "hex": "0100000001f4ad39c89353d515c54f34c98be198cb0aced57e2b1e9df7d2a039e424a113b8000000006a473044022007ec7f0c0a83e375c241dd2940d80c52bd6bf5e4cc7a32035224e34c6d8d4c0d02206c53a2402794fddd58644316b76c891996bf2720c7af6d3880ac167a44786c800121034c9ee28259d5e83fc3b92adc9f2d784bb204330205de629c33336451f91808faffffffff033f9e3700000000001976a914cff5fb750bc48054d02902548ea80e9c040dd15a88ac0000000000000000166a146f6d6e69000000000000001f00000004a817c80022020000000000001976a9141accf264d86be27cd1a27cf167bc48c70da20aa788ac00000000", "vin": [{"sequence": 4294967295, "scriptSig": {"hex": "473044022007ec7f0c0a83e375c241dd2940d80c52bd6bf5e4cc7a32035224e34c6d8d4c0d02206c53a2402794fddd58644316b76c891996bf2720c7af6d3880ac167a44786c800121034c9ee28259d5e83fc3b92adc9f2d784bb204330205de629c33336451f91808fa", "asm": "3044022007ec7f0c0a83e375c241dd2940d80c52bd6bf5e4cc7a32035224e34c6d8d4c0d02206c53a2402794fddd58644316b76c891996bf2720c7af6d3880ac167a44786c80[ALL] 034c9ee28259d5e83fc3b92adc9f2d784bb204330205de629c33336451f91808fa"}, "vout": 0, "txid": "b813a124e439a0d2f79d1e2b7ed5ce0acb98e18bc9344fc515d55393c839adf4"}], "txid": "7480db5f484afd571b67622b0400874e5349d059059177a9890d3fd7c75da088", "blocktime": 1537874412, "version": 1, "confirmations": 11466, "time": 1537874412, "locktime": 0, "vsize": 256, "size": 256}