{"hash": "7487f01ae73d908aaab333107bb75daac4a88b99bf778973a7b0f42df80718bf", "blockhash": "00000000000000000017f5eb5941039fbcee6240d03bc1f2f8e35350df66a1d8", "vout": [{"scriptPubKey": {"type": "nulldata", "hex": "6a146f6d6e69000000000000001f000001893452f800", "asm": "OP_RETURN 6f6d6e69000000000000001f000001893452f800"}, "value": 0.0, "n": 0}, {"scriptPubKey": {"reqSigs": 1, "hex": "76a914a25dec4d0011064ef106a983c39c7a540699f22088ac", "addresses": ["1FoWyxwPXuj4C6abqwhjDWdz6D4PZgYRjA"], "asm": "OP_DUP OP_HASH160 a25dec4d0011064ef106a983c39c7a540699f220 OP_EQUALVERIFY OP_CHECKSIG", "type": "pubkeyhash"}, "value": 0.01995188, "n": 1}, {"scriptPubKey": {"reqSigs": 1, "hex": "76a91473d3c582ea649e303e7aae819116ab5ec4f6970f88ac", "addresses": ["1BZSQCrCUNapm5G1oiaFERphoNpQmffNor"], "asm": "OP_DUP OP_HASH160 73d3c582ea649e303e7aae819116ab5ec4f6970f OP_EQUALVERIFY OP_CHECKSIG", "type": "pubkeyhash"}, "value": 5.46e-06, "n": 2}], "hex": "0100000001a44813c76173a4fe9689194c29809e35be05f1741d9b5e1e9e8bd44070ac1fea840000006b483045022100b636b3a2cb82ba774798f95fb2cabed6164170ba276d52396218f2bf8dc220aa02204f49d9cb77072cdf9cb77698aee4a3f3b07ec0077c467298de7636ab40a32e5d012103da5bac7b36d5aa38f531c6b9601e21bb598a4b6716ebed38b009a55dabde9440feffffff030000000000000000166a146f6d6e69000000000000001f000001893452f800b4711e00000000001976a914a25dec4d0011064ef106a983c39c7a540699f22088ac22020000000000001976a91473d3c582ea649e303e7aae819116ab5ec4f6970f88ac15490800", "vin": [{"sequence": 4294967294, "scriptSig": {"hex": "483045022100b636b3a2cb82ba774798f95fb2cabed6164170ba276d52396218f2bf8dc220aa02204f49d9cb77072cdf9cb77698aee4a3f3b07ec0077c467298de7636ab40a32e5d012103da5bac7b36d5aa38f531c6b9601e21bb598a4b6716ebed38b009a55dabde9440", "asm": "3045022100b636b3a2cb82ba774798f95fb2cabed6164170ba276d52396218f2bf8dc220aa02204f49d9cb77072cdf9cb77698aee4a3f3b07ec0077c467298de7636ab40a32e5d[ALL] 03da5bac7b36d5aa38f531c6b9601e21bb598a4b6716ebed38b009a55dabde9440"}, "vout": 132, "txid": "ea1fac7040d48b9e1e5e9b1d74f105be359e80294c198996fea47361c71348a4"}], "txid": "7487f01ae73d908aaab333107bb75daac4a88b99bf778973a7b0f42df80718bf", "blocktime": 1537874412, "version": 1, "confirmations": 11467, "time": 1537874412, "locktime": 542997, "vsize": 257, "size": 257}