{"hash": "7489ce64872890735844e60406f92a62eb146409f26719d229cb64c1a816edb1", "blockhash": "00000000000000000017f5eb5941039fbcee6240d03bc1f2f8e35350df66a1d8", "vout": [{"scriptPubKey": {"reqSigs": 1, "hex": "76a91484010b8e46a681643b28a0ab18e38f30fa5698ef88ac", "addresses": ["1D2ySwUTJc7yYjFv4AGEDgoMEqiWowrpnX"], "asm": "OP_DUP OP_HASH160 84010b8e46a681643b28a0ab18e38f30fa5698ef OP_EQUALVERIFY OP_CHECKSIG", "type": "pubkeyhash"}, "value": 0.00535564, "n": 0}, {"scriptPubKey": {"reqSigs": 1, "hex": "76a914ee0fa515f807a7b993c17f4d25e652ed17226ecd88ac", "addresses": ["1NhkZgSarG28NWK4XwHq8CzKJyvWBH8LLC"], "asm": "OP_DUP OP_HASH160 ee0fa515f807a7b993c17f4d25e652ed17226ecd OP_EQUALVERIFY OP_CHECKSIG", "type": "pubkeyhash"}, "value": 0.01933063, "n": 1}], "hex": "0100000001ac8d1e4a1015ef8a9cd8107a1ce8ee564ea5a25c040559420840f769d967c9d4010000006b483045022100a73f8639f4a264f682ef5e22369a75783d1d3752a9afe8cc9e9caad6ad80cbb1022019fd382037646ffc75178dbe6faeb0a304ade3f86ca049feabea8dc072bdda460121027caefe715e0f75b4d156ab00b98423e4f0d7871333d1372cdfd10f7203c9690bffffffff020c2c0800000000001976a91484010b8e46a681643b28a0ab18e38f30fa5698ef88ac077f1d00000000001976a914ee0fa515f807a7b993c17f4d25e652ed17226ecd88ac00000000", "vin": [{"sequence": 4294967295, "scriptSig": {"hex": "483045022100a73f8639f4a264f682ef5e22369a75783d1d3752a9afe8cc9e9caad6ad80cbb1022019fd382037646ffc75178dbe6faeb0a304ade3f86ca049feabea8dc072bdda460121027caefe715e0f75b4d156ab00b98423e4f0d7871333d1372cdfd10f7203c9690b", "asm": "3045022100a73f8639f4a264f682ef5e22369a75783d1d3752a9afe8cc9e9caad6ad80cbb1022019fd382037646ffc75178dbe6faeb0a304ade3f86ca049feabea8dc072bdda46[ALL] 027caefe715e0f75b4d156ab00b98423e4f0d7871333d1372cdfd10f7203c9690b"}, "vout": 1, "txid": "d4c967d969f74008425905045ca2a54e56eee81c7a10d89c8aef15104a1e8dac"}], "txid": "7489ce64872890735844e60406f92a62eb146409f26719d229cb64c1a816edb1", "blocktime": 1537874412, "version": 1, "confirmations": 11467, "time": 1537874412, "locktime": 0, "vsize": 226, "size": 226}