{"hash": "748caba3583ae08a2f8d468ee4d4f761b91455d6b11989c65ec7e7dfc4640645", "blockhash": "0000000000000000000e13cef7c366c0283d82e591d1acd082e914b08063cdf1", "vout": [{"scriptPubKey": {"reqSigs": 1, "hex": "a9148ec784eed44a3e536ab6c56930c98b6609a56ef087", "addresses": ["3EhxtdEYZ9ifmUKq8UxbwJKtFX19nzCz8v"], "asm": "OP_HASH160 8ec784eed44a3e536ab6c56930c98b6609a56ef0 OP_EQUAL", "type": "scripthash"}, "value": 0.009, "n": 0}, {"scriptPubKey": {"reqSigs": 1, "hex": "76a9145a9c22647bd1738529669a4309db14ee9161da5588ac", "addresses": ["19G6rfpQugRUNMJa5SWwFfCn2TF21GPSvf"], "asm": "OP_DUP OP_HASH160 5a9c22647bd1738529669a4309db14ee9161da55 OP_EQUALVERIFY OP_CHECKSIG", "type": "pubkeyhash"}, "value": 0.41483144, "n": 1}], "hex": "010000000167380b8a92f6f0619b01cae759af90e3465e923e3f280c015574d0f55ae62cbe010000006b483045022100c129eeddc6f1589477a330c1335d9fd81de8ead28457fffe1b746bca210b6ba7022030b45baf51d71afc2842dbc3d115d694ba0a80a1273659eb3118207e72173a1101210300615dd8a04090739aa42be92533bf4f8bcfdd8d50e7ac765536e390f2f2f552ffffffff02a0bb0d000000000017a9148ec784eed44a3e536ab6c56930c98b6609a56ef08788fb7802000000001976a9145a9c22647bd1738529669a4309db14ee9161da5588ac00000000", "vin": [{"sequence": 4294967295, "scriptSig": {"hex": "483045022100c129eeddc6f1589477a330c1335d9fd81de8ead28457fffe1b746bca210b6ba7022030b45baf51d71afc2842dbc3d115d694ba0a80a1273659eb3118207e72173a1101210300615dd8a04090739aa42be92533bf4f8bcfdd8d50e7ac765536e390f2f2f552", "asm": "3045022100c129eeddc6f1589477a330c1335d9fd81de8ead28457fffe1b746bca210b6ba7022030b45baf51d71afc2842dbc3d115d694ba0a80a1273659eb3118207e72173a11[ALL] 0300615dd8a04090739aa42be92533bf4f8bcfdd8d50e7ac765536e390f2f2f552"}, "vout": 1, "txid": "be2ce65af5d07455010c283f3e925e46e390af59e7ca019b61f0f6928a0b3867"}], "txid": "748caba3583ae08a2f8d468ee4d4f761b91455d6b11989c65ec7e7dfc4640645", "blocktime": 1537871767, "version": 1, "confirmations": 11495, "time": 1537871767, "locktime": 0, "vsize": 224, "size": 224}