{"hash": "6c0afd2e2d1c4fc4a8a037b4d9565461182e45aa2abaf4fea1e1e46c18eae95e", "blockhash": "0000000000000000001cda96e906b7601b7a6fb1a3b62bca570a9e5d8f4b3de1", "vout": [{"scriptPubKey": {"reqSigs": 1, "hex": "76a91413da810192002c0589c48ca1d166294ce2a57f0e88ac", "addresses": ["12oybZiKLESZidn5PYKmTWd59GrGYeBozM"], "asm": "OP_DUP OP_HASH160 13da810192002c0589c48ca1d166294ce2a57f0e OP_EQUALVERIFY OP_CHECKSIG", "type": "pubkeyhash"}, "value": 0.00362284, "n": 0}, {"scriptPubKey": {"reqSigs": 1, "hex": "a91457c6a8362abc0a54a0cb113540f37b5deae7808087", "addresses": ["39h8hAjd1NUJ8RxsxUy8s7iJpSdQmf2nE4"], "asm": "OP_HASH160 57c6a8362abc0a54a0cb113540f37b5deae78080 OP_EQUAL", "type": "scripthash"}, "value": 6.44585452, "n": 1}], "hex": "010000000001013f1ea2b98e3d0ea501d82489a31fe180b7035a011f7711cb46eef1d13ba7f2fb01000000232200202c32d4ec4d8d644161bac085fb71020234f7b5a46562cc3274e596a720328e91ffffffff022c870500000000001976a91413da810192002c0589c48ca1d166294ce2a57f0e88acec976b260000000017a91457c6a8362abc0a54a0cb113540f37b5deae78080870400483045022100e1c86cd80d4ee6ffca230323d92c2bd015e022dda8174fca3834cf6e8527c0480220288a982f98eb51ab2448e9322f5f0f1bba85dcf063102e632d2a578a9dd72f080148304502210088022c695def94248927b2bf6b76763f8d54c2852a1993720714f8ed97ce43a802206b4312add48669ca389149210956485b80d4cb7a33ea1efe0450b463741daa74014752210226d4bd116ea31a092e259887024a992f583862c7c62ca3126479e1d95d8ab72a2102dbb50015ecf7a401cd04b4f0dfc384ded081e22c7fc7779564b26f5d0852125252ae00000000", "vin": [{"txinwitness": ["", "3045022100e1c86cd80d4ee6ffca230323d92c2bd015e022dda8174fca3834cf6e8527c0480220288a982f98eb51ab2448e9322f5f0f1bba85dcf063102e632d2a578a9dd72f0801", "304502210088022c695def94248927b2bf6b76763f8d54c2852a1993720714f8ed97ce43a802206b4312add48669ca389149210956485b80d4cb7a33ea1efe0450b463741daa7401", "52210226d4bd116ea31a092e259887024a992f583862c7c62ca3126479e1d95d8ab72a2102dbb50015ecf7a401cd04b4f0dfc384ded081e22c7fc7779564b26f5d0852125252ae"], "sequence": 4294967295, "scriptSig": {"hex": "2200202c32d4ec4d8d644161bac085fb71020234f7b5a46562cc3274e596a720328e91", "asm": "00202c32d4ec4d8d644161bac085fb71020234f7b5a46562cc3274e596a720328e91"}, "vout": 1, "txid": "fbf2a73bd1f1ee46cb11771f015a03b780e11fa38924d801a50e3d8eb9a21e3f"}], "txid": "748fd6d3e043d5fa470a9ad60a305c64745d4fd66d3517a3b32af25e1ec11001", "blocktime": 1537873282, "version": 1, "confirmations": 11485, "time": 1537873282, "locktime": 0, "vsize": 208, "size": 374}