{"hash": "2cb1f068c755f98f975d8e2032eca15d21e959f86bde152a6cd4b9bbb085da0c", "blockhash": "0000000000000000000dcc0f55137456b1a82d3642486a52398922ac4d620174", "vout": [{"scriptPubKey": {"reqSigs": 1, "hex": "0014bbf24dd0df29d0c3778940ed4221647cb8857643", "addresses": ["bc1qh0eym5xl98gvxaufgrk5ygty0jug2ajr27m64m"], "asm": "0 bbf24dd0df29d0c3778940ed4221647cb8857643", "type": "witness_v0_keyhash"}, "value": 1.129e-05, "n": 0}, {"scriptPubKey": {"reqSigs": 1, "hex": "76a9144d1f5358ad91e2067026db89582f88b2c6cc2eed88ac", "addresses": ["182nZJyH9bCfmVg3YKK1abPVz11J4mUNPr"], "asm": "OP_DUP OP_HASH160 4d1f5358ad91e2067026db89582f88b2c6cc2eed OP_EQUALVERIFY OP_CHECKSIG", "type": "pubkeyhash"}, "value": 0.0015, "n": 1}], "hex": "01000000000101f7836652439fd37e0c894bcffb7d35b6d1d43ca3225824ad8172bc7650bbfcff0000000017160014cd30a62d7c5872acd39424d77f5ae7d181e59483ffffffff026904000000000000160014bbf24dd0df29d0c3778940ed4221647cb8857643f0490200000000001976a9144d1f5358ad91e2067026db89582f88b2c6cc2eed88ac0247304402206b9aff9746e2a57428f8b5b7df5ffb5ebae77bce3b7e5a21c3b7b87230286d9a022058a5b5747d6b3dda9ba2541b59ec4b2b88c3d7ca5827a64d2c6ab746e3717faf012102954c9feb70d58b73276615fe066aa5a011825d2843d5a93b8d3554ff40c7542300000000", "vin": [{"txinwitness": ["304402206b9aff9746e2a57428f8b5b7df5ffb5ebae77bce3b7e5a21c3b7b87230286d9a022058a5b5747d6b3dda9ba2541b59ec4b2b88c3d7ca5827a64d2c6ab746e3717faf01", "02954c9feb70d58b73276615fe066aa5a011825d2843d5a93b8d3554ff40c75423"], "sequence": 4294967295, "scriptSig": {"hex": "160014cd30a62d7c5872acd39424d77f5ae7d181e59483", "asm": "0014cd30a62d7c5872acd39424d77f5ae7d181e59483"}, "vout": 0, "txid": "fffcbb5076bc7281ad245822a33cd4d1b6357dfbcf4b890c7ed39f43526683f7"}], "txid": "7490076c8985cfc0034afe45540acee713cb8eb29b05bb8c913b22d64d9452db", "blocktime": 1537870268, "version": 1, "confirmations": 11518, "time": 1537870268, "locktime": 0, "vsize": 167, "size": 248}