{"hash": "1748fa6c9932f89c47f80124d449e7914d9d920418b7d1517654dfe565d34fa3", "blockhash": "0000000000000000000e13cef7c366c0283d82e591d1acd082e914b08063cdf1", "vout": [{"scriptPubKey": {"reqSigs": 1, "hex": "a91494a68294a99d0176d678f2e10b8902a33a2d435287", "addresses": ["3FF1QFuqKhgsynXX92KiSniaDbzBuB2WnP"], "asm": "OP_HASH160 94a68294a99d0176d678f2e10b8902a33a2d4352 OP_EQUAL", "type": "scripthash"}, "value": 0.14822488, "n": 0}, {"scriptPubKey": {"reqSigs": 1, "hex": "a914964e3e09e1cc5b0ce15a7eed4f4b1a91a6038c0387", "addresses": ["3FPm1h3k3jaocmZrhHuKJmcLfj4nepKM7X"], "asm": "OP_HASH160 964e3e09e1cc5b0ce15a7eed4f4b1a91a6038c03 OP_EQUAL", "type": "scripthash"}, "value": 0.01392447, "n": 1}], "hex": "020000000001024733f5f172e14bcc4e78080a775814e6381d9d8d71f695b83636396bd98d8be101000000171600140bc3211c8af2dce02ad5e62bbb85d67a17c6164bfeffffff53ed48d88d6c1022fc39721335d7b8ebd72e416c74f826b29ff33379b41e800802000000171600144cd6ba131c761b8bb4c5a2d37ef87315279ce17afeffffff02582ce2000000000017a91494a68294a99d0176d678f2e10b8902a33a2d4352873f3f15000000000017a914964e3e09e1cc5b0ce15a7eed4f4b1a91a6038c038702483045022100942a91f137b390ba45d492db865013739b469f95e992bab65cff884e25ee3a2b0220554e3a96e8b22c65a413a9ad35d0700079ce0232fe0c1fd7cdec728df328386a012102993c050f0052e3691e4008053df988e2cf200b1409771bdc307b5b2f7a1e86e602483045022100cdd1dd7ec1374ab58683d54da0a2550ba9ffc533dac6f457536b440a2ee74415022031d2a46adb1d9ac476dc9ecd78c618f102e3810c2553b5cfe4b85f348c9344d5012103fd144b15ef6f51f301f933723c919f1a1c456e26299e6efafcfbe664c57c396410490800", "vin": [{"txinwitness": ["3045022100942a91f137b390ba45d492db865013739b469f95e992bab65cff884e25ee3a2b0220554e3a96e8b22c65a413a9ad35d0700079ce0232fe0c1fd7cdec728df328386a01", "02993c050f0052e3691e4008053df988e2cf200b1409771bdc307b5b2f7a1e86e6"], "sequence": 4294967294, "scriptSig": {"hex": "1600140bc3211c8af2dce02ad5e62bbb85d67a17c6164b", "asm": "00140bc3211c8af2dce02ad5e62bbb85d67a17c6164b"}, "vout": 1, "txid": "e18b8dd96b393636b895f6718d9d1d38e61458770a08784ecc4be172f1f53347"}, {"txinwitness": ["3045022100cdd1dd7ec1374ab58683d54da0a2550ba9ffc533dac6f457536b440a2ee74415022031d2a46adb1d9ac476dc9ecd78c618f102e3810c2553b5cfe4b85f348c9344d501", "03fd144b15ef6f51f301f933723c919f1a1c456e26299e6efafcfbe664c57c3964"], "sequence": 4294967294, "scriptSig": {"hex": "1600144cd6ba131c761b8bb4c5a2d37ef87315279ce17a", "asm": "00144cd6ba131c761b8bb4c5a2d37ef87315279ce17a"}, "vout": 2, "txid": "08801eb47933f39fb226f8746c412ed7ebb8d735137239fc22106c8dd848ed53"}], "txid": "749f15f736d7882214347d320d143e4b25cd71f609943cbe433b500a7b5d413d", "blocktime": 1537871767, "version": 2, "confirmations": 11495, "time": 1537871767, "locktime": 542992, "vsize": 257, "size": 420}