{"hash": "74a06b3cf3d2da82e8801302c785c6768ca74549a17bcdad3e7e1c6752a54d8f", "blockhash": "0000000000000000000e13cef7c366c0283d82e591d1acd082e914b08063cdf1", "vout": [{"scriptPubKey": {"reqSigs": 1, "hex": "76a91485b68cfcc72ebbb05c8ebc279476726e46b5402a88ac", "addresses": ["1DC1ZMvJps1oaq2HDgaVxW25ft8wfPp6iK"], "asm": "OP_DUP OP_HASH160 85b68cfcc72ebbb05c8ebc279476726e46b5402a OP_EQUALVERIFY OP_CHECKSIG", "type": "pubkeyhash"}, "value": 0.00644375, "n": 0}, {"scriptPubKey": {"type": "nulldata", "hex": "6a4c50000077910001dde6fdfdde564f0da595b1cce3ef3236678a625097bcbefa6b8351586b4ea7ed46c33936f26a54d23a0fa0d302fb5baa0c820614603bb4bf71161d100759d4ba30d2c37bb011d97e02cf", "asm": "OP_RETURN 000077910001dde6fdfdde564f0da595b1cce3ef3236678a625097bcbefa6b8351586b4ea7ed46c33936f26a54d23a0fa0d302fb5baa0c820614603bb4bf71161d100759d4ba30d2c37bb011d97e02cf"}, "value": 0.0, "n": 1}], "hex": "0100000001be7b3fb4ddbfe929437a4b4f9473340ebcb1f59bb06a71027db4a904be8a3793000000006b483045022100d76c99be91f6a13a5a7856e8cb4eae05c8e55fe264e6b1d024a2f1293a56822902203df4d6d1658e35fd48c2ce790d827baa5ecd11713f566796a180b7fa1f09797e0121025349e577509442101d3752e16afab4f688040a987bbad5d074fa785e6ee0fceeffffffff0217d50900000000001976a91485b68cfcc72ebbb05c8ebc279476726e46b5402a88ac0000000000000000536a4c50000077910001dde6fdfdde564f0da595b1cce3ef3236678a625097bcbefa6b8351586b4ea7ed46c33936f26a54d23a0fa0d302fb5baa0c820614603bb4bf71161d100759d4ba30d2c37bb011d97e02cf00000000", "vin": [{"sequence": 4294967295, "scriptSig": {"hex": "483045022100d76c99be91f6a13a5a7856e8cb4eae05c8e55fe264e6b1d024a2f1293a56822902203df4d6d1658e35fd48c2ce790d827baa5ecd11713f566796a180b7fa1f09797e0121025349e577509442101d3752e16afab4f688040a987bbad5d074fa785e6ee0fcee", "asm": "3045022100d76c99be91f6a13a5a7856e8cb4eae05c8e55fe264e6b1d024a2f1293a56822902203df4d6d1658e35fd48c2ce790d827baa5ecd11713f566796a180b7fa1f09797e[ALL] 025349e577509442101d3752e16afab4f688040a987bbad5d074fa785e6ee0fcee"}, "vout": 0, "txid": "93378abe04a9b47d02716ab09bf5b1bc0e3473944f4b7a4329e9bfddb43f7bbe"}], "txid": "74a06b3cf3d2da82e8801302c785c6768ca74549a17bcdad3e7e1c6752a54d8f", "blocktime": 1537871767, "version": 1, "confirmations": 11495, "time": 1537871767, "locktime": 0, "vsize": 284, "size": 284}