{"hash": "74a545f1ce10bd5df66ae332dc9725770cd024acd9e9623701c858833eacae4c", "blockhash": "0000000000000000001f0ddff1eddb255c1121bcd4da4f1bc9a0da00cae72433", "vout": [{"scriptPubKey": {"reqSigs": 1, "hex": "a914f7e05184692125453d07256b8abaabee9a8e3ef787", "addresses": ["3QHfYqsRe4VjzTt6ErCrhjMu77EvVu1Pqf"], "asm": "OP_HASH160 f7e05184692125453d07256b8abaabee9a8e3ef7 OP_EQUAL", "type": "scripthash"}, "value": 0.21144919, "n": 0}], "hex": "01000000018ffce0b862836ede28fbf9d70dd676978ef0fc16735ea51a2e4df0beb721bae4000000006b483045022100de79d8bf71cb1dabd60055dd08d92c7020c1ef118f26a42af03dc5096101cd64022076a04183fcca24cf8da6888b9a6ae792503aa243456eacf571cc5173d3fa7a9b012102e43eb3f5a896dd2f38281235a840c99ce37056d80009179c5b76dcc20c6c19a4fdffffff0157a542010000000017a914f7e05184692125453d07256b8abaabee9a8e3ef78711490800", "vin": [{"sequence": 4294967293, "scriptSig": {"hex": "483045022100de79d8bf71cb1dabd60055dd08d92c7020c1ef118f26a42af03dc5096101cd64022076a04183fcca24cf8da6888b9a6ae792503aa243456eacf571cc5173d3fa7a9b012102e43eb3f5a896dd2f38281235a840c99ce37056d80009179c5b76dcc20c6c19a4", "asm": "3045022100de79d8bf71cb1dabd60055dd08d92c7020c1ef118f26a42af03dc5096101cd64022076a04183fcca24cf8da6888b9a6ae792503aa243456eacf571cc5173d3fa7a9b[ALL] 02e43eb3f5a896dd2f38281235a840c99ce37056d80009179c5b76dcc20c6c19a4"}, "vout": 0, "txid": "e4ba21b7bef04d2e1aa55e7316fcf08e9776d60dd7f9fb28de6e8362b8e0fc8f"}], "txid": "74a545f1ce10bd5df66ae332dc9725770cd024acd9e9623701c858833eacae4c", "blocktime": 1537872018, "version": 1, "confirmations": 11489, "time": 1537872018, "locktime": 542993, "vsize": 190, "size": 190}