{"hash": "74a7c8d0c771cd2facd1bc554ad50c1a6ee9497726f01c690cb0ec3b08b11ebf", "blockhash": "0000000000000000001cda96e906b7601b7a6fb1a3b62bca570a9e5d8f4b3de1", "vout": [{"scriptPubKey": {"reqSigs": 1, "hex": "0014660aff5bd4f7cd5f6e4b781a77c1aee3bb29221d", "addresses": ["bc1qvc907k757lx47mjt0qd80sdwuwajjgsa7wrv7q"], "asm": "0 660aff5bd4f7cd5f6e4b781a77c1aee3bb29221d", "type": "witness_v0_keyhash"}, "value": 0.010797, "n": 0}, {"scriptPubKey": {"reqSigs": 1, "hex": "001434e9a0c2106deb783b37df51b90c88c61801a0b7", "addresses": ["bc1qxn56psssdh4hswehmagmjrygccvqrg9h54ngfh"], "asm": "0 34e9a0c2106deb783b37df51b90c88c61801a0b7", "type": "witness_v0_keyhash"}, "value": 2.217e-05, "n": 1}], "hex": "0100000001b41c843e27f5fb428b40e4ec26b178a8dc98a6261707b657836f801eb24ed1b5580000006a473044022013864848a732b3aa3d97492f0b89880f96da7920bf8a373ce4524ef4521f81d102206d014cf0f1b6582f8d8e6e8d0d3eea31e1aebcc5cc96d46fc9da74e26b060200012103645ded33a88a1ea56a167d9687dc228d8a66ba3fc09dd896529e0c5058f35d83ffffffff029479100000000000160014660aff5bd4f7cd5f6e4b781a77c1aee3bb29221da90800000000000016001434e9a0c2106deb783b37df51b90c88c61801a0b700000000", "vin": [{"sequence": 4294967295, "scriptSig": {"hex": "473044022013864848a732b3aa3d97492f0b89880f96da7920bf8a373ce4524ef4521f81d102206d014cf0f1b6582f8d8e6e8d0d3eea31e1aebcc5cc96d46fc9da74e26b060200012103645ded33a88a1ea56a167d9687dc228d8a66ba3fc09dd896529e0c5058f35d83", "asm": "3044022013864848a732b3aa3d97492f0b89880f96da7920bf8a373ce4524ef4521f81d102206d014cf0f1b6582f8d8e6e8d0d3eea31e1aebcc5cc96d46fc9da74e26b060200[ALL] 03645ded33a88a1ea56a167d9687dc228d8a66ba3fc09dd896529e0c5058f35d83"}, "vout": 88, "txid": "b5d14eb21e806f8357b6071726a698dca878b126ece4408b42fbf5273e841cb4"}], "txid": "74a7c8d0c771cd2facd1bc554ad50c1a6ee9497726f01c690cb0ec3b08b11ebf", "blocktime": 1537873282, "version": 1, "confirmations": 11484, "time": 1537873282, "locktime": 0, "vsize": 219, "size": 219}