{"hash": "74a997f9699981aeb0c2e2d29d1e137d1b16f4568a1c2635e4f48cf30e04f6cd", "blockhash": "0000000000000000000e13cef7c366c0283d82e591d1acd082e914b08063cdf1", "vout": [{"scriptPubKey": {"reqSigs": 1, "hex": "a914e36d3d9a6097f823de7bd4f6198ee998647c633987", "addresses": ["3NRYBG8rgFaZifUVQ6zX9ECM8BQ13uPzwt"], "asm": "OP_HASH160 e36d3d9a6097f823de7bd4f6198ee998647c6339 OP_EQUAL", "type": "scripthash"}, "value": 8.393e-05, "n": 0}, {"scriptPubKey": {"reqSigs": 1, "hex": "a914ba5637859e13e56ba36752cdd23904c5fb8149af87", "addresses": ["3JgGtgHqFWJHbEYDSFSGnn6eyLZAr1C7mG"], "asm": "OP_HASH160 ba5637859e13e56ba36752cdd23904c5fb8149af OP_EQUAL", "type": "scripthash"}, "value": 0.018427, "n": 1}], "hex": "01000000046d9bd51a7c388159cfee135018be2596b3c172d349e5793cce5f6249c214604c93000000fdfd0000473044022027a679bb0969e7876e8ef963fbc6a2b9196eb3dab11522dea13670ea4beef40602200b12fc73d1a4bba76d184e3ee399ff6f694c524bd5ffa50ad75e3983b52899ec0148304502210087981f3fa90466888573bef921b4695abbf403c46a945198d232cb219324412702206b0e2c3d116b0af146a03247070a84d9350368c7e9bb08403bd8837fd9e31be1014c695221021d6864b74c3182d3de0a51202b20e0bb8925943f57efc5f76c31d63de6065c762103860f8c4b7af9b2d8dd77176091e0ff5ad14f5bea1ef478ca17364971d0ce33542103a58e8521cd1f47df3748260b31db1ab914328841d7ee784d33d01bbcd8cef31753aeffffffff6ad9353dc46fa65da1a4a9ef9c230537d7e1fb6d97a2565f56a65628cfe286536a000000fdfe0000483045022100daba7595a6010fe6acfad6a70a24f4054247147371d34c97b9f12d17cf28ab7002203c3c9731d4c2f30569c0c5a9813658d961576ec33b111d32e52a7b7307b87f5101483045022100a7c7b69db40cfabb91dbc5a4c4cdb7857353106bd8fbb838abc3859da836c5f8022030eb7f96fb17bc620176afdf8d9b262bd17a4ba26473f08817d119b6a0532fa2014c695221021d6864b74c3182d3de0a51202b20e0bb8925943f57efc5f76c31d63de6065c762103860f8c4b7af9b2d8dd77176091e0ff5ad14f5bea1ef478ca17364971d0ce33542103a58e8521cd1f47df3748260b31db1ab914328841d7ee784d33d01bbcd8cef31753aeffffffff11aa11802cbb0b05017af3c78f41f1a097abfc601ecc8e8280db2f300ebab67087000000fdfd000047304402206141bbb241b03b7d4fbcda4c104033eb6aa1efaffc61516fc6f310f6ef1322c60220382e4456938eb8848bb0a8751f8cbb09a9fa3f92a7cd9f24d3b6c5c08700063701483045022100c68bf73337ee5fe3fae6ed680c80ebbced5eade70d7ff0587d7d683fdea14526022047997d2305e1ff92c36a6528700044a1f27749e615d73cd853fd503ddba8bdff014c695221021d6864b74c3182d3de0a51202b20e0bb8925943f57efc5f76c31d63de6065c762103860f8c4b7af9b2d8dd77176091e0ff5ad14f5bea1ef478ca17364971d0ce33542103a58e8521cd1f47df3748260b31db1ab914328841d7ee784d33d01bbcd8cef31753aeffffffff676862497b7bf4bc25c1bbaa3742f8811f35a7ad4bcd5fa4b58f700f2e556d8c5c000000fdfe0000483045022100f9db83c463d5e2f1b41368c1ef5a06d8bdd8f61b28bed7a5edc763c0c37a62990220633ed385ab0984f07a7691148abeaed59c03409f53caa5c94efdcb7c6b38e69001483045022100d901ad79c41c572877daa25fb3803cfb09f6ee893e2278fd42350dd458e9cf0902204f41e53dcb67727a256375df56d9ddacef21047740204174dc2d762340b62b98014c695221021d6864b74c3182d3de0a51202b20e0bb8925943f57efc5f76c31d63de6065c762103860f8c4b7af9b2d8dd77176091e0ff5ad14f5bea1ef478ca17364971d0ce33542103a58e8521cd1f47df3748260b31db1ab914328841d7ee784d33d01bbcd8cef31753aeffffffff02c92000000000000017a914e36d3d9a6097f823de7bd4f6198ee998647c6339870c1e1c000000000017a914ba5637859e13e56ba36752cdd23904c5fb8149af8700000000", "vin": [{"sequence": 4294967295, "scriptSig": {"hex": "00473044022027a679bb0969e7876e8ef963fbc6a2b9196eb3dab11522dea13670ea4beef40602200b12fc73d1a4bba76d184e3ee399ff6f694c524bd5ffa50ad75e3983b52899ec0148304502210087981f3fa90466888573bef921b4695abbf403c46a945198d232cb219324412702206b0e2c3d116b0af146a03247070a84d9350368c7e9bb08403bd8837fd9e31be1014c695221021d6864b74c3182d3de0a51202b20e0bb8925943f57efc5f76c31d63de6065c762103860f8c4b7af9b2d8dd77176091e0ff5ad14f5bea1ef478ca17364971d0ce33542103a58e8521cd1f47df3748260b31db1ab914328841d7ee784d33d01bbcd8cef31753ae", "asm": "0 3044022027a679bb0969e7876e8ef963fbc6a2b9196eb3dab11522dea13670ea4beef40602200b12fc73d1a4bba76d184e3ee399ff6f694c524bd5ffa50ad75e3983b52899ec[ALL] 304502210087981f3fa90466888573bef921b4695abbf403c46a945198d232cb219324412702206b0e2c3d116b0af146a03247070a84d9350368c7e9bb08403bd8837fd9e31be1[ALL] 5221021d6864b74c3182d3de0a51202b20e0bb8925943f57efc5f76c31d63de6065c762103860f8c4b7af9b2d8dd77176091e0ff5ad14f5bea1ef478ca17364971d0ce33542103a58e8521cd1f47df3748260b31db1ab914328841d7ee784d33d01bbcd8cef31753ae"}, "vout": 147, "txid": "4c6014c249625fce3c79e549d372c1b39625be185013eecf5981387c1ad59b6d"}, {"sequence": 4294967295, "scriptSig": {"hex": "00483045022100daba7595a6010fe6acfad6a70a24f4054247147371d34c97b9f12d17cf28ab7002203c3c9731d4c2f30569c0c5a9813658d961576ec33b111d32e52a7b7307b87f5101483045022100a7c7b69db40cfabb91dbc5a4c4cdb7857353106bd8fbb838abc3859da836c5f8022030eb7f96fb17bc620176afdf8d9b262bd17a4ba26473f08817d119b6a0532fa2014c695221021d6864b74c3182d3de0a51202b20e0bb8925943f57efc5f76c31d63de6065c762103860f8c4b7af9b2d8dd77176091e0ff5ad14f5bea1ef478ca17364971d0ce33542103a58e8521cd1f47df3748260b31db1ab914328841d7ee784d33d01bbcd8cef31753ae", "asm": "0 3045022100daba7595a6010fe6acfad6a70a24f4054247147371d34c97b9f12d17cf28ab7002203c3c9731d4c2f30569c0c5a9813658d961576ec33b111d32e52a7b7307b87f51[ALL] 3045022100a7c7b69db40cfabb91dbc5a4c4cdb7857353106bd8fbb838abc3859da836c5f8022030eb7f96fb17bc620176afdf8d9b262bd17a4ba26473f08817d119b6a0532fa2[ALL] 5221021d6864b74c3182d3de0a51202b20e0bb8925943f57efc5f76c31d63de6065c762103860f8c4b7af9b2d8dd77176091e0ff5ad14f5bea1ef478ca17364971d0ce33542103a58e8521cd1f47df3748260b31db1ab914328841d7ee784d33d01bbcd8cef31753ae"}, "vout": 106, "txid": "5386e2cf2856a6565f56a2976dfbe1d73705239cefa9a4a15da66fc43d35d96a"}, {"sequence": 4294967295, "scriptSig": {"hex": "0047304402206141bbb241b03b7d4fbcda4c104033eb6aa1efaffc61516fc6f310f6ef1322c60220382e4456938eb8848bb0a8751f8cbb09a9fa3f92a7cd9f24d3b6c5c08700063701483045022100c68bf73337ee5fe3fae6ed680c80ebbced5eade70d7ff0587d7d683fdea14526022047997d2305e1ff92c36a6528700044a1f27749e615d73cd853fd503ddba8bdff014c695221021d6864b74c3182d3de0a51202b20e0bb8925943f57efc5f76c31d63de6065c762103860f8c4b7af9b2d8dd77176091e0ff5ad14f5bea1ef478ca17364971d0ce33542103a58e8521cd1f47df3748260b31db1ab914328841d7ee784d33d01bbcd8cef31753ae", "asm": "0 304402206141bbb241b03b7d4fbcda4c104033eb6aa1efaffc61516fc6f310f6ef1322c60220382e4456938eb8848bb0a8751f8cbb09a9fa3f92a7cd9f24d3b6c5c087000637[ALL] 3045022100c68bf73337ee5fe3fae6ed680c80ebbced5eade70d7ff0587d7d683fdea14526022047997d2305e1ff92c36a6528700044a1f27749e615d73cd853fd503ddba8bdff[ALL] 5221021d6864b74c3182d3de0a51202b20e0bb8925943f57efc5f76c31d63de6065c762103860f8c4b7af9b2d8dd77176091e0ff5ad14f5bea1ef478ca17364971d0ce33542103a58e8521cd1f47df3748260b31db1ab914328841d7ee784d33d01bbcd8cef31753ae"}, "vout": 135, "txid": "70b6ba0e302fdb80828ecc1e60fcab97a0f1418fc7f37a01050bbb2c8011aa11"}, {"sequence": 4294967295, "scriptSig": {"hex": "00483045022100f9db83c463d5e2f1b41368c1ef5a06d8bdd8f61b28bed7a5edc763c0c37a62990220633ed385ab0984f07a7691148abeaed59c03409f53caa5c94efdcb7c6b38e69001483045022100d901ad79c41c572877daa25fb3803cfb09f6ee893e2278fd42350dd458e9cf0902204f41e53dcb67727a256375df56d9ddacef21047740204174dc2d762340b62b98014c695221021d6864b74c3182d3de0a51202b20e0bb8925943f57efc5f76c31d63de6065c762103860f8c4b7af9b2d8dd77176091e0ff5ad14f5bea1ef478ca17364971d0ce33542103a58e8521cd1f47df3748260b31db1ab914328841d7ee784d33d01bbcd8cef31753ae", "asm": "0 3045022100f9db83c463d5e2f1b41368c1ef5a06d8bdd8f61b28bed7a5edc763c0c37a62990220633ed385ab0984f07a7691148abeaed59c03409f53caa5c94efdcb7c6b38e690[ALL] 3045022100d901ad79c41c572877daa25fb3803cfb09f6ee893e2278fd42350dd458e9cf0902204f41e53dcb67727a256375df56d9ddacef21047740204174dc2d762340b62b98[ALL] 5221021d6864b74c3182d3de0a51202b20e0bb8925943f57efc5f76c31d63de6065c762103860f8c4b7af9b2d8dd77176091e0ff5ad14f5bea1ef478ca17364971d0ce33542103a58e8521cd1f47df3748260b31db1ab914328841d7ee784d33d01bbcd8cef31753ae"}, "vout": 92, "txid": "8c6d552e0f708fb5a45fcd4bada7351f81f84237aabbc125bcf47b7b49626867"}], "txid": "74a997f9699981aeb0c2e2d29d1e137d1b16f4568a1c2635e4f48cf30e04f6cd", "blocktime": 1537871767, "version": 1, "confirmations": 11494, "time": 1537871767, "locktime": 0, "vsize": 1260, "size": 1260}