{"hash": "74aa4c1ce39d7d9d8eda5cb1e1864716c3b1425f5a2ad6333ba6d0a01212799a", "blockhash": "0000000000000000001e0dab787dd257d1dbfcb92a98c2207d5e1078be1f4165", "vout": [{"scriptPubKey": {"reqSigs": 1, "hex": "76a914317b92d79d69eb1ec2f6df48d1121d81e53f04aa88ac", "addresses": ["15We9Sm1cPmSgtsBoD8BLBhRStsdFp4ppG"], "asm": "OP_DUP OP_HASH160 317b92d79d69eb1ec2f6df48d1121d81e53f04aa OP_EQUALVERIFY OP_CHECKSIG", "type": "pubkeyhash"}, "value": 0.00046859, "n": 0}, {"scriptPubKey": {"reqSigs": 1, "hex": "76a914f8cb09cbfcda1efc8ac931f58981668133aaac3b88ac", "addresses": ["1PgVovNVewBbzy3Jp877wVnwg52tviGXVu"], "asm": "OP_DUP OP_HASH160 f8cb09cbfcda1efc8ac931f58981668133aaac3b OP_EQUALVERIFY OP_CHECKSIG", "type": "pubkeyhash"}, "value": 0.00203629, "n": 1}], "hex": "0100000001d79ac02dad381be4b7243626b3c0d471779ce8dc8e3f3bd1fab4e6342488b921000000006a4730440220699b4c1c23dd2856144163d34f4062e864a971bb2dff2a875b6eae06aa2de8ec022002887109492613168aba3f870aec0cbc61f667cdb37a4d230e0ed11a731c63f2012103bb48a8b94ee54e0f4c34a3d42aa39a8ab74f1ad1d82bb3629f12ac5d7c348a96ffffffff020bb70000000000001976a914317b92d79d69eb1ec2f6df48d1121d81e53f04aa88ac6d1b0300000000001976a914f8cb09cbfcda1efc8ac931f58981668133aaac3b88ac00000000", "vin": [{"sequence": 4294967295, "scriptSig": {"hex": "4730440220699b4c1c23dd2856144163d34f4062e864a971bb2dff2a875b6eae06aa2de8ec022002887109492613168aba3f870aec0cbc61f667cdb37a4d230e0ed11a731c63f2012103bb48a8b94ee54e0f4c34a3d42aa39a8ab74f1ad1d82bb3629f12ac5d7c348a96", "asm": "30440220699b4c1c23dd2856144163d34f4062e864a971bb2dff2a875b6eae06aa2de8ec022002887109492613168aba3f870aec0cbc61f667cdb37a4d230e0ed11a731c63f2[ALL] 03bb48a8b94ee54e0f4c34a3d42aa39a8ab74f1ad1d82bb3629f12ac5d7c348a96"}, "vout": 0, "txid": "21b9882434e6b4fad13b3f8edce89c7771d4c0b3263624b7e41b38ad2dc09ad7"}], "txid": "74aa4c1ce39d7d9d8eda5cb1e1864716c3b1425f5a2ad6333ba6d0a01212799a", "blocktime": 1537872475, "version": 1, "confirmations": 11486, "time": 1537872475, "locktime": 0, "vsize": 225, "size": 225}