{"hash": "74abb865fee1714c1fd110882ac105390873f135fe194315a10c45d2613be30f", "blockhash": "0000000000000000000e13cef7c366c0283d82e591d1acd082e914b08063cdf1", "vout": [{"scriptPubKey": {"reqSigs": 1, "hex": "76a9147d02dcbe7e255537449e0932cfb20160827660fe88ac", "addresses": ["1CPztrWaeG52M3PbSuKixb5EZb6CmJCSZb"], "asm": "OP_DUP OP_HASH160 7d02dcbe7e255537449e0932cfb20160827660fe OP_EQUALVERIFY OP_CHECKSIG", "type": "pubkeyhash"}, "value": 0.05603713, "n": 0}, {"scriptPubKey": {"reqSigs": 1, "hex": "76a9142bf00758057e4826a969ef7e5c0e5933cad6667c88ac", "addresses": ["151Kbjb1HVWuVeHiyHVAinAEUDKzRbBBb1"], "asm": "OP_DUP OP_HASH160 2bf00758057e4826a969ef7e5c0e5933cad6667c OP_EQUALVERIFY OP_CHECKSIG", "type": "pubkeyhash"}, "value": 0.32944737, "n": 1}], "hex": "010000000186898a27c0b0291f02b38046dcab01de53281288dc2cca948daa3013b7048d44010000006b483045022100ad6b35dc6e6df4be7080d20bd2c184565bc1a6751fb38ed942c6f3545ed0dd9c02204616596cd1e364b0b327675113879cc4aa03f2f6d27c7e4fcded72976e35b840012102705e2da6776cc857b9ba142e767b705a42063c4aaa06429d7d1af401c06cf983ffffffff0281815500000000001976a9147d02dcbe7e255537449e0932cfb20160827660fe88ac61b2f601000000001976a9142bf00758057e4826a969ef7e5c0e5933cad6667c88ac00000000", "vin": [{"sequence": 4294967295, "scriptSig": {"hex": "483045022100ad6b35dc6e6df4be7080d20bd2c184565bc1a6751fb38ed942c6f3545ed0dd9c02204616596cd1e364b0b327675113879cc4aa03f2f6d27c7e4fcded72976e35b840012102705e2da6776cc857b9ba142e767b705a42063c4aaa06429d7d1af401c06cf983", "asm": "3045022100ad6b35dc6e6df4be7080d20bd2c184565bc1a6751fb38ed942c6f3545ed0dd9c02204616596cd1e364b0b327675113879cc4aa03f2f6d27c7e4fcded72976e35b840[ALL] 02705e2da6776cc857b9ba142e767b705a42063c4aaa06429d7d1af401c06cf983"}, "vout": 1, "txid": "448d04b71330aa8d94ca2cdc88122853de01abdc4680b3021f29b0c0278a8986"}], "txid": "74abb865fee1714c1fd110882ac105390873f135fe194315a10c45d2613be30f", "blocktime": 1537871767, "version": 1, "confirmations": 11495, "time": 1537871767, "locktime": 0, "vsize": 226, "size": 226}