{"hash": "74ad4232f95f9976f489b9257c8d3a89e545acb53c8d9bec66a5686a734fd9f8", "blockhash": "0000000000000000000baef3f32e3676a92c3b2e5da21b426e4f302fc371ce76", "vout": [{"scriptPubKey": {"type": "nulldata", "hex": "6a4c50000078000001f88600651fb77b8e6189ffbad19ed074892d00f8e87af8e8e963c7cfd5b9f991beae7f275407d7b31575f78965d75baa19f9061349277ae2cc7b0117e706f8a4c9d02528a348b20ac714", "asm": "OP_RETURN 000078000001f88600651fb77b8e6189ffbad19ed074892d00f8e87af8e8e963c7cfd5b9f991beae7f275407d7b31575f78965d75baa19f9061349277ae2cc7b0117e706f8a4c9d02528a348b20ac714"}, "value": 0.0, "n": 0}, {"scriptPubKey": {"reqSigs": 1, "hex": "76a914b2c8acc948e710a6eb0d75c32359f5602a37007e88ac", "addresses": ["1HJKgHZWrjamvSrKT3ULYvcuSxPBs1ydze"], "asm": "OP_DUP OP_HASH160 b2c8acc948e710a6eb0d75c32359f5602a37007e OP_EQUALVERIFY OP_CHECKSIG", "type": "pubkeyhash"}, "value": 4.81e-05, "n": 1}], "hex": "0100000001f74c78dbeba3b7b8621381b30182c5cb8149bf909247b366bfb61532511a143c000000006a4730440220126a7274379d1493b97fa921ec800204aa18277bdf64543541e574bc98dc71ef02204587b938e8dc3cfaaf1e0f4e2b55e956dc780a4901763782ea6bf2c5bf2ff86d012103d4ed5dddfc8afd5409c0c30eec1a219107199c06b8ca603a70f7f15d27baeff4ffffffff020000000000000000536a4c50000078000001f88600651fb77b8e6189ffbad19ed074892d00f8e87af8e8e963c7cfd5b9f991beae7f275407d7b31575f78965d75baa19f9061349277ae2cc7b0117e706f8a4c9d02528a348b20ac714ca120000000000001976a914b2c8acc948e710a6eb0d75c32359f5602a37007e88ac00000000", "vin": [{"sequence": 4294967295, "scriptSig": {"hex": "4730440220126a7274379d1493b97fa921ec800204aa18277bdf64543541e574bc98dc71ef02204587b938e8dc3cfaaf1e0f4e2b55e956dc780a4901763782ea6bf2c5bf2ff86d012103d4ed5dddfc8afd5409c0c30eec1a219107199c06b8ca603a70f7f15d27baeff4", "asm": "30440220126a7274379d1493b97fa921ec800204aa18277bdf64543541e574bc98dc71ef02204587b938e8dc3cfaaf1e0f4e2b55e956dc780a4901763782ea6bf2c5bf2ff86d[ALL] 03d4ed5dddfc8afd5409c0c30eec1a219107199c06b8ca603a70f7f15d27baeff4"}, "vout": 0, "txid": "3c141a513215b6bf66b3479290bf4981cbc58201b3811362b8b7a3ebdb784cf7"}], "txid": "74ad4232f95f9976f489b9257c8d3a89e545acb53c8d9bec66a5686a734fd9f8", "blocktime": 1537876114, "version": 1, "confirmations": 11460, "time": 1537876114, "locktime": 0, "vsize": 283, "size": 283}