{"hash": "74b01554357bc3a8a138d1e085401b572fe4989e64f8af9f37c0cbec2467ae85", "blockhash": "0000000000000000000dcc0f55137456b1a82d3642486a52398922ac4d620174", "vout": [{"scriptPubKey": {"reqSigs": 1, "hex": "76a9146d83e9874d17511e21fb0d2af04fea6285de75b988ac", "addresses": ["1Az4gLDUszbNkuuaJS4m9TPR3K5rrJ1SMN"], "asm": "OP_DUP OP_HASH160 6d83e9874d17511e21fb0d2af04fea6285de75b9 OP_EQUALVERIFY OP_CHECKSIG", "type": "pubkeyhash"}, "value": 0.004675, "n": 0}, {"scriptPubKey": {"reqSigs": 1, "hex": "76a914947579f7055a637e35a1e119678d7a96844b957d88ac", "addresses": ["1EXyjoAtHynXjqMYuNfghvEiYD5hHGtNcV"], "asm": "OP_DUP OP_HASH160 947579f7055a637e35a1e119678d7a96844b957d OP_EQUALVERIFY OP_CHECKSIG", "type": "pubkeyhash"}, "value": 0.69520555, "n": 1}], "hex": "0100000001fe071b5d4bc8681711d31d7fea9ab1a92a66375a9ee0107b79d002398602d58e010000006b48304502210090de6d8b61492bbca07111e4eca3e733fc7b984c5129d2ad5eb17e64c302b7ca022036877b30952e31ed717774d4dfb56aa1f145382f3c5e110dcec62017eb060386012102407c8f0f4aac0afc4fda05974d87774db3aafb20c539514d0b3b4be83c883dddffffffff022c220700000000001976a9146d83e9874d17511e21fb0d2af04fea6285de75b988acabcc2404000000001976a914947579f7055a637e35a1e119678d7a96844b957d88ac00000000", "vin": [{"sequence": 4294967295, "scriptSig": {"hex": "48304502210090de6d8b61492bbca07111e4eca3e733fc7b984c5129d2ad5eb17e64c302b7ca022036877b30952e31ed717774d4dfb56aa1f145382f3c5e110dcec62017eb060386012102407c8f0f4aac0afc4fda05974d87774db3aafb20c539514d0b3b4be83c883ddd", "asm": "304502210090de6d8b61492bbca07111e4eca3e733fc7b984c5129d2ad5eb17e64c302b7ca022036877b30952e31ed717774d4dfb56aa1f145382f3c5e110dcec62017eb060386[ALL] 02407c8f0f4aac0afc4fda05974d87774db3aafb20c539514d0b3b4be83c883ddd"}, "vout": 1, "txid": "8ed502863902d0797b10e09e5a37662aa9b19aea7f1dd3111768c84b5d1b07fe"}], "txid": "74b01554357bc3a8a138d1e085401b572fe4989e64f8af9f37c0cbec2467ae85", "blocktime": 1537870268, "version": 1, "confirmations": 11518, "time": 1537870268, "locktime": 0, "vsize": 226, "size": 226}