{"hash": "74b32c4e1c75712d0bcb401127b73b29dea9d22501c5416aac64424baebc356d", "blockhash": "0000000000000000000e13cef7c366c0283d82e591d1acd082e914b08063cdf1", "vout": [{"scriptPubKey": {"reqSigs": 1, "hex": "a914eb63814426325afe8f2f8df57e2b9dd27a8d36dd87", "addresses": ["3P9dvMBVsVfmo2YP1NugTDWaAc54JFnEGB"], "asm": "OP_HASH160 eb63814426325afe8f2f8df57e2b9dd27a8d36dd OP_EQUAL", "type": "scripthash"}, "value": 0.0787, "n": 0}, {"scriptPubKey": {"reqSigs": 1, "hex": "76a914cebb2851a9c7cfe2582c12ecaf7f3ff4383d1dc088ac", "addresses": ["1Kr6QSydW9bFQG1mXiPNNu6WpJGmUa9i1g"], "asm": "OP_DUP OP_HASH160 cebb2851a9c7cfe2582c12ecaf7f3ff4383d1dc0 OP_EQUALVERIFY OP_CHECKSIG", "type": "pubkeyhash"}, "value": 66.79950581, "n": 1}], "hex": "020000000394e224860b671fd72e62f4ec8a4622e650e3ef2fdfcf7914876aac747fbb194f040000006a473044022061418ab22d8cee598d8f55743043cd54d408fce0f34dab61d93029415d7c7d23022050b26475fb0d017cd5bfcfe35c0ab34103ab614e5ba43412644e198452565ea7012103786af4b32017ec640dba2d2a7e1fd5aa4a231a658e4cbc114d51c031576e19bcffffffff7357519f3402582202b2a5f828931ace701ba29b1dddaa0c6485b821d8038791000000006a473044022070c57e62ba7864316440f89d2cb910fdda9d1799e3db5ac9904647496d52f4b80220575dc9e99e5d716754802be4ae48bd315cbf5e80c832b0d17d3a0e771458fb72012103fe3ca072d7b06448d70c0c27051117f9c8c2b9455e34e539f816c75b3c046831ffffffff3d03e417d8683fa019972143987b7c1cadf412c952da72b7d41c80d3049d9280010000006a473044022029a66e44c2f2d25e797f8ee90354df2306e8016ae0a88760bbedaa81fc85576f02204bf39b29288b1115d562fc06889e1529326a8268f5020935abdac48e6beecf0c012103a3be09719906893361053658255b29e7f7367aa745ffb2a9ac050315d9c4a5c6ffffffff02301678000000000017a914eb63814426325afe8f2f8df57e2b9dd27a8d36dd87f5f4278e010000001976a914cebb2851a9c7cfe2582c12ecaf7f3ff4383d1dc088ac00000000", "vin": [{"sequence": 4294967295, "scriptSig": {"hex": "473044022061418ab22d8cee598d8f55743043cd54d408fce0f34dab61d93029415d7c7d23022050b26475fb0d017cd5bfcfe35c0ab34103ab614e5ba43412644e198452565ea7012103786af4b32017ec640dba2d2a7e1fd5aa4a231a658e4cbc114d51c031576e19bc", "asm": "3044022061418ab22d8cee598d8f55743043cd54d408fce0f34dab61d93029415d7c7d23022050b26475fb0d017cd5bfcfe35c0ab34103ab614e5ba43412644e198452565ea7[ALL] 03786af4b32017ec640dba2d2a7e1fd5aa4a231a658e4cbc114d51c031576e19bc"}, "vout": 4, "txid": "4f19bb7f74ac6a871479cfdf2fefe350e622468aecf4622ed71f670b8624e294"}, {"sequence": 4294967295, "scriptSig": {"hex": "473044022070c57e62ba7864316440f89d2cb910fdda9d1799e3db5ac9904647496d52f4b80220575dc9e99e5d716754802be4ae48bd315cbf5e80c832b0d17d3a0e771458fb72012103fe3ca072d7b06448d70c0c27051117f9c8c2b9455e34e539f816c75b3c046831", "asm": "3044022070c57e62ba7864316440f89d2cb910fdda9d1799e3db5ac9904647496d52f4b80220575dc9e99e5d716754802be4ae48bd315cbf5e80c832b0d17d3a0e771458fb72[ALL] 03fe3ca072d7b06448d70c0c27051117f9c8c2b9455e34e539f816c75b3c046831"}, "vout": 0, "txid": "918703d821b885640caadd1d9ba21b70ce1a9328f8a5b202225802349f515773"}, {"sequence": 4294967295, "scriptSig": {"hex": "473044022029a66e44c2f2d25e797f8ee90354df2306e8016ae0a88760bbedaa81fc85576f02204bf39b29288b1115d562fc06889e1529326a8268f5020935abdac48e6beecf0c012103a3be09719906893361053658255b29e7f7367aa745ffb2a9ac050315d9c4a5c6", "asm": "3044022029a66e44c2f2d25e797f8ee90354df2306e8016ae0a88760bbedaa81fc85576f02204bf39b29288b1115d562fc06889e1529326a8268f5020935abdac48e6beecf0c[ALL] 03a3be09719906893361053658255b29e7f7367aa745ffb2a9ac050315d9c4a5c6"}, "vout": 1, "txid": "80929d04d3801cd4b772da52c912f4ad1c7c7b9843219719a03f68d817e4033d"}], "txid": "74b32c4e1c75712d0bcb401127b73b29dea9d22501c5416aac64424baebc356d", "blocktime": 1537871767, "version": 2, "confirmations": 11491, "time": 1537871767, "locktime": 0, "vsize": 517, "size": 517}