{"hash": "74bc119719a7b7df4ce9d991964ad4bb176c9199fab836e50203f67370c5da2c", "blockhash": "0000000000000000000baef3f32e3676a92c3b2e5da21b426e4f302fc371ce76", "vout": [{"scriptPubKey": {"reqSigs": 1, "hex": "a914d39d7bdf071f8a163cc3e6942b75667528c06d5387", "addresses": ["3LywAC3WytXbKcndKZArv9DqyX4uMzviHz"], "asm": "OP_HASH160 d39d7bdf071f8a163cc3e6942b75667528c06d53 OP_EQUAL", "type": "scripthash"}, "value": 0.21, "n": 0}, {"scriptPubKey": {"reqSigs": 1, "hex": "76a914c0ee25073f931017530aca7d66e5d4378cdd7d6c88ac", "addresses": ["1Jb82QrQMMxrC8FwrqTMyxCkmj47GphXeg"], "asm": "OP_DUP OP_HASH160 c0ee25073f931017530aca7d66e5d4378cdd7d6c OP_EQUALVERIFY OP_CHECKSIG", "type": "pubkeyhash"}, "value": 0.18103291, "n": 1}], "hex": "0100000003f605c918471960b9ee1488e37bb7395eb7abbcc7f3dff65c6b2cfa416f3aa3df010000006a473044022047741e74ab135e85330efbac17c145c94828d32e8eb227f5dd37d9107dc03cd7022014e9712acb267a58168315157e531e4054fa98abd0958e4f7c77ba448a6bf01d0121033543f4fc2baf328ecee8258dac9e0e77a9140c594bed5cab95b01668f6edd89bffffff00e1b8116e6d0be6a72627f3082d07dc080ca94e08ee0a96aea7a95b34739cd8b5000000006b483045022100b67a7ba75069725a464d56dc65c8e539eae1db0a54fb4aadee3120c886a60f9d02202cec9050a730d154c7ab64bb6c788d462aef6b7622be5e5a085937781a97145c0121034badf8b58c677385fcff662ca29b764f06cb75b6b5c83db5b3d3c370bc0d5c4dffffff0010cc6406f21dcec964d4d61ce058c09113a13637a3afdc085a120622382b2716000000006b483045022100daa5bf357a260551467c6cd3f09a638910287d7f30b9cdfbdf3f62ff01f10e5c02200f0e921c445b08e8577f6bdffed94e86d0e3e2867154041e1065a7bca01e71bf0121034badf8b58c677385fcff662ca29b764f06cb75b6b5c83db5b3d3c370bc0d5c4dffffff0002406f40010000000017a914d39d7bdf071f8a163cc3e6942b75667528c06d5387fb3b1401000000001976a914c0ee25073f931017530aca7d66e5d4378cdd7d6c88ac00000000", "vin": [{"sequence": 16777215, "scriptSig": {"hex": "473044022047741e74ab135e85330efbac17c145c94828d32e8eb227f5dd37d9107dc03cd7022014e9712acb267a58168315157e531e4054fa98abd0958e4f7c77ba448a6bf01d0121033543f4fc2baf328ecee8258dac9e0e77a9140c594bed5cab95b01668f6edd89b", "asm": "3044022047741e74ab135e85330efbac17c145c94828d32e8eb227f5dd37d9107dc03cd7022014e9712acb267a58168315157e531e4054fa98abd0958e4f7c77ba448a6bf01d[ALL] 033543f4fc2baf328ecee8258dac9e0e77a9140c594bed5cab95b01668f6edd89b"}, "vout": 1, "txid": "dfa33a6f41fa2c6b5cf6dff3c7bcabb75e39b77be38814eeb960194718c905f6"}, {"sequence": 16777215, "scriptSig": {"hex": "483045022100b67a7ba75069725a464d56dc65c8e539eae1db0a54fb4aadee3120c886a60f9d02202cec9050a730d154c7ab64bb6c788d462aef6b7622be5e5a085937781a97145c0121034badf8b58c677385fcff662ca29b764f06cb75b6b5c83db5b3d3c370bc0d5c4d", "asm": "3045022100b67a7ba75069725a464d56dc65c8e539eae1db0a54fb4aadee3120c886a60f9d02202cec9050a730d154c7ab64bb6c788d462aef6b7622be5e5a085937781a97145c[ALL] 034badf8b58c677385fcff662ca29b764f06cb75b6b5c83db5b3d3c370bc0d5c4d"}, "vout": 0, "txid": "b5d89c73345ba9a7ae960aee084ea90c08dc072d08f32726a7e60b6d6e11b8e1"}, {"sequence": 16777215, "scriptSig": {"hex": "483045022100daa5bf357a260551467c6cd3f09a638910287d7f30b9cdfbdf3f62ff01f10e5c02200f0e921c445b08e8577f6bdffed94e86d0e3e2867154041e1065a7bca01e71bf0121034badf8b58c677385fcff662ca29b764f06cb75b6b5c83db5b3d3c370bc0d5c4d", "asm": "3045022100daa5bf357a260551467c6cd3f09a638910287d7f30b9cdfbdf3f62ff01f10e5c02200f0e921c445b08e8577f6bdffed94e86d0e3e2867154041e1065a7bca01e71bf[ALL] 034badf8b58c677385fcff662ca29b764f06cb75b6b5c83db5b3d3c370bc0d5c4d"}, "vout": 0, "txid": "16272b382206125a08dcafa33736a11391c058e01cd6d464c9ce1df20664cc10"}], "txid": "74bc119719a7b7df4ce9d991964ad4bb176c9199fab836e50203f67370c5da2c", "blocktime": 1537876114, "version": 1, "confirmations": 11460, "time": 1537876114, "locktime": 0, "vsize": 519, "size": 519}