{"hash": "74c1793b062b9ba04fdc7e1b14ec403cfcfff2edd71ed799bfdeaed071ea9153", "blockhash": "0000000000000000001cda96e906b7601b7a6fb1a3b62bca570a9e5d8f4b3de1", "vout": [{"scriptPubKey": {"reqSigs": 1, "hex": "a914d480d6f84edfb8f7dd464b88d44a952fc17ebc1987", "addresses": ["3M4dX9pi6T35QD2HR551VgJGrACE8AR2zD"], "asm": "OP_HASH160 d480d6f84edfb8f7dd464b88d44a952fc17ebc19 OP_EQUAL", "type": "scripthash"}, "value": 0.0065, "n": 0}, {"scriptPubKey": {"reqSigs": 1, "hex": "76a9147a00b555804b34e71a7024f75f281195408be5b788ac", "addresses": ["1C86HcvVzaAXcU8FaTWdNgMdCDWRcoYKVK"], "asm": "OP_DUP OP_HASH160 7a00b555804b34e71a7024f75f281195408be5b7 OP_EQUALVERIFY OP_CHECKSIG", "type": "pubkeyhash"}, "value": 0.05277167, "n": 1}], "hex": "01000000014bac29224bf58efb299be3c9f91506f41b191117e445a8b1d587f3234b3ebe59010000006b48304502210090065fa89b1a3b2295b4753f36405d56f9ead8b6e591c4255b4e5a0f98ec998b0220392e4717d3d7eca1e1e976574b91d46081ddbf00cd624fb521a154dceb365d830121021a093795c0e4195eb683490e072d91b3babf419354f66be3032720a41a4ee3b7ffffffff0210eb09000000000017a914d480d6f84edfb8f7dd464b88d44a952fc17ebc1987ef855000000000001976a9147a00b555804b34e71a7024f75f281195408be5b788ac00000000", "vin": [{"sequence": 4294967295, "scriptSig": {"hex": "48304502210090065fa89b1a3b2295b4753f36405d56f9ead8b6e591c4255b4e5a0f98ec998b0220392e4717d3d7eca1e1e976574b91d46081ddbf00cd624fb521a154dceb365d830121021a093795c0e4195eb683490e072d91b3babf419354f66be3032720a41a4ee3b7", "asm": "304502210090065fa89b1a3b2295b4753f36405d56f9ead8b6e591c4255b4e5a0f98ec998b0220392e4717d3d7eca1e1e976574b91d46081ddbf00cd624fb521a154dceb365d83[ALL] 021a093795c0e4195eb683490e072d91b3babf419354f66be3032720a41a4ee3b7"}, "vout": 1, "txid": "59be3e4b23f387d5b1a845e41711191bf40615f9c9e39b29fb8ef54b2229ac4b"}], "txid": "74c1793b062b9ba04fdc7e1b14ec403cfcfff2edd71ed799bfdeaed071ea9153", "blocktime": 1537873282, "version": 1, "confirmations": 11482, "time": 1537873282, "locktime": 0, "vsize": 224, "size": 224}