{"hash": "eaf3d1c35bd4527db4e18ec9ff1af900fe8f9a5772aa383db4db1d146ea6e4e3", "blockhash": "0000000000000000001f76057863aec43deb6fa401d9628bb513d65a8098bfab", "vout": [{"scriptPubKey": {"reqSigs": 1, "hex": "a9146ec88a7ab66518badcbf84e3fbb67da224bd2b2487", "addresses": ["3BnnVUREGcsWgitxYE9Xx6Zm222kmTLeHg"], "asm": "OP_HASH160 6ec88a7ab66518badcbf84e3fbb67da224bd2b24 OP_EQUAL", "type": "scripthash"}, "value": 0.006, "n": 0}, {"scriptPubKey": {"reqSigs": 1, "hex": "a914c3aac73b19a6df3a3a68ef69a8e9f79c8dff9a9c87", "addresses": ["3KXcGqASXznMituPhPnV7BkSc6CHZRLykC"], "asm": "OP_HASH160 c3aac73b19a6df3a3a68ef69a8e9f79c8dff9a9c OP_EQUAL", "type": "scripthash"}, "value": 0.01630475, "n": 1}], "hex": "01000000000103ed5df10ebf188b084a6510fb54d943d3c6c7737b0b86281000bdb8513e8ad4df01000000232200200b5c15b2a266c1fd9e615145cf3cd379109fe761c2844ebebbc12b381bddc9faffffffff061dffdbcb6c52ccafc26d85fe6c4fa9f050fc51a9bac5f456b0e0113d0aba4401000000232200200b5c15b2a266c1fd9e615145cf3cd379109fe761c2844ebebbc12b381bddc9faffffffff2f1dc126d328f5e4ed52d6cdb3d59b66517568854407d3c0b63e3c366134a80f01000000232200200b5c15b2a266c1fd9e615145cf3cd379109fe761c2844ebebbc12b381bddc9faffffffff02c02709000000000017a9146ec88a7ab66518badcbf84e3fbb67da224bd2b24870be118000000000017a914c3aac73b19a6df3a3a68ef69a8e9f79c8dff9a9c870400483045022100d2463b7365dcb79d2a5faa1178b6ad4f9b10f4c3c073aff5f9a2385c8b232bd102201710aa54c2c5c9062caa1b6807656ff6c160c0083d7a8fb5714d33e31c76939101473044022000d82c235a7315cec7ecf2f6b0d695f908410385dac64327883baf889fd3a537022006b523e148897cf683f56d3950ee0eab7362f8d1d933f20934a543fa586255e10147522102b590b6826675da568b914aa494372424b69f5fe06067fd7fa568cc41070c8e6b21024c55499905a522129124e75484b7ddea868aee9a7f01d75add901db6cf9b589f52ae0400483045022100ef34b56bae45d192261e5acd2f8b1c780ffde93b2dff00e1bfda283c5355de710220622d0c555d84a1a5eee64407d3e47fdf42e3d50b4b1ea26cf8b3a3f6fcf4d4ce01483045022100c84478b07eeff254d91aa449f058e4916ffda230367ce1d64a1033363380a7c60220234e794a3864a84ca0a12cafe33282dd699d469ab675e874f6672065ec04d5af0147522102b590b6826675da568b914aa494372424b69f5fe06067fd7fa568cc41070c8e6b21024c55499905a522129124e75484b7ddea868aee9a7f01d75add901db6cf9b589f52ae040047304402201e88f7af0448529bb31ec0714a9f5c5f6150755f43ec74d4d237278a786ce85a02201002be3655fd83941ecf4be252e901c6b94126320d25fa5b4f7b49fa6a0b35b301483045022100f623965cf89ac646dcb64fff1b84d45dd8f0f5e05137d9fd15b96452b9873cb202203ba4b93a2e5148a527a023617b712205a5110106ac8823b43334aa335df1eaf50147522102b590b6826675da568b914aa494372424b69f5fe06067fd7fa568cc41070c8e6b21024c55499905a522129124e75484b7ddea868aee9a7f01d75add901db6cf9b589f52ae00000000", "vin": [{"txinwitness": ["", "3045022100d2463b7365dcb79d2a5faa1178b6ad4f9b10f4c3c073aff5f9a2385c8b232bd102201710aa54c2c5c9062caa1b6807656ff6c160c0083d7a8fb5714d33e31c76939101", "3044022000d82c235a7315cec7ecf2f6b0d695f908410385dac64327883baf889fd3a537022006b523e148897cf683f56d3950ee0eab7362f8d1d933f20934a543fa586255e101", "522102b590b6826675da568b914aa494372424b69f5fe06067fd7fa568cc41070c8e6b21024c55499905a522129124e75484b7ddea868aee9a7f01d75add901db6cf9b589f52ae"], "sequence": 4294967295, "scriptSig": {"hex": "2200200b5c15b2a266c1fd9e615145cf3cd379109fe761c2844ebebbc12b381bddc9fa", "asm": "00200b5c15b2a266c1fd9e615145cf3cd379109fe761c2844ebebbc12b381bddc9fa"}, "vout": 1, "txid": "dfd48a3e51b8bd001028860b7b73c7c6d343d954fb10654a088b18bf0ef15ded"}, {"txinwitness": ["", "3045022100ef34b56bae45d192261e5acd2f8b1c780ffde93b2dff00e1bfda283c5355de710220622d0c555d84a1a5eee64407d3e47fdf42e3d50b4b1ea26cf8b3a3f6fcf4d4ce01", "3045022100c84478b07eeff254d91aa449f058e4916ffda230367ce1d64a1033363380a7c60220234e794a3864a84ca0a12cafe33282dd699d469ab675e874f6672065ec04d5af01", "522102b590b6826675da568b914aa494372424b69f5fe06067fd7fa568cc41070c8e6b21024c55499905a522129124e75484b7ddea868aee9a7f01d75add901db6cf9b589f52ae"], "sequence": 4294967295, "scriptSig": {"hex": "2200200b5c15b2a266c1fd9e615145cf3cd379109fe761c2844ebebbc12b381bddc9fa", "asm": "00200b5c15b2a266c1fd9e615145cf3cd379109fe761c2844ebebbc12b381bddc9fa"}, "vout": 1, "txid": "44ba0a3d11e0b056f4c5baa951fc50f0a94f6cfe856dc2afcc526ccbdbff1d06"}, {"txinwitness": ["", "304402201e88f7af0448529bb31ec0714a9f5c5f6150755f43ec74d4d237278a786ce85a02201002be3655fd83941ecf4be252e901c6b94126320d25fa5b4f7b49fa6a0b35b301", "3045022100f623965cf89ac646dcb64fff1b84d45dd8f0f5e05137d9fd15b96452b9873cb202203ba4b93a2e5148a527a023617b712205a5110106ac8823b43334aa335df1eaf501", "522102b590b6826675da568b914aa494372424b69f5fe06067fd7fa568cc41070c8e6b21024c55499905a522129124e75484b7ddea868aee9a7f01d75add901db6cf9b589f52ae"], "sequence": 4294967295, "scriptSig": {"hex": "2200200b5c15b2a266c1fd9e615145cf3cd379109fe761c2844ebebbc12b381bddc9fa", "asm": "00200b5c15b2a266c1fd9e615145cf3cd379109fe761c2844ebebbc12b381bddc9fa"}, "vout": 1, "txid": "0fa83461363c3eb6c0d3074485687551669bd5b3cdd652ede4f528d326c11d2f"}], "txid": "74c6efe81e8ff0fbf1caf584352e04e15b890d4bf55d9d2fb8f8e576436a2821", "blocktime": 1537873891, "version": 1, "confirmations": 11475, "time": 1537873891, "locktime": 0, "vsize": 467, "size": 962}