{"hash": "74cd35cefe2e8252634acdb6ba5cc5ba93deee47f340089de2d7a5449537550f", "blockhash": "0000000000000000001cda96e906b7601b7a6fb1a3b62bca570a9e5d8f4b3de1", "vout": [{"scriptPubKey": {"reqSigs": 1, "hex": "a91418d8328c8ac10f9f46d71c935326f025e10b43bf87", "addresses": ["33xP8oxFSkXGnMHrJaBKyzszxvrbuDcZaQ"], "asm": "OP_HASH160 18d8328c8ac10f9f46d71c935326f025e10b43bf OP_EQUAL", "type": "scripthash"}, "value": 0.00718178, "n": 0}], "hex": "010000000255d4c8c333423feec6154106ba5b10e1ef327e565adce44fb39213d8d34041b5000000006a47304402205f9f5f5316b89ee9da2c3482b995e488d8700d5445aa9ab170ffe54de92e879502200d925b3d29af9e360071efcf30a670c2234ec4b691bd5e4c8db31511cd0898160121032c8d8dc7c1cde8c053e1d2b20b487148575a07eed1e197cbb586875eb34730b4fffffffff79d3d4a69894203912d4f22034e8eb8a86626f4335b5e1e1a6740112b10d9d2370000006b483045022100b744ae042c93e8ecd31376e985ae3292ae6b32cac1e2beef1fe6b65f9cc077be02206d17c095147fada432cf49a1fa8657167fce1bcf05a292406a23bf740392e121012103b1acff0f2a5ded2b47f67eb93dc0d5716a6bca19dc232b3dac87951655d96da4ffffffff0162f50a000000000017a91418d8328c8ac10f9f46d71c935326f025e10b43bf8700000000", "vin": [{"sequence": 4294967295, "scriptSig": {"hex": "47304402205f9f5f5316b89ee9da2c3482b995e488d8700d5445aa9ab170ffe54de92e879502200d925b3d29af9e360071efcf30a670c2234ec4b691bd5e4c8db31511cd0898160121032c8d8dc7c1cde8c053e1d2b20b487148575a07eed1e197cbb586875eb34730b4", "asm": "304402205f9f5f5316b89ee9da2c3482b995e488d8700d5445aa9ab170ffe54de92e879502200d925b3d29af9e360071efcf30a670c2234ec4b691bd5e4c8db31511cd089816[ALL] 032c8d8dc7c1cde8c053e1d2b20b487148575a07eed1e197cbb586875eb34730b4"}, "vout": 0, "txid": "b54140d3d81392b34fe4dc5a567e32efe1105bba064115c6ee3f4233c3c8d455"}, {"sequence": 4294967295, "scriptSig": {"hex": "483045022100b744ae042c93e8ecd31376e985ae3292ae6b32cac1e2beef1fe6b65f9cc077be02206d17c095147fada432cf49a1fa8657167fce1bcf05a292406a23bf740392e121012103b1acff0f2a5ded2b47f67eb93dc0d5716a6bca19dc232b3dac87951655d96da4", "asm": "3045022100b744ae042c93e8ecd31376e985ae3292ae6b32cac1e2beef1fe6b65f9cc077be02206d17c095147fada432cf49a1fa8657167fce1bcf05a292406a23bf740392e121[ALL] 03b1acff0f2a5ded2b47f67eb93dc0d5716a6bca19dc232b3dac87951655d96da4"}, "vout": 55, "txid": "d2d9102b1140671a1e5e5b33f42666a8b88e4e03224f2d91034289694a3d9df7"}], "txid": "74cd35cefe2e8252634acdb6ba5cc5ba93deee47f340089de2d7a5449537550f", "blocktime": 1537873282, "version": 1, "confirmations": 11484, "time": 1537873282, "locktime": 0, "vsize": 337, "size": 337}