{"hash": "74d174f85be9868897dce8fc0775c4f377ec0174a918bdd743c781324b352b57", "blockhash": "0000000000000000000e13cef7c366c0283d82e591d1acd082e914b08063cdf1", "vout": [{"scriptPubKey": {"reqSigs": 1, "hex": "a914bc4ac9e02b56d866078bca84aced9e874be0332387", "addresses": ["3JrcZ1VVr1QVaJ1C7FUbfeFFU8iCuQ37kJ"], "asm": "OP_HASH160 bc4ac9e02b56d866078bca84aced9e874be03323 OP_EQUAL", "type": "scripthash"}, "value": 0.0046846, "n": 0}, {"scriptPubKey": {"reqSigs": 1, "hex": "76a9146a18cd049918a3a9091485f505a2bf8b05b474dc88ac", "addresses": ["1AfzLXb98npLUgLsMVmHp6B98a62syaoYd"], "asm": "OP_DUP OP_HASH160 6a18cd049918a3a9091485f505a2bf8b05b474dc OP_EQUALVERIFY OP_CHECKSIG", "type": "pubkeyhash"}, "value": 0.01300542, "n": 1}], "hex": "010000000173bf5b6ac107075846f83ea4ed63c6bb5507cab0aeec3f577d8221e7aab7d82c010000006a473044022040b20ef6fa940ae33c0c699671323722de2f8745742f469b3d0e719498c44f1c022031a91cd1e5a01776899956f2cac6d5550c8d528f95dc43fa308455407a3852a9012103c3fdd6be0e9ed7db1fa44e0ba8037b8db01afd397f3b7e9c956ac3b21ed75cc5ffffffff02ec2507000000000017a914bc4ac9e02b56d866078bca84aced9e874be03323873ed81300000000001976a9146a18cd049918a3a9091485f505a2bf8b05b474dc88ac00000000", "vin": [{"sequence": 4294967295, "scriptSig": {"hex": "473044022040b20ef6fa940ae33c0c699671323722de2f8745742f469b3d0e719498c44f1c022031a91cd1e5a01776899956f2cac6d5550c8d528f95dc43fa308455407a3852a9012103c3fdd6be0e9ed7db1fa44e0ba8037b8db01afd397f3b7e9c956ac3b21ed75cc5", "asm": "3044022040b20ef6fa940ae33c0c699671323722de2f8745742f469b3d0e719498c44f1c022031a91cd1e5a01776899956f2cac6d5550c8d528f95dc43fa308455407a3852a9[ALL] 03c3fdd6be0e9ed7db1fa44e0ba8037b8db01afd397f3b7e9c956ac3b21ed75cc5"}, "vout": 1, "txid": "2cd8b7aae721827d573fecaeb0ca0755bbc663eda43ef846580707c16a5bbf73"}], "txid": "74d174f85be9868897dce8fc0775c4f377ec0174a918bdd743c781324b352b57", "blocktime": 1537871767, "version": 1, "confirmations": 11493, "time": 1537871767, "locktime": 0, "vsize": 223, "size": 223}