{"hash": "74d6ecbfd60957569d52cad205a283836d2b45244a60d24ccb66cdb021e2aefd", "blockhash": "000000000000000000022b45ed06c6f4ccd3cf7fb5ba4856ebd2e58215665228", "vout": [{"scriptPubKey": {"type": "nulldata", "hex": "6a4c500000775e00014ae76bf6c396ca8820a62f823a016b46dc7dc7d0968d120d670c1906f999efba76399c5eb4f36fa48c81abd119e25baa076b061235257653f2e21d100759d4ba30d2c37bb011d97e02cf", "asm": "OP_RETURN 0000775e00014ae76bf6c396ca8820a62f823a016b46dc7dc7d0968d120d670c1906f999efba76399c5eb4f36fa48c81abd119e25baa076b061235257653f2e21d100759d4ba30d2c37bb011d97e02cf"}, "value": 0.0, "n": 0}, {"scriptPubKey": {"reqSigs": 1, "hex": "76a914ee9e9106bec6d691402aa4da0b2061e7c054484588ac", "addresses": ["1Nkhn3tgPgmFcnEicEUP8w5FgkSw4h1yhb"], "asm": "OP_DUP OP_HASH160 ee9e9106bec6d691402aa4da0b2061e7c0544845 OP_EQUALVERIFY OP_CHECKSIG", "type": "pubkeyhash"}, "value": 0.00649344, "n": 1}], "hex": "0100000001a177e8510c2e79cbc7c5ea01fbf2085e917875e46fd88139fc6220850133c27f000000006b483045022100df7a809541f6a4c51035861cbe9909c152fdb5ab93a6e267d2c741fb65cf0df802201adfd9c362f6507f0fc248fbf1835f631e4a33c4331410e9cdfc7cbe381bae20012102e44271715b227ba11667f40c5db5d17f1f798cf98b2a8452da49d7d657ccdd18ffffffff020000000000000000536a4c500000775e00014ae76bf6c396ca8820a62f823a016b46dc7dc7d0968d120d670c1906f999efba76399c5eb4f36fa48c81abd119e25baa076b061235257653f2e21d100759d4ba30d2c37bb011d97e02cf80e80900000000001976a914ee9e9106bec6d691402aa4da0b2061e7c054484588ac00000000", "vin": [{"sequence": 4294967295, "scriptSig": {"hex": "483045022100df7a809541f6a4c51035861cbe9909c152fdb5ab93a6e267d2c741fb65cf0df802201adfd9c362f6507f0fc248fbf1835f631e4a33c4331410e9cdfc7cbe381bae20012102e44271715b227ba11667f40c5db5d17f1f798cf98b2a8452da49d7d657ccdd18", "asm": "3045022100df7a809541f6a4c51035861cbe9909c152fdb5ab93a6e267d2c741fb65cf0df802201adfd9c362f6507f0fc248fbf1835f631e4a33c4331410e9cdfc7cbe381bae20[ALL] 02e44271715b227ba11667f40c5db5d17f1f798cf98b2a8452da49d7d657ccdd18"}, "vout": 0, "txid": "7fc23301852062fc3981d86fe47578915e08f2fb01eac5c7cb792e0c51e877a1"}], "txid": "74d6ecbfd60957569d52cad205a283836d2b45244a60d24ccb66cdb021e2aefd", "blocktime": 1537869901, "version": 1, "confirmations": 11523, "time": 1537869901, "locktime": 0, "vsize": 284, "size": 284}