{"hash": "99b89cfaaa929c70c3764ac1f771075bc2b1e9f1929170af6d36209efaaa2dc1", "blockhash": "0000000000000000000e13cef7c366c0283d82e591d1acd082e914b08063cdf1", "vout": [{"scriptPubKey": {"reqSigs": 1, "hex": "76a91470ace2f6ae753f19e7057e6b366db1364ba5ca2888ac", "addresses": ["1BGmnrb1Yv5ZkoSJRRe8JqFk9hqtJunaH6"], "asm": "OP_DUP OP_HASH160 70ace2f6ae753f19e7057e6b366db1364ba5ca28 OP_EQUALVERIFY OP_CHECKSIG", "type": "pubkeyhash"}, "value": 0.02, "n": 0}, {"scriptPubKey": {"reqSigs": 1, "hex": "a914b73f3b34be73cb47df8597847f3d0348ca7d5b3587", "addresses": ["3JPwL2xk8fNx67631ZuiRfU42ZTx5jbRqC"], "asm": "OP_HASH160 b73f3b34be73cb47df8597847f3d0348ca7d5b35 OP_EQUAL", "type": "scripthash"}, "value": 0.29814016, "n": 1}], "hex": "01000000000101017e0eeba75b742d88426618e8af766264ebd27e2f271e9c836550489fc8007101000000232200207e2a26fca423d11498c0984b284eea124b9ba90b912b4b6defa94ec6b2d06831ffffffff0280841e00000000001976a91470ace2f6ae753f19e7057e6b366db1364ba5ca2888ac00edc6010000000017a914b73f3b34be73cb47df8597847f3d0348ca7d5b358704004830450221008b057af444be9d68652c31c934d225368ee894d92d1df4039bec28ff2c13fc3d02207593054082bb62f1dc64e0e79755788be94235230672d96a3213b2c8e8d462350147304402206890353ae7848a9fc697b966da325dc46460d07418abd2d4cf69f691743f47e602200f68c646e0f1168137d50420e46dc1fccab612cdb29fec914af40ed2bd1cfccd0147522102f4844214cdb38a4363093650bfb7b36f5c9ef122d83b73adc2dbbc1a73fe41d621038f2c7ecee34c843be9d886e50ce79e5dc40a1694c0417d60b35340f292ff73fc52ae00000000", "vin": [{"txinwitness": ["", "30450221008b057af444be9d68652c31c934d225368ee894d92d1df4039bec28ff2c13fc3d02207593054082bb62f1dc64e0e79755788be94235230672d96a3213b2c8e8d4623501", "304402206890353ae7848a9fc697b966da325dc46460d07418abd2d4cf69f691743f47e602200f68c646e0f1168137d50420e46dc1fccab612cdb29fec914af40ed2bd1cfccd01", "522102f4844214cdb38a4363093650bfb7b36f5c9ef122d83b73adc2dbbc1a73fe41d621038f2c7ecee34c843be9d886e50ce79e5dc40a1694c0417d60b35340f292ff73fc52ae"], "sequence": 4294967295, "scriptSig": {"hex": "2200207e2a26fca423d11498c0984b284eea124b9ba90b912b4b6defa94ec6b2d06831", "asm": "00207e2a26fca423d11498c0984b284eea124b9ba90b912b4b6defa94ec6b2d06831"}, "vout": 1, "txid": "7100c89f485065839c1e272f7ed2eb646276afe8186642882d745ba7eb0e7e01"}], "txid": "74ddbd845df3629b30421b1f2df78bf1a584663eda28f9f77f7dfdd163f70b72", "blocktime": 1537871767, "version": 1, "confirmations": 11495, "time": 1537871767, "locktime": 0, "vsize": 208, "size": 373}