{"hash": "74e5e95e0d05eab689949f6313d7ac92b410066b59d99efa1d32c9a3fbdcb7f8", "blockhash": "0000000000000000000e13cef7c366c0283d82e591d1acd082e914b08063cdf1", "vout": [{"scriptPubKey": {"reqSigs": 1, "hex": "76a914292715a9a628b42374f402ae2b2742ddd08cf93388ac", "addresses": ["14kbXWhXEwqriGNibWY3ApzdvP8PnWhrMJ"], "asm": "OP_DUP OP_HASH160 292715a9a628b42374f402ae2b2742ddd08cf933 OP_EQUALVERIFY OP_CHECKSIG", "type": "pubkeyhash"}, "value": 0.0092729, "n": 0}, {"scriptPubKey": {"reqSigs": 1, "hex": "a91427ead5e0d0948dbbdd552e73fad2763ab5990d1887", "addresses": ["35L5bgLdZ6U8BFEwnFtmx7FnH6JqMCxpjk"], "asm": "OP_HASH160 27ead5e0d0948dbbdd552e73fad2763ab5990d18 OP_EQUAL", "type": "scripthash"}, "value": 0.01283881, "n": 1}], "hex": "01000000015acc328ccbfe5e86a864a7cb844d246bb30f20af3111118361d5548c36024fd5160000006a47304402200666c7e506e73df61e8575caa7fe10de20016e6a84a740dd847135abd4b0c8b80220280594e7f756c00fa1293f94fe4bd3f23cdeb308442aff78e6ff05afffa17ead012102b88aa0a78e648863aecb0133c672b3ee2763b18516b733f9856297ee5df74c1dffffffff023a260e00000000001976a914292715a9a628b42374f402ae2b2742ddd08cf93388ac299713000000000017a91427ead5e0d0948dbbdd552e73fad2763ab5990d188700000000", "vin": [{"sequence": 4294967295, "scriptSig": {"hex": "47304402200666c7e506e73df61e8575caa7fe10de20016e6a84a740dd847135abd4b0c8b80220280594e7f756c00fa1293f94fe4bd3f23cdeb308442aff78e6ff05afffa17ead012102b88aa0a78e648863aecb0133c672b3ee2763b18516b733f9856297ee5df74c1d", "asm": "304402200666c7e506e73df61e8575caa7fe10de20016e6a84a740dd847135abd4b0c8b80220280594e7f756c00fa1293f94fe4bd3f23cdeb308442aff78e6ff05afffa17ead[ALL] 02b88aa0a78e648863aecb0133c672b3ee2763b18516b733f9856297ee5df74c1d"}, "vout": 22, "txid": "d54f02368c54d56183111131af200fb36b244d84cba764a8865efecb8c32cc5a"}], "txid": "74e5e95e0d05eab689949f6313d7ac92b410066b59d99efa1d32c9a3fbdcb7f8", "blocktime": 1537871767, "version": 1, "confirmations": 11491, "time": 1537871767, "locktime": 0, "vsize": 223, "size": 223}