{"hash": "74ec7ac981440993cf0ef6791a4911633a46383560cae10ea1fdfcacfe0d643c", "blockhash": "000000000000000000022b45ed06c6f4ccd3cf7fb5ba4856ebd2e58215665228", "vout": [{"scriptPubKey": {"reqSigs": 1, "hex": "76a914ca502f2ecc12ef4524bde6585bc0b963b770cd0a88ac", "addresses": ["1KSjZ45i2af8kE1U8TMcohh1Jq69f4nLHy"], "asm": "OP_DUP OP_HASH160 ca502f2ecc12ef4524bde6585bc0b963b770cd0a OP_EQUALVERIFY OP_CHECKSIG", "type": "pubkeyhash"}, "value": 0.89379678, "n": 0}], "hex": "0100000002e7eb2758d1fb4697e65a294f966011186c4c1bd50b4806764d52c975134fe309090000006a47304402205913924c48bdbade2f144b1a9218acfcf04b2db59dd25950ff42f5b6a60fdc5c022059394ad4521f09de6457a774f5effd76cc3ae4cb380047fc58cdac792f86e921012102d63f9b43cb37e34f6e8ecc8f3aaf4a0dc3c211e1394bb225246d6be04522f1b6fffffffffe04fbce7c76925055a107fc5d3aa6d60da5b8a2c116d55021da3794cc9cd9bf190000006b48304502210084a34b8e88136778223ecdc7a79ac77439f6e7fd709c5003110be84c4a624e1d022067b951a7b93034d7bc4b94725f15dcd55df7171a5dbac2cb688bc389f595b8ce0121024f83e89a8acc12ec6d97db703f53e2374876360716ed3ba53ed8e97a7a6d3c96ffffffff015ed35305000000001976a914ca502f2ecc12ef4524bde6585bc0b963b770cd0a88ac00000000", "vin": [{"sequence": 4294967295, "scriptSig": {"hex": "47304402205913924c48bdbade2f144b1a9218acfcf04b2db59dd25950ff42f5b6a60fdc5c022059394ad4521f09de6457a774f5effd76cc3ae4cb380047fc58cdac792f86e921012102d63f9b43cb37e34f6e8ecc8f3aaf4a0dc3c211e1394bb225246d6be04522f1b6", "asm": "304402205913924c48bdbade2f144b1a9218acfcf04b2db59dd25950ff42f5b6a60fdc5c022059394ad4521f09de6457a774f5effd76cc3ae4cb380047fc58cdac792f86e921[ALL] 02d63f9b43cb37e34f6e8ecc8f3aaf4a0dc3c211e1394bb225246d6be04522f1b6"}, "vout": 9, "txid": "09e34f1375c9524d7606480bd51b4c6c181160964f295ae69746fbd15827ebe7"}, {"sequence": 4294967295, "scriptSig": {"hex": "48304502210084a34b8e88136778223ecdc7a79ac77439f6e7fd709c5003110be84c4a624e1d022067b951a7b93034d7bc4b94725f15dcd55df7171a5dbac2cb688bc389f595b8ce0121024f83e89a8acc12ec6d97db703f53e2374876360716ed3ba53ed8e97a7a6d3c96", "asm": "304502210084a34b8e88136778223ecdc7a79ac77439f6e7fd709c5003110be84c4a624e1d022067b951a7b93034d7bc4b94725f15dcd55df7171a5dbac2cb688bc389f595b8ce[ALL] 024f83e89a8acc12ec6d97db703f53e2374876360716ed3ba53ed8e97a7a6d3c96"}, "vout": 25, "txid": "bfd99ccc9437da2150d516c1a2b8a50dd6a63a5dfc07a1555092767ccefb04fe"}], "txid": "74ec7ac981440993cf0ef6791a4911633a46383560cae10ea1fdfcacfe0d643c", "blocktime": 1537869901, "version": 1, "confirmations": 11523, "time": 1537869901, "locktime": 0, "vsize": 339, "size": 339}