{"hash": "74ee6a44f17c5651dd05025a8f7b0f4b00256932f0e4e05692155ed602de7b0e", "blockhash": "0000000000000000000baef3f32e3676a92c3b2e5da21b426e4f302fc371ce76", "vout": [{"scriptPubKey": {"reqSigs": 1, "hex": "a9140982d648e6addc305f5c06142b6c6439e746b0bb87", "addresses": ["32ZJjzFJ3wLgbet14sH32wHDjUyPm8xH8d"], "asm": "OP_HASH160 0982d648e6addc305f5c06142b6c6439e746b0bb OP_EQUAL", "type": "scripthash"}, "value": 0.05026582, "n": 0}], "hex": "0100000001d974f9de2867b63be7ce52db73499a30423d170c987d8ace21fe08ccc11cecf4000000006a47304402204b1e498b46d6f682449157de519897920a31e898a85e3232ff6a3bb06eda92660220660042512e8d90a392182ed3d489c86b455c9305b14e99a677d0e526d3e153aa01210347ac20aa996b79ee1e0d43f4370ee7545ee9a1fff0d82e70fc0863086a1560a2ffffffff0116b34c000000000017a9140982d648e6addc305f5c06142b6c6439e746b0bb8700000000", "vin": [{"sequence": 4294967295, "scriptSig": {"hex": "47304402204b1e498b46d6f682449157de519897920a31e898a85e3232ff6a3bb06eda92660220660042512e8d90a392182ed3d489c86b455c9305b14e99a677d0e526d3e153aa01210347ac20aa996b79ee1e0d43f4370ee7545ee9a1fff0d82e70fc0863086a1560a2", "asm": "304402204b1e498b46d6f682449157de519897920a31e898a85e3232ff6a3bb06eda92660220660042512e8d90a392182ed3d489c86b455c9305b14e99a677d0e526d3e153aa[ALL] 0347ac20aa996b79ee1e0d43f4370ee7545ee9a1fff0d82e70fc0863086a1560a2"}, "vout": 0, "txid": "f4ec1cc1cc08fe21ce8a7d980c173d42309a4973db52cee73bb66728def974d9"}], "txid": "74ee6a44f17c5651dd05025a8f7b0f4b00256932f0e4e05692155ed602de7b0e", "blocktime": 1537876114, "version": 1, "confirmations": 11462, "time": 1537876114, "locktime": 0, "vsize": 189, "size": 189}