{"hash": "37139ab5b560fb276501ca3f8aee1924f51d43a283291f042be29feab16a0ea4", "blockhash": "0000000000000000000e13cef7c366c0283d82e591d1acd082e914b08063cdf1", "vout": [{"scriptPubKey": {"reqSigs": 1, "hex": "a91489fa1b1af1353ce36a7019896a0d10ab39bc8ca187", "addresses": ["3EGa7V8ASWQSgyXXmZVXH53oDqizWcAPY7"], "asm": "OP_HASH160 89fa1b1af1353ce36a7019896a0d10ab39bc8ca1 OP_EQUAL", "type": "scripthash"}, "value": 0.01161919, "n": 0}], "hex": "020000000001029f38c8bd4929d734715562d743364ff2d065f214b748779bcfecd1a832cb88cf01000000171600140ab7f16b09496fd9f7abc7a878d283e0ada6cf8dfdffffff2e5b3bb52b54fa1d60257b17ad7f6df0776afeda1bc923468a26a821a047889e0100000000fdffffff01bfba11000000000017a91489fa1b1af1353ce36a7019896a0d10ab39bc8ca1870247304402200b231dfa2ee6e2f889ad292c24439d91b79c3062681e5ec47c5ca3c4d462dcbd0220436f773149d6a10a047a5e104dbd12c928e8d0d49b4f162ac69cf8a0ca1a54b0012102a4f2332cdb77b6d0ab7439966dfa24cad70bf27a2cdc4b99893d75d255fa1a630247304402206ace5c93f7ec9e2e9a02ae284b4850193158da08d0d0004908d1244e2ea3a3d10220152deef766637a8478e01735293d458f82d3f520af72974ed745aeadd50976fa01210347803f7b259616cc2c1bddf15b1b71cb6a14696edd32cfba9e309f48db8f30fdcd480800", "vin": [{"txinwitness": ["304402200b231dfa2ee6e2f889ad292c24439d91b79c3062681e5ec47c5ca3c4d462dcbd0220436f773149d6a10a047a5e104dbd12c928e8d0d49b4f162ac69cf8a0ca1a54b001", "02a4f2332cdb77b6d0ab7439966dfa24cad70bf27a2cdc4b99893d75d255fa1a63"], "sequence": 4294967293, "scriptSig": {"hex": "1600140ab7f16b09496fd9f7abc7a878d283e0ada6cf8d", "asm": "00140ab7f16b09496fd9f7abc7a878d283e0ada6cf8d"}, "vout": 1, "txid": "cf88cb32a8d1eccf9b7748b714f265d0f24f3643d762557134d72949bdc8389f"}, {"txinwitness": ["304402206ace5c93f7ec9e2e9a02ae284b4850193158da08d0d0004908d1244e2ea3a3d10220152deef766637a8478e01735293d458f82d3f520af72974ed745aeadd50976fa01", "0347803f7b259616cc2c1bddf15b1b71cb6a14696edd32cfba9e309f48db8f30fd"], "sequence": 4294967293, "scriptSig": {"hex": "", "asm": ""}, "vout": 1, "txid": "9e8847a021a8268a4623c91bdafe6a77f06d7fad177b25601dfa542bb53b5b2e"}], "txid": "74f53cdd101a8a9b07181974616c7d5ce00e0d479c16ec87eb007c588831c992", "blocktime": 1537871767, "version": 2, "confirmations": 11495, "time": 1537871767, "locktime": 542925, "vsize": 201, "size": 363}