{"hash": "74f7dd750bfcf38c4884f153d4699efb81d354573dd57fd82cb6e9393bf452ab", "blockhash": "0000000000000000001cda96e906b7601b7a6fb1a3b62bca570a9e5d8f4b3de1", "vout": [{"scriptPubKey": {"reqSigs": 1, "hex": "76a914408752eaa926256b405f6404ef68195b6dd043be88ac", "addresses": ["16tCMkGosDV3gghycpnXp2tTYjag44rzuy"], "asm": "OP_DUP OP_HASH160 408752eaa926256b405f6404ef68195b6dd043be OP_EQUALVERIFY OP_CHECKSIG", "type": "pubkeyhash"}, "value": 0.0117, "n": 0}, {"scriptPubKey": {"reqSigs": 1, "hex": "a914e370231feecbfc25e2e2423a5a79bf79bfdca59887", "addresses": ["3NRbeX3vD5VaVE4TDU9ivCDsEf7NPPte6J"], "asm": "OP_HASH160 e370231feecbfc25e2e2423a5a79bf79bfdca598 OP_EQUAL", "type": "scripthash"}, "value": 0.47023796, "n": 1}], "hex": "0100000001fe92019f206bf447b6499a40a9efd3c5bc7e2f634dfa620e035dce31e3057f2201000000db0048304502210084c292c4f42ef9f6838aaeee9139dc0306639ffa4905f93bfc7b9d6f89742241022017aadfabbe02011095a64e808bed66d93fd9ed0fbde15fd9eab907c12e2375ac014830450221008aa792e6af50d60213f89974e7ea12fbc07da48d94025a3f7ff18f6eb4e7fc7f022025e24ba8f674429e3a327137f671a686104394dc50c54471a22e246aaf7bbb70014752210327881b6abce6535553a3ce21fad12a7d74fd237ce7c4cd270a267162344e3082210256141f8eb687f5a68c5cc65054652dc25116fa285e44d72b44368827ffe77d9a52aeffffffff0250da1100000000001976a914408752eaa926256b405f6404ef68195b6dd043be88acb486cd020000000017a914e370231feecbfc25e2e2423a5a79bf79bfdca5988700000000", "vin": [{"sequence": 4294967295, "scriptSig": {"hex": "0048304502210084c292c4f42ef9f6838aaeee9139dc0306639ffa4905f93bfc7b9d6f89742241022017aadfabbe02011095a64e808bed66d93fd9ed0fbde15fd9eab907c12e2375ac014830450221008aa792e6af50d60213f89974e7ea12fbc07da48d94025a3f7ff18f6eb4e7fc7f022025e24ba8f674429e3a327137f671a686104394dc50c54471a22e246aaf7bbb70014752210327881b6abce6535553a3ce21fad12a7d74fd237ce7c4cd270a267162344e3082210256141f8eb687f5a68c5cc65054652dc25116fa285e44d72b44368827ffe77d9a52ae", "asm": "0 304502210084c292c4f42ef9f6838aaeee9139dc0306639ffa4905f93bfc7b9d6f89742241022017aadfabbe02011095a64e808bed66d93fd9ed0fbde15fd9eab907c12e2375ac[ALL] 30450221008aa792e6af50d60213f89974e7ea12fbc07da48d94025a3f7ff18f6eb4e7fc7f022025e24ba8f674429e3a327137f671a686104394dc50c54471a22e246aaf7bbb70[ALL] 52210327881b6abce6535553a3ce21fad12a7d74fd237ce7c4cd270a267162344e3082210256141f8eb687f5a68c5cc65054652dc25116fa285e44d72b44368827ffe77d9a52ae"}, "vout": 1, "txid": "227f05e331ce5d030e62fa4d632f7ebcc5d3efa9409a49b647f46b209f0192fe"}], "txid": "74f7dd750bfcf38c4884f153d4699efb81d354573dd57fd82cb6e9393bf452ab", "blocktime": 1537873282, "version": 1, "confirmations": 11485, "time": 1537873282, "locktime": 0, "vsize": 336, "size": 336}