{"hash": "85f2d9c58e1e118ca49d28453250a94622a5aec2b978144d597d43947738afe5", "blockhash": "0000000000000000001cda96e906b7601b7a6fb1a3b62bca570a9e5d8f4b3de1", "vout": [{"scriptPubKey": {"reqSigs": 1, "hex": "76a914d05618401259eb81b1d04f3bc289bf3bf9570fe088ac", "addresses": ["1KzagsJWui6d4cHFeA7hAHFpdp9jrxWZMX"], "asm": "OP_DUP OP_HASH160 d05618401259eb81b1d04f3bc289bf3bf9570fe0 OP_EQUALVERIFY OP_CHECKSIG", "type": "pubkeyhash"}, "value": 0.02472285, "n": 0}, {"scriptPubKey": {"reqSigs": 1, "hex": "a914242e492dd5c02031a509a808c4f875e8c0fe031f87", "addresses": ["34zKhStu76DtyjHv3sA38Li7CZDqDEFL2C"], "asm": "OP_HASH160 242e492dd5c02031a509a808c4f875e8c0fe031f OP_EQUAL", "type": "scripthash"}, "value": 5.35257526, "n": 1}], "hex": "02000000000101e52975e25bdb79768b3abacd2960b8ab61e025104a174fb12d67a3fb7867f6460100000017160014c3ce7847284211b0bc717fa5668f83e4befe60ffffffffff025db92500000000001976a914d05618401259eb81b1d04f3bc289bf3bf9570fe088acb661e71f0000000017a914242e492dd5c02031a509a808c4f875e8c0fe031f870247304402203ff771b51aa6b223d403b2f2db9b74016c2021d88c0b0f42606a1afc57235a5302204fcdf6d0d162f5c8da3349ddb99287f241cd8c8beeeb297ab9e724b0f0418d85012103d9e6b2a971e04c8ae6ebd2c836ba7d98f2e9f72d19a1bb7a242723b1b784f03500000000", "vin": [{"txinwitness": ["304402203ff771b51aa6b223d403b2f2db9b74016c2021d88c0b0f42606a1afc57235a5302204fcdf6d0d162f5c8da3349ddb99287f241cd8c8beeeb297ab9e724b0f0418d8501", "03d9e6b2a971e04c8ae6ebd2c836ba7d98f2e9f72d19a1bb7a242723b1b784f035"], "sequence": 4294967295, "scriptSig": {"hex": "160014c3ce7847284211b0bc717fa5668f83e4befe60ff", "asm": "0014c3ce7847284211b0bc717fa5668f83e4befe60ff"}, "vout": 1, "txid": "46f66778fba3672db14f174a1025e061abb86029cdba3a8b7679db5be27529e5"}], "txid": "74f811903d7407de96d7e661bfdfcf75b575d364248a06f02d1578ccc2edbaa5", "blocktime": 1537873282, "version": 2, "confirmations": 11484, "time": 1537873282, "locktime": 0, "vsize": 168, "size": 249}