{"hash": "74f829bee971573b669340c6d77575f9f9d35013a84931cdd3180c6bff4b1802", "blockhash": "00000000000000000018f53835495a110e01622372bf6ae95dc86f2b0ab887b0", "vout": [{"scriptPubKey": {"reqSigs": 1, "hex": "76a914531c7fe4d082187e81d7e21b892820b53646926288ac", "addresses": ["18aTE7Fhdwkbgn5BqG2ur4jzhEKi5jyq6N"], "asm": "OP_DUP OP_HASH160 531c7fe4d082187e81d7e21b892820b536469262 OP_EQUALVERIFY OP_CHECKSIG", "type": "pubkeyhash"}, "value": 0.00499064, "n": 0}, {"scriptPubKey": {"type": "nulldata", "hex": "6a146f6d6e69000000000000001f00000002540be400", "asm": "OP_RETURN 6f6d6e69000000000000001f00000002540be400"}, "value": 0.0, "n": 1}, {"scriptPubKey": {"reqSigs": 1, "hex": "76a914a25dec4d0011064ef106a983c39c7a540699f22088ac", "addresses": ["1FoWyxwPXuj4C6abqwhjDWdz6D4PZgYRjA"], "asm": "OP_DUP OP_HASH160 a25dec4d0011064ef106a983c39c7a540699f220 OP_EQUALVERIFY OP_CHECKSIG", "type": "pubkeyhash"}, "value": 5.46e-06, "n": 2}], "hex": "01000000010d01a2029185c1752ddb6f4edd511a7d23d380cfcef6d7a0ca449357da1f4f33090000006b483045022100e46612e0693a4ffbd2cd5aaea491e7f30d93d4c77fa3e5ab42d5c73b9e39a71302203c4810e226fcc15d96b1c041df1df8a115798f084d8af528682c68a2bdab4ae60121027d61d20f37702c63e6b532d3636e6ea695fabb8825c0768fd96ca2136bd32058feffffff03789d0700000000001976a914531c7fe4d082187e81d7e21b892820b53646926288ac0000000000000000166a146f6d6e69000000000000001f00000002540be40022020000000000001976a914a25dec4d0011064ef106a983c39c7a540699f22088ac0e490800", "vin": [{"sequence": 4294967294, "scriptSig": {"hex": "483045022100e46612e0693a4ffbd2cd5aaea491e7f30d93d4c77fa3e5ab42d5c73b9e39a71302203c4810e226fcc15d96b1c041df1df8a115798f084d8af528682c68a2bdab4ae60121027d61d20f37702c63e6b532d3636e6ea695fabb8825c0768fd96ca2136bd32058", "asm": "3045022100e46612e0693a4ffbd2cd5aaea491e7f30d93d4c77fa3e5ab42d5c73b9e39a71302203c4810e226fcc15d96b1c041df1df8a115798f084d8af528682c68a2bdab4ae6[ALL] 027d61d20f37702c63e6b532d3636e6ea695fabb8825c0768fd96ca2136bd32058"}, "vout": 9, "txid": "334f1fda579344caa0d7f6cecf80d3237d1a51dd4e6fdb2d75c1859102a2010d"}], "txid": "74f829bee971573b669340c6d77575f9f9d35013a84931cdd3180c6bff4b1802", "blocktime": 1537870928, "version": 1, "confirmations": 11514, "time": 1537870928, "locktime": 542990, "vsize": 257, "size": 257}