{"hash": "74fb7ef5015e41de4c94b040ceb66478658d60996536529ff7539ef3941eeb0c", "blockhash": "00000000000000000017f5eb5941039fbcee6240d03bc1f2f8e35350df66a1d8", "vout": [{"scriptPubKey": {"reqSigs": 1, "hex": "76a9144356464840217ad6348c78fc580b19e9f804378388ac", "addresses": ["1793dK993KErYf5jYNjPNsWDyHutaAR4QC"], "asm": "OP_DUP OP_HASH160 4356464840217ad6348c78fc580b19e9f8043783 OP_EQUALVERIFY OP_CHECKSIG", "type": "pubkeyhash"}, "value": 0.001862, "n": 0}, {"scriptPubKey": {"reqSigs": 1, "hex": "76a914a7b88de85e56711f694fc44f91e42edc31138ef388ac", "addresses": ["1GHpw6WyX63geknYJPAv7yAjG71BJgi3bQ"], "asm": "OP_DUP OP_HASH160 a7b88de85e56711f694fc44f91e42edc31138ef3 OP_EQUALVERIFY OP_CHECKSIG", "type": "pubkeyhash"}, "value": 0.01664051, "n": 1}], "hex": "0100000001e5aa5e6c76f8e027928596c2dcfe0545c4f99e81e63fd69c06f4316abcd6a03c010000006a473044022072433b86a4db6c5e394ddcc9b7074522b5456a445617d65c4de9aca64a97188502200196ac3cb1e2ac44fb34f49e4931fc9912188b8e0521dcf02eacb46a2cb406720121023a14452e1450e1333f1c46a36b659e7a809e06cb7e02d73e2b0f6c5f0e2828bfffffffff0258d70200000000001976a9144356464840217ad6348c78fc580b19e9f804378388ac33641900000000001976a914a7b88de85e56711f694fc44f91e42edc31138ef388ac00000000", "vin": [{"sequence": 4294967295, "scriptSig": {"hex": "473044022072433b86a4db6c5e394ddcc9b7074522b5456a445617d65c4de9aca64a97188502200196ac3cb1e2ac44fb34f49e4931fc9912188b8e0521dcf02eacb46a2cb406720121023a14452e1450e1333f1c46a36b659e7a809e06cb7e02d73e2b0f6c5f0e2828bf", "asm": "3044022072433b86a4db6c5e394ddcc9b7074522b5456a445617d65c4de9aca64a97188502200196ac3cb1e2ac44fb34f49e4931fc9912188b8e0521dcf02eacb46a2cb40672[ALL] 023a14452e1450e1333f1c46a36b659e7a809e06cb7e02d73e2b0f6c5f0e2828bf"}, "vout": 1, "txid": "3ca0d6bc6a31f4069cd63fe6819ef9c44505fedcc296859227e0f8766c5eaae5"}], "txid": "74fb7ef5015e41de4c94b040ceb66478658d60996536529ff7539ef3941eeb0c", "blocktime": 1537874412, "version": 1, "confirmations": 11468, "time": 1537874412, "locktime": 0, "vsize": 225, "size": 225}