{"hash": "74fd7f8abf0153803440734b966f1c9ab1998aa804e151ee57281d5f7b348b09", "blockhash": "00000000000000000018f53835495a110e01622372bf6ae95dc86f2b0ab887b0", "vout": [{"scriptPubKey": {"reqSigs": 1, "hex": "76a914cc9d1ace72a5fe19db538e19f8c58c0b6ac8cd2a88ac", "addresses": ["1Keu3xh8zQbu6uqpBowskfsMUgUWu8LLXR"], "asm": "OP_DUP OP_HASH160 cc9d1ace72a5fe19db538e19f8c58c0b6ac8cd2a OP_EQUALVERIFY OP_CHECKSIG", "type": "pubkeyhash"}, "value": 0.00509023, "n": 0}], "hex": "01000000013abc58b2eeff76791de43e2e825983d3b284631addb75060609240e3c6a66d11010000006b483045022100bbe4b08ad5bd6b797eb449121648d5763e73b85db14889ad59bb615d3e6a21e302201b1503614ca30ced0d17769a6041ec064f95366f0d7d50e2276c485f6ea0f0488121037f8b3ef8265aaf040cfaac6112bd4b3092832999568baa74fabfc900eb29f4fcffffffff015fc40700000000001976a914cc9d1ace72a5fe19db538e19f8c58c0b6ac8cd2a88ac00000000", "vin": [{"sequence": 4294967295, "scriptSig": {"hex": "483045022100bbe4b08ad5bd6b797eb449121648d5763e73b85db14889ad59bb615d3e6a21e302201b1503614ca30ced0d17769a6041ec064f95366f0d7d50e2276c485f6ea0f0488121037f8b3ef8265aaf040cfaac6112bd4b3092832999568baa74fabfc900eb29f4fc", "asm": "3045022100bbe4b08ad5bd6b797eb449121648d5763e73b85db14889ad59bb615d3e6a21e302201b1503614ca30ced0d17769a6041ec064f95366f0d7d50e2276c485f6ea0f048[ALL|ANYONECANPAY] 037f8b3ef8265aaf040cfaac6112bd4b3092832999568baa74fabfc900eb29f4fc"}, "vout": 1, "txid": "116da6c6e34092606050b7dd1a6384b2d38359822e3ee41d7976ffeeb258bc3a"}], "txid": "74fd7f8abf0153803440734b966f1c9ab1998aa804e151ee57281d5f7b348b09", "blocktime": 1537870928, "version": 1, "confirmations": 11512, "time": 1537870928, "locktime": 0, "vsize": 192, "size": 192}