{"hash": "4e2c71af405a18b1a75fbc1c9a08fa46b8b2a7327dfd1d80448b64c68a1304cd", "blockhash": "0000000000000000001f76057863aec43deb6fa401d9628bb513d65a8098bfab", "vout": [{"scriptPubKey": {"reqSigs": 1, "hex": "a914bc7682b6188d325b1781a71f021286707d41fb9f87", "addresses": ["3JsWvsJXcRFX6o1B2HstBpQQAguDQP9mcX"], "asm": "OP_HASH160 bc7682b6188d325b1781a71f021286707d41fb9f OP_EQUAL", "type": "scripthash"}, "value": 0.00239411, "n": 0}, {"scriptPubKey": {"reqSigs": 1, "hex": "0014665e178f2d467f29eacde0f2c74b10a986e41a1f", "addresses": ["bc1qve0p0redgeljn6kdurevwjcs4xrwgxslqrueeq"], "asm": "0 665e178f2d467f29eacde0f2c74b10a986e41a1f", "type": "witness_v0_keyhash"}, "value": 1.593e-05, "n": 1}], "hex": "010000000001017e13258c338ed4762166fbd428697eadfa5d976e5e0e1a6dc2122c8eeb6f16460000000000ffffffff0233a703000000000017a914bc7682b6188d325b1781a71f021286707d41fb9f873906000000000000160014665e178f2d467f29eacde0f2c74b10a986e41a1f0247304402204e811d9c97441ec5f99be8b0f8eedc0b8714900a655e8f9ea3c656ee88a17a9e0220489f6b530520b96f9b9cd5b0708b69d55440bb4fb089120e756ba69f6a069392012103c6959364f8232ceca7e4b09ea358d1fa64c6eeec80440d1f02c3c91156c0e11e00000000", "vin": [{"txinwitness": ["304402204e811d9c97441ec5f99be8b0f8eedc0b8714900a655e8f9ea3c656ee88a17a9e0220489f6b530520b96f9b9cd5b0708b69d55440bb4fb089120e756ba69f6a06939201", "03c6959364f8232ceca7e4b09ea358d1fa64c6eeec80440d1f02c3c91156c0e11e"], "sequence": 4294967295, "scriptSig": {"hex": "", "asm": ""}, "vout": 0, "txid": "46166feb8e2c12c26d1a0e5e6e975dfaad7e6928d4fb662176d48e338c25137e"}], "txid": "74ffd36da141043c6f32ca6549fc3c0a810bab660a31241eee4d920fc03acc6a", "blocktime": 1537873891, "version": 1, "confirmations": 11478, "time": 1537873891, "locktime": 0, "vsize": 142, "size": 223}