{"hash": "b3c4b55a72b84172d31ac338a6f8d1f1abfa9ac460801fefc8c67b0c4398531b", "blockhash": "00000000000000000018f53835495a110e01622372bf6ae95dc86f2b0ab887b0", "vout": [{"scriptPubKey": {"reqSigs": 1, "hex": "a9141a21eecd491f7cee4702d1fef0d773bb87936ace87", "addresses": ["345C9E1AssFtWVtS13B7UcNmVbY4koQjdn"], "asm": "OP_HASH160 1a21eecd491f7cee4702d1fef0d773bb87936ace OP_EQUAL", "type": "scripthash"}, "value": 0.00019507, "n": 0}, {"scriptPubKey": {"reqSigs": 1, "hex": "00140b5e6ede54ad1f6a8f34380d9806590dabc97fab", "addresses": ["bc1qpd0xahj5450k4re58qxespjepk4ujlats0ep34"], "asm": "0 0b5e6ede54ad1f6a8f34380d9806590dabc97fab", "type": "witness_v0_keyhash"}, "value": 1.046e-05, "n": 1}], "hex": "010000000001019144ce31ccf35716eb942b9459ffb70e12f166b82f747605465478d40804b7cd0100000000ffffffff02334c00000000000017a9141a21eecd491f7cee4702d1fef0d773bb87936ace8716040000000000001600140b5e6ede54ad1f6a8f34380d9806590dabc97fab024830450221008feb8618d97da3b66fcd9727c8b1886b249cc948611fb1f69b6d557bd40a6e8a02201a856604b8463c83ab8a1306d5563c9a23ec03842af42ec332370dd17611bf3a012102103a62ab26344a1a3611ae0e5df39cc6b96d449fb117e28520f8da308dfbcec700000000", "vin": [{"txinwitness": ["30450221008feb8618d97da3b66fcd9727c8b1886b249cc948611fb1f69b6d557bd40a6e8a02201a856604b8463c83ab8a1306d5563c9a23ec03842af42ec332370dd17611bf3a01", "02103a62ab26344a1a3611ae0e5df39cc6b96d449fb117e28520f8da308dfbcec7"], "sequence": 4294967295, "scriptSig": {"hex": "", "asm": ""}, "vout": 1, "txid": "cdb70408d47854460576742fb866f1120eb7ff59942b94eb1657f3cc31ce4491"}], "txid": "75002b04feac6a03c053c7641f9815a33e6f3f259e17dda8a547f46ba96a67f0", "blocktime": 1537870928, "version": 1, "confirmations": 11513, "time": 1537870928, "locktime": 0, "vsize": 142, "size": 224}