{"hash": "750788df56c8f4a0e540f66116c8bf2f30af1a4186b8a9dc08776ce04923db98", "blockhash": "0000000000000000000baef3f32e3676a92c3b2e5da21b426e4f302fc371ce76", "vout": [{"scriptPubKey": {"reqSigs": 1, "hex": "76a914f25ea2ec6a7d1c6a5ae9cf7fe0e95af83ad1e3e388ac", "addresses": ["1P6XtsrCMRXbfVkji1fzjkTYL8S6ikZVoj"], "asm": "OP_DUP OP_HASH160 f25ea2ec6a7d1c6a5ae9cf7fe0e95af83ad1e3e3 OP_EQUALVERIFY OP_CHECKSIG", "type": "pubkeyhash"}, "value": 0.000453, "n": 0}, {"scriptPubKey": {"reqSigs": 1, "hex": "76a91404804e0773fa686554b392f4e01180294d07601f88ac", "addresses": ["1QoQYPb5JiKyeK2jj47Rv9YTRGn6FVFCX"], "asm": "OP_DUP OP_HASH160 04804e0773fa686554b392f4e01180294d07601f OP_EQUALVERIFY OP_CHECKSIG", "type": "pubkeyhash"}, "value": 0.00084915, "n": 1}], "hex": "0100000001bc4610f02ee218ea782fa3472b1df7f2e7e65b876e2fcb87f357e09d0d27f7b5010000006a47304402206ec13c73e65af0f3d05790fb7e3822109eec48bf5f25732c60e4638e9f5d9cba02201876b3d7ab10f32015a7d92aa856c44724399c722208cd626585207c704d14b1012102355ec030075ff36cd91b814894ce05a2ca712f97366a0713ffb58ca01059bb88ffffffff02f4b00000000000001976a914f25ea2ec6a7d1c6a5ae9cf7fe0e95af83ad1e3e388acb34b0100000000001976a91404804e0773fa686554b392f4e01180294d07601f88ac00000000", "vin": [{"sequence": 4294967295, "scriptSig": {"hex": "47304402206ec13c73e65af0f3d05790fb7e3822109eec48bf5f25732c60e4638e9f5d9cba02201876b3d7ab10f32015a7d92aa856c44724399c722208cd626585207c704d14b1012102355ec030075ff36cd91b814894ce05a2ca712f97366a0713ffb58ca01059bb88", "asm": "304402206ec13c73e65af0f3d05790fb7e3822109eec48bf5f25732c60e4638e9f5d9cba02201876b3d7ab10f32015a7d92aa856c44724399c722208cd626585207c704d14b1[ALL] 02355ec030075ff36cd91b814894ce05a2ca712f97366a0713ffb58ca01059bb88"}, "vout": 1, "txid": "b5f7270d9de057f387cb2f6e875be6e7f2f71d2b47a32f78ea18e22ef01046bc"}], "txid": "750788df56c8f4a0e540f66116c8bf2f30af1a4186b8a9dc08776ce04923db98", "blocktime": 1537876114, "version": 1, "confirmations": 11459, "time": 1537876114, "locktime": 0, "vsize": 225, "size": 225}