{"hash": "750ca03a38650247ab94085878291292a3f430eeabb0b995f48e9d1a03b88801", "blockhash": "0000000000000000001cda96e906b7601b7a6fb1a3b62bca570a9e5d8f4b3de1", "vout": [{"scriptPubKey": {"reqSigs": 1, "hex": "76a91499c771f1a259e2ee0e107b29af6dfcb0f094437388ac", "addresses": ["1F27K3D6TnvknnY7cbggxgTfriroEjFYPP"], "asm": "OP_DUP OP_HASH160 99c771f1a259e2ee0e107b29af6dfcb0f0944373 OP_EQUALVERIFY OP_CHECKSIG", "type": "pubkeyhash"}, "value": 0.0059, "n": 0}, {"scriptPubKey": {"reqSigs": 1, "hex": "76a9144a1a55aab3139de1d303d0842dd7c0b3c0cd3b8f88ac", "addresses": ["17kpYxZpeEJat1xSMmHDjg6SWnw1DRkqLz"], "asm": "OP_DUP OP_HASH160 4a1a55aab3139de1d303d0842dd7c0b3c0cd3b8f OP_EQUALVERIFY OP_CHECKSIG", "type": "pubkeyhash"}, "value": 0.09002021, "n": 1}], "hex": "01000000018f723cbd615658ee8793a1d05dcf3e775d708e32f3ea9299859179bbc5433971010000006b483045022100b68ef23b697bd34cd3261f6750681a44bf7d0618f04ca901cd82dfd11839ba7f0220236c4eeb923203896249aef9e20cf29d60095db1535a49034259e19bb8e299720121039d8a3ec179e9029b2bb50489c1dd90e6c034fcfc36b624758974879f973dcb9effffffff02b0000900000000001976a91499c771f1a259e2ee0e107b29af6dfcb0f094437388ac255c8900000000001976a9144a1a55aab3139de1d303d0842dd7c0b3c0cd3b8f88ac00000000", "vin": [{"sequence": 4294967295, "scriptSig": {"hex": "483045022100b68ef23b697bd34cd3261f6750681a44bf7d0618f04ca901cd82dfd11839ba7f0220236c4eeb923203896249aef9e20cf29d60095db1535a49034259e19bb8e299720121039d8a3ec179e9029b2bb50489c1dd90e6c034fcfc36b624758974879f973dcb9e", "asm": "3045022100b68ef23b697bd34cd3261f6750681a44bf7d0618f04ca901cd82dfd11839ba7f0220236c4eeb923203896249aef9e20cf29d60095db1535a49034259e19bb8e29972[ALL] 039d8a3ec179e9029b2bb50489c1dd90e6c034fcfc36b624758974879f973dcb9e"}, "vout": 1, "txid": "713943c5bb7991859992eaf3328e705d773ecf5dd0a19387ee585661bd3c728f"}], "txid": "750ca03a38650247ab94085878291292a3f430eeabb0b995f48e9d1a03b88801", "blocktime": 1537873282, "version": 1, "confirmations": 11485, "time": 1537873282, "locktime": 0, "vsize": 226, "size": 226}