{"hash": "af502d7f0523c9cf9f537801ae43f8835e46b15183f89fa25aed859a72f8ef54", "blockhash": "00000000000000000004ffacab907a6b429b9a5745fa0b75af4234bf69dd7176", "vout": [{"scriptPubKey": {"reqSigs": 1, "hex": "a9141d8e2e91a9cd287cdf297559217773221867656187", "addresses": ["34PHr5YVPNeLYSAPUKX7G7X4Am8py1ctux"], "asm": "OP_HASH160 1d8e2e91a9cd287cdf2975592177732218676561 OP_EQUAL", "type": "scripthash"}, "value": 0.016125, "n": 0}, {"scriptPubKey": {"reqSigs": 1, "hex": "a914dee0a1cc9f055700143e0f4ecee53180ab3530dc87", "addresses": ["3N1V2qWA5hpScEmS72pMooYRmXUiLmwPQQ"], "asm": "OP_HASH160 dee0a1cc9f055700143e0f4ecee53180ab3530dc OP_EQUAL", "type": "scripthash"}, "value": 1.01060775, "n": 1}], "hex": "02000000000101adfe06cba30267ddbcbca48f52a0d0d91c6c734d8e58ac3b3ec37d76a8921af80100000017160014cb5dbe423de4d42b6425c6921084c6197a5d2937ffffffff02d49a18000000000017a9141d8e2e91a9cd287cdf297559217773221867656187a71006060000000017a914dee0a1cc9f055700143e0f4ecee53180ab3530dc87024730440220463760a2b467e7a8a6a230462e0390562c49e997198e253b64568dcede33ea3d022052e798e74e0d9e7316f4a08504e90a3b5b552300fd25e481cf5b5c31073605c9012102acecad485eda786cbe0422823b7594aea6854abb5ec85e267f1c4b87f3f758f700000000", "vin": [{"txinwitness": ["30440220463760a2b467e7a8a6a230462e0390562c49e997198e253b64568dcede33ea3d022052e798e74e0d9e7316f4a08504e90a3b5b552300fd25e481cf5b5c31073605c901", "02acecad485eda786cbe0422823b7594aea6854abb5ec85e267f1c4b87f3f758f7"], "sequence": 4294967295, "scriptSig": {"hex": "160014cb5dbe423de4d42b6425c6921084c6197a5d2937", "asm": "0014cb5dbe423de4d42b6425c6921084c6197a5d2937"}, "vout": 1, "txid": "f81a92a8767dc33e3bac588e4d736c1cd9d0a0528fa4bcbcdd6702a3cb06fead"}], "txid": "750ecfd2c8d8390f5ff340f930fc5b2819f97b9a08a9c476b8776be387c4099c", "blocktime": 1537875543, "version": 2, "confirmations": 11464, "time": 1537875543, "locktime": 0, "vsize": 166, "size": 247}