{"hash": "750e2e752c1435b023480ded509f6e64c4660f372a595c12bcff800d32cb52ae", "blockhash": "0000000000000000001cda96e906b7601b7a6fb1a3b62bca570a9e5d8f4b3de1", "vout": [{"scriptPubKey": {"reqSigs": 1, "hex": "76a9142bce77ce81c7e9b323f9a2fa201452d4acbf5cd988ac", "addresses": ["14zdPtzmWVKGRhLaHTXNqjTxoV49JmNSV2"], "asm": "OP_DUP OP_HASH160 2bce77ce81c7e9b323f9a2fa201452d4acbf5cd9 OP_EQUALVERIFY OP_CHECKSIG", "type": "pubkeyhash"}, "value": 0.00038472, "n": 0}, {"scriptPubKey": {"reqSigs": 1, "hex": "76a914b81711ebaa6d7c7dc6afbdc83bebd693eab4b14688ac", "addresses": ["1HnNyEGBwkm1NFkJgUetewTssYPyjbG714"], "asm": "OP_DUP OP_HASH160 b81711ebaa6d7c7dc6afbdc83bebd693eab4b146 OP_EQUALVERIFY OP_CHECKSIG", "type": "pubkeyhash"}, "value": 0.0007806, "n": 1}], "hex": "0100000001b54af971b36241d6069834c92f3628f990d4b72607555bfc09a1a4629e2bce07000000006b483045022100993d5eefc5601cd01621d919342e3c198bb09461f0aefa7ea334ba6531107da2022054edaa95f1c92ee5629002d0d0c5429e5ffb23d8716ac85f465533a044b8cb0e0121024e16e3037fad937dd77c3cbaba61382451f76d7bb08386582726ada048009656ffffffff0248960000000000001976a9142bce77ce81c7e9b323f9a2fa201452d4acbf5cd988acec300100000000001976a914b81711ebaa6d7c7dc6afbdc83bebd693eab4b14688ac00000000", "vin": [{"sequence": 4294967295, "scriptSig": {"hex": "483045022100993d5eefc5601cd01621d919342e3c198bb09461f0aefa7ea334ba6531107da2022054edaa95f1c92ee5629002d0d0c5429e5ffb23d8716ac85f465533a044b8cb0e0121024e16e3037fad937dd77c3cbaba61382451f76d7bb08386582726ada048009656", "asm": "3045022100993d5eefc5601cd01621d919342e3c198bb09461f0aefa7ea334ba6531107da2022054edaa95f1c92ee5629002d0d0c5429e5ffb23d8716ac85f465533a044b8cb0e[ALL] 024e16e3037fad937dd77c3cbaba61382451f76d7bb08386582726ada048009656"}, "vout": 0, "txid": "07ce2b9e62a4a109fc5b550726b7d490f928362fc9349806d64162b371f94ab5"}], "txid": "750e2e752c1435b023480ded509f6e64c4660f372a595c12bcff800d32cb52ae", "blocktime": 1537873282, "version": 1, "confirmations": 11485, "time": 1537873282, "locktime": 0, "vsize": 226, "size": 226}