{"hash": "593baa0602ea3ce77d56a0e3448afdef7e4fe3f3f7a366fc5eef3754a4f0935f", "blockhash": "0000000000000000001f0ddff1eddb255c1121bcd4da4f1bc9a0da00cae72433", "vout": [{"scriptPubKey": {"reqSigs": 1, "hex": "76a914e793cea50e0012c00306f818f6dd135e827ee36d88ac", "addresses": ["1N7UA8yhZ3pxPGGBtAZQ8ZSs3d99kCrZjB"], "asm": "OP_DUP OP_HASH160 e793cea50e0012c00306f818f6dd135e827ee36d OP_EQUALVERIFY OP_CHECKSIG", "type": "pubkeyhash"}, "value": 0.08359453, "n": 0}, {"scriptPubKey": {"reqSigs": 1, "hex": "a9149d756b1365e279e9dbb300d4cec9a8e9875ff24f87", "addresses": ["3G3ag2QzST6ksDD5HBXbm3sieF8RGzwS3S"], "asm": "OP_HASH160 9d756b1365e279e9dbb300d4cec9a8e9875ff24f OP_EQUAL", "type": "scripthash"}, "value": 0.61578982, "n": 1}], "hex": "020000000001016ed06b2c77509a5806dadd7cde4122bf391923fdef0dac2f392dd859aecaa2930000000017160014db78ca35ca758350545dc73d20e0d0c0a61d8a0dfeffffff021d8e7f00000000001976a914e793cea50e0012c00306f818f6dd135e827ee36d88ace69eab030000000017a9149d756b1365e279e9dbb300d4cec9a8e9875ff24f8702483045022100fc968a55b2b6006ac50aa473db5d0aec3c76f0002cb3c5d3f573c6e6ad4f8f420220412aab7b8ee50054c1293be5663eb67b850806c016b691a091468dcc5855445d0121021e84ecf9740b05af5b5467af95cfe8583de88df8c48441411bcb388602c6fdeb11490800", "vin": [{"txinwitness": ["3045022100fc968a55b2b6006ac50aa473db5d0aec3c76f0002cb3c5d3f573c6e6ad4f8f420220412aab7b8ee50054c1293be5663eb67b850806c016b691a091468dcc5855445d01", "021e84ecf9740b05af5b5467af95cfe8583de88df8c48441411bcb388602c6fdeb"], "sequence": 4294967294, "scriptSig": {"hex": "160014db78ca35ca758350545dc73d20e0d0c0a61d8a0d", "asm": "0014db78ca35ca758350545dc73d20e0d0c0a61d8a0d"}, "vout": 0, "txid": "93a2caae59d82d392fac0deffd231939bf2241de7cddda06589a50772c6bd06e"}], "txid": "75148e5399fb7c8ebb60d007bd0542fbff2f94a79786701ae7f967392523230a", "blocktime": 1537872018, "version": 2, "confirmations": 11489, "time": 1537872018, "locktime": 542993, "vsize": 168, "size": 250}