{"hash": "751a5cfa8c0e9120ca5a622359fcd1bc393e3f5603e9ee568084d6e3edce2e8b", "blockhash": "0000000000000000000dcc0f55137456b1a82d3642486a52398922ac4d620174", "vout": [{"scriptPubKey": {"reqSigs": 1, "hex": "76a91430f4469f951ca4cc389530a23699d487051c602d88ac", "addresses": ["15Tr4nzmK7fhbYpU429dsnwFPd2ShWFcFE"], "asm": "OP_DUP OP_HASH160 30f4469f951ca4cc389530a23699d487051c602d OP_EQUALVERIFY OP_CHECKSIG", "type": "pubkeyhash"}, "value": 0.01064442, "n": 0}, {"scriptPubKey": {"reqSigs": 1, "hex": "76a9148745358e7619fe499b8b1387402126586464892388ac", "addresses": ["1DLF8dwnZzCuDbGmMPLSzsszQdUbi431r2"], "asm": "OP_DUP OP_HASH160 8745358e7619fe499b8b13874021265864648923 OP_EQUALVERIFY OP_CHECKSIG", "type": "pubkeyhash"}, "value": 0.00157286, "n": 1}], "hex": "020000000273f5e01d92b8b8fc210264de009c2b612be9f7054d74c841b7ace621c4aa7205010000006b48304502210080136d1fd8ccd40ce47bdd062cc339bf16e9195294eecae6599a8fe4a292d07b0220052127ebe0b6402b068ab97d78134c271951179da31ee8dff3dcf39345f98096012102fd82aac9a5987b77288961b170f081461886163e867d7c44416b11bc1580b86bfeffffffc92cf005e5eca98b0ab40a1ef02dac41e4aadf62ce45b7d4da7a3587ece65321000000006a473044022004b11f91a1a67f2f896d63f8a103763e09e0afff9bce03f4bc7ae86212ebddc502201e559ea99d4d5ebb7f616942856c9ee60792c6c48bedcc3a4edbd881e62ae5d70121024ec8f59f109a361e3bab693aca71bead315d5213407efe71b1da37c27caa3823feffffff02fa3d1000000000001976a91430f4469f951ca4cc389530a23699d487051c602d88ac66660200000000001976a9148745358e7619fe499b8b1387402126586464892388ac0c490800", "vin": [{"sequence": 4294967294, "scriptSig": {"hex": "48304502210080136d1fd8ccd40ce47bdd062cc339bf16e9195294eecae6599a8fe4a292d07b0220052127ebe0b6402b068ab97d78134c271951179da31ee8dff3dcf39345f98096012102fd82aac9a5987b77288961b170f081461886163e867d7c44416b11bc1580b86b", "asm": "304502210080136d1fd8ccd40ce47bdd062cc339bf16e9195294eecae6599a8fe4a292d07b0220052127ebe0b6402b068ab97d78134c271951179da31ee8dff3dcf39345f98096[ALL] 02fd82aac9a5987b77288961b170f081461886163e867d7c44416b11bc1580b86b"}, "vout": 1, "txid": "0572aac421e6acb741c8744d05f7e92b612b9c00de640221fcb8b8921de0f573"}, {"sequence": 4294967294, "scriptSig": {"hex": "473044022004b11f91a1a67f2f896d63f8a103763e09e0afff9bce03f4bc7ae86212ebddc502201e559ea99d4d5ebb7f616942856c9ee60792c6c48bedcc3a4edbd881e62ae5d70121024ec8f59f109a361e3bab693aca71bead315d5213407efe71b1da37c27caa3823", "asm": "3044022004b11f91a1a67f2f896d63f8a103763e09e0afff9bce03f4bc7ae86212ebddc502201e559ea99d4d5ebb7f616942856c9ee60792c6c48bedcc3a4edbd881e62ae5d7[ALL] 024ec8f59f109a361e3bab693aca71bead315d5213407efe71b1da37c27caa3823"}, "vout": 0, "txid": "2153e6ec87357adad4b745ce62dfaae441ac2df01e0ab40a8ba9ece505f02cc9"}], "txid": "751a5cfa8c0e9120ca5a622359fcd1bc393e3f5603e9ee568084d6e3edce2e8b", "blocktime": 1537870268, "version": 2, "confirmations": 11518, "time": 1537870268, "locktime": 542988, "vsize": 373, "size": 373}