{"hash": "751ec6c0954d2884e54d4e0e9fc8726e209568967ae7e3b1edbfa3b793078eb0", "blockhash": "00000000000000000024a2167bbff67b0be802c0b01cdd79e6331c2be6459f87", "vout": [{"scriptPubKey": {"reqSigs": 1, "hex": "a914a0ee65830963dbce2e08a801e4338862a39c568987", "addresses": ["3GMwdKPsyg42vaxH4L3CkYVHgKBUAqMmDm"], "asm": "OP_HASH160 a0ee65830963dbce2e08a801e4338862a39c5689 OP_EQUAL", "type": "scripthash"}, "value": 0.008868, "n": 0}], "hex": "01000000015acc328ccbfe5e86a864a7cb844d246bb30f20af3111118361d5548c36024fd5220000006a473044022014e9ba1736a467b8364f0f5f836b9414edad2e5cc9ead36a45910449edbe460a02202b91dd9e3b72823d123fa16d3bad9059b05b777e5fd60d35f39a8987e0f1a5680121033f42fcb208e6f6b6bb4e817a29cc1a2ba7f2f84111fa25928533c0b234c5c735ffffffff0110880d000000000017a914a0ee65830963dbce2e08a801e4338862a39c56898700000000", "vin": [{"sequence": 4294967295, "scriptSig": {"hex": "473044022014e9ba1736a467b8364f0f5f836b9414edad2e5cc9ead36a45910449edbe460a02202b91dd9e3b72823d123fa16d3bad9059b05b777e5fd60d35f39a8987e0f1a5680121033f42fcb208e6f6b6bb4e817a29cc1a2ba7f2f84111fa25928533c0b234c5c735", "asm": "3044022014e9ba1736a467b8364f0f5f836b9414edad2e5cc9ead36a45910449edbe460a02202b91dd9e3b72823d123fa16d3bad9059b05b777e5fd60d35f39a8987e0f1a568[ALL] 033f42fcb208e6f6b6bb4e817a29cc1a2ba7f2f84111fa25928533c0b234c5c735"}, "vout": 34, "txid": "d54f02368c54d56183111131af200fb36b244d84cba764a8865efecb8c32cc5a"}], "txid": "751ec6c0954d2884e54d4e0e9fc8726e209568967ae7e3b1edbfa3b793078eb0", "blocktime": 1537870564, "version": 1, "confirmations": 11515, "time": 1537870564, "locktime": 0, "vsize": 189, "size": 189}