{"hash": "b0a4301339ed5dbe33a7ab60afa3a526e371327b09cf2c77ab390b15f34fd9c8", "blockhash": "0000000000000000001f76057863aec43deb6fa401d9628bb513d65a8098bfab", "vout": [{"scriptPubKey": {"reqSigs": 1, "hex": "a914b1a9d954bb186ec236ff4a1948293bac9f7e71af87", "addresses": ["3HtQzouoJbrapbLLjrEoMmKo51DgvUAw3h"], "asm": "OP_HASH160 b1a9d954bb186ec236ff4a1948293bac9f7e71af OP_EQUAL", "type": "scripthash"}, "value": 0.152529, "n": 0}, {"scriptPubKey": {"reqSigs": 1, "hex": "a914574af6af969b553af0fb7fc72b3e8c08c1f3fb5f87", "addresses": ["39eaWo9MuaYxBpt1MA6cqqeRKMajoku8Qs"], "asm": "OP_HASH160 574af6af969b553af0fb7fc72b3e8c08c1f3fb5f OP_EQUAL", "type": "scripthash"}, "value": 5e-05, "n": 1}], "hex": "010000000001010bf7ce4c4460323ca4485c5ef76d0bd8f71198d8d2842d8654baa7c814fd3f2f000000002322002036ac9a87b93226b3ec560d330f6d7c3288455a9f8b1c9190feaa97bc736362e6ffffffff02a4bde8000000000017a914b1a9d954bb186ec236ff4a1948293bac9f7e71af87881300000000000017a914574af6af969b553af0fb7fc72b3e8c08c1f3fb5f870400473044022056d93d26cd7b0e25dbcf4f0280fe548c18e29ab939a2a59ad4a1c775d6281ba1022046992de6e4306498ce5bb66ff4852cf0285ea4e4be10275a78d7e5e399f0a60001483045022100c0142be6e94ff654c7556f28fbf80ee9e30e9325d27b03a9e00b82e5fafcb4d60220762aac50d3f68e24dbf00c231d727495e3a0152256f2bce99d63fc03c9b84dba0169522102575ceebae5b754be04e6265c0270c6622a56838af6e59a86d882910a177ea5752102e6a6c717f113b1fb55244563974b1c232957ccc5cc8f7936f7f2f30c3cfeaff52102e5f88d5c09314a2050dc857f3d485f742d2cceafd347def762e1f004ee3ec8f553ae00000000", "vin": [{"txinwitness": ["", "3044022056d93d26cd7b0e25dbcf4f0280fe548c18e29ab939a2a59ad4a1c775d6281ba1022046992de6e4306498ce5bb66ff4852cf0285ea4e4be10275a78d7e5e399f0a60001", "3045022100c0142be6e94ff654c7556f28fbf80ee9e30e9325d27b03a9e00b82e5fafcb4d60220762aac50d3f68e24dbf00c231d727495e3a0152256f2bce99d63fc03c9b84dba01", "522102575ceebae5b754be04e6265c0270c6622a56838af6e59a86d882910a177ea5752102e6a6c717f113b1fb55244563974b1c232957ccc5cc8f7936f7f2f30c3cfeaff52102e5f88d5c09314a2050dc857f3d485f742d2cceafd347def762e1f004ee3ec8f553ae"], "sequence": 4294967295, "scriptSig": {"hex": "22002036ac9a87b93226b3ec560d330f6d7c3288455a9f8b1c9190feaa97bc736362e6", "asm": "002036ac9a87b93226b3ec560d330f6d7c3288455a9f8b1c9190feaa97bc736362e6"}, "vout": 0, "txid": "2f3ffd14c8a7ba54862d84d2d89811f7d80b6df75e5c48a43c3260444ccef70b"}], "txid": "751f6be873b1d4fd1a71763206ca263ed07e428eec92ed654279b5a9865742dc", "blocktime": 1537873891, "version": 1, "confirmations": 11478, "time": 1537873891, "locktime": 0, "vsize": 214, "size": 405}