{"hash": "751f7412bc2f1f8e1dff8f81892b5f84a56713dbf4d7eaf6a817512ecaa2ff4d", "blockhash": "0000000000000000001f76057863aec43deb6fa401d9628bb513d65a8098bfab", "vout": [{"scriptPubKey": {"reqSigs": 1, "hex": "76a914168dccee3b68a6cf82f1acc48dc327784662cecb88ac", "addresses": ["134FjhAN6o11XUeRzZpdwRhmxg5UGNzmio"], "asm": "OP_DUP OP_HASH160 168dccee3b68a6cf82f1acc48dc327784662cecb OP_EQUALVERIFY OP_CHECKSIG", "type": "pubkeyhash"}, "value": 0.00369392, "n": 0}, {"scriptPubKey": {"reqSigs": 1, "hex": "76a9145945c4ec6e1b4cecc193232182a65eba8a3840d388ac", "addresses": ["1992ij18Rtxq5tt8hkfRijWpvoqLUX4grC"], "asm": "OP_DUP OP_HASH160 5945c4ec6e1b4cecc193232182a65eba8a3840d3 OP_EQUALVERIFY OP_CHECKSIG", "type": "pubkeyhash"}, "value": 0.01560518, "n": 1}], "hex": "0100000001acfabcb0e8a4f87fe8e1f7bc53b6059fb2cd2e1ec68c9e3498bc7b23332f3fc5120000006b483045022100ed9d9d8ed6bbd643647ac542a01963746f489392b7115949d03d09dd1de9f1640220348d519bdc23997536d7134ead8bc8641789900fb2e82a1c77af3eea11f80f2d012102a80d5c643490eeee1103ba9a8e433f251704c622f656271baa25e4d085a5334affffffff02f0a20500000000001976a914168dccee3b68a6cf82f1acc48dc327784662cecb88acc6cf1700000000001976a9145945c4ec6e1b4cecc193232182a65eba8a3840d388ac00000000", "vin": [{"sequence": 4294967295, "scriptSig": {"hex": "483045022100ed9d9d8ed6bbd643647ac542a01963746f489392b7115949d03d09dd1de9f1640220348d519bdc23997536d7134ead8bc8641789900fb2e82a1c77af3eea11f80f2d012102a80d5c643490eeee1103ba9a8e433f251704c622f656271baa25e4d085a5334a", "asm": "3045022100ed9d9d8ed6bbd643647ac542a01963746f489392b7115949d03d09dd1de9f1640220348d519bdc23997536d7134ead8bc8641789900fb2e82a1c77af3eea11f80f2d[ALL] 02a80d5c643490eeee1103ba9a8e433f251704c622f656271baa25e4d085a5334a"}, "vout": 18, "txid": "c53f2f33237bbc98349e8cc61e2ecdb29f05b653bcf7e1e87ff8a4e8b0bcfaac"}], "txid": "751f7412bc2f1f8e1dff8f81892b5f84a56713dbf4d7eaf6a817512ecaa2ff4d", "blocktime": 1537873891, "version": 1, "confirmations": 11478, "time": 1537873891, "locktime": 0, "vsize": 226, "size": 226}