{"hash": "7520229864631a2055694abd17023bf9e18ffc71ce92ca656ade7f538195d439", "blockhash": "00000000000000000017f5eb5941039fbcee6240d03bc1f2f8e35350df66a1d8", "vout": [{"scriptPubKey": {"reqSigs": 1, "hex": "a914839953abc50fa4aa2e00ce33ffa82e1337da80d687", "addresses": ["3Dgr81Uy39Mt5V64KnBZwvzdAkUPCGFRAm"], "asm": "OP_HASH160 839953abc50fa4aa2e00ce33ffa82e1337da80d6 OP_EQUAL", "type": "scripthash"}, "value": 0.01773251, "n": 0}, {"scriptPubKey": {"reqSigs": 1, "hex": "76a914af0bb17e9fab3b6b3d8263208ab8d8a1aca9cd0688ac", "addresses": ["1GxZG3Bt5ZdsdNt8bJxdVx3DbMcMjQ8aW7"], "asm": "OP_DUP OP_HASH160 af0bb17e9fab3b6b3d8263208ab8d8a1aca9cd06 OP_EQUALVERIFY OP_CHECKSIG", "type": "pubkeyhash"}, "value": 2.50137447, "n": 1}], "hex": "010000000117c3060708b621ed8e411dfde70d3cbc061cf6705b0147f2dfaaf3c6dca602fb010000006a473044022060433c5b647035cdfbb9ea4b1a6cfc3c0b4a7696e61a5119d1915158e8e8d91d02204e5e0f2fe58e9355fb250fcf5a66616f67987c74b5a6c16dcc78e3790d50d74f012102224769b2e93c2e04052c3cd3fb14e2f50530eb9d152611e5e95072c58dbe4e33ffffffff02c30e1b000000000017a914839953abc50fa4aa2e00ce33ffa82e1337da80d68767cbe80e000000001976a914af0bb17e9fab3b6b3d8263208ab8d8a1aca9cd0688ac00000000", "vin": [{"sequence": 4294967295, "scriptSig": {"hex": "473044022060433c5b647035cdfbb9ea4b1a6cfc3c0b4a7696e61a5119d1915158e8e8d91d02204e5e0f2fe58e9355fb250fcf5a66616f67987c74b5a6c16dcc78e3790d50d74f012102224769b2e93c2e04052c3cd3fb14e2f50530eb9d152611e5e95072c58dbe4e33", "asm": "3044022060433c5b647035cdfbb9ea4b1a6cfc3c0b4a7696e61a5119d1915158e8e8d91d02204e5e0f2fe58e9355fb250fcf5a66616f67987c74b5a6c16dcc78e3790d50d74f[ALL] 02224769b2e93c2e04052c3cd3fb14e2f50530eb9d152611e5e95072c58dbe4e33"}, "vout": 1, "txid": "fb02a6dcc6f3aadff247015b70f61c06bc3c0de7fd1d418eed21b6080706c317"}], "txid": "7520229864631a2055694abd17023bf9e18ffc71ce92ca656ade7f538195d439", "blocktime": 1537874412, "version": 1, "confirmations": 11467, "time": 1537874412, "locktime": 0, "vsize": 223, "size": 223}