{"hash": "dcbe171cb47e4836f97dc84d3380982a49c682edfc9fa77fd9185a245a2d54b1", "blockhash": "000000000000000000022b45ed06c6f4ccd3cf7fb5ba4856ebd2e58215665228", "vout": [{"scriptPubKey": {"reqSigs": 1, "hex": "76a91441b7745f409ae0903f965436fa2accaa074e358688ac", "addresses": ["16zUh7m5SuN8RBfxiQjCDYSP97UKsCQRes"], "asm": "OP_DUP OP_HASH160 41b7745f409ae0903f965436fa2accaa074e3586 OP_EQUALVERIFY OP_CHECKSIG", "type": "pubkeyhash"}, "value": 0.00031653, "n": 0}, {"scriptPubKey": {"reqSigs": 1, "hex": "0014c910250078f8457d3dd594d526392282b0e202f8", "addresses": ["bc1qeygz2qrclpzh60w4jn2jvwfzs2cwyqhc0n6yws"], "asm": "0 c910250078f8457d3dd594d526392282b0e202f8", "type": "witness_v0_keyhash"}, "value": 1.06e-05, "n": 1}], "hex": "010000000001018ec7e8e12b54d0be2d93f5ba419c9b2b3f0e355ea4b8624ca5d1f6f3e798bc0814000000171600142929b8ae4a71e635f50533e47a607ddc3feb7354ffffffff02a57b0000000000001976a91441b7745f409ae0903f965436fa2accaa074e358688ac2404000000000000160014c910250078f8457d3dd594d526392282b0e202f802483045022100fc81bedb60b51761d12059694c479b7dd583b6066fd4eeabdbb05aeb780885ed022044b807ba5a54bdbfdcf93e2279efc7c593c3ca8ca924d0dc3ff8954c29bbc9c401210267db3879e723c2ba76170d1de9fbdb58aaea9d4543d65153dde7efb0ea146fc900000000", "vin": [{"txinwitness": ["3045022100fc81bedb60b51761d12059694c479b7dd583b6066fd4eeabdbb05aeb780885ed022044b807ba5a54bdbfdcf93e2279efc7c593c3ca8ca924d0dc3ff8954c29bbc9c401", "0267db3879e723c2ba76170d1de9fbdb58aaea9d4543d65153dde7efb0ea146fc9"], "sequence": 4294967295, "scriptSig": {"hex": "1600142929b8ae4a71e635f50533e47a607ddc3feb7354", "asm": "00142929b8ae4a71e635f50533e47a607ddc3feb7354"}, "vout": 20, "txid": "08bc98e7f3f6d1a54c62b8a45e350e3f2b9b9c41baf5932dbed0542be1e8c78e"}], "txid": "7522a0a0557b913076f0272e08cca924e30d5a4d06c01f9e223ee7d7a9c06a5e", "blocktime": 1537869901, "version": 1, "confirmations": 11523, "time": 1537869901, "locktime": 0, "vsize": 167, "size": 249}