{"hash": "75232beca700c45034b15e56f6e3556e1247bca9922f77d4ebb4f43a9cb863b9", "blockhash": "0000000000000000001cda96e906b7601b7a6fb1a3b62bca570a9e5d8f4b3de1", "vout": [{"scriptPubKey": {"reqSigs": 1, "hex": "76a914d97f046ea656bf99d324121be5763afbdb578e1088ac", "addresses": ["1Lq1nwoVAJg8r3CAXmnpwyQov2WaLWpCxP"], "asm": "OP_DUP OP_HASH160 d97f046ea656bf99d324121be5763afbdb578e10 OP_EQUALVERIFY OP_CHECKSIG", "type": "pubkeyhash"}, "value": 0.0005, "n": 0}, {"scriptPubKey": {"reqSigs": 1, "hex": "76a914e349bc52d6b8100b58d3fce45135a91c5c128a1d88ac", "addresses": ["1MiningDkXkhKaXBTMKXfLemnk1YY5rbkT"], "asm": "OP_DUP OP_HASH160 e349bc52d6b8100b58d3fce45135a91c5c128a1d OP_EQUALVERIFY OP_CHECKSIG", "type": "pubkeyhash"}, "value": 0.03098342, "n": 1}], "hex": "0200000001a8b9fc562ad95d721dc7cc3f046c63f4d8065b437f25b66188dbabacae95d20d010000008a47304402201263aac335994f54568f0d6005c075bf7cb22bf3503402cc07111c97e3b228350220070f76cf49e6a065527c04d7497280d2779d6c2e819e62cb612fab31c303cd15014104ae414abde7876c34e01694b38b2341d10b9b4c8db18a66262bd8df26bcb57893885c9fe8b79aa25330d5f05bb5aa9ab636a908a72e27956572b44190b22809beffffffff0250c30000000000001976a914d97f046ea656bf99d324121be5763afbdb578e1088ace6462f00000000001976a914e349bc52d6b8100b58d3fce45135a91c5c128a1d88ac00000000", "vin": [{"sequence": 4294967295, "scriptSig": {"hex": "47304402201263aac335994f54568f0d6005c075bf7cb22bf3503402cc07111c97e3b228350220070f76cf49e6a065527c04d7497280d2779d6c2e819e62cb612fab31c303cd15014104ae414abde7876c34e01694b38b2341d10b9b4c8db18a66262bd8df26bcb57893885c9fe8b79aa25330d5f05bb5aa9ab636a908a72e27956572b44190b22809be", "asm": "304402201263aac335994f54568f0d6005c075bf7cb22bf3503402cc07111c97e3b228350220070f76cf49e6a065527c04d7497280d2779d6c2e819e62cb612fab31c303cd15[ALL] 04ae414abde7876c34e01694b38b2341d10b9b4c8db18a66262bd8df26bcb57893885c9fe8b79aa25330d5f05bb5aa9ab636a908a72e27956572b44190b22809be"}, "vout": 1, "txid": "0dd295aeacabdb8861b6257f435b06d8f4636c043fccc71d725dd92a56fcb9a8"}], "txid": "75232beca700c45034b15e56f6e3556e1247bca9922f77d4ebb4f43a9cb863b9", "blocktime": 1537873282, "version": 2, "confirmations": 11484, "time": 1537873282, "locktime": 0, "vsize": 257, "size": 257}