{"hash": "75267f11e86a64636565cbf9206f15aa19cc83742b38b7e2d90c6fd183117d0e", "blockhash": "0000000000000000000dcc0f55137456b1a82d3642486a52398922ac4d620174", "vout": [{"scriptPubKey": {"reqSigs": 1, "hex": "76a91410d8b493936470e58fa13cde93b09cca920f858e88ac", "addresses": ["12Y5R2KpLvEtojQKBwdYLZBjxHUL14xUgG"], "asm": "OP_DUP OP_HASH160 10d8b493936470e58fa13cde93b09cca920f858e OP_EQUALVERIFY OP_CHECKSIG", "type": "pubkeyhash"}, "value": 3.96, "n": 0}, {"scriptPubKey": {"reqSigs": 1, "hex": "76a9148fdccf0a4d2779274422d08b7ea4dd25591af10388ac", "addresses": ["1E7g9VaYSDFXfrvQp8TAbAA6xGFVxCEnPC"], "asm": "OP_DUP OP_HASH160 8fdccf0a4d2779274422d08b7ea4dd25591af103 OP_EQUALVERIFY OP_CHECKSIG", "type": "pubkeyhash"}, "value": 0.93992, "n": 1}], "hex": "0100000002780a4fda1151aed8a30969836b8b9c20155b447bbab67e90ac8fa439c32016da010000006b483045022100f5e11b39b68767028bfae3d68ee8e9a84c90753b49288077f997c0bb2f8d25e5022000d50a5339d578c6062e752803bc6737bcb7fa405f1312085a201b28b179dd7c012102152a892c706a68fa801cdd41bd8145b4eed733cb768887d2127c2e6d89763903ffffffff780a4fda1151aed8a30969836b8b9c20155b447bbab67e90ac8fa439c32016da000000006b483045022100cc88bb53423ca1227c9b363d3201b18da1f6125daa679e2994973f11fa2175d802200fa4f28d5ceb96435a29b05c7890a488d1adf62d5f74cbdd158321ea767ff7b1012102ec6b86976d45419792986376013cf84520104b83481fe7a96f2d8462129f60c6ffffffff02007b9a17000000001976a91410d8b493936470e58fa13cde93b09cca920f858e88ac40349a05000000001976a9148fdccf0a4d2779274422d08b7ea4dd25591af10388ac00000000", "vin": [{"sequence": 4294967295, "scriptSig": {"hex": "483045022100f5e11b39b68767028bfae3d68ee8e9a84c90753b49288077f997c0bb2f8d25e5022000d50a5339d578c6062e752803bc6737bcb7fa405f1312085a201b28b179dd7c012102152a892c706a68fa801cdd41bd8145b4eed733cb768887d2127c2e6d89763903", "asm": "3045022100f5e11b39b68767028bfae3d68ee8e9a84c90753b49288077f997c0bb2f8d25e5022000d50a5339d578c6062e752803bc6737bcb7fa405f1312085a201b28b179dd7c[ALL] 02152a892c706a68fa801cdd41bd8145b4eed733cb768887d2127c2e6d89763903"}, "vout": 1, "txid": "da1620c339a48fac907eb6ba7b445b15209c8b6b836909a3d8ae5111da4f0a78"}, {"sequence": 4294967295, "scriptSig": {"hex": "483045022100cc88bb53423ca1227c9b363d3201b18da1f6125daa679e2994973f11fa2175d802200fa4f28d5ceb96435a29b05c7890a488d1adf62d5f74cbdd158321ea767ff7b1012102ec6b86976d45419792986376013cf84520104b83481fe7a96f2d8462129f60c6", "asm": "3045022100cc88bb53423ca1227c9b363d3201b18da1f6125daa679e2994973f11fa2175d802200fa4f28d5ceb96435a29b05c7890a488d1adf62d5f74cbdd158321ea767ff7b1[ALL] 02ec6b86976d45419792986376013cf84520104b83481fe7a96f2d8462129f60c6"}, "vout": 0, "txid": "da1620c339a48fac907eb6ba7b445b15209c8b6b836909a3d8ae5111da4f0a78"}], "txid": "75267f11e86a64636565cbf9206f15aa19cc83742b38b7e2d90c6fd183117d0e", "blocktime": 1537870268, "version": 1, "confirmations": 11516, "time": 1537870268, "locktime": 0, "vsize": 374, "size": 374}