{"hash": "752db28c1eef2ec3528f98eaeb24a51df6bdb71d91252aefd0b15c046bb77219", "blockhash": "0000000000000000000e13cef7c366c0283d82e591d1acd082e914b08063cdf1", "vout": [{"scriptPubKey": {"reqSigs": 1, "hex": "a914fcf534d89ae65ead77b17d7395fd6f95c1eb883787", "addresses": ["3QkXx8Hh5UJzv3UpQBWKMMu9wnSVzbPti1"], "asm": "OP_HASH160 fcf534d89ae65ead77b17d7395fd6f95c1eb8837 OP_EQUAL", "type": "scripthash"}, "value": 0.03126304, "n": 0}, {"scriptPubKey": {"reqSigs": 1, "hex": "76a9144d60d4bef866a0852e502293d0c558421dbfb80f88ac", "addresses": ["18492i9gsehHP3sn6AYtDuiLm95copJPnm"], "asm": "OP_DUP OP_HASH160 4d60d4bef866a0852e502293d0c558421dbfb80f OP_EQUALVERIFY OP_CHECKSIG", "type": "pubkeyhash"}, "value": 0.00691593, "n": 1}], "hex": "0100000001c053ebb87eb8263676f994a96243b51d31b0a8228699f656288cc8414275f25a0000000069463043021f1d40b5787625547268a92364d71f32613cf16813652be9740e759604c5e75002207189f455ab17ee0bcb469e33353a00665dd45378cc0792bd775104f631b38e76012102ec6379c087113ce9ba0f1ba105518e705ba4499fa99e40b22839024fd1988b1dffffffff0220b42f000000000017a914fcf534d89ae65ead77b17d7395fd6f95c1eb883787898d0a00000000001976a9144d60d4bef866a0852e502293d0c558421dbfb80f88ac00000000", "vin": [{"sequence": 4294967295, "scriptSig": {"hex": "463043021f1d40b5787625547268a92364d71f32613cf16813652be9740e759604c5e75002207189f455ab17ee0bcb469e33353a00665dd45378cc0792bd775104f631b38e76012102ec6379c087113ce9ba0f1ba105518e705ba4499fa99e40b22839024fd1988b1d", "asm": "3043021f1d40b5787625547268a92364d71f32613cf16813652be9740e759604c5e75002207189f455ab17ee0bcb469e33353a00665dd45378cc0792bd775104f631b38e76[ALL] 02ec6379c087113ce9ba0f1ba105518e705ba4499fa99e40b22839024fd1988b1d"}, "vout": 0, "txid": "5af2754241c88c2856f6998622a8b0311db54362a994f9763626b87eb8eb53c0"}], "txid": "752db28c1eef2ec3528f98eaeb24a51df6bdb71d91252aefd0b15c046bb77219", "blocktime": 1537871767, "version": 1, "confirmations": 11494, "time": 1537871767, "locktime": 0, "vsize": 222, "size": 222}