{"hash": "d73ed08faa1360d53c2881ffe27406e73421eccc4b0dc5160556ac2db25d9cf7", "blockhash": "0000000000000000000baef3f32e3676a92c3b2e5da21b426e4f302fc371ce76", "vout": [{"scriptPubKey": {"reqSigs": 1, "hex": "a914cc82c0fe40cf58354377373ece691b0d021adba287", "addresses": ["3LLNQcgRQYVs7UGLkBeBenhkBXtSaRm4kr"], "asm": "OP_HASH160 cc82c0fe40cf58354377373ece691b0d021adba2 OP_EQUAL", "type": "scripthash"}, "value": 0.00011435, "n": 0}, {"scriptPubKey": {"reqSigs": 1, "hex": "a914b2e6a8e553bd7e11c1392f8d61e19b5888e139c087", "addresses": ["3HzxXD8PhqJETjkWrQYD4nYc6yKx3mGLXi"], "asm": "OP_HASH160 b2e6a8e553bd7e11c1392f8d61e19b5888e139c0 OP_EQUAL", "type": "scripthash"}, "value": 0.00504839, "n": 1}], "hex": "010000000001015b55332c28291a92f0a6d3e426340261cdc26108817a6acb4df11fe0404b447e010000002322002045dc4a8e7a7ed593d2ea538a381c31e2607ee08f052e914f99311fee2a8f4d56ffffffff02ab2c00000000000017a914cc82c0fe40cf58354377373ece691b0d021adba28707b407000000000017a914b2e6a8e553bd7e11c1392f8d61e19b5888e139c0870400473044022046150a1d88025581dba906bf230ffbce65e4f82a4dc88e40c776c1f4d3a25c8302205b9332db1ce628ebc0edf09953a47a1010f64100b094d550dc455a40a34d895301483045022100ac88feb8448d8331ad4cc31508f6260f513b7bba830dfba70c3e0c4699acd4d502201de98dfb1ad8ab3b8e31d5f193d90d91569f8c741fe4f87dba01e2f7d438a4a6014752210333a2cce5556afb7a9431cdacaea04e945b9daa974227ab5f4aca265bc268c7952103871fc2ca08e6950b38867e8e6a0e94ee625223d3aa0df5c65f414c6d784467e252ae00000000", "vin": [{"txinwitness": ["", "3044022046150a1d88025581dba906bf230ffbce65e4f82a4dc88e40c776c1f4d3a25c8302205b9332db1ce628ebc0edf09953a47a1010f64100b094d550dc455a40a34d895301", "3045022100ac88feb8448d8331ad4cc31508f6260f513b7bba830dfba70c3e0c4699acd4d502201de98dfb1ad8ab3b8e31d5f193d90d91569f8c741fe4f87dba01e2f7d438a4a601", "52210333a2cce5556afb7a9431cdacaea04e945b9daa974227ab5f4aca265bc268c7952103871fc2ca08e6950b38867e8e6a0e94ee625223d3aa0df5c65f414c6d784467e252ae"], "sequence": 4294967295, "scriptSig": {"hex": "22002045dc4a8e7a7ed593d2ea538a381c31e2607ee08f052e914f99311fee2a8f4d56", "asm": "002045dc4a8e7a7ed593d2ea538a381c31e2607ee08f052e914f99311fee2a8f4d56"}, "vout": 1, "txid": "7e444b40e01ff14dcb6a7a810861c2cd61023426e4d3a6f0921a29282c33555b"}], "txid": "753238684ee7a2b350257dc7f0dd5b0d5106c602b6b35590946f16e43873acb3", "blocktime": 1537876114, "version": 1, "confirmations": 11460, "time": 1537876114, "locktime": 0, "vsize": 206, "size": 371}