{"hash": "265219a1b5e99ac31c34196b07780a9bbec9ea0808188776598661fecef2c98d", "blockhash": "0000000000000000000e13cef7c366c0283d82e591d1acd082e914b08063cdf1", "vout": [{"scriptPubKey": {"reqSigs": 1, "hex": "76a914b7be3e452735ba040850819d430ff8818ce1965488ac", "addresses": ["1HkYZSMkNV4ywdVnqj7msXkFFFCEFc9CtV"], "asm": "OP_DUP OP_HASH160 b7be3e452735ba040850819d430ff8818ce19654 OP_EQUALVERIFY OP_CHECKSIG", "type": "pubkeyhash"}, "value": 0.0029916, "n": 0}, {"scriptPubKey": {"reqSigs": 1, "hex": "a914ec409111bcf2927e2b756d980fb7e55dd0abf97087", "addresses": ["3PECjzCqFiVAMQkYMsCLenJG5mUbJXZ57R"], "asm": "OP_HASH160 ec409111bcf2927e2b756d980fb7e55dd0abf970 OP_EQUAL", "type": "scripthash"}, "value": 0.00999384, "n": 1}], "hex": "0200000000010204ebd7cde4b282c55fc71b2e4a064954fa1886ab294163115f4114426dadbc3b000000001716001416e83d88d9dde6a73d93b65dac91c6b3b1077d1bfeffffff7c31d665dab91b3ba3e2318d0fdb52474d40d02a502d95691b90564eb08cb6dd00000000171600143227691197b80e2289b6a29ba4ac24b873d5dfbbfeffffff0298900400000000001976a914b7be3e452735ba040850819d430ff8818ce1965488acd83f0f000000000017a914ec409111bcf2927e2b756d980fb7e55dd0abf970870247304402200dcb69859df10038f0f25ab1a85a169ad9990b41e2db0346b99b4b2f33a66e8502202581b9ddb801b0074bfaacb01be8fb885490ff87fd8afac37bbd87989ec85a0e012102513c6e4b1a492a51258120042a4b09c0164a03efd153bc3495dd7264ec467e5f0247304402203e8aa4dcd170a2528a31ce3112bc1610368753d60d5e2b12fd79ee3c88ef41fc022065c8ce6685450acdb6661513952da9e199e19247d342ef07e82d81d52ef6c4d30121032ceb59c9437b05d8ad000fb1d5aec70b5a57856c1fa6af78b4642fd132d196b610490800", "vin": [{"txinwitness": ["304402200dcb69859df10038f0f25ab1a85a169ad9990b41e2db0346b99b4b2f33a66e8502202581b9ddb801b0074bfaacb01be8fb885490ff87fd8afac37bbd87989ec85a0e01", "02513c6e4b1a492a51258120042a4b09c0164a03efd153bc3495dd7264ec467e5f"], "sequence": 4294967294, "scriptSig": {"hex": "16001416e83d88d9dde6a73d93b65dac91c6b3b1077d1b", "asm": "001416e83d88d9dde6a73d93b65dac91c6b3b1077d1b"}, "vout": 0, "txid": "3bbcad6d4214415f11634129ab8618fa5449064a2e1bc75fc582b2e4cdd7eb04"}, {"txinwitness": ["304402203e8aa4dcd170a2528a31ce3112bc1610368753d60d5e2b12fd79ee3c88ef41fc022065c8ce6685450acdb6661513952da9e199e19247d342ef07e82d81d52ef6c4d301", "032ceb59c9437b05d8ad000fb1d5aec70b5a57856c1fa6af78b4642fd132d196b6"], "sequence": 4294967294, "scriptSig": {"hex": "1600143227691197b80e2289b6a29ba4ac24b873d5dfbb", "asm": "00143227691197b80e2289b6a29ba4ac24b873d5dfbb"}, "vout": 0, "txid": "ddb68cb04e56901b69952d502ad0404d4752db0f8d31e2a33b1bb9da65d6317c"}], "txid": "753f178560131b6a8cd74ea93aafe9558a57dad47fbaac7f5865e40d75a47fa9", "blocktime": 1537871767, "version": 2, "confirmations": 11495, "time": 1537871767, "locktime": 542992, "vsize": 258, "size": 420}