{"hash": "e484284135c2763dfd808ceebd1ed8d19fabb3c9535130478e7b80a9bb68d46c", "blockhash": "0000000000000000001cda96e906b7601b7a6fb1a3b62bca570a9e5d8f4b3de1", "vout": [{"scriptPubKey": {"reqSigs": 1, "hex": "a914a70938b8c56a4b83462fb8c05a69a121dd1f10a187", "addresses": ["3GvDpJfJnk2fvcT554C45VQxP2gFio4EAf"], "asm": "OP_HASH160 a70938b8c56a4b83462fb8c05a69a121dd1f10a1 OP_EQUAL", "type": "scripthash"}, "value": 0.00398777, "n": 0}, {"scriptPubKey": {"reqSigs": 1, "hex": "a914d591dc9fd52a4a9fb4c35a443c9b5b1ecfda33c687", "addresses": ["3MAGb4SYAY4zwam1xu9Z9coy3TYokUUYwZ"], "asm": "OP_HASH160 d591dc9fd52a4a9fb4c35a443c9b5b1ecfda33c6 OP_EQUAL", "type": "scripthash"}, "value": 0.01, "n": 1}], "hex": "02000000000103845751036ea1d66c11881d3c7b5656241e60d14478d12cbd61c754743172ad0401000000171600146b43b1d447fe499640e7d7fa4363d0fcec44dbc6feffffffa5c95143433e1639b4bc31869281ea17ec97fdad7bb4b0dc1dca5777c9ec9efd1000000017160014a4c5cb9bb8725ed7ddf0ff939fb090404c089540fefffffff3be93103579a4137f67dcd23dbfb4648469cf86a7ce26ee84ec608facfe5bcf00000000171600145a7bb1d41052c6ac54f98a7d2af414b6fa6afb33feffffff02b91506000000000017a914a70938b8c56a4b83462fb8c05a69a121dd1f10a18740420f000000000017a914d591dc9fd52a4a9fb4c35a443c9b5b1ecfda33c68702483045022100b3c9354f397d40225dab57961aeef3832de0bacfbf2c58ccb5295ca8d40f688c02203f7fbee6234788ea07787612576b968a89753247229205f522fb5dc5dd0300910121020cf274bd9ee4c7f3c3fe9f2fafe8800ba899cedfe937ebf9353f5be7197a8b210247304402201965940d536fffb231c76b10b3c77baa9fd44862c8aaf657ef5a97fb66270ec402207be97cc13501bcfd190f5ef8abbe7eeb3916fa6aec240f55075e127631d4039b012102e91a3764f312cf04fcb3fef2e29ae2d0ad0afee8523f168335eff3d69b05e9ed0247304402207035791b7de61a86c7272d1fe1365b04c5b8fe2e97b78500f5ea6f1f6b9bb94602201519129e4c8e6203ab714f67b6dde63dc25d87f3136ebcef20ae2ac180f36c5c012102457e2c274950b75cf775c38e2b70f92d49ef26820e54e1de58cdbcab4357c54d13490800", "vin": [{"txinwitness": ["3045022100b3c9354f397d40225dab57961aeef3832de0bacfbf2c58ccb5295ca8d40f688c02203f7fbee6234788ea07787612576b968a89753247229205f522fb5dc5dd03009101", "020cf274bd9ee4c7f3c3fe9f2fafe8800ba899cedfe937ebf9353f5be7197a8b21"], "sequence": 4294967294, "scriptSig": {"hex": "1600146b43b1d447fe499640e7d7fa4363d0fcec44dbc6", "asm": "00146b43b1d447fe499640e7d7fa4363d0fcec44dbc6"}, "vout": 1, "txid": "04ad72317454c761bd2cd17844d1601e2456567b3c1d88116cd6a16e03515784"}, {"txinwitness": ["304402201965940d536fffb231c76b10b3c77baa9fd44862c8aaf657ef5a97fb66270ec402207be97cc13501bcfd190f5ef8abbe7eeb3916fa6aec240f55075e127631d4039b01", "02e91a3764f312cf04fcb3fef2e29ae2d0ad0afee8523f168335eff3d69b05e9ed"], "sequence": 4294967294, "scriptSig": {"hex": "160014a4c5cb9bb8725ed7ddf0ff939fb090404c089540", "asm": "0014a4c5cb9bb8725ed7ddf0ff939fb090404c089540"}, "vout": 16, "txid": "fd9eecc97757ca1ddcb0b47badfd97ec17ea81928631bcb439163e434351c9a5"}, {"txinwitness": ["304402207035791b7de61a86c7272d1fe1365b04c5b8fe2e97b78500f5ea6f1f6b9bb94602201519129e4c8e6203ab714f67b6dde63dc25d87f3136ebcef20ae2ac180f36c5c01", "02457e2c274950b75cf775c38e2b70f92d49ef26820e54e1de58cdbcab4357c54d"], "sequence": 4294967294, "scriptSig": {"hex": "1600145a7bb1d41052c6ac54f98a7d2af414b6fa6afb33", "asm": "00145a7bb1d41052c6ac54f98a7d2af414b6fa6afb33"}, "vout": 0, "txid": "cf5bfeac8f60ec84ee26cea786cf698464b4bf3dd2dc677f13a479351093bef3"}], "txid": "753f3ec9884795903dff132090a7177dfca9bffe75e624eb4c4a0c617c1ad50c", "blocktime": 1537873282, "version": 2, "confirmations": 11484, "time": 1537873282, "locktime": 542995, "vsize": 347, "size": 590}