{"hash": "a09103451d18f713036e0d6d7b95071d0582681b637bbfc40cb63d3292df8ff4", "blockhash": "0000000000000000000e13cef7c366c0283d82e591d1acd082e914b08063cdf1", "vout": [{"scriptPubKey": {"reqSigs": 1, "hex": "76a914dcd24d8b5f0999161867e589251c6c3ae188dbbc88ac", "addresses": ["1M8bbJggaNJnwiSBRFfxL1dk67n7bGtQW3"], "asm": "OP_DUP OP_HASH160 dcd24d8b5f0999161867e589251c6c3ae188dbbc OP_EQUALVERIFY OP_CHECKSIG", "type": "pubkeyhash"}, "value": 0.0156, "n": 0}, {"scriptPubKey": {"reqSigs": 1, "hex": "0014633acc9fdb6ed089697475cb15216d121991deb1", "addresses": ["bc1qvvave87mdmggj6t5wh932gtdzgverh43vghqmq"], "asm": "0 633acc9fdb6ed089697475cb15216d121991deb1", "type": "witness_v0_keyhash"}, "value": 0.00068813, "n": 1}], "hex": "01000000000101e7a489c8649bcb1040468e5ce09c38ef0b905a7b39b7d61f7099e36fc5db42040000000000ffffffff02c0cd1700000000001976a914dcd24d8b5f0999161867e589251c6c3ae188dbbc88accd0c010000000000160014633acc9fdb6ed089697475cb15216d121991deb102483045022100859bc399c2276571a10f83a44e44e5d927309795fc17da307fbc8bb9cc2e97a8022005c80465651158bda6a90c5da4d0828fc8c3360b195859c70911cdbbe4bddabf012103cd3271338ca5694273dcd4a0d8c2aeb53b30460d62cbd9712b50806a46ac562300000000", "vin": [{"txinwitness": ["3045022100859bc399c2276571a10f83a44e44e5d927309795fc17da307fbc8bb9cc2e97a8022005c80465651158bda6a90c5da4d0828fc8c3360b195859c70911cdbbe4bddabf01", "03cd3271338ca5694273dcd4a0d8c2aeb53b30460d62cbd9712b50806a46ac5623"], "sequence": 4294967295, "scriptSig": {"hex": "", "asm": ""}, "vout": 0, "txid": "0442dbc56fe399701fd6b7397b5a900bef389ce05c8e464010cb9b64c889a4e7"}], "txid": "754127018097c762cd586ce7ea546227549052848d7b14d6e0ea6ec29ee7960a", "blocktime": 1537871767, "version": 1, "confirmations": 11495, "time": 1537871767, "locktime": 0, "vsize": 144, "size": 226}