{"hash": "3c9aeb81c94dbe92b2b9c9d967bae7734fdfec50c3016b1b08ed5d241bc549e5", "blockhash": "0000000000000000001f0ddff1eddb255c1121bcd4da4f1bc9a0da00cae72433", "vout": [{"scriptPubKey": {"reqSigs": 1, "hex": "a914c5489bbfb18a140ec58102c5cdd09d741ece769587", "addresses": ["3KgA2FgfqRVCveEMbATP1rCRWqFPY356p6"], "asm": "OP_HASH160 c5489bbfb18a140ec58102c5cdd09d741ece7695 OP_EQUAL", "type": "scripthash"}, "value": 0.01002824, "n": 0}, {"scriptPubKey": {"reqSigs": 1, "hex": "76a914574354c720cf3b720c8ee30cecbe6314e249170388ac", "addresses": ["18xQSwYqZXJWWQqE3kvgivPfAJyxZBJ5d3"], "asm": "OP_DUP OP_HASH160 574354c720cf3b720c8ee30cecbe6314e2491703 OP_EQUALVERIFY OP_CHECKSIG", "type": "pubkeyhash"}, "value": 0.0113904, "n": 1}], "hex": "020000000001020a93d659e19fd07c7ec307adaa32d7d7096ea101dc532218a88ed3d00622cb4200000000171600142229740c8fc4c31d5cfb4bc2fbbf251acd5141f5feffffff43c628c30867a3ef2773c682be7a1280cb1afa8dad19d2432457dc1c0ee242b6000000001716001492bf427484728f35098a23e06d5711b71a1e3a10feffffff02484d0f000000000017a914c5489bbfb18a140ec58102c5cdd09d741ece76958760611100000000001976a914574354c720cf3b720c8ee30cecbe6314e249170388ac02483045022100fe2875807885321cf2677f01b7f6c64ec00061d5f6d4796f1d875515ee77c5a6022057116877d09c3c1affe17c2a0cc48fd6dc8ea92dcdce3645103cd0cd1fd4ae0b0121022a2d70b9a8ea82934e147eea83776d8129d0d8c32f7d79487df73db84b8acab40246304302200773ba583eb794bf92c3e5cb63a674c6dbef442b3b3124ca1775db71002928d7021f280ce932359f12428110a5e3af9be8bda0bf2e3f3ce2592b6c388815f80447012103df238aed164d0ee316234ec8421f2e965a01d4eff7284d963157902be8a25a1a11490800", "vin": [{"txinwitness": ["3045022100fe2875807885321cf2677f01b7f6c64ec00061d5f6d4796f1d875515ee77c5a6022057116877d09c3c1affe17c2a0cc48fd6dc8ea92dcdce3645103cd0cd1fd4ae0b01", "022a2d70b9a8ea82934e147eea83776d8129d0d8c32f7d79487df73db84b8acab4"], "sequence": 4294967294, "scriptSig": {"hex": "1600142229740c8fc4c31d5cfb4bc2fbbf251acd5141f5", "asm": "00142229740c8fc4c31d5cfb4bc2fbbf251acd5141f5"}, "vout": 0, "txid": "42cb2206d0d38ea8182253dc01a16e09d7d732aaad07c37e7cd09fe159d6930a"}, {"txinwitness": ["304302200773ba583eb794bf92c3e5cb63a674c6dbef442b3b3124ca1775db71002928d7021f280ce932359f12428110a5e3af9be8bda0bf2e3f3ce2592b6c388815f8044701", "03df238aed164d0ee316234ec8421f2e965a01d4eff7284d963157902be8a25a1a"], "sequence": 4294967294, "scriptSig": {"hex": "16001492bf427484728f35098a23e06d5711b71a1e3a10", "asm": "001492bf427484728f35098a23e06d5711b71a1e3a10"}, "vout": 0, "txid": "b642e20e1cdc572443d219ad8dfa1acb80127abe82c67327efa36708c328c643"}], "txid": "7545eb81cafea496f49f0aa01eb29a094e58b5470f4534d7dbf9f4703e4de2a5", "blocktime": 1537872018, "version": 2, "confirmations": 11489, "time": 1537872018, "locktime": 542993, "vsize": 258, "size": 420}