{"hash": "7545317ca9e837b6c820328042a37e11263706fa2638abe2d3c5f27d4962b7d8", "blockhash": "0000000000000000001e0dab787dd257d1dbfcb92a98c2207d5e1078be1f4165", "vout": [{"scriptPubKey": {"reqSigs": 1, "hex": "76a91481fed734fa677267c4d85c38a6b695501b9690ae88ac", "addresses": ["1CrMTPLKNFyF7F7MyY4AHJQgRLtqQcXG4n"], "asm": "OP_DUP OP_HASH160 81fed734fa677267c4d85c38a6b695501b9690ae OP_EQUALVERIFY OP_CHECKSIG", "type": "pubkeyhash"}, "value": 0.00497889, "n": 0}, {"scriptPubKey": {"type": "nulldata", "hex": "6a146f6d6e69000000000000001f0000000ba43b7400", "asm": "OP_RETURN 6f6d6e69000000000000001f0000000ba43b7400"}, "value": 0.0, "n": 1}, {"scriptPubKey": {"reqSigs": 1, "hex": "76a914a25dec4d0011064ef106a983c39c7a540699f22088ac", "addresses": ["1FoWyxwPXuj4C6abqwhjDWdz6D4PZgYRjA"], "asm": "OP_DUP OP_HASH160 a25dec4d0011064ef106a983c39c7a540699f220 OP_EQUALVERIFY OP_CHECKSIG", "type": "pubkeyhash"}, "value": 5.46e-06, "n": 2}], "hex": "010000000347fe700a608f88beb2d6583e2ebea3fb980ec366894b5b987e9bc151b788edf0020000006a47304402200bf64a565f007184981a2d31f9d22a73c0e7eeed36d4c85d837b4b0174f4bad802204e06863946ab1c9fb03e294a99b03f90f8e70b3317152333589c6c93d5af62cb012103c47e5f9168273a95ec15c8286c6336e20c98aae3005cab12f86822290d236a9afeffffffa18bc93712e192a3eaba782c6c43be8d49621dd74cf41423d1504cb13de2b72c000000006b4830450221009391156cf55fec95a4b1a519a4cc194ea0dc22e68673976786ce4d96fedb4ea502201e98a15866f496350a15c66c586284d0737b8e1a2294143d9fdbe6dad58ff93c012103c47e5f9168273a95ec15c8286c6336e20c98aae3005cab12f86822290d236a9afeffffff5b333a251e707905882af6c7293b268124fc0eeaae5d1542cf810ad8282dcb52020000006a473044022027ea50e17028014cf13fafe094f4352e13083df3c67fb95467c871945d1c2b9c0220297a97fd9a125d3a7308a8feedf25afd9f4fdfd3a69762bb9658f244ba052e68012103c47e5f9168273a95ec15c8286c6336e20c98aae3005cab12f86822290d236a9afeffffff03e1980700000000001976a91481fed734fa677267c4d85c38a6b695501b9690ae88ac0000000000000000166a146f6d6e69000000000000001f0000000ba43b740022020000000000001976a914a25dec4d0011064ef106a983c39c7a540699f22088ace9480800", "vin": [{"sequence": 4294967294, "scriptSig": {"hex": "47304402200bf64a565f007184981a2d31f9d22a73c0e7eeed36d4c85d837b4b0174f4bad802204e06863946ab1c9fb03e294a99b03f90f8e70b3317152333589c6c93d5af62cb012103c47e5f9168273a95ec15c8286c6336e20c98aae3005cab12f86822290d236a9a", "asm": "304402200bf64a565f007184981a2d31f9d22a73c0e7eeed36d4c85d837b4b0174f4bad802204e06863946ab1c9fb03e294a99b03f90f8e70b3317152333589c6c93d5af62cb[ALL] 03c47e5f9168273a95ec15c8286c6336e20c98aae3005cab12f86822290d236a9a"}, "vout": 2, "txid": "f0ed88b751c19b7e985b4b8966c30e98fba3be2e3e58d6b2be888f600a70fe47"}, {"sequence": 4294967294, "scriptSig": {"hex": "4830450221009391156cf55fec95a4b1a519a4cc194ea0dc22e68673976786ce4d96fedb4ea502201e98a15866f496350a15c66c586284d0737b8e1a2294143d9fdbe6dad58ff93c012103c47e5f9168273a95ec15c8286c6336e20c98aae3005cab12f86822290d236a9a", "asm": "30450221009391156cf55fec95a4b1a519a4cc194ea0dc22e68673976786ce4d96fedb4ea502201e98a15866f496350a15c66c586284d0737b8e1a2294143d9fdbe6dad58ff93c[ALL] 03c47e5f9168273a95ec15c8286c6336e20c98aae3005cab12f86822290d236a9a"}, "vout": 0, "txid": "2cb7e23db14c50d12314f44cd71d62498dbe436c2c78baeaa392e11237c98ba1"}, {"sequence": 4294967294, "scriptSig": {"hex": "473044022027ea50e17028014cf13fafe094f4352e13083df3c67fb95467c871945d1c2b9c0220297a97fd9a125d3a7308a8feedf25afd9f4fdfd3a69762bb9658f244ba052e68012103c47e5f9168273a95ec15c8286c6336e20c98aae3005cab12f86822290d236a9a", "asm": "3044022027ea50e17028014cf13fafe094f4352e13083df3c67fb95467c871945d1c2b9c0220297a97fd9a125d3a7308a8feedf25afd9f4fdfd3a69762bb9658f244ba052e68[ALL] 03c47e5f9168273a95ec15c8286c6336e20c98aae3005cab12f86822290d236a9a"}, "vout": 2, "txid": "52cb2d28d80a81cf42155daeea0efc2481263b29c7f62a880579701e253a335b"}], "txid": "7545317ca9e837b6c820328042a37e11263706fa2638abe2d3c5f27d4962b7d8", "blocktime": 1537872475, "version": 1, "confirmations": 11487, "time": 1537872475, "locktime": 542953, "vsize": 551, "size": 551}