{"hash": "774510fd9e2820f609d776db2e291ea97b1f1897c403ffc516ba40ec5ed0f50c", "blockhash": "0000000000000000000baef3f32e3676a92c3b2e5da21b426e4f302fc371ce76", "vout": [{"scriptPubKey": {"reqSigs": 1, "hex": "76a9146abf2252fd118df5a4374dc98742f9bdc625d1f088ac", "addresses": ["1AjRbZdiQMgaBcZGKXP4SMW74uqHMxKvEt"], "asm": "OP_DUP OP_HASH160 6abf2252fd118df5a4374dc98742f9bdc625d1f0 OP_EQUALVERIFY OP_CHECKSIG", "type": "pubkeyhash"}, "value": 0.03016157, "n": 0}, {"scriptPubKey": {"reqSigs": 1, "hex": "a914c0db4b5751b76fef728752d8687a447dffbbe4d187", "addresses": ["3KGkND9tpQhWSXdwsE2JueAF6vRNhz2iNP"], "asm": "OP_HASH160 c0db4b5751b76fef728752d8687a447dffbbe4d1 OP_EQUAL", "type": "scripthash"}, "value": 0.70445682, "n": 1}], "hex": "01000000000102aaefaa52bcf76140494969c7b2a97c99a675a0d89c66ed5e92d327379bd52fb7000000002322002064e2d10277b4124ce35415e4fe1a053b05b6e39232065a9306090634d740bd93ffffffffaaefaa52bcf76140494969c7b2a97c99a675a0d89c66ed5e92d327379bd52fb701000000232200209e1b44ca0a86cd52b4ff5de4dfd4b4a2fa210028485bd1db62020e32d2cc7969ffffffff02dd052e00000000001976a9146abf2252fd118df5a4374dc98742f9bdc625d1f088ac72ea32040000000017a914c0db4b5751b76fef728752d8687a447dffbbe4d1870400483045022100e0822b04769778b5ca160f95aacfd958c4324144d84e736246049aedb1930ef102201f99e54b88b424ea35d73d0963062398a3b67c3491aa70ab4e161d29c64300cf0147304402201183bae41f704719340691f9b52915960dc9d4cd60abebdaeebfd6ff1cf87d6b0220208086c980e472219bdabbd9413ed14f2e4b92c6c425c5cf97ddeff03f9a05f9014752210345df40a08023e64008a02018979f7dae31d3efd965dbad7327eebb8181e2acf821038f2c7ecee34c843be9d886e50ce79e5dc40a1694c0417d60b35340f292ff73fc52ae04004730440220601d11d56edb53e53ad3d67d30aca3f6ca23129cdee191ac0dcfaf23cc128ba5022017208bb9d7fb7334d8e7fddbf4b1f98f32363188715fb66f5092f32739f1aac80147304402206dcf4360a934e40ab0af9461d31dd3868c0363906e8e1c5fb2e25162d781e7de022020b92eacc9041258dd826018732c14664a01fca604d289f24d05bdfe1c349a5901475221026014a6bee2e74cf4622fd4e89ca3cbb673183c1856a81e9670172c348288446f21038f2c7ecee34c843be9d886e50ce79e5dc40a1694c0417d60b35340f292ff73fc52ae00000000", "vin": [{"txinwitness": ["", "3045022100e0822b04769778b5ca160f95aacfd958c4324144d84e736246049aedb1930ef102201f99e54b88b424ea35d73d0963062398a3b67c3491aa70ab4e161d29c64300cf01", "304402201183bae41f704719340691f9b52915960dc9d4cd60abebdaeebfd6ff1cf87d6b0220208086c980e472219bdabbd9413ed14f2e4b92c6c425c5cf97ddeff03f9a05f901", "52210345df40a08023e64008a02018979f7dae31d3efd965dbad7327eebb8181e2acf821038f2c7ecee34c843be9d886e50ce79e5dc40a1694c0417d60b35340f292ff73fc52ae"], "sequence": 4294967295, "scriptSig": {"hex": "22002064e2d10277b4124ce35415e4fe1a053b05b6e39232065a9306090634d740bd93", "asm": "002064e2d10277b4124ce35415e4fe1a053b05b6e39232065a9306090634d740bd93"}, "vout": 0, "txid": "b72fd59b3727d3925eed669cd8a075a6997ca9b2c76949494061f7bc52aaefaa"}, {"txinwitness": ["", "30440220601d11d56edb53e53ad3d67d30aca3f6ca23129cdee191ac0dcfaf23cc128ba5022017208bb9d7fb7334d8e7fddbf4b1f98f32363188715fb66f5092f32739f1aac801", "304402206dcf4360a934e40ab0af9461d31dd3868c0363906e8e1c5fb2e25162d781e7de022020b92eacc9041258dd826018732c14664a01fca604d289f24d05bdfe1c349a5901", "5221026014a6bee2e74cf4622fd4e89ca3cbb673183c1856a81e9670172c348288446f21038f2c7ecee34c843be9d886e50ce79e5dc40a1694c0417d60b35340f292ff73fc52ae"], "sequence": 4294967295, "scriptSig": {"hex": "2200209e1b44ca0a86cd52b4ff5de4dfd4b4a2fa210028485bd1db62020e32d2cc7969", "asm": "00209e1b44ca0a86cd52b4ff5de4dfd4b4a2fa210028485bd1db62020e32d2cc7969"}, "vout": 1, "txid": "b72fd59b3727d3925eed669cd8a075a6997ca9b2c76949494061f7bc52aaefaa"}], "txid": "7548948353f91537b188fbd880c49415a31f7d60bc3a6dcc425cb497fe0d2dfc", "blocktime": 1537876114, "version": 1, "confirmations": 11462, "time": 1537876114, "locktime": 0, "vsize": 338, "size": 667}