{"hash": "bf96b98c42a4888768ef04a5d85cbad7d1fa6f16d9e01b4ff70a4f6cc89434d0", "blockhash": "00000000000000000018f53835495a110e01622372bf6ae95dc86f2b0ab887b0", "vout": [{"scriptPubKey": {"reqSigs": 1, "hex": "76a914600b00240274549646cbb4191d92a0ec1502af2888ac", "addresses": ["19kq3kLuXq1BTBZ59urLewq6ADr8b7JPWw"], "asm": "OP_DUP OP_HASH160 600b00240274549646cbb4191d92a0ec1502af28 OP_EQUALVERIFY OP_CHECKSIG", "type": "pubkeyhash"}, "value": 0.012753, "n": 0}, {"scriptPubKey": {"reqSigs": 1, "hex": "a914020646e0f91f58351b20279849397844cf37d00c87", "addresses": ["31sio3yDT7KhMT4JQXZm6ztSpWaNQsXc1j"], "asm": "OP_HASH160 020646e0f91f58351b20279849397844cf37d00c OP_EQUAL", "type": "scripthash"}, "value": 0.01034672, "n": 1}], "hex": "02000000000101035b73bf2e4b2661cd78d84c3637306bd6032817c06aa280fc5ae1f2638fb3150100000017160014ebc732b9e458eddfcce6912ce275d57c73e9bfa8ffffffff02a4751300000000001976a914600b00240274549646cbb4191d92a0ec1502af2888acb0c90f000000000017a914020646e0f91f58351b20279849397844cf37d00c8702473044022057ec81c9b146356a3c73e308f22b791df67f89d3ba3c387b630e54ffce3bce6b02200e1701e14022304ef725b0595be75527d002c4038a3d985b6e1c5e319b4516f30121027f1bde0ae64c5632fc9efba1df9fd491f2ef07b4e47adaabb39733f355d4898000000000", "vin": [{"txinwitness": ["3044022057ec81c9b146356a3c73e308f22b791df67f89d3ba3c387b630e54ffce3bce6b02200e1701e14022304ef725b0595be75527d002c4038a3d985b6e1c5e319b4516f301", "027f1bde0ae64c5632fc9efba1df9fd491f2ef07b4e47adaabb39733f355d48980"], "sequence": 4294967295, "scriptSig": {"hex": "160014ebc732b9e458eddfcce6912ce275d57c73e9bfa8", "asm": "0014ebc732b9e458eddfcce6912ce275d57c73e9bfa8"}, "vout": 1, "txid": "15b38f63f2e15afc80a26ac0172803d66b3037364cd878cd61264b2ebf735b03"}], "txid": "754b6ed83a51051fd5bc24a052796925e9dc9e92e723cbaabd4537e91ef6a242", "blocktime": 1537870928, "version": 2, "confirmations": 11512, "time": 1537870928, "locktime": 0, "vsize": 168, "size": 249}