{"hash": "1205fe7fa595bc166f74dec6166c8cc007d12335947341462c9f88733127a19e", "blockhash": "0000000000000000001e0dab787dd257d1dbfcb92a98c2207d5e1078be1f4165", "vout": [{"scriptPubKey": {"reqSigs": 1, "hex": "a9144f365da1d85b9065ebf371cf96a3ac958fa102c587", "addresses": ["38urS6aNu3VNfJ3z32aGhdJhWBiGz3tw8n"], "asm": "OP_HASH160 4f365da1d85b9065ebf371cf96a3ac958fa102c5 OP_EQUAL", "type": "scripthash"}, "value": 0.02704358, "n": 0}, {"scriptPubKey": {"reqSigs": 1, "hex": "a9148303dfcddca37f9ea8415e5cd2695cf467a8d53387", "addresses": ["3Ddm5rqdyB8aif7EVAEMCCnqA8Bzw2bHHN"], "asm": "OP_HASH160 8303dfcddca37f9ea8415e5cd2695cf467a8d533 OP_EQUAL", "type": "scripthash"}, "value": 0.01005467, "n": 1}], "hex": "02000000000102312bfda03c951ff07811642520c484cf8b7683131794ea01c3279e7bea969ca0000000001716001431d7d4e2c4852ee99e4ed73a240f76b7056920c5fdffffff94a41fd21c4a5b5c2b509ecb361f14dcda9283dd3843a85afe9c37f18e9764710000000017160014d9afb82b78d42a67945ad099d740692e1edcae1ffdffffff02e64329000000000017a9144f365da1d85b9065ebf371cf96a3ac958fa102c5879b570f000000000017a9148303dfcddca37f9ea8415e5cd2695cf467a8d5338702483045022100e3e62a8805784fc2b738a9f01a981baf87ae68661a77d60183f2fe92db13a4fa0220199fae3aba6d42ba06c37f40bc48f38903211a377b0c27260b69c974d11e9d78012102595ed5a95844a1ae13c84ebb4d7512d5cec862fc2ee7e8b743016b3790e154430247304402205bdfa4ed00296e02870f7b63d739139b77fa6bb1fe0b3c4effc570679fcad32702207acdd9d92a840a848094d7d26999de05dcfddc072e04c9c530f6195051cc12970121022be838ee8db9bf83b0f2680e0a2014c8963ab199c26257828fde592bd172f22612490800", "vin": [{"txinwitness": ["3045022100e3e62a8805784fc2b738a9f01a981baf87ae68661a77d60183f2fe92db13a4fa0220199fae3aba6d42ba06c37f40bc48f38903211a377b0c27260b69c974d11e9d7801", "02595ed5a95844a1ae13c84ebb4d7512d5cec862fc2ee7e8b743016b3790e15443"], "sequence": 4294967293, "scriptSig": {"hex": "16001431d7d4e2c4852ee99e4ed73a240f76b7056920c5", "asm": "001431d7d4e2c4852ee99e4ed73a240f76b7056920c5"}, "vout": 0, "txid": "a09c96ea7b9e27c301ea94171383768bcf84c42025641178f01f953ca0fd2b31"}, {"txinwitness": ["304402205bdfa4ed00296e02870f7b63d739139b77fa6bb1fe0b3c4effc570679fcad32702207acdd9d92a840a848094d7d26999de05dcfddc072e04c9c530f6195051cc129701", "022be838ee8db9bf83b0f2680e0a2014c8963ab199c26257828fde592bd172f226"], "sequence": 4294967293, "scriptSig": {"hex": "160014d9afb82b78d42a67945ad099d740692e1edcae1f", "asm": "0014d9afb82b78d42a67945ad099d740692e1edcae1f"}, "vout": 0, "txid": "7164978ef1379cfe5aa84338dd8392dadc141f36cb9e502b5c5b4a1cd21fa494"}], "txid": "754b72c7f49548160ca43707879da2eb5d6f21844f9e50910dc7cfd1bcf21e8d", "blocktime": 1537872475, "version": 2, "confirmations": 11488, "time": 1537872475, "locktime": 542994, "vsize": 257, "size": 419}