{"hash": "b7072d19b58ed954a8d750a27eb4d29ddaf47d9a40f6ff3a071504978785398f", "blockhash": "0000000000000000001f0ddff1eddb255c1121bcd4da4f1bc9a0da00cae72433", "vout": [{"scriptPubKey": {"reqSigs": 1, "hex": "a91406ae86f1c3004c2a3a99496150f46c756123f50787", "addresses": ["32JM43yRyCqtPCDykffAKGybKrXjSmGBx2"], "asm": "OP_HASH160 06ae86f1c3004c2a3a99496150f46c756123f507 OP_EQUAL", "type": "scripthash"}, "value": 0.02278912, "n": 0}, {"scriptPubKey": {"reqSigs": 1, "hex": "a914d870cee9b0cda3f51ba686f66ffd70bf19d5367187", "addresses": ["3MRT22vYtuUiBKrVntA3Er9Q6YUeaHCuRp"], "asm": "OP_HASH160 d870cee9b0cda3f51ba686f66ffd70bf19d53671 OP_EQUAL", "type": "scripthash"}, "value": 0.13321972, "n": 1}], "hex": "020000000001015f240c717d2f21d502cd8c16b12aec6d5e88fb1e70aed2a4e8ce2afa457bffea010000001716001490218d14f68c223bbac5a3e04418a02fb43c5d83ffffffff0200c622000000000017a91406ae86f1c3004c2a3a99496150f46c756123f50787f446cb000000000017a914d870cee9b0cda3f51ba686f66ffd70bf19d536718702483045022100f870eb47ffb2403a01e358c4c0f3595b6cc2421578a723ef7c070eff1b82252b02200bfaa165d9dd69f1645216edc1d292e5daac80947426523483919d20392088090121020403e78f8b6e11e63c6ada0f2c918f218ecf0af007f7cb94d1dcfa594a5fc33700000000", "vin": [{"txinwitness": ["3045022100f870eb47ffb2403a01e358c4c0f3595b6cc2421578a723ef7c070eff1b82252b02200bfaa165d9dd69f1645216edc1d292e5daac80947426523483919d203920880901", "020403e78f8b6e11e63c6ada0f2c918f218ecf0af007f7cb94d1dcfa594a5fc337"], "sequence": 4294967295, "scriptSig": {"hex": "16001490218d14f68c223bbac5a3e04418a02fb43c5d83", "asm": "001490218d14f68c223bbac5a3e04418a02fb43c5d83"}, "vout": 1, "txid": "eaff7b45fa2acee8a4d2ae701efb885e6dec2ab1168ccd02d5212f7d710c245f"}], "txid": "754dcae8d256d9d5ae9dec17d0f94f16651dcba45518401b286b9247e89b4195", "blocktime": 1537872018, "version": 2, "confirmations": 11489, "time": 1537872018, "locktime": 0, "vsize": 166, "size": 248}