{"hash": "ef7080fe145d0115259713fe7bc20de55ea247276840e59e690c65aad59be6a7", "blockhash": "0000000000000000001cda96e906b7601b7a6fb1a3b62bca570a9e5d8f4b3de1", "vout": [{"scriptPubKey": {"reqSigs": 1, "hex": "76a914596328c5411413a81e7fe60cc7dc86b6d1f6092888ac", "addresses": ["199dvnBnLrqer84GMuD1RVJZQhRY52a9n9"], "asm": "OP_DUP OP_HASH160 596328c5411413a81e7fe60cc7dc86b6d1f60928 OP_EQUALVERIFY OP_CHECKSIG", "type": "pubkeyhash"}, "value": 0.01022416, "n": 0}, {"scriptPubKey": {"reqSigs": 1, "hex": "a91443f62a3d4933e05622cd51c77017b970eed9a05b87", "addresses": ["37tN6EtYzsorm6zBcpfWz8w5xRNy3mab33"], "asm": "OP_HASH160 43f62a3d4933e05622cd51c77017b970eed9a05b OP_EQUAL", "type": "scripthash"}, "value": 0.40211722, "n": 1}], "hex": "01000000000101512bd6f109bc7bbfb5c589f49908ea9dbae630667b199e8a1f1a2e542cda7bdf01000000232200201dd6ce43abdc84f34fdcc73ab17bc29ae9c934e26a45e54e686de9b71cb3af4affffffff02d0990f00000000001976a914596328c5411413a81e7fe60cc7dc86b6d1f6092888ac0a9565020000000017a91443f62a3d4933e05622cd51c77017b970eed9a05b870400473044022004534c3e721cf94473b5e84e201c6027453223633a06ecaf1bc74979f6226e3f022045066096d084c89fc950cf62a511e2cc3fd6270715b06ec464eef8c6c9179a9901483045022100f1190c3ff4ab5da9ac04e0972fab5999678ffcd8c4db903d92b05f9a254288ff022067fb079ad22109824a34e0db8fc0e377666e524584e0de570a0c43563988669401475221023d094ce44231935102dd1c672bc70808e5831d5d55d4082df3b1d9c342a4f7b92103c86ff487c5c7bef620008af5c952420bf509584280226750bb54cc3b293fd7ec52ae00000000", "vin": [{"txinwitness": ["", "3044022004534c3e721cf94473b5e84e201c6027453223633a06ecaf1bc74979f6226e3f022045066096d084c89fc950cf62a511e2cc3fd6270715b06ec464eef8c6c9179a9901", "3045022100f1190c3ff4ab5da9ac04e0972fab5999678ffcd8c4db903d92b05f9a254288ff022067fb079ad22109824a34e0db8fc0e377666e524584e0de570a0c43563988669401", "5221023d094ce44231935102dd1c672bc70808e5831d5d55d4082df3b1d9c342a4f7b92103c86ff487c5c7bef620008af5c952420bf509584280226750bb54cc3b293fd7ec52ae"], "sequence": 4294967295, "scriptSig": {"hex": "2200201dd6ce43abdc84f34fdcc73ab17bc29ae9c934e26a45e54e686de9b71cb3af4a", "asm": "00201dd6ce43abdc84f34fdcc73ab17bc29ae9c934e26a45e54e686de9b71cb3af4a"}, "vout": 1, "txid": "df7bda2c542e1a1f8a9e197b6630e6ba9dea0899f489c5b5bf7bbc09f1d62b51"}], "txid": "754ea35dbdcff40c059e07d5948005c457810d21c3fabb2114b95152bdd7da4d", "blocktime": 1537873282, "version": 1, "confirmations": 11484, "time": 1537873282, "locktime": 0, "vsize": 208, "size": 373}