{"hash": "754eb41f7b634f03ce41f98752231350b2ea7f01687285a9cb875b9d9ca98ce6", "blockhash": "0000000000000000001e0dab787dd257d1dbfcb92a98c2207d5e1078be1f4165", "vout": [{"scriptPubKey": {"reqSigs": 1, "hex": "76a914641743a2c4522227b191d6aa325a1ce0f20a522c88ac", "addresses": ["1A8EScGrUnfQyheoy2Q8e6VXBBNTXxpric"], "asm": "OP_DUP OP_HASH160 641743a2c4522227b191d6aa325a1ce0f20a522c OP_EQUALVERIFY OP_CHECKSIG", "type": "pubkeyhash"}, "value": 0.005605, "n": 0}, {"scriptPubKey": {"reqSigs": 1, "hex": "76a914e86564428fd9d3c095ff8278d5f8bea83ad1b3ce88ac", "addresses": ["1NBoEKXJnG46qmPfszsENnBsJi5xTtxDGk"], "asm": "OP_DUP OP_HASH160 e86564428fd9d3c095ff8278d5f8bea83ad1b3ce OP_EQUALVERIFY OP_CHECKSIG", "type": "pubkeyhash"}, "value": 0.01022087, "n": 1}], "hex": "0100000001a41a446f442b9cb36ac84465c6b5fcbcc99c1420aafd2b95a7bd2861fd727360010000006b4830450221008578224a81d4e2f50583507a6e744fd5ade24a34fd3cefeb20147cf45856d39602205e19fecd00dbf190f5651b8c151e906dc6bcdd23ac3b2a2560e6b237adee7ed701210224affb7d90a68735f4ae1b3f42ad0b84e5930263aab52784a8f0e95b289b636affffffff02748d0800000000001976a914641743a2c4522227b191d6aa325a1ce0f20a522c88ac87980f00000000001976a914e86564428fd9d3c095ff8278d5f8bea83ad1b3ce88ac00000000", "vin": [{"sequence": 4294967295, "scriptSig": {"hex": "4830450221008578224a81d4e2f50583507a6e744fd5ade24a34fd3cefeb20147cf45856d39602205e19fecd00dbf190f5651b8c151e906dc6bcdd23ac3b2a2560e6b237adee7ed701210224affb7d90a68735f4ae1b3f42ad0b84e5930263aab52784a8f0e95b289b636a", "asm": "30450221008578224a81d4e2f50583507a6e744fd5ade24a34fd3cefeb20147cf45856d39602205e19fecd00dbf190f5651b8c151e906dc6bcdd23ac3b2a2560e6b237adee7ed7[ALL] 0224affb7d90a68735f4ae1b3f42ad0b84e5930263aab52784a8f0e95b289b636a"}, "vout": 1, "txid": "607372fd6128bda7952bfdaa20149cc9bcfcb5c66544c86ab39c2b446f441aa4"}], "txid": "754eb41f7b634f03ce41f98752231350b2ea7f01687285a9cb875b9d9ca98ce6", "blocktime": 1537872475, "version": 1, "confirmations": 11486, "time": 1537872475, "locktime": 0, "vsize": 226, "size": 226}