{"hash": "731d50d86c9f0128ca0a511135a021afb8f43590363deb0bbe1ffe207a799d47", "blockhash": "00000000000000000004ffacab907a6b429b9a5745fa0b75af4234bf69dd7176", "vout": [{"scriptPubKey": {"reqSigs": 1, "hex": "00140d9e89d82c0f08b570f5d4f955c8f4cc7fe0bb04", "addresses": ["bc1qpk0gnkpvpuyt2u846nu4tj85e3l7pwcye63p56"], "asm": "0 0d9e89d82c0f08b570f5d4f955c8f4cc7fe0bb04", "type": "witness_v0_keyhash"}, "value": 0.0222, "n": 0}, {"scriptPubKey": {"reqSigs": 1, "hex": "a914815b2e936aeb627d3fa4659126184464f86b400387", "addresses": ["3DUzKipoNkCqb5W4dhEFVx5EEoqtNohy4Y"], "asm": "OP_HASH160 815b2e936aeb627d3fa4659126184464f86b4003 OP_EQUAL", "type": "scripthash"}, "value": 0.08364657, "n": 1}], "hex": "0100000000010103157ba892721081e66b3ea2c47dc56fbc04c53706b7090cea3f97ca7dd50ecd0100000017160014b1e77676fa5ba4a03277eb5cd51bbab43e6e2104ffffffff02e0df2100000000001600140d9e89d82c0f08b570f5d4f955c8f4cc7fe0bb0471a27f000000000017a914815b2e936aeb627d3fa4659126184464f86b40038702483045022100cc7171fabf926260ac14b9317aee18764d0317bec13512f426be3153123cf8a002201ae427c82422652986301cbae86ed29d155fb333de9d463da4c82da7a831003f012102e3a811bedfbd52355b31dadc50cb08154719f154b757ade462dc9e98ab27e48200000000", "vin": [{"txinwitness": ["3045022100cc7171fabf926260ac14b9317aee18764d0317bec13512f426be3153123cf8a002201ae427c82422652986301cbae86ed29d155fb333de9d463da4c82da7a831003f01", "02e3a811bedfbd52355b31dadc50cb08154719f154b757ade462dc9e98ab27e482"], "sequence": 4294967295, "scriptSig": {"hex": "160014b1e77676fa5ba4a03277eb5cd51bbab43e6e2104", "asm": "0014b1e77676fa5ba4a03277eb5cd51bbab43e6e2104"}, "vout": 1, "txid": "cd0ed57dca973fea0c09b70637c504bc6fc57dc4a23e6be681107292a87b1503"}], "txid": "755d8b34cb302357972e697cfc1b6a358d40f412dcb6d9ec4cc035846ba88439", "blocktime": 1537875543, "version": 1, "confirmations": 11464, "time": 1537875543, "locktime": 0, "vsize": 165, "size": 247}