{"hash": "7566f755facc6053a91bf250f7114dba897b82b91b332df07f491f0ca58a9e42", "blockhash": "0000000000000000000baef3f32e3676a92c3b2e5da21b426e4f302fc371ce76", "vout": [{"scriptPubKey": {"reqSigs": 1, "hex": "a914e85d4cae3db96ebdd5bf16a03101b3f56955437087", "addresses": ["3NseTcYc8ZrYuRduz5NmfubctZtAcxsyYi"], "asm": "OP_HASH160 e85d4cae3db96ebdd5bf16a03101b3f569554370 OP_EQUAL", "type": "scripthash"}, "value": 0.003706, "n": 0}, {"scriptPubKey": {"reqSigs": 1, "hex": "76a91482867977229960139a0b8b8345c4d2823197b1ae88ac", "addresses": ["1Cu9wPWxrEVFMyydrzx9X5ann8ZAR38mZM"], "asm": "OP_DUP OP_HASH160 82867977229960139a0b8b8345c4d2823197b1ae OP_EQUALVERIFY OP_CHECKSIG", "type": "pubkeyhash"}, "value": 1.22324358, "n": 1}], "hex": "01000000012689661d78f5ccd7d124abf4fbbbc14a53725c3ab9b56a4d690eeb2abad3a0520100000069463043021f3a98b8d0f3d567197e97a6610b0691a5529c981a6436ff0ccc3af12fc3fef602200bece76eebb3bbe589afcba8e1b9190160860efcea07df279e032e069c463eeb012102f259d6b0b25c0b7e35bd88be24f7f33c85ecd66a72e21b71b057b8e3c512d69efdffffff02a8a705000000000017a914e85d4cae3db96ebdd5bf16a03101b3f5695543708786854a07000000001976a91482867977229960139a0b8b8345c4d2823197b1ae88ac17490800", "vin": [{"sequence": 4294967293, "scriptSig": {"hex": "463043021f3a98b8d0f3d567197e97a6610b0691a5529c981a6436ff0ccc3af12fc3fef602200bece76eebb3bbe589afcba8e1b9190160860efcea07df279e032e069c463eeb012102f259d6b0b25c0b7e35bd88be24f7f33c85ecd66a72e21b71b057b8e3c512d69e", "asm": "3043021f3a98b8d0f3d567197e97a6610b0691a5529c981a6436ff0ccc3af12fc3fef602200bece76eebb3bbe589afcba8e1b9190160860efcea07df279e032e069c463eeb[ALL] 02f259d6b0b25c0b7e35bd88be24f7f33c85ecd66a72e21b71b057b8e3c512d69e"}, "vout": 1, "txid": "52a0d3ba2aeb0e694d6ab5b93a5c72534ac1bbfbf4ab24d1d7ccf5781d668926"}], "txid": "7566f755facc6053a91bf250f7114dba897b82b91b332df07f491f0ca58a9e42", "blocktime": 1537876114, "version": 1, "confirmations": 11460, "time": 1537876114, "locktime": 542999, "vsize": 222, "size": 222}