{"hash": "7568c6dcc2f40ff180530fbbceafe3874062ce46bf5187b0e35454999c28610d", "blockhash": "0000000000000000000dcc0f55137456b1a82d3642486a52398922ac4d620174", "vout": [{"scriptPubKey": {"reqSigs": 1, "hex": "76a914a8f994739ecafd2a33edbd8e6be05993954b71e588ac", "addresses": ["1GQTWLrF27UNzfRQnxtcNrzxeWufUUWfUS"], "asm": "OP_DUP OP_HASH160 a8f994739ecafd2a33edbd8e6be05993954b71e5 OP_EQUALVERIFY OP_CHECKSIG", "type": "pubkeyhash"}, "value": 0.000455, "n": 0}, {"scriptPubKey": {"reqSigs": 1, "hex": "76a914a533946a604e60e2f107555cac5fd890f7b69b5188ac", "addresses": ["1G4WHUbRhtdAz4eqNXX2WNKDbUYcVpUDZ8"], "asm": "OP_DUP OP_HASH160 a533946a604e60e2f107555cac5fd890f7b69b51 OP_EQUALVERIFY OP_CHECKSIG", "type": "pubkeyhash"}, "value": 0.00522921, "n": 1}], "hex": "0100000001d79d4a806483bb43fa513877e19af9c4efc9fb8054415831e55ae6b287befdd7010000006a47304402205197aa55d22f176569a3eba1c6861895540a7e3f46a23fd37a6ac60197ac496d02202e8bdcb3691106bfe143a14f90f0caaf3582404a841d2aa67d8f413611b38973012103eddb8327289d9f0133200efe8a044e20cadacfe4134a7d8b0b2476ab41e7a32affffffff02bcb10000000000001976a914a8f994739ecafd2a33edbd8e6be05993954b71e588aca9fa0700000000001976a914a533946a604e60e2f107555cac5fd890f7b69b5188ac00000000", "vin": [{"sequence": 4294967295, "scriptSig": {"hex": "47304402205197aa55d22f176569a3eba1c6861895540a7e3f46a23fd37a6ac60197ac496d02202e8bdcb3691106bfe143a14f90f0caaf3582404a841d2aa67d8f413611b38973012103eddb8327289d9f0133200efe8a044e20cadacfe4134a7d8b0b2476ab41e7a32a", "asm": "304402205197aa55d22f176569a3eba1c6861895540a7e3f46a23fd37a6ac60197ac496d02202e8bdcb3691106bfe143a14f90f0caaf3582404a841d2aa67d8f413611b38973[ALL] 03eddb8327289d9f0133200efe8a044e20cadacfe4134a7d8b0b2476ab41e7a32a"}, "vout": 1, "txid": "d7fdbe87b2e65ae53158415480fbc9efc4f99ae1773851fa43bb8364804a9dd7"}], "txid": "7568c6dcc2f40ff180530fbbceafe3874062ce46bf5187b0e35454999c28610d", "blocktime": 1537870268, "version": 1, "confirmations": 11518, "time": 1537870268, "locktime": 0, "vsize": 225, "size": 225}