{"hash": "756aea9cba7370d46844ceb4f83e8430dc8669e5e3c478c8aa4b582f259f6f59", "blockhash": "0000000000000000000dcc0f55137456b1a82d3642486a52398922ac4d620174", "vout": [{"scriptPubKey": {"reqSigs": 1, "hex": "76a9144b32d3d4bf2c8db6c153261603efd23aa981f4db88ac", "addresses": ["17rcZwc5e6JD6CJbZZapoFbyKBZ911VZMx"], "asm": "OP_DUP OP_HASH160 4b32d3d4bf2c8db6c153261603efd23aa981f4db OP_EQUALVERIFY OP_CHECKSIG", "type": "pubkeyhash"}, "value": 6.041e-05, "n": 0}, {"scriptPubKey": {"reqSigs": 1, "hex": "a9140f1e90814bb7b4771ab76d24d68da1bf0a84895f87", "addresses": ["334xg5UhkGQFzsTZvcj5FUTUdqbW66prsG"], "asm": "OP_HASH160 0f1e90814bb7b4771ab76d24d68da1bf0a84895f OP_EQUAL", "type": "scripthash"}, "value": 0.00091392, "n": 1}], "hex": "01000000015e382f8ca56c63eaa0bd91eefef042d2911c4ace5fdec35b9de20e18b3170bd5000000006a47304402204a533c773a79e798719ed2a2adf587f5c3f113cae4e879010455d11664acb80d02203cc3b77a7b3f2ca06805910c251db7a8356f87f0daf433bf15881ece39f19200012102a34051a855df3b1923107546a83ba91bc35a761aba753b456af52bb46afa7b89ffffffff0299170000000000001976a9144b32d3d4bf2c8db6c153261603efd23aa981f4db88ac006501000000000017a9140f1e90814bb7b4771ab76d24d68da1bf0a84895f8700000000", "vin": [{"sequence": 4294967295, "scriptSig": {"hex": "47304402204a533c773a79e798719ed2a2adf587f5c3f113cae4e879010455d11664acb80d02203cc3b77a7b3f2ca06805910c251db7a8356f87f0daf433bf15881ece39f19200012102a34051a855df3b1923107546a83ba91bc35a761aba753b456af52bb46afa7b89", "asm": "304402204a533c773a79e798719ed2a2adf587f5c3f113cae4e879010455d11664acb80d02203cc3b77a7b3f2ca06805910c251db7a8356f87f0daf433bf15881ece39f19200[ALL] 02a34051a855df3b1923107546a83ba91bc35a761aba753b456af52bb46afa7b89"}, "vout": 0, "txid": "d50b17b3180ee29d5bc3de5fce4a1c91d242f0feee91bda0ea636ca58c2f385e"}], "txid": "756aea9cba7370d46844ceb4f83e8430dc8669e5e3c478c8aa4b582f259f6f59", "blocktime": 1537870268, "version": 1, "confirmations": 11518, "time": 1537870268, "locktime": 0, "vsize": 223, "size": 223}