{"hash": "756d62e8a85830979b6d18f422345016b17b91d410e5ee5f9aeeed6b9c661df5", "blockhash": "0000000000000000000e13cef7c366c0283d82e591d1acd082e914b08063cdf1", "vout": [{"scriptPubKey": {"reqSigs": 1, "hex": "76a914ac45cf88a5f8278915614aa7e926df79d6d677e188ac", "addresses": ["1GhtrXVuQ2bDzYRrpBDh2VxtpGZ8ujf1qH"], "asm": "OP_DUP OP_HASH160 ac45cf88a5f8278915614aa7e926df79d6d677e1 OP_EQUALVERIFY OP_CHECKSIG", "type": "pubkeyhash"}, "value": 0.0081327, "n": 0}, {"scriptPubKey": {"reqSigs": 1, "hex": "76a91478311d9a6b1a40b604b8c813f09366a4b4ee147188ac", "addresses": ["1BxWvdmgBNFjeF9DLLzzrL2K3VhhwYiSnk"], "asm": "OP_DUP OP_HASH160 78311d9a6b1a40b604b8c813f09366a4b4ee1471 OP_EQUALVERIFY OP_CHECKSIG", "type": "pubkeyhash"}, "value": 0.01836247, "n": 1}], "hex": "01000000023aac17432874268fce2facbbd8c01c41e23f591148c57d2158ba5f091be50b4c000000006a47304402204a7c29055873279cd7ef668d0eae5b798aa9f68f5db7b6b7bcdb30051b49e24002201263cac87bbb132c3a8238ba6e9405bf747a85aa236bdb829eabb4e6c65fd257012102954b4c900deddf10757c767db13aa3bbcf401a774121b00e6f9fcb361ac788c0ffffffffd796a448e2169dde98444b70c2e25135b793ab2cb54ed89a8f2f23f1810b7869010000006a47304402204dfcc194a5462a328f4e13becf6d6718bd745138174af085184a23ae34ada96102202968c8fbb7c59d3ca3e15559faceca8a6446a8b82e717020cb5c60f19d0d2f4501210361505b2a99ba68eda4182e158978a719e4775be6e6adbd0ff2245761b55e9c16ffffffff02d6680c00000000001976a914ac45cf88a5f8278915614aa7e926df79d6d677e188acd7041c00000000001976a91478311d9a6b1a40b604b8c813f09366a4b4ee147188ac00000000", "vin": [{"sequence": 4294967295, "scriptSig": {"hex": "47304402204a7c29055873279cd7ef668d0eae5b798aa9f68f5db7b6b7bcdb30051b49e24002201263cac87bbb132c3a8238ba6e9405bf747a85aa236bdb829eabb4e6c65fd257012102954b4c900deddf10757c767db13aa3bbcf401a774121b00e6f9fcb361ac788c0", "asm": "304402204a7c29055873279cd7ef668d0eae5b798aa9f68f5db7b6b7bcdb30051b49e24002201263cac87bbb132c3a8238ba6e9405bf747a85aa236bdb829eabb4e6c65fd257[ALL] 02954b4c900deddf10757c767db13aa3bbcf401a774121b00e6f9fcb361ac788c0"}, "vout": 0, "txid": "4c0be51b095fba58217dc54811593fe2411cc0d8bbac2fce8f2674284317ac3a"}, {"sequence": 4294967295, "scriptSig": {"hex": "47304402204dfcc194a5462a328f4e13becf6d6718bd745138174af085184a23ae34ada96102202968c8fbb7c59d3ca3e15559faceca8a6446a8b82e717020cb5c60f19d0d2f4501210361505b2a99ba68eda4182e158978a719e4775be6e6adbd0ff2245761b55e9c16", "asm": "304402204dfcc194a5462a328f4e13becf6d6718bd745138174af085184a23ae34ada96102202968c8fbb7c59d3ca3e15559faceca8a6446a8b82e717020cb5c60f19d0d2f45[ALL] 0361505b2a99ba68eda4182e158978a719e4775be6e6adbd0ff2245761b55e9c16"}, "vout": 1, "txid": "69780b81f1232f8f9ad84eb52cab93b73551e2c2704b4498de9d16e248a496d7"}], "txid": "756d62e8a85830979b6d18f422345016b17b91d410e5ee5f9aeeed6b9c661df5", "blocktime": 1537871767, "version": 1, "confirmations": 11493, "time": 1537871767, "locktime": 0, "vsize": 372, "size": 372}