{"hash": "d60dfb6b4cd50ca8493c3ddaac2873d7f16f6a6a172a795d345e8647d96440f6", "blockhash": "00000000000000000017f5eb5941039fbcee6240d03bc1f2f8e35350df66a1d8", "vout": [{"scriptPubKey": {"reqSigs": 1, "hex": "a914350ebfcc1a25fbb3481e08c3d2fa6a58639824bd87", "addresses": ["36XZQWAjg2ZQaT91s14RzC68vFPGh3yzwo"], "asm": "OP_HASH160 350ebfcc1a25fbb3481e08c3d2fa6a58639824bd OP_EQUAL", "type": "scripthash"}, "value": 0.248713, "n": 0}, {"scriptPubKey": {"reqSigs": 1, "hex": "a91494f5d7887e4648e332c536e4058930fe9b3779dd87", "addresses": ["3FGeSLAHmBFAYJBKommNgpRzUDgeMPKh5z"], "asm": "OP_HASH160 94f5d7887e4648e332c536e4058930fe9b3779dd OP_EQUAL", "type": "scripthash"}, "value": 0.00993905, "n": 1}], "hex": "020000000001051f0206d3dbea9037b38a0fd5f4e8e8d49a7aa0035a20ed3275aa9f13d4a29e5f0100000017160014bb9bccf0cfaf4877d67c0f5dcb3f2e032cf88dfffeffffff38feafd58ab5bd3e6c5a8feafa6183447a495bf559e2ef33741a8ab46a63ef8100000000171600148ea68d4b5c19c903985fbf3ba0c9b8082483fb50feffffff42457afd610ad768bcca30834dc16d7c09cb38fd434a2a3eed8ed7986db276030100000017160014c71a36ffd5ab004fd4739fb954ad1d8601365158feffffff64b72e5e7b54e1a6cb6f59caa838ba86521f1a2250668782d3ef7ebe4ce518cb00000000171600147e140bad0f16e65634fc393eca145aa798753bbffeffffff802ad58354cade887ab4953a1d109f437225719a888a580ed7d67e579b494e60010000001716001491db700876b5b3b795968dad12533f37dd5cf56cfeffffff0284817b010000000017a914350ebfcc1a25fbb3481e08c3d2fa6a58639824bd87712a0f000000000017a91494f5d7887e4648e332c536e4058930fe9b3779dd8702483045022100c1017fae4102a5e851a238b8a55950002ad062e08f2ca5971eba15b209b0823b0220154f4ea6df82414d740a0d6cc68d36110766a70b69302f65508e814e6cc220ec0121028611e67870f31e18df636b4428883ce8d2c40c331ab0db4772b065242a87541c0247304402207af6a01a0245cc97f52bcde8b38dc45417bb82fe96534e48da9c668cca7df6a4022028d950956c252bae6fcba477e9592343afb8e05d253e245cea26f425afdda84f012102525370aa85859903b3437e9d056e10d382141369a2b1838333dd9b5eaba8ada102483045022100bb6b959312972b381b652fcdc475c6c2e2ea9822514cc1629ac3cef2446b49a302205e769fe8c63f4d3172a4f1fc91e7930c4dd7af37c3f721b6cad625a83e3fbea60121038c220f8eed7c467e958ebf827bdc5321e2b0924adbf6ae315ff572e7246b2de10247304402207fbb364877ddb8881a430dabe72a5d215a23708d33dd15adb7bbc6ea82728f2d022032a55d5e2b7249086b2aee1c704e9b0b85e69fe70cfef4cea701e48d53edfeee0121027c365b13674ac0eec29e4cdc93cb25b8c17ac7d0bdbbf5936d0a1d8f9ef4b0ea02483045022100d8c8ff3187f99ec54689ece0a406c2525608b38106655814052b43bce8253b17022073b125f6cf2dd27b635e4f0b9a0ad19060592991e73b0c1acd2239dfade0dd9b012102dbd3c31ace76f6ba6fc27edbf6926e1ed03d50be42fc44026a366ac49b2217e515490800", "vin": [{"txinwitness": ["3045022100c1017fae4102a5e851a238b8a55950002ad062e08f2ca5971eba15b209b0823b0220154f4ea6df82414d740a0d6cc68d36110766a70b69302f65508e814e6cc220ec01", "028611e67870f31e18df636b4428883ce8d2c40c331ab0db4772b065242a87541c"], "sequence": 4294967294, "scriptSig": {"hex": "160014bb9bccf0cfaf4877d67c0f5dcb3f2e032cf88dff", "asm": "0014bb9bccf0cfaf4877d67c0f5dcb3f2e032cf88dff"}, "vout": 1, "txid": "5f9ea2d4139faa7532ed205a03a07a9ad4e8e8f4d50f8ab33790eadbd306021f"}, {"txinwitness": ["304402207af6a01a0245cc97f52bcde8b38dc45417bb82fe96534e48da9c668cca7df6a4022028d950956c252bae6fcba477e9592343afb8e05d253e245cea26f425afdda84f01", "02525370aa85859903b3437e9d056e10d382141369a2b1838333dd9b5eaba8ada1"], "sequence": 4294967294, "scriptSig": {"hex": "1600148ea68d4b5c19c903985fbf3ba0c9b8082483fb50", "asm": "00148ea68d4b5c19c903985fbf3ba0c9b8082483fb50"}, "vout": 0, "txid": "81ef636ab48a1a7433efe259f55b497a448361faea8f5a6c3ebdb58ad5affe38"}, {"txinwitness": ["3045022100bb6b959312972b381b652fcdc475c6c2e2ea9822514cc1629ac3cef2446b49a302205e769fe8c63f4d3172a4f1fc91e7930c4dd7af37c3f721b6cad625a83e3fbea601", "038c220f8eed7c467e958ebf827bdc5321e2b0924adbf6ae315ff572e7246b2de1"], "sequence": 4294967294, "scriptSig": {"hex": "160014c71a36ffd5ab004fd4739fb954ad1d8601365158", "asm": "0014c71a36ffd5ab004fd4739fb954ad1d8601365158"}, "vout": 1, "txid": "0376b26d98d78eed3e2a4a43fd38cb097c6dc14d8330cabc68d70a61fd7a4542"}, {"txinwitness": ["304402207fbb364877ddb8881a430dabe72a5d215a23708d33dd15adb7bbc6ea82728f2d022032a55d5e2b7249086b2aee1c704e9b0b85e69fe70cfef4cea701e48d53edfeee01", "027c365b13674ac0eec29e4cdc93cb25b8c17ac7d0bdbbf5936d0a1d8f9ef4b0ea"], "sequence": 4294967294, "scriptSig": {"hex": "1600147e140bad0f16e65634fc393eca145aa798753bbf", "asm": "00147e140bad0f16e65634fc393eca145aa798753bbf"}, "vout": 0, "txid": "cb18e54cbe7eefd382876650221a1f5286ba38a8ca596fcba6e1547b5e2eb764"}, {"txinwitness": ["3045022100d8c8ff3187f99ec54689ece0a406c2525608b38106655814052b43bce8253b17022073b125f6cf2dd27b635e4f0b9a0ad19060592991e73b0c1acd2239dfade0dd9b01", "02dbd3c31ace76f6ba6fc27edbf6926e1ed03d50be42fc44026a366ac49b2217e5"], "sequence": 4294967294, "scriptSig": {"hex": "16001491db700876b5b3b795968dad12533f37dd5cf56c", "asm": "001491db700876b5b3b795968dad12533f37dd5cf56c"}, "vout": 1, "txid": "604e499b577ed6d70e588a889a712572439f101d3a95b47a88deca5483d52a80"}], "txid": "75763c1bd87c8632f596e993ac407091ef33ef5ddfff1cdd7e338908f8efa4f5", "blocktime": 1537874412, "version": 2, "confirmations": 11467, "time": 1537874412, "locktime": 542997, "vsize": 529, "size": 934}