{"hash": "7577cbb4a231d6dd2a1287b298102bc72d7dd4b5173e78ea04da4ddb0c196f29", "blockhash": "0000000000000000000baef3f32e3676a92c3b2e5da21b426e4f302fc371ce76", "vout": [{"scriptPubKey": {"reqSigs": 1, "hex": "76a9143e919d68c1882106bd3f47f3d317bdeace89c65588ac", "addresses": ["16hqLPn3L4CouFQtdjT196eWTABhrJvFmg"], "asm": "OP_DUP OP_HASH160 3e919d68c1882106bd3f47f3d317bdeace89c655 OP_EQUALVERIFY OP_CHECKSIG", "type": "pubkeyhash"}, "value": 0.0147492, "n": 0}, {"scriptPubKey": {"type": "nulldata", "hex": "6a4c500000780100014e0ce0702940d64fa54d8eb2d19ed074892d00f8e87af8e8e963c7cfd5b9f3e263dabad4372658501355ed46101e5baa1a040613867adde0ad2bbc9a9526289ac0f6612cd74e33776ee4", "asm": "OP_RETURN 0000780100014e0ce0702940d64fa54d8eb2d19ed074892d00f8e87af8e8e963c7cfd5b9f3e263dabad4372658501355ed46101e5baa1a040613867adde0ad2bbc9a9526289ac0f6612cd74e33776ee4"}, "value": 0.0, "n": 1}], "hex": "0100000001005b396f0567c42f212ca502b03664cc6f63f73f01516682a7dd4aa44268a847000000006b483045022100ca4d398e2b53c0da61fdf6c9b10c646c42fec44b992283553f6e285f8d904ab5022005f2c9da11118b0868426a13959f43e4e1a6258b60f335481bd0a038cc19b9ff01210349b9aeac48a5c1c45d3586e1e0c0ccaa10fa1988276af74538358fa102b8089bffffffff0268811600000000001976a9143e919d68c1882106bd3f47f3d317bdeace89c65588ac0000000000000000536a4c500000780100014e0ce0702940d64fa54d8eb2d19ed074892d00f8e87af8e8e963c7cfd5b9f3e263dabad4372658501355ed46101e5baa1a040613867adde0ad2bbc9a9526289ac0f6612cd74e33776ee400000000", "vin": [{"sequence": 4294967295, "scriptSig": {"hex": "483045022100ca4d398e2b53c0da61fdf6c9b10c646c42fec44b992283553f6e285f8d904ab5022005f2c9da11118b0868426a13959f43e4e1a6258b60f335481bd0a038cc19b9ff01210349b9aeac48a5c1c45d3586e1e0c0ccaa10fa1988276af74538358fa102b8089b", "asm": "3045022100ca4d398e2b53c0da61fdf6c9b10c646c42fec44b992283553f6e285f8d904ab5022005f2c9da11118b0868426a13959f43e4e1a6258b60f335481bd0a038cc19b9ff[ALL] 0349b9aeac48a5c1c45d3586e1e0c0ccaa10fa1988276af74538358fa102b8089b"}, "vout": 0, "txid": "47a86842a44adda7826651013ff7636fcc6436b002a52c212fc467056f395b00"}], "txid": "7577cbb4a231d6dd2a1287b298102bc72d7dd4b5173e78ea04da4ddb0c196f29", "blocktime": 1537876114, "version": 1, "confirmations": 11461, "time": 1537876114, "locktime": 0, "vsize": 284, "size": 284}