{"hash": "757755b5770379b70ff724f5b241e5753e9b84d0d8b0b1a687fedc5cd8d96561", "blockhash": "0000000000000000001cda96e906b7601b7a6fb1a3b62bca570a9e5d8f4b3de1", "vout": [{"scriptPubKey": {"reqSigs": 1, "hex": "76a9146ae8a1dec881f3692376942248bdeea46b0a11bf88ac", "addresses": ["1AkHJunCXVV48oHG39Gn6ZjHgg4cQWcQFE"], "asm": "OP_DUP OP_HASH160 6ae8a1dec881f3692376942248bdeea46b0a11bf OP_EQUALVERIFY OP_CHECKSIG", "type": "pubkeyhash"}, "value": 0.24899999, "n": 0}, {"scriptPubKey": {"reqSigs": 1, "hex": "76a914a520c86a08366941cd90d22e11ac1c7eefa2db3788ac", "addresses": ["1G47mSr3oANXMafVrR8UC4pzV7FEAzo3r9"], "asm": "OP_DUP OP_HASH160 a520c86a08366941cd90d22e11ac1c7eefa2db37 OP_EQUALVERIFY OP_CHECKSIG", "type": "pubkeyhash"}, "value": 0.68063482, "n": 1}], "hex": "0100000001582474e72e1ff7d08fa23d84e877d97bacc04b7012f2471f17b1aef8dd4fa283020000006a4730440220395193e9ca0c72a760bcefd70229a896d170cc78cf8842e0cd8e0bd3408ac45102201a39da73f7147182b9f48fd07b75406a8fc73e9c99ca8aab9960bf1f1166e7a2012103f3f44c9e80e2cedc1a2909631a3adea8866ee32187f74d0912387359b0ff36a2ffffffff029ff17b01000000001976a9146ae8a1dec881f3692376942248bdeea46b0a11bf88acfa900e04000000001976a914a520c86a08366941cd90d22e11ac1c7eefa2db3788ac00000000", "vin": [{"sequence": 4294967295, "scriptSig": {"hex": "4730440220395193e9ca0c72a760bcefd70229a896d170cc78cf8842e0cd8e0bd3408ac45102201a39da73f7147182b9f48fd07b75406a8fc73e9c99ca8aab9960bf1f1166e7a2012103f3f44c9e80e2cedc1a2909631a3adea8866ee32187f74d0912387359b0ff36a2", "asm": "30440220395193e9ca0c72a760bcefd70229a896d170cc78cf8842e0cd8e0bd3408ac45102201a39da73f7147182b9f48fd07b75406a8fc73e9c99ca8aab9960bf1f1166e7a2[ALL] 03f3f44c9e80e2cedc1a2909631a3adea8866ee32187f74d0912387359b0ff36a2"}, "vout": 2, "txid": "83a24fddf8aeb1171f47f212704bc0ac7bd977e8843da28fd0f71f2ee7742458"}], "txid": "757755b5770379b70ff724f5b241e5753e9b84d0d8b0b1a687fedc5cd8d96561", "blocktime": 1537873282, "version": 1, "confirmations": 11482, "time": 1537873282, "locktime": 0, "vsize": 225, "size": 225}