{"hash": "75786d5f3090716ab44b61d0c6a884f3636fedbf8a1d1b0f00179c4caba27d5e", "blockhash": "0000000000000000000baef3f32e3676a92c3b2e5da21b426e4f302fc371ce76", "vout": [{"scriptPubKey": {"type": "nulldata", "hex": "6a4c500000783400010a53450cfc10e8d6c32ccfec27b7256b4774d339f6019d6ddc0f1b8ff11780309731b4121d73dcd1c4c53523ba425baa1f680614324c36cb570e1d100759d4ba30d2c37bb011d97e02cf", "asm": "OP_RETURN 0000783400010a53450cfc10e8d6c32ccfec27b7256b4774d339f6019d6ddc0f1b8ff11780309731b4121d73dcd1c4c53523ba425baa1f680614324c36cb570e1d100759d4ba30d2c37bb011d97e02cf"}, "value": 0.0, "n": 0}, {"scriptPubKey": {"reqSigs": 1, "hex": "76a9146ca3982d940b12a6161d235f7f3abdcee04a5f7588ac", "addresses": ["1AuRxTdB3oeFbd4HYqHNDoDSvrQjqWdG8m"], "asm": "OP_DUP OP_HASH160 6ca3982d940b12a6161d235f7f3abdcee04a5f75 OP_EQUALVERIFY OP_CHECKSIG", "type": "pubkeyhash"}, "value": 0.00629496, "n": 1}], "hex": "0100000001d04e3fcfaf1158f1dd3a42843794fd08d9f85db5991d2c30ca7f8b6aafdc4a85000000006a47304402203052ebfa1115d0b314b6ad9e7f10c02d9b2f5b5d45be2770573effbecb3f072602205425a0fc2c7fef61d518851b381f3f8219ecb95d36cc5989ba8e03eaae3e8bee0121034854580a174cb67958840920da220b62113c8f626481305c28f810ed1fc7393cffffffff020000000000000000536a4c500000783400010a53450cfc10e8d6c32ccfec27b7256b4774d339f6019d6ddc0f1b8ff11780309731b4121d73dcd1c4c53523ba425baa1f680614324c36cb570e1d100759d4ba30d2c37bb011d97e02cff89a0900000000001976a9146ca3982d940b12a6161d235f7f3abdcee04a5f7588ac00000000", "vin": [{"sequence": 4294967295, "scriptSig": {"hex": "47304402203052ebfa1115d0b314b6ad9e7f10c02d9b2f5b5d45be2770573effbecb3f072602205425a0fc2c7fef61d518851b381f3f8219ecb95d36cc5989ba8e03eaae3e8bee0121034854580a174cb67958840920da220b62113c8f626481305c28f810ed1fc7393c", "asm": "304402203052ebfa1115d0b314b6ad9e7f10c02d9b2f5b5d45be2770573effbecb3f072602205425a0fc2c7fef61d518851b381f3f8219ecb95d36cc5989ba8e03eaae3e8bee[ALL] 034854580a174cb67958840920da220b62113c8f626481305c28f810ed1fc7393c"}, "vout": 0, "txid": "854adcaf6a8b7fca302c1d99b55df8d908fd943784423addf15811afcf3f4ed0"}], "txid": "75786d5f3090716ab44b61d0c6a884f3636fedbf8a1d1b0f00179c4caba27d5e", "blocktime": 1537876114, "version": 1, "confirmations": 11462, "time": 1537876114, "locktime": 0, "vsize": 283, "size": 283}