{"hash": "717207ce704bd91ac5113af1fa1858d1dc06cbd034f7c0b392ae5744d6a02f93", "blockhash": "0000000000000000001cda96e906b7601b7a6fb1a3b62bca570a9e5d8f4b3de1", "vout": [{"scriptPubKey": {"reqSigs": 1, "hex": "a9142d61cd0fdeabf511ffbf3f21d7a2aaa2d37a981387", "addresses": ["35pyVWZ6pvRoh5jWRgEK83YsFsA2eyELoE"], "asm": "OP_HASH160 2d61cd0fdeabf511ffbf3f21d7a2aaa2d37a9813 OP_EQUAL", "type": "scripthash"}, "value": 0.00998334, "n": 0}, {"scriptPubKey": {"reqSigs": 1, "hex": "76a914d7d21b5f58b6f23fbeb9b4a439c35a82f79bc49488ac", "addresses": ["1Lg9yjFkRAY78ZrSKr7azMj2c4XHeMbaBo"], "asm": "OP_DUP OP_HASH160 d7d21b5f58b6f23fbeb9b4a439c35a82f79bc494 OP_EQUALVERIFY OP_CHECKSIG", "type": "pubkeyhash"}, "value": 0.0403937, "n": 1}], "hex": "020000000001018037b19fc7ab8cfa6e8db28576056971c97ed3b4c85fef4509547da7edb1614c01000000171600148a3f7a2d76af93d71ea1f0da2f0c0b21d992b2b8feffffff02be3b0f000000000017a9142d61cd0fdeabf511ffbf3f21d7a2aaa2d37a981387caa23d00000000001976a914d7d21b5f58b6f23fbeb9b4a439c35a82f79bc49488ac024830450221008fc356d196f42f63e2129d1b33a7fe3b5a3252eeecb60c02dacfbc957acebfc402202c0568c4ca15e7aea7bbd9b0040dcfda3a8da831f6c57b490a1c98be1aeca29f012103c386900fa49856bdfddc0261b82cf9e53cc5f83df62b1a2be10a5807a1c06d5f13490800", "vin": [{"txinwitness": ["30450221008fc356d196f42f63e2129d1b33a7fe3b5a3252eeecb60c02dacfbc957acebfc402202c0568c4ca15e7aea7bbd9b0040dcfda3a8da831f6c57b490a1c98be1aeca29f01", "03c386900fa49856bdfddc0261b82cf9e53cc5f83df62b1a2be10a5807a1c06d5f"], "sequence": 4294967294, "scriptSig": {"hex": "1600148a3f7a2d76af93d71ea1f0da2f0c0b21d992b2b8", "asm": "00148a3f7a2d76af93d71ea1f0da2f0c0b21d992b2b8"}, "vout": 1, "txid": "4c61b1eda77d540945ef5fc8b4d37ec97169057685b28d6efa8cabc79fb13780"}], "txid": "757a04b18b208fbfbcd8e558c381e7899e756045267be3262c5a3421c4060a77", "blocktime": 1537873282, "version": 2, "confirmations": 11481, "time": 1537873282, "locktime": 542995, "vsize": 168, "size": 250}