{"hash": "7e652790ea286fa558da04e315f4e88bb6186b8dc05da1aed2d2b0cadeb00ba0", "blockhash": "0000000000000000000baef3f32e3676a92c3b2e5da21b426e4f302fc371ce76", "vout": [{"scriptPubKey": {"reqSigs": 1, "hex": "76a91485db7cab769f93a69785c13cc1e0df51be1f9d8b88ac", "addresses": ["1DCmojk8DoVM3CmvYCzyJbGfcHzZstF2vU"], "asm": "OP_DUP OP_HASH160 85db7cab769f93a69785c13cc1e0df51be1f9d8b OP_EQUALVERIFY OP_CHECKSIG", "type": "pubkeyhash"}, "value": 2.614e-05, "n": 0}, {"scriptPubKey": {"reqSigs": 1, "hex": "a914e8db75c900cf08f06518e96d167331f2a4abfb3387", "addresses": ["3NvFbQMAkkqEFj4i1sYPPLkSWzxTFUchjA"], "asm": "OP_HASH160 e8db75c900cf08f06518e96d167331f2a4abfb33 OP_EQUAL", "type": "scripthash"}, "value": 3.391e-05, "n": 1}], "hex": "01000000000101917ceaaa8470571c3ce5768b03e1a7d7c8e2d317c3f59cac693d818b62cfb94c0100000023220020941cfaff8837763dc1f69ff82b6d6553fdea17a41cfc29a04403293eedd8ccc7ffffffff02360a0000000000001976a91485db7cab769f93a69785c13cc1e0df51be1f9d8b88ac3f0d00000000000017a914e8db75c900cf08f06518e96d167331f2a4abfb338704004830450221009fc907e7599581ae8d9d9ac96b666002d04ee4cfdcdc0dfaf0b5a7b5fd7893380220255b97bb682e2e99f7fae0dbec2029f2c665a85fe050324e7b45d7fe0401b8f70148304502210093c14fbea40f0ce53e57433c2b49ce7efa88a6199bcbc7fb0b529eae07dc9a1f0220277ab452778c7a9a8271a7f00c4400427b37e39325a1f1bb5173374080c85af70147522102531db3a5883f29bab4241dd0cd726936667bcda445d89bdd22244e828b6993342103148c80a5bdfddb05ff5bcffc397c8ca748d8b435ec6a175bc9d7bfc7fc6f853752ae00000000", "vin": [{"txinwitness": ["", "30450221009fc907e7599581ae8d9d9ac96b666002d04ee4cfdcdc0dfaf0b5a7b5fd7893380220255b97bb682e2e99f7fae0dbec2029f2c665a85fe050324e7b45d7fe0401b8f701", "304502210093c14fbea40f0ce53e57433c2b49ce7efa88a6199bcbc7fb0b529eae07dc9a1f0220277ab452778c7a9a8271a7f00c4400427b37e39325a1f1bb5173374080c85af701", "522102531db3a5883f29bab4241dd0cd726936667bcda445d89bdd22244e828b6993342103148c80a5bdfddb05ff5bcffc397c8ca748d8b435ec6a175bc9d7bfc7fc6f853752ae"], "sequence": 4294967295, "scriptSig": {"hex": "220020941cfaff8837763dc1f69ff82b6d6553fdea17a41cfc29a04403293eedd8ccc7", "asm": "0020941cfaff8837763dc1f69ff82b6d6553fdea17a41cfc29a04403293eedd8ccc7"}, "vout": 1, "txid": "4cb9cf628b813d69ac9cf5c317d3e2c8d7a7e1038b76e53c1c577084aaea7c91"}], "txid": "757bb72518483af2731f64fefa24f1982b071a273dfca53d6b76d002e40ca529", "blocktime": 1537876114, "version": 1, "confirmations": 11462, "time": 1537876114, "locktime": 0, "vsize": 208, "size": 374}