{"hash": "758008364a6baa91b4c32ba7f6b644ee5d8a01b122b737f0c69f92eb85fb64d4", "blockhash": "00000000000000000004ffacab907a6b429b9a5745fa0b75af4234bf69dd7176", "vout": [{"scriptPubKey": {"reqSigs": 1, "hex": "76a914f9ef387a29cd764e78e948bb4283b30efe84876288ac", "addresses": ["1PnXq77fuxjL4DmKEHKEAGiPtZW3GNUU4S"], "asm": "OP_DUP OP_HASH160 f9ef387a29cd764e78e948bb4283b30efe848762 OP_EQUALVERIFY OP_CHECKSIG", "type": "pubkeyhash"}, "value": 0.8575, "n": 0}, {"scriptPubKey": {"reqSigs": 1, "hex": "76a914c789a8c2f3c23950884e66616a65998d5719a2fd88ac", "addresses": ["1KC4NuUyoo4HR65TkZCsze2GFZTtUAJ1sJ"], "asm": "OP_DUP OP_HASH160 c789a8c2f3c23950884e66616a65998d5719a2fd OP_EQUALVERIFY OP_CHECKSIG", "type": "pubkeyhash"}, "value": 0.52418826, "n": 1}], "hex": "010000000173b1b6722e1680f9f97d266097a81ea176b03df84c5347f0741aaa8ea6f6ff68010000006a47304402206f606b094c12cd007ef1eaa0a7af6e128e42c9eea8826e97816e9430e0bc625f0220120332b972876be8d334cd1fc63635a1928f7b73ef5465faf9166847dc154e65012102dcae9dee13840341f5e60d7687037a2c54371f48587efb53e426d4a72a27679cffffffff02f0701c05000000001976a914f9ef387a29cd764e78e948bb4283b30efe84876288ac0ad91f03000000001976a914c789a8c2f3c23950884e66616a65998d5719a2fd88ac00000000", "vin": [{"sequence": 4294967295, "scriptSig": {"hex": "47304402206f606b094c12cd007ef1eaa0a7af6e128e42c9eea8826e97816e9430e0bc625f0220120332b972876be8d334cd1fc63635a1928f7b73ef5465faf9166847dc154e65012102dcae9dee13840341f5e60d7687037a2c54371f48587efb53e426d4a72a27679c", "asm": "304402206f606b094c12cd007ef1eaa0a7af6e128e42c9eea8826e97816e9430e0bc625f0220120332b972876be8d334cd1fc63635a1928f7b73ef5465faf9166847dc154e65[ALL] 02dcae9dee13840341f5e60d7687037a2c54371f48587efb53e426d4a72a27679c"}, "vout": 1, "txid": "68fff6a68eaa1a74f047534cf83db076a11ea89760267df9f980162e72b6b173"}], "txid": "758008364a6baa91b4c32ba7f6b644ee5d8a01b122b737f0c69f92eb85fb64d4", "blocktime": 1537875543, "version": 1, "confirmations": 11464, "time": 1537875543, "locktime": 0, "vsize": 225, "size": 225}