{"hash": "7582ba478f6430aa1e8ceae9cee01d382a74a4027e5108dfd743e1b7aa07a4ad", "blockhash": "0000000000000000001e0dab787dd257d1dbfcb92a98c2207d5e1078be1f4165", "vout": [{"scriptPubKey": {"reqSigs": 1, "hex": "76a914bb15e77f8732b6e2638f104faf6d86ad6895486f88ac", "addresses": ["1J4DbovXoxjb1kduoeJkXKLmNqSn7EoR1S"], "asm": "OP_DUP OP_HASH160 bb15e77f8732b6e2638f104faf6d86ad6895486f OP_EQUALVERIFY OP_CHECKSIG", "type": "pubkeyhash"}, "value": 0.00093719, "n": 0}, {"scriptPubKey": {"reqSigs": 1, "hex": "76a9140b8b43c074227e10ba3faa4e914d7f3d035a691f88ac", "addresses": ["1243GPWKScUvn8q8TJGNvUJw9rYPNR264V"], "asm": "OP_DUP OP_HASH160 0b8b43c074227e10ba3faa4e914d7f3d035a691f OP_EQUALVERIFY OP_CHECKSIG", "type": "pubkeyhash"}, "value": 0.01611356, "n": 1}], "hex": "0100000001ea552a13bc4c7a433cb3c4ac676561c7d8eddd5ee5ec1c2584cdb7579310546a010000006b483045022100bc5e8906ca2d0c233661aca2791079adbebc5eec1440c8991d50ad6e2cb4c3310220720ab2fdf9f38f25c1b39f4607be6a49c49ec9bd42d93c3ad62cabff7d7f75330121039f67a35edd1f36297d37de2f4a6c29b062e27e76103a36c3cb6bf1cf9cd6457dffffffff02176e0100000000001976a914bb15e77f8732b6e2638f104faf6d86ad6895486f88ac5c961800000000001976a9140b8b43c074227e10ba3faa4e914d7f3d035a691f88ac00000000", "vin": [{"sequence": 4294967295, "scriptSig": {"hex": "483045022100bc5e8906ca2d0c233661aca2791079adbebc5eec1440c8991d50ad6e2cb4c3310220720ab2fdf9f38f25c1b39f4607be6a49c49ec9bd42d93c3ad62cabff7d7f75330121039f67a35edd1f36297d37de2f4a6c29b062e27e76103a36c3cb6bf1cf9cd6457d", "asm": "3045022100bc5e8906ca2d0c233661aca2791079adbebc5eec1440c8991d50ad6e2cb4c3310220720ab2fdf9f38f25c1b39f4607be6a49c49ec9bd42d93c3ad62cabff7d7f7533[ALL] 039f67a35edd1f36297d37de2f4a6c29b062e27e76103a36c3cb6bf1cf9cd6457d"}, "vout": 1, "txid": "6a54109357b7cd84251cece55eddedd8c7616567acc4b33c437a4cbc132a55ea"}], "txid": "7582ba478f6430aa1e8ceae9cee01d382a74a4027e5108dfd743e1b7aa07a4ad", "blocktime": 1537872475, "version": 1, "confirmations": 11486, "time": 1537872475, "locktime": 0, "vsize": 226, "size": 226}