{"hash": "7589bd8bdcbe4971aa1db250494727e897aebddcccc2b97a0fcdea7537ce0991", "blockhash": "0000000000000000000baef3f32e3676a92c3b2e5da21b426e4f302fc371ce76", "vout": [{"scriptPubKey": {"reqSigs": 1, "hex": "0014d67d12552b782b650ddac76d319b4faa3b79833d", "addresses": ["bc1q6e73y4ft0q4k2rw6caknrx604gahnqeagkdsts"], "asm": "0 d67d12552b782b650ddac76d319b4faa3b79833d", "type": "witness_v0_keyhash"}, "value": 1.086e-05, "n": 0}, {"scriptPubKey": {"reqSigs": 1, "hex": "a9147ceaee2c9700bd70d55111af2f700820d7f3d71287", "addresses": ["3D5X9aXWi4dNcaurCjgAonChhk56qsNQLU"], "asm": "OP_HASH160 7ceaee2c9700bd70d55111af2f700820d7f3d712 OP_EQUAL", "type": "scripthash"}, "value": 0.00126, "n": 1}], "hex": "01000000011019d053a43bdfe605b1bdac104da3baf04fb25926446ac034e81e15434a28251a0000006b483045022100bfd91995306d61e02f3806bf7139d9dfc76c398cd06124f54e6002db81f095aa022035095f64704da5d49c42156f9a3eeae2eccde71c8fee7ee02af939a8ae1248510121032111750abf4848ef8b15df6c3fbe1950a208997dbb8225c497eb1232bc2d2768ffffffff023e04000000000000160014d67d12552b782b650ddac76d319b4faa3b79833d30ec01000000000017a9147ceaee2c9700bd70d55111af2f700820d7f3d7128700000000", "vin": [{"sequence": 4294967295, "scriptSig": {"hex": "483045022100bfd91995306d61e02f3806bf7139d9dfc76c398cd06124f54e6002db81f095aa022035095f64704da5d49c42156f9a3eeae2eccde71c8fee7ee02af939a8ae1248510121032111750abf4848ef8b15df6c3fbe1950a208997dbb8225c497eb1232bc2d2768", "asm": "3045022100bfd91995306d61e02f3806bf7139d9dfc76c398cd06124f54e6002db81f095aa022035095f64704da5d49c42156f9a3eeae2eccde71c8fee7ee02af939a8ae124851[ALL] 032111750abf4848ef8b15df6c3fbe1950a208997dbb8225c497eb1232bc2d2768"}, "vout": 26, "txid": "25284a43151ee834c06a442659b24ff0baa34d10acbdb105e6df3ba453d01910"}], "txid": "7589bd8bdcbe4971aa1db250494727e897aebddcccc2b97a0fcdea7537ce0991", "blocktime": 1537876114, "version": 1, "confirmations": 11460, "time": 1537876114, "locktime": 0, "vsize": 221, "size": 221}