{"hash": "9eb2e3e54d9549fdede60b357374a02539fbd13f990f615481598939bfc64f8f", "blockhash": "0000000000000000001cda96e906b7601b7a6fb1a3b62bca570a9e5d8f4b3de1", "vout": [{"scriptPubKey": {"reqSigs": 1, "hex": "a914df7ffca679ca91e02232ce24068c5eafe426009187", "addresses": ["3N4mw1TYJpfkMX4paHjYqP2HzPuNArEGGZ"], "asm": "OP_HASH160 df7ffca679ca91e02232ce24068c5eafe4260091 OP_EQUAL", "type": "scripthash"}, "value": 0.0005, "n": 0}, {"scriptPubKey": {"reqSigs": 1, "hex": "a91463e700312e0b2471857b3403d2facca283167fd987", "addresses": ["3AoFYkN9seJLAoLNt6SxL64kH9AaoXi55y"], "asm": "OP_HASH160 63e700312e0b2471857b3403d2facca283167fd9 OP_EQUAL", "type": "scripthash"}, "value": 0.184254, "n": 1}], "hex": "01000000000101b0e9a47468e0f727c4d19120601cdb11a2d6453a9fbb4a5f6126262c706ac13b01000000232200208ffaac22e03784f4f37182bdfff69919f735ce75e55be32a9224e16f65a80ef7ffffffff0250c300000000000017a914df7ffca679ca91e02232ce24068c5eafe426009187382619010000000017a91463e700312e0b2471857b3403d2facca283167fd987040047304402200e6c2c01a2a88cf7ebc05da496443a535c8b1717fd302719ae3c315295e012530220148f893196b75c70ae917e0c752da309036e966f4886808a71855c8848883b300147304402203db9f9ee2403efb4beafdb703d38ac3f8c12fe1429e031a6b87dcde0da548d29022043821fc9065fc4574bd360329be957720bb2196b6cb89154a22c942517b4685401695221021ac16fbbfd8fdcd19907945e640f3cfc66bba651df9ee9220148604ea1f6799121037e2671166beed64a031d77efb5a32d607408e8112bbef540835c60b7d8b5aa6e2102f26cea0a28a924c9769b767ebf61e0db28dd59644fbcdfc1b04741c6e6df080353ae00000000", "vin": [{"txinwitness": ["", "304402200e6c2c01a2a88cf7ebc05da496443a535c8b1717fd302719ae3c315295e012530220148f893196b75c70ae917e0c752da309036e966f4886808a71855c8848883b3001", "304402203db9f9ee2403efb4beafdb703d38ac3f8c12fe1429e031a6b87dcde0da548d29022043821fc9065fc4574bd360329be957720bb2196b6cb89154a22c942517b4685401", "5221021ac16fbbfd8fdcd19907945e640f3cfc66bba651df9ee9220148604ea1f6799121037e2671166beed64a031d77efb5a32d607408e8112bbef540835c60b7d8b5aa6e2102f26cea0a28a924c9769b767ebf61e0db28dd59644fbcdfc1b04741c6e6df080353ae"], "sequence": 4294967295, "scriptSig": {"hex": "2200208ffaac22e03784f4f37182bdfff69919f735ce75e55be32a9224e16f65a80ef7", "asm": "00208ffaac22e03784f4f37182bdfff69919f735ce75e55be32a9224e16f65a80ef7"}, "vout": 1, "txid": "3bc16a702c2626615f4abb9f3a45d6a211db1c602091d1c427f7e06874a4e9b0"}], "txid": "75949e2a0eb55ec78ff2d7b624bd8ae7866725ea888e9b50ccbb2ea1aa7cd8ff", "blocktime": 1537873282, "version": 1, "confirmations": 11485, "time": 1537873282, "locktime": 0, "vsize": 214, "size": 404}