{"hash": "f40bd82fbb39bc0fe9c4f32e445dde62f9fbf5be6a420c596c05b6af182c3450", "blockhash": "0000000000000000001cda96e906b7601b7a6fb1a3b62bca570a9e5d8f4b3de1", "vout": [{"scriptPubKey": {"reqSigs": 1, "hex": "a914efbaa61a3f7df83d16d7815a43841e33c05dc1d987", "addresses": ["3PYb1ynSxMPqC2pLqeMgh5pUsUHquuUHEz"], "asm": "OP_HASH160 efbaa61a3f7df83d16d7815a43841e33c05dc1d9 OP_EQUAL", "type": "scripthash"}, "value": 0.71989301, "n": 0}, {"scriptPubKey": {"reqSigs": 1, "hex": "a914e387de8958b10d277cf88c50a553d57d69ad689887", "addresses": ["3NS65TCfQf76UcYkXBnEqUNRpmUFtCv7Ne"], "asm": "OP_HASH160 e387de8958b10d277cf88c50a553d57d69ad6898 OP_EQUAL", "type": "scripthash"}, "value": 22.37405, "n": 1}], "hex": "010000000001047a74ccefe5bf60270649adfad122fff3247e61d2029bb668b628d1ce2aa91c010100000017160014b72bad1182c484f3ba3cde6fd9bf35984e57efb3ffffffff39cdaee1e4cd6deca1f8ef626e7970d77a427a7dcddf9b54361bb48b43cdbe0700000000171600146ad1dd02e71278bf10ca8cd9ab9a5ce035345498ffffffff7ee6895b742a95c114a561c1dea589288367ed9596024f2b90267cf7a991fc0e0000000017160014a39c2089134a6c27915b7050014af539a005900dffffffff5d616ed05f91094b7f36fbbb820dbd748c3a84e09d09066b05c23669471f6a4c0100000017160014af05ae508e50ee1e2a80abc0fc7067f0550e3428ffffffff0235784a040000000017a914efbaa61a3f7df83d16d7815a43841e33c05dc1d98748175c850000000017a914e387de8958b10d277cf88c50a553d57d69ad68988702483045022100b66c266c4692978863a3e9fd61a50ff19b6fb0f800a0ce84ce11a97d979b0b9102200c0b8bebd16f100587dfcd5fa852211eed647ad9ae9a5f1d22e0f3f484fb3f82012103c88d5c3ecfec66d15955b4e20945b7fe7ad3ee1b86e481e7f174d5cdbe37211002483045022100a2a51c4f2ab3f7361d3412832fa474bc66f3fbd5905f53ec13541718e79e168f02205b672c41261e593b381b1137a7970b4262c21e746042d1ecc52c648cd6efece701210339a751995d83fe3b35a3a1e7787400fc060935fa62832511af73e083af554d7b024830450221009557059951a84abbf2d72d5094f98036babfb80bbb62073b49dafd134828a991022024290e457222748de1aaae2077daf6cbb571bd9e0cd56a5b1dba6dbebdb6f2c101210337bdf3932c721eb6b6a24f14b40d00ab2cd2e11cffbf20fc74281ba1ff88d21f02483045022100ba4473d425b5aef9aef9e2d54d2390a8b2b742cbafdd4bc2fd8d806a652cc23902204dee578d2b54590bb652521a2d01bab42e9b53c118636fd7506e91410a519497012102c7068e0861140eae2cd0c7f78207fc039f283e266b9fc934f503a31037a4ac5e00000000", "vin": [{"txinwitness": ["3045022100b66c266c4692978863a3e9fd61a50ff19b6fb0f800a0ce84ce11a97d979b0b9102200c0b8bebd16f100587dfcd5fa852211eed647ad9ae9a5f1d22e0f3f484fb3f8201", "03c88d5c3ecfec66d15955b4e20945b7fe7ad3ee1b86e481e7f174d5cdbe372110"], "sequence": 4294967295, "scriptSig": {"hex": "160014b72bad1182c484f3ba3cde6fd9bf35984e57efb3", "asm": "0014b72bad1182c484f3ba3cde6fd9bf35984e57efb3"}, "vout": 1, "txid": "011ca92aced128b668b69b02d2617e24f3ff22d1faad49062760bfe5efcc747a"}, {"txinwitness": ["3045022100a2a51c4f2ab3f7361d3412832fa474bc66f3fbd5905f53ec13541718e79e168f02205b672c41261e593b381b1137a7970b4262c21e746042d1ecc52c648cd6efece701", "0339a751995d83fe3b35a3a1e7787400fc060935fa62832511af73e083af554d7b"], "sequence": 4294967295, "scriptSig": {"hex": "1600146ad1dd02e71278bf10ca8cd9ab9a5ce035345498", "asm": "00146ad1dd02e71278bf10ca8cd9ab9a5ce035345498"}, "vout": 0, "txid": "07becd438bb41b36549bdfcd7d7a427ad770796e62eff8a1ec6dcde4e1aecd39"}, {"txinwitness": ["30450221009557059951a84abbf2d72d5094f98036babfb80bbb62073b49dafd134828a991022024290e457222748de1aaae2077daf6cbb571bd9e0cd56a5b1dba6dbebdb6f2c101", "0337bdf3932c721eb6b6a24f14b40d00ab2cd2e11cffbf20fc74281ba1ff88d21f"], "sequence": 4294967295, "scriptSig": {"hex": "160014a39c2089134a6c27915b7050014af539a005900d", "asm": "0014a39c2089134a6c27915b7050014af539a005900d"}, "vout": 0, "txid": "0efc91a9f77c26902b4f029695ed67832889a5dec161a514c1952a745b89e67e"}, {"txinwitness": ["3045022100ba4473d425b5aef9aef9e2d54d2390a8b2b742cbafdd4bc2fd8d806a652cc23902204dee578d2b54590bb652521a2d01bab42e9b53c118636fd7506e91410a51949701", "02c7068e0861140eae2cd0c7f78207fc039f283e266b9fc934f503a31037a4ac5e"], "sequence": 4294967295, "scriptSig": {"hex": "160014af05ae508e50ee1e2a80abc0fc7067f0550e3428", "asm": "0014af05ae508e50ee1e2a80abc0fc7067f0550e3428"}, "vout": 1, "txid": "4c6a1f476936c2056b06099de0843a8c74bd0d82bbfb367f4b09915fd06e615d"}], "txid": "7594b81e43d86e40b9188b3f6a0007687f9eda0fa0e2ce2fef6af6cb21a4f8c3", "blocktime": 1537873282, "version": 1, "confirmations": 11484, "time": 1537873282, "locktime": 0, "vsize": 439, "size": 764}