{"hash": "0e1b6eaaf2600ad18384224d3fa925b69498120722e8f04209b04eda1d5c84d8", "blockhash": "0000000000000000001f76057863aec43deb6fa401d9628bb513d65a8098bfab", "vout": [{"scriptPubKey": {"reqSigs": 1, "hex": "0014497a6fd3da2500dca7e40a732f0ce64990bcb356", "addresses": ["bc1qf9axl576y5qdeflypfej7r8xfxgtev6kka4dhc"], "asm": "0 497a6fd3da2500dca7e40a732f0ce64990bcb356", "type": "witness_v0_keyhash"}, "value": 3.657e-05, "n": 0}, {"scriptPubKey": {"reqSigs": 1, "hex": "a9140b9d47351b5f6a05e737b7d056705ae5b989d9ab87", "addresses": ["32kRmXnbs8MXNSQGjNCeBFConPPvxBvAtL"], "asm": "OP_HASH160 0b9d47351b5f6a05e737b7d056705ae5b989d9ab OP_EQUAL", "type": "scripthash"}, "value": 0.01515607, "n": 1}], "hex": "01000000000101cea8c8b4f4934818aff871503019fe550f19ee0e10a5e5d1311f9593e81b27370100000000ffffffff02490e000000000000160014497a6fd3da2500dca7e40a732f0ce64990bcb356572017000000000017a9140b9d47351b5f6a05e737b7d056705ae5b989d9ab8702483045022100f7ee8fe5266df3cf56ffe18dd02610b4d8d9567d1a5ef0e69dfcdbca3fbc0d4302207b2cd5cfaa3493681eb9615c33a00fc8bcba767900411e61fa2dc34ff89859fa012103d477e42c7903b60e98c76374df5c0619b1f18ba8e6d19a4eb9b879a08188a52600000000", "vin": [{"txinwitness": ["3045022100f7ee8fe5266df3cf56ffe18dd02610b4d8d9567d1a5ef0e69dfcdbca3fbc0d4302207b2cd5cfaa3493681eb9615c33a00fc8bcba767900411e61fa2dc34ff89859fa01", "03d477e42c7903b60e98c76374df5c0619b1f18ba8e6d19a4eb9b879a08188a526"], "sequence": 4294967295, "scriptSig": {"hex": "", "asm": ""}, "vout": 1, "txid": "37271be893951f31d1e5a5100eee190f55fe19305071f8af184893f4b4c8a8ce"}], "txid": "7594c0e7814b46db22699c4cd1059b14e4f2ee32855bfa60c2ff0262d1c1a269", "blocktime": 1537873891, "version": 1, "confirmations": 11478, "time": 1537873891, "locktime": 0, "vsize": 142, "size": 224}