{"hash": "7596504d1210e15eccba647ecec51e62e872878e7925b34a3c517d2378bcbf41", "blockhash": "0000000000000000001cda96e906b7601b7a6fb1a3b62bca570a9e5d8f4b3de1", "vout": [{"scriptPubKey": {"reqSigs": 1, "hex": "76a9149dc137c6f279a7263b087a25a57ecfc36c1a115c88ac", "addresses": ["1FP8Z8bfsGjUP6PpKJ38RBvb7iwBiAAk1C"], "asm": "OP_DUP OP_HASH160 9dc137c6f279a7263b087a25a57ecfc36c1a115c OP_EQUALVERIFY OP_CHECKSIG", "type": "pubkeyhash"}, "value": 0.00926887, "n": 0}, {"scriptPubKey": {"reqSigs": 1, "hex": "a914749380961b051d4ba974cd220b01075b35d73f6687", "addresses": ["3CKR1SBELrZyAFQC96n3Ch7aL7MYFdfpAf"], "asm": "OP_HASH160 749380961b051d4ba974cd220b01075b35d73f66 OP_EQUAL", "type": "scripthash"}, "value": 0.0034781, "n": 1}], "hex": "02000000025d500b81072d828b3e8679e89099ca64f4286111edd7f47f90bb2e06f9fd459c730100006a47304402201e2944c76f308ecc04a64be30b39b2f2437320e2448d50739055d716d98bd26c022064bc00064bdb8698bd49cdc04e4adb858aca99c19fd85bb7e5e7a75cf4a4612f0121023037f037029ef0b48f48d1444fc42d4f9e59de556e68880f7053e715565c92c6feffffffed24bf93b3a1fa87bd0a915faf7bd6d898c4cd9634f8c96ab41bf327cc33f0f6410000006a473044022038eb6a0bfb4a4955323769e0917df77d966930e1affecbb80f31393bab7f84ca02206b8d39afbaa7106591238a69597cd0bf76169d9e9355e164244185d06441e757012102f086f703f8f673736b407780f269df54343c9b20f3213ce7c327290b891cd707feffffff02a7240e00000000001976a9149dc137c6f279a7263b087a25a57ecfc36c1a115c88aca24e05000000000017a914749380961b051d4ba974cd220b01075b35d73f668713490800", "vin": [{"sequence": 4294967294, "scriptSig": {"hex": "47304402201e2944c76f308ecc04a64be30b39b2f2437320e2448d50739055d716d98bd26c022064bc00064bdb8698bd49cdc04e4adb858aca99c19fd85bb7e5e7a75cf4a4612f0121023037f037029ef0b48f48d1444fc42d4f9e59de556e68880f7053e715565c92c6", "asm": "304402201e2944c76f308ecc04a64be30b39b2f2437320e2448d50739055d716d98bd26c022064bc00064bdb8698bd49cdc04e4adb858aca99c19fd85bb7e5e7a75cf4a4612f[ALL] 023037f037029ef0b48f48d1444fc42d4f9e59de556e68880f7053e715565c92c6"}, "vout": 371, "txid": "9c45fdf9062ebb907ff4d7ed116128f464ca9990e879863e8b822d07810b505d"}, {"sequence": 4294967294, "scriptSig": {"hex": "473044022038eb6a0bfb4a4955323769e0917df77d966930e1affecbb80f31393bab7f84ca02206b8d39afbaa7106591238a69597cd0bf76169d9e9355e164244185d06441e757012102f086f703f8f673736b407780f269df54343c9b20f3213ce7c327290b891cd707", "asm": "3044022038eb6a0bfb4a4955323769e0917df77d966930e1affecbb80f31393bab7f84ca02206b8d39afbaa7106591238a69597cd0bf76169d9e9355e164244185d06441e757[ALL] 02f086f703f8f673736b407780f269df54343c9b20f3213ce7c327290b891cd707"}, "vout": 65, "txid": "f6f033cc27f31bb46ac9f83496cdc498d8d67baf5f910abd87faa1b393bf24ed"}], "txid": "7596504d1210e15eccba647ecec51e62e872878e7925b34a3c517d2378bcbf41", "blocktime": 1537873282, "version": 2, "confirmations": 11480, "time": 1537873282, "locktime": 542995, "vsize": 370, "size": 370}