{"hash": "816773b7d36c9e6c2f7c0afe8f2f0034b350d1b0f479e22c15436c0df2ef7e23", "blockhash": "0000000000000000001e0dab787dd257d1dbfcb92a98c2207d5e1078be1f4165", "vout": [{"scriptPubKey": {"reqSigs": 1, "hex": "00147e2ab17914642788a095530692f81732c9eef22a", "addresses": ["bc1q0c4tz7g5vsnc3gy42vrf97qhxty7au32wfv3z4"], "asm": "0 7e2ab17914642788a095530692f81732c9eef22a", "type": "witness_v0_keyhash"}, "value": 3.332e-05, "n": 0}, {"scriptPubKey": {"reqSigs": 1, "hex": "76a914bcb9daf3efd84bff7ec6717546897abfd65e58bb88ac", "addresses": ["1JCtgWumeA85x3X4wzXWtWiaoMQjRJEPTG"], "asm": "OP_DUP OP_HASH160 bcb9daf3efd84bff7ec6717546897abfd65e58bb OP_EQUALVERIFY OP_CHECKSIG", "type": "pubkeyhash"}, "value": 0.00045795, "n": 1}], "hex": "01000000000101c30c248a11f3abd1881e7d6a3950aa72b1f98e69cfce6dd62dfec1e03a47ffaa0100000000ffffffff02040d0000000000001600147e2ab17914642788a095530692f81732c9eef22ae3b20000000000001976a914bcb9daf3efd84bff7ec6717546897abfd65e58bb88ac0247304402202b3053de7ea664fe78368a02c8ca525fef527763611d965b4d15ee8e27bf6d3b02202c0f7aafa900017ce4b6afe3d0db4a16a3c0351430af8e11651b23fbcc38d27401210398232e397137379160ed29eeb038255618ea88ea466a7b065df062c31a9e4a0a00000000", "vin": [{"txinwitness": ["304402202b3053de7ea664fe78368a02c8ca525fef527763611d965b4d15ee8e27bf6d3b02202c0f7aafa900017ce4b6afe3d0db4a16a3c0351430af8e11651b23fbcc38d27401", "0398232e397137379160ed29eeb038255618ea88ea466a7b065df062c31a9e4a0a"], "sequence": 4294967295, "scriptSig": {"hex": "", "asm": ""}, "vout": 1, "txid": "aaff473ae0c1fe2dd66dcecf698ef9b172aa50396a7d1e88d1abf3118a240cc3"}], "txid": "759a993408725c9265a73fde3d320f3120d1ceb7c727fbf178473033110d85c4", "blocktime": 1537872475, "version": 1, "confirmations": 11487, "time": 1537872475, "locktime": 0, "vsize": 144, "size": 225}