{"hash": "fcdb7fa643da93a7dac534c540b9818e01f992a110faa9ae96d9b2b1ef042e2c", "blockhash": "00000000000000000018f53835495a110e01622372bf6ae95dc86f2b0ab887b0", "vout": [{"scriptPubKey": {"reqSigs": 1, "hex": "76a9145da2fa833f1e69667b0f74ecb7f78fa05beaadad88ac", "addresses": ["19Y75nnjsqX3zcT3exdro8aBPSTybitL73"], "asm": "OP_DUP OP_HASH160 5da2fa833f1e69667b0f74ecb7f78fa05beaadad OP_EQUALVERIFY OP_CHECKSIG", "type": "pubkeyhash"}, "value": 0.05705, "n": 0}, {"scriptPubKey": {"reqSigs": 1, "hex": "a914fb13ecef77f23e552ca410ad16765591a2f0c06187", "addresses": ["3QabQ9G2e84knpwSt34vrWnSWYKcpJ8Bfi"], "asm": "OP_HASH160 fb13ecef77f23e552ca410ad16765591a2f0c061 OP_EQUAL", "type": "scripthash"}, "value": 0.16412331, "n": 1}], "hex": "020000000001011c2d21da79d8b425061dbf1e8507fa92155a6ccd6ec98c2e2ff648c7d254e816010000001716001431ac73441d993c26733cebad4b1b6ee9af5adcc3feffffff02280d5700000000001976a9145da2fa833f1e69667b0f74ecb7f78fa05beaadad88acab6efa000000000017a914fb13ecef77f23e552ca410ad16765591a2f0c06187024830450221009d8d5cbebedc78e149ac2c1769ee86b5e842e7111aed25fa4d74ad3ee6c9d0240220246684a9c614e722614e569d8cc0c34540b627e420e2ca18cd3c52176193f13801210246c2e7a3d77f6014177cc469539f938b2393e0d571f6c244a9c893bc82b8da8e0e490800", "vin": [{"txinwitness": ["30450221009d8d5cbebedc78e149ac2c1769ee86b5e842e7111aed25fa4d74ad3ee6c9d0240220246684a9c614e722614e569d8cc0c34540b627e420e2ca18cd3c52176193f13801", "0246c2e7a3d77f6014177cc469539f938b2393e0d571f6c244a9c893bc82b8da8e"], "sequence": 4294967294, "scriptSig": {"hex": "16001431ac73441d993c26733cebad4b1b6ee9af5adcc3", "asm": "001431ac73441d993c26733cebad4b1b6ee9af5adcc3"}, "vout": 1, "txid": "16e854d2c748f62f2e8cc96ecd6c5a1592fa07851ebf1d0625b4d879da212d1c"}], "txid": "75a26347298bc7d6d67cfdec82e7b1dee07a4ef5625f61e83d76c970822e02ab", "blocktime": 1537870928, "version": 2, "confirmations": 11514, "time": 1537870928, "locktime": 542990, "vsize": 168, "size": 250}