{"hash": "75a9ae8003df92ad016ba771391d7475bdeefb14b6713cd7f2345a43c9d3dbdf", "blockhash": "00000000000000000018f53835495a110e01622372bf6ae95dc86f2b0ab887b0", "vout": [{"scriptPubKey": {"reqSigs": 1, "hex": "a9144940bae95d90fca7093460ff7a887914d18e81e287", "addresses": ["38NLo5KCoskqr6LN8FZwgyAziGAxxoyn8N"], "asm": "OP_HASH160 4940bae95d90fca7093460ff7a887914d18e81e2 OP_EQUAL", "type": "scripthash"}, "value": 0.006512, "n": 0}, {"scriptPubKey": {"reqSigs": 1, "hex": "76a914567501b6fceb0dc625449dc31546382595ed51b188ac", "addresses": ["18t9HGPdPkc8EvjgFha1LB2ZNeEkRtWm3m"], "asm": "OP_DUP OP_HASH160 567501b6fceb0dc625449dc31546382595ed51b1 OP_EQUALVERIFY OP_CHECKSIG", "type": "pubkeyhash"}, "value": 0.14162515, "n": 1}], "hex": "01000000019334c0c56cacbb43f45d8c919e11879251f6196c1ea28db5202ec455c15a7bf0010000006a47304402206a1833f1518940212f250346be438eb468af46d9f25cb1371c90a67c34bfd09b02207be5daa50fc750d3c7780a0266af2ed3edf4dec4ed83b1c61a0354a0e6f06372012102d0828bbf4a0b96c8980d3516ffd68841369355d52a2d9f3ca0c0ab228de147f9fdffffff02c0ef09000000000017a9144940bae95d90fca7093460ff7a887914d18e81e287531ad800000000001976a914567501b6fceb0dc625449dc31546382595ed51b188ac0e490800", "vin": [{"sequence": 4294967293, "scriptSig": {"hex": "47304402206a1833f1518940212f250346be438eb468af46d9f25cb1371c90a67c34bfd09b02207be5daa50fc750d3c7780a0266af2ed3edf4dec4ed83b1c61a0354a0e6f06372012102d0828bbf4a0b96c8980d3516ffd68841369355d52a2d9f3ca0c0ab228de147f9", "asm": "304402206a1833f1518940212f250346be438eb468af46d9f25cb1371c90a67c34bfd09b02207be5daa50fc750d3c7780a0266af2ed3edf4dec4ed83b1c61a0354a0e6f06372[ALL] 02d0828bbf4a0b96c8980d3516ffd68841369355d52a2d9f3ca0c0ab228de147f9"}, "vout": 1, "txid": "f07b5ac155c42e20b58da21e6c19f6519287119e918c5df443bbac6cc5c03493"}], "txid": "75a9ae8003df92ad016ba771391d7475bdeefb14b6713cd7f2345a43c9d3dbdf", "blocktime": 1537870928, "version": 1, "confirmations": 11512, "time": 1537870928, "locktime": 542990, "vsize": 223, "size": 223}