{"hash": "75b181a0d2ff9c21276f93b3e1f186aa97b44543279ca9ff41dfbe497be5e82c", "blockhash": "00000000000000000018f53835495a110e01622372bf6ae95dc86f2b0ab887b0", "vout": [{"scriptPubKey": {"reqSigs": 1, "hex": "76a9143cdfd7f0a0bdcbf151f751bd01f04038bf969d6f88ac", "addresses": ["16YshRwKFhmidtbu8V8Te1NKfJPvJogbLH"], "asm": "OP_DUP OP_HASH160 3cdfd7f0a0bdcbf151f751bd01f04038bf969d6f OP_EQUALVERIFY OP_CHECKSIG", "type": "pubkeyhash"}, "value": 0.0017563, "n": 0}, {"scriptPubKey": {"reqSigs": 1, "hex": "a914461801f33a2924333943702cb9bfe0fdb3681c2d87", "addresses": ["385dz3snq6Hth3mhPg5sMyhhAaJFDdMTDP"], "asm": "OP_HASH160 461801f33a2924333943702cb9bfe0fdb3681c2d OP_EQUAL", "type": "scripthash"}, "value": 0.0025, "n": 1}], "hex": "01000000032664d25d8859c9ebe24fccba0c0beb44aa8ff74798063d0e7905ebb3789c7368000000006a47304402203daa187fa304561f2f86120f27837ccd49bb9b907607919f6f165d6e2453fa0002201022fc591ab6a508143c61d7323a1321dfc221a24f6017df4f4a046e3ba17c4b012102237a3c2da8fb506c472d6a47730c4bc4ceabb3b00337d73ec3b87598a638bcdeffffffff8f7b0e7aef20dac8f0ef8eae198551d39bf5c3bf5b8af5b9b7195fbb4ceed76a000000006a4730440220251b7e317ff5945bf9888e824e476ad6c0c33b2b77c6fccf423157f51df4cdee02203c5ed2100ade0d9367f1eae5844c0e5b2998c7c7e60b6b90675b76782a04a6d0012102b71fd0117e238dd462feadd0530d9da050a3d7caefc687ad6cccab48c9989d84ffffffff5db4818944001738e35f06adb076704b7a666c75e69c5ee1b34fbcc78baa1876000000006b483045022100ef70b7135ccb31db340380b5895cc30805c7d0ac7be823e4ec5d371a1552170402203eaf888de3e0f5e42084c02290f7c2ffb6eb9b7d591f650d2d60437cfbfd413e012103379aabc65fbb2abe4abe3c37457ebf3bbb564db4258d3ed1786b1c43eeb623beffffffff020eae0200000000001976a9143cdfd7f0a0bdcbf151f751bd01f04038bf969d6f88ac90d003000000000017a914461801f33a2924333943702cb9bfe0fdb3681c2d8700000000", "vin": [{"sequence": 4294967295, "scriptSig": {"hex": "47304402203daa187fa304561f2f86120f27837ccd49bb9b907607919f6f165d6e2453fa0002201022fc591ab6a508143c61d7323a1321dfc221a24f6017df4f4a046e3ba17c4b012102237a3c2da8fb506c472d6a47730c4bc4ceabb3b00337d73ec3b87598a638bcde", "asm": "304402203daa187fa304561f2f86120f27837ccd49bb9b907607919f6f165d6e2453fa0002201022fc591ab6a508143c61d7323a1321dfc221a24f6017df4f4a046e3ba17c4b[ALL] 02237a3c2da8fb506c472d6a47730c4bc4ceabb3b00337d73ec3b87598a638bcde"}, "vout": 0, "txid": "68739c78b3eb05790e3d069847f78faa44eb0b0cbacc4fe2ebc959885dd26426"}, {"sequence": 4294967295, "scriptSig": {"hex": "4730440220251b7e317ff5945bf9888e824e476ad6c0c33b2b77c6fccf423157f51df4cdee02203c5ed2100ade0d9367f1eae5844c0e5b2998c7c7e60b6b90675b76782a04a6d0012102b71fd0117e238dd462feadd0530d9da050a3d7caefc687ad6cccab48c9989d84", "asm": "30440220251b7e317ff5945bf9888e824e476ad6c0c33b2b77c6fccf423157f51df4cdee02203c5ed2100ade0d9367f1eae5844c0e5b2998c7c7e60b6b90675b76782a04a6d0[ALL] 02b71fd0117e238dd462feadd0530d9da050a3d7caefc687ad6cccab48c9989d84"}, "vout": 0, "txid": "6ad7ee4cbb5f19b7b9f58a5bbfc3f59bd3518519ae8eeff0c8da20ef7a0e7b8f"}, {"sequence": 4294967295, "scriptSig": {"hex": "483045022100ef70b7135ccb31db340380b5895cc30805c7d0ac7be823e4ec5d371a1552170402203eaf888de3e0f5e42084c02290f7c2ffb6eb9b7d591f650d2d60437cfbfd413e012103379aabc65fbb2abe4abe3c37457ebf3bbb564db4258d3ed1786b1c43eeb623be", "asm": "3045022100ef70b7135ccb31db340380b5895cc30805c7d0ac7be823e4ec5d371a1552170402203eaf888de3e0f5e42084c02290f7c2ffb6eb9b7d591f650d2d60437cfbfd413e[ALL] 03379aabc65fbb2abe4abe3c37457ebf3bbb564db4258d3ed1786b1c43eeb623be"}, "vout": 0, "txid": "7618aa8bc7bc4fb3e15e9ce6756c667a4b7076b0ad065fe3381700448981b45d"}], "txid": "75b181a0d2ff9c21276f93b3e1f186aa97b44543279ca9ff41dfbe497be5e82c", "blocktime": 1537870928, "version": 1, "confirmations": 11512, "time": 1537870928, "locktime": 0, "vsize": 518, "size": 518}