{"hash": "75c3b6d600483d69e6f04fe7bad4b37ae23dcb8423ec4a71dcd15e3cd79e6fc3", "blockhash": "0000000000000000000dcc0f55137456b1a82d3642486a52398922ac4d620174", "vout": [{"scriptPubKey": {"reqSigs": 1, "hex": "76a914d243e6abb9a60fbff430b421d2df4b7d59ec186088ac", "addresses": ["1LAnF8h3qMGx3TSwNUHVneBZUEpwE4gu3D"], "asm": "OP_DUP OP_HASH160 d243e6abb9a60fbff430b421d2df4b7d59ec1860 OP_EQUALVERIFY OP_CHECKSIG", "type": "pubkeyhash"}, "value": 0.00076972, "n": 0}, {"scriptPubKey": {"reqSigs": 1, "hex": "76a9143851f34d13937b673a7d24a1950bb5b21ce94af388ac", "addresses": ["168o1kqNquEJeR9vosUB5fw4eAwcVAgh8P"], "asm": "OP_DUP OP_HASH160 3851f34d13937b673a7d24a1950bb5b21ce94af3 OP_EQUALVERIFY OP_CHECKSIG", "type": "pubkeyhash"}, "value": 5.46e-06, "n": 1}, {"scriptPubKey": {"type": "nulldata", "hex": "6a146f6d6e69000000000000001f00000085dc604493", "asm": "OP_RETURN 6f6d6e69000000000000001f00000085dc604493"}, "value": 0.0, "n": 2}], "hex": "01000000027b1b0a82f32ec85c1a451499fab4f2938cb2b5db523eb598a8e98a4b79f09ad1020000006b48304502210081d97a3c0cb4b350546f37704f1aa4150fc59c862c59d5d569873a6a1f72d3b102206f5e72238279570ff2d1574478643146b1dd093722727563010dd0d433c7d540012103ed3003004b62833f37b33a9cc0ebc80fd46ba416562db753357e437f7ac12583ffffffffd918f7189d520b5b90dfa385138321640f6dc19bdc5bc1807a60c5e7ebf21c4b000000006a47304402207d119d75d6c7b18192a810b13c0e2a5888f23174f8be4e2e641d1c5b0f99899202202fc9a3b91d8fc47d269a9b44efa64bb9d54c7fe80032242ef43e76451e0f3b9601210271977291b74f1f5f5c42157e8aae804664eaaeccfd097918450d37f28fb94d77ffffffff03ac2c0100000000001976a914d243e6abb9a60fbff430b421d2df4b7d59ec186088ac22020000000000001976a9143851f34d13937b673a7d24a1950bb5b21ce94af388ac0000000000000000166a146f6d6e69000000000000001f00000085dc60449300000000", "vin": [{"sequence": 4294967295, "scriptSig": {"hex": "48304502210081d97a3c0cb4b350546f37704f1aa4150fc59c862c59d5d569873a6a1f72d3b102206f5e72238279570ff2d1574478643146b1dd093722727563010dd0d433c7d540012103ed3003004b62833f37b33a9cc0ebc80fd46ba416562db753357e437f7ac12583", "asm": "304502210081d97a3c0cb4b350546f37704f1aa4150fc59c862c59d5d569873a6a1f72d3b102206f5e72238279570ff2d1574478643146b1dd093722727563010dd0d433c7d540[ALL] 03ed3003004b62833f37b33a9cc0ebc80fd46ba416562db753357e437f7ac12583"}, "vout": 2, "txid": "d19af0794b8ae9a898b53e52dbb5b28c93f2b4fa9914451a5cc82ef3820a1b7b"}, {"sequence": 4294967295, "scriptSig": {"hex": "47304402207d119d75d6c7b18192a810b13c0e2a5888f23174f8be4e2e641d1c5b0f99899202202fc9a3b91d8fc47d269a9b44efa64bb9d54c7fe80032242ef43e76451e0f3b9601210271977291b74f1f5f5c42157e8aae804664eaaeccfd097918450d37f28fb94d77", "asm": "304402207d119d75d6c7b18192a810b13c0e2a5888f23174f8be4e2e641d1c5b0f99899202202fc9a3b91d8fc47d269a9b44efa64bb9d54c7fe80032242ef43e76451e0f3b96[ALL] 0271977291b74f1f5f5c42157e8aae804664eaaeccfd097918450d37f28fb94d77"}, "vout": 0, "txid": "4b1cf2ebe7c5607a80c15bdc9bc16d0f6421831385a3df905b0b529d18f718d9"}], "txid": "75c3b6d600483d69e6f04fe7bad4b37ae23dcb8423ec4a71dcd15e3cd79e6fc3", "blocktime": 1537870268, "version": 1, "confirmations": 11516, "time": 1537870268, "locktime": 0, "vsize": 404, "size": 404}