{"hash": "75cc3308d861ae69d3a16f4780c60e866e4be9e43ed48306406d34310cf2530f", "blockhash": "0000000000000000001f76057863aec43deb6fa401d9628bb513d65a8098bfab", "vout": [{"scriptPubKey": {"reqSigs": 1, "hex": "76a914cef2687d6e18202da201b5a0c6249509008ee05788ac", "addresses": ["1KsEbLEQA5nKkJ2SuAiasZbHQjFjioopgW"], "asm": "OP_DUP OP_HASH160 cef2687d6e18202da201b5a0c6249509008ee057 OP_EQUALVERIFY OP_CHECKSIG", "type": "pubkeyhash"}, "value": 0.46442919, "n": 0}, {"scriptPubKey": {"reqSigs": 1, "hex": "76a91459023fd3ea0eaed07739ed22ee5136831be76abf88ac", "addresses": ["197dqMpNLXE7qbAq7T3hysxFnBPwh4VHdt"], "asm": "OP_DUP OP_HASH160 59023fd3ea0eaed07739ed22ee5136831be76abf OP_EQUALVERIFY OP_CHECKSIG", "type": "pubkeyhash"}, "value": 0.782049, "n": 1}], "hex": "0100000001afcb7bfab202d2a0e976649722ffee010a34fc61f57b3a82a71dbdc6541d5b1f010000006a473044022047295d44251a54e6b9e86b7880a53a5bc496975fffdbe1d55644ef5fe4bd1ad102201a34adab97652a81437e881ac9df9dbe255becffb4794b8755abfc155ded17dd012103f3ecf48ea5da1d6f7cd899128ddd28d4474aef7745f2ea3796e520dc8b09a6c4ffffffff02a7a9c402000000001976a914cef2687d6e18202da201b5a0c6249509008ee05788ace44fa904000000001976a91459023fd3ea0eaed07739ed22ee5136831be76abf88ac00000000", "vin": [{"sequence": 4294967295, "scriptSig": {"hex": "473044022047295d44251a54e6b9e86b7880a53a5bc496975fffdbe1d55644ef5fe4bd1ad102201a34adab97652a81437e881ac9df9dbe255becffb4794b8755abfc155ded17dd012103f3ecf48ea5da1d6f7cd899128ddd28d4474aef7745f2ea3796e520dc8b09a6c4", "asm": "3044022047295d44251a54e6b9e86b7880a53a5bc496975fffdbe1d55644ef5fe4bd1ad102201a34adab97652a81437e881ac9df9dbe255becffb4794b8755abfc155ded17dd[ALL] 03f3ecf48ea5da1d6f7cd899128ddd28d4474aef7745f2ea3796e520dc8b09a6c4"}, "vout": 1, "txid": "1f5b1d54c6bd1da7823a7bf561fc340a01eeff22976476e9a0d202b2fa7bcbaf"}], "txid": "75cc3308d861ae69d3a16f4780c60e866e4be9e43ed48306406d34310cf2530f", "blocktime": 1537873891, "version": 1, "confirmations": 11478, "time": 1537873891, "locktime": 0, "vsize": 225, "size": 225}