{"hash": "75d0e06aadfa0a27653bd9f43461dd8a783380444de5749a0565552f192aed7e", "blockhash": "0000000000000000000dcc0f55137456b1a82d3642486a52398922ac4d620174", "vout": [{"scriptPubKey": {"reqSigs": 1, "hex": "a9140b6226a0a0690610900dabab6531aa5e6ef1e4e687", "addresses": ["32jCwJBxAhABWTgAJQrQfFefu8xp8NhYkr"], "asm": "OP_HASH160 0b6226a0a0690610900dabab6531aa5e6ef1e4e6 OP_EQUAL", "type": "scripthash"}, "value": 0.00044911, "n": 0}, {"scriptPubKey": {"reqSigs": 1, "hex": "76a914852ea35f071813ecf9751abe65049de61cbf8c5788ac", "addresses": ["1D9CjzS6u5ArSoEGqkqUEz4j55iA3rsFCL"], "asm": "OP_DUP OP_HASH160 852ea35f071813ecf9751abe65049de61cbf8c57 OP_EQUALVERIFY OP_CHECKSIG", "type": "pubkeyhash"}, "value": 0.11517347, "n": 1}], "hex": "0200000001e1dc373b8bd5d0f9d61629d3d56d8e848c9232bbebf2f7a4f28661837827659b010000006b483045022100c6e77756306369709bf16a82c5a5882d9d5fbaa9d13e302e10656a3dbbcbcdf4022034558963fae2e5d006b3bb14974a0374ed62a913853b8a375f46701985649967012103ad9345c23921567f0abf3339bb67fe7dde30c759d2837f65e6d4230853bddca5ffffffff026faf00000000000017a9140b6226a0a0690610900dabab6531aa5e6ef1e4e687a3bdaf00000000001976a914852ea35f071813ecf9751abe65049de61cbf8c5788ac00000000", "vin": [{"sequence": 4294967295, "scriptSig": {"hex": "483045022100c6e77756306369709bf16a82c5a5882d9d5fbaa9d13e302e10656a3dbbcbcdf4022034558963fae2e5d006b3bb14974a0374ed62a913853b8a375f46701985649967012103ad9345c23921567f0abf3339bb67fe7dde30c759d2837f65e6d4230853bddca5", "asm": "3045022100c6e77756306369709bf16a82c5a5882d9d5fbaa9d13e302e10656a3dbbcbcdf4022034558963fae2e5d006b3bb14974a0374ed62a913853b8a375f46701985649967[ALL] 03ad9345c23921567f0abf3339bb67fe7dde30c759d2837f65e6d4230853bddca5"}, "vout": 1, "txid": "9b652778836186f2a4f7f2ebbb32928c848e6dd5d32916d6f9d0d58b3b37dce1"}], "txid": "75d0e06aadfa0a27653bd9f43461dd8a783380444de5749a0565552f192aed7e", "blocktime": 1537870268, "version": 2, "confirmations": 11518, "time": 1537870268, "locktime": 0, "vsize": 224, "size": 224}