{"hash": "cea9f25633a07235ae4d0f0f2627b5fa51826c6925ae4379fa2a15a64fcffa51", "blockhash": "000000000000000000022b45ed06c6f4ccd3cf7fb5ba4856ebd2e58215665228", "vout": [{"scriptPubKey": {"reqSigs": 1, "hex": "a91430897cc6c9d69f6a2c2f1c651d51f22219f1a4f687", "addresses": ["367f4YWz1VCFaqBqwbTrzwi2b1h2U3w1AF"], "asm": "OP_HASH160 30897cc6c9d69f6a2c2f1c651d51f22219f1a4f6 OP_EQUAL", "type": "scripthash"}, "value": 0.0838972, "n": 0}, {"scriptPubKey": {"reqSigs": 1, "hex": "76a914fb12a6e10252f0e9759ad3643bacaeaf77adbb2788ac", "addresses": ["1PtYx73LVcYdVLciYuAJMcGaVteJhjDmGq"], "asm": "OP_DUP OP_HASH160 fb12a6e10252f0e9759ad3643bacaeaf77adbb27 OP_EQUALVERIFY OP_CHECKSIG", "type": "pubkeyhash"}, "value": 0.138, "n": 1}], "hex": "0100000000010162242e88e19347974caf79bd9b01716d3657534bcfebdead08a807556560c0650000000023220020bcf9f822194145acea0f3235f4107b5bf1a91b6b9f8489f63bf79ec29b360913ffffffff02580480000000000017a91430897cc6c9d69f6a2c2f1c651d51f22219f1a4f6874092d200000000001976a914fb12a6e10252f0e9759ad3643bacaeaf77adbb2788ac0400483045022100bfe971a5c6688e2cd7761b1d89d693706c3a0274b5e40473618355f126c365dd02207450e320ddb808dc2e8c4cddb5f4724a99483ad63f23f2431545cfe99ad2f2440147304402205f2ee2723458e8903fd7a6516ce3566d2bb4e9263341754ac0a75652f84aca39022006dcb014db6c246b8962d3ee41e39f01a98501b6de894f5c0558db20695176b801695221026c8f72b9e63db63907115e65d4da86eaae595b22fdc85ec75301bb4adbf203582103806535be3e3920e5eedee92de5714188fd6a784f2bf7b04f87de0b9c3ae1ecdb21024b23bfdce2afcae7e28c42f7f79aa100f22931712c52d7414a526ba494d44a2553ae00000000", "vin": [{"txinwitness": ["", "3045022100bfe971a5c6688e2cd7761b1d89d693706c3a0274b5e40473618355f126c365dd02207450e320ddb808dc2e8c4cddb5f4724a99483ad63f23f2431545cfe99ad2f24401", "304402205f2ee2723458e8903fd7a6516ce3566d2bb4e9263341754ac0a75652f84aca39022006dcb014db6c246b8962d3ee41e39f01a98501b6de894f5c0558db20695176b801", "5221026c8f72b9e63db63907115e65d4da86eaae595b22fdc85ec75301bb4adbf203582103806535be3e3920e5eedee92de5714188fd6a784f2bf7b04f87de0b9c3ae1ecdb21024b23bfdce2afcae7e28c42f7f79aa100f22931712c52d7414a526ba494d44a2553ae"], "sequence": 4294967295, "scriptSig": {"hex": "220020bcf9f822194145acea0f3235f4107b5bf1a91b6b9f8489f63bf79ec29b360913", "asm": "0020bcf9f822194145acea0f3235f4107b5bf1a91b6b9f8489f63bf79ec29b360913"}, "vout": 0, "txid": "65c060655507a808addeebcf4b5357366d71019bbd79af4c974793e1882e2462"}], "txid": "75d3261ec649b274f5c1f305d86eebbbf015d3ce08dc36ef53c1e4f727820b99", "blocktime": 1537869901, "version": 1, "confirmations": 11522, "time": 1537869901, "locktime": 0, "vsize": 216, "size": 407}