{"hash": "6aa9597c28f3baa2dfd378264bfb49e4af56d246d3abceae7b9bcc4bf0264480", "blockhash": "00000000000000000004ffacab907a6b429b9a5745fa0b75af4234bf69dd7176", "vout": [{"scriptPubKey": {"reqSigs": 1, "hex": "a91494fd2ee9d415ae4462a6f4d6061f297646755b5a87", "addresses": ["3FGoER4UdiXk2HwuuF76tXdeaDWHRTV6CR"], "asm": "OP_HASH160 94fd2ee9d415ae4462a6f4d6061f297646755b5a OP_EQUAL", "type": "scripthash"}, "value": 0.00176698, "n": 0}, {"scriptPubKey": {"reqSigs": 1, "hex": "a914c3aac73b19a6df3a3a68ef69a8e9f79c8dff9a9c87", "addresses": ["3KXcGqASXznMituPhPnV7BkSc6CHZRLykC"], "asm": "OP_HASH160 c3aac73b19a6df3a3a68ef69a8e9f79c8dff9a9c OP_EQUAL", "type": "scripthash"}, "value": 0.01470574, "n": 1}], "hex": "01000000000101eb3dbe38946bf45823164394d2fe5153e573d5a9a9da8d78660f92cdd7b8138f01000000232200200b5c15b2a266c1fd9e615145cf3cd379109fe761c2844ebebbc12b381bddc9faffffffff023ab202000000000017a91494fd2ee9d415ae4462a6f4d6061f297646755b5a876e7016000000000017a914c3aac73b19a6df3a3a68ef69a8e9f79c8dff9a9c870400473044022003218c1c0f059b1d7e5893da3c987ea5cd57e7bd734b7ead9a920fcd2a4fe7b10220655d9dcf44a06b5a0d70472b9ce55ca3f9e09fbf7e3c0b9a16fbf742a5c5106e01483045022100b9c88d9f19efa1d0aa24fc0afe48a4b8d33e409d8adeab99fb8eb402f02b7bc00220162ef6f55b7915b9e8641f54ab2c7a014911e602569727e38c911b285fa799230147522102b590b6826675da568b914aa494372424b69f5fe06067fd7fa568cc41070c8e6b21024c55499905a522129124e75484b7ddea868aee9a7f01d75add901db6cf9b589f52ae00000000", "vin": [{"txinwitness": ["", "3044022003218c1c0f059b1d7e5893da3c987ea5cd57e7bd734b7ead9a920fcd2a4fe7b10220655d9dcf44a06b5a0d70472b9ce55ca3f9e09fbf7e3c0b9a16fbf742a5c5106e01", "3045022100b9c88d9f19efa1d0aa24fc0afe48a4b8d33e409d8adeab99fb8eb402f02b7bc00220162ef6f55b7915b9e8641f54ab2c7a014911e602569727e38c911b285fa7992301", "522102b590b6826675da568b914aa494372424b69f5fe06067fd7fa568cc41070c8e6b21024c55499905a522129124e75484b7ddea868aee9a7f01d75add901db6cf9b589f52ae"], "sequence": 4294967295, "scriptSig": {"hex": "2200200b5c15b2a266c1fd9e615145cf3cd379109fe761c2844ebebbc12b381bddc9fa", "asm": "00200b5c15b2a266c1fd9e615145cf3cd379109fe761c2844ebebbc12b381bddc9fa"}, "vout": 1, "txid": "8f13b8d7cd920f66788ddaa9a9d573e55351fed29443162358f46b9438be3deb"}], "txid": "75d3a22213d4d97a8494a1ec05155111ec58395888cfcee1715faebad6b60b79", "blocktime": 1537875543, "version": 1, "confirmations": 11464, "time": 1537875543, "locktime": 0, "vsize": 206, "size": 371}