{"hash": "8fe0ef7c26b9db64b2667096994965b05b390b7e32135ca4b61037204cb6ec16", "blockhash": "000000000000000000022b45ed06c6f4ccd3cf7fb5ba4856ebd2e58215665228", "vout": [{"scriptPubKey": {"reqSigs": 1, "hex": "a914cf66d6097af8dff78f130306a6d3fd0eed78fc3887", "addresses": ["3LbezRq5feDDtbnLuJNRLgsWJp2C4ysSaX"], "asm": "OP_HASH160 cf66d6097af8dff78f130306a6d3fd0eed78fc38 OP_EQUAL", "type": "scripthash"}, "value": 0.151362, "n": 0}, {"scriptPubKey": {"reqSigs": 1, "hex": "a9143b44d3f49b85e63c3197bd9d622d15bb943c2bf587", "addresses": ["376QF7RnnBRzMZmvguSP2xXEe9NE3uxkkw"], "asm": "OP_HASH160 3b44d3f49b85e63c3197bd9d622d15bb943c2bf5 OP_EQUAL", "type": "scripthash"}, "value": 0.03723172, "n": 1}], "hex": "02000000000101090f2f46689cf403797f86cfe34e2194ff2011e4c4dd640aeb460abdcae7ee240100000017160014589932c4daccf7f7dd229ac573da38b2c5480531feffffff02c8f5e6000000000017a914cf66d6097af8dff78f130306a6d3fd0eed78fc3887a4cf38000000000017a9143b44d3f49b85e63c3197bd9d622d15bb943c2bf5870248304502210092019a22471bb361d54a70beb9851e978037bb5f961a7fd7e407c89d1fec5d5902206d46268e373f3f94b43b34958daf32fa42f65ce1e1683c3d72cf85989df4c3430121034c824de3da2d25b99f581563462d6247ff3cc0e74d42f42bc2dad70f79e3e8d30b490800", "vin": [{"txinwitness": ["304502210092019a22471bb361d54a70beb9851e978037bb5f961a7fd7e407c89d1fec5d5902206d46268e373f3f94b43b34958daf32fa42f65ce1e1683c3d72cf85989df4c34301", "034c824de3da2d25b99f581563462d6247ff3cc0e74d42f42bc2dad70f79e3e8d3"], "sequence": 4294967294, "scriptSig": {"hex": "160014589932c4daccf7f7dd229ac573da38b2c5480531", "asm": "0014589932c4daccf7f7dd229ac573da38b2c5480531"}, "vout": 1, "txid": "24eee7cabd0a46eb0a64ddc4e41120ff94214ee3cf867f7903f49c68462f0f09"}], "txid": "75d43bd8eab045a7182aef7accbc1d739b97c2ef2e7b92bb6dcb1171cd09e3ff", "blocktime": 1537869901, "version": 2, "confirmations": 11523, "time": 1537869901, "locktime": 542987, "vsize": 166, "size": 248}