{"hash": "75d6a47ccf1b7a03e450dd1400a5a28041941740334ad651a558aac11712fbef", "blockhash": "0000000000000000000e13cef7c366c0283d82e591d1acd082e914b08063cdf1", "vout": [{"scriptPubKey": {"reqSigs": 1, "hex": "76a9147e64ff140da68aaa5ce8d55448185f02abb4460688ac", "addresses": ["1CXK8XN5w6LWScxuhKPusdKWJiSoJuMhgu"], "asm": "OP_DUP OP_HASH160 7e64ff140da68aaa5ce8d55448185f02abb44606 OP_EQUALVERIFY OP_CHECKSIG", "type": "pubkeyhash"}, "value": 55.47081222, "n": 0}, {"scriptPubKey": {"reqSigs": 1, "hex": "76a914abfc84ef70e077f7560e34c7a4e54c18c9542dc288ac", "addresses": ["1GgP49hq4qkL5GXkUhxhN3gh5RMutkpTbA"], "asm": "OP_DUP OP_HASH160 abfc84ef70e077f7560e34c7a4e54c18c9542dc2 OP_EQUALVERIFY OP_CHECKSIG", "type": "pubkeyhash"}, "value": 0.01235029, "n": 1}], "hex": "01000000019081430823081d64864105735a4e1d78b43285031179392f7db6d8fb7e59d4fc000000006a4730440220789540ac761018d78bd15df109b6553715ffa7d5797b7401fbc59d4a96709df30220596aa4ae7b00aad2c223d9b84e13933763902eb7740bd1072382d30703c31fec0121030f84444d591296d303337914e0626f2f9646d8aa39211ac0cfc0aa0c4020a0f7ffffffff0206bea14a010000001976a9147e64ff140da68aaa5ce8d55448185f02abb4460688ac55d81200000000001976a914abfc84ef70e077f7560e34c7a4e54c18c9542dc288ac00000000", "vin": [{"sequence": 4294967295, "scriptSig": {"hex": "4730440220789540ac761018d78bd15df109b6553715ffa7d5797b7401fbc59d4a96709df30220596aa4ae7b00aad2c223d9b84e13933763902eb7740bd1072382d30703c31fec0121030f84444d591296d303337914e0626f2f9646d8aa39211ac0cfc0aa0c4020a0f7", "asm": "30440220789540ac761018d78bd15df109b6553715ffa7d5797b7401fbc59d4a96709df30220596aa4ae7b00aad2c223d9b84e13933763902eb7740bd1072382d30703c31fec[ALL] 030f84444d591296d303337914e0626f2f9646d8aa39211ac0cfc0aa0c4020a0f7"}, "vout": 0, "txid": "fcd4597efbd8b67d2f397911038532b4781d4e5a73054186641d082308438190"}], "txid": "75d6a47ccf1b7a03e450dd1400a5a28041941740334ad651a558aac11712fbef", "blocktime": 1537871767, "version": 1, "confirmations": 11490, "time": 1537871767, "locktime": 0, "vsize": 225, "size": 225}