{"hash": "5fc9ea230093ce2b200238fd484d5fbb815301a21b9a36a837a6854370fdf6a4", "blockhash": "0000000000000000001f76057863aec43deb6fa401d9628bb513d65a8098bfab", "vout": [{"scriptPubKey": {"reqSigs": 1, "hex": "76a9145c9ef653a4727ac27b54fd182eee988058dde40688ac", "addresses": ["19SjbY8GJP6QBSBY67qPZUQqjm4dLL1Fgm"], "asm": "OP_DUP OP_HASH160 5c9ef653a4727ac27b54fd182eee988058dde406 OP_EQUALVERIFY OP_CHECKSIG", "type": "pubkeyhash"}, "value": 0.0063116, "n": 0}, {"scriptPubKey": {"reqSigs": 1, "hex": "a9149867afe676d5124b5d0197e074afb64c10af136987", "addresses": ["3Farr1TY7D93YftLkyGdCmHiSMphtrB5o9"], "asm": "OP_HASH160 9867afe676d5124b5d0197e074afb64c10af1369 OP_EQUAL", "type": "scripthash"}, "value": 0.00999557, "n": 1}], "hex": "02000000000102a0c4fdc0d658b28d84f4a88b41e14164ba3eb70eac9e7be4a0815f2d42325002010000001716001408e22d7141edb5aa21cb40f6e065452091b63578feffffffadd62fff6b14726e6386240f61ae6f04fd599487e4e24e5f180e8d26ca8cd42e0a00000017160014898ec3f00643d575bcd160e61b9cae26e9f7fff1feffffff0278a10900000000001976a9145c9ef653a4727ac27b54fd182eee988058dde40688ac85400f000000000017a9149867afe676d5124b5d0197e074afb64c10af13698702473044022069c2b6005bbb8b13c0d011ce425cacce4872f60e773f05f3ac7a98d3decbbc4f022001f5be363869725f2dd49dc3f038adc4ac66b6195a46ec9f31d0f4b30f3e6f550121034a4fcbfe06d51240dd6731ceb53377ef415d0a1fe80d9f8dec551bae752057960247304402204a5a715fef318dc13ce029540daee14e05ca680fc9b75d753319ac63445649e602201a1ad586a522055cee36b712488eb74751e66a3bbc18c7cb5c3b33030f4e6c860121038f53cff6611a5ee5f409b6f55e5fd279565da90e8c3f780386da72991daf51a214490800", "vin": [{"txinwitness": ["3044022069c2b6005bbb8b13c0d011ce425cacce4872f60e773f05f3ac7a98d3decbbc4f022001f5be363869725f2dd49dc3f038adc4ac66b6195a46ec9f31d0f4b30f3e6f5501", "034a4fcbfe06d51240dd6731ceb53377ef415d0a1fe80d9f8dec551bae75205796"], "sequence": 4294967294, "scriptSig": {"hex": "16001408e22d7141edb5aa21cb40f6e065452091b63578", "asm": "001408e22d7141edb5aa21cb40f6e065452091b63578"}, "vout": 1, "txid": "025032422d5f81a0e47b9eac0eb73eba6441e1418ba8f4848db258d6c0fdc4a0"}, {"txinwitness": ["304402204a5a715fef318dc13ce029540daee14e05ca680fc9b75d753319ac63445649e602201a1ad586a522055cee36b712488eb74751e66a3bbc18c7cb5c3b33030f4e6c8601", "038f53cff6611a5ee5f409b6f55e5fd279565da90e8c3f780386da72991daf51a2"], "sequence": 4294967294, "scriptSig": {"hex": "160014898ec3f00643d575bcd160e61b9cae26e9f7fff1", "asm": "0014898ec3f00643d575bcd160e61b9cae26e9f7fff1"}, "vout": 10, "txid": "2ed48cca268d0e185f4ee2e4879459fd046fae610f2486636e72146bff2fd6ad"}], "txid": "75d7611d360c95a00af04f2e53da985ecf897aaba60e90017f1ceb0604cd8f48", "blocktime": 1537873891, "version": 2, "confirmations": 11478, "time": 1537873891, "locktime": 542996, "vsize": 258, "size": 420}