{"hash": "75dc7d98c2106a3de27ff96ab4f46dc4def1170d6f07bc32bf173cb588c58c9e", "blockhash": "0000000000000000000dcc0f55137456b1a82d3642486a52398922ac4d620174", "vout": [{"scriptPubKey": {"reqSigs": 1, "hex": "76a9144786ba6c743289ebebd0ed1a61cefb3c8dff720b88ac", "addresses": ["17XCNhdsA6wDkK5bDFUxAuGhQRwKZarD2T"], "asm": "OP_DUP OP_HASH160 4786ba6c743289ebebd0ed1a61cefb3c8dff720b OP_EQUALVERIFY OP_CHECKSIG", "type": "pubkeyhash"}, "value": 0.00031954, "n": 0}, {"scriptPubKey": {"reqSigs": 1, "hex": "76a9140f0ff7f44b698fbf69a5983c2e8a6ba5883d6c0f88ac", "addresses": ["12NeGPotKMZqFzjQMi3L8b5AfNKsW6PsNX"], "asm": "OP_DUP OP_HASH160 0f0ff7f44b698fbf69a5983c2e8a6ba5883d6c0f OP_EQUALVERIFY OP_CHECKSIG", "type": "pubkeyhash"}, "value": 0.0132, "n": 1}], "hex": "0100000001e47c21a7b768ee86ab123c4e5755b817d6196fe22bfe1a25fd4154ca0c430d1f010000006a473044022070428556e868b8552389a586586c3b59c9e6949089dcdaa1039b34e51cf5012d022063a923f8b92e9cb232fb394598f0a6db30c641a485c887156d2797a9c1e49a9801210272dcee5ebfa046fc5ecf5a18572d5848be817ba6a6a0f122027df834672cb354ffffffff02d27c0000000000001976a9144786ba6c743289ebebd0ed1a61cefb3c8dff720b88ac40241400000000001976a9140f0ff7f44b698fbf69a5983c2e8a6ba5883d6c0f88ac00000000", "vin": [{"sequence": 4294967295, "scriptSig": {"hex": "473044022070428556e868b8552389a586586c3b59c9e6949089dcdaa1039b34e51cf5012d022063a923f8b92e9cb232fb394598f0a6db30c641a485c887156d2797a9c1e49a9801210272dcee5ebfa046fc5ecf5a18572d5848be817ba6a6a0f122027df834672cb354", "asm": "3044022070428556e868b8552389a586586c3b59c9e6949089dcdaa1039b34e51cf5012d022063a923f8b92e9cb232fb394598f0a6db30c641a485c887156d2797a9c1e49a98[ALL] 0272dcee5ebfa046fc5ecf5a18572d5848be817ba6a6a0f122027df834672cb354"}, "vout": 1, "txid": "1f0d430cca5441fd251afe2be26f19d617b855574e3c12ab86ee68b7a7217ce4"}], "txid": "75dc7d98c2106a3de27ff96ab4f46dc4def1170d6f07bc32bf173cb588c58c9e", "blocktime": 1537870268, "version": 1, "confirmations": 11518, "time": 1537870268, "locktime": 0, "vsize": 225, "size": 225}