{"hash": "75e6becef37b24a85a5de929c94195b4f99106fbaba7d2a999c3f1f50748f5c5", "blockhash": "0000000000000000001f76057863aec43deb6fa401d9628bb513d65a8098bfab", "vout": [{"scriptPubKey": {"type": "nulldata", "hex": "6a4c50000077ec00010bfa2521b752ef3a7ce7766b7af8e8e963c7cfd5b95b23cc0f42c2fc38c503919c38a803afc4f4de078971a44a4f5baa17a3061336a77aa18b181d100759d4ba30d2c37bb011d97e02cf", "asm": "OP_RETURN 000077ec00010bfa2521b752ef3a7ce7766b7af8e8e963c7cfd5b95b23cc0f42c2fc38c503919c38a803afc4f4de078971a44a4f5baa17a3061336a77aa18b181d100759d4ba30d2c37bb011d97e02cf"}, "value": 0.0, "n": 0}, {"scriptPubKey": {"reqSigs": 1, "hex": "76a9141ae6a7444fc8f45572bd7bcb9ecec1fdaf70046688ac", "addresses": ["13TEt4pPyvCQg9NxGCHqsFdRUthHL4h9oi"], "asm": "OP_DUP OP_HASH160 1ae6a7444fc8f45572bd7bcb9ecec1fdaf700466 OP_EQUALVERIFY OP_CHECKSIG", "type": "pubkeyhash"}, "value": 0.00635106, "n": 1}], "hex": "01000000018f98f2ac6e1548f7e287f5504298606bcb6495e4abbec72938993669ae866c0c000000006a47304402206f5a6a807e41d0b229ff658daaa24b941bccdd4176e26862f4ca523ac9cb9b840220134e72711bbea769214f4a1bf375819fac2a47b621f163d1ed52b61cb172a3ca012102ee932e935d2206bbfc094d62da3c69d1d5824e344f8d9604ee49d422b9126afaffffffff020000000000000000536a4c50000077ec00010bfa2521b752ef3a7ce7766b7af8e8e963c7cfd5b95b23cc0f42c2fc38c503919c38a803afc4f4de078971a44a4f5baa17a3061336a77aa18b181d100759d4ba30d2c37bb011d97e02cfe2b00900000000001976a9141ae6a7444fc8f45572bd7bcb9ecec1fdaf70046688ac00000000", "vin": [{"sequence": 4294967295, "scriptSig": {"hex": "47304402206f5a6a807e41d0b229ff658daaa24b941bccdd4176e26862f4ca523ac9cb9b840220134e72711bbea769214f4a1bf375819fac2a47b621f163d1ed52b61cb172a3ca012102ee932e935d2206bbfc094d62da3c69d1d5824e344f8d9604ee49d422b9126afa", "asm": "304402206f5a6a807e41d0b229ff658daaa24b941bccdd4176e26862f4ca523ac9cb9b840220134e72711bbea769214f4a1bf375819fac2a47b621f163d1ed52b61cb172a3ca[ALL] 02ee932e935d2206bbfc094d62da3c69d1d5824e344f8d9604ee49d422b9126afa"}, "vout": 0, "txid": "0c6c86ae6936993829c7beabe49564cb6b60984250f587e2f748156eacf2988f"}], "txid": "75e6becef37b24a85a5de929c94195b4f99106fbaba7d2a999c3f1f50748f5c5", "blocktime": 1537873891, "version": 1, "confirmations": 11478, "time": 1537873891, "locktime": 0, "vsize": 283, "size": 283}