{"hash": "75ea9a399ad21a48e73c254bc99c8ff27da2347363043dd574db20bb31f8e6df", "blockhash": "0000000000000000001f76057863aec43deb6fa401d9628bb513d65a8098bfab", "vout": [{"scriptPubKey": {"reqSigs": 1, "hex": "76a914a1717f8b5e43fe3e2a5877678f6b698a60316df488ac", "addresses": ["1FidkszxWZGy8iHEn2WwkySxR5PmhaSsSe"], "asm": "OP_DUP OP_HASH160 a1717f8b5e43fe3e2a5877678f6b698a60316df4 OP_EQUALVERIFY OP_CHECKSIG", "type": "pubkeyhash"}, "value": 0.00998497, "n": 0}, {"scriptPubKey": {"reqSigs": 1, "hex": "76a914448c90b74e3e7da1b3a54defa76fd2193c6fe31b88ac", "addresses": ["17FTLhAfE4teEA1nFPDh84657ed4dGmwZK"], "asm": "OP_DUP OP_HASH160 448c90b74e3e7da1b3a54defa76fd2193c6fe31b OP_EQUALVERIFY OP_CHECKSIG", "type": "pubkeyhash"}, "value": 0.02071385, "n": 1}], "hex": "020000000343dfbef1a441a1e08795de99cf468cb1f2ec0702104383b47c4c196e82f7532e000000006a473044022005e6cc7a9e14921451d66aebd6a11e407b140fd293225d85f4dfc2cafcf2bb2c022042f8c427b3c5941eac75c49b89e9f0e04a2c55f6d4ca893c3169b4a5e051d8170121036fd4bda3303adbb2708f0c4d678c4c63627634a11e2a49e03e627599939a0781feffffffc6450c4fcf2b9c73c2721186daea414791d61ad890fcd83c0887688ea51c3975000000006b483045022100cda9340d996baf9952c5bd7f5e517ec7cfb6f3845b794707ec33e4f2747731430220601b3e5503f29df9b6e5ed0a76df7a444b9cb1ef0048dc82119afb009ec371cc01210310cd53af9a94e2231b563bb29df11f509627be57214b3f7619309fbd1e391e0cfeffffff86b00b11efb9656218d8f99b68e6d71241194499bd1333809c1f2b18d4b2bc81000000006a473044022042c07fbd9006770dbb8da9af94e11446ea7809da3464a9c12a3e9e6486a0631202206801f330876fca3b8a0d29de7a1f8b7e7d5b2cdcb95d6652335c6b2ef5606263012102f17856c587747a9be8c99510f5437138615981253cd9decaa0d8a2eb35f1d05cfeffffff02613c0f00000000001976a914a1717f8b5e43fe3e2a5877678f6b698a60316df488ac599b1f00000000001976a914448c90b74e3e7da1b3a54defa76fd2193c6fe31b88ac13490800", "vin": [{"sequence": 4294967294, "scriptSig": {"hex": "473044022005e6cc7a9e14921451d66aebd6a11e407b140fd293225d85f4dfc2cafcf2bb2c022042f8c427b3c5941eac75c49b89e9f0e04a2c55f6d4ca893c3169b4a5e051d8170121036fd4bda3303adbb2708f0c4d678c4c63627634a11e2a49e03e627599939a0781", "asm": "3044022005e6cc7a9e14921451d66aebd6a11e407b140fd293225d85f4dfc2cafcf2bb2c022042f8c427b3c5941eac75c49b89e9f0e04a2c55f6d4ca893c3169b4a5e051d817[ALL] 036fd4bda3303adbb2708f0c4d678c4c63627634a11e2a49e03e627599939a0781"}, "vout": 0, "txid": "2e53f7826e194c7cb48343100207ecf2b18c46cf99de9587e0a141a4f1bedf43"}, {"sequence": 4294967294, "scriptSig": {"hex": "483045022100cda9340d996baf9952c5bd7f5e517ec7cfb6f3845b794707ec33e4f2747731430220601b3e5503f29df9b6e5ed0a76df7a444b9cb1ef0048dc82119afb009ec371cc01210310cd53af9a94e2231b563bb29df11f509627be57214b3f7619309fbd1e391e0c", "asm": "3045022100cda9340d996baf9952c5bd7f5e517ec7cfb6f3845b794707ec33e4f2747731430220601b3e5503f29df9b6e5ed0a76df7a444b9cb1ef0048dc82119afb009ec371cc[ALL] 0310cd53af9a94e2231b563bb29df11f509627be57214b3f7619309fbd1e391e0c"}, "vout": 0, "txid": "75391ca58e6887083cd8fc90d81ad6914741eada861172c2739c2bcf4f0c45c6"}, {"sequence": 4294967294, "scriptSig": {"hex": "473044022042c07fbd9006770dbb8da9af94e11446ea7809da3464a9c12a3e9e6486a0631202206801f330876fca3b8a0d29de7a1f8b7e7d5b2cdcb95d6652335c6b2ef5606263012102f17856c587747a9be8c99510f5437138615981253cd9decaa0d8a2eb35f1d05c", "asm": "3044022042c07fbd9006770dbb8da9af94e11446ea7809da3464a9c12a3e9e6486a0631202206801f330876fca3b8a0d29de7a1f8b7e7d5b2cdcb95d6652335c6b2ef5606263[ALL] 02f17856c587747a9be8c99510f5437138615981253cd9decaa0d8a2eb35f1d05c"}, "vout": 0, "txid": "81bcb2d4182b1f9c803313bd9944194112d7e6689bf9d8186265b9ef110bb086"}], "txid": "75ea9a399ad21a48e73c254bc99c8ff27da2347363043dd574db20bb31f8e6df", "blocktime": 1537873891, "version": 2, "confirmations": 11478, "time": 1537873891, "locktime": 542995, "vsize": 520, "size": 520}