{"hash": "75ec6cd2be1104be0dc2be8645f5c7afb0d4950e9255834cb890bfe3d3f441d5", "blockhash": "000000000000000000022b45ed06c6f4ccd3cf7fb5ba4856ebd2e58215665228", "vout": [{"scriptPubKey": {"reqSigs": 1, "hex": "76a914d243e6abb9a60fbff430b421d2df4b7d59ec186088ac", "addresses": ["1LAnF8h3qMGx3TSwNUHVneBZUEpwE4gu3D"], "asm": "OP_DUP OP_HASH160 d243e6abb9a60fbff430b421d2df4b7d59ec1860 OP_EQUALVERIFY OP_CHECKSIG", "type": "pubkeyhash"}, "value": 0.00076972, "n": 0}, {"scriptPubKey": {"reqSigs": 1, "hex": "76a9143851f34d13937b673a7d24a1950bb5b21ce94af388ac", "addresses": ["168o1kqNquEJeR9vosUB5fw4eAwcVAgh8P"], "asm": "OP_DUP OP_HASH160 3851f34d13937b673a7d24a1950bb5b21ce94af3 OP_EQUALVERIFY OP_CHECKSIG", "type": "pubkeyhash"}, "value": 5.46e-06, "n": 1}, {"scriptPubKey": {"type": "nulldata", "hex": "6a146f6d6e69000000000000001f0000001365112100", "asm": "OP_RETURN 6f6d6e69000000000000001f0000001365112100"}, "value": 0.0, "n": 2}], "hex": "0100000002c73014cb7b29ac1696c425520e136057314d58d8634aeab1d6111a7cb0e7e158010000006a47304402200463f1a19677068e605e9b9e06ad5388f3039b2569293125f2a3324cb4aa13fb022013111f45178dbbf08e070f74628511a9e3a4650330b4f7c6e374a4a4e37db7ae0121024554941fe7b7b1321a55f12a53df528e59dac0c82cc971de8d8a6b72cba3855bffffffffd5a1a490faf7b126f4a4ac4221c62fd8008ae0d915f445715f5ebf9b4242ecb7000000006b483045022100b08a355e36b0f167bc5d9e35c6033a0877b5d21a6346b875ec1bb47a089e9cc90220479555d0d36082cd1cd7d7cbc4d065222dbbbdb5d8436cb2e283dda7d15124ce01210271977291b74f1f5f5c42157e8aae804664eaaeccfd097918450d37f28fb94d77ffffffff03ac2c0100000000001976a914d243e6abb9a60fbff430b421d2df4b7d59ec186088ac22020000000000001976a9143851f34d13937b673a7d24a1950bb5b21ce94af388ac0000000000000000166a146f6d6e69000000000000001f000000136511210000000000", "vin": [{"sequence": 4294967295, "scriptSig": {"hex": "47304402200463f1a19677068e605e9b9e06ad5388f3039b2569293125f2a3324cb4aa13fb022013111f45178dbbf08e070f74628511a9e3a4650330b4f7c6e374a4a4e37db7ae0121024554941fe7b7b1321a55f12a53df528e59dac0c82cc971de8d8a6b72cba3855b", "asm": "304402200463f1a19677068e605e9b9e06ad5388f3039b2569293125f2a3324cb4aa13fb022013111f45178dbbf08e070f74628511a9e3a4650330b4f7c6e374a4a4e37db7ae[ALL] 024554941fe7b7b1321a55f12a53df528e59dac0c82cc971de8d8a6b72cba3855b"}, "vout": 1, "txid": "58e1e7b07c1a11d6b1ea4a63d8584d315760130e5225c49616ac297bcb1430c7"}, {"sequence": 4294967295, "scriptSig": {"hex": "483045022100b08a355e36b0f167bc5d9e35c6033a0877b5d21a6346b875ec1bb47a089e9cc90220479555d0d36082cd1cd7d7cbc4d065222dbbbdb5d8436cb2e283dda7d15124ce01210271977291b74f1f5f5c42157e8aae804664eaaeccfd097918450d37f28fb94d77", "asm": "3045022100b08a355e36b0f167bc5d9e35c6033a0877b5d21a6346b875ec1bb47a089e9cc90220479555d0d36082cd1cd7d7cbc4d065222dbbbdb5d8436cb2e283dda7d15124ce[ALL] 0271977291b74f1f5f5c42157e8aae804664eaaeccfd097918450d37f28fb94d77"}, "vout": 0, "txid": "b7ec42429bbf5e5f7145f415d9e08a00d82fc62142aca4f426b1f7fa90a4a1d5"}], "txid": "75ec6cd2be1104be0dc2be8645f5c7afb0d4950e9255834cb890bfe3d3f441d5", "blocktime": 1537869901, "version": 1, "confirmations": 11522, "time": 1537869901, "locktime": 0, "vsize": 404, "size": 404}