{"hash": "75f1dfa7faf9751c4e34aff0d610d2265051e7d3b07768bc9056052809681169", "blockhash": "000000000000000000022b45ed06c6f4ccd3cf7fb5ba4856ebd2e58215665228", "vout": [{"scriptPubKey": {"reqSigs": 1, "hex": "76a91436d079c2b10e6ebdf58d63a81e76826e4b20971388ac", "addresses": ["15zqEVxowU15DXZgxJgZV96XuNVTczmHFs"], "asm": "OP_DUP OP_HASH160 36d079c2b10e6ebdf58d63a81e76826e4b209713 OP_EQUALVERIFY OP_CHECKSIG", "type": "pubkeyhash"}, "value": 0.00088423, "n": 0}, {"scriptPubKey": {"reqSigs": 1, "hex": "76a9140932ab06c0fb373f8dc6c44d3f738b712399081a88ac", "addresses": ["1qdnCwP94Q5HfuMWrYfymKSBy8cohDRg3"], "asm": "OP_DUP OP_HASH160 0932ab06c0fb373f8dc6c44d3f738b712399081a OP_EQUALVERIFY OP_CHECKSIG", "type": "pubkeyhash"}, "value": 0.094, "n": 1}], "hex": "0100000002834b01071b7ddc9931ad1a54bf2a0c4050be7966c710d01aacce7530f5d41b7b000000006b4830450221008a8cf834b08a1b36d7c4f9502ef748a8ad71dc16ce8bc65a4252c860c450161b02200368331005d1215a83923e1264cac012629d3934df54552630a199b42810488f012102a217bd81d3239be993756fd7d5defbe527594f75236b0934095b2e6cbeffe5afffffffffb9b5fa78bc875c1b28eb356a9ec8790c44a625c35b64631154e2b43721cdead8010000006a47304402205e099126c97a0979bf87bb01fac364ef4154cc88b41f88e1095739d857dd2c15022028a2a6cbb879839bb3950554e3abacd5b76eb571b20e9cb80a6eaf6d71c0f3e9012102f586e7673ccd5c2fdc29d4369bcee1621ac4511833deadaedce0969bba0122d2ffffffff0267590100000000001976a91436d079c2b10e6ebdf58d63a81e76826e4b20971388acc06e8f00000000001976a9140932ab06c0fb373f8dc6c44d3f738b712399081a88ac00000000", "vin": [{"sequence": 4294967295, "scriptSig": {"hex": "4830450221008a8cf834b08a1b36d7c4f9502ef748a8ad71dc16ce8bc65a4252c860c450161b02200368331005d1215a83923e1264cac012629d3934df54552630a199b42810488f012102a217bd81d3239be993756fd7d5defbe527594f75236b0934095b2e6cbeffe5af", "asm": "30450221008a8cf834b08a1b36d7c4f9502ef748a8ad71dc16ce8bc65a4252c860c450161b02200368331005d1215a83923e1264cac012629d3934df54552630a199b42810488f[ALL] 02a217bd81d3239be993756fd7d5defbe527594f75236b0934095b2e6cbeffe5af"}, "vout": 0, "txid": "7b1bd4f53075ceac1ad010c76679be50400c2abf541aad3199dc7d1b07014b83"}, {"sequence": 4294967295, "scriptSig": {"hex": "47304402205e099126c97a0979bf87bb01fac364ef4154cc88b41f88e1095739d857dd2c15022028a2a6cbb879839bb3950554e3abacd5b76eb571b20e9cb80a6eaf6d71c0f3e9012102f586e7673ccd5c2fdc29d4369bcee1621ac4511833deadaedce0969bba0122d2", "asm": "304402205e099126c97a0979bf87bb01fac364ef4154cc88b41f88e1095739d857dd2c15022028a2a6cbb879839bb3950554e3abacd5b76eb571b20e9cb80a6eaf6d71c0f3e9[ALL] 02f586e7673ccd5c2fdc29d4369bcee1621ac4511833deadaedce0969bba0122d2"}, "vout": 1, "txid": "d8eacd2137b4e2541163645bc325a6440c79c89e6a35eb281b5c87bc78fab5b9"}], "txid": "75f1dfa7faf9751c4e34aff0d610d2265051e7d3b07768bc9056052809681169", "blocktime": 1537869901, "version": 1, "confirmations": 11524, "time": 1537869901, "locktime": 0, "vsize": 373, "size": 373}