{"hash": "75f197c31ac23b9cb595c8becd9090dae06be8ac29e6c9711fb4e9daf63a1009", "blockhash": "0000000000000000000e13cef7c366c0283d82e591d1acd082e914b08063cdf1", "vout": [{"scriptPubKey": {"reqSigs": 1, "hex": "76a914889c25a506d46e7ecd1e7f7b028f15efcbe0fbcc88ac", "addresses": ["1DTKxNpHvuPkG8ii5s2aRjreXqPWtT4Y32"], "asm": "OP_DUP OP_HASH160 889c25a506d46e7ecd1e7f7b028f15efcbe0fbcc OP_EQUALVERIFY OP_CHECKSIG", "type": "pubkeyhash"}, "value": 0.00360801, "n": 0}, {"scriptPubKey": {"reqSigs": 1, "hex": "76a9148e0783bdc17115a91c9a657e486b04e93318531388ac", "addresses": ["1DwyxN94ttnTtbfu8D4RJjFX9ryJpU2N6D"], "asm": "OP_DUP OP_HASH160 8e0783bdc17115a91c9a657e486b04e933185313 OP_EQUALVERIFY OP_CHECKSIG", "type": "pubkeyhash"}, "value": 0.03702922, "n": 1}], "hex": "0100000001e66224cf6744c8c9b5b789709d2886000753eb21c8109dc84ad912ead10b2c9a010000006a473044022056040829b29d673a3025aa1a05177643ea30ed9ac3363116b1864e74121bcf24022055cf41b45f4e4726a46e6c8b380f9493aed23c9c05eddbc56a40cf08872051840121025766f4fb81f3edf918dfa75b7f77352df74193384c5f25623e308a5db04f3244ffffffff0261810500000000001976a914889c25a506d46e7ecd1e7f7b028f15efcbe0fbcc88ac8a803800000000001976a9148e0783bdc17115a91c9a657e486b04e93318531388ac00000000", "vin": [{"sequence": 4294967295, "scriptSig": {"hex": "473044022056040829b29d673a3025aa1a05177643ea30ed9ac3363116b1864e74121bcf24022055cf41b45f4e4726a46e6c8b380f9493aed23c9c05eddbc56a40cf08872051840121025766f4fb81f3edf918dfa75b7f77352df74193384c5f25623e308a5db04f3244", "asm": "3044022056040829b29d673a3025aa1a05177643ea30ed9ac3363116b1864e74121bcf24022055cf41b45f4e4726a46e6c8b380f9493aed23c9c05eddbc56a40cf0887205184[ALL] 025766f4fb81f3edf918dfa75b7f77352df74193384c5f25623e308a5db04f3244"}, "vout": 1, "txid": "9a2c0bd1ea12d94ac89d10c821eb53070086289d7089b7b5c9c84467cf2462e6"}], "txid": "75f197c31ac23b9cb595c8becd9090dae06be8ac29e6c9711fb4e9daf63a1009", "blocktime": 1537871767, "version": 1, "confirmations": 11495, "time": 1537871767, "locktime": 0, "vsize": 225, "size": 225}