{"hash": "75f9d1dce9bac9ab36f98790ee0151b4e00309ab1bbd4ac525fd85c584d833e1", "blockhash": "0000000000000000000dcc0f55137456b1a82d3642486a52398922ac4d620174", "vout": [{"scriptPubKey": {"reqSigs": 1, "hex": "a9143a46ca597b36abd886f17fe09d46085090e8e15c87", "addresses": ["3719vGucGpqrrBvuNPEk6ijDsuA6KnaavS"], "asm": "OP_HASH160 3a46ca597b36abd886f17fe09d46085090e8e15c OP_EQUAL", "type": "scripthash"}, "value": 0.15615167, "n": 0}, {"scriptPubKey": {"reqSigs": 1, "hex": "76a914183df106c3658e42a88068489ee808ecc5f9a1fc88ac", "addresses": ["13DBRNn38GhZ4ptNm94JGBtEXkP8Yp3scf"], "asm": "OP_DUP OP_HASH160 183df106c3658e42a88068489ee808ecc5f9a1fc OP_EQUALVERIFY OP_CHECKSIG", "type": "pubkeyhash"}, "value": 0.64381491, "n": 1}], "hex": "010000000154440cbe10db63b70915a6d77c0a2baf7e455a36208801952bdb56832247ced3000000006a473044022073f05cab97baeaec1e8036d72a5fb11dd9e80717a6127f7b655f1ff483397a5e02205e1117fbc1957211e0d2d46d71abfbea1184ff9daf5cd9d5f91ca3e5e5e1a787012103b0af0a143fa316fcb9641fabae35ec83279896d0c5e82d7edf740e8d06f3eeddffffffff02bf44ee000000000017a9143a46ca597b36abd886f17fe09d46085090e8e15c873362d603000000001976a914183df106c3658e42a88068489ee808ecc5f9a1fc88ac00000000", "vin": [{"sequence": 4294967295, "scriptSig": {"hex": "473044022073f05cab97baeaec1e8036d72a5fb11dd9e80717a6127f7b655f1ff483397a5e02205e1117fbc1957211e0d2d46d71abfbea1184ff9daf5cd9d5f91ca3e5e5e1a787012103b0af0a143fa316fcb9641fabae35ec83279896d0c5e82d7edf740e8d06f3eedd", "asm": "3044022073f05cab97baeaec1e8036d72a5fb11dd9e80717a6127f7b655f1ff483397a5e02205e1117fbc1957211e0d2d46d71abfbea1184ff9daf5cd9d5f91ca3e5e5e1a787[ALL] 03b0af0a143fa316fcb9641fabae35ec83279896d0c5e82d7edf740e8d06f3eedd"}, "vout": 0, "txid": "d3ce47228356db2b95018820365a457eaf2b0a7cd7a61509b763db10be0c4454"}], "txid": "75f9d1dce9bac9ab36f98790ee0151b4e00309ab1bbd4ac525fd85c584d833e1", "blocktime": 1537870268, "version": 1, "confirmations": 11516, "time": 1537870268, "locktime": 0, "vsize": 223, "size": 223}