{"hash": "75fc1f4ea24dcfd5c63ceb1276f30889e761615e61613f5f07baedb567852021", "blockhash": "0000000000000000001f76057863aec43deb6fa401d9628bb513d65a8098bfab", "vout": [{"scriptPubKey": {"reqSigs": 1, "hex": "76a9144218d3aed9ec234c65852391c7257ed526ef78a088ac", "addresses": ["172VLfTouK6tBm96itC9upd7sVzVupNXNW"], "asm": "OP_DUP OP_HASH160 4218d3aed9ec234c65852391c7257ed526ef78a0 OP_EQUALVERIFY OP_CHECKSIG", "type": "pubkeyhash"}, "value": 0.002318, "n": 0}, {"scriptPubKey": {"reqSigs": 1, "hex": "76a914d4d17d7e0303fcb98907984bb96df1903632358588ac", "addresses": ["1LQHDJYxTHFUFzNgRQrYiVzZ931odM3gTu"], "asm": "OP_DUP OP_HASH160 d4d17d7e0303fcb98907984bb96df19036323585 OP_EQUALVERIFY OP_CHECKSIG", "type": "pubkeyhash"}, "value": 0.01280224, "n": 1}], "hex": "010000000194987e7eabd0f877f4ec54e6eccb94cef32ed1d829cbb7372c39f16b4df6e1dc010000006b483045022100d57fbb811ae3e27e6e1ef3996f67fbea165768df10d0d90cc2f5c6df0fb7ea6f02206ef619c9a7eaae1c17176997798cf83fdb5ed62f4c53cafffc422f4330a99a7d0121030e89876e01ea30b482b1c109aa1f1f5574f1dd14cf8b0c05261e5a329c794e1fffffffff0278890300000000001976a9144218d3aed9ec234c65852391c7257ed526ef78a088ace0881300000000001976a914d4d17d7e0303fcb98907984bb96df1903632358588ac00000000", "vin": [{"sequence": 4294967295, "scriptSig": {"hex": "483045022100d57fbb811ae3e27e6e1ef3996f67fbea165768df10d0d90cc2f5c6df0fb7ea6f02206ef619c9a7eaae1c17176997798cf83fdb5ed62f4c53cafffc422f4330a99a7d0121030e89876e01ea30b482b1c109aa1f1f5574f1dd14cf8b0c05261e5a329c794e1f", "asm": "3045022100d57fbb811ae3e27e6e1ef3996f67fbea165768df10d0d90cc2f5c6df0fb7ea6f02206ef619c9a7eaae1c17176997798cf83fdb5ed62f4c53cafffc422f4330a99a7d[ALL] 030e89876e01ea30b482b1c109aa1f1f5574f1dd14cf8b0c05261e5a329c794e1f"}, "vout": 1, "txid": "dce1f64d6bf1392c37b7cb29d8d12ef3ce94cbece654ecf477f8d0ab7e7e9894"}], "txid": "75fc1f4ea24dcfd5c63ceb1276f30889e761615e61613f5f07baedb567852021", "blocktime": 1537873891, "version": 1, "confirmations": 11475, "time": 1537873891, "locktime": 0, "vsize": 226, "size": 226}