{"hash": "76036f7fc16d192fb8e27fa90a010e598a2d4c8c3a8274d8dcb785dd9a649347", "blockhash": "0000000000000000001f0ddff1eddb255c1121bcd4da4f1bc9a0da00cae72433", "vout": [{"scriptPubKey": {"reqSigs": 1, "hex": "a914a4f5236d331c0a531f93371f14a994211db68e7987", "addresses": ["3GjEQWyEWSi6fCeWs7sE2UYUaAFcz6RR4q"], "asm": "OP_HASH160 a4f5236d331c0a531f93371f14a994211db68e79 OP_EQUAL", "type": "scripthash"}, "value": 0.77841133, "n": 0}, {"scriptPubKey": {"reqSigs": 1, "hex": "a91478e7f39a503328a9428089ae66805c97d334502187", "addresses": ["3CiJsqkFcob44mi725EqugCSNCLnYEvtgH"], "asm": "OP_HASH160 78e7f39a503328a9428089ae66805c97d3345021 OP_EQUAL", "type": "scripthash"}, "value": 0.00096658, "n": 1}], "hex": "020000000244959a3f831551f8db6764f92a12daa2ba94cb07450ada889809449cd0058071bc010000fdfd0000483045022100b7da44951e890dae9951a4b4466c53fdd99fe7f8e7ee1b83e898d43e0455dec402201e69f1e90040eb279538c1a6dfaea30fc065d0910123c05f3c524ec8d989e27f01473044022075522e2846689a9373bfa09b031a8584ac39590de37251b56e63b9cd30fa29cb02207c1f1b82f65b0b37452d23547726c9e8104b29ebb288f55534e02dbd3856f5fe014c69522103289a33c1059312e7681eba35284ee2d7b45220873e4abf8d5f742206ecd6617221036b9af06ea81e08add1cd807d074cf0ed6830e06c1c7330926d72de7e032302222103cab580b3d6b07cd427591061ebc9ec376b404b625e24dedf7d9b4b3b02357a8653aeffffffff0fc5b3bd02c0f419eb9b1b7fe111973ce2f131ffb761a94fb27630eda40a9a9001000000fdfd0000483045022100cf6daba64406a60253d640704e0992045f6f52c155e1ae45e7b59d1df524118c02206fff0aecd25b52d943ca2974ca647f999ed95890bb5fe11d2437f1fb3cf4b86f0147304402205888b29a0bf573a64518af721452b2add6be5f6916d60ed04610184801f490df022039682fabb3df36629094802bfbaa7f09bcc91b93f1503e1e7dad40ccfb89a848014c69522103f2639bb17778899daca6fd7d475d46ac7f0ae5df3a5edecb0e48261d5a8e3dbd2103f1778468fa1245610485bed0ee56a79ce700fcba2ad17a9176553730a16cb074210268ed2be94e6890080cf100136a20b2782369a8b5266be284f657894aaa6b8efe53aeffffffff02edc2a3040000000017a914a4f5236d331c0a531f93371f14a994211db68e7987927901000000000017a91478e7f39a503328a9428089ae66805c97d33450218700000000", "vin": [{"sequence": 4294967295, "scriptSig": {"hex": "00483045022100b7da44951e890dae9951a4b4466c53fdd99fe7f8e7ee1b83e898d43e0455dec402201e69f1e90040eb279538c1a6dfaea30fc065d0910123c05f3c524ec8d989e27f01473044022075522e2846689a9373bfa09b031a8584ac39590de37251b56e63b9cd30fa29cb02207c1f1b82f65b0b37452d23547726c9e8104b29ebb288f55534e02dbd3856f5fe014c69522103289a33c1059312e7681eba35284ee2d7b45220873e4abf8d5f742206ecd6617221036b9af06ea81e08add1cd807d074cf0ed6830e06c1c7330926d72de7e032302222103cab580b3d6b07cd427591061ebc9ec376b404b625e24dedf7d9b4b3b02357a8653ae", "asm": "0 3045022100b7da44951e890dae9951a4b4466c53fdd99fe7f8e7ee1b83e898d43e0455dec402201e69f1e90040eb279538c1a6dfaea30fc065d0910123c05f3c524ec8d989e27f[ALL] 3044022075522e2846689a9373bfa09b031a8584ac39590de37251b56e63b9cd30fa29cb02207c1f1b82f65b0b37452d23547726c9e8104b29ebb288f55534e02dbd3856f5fe[ALL] 522103289a33c1059312e7681eba35284ee2d7b45220873e4abf8d5f742206ecd6617221036b9af06ea81e08add1cd807d074cf0ed6830e06c1c7330926d72de7e032302222103cab580b3d6b07cd427591061ebc9ec376b404b625e24dedf7d9b4b3b02357a8653ae"}, "vout": 444, "txid": "718005d09c44099888da0a4507cb94baa2da122af96467dbf85115833f9a9544"}, {"sequence": 4294967295, "scriptSig": {"hex": "00483045022100cf6daba64406a60253d640704e0992045f6f52c155e1ae45e7b59d1df524118c02206fff0aecd25b52d943ca2974ca647f999ed95890bb5fe11d2437f1fb3cf4b86f0147304402205888b29a0bf573a64518af721452b2add6be5f6916d60ed04610184801f490df022039682fabb3df36629094802bfbaa7f09bcc91b93f1503e1e7dad40ccfb89a848014c69522103f2639bb17778899daca6fd7d475d46ac7f0ae5df3a5edecb0e48261d5a8e3dbd2103f1778468fa1245610485bed0ee56a79ce700fcba2ad17a9176553730a16cb074210268ed2be94e6890080cf100136a20b2782369a8b5266be284f657894aaa6b8efe53ae", "asm": "0 3045022100cf6daba64406a60253d640704e0992045f6f52c155e1ae45e7b59d1df524118c02206fff0aecd25b52d943ca2974ca647f999ed95890bb5fe11d2437f1fb3cf4b86f[ALL] 304402205888b29a0bf573a64518af721452b2add6be5f6916d60ed04610184801f490df022039682fabb3df36629094802bfbaa7f09bcc91b93f1503e1e7dad40ccfb89a848[ALL] 522103f2639bb17778899daca6fd7d475d46ac7f0ae5df3a5edecb0e48261d5a8e3dbd2103f1778468fa1245610485bed0ee56a79ce700fcba2ad17a9176553730a16cb074210268ed2be94e6890080cf100136a20b2782369a8b5266be284f657894aaa6b8efe53ae"}, "vout": 1, "txid": "909a0aa4ed3076b24fa961b7ff31f1e23c9711e17f1b9beb19f4c002bdb3c50f"}], "txid": "76036f7fc16d192fb8e27fa90a010e598a2d4c8c3a8274d8dcb785dd9a649347", "blocktime": 1537872018, "version": 2, "confirmations": 11489, "time": 1537872018, "locktime": 0, "vsize": 666, "size": 666}