{"hash": "7606412e26cf34cf2eca934044f37af126d65a8e61e854fed3d5bd47a084555e", "blockhash": "00000000000000000004ffacab907a6b429b9a5745fa0b75af4234bf69dd7176", "vout": [{"scriptPubKey": {"reqSigs": 1, "hex": "76a91449c5ec82eed4c61a611212da49ed21c7b99f973388ac", "addresses": ["17j5RzjWs1ZLtQ51TCJY623mKAri8EAaQd"], "asm": "OP_DUP OP_HASH160 49c5ec82eed4c61a611212da49ed21c7b99f9733 OP_EQUALVERIFY OP_CHECKSIG", "type": "pubkeyhash"}, "value": 0.00023573, "n": 0}, {"scriptPubKey": {"reqSigs": 1, "hex": "76a914bbbe095dd5440f82175f440b1252e271cc5dcc6d88ac", "addresses": ["1J7h1r4dQ8bQyH9Nq1jrKdyheoqCLJXseE"], "asm": "OP_DUP OP_HASH160 bbbe095dd5440f82175f440b1252e271cc5dcc6d OP_EQUALVERIFY OP_CHECKSIG", "type": "pubkeyhash"}, "value": 0.129, "n": 1}], "hex": "0100000002ea7a9560922039334610a7ea32107336ea0f63a2bf76772961057bd952e7bc15000000006a47304402203aff1b31a6495f2abd19aaa0316492a26e52edecbcd0e7de48db2e31172f61ea0220345572bf75aa9021bfca07140f55bd5cead7a3733431bf1ce51e48380be4378a012102e9ad71e5ac5ca1b7d37de447e0ecf9b214ca289fe61141feaa7e876431a99780ffffffffc15da8e9e41fce13fbda3fc03956076e1fe1ac9bd9c6d0792e78ca4736bd12de000000006b483045022100ef1c1695933477e0297a42440af2a3e31f943dd79b885b596f65eea96ac2cc68022025815e972c9acf7ec2f78e83c53739296309e652d80059ea0388fb63431548e901210388bfc69024670d4ff3d5023cc6826fe0986db1704cf6926daaa88afe3df231d7ffffffff02155c0000000000001976a91449c5ec82eed4c61a611212da49ed21c7b99f973388aca0d6c400000000001976a914bbbe095dd5440f82175f440b1252e271cc5dcc6d88ac00000000", "vin": [{"sequence": 4294967295, "scriptSig": {"hex": "47304402203aff1b31a6495f2abd19aaa0316492a26e52edecbcd0e7de48db2e31172f61ea0220345572bf75aa9021bfca07140f55bd5cead7a3733431bf1ce51e48380be4378a012102e9ad71e5ac5ca1b7d37de447e0ecf9b214ca289fe61141feaa7e876431a99780", "asm": "304402203aff1b31a6495f2abd19aaa0316492a26e52edecbcd0e7de48db2e31172f61ea0220345572bf75aa9021bfca07140f55bd5cead7a3733431bf1ce51e48380be4378a[ALL] 02e9ad71e5ac5ca1b7d37de447e0ecf9b214ca289fe61141feaa7e876431a99780"}, "vout": 0, "txid": "15bce752d97b0561297776bfa2630fea36731032eaa710463339209260957aea"}, {"sequence": 4294967295, "scriptSig": {"hex": "483045022100ef1c1695933477e0297a42440af2a3e31f943dd79b885b596f65eea96ac2cc68022025815e972c9acf7ec2f78e83c53739296309e652d80059ea0388fb63431548e901210388bfc69024670d4ff3d5023cc6826fe0986db1704cf6926daaa88afe3df231d7", "asm": "3045022100ef1c1695933477e0297a42440af2a3e31f943dd79b885b596f65eea96ac2cc68022025815e972c9acf7ec2f78e83c53739296309e652d80059ea0388fb63431548e9[ALL] 0388bfc69024670d4ff3d5023cc6826fe0986db1704cf6926daaa88afe3df231d7"}, "vout": 0, "txid": "de12bd3647ca782e79d0c6d99bace11f6e075639c03fdafb13ce1fe4e9a85dc1"}], "txid": "7606412e26cf34cf2eca934044f37af126d65a8e61e854fed3d5bd47a084555e", "blocktime": 1537875543, "version": 1, "confirmations": 11464, "time": 1537875543, "locktime": 0, "vsize": 373, "size": 373}