{"hash": "760a0d665a48d1598c0afc875706fdba31c2d3542430cbbf58a562fdc3692f82", "blockhash": "0000000000000000000baef3f32e3676a92c3b2e5da21b426e4f302fc371ce76", "vout": [{"scriptPubKey": {"type": "nulldata", "hex": "6a4c500000781b000128908399d77f7b950f34295b019d6ddc0f1b8ff117702940d64fa54d8eb2a558e43537d405c70834c5fda340e3235baa1cdf0613fc9e2cf86eb81d100759d4ba30d2c37bb011d97e02cf", "asm": "OP_RETURN 0000781b000128908399d77f7b950f34295b019d6ddc0f1b8ff117702940d64fa54d8eb2a558e43537d405c70834c5fda340e3235baa1cdf0613fc9e2cf86eb81d100759d4ba30d2c37bb011d97e02cf"}, "value": 0.0, "n": 0}, {"scriptPubKey": {"reqSigs": 1, "hex": "76a9144bc097c8aa849e139a785bf05d79fd7494e4537f88ac", "addresses": ["17uYPyfW7pdurgRDPmZsEhQcW9iCQ8kSXy"], "asm": "OP_DUP OP_HASH160 4bc097c8aa849e139a785bf05d79fd7494e4537f OP_EQUALVERIFY OP_CHECKSIG", "type": "pubkeyhash"}, "value": 0.00628659, "n": 1}], "hex": "0100000001418b903bc0d154f4ac2e3d9a90d7ffa2e016349ed963c0a406557045a0f8ba11000000006a47304402202db803c95e58826a642557815949e5a066b64c93c9cae9ae4f74555bfb9903cb02204ef721ba1f56758ef66c748e0b9dbeae7928d79d08b7b3e408153ea957fc950701210233b39e195d54558f9f8a796e58e494a962351294c94fa8984b11c865868d3333ffffffff020000000000000000536a4c500000781b000128908399d77f7b950f34295b019d6ddc0f1b8ff117702940d64fa54d8eb2a558e43537d405c70834c5fda340e3235baa1cdf0613fc9e2cf86eb81d100759d4ba30d2c37bb011d97e02cfb3970900000000001976a9144bc097c8aa849e139a785bf05d79fd7494e4537f88ac00000000", "vin": [{"sequence": 4294967295, "scriptSig": {"hex": "47304402202db803c95e58826a642557815949e5a066b64c93c9cae9ae4f74555bfb9903cb02204ef721ba1f56758ef66c748e0b9dbeae7928d79d08b7b3e408153ea957fc950701210233b39e195d54558f9f8a796e58e494a962351294c94fa8984b11c865868d3333", "asm": "304402202db803c95e58826a642557815949e5a066b64c93c9cae9ae4f74555bfb9903cb02204ef721ba1f56758ef66c748e0b9dbeae7928d79d08b7b3e408153ea957fc9507[ALL] 0233b39e195d54558f9f8a796e58e494a962351294c94fa8984b11c865868d3333"}, "vout": 0, "txid": "11baf8a045705506a4c063d99e3416e0a2ffd7909a3d2eacf454d1c03b908b41"}], "txid": "760a0d665a48d1598c0afc875706fdba31c2d3542430cbbf58a562fdc3692f82", "blocktime": 1537876114, "version": 1, "confirmations": 11460, "time": 1537876114, "locktime": 0, "vsize": 283, "size": 283}