{"hash": "b38c9bc8549fde1e065c7c7492835d7b148b3c1e56bf8d2917cc4c2cd5a453dc", "blockhash": "00000000000000000004ffacab907a6b429b9a5745fa0b75af4234bf69dd7176", "vout": [{"scriptPubKey": {"reqSigs": 1, "hex": "76a914e6665295e759b3978c3ddfc8e9743a4343c2de4088ac", "addresses": ["1N1EzcxFT7sp6twa2tU8GE1N3UTjDwLqQa"], "asm": "OP_DUP OP_HASH160 e6665295e759b3978c3ddfc8e9743a4343c2de40 OP_EQUALVERIFY OP_CHECKSIG", "type": "pubkeyhash"}, "value": 7.0, "n": 0}, {"scriptPubKey": {"reqSigs": 1, "hex": "76a914d7da74e61882997d34584a6711a02f101a97001d88ac", "addresses": ["1LgKysrFAyVTcGMFSrmyp1qWPFv5HbLvVE"], "asm": "OP_DUP OP_HASH160 d7da74e61882997d34584a6711a02f101a97001d OP_EQUALVERIFY OP_CHECKSIG", "type": "pubkeyhash"}, "value": 0.00439444, "n": 1}, {"scriptPubKey": {"reqSigs": 1, "hex": "a914ae87a4511787b572c4fc15c854ae855eff22f74d87", "addresses": ["3HbqzV2f3rEhp5bMFTLCURd7ALJMYRK6g2"], "asm": "OP_HASH160 ae87a4511787b572c4fc15c854ae855eff22f74d OP_EQUAL", "type": "scripthash"}, "value": 0.00327594, "n": 2}, {"scriptPubKey": {"reqSigs": 1, "hex": "a914ad9294358f6cb862704a35144db160b17b6ddff787", "addresses": ["3HWnRDMiSiq35maDedYb78CLNdNeCBgNnF"], "asm": "OP_HASH160 ad9294358f6cb862704a35144db160b17b6ddff7 OP_EQUAL", "type": "scripthash"}, "value": 0.00822431, "n": 3}, {"scriptPubKey": {"reqSigs": 1, "hex": "a9146ac33bbd648b6eb5ad3bd3c7e5594d1811091a2387", "addresses": ["3BRXRvranFB8973o9j28mhLb1JKHxDgjre"], "asm": "OP_HASH160 6ac33bbd648b6eb5ad3bd3c7e5594d1811091a23 OP_EQUAL", "type": "scripthash"}, "value": 0.01185, "n": 4}, {"scriptPubKey": {"reqSigs": 1, "hex": "a91433d754c0e40bfcfbba86b00c5466cc7cfbdd15a987", "addresses": ["36R8LntcYGQNHTdAQYFsE7Mi34wmv78n8T"], "asm": "OP_HASH160 33d754c0e40bfcfbba86b00c5466cc7cfbdd15a9 OP_EQUAL", "type": "scripthash"}, "value": 0.00463348, "n": 5}, {"scriptPubKey": {"reqSigs": 1, "hex": "76a914f1635f90399b4dacefad5cb240cd0fa42bbae70388ac", "addresses": ["1P1LtouPAcJkyzADucpWxfr3WsJQi13zFi"], "asm": "OP_DUP OP_HASH160 f1635f90399b4dacefad5cb240cd0fa42bbae703 OP_EQUALVERIFY OP_CHECKSIG", "type": "pubkeyhash"}, "value": 0.1281, "n": 6}, {"scriptPubKey": {"reqSigs": 1, "hex": "76a914bf058f86a1518a4c26ff7f49938fa0735c3afe6488ac", "addresses": ["1JR2j11htFN5mbD1vnWEvqjjW1F5wrktGU"], "asm": "OP_DUP OP_HASH160 bf058f86a1518a4c26ff7f49938fa0735c3afe64 OP_EQUALVERIFY OP_CHECKSIG", "type": "pubkeyhash"}, "value": 0.01426059, "n": 7}, {"scriptPubKey": {"reqSigs": 1, "hex": "a914dcb7e190dd14bbd23f03b4b103bc7c95a7027b5387", "addresses": ["3Mp4s2iaRzFU1b8nw5Tc2kXQaaX5FHjeQ8"], "asm": "OP_HASH160 dcb7e190dd14bbd23f03b4b103bc7c95a7027b53 OP_EQUAL", "type": "scripthash"}, "value": 0.92914639, "n": 8}, {"scriptPubKey": {"reqSigs": 1, "hex": "a914886cea9912fe4cc6b5b04b3bea301665f60f414d87", "addresses": ["3E8NJH16yops2yGpCVcH5ehCWvzBDMUWC9"], "asm": "OP_HASH160 886cea9912fe4cc6b5b04b3bea301665f60f414d OP_EQUAL", "type": "scripthash"}, "value": 0.0167304, "n": 9}, {"scriptPubKey": {"reqSigs": 1, "hex": "76a914b3f974eae79c271652d7dc18ea63905ca091c7ad88ac", "addresses": ["1HQcntqK522i8ymmd4okELoA9jMpT2MEeL"], "asm": "OP_DUP OP_HASH160 b3f974eae79c271652d7dc18ea63905ca091c7ad OP_EQUALVERIFY OP_CHECKSIG", "type": "pubkeyhash"}, "value": 0.00113023, "n": 10}, {"scriptPubKey": {"reqSigs": 1, "hex": "a914ab452ff02354df61a38eb9816b5d7c058727d0c787", "addresses": ["3HJcMZXs2BE9udqCMiiXgXFzo2THxaHNcN"], "asm": "OP_HASH160 ab452ff02354df61a38eb9816b5d7c058727d0c7 OP_EQUAL", "type": "scripthash"}, "value": 0.00152017, "n": 11}, {"scriptPubKey": {"reqSigs": 1, "hex": "a91495ceaf7bb3d737b726a240b854833eb03df99d4f87", "addresses": ["3FM8CtK31gCt9uxV6YSaRuxickqk8ZaATi"], "asm": "OP_HASH160 95ceaf7bb3d737b726a240b854833eb03df99d4f OP_EQUAL", "type": "scripthash"}, "value": 0.00448089, "n": 12}, {"scriptPubKey": {"reqSigs": 1, "hex": "76a9148a7ecf016ed72c6a7754793a0db9f4441d7b1bbf88ac", "addresses": ["1DdJAHoU3USe5SzrqeQW1x1Bsz9TU5Y5PD"], "asm": "OP_DUP OP_HASH160 8a7ecf016ed72c6a7754793a0db9f4441d7b1bbf OP_EQUALVERIFY OP_CHECKSIG", "type": "pubkeyhash"}, "value": 0.0497058, "n": 13}, {"scriptPubKey": {"reqSigs": 1, "hex": "76a9146aa31cae69f6d48c9ea547823c52fae40b61b43688ac", "addresses": ["1Air2ZJjJyMgbtKEbYf1VFhpyhXNGkRX6e"], "asm": "OP_DUP OP_HASH160 6aa31cae69f6d48c9ea547823c52fae40b61b436 OP_EQUALVERIFY OP_CHECKSIG", "type": "pubkeyhash"}, "value": 0.00782455, "n": 14}, {"scriptPubKey": {"reqSigs": 1, "hex": "a91428085e89d49fe04b115fac7d358d139f24a48fc287", "addresses": ["35Lgyj2m77Jtx86GAs8wY4JVhvtGs2RxdL"], "asm": "OP_HASH160 28085e89d49fe04b115fac7d358d139f24a48fc2 OP_EQUAL", "type": "scripthash"}, "value": 0.00618747, "n": 15}, {"scriptPubKey": {"reqSigs": 1, "hex": "a914fab5f273e73dce5be3ec499780c6f60bb423a72187", "addresses": ["3QYepQWdgrkP1cznvy4pjC33qFKCitMMYv"], "asm": "OP_HASH160 fab5f273e73dce5be3ec499780c6f60bb423a721 OP_EQUAL", "type": "scripthash"}, "value": 0.00456894, "n": 16}, {"scriptPubKey": {"reqSigs": 1, "hex": "a914ffc8d232df12e801728f574d59633769b7591d0a87", "addresses": ["3R1Uokhy3haa1zMxjov9ozC9T7PwTmMYRL"], "asm": "OP_HASH160 ffc8d232df12e801728f574d59633769b7591d0a OP_EQUAL", "type": "scripthash"}, "value": 15.80204791, "n": 17}, {"scriptPubKey": {"reqSigs": 1, "hex": "a914b4f155e848a84b7f64b6a05d8cf3a5759e8cab5587", "addresses": ["3JBkfN1McNxLjJWfxhS3QqmK9ocegsJaHE"], "asm": "OP_HASH160 b4f155e848a84b7f64b6a05d8cf3a5759e8cab55 OP_EQUAL", "type": "scripthash"}, "value": 0.00479905, "n": 18}, {"scriptPubKey": {"reqSigs": 1, "hex": "a9149ac01ade566a4e8ad6eb8220198982f6a44642bc87", "addresses": ["3FoG7mizRsDxfpwSVidzHWYpLFCFDBady3"], "asm": "OP_HASH160 9ac01ade566a4e8ad6eb8220198982f6a44642bc OP_EQUAL", "type": "scripthash"}, "value": 0.0106936, "n": 19}, {"scriptPubKey": {"reqSigs": 1, "hex": "a914d1c16283eb33b5fd5d8c0f5995fd6907957e115c87", "addresses": ["3Lp6pFRiB9wNx5UB1AMazaqtQ3UryhiTQT"], "asm": "OP_HASH160 d1c16283eb33b5fd5d8c0f5995fd6907957e115c OP_EQUAL", "type": "scripthash"}, "value": 0.20409818, "n": 20}, {"scriptPubKey": {"reqSigs": 1, "hex": "76a9141609d94fa14b3d41e54e9fbadea971e8e066936288ac", "addresses": ["131XfXr8FK3ZKVNgaoDRwiWdLiWN83JfKf"], "asm": "OP_DUP OP_HASH160 1609d94fa14b3d41e54e9fbadea971e8e0669362 OP_EQUALVERIFY OP_CHECKSIG", "type": "pubkeyhash"}, "value": 0.04514003, "n": 21}, {"scriptPubKey": {"reqSigs": 1, "hex": "a914f89692bd862efa2c448be26d983bce122cd1024287", "addresses": ["3QMRt8LfUevezHmSK5tSjt6pmTg5YgB2a4"], "asm": "OP_HASH160 f89692bd862efa2c448be26d983bce122cd10242 OP_EQUAL", "type": "scripthash"}, "value": 0.00506111, "n": 22}, {"scriptPubKey": {"reqSigs": 1, "hex": "a914e71098535de51fa51f5bdf52dfecd4f5b3adf43f87", "addresses": ["3Nkmtu6FT3gmg4P6HKrsqpLXZiQLUXjGHu"], "asm": "OP_HASH160 e71098535de51fa51f5bdf52dfecd4f5b3adf43f OP_EQUAL", "type": "scripthash"}, "value": 0.0023, "n": 23}, {"scriptPubKey": {"reqSigs": 1, "hex": "a914cf827713b7070f16a0cda6bb92e99b226615d43a87", "addresses": ["3LcE68UwtWd7XRcvdTr5YWto6RPza9sMxL"], "asm": "OP_HASH160 cf827713b7070f16a0cda6bb92e99b226615d43a OP_EQUAL", "type": "scripthash"}, "value": 0.0057, "n": 24}, {"scriptPubKey": {"reqSigs": 1, "hex": "a914cf1e5438e2591709c29354a4964414c45ad76ad787", "addresses": ["3LaA8YjpDGjxDqjCGLuNTR4ZtZT4nJVYaR"], "asm": "OP_HASH160 cf1e5438e2591709c29354a4964414c45ad76ad7 OP_EQUAL", "type": "scripthash"}, "value": 0.00530809, "n": 25}], "hex": "02000000000101211858cbcd5fd86546ded204f71acbf4fee0ffa8d722e13cb5bdd297e80e1e3a2800000017160014536ade71ce1db274587693c8cf980d3faed0bdb0feffffff1a0027b929000000001976a914e6665295e759b3978c3ddfc8e9743a4343c2de4088ac94b40600000000001976a914d7da74e61882997d34584a6711a02f101a97001d88acaaff04000000000017a914ae87a4511787b572c4fc15c854ae855eff22f74d879f8c0c000000000017a914ad9294358f6cb862704a35144db160b17b6ddff787e81412000000000017a9146ac33bbd648b6eb5ad3bd3c7e5594d1811091a2387f41107000000000017a91433d754c0e40bfcfbba86b00c5466cc7cfbdd15a9871077c300000000001976a914f1635f90399b4dacefad5cb240cd0fa42bbae70388ac8bc21500000000001976a914bf058f86a1518a4c26ff7f49938fa0735c3afe6488accfc389050000000017a914dcb7e190dd14bbd23f03b4b103bc7c95a7027b5387508719000000000017a914886cea9912fe4cc6b5b04b3bea301665f60f414d877fb90100000000001976a914b3f974eae79c271652d7dc18ea63905ca091c7ad88acd15102000000000017a914ab452ff02354df61a38eb9816b5d7c058727d0c78759d606000000000017a91495ceaf7bb3d737b726a240b854833eb03df99d4f8754d84b00000000001976a9148a7ecf016ed72c6a7754793a0db9f4441d7b1bbf88ac77f00b00000000001976a9146aa31cae69f6d48c9ea547823c52fae40b61b43688acfb7009000000000017a91428085e89d49fe04b115fac7d358d139f24a48fc287bef806000000000017a914fab5f273e73dce5be3ec499780c6f60bb423a72187f702305e0000000017a914ffc8d232df12e801728f574d59633769b7591d0a87a15207000000000017a914b4f155e848a84b7f64b6a05d8cf3a5759e8cab5587305110000000000017a9149ac01ade566a4e8ad6eb8220198982f6a44642bc87da6d37010000000017a914d1c16283eb33b5fd5d8c0f5995fd6907957e115c87d3e04400000000001976a9141609d94fa14b3d41e54e9fbadea971e8e066936288acffb807000000000017a914f89692bd862efa2c448be26d983bce122cd1024287708203000000000017a914e71098535de51fa51f5bdf52dfecd4f5b3adf43f8790b208000000000017a914cf827713b7070f16a0cda6bb92e99b226615d43a87791908000000000017a914cf1e5438e2591709c29354a4964414c45ad76ad78702483045022100cf78fe08b46fcfd88daf5bfa4d2a7384baca242acea8c93b1cfdc439cd449016022032a8db8bda892d22df4c9e4ca565a7f3f39a2f61b6dbe7033c8d9238ed9317c2012102d803ef60d9c791636e79dea141168a32bd7192a801d6d4841fdc3d3133bcc38815490800", "vin": [{"txinwitness": ["3045022100cf78fe08b46fcfd88daf5bfa4d2a7384baca242acea8c93b1cfdc439cd449016022032a8db8bda892d22df4c9e4ca565a7f3f39a2f61b6dbe7033c8d9238ed9317c201", "02d803ef60d9c791636e79dea141168a32bd7192a801d6d4841fdc3d3133bcc388"], "sequence": 4294967294, "scriptSig": {"hex": "160014536ade71ce1db274587693c8cf980d3faed0bdb0", "asm": "0014536ade71ce1db274587693c8cf980d3faed0bdb0"}, "vout": 40, "txid": "3a1e0ee897d2bdb53ce122d7a8ffe0fef4cb1af704d2de4665d85fcdcb581821"}], "txid": "760a7a11c252696a4031a4662aa777d3574ae3253310b591c075fb8576da21ed", "blocktime": 1537875543, "version": 2, "confirmations": 11464, "time": 1537875543, "locktime": 542997, "vsize": 950, "size": 1032}