{"hash": "760db7288acd3c0e00ff7d3894f3d8bbe4692b51b962d20ae464b5ba06f400bc", "blockhash": "00000000000000000004ffacab907a6b429b9a5745fa0b75af4234bf69dd7176", "vout": [{"scriptPubKey": {"reqSigs": 1, "hex": "a914fb4e8f5dd4951670b22b283bcf5f8c1c5ddbecc687", "addresses": ["3Qboe93Nd2focybicQ8sWoXpWyYTpgo9nB"], "asm": "OP_HASH160 fb4e8f5dd4951670b22b283bcf5f8c1c5ddbecc6 OP_EQUAL", "type": "scripthash"}, "value": 0.0001358, "n": 0}], "hex": "010000000181d2eb3314559ef242dbace7c3ff54ae7fc57b589d2744a6a4b604e8423bf8869f0600006a473044022073e77eee592c84631ed505fa4180c73db80cb6d5ea4bd47f7bcdbd78bd2f993e0220602a97543bf1f0ecdf7fd95a2fef4d6721f5bf56c8ed8547276b30eb2128b109012102792dbc1d3817faf920174645808a06ab7a71a509e369c8287ed68807c0b93783ffffffff010c3500000000000017a914fb4e8f5dd4951670b22b283bcf5f8c1c5ddbecc68700000000", "vin": [{"sequence": 4294967295, "scriptSig": {"hex": "473044022073e77eee592c84631ed505fa4180c73db80cb6d5ea4bd47f7bcdbd78bd2f993e0220602a97543bf1f0ecdf7fd95a2fef4d6721f5bf56c8ed8547276b30eb2128b109012102792dbc1d3817faf920174645808a06ab7a71a509e369c8287ed68807c0b93783", "asm": "3044022073e77eee592c84631ed505fa4180c73db80cb6d5ea4bd47f7bcdbd78bd2f993e0220602a97543bf1f0ecdf7fd95a2fef4d6721f5bf56c8ed8547276b30eb2128b109[ALL] 02792dbc1d3817faf920174645808a06ab7a71a509e369c8287ed68807c0b93783"}, "vout": 1695, "txid": "86f83b42e804b6a4a644279d587bc57fae54ffc3e7acdb42f29e551433ebd281"}], "txid": "760db7288acd3c0e00ff7d3894f3d8bbe4692b51b962d20ae464b5ba06f400bc", "blocktime": 1537875543, "version": 1, "confirmations": 11464, "time": 1537875543, "locktime": 0, "vsize": 189, "size": 189}