{"hash": "760e04cc37ace760547d5e141528d34c1c5c9d72a36d82e57090591c5300f374", "blockhash": "0000000000000000000dcc0f55137456b1a82d3642486a52398922ac4d620174", "vout": [{"scriptPubKey": {"reqSigs": 1, "hex": "76a914de3e51d3665e8fbce8d0afb9672ada51dafb8e4988ac", "addresses": ["1MG7fdZJafHWdNTDiVoiCPuTzGGDvoqYbH"], "asm": "OP_DUP OP_HASH160 de3e51d3665e8fbce8d0afb9672ada51dafb8e49 OP_EQUALVERIFY OP_CHECKSIG", "type": "pubkeyhash"}, "value": 0.0013, "n": 0}, {"scriptPubKey": {"reqSigs": 1, "hex": "76a9143c91f4c3d6e218aa51e507d6a5d2e01b2ff1cd4e88ac", "addresses": ["16XGPifaAvXnys1fJWwE3tFrim1g5QFJpY"], "asm": "OP_DUP OP_HASH160 3c91f4c3d6e218aa51e507d6a5d2e01b2ff1cd4e OP_EQUALVERIFY OP_CHECKSIG", "type": "pubkeyhash"}, "value": 0.01100393, "n": 1}], "hex": "0100000001848cafb07df7d7c29ec222aa13d3d39666218c3b9f9e3b072750360b7e4e212d000000006b483045022100af84e661e7ee57122b92c74255cf1fbd52144b3ae39ddb4e8a005c613aeee18a0220319f3147988ddf465c5ca33c75b1e85eb36a2a0ee766ec3125d7107b740e5b030121022fa354d8926e1efd71e6a0ca0dc7a4e485c2ff5ab795892fcd0b685a4252e718ffffffff02d0fb0100000000001976a914de3e51d3665e8fbce8d0afb9672ada51dafb8e4988ac69ca1000000000001976a9143c91f4c3d6e218aa51e507d6a5d2e01b2ff1cd4e88ac00000000", "vin": [{"sequence": 4294967295, "scriptSig": {"hex": "483045022100af84e661e7ee57122b92c74255cf1fbd52144b3ae39ddb4e8a005c613aeee18a0220319f3147988ddf465c5ca33c75b1e85eb36a2a0ee766ec3125d7107b740e5b030121022fa354d8926e1efd71e6a0ca0dc7a4e485c2ff5ab795892fcd0b685a4252e718", "asm": "3045022100af84e661e7ee57122b92c74255cf1fbd52144b3ae39ddb4e8a005c613aeee18a0220319f3147988ddf465c5ca33c75b1e85eb36a2a0ee766ec3125d7107b740e5b03[ALL] 022fa354d8926e1efd71e6a0ca0dc7a4e485c2ff5ab795892fcd0b685a4252e718"}, "vout": 0, "txid": "2d214e7e0b365027073b9e9f3b8c216696d3d313aa22c29ec2d7f77db0af8c84"}], "txid": "760e04cc37ace760547d5e141528d34c1c5c9d72a36d82e57090591c5300f374", "blocktime": 1537870268, "version": 1, "confirmations": 11518, "time": 1537870268, "locktime": 0, "vsize": 226, "size": 226}