{"hash": "761149dceb9d890bb746e42cfd2ca2923037b889ba19661bc8103b9c9b06fd4d", "blockhash": "00000000000000000024a2167bbff67b0be802c0b01cdd79e6331c2be6459f87", "vout": [{"scriptPubKey": {"reqSigs": 1, "hex": "76a914a247d1f4820498e77f1c0460ea37a9d511de9ab888ac", "addresses": ["1Fo4WEB6jeKGHWJxGJGedFxqpHPeDmCptt"], "asm": "OP_DUP OP_HASH160 a247d1f4820498e77f1c0460ea37a9d511de9ab8 OP_EQUALVERIFY OP_CHECKSIG", "type": "pubkeyhash"}, "value": 2.472e-05, "n": 0}, {"scriptPubKey": {"reqSigs": 1, "hex": "76a91477c5f53e3178f1d32318de6c9a7c0447a1571f6a88ac", "addresses": ["1BvJZBzCcYXwR6y5Basrd5cdDB3BVe8z8J"], "asm": "OP_DUP OP_HASH160 77c5f53e3178f1d32318de6c9a7c0447a1571f6a OP_EQUALVERIFY OP_CHECKSIG", "type": "pubkeyhash"}, "value": 0.03849795, "n": 1}], "hex": "0100000001dd48411b8e4f408f4e41ee788641384ad11acc331bea23194928bde11bb6dca0000000006b483045022100fd810b264bd96be40678f9d08f7f3b946c6191bc84693ad0c449d3c89bdc319102204f1e06dd1fdab61530340ecc0e461320083668e38b8e1fba778ef19e92928f4c0121037394144e7d031de8990d089d07fcbbb26df9d703183bebb6d5f62b5eeedad03dffffffff02a8090000000000001976a914a247d1f4820498e77f1c0460ea37a9d511de9ab888ac43be3a00000000001976a91477c5f53e3178f1d32318de6c9a7c0447a1571f6a88ac00000000", "vin": [{"sequence": 4294967295, "scriptSig": {"hex": "483045022100fd810b264bd96be40678f9d08f7f3b946c6191bc84693ad0c449d3c89bdc319102204f1e06dd1fdab61530340ecc0e461320083668e38b8e1fba778ef19e92928f4c0121037394144e7d031de8990d089d07fcbbb26df9d703183bebb6d5f62b5eeedad03d", "asm": "3045022100fd810b264bd96be40678f9d08f7f3b946c6191bc84693ad0c449d3c89bdc319102204f1e06dd1fdab61530340ecc0e461320083668e38b8e1fba778ef19e92928f4c[ALL] 037394144e7d031de8990d089d07fcbbb26df9d703183bebb6d5f62b5eeedad03d"}, "vout": 0, "txid": "a0dcb61be1bd28491923ea1b33cc1ad14a38418678ee414e8f404f8e1b4148dd"}], "txid": "761149dceb9d890bb746e42cfd2ca2923037b889ba19661bc8103b9c9b06fd4d", "blocktime": 1537870564, "version": 1, "confirmations": 11515, "time": 1537870564, "locktime": 0, "vsize": 226, "size": 226}