{"hash": "76147bf49b6dc825f007d4bac6b9bbc075e0cf5e2914ffca723022d84161b0b9", "blockhash": "0000000000000000000e13cef7c366c0283d82e591d1acd082e914b08063cdf1", "vout": [{"scriptPubKey": {"reqSigs": 1, "hex": "76a9140ea2c16f9786cdfea33384770c72f226ae93ef3f88ac", "addresses": ["12LPS9L3BtpHJxCw7CBABQHFsKc7wFRjAR"], "asm": "OP_DUP OP_HASH160 0ea2c16f9786cdfea33384770c72f226ae93ef3f OP_EQUALVERIFY OP_CHECKSIG", "type": "pubkeyhash"}, "value": 0.36168819, "n": 0}, {"scriptPubKey": {"type": "nulldata", "hex": "6a146f6d6e69000000000000001f000001ad5fa42190", "asm": "OP_RETURN 6f6d6e69000000000000001f000001ad5fa42190"}, "value": 0.0, "n": 1}, {"scriptPubKey": {"reqSigs": 1, "hex": "76a914519c59e69f990208d282d456c9e38813531403ca88ac", "addresses": ["18SX31VAWZfjaL2fQEtgJsrVPD4gkA5sDU"], "asm": "OP_DUP OP_HASH160 519c59e69f990208d282d456c9e38813531403ca OP_EQUALVERIFY OP_CHECKSIG", "type": "pubkeyhash"}, "value": 5.46e-06, "n": 2}], "hex": "0100000001cb5b3f6d5f341b2c6cde96fed964d822b3e5aa9e104512cd8fc994deeef48890000000006a47304402203401839f4c09d0bbed92cbc4d874d27958630a84ba70e1a2f277d5de3f86d88502202c9a05cb4fbf97812f815dded46aaef135030a64ce91608739c2c4e9b749595c01210242604bdd2261b6188326b9f490e074dda990f5bb746eb9716e491b86b498f4c5feffffff0373e42702000000001976a9140ea2c16f9786cdfea33384770c72f226ae93ef3f88ac0000000000000000166a146f6d6e69000000000000001f000001ad5fa4219022020000000000001976a914519c59e69f990208d282d456c9e38813531403ca88ac10490800", "vin": [{"sequence": 4294967294, "scriptSig": {"hex": "47304402203401839f4c09d0bbed92cbc4d874d27958630a84ba70e1a2f277d5de3f86d88502202c9a05cb4fbf97812f815dded46aaef135030a64ce91608739c2c4e9b749595c01210242604bdd2261b6188326b9f490e074dda990f5bb746eb9716e491b86b498f4c5", "asm": "304402203401839f4c09d0bbed92cbc4d874d27958630a84ba70e1a2f277d5de3f86d88502202c9a05cb4fbf97812f815dded46aaef135030a64ce91608739c2c4e9b749595c[ALL] 0242604bdd2261b6188326b9f490e074dda990f5bb746eb9716e491b86b498f4c5"}, "vout": 0, "txid": "9088f4eede94c98fcd1245109eaae5b322d864d9fe96de6c2c1b345f6d3f5bcb"}], "txid": "76147bf49b6dc825f007d4bac6b9bbc075e0cf5e2914ffca723022d84161b0b9", "blocktime": 1537871767, "version": 1, "confirmations": 11493, "time": 1537871767, "locktime": 542992, "vsize": 256, "size": 256}