{"hash": "7618aa8bc7bc4fb3e15e9ce6756c667a4b7076b0ad065fe3381700448981b45d", "blockhash": "00000000000000000018f53835495a110e01622372bf6ae95dc86f2b0ab887b0", "vout": [{"scriptPubKey": {"reqSigs": 1, "hex": "76a9149727a52726400346b85c84fe797b5cd8e8d5c75788ac", "addresses": ["1EnEXZNrgB1M9DnZfFVu8GrnusQemNZ9U2"], "asm": "OP_DUP OP_HASH160 9727a52726400346b85c84fe797b5cd8e8d5c757 OP_EQUALVERIFY OP_CHECKSIG", "type": "pubkeyhash"}, "value": 7.08e-05, "n": 0}, {"scriptPubKey": {"reqSigs": 1, "hex": "a9145ff6666d1ff1accccbfaa94990d8f9f375252ebe87", "addresses": ["3ASRHwsfB2DUF4xLabyqVZxr238K5t74Yy"], "asm": "OP_HASH160 5ff6666d1ff1accccbfaa94990d8f9f375252ebe OP_EQUAL", "type": "scripthash"}, "value": 0.00290085, "n": 1}], "hex": "0100000001ae6fc8af0f7ae28df0b2452f709cc81036a33c5f7f861211e3bff461d6929d98000000006a4730440220369303b3a5a4b1375b339eb748640132e05c646d85eb13b3ca6013e54dfaa26602202735804205eb5ac3adeff021c5079fe5460e6fb7c6cc40727cdee4a0a6a8a5b00121026e21c45938df13182c6519cde2ae6b1a4e29e0b7fc70a849ba1a158a39163071ffffffff02a81b0000000000001976a9149727a52726400346b85c84fe797b5cd8e8d5c75788ac256d04000000000017a9145ff6666d1ff1accccbfaa94990d8f9f375252ebe8700000000", "vin": [{"sequence": 4294967295, "scriptSig": {"hex": "4730440220369303b3a5a4b1375b339eb748640132e05c646d85eb13b3ca6013e54dfaa26602202735804205eb5ac3adeff021c5079fe5460e6fb7c6cc40727cdee4a0a6a8a5b00121026e21c45938df13182c6519cde2ae6b1a4e29e0b7fc70a849ba1a158a39163071", "asm": "30440220369303b3a5a4b1375b339eb748640132e05c646d85eb13b3ca6013e54dfaa26602202735804205eb5ac3adeff021c5079fe5460e6fb7c6cc40727cdee4a0a6a8a5b0[ALL] 026e21c45938df13182c6519cde2ae6b1a4e29e0b7fc70a849ba1a158a39163071"}, "vout": 0, "txid": "989d92d661f4bfe31112867f5f3ca33610c89c702f45b2f08de27a0fafc86fae"}], "txid": "7618aa8bc7bc4fb3e15e9ce6756c667a4b7076b0ad065fe3381700448981b45d", "blocktime": 1537870928, "version": 1, "confirmations": 11512, "time": 1537870928, "locktime": 0, "vsize": 223, "size": 223}