{"hash": "7618cb822e1512da527d4320f6bfcb33ecd91e20ca3a74301ef169fd68237a49", "blockhash": "00000000000000000004ffacab907a6b429b9a5745fa0b75af4234bf69dd7176", "vout": [{"scriptPubKey": {"reqSigs": 1, "hex": "76a9142218445af6e618633a5a7f475c50f85cd9dd977d88ac", "addresses": ["147H3dBf4NBCTUuKnHYaBsAWvt8hsd7sCS"], "asm": "OP_DUP OP_HASH160 2218445af6e618633a5a7f475c50f85cd9dd977d OP_EQUALVERIFY OP_CHECKSIG", "type": "pubkeyhash"}, "value": 0.01556978, "n": 0}, {"scriptPubKey": {"reqSigs": 1, "hex": "a9145081fe04fff404ea660e344666110786a1df133487", "addresses": ["392hhunv7ZzRmfvYXn5Y1vdX9XwKVoWMDX"], "asm": "OP_HASH160 5081fe04fff404ea660e344666110786a1df1334 OP_EQUAL", "type": "scripthash"}, "value": 0.0065, "n": 1}], "hex": "0100000001632915402b64ebe1673c4faddf55d70c4cfc19d200f224bc4a4b61ce59db46b1020000006b4830450221008b355bda1fee5fb7ad194fc5a5ccea46bb729834d09c95aa29ef345ec3006196022019f2d5b0be4a8659bc344bda6c25f19692d434bae51644296580cb731df14274012102681b2ec34d94774d59984ca2e5846216c974d9d788a657acdc66ac7e1c8afbb4ffffffff02f2c11700000000001976a9142218445af6e618633a5a7f475c50f85cd9dd977d88ac10eb09000000000017a9145081fe04fff404ea660e344666110786a1df13348700000000", "vin": [{"sequence": 4294967295, "scriptSig": {"hex": "4830450221008b355bda1fee5fb7ad194fc5a5ccea46bb729834d09c95aa29ef345ec3006196022019f2d5b0be4a8659bc344bda6c25f19692d434bae51644296580cb731df14274012102681b2ec34d94774d59984ca2e5846216c974d9d788a657acdc66ac7e1c8afbb4", "asm": "30450221008b355bda1fee5fb7ad194fc5a5ccea46bb729834d09c95aa29ef345ec3006196022019f2d5b0be4a8659bc344bda6c25f19692d434bae51644296580cb731df14274[ALL] 02681b2ec34d94774d59984ca2e5846216c974d9d788a657acdc66ac7e1c8afbb4"}, "vout": 2, "txid": "b146db59ce614b4abc24f200d219fc4c0cd755dfad4f3c67e1eb642b40152963"}], "txid": "7618cb822e1512da527d4320f6bfcb33ecd91e20ca3a74301ef169fd68237a49", "blocktime": 1537875543, "version": 1, "confirmations": 11464, "time": 1537875543, "locktime": 0, "vsize": 224, "size": 224}