{"hash": "7626dd086b0bc1e43629189fb959d9f030bc095bb1d251ca542654d3cb172a00", "blockhash": "0000000000000000000e13cef7c366c0283d82e591d1acd082e914b08063cdf1", "vout": [{"scriptPubKey": {"reqSigs": 1, "hex": "76a914de8490def9728d594b74e9ca776f9fc174656df888ac", "addresses": ["1MHZpRkVpGeBQATSCDFUqUeJZRBzmECtUT"], "asm": "OP_DUP OP_HASH160 de8490def9728d594b74e9ca776f9fc174656df8 OP_EQUALVERIFY OP_CHECKSIG", "type": "pubkeyhash"}, "value": 13.35951223, "n": 0}, {"scriptPubKey": {"reqSigs": 1, "hex": "76a9144be4409d79ca0506045e6060b25eed2faa44a59d88ac", "addresses": ["17vH7eFajM5tK5euiPCWs5WRV4HPn9HqsM"], "asm": "OP_DUP OP_HASH160 4be4409d79ca0506045e6060b25eed2faa44a59d OP_EQUALVERIFY OP_CHECKSIG", "type": "pubkeyhash"}, "value": 0.30871105, "n": 1}], "hex": "0100000001152e2cade25c8c7e0403e794fcc9bbca4cfdfd811183224a5d48a60fadc936bc010000006b483045022100cbdd15388b76ad8ba1e40ddb68b4c2cb01e0ac46071cbc636dd7172cdd1a9a4402203cd3a420e463d6dbc871e0451ffbe0130c0eec46517c41f54935b955805c5e7a012103b9041251a6b501efc6a299c558f10f3851479ff4815f83e1c9f5f350116fde78ffffffff0277ffa04f000000001976a914de8490def9728d594b74e9ca776f9fc174656df888ac410ed701000000001976a9144be4409d79ca0506045e6060b25eed2faa44a59d88ac00000000", "vin": [{"sequence": 4294967295, "scriptSig": {"hex": "483045022100cbdd15388b76ad8ba1e40ddb68b4c2cb01e0ac46071cbc636dd7172cdd1a9a4402203cd3a420e463d6dbc871e0451ffbe0130c0eec46517c41f54935b955805c5e7a012103b9041251a6b501efc6a299c558f10f3851479ff4815f83e1c9f5f350116fde78", "asm": "3045022100cbdd15388b76ad8ba1e40ddb68b4c2cb01e0ac46071cbc636dd7172cdd1a9a4402203cd3a420e463d6dbc871e0451ffbe0130c0eec46517c41f54935b955805c5e7a[ALL] 03b9041251a6b501efc6a299c558f10f3851479ff4815f83e1c9f5f350116fde78"}, "vout": 1, "txid": "bc36c9ad0fa6485d4a22831181fdfd4ccabbc9fc94e703047e8c5ce2ad2c2e15"}], "txid": "7626dd086b0bc1e43629189fb959d9f030bc095bb1d251ca542654d3cb172a00", "blocktime": 1537871767, "version": 1, "confirmations": 11490, "time": 1537871767, "locktime": 0, "vsize": 226, "size": 226}