{"hash": "23f92bf3250762df5300ed090219d78a4c604b8dc015968d7385b10bd2a9a3db", "blockhash": "0000000000000000000dcc0f55137456b1a82d3642486a52398922ac4d620174", "vout": [{"scriptPubKey": {"reqSigs": 1, "hex": "a914b07e3ee5608dbd8a21a642c8be0c603faff22dd087", "addresses": ["3HnE61Y5T5rcZfguPF3YB2KmWNpbBXJwsg"], "asm": "OP_HASH160 b07e3ee5608dbd8a21a642c8be0c603faff22dd0 OP_EQUAL", "type": "scripthash"}, "value": 0.000566, "n": 0}, {"scriptPubKey": {"reqSigs": 1, "hex": "76a91446c326c583cd23409c358af07c8ded0fb346227688ac", "addresses": ["17TA5nk7uSgPeziCZkNyaLfhiAj1HxFpQH"], "asm": "OP_DUP OP_HASH160 46c326c583cd23409c358af07c8ded0fb3462276 OP_EQUALVERIFY OP_CHECKSIG", "type": "pubkeyhash"}, "value": 0.00689812, "n": 1}, {"scriptPubKey": {"reqSigs": 1, "hex": "a914ff9c5ca38b50b5e044ed6e8634ee9b77772e5dd487", "addresses": ["3QzZYg2hNm6y98HeKWQ1mByUxhTT2QY7c1"], "asm": "OP_HASH160 ff9c5ca38b50b5e044ed6e8634ee9b77772e5dd4 OP_EQUAL", "type": "scripthash"}, "value": 0.00049, "n": 2}, {"scriptPubKey": {"reqSigs": 1, "hex": "76a9140019a60e0d40c27217a30342e1aa0a0fa7eb569a88ac", "addresses": ["11Xj6myiCHLz69agySeuoKa3GAmMLCZ3G"], "asm": "OP_DUP OP_HASH160 0019a60e0d40c27217a30342e1aa0a0fa7eb569a OP_EQUALVERIFY OP_CHECKSIG", "type": "pubkeyhash"}, "value": 0.005022, "n": 3}, {"scriptPubKey": {"reqSigs": 1, "hex": "a91483acae3ad342a69bd3667df043cb46b260c3507d87", "addresses": ["3DhFJjM7D9NShEVVzWu7mMQKHSQC3yVJfK"], "asm": "OP_HASH160 83acae3ad342a69bd3667df043cb46b260c3507d OP_EQUAL", "type": "scripthash"}, "value": 0.03182949, "n": 4}, {"scriptPubKey": {"reqSigs": 1, "hex": "76a91432c7eec54ef76cfab286b4a283459c0b9f18aeff88ac", "addresses": ["15dWJADdVdQkeFNPyH8yWYFm8RWaTbUv8n"], "asm": "OP_DUP OP_HASH160 32c7eec54ef76cfab286b4a283459c0b9f18aeff OP_EQUALVERIFY OP_CHECKSIG", "type": "pubkeyhash"}, "value": 0.000285, "n": 5}, {"scriptPubKey": {"reqSigs": 1, "hex": "a9147a360b209c6b3d973bfc42cb0fb2eeade50b913687", "addresses": ["3CqD6xDw6md9FMFCyyZJwX6B41xbutqp7e"], "asm": "OP_HASH160 7a360b209c6b3d973bfc42cb0fb2eeade50b9136 OP_EQUAL", "type": "scripthash"}, "value": 0.00015138, "n": 6}, {"scriptPubKey": {"reqSigs": 1, "hex": "a914fcf482a02c5c4e6b6251ae503e541a5eb594593887", "addresses": ["3QkX7kmgnkpDpGKCg8pjG6Qh2YDdMhhscN"], "asm": "OP_HASH160 fcf482a02c5c4e6b6251ae503e541a5eb5945938 OP_EQUAL", "type": "scripthash"}, "value": 0.00028289, "n": 7}, {"scriptPubKey": {"reqSigs": 1, "hex": "76a914bdda60750f227b3d0357b0a43796eb9f560c0a5788ac", "addresses": ["1JJrKLnJxYd1u5joqGkX9t4L1U3XhUYoZj"], "asm": "OP_DUP OP_HASH160 bdda60750f227b3d0357b0a43796eb9f560c0a57 OP_EQUALVERIFY OP_CHECKSIG", "type": "pubkeyhash"}, "value": 0.12446714, "n": 8}, {"scriptPubKey": {"reqSigs": 1, "hex": "76a91402a344e4aa93126f954066047aee9e752a3058e188ac", "addresses": ["1EwwXCGGAznJuzCsYcd98YmsaXtezvQqv"], "asm": "OP_DUP OP_HASH160 02a344e4aa93126f954066047aee9e752a3058e1 OP_EQUALVERIFY OP_CHECKSIG", "type": "pubkeyhash"}, "value": 0.01543542, "n": 9}, {"scriptPubKey": {"reqSigs": 1, "hex": "a91413285982ff6b602c82528f2998fc482f4d0c2a8287", "addresses": ["33SK6jPkkwBBZTXBc6TuFGXgYgmWciUobj"], "asm": "OP_HASH160 13285982ff6b602c82528f2998fc482f4d0c2a82 OP_EQUAL", "type": "scripthash"}, "value": 0.00426, "n": 10}], "hex": "010000000001011d16c82e6af556ccc9c3489e7c60f337be00e2273320eaf63e6b953a0ffd626b07000000232200208beef2ca6f990e8e95364a82fc503b972d4fcdf7bed2aada1b19345dfe2e4eb1ffffffff0b18dd00000000000017a914b07e3ee5608dbd8a21a642c8be0c603faff22dd08794860a00000000001976a91446c326c583cd23409c358af07c8ded0fb346227688ac68bf00000000000017a914ff9c5ca38b50b5e044ed6e8634ee9b77772e5dd487b8a90700000000001976a9140019a60e0d40c27217a30342e1aa0a0fa7eb569a88ac659130000000000017a91483acae3ad342a69bd3667df043cb46b260c3507d87546f0000000000001976a91432c7eec54ef76cfab286b4a283459c0b9f18aeff88ac223b00000000000017a9147a360b209c6b3d973bfc42cb0fb2eeade50b913687816e00000000000017a914fcf482a02c5c4e6b6251ae503e541a5eb594593887faebbd00000000001976a914bdda60750f227b3d0357b0a43796eb9f560c0a5788ac768d1700000000001976a91402a344e4aa93126f954066047aee9e752a3058e188ac108006000000000017a91413285982ff6b602c82528f2998fc482f4d0c2a8287040047304402207ac2b34bac1662e3ac1d1eeb2ede749af07ddc1a4eb04219a6d5109098d06f26022023e69bd6c964c1b85559db3f13aa7c50e84a0d8dd1dc58334c4a35998c26d8c70148304502210084c8e7033a85a0e11c00da4865af8796eb975e00529ca6d8f972d576bd083edb022028721373e3b0daedb9a6a99a8837c2c0789059810056350d233167d5aba96b950169522102fed02f930e2a784d5db4317a68d2d0b03fe269c41b2c093dc67e5e40acb7437c2103f318ae28cbe859ea494d3c167bac21b86c82ca16774b3ea593d33cad2784e6c921023c8c290afb528da800d04866afb6694a8ef320ac297b6697ed96215e9b4d590e53ae00000000", "vin": [{"txinwitness": ["", "304402207ac2b34bac1662e3ac1d1eeb2ede749af07ddc1a4eb04219a6d5109098d06f26022023e69bd6c964c1b85559db3f13aa7c50e84a0d8dd1dc58334c4a35998c26d8c701", "304502210084c8e7033a85a0e11c00da4865af8796eb975e00529ca6d8f972d576bd083edb022028721373e3b0daedb9a6a99a8837c2c0789059810056350d233167d5aba96b9501", "522102fed02f930e2a784d5db4317a68d2d0b03fe269c41b2c093dc67e5e40acb7437c2103f318ae28cbe859ea494d3c167bac21b86c82ca16774b3ea593d33cad2784e6c921023c8c290afb528da800d04866afb6694a8ef320ac297b6697ed96215e9b4d590e53ae"], "sequence": 4294967295, "scriptSig": {"hex": "2200208beef2ca6f990e8e95364a82fc503b972d4fcdf7bed2aada1b19345dfe2e4eb1", "asm": "00208beef2ca6f990e8e95364a82fc503b972d4fcdf7bed2aada1b19345dfe2e4eb1"}, "vout": 7, "txid": "6b62fd0f3a956b3ef6ea203327e200be37f3607c9e48c3c9cc56f56a2ec8161d"}], "txid": "762901e579ff62d3fa7aaf5b4319ebb482fefa6baa862acbae740f89d9a8974c", "blocktime": 1537870268, "version": 1, "confirmations": 11518, "time": 1537870268, "locktime": 0, "vsize": 512, "size": 703}