{"hash": "53610fff92c0d0bc16508021e1a072ef6c45b9e58de5a44031403c041463fee8", "blockhash": "00000000000000000024a2167bbff67b0be802c0b01cdd79e6331c2be6459f87", "vout": [{"scriptPubKey": {"reqSigs": 1, "hex": "a914a576d035aee27f11606ecf37735b519db298d33887", "addresses": ["3GmukVNKMEynqcpViqttS29QYdt5FXUSNk"], "asm": "OP_HASH160 a576d035aee27f11606ecf37735b519db298d338 OP_EQUAL", "type": "scripthash"}, "value": 0.000602, "n": 0}, {"scriptPubKey": {"reqSigs": 1, "hex": "a914627aa52932456d89054bd84f86246af3b71b93a887", "addresses": ["3Afj4stdiLG9EktGrMbm252ySonnhYaz8v"], "asm": "OP_HASH160 627aa52932456d89054bd84f86246af3b71b93a8 OP_EQUAL", "type": "scripthash"}, "value": 0.51107131, "n": 1}], "hex": "010000000001011d7b71a840873dce3cdaf43860409deb6e71745f01a24b871c9591fc2c923a9401000000232200205fdd641234b13964b223bd85ad2a4a667ca2099df3d42a1d3b45706a8d81abf0ffffffff0228eb00000000000017a914a576d035aee27f11606ecf37735b519db298d338873bd50b030000000017a914627aa52932456d89054bd84f86246af3b71b93a8870400483045022100d5242ac2ac3e4e38ffa253e6d50ba59e572348fbe3353c7efca55157e2772f4002207baf36a375c28258e42e18447774ce222d1901087385cda8b095722181a2380601483045022100ab392b27113eaba2bac20324d327fda2a5669087b550cbea9f387a387bbd47a902203f21ff1baa8ad6483656ab66de5bc91665ea0e1eb96b317c2e51f2a8335306670147522103dcde3832fa56def7b4e783faad1b8af85c3cdd74a5ff4f3c7c216b1075c18da12103c70ae8ded79be1afda73b9ce5ea14a3878908ee160d66a9a717e792bb6db276952ae00000000", "vin": [{"txinwitness": ["", "3045022100d5242ac2ac3e4e38ffa253e6d50ba59e572348fbe3353c7efca55157e2772f4002207baf36a375c28258e42e18447774ce222d1901087385cda8b095722181a2380601", "3045022100ab392b27113eaba2bac20324d327fda2a5669087b550cbea9f387a387bbd47a902203f21ff1baa8ad6483656ab66de5bc91665ea0e1eb96b317c2e51f2a83353066701", "522103dcde3832fa56def7b4e783faad1b8af85c3cdd74a5ff4f3c7c216b1075c18da12103c70ae8ded79be1afda73b9ce5ea14a3878908ee160d66a9a717e792bb6db276952ae"], "sequence": 4294967295, "scriptSig": {"hex": "2200205fdd641234b13964b223bd85ad2a4a667ca2099df3d42a1d3b45706a8d81abf0", "asm": "00205fdd641234b13964b223bd85ad2a4a667ca2099df3d42a1d3b45706a8d81abf0"}, "vout": 1, "txid": "943a922cfc91951c874ba2015f74716eeb9d406038f4da3cce3d8740a8717b1d"}], "txid": "763235d67db47d96a127328713ad77eabaebf6d8f3a87d1d900a3bc8c05c389d", "blocktime": 1537870564, "version": 1, "confirmations": 11515, "time": 1537870564, "locktime": 0, "vsize": 206, "size": 372}