{"hash": "7635ed4f44db4bef1b38a80ed32514d8a3ab9948fef0dbfafb03a9cbdb7dd1fe", "blockhash": "0000000000000000001e0dab787dd257d1dbfcb92a98c2207d5e1078be1f4165", "vout": [{"scriptPubKey": {"reqSigs": 1, "hex": "a91489225020d04846368ed7398101dae1970edae5e587", "addresses": ["3EC7bw6uNNhRpGdWA8Sam45rdwXCVynhyN"], "asm": "OP_HASH160 89225020d04846368ed7398101dae1970edae5e5 OP_EQUAL", "type": "scripthash"}, "value": 0.000781, "n": 0}, {"scriptPubKey": {"reqSigs": 1, "hex": "76a91411461e6b6e7364ea324df7dc8f373ea1e0b24d6688ac", "addresses": ["12aLVCkb5iR3kEELsH4H6JDvfZ1V2uFEvH"], "asm": "OP_DUP OP_HASH160 11461e6b6e7364ea324df7dc8f373ea1e0b24d66 OP_EQUALVERIFY OP_CHECKSIG", "type": "pubkeyhash"}, "value": 0.00202001, "n": 1}], "hex": "01000000013ec8da6a747f869e4e45c461480e2c6b1f4f3afdf5d0f0c4e3e105238431126b000000006b483045022100c105d21da21d0298ebbf6b76971e3606203da7341c912a7c0d23c42fdff2eb8d02204aaa82c6a7e1d6f2bad14b01dba660b0246c1456d5a30b1e249bb57a0be1b1e7012103c3ee2f646f17b029eab4b678edae73ddf9366dac22af1b9c573325b21a820948ffffffff02143101000000000017a91489225020d04846368ed7398101dae1970edae5e58711150300000000001976a91411461e6b6e7364ea324df7dc8f373ea1e0b24d6688ac00000000", "vin": [{"sequence": 4294967295, "scriptSig": {"hex": "483045022100c105d21da21d0298ebbf6b76971e3606203da7341c912a7c0d23c42fdff2eb8d02204aaa82c6a7e1d6f2bad14b01dba660b0246c1456d5a30b1e249bb57a0be1b1e7012103c3ee2f646f17b029eab4b678edae73ddf9366dac22af1b9c573325b21a820948", "asm": "3045022100c105d21da21d0298ebbf6b76971e3606203da7341c912a7c0d23c42fdff2eb8d02204aaa82c6a7e1d6f2bad14b01dba660b0246c1456d5a30b1e249bb57a0be1b1e7[ALL] 03c3ee2f646f17b029eab4b678edae73ddf9366dac22af1b9c573325b21a820948"}, "vout": 0, "txid": "6b1231842305e1e3c4f0d0f5fd3a4f1f6b2c0e4861c4454e9e867f746adac83e"}], "txid": "7635ed4f44db4bef1b38a80ed32514d8a3ab9948fef0dbfafb03a9cbdb7dd1fe", "blocktime": 1537872475, "version": 1, "confirmations": 11487, "time": 1537872475, "locktime": 0, "vsize": 224, "size": 224}