{"hash": "763dce4564d70dca4bc8541977e6aa6641e591fda5996433dd7219cacead3a9b", "blockhash": "0000000000000000001cda96e906b7601b7a6fb1a3b62bca570a9e5d8f4b3de1", "vout": [{"scriptPubKey": {"reqSigs": 1, "hex": "76a914402c09cdf468e0561361af1ae03a43cb7951661788ac", "addresses": ["16rK17V5WjYpaJ56J8yV8vteoWi5TPmpJw"], "asm": "OP_DUP OP_HASH160 402c09cdf468e0561361af1ae03a43cb79516617 OP_EQUALVERIFY OP_CHECKSIG", "type": "pubkeyhash"}, "value": 0.01046394, "n": 0}, {"scriptPubKey": {"reqSigs": 1, "hex": "76a9140ba25a98080d99c2c5f82ac489d07d5e5ca16d1988ac", "addresses": ["124Wvf2a56fRgHpET6hTSgYS7C2adVChfC"], "asm": "OP_DUP OP_HASH160 0ba25a98080d99c2c5f82ac489d07d5e5ca16d19 OP_EQUALVERIFY OP_CHECKSIG", "type": "pubkeyhash"}, "value": 0.04236934, "n": 1}], "hex": "01000000012ed6b762f8d5ab9a7338e1bc8fbfeb45842b69b71cff6ecd0a8df346c6a7d138010000006a4730440220645909479334ba52cb7fcf50f3b7863d87fda514ed809519912df397a6b71c9d02204fa4227091c6c02b8699467f3a595421d161a677a99b942ea9c151774df56821012102310cc20f2fb49aeb856927ba1fd41e126035b4a28dd601551138c4172f093b31fdffffff027af70f00000000001976a914402c09cdf468e0561361af1ae03a43cb7951661788ac86a64000000000001976a9140ba25a98080d99c2c5f82ac489d07d5e5ca16d1988ac13490800", "vin": [{"sequence": 4294967293, "scriptSig": {"hex": "4730440220645909479334ba52cb7fcf50f3b7863d87fda514ed809519912df397a6b71c9d02204fa4227091c6c02b8699467f3a595421d161a677a99b942ea9c151774df56821012102310cc20f2fb49aeb856927ba1fd41e126035b4a28dd601551138c4172f093b31", "asm": "30440220645909479334ba52cb7fcf50f3b7863d87fda514ed809519912df397a6b71c9d02204fa4227091c6c02b8699467f3a595421d161a677a99b942ea9c151774df56821[ALL] 02310cc20f2fb49aeb856927ba1fd41e126035b4a28dd601551138c4172f093b31"}, "vout": 1, "txid": "38d1a7c646f38d0acd6eff1cb7692b8445ebbf8fbce138739aabd5f862b7d62e"}], "txid": "763dce4564d70dca4bc8541977e6aa6641e591fda5996433dd7219cacead3a9b", "blocktime": 1537873282, "version": 1, "confirmations": 11484, "time": 1537873282, "locktime": 542995, "vsize": 225, "size": 225}