{"hash": "3b982ae21f321192f80b081ac9ebd94daf84e57f4551f6e1b1ff348872518c9c", "blockhash": "0000000000000000001cda96e906b7601b7a6fb1a3b62bca570a9e5d8f4b3de1", "vout": [{"scriptPubKey": {"reqSigs": 1, "hex": "002082c52faaadf14a0a80addfa71df8d6a3502d264b2a71f2e869307517bdca6b18", "addresses": ["bc1qstzjl24d799q4q9dm7n3m7xk5dgz6fjt9fcl96rfxp6300w2dvvq9cxevf"], "asm": "0 82c52faaadf14a0a80addfa71df8d6a3502d264b2a71f2e869307517bdca6b18", "type": "witness_v0_scripthash"}, "value": 0.018, "n": 0}, {"scriptPubKey": {"reqSigs": 1, "hex": "00141eaeb93db04f5c207f2e42d4f444fd9363eca400", "addresses": ["bc1qr6htj0dsfawzqlewgt20g38ajd37efqqjv4pj6"], "asm": "0 1eaeb93db04f5c207f2e42d4f444fd9363eca400", "type": "witness_v0_keyhash"}, "value": 0.04199963, "n": 1}], "hex": "010000000001015e2d2cc9a67435046e45a3dd1a867dfba308e484630af10a3a013087dbf8387f0000000000ffffffff0240771b000000000022002082c52faaadf14a0a80addfa71df8d6a3502d264b2a71f2e869307517bdca6b181b164000000000001600141eaeb93db04f5c207f2e42d4f444fd9363eca400024730440220025db15214ccfb3b1d60986427f0dd51ae40e9bb8a6ec0df07e5319ed16b3e570220634f6ec1311deea4ac48eb72d21f03bc78fa58d3d6ea715854e5fa2a75d133010121031fc7a5fd827455114e84de0da09b2dbb12d7ba7e09315929001978e0b66ae91700000000", "vin": [{"txinwitness": ["30440220025db15214ccfb3b1d60986427f0dd51ae40e9bb8a6ec0df07e5319ed16b3e570220634f6ec1311deea4ac48eb72d21f03bc78fa58d3d6ea715854e5fa2a75d1330101", "031fc7a5fd827455114e84de0da09b2dbb12d7ba7e09315929001978e0b66ae917"], "sequence": 4294967295, "scriptSig": {"hex": "", "asm": ""}, "vout": 0, "txid": "7f38f8db8730013a0af10a6384e408a3fb7d861adda3456e043574a6c92c2d5e"}], "txid": "76408f4000511d33814c856914c60c98ce9b83ead56cd21ae89be7309ce1b693", "blocktime": 1537873282, "version": 1, "confirmations": 11485, "time": 1537873282, "locktime": 0, "vsize": 153, "size": 234}