{"hash": "764392582bde0673198a3ceada4af47e189b888074af6befe13122e57de8a21a", "blockhash": "0000000000000000000baef3f32e3676a92c3b2e5da21b426e4f302fc371ce76", "vout": [{"scriptPubKey": {"reqSigs": 1, "hex": "76a914152d5333d74136286d8863230feb0f48002e6a3688ac", "addresses": ["12vyVGPZgoRerDSaYvXcznV2hXWsYAzWi8"], "asm": "OP_DUP OP_HASH160 152d5333d74136286d8863230feb0f48002e6a36 OP_EQUALVERIFY OP_CHECKSIG", "type": "pubkeyhash"}, "value": 0.00139242, "n": 0}, {"scriptPubKey": {"reqSigs": 1, "hex": "76a914a33eea9dc50a2f9cc06681f9dc449db9b93cec3388ac", "addresses": ["1FtAWnKNW5hb6vdYkSHT1WHiRL8EkStbVf"], "asm": "OP_DUP OP_HASH160 a33eea9dc50a2f9cc06681f9dc449db9b93cec33 OP_EQUALVERIFY OP_CHECKSIG", "type": "pubkeyhash"}, "value": 0.04403048, "n": 1}], "hex": "010000000128d64571b787d0f918ec49b765769a210e8ef50cd9001800323c68e6ed2cdd2d000000006b483045022100ca66841867a66f307bcbbeded786a237ead8cc13fbc83b62b1257abf4a948e1602203c98d0a8dcc0f6cdeb8a7bea4e91238f36357f8d24631a426ccbed4f3cf30f17012102afc3873c7acfb376e316ecde7279553af55c9ca5e5dfac662d31a340d9aedf73ffffffff02ea1f0200000000001976a914152d5333d74136286d8863230feb0f48002e6a3688ac682f4300000000001976a914a33eea9dc50a2f9cc06681f9dc449db9b93cec3388ac00000000", "vin": [{"sequence": 4294967295, "scriptSig": {"hex": "483045022100ca66841867a66f307bcbbeded786a237ead8cc13fbc83b62b1257abf4a948e1602203c98d0a8dcc0f6cdeb8a7bea4e91238f36357f8d24631a426ccbed4f3cf30f17012102afc3873c7acfb376e316ecde7279553af55c9ca5e5dfac662d31a340d9aedf73", "asm": "3045022100ca66841867a66f307bcbbeded786a237ead8cc13fbc83b62b1257abf4a948e1602203c98d0a8dcc0f6cdeb8a7bea4e91238f36357f8d24631a426ccbed4f3cf30f17[ALL] 02afc3873c7acfb376e316ecde7279553af55c9ca5e5dfac662d31a340d9aedf73"}, "vout": 0, "txid": "2ddd2cede6683c32001800d90cf58e0e219a7665b749ec18f9d087b77145d628"}], "txid": "764392582bde0673198a3ceada4af47e189b888074af6befe13122e57de8a21a", "blocktime": 1537876114, "version": 1, "confirmations": 11459, "time": 1537876114, "locktime": 0, "vsize": 226, "size": 226}