{"hash": "8cb9a23e7a688dd28b7242f8c8bf350de811e0b960a957988ab20b978725ae33", "blockhash": "0000000000000000001cda96e906b7601b7a6fb1a3b62bca570a9e5d8f4b3de1", "vout": [{"scriptPubKey": {"reqSigs": 1, "hex": "76a9144cc36a419409cc53dcb34197e381844f3a68f40288ac", "addresses": ["17ztTFqHMhkUUnFqkfTs9ek5UjZ5WyXwdi"], "asm": "OP_DUP OP_HASH160 4cc36a419409cc53dcb34197e381844f3a68f402 OP_EQUALVERIFY OP_CHECKSIG", "type": "pubkeyhash"}, "value": 0.03513583, "n": 0}, {"scriptPubKey": {"reqSigs": 1, "hex": "a9144ca3e2196125f0f18a79751330c52a67c71c226f87", "addresses": ["38gFbvjPHWmKLW682cDXSdKfToWcZ4ynvh"], "asm": "OP_HASH160 4ca3e2196125f0f18a79751330c52a67c71c226f OP_EQUAL", "type": "scripthash"}, "value": 0.00026874, "n": 1}], "hex": "02000000000101db97cb8488530c67676cc31e37bbadff49398c9aeb86c88133ca55b26c261893010000001716001434846e35b64e3092d015084bef3f3f9d341ccbd0ffffffff02ef9c3500000000001976a9144cc36a419409cc53dcb34197e381844f3a68f40288acfa6800000000000017a9144ca3e2196125f0f18a79751330c52a67c71c226f870247304402203279eed530ca41afdbd247d9078c82d41f034a87e2f5329a035ca93474dfd5eb0220603a0e39a01fa17cebefa5d2bc9fa01fca6af4d7d6f7e0ae58b1832e7913acb50121039434dc6de99bc7e150e07c41160625869a188828215fd385d99c3fbaec5225c000000000", "vin": [{"txinwitness": ["304402203279eed530ca41afdbd247d9078c82d41f034a87e2f5329a035ca93474dfd5eb0220603a0e39a01fa17cebefa5d2bc9fa01fca6af4d7d6f7e0ae58b1832e7913acb501", "039434dc6de99bc7e150e07c41160625869a188828215fd385d99c3fbaec5225c0"], "sequence": 4294967295, "scriptSig": {"hex": "16001434846e35b64e3092d015084bef3f3f9d341ccbd0", "asm": "001434846e35b64e3092d015084bef3f3f9d341ccbd0"}, "vout": 1, "txid": "9318266cb255ca3381c886eb9a8c3949ffadbb371ec36c67670c538884cb97db"}], "txid": "764d4f5cc045d4e08773f49fd54fced20df5ffd5a428726a1cde038ee4f08e7d", "blocktime": 1537873282, "version": 2, "confirmations": 11481, "time": 1537873282, "locktime": 0, "vsize": 168, "size": 249}