{"hash": "c6fce80219c5a5434099da85c52f3df411744c21b3737ad84ed0b376357b2802", "blockhash": "000000000000000000022b45ed06c6f4ccd3cf7fb5ba4856ebd2e58215665228", "vout": [{"scriptPubKey": {"reqSigs": 1, "hex": "a9145ac125a44bbf5d5ba090da7608588e91181f8e7e87", "addresses": ["39xt7u9mohEX31Q8Kg4ZpnVUq5NfHFMoGk"], "asm": "OP_HASH160 5ac125a44bbf5d5ba090da7608588e91181f8e7e OP_EQUAL", "type": "scripthash"}, "value": 0.038243, "n": 0}, {"scriptPubKey": {"reqSigs": 1, "hex": "0014a9e8a11c6096a4bdcb7370ac4b544d7d81dfd1be", "addresses": ["bc1q4852z8rqj6jtmjmnwzkyk4zd0kqal5d7v99zq4"], "asm": "0 a9e8a11c6096a4bdcb7370ac4b544d7d81dfd1be", "type": "witness_v0_keyhash"}, "value": 8.30611764, "n": 1}], "hex": "02000000000101033f10d41b51a4d01c72f786fa340f2f2bdcdf99f950b1869f42ae76118764e10100000000ffffffff02ac5a3a000000000017a9145ac125a44bbf5d5ba090da7608588e91181f8e7e873421823100000000160014a9e8a11c6096a4bdcb7370ac4b544d7d81dfd1be02483045022100e4ffa3b3f39708434dae8122bd5b9581051ec21a27d03b9307a7c840297206fe0220310cb21acf32384125e2299413976f6d4cb70080db15c5cbc52e6c196d5c0e50012103263aa12bb78f062eb9eb2e48d7cae64c42b9490fca9dba19423a39b073d913e400000000", "vin": [{"txinwitness": ["3045022100e4ffa3b3f39708434dae8122bd5b9581051ec21a27d03b9307a7c840297206fe0220310cb21acf32384125e2299413976f6d4cb70080db15c5cbc52e6c196d5c0e5001", "03263aa12bb78f062eb9eb2e48d7cae64c42b9490fca9dba19423a39b073d913e4"], "sequence": 4294967295, "scriptSig": {"hex": "", "asm": ""}, "vout": 1, "txid": "e164871176ae429f86b150f999dfdc2b2f0f34fa86f7721cd0a4511bd4103f03"}], "txid": "765658ef862c877403621efbdf05f6e55224c4b17ea65ac720dcbda8b4dd63db", "blocktime": 1537869901, "version": 2, "confirmations": 11522, "time": 1537869901, "locktime": 0, "vsize": 142, "size": 224}