{"hash": "76628a9e3787cc344b173aaa245bbbeb5a38823c1e5bf0078bab7e797e9ee4ad", "blockhash": "00000000000000000024a2167bbff67b0be802c0b01cdd79e6331c2be6459f87", "vout": [{"scriptPubKey": {"reqSigs": 1, "hex": "76a9141828c153cbdfcadf9698c158852ea6cd265585a888ac", "addresses": ["13Ck3KnKyYcaBAJChQCemY7hCAGqbAxwWg"], "asm": "OP_DUP OP_HASH160 1828c153cbdfcadf9698c158852ea6cd265585a8 OP_EQUALVERIFY OP_CHECKSIG", "type": "pubkeyhash"}, "value": 0.0025, "n": 0}, {"scriptPubKey": {"reqSigs": 1, "hex": "76a9147711eab6ffcc99e4376ac39f4022de413e1ea2a988ac", "addresses": ["1BrasiLb2KMbdtuhb1chAVnS2FvcNGfV9J"], "asm": "OP_DUP OP_HASH160 7711eab6ffcc99e4376ac39f4022de413e1ea2a9 OP_EQUALVERIFY OP_CHECKSIG", "type": "pubkeyhash"}, "value": 0.01184988, "n": 1}], "hex": "0200000001cca16345ec45d21181e4e76fcf7511bc6439504c85874f62d415389a8472d3c7070000006b483045022100d9d4f4b657a86de7317773b06a83db13c66b55d2a31abbb5747927e324d68204022040a3a15f01c644c1d5aaf7233648f4041df6003745d3e570d7d2c03eac704aa5012103187b3c7d7503bbe3fd3626981975c876366be95758b89cfeb15a8c8514c4ff9fffffffff0290d00300000000001976a9141828c153cbdfcadf9698c158852ea6cd265585a888acdc141200000000001976a9147711eab6ffcc99e4376ac39f4022de413e1ea2a988ac00000000", "vin": [{"sequence": 4294967295, "scriptSig": {"hex": "483045022100d9d4f4b657a86de7317773b06a83db13c66b55d2a31abbb5747927e324d68204022040a3a15f01c644c1d5aaf7233648f4041df6003745d3e570d7d2c03eac704aa5012103187b3c7d7503bbe3fd3626981975c876366be95758b89cfeb15a8c8514c4ff9f", "asm": "3045022100d9d4f4b657a86de7317773b06a83db13c66b55d2a31abbb5747927e324d68204022040a3a15f01c644c1d5aaf7233648f4041df6003745d3e570d7d2c03eac704aa5[ALL] 03187b3c7d7503bbe3fd3626981975c876366be95758b89cfeb15a8c8514c4ff9f"}, "vout": 7, "txid": "c7d372849a3815d4624f87854c503964bc1175cf6fe7e48111d245ec4563a1cc"}], "txid": "76628a9e3787cc344b173aaa245bbbeb5a38823c1e5bf0078bab7e797e9ee4ad", "blocktime": 1537870564, "version": 2, "confirmations": 11515, "time": 1537870564, "locktime": 0, "vsize": 226, "size": 226}