{"hash": "766a1b6600dfb4dca2260bdd64b22d109b7540f05ab9129ed8cd84f2c250d8e6", "blockhash": "0000000000000000000dcc0f55137456b1a82d3642486a52398922ac4d620174", "vout": [{"scriptPubKey": {"reqSigs": 1, "hex": "a914b68ed28f08be5e69b0ae73124cf97ab6d41fa67e87", "addresses": ["3JLHzwM4dBsJS6xoiqwoxD6GrYHd1PgsH8"], "asm": "OP_HASH160 b68ed28f08be5e69b0ae73124cf97ab6d41fa67e OP_EQUAL", "type": "scripthash"}, "value": 0.08384517, "n": 0}], "hex": "010000000123a633930a85522122003e12555a82db37f8ecf2f310d7c464b9d6506dcf070b000000006a47304402204eb24ee124b6a7b735fbdd54ead5b782dcb778e31eaf07960ab457c028ebc33502202165e9f72c7256c63ee492044e8bcef4e8d19f210d4d0b705f5cb43e990de768012103d73e7b85a6b9ef7391940e040e6521025d10839049f01bc1062eb521c9d50c8bffffffff0105f07f000000000017a914b68ed28f08be5e69b0ae73124cf97ab6d41fa67e8700000000", "vin": [{"sequence": 4294967295, "scriptSig": {"hex": "47304402204eb24ee124b6a7b735fbdd54ead5b782dcb778e31eaf07960ab457c028ebc33502202165e9f72c7256c63ee492044e8bcef4e8d19f210d4d0b705f5cb43e990de768012103d73e7b85a6b9ef7391940e040e6521025d10839049f01bc1062eb521c9d50c8b", "asm": "304402204eb24ee124b6a7b735fbdd54ead5b782dcb778e31eaf07960ab457c028ebc33502202165e9f72c7256c63ee492044e8bcef4e8d19f210d4d0b705f5cb43e990de768[ALL] 03d73e7b85a6b9ef7391940e040e6521025d10839049f01bc1062eb521c9d50c8b"}, "vout": 0, "txid": "0b07cf6d50d6b964c4d710f3f2ecf837db825a55123e00222152850a9333a623"}], "txid": "766a1b6600dfb4dca2260bdd64b22d109b7540f05ab9129ed8cd84f2c250d8e6", "blocktime": 1537870268, "version": 1, "confirmations": 11516, "time": 1537870268, "locktime": 0, "vsize": 189, "size": 189}