{"hash": "766bbd40aadc6b01349ced9f323d1d94abd36897f5cb9e95240d6c32f2ac9153", "blockhash": "0000000000000000000dcc0f55137456b1a82d3642486a52398922ac4d620174", "vout": [{"scriptPubKey": {"type": "nulldata", "hex": "6a146f6d6e69000000000000001f0000000240607d80", "asm": "OP_RETURN 6f6d6e69000000000000001f0000000240607d80"}, "value": 0.0, "n": 0}, {"scriptPubKey": {"reqSigs": 1, "hex": "76a914a25dec4d0011064ef106a983c39c7a540699f22088ac", "addresses": ["1FoWyxwPXuj4C6abqwhjDWdz6D4PZgYRjA"], "asm": "OP_DUP OP_HASH160 a25dec4d0011064ef106a983c39c7a540699f220 OP_EQUALVERIFY OP_CHECKSIG", "type": "pubkeyhash"}, "value": 0.01985642, "n": 1}, {"scriptPubKey": {"reqSigs": 1, "hex": "a914606bcfafdee17ad6923ba6132844429ddcfc2cfd87", "addresses": ["3AUqwpRAo2E5JDzxatMFGF5VgHtq3ZXcfg"], "asm": "OP_HASH160 606bcfafdee17ad6923ba6132844429ddcfc2cfd OP_EQUAL", "type": "scripthash"}, "value": 5.4e-06, "n": 2}], "hex": "01000000011c591528aa64d04ab038a56fc75be7e509cb4d8abd76375d3e9a2cc6029ca9af020000006b483045022100954dcd38df135f3098406a2cfd98057767f9a6057623fe0f1999af4e7ab2700702205a853a572003f407a513d40c710f1c08545325c544ca6c5236c61cb276db7d94012103da5bac7b36d5aa38f531c6b9601e21bb598a4b6716ebed38b009a55dabde9440feffffff030000000000000000166a146f6d6e69000000000000001f0000000240607d806a4c1e00000000001976a914a25dec4d0011064ef106a983c39c7a540699f22088ac1c0200000000000017a914606bcfafdee17ad6923ba6132844429ddcfc2cfd870c490800", "vin": [{"sequence": 4294967294, "scriptSig": {"hex": "483045022100954dcd38df135f3098406a2cfd98057767f9a6057623fe0f1999af4e7ab2700702205a853a572003f407a513d40c710f1c08545325c544ca6c5236c61cb276db7d94012103da5bac7b36d5aa38f531c6b9601e21bb598a4b6716ebed38b009a55dabde9440", "asm": "3045022100954dcd38df135f3098406a2cfd98057767f9a6057623fe0f1999af4e7ab2700702205a853a572003f407a513d40c710f1c08545325c544ca6c5236c61cb276db7d94[ALL] 03da5bac7b36d5aa38f531c6b9601e21bb598a4b6716ebed38b009a55dabde9440"}, "vout": 2, "txid": "afa99c02c62c9a3e5d3776bd8a4dcb09e5e75bc76fa538b04ad064aa2815591c"}], "txid": "766bbd40aadc6b01349ced9f323d1d94abd36897f5cb9e95240d6c32f2ac9153", "blocktime": 1537870268, "version": 1, "confirmations": 11516, "time": 1537870268, "locktime": 542988, "vsize": 255, "size": 255}