{"hash": "766d42bf8f88904f89f238ab64b32d549e1f69ee8cc304e66c558330acd318dd", "blockhash": "0000000000000000000e13cef7c366c0283d82e591d1acd082e914b08063cdf1", "vout": [{"scriptPubKey": {"reqSigs": 1, "hex": "a914d90a67f1ca43295906600e0bbaabeeaf5be0512f87", "addresses": ["3MUd2CFcT9nZze1EhETKhr8AmyxvREmnGw"], "asm": "OP_HASH160 d90a67f1ca43295906600e0bbaabeeaf5be0512f OP_EQUAL", "type": "scripthash"}, "value": 0.00937204, "n": 0}, {"scriptPubKey": {"reqSigs": 1, "hex": "76a9145fdbbd037d66f1cbac5768ff96e4f1bde510f96688ac", "addresses": ["19jrRuqiBbw58rF27TuLVyW5x4kq6UFeFx"], "asm": "OP_DUP OP_HASH160 5fdbbd037d66f1cbac5768ff96e4f1bde510f966 OP_EQUALVERIFY OP_CHECKSIG", "type": "pubkeyhash"}, "value": 0.03117413, "n": 1}], "hex": "0100000001b16501c7736ca4ba4b4e0f3f5a9fbaf49097da6dbbe338731e4e3b6e66f345fd010000006b483045022100f01df5e1d6acaad96c19c7343db4824287d220c4a023a88b79a1157f488c28b70220156462e7566611c1228d6ce3af0fd5ed75f65988762c54faf5220b0a058753de0121039ccc9643717a8f610a0ddbd5c8b1c344ac5fe1eebc996224595c56bf3fb94452ffffffff02f44c0e000000000017a914d90a67f1ca43295906600e0bbaabeeaf5be0512f8765912f00000000001976a9145fdbbd037d66f1cbac5768ff96e4f1bde510f96688ac00000000", "vin": [{"sequence": 4294967295, "scriptSig": {"hex": "483045022100f01df5e1d6acaad96c19c7343db4824287d220c4a023a88b79a1157f488c28b70220156462e7566611c1228d6ce3af0fd5ed75f65988762c54faf5220b0a058753de0121039ccc9643717a8f610a0ddbd5c8b1c344ac5fe1eebc996224595c56bf3fb94452", "asm": "3045022100f01df5e1d6acaad96c19c7343db4824287d220c4a023a88b79a1157f488c28b70220156462e7566611c1228d6ce3af0fd5ed75f65988762c54faf5220b0a058753de[ALL] 039ccc9643717a8f610a0ddbd5c8b1c344ac5fe1eebc996224595c56bf3fb94452"}, "vout": 1, "txid": "fd45f3666e3b4e1e7338e3bb6dda9790f4ba9f5a3f0f4e4bbaa46c73c70165b1"}], "txid": "766d42bf8f88904f89f238ab64b32d549e1f69ee8cc304e66c558330acd318dd", "blocktime": 1537871767, "version": 1, "confirmations": 11495, "time": 1537871767, "locktime": 0, "vsize": 224, "size": 224}