{"hash": "767614be3c3c22b376faea7eb7af99575ab8efb06ece5f4995941c7e42ee751c", "blockhash": "0000000000000000001f0ddff1eddb255c1121bcd4da4f1bc9a0da00cae72433", "vout": [{"scriptPubKey": {"reqSigs": 1, "hex": "76a914349c368a1cceceb4b0ff660e570c786da81967d988ac", "addresses": ["15oBGrB5n7ELgfAR5w75624GzfpdDvSncu"], "asm": "OP_DUP OP_HASH160 349c368a1cceceb4b0ff660e570c786da81967d9 OP_EQUALVERIFY OP_CHECKSIG", "type": "pubkeyhash"}, "value": 5.46e-06, "n": 0}, {"scriptPubKey": {"reqSigs": 1, "hex": "76a914cd3a496c41694a8651a4719735449d0b222ff08d88ac", "addresses": ["1Ki9MAVZFLciGJeyzaVihxewcmmLm5N75X"], "asm": "OP_DUP OP_HASH160 cd3a496c41694a8651a4719735449d0b222ff08d OP_EQUALVERIFY OP_CHECKSIG", "type": "pubkeyhash"}, "value": 0.04430531, "n": 1}], "hex": "010000000133fc9d2058b6463587cfb5b3c8afc5797ebc39dc23e7a232b4809c2be29ae348010000006a473044022078382952edd476f6ad0aeda9e25d72f2a985b434e528c388c5f4bba9817a511a022029824c35f294a8bed6393f9002b56a2a77545ec536d65190a4032fdff4ae6d1a0121037699ccabe28918d55762cc570657b4a46c1f1ea8eb0b946e1f4559b65ca3420dffffffff0222020000000000001976a914349c368a1cceceb4b0ff660e570c786da81967d988acc39a4300000000001976a914cd3a496c41694a8651a4719735449d0b222ff08d88ac00000000", "vin": [{"sequence": 4294967295, "scriptSig": {"hex": "473044022078382952edd476f6ad0aeda9e25d72f2a985b434e528c388c5f4bba9817a511a022029824c35f294a8bed6393f9002b56a2a77545ec536d65190a4032fdff4ae6d1a0121037699ccabe28918d55762cc570657b4a46c1f1ea8eb0b946e1f4559b65ca3420d", "asm": "3044022078382952edd476f6ad0aeda9e25d72f2a985b434e528c388c5f4bba9817a511a022029824c35f294a8bed6393f9002b56a2a77545ec536d65190a4032fdff4ae6d1a[ALL] 037699ccabe28918d55762cc570657b4a46c1f1ea8eb0b946e1f4559b65ca3420d"}, "vout": 1, "txid": "48e39ae22b9c80b432a2e723dc39bc7e79c5afc8b3b5cf873546b658209dfc33"}], "txid": "767614be3c3c22b376faea7eb7af99575ab8efb06ece5f4995941c7e42ee751c", "blocktime": 1537872018, "version": 1, "confirmations": 11489, "time": 1537872018, "locktime": 0, "vsize": 225, "size": 225}