{"hash": "767bc4a8b7293f9262dcf7ebdfaf41359077e608f8ed85fd8b8365b281ab7165", "blockhash": "0000000000000000001cda96e906b7601b7a6fb1a3b62bca570a9e5d8f4b3de1", "vout": [{"scriptPubKey": {"reqSigs": 1, "hex": "a9145bdfaceb65cf693586f714026fb6d88622c8b75587", "addresses": ["3A4oNF7oQCoz488tZg3k7dY9m3zusyBFme"], "asm": "OP_HASH160 5bdfaceb65cf693586f714026fb6d88622c8b755 OP_EQUAL", "type": "scripthash"}, "value": 1.5187307, "n": 0}, {"scriptPubKey": {"reqSigs": 1, "hex": "a91404122057463d4ce97785c40c6af9971b8aee192887", "addresses": ["324YLkVYdrLXac7zxm3Ne2ooEpJ7vEG2AT"], "asm": "OP_HASH160 04122057463d4ce97785c40c6af9971b8aee1928 OP_EQUAL", "type": "scripthash"}, "value": 0.411, "n": 1}], "hex": "0200000001fbbea871366597dd9a9ac463cb670d875189c5303427ccf5d1d0a78b0479bbb300000000fc00473044022059e888f2f994dd53caf78d40969778784c37e103d13d35e09af114e9b36ae75a02204751d1f0fdc685e804146114d357f6406881c0fd0130d5878ed9bf2cab35ea400147304402207c36a4fb040897cb642a31dfec6621b785ff3a1705aaac34eee038f7a2b9d188022012b888387822a7395ea81a8c27f493c55c545dd2dbd4a3abba01a56f4221e81e014c69522102b2bbe6a748437755a7f1165817830a3acad1ddc3aec82e2ff03dc1fc235ead132103b17a6b32161aa3a06f09a05095e44099f20ed57dece5ec135c9d200a05538e74210291db7c65c0c1ecba2911b47de0aea3d689b44d07eeb313d1f051e1b0169194a353ae00000000022e660d090000000017a9145bdfaceb65cf693586f714026fb6d88622c8b75587e02273020000000017a91404122057463d4ce97785c40c6af9971b8aee19288700000000", "vin": [{"sequence": 0, "scriptSig": {"hex": "00473044022059e888f2f994dd53caf78d40969778784c37e103d13d35e09af114e9b36ae75a02204751d1f0fdc685e804146114d357f6406881c0fd0130d5878ed9bf2cab35ea400147304402207c36a4fb040897cb642a31dfec6621b785ff3a1705aaac34eee038f7a2b9d188022012b888387822a7395ea81a8c27f493c55c545dd2dbd4a3abba01a56f4221e81e014c69522102b2bbe6a748437755a7f1165817830a3acad1ddc3aec82e2ff03dc1fc235ead132103b17a6b32161aa3a06f09a05095e44099f20ed57dece5ec135c9d200a05538e74210291db7c65c0c1ecba2911b47de0aea3d689b44d07eeb313d1f051e1b0169194a353ae", "asm": "0 3044022059e888f2f994dd53caf78d40969778784c37e103d13d35e09af114e9b36ae75a02204751d1f0fdc685e804146114d357f6406881c0fd0130d5878ed9bf2cab35ea40[ALL] 304402207c36a4fb040897cb642a31dfec6621b785ff3a1705aaac34eee038f7a2b9d188022012b888387822a7395ea81a8c27f493c55c545dd2dbd4a3abba01a56f4221e81e[ALL] 522102b2bbe6a748437755a7f1165817830a3acad1ddc3aec82e2ff03dc1fc235ead132103b17a6b32161aa3a06f09a05095e44099f20ed57dece5ec135c9d200a05538e74210291db7c65c0c1ecba2911b47de0aea3d689b44d07eeb313d1f051e1b0169194a353ae"}, "vout": 0, "txid": "b3bb79048ba7d0d1f5cc273430c58951870d67cb63c49a9add97653671a8befb"}], "txid": "767bc4a8b7293f9262dcf7ebdfaf41359077e608f8ed85fd8b8365b281ab7165", "blocktime": 1537873282, "version": 2, "confirmations": 11481, "time": 1537873282, "locktime": 0, "vsize": 367, "size": 367}