{"hash": "767ee5effa690e8c6b3cb6569be2fdbc2e4cbc372525dd03ccd85b846bba55a6", "blockhash": "0000000000000000000e13cef7c366c0283d82e591d1acd082e914b08063cdf1", "vout": [{"scriptPubKey": {"reqSigs": 1, "hex": "a91470d33c4ce8b1af8e4a384b1e7f914b73d7d6d5d787", "addresses": ["3Byaew1RUZCVRUEweAumBo1Xn6eL9ADckm"], "asm": "OP_HASH160 70d33c4ce8b1af8e4a384b1e7f914b73d7d6d5d7 OP_EQUAL", "type": "scripthash"}, "value": 0.0109516, "n": 0}, {"scriptPubKey": {"reqSigs": 1, "hex": "a914dbaa8768a72eb8a6b17191e2f95b50535818388687", "addresses": ["3MiWC7WpdvENd1BWu6JKhmA3odmMxG2i7u"], "asm": "OP_HASH160 dbaa8768a72eb8a6b17191e2f95b505358183886 OP_EQUAL", "type": "scripthash"}, "value": 0.00462321, "n": 1}, {"scriptPubKey": {"reqSigs": 1, "hex": "76a914b6835a63fe388604641b25da2e23d696a46376bd88ac", "addresses": ["1He3LVAvgWEK7qcQCxsgSjTQAQvzuSjMbT"], "asm": "OP_DUP OP_HASH160 b6835a63fe388604641b25da2e23d696a46376bd OP_EQUALVERIFY OP_CHECKSIG", "type": "pubkeyhash"}, "value": 9.189e-05, "n": 2}], "hex": "010000000282119b4e854c4a5c17d2873aea285b6c4319fea9335193d1752f0c21d20a603305000000da00483045022100f8ae0ec6682fe310b305f4a22cf069c020f3fd7567c0cbebc5869bde293ee9180220172d7194846e9930e191fd7034225750b717be798af7fab120c14d6814663c35014730440220649e860fc78fef5ab15a8eb9295fa5a79c2d88038c722e2525698e6c4cb503df02206570363c398f27de5f49f353f11e647c5e8de52c77fd3205a376a1f3dbba53450147522102907a54bed8ad74b3f35638c60114ca240a308cb986f3f2f306178869a8880b612102d4505b1057cf6b4b7c92f8600df148f105e4fe7566c6ca1c04a0ecc288fb245c52aeffffffff3d9e9ba8d0be3ab654d2d0b274bd9200b836c19a0a0d3777ca470a4691c9d52f020000006a4730440220233a8fa7d4a0201d3aaf10f8c6ced5b63742a7218eebc6e94e4c5c940b0fdf5f02204ab1f1c362e32c26724cccad20f4e398ec0f0985dc0a64db9260091ea99e31440121031d8c2e4299f701c28b98e87268ec80c0ac6e8cd79598586d8ae4c2baef56005effffffff03f8b510000000000017a91470d33c4ce8b1af8e4a384b1e7f914b73d7d6d5d787f10d07000000000017a914dbaa8768a72eb8a6b17191e2f95b50535818388687e5230000000000001976a914b6835a63fe388604641b25da2e23d696a46376bd88ac00000000", "vin": [{"sequence": 4294967295, "scriptSig": {"hex": "00483045022100f8ae0ec6682fe310b305f4a22cf069c020f3fd7567c0cbebc5869bde293ee9180220172d7194846e9930e191fd7034225750b717be798af7fab120c14d6814663c35014730440220649e860fc78fef5ab15a8eb9295fa5a79c2d88038c722e2525698e6c4cb503df02206570363c398f27de5f49f353f11e647c5e8de52c77fd3205a376a1f3dbba53450147522102907a54bed8ad74b3f35638c60114ca240a308cb986f3f2f306178869a8880b612102d4505b1057cf6b4b7c92f8600df148f105e4fe7566c6ca1c04a0ecc288fb245c52ae", "asm": "0 3045022100f8ae0ec6682fe310b305f4a22cf069c020f3fd7567c0cbebc5869bde293ee9180220172d7194846e9930e191fd7034225750b717be798af7fab120c14d6814663c35[ALL] 30440220649e860fc78fef5ab15a8eb9295fa5a79c2d88038c722e2525698e6c4cb503df02206570363c398f27de5f49f353f11e647c5e8de52c77fd3205a376a1f3dbba5345[ALL] 522102907a54bed8ad74b3f35638c60114ca240a308cb986f3f2f306178869a8880b612102d4505b1057cf6b4b7c92f8600df148f105e4fe7566c6ca1c04a0ecc288fb245c52ae"}, "vout": 5, "txid": "33600ad2210c2f75d1935133a9fe19436c5b28ea3a87d2175c4a4c854e9b1182"}, {"sequence": 4294967295, "scriptSig": {"hex": "4730440220233a8fa7d4a0201d3aaf10f8c6ced5b63742a7218eebc6e94e4c5c940b0fdf5f02204ab1f1c362e32c26724cccad20f4e398ec0f0985dc0a64db9260091ea99e31440121031d8c2e4299f701c28b98e87268ec80c0ac6e8cd79598586d8ae4c2baef56005e", "asm": "30440220233a8fa7d4a0201d3aaf10f8c6ced5b63742a7218eebc6e94e4c5c940b0fdf5f02204ab1f1c362e32c26724cccad20f4e398ec0f0985dc0a64db9260091ea99e3144[ALL] 031d8c2e4299f701c28b98e87268ec80c0ac6e8cd79598586d8ae4c2baef56005e"}, "vout": 2, "txid": "2fd5c991460a47ca77370d0a9ac136b80092bd74b2d0d254b63abed0a89b9e3d"}], "txid": "767ee5effa690e8c6b3cb6569be2fdbc2e4cbc372525dd03ccd85b846bba55a6", "blocktime": 1537871767, "version": 1, "confirmations": 11494, "time": 1537871767, "locktime": 0, "vsize": 514, "size": 514}