{"hash": "768b6899e4eb2217b9c060223158cda27ba67f06645602fa971ff2bb19f4fff6", "blockhash": "0000000000000000001e0dab787dd257d1dbfcb92a98c2207d5e1078be1f4165", "vout": [{"scriptPubKey": {"reqSigs": 1, "hex": "a914b14ab2ebcb2259f89742a61bcdec900fd1ada20287", "addresses": ["3HrT1fkrHfRzPaG77jsrrPGk9t9MSqstY6"], "asm": "OP_HASH160 b14ab2ebcb2259f89742a61bcdec900fd1ada202 OP_EQUAL", "type": "scripthash"}, "value": 0.0027548, "n": 0}, {"scriptPubKey": {"reqSigs": 1, "hex": "76a91422221eced2f4a1973c8f87d1989cdc4f39fa4b3d88ac", "addresses": ["147UrFE332xVc5FV3cTX7wdpgoDNtafbtF"], "asm": "OP_DUP OP_HASH160 22221eced2f4a1973c8f87d1989cdc4f39fa4b3d OP_EQUALVERIFY OP_CHECKSIG", "type": "pubkeyhash"}, "value": 0.0036702, "n": 1}], "hex": "0100000001f85bc7d3d5eaad1a4d05373e6d429b90100ce097a8e920630158ebea7127a46d010000006b483045022100f475143247c8aea65bff8999b6b2a656d0c6e417227ce14704e1fd9606af81110220173ced69e4beab1131b2e680859dae7a24d86afc446217aa36f8b15edfa67eda0121027aabb69198c91d781062ebf1f567f5a53a288fdeaecfc7e75b65a88102a16197feffffff02183404000000000017a914b14ab2ebcb2259f89742a61bcdec900fd1ada20287ac990500000000001976a91422221eced2f4a1973c8f87d1989cdc4f39fa4b3d88ac12490800", "vin": [{"sequence": 4294967294, "scriptSig": {"hex": "483045022100f475143247c8aea65bff8999b6b2a656d0c6e417227ce14704e1fd9606af81110220173ced69e4beab1131b2e680859dae7a24d86afc446217aa36f8b15edfa67eda0121027aabb69198c91d781062ebf1f567f5a53a288fdeaecfc7e75b65a88102a16197", "asm": "3045022100f475143247c8aea65bff8999b6b2a656d0c6e417227ce14704e1fd9606af81110220173ced69e4beab1131b2e680859dae7a24d86afc446217aa36f8b15edfa67eda[ALL] 027aabb69198c91d781062ebf1f567f5a53a288fdeaecfc7e75b65a88102a16197"}, "vout": 1, "txid": "6da42771eaeb58016320e9a897e00c10909b426d3e37054d1aadead5d3c75bf8"}], "txid": "768b6899e4eb2217b9c060223158cda27ba67f06645602fa971ff2bb19f4fff6", "blocktime": 1537872475, "version": 1, "confirmations": 11486, "time": 1537872475, "locktime": 542994, "vsize": 224, "size": 224}