{"hash": "22be5950b23268c678729c194b654e013f367cec73ca4b10ba213fda3784b4d8", "blockhash": "0000000000000000001e0dab787dd257d1dbfcb92a98c2207d5e1078be1f4165", "vout": [{"scriptPubKey": {"reqSigs": 1, "hex": "76a91458b262047a0bc9c2ef524291245d27328926a6af88ac", "addresses": ["195zA9B4VD9ztYmCwmnPbuGymETRx1oTBH"], "asm": "OP_DUP OP_HASH160 58b262047a0bc9c2ef524291245d27328926a6af OP_EQUALVERIFY OP_CHECKSIG", "type": "pubkeyhash"}, "value": 0.00045297, "n": 0}, {"scriptPubKey": {"reqSigs": 1, "hex": "a914fca349dbfc9b53feba0636bff8881c9541fe501187", "addresses": ["3QiqpNQGK1XUuv3FUQP6E1ViHxg6FQ9Us4"], "asm": "OP_HASH160 fca349dbfc9b53feba0636bff8881c9541fe5011 OP_EQUAL", "type": "scripthash"}, "value": 0.00244452, "n": 1}], "hex": "0100000000010175456bd1bf78fb8edaedfa64732452e0281627f8a9d67bbe2fea98c2fcd9012201000000232200202f52a3ddcd5e1f1ca6740f3f1692a1892b54442c07ec77e4a16e8603f4179493ffffffff02f1b00000000000001976a91458b262047a0bc9c2ef524291245d27328926a6af88ace4ba03000000000017a914fca349dbfc9b53feba0636bff8881c9541fe5011870400483045022100b1bbe73bbb82c5ba1bb8439df11904f88a04f8afefc4939fb68c31b0ed0ca2bc022021feacc3c0950f35156ef86b424c780bba4fe659bd983d4771fddd05d171980f01483045022100b023eddee89c83ac5cff4a286ec9e63deb7a32cf050c6698ff1de9536001017902204f65387c78f37a876006674de76b81942ae9f0de6e4ba3d3ddb5e467045d473d01475221024608091ed511c23f90c44d836c9c9ee63b4f065dc9187bc6d53735bb5ab8e929210272b0cdfbf7f3dd59c0aa752a078c84dddd13062081b565fb3201c9d4eb3356b652ae00000000", "vin": [{"txinwitness": ["", "3045022100b1bbe73bbb82c5ba1bb8439df11904f88a04f8afefc4939fb68c31b0ed0ca2bc022021feacc3c0950f35156ef86b424c780bba4fe659bd983d4771fddd05d171980f01", "3045022100b023eddee89c83ac5cff4a286ec9e63deb7a32cf050c6698ff1de9536001017902204f65387c78f37a876006674de76b81942ae9f0de6e4ba3d3ddb5e467045d473d01", "5221024608091ed511c23f90c44d836c9c9ee63b4f065dc9187bc6d53735bb5ab8e929210272b0cdfbf7f3dd59c0aa752a078c84dddd13062081b565fb3201c9d4eb3356b652ae"], "sequence": 4294967295, "scriptSig": {"hex": "2200202f52a3ddcd5e1f1ca6740f3f1692a1892b54442c07ec77e4a16e8603f4179493", "asm": "00202f52a3ddcd5e1f1ca6740f3f1692a1892b54442c07ec77e4a16e8603f4179493"}, "vout": 1, "txid": "2201d9fcc298ea2fbe7bd6a9f8271628e052247364faedda8efb78bfd16b4575"}], "txid": "768e0641b49e05793baf3b74e7c786bd2d09bb01bb72fc275855c92a6bf38134", "blocktime": 1537872475, "version": 1, "confirmations": 11487, "time": 1537872475, "locktime": 0, "vsize": 208, "size": 374}