{"hash": "7693cb7cca5c4ff57f211fe1a5b41a4a19bb2bfd09358294908aba9a49b184f7", "blockhash": "00000000000000000017f5eb5941039fbcee6240d03bc1f2f8e35350df66a1d8", "vout": [{"scriptPubKey": {"reqSigs": 1, "hex": "76a914679d9fe5d4b640f6b05de99cde9914bba1ce4c5888ac", "addresses": ["1ASsRi41HhZxVn8RM7mC2fGmZkirAMra5z"], "asm": "OP_DUP OP_HASH160 679d9fe5d4b640f6b05de99cde9914bba1ce4c58 OP_EQUALVERIFY OP_CHECKSIG", "type": "pubkeyhash"}, "value": 5.46e-06, "n": 0}, {"scriptPubKey": {"reqSigs": 1, "hex": "76a9140a6b825daa1b89f8e100ed8eec6d79b592500f4988ac", "addresses": ["1x6YnuBVeeE65dQRZztRWgUPwyBjHCA5g"], "asm": "OP_DUP OP_HASH160 0a6b825daa1b89f8e100ed8eec6d79b592500f49 OP_EQUALVERIFY OP_CHECKSIG", "type": "pubkeyhash"}, "value": 0.44444528, "n": 1}, {"scriptPubKey": {"type": "nulldata", "hex": "6a146f6d6e69000000000000001f00000002a1885100", "asm": "OP_RETURN 6f6d6e69000000000000001f00000002a1885100"}, "value": 0.0, "n": 2}], "hex": "0100000001f17c974557260854b86be9f79c0a0b6ec969fa1fa17c31c4660d421520f64c09000000006a47304402203811d19b51c04b8c594bac4015456d74baf0e872cd287a8e3bfdb3eb9187ea72022075410584bc5a8bf071b330e1954ce2ead15f87e8208c63c55cb37d2299ddec15012103fe02b06a6bfd9b5a83e0417430a3235a39a0b4c7973591ca27ac58f6474d9120ffffffff0322020000000000001976a914679d9fe5d4b640f6b05de99cde9914bba1ce4c5888ac702ba602000000001976a9140a6b825daa1b89f8e100ed8eec6d79b592500f4988ac0000000000000000166a146f6d6e69000000000000001f00000002a188510000000000", "vin": [{"sequence": 4294967295, "scriptSig": {"hex": "47304402203811d19b51c04b8c594bac4015456d74baf0e872cd287a8e3bfdb3eb9187ea72022075410584bc5a8bf071b330e1954ce2ead15f87e8208c63c55cb37d2299ddec15012103fe02b06a6bfd9b5a83e0417430a3235a39a0b4c7973591ca27ac58f6474d9120", "asm": "304402203811d19b51c04b8c594bac4015456d74baf0e872cd287a8e3bfdb3eb9187ea72022075410584bc5a8bf071b330e1954ce2ead15f87e8208c63c55cb37d2299ddec15[ALL] 03fe02b06a6bfd9b5a83e0417430a3235a39a0b4c7973591ca27ac58f6474d9120"}, "vout": 0, "txid": "094cf62015420d66c4317ca11ffa69c96e0b0a9cf7e96bb85408265745977cf1"}], "txid": "7693cb7cca5c4ff57f211fe1a5b41a4a19bb2bfd09358294908aba9a49b184f7", "blocktime": 1537874412, "version": 1, "confirmations": 11466, "time": 1537874412, "locktime": 0, "vsize": 256, "size": 256}