{"hash": "76948d698462a1c31f00a44e79940fedfeb1ff0c7412078553602081675bbc44", "blockhash": "0000000000000000001cda96e906b7601b7a6fb1a3b62bca570a9e5d8f4b3de1", "vout": [{"scriptPubKey": {"reqSigs": 1, "hex": "76a914e7edd28206acdc78df4a0746e6fac889f8929b9288ac", "addresses": ["1N9KzVkTusXZbYB2ryFu4SUbYohRA1761x"], "asm": "OP_DUP OP_HASH160 e7edd28206acdc78df4a0746e6fac889f8929b92 OP_EQUALVERIFY OP_CHECKSIG", "type": "pubkeyhash"}, "value": 1.433e-05, "n": 0}, {"scriptPubKey": {"reqSigs": 1, "hex": "a914fa6598565de06e12439a19d93e0191e4f011ba3787", "addresses": ["3QWzZT5Uvdikrhj1VFGw8iB7T8zfjTAF3s"], "asm": "OP_HASH160 fa6598565de06e12439a19d93e0191e4f011ba37 OP_EQUAL", "type": "scripthash"}, "value": 0.00136, "n": 1}], "hex": "010000000160c5fa00be0f8f823b129a1241708fa997b65a219fb8fd732a4bdd8d5cf7d7cf070000006a473044022060ad80d383ad99d674e4cf87d191d8e2f4dcd3308f664fc4225d92ff96645018022065e191a44b6c62419b84063e33c7d992f9549e68df2d7cd46587ea57bcf7e7780121027d2de2284e731df39c4e69d77689ae1b5d5dde6e99d53ae3ae5294bd627d3447ffffffff0299050000000000001976a914e7edd28206acdc78df4a0746e6fac889f8929b9288ac401302000000000017a914fa6598565de06e12439a19d93e0191e4f011ba378700000000", "vin": [{"sequence": 4294967295, "scriptSig": {"hex": "473044022060ad80d383ad99d674e4cf87d191d8e2f4dcd3308f664fc4225d92ff96645018022065e191a44b6c62419b84063e33c7d992f9549e68df2d7cd46587ea57bcf7e7780121027d2de2284e731df39c4e69d77689ae1b5d5dde6e99d53ae3ae5294bd627d3447", "asm": "3044022060ad80d383ad99d674e4cf87d191d8e2f4dcd3308f664fc4225d92ff96645018022065e191a44b6c62419b84063e33c7d992f9549e68df2d7cd46587ea57bcf7e778[ALL] 027d2de2284e731df39c4e69d77689ae1b5d5dde6e99d53ae3ae5294bd627d3447"}, "vout": 7, "txid": "cfd7f75c8ddd4b2a73fdb89f215ab697a98f7041129a123b828f0fbe00fac560"}], "txid": "76948d698462a1c31f00a44e79940fedfeb1ff0c7412078553602081675bbc44", "blocktime": 1537873282, "version": 1, "confirmations": 11485, "time": 1537873282, "locktime": 0, "vsize": 223, "size": 223}