{"hash": "4cf8e547dfc577cedec680830541da9e2dca19c3201ec550c4dfbe739e85f7ea", "blockhash": "0000000000000000001e0dab787dd257d1dbfcb92a98c2207d5e1078be1f4165", "vout": [{"scriptPubKey": {"reqSigs": 1, "hex": "76a914dee956397c279922e592ffd0fb0d5a8e724e32e788ac", "addresses": ["1MKeY7XKFrLiVy79jLSfRAFWkb9r9CFL3Q"], "asm": "OP_DUP OP_HASH160 dee956397c279922e592ffd0fb0d5a8e724e32e7 OP_EQUALVERIFY OP_CHECKSIG", "type": "pubkeyhash"}, "value": 2.655e-05, "n": 0}, {"scriptPubKey": {"reqSigs": 1, "hex": "a91433f7fc5eb2f598ffb7d46f2a0f0da89bce367db687", "addresses": ["36RoTgd3sydfYkC1fSzcSBGB7SUcdpUwEN"], "asm": "OP_HASH160 33f7fc5eb2f598ffb7d46f2a0f0da89bce367db6 OP_EQUAL", "type": "scripthash"}, "value": 0.00152888, "n": 1}], "hex": "01000000000101269cb8ffcdc5a53f14329ccd8461b74249d0435b31e783938c936bd67c9832920000000023220020e3391b8de51d079c0407857a88a814c7221bf42299bbc72506ac8bb56fb85a7effffffff025f0a0000000000001976a914dee956397c279922e592ffd0fb0d5a8e724e32e788ac385502000000000017a91433f7fc5eb2f598ffb7d46f2a0f0da89bce367db6870400483045022100a8f09a74abaa257fbebc257748062c173d36488d72c20ec6d7e90c7d983c820c02203e708a3d2af88a64b1d71c02fa0c41c5adf0a5005e3ebf627d6679d6784e3d6301483045022100b6e99df8ac293bd2d29f1ea78808fc5fdb2728e65eaa85babec4e1e4132d168e02204dad13fdf68ca30e5165cd93e9097712e7abf536350a4d4a2993466a729561a5014752210239724553746f2a8c533b0ec7cf57e3189725753d45c2f3b16d09b7808c0085c621030580d373ab00643a581abb399b43fa66d7b6fc29624eb75b2d5ec8d99faa163f52ae00000000", "vin": [{"txinwitness": ["", "3045022100a8f09a74abaa257fbebc257748062c173d36488d72c20ec6d7e90c7d983c820c02203e708a3d2af88a64b1d71c02fa0c41c5adf0a5005e3ebf627d6679d6784e3d6301", "3045022100b6e99df8ac293bd2d29f1ea78808fc5fdb2728e65eaa85babec4e1e4132d168e02204dad13fdf68ca30e5165cd93e9097712e7abf536350a4d4a2993466a729561a501", "52210239724553746f2a8c533b0ec7cf57e3189725753d45c2f3b16d09b7808c0085c621030580d373ab00643a581abb399b43fa66d7b6fc29624eb75b2d5ec8d99faa163f52ae"], "sequence": 4294967295, "scriptSig": {"hex": "220020e3391b8de51d079c0407857a88a814c7221bf42299bbc72506ac8bb56fb85a7e", "asm": "0020e3391b8de51d079c0407857a88a814c7221bf42299bbc72506ac8bb56fb85a7e"}, "vout": 0, "txid": "9232987cd66b938c9383e7315b43d04942b76184cd9c32143fa5c5cdffb89c26"}], "txid": "7694c7da74e8261b3077af50cfee3d7eaab1996bfd7d6ed9bb1f980935cc421f", "blocktime": 1537872475, "version": 1, "confirmations": 11487, "time": 1537872475, "locktime": 0, "vsize": 208, "size": 374}