{"hash": "7694a663ab52e77db8ac8502ec09417edcb47262e5aefb7d32d62aa07ecf9c4a", "blockhash": "0000000000000000000e13cef7c366c0283d82e591d1acd082e914b08063cdf1", "vout": [{"scriptPubKey": {"reqSigs": 1, "hex": "76a9148a8a75d854e27e3801efcfa3d695dabcf869e79a88ac", "addresses": ["1DdY7sBKX5MzRBFaZ6baHeRC9UzbVfCmyg"], "asm": "OP_DUP OP_HASH160 8a8a75d854e27e3801efcfa3d695dabcf869e79a OP_EQUALVERIFY OP_CHECKSIG", "type": "pubkeyhash"}, "value": 0.66120344, "n": 0}, {"scriptPubKey": {"reqSigs": 1, "hex": "a91495e9e4b34aa731574a7bf4b15935a32d6877408587", "addresses": ["3FMgoKdnLnZRQXnHtQG3bFyVMmUj2dJz94"], "asm": "OP_HASH160 95e9e4b34aa731574a7bf4b15935a32d68774085 OP_EQUAL", "type": "scripthash"}, "value": 0.046551, "n": 1}], "hex": "010000000121ec649738eb71ce97f0b68c8f5c1057b31f3a5c2fd37664fd187a05edbc4b2c000000006b483045022100ccfbae6e06f806147f03659547bda7721ec32a620c006665b1ecf2e4db9c978c02206eb846a743a24e344c88a49f23c2c65a8882dbfb96303d14277513b18a453fd60121037c5c8cb44fb5520758dcd16548e260917b1ae84afecff3d121fe23fc92579e98feffffff0298eaf003000000001976a9148a8a75d854e27e3801efcfa3d695dabcf869e79a88acfc0747000000000017a91495e9e4b34aa731574a7bf4b15935a32d687740858710490800", "vin": [{"sequence": 4294967294, "scriptSig": {"hex": "483045022100ccfbae6e06f806147f03659547bda7721ec32a620c006665b1ecf2e4db9c978c02206eb846a743a24e344c88a49f23c2c65a8882dbfb96303d14277513b18a453fd60121037c5c8cb44fb5520758dcd16548e260917b1ae84afecff3d121fe23fc92579e98", "asm": "3045022100ccfbae6e06f806147f03659547bda7721ec32a620c006665b1ecf2e4db9c978c02206eb846a743a24e344c88a49f23c2c65a8882dbfb96303d14277513b18a453fd6[ALL] 037c5c8cb44fb5520758dcd16548e260917b1ae84afecff3d121fe23fc92579e98"}, "vout": 0, "txid": "2c4bbced057a18fd6476d32f5c3a1fb357105c8f8cb6f097ce71eb389764ec21"}], "txid": "7694a663ab52e77db8ac8502ec09417edcb47262e5aefb7d32d62aa07ecf9c4a", "blocktime": 1537871767, "version": 1, "confirmations": 11490, "time": 1537871767, "locktime": 542992, "vsize": 224, "size": 224}