{"hash": "bcd71c344b7b4ecd31a18e88206f0b631b6ca9618151d019657ed240749d6f76", "blockhash": "0000000000000000001cda96e906b7601b7a6fb1a3b62bca570a9e5d8f4b3de1", "vout": [{"scriptPubKey": {"reqSigs": 1, "hex": "a914ae7e71ed8168f0e3f505bcf6b6b9c44bca5129eb87", "addresses": ["3HbeyUcnoVqfFcZmbMgmuBgcRn26ecMJ6u"], "asm": "OP_HASH160 ae7e71ed8168f0e3f505bcf6b6b9c44bca5129eb OP_EQUAL", "type": "scripthash"}, "value": 0.67418212, "n": 0}, {"scriptPubKey": {"reqSigs": 1, "hex": "a91427911f099b266149016476ae46a4c7595634c05087", "addresses": ["35JE8E3UBdS8NUjFBiQS7cyiJQbGV985Nw"], "asm": "OP_HASH160 27911f099b266149016476ae46a4c7595634c050 OP_EQUAL", "type": "scripthash"}, "value": 0.47109714, "n": 1}], "hex": "020000000001011d167a72425bd9425d18a3687a4e01eb90562c4f956787dd39f767829906853f0000000017160014f7a71b49534e13ae0403703f430fd6a10498144afeffffff0264b804040000000017a914ae7e71ed8168f0e3f505bcf6b6b9c44bca5129eb8752d6ce020000000017a91427911f099b266149016476ae46a4c7595634c0508702473044022036298b97110ca13a0236e7467f547626601ac30011bf00173eae010a6ea10f4d02206d835809014b71d4280c405525c77347ec78e42ab38d355bbb26e34271ae50c70121022095c6fdbee46084c3375a3b832ebe51ddd870c333c71bf21dff680ba96843bf13490800", "vin": [{"txinwitness": ["3044022036298b97110ca13a0236e7467f547626601ac30011bf00173eae010a6ea10f4d02206d835809014b71d4280c405525c77347ec78e42ab38d355bbb26e34271ae50c701", "022095c6fdbee46084c3375a3b832ebe51ddd870c333c71bf21dff680ba96843bf"], "sequence": 4294967294, "scriptSig": {"hex": "160014f7a71b49534e13ae0403703f430fd6a10498144a", "asm": "0014f7a71b49534e13ae0403703f430fd6a10498144a"}, "vout": 0, "txid": "3f8506998267f739dd8767954f2c5690eb014e7a68a3185d42d95b42727a161d"}], "txid": "76a5d3c084377da8a406f79e4d8977efd9be083cfbc6a30e72830dbb431cc0c0", "blocktime": 1537873282, "version": 2, "confirmations": 11484, "time": 1537873282, "locktime": 542995, "vsize": 166, "size": 247}