{"hash": "c71644d4a3f266b57d91d37f2066b96cbdd08c18b8e90b0d68361b5a444ee0e5", "blockhash": "0000000000000000000e13cef7c366c0283d82e591d1acd082e914b08063cdf1", "vout": [{"scriptPubKey": {"reqSigs": 1, "hex": "76a91445f1c808f8a81c7e845cb9212e3e92f08b7e9e9888ac", "addresses": ["17NqGW6HY3f2LY7wFkEDn9yXpq8LWMRMEQ"], "asm": "OP_DUP OP_HASH160 45f1c808f8a81c7e845cb9212e3e92f08b7e9e98 OP_EQUALVERIFY OP_CHECKSIG", "type": "pubkeyhash"}, "value": 7.0, "n": 0}, {"scriptPubKey": {"reqSigs": 1, "hex": "76a9141b5b3f21bfebd32af019c37acb95f5726abc809988ac", "addresses": ["13VeZ762V7uY4WmagJhX1e8ko6bgDEJSNe"], "asm": "OP_DUP OP_HASH160 1b5b3f21bfebd32af019c37acb95f5726abc8099 OP_EQUALVERIFY OP_CHECKSIG", "type": "pubkeyhash"}, "value": 0.00041238, "n": 1}], "hex": "0200000000011d1639c87bf6ccf4088620f8e1d49c46d04e8070d75ec4b9c78b68bfabd4f98a5501000000171600141a0e485c46a65953baa9011e297cea65e3fb3ee8feffffff1672fe2fe76f15009c68b9e37615a7c1b600acc1a16a926deb2d5696b20b5e3500000000171600147df47a6fdfda514530ce27768ca73bc05e081fe5feffffff1c69c3e9bfbc9c8581d7d1210a22a196f1afa946a872bdf5db11ca9596ff0c640200000017160014515c4b5d2b5eec202fc4672eb81732cda5058005feffffff23daebcbb639cf40e8fe680aefcfc99ba9e797f074085c58ff88edf28573bfe00000000017160014b2c978c96050851baeceb895c288b270ef0067bffeffffff26264eb09aad5dfe975fdbfae8da4cd25b77ec35fac3e0796a5a1e1a93e2d0010000000017160014278f4d737b33f53ffee0d7e45d78ce93e606a19dfeffffff33f594424fdf346a7c6ca1cd5a3c1ca6a0cf7425344a70aa3060c97040faefc30100000017160014e3dc279cd4ff10c9eb9ef33484ef3c96d26ab667feffffff3b8b2a1fd3b5cb67a75298a3a3495db5d979e4c64259d4e0c3366002c58369a00000000017160014a769abeae8c3e73d195998d787ddcbe2333dddcbfeffffff4670e9458340683e30eeae1162c5790cc34132a330930b3c2083d98861a82d7b0000000017160014af0229c238ffac4bfb43884035e8aaed728d9f75feffffff4b2052caa3846392c1a067fda621412b3c71ec136e4385705b7cb5f839059765000000001716001474f232144e583bffbe40649f8f1f521b026f9a7efeffffff4cacbc72cc638721b3ae51371e8e38e442f150e9b21c6ad55da1f426b764874800000000171600149a1afe44fc88fd54e51c937fa9f2ccc4434cdc8dfeffffff4fe9d2267c4b42aa06f70c6506101bb3d04ea28a6e99b7d8b1ac6f3adedf34c5000000001716001482ca652db26f03d2e03fed9478fad9e0bb74e520feffffff5672fc83d154added31a13d2a93d468e8073c81f8b221d5fcb034592a2c3c9790100000017160014f18695ef1b66a60bd3dc0f08176581d65e272278feffffff73709154d116267656976474aba3249ae76436dae4eaa6337c11db8ebdfee4ed0000000017160014672e8b47fad696ccf2881b29a649c847361f63cefeffffff75ae4715e210dd8b177e2cb5079f7c7c2803aabb805da6b63bb865562a8cfcdf0100000017160014a6f0a77dd850fba8f9570448e147aaaf04bf6cf2feffffff77a0a028e37c25e218fd087111248c44bd92b6bfda2f88c8de788843f95106e400000000171600141588e35cf4f0de42b203ca7d36485a200dbb4374feffffff7a66f898b1acdb2d43dc94212d04004fae43cd95a716747fb090e8ae6a2e06550000000017160014a869c2cc2692c16378638592a450dc77ea01b1abfeffffff7d4ae2b57f62e39edf4249cd689a18789487e005e3ef4c6246a32df6f76430810000000017160014fe89a3f57bade8436fe132128bbab88f6a3dc0a3feffffff83c7ac310fa0cd16156a9cf98bdbd6f461588cc8cffbcc11deca5d78fc2b1b180100000017160014743095f51a0e63e4f0339fa0eccd2ccee9e52eeffeffffff90fa9e8a614e4b61df5d02351275dddca9a71d7770fb968fe1b1d96fa36db27b00000000171600143127739028860957bd9b9d6d9fac2f759aff0e2bfeffffff91ddeb0b3eea160d7e58c2ae92898f24a954edaf391546c465afc249831e985d0000000017160014bab7f9ef06352de0417d29747f253b464a0ecf1cfeffffff94cf65dc73b83de61d3707b0b9169bf4c0068c6820323910d5553c4cea703e740100000017160014ace1f1809c6c988a763bd77caf3eacf592e060a9feffffffa4eb2e297dd3d3ca9f7a5c403f79f1067b40978dd20a8e2a39b36b99f035aa4c00000000171600142f482e2fb7895e1f54836ffc960feaad0fbf88f9feffffffa7079cd86d9deadcb4436fc4f8560b9efd88648b9dcc3a2f11e089d3afc6e4f0000000001716001442dd96f9474c769bb31a8033b2a0a8782a67095bfeffffffb5a5c3cc69a365d45e61a54e052b513213c964e28f92d26c404fa5bd6b9f112f000000001716001462c1d0a329b98174df5e3537f8de8475f0baf457feffffffc07212ceaca8dcb713d19b73da06444d820b28e431a5aed9d1a8b33917e13f310000000017160014432686d6da6bfa8680eae8be4a17a31a299262f3feffffffcb0614412933ffd5b8cc82dba9bc0b1d63e0a7f957e5cef449ffecbf531cc74f01000000171600144464563cb75b2e7d64343adebc8ed8c8a9d48b29feffffffd195774372997a7e352da1f924b93853c5f9c89964455e81a529ce2c1291eb680000000017160014661ae53fa5674e510ef95032547c9ef118f1c959feffffffdbc876a7849e0c363098ea9e22ce0bb9ea31fc48fe341ff740a1b748d7026c84000000001716001495de022e2535f8c618c5303c62bbf488899234aafeffffffdd2d00752d882f8dfdcc1ea93af6bc805326dcffff23a087c59b47d3616281be000000001716001433e500f9b8d3cbba62d4e27fff2c317e3b6cc2d2feffffff020027b929000000001976a91445f1c808f8a81c7e845cb9212e3e92f08b7e9e9888ac16a10000000000001976a9141b5b3f21bfebd32af019c37acb95f5726abc809988ac02483045022100ad3b0acea1f9f914c45ceab973848ebe59cf9f4093b4e89cd79b9fb1855ced5f02207b44c84a9514b29ac467ebb264696db36c47a355e006ca18311a55e98266f10d0121020928662d49b6c40a49dc7846c6b79f7081bedc7d28caebc63dc13765db03014d024730440220146850074b5d8f27d42a2b7384410b05ae701bb1ede5d2e542431f74a1f2725a0220708984d8b89787f641fda796947a603fd1f08fe6f9050bcd7358e9e8ffa022f2012102091b2b51131f6e4dbe55ab428b992489a9b3ef5860b2a12fda43bdcdb6437f830247304402202eba3f2837903fd5cdceacac6aa04bc16870064736603ef4498261da2f2861b902205fa5ab47f9885d5c29d7da3e0cbbaa6a991a9ffc6a14b0bb1e302cc2794258a00121027cd1299ccca9c7180b00d371303e5c4783cc6f7212e659bb30df53e18717861a0248304502210086ad4094fb6ae2b6e01a767757f2ffb5fa37ff8ee7d672ce83092c06ef22f4c602205176dd22c2d4e33318eef2175c03f26d0f211de56055cc2a31909fee93989442012102387708b1ef25eedca970fb0aac1b0c9e5854617834a5a75ca55aedca1a207d220247304402205648c5dcc69e480b98ebf1d9df6dbec69ee6ba66a731afd6b5e0c9463a9a19ea02207a1f819b9c9696d462ac5b0ee8c2e1f5226cb89b9367af9af2ad974eea4123ca0121031849469fe961021ae80aee3caf859838fe7c57482be8c74796be2b0161df474d0247304402201c0ca930536411959b7055fe56da0e082f86a093a45b7738e0aa56be61a273b202204b08fa71ec6b306ecf929cebb2767872acb8a579873300ecc6daaedae69556cd012102b026a73f2acd5af1c4b0f5e5808e14bbda8b7025e2c5e0232181d2b51307704102483045022100958cf5742f66ebaca6784e15b367c08caa5b6eef3febf5221f2ba46dccdc41fe02207e51da5aceae542248742dccd042ef3c81a08c145dbcbd4182d3f1b1d3d3a1f701210202fe3c40123e5e22d1457024017f8e6e4d0e5f82b3e78a334ccc8ce42c76c06402483045022100f34f8d4caa8e77689ffaccc88f84c648f1292612c9ede0e781257fbc031ac53802206e14d5ac6e05ae823764a76739c8af0d9abf36ac3dce4caaf08778634a360067012103e30fd9f2ff4fe1442b9865e4e1b0d3f3a82dff49e79bb628e568e8d766612ba8024830450221008ce4cf5e7606f1bc1356dd8bfed3f1166e0930f9467340fdc642747b0eb55214022025d8e97ed6e6fc09115ebaa9cb406f70733c0e8b734e33411e4de700fd417b4701210276081dbdf583a792943f8e7d22ef1aa7ad49f4f6949569d5577c21c4e4062e6202483045022100ed7514b701093c797f8b301d4624943d212604ba13c62ccc8dfe9cf70cebf54902203bcf1e4b4ee9737c85873f43b67e11cdd00ed87e201f7a743936df55e07737110121034e7d59b053c53451d091f499cb96d3cfbf91b555da215085722ef577cd33cb14024730440220014058d09cb9ce6a2974a77ae36fb6852c03f94b8e4c1058259991874f7d54e502201c5de042a5d50e58e0a3f1376d6dc08db3c8c20fa6fed254e5cbdbaf2d53115c012102113654a5e0e48bbd92e12b34cb9194c68ed4b74b20464e609974191c233b7ea30247304402202ce7fe6439299fecd5aec31a59473753c09f4dccd51a3ac41d83c96c8ad3b85602207fe32a27c05c60f9ad594afc5d66342e3385573506ad26620cfe0de982e9bfd8012102709020c7ca4deaccd3a80bde3ec312e9271e03641617ca5b62adf0671c7c7b7402473044022036f3760c11c479477c4e08867e09057976060eee8cdd3b3f51d5df563b30523502201830e0725b7d9eebe95d67dd3f3e15a2446ad0c113ed96b93a40609e5dbc5d2c012102e1baecd892af841d57efb98b8491010a5a84d8a58bd725c9b3c02b4324d87da8024830450221009f9f3e00e5b093e333296cb3838f93a8e84e338446c8df7dddf91964e62596ba02201cc892481492da8ee6b0f50abba5f1b67adf0d7e65142e16d4ba2e582fa5864e012102bc6ef5069b11b57b25fb9e9024c6a7f44ca2e291580d50cc5b97c1deb52dfb0602483045022100afb359a81fe4a48aea531c018eea3a36f489b5a616376285548d47a549f819b8022010ae0930144575083fa711dfa910f4f205effb0839106e0476c7e117c4a3b39c012103df4fda11c856f09472a70daa61484be01d0bd738b7523ea0552d98880bb2c220024730440220014ff94d60e463e54a581a6b9e82f4ce61c711094074446d28add440038271f6022047693848f3827c43f06671a2cd24224f862d0c07b8fb1c4003a6eb55383d548b0121031a8761bb96a4ffa4e9a92063fe350a865716f23aa20204c992e06a0cc63c06a402473044022008da9c4cf605e0d4782c8bec6e6268ec4f70e63bf848f6f7f248b3b019a2901702205773155dda177982dbc4ee01a90e33605f5ee7588c9a3aad2368b73a56de8da3012103dcf3b032fd35e79c7c73a9aec467e905c3341606696bff974431120fa19f1bc402483045022100fcbd0207c531da26bfcb35c42c38788a405cc6982cfa63243305ecdccd6e0c2f022004e7cbecab668f3ef4242b0296724d9baff5e7805c04fc229a644e79d2ce7ba80121028afe479016da0ec4b016c6b8fb4171cb634aa4651a6c6ac38aa015b6c23143e0024730440220598d71b1880bdefb4c0aa54b02aef8f918c7fbf7de19524dc20d6ca3959fc1df022001eae301c3c26174242fe3c7a4b12696e5dffc308b0b338e3471d6f01678a0bc0121021e7f7dee218f279cca3a591e4ac13478d55de03cd8c95cbc97f84ce4e286e1620247304402203e6e1456e0545e04f37f585f12f3ec4dec639ed105c7adedbee263514ae7e6f802207b6b32fed0fae67144b6d7f94e960c1ad7cf717ee7705399a12d61ee105ff0c30121023481949d49917a75d82877507f9df9cafdf4f97bdba65936dfc63e0c6e74e33402483045022100feab118b399d230490670d83105b9f74fe16cdf078d033e4b36b9d37cb28c9ad022061ed1385846371cdf6b6cd5d913e0139eb9611ca82c4309b7f8ba9d7bc6ce2a00121028781468078257bc35b79a3e6c4b0fd4d857004ab3d2cb1a7b8b5e158fab0b74e02473044022005805eb029ef8000cb94c7892a90bc264bc9575ce1d5b45e9c34b32c4f8f3b42022002c073480c13ba0769c0408b34a04be92c0d3e38b1ab21e587d43365da915938012102e72b80c1dfcf61dbe25aa66661a47744ed664c0c72bb1bb5f8c2cd147e065589024830450221009d396d6b129e02de550878254109a3776cbbbbebe7368ebdbc6f4b0d1d77bc6b0220306b30d2765df1fa087985debcf70369979651c83d3c8a30c1daf3636913f4ae012103dde7b305b01c067476cdc453afdfff679e8f2620da68cf192cc5c9b68afc63cb02483045022100fe23634535762822e0f87926bb612be0de368eec0341353f41496197124614ce02204dc04e040e3db9ba2dfe1cf43f3cacca6174624bd7c7a37281285dca9516acea012103db146a9363f0f5a0cecd1a732c2d2a59fe8fef22943f75d715e8a95f6b15b7e502483045022100e979172d4a4eabf430f56faaeec74c82fa51cbfef4a0a3462e8c1c50e4ec7f1d022079088db0eee8f71b43194947b0de5e3ec1b3288339ac1333a0f63074cb26af0901210240d7810a9c47c69c00502ea038812ff20b8b5b3e58a09fc42def3665090c5cc802473044022072fc98e81f69fc7fe1b527045346d2c64b40b73f8f5714853345a401d6ea880c022039d4a2c90e53790779533108fcaf6679fea0383b7677d7be136609e131d5ec7601210378bd79fbd51c30d64e9e78a5eae9401e8bbc77ff64dacaff3e9a9239679c6ac6024730440220226164aa53eb1f3310fc25e73c40db66272d1a7357537cab14cf7c4035de68a1022060236063d52c76e73b72b4ac104e61d3d2115726146f7a1a162353d75ce51b5f012103e7ff308c5ae86bca2db2615b78a86c95573c09e4b3eaca99d95ff31083d4b15302483045022100ca85fb4e567b13f9a4d2d741d08ecce12904eaedbe5c43f1c143df65bd86966902203443b63e1b63e418e1f834085251abfa9e9634d20c5e83586be0600bdf9f3c760121028af9f485d5c585148f74cc57f283ca357ae19b989626339f4be38ff1a719a68702483045022100ce359f95a4a35a39f12e3dc33526477ace3d1498709d18134a75b311b3ee44a002205695e500c625699c63cbd34f203e32278282ffc5f7d0208595f696b096ce0731012102e6fcf53c61f2d4ab6556c23becca5eda33c20b735cbc1ef8ec76757b87e6e13cd3480800", "vin": [{"txinwitness": ["3045022100ad3b0acea1f9f914c45ceab973848ebe59cf9f4093b4e89cd79b9fb1855ced5f02207b44c84a9514b29ac467ebb264696db36c47a355e006ca18311a55e98266f10d01", "020928662d49b6c40a49dc7846c6b79f7081bedc7d28caebc63dc13765db03014d"], "sequence": 4294967294, "scriptSig": {"hex": "1600141a0e485c46a65953baa9011e297cea65e3fb3ee8", "asm": "00141a0e485c46a65953baa9011e297cea65e3fb3ee8"}, "vout": 1, "txid": "558af9d4abbf688bc7b9c45ed770804ed0469cd4e1f8208608f4ccf67bc83916"}, {"txinwitness": ["30440220146850074b5d8f27d42a2b7384410b05ae701bb1ede5d2e542431f74a1f2725a0220708984d8b89787f641fda796947a603fd1f08fe6f9050bcd7358e9e8ffa022f201", "02091b2b51131f6e4dbe55ab428b992489a9b3ef5860b2a12fda43bdcdb6437f83"], "sequence": 4294967294, "scriptSig": {"hex": "1600147df47a6fdfda514530ce27768ca73bc05e081fe5", "asm": "00147df47a6fdfda514530ce27768ca73bc05e081fe5"}, "vout": 0, "txid": "355e0bb296562deb6d926aa1c1ac00b6c1a71576e3b9689c00156fe72ffe7216"}, {"txinwitness": ["304402202eba3f2837903fd5cdceacac6aa04bc16870064736603ef4498261da2f2861b902205fa5ab47f9885d5c29d7da3e0cbbaa6a991a9ffc6a14b0bb1e302cc2794258a001", "027cd1299ccca9c7180b00d371303e5c4783cc6f7212e659bb30df53e18717861a"], "sequence": 4294967294, "scriptSig": {"hex": "160014515c4b5d2b5eec202fc4672eb81732cda5058005", "asm": "0014515c4b5d2b5eec202fc4672eb81732cda5058005"}, "vout": 2, "txid": "640cff9695ca11dbf5bd72a846a9aff196a1220a21d1d781859cbcbfe9c3691c"}, {"txinwitness": ["304502210086ad4094fb6ae2b6e01a767757f2ffb5fa37ff8ee7d672ce83092c06ef22f4c602205176dd22c2d4e33318eef2175c03f26d0f211de56055cc2a31909fee9398944201", "02387708b1ef25eedca970fb0aac1b0c9e5854617834a5a75ca55aedca1a207d22"], "sequence": 4294967294, "scriptSig": {"hex": "160014b2c978c96050851baeceb895c288b270ef0067bf", "asm": "0014b2c978c96050851baeceb895c288b270ef0067bf"}, "vout": 0, "txid": "e0bf7385f2ed88ff585c0874f097e7a99bc9cfef0a68fee840cf39b6cbebda23"}, {"txinwitness": ["304402205648c5dcc69e480b98ebf1d9df6dbec69ee6ba66a731afd6b5e0c9463a9a19ea02207a1f819b9c9696d462ac5b0ee8c2e1f5226cb89b9367af9af2ad974eea4123ca01", "031849469fe961021ae80aee3caf859838fe7c57482be8c74796be2b0161df474d"], "sequence": 4294967294, "scriptSig": {"hex": "160014278f4d737b33f53ffee0d7e45d78ce93e606a19d", "asm": "0014278f4d737b33f53ffee0d7e45d78ce93e606a19d"}, "vout": 0, "txid": "01d0e2931a1e5a6a79e0c3fa35ec775bd24cdae8fadb5f97fe5dad9ab04e2626"}, {"txinwitness": ["304402201c0ca930536411959b7055fe56da0e082f86a093a45b7738e0aa56be61a273b202204b08fa71ec6b306ecf929cebb2767872acb8a579873300ecc6daaedae69556cd01", "02b026a73f2acd5af1c4b0f5e5808e14bbda8b7025e2c5e0232181d2b513077041"], "sequence": 4294967294, "scriptSig": {"hex": "160014e3dc279cd4ff10c9eb9ef33484ef3c96d26ab667", "asm": "0014e3dc279cd4ff10c9eb9ef33484ef3c96d26ab667"}, "vout": 1, "txid": "c3effa4070c96030aa704a342574cfa0a61c3c5acda16c7c6a34df4f4294f533"}, {"txinwitness": ["3045022100958cf5742f66ebaca6784e15b367c08caa5b6eef3febf5221f2ba46dccdc41fe02207e51da5aceae542248742dccd042ef3c81a08c145dbcbd4182d3f1b1d3d3a1f701", "0202fe3c40123e5e22d1457024017f8e6e4d0e5f82b3e78a334ccc8ce42c76c064"], "sequence": 4294967294, "scriptSig": {"hex": "160014a769abeae8c3e73d195998d787ddcbe2333dddcb", "asm": "0014a769abeae8c3e73d195998d787ddcbe2333dddcb"}, "vout": 0, "txid": "a06983c5026036c3e0d45942c6e479d9b55d49a3a39852a767cbb5d31f2a8b3b"}, {"txinwitness": ["3045022100f34f8d4caa8e77689ffaccc88f84c648f1292612c9ede0e781257fbc031ac53802206e14d5ac6e05ae823764a76739c8af0d9abf36ac3dce4caaf08778634a36006701", "03e30fd9f2ff4fe1442b9865e4e1b0d3f3a82dff49e79bb628e568e8d766612ba8"], "sequence": 4294967294, "scriptSig": {"hex": "160014af0229c238ffac4bfb43884035e8aaed728d9f75", "asm": "0014af0229c238ffac4bfb43884035e8aaed728d9f75"}, "vout": 0, "txid": "7b2da86188d983203c0b9330a33241c30c79c56211aeee303e68408345e97046"}, {"txinwitness": ["30450221008ce4cf5e7606f1bc1356dd8bfed3f1166e0930f9467340fdc642747b0eb55214022025d8e97ed6e6fc09115ebaa9cb406f70733c0e8b734e33411e4de700fd417b4701", "0276081dbdf583a792943f8e7d22ef1aa7ad49f4f6949569d5577c21c4e4062e62"], "sequence": 4294967294, "scriptSig": {"hex": "16001474f232144e583bffbe40649f8f1f521b026f9a7e", "asm": "001474f232144e583bffbe40649f8f1f521b026f9a7e"}, "vout": 0, "txid": "65970539f8b57c5b7085436e13ec713c2b4121a6fd67a0c1926384a3ca52204b"}, {"txinwitness": ["3045022100ed7514b701093c797f8b301d4624943d212604ba13c62ccc8dfe9cf70cebf54902203bcf1e4b4ee9737c85873f43b67e11cdd00ed87e201f7a743936df55e077371101", "034e7d59b053c53451d091f499cb96d3cfbf91b555da215085722ef577cd33cb14"], "sequence": 4294967294, "scriptSig": {"hex": "1600149a1afe44fc88fd54e51c937fa9f2ccc4434cdc8d", "asm": "00149a1afe44fc88fd54e51c937fa9f2ccc4434cdc8d"}, "vout": 0, "txid": "488764b726f4a15dd56a1cb2e950f142e4388e1e3751aeb3218763cc72bcac4c"}, {"txinwitness": ["30440220014058d09cb9ce6a2974a77ae36fb6852c03f94b8e4c1058259991874f7d54e502201c5de042a5d50e58e0a3f1376d6dc08db3c8c20fa6fed254e5cbdbaf2d53115c01", "02113654a5e0e48bbd92e12b34cb9194c68ed4b74b20464e609974191c233b7ea3"], "sequence": 4294967294, "scriptSig": {"hex": "16001482ca652db26f03d2e03fed9478fad9e0bb74e520", "asm": "001482ca652db26f03d2e03fed9478fad9e0bb74e520"}, "vout": 0, "txid": "c534dfde3a6facb1d8b7996e8aa24ed0b31b1006650cf706aa424b7c26d2e94f"}, {"txinwitness": ["304402202ce7fe6439299fecd5aec31a59473753c09f4dccd51a3ac41d83c96c8ad3b85602207fe32a27c05c60f9ad594afc5d66342e3385573506ad26620cfe0de982e9bfd801", "02709020c7ca4deaccd3a80bde3ec312e9271e03641617ca5b62adf0671c7c7b74"], "sequence": 4294967294, "scriptSig": {"hex": "160014f18695ef1b66a60bd3dc0f08176581d65e272278", "asm": "0014f18695ef1b66a60bd3dc0f08176581d65e272278"}, "vout": 1, "txid": "79c9c3a2924503cb5f1d228b1fc873808e463da9d2131ad3dead54d183fc7256"}, {"txinwitness": ["3044022036f3760c11c479477c4e08867e09057976060eee8cdd3b3f51d5df563b30523502201830e0725b7d9eebe95d67dd3f3e15a2446ad0c113ed96b93a40609e5dbc5d2c01", "02e1baecd892af841d57efb98b8491010a5a84d8a58bd725c9b3c02b4324d87da8"], "sequence": 4294967294, "scriptSig": {"hex": "160014672e8b47fad696ccf2881b29a649c847361f63ce", "asm": "0014672e8b47fad696ccf2881b29a649c847361f63ce"}, "vout": 0, "txid": "ede4febd8edb117c33a6eae4da3664e79a24a3ab74649756762616d154917073"}, {"txinwitness": ["30450221009f9f3e00e5b093e333296cb3838f93a8e84e338446c8df7dddf91964e62596ba02201cc892481492da8ee6b0f50abba5f1b67adf0d7e65142e16d4ba2e582fa5864e01", "02bc6ef5069b11b57b25fb9e9024c6a7f44ca2e291580d50cc5b97c1deb52dfb06"], "sequence": 4294967294, "scriptSig": {"hex": "160014a6f0a77dd850fba8f9570448e147aaaf04bf6cf2", "asm": "0014a6f0a77dd850fba8f9570448e147aaaf04bf6cf2"}, "vout": 1, "txid": "dffc8c2a5665b83bb6a65d80bbaa03287c7c9f07b52c7e178bdd10e21547ae75"}, {"txinwitness": ["3045022100afb359a81fe4a48aea531c018eea3a36f489b5a616376285548d47a549f819b8022010ae0930144575083fa711dfa910f4f205effb0839106e0476c7e117c4a3b39c01", "03df4fda11c856f09472a70daa61484be01d0bd738b7523ea0552d98880bb2c220"], "sequence": 4294967294, "scriptSig": {"hex": "1600141588e35cf4f0de42b203ca7d36485a200dbb4374", "asm": "00141588e35cf4f0de42b203ca7d36485a200dbb4374"}, "vout": 0, "txid": "e40651f9438878dec8882fdabfb692bd448c24117108fd18e2257ce328a0a077"}, {"txinwitness": ["30440220014ff94d60e463e54a581a6b9e82f4ce61c711094074446d28add440038271f6022047693848f3827c43f06671a2cd24224f862d0c07b8fb1c4003a6eb55383d548b01", "031a8761bb96a4ffa4e9a92063fe350a865716f23aa20204c992e06a0cc63c06a4"], "sequence": 4294967294, "scriptSig": {"hex": "160014a869c2cc2692c16378638592a450dc77ea01b1ab", "asm": "0014a869c2cc2692c16378638592a450dc77ea01b1ab"}, "vout": 0, "txid": "55062e6aaee890b07f7416a795cd43ae4f00042d2194dc432ddbacb198f8667a"}, {"txinwitness": ["3044022008da9c4cf605e0d4782c8bec6e6268ec4f70e63bf848f6f7f248b3b019a2901702205773155dda177982dbc4ee01a90e33605f5ee7588c9a3aad2368b73a56de8da301", "03dcf3b032fd35e79c7c73a9aec467e905c3341606696bff974431120fa19f1bc4"], "sequence": 4294967294, "scriptSig": {"hex": "160014fe89a3f57bade8436fe132128bbab88f6a3dc0a3", "asm": "0014fe89a3f57bade8436fe132128bbab88f6a3dc0a3"}, "vout": 0, "txid": "813064f7f62da346624cefe305e0879478189a68cd4942df9ee3627fb5e24a7d"}, {"txinwitness": ["3045022100fcbd0207c531da26bfcb35c42c38788a405cc6982cfa63243305ecdccd6e0c2f022004e7cbecab668f3ef4242b0296724d9baff5e7805c04fc229a644e79d2ce7ba801", "028afe479016da0ec4b016c6b8fb4171cb634aa4651a6c6ac38aa015b6c23143e0"], "sequence": 4294967294, "scriptSig": {"hex": "160014743095f51a0e63e4f0339fa0eccd2ccee9e52eef", "asm": "0014743095f51a0e63e4f0339fa0eccd2ccee9e52eef"}, "vout": 1, "txid": "181b2bfc785dcade11ccfbcfc88c5861f4d6db8bf99c6a1516cda00f31acc783"}, {"txinwitness": ["30440220598d71b1880bdefb4c0aa54b02aef8f918c7fbf7de19524dc20d6ca3959fc1df022001eae301c3c26174242fe3c7a4b12696e5dffc308b0b338e3471d6f01678a0bc01", "021e7f7dee218f279cca3a591e4ac13478d55de03cd8c95cbc97f84ce4e286e162"], "sequence": 4294967294, "scriptSig": {"hex": "1600143127739028860957bd9b9d6d9fac2f759aff0e2b", "asm": "00143127739028860957bd9b9d6d9fac2f759aff0e2b"}, "vout": 0, "txid": "7bb26da36fd9b1e18f96fb70771da7a9dcdd751235025ddf614b4e618a9efa90"}, {"txinwitness": ["304402203e6e1456e0545e04f37f585f12f3ec4dec639ed105c7adedbee263514ae7e6f802207b6b32fed0fae67144b6d7f94e960c1ad7cf717ee7705399a12d61ee105ff0c301", "023481949d49917a75d82877507f9df9cafdf4f97bdba65936dfc63e0c6e74e334"], "sequence": 4294967294, "scriptSig": {"hex": "160014bab7f9ef06352de0417d29747f253b464a0ecf1c", "asm": "0014bab7f9ef06352de0417d29747f253b464a0ecf1c"}, "vout": 0, "txid": "5d981e8349c2af65c4461539afed54a9248f8992aec2587e0d16ea3e0bebdd91"}, {"txinwitness": ["3045022100feab118b399d230490670d83105b9f74fe16cdf078d033e4b36b9d37cb28c9ad022061ed1385846371cdf6b6cd5d913e0139eb9611ca82c4309b7f8ba9d7bc6ce2a001", "028781468078257bc35b79a3e6c4b0fd4d857004ab3d2cb1a7b8b5e158fab0b74e"], "sequence": 4294967294, "scriptSig": {"hex": "160014ace1f1809c6c988a763bd77caf3eacf592e060a9", "asm": "0014ace1f1809c6c988a763bd77caf3eacf592e060a9"}, "vout": 1, "txid": "743e70ea4c3c55d510393220688c06c0f49b16b9b007371de63db873dc65cf94"}, {"txinwitness": ["3044022005805eb029ef8000cb94c7892a90bc264bc9575ce1d5b45e9c34b32c4f8f3b42022002c073480c13ba0769c0408b34a04be92c0d3e38b1ab21e587d43365da91593801", "02e72b80c1dfcf61dbe25aa66661a47744ed664c0c72bb1bb5f8c2cd147e065589"], "sequence": 4294967294, "scriptSig": {"hex": "1600142f482e2fb7895e1f54836ffc960feaad0fbf88f9", "asm": "00142f482e2fb7895e1f54836ffc960feaad0fbf88f9"}, "vout": 0, "txid": "4caa35f0996bb3392a8e0ad28d97407b06f1793f405c7a9fcad3d37d292eeba4"}, {"txinwitness": ["30450221009d396d6b129e02de550878254109a3776cbbbbebe7368ebdbc6f4b0d1d77bc6b0220306b30d2765df1fa087985debcf70369979651c83d3c8a30c1daf3636913f4ae01", "03dde7b305b01c067476cdc453afdfff679e8f2620da68cf192cc5c9b68afc63cb"], "sequence": 4294967294, "scriptSig": {"hex": "16001442dd96f9474c769bb31a8033b2a0a8782a67095b", "asm": "001442dd96f9474c769bb31a8033b2a0a8782a67095b"}, "vout": 0, "txid": "f0e4c6afd389e0112f3acc9d8b6488fd9e0b56f8c46f43b4dcea9d6dd89c07a7"}, {"txinwitness": ["3045022100fe23634535762822e0f87926bb612be0de368eec0341353f41496197124614ce02204dc04e040e3db9ba2dfe1cf43f3cacca6174624bd7c7a37281285dca9516acea01", "03db146a9363f0f5a0cecd1a732c2d2a59fe8fef22943f75d715e8a95f6b15b7e5"], "sequence": 4294967294, "scriptSig": {"hex": "16001462c1d0a329b98174df5e3537f8de8475f0baf457", "asm": "001462c1d0a329b98174df5e3537f8de8475f0baf457"}, "vout": 0, "txid": "2f119f6bbda54f406cd2928fe264c91332512b054ea5615ed465a369ccc3a5b5"}, {"txinwitness": ["3045022100e979172d4a4eabf430f56faaeec74c82fa51cbfef4a0a3462e8c1c50e4ec7f1d022079088db0eee8f71b43194947b0de5e3ec1b3288339ac1333a0f63074cb26af0901", "0240d7810a9c47c69c00502ea038812ff20b8b5b3e58a09fc42def3665090c5cc8"], "sequence": 4294967294, "scriptSig": {"hex": "160014432686d6da6bfa8680eae8be4a17a31a299262f3", "asm": "0014432686d6da6bfa8680eae8be4a17a31a299262f3"}, "vout": 0, "txid": "313fe11739b3a8d1d9aea531e4280b824d4406da739bd113b7dca8acce1272c0"}, {"txinwitness": ["3044022072fc98e81f69fc7fe1b527045346d2c64b40b73f8f5714853345a401d6ea880c022039d4a2c90e53790779533108fcaf6679fea0383b7677d7be136609e131d5ec7601", "0378bd79fbd51c30d64e9e78a5eae9401e8bbc77ff64dacaff3e9a9239679c6ac6"], "sequence": 4294967294, "scriptSig": {"hex": "1600144464563cb75b2e7d64343adebc8ed8c8a9d48b29", "asm": "00144464563cb75b2e7d64343adebc8ed8c8a9d48b29"}, "vout": 1, "txid": "4fc71c53bfecff49f4cee557f9a7e0631d0bbca9db82ccb8d5ff3329411406cb"}, {"txinwitness": ["30440220226164aa53eb1f3310fc25e73c40db66272d1a7357537cab14cf7c4035de68a1022060236063d52c76e73b72b4ac104e61d3d2115726146f7a1a162353d75ce51b5f01", "03e7ff308c5ae86bca2db2615b78a86c95573c09e4b3eaca99d95ff31083d4b153"], "sequence": 4294967294, "scriptSig": {"hex": "160014661ae53fa5674e510ef95032547c9ef118f1c959", "asm": "0014661ae53fa5674e510ef95032547c9ef118f1c959"}, "vout": 0, "txid": "68eb91122cce29a5815e456499c8f9c55338b924f9a12d357e7a9972437795d1"}, {"txinwitness": ["3045022100ca85fb4e567b13f9a4d2d741d08ecce12904eaedbe5c43f1c143df65bd86966902203443b63e1b63e418e1f834085251abfa9e9634d20c5e83586be0600bdf9f3c7601", "028af9f485d5c585148f74cc57f283ca357ae19b989626339f4be38ff1a719a687"], "sequence": 4294967294, "scriptSig": {"hex": "16001495de022e2535f8c618c5303c62bbf488899234aa", "asm": "001495de022e2535f8c618c5303c62bbf488899234aa"}, "vout": 0, "txid": "846c02d748b7a140f71f34fe48fc31eab90bce229eea9830360c9e84a776c8db"}, {"txinwitness": ["3045022100ce359f95a4a35a39f12e3dc33526477ace3d1498709d18134a75b311b3ee44a002205695e500c625699c63cbd34f203e32278282ffc5f7d0208595f696b096ce073101", "02e6fcf53c61f2d4ab6556c23becca5eda33c20b735cbc1ef8ec76757b87e6e13c"], "sequence": 4294967294, "scriptSig": {"hex": "16001433e500f9b8d3cbba62d4e27fff2c317e3b6cc2d2", "asm": "001433e500f9b8d3cbba62d4e27fff2c317e3b6cc2d2"}, "vout": 0, "txid": "be816261d3479bc587a023ffffdc265380bcf63aa91eccfd8d2f882d75002ddd"}], "txid": "76a97086e94ae8c70a12364fe27ea96bbc3882a5b0ce761b12202593c8b2c363", "blocktime": 1537871767, "version": 2, "confirmations": 11490, "time": 1537871767, "locktime": 542931, "vsize": 2714, "size": 5054}