{"hash": "76aa0032fb8fff2af1679f304513a5eb239cb30f4c98fa726e0344abda26918d", "blockhash": "0000000000000000001cda96e906b7601b7a6fb1a3b62bca570a9e5d8f4b3de1", "vout": [{"scriptPubKey": {"reqSigs": 1, "hex": "76a91439c81890a199299f5d92dc4bb59f68e259c1626388ac", "addresses": ["16GXDr26bx6MdjB43rzo2wL4d2A9p9bW2E"], "asm": "OP_DUP OP_HASH160 39c81890a199299f5d92dc4bb59f68e259c16263 OP_EQUALVERIFY OP_CHECKSIG", "type": "pubkeyhash"}, "value": 0.00020954, "n": 0}, {"scriptPubKey": {"reqSigs": 1, "hex": "76a9148bea534fb583413f65477657389696a83238fe8088ac", "addresses": ["1Dkodt6xfSqZAig7Z64kBem6AA7swDxwy6"], "asm": "OP_DUP OP_HASH160 8bea534fb583413f65477657389696a83238fe80 OP_EQUALVERIFY OP_CHECKSIG", "type": "pubkeyhash"}, "value": 0.00624536, "n": 1}], "hex": "0100000001a64b434a73139157143df7f1c36a49346b8105327505bd544f108ac54942fd72010000006b483045022100b2e9c48e7c2b4e0e86467f86a0aba81d7d3e2d549382e660a8eedddecf2d5d040220493412247cd3e7446ceca5604d42d88fc1d60fa5044712353b7c6346a34612e6012102c84cbf5f69e1cb29293a8ca1a8d14932aa73084c37a38ff69869c4d6a43c1f43ffffffff02da510000000000001976a91439c81890a199299f5d92dc4bb59f68e259c1626388ac98870900000000001976a9148bea534fb583413f65477657389696a83238fe8088ac00000000", "vin": [{"sequence": 4294967295, "scriptSig": {"hex": "483045022100b2e9c48e7c2b4e0e86467f86a0aba81d7d3e2d549382e660a8eedddecf2d5d040220493412247cd3e7446ceca5604d42d88fc1d60fa5044712353b7c6346a34612e6012102c84cbf5f69e1cb29293a8ca1a8d14932aa73084c37a38ff69869c4d6a43c1f43", "asm": "3045022100b2e9c48e7c2b4e0e86467f86a0aba81d7d3e2d549382e660a8eedddecf2d5d040220493412247cd3e7446ceca5604d42d88fc1d60fa5044712353b7c6346a34612e6[ALL] 02c84cbf5f69e1cb29293a8ca1a8d14932aa73084c37a38ff69869c4d6a43c1f43"}, "vout": 1, "txid": "72fd4249c58a104f54bd05753205816b34496ac3f1f73d14579113734a434ba6"}], "txid": "76aa0032fb8fff2af1679f304513a5eb239cb30f4c98fa726e0344abda26918d", "blocktime": 1537873282, "version": 1, "confirmations": 11485, "time": 1537873282, "locktime": 0, "vsize": 226, "size": 226}