{"hash": "b2d657a7df8ec1198279f28a38f06a5b1a27c52ea33cd8b1bd37260598e73846", "blockhash": "0000000000000000001f0ddff1eddb255c1121bcd4da4f1bc9a0da00cae72433", "vout": [{"scriptPubKey": {"reqSigs": 1, "hex": "a914b40861ec118885f7003465a8833526c9750bc7b587", "addresses": ["3J6wbVxfMiinB6ZzwPiKZCjUirhEYkaDrC"], "asm": "OP_HASH160 b40861ec118885f7003465a8833526c9750bc7b5 OP_EQUAL", "type": "scripthash"}, "value": 0.14493808, "n": 0}, {"scriptPubKey": {"reqSigs": 1, "hex": "a914372184d730e0ce86cab62e934e9603b9d14e89d987", "addresses": ["36iXF2dtDnW4ovp3iGD5RxJ2bcxjK8feHm"], "asm": "OP_HASH160 372184d730e0ce86cab62e934e9603b9d14e89d9 OP_EQUAL", "type": "scripthash"}, "value": 0.03045942, "n": 1}], "hex": "01000000000101dae3aea0dcabce053698a08cc807828f4f768e2d52a09f63ae19066c95ea8cde010000002322002041c26be9340c6c8d4608d59fdd991c0ed9c6b26842c07afd28b8879dfb022139ffffffff027028dd000000000017a914b40861ec118885f7003465a8833526c9750bc7b587367a2e000000000017a914372184d730e0ce86cab62e934e9603b9d14e89d9870400473044022028d9c3684eb2c62a61d41dd089182ccb328102eb9a2e99464298053a0b493594022065b4a4b4ba1796e55291ac5206d0d16c41f9fe02a45cb1698ce249ecb68732ec01473044022028651b4e8193959a683f9053f4c898809647c1bf36f60b129e17ddfba9cc6e9802207b03cc3723eb8f2d8b254866e3325a389f0cd56bb615ee23185833a2c1f2ef980169522103959513d90784e4050cb3ec40146614277b975c52f4e474392b0259c6cd0fdd1021039a68f7e758d7bb4e1f5a697f95d9ddcbc6033308333e3698d765b05dd18dca332103d3eeb7b4a0031233b81aa8c7b42d21a8d485395b8ef2ccf4574821956860eac953ae00000000", "vin": [{"txinwitness": ["", "3044022028d9c3684eb2c62a61d41dd089182ccb328102eb9a2e99464298053a0b493594022065b4a4b4ba1796e55291ac5206d0d16c41f9fe02a45cb1698ce249ecb68732ec01", "3044022028651b4e8193959a683f9053f4c898809647c1bf36f60b129e17ddfba9cc6e9802207b03cc3723eb8f2d8b254866e3325a389f0cd56bb615ee23185833a2c1f2ef9801", "522103959513d90784e4050cb3ec40146614277b975c52f4e474392b0259c6cd0fdd1021039a68f7e758d7bb4e1f5a697f95d9ddcbc6033308333e3698d765b05dd18dca332103d3eeb7b4a0031233b81aa8c7b42d21a8d485395b8ef2ccf4574821956860eac953ae"], "sequence": 4294967295, "scriptSig": {"hex": "22002041c26be9340c6c8d4608d59fdd991c0ed9c6b26842c07afd28b8879dfb022139", "asm": "002041c26be9340c6c8d4608d59fdd991c0ed9c6b26842c07afd28b8879dfb022139"}, "vout": 1, "txid": "de8cea956c0619ae639fa0522d8e764f8f8207c88ca0983605ceabdca0aee3da"}], "txid": "76ab86a7a019207472530ef6bf41fc42d459954353a5c93993cca09766e7c8ca", "blocktime": 1537872018, "version": 1, "confirmations": 11489, "time": 1537872018, "locktime": 0, "vsize": 214, "size": 404}