{"hash": "76af3f39ce11d81582f548291f86bed45667037ebbba3cca16fd2ddcbbc0e311", "blockhash": "0000000000000000000e13cef7c366c0283d82e591d1acd082e914b08063cdf1", "vout": [{"scriptPubKey": {"reqSigs": 1, "hex": "76a91405b798bf1d77c430fa8b02de456ad8f1f0648a4188ac", "addresses": ["1XEKUnsyqd4dhs7w5tZL1hvUcUnRmpbUr"], "asm": "OP_DUP OP_HASH160 05b798bf1d77c430fa8b02de456ad8f1f0648a41 OP_EQUALVERIFY OP_CHECKSIG", "type": "pubkeyhash"}, "value": 0.00096264, "n": 0}, {"scriptPubKey": {"reqSigs": 1, "hex": "a9144bd336b0eb44e1f3254233dd8180e536b05eae5487", "addresses": ["38bwdK3CdEaFhVrf5vHBAagSohCb27yTeW"], "asm": "OP_HASH160 4bd336b0eb44e1f3254233dd8180e536b05eae54 OP_EQUAL", "type": "scripthash"}, "value": 0.027208, "n": 1}], "hex": "010000000110848403ef37f65df4d7da0f0d11aa152caf8f2e87e2961ed951d53fda325b0a010000006a47304402206b818ca98066f8f2a7c8666638281e82d98647ee03abb76f94d173a212703c850220222b3bfc50e3f5a3a595f583aeee19ccb86c79f70a4e4d758be293ccc5a6a9ed012102dd5a4ddd5a941e3ce792ed071f89df4c415d4ce5bfc6c794c378b41d4ca71b58ffffffff0208780100000000001976a91405b798bf1d77c430fa8b02de456ad8f1f0648a4188ac208429000000000017a9144bd336b0eb44e1f3254233dd8180e536b05eae548700000000", "vin": [{"sequence": 4294967295, "scriptSig": {"hex": "47304402206b818ca98066f8f2a7c8666638281e82d98647ee03abb76f94d173a212703c850220222b3bfc50e3f5a3a595f583aeee19ccb86c79f70a4e4d758be293ccc5a6a9ed012102dd5a4ddd5a941e3ce792ed071f89df4c415d4ce5bfc6c794c378b41d4ca71b58", "asm": "304402206b818ca98066f8f2a7c8666638281e82d98647ee03abb76f94d173a212703c850220222b3bfc50e3f5a3a595f583aeee19ccb86c79f70a4e4d758be293ccc5a6a9ed[ALL] 02dd5a4ddd5a941e3ce792ed071f89df4c415d4ce5bfc6c794c378b41d4ca71b58"}, "vout": 1, "txid": "0a5b32da3fd551d91e96e2872e8faf2c15aa110d0fdad7f45df637ef03848410"}], "txid": "76af3f39ce11d81582f548291f86bed45667037ebbba3cca16fd2ddcbbc0e311", "blocktime": 1537871767, "version": 1, "confirmations": 11493, "time": 1537871767, "locktime": 0, "vsize": 223, "size": 223}