{"hash": "76b0673cc043419c29f20535464fc66dbe3697b95a680eb78348cd999eaf9948", "blockhash": "000000000000000000205f8b0775d31398ef75b89a5e8ec8d2c57b4dc0ac4c20", "vout": [{"scriptPubKey": {"reqSigs": 1, "hex": "76a9140f953657d998b24b70625cff7a583b0892658e6688ac", "addresses": ["12RPtL3MCfed9d6Gb5vitU2afQaeE69Dx5"], "asm": "OP_DUP OP_HASH160 0f953657d998b24b70625cff7a583b0892658e66 OP_EQUALVERIFY OP_CHECKSIG", "type": "pubkeyhash"}, "value": 0.005, "n": 0}, {"scriptPubKey": {"reqSigs": 1, "hex": "76a91488d924f51033b74a895863a5fb57fd545529df7d88ac", "addresses": ["1DUb2YYbQA1jjaNYzVXLZ7ZioEhLXtbUru"], "asm": "OP_DUP OP_HASH160 88d924f51033b74a895863a5fb57fd545529df7d OP_EQUALVERIFY OP_CHECKSIG", "type": "pubkeyhash"}, "value": 0.40283603, "n": 1}], "hex": "010000000beb446a486104157ca4d58401ad3c956780e7919802063a414322b4d0b3c6b167010000006a473044022030c21e2b6d897537b55cd8ba4a4849c9178404da39af5a2bb04e0dcbf2f8e0b2022001d163633fa5c7049e833f5b12da39eb687e616baccedba71ee8658ad28fcac30121030888863fcb4cdf5b7d33b40e613af35df8f39d576e7972238b0d396cd3fcc3f2ffffffff5d9a7642baac7a21d32bdb12d6faba50e6530c36c3d85a9fff8f30f51544ced7020000006a47304402200268bf26d91c3fc17fcbc31683d1052d1985c14e1f356c87b9dc88b26f44201402207e26f63998fead9644e18780f858885af514b3c3a61fb2e3fd8db99f85086ad10121026bbdee67f6b5aab9e05fb37f23ef9b503c7c3116a6511c209595afe8d7abc16dffffffff91a1dfff9f06ee07f172d7259034c524c8103e683e26876d1aaa1802b8d85c87010000006a47304402203299d8f02d852b818f15d4817c1a4f725fa119cd888e6d4e355a057103bfa44e02207add6a43573ac9b019ca3ff47c83d11438fe638c107675c34372cedadded789f0121030888863fcb4cdf5b7d33b40e613af35df8f39d576e7972238b0d396cd3fcc3f2ffffffff04a3bdbafbfdc787569d13dac91400c409b3aebaedf3666264cdc0360b7cd573030000006a4730440220576e73eabe8ded3ffbf15d76685532aab5fd56d01197a359300ec55d68bcb4c1022058a8d983bc9d0e653547585f2a826d5e143b779d3e25d308bdf68f28c450c06e012102f3a4fbf1601bda618ee0317cb309599dd65949ca201ffe8f057dd59e49f6c5c7ffffffff794ce905c5aa6390068a2511c9876ea9f6fde805eb72e820bc9cdca354d69510030000006a473044022043eaa53e0175705348aa0cfa29457041037f3d2c0c591c004def67e7bd2440ed02202b74eb55bad42fea0dfe593864e0105634b5ebefa54f3262c1381a5e75b347d8012102f3a4fbf1601bda618ee0317cb309599dd65949ca201ffe8f057dd59e49f6c5c7ffffffffa5a7c93aec7d4c264847a8d06fc79a1378e363592d38facfe2d766ba6e82d442030000006a47304402201da9c7cf72d9bd41d89f2154598a34c8216d2a46ff36d364be45288c6d92c04d02202d6e6bc88749f4b3feba732fb7b9f09eedad513b6952f4a87816a6179d885fd8012102f3a4fbf1601bda618ee0317cb309599dd65949ca201ffe8f057dd59e49f6c5c7ffffffff91a1dfff9f06ee07f172d7259034c524c8103e683e26876d1aaa1802b8d85c87020000006b48304502210080d4c6bf9c5cac49d65974243f3a8d094e302e183caaf5aa1876415e12c235140220232a625e2cdd86c96207edac60eb5b257df31a0c2968262aa335d1dd4ff27c6e0121025be37a291f7a568218242bd1231dce40e29ebd945cf110e4ba51cf4c2507a886ffffffffddc8187d16646525acf421711c3bb071f12c0693f5e00df159484273048a1b2c020000006b483045022100dfebceaa01b277573c0195848699965fe47a92a34f02eebf1de19621022d96ae022032244df259457776ee5133aa2782540c5e0b1ee7ea420bd1c74158342b0e77c4012102ee412d72e9df31bc6b68df1db57363a6dfdcd505690f819339f9fc201a570cffffffffffe64f75e4bcb5ba912b9282baaa169338c4b61cdecca62148c8b3c34cc54ddd69020000006b483045022100856fc1f7ea535a1f4c37795b4433a6fe583836b5bd2f7fb1f398aef3b74cc0ea022020d0818505fa8600197f0199b6b3f584844965f3173472b5624014cf5c1cd78d012103fe085f4019b078f3fc4ce4885effb556ff4757841864ac95b7cf1e2e0f276f8affffffff73a053438b9376d33ff1407800f3c42cbf77f986321fff8e7099701d1f542033000000006b483045022100e95e513558a4bea379a25375862d65926e44d032dfea82710759344deffb214402201fd0ebef4efce67661a6def4260c7ffb13fd3d7f179ade90ecc1ff82c4881be201210390ebe31d121ada3c8788665c4167d12a28dc2fd0aeb7b10072a95bd0be36dadfffffffff79294ef1f9410306fe753ab2135d0e05d568a738313ac8a6c40e9116376f7da3020000006b483045022100e1e5fbc8a72eb54fa467cd5c8de0eead4d605a6e6329b28cb2f9fabf630afd23022019ed474baaa0265474c4dec461ccd07d31f647c8fe1bea8fea03c21e9890f3ca01210373f75ce682547f30d561ad53053013583881df5e42ea5d582899b485995a290dffffffff0220a10700000000001976a9140f953657d998b24b70625cff7a583b0892658e6688acd3ad6602000000001976a91488d924f51033b74a895863a5fb57fd545529df7d88ac00000000", "vin": [{"sequence": 4294967295, "scriptSig": {"hex": "473044022030c21e2b6d897537b55cd8ba4a4849c9178404da39af5a2bb04e0dcbf2f8e0b2022001d163633fa5c7049e833f5b12da39eb687e616baccedba71ee8658ad28fcac30121030888863fcb4cdf5b7d33b40e613af35df8f39d576e7972238b0d396cd3fcc3f2", "asm": "3044022030c21e2b6d897537b55cd8ba4a4849c9178404da39af5a2bb04e0dcbf2f8e0b2022001d163633fa5c7049e833f5b12da39eb687e616baccedba71ee8658ad28fcac3[ALL] 030888863fcb4cdf5b7d33b40e613af35df8f39d576e7972238b0d396cd3fcc3f2"}, "vout": 1, "txid": "67b1c6b3d0b42243413a06029891e78067953cad0184d5a47c150461486a44eb"}, {"sequence": 4294967295, "scriptSig": {"hex": "47304402200268bf26d91c3fc17fcbc31683d1052d1985c14e1f356c87b9dc88b26f44201402207e26f63998fead9644e18780f858885af514b3c3a61fb2e3fd8db99f85086ad10121026bbdee67f6b5aab9e05fb37f23ef9b503c7c3116a6511c209595afe8d7abc16d", "asm": "304402200268bf26d91c3fc17fcbc31683d1052d1985c14e1f356c87b9dc88b26f44201402207e26f63998fead9644e18780f858885af514b3c3a61fb2e3fd8db99f85086ad1[ALL] 026bbdee67f6b5aab9e05fb37f23ef9b503c7c3116a6511c209595afe8d7abc16d"}, "vout": 2, "txid": "d7ce4415f5308fff9f5ad8c3360c53e650bafad612db2bd3217aacba42769a5d"}, {"sequence": 4294967295, "scriptSig": {"hex": "47304402203299d8f02d852b818f15d4817c1a4f725fa119cd888e6d4e355a057103bfa44e02207add6a43573ac9b019ca3ff47c83d11438fe638c107675c34372cedadded789f0121030888863fcb4cdf5b7d33b40e613af35df8f39d576e7972238b0d396cd3fcc3f2", "asm": "304402203299d8f02d852b818f15d4817c1a4f725fa119cd888e6d4e355a057103bfa44e02207add6a43573ac9b019ca3ff47c83d11438fe638c107675c34372cedadded789f[ALL] 030888863fcb4cdf5b7d33b40e613af35df8f39d576e7972238b0d396cd3fcc3f2"}, "vout": 1, "txid": "875cd8b80218aa1a6d87263e683e10c824c5349025d772f107ee069fffdfa191"}, {"sequence": 4294967295, "scriptSig": {"hex": "4730440220576e73eabe8ded3ffbf15d76685532aab5fd56d01197a359300ec55d68bcb4c1022058a8d983bc9d0e653547585f2a826d5e143b779d3e25d308bdf68f28c450c06e012102f3a4fbf1601bda618ee0317cb309599dd65949ca201ffe8f057dd59e49f6c5c7", "asm": "30440220576e73eabe8ded3ffbf15d76685532aab5fd56d01197a359300ec55d68bcb4c1022058a8d983bc9d0e653547585f2a826d5e143b779d3e25d308bdf68f28c450c06e[ALL] 02f3a4fbf1601bda618ee0317cb309599dd65949ca201ffe8f057dd59e49f6c5c7"}, "vout": 3, "txid": "73d57c0b36c0cd646266f3edbaaeb309c40014c9da139d5687c7fdfbbabda304"}, {"sequence": 4294967295, "scriptSig": {"hex": "473044022043eaa53e0175705348aa0cfa29457041037f3d2c0c591c004def67e7bd2440ed02202b74eb55bad42fea0dfe593864e0105634b5ebefa54f3262c1381a5e75b347d8012102f3a4fbf1601bda618ee0317cb309599dd65949ca201ffe8f057dd59e49f6c5c7", "asm": "3044022043eaa53e0175705348aa0cfa29457041037f3d2c0c591c004def67e7bd2440ed02202b74eb55bad42fea0dfe593864e0105634b5ebefa54f3262c1381a5e75b347d8[ALL] 02f3a4fbf1601bda618ee0317cb309599dd65949ca201ffe8f057dd59e49f6c5c7"}, "vout": 3, "txid": "1095d654a3dc9cbc20e872eb05e8fdf6a96e87c911258a069063aac505e94c79"}, {"sequence": 4294967295, "scriptSig": {"hex": "47304402201da9c7cf72d9bd41d89f2154598a34c8216d2a46ff36d364be45288c6d92c04d02202d6e6bc88749f4b3feba732fb7b9f09eedad513b6952f4a87816a6179d885fd8012102f3a4fbf1601bda618ee0317cb309599dd65949ca201ffe8f057dd59e49f6c5c7", "asm": "304402201da9c7cf72d9bd41d89f2154598a34c8216d2a46ff36d364be45288c6d92c04d02202d6e6bc88749f4b3feba732fb7b9f09eedad513b6952f4a87816a6179d885fd8[ALL] 02f3a4fbf1601bda618ee0317cb309599dd65949ca201ffe8f057dd59e49f6c5c7"}, "vout": 3, "txid": "42d4826eba66d7e2cffa382d5963e378139ac76fd0a84748264c7dec3ac9a7a5"}, {"sequence": 4294967295, "scriptSig": {"hex": "48304502210080d4c6bf9c5cac49d65974243f3a8d094e302e183caaf5aa1876415e12c235140220232a625e2cdd86c96207edac60eb5b257df31a0c2968262aa335d1dd4ff27c6e0121025be37a291f7a568218242bd1231dce40e29ebd945cf110e4ba51cf4c2507a886", "asm": "304502210080d4c6bf9c5cac49d65974243f3a8d094e302e183caaf5aa1876415e12c235140220232a625e2cdd86c96207edac60eb5b257df31a0c2968262aa335d1dd4ff27c6e[ALL] 025be37a291f7a568218242bd1231dce40e29ebd945cf110e4ba51cf4c2507a886"}, "vout": 2, "txid": "875cd8b80218aa1a6d87263e683e10c824c5349025d772f107ee069fffdfa191"}, {"sequence": 4294967295, "scriptSig": {"hex": "483045022100dfebceaa01b277573c0195848699965fe47a92a34f02eebf1de19621022d96ae022032244df259457776ee5133aa2782540c5e0b1ee7ea420bd1c74158342b0e77c4012102ee412d72e9df31bc6b68df1db57363a6dfdcd505690f819339f9fc201a570cff", "asm": "3045022100dfebceaa01b277573c0195848699965fe47a92a34f02eebf1de19621022d96ae022032244df259457776ee5133aa2782540c5e0b1ee7ea420bd1c74158342b0e77c4[ALL] 02ee412d72e9df31bc6b68df1db57363a6dfdcd505690f819339f9fc201a570cff"}, "vout": 2, "txid": "2c1b8a0473424859f10de0f593062cf171b03b1c7121f4ac256564167d18c8dd"}, {"sequence": 4294967295, "scriptSig": {"hex": "483045022100856fc1f7ea535a1f4c37795b4433a6fe583836b5bd2f7fb1f398aef3b74cc0ea022020d0818505fa8600197f0199b6b3f584844965f3173472b5624014cf5c1cd78d012103fe085f4019b078f3fc4ce4885effb556ff4757841864ac95b7cf1e2e0f276f8a", "asm": "3045022100856fc1f7ea535a1f4c37795b4433a6fe583836b5bd2f7fb1f398aef3b74cc0ea022020d0818505fa8600197f0199b6b3f584844965f3173472b5624014cf5c1cd78d[ALL] 03fe085f4019b078f3fc4ce4885effb556ff4757841864ac95b7cf1e2e0f276f8a"}, "vout": 2, "txid": "69dd4dc54cc3b3c84821a6ccde1cb6c4389316aaba82922b91bab5bce4754fe6"}, {"sequence": 4294967295, "scriptSig": {"hex": "483045022100e95e513558a4bea379a25375862d65926e44d032dfea82710759344deffb214402201fd0ebef4efce67661a6def4260c7ffb13fd3d7f179ade90ecc1ff82c4881be201210390ebe31d121ada3c8788665c4167d12a28dc2fd0aeb7b10072a95bd0be36dadf", "asm": "3045022100e95e513558a4bea379a25375862d65926e44d032dfea82710759344deffb214402201fd0ebef4efce67661a6def4260c7ffb13fd3d7f179ade90ecc1ff82c4881be2[ALL] 0390ebe31d121ada3c8788665c4167d12a28dc2fd0aeb7b10072a95bd0be36dadf"}, "vout": 0, "txid": "3320541f1d7099708eff1f3286f977bf2cc4f3007840f13fd376938b4353a073"}, {"sequence": 4294967295, "scriptSig": {"hex": "483045022100e1e5fbc8a72eb54fa467cd5c8de0eead4d605a6e6329b28cb2f9fabf630afd23022019ed474baaa0265474c4dec461ccd07d31f647c8fe1bea8fea03c21e9890f3ca01210373f75ce682547f30d561ad53053013583881df5e42ea5d582899b485995a290d", "asm": "3045022100e1e5fbc8a72eb54fa467cd5c8de0eead4d605a6e6329b28cb2f9fabf630afd23022019ed474baaa0265474c4dec461ccd07d31f647c8fe1bea8fea03c21e9890f3ca[ALL] 0373f75ce682547f30d561ad53053013583881df5e42ea5d582899b485995a290d"}, "vout": 2, "txid": "a37d6f3716910ec4a6c83a3138a768d5050e5d13b23a75fe060341f9f14e2979"}], "txid": "76b0673cc043419c29f20535464fc66dbe3697b95a680eb78348cd999eaf9948", "blocktime": 1537871175, "version": 1, "confirmations": 11511, "time": 1537871175, "locktime": 0, "vsize": 1700, "size": 1700}