{"hash": "76b70351da6b0183983f542e754376a0a87e20e662f28469cfd28d21a8e7d21c", "blockhash": "0000000000000000001cda96e906b7601b7a6fb1a3b62bca570a9e5d8f4b3de1", "vout": [{"scriptPubKey": {"reqSigs": 1, "hex": "76a9141e46696512ddd9769fbac28172c28ec736c8375888ac", "addresses": ["13m5d3e3CUcSEVmwuv4AVBxMAQ1VkBurPL"], "asm": "OP_DUP OP_HASH160 1e46696512ddd9769fbac28172c28ec736c83758 OP_EQUALVERIFY OP_CHECKSIG", "type": "pubkeyhash"}, "value": 7.773e-05, "n": 0}, {"scriptPubKey": {"reqSigs": 1, "hex": "76a914c165056686bfdaa935f272d63f25b82d51941fb788ac", "addresses": ["1JdaS6LfJcc8XutCTA9oHRzQqRuvMa5UAE"], "asm": "OP_DUP OP_HASH160 c165056686bfdaa935f272d63f25b82d51941fb7 OP_EQUALVERIFY OP_CHECKSIG", "type": "pubkeyhash"}, "value": 0.004059, "n": 1}], "hex": "01000000030a3967ff4d3859b6e215be93a72164a840a36f3d1606db33fdc019d7f09ee787000000006a473044022013b1f7b45f50abed95d490167e7ffcb51b7fd5545db302441b9fd63d6ac7ccad0220607f256dfd7f5fcb9b53251bf0f143ffbc786e342aafd9f1a832f3d2da2a39ee012102e0362cdce2aeef84019ec810dcfd4e66ab0b0089612ba91da3509f3a2ad99cfdffffffff96ccc079727661b0053ab3b458b696312dd0483b184581c2a5453f9171dae2d0000000006a47304402207b1e8868394e9973c59e47c825562f3b5cc606d1021fa93146a52df21a617ef8022069db89925b41a159d89dceb1a1acf05632bce8378eac72eee38fc405afeb77170121028da23f7cd56756ccb63edc716de48d856b7ce7129070f1d3d51c259e92faf1b0ffffffff4edac04526d30a9bc573c3d68e8057e337da1c664b34c5f2ddd56afc3b1cebf5000000006b483045022100a5e4d7af80f3637a4ae9a56267ff10eb54dd1d8a453ade0f3b2b47a5195d0b7c0220134650e7f543490a7eda8ba4de2958b810cabbf975b28074042b177349b8e2b2012102e0362cdce2aeef84019ec810dcfd4e66ab0b0089612ba91da3509f3a2ad99cfdffffffff025d1e0000000000001976a9141e46696512ddd9769fbac28172c28ec736c8375888ac8c310600000000001976a914c165056686bfdaa935f272d63f25b82d51941fb788ac00000000", "vin": [{"sequence": 4294967295, "scriptSig": {"hex": "473044022013b1f7b45f50abed95d490167e7ffcb51b7fd5545db302441b9fd63d6ac7ccad0220607f256dfd7f5fcb9b53251bf0f143ffbc786e342aafd9f1a832f3d2da2a39ee012102e0362cdce2aeef84019ec810dcfd4e66ab0b0089612ba91da3509f3a2ad99cfd", "asm": "3044022013b1f7b45f50abed95d490167e7ffcb51b7fd5545db302441b9fd63d6ac7ccad0220607f256dfd7f5fcb9b53251bf0f143ffbc786e342aafd9f1a832f3d2da2a39ee[ALL] 02e0362cdce2aeef84019ec810dcfd4e66ab0b0089612ba91da3509f3a2ad99cfd"}, "vout": 0, "txid": "87e79ef0d719c0fd33db06163d6fa340a86421a793be15e2b659384dff67390a"}, {"sequence": 4294967295, "scriptSig": {"hex": "47304402207b1e8868394e9973c59e47c825562f3b5cc606d1021fa93146a52df21a617ef8022069db89925b41a159d89dceb1a1acf05632bce8378eac72eee38fc405afeb77170121028da23f7cd56756ccb63edc716de48d856b7ce7129070f1d3d51c259e92faf1b0", "asm": "304402207b1e8868394e9973c59e47c825562f3b5cc606d1021fa93146a52df21a617ef8022069db89925b41a159d89dceb1a1acf05632bce8378eac72eee38fc405afeb7717[ALL] 028da23f7cd56756ccb63edc716de48d856b7ce7129070f1d3d51c259e92faf1b0"}, "vout": 0, "txid": "d0e2da71913f45a5c28145183b48d02d3196b658b4b33a05b061767279c0cc96"}, {"sequence": 4294967295, "scriptSig": {"hex": "483045022100a5e4d7af80f3637a4ae9a56267ff10eb54dd1d8a453ade0f3b2b47a5195d0b7c0220134650e7f543490a7eda8ba4de2958b810cabbf975b28074042b177349b8e2b2012102e0362cdce2aeef84019ec810dcfd4e66ab0b0089612ba91da3509f3a2ad99cfd", "asm": "3045022100a5e4d7af80f3637a4ae9a56267ff10eb54dd1d8a453ade0f3b2b47a5195d0b7c0220134650e7f543490a7eda8ba4de2958b810cabbf975b28074042b177349b8e2b2[ALL] 02e0362cdce2aeef84019ec810dcfd4e66ab0b0089612ba91da3509f3a2ad99cfd"}, "vout": 0, "txid": "f5eb1c3bfc6ad5ddf2c5344b661cda37e357808ed6c373c59b0ad32645c0da4e"}], "txid": "76b70351da6b0183983f542e754376a0a87e20e662f28469cfd28d21a8e7d21c", "blocktime": 1537873282, "version": 1, "confirmations": 11485, "time": 1537873282, "locktime": 0, "vsize": 520, "size": 520}