{"hash": "109dd25fe3cec24fef8e8a39f4359d0d2ff591837628247c167b47663d764153", "blockhash": "000000000000000000022b45ed06c6f4ccd3cf7fb5ba4856ebd2e58215665228", "vout": [{"scriptPubKey": {"reqSigs": 1, "hex": "a914517fe59a66cad56e41b069bb0ffa7508b5ca27ea87", "addresses": ["397wsWjmwwPc7jdKgXue53W7gUcF6zvmLG"], "asm": "OP_HASH160 517fe59a66cad56e41b069bb0ffa7508b5ca27ea OP_EQUAL", "type": "scripthash"}, "value": 0.01960638, "n": 0}, {"scriptPubKey": {"reqSigs": 1, "hex": "00143611de10bfe8e7877c26a59f9506723e4dcb0d9a", "addresses": ["bc1qxcgauy9larncwlpx5k0e2pnj8exukrv6d9lgdd"], "asm": "0 3611de10bfe8e7877c26a59f9506723e4dcb0d9a", "type": "witness_v0_keyhash"}, "value": 0.00014722, "n": 1}], "hex": "01000000000101b543aece20a0777fcddac894bbdc9d1c7da840df52e5c7cd409dfab87c6dae6a0000000000ffffffff02beea1d000000000017a914517fe59a66cad56e41b069bb0ffa7508b5ca27ea8782390000000000001600143611de10bfe8e7877c26a59f9506723e4dcb0d9a02473044022051d98d88bcd2b0d413a62565b05615b3a0e4bd1dcad87d054aadc6dfe76e684c0220392f4d7e88a1eaf9c14cb5d683c6590c02a9020bb090e93cec42aa97490d2479012102b4012302c77a9f03f547268d78df01ad8473daf0407997a23933c59ac9c31ede00000000", "vin": [{"txinwitness": ["3044022051d98d88bcd2b0d413a62565b05615b3a0e4bd1dcad87d054aadc6dfe76e684c0220392f4d7e88a1eaf9c14cb5d683c6590c02a9020bb090e93cec42aa97490d247901", "02b4012302c77a9f03f547268d78df01ad8473daf0407997a23933c59ac9c31ede"], "sequence": 4294967295, "scriptSig": {"hex": "", "asm": ""}, "vout": 0, "txid": "6aae6d7cb8fa9d40cdc7e552df40a87d1c9ddcbb94c8dacd7f77a020ceae43b5"}], "txid": "76b8567898b0e51e6472624ffceb78d71152903ca1e7ad7fdc1ee615202f7c3e", "blocktime": 1537869901, "version": 1, "confirmations": 11523, "time": 1537869901, "locktime": 0, "vsize": 142, "size": 223}