{"hash": "76bb2dadf819020ca674dbd65d1f54fc561e47dab01f136053d68776ab3c5db7", "blockhash": "0000000000000000000baef3f32e3676a92c3b2e5da21b426e4f302fc371ce76", "vout": [{"scriptPubKey": {"reqSigs": 1, "hex": "76a914b8f8ff2ceb9be147e1cc999c56f02a7ed873d80088ac", "addresses": ["1Hs3ctzCinzQdniyB6FyaF26VcQTq2mHtB"], "asm": "OP_DUP OP_HASH160 b8f8ff2ceb9be147e1cc999c56f02a7ed873d800 OP_EQUALVERIFY OP_CHECKSIG", "type": "pubkeyhash"}, "value": 0.0410069, "n": 0}], "hex": "0100000001ce9a54e6938bde43af729d5b5a78d3f2fea4cc7494288cd29d78454a3ae16322000000006b483045022100d46b69a274a06ed4077e669258006309993b3a66ca7e9db3cb96aa489affa63702203dd50f4722d5ef7b6d03dbe9d742d853748f37be5e8691b2ad1a0abe71fa8b07012102d2034e2d8516e808f57f4e9974f39a115c785a0a30080d3e9a4990ce24ba6c90ffffffff0152923e00000000001976a914b8f8ff2ceb9be147e1cc999c56f02a7ed873d80088ac00000000", "vin": [{"sequence": 4294967295, "scriptSig": {"hex": "483045022100d46b69a274a06ed4077e669258006309993b3a66ca7e9db3cb96aa489affa63702203dd50f4722d5ef7b6d03dbe9d742d853748f37be5e8691b2ad1a0abe71fa8b07012102d2034e2d8516e808f57f4e9974f39a115c785a0a30080d3e9a4990ce24ba6c90", "asm": "3045022100d46b69a274a06ed4077e669258006309993b3a66ca7e9db3cb96aa489affa63702203dd50f4722d5ef7b6d03dbe9d742d853748f37be5e8691b2ad1a0abe71fa8b07[ALL] 02d2034e2d8516e808f57f4e9974f39a115c785a0a30080d3e9a4990ce24ba6c90"}, "vout": 0, "txid": "2263e13a4a45789dd28c289474cca4fef2d3785a5b9d72af43de8b93e6549ace"}], "txid": "76bb2dadf819020ca674dbd65d1f54fc561e47dab01f136053d68776ab3c5db7", "blocktime": 1537876114, "version": 1, "confirmations": 11460, "time": 1537876114, "locktime": 0, "vsize": 192, "size": 192}