{"hash": "98c852e54f0a2a9a065d7d8366b5ffd35bdf2c3e1f6b3c90510d51da1756c5dd", "blockhash": "000000000000000000022b45ed06c6f4ccd3cf7fb5ba4856ebd2e58215665228", "vout": [{"scriptPubKey": {"reqSigs": 1, "hex": "a914ca6b0a99373697d70f6b1383b0f891600536331687", "addresses": ["3L9JefFnLdy3GauaJRZZUhncCXph8fCR9S"], "asm": "OP_HASH160 ca6b0a99373697d70f6b1383b0f8916005363316 OP_EQUAL", "type": "scripthash"}, "value": 0.01022475, "n": 0}, {"scriptPubKey": {"reqSigs": 1, "hex": "a914e2afb057c4f6bb7304d84931be4d73dd678050db87", "addresses": ["3NMd6yL1VEEYji4vo1m8VFVg4VNdTpm6WD"], "asm": "OP_HASH160 e2afb057c4f6bb7304d84931be4d73dd678050db OP_EQUAL", "type": "scripthash"}, "value": 0.00364, "n": 1}], "hex": "020000000001025d500b81072d828b3e8679e89099ca64f4286111edd7f47f90bb2e06f9fd459c0b01000017160014df79473649bb03fd922e0c4942b8f7efa9dcb521feffffffc94e8c74799a572d24733441d7acd5866318465b896cb2281c09bcbeded89f0531010000171600147b0eff995e8dcae07df4cfaf1e444011a97bf6e5feffffff020b9a0f000000000017a914ca6b0a99373697d70f6b1383b0f891600536331687e08d05000000000017a914e2afb057c4f6bb7304d84931be4d73dd678050db8702483045022100d3640b8b0788be7d0254760d625eddf281ccd5105c5800fc9183e5bd8b0548480220101b24b703999bea985ea8293a3ac590e6f29957e2bad0ca0cb3299790d36fe70121033632ff8f062a9f9e171d0d3febed6d7fe27e9d8ccb2c3d513dc67edffe520b5e02473044022030636fb964638148538b3c163d446d1ea04d074919fe4fe5f79a92962f266d420220339b8fc6825b472706c8bb3554205fda56de26d080ceaa58b48747ed9374606c012102396b6b233ea74a07c0287db811b67b6e1741b5ee27c630f11d1794c7590db0ba0b490800", "vin": [{"txinwitness": ["3045022100d3640b8b0788be7d0254760d625eddf281ccd5105c5800fc9183e5bd8b0548480220101b24b703999bea985ea8293a3ac590e6f29957e2bad0ca0cb3299790d36fe701", "033632ff8f062a9f9e171d0d3febed6d7fe27e9d8ccb2c3d513dc67edffe520b5e"], "sequence": 4294967294, "scriptSig": {"hex": "160014df79473649bb03fd922e0c4942b8f7efa9dcb521", "asm": "0014df79473649bb03fd922e0c4942b8f7efa9dcb521"}, "vout": 267, "txid": "9c45fdf9062ebb907ff4d7ed116128f464ca9990e879863e8b822d07810b505d"}, {"txinwitness": ["3044022030636fb964638148538b3c163d446d1ea04d074919fe4fe5f79a92962f266d420220339b8fc6825b472706c8bb3554205fda56de26d080ceaa58b48747ed9374606c01", "02396b6b233ea74a07c0287db811b67b6e1741b5ee27c630f11d1794c7590db0ba"], "sequence": 4294967294, "scriptSig": {"hex": "1600147b0eff995e8dcae07df4cfaf1e444011a97bf6e5", "asm": "00147b0eff995e8dcae07df4cfaf1e444011a97bf6e5"}, "vout": 305, "txid": "059fd8debebc091c28b26c895b46186386d5acd7413473242d579a79748c4ec9"}], "txid": "76c0184a5f72d8a411527776ffc6b3b7d5e79c8ce03d32db2b727600f9090701", "blocktime": 1537869901, "version": 2, "confirmations": 11524, "time": 1537869901, "locktime": 542987, "vsize": 257, "size": 419}