{"hash": "76c39538dde3aff8b9195f8b743bca65092f0a294f8ae69460f1098dcc626205", "blockhash": "0000000000000000001e0dab787dd257d1dbfcb92a98c2207d5e1078be1f4165", "vout": [{"scriptPubKey": {"reqSigs": 1, "hex": "a914885acad5a6afd30752c54229244753eac4f5458687", "addresses": ["3E7zazbaj7To82eooAXLhW18GgXzTM7Fkj"], "asm": "OP_HASH160 885acad5a6afd30752c54229244753eac4f54586 OP_EQUAL", "type": "scripthash"}, "value": 0.0145051, "n": 0}, {"scriptPubKey": {"reqSigs": 1, "hex": "76a914bae025140c454518b8cba0c25d45a6dc87f4b9ce88ac", "addresses": ["1J37CY8hcdUXQ1KfBhMCsUVafa8XjDsdCn"], "asm": "OP_DUP OP_HASH160 bae025140c454518b8cba0c25d45a6dc87f4b9ce OP_EQUALVERIFY OP_CHECKSIG", "type": "pubkeyhash"}, "value": 0.00356193, "n": 1}], "hex": "01000000025b80843ef144f783503de19827a0ebcee9e6ac1c5a54cc54bf57359f210172ff010000008b483045022100ab24fecc62781979d7efefe6aee166aad97d9541a724fe1ae6df46591ae6118202205aa1df917a9a7d9c1c75d3849a58f0b8a3905f6724650daf233a1f3a0bfd45d1014104025a1cffe502a80dfa1f543ae14c082aff24d5ecadab160ca904d288eed8e3d8cacef0985f690868df4f416c3890909b4c0c843da153d41382ac20c80170240afffffffff8a1a275125fbce8e2f01e90a6a4fb9ee0d6903cdda4ab3989f3a2bf01530649000000006a47304402206b531838b7590c27570b383a828d4f4f711a8a123711beed8d009a2f87cd2615022035c6a02828c6f632988653f6fc6d9067fb7a5a6fdef8e98e8535ad1cc55590a70121027df3743231de7b6e3f247e648ca2952c1ade139f3a33039af867ef3616275e4fffffffff020e2216000000000017a914885acad5a6afd30752c54229244753eac4f5458687616f0500000000001976a914bae025140c454518b8cba0c25d45a6dc87f4b9ce88ac00000000", "vin": [{"sequence": 4294967295, "scriptSig": {"hex": "483045022100ab24fecc62781979d7efefe6aee166aad97d9541a724fe1ae6df46591ae6118202205aa1df917a9a7d9c1c75d3849a58f0b8a3905f6724650daf233a1f3a0bfd45d1014104025a1cffe502a80dfa1f543ae14c082aff24d5ecadab160ca904d288eed8e3d8cacef0985f690868df4f416c3890909b4c0c843da153d41382ac20c80170240a", "asm": "3045022100ab24fecc62781979d7efefe6aee166aad97d9541a724fe1ae6df46591ae6118202205aa1df917a9a7d9c1c75d3849a58f0b8a3905f6724650daf233a1f3a0bfd45d1[ALL] 04025a1cffe502a80dfa1f543ae14c082aff24d5ecadab160ca904d288eed8e3d8cacef0985f690868df4f416c3890909b4c0c843da153d41382ac20c80170240a"}, "vout": 1, "txid": "ff7201219f3557bf54cc545a1cace6e9ceeba02798e13d5083f744f13e84805b"}, {"sequence": 4294967295, "scriptSig": {"hex": "47304402206b531838b7590c27570b383a828d4f4f711a8a123711beed8d009a2f87cd2615022035c6a02828c6f632988653f6fc6d9067fb7a5a6fdef8e98e8535ad1cc55590a70121027df3743231de7b6e3f247e648ca2952c1ade139f3a33039af867ef3616275e4f", "asm": "304402206b531838b7590c27570b383a828d4f4f711a8a123711beed8d009a2f87cd2615022035c6a02828c6f632988653f6fc6d9067fb7a5a6fdef8e98e8535ad1cc55590a7[ALL] 027df3743231de7b6e3f247e648ca2952c1ade139f3a33039af867ef3616275e4f"}, "vout": 0, "txid": "49065301bfa2f38939aba4dd3c90d6e09efba4a6901ef0e2e8bc5f1275a2a1f8"}], "txid": "76c39538dde3aff8b9195f8b743bca65092f0a294f8ae69460f1098dcc626205", "blocktime": 1537872475, "version": 1, "confirmations": 11486, "time": 1537872475, "locktime": 0, "vsize": 403, "size": 403}