{"hash": "92c98304dd870f36ab49629cace9eac1d82b119e2be05f96034c8e65e90bda4e", "blockhash": "0000000000000000000dcc0f55137456b1a82d3642486a52398922ac4d620174", "vout": [{"scriptPubKey": {"reqSigs": 1, "hex": "a9147d5d8601591b979d3e01709793c5a9268e37a3ca87", "addresses": ["3D7tReSYt2ozF6BWXaDNp1bBbEkCVy21uK"], "asm": "OP_HASH160 7d5d8601591b979d3e01709793c5a9268e37a3ca OP_EQUAL", "type": "scripthash"}, "value": 3.72970139, "n": 0}, {"scriptPubKey": {"reqSigs": 1, "hex": "a91469f37539b31a11e97fedda399bf38c82077cb3f387", "addresses": ["3BMEXSNNZ8bY5g5R7eSuVCEEvamyaKLaWi"], "asm": "OP_HASH160 69f37539b31a11e97fedda399bf38c82077cb3f3 OP_EQUAL", "type": "scripthash"}, "value": 0.04060152, "n": 1}], "hex": "0100000000010174d3a7c2f1b4e095237342bba540707bab1d653955566bf4033bf18663d79faa0100000023220020dc3fd334941e9a9947a2ac0943de225b6bf8d0f861ac7166fe88a1272787e252ffffffff029b123b160000000017a9147d5d8601591b979d3e01709793c5a9268e37a3ca87f8f33d000000000017a91469f37539b31a11e97fedda399bf38c82077cb3f3870400483045022100b8fcdd32c83af064cdf70e6ddd5c408496e31f9ca139252eecbaca4045c2b939022057fe41c950de5aa16ce81f8f8b5ec5f39afeb6609c2dd6cd2e9a982db2baf82a0148304502210086f460e29ce11e742d0b1047b1f19b6b0c69d698b79d271dad95affd9aab2385022035cb70b786a6541deba48faba91dc681339fd202b313e5c1d1a0722e918e25df0169522103bce6edd7f6cbefcef50b05ca22ee8ba0081b9d1cfba84a034195aea6064d9eba21034aabdade5cd41dcd1990b32c6cf4643bf012b7a1dc2f6c0c852491280ab9607021034469ec652fe3d794ef259980aab64874a2a5723ef28acd99eb7d0f0ac09ae5f253ae00000000", "vin": [{"txinwitness": ["", "3045022100b8fcdd32c83af064cdf70e6ddd5c408496e31f9ca139252eecbaca4045c2b939022057fe41c950de5aa16ce81f8f8b5ec5f39afeb6609c2dd6cd2e9a982db2baf82a01", "304502210086f460e29ce11e742d0b1047b1f19b6b0c69d698b79d271dad95affd9aab2385022035cb70b786a6541deba48faba91dc681339fd202b313e5c1d1a0722e918e25df01", "522103bce6edd7f6cbefcef50b05ca22ee8ba0081b9d1cfba84a034195aea6064d9eba21034aabdade5cd41dcd1990b32c6cf4643bf012b7a1dc2f6c0c852491280ab9607021034469ec652fe3d794ef259980aab64874a2a5723ef28acd99eb7d0f0ac09ae5f253ae"], "sequence": 4294967295, "scriptSig": {"hex": "220020dc3fd334941e9a9947a2ac0943de225b6bf8d0f861ac7166fe88a1272787e252", "asm": "0020dc3fd334941e9a9947a2ac0943de225b6bf8d0f861ac7166fe88a1272787e252"}, "vout": 1, "txid": "aa9fd76386f13b03f46b565539651dab7b7040a5bb42732395e0b4f1c2a7d374"}], "txid": "76c4b0a7814a6250e0bcc8aa82f3e1b8ca703cd8e912871d07d3913338aa51a2", "blocktime": 1537870268, "version": 1, "confirmations": 11518, "time": 1537870268, "locktime": 0, "vsize": 214, "size": 406}