{"hash": "984ed5629bbacce75a3f06a4a996e4a3757e6061ae1ff984059c35f9b4e329d2", "blockhash": "00000000000000000018f53835495a110e01622372bf6ae95dc86f2b0ab887b0", "vout": [{"scriptPubKey": {"reqSigs": 1, "hex": "76a914de9b0e230e2de7cac3e23279750b5c194cf673f288ac", "addresses": ["1MJ2m1hdHADEB3jh6MaxHGQJxS4J4yQdDA"], "asm": "OP_DUP OP_HASH160 de9b0e230e2de7cac3e23279750b5c194cf673f2 OP_EQUALVERIFY OP_CHECKSIG", "type": "pubkeyhash"}, "value": 0.00593811, "n": 0}, {"scriptPubKey": {"reqSigs": 1, "hex": "a914a70232c7c2bfd30e930111bc603101f821f6614c87", "addresses": ["3Gv5QKktGSTHVbYftQbW9ihC5mYwBEoN15"], "asm": "OP_HASH160 a70232c7c2bfd30e930111bc603101f821f6614c OP_EQUAL", "type": "scripthash"}, "value": 0.19837733, "n": 1}], "hex": "010000000001013e50757fd8a73de88331be3038eb21a61ce7f0b2a7c8587ffe48c80deb4b235d0100000023220020c53f8f3f573e075146f37843a0bf66eaee4426073690bab4a2273acf0cb0ca9bffffffff02930f0900000000001976a914de9b0e230e2de7cac3e23279750b5c194cf673f288ac25b32e010000000017a914a70232c7c2bfd30e930111bc603101f821f6614c87040048304502210082a1afabdf9a3a6095d887ede001b6d8ea150d21beea66541d67386a3b72efcc02204bce57a9336df3478b26fd24561bf5ef4a39f4466aed23f2eeba3db1f09f4eeb01483045022100ed71ce158228dac16e94e310e5c2ebd2bc54e8c381d54eeb5dda8fb007849391022050f4627823e31391d5aab79111720301ecd3cd57c247c93417e6b95e7d55a89201475221025832d8a933a48e5726d8efdded1f1d22a653e1c3776195e5a5addc1107f4a0452103bd2629ae6c1490ceb5e4aebd297130b1ac4dde611e8b5e25bf7fcbeefad8be7352ae00000000", "vin": [{"txinwitness": ["", "304502210082a1afabdf9a3a6095d887ede001b6d8ea150d21beea66541d67386a3b72efcc02204bce57a9336df3478b26fd24561bf5ef4a39f4466aed23f2eeba3db1f09f4eeb01", "3045022100ed71ce158228dac16e94e310e5c2ebd2bc54e8c381d54eeb5dda8fb007849391022050f4627823e31391d5aab79111720301ecd3cd57c247c93417e6b95e7d55a89201", "5221025832d8a933a48e5726d8efdded1f1d22a653e1c3776195e5a5addc1107f4a0452103bd2629ae6c1490ceb5e4aebd297130b1ac4dde611e8b5e25bf7fcbeefad8be7352ae"], "sequence": 4294967295, "scriptSig": {"hex": "220020c53f8f3f573e075146f37843a0bf66eaee4426073690bab4a2273acf0cb0ca9b", "asm": "0020c53f8f3f573e075146f37843a0bf66eaee4426073690bab4a2273acf0cb0ca9b"}, "vout": 1, "txid": "5d234beb0dc848fe7f58c8a7b2f0e71ca621eb3830be3183e83da7d87f75503e"}], "txid": "76c690909c4e00629b266a0aa5c2a491aa21f77d193c708368ab80dc45f9dc36", "blocktime": 1537870928, "version": 1, "confirmations": 11514, "time": 1537870928, "locktime": 0, "vsize": 208, "size": 374}