{"hash": "76c82634754f0e09f28222c54bf2045d15d83dc2476547ade9ee84bd02adf8e3", "blockhash": "00000000000000000004ffacab907a6b429b9a5745fa0b75af4234bf69dd7176", "vout": [{"scriptPubKey": {"type": "nulldata", "hex": "6a146f6d6e69000000000000001f000006a4bc169600", "asm": "OP_RETURN 6f6d6e69000000000000001f000006a4bc169600"}, "value": 0.0, "n": 0}, {"scriptPubKey": {"reqSigs": 1, "hex": "76a914a9b488b6373aa54d9b2b880c95128e72fbdfeef288ac", "addresses": ["1GUKU9LLTMC8HN5Mtp8ET3unj4iunDZsth"], "asm": "OP_DUP OP_HASH160 a9b488b6373aa54d9b2b880c95128e72fbdfeef2 OP_EQUALVERIFY OP_CHECKSIG", "type": "pubkeyhash"}, "value": 5.46e-06, "n": 1}, {"scriptPubKey": {"reqSigs": 1, "hex": "76a914a25dec4d0011064ef106a983c39c7a540699f22088ac", "addresses": ["1FoWyxwPXuj4C6abqwhjDWdz6D4PZgYRjA"], "asm": "OP_DUP OP_HASH160 a25dec4d0011064ef106a983c39c7a540699f220 OP_EQUALVERIFY OP_CHECKSIG", "type": "pubkeyhash"}, "value": 0.01990376, "n": 2}], "hex": "010000000172bf3480e1b6a4e817c294a418c031268668f0e796df772916a3c554e551a96d020000006a47304402201ff03941d32b0f102b9a1396d97882431803a24ebb721c51874ed4075f0e400802200d7fd20d7b442ad9d8d71801f6d03c2f99c0cef0a66060b01dd1a00218b58679012103da5bac7b36d5aa38f531c6b9601e21bb598a4b6716ebed38b009a55dabde9440feffffff030000000000000000166a146f6d6e69000000000000001f000006a4bc16960022020000000000001976a914a9b488b6373aa54d9b2b880c95128e72fbdfeef288ace85e1e00000000001976a914a25dec4d0011064ef106a983c39c7a540699f22088ac16490800", "vin": [{"sequence": 4294967294, "scriptSig": {"hex": "47304402201ff03941d32b0f102b9a1396d97882431803a24ebb721c51874ed4075f0e400802200d7fd20d7b442ad9d8d71801f6d03c2f99c0cef0a66060b01dd1a00218b58679012103da5bac7b36d5aa38f531c6b9601e21bb598a4b6716ebed38b009a55dabde9440", "asm": "304402201ff03941d32b0f102b9a1396d97882431803a24ebb721c51874ed4075f0e400802200d7fd20d7b442ad9d8d71801f6d03c2f99c0cef0a66060b01dd1a00218b58679[ALL] 03da5bac7b36d5aa38f531c6b9601e21bb598a4b6716ebed38b009a55dabde9440"}, "vout": 2, "txid": "6da951e554c5a3162977df96e7f068862631c018a494c217e8a4b6e18034bf72"}], "txid": "76c82634754f0e09f28222c54bf2045d15d83dc2476547ade9ee84bd02adf8e3", "blocktime": 1537875543, "version": 1, "confirmations": 11464, "time": 1537875543, "locktime": 542998, "vsize": 256, "size": 256}