{"hash": "68411fbc9ae5ff4f54311d0402b7a22e4be488d8c1c92300ba1cd67bdb401322", "blockhash": "0000000000000000000baef3f32e3676a92c3b2e5da21b426e4f302fc371ce76", "vout": [{"scriptPubKey": {"reqSigs": 1, "hex": "a9146ee1a4cd57687ceb10d41075e6b22a9fbccc252587", "addresses": ["3BoJZeZ4SnwgoQ6a7Vac2RJZ8HfWjyuWyy"], "asm": "OP_HASH160 6ee1a4cd57687ceb10d41075e6b22a9fbccc2525 OP_EQUAL", "type": "scripthash"}, "value": 0.02667809, "n": 0}, {"scriptPubKey": {"reqSigs": 1, "hex": "76a914ca2a86b5cebabc32220438f23736f5f810defb0b88ac", "addresses": ["1KRxSXKUEn4bzGmpFwdaSAnGhLZUWGWWmH"], "asm": "OP_DUP OP_HASH160 ca2a86b5cebabc32220438f23736f5f810defb0b OP_EQUALVERIFY OP_CHECKSIG", "type": "pubkeyhash"}, "value": 0.01365011, "n": 1}, {"scriptPubKey": {"reqSigs": 1, "hex": "76a9146cd49dc429df53aa4fc5d522459a2a157fa3c31788ac", "addresses": ["1AvSgZDSEM33c9ytgH2zHS3YML2rtV1yMF"], "asm": "OP_DUP OP_HASH160 6cd49dc429df53aa4fc5d522459a2a157fa3c317 OP_EQUALVERIFY OP_CHECKSIG", "type": "pubkeyhash"}, "value": 0.327, "n": 2}], "hex": "0200000000010349a642d806d641879892c1361d9eab107574912f6441918b9cfb6aa94c743a8c010000006a47304402200ed8ca4f74bf80bac4480f5a989e1aed6b49f30cdfa1b6c54815a0a8b6e1935502203f48cf1404569c2ea3b263405d3eea51128429e873fcd4f66211c571fcf65846012103c6e45122f1360a42a2d23a35093281bb532bb649bfe78d86efee033e2f47e7aafeffffff78a41a1ab95bf3a93967d04a1bdd06f1672196c0011ef21c66a51a5a56d062be010000006a4730440220647549f4a3664bfd600a7ee58e754ae5e39e50397c4d7c3b554cc73a218a1f75022008c49f00a1a1a4e3aab1993e1daf844bc1c1d896a213448492e9e180e2f3ab52012102982b9392e36a32b9cf7504d98fda19a611cb86d7cf425b2dff25e6ca856a460cfefffffff5533c1c38fb5b7887fabd28152885861decdadca3ad69c6d780ccba9567067001000000171600149e32648c4a312be458f1ab06f2f8185ec883588ffeffffff0321b528000000000017a9146ee1a4cd57687ceb10d41075e6b22a9fbccc25258713d41400000000001976a914ca2a86b5cebabc32220438f23736f5f810defb0b88ac60f6f201000000001976a9146cd49dc429df53aa4fc5d522459a2a157fa3c31788ac00000247304402207effd3f744c2c3be102774a0ce2f9027fe31e07ee66ffa92420fc6f64d9a1f0602204faa5e2bc37de87d0ff0c07b8b38de790921753dfcfe96b736c77db04315c63d0121025ada09e740bc06e03eaa34e6d98ceef8a1b075ed2954f8ecee019ae09990c30a17490800", "vin": [{"sequence": 4294967294, "scriptSig": {"hex": "47304402200ed8ca4f74bf80bac4480f5a989e1aed6b49f30cdfa1b6c54815a0a8b6e1935502203f48cf1404569c2ea3b263405d3eea51128429e873fcd4f66211c571fcf65846012103c6e45122f1360a42a2d23a35093281bb532bb649bfe78d86efee033e2f47e7aa", "asm": "304402200ed8ca4f74bf80bac4480f5a989e1aed6b49f30cdfa1b6c54815a0a8b6e1935502203f48cf1404569c2ea3b263405d3eea51128429e873fcd4f66211c571fcf65846[ALL] 03c6e45122f1360a42a2d23a35093281bb532bb649bfe78d86efee033e2f47e7aa"}, "vout": 1, "txid": "8c3a744ca96afb9c8b9141642f91747510ab9e1d36c192988741d606d842a649"}, {"sequence": 4294967294, "scriptSig": {"hex": "4730440220647549f4a3664bfd600a7ee58e754ae5e39e50397c4d7c3b554cc73a218a1f75022008c49f00a1a1a4e3aab1993e1daf844bc1c1d896a213448492e9e180e2f3ab52012102982b9392e36a32b9cf7504d98fda19a611cb86d7cf425b2dff25e6ca856a460c", "asm": "30440220647549f4a3664bfd600a7ee58e754ae5e39e50397c4d7c3b554cc73a218a1f75022008c49f00a1a1a4e3aab1993e1daf844bc1c1d896a213448492e9e180e2f3ab52[ALL] 02982b9392e36a32b9cf7504d98fda19a611cb86d7cf425b2dff25e6ca856a460c"}, "vout": 1, "txid": "be62d0565a1aa5661cf21e01c0962167f106dd1b4ad06739a9f35bb91a1aa478"}, {"txinwitness": ["304402207effd3f744c2c3be102774a0ce2f9027fe31e07ee66ffa92420fc6f64d9a1f0602204faa5e2bc37de87d0ff0c07b8b38de790921753dfcfe96b736c77db04315c63d01", "025ada09e740bc06e03eaa34e6d98ceef8a1b075ed2954f8ecee019ae09990c30a"], "sequence": 4294967294, "scriptSig": {"hex": "1600149e32648c4a312be458f1ab06f2f8185ec883588f", "asm": "00149e32648c4a312be458f1ab06f2f8185ec883588f"}, "vout": 1, "txid": "70066795bacc80d7c669ada3dcdaec1d8685281528bdfa87785bfb381c3c53f5"}], "txid": "76ccd1c146e3866daa1e1f011a6175df4fd8959b3da4706601c1a2f3e8c8b829", "blocktime": 1537876114, "version": 2, "confirmations": 11459, "time": 1537876114, "locktime": 542999, "vsize": 496, "size": 579}