{"hash": "651d52b0af5d58d1338e225f14607c19036b32206c96d20054a7f4ca9aa7dc60", "blockhash": "0000000000000000001f76057863aec43deb6fa401d9628bb513d65a8098bfab", "vout": [{"scriptPubKey": {"reqSigs": 1, "hex": "a91404aede55a6df0bdabd578abc21128ed56c7f6ff587", "addresses": ["327n7PQNYjjhnSw6q3EDXc7mddqoS2JKgJ"], "asm": "OP_HASH160 04aede55a6df0bdabd578abc21128ed56c7f6ff5 OP_EQUAL", "type": "scripthash"}, "value": 0.04333211, "n": 0}, {"scriptPubKey": {"reqSigs": 1, "hex": "a91496440bfd970f732137f8f80ae7b44459a1472d4a87", "addresses": ["3FPYoJ6Pu8SunajRoa7A17b4FLBhDcjvxS"], "asm": "OP_HASH160 96440bfd970f732137f8f80ae7b44459a1472d4a OP_EQUAL", "type": "scripthash"}, "value": 3.12500661, "n": 1}], "hex": "02000000000102a1a4c5b19a466df2cc185d24a24ca9e638539cf07635a4b2c1fb42007d2a5220000000001716001458fde6c37e9b04393e8af59761346acebb9a71a1ffffffff76733c7e365e1b4ed36d4345fb2c419ddb79d9a32167ab112c639bc39a4bc442010000001716001439dce5c543c684f88354757dba3fbda086acfc6affffffff029b1e42000000000017a91404aede55a6df0bdabd578abc21128ed56c7f6ff587b561a0120000000017a91496440bfd970f732137f8f80ae7b44459a1472d4a8702483045022100d277170dfcb305a60f7cd8ab513f97faecebd6bd605d4ac81db9017992000b6a0220043d87ae31c7ba86622d10a88475a8e065534718a22cae4e7f08625661cda3b401210396d0dcd21e6fc2bb420be8679d517f79d9f84d8bbc32949a34bbf096289d5f960247304402201fb06eccee0d1164851044add9308e341e743360b53334eea4973b77427333cb022027c94bb8e3a6065b8b622aa869c489b8f34588bc9ae4e99fc6ecf5438aab41c601210254fb15feb277f9012a138533ffc3cd00a89b2b8113b5187daa4da574de98fd0200000000", "vin": [{"txinwitness": ["3045022100d277170dfcb305a60f7cd8ab513f97faecebd6bd605d4ac81db9017992000b6a0220043d87ae31c7ba86622d10a88475a8e065534718a22cae4e7f08625661cda3b401", "0396d0dcd21e6fc2bb420be8679d517f79d9f84d8bbc32949a34bbf096289d5f96"], "sequence": 4294967295, "scriptSig": {"hex": "16001458fde6c37e9b04393e8af59761346acebb9a71a1", "asm": "001458fde6c37e9b04393e8af59761346acebb9a71a1"}, "vout": 0, "txid": "20522a7d0042fbc1b2a43576f09c5338e6a94ca2245d18ccf26d469ab1c5a4a1"}, {"txinwitness": ["304402201fb06eccee0d1164851044add9308e341e743360b53334eea4973b77427333cb022027c94bb8e3a6065b8b622aa869c489b8f34588bc9ae4e99fc6ecf5438aab41c601", "0254fb15feb277f9012a138533ffc3cd00a89b2b8113b5187daa4da574de98fd02"], "sequence": 4294967295, "scriptSig": {"hex": "16001439dce5c543c684f88354757dba3fbda086acfc6a", "asm": "001439dce5c543c684f88354757dba3fbda086acfc6a"}, "vout": 1, "txid": "42c44b9ac39b632c11ab6721a3d979db9d412cfb45436dd34e1b5e367e3c7376"}], "txid": "76d17eba01fe54425d6cb91267569ac1b879cbcd28bb56649d41e668388ff890", "blocktime": 1537873891, "version": 2, "confirmations": 11478, "time": 1537873891, "locktime": 0, "vsize": 257, "size": 419}