{"hash": "76d35c6ca26133711ac84ce7ba4cb2f7741ceb50b70538d5e51e57b5052b46c0", "blockhash": "00000000000000000017f5eb5941039fbcee6240d03bc1f2f8e35350df66a1d8", "vout": [{"scriptPubKey": {"reqSigs": 1, "hex": "a9144aaebb39d79b8bd4f26385accc42daf6f910f96887", "addresses": ["38VuFHZV2rbRMhvXpw15gKRitbCANu2jMM"], "asm": "OP_HASH160 4aaebb39d79b8bd4f26385accc42daf6f910f968 OP_EQUAL", "type": "scripthash"}, "value": 0.0201, "n": 0}, {"scriptPubKey": {"reqSigs": 1, "hex": "76a91413b66a6909adb1ccafcdf3854ad371f82009e64388ac", "addresses": ["12oEN7EHbYxfiw7BNe46BAgot6w45Q8Kbs"], "asm": "OP_DUP OP_HASH160 13b66a6909adb1ccafcdf3854ad371f82009e643 OP_EQUALVERIFY OP_CHECKSIG", "type": "pubkeyhash"}, "value": 0.03375102, "n": 1}], "hex": "0100000005c6c248891143510166e8a98996d6c04b2d9b4cbe7772dc668b15d65f1c22648f010000006a47304402206be497ae05485229a8d01c2324a5972a0dbd53b4401a5031f5723ec10a9b220e022075541897ae5bfd7020ff5cc9742e88fb71795b4abe310143d6fe397dac4b968f01210320cdb181abc77f42a7dc29606ab5d98bfd0a24c2cf39693898140b0e6d36e314ffffffff0be22ffdc8db41b07041a137a83bda0cb503d3d292f3169983a71ff1651594d3000000006a473044022026c65702dc9508d1165ee690dd39b80be02050813c0ac43e015714f73e047096022059255b0552d62cd7ca71f5357829dd942d928c050eaabc54e4dbd6e796fe6bc60121035d0d450edde98562f441c48692c5e94c1a5fc615a0c536e0497f5332b0633b63ffffffff87f3586affb5ddd1204808dce96f919a09c577f3d8434de7859612b9eb0e37d3010000006a4730440220403fe57f4804dbc0be7284dad4b5d0be94e3958d2bbbabdec61e87c808d1b48902204a87281b80a639d676fffb52fe04403260f4f5330badf2dd178b5f8e0a3cd1f3012103a9fc9da75271230574fe719ab3bc2d4c36ac92b1844b18a065d335cb602d267effffffffabb3180b674095a7ac1e97df7bf0e3b212b7f9d7981fca2b38ba397566f752eb010000006a4730440220445876242dccf9cf777ebe8a207b160a5471a890f540bc8810ca6010861a82a002202f69d5f11fc3470c26dd2490c02aee25f64a06f70385a23f8f85a438fc0285f8012102f94cbd5d44d7e0cb05976a6abb9528fd24e0b329de99bcf00c477e71a67b16b6ffffffff41043c6f3bd45405330fffe2b0669279f303848fcffa065db7b877027f2c3cb5010000006b483045022100d1e8d840a0b41c6a787f865a46ac8cc2144414b998d706b5eba42d2a6f7ae0a0022030864c44dbe3eb44d82702818833a205e23abc45a4312f04ab38ee585fbb4c1e012102d111454b833d49c7d560e83ae935cb600f1a57c41c64b30260dad26c9f9135ecffffffff0290ab1e000000000017a9144aaebb39d79b8bd4f26385accc42daf6f910f96887fe7f3300000000001976a91413b66a6909adb1ccafcdf3854ad371f82009e64388ac00000000", "vin": [{"sequence": 4294967295, "scriptSig": {"hex": "47304402206be497ae05485229a8d01c2324a5972a0dbd53b4401a5031f5723ec10a9b220e022075541897ae5bfd7020ff5cc9742e88fb71795b4abe310143d6fe397dac4b968f01210320cdb181abc77f42a7dc29606ab5d98bfd0a24c2cf39693898140b0e6d36e314", "asm": "304402206be497ae05485229a8d01c2324a5972a0dbd53b4401a5031f5723ec10a9b220e022075541897ae5bfd7020ff5cc9742e88fb71795b4abe310143d6fe397dac4b968f[ALL] 0320cdb181abc77f42a7dc29606ab5d98bfd0a24c2cf39693898140b0e6d36e314"}, "vout": 1, "txid": "8f64221c5fd6158b66dc7277be4c9b2d4bc0d69689a9e866015143118948c2c6"}, {"sequence": 4294967295, "scriptSig": {"hex": "473044022026c65702dc9508d1165ee690dd39b80be02050813c0ac43e015714f73e047096022059255b0552d62cd7ca71f5357829dd942d928c050eaabc54e4dbd6e796fe6bc60121035d0d450edde98562f441c48692c5e94c1a5fc615a0c536e0497f5332b0633b63", "asm": "3044022026c65702dc9508d1165ee690dd39b80be02050813c0ac43e015714f73e047096022059255b0552d62cd7ca71f5357829dd942d928c050eaabc54e4dbd6e796fe6bc6[ALL] 035d0d450edde98562f441c48692c5e94c1a5fc615a0c536e0497f5332b0633b63"}, "vout": 0, "txid": "d3941565f11fa7839916f392d2d303b50cda3ba837a14170b041dbc8fd2fe20b"}, {"sequence": 4294967295, "scriptSig": {"hex": "4730440220403fe57f4804dbc0be7284dad4b5d0be94e3958d2bbbabdec61e87c808d1b48902204a87281b80a639d676fffb52fe04403260f4f5330badf2dd178b5f8e0a3cd1f3012103a9fc9da75271230574fe719ab3bc2d4c36ac92b1844b18a065d335cb602d267e", "asm": "30440220403fe57f4804dbc0be7284dad4b5d0be94e3958d2bbbabdec61e87c808d1b48902204a87281b80a639d676fffb52fe04403260f4f5330badf2dd178b5f8e0a3cd1f3[ALL] 03a9fc9da75271230574fe719ab3bc2d4c36ac92b1844b18a065d335cb602d267e"}, "vout": 1, "txid": "d3370eebb9129685e74d43d8f377c5099a916fe9dc084820d1ddb5ff6a58f387"}, {"sequence": 4294967295, "scriptSig": {"hex": "4730440220445876242dccf9cf777ebe8a207b160a5471a890f540bc8810ca6010861a82a002202f69d5f11fc3470c26dd2490c02aee25f64a06f70385a23f8f85a438fc0285f8012102f94cbd5d44d7e0cb05976a6abb9528fd24e0b329de99bcf00c477e71a67b16b6", "asm": "30440220445876242dccf9cf777ebe8a207b160a5471a890f540bc8810ca6010861a82a002202f69d5f11fc3470c26dd2490c02aee25f64a06f70385a23f8f85a438fc0285f8[ALL] 02f94cbd5d44d7e0cb05976a6abb9528fd24e0b329de99bcf00c477e71a67b16b6"}, "vout": 1, "txid": "eb52f7667539ba382bca1f98d7f9b712b2e3f07bdf971eaca79540670b18b3ab"}, {"sequence": 4294967295, "scriptSig": {"hex": "483045022100d1e8d840a0b41c6a787f865a46ac8cc2144414b998d706b5eba42d2a6f7ae0a0022030864c44dbe3eb44d82702818833a205e23abc45a4312f04ab38ee585fbb4c1e012102d111454b833d49c7d560e83ae935cb600f1a57c41c64b30260dad26c9f9135ec", "asm": "3045022100d1e8d840a0b41c6a787f865a46ac8cc2144414b998d706b5eba42d2a6f7ae0a0022030864c44dbe3eb44d82702818833a205e23abc45a4312f04ab38ee585fbb4c1e[ALL] 02d111454b833d49c7d560e83ae935cb600f1a57c41c64b30260dad26c9f9135ec"}, "vout": 1, "txid": "b53c2c7f0277b8b75d06facf8f8403f3799266b0e2ff0f330554d43b6f3c0441"}], "txid": "76d35c6ca26133711ac84ce7ba4cb2f7741ceb50b70538d5e51e57b5052b46c0", "blocktime": 1537874412, "version": 1, "confirmations": 11467, "time": 1537874412, "locktime": 0, "vsize": 812, "size": 812}