{"hash": "09fc254a1d0858c0314a2e9e3e582bb55c95d45b951c5a00746fb286525aec7d", "blockhash": "0000000000000000000e13cef7c366c0283d82e591d1acd082e914b08063cdf1", "vout": [{"scriptPubKey": {"reqSigs": 1, "hex": "a914d5d8d453cdd5f05de1ed620b8d3324ca7d8a5d8387", "addresses": ["3MBjbyVDn2atEV5azCvDtL5snz32kaAn4Z"], "asm": "OP_HASH160 d5d8d453cdd5f05de1ed620b8d3324ca7d8a5d83 OP_EQUAL", "type": "scripthash"}, "value": 0.0025136, "n": 0}, {"scriptPubKey": {"reqSigs": 1, "hex": "a9145aabb17742e3c0b0a4b74d812f6ad69314cb4e5087", "addresses": ["39xSRGCtzBbidrB4afujV8eYsEiRqpqS5p"], "asm": "OP_HASH160 5aabb17742e3c0b0a4b74d812f6ad69314cb4e50 OP_EQUAL", "type": "scripthash"}, "value": 0.01004066, "n": 1}], "hex": "02000000000102581f7e30a2eb4182a2ed3989377151cf9643df5832287d9e3adade65335ba8e00200000017160014e34b390c2f478e827b38d23d238cc290c53aab2efeffffff5b69a32243c9e82c7031bb9c59592960eb3c06ec746b3e8fb4f559a38c0f472201000000171600145641b03be8889c8323630a25a1aca81ff0f13ce5feffffff02e0d503000000000017a914d5d8d453cdd5f05de1ed620b8d3324ca7d8a5d838722520f000000000017a9145aabb17742e3c0b0a4b74d812f6ad69314cb4e5087024730440220242761164f32b030af0b306babe6733e443cd630877567f637dfab5250a2a3420220229394eaccfcf578725548f5ff03e40e6ce7d48715f6a43ce03c504f3ee721b001210325372323413f1deda780cc463fe24bf03d6a9420ec7ebac858a5cc7db3e17a43024830450221009c21f1bc7b1be74fd0a3554ad54549a3a91a954a89585443038782342a939b3402203845bcfab206ade8f92d436983cefecaf954024523e19c66f4ffd67367887d01012103b70eeb3ade2e13c7a187384c7a06ce15b4ff67dfa5d929f990e5182257ee8bd5d1480800", "vin": [{"txinwitness": ["30440220242761164f32b030af0b306babe6733e443cd630877567f637dfab5250a2a3420220229394eaccfcf578725548f5ff03e40e6ce7d48715f6a43ce03c504f3ee721b001", "0325372323413f1deda780cc463fe24bf03d6a9420ec7ebac858a5cc7db3e17a43"], "sequence": 4294967294, "scriptSig": {"hex": "160014e34b390c2f478e827b38d23d238cc290c53aab2e", "asm": "0014e34b390c2f478e827b38d23d238cc290c53aab2e"}, "vout": 2, "txid": "e0a85b3365deda3a9e7d283258df4396cf5171378939eda28241eba2307e1f58"}, {"txinwitness": ["30450221009c21f1bc7b1be74fd0a3554ad54549a3a91a954a89585443038782342a939b3402203845bcfab206ade8f92d436983cefecaf954024523e19c66f4ffd67367887d0101", "03b70eeb3ade2e13c7a187384c7a06ce15b4ff67dfa5d929f990e5182257ee8bd5"], "sequence": 4294967294, "scriptSig": {"hex": "1600145641b03be8889c8323630a25a1aca81ff0f13ce5", "asm": "00145641b03be8889c8323630a25a1aca81ff0f13ce5"}, "vout": 1, "txid": "22470f8ca359f5b48f3e6b74ec063ceb602959599cbb31702ce8c94322a3695b"}], "txid": "76d55112e43684a75aed86fdc59e0d112c958083a1f78a4db450ca12b9e24ccd", "blocktime": 1537871767, "version": 2, "confirmations": 11495, "time": 1537871767, "locktime": 542929, "vsize": 257, "size": 419}