{"hash": "76da883b646cfe56c55722e56162817e17eb746c93317676c53ce99b0269d45c", "blockhash": "00000000000000000004ffacab907a6b429b9a5745fa0b75af4234bf69dd7176", "vout": [{"scriptPubKey": {"reqSigs": 1, "hex": "76a914cb4ca1b52996ef6bbe69b8d8da8a91d16f38161988ac", "addresses": ["1KXwyQQ1KWWzFCoZfzznHgo9o36TZzhWyp"], "asm": "OP_DUP OP_HASH160 cb4ca1b52996ef6bbe69b8d8da8a91d16f381619 OP_EQUALVERIFY OP_CHECKSIG", "type": "pubkeyhash"}, "value": 0.99987548, "n": 0}, {"scriptPubKey": {"reqSigs": 1, "hex": "a9145001dad15e8e6e1c79c9824955b24ed66fa62d3e87", "addresses": ["38z4Cm6Bh5JYQGUuKzpdStsfFpg36Zd1V4"], "asm": "OP_HASH160 5001dad15e8e6e1c79c9824955b24ed66fa62d3e OP_EQUAL", "type": "scripthash"}, "value": 2.0, "n": 1}], "hex": "01000000012a14bacf12c14ad83cf8c49bf5511e58a513ee55793c150cd3d7ff6694848ea6010000006b483045022100ac65b5f09a1996aea95ede13ef26595f98c80ce66786657f834f9e192434fd23022022558b33bc272ae3022d52d29b533a5bc7f4cf681250226336c3eac935306ffa0121031df7a3293c418e9e0b5ad8ac4121a4e3436002552c3f8b4a07c1acb8d1297a37ffffffff025cb0f505000000001976a914cb4ca1b52996ef6bbe69b8d8da8a91d16f38161988ac00c2eb0b0000000017a9145001dad15e8e6e1c79c9824955b24ed66fa62d3e8700000000", "vin": [{"sequence": 4294967295, "scriptSig": {"hex": "483045022100ac65b5f09a1996aea95ede13ef26595f98c80ce66786657f834f9e192434fd23022022558b33bc272ae3022d52d29b533a5bc7f4cf681250226336c3eac935306ffa0121031df7a3293c418e9e0b5ad8ac4121a4e3436002552c3f8b4a07c1acb8d1297a37", "asm": "3045022100ac65b5f09a1996aea95ede13ef26595f98c80ce66786657f834f9e192434fd23022022558b33bc272ae3022d52d29b533a5bc7f4cf681250226336c3eac935306ffa[ALL] 031df7a3293c418e9e0b5ad8ac4121a4e3436002552c3f8b4a07c1acb8d1297a37"}, "vout": 1, "txid": "a68e849466ffd7d30c153c7955ee13a5581e51f59bc4f83cd84ac112cfba142a"}], "txid": "76da883b646cfe56c55722e56162817e17eb746c93317676c53ce99b0269d45c", "blocktime": 1537875543, "version": 1, "confirmations": 11464, "time": 1537875543, "locktime": 0, "vsize": 224, "size": 224}