{"hash": "5aef3340defc00d7b135d785cdaaa19253f048cc6ad40750ced42e6fae0fbe94", "blockhash": "00000000000000000024a2167bbff67b0be802c0b01cdd79e6331c2be6459f87", "vout": [{"scriptPubKey": {"reqSigs": 1, "hex": "76a914ff0a31c5d809b8e52c4a9d66592d20634943e95488ac", "addresses": ["1QFXXEo4jDssKGQ3UpHskCQpwqwQHNULzk"], "asm": "OP_DUP OP_HASH160 ff0a31c5d809b8e52c4a9d66592d20634943e954 OP_EQUALVERIFY OP_CHECKSIG", "type": "pubkeyhash"}, "value": 0.076, "n": 0}, {"scriptPubKey": {"reqSigs": 1, "hex": "a9141e84f77c28d94025cf185c79e9db25d9cd9431f587", "addresses": ["34UPUzMHq4PwtvNo2Wx2R9VY97xWCmfwAA"], "asm": "OP_HASH160 1e84f77c28d94025cf185c79e9db25d9cd9431f5 OP_EQUAL", "type": "scripthash"}, "value": 1.84571031, "n": 1}], "hex": "020000000001010ac230af0e62a6e052c541550feb3719a5b184d437dfa9c4d0ddbdaf9a6c0a870100000017160014efecd66b0b68be6a04f39250e7f516a33b74a0caffffffff0280f77300000000001976a914ff0a31c5d809b8e52c4a9d66592d20634943e95488ac9754000b0000000017a9141e84f77c28d94025cf185c79e9db25d9cd9431f5870247304402203400ff25552f36243887d40a8d2b7b1eab02c72470378785996b608d9f322a6f022073c2435c55a696d9e1b1898d76aa9a51731a72d88ce290751f36ae45bd229f8f012103c3f338e1ebc5e8e07406d02469ceea52e271507de6e505c39d5bf2d880ddc59000000000", "vin": [{"txinwitness": ["304402203400ff25552f36243887d40a8d2b7b1eab02c72470378785996b608d9f322a6f022073c2435c55a696d9e1b1898d76aa9a51731a72d88ce290751f36ae45bd229f8f01", "03c3f338e1ebc5e8e07406d02469ceea52e271507de6e505c39d5bf2d880ddc590"], "sequence": 4294967295, "scriptSig": {"hex": "160014efecd66b0b68be6a04f39250e7f516a33b74a0ca", "asm": "0014efecd66b0b68be6a04f39250e7f516a33b74a0ca"}, "vout": 1, "txid": "870a6c9aafbdddd0c4a9df37d484b1a51937eb0f5541c552e0a6620eaf30c20a"}], "txid": "76e104b572742a618f168f18669e501120f6a081f7798b25c5eb2abf783871b3", "blocktime": 1537870564, "version": 2, "confirmations": 11515, "time": 1537870564, "locktime": 0, "vsize": 168, "size": 249}