{"hash": "76e1e516a0cff78622157e7b07a73e0f805e12c669e511dabeb5afa57482a1ee", "blockhash": "00000000000000000004ffacab907a6b429b9a5745fa0b75af4234bf69dd7176", "vout": [{"scriptPubKey": {"reqSigs": 1, "hex": "76a9144b0bc95a758a202fc0b41600faafaaee0a16cd6c88ac", "addresses": ["17qooL9nYvrE9S8f6EmDLn1oUjCSGWEYV4"], "asm": "OP_DUP OP_HASH160 4b0bc95a758a202fc0b41600faafaaee0a16cd6c OP_EQUALVERIFY OP_CHECKSIG", "type": "pubkeyhash"}, "value": 0.00010558, "n": 0}, {"scriptPubKey": {"reqSigs": 1, "hex": "76a91496d5331c819799e82640df1e657e9cdc360c8d2088ac", "addresses": ["1EkXm9UpEev2GghCh8CUdEPDvf1mZW8hm3"], "asm": "OP_DUP OP_HASH160 96d5331c819799e82640df1e657e9cdc360c8d20 OP_EQUALVERIFY OP_CHECKSIG", "type": "pubkeyhash"}, "value": 0.0045364, "n": 1}], "hex": "01000000013b8d2d6bd6784c2c5117a1090eaaa2c5581aa42c0c53c6dafadf8255ad1c551e000000006a473044022026df157785a632cecb836bfb80a3bff17bf206a477569d87219430c37791fc0c02200396fe5b1c44ef7bc6ee39fb53fdc8d512807f33532c2392f50d3191ac0c4738012103e268bbd60dc4841c7d58bafd339c8a9ad3fb11fe1a75a809efddcc6c13c023d9ffffffff023e290000000000001976a9144b0bc95a758a202fc0b41600faafaaee0a16cd6c88ac08ec0600000000001976a91496d5331c819799e82640df1e657e9cdc360c8d2088ac00000000", "vin": [{"sequence": 4294967295, "scriptSig": {"hex": "473044022026df157785a632cecb836bfb80a3bff17bf206a477569d87219430c37791fc0c02200396fe5b1c44ef7bc6ee39fb53fdc8d512807f33532c2392f50d3191ac0c4738012103e268bbd60dc4841c7d58bafd339c8a9ad3fb11fe1a75a809efddcc6c13c023d9", "asm": "3044022026df157785a632cecb836bfb80a3bff17bf206a477569d87219430c37791fc0c02200396fe5b1c44ef7bc6ee39fb53fdc8d512807f33532c2392f50d3191ac0c4738[ALL] 03e268bbd60dc4841c7d58bafd339c8a9ad3fb11fe1a75a809efddcc6c13c023d9"}, "vout": 0, "txid": "1e551cad5582dffadac6530c2ca41a58c5a2aa0e09a117512c4c78d66b2d8d3b"}], "txid": "76e1e516a0cff78622157e7b07a73e0f805e12c669e511dabeb5afa57482a1ee", "blocktime": 1537875543, "version": 1, "confirmations": 11464, "time": 1537875543, "locktime": 0, "vsize": 225, "size": 225}