{"hash": "76eaf9c305f880eba938af09187c9a3cac60bed68f27ed49ed49fcc0f515e9f0", "blockhash": "0000000000000000000e13cef7c366c0283d82e591d1acd082e914b08063cdf1", "vout": [{"scriptPubKey": {"reqSigs": 1, "hex": "76a9147415df5676a44cf31715713580592e97a9eda7d388ac", "addresses": ["1BaoayWKKRzqJSBx6KjDMVnss3rjHzBrBG"], "asm": "OP_DUP OP_HASH160 7415df5676a44cf31715713580592e97a9eda7d3 OP_EQUALVERIFY OP_CHECKSIG", "type": "pubkeyhash"}, "value": 0.0689358, "n": 0}, {"scriptPubKey": {"reqSigs": 1, "hex": "76a9141dbf7de4f7e48e6ebc2bac51cd8fa797f6559d1388ac", "addresses": ["13iHzeQKtqvL6tZxsQ47gj7FusQpJY94HJ"], "asm": "OP_DUP OP_HASH160 1dbf7de4f7e48e6ebc2bac51cd8fa797f6559d13 OP_EQUALVERIFY OP_CHECKSIG", "type": "pubkeyhash"}, "value": 0.00184, "n": 1}], "hex": "0200000001db311f1186d60fb5b08c031cebd16c5ef2d6fb31296e85af441fbf24ec117816000000006b483045022100c69bcde2e55ba635c21bf33d60034d4617e80c460f69cfba2f11d6de4f2b46b502201b946e785975274b61815315df4e4dd1b7fe32e9fd2c2a5ecdf6f4ad6c7a2148012102b89f721da2aca8108448275fb676e3292e7a21d758f67f47607f1551cd9e7845feffffff020c306900000000001976a9147415df5676a44cf31715713580592e97a9eda7d388acc0ce0200000000001976a9141dbf7de4f7e48e6ebc2bac51cd8fa797f6559d1388ac0f490800", "vin": [{"sequence": 4294967294, "scriptSig": {"hex": "483045022100c69bcde2e55ba635c21bf33d60034d4617e80c460f69cfba2f11d6de4f2b46b502201b946e785975274b61815315df4e4dd1b7fe32e9fd2c2a5ecdf6f4ad6c7a2148012102b89f721da2aca8108448275fb676e3292e7a21d758f67f47607f1551cd9e7845", "asm": "3045022100c69bcde2e55ba635c21bf33d60034d4617e80c460f69cfba2f11d6de4f2b46b502201b946e785975274b61815315df4e4dd1b7fe32e9fd2c2a5ecdf6f4ad6c7a2148[ALL] 02b89f721da2aca8108448275fb676e3292e7a21d758f67f47607f1551cd9e7845"}, "vout": 0, "txid": "167811ec24bf1f44af856e2931fbd6f25e6cd1eb1c038cb0b50fd686111f31db"}], "txid": "76eaf9c305f880eba938af09187c9a3cac60bed68f27ed49ed49fcc0f515e9f0", "blocktime": 1537871767, "version": 2, "confirmations": 11493, "time": 1537871767, "locktime": 542991, "vsize": 226, "size": 226}