{"hash": "1f9b290e9c46228556efae3ae6694cdc76b65a777bc5be1446de2f9b25a5d03b", "blockhash": "0000000000000000001cda96e906b7601b7a6fb1a3b62bca570a9e5d8f4b3de1", "vout": [{"scriptPubKey": {"reqSigs": 1, "hex": "a91453aa063f3159089bc820f8de6216eac678bba9df87", "addresses": ["39KPgy7LKDkXQqWvMJNAEaD1SSyfHiJQPb"], "asm": "OP_HASH160 53aa063f3159089bc820f8de6216eac678bba9df OP_EQUAL", "type": "scripthash"}, "value": 2.49283443, "n": 0}, {"scriptPubKey": {"reqSigs": 1, "hex": "76a9148b79c3c4476ba5a513b85df8fff1cffffd0dc8a388ac", "addresses": ["1DiUo2TJBiwWwT8KLHQC9tUKHaEny2T2o4"], "asm": "OP_DUP OP_HASH160 8b79c3c4476ba5a513b85df8fff1cffffd0dc8a3 OP_EQUALVERIFY OP_CHECKSIG", "type": "pubkeyhash"}, "value": 0.001375, "n": 1}], "hex": "020000000001011c5f78bcf542184f1e62f127d38824a2c2f92685d2422c3a3eace15728b707500000000017160014e94c481a5ddde77b9610659ce19f9b27e56d884ffeffffff0273c3db0e0000000017a91453aa063f3159089bc820f8de6216eac678bba9df871c190200000000001976a9148b79c3c4476ba5a513b85df8fff1cffffd0dc8a388ac0247304402204ee6689f486e8fa73c88984d2ddcb6de50087e9cad566d6163be6b63243b33b90220470468fec864c6f22f90a8586e44491869e7fac9b4d1a1cfbd781b558f101a700121025eeeb58d87e624d91395305462a2f1d40ad384e425a6e91efb1bf3f902fd76c613490800", "vin": [{"txinwitness": ["304402204ee6689f486e8fa73c88984d2ddcb6de50087e9cad566d6163be6b63243b33b90220470468fec864c6f22f90a8586e44491869e7fac9b4d1a1cfbd781b558f101a7001", "025eeeb58d87e624d91395305462a2f1d40ad384e425a6e91efb1bf3f902fd76c6"], "sequence": 4294967294, "scriptSig": {"hex": "160014e94c481a5ddde77b9610659ce19f9b27e56d884f", "asm": "0014e94c481a5ddde77b9610659ce19f9b27e56d884f"}, "vout": 0, "txid": "5007b72857e1ac3e3a2c42d28526f9c2a22488d327f1621e4f1842f5bc785f1c"}], "txid": "76ee4bc45767f1dbadb812f314a2ccce6a8a3d0005f94e83271c241238156df6", "blocktime": 1537873282, "version": 2, "confirmations": 11484, "time": 1537873282, "locktime": 542995, "vsize": 168, "size": 249}