{"hash": "76f1142f76474ba924b1080270195d02d46eefa47a6bc0b8a45a5e92e37c1c4f", "blockhash": "0000000000000000000baef3f32e3676a92c3b2e5da21b426e4f302fc371ce76", "vout": [{"scriptPubKey": {"reqSigs": 1, "hex": "76a9146c92f4a402102b74d0ec8e69bfc820481d1674f288ac", "addresses": ["1Au62Ng73wUFg7mtLAMDxXjuDMzRWpfVW3"], "asm": "OP_DUP OP_HASH160 6c92f4a402102b74d0ec8e69bfc820481d1674f2 OP_EQUALVERIFY OP_CHECKSIG", "type": "pubkeyhash"}, "value": 0.00313, "n": 0}, {"scriptPubKey": {"reqSigs": 1, "hex": "76a91496124882c229b8bf818e05ee16358ccc3691306588ac", "addresses": ["1EgWG7mcjucwRFGzsQ7GH8dy3LKs45kWT8"], "asm": "OP_DUP OP_HASH160 96124882c229b8bf818e05ee16358ccc36913065 OP_EQUALVERIFY OP_CHECKSIG", "type": "pubkeyhash"}, "value": 0.0055811, "n": 1}], "hex": "0100000001e6349f5937d786ba9bd8e9c5c7d32a96211ab6fe61b9a2009bcedcd8f5f90b6f040000006b483045022100fa6079808fbc8df43b6058e6a8570c90bee04046196009cf8421d33e4b332e4702205db3dbd33fb1a8ea34403af13bd3ea4b3db4ccfc7d1e01772fd9a7eceb3b47850121039a16dbe89437393cb8cd6768c6ec577767de1976ff4ca657a7d98b1370cdf76effffffff02a8c60400000000001976a9146c92f4a402102b74d0ec8e69bfc820481d1674f288ac1e840800000000001976a91496124882c229b8bf818e05ee16358ccc3691306588ac00000000", "vin": [{"sequence": 4294967295, "scriptSig": {"hex": "483045022100fa6079808fbc8df43b6058e6a8570c90bee04046196009cf8421d33e4b332e4702205db3dbd33fb1a8ea34403af13bd3ea4b3db4ccfc7d1e01772fd9a7eceb3b47850121039a16dbe89437393cb8cd6768c6ec577767de1976ff4ca657a7d98b1370cdf76e", "asm": "3045022100fa6079808fbc8df43b6058e6a8570c90bee04046196009cf8421d33e4b332e4702205db3dbd33fb1a8ea34403af13bd3ea4b3db4ccfc7d1e01772fd9a7eceb3b4785[ALL] 039a16dbe89437393cb8cd6768c6ec577767de1976ff4ca657a7d98b1370cdf76e"}, "vout": 4, "txid": "6f0bf9f5d8dcce9b00a2b961feb61a21962ad3c7c5e9d89bba86d737599f34e6"}], "txid": "76f1142f76474ba924b1080270195d02d46eefa47a6bc0b8a45a5e92e37c1c4f", "blocktime": 1537876114, "version": 1, "confirmations": 11460, "time": 1537876114, "locktime": 0, "vsize": 226, "size": 226}