{"hash": "76f8d4ac97cbc2a324451a79c02b2cb0e970d7aeaf3ac42e1c7701e6aaad8db2", "blockhash": "0000000000000000001f76057863aec43deb6fa401d9628bb513d65a8098bfab", "vout": [{"scriptPubKey": {"reqSigs": 1, "hex": "76a914d243e6abb9a60fbff430b421d2df4b7d59ec186088ac", "addresses": ["1LAnF8h3qMGx3TSwNUHVneBZUEpwE4gu3D"], "asm": "OP_DUP OP_HASH160 d243e6abb9a60fbff430b421d2df4b7d59ec1860 OP_EQUALVERIFY OP_CHECKSIG", "type": "pubkeyhash"}, "value": 0.00077314, "n": 0}, {"scriptPubKey": {"reqSigs": 1, "hex": "76a9142ff919aef002705638b2ae964ddab49ca9631ffb88ac", "addresses": ["15NfAoz6pRSZhjK8d8hwk3gyExZFCJ7iSx"], "asm": "OP_DUP OP_HASH160 2ff919aef002705638b2ae964ddab49ca9631ffb OP_EQUALVERIFY OP_CHECKSIG", "type": "pubkeyhash"}, "value": 5.46e-06, "n": 1}, {"scriptPubKey": {"type": "nulldata", "hex": "6a146f6d6e69000000000000001f000011a767e0db00", "asm": "OP_RETURN 6f6d6e69000000000000001f000011a767e0db00"}, "value": 0.0, "n": 2}], "hex": "01000000013cb4e7174f7c1bc16a99f3feb13a7c097afaecd07bc06d00538be329d0b4f378000000006b483045022100b7d9e5104d22352e119194958467a5a312b28a55d105f38eb6859d531a8f7bbb02203671b472f0fdb8c551aff7a9b047bbb635d6b0b03c5d0bcb3d3b889d9145898101210271977291b74f1f5f5c42157e8aae804664eaaeccfd097918450d37f28fb94d77ffffffff03022e0100000000001976a914d243e6abb9a60fbff430b421d2df4b7d59ec186088ac22020000000000001976a9142ff919aef002705638b2ae964ddab49ca9631ffb88ac0000000000000000166a146f6d6e69000000000000001f000011a767e0db0000000000", "vin": [{"sequence": 4294967295, "scriptSig": {"hex": "483045022100b7d9e5104d22352e119194958467a5a312b28a55d105f38eb6859d531a8f7bbb02203671b472f0fdb8c551aff7a9b047bbb635d6b0b03c5d0bcb3d3b889d9145898101210271977291b74f1f5f5c42157e8aae804664eaaeccfd097918450d37f28fb94d77", "asm": "3045022100b7d9e5104d22352e119194958467a5a312b28a55d105f38eb6859d531a8f7bbb02203671b472f0fdb8c551aff7a9b047bbb635d6b0b03c5d0bcb3d3b889d91458981[ALL] 0271977291b74f1f5f5c42157e8aae804664eaaeccfd097918450d37f28fb94d77"}, "vout": 0, "txid": "78f3b4d029e38b53006dc07bd0ecfa7a097c3ab1fef3996ac11b7c4f17e7b43c"}], "txid": "76f8d4ac97cbc2a324451a79c02b2cb0e970d7aeaf3ac42e1c7701e6aaad8db2", "blocktime": 1537873891, "version": 1, "confirmations": 11475, "time": 1537873891, "locktime": 0, "vsize": 257, "size": 257}