{"hash": "76fef0a98b780cfe4d094e5ef6ad0cb0b6ee0890864e19cd3bfa25135c5859e4", "blockhash": "0000000000000000001f76057863aec43deb6fa401d9628bb513d65a8098bfab", "vout": [{"scriptPubKey": {"reqSigs": 1, "hex": "76a914a4e8c8b262d15a7f6daae24d8e20f001c6c7dd6688ac", "addresses": ["1G2xgaJK3GQysx4Lve9U7Tm2KY2BTA8FpD"], "asm": "OP_DUP OP_HASH160 a4e8c8b262d15a7f6daae24d8e20f001c6c7dd66 OP_EQUALVERIFY OP_CHECKSIG", "type": "pubkeyhash"}, "value": 0.01096889, "n": 0}, {"scriptPubKey": {"reqSigs": 1, "hex": "76a914f992a378277099dc6e7a4da0a2afb8aa62b0dc7588ac", "addresses": ["1PkcvPgKBJUUWCxTsXDZCLS1FEFg6xBJKa"], "asm": "OP_DUP OP_HASH160 f992a378277099dc6e7a4da0a2afb8aa62b0dc75 OP_EQUALVERIFY OP_CHECKSIG", "type": "pubkeyhash"}, "value": 0.0028625, "n": 1}], "hex": "01000000011b60eab019b29b97b6a487ec2a545adc8e8866ad80c9963e686e508fd05df04500000000da0047304402207b9d184f99b39ad8bf349c12db044dc03db8d7f24afd42b60bc1f8a7392ebfc60220490d795e31994670b658cb7b168e2078bae2cf36f34431ed0dafae321fa7ed38014830450221009ced609ff10f455045b187a26aa6b78df619ea696a8bb32a30b5d72c0ff2825d022027f596a8a58a971f418f5ab417d36e19861a29fc18bb88fca1d80a19acb10a0e0147522102907a54bed8ad74b3f35638c60114ca240a308cb986f3f2f306178869a8880b612103f37967c71a4c2e29022518e0a13475e7d9697a009f3d8412bb429c5ed1ea40e152aeffffffff02b9bc1000000000001976a914a4e8c8b262d15a7f6daae24d8e20f001c6c7dd6688ac2a5e0400000000001976a914f992a378277099dc6e7a4da0a2afb8aa62b0dc7588ac00000000", "vin": [{"sequence": 4294967295, "scriptSig": {"hex": "0047304402207b9d184f99b39ad8bf349c12db044dc03db8d7f24afd42b60bc1f8a7392ebfc60220490d795e31994670b658cb7b168e2078bae2cf36f34431ed0dafae321fa7ed38014830450221009ced609ff10f455045b187a26aa6b78df619ea696a8bb32a30b5d72c0ff2825d022027f596a8a58a971f418f5ab417d36e19861a29fc18bb88fca1d80a19acb10a0e0147522102907a54bed8ad74b3f35638c60114ca240a308cb986f3f2f306178869a8880b612103f37967c71a4c2e29022518e0a13475e7d9697a009f3d8412bb429c5ed1ea40e152ae", "asm": "0 304402207b9d184f99b39ad8bf349c12db044dc03db8d7f24afd42b60bc1f8a7392ebfc60220490d795e31994670b658cb7b168e2078bae2cf36f34431ed0dafae321fa7ed38[ALL] 30450221009ced609ff10f455045b187a26aa6b78df619ea696a8bb32a30b5d72c0ff2825d022027f596a8a58a971f418f5ab417d36e19861a29fc18bb88fca1d80a19acb10a0e[ALL] 522102907a54bed8ad74b3f35638c60114ca240a308cb986f3f2f306178869a8880b612103f37967c71a4c2e29022518e0a13475e7d9697a009f3d8412bb429c5ed1ea40e152ae"}, "vout": 0, "txid": "45f05dd08f506e683e96c980ad66888edc5a542aec87a4b6979bb219b0ea601b"}], "txid": "76fef0a98b780cfe4d094e5ef6ad0cb0b6ee0890864e19cd3bfa25135c5859e4", "blocktime": 1537873891, "version": 1, "confirmations": 11478, "time": 1537873891, "locktime": 0, "vsize": 337, "size": 337}