{"hash": "770269cbce111399fbb945baf646fc6f63b9a7c0758e5c4a4cb79568ee97672f", "blockhash": "0000000000000000001f0ddff1eddb255c1121bcd4da4f1bc9a0da00cae72433", "vout": [{"scriptPubKey": {"reqSigs": 1, "hex": "a9148a902d0333601f4c1952f353bb5c280ff780bde087", "addresses": ["3EKftXccepMCYQeQKJkPo6FMcxmKcbQiQ4"], "asm": "OP_HASH160 8a902d0333601f4c1952f353bb5c280ff780bde0 OP_EQUAL", "type": "scripthash"}, "value": 0.00046, "n": 0}], "hex": "01000000026bae61c12cba78e6ea5130d638730f76e19881c4f4d8913bbb5cc7e20d8c8029000000006b483045022100ddd960c0adb94ba26a905edcff43d1b38364301ad47581f533353738279af1fe02200cbda71ab688e6010452f6fcc2ea4fd25e5d2c566a6721e71989688feac77d7e0121038370e3de6b872baad28619ed44e8c57b9554034aabfe11ff875d22b9eb873c8affffffffa897bea9c914cbf27bb61c5ffbc399a97d1138d933302fa5ad6e16b639214633000000006a473044022021aa3c3e088c2c1fe02d920c4e98bde6eb9fcfd07f0b78fe115cfb7c2d9cf644022033fb66b903e7bb14e5afe3d9836b81d12e038acbc35bd73ee4e654c45e7f238701210210464ca7e80f01eced365c683ed63f24d5715b0219bc00db8ea720028def8d9bffffffff01b0b300000000000017a9148a902d0333601f4c1952f353bb5c280ff780bde08700000000", "vin": [{"sequence": 4294967295, "scriptSig": {"hex": "483045022100ddd960c0adb94ba26a905edcff43d1b38364301ad47581f533353738279af1fe02200cbda71ab688e6010452f6fcc2ea4fd25e5d2c566a6721e71989688feac77d7e0121038370e3de6b872baad28619ed44e8c57b9554034aabfe11ff875d22b9eb873c8a", "asm": "3045022100ddd960c0adb94ba26a905edcff43d1b38364301ad47581f533353738279af1fe02200cbda71ab688e6010452f6fcc2ea4fd25e5d2c566a6721e71989688feac77d7e[ALL] 038370e3de6b872baad28619ed44e8c57b9554034aabfe11ff875d22b9eb873c8a"}, "vout": 0, "txid": "29808c0de2c75cbb3b91d8f4c48198e1760f7338d63051eae678ba2cc161ae6b"}, {"sequence": 4294967295, "scriptSig": {"hex": "473044022021aa3c3e088c2c1fe02d920c4e98bde6eb9fcfd07f0b78fe115cfb7c2d9cf644022033fb66b903e7bb14e5afe3d9836b81d12e038acbc35bd73ee4e654c45e7f238701210210464ca7e80f01eced365c683ed63f24d5715b0219bc00db8ea720028def8d9b", "asm": "3044022021aa3c3e088c2c1fe02d920c4e98bde6eb9fcfd07f0b78fe115cfb7c2d9cf644022033fb66b903e7bb14e5afe3d9836b81d12e038acbc35bd73ee4e654c45e7f2387[ALL] 0210464ca7e80f01eced365c683ed63f24d5715b0219bc00db8ea720028def8d9b"}, "vout": 0, "txid": "33462139b6166eada52f3033d938117da999c3fb5f1cb67bf2cb14c9a9be97a8"}], "txid": "770269cbce111399fbb945baf646fc6f63b9a7c0758e5c4a4cb79568ee97672f", "blocktime": 1537872018, "version": 1, "confirmations": 11489, "time": 1537872018, "locktime": 0, "vsize": 337, "size": 337}