{"hash": "cf227aeb43383ca105d3bb9cc843e56d2c53351bfdac68088361b93e3f95791b", "blockhash": "0000000000000000001cda96e906b7601b7a6fb1a3b62bca570a9e5d8f4b3de1", "vout": [{"scriptPubKey": {"reqSigs": 1, "hex": "a9143817aa0c2da2bde8b2c72daa21ca2add43d525aa87", "addresses": ["36oc7WMzPP3TiKN157hX7EU9aWnVynkbYN"], "asm": "OP_HASH160 3817aa0c2da2bde8b2c72daa21ca2add43d525aa OP_EQUAL", "type": "scripthash"}, "value": 0.10225825, "n": 0}, {"scriptPubKey": {"reqSigs": 1, "hex": "76a9147e2a7dc3cf2b35930e0a2d6bc4042864a72d136c88ac", "addresses": ["1CW73Wv322idaVwgCPBvRtVmiP9BzfxzFx"], "asm": "OP_DUP OP_HASH160 7e2a7dc3cf2b35930e0a2d6bc4042864a72d136c OP_EQUALVERIFY OP_CHECKSIG", "type": "pubkeyhash"}, "value": 0.00984411, "n": 1}], "hex": "01000000000101cafe25ea3ab94356a544205064ce156ce34f13fb1fb936fd06c5659ddf24196e080000001716001474aec5d342c03d6972682a519080643d831675f4ffffffff02a1089c000000000017a9143817aa0c2da2bde8b2c72daa21ca2add43d525aa875b050f00000000001976a9147e2a7dc3cf2b35930e0a2d6bc4042864a72d136c88ac02483045022100b0e1c0ea58998a6188b87304294e15931697f4d6187456d48a27f587e8d23cd8022073c73bd4350ea402da8799153a314e1a7d6c1a2ba9174bddc3b5d3c58ea483870121031356c7c50293bb52fc3c98c916549fb8381bb07782d75abebbbb44c496181d0f00000000", "vin": [{"txinwitness": ["3045022100b0e1c0ea58998a6188b87304294e15931697f4d6187456d48a27f587e8d23cd8022073c73bd4350ea402da8799153a314e1a7d6c1a2ba9174bddc3b5d3c58ea4838701", "031356c7c50293bb52fc3c98c916549fb8381bb07782d75abebbbb44c496181d0f"], "sequence": 4294967295, "scriptSig": {"hex": "16001474aec5d342c03d6972682a519080643d831675f4", "asm": "001474aec5d342c03d6972682a519080643d831675f4"}, "vout": 8, "txid": "6e1924df9d65c506fd36b91ffb134fe36c15ce64502044a55643b93aea25feca"}], "txid": "7703cebe3dded6c9d214bf182e171fcff4eb02e3978fe6f5ccb40ac565ac781f", "blocktime": 1537873282, "version": 1, "confirmations": 11480, "time": 1537873282, "locktime": 0, "vsize": 168, "size": 250}