{"hash": "7709bea5048277aa62a5b6036ca5ab287fbd89622d949b16324f816f11e99d88", "blockhash": "000000000000000000022b45ed06c6f4ccd3cf7fb5ba4856ebd2e58215665228", "vout": [{"scriptPubKey": {"reqSigs": 1, "hex": "76a914f56cd3f6945b52c7dbc4c1443b769b0ed441bfbf88ac", "addresses": ["1PNgvVx9dFopggjMJJNnocfJsnkxwd2HiB"], "asm": "OP_DUP OP_HASH160 f56cd3f6945b52c7dbc4c1443b769b0ed441bfbf OP_EQUALVERIFY OP_CHECKSIG", "type": "pubkeyhash"}, "value": 0.00499385, "n": 0}, {"scriptPubKey": {"type": "nulldata", "hex": "6a146f6d6e69000000000000001f00000004a817c800", "asm": "OP_RETURN 6f6d6e69000000000000001f00000004a817c800"}, "value": 0.0, "n": 1}, {"scriptPubKey": {"reqSigs": 1, "hex": "76a914a25dec4d0011064ef106a983c39c7a540699f22088ac", "addresses": ["1FoWyxwPXuj4C6abqwhjDWdz6D4PZgYRjA"], "asm": "OP_DUP OP_HASH160 a25dec4d0011064ef106a983c39c7a540699f220 OP_EQUALVERIFY OP_CHECKSIG", "type": "pubkeyhash"}, "value": 5.46e-06, "n": 2}], "hex": "0100000002912557e17582ceb1e81d6f8ffb4f018df417ac78d3254cd8c0dfa44a279b8e730a0000006b483045022100b148fcc825e692e7f352b2fec6f130c7c6f5d609bd3ebf46f2938708550e4f1102206a6076ee41e675eeb350316cc73b2cb18f2c0f4c5d451a0d6c8732daeb217e4a012102bffbb03ece052fe8cc64371ebfdaa063e2ed411098a6ae881a1541f9da9d7bedfeffffff2322e6deeff58dd8ec48ca7553553567f0df7b2c13a9763791fe7a7f05f26ff4010000006a47304402204bfdcc2ca07bc39a25f537560c91180417ffb18fc40004ac2dd0854cd8227dd70220046cfe2fec13f869a7db85aa5b8bac142a7c3a4e9acb6c9ff01b7ced01ad88e4012102bffbb03ece052fe8cc64371ebfdaa063e2ed411098a6ae881a1541f9da9d7bedfeffffff03b99e0700000000001976a914f56cd3f6945b52c7dbc4c1443b769b0ed441bfbf88ac0000000000000000166a146f6d6e69000000000000001f00000004a817c80022020000000000001976a914a25dec4d0011064ef106a983c39c7a540699f22088ac0b490800", "vin": [{"sequence": 4294967294, "scriptSig": {"hex": "483045022100b148fcc825e692e7f352b2fec6f130c7c6f5d609bd3ebf46f2938708550e4f1102206a6076ee41e675eeb350316cc73b2cb18f2c0f4c5d451a0d6c8732daeb217e4a012102bffbb03ece052fe8cc64371ebfdaa063e2ed411098a6ae881a1541f9da9d7bed", "asm": "3045022100b148fcc825e692e7f352b2fec6f130c7c6f5d609bd3ebf46f2938708550e4f1102206a6076ee41e675eeb350316cc73b2cb18f2c0f4c5d451a0d6c8732daeb217e4a[ALL] 02bffbb03ece052fe8cc64371ebfdaa063e2ed411098a6ae881a1541f9da9d7bed"}, "vout": 10, "txid": "738e9b274aa4dfc0d84c25d378ac17f48d014ffb8f6f1de8b1ce8275e1572591"}, {"sequence": 4294967294, "scriptSig": {"hex": "47304402204bfdcc2ca07bc39a25f537560c91180417ffb18fc40004ac2dd0854cd8227dd70220046cfe2fec13f869a7db85aa5b8bac142a7c3a4e9acb6c9ff01b7ced01ad88e4012102bffbb03ece052fe8cc64371ebfdaa063e2ed411098a6ae881a1541f9da9d7bed", "asm": "304402204bfdcc2ca07bc39a25f537560c91180417ffb18fc40004ac2dd0854cd8227dd70220046cfe2fec13f869a7db85aa5b8bac142a7c3a4e9acb6c9ff01b7ced01ad88e4[ALL] 02bffbb03ece052fe8cc64371ebfdaa063e2ed411098a6ae881a1541f9da9d7bed"}, "vout": 1, "txid": "f46ff2057f7afe913776a9132c7bdff06735555375ca48ecd88df5efdee62223"}], "txid": "7709bea5048277aa62a5b6036ca5ab287fbd89622d949b16324f816f11e99d88", "blocktime": 1537869901, "version": 1, "confirmations": 11524, "time": 1537869901, "locktime": 542987, "vsize": 404, "size": 404}