{"hash": "4bd37dba0b2cf48f6714a4c02ef8055b8d67f80de5fe7323526b943417493d40", "blockhash": "000000000000000000022b45ed06c6f4ccd3cf7fb5ba4856ebd2e58215665228", "vout": [{"scriptPubKey": {"reqSigs": 1, "hex": "a91433844647d19a39dfd87dfb4bb46a114eb80ead4487", "addresses": ["36PQqvUa6G32AarrccE2DFXyRJWakSxQqa"], "asm": "OP_HASH160 33844647d19a39dfd87dfb4bb46a114eb80ead44 OP_EQUAL", "type": "scripthash"}, "value": 0.3575, "n": 0}, {"scriptPubKey": {"reqSigs": 1, "hex": "a91484bdb9c68b0fbf4c7d90b24a3b4771447991965487", "addresses": ["3DntQEhvYMzt8ZzEs7LeFJkrnzPoARsMdU"], "asm": "OP_HASH160 84bdb9c68b0fbf4c7d90b24a3b47714479919654 OP_EQUAL", "type": "scripthash"}, "value": 2.25997229, "n": 1}], "hex": "0200000000010173c14f97d25de69d811e1ea441ffa28baefb4e7efa5bdc7b918a47f54c8320a200000000171600145d0546171b740d9e93dc865977b638dc5cca8d7afeffffff02708021020000000017a91433844647d19a39dfd87dfb4bb46a114eb80ead4487ad71780d0000000017a91484bdb9c68b0fbf4c7d90b24a3b477144799196548702483045022100a64bf26f91871f33715512be0d99322211af5c3f7aff5531866a0ca33571383e0220636a4010a1661b704b39bbb22286cf2ae8d0b14fe0dacb1ef76755de2a10721501210226ee77b684340641cb3f30275927d55022a1f3e0b18970ce8a0216567a3fd1e80b490800", "vin": [{"txinwitness": ["3045022100a64bf26f91871f33715512be0d99322211af5c3f7aff5531866a0ca33571383e0220636a4010a1661b704b39bbb22286cf2ae8d0b14fe0dacb1ef76755de2a10721501", "0226ee77b684340641cb3f30275927d55022a1f3e0b18970ce8a0216567a3fd1e8"], "sequence": 4294967294, "scriptSig": {"hex": "1600145d0546171b740d9e93dc865977b638dc5cca8d7a", "asm": "00145d0546171b740d9e93dc865977b638dc5cca8d7a"}, "vout": 0, "txid": "a220834cf5478a917bdc5bfa7e4efbae8ba2ff41a41e1e819de65dd2974fc173"}], "txid": "77090b2a244077f353565bc221b29c8e7898ba9db16e79c9ea3725225ea62caa", "blocktime": 1537869901, "version": 2, "confirmations": 11523, "time": 1537869901, "locktime": 542987, "vsize": 166, "size": 248}