{"hash": "7709733c4d2ffc100bf5dcea714958860ce8409bbc10a8554e77bd6f7f7601b6", "blockhash": "0000000000000000001f0ddff1eddb255c1121bcd4da4f1bc9a0da00cae72433", "vout": [{"scriptPubKey": {"reqSigs": 1, "hex": "76a914450d8a14ca0f0c272ccaf0829e3b8f087534df3988ac", "addresses": ["17J7qyCMrCLYqJsFNEJPYm2Xoq1k8bWAxU"], "asm": "OP_DUP OP_HASH160 450d8a14ca0f0c272ccaf0829e3b8f087534df39 OP_EQUALVERIFY OP_CHECKSIG", "type": "pubkeyhash"}, "value": 0.07323697, "n": 0}, {"scriptPubKey": {"reqSigs": 1, "hex": "a914e210d964b8387dbb0daa60268b7bdac16b07ac8b87", "addresses": ["3NJLpbkHLCdTuLCsrrsXhzcZMZQLyaRCbw"], "asm": "OP_HASH160 e210d964b8387dbb0daa60268b7bdac16b07ac8b OP_EQUAL", "type": "scripthash"}, "value": 1.95483242, "n": 1}], "hex": "01000000014aad28d6a5caf6a3c47ad1d4c68f0021bc3c5f990ac843b85862c0fc16e1363d000000006b4830450221008052b3ca95a4893c79f0ed307a20617981579039f67bf2c9c62308b39167034202205ca44c31fd994a12a49143a5653e89deeb446efdfb6aa159badbf883016dc7a9012102e890d5fd645b8faf5c26f52af978e997d32e52dda1f869b81c51791da960cad9fdffffff0231c06f00000000001976a914450d8a14ca0f0c272ccaf0829e3b8f087534df3988ac6ad6a60b0000000017a914e210d964b8387dbb0daa60268b7bdac16b07ac8b8711490800", "vin": [{"sequence": 4294967293, "scriptSig": {"hex": "4830450221008052b3ca95a4893c79f0ed307a20617981579039f67bf2c9c62308b39167034202205ca44c31fd994a12a49143a5653e89deeb446efdfb6aa159badbf883016dc7a9012102e890d5fd645b8faf5c26f52af978e997d32e52dda1f869b81c51791da960cad9", "asm": "30450221008052b3ca95a4893c79f0ed307a20617981579039f67bf2c9c62308b39167034202205ca44c31fd994a12a49143a5653e89deeb446efdfb6aa159badbf883016dc7a9[ALL] 02e890d5fd645b8faf5c26f52af978e997d32e52dda1f869b81c51791da960cad9"}, "vout": 0, "txid": "3d36e116fcc06258b843c80a995f3cbc21008fc6d4d17ac4a3f6caa5d628ad4a"}], "txid": "7709733c4d2ffc100bf5dcea714958860ce8409bbc10a8554e77bd6f7f7601b6", "blocktime": 1537872018, "version": 1, "confirmations": 11489, "time": 1537872018, "locktime": 542993, "vsize": 224, "size": 224}