{"hash": "83b28bdb6c6d91afd2cb3a2f225570fb361c2931a50f24392d57029ea5aad2f4", "blockhash": "0000000000000000000e13cef7c366c0283d82e591d1acd082e914b08063cdf1", "vout": [{"scriptPubKey": {"reqSigs": 1, "hex": "76a9148b1322de0c22373a0206dd6f37ce2b5b840262a588ac", "addresses": ["1DgMrGiWhJ8KWxqdTAnU5Cc4WT7n2mmp8X"], "asm": "OP_DUP OP_HASH160 8b1322de0c22373a0206dd6f37ce2b5b840262a5 OP_EQUALVERIFY OP_CHECKSIG", "type": "pubkeyhash"}, "value": 0.44036835, "n": 0}, {"scriptPubKey": {"reqSigs": 1, "hex": "00143da2adf7b296b8df304a66c2cd02662faec3a4bb", "addresses": ["bc1q8k32maajj6ud7vz2vmpv6qnx97hv8f9ma8d9cq"], "asm": "0 3da2adf7b296b8df304a66c2cd02662faec3a4bb", "type": "witness_v0_keyhash"}, "value": 1.24535644, "n": 1}], "hex": "01000000000101048d8ae24e442f0c25f644dd3f25de6685a23e11a16a865313a5fff209cf3a490000000000ffffffff02e3f29f02000000001976a9148b1322de0c22373a0206dd6f37ce2b5b840262a588ac5c436c07000000001600143da2adf7b296b8df304a66c2cd02662faec3a4bb024730440220734330792f934dff7401fd16fff4cadc7a1a91ade07633b9b691f634c89bd67102205a7c848393242c6ec22a4d1ec1e5d30015080a2d6fc06f4a62f6b76cb3047db80121036dae0b1ee7a1425861d0a1082376b7426cd6ec5a1a58ad998c9abc5f910658ea00000000", "vin": [{"txinwitness": ["30440220734330792f934dff7401fd16fff4cadc7a1a91ade07633b9b691f634c89bd67102205a7c848393242c6ec22a4d1ec1e5d30015080a2d6fc06f4a62f6b76cb3047db801", "036dae0b1ee7a1425861d0a1082376b7426cd6ec5a1a58ad998c9abc5f910658ea"], "sequence": 4294967295, "scriptSig": {"hex": "", "asm": ""}, "vout": 0, "txid": "493acf09f2ffa51353866aa1113ea28566de253fdd44f6250c2f444ee28a8d04"}], "txid": "770aa89078be2d90ef7bbd0433bb1cea1767ce2c4ee3c469a8b7c3ccd2d4a8a3", "blocktime": 1537871767, "version": 1, "confirmations": 11495, "time": 1537871767, "locktime": 0, "vsize": 144, "size": 225}