{"hash": "fdba388608b3a1459a1b0687cf0dbe698d10e887551a1b8d4a1e3d34565238ef", "blockhash": "0000000000000000001cda96e906b7601b7a6fb1a3b62bca570a9e5d8f4b3de1", "vout": [{"scriptPubKey": {"reqSigs": 1, "hex": "a914ad2821a9f893f045eb7cc02786d644f0693e51e587", "addresses": ["3HUau7gANRW5VjTWc6owjirKdL8MTT45EE"], "asm": "OP_HASH160 ad2821a9f893f045eb7cc02786d644f0693e51e5 OP_EQUAL", "type": "scripthash"}, "value": 6.68e-06, "n": 0}, {"scriptPubKey": {"reqSigs": 1, "hex": "a914f8b0337e8881e09f709266c65c7096970e89933e87", "addresses": ["3QMxanfjbgDwTtrLx8Qi3s2x9pbNGaSeGr"], "asm": "OP_HASH160 f8b0337e8881e09f709266c65c7096970e89933e OP_EQUAL", "type": "scripthash"}, "value": 0.09031657, "n": 1}], "hex": "02000000000101ea73b06d0b74cc709dfc73442e2a007a901a2bed6d7152241ed191612dcd2c000000000017160014ae7d050038f47cf32943fd331f0f7f2396a84688feffffff029c0200000000000017a914ad2821a9f893f045eb7cc02786d644f0693e51e587e9cf89000000000017a914f8b0337e8881e09f709266c65c7096970e89933e8702473044022036597cd0abc7aff69ba2070482239dba2f090d7945de3f715cb96db84c623fcc02207e284f000759c3eaaed7eb0592ec995eff1706dbcc5972300bc93b5f668450ce012102c5907e779f47d461969bc9f2f2ab920f44ac6e39d300495ad15cc50f93dac1f713490800", "vin": [{"txinwitness": ["3044022036597cd0abc7aff69ba2070482239dba2f090d7945de3f715cb96db84c623fcc02207e284f000759c3eaaed7eb0592ec995eff1706dbcc5972300bc93b5f668450ce01", "02c5907e779f47d461969bc9f2f2ab920f44ac6e39d300495ad15cc50f93dac1f7"], "sequence": 4294967294, "scriptSig": {"hex": "160014ae7d050038f47cf32943fd331f0f7f2396a84688", "asm": "0014ae7d050038f47cf32943fd331f0f7f2396a84688"}, "vout": 0, "txid": "002ccd2d6191d11e2452716ded2b1a907a002a2e4473fc9d70cc740b6db073ea"}], "txid": "770bf29c8f1666881d2d3aeba07a8cfd7fb860917b03fa026d471b6f1fa73345", "blocktime": 1537873282, "version": 2, "confirmations": 11481, "time": 1537873282, "locktime": 542995, "vsize": 166, "size": 247}