{"hash": "771004f5d8501b395568429360e252e3f7b45fb7e7adf9a8b8edbe0446fb0257", "blockhash": "00000000000000000017f5eb5941039fbcee6240d03bc1f2f8e35350df66a1d8", "vout": [{"scriptPubKey": {"reqSigs": 1, "hex": "76a9143c33bf645e01978183737bbd918fbbd31abeef9988ac", "addresses": ["16VKXzsoMR7VKtaBWBss7KSPwHSZuVi6dF"], "asm": "OP_DUP OP_HASH160 3c33bf645e01978183737bbd918fbbd31abeef99 OP_EQUALVERIFY OP_CHECKSIG", "type": "pubkeyhash"}, "value": 0.0062, "n": 0}, {"scriptPubKey": {"reqSigs": 1, "hex": "76a9144f9dd9ec82776635b87f8d80d6c1fc5de61e1cf288ac", "addresses": ["18FyUrTkRE9cCLXX1x78XzCRQ8T87vSkG4"], "asm": "OP_DUP OP_HASH160 4f9dd9ec82776635b87f8d80d6c1fc5de61e1cf2 OP_EQUALVERIFY OP_CHECKSIG", "type": "pubkeyhash"}, "value": 0.24330026, "n": 1}], "hex": "0100000001914121b19ddb2e4beba6c7e41f8b5ebfc9c2157e9cf18c5cd63498f1c4890652010000006b483045022100ba756cec1823b40694b6fd22bf3690c0fe9e9409796338ef0c4dfb664ca7a03b02207d8da9ae359ccbd58b1bce22b9ac04c87be7b2dedea8a57eec05e572a86433d501210307be97943f5169d2a7975f1ebfe986a98baf71e85bb31ee49264ef1461e372a5fdffffff02e0750900000000001976a9143c33bf645e01978183737bbd918fbbd31abeef9988ac2a3f7301000000001976a9144f9dd9ec82776635b87f8d80d6c1fc5de61e1cf288ac15490800", "vin": [{"sequence": 4294967293, "scriptSig": {"hex": "483045022100ba756cec1823b40694b6fd22bf3690c0fe9e9409796338ef0c4dfb664ca7a03b02207d8da9ae359ccbd58b1bce22b9ac04c87be7b2dedea8a57eec05e572a86433d501210307be97943f5169d2a7975f1ebfe986a98baf71e85bb31ee49264ef1461e372a5", "asm": "3045022100ba756cec1823b40694b6fd22bf3690c0fe9e9409796338ef0c4dfb664ca7a03b02207d8da9ae359ccbd58b1bce22b9ac04c87be7b2dedea8a57eec05e572a86433d5[ALL] 0307be97943f5169d2a7975f1ebfe986a98baf71e85bb31ee49264ef1461e372a5"}, "vout": 1, "txid": "520689c4f19834d65c8cf19c7e15c2c9bf5e8b1fe4c7a6eb4b2edb9db1214191"}], "txid": "771004f5d8501b395568429360e252e3f7b45fb7e7adf9a8b8edbe0446fb0257", "blocktime": 1537874412, "version": 1, "confirmations": 11468, "time": 1537874412, "locktime": 542997, "vsize": 226, "size": 226}