{"hash": "5c10da14a6885f3caf9045be8f7451e0264da5da59df10a8286729ff86daeda2", "blockhash": "0000000000000000001cda96e906b7601b7a6fb1a3b62bca570a9e5d8f4b3de1", "vout": [{"scriptPubKey": {"reqSigs": 1, "hex": "a914ca7bbcc1f2efd28b18666b400d87e6dacb8e0a0887", "addresses": ["3L9eeiNt3qzUAG5JfyxySimL64LTNY15Cr"], "asm": "OP_HASH160 ca7bbcc1f2efd28b18666b400d87e6dacb8e0a08 OP_EQUAL", "type": "scripthash"}, "value": 0.00052545, "n": 0}, {"scriptPubKey": {"reqSigs": 1, "hex": "a9142cf9dca4b939c94e23b63713def79757a67c5eb087", "addresses": ["35npyh8MUZwUgoUhuDxXF18pWu3DrjMmEQ"], "asm": "OP_HASH160 2cf9dca4b939c94e23b63713def79757a67c5eb0 OP_EQUAL", "type": "scripthash"}, "value": 0.0083755, "n": 1}], "hex": "0100000000010151fc3373f9e9d08f2b431ab8b60679eb9eae4b365d8d3eba0ef362dd006727c4000000002322002094f90005202305c7c430f963b640dfd9e00a8037ef846042dd9c9fcac5b8a207ffffffff0241cd00000000000017a914ca7bbcc1f2efd28b18666b400d87e6dacb8e0a0887aec70c000000000017a9142cf9dca4b939c94e23b63713def79757a67c5eb0870400483045022100cb0de5a87db39d15f6cc73318a30b2b271b280b3b8c93343e03e6a4e6516ba8102201f70b95980ef40eba90cc944ab56f34048307352348f1669cc99a51f2d3e5be001473044022100cedfc3e57f404ebc0a316de1381520df749194b2c314a00746db9c8048b90380021f1a20d298d1a2de1f1650765218830c1167a6f3ecc93fde151cb2d5277749ac0147522102afd57e9267c1e36ef9db156f0de1947f2c45411ac4e74d3b4dd0ce6f8d418a8f21035103ae7fde57e8b6bb3bb5f71f41a1a19d611723da7ff266c973839886408c4452ae00000000", "vin": [{"txinwitness": ["", "3045022100cb0de5a87db39d15f6cc73318a30b2b271b280b3b8c93343e03e6a4e6516ba8102201f70b95980ef40eba90cc944ab56f34048307352348f1669cc99a51f2d3e5be001", "3044022100cedfc3e57f404ebc0a316de1381520df749194b2c314a00746db9c8048b90380021f1a20d298d1a2de1f1650765218830c1167a6f3ecc93fde151cb2d5277749ac01", "522102afd57e9267c1e36ef9db156f0de1947f2c45411ac4e74d3b4dd0ce6f8d418a8f21035103ae7fde57e8b6bb3bb5f71f41a1a19d611723da7ff266c973839886408c4452ae"], "sequence": 4294967295, "scriptSig": {"hex": "22002094f90005202305c7c430f963b640dfd9e00a8037ef846042dd9c9fcac5b8a207", "asm": "002094f90005202305c7c430f963b640dfd9e00a8037ef846042dd9c9fcac5b8a207"}, "vout": 0, "txid": "c4276700dd62f30eba3e8d5d364bae9eeb7906b6b81a432b8fd0e9f97333fc51"}], "txid": "77132a544d5ad7d8796900036f8414be803f420ec3166c09958befefa125db1d", "blocktime": 1537873282, "version": 1, "confirmations": 11484, "time": 1537873282, "locktime": 0, "vsize": 206, "size": 371}