{"hash": "a2d17a7f826784225ceeca0fd6d85c12407a7e270858197429bf2c8267825c56", "blockhash": "00000000000000000018f53835495a110e01622372bf6ae95dc86f2b0ab887b0", "vout": [{"scriptPubKey": {"reqSigs": 1, "hex": "a91489d27eb3553b3b2f0e44e2d92d490a5ff4e93a1c87", "addresses": ["3EFkfGWbbVHDQ15oKUxHGY6EY1iK9sdNqd"], "asm": "OP_HASH160 89d27eb3553b3b2f0e44e2d92d490a5ff4e93a1c OP_EQUAL", "type": "scripthash"}, "value": 0.51727828, "n": 0}, {"scriptPubKey": {"reqSigs": 1, "hex": "a914a2d516df1c16f69a2edd63b58c14023b07b23d2787", "addresses": ["3GXzfKwMCzph2P23H5PCsYLg5KvQbtpeKo"], "asm": "OP_HASH160 a2d516df1c16f69a2edd63b58c14023b07b23d27 OP_EQUAL", "type": "scripthash"}, "value": 0.01014469, "n": 1}], "hex": "020000000001026aac22aec45bb9784f8cf277c6f5cef3695e3c242b4402a6ba028849492edfc35e00000017160014a74c71a9f1ad5c05a460bcaa3d1028e64880c3adfdffffffcb237747320f1b59bc50d4ec7c6b40eaacf7d5aa5c2bf9b17d9c394392e8b3050000000017160014666b3d5efc6e24d6510c563d6c68edee2ac33328fdffffff02d44d15030000000017a91489d27eb3553b3b2f0e44e2d92d490a5ff4e93a1c87c57a0f000000000017a914a2d516df1c16f69a2edd63b58c14023b07b23d278702483045022100f50c3fd0244357c17b7d2125ed02ef6c26b017910740ae90fe1121c3a8d7937e02206cad56ad8fbfe13ca7bb73f1fd1edfe9ed6f515b44ad07fbf78f62faaa9fc3d80121029ad318b707cc7bb55f1b38765bc70e43d58d4f96ad7d87512f98230503397a4502483045022100cb4982b6766971215b938d4fd1ae3a2e2f42246d08da63e42e94f040b691e5e802200f14c77f8ea2600b999c3c7e61809737d4922b9d73ab543d9224eb01320496af012102c2eafa52022ed04fa9505e73b894f32861a1e75a0d2fb3a728899dced14ca64600000000", "vin": [{"txinwitness": ["3045022100f50c3fd0244357c17b7d2125ed02ef6c26b017910740ae90fe1121c3a8d7937e02206cad56ad8fbfe13ca7bb73f1fd1edfe9ed6f515b44ad07fbf78f62faaa9fc3d801", "029ad318b707cc7bb55f1b38765bc70e43d58d4f96ad7d87512f98230503397a45"], "sequence": 4294967293, "scriptSig": {"hex": "160014a74c71a9f1ad5c05a460bcaa3d1028e64880c3ad", "asm": "0014a74c71a9f1ad5c05a460bcaa3d1028e64880c3ad"}, "vout": 94, "txid": "c3df2e49498802baa602442b243c5e69f3cef5c677f28c4f78b95bc4ae22ac6a"}, {"txinwitness": ["3045022100cb4982b6766971215b938d4fd1ae3a2e2f42246d08da63e42e94f040b691e5e802200f14c77f8ea2600b999c3c7e61809737d4922b9d73ab543d9224eb01320496af01", "02c2eafa52022ed04fa9505e73b894f32861a1e75a0d2fb3a728899dced14ca646"], "sequence": 4294967293, "scriptSig": {"hex": "160014666b3d5efc6e24d6510c563d6c68edee2ac33328", "asm": "0014666b3d5efc6e24d6510c563d6c68edee2ac33328"}, "vout": 0, "txid": "05b3e89243399c7db1f92b5caad5f7acea406b7cecd450bc591b0f32477723cb"}], "txid": "7716236b7ca3ab1ea0be44d7f20f107e2c375f584519c7bf20468165721543ef", "blocktime": 1537870928, "version": 2, "confirmations": 11514, "time": 1537870928, "locktime": 0, "vsize": 257, "size": 420}