{"hash": "57d1974231a0ec7e8337740c81c8f9c848097398ff251641169ae6c4a3ecf552", "blockhash": "0000000000000000000baef3f32e3676a92c3b2e5da21b426e4f302fc371ce76", "vout": [{"scriptPubKey": {"reqSigs": 1, "hex": "002058c8797f181e000075cb9a18a9662013b795012e86acc04d56a2d229e7b8d7c4", "addresses": ["bc1qtry8jlccrcqqqawtngv2je3qzwme2qfws6kvqn2k5tfzneac6lzqpgummp"], "asm": "0 58c8797f181e000075cb9a18a9662013b795012e86acc04d56a2d229e7b8d7c4", "type": "witness_v0_scripthash"}, "value": 0.0012529, "n": 0}], "hex": "010000000001019109ce3775eacd0f7ab9c2ccdcbdae97e827474950b21daa7149bedc8bbd897501000000171600146cde263fb1ded04b255fd0866caeed71c5a7b883ffffffff016ae901000000000022002058c8797f181e000075cb9a18a9662013b795012e86acc04d56a2d229e7b8d7c40247304402203c3e96bbfd901d9e667d06ff821d9abeeb15259f59156f420fb0a74b1b72ccf2022064a44255ee9c41cead3f5d1699992d6d18857165ecbb3e7deb47f7f877de8ec301210338f923aac643801050131c4f00c7625cbbb305c49a1fde4fc729fb6d3c81cbba00000000", "vin": [{"txinwitness": ["304402203c3e96bbfd901d9e667d06ff821d9abeeb15259f59156f420fb0a74b1b72ccf2022064a44255ee9c41cead3f5d1699992d6d18857165ecbb3e7deb47f7f877de8ec301", "0338f923aac643801050131c4f00c7625cbbb305c49a1fde4fc729fb6d3c81cbba"], "sequence": 4294967295, "scriptSig": {"hex": "1600146cde263fb1ded04b255fd0866caeed71c5a7b883", "asm": "00146cde263fb1ded04b255fd0866caeed71c5a7b883"}, "vout": 1, "txid": "7589bd8bdcbe4971aa1db250494727e897aebddcccc2b97a0fcdea7537ce0991"}], "txid": "7717cc513f54c8058aff4297c1a746f1d65a5a146d20771012a0a3fb3fda037d", "blocktime": 1537876114, "version": 1, "confirmations": 11460, "time": 1537876114, "locktime": 0, "vsize": 145, "size": 226}