{"hash": "7719e17a51986e16c4549bb0c76a27638627d0f1f8d98440b2e2dfffba51efb8", "blockhash": "00000000000000000024a2167bbff67b0be802c0b01cdd79e6331c2be6459f87", "vout": [{"scriptPubKey": {"reqSigs": 1, "hex": "76a9143757d18c13a34ea0f035405200647c46d76bd34188ac", "addresses": ["163dNHpkXfHRoqw4hdqSboZ8vMtM9UTqxg"], "asm": "OP_DUP OP_HASH160 3757d18c13a34ea0f035405200647c46d76bd341 OP_EQUALVERIFY OP_CHECKSIG", "type": "pubkeyhash"}, "value": 0.00078064, "n": 0}], "hex": "0100000001c693573081b4e2b24380f2e47c8385354d9b40565b98820067a01b650133792c000000006a473044022064695c91774af5c7eeb0c0b83da17b9b04bc666c5cee4fadcf8151afd09aa4e402203cf591f78f9186c6ced5b73d611f5a80f0145665d2e53714b3478750a8fcb150012102595891e09855b80620b0542b5c888cef90ac74b152bae8f1fb95d9ca36cac947fdffffff01f0300100000000001976a9143757d18c13a34ea0f035405200647c46d76bd34188ac0d490800", "vin": [{"sequence": 4294967293, "scriptSig": {"hex": "473044022064695c91774af5c7eeb0c0b83da17b9b04bc666c5cee4fadcf8151afd09aa4e402203cf591f78f9186c6ced5b73d611f5a80f0145665d2e53714b3478750a8fcb150012102595891e09855b80620b0542b5c888cef90ac74b152bae8f1fb95d9ca36cac947", "asm": "3044022064695c91774af5c7eeb0c0b83da17b9b04bc666c5cee4fadcf8151afd09aa4e402203cf591f78f9186c6ced5b73d611f5a80f0145665d2e53714b3478750a8fcb150[ALL] 02595891e09855b80620b0542b5c888cef90ac74b152bae8f1fb95d9ca36cac947"}, "vout": 0, "txid": "2c793301651ba0670082985b56409b4d3585837ce4f28043b2e2b481305793c6"}], "txid": "7719e17a51986e16c4549bb0c76a27638627d0f1f8d98440b2e2dfffba51efb8", "blocktime": 1537870564, "version": 1, "confirmations": 11515, "time": 1537870564, "locktime": 542989, "vsize": 191, "size": 191}