{"hash": "9429e7f31ac12eeb32a64e53089f29f361630979be6eb4cbd6f234c2582ee0c7", "blockhash": "00000000000000000004ffacab907a6b429b9a5745fa0b75af4234bf69dd7176", "vout": [{"scriptPubKey": {"reqSigs": 1, "hex": "a91469f3753165504b952a99d32779622fe07b30ea3987", "addresses": ["3BMEXRrkqaAbnDfsw8UyztEFbxtS3frnas"], "asm": "OP_HASH160 69f3753165504b952a99d32779622fe07b30ea39 OP_EQUAL", "type": "scripthash"}, "value": 0.043, "n": 0}, {"scriptPubKey": {"reqSigs": 1, "hex": "0020701a8d401c84fb13e6baf169d59684e17abd9fa216c8cc5b9fc63d622ff8c58d", "addresses": ["bc1qwqdg6squsna38e46795at95yu9atm8azzmyvckulcc7kytlcckxswvvzej"], "asm": "0 701a8d401c84fb13e6baf169d59684e17abd9fa216c8cc5b9fc63d622ff8c58d", "type": "witness_v0_scripthash"}, "value": 0.03685867, "n": 1}], "hex": "010000000001019efdbc16d1b20ea42965d855e38fc2a45cef82a2f4bbc2dbf9074bc94fe2f9ff0100000000ffffffff02e09c41000000000017a91469f3753165504b952a99d32779622fe07b30ea3987eb3d380000000000220020701a8d401c84fb13e6baf169d59684e17abd9fa216c8cc5b9fc63d622ff8c58d0400483045022100a05085cedf24be8bc15a89785fcdc94243c0339542d964964273a8c3efd9c6540220746dedb1b12d0449434f706bec8a7ba170a65eb959ef0cc018b734696073286001473044022026b1f8e30152e2c2e7c9d8e8b4bc2e778fdb76915e02121184cee0af14eebfa202201656646dde44c9635cf0a347e110b516e8fb72b762bcdcbd8ad5502b5bd161f2016952210375e00eb72e29da82b89367947f29ef34afb75e8654f6ea368e0acdfd92976b7c2103a1b26313f430c4b15bb1fdce663207659d8cac749a0e53d70eff01874496feff2103c96d495bfdd5ba4145e3e046fee45e84a8a48ad05bd8dbb395c011a32cf9f88053ae00000000", "vin": [{"txinwitness": ["", "3045022100a05085cedf24be8bc15a89785fcdc94243c0339542d964964273a8c3efd9c6540220746dedb1b12d0449434f706bec8a7ba170a65eb959ef0cc018b734696073286001", "3044022026b1f8e30152e2c2e7c9d8e8b4bc2e778fdb76915e02121184cee0af14eebfa202201656646dde44c9635cf0a347e110b516e8fb72b762bcdcbd8ad5502b5bd161f201", "52210375e00eb72e29da82b89367947f29ef34afb75e8654f6ea368e0acdfd92976b7c2103a1b26313f430c4b15bb1fdce663207659d8cac749a0e53d70eff01874496feff2103c96d495bfdd5ba4145e3e046fee45e84a8a48ad05bd8dbb395c011a32cf9f88053ae"], "sequence": 4294967295, "scriptSig": {"hex": "", "asm": ""}, "vout": 1, "txid": "fff9e24fc94b07f9dbc2bbf4a282ef5ca4c28fe355d86529a40eb2d116bcfd9e"}], "txid": "771c945018da65e6f1a39ca15bf7505c6961d5ddc5cf9cb79ad013131b5b9c41", "blocktime": 1537875543, "version": 1, "confirmations": 11464, "time": 1537875543, "locktime": 0, "vsize": 190, "size": 381}