{"hash": "771f0fede4325350e54516efa8dce55194cbd67bc8ebe8fe47a403b07882598a", "blockhash": "0000000000000000001f76057863aec43deb6fa401d9628bb513d65a8098bfab", "vout": [{"scriptPubKey": {"reqSigs": 1, "hex": "76a9147733949108ebb348f46a718dcd32a3271ae926a188ac", "addresses": ["1BsHChAhNETXfwEkVSGxs7RaSq37SZhH7v"], "asm": "OP_DUP OP_HASH160 7733949108ebb348f46a718dcd32a3271ae926a1 OP_EQUALVERIFY OP_CHECKSIG", "type": "pubkeyhash"}, "value": 0.0001, "n": 0}, {"scriptPubKey": {"reqSigs": 1, "hex": "76a914a926dff4d3437bca6d99548bbc63225da17d9b0b88ac", "addresses": ["1GRPmVQqxCcTE7EdAiDYDzzgzvTupJihXp"], "asm": "OP_DUP OP_HASH160 a926dff4d3437bca6d99548bbc63225da17d9b0b OP_EQUALVERIFY OP_CHECKSIG", "type": "pubkeyhash"}, "value": 0.00019139, "n": 1}], "hex": "0100000001359b68ddbb8f3abb7227774ecd4faacfc81a531b7492ab76b4df2166a26ce090010000006a47304402206816833aeb6877df6f62fc78233ed79b855337ab67baf4292ae7c1c920834e1d0220144e582c71911a0d02a09d4caffaa2e979ed9ae36502262334cb2038cfd8393001210249b7e7abbd1aed079aba39f526cbe3691a83d89c9a16d346a61d457fca23a942ffffffff0210270000000000001976a9147733949108ebb348f46a718dcd32a3271ae926a188acc34a0000000000001976a914a926dff4d3437bca6d99548bbc63225da17d9b0b88ac00000000", "vin": [{"sequence": 4294967295, "scriptSig": {"hex": "47304402206816833aeb6877df6f62fc78233ed79b855337ab67baf4292ae7c1c920834e1d0220144e582c71911a0d02a09d4caffaa2e979ed9ae36502262334cb2038cfd8393001210249b7e7abbd1aed079aba39f526cbe3691a83d89c9a16d346a61d457fca23a942", "asm": "304402206816833aeb6877df6f62fc78233ed79b855337ab67baf4292ae7c1c920834e1d0220144e582c71911a0d02a09d4caffaa2e979ed9ae36502262334cb2038cfd83930[ALL] 0249b7e7abbd1aed079aba39f526cbe3691a83d89c9a16d346a61d457fca23a942"}, "vout": 1, "txid": "90e06ca26621dfb476ab92741b531ac8cfaa4fcd4e772772bb3a8fbbdd689b35"}], "txid": "771f0fede4325350e54516efa8dce55194cbd67bc8ebe8fe47a403b07882598a", "blocktime": 1537873891, "version": 1, "confirmations": 11478, "time": 1537873891, "locktime": 0, "vsize": 225, "size": 225}