{"hash": "771f85c45f07ef771a290cbc442ebc74b6c9fda049e6873cbf5e7cf427370779", "blockhash": "0000000000000000001e0dab787dd257d1dbfcb92a98c2207d5e1078be1f4165", "vout": [{"scriptPubKey": {"reqSigs": 1, "hex": "a914173794eca692997041015179edc744ffd2da13c087", "addresses": ["33on3qpg2P54FTGohhg2tqpWV6LUZjUZMw"], "asm": "OP_HASH160 173794eca692997041015179edc744ffd2da13c0 OP_EQUAL", "type": "scripthash"}, "value": 0.00389956, "n": 0}, {"scriptPubKey": {"reqSigs": 1, "hex": "76a9148b41ae34de882c9c2c8781c5f5f71aa06cae5c9188ac", "addresses": ["1DhKcE4UeCttinzLE2XwpCdakmNPfk8ftn"], "asm": "OP_DUP OP_HASH160 8b41ae34de882c9c2c8781c5f5f71aa06cae5c91 OP_EQUALVERIFY OP_CHECKSIG", "type": "pubkeyhash"}, "value": 0.04763377, "n": 1}], "hex": "0100000001fbf3ffdb8b8558b99f035c4f656beba6277ba02775d67278feef27521718cf9e010000006b483045022100d49b48c5a35690b0584a49987639e2012b9bd477a8974511f382b404d839b7ab0220691b2bd38d11d2d903605197b5cbe949b9a22b82ee0940ca31e468d19792b31b0121035ef54b770e3814162a5e2af9c05cd45a29c9be9ab9eac413fdb09db47446baacffffffff0244f305000000000017a914173794eca692997041015179edc744ffd2da13c087f1ae4800000000001976a9148b41ae34de882c9c2c8781c5f5f71aa06cae5c9188ac00000000", "vin": [{"sequence": 4294967295, "scriptSig": {"hex": "483045022100d49b48c5a35690b0584a49987639e2012b9bd477a8974511f382b404d839b7ab0220691b2bd38d11d2d903605197b5cbe949b9a22b82ee0940ca31e468d19792b31b0121035ef54b770e3814162a5e2af9c05cd45a29c9be9ab9eac413fdb09db47446baac", "asm": "3045022100d49b48c5a35690b0584a49987639e2012b9bd477a8974511f382b404d839b7ab0220691b2bd38d11d2d903605197b5cbe949b9a22b82ee0940ca31e468d19792b31b[ALL] 035ef54b770e3814162a5e2af9c05cd45a29c9be9ab9eac413fdb09db47446baac"}, "vout": 1, "txid": "9ecf18175227effe7872d67527a07b27a6eb6b654f5c039fb958858bdbfff3fb"}], "txid": "771f85c45f07ef771a290cbc442ebc74b6c9fda049e6873cbf5e7cf427370779", "blocktime": 1537872475, "version": 1, "confirmations": 11486, "time": 1537872475, "locktime": 0, "vsize": 224, "size": 224}