{"hash": "d99dcf115fb44b8919004b4265291564848a5a368c6f5e00436ff381a27d96b6", "blockhash": "000000000000000000022b45ed06c6f4ccd3cf7fb5ba4856ebd2e58215665228", "vout": [{"scriptPubKey": {"reqSigs": 1, "hex": "a91491822e009e56a199b563ab9d8acabd0c3171fbd787", "addresses": ["3ExPrQLD3UeJY4gxtQx8G5mwCCsRkzA8a6"], "asm": "OP_HASH160 91822e009e56a199b563ab9d8acabd0c3171fbd7 OP_EQUAL", "type": "scripthash"}, "value": 0.01576, "n": 0}, {"scriptPubKey": {"reqSigs": 1, "hex": "a9147007052becaa97d6378ea7da406af237c7ceefd587", "addresses": ["3BuN1oQX33ZJKiwtNA8WqfLG42KMEGjFK8"], "asm": "OP_HASH160 7007052becaa97d6378ea7da406af237c7ceefd5 OP_EQUAL", "type": "scripthash"}, "value": 0.03419216, "n": 1}], "hex": "020000000001013dd69ef7cae8126383d3cef1b7ddf8fdbec0317fcd0455b4c73efb7d4e289870010000001716001465f04809933a78cf257c1079676548f680de2595ffffffff02400c18000000000017a91491822e009e56a199b563ab9d8acabd0c3171fbd787502c34000000000017a9147007052becaa97d6378ea7da406af237c7ceefd58702483045022100fccbc94890f227faad05079b234cda7d10682b1df3d12ea5905760a31955d91e02207aa76830de8b450c42b1b416c568668ebf1c720c568774479f3f1f850a2480b401210224018ea9f1fc213adc8176fdcdf0c866f0e0369b10101bfe86f2d8b5502a805f00000000", "vin": [{"txinwitness": ["3045022100fccbc94890f227faad05079b234cda7d10682b1df3d12ea5905760a31955d91e02207aa76830de8b450c42b1b416c568668ebf1c720c568774479f3f1f850a2480b401", "0224018ea9f1fc213adc8176fdcdf0c866f0e0369b10101bfe86f2d8b5502a805f"], "sequence": 4294967295, "scriptSig": {"hex": "16001465f04809933a78cf257c1079676548f680de2595", "asm": "001465f04809933a78cf257c1079676548f680de2595"}, "vout": 1, "txid": "7098284e7dfb3ec7b45504cd7f31c0befdf8ddb7f1ced3836312e8caf79ed63d"}], "txid": "7724c1748872eb973c84e2a35fbf7f68110d0839e8714b39e361d8c208b8b868", "blocktime": 1537869901, "version": 2, "confirmations": 11522, "time": 1537869901, "locktime": 0, "vsize": 166, "size": 248}