{"hash": "772c9c6c08e72b9d1d2ed18a0b8e5ecd01b91070a2247b6a014d60147e72278a", "blockhash": "0000000000000000000e13cef7c366c0283d82e591d1acd082e914b08063cdf1", "vout": [{"scriptPubKey": {"reqSigs": 1, "hex": "76a91407a0f80904397bcf97767e019c89df20ca9321de88ac", "addresses": ["1hLZf7osriunDNQkmNnndL2o3hfGgZMB1"], "asm": "OP_DUP OP_HASH160 07a0f80904397bcf97767e019c89df20ca9321de OP_EQUALVERIFY OP_CHECKSIG", "type": "pubkeyhash"}, "value": 0.00184842, "n": 0}, {"scriptPubKey": {"reqSigs": 1, "hex": "a914ac7dfb4e4bb5940ba7f3ec8071fd02e1123b486a87", "addresses": ["3HR54u3BxFRbmvKmf9zYPKDoQTXCYcR7kb"], "asm": "OP_HASH160 ac7dfb4e4bb5940ba7f3ec8071fd02e1123b486a OP_EQUAL", "type": "scripthash"}, "value": 0.01093319, "n": 1}], "hex": "0100000001572a028ebdaeb09cf5d7b294e0d21666733234d1a57e1a8901e16ed836d1a6da000000006b483045022100e51f8ce83a82169a9caf9eb7eb79cafa0eb9db0c4f65b17f2965cd94d47a128a022063261580d4a7448346a28a4ecf6e1e98189013de09efa870ebe6cd846ac10a84012102bd9fa1394c5d0b0f6e35b1d62cf90faffa5ecd5d673111004478aa7363937a9ffeffffff020ad20200000000001976a91407a0f80904397bcf97767e019c89df20ca9321de88acc7ae10000000000017a914ac7dfb4e4bb5940ba7f3ec8071fd02e1123b486a8710490800", "vin": [{"sequence": 4294967294, "scriptSig": {"hex": "483045022100e51f8ce83a82169a9caf9eb7eb79cafa0eb9db0c4f65b17f2965cd94d47a128a022063261580d4a7448346a28a4ecf6e1e98189013de09efa870ebe6cd846ac10a84012102bd9fa1394c5d0b0f6e35b1d62cf90faffa5ecd5d673111004478aa7363937a9f", "asm": "3045022100e51f8ce83a82169a9caf9eb7eb79cafa0eb9db0c4f65b17f2965cd94d47a128a022063261580d4a7448346a28a4ecf6e1e98189013de09efa870ebe6cd846ac10a84[ALL] 02bd9fa1394c5d0b0f6e35b1d62cf90faffa5ecd5d673111004478aa7363937a9f"}, "vout": 0, "txid": "daa6d136d86ee101891a7ea5d13432736616d2e094b2d7f59cb0aebd8e022a57"}], "txid": "772c9c6c08e72b9d1d2ed18a0b8e5ecd01b91070a2247b6a014d60147e72278a", "blocktime": 1537871767, "version": 1, "confirmations": 11490, "time": 1537871767, "locktime": 542992, "vsize": 224, "size": 224}