{"hash": "772d4edc9bee94654a7d0de3296005ea2b64943e99ccb97c9ef9074465df0b8a", "blockhash": "000000000000000000022b45ed06c6f4ccd3cf7fb5ba4856ebd2e58215665228", "vout": [{"scriptPubKey": {"type": "nulldata", "hex": "6a146f6d6e69000000000000001f000060680c58a000", "asm": "OP_RETURN 6f6d6e69000000000000001f000060680c58a000"}, "value": 0.0, "n": 0}, {"scriptPubKey": {"reqSigs": 1, "hex": "76a914a25dec4d0011064ef106a983c39c7a540699f22088ac", "addresses": ["1FoWyxwPXuj4C6abqwhjDWdz6D4PZgYRjA"], "asm": "OP_DUP OP_HASH160 a25dec4d0011064ef106a983c39c7a540699f220 OP_EQUALVERIFY OP_CHECKSIG", "type": "pubkeyhash"}, "value": 5.46e-06, "n": 1}, {"scriptPubKey": {"reqSigs": 1, "hex": "76a9146ec899c0bbdb7921092346e047a8cf4e4874ad6d88ac", "addresses": ["1B6me5MvLP7Mu1yYXB8mbEVtsRsQkeYr6X"], "asm": "OP_DUP OP_HASH160 6ec899c0bbdb7921092346e047a8cf4e4874ad6d OP_EQUALVERIFY OP_CHECKSIG", "type": "pubkeyhash"}, "value": 0.00208793, "n": 2}], "hex": "0100000001d828a088ce6e44e1657e0a89c71d08604fb87b29b895308d05411d2a494b2aa6000000006b483045022100db7abbd7b5b6658eafd4d30d0b8d5f6c5931e1acfa3fde978f32b93e9bfa12ed0220117f84c858dc25fb918d0e6de3cdca63add46ab9b717c743f95cc7f53607c5b701210384490bbaad5393ddf7e613ecca8d813315b414261596ee151afdec343514c043feffffff030000000000000000166a146f6d6e69000000000000001f000060680c58a00022020000000000001976a914a25dec4d0011064ef106a983c39c7a540699f22088ac992f0300000000001976a9146ec899c0bbdb7921092346e047a8cf4e4874ad6d88ac0b490800", "vin": [{"sequence": 4294967294, "scriptSig": {"hex": "483045022100db7abbd7b5b6658eafd4d30d0b8d5f6c5931e1acfa3fde978f32b93e9bfa12ed0220117f84c858dc25fb918d0e6de3cdca63add46ab9b717c743f95cc7f53607c5b701210384490bbaad5393ddf7e613ecca8d813315b414261596ee151afdec343514c043", "asm": "3045022100db7abbd7b5b6658eafd4d30d0b8d5f6c5931e1acfa3fde978f32b93e9bfa12ed0220117f84c858dc25fb918d0e6de3cdca63add46ab9b717c743f95cc7f53607c5b7[ALL] 0384490bbaad5393ddf7e613ecca8d813315b414261596ee151afdec343514c043"}, "vout": 0, "txid": "a62a4b492a1d41058d3095b8297bb84f60081dc7890a7e65e1446ece88a028d8"}], "txid": "772d4edc9bee94654a7d0de3296005ea2b64943e99ccb97c9ef9074465df0b8a", "blocktime": 1537869901, "version": 1, "confirmations": 11524, "time": 1537869901, "locktime": 542987, "vsize": 257, "size": 257}