{"hash": "a0307a6a422d837a18d7daa5ca84a5e0e051ca82d6bbfd08bd9476f7a16b1fc1", "blockhash": "0000000000000000001cda96e906b7601b7a6fb1a3b62bca570a9e5d8f4b3de1", "vout": [{"scriptPubKey": {"reqSigs": 1, "hex": "76a91408de6f248719a3668de79ad8aa63ce2445ad9fb588ac", "addresses": ["1otsXmHr1eY53B86KWcbMmqnVMHBP7iKa"], "asm": "OP_DUP OP_HASH160 08de6f248719a3668de79ad8aa63ce2445ad9fb5 OP_EQUALVERIFY OP_CHECKSIG", "type": "pubkeyhash"}, "value": 0.40035, "n": 0}, {"scriptPubKey": {"reqSigs": 1, "hex": "a914a585abbf2837c900869c23cc22a0dcde2529663087", "addresses": ["3GnDYp2u5osCyGjFAQTt76h9CCWMQp65h3"], "asm": "OP_HASH160 a585abbf2837c900869c23cc22a0dcde25296630 OP_EQUAL", "type": "scripthash"}, "value": 0.31722941, "n": 1}], "hex": "010000000001037865be9bc377097cbc9266f7b565c5784016ccf6eafd14a7549bd09c1f6cdcd8000000001716001479e626f17b4e564af79e032d804c1568223b810cffffff00c371b1f044d5e588b9ed23f15ea8df40758173919c4c402d4c109a858e3231ea000000001716001479e626f17b4e564af79e032d804c1568223b810cffffff0065c9fec183c05ef84aec56370419676117eced1d0101aab097b97c6e0db119ff070000001716001479e626f17b4e564af79e032d804c1568223b810cffffff0002b8e26202000000001976a91408de6f248719a3668de79ad8aa63ce2445ad9fb588acbd0de4010000000017a914a585abbf2837c900869c23cc22a0dcde252966308702473044022040a0179c7ffcc1ad80d7555caf272c0c72befbbc422dd1451e859c8a5c29443f022058adbfaf43ed1fd7e104ed98b3be73d8b2a49cdb424f769ff1ece6f419b229f1012102147d7ec7278f14735c237d387cd461c3f39e923f5752319f448e0e2e582d55e90247304402206e20d662868f1afec348855a46f6f3cd37358fac352c0707f2eb324c4c3297d502200ceecfcdb429a0ec75a4650fc3146e3b77d84aff3a8cd3ad485e518852673091012102147d7ec7278f14735c237d387cd461c3f39e923f5752319f448e0e2e582d55e902483045022100b77dfe11dece698f6133a080eebd3c43e1e6fcf8b157ae8c7f28f6db9815b1dd02206a36bb9b22eab8cbc08df63c24c50d3c7021048219f9c4d176a4a75b73bb7fe0012102147d7ec7278f14735c237d387cd461c3f39e923f5752319f448e0e2e582d55e900000000", "vin": [{"txinwitness": ["3044022040a0179c7ffcc1ad80d7555caf272c0c72befbbc422dd1451e859c8a5c29443f022058adbfaf43ed1fd7e104ed98b3be73d8b2a49cdb424f769ff1ece6f419b229f101", "02147d7ec7278f14735c237d387cd461c3f39e923f5752319f448e0e2e582d55e9"], "sequence": 16777215, "scriptSig": {"hex": "16001479e626f17b4e564af79e032d804c1568223b810c", "asm": "001479e626f17b4e564af79e032d804c1568223b810c"}, "vout": 0, "txid": "d8dc6c1f9cd09b54a714fdeaf6cc164078c565b5f76692bc7c0977c39bbe6578"}, {"txinwitness": ["304402206e20d662868f1afec348855a46f6f3cd37358fac352c0707f2eb324c4c3297d502200ceecfcdb429a0ec75a4650fc3146e3b77d84aff3a8cd3ad485e51885267309101", "02147d7ec7278f14735c237d387cd461c3f39e923f5752319f448e0e2e582d55e9"], "sequence": 16777215, "scriptSig": {"hex": "16001479e626f17b4e564af79e032d804c1568223b810c", "asm": "001479e626f17b4e564af79e032d804c1568223b810c"}, "vout": 0, "txid": "ea31328e859a104c2d404c9c9173817540dfa85ef123edb988e5d544f0b171c3"}, {"txinwitness": ["3045022100b77dfe11dece698f6133a080eebd3c43e1e6fcf8b157ae8c7f28f6db9815b1dd02206a36bb9b22eab8cbc08df63c24c50d3c7021048219f9c4d176a4a75b73bb7fe001", "02147d7ec7278f14735c237d387cd461c3f39e923f5752319f448e0e2e582d55e9"], "sequence": 16777215, "scriptSig": {"hex": "16001479e626f17b4e564af79e032d804c1568223b810c", "asm": "001479e626f17b4e564af79e032d804c1568223b810c"}, "vout": 7, "txid": "ff19b10d6e7cb997b0aa01011dedec17616719043756ec4af85ec083c1fec965"}], "txid": "772d75339144c7b14ec67e0bbd35dc59dda7af2e2fe8f41ff24ac63db0cd7a65", "blocktime": 1537873282, "version": 1, "confirmations": 11485, "time": 1537873282, "locktime": 0, "vsize": 349, "size": 592}