{"hash": "7735a450e4fda94b7fd84c8b3219f6c49393541031ac4cc764d93f690de8eca1", "blockhash": "0000000000000000001f76057863aec43deb6fa401d9628bb513d65a8098bfab", "vout": [{"scriptPubKey": {"reqSigs": 1, "hex": "a914d299d71644bdbd00d6618583f83907cec5684d7887", "addresses": ["3Lta7qBNPWZncznepzdYZutVWg7ReFwzR8"], "asm": "OP_HASH160 d299d71644bdbd00d6618583f83907cec5684d78 OP_EQUAL", "type": "scripthash"}, "value": 0.00125, "n": 0}, {"scriptPubKey": {"reqSigs": 1, "hex": "76a914d13d2e8b544493f87c2091de5faf2da7b3453e3b88ac", "addresses": ["1L5MX5cPJYnxofVzn1GQHmo6i3oS5PF8uV"], "asm": "OP_DUP OP_HASH160 d13d2e8b544493f87c2091de5faf2da7b3453e3b OP_EQUALVERIFY OP_CHECKSIG", "type": "pubkeyhash"}, "value": 0.018002, "n": 1}], "hex": "0100000001c1460a704a19ba6f864bb0d1ed72c45c3c064ff3514277a46c69293b81b88721000000006b483045022100e3289b6c96eed717277e3b22deda6441143d5182e0e9b184a4550e3f02f60aef0220525f6d9ec67e13a9b1692570a67325d51dc283c828e4f2aade69c5db52041639012102e51c596789cceee52b3db4b4baaf9680b1260ca8b196932d091b41db9249e262ffffffff0248e801000000000017a914d299d71644bdbd00d6618583f83907cec5684d788708781b00000000001976a914d13d2e8b544493f87c2091de5faf2da7b3453e3b88ac00000000", "vin": [{"sequence": 4294967295, "scriptSig": {"hex": "483045022100e3289b6c96eed717277e3b22deda6441143d5182e0e9b184a4550e3f02f60aef0220525f6d9ec67e13a9b1692570a67325d51dc283c828e4f2aade69c5db52041639012102e51c596789cceee52b3db4b4baaf9680b1260ca8b196932d091b41db9249e262", "asm": "3045022100e3289b6c96eed717277e3b22deda6441143d5182e0e9b184a4550e3f02f60aef0220525f6d9ec67e13a9b1692570a67325d51dc283c828e4f2aade69c5db52041639[ALL] 02e51c596789cceee52b3db4b4baaf9680b1260ca8b196932d091b41db9249e262"}, "vout": 0, "txid": "2187b8813b29696ca4774251f34f063c5cc472edd1b04b866fba194a700a46c1"}], "txid": "7735a450e4fda94b7fd84c8b3219f6c49393541031ac4cc764d93f690de8eca1", "blocktime": 1537873891, "version": 1, "confirmations": 11478, "time": 1537873891, "locktime": 0, "vsize": 224, "size": 224}