{"hash": "773798514c7942da9affa0d525d2526ff8f8181d8dd52ee22d2309996afa7815", "blockhash": "00000000000000000024a2167bbff67b0be802c0b01cdd79e6331c2be6459f87", "vout": [{"scriptPubKey": {"reqSigs": 1, "hex": "76a914aa60416eda894664430a26ea0c05caee928cb40888ac", "addresses": ["1GXsBZuZqifiuHndk5KC5mcjFQ2ummJH1b"], "asm": "OP_DUP OP_HASH160 aa60416eda894664430a26ea0c05caee928cb408 OP_EQUALVERIFY OP_CHECKSIG", "type": "pubkeyhash"}, "value": 0.00171507, "n": 0}, {"scriptPubKey": {"reqSigs": 1, "hex": "76a914abf9fe4ecfdb353affe9f2ae09eec8683ce043ee88ac", "addresses": ["1GgL2ebjuzehxWUEHehg1SU3oobaJ1XPCe"], "asm": "OP_DUP OP_HASH160 abf9fe4ecfdb353affe9f2ae09eec8683ce043ee OP_EQUALVERIFY OP_CHECKSIG", "type": "pubkeyhash"}, "value": 0.00171545, "n": 1}], "hex": "0100000001a7d45ced93cf00ac73081604e464f4b749978ee4615dd9cb0d791cb34a25586c000000006a47304402201abcd7e4e0ca15df0dd5b69c25d647ec5b9f9c6d34e5c4f5b87117e118528a96022022677ed887582aff60fa96788b0f8ab177fd6a097ee960cbbbf1d5344ca9f8be012103f250b2fe39dfc017a5db25b758d1f1267d45e0f3343af2a32bc2eacbc7920576ffffffff02f39d0200000000001976a914aa60416eda894664430a26ea0c05caee928cb40888ac199e0200000000001976a914abf9fe4ecfdb353affe9f2ae09eec8683ce043ee88ac00000000", "vin": [{"sequence": 4294967295, "scriptSig": {"hex": "47304402201abcd7e4e0ca15df0dd5b69c25d647ec5b9f9c6d34e5c4f5b87117e118528a96022022677ed887582aff60fa96788b0f8ab177fd6a097ee960cbbbf1d5344ca9f8be012103f250b2fe39dfc017a5db25b758d1f1267d45e0f3343af2a32bc2eacbc7920576", "asm": "304402201abcd7e4e0ca15df0dd5b69c25d647ec5b9f9c6d34e5c4f5b87117e118528a96022022677ed887582aff60fa96788b0f8ab177fd6a097ee960cbbbf1d5344ca9f8be[ALL] 03f250b2fe39dfc017a5db25b758d1f1267d45e0f3343af2a32bc2eacbc7920576"}, "vout": 0, "txid": "6c58254ab31c790dcbd95d61e48e9749b7f464e404160873ac00cf93ed5cd4a7"}], "txid": "773798514c7942da9affa0d525d2526ff8f8181d8dd52ee22d2309996afa7815", "blocktime": 1537870564, "version": 1, "confirmations": 11515, "time": 1537870564, "locktime": 0, "vsize": 225, "size": 225}