{"hash": "91befeec6f315fdb4f8a409154e018e9111d80c9efd1f043979ac12ffe91ea6e", "blockhash": "000000000000000000022b45ed06c6f4ccd3cf7fb5ba4856ebd2e58215665228", "vout": [{"scriptPubKey": {"reqSigs": 1, "hex": "76a914d7a2d713dd192b87672c95c245f529d95675e6d088ac", "addresses": ["1LfBMaNJGjaW9dcuKf5NHYPy3jqSDqY8Va"], "asm": "OP_DUP OP_HASH160 d7a2d713dd192b87672c95c245f529d95675e6d0 OP_EQUALVERIFY OP_CHECKSIG", "type": "pubkeyhash"}, "value": 0.0015, "n": 0}, {"scriptPubKey": {"reqSigs": 1, "hex": "a9149b05b47b8dd8ad34a4a92bca5e2576fd4c8794f187", "addresses": ["3FphVfjCQpxsXpw4RxMBVwcRQe2dUB9gbB"], "asm": "OP_HASH160 9b05b47b8dd8ad34a4a92bca5e2576fd4c8794f1 OP_EQUAL", "type": "scripthash"}, "value": 19.78569271, "n": 1}], "hex": "0200000000010142a63a34bcb56a48a10a7df7c64220497dfd2a27f55a7da995582b9b386e59a20000000017160014cfa75a5eca167410e34c73d90ac9b6398481a8b8feffffff02f0490200000000001976a914d7a2d713dd192b87672c95c245f529d95675e6d088ac3792ee750000000017a9149b05b47b8dd8ad34a4a92bca5e2576fd4c8794f1870247304402202019360074a9a97973befbc467be17e3a941942bb7d8f9059589d0f229e792f702204d9bd6981ac8f843a64935b510d138752953b714db5a76ba26cf902a006dfd90012103cc0f529982d7740797b3b9013ccca819c64633efccddd1c4e98b6f0d514030a708490800", "vin": [{"txinwitness": ["304402202019360074a9a97973befbc467be17e3a941942bb7d8f9059589d0f229e792f702204d9bd6981ac8f843a64935b510d138752953b714db5a76ba26cf902a006dfd9001", "03cc0f529982d7740797b3b9013ccca819c64633efccddd1c4e98b6f0d514030a7"], "sequence": 4294967294, "scriptSig": {"hex": "160014cfa75a5eca167410e34c73d90ac9b6398481a8b8", "asm": "0014cfa75a5eca167410e34c73d90ac9b6398481a8b8"}, "vout": 0, "txid": "a2596e389b2b5895a97d5af5272afd7d492042c6f77d0aa1486ab5bc343aa642"}], "txid": "77415eadbc31e3b4737026a3acd4c4048700e5881762d00be1d39ef7e473f672", "blocktime": 1537869901, "version": 2, "confirmations": 11524, "time": 1537869901, "locktime": 542984, "vsize": 168, "size": 249}