{"hash": "775086ba96b917cde5db6da3ecbd78d97ec085398f9fdea27469ca3b36d95986", "blockhash": "000000000000000000022b45ed06c6f4ccd3cf7fb5ba4856ebd2e58215665228", "vout": [{"scriptPubKey": {"reqSigs": 1, "hex": "76a914f78607522d0dd64fed2e356da114b378316ae45588ac", "addresses": ["1PZnTrSGFR4XBx1frxYFAaXG5AjKChrmMG"], "asm": "OP_DUP OP_HASH160 f78607522d0dd64fed2e356da114b378316ae455 OP_EQUALVERIFY OP_CHECKSIG", "type": "pubkeyhash"}, "value": 0.00041436, "n": 0}, {"scriptPubKey": {"type": "nulldata", "hex": "6a146f6d6e69000000000000001f0000002ed8a84084", "asm": "OP_RETURN 6f6d6e69000000000000001f0000002ed8a84084"}, "value": 0.0, "n": 1}, {"scriptPubKey": {"reqSigs": 1, "hex": "76a91445dd5cb810fb008a240fccab7f9333cfaa7a6c7588ac", "addresses": ["17NQokXXypzhwR4osHoYsLUaSuXrCh9rNY"], "asm": "OP_DUP OP_HASH160 45dd5cb810fb008a240fccab7f9333cfaa7a6c75 OP_EQUALVERIFY OP_CHECKSIG", "type": "pubkeyhash"}, "value": 5.46e-06, "n": 2}], "hex": "0100000001facabe4ea000fd0d2103c4eb6c7a6847e0926fe6d19272dd80f72aae55c41245000000006a47304402201e031bb7241b0e54995bf9776683bc403896d4c239ac4fd127e2f5b25d85bf1102204806ee58c0a2e514e97f474eebad0c4065e276be965fa50b3608116dd562658801210296b5a96ccb327053d44854547fe337151f449ed0e46f4c55820b935c102b8486ffffffff03dca10000000000001976a914f78607522d0dd64fed2e356da114b378316ae45588ac0000000000000000166a146f6d6e69000000000000001f0000002ed8a8408422020000000000001976a91445dd5cb810fb008a240fccab7f9333cfaa7a6c7588ac00000000", "vin": [{"sequence": 4294967295, "scriptSig": {"hex": "47304402201e031bb7241b0e54995bf9776683bc403896d4c239ac4fd127e2f5b25d85bf1102204806ee58c0a2e514e97f474eebad0c4065e276be965fa50b3608116dd562658801210296b5a96ccb327053d44854547fe337151f449ed0e46f4c55820b935c102b8486", "asm": "304402201e031bb7241b0e54995bf9776683bc403896d4c239ac4fd127e2f5b25d85bf1102204806ee58c0a2e514e97f474eebad0c4065e276be965fa50b3608116dd5626588[ALL] 0296b5a96ccb327053d44854547fe337151f449ed0e46f4c55820b935c102b8486"}, "vout": 0, "txid": "4512c455ae2af780dd7292d1e66f92e047687a6cebc403210dfd00a04ebecafa"}], "txid": "775086ba96b917cde5db6da3ecbd78d97ec085398f9fdea27469ca3b36d95986", "blocktime": 1537869901, "version": 1, "confirmations": 11522, "time": 1537869901, "locktime": 0, "vsize": 256, "size": 256}