{"hash": "7750eab5b34d6f720e777154bae1b7354fb638a9b6f1240e12ac1a8106993273", "blockhash": "0000000000000000001f76057863aec43deb6fa401d9628bb513d65a8098bfab", "vout": [{"scriptPubKey": {"reqSigs": 1, "hex": "76a91490b6dc1afbb2b98d54f669f776e0c01c2e56009788ac", "addresses": ["1ECBMwmdbgx2LcH4gyeZRmvNgwzbwMqiR4"], "asm": "OP_DUP OP_HASH160 90b6dc1afbb2b98d54f669f776e0c01c2e560097 OP_EQUALVERIFY OP_CHECKSIG", "type": "pubkeyhash"}, "value": 0.00152808, "n": 0}, {"scriptPubKey": {"reqSigs": 1, "hex": "76a914f9be6c34f097c427702a588ce347f10d4ecf0d1b88ac", "addresses": ["1PmXNZp75eTAerJNjU8DRSwS1pNXoszkXy"], "asm": "OP_DUP OP_HASH160 f9be6c34f097c427702a588ce347f10d4ecf0d1b OP_EQUALVERIFY OP_CHECKSIG", "type": "pubkeyhash"}, "value": 0.0031214, "n": 1}], "hex": "0100000001a37c9a5f8b63a4e1b64fb651937b4753d2ec123f7d2cb5f103cc8208c9d13ac1000000006b483045022100818708ee6dc0b9979f5d2c7d02fcecd1ecf86d2e7f9b12249ea94905dc6d384f022077219a18715153d96bb275263680d9972225cef4bc79b037ed26373ece00a400012103838f0e241b181d0ce53ae7b3cb20f7fce8551c4d71dfe2aa6178df276a9c5fe3ffffffff02e8540200000000001976a91490b6dc1afbb2b98d54f669f776e0c01c2e56009788ac4cc30400000000001976a914f9be6c34f097c427702a588ce347f10d4ecf0d1b88ac00000000", "vin": [{"sequence": 4294967295, "scriptSig": {"hex": "483045022100818708ee6dc0b9979f5d2c7d02fcecd1ecf86d2e7f9b12249ea94905dc6d384f022077219a18715153d96bb275263680d9972225cef4bc79b037ed26373ece00a400012103838f0e241b181d0ce53ae7b3cb20f7fce8551c4d71dfe2aa6178df276a9c5fe3", "asm": "3045022100818708ee6dc0b9979f5d2c7d02fcecd1ecf86d2e7f9b12249ea94905dc6d384f022077219a18715153d96bb275263680d9972225cef4bc79b037ed26373ece00a400[ALL] 03838f0e241b181d0ce53ae7b3cb20f7fce8551c4d71dfe2aa6178df276a9c5fe3"}, "vout": 0, "txid": "c13ad1c90882cc03f1b52c7d3f12ecd253477b9351b64fb6e1a4638b5f9a7ca3"}], "txid": "7750eab5b34d6f720e777154bae1b7354fb638a9b6f1240e12ac1a8106993273", "blocktime": 1537873891, "version": 1, "confirmations": 11475, "time": 1537873891, "locktime": 0, "vsize": 226, "size": 226}