{"hash": "77513d949e502b834fae4baf6d5178a12bf4f2035b4d2ad195b443cbe5a5b445", "blockhash": "0000000000000000000e13cef7c366c0283d82e591d1acd082e914b08063cdf1", "vout": [{"scriptPubKey": {"reqSigs": 1, "hex": "a914be4f9cb367114747c543c2a6c18da99869fcd25087", "addresses": ["3K3HgYAMxcsTvyWNkQ7ULK7EB6K2CATmDi"], "asm": "OP_HASH160 be4f9cb367114747c543c2a6c18da99869fcd250 OP_EQUAL", "type": "scripthash"}, "value": 0.01111308, "n": 0}, {"scriptPubKey": {"reqSigs": 1, "hex": "a91411fa4ae19bfb79f3158d1612ebc8a7bf9b0babdd87", "addresses": ["33L5FS4rp9XZcYTZBZCkm4LH4hWCCsG31H"], "asm": "OP_HASH160 11fa4ae19bfb79f3158d1612ebc8a7bf9b0babdd OP_EQUAL", "type": "scripthash"}, "value": 0.015231, "n": 1}], "hex": "0200000001806b36096e11225383700386224820ee9810a2d2f892ce60cf4b4f4dcdd22db9010000006a473044022076cce6ef3e8ed73a34b41431695d6e2308e4b3289a82fda46e34ae19a443addc022018aca6084e13d4d3a7b12dc07c25eb62f04b02ea5c561df2372927ec985a42f5012102a37109b43aa5492f0e5774032eb67242cddb2605549a837f105851047c051c69fdffffff020cf510000000000017a914be4f9cb367114747c543c2a6c18da99869fcd250879c3d17000000000017a91411fa4ae19bfb79f3158d1612ebc8a7bf9b0babdd8700000000", "vin": [{"sequence": 4294967293, "scriptSig": {"hex": "473044022076cce6ef3e8ed73a34b41431695d6e2308e4b3289a82fda46e34ae19a443addc022018aca6084e13d4d3a7b12dc07c25eb62f04b02ea5c561df2372927ec985a42f5012102a37109b43aa5492f0e5774032eb67242cddb2605549a837f105851047c051c69", "asm": "3044022076cce6ef3e8ed73a34b41431695d6e2308e4b3289a82fda46e34ae19a443addc022018aca6084e13d4d3a7b12dc07c25eb62f04b02ea5c561df2372927ec985a42f5[ALL] 02a37109b43aa5492f0e5774032eb67242cddb2605549a837f105851047c051c69"}, "vout": 1, "txid": "b92dd2cd4d4f4bcf60ce92f8d2a21098ee204822860370835322116e09366b80"}], "txid": "77513d949e502b834fae4baf6d5178a12bf4f2035b4d2ad195b443cbe5a5b445", "blocktime": 1537871767, "version": 2, "confirmations": 11495, "time": 1537871767, "locktime": 0, "vsize": 221, "size": 221}