{"hash": "6d888d6ee0ea44c6eb70159b4e0e98f70ceb94e6d3c2a7ff2f711ff219f1b752", "blockhash": "000000000000000000022b45ed06c6f4ccd3cf7fb5ba4856ebd2e58215665228", "vout": [{"scriptPubKey": {"reqSigs": 1, "hex": "a914dfb12f1718474fd3db90d8909aebf91a4a279acd87", "addresses": ["3N5nsH6bQTo7D9aYb9nvUv4td6H8qShsvP"], "asm": "OP_HASH160 dfb12f1718474fd3db90d8909aebf91a4a279acd OP_EQUAL", "type": "scripthash"}, "value": 0.0030478, "n": 0}, {"scriptPubKey": {"reqSigs": 1, "hex": "0014d7738b4255bd540ab4d6c41947334e61009deac4", "addresses": ["bc1q6aecksj4h42q4dxkcsv5wv6wvyqfm6kyect2dx"], "asm": "0 d7738b4255bd540ab4d6c41947334e61009deac4", "type": "witness_v0_keyhash"}, "value": 2.041e-05, "n": 1}], "hex": "010000000001017be71d945849f72c9ef1dc18a7b6802c84deb11269b5afcf7d8275fddb2c4ae70000000000ffffffff028ca604000000000017a914dfb12f1718474fd3db90d8909aebf91a4a279acd87f907000000000000160014d7738b4255bd540ab4d6c41947334e61009deac4024730440220375fde09a9b39350164ff21aca36c9b97ec303778f2d348cc16475b40798fabb02206b684f4e51b81fa7344826a601eba3aecfe905c176d5b807ae8f59ec87e5c8a20121039b1bf4badb822e7eae1eedf8681751f395c2cd6f2a863d45b21ef62e76b8b1b300000000", "vin": [{"txinwitness": ["30440220375fde09a9b39350164ff21aca36c9b97ec303778f2d348cc16475b40798fabb02206b684f4e51b81fa7344826a601eba3aecfe905c176d5b807ae8f59ec87e5c8a201", "039b1bf4badb822e7eae1eedf8681751f395c2cd6f2a863d45b21ef62e76b8b1b3"], "sequence": 4294967295, "scriptSig": {"hex": "", "asm": ""}, "vout": 0, "txid": "e74a2cdbfd75827dcfafb56912b1de842c80b6a718dcf19e2cf74958941de77b"}], "txid": "77568c018a7c3074862d8bf99e34c744b8b74417f5e814af5ac0232db2fe5f90", "blocktime": 1537869901, "version": 1, "confirmations": 11523, "time": 1537869901, "locktime": 0, "vsize": 142, "size": 223}