{"hash": "775d3c39e9a05da819ff5577bc6363aa66d9f568855eace83da162b4b6fbbb9e", "blockhash": "0000000000000000000dcc0f55137456b1a82d3642486a52398922ac4d620174", "vout": [{"scriptPubKey": {"reqSigs": 1, "hex": "76a9149f919253b2bbb0c68f249a46133746dcf0223c7988ac", "addresses": ["1FYipzZSobmmSuJxp9ZN3xxfn5Hh4byoTj"], "asm": "OP_DUP OP_HASH160 9f919253b2bbb0c68f249a46133746dcf0223c79 OP_EQUALVERIFY OP_CHECKSIG", "type": "pubkeyhash"}, "value": 0.10045, "n": 0}, {"scriptPubKey": {"reqSigs": 1, "hex": "76a914ac39757421703a9a782bd94298696a978525ca4588ac", "addresses": ["1Ghe4JYX4Jm2sCi3G92gsDFLYMQomrErF9"], "asm": "OP_DUP OP_HASH160 ac39757421703a9a782bd94298696a978525ca45 OP_EQUALVERIFY OP_CHECKSIG", "type": "pubkeyhash"}, "value": 0.00998483, "n": 1}], "hex": "020000000a03a1b41c2fdc7f83a5c661d53b7927c432aaeccb6958de5b95efbcb8ca2bd1ea000000006b483045022100804a6b56a423f9c78b5001ef1162cd27cc48e5dc16cf62849d5a3e2d7856dc340220576bdacd00ba0ad6386f2fe6935fcc27d7824c29c787d5f144c312d8affaeb29012103b05d6c248478b8d7b4df70ec4af1e0199ac39548aa30ace528cca461b9b489ebfeffffff0de3ac2157cc42f8f5d4d7d23b1d66b738d80fa2aed358c48c597c65d38b649f000000006b48304502210086268d2cd9bd1ea2e62f79b9b1826a88e63c187f6e5c40fb6a457daeb212453002204b1bdb09604de57a6eb4ccc4c87f2a048b45fe34d9ecc537f71daca823f24237012102ef3efdc77363028443399709dc7ee6f07f14441dd98b9028119f5fb6fe76028cfeffffff2750163223eb145c8cb21a62de0f87d44c5f9c3def1f36a0f30c6178c2bca1fae80100006b483045022100aae8fefd0b9f5f749e1615081fa5b3834b3855d54ec88a9e4af6a8d6103529e002201d6ba784bcf356a12d7df5bb6d3729eb3eb822945124a619a22f1aad94fe70670121035ae9fe5ee1f9a81335e642b3e4ec3884f6d914f75ff2c8833f5f3e17334a7ffcfeffffff56460b4b6ecc5a452a20ebe7353ce3e0fb00d6c288f5673d6a5d81c203ad95f4010000006a4730440220599254ab3073ab38d1baf47d49a6f583cc5b30daea95cfd84f8440a3939d78dd022005c3e2251e2ecaf7c8febdedae99a8a0d154d8764a27de45fdd9928feb46cd32012103a8f82bcfdd2acdfbde6bede4cc0d900a1383c5439f32c5f144da6b2edab72a63feffffff91a198c03105da43cafbd272cdd905f3c3235670bd1133bdc524385bcf5b4db4220000006a473044022009bb280497cc77456760ee24be169d419cbd1ee49474573211bdf6ebb7d34c9b022045c049726400446dc723e02a9c44ab1a37b189224d63938a0c82a09395ae570101210204f62b57a5ea4fb7bb51538d61d5048caba09a2bde3887550969e6956281e077feffffffb7ad33cc3ba552348136d3154dd19d51a8c7bd3390da380e3cafd1fa797b73851b0200006b48304502210081bf27a2caf8478098bdb673fb5e84abee30760ba75c2a90fc71d0dad3fd6d84022046155dd791128562928f023336f384ec672373c3357b95c49f22638b800a09cc0121021bced9bfdf19fd974a0507cf0d918aff0231ee9504899a225bf9e695d6b57a4dfeffffffc0ffe871618f097d6ab6a25e524768eda604752123a3d4d5c350203265c05169a40000006a4730440220404747b8f1579e8dae1d260bcf5aa7b177f49988768d755c6ea52240f18b1b55022074bcd46fafe256f8535d1a6dd10eea6ef2e4931a034a7873b823020c56b262eb012102f8201df55a1b7a7e44b98ca1439391086fe2b5fdfe68121ce20362755f50b43dfeffffffce047a14dc16f0f24ccdc1d1fa2acc494e0428a8c1843a91886301cd09336c23010000006b483045022100af7ae6a89d35464550427f8d85d965967fe719b19ed23d6e217b402bc2b974050220289d9c07b51be90e545db89eb929cfcad82beb7f96298d42202cbff9e99c43070121020aeed073b7857d4a2d50592eabbc642e2a28dba940e00dc95436f9baeff43fc1feffffffd337a32b4adcc10676b6cc0da02706bdf36dee934a0dd01d9c3aeffff484656b010000006a47304402207af70adcd794b0261a4eb7e49a5358de3d592864476537347f0fa98042f74919022000f15ba4b788805e3ceea09bbc1cdd9d927121f2b7b56c48cd791ca22682f4f601210244411284dd18274f5bb6722fbab3550aebd3e17953d8c4fa86b597ae6c77bee2feffffffd68382de021a969bb2bd3dea0c20f5154ec01a8d9e0b3d5c82eea5982aa26496000000006b483045022100d477e6518317283cedc4997a2b6be680a536d45bc41d560390266c914d2c4f8f02200cc2c775e0da54b4785c90a4db48306f963c2869486258057994230174400dae012103066dcb0d37f1dbabe4c4e8c26180afb19a6ef92d8d4e818b043e7248789586fafeffffff0248469900000000001976a9149f919253b2bbb0c68f249a46133746dcf0223c7988ac533c0f00000000001976a914ac39757421703a9a782bd94298696a978525ca4588ac00490800", "vin": [{"sequence": 4294967294, "scriptSig": {"hex": "483045022100804a6b56a423f9c78b5001ef1162cd27cc48e5dc16cf62849d5a3e2d7856dc340220576bdacd00ba0ad6386f2fe6935fcc27d7824c29c787d5f144c312d8affaeb29012103b05d6c248478b8d7b4df70ec4af1e0199ac39548aa30ace528cca461b9b489eb", "asm": "3045022100804a6b56a423f9c78b5001ef1162cd27cc48e5dc16cf62849d5a3e2d7856dc340220576bdacd00ba0ad6386f2fe6935fcc27d7824c29c787d5f144c312d8affaeb29[ALL] 03b05d6c248478b8d7b4df70ec4af1e0199ac39548aa30ace528cca461b9b489eb"}, "vout": 0, "txid": "ead12bcab8bcef955bde5869cbecaa32c427793bd561c6a5837fdc2f1cb4a103"}, {"sequence": 4294967294, "scriptSig": {"hex": "48304502210086268d2cd9bd1ea2e62f79b9b1826a88e63c187f6e5c40fb6a457daeb212453002204b1bdb09604de57a6eb4ccc4c87f2a048b45fe34d9ecc537f71daca823f24237012102ef3efdc77363028443399709dc7ee6f07f14441dd98b9028119f5fb6fe76028c", "asm": "304502210086268d2cd9bd1ea2e62f79b9b1826a88e63c187f6e5c40fb6a457daeb212453002204b1bdb09604de57a6eb4ccc4c87f2a048b45fe34d9ecc537f71daca823f24237[ALL] 02ef3efdc77363028443399709dc7ee6f07f14441dd98b9028119f5fb6fe76028c"}, "vout": 0, "txid": "9f648bd3657c598cc458d3aea20fd838b7661d3bd2d7d4f5f842cc5721ace30d"}, {"sequence": 4294967294, "scriptSig": {"hex": "483045022100aae8fefd0b9f5f749e1615081fa5b3834b3855d54ec88a9e4af6a8d6103529e002201d6ba784bcf356a12d7df5bb6d3729eb3eb822945124a619a22f1aad94fe70670121035ae9fe5ee1f9a81335e642b3e4ec3884f6d914f75ff2c8833f5f3e17334a7ffc", "asm": "3045022100aae8fefd0b9f5f749e1615081fa5b3834b3855d54ec88a9e4af6a8d6103529e002201d6ba784bcf356a12d7df5bb6d3729eb3eb822945124a619a22f1aad94fe7067[ALL] 035ae9fe5ee1f9a81335e642b3e4ec3884f6d914f75ff2c8833f5f3e17334a7ffc"}, "vout": 488, "txid": "faa1bcc278610cf3a0361fef3d9c5f4cd4870fde621ab28c5c14eb2332165027"}, {"sequence": 4294967294, "scriptSig": {"hex": "4730440220599254ab3073ab38d1baf47d49a6f583cc5b30daea95cfd84f8440a3939d78dd022005c3e2251e2ecaf7c8febdedae99a8a0d154d8764a27de45fdd9928feb46cd32012103a8f82bcfdd2acdfbde6bede4cc0d900a1383c5439f32c5f144da6b2edab72a63", "asm": "30440220599254ab3073ab38d1baf47d49a6f583cc5b30daea95cfd84f8440a3939d78dd022005c3e2251e2ecaf7c8febdedae99a8a0d154d8764a27de45fdd9928feb46cd32[ALL] 03a8f82bcfdd2acdfbde6bede4cc0d900a1383c5439f32c5f144da6b2edab72a63"}, "vout": 1, "txid": "f495ad03c2815d6a3d67f588c2d600fbe0e33c35e7eb202a455acc6e4b0b4656"}, {"sequence": 4294967294, "scriptSig": {"hex": "473044022009bb280497cc77456760ee24be169d419cbd1ee49474573211bdf6ebb7d34c9b022045c049726400446dc723e02a9c44ab1a37b189224d63938a0c82a09395ae570101210204f62b57a5ea4fb7bb51538d61d5048caba09a2bde3887550969e6956281e077", "asm": "3044022009bb280497cc77456760ee24be169d419cbd1ee49474573211bdf6ebb7d34c9b022045c049726400446dc723e02a9c44ab1a37b189224d63938a0c82a09395ae5701[ALL] 0204f62b57a5ea4fb7bb51538d61d5048caba09a2bde3887550969e6956281e077"}, "vout": 34, "txid": "b44d5bcf5b3824c5bd3311bd705623c3f305d9cd72d2fbca43da0531c098a191"}, {"sequence": 4294967294, "scriptSig": {"hex": "48304502210081bf27a2caf8478098bdb673fb5e84abee30760ba75c2a90fc71d0dad3fd6d84022046155dd791128562928f023336f384ec672373c3357b95c49f22638b800a09cc0121021bced9bfdf19fd974a0507cf0d918aff0231ee9504899a225bf9e695d6b57a4d", "asm": "304502210081bf27a2caf8478098bdb673fb5e84abee30760ba75c2a90fc71d0dad3fd6d84022046155dd791128562928f023336f384ec672373c3357b95c49f22638b800a09cc[ALL] 021bced9bfdf19fd974a0507cf0d918aff0231ee9504899a225bf9e695d6b57a4d"}, "vout": 539, "txid": "85737b79fad1af3c0e38da9033bdc7a8519dd14d15d336813452a53bcc33adb7"}, {"sequence": 4294967294, "scriptSig": {"hex": "4730440220404747b8f1579e8dae1d260bcf5aa7b177f49988768d755c6ea52240f18b1b55022074bcd46fafe256f8535d1a6dd10eea6ef2e4931a034a7873b823020c56b262eb012102f8201df55a1b7a7e44b98ca1439391086fe2b5fdfe68121ce20362755f50b43d", "asm": "30440220404747b8f1579e8dae1d260bcf5aa7b177f49988768d755c6ea52240f18b1b55022074bcd46fafe256f8535d1a6dd10eea6ef2e4931a034a7873b823020c56b262eb[ALL] 02f8201df55a1b7a7e44b98ca1439391086fe2b5fdfe68121ce20362755f50b43d"}, "vout": 164, "txid": "6951c065322050c3d5d4a323217504a6ed6847525ea2b66a7d098f6171e8ffc0"}, {"sequence": 4294967294, "scriptSig": {"hex": "483045022100af7ae6a89d35464550427f8d85d965967fe719b19ed23d6e217b402bc2b974050220289d9c07b51be90e545db89eb929cfcad82beb7f96298d42202cbff9e99c43070121020aeed073b7857d4a2d50592eabbc642e2a28dba940e00dc95436f9baeff43fc1", "asm": "3045022100af7ae6a89d35464550427f8d85d965967fe719b19ed23d6e217b402bc2b974050220289d9c07b51be90e545db89eb929cfcad82beb7f96298d42202cbff9e99c4307[ALL] 020aeed073b7857d4a2d50592eabbc642e2a28dba940e00dc95436f9baeff43fc1"}, "vout": 1, "txid": "236c3309cd016388913a84c1a828044e49cc2afad1c1cd4cf2f016dc147a04ce"}, {"sequence": 4294967294, "scriptSig": {"hex": "47304402207af70adcd794b0261a4eb7e49a5358de3d592864476537347f0fa98042f74919022000f15ba4b788805e3ceea09bbc1cdd9d927121f2b7b56c48cd791ca22682f4f601210244411284dd18274f5bb6722fbab3550aebd3e17953d8c4fa86b597ae6c77bee2", "asm": "304402207af70adcd794b0261a4eb7e49a5358de3d592864476537347f0fa98042f74919022000f15ba4b788805e3ceea09bbc1cdd9d927121f2b7b56c48cd791ca22682f4f6[ALL] 0244411284dd18274f5bb6722fbab3550aebd3e17953d8c4fa86b597ae6c77bee2"}, "vout": 1, "txid": "6b6584f4ffef3a9c1dd00d4a93ee6df3bd0627a00dccb67606c1dc4a2ba337d3"}, {"sequence": 4294967294, "scriptSig": {"hex": "483045022100d477e6518317283cedc4997a2b6be680a536d45bc41d560390266c914d2c4f8f02200cc2c775e0da54b4785c90a4db48306f963c2869486258057994230174400dae012103066dcb0d37f1dbabe4c4e8c26180afb19a6ef92d8d4e818b043e7248789586fa", "asm": "3045022100d477e6518317283cedc4997a2b6be680a536d45bc41d560390266c914d2c4f8f02200cc2c775e0da54b4785c90a4db48306f963c2869486258057994230174400dae[ALL] 03066dcb0d37f1dbabe4c4e8c26180afb19a6ef92d8d4e818b043e7248789586fa"}, "vout": 0, "txid": "9664a22a98a5ee825c3d0b9e8d1ac04e15f5200cea3dbdb29b961a02de8283d6"}], "txid": "775d3c39e9a05da819ff5577bc6363aa66d9f568855eace83da162b4b6fbbb9e", "blocktime": 1537870268, "version": 2, "confirmations": 11518, "time": 1537870268, "locktime": 542976, "vsize": 1554, "size": 1554}