{"hash": "d63cf06fa101aa84dcda81bebd047999a12fa9a42dfc65d3562dfe7ee39a2cee", "blockhash": "0000000000000000000e13cef7c366c0283d82e591d1acd082e914b08063cdf1", "vout": [{"scriptPubKey": {"reqSigs": 1, "hex": "a9148883ffefc98e00885c9922fb1e46bff9de14ab8187", "addresses": ["3E8qx8rjRkfBufKniNcwz75YoFcxEB2beH"], "asm": "OP_HASH160 8883ffefc98e00885c9922fb1e46bff9de14ab81 OP_EQUAL", "type": "scripthash"}, "value": 0.00355958, "n": 0}, {"scriptPubKey": {"reqSigs": 1, "hex": "a914a5cb6d8c4286a5de7fe0921dde3267adc77ff9ed87", "addresses": ["3Gof7cexUxQWMSB5e4adGtarBJDNNv4Vjy"], "asm": "OP_HASH160 a5cb6d8c4286a5de7fe0921dde3267adc77ff9ed OP_EQUAL", "type": "scripthash"}, "value": 0.00482139, "n": 1}], "hex": "01000000000102e085fd74ebde96c5545c66565cfc46e9387cced9491d918abfcad5357d8284170100000023220020e0b6457c89caa8596820c62381c2009d628f3a36c52eadf413267f9bc6e1a31affffffff10d1141b4f1151b0f762a75c4d1af821bad019783856637716627d3f145416e80100000023220020b3338f9571dda5ad799834148ea1ed19d1123924bdbb356e0c8c610b69cfd906ffffffff02766e05000000000017a9148883ffefc98e00885c9922fb1e46bff9de14ab81875b5b07000000000017a914a5cb6d8c4286a5de7fe0921dde3267adc77ff9ed8704004730440220297571ed4d31df83429cdb18f1d823b6c62f5595b7e562b65f4186559f3204b602206b128df19c3f66e8ef4daa243b6f715ba9d8618f5fe4bbe2a505b293133291020147304402201fbdb57410677f7ac5d2074f0ef24d6ea460f663bab3145cb3d624398c34c88002205425678ce1c329f78826bd8e9ac0b3ffdc0b10315c6637961adad8e3e288627f0147522102662df3c75a4f151bb0d69b086cd19ab6764e52eeb055398aa45f450439053f512103871fc2ca08e6950b38867e8e6a0e94ee625223d3aa0df5c65f414c6d784467e252ae040047304402200efdd7844fc474ce0fba14376e169ce3de874b12ca03db36188230de36f94821022013e314858b294c4b303067711698834be3d34d54955f62c8b5bad5ee8a581d9901473044022035c05a7033c182982468b25f0f2178b8b659308842c86609e33db09ad510b22102204aafc1a962a7d8ce30740b6401bdbb91916375cc91a79174d7c3310b93c06c0201475221030c187397a5b8dfedda9f5fedc3a23f7c20923351690c4b0247f9bce94499c4202103871fc2ca08e6950b38867e8e6a0e94ee625223d3aa0df5c65f414c6d784467e252ae00000000", "vin": [{"txinwitness": ["", "30440220297571ed4d31df83429cdb18f1d823b6c62f5595b7e562b65f4186559f3204b602206b128df19c3f66e8ef4daa243b6f715ba9d8618f5fe4bbe2a505b2931332910201", "304402201fbdb57410677f7ac5d2074f0ef24d6ea460f663bab3145cb3d624398c34c88002205425678ce1c329f78826bd8e9ac0b3ffdc0b10315c6637961adad8e3e288627f01", "522102662df3c75a4f151bb0d69b086cd19ab6764e52eeb055398aa45f450439053f512103871fc2ca08e6950b38867e8e6a0e94ee625223d3aa0df5c65f414c6d784467e252ae"], "sequence": 4294967295, "scriptSig": {"hex": "220020e0b6457c89caa8596820c62381c2009d628f3a36c52eadf413267f9bc6e1a31a", "asm": "0020e0b6457c89caa8596820c62381c2009d628f3a36c52eadf413267f9bc6e1a31a"}, "vout": 1, "txid": "1784827d35d5cabf8a911d49d9ce7c38e946fc5c56665c54c596deeb74fd85e0"}, {"txinwitness": ["", "304402200efdd7844fc474ce0fba14376e169ce3de874b12ca03db36188230de36f94821022013e314858b294c4b303067711698834be3d34d54955f62c8b5bad5ee8a581d9901", "3044022035c05a7033c182982468b25f0f2178b8b659308842c86609e33db09ad510b22102204aafc1a962a7d8ce30740b6401bdbb91916375cc91a79174d7c3310b93c06c0201", "5221030c187397a5b8dfedda9f5fedc3a23f7c20923351690c4b0247f9bce94499c4202103871fc2ca08e6950b38867e8e6a0e94ee625223d3aa0df5c65f414c6d784467e252ae"], "sequence": 4294967295, "scriptSig": {"hex": "220020b3338f9571dda5ad799834148ea1ed19d1123924bdbb356e0c8c610b69cfd906", "asm": "0020b3338f9571dda5ad799834148ea1ed19d1123924bdbb356e0c8c610b69cfd906"}, "vout": 1, "txid": "e81654143f7d6216776356387819d0ba21f81a4d5ca762f7b051114f1b14d110"}], "txid": "776590087837548d3f4f16c4d3d40ec1256ce78ad808c2ec7b80b8f836ba5c52", "blocktime": 1537871767, "version": 1, "confirmations": 11495, "time": 1537871767, "locktime": 0, "vsize": 336, "size": 664}