{"hash": "776a4ef5d629cdf36be97c5552efff95f0e147d1d478155155c67bb5b62a92bd", "blockhash": "0000000000000000001f0ddff1eddb255c1121bcd4da4f1bc9a0da00cae72433", "vout": [{"scriptPubKey": {"reqSigs": 1, "hex": "76a914b6bb2a44b7c147abff06836841f1e0c31b3cb68988ac", "addresses": ["1HfCCNdtjPj2s5VHFmruZmdMaAaRLyXVHD"], "asm": "OP_DUP OP_HASH160 b6bb2a44b7c147abff06836841f1e0c31b3cb689 OP_EQUALVERIFY OP_CHECKSIG", "type": "pubkeyhash"}, "value": 0.00011024, "n": 0}, {"scriptPubKey": {"reqSigs": 1, "hex": "76a914308dd5b33d4dd23c225839848976c15c00edfdac88ac", "addresses": ["15RjM4VTmoUeYM3ZvhS2nDkTDD1v7vYFP7"], "asm": "OP_DUP OP_HASH160 308dd5b33d4dd23c225839848976c15c00edfdac OP_EQUALVERIFY OP_CHECKSIG", "type": "pubkeyhash"}, "value": 0.0001562, "n": 1}], "hex": "0100000001821105084d4db50dc7ef8985ecf06df4214f75eb0eca223311d7b79cce257dd8000000006a47304402205db554a773600d8ee6096c3fe40fbd0a3d34e9ae9dc887ca05a89129505891ef02206d532808e953dfb910a4af0899f854293948d301d7ced7d53784955bc63145c8012103d3de07fe3d5b1bf74b2c7096f04eb3543bad973000585007aa36cef6d40b3db5fdffffff02102b0000000000001976a914b6bb2a44b7c147abff06836841f1e0c31b3cb68988ac043d0000000000001976a914308dd5b33d4dd23c225839848976c15c00edfdac88ac0f490800", "vin": [{"sequence": 4294967293, "scriptSig": {"hex": "47304402205db554a773600d8ee6096c3fe40fbd0a3d34e9ae9dc887ca05a89129505891ef02206d532808e953dfb910a4af0899f854293948d301d7ced7d53784955bc63145c8012103d3de07fe3d5b1bf74b2c7096f04eb3543bad973000585007aa36cef6d40b3db5", "asm": "304402205db554a773600d8ee6096c3fe40fbd0a3d34e9ae9dc887ca05a89129505891ef02206d532808e953dfb910a4af0899f854293948d301d7ced7d53784955bc63145c8[ALL] 03d3de07fe3d5b1bf74b2c7096f04eb3543bad973000585007aa36cef6d40b3db5"}, "vout": 0, "txid": "d87d25ce9cb7d7113322ca0eeb754f21f46df0ec8589efc70db54d4d08051182"}], "txid": "776a4ef5d629cdf36be97c5552efff95f0e147d1d478155155c67bb5b62a92bd", "blocktime": 1537872018, "version": 1, "confirmations": 11489, "time": 1537872018, "locktime": 542991, "vsize": 225, "size": 225}