{"hash": "1c667ba27ad38a53d03f474432cfec6a2f83dde5b2a1c5165ec8c729c659cfca", "blockhash": "0000000000000000001f76057863aec43deb6fa401d9628bb513d65a8098bfab", "vout": [{"scriptPubKey": {"reqSigs": 1, "hex": "76a914f1ffc8af8681b4a3439df2e6c1f61b2d762111a688ac", "addresses": ["1P4aGQnN9BttTm823KUUbaUGCXBHyfG953"], "asm": "OP_DUP OP_HASH160 f1ffc8af8681b4a3439df2e6c1f61b2d762111a6 OP_EQUALVERIFY OP_CHECKSIG", "type": "pubkeyhash"}, "value": 0.00010292, "n": 0}, {"scriptPubKey": {"reqSigs": 1, "hex": "a914bfe3b9b006bd60d821de4768216fbcf3cb0629a487", "addresses": ["3KBdnpNRSUC6xH7oL58GWg3f1QzPQs9FWq"], "asm": "OP_HASH160 bfe3b9b006bd60d821de4768216fbcf3cb0629a4 OP_EQUAL", "type": "scripthash"}, "value": 0.0103053, "n": 1}], "hex": "01000000000101aa888419b4dcb8e0347848189ed0f7bfd7bb44ed026881c4b587e00fa7fef25301000000232200204ac72bc93353695ed44de9eabe5eab31fde46c3e5524f6f6c253b37df4627817ffffffff0234280000000000001976a914f1ffc8af8681b4a3439df2e6c1f61b2d762111a688ac82b90f000000000017a914bfe3b9b006bd60d821de4768216fbcf3cb0629a4870400483045022100c23bdeaad5afde4769c9a86d0f045c4031e40dcd3398f8eead12708d35af255d02203b6d666948a58fca79dc93e0a4a1aab2b98351c4bfa894e45f391b1f593f92ef01473044022047e2dff1c05fbf5e3ea471a44ab55e02ef764e6da9c9d3fc5e26b837ac0a178b022053a8c8de71d922e05b364e435687051532523359d420df4c9a7ac91685ed7350014752210383dd989bbcdccf0b79b07f5bbd82921af5ac4762329b0aa9346994805e5cd8fc2103871fc2ca08e6950b38867e8e6a0e94ee625223d3aa0df5c65f414c6d784467e252ae00000000", "vin": [{"txinwitness": ["", "3045022100c23bdeaad5afde4769c9a86d0f045c4031e40dcd3398f8eead12708d35af255d02203b6d666948a58fca79dc93e0a4a1aab2b98351c4bfa894e45f391b1f593f92ef01", "3044022047e2dff1c05fbf5e3ea471a44ab55e02ef764e6da9c9d3fc5e26b837ac0a178b022053a8c8de71d922e05b364e435687051532523359d420df4c9a7ac91685ed735001", "52210383dd989bbcdccf0b79b07f5bbd82921af5ac4762329b0aa9346994805e5cd8fc2103871fc2ca08e6950b38867e8e6a0e94ee625223d3aa0df5c65f414c6d784467e252ae"], "sequence": 4294967295, "scriptSig": {"hex": "2200204ac72bc93353695ed44de9eabe5eab31fde46c3e5524f6f6c253b37df4627817", "asm": "00204ac72bc93353695ed44de9eabe5eab31fde46c3e5524f6f6c253b37df4627817"}, "vout": 1, "txid": "53f2fea70fe087b5c4816802ed44bbd7bff7d09e18487834e0b8dcb4198488aa"}], "txid": "776df631335d557ce453870b9f534b229ed773003a21bd033569ce34aac87b0f", "blocktime": 1537873891, "version": 1, "confirmations": 11478, "time": 1537873891, "locktime": 0, "vsize": 208, "size": 373}