{"hash": "776d7c485301c0ce333d606e6f10e0b9c0992b6af8f7473b01e919b4432ca81b", "blockhash": "0000000000000000000dcc0f55137456b1a82d3642486a52398922ac4d620174", "vout": [{"scriptPubKey": {"reqSigs": 1, "hex": "a914685eac9b8f3bb894699e52be90ff87ce9d1b9b7787", "addresses": ["3BCscaNi3wd9ckG6pccQPdZBRFEuq3eUx9"], "asm": "OP_HASH160 685eac9b8f3bb894699e52be90ff87ce9d1b9b77 OP_EQUAL", "type": "scripthash"}, "value": 0.00390324, "n": 0}, {"scriptPubKey": {"reqSigs": 1, "hex": "76a9143b8cc91cbc6b077a4b4bb6353dff34f6b419c49688ac", "addresses": ["16RsXGp3ceT8kTL6L1DsyA2ov4u12Kg92n"], "asm": "OP_DUP OP_HASH160 3b8cc91cbc6b077a4b4bb6353dff34f6b419c496 OP_EQUALVERIFY OP_CHECKSIG", "type": "pubkeyhash"}, "value": 0.06811761, "n": 1}], "hex": "0100000001aa8cf28e2280e32bc7cf59ee1bae9a8c955f04d83f451f55e126e8c925faa346010000006b483045022100dab9c43b744c1ad5921ccc266387b9da078dc347328aff1baf70b35c936bf1f0022068ec55b92c56bab3d8cb0e1187983fdb026c453b4647b46f04c10d22e51c6474012102d505cd0469ca5c97f56278095d9cffe2d6fa269b847b1c37b5c7bf4af538f6f4fdffffff02b4f405000000000017a914685eac9b8f3bb894699e52be90ff87ce9d1b9b778771f06700000000001976a9143b8cc91cbc6b077a4b4bb6353dff34f6b419c49688ac0c490800", "vin": [{"sequence": 4294967293, "scriptSig": {"hex": "483045022100dab9c43b744c1ad5921ccc266387b9da078dc347328aff1baf70b35c936bf1f0022068ec55b92c56bab3d8cb0e1187983fdb026c453b4647b46f04c10d22e51c6474012102d505cd0469ca5c97f56278095d9cffe2d6fa269b847b1c37b5c7bf4af538f6f4", "asm": "3045022100dab9c43b744c1ad5921ccc266387b9da078dc347328aff1baf70b35c936bf1f0022068ec55b92c56bab3d8cb0e1187983fdb026c453b4647b46f04c10d22e51c6474[ALL] 02d505cd0469ca5c97f56278095d9cffe2d6fa269b847b1c37b5c7bf4af538f6f4"}, "vout": 1, "txid": "46a3fa25c9e826e1551f453fd8045f958c9aae1bee59cfc72be380228ef28caa"}], "txid": "776d7c485301c0ce333d606e6f10e0b9c0992b6af8f7473b01e919b4432ca81b", "blocktime": 1537870268, "version": 1, "confirmations": 11516, "time": 1537870268, "locktime": 542988, "vsize": 224, "size": 224}