{"hash": "4d9c7dc3865bad859434ff36b9feac73ddaadd211a8b836282e6dc46b9a0b092", "blockhash": "0000000000000000000baef3f32e3676a92c3b2e5da21b426e4f302fc371ce76", "vout": [{"scriptPubKey": {"reqSigs": 1, "hex": "76a914804007c8b0779a4a52ef7101e49c7e18aa875b6488ac", "addresses": ["1Ch8CTxvPD9bBnd8b9JUWgfZ8ywhHVLtcw"], "asm": "OP_DUP OP_HASH160 804007c8b0779a4a52ef7101e49c7e18aa875b64 OP_EQUALVERIFY OP_CHECKSIG", "type": "pubkeyhash"}, "value": 0.00010803, "n": 0}, {"scriptPubKey": {"reqSigs": 1, "hex": "a9140be7846be16b05bea00dbec2fcd7e045a793cb1787", "addresses": ["32mxhko5mJHfkbkDPpz7SfdJwEJi21P1WK"], "asm": "OP_HASH160 0be7846be16b05bea00dbec2fcd7e045a793cb17 OP_EQUAL", "type": "scripthash"}, "value": 0.17915749, "n": 1}], "hex": "0100000000010186e91a7c43473cb4a2ddf91ad387c00cbc04b6ec75ac74174fd9c70c80ae909901000000232200202c66ece6da72bcbfeadf83a91236f4891c13e14d8ecebdcaa81666fc1aa73a31ffffffff02332a0000000000001976a914804007c8b0779a4a52ef7101e49c7e18aa875b6488ac655f11010000000017a9140be7846be16b05bea00dbec2fcd7e045a793cb1787040047304402203eb54e2d2ab68b60feb6ae7542c4a9eb9a5a6f07493891a0f037c0d519f90c110220604312fa29eae55e8cf01f7b672f0ff0248f0c6f89e4c197dd011e6f143b3ebe01483045022100b635cf654f82e9708809a88c7cc6e8a1ebb122975a3202557c057b692ea6efd00220236edc481562960fc9ce5a00e02a6e0680acbfd9d32a1472f3f1c51e84f8cce501475221029e6fbb942d34a473faaa5557c1bfe08d72102f0b9754ad140fd369d7a3ba3cdc2103871fc2ca08e6950b38867e8e6a0e94ee625223d3aa0df5c65f414c6d784467e252ae00000000", "vin": [{"txinwitness": ["", "304402203eb54e2d2ab68b60feb6ae7542c4a9eb9a5a6f07493891a0f037c0d519f90c110220604312fa29eae55e8cf01f7b672f0ff0248f0c6f89e4c197dd011e6f143b3ebe01", "3045022100b635cf654f82e9708809a88c7cc6e8a1ebb122975a3202557c057b692ea6efd00220236edc481562960fc9ce5a00e02a6e0680acbfd9d32a1472f3f1c51e84f8cce501", "5221029e6fbb942d34a473faaa5557c1bfe08d72102f0b9754ad140fd369d7a3ba3cdc2103871fc2ca08e6950b38867e8e6a0e94ee625223d3aa0df5c65f414c6d784467e252ae"], "sequence": 4294967295, "scriptSig": {"hex": "2200202c66ece6da72bcbfeadf83a91236f4891c13e14d8ecebdcaa81666fc1aa73a31", "asm": "00202c66ece6da72bcbfeadf83a91236f4891c13e14d8ecebdcaa81666fc1aa73a31"}, "vout": 1, "txid": "9990ae800cc7d94f1774ac75ecb604bc0cc087d31af9dda2b43c47437c1ae986"}], "txid": "776f421d9d2e79b708d0f9169c1d4dab1ec7e43414d7b87a58ed2c5150358108", "blocktime": 1537876114, "version": 1, "confirmations": 11460, "time": 1537876114, "locktime": 0, "vsize": 208, "size": 373}