{"hash": "77749e866a391771ace10e1b4cf8c7ec532ca235b3eaaeb58aafff9140855a07", "blockhash": "00000000000000000018f53835495a110e01622372bf6ae95dc86f2b0ab887b0", "vout": [{"scriptPubKey": {"reqSigs": 1, "hex": "76a91435709eebb09a231818f0d1c7930779fcf735891d88ac", "addresses": ["15sZjCPCp4KvXAy5RKwuRk3vZGLryHAz8w"], "asm": "OP_DUP OP_HASH160 35709eebb09a231818f0d1c7930779fcf735891d OP_EQUALVERIFY OP_CHECKSIG", "type": "pubkeyhash"}, "value": 0.00644756, "n": 0}, {"scriptPubKey": {"type": "nulldata", "hex": "6a4c500000778600012f061448616686459b63732dbcbefa6b8351586b4e86aeaeacb577c031fc8103ac2eb340c5c4766774c5a44536ff5baa0b59061431619b2703de1d100759d4ba30d2c37bb011d97e02cf", "asm": "OP_RETURN 0000778600012f061448616686459b63732dbcbefa6b8351586b4e86aeaeacb577c031fc8103ac2eb340c5c4766774c5a44536ff5baa0b59061431619b2703de1d100759d4ba30d2c37bb011d97e02cf"}, "value": 0.0, "n": 1}], "hex": "0100000001827fa95c40a54f9dbe8f4990cab7b8408e236d7afdd50e58af9e091eae50b08c000000006b483045022100f45051aed3bc5bf8902f1db656248878461240f6358aa89fc33f7ce1daf0ef3602205d4316a0c203e19972aa01fbb536918d0e7079efe98f2ac11f5771dc2fea3ad7012102ab041833d6aa3384ee501c2d448fd3a16b6dbadae25494786d21a2d5de7323a2ffffffff0294d60900000000001976a91435709eebb09a231818f0d1c7930779fcf735891d88ac0000000000000000536a4c500000778600012f061448616686459b63732dbcbefa6b8351586b4e86aeaeacb577c031fc8103ac2eb340c5c4766774c5a44536ff5baa0b59061431619b2703de1d100759d4ba30d2c37bb011d97e02cf00000000", "vin": [{"sequence": 4294967295, "scriptSig": {"hex": "483045022100f45051aed3bc5bf8902f1db656248878461240f6358aa89fc33f7ce1daf0ef3602205d4316a0c203e19972aa01fbb536918d0e7079efe98f2ac11f5771dc2fea3ad7012102ab041833d6aa3384ee501c2d448fd3a16b6dbadae25494786d21a2d5de7323a2", "asm": "3045022100f45051aed3bc5bf8902f1db656248878461240f6358aa89fc33f7ce1daf0ef3602205d4316a0c203e19972aa01fbb536918d0e7079efe98f2ac11f5771dc2fea3ad7[ALL] 02ab041833d6aa3384ee501c2d448fd3a16b6dbadae25494786d21a2d5de7323a2"}, "vout": 0, "txid": "8cb050ae1e099eaf580ed5fd7a6d238e40b8b7ca90498fbe9d4fa5405ca97f82"}], "txid": "77749e866a391771ace10e1b4cf8c7ec532ca235b3eaaeb58aafff9140855a07", "blocktime": 1537870928, "version": 1, "confirmations": 11512, "time": 1537870928, "locktime": 0, "vsize": 284, "size": 284}