{"hash": "77788aac8cd25d775dcf770595051f7dc1613c3de2b0e23a3d029957b8cc968f", "blockhash": "0000000000000000000baef3f32e3676a92c3b2e5da21b426e4f302fc371ce76", "vout": [{"scriptPubKey": {"reqSigs": 1, "hex": "a91473e48e5ed4b18cd19652223fdf5a22ff9b5c779a87", "addresses": ["3CFoRxoNrsMZWnFV2UG93jgcZuASkL9ePU"], "asm": "OP_HASH160 73e48e5ed4b18cd19652223fdf5a22ff9b5c779a OP_EQUAL", "type": "scripthash"}, "value": 0.01346634, "n": 0}, {"scriptPubKey": {"reqSigs": 1, "hex": "76a9146586ced214191eaee684bf8787713d2671eff5aa88ac", "addresses": ["1AFpjzWNNtmMamjbbSSNLiVdktzrYMspCQ"], "asm": "OP_DUP OP_HASH160 6586ced214191eaee684bf8787713d2671eff5aa OP_EQUALVERIFY OP_CHECKSIG", "type": "pubkeyhash"}, "value": 0.24756948, "n": 1}], "hex": "020000000171da638b1cd93b79e45b809f6ba8ded5423bf5306d955e1186ec798b5c101b41010000006a47304402204ac5c3940cbe298c2f9931e69552b5d0d5aa5c601141fd09c28a32c67a75e0af02207a32ed37f5f702f05556b64cdac14d47c9a01fec21d3c3386e8d71aefd1467b501210210dac65f236a05432a1dbd2f909aa1c6e1870304203e734e8d07db9b57443d46ffffffff024a8c14000000000017a91473e48e5ed4b18cd19652223fdf5a22ff9b5c779a87d4c27901000000001976a9146586ced214191eaee684bf8787713d2671eff5aa88ac00000000", "vin": [{"sequence": 4294967295, "scriptSig": {"hex": "47304402204ac5c3940cbe298c2f9931e69552b5d0d5aa5c601141fd09c28a32c67a75e0af02207a32ed37f5f702f05556b64cdac14d47c9a01fec21d3c3386e8d71aefd1467b501210210dac65f236a05432a1dbd2f909aa1c6e1870304203e734e8d07db9b57443d46", "asm": "304402204ac5c3940cbe298c2f9931e69552b5d0d5aa5c601141fd09c28a32c67a75e0af02207a32ed37f5f702f05556b64cdac14d47c9a01fec21d3c3386e8d71aefd1467b5[ALL] 0210dac65f236a05432a1dbd2f909aa1c6e1870304203e734e8d07db9b57443d46"}, "vout": 1, "txid": "411b105c8b79ec86115e956d30f53b42d5dea86b9f805be4793bd91c8b63da71"}], "txid": "77788aac8cd25d775dcf770595051f7dc1613c3de2b0e23a3d029957b8cc968f", "blocktime": 1537876114, "version": 2, "confirmations": 11460, "time": 1537876114, "locktime": 0, "vsize": 223, "size": 223}