{"hash": "777b27b612b6ae0fcfa98ee2ba4843039de2e912adb878b7e44a7e36dc8ca305", "blockhash": "0000000000000000001f0ddff1eddb255c1121bcd4da4f1bc9a0da00cae72433", "vout": [{"scriptPubKey": {"reqSigs": 1, "hex": "a9142fca5bf816826797b57a6800e75ef76163472e7a87", "addresses": ["363i6j8m85JrMZPBXpjPNcH1goSadUNpBi"], "asm": "OP_HASH160 2fca5bf816826797b57a6800e75ef76163472e7a OP_EQUAL", "type": "scripthash"}, "value": 0.00298889, "n": 0}], "hex": "0100000001f1efb39b4a2fdd910a523bfcd7d2826942d41bda7b2dabe3b63c23b6ff93a30f000000006b483045022100b0e229c41a96a59259af53165be15262ac80d83e26ad407a7380a7ce6b4317c30220724f91a7fb7f18521115d8fa551900af10228bdee418213bef04323087404ac3012102c8efb7507742f5915cf55ae5f6ae70c75f6df721da7cff2ffc71796e8089062effffffff01898f04000000000017a9142fca5bf816826797b57a6800e75ef76163472e7a8700000000", "vin": [{"sequence": 4294967295, "scriptSig": {"hex": "483045022100b0e229c41a96a59259af53165be15262ac80d83e26ad407a7380a7ce6b4317c30220724f91a7fb7f18521115d8fa551900af10228bdee418213bef04323087404ac3012102c8efb7507742f5915cf55ae5f6ae70c75f6df721da7cff2ffc71796e8089062e", "asm": "3045022100b0e229c41a96a59259af53165be15262ac80d83e26ad407a7380a7ce6b4317c30220724f91a7fb7f18521115d8fa551900af10228bdee418213bef04323087404ac3[ALL] 02c8efb7507742f5915cf55ae5f6ae70c75f6df721da7cff2ffc71796e8089062e"}, "vout": 0, "txid": "0fa393ffb6233cb6e3ab2d7bda1bd4426982d2d7fc3b520a91dd2f4a9bb3eff1"}], "txid": "777b27b612b6ae0fcfa98ee2ba4843039de2e912adb878b7e44a7e36dc8ca305", "blocktime": 1537872018, "version": 1, "confirmations": 11489, "time": 1537872018, "locktime": 0, "vsize": 190, "size": 190}