{"hash": "d1733b69951daef3225a0b4cfc6bf8b8715559e5e544a9d5a10421cc05a599ba", "blockhash": "0000000000000000000e13cef7c366c0283d82e591d1acd082e914b08063cdf1", "vout": [{"scriptPubKey": {"reqSigs": 1, "hex": "a914423c4c8c25da31d01ad8fc58236cb6f91a12b39587", "addresses": ["37jEkrTKWiSRT9EGGx2sNEtfMdG4sD5HJ7"], "asm": "OP_HASH160 423c4c8c25da31d01ad8fc58236cb6f91a12b395 OP_EQUAL", "type": "scripthash"}, "value": 0.17415796, "n": 0}, {"scriptPubKey": {"reqSigs": 1, "hex": "a914c5964d4fecf39e301c28a98dfcb3fbc8ec2f51b687", "addresses": ["3Khm6VykLxW6uzY8qPbKDYji3aMRjkmNgu"], "asm": "OP_HASH160 c5964d4fecf39e301c28a98dfcb3fbc8ec2f51b6 OP_EQUAL", "type": "scripthash"}, "value": 0.18777498, "n": 1}], "hex": "010000000001020c50af5eab78e9933bcfe14f158e04d95bec5bd1fec48ba8e98ce7d8ca887b380000000023220020d3bad9d4fcb7c402a963da8c16d5b7eee9718ea7bb36ea42aab133b993e16709ffffffff5f1128bee8c85773f9baf5251e50ce98d7d04f52355d919cbc985ce76f0199050100000023220020bd47e2ddd1bfc513ee188e5a3ce89ff1200d050bfb929e033f6bb08682d1431effffffff0274be09010000000017a914423c4c8c25da31d01ad8fc58236cb6f91a12b395879a851e010000000017a914c5964d4fecf39e301c28a98dfcb3fbc8ec2f51b687040048304502210099d452391282aae2e7e7a1c67587d3b438080183d26a9273ae0ca63c60714c5d02204049327e4eb83f346bcf32db0bf417df70c8c31a7618ed02b671d9561e77c5d40147304402202e0f2a1f050fc6be498be3b727751d8b1fc96b97b3543d0bc036ad2d0fdb233e02200eaee6aea8a12aacb7e7f01c043309578697cc2a9acebe033bc8118d78893a95016952210303fd90096a65780f5721acff10e80e501d718bbaa47d39488f5a044dc861a92621028271700a0c7b2a5a216065c5add153b8784875695974bb49e0a11e6c46efac562103d916d9be4d1e246abd63aaa28050a6ca59260ac58d1dab6ccc2edeee8ed56df053ae04004830450221009d087c8baa3b8172bb99e2cd8bfc250c842ccc80bdde480f35fe8c8184208b08022041ac0e877fb054b73a78fbf3812be2f56274aab33154e0894e29e7be2dd61c300147304402202c09677e475998fe1855bd7022d2987b49f60c3b39a25868a8b203055c8960b302202359f29655a219f48c64845c86001aefbf909a96db049409b27750e5a2a9ca330169522103653f8d3dedc83789314c97a6816a296889fbf171325845a2e34fb1be169379f521028e8bd2a7b7e51f7697ea349d90e147d5e67b5b88c671ab9edf313ab42328521521024f7248f65912442bf7b161f9720c88cc0965afdf14e596d413096c08c779861253ae00000000", "vin": [{"txinwitness": ["", "304502210099d452391282aae2e7e7a1c67587d3b438080183d26a9273ae0ca63c60714c5d02204049327e4eb83f346bcf32db0bf417df70c8c31a7618ed02b671d9561e77c5d401", "304402202e0f2a1f050fc6be498be3b727751d8b1fc96b97b3543d0bc036ad2d0fdb233e02200eaee6aea8a12aacb7e7f01c043309578697cc2a9acebe033bc8118d78893a9501", "52210303fd90096a65780f5721acff10e80e501d718bbaa47d39488f5a044dc861a92621028271700a0c7b2a5a216065c5add153b8784875695974bb49e0a11e6c46efac562103d916d9be4d1e246abd63aaa28050a6ca59260ac58d1dab6ccc2edeee8ed56df053ae"], "sequence": 4294967295, "scriptSig": {"hex": "220020d3bad9d4fcb7c402a963da8c16d5b7eee9718ea7bb36ea42aab133b993e16709", "asm": "0020d3bad9d4fcb7c402a963da8c16d5b7eee9718ea7bb36ea42aab133b993e16709"}, "vout": 0, "txid": "387b88cad8e78ce9a88bc4fed15bec5bd9048e154fe1cf3b93e978ab5eaf500c"}, {"txinwitness": ["", "30450221009d087c8baa3b8172bb99e2cd8bfc250c842ccc80bdde480f35fe8c8184208b08022041ac0e877fb054b73a78fbf3812be2f56274aab33154e0894e29e7be2dd61c3001", "304402202c09677e475998fe1855bd7022d2987b49f60c3b39a25868a8b203055c8960b302202359f29655a219f48c64845c86001aefbf909a96db049409b27750e5a2a9ca3301", "522103653f8d3dedc83789314c97a6816a296889fbf171325845a2e34fb1be169379f521028e8bd2a7b7e51f7697ea349d90e147d5e67b5b88c671ab9edf313ab42328521521024f7248f65912442bf7b161f9720c88cc0965afdf14e596d413096c08c779861253ae"], "sequence": 4294967295, "scriptSig": {"hex": "220020bd47e2ddd1bfc513ee188e5a3ce89ff1200d050bfb929e033f6bb08682d1431e", "asm": "0020bd47e2ddd1bfc513ee188e5a3ce89ff1200d050bfb929e033f6bb08682d1431e"}, "vout": 1, "txid": "0599016fe75c98bc9c915d35524fd0d798ce501e25f5baf97357c8e8be28115f"}], "txid": "777c6917d283aa325d6555f601620823b5d3455f15a0c9c496b4cb7e3e5d8e3f", "blocktime": 1537871767, "version": 1, "confirmations": 11495, "time": 1537871767, "locktime": 0, "vsize": 353, "size": 734}