{"hash": "777cda03bb7dba7d8859a5db000a1db59bff81c74fbf6099ed8962090ae5c32f", "blockhash": "0000000000000000000dcc0f55137456b1a82d3642486a52398922ac4d620174", "vout": [{"scriptPubKey": {"reqSigs": 1, "hex": "76a9140e3d1ec678c912739d7d70fd4ada666dc334089288ac", "addresses": ["12JHgPmyQrcczbEwQB9CMAeU6gQNKwHU7d"], "asm": "OP_DUP OP_HASH160 0e3d1ec678c912739d7d70fd4ada666dc3340892 OP_EQUALVERIFY OP_CHECKSIG", "type": "pubkeyhash"}, "value": 3.98, "n": 0}, {"scriptPubKey": {"reqSigs": 1, "hex": "76a9146e85251ea1a34477d27eb7af70dbc7e45e73762088ac", "addresses": ["1B5NqBKufe6pWCiFBUHfaLvtwAwgS6SWhd"], "asm": "OP_DUP OP_HASH160 6e85251ea1a34477d27eb7af70dbc7e45e737620 OP_EQUALVERIFY OP_CHECKSIG", "type": "pubkeyhash"}, "value": 2.92146, "n": 1}], "hex": "01000000034eee5ab25bdf14774aada027ad339a7aa5218bb34978aa578512eb76530c5895010000006b483045022100feeaa6b92fbed6db1afecc3a04ebfba538b5f09795d71d5611d1738ec31cc21d02204573c2f78ae01a3b437abb8de0e37cf609dc9f8e4744554cbdf316a493cb05860121025ad5834be936a3eeffc66441ed0ec77b14798a3ad190144579305080bfaa5417ffffffffeabc5a58ff63243c821d48e0253e5db9b72e0e64fe1daab20ffce306073b1159010000006a47304402200d09ebb79e26d05b9f878b3dfa922554fce58fd84d5a62404a44aa447888acd002203ea1c9412de54d0af511bd7cabe046c6940ccc6800bf6dcc3c9b36e1d11daef10121037bc9fca784153eafd1a33b581573005d4e0c2e0d37fe39e10d65557e664509ddffffffff2a81edc3c219722e57328c4d9ac9912b27db0bd1c1609181a1817a0f6cd23d7a000000006b483045022100d924b3e350e0065810a4e48625c4463b9288ae03f25e03c1b04e4d6842ffd1cc0220417661b1bbf1e16a3d7c061c9f31115c46fe146255f659fe0f660864733d056501210279d890fa9df7fb2421a93d586fa4d8f0296452793d1a69314892156ddf554ac1ffffffff0280ffb817000000001976a9140e3d1ec678c912739d7d70fd4ada666dc334089288ac50cb6911000000001976a9146e85251ea1a34477d27eb7af70dbc7e45e73762088ac00000000", "vin": [{"sequence": 4294967295, "scriptSig": {"hex": "483045022100feeaa6b92fbed6db1afecc3a04ebfba538b5f09795d71d5611d1738ec31cc21d02204573c2f78ae01a3b437abb8de0e37cf609dc9f8e4744554cbdf316a493cb05860121025ad5834be936a3eeffc66441ed0ec77b14798a3ad190144579305080bfaa5417", "asm": "3045022100feeaa6b92fbed6db1afecc3a04ebfba538b5f09795d71d5611d1738ec31cc21d02204573c2f78ae01a3b437abb8de0e37cf609dc9f8e4744554cbdf316a493cb0586[ALL] 025ad5834be936a3eeffc66441ed0ec77b14798a3ad190144579305080bfaa5417"}, "vout": 1, "txid": "95580c5376eb128557aa7849b38b21a57a9a33ad27a0ad4a7714df5bb25aee4e"}, {"sequence": 4294967295, "scriptSig": {"hex": "47304402200d09ebb79e26d05b9f878b3dfa922554fce58fd84d5a62404a44aa447888acd002203ea1c9412de54d0af511bd7cabe046c6940ccc6800bf6dcc3c9b36e1d11daef10121037bc9fca784153eafd1a33b581573005d4e0c2e0d37fe39e10d65557e664509dd", "asm": "304402200d09ebb79e26d05b9f878b3dfa922554fce58fd84d5a62404a44aa447888acd002203ea1c9412de54d0af511bd7cabe046c6940ccc6800bf6dcc3c9b36e1d11daef1[ALL] 037bc9fca784153eafd1a33b581573005d4e0c2e0d37fe39e10d65557e664509dd"}, "vout": 1, "txid": "59113b0706e3fc0fb2aa1dfe640e2eb7b95d3e25e0481d823c2463ff585abcea"}, {"sequence": 4294967295, "scriptSig": {"hex": "483045022100d924b3e350e0065810a4e48625c4463b9288ae03f25e03c1b04e4d6842ffd1cc0220417661b1bbf1e16a3d7c061c9f31115c46fe146255f659fe0f660864733d056501210279d890fa9df7fb2421a93d586fa4d8f0296452793d1a69314892156ddf554ac1", "asm": "3045022100d924b3e350e0065810a4e48625c4463b9288ae03f25e03c1b04e4d6842ffd1cc0220417661b1bbf1e16a3d7c061c9f31115c46fe146255f659fe0f660864733d0565[ALL] 0279d890fa9df7fb2421a93d586fa4d8f0296452793d1a69314892156ddf554ac1"}, "vout": 0, "txid": "7a3dd26c0f7a81a1819160c1d10bdb272b91c99a4d8c32572e7219c2c3ed812a"}], "txid": "777cda03bb7dba7d8859a5db000a1db59bff81c74fbf6099ed8962090ae5c32f", "blocktime": 1537870268, "version": 1, "confirmations": 11516, "time": 1537870268, "locktime": 0, "vsize": 521, "size": 521}