{"hash": "777c50df9bacdd53e15c3d13eb38923c77e414145db64e981b307daeb1b40069", "blockhash": "0000000000000000001cda96e906b7601b7a6fb1a3b62bca570a9e5d8f4b3de1", "vout": [{"scriptPubKey": {"reqSigs": 1, "hex": "76a9141c177754aa37adcd492c01b7ab4703bd331934ee88ac", "addresses": ["13ZY2pxpoY1pFh2CtZb8CfEvuPATKLccig"], "asm": "OP_DUP OP_HASH160 1c177754aa37adcd492c01b7ab4703bd331934ee OP_EQUALVERIFY OP_CHECKSIG", "type": "pubkeyhash"}, "value": 0.17370471, "n": 0}, {"scriptPubKey": {"reqSigs": 1, "hex": "76a9145907bea5e4fdd7d44f465757c1362576864201b688ac", "addresses": ["197kRBki5YuogXj1pTcWVTyqvhuWMBotjP"], "asm": "OP_DUP OP_HASH160 5907bea5e4fdd7d44f465757c1362576864201b6 OP_EQUALVERIFY OP_CHECKSIG", "type": "pubkeyhash"}, "value": 0.31225897, "n": 1}], "hex": "01000000028852da39b3a2b7da0854492b0bb193a37ab7f22adc094302aa578f56437a5006010000006b483045022100c467555aed404c0ff0d9077ddddd182a87c17c5e4c96b3fcf3ef6c9d934b0979022074bc32162387be70ee55e3c7ce527cbb02bd63b87f44d0e0b0f5bd2ad1c9c1dd01210356d18fc5af61dccf87ca7686f1f8ab481402d62c0a59785590b6aea6eabd24c8ffffffff2913265723de12e3a13fb345458fa0c1ff827e2c7e3a7517b3580ae81c385163000000006b4830450221008b644b397aa633f26ae62ed743a32f99c41929ca3030be13628e9215fa451c1f02207113335d60672efc2787aeb0e4ee09aaf74026a0fa4db53c893d85c5542102670121038b81fdd9fd110e4e9439a44ed9fda5d3c0eab45e9220ad09fc9a43b8cd5fb9b2ffffffff02670d0901000000001976a9141c177754aa37adcd492c01b7ab4703bd331934ee88ac2978dc01000000001976a9145907bea5e4fdd7d44f465757c1362576864201b688ac00000000", "vin": [{"sequence": 4294967295, "scriptSig": {"hex": "483045022100c467555aed404c0ff0d9077ddddd182a87c17c5e4c96b3fcf3ef6c9d934b0979022074bc32162387be70ee55e3c7ce527cbb02bd63b87f44d0e0b0f5bd2ad1c9c1dd01210356d18fc5af61dccf87ca7686f1f8ab481402d62c0a59785590b6aea6eabd24c8", "asm": "3045022100c467555aed404c0ff0d9077ddddd182a87c17c5e4c96b3fcf3ef6c9d934b0979022074bc32162387be70ee55e3c7ce527cbb02bd63b87f44d0e0b0f5bd2ad1c9c1dd[ALL] 0356d18fc5af61dccf87ca7686f1f8ab481402d62c0a59785590b6aea6eabd24c8"}, "vout": 1, "txid": "06507a43568f57aa024309dc2af2b77aa393b10b2b495408dab7a2b339da5288"}, {"sequence": 4294967295, "scriptSig": {"hex": "4830450221008b644b397aa633f26ae62ed743a32f99c41929ca3030be13628e9215fa451c1f02207113335d60672efc2787aeb0e4ee09aaf74026a0fa4db53c893d85c5542102670121038b81fdd9fd110e4e9439a44ed9fda5d3c0eab45e9220ad09fc9a43b8cd5fb9b2", "asm": "30450221008b644b397aa633f26ae62ed743a32f99c41929ca3030be13628e9215fa451c1f02207113335d60672efc2787aeb0e4ee09aaf74026a0fa4db53c893d85c554210267[ALL] 038b81fdd9fd110e4e9439a44ed9fda5d3c0eab45e9220ad09fc9a43b8cd5fb9b2"}, "vout": 0, "txid": "6351381ce80a58b317753a7e2c7e82ffc1a08f4545b33fa1e312de2357261329"}], "txid": "777c50df9bacdd53e15c3d13eb38923c77e414145db64e981b307daeb1b40069", "blocktime": 1537873282, "version": 1, "confirmations": 11484, "time": 1537873282, "locktime": 0, "vsize": 374, "size": 374}