{"hash": "777ff8c16df500ec0c0bbb7b4bb5552aa1193980ad6020e1cf8617bb9182b854", "blockhash": "0000000000000000000e13cef7c366c0283d82e591d1acd082e914b08063cdf1", "vout": [{"scriptPubKey": {"reqSigs": 1, "hex": "76a91455601645c2a96c4ba37c888e201b60c999d7067088ac", "addresses": ["18nRYYksYAKUVyC1HwzCjkFTja4RxrkBL4"], "asm": "OP_DUP OP_HASH160 55601645c2a96c4ba37c888e201b60c999d70670 OP_EQUALVERIFY OP_CHECKSIG", "type": "pubkeyhash"}, "value": 0.0008379, "n": 0}, {"scriptPubKey": {"reqSigs": 1, "hex": "76a914821ffc30f1a3b1a7cc710540919aa13c3ade80d088ac", "addresses": ["1Cs3AJatysp1eim1iVzrTvwHiJRX5L7o7R"], "asm": "OP_DUP OP_HASH160 821ffc30f1a3b1a7cc710540919aa13c3ade80d0 OP_EQUALVERIFY OP_CHECKSIG", "type": "pubkeyhash"}, "value": 0.01839997, "n": 1}], "hex": "01000000018cb70595522075dbfbfe4bf8fdb0fd34398e54d2cd704568a731efed18193a4a010000006b483045022100b24bdc561c1fd98c6e1d6a1c44d07b31bcf7f612da9714250487b39642319ef20220206ee535d35aa92292cb999fa32f5e0d5ae46df8791ba8bdf8bd6eaf81bba86c01210271e21d17920f6a1d5aa16037869f8f7911c8dd721e0caa9af4acc35a7bb2fce2fdffffff024e470100000000001976a91455601645c2a96c4ba37c888e201b60c999d7067088ac7d131c00000000001976a914821ffc30f1a3b1a7cc710540919aa13c3ade80d088ac10490800", "vin": [{"sequence": 4294967293, "scriptSig": {"hex": "483045022100b24bdc561c1fd98c6e1d6a1c44d07b31bcf7f612da9714250487b39642319ef20220206ee535d35aa92292cb999fa32f5e0d5ae46df8791ba8bdf8bd6eaf81bba86c01210271e21d17920f6a1d5aa16037869f8f7911c8dd721e0caa9af4acc35a7bb2fce2", "asm": "3045022100b24bdc561c1fd98c6e1d6a1c44d07b31bcf7f612da9714250487b39642319ef20220206ee535d35aa92292cb999fa32f5e0d5ae46df8791ba8bdf8bd6eaf81bba86c[ALL] 0271e21d17920f6a1d5aa16037869f8f7911c8dd721e0caa9af4acc35a7bb2fce2"}, "vout": 1, "txid": "4a3a1918edef31a7684570cdd2548e3934fdb0fdf84bfefbdb7520529505b78c"}], "txid": "777ff8c16df500ec0c0bbb7b4bb5552aa1193980ad6020e1cf8617bb9182b854", "blocktime": 1537871767, "version": 1, "confirmations": 11493, "time": 1537871767, "locktime": 542992, "vsize": 226, "size": 226}