{"hash": "7780721f9f7406d8b79a5590ed42e371b5fb610c25f88f5800e2b9fad1992601", "blockhash": "0000000000000000001cda96e906b7601b7a6fb1a3b62bca570a9e5d8f4b3de1", "vout": [{"scriptPubKey": {"reqSigs": 1, "hex": "76a9149b7be90810cf0491743733694be2ec79da15e5d288ac", "addresses": ["1FB8BAum3M52Q1F6TKjdwJGsofDtsu4Lxo"], "asm": "OP_DUP OP_HASH160 9b7be90810cf0491743733694be2ec79da15e5d2 OP_EQUALVERIFY OP_CHECKSIG", "type": "pubkeyhash"}, "value": 0.03262034, "n": 0}, {"scriptPubKey": {"reqSigs": 1, "hex": "76a914848e9d0e5de48d21b259b2944c7b3b55dfe7af5788ac", "addresses": ["1D5u3HKSYNTnAHa1K3DTQGiuakE9xj2aLh"], "asm": "OP_DUP OP_HASH160 848e9d0e5de48d21b259b2944c7b3b55dfe7af57 OP_EQUALVERIFY OP_CHECKSIG", "type": "pubkeyhash"}, "value": 0.06125199, "n": 1}], "hex": "0200000001d24a43e700ec91ef97ed876039b6364c099033e435ab384d6a7fca61f75494f6050000006b483045022100857894d15dc017a616c28018406c9f4c8b21c99ca6542a01464d02a98143cd0b02202a4e4e324b924560a48426e112029b904a7e4305f699b878cba8fa8cd578e4d9012103328f354d1c248a5963b5cd3cfff6ad3cb55aedf1994d8d0b59e7d598540f38a0feffffff0252c63100000000001976a9149b7be90810cf0491743733694be2ec79da15e5d288ac8f765d00000000001976a914848e9d0e5de48d21b259b2944c7b3b55dfe7af5788ac13490800", "vin": [{"sequence": 4294967294, "scriptSig": {"hex": "483045022100857894d15dc017a616c28018406c9f4c8b21c99ca6542a01464d02a98143cd0b02202a4e4e324b924560a48426e112029b904a7e4305f699b878cba8fa8cd578e4d9012103328f354d1c248a5963b5cd3cfff6ad3cb55aedf1994d8d0b59e7d598540f38a0", "asm": "3045022100857894d15dc017a616c28018406c9f4c8b21c99ca6542a01464d02a98143cd0b02202a4e4e324b924560a48426e112029b904a7e4305f699b878cba8fa8cd578e4d9[ALL] 03328f354d1c248a5963b5cd3cfff6ad3cb55aedf1994d8d0b59e7d598540f38a0"}, "vout": 5, "txid": "f69454f761ca7f6a4d38ab35e43390094c36b6396087ed97ef91ec00e7434ad2"}], "txid": "7780721f9f7406d8b79a5590ed42e371b5fb610c25f88f5800e2b9fad1992601", "blocktime": 1537873282, "version": 2, "confirmations": 11485, "time": 1537873282, "locktime": 542995, "vsize": 226, "size": 226}