{"hash": "e9e4382463095f87293575446931aa0abcc18bbcfd51b6d871569fa45e574620", "blockhash": "0000000000000000001cda96e906b7601b7a6fb1a3b62bca570a9e5d8f4b3de1", "vout": [{"scriptPubKey": {"reqSigs": 1, "hex": "a91402d4f8ac1f10bf3badc87c496eae9536826b2b3787", "addresses": ["31wzQSMtqokYk1oGkJzVHyD6fhLkapHtS9"], "asm": "OP_HASH160 02d4f8ac1f10bf3badc87c496eae9536826b2b37 OP_EQUAL", "type": "scripthash"}, "value": 0.10121237, "n": 0}, {"scriptPubKey": {"reqSigs": 1, "hex": "a9142572f31da80f55a91b74babb88108ff4b27b187187", "addresses": ["3572dV4eGMZ2b2HMBFuPiEpV9rM1H8zx5k"], "asm": "OP_HASH160 2572f31da80f55a91b74babb88108ff4b27b1871 OP_EQUAL", "type": "scripthash"}, "value": 0.03154709, "n": 1}], "hex": "01000000000104a2c26c24f519d115405146228a940625b6155e9040a13dececdfbb05e40dd8cc000000002322002006ba40b8fb5b4aef0ec6c0766440fbd2df4885fc371d91e851a2168259028b25ffffffff5ef122887005d1e369e8e1f9abf84bd5aff4950d1475e7b25008918dc96f3a9c010000002322002062745202c8628050c8be7cb6dfd3e018e002e4cbabe5e0f470f05c83016c01b1ffffffff46aec264db580b763a2e5aad0826a7017db652b5ccb30ab7a5b0e6c9f11fdb430000000023220020e041e88d2e820953a99310aedaba5934b405646c6ed4c3d8c051d1863e230144ffffffffa4245a48d29012cad38c7dd1fa7bc20c6d15cea028669a0bb8cb74175b1ef1830000000023220020f29563f043fca43e9683f8d5b91687e1149862165003c86143c7e4c9160f83e6ffffffff0215709a000000000017a91402d4f8ac1f10bf3badc87c496eae9536826b2b3787152330000000000017a9142572f31da80f55a91b74babb88108ff4b27b1871870400473044022010d43d2393667fa180878e165ac75a7c0b22f475b5b3bd7893716c7add8e3b0c022052c8b76de21cc093486733669e8ae51b6afce39355675a78481ad944c80e81b601483045022100adf32ac99f697cacc814432e79cb8d7f22b7ad7b988e030a308e58e564dbc4330220729cd73f63da54b1d17e581804b6a3f646ccb57ca4b8e32d77458e156b13c1f90169522103f00bc7e9d5ecea7e7c6cd339e795cb0cf95fbe05b217e28813ee1ec025e0fc8721024a47977929f724fa2fd314ed704de2b17b853cca4d30ea71240137735e5e5ed721026fbf8ec5a8f3e552b0abf5ebbaee28da5d498ee2d49cda4d671b87bb13a9aa7b53ae040047304402202c85e2a212a1a44b04ff444b9ed899459eecfdd6caf05bddf88ec11d4ef04114022015874821b8ed866a0c2a26850012bddf9b1202ff2db759aa0998aba56e0997e501483045022100bd48600d0d863da4ab71b9f82c888139bf151fbdc8bb360744337c5d5d5970b9022003b2fbf7309b7036002a79d9713abbc95ace81c1a8ad71f96fbfdf662e3b9ed60169522103c6e9626d37416b0070a5773fd679969ae80f45cf0c9ba95758c37c5b1a2609e121022c384d3b5fe9cec3e618e533fb12e5c9d3dd867caef5b99a245deae4eb0231292103d1fda0af31fbc88a454610cfeec6c71f3b07c7d5f32a2acec3fb9f6c4ebf9a8253ae0400483045022100b78b38a186e93ac9b7d02c801ebdddb39927bc172f0e787a2e9f8a98fc23b992022039c3cd519aaf0cb34aa893cccd17d7465d94ea679a5a4898e520d7e2a4e0f25f01483045022100c9922386447619ca41eb30abd2959115e6cb8af9c0567ddc429e8c5cd9e2497602202bd6bf9150ba916a64a64b7e6c615fa8385d9e1efa9b1b13dde9c692c910620101695221031b9ef406613160f03ed58e5eaf9f7ab57b1eb0dbbf8e046612b4d7a1fb3e67e72103532ee6d1721ca0eb0098870b51c9930698800fe21d0705afff9ba00af9de53fa21021db3e21c10d06ab7af900779e763f31e964aa801948aa380358133664031bfbd53ae04004830450221008abcbf16cdfa7c91e82e47c601e717c8db53cbbf267eb253aa2107628432b46002203081a49a6cc676f1d09844b55b75213c156b8b1e3a1a2104f2bc5fcac08848610147304402203e00df57f35d7d051bc0fcbe48be9ae5b88da4897d51dc7ac52839599352acaa022042ae3d8fb4d96c436222b543a43fb5043b57ddf05d1cb290600f7e564c4c5d100169522103a83ab8bed55249bba86eaf9acebaaec36213bdaf3f603005c17c0703bd2955ba21024b97156d9c83b969df7ad0c5d54c09948b1374de78efd691e8b797b585f6a2652102d6a1b20702be33ce28e0bb1a6e442c55d38f8ff57aa4cfda012473cf73cf378853ae00000000", "vin": [{"txinwitness": ["", "3044022010d43d2393667fa180878e165ac75a7c0b22f475b5b3bd7893716c7add8e3b0c022052c8b76de21cc093486733669e8ae51b6afce39355675a78481ad944c80e81b601", "3045022100adf32ac99f697cacc814432e79cb8d7f22b7ad7b988e030a308e58e564dbc4330220729cd73f63da54b1d17e581804b6a3f646ccb57ca4b8e32d77458e156b13c1f901", "522103f00bc7e9d5ecea7e7c6cd339e795cb0cf95fbe05b217e28813ee1ec025e0fc8721024a47977929f724fa2fd314ed704de2b17b853cca4d30ea71240137735e5e5ed721026fbf8ec5a8f3e552b0abf5ebbaee28da5d498ee2d49cda4d671b87bb13a9aa7b53ae"], "sequence": 4294967295, "scriptSig": {"hex": "22002006ba40b8fb5b4aef0ec6c0766440fbd2df4885fc371d91e851a2168259028b25", "asm": "002006ba40b8fb5b4aef0ec6c0766440fbd2df4885fc371d91e851a2168259028b25"}, "vout": 0, "txid": "ccd80de405bbdfecec3da140905e15b62506948a2246514015d119f5246cc2a2"}, {"txinwitness": ["", "304402202c85e2a212a1a44b04ff444b9ed899459eecfdd6caf05bddf88ec11d4ef04114022015874821b8ed866a0c2a26850012bddf9b1202ff2db759aa0998aba56e0997e501", "3045022100bd48600d0d863da4ab71b9f82c888139bf151fbdc8bb360744337c5d5d5970b9022003b2fbf7309b7036002a79d9713abbc95ace81c1a8ad71f96fbfdf662e3b9ed601", "522103c6e9626d37416b0070a5773fd679969ae80f45cf0c9ba95758c37c5b1a2609e121022c384d3b5fe9cec3e618e533fb12e5c9d3dd867caef5b99a245deae4eb0231292103d1fda0af31fbc88a454610cfeec6c71f3b07c7d5f32a2acec3fb9f6c4ebf9a8253ae"], "sequence": 4294967295, "scriptSig": {"hex": "22002062745202c8628050c8be7cb6dfd3e018e002e4cbabe5e0f470f05c83016c01b1", "asm": "002062745202c8628050c8be7cb6dfd3e018e002e4cbabe5e0f470f05c83016c01b1"}, "vout": 1, "txid": "9c3a6fc98d910850b2e775140d95f4afd54bf8abf9e1e869e3d105708822f15e"}, {"txinwitness": ["", "3045022100b78b38a186e93ac9b7d02c801ebdddb39927bc172f0e787a2e9f8a98fc23b992022039c3cd519aaf0cb34aa893cccd17d7465d94ea679a5a4898e520d7e2a4e0f25f01", "3045022100c9922386447619ca41eb30abd2959115e6cb8af9c0567ddc429e8c5cd9e2497602202bd6bf9150ba916a64a64b7e6c615fa8385d9e1efa9b1b13dde9c692c910620101", "5221031b9ef406613160f03ed58e5eaf9f7ab57b1eb0dbbf8e046612b4d7a1fb3e67e72103532ee6d1721ca0eb0098870b51c9930698800fe21d0705afff9ba00af9de53fa21021db3e21c10d06ab7af900779e763f31e964aa801948aa380358133664031bfbd53ae"], "sequence": 4294967295, "scriptSig": {"hex": "220020e041e88d2e820953a99310aedaba5934b405646c6ed4c3d8c051d1863e230144", "asm": "0020e041e88d2e820953a99310aedaba5934b405646c6ed4c3d8c051d1863e230144"}, "vout": 0, "txid": "43db1ff1c9e6b0a5b70ab3ccb552b67d01a72608ad5a2e3a760b58db64c2ae46"}, {"txinwitness": ["", "30450221008abcbf16cdfa7c91e82e47c601e717c8db53cbbf267eb253aa2107628432b46002203081a49a6cc676f1d09844b55b75213c156b8b1e3a1a2104f2bc5fcac088486101", "304402203e00df57f35d7d051bc0fcbe48be9ae5b88da4897d51dc7ac52839599352acaa022042ae3d8fb4d96c436222b543a43fb5043b57ddf05d1cb290600f7e564c4c5d1001", "522103a83ab8bed55249bba86eaf9acebaaec36213bdaf3f603005c17c0703bd2955ba21024b97156d9c83b969df7ad0c5d54c09948b1374de78efd691e8b797b585f6a2652102d6a1b20702be33ce28e0bb1a6e442c55d38f8ff57aa4cfda012473cf73cf378853ae"], "sequence": 4294967295, "scriptSig": {"hex": "220020f29563f043fca43e9683f8d5b91687e1149862165003c86143c7e4c9160f83e6", "asm": "0020f29563f043fca43e9683f8d5b91687e1149862165003c86143c7e4c9160f83e6"}, "vout": 0, "txid": "83f11e5b1774cbb80b9a6628a0ce156d0cc27bfad17d8cd3ca1290d2485a24a4"}], "txid": "77885261d3dd209313f595cf7a1263e60a347ffeed691a89b096948671a9604d", "blocktime": 1537873282, "version": 1, "confirmations": 11484, "time": 1537873282, "locktime": 0, "vsize": 632, "size": 1393}