{"hash": "779c2ce3a330f5e2af62b3f9aeb6c4b920ad1b20f05838a589375f7e594cad6d", "blockhash": "0000000000000000001cda96e906b7601b7a6fb1a3b62bca570a9e5d8f4b3de1", "vout": [{"scriptPubKey": {"reqSigs": 1, "hex": "76a914266cb5783d2557106116963af5a653f3790985ae88ac", "addresses": ["14WAuWp2UXVdJ1aiiYkPcV4Rp1AHWXBcki"], "asm": "OP_DUP OP_HASH160 266cb5783d2557106116963af5a653f3790985ae OP_EQUALVERIFY OP_CHECKSIG", "type": "pubkeyhash"}, "value": 0.01529822, "n": 0}, {"scriptPubKey": {"reqSigs": 1, "hex": "76a91442c098cbbfb65d9f69487508535f7af44ce8fa8288ac", "addresses": ["175xKXTfcLiXgX7XqxLCaskBzW4Qs3nWAM"], "asm": "OP_DUP OP_HASH160 42c098cbbfb65d9f69487508535f7af44ce8fa82 OP_EQUALVERIFY OP_CHECKSIG", "type": "pubkeyhash"}, "value": 0.41426696, "n": 1}], "hex": "0200000001ed3bf13acd766e84127ec07d6f7cd6c8544d8ce4161f201369c06df4fd3672a8010000006a473044022071df11054cf3a09d31b07ea62279408e76645c2187dc0c8285c6813065204af302202fd4c2fffb0b5d022fee4bad6051a478216b200408751c0636c95dbffcc0fb9c012102b8e1087c8ac0fa7a1b6ae0f6bec802651a26a5a7104a7ccedd28ce7520a17e92ffffffff02de571700000000001976a914266cb5783d2557106116963af5a653f3790985ae88ac081f7802000000001976a91442c098cbbfb65d9f69487508535f7af44ce8fa8288ac00000000", "vin": [{"sequence": 4294967295, "scriptSig": {"hex": "473044022071df11054cf3a09d31b07ea62279408e76645c2187dc0c8285c6813065204af302202fd4c2fffb0b5d022fee4bad6051a478216b200408751c0636c95dbffcc0fb9c012102b8e1087c8ac0fa7a1b6ae0f6bec802651a26a5a7104a7ccedd28ce7520a17e92", "asm": "3044022071df11054cf3a09d31b07ea62279408e76645c2187dc0c8285c6813065204af302202fd4c2fffb0b5d022fee4bad6051a478216b200408751c0636c95dbffcc0fb9c[ALL] 02b8e1087c8ac0fa7a1b6ae0f6bec802651a26a5a7104a7ccedd28ce7520a17e92"}, "vout": 1, "txid": "a87236fdf46dc06913201f16e48c4d54c8d67c6f7dc07e12846e76cd3af13bed"}], "txid": "779c2ce3a330f5e2af62b3f9aeb6c4b920ad1b20f05838a589375f7e594cad6d", "blocktime": 1537873282, "version": 2, "confirmations": 11481, "time": 1537873282, "locktime": 0, "vsize": 225, "size": 225}