{"hash": "77a187a52e80421fe457b51599e0d26301b9e34f87ab7ca4b720e4c2f70cbbae", "blockhash": "0000000000000000001f76057863aec43deb6fa401d9628bb513d65a8098bfab", "vout": [{"scriptPubKey": {"reqSigs": 1, "hex": "76a914382ce655e1cdd01af2d9e46573e9fbd0bb749d3688ac", "addresses": ["1682dS3BbTDCgAgnRYMNhDwEGYjRpaS3h3"], "asm": "OP_DUP OP_HASH160 382ce655e1cdd01af2d9e46573e9fbd0bb749d36 OP_EQUALVERIFY OP_CHECKSIG", "type": "pubkeyhash"}, "value": 0.01211908, "n": 0}, {"scriptPubKey": {"type": "nulldata", "hex": "6a146f6d6e69000000000000001f0000000a4a867a00", "asm": "OP_RETURN 6f6d6e69000000000000001f0000000a4a867a00"}, "value": 0.0, "n": 1}, {"scriptPubKey": {"reqSigs": 1, "hex": "76a914e559371d1ceae4cc1718e17df9c009fd0b7c85cf88ac", "addresses": ["1MugciXnLcsvarNDQUHZTYSJnZmvzSGGzD"], "asm": "OP_DUP OP_HASH160 e559371d1ceae4cc1718e17df9c009fd0b7c85cf OP_EQUALVERIFY OP_CHECKSIG", "type": "pubkeyhash"}, "value": 5.46e-06, "n": 2}], "hex": "01000000031453a216594e6cd8c7f9158106d66e0fcc8ffe4386e6d9202ebdba23526b3427020000006b4830450221009ced09d5faed13e336353db3b64c3d4d4e3edc08346f1e145d5819a752e7e8dd02205ad0abfbb60de1a96fbaed59f77e86525f9d38571377b116db71dd8d88e0977c01210237a372db0a2dfdf113f8e3b7c6aaa8f31063eed0ca03bac784ee3bfe2aa6f4b9ffffffff9a86b59bda33e70859b2856304a60a7bbe2a78c70b876a73143b7e03242f41a1010000006a47304402204f34d857041321026957f6cd86ad3e3a8750905bd9be59aae23804ca4e5b9d17022016a9c49aacf286c62b2db059a71aee683305c0107193a8ea91ed9975680352cd01210237a372db0a2dfdf113f8e3b7c6aaa8f31063eed0ca03bac784ee3bfe2aa6f4b9ffffffff8f4e252ac98bba518db06176127bd70f17757ef75dc0e187b457b7b6b9eaddea000000006b483045022100ad65b7ce09c8b431a19987bd8d139da5a59d077aaeaf50119feffd6a4754ffaf022034ab78906d8d6dce863766a8f76e5c50879e557fb9d35d78ca05435d388baf6f0121039000d0616967dd25f800d8a8f45648c89fb366c2caeefd348010ea3a8f9a69ffffffffff03047e1200000000001976a914382ce655e1cdd01af2d9e46573e9fbd0bb749d3688ac0000000000000000166a146f6d6e69000000000000001f0000000a4a867a0022020000000000001976a914e559371d1ceae4cc1718e17df9c009fd0b7c85cf88ac00000000", "vin": [{"sequence": 4294967295, "scriptSig": {"hex": "4830450221009ced09d5faed13e336353db3b64c3d4d4e3edc08346f1e145d5819a752e7e8dd02205ad0abfbb60de1a96fbaed59f77e86525f9d38571377b116db71dd8d88e0977c01210237a372db0a2dfdf113f8e3b7c6aaa8f31063eed0ca03bac784ee3bfe2aa6f4b9", "asm": "30450221009ced09d5faed13e336353db3b64c3d4d4e3edc08346f1e145d5819a752e7e8dd02205ad0abfbb60de1a96fbaed59f77e86525f9d38571377b116db71dd8d88e0977c[ALL] 0237a372db0a2dfdf113f8e3b7c6aaa8f31063eed0ca03bac784ee3bfe2aa6f4b9"}, "vout": 2, "txid": "27346b5223babd2e20d9e68643fe8fcc0f6ed6068115f9c7d86c4e5916a25314"}, {"sequence": 4294967295, "scriptSig": {"hex": "47304402204f34d857041321026957f6cd86ad3e3a8750905bd9be59aae23804ca4e5b9d17022016a9c49aacf286c62b2db059a71aee683305c0107193a8ea91ed9975680352cd01210237a372db0a2dfdf113f8e3b7c6aaa8f31063eed0ca03bac784ee3bfe2aa6f4b9", "asm": "304402204f34d857041321026957f6cd86ad3e3a8750905bd9be59aae23804ca4e5b9d17022016a9c49aacf286c62b2db059a71aee683305c0107193a8ea91ed9975680352cd[ALL] 0237a372db0a2dfdf113f8e3b7c6aaa8f31063eed0ca03bac784ee3bfe2aa6f4b9"}, "vout": 1, "txid": "a1412f24037e3b14736a870bc7782abe7b0aa6046385b25908e733da9bb5869a"}, {"sequence": 4294967295, "scriptSig": {"hex": "483045022100ad65b7ce09c8b431a19987bd8d139da5a59d077aaeaf50119feffd6a4754ffaf022034ab78906d8d6dce863766a8f76e5c50879e557fb9d35d78ca05435d388baf6f0121039000d0616967dd25f800d8a8f45648c89fb366c2caeefd348010ea3a8f9a69ff", "asm": "3045022100ad65b7ce09c8b431a19987bd8d139da5a59d077aaeaf50119feffd6a4754ffaf022034ab78906d8d6dce863766a8f76e5c50879e557fb9d35d78ca05435d388baf6f[ALL] 039000d0616967dd25f800d8a8f45648c89fb366c2caeefd348010ea3a8f9a69ff"}, "vout": 0, "txid": "eaddeab9b6b757b487e1c05df77e75170fd77b127661b08d51ba8bc92a254e8f"}], "txid": "77a187a52e80421fe457b51599e0d26301b9e34f87ab7ca4b720e4c2f70cbbae", "blocktime": 1537873891, "version": 1, "confirmations": 11477, "time": 1537873891, "locktime": 0, "vsize": 552, "size": 552}