{"hash": "f9d183a5ce39ed7d49addf03c3bf1db4852b8f4e924fdfa48af17f0d8cfe38b9", "blockhash": "0000000000000000001cda96e906b7601b7a6fb1a3b62bca570a9e5d8f4b3de1", "vout": [{"scriptPubKey": {"reqSigs": 1, "hex": "a9148a350d142491f349d6de214811754805aa74c01e87", "addresses": ["3EHnj53nJTyKhziRUwtPkgmMbqr3L8wisv"], "asm": "OP_HASH160 8a350d142491f349d6de214811754805aa74c01e OP_EQUAL", "type": "scripthash"}, "value": 0.414651, "n": 0}, {"scriptPubKey": {"reqSigs": 1, "hex": "76a91498c5c369a9d82472287209cd22088fd97fdbb8d888ac", "addresses": ["1EvnczjPHB8EywQbnvjpGUs2ZC22vsqT66"], "asm": "OP_DUP OP_HASH160 98c5c369a9d82472287209cd22088fd97fdbb8d8 OP_EQUALVERIFY OP_CHECKSIG", "type": "pubkeyhash"}, "value": 0.00801426, "n": 1}, {"scriptPubKey": {"reqSigs": 1, "hex": "76a9149ce66f4d655c0acf7e51cae96190c1e8a71f28b388ac", "addresses": ["1FJcTpEapi1TukT5NtwR4oXjKTj1b5TCqW"], "asm": "OP_DUP OP_HASH160 9ce66f4d655c0acf7e51cae96190c1e8a71f28b3 OP_EQUALVERIFY OP_CHECKSIG", "type": "pubkeyhash"}, "value": 0.06423472, "n": 2}], "hex": "0200000000010123d3daba8462ddb4725fba1dcdd23037ba06689ee72fd6a710fc14e61d0d6c9400000000171600149bd3835d250694982d455422bd6ff784ce2faa18feffffff030cb578020000000017a9148a350d142491f349d6de214811754805aa74c01e87923a0c00000000001976a91498c5c369a9d82472287209cd22088fd97fdbb8d888acb0036200000000001976a9149ce66f4d655c0acf7e51cae96190c1e8a71f28b388ac024730440220010b26a5810d684caf150b42643b0512a8228b057f04f42cd16037a328c149b8022067fda98c51bbbe288602f162ce455d6460862a33440105be51c426868eef6022012103b4844397fff1d5f6f25ffb3c76d08b4083c599e438cc511102b8da933aedbfad13490800", "vin": [{"txinwitness": ["30440220010b26a5810d684caf150b42643b0512a8228b057f04f42cd16037a328c149b8022067fda98c51bbbe288602f162ce455d6460862a33440105be51c426868eef602201", "03b4844397fff1d5f6f25ffb3c76d08b4083c599e438cc511102b8da933aedbfad"], "sequence": 4294967294, "scriptSig": {"hex": "1600149bd3835d250694982d455422bd6ff784ce2faa18", "asm": "00149bd3835d250694982d455422bd6ff784ce2faa18"}, "vout": 0, "txid": "946c0d1de614fc10a7d62fe79e6806ba3730d2cd1dba5f72b4dd6284badad323"}], "txid": "77a4a94a7721175d48b538186f4ba5d687bd32f94702143efaaf0c992cced8d5", "blocktime": 1537873282, "version": 2, "confirmations": 11483, "time": 1537873282, "locktime": 542995, "vsize": 202, "size": 283}