{"hash": "77a6a97edf19325f45c08a8ffb0e77683ce6e646b44089b22ceb2e895b784771", "blockhash": "00000000000000000004ffacab907a6b429b9a5745fa0b75af4234bf69dd7176", "vout": [{"scriptPubKey": {"reqSigs": 1, "hex": "a914a60c75cd440b5b2e391ebd8b3485d43432306e7e87", "addresses": ["3Gq128nALZrgLrGfWbE8PRswBW7s65sXQw"], "asm": "OP_HASH160 a60c75cd440b5b2e391ebd8b3485d43432306e7e OP_EQUAL", "type": "scripthash"}, "value": 0.01699, "n": 0}, {"scriptPubKey": {"reqSigs": 1, "hex": "a914e370231feecbfc25e2e2423a5a79bf79bfdca59887", "addresses": ["3NRbeX3vD5VaVE4TDU9ivCDsEf7NPPte6J"], "asm": "OP_HASH160 e370231feecbfc25e2e2423a5a79bf79bfdca598 OP_EQUAL", "type": "scripthash"}, "value": 2.81398267, "n": 1}], "hex": "010000000114caac0ec0693c17594c3078d399c37d9132d1d12e8b340b4f40b7dcce43070b01000000db00483045022100ba4097273b9c7f0105debd2ae923a36a010aa2f2548e8bb69fed4782ca3f0dce02201d9e92ab2b342ed03be5eb67ab32aa36f5d12ec20b1316bb419d4157074c3cfd01483045022100c228baad0b9bfd1f23a6587cd710ce9e14a09604c12bc462895ded6078d4700f022075c9d1b3014661514df5c32a270f128cfb53d0d172bcb62bd7644a634c82d7eb014752210327881b6abce6535553a3ce21fad12a7d74fd237ce7c4cd270a267162344e3082210256141f8eb687f5a68c5cc65054652dc25116fa285e44d72b44368827ffe77d9a52aeffffffff02b8ec19000000000017a914a60c75cd440b5b2e391ebd8b3485d43432306e7e87fbcbc5100000000017a914e370231feecbfc25e2e2423a5a79bf79bfdca5988700000000", "vin": [{"sequence": 4294967295, "scriptSig": {"hex": "00483045022100ba4097273b9c7f0105debd2ae923a36a010aa2f2548e8bb69fed4782ca3f0dce02201d9e92ab2b342ed03be5eb67ab32aa36f5d12ec20b1316bb419d4157074c3cfd01483045022100c228baad0b9bfd1f23a6587cd710ce9e14a09604c12bc462895ded6078d4700f022075c9d1b3014661514df5c32a270f128cfb53d0d172bcb62bd7644a634c82d7eb014752210327881b6abce6535553a3ce21fad12a7d74fd237ce7c4cd270a267162344e3082210256141f8eb687f5a68c5cc65054652dc25116fa285e44d72b44368827ffe77d9a52ae", "asm": "0 3045022100ba4097273b9c7f0105debd2ae923a36a010aa2f2548e8bb69fed4782ca3f0dce02201d9e92ab2b342ed03be5eb67ab32aa36f5d12ec20b1316bb419d4157074c3cfd[ALL] 3045022100c228baad0b9bfd1f23a6587cd710ce9e14a09604c12bc462895ded6078d4700f022075c9d1b3014661514df5c32a270f128cfb53d0d172bcb62bd7644a634c82d7eb[ALL] 52210327881b6abce6535553a3ce21fad12a7d74fd237ce7c4cd270a267162344e3082210256141f8eb687f5a68c5cc65054652dc25116fa285e44d72b44368827ffe77d9a52ae"}, "vout": 1, "txid": "0b0743cedcb7404f0b348b2ed1d132917dc399d378304c59173c69c00eacca14"}], "txid": "77a6a97edf19325f45c08a8ffb0e77683ce6e646b44089b22ceb2e895b784771", "blocktime": 1537875543, "version": 1, "confirmations": 11464, "time": 1537875543, "locktime": 0, "vsize": 334, "size": 334}