{"hash": "f9a8a7b07eee7fcdacc1ff5a1bde3ec41f4888e6948c096d30b02fca240562d4", "blockhash": "00000000000000000004ffacab907a6b429b9a5745fa0b75af4234bf69dd7176", "vout": [{"scriptPubKey": {"reqSigs": 1, "hex": "76a914c3f61b4a7e5a04e8d74e027ddebd829d12995ae388ac", "addresses": ["1Js9bCETjG4idcHjd7HDArQBA7QJDmXuP7"], "asm": "OP_DUP OP_HASH160 c3f61b4a7e5a04e8d74e027ddebd829d12995ae3 OP_EQUALVERIFY OP_CHECKSIG", "type": "pubkeyhash"}, "value": 0.15785022, "n": 0}, {"scriptPubKey": {"reqSigs": 1, "hex": "76a9140707949ebfd631a5eff33ba70928d2d04af1979d88ac", "addresses": ["1eAp3p4ztMgDp8PmLrWRkXQk4XVNgEuMW"], "asm": "OP_DUP OP_HASH160 0707949ebfd631a5eff33ba70928d2d04af1979d OP_EQUALVERIFY OP_CHECKSIG", "type": "pubkeyhash"}, "value": 0.12210048, "n": 1}], "hex": "02000000000101ec023e6edcb8a875361faacf2246f5bbbd366316a0678f132e59ddc981be8a8c01000000171600142f501c0f8d5b053b0d5c4ec620673c47839cf450feffffff023edcf000000000001976a914c3f61b4a7e5a04e8d74e027ddebd829d12995ae388ac804fba00000000001976a9140707949ebfd631a5eff33ba70928d2d04af1979d88ac02483045022100b2501dc7ce2e7d5feec9ece871af0431448deb79427884808d5902b6e31fda7d02207319a591d81ab7eeedd950adb3c865eb817f4afe2924bd733fd74efff10c9b89012102b104dbec083699e93df183b24933a2a55a997becba72101ef457344f491f424416490800", "vin": [{"txinwitness": ["3045022100b2501dc7ce2e7d5feec9ece871af0431448deb79427884808d5902b6e31fda7d02207319a591d81ab7eeedd950adb3c865eb817f4afe2924bd733fd74efff10c9b8901", "02b104dbec083699e93df183b24933a2a55a997becba72101ef457344f491f4244"], "sequence": 4294967294, "scriptSig": {"hex": "1600142f501c0f8d5b053b0d5c4ec620673c47839cf450", "asm": "00142f501c0f8d5b053b0d5c4ec620673c47839cf450"}, "vout": 1, "txid": "8c8abe81c9dd592e138f67a0166336bdbbf54622cfaa1f3675a8b8dc6e3e02ec"}], "txid": "77aa8cf30c605552ddae8aca07df432d23c8baf058a2b1a76274ea2df2740229", "blocktime": 1537875543, "version": 2, "confirmations": 11464, "time": 1537875543, "locktime": 542998, "vsize": 170, "size": 252}