{"hash": "77b07dd9e73499eb5980868d30c2a6dbe0b4ef7ed0c432cf80e997a7e8bd2497", "blockhash": "000000000000000000022b45ed06c6f4ccd3cf7fb5ba4856ebd2e58215665228", "vout": [{"scriptPubKey": {"reqSigs": 1, "hex": "76a914ae97f0518ec94d507b253d1ddf0e711da4cb69e488ac", "addresses": ["1GvAbGWz2jt1gsKw9ywRgfqVZQXVCYZU5f"], "asm": "OP_DUP OP_HASH160 ae97f0518ec94d507b253d1ddf0e711da4cb69e4 OP_EQUALVERIFY OP_CHECKSIG", "type": "pubkeyhash"}, "value": 0.01702106, "n": 0}, {"scriptPubKey": {"reqSigs": 1, "hex": "76a914ca0b6d827da762df61501f87479d4aa1d774149988ac", "addresses": ["1KRKBmPSF9HKeWQhxieys4UuE8MLfeu9RY"], "asm": "OP_DUP OP_HASH160 ca0b6d827da762df61501f87479d4aa1d7741499 OP_EQUALVERIFY OP_CHECKSIG", "type": "pubkeyhash"}, "value": 0.02697111, "n": 1}], "hex": "0100000001ffcb9bb0194df844b7e45604a956bdfe22d15996abf042fefa0bd6265ccbb3f8010000006b483045022100be2caf719c5f516dfa4dbe8a6dce8de8ecd6d83c494390b146b83c5262f20880022044b06411b9f3a0affbff948a8eb61fcc8d29891b67d8ac73b72ee8bff1f150120121039dc13e00e3d0f1ac8697af99fb3e03b6e1666233bb4763ec62e6f88c9cbcf7bbffffffff02daf81900000000001976a914ae97f0518ec94d507b253d1ddf0e711da4cb69e488ac97272900000000001976a914ca0b6d827da762df61501f87479d4aa1d774149988ac00000000", "vin": [{"sequence": 4294967295, "scriptSig": {"hex": "483045022100be2caf719c5f516dfa4dbe8a6dce8de8ecd6d83c494390b146b83c5262f20880022044b06411b9f3a0affbff948a8eb61fcc8d29891b67d8ac73b72ee8bff1f150120121039dc13e00e3d0f1ac8697af99fb3e03b6e1666233bb4763ec62e6f88c9cbcf7bb", "asm": "3045022100be2caf719c5f516dfa4dbe8a6dce8de8ecd6d83c494390b146b83c5262f20880022044b06411b9f3a0affbff948a8eb61fcc8d29891b67d8ac73b72ee8bff1f15012[ALL] 039dc13e00e3d0f1ac8697af99fb3e03b6e1666233bb4763ec62e6f88c9cbcf7bb"}, "vout": 1, "txid": "f8b3cb5c26d60bfafe42f0ab9659d122febd56a90456e4b744f84d19b09bcbff"}], "txid": "77b07dd9e73499eb5980868d30c2a6dbe0b4ef7ed0c432cf80e997a7e8bd2497", "blocktime": 1537869901, "version": 1, "confirmations": 11523, "time": 1537869901, "locktime": 0, "vsize": 226, "size": 226}