{"hash": "bdaa9308eae145f48ad1a34ed39e2f01216f8c72862cdbd291d9b752f1dea1be", "blockhash": "00000000000000000018f53835495a110e01622372bf6ae95dc86f2b0ab887b0", "vout": [{"scriptPubKey": {"reqSigs": 1, "hex": "a91471880a21318062621dc851de4152ec4700b464e187", "addresses": ["3C3KFR4Azhu4mZ68wu1tBbL77jW6gZBW6Y"], "asm": "OP_HASH160 71880a21318062621dc851de4152ec4700b464e1 OP_EQUAL", "type": "scripthash"}, "value": 0.05282301, "n": 0}, {"scriptPubKey": {"reqSigs": 1, "hex": "a91466b7f7dc08331020159622e4e386e10493a284c787", "addresses": ["3B49ESmnPSe3QhSaCsqR9qiHWbzs5qYFMT"], "asm": "OP_HASH160 66b7f7dc08331020159622e4e386e10493a284c7 OP_EQUAL", "type": "scripthash"}, "value": 0.00833034, "n": 1}], "hex": "0100000000010463aadd858073489d1cfc3f1f8947066adc9fd7c0129deb887bf29aec12925a84010000002322002003d8a34cce332ba180e23b553de8576a7e34490cdcc196499386e17bb87ad48bffffffffdaa22ad1e99d70c29d41e830a9ef3fe91a7b7e75862883cbcb658c3d15d1486d01000000232200206719d4d0fc62dc3fa2a026aa9ed905d8212e335feacd4a4accbb1433d3268117ffffffffe47458cc0d8be7e134b778aa241e972b5900b6d65f441a8041149226c159fa9400000000232200205f851707d644518b3476f162ab212e31eb4f49d86f51080cfced850219eb76b5ffffffffad9cf19cdde672551fd84eaa7bc33ce5ecf4940ac9a8c53ff7931dad34f0091701000000232200205e7f71e7be9ae9cd466ea70ee3f153bce7d1070ec6f79fdb7967037c6ea2b584ffffffff02fd9950000000000017a91471880a21318062621dc851de4152ec4700b464e1870ab60c000000000017a91466b7f7dc08331020159622e4e386e10493a284c7870400483045022100dcb9af1b726b5acaace1e834c8752a386dd587b4a7efa96af188f6484959aff502205e3dd2bb227f2d295b4419ccb6c9eea35acfdbd93529fe80817d1aada944c79001473044022030e55df2a53da95366073ad974830e3368a7dcc1a4b419eb728fb8640dd9586c02206c7c8b5a7b81926641ee86d1bd50ecb3bea4d6d7d89872892211814f89591c050169522102058f77aa7ca8e050ee9c3a3906ad57e929c0dbde874ecfa824ae0a6fcda9e8b12103f6e5b9a0cae60be95866835d0213a0b02552a4d84ceec0c1ec828216107dd5c721039e0fc73b659d81f101bdee6b27067687cb128be48f7bbbc6522ff58a1df91f7053ae040048304502210088dc1b53bf29f0bff33034a70ebee86d30ad6bee777febd0d50ab3d150c90d0a02200173d8ca89e3c8e148600ad0cb9758ab68fab3451cc96aa720f0ed9891150f3801473044022002de8f58731adb115085fb71a9384084c0cfd69f8af1a2a8161110da787ef70602203e2646b7646f75c583d928ee9f1a82d5b9fab64dc4e56133a1a4e8a1c4a657450169522103bb6cd2491f9343a1919dc85d8de549fb5edbdbd799e42250004865f89db3e19f2103d1368eafbcf73882e94c5dadc3c633cfd28779922fcb1843d8633473fbbf1de82103a419ba876935832195473aff6256d1e2ce009bda8240ef62c7ef719fa493b83f53ae0400483045022100d5af2897d508daeaf5342135e2e0ca0ddd07e72c2f3a3e3c4bdccd4023ec8e790220313bea26f1ee6084a70f1b16eaf091686cec91200c6e2c71f576ede00045113001483045022100fd71d3083618584e94488a077bbe223e30cdc6b3419fdc65d66f31c3cd20d3a102204f0b0fb19eed471b951ad5c9bfb5410a75d477547b03271d71eee805747abe060169522103c3492bee49174069858a9fca31fab5e4b99b037956ddd6d1a61a373f48983b2321031fd0fd6b6be287c042f326cacdd09da539cc2fbca7315ba96413a920478326a921039bb3c8704e369a5297a31a6948f8356d0a4987e7c659d713163f96ddd675213853ae0400483045022100d069ce00788803c8df599579f07806cd50f2f5034c4e82052adc04a650b8cc6a02206409eb4977af2330d4494315ca510ffce695d6f97f2071a811bf63274d8f179401483045022100b2709248adb23f94940cb2d2dc47a7ad2cc279b453cf4243638bf2f3c2fbbfa70220764347f62fe3c697f7c96d905f5e013bd8107164c1ac6be90ef491e4c3cf2c1501695221031fdc2a5fedbe8cccae705b745b1cdcaf4d657b8921f4c54e42d894caaadef7552102c5f8d891cd6ce2f081b4b5eb5a3b91d8937fa6e8e5af2edd911baac170c7be2a21033451abc16f9172a440177308a4f476c280d70ae9b077f87a4c3dd021b4a9a70f53ae0e490800", "vin": [{"txinwitness": ["", "3045022100dcb9af1b726b5acaace1e834c8752a386dd587b4a7efa96af188f6484959aff502205e3dd2bb227f2d295b4419ccb6c9eea35acfdbd93529fe80817d1aada944c79001", "3044022030e55df2a53da95366073ad974830e3368a7dcc1a4b419eb728fb8640dd9586c02206c7c8b5a7b81926641ee86d1bd50ecb3bea4d6d7d89872892211814f89591c0501", "522102058f77aa7ca8e050ee9c3a3906ad57e929c0dbde874ecfa824ae0a6fcda9e8b12103f6e5b9a0cae60be95866835d0213a0b02552a4d84ceec0c1ec828216107dd5c721039e0fc73b659d81f101bdee6b27067687cb128be48f7bbbc6522ff58a1df91f7053ae"], "sequence": 4294967295, "scriptSig": {"hex": "22002003d8a34cce332ba180e23b553de8576a7e34490cdcc196499386e17bb87ad48b", "asm": "002003d8a34cce332ba180e23b553de8576a7e34490cdcc196499386e17bb87ad48b"}, "vout": 1, "txid": "845a9212ec9af27b88eb9d12c0d79fdc6a0647891f3ffc1c9d48738085ddaa63"}, {"txinwitness": ["", "304502210088dc1b53bf29f0bff33034a70ebee86d30ad6bee777febd0d50ab3d150c90d0a02200173d8ca89e3c8e148600ad0cb9758ab68fab3451cc96aa720f0ed9891150f3801", "3044022002de8f58731adb115085fb71a9384084c0cfd69f8af1a2a8161110da787ef70602203e2646b7646f75c583d928ee9f1a82d5b9fab64dc4e56133a1a4e8a1c4a6574501", "522103bb6cd2491f9343a1919dc85d8de549fb5edbdbd799e42250004865f89db3e19f2103d1368eafbcf73882e94c5dadc3c633cfd28779922fcb1843d8633473fbbf1de82103a419ba876935832195473aff6256d1e2ce009bda8240ef62c7ef719fa493b83f53ae"], "sequence": 4294967295, "scriptSig": {"hex": "2200206719d4d0fc62dc3fa2a026aa9ed905d8212e335feacd4a4accbb1433d3268117", "asm": "00206719d4d0fc62dc3fa2a026aa9ed905d8212e335feacd4a4accbb1433d3268117"}, "vout": 1, "txid": "6d48d1153d8c65cbcb832886757e7b1ae93fefa930e8419dc2709de9d12aa2da"}, {"txinwitness": ["", "3045022100d5af2897d508daeaf5342135e2e0ca0ddd07e72c2f3a3e3c4bdccd4023ec8e790220313bea26f1ee6084a70f1b16eaf091686cec91200c6e2c71f576ede00045113001", "3045022100fd71d3083618584e94488a077bbe223e30cdc6b3419fdc65d66f31c3cd20d3a102204f0b0fb19eed471b951ad5c9bfb5410a75d477547b03271d71eee805747abe0601", "522103c3492bee49174069858a9fca31fab5e4b99b037956ddd6d1a61a373f48983b2321031fd0fd6b6be287c042f326cacdd09da539cc2fbca7315ba96413a920478326a921039bb3c8704e369a5297a31a6948f8356d0a4987e7c659d713163f96ddd675213853ae"], "sequence": 4294967295, "scriptSig": {"hex": "2200205f851707d644518b3476f162ab212e31eb4f49d86f51080cfced850219eb76b5", "asm": "00205f851707d644518b3476f162ab212e31eb4f49d86f51080cfced850219eb76b5"}, "vout": 0, "txid": "94fa59c126921441801a445fd6b600592b971e24aa78b734e1e78b0dcc5874e4"}, {"txinwitness": ["", "3045022100d069ce00788803c8df599579f07806cd50f2f5034c4e82052adc04a650b8cc6a02206409eb4977af2330d4494315ca510ffce695d6f97f2071a811bf63274d8f179401", "3045022100b2709248adb23f94940cb2d2dc47a7ad2cc279b453cf4243638bf2f3c2fbbfa70220764347f62fe3c697f7c96d905f5e013bd8107164c1ac6be90ef491e4c3cf2c1501", "5221031fdc2a5fedbe8cccae705b745b1cdcaf4d657b8921f4c54e42d894caaadef7552102c5f8d891cd6ce2f081b4b5eb5a3b91d8937fa6e8e5af2edd911baac170c7be2a21033451abc16f9172a440177308a4f476c280d70ae9b077f87a4c3dd021b4a9a70f53ae"], "sequence": 4294967295, "scriptSig": {"hex": "2200205e7f71e7be9ae9cd466ea70ee3f153bce7d1070ec6f79fdb7967037c6ea2b584", "asm": "00205e7f71e7be9ae9cd466ea70ee3f153bce7d1070ec6f79fdb7967037c6ea2b584"}, "vout": 1, "txid": "1709f034ad1d93f73fc5a8c90a94f4ece53cc37baa4ed81f5572e6dd9cf19cad"}], "txid": "77b213a53df0dfd9e43193be0b6f7203d3f59b62204e8620d0652cec29db665d", "blocktime": 1537870928, "version": 1, "confirmations": 11512, "time": 1537870928, "locktime": 542990, "vsize": 632, "size": 1394}