{"hash": "77b2375e2e7e8831e706325cd5378c88fe65f61decc723e57fc11a35126b796a", "blockhash": "0000000000000000001f76057863aec43deb6fa401d9628bb513d65a8098bfab", "vout": [{"scriptPubKey": {"reqSigs": 1, "hex": "76a914af365c1f16219b1c7c21dc7a643b804119d01f5888ac", "addresses": ["1GySNZR3PaB3QYgfuxDSNR8VwKqmyXjfG3"], "asm": "OP_DUP OP_HASH160 af365c1f16219b1c7c21dc7a643b804119d01f58 OP_EQUALVERIFY OP_CHECKSIG", "type": "pubkeyhash"}, "value": 0.00500386, "n": 0}, {"scriptPubKey": {"reqSigs": 1, "hex": "76a914b163fc64848b00c3b84b2100faab35a3d8a54c8688ac", "addresses": ["1HAxP6cMp3bGdbQXcMkYnu6nM1MQXoVzBV"], "asm": "OP_DUP OP_HASH160 b163fc64848b00c3b84b2100faab35a3d8a54c86 OP_EQUALVERIFY OP_CHECKSIG", "type": "pubkeyhash"}, "value": 0.01491775, "n": 1}], "hex": "0100000001d4a247204ed1456c5471b79db361ea268e39f2b46e6aa86b1e55ed06d5e31787010000006a473044022056cf5633565e32e81462e005a4f224594f67a6ce450d115878b6454e0a7415a4022024df6e0ced5c59d028218cc8ca2637b4c247159249e7a958bd098542700e1d0d01210268d8a5eb9bf2b1a0ffc6e19ff2829d333fed2ed25818ae515d4553c7e0a8c94affffffff02a2a20700000000001976a914af365c1f16219b1c7c21dc7a643b804119d01f5888ac3fc31600000000001976a914b163fc64848b00c3b84b2100faab35a3d8a54c8688ac00000000", "vin": [{"sequence": 4294967295, "scriptSig": {"hex": "473044022056cf5633565e32e81462e005a4f224594f67a6ce450d115878b6454e0a7415a4022024df6e0ced5c59d028218cc8ca2637b4c247159249e7a958bd098542700e1d0d01210268d8a5eb9bf2b1a0ffc6e19ff2829d333fed2ed25818ae515d4553c7e0a8c94a", "asm": "3044022056cf5633565e32e81462e005a4f224594f67a6ce450d115878b6454e0a7415a4022024df6e0ced5c59d028218cc8ca2637b4c247159249e7a958bd098542700e1d0d[ALL] 0268d8a5eb9bf2b1a0ffc6e19ff2829d333fed2ed25818ae515d4553c7e0a8c94a"}, "vout": 1, "txid": "8717e3d506ed551e6ba86a6eb4f2398e26ea61b39db771546c45d14e2047a2d4"}], "txid": "77b2375e2e7e8831e706325cd5378c88fe65f61decc723e57fc11a35126b796a", "blocktime": 1537873891, "version": 1, "confirmations": 11479, "time": 1537873891, "locktime": 0, "vsize": 225, "size": 225}