{"hash": "77b4c7c0a203de7c28584d6ea78aa4c205dcec64356dd6731011e952f871446b", "blockhash": "00000000000000000017f5eb5941039fbcee6240d03bc1f2f8e35350df66a1d8", "vout": [{"scriptPubKey": {"reqSigs": 1, "hex": "76a914cba581f403685177546cbb869b27b58cefcfabe388ac", "addresses": ["1KZnSca5m2AEtvYcyXvN3S3wfFJpuhdQLD"], "asm": "OP_DUP OP_HASH160 cba581f403685177546cbb869b27b58cefcfabe3 OP_EQUALVERIFY OP_CHECKSIG", "type": "pubkeyhash"}, "value": 0.005, "n": 0}, {"scriptPubKey": {"reqSigs": 1, "hex": "76a91488d924f51033b74a895863a5fb57fd545529df7d88ac", "addresses": ["1DUb2YYbQA1jjaNYzVXLZ7ZioEhLXtbUru"], "asm": "OP_DUP OP_HASH160 88d924f51033b74a895863a5fb57fd545529df7d OP_EQUALVERIFY OP_CHECKSIG", "type": "pubkeyhash"}, "value": 1.22503457, "n": 1}], "hex": "010000000bbf7c3a1cfc04400fc0181e7a1536cc8e4ec2194f71a51b7dd87d9a9cf53404ab010000006a473044022007f766edb02add7b852642dfe0cffe8b70b6dcf5120bafc0032c8d0c251226f30220140cf6b96891ba2fd09d2db8e6459d2e612e08ebc6e08bb67f5fe6009fbe91f30121030888863fcb4cdf5b7d33b40e613af35df8f39d576e7972238b0d396cd3fcc3f2ffffffff0e74c87c0c288339144faed76f136c3d8b338291840016638d61eb943a63c27c020000006a4730440221009eaa08d187927bedd4aeccb8aaa475cb1001a0182a55dbb72370860ac899fb0a021f1a90b5b2939fdf74639359d49551fd543562b1aab2820a2a53c1cfcfa330690121030888863fcb4cdf5b7d33b40e613af35df8f39d576e7972238b0d396cd3fcc3f2ffffffff6af92480e69bd4ad8b81568521114efe2b522d426d74236f86e5124bc4ccce34020000006b483045022100f6bc24a3235639e23a0fa73d5f95c199e8f563db6f0c77bccf169b19df42358802203a614a79d84f3f998c4951b516e6fc9d7994132c7224e62555600569280a19dc012103d4fdb0b8b5bcc013d31142bc1301dd00869c8a594776f4064ad330ae9b41bcd2ffffffff8410d2fe2454a8274c1ea2d510d50aea7c4f1978796196cba852d1862dd15222020000006a4730440220636fbc98b479ea8a7bd50861b17279fbce5f2a9d922d365bd2f7f986d363566c0220598b3f0f1070f461fd33c98827e81372f242c0ce8c4cfda3a449d6f9daa505b80121030888863fcb4cdf5b7d33b40e613af35df8f39d576e7972238b0d396cd3fcc3f2ffffffffcd563c3daa6c4cb66ccca32938690a8c9064b3c695d70b2753a5d8b7b919b94f010000006a47304402205f52358c7015d7f38d1b3a40bbb74b561a4bed5bf44f2509b04e2ca5233b802d02203bffadfb5aa3d1d047ff9441a55f9aaeaa06504a008e909f633d50a9b606cf080121030888863fcb4cdf5b7d33b40e613af35df8f39d576e7972238b0d396cd3fcc3f2ffffffff9f08cc10b7419885bef65132369daf59cbffbdd28fe5ce7d30513220896cd9cf010000006b48304502210081a819148e66c14ae5e5049a27052621eca858954aa9529b22e77c1214ad131e02207772f99c8478dd5342dfd8d580df4c9518726b7d9c6849b783ca178b8291935e0121026ed1c668ee0b1f665dfee891f7eb0e861258de72890886608c00e6b2607941f5ffffffff0e74c87c0c288339144faed76f136c3d8b338291840016638d61eb943a63c27c000000006a4730440220415290d989a6fe0be5de9c08a29e345ed0bf1e984eba0e6f8b266d833efb7f8302203cc4374600d546edc48bfd86a76b0ac43f871e7880756ad25e0d6b9307ea2c2e0121026bbdee67f6b5aab9e05fb37f23ef9b503c7c3116a6511c209595afe8d7abc16dffffffff8410d2fe2454a8274c1ea2d510d50aea7c4f1978796196cba852d1862dd15222000000006a47304402204cb9f1aa50cc21d1818e013cfb5873251f0c4675087109545971f174c53b7c2d022061d05a2e49e54fde181b7a15cfb5838da4b4b49fba9a676529c6b339dcef2f8a012103d4fdb0b8b5bcc013d31142bc1301dd00869c8a594776f4064ad330ae9b41bcd2ffffffffcd563c3daa6c4cb66ccca32938690a8c9064b3c695d70b2753a5d8b7b919b94f020000006b483045022100dda6b2bc82f70e90b8f7f30395b1a3dc618631475f4b8550a64e9b9c2426eeea02203ecc7edda941cf39a8a9b857a2109ef0475ab1e25576bd7a1def2ba22424d688012102f3a4fbf1601bda618ee0317cb309599dd65949ca201ffe8f057dd59e49f6c5c7ffffffff8cefebdbf99fbbe7d42ad3b59bdfde2c2d7bbb8f2f7564d2bf7f32b3594eac2b000000006a4730440220440161f8cb1691ac2fd3860ac7c91b2dadc883c043826224235563b65ab2ec15022020e84820b45d1b8cceed52691c11f16ab94d2bff26f5d987a6187524495c516a012102263f02e93c748238e34c94529a9992e4b8e67a01791045e861592f6e4a7078a9ffffffffd6d8e23019cb7879660e112c2bad7a118f90a119e9a2524d2605db23aa8555f8010000006a47304402205fde4cdf9a27c7bf5d31ec5e08c5017787e57b535b5bb8fcd6bae862a2d836a702204cabf796563e97b3453e250bc7cd8f3933962d6705171cf252da202e1b059f050121024c5c6970cfd34412f4946b8e5658eabcdb40dab2bec677bc61183194c8dcff7dffffffff0220a10700000000001976a914cba581f403685177546cbb869b27b58cefcfabe388ac21414d07000000001976a91488d924f51033b74a895863a5fb57fd545529df7d88ac00000000", "vin": [{"sequence": 4294967295, "scriptSig": {"hex": "473044022007f766edb02add7b852642dfe0cffe8b70b6dcf5120bafc0032c8d0c251226f30220140cf6b96891ba2fd09d2db8e6459d2e612e08ebc6e08bb67f5fe6009fbe91f30121030888863fcb4cdf5b7d33b40e613af35df8f39d576e7972238b0d396cd3fcc3f2", "asm": "3044022007f766edb02add7b852642dfe0cffe8b70b6dcf5120bafc0032c8d0c251226f30220140cf6b96891ba2fd09d2db8e6459d2e612e08ebc6e08bb67f5fe6009fbe91f3[ALL] 030888863fcb4cdf5b7d33b40e613af35df8f39d576e7972238b0d396cd3fcc3f2"}, "vout": 1, "txid": "ab0434f59c9a7dd87d1ba5714f19c24e8ecc36157a1e18c00f4004fc1c3a7cbf"}, {"sequence": 4294967295, "scriptSig": {"hex": "4730440221009eaa08d187927bedd4aeccb8aaa475cb1001a0182a55dbb72370860ac899fb0a021f1a90b5b2939fdf74639359d49551fd543562b1aab2820a2a53c1cfcfa330690121030888863fcb4cdf5b7d33b40e613af35df8f39d576e7972238b0d396cd3fcc3f2", "asm": "30440221009eaa08d187927bedd4aeccb8aaa475cb1001a0182a55dbb72370860ac899fb0a021f1a90b5b2939fdf74639359d49551fd543562b1aab2820a2a53c1cfcfa33069[ALL] 030888863fcb4cdf5b7d33b40e613af35df8f39d576e7972238b0d396cd3fcc3f2"}, "vout": 2, "txid": "7cc2633a94eb618d631600849182338b3d6c136fd7ae4f143983280c7cc8740e"}, {"sequence": 4294967295, "scriptSig": {"hex": "483045022100f6bc24a3235639e23a0fa73d5f95c199e8f563db6f0c77bccf169b19df42358802203a614a79d84f3f998c4951b516e6fc9d7994132c7224e62555600569280a19dc012103d4fdb0b8b5bcc013d31142bc1301dd00869c8a594776f4064ad330ae9b41bcd2", "asm": "3045022100f6bc24a3235639e23a0fa73d5f95c199e8f563db6f0c77bccf169b19df42358802203a614a79d84f3f998c4951b516e6fc9d7994132c7224e62555600569280a19dc[ALL] 03d4fdb0b8b5bcc013d31142bc1301dd00869c8a594776f4064ad330ae9b41bcd2"}, "vout": 2, "txid": "34ceccc44b12e5866f23746d422d522bfe4e11218556818badd49be68024f96a"}, {"sequence": 4294967295, "scriptSig": {"hex": "4730440220636fbc98b479ea8a7bd50861b17279fbce5f2a9d922d365bd2f7f986d363566c0220598b3f0f1070f461fd33c98827e81372f242c0ce8c4cfda3a449d6f9daa505b80121030888863fcb4cdf5b7d33b40e613af35df8f39d576e7972238b0d396cd3fcc3f2", "asm": "30440220636fbc98b479ea8a7bd50861b17279fbce5f2a9d922d365bd2f7f986d363566c0220598b3f0f1070f461fd33c98827e81372f242c0ce8c4cfda3a449d6f9daa505b8[ALL] 030888863fcb4cdf5b7d33b40e613af35df8f39d576e7972238b0d396cd3fcc3f2"}, "vout": 2, "txid": "2252d12d86d152a8cb96617978194f7cea0ad510d5a21e4c27a85424fed21084"}, {"sequence": 4294967295, "scriptSig": {"hex": "47304402205f52358c7015d7f38d1b3a40bbb74b561a4bed5bf44f2509b04e2ca5233b802d02203bffadfb5aa3d1d047ff9441a55f9aaeaa06504a008e909f633d50a9b606cf080121030888863fcb4cdf5b7d33b40e613af35df8f39d576e7972238b0d396cd3fcc3f2", "asm": "304402205f52358c7015d7f38d1b3a40bbb74b561a4bed5bf44f2509b04e2ca5233b802d02203bffadfb5aa3d1d047ff9441a55f9aaeaa06504a008e909f633d50a9b606cf08[ALL] 030888863fcb4cdf5b7d33b40e613af35df8f39d576e7972238b0d396cd3fcc3f2"}, "vout": 1, "txid": "4fb919b9b7d8a553270bd795c6b364908c0a693829a3cc6cb64c6caa3d3c56cd"}, {"sequence": 4294967295, "scriptSig": {"hex": "48304502210081a819148e66c14ae5e5049a27052621eca858954aa9529b22e77c1214ad131e02207772f99c8478dd5342dfd8d580df4c9518726b7d9c6849b783ca178b8291935e0121026ed1c668ee0b1f665dfee891f7eb0e861258de72890886608c00e6b2607941f5", "asm": "304502210081a819148e66c14ae5e5049a27052621eca858954aa9529b22e77c1214ad131e02207772f99c8478dd5342dfd8d580df4c9518726b7d9c6849b783ca178b8291935e[ALL] 026ed1c668ee0b1f665dfee891f7eb0e861258de72890886608c00e6b2607941f5"}, "vout": 1, "txid": "cfd96c89203251307dcee58fd2bdffcb59af9d363251f6be859841b710cc089f"}, {"sequence": 4294967295, "scriptSig": {"hex": "4730440220415290d989a6fe0be5de9c08a29e345ed0bf1e984eba0e6f8b266d833efb7f8302203cc4374600d546edc48bfd86a76b0ac43f871e7880756ad25e0d6b9307ea2c2e0121026bbdee67f6b5aab9e05fb37f23ef9b503c7c3116a6511c209595afe8d7abc16d", "asm": "30440220415290d989a6fe0be5de9c08a29e345ed0bf1e984eba0e6f8b266d833efb7f8302203cc4374600d546edc48bfd86a76b0ac43f871e7880756ad25e0d6b9307ea2c2e[ALL] 026bbdee67f6b5aab9e05fb37f23ef9b503c7c3116a6511c209595afe8d7abc16d"}, "vout": 0, "txid": "7cc2633a94eb618d631600849182338b3d6c136fd7ae4f143983280c7cc8740e"}, {"sequence": 4294967295, "scriptSig": {"hex": "47304402204cb9f1aa50cc21d1818e013cfb5873251f0c4675087109545971f174c53b7c2d022061d05a2e49e54fde181b7a15cfb5838da4b4b49fba9a676529c6b339dcef2f8a012103d4fdb0b8b5bcc013d31142bc1301dd00869c8a594776f4064ad330ae9b41bcd2", "asm": "304402204cb9f1aa50cc21d1818e013cfb5873251f0c4675087109545971f174c53b7c2d022061d05a2e49e54fde181b7a15cfb5838da4b4b49fba9a676529c6b339dcef2f8a[ALL] 03d4fdb0b8b5bcc013d31142bc1301dd00869c8a594776f4064ad330ae9b41bcd2"}, "vout": 0, "txid": "2252d12d86d152a8cb96617978194f7cea0ad510d5a21e4c27a85424fed21084"}, {"sequence": 4294967295, "scriptSig": {"hex": "483045022100dda6b2bc82f70e90b8f7f30395b1a3dc618631475f4b8550a64e9b9c2426eeea02203ecc7edda941cf39a8a9b857a2109ef0475ab1e25576bd7a1def2ba22424d688012102f3a4fbf1601bda618ee0317cb309599dd65949ca201ffe8f057dd59e49f6c5c7", "asm": "3045022100dda6b2bc82f70e90b8f7f30395b1a3dc618631475f4b8550a64e9b9c2426eeea02203ecc7edda941cf39a8a9b857a2109ef0475ab1e25576bd7a1def2ba22424d688[ALL] 02f3a4fbf1601bda618ee0317cb309599dd65949ca201ffe8f057dd59e49f6c5c7"}, "vout": 2, "txid": "4fb919b9b7d8a553270bd795c6b364908c0a693829a3cc6cb64c6caa3d3c56cd"}, {"sequence": 4294967295, "scriptSig": {"hex": "4730440220440161f8cb1691ac2fd3860ac7c91b2dadc883c043826224235563b65ab2ec15022020e84820b45d1b8cceed52691c11f16ab94d2bff26f5d987a6187524495c516a012102263f02e93c748238e34c94529a9992e4b8e67a01791045e861592f6e4a7078a9", "asm": "30440220440161f8cb1691ac2fd3860ac7c91b2dadc883c043826224235563b65ab2ec15022020e84820b45d1b8cceed52691c11f16ab94d2bff26f5d987a6187524495c516a[ALL] 02263f02e93c748238e34c94529a9992e4b8e67a01791045e861592f6e4a7078a9"}, "vout": 0, "txid": "2bac4e59b3327fbfd264752f8fbb7b2d2cdedf9bb5d32ad4e7bb9ff9dbebef8c"}, {"sequence": 4294967295, "scriptSig": {"hex": "47304402205fde4cdf9a27c7bf5d31ec5e08c5017787e57b535b5bb8fcd6bae862a2d836a702204cabf796563e97b3453e250bc7cd8f3933962d6705171cf252da202e1b059f050121024c5c6970cfd34412f4946b8e5658eabcdb40dab2bec677bc61183194c8dcff7d", "asm": "304402205fde4cdf9a27c7bf5d31ec5e08c5017787e57b535b5bb8fcd6bae862a2d836a702204cabf796563e97b3453e250bc7cd8f3933962d6705171cf252da202e1b059f05[ALL] 024c5c6970cfd34412f4946b8e5658eabcdb40dab2bec677bc61183194c8dcff7d"}, "vout": 1, "txid": "f85585aa23db05264d52a2e919a1908f117aad2b2c110e667978cb1930e2d8d6"}], "txid": "77b4c7c0a203de7c28584d6ea78aa4c205dcec64356dd6731011e952f871446b", "blocktime": 1537874412, "version": 1, "confirmations": 11467, "time": 1537874412, "locktime": 0, "vsize": 1698, "size": 1698}