{"hash": "77bfb969a7a030e66821cc7c77c9457930fce7d095cc574cba3f918087c0fc93", "blockhash": "0000000000000000001f76057863aec43deb6fa401d9628bb513d65a8098bfab", "vout": [{"scriptPubKey": {"reqSigs": 1, "hex": "76a91436948a4c579eaae124a03cdbae20b010ffa842c788ac", "addresses": ["15ybS7f7KjZTSpTGsjkXNHUDmUeykExJ7g"], "asm": "OP_DUP OP_HASH160 36948a4c579eaae124a03cdbae20b010ffa842c7 OP_EQUALVERIFY OP_CHECKSIG", "type": "pubkeyhash"}, "value": 0.00296388, "n": 0}, {"scriptPubKey": {"reqSigs": 1, "hex": "76a9143129db39231947feff10e4c35df4bf5d616521da88ac", "addresses": ["15UxFdVhJhV8yrrdWP6hJ3nfbNfiBSrTDp"], "asm": "OP_DUP OP_HASH160 3129db39231947feff10e4c35df4bf5d616521da OP_EQUALVERIFY OP_CHECKSIG", "type": "pubkeyhash"}, "value": 1.02280374, "n": 1}], "hex": "01000000012ba2fc637bbaf3b2a8c76df58b9d86504cebe67524d99620235b8a2b218f8bf8010000006b483045022100b27b345e043844f563db943b7a883414eef4220bde45c4eddb4baa1ee70f0dbf022028335bdebd0f9f59a1aca533dd75d6cc1a302d55d5e636593262d65ca6e70837012102c2fd4150e751d0ccfb618585f5f593524429c291ac7d71022172866ae6f51a1bffffffff02c4850400000000001976a91436948a4c579eaae124a03cdbae20b010ffa842c788acb6ac1806000000001976a9143129db39231947feff10e4c35df4bf5d616521da88ac00000000", "vin": [{"sequence": 4294967295, "scriptSig": {"hex": "483045022100b27b345e043844f563db943b7a883414eef4220bde45c4eddb4baa1ee70f0dbf022028335bdebd0f9f59a1aca533dd75d6cc1a302d55d5e636593262d65ca6e70837012102c2fd4150e751d0ccfb618585f5f593524429c291ac7d71022172866ae6f51a1b", "asm": "3045022100b27b345e043844f563db943b7a883414eef4220bde45c4eddb4baa1ee70f0dbf022028335bdebd0f9f59a1aca533dd75d6cc1a302d55d5e636593262d65ca6e70837[ALL] 02c2fd4150e751d0ccfb618585f5f593524429c291ac7d71022172866ae6f51a1b"}, "vout": 1, "txid": "f88b8f212b8a5b232096d92475e6eb4c50869d8bf56dc7a8b2f3ba7b63fca22b"}], "txid": "77bfb969a7a030e66821cc7c77c9457930fce7d095cc574cba3f918087c0fc93", "blocktime": 1537873891, "version": 1, "confirmations": 11478, "time": 1537873891, "locktime": 0, "vsize": 226, "size": 226}