{"hash": "77c28d49781aa43648ebb75cea027779ae579655ec1bf586ac3e6a00e09413de", "blockhash": "0000000000000000001cda96e906b7601b7a6fb1a3b62bca570a9e5d8f4b3de1", "vout": [{"scriptPubKey": {"reqSigs": 1, "hex": "a91414b4308e91c54f4226040881a5a99fab22173d9c87", "addresses": ["33aVJBJipv6mnGbm77MsixwunQe9ra7qH2"], "asm": "OP_HASH160 14b4308e91c54f4226040881a5a99fab22173d9c OP_EQUAL", "type": "scripthash"}, "value": 0.00109296, "n": 0}, {"scriptPubKey": {"reqSigs": 1, "hex": "76a914852ea35f071813ecf9751abe65049de61cbf8c5788ac", "addresses": ["1D9CjzS6u5ArSoEGqkqUEz4j55iA3rsFCL"], "asm": "OP_DUP OP_HASH160 852ea35f071813ecf9751abe65049de61cbf8c57 OP_EQUALVERIFY OP_CHECKSIG", "type": "pubkeyhash"}, "value": 0.07060082, "n": 1}], "hex": "0200000001dccc445f39212b0704306a5125c25ad0884ce02e988d3a7b43d915d920f3bd83010000006a47304402207baeab828771bf1e341d574a446b672446b3260914b51b821dc80fb0b1b1ee5802200d14b2450cad1a577ba70b9f9014d370b91cea39723e8d29e82cdbf43de588dd012103ad9345c23921567f0abf3339bb67fe7dde30c759d2837f65e6d4230853bddca5ffffffff02f0aa01000000000017a91414b4308e91c54f4226040881a5a99fab22173d9c8772ba6b00000000001976a914852ea35f071813ecf9751abe65049de61cbf8c5788ac00000000", "vin": [{"sequence": 4294967295, "scriptSig": {"hex": "47304402207baeab828771bf1e341d574a446b672446b3260914b51b821dc80fb0b1b1ee5802200d14b2450cad1a577ba70b9f9014d370b91cea39723e8d29e82cdbf43de588dd012103ad9345c23921567f0abf3339bb67fe7dde30c759d2837f65e6d4230853bddca5", "asm": "304402207baeab828771bf1e341d574a446b672446b3260914b51b821dc80fb0b1b1ee5802200d14b2450cad1a577ba70b9f9014d370b91cea39723e8d29e82cdbf43de588dd[ALL] 03ad9345c23921567f0abf3339bb67fe7dde30c759d2837f65e6d4230853bddca5"}, "vout": 1, "txid": "83bdf320d915d9437b3a8d982ee04c88d05ac225516a3004072b21395f44ccdc"}], "txid": "77c28d49781aa43648ebb75cea027779ae579655ec1bf586ac3e6a00e09413de", "blocktime": 1537873282, "version": 2, "confirmations": 11484, "time": 1537873282, "locktime": 0, "vsize": 223, "size": 223}