{"hash": "77c90925f9e76de38d8aac4dfd107bce4409c079eebc1be36e6705fd115ce384", "blockhash": "0000000000000000000baef3f32e3676a92c3b2e5da21b426e4f302fc371ce76", "vout": [{"scriptPubKey": {"reqSigs": 1, "hex": "76a914c829c534542461cba80b08827753fd2a5e95924388ac", "addresses": ["1KFNBcvucBTLjGWmiaS6VtDiFyxKi9zBRi"], "asm": "OP_DUP OP_HASH160 c829c534542461cba80b08827753fd2a5e959243 OP_EQUALVERIFY OP_CHECKSIG", "type": "pubkeyhash"}, "value": 8.281e-05, "n": 0}, {"scriptPubKey": {"reqSigs": 1, "hex": "76a914af73f2eded33f130ab8df9a4001b2a125dee1aca88ac", "addresses": ["1Gzi9qxcNHragt1GGuik1QBsZGU6xTBVvM"], "asm": "OP_DUP OP_HASH160 af73f2eded33f130ab8df9a4001b2a125dee1aca OP_EQUALVERIFY OP_CHECKSIG", "type": "pubkeyhash"}, "value": 0.0305, "n": 1}], "hex": "01000000013a54f922c734eed9ac20e876b6e79adf622f8dbd2ec70d6e35c8f6d955c5f706070000006a4730440220511382ca85cf0822ee9d44eea870481e63a0642fa6dc6960cdc33a01f7f3e2e102207302b75a84ed86da3eb38a876b697a418e502e7e38d856665960703afe20e4cb0121024a00c3d564b8ea7bd30519ead41eb068f65a0d2032f02698d739c3b77efb33b6ffffffff0259200000000000001976a914c829c534542461cba80b08827753fd2a5e95924388ac108a2e00000000001976a914af73f2eded33f130ab8df9a4001b2a125dee1aca88ac00000000", "vin": [{"sequence": 4294967295, "scriptSig": {"hex": "4730440220511382ca85cf0822ee9d44eea870481e63a0642fa6dc6960cdc33a01f7f3e2e102207302b75a84ed86da3eb38a876b697a418e502e7e38d856665960703afe20e4cb0121024a00c3d564b8ea7bd30519ead41eb068f65a0d2032f02698d739c3b77efb33b6", "asm": "30440220511382ca85cf0822ee9d44eea870481e63a0642fa6dc6960cdc33a01f7f3e2e102207302b75a84ed86da3eb38a876b697a418e502e7e38d856665960703afe20e4cb[ALL] 024a00c3d564b8ea7bd30519ead41eb068f65a0d2032f02698d739c3b77efb33b6"}, "vout": 7, "txid": "06f7c555d9f6c8356e0dc72ebd8d2f62df9ae7b676e820acd9ee34c722f9543a"}], "txid": "77c90925f9e76de38d8aac4dfd107bce4409c079eebc1be36e6705fd115ce384", "blocktime": 1537876114, "version": 1, "confirmations": 11460, "time": 1537876114, "locktime": 0, "vsize": 225, "size": 225}