{"hash": "d49876a1d6b9aca160bc46f085b3903d07642d2e94c6893dd3b3054fecfee897", "blockhash": "0000000000000000000e13cef7c366c0283d82e591d1acd082e914b08063cdf1", "vout": [{"scriptPubKey": {"reqSigs": 1, "hex": "a914db91908f16b55686dbb08befd831806a2b553acf87", "addresses": ["3MhzHZnhf4ewSCoGWqTg6k9WdWkWQEngYG"], "asm": "OP_HASH160 db91908f16b55686dbb08befd831806a2b553acf OP_EQUAL", "type": "scripthash"}, "value": 1.53685725, "n": 0}, {"scriptPubKey": {"reqSigs": 1, "hex": "76a9140d3d559239120d1e2f18c5a4fd0dae757e7caf8b88ac", "addresses": ["12D1G5EmsScd6JiVtM5z6DLij6bYPaP2fd"], "asm": "OP_DUP OP_HASH160 0d3d559239120d1e2f18c5a4fd0dae757e7caf8b OP_EQUALVERIFY OP_CHECKSIG", "type": "pubkeyhash"}, "value": 0.066, "n": 1}], "hex": "0200000000010139c5b161896459f358c90324e27b13d13b104cbe07fb32a0d76c74eeab2135440100000017160014a13f7771c95bc53682ef4f44ba767bad28831087ffffffff02dd0e29090000000017a914db91908f16b55686dbb08befd831806a2b553acf8740b56400000000001976a9140d3d559239120d1e2f18c5a4fd0dae757e7caf8b88ac02483045022100c0dc07091487a96d1dbad16332f8271f47a88708e7d52310c3d5242cec66592902203209ce1a89756596ea712fc08720249e35a2f1bb9c3ce8a2309e83c39cbc04f601210334fc3f25008ede484c0c8e0321fff88942dc52a6672a9407658accb0f337014b00000000", "vin": [{"txinwitness": ["3045022100c0dc07091487a96d1dbad16332f8271f47a88708e7d52310c3d5242cec66592902203209ce1a89756596ea712fc08720249e35a2f1bb9c3ce8a2309e83c39cbc04f601", "0334fc3f25008ede484c0c8e0321fff88942dc52a6672a9407658accb0f337014b"], "sequence": 4294967295, "scriptSig": {"hex": "160014a13f7771c95bc53682ef4f44ba767bad28831087", "asm": "0014a13f7771c95bc53682ef4f44ba767bad28831087"}, "vout": 1, "txid": "443521abee746cd7a032fb07be4c103bd1137be22403c958f359648961b1c539"}], "txid": "77cc75026a4e8f826b5505fc1ac267f02fabf6d26477215da52513a523b4dae3", "blocktime": 1537871767, "version": 2, "confirmations": 11493, "time": 1537871767, "locktime": 0, "vsize": 168, "size": 250}