{"hash": "77cc96bf4e3e8656db5ef2da8ebbb0baed3ccc3c7ac20a9084901f442c82e010", "blockhash": "00000000000000000024a2167bbff67b0be802c0b01cdd79e6331c2be6459f87", "vout": [{"scriptPubKey": {"reqSigs": 1, "hex": "76a91462d3ea53867ea97d9053ce2a84283d29ac8bdb2188ac", "addresses": ["1A1Z5wEmWUdAB19Z75yDX3MLNQSt8bViVr"], "asm": "OP_DUP OP_HASH160 62d3ea53867ea97d9053ce2a84283d29ac8bdb21 OP_EQUALVERIFY OP_CHECKSIG", "type": "pubkeyhash"}, "value": 0.04687339, "n": 0}, {"scriptPubKey": {"reqSigs": 1, "hex": "76a9148b6b04055cc85907e3356718cce80bebc454131e88ac", "addresses": ["1DiB8FGrhDRNngJUHLwD5qSqbvTWWrngTp"], "asm": "OP_DUP OP_HASH160 8b6b04055cc85907e3356718cce80bebc454131e OP_EQUALVERIFY OP_CHECKSIG", "type": "pubkeyhash"}, "value": 0.04552787, "n": 1}], "hex": "010000000243deba8d4c747576b4a8b909159b2ae392c3340bcdccccf30959a39b698fd574010000006a4730440220215de85f556ee5e86841a38e8fa9d47c2f245087a4a8c0dbfa8dc9ef73e290640220351df096aa3726cf7697b2d9f13172deecb4063d96511015b4999a9ebefc4650012103fc456bb79fa00dbc5d3673def825df56e65a29f77869beb68bc7fa0f8cdeb1a8ffffffff16bef7e0358fe1a25057db4af7adfd4b956b340203235327b577c07e8ebeb59d000000006a47304402201be19cd7db522c99c766d002d5fe78fec0e15be088a089b15868f0aab43d80e3022039551d86dc6da00c503b9b1a9b681a7d2b2501387738f2fa3f1eff9d313f474201210370a46496e41ecae3826b21bcca84b0bfe14095ded97e97ddb3f79b67267b93d7ffffffff02eb854700000000001976a91462d3ea53867ea97d9053ce2a84283d29ac8bdb2188ac53784500000000001976a9148b6b04055cc85907e3356718cce80bebc454131e88ac00000000", "vin": [{"sequence": 4294967295, "scriptSig": {"hex": "4730440220215de85f556ee5e86841a38e8fa9d47c2f245087a4a8c0dbfa8dc9ef73e290640220351df096aa3726cf7697b2d9f13172deecb4063d96511015b4999a9ebefc4650012103fc456bb79fa00dbc5d3673def825df56e65a29f77869beb68bc7fa0f8cdeb1a8", "asm": "30440220215de85f556ee5e86841a38e8fa9d47c2f245087a4a8c0dbfa8dc9ef73e290640220351df096aa3726cf7697b2d9f13172deecb4063d96511015b4999a9ebefc4650[ALL] 03fc456bb79fa00dbc5d3673def825df56e65a29f77869beb68bc7fa0f8cdeb1a8"}, "vout": 1, "txid": "74d58f699ba35909f3cccccd0b34c392e32a9b1509b9a8b47675744c8dbade43"}, {"sequence": 4294967295, "scriptSig": {"hex": "47304402201be19cd7db522c99c766d002d5fe78fec0e15be088a089b15868f0aab43d80e3022039551d86dc6da00c503b9b1a9b681a7d2b2501387738f2fa3f1eff9d313f474201210370a46496e41ecae3826b21bcca84b0bfe14095ded97e97ddb3f79b67267b93d7", "asm": "304402201be19cd7db522c99c766d002d5fe78fec0e15be088a089b15868f0aab43d80e3022039551d86dc6da00c503b9b1a9b681a7d2b2501387738f2fa3f1eff9d313f4742[ALL] 0370a46496e41ecae3826b21bcca84b0bfe14095ded97e97ddb3f79b67267b93d7"}, "vout": 0, "txid": "9db5be8e7ec077b52753230302346b954bfdadf74adb5750a2e18f35e0f7be16"}], "txid": "77cc96bf4e3e8656db5ef2da8ebbb0baed3ccc3c7ac20a9084901f442c82e010", "blocktime": 1537870564, "version": 1, "confirmations": 11515, "time": 1537870564, "locktime": 0, "vsize": 372, "size": 372}