{"hash": "77d1e4cc327d11adc6755ed3aad7cb0411e717f75206d737f44de97fc1338553", "blockhash": "0000000000000000001f76057863aec43deb6fa401d9628bb513d65a8098bfab", "vout": [{"scriptPubKey": {"reqSigs": 1, "hex": "76a914d6b98d48e0182051b94adfc1c240da6668fceb3d88ac", "addresses": ["1LaMtRYtAeXAsMUr8gfUrLW5cwk2RKeXwF"], "asm": "OP_DUP OP_HASH160 d6b98d48e0182051b94adfc1c240da6668fceb3d OP_EQUALVERIFY OP_CHECKSIG", "type": "pubkeyhash"}, "value": 0.00035576, "n": 0}, {"scriptPubKey": {"reqSigs": 1, "hex": "76a9142dcb5a856a5e855920b1a597d8f578e99986c99d88ac", "addresses": ["15B91tWVkpPrwkSzmQGA69vD5vUiHuu9J6"], "asm": "OP_DUP OP_HASH160 2dcb5a856a5e855920b1a597d8f578e99986c99d OP_EQUALVERIFY OP_CHECKSIG", "type": "pubkeyhash"}, "value": 0.006838, "n": 1}], "hex": "01000000017a685a09d92f603c32335159655ac436044897aee63e24af3b6199a341a6303a000000006b483045022100fd2231b4885a72dd1c76db74a83a477ec2e9a1960acbe907fa97ca15b39194a502203366871ec072f8268e073ab7278904ab83e2f9b0d7ce1183ed2f87c3a5f830bd012102e290026c3295b494f29500c02db6ddc8ab44e9c54cd37b87dee354350e830810ffffffff02f88a0000000000001976a914d6b98d48e0182051b94adfc1c240da6668fceb3d88ac186f0a00000000001976a9142dcb5a856a5e855920b1a597d8f578e99986c99d88ac00000000", "vin": [{"sequence": 4294967295, "scriptSig": {"hex": "483045022100fd2231b4885a72dd1c76db74a83a477ec2e9a1960acbe907fa97ca15b39194a502203366871ec072f8268e073ab7278904ab83e2f9b0d7ce1183ed2f87c3a5f830bd012102e290026c3295b494f29500c02db6ddc8ab44e9c54cd37b87dee354350e830810", "asm": "3045022100fd2231b4885a72dd1c76db74a83a477ec2e9a1960acbe907fa97ca15b39194a502203366871ec072f8268e073ab7278904ab83e2f9b0d7ce1183ed2f87c3a5f830bd[ALL] 02e290026c3295b494f29500c02db6ddc8ab44e9c54cd37b87dee354350e830810"}, "vout": 0, "txid": "3a30a641a399613baf243ee6ae97480436c45a65595133323c602fd9095a687a"}], "txid": "77d1e4cc327d11adc6755ed3aad7cb0411e717f75206d737f44de97fc1338553", "blocktime": 1537873891, "version": 1, "confirmations": 11478, "time": 1537873891, "locktime": 0, "vsize": 226, "size": 226}