{"hash": "77d42db89aa250b4910b2042fc613bfa9807308768180acf1b8af12b0e4e0a83", "blockhash": "0000000000000000000dcc0f55137456b1a82d3642486a52398922ac4d620174", "vout": [{"scriptPubKey": {"reqSigs": 1, "hex": "76a9140ea2c16f9786cdfea33384770c72f226ae93ef3f88ac", "addresses": ["12LPS9L3BtpHJxCw7CBABQHFsKc7wFRjAR"], "asm": "OP_DUP OP_HASH160 0ea2c16f9786cdfea33384770c72f226ae93ef3f OP_EQUALVERIFY OP_CHECKSIG", "type": "pubkeyhash"}, "value": 0.36175431, "n": 0}, {"scriptPubKey": {"type": "nulldata", "hex": "6a146f6d6e69000000000000001f00000006cba1d728", "asm": "OP_RETURN 6f6d6e69000000000000001f00000006cba1d728"}, "value": 0.0, "n": 1}, {"scriptPubKey": {"reqSigs": 1, "hex": "76a914495b516c628be595c5244d77475287b496dff86c88ac", "addresses": ["17gsitqJLFatcFT5rRdzNfatV4YM7QXek8"], "asm": "OP_DUP OP_HASH160 495b516c628be595c5244d77475287b496dff86c OP_EQUALVERIFY OP_CHECKSIG", "type": "pubkeyhash"}, "value": 5.46e-06, "n": 2}], "hex": "010000000173d1cf92649e660940a013d954a241b34340de3222069f7bc5ce2c02000d35bf000000006b483045022100c00156de463e2ff9a9d3ffdd21fc79f684490d89caa751b374a38d89280438bb0220373d1794b06c74cd273353154774da538790aabe98e8a4f0128db03d7be6184101210242604bdd2261b6188326b9f490e074dda990f5bb746eb9716e491b86b498f4c5feffffff0347fe2702000000001976a9140ea2c16f9786cdfea33384770c72f226ae93ef3f88ac0000000000000000166a146f6d6e69000000000000001f00000006cba1d72822020000000000001976a914495b516c628be595c5244d77475287b496dff86c88ac0b490800", "vin": [{"sequence": 4294967294, "scriptSig": {"hex": "483045022100c00156de463e2ff9a9d3ffdd21fc79f684490d89caa751b374a38d89280438bb0220373d1794b06c74cd273353154774da538790aabe98e8a4f0128db03d7be6184101210242604bdd2261b6188326b9f490e074dda990f5bb746eb9716e491b86b498f4c5", "asm": "3045022100c00156de463e2ff9a9d3ffdd21fc79f684490d89caa751b374a38d89280438bb0220373d1794b06c74cd273353154774da538790aabe98e8a4f0128db03d7be61841[ALL] 0242604bdd2261b6188326b9f490e074dda990f5bb746eb9716e491b86b498f4c5"}, "vout": 0, "txid": "bf350d00022ccec57b9f062232de4043b341a254d913a04009669e6492cfd173"}], "txid": "77d42db89aa250b4910b2042fc613bfa9807308768180acf1b8af12b0e4e0a83", "blocktime": 1537870268, "version": 1, "confirmations": 11517, "time": 1537870268, "locktime": 542987, "vsize": 257, "size": 257}