{"hash": "77db91f3fdd751d79f62426bc329938b883b83f0c6b33094632b6ce7770e2189", "blockhash": "0000000000000000001cda96e906b7601b7a6fb1a3b62bca570a9e5d8f4b3de1", "vout": [{"scriptPubKey": {"reqSigs": 1, "hex": "76a91430a042016390c107cb5513c13a9962c091f7782288ac", "addresses": ["15S7R7on2PfbQCvWqog5G95ukcpMFaoLpR"], "asm": "OP_DUP OP_HASH160 30a042016390c107cb5513c13a9962c091f77822 OP_EQUALVERIFY OP_CHECKSIG", "type": "pubkeyhash"}, "value": 0.0046842, "n": 0}, {"scriptPubKey": {"reqSigs": 1, "hex": "76a91433669377f7827785a2a13421609f9ebada16cbbd88ac", "addresses": ["15gnLtkNZrw1Vne3rY3Xh3PX6Mt4Vifjur"], "asm": "OP_DUP OP_HASH160 33669377f7827785a2a13421609f9ebada16cbbd OP_EQUALVERIFY OP_CHECKSIG", "type": "pubkeyhash"}, "value": 0.01428202, "n": 1}], "hex": "0100000001614d7d7ccd73c901a2f4c4037b22931cf08d25f6b3792d89fc1e4a05b641b98b010000006b48304502210082a43a26d67f60d909bfeb9c6f24a02a2902d188536308adec77dbda42cad12d02204bcbc6d0122c8c8b57831be68060d569910e1b4efb5f970753aabfc82fc6ee47012102f50180a1a3c56be97afc7d1d32548f7e9cbbd8682dcca90eba7cb1876f767cbcffffffff02c4250700000000001976a91430a042016390c107cb5513c13a9962c091f7782288aceaca1500000000001976a91433669377f7827785a2a13421609f9ebada16cbbd88ac00000000", "vin": [{"sequence": 4294967295, "scriptSig": {"hex": "48304502210082a43a26d67f60d909bfeb9c6f24a02a2902d188536308adec77dbda42cad12d02204bcbc6d0122c8c8b57831be68060d569910e1b4efb5f970753aabfc82fc6ee47012102f50180a1a3c56be97afc7d1d32548f7e9cbbd8682dcca90eba7cb1876f767cbc", "asm": "304502210082a43a26d67f60d909bfeb9c6f24a02a2902d188536308adec77dbda42cad12d02204bcbc6d0122c8c8b57831be68060d569910e1b4efb5f970753aabfc82fc6ee47[ALL] 02f50180a1a3c56be97afc7d1d32548f7e9cbbd8682dcca90eba7cb1876f767cbc"}, "vout": 1, "txid": "8bb941b6054a1efc892d79b3f6258df01c93227b03c4f4a201c973cd7c7d4d61"}], "txid": "77db91f3fdd751d79f62426bc329938b883b83f0c6b33094632b6ce7770e2189", "blocktime": 1537873282, "version": 1, "confirmations": 11485, "time": 1537873282, "locktime": 0, "vsize": 226, "size": 226}