{"hash": "6dabf4e2e8e73a3dd6c4db9b648f05cf3b6bd54411c4e32a843c71daa4733ffc", "blockhash": "0000000000000000001cda96e906b7601b7a6fb1a3b62bca570a9e5d8f4b3de1", "vout": [{"scriptPubKey": {"reqSigs": 1, "hex": "76a9140873526759fd2972ec7672c2d379c508cfee8d3988ac", "addresses": ["1mgZEvMk84CtZRsZhpS6siK25WZ5dkcap"], "asm": "OP_DUP OP_HASH160 0873526759fd2972ec7672c2d379c508cfee8d39 OP_EQUALVERIFY OP_CHECKSIG", "type": "pubkeyhash"}, "value": 0.0035087, "n": 0}, {"scriptPubKey": {"reqSigs": 1, "hex": "a91455b6b060ec5e574f4d5b2b7b22bae0deeb02743e87", "addresses": ["39WEDJUcEhawAGqqnT4VbzERcpZpQrwBvc"], "asm": "OP_HASH160 55b6b060ec5e574f4d5b2b7b22bae0deeb02743e OP_EQUAL", "type": "scripthash"}, "value": 9.181e-05, "n": 1}], "hex": "0100000000010156e8770f26f931e2dc97b294d067020e3c397085e8a0f102eb91defb3e2d825f0e0000001716001405c42b24fc553ecd9a1a913e538630a04edf42beffffffff02965a0500000000001976a9140873526759fd2972ec7672c2d379c508cfee8d3988acdd2300000000000017a91455b6b060ec5e574f4d5b2b7b22bae0deeb02743e8702483045022100cc37ec75f72db5a36624e20ae3bc2ef64a5294803c8f4dcfde3d0ccd71bff23602206d254a5258e75a18dadb54eb999d62eb0d4d8f4cf4d9165777778fe1c06ce7ca0121031ab27d2df0ee12085c12ef677f92a4c8e6e81c3dc0f2206f54438b2bf01b017900000000", "vin": [{"txinwitness": ["3045022100cc37ec75f72db5a36624e20ae3bc2ef64a5294803c8f4dcfde3d0ccd71bff23602206d254a5258e75a18dadb54eb999d62eb0d4d8f4cf4d9165777778fe1c06ce7ca01", "031ab27d2df0ee12085c12ef677f92a4c8e6e81c3dc0f2206f54438b2bf01b0179"], "sequence": 4294967295, "scriptSig": {"hex": "16001405c42b24fc553ecd9a1a913e538630a04edf42be", "asm": "001405c42b24fc553ecd9a1a913e538630a04edf42be"}, "vout": 14, "txid": "5f822d3efbde91eb02f1a0e88570393c0e0267d094b297dce231f9260f77e856"}], "txid": "77e052a1a6a17bffefd4e0ca75cf72350ffacf0147a94edfb593a82c53e6f907", "blocktime": 1537873282, "version": 1, "confirmations": 11481, "time": 1537873282, "locktime": 0, "vsize": 168, "size": 250}