{"hash": "77e1567736f485d2e4b0856576b9cd5ee7e88f5c6afbcb32f1765ff1f46a70a6", "blockhash": "0000000000000000001cda96e906b7601b7a6fb1a3b62bca570a9e5d8f4b3de1", "vout": [{"scriptPubKey": {"reqSigs": 1, "hex": "76a914ecc74f53cd60d63a0ba98fd073fd56a93ca21f3e88ac", "addresses": ["1NayEZkdox6iGLSmyuvU5Vm6PqyyVr3zQz"], "asm": "OP_DUP OP_HASH160 ecc74f53cd60d63a0ba98fd073fd56a93ca21f3e OP_EQUALVERIFY OP_CHECKSIG", "type": "pubkeyhash"}, "value": 0.01808125, "n": 0}, {"scriptPubKey": {"reqSigs": 1, "hex": "a914c3f4a096f13b2cb316394d06600791127279e5ab87", "addresses": ["3KZ8jxGTsWHVYg2PWWkS9V5K5VgVbKno1X"], "asm": "OP_HASH160 c3f4a096f13b2cb316394d06600791127279e5ab OP_EQUAL", "type": "scripthash"}, "value": 0.05, "n": 1}], "hex": "0100000001034f17ce3527c5b65e6dd0a9ab8fdc65cede0e7fcf1e3fc1a3c387956168b0ee000000006b4830450221009c8295c12d26541f9307d8d140b7d3381f5ce2439c126e11e42cfd735c19e74502203efbdcfdf8fb4bfbefd0e653719504fa552501f6084ec43887e4c2fa3c41ab43012102010556cb7f03a94e2aec175d2466c8dfc15c6d4e5d1fe207c7258384bc93f3bdffffffff02fd961b00000000001976a914ecc74f53cd60d63a0ba98fd073fd56a93ca21f3e88ac404b4c000000000017a914c3f4a096f13b2cb316394d06600791127279e5ab8700000000", "vin": [{"sequence": 4294967295, "scriptSig": {"hex": "4830450221009c8295c12d26541f9307d8d140b7d3381f5ce2439c126e11e42cfd735c19e74502203efbdcfdf8fb4bfbefd0e653719504fa552501f6084ec43887e4c2fa3c41ab43012102010556cb7f03a94e2aec175d2466c8dfc15c6d4e5d1fe207c7258384bc93f3bd", "asm": "30450221009c8295c12d26541f9307d8d140b7d3381f5ce2439c126e11e42cfd735c19e74502203efbdcfdf8fb4bfbefd0e653719504fa552501f6084ec43887e4c2fa3c41ab43[ALL] 02010556cb7f03a94e2aec175d2466c8dfc15c6d4e5d1fe207c7258384bc93f3bd"}, "vout": 0, "txid": "eeb068619587c3a3c13f1ecf7f0edece65dc8faba9d06d5eb6c52735ce174f03"}], "txid": "77e1567736f485d2e4b0856576b9cd5ee7e88f5c6afbcb32f1765ff1f46a70a6", "blocktime": 1537873282, "version": 1, "confirmations": 11484, "time": 1537873282, "locktime": 0, "vsize": 224, "size": 224}