{"hash": "77e58376e424f02b2b91b4f2d123aa94a0cf9c6e4e3225b9c5a686b8aec1c6b2", "blockhash": "0000000000000000000dcc0f55137456b1a82d3642486a52398922ac4d620174", "vout": [{"scriptPubKey": {"reqSigs": 1, "hex": "76a914e42e2ab932db3cedf98ef9e6f5b693ddfa1031f988ac", "addresses": ["1MoWNUCe9JMNrx4xJaLpLKCGUFUreL4GFP"], "asm": "OP_DUP OP_HASH160 e42e2ab932db3cedf98ef9e6f5b693ddfa1031f9 OP_EQUALVERIFY OP_CHECKSIG", "type": "pubkeyhash"}, "value": 4.97655211, "n": 0}], "hex": "0100000001cf6e21796653c67c29334e3932674a1f39b36b5555670751fd429ad7a3f7e742010000006b483045022100fad23c387932dd352e951a0c1d5d4372748e869dcf9f9371f7b85f18cbc8090a022001d1240c59ea4deecca1a3630fea4c8a40706ff544e1e1d4c47d946b2c0ab58501210211fd3db9e345c26c899821283b7372369737e17094ac86a30c04a411cc4bbfacffffffff01ab9da91d000000001976a914e42e2ab932db3cedf98ef9e6f5b693ddfa1031f988ac00000000", "vin": [{"sequence": 4294967295, "scriptSig": {"hex": "483045022100fad23c387932dd352e951a0c1d5d4372748e869dcf9f9371f7b85f18cbc8090a022001d1240c59ea4deecca1a3630fea4c8a40706ff544e1e1d4c47d946b2c0ab58501210211fd3db9e345c26c899821283b7372369737e17094ac86a30c04a411cc4bbfac", "asm": "3045022100fad23c387932dd352e951a0c1d5d4372748e869dcf9f9371f7b85f18cbc8090a022001d1240c59ea4deecca1a3630fea4c8a40706ff544e1e1d4c47d946b2c0ab585[ALL] 0211fd3db9e345c26c899821283b7372369737e17094ac86a30c04a411cc4bbfac"}, "vout": 1, "txid": "42e7f7a3d79a42fd51076755556bb3391f4a6732394e33297cc6536679216ecf"}], "txid": "77e58376e424f02b2b91b4f2d123aa94a0cf9c6e4e3225b9c5a686b8aec1c6b2", "blocktime": 1537870268, "version": 1, "confirmations": 11518, "time": 1537870268, "locktime": 0, "vsize": 192, "size": 192}