{"hash": "77e52447f4fb48e657b2162554fea14e8bf362a60ec47b150e2f7f97aeb2faf5", "blockhash": "00000000000000000017f5eb5941039fbcee6240d03bc1f2f8e35350df66a1d8", "vout": [{"scriptPubKey": {"type": "nulldata", "hex": "6a146f6d6e69000000000000001f000000174ca30580", "asm": "OP_RETURN 6f6d6e69000000000000001f000000174ca30580"}, "value": 0.0, "n": 0}, {"scriptPubKey": {"reqSigs": 1, "hex": "76a914a25dec4d0011064ef106a983c39c7a540699f22088ac", "addresses": ["1FoWyxwPXuj4C6abqwhjDWdz6D4PZgYRjA"], "asm": "OP_DUP OP_HASH160 a25dec4d0011064ef106a983c39c7a540699f220 OP_EQUALVERIFY OP_CHECKSIG", "type": "pubkeyhash"}, "value": 0.01985603, "n": 1}, {"scriptPubKey": {"reqSigs": 1, "hex": "76a9141aeab7d6a60022b3b2ea5b98f1665ea69e1c598288ac", "addresses": ["13TKkVL1GJGM28yr3cRRfVPwS4saznLpPj"], "asm": "OP_DUP OP_HASH160 1aeab7d6a60022b3b2ea5b98f1665ea69e1c5982 OP_EQUALVERIFY OP_CHECKSIG", "type": "pubkeyhash"}, "value": 5.46e-06, "n": 2}], "hex": "0100000001928d0d96711f09fa61030202657115bdea4b840097092e95041e6782b03830e3000000006b483045022100ad40a5924f8ae5ea6c6536c4b7e87cae5bd4657406488780ce87c008bb2178f0022062271b42665c5fbdfae03a98f16b878b5956173d081eb65c3078e56f3cf38362012103da5bac7b36d5aa38f531c6b9601e21bb598a4b6716ebed38b009a55dabde9440feffffff030000000000000000166a146f6d6e69000000000000001f000000174ca30580434c1e00000000001976a914a25dec4d0011064ef106a983c39c7a540699f22088ac22020000000000001976a9141aeab7d6a60022b3b2ea5b98f1665ea69e1c598288ac15490800", "vin": [{"sequence": 4294967294, "scriptSig": {"hex": "483045022100ad40a5924f8ae5ea6c6536c4b7e87cae5bd4657406488780ce87c008bb2178f0022062271b42665c5fbdfae03a98f16b878b5956173d081eb65c3078e56f3cf38362012103da5bac7b36d5aa38f531c6b9601e21bb598a4b6716ebed38b009a55dabde9440", "asm": "3045022100ad40a5924f8ae5ea6c6536c4b7e87cae5bd4657406488780ce87c008bb2178f0022062271b42665c5fbdfae03a98f16b878b5956173d081eb65c3078e56f3cf38362[ALL] 03da5bac7b36d5aa38f531c6b9601e21bb598a4b6716ebed38b009a55dabde9440"}, "vout": 0, "txid": "e33038b082671e04952e099700844beabd15716502020361fa091f71960d8d92"}], "txid": "77e52447f4fb48e657b2162554fea14e8bf362a60ec47b150e2f7f97aeb2faf5", "blocktime": 1537874412, "version": 1, "confirmations": 11467, "time": 1537874412, "locktime": 542997, "vsize": 257, "size": 257}