{"hash": "3dcb9fa1035089fb07743fc7ae5228b021b7e65c0956d85149d9eb279d04e86c", "blockhash": "0000000000000000001cda96e906b7601b7a6fb1a3b62bca570a9e5d8f4b3de1", "vout": [{"scriptPubKey": {"reqSigs": 1, "hex": "76a914bbaec083b5e6b2619a44122d11954d363152fd0488ac", "addresses": ["1J7NhraWXwxB5EzsPgHjvHxXqAAYgWV397"], "asm": "OP_DUP OP_HASH160 bbaec083b5e6b2619a44122d11954d363152fd04 OP_EQUALVERIFY OP_CHECKSIG", "type": "pubkeyhash"}, "value": 0.0033666, "n": 0}, {"scriptPubKey": {"reqSigs": 1, "hex": "a914433c6b878b69f4dcea663b2256b959d20869736e87", "addresses": ["37pXaTJ3bDubYUsYkr348FAfpxx7c3NS7s"], "asm": "OP_HASH160 433c6b878b69f4dcea663b2256b959d20869736e OP_EQUAL", "type": "scripthash"}, "value": 0.01776838, "n": 1}], "hex": "020000000001020c26f76f505fd7d0adc1d31b5cfe959d30a0ef67d23115db9a6d01799dd847560000000017160014152fbf412fd5472b72eb53d29038451ed8cf5388feffffffcf05d11a3c4ad324a38601b187c28e2c19af10753ebe677ed0115ba22f607e67010000001716001463d380ad544a9c80cba3e8745b6e9ae2eeea289afeffffff0214230500000000001976a914bbaec083b5e6b2619a44122d11954d363152fd0488acc61c1b000000000017a914433c6b878b69f4dcea663b2256b959d20869736e8702483045022100f33e9eb1206c6485d0773413a387b4c9b88e5f871d10d08fc44a5d02904f267e02202a884e6052fb5172a106e922cc4d7ce3188a991a52a35929ecea896d3d03d4520121022ef7833d3c8c9f0e8b3f2fc3ae51e9104f7cbd22f3b5c4ac74030b1b13503b460248304502210097a49971ba2afe9f371ecb38d59422f3235ae456eeff1261ff52d9d7a44e25d902206eb0e4d23c786dc0662192b1da79e1353d775153da1c2df72699c318fde4c8b90121036253b5856e90ea8125375bf088c01126ce1f91637084903177d5203961a578e513490800", "vin": [{"txinwitness": ["3045022100f33e9eb1206c6485d0773413a387b4c9b88e5f871d10d08fc44a5d02904f267e02202a884e6052fb5172a106e922cc4d7ce3188a991a52a35929ecea896d3d03d45201", "022ef7833d3c8c9f0e8b3f2fc3ae51e9104f7cbd22f3b5c4ac74030b1b13503b46"], "sequence": 4294967294, "scriptSig": {"hex": "160014152fbf412fd5472b72eb53d29038451ed8cf5388", "asm": "0014152fbf412fd5472b72eb53d29038451ed8cf5388"}, "vout": 0, "txid": "5647d89d79016d9adb1531d267efa0309d95fe5c1bd3c1add0d75f506ff7260c"}, {"txinwitness": ["304502210097a49971ba2afe9f371ecb38d59422f3235ae456eeff1261ff52d9d7a44e25d902206eb0e4d23c786dc0662192b1da79e1353d775153da1c2df72699c318fde4c8b901", "036253b5856e90ea8125375bf088c01126ce1f91637084903177d5203961a578e5"], "sequence": 4294967294, "scriptSig": {"hex": "16001463d380ad544a9c80cba3e8745b6e9ae2eeea289a", "asm": "001463d380ad544a9c80cba3e8745b6e9ae2eeea289a"}, "vout": 1, "txid": "677e602fa25b11d07e67be3e7510af192c8ec287b10186a324d34a3c1ad105cf"}], "txid": "77e503a4b544212808e1fe86e75b673cf144bb8a89367afe243b2b388e3bb749", "blocktime": 1537873282, "version": 2, "confirmations": 11484, "time": 1537873282, "locktime": 542995, "vsize": 259, "size": 422}