{"hash": "0321bd83c50886d6ff1085fe22aa9d67d0f20e9036589a758cb2606972990e3b", "blockhash": "00000000000000000004ffacab907a6b429b9a5745fa0b75af4234bf69dd7176", "vout": [{"scriptPubKey": {"reqSigs": 1, "hex": "a9145a7a070603a63eaee1e4c6deb62df8134f27538487", "addresses": ["39wQvRWQe68TpEQTKmUL2Et96hgJ127r1g"], "asm": "OP_HASH160 5a7a070603a63eaee1e4c6deb62df8134f275384 OP_EQUAL", "type": "scripthash"}, "value": 0.00998094, "n": 0}, {"scriptPubKey": {"reqSigs": 1, "hex": "a914929c6bb692cdd47aa796b37559c47d08778bbf4087", "addresses": ["3F4DxraMTPMgzWBAn9fm8F9dR24s3KfKA5"], "asm": "OP_HASH160 929c6bb692cdd47aa796b37559c47d08778bbf40 OP_EQUAL", "type": "scripthash"}, "value": 0.0047443, "n": 1}], "hex": "02000000000101747619c51867f8c7eeb76ca9b31e3d12aceec54eb0f0ea0e7c508c5081717bbf0000000017160014d89876b0674fa3811afd1bf4ad18e63d607a2f8dfeffffff02ce3a0f000000000017a9145a7a070603a63eaee1e4c6deb62df8134f275384873e3d07000000000017a914929c6bb692cdd47aa796b37559c47d08778bbf408702473044022057ec1f16ad9528b6456d02e82235bf8fc6061abe1b50a053c713cb2cdd77fcd4022029539fe8e80844b62c753cbd44da1732e73c6a834a4d8895b0c1dea45c6c50ba0121026b16f370ad8a7a6bb3e40162ef812ed2a6f85961d99629ac77727502091a60f515490800", "vin": [{"txinwitness": ["3044022057ec1f16ad9528b6456d02e82235bf8fc6061abe1b50a053c713cb2cdd77fcd4022029539fe8e80844b62c753cbd44da1732e73c6a834a4d8895b0c1dea45c6c50ba01", "026b16f370ad8a7a6bb3e40162ef812ed2a6f85961d99629ac77727502091a60f5"], "sequence": 4294967294, "scriptSig": {"hex": "160014d89876b0674fa3811afd1bf4ad18e63d607a2f8d", "asm": "0014d89876b0674fa3811afd1bf4ad18e63d607a2f8d"}, "vout": 0, "txid": "bf7b7181508c507c0eeaf0b04ec5eeac123d1eb3a96cb7eec7f86718c5197674"}], "txid": "77e70b3ee0d71c7c4d900936b9c264e18a64081153ad4e4ee533115212495a83", "blocktime": 1537875543, "version": 2, "confirmations": 11464, "time": 1537875543, "locktime": 542997, "vsize": 166, "size": 247}