{"hash": "5c8a3e2af5bb79b3304eef75a212069909e0465c58abfb5134ed4b5db57292be", "blockhash": "00000000000000000018f53835495a110e01622372bf6ae95dc86f2b0ab887b0", "vout": [{"scriptPubKey": {"reqSigs": 1, "hex": "a914fc344875e5bf7c7f0152140a28be50e5fc98779f87", "addresses": ["3QgYqaJNp4nyVs9vV3PRZb5XvSBMCNNBJv"], "asm": "OP_HASH160 fc344875e5bf7c7f0152140a28be50e5fc98779f OP_EQUAL", "type": "scripthash"}, "value": 0.18479669, "n": 0}, {"scriptPubKey": {"reqSigs": 1, "hex": "a9144e857ca14f8a672cbd11798619de8f58b814cea487", "addresses": ["38rCYLMaGVyqkZcevyuEcFWsuXaRHf3LKD"], "asm": "OP_HASH160 4e857ca14f8a672cbd11798619de8f58b814cea4 OP_EQUAL", "type": "scripthash"}, "value": 0.70182875, "n": 1}], "hex": "02000000000102a7cf0d85bef9e98581125af3a6b827c3d5e1720f9aabe6422a6238f23a3c8f5001000000171600144f19c0ac38f2181e21f7852ce3adb652ddc483f5fdffffffaa94d4d51247a3e248ae8add869e0e7012baf1cfdf4df7a85f0dcba150a7964a0000000017160014e910a1e2bbb7741c4e1ab6709ae56db65daa4a4cfdffffff0235fa19010000000017a914fc344875e5bf7c7f0152140a28be50e5fc98779f87dbe72e040000000017a9144e857ca14f8a672cbd11798619de8f58b814cea4870248304502210082e146d142e1c35e394447e9b4127a024bfaef4c72fcdfe24e7b61d8ddd4570b02203f9d0d6de238a2e31963f1d950b4169eb9d85b30bbba9017e335a45af5c16ab4012103ae46ad0fc137fa25a6aa4d2976a9933ff5fb7a691ba35bc5c68e8829bf0935610247304402203d79f5e817531e39c37fc1695a444a0273b4c6c7997fe1338dc84e88814c64a402200fb76f0991914da18b8cf047915de8c819c0c689a200533690a64e4095c7aa8f012103d72ce5fe283cba65846fb71798dc29c78aabb35ec468ad8f9dec7ccc23f22c0a0e490800", "vin": [{"txinwitness": ["304502210082e146d142e1c35e394447e9b4127a024bfaef4c72fcdfe24e7b61d8ddd4570b02203f9d0d6de238a2e31963f1d950b4169eb9d85b30bbba9017e335a45af5c16ab401", "03ae46ad0fc137fa25a6aa4d2976a9933ff5fb7a691ba35bc5c68e8829bf093561"], "sequence": 4294967293, "scriptSig": {"hex": "1600144f19c0ac38f2181e21f7852ce3adb652ddc483f5", "asm": "00144f19c0ac38f2181e21f7852ce3adb652ddc483f5"}, "vout": 1, "txid": "508f3c3af238622a42e6ab9a0f72e1d5c327b8a6f35a128185e9f9be850dcfa7"}, {"txinwitness": ["304402203d79f5e817531e39c37fc1695a444a0273b4c6c7997fe1338dc84e88814c64a402200fb76f0991914da18b8cf047915de8c819c0c689a200533690a64e4095c7aa8f01", "03d72ce5fe283cba65846fb71798dc29c78aabb35ec468ad8f9dec7ccc23f22c0a"], "sequence": 4294967293, "scriptSig": {"hex": "160014e910a1e2bbb7741c4e1ab6709ae56db65daa4a4c", "asm": "0014e910a1e2bbb7741c4e1ab6709ae56db65daa4a4c"}, "vout": 0, "txid": "4a96a750a1cb0d5fa8f74ddfcff1ba12700e9e86dd8aae48e2a34712d5d494aa"}], "txid": "77ec49aa356f40f3802b1f9290a73e62e72a5a9e4ff120309e750d247d8019f7", "blocktime": 1537870928, "version": 2, "confirmations": 11512, "time": 1537870928, "locktime": 542990, "vsize": 257, "size": 419}