{"hash": "77ef087165819b8bbc487578a6bdc645b5dd07316253bd0edf5173fd9db2d148", "blockhash": "00000000000000000024a2167bbff67b0be802c0b01cdd79e6331c2be6459f87", "vout": [{"scriptPubKey": {"reqSigs": 1, "hex": "76a9141af44169bed73b62ec2dcfbb2d43d2e188a283d988ac", "addresses": ["13TXBACdpyQ24xFETPDFxXDM8GStrMrwaj"], "asm": "OP_DUP OP_HASH160 1af44169bed73b62ec2dcfbb2d43d2e188a283d9 OP_EQUALVERIFY OP_CHECKSIG", "type": "pubkeyhash"}, "value": 37.50465412, "n": 0}, {"scriptPubKey": {"reqSigs": 1, "hex": "76a914eb7939fb4884fa61111ac30352526f662eadb48488ac", "addresses": ["1NU523aH6jp9shpW65ZaZZufHNErm873jf"], "asm": "OP_DUP OP_HASH160 eb7939fb4884fa61111ac30352526f662eadb484 OP_EQUALVERIFY OP_CHECKSIG", "type": "pubkeyhash"}, "value": 0.0156082, "n": 1}], "hex": "010000000150f4ff79dbdfba6ac35d24de5aef592e11e70978bd1eba64fae998e874097fbf010000006b483045022100e6bc0a744643552913149e8a76b18ad7e14d013de62224c48d87e8cc0ac83d7102206ff76b8561aa254693d4aedeffb07ee4379ee455a238c44292bb47e52f2fcc4501210260fa9aa7f76dbc7e568c00688a7995cbad01fb50f3a13a3e0f49d6b27ed9dfbcffffffff02848f8bdf000000001976a9141af44169bed73b62ec2dcfbb2d43d2e188a283d988acf4d01700000000001976a914eb7939fb4884fa61111ac30352526f662eadb48488ac00000000", "vin": [{"sequence": 4294967295, "scriptSig": {"hex": "483045022100e6bc0a744643552913149e8a76b18ad7e14d013de62224c48d87e8cc0ac83d7102206ff76b8561aa254693d4aedeffb07ee4379ee455a238c44292bb47e52f2fcc4501210260fa9aa7f76dbc7e568c00688a7995cbad01fb50f3a13a3e0f49d6b27ed9dfbc", "asm": "3045022100e6bc0a744643552913149e8a76b18ad7e14d013de62224c48d87e8cc0ac83d7102206ff76b8561aa254693d4aedeffb07ee4379ee455a238c44292bb47e52f2fcc45[ALL] 0260fa9aa7f76dbc7e568c00688a7995cbad01fb50f3a13a3e0f49d6b27ed9dfbc"}, "vout": 1, "txid": "bf7f0974e898e9fa64ba1ebd7809e7112e59ef5ade245dc36abadfdb79fff450"}], "txid": "77ef087165819b8bbc487578a6bdc645b5dd07316253bd0edf5173fd9db2d148", "blocktime": 1537870564, "version": 1, "confirmations": 11515, "time": 1537870564, "locktime": 0, "vsize": 226, "size": 226}