{"hash": "6c92df52d6b31af4e2189e647ed2c76a7ab2bb56c906c58fe557614578e79296", "blockhash": "0000000000000000001cda96e906b7601b7a6fb1a3b62bca570a9e5d8f4b3de1", "vout": [{"scriptPubKey": {"reqSigs": 1, "hex": "a914e3df86940f40ba6be7240ad0fb7ad0a37ba985e387", "addresses": ["3NTu5viUqpDcKcExuqm9vZ7brh45ghvHgf"], "asm": "OP_HASH160 e3df86940f40ba6be7240ad0fb7ad0a37ba985e3 OP_EQUAL", "type": "scripthash"}, "value": 1.15258566, "n": 0}, {"scriptPubKey": {"reqSigs": 1, "hex": "a9144738e2325f7c799bdfab5aac9cf285ef6175474c87", "addresses": ["38Bc3WCSyzcuwKtSVHQe8po5YXY9GEvJyj"], "asm": "OP_HASH160 4738e2325f7c799bdfab5aac9cf285ef6175474c OP_EQUAL", "type": "scripthash"}, "value": 0.048, "n": 1}], "hex": "02000000000101b59b0a422addb0cbbda23aaffd18860fea5f6a62fcfb097902e0e2f6fe246c0200000000171600143a312e600591f07e3fb149bb20236030a821b6a4ffffffff02c6b4de060000000017a914e3df86940f40ba6be7240ad0fb7ad0a37ba985e387003e49000000000017a9144738e2325f7c799bdfab5aac9cf285ef6175474c8702483045022100c040f2dbd13bd56f0a1fdbeda7e3cb8c11a9257ac440479c13636b28faf2836002204090ede1ac02bad3572d40131dd11caf3740f733f4bf553000283a866b54a35601210206ac679e7536e38d1740620de9c4299c62e4bf3d73ce6f34d08f796d6b4c290d00000000", "vin": [{"txinwitness": ["3045022100c040f2dbd13bd56f0a1fdbeda7e3cb8c11a9257ac440479c13636b28faf2836002204090ede1ac02bad3572d40131dd11caf3740f733f4bf553000283a866b54a35601", "0206ac679e7536e38d1740620de9c4299c62e4bf3d73ce6f34d08f796d6b4c290d"], "sequence": 4294967295, "scriptSig": {"hex": "1600143a312e600591f07e3fb149bb20236030a821b6a4", "asm": "00143a312e600591f07e3fb149bb20236030a821b6a4"}, "vout": 0, "txid": "026c24fef6e2e0027909fbfc626a5fea0f8618fdaf3aa2bdcbb0dd2a420a9bb5"}], "txid": "77f0c501a872d8d4fb742640f6fc2d24e0f4e457a74d6b4f27be67c337d113e3", "blocktime": 1537873282, "version": 2, "confirmations": 11484, "time": 1537873282, "locktime": 0, "vsize": 166, "size": 248}