{"hash": "1d1461f474b029c6f4379ed76e5ef6a57c549c1f1ff3a2465f2ab8dbde23395a", "blockhash": "0000000000000000001f76057863aec43deb6fa401d9628bb513d65a8098bfab", "vout": [{"scriptPubKey": {"reqSigs": 1, "hex": "76a914f8be5a0c74b633996532e3fa3601413cde3cf61788ac", "addresses": ["1PgEcSqvTRhWoqgeDTp1sEH19Zy2msyTbJ"], "asm": "OP_DUP OP_HASH160 f8be5a0c74b633996532e3fa3601413cde3cf617 OP_EQUALVERIFY OP_CHECKSIG", "type": "pubkeyhash"}, "value": 0.01553189, "n": 0}, {"scriptPubKey": {"reqSigs": 1, "hex": "a9144c5e461c584552753288385d1d5a8519bb927d6687", "addresses": ["38epDPMPW5LWgbEog9noGvRDKDq6LRq61F"], "asm": "OP_HASH160 4c5e461c584552753288385d1d5a8519bb927d66 OP_EQUAL", "type": "scripthash"}, "value": 0.01000119, "n": 1}], "hex": "020000000001050cd51a7c610c4a4ceb24e675febfa9fc7d17a7902013ff3d90954788c93e3f750100000017160014d65a413b6e01f44dc69c1c650328fc3cfbcd2518feffffff4e9910ee12d10d6a4323f7c49d52f592ca3aed8f79387f768c80d8e7bd552c8e01000000171600141b7b8b2901e4917fc3878d2deb5664231019d853feffffff51b2735f2f6a420049b2efb03a20d670e9c437973f4904d5297bdf5d1b6f996700000000171600147e2181199fa8b37673c4186d8a8181c0c214860cfeffffff9a602903668ddd036e732362262899eae4a3032ae4fa5a6cf593f874902f1c6d00000000171600142cb0c38939e17da27f8a8b4b37fd5cdb4eda1f19fefffffff01a12cf938bc2f37700db3e9f7e1f04b1d8f697571691c7dcba0f0e6b2c7fd001000000171600142cec58e7e639ab4a4f7d6242fc4427c0ccb6bb22feffffff0225b31700000000001976a914f8be5a0c74b633996532e3fa3601413cde3cf61788acb7420f000000000017a9144c5e461c584552753288385d1d5a8519bb927d66870247304402206f5a72240206517942b8cc3ad62d7bae70cfdbbda891bf4847a6e171f8e0b41c02206ed1786855080c5a2a2f607f2ad2174e0699817141d711bbfd3a2d12e45067f0012102f786b78d8d64613b3ab69be90524d285f6fd99a966e72b61aa8ab24a5f89ed200247304402201caf3cae31ddac5cf3f9ed9deacd20f5536c0ea2fbdfe98cddfda54cc4675f7e02201943428e33aa09f1bc92e74fdab6e71892f47d48033131c2e655a6e19e873381012103092db96c882bffeaf10ccf80f844d8e52abd98127d1cd6756cd572cfda7dfda802483045022100cbf936baf6fcd0d86e026375eb302e324ef76d89e73a483ea1abd295710e0c7302207555fa4572c81349ce5e2be740b3eae6d51ecffe5d99244f2805501f44d9bdc90121031586642fd207a1b3f500dfed2c2377da1d0dbfd82a6d24d4ab949da7b70eed0c02483045022100edd828b3518ce8a32dfac7151241d7b1d328a88f80f7f79fb7ebb3e69d825fe0022009daf4a401875316ac0d6b825ff10a3db45d971bd14d13be43681467fba995ae012102e27cb387779834c2352873ef1a279d390daf2c56eec97db781e5581e99da3d9102483045022100c4bb9e7949549e24709f18584858d92abd7ed91be2f8d65d8924ed48ded2922202205a63a3bbb78d48762dd38b5e5d2a7f6af00bd1e73483b6de366cb4488388f51b012103b457ec43b58db8316f99e5d68f57845ff99f1974a167155367454644e68fd75614490800", "vin": [{"txinwitness": ["304402206f5a72240206517942b8cc3ad62d7bae70cfdbbda891bf4847a6e171f8e0b41c02206ed1786855080c5a2a2f607f2ad2174e0699817141d711bbfd3a2d12e45067f001", "02f786b78d8d64613b3ab69be90524d285f6fd99a966e72b61aa8ab24a5f89ed20"], "sequence": 4294967294, "scriptSig": {"hex": "160014d65a413b6e01f44dc69c1c650328fc3cfbcd2518", "asm": "0014d65a413b6e01f44dc69c1c650328fc3cfbcd2518"}, "vout": 1, "txid": "753f3ec9884795903dff132090a7177dfca9bffe75e624eb4c4a0c617c1ad50c"}, {"txinwitness": ["304402201caf3cae31ddac5cf3f9ed9deacd20f5536c0ea2fbdfe98cddfda54cc4675f7e02201943428e33aa09f1bc92e74fdab6e71892f47d48033131c2e655a6e19e87338101", "03092db96c882bffeaf10ccf80f844d8e52abd98127d1cd6756cd572cfda7dfda8"], "sequence": 4294967294, "scriptSig": {"hex": "1600141b7b8b2901e4917fc3878d2deb5664231019d853", "asm": "00141b7b8b2901e4917fc3878d2deb5664231019d853"}, "vout": 1, "txid": "8e2c55bde7d8808c767f38798fed3aca92f5529dc4f723436a0dd112ee10994e"}, {"txinwitness": ["3045022100cbf936baf6fcd0d86e026375eb302e324ef76d89e73a483ea1abd295710e0c7302207555fa4572c81349ce5e2be740b3eae6d51ecffe5d99244f2805501f44d9bdc901", "031586642fd207a1b3f500dfed2c2377da1d0dbfd82a6d24d4ab949da7b70eed0c"], "sequence": 4294967294, "scriptSig": {"hex": "1600147e2181199fa8b37673c4186d8a8181c0c214860c", "asm": "00147e2181199fa8b37673c4186d8a8181c0c214860c"}, "vout": 0, "txid": "67996f1b5ddf7b29d504493f9737c4e970d6203ab0efb24900426a2f5f73b251"}, {"txinwitness": ["3045022100edd828b3518ce8a32dfac7151241d7b1d328a88f80f7f79fb7ebb3e69d825fe0022009daf4a401875316ac0d6b825ff10a3db45d971bd14d13be43681467fba995ae01", "02e27cb387779834c2352873ef1a279d390daf2c56eec97db781e5581e99da3d91"], "sequence": 4294967294, "scriptSig": {"hex": "1600142cb0c38939e17da27f8a8b4b37fd5cdb4eda1f19", "asm": "00142cb0c38939e17da27f8a8b4b37fd5cdb4eda1f19"}, "vout": 0, "txid": "6d1c2f9074f893f56c5afae42a03a3e4ea9928266223736e03dd8d660329609a"}, {"txinwitness": ["3045022100c4bb9e7949549e24709f18584858d92abd7ed91be2f8d65d8924ed48ded2922202205a63a3bbb78d48762dd38b5e5d2a7f6af00bd1e73483b6de366cb4488388f51b01", "03b457ec43b58db8316f99e5d68f57845ff99f1974a167155367454644e68fd756"], "sequence": 4294967294, "scriptSig": {"hex": "1600142cec58e7e639ab4a4f7d6242fc4427c0ccb6bb22", "asm": "00142cec58e7e639ab4a4f7d6242fc4427c0ccb6bb22"}, "vout": 1, "txid": "d07f2c6b0e0fbadcc791165797f6d8b1041f7e9f3edb0077f3c28b93cf121af0"}], "txid": "77f0b70046f8878f8dca3f303a1655e995eecfaeb4577d1f9c72fc231d0e3eb5", "blocktime": 1537873891, "version": 2, "confirmations": 11478, "time": 1537873891, "locktime": 542996, "vsize": 531, "size": 936}