{"hash": "77f1067359d804bf8f0c925be768b2f27eccf4920eef04723ff0d59604d236a9", "blockhash": "0000000000000000000e13cef7c366c0283d82e591d1acd082e914b08063cdf1", "vout": [{"scriptPubKey": {"reqSigs": 1, "hex": "76a914d79b7659a2adc0e363f6cd7af8208d88e9b7cb1c88ac", "addresses": ["1Lf2WxKqJgSUe2dQxQLPARZXYbrFWbcE1J"], "asm": "OP_DUP OP_HASH160 d79b7659a2adc0e363f6cd7af8208d88e9b7cb1c OP_EQUALVERIFY OP_CHECKSIG", "type": "pubkeyhash"}, "value": 0.00028125, "n": 0}, {"scriptPubKey": {"reqSigs": 1, "hex": "76a9149c8c3aa742473d7349983ee1066e7b225547642688ac", "addresses": ["1FGkQDV5gNqFHcNJQtFKdztQMYA1sz12Wv"], "asm": "OP_DUP OP_HASH160 9c8c3aa742473d7349983ee1066e7b2255476426 OP_EQUALVERIFY OP_CHECKSIG", "type": "pubkeyhash"}, "value": 0.00516699, "n": 1}], "hex": "02000000016df2e6ab73717b393a25a154b3a7f4bff91a03032091377bcbd1f8290c28fb3c010000006b4830450221009c125cea1309870116cb0e9c872f1a9cf1be51801baa800a9061bfa35ccd0d3c022021ba51dad8a5330b7b33cfeca93541913ff7be564d243aa674d0f648818e7c1e012103498fa49c202a024c25368995052d0c5eac24467c995d546950fa691e0359d0fdffffffff02dd6d0000000000001976a914d79b7659a2adc0e363f6cd7af8208d88e9b7cb1c88ac5be20700000000001976a9149c8c3aa742473d7349983ee1066e7b225547642688ac00000000", "vin": [{"sequence": 4294967295, "scriptSig": {"hex": "4830450221009c125cea1309870116cb0e9c872f1a9cf1be51801baa800a9061bfa35ccd0d3c022021ba51dad8a5330b7b33cfeca93541913ff7be564d243aa674d0f648818e7c1e012103498fa49c202a024c25368995052d0c5eac24467c995d546950fa691e0359d0fd", "asm": "30450221009c125cea1309870116cb0e9c872f1a9cf1be51801baa800a9061bfa35ccd0d3c022021ba51dad8a5330b7b33cfeca93541913ff7be564d243aa674d0f648818e7c1e[ALL] 03498fa49c202a024c25368995052d0c5eac24467c995d546950fa691e0359d0fd"}, "vout": 1, "txid": "3cfb280c29f8d1cb7b37912003031af9bff4a7b354a1253a397b7173abe6f26d"}], "txid": "77f1067359d804bf8f0c925be768b2f27eccf4920eef04723ff0d59604d236a9", "blocktime": 1537871767, "version": 2, "confirmations": 11493, "time": 1537871767, "locktime": 0, "vsize": 226, "size": 226}