{"hash": "77f53108d8a55b949d10d5112722511311d45302b01852ad55479a72d99aaca7", "blockhash": "0000000000000000000e13cef7c366c0283d82e591d1acd082e914b08063cdf1", "vout": [{"scriptPubKey": {"reqSigs": 1, "hex": "76a914fdb69736fa9779c869deebb482d80ca4bcf6edf688ac", "addresses": ["1Q8WhA4FaE6U5AGZauZ5kUyYiXzjDJhKff"], "asm": "OP_DUP OP_HASH160 fdb69736fa9779c869deebb482d80ca4bcf6edf6 OP_EQUALVERIFY OP_CHECKSIG", "type": "pubkeyhash"}, "value": 0.00050081, "n": 0}, {"scriptPubKey": {"reqSigs": 1, "hex": "a91493be1717bd7cb6f41ecfeab9db43fb13ff794dbc87", "addresses": ["3FACySakex8LFyLKH1AXcyhmxu7sBqstfz"], "asm": "OP_HASH160 93be1717bd7cb6f41ecfeab9db43fb13ff794dbc OP_EQUAL", "type": "scripthash"}, "value": 0.0015627, "n": 1}], "hex": "0100000001814d636ba92eb607364f97d9f4a7d105ab93ff1733dc888fbb9986752c6f0794000000006b483045022100e33389556afc99fdebbba46210532a0020c123da54978af28e93dd0a975f6ba30220582b9c1f3c5e71e907a3479c4e1921b632557b329fc697bb37dbd2cab222bad40121027335776c8222fdba6534b8d31eff41fb600e0d4307a06cfb6950d4ba351d6d35ffffffff02a1c30000000000001976a914fdb69736fa9779c869deebb482d80ca4bcf6edf688ac6e6202000000000017a91493be1717bd7cb6f41ecfeab9db43fb13ff794dbc8700000000", "vin": [{"sequence": 4294967295, "scriptSig": {"hex": "483045022100e33389556afc99fdebbba46210532a0020c123da54978af28e93dd0a975f6ba30220582b9c1f3c5e71e907a3479c4e1921b632557b329fc697bb37dbd2cab222bad40121027335776c8222fdba6534b8d31eff41fb600e0d4307a06cfb6950d4ba351d6d35", "asm": "3045022100e33389556afc99fdebbba46210532a0020c123da54978af28e93dd0a975f6ba30220582b9c1f3c5e71e907a3479c4e1921b632557b329fc697bb37dbd2cab222bad4[ALL] 027335776c8222fdba6534b8d31eff41fb600e0d4307a06cfb6950d4ba351d6d35"}, "vout": 0, "txid": "94076f2c758699bb8f88dc3317ff93ab05d1a7f4d9974f3607b62ea96b634d81"}], "txid": "77f53108d8a55b949d10d5112722511311d45302b01852ad55479a72d99aaca7", "blocktime": 1537871767, "version": 1, "confirmations": 11495, "time": 1537871767, "locktime": 0, "vsize": 224, "size": 224}