{"hash": "dc396b36ad0ec8499adb24275e3fff904c17e6816610422b5e254ce82cfacad1", "blockhash": "00000000000000000004ffacab907a6b429b9a5745fa0b75af4234bf69dd7176", "vout": [{"scriptPubKey": {"reqSigs": 1, "hex": "a914ca1b02bfa965055fbedd7376fd397c6dc6e0650d87", "addresses": ["3L7en2qGxGEAKFYCv8gRnnUAvYjB9tTWTj"], "asm": "OP_HASH160 ca1b02bfa965055fbedd7376fd397c6dc6e0650d OP_EQUAL", "type": "scripthash"}, "value": 0.5, "n": 0}, {"scriptPubKey": {"reqSigs": 1, "hex": "a91469f374806336bbf4a3d4bc9a803652190e9fab8787", "addresses": ["3BMEXEyTM5VvK16x6rtsedV8osht4R1k1S"], "asm": "OP_HASH160 69f374806336bbf4a3d4bc9a803652190e9fab87 OP_EQUAL", "type": "scripthash"}, "value": 0.02735178, "n": 1}, {"scriptPubKey": {"reqSigs": 1, "hex": "76a914de129748118e1cfd3354c5cb6d60afb5124c2c9388ac", "addresses": ["1MFDHJrGLBzRByJZKkK7vaY1BpdPXFkzzo"], "asm": "OP_DUP OP_HASH160 de129748118e1cfd3354c5cb6d60afb5124c2c93 OP_EQUALVERIFY OP_CHECKSIG", "type": "pubkeyhash"}, "value": 0.0185617, "n": 2}, {"scriptPubKey": {"reqSigs": 1, "hex": "a914dcd69466d60ab071ade2d2e609f61db23134eeb887", "addresses": ["3Mphe1Eyv9scf3mH5Zrh1hCtaU1H3Qu1Ek"], "asm": "OP_HASH160 dcd69466d60ab071ade2d2e609f61db23134eeb8 OP_EQUAL", "type": "scripthash"}, "value": 0.2616782, "n": 3}, {"scriptPubKey": {"reqSigs": 1, "hex": "0020701a8d401c84fb13e6baf169d59684e17abd9fa216c8cc5b9fc63d622ff8c58d", "addresses": ["bc1qwqdg6squsna38e46795at95yu9atm8azzmyvckulcc7kytlcckxswvvzej"], "asm": "0 701a8d401c84fb13e6baf169d59684e17abd9fa216c8cc5b9fc63d622ff8c58d", "type": "witness_v0_scripthash"}, "value": 1.70750327, "n": 4}], "hex": "010000000001015b2909633037e5561ae6c9b0d7091668788a27bebf764a0782844ab12e81c4920400000000ffffffff0580f0fa020000000017a914ca1b02bfa965055fbedd7376fd397c6dc6e0650d874abc29000000000017a91469f374806336bbf4a3d4bc9a803652190e9fab8787aa521c00000000001976a914de129748118e1cfd3354c5cb6d60afb5124c2c9388ac0c4a8f010000000017a914dcd69466d60ab071ade2d2e609f61db23134eeb88777712d0a00000000220020701a8d401c84fb13e6baf169d59684e17abd9fa216c8cc5b9fc63d622ff8c58d0400473044022043dcde5b23f354ac57c8b65b2d38d851e0a3e41409e3e6db08ff3482dd65c6530220675a1eb88faeb48d9795f7586e66c8204d9dde2b64c8a1a494709f6953e6334101473044022063192a4e166a22d6ff5b839aedea4927bf2ad11a19053043bc35f811b9aac72502207690973de329217cd2798c3fa9acfab966f8766decc09ccbbb11ede7870ce5db016952210375e00eb72e29da82b89367947f29ef34afb75e8654f6ea368e0acdfd92976b7c2103a1b26313f430c4b15bb1fdce663207659d8cac749a0e53d70eff01874496feff2103c96d495bfdd5ba4145e3e046fee45e84a8a48ad05bd8dbb395c011a32cf9f88053ae00000000", "vin": [{"txinwitness": ["", "3044022043dcde5b23f354ac57c8b65b2d38d851e0a3e41409e3e6db08ff3482dd65c6530220675a1eb88faeb48d9795f7586e66c8204d9dde2b64c8a1a494709f6953e6334101", "3044022063192a4e166a22d6ff5b839aedea4927bf2ad11a19053043bc35f811b9aac72502207690973de329217cd2798c3fa9acfab966f8766decc09ccbbb11ede7870ce5db01", "52210375e00eb72e29da82b89367947f29ef34afb75e8654f6ea368e0acdfd92976b7c2103a1b26313f430c4b15bb1fdce663207659d8cac749a0e53d70eff01874496feff2103c96d495bfdd5ba4145e3e046fee45e84a8a48ad05bd8dbb395c011a32cf9f88053ae"], "sequence": 4294967295, "scriptSig": {"hex": "", "asm": ""}, "vout": 4, "txid": "92c4812eb14a8482074a76bfbe278a78681609d7b0c9e61a56e537306309295b"}], "txid": "77fa981feed0613fc4308b31166f2babe470763d2a62d9212be439663883c1b8", "blocktime": 1537875543, "version": 1, "confirmations": 11464, "time": 1537875543, "locktime": 0, "vsize": 288, "size": 478}