{"hash": "fd669e8d4c34c938f6d942fd2b9115a2a7cb54f7f4e58387b080a8f257aa1de8", "blockhash": "0000000000000000000baef3f32e3676a92c3b2e5da21b426e4f302fc371ce76", "vout": [{"scriptPubKey": {"reqSigs": 1, "hex": "76a914915f4bf7cb75d7af488a14ab62f1f1099875a3cb88ac", "addresses": ["1EFf99gUkXwzxcAH4ZGPPPXtXm4hV6ysDA"], "asm": "OP_DUP OP_HASH160 915f4bf7cb75d7af488a14ab62f1f1099875a3cb OP_EQUALVERIFY OP_CHECKSIG", "type": "pubkeyhash"}, "value": 0.01047566, "n": 0}, {"scriptPubKey": {"reqSigs": 1, "hex": "a9148ec01dc3b891c3f0a1a9c52e7ef6ec942de0148f87", "addresses": ["3Ehp2FoLDdHjxcfHKAMtS6pBxvYXFGZEpP"], "asm": "OP_HASH160 8ec01dc3b891c3f0a1a9c52e7ef6ec942de0148f OP_EQUAL", "type": "scripthash"}, "value": 10.81052985, "n": 1}], "hex": "02000000000101246bd0dd6c6105a25778201fbe0b953589d44043f90e02eb4414f416decccb540000000017160014e1af3ca7e0803dea5440be6d1c4a57570ddc7f12feffffff020efc0f00000000001976a914915f4bf7cb75d7af488a14ab62f1f1099875a3cb88ac398f6f400000000017a9148ec01dc3b891c3f0a1a9c52e7ef6ec942de0148f87024730440220528b3a9d9bef352d5bb91cf07e28bfd77408ada4230ac372d7d91f95128c36af02202b08e650facdd2305848d0376fc51a93182ee53e2ff532306e4d559eea3964990121021dc35ce6284559fccb95ec58859d5ea927a3e52fa5f723fda75fefd3f2ee8cadb7480800", "vin": [{"txinwitness": ["30440220528b3a9d9bef352d5bb91cf07e28bfd77408ada4230ac372d7d91f95128c36af02202b08e650facdd2305848d0376fc51a93182ee53e2ff532306e4d559eea39649901", "021dc35ce6284559fccb95ec58859d5ea927a3e52fa5f723fda75fefd3f2ee8cad"], "sequence": 4294967294, "scriptSig": {"hex": "160014e1af3ca7e0803dea5440be6d1c4a57570ddc7f12", "asm": "0014e1af3ca7e0803dea5440be6d1c4a57570ddc7f12"}, "vout": 0, "txid": "54cbccde16f41444eb020ef94340d48935950bbe1f207857a205616cddd06b24"}], "txid": "77fcc15e0d36f3c936b61cdedd6992796cb15843cdc7f592007a6940b6d332bf", "blocktime": 1537876114, "version": 2, "confirmations": 11460, "time": 1537876114, "locktime": 542903, "vsize": 168, "size": 249}