{"hash": "7801a61105240e2fb2acc33da2f25e64680a6c2d2bd89a0c46d4c975362b0679", "blockhash": "0000000000000000001cda96e906b7601b7a6fb1a3b62bca570a9e5d8f4b3de1", "vout": [{"scriptPubKey": {"type": "nulldata", "hex": "6a146f6d6e69000000000000001f0000000038074300", "asm": "OP_RETURN 6f6d6e69000000000000001f0000000038074300"}, "value": 0.0, "n": 0}, {"scriptPubKey": {"reqSigs": 1, "hex": "76a914882cc4f54c2ea08d18892bb11ab27fc43e466e7188ac", "addresses": ["1DR2XiiEjs91cTtp1LxyqEKm5ihNABmRZ7"], "asm": "OP_DUP OP_HASH160 882cc4f54c2ea08d18892bb11ab27fc43e466e71 OP_EQUALVERIFY OP_CHECKSIG", "type": "pubkeyhash"}, "value": 0.11161844, "n": 1}, {"scriptPubKey": {"reqSigs": 1, "hex": "76a9143c4f86bb2d18c19f0afde122b645b9867df787d688ac", "addresses": ["16Vtp6RnFtc89PHhoiWBVeEf7VyNHn3gQA"], "asm": "OP_DUP OP_HASH160 3c4f86bb2d18c19f0afde122b645b9867df787d6 OP_EQUALVERIFY OP_CHECKSIG", "type": "pubkeyhash"}, "value": 5.46e-06, "n": 2}], "hex": "010000000153b13b613471a9ae40038b9a2669836b67daa8e95a93a4b381bbed6e5b79d7c3000000006a47304402205c4f0c30366b205998bddfffd8f4e16abde4eb93857a585867a37c8fe3ce01b402205035b47f66097a2edf1d7f9690a9932b4e4451ffe6b243b92f4f4896c161eed0012102d7800c61a710c2c233322b2fbdcbbd492c162678a6cf6e859c3b7322e14189eefeffffff030000000000000000166a146f6d6e69000000000000001f0000000038074300f450aa00000000001976a914882cc4f54c2ea08d18892bb11ab27fc43e466e7188ac22020000000000001976a9143c4f86bb2d18c19f0afde122b645b9867df787d688ac13490800", "vin": [{"sequence": 4294967294, "scriptSig": {"hex": "47304402205c4f0c30366b205998bddfffd8f4e16abde4eb93857a585867a37c8fe3ce01b402205035b47f66097a2edf1d7f9690a9932b4e4451ffe6b243b92f4f4896c161eed0012102d7800c61a710c2c233322b2fbdcbbd492c162678a6cf6e859c3b7322e14189ee", "asm": "304402205c4f0c30366b205998bddfffd8f4e16abde4eb93857a585867a37c8fe3ce01b402205035b47f66097a2edf1d7f9690a9932b4e4451ffe6b243b92f4f4896c161eed0[ALL] 02d7800c61a710c2c233322b2fbdcbbd492c162678a6cf6e859c3b7322e14189ee"}, "vout": 0, "txid": "c3d7795b6eedbb81b3a4935ae9a8da676b8369269a8b0340aea97134613bb153"}], "txid": "7801a61105240e2fb2acc33da2f25e64680a6c2d2bd89a0c46d4c975362b0679", "blocktime": 1537873282, "version": 1, "confirmations": 11480, "time": 1537873282, "locktime": 542995, "vsize": 256, "size": 256}