{"hash": "63a6cf76354491f18fe0d006e10a65b79200c0691a15e86b8d38f4a7b7adeb11", "blockhash": "000000000000000000022b45ed06c6f4ccd3cf7fb5ba4856ebd2e58215665228", "vout": [{"scriptPubKey": {"reqSigs": 1, "hex": "a9148795de2f7180acd46b5b69f80fdf131772c9c9c787", "addresses": ["3E3vgSpFrT9s6mpdunmq7ZmWcJtcNX6ixs"], "asm": "OP_HASH160 8795de2f7180acd46b5b69f80fdf131772c9c9c7 OP_EQUAL", "type": "scripthash"}, "value": 0.0133, "n": 0}, {"scriptPubKey": {"reqSigs": 1, "hex": "a914627aa52932456d89054bd84f86246af3b71b93a887", "addresses": ["3Afj4stdiLG9EktGrMbm252ySonnhYaz8v"], "asm": "OP_HASH160 627aa52932456d89054bd84f86246af3b71b93a8 OP_EQUAL", "type": "scripthash"}, "value": 0.73177084, "n": 1}], "hex": "01000000000101ff41e8ad29bc46a92d4b67161731148d076191917f4fd996a4cd6d6152c5aa5601000000232200205fdd641234b13964b223bd85ad2a4a667ca2099df3d42a1d3b45706a8d81abf0ffffffff02504b14000000000017a9148795de2f7180acd46b5b69f80fdf131772c9c9c787fc975c040000000017a914627aa52932456d89054bd84f86246af3b71b93a8870400473044022029e27334d07fa3b3158add5d3ce06bb7fed27f03adef46b3334cc9d9f7ec325502206270c1f7c2d622a2a66f637f943e788694877f9e8e731901a914ad39db1678fb01473044022028cdc72f260152e7288ca81724ce863dcbdf54d582b6948a089f39783615937f02207d4ca1770376a38743a411eaa18faf223ca8e9682304b980b9b47aa2970666040147522103dcde3832fa56def7b4e783faad1b8af85c3cdd74a5ff4f3c7c216b1075c18da12103c70ae8ded79be1afda73b9ce5ea14a3878908ee160d66a9a717e792bb6db276952ae00000000", "vin": [{"txinwitness": ["", "3044022029e27334d07fa3b3158add5d3ce06bb7fed27f03adef46b3334cc9d9f7ec325502206270c1f7c2d622a2a66f637f943e788694877f9e8e731901a914ad39db1678fb01", "3044022028cdc72f260152e7288ca81724ce863dcbdf54d582b6948a089f39783615937f02207d4ca1770376a38743a411eaa18faf223ca8e9682304b980b9b47aa29706660401", "522103dcde3832fa56def7b4e783faad1b8af85c3cdd74a5ff4f3c7c216b1075c18da12103c70ae8ded79be1afda73b9ce5ea14a3878908ee160d66a9a717e792bb6db276952ae"], "sequence": 4294967295, "scriptSig": {"hex": "2200205fdd641234b13964b223bd85ad2a4a667ca2099df3d42a1d3b45706a8d81abf0", "asm": "00205fdd641234b13964b223bd85ad2a4a667ca2099df3d42a1d3b45706a8d81abf0"}, "vout": 1, "txid": "56aac552616dcda496d94f7f919161078d14311716674b2da946bc29ade841ff"}], "txid": "7809ed47905bbb8b26f9e1a1ad6a6d35314fc6ac2d418033c5e5aa08628bd2c0", "blocktime": 1537869901, "version": 1, "confirmations": 11524, "time": 1537869901, "locktime": 0, "vsize": 205, "size": 370}