{"hash": "7809a48c8d2d660f7e00d29d48813208614bf31c9756ab20e813f7d393948ad9", "blockhash": "0000000000000000001e0dab787dd257d1dbfcb92a98c2207d5e1078be1f4165", "vout": [{"scriptPubKey": {"reqSigs": 1, "hex": "a9143c924bcb0ebeb33f9da7b67ecb892e953640325487", "addresses": ["37DHit95FCkvqVJi177ZnEX4E7yyFzbgUQ"], "asm": "OP_HASH160 3c924bcb0ebeb33f9da7b67ecb892e9536403254 OP_EQUAL", "type": "scripthash"}, "value": 0.00046234, "n": 0}], "hex": "0100000004d20580ca09f35c6e70e585d42cb78dfa051d6ac1f678d32a952c940aae4b0d1a000000006a4730440220658f16ecd6cf37a937847a7dde7878cd37647e56deeb06980c2cbe2a2d7f75040220758aadd915050fbc2eb6deed8ce9dd11fcbdcc51db9c1b46937fa1ac3adc7b1a01210294cb6938c6ecf77c788ed3d48cf5c972183787a20b7535e6b9e41f994ab70bf1ffffffffc0b96f303f4e1395ac089304217ce125d3c4190c8e50e37b934f5fb8f32ffe3d000000006a47304402202c24a259373f9d82d6e97b3f484945b5e3166c95fd2f154081a9fcb581b87d9702202109e3163f937097d6b4a3a9d12bde7a58d634bfdd6ddbd810493ff76b76495601210294cb6938c6ecf77c788ed3d48cf5c972183787a20b7535e6b9e41f994ab70bf1ffffffffa1f6190b70bb137f19368024d6a9a370b1b20a791965446e14c6915f174f2982000000006b4830450221008f103faa1f7540f5e61c731069796c85e3c1f3a341441b5b8436f25fb9c59d93022019b4dc8cece381945fa2464865e0d46209a65d7512148c92f20ec5abc33dcc5a01210294cb6938c6ecf77c788ed3d48cf5c972183787a20b7535e6b9e41f994ab70bf1ffffffff6f02facb6fa9662f4dd0a751c0b318c97a522c17b5ce14571af0aa9153dca7b3000000006b483045022100b849ceaf35d397f12d02213224f3163ba7ed355c9d17ab819fee29231678fec302200dfb23cdcdc84bf93e20e52bb9389a5bab0ddb841311067c5aae13e3cf8f806001210294cb6938c6ecf77c788ed3d48cf5c972183787a20b7535e6b9e41f994ab70bf1ffffffff019ab400000000000017a9143c924bcb0ebeb33f9da7b67ecb892e95364032548700000000", "vin": [{"sequence": 4294967295, "scriptSig": {"hex": "4730440220658f16ecd6cf37a937847a7dde7878cd37647e56deeb06980c2cbe2a2d7f75040220758aadd915050fbc2eb6deed8ce9dd11fcbdcc51db9c1b46937fa1ac3adc7b1a01210294cb6938c6ecf77c788ed3d48cf5c972183787a20b7535e6b9e41f994ab70bf1", "asm": "30440220658f16ecd6cf37a937847a7dde7878cd37647e56deeb06980c2cbe2a2d7f75040220758aadd915050fbc2eb6deed8ce9dd11fcbdcc51db9c1b46937fa1ac3adc7b1a[ALL] 0294cb6938c6ecf77c788ed3d48cf5c972183787a20b7535e6b9e41f994ab70bf1"}, "vout": 0, "txid": "1a0d4bae0a942c952ad378f6c16a1d05fa8db72cd485e5706e5cf309ca8005d2"}, {"sequence": 4294967295, "scriptSig": {"hex": "47304402202c24a259373f9d82d6e97b3f484945b5e3166c95fd2f154081a9fcb581b87d9702202109e3163f937097d6b4a3a9d12bde7a58d634bfdd6ddbd810493ff76b76495601210294cb6938c6ecf77c788ed3d48cf5c972183787a20b7535e6b9e41f994ab70bf1", "asm": "304402202c24a259373f9d82d6e97b3f484945b5e3166c95fd2f154081a9fcb581b87d9702202109e3163f937097d6b4a3a9d12bde7a58d634bfdd6ddbd810493ff76b764956[ALL] 0294cb6938c6ecf77c788ed3d48cf5c972183787a20b7535e6b9e41f994ab70bf1"}, "vout": 0, "txid": "3dfe2ff3b85f4f937be3508e0c19c4d325e17c21049308ac95134e3f306fb9c0"}, {"sequence": 4294967295, "scriptSig": {"hex": "4830450221008f103faa1f7540f5e61c731069796c85e3c1f3a341441b5b8436f25fb9c59d93022019b4dc8cece381945fa2464865e0d46209a65d7512148c92f20ec5abc33dcc5a01210294cb6938c6ecf77c788ed3d48cf5c972183787a20b7535e6b9e41f994ab70bf1", "asm": "30450221008f103faa1f7540f5e61c731069796c85e3c1f3a341441b5b8436f25fb9c59d93022019b4dc8cece381945fa2464865e0d46209a65d7512148c92f20ec5abc33dcc5a[ALL] 0294cb6938c6ecf77c788ed3d48cf5c972183787a20b7535e6b9e41f994ab70bf1"}, "vout": 0, "txid": "82294f175f91c6146e446519790ab2b170a3a9d6248036197f13bb700b19f6a1"}, {"sequence": 4294967295, "scriptSig": {"hex": "483045022100b849ceaf35d397f12d02213224f3163ba7ed355c9d17ab819fee29231678fec302200dfb23cdcdc84bf93e20e52bb9389a5bab0ddb841311067c5aae13e3cf8f806001210294cb6938c6ecf77c788ed3d48cf5c972183787a20b7535e6b9e41f994ab70bf1", "asm": "3045022100b849ceaf35d397f12d02213224f3163ba7ed355c9d17ab819fee29231678fec302200dfb23cdcdc84bf93e20e52bb9389a5bab0ddb841311067c5aae13e3cf8f8060[ALL] 0294cb6938c6ecf77c788ed3d48cf5c972183787a20b7535e6b9e41f994ab70bf1"}, "vout": 0, "txid": "b3a7dc5391aaf01a5714ceb5172c527ac918b3c051a7d04d2f66a96fcbfa026f"}], "txid": "7809a48c8d2d660f7e00d29d48813208614bf31c9756ab20e813f7d393948ad9", "blocktime": 1537872475, "version": 1, "confirmations": 11487, "time": 1537872475, "locktime": 0, "vsize": 632, "size": 632}