{"hash": "780ae1f9407e9d5210093ca84d55dcf5c52e6232d6827716d86905ecde4ce413", "blockhash": "0000000000000000001cda96e906b7601b7a6fb1a3b62bca570a9e5d8f4b3de1", "vout": [{"scriptPubKey": {"reqSigs": 1, "hex": "76a9140d407db7cee92862bdc91c9ccbe0335a639d54e888ac", "addresses": ["12D53QxLjVsdjgiaXVX9hMrqyC2fn3t1B3"], "asm": "OP_DUP OP_HASH160 0d407db7cee92862bdc91c9ccbe0335a639d54e8 OP_EQUALVERIFY OP_CHECKSIG", "type": "pubkeyhash"}, "value": 0.22492831, "n": 0}, {"scriptPubKey": {"reqSigs": 1, "hex": "76a91413e2f7d157315e6469ed5124ccb3849b3b4d38a388ac", "addresses": ["12p9jfK1r5eKfKbW9twr9nTLHvWYYeQQ2F"], "asm": "OP_DUP OP_HASH160 13e2f7d157315e6469ed5124ccb3849b3b4d38a3 OP_EQUALVERIFY OP_CHECKSIG", "type": "pubkeyhash"}, "value": 2.30173217, "n": 1}, {"scriptPubKey": {"reqSigs": 1, "hex": "a914f64a60b2f4cd0f29e774b8e033cd0f4ece38b6fb87", "addresses": ["3Q9HFb8sBAYuxwtDbnHBd6LtVqwoApLb5t"], "asm": "OP_HASH160 f64a60b2f4cd0f29e774b8e033cd0f4ece38b6fb OP_EQUAL", "type": "scripthash"}, "value": 0.33964247, "n": 2}], "hex": "01000000012cf5aa5e11dbe2c215a451147511c6648e06c85be3685174c2dbf4f35babecf0020000006b483045022100cad456e39e3d283ed0d7212bedd7115c7d7b70f90c8ea8bb80a7b1a0ab05ca5902202341bb05c455ceb2be434c767c290049887d4abdb5d16e494377ebd15561774c012103d4e01bfb158101fbeb362ad5a6dc937af171739f3bb3292dedead698bd103679ffffffff039f365701000000001976a9140d407db7cee92862bdc91c9ccbe0335a639d54e888ac212ab80d000000001976a91413e2f7d157315e6469ed5124ccb3849b3b4d38a388acd74006020000000017a914f64a60b2f4cd0f29e774b8e033cd0f4ece38b6fb8700000000", "vin": [{"sequence": 4294967295, "scriptSig": {"hex": "483045022100cad456e39e3d283ed0d7212bedd7115c7d7b70f90c8ea8bb80a7b1a0ab05ca5902202341bb05c455ceb2be434c767c290049887d4abdb5d16e494377ebd15561774c012103d4e01bfb158101fbeb362ad5a6dc937af171739f3bb3292dedead698bd103679", "asm": "3045022100cad456e39e3d283ed0d7212bedd7115c7d7b70f90c8ea8bb80a7b1a0ab05ca5902202341bb05c455ceb2be434c767c290049887d4abdb5d16e494377ebd15561774c[ALL] 03d4e01bfb158101fbeb362ad5a6dc937af171739f3bb3292dedead698bd103679"}, "vout": 2, "txid": "f0ecab5bf3f4dbc2745168e35bc8068e64c611751451a415c2e2db115eaaf52c"}], "txid": "780ae1f9407e9d5210093ca84d55dcf5c52e6232d6827716d86905ecde4ce413", "blocktime": 1537873282, "version": 1, "confirmations": 11480, "time": 1537873282, "locktime": 0, "vsize": 258, "size": 258}