{"hash": "7819f3f1dd0b3c6a8e51c003aa578177d525fe1c6e97cc4edbc14e124d3299ed", "blockhash": "00000000000000000004ffacab907a6b429b9a5745fa0b75af4234bf69dd7176", "vout": [{"scriptPubKey": {"reqSigs": 1, "hex": "a9144348397e30aa485c7fbd35a384c192c6aa5d15d487", "addresses": ["37pmieZAPs4aQ3GS9WmCGiqoy63xXjypn5"], "asm": "OP_HASH160 4348397e30aa485c7fbd35a384c192c6aa5d15d4 OP_EQUAL", "type": "scripthash"}, "value": 0.001563, "n": 0}, {"scriptPubKey": {"reqSigs": 1, "hex": "76a9144dad56bf936bc02d3911c5b6e4c428a5f6d1f2a388ac", "addresses": ["185igZqT876jjEoZwJkKt37SSzc9kzTiTM"], "asm": "OP_DUP OP_HASH160 4dad56bf936bc02d3911c5b6e4c428a5f6d1f2a3 OP_EQUALVERIFY OP_CHECKSIG", "type": "pubkeyhash"}, "value": 0.00201052, "n": 1}], "hex": "01000000016ea28b46e7ef703adbc20c2bdcb868915cdbf56a1bd03ca1c4379b67d658d0f7000000006b483045022100c01a9019e2d0273dc184b00748b14f4a3f35e17738ec9a1224909cfdfdbd25f80220494b983928733c2cbddc91389d962d12b55f3ae264773f328a19b8cfc77be012012102fd981b23b8975ba1d3e7929cee0ef94601868118ee3f9f04bec5198cc871f1a5fdffffff028c6202000000000017a9144348397e30aa485c7fbd35a384c192c6aa5d15d4875c110300000000001976a9144dad56bf936bc02d3911c5b6e4c428a5f6d1f2a388ac16490800", "vin": [{"sequence": 4294967293, "scriptSig": {"hex": "483045022100c01a9019e2d0273dc184b00748b14f4a3f35e17738ec9a1224909cfdfdbd25f80220494b983928733c2cbddc91389d962d12b55f3ae264773f328a19b8cfc77be012012102fd981b23b8975ba1d3e7929cee0ef94601868118ee3f9f04bec5198cc871f1a5", "asm": "3045022100c01a9019e2d0273dc184b00748b14f4a3f35e17738ec9a1224909cfdfdbd25f80220494b983928733c2cbddc91389d962d12b55f3ae264773f328a19b8cfc77be012[ALL] 02fd981b23b8975ba1d3e7929cee0ef94601868118ee3f9f04bec5198cc871f1a5"}, "vout": 0, "txid": "f7d058d6679b37c4a13cd01b6af5db5c9168b8dc2b0cc2db3a70efe7468ba26e"}], "txid": "7819f3f1dd0b3c6a8e51c003aa578177d525fe1c6e97cc4edbc14e124d3299ed", "blocktime": 1537875543, "version": 1, "confirmations": 11464, "time": 1537875543, "locktime": 542998, "vsize": 224, "size": 224}