{"hash": "bf07a9a3598429a355e88cf09d9ee37c051e7030e4d41f1d4cae4df2b2ff74b3", "blockhash": "0000000000000000001cda96e906b7601b7a6fb1a3b62bca570a9e5d8f4b3de1", "vout": [{"scriptPubKey": {"reqSigs": 1, "hex": "a914b0888e69158b4e407424a632b6660939c188647387", "addresses": ["3HnSSQM6JXWgPssAZMBo8ghUqUXvjKHq1a"], "asm": "OP_HASH160 b0888e69158b4e407424a632b6660939c1886473 OP_EQUAL", "type": "scripthash"}, "value": 0.05599507, "n": 0}, {"scriptPubKey": {"reqSigs": 1, "hex": "0014ee1a3bb49b6790745ceefab61bac94771c676fea", "addresses": ["bc1qacdrhdymv7g8gh8wl2mphty5wuwxwml286q865"], "asm": "0 ee1a3bb49b6790745ceefab61bac94771c676fea", "type": "witness_v0_keyhash"}, "value": 0.04399912, "n": 1}], "hex": "01000000000101fc3cb36f39c8a2bd89771fbf754b6a2ea6ae060a156e5af93f889368f17370530000000017160014e1f32145515b81f89b7d7591d9821af249fb8cdeffffffff02137155000000000017a914b0888e69158b4e407424a632b6660939c1886473872823430000000000160014ee1a3bb49b6790745ceefab61bac94771c676fea02473044022074c9cd33d806d79a511e1af6dd4c54d92e07dec1ed3c4f4ef8ea19bdb93b85ee02200ad437cb3873f7f01c62d926cc6ccaf50083795699a08990645ad5988ca3ab9f012102a6d95ed62467ca2f36b81d2ad73af5c0ffb591448d8d72508f0c9143146e61ed00000000", "vin": [{"txinwitness": ["3044022074c9cd33d806d79a511e1af6dd4c54d92e07dec1ed3c4f4ef8ea19bdb93b85ee02200ad437cb3873f7f01c62d926cc6ccaf50083795699a08990645ad5988ca3ab9f01", "02a6d95ed62467ca2f36b81d2ad73af5c0ffb591448d8d72508f0c9143146e61ed"], "sequence": 4294967295, "scriptSig": {"hex": "160014e1f32145515b81f89b7d7591d9821af249fb8cde", "asm": "0014e1f32145515b81f89b7d7591d9821af249fb8cde"}, "vout": 0, "txid": "537073f16893883ff95a6e150a06aea62e6a4b75bf1f7789bda2c8396fb33cfc"}], "txid": "781f05c34d9372120944668232cba230e315b191b05682cfab84515c06551b65", "blocktime": 1537873282, "version": 1, "confirmations": 11484, "time": 1537873282, "locktime": 0, "vsize": 165, "size": 246}