{"hash": "7821ff319b15e89ebbd708bc9b722e831da28d6cc07e8d304906ff82fb79ae35", "blockhash": "0000000000000000001f76057863aec43deb6fa401d9628bb513d65a8098bfab", "vout": [{"scriptPubKey": {"reqSigs": 1, "hex": "76a9148ee6a18744c1a5cce36b66539719a6943b09b99888ac", "addresses": ["1E2bEm7scccFUwm33TiQHCxR2do78VHFx8"], "asm": "OP_DUP OP_HASH160 8ee6a18744c1a5cce36b66539719a6943b09b998 OP_EQUALVERIFY OP_CHECKSIG", "type": "pubkeyhash"}, "value": 48.49004232, "n": 0}, {"scriptPubKey": {"reqSigs": 1, "hex": "76a91442468c8719fe69b3e10b818576ac3762bb47bfdb88ac", "addresses": ["173S7VEmBctCuwp5GHb1rcdVf3t1VyRE7w"], "asm": "OP_DUP OP_HASH160 42468c8719fe69b3e10b818576ac3762bb47bfdb OP_EQUALVERIFY OP_CHECKSIG", "type": "pubkeyhash"}, "value": 0.01572416, "n": 1}], "hex": "0200000001d46454833cb0de63296c845f9ca3a6386e33dd76c6f638d1ff8eab223dfeea03000000006a47304402201fa473379ac1db4ec539f1040ba1d0327d3ff31205595fbb3405ecf6f90255e1022074ad2e5e52bc5e1769c11ca4555571506b8ae8887b94044557a0fd53c27022d40121027a7f458cd0b09f7748c52f2f4125e2aa98d9dcec09166fd4cd260c6973762d36ffffffff02c8ee0521010000001976a9148ee6a18744c1a5cce36b66539719a6943b09b99888ac40fe1700000000001976a91442468c8719fe69b3e10b818576ac3762bb47bfdb88ac00000000", "vin": [{"sequence": 4294967295, "scriptSig": {"hex": "47304402201fa473379ac1db4ec539f1040ba1d0327d3ff31205595fbb3405ecf6f90255e1022074ad2e5e52bc5e1769c11ca4555571506b8ae8887b94044557a0fd53c27022d40121027a7f458cd0b09f7748c52f2f4125e2aa98d9dcec09166fd4cd260c6973762d36", "asm": "304402201fa473379ac1db4ec539f1040ba1d0327d3ff31205595fbb3405ecf6f90255e1022074ad2e5e52bc5e1769c11ca4555571506b8ae8887b94044557a0fd53c27022d4[ALL] 027a7f458cd0b09f7748c52f2f4125e2aa98d9dcec09166fd4cd260c6973762d36"}, "vout": 0, "txid": "03eafe3d22ab8effd138f6c676dd336e38a6a39c5f846c2963deb03c835464d4"}], "txid": "7821ff319b15e89ebbd708bc9b722e831da28d6cc07e8d304906ff82fb79ae35", "blocktime": 1537873891, "version": 2, "confirmations": 11475, "time": 1537873891, "locktime": 0, "vsize": 225, "size": 225}