{"hash": "34bce31a59e859bfedd8fef949c99ec45b90b248848743410b19877ab90b77b2", "blockhash": "0000000000000000001f0ddff1eddb255c1121bcd4da4f1bc9a0da00cae72433", "vout": [{"scriptPubKey": {"reqSigs": 1, "hex": "a9146a90892a1421aa0e23ca0576f5f5eb2f3c2d77cc87", "addresses": ["3BQUhQDZcsiPFt14CtzMM6o27sjywb2Kg9"], "asm": "OP_HASH160 6a90892a1421aa0e23ca0576f5f5eb2f3c2d77cc OP_EQUAL", "type": "scripthash"}, "value": 0.02135428, "n": 0}, {"scriptPubKey": {"reqSigs": 1, "hex": "a9144b1c9bd3dea244347d834cd1e1a9249101fe083b87", "addresses": ["38YAshTuwL2jkavMDfHHoounfuW3x9RWYn"], "asm": "OP_HASH160 4b1c9bd3dea244347d834cd1e1a9249101fe083b OP_EQUAL", "type": "scripthash"}, "value": 0.0499, "n": 1}], "hex": "02000000000101be1c4275984688e725024df294afa6b1d91045be7cd3237dc76f33f003f77c900000000017160014cced088713c543d818fbfc1b4fe39cf2980926f1feffffff02849520000000000017a9146a90892a1421aa0e23ca0576f5f5eb2f3c2d77cc8730244c000000000017a9144b1c9bd3dea244347d834cd1e1a9249101fe083b8702483045022100d6811afe1da83d916b1f98d814c2ddf7a7965988d59aadb545213da22820ec99022022fd26d10fb82f2a53c405491048dcde5d4cda0a43f3db22633aa76cc5426fe80121035dba203964963ed71fa4172e54235a1479e8d9a8f3e6e9d78548e47c4bc1801cda480800", "vin": [{"txinwitness": ["3045022100d6811afe1da83d916b1f98d814c2ddf7a7965988d59aadb545213da22820ec99022022fd26d10fb82f2a53c405491048dcde5d4cda0a43f3db22633aa76cc5426fe801", "035dba203964963ed71fa4172e54235a1479e8d9a8f3e6e9d78548e47c4bc1801c"], "sequence": 4294967294, "scriptSig": {"hex": "160014cced088713c543d818fbfc1b4fe39cf2980926f1", "asm": "0014cced088713c543d818fbfc1b4fe39cf2980926f1"}, "vout": 0, "txid": "907cf703f0336fc77d23d37cbe4510d9b1a6af94f24d0225e788469875421cbe"}], "txid": "7830a4bd59b1ba38f4fee65c94ffa69aea447cceed48e91828fab92259a21334", "blocktime": 1537872018, "version": 2, "confirmations": 11489, "time": 1537872018, "locktime": 542938, "vsize": 166, "size": 248}