{"hash": "78324897ce899659f50d9ba80d0d1508c3d998953601156c88291aa319715c51", "blockhash": "0000000000000000000e13cef7c366c0283d82e591d1acd082e914b08063cdf1", "vout": [{"scriptPubKey": {"type": "nulldata", "hex": "6a4c50000077950001150e348d29002203bd591c78e3ef3236678a625097bcbefa6b8351586b4e45122b622407314aa32800f435de17b75baa0cee0614b295312136091d100759d4ba30d2c37bb011d97e02cf", "asm": "OP_RETURN 000077950001150e348d29002203bd591c78e3ef3236678a625097bcbefa6b8351586b4e45122b622407314aa32800f435de17b75baa0cee0614b295312136091d100759d4ba30d2c37bb011d97e02cf"}, "value": 0.0, "n": 0}, {"scriptPubKey": {"reqSigs": 1, "hex": "76a9146be2ea424675499f31fc00da9c7b6e2fdfd4016a88ac", "addresses": ["1AqT8ryNHmjfEeVjPuEFBF8jeWyK3FboWX"], "asm": "OP_DUP OP_HASH160 6be2ea424675499f31fc00da9c7b6e2fdfd4016a OP_EQUALVERIFY OP_CHECKSIG", "type": "pubkeyhash"}, "value": 0.00644784, "n": 1}], "hex": "010000000145e0d61e7d39339ba1eab1b645acf1ad0ee0c2f1c416ccfb07fd5bae4cb6229f000000006a4730440220273aef3b9644d33ea4168d88c13b15415c440c09bd1c3dac829c9bd2e3459b86022003573302b3e2f4f5527a69ff4d6eb8fbee4827b785594a321ae4b648a8dd372a012102b46cd8a5962ceffeabedfa39d19e654e36d794dff821b95cfd47bb73f80226c9ffffffff020000000000000000536a4c50000077950001150e348d29002203bd591c78e3ef3236678a625097bcbefa6b8351586b4e45122b622407314aa32800f435de17b75baa0cee0614b295312136091d100759d4ba30d2c37bb011d97e02cfb0d60900000000001976a9146be2ea424675499f31fc00da9c7b6e2fdfd4016a88ac00000000", "vin": [{"sequence": 4294967295, "scriptSig": {"hex": "4730440220273aef3b9644d33ea4168d88c13b15415c440c09bd1c3dac829c9bd2e3459b86022003573302b3e2f4f5527a69ff4d6eb8fbee4827b785594a321ae4b648a8dd372a012102b46cd8a5962ceffeabedfa39d19e654e36d794dff821b95cfd47bb73f80226c9", "asm": "30440220273aef3b9644d33ea4168d88c13b15415c440c09bd1c3dac829c9bd2e3459b86022003573302b3e2f4f5527a69ff4d6eb8fbee4827b785594a321ae4b648a8dd372a[ALL] 02b46cd8a5962ceffeabedfa39d19e654e36d794dff821b95cfd47bb73f80226c9"}, "vout": 0, "txid": "9f22b64cae5bfd07fbcc16c4f1c2e00eadf1ac45b6b1eaa19b33397d1ed6e045"}], "txid": "78324897ce899659f50d9ba80d0d1508c3d998953601156c88291aa319715c51", "blocktime": 1537871767, "version": 1, "confirmations": 11495, "time": 1537871767, "locktime": 0, "vsize": 283, "size": 283}