{"hash": "05638b4ce6d1b68e4f1bad2120153d0bce4d7a7edc381a9229f4b6389d2e5587", "blockhash": "0000000000000000000e13cef7c366c0283d82e591d1acd082e914b08063cdf1", "vout": [{"scriptPubKey": {"reqSigs": 1, "hex": "a91451356e1a820c48a983d9739d4bd58654afd0f96b87", "addresses": ["396QfUCy3rBnSux8nSyFn4h2QuLa47Fm1b"], "asm": "OP_HASH160 51356e1a820c48a983d9739d4bd58654afd0f96b OP_EQUAL", "type": "scripthash"}, "value": 0.00118215, "n": 0}, {"scriptPubKey": {"reqSigs": 1, "hex": "a9146546bc3a8e0725b008ba0076b38f16a8c51d500887", "addresses": ["3AvWuh3bByn8sYPCFRBMTESjSSvJRYrCnK"], "asm": "OP_HASH160 6546bc3a8e0725b008ba0076b38f16a8c51d5008 OP_EQUAL", "type": "scripthash"}, "value": 0.00036383, "n": 1}, {"scriptPubKey": {"reqSigs": 1, "hex": "a914dcd69c932b1e03f6a3b8c03e9d75c2fdeec1157e87", "addresses": ["3MphgDuJkcAynB9RKtHKdRx1EC8pbkxxEy"], "asm": "OP_HASH160 dcd69c932b1e03f6a3b8c03e9d75c2fdeec1157e OP_EQUAL", "type": "scripthash"}, "value": 0.00274519, "n": 2}], "hex": "01000000000101e6818d1ca5f90b597d929008c54a7ef272fcff7e28869bb6d0c1b948d0b3244c0100000023220020f4b1b1a4ea46cd186c1e0d11663df316c4b750495ec2cfeae6444efeb3e4e7c1ffffffff03c7cd01000000000017a91451356e1a820c48a983d9739d4bd58654afd0f96b871f8e00000000000017a9146546bc3a8e0725b008ba0076b38f16a8c51d500887573004000000000017a914dcd69c932b1e03f6a3b8c03e9d75c2fdeec1157e870400473044022021b331d881c3f078ef2c6826d91e254f2c96d3fdfc5cace1c95252855bb3509f022053f41c587926bd7366fe949743b2677e3faeeaa6e321eff5098fd1c40e37a0de0148304502210090051e7194fee03f9bcc456c00eaff557ca06779b63ce67b112fffe10f81815202206828a60dd01459923d142a5dab794f6340407231a8cda281d97eadc3464056010169522102573b86917f3134a1b2b6fcbade2afe8ac3452ec780e1c5129e4777c690149e1f21022ffc46dbbe8a07aeefda34e689dd9c7a420d0db21925febc5339fc4bade2498f21035da9fc1b36673408c0fc00293bcf469392a47272e026a456d212767959ca8e8a53ae00000000", "vin": [{"txinwitness": ["", "3044022021b331d881c3f078ef2c6826d91e254f2c96d3fdfc5cace1c95252855bb3509f022053f41c587926bd7366fe949743b2677e3faeeaa6e321eff5098fd1c40e37a0de01", "304502210090051e7194fee03f9bcc456c00eaff557ca06779b63ce67b112fffe10f81815202206828a60dd01459923d142a5dab794f6340407231a8cda281d97eadc34640560101", "522102573b86917f3134a1b2b6fcbade2afe8ac3452ec780e1c5129e4777c690149e1f21022ffc46dbbe8a07aeefda34e689dd9c7a420d0db21925febc5339fc4bade2498f21035da9fc1b36673408c0fc00293bcf469392a47272e026a456d212767959ca8e8a53ae"], "sequence": 4294967295, "scriptSig": {"hex": "220020f4b1b1a4ea46cd186c1e0d11663df316c4b750495ec2cfeae6444efeb3e4e7c1", "asm": "0020f4b1b1a4ea46cd186c1e0d11663df316c4b750495ec2cfeae6444efeb3e4e7c1"}, "vout": 1, "txid": "4c24b3d048b9c1d0b69b86287efffc72f27e4ac50890927d590bf9a51c8d81e6"}], "txid": "783dd2278fdb7165d951eb4321838df00ef4922099f8f5ec0bcf2b88450c2606", "blocktime": 1537871767, "version": 1, "confirmations": 11494, "time": 1537871767, "locktime": 0, "vsize": 246, "size": 437}