{"hash": "783f4315832bf889027b910cfb445182792888dace0e5437cb41f94c3046092d", "blockhash": "00000000000000000024a2167bbff67b0be802c0b01cdd79e6331c2be6459f87", "vout": [{"scriptPubKey": {"reqSigs": 1, "hex": "a914b8b5642b8e022fff07ce26dee687e057cffd1ac687", "addresses": ["3JXfZ8PrzNNk41stErp6GWUXpUuYuNFf1n"], "asm": "OP_HASH160 b8b5642b8e022fff07ce26dee687e057cffd1ac6 OP_EQUAL", "type": "scripthash"}, "value": 0.00858606, "n": 0}, {"scriptPubKey": {"reqSigs": 1, "hex": "a914cb98ff883b458b969ad6c4204f3c24338794a7f587", "addresses": ["3LFYNz4qws4o6jyraywFhCWfuBvLgRG8Gd"], "asm": "OP_HASH160 cb98ff883b458b969ad6c4204f3c24338794a7f5 OP_EQUAL", "type": "scripthash"}, "value": 0.00085705, "n": 1}, {"scriptPubKey": {"reqSigs": 1, "hex": "a9141b81a45276392cc8272edc255bc199b216e1aa8087", "addresses": ["34CTUQ6xcBDg54SMaxbaZNd1xFNp8dFw2m"], "asm": "OP_HASH160 1b81a45276392cc8272edc255bc199b216e1aa80 OP_EQUAL", "type": "scripthash"}, "value": 0.07463257, "n": 2}, {"scriptPubKey": {"reqSigs": 1, "hex": "76a91441ab858f7b10fe3214964cbd7ccf0b9c38b3cf0188ac", "addresses": ["16zEQ1Qj2Z356fXRrFva9pmyoNo5wEA2Mu"], "asm": "OP_DUP OP_HASH160 41ab858f7b10fe3214964cbd7ccf0b9c38b3cf01 OP_EQUALVERIFY OP_CHECKSIG", "type": "pubkeyhash"}, "value": 0.00779905, "n": 3}], "hex": "0100000001182abcce673b7969fc28f72ac3961274d89bece6f2ca94c59f6f229943f3745b010000006b483045022100ac90a05cdf46ac816515e9e60702d8cb78417aebd6d5f89d21a207f82e42906502205f7a6d3a9610067cc023ddba8d42eb24aaf31a352baea80461a62443b032bb5a0121024ae26bcf2c4a9875e03fb9d0883325f2bbbe1c92a15e750d5e54f8eaf64cdde2ffffffff04ee190d000000000017a914b8b5642b8e022fff07ce26dee687e057cffd1ac687c94e01000000000017a914cb98ff883b458b969ad6c4204f3c24338794a7f58759e171000000000017a9141b81a45276392cc8272edc255bc199b216e1aa808781e60b00000000001976a91441ab858f7b10fe3214964cbd7ccf0b9c38b3cf0188ac00000000", "vin": [{"sequence": 4294967295, "scriptSig": {"hex": "483045022100ac90a05cdf46ac816515e9e60702d8cb78417aebd6d5f89d21a207f82e42906502205f7a6d3a9610067cc023ddba8d42eb24aaf31a352baea80461a62443b032bb5a0121024ae26bcf2c4a9875e03fb9d0883325f2bbbe1c92a15e750d5e54f8eaf64cdde2", "asm": "3045022100ac90a05cdf46ac816515e9e60702d8cb78417aebd6d5f89d21a207f82e42906502205f7a6d3a9610067cc023ddba8d42eb24aaf31a352baea80461a62443b032bb5a[ALL] 024ae26bcf2c4a9875e03fb9d0883325f2bbbe1c92a15e750d5e54f8eaf64cdde2"}, "vout": 1, "txid": "5b74f34399226f9fc594caf2e6ec9bd8741296c32af728fc69793b67cebc2a18"}], "txid": "783f4315832bf889027b910cfb445182792888dace0e5437cb41f94c3046092d", "blocktime": 1537870564, "version": 1, "confirmations": 11515, "time": 1537870564, "locktime": 0, "vsize": 288, "size": 288}