{"hash": "8e8f6fceebe6024e629574ace49fb19c45c988052d629e9b02369253b8fa12ac", "blockhash": "0000000000000000000dcc0f55137456b1a82d3642486a52398922ac4d620174", "vout": [{"scriptPubKey": {"reqSigs": 1, "hex": "a9140c6cab210bea00f7f8f7cc41ab8dbba3525aec9487", "addresses": ["32piDGEyMDtE2ncQ7dioeMmp2uPpbVp442"], "asm": "OP_HASH160 0c6cab210bea00f7f8f7cc41ab8dbba3525aec94 OP_EQUAL", "type": "scripthash"}, "value": 0.00223364, "n": 0}, {"scriptPubKey": {"reqSigs": 1, "hex": "a914c1049d06d58b55a471e8ce9c9a09e0e5bd88438887", "addresses": ["3KHbs7NYu13kcceoLnm8RSqHvuz1yTA1sx"], "asm": "OP_HASH160 c1049d06d58b55a471e8ce9c9a09e0e5bd884388 OP_EQUAL", "type": "scripthash"}, "value": 0.00294225, "n": 1}, {"scriptPubKey": {"reqSigs": 1, "hex": "a914609a0eb53a9ece43f76b5bb0bedfb2c89712100c87", "addresses": ["3AVoM4Na1Ab8WwRPDMoevE9nPMgWjTugnk"], "asm": "OP_HASH160 609a0eb53a9ece43f76b5bb0bedfb2c89712100c OP_EQUAL", "type": "scripthash"}, "value": 0.0218, "n": 2}, {"scriptPubKey": {"reqSigs": 1, "hex": "a91417c953e81ed9ba7eb1d990821f4aabda265bcb7087", "addresses": ["33rneTHAMdwaz47H4gJuW1KYmGHr4z8bU7"], "asm": "OP_HASH160 17c953e81ed9ba7eb1d990821f4aabda265bcb70 OP_EQUAL", "type": "scripthash"}, "value": 0.00282617, "n": 3}, {"scriptPubKey": {"reqSigs": 1, "hex": "a914dff3e0fdffd790b0e159213e16c0ad838567b04a87", "addresses": ["3N7AmKho7ZXKi4ohQFVJiunKjd5XgpntWw"], "asm": "OP_HASH160 dff3e0fdffd790b0e159213e16c0ad838567b04a OP_EQUAL", "type": "scripthash"}, "value": 0.02305008, "n": 4}, {"scriptPubKey": {"reqSigs": 1, "hex": "76a914aac81a996672397910915db3e5261f3cf883f66888ac", "addresses": ["1Ga1b5JJiW6EUSdR7AY2Ug4VT7UPezXYKp"], "asm": "OP_DUP OP_HASH160 aac81a996672397910915db3e5261f3cf883f668 OP_EQUALVERIFY OP_CHECKSIG", "type": "pubkeyhash"}, "value": 0.01510059, "n": 5}, {"scriptPubKey": {"reqSigs": 1, "hex": "76a91476359c1fcffc3d9a4d48fa40be0a4eef14c7ea5088ac", "addresses": ["1Bn2xWqRErkUgPA1RcwYvGqxi2bKJ1SFfd"], "asm": "OP_DUP OP_HASH160 76359c1fcffc3d9a4d48fa40be0a4eef14c7ea50 OP_EQUALVERIFY OP_CHECKSIG", "type": "pubkeyhash"}, "value": 0.02420053, "n": 6}, {"scriptPubKey": {"reqSigs": 1, "hex": "76a9145cec040745d311dea5cd58a1769ee1b2cbf20f0f88ac", "addresses": ["19UKuJwDu6P7RXb2rJgAZeQmwRLp2V8YkK"], "asm": "OP_DUP OP_HASH160 5cec040745d311dea5cd58a1769ee1b2cbf20f0f OP_EQUALVERIFY OP_CHECKSIG", "type": "pubkeyhash"}, "value": 0.0016, "n": 7}, {"scriptPubKey": {"reqSigs": 1, "hex": "a914ffda23d1c562f01440a164e0c0a3ca6aea7896e987", "addresses": ["3R1qZ63jxoAUgUaLWsuP9NaaEXMwL6Uqtc"], "asm": "OP_HASH160 ffda23d1c562f01440a164e0c0a3ca6aea7896e9 OP_EQUAL", "type": "scripthash"}, "value": 0.0322, "n": 8}, {"scriptPubKey": {"reqSigs": 1, "hex": "76a9148dc897cb46aa30fd7c0407a16020e9bf01ea55f888ac", "addresses": ["1DvgaVSJuTZRn2zgUN6chzWZVgn5LC3yHP"], "asm": "OP_DUP OP_HASH160 8dc897cb46aa30fd7c0407a16020e9bf01ea55f8 OP_EQUALVERIFY OP_CHECKSIG", "type": "pubkeyhash"}, "value": 0.00182, "n": 9}, {"scriptPubKey": {"reqSigs": 1, "hex": "a9141833654dd218a885d8967b2a3a65a36c1850a15987", "addresses": ["33tyiBfzxhTcDu2QBWyvmVNwLckibwnvW6"], "asm": "OP_HASH160 1833654dd218a885d8967b2a3a65a36c1850a159 OP_EQUAL", "type": "scripthash"}, "value": 0.0044, "n": 10}, {"scriptPubKey": {"reqSigs": 1, "hex": "a914ab7ed8c229424b481fba48df3e20af727f0d4c6187", "addresses": ["3HKoRoyzYQMK2HquA8bT8CPMLcgyCLfhdU"], "asm": "OP_HASH160 ab7ed8c229424b481fba48df3e20af727f0d4c61 OP_EQUAL", "type": "scripthash"}, "value": 0.01504999, "n": 11}, {"scriptPubKey": {"reqSigs": 1, "hex": "a914ac47dce0eddc29ad4cf52d9c4eaf46e91cf1226f87", "addresses": ["3HPxEetBS7XndCqWKRmQEvw1QosigaW8Ar"], "asm": "OP_HASH160 ac47dce0eddc29ad4cf52d9c4eaf46e91cf1226f OP_EQUAL", "type": "scripthash"}, "value": 0.00281908, "n": 12}, {"scriptPubKey": {"reqSigs": 1, "hex": "a91448ff63169301bcd2639854e9b9bb926e5b8e2a5587", "addresses": ["38LzWxcx8PQeNT3ZNRRKYpF2cpTUZ8tRLH"], "asm": "OP_HASH160 48ff63169301bcd2639854e9b9bb926e5b8e2a55 OP_EQUAL", "type": "scripthash"}, "value": 0.00311821, "n": 13}, {"scriptPubKey": {"reqSigs": 1, "hex": "a9146f1a4072e3ba90f7f0697a03b19ef9ce23ecf51687", "addresses": ["3BpUNqiQTyjA3QBrzYxFAbUHwuY3LDd5Km"], "asm": "OP_HASH160 6f1a4072e3ba90f7f0697a03b19ef9ce23ecf516 OP_EQUAL", "type": "scripthash"}, "value": 0.0032106, "n": 14}, {"scriptPubKey": {"reqSigs": 1, "hex": "a91407fbc58b1d8696fa2440097aa23c0806e547fb3087", "addresses": ["32REGHeJ84UqdVt1bF9VrZQtFpMnnzC4pQ"], "asm": "OP_HASH160 07fbc58b1d8696fa2440097aa23c0806e547fb30 OP_EQUAL", "type": "scripthash"}, "value": 0.02805155, "n": 15}, {"scriptPubKey": {"reqSigs": 1, "hex": "a91435caa5d245c72f2679a1db1d5e9bb9be6fc8ba3087", "addresses": ["36bSVvTmXpGxtKNbFZdfjF6VAicYWqtnEc"], "asm": "OP_HASH160 35caa5d245c72f2679a1db1d5e9bb9be6fc8ba30 OP_EQUAL", "type": "scripthash"}, "value": 0.0069629, "n": 16}, {"scriptPubKey": {"reqSigs": 1, "hex": "a9143a4b17142e4661ea402458f9798359c441b366c387", "addresses": ["371F52QmZSpTQVR6wWRhKfzQqq8eJdEvBV"], "asm": "OP_HASH160 3a4b17142e4661ea402458f9798359c441b366c3 OP_EQUAL", "type": "scripthash"}, "value": 0.01465448, "n": 17}, {"scriptPubKey": {"reqSigs": 1, "hex": "76a914366b4aa7d6b2e83173a488b2243aa9ae2bc873ec88ac", "addresses": ["15xk27UCq73k24r5Aygs2sZ3gQHLDKF2Vg"], "asm": "OP_DUP OP_HASH160 366b4aa7d6b2e83173a488b2243aa9ae2bc873ec OP_EQUALVERIFY OP_CHECKSIG", "type": "pubkeyhash"}, "value": 0.00895092, "n": 18}, {"scriptPubKey": {"reqSigs": 1, "hex": "a914b4d668b033f7b9c8f77b8d864469d34dd8f033d487", "addresses": ["3JBCQU4mnE8inv1ukUuTsHbnVgFazKrpVb"], "asm": "OP_HASH160 b4d668b033f7b9c8f77b8d864469d34dd8f033d4 OP_EQUAL", "type": "scripthash"}, "value": 23.25149761, "n": 19}, {"scriptPubKey": {"reqSigs": 1, "hex": "a914e9dbacf4bac04d1c407531c3ed8f9f7150e21ed887", "addresses": ["3P1YXZxuFY5ALB2c5vLoDZtGYmchMeX61j"], "asm": "OP_HASH160 e9dbacf4bac04d1c407531c3ed8f9f7150e21ed8 OP_EQUAL", "type": "scripthash"}, "value": 0.00020366, "n": 20}, {"scriptPubKey": {"reqSigs": 1, "hex": "a91415e6fcd7b88a39bab45ff438814bdbb38bb165c387", "addresses": ["33gppsoFTFxmDGhBpzUL4WdFXbsr37y2ip"], "asm": "OP_HASH160 15e6fcd7b88a39bab45ff438814bdbb38bb165c3 OP_EQUAL", "type": "scripthash"}, "value": 0.03090403, "n": 21}, {"scriptPubKey": {"reqSigs": 1, "hex": "76a9140606bc08a11a7caa5eba0e5210e3b75f12524cb688ac", "addresses": ["1Ys85DbUEfQq6o23MFmMX8T8rkeKyqBCR"], "asm": "OP_DUP OP_HASH160 0606bc08a11a7caa5eba0e5210e3b75f12524cb6 OP_EQUALVERIFY OP_CHECKSIG", "type": "pubkeyhash"}, "value": 0.02019291, "n": 22}, {"scriptPubKey": {"reqSigs": 1, "hex": "a9144d130b0a67d82141d85a27996277f024be32ac9887", "addresses": ["38iYmTJqArKhCNqSNXx8HzjRKxwkFCuJXL"], "asm": "OP_HASH160 4d130b0a67d82141d85a27996277f024be32ac98 OP_EQUAL", "type": "scripthash"}, "value": 0.002, "n": 23}, {"scriptPubKey": {"reqSigs": 1, "hex": "a914b9bfb70272c80f0ba6e9bdcca48b7e78668818e487", "addresses": ["3JdAbcfxgbp7mp9BVRhwxZSFcKGDPwgVL5"], "asm": "OP_HASH160 b9bfb70272c80f0ba6e9bdcca48b7e78668818e4 OP_EQUAL", "type": "scripthash"}, "value": 0.01049352, "n": 24}, {"scriptPubKey": {"reqSigs": 1, "hex": "76a9146705b11f0e140a5273a131ec9487d1b132badc4c88ac", "addresses": ["1APjREmGQrA1wYbY4uswW5AZFoaixfgQCr"], "asm": "OP_DUP OP_HASH160 6705b11f0e140a5273a131ec9487d1b132badc4c OP_EQUALVERIFY OP_CHECKSIG", "type": "pubkeyhash"}, "value": 0.00780159, "n": 25}, {"scriptPubKey": {"reqSigs": 1, "hex": "a91402610e3ccc9cded59cff0e0ce77a53cd032e88bd87", "addresses": ["31ubYUCbsyKJ4W55vhi8o65LsSUcFAeP4W"], "asm": "OP_HASH160 02610e3ccc9cded59cff0e0ce77a53cd032e88bd OP_EQUAL", "type": "scripthash"}, "value": 0.06226, "n": 26}, {"scriptPubKey": {"reqSigs": 1, "hex": "76a914886e0eb6624660bb81edd29538505955695f1e3f88ac", "addresses": ["1DSNk1vyPjzyyPqmAm11zYTPanZYuNz4qQ"], "asm": "OP_DUP OP_HASH160 886e0eb6624660bb81edd29538505955695f1e3f OP_EQUALVERIFY OP_CHECKSIG", "type": "pubkeyhash"}, "value": 0.00621151, "n": 27}, {"scriptPubKey": {"reqSigs": 1, "hex": "a914d26a17704c382f1bfb24e16597d1276f583d3aaf87", "addresses": ["3LsavCUv9FSgC179nmAiFxDTpNagz3aC1j"], "asm": "OP_HASH160 d26a17704c382f1bfb24e16597d1276f583d3aaf OP_EQUAL", "type": "scripthash"}, "value": 0.01379757, "n": 28}], "hex": "020000000001017d1d9ca5159021b46007586b20e2e7edc1d72b5ad30ed303e9c294bff8da8d0f0000000017160014fa659ab9f8210c192b3808880d36701268d7e99dfeffffff1d846803000000000017a9140c6cab210bea00f7f8f7cc41ab8dbba3525aec9487517d04000000000017a914c1049d06d58b55a471e8ce9c9a09e0e5bd88438887a04321000000000017a914609a0eb53a9ece43f76b5bb0bedfb2c89712100c87f94f04000000000017a91417c953e81ed9ba7eb1d990821f4aabda265bcb7087f02b23000000000017a914dff3e0fdffd790b0e159213e16c0ad838567b04a87ab0a1700000000001976a914aac81a996672397910915db3e5261f3cf883f66888ac55ed2400000000001976a91476359c1fcffc3d9a4d48fa40be0a4eef14c7ea5088ac00710200000000001976a9145cec040745d311dea5cd58a1769ee1b2cbf20f0f88ac202231000000000017a914ffda23d1c562f01440a164e0c0a3ca6aea7896e987f0c60200000000001976a9148dc897cb46aa30fd7c0407a16020e9bf01ea55f888acc0b606000000000017a9141833654dd218a885d8967b2a3a65a36c1850a15987e7f616000000000017a914ab7ed8c229424b481fba48df3e20af727f0d4c6187344d04000000000017a914ac47dce0eddc29ad4cf52d9c4eaf46e91cf1226f870dc204000000000017a91448ff63169301bcd2639854e9b9bb926e5b8e2a558724e604000000000017a9146f1a4072e3ba90f7f0697a03b19ef9ce23ecf51687a3cd2a000000000017a91407fbc58b1d8696fa2440097aa23c0806e547fb3087e29f0a000000000017a91435caa5d245c72f2679a1db1d5e9bb9be6fc8ba3087685c16000000000017a9143a4b17142e4661ea402458f9798359c441b366c38774a80d00000000001976a914366b4aa7d6b2e83173a488b2243aa9ae2bc873ec88ac41f8968a0000000017a914b4d668b033f7b9c8f77b8d864469d34dd8f033d4878e4f00000000000017a914e9dbacf4bac04d1c407531c3ed8f9f7150e21ed887e3272f000000000017a91415e6fcd7b88a39bab45ff438814bdbb38bb165c387dbcf1e00000000001976a9140606bc08a11a7caa5eba0e5210e3b75f12524cb688ac400d03000000000017a9144d130b0a67d82141d85a27996277f024be32ac9887080310000000000017a914b9bfb70272c80f0ba6e9bdcca48b7e78668818e4877fe70b00000000001976a9146705b11f0e140a5273a131ec9487d1b132badc4c88ac50005f000000000017a91402610e3ccc9cded59cff0e0ce77a53cd032e88bd875f7a0900000000001976a914886e0eb6624660bb81edd29538505955695f1e3f88acad0d15000000000017a914d26a17704c382f1bfb24e16597d1276f583d3aaf8702473044022029a07196605bc8bd9b006a4b035e1c6887c6294a78a956db10f7b3323c8ea69802202c26fe37be707650e3783172e2bc9a5b2135edf2cf17a3ba56fc4060f7f5be7d01210342d7a7ec7c95fc531815520a6aaaf28f8d1deff04d0d960a32c0e7f59325c05c0c490800", "vin": [{"txinwitness": ["3044022029a07196605bc8bd9b006a4b035e1c6887c6294a78a956db10f7b3323c8ea69802202c26fe37be707650e3783172e2bc9a5b2135edf2cf17a3ba56fc4060f7f5be7d01", "0342d7a7ec7c95fc531815520a6aaaf28f8d1deff04d0d960a32c0e7f59325c05c"], "sequence": 4294967294, "scriptSig": {"hex": "160014fa659ab9f8210c192b3808880d36701268d7e99d", "asm": "0014fa659ab9f8210c192b3808880d36701268d7e99d"}, "vout": 0, "txid": "0f8ddaf8bf94c2e903d30ed35a2bd7c1ede7e2206b580760b4219015a59c1d7d"}], "txid": "78474e606fa586d18b3afe918ee81a61eccb437ab2a594306883c6a94091b566", "blocktime": 1537870268, "version": 2, "confirmations": 11516, "time": 1537870268, "locktime": 542988, "vsize": 1046, "size": 1127}