{"hash": "7849bcf1029799366802b33e74e6840fe5204cd4ef421c75f6b3803a98311001", "blockhash": "0000000000000000000e13cef7c366c0283d82e591d1acd082e914b08063cdf1", "vout": [{"scriptPubKey": {"reqSigs": 1, "hex": "76a9149c293a1c5549a9ba314570a4c8498dc6bedf452588ac", "addresses": ["1FEhoRneuahrBPtzAyRktw346TwbHZxf2d"], "asm": "OP_DUP OP_HASH160 9c293a1c5549a9ba314570a4c8498dc6bedf4525 OP_EQUALVERIFY OP_CHECKSIG", "type": "pubkeyhash"}, "value": 6.78e-06, "n": 0}, {"scriptPubKey": {"reqSigs": 1, "hex": "a914cce084d27caae934c68452ad4bd345dd7b10f2a787", "addresses": ["3LNJjX5bAum8cQ9YV3MQHgony8UJLQk5dR"], "asm": "OP_HASH160 cce084d27caae934c68452ad4bd345dd7b10f2a7 OP_EQUAL", "type": "scripthash"}, "value": 0.000576, "n": 1}], "hex": "0100000002f2760ef53fe9fc3c7f951a06888aad133f3f8b4a96696bebb45abc977c2e9380000000006b483045022100a85594b06ca6524798e332fa481d16321cc6efa5fa54aea10d54c22ef8e448840220665637b50b87d6e7d29fa3a2af07b38dda910b29996a5a2e6f27f42d5abfac2e0121024941582633e934b564ae1727ae9b1a7283b45ca74a295598868073d9f0a2e814ffffffff13b3de75495ce4a5976b88e7ebd487538b67bd51a1cef24cbe3cfd8796757dae000000006a473044022013d80a1a837971beb98fdd196f6b59b7a531965a66e48ca56ff4a2540549b5c5022038f9cc258cbb679f3a2a2c12c77513d37fb1a8a66bf10d0c562783789fecb25a0121023c0c221124657dc024afa13ea018ecf3e20d5753368ee110473536646e95b34dffffffff02a6020000000000001976a9149c293a1c5549a9ba314570a4c8498dc6bedf452588ac00e100000000000017a914cce084d27caae934c68452ad4bd345dd7b10f2a78700000000", "vin": [{"sequence": 4294967295, "scriptSig": {"hex": "483045022100a85594b06ca6524798e332fa481d16321cc6efa5fa54aea10d54c22ef8e448840220665637b50b87d6e7d29fa3a2af07b38dda910b29996a5a2e6f27f42d5abfac2e0121024941582633e934b564ae1727ae9b1a7283b45ca74a295598868073d9f0a2e814", "asm": "3045022100a85594b06ca6524798e332fa481d16321cc6efa5fa54aea10d54c22ef8e448840220665637b50b87d6e7d29fa3a2af07b38dda910b29996a5a2e6f27f42d5abfac2e[ALL] 024941582633e934b564ae1727ae9b1a7283b45ca74a295598868073d9f0a2e814"}, "vout": 0, "txid": "80932e7c97bc5ab4eb6b69964a8b3f3f13ad8a88061a957f3cfce93ff50e76f2"}, {"sequence": 4294967295, "scriptSig": {"hex": "473044022013d80a1a837971beb98fdd196f6b59b7a531965a66e48ca56ff4a2540549b5c5022038f9cc258cbb679f3a2a2c12c77513d37fb1a8a66bf10d0c562783789fecb25a0121023c0c221124657dc024afa13ea018ecf3e20d5753368ee110473536646e95b34d", "asm": "3044022013d80a1a837971beb98fdd196f6b59b7a531965a66e48ca56ff4a2540549b5c5022038f9cc258cbb679f3a2a2c12c77513d37fb1a8a66bf10d0c562783789fecb25a[ALL] 023c0c221124657dc024afa13ea018ecf3e20d5753368ee110473536646e95b34d"}, "vout": 0, "txid": "ae7d759687fd3cbe4cf2cea151bd678b5387d4ebe7886b97a5e45c4975deb313"}], "txid": "7849bcf1029799366802b33e74e6840fe5204cd4ef421c75f6b3803a98311001", "blocktime": 1537871767, "version": 1, "confirmations": 11495, "time": 1537871767, "locktime": 0, "vsize": 371, "size": 371}