{"hash": "08c0dd0bdfc69462ec3ebbdade581976136cbfdc4f394b448c0799db0ba4638d", "blockhash": "0000000000000000001f76057863aec43deb6fa401d9628bb513d65a8098bfab", "vout": [{"scriptPubKey": {"reqSigs": 1, "hex": "0014491b79a4dbf7d8ac75c302d5cf0fc43807bbe7a8", "addresses": ["bc1qfydhnfxm7lv2cawrqt2u7r7y8qrmheagj7vef4"], "asm": "0 491b79a4dbf7d8ac75c302d5cf0fc43807bbe7a8", "type": "witness_v0_keyhash"}, "value": 0.00019597, "n": 0}, {"scriptPubKey": {"reqSigs": 1, "hex": "a9141f49fdb13a71b38c64d33a004140576f87fae04787", "addresses": ["34YTWUToCRPzS6BJ1y4jVZBVWE1RFDaev8"], "asm": "OP_HASH160 1f49fdb13a71b38c64d33a004140576f87fae047 OP_EQUAL", "type": "scripthash"}, "value": 0.00789822, "n": 1}], "hex": "01000000000101a7fbafd67eabe5cbd1d5173dda36951d7997eac851531253974337b66067a0a4010000001716001463ddd901fa99a008641a40aaf50e02ab8077aa6cffffffff028d4c000000000000160014491b79a4dbf7d8ac75c302d5cf0fc43807bbe7a83e0d0c000000000017a9141f49fdb13a71b38c64d33a004140576f87fae0478702483045022100d9605db4600651367ebdef52275267bdfe9d26bfbb59021e66f7478f622ef0ea022063b287ec6de12f390d7ad5a4040a7a1367869b4ef973a0215c4622dc34eeb9ff012103c041fc703a54e699bf6d609ae887c0b195aef5caf4c6d5a82d95d246b85de39700000000", "vin": [{"txinwitness": ["3045022100d9605db4600651367ebdef52275267bdfe9d26bfbb59021e66f7478f622ef0ea022063b287ec6de12f390d7ad5a4040a7a1367869b4ef973a0215c4622dc34eeb9ff01", "03c041fc703a54e699bf6d609ae887c0b195aef5caf4c6d5a82d95d246b85de397"], "sequence": 4294967295, "scriptSig": {"hex": "16001463ddd901fa99a008641a40aaf50e02ab8077aa6c", "asm": "001463ddd901fa99a008641a40aaf50e02ab8077aa6c"}, "vout": 1, "txid": "a4a06760b637439753125351c8ea97791d9536da3d17d5d1cbe5ab7ed6affba7"}], "txid": "784cc662802c9093d6a3bcccb27a0697015fddd3e7ffc22588ebd1c95d8e5b4d", "blocktime": 1537873891, "version": 1, "confirmations": 11478, "time": 1537873891, "locktime": 0, "vsize": 165, "size": 247}