{"hash": "7854324696fff2618d06d442ba906a5a691d3b658a5de31a4a8987ba75e7a30d", "blockhash": "00000000000000000024a2167bbff67b0be802c0b01cdd79e6331c2be6459f87", "vout": [{"scriptPubKey": {"reqSigs": 1, "hex": "76a9142d3e74767091e8664912c611d77976e36938c21788ac", "addresses": ["158EE5UVMCJQQm3PnDe4wKJvcmNceVJP1N"], "asm": "OP_DUP OP_HASH160 2d3e74767091e8664912c611d77976e36938c217 OP_EQUALVERIFY OP_CHECKSIG", "type": "pubkeyhash"}, "value": 0.0024, "n": 0}, {"scriptPubKey": {"reqSigs": 1, "hex": "76a91401d61e993e9a9e2924db7bbd64e7c5bf4b5baa4388ac", "addresses": ["1AiBUgeBfJxLcHfFYWb36Jme1aPELpukh"], "asm": "OP_DUP OP_HASH160 01d61e993e9a9e2924db7bbd64e7c5bf4b5baa43 OP_EQUALVERIFY OP_CHECKSIG", "type": "pubkeyhash"}, "value": 0.01426118, "n": 1}], "hex": "0100000001878c6376008fc87506e83470cf97f90447fec9395f15a17b389ddbb527fb62fd010000006a473044022001ea1231980b29b018ea7ffc6434f02eed49f8f1953df1c1a23dcfab982af83002203d448e87179c68e8c35dee0c0ba2d7686863591a64a2ab063a422bc32210f0cb0121039cee23144ec72f5e1cc23b4bce26cc7befb428c1b82dad9433f133ffaa92ad03ffffffff0280a90300000000001976a9142d3e74767091e8664912c611d77976e36938c21788acc6c21500000000001976a91401d61e993e9a9e2924db7bbd64e7c5bf4b5baa4388ac00000000", "vin": [{"sequence": 4294967295, "scriptSig": {"hex": "473044022001ea1231980b29b018ea7ffc6434f02eed49f8f1953df1c1a23dcfab982af83002203d448e87179c68e8c35dee0c0ba2d7686863591a64a2ab063a422bc32210f0cb0121039cee23144ec72f5e1cc23b4bce26cc7befb428c1b82dad9433f133ffaa92ad03", "asm": "3044022001ea1231980b29b018ea7ffc6434f02eed49f8f1953df1c1a23dcfab982af83002203d448e87179c68e8c35dee0c0ba2d7686863591a64a2ab063a422bc32210f0cb[ALL] 039cee23144ec72f5e1cc23b4bce26cc7befb428c1b82dad9433f133ffaa92ad03"}, "vout": 1, "txid": "fd62fb27b5db9d387ba1155f39c9fe4704f997cf7034e80675c88f0076638c87"}], "txid": "7854324696fff2618d06d442ba906a5a691d3b658a5de31a4a8987ba75e7a30d", "blocktime": 1537870564, "version": 1, "confirmations": 11515, "time": 1537870564, "locktime": 0, "vsize": 225, "size": 225}