{"hash": "785c02c2d0a64815f4cb88a02ce9ca4485c3700f07d48938a048163be5e22df5", "blockhash": "0000000000000000001e0dab787dd257d1dbfcb92a98c2207d5e1078be1f4165", "vout": [{"scriptPubKey": {"reqSigs": 1, "hex": "a9146e50c31ac37c257f7ff1f8999ba65d2d05f9172f87", "addresses": ["3BkK16XRjwkms5DTPPnaeqaMG31Sh16smZ"], "asm": "OP_HASH160 6e50c31ac37c257f7ff1f8999ba65d2d05f9172f OP_EQUAL", "type": "scripthash"}, "value": 0.0008, "n": 0}, {"scriptPubKey": {"reqSigs": 1, "hex": "76a9144bea00dbef0d815d32cbf9abe4948bac721607da88ac", "addresses": ["17vQ1E5YLhTYKrCFbSbQnyU3vPpQKi9hhJ"], "asm": "OP_DUP OP_HASH160 4bea00dbef0d815d32cbf9abe4948bac721607da OP_EQUALVERIFY OP_CHECKSIG", "type": "pubkeyhash"}, "value": 0.02616328, "n": 1}], "hex": "01000000019724bde8a797e980cf32c4d07eefb4e0dba6c2308d868059eb9934e7d97db077010000006b483045022100eee9c7f0209fa587c2f8cb59eaf95027039ee8fbceb60d0726be0eebbdecd6b40220470dd3e9294e4c91b8d56064a63b8b2fe25631ee30db26091c8c141bd850386d012102db0998f1c3b1f519300d4ef0726ce878b31dea17f3e02c935e6a753a17bbe4f8ffffffff02803801000000000017a9146e50c31ac37c257f7ff1f8999ba65d2d05f9172f8708ec2700000000001976a9144bea00dbef0d815d32cbf9abe4948bac721607da88ac00000000", "vin": [{"sequence": 4294967295, "scriptSig": {"hex": "483045022100eee9c7f0209fa587c2f8cb59eaf95027039ee8fbceb60d0726be0eebbdecd6b40220470dd3e9294e4c91b8d56064a63b8b2fe25631ee30db26091c8c141bd850386d012102db0998f1c3b1f519300d4ef0726ce878b31dea17f3e02c935e6a753a17bbe4f8", "asm": "3045022100eee9c7f0209fa587c2f8cb59eaf95027039ee8fbceb60d0726be0eebbdecd6b40220470dd3e9294e4c91b8d56064a63b8b2fe25631ee30db26091c8c141bd850386d[ALL] 02db0998f1c3b1f519300d4ef0726ce878b31dea17f3e02c935e6a753a17bbe4f8"}, "vout": 1, "txid": "77b07dd9e73499eb5980868d30c2a6dbe0b4ef7ed0c432cf80e997a7e8bd2497"}], "txid": "785c02c2d0a64815f4cb88a02ce9ca4485c3700f07d48938a048163be5e22df5", "blocktime": 1537872475, "version": 1, "confirmations": 11487, "time": 1537872475, "locktime": 0, "vsize": 224, "size": 224}