{"hash": "ef8ab113589d8e8132b295646fda0e482a6684715992e2d770066e177252d413", "blockhash": "0000000000000000000e13cef7c366c0283d82e591d1acd082e914b08063cdf1", "vout": [{"scriptPubKey": {"reqSigs": 1, "hex": "76a914f5634afd6536a63976a323dd955482cca62694e388ac", "addresses": ["1PNVVzYT7NZJwru1pduzKHfKNDo4SzGRSq"], "asm": "OP_DUP OP_HASH160 f5634afd6536a63976a323dd955482cca62694e3 OP_EQUALVERIFY OP_CHECKSIG", "type": "pubkeyhash"}, "value": 0.03745614, "n": 0}, {"scriptPubKey": {"reqSigs": 1, "hex": "0014ddec44e5f37c3fe25f2b138f35e0e77d43cd0225", "addresses": ["bc1qmhkyfe0n0sl7yhetzw8ntc8804pu6q39n74nm9"], "asm": "0 ddec44e5f37c3fe25f2b138f35e0e77d43cd0225", "type": "witness_v0_keyhash"}, "value": 0.51405365, "n": 1}], "hex": "010000000001012a8a9a8061c2fb20b9037c0e4d5dd7fb7ba38964cc513ff53936f09a2a99e7c60300000017160014c3ce0832dd18e1ba551027909abaf918f232f278ffffffff024e273900000000001976a914f5634afd6536a63976a323dd955482cca62694e388ac3562100300000000160014ddec44e5f37c3fe25f2b138f35e0e77d43cd022502483045022100ccc9ca51a678af581b54182fe29c4659bfa3c5e531a38f332eab6de79373e03b022015e7610ba765ec73ac16e71c8cf9d7c14c89ea93bc0779d9bd68e182ef3e9d8f012102ae24468779ab1f627778ba756195b96069283d398470828fb2fc34dfd2cdb50400000000", "vin": [{"txinwitness": ["3045022100ccc9ca51a678af581b54182fe29c4659bfa3c5e531a38f332eab6de79373e03b022015e7610ba765ec73ac16e71c8cf9d7c14c89ea93bc0779d9bd68e182ef3e9d8f01", "02ae24468779ab1f627778ba756195b96069283d398470828fb2fc34dfd2cdb504"], "sequence": 4294967295, "scriptSig": {"hex": "160014c3ce0832dd18e1ba551027909abaf918f232f278", "asm": "0014c3ce0832dd18e1ba551027909abaf918f232f278"}, "vout": 3, "txid": "c6e7992a9af03639f53f51cc6489a37bfbd75d4d0e7c03b920fbc261809a8a2a"}], "txid": "785c1162971118685338f2e4894b9f004853824cacfce3bb8b578642598baeec", "blocktime": 1537871767, "version": 1, "confirmations": 11495, "time": 1537871767, "locktime": 0, "vsize": 167, "size": 249}