{"hash": "7869df4b92bab311512591abe4144cff7bb42604b112ffed191d9ff8678388b7", "blockhash": "0000000000000000001e0dab787dd257d1dbfcb92a98c2207d5e1078be1f4165", "vout": [{"scriptPubKey": {"reqSigs": 1, "hex": "a914cea6e07b8908d6690611dab89c8a2416bfee96c787", "addresses": ["3LXh2sR8vsBonPv8aK6DoMYyyvJ6ypk84L"], "asm": "OP_HASH160 cea6e07b8908d6690611dab89c8a2416bfee96c7 OP_EQUAL", "type": "scripthash"}, "value": 0.01487517, "n": 0}, {"scriptPubKey": {"reqSigs": 1, "hex": "0014da099e73dace1289eb48940be4da0c2e2e1c5d79", "addresses": ["bc1qmgyeuu76ecfgn66gjs97fksv9chpchted3yg9l"], "asm": "0 da099e73dace1289eb48940be4da0c2e2e1c5d79", "type": "witness_v0_keyhash"}, "value": 0.00087861, "n": 1}], "hex": "0100000001d02aa80ded5863f3d0b4d420a6f43541b0a295681bcba00cb4d3871f4b5f588f4c0000006a47304402207b9b4605962b884ceb062f24839e7ae5da0234936c83ce22adc292c02e38cc9c022022381e27a5af265479d28697012800ae86ef82c65d4ca2508e1ef45afbed12dc0121020793ba4cd951d9f5a91fd82de6d8d88251901d002971756a4b462cb482c53daeffffffff029db216000000000017a914cea6e07b8908d6690611dab89c8a2416bfee96c7873557010000000000160014da099e73dace1289eb48940be4da0c2e2e1c5d7900000000", "vin": [{"sequence": 4294967295, "scriptSig": {"hex": "47304402207b9b4605962b884ceb062f24839e7ae5da0234936c83ce22adc292c02e38cc9c022022381e27a5af265479d28697012800ae86ef82c65d4ca2508e1ef45afbed12dc0121020793ba4cd951d9f5a91fd82de6d8d88251901d002971756a4b462cb482c53dae", "asm": "304402207b9b4605962b884ceb062f24839e7ae5da0234936c83ce22adc292c02e38cc9c022022381e27a5af265479d28697012800ae86ef82c65d4ca2508e1ef45afbed12dc[ALL] 020793ba4cd951d9f5a91fd82de6d8d88251901d002971756a4b462cb482c53dae"}, "vout": 76, "txid": "8f585f4b1f87d3b40ca0cb1b6895a2b04135f4a620d4b4d0f36358ed0da82ad0"}], "txid": "7869df4b92bab311512591abe4144cff7bb42604b112ffed191d9ff8678388b7", "blocktime": 1537872475, "version": 1, "confirmations": 11486, "time": 1537872475, "locktime": 0, "vsize": 220, "size": 220}