{"hash": "786b50bf241feb7768a9778ebc91c9007cd9b9c1ab33321d332c83c3780a4429", "blockhash": "00000000000000000004ffacab907a6b429b9a5745fa0b75af4234bf69dd7176", "vout": [{"scriptPubKey": {"reqSigs": 1, "hex": "76a914cbafcf103377ab07da38afcd4e65cc880d380fb688ac", "addresses": ["1KZznMXqn4YgUha35C74gkrX2irpWThMuX"], "asm": "OP_DUP OP_HASH160 cbafcf103377ab07da38afcd4e65cc880d380fb6 OP_EQUALVERIFY OP_CHECKSIG", "type": "pubkeyhash"}, "value": 0.00997601, "n": 0}, {"scriptPubKey": {"reqSigs": 1, "hex": "76a9145904a08fc9adb241bebcbc7bc0893acaf72623cf88ac", "addresses": ["197ggaQcXs9Cka3UVXxwyihvQAxRfWbTSf"], "asm": "OP_DUP OP_HASH160 5904a08fc9adb241bebcbc7bc0893acaf72623cf OP_EQUALVERIFY OP_CHECKSIG", "type": "pubkeyhash"}, "value": 0.108, "n": 1}], "hex": "020000000254c7c7a6075c363640ccdb4bc6eead15bd8796a81eb6911ac6af925de7a6671d000000006b483045022100abcedfe8e7e0d44f9a61b15815a1245f797a49333537d878a10434262e3c16f80220326c3b5ae16c0bfdcf1f265cf8f30f6830134ff4b93d5dffe7d409f98b42f26901210235b30eb01a60f1343659e90525490eb9d9646ff4fa6ce24de79b37469f07eeedfeffffff72f5a564ec47be4d670aac3681ed5d41ee12c8436b632a714d80c46883f17e34010000006a47304402205672d3aa3c018a5bad411115a4c6d372e381ca5c93e277a624d8dab2faf73b1402203c0ef405eb98b96dfd437fc444144d6abeb01a77f22ab569097a284f2205f0ff012103aba2ccd42a957deb6159df6be051d3357cf7f5ff33e7383b951bf23a6375ccd0feffffff02e1380f00000000001976a914cbafcf103377ab07da38afcd4e65cc880d380fb688ac80cba400000000001976a9145904a08fc9adb241bebcbc7bc0893acaf72623cf88acee480800", "vin": [{"sequence": 4294967294, "scriptSig": {"hex": "483045022100abcedfe8e7e0d44f9a61b15815a1245f797a49333537d878a10434262e3c16f80220326c3b5ae16c0bfdcf1f265cf8f30f6830134ff4b93d5dffe7d409f98b42f26901210235b30eb01a60f1343659e90525490eb9d9646ff4fa6ce24de79b37469f07eeed", "asm": "3045022100abcedfe8e7e0d44f9a61b15815a1245f797a49333537d878a10434262e3c16f80220326c3b5ae16c0bfdcf1f265cf8f30f6830134ff4b93d5dffe7d409f98b42f269[ALL] 0235b30eb01a60f1343659e90525490eb9d9646ff4fa6ce24de79b37469f07eeed"}, "vout": 0, "txid": "1d67a6e75d92afc61a91b61ea89687bd15adeec64bdbcc4036365c07a6c7c754"}, {"sequence": 4294967294, "scriptSig": {"hex": "47304402205672d3aa3c018a5bad411115a4c6d372e381ca5c93e277a624d8dab2faf73b1402203c0ef405eb98b96dfd437fc444144d6abeb01a77f22ab569097a284f2205f0ff012103aba2ccd42a957deb6159df6be051d3357cf7f5ff33e7383b951bf23a6375ccd0", "asm": "304402205672d3aa3c018a5bad411115a4c6d372e381ca5c93e277a624d8dab2faf73b1402203c0ef405eb98b96dfd437fc444144d6abeb01a77f22ab569097a284f2205f0ff[ALL] 03aba2ccd42a957deb6159df6be051d3357cf7f5ff33e7383b951bf23a6375ccd0"}, "vout": 1, "txid": "347ef18368c4804d712a636b43c812ee415ded8136ac0a674dbe47ec64a5f572"}], "txid": "786b50bf241feb7768a9778ebc91c9007cd9b9c1ab33321d332c83c3780a4429", "blocktime": 1537875543, "version": 2, "confirmations": 11464, "time": 1537875543, "locktime": 542958, "vsize": 373, "size": 373}