{"hash": "786d0799de1407078d878a62ce933cae192476507cf09ab0cf219a92ed442f7f", "blockhash": "000000000000000000022b45ed06c6f4ccd3cf7fb5ba4856ebd2e58215665228", "vout": [{"scriptPubKey": {"reqSigs": 1, "hex": "76a914326d361fb8ef80e4ef1fa2419a6cbaef2aaaa62188ac", "addresses": ["15bdcjaaS9nboqBFYSRKwSw5qraQnJvuCF"], "asm": "OP_DUP OP_HASH160 326d361fb8ef80e4ef1fa2419a6cbaef2aaaa621 OP_EQUALVERIFY OP_CHECKSIG", "type": "pubkeyhash"}, "value": 0.00671689, "n": 0}, {"scriptPubKey": {"reqSigs": 1, "hex": "76a91405838190efc9f9a3161ca5b262ba6c981355b0d988ac", "addresses": ["1W9vAY45AZ5hrh2PNLBzZvYDb9bHdFWtt"], "asm": "OP_DUP OP_HASH160 05838190efc9f9a3161ca5b262ba6c981355b0d9 OP_EQUALVERIFY OP_CHECKSIG", "type": "pubkeyhash"}, "value": 0.03683274, "n": 1}], "hex": "01000000056b67351bb6b370d73d91e8100b92f09d4a81db026ddef6c2a2625384114a1525000000006b483045022100915bc6713f423c9db6c3973429e2df1a0b73387e39084ccda04a01f229e0c69c02200e545fe87c21f143046afb61029651a8cc328dc9f0b3ece3021ff9b2e3195c9f0121039c7de9b8931fd8cb8d8b4c89b57949f76ddf9f0581a4f0a7be9676c094b8b5beffffffff1098c6ed1c6119595cc7953ea3c121bd23149eaa8ae9966f6e91f59a9524f947010000006b483045022100cd41c667282924a086952f58f585b3700fd6ca015eb628085f0f14384138bd5f022042c8a367720730626fb99e9f7389fa1c7358600f5be681ecb0b909244787e0910121025f80d886b2bd46ffb3c03e126ca81e42c16431258927ea1b46c398daa02d1c9dffffffff3dc75c23bb82855325a5debdfe2087ae3e96e56febbbd8c10ce593859956589f000000006a473044022051eb93e93390b448b94af3ddcc2404e70b049c912a863cadb4092b84cf7869610220612a7de24cf03f5ca7e0699676e2e9fc05dd556c7a884e71ab159dd49864f3a50121034aa64be0367643d548b613f88ce70963451fba273c8a8df707cab0f24c8ee7e1ffffffffbdebaee6fa10c17ac018103f71beaf695d7cb6d5cdecd2c0ae8e2292a0391eb7000000006a473044022064d65c65e8a046f50bafd76ceb2536b6bcbd635d5e6868d8e3db81909fd3221c022053eeb58f56a5ceabf39ae2243cb9396e4857991c1ef9b7bed013459c95042f49012103c0e8884d050e27204c789c4d219669560acf3ff420abef68fd224ce3345de3e4ffffffff04eb8ebbe0e050e349539950c7aed405df44a597fef2fe8d8d9e7721c07b25fc000000006b48304502210097aa1625173ea0acde3b566c6d68ec056768bc728eb20deb4f2dcea2807490b502201308dfa85684abfbb998afa045eb6e4d4394e7623b99974a755a8ae2a6dc172f0121020cc263d23b2c9aad0e5e0b2f9b03ee2c2116f846cac55ad20c766afecd6f2f16ffffffff02c93f0a00000000001976a914326d361fb8ef80e4ef1fa2419a6cbaef2aaaa62188acca333800000000001976a91405838190efc9f9a3161ca5b262ba6c981355b0d988ac00000000", "vin": [{"sequence": 4294967295, "scriptSig": {"hex": "483045022100915bc6713f423c9db6c3973429e2df1a0b73387e39084ccda04a01f229e0c69c02200e545fe87c21f143046afb61029651a8cc328dc9f0b3ece3021ff9b2e3195c9f0121039c7de9b8931fd8cb8d8b4c89b57949f76ddf9f0581a4f0a7be9676c094b8b5be", "asm": "3045022100915bc6713f423c9db6c3973429e2df1a0b73387e39084ccda04a01f229e0c69c02200e545fe87c21f143046afb61029651a8cc328dc9f0b3ece3021ff9b2e3195c9f[ALL] 039c7de9b8931fd8cb8d8b4c89b57949f76ddf9f0581a4f0a7be9676c094b8b5be"}, "vout": 0, "txid": "25154a11845362a2c2f6de6d02db814a9df0920b10e8913dd770b3b61b35676b"}, {"sequence": 4294967295, "scriptSig": {"hex": "483045022100cd41c667282924a086952f58f585b3700fd6ca015eb628085f0f14384138bd5f022042c8a367720730626fb99e9f7389fa1c7358600f5be681ecb0b909244787e0910121025f80d886b2bd46ffb3c03e126ca81e42c16431258927ea1b46c398daa02d1c9d", "asm": "3045022100cd41c667282924a086952f58f585b3700fd6ca015eb628085f0f14384138bd5f022042c8a367720730626fb99e9f7389fa1c7358600f5be681ecb0b909244787e091[ALL] 025f80d886b2bd46ffb3c03e126ca81e42c16431258927ea1b46c398daa02d1c9d"}, "vout": 1, "txid": "47f924959af5916e6f96e98aaa9e1423bd21c1a33e95c75c5919611cedc69810"}, {"sequence": 4294967295, "scriptSig": {"hex": "473044022051eb93e93390b448b94af3ddcc2404e70b049c912a863cadb4092b84cf7869610220612a7de24cf03f5ca7e0699676e2e9fc05dd556c7a884e71ab159dd49864f3a50121034aa64be0367643d548b613f88ce70963451fba273c8a8df707cab0f24c8ee7e1", "asm": "3044022051eb93e93390b448b94af3ddcc2404e70b049c912a863cadb4092b84cf7869610220612a7de24cf03f5ca7e0699676e2e9fc05dd556c7a884e71ab159dd49864f3a5[ALL] 034aa64be0367643d548b613f88ce70963451fba273c8a8df707cab0f24c8ee7e1"}, "vout": 0, "txid": "9f5856998593e50cc1d8bbeb6fe5963eae8720febddea525538582bb235cc73d"}, {"sequence": 4294967295, "scriptSig": {"hex": "473044022064d65c65e8a046f50bafd76ceb2536b6bcbd635d5e6868d8e3db81909fd3221c022053eeb58f56a5ceabf39ae2243cb9396e4857991c1ef9b7bed013459c95042f49012103c0e8884d050e27204c789c4d219669560acf3ff420abef68fd224ce3345de3e4", "asm": "3044022064d65c65e8a046f50bafd76ceb2536b6bcbd635d5e6868d8e3db81909fd3221c022053eeb58f56a5ceabf39ae2243cb9396e4857991c1ef9b7bed013459c95042f49[ALL] 03c0e8884d050e27204c789c4d219669560acf3ff420abef68fd224ce3345de3e4"}, "vout": 0, "txid": "b71e39a092228eaec0d2eccdd5b67c5d69afbe713f1018c07ac110fae6aeebbd"}, {"sequence": 4294967295, "scriptSig": {"hex": "48304502210097aa1625173ea0acde3b566c6d68ec056768bc728eb20deb4f2dcea2807490b502201308dfa85684abfbb998afa045eb6e4d4394e7623b99974a755a8ae2a6dc172f0121020cc263d23b2c9aad0e5e0b2f9b03ee2c2116f846cac55ad20c766afecd6f2f16", "asm": "304502210097aa1625173ea0acde3b566c6d68ec056768bc728eb20deb4f2dcea2807490b502201308dfa85684abfbb998afa045eb6e4d4394e7623b99974a755a8ae2a6dc172f[ALL] 020cc263d23b2c9aad0e5e0b2f9b03ee2c2116f846cac55ad20c766afecd6f2f16"}, "vout": 0, "txid": "fc257bc021779e8d8dfef2fe97a544df05d4aec750995349e350e0e0bb8eeb04"}], "txid": "786d0799de1407078d878a62ce933cae192476507cf09ab0cf219a92ed442f7f", "blocktime": 1537869901, "version": 1, "confirmations": 11522, "time": 1537869901, "locktime": 0, "vsize": 816, "size": 816}