{"hash": "7873c7789609b842d98f82b2a7a85dfe917d2b054f0429ca505e9552c7ab9ef4", "blockhash": "0000000000000000001cda96e906b7601b7a6fb1a3b62bca570a9e5d8f4b3de1", "vout": [{"scriptPubKey": {"type": "nulldata", "hex": "6a4c50000077c80001624eaac1c35f8ee7303417685b23cc0f42c2fc38c5e5bf9ae76da98a211a39811c1665291878898fab1d3ea6421b5baa13a10612c5e3025f34a74bbf23acfcfaac8058b692fe6808c31d", "asm": "OP_RETURN 000077c80001624eaac1c35f8ee7303417685b23cc0f42c2fc38c5e5bf9ae76da98a211a39811c1665291878898fab1d3ea6421b5baa13a10612c5e3025f34a74bbf23acfcfaac8058b692fe6808c31d"}, "value": 0.0, "n": 0}, {"scriptPubKey": {"reqSigs": 1, "hex": "76a914a129205abcb6eba8858f29ba32262eda165b7f5188ac", "addresses": ["1Fh94Py7aJjFgUK244BtfJnukhFRXA3Sqq"], "asm": "OP_DUP OP_HASH160 a129205abcb6eba8858f29ba32262eda165b7f51 OP_EQUALVERIFY OP_CHECKSIG", "type": "pubkeyhash"}, "value": 0.00013169, "n": 1}], "hex": "010000000111e6172b8e90375f0dd9be9a1ecc97ae5a2083bd052081e77beb3500e1c16e89010000006b4830450221009e361f4b1f1ab97c0f19b811f509b397b6fd9a02747fc23bfece7865748344a902204505f050d91466952692a2ce01dd2a0f56e60155ffa845ae00a0bc38c433b36e01210244065625bfc6fcec0cba3059a1668e3ae6044ea154b7ad836824a173b91ccfa6ffffffff020000000000000000536a4c50000077c80001624eaac1c35f8ee7303417685b23cc0f42c2fc38c5e5bf9ae76da98a211a39811c1665291878898fab1d3ea6421b5baa13a10612c5e3025f34a74bbf23acfcfaac8058b692fe6808c31d71330000000000001976a914a129205abcb6eba8858f29ba32262eda165b7f5188ac00000000", "vin": [{"sequence": 4294967295, "scriptSig": {"hex": "4830450221009e361f4b1f1ab97c0f19b811f509b397b6fd9a02747fc23bfece7865748344a902204505f050d91466952692a2ce01dd2a0f56e60155ffa845ae00a0bc38c433b36e01210244065625bfc6fcec0cba3059a1668e3ae6044ea154b7ad836824a173b91ccfa6", "asm": "30450221009e361f4b1f1ab97c0f19b811f509b397b6fd9a02747fc23bfece7865748344a902204505f050d91466952692a2ce01dd2a0f56e60155ffa845ae00a0bc38c433b36e[ALL] 0244065625bfc6fcec0cba3059a1668e3ae6044ea154b7ad836824a173b91ccfa6"}, "vout": 1, "txid": "896ec1e10035eb7be7812005bd83205aae97cc1e9abed90d5f37908e2b17e611"}], "txid": "7873c7789609b842d98f82b2a7a85dfe917d2b054f0429ca505e9552c7ab9ef4", "blocktime": 1537873282, "version": 1, "confirmations": 11484, "time": 1537873282, "locktime": 0, "vsize": 284, "size": 284}