{"hash": "7876cabef579b32941c3f02aaef51723e18d27532f1362af8a4a578abb83974a", "blockhash": "0000000000000000001e0dab787dd257d1dbfcb92a98c2207d5e1078be1f4165", "vout": [{"scriptPubKey": {"reqSigs": 1, "hex": "76a9143c8df8ad0f615c60e09132de7183581da3fb57e688ac", "addresses": ["16XBcrbAao2jsrXhV7Emf87e81BpBHTfz9"], "asm": "OP_DUP OP_HASH160 3c8df8ad0f615c60e09132de7183581da3fb57e6 OP_EQUALVERIFY OP_CHECKSIG", "type": "pubkeyhash"}, "value": 0.00013475, "n": 0}, {"scriptPubKey": {"reqSigs": 1, "hex": "76a9142570927c060db63f92eefcc891f58ddbe729700888ac", "addresses": ["14QxrkbYc1q9fPCTtm5TyfH33DkiJBRSh1"], "asm": "OP_DUP OP_HASH160 2570927c060db63f92eefcc891f58ddbe7297008 OP_EQUALVERIFY OP_CHECKSIG", "type": "pubkeyhash"}, "value": 0.001585, "n": 1}], "hex": "01000000018c71dc9f212614adab1d57abc2688a3bad42529dcacf731a43e89013be5eab41010000006b48304502210086c33dc9b862ff6cd14dfa4e4e1c3877f51885c22dbc964331518feab6ffdbc8022001449138800513561f970d970b04c3b211cb96b7e5e9b9dea56dd6de1331ef95012103b960aa2d9263cb3be833d45095732e5cb84a77d75751cc3b5d5aae19371c5c5effffffff02a3340000000000001976a9143c8df8ad0f615c60e09132de7183581da3fb57e688ac246b0200000000001976a9142570927c060db63f92eefcc891f58ddbe729700888ac00000000", "vin": [{"sequence": 4294967295, "scriptSig": {"hex": "48304502210086c33dc9b862ff6cd14dfa4e4e1c3877f51885c22dbc964331518feab6ffdbc8022001449138800513561f970d970b04c3b211cb96b7e5e9b9dea56dd6de1331ef95012103b960aa2d9263cb3be833d45095732e5cb84a77d75751cc3b5d5aae19371c5c5e", "asm": "304502210086c33dc9b862ff6cd14dfa4e4e1c3877f51885c22dbc964331518feab6ffdbc8022001449138800513561f970d970b04c3b211cb96b7e5e9b9dea56dd6de1331ef95[ALL] 03b960aa2d9263cb3be833d45095732e5cb84a77d75751cc3b5d5aae19371c5c5e"}, "vout": 1, "txid": "41ab5ebe1390e8431a73cfca9d5242ad3b8a68c2ab571dabad1426219fdc718c"}], "txid": "7876cabef579b32941c3f02aaef51723e18d27532f1362af8a4a578abb83974a", "blocktime": 1537872475, "version": 1, "confirmations": 11487, "time": 1537872475, "locktime": 0, "vsize": 226, "size": 226}