{"hash": "78774ea23432ca8fd00f63ad40ea41b6d3a94e8d6a382a33052afbff241d9a1d", "blockhash": "0000000000000000000e13cef7c366c0283d82e591d1acd082e914b08063cdf1", "vout": [{"scriptPubKey": {"reqSigs": 1, "hex": "a914788e160774d85f182c0e73b5916df264ae10a30387", "addresses": ["3CgTDsiq7GJYndPjR7wnXouJHHGPduk8gU"], "asm": "OP_HASH160 788e160774d85f182c0e73b5916df264ae10a303 OP_EQUAL", "type": "scripthash"}, "value": 0.02040541, "n": 0}, {"scriptPubKey": {"reqSigs": 1, "hex": "76a914ffb5da0e3406d4168f7681d7b6f6d6b78fed0f1a88ac", "addresses": ["1QK5ACbRipEhBKWrAhubee5G3iL2jQY3Pr"], "asm": "OP_DUP OP_HASH160 ffb5da0e3406d4168f7681d7b6f6d6b78fed0f1a OP_EQUALVERIFY OP_CHECKSIG", "type": "pubkeyhash"}, "value": 0.00038451, "n": 1}], "hex": "01000000016c81e5ab32ec58e5a8eda8bec98fbc8f07fdffa7ed42812e6728094d1fe5890f010000006b4830450221008263677e8f851bf05b47645c627c245b47171a814e7eb4b5fd569486a3591b5a02205d24dd8b43e4be3418e03481015a2deca33094e120d9a0e488c7099c9370444d012102bb744e666d65ee6c8a919ebc330715a75bba629be18d8821108f1924af682570ffffffff02dd221f000000000017a914788e160774d85f182c0e73b5916df264ae10a3038733960000000000001976a914ffb5da0e3406d4168f7681d7b6f6d6b78fed0f1a88ac00000000", "vin": [{"sequence": 4294967295, "scriptSig": {"hex": "4830450221008263677e8f851bf05b47645c627c245b47171a814e7eb4b5fd569486a3591b5a02205d24dd8b43e4be3418e03481015a2deca33094e120d9a0e488c7099c9370444d012102bb744e666d65ee6c8a919ebc330715a75bba629be18d8821108f1924af682570", "asm": "30450221008263677e8f851bf05b47645c627c245b47171a814e7eb4b5fd569486a3591b5a02205d24dd8b43e4be3418e03481015a2deca33094e120d9a0e488c7099c9370444d[ALL] 02bb744e666d65ee6c8a919ebc330715a75bba629be18d8821108f1924af682570"}, "vout": 1, "txid": "0f89e51f4d0928672e8142eda7fffd078fbc8fc9bea8eda8e558ec32abe5816c"}], "txid": "78774ea23432ca8fd00f63ad40ea41b6d3a94e8d6a382a33052afbff241d9a1d", "blocktime": 1537871767, "version": 1, "confirmations": 11491, "time": 1537871767, "locktime": 0, "vsize": 224, "size": 224}