{"hash": "78838123328528cb5c9dba1fc1f620503116021d5fe6e91ce841812df14d93db", "blockhash": "0000000000000000000dcc0f55137456b1a82d3642486a52398922ac4d620174", "vout": [{"scriptPubKey": {"reqSigs": 1, "hex": "76a914f6f64fdb65f3def1b033630126a9c7edecdda8ba88ac", "addresses": ["1PWpJF9qwjryMH3qv9v8m2GocE5DSgFnrf"], "asm": "OP_DUP OP_HASH160 f6f64fdb65f3def1b033630126a9c7edecdda8ba OP_EQUALVERIFY OP_CHECKSIG", "type": "pubkeyhash"}, "value": 0.02942202, "n": 0}, {"scriptPubKey": {"reqSigs": 1, "hex": "76a914d0fb50cedbff0c4542f129b0e50efdacf6d7d70188ac", "addresses": ["1L3zcctB14hjFUzjtMfSg95bS7XbGWQjtz"], "asm": "OP_DUP OP_HASH160 d0fb50cedbff0c4542f129b0e50efdacf6d7d701 OP_EQUALVERIFY OP_CHECKSIG", "type": "pubkeyhash"}, "value": 0.2192724, "n": 1}], "hex": "0100000001482404a3a60bc78a3600639c79467564609a95fa0a31f5e3b817601cca4ea2b0010000006a47304402201cf7fe9a010b240b4aae51356d73d9ce0c65f45828448eef2c0a0500f4127f7602200fbff4322a71ab1a478c2025ba1bf2da482d092b85ee6be1d7fb4825ab997027012102d27cd39db3954802f4b652f02851d96a32aba4e703060bea94d9e065b2d8a652ffffffff02fae42c00000000001976a914f6f64fdb65f3def1b033630126a9c7edecdda8ba88ac48954e01000000001976a914d0fb50cedbff0c4542f129b0e50efdacf6d7d70188ac00000000", "vin": [{"sequence": 4294967295, "scriptSig": {"hex": "47304402201cf7fe9a010b240b4aae51356d73d9ce0c65f45828448eef2c0a0500f4127f7602200fbff4322a71ab1a478c2025ba1bf2da482d092b85ee6be1d7fb4825ab997027012102d27cd39db3954802f4b652f02851d96a32aba4e703060bea94d9e065b2d8a652", "asm": "304402201cf7fe9a010b240b4aae51356d73d9ce0c65f45828448eef2c0a0500f4127f7602200fbff4322a71ab1a478c2025ba1bf2da482d092b85ee6be1d7fb4825ab997027[ALL] 02d27cd39db3954802f4b652f02851d96a32aba4e703060bea94d9e065b2d8a652"}, "vout": 1, "txid": "b0a24eca1c6017b8e3f5310afa959a60647546799c6300368ac70ba6a3042448"}], "txid": "78838123328528cb5c9dba1fc1f620503116021d5fe6e91ce841812df14d93db", "blocktime": 1537870268, "version": 1, "confirmations": 11518, "time": 1537870268, "locktime": 0, "vsize": 225, "size": 225}