{"hash": "7887d5bee014854cba45d9e386c035f01c4206bf1d9fd3e3bce93ed8993b3749", "blockhash": "0000000000000000000e13cef7c366c0283d82e591d1acd082e914b08063cdf1", "vout": [{"scriptPubKey": {"reqSigs": 1, "hex": "76a914cca71283c917368c755fd63f3fb814caa67c712c88ac", "addresses": ["1Kf6zXGpQ1WDamvi2tHP3GaircFFr6ib3L"], "asm": "OP_DUP OP_HASH160 cca71283c917368c755fd63f3fb814caa67c712c OP_EQUALVERIFY OP_CHECKSIG", "type": "pubkeyhash"}, "value": 0.00094, "n": 0}, {"scriptPubKey": {"reqSigs": 1, "hex": "76a914d9b10a45fcbfa18b4420358e5ec9761f4675348588ac", "addresses": ["1Lr3ibHWGKdfBxvbGGg7pXCaTGc1zCEmzb"], "asm": "OP_DUP OP_HASH160 d9b10a45fcbfa18b4420358e5ec9761f46753485 OP_EQUALVERIFY OP_CHECKSIG", "type": "pubkeyhash"}, "value": 0.0312, "n": 1}, {"scriptPubKey": {"reqSigs": 1, "hex": "76a91496039ddcfc5a5a1c5388cc70a6fe0a8fe490305e88ac", "addresses": ["1EgCh4iQtFA1oALLB4zSgWkT8kqvf8zqQy"], "asm": "OP_DUP OP_HASH160 96039ddcfc5a5a1c5388cc70a6fe0a8fe490305e OP_EQUALVERIFY OP_CHECKSIG", "type": "pubkeyhash"}, "value": 0.01188277, "n": 2}, {"scriptPubKey": {"reqSigs": 1, "hex": "a914f0f3a6670e4ff58954b2f2dc286727763dbabb2e87", "addresses": ["3Pf3ygYJonkGCDEVMnkSw4idT2BJmkprdP"], "asm": "OP_HASH160 f0f3a6670e4ff58954b2f2dc286727763dbabb2e OP_EQUAL", "type": "scripthash"}, "value": 0.0162, "n": 3}, {"scriptPubKey": {"reqSigs": 1, "hex": "a91442a200d377be91a907ddec3af8b358b9b4cf59d787", "addresses": ["37mLbPM4P1epr9LhAAjJRK7YmHEaRQob8o"], "asm": "OP_HASH160 42a200d377be91a907ddec3af8b358b9b4cf59d7 OP_EQUAL", "type": "scripthash"}, "value": 0.0035008, "n": 4}], "hex": "02000000062bf03647701c8d3724aa30dc5f9e8c99de3a042636686047c263862010fe10ebeb0000006b48304502210086f7925b1fdc78b5d1720bd269fce0fe2eaef7ddacff58175e10e992d840e8d102206a4449826bdf8e6c07862c601ed3a4b68d10b8db40f2ae84f1eb170135857cc1012103fa6d19ba01c80ca56a5252b197cb6f3199163a2e9d2b6060df609236b4330507feffffff44959a3f831551f8db6764f92a12daa2ba94cb07450ada889809449cd0058071d50000006a47304402202f1e92872b891ce96d43c2b44f89922495bef71c39d5fa0d3796c47e2fa3746b02207dda8b6de6689ab67c978f3efd1c4357fbc7b2ad211003bdad5a717afde8c7040121030dc22af0d30251ca24dc930e63bc3b2a72fab8c0c132fbbe69211097feb999fbfeffffff5648cb512a5aecd517663532d06c966de60ad9099137b8340596a7c06e64607a010000006a4730440220194ddbdc66a8a98c1e5a8b54e9761c3ae13d5ed820185fe2eda083781b5b13ba02207fd683b5bf6c51192163005b7bf70fdb640ad6d479dae6ed9eb4aea108f367fa01210259454c285a6fc373b3c09a95e9fbf477206e66420d8d90444b9194e87b8bfe56feffffff7d081a382c5aeec24b209c33e7641ba63f853e898d064787ac4965ff07978d35000000006a4730440220185819e4d64f8aef1c16e4afc43dcbe35c037bf08f0da75f48cfc6ce66ca2b12022015daaa6961b8720b3b7e02b93e709ec8c34624aaec578675bbcc8f325b63ba8301210380c25d347c2987bf359834ce3962ae01716ac086d80064dc2a85724ca6dea02bfeffffffde8b9ba406b20998618073e7945b0ebfef3d4c54d206675ec179d8de62760008010000006a47304402206827ead89ffb35b180c80eaea28852137f50acf172677bc15784c249f594bb17022040cc3a56e3260accbe539068c3b4475aad9b52a9bb774998459bc69bc3111eba0121030866b838a3371e8e48caee8e2517c7e0c8c00fd62faed93d58b9729ae644aed0fefffffff3744b3015d8422fa67ad4dc8445df9a97cf907126bf39179c1115a77c617b13000000006b483045022100e479f8198b912a77d90c8830c54d61c631aec090c5decafdf0a3210e8722e59f02202ae9889170b819195cca4759c9364372cbef060686c7d8a0c31b911d22b5a9d901210238f3a6bd670833d2149239628a858e49ebe4cf089a256fd685dd396808e9c723feffffff05306f0100000000001976a914cca71283c917368c755fd63f3fb814caa67c712c88ac809b2f00000000001976a914d9b10a45fcbfa18b4420358e5ec9761f4675348588acb5211200000000001976a91496039ddcfc5a5a1c5388cc70a6fe0a8fe490305e88ac20b818000000000017a914f0f3a6670e4ff58954b2f2dc286727763dbabb2e87805705000000000017a91442a200d377be91a907ddec3af8b358b9b4cf59d78710490800", "vin": [{"sequence": 4294967294, "scriptSig": {"hex": "48304502210086f7925b1fdc78b5d1720bd269fce0fe2eaef7ddacff58175e10e992d840e8d102206a4449826bdf8e6c07862c601ed3a4b68d10b8db40f2ae84f1eb170135857cc1012103fa6d19ba01c80ca56a5252b197cb6f3199163a2e9d2b6060df609236b4330507", "asm": "304502210086f7925b1fdc78b5d1720bd269fce0fe2eaef7ddacff58175e10e992d840e8d102206a4449826bdf8e6c07862c601ed3a4b68d10b8db40f2ae84f1eb170135857cc1[ALL] 03fa6d19ba01c80ca56a5252b197cb6f3199163a2e9d2b6060df609236b4330507"}, "vout": 235, "txid": "eb10fe10208663c24760683626043ade998c9e5fdc30aa24378d1c704736f02b"}, {"sequence": 4294967294, "scriptSig": {"hex": "47304402202f1e92872b891ce96d43c2b44f89922495bef71c39d5fa0d3796c47e2fa3746b02207dda8b6de6689ab67c978f3efd1c4357fbc7b2ad211003bdad5a717afde8c7040121030dc22af0d30251ca24dc930e63bc3b2a72fab8c0c132fbbe69211097feb999fb", "asm": "304402202f1e92872b891ce96d43c2b44f89922495bef71c39d5fa0d3796c47e2fa3746b02207dda8b6de6689ab67c978f3efd1c4357fbc7b2ad211003bdad5a717afde8c704[ALL] 030dc22af0d30251ca24dc930e63bc3b2a72fab8c0c132fbbe69211097feb999fb"}, "vout": 213, "txid": "718005d09c44099888da0a4507cb94baa2da122af96467dbf85115833f9a9544"}, {"sequence": 4294967294, "scriptSig": {"hex": "4730440220194ddbdc66a8a98c1e5a8b54e9761c3ae13d5ed820185fe2eda083781b5b13ba02207fd683b5bf6c51192163005b7bf70fdb640ad6d479dae6ed9eb4aea108f367fa01210259454c285a6fc373b3c09a95e9fbf477206e66420d8d90444b9194e87b8bfe56", "asm": "30440220194ddbdc66a8a98c1e5a8b54e9761c3ae13d5ed820185fe2eda083781b5b13ba02207fd683b5bf6c51192163005b7bf70fdb640ad6d479dae6ed9eb4aea108f367fa[ALL] 0259454c285a6fc373b3c09a95e9fbf477206e66420d8d90444b9194e87b8bfe56"}, "vout": 1, "txid": "7a60646ec0a7960534b8379109d90ae66d966cd032356617d5ec5a2a51cb4856"}, {"sequence": 4294967294, "scriptSig": {"hex": "4730440220185819e4d64f8aef1c16e4afc43dcbe35c037bf08f0da75f48cfc6ce66ca2b12022015daaa6961b8720b3b7e02b93e709ec8c34624aaec578675bbcc8f325b63ba8301210380c25d347c2987bf359834ce3962ae01716ac086d80064dc2a85724ca6dea02b", "asm": "30440220185819e4d64f8aef1c16e4afc43dcbe35c037bf08f0da75f48cfc6ce66ca2b12022015daaa6961b8720b3b7e02b93e709ec8c34624aaec578675bbcc8f325b63ba83[ALL] 0380c25d347c2987bf359834ce3962ae01716ac086d80064dc2a85724ca6dea02b"}, "vout": 0, "txid": "358d9707ff6549ac8747068d893e853fa61b64e7339c204bc2ee5a2c381a087d"}, {"sequence": 4294967294, "scriptSig": {"hex": "47304402206827ead89ffb35b180c80eaea28852137f50acf172677bc15784c249f594bb17022040cc3a56e3260accbe539068c3b4475aad9b52a9bb774998459bc69bc3111eba0121030866b838a3371e8e48caee8e2517c7e0c8c00fd62faed93d58b9729ae644aed0", "asm": "304402206827ead89ffb35b180c80eaea28852137f50acf172677bc15784c249f594bb17022040cc3a56e3260accbe539068c3b4475aad9b52a9bb774998459bc69bc3111eba[ALL] 030866b838a3371e8e48caee8e2517c7e0c8c00fd62faed93d58b9729ae644aed0"}, "vout": 1, "txid": "08007662ded879c15e6706d2544c3defbf0e5b94e77380619809b206a49b8bde"}, {"sequence": 4294967294, "scriptSig": {"hex": "483045022100e479f8198b912a77d90c8830c54d61c631aec090c5decafdf0a3210e8722e59f02202ae9889170b819195cca4759c9364372cbef060686c7d8a0c31b911d22b5a9d901210238f3a6bd670833d2149239628a858e49ebe4cf089a256fd685dd396808e9c723", "asm": "3045022100e479f8198b912a77d90c8830c54d61c631aec090c5decafdf0a3210e8722e59f02202ae9889170b819195cca4759c9364372cbef060686c7d8a0c31b911d22b5a9d9[ALL] 0238f3a6bd670833d2149239628a858e49ebe4cf089a256fd685dd396808e9c723"}, "vout": 0, "txid": "137b617ca715119c1739bf267190cf979adf4584dcd47aa62f42d815304b74f3"}], "txid": "7887d5bee014854cba45d9e386c035f01c4206bf1d9fd3e3bce93ed8993b3749", "blocktime": 1537871767, "version": 2, "confirmations": 11493, "time": 1537871767, "locktime": 542992, "vsize": 1060, "size": 1060}