{"hash": "78886c741253ebd8441a649ac28e874bcf844b3ffb11d894272cfd56d3039eeb", "blockhash": "0000000000000000000dcc0f55137456b1a82d3642486a52398922ac4d620174", "vout": [{"scriptPubKey": {"reqSigs": 1, "hex": "a91493320d977231179763233806752dfbe24a4b4d3887", "addresses": ["3F7KDVXUrD93C9LXFvSQcPaTKM732inqFa"], "asm": "OP_HASH160 93320d977231179763233806752dfbe24a4b4d38 OP_EQUAL", "type": "scripthash"}, "value": 0.03170033, "n": 0}], "hex": "0100000001338cd3c6348b46bb2c231bfcfb4b2a02bbef99c53faee1d8b0862fd76669ec20000000006b483045022100ceb942a0f0c7847621579f9b1ef0ec5dca9a339b62022315453270f0ecc13b26022065539e7a8a60926d7271ee60e6e44c8c79d71565e493a807ec27b40a5a0c7c0b012103bc8af1786f87429b99d42f197ec86e4ffc84644aa2a78f52680c0a258cf9f82effffffff01f15e30000000000017a91493320d977231179763233806752dfbe24a4b4d388700000000", "vin": [{"sequence": 4294967295, "scriptSig": {"hex": "483045022100ceb942a0f0c7847621579f9b1ef0ec5dca9a339b62022315453270f0ecc13b26022065539e7a8a60926d7271ee60e6e44c8c79d71565e493a807ec27b40a5a0c7c0b012103bc8af1786f87429b99d42f197ec86e4ffc84644aa2a78f52680c0a258cf9f82e", "asm": "3045022100ceb942a0f0c7847621579f9b1ef0ec5dca9a339b62022315453270f0ecc13b26022065539e7a8a60926d7271ee60e6e44c8c79d71565e493a807ec27b40a5a0c7c0b[ALL] 03bc8af1786f87429b99d42f197ec86e4ffc84644aa2a78f52680c0a258cf9f82e"}, "vout": 0, "txid": "20ec6966d72f86b0d8e1ae3fc599efbb022a4bfbfc1b232cbb468b34c6d38c33"}], "txid": "78886c741253ebd8441a649ac28e874bcf844b3ffb11d894272cfd56d3039eeb", "blocktime": 1537870268, "version": 1, "confirmations": 11518, "time": 1537870268, "locktime": 0, "vsize": 190, "size": 190}