{"hash": "bbbbfe3d6c03cefa5df6b70df90b907b32353490f606b53edd159f35fcf8c291", "blockhash": "0000000000000000001cda96e906b7601b7a6fb1a3b62bca570a9e5d8f4b3de1", "vout": [{"scriptPubKey": {"reqSigs": 1, "hex": "a91465e5562bced03b6eee0370570f7c50da6fddd1c787", "addresses": ["3AynuWGHTgAkhMSJofymGpH5k9aWKNF6g9"], "asm": "OP_HASH160 65e5562bced03b6eee0370570f7c50da6fddd1c7 OP_EQUAL", "type": "scripthash"}, "value": 0.01709902, "n": 0}, {"scriptPubKey": {"reqSigs": 1, "hex": "76a914ba91b94feb029382f09cfefcb99e065fd86349b488ac", "addresses": ["1J1VFkfaLpi3aVDDQQBR7p1nNVJfozf3wF"], "asm": "OP_DUP OP_HASH160 ba91b94feb029382f09cfefcb99e065fd86349b4 OP_EQUALVERIFY OP_CHECKSIG", "type": "pubkeyhash"}, "value": 0.01828985, "n": 1}], "hex": "02000000000102be0bad77f075861b8e9883e80d5bdb39d34f9218ef9521295a129bc32e81009f0000000017160014575f212470b216ac2d3c9b8ee5133561563d7746feffffffee70be8e10d12d0742b4e40aa42296643a338c62b7e1e01e128b05d9183f69840d0000001716001471c716fc5b983b1b58945124ba8102e39f30f6d3feffffff024e171a000000000017a91465e5562bced03b6eee0370570f7c50da6fddd1c78779e81b00000000001976a914ba91b94feb029382f09cfefcb99e065fd86349b488ac0247304402202d46378af8133cc5bf446bf4afac3ced51d4ab1a09b819105ada8ceb3c2469e0022051eff3b9808f7fc26b9c9b0c3250850fff9214282211ea5b43beb877ecd1b273012103be4e29631bed7925a9287d79c6efc72198b7cf68ef679444572500b94a2ac6d602483045022100dd51e2f452f4b749ea0e89c3db078e46061b6c050bdd232d43acf3c9a3fa93a40220774d26cff99e7a791cd03731d69533b7fa4f5206c9d77a1825a6826ffd26cf34012102e54fcecebd707f7180aa8bc70d88282c4f215fd6c1d2bdbcb6acefea4602b27f13490800", "vin": [{"txinwitness": ["304402202d46378af8133cc5bf446bf4afac3ced51d4ab1a09b819105ada8ceb3c2469e0022051eff3b9808f7fc26b9c9b0c3250850fff9214282211ea5b43beb877ecd1b27301", "03be4e29631bed7925a9287d79c6efc72198b7cf68ef679444572500b94a2ac6d6"], "sequence": 4294967294, "scriptSig": {"hex": "160014575f212470b216ac2d3c9b8ee5133561563d7746", "asm": "0014575f212470b216ac2d3c9b8ee5133561563d7746"}, "vout": 0, "txid": "9f00812ec39b125a292195ef18924fd339db5b0de883988e1b8675f077ad0bbe"}, {"txinwitness": ["3045022100dd51e2f452f4b749ea0e89c3db078e46061b6c050bdd232d43acf3c9a3fa93a40220774d26cff99e7a791cd03731d69533b7fa4f5206c9d77a1825a6826ffd26cf3401", "02e54fcecebd707f7180aa8bc70d88282c4f215fd6c1d2bdbcb6acefea4602b27f"], "sequence": 4294967294, "scriptSig": {"hex": "16001471c716fc5b983b1b58945124ba8102e39f30f6d3", "asm": "001471c716fc5b983b1b58945124ba8102e39f30f6d3"}, "vout": 13, "txid": "84693f18d9058b121ee0e1b7628c333a649622a40ae4b442072dd1108ebe70ee"}], "txid": "788830d320c26813a94c7dba8d7a88564b715d33f087adfd3c82fc6fdcd2205f", "blocktime": 1537873282, "version": 2, "confirmations": 11480, "time": 1537873282, "locktime": 542995, "vsize": 259, "size": 421}