{"hash": "1a5f6fb788c2f64a221a8c857b0b75ba469775918b1ef9cdc13250c9ed00d914", "blockhash": "0000000000000000000baef3f32e3676a92c3b2e5da21b426e4f302fc371ce76", "vout": [{"scriptPubKey": {"reqSigs": 1, "hex": "a914f36062669698f754fcbbbd504298b5c518d7df5a87", "addresses": ["3Pssb4ab2xiL7jG2hhEFfPVjoCAZRQJWN4"], "asm": "OP_HASH160 f36062669698f754fcbbbd504298b5c518d7df5a OP_EQUAL", "type": "scripthash"}, "value": 18.1049593, "n": 0}, {"scriptPubKey": {"reqSigs": 1, "hex": "a914f42a678bda713245c19303e6be6ae6f9561e9dc287", "addresses": ["3Px3bfXnrgnwJTWDaVhC1ctxpHZ2eDvc4w"], "asm": "OP_HASH160 f42a678bda713245c19303e6be6ae6f9561e9dc2 OP_EQUAL", "type": "scripthash"}, "value": 0.40433679, "n": 1}], "hex": "02000000000101fdc32e36bb71b0a13e3781759b226d4d92eca296f86de47034add5b6792c27300000000017160014aa14ebe92b2ef2b6166d8954c960216918d37375feffffff02baf9e96b0000000017a914f36062669698f754fcbbbd504298b5c518d7df5a870ff868020000000017a914f42a678bda713245c19303e6be6ae6f9561e9dc2870248304502210082ee88bb830f3ef63f47efa3dac5b6f70cc56ff68ee8d54367195aa542761efe02202f2f1705a6d69c0841f812534e520ffbd828114c5e6fb0be9811022bb294cc1701210310e3892e7559a4adf9b6d6f32865847cd5c556643cd1d534b5a22f5ed569dde717490800", "vin": [{"txinwitness": ["304502210082ee88bb830f3ef63f47efa3dac5b6f70cc56ff68ee8d54367195aa542761efe02202f2f1705a6d69c0841f812534e520ffbd828114c5e6fb0be9811022bb294cc1701", "0310e3892e7559a4adf9b6d6f32865847cd5c556643cd1d534b5a22f5ed569dde7"], "sequence": 4294967294, "scriptSig": {"hex": "160014aa14ebe92b2ef2b6166d8954c960216918d37375", "asm": "0014aa14ebe92b2ef2b6166d8954c960216918d37375"}, "vout": 0, "txid": "30272c79b6d5ad3470e46df896a2ec924d6d229b7581373ea1b071bb362ec3fd"}], "txid": "788b899cb7b197dec55c4f7ea3d08fe123a4bbebe740231505d361d347c3fbb4", "blocktime": 1537876114, "version": 2, "confirmations": 11459, "time": 1537876114, "locktime": 542999, "vsize": 166, "size": 248}