{"hash": "544f4938bd75f88e895fd394e7966c2c932017f6708d8da96d353ddda24674b4", "blockhash": "0000000000000000001e0dab787dd257d1dbfcb92a98c2207d5e1078be1f4165", "vout": [{"scriptPubKey": {"reqSigs": 1, "hex": "76a914b680080acd56d5566ff96762e8eef289cb72aea888ac", "addresses": ["1HdyMh8BvnMSPZ8Sew5gvanX5Cf6HnRQJW"], "asm": "OP_DUP OP_HASH160 b680080acd56d5566ff96762e8eef289cb72aea8 OP_EQUALVERIFY OP_CHECKSIG", "type": "pubkeyhash"}, "value": 0.0015489, "n": 0}, {"scriptPubKey": {"reqSigs": 1, "hex": "a914c5ab132e454658c5a8d7f774450eccb537bcc22387", "addresses": ["3KiByq1LrrvqnxapmC4vrGwXHYQBPkVakC"], "asm": "OP_HASH160 c5ab132e454658c5a8d7f774450eccb537bcc223 OP_EQUAL", "type": "scripthash"}, "value": 0.00997931, "n": 1}], "hex": "020000000001013d28941914e22278e2534e58b1eec6a0275287fe14ab327a4e389200eb04ae900000000017160014a9faf26e99d947ebe34b27be7a391a27fd31ca33feffffff020a5d0200000000001976a914b680080acd56d5566ff96762e8eef289cb72aea888ac2b3a0f000000000017a914c5ab132e454658c5a8d7f774450eccb537bcc2238702483045022100ce45cb31d042f19554468f54cb2fe55a90703251dab8163650517aba6f701a8b022058b0d2b848c64018de5cba8623e67d12b7c30f30f85d6284a2e3ee17d31da0b901210243b6db56e8ac57ce17f0ece9e2943aca71f86530d5c38dd5c83f77cb2cceaad012490800", "vin": [{"txinwitness": ["3045022100ce45cb31d042f19554468f54cb2fe55a90703251dab8163650517aba6f701a8b022058b0d2b848c64018de5cba8623e67d12b7c30f30f85d6284a2e3ee17d31da0b901", "0243b6db56e8ac57ce17f0ece9e2943aca71f86530d5c38dd5c83f77cb2cceaad0"], "sequence": 4294967294, "scriptSig": {"hex": "160014a9faf26e99d947ebe34b27be7a391a27fd31ca33", "asm": "0014a9faf26e99d947ebe34b27be7a391a27fd31ca33"}, "vout": 0, "txid": "90ae04eb0092384e7a32ab14fe875227a0c6eeb1584e53e27822e2141994283d"}], "txid": "788b7b8869f8cf5545f29b1516ed593733037696deea03a20ab5c89231459907", "blocktime": 1537872475, "version": 2, "confirmations": 11486, "time": 1537872475, "locktime": 542994, "vsize": 168, "size": 250}