{"hash": "5fee03b92bbb21989050b1d17e68b9c3df65e6534b3fad3651c6a33814fb00c1", "blockhash": "0000000000000000001e0dab787dd257d1dbfcb92a98c2207d5e1078be1f4165", "vout": [{"scriptPubKey": {"reqSigs": 1, "hex": "a9147f03852fddc7dbd016142143c7185708fbf5300887", "addresses": ["3DGbxVrUi3m4zcYtnwBwJZkuH7y37jJXSq"], "asm": "OP_HASH160 7f03852fddc7dbd016142143c7185708fbf53008 OP_EQUAL", "type": "scripthash"}, "value": 0.361651, "n": 0}, {"scriptPubKey": {"reqSigs": 1, "hex": "a914ebcde5f833a12607b46d9656bf8c0b7d838946e587", "addresses": ["3PBqNgxzSrWHeMZSVBiEdmW2Jh2BJ9NcBu"], "asm": "OP_HASH160 ebcde5f833a12607b46d9656bf8c0b7d838946e5 OP_EQUAL", "type": "scripthash"}, "value": 0.10944306, "n": 1}], "hex": "01000000000101d71936e4d3fb4b3e3b614ff31ff43be1095d179417247913dda0b60fbe23868c0100000023220020c73e16a3411541f4aa3227b528502708e3819df03f07382c2322e325feda8c3afdffffff02ecd527020000000017a9147f03852fddc7dbd016142143c7185708fbf530088732ffa6000000000017a914ebcde5f833a12607b46d9656bf8c0b7d838946e5870400483045022100e1abc356b07174f57a139d50444c44f26931a7df571baa91ee5a0d27695c54890220743f88eb3bd24504264a7d61f0702397a718abb8565583da990d95a9c689f38501473044022028f8b04ded06733c29fe6ecdc023f48a8cb8041297c12b130718c7bf87367b610220475f010439440fed2cb034a7b0593f805d92ca19b3fe05b037323880126b52c60147522103b3b0cbf1c465cdc8f367a6e74c34c95bcd9bc5f93a11406d2e8b9b2b6f51523421030a7d2d6c2704adc232e9e0a9f7f1a6525adc28024c5b7b7438f89cdcbefddf2e52ae10490800", "vin": [{"txinwitness": ["", "3045022100e1abc356b07174f57a139d50444c44f26931a7df571baa91ee5a0d27695c54890220743f88eb3bd24504264a7d61f0702397a718abb8565583da990d95a9c689f38501", "3044022028f8b04ded06733c29fe6ecdc023f48a8cb8041297c12b130718c7bf87367b610220475f010439440fed2cb034a7b0593f805d92ca19b3fe05b037323880126b52c601", "522103b3b0cbf1c465cdc8f367a6e74c34c95bcd9bc5f93a11406d2e8b9b2b6f51523421030a7d2d6c2704adc232e9e0a9f7f1a6525adc28024c5b7b7438f89cdcbefddf2e52ae"], "sequence": 4294967293, "scriptSig": {"hex": "220020c73e16a3411541f4aa3227b528502708e3819df03f07382c2322e325feda8c3a", "asm": "0020c73e16a3411541f4aa3227b528502708e3819df03f07382c2322e325feda8c3a"}, "vout": 1, "txid": "8c8623be0fb6a0dd1379241794175d09e13bf41ff34f613b3e4bfbd3e43619d7"}], "txid": "788da68e0a72a97058da9e6ad68c7297a98d9dd152c839306849ed631b802ca8", "blocktime": 1537872475, "version": 1, "confirmations": 11487, "time": 1537872475, "locktime": 542992, "vsize": 206, "size": 371}