{"hash": "f8f7fef36d3d87709af62478873488a4bcdb70dfd474489daa8b4a73935d5acc", "blockhash": "0000000000000000001e0dab787dd257d1dbfcb92a98c2207d5e1078be1f4165", "vout": [{"scriptPubKey": {"reqSigs": 1, "hex": "a9143f3486accf6f158524368489bd4beee0e1028e7d87", "addresses": ["37TDRCprw8apmi5q3gcN6rSfsfcbjWiZaV"], "asm": "OP_HASH160 3f3486accf6f158524368489bd4beee0e1028e7d OP_EQUAL", "type": "scripthash"}, "value": 0.07878, "n": 0}, {"scriptPubKey": {"reqSigs": 1, "hex": "00143b627772d8d17121dc8be5773f2d60cbe225d9e5", "addresses": ["bc1q8d38wukc69cjrhytu4mn7ttqe03ztk09mm9pka"], "asm": "0 3b627772d8d17121dc8be5773f2d60cbe225d9e5", "type": "witness_v0_keyhash"}, "value": 0.00214068, "n": 1}], "hex": "01000000000101cf39675241f949edbd961256bc77612397c3ff7119be1ab4c3fb0fcdc08d2b840000000017160014fe7b585a950e4c60d0f287d8fad6e9bfdee8b419ffffffff02703578000000000017a9143f3486accf6f158524368489bd4beee0e1028e7d8734440300000000001600143b627772d8d17121dc8be5773f2d60cbe225d9e50247304402200f4015cd442b197e0feb80296120eb642b63bc4614379929b150b1d25487281c0220291a94cbc0622d9fe72630159267ca06345016cb61ae15ca26b092e81ed5e7030121036049cfcd8e21628e2b47271a66c14aac0c593891876fff5cd307b45206d56d3a00000000", "vin": [{"txinwitness": ["304402200f4015cd442b197e0feb80296120eb642b63bc4614379929b150b1d25487281c0220291a94cbc0622d9fe72630159267ca06345016cb61ae15ca26b092e81ed5e70301", "036049cfcd8e21628e2b47271a66c14aac0c593891876fff5cd307b45206d56d3a"], "sequence": 4294967295, "scriptSig": {"hex": "160014fe7b585a950e4c60d0f287d8fad6e9bfdee8b419", "asm": "0014fe7b585a950e4c60d0f287d8fad6e9bfdee8b419"}, "vout": 0, "txid": "842b8dc0cd0ffbc3b41abe1971ffc397236177bc561296bded49f941526739cf"}], "txid": "7898fa5754929403998ad270f69560e92b88545bc725e2c6499f2f9332013c0a", "blocktime": 1537872475, "version": 1, "confirmations": 11486, "time": 1537872475, "locktime": 0, "vsize": 165, "size": 246}