{"hash": "789835ddcd8585cd0b9cd9cc1e856235980c9fd99bef64621a38ad0f8e43eb4b", "blockhash": "00000000000000000024a2167bbff67b0be802c0b01cdd79e6331c2be6459f87", "vout": [{"scriptPubKey": {"type": "nulldata", "hex": "6a146f6d6e69000000000000001f0000763aef999300", "asm": "OP_RETURN 6f6d6e69000000000000001f0000763aef999300"}, "value": 0.0, "n": 0}, {"scriptPubKey": {"reqSigs": 1, "hex": "76a914ddacc8b641928beea4dd710d907dbf83138b246f88ac", "addresses": ["1MD7Ke69xR3V8NmosD3egBoCyqptwup1af"], "asm": "OP_DUP OP_HASH160 ddacc8b641928beea4dd710d907dbf83138b246f OP_EQUALVERIFY OP_CHECKSIG", "type": "pubkeyhash"}, "value": 0.00356824, "n": 1}, {"scriptPubKey": {"reqSigs": 1, "hex": "76a914cb71a5b80cfc05f2920248186c8d6a4a8f49ee8e88ac", "addresses": ["1KYiKJEfdJtap9QX2v9BXJMpz2SfU4pgZw"], "asm": "OP_DUP OP_HASH160 cb71a5b80cfc05f2920248186c8d6a4a8f49ee8e OP_EQUALVERIFY OP_CHECKSIG", "type": "pubkeyhash"}, "value": 5.46e-06, "n": 2}], "hex": "0100000004da3db5d7eeb4cee1d58fd4a45e50b2d97a445e95f1413638315beb393e8672df000000006b48304502210094094a7246d6445fc9556941350e9e4d3a8d3bb53868fec84fcc55bead809c1f02203ca5045f800b3fc863b4f9b71854c8c59afd4121fce585be79464b2f1146c6980121037a9459ff2e1b87e9bdf48d63be21585ea87b30657a114f30f87ac3364502ef9afeffffff77abc57d6d97465bbde3930443d07491683cd48d427a72fcde0097fc3c9e20f6010000006a4730440220492c43031d2cd5bf29349de4d34c4dd228bd0e19e226d51fe065b8fd3a3ea29402203018604302dd300137fc9bbfdb8bda21a3ed06b339d56c43548db2e1447726170121037a9459ff2e1b87e9bdf48d63be21585ea87b30657a114f30f87ac3364502ef9afeffffff724b3dffa2377736ed096a1ce53f46952f9d92ed75ed9dae31354673d6bc6dbd010000006a47304402207f55817065438ec4995c05aba4c58b1da911a8f7e11fa5ec2cdd212168d02ed00220275bf56aa1bb46af3525ee0b4601b50e83717d45dde3fd689ebf1beaead530720121037a9459ff2e1b87e9bdf48d63be21585ea87b30657a114f30f87ac3364502ef9afeffffff42a63a34bcb56a48a10a7df7c64220497dfd2a27f55a7da995582b9b386e59a2010000006b4830450221008163e50d6a4006b401e797b72275148babf3df27ecc74fe402b90e0bf39b5ac302204eca05b8a47d0f5f4d6b8902c7a3877661d98a5523edd227361d65d38f4daa7b0121037a9459ff2e1b87e9bdf48d63be21585ea87b30657a114f30f87ac3364502ef9afeffffff030000000000000000166a146f6d6e69000000000000001f0000763aef999300d8710500000000001976a914ddacc8b641928beea4dd710d907dbf83138b246f88ac22020000000000001976a914cb71a5b80cfc05f2920248186c8d6a4a8f49ee8e88ac0d490800", "vin": [{"sequence": 4294967294, "scriptSig": {"hex": "48304502210094094a7246d6445fc9556941350e9e4d3a8d3bb53868fec84fcc55bead809c1f02203ca5045f800b3fc863b4f9b71854c8c59afd4121fce585be79464b2f1146c6980121037a9459ff2e1b87e9bdf48d63be21585ea87b30657a114f30f87ac3364502ef9a", "asm": "304502210094094a7246d6445fc9556941350e9e4d3a8d3bb53868fec84fcc55bead809c1f02203ca5045f800b3fc863b4f9b71854c8c59afd4121fce585be79464b2f1146c698[ALL] 037a9459ff2e1b87e9bdf48d63be21585ea87b30657a114f30f87ac3364502ef9a"}, "vout": 0, "txid": "df72863e39eb5b31383641f1955e447ad9b2505ea4d48fd5e1ceb4eed7b53dda"}, {"sequence": 4294967294, "scriptSig": {"hex": "4730440220492c43031d2cd5bf29349de4d34c4dd228bd0e19e226d51fe065b8fd3a3ea29402203018604302dd300137fc9bbfdb8bda21a3ed06b339d56c43548db2e1447726170121037a9459ff2e1b87e9bdf48d63be21585ea87b30657a114f30f87ac3364502ef9a", "asm": "30440220492c43031d2cd5bf29349de4d34c4dd228bd0e19e226d51fe065b8fd3a3ea29402203018604302dd300137fc9bbfdb8bda21a3ed06b339d56c43548db2e144772617[ALL] 037a9459ff2e1b87e9bdf48d63be21585ea87b30657a114f30f87ac3364502ef9a"}, "vout": 1, "txid": "f6209e3cfc9700defc727a428dd43c689174d0430493e3bd5b46976d7dc5ab77"}, {"sequence": 4294967294, "scriptSig": {"hex": "47304402207f55817065438ec4995c05aba4c58b1da911a8f7e11fa5ec2cdd212168d02ed00220275bf56aa1bb46af3525ee0b4601b50e83717d45dde3fd689ebf1beaead530720121037a9459ff2e1b87e9bdf48d63be21585ea87b30657a114f30f87ac3364502ef9a", "asm": "304402207f55817065438ec4995c05aba4c58b1da911a8f7e11fa5ec2cdd212168d02ed00220275bf56aa1bb46af3525ee0b4601b50e83717d45dde3fd689ebf1beaead53072[ALL] 037a9459ff2e1b87e9bdf48d63be21585ea87b30657a114f30f87ac3364502ef9a"}, "vout": 1, "txid": "bd6dbcd673463531ae9ded75ed929d2f95463fe51c6a09ed367737a2ff3d4b72"}, {"sequence": 4294967294, "scriptSig": {"hex": "4830450221008163e50d6a4006b401e797b72275148babf3df27ecc74fe402b90e0bf39b5ac302204eca05b8a47d0f5f4d6b8902c7a3877661d98a5523edd227361d65d38f4daa7b0121037a9459ff2e1b87e9bdf48d63be21585ea87b30657a114f30f87ac3364502ef9a", "asm": "30450221008163e50d6a4006b401e797b72275148babf3df27ecc74fe402b90e0bf39b5ac302204eca05b8a47d0f5f4d6b8902c7a3877661d98a5523edd227361d65d38f4daa7b[ALL] 037a9459ff2e1b87e9bdf48d63be21585ea87b30657a114f30f87ac3364502ef9a"}, "vout": 1, "txid": "a2596e389b2b5895a97d5af5272afd7d492042c6f77d0aa1486ab5bc343aa642"}], "txid": "789835ddcd8585cd0b9cd9cc1e856235980c9fd99bef64621a38ad0f8e43eb4b", "blocktime": 1537870564, "version": 1, "confirmations": 11515, "time": 1537870564, "locktime": 542989, "vsize": 699, "size": 699}