{"hash": "789ab386c74f994602fa213c5f53464cb63ec1a564c72625b6f9bc64a21a49a5", "blockhash": "0000000000000000000e13cef7c366c0283d82e591d1acd082e914b08063cdf1", "vout": [{"scriptPubKey": {"reqSigs": 1, "hex": "76a91467b435418109279ad857d3d4a201c232781df17588ac", "addresses": ["1ATLUqFv3Grwo3CCzt6Ee2X2cHZDNHGjhn"], "asm": "OP_DUP OP_HASH160 67b435418109279ad857d3d4a201c232781df175 OP_EQUALVERIFY OP_CHECKSIG", "type": "pubkeyhash"}, "value": 0.00075541, "n": 0}, {"scriptPubKey": {"reqSigs": 1, "hex": "a914fa80a75e9f84857427ffe4dfcc4ecfdc50fb01b087", "addresses": ["3QXYyXJQRvoQxRCEHhF1BWS4FPWvEsJHm7"], "asm": "OP_HASH160 fa80a75e9f84857427ffe4dfcc4ecfdc50fb01b0 OP_EQUAL", "type": "scripthash"}, "value": 0.00469, "n": 1}], "hex": "0100000001c85ac9a9d3b315f0f10fff25f77aad031f8d12d00a58687d247445ab0748d3d5000000006b483045022100f923e1b424151fad703b96418b63e5b7bfdc47508d25d8d400959ecf0b9a2113022017d2a48f18bdb5c021bf2767a10eab1b060c9fdddfaeaf4c3e2cd96ee040edc001210264fabf0691add027775bb6b4cd40f00daf7cc4affb85797dfe76711b29908f3dffffffff0215270100000000001976a91467b435418109279ad857d3d4a201c232781df17588ac082807000000000017a914fa80a75e9f84857427ffe4dfcc4ecfdc50fb01b08700000000", "vin": [{"sequence": 4294967295, "scriptSig": {"hex": "483045022100f923e1b424151fad703b96418b63e5b7bfdc47508d25d8d400959ecf0b9a2113022017d2a48f18bdb5c021bf2767a10eab1b060c9fdddfaeaf4c3e2cd96ee040edc001210264fabf0691add027775bb6b4cd40f00daf7cc4affb85797dfe76711b29908f3d", "asm": "3045022100f923e1b424151fad703b96418b63e5b7bfdc47508d25d8d400959ecf0b9a2113022017d2a48f18bdb5c021bf2767a10eab1b060c9fdddfaeaf4c3e2cd96ee040edc0[ALL] 0264fabf0691add027775bb6b4cd40f00daf7cc4affb85797dfe76711b29908f3d"}, "vout": 0, "txid": "d5d34807ab4574247d68580ad0128d1f03ad7af725ff0ff1f015b3d3a9c95ac8"}], "txid": "789ab386c74f994602fa213c5f53464cb63ec1a564c72625b6f9bc64a21a49a5", "blocktime": 1537871767, "version": 1, "confirmations": 11495, "time": 1537871767, "locktime": 0, "vsize": 224, "size": 224}