{"hash": "789ab08f8f5c7b7bc683a45a1ea36be312f3d08e6234e90e298a2ec52ad52668", "blockhash": "00000000000000000018f53835495a110e01622372bf6ae95dc86f2b0ab887b0", "vout": [{"scriptPubKey": {"reqSigs": 1, "hex": "76a914fa0692278afe508514b5ffee8fe5e97732ce066988ac", "addresses": ["1Po1oWkD2LmodfkBYiAktwh76vkF93LKnh"], "asm": "OP_DUP OP_HASH160 fa0692278afe508514b5ffee8fe5e97732ce0669 OP_EQUALVERIFY OP_CHECKSIG", "type": "pubkeyhash"}, "value": 2.184e-05, "n": 0}, {"scriptPubKey": {"type": "nulldata", "hex": "6a146f6d6e69000000000000000300000000000010cc", "asm": "OP_RETURN 6f6d6e69000000000000000300000000000010cc"}, "value": 0.0, "n": 1}, {"scriptPubKey": {"reqSigs": 1, "hex": "76a914e1d6c86af2099b74efff3f2bd19e0656ff26f82888ac", "addresses": ["1Mb8LYDApjYzuW99jPtZSLjNNNAfbcG89h"], "asm": "OP_DUP OP_HASH160 e1d6c86af2099b74efff3f2bd19e0656ff26f828 OP_EQUALVERIFY OP_CHECKSIG", "type": "pubkeyhash"}, "value": 5.46e-06, "n": 2}], "hex": "010000000160188ae2e89a6f7ee5925756b57031d2333bb4c3afeaabe85e936278213e6fa7e00000008b4830450221008c4940982283477e3b3c861aacf7a99361e3f0d1abf8d91dbea0025364c5303b02200ba93573ce722fbf6b1bc381673e19174dcffda63d21db4974fefd8f32aabe04014104fcf07bb1222f7925f2b7cc15183a40443c578e62ea17100aa3b44ba66905c95d4980aec4cd2f6eb426d1b1ec45d76724f26901099416b9265b76ba67c8b0b73dffffffff0388080000000000001976a914fa0692278afe508514b5ffee8fe5e97732ce066988ac0000000000000000166a146f6d6e69000000000000000300000000000010cc22020000000000001976a914e1d6c86af2099b74efff3f2bd19e0656ff26f82888ac00000000", "vin": [{"sequence": 4294967295, "scriptSig": {"hex": "4830450221008c4940982283477e3b3c861aacf7a99361e3f0d1abf8d91dbea0025364c5303b02200ba93573ce722fbf6b1bc381673e19174dcffda63d21db4974fefd8f32aabe04014104fcf07bb1222f7925f2b7cc15183a40443c578e62ea17100aa3b44ba66905c95d4980aec4cd2f6eb426d1b1ec45d76724f26901099416b9265b76ba67c8b0b73d", "asm": "30450221008c4940982283477e3b3c861aacf7a99361e3f0d1abf8d91dbea0025364c5303b02200ba93573ce722fbf6b1bc381673e19174dcffda63d21db4974fefd8f32aabe04[ALL] 04fcf07bb1222f7925f2b7cc15183a40443c578e62ea17100aa3b44ba66905c95d4980aec4cd2f6eb426d1b1ec45d76724f26901099416b9265b76ba67c8b0b73d"}, "vout": 224, "txid": "a76f3e217862935ee8abeaafc3b43b33d23170b5565792e57e6f9ae8e28a1860"}], "txid": "789ab08f8f5c7b7bc683a45a1ea36be312f3d08e6234e90e298a2ec52ad52668", "blocktime": 1537870928, "version": 1, "confirmations": 11512, "time": 1537870928, "locktime": 0, "vsize": 289, "size": 289}