{"hash": "789cff88406c2d5150b32d933e41ba8786d89e5418fa2a45f843d7e3b482b405", "blockhash": "0000000000000000001cda96e906b7601b7a6fb1a3b62bca570a9e5d8f4b3de1", "vout": [{"scriptPubKey": {"reqSigs": 1, "hex": "76a914b530102633bd3a89d1bba4209f6de3ff623b139188ac", "addresses": ["1HX2tCmPtM6HDuRzWHZjTK64iC8yFDFn6U"], "asm": "OP_DUP OP_HASH160 b530102633bd3a89d1bba4209f6de3ff623b1391 OP_EQUALVERIFY OP_CHECKSIG", "type": "pubkeyhash"}, "value": 0.3, "n": 0}, {"scriptPubKey": {"reqSigs": 1, "hex": "76a914fa005b413b4d711371402f7e72ddc7e7f258a11488ac", "addresses": ["1PntMj4TS4YvKNicAhDB1WFgJsUxrx17X9"], "asm": "OP_DUP OP_HASH160 fa005b413b4d711371402f7e72ddc7e7f258a114 OP_EQUALVERIFY OP_CHECKSIG", "type": "pubkeyhash"}, "value": 0.49999618, "n": 1}], "hex": "0100000001b6c8a3b7ff82de7e23ee90d7587c689cab07e4da4777a53ed89fbc8b864388c6010000006a47304402203b9467e2fe2563d08d89d4a076c4690d0b8744c0903df8d4f4d530e729f65e240220311b92b7d3cffe4ff14bed59a3f6f1a4326326f02e834378c485cbf10d482f65012102df76f21ae42454d34aa9f530c0c137569ccd9c49cf2eaa23657cc0365830ad4bffffffff0280c3c901000000001976a914b530102633bd3a89d1bba4209f6de3ff623b139188ac02effa02000000001976a914fa005b413b4d711371402f7e72ddc7e7f258a11488ac00000000", "vin": [{"sequence": 4294967295, "scriptSig": {"hex": "47304402203b9467e2fe2563d08d89d4a076c4690d0b8744c0903df8d4f4d530e729f65e240220311b92b7d3cffe4ff14bed59a3f6f1a4326326f02e834378c485cbf10d482f65012102df76f21ae42454d34aa9f530c0c137569ccd9c49cf2eaa23657cc0365830ad4b", "asm": "304402203b9467e2fe2563d08d89d4a076c4690d0b8744c0903df8d4f4d530e729f65e240220311b92b7d3cffe4ff14bed59a3f6f1a4326326f02e834378c485cbf10d482f65[ALL] 02df76f21ae42454d34aa9f530c0c137569ccd9c49cf2eaa23657cc0365830ad4b"}, "vout": 1, "txid": "c68843868bbc9fd83ea57747dae407ab9c687c58d790ee237ede82ffb7a3c8b6"}], "txid": "789cff88406c2d5150b32d933e41ba8786d89e5418fa2a45f843d7e3b482b405", "blocktime": 1537873282, "version": 1, "confirmations": 11481, "time": 1537873282, "locktime": 0, "vsize": 225, "size": 225}