{"hash": "26415d48fef104c937d240a22f9aeeaf070cc4e38a8fa918b66d5f322714adad", "blockhash": "0000000000000000000e13cef7c366c0283d82e591d1acd082e914b08063cdf1", "vout": [{"scriptPubKey": {"reqSigs": 1, "hex": "00141be926fb162adb53ac20102d1d65e87cb92b9608", "addresses": ["bc1qr05jd7ck9td48tpqzqk36e0g0jujh9sgj7znmy"], "asm": "0 1be926fb162adb53ac20102d1d65e87cb92b9608", "type": "witness_v0_keyhash"}, "value": 0.1382956, "n": 0}, {"scriptPubKey": {"reqSigs": 1, "hex": "a91425be74457031a07ac1059d32fea4ce10e9a6011d87", "addresses": ["358b5dWHSroKsAofzmZ4NotnjT5BYRP3uq"], "asm": "OP_HASH160 25be74457031a07ac1059d32fea4ce10e9a6011d OP_EQUAL", "type": "scripthash"}, "value": 0.03674, "n": 1}], "hex": "01000000000101c9d3117831c3c2cf6dd7a47bbf6c56f3b046c8430865af76978b394940c7d3ed0400000017160014abe6c5be393b4e5adb7630c938eb1e3fb3544a1effffffff02b805d300000000001600141be926fb162adb53ac20102d1d65e87cb92b9608900f38000000000017a91425be74457031a07ac1059d32fea4ce10e9a6011d8702483045022100f536b55b5125273fb2605b99442a286c5a2fda35ab97a35195710938cf09797c02201ed1feecf4d3dd2a13d4bd927f271ff4cc70daf36fda616f8128816f89fe19a701210236bdb332fc0df35c1544518778fa41a5326ecc9aad1ded09d0b635d48cf208c400000000", "vin": [{"txinwitness": ["3045022100f536b55b5125273fb2605b99442a286c5a2fda35ab97a35195710938cf09797c02201ed1feecf4d3dd2a13d4bd927f271ff4cc70daf36fda616f8128816f89fe19a701", "0236bdb332fc0df35c1544518778fa41a5326ecc9aad1ded09d0b635d48cf208c4"], "sequence": 4294967295, "scriptSig": {"hex": "160014abe6c5be393b4e5adb7630c938eb1e3fb3544a1e", "asm": "0014abe6c5be393b4e5adb7630c938eb1e3fb3544a1e"}, "vout": 4, "txid": "edd3c74049398b9776af650843c846b0f3566cbf7ba4d76dcfc2c3317811d3c9"}], "txid": "78a7c80d8876f95d9300d37e39d5a85319c94345d75377acadc1d9a4ddde0c6f", "blocktime": 1537871767, "version": 1, "confirmations": 11495, "time": 1537871767, "locktime": 0, "vsize": 165, "size": 247}