{"hash": "690cafd64e118b0fa7f54e587919f01b97acc337469b07ea884ac0d1b15dd175", "blockhash": "0000000000000000001cda96e906b7601b7a6fb1a3b62bca570a9e5d8f4b3de1", "vout": [{"scriptPubKey": {"reqSigs": 1, "hex": "a91482e7e273ec4e0dff2590e50d5fec2ebc665cd1f787", "addresses": ["3DdBZ734DjaqBf29PvjxWv9mvU6VaQEs8H"], "asm": "OP_HASH160 82e7e273ec4e0dff2590e50d5fec2ebc665cd1f7 OP_EQUAL", "type": "scripthash"}, "value": 0.1490886, "n": 0}, {"scriptPubKey": {"reqSigs": 1, "hex": "76a914bf4aadf0b7004e8cdc6a0ea183b4fb1ec861e2e988ac", "addresses": ["1JSTXTdGsSNrWQWSNRtocF6NDAGWHNWSpo"], "asm": "OP_DUP OP_HASH160 bf4aadf0b7004e8cdc6a0ea183b4fb1ec861e2e9 OP_EQUALVERIFY OP_CHECKSIG", "type": "pubkeyhash"}, "value": 0.04400611, "n": 1}, {"scriptPubKey": {"reqSigs": 1, "hex": "76a914529b37239551dd2d3dbffaf9004b7a9e38de599588ac", "addresses": ["18XnMHV9T5h6BxBXB58cGFpESwURU9CfG4"], "asm": "OP_DUP OP_HASH160 529b37239551dd2d3dbffaf9004b7a9e38de5995 OP_EQUALVERIFY OP_CHECKSIG", "type": "pubkeyhash"}, "value": 0.00737602, "n": 2}, {"scriptPubKey": {"reqSigs": 1, "hex": "76a914e6ed16a66dbe80400cef3205579fbe7758b45e4a88ac", "addresses": ["1N42SKPyGEPpaK4ePwu9TAv55U44XL4kpb"], "asm": "OP_DUP OP_HASH160 e6ed16a66dbe80400cef3205579fbe7758b45e4a OP_EQUALVERIFY OP_CHECKSIG", "type": "pubkeyhash"}, "value": 0.00708688, "n": 3}, {"scriptPubKey": {"reqSigs": 1, "hex": "76a91482b65a0637ff6d66dcfd27e3778098abbe1eb8db88ac", "addresses": ["1Cv9HxHfgDnSLKnL6HK5ykfDY1v63uJ8v1"], "asm": "OP_DUP OP_HASH160 82b65a0637ff6d66dcfd27e3778098abbe1eb8db OP_EQUALVERIFY OP_CHECKSIG", "type": "pubkeyhash"}, "value": 0.3604039, "n": 4}, {"scriptPubKey": {"reqSigs": 1, "hex": "a914facbfb696c9df32821f20edf3be6896dfe17e6e687", "addresses": ["3QZ7DRaVFCRt8n5UrqjvB1NNwnwNiq2PzY"], "asm": "OP_HASH160 facbfb696c9df32821f20edf3be6896dfe17e6e6 OP_EQUAL", "type": "scripthash"}, "value": 0.36770796, "n": 5}, {"scriptPubKey": {"reqSigs": 1, "hex": "76a91445e6c2d5464d86bb2ccbad8831d58892ab52624888ac", "addresses": ["17Nc4oBnJNvf4YwDLHs8Mv77nYoVyrvz4t"], "asm": "OP_DUP OP_HASH160 45e6c2d5464d86bb2ccbad8831d58892ab526248 OP_EQUALVERIFY OP_CHECKSIG", "type": "pubkeyhash"}, "value": 0.00458686, "n": 6}, {"scriptPubKey": {"reqSigs": 1, "hex": "76a9146a9b75663e52c27f4634a05de6e73cf817d22ec988ac", "addresses": ["1AigrncAPCzGprNC4mm1Fk1X2dvrF5LfzH"], "asm": "OP_DUP OP_HASH160 6a9b75663e52c27f4634a05de6e73cf817d22ec9 OP_EQUALVERIFY OP_CHECKSIG", "type": "pubkeyhash"}, "value": 0.00709096, "n": 7}, {"scriptPubKey": {"reqSigs": 1, "hex": "76a91429d4d1edd45a9da5399f0444e7880a32e8b9e9f388ac", "addresses": ["14pBeru9YHhoFFeyfKc6VyN3rpEyZ6Foe8"], "asm": "OP_DUP OP_HASH160 29d4d1edd45a9da5399f0444e7880a32e8b9e9f3 OP_EQUALVERIFY OP_CHECKSIG", "type": "pubkeyhash"}, "value": 0.01761902, "n": 8}, {"scriptPubKey": {"reqSigs": 1, "hex": "76a914a457a9bc6fcae4f73a9183474c462476d07e8bb788ac", "addresses": ["1FyxqPsmorZsk2uSpdAxryvpSHk5zUtb4t"], "asm": "OP_DUP OP_HASH160 a457a9bc6fcae4f73a9183474c462476d07e8bb7 OP_EQUALVERIFY OP_CHECKSIG", "type": "pubkeyhash"}, "value": 0.00561962, "n": 9}, {"scriptPubKey": {"reqSigs": 1, "hex": "a914f6cdefa546cd9f26205b7a73c9a88e22510d72e487", "addresses": ["3QBzrRfznopfNKUdoH6RTBNigZbxv8yuAx"], "asm": "OP_HASH160 f6cdefa546cd9f26205b7a73c9a88e22510d72e4 OP_EQUAL", "type": "scripthash"}, "value": 0.03278177, "n": 10}], "hex": "01000000000102ce9b7b3ed847e4ca5a3326d062aae16db9b5ea94773c874921a5d92972f566b405000000232200204da7683c51c32594981b3c98474ffe4cbdd9764c57924a7aa93459c50fec0d54ffffffffd769f0362c63f55d252071f7866bd69b3ee3e261f4190205cf2a72acab435da20000000023220020f8476b9b91a32ab3c3ffd8e402012e755dc7418b06ebca13ae69ab477dba4baaffffffff0bbc7de3000000000017a91482e7e273ec4e0dff2590e50d5fec2ebc665cd1f787e3254300000000001976a914bf4aadf0b7004e8cdc6a0ea183b4fb1ec861e2e988ac42410b00000000001976a914529b37239551dd2d3dbffaf9004b7a9e38de599588ac50d00a00000000001976a914e6ed16a66dbe80400cef3205579fbe7758b45e4a88acc6ee2502000000001976a91482b65a0637ff6d66dcfd27e3778098abbe1eb8db88acec1331020000000017a914facbfb696c9df32821f20edf3be6896dfe17e6e687beff0600000000001976a91445e6c2d5464d86bb2ccbad8831d58892ab52624888ace8d10a00000000001976a9146a9b75663e52c27f4634a05de6e73cf817d22ec988ac6ee21a00000000001976a91429d4d1edd45a9da5399f0444e7880a32e8b9e9f388ac2a930800000000001976a914a457a9bc6fcae4f73a9183474c462476d07e8bb788ac610532000000000017a914f6cdefa546cd9f26205b7a73c9a88e22510d72e48703483045022100d8bcce93c1af3c25b0060c76e9d27807611d0dd6fdbefcd4d97c3b39d328b4f002202904278ebe44603fedf632985167be37297735bab21a77847a73ce817d195bd3012102fa672962da2926de722d6988cba1c2ad1c3f031cf5ff14a8a51ce7b1bcd66c731976a914194794cc6dec3f08f9e0d368799fbe6d205fb6fb88ac03483045022100e96baaad9c38d00aea21ccb3fd3518c874fe232fd75504f677eb7129e2cb97580220757013a38a7c8229f832f10f9bb9d3267b2b1ed56462932005ee9c49803cfb480121024353f8ea92e16872b95bf834016d0e710196bff881ed75905470a0dbab9010351976a91402e28e7dfa52076860ec0720e279203d77a362d788ac00000000", "vin": [{"txinwitness": ["3045022100d8bcce93c1af3c25b0060c76e9d27807611d0dd6fdbefcd4d97c3b39d328b4f002202904278ebe44603fedf632985167be37297735bab21a77847a73ce817d195bd301", "02fa672962da2926de722d6988cba1c2ad1c3f031cf5ff14a8a51ce7b1bcd66c73", "76a914194794cc6dec3f08f9e0d368799fbe6d205fb6fb88ac"], "sequence": 4294967295, "scriptSig": {"hex": "2200204da7683c51c32594981b3c98474ffe4cbdd9764c57924a7aa93459c50fec0d54", "asm": "00204da7683c51c32594981b3c98474ffe4cbdd9764c57924a7aa93459c50fec0d54"}, "vout": 5, "txid": "b466f57229d9a52149873c7794eab5b96de1aa62d026335acae447d83e7b9bce"}, {"txinwitness": ["3045022100e96baaad9c38d00aea21ccb3fd3518c874fe232fd75504f677eb7129e2cb97580220757013a38a7c8229f832f10f9bb9d3267b2b1ed56462932005ee9c49803cfb4801", "024353f8ea92e16872b95bf834016d0e710196bff881ed75905470a0dbab901035", "76a91402e28e7dfa52076860ec0720e279203d77a362d788ac"], "sequence": 4294967295, "scriptSig": {"hex": "220020f8476b9b91a32ab3c3ffd8e402012e755dc7418b06ebca13ae69ab477dba4baa", "asm": "0020f8476b9b91a32ab3c3ffd8e402012e755dc7418b06ebca13ae69ab477dba4baa"}, "vout": 0, "txid": "a25d43abac722acf050219f461e2e33e9bd66b86f77120255df5632c36f069d7"}], "txid": "78ae891cb73f19e96313612ae35f1aa6b8ec4f8bb7c42a34b8ddf256981c8ce0", "blocktime": 1537873282, "version": 1, "confirmations": 11484, "time": 1537873282, "locktime": 0, "vsize": 598, "size": 800}