{"hash": "78b53a0237933d7a73edf14b5ed602adcd864f7b1564fe92bbff63c755432b30", "blockhash": "0000000000000000001f0ddff1eddb255c1121bcd4da4f1bc9a0da00cae72433", "vout": [{"scriptPubKey": {"reqSigs": 1, "hex": "a914ec41818b6dbccc1c5337b35f6e2878066dd7b3e587", "addresses": ["3PEDsFjEawtvHhkY6Pdd3akppUm1jAKwPH"], "asm": "OP_HASH160 ec41818b6dbccc1c5337b35f6e2878066dd7b3e5 OP_EQUAL", "type": "scripthash"}, "value": 0.00649554, "n": 0}, {"scriptPubKey": {"reqSigs": 1, "hex": "76a9147842f522ce6257892f559d135babcf297a9c077e88ac", "addresses": ["1BxtJK8jL4LkHneEWEXRhoPBzGeyKratUj"], "asm": "OP_DUP OP_HASH160 7842f522ce6257892f559d135babcf297a9c077e OP_EQUALVERIFY OP_CHECKSIG", "type": "pubkeyhash"}, "value": 0.00390966, "n": 1}], "hex": "01000000015fb826d3035c0b0f2185f7ed33f3e99249abdbb89aaacfe080ef2e9ec50a59e501000000fdfe0000483045022100b4ea43584030574a7c3d11b6eaf5ad7d699a0604f3f623b400b2030717fdb54302204d52eb114060e493ce713fba6ebbc003bd8689df2ecf8587aa8650483da98bbe01483045022100a004681426c564ccaa981afd58c74c6743f3bf2b01b76fdfb01445977fc8ed8202201080667a98f602ab2116a2b9718e31c94570897db064f7505fffa7e6904fc640014c69522102ab4dfdf59cb22175ac5e57030b854143a6f56b3f26f7e7a620b461839fb147b2210357a30f7151ee56949740e42ef7ebd4b378bcc437f4c232230e4347bde37166782103bffbac021f7161edb3a86c0bffd1ac31a1ed379985b988e3a2165568a379279553aeffffffff0252e909000000000017a914ec41818b6dbccc1c5337b35f6e2878066dd7b3e58736f70500000000001976a9147842f522ce6257892f559d135babcf297a9c077e88ac00000000", "vin": [{"sequence": 4294967295, "scriptSig": {"hex": "00483045022100b4ea43584030574a7c3d11b6eaf5ad7d699a0604f3f623b400b2030717fdb54302204d52eb114060e493ce713fba6ebbc003bd8689df2ecf8587aa8650483da98bbe01483045022100a004681426c564ccaa981afd58c74c6743f3bf2b01b76fdfb01445977fc8ed8202201080667a98f602ab2116a2b9718e31c94570897db064f7505fffa7e6904fc640014c69522102ab4dfdf59cb22175ac5e57030b854143a6f56b3f26f7e7a620b461839fb147b2210357a30f7151ee56949740e42ef7ebd4b378bcc437f4c232230e4347bde37166782103bffbac021f7161edb3a86c0bffd1ac31a1ed379985b988e3a2165568a379279553ae", "asm": "0 3045022100b4ea43584030574a7c3d11b6eaf5ad7d699a0604f3f623b400b2030717fdb54302204d52eb114060e493ce713fba6ebbc003bd8689df2ecf8587aa8650483da98bbe[ALL] 3045022100a004681426c564ccaa981afd58c74c6743f3bf2b01b76fdfb01445977fc8ed8202201080667a98f602ab2116a2b9718e31c94570897db064f7505fffa7e6904fc640[ALL] 522102ab4dfdf59cb22175ac5e57030b854143a6f56b3f26f7e7a620b461839fb147b2210357a30f7151ee56949740e42ef7ebd4b378bcc437f4c232230e4347bde37166782103bffbac021f7161edb3a86c0bffd1ac31a1ed379985b988e3a2165568a379279553ae"}, "vout": 1, "txid": "e5590ac59e2eef80e0cfaa9ab8dbab4992e9f333edf785210f0b5c03d326b85f"}], "txid": "78b53a0237933d7a73edf14b5ed602adcd864f7b1564fe92bbff63c755432b30", "blocktime": 1537872018, "version": 1, "confirmations": 11489, "time": 1537872018, "locktime": 0, "vsize": 373, "size": 373}