{"hash": "58b782a3be38c4e572a663516ba54d9a883eb393baa1eccb41b2e6d222fcde42", "blockhash": "00000000000000000018f53835495a110e01622372bf6ae95dc86f2b0ab887b0", "vout": [{"scriptPubKey": {"reqSigs": 1, "hex": "a9149723bc24b083e9e3f3d7fefe59845a2390be044987", "addresses": ["3FUAmR8sD6DSYAjCUkJCSvHDUKZhoohAnV"], "asm": "OP_HASH160 9723bc24b083e9e3f3d7fefe59845a2390be0449 OP_EQUAL", "type": "scripthash"}, "value": 0.5, "n": 0}, {"scriptPubKey": {"reqSigs": 1, "hex": "a91494f6216a2ee3d32609dc443335fd2de48685842b87", "addresses": ["3FGenPCAC2exZ9zSYxFpt3H6ooNPwcMCGA"], "asm": "OP_HASH160 94f6216a2ee3d32609dc443335fd2de48685842b OP_EQUAL", "type": "scripthash"}, "value": 0.47454131, "n": 1}], "hex": "010000000001035f32757b7aafa2d39290915219a402da285b31fb933216dc6d59a08038e35f490000000017160014d8c376f078aece94be30b5db222b7ddf5e44ac0dffffffff33847890330d9da134e09a559371014bf4bfa524418be09fe0fc3ba1f8c8cd350000000017160014ee4ca4b053a6ee32e4182ce6b17d0030857a2385fffffffff4594d4567a7af21f8f14f12c2b490be561536d2c1a437f201e9f5e088a26eec010000001716001415ca33306d347b65c3240640d1b8fa281fbcb0cbffffffff0280f0fa020000000017a9149723bc24b083e9e3f3d7fefe59845a2390be044987b317d4020000000017a91494f6216a2ee3d32609dc443335fd2de48685842b8702483045022100e54ecf94fa232e2fc23edeaff87c2cd7b2bdb2b81bc88eb2be4bb59e150fe86d022033bb85293ce2c68dfcaefd98e2cb538bacce0d5d119e8ccb665694662541e5ed01210262761d05fec664f22a590a873868aeb8503a4e313135a3d46114ba6da56f64ea02473044022049edf7eccc1bd229511737c0f3ec4962b49551a3fabd600c9827630bf5415d8b02202350beb9d7ca3eb407540934a9e18df749068406e91081a4c22c58e2f7ad4a0b012102c17456019f2f27f6613a36fb0abd8611bfe1190c4a09634550a2d595372449f50247304402200ebd2998983990b3f5fc1e04dc99fb0f2aad0cdd78de4c9228ef1cfcacaca4fa0220634c8be40511e1e0ea5ffe286da26e00ddca85f08ab7bb72b965166d8e62921d0121035144baaf1d4adeb8bb37330974f0060e8aecfa6ca40070a021f4e0f59a5f421e00000000", "vin": [{"txinwitness": ["3045022100e54ecf94fa232e2fc23edeaff87c2cd7b2bdb2b81bc88eb2be4bb59e150fe86d022033bb85293ce2c68dfcaefd98e2cb538bacce0d5d119e8ccb665694662541e5ed01", "0262761d05fec664f22a590a873868aeb8503a4e313135a3d46114ba6da56f64ea"], "sequence": 4294967295, "scriptSig": {"hex": "160014d8c376f078aece94be30b5db222b7ddf5e44ac0d", "asm": "0014d8c376f078aece94be30b5db222b7ddf5e44ac0d"}, "vout": 0, "txid": "495fe33880a0596ddc163293fb315b28da02a41952919092d3a2af7a7b75325f"}, {"txinwitness": ["3044022049edf7eccc1bd229511737c0f3ec4962b49551a3fabd600c9827630bf5415d8b02202350beb9d7ca3eb407540934a9e18df749068406e91081a4c22c58e2f7ad4a0b01", "02c17456019f2f27f6613a36fb0abd8611bfe1190c4a09634550a2d595372449f5"], "sequence": 4294967295, "scriptSig": {"hex": "160014ee4ca4b053a6ee32e4182ce6b17d0030857a2385", "asm": "0014ee4ca4b053a6ee32e4182ce6b17d0030857a2385"}, "vout": 0, "txid": "35cdc8f8a13bfce09fe08b4124a5bff44b017193559ae034a19d0d3390788433"}, {"txinwitness": ["304402200ebd2998983990b3f5fc1e04dc99fb0f2aad0cdd78de4c9228ef1cfcacaca4fa0220634c8be40511e1e0ea5ffe286da26e00ddca85f08ab7bb72b965166d8e62921d01", "035144baaf1d4adeb8bb37330974f0060e8aecfa6ca40070a021f4e0f59a5f421e"], "sequence": 4294967295, "scriptSig": {"hex": "16001415ca33306d347b65c3240640d1b8fa281fbcb0cb", "asm": "001415ca33306d347b65c3240640d1b8fa281fbcb0cb"}, "vout": 1, "txid": "ec6ea288e0f5e901f237a4c1d2361556be90b4c2124ff1f821afa767454d59f4"}], "txid": "78b6804987af0f11884822f16d0e967938934cb93ee893d87e3d1b88d7e00d5d", "blocktime": 1537870928, "version": 1, "confirmations": 11514, "time": 1537870928, "locktime": 0, "vsize": 347, "size": 590}