{"hash": "78b94ab44f071cb049861811f75334e23a13852b4d36d91b22ba20a0a6c98e21", "blockhash": "0000000000000000000e13cef7c366c0283d82e591d1acd082e914b08063cdf1", "vout": [{"scriptPubKey": {"reqSigs": 1, "hex": "76a914052b7a070db3c95bf8cb8c0e34ced2780b87e58488ac", "addresses": ["1ULTmj9pDCfBaS5XyqAfDbYVMQYvhyzhh"], "asm": "OP_DUP OP_HASH160 052b7a070db3c95bf8cb8c0e34ced2780b87e584 OP_EQUALVERIFY OP_CHECKSIG", "type": "pubkeyhash"}, "value": 0.0154797, "n": 0}, {"scriptPubKey": {"reqSigs": 1, "hex": "76a914220731c52dd793c82d2b8653c8242c7b7883598388ac", "addresses": ["146vbQ94p6mFcZCxKqT4CE1xCrPbd9mPfQ"], "asm": "OP_DUP OP_HASH160 220731c52dd793c82d2b8653c8242c7b78835983 OP_EQUALVERIFY OP_CHECKSIG", "type": "pubkeyhash"}, "value": 1.05200186, "n": 1}], "hex": "010000000142fd59bfcf5f7cf4123740cca1ccd1ff654a339fe5026112c6e6bdd839aa7cff010000006b483045022100c2ea047f2bf39066f744444b096ef1d3e803d1beb1dd989144d292518b752bc402205714143d17dcc231860eaf1717f02071a1090094e7ca9577a2d7813025202cf90121039e45d9bdd482997167e41023cc8db8a0f08b2ea74ca93192b1b7b3ecae7c77bfffffffff02c29e1700000000001976a914052b7a070db3c95bf8cb8c0e34ced2780b87e58488ac3a3a4506000000001976a914220731c52dd793c82d2b8653c8242c7b7883598388ac00000000", "vin": [{"sequence": 4294967295, "scriptSig": {"hex": "483045022100c2ea047f2bf39066f744444b096ef1d3e803d1beb1dd989144d292518b752bc402205714143d17dcc231860eaf1717f02071a1090094e7ca9577a2d7813025202cf90121039e45d9bdd482997167e41023cc8db8a0f08b2ea74ca93192b1b7b3ecae7c77bf", "asm": "3045022100c2ea047f2bf39066f744444b096ef1d3e803d1beb1dd989144d292518b752bc402205714143d17dcc231860eaf1717f02071a1090094e7ca9577a2d7813025202cf9[ALL] 039e45d9bdd482997167e41023cc8db8a0f08b2ea74ca93192b1b7b3ecae7c77bf"}, "vout": 1, "txid": "ff7caa39d8bde6c6126102e59f334a65ffd1cca1cc403712f47c5fcfbf59fd42"}], "txid": "78b94ab44f071cb049861811f75334e23a13852b4d36d91b22ba20a0a6c98e21", "blocktime": 1537871767, "version": 1, "confirmations": 11495, "time": 1537871767, "locktime": 0, "vsize": 226, "size": 226}