{"hash": "23d08752112b8e4d92341ec3cc4fd164035e1d117fd800166955ed8e090c203e", "blockhash": "00000000000000000024a2167bbff67b0be802c0b01cdd79e6331c2be6459f87", "vout": [{"scriptPubKey": {"reqSigs": 1, "hex": "76a914af1a852f8d68e3ad5a48fdc28bab9c736690eeac88ac", "addresses": ["1Gxs2ELxxtddG6hf7ugKBZZntKPd3xu8uK"], "asm": "OP_DUP OP_HASH160 af1a852f8d68e3ad5a48fdc28bab9c736690eeac OP_EQUALVERIFY OP_CHECKSIG", "type": "pubkeyhash"}, "value": 0.0156795, "n": 0}, {"scriptPubKey": {"reqSigs": 1, "hex": "a9144c50d37da2a25e3d2658f8882b829bde0a5de99587", "addresses": ["38eY72Bge5uPcdXA8ZBfJnkmDhPy7T9Hqg"], "asm": "OP_HASH160 4c50d37da2a25e3d2658f8882b829bde0a5de995 OP_EQUAL", "type": "scripthash"}, "value": 0.01038553, "n": 1}], "hex": "02000000000102181074ee057e351412f76cb89b3e5715c19aee326499c6ab380fde6791877b650000000017160014933185b7afc8cfc4af5141593ef8a5c6caae2911feffffff32f3b39409dbacd4808840fb7a30f1f73215c4a9ddd41d775bb79b6d597696790100000017160014688296c41ab37c92577df499c81aa568e0d9a776feffffff02ceec1700000000001976a914af1a852f8d68e3ad5a48fdc28bab9c736690eeac88acd9d80f000000000017a9144c50d37da2a25e3d2658f8882b829bde0a5de9958702483045022100f421c0cd8473a6f9980b77b61fdd69da97d52c003a3583e5b097abec7942708e02203fc22b89764802f61a8f5364481e73ce6747777ff760df8311f9d7536c0dc7e101210351433410689c58c77cbef2bdc27dd64939f9f050210297cec47b014f5eb68db102483045022100f98d03bf5eb0e95a15ecedc9137910a67d86a009c46333c4a9a57ff42991747f02201f81af5043b44cc67bb6ffd983ac8e354ec7a9b659ecb32cece007695709c2c401210309c593950d074774596d0fe7962726bfa265d4d5cbf17305eb7772bf01f0fa26aa480800", "vin": [{"txinwitness": ["3045022100f421c0cd8473a6f9980b77b61fdd69da97d52c003a3583e5b097abec7942708e02203fc22b89764802f61a8f5364481e73ce6747777ff760df8311f9d7536c0dc7e101", "0351433410689c58c77cbef2bdc27dd64939f9f050210297cec47b014f5eb68db1"], "sequence": 4294967294, "scriptSig": {"hex": "160014933185b7afc8cfc4af5141593ef8a5c6caae2911", "asm": "0014933185b7afc8cfc4af5141593ef8a5c6caae2911"}, "vout": 0, "txid": "657b879167de0f38abc6996432ee9ac115573e9bb86cf71214357e05ee741018"}, {"txinwitness": ["3045022100f98d03bf5eb0e95a15ecedc9137910a67d86a009c46333c4a9a57ff42991747f02201f81af5043b44cc67bb6ffd983ac8e354ec7a9b659ecb32cece007695709c2c401", "0309c593950d074774596d0fe7962726bfa265d4d5cbf17305eb7772bf01f0fa26"], "sequence": 4294967294, "scriptSig": {"hex": "160014688296c41ab37c92577df499c81aa568e0d9a776", "asm": "0014688296c41ab37c92577df499c81aa568e0d9a776"}, "vout": 1, "txid": "799676596d9bb75b771dd4dda9c41532f7f1307afb408880d4acdb0994b3f332"}], "txid": "78c1cf7d248456fd6c61dabd955ac06f06307a8d38e4732e9123cc915bb0c694", "blocktime": 1537870564, "version": 2, "confirmations": 11515, "time": 1537870564, "locktime": 542890, "vsize": 259, "size": 422}