{"hash": "01657ff5de74113ab24e279fe52b7aa7959c4335aa8827d944351c1dc24ecfb8", "blockhash": "0000000000000000000dcc0f55137456b1a82d3642486a52398922ac4d620174", "vout": [{"scriptPubKey": {"reqSigs": 1, "hex": "a914d2c8854aabbd2eaa2bc6d47823298bda1368a05887", "addresses": ["3LuY3FNWTNqvp6yjqdNMZAfPVSBH63Snvk"], "asm": "OP_HASH160 d2c8854aabbd2eaa2bc6d47823298bda1368a058 OP_EQUAL", "type": "scripthash"}, "value": 0.010052, "n": 0}, {"scriptPubKey": {"reqSigs": 1, "hex": "76a9142e1b944fe7ffbe969fc1df8d662fd7b5d6303c9b88ac", "addresses": ["15Co856cRnFRCKwSSzECoyT3ozVhuFoJZ6"], "asm": "OP_DUP OP_HASH160 2e1b944fe7ffbe969fc1df8d662fd7b5d6303c9b OP_EQUALVERIFY OP_CHECKSIG", "type": "pubkeyhash"}, "value": 0.0030956, "n": 1}], "hex": "020000000001020ed02fceaf7574a8d27de89fa4717ad17ceb34cfcb3d5dae7fbacd9425e1a1ad01000000171600140c6672faa1f67c005674ba30952c281e2d5704dffeffffff58535fc7e487b408b19cf4228fb66dda23210995e373f055ae70bd9962b9f9f60200000017160014e8fbb572b42809b6b6cedf211552383f67780566feffffff0290560f000000000017a914d2c8854aabbd2eaa2bc6d47823298bda1368a0588738b90400000000001976a9142e1b944fe7ffbe969fc1df8d662fd7b5d6303c9b88ac02483045022100ae8ed3ae248b3c063837f3675f9150b367188a7d918321ddb5dbd87d19e5c47d0220145aa36833e342d952a9a950f4c8b7ad1c73b37790af760bcd760e80167fd427012103fa7dead2d0d12b0be8e56a4442e40a214048562466370a003d1f805e8b9ad0c702483045022100beb960f4ac88143d887b0855a2e0108d773b90d10bb1d681bc6a973d37ca313d022031aded9177267e39be9f205b1576d0b0842bf0fe78efdbe93eba3f496e66f04901210298adcc47f46bee85264bfacbf73eada9c3706662870d40b285e571d715b22f0b0b490800", "vin": [{"txinwitness": ["3045022100ae8ed3ae248b3c063837f3675f9150b367188a7d918321ddb5dbd87d19e5c47d0220145aa36833e342d952a9a950f4c8b7ad1c73b37790af760bcd760e80167fd42701", "03fa7dead2d0d12b0be8e56a4442e40a214048562466370a003d1f805e8b9ad0c7"], "sequence": 4294967294, "scriptSig": {"hex": "1600140c6672faa1f67c005674ba30952c281e2d5704df", "asm": "00140c6672faa1f67c005674ba30952c281e2d5704df"}, "vout": 1, "txid": "ada1e12594cdba7fae5d3dcbcf34eb7cd17a71a49fe87dd2a87475afce2fd00e"}, {"txinwitness": ["3045022100beb960f4ac88143d887b0855a2e0108d773b90d10bb1d681bc6a973d37ca313d022031aded9177267e39be9f205b1576d0b0842bf0fe78efdbe93eba3f496e66f04901", "0298adcc47f46bee85264bfacbf73eada9c3706662870d40b285e571d715b22f0b"], "sequence": 4294967294, "scriptSig": {"hex": "160014e8fbb572b42809b6b6cedf211552383f67780566", "asm": "0014e8fbb572b42809b6b6cedf211552383f67780566"}, "vout": 2, "txid": "f6f9b96299bd70ae55f073e395092123da6db68f22f49cb108b487e4c75f5358"}], "txid": "78c6e56ac250d98c101a1ed5c2f2463e6480a7c43d0f99bc5b5ef5cab054040e", "blocktime": 1537870268, "version": 2, "confirmations": 11519, "time": 1537870268, "locktime": 542987, "vsize": 259, "size": 422}