{"hash": "78cb9b29ca9a11d50cf94c664ff51442235badc272f430c397b59a3a389cb854", "blockhash": "0000000000000000000dcc0f55137456b1a82d3642486a52398922ac4d620174", "vout": [{"scriptPubKey": {"type": "nulldata", "hex": "6a4c500000776d000121ddf512e147afdd739e12c986aeaeacb577c031fc3a016b46dc7dc7d096a8db51c8fa9c1a99480b4f2b1b5892065baa08b30613ca0b1d1fe2a9bc9a9526289ac0f6612cd74e33776ee4", "asm": "OP_RETURN 0000776d000121ddf512e147afdd739e12c986aeaeacb577c031fc3a016b46dc7dc7d096a8db51c8fa9c1a99480b4f2b1b5892065baa08b30613ca0b1d1fe2a9bc9a9526289ac0f6612cd74e33776ee4"}, "value": 0.0, "n": 0}, {"scriptPubKey": {"reqSigs": 1, "hex": "76a91416235756efe7c65c69e1aea2c62f8569f642f7de88ac", "addresses": ["1324CmXyyu8woZQ38puy7G5VzEyM5oA1A6"], "asm": "OP_DUP OP_HASH160 16235756efe7c65c69e1aea2c62f8569f642f7de OP_EQUALVERIFY OP_CHECKSIG", "type": "pubkeyhash"}, "value": 0.0224864, "n": 1}], "hex": "01000000014aab7deced70c6d36c09233aec8d918fac1f537a83a5f4750ff9c777ef64cbe7000000006a47304402202e2d4e961d150b5186d0e554c031ffb642f65b574c83f777d12fa55135135d7d02203c4d711bea5d7096cefffd0694099281b2f2b6d3e42880d353bfb2917629301101210316c61d69920e8f800627792fc58adfb9257c1d5682ddd1740e17c91e178026ebffffffff020000000000000000536a4c500000776d000121ddf512e147afdd739e12c986aeaeacb577c031fc3a016b46dc7dc7d096a8db51c8fa9c1a99480b4f2b1b5892065baa08b30613ca0b1d1fe2a9bc9a9526289ac0f6612cd74e33776ee4c04f2200000000001976a91416235756efe7c65c69e1aea2c62f8569f642f7de88ac00000000", "vin": [{"sequence": 4294967295, "scriptSig": {"hex": "47304402202e2d4e961d150b5186d0e554c031ffb642f65b574c83f777d12fa55135135d7d02203c4d711bea5d7096cefffd0694099281b2f2b6d3e42880d353bfb2917629301101210316c61d69920e8f800627792fc58adfb9257c1d5682ddd1740e17c91e178026eb", "asm": "304402202e2d4e961d150b5186d0e554c031ffb642f65b574c83f777d12fa55135135d7d02203c4d711bea5d7096cefffd0694099281b2f2b6d3e42880d353bfb29176293011[ALL] 0316c61d69920e8f800627792fc58adfb9257c1d5682ddd1740e17c91e178026eb"}, "vout": 0, "txid": "e7cb64ef77c7f90f75f4a5837a531fac8f918dec3a23096cd3c670edec7dab4a"}], "txid": "78cb9b29ca9a11d50cf94c664ff51442235badc272f430c397b59a3a389cb854", "blocktime": 1537870268, "version": 1, "confirmations": 11518, "time": 1537870268, "locktime": 0, "vsize": 283, "size": 283}