{"hash": "78cdf08c88ff213762f5dfc8900eadef04dc32eeccee98dcbc6497183b34fdc5", "blockhash": "0000000000000000001e0dab787dd257d1dbfcb92a98c2207d5e1078be1f4165", "vout": [{"scriptPubKey": {"reqSigs": 1, "hex": "76a91425f7399f9391d876f347764558bd3b80ea9c99f188ac", "addresses": ["14TkAbhMfwbWnmB5EAYnVCd47o5G7EoKBb"], "asm": "OP_DUP OP_HASH160 25f7399f9391d876f347764558bd3b80ea9c99f1 OP_EQUALVERIFY OP_CHECKSIG", "type": "pubkeyhash"}, "value": 0.01650623, "n": 0}, {"scriptPubKey": {"reqSigs": 1, "hex": "76a91425304f5ff529b745781d57cf49c0da177b8378f288ac", "addresses": ["14PdsjtLMENXpXwFMBgcKVvJfLZBkLwkrL"], "asm": "OP_DUP OP_HASH160 25304f5ff529b745781d57cf49c0da177b8378f2 OP_EQUALVERIFY OP_CHECKSIG", "type": "pubkeyhash"}, "value": 0.00476143, "n": 1}], "hex": "0200000002553c2beaf7c84aee77732cd6ca1addd5284409840aaedc85ec14bddab6e036ac000000006a4730440220059020ede0a6e2900f11c64749f5fadf40afa64b894ec6c327b35fc516a108cd02206808b08a2453eb59884dd67e33adc363bc7bdb4e5adb3a77e06d3d9c94be5e020121039607c0d91a68d2085273bf872fd0b9df35929c18d9f4051222de8ceafd6e1518fefffffff95345db1ce7028925233c697a0bc2e42ef16d955d5159dafd78eb7e1e9e8c61000000006a473044022048efc36d356202444d4c2174f4bbf1474f498fae1d2529267954c6bc30d624ac022027f970e4f5f091d1dab0843ab664cbdc191162da5f9dbab658127c72d99db4ef012103038346e143067b580716dea100f7cbaabb72b8d9e15e723761a174d487bb3913feffffff02bf2f1900000000001976a91425f7399f9391d876f347764558bd3b80ea9c99f188acef430700000000001976a91425304f5ff529b745781d57cf49c0da177b8378f288ac12490800", "vin": [{"sequence": 4294967294, "scriptSig": {"hex": "4730440220059020ede0a6e2900f11c64749f5fadf40afa64b894ec6c327b35fc516a108cd02206808b08a2453eb59884dd67e33adc363bc7bdb4e5adb3a77e06d3d9c94be5e020121039607c0d91a68d2085273bf872fd0b9df35929c18d9f4051222de8ceafd6e1518", "asm": "30440220059020ede0a6e2900f11c64749f5fadf40afa64b894ec6c327b35fc516a108cd02206808b08a2453eb59884dd67e33adc363bc7bdb4e5adb3a77e06d3d9c94be5e02[ALL] 039607c0d91a68d2085273bf872fd0b9df35929c18d9f4051222de8ceafd6e1518"}, "vout": 0, "txid": "ac36e0b6dabd14ec85dcae0a84094428d5dd1acad62c7377ee4ac8f7ea2b3c55"}, {"sequence": 4294967294, "scriptSig": {"hex": "473044022048efc36d356202444d4c2174f4bbf1474f498fae1d2529267954c6bc30d624ac022027f970e4f5f091d1dab0843ab664cbdc191162da5f9dbab658127c72d99db4ef012103038346e143067b580716dea100f7cbaabb72b8d9e15e723761a174d487bb3913", "asm": "3044022048efc36d356202444d4c2174f4bbf1474f498fae1d2529267954c6bc30d624ac022027f970e4f5f091d1dab0843ab664cbdc191162da5f9dbab658127c72d99db4ef[ALL] 03038346e143067b580716dea100f7cbaabb72b8d9e15e723761a174d487bb3913"}, "vout": 0, "txid": "618c9e1e7eeb78fdda59515d956df12ee4c20b7a693c23258902e71cdb4553f9"}], "txid": "78cdf08c88ff213762f5dfc8900eadef04dc32eeccee98dcbc6497183b34fdc5", "blocktime": 1537872475, "version": 2, "confirmations": 11487, "time": 1537872475, "locktime": 542994, "vsize": 372, "size": 372}