{"hash": "78d371d91b704682b1961bc998a61fcdae440fd627a677677a04b7eadc1d3154", "blockhash": "00000000000000000004ffacab907a6b429b9a5745fa0b75af4234bf69dd7176", "vout": [{"scriptPubKey": {"reqSigs": 1, "hex": "a914209b4de19b80b92b2dc9cbce4a404ce94b79f71a87", "addresses": ["34fRbQg25aptjmzJppxzEJxvVdGUd3F6TF"], "asm": "OP_HASH160 209b4de19b80b92b2dc9cbce4a404ce94b79f71a OP_EQUAL", "type": "scripthash"}, "value": 0.00135339, "n": 0}, {"scriptPubKey": {"reqSigs": 1, "hex": "76a914e163d073e054266d0f5e025eebd6100b0c946b5b88ac", "addresses": ["1MYkcNyCtPmxivKoMy5v5VBkv6LuBrgrAy"], "asm": "OP_DUP OP_HASH160 e163d073e054266d0f5e025eebd6100b0c946b5b OP_EQUALVERIFY OP_CHECKSIG", "type": "pubkeyhash"}, "value": 0.07678484, "n": 1}], "hex": "01000000016e543cf0932a89ba35e58a5930f73f72c16dbe9425c7a31e881b2566f834b017010000006b483045022100d48489cce7149b13289cdc4305dcecee2cef8e83b50279f9119c279a43aa2dbc02207735d4a951b17abf034ad3db2c1e327c91bf1f6cc19d57f8f47d0386bf7718250121033387315522fd785dc6a3184e4f2acbd937f90409a105c06583c94e6554220085ffffffff02ab1002000000000017a914209b4de19b80b92b2dc9cbce4a404ce94b79f71a87142a7500000000001976a914e163d073e054266d0f5e025eebd6100b0c946b5b88ac00000000", "vin": [{"sequence": 4294967295, "scriptSig": {"hex": "483045022100d48489cce7149b13289cdc4305dcecee2cef8e83b50279f9119c279a43aa2dbc02207735d4a951b17abf034ad3db2c1e327c91bf1f6cc19d57f8f47d0386bf7718250121033387315522fd785dc6a3184e4f2acbd937f90409a105c06583c94e6554220085", "asm": "3045022100d48489cce7149b13289cdc4305dcecee2cef8e83b50279f9119c279a43aa2dbc02207735d4a951b17abf034ad3db2c1e327c91bf1f6cc19d57f8f47d0386bf771825[ALL] 033387315522fd785dc6a3184e4f2acbd937f90409a105c06583c94e6554220085"}, "vout": 1, "txid": "17b034f866251b881ea3c72594be6dc1723ff730598ae535ba892a93f03c546e"}], "txid": "78d371d91b704682b1961bc998a61fcdae440fd627a677677a04b7eadc1d3154", "blocktime": 1537875543, "version": 1, "confirmations": 11464, "time": 1537875543, "locktime": 0, "vsize": 224, "size": 224}