{"hash": "78d56048c2feb0925040c7db2655d134642dadeb20683d17af3891dad787e6f9", "blockhash": "00000000000000000017f5eb5941039fbcee6240d03bc1f2f8e35350df66a1d8", "vout": [{"scriptPubKey": {"reqSigs": 1, "hex": "76a914ff46cacfedb4c8e79f8e0b1d4f3a485457e5a33288ac", "addresses": ["1QGn7eZAYuojhJiheaapwfbnq38d9rucxP"], "asm": "OP_DUP OP_HASH160 ff46cacfedb4c8e79f8e0b1d4f3a485457e5a332 OP_EQUALVERIFY OP_CHECKSIG", "type": "pubkeyhash"}, "value": 0.00144004, "n": 0}, {"scriptPubKey": {"reqSigs": 1, "hex": "76a9148b15e5c97ca2a5e6f42b51d48a327af4a37d012488ac", "addresses": ["1DgRA8w1e5eHAiFcQcoZAT35TotMpLrUem"], "asm": "OP_DUP OP_HASH160 8b15e5c97ca2a5e6f42b51d48a327af4a37d0124 OP_EQUALVERIFY OP_CHECKSIG", "type": "pubkeyhash"}, "value": 0.00598808, "n": 1}], "hex": "010000000121268662f2742fefc8faea40139d24748ac9befef4f6efdd542feb26bae401fa010000006b483045022100f3abb380eb6f7996e86f4229971907f1a705680ee5de99f7b956bfa28f160e72022053e981833f18877010160f30d47727b9ce5e7e1e99aafad20fc3e6f249b77a8501210306026c3b601f2e7d8db67cf834f6e22ddf003e2afca5604bcbbbd4b904b4fdb4ffffffff0284320200000000001976a914ff46cacfedb4c8e79f8e0b1d4f3a485457e5a33288ac18230900000000001976a9148b15e5c97ca2a5e6f42b51d48a327af4a37d012488ac00000000", "vin": [{"sequence": 4294967295, "scriptSig": {"hex": "483045022100f3abb380eb6f7996e86f4229971907f1a705680ee5de99f7b956bfa28f160e72022053e981833f18877010160f30d47727b9ce5e7e1e99aafad20fc3e6f249b77a8501210306026c3b601f2e7d8db67cf834f6e22ddf003e2afca5604bcbbbd4b904b4fdb4", "asm": "3045022100f3abb380eb6f7996e86f4229971907f1a705680ee5de99f7b956bfa28f160e72022053e981833f18877010160f30d47727b9ce5e7e1e99aafad20fc3e6f249b77a85[ALL] 0306026c3b601f2e7d8db67cf834f6e22ddf003e2afca5604bcbbbd4b904b4fdb4"}, "vout": 1, "txid": "fa01e4ba26eb2f54ddeff6f4febec98a74249d1340eafac8ef2f74f262862621"}], "txid": "78d56048c2feb0925040c7db2655d134642dadeb20683d17af3891dad787e6f9", "blocktime": 1537874412, "version": 1, "confirmations": 11466, "time": 1537874412, "locktime": 0, "vsize": 226, "size": 226}