{"hash": "78d6dd2a3585a9021f08ee8977b7966c999b6f4d16621fde7333d9ba6ef574fc", "blockhash": "0000000000000000000dcc0f55137456b1a82d3642486a52398922ac4d620174", "vout": [{"scriptPubKey": {"reqSigs": 1, "hex": "76a914fa0692278afe508514b5ffee8fe5e97732ce066988ac", "addresses": ["1Po1oWkD2LmodfkBYiAktwh76vkF93LKnh"], "asm": "OP_DUP OP_HASH160 fa0692278afe508514b5ffee8fe5e97732ce0669 OP_EQUALVERIFY OP_CHECKSIG", "type": "pubkeyhash"}, "value": 2.184e-05, "n": 0}, {"scriptPubKey": {"type": "nulldata", "hex": "6a146f6d6e69000000000000001f0000001695a68a00", "asm": "OP_RETURN 6f6d6e69000000000000001f0000001695a68a00"}, "value": 0.0, "n": 1}, {"scriptPubKey": {"reqSigs": 1, "hex": "76a914a99da52a1be5d671c992a6fccf543039d28c2f8f88ac", "addresses": ["1GTr3oHcMriUs18hxws6KLVR9uczU1s8u3"], "asm": "OP_DUP OP_HASH160 a99da52a1be5d671c992a6fccf543039d28c2f8f OP_EQUALVERIFY OP_CHECKSIG", "type": "pubkeyhash"}, "value": 5.46e-06, "n": 2}], "hex": "010000000160188ae2e89a6f7ee5925756b57031d2333bb4c3afeaabe85e936278213e6fa7de0000008b483045022100f30aad95e903c405ab9e1424a7e35e8f2170e3ffb21ff67b46408d1468b741400220498ace0b7a1de2d91cac439d45c1397c4c8e7f1a3b4d630d28f6a5f11af22a80014104fcf07bb1222f7925f2b7cc15183a40443c578e62ea17100aa3b44ba66905c95d4980aec4cd2f6eb426d1b1ec45d76724f26901099416b9265b76ba67c8b0b73dffffffff0388080000000000001976a914fa0692278afe508514b5ffee8fe5e97732ce066988ac0000000000000000166a146f6d6e69000000000000001f0000001695a68a0022020000000000001976a914a99da52a1be5d671c992a6fccf543039d28c2f8f88ac00000000", "vin": [{"sequence": 4294967295, "scriptSig": {"hex": "483045022100f30aad95e903c405ab9e1424a7e35e8f2170e3ffb21ff67b46408d1468b741400220498ace0b7a1de2d91cac439d45c1397c4c8e7f1a3b4d630d28f6a5f11af22a80014104fcf07bb1222f7925f2b7cc15183a40443c578e62ea17100aa3b44ba66905c95d4980aec4cd2f6eb426d1b1ec45d76724f26901099416b9265b76ba67c8b0b73d", "asm": "3045022100f30aad95e903c405ab9e1424a7e35e8f2170e3ffb21ff67b46408d1468b741400220498ace0b7a1de2d91cac439d45c1397c4c8e7f1a3b4d630d28f6a5f11af22a80[ALL] 04fcf07bb1222f7925f2b7cc15183a40443c578e62ea17100aa3b44ba66905c95d4980aec4cd2f6eb426d1b1ec45d76724f26901099416b9265b76ba67c8b0b73d"}, "vout": 222, "txid": "a76f3e217862935ee8abeaafc3b43b33d23170b5565792e57e6f9ae8e28a1860"}], "txid": "78d6dd2a3585a9021f08ee8977b7966c999b6f4d16621fde7333d9ba6ef574fc", "blocktime": 1537870268, "version": 1, "confirmations": 11516, "time": 1537870268, "locktime": 0, "vsize": 289, "size": 289}