{"hash": "78de475f0eb4903ed047f3a32cedb15edfd09fa0682e9a6f70c7a827354f7ee1", "blockhash": "00000000000000000017f5eb5941039fbcee6240d03bc1f2f8e35350df66a1d8", "vout": [{"scriptPubKey": {"reqSigs": 1, "hex": "a914771fa902df247bbc38c47938c753dfbf4eb2488187", "addresses": ["3CYtGAHKM5MDpQ7KHbkyKsE4e4dTXkiJtT"], "asm": "OP_HASH160 771fa902df247bbc38c47938c753dfbf4eb24881 OP_EQUAL", "type": "scripthash"}, "value": 0.00312704, "n": 0}, {"scriptPubKey": {"reqSigs": 1, "hex": "76a91464f1d6fcbf64bf5e18ad953d87dc5c577ff5c7de88ac", "addresses": ["1ACkHWNw4kNE6hc9kt3Vn3N7cFnEJxbEju"], "asm": "OP_DUP OP_HASH160 64f1d6fcbf64bf5e18ad953d87dc5c577ff5c7de OP_EQUALVERIFY OP_CHECKSIG", "type": "pubkeyhash"}, "value": 0.01035666, "n": 1}], "hex": "01000000013d9021c35b00ac6e3a27f971b7fc0e7cac4f89d78834146306492d824fcecc30010000006a47304402202f62cbd6288d63e3e530c3174ffa56ae362f475b0d77c332416e1ef71c4d953702202f56891edadc1fc7c0598cd25241df245ac84b89f2e9e035e5085df941df2e9201210200b7e93aecf59beb56e8cd49e32a1af4a893d15e002d249443d67e2e7df20867ffffffff0280c504000000000017a914771fa902df247bbc38c47938c753dfbf4eb248818792cd0f00000000001976a91464f1d6fcbf64bf5e18ad953d87dc5c577ff5c7de88ac00000000", "vin": [{"sequence": 4294967295, "scriptSig": {"hex": "47304402202f62cbd6288d63e3e530c3174ffa56ae362f475b0d77c332416e1ef71c4d953702202f56891edadc1fc7c0598cd25241df245ac84b89f2e9e035e5085df941df2e9201210200b7e93aecf59beb56e8cd49e32a1af4a893d15e002d249443d67e2e7df20867", "asm": "304402202f62cbd6288d63e3e530c3174ffa56ae362f475b0d77c332416e1ef71c4d953702202f56891edadc1fc7c0598cd25241df245ac84b89f2e9e035e5085df941df2e92[ALL] 0200b7e93aecf59beb56e8cd49e32a1af4a893d15e002d249443d67e2e7df20867"}, "vout": 1, "txid": "30ccce4f822d490663143488d7894fac7c0efcb771f9273a6eac005bc321903d"}], "txid": "78de475f0eb4903ed047f3a32cedb15edfd09fa0682e9a6f70c7a827354f7ee1", "blocktime": 1537874412, "version": 1, "confirmations": 11467, "time": 1537874412, "locktime": 0, "vsize": 223, "size": 223}