{"hash": "ce4adb2e67770076ac06c43994cb122f26f0a8ce392fd54c24fc9bd8f29cf899", "blockhash": "00000000000000000004ffacab907a6b429b9a5745fa0b75af4234bf69dd7176", "vout": [{"scriptPubKey": {"reqSigs": 1, "hex": "76a9146509ab9ad882b105770febb8b359bc821d39e5c888ac", "addresses": ["1ADEqHKF4XxqNNAqApkDJ3DUZgVqCEgiAt"], "asm": "OP_DUP OP_HASH160 6509ab9ad882b105770febb8b359bc821d39e5c8 OP_EQUALVERIFY OP_CHECKSIG", "type": "pubkeyhash"}, "value": 0.00789473, "n": 0}, {"scriptPubKey": {"reqSigs": 1, "hex": "0014d0007feea0247199e81641147e1085a3f5525462", "addresses": ["bc1q6qq8lm4qy3cen6qkgy28uyy95064y4rzp422pz"], "asm": "0 d0007feea0247199e81641147e1085a3f5525462", "type": "witness_v0_keyhash"}, "value": 1.42615293, "n": 1}], "hex": "01000000000101c514712f5f04aad0c5d30e19b5cc4fc986d5b4bfc23380c0dcf1e380c1a428250000000000ffffffff02e10b0c00000000001976a9146509ab9ad882b105770febb8b359bc821d39e5c888acfd22800800000000160014d0007feea0247199e81641147e1085a3f55254620248304502210086c3953258d73281e7f01739f276aea1e12d4cf0a2925a59d681e33a4090c04d02203083116cc7b39795749973fd35ea34a396393c7971a932a8a9871aeea2d60f8301210241ea3186380d8391f554b28617908770c3785eee4378ac13125fe2bbb03419e800000000", "vin": [{"txinwitness": ["304502210086c3953258d73281e7f01739f276aea1e12d4cf0a2925a59d681e33a4090c04d02203083116cc7b39795749973fd35ea34a396393c7971a932a8a9871aeea2d60f8301", "0241ea3186380d8391f554b28617908770c3785eee4378ac13125fe2bbb03419e8"], "sequence": 4294967295, "scriptSig": {"hex": "", "asm": ""}, "vout": 0, "txid": "2528a4c180e3f1dcc08033c2bfb4d586c94fccb5190ed3c5d0aa045f2f7114c5"}], "txid": "78e53be045f5907e51ecd399893291e88d73ef494e28cdc81886605e0c841b62", "blocktime": 1537875543, "version": 1, "confirmations": 11464, "time": 1537875543, "locktime": 0, "vsize": 144, "size": 226}