{"hash": "c6dba59b1c888252e865a316de7ca865b179fc9c3c4eb57142e7a6ce7c4c2311", "blockhash": "0000000000000000000e13cef7c366c0283d82e591d1acd082e914b08063cdf1", "vout": [{"scriptPubKey": {"reqSigs": 1, "hex": "a914c607222cd8234e7e6ca7476ee18d757f7ea0b71e87", "addresses": ["3Kk6GApswvpYH1AiWfaKRCrBL7wMq6vpxq"], "asm": "OP_HASH160 c607222cd8234e7e6ca7476ee18d757f7ea0b71e OP_EQUAL", "type": "scripthash"}, "value": 0.01, "n": 0}, {"scriptPubKey": {"reqSigs": 1, "hex": "76a914cc8db527ebcebdaefa2337dd1c1d03ffb893d9cc88ac", "addresses": ["1Keac9sGK9Z84bEqV1QxrRX6kFhgiUAyFp"], "asm": "OP_DUP OP_HASH160 cc8db527ebcebdaefa2337dd1c1d03ffb893d9cc OP_EQUALVERIFY OP_CHECKSIG", "type": "pubkeyhash"}, "value": 0.00172, "n": 1}, {"scriptPubKey": {"reqSigs": 1, "hex": "76a914b2a83b139212fd2c40eb1a6e365f0f1482adc75088ac", "addresses": ["1HHep2RFojsacn2w4UcbdaibDaG3c1trWf"], "asm": "OP_DUP OP_HASH160 b2a83b139212fd2c40eb1a6e365f0f1482adc750 OP_EQUALVERIFY OP_CHECKSIG", "type": "pubkeyhash"}, "value": 0.50258505, "n": 2}, {"scriptPubKey": {"reqSigs": 1, "hex": "a91437c587e7638fa502f21ffcc3ef885933d33f91b887", "addresses": ["36muinCpz5WJg3wuAufhZP31WnmQYTm287"], "asm": "OP_HASH160 37c587e7638fa502f21ffcc3ef885933d33f91b8 OP_EQUAL", "type": "scripthash"}, "value": 0.108, "n": 3}, {"scriptPubKey": {"reqSigs": 1, "hex": "a9141988a27e3c2df4ddee7fad5a2303d086179b2a3087", "addresses": ["3422VtS7UtCvXYxoXMVp6eZupR252z85oC"], "asm": "OP_HASH160 1988a27e3c2df4ddee7fad5a2303d086179b2a30 OP_EQUAL", "type": "scripthash"}, "value": 2.09551279, "n": 4}], "hex": "01000000000101e71e2f03b4df9aec3d05adb8044e5709c45bd7ca09d4ef5a383be82f5d1f320d030000002322002065d416c48a8072e0ac51c2d111eb194f009caef0332446c1bf2097316cf07fa9ffffffff0540420f000000000017a914c607222cd8234e7e6ca7476ee18d757f7ea0b71e87e09f0200000000001976a914cc8db527ebcebdaefa2337dd1c1d03ffb893d9cc88ac49e2fe02000000001976a914b2a83b139212fd2c40eb1a6e365f0f1482adc75088ac80cba4000000000017a91437c587e7638fa502f21ffcc3ef885933d33f91b887af7f7d0c0000000017a9141988a27e3c2df4ddee7fad5a2303d086179b2a30870400483045022100e5058c6b6e3f1021b704eb7f195c3b24cbfc647094af813d3f212b468fe898e302204b8d96fb1d560ac32b87a678929a7671f6933afd1612d5172f506c92907a76620147304402204b4b2ef41dea28f2e64337f39deb676aa2b2dcebe033352a94d67c3619e4b6a4022079d9774a7e505c5a97cbbc24b470fc0d736cd7dc05c61df9bf7c6114f15792170169522102f44abcf9e23c9a460da309ccca56c619c04eed3bde2c2cff5e7d78fbcd980b9c2103c9443cf3047bb6c2c82f1b0c44c36109cdc3d0d601d16d1189a1602bf8d1a0a02103bfe867059274412412e088af5572b92168c2ef495cfe6c9b7a753a009eb37c4853ae00000000", "vin": [{"txinwitness": ["", "3045022100e5058c6b6e3f1021b704eb7f195c3b24cbfc647094af813d3f212b468fe898e302204b8d96fb1d560ac32b87a678929a7671f6933afd1612d5172f506c92907a766201", "304402204b4b2ef41dea28f2e64337f39deb676aa2b2dcebe033352a94d67c3619e4b6a4022079d9774a7e505c5a97cbbc24b470fc0d736cd7dc05c61df9bf7c6114f157921701", "522102f44abcf9e23c9a460da309ccca56c619c04eed3bde2c2cff5e7d78fbcd980b9c2103c9443cf3047bb6c2c82f1b0c44c36109cdc3d0d601d16d1189a1602bf8d1a0a02103bfe867059274412412e088af5572b92168c2ef495cfe6c9b7a753a009eb37c4853ae"], "sequence": 4294967295, "scriptSig": {"hex": "22002065d416c48a8072e0ac51c2d111eb194f009caef0332446c1bf2097316cf07fa9", "asm": "002065d416c48a8072e0ac51c2d111eb194f009caef0332446c1bf2097316cf07fa9"}, "vout": 3, "txid": "0d321f5d2fe83b385aefd409cad75bc409574e04b8ad053dec9adfb4032f1ee7"}], "txid": "78e654262ea28b7827128b2ed7a2ffbd35171d9c51b740754c617fd6623a00d3", "blocktime": 1537871767, "version": 1, "confirmations": 11491, "time": 1537871767, "locktime": 0, "vsize": 314, "size": 505}