{"hash": "78e72d09cd3da7d8e446403c243b75aa5f95bb1fa223aad5ad94c7c40d5505e8", "blockhash": "0000000000000000000baef3f32e3676a92c3b2e5da21b426e4f302fc371ce76", "vout": [{"scriptPubKey": {"reqSigs": 1, "hex": "76a9145571ff7b1a78acd23091874781e8a7dafd894af988ac", "addresses": ["18no12NE3KbPzt3PWRzweBaGWwPxwGifF5"], "asm": "OP_DUP OP_HASH160 5571ff7b1a78acd23091874781e8a7dafd894af9 OP_EQUALVERIFY OP_CHECKSIG", "type": "pubkeyhash"}, "value": 5.376e-05, "n": 0}, {"scriptPubKey": {"reqSigs": 1, "hex": "76a9143a86bec71f4d2a0cd915bcb2e18cefcb253cbe4488ac", "addresses": ["16LTcPYDMoZXEvYiaQw76xwR4UjQp7VntX"], "asm": "OP_DUP OP_HASH160 3a86bec71f4d2a0cd915bcb2e18cefcb253cbe44 OP_EQUALVERIFY OP_CHECKSIG", "type": "pubkeyhash"}, "value": 0.0009, "n": 1}], "hex": "0100000001ebf330b1991de5ec708450cfa56d64de9194b7b1c8bee847471b89b746db57f9000000006b483045022100d713c7185e4d423f1e7d1e47bf530c135aff023a011fa7a5235304815f29b9cb0220703b5e704d571312c842d0a56cf472297811b0bf3d02c0032c3e3c4acae79af901210319be9e73a5421b6589cbc82f5d6958296145aa26b2ede7da770b02da49f584d1fdffffff0200150000000000001976a9145571ff7b1a78acd23091874781e8a7dafd894af988ac905f0100000000001976a9143a86bec71f4d2a0cd915bcb2e18cefcb253cbe4488ac16490800", "vin": [{"sequence": 4294967293, "scriptSig": {"hex": "483045022100d713c7185e4d423f1e7d1e47bf530c135aff023a011fa7a5235304815f29b9cb0220703b5e704d571312c842d0a56cf472297811b0bf3d02c0032c3e3c4acae79af901210319be9e73a5421b6589cbc82f5d6958296145aa26b2ede7da770b02da49f584d1", "asm": "3045022100d713c7185e4d423f1e7d1e47bf530c135aff023a011fa7a5235304815f29b9cb0220703b5e704d571312c842d0a56cf472297811b0bf3d02c0032c3e3c4acae79af9[ALL] 0319be9e73a5421b6589cbc82f5d6958296145aa26b2ede7da770b02da49f584d1"}, "vout": 0, "txid": "f957db46b7891b4747e8bec8b1b79491de646da5cf508470ece51d99b130f3eb"}], "txid": "78e72d09cd3da7d8e446403c243b75aa5f95bb1fa223aad5ad94c7c40d5505e8", "blocktime": 1537876114, "version": 1, "confirmations": 11462, "time": 1537876114, "locktime": 542998, "vsize": 226, "size": 226}