{"hash": "31532bb700ae52f4b4749d1b77c7ff2f5573d84928295118830b9f28c3a51c76", "blockhash": "0000000000000000000baef3f32e3676a92c3b2e5da21b426e4f302fc371ce76", "vout": [{"scriptPubKey": {"reqSigs": 1, "hex": "76a9148e7f76189b4e8b4cd142592db95ab0f8df4ccf8588ac", "addresses": ["1DzTeQcqKPzC5yGzyu5nevRTCUYq2EomJY"], "asm": "OP_DUP OP_HASH160 8e7f76189b4e8b4cd142592db95ab0f8df4ccf85 OP_EQUALVERIFY OP_CHECKSIG", "type": "pubkeyhash"}, "value": 0.00033132, "n": 0}, {"scriptPubKey": {"reqSigs": 1, "hex": "a9140be7846be16b05bea00dbec2fcd7e045a793cb1787", "addresses": ["32mxhko5mJHfkbkDPpz7SfdJwEJi21P1WK"], "asm": "OP_HASH160 0be7846be16b05bea00dbec2fcd7e045a793cb17 OP_EQUAL", "type": "scripthash"}, "value": 0.17487924, "n": 1}], "hex": "010000000001018a9efb1e830a1288011da63f15f372d8b0140e29cf8ba4eb5de2e52296dae85401000000232200202c66ece6da72bcbfeadf83a91236f4891c13e14d8ecebdcaa81666fc1aa73a31ffffffff026c810000000000001976a9148e7f76189b4e8b4cd142592db95ab0f8df4ccf8588ac34d80a010000000017a9140be7846be16b05bea00dbec2fcd7e045a793cb17870400483045022100a0c91cd2319a3eb072eea09a4beefec87a7b91ea387c4385134f80f4f763e9270220662a78bacbaf353e10a535b20051e9546e6f8bc7b03960c8bd30d7fc146e1b6001483045022100b05e755ed41c00a02e4ae58ce738e5095105f8f4164caf7403c9dbf570d4d3a4022069ea6203e477a44ffe87c044ec0fba276806fafdd33af4825421b004e802f25101475221029e6fbb942d34a473faaa5557c1bfe08d72102f0b9754ad140fd369d7a3ba3cdc2103871fc2ca08e6950b38867e8e6a0e94ee625223d3aa0df5c65f414c6d784467e252ae00000000", "vin": [{"txinwitness": ["", "3045022100a0c91cd2319a3eb072eea09a4beefec87a7b91ea387c4385134f80f4f763e9270220662a78bacbaf353e10a535b20051e9546e6f8bc7b03960c8bd30d7fc146e1b6001", "3045022100b05e755ed41c00a02e4ae58ce738e5095105f8f4164caf7403c9dbf570d4d3a4022069ea6203e477a44ffe87c044ec0fba276806fafdd33af4825421b004e802f25101", "5221029e6fbb942d34a473faaa5557c1bfe08d72102f0b9754ad140fd369d7a3ba3cdc2103871fc2ca08e6950b38867e8e6a0e94ee625223d3aa0df5c65f414c6d784467e252ae"], "sequence": 4294967295, "scriptSig": {"hex": "2200202c66ece6da72bcbfeadf83a91236f4891c13e14d8ecebdcaa81666fc1aa73a31", "asm": "00202c66ece6da72bcbfeadf83a91236f4891c13e14d8ecebdcaa81666fc1aa73a31"}, "vout": 1, "txid": "54e8da9622e5e25deba48bcf290e14b0d872f3153fa61d0188120a831efb9e8a"}], "txid": "78e8f4125c1f1e42546dcfd99ac33e12cfce808d52546b8fc4e5dda3e24f2773", "blocktime": 1537876114, "version": 1, "confirmations": 11462, "time": 1537876114, "locktime": 0, "vsize": 208, "size": 374}