{"hash": "78e9f84f03b1f72267e98fbeba9ac39346be47f8542fb26395f158bfa07fa7f0", "blockhash": "0000000000000000001cda96e906b7601b7a6fb1a3b62bca570a9e5d8f4b3de1", "vout": [{"scriptPubKey": {"reqSigs": 1, "hex": "76a9148ed463c8e85a0b75213f4cbb4179aa816643f6fd88ac", "addresses": ["1E2DPLmcAEfA3eesUCaWcqzQdX5WarAawN"], "asm": "OP_DUP OP_HASH160 8ed463c8e85a0b75213f4cbb4179aa816643f6fd OP_EQUALVERIFY OP_CHECKSIG", "type": "pubkeyhash"}, "value": 0.00281012, "n": 0}], "hex": "01000000033db64a38b42bc4dd1461d4590592885871b0645f22822fef1605dc3eb1910847000000006a47304402200196202ec260db717d41cfa2b2504c1f9f6c2deb74234d2887ee6263897d3fb402203b4188c4042b4bb03c0d436da0cb4c37ce7083dcf684efdd23557bb4e80509b501210370649d9a24369f3879fe6a469cfe67659d8a268be9ae06999475373e2fdc36adffffffffadb722d63119f0f5b7b27e254ba6f7098c8cd5685c02ce9476ae2f43eb7eda95000000006b483045022100efa67865737708c548b131da58b9e44a380b1e9184e54c11704f9829626357f702203e2b10b5d1efad6fd5cd76542fccd907a6ffa7d333c3f4eb88ee14d82f8be7d5012102924f35157424fe42cdbde9d23dd5195a6236a575b078ea07606c11d67176ec39ffffffff614a6a5078d2132411db09fd829b351050a8c169bb94c2660a03e790d33708b9000000006b483045022100b6867e69efd2a880047710efc5ff36577ffaa5170caa0ebc5fcd1ae37c56713a022020acf896a5dcdbafec52f7fd76dc5ac14e928117a5107f2c9af652add332705701210205b4631e4f1ed3cdb0f5115191dec5e7addcc2494d93dbd94c965d2fa8fbcac6ffffffff01b4490400000000001976a9148ed463c8e85a0b75213f4cbb4179aa816643f6fd88ac00000000", "vin": [{"sequence": 4294967295, "scriptSig": {"hex": "47304402200196202ec260db717d41cfa2b2504c1f9f6c2deb74234d2887ee6263897d3fb402203b4188c4042b4bb03c0d436da0cb4c37ce7083dcf684efdd23557bb4e80509b501210370649d9a24369f3879fe6a469cfe67659d8a268be9ae06999475373e2fdc36ad", "asm": "304402200196202ec260db717d41cfa2b2504c1f9f6c2deb74234d2887ee6263897d3fb402203b4188c4042b4bb03c0d436da0cb4c37ce7083dcf684efdd23557bb4e80509b5[ALL] 0370649d9a24369f3879fe6a469cfe67659d8a268be9ae06999475373e2fdc36ad"}, "vout": 0, "txid": "470891b13edc0516ef2f82225f64b0715888920559d46114ddc42bb4384ab63d"}, {"sequence": 4294967295, "scriptSig": {"hex": "483045022100efa67865737708c548b131da58b9e44a380b1e9184e54c11704f9829626357f702203e2b10b5d1efad6fd5cd76542fccd907a6ffa7d333c3f4eb88ee14d82f8be7d5012102924f35157424fe42cdbde9d23dd5195a6236a575b078ea07606c11d67176ec39", "asm": "3045022100efa67865737708c548b131da58b9e44a380b1e9184e54c11704f9829626357f702203e2b10b5d1efad6fd5cd76542fccd907a6ffa7d333c3f4eb88ee14d82f8be7d5[ALL] 02924f35157424fe42cdbde9d23dd5195a6236a575b078ea07606c11d67176ec39"}, "vout": 0, "txid": "95da7eeb432fae7694ce025c68d58c8c09f7a64b257eb2b7f5f01931d622b7ad"}, {"sequence": 4294967295, "scriptSig": {"hex": "483045022100b6867e69efd2a880047710efc5ff36577ffaa5170caa0ebc5fcd1ae37c56713a022020acf896a5dcdbafec52f7fd76dc5ac14e928117a5107f2c9af652add332705701210205b4631e4f1ed3cdb0f5115191dec5e7addcc2494d93dbd94c965d2fa8fbcac6", "asm": "3045022100b6867e69efd2a880047710efc5ff36577ffaa5170caa0ebc5fcd1ae37c56713a022020acf896a5dcdbafec52f7fd76dc5ac14e928117a5107f2c9af652add3327057[ALL] 0205b4631e4f1ed3cdb0f5115191dec5e7addcc2494d93dbd94c965d2fa8fbcac6"}, "vout": 0, "txid": "b90837d390e7030a66c294bb69c1a85010359b82fd09db112413d278506a4a61"}], "txid": "78e9f84f03b1f72267e98fbeba9ac39346be47f8542fb26395f158bfa07fa7f0", "blocktime": 1537873282, "version": 1, "confirmations": 11484, "time": 1537873282, "locktime": 0, "vsize": 487, "size": 487}