{"hash": "5bab1a50635297aaa664ca2392729fb8ce9058e9bdcfc55a9db07dd18ae3fe49", "blockhash": "0000000000000000001f76057863aec43deb6fa401d9628bb513d65a8098bfab", "vout": [{"scriptPubKey": {"reqSigs": 1, "hex": "a914132af60fa622119c94d7178cd4665fa31194ba6287", "addresses": ["33SNEBbBLirWLccWdko9UsnhqaK3AM2j9g"], "asm": "OP_HASH160 132af60fa622119c94d7178cd4665fa31194ba62 OP_EQUAL", "type": "scripthash"}, "value": 0.91403217, "n": 0}, {"scriptPubKey": {"reqSigs": 1, "hex": "a9147da1fd0292e70c5694c9ac264c7ba8f13c5c3af787", "addresses": ["3D9JSfih3gCWBkN3bDaAVD66q3RbCUvr1y"], "asm": "OP_HASH160 7da1fd0292e70c5694c9ac264c7ba8f13c5c3af7 OP_EQUAL", "type": "scripthash"}, "value": 1.0, "n": 1}], "hex": "01000000000101b30cf83217498c43537f71723b7c35a5d7220b082159b786053bc7fca0f1c6fa01000000171600142e7db3cbad0a7086d701a80e2bfee9af4382a2a3ffffffff02d1b372050000000017a914132af60fa622119c94d7178cd4665fa31194ba628700e1f5050000000017a9147da1fd0292e70c5694c9ac264c7ba8f13c5c3af7870247304402201473067792be85dd7b0ae852d8ffb83fa85a570150a6b392b35466ac5b2232b0022013d651fabeac1c26da43dd89740bb78f7fc628eda397ccbe754934f4d32c5ae10121020e1302006e289bd726469190cae0cc90b7da1194e164c3ede280092516192a2300000000", "vin": [{"txinwitness": ["304402201473067792be85dd7b0ae852d8ffb83fa85a570150a6b392b35466ac5b2232b0022013d651fabeac1c26da43dd89740bb78f7fc628eda397ccbe754934f4d32c5ae101", "020e1302006e289bd726469190cae0cc90b7da1194e164c3ede280092516192a23"], "sequence": 4294967295, "scriptSig": {"hex": "1600142e7db3cbad0a7086d701a80e2bfee9af4382a2a3", "asm": "00142e7db3cbad0a7086d701a80e2bfee9af4382a2a3"}, "vout": 1, "txid": "fac6f1a0fcc73b0586b75921080b22d7a5357c3b72717f53438c491732f80cb3"}], "txid": "78ecf790f89f9738ec3947aca54d46e7cf1746dd232e3d2b455d66630707b561", "blocktime": 1537873891, "version": 1, "confirmations": 11478, "time": 1537873891, "locktime": 0, "vsize": 166, "size": 247}