{"hash": "78f0de784df5119bea7ec55cf0a5b805bbc9d47e15324b1d839f8a303d8729bf", "blockhash": "0000000000000000001e0dab787dd257d1dbfcb92a98c2207d5e1078be1f4165", "vout": [{"scriptPubKey": {"reqSigs": 1, "hex": "a914af7a9b4d910da09aa5d8d8c56e588fda190d775b87", "addresses": ["3Hgs3yRXpmnBJzSsgoGtGGvZK6tWn79ocT"], "asm": "OP_HASH160 af7a9b4d910da09aa5d8d8c56e588fda190d775b OP_EQUAL", "type": "scripthash"}, "value": 0.02379264, "n": 0}, {"scriptPubKey": {"reqSigs": 1, "hex": "76a914d0dca38c6ef22a00fd5bc2a1258e15782a3f3d4888ac", "addresses": ["1L3MsA98Mmh5vzsZfDQZDLhZ3x3ZcG4gcK"], "asm": "OP_DUP OP_HASH160 d0dca38c6ef22a00fd5bc2a1258e15782a3f3d48 OP_EQUALVERIFY OP_CHECKSIG", "type": "pubkeyhash"}, "value": 0.04949816, "n": 1}], "hex": "0100000001de75a816ca412924d34d9a818ca62e961ed575a24245cf81ad533a06feb18bcb010000006a47304402206e232b8acbb0e4311b026b438b95777124c8a90ffa9e04ee43afb398081a02d6022039cbd0e08de9f5cb19e5030afd46176a6425bfb499c5314cb8f0cb8fd84ba90e0121032ed0629a4619245c08782b55f53e78b382dd380623835ae56331500b52165d25fdffffff02004e24000000000017a914af7a9b4d910da09aa5d8d8c56e588fda190d775b8738874b00000000001976a914d0dca38c6ef22a00fd5bc2a1258e15782a3f3d4888ac12490800", "vin": [{"sequence": 4294967293, "scriptSig": {"hex": "47304402206e232b8acbb0e4311b026b438b95777124c8a90ffa9e04ee43afb398081a02d6022039cbd0e08de9f5cb19e5030afd46176a6425bfb499c5314cb8f0cb8fd84ba90e0121032ed0629a4619245c08782b55f53e78b382dd380623835ae56331500b52165d25", "asm": "304402206e232b8acbb0e4311b026b438b95777124c8a90ffa9e04ee43afb398081a02d6022039cbd0e08de9f5cb19e5030afd46176a6425bfb499c5314cb8f0cb8fd84ba90e[ALL] 032ed0629a4619245c08782b55f53e78b382dd380623835ae56331500b52165d25"}, "vout": 1, "txid": "cb8bb1fe063a53ad81cf4542a275d51e962ea68c819a4dd3242941ca16a875de"}], "txid": "78f0de784df5119bea7ec55cf0a5b805bbc9d47e15324b1d839f8a303d8729bf", "blocktime": 1537872475, "version": 1, "confirmations": 11486, "time": 1537872475, "locktime": 542994, "vsize": 223, "size": 223}