{"hash": "fcdba48b4dd88129a9baa601185bd85cb3dc78658bf509879db00d78d4764248", "blockhash": "00000000000000000004ffacab907a6b429b9a5745fa0b75af4234bf69dd7176", "vout": [{"scriptPubKey": {"reqSigs": 1, "hex": "76a914928657ac62a9d8330a9a896f949d1d174bb85fa088ac", "addresses": ["1EMkbHb4Dm7HSfXg4v3hFyC97yM7FGmetG"], "asm": "OP_DUP OP_HASH160 928657ac62a9d8330a9a896f949d1d174bb85fa0 OP_EQUALVERIFY OP_CHECKSIG", "type": "pubkeyhash"}, "value": 0.01814499, "n": 0}, {"scriptPubKey": {"reqSigs": 1, "hex": "00143b2676ec13abcdf25a906b57391f9cac01f1e275", "addresses": ["bc1q8vn8dmqn40xlyk5sddtnj8uu4sqlrcn4swwrr5"], "asm": "0 3b2676ec13abcdf25a906b57391f9cac01f1e275", "type": "witness_v0_keyhash"}, "value": 1.07147287, "n": 1}], "hex": "02000000000101a2617f79d9ccac32b1bf7799884eb1bc3f93d06a07452abaa8577e9b76f3c9ed0100000000ffffffff02e3af1b00000000001976a914928657ac62a9d8330a9a896f949d1d174bb85fa088ac17f06206000000001600143b2676ec13abcdf25a906b57391f9cac01f1e27502483045022100c3a55c22bc6a71c52b9b2ef6bed44b77ab6ada29e94966d4f7612500c2a8840c022013ec035f394267765fb3294ec0d9161c92dca6ba494787163c71463264e8b36b012102aa924e7963b859ae3effff5583625059b159efee09e933ba87efb3d21dd8c2b800000000", "vin": [{"txinwitness": ["3045022100c3a55c22bc6a71c52b9b2ef6bed44b77ab6ada29e94966d4f7612500c2a8840c022013ec035f394267765fb3294ec0d9161c92dca6ba494787163c71463264e8b36b01", "02aa924e7963b859ae3effff5583625059b159efee09e933ba87efb3d21dd8c2b8"], "sequence": 4294967295, "scriptSig": {"hex": "", "asm": ""}, "vout": 1, "txid": "edc9f3769b7e57a8ba2a45076ad0933fbcb14e889977bfb132acccd9797f61a2"}], "txid": "78f1520db1cc20da271e476ac921be119c5f4d792fd06a5004f75cb99c0c7283", "blocktime": 1537875543, "version": 2, "confirmations": 11464, "time": 1537875543, "locktime": 0, "vsize": 144, "size": 226}