{"hash": "78f2bb943fd0908322092deea55937a075be9d9e31c0abe198ce5dd2d36eccb1", "blockhash": "0000000000000000001f76057863aec43deb6fa401d9628bb513d65a8098bfab", "vout": [{"scriptPubKey": {"reqSigs": 1, "hex": "76a914450d480fd55f53d57d76411acd127fcbbd71f2d988ac", "addresses": ["17J7Y3vvkuDoJeRjN1B7EWNJNDq4thhnDv"], "asm": "OP_DUP OP_HASH160 450d480fd55f53d57d76411acd127fcbbd71f2d9 OP_EQUALVERIFY OP_CHECKSIG", "type": "pubkeyhash"}, "value": 0.02117094, "n": 0}], "hex": "010000000257b916feaaa85522cceb39ea1a6a8f1d3be282ff6695b7f2da5bec70b34718a1000000006a47304402203315a14a670372d399ed1fe538da8326521a441f448e8dce106a46cfca5bb724022064335990f1f747fb3f38dbba954072ffb90621acf81177a7e039ad7bb77869fb012102f0e7bb94ff4d20da9cc015a56ceef571eca7f9bf6a0cd085fecc8b34284b8577ffffffff534dd894e0121aa1205158c0c3509b833c373c232be9daf21d47f3b5e7fe036e000000006b4830450221009befec5985166d4d1ca9533c17284fdb8526506c155550e623f3d4a76e3ed4fe02204e4eb0f78abe7c56ae9140082ef8a23cf557cdb1bbab1ead06aa5b2d3061abdb0121039c4974ab1391ec3b3e639a424282fcf79a5f226264e4c61ff4324e7b75851469ffffffff01e64d2000000000001976a914450d480fd55f53d57d76411acd127fcbbd71f2d988ac00000000", "vin": [{"sequence": 4294967295, "scriptSig": {"hex": "47304402203315a14a670372d399ed1fe538da8326521a441f448e8dce106a46cfca5bb724022064335990f1f747fb3f38dbba954072ffb90621acf81177a7e039ad7bb77869fb012102f0e7bb94ff4d20da9cc015a56ceef571eca7f9bf6a0cd085fecc8b34284b8577", "asm": "304402203315a14a670372d399ed1fe538da8326521a441f448e8dce106a46cfca5bb724022064335990f1f747fb3f38dbba954072ffb90621acf81177a7e039ad7bb77869fb[ALL] 02f0e7bb94ff4d20da9cc015a56ceef571eca7f9bf6a0cd085fecc8b34284b8577"}, "vout": 0, "txid": "a11847b370ec5bdaf2b79566ff82e23b1d8f6a1aea39ebcc2255a8aafe16b957"}, {"sequence": 4294967295, "scriptSig": {"hex": "4830450221009befec5985166d4d1ca9533c17284fdb8526506c155550e623f3d4a76e3ed4fe02204e4eb0f78abe7c56ae9140082ef8a23cf557cdb1bbab1ead06aa5b2d3061abdb0121039c4974ab1391ec3b3e639a424282fcf79a5f226264e4c61ff4324e7b75851469", "asm": "30450221009befec5985166d4d1ca9533c17284fdb8526506c155550e623f3d4a76e3ed4fe02204e4eb0f78abe7c56ae9140082ef8a23cf557cdb1bbab1ead06aa5b2d3061abdb[ALL] 039c4974ab1391ec3b3e639a424282fcf79a5f226264e4c61ff4324e7b75851469"}, "vout": 0, "txid": "6e03fee7b5f3471df2dae92b233c373c839b50c3c0585120a11a12e094d84d53"}], "txid": "78f2bb943fd0908322092deea55937a075be9d9e31c0abe198ce5dd2d36eccb1", "blocktime": 1537873891, "version": 1, "confirmations": 11478, "time": 1537873891, "locktime": 0, "vsize": 339, "size": 339}