{"hash": "78fb5f78462d83333bdc2b6761ef39fa2180fc0789a72d5e002d94ac4bc4bda0", "blockhash": "0000000000000000001cda96e906b7601b7a6fb1a3b62bca570a9e5d8f4b3de1", "vout": [{"scriptPubKey": {"reqSigs": 1, "hex": "76a914e30742a764a7f96877a7aeef9f1342b0e598f86588ac", "addresses": ["1MhR61Ga5sHVYQRMDQzDkDLa5gVp1aEGHU"], "asm": "OP_DUP OP_HASH160 e30742a764a7f96877a7aeef9f1342b0e598f865 OP_EQUALVERIFY OP_CHECKSIG", "type": "pubkeyhash"}, "value": 0.09688761, "n": 0}], "hex": "01000000010ad6c25164644bc273c30b09335e1d01a24903c92f6cca5bacb474b30c405a68000000006b483045022100e503b36bbf63c5c367cb09cd24404f44eccea1529b3a149e69124191c861dfb502207fd2b91c49c407ebe66c6102e6c812693c9e7d0b0f2f79b46172b8814589f02d01210234c304bc785982ea5424936f9ffda1178ac9f26254db315f31d52fc7b90823dcfdffffff01b9d69300000000001976a914e30742a764a7f96877a7aeef9f1342b0e598f86588ac13490800", "vin": [{"sequence": 4294967293, "scriptSig": {"hex": "483045022100e503b36bbf63c5c367cb09cd24404f44eccea1529b3a149e69124191c861dfb502207fd2b91c49c407ebe66c6102e6c812693c9e7d0b0f2f79b46172b8814589f02d01210234c304bc785982ea5424936f9ffda1178ac9f26254db315f31d52fc7b90823dc", "asm": "3045022100e503b36bbf63c5c367cb09cd24404f44eccea1529b3a149e69124191c861dfb502207fd2b91c49c407ebe66c6102e6c812693c9e7d0b0f2f79b46172b8814589f02d[ALL] 0234c304bc785982ea5424936f9ffda1178ac9f26254db315f31d52fc7b90823dc"}, "vout": 0, "txid": "685a400cb374b4ac5bca6c2fc90349a2011d5e33090bc373c24b646451c2d60a"}], "txid": "78fb5f78462d83333bdc2b6761ef39fa2180fc0789a72d5e002d94ac4bc4bda0", "blocktime": 1537873282, "version": 1, "confirmations": 11485, "time": 1537873282, "locktime": 542995, "vsize": 192, "size": 192}