{"hash": "652a566ac958f9ec4947a3ab7bc68578f70e11a5765e26e2ab260a790af70c0c", "blockhash": "0000000000000000001f76057863aec43deb6fa401d9628bb513d65a8098bfab", "vout": [{"scriptPubKey": {"reqSigs": 1, "hex": "76a9143e6de5e97552030b0b04159eb1adadd27bb17be588ac", "addresses": ["16h6YkKYLvcrV3YMiGCp5tqYbe7VGV53UC"], "asm": "OP_DUP OP_HASH160 3e6de5e97552030b0b04159eb1adadd27bb17be5 OP_EQUALVERIFY OP_CHECKSIG", "type": "pubkeyhash"}, "value": 0.0016, "n": 0}, {"scriptPubKey": {"reqSigs": 1, "hex": "a914dd57661207894989099bd73240e54efa36b39c1e87", "addresses": ["3MsMxWNmbRMQ3sPiM7c768vguoUPn8pRWx"], "asm": "OP_HASH160 dd57661207894989099bd73240e54efa36b39c1e OP_EQUAL", "type": "scripthash"}, "value": 0.18230292, "n": 1}, {"scriptPubKey": {"reqSigs": 1, "hex": "76a9145a215092313e8dbde921f4ac031223797b7f782d88ac", "addresses": ["19DZj1k64YFQGNeSHxG8mjKvQvxT2nvJ1w"], "asm": "OP_DUP OP_HASH160 5a215092313e8dbde921f4ac031223797b7f782d OP_EQUALVERIFY OP_CHECKSIG", "type": "pubkeyhash"}, "value": 0.02, "n": 2}, {"scriptPubKey": {"reqSigs": 1, "hex": "a914ea645e5e20987adfaa9d5fa4a915d008965f102387", "addresses": ["3P4NHAbib3uvj6QNYmPWqEJMZnx4HzszTp"], "asm": "OP_HASH160 ea645e5e20987adfaa9d5fa4a915d008965f1023 OP_EQUAL", "type": "scripthash"}, "value": 0.01009124, "n": 3}], "hex": "020000000001139040d0c625926b75477adf7e9f26eb67774ec6eac1738bff2fecd0dc688b83f420000000171600148360c2a7fd64dc66602b5471d95c5faf866f8864ffffffff4457e967b61ed4e331423505142d1d124b7e049a5aa6eba692384f9154a2f5920f0000001716001429d64598ef0aa02a002866d2d0a1d959c0ca79aaffffffff06b3cb037b349450be59a5199545d4bbbebe7b8d9921b3de7a117391eee2e4a80000000017160014ad11eaf35b67f655f7fe78b7d0404202d0b831e1fffffffff7b5f016728d761cc47ccf894ee28fa8c9452c8b5f5488ebdff0a753a78d4fd100000000171600148577660f34953f93c794ac6842ae847199cbc575ffffffff9040d0c625926b75477adf7e9f26eb67774ec6eac1738bff2fecd0dc688b83f41b0000001716001408161531d455e6a5257e7ea62e3c560e408d958cffffffff4457e967b61ed4e331423505142d1d124b7e049a5aa6eba692384f9154a2f5920500000017160014e38be936df9148217081266db18bbc3f1f5e5875ffffffff9040d0c625926b75477adf7e9f26eb67774ec6eac1738bff2fecd0dc688b83f40d00000017160014f3fc1ccdf0fd945752006222c17c373454e1e98affffffff72a2dc1aae5aba23ab7bb042e79ef385668a52f9533065dee4d8c4da70e8a3c61000000017160014c9562cb60ab03146119c39b7aaa19b20d67d6e08ffffffff82acc83b87e82c1eed6a25f6668847c13b30d4196330481ed12e353138fb1c5e09000000171600143881aaa383819b0144f222cd71181d649e98d931ffffffff82acc83b87e82c1eed6a25f6668847c13b30d4196330481ed12e353138fb1c5e16000000171600142e01118caec5a7bd5e770c627ff01f56c8f9c907ffffffff87e0662cac839d345eef42a20fa677b1ca0003faf7ada3e00ee0fa8f9053dd940f00000017160014d2fa14b5b8d4e4976936273f627c8384ee5f9ef6ffffffff9040d0c625926b75477adf7e9f26eb67774ec6eac1738bff2fecd0dc688b83f403000000171600145c40e933cf675f86f1c3b8e99542288a7feaba31fffffffff7b5f016728d761cc47ccf894ee28fa8c9452c8b5f5488ebdff0a753a78d4fd1080000001716001460a2f827a95dd2617d8329018a54ad89fbb850d4fffffffff7b5f016728d761cc47ccf894ee28fa8c9452c8b5f5488ebdff0a753a78d4fd10e00000017160014f888b06a2419bea711bc47919e56394779c1e2c6ffffffff40f9e1c1c7ba3f8208bc4c2a914a1fcbfc360b5929bf5d08c3bb6e99dec3a3810800000017160014aab63e3706295d059f08aca22d0c446b2ec9c7cdffffffff82acc83b87e82c1eed6a25f6668847c13b30d4196330481ed12e353138fb1c5e18000000171600144a96045f9ee3b5ee64fbff07f242fa21de05f3ebfffffffffcab4d8286f449c26c72c8068f2d9d7698ba2789dd1eaa57134c2d90c659d0e00000000017160014cdf091e0156bb9b790269aad7f93f4a87eee59a9ffffffffc917f0c52b7c314cef804f599093fb5668c3eaa3bdc2857c4b1226a8439daf420100000017160014cdcfc42eba7df8111874afbc245b43c8f736c1d6ffffffff4eee10e4e1029d577982c697241b110ec74e631ec8378b12c8b2ff89949f2bfe04000000171600148bf8b8d8ded09796eb4e1f4f7d2ce10e7314bf65ffffffff0400710200000000001976a9143e6de5e97552030b0b04159eb1adadd27bb17be588ac142c16010000000017a914dd57661207894989099bd73240e54efa36b39c1e8780841e00000000001976a9145a215092313e8dbde921f4ac031223797b7f782d88ace4650f000000000017a914ea645e5e20987adfaa9d5fa4a915d008965f102387024730440220069ff1519e49a3fe58d842d16e68ecbdb730ba5e8feef2f3b996fc2e922cdee202205f352bcebc99d882a6eff4b464521805d38d325ada24c4913e49f4c5db9dd9060121036f92d592b4d951b9d47236c207a7253023b674ca01a19485816e056a5cc5fe3202473044022051ab2d9e051bdd4168f3ce8258ea290512c7f0d15d899f8868db8c5ab0fec6be022041a2906bb0476c70c7674cae874da25ad99d855716b00a6ec4e40519597ebcbe0121024b6b5104cf9def57284ed1c25c7e577c18aedbe69a86027f8bc3febb0c52af1302483045022100fa0f4b5273d59fe33a60a83c84aafbb42086bb61a8b0b1880b26c7e5e0ce2ba5022024aeae56bab888045f2a81bd47bde874b421af89eca18547c58ce000ca0b414f012102301f1fa21e56fd94ab4bac7e65c278f104688d9f187628ec21103d9765ff99e70247304402205d978ff191601dbef39d78a879e395e7108834cb533f4d840012fa601f4d853102207cf3d1cc4d70f9ce917d455c369589e97803f715cab8ffa6b100d52ed9050b81012102eb5fee2e1c41980682f962ceed057744ecc39459c23d17391a1e8bcd8fd815390247304402203874adc659d6475c8517d7fa4b6ceab9c5a15f72b3938c654f62dffa3a23659b0220326f874d43e8742c88ca6e4ba8166d3d4cf6c407c2691d7332e79a7a11c872dc01210254db3be0cd68b3999d594f8d537f1fdaa084a271595c487f5d15ea5a807006840247304402204e9e3ca24d1d52a39a83744d7b93a694890e9a4df7f3fb4a2d8b978b8ba9339c02205a9c8c38de2f7cc848691532ae1ed1c6e0a8eb10030ca78c2b924f6b045624a9012102022793f65be48f8b1a87d1f92f7022f3acf42f789036ec4ae7c20770f59c5bec02483045022100be0e42b1b71c4aadec716d319546fdf3af0ba9239a6c785849ee9ca8be71abf4022035f3763c1a970502a6094302789fed8b6ac71ba4867bdbf90d061fa6ec87dda0012102137abb4c845aac57ddbf84572d49750475e1a96a5f97ef7bca2b4531b85bfe380247304402207ff99111feb2cb506e5f22b2c91b9d93fea27df72dbbef56351ba841c8f2437202201721d0eaefa70edbf54a747b2ce78a8dac4a1a7f32801ff78e256226496150eb01210212866ed3f7f8d5fd19b9c04e7d25f63ca859ae039eeb001b51eb4b5fb095f4c40247304402200aa214da413a68ecc1d189f9993467c4a19b563aada2c8fe5e43c4440ee672060220582c3a08c13f1a813fb2cd74890b6410e24958fa026e4fc4da53845018d63113012102e0dd60ae46d3514711eebe92eba9dc315996b3dee7422fbeee64e9f350694cc702473044022060212b1322f561ba2964a03a962ef24030fb8e251ef7d932ddbf1312b914eaf80220462ae7951b94670e52469da878b1d8f9347750b0f8db21432dd5da12ab095c2801210348a7a4cb76c7c32a9db9964d5a2dd16392741ac2e4157651625103c96ae7a2ff024730440220065bd5e5bb06b2c69c8a729e13f2776a6e3a0618df3b65d13e163442fcfd56f802206f57dbaaeddf4e31782b4c3e62b0ca46ef6c365972fd4c1d279c15917a93627d012103ff71288eb39652ec8db6135ca3caa29f8139f07cbacd9c993476aa3140889a8c0247304402207d2ac9607e21d6ce81aef10ae6d9e4a28c370e947d6f74c7be2d32e324a06d58022074a1cdc5ed097f33dac43f8d3ecaa7f94ad3a1098a08da69d6576063f23d77cc012102e077b1936ae67c446013a2a6627132172fdbdf1555aeda1b8bcb8da13bb116dd02483045022100baa15be84d8556d58b5153d3445cb3d385de84b94e4f750ff84831af8a5edba6022036bd3efdfe177f94b94981e6761b311934fce5c41e37cf9a51c8725fc9f66b74012102d1127ecb05324e5dd6e68441968df1227b07d35521a8971ade30151a4d3453ea02473044022043c59099392dec903abb2c2e96fc55ab75cf4efe062d9060e859dd8a7921639102200257cc4d86e55bf30bf5f29de74b7f38096d92d89cdd3d95e8b21ff25de6a5d2012102caff986f64a81740b6da717fc961ab66594df1561c9c593ff19bbd24ee0125460247304402200b6361e2ba10f76f5e5b82d043c376842f648ace15b0012f54feb0f935d535a602204171422ffa1bf5115f35ee667da8de811b0932b80dafb9b79c533ba69014d73c0121035e591c513914d24c54f9f605b49f96ac6ebbe7d52063ce2e667520347762ff9402483045022100e82eac7a2e2db3d37a6467be1d81d146acb2b1fb80b55f901cd60913684145d80220212f66fc6196edc5ffc992a1d932dd14aef612378e1a6a926ec02466f2d7134d012102641e35169f60e1ec1adb530b2881c432c7644045864c2a90dc58b84964e3db3702483045022100f2fd38df41e24ea58f8a56bd6dbf83a7bb80910197055bb485cbadb268e9232d022011178a41a4195dc79041d4fe3965e40d1b0c0b447f84fd93c7d286d8eef5ea17012103e730936a47cd3047e130b9844a5714e9b78aa1130790b63af94e8c17abeb0a5a0247304402202a7c4285d78c1b9ad28b2ce85fed6de1448c891faeb6f3817ec026b10a6540c302205d74632898e56519ac29749f297c0b9a3f7f935e707855d3b76ac63236d725d401210281a3d560a49ca3f5fea450ada532fdca2c4dcd57c171a4d0f3d8eed71a61f25602483045022100c669588c0fb1282806f7a09a7a3db6c2e0cfc76d112ecbf2881c2915901eac9802206d65c6cc4326faec883eca2a31fbf8003b4f5572835860f558d83119d4a1002001210268dc821611c727f001e510364d330d4d44862f0775fa0ea55e825459b455120f00000000", "vin": [{"txinwitness": ["30440220069ff1519e49a3fe58d842d16e68ecbdb730ba5e8feef2f3b996fc2e922cdee202205f352bcebc99d882a6eff4b464521805d38d325ada24c4913e49f4c5db9dd90601", "036f92d592b4d951b9d47236c207a7253023b674ca01a19485816e056a5cc5fe32"], "sequence": 4294967295, "scriptSig": {"hex": "1600148360c2a7fd64dc66602b5471d95c5faf866f8864", "asm": "00148360c2a7fd64dc66602b5471d95c5faf866f8864"}, "vout": 32, "txid": "f4838b68dcd0ec2fff8b73c1eac64e7767eb269f7edf7a47756b9225c6d04090"}, {"txinwitness": ["3044022051ab2d9e051bdd4168f3ce8258ea290512c7f0d15d899f8868db8c5ab0fec6be022041a2906bb0476c70c7674cae874da25ad99d855716b00a6ec4e40519597ebcbe01", "024b6b5104cf9def57284ed1c25c7e577c18aedbe69a86027f8bc3febb0c52af13"], "sequence": 4294967295, "scriptSig": {"hex": "16001429d64598ef0aa02a002866d2d0a1d959c0ca79aa", "asm": "001429d64598ef0aa02a002866d2d0a1d959c0ca79aa"}, "vout": 15, "txid": "92f5a254914f3892a6eba65a9a047e4b121d2d1405354231e3d41eb667e95744"}, {"txinwitness": ["3045022100fa0f4b5273d59fe33a60a83c84aafbb42086bb61a8b0b1880b26c7e5e0ce2ba5022024aeae56bab888045f2a81bd47bde874b421af89eca18547c58ce000ca0b414f01", "02301f1fa21e56fd94ab4bac7e65c278f104688d9f187628ec21103d9765ff99e7"], "sequence": 4294967295, "scriptSig": {"hex": "160014ad11eaf35b67f655f7fe78b7d0404202d0b831e1", "asm": "0014ad11eaf35b67f655f7fe78b7d0404202d0b831e1"}, "vout": 0, "txid": "a8e4e2ee9173117adeb321998d7bbebebbd4459519a559be5094347b03cbb306"}, {"txinwitness": ["304402205d978ff191601dbef39d78a879e395e7108834cb533f4d840012fa601f4d853102207cf3d1cc4d70f9ce917d455c369589e97803f715cab8ffa6b100d52ed9050b8101", "02eb5fee2e1c41980682f962ceed057744ecc39459c23d17391a1e8bcd8fd81539"], "sequence": 4294967295, "scriptSig": {"hex": "1600148577660f34953f93c794ac6842ae847199cbc575", "asm": "00148577660f34953f93c794ac6842ae847199cbc575"}, "vout": 0, "txid": "d14f8da753a7f0dfeb88545f8b2c45c9a88fe24e89cf7cc41c768d7216f0b5f7"}, {"txinwitness": ["304402203874adc659d6475c8517d7fa4b6ceab9c5a15f72b3938c654f62dffa3a23659b0220326f874d43e8742c88ca6e4ba8166d3d4cf6c407c2691d7332e79a7a11c872dc01", "0254db3be0cd68b3999d594f8d537f1fdaa084a271595c487f5d15ea5a80700684"], "sequence": 4294967295, "scriptSig": {"hex": "16001408161531d455e6a5257e7ea62e3c560e408d958c", "asm": "001408161531d455e6a5257e7ea62e3c560e408d958c"}, "vout": 27, "txid": "f4838b68dcd0ec2fff8b73c1eac64e7767eb269f7edf7a47756b9225c6d04090"}, {"txinwitness": ["304402204e9e3ca24d1d52a39a83744d7b93a694890e9a4df7f3fb4a2d8b978b8ba9339c02205a9c8c38de2f7cc848691532ae1ed1c6e0a8eb10030ca78c2b924f6b045624a901", "02022793f65be48f8b1a87d1f92f7022f3acf42f789036ec4ae7c20770f59c5bec"], "sequence": 4294967295, "scriptSig": {"hex": "160014e38be936df9148217081266db18bbc3f1f5e5875", "asm": "0014e38be936df9148217081266db18bbc3f1f5e5875"}, "vout": 5, "txid": "92f5a254914f3892a6eba65a9a047e4b121d2d1405354231e3d41eb667e95744"}, {"txinwitness": ["3045022100be0e42b1b71c4aadec716d319546fdf3af0ba9239a6c785849ee9ca8be71abf4022035f3763c1a970502a6094302789fed8b6ac71ba4867bdbf90d061fa6ec87dda001", "02137abb4c845aac57ddbf84572d49750475e1a96a5f97ef7bca2b4531b85bfe38"], "sequence": 4294967295, "scriptSig": {"hex": "160014f3fc1ccdf0fd945752006222c17c373454e1e98a", "asm": "0014f3fc1ccdf0fd945752006222c17c373454e1e98a"}, "vout": 13, "txid": "f4838b68dcd0ec2fff8b73c1eac64e7767eb269f7edf7a47756b9225c6d04090"}, {"txinwitness": ["304402207ff99111feb2cb506e5f22b2c91b9d93fea27df72dbbef56351ba841c8f2437202201721d0eaefa70edbf54a747b2ce78a8dac4a1a7f32801ff78e256226496150eb01", "0212866ed3f7f8d5fd19b9c04e7d25f63ca859ae039eeb001b51eb4b5fb095f4c4"], "sequence": 4294967295, "scriptSig": {"hex": "160014c9562cb60ab03146119c39b7aaa19b20d67d6e08", "asm": "0014c9562cb60ab03146119c39b7aaa19b20d67d6e08"}, "vout": 16, "txid": "c6a3e870dac4d8e4de653053f9528a6685f39ee742b07bab23ba5aae1adca272"}, {"txinwitness": ["304402200aa214da413a68ecc1d189f9993467c4a19b563aada2c8fe5e43c4440ee672060220582c3a08c13f1a813fb2cd74890b6410e24958fa026e4fc4da53845018d6311301", "02e0dd60ae46d3514711eebe92eba9dc315996b3dee7422fbeee64e9f350694cc7"], "sequence": 4294967295, "scriptSig": {"hex": "1600143881aaa383819b0144f222cd71181d649e98d931", "asm": "00143881aaa383819b0144f222cd71181d649e98d931"}, "vout": 9, "txid": "5e1cfb3831352ed11e48306319d4303bc1478866f6256aed1e2ce8873bc8ac82"}, {"txinwitness": ["3044022060212b1322f561ba2964a03a962ef24030fb8e251ef7d932ddbf1312b914eaf80220462ae7951b94670e52469da878b1d8f9347750b0f8db21432dd5da12ab095c2801", "0348a7a4cb76c7c32a9db9964d5a2dd16392741ac2e4157651625103c96ae7a2ff"], "sequence": 4294967295, "scriptSig": {"hex": "1600142e01118caec5a7bd5e770c627ff01f56c8f9c907", "asm": "00142e01118caec5a7bd5e770c627ff01f56c8f9c907"}, "vout": 22, "txid": "5e1cfb3831352ed11e48306319d4303bc1478866f6256aed1e2ce8873bc8ac82"}, {"txinwitness": ["30440220065bd5e5bb06b2c69c8a729e13f2776a6e3a0618df3b65d13e163442fcfd56f802206f57dbaaeddf4e31782b4c3e62b0ca46ef6c365972fd4c1d279c15917a93627d01", "03ff71288eb39652ec8db6135ca3caa29f8139f07cbacd9c993476aa3140889a8c"], "sequence": 4294967295, "scriptSig": {"hex": "160014d2fa14b5b8d4e4976936273f627c8384ee5f9ef6", "asm": "0014d2fa14b5b8d4e4976936273f627c8384ee5f9ef6"}, "vout": 15, "txid": "94dd53908ffae00ee0a3adf7fa0300cab177a60fa242ef5e349d83ac2c66e087"}, {"txinwitness": ["304402207d2ac9607e21d6ce81aef10ae6d9e4a28c370e947d6f74c7be2d32e324a06d58022074a1cdc5ed097f33dac43f8d3ecaa7f94ad3a1098a08da69d6576063f23d77cc01", "02e077b1936ae67c446013a2a6627132172fdbdf1555aeda1b8bcb8da13bb116dd"], "sequence": 4294967295, "scriptSig": {"hex": "1600145c40e933cf675f86f1c3b8e99542288a7feaba31", "asm": "00145c40e933cf675f86f1c3b8e99542288a7feaba31"}, "vout": 3, "txid": "f4838b68dcd0ec2fff8b73c1eac64e7767eb269f7edf7a47756b9225c6d04090"}, {"txinwitness": ["3045022100baa15be84d8556d58b5153d3445cb3d385de84b94e4f750ff84831af8a5edba6022036bd3efdfe177f94b94981e6761b311934fce5c41e37cf9a51c8725fc9f66b7401", "02d1127ecb05324e5dd6e68441968df1227b07d35521a8971ade30151a4d3453ea"], "sequence": 4294967295, "scriptSig": {"hex": "16001460a2f827a95dd2617d8329018a54ad89fbb850d4", "asm": "001460a2f827a95dd2617d8329018a54ad89fbb850d4"}, "vout": 8, "txid": "d14f8da753a7f0dfeb88545f8b2c45c9a88fe24e89cf7cc41c768d7216f0b5f7"}, {"txinwitness": ["3044022043c59099392dec903abb2c2e96fc55ab75cf4efe062d9060e859dd8a7921639102200257cc4d86e55bf30bf5f29de74b7f38096d92d89cdd3d95e8b21ff25de6a5d201", "02caff986f64a81740b6da717fc961ab66594df1561c9c593ff19bbd24ee012546"], "sequence": 4294967295, "scriptSig": {"hex": "160014f888b06a2419bea711bc47919e56394779c1e2c6", "asm": "0014f888b06a2419bea711bc47919e56394779c1e2c6"}, "vout": 14, "txid": "d14f8da753a7f0dfeb88545f8b2c45c9a88fe24e89cf7cc41c768d7216f0b5f7"}, {"txinwitness": ["304402200b6361e2ba10f76f5e5b82d043c376842f648ace15b0012f54feb0f935d535a602204171422ffa1bf5115f35ee667da8de811b0932b80dafb9b79c533ba69014d73c01", "035e591c513914d24c54f9f605b49f96ac6ebbe7d52063ce2e667520347762ff94"], "sequence": 4294967295, "scriptSig": {"hex": "160014aab63e3706295d059f08aca22d0c446b2ec9c7cd", "asm": "0014aab63e3706295d059f08aca22d0c446b2ec9c7cd"}, "vout": 8, "txid": "81a3c3de996ebbc3085dbf29590b36fccb1f4a912a4cbc08823fbac7c1e1f940"}, {"txinwitness": ["3045022100e82eac7a2e2db3d37a6467be1d81d146acb2b1fb80b55f901cd60913684145d80220212f66fc6196edc5ffc992a1d932dd14aef612378e1a6a926ec02466f2d7134d01", "02641e35169f60e1ec1adb530b2881c432c7644045864c2a90dc58b84964e3db37"], "sequence": 4294967295, "scriptSig": {"hex": "1600144a96045f9ee3b5ee64fbff07f242fa21de05f3eb", "asm": "00144a96045f9ee3b5ee64fbff07f242fa21de05f3eb"}, "vout": 24, "txid": "5e1cfb3831352ed11e48306319d4303bc1478866f6256aed1e2ce8873bc8ac82"}, {"txinwitness": ["3045022100f2fd38df41e24ea58f8a56bd6dbf83a7bb80910197055bb485cbadb268e9232d022011178a41a4195dc79041d4fe3965e40d1b0c0b447f84fd93c7d286d8eef5ea1701", "03e730936a47cd3047e130b9844a5714e9b78aa1130790b63af94e8c17abeb0a5a"], "sequence": 4294967295, "scriptSig": {"hex": "160014cdf091e0156bb9b790269aad7f93f4a87eee59a9", "asm": "0014cdf091e0156bb9b790269aad7f93f4a87eee59a9"}, "vout": 0, "txid": "e0d059c6902d4c1357aa1edd8927ba98769d2d8f06c8726cc249f486824dabfc"}, {"txinwitness": ["304402202a7c4285d78c1b9ad28b2ce85fed6de1448c891faeb6f3817ec026b10a6540c302205d74632898e56519ac29749f297c0b9a3f7f935e707855d3b76ac63236d725d401", "0281a3d560a49ca3f5fea450ada532fdca2c4dcd57c171a4d0f3d8eed71a61f256"], "sequence": 4294967295, "scriptSig": {"hex": "160014cdcfc42eba7df8111874afbc245b43c8f736c1d6", "asm": "0014cdcfc42eba7df8111874afbc245b43c8f736c1d6"}, "vout": 1, "txid": "42af9d43a826124b7c85c2bda3eac36856fb9390594f80ef4c317c2bc5f017c9"}, {"txinwitness": ["3045022100c669588c0fb1282806f7a09a7a3db6c2e0cfc76d112ecbf2881c2915901eac9802206d65c6cc4326faec883eca2a31fbf8003b4f5572835860f558d83119d4a1002001", "0268dc821611c727f001e510364d330d4d44862f0775fa0ea55e825459b455120f"], "sequence": 4294967295, "scriptSig": {"hex": "1600148bf8b8d8ded09796eb4e1f4f7d2ce10e7314bf65", "asm": "00148bf8b8d8ded09796eb4e1f4f7d2ce10e7314bf65"}, "vout": 4, "txid": "fe2b9f9489ffb2c8128b37c81e634ec70e111b2497c68279579d02e1e410ee4e"}], "txid": "79089782e012dc3e945141f089082dff48aee2f1630e2b168282436eb669564e", "blocktime": 1537873891, "version": 2, "confirmations": 11478, "time": 1537873891, "locktime": 0, "vsize": 1869, "size": 3399}