{"hash": "79125c1a409515a9f858700eb86c0ff14f8ca20cbe484a73f5747caeddc0c995", "blockhash": "0000000000000000000e13cef7c366c0283d82e591d1acd082e914b08063cdf1", "vout": [{"scriptPubKey": {"reqSigs": 1, "hex": "a9146d0e05c6bcbdc92c7ed82be4cdfaf1f0d16ecfe787", "addresses": ["3BdeNkvRxBfhPbebfzDRDHkeAAKMiDzD9C"], "asm": "OP_HASH160 6d0e05c6bcbdc92c7ed82be4cdfaf1f0d16ecfe7 OP_EQUAL", "type": "scripthash"}, "value": 0.07817202, "n": 0}, {"scriptPubKey": {"reqSigs": 1, "hex": "a914c7f0ed2fd2b8ecc557db791b5d6b784e3ff444fc87", "addresses": ["3KvD1aujo8poorgXjEsmUDXsfd5eZnGX8D"], "asm": "OP_HASH160 c7f0ed2fd2b8ecc557db791b5d6b784e3ff444fc OP_EQUAL", "type": "scripthash"}, "value": 0.0770015, "n": 1}, {"scriptPubKey": {"reqSigs": 1, "hex": "76a914681ad377f69b2e9534641e80d7d738ff899ec61888ac", "addresses": ["1AVTQrhkbiGRXEN3wihnwrboSPf4nuQ65Z"], "asm": "OP_DUP OP_HASH160 681ad377f69b2e9534641e80d7d738ff899ec618 OP_EQUALVERIFY OP_CHECKSIG", "type": "pubkeyhash"}, "value": 0.00026586, "n": 2}], "hex": "010000000299847a1dc5bb9247ae8a87d94caae733a07717267b1387d817519d4157db538e19000000da00473044022027e9795ebddf0ec04a6ba99ec5cb2ba93d3c0132d68e7cbf48117c9eff4ac6c202200a08a8a842daed55bd1fef4b9b76280f527a974cb00651d43326707eaa53ac9e01483045022100dcae472da4d99afa470e79e2c47406ada464dec2a651cf854243c25f0f5d291702200f8a75428adcab595ae3714afcd33c322e4c09aa20fedda97faf34690f96de590147522102907a54bed8ad74b3f35638c60114ca240a308cb986f3f2f306178869a8880b612103c25bac5c90df6df806739df00f12d0c61e9d1ea38c4b29830a4e22deada6233552aeffffffff884702740760c06e3408670e8423e484caa23754fbe9689325d41cd8f2458cfc020000006b483045022100a554a37412941f82ab4e42dc70c9ea5d86ef23eab94a21e06daddaedc5ff34bc02204d096ab3dae5b67edb3cb836ddc12407270b34999abb5b5e7febb69f70130c8a012102de1a8352d8f2f527de91efa08e2dc5a6e39e540d8ce6b037c44b510ce396ab86ffffffff03f24777000000000017a9146d0e05c6bcbdc92c7ed82be4cdfaf1f0d16ecfe787b67e75000000000017a914c7f0ed2fd2b8ecc557db791b5d6b784e3ff444fc87da670000000000001976a914681ad377f69b2e9534641e80d7d738ff899ec61888ac00000000", "vin": [{"sequence": 4294967295, "scriptSig": {"hex": "00473044022027e9795ebddf0ec04a6ba99ec5cb2ba93d3c0132d68e7cbf48117c9eff4ac6c202200a08a8a842daed55bd1fef4b9b76280f527a974cb00651d43326707eaa53ac9e01483045022100dcae472da4d99afa470e79e2c47406ada464dec2a651cf854243c25f0f5d291702200f8a75428adcab595ae3714afcd33c322e4c09aa20fedda97faf34690f96de590147522102907a54bed8ad74b3f35638c60114ca240a308cb986f3f2f306178869a8880b612103c25bac5c90df6df806739df00f12d0c61e9d1ea38c4b29830a4e22deada6233552ae", "asm": "0 3044022027e9795ebddf0ec04a6ba99ec5cb2ba93d3c0132d68e7cbf48117c9eff4ac6c202200a08a8a842daed55bd1fef4b9b76280f527a974cb00651d43326707eaa53ac9e[ALL] 3045022100dcae472da4d99afa470e79e2c47406ada464dec2a651cf854243c25f0f5d291702200f8a75428adcab595ae3714afcd33c322e4c09aa20fedda97faf34690f96de59[ALL] 522102907a54bed8ad74b3f35638c60114ca240a308cb986f3f2f306178869a8880b612103c25bac5c90df6df806739df00f12d0c61e9d1ea38c4b29830a4e22deada6233552ae"}, "vout": 25, "txid": "8e53db57419d5117d887137b261777a033e7aa4cd9878aae4792bbc51d7a8499"}, {"sequence": 4294967295, "scriptSig": {"hex": "483045022100a554a37412941f82ab4e42dc70c9ea5d86ef23eab94a21e06daddaedc5ff34bc02204d096ab3dae5b67edb3cb836ddc12407270b34999abb5b5e7febb69f70130c8a012102de1a8352d8f2f527de91efa08e2dc5a6e39e540d8ce6b037c44b510ce396ab86", "asm": "3045022100a554a37412941f82ab4e42dc70c9ea5d86ef23eab94a21e06daddaedc5ff34bc02204d096ab3dae5b67edb3cb836ddc12407270b34999abb5b5e7febb69f70130c8a[ALL] 02de1a8352d8f2f527de91efa08e2dc5a6e39e540d8ce6b037c44b510ce396ab86"}, "vout": 2, "txid": "fc8c45f2d81cd4259368e9fb5437a2ca84e423840e6708346ec0600774024788"}], "txid": "79125c1a409515a9f858700eb86c0ff14f8ca20cbe484a73f5747caeddc0c995", "blocktime": 1537871767, "version": 1, "confirmations": 11495, "time": 1537871767, "locktime": 0, "vsize": 515, "size": 515}