{"hash": "7915799c224327bc9a89cc44e8a98e09aca3ace17bd1f6f5a8423c69b6511b84", "blockhash": "000000000000000000022b45ed06c6f4ccd3cf7fb5ba4856ebd2e58215665228", "vout": [{"scriptPubKey": {"reqSigs": 1, "hex": "a914dae59becb0f2ca2b6e1f03ed4b423ce15dbe19ae87", "addresses": ["3MeSHt5CCBMoq14BNYjfCfp81ugFVjwZeC"], "asm": "OP_HASH160 dae59becb0f2ca2b6e1f03ed4b423ce15dbe19ae OP_EQUAL", "type": "scripthash"}, "value": 1e-05, "n": 0}, {"scriptPubKey": {"reqSigs": 1, "hex": "76a9146accf7c3696efde391e61199142fa6386ac29e9b88ac", "addresses": ["1AjiAkPyXYpUGzW1hMk9NeHWoCL39gs7Ej"], "asm": "OP_DUP OP_HASH160 6accf7c3696efde391e61199142fa6386ac29e9b OP_EQUALVERIFY OP_CHECKSIG", "type": "pubkeyhash"}, "value": 0.00285938, "n": 1}], "hex": "010000000188629d3f6c245a6efbe8b660f11ba9b2d7f2f0bef7d48e4415f08e490eabe321010000006b483045022100e4b0a626d97a541fdae37bc0bebe2a63c758b8b82044e04018a5d7d54ee799bd0220117efbc414614b32f4d0692150fbfd7c9e72ba1a21f8c30052bcb7c05134b9e0012103285f1555c5fad82825b7e923ac2e9c25e61be46332c69cad62eea686407317acffffffff02e80300000000000017a914dae59becb0f2ca2b6e1f03ed4b423ce15dbe19ae87f25c0400000000001976a9146accf7c3696efde391e61199142fa6386ac29e9b88ac00000000", "vin": [{"sequence": 4294967295, "scriptSig": {"hex": "483045022100e4b0a626d97a541fdae37bc0bebe2a63c758b8b82044e04018a5d7d54ee799bd0220117efbc414614b32f4d0692150fbfd7c9e72ba1a21f8c30052bcb7c05134b9e0012103285f1555c5fad82825b7e923ac2e9c25e61be46332c69cad62eea686407317ac", "asm": "3045022100e4b0a626d97a541fdae37bc0bebe2a63c758b8b82044e04018a5d7d54ee799bd0220117efbc414614b32f4d0692150fbfd7c9e72ba1a21f8c30052bcb7c05134b9e0[ALL] 03285f1555c5fad82825b7e923ac2e9c25e61be46332c69cad62eea686407317ac"}, "vout": 1, "txid": "21e3ab0e498ef015448ed4f7bef0f2d7b2a91bf160b6e8fb6e5a246c3f9d6288"}], "txid": "7915799c224327bc9a89cc44e8a98e09aca3ace17bd1f6f5a8423c69b6511b84", "blocktime": 1537869901, "version": 1, "confirmations": 11523, "time": 1537869901, "locktime": 0, "vsize": 224, "size": 224}