{"hash": "791b5cf0847f77dc79aaa7f509bde9505db677854e510832080627a610eff1dc", "blockhash": "0000000000000000001f0ddff1eddb255c1121bcd4da4f1bc9a0da00cae72433", "vout": [{"scriptPubKey": {"reqSigs": 1, "hex": "76a914043f973a724d9b07efc21248c517da104fcde28188ac", "addresses": ["1PTt8VFguDscrpGF5bGxnLzbHgNZNkUwz"], "asm": "OP_DUP OP_HASH160 043f973a724d9b07efc21248c517da104fcde281 OP_EQUALVERIFY OP_CHECKSIG", "type": "pubkeyhash"}, "value": 5.311e-05, "n": 0}, {"scriptPubKey": {"reqSigs": 1, "hex": "76a9141f075dcad6cdb4dfc94faac3e30ae0ddb258833f88ac", "addresses": ["13q4mmkULjBQ75U9zccPQHYWHeWkYvjYWp"], "asm": "OP_DUP OP_HASH160 1f075dcad6cdb4dfc94faac3e30ae0ddb258833f OP_EQUALVERIFY OP_CHECKSIG", "type": "pubkeyhash"}, "value": 0.0015622, "n": 1}], "hex": "0100000002625ab238e5e3689f1cd191bfc6f8d046d63334aec2975526bded63cd5e59f580000000006b483045022100fbdcc40b4f0d84d991f81de2860515b295d17042b1939e21b235313cddeb094202205f08f5214ba5a53ab6f1d06145d7e62dc6c64ffb09d280b690cb28f6a5deef2a012102f17d8d32ee9a40920bf37d4c2670aaa7d4e6a5f6fe6095e54e67701ca7e4f205ffffffff5752b1640cfb00743fe7623b4d6470c254d8abfc72f48ad0ca50692983c3e685000000006b483045022100dbe739ee464a0f1881a87e183f992b7d12dd2b869ab1c67f6fe38b6e75864153022010a01360ce5fb455ff76327fc442a8e4b6096c72c41f5355b32e431e7d2f55930121035962c23117ca68e1613b31f5c13b9dfc32020beb9ce84ca688ff85e03f6624daffffffff02bf140000000000001976a914043f973a724d9b07efc21248c517da104fcde28188ac3c620200000000001976a9141f075dcad6cdb4dfc94faac3e30ae0ddb258833f88ac00000000", "vin": [{"sequence": 4294967295, "scriptSig": {"hex": "483045022100fbdcc40b4f0d84d991f81de2860515b295d17042b1939e21b235313cddeb094202205f08f5214ba5a53ab6f1d06145d7e62dc6c64ffb09d280b690cb28f6a5deef2a012102f17d8d32ee9a40920bf37d4c2670aaa7d4e6a5f6fe6095e54e67701ca7e4f205", "asm": "3045022100fbdcc40b4f0d84d991f81de2860515b295d17042b1939e21b235313cddeb094202205f08f5214ba5a53ab6f1d06145d7e62dc6c64ffb09d280b690cb28f6a5deef2a[ALL] 02f17d8d32ee9a40920bf37d4c2670aaa7d4e6a5f6fe6095e54e67701ca7e4f205"}, "vout": 0, "txid": "80f5595ecd63edbd265597c2ae3433d646d0f8c6bf91d11c9f68e3e538b25a62"}, {"sequence": 4294967295, "scriptSig": {"hex": "483045022100dbe739ee464a0f1881a87e183f992b7d12dd2b869ab1c67f6fe38b6e75864153022010a01360ce5fb455ff76327fc442a8e4b6096c72c41f5355b32e431e7d2f55930121035962c23117ca68e1613b31f5c13b9dfc32020beb9ce84ca688ff85e03f6624da", "asm": "3045022100dbe739ee464a0f1881a87e183f992b7d12dd2b869ab1c67f6fe38b6e75864153022010a01360ce5fb455ff76327fc442a8e4b6096c72c41f5355b32e431e7d2f5593[ALL] 035962c23117ca68e1613b31f5c13b9dfc32020beb9ce84ca688ff85e03f6624da"}, "vout": 0, "txid": "85e6c383296950cad08af472fcabd854c270644d3b62e73f7400fb0c64b15257"}], "txid": "791b5cf0847f77dc79aaa7f509bde9505db677854e510832080627a610eff1dc", "blocktime": 1537872018, "version": 1, "confirmations": 11489, "time": 1537872018, "locktime": 0, "vsize": 374, "size": 374}