{"hash": "791c699b514e2ce1f417704a39b84d327ab816fcd4c3ebc6497fba04d20804c1", "blockhash": "00000000000000000004ffacab907a6b429b9a5745fa0b75af4234bf69dd7176", "vout": [{"scriptPubKey": {"reqSigs": 1, "hex": "76a91427f631f9e92995017683d7e367cc5bed2d7b4bf388ac", "addresses": ["14eJHRf955ircfvoNMKKpTaf7GgUYJWuDQ"], "asm": "OP_DUP OP_HASH160 27f631f9e92995017683d7e367cc5bed2d7b4bf3 OP_EQUALVERIFY OP_CHECKSIG", "type": "pubkeyhash"}, "value": 0.04351213, "n": 0}, {"scriptPubKey": {"reqSigs": 1, "hex": "76a9146586ced214191eaee684bf8787713d2671eff5aa88ac", "addresses": ["1AFpjzWNNtmMamjbbSSNLiVdktzrYMspCQ"], "asm": "OP_DUP OP_HASH160 6586ced214191eaee684bf8787713d2671eff5aa OP_EQUALVERIFY OP_CHECKSIG", "type": "pubkeyhash"}, "value": 0.06254165, "n": 1}], "hex": "0200000001d1d8cac71831f7ea694e5317eddd6ac68038eaa259b9646f816ecc89bde267e1010000006b483045022100d04e3682f711656e5ee3e9d09bc319d288211dfba1a5849ea25a797a61188e6202202a34a225b0beaff750f73d20beba93db75e3431b14d0a75e8fe114caff03632b01210210dac65f236a05432a1dbd2f909aa1c6e1870304203e734e8d07db9b57443d46ffffffff02ed644200000000001976a91427f631f9e92995017683d7e367cc5bed2d7b4bf388ac556e5f00000000001976a9146586ced214191eaee684bf8787713d2671eff5aa88ac00000000", "vin": [{"sequence": 4294967295, "scriptSig": {"hex": "483045022100d04e3682f711656e5ee3e9d09bc319d288211dfba1a5849ea25a797a61188e6202202a34a225b0beaff750f73d20beba93db75e3431b14d0a75e8fe114caff03632b01210210dac65f236a05432a1dbd2f909aa1c6e1870304203e734e8d07db9b57443d46", "asm": "3045022100d04e3682f711656e5ee3e9d09bc319d288211dfba1a5849ea25a797a61188e6202202a34a225b0beaff750f73d20beba93db75e3431b14d0a75e8fe114caff03632b[ALL] 0210dac65f236a05432a1dbd2f909aa1c6e1870304203e734e8d07db9b57443d46"}, "vout": 1, "txid": "e167e2bd89cc6e816f64b959a2ea3880c66added17534e69eaf73118c7cad8d1"}], "txid": "791c699b514e2ce1f417704a39b84d327ab816fcd4c3ebc6497fba04d20804c1", "blocktime": 1537875543, "version": 2, "confirmations": 11464, "time": 1537875543, "locktime": 0, "vsize": 226, "size": 226}