{"hash": "da55e4ca857c3e365d662f522c9bc483116d6c908fa8893bc8f090c405632459", "blockhash": "000000000000000000022b45ed06c6f4ccd3cf7fb5ba4856ebd2e58215665228", "vout": [{"scriptPubKey": {"reqSigs": 1, "hex": "76a914dd97ffb5693ed2145e3961dbdb2e3228de3cce3a88ac", "addresses": ["1MCgRTiSDWo6QBfZFfPKbGp3DnDT2nekgg"], "asm": "OP_DUP OP_HASH160 dd97ffb5693ed2145e3961dbdb2e3228de3cce3a OP_EQUALVERIFY OP_CHECKSIG", "type": "pubkeyhash"}, "value": 0.01378747, "n": 0}, {"scriptPubKey": {"reqSigs": 1, "hex": "00148dad4f7c6c92024ad344c9c7d66da6f79dd7b9b2", "addresses": ["bc1q3kk57lrvjgpy456ye8ravmdx77wa0wdjd4e2su"], "asm": "0 8dad4f7c6c92024ad344c9c7d66da6f79dd7b9b2", "type": "witness_v0_keyhash"}, "value": 0.00010177, "n": 1}], "hex": "01000000000101426e0815b89dbabd91ae98907eef95f6fed8e1cbc50fe9f4176147c77f7facca0000000000ffffffff02bb091500000000001976a914dd97ffb5693ed2145e3961dbdb2e3228de3cce3a88acc1270000000000001600148dad4f7c6c92024ad344c9c7d66da6f79dd7b9b20247304402201182b2e4f1c9eda0c7f057d4146aa006303bb86570bbfdc84174c430776a62e3022077cf8490518e0b62d4e848dc4ba12a2a5a9c95c3cdb8b9a5a245641354900a6d01210379320bad6c38f7e35a9f3d16088ce13ae7fb285b509118053c42da4f590f722200000000", "vin": [{"txinwitness": ["304402201182b2e4f1c9eda0c7f057d4146aa006303bb86570bbfdc84174c430776a62e3022077cf8490518e0b62d4e848dc4ba12a2a5a9c95c3cdb8b9a5a245641354900a6d01", "0379320bad6c38f7e35a9f3d16088ce13ae7fb285b509118053c42da4f590f7222"], "sequence": 4294967295, "scriptSig": {"hex": "", "asm": ""}, "vout": 0, "txid": "caac7f7fc7476117f4e90fc5cbe1d8fef695ef7e9098ae91bdba9db815086e42"}], "txid": "791d4ef6eb9ef898323d7cf3d3f86c9e9c02c4eea67462b04d702732c18dbf40", "blocktime": 1537869901, "version": 1, "confirmations": 11523, "time": 1537869901, "locktime": 0, "vsize": 144, "size": 225}