{"hash": "791eb130ee0005734e5f61348ef5fcc58d6590a2589ee89220e024547493799e", "blockhash": "0000000000000000000e13cef7c366c0283d82e591d1acd082e914b08063cdf1", "vout": [{"scriptPubKey": {"reqSigs": 1, "hex": "76a914a83927aa739475b8d2ac0124452faad3e1f8668088ac", "addresses": ["1GLUzRWubNoUzWjJw1zMAEKb4CrNLrcnxW"], "asm": "OP_DUP OP_HASH160 a83927aa739475b8d2ac0124452faad3e1f86680 OP_EQUALVERIFY OP_CHECKSIG", "type": "pubkeyhash"}, "value": 0.00198895, "n": 0}, {"scriptPubKey": {"reqSigs": 1, "hex": "76a914ea9c831b52c211f357fb7c93f7c6a07475d7664888ac", "addresses": ["1NPWcYSnykbysrSwLrzjZewZHubocrJ9XZ"], "asm": "OP_DUP OP_HASH160 ea9c831b52c211f357fb7c93f7c6a07475d76648 OP_EQUALVERIFY OP_CHECKSIG", "type": "pubkeyhash"}, "value": 0.00227, "n": 1}], "hex": "0100000001c66d48c8caaff7801d9701c7b93dbe3defde89cb03a55c340ea9c28927db37ef010000006b483045022100f245d376134a59f136166f83ffd04cb85306e2dbc6a2528c5b5cc19d915f7e5102201d0bddfe4807d87402f07f803deb47ab113463ea1aa48582f89b4b9e5ecb587b012102e5ebe28c8caf198740f6807fa8278df3263632d31a25b1f82377ce200ec897ddffffffff02ef080300000000001976a914a83927aa739475b8d2ac0124452faad3e1f8668088acb8760300000000001976a914ea9c831b52c211f357fb7c93f7c6a07475d7664888ac00000000", "vin": [{"sequence": 4294967295, "scriptSig": {"hex": "483045022100f245d376134a59f136166f83ffd04cb85306e2dbc6a2528c5b5cc19d915f7e5102201d0bddfe4807d87402f07f803deb47ab113463ea1aa48582f89b4b9e5ecb587b012102e5ebe28c8caf198740f6807fa8278df3263632d31a25b1f82377ce200ec897dd", "asm": "3045022100f245d376134a59f136166f83ffd04cb85306e2dbc6a2528c5b5cc19d915f7e5102201d0bddfe4807d87402f07f803deb47ab113463ea1aa48582f89b4b9e5ecb587b[ALL] 02e5ebe28c8caf198740f6807fa8278df3263632d31a25b1f82377ce200ec897dd"}, "vout": 1, "txid": "ef37db2789c2a90e345ca503cb89deef3dbe3db9c701971d80f7afcac8486dc6"}], "txid": "791eb130ee0005734e5f61348ef5fcc58d6590a2589ee89220e024547493799e", "blocktime": 1537871767, "version": 1, "confirmations": 11495, "time": 1537871767, "locktime": 0, "vsize": 226, "size": 226}