{"hash": "7922576f2c019406187d0c5d3ff53903f50c194e5865ac0ed6483af35fdad167", "blockhash": "000000000000000000205f8b0775d31398ef75b89a5e8ec8d2c57b4dc0ac4c20", "vout": [{"scriptPubKey": {"reqSigs": 1, "hex": "76a9148687fd8c59808c44747324ca44d0544a70324ceb88ac", "addresses": ["1DGLTVAECnNtastgWqmZXYx2cYP2yXKoSL"], "asm": "OP_DUP OP_HASH160 8687fd8c59808c44747324ca44d0544a70324ceb OP_EQUALVERIFY OP_CHECKSIG", "type": "pubkeyhash"}, "value": 0.13865, "n": 0}, {"scriptPubKey": {"reqSigs": 1, "hex": "76a914ace15fa69c1dd3cf0b80a66e2103ac989d7a4b9c88ac", "addresses": ["1Gm7DEKLEU2ec3YQQUi3w8XtKMEFojvjXr"], "asm": "OP_DUP OP_HASH160 ace15fa69c1dd3cf0b80a66e2103ac989d7a4b9c OP_EQUALVERIFY OP_CHECKSIG", "type": "pubkeyhash"}, "value": 0.24261062, "n": 1}], "hex": "0100000001bc14a298940ddec31a52016aceda7ed16900f68da14ea16f834da6f2532101ed010000006b483045022100bcf90db216813f12b977d168c159f2be4c384ad283183a6f0c2698c720244279022039ab2b515d54160d5e90829b9e02420b741b1e95de41a941d5dfa2820380023f012103e41fee83696b77e8fab3eebcffdba11f587b0b806f8524a991e1e5f8699fc6e0ffffffff022890d300000000001976a9148687fd8c59808c44747324ca44d0544a70324ceb88acc6317201000000001976a914ace15fa69c1dd3cf0b80a66e2103ac989d7a4b9c88ac00000000", "vin": [{"sequence": 4294967295, "scriptSig": {"hex": "483045022100bcf90db216813f12b977d168c159f2be4c384ad283183a6f0c2698c720244279022039ab2b515d54160d5e90829b9e02420b741b1e95de41a941d5dfa2820380023f012103e41fee83696b77e8fab3eebcffdba11f587b0b806f8524a991e1e5f8699fc6e0", "asm": "3045022100bcf90db216813f12b977d168c159f2be4c384ad283183a6f0c2698c720244279022039ab2b515d54160d5e90829b9e02420b741b1e95de41a941d5dfa2820380023f[ALL] 03e41fee83696b77e8fab3eebcffdba11f587b0b806f8524a991e1e5f8699fc6e0"}, "vout": 1, "txid": "ed012153f2a64d836fa14ea18df60069d17edace6a01521ac3de0d9498a214bc"}], "txid": "7922576f2c019406187d0c5d3ff53903f50c194e5865ac0ed6483af35fdad167", "blocktime": 1537871175, "version": 1, "confirmations": 11511, "time": 1537871175, "locktime": 0, "vsize": 226, "size": 226}