{"hash": "792519d42f235251aeb60e71ee227553a04353950313af9993a43fff06c69e2e", "blockhash": "0000000000000000001f0ddff1eddb255c1121bcd4da4f1bc9a0da00cae72433", "vout": [{"scriptPubKey": {"reqSigs": 1, "hex": "76a914463bb1700ac3dd84fdd03f4de875810e8f0a1af288ac", "addresses": ["17QMoyknK9VFdzSVSQwJegdgcURWgf5tWE"], "asm": "OP_DUP OP_HASH160 463bb1700ac3dd84fdd03f4de875810e8f0a1af2 OP_EQUALVERIFY OP_CHECKSIG", "type": "pubkeyhash"}, "value": 0.01, "n": 0}, {"scriptPubKey": {"reqSigs": 1, "hex": "76a914d75365eb8f13953ac1f2d59ec321507e2e691ebd88ac", "addresses": ["1LdYBr7wvaMRLFvTmEZcnHiemoTLbRJoV2"], "asm": "OP_DUP OP_HASH160 d75365eb8f13953ac1f2d59ec321507e2e691ebd OP_EQUALVERIFY OP_CHECKSIG", "type": "pubkeyhash"}, "value": 0.032143, "n": 1}], "hex": "0100000001b6c85eca69b1b0b2b9a03e18f7dcd5be16d896c07f694bdc6fdde7d1b6beb0b8020000006a473044022033208d606a1918d1ddd9994855d3a47e0ffb9d74bc16e7a5d2e2a5cebb28d1f50220373a55164a43269e4117196255e653226aee9419f29c8292c1742a8ec3c73624012102bd311ffe50e534e6220806e4a58dcf31a026d7e46f03bd721cce81b147d26658feffffff0240420f00000000001976a914463bb1700ac3dd84fdd03f4de875810e8f0a1af288acdc0b3100000000001976a914d75365eb8f13953ac1f2d59ec321507e2e691ebd88ac11490800", "vin": [{"sequence": 4294967294, "scriptSig": {"hex": "473044022033208d606a1918d1ddd9994855d3a47e0ffb9d74bc16e7a5d2e2a5cebb28d1f50220373a55164a43269e4117196255e653226aee9419f29c8292c1742a8ec3c73624012102bd311ffe50e534e6220806e4a58dcf31a026d7e46f03bd721cce81b147d26658", "asm": "3044022033208d606a1918d1ddd9994855d3a47e0ffb9d74bc16e7a5d2e2a5cebb28d1f50220373a55164a43269e4117196255e653226aee9419f29c8292c1742a8ec3c73624[ALL] 02bd311ffe50e534e6220806e4a58dcf31a026d7e46f03bd721cce81b147d26658"}, "vout": 2, "txid": "b8b0beb6d1e7dd6fdc4b697fc096d816bed5dcf7183ea0b9b2b0b169ca5ec8b6"}], "txid": "792519d42f235251aeb60e71ee227553a04353950313af9993a43fff06c69e2e", "blocktime": 1537872018, "version": 1, "confirmations": 11489, "time": 1537872018, "locktime": 542993, "vsize": 225, "size": 225}