{"hash": "c491c260e8930b0d2d606a57d108029b3ea02cea136061c97571c610ad3d7aaf", "blockhash": "0000000000000000000dcc0f55137456b1a82d3642486a52398922ac4d620174", "vout": [{"scriptPubKey": {"reqSigs": 1, "hex": "a91461cec327a50c2d47745a51f877819c5a0afe0ed887", "addresses": ["3AcBAFRGEkpXB58s1ywyUFFSijgGH7ug6T"], "asm": "OP_HASH160 61cec327a50c2d47745a51f877819c5a0afe0ed8 OP_EQUAL", "type": "scripthash"}, "value": 0.00405719, "n": 0}, {"scriptPubKey": {"reqSigs": 1, "hex": "a9144b4469772d79c83b372a9faffcc01fc20d9fddae87", "addresses": ["38YzZH6hbbHy89skEF8c9s3EoJ3JVCqNJL"], "asm": "OP_HASH160 4b4469772d79c83b372a9faffcc01fc20d9fddae OP_EQUAL", "type": "scripthash"}, "value": 0.02580269, "n": 1}], "hex": "02000000000101d3fbeaf229096ec1c25dbb094257a9fac8d666c77e98ab70cdd29093985ff8f50000000017160014d3f3cc399e9278258339e634e0500ab955027a6efdffffff02d73006000000000017a91461cec327a50c2d47745a51f877819c5a0afe0ed8872d5f27000000000017a9144b4469772d79c83b372a9faffcc01fc20d9fddae8702473044022025a7dd6d89792c6adb719fe55d23de3ca5c0c039dcc5abb2e98589a1f9d9e96d0220483fc8ae9bc1ebd161ed706b054f32d2de9551b76a4eb6870a34eb6368182488012102f4b0bb5f35ccb011d51853e8811e1a1ccb0f06b25c415008c953effe49b026cd0c490800", "vin": [{"txinwitness": ["3044022025a7dd6d89792c6adb719fe55d23de3ca5c0c039dcc5abb2e98589a1f9d9e96d0220483fc8ae9bc1ebd161ed706b054f32d2de9551b76a4eb6870a34eb636818248801", "02f4b0bb5f35ccb011d51853e8811e1a1ccb0f06b25c415008c953effe49b026cd"], "sequence": 4294967293, "scriptSig": {"hex": "160014d3f3cc399e9278258339e634e0500ab955027a6e", "asm": "0014d3f3cc399e9278258339e634e0500ab955027a6e"}, "vout": 0, "txid": "f5f85f989390d2cd70ab987ec766d6c8faa9574209bb5dc2c16e0929f2eafbd3"}], "txid": "792693fc71db6adf716773bbc1884b87ecd6d887c2d077d986c131cb9d902f06", "blocktime": 1537870268, "version": 2, "confirmations": 11518, "time": 1537870268, "locktime": 542988, "vsize": 166, "size": 247}