{"hash": "792f3fe2ab7ab4df70e4b50efe5a5c64d4e3f713ff383a51591e8af2cd37913e", "blockhash": "0000000000000000001cda96e906b7601b7a6fb1a3b62bca570a9e5d8f4b3de1", "vout": [{"scriptPubKey": {"reqSigs": 1, "hex": "76a91430635946f7a0fff0535a65897c5ac372b97dce8f88ac", "addresses": ["15QrT5bfXqDCkxK65RjDUjJ8S7cbhBxXoG"], "asm": "OP_DUP OP_HASH160 30635946f7a0fff0535a65897c5ac372b97dce8f OP_EQUALVERIFY OP_CHECKSIG", "type": "pubkeyhash"}, "value": 2.878e-05, "n": 0}, {"scriptPubKey": {"reqSigs": 1, "hex": "a914a9ccbc98eeeabd0a4b73b27955bf90180c9e613887", "addresses": ["3HAqPKTMBt2iXdNBYzJUWH8oViHCgn63b8"], "asm": "OP_HASH160 a9ccbc98eeeabd0a4b73b27955bf90180c9e6138 OP_EQUAL", "type": "scripthash"}, "value": 0.00025, "n": 1}], "hex": "010000000269a61728057ffcadf2106c81aeba1bca5df00184d522f8961cd8a20e1fa87f51000000006b483045022100c9d01602552fad392c4686503a5e93194be7be634de09ed1ebf3023a229fb30f0220430e3d960989886356d5e917c29fe41110346d5fe312a6c025542b5c5e94f1fd0121030e56e9b5fc68960199fba581535e5356cc77be4191d823cb54ba332ebd969702ffffffff7f803f7e022f5381cb54a48f56fb174bb943e9639b68b1fe02838007b741ee9e900200006a473044022034c99add7f8bcf72bc35c177e14fb32636d0438e51d411fdbc96767da9f9387602203b6b19f561219e1f85fec0625b810aaf5601ab5ca6e732d15394b6e4c893441f0121030e56e9b5fc68960199fba581535e5356cc77be4191d823cb54ba332ebd969702ffffffff023e0b0000000000001976a91430635946f7a0fff0535a65897c5ac372b97dce8f88aca86100000000000017a914a9ccbc98eeeabd0a4b73b27955bf90180c9e61388700000000", "vin": [{"sequence": 4294967295, "scriptSig": {"hex": "483045022100c9d01602552fad392c4686503a5e93194be7be634de09ed1ebf3023a229fb30f0220430e3d960989886356d5e917c29fe41110346d5fe312a6c025542b5c5e94f1fd0121030e56e9b5fc68960199fba581535e5356cc77be4191d823cb54ba332ebd969702", "asm": "3045022100c9d01602552fad392c4686503a5e93194be7be634de09ed1ebf3023a229fb30f0220430e3d960989886356d5e917c29fe41110346d5fe312a6c025542b5c5e94f1fd[ALL] 030e56e9b5fc68960199fba581535e5356cc77be4191d823cb54ba332ebd969702"}, "vout": 0, "txid": "517fa81f0ea2d81c96f822d58401f05dca1bbaae816c10f2adfc7f052817a669"}, {"sequence": 4294967295, "scriptSig": {"hex": "473044022034c99add7f8bcf72bc35c177e14fb32636d0438e51d411fdbc96767da9f9387602203b6b19f561219e1f85fec0625b810aaf5601ab5ca6e732d15394b6e4c893441f0121030e56e9b5fc68960199fba581535e5356cc77be4191d823cb54ba332ebd969702", "asm": "3044022034c99add7f8bcf72bc35c177e14fb32636d0438e51d411fdbc96767da9f9387602203b6b19f561219e1f85fec0625b810aaf5601ab5ca6e732d15394b6e4c893441f[ALL] 030e56e9b5fc68960199fba581535e5356cc77be4191d823cb54ba332ebd969702"}, "vout": 656, "txid": "9eee41b707808302feb1689b63e943b94b17fb568fa454cb81532f027e3f807f"}], "txid": "792f3fe2ab7ab4df70e4b50efe5a5c64d4e3f713ff383a51591e8af2cd37913e", "blocktime": 1537873282, "version": 1, "confirmations": 11484, "time": 1537873282, "locktime": 0, "vsize": 371, "size": 371}