{"hash": "7934699b44693dc9a75d99037ac666ab6cd7760a768063afbf499bafb5d59f0c", "blockhash": "0000000000000000001e0dab787dd257d1dbfcb92a98c2207d5e1078be1f4165", "vout": [{"scriptPubKey": {"reqSigs": 1, "hex": "76a9141e55858720eaa7a0cda1c522f19d8320493eed7d88ac", "addresses": ["13mPiuAWK3SkaZV96MxBgvHd8nfBtXhMa7"], "asm": "OP_DUP OP_HASH160 1e55858720eaa7a0cda1c522f19d8320493eed7d OP_EQUALVERIFY OP_CHECKSIG", "type": "pubkeyhash"}, "value": 1.78e-05, "n": 0}, {"scriptPubKey": {"reqSigs": 1, "hex": "a91405d906083084d9e08cc0763e00362d7201a7b8b987", "addresses": ["32DwHZgpsMA7e4fQju5Em7x6QsWcE1YZC7"], "asm": "OP_HASH160 05d906083084d9e08cc0763e00362d7201a7b8b9 OP_EQUAL", "type": "scripthash"}, "value": 0.017, "n": 1}], "hex": "01000000014dc6cc199d61716d65b7ffc596186ebfce4a00806b7efc72e1fdebd53f006858010000006a47304402206b973df1e63649b799d3de981f886890589deeb696310e6ed743e11a2e6226b0022010d85cae2150745a065b0ef2dbc83c0914734c6f8f46001f6b3386559268c19f012103eafd32df82500e8d60860cbd36e2803e8a9da0f6b2a4bd99b33baac6f9080d98fdffffff02f4060000000000001976a9141e55858720eaa7a0cda1c522f19d8320493eed7d88aca0f019000000000017a91405d906083084d9e08cc0763e00362d7201a7b8b98711490800", "vin": [{"sequence": 4294967293, "scriptSig": {"hex": "47304402206b973df1e63649b799d3de981f886890589deeb696310e6ed743e11a2e6226b0022010d85cae2150745a065b0ef2dbc83c0914734c6f8f46001f6b3386559268c19f012103eafd32df82500e8d60860cbd36e2803e8a9da0f6b2a4bd99b33baac6f9080d98", "asm": "304402206b973df1e63649b799d3de981f886890589deeb696310e6ed743e11a2e6226b0022010d85cae2150745a065b0ef2dbc83c0914734c6f8f46001f6b3386559268c19f[ALL] 03eafd32df82500e8d60860cbd36e2803e8a9da0f6b2a4bd99b33baac6f9080d98"}, "vout": 1, "txid": "5868003fd5ebfde172fc7e6b80004acebf6e1896c5ffb7656d71619d19ccc64d"}], "txid": "7934699b44693dc9a75d99037ac666ab6cd7760a768063afbf499bafb5d59f0c", "blocktime": 1537872475, "version": 1, "confirmations": 11486, "time": 1537872475, "locktime": 542993, "vsize": 223, "size": 223}