{"hash": "793866340a8c8a680154d13d7c07f3945ba20a8be93401de8cf47a1ee07cfdde", "blockhash": "00000000000000000018f53835495a110e01622372bf6ae95dc86f2b0ab887b0", "vout": [{"scriptPubKey": {"reqSigs": 1, "hex": "76a914322e6432e78eea1b5b02653bb065bc735025f47b88ac", "addresses": ["15aLMvWhmpkx8ASwH5DXCPswnuGWotjoU5"], "asm": "OP_DUP OP_HASH160 322e6432e78eea1b5b02653bb065bc735025f47b OP_EQUALVERIFY OP_CHECKSIG", "type": "pubkeyhash"}, "value": 0.01481324, "n": 0}, {"scriptPubKey": {"reqSigs": 1, "hex": "76a914615be0a9fc2fc66de904265deb7433b37c538a2d88ac", "addresses": ["19sncNjRgHwYgEHruj812Ev8eSAqpdxGHa"], "asm": "OP_DUP OP_HASH160 615be0a9fc2fc66de904265deb7433b37c538a2d OP_EQUALVERIFY OP_CHECKSIG", "type": "pubkeyhash"}, "value": 0.015, "n": 1}], "hex": "01000000013f700cd377ce1ae097571330e949a697289d9be06ecc3fa1bd2ebdf6a9f2b5a3010000006b483045022100c368ec0c68f15f1b0deae1b01e58a127b54725bdf791743e0a494208bd193e8c02203f74551e56e474b21a5d6e78cb234e50706d5999627c244a144a54367db78590012102b98d605abe906e4e952a6e3aecf7e9ac76c627e838c98722235d64e95b93ca70ffffffff026c9a1600000000001976a914322e6432e78eea1b5b02653bb065bc735025f47b88ac60e31600000000001976a914615be0a9fc2fc66de904265deb7433b37c538a2d88ac00000000", "vin": [{"sequence": 4294967295, "scriptSig": {"hex": "483045022100c368ec0c68f15f1b0deae1b01e58a127b54725bdf791743e0a494208bd193e8c02203f74551e56e474b21a5d6e78cb234e50706d5999627c244a144a54367db78590012102b98d605abe906e4e952a6e3aecf7e9ac76c627e838c98722235d64e95b93ca70", "asm": "3045022100c368ec0c68f15f1b0deae1b01e58a127b54725bdf791743e0a494208bd193e8c02203f74551e56e474b21a5d6e78cb234e50706d5999627c244a144a54367db78590[ALL] 02b98d605abe906e4e952a6e3aecf7e9ac76c627e838c98722235d64e95b93ca70"}, "vout": 1, "txid": "a3b5f2a9f6bd2ebda13fcc6ee09b9d2897a649e930135797e01ace77d30c703f"}], "txid": "793866340a8c8a680154d13d7c07f3945ba20a8be93401de8cf47a1ee07cfdde", "blocktime": 1537870928, "version": 1, "confirmations": 11512, "time": 1537870928, "locktime": 0, "vsize": 226, "size": 226}