{"hash": "d0463eb20fd7f1b492a3f4b398387aecf91d6040965c8f2ae4d54eeda012eebd", "blockhash": "00000000000000000004ffacab907a6b429b9a5745fa0b75af4234bf69dd7176", "vout": [{"scriptPubKey": {"reqSigs": 1, "hex": "a9142996ad6f1699a569c57e698acc39949acee16b8e87", "addresses": ["35Uv8fRuqkdtSaRFhzno9SdChr5WWagyAE"], "asm": "OP_HASH160 2996ad6f1699a569c57e698acc39949acee16b8e OP_EQUAL", "type": "scripthash"}, "value": 0.28203, "n": 0}, {"scriptPubKey": {"reqSigs": 1, "hex": "a9147f35d8a77acd5c424e76fa136d04c66544b59ec987", "addresses": ["3DHeFDKB29aSVP3H2RydxKgSjuqRoLCjww"], "asm": "OP_HASH160 7f35d8a77acd5c424e76fa136d04c66544b59ec9 OP_EQUAL", "type": "scripthash"}, "value": 0.00999623, "n": 1}], "hex": "0200000000010522456074b1946b02c5860c218ecd425b5db14ddc87015d92763dc2c26fb3148000000000171600149e507e02f7f5ac3f1d587c8c972de1c6289cde90feffffff2efb1eaca0ad143c1415d6df1708260b4f4e98f59e5ff04a449fd7491861ff170100000017160014f14591e5edae210d48f8a401d0b63255fde7a645feffffff4ba3cd88d2013f982728c210e125d1a38b6d811ff9d71039f78d3e582787b1340000000017160014c1aab5f0c6c4bcc70452cf921ffaa098659c3e18feffffff4ced24994529be9459ec96f0e28fb6be87ed2d944808f636a3d9f8e0c385020b00000000171600146b97da677601aa2e25f55b391f90077c06a8b7e1feffffffb5f697c7c393f119ba5b7390e3a5b04ad45f3a6f4d937f055cac15fb014f494900000000171600148ddc14531fb5b08fe6db18ca79a09699f7d5cfd8feffffff02f857ae010000000017a9142996ad6f1699a569c57e698acc39949acee16b8e87c7400f000000000017a9147f35d8a77acd5c424e76fa136d04c66544b59ec98702483045022100f3a0383ab5ce5fc9a12168e7877dbce13c8dea0a507ae8e87a82342066949b8a022003208c433d8e74ce2f3781aaf3b6884e220572cbee911aa99963645d38469dea0121039cd6d183a6039cd4d3b761cead3cca8a60d27206d58844b8813837a86a90113a0247304402201a9984b309cbaa0987eb72ad2759e3fa203258a74e554a6f261ade51fdd65efd0220097a2e4a805db9653da5b0fc26278fb723cf932493ae18c9e4163c4aea919bb30121022ac7ae7dac276fc97577b20eb99c9d4fd45e9b62dca28a14631900b8ba2e6861024830450221008b5301ca188453c7c290ade9b48c979abbba33d58180ab92a5322b7ac7bae6dd02203cba45cc8b32aa5ef31cb33acea475c054f60eff2e8f5286983dde39a771a5980121029d6bd61f1679f198501283155b54e861e985f9e53fdcefe72814f31d5580b23d02463043021f3ab82d284769d07fca0b462cb1d5d769eb1b3e539d21ec66d5fe20de39d4ff0220665440ae6906cc099ad94be315c21057d80b4bf69b4ca96e07e3c16e0644c530012103a6e3e6dc431a09aae75f223c0147faec561d599f58f8be718ae488b26dcaaa8d024730440220230edef0cb14d86cd746b1b339bc82016b5860d3d8f146d9e0f5191983221446022078046141eb0078c94838db1731241a20e0d5bcdb7b2686278ce281855d6cd816012103a16f25aa523bb7edb496aefb11aad8aef75f548072d2f962da31428a93909cfb16490800", "vin": [{"txinwitness": ["3045022100f3a0383ab5ce5fc9a12168e7877dbce13c8dea0a507ae8e87a82342066949b8a022003208c433d8e74ce2f3781aaf3b6884e220572cbee911aa99963645d38469dea01", "039cd6d183a6039cd4d3b761cead3cca8a60d27206d58844b8813837a86a90113a"], "sequence": 4294967294, "scriptSig": {"hex": "1600149e507e02f7f5ac3f1d587c8c972de1c6289cde90", "asm": "00149e507e02f7f5ac3f1d587c8c972de1c6289cde90"}, "vout": 0, "txid": "8014b36fc2c23d76925d0187dc4db15d5b42cd8e210c86c5026b94b174604522"}, {"txinwitness": ["304402201a9984b309cbaa0987eb72ad2759e3fa203258a74e554a6f261ade51fdd65efd0220097a2e4a805db9653da5b0fc26278fb723cf932493ae18c9e4163c4aea919bb301", "022ac7ae7dac276fc97577b20eb99c9d4fd45e9b62dca28a14631900b8ba2e6861"], "sequence": 4294967294, "scriptSig": {"hex": "160014f14591e5edae210d48f8a401d0b63255fde7a645", "asm": "0014f14591e5edae210d48f8a401d0b63255fde7a645"}, "vout": 1, "txid": "17ff611849d79f444af05f9ef5984e4f0b260817dfd615143c14ada0ac1efb2e"}, {"txinwitness": ["30450221008b5301ca188453c7c290ade9b48c979abbba33d58180ab92a5322b7ac7bae6dd02203cba45cc8b32aa5ef31cb33acea475c054f60eff2e8f5286983dde39a771a59801", "029d6bd61f1679f198501283155b54e861e985f9e53fdcefe72814f31d5580b23d"], "sequence": 4294967294, "scriptSig": {"hex": "160014c1aab5f0c6c4bcc70452cf921ffaa098659c3e18", "asm": "0014c1aab5f0c6c4bcc70452cf921ffaa098659c3e18"}, "vout": 0, "txid": "34b18727583e8df73910d7f91f816d8ba3d125e110c22827983f01d288cda34b"}, {"txinwitness": ["3043021f3ab82d284769d07fca0b462cb1d5d769eb1b3e539d21ec66d5fe20de39d4ff0220665440ae6906cc099ad94be315c21057d80b4bf69b4ca96e07e3c16e0644c53001", "03a6e3e6dc431a09aae75f223c0147faec561d599f58f8be718ae488b26dcaaa8d"], "sequence": 4294967294, "scriptSig": {"hex": "1600146b97da677601aa2e25f55b391f90077c06a8b7e1", "asm": "00146b97da677601aa2e25f55b391f90077c06a8b7e1"}, "vout": 0, "txid": "0b0285c3e0f8d9a336f60848942ded87beb68fe2f096ec5994be29459924ed4c"}, {"txinwitness": ["30440220230edef0cb14d86cd746b1b339bc82016b5860d3d8f146d9e0f5191983221446022078046141eb0078c94838db1731241a20e0d5bcdb7b2686278ce281855d6cd81601", "03a16f25aa523bb7edb496aefb11aad8aef75f548072d2f962da31428a93909cfb"], "sequence": 4294967294, "scriptSig": {"hex": "1600148ddc14531fb5b08fe6db18ca79a09699f7d5cfd8", "asm": "00148ddc14531fb5b08fe6db18ca79a09699f7d5cfd8"}, "vout": 0, "txid": "49494f01fb15ac5c057f934d6f3a5fd44ab0a5e390735bba19f193c3c797f6b5"}], "txid": "7942b4873787926f4ff78d128676cf1c81199852f2ac1e197835834d78c0ad43", "blocktime": 1537875543, "version": 2, "confirmations": 11464, "time": 1537875543, "locktime": 542998, "vsize": 529, "size": 932}