{"hash": "ed6597628784f89c16398fad27f81a7490bc852bd645838ff5cae11c6be3b1c8", "blockhash": "00000000000000000024a2167bbff67b0be802c0b01cdd79e6331c2be6459f87", "vout": [{"scriptPubKey": {"reqSigs": 1, "hex": "a914bce1a549b7a785e3da4b1226ea94184a069f329e87", "addresses": ["3JujGk3R55n8im4Rpck4SPbtMJuCBoxc9E"], "asm": "OP_HASH160 bce1a549b7a785e3da4b1226ea94184a069f329e OP_EQUAL", "type": "scripthash"}, "value": 0.095, "n": 0}, {"scriptPubKey": {"reqSigs": 1, "hex": "a91427356d7a16c673e478536413bb4667986e7629db87", "addresses": ["35GLHF3VeUkAt1ErMWNpfcWxSdTzm3TNW7"], "asm": "OP_HASH160 27356d7a16c673e478536413bb4667986e7629db OP_EQUAL", "type": "scripthash"}, "value": 0.01130696, "n": 1}], "hex": "020000000001041ac6818dafbdc3ad888d42f82b146a0e2fb509d89b8b1cb6718389b356dc9df9000000001716001427718a75c022cb23ca95ff81e2b8a5579668dcd5fdffffff1d04e3a467afdc7ffc34f2656fdc29b84e61637d41172cd0a12fef7b4ba7dfe501000000171600147f9b7c3d3da19f726da1f8648d3a7fd613a47570fdffffff1ff542d64042bfb694b2c6161766672cc40c85887e01283e50a7cf2befae11c4000000001716001427718a75c022cb23ca95ff81e2b8a5579668dcd5fdffffff51ade1ad71574b439612a56be5243468d3973f4f07526ba63a37ac49a17dad390100000017160014a6f2a3663a592cd2401bf2e420e0bfdfaaa8081afdffffff0260f590000000000017a914bce1a549b7a785e3da4b1226ea94184a069f329e87c84011000000000017a91427356d7a16c673e478536413bb4667986e7629db8702473044022000f17124f6f989d68123845cbcbb5dcf77da9d906f7b774cc4ddce2472fe085802200f80d3ca8583827416703e4e9e1619fb5da8855ff0f4b536d0e3ba1d30324283012103c485ac05e4bd166650e8d37c5fdef9c7bedbe9cb49a95bcfaba80df9a0e93d5a024730440220296f705d4e70e98710843e91164e1a6bf84070310505fd6b1d1e3bec7f50289802203deac9139a636df630da82d0d8c083cf4eebd55d51b7dcdd759d4d451e9f865c012103d05dbbb769475e739f9ea4787c34011ae90a41e70887baba109cf90c5bd9aa370247304402203dc666594881e1f6240908b3cfe8a01931be4cd575c71c5c8b501465a5ad5144022016272e8e381b55477990723373dd2a947020fff5e64bf7d4b17b4e10bc0bd8d9012103c485ac05e4bd166650e8d37c5fdef9c7bedbe9cb49a95bcfaba80df9a0e93d5a024730440220393ea55058d661a1210a0879bd769444b341ce4033c681937cdc36d2e2827580022074cfa94d5f4d3d1188effe651f768f0c5e12facc09891ee1a495184bf534118601210210168a5e72be4dc777a0694ad7e734c767c013f2fd62df6a60e6ecf20ee7fc0f0c490800", "vin": [{"txinwitness": ["3044022000f17124f6f989d68123845cbcbb5dcf77da9d906f7b774cc4ddce2472fe085802200f80d3ca8583827416703e4e9e1619fb5da8855ff0f4b536d0e3ba1d3032428301", "03c485ac05e4bd166650e8d37c5fdef9c7bedbe9cb49a95bcfaba80df9a0e93d5a"], "sequence": 4294967293, "scriptSig": {"hex": "16001427718a75c022cb23ca95ff81e2b8a5579668dcd5", "asm": "001427718a75c022cb23ca95ff81e2b8a5579668dcd5"}, "vout": 0, "txid": "f99ddc56b3898371b61c8b9bd809b52f0e6a142bf8428d88adc3bdaf8d81c61a"}, {"txinwitness": ["30440220296f705d4e70e98710843e91164e1a6bf84070310505fd6b1d1e3bec7f50289802203deac9139a636df630da82d0d8c083cf4eebd55d51b7dcdd759d4d451e9f865c01", "03d05dbbb769475e739f9ea4787c34011ae90a41e70887baba109cf90c5bd9aa37"], "sequence": 4294967293, "scriptSig": {"hex": "1600147f9b7c3d3da19f726da1f8648d3a7fd613a47570", "asm": "00147f9b7c3d3da19f726da1f8648d3a7fd613a47570"}, "vout": 1, "txid": "e5dfa74b7bef2fa1d02c17417d63614eb829dc6f65f234fc7fdcaf67a4e3041d"}, {"txinwitness": ["304402203dc666594881e1f6240908b3cfe8a01931be4cd575c71c5c8b501465a5ad5144022016272e8e381b55477990723373dd2a947020fff5e64bf7d4b17b4e10bc0bd8d901", "03c485ac05e4bd166650e8d37c5fdef9c7bedbe9cb49a95bcfaba80df9a0e93d5a"], "sequence": 4294967293, "scriptSig": {"hex": "16001427718a75c022cb23ca95ff81e2b8a5579668dcd5", "asm": "001427718a75c022cb23ca95ff81e2b8a5579668dcd5"}, "vout": 0, "txid": "c411aeef2bcfa7503e28017e88850cc42c67661716c6b294b6bf4240d642f51f"}, {"txinwitness": ["30440220393ea55058d661a1210a0879bd769444b341ce4033c681937cdc36d2e2827580022074cfa94d5f4d3d1188effe651f768f0c5e12facc09891ee1a495184bf534118601", "0210168a5e72be4dc777a0694ad7e734c767c013f2fd62df6a60e6ecf20ee7fc0f"], "sequence": 4294967293, "scriptSig": {"hex": "160014a6f2a3663a592cd2401bf2e420e0bfdfaaa8081a", "asm": "0014a6f2a3663a592cd2401bf2e420e0bfdfaaa8081a"}, "vout": 1, "txid": "39ad7da149ac373aa66b52074f3f97d3683424e56ba51296434b5771ade1ad51"}], "txid": "794c3f09fc85810a3e20fc47ba596b981ed63cbbcfcb7b0d4c9c033136935e29", "blocktime": 1537870564, "version": 2, "confirmations": 11515, "time": 1537870564, "locktime": 542988, "vsize": 438, "size": 760}