{"hash": "a4b659c0d5c3a9f6595f5df95fabd05cc79c04d662ef2be53635275545316252", "blockhash": "0000000000000000001cda96e906b7601b7a6fb1a3b62bca570a9e5d8f4b3de1", "vout": [{"scriptPubKey": {"reqSigs": 1, "hex": "76a914254c0183b84059bb06f0cfba834107fff8e7983488ac", "addresses": ["14QD45ihP6Q5vq3rc2urCy6RtyxoeihYhN"], "asm": "OP_DUP OP_HASH160 254c0183b84059bb06f0cfba834107fff8e79834 OP_EQUALVERIFY OP_CHECKSIG", "type": "pubkeyhash"}, "value": 0.00111753, "n": 0}, {"scriptPubKey": {"reqSigs": 1, "hex": "a9149649ad6d2730bb28020a268d9d80df10a9f74ad487", "addresses": ["3FPfYWwfMfKMGY7fuPHvz2b73RhTNGzsm3"], "asm": "OP_HASH160 9649ad6d2730bb28020a268d9d80df10a9f74ad4 OP_EQUAL", "type": "scripthash"}, "value": 13.8567165, "n": 1}], "hex": "010000000001017b9aff5facc569532e4a818a5810ec652fcd8c60a8e7a5b0973985a5f81190cc01000000232200207768efcc1e5eb3d28410fac3f45831004c860cc24cddd940a616b34324823fceffffffff0289b40100000000001976a914254c0183b84059bb06f0cfba834107fff8e7983488ace2ab97520000000017a9149649ad6d2730bb28020a268d9d80df10a9f74ad4870400483045022100bb36e2e05d60abe09d752cb537bd12597c84d65e88d173605c90dad7d5992d1202205a0e7dbba0cdccfd9f468318b42139eae3d3ddb865273bbdd0ca1bc0fc65ef3d014730440220333bc1bcbbeb7ac4a43a1c7d5b69afce96151c34193ad2c8d41250ec4091730a02206057c3ba7865f71f0b1e1fb56b7f9ad709e139731d4ab8e7805e0d168cadd3dc0147522102529d5d1f6733ab45d9d50e07db42c7f6b967ae321c38b726c2247f149959b8262103d0c936a5988dd8421c63240496b723b0ec42400c38b9350e32c2eb4f47d8796952ae00000000", "vin": [{"txinwitness": ["", "3045022100bb36e2e05d60abe09d752cb537bd12597c84d65e88d173605c90dad7d5992d1202205a0e7dbba0cdccfd9f468318b42139eae3d3ddb865273bbdd0ca1bc0fc65ef3d01", "30440220333bc1bcbbeb7ac4a43a1c7d5b69afce96151c34193ad2c8d41250ec4091730a02206057c3ba7865f71f0b1e1fb56b7f9ad709e139731d4ab8e7805e0d168cadd3dc01", "522102529d5d1f6733ab45d9d50e07db42c7f6b967ae321c38b726c2247f149959b8262103d0c936a5988dd8421c63240496b723b0ec42400c38b9350e32c2eb4f47d8796952ae"], "sequence": 4294967295, "scriptSig": {"hex": "2200207768efcc1e5eb3d28410fac3f45831004c860cc24cddd940a616b34324823fce", "asm": "00207768efcc1e5eb3d28410fac3f45831004c860cc24cddd940a616b34324823fce"}, "vout": 1, "txid": "cc9011f8a5853997b0a5e7a8608ccd2f65ec10588a814a2e5369c5ac5fff9a7b"}], "txid": "794e03c1de1aa0c90351a32338326da2460dde8c03f3df2c9015dd45d7b09041", "blocktime": 1537873282, "version": 1, "confirmations": 11484, "time": 1537873282, "locktime": 0, "vsize": 208, "size": 373}