{"hash": "795d4bdbef7b8117160d5a3a2d21fcef7fbd8a454988e7d54f8f37119aa0b876", "blockhash": "0000000000000000000baef3f32e3676a92c3b2e5da21b426e4f302fc371ce76", "vout": [{"scriptPubKey": {"type": "nulldata", "hex": "6a4c50000078130001c4b3c78b8c1d11b070a58c7c702940d64fa54d8eb2d19ed074892d00f8e8321ad3a128750cdb18a514faaaf4b02b5baa1baf0614f847230b5c0b1d100759d4ba30d2c37bb011d97e02cf", "asm": "OP_RETURN 000078130001c4b3c78b8c1d11b070a58c7c702940d64fa54d8eb2d19ed074892d00f8e8321ad3a128750cdb18a514faaaf4b02b5baa1baf0614f847230b5c0b1d100759d4ba30d2c37bb011d97e02cf"}, "value": 0.0, "n": 0}, {"scriptPubKey": {"reqSigs": 1, "hex": "76a91411e4141a70beed05696c194a6db024b5ab061a6c88ac", "addresses": ["12dbiSEewPc3nkCs3XsKQAQprgM7oCF8Ru"], "asm": "OP_DUP OP_HASH160 11e4141a70beed05696c194a6db024b5ab061a6c OP_EQUALVERIFY OP_CHECKSIG", "type": "pubkeyhash"}, "value": 0.00630204, "n": 1}], "hex": "01000000019dd7b6aef78591aa251b4798a829578b14d45b81ec211e88c4a93fede1f069c8000000006a4730440220168aab0d9f3d22dd759b44ca73dd85f9f8a5e8a6df1a7b6c6984b60393797d070220079726ce3bbbef38b3bf490b3f711f78a1a85ed1456f7e3bcb595f43810dd1fa012103df52f947e82f25c1992e42904560d6fbd13573af685b611a166d5b16c227b776ffffffff020000000000000000536a4c50000078130001c4b3c78b8c1d11b070a58c7c702940d64fa54d8eb2d19ed074892d00f8e8321ad3a128750cdb18a514faaaf4b02b5baa1baf0614f847230b5c0b1d100759d4ba30d2c37bb011d97e02cfbc9d0900000000001976a91411e4141a70beed05696c194a6db024b5ab061a6c88ac00000000", "vin": [{"sequence": 4294967295, "scriptSig": {"hex": "4730440220168aab0d9f3d22dd759b44ca73dd85f9f8a5e8a6df1a7b6c6984b60393797d070220079726ce3bbbef38b3bf490b3f711f78a1a85ed1456f7e3bcb595f43810dd1fa012103df52f947e82f25c1992e42904560d6fbd13573af685b611a166d5b16c227b776", "asm": "30440220168aab0d9f3d22dd759b44ca73dd85f9f8a5e8a6df1a7b6c6984b60393797d070220079726ce3bbbef38b3bf490b3f711f78a1a85ed1456f7e3bcb595f43810dd1fa[ALL] 03df52f947e82f25c1992e42904560d6fbd13573af685b611a166d5b16c227b776"}, "vout": 0, "txid": "c869f0e1ed3fa9c4881e21ec815bd4148b5729a898471b25aa9185f7aeb6d79d"}], "txid": "795d4bdbef7b8117160d5a3a2d21fcef7fbd8a454988e7d54f8f37119aa0b876", "blocktime": 1537876114, "version": 1, "confirmations": 11460, "time": 1537876114, "locktime": 0, "vsize": 283, "size": 283}