{"hash": "0fa5307b5cb89650806bad974ff8d09843ba7d602659176e5ff825de04f4351c", "blockhash": "0000000000000000000dcc0f55137456b1a82d3642486a52398922ac4d620174", "vout": [{"scriptPubKey": {"reqSigs": 1, "hex": "76a9148d3ea1a917d300e0b527fa1e7ad4fc2222d9f33288ac", "addresses": ["1DsqJm5puCeVDWDfNDptpGHkVQrtG5a3aQ"], "asm": "OP_DUP OP_HASH160 8d3ea1a917d300e0b527fa1e7ad4fc2222d9f332 OP_EQUALVERIFY OP_CHECKSIG", "type": "pubkeyhash"}, "value": 0.0031956, "n": 0}, {"scriptPubKey": {"reqSigs": 1, "hex": "a914178fd2daa9f7f35f4cac0c955a7e0371a3f1ee4187", "addresses": ["33qbkzr8NEEzFodtuZTXFB1mbLHbCNhSjQ"], "asm": "OP_HASH160 178fd2daa9f7f35f4cac0c955a7e0371a3f1ee41 OP_EQUAL", "type": "scripthash"}, "value": 0.00999339, "n": 1}], "hex": "0200000000010237e0338d30027634bfb696b4049b6c6f684c9b0562a83cb9b7c33e4312bbd9db0c00000017160014fc1e949db71a95bdd37d30093477c4b85dbb1233feffffff44fea61f92a0e2a1a2c97e86c4715396b169ea2c6ca19d4eaf74e8380a5c9eda0100000017160014409e1d55ffaac616f13eaf30605d2162bd8d0303feffffff0248e00400000000001976a9148d3ea1a917d300e0b527fa1e7ad4fc2222d9f33288acab3f0f000000000017a914178fd2daa9f7f35f4cac0c955a7e0371a3f1ee41870247304402203a72b143b0d2a80a9ee5b53ac641fc810ce9f52aba4b6dcb6f598a84bc97a097022020961c98e64cb9a83a69c17dbd2055abd8f798b98c266e9e7a304b86f0a484c4012103284265d556d6222ad7ec115c540e36f399a4bfb528212e3916d017897040d561024730440220377af76447386a698db78f39ebd3c3ac40212e7b04684b466314f154270acdd602202a3c74a6f8ba3c61da47e1abd05e788c4869b6abe872355f568f6182328e1bbc012103f827fb12a5cf0a1e79eb4fac63b1f6bd68c2940fe6cae5e9ca2db3c9e87d4cd00c490800", "vin": [{"txinwitness": ["304402203a72b143b0d2a80a9ee5b53ac641fc810ce9f52aba4b6dcb6f598a84bc97a097022020961c98e64cb9a83a69c17dbd2055abd8f798b98c266e9e7a304b86f0a484c401", "03284265d556d6222ad7ec115c540e36f399a4bfb528212e3916d017897040d561"], "sequence": 4294967294, "scriptSig": {"hex": "160014fc1e949db71a95bdd37d30093477c4b85dbb1233", "asm": "0014fc1e949db71a95bdd37d30093477c4b85dbb1233"}, "vout": 12, "txid": "dbd9bb12433ec3b7b93ca862059b4c686f6c9b04b496b6bf347602308d33e037"}, {"txinwitness": ["30440220377af76447386a698db78f39ebd3c3ac40212e7b04684b466314f154270acdd602202a3c74a6f8ba3c61da47e1abd05e788c4869b6abe872355f568f6182328e1bbc01", "03f827fb12a5cf0a1e79eb4fac63b1f6bd68c2940fe6cae5e9ca2db3c9e87d4cd0"], "sequence": 4294967294, "scriptSig": {"hex": "160014409e1d55ffaac616f13eaf30605d2162bd8d0303", "asm": "0014409e1d55ffaac616f13eaf30605d2162bd8d0303"}, "vout": 1, "txid": "da9e5c0a38e874af4e9da16c2cea69b1965371c4867ec9a2a1e2a0921fa6fe44"}], "txid": "7964be19dca55782500734b48e48b682abe73ac8aeea327c736ef500adaf6fe9", "blocktime": 1537870268, "version": 2, "confirmations": 11518, "time": 1537870268, "locktime": 542988, "vsize": 258, "size": 420}