{"hash": "5a0576396f21159eff99bdba33eaf551c093b469c6ee7c04509cf433050a20c0", "blockhash": "00000000000000000018f53835495a110e01622372bf6ae95dc86f2b0ab887b0", "vout": [{"scriptPubKey": {"reqSigs": 1, "hex": "a914c37e8cad4fa478ce28ef8820807a824df9532c2187", "addresses": ["3KWhHmMEAGzjXFdS1F9b9EJk2q8Lm7B4hr"], "asm": "OP_HASH160 c37e8cad4fa478ce28ef8820807a824df9532c21 OP_EQUAL", "type": "scripthash"}, "value": 0.00994939, "n": 0}, {"scriptPubKey": {"reqSigs": 1, "hex": "a91465a5cc5c57c4596b3354a67ed4ef2dd659a337ff87", "addresses": ["3AxUnnWCT53FhXYMajUk5whuKZ8pYHkaoL"], "asm": "OP_HASH160 65a5cc5c57c4596b3354a67ed4ef2dd659a337ff OP_EQUAL", "type": "scripthash"}, "value": 20.0, "n": 1}], "hex": "0100000000010146132bbc9c4c307c9d2ac145af40fcd4cba8f81d153d287ed72ec670464f64300100000017160014a5a639ea22114588cbbce821f434c9956bc0d6f9ffffffff027b2e0f000000000017a914c37e8cad4fa478ce28ef8820807a824df9532c2187009435770000000017a91465a5cc5c57c4596b3354a67ed4ef2dd659a337ff87024730440220082493114c910dc85f4a5a5d182edcb8fe3cffd9c7513df1fbd13fd1574e197402203bcf979f4623a73edae9d44917737fffe1a0f607afe02609f9934ae6216491b40121034adf97284f67ffa4f85cc1cfc40934a6992ec7603135d77fec88c0eb9988031000000000", "vin": [{"txinwitness": ["30440220082493114c910dc85f4a5a5d182edcb8fe3cffd9c7513df1fbd13fd1574e197402203bcf979f4623a73edae9d44917737fffe1a0f607afe02609f9934ae6216491b401", "034adf97284f67ffa4f85cc1cfc40934a6992ec7603135d77fec88c0eb99880310"], "sequence": 4294967295, "scriptSig": {"hex": "160014a5a639ea22114588cbbce821f434c9956bc0d6f9", "asm": "0014a5a639ea22114588cbbce821f434c9956bc0d6f9"}, "vout": 1, "txid": "30644f4670c62ed77e283d151df8a8cbd4fc40af45c12a9d7c304c9cbc2b1346"}], "txid": "796cf07cad7270d5b39996081d599021177886db0ed697379764e3c1222b4a54", "blocktime": 1537870928, "version": 1, "confirmations": 11512, "time": 1537870928, "locktime": 0, "vsize": 166, "size": 247}