{"hash": "7971e8d98d996b8630b0ae58c0a5ae69bcfbecab5a68eeb14fba9667cea1a7fd", "blockhash": "0000000000000000000e13cef7c366c0283d82e591d1acd082e914b08063cdf1", "vout": [{"scriptPubKey": {"reqSigs": 1, "hex": "a91422fc26a5e8f8f03a992303a10cc0427a7251ce9c87", "addresses": ["34szxpf1tu1j5E4f1EgsSxS6H8KYvTt9jB"], "asm": "OP_HASH160 22fc26a5e8f8f03a992303a10cc0427a7251ce9c OP_EQUAL", "type": "scripthash"}, "value": 0.65, "n": 0}, {"scriptPubKey": {"reqSigs": 1, "hex": "76a914e86d85860dbb2bc6bf813cf58c37e335dd8dc70e88ac", "addresses": ["1NBxyCSSKKSvowktLctQxZiTkUfFm8LbCw"], "asm": "OP_DUP OP_HASH160 e86d85860dbb2bc6bf813cf58c37e335dd8dc70e OP_EQUALVERIFY OP_CHECKSIG", "type": "pubkeyhash"}, "value": 6.04998418, "n": 1}], "hex": "0100000001508707604ed1264b4b829b2f3eb88a64640ab9db56c07590170d8e5e7b6c8580020000006a47304402205fec5f6bb26a621bd92d6c8b6456f16a62cc4a4bf195951539aa49b53cffed20022020113cd2ec68c0eaabca97a1887cf93de5a67258d012ba2c031a063968c1352401210279bd063e93b6a556d5d4c96d26b1749d06801f94e584e429cfa90a8caa700ad0ffffffff0240d2df030000000017a91422fc26a5e8f8f03a992303a10cc0427a7251ce9c87128b0f24000000001976a914e86d85860dbb2bc6bf813cf58c37e335dd8dc70e88ac00000000", "vin": [{"sequence": 4294967295, "scriptSig": {"hex": "47304402205fec5f6bb26a621bd92d6c8b6456f16a62cc4a4bf195951539aa49b53cffed20022020113cd2ec68c0eaabca97a1887cf93de5a67258d012ba2c031a063968c1352401210279bd063e93b6a556d5d4c96d26b1749d06801f94e584e429cfa90a8caa700ad0", "asm": "304402205fec5f6bb26a621bd92d6c8b6456f16a62cc4a4bf195951539aa49b53cffed20022020113cd2ec68c0eaabca97a1887cf93de5a67258d012ba2c031a063968c13524[ALL] 0279bd063e93b6a556d5d4c96d26b1749d06801f94e584e429cfa90a8caa700ad0"}, "vout": 2, "txid": "80856c7b5e8e0d179075c056dbb90a64648ab83e2f9b824b4b26d14e60078750"}], "txid": "7971e8d98d996b8630b0ae58c0a5ae69bcfbecab5a68eeb14fba9667cea1a7fd", "blocktime": 1537871767, "version": 1, "confirmations": 11491, "time": 1537871767, "locktime": 0, "vsize": 223, "size": 223}