{"hash": "7974ff819e252d84b14cff1ecba2c3f2bdfbdbba0796a3916626819e5e904bc2", "blockhash": "00000000000000000004ffacab907a6b429b9a5745fa0b75af4234bf69dd7176", "vout": [{"scriptPubKey": {"reqSigs": 1, "hex": "a91484676a6313bb3bc691d8aa52b70b111d105fd38187", "addresses": ["3Dm71JfkmbrHfQfZAX2dciawbFrZ4Jj7HM"], "asm": "OP_HASH160 84676a6313bb3bc691d8aa52b70b111d105fd381 OP_EQUAL", "type": "scripthash"}, "value": 0.01607, "n": 0}, {"scriptPubKey": {"reqSigs": 1, "hex": "a914e370231feecbfc25e2e2423a5a79bf79bfdca59887", "addresses": ["3NRbeX3vD5VaVE4TDU9ivCDsEf7NPPte6J"], "asm": "OP_HASH160 e370231feecbfc25e2e2423a5a79bf79bfdca598 OP_EQUAL", "type": "scripthash"}, "value": 2.86636299, "n": 1}], "hex": "01000000015ee12381b2e2e4239cb13c9c017befd14f15369f09577fc19e397d4e1d3df87a01000000da00473044022021e80b467792e028938e0b9370b2534081d7c20eeb59506603e96bf50bef46d30220066ae770354c79055652d8ae5bfaadce6fbe62a05ecf325dfa9011f5287581a801483045022100a69de75c3af583bfe7bc4687534711516adad3cbd1d615d39b279a1ffc7eaa4302204d6ab58b196855076a3fceda6129162c7a1b5fc09e761a810d1bf7e6d117cd60014752210327881b6abce6535553a3ce21fad12a7d74fd237ce7c4cd270a267162344e3082210256141f8eb687f5a68c5cc65054652dc25116fa285e44d72b44368827ffe77d9a52aeffffffff02588518000000000017a91484676a6313bb3bc691d8aa52b70b111d105fd381870bb915110000000017a914e370231feecbfc25e2e2423a5a79bf79bfdca5988700000000", "vin": [{"sequence": 4294967295, "scriptSig": {"hex": "00473044022021e80b467792e028938e0b9370b2534081d7c20eeb59506603e96bf50bef46d30220066ae770354c79055652d8ae5bfaadce6fbe62a05ecf325dfa9011f5287581a801483045022100a69de75c3af583bfe7bc4687534711516adad3cbd1d615d39b279a1ffc7eaa4302204d6ab58b196855076a3fceda6129162c7a1b5fc09e761a810d1bf7e6d117cd60014752210327881b6abce6535553a3ce21fad12a7d74fd237ce7c4cd270a267162344e3082210256141f8eb687f5a68c5cc65054652dc25116fa285e44d72b44368827ffe77d9a52ae", "asm": "0 3044022021e80b467792e028938e0b9370b2534081d7c20eeb59506603e96bf50bef46d30220066ae770354c79055652d8ae5bfaadce6fbe62a05ecf325dfa9011f5287581a8[ALL] 3045022100a69de75c3af583bfe7bc4687534711516adad3cbd1d615d39b279a1ffc7eaa4302204d6ab58b196855076a3fceda6129162c7a1b5fc09e761a810d1bf7e6d117cd60[ALL] 52210327881b6abce6535553a3ce21fad12a7d74fd237ce7c4cd270a267162344e3082210256141f8eb687f5a68c5cc65054652dc25116fa285e44d72b44368827ffe77d9a52ae"}, "vout": 1, "txid": "7af83d1d4e7d399ec17f57099f36154fd1ef7b019c3cb19c23e4e2b28123e15e"}], "txid": "7974ff819e252d84b14cff1ecba2c3f2bdfbdbba0796a3916626819e5e904bc2", "blocktime": 1537875543, "version": 1, "confirmations": 11464, "time": 1537875543, "locktime": 0, "vsize": 333, "size": 333}