{"hash": "9d267cb5b456b0e135b0aa2da62236590cf519b61fbc8b77c17fb6de032650b0", "blockhash": "0000000000000000000e13cef7c366c0283d82e591d1acd082e914b08063cdf1", "vout": [{"scriptPubKey": {"reqSigs": 1, "hex": "76a9144be9eed57fe2b4295e7efb7622bf24733ac4324a88ac", "addresses": ["17vPvLL7ZgpXnrMkaUSLrNTu5Wywj25ogu"], "asm": "OP_DUP OP_HASH160 4be9eed57fe2b4295e7efb7622bf24733ac4324a OP_EQUALVERIFY OP_CHECKSIG", "type": "pubkeyhash"}, "value": 0.00148451, "n": 0}, {"scriptPubKey": {"reqSigs": 1, "hex": "a9143bf1d5456a02bd257e86d2fdba60895885c1e68487", "addresses": ["379yVigU3jUoEMaMQbGseEefjxYkRV3YTi"], "asm": "OP_HASH160 3bf1d5456a02bd257e86d2fdba60895885c1e684 OP_EQUAL", "type": "scripthash"}, "value": 0.06176829, "n": 1}], "hex": "010000000001015b1d8f5960fb679b554635b121ff391e6222269084434ee1996400ad022aa1f0010000002322002028fd434738bf9badaa0519897c7aa382a0258abc2949f1ff72e9a8aaa6f758f9ffffffff02e3430200000000001976a9144be9eed57fe2b4295e7efb7622bf24733ac4324a88ac3d405e000000000017a9143bf1d5456a02bd257e86d2fdba60895885c1e6848704004730440220250366bafdc6aa8100fb9a35213d07dcc7b94d446846a0185d78e9cf40d096ed02200a3ab7412265ee606a785a27fafbbb2089c2c66763d3f7402e2666abf641914b01483045022100a0c27093ffcfaa9c0b1af3dcba146d7f75ff889e41520d019d0cce5b77f0719e022048d2961510ad996b0475e10f5e330d5539b8b8f9d4232d46a952b40081b74acc0147522102897f4c688000d442700c3b4a3c54ad40748ea29de09211845b4b0b59bf4ff37d2103529e03d311ceea8716d4fb053336bdedea772622274ae66d6e7248e87518f89952ae00000000", "vin": [{"txinwitness": ["", "30440220250366bafdc6aa8100fb9a35213d07dcc7b94d446846a0185d78e9cf40d096ed02200a3ab7412265ee606a785a27fafbbb2089c2c66763d3f7402e2666abf641914b01", "3045022100a0c27093ffcfaa9c0b1af3dcba146d7f75ff889e41520d019d0cce5b77f0719e022048d2961510ad996b0475e10f5e330d5539b8b8f9d4232d46a952b40081b74acc01", "522102897f4c688000d442700c3b4a3c54ad40748ea29de09211845b4b0b59bf4ff37d2103529e03d311ceea8716d4fb053336bdedea772622274ae66d6e7248e87518f89952ae"], "sequence": 4294967295, "scriptSig": {"hex": "22002028fd434738bf9badaa0519897c7aa382a0258abc2949f1ff72e9a8aaa6f758f9", "asm": "002028fd434738bf9badaa0519897c7aa382a0258abc2949f1ff72e9a8aaa6f758f9"}, "vout": 1, "txid": "f0a12a02ad006499e14e4384902622621e39ff21b13546559b67fb60598f1d5b"}], "txid": "797aa4f5235e5409490988595710cec20922740909d61ac020d6bb345d2aab86", "blocktime": 1537871767, "version": 1, "confirmations": 11495, "time": 1537871767, "locktime": 0, "vsize": 208, "size": 373}