{"hash": "79879566a6f7c535701a3e42f051e2ab55dd695a7d455cd7a294da2a9d008910", "blockhash": "0000000000000000001f0ddff1eddb255c1121bcd4da4f1bc9a0da00cae72433", "vout": [{"scriptPubKey": {"reqSigs": 1, "hex": "76a914e400b87e88f0c17cc2bce2a59952f6325bd3183988ac", "addresses": ["1MnZvp3axeMiGtHJTyrnQKsSN87uth7CgP"], "asm": "OP_DUP OP_HASH160 e400b87e88f0c17cc2bce2a59952f6325bd31839 OP_EQUALVERIFY OP_CHECKSIG", "type": "pubkeyhash"}, "value": 0.0002, "n": 0}, {"scriptPubKey": {"reqSigs": 1, "hex": "76a914f1e4a0c23042cc8fe1b44295b2c87368fe1b1aba88ac", "addresses": ["1P41jafnXX9t3h7NEA2ZJwt9nvWF6VBojE"], "asm": "OP_DUP OP_HASH160 f1e4a0c23042cc8fe1b44295b2c87368fe1b1aba OP_EQUALVERIFY OP_CHECKSIG", "type": "pubkeyhash"}, "value": 0.66138752, "n": 1}, {"scriptPubKey": {"type": "nulldata", "hex": "6a254d4700070489c5df6d3074535262a75f23114fb9b427d3194469a3e772d2d6dd7ecf8002d2", "asm": "OP_RETURN 4d4700070489c5df6d3074535262a75f23114fb9b427d3194469a3e772d2d6dd7ecf8002d2"}, "value": 0.0, "n": 2}], "hex": "0100000001588faa9a6dd16f562b8cc1569611d0b0cf28e2a596c1705271e3df5c27e242f5010000006a47304402201db233c8a4375abb6e79c384296d5fba008aa40734cd445880920a9ce5f3ba7a022063062fcbc7380157f9b4f877cda4defc28bd2088d9e7f0d1e6920f0fc71e667f0121033ff37f08b4aef829d4fd8d9c6e20176af681280342230d036803a3848f41baedffffffff03204e0000000000001976a914e400b87e88f0c17cc2bce2a59952f6325bd3183988ac8032f103000000001976a914f1e4a0c23042cc8fe1b44295b2c87368fe1b1aba88ac0000000000000000276a254d4700070489c5df6d3074535262a75f23114fb9b427d3194469a3e772d2d6dd7ecf8002d200000000", "vin": [{"sequence": 4294967295, "scriptSig": {"hex": "47304402201db233c8a4375abb6e79c384296d5fba008aa40734cd445880920a9ce5f3ba7a022063062fcbc7380157f9b4f877cda4defc28bd2088d9e7f0d1e6920f0fc71e667f0121033ff37f08b4aef829d4fd8d9c6e20176af681280342230d036803a3848f41baed", "asm": "304402201db233c8a4375abb6e79c384296d5fba008aa40734cd445880920a9ce5f3ba7a022063062fcbc7380157f9b4f877cda4defc28bd2088d9e7f0d1e6920f0fc71e667f[ALL] 033ff37f08b4aef829d4fd8d9c6e20176af681280342230d036803a3848f41baed"}, "vout": 1, "txid": "f542e2275cdfe3715270c196a5e228cfb0d0119656c18c2b566fd16d9aaa8f58"}], "txid": "79879566a6f7c535701a3e42f051e2ab55dd695a7d455cd7a294da2a9d008910", "blocktime": 1537872018, "version": 1, "confirmations": 11489, "time": 1537872018, "locktime": 0, "vsize": 273, "size": 273}