{"hash": "7990ba99fcaf6890a603d93f65fde816aff1bf368cbd2a184be466c640826781", "blockhash": "00000000000000000024a2167bbff67b0be802c0b01cdd79e6331c2be6459f87", "vout": [{"scriptPubKey": {"reqSigs": 1, "hex": "76a914c87409fc12b0fec4cd907e1f94f3c6fcba7c53ae88ac", "addresses": ["1KGu9u3ccYKhEhKZbqS9c29Ajt41EPcqVv"], "asm": "OP_DUP OP_HASH160 c87409fc12b0fec4cd907e1f94f3c6fcba7c53ae OP_EQUALVERIFY OP_CHECKSIG", "type": "pubkeyhash"}, "value": 1.00163949, "n": 0}, {"scriptPubKey": {"reqSigs": 1, "hex": "a9147b1e86e76d3f2678990c2a5f84f90db201c1187d87", "addresses": ["3Cv1cBxytN5u1wBHUh5wczMqam2hwQ9HWi"], "asm": "OP_HASH160 7b1e86e76d3f2678990c2a5f84f90db201c1187d OP_EQUAL", "type": "scripthash"}, "value": 1.5, "n": 1}], "hex": "0100000003bfd73fe6b218d2b844c3c86e059e71ce3178c570f296b0d798e390fef67e756c000000006a47304402202f0ff5cbfcce26a04cdd4bbed9416eb4146c5ad34d3de6a9e2d3cd9762c6f33f02203cd2a1b2cd9256aa56c828395bfade181608830e740e1c085526e7bc06a64142012102f0b6f1d37f7527883e50a84eef276143409b91ca61e3b10ce5585a93feffe851ffffffffc927c16641d75a63dc4e7c68df0c75a48ed2a329a9fe9b668c79c1f6622986aa010000006a473044022002d38d2ff11d9b708dadb9e3c697bc426adbc43f7d64fd2ece879bb18b83d1d60220741e37427485aa6e1c7048ca528930135f1bf665eda274d6933e21497b635be0012102771749681a33d15b211a2e6aa0440416bfbe3e1ac14508964a9291e81b45bb42ffffffff79dd405a052ba40970176a0caaf1f87aa68e72c0b6a47662000dacc4516c7eeb000000006a4730440220094dfd5c178416d4aa8cc3869ae4a088732cb2353db5ba6e05b591c7ca40ac270220792d0e4cd3edac8f07e41fbb52185611219c16301f877a9a0e2866922b5fc9350121027dad16aeaadbd8e53502275c79c4af5130f732d36ff1e0d63404b4622c8535b2ffffffff026d61f805000000001976a914c87409fc12b0fec4cd907e1f94f3c6fcba7c53ae88ac80d1f0080000000017a9147b1e86e76d3f2678990c2a5f84f90db201c1187d8700000000", "vin": [{"sequence": 4294967295, "scriptSig": {"hex": "47304402202f0ff5cbfcce26a04cdd4bbed9416eb4146c5ad34d3de6a9e2d3cd9762c6f33f02203cd2a1b2cd9256aa56c828395bfade181608830e740e1c085526e7bc06a64142012102f0b6f1d37f7527883e50a84eef276143409b91ca61e3b10ce5585a93feffe851", "asm": "304402202f0ff5cbfcce26a04cdd4bbed9416eb4146c5ad34d3de6a9e2d3cd9762c6f33f02203cd2a1b2cd9256aa56c828395bfade181608830e740e1c085526e7bc06a64142[ALL] 02f0b6f1d37f7527883e50a84eef276143409b91ca61e3b10ce5585a93feffe851"}, "vout": 0, "txid": "6c757ef6fe90e398d7b096f270c57831ce719e056ec8c344b8d218b2e63fd7bf"}, {"sequence": 4294967295, "scriptSig": {"hex": "473044022002d38d2ff11d9b708dadb9e3c697bc426adbc43f7d64fd2ece879bb18b83d1d60220741e37427485aa6e1c7048ca528930135f1bf665eda274d6933e21497b635be0012102771749681a33d15b211a2e6aa0440416bfbe3e1ac14508964a9291e81b45bb42", "asm": "3044022002d38d2ff11d9b708dadb9e3c697bc426adbc43f7d64fd2ece879bb18b83d1d60220741e37427485aa6e1c7048ca528930135f1bf665eda274d6933e21497b635be0[ALL] 02771749681a33d15b211a2e6aa0440416bfbe3e1ac14508964a9291e81b45bb42"}, "vout": 1, "txid": "aa862962f6c1798c669bfea929a3d28ea4750cdf687c4edc635ad74166c127c9"}, {"sequence": 4294967295, "scriptSig": {"hex": "4730440220094dfd5c178416d4aa8cc3869ae4a088732cb2353db5ba6e05b591c7ca40ac270220792d0e4cd3edac8f07e41fbb52185611219c16301f877a9a0e2866922b5fc9350121027dad16aeaadbd8e53502275c79c4af5130f732d36ff1e0d63404b4622c8535b2", "asm": "30440220094dfd5c178416d4aa8cc3869ae4a088732cb2353db5ba6e05b591c7ca40ac270220792d0e4cd3edac8f07e41fbb52185611219c16301f877a9a0e2866922b5fc935[ALL] 027dad16aeaadbd8e53502275c79c4af5130f732d36ff1e0d63404b4622c8535b2"}, "vout": 0, "txid": "eb7e6c51c4ac0d006276a4b6c0728ea67af8f1aa0c6a177009a42b055a40dd79"}], "txid": "7990ba99fcaf6890a603d93f65fde816aff1bf368cbd2a184be466c640826781", "blocktime": 1537870564, "version": 1, "confirmations": 11515, "time": 1537870564, "locktime": 0, "vsize": 517, "size": 517}