{"hash": "e7b63a614cf7912cc027f33a4bfd12148001b0adf209d57042350571dba0a42f", "blockhash": "00000000000000000018f53835495a110e01622372bf6ae95dc86f2b0ab887b0", "vout": [{"scriptPubKey": {"reqSigs": 1, "hex": "00149dd837148ac390c6874fc2f67e33bcddd33e3d49", "addresses": ["bc1qnhvrw9y2cwgvdp60ctm8uvaumhfnu02fkynsqa"], "asm": "0 9dd837148ac390c6874fc2f67e33bcddd33e3d49", "type": "witness_v0_keyhash"}, "value": 0.37982843, "n": 0}, {"scriptPubKey": {"reqSigs": 1, "hex": "76a914f502a2eef546eaaabda1560fe14521c225f7bee688ac", "addresses": ["1PLViBbzW6ctLJv7DgbFWxdEtc5sjoHJnR"], "asm": "OP_DUP OP_HASH160 f502a2eef546eaaabda1560fe14521c225f7bee6 OP_EQUALVERIFY OP_CHECKSIG", "type": "pubkeyhash"}, "value": 0.02748605, "n": 1}], "hex": "01000000000101c99b165ea59aad3de3b5434f9e64e8629dc5dd11f06ad198b3b08ca683a7686f0100000000ffffffff027b924302000000001600149dd837148ac390c6874fc2f67e33bcddd33e3d49bdf02900000000001976a914f502a2eef546eaaabda1560fe14521c225f7bee688ac0247304402200c0414fffaeffaf2e3adf1f303fc03b0615306b2bc8400ce9f3bc5cb7856085702204585083cd4988c712cad486c3d6041b054ce0e65196a34ba029ab8f028af77b5012102a5178801712e7cfed7899f5552cfe8936a07eef37e4a006ddf9e4f258467264900000000", "vin": [{"txinwitness": ["304402200c0414fffaeffaf2e3adf1f303fc03b0615306b2bc8400ce9f3bc5cb7856085702204585083cd4988c712cad486c3d6041b054ce0e65196a34ba029ab8f028af77b501", "02a5178801712e7cfed7899f5552cfe8936a07eef37e4a006ddf9e4f2584672649"], "sequence": 4294967295, "scriptSig": {"hex": "", "asm": ""}, "vout": 1, "txid": "6f68a783a68cb0b398d16af011ddc59d62e8649e4f43b5e33dad9aa55e169bc9"}], "txid": "799729d55fb31fa6e9275218eef057d6bfa13f0d39cbaf9bb5032a8ca0b4b7c6", "blocktime": 1537870928, "version": 1, "confirmations": 11514, "time": 1537870928, "locktime": 0, "vsize": 144, "size": 225}