{"hash": "799a1fa554cbe84c5a6ffc1cf136026c104b2c5e1092edf0167746cfd77bc171", "blockhash": "00000000000000000017f5eb5941039fbcee6240d03bc1f2f8e35350df66a1d8", "vout": [{"scriptPubKey": {"reqSigs": 1, "hex": "a91455cacb227d1cf8401449c877f5d3fa7d49e72edd87", "addresses": ["39WeJBt1LpEnTFNfePzGmdmVfGkLySYjgM"], "asm": "OP_HASH160 55cacb227d1cf8401449c877f5d3fa7d49e72edd OP_EQUAL", "type": "scripthash"}, "value": 0.00312243, "n": 0}, {"scriptPubKey": {"reqSigs": 1, "hex": "76a914e034179bad6e0341226a56dca95c54d438539b7588ac", "addresses": ["1MSUmQFUz8BXHipnU4vPTEbtXeCxFQXkuj"], "asm": "OP_DUP OP_HASH160 e034179bad6e0341226a56dca95c54d438539b75 OP_EQUALVERIFY OP_CHECKSIG", "type": "pubkeyhash"}, "value": 0.00899423, "n": 1}], "hex": "0100000001eecfd6e991ccc6b4ed662f80d07f056a42b8fb6c8dd1ebe19b0f1c433f56bb86040000006b483045022100bdc537e5d82cd12f1beb680c058d1447d02c26dc01aedd63102e85e3cccde6d302205a35054a9bf29f74a1cc5999266ed1e6b85e0b658a97d9c531b39b14880de79d0121021b26d1644a188541eacd0467efe1f6cd15392f91ba316720a68d67063e610c5cffffffff02b3c304000000000017a91455cacb227d1cf8401449c877f5d3fa7d49e72edd875fb90d00000000001976a914e034179bad6e0341226a56dca95c54d438539b7588ac00000000", "vin": [{"sequence": 4294967295, "scriptSig": {"hex": "483045022100bdc537e5d82cd12f1beb680c058d1447d02c26dc01aedd63102e85e3cccde6d302205a35054a9bf29f74a1cc5999266ed1e6b85e0b658a97d9c531b39b14880de79d0121021b26d1644a188541eacd0467efe1f6cd15392f91ba316720a68d67063e610c5c", "asm": "3045022100bdc537e5d82cd12f1beb680c058d1447d02c26dc01aedd63102e85e3cccde6d302205a35054a9bf29f74a1cc5999266ed1e6b85e0b658a97d9c531b39b14880de79d[ALL] 021b26d1644a188541eacd0467efe1f6cd15392f91ba316720a68d67063e610c5c"}, "vout": 4, "txid": "86bb563f431c0f9be1ebd18d6cfbb8426a057fd0802f66edb4c6cc91e9d6cfee"}], "txid": "799a1fa554cbe84c5a6ffc1cf136026c104b2c5e1092edf0167746cfd77bc171", "blocktime": 1537874412, "version": 1, "confirmations": 11467, "time": 1537874412, "locktime": 0, "vsize": 224, "size": 224}