{"hash": "799a41e68d102c4137982540854d762e26643ff57e0badf0c56df6a670f3810e", "blockhash": "0000000000000000001e0dab787dd257d1dbfcb92a98c2207d5e1078be1f4165", "vout": [{"scriptPubKey": {"reqSigs": 1, "hex": "a9140474e754ca685ff941748a9cb848b9346d01069a87", "addresses": ["326afvD7k5j73Pnc6b9xJSxCbu741snenN"], "asm": "OP_HASH160 0474e754ca685ff941748a9cb848b9346d01069a OP_EQUAL", "type": "scripthash"}, "value": 0.03524785, "n": 0}], "hex": "010000000bd2293a3474c91a044f76d4ad3c7f408f5156ba9698b6bcd0a8fb9f92801e4ce3010000006b4830450221008aef18b4aca0160e93ffa0d741be34bf9744d8cbe2f8f4837da3eded65870afa02205a7e4954f89ede960542cfb77c52fc1b134672cd5db00e3766b7d0f5767b39760121035d41a809c3ff8f1f3508228976edb4a31f7742c59b06d9db18af555b120ac9aeffffffff2f6595f1bd5743991ddebcb54f23888ada926fa9b52f44ef53d68ccd20b7cf82000000006b4830450221009bd4c001c8e17d23dbbefefe7abd5ee134f5dfe75e9ba6a04baa6b03718a79bd0220563c156ec8d8b050241203b16f4612e6724e44a14b30df939b872ebc267efe440121035d41a809c3ff8f1f3508228976edb4a31f7742c59b06d9db18af555b120ac9aeffffffff20920f6db1634bc53f111eff4a7e2b3b73bca881f97a54d441ec532f4b02ef2d000000006a47304402202b9e9623c2ed48d9bf790007a9b6d9d7a40ee36573294ba45a6460e36f60ab970220734b8dba4b70662983e69380e447e9bf7ca43a0ce3d480a61cddc8549c41c21a0121035d41a809c3ff8f1f3508228976edb4a31f7742c59b06d9db18af555b120ac9aeffffffff3d2e90a4f627ccdcbee606a7283fda7b946077f5a2e3b8a50357f36f9c3306ee000000006b483045022100f4eb0f7718dccb7440e2aa780927cb504a64ffeaa399bbff68d3fd03c2b9afa60220627b01b807c5d940a8b4ef95d0f2e7d59932200c04ba9babe71fd3d0a934a5270121035d41a809c3ff8f1f3508228976edb4a31f7742c59b06d9db18af555b120ac9aeffffffff5afc83bfa9071345dcdd873ec388acdeaa2feef06d0af05e3c983dbb0cf7429e000000006b483045022100adfc452101b64df8928e66dc72c95fa300d80e18ccba1db71ea348244297dae102206cd71fd818bfeacd14659feba30b1eeacfa597bf2fbcf875f7246228a07579290121035d41a809c3ff8f1f3508228976edb4a31f7742c59b06d9db18af555b120ac9aeffffffffce5106d1e0f489c0c7f24f5a3ec7fb9c42d4ebe9ffe9395557ea8ec005062ff9000000006a4730440220616f0803cb7b0bb60ae5b88e377ddeea994db7e3c3d1781adedacf085d8ba5ee02201985ca3ba94cb77ca4c6ccb005fe80faf3d5f35fe5652237bb2a0e063c05b59a0121035d41a809c3ff8f1f3508228976edb4a31f7742c59b06d9db18af555b120ac9aeffffffff7d3cf75c59f40e6c711212afdac91556951cf4b86598135a674482ddd4cbc0ce010000006a47304402205f493cedfc7de36f3f9d4634b044425199646efbb203ab46a740c93cf83be01a02205e90c465d113e1005d176f625eb29e3dd16cc07d4165d24e130663de0a57c6d20121035d41a809c3ff8f1f3508228976edb4a31f7742c59b06d9db18af555b120ac9aeffffffff47e2f641f7e977c194447268d1aa7705db25789a7790e67ae71e55b3cf57f2c5000000006a47304402207fcdbc91555753bb7667815d3d72e067aaecec60a40a4ed9d5cdbbcb04618cd102202f323d21dba38db6a74b0dd9a097093e63e6dd44be3c66f6369a6f73df39f3500121035d41a809c3ff8f1f3508228976edb4a31f7742c59b06d9db18af555b120ac9aeffffffff3860d69887fe3d3cee5773d1feeb9a4519c73f51cdd23e40e8bdb14e70124721000000006a4730440220185d56119d375797a0b24bbd499aaddaf0994959a1fa17e898fd1aba6a88bf930220782cea4e345330fc1811a9f4d5938f4108d54c031b3328dba96fa39501010d4b0121035d41a809c3ff8f1f3508228976edb4a31f7742c59b06d9db18af555b120ac9aeffffffff37b69e2fab7fcad1abbf8d37b124f13a41a6e9af80f5e865a8877bda2e93bd0f030000006a473044022067ed3d26688d0acc44e7775e407b5f165fde7e1c56f2dceebc6b486023f6d6df02203507d494908d8dbf605c6a60bdba944e0544063023c68306c94eb2c416a47a970121035d41a809c3ff8f1f3508228976edb4a31f7742c59b06d9db18af555b120ac9aeffffffff548413467572b92b10eb822adebf3085d2800134748bb9ec8ed862d7cc0d4d1d010000006b483045022100b5ef7de5126aee2c141034b8e1a14b12f53641b5fbbb51bda1d90695dced1f940220792e8f0c5daf34a98088964cae37ccc128b2774d3d55a1f17710d660a9bcf762012102de58eca34c33c15d1343cd3d2b920c96599924c0b2294ad8c48d9cf9557030eeffffffff01b1c835000000000017a9140474e754ca685ff941748a9cb848b9346d01069a8700000000", "vin": [{"sequence": 4294967295, "scriptSig": {"hex": "4830450221008aef18b4aca0160e93ffa0d741be34bf9744d8cbe2f8f4837da3eded65870afa02205a7e4954f89ede960542cfb77c52fc1b134672cd5db00e3766b7d0f5767b39760121035d41a809c3ff8f1f3508228976edb4a31f7742c59b06d9db18af555b120ac9ae", "asm": "30450221008aef18b4aca0160e93ffa0d741be34bf9744d8cbe2f8f4837da3eded65870afa02205a7e4954f89ede960542cfb77c52fc1b134672cd5db00e3766b7d0f5767b3976[ALL] 035d41a809c3ff8f1f3508228976edb4a31f7742c59b06d9db18af555b120ac9ae"}, "vout": 1, "txid": "e34c1e80929ffba8d0bcb69896ba56518f407f3cadd4764f041ac974343a29d2"}, {"sequence": 4294967295, "scriptSig": {"hex": "4830450221009bd4c001c8e17d23dbbefefe7abd5ee134f5dfe75e9ba6a04baa6b03718a79bd0220563c156ec8d8b050241203b16f4612e6724e44a14b30df939b872ebc267efe440121035d41a809c3ff8f1f3508228976edb4a31f7742c59b06d9db18af555b120ac9ae", "asm": "30450221009bd4c001c8e17d23dbbefefe7abd5ee134f5dfe75e9ba6a04baa6b03718a79bd0220563c156ec8d8b050241203b16f4612e6724e44a14b30df939b872ebc267efe44[ALL] 035d41a809c3ff8f1f3508228976edb4a31f7742c59b06d9db18af555b120ac9ae"}, "vout": 0, "txid": "82cfb720cd8cd653ef442fb5a96f92da8a88234fb5bcde1d994357bdf195652f"}, {"sequence": 4294967295, "scriptSig": {"hex": "47304402202b9e9623c2ed48d9bf790007a9b6d9d7a40ee36573294ba45a6460e36f60ab970220734b8dba4b70662983e69380e447e9bf7ca43a0ce3d480a61cddc8549c41c21a0121035d41a809c3ff8f1f3508228976edb4a31f7742c59b06d9db18af555b120ac9ae", "asm": "304402202b9e9623c2ed48d9bf790007a9b6d9d7a40ee36573294ba45a6460e36f60ab970220734b8dba4b70662983e69380e447e9bf7ca43a0ce3d480a61cddc8549c41c21a[ALL] 035d41a809c3ff8f1f3508228976edb4a31f7742c59b06d9db18af555b120ac9ae"}, "vout": 0, "txid": "2def024b2f53ec41d4547af981a8bc733b2b7e4aff1e113fc54b63b16d0f9220"}, {"sequence": 4294967295, "scriptSig": {"hex": "483045022100f4eb0f7718dccb7440e2aa780927cb504a64ffeaa399bbff68d3fd03c2b9afa60220627b01b807c5d940a8b4ef95d0f2e7d59932200c04ba9babe71fd3d0a934a5270121035d41a809c3ff8f1f3508228976edb4a31f7742c59b06d9db18af555b120ac9ae", "asm": "3045022100f4eb0f7718dccb7440e2aa780927cb504a64ffeaa399bbff68d3fd03c2b9afa60220627b01b807c5d940a8b4ef95d0f2e7d59932200c04ba9babe71fd3d0a934a527[ALL] 035d41a809c3ff8f1f3508228976edb4a31f7742c59b06d9db18af555b120ac9ae"}, "vout": 0, "txid": "ee06339c6ff35703a5b8e3a2f57760947bda3f28a706e6bedccc27f6a4902e3d"}, {"sequence": 4294967295, "scriptSig": {"hex": "483045022100adfc452101b64df8928e66dc72c95fa300d80e18ccba1db71ea348244297dae102206cd71fd818bfeacd14659feba30b1eeacfa597bf2fbcf875f7246228a07579290121035d41a809c3ff8f1f3508228976edb4a31f7742c59b06d9db18af555b120ac9ae", "asm": "3045022100adfc452101b64df8928e66dc72c95fa300d80e18ccba1db71ea348244297dae102206cd71fd818bfeacd14659feba30b1eeacfa597bf2fbcf875f7246228a0757929[ALL] 035d41a809c3ff8f1f3508228976edb4a31f7742c59b06d9db18af555b120ac9ae"}, "vout": 0, "txid": "9e42f70cbb3d983c5ef00a6df0ee2faadeac88c33e87dddc451307a9bf83fc5a"}, {"sequence": 4294967295, "scriptSig": {"hex": "4730440220616f0803cb7b0bb60ae5b88e377ddeea994db7e3c3d1781adedacf085d8ba5ee02201985ca3ba94cb77ca4c6ccb005fe80faf3d5f35fe5652237bb2a0e063c05b59a0121035d41a809c3ff8f1f3508228976edb4a31f7742c59b06d9db18af555b120ac9ae", "asm": "30440220616f0803cb7b0bb60ae5b88e377ddeea994db7e3c3d1781adedacf085d8ba5ee02201985ca3ba94cb77ca4c6ccb005fe80faf3d5f35fe5652237bb2a0e063c05b59a[ALL] 035d41a809c3ff8f1f3508228976edb4a31f7742c59b06d9db18af555b120ac9ae"}, "vout": 0, "txid": "f92f0605c08eea575539e9ffe9ebd4429cfbc73e5a4ff2c7c089f4e0d10651ce"}, {"sequence": 4294967295, "scriptSig": {"hex": "47304402205f493cedfc7de36f3f9d4634b044425199646efbb203ab46a740c93cf83be01a02205e90c465d113e1005d176f625eb29e3dd16cc07d4165d24e130663de0a57c6d20121035d41a809c3ff8f1f3508228976edb4a31f7742c59b06d9db18af555b120ac9ae", "asm": "304402205f493cedfc7de36f3f9d4634b044425199646efbb203ab46a740c93cf83be01a02205e90c465d113e1005d176f625eb29e3dd16cc07d4165d24e130663de0a57c6d2[ALL] 035d41a809c3ff8f1f3508228976edb4a31f7742c59b06d9db18af555b120ac9ae"}, "vout": 1, "txid": "cec0cbd4dd8244675a139865b8f41c955615c9daaf1212716c0ef4595cf73c7d"}, {"sequence": 4294967295, "scriptSig": {"hex": "47304402207fcdbc91555753bb7667815d3d72e067aaecec60a40a4ed9d5cdbbcb04618cd102202f323d21dba38db6a74b0dd9a097093e63e6dd44be3c66f6369a6f73df39f3500121035d41a809c3ff8f1f3508228976edb4a31f7742c59b06d9db18af555b120ac9ae", "asm": "304402207fcdbc91555753bb7667815d3d72e067aaecec60a40a4ed9d5cdbbcb04618cd102202f323d21dba38db6a74b0dd9a097093e63e6dd44be3c66f6369a6f73df39f350[ALL] 035d41a809c3ff8f1f3508228976edb4a31f7742c59b06d9db18af555b120ac9ae"}, "vout": 0, "txid": "c5f257cfb3551ee77ae690779a7825db0577aad168724494c177e9f741f6e247"}, {"sequence": 4294967295, "scriptSig": {"hex": "4730440220185d56119d375797a0b24bbd499aaddaf0994959a1fa17e898fd1aba6a88bf930220782cea4e345330fc1811a9f4d5938f4108d54c031b3328dba96fa39501010d4b0121035d41a809c3ff8f1f3508228976edb4a31f7742c59b06d9db18af555b120ac9ae", "asm": "30440220185d56119d375797a0b24bbd499aaddaf0994959a1fa17e898fd1aba6a88bf930220782cea4e345330fc1811a9f4d5938f4108d54c031b3328dba96fa39501010d4b[ALL] 035d41a809c3ff8f1f3508228976edb4a31f7742c59b06d9db18af555b120ac9ae"}, "vout": 0, "txid": "214712704eb1bde8403ed2cd513fc719459aebfed17357ee3c3dfe8798d66038"}, {"sequence": 4294967295, "scriptSig": {"hex": "473044022067ed3d26688d0acc44e7775e407b5f165fde7e1c56f2dceebc6b486023f6d6df02203507d494908d8dbf605c6a60bdba944e0544063023c68306c94eb2c416a47a970121035d41a809c3ff8f1f3508228976edb4a31f7742c59b06d9db18af555b120ac9ae", "asm": "3044022067ed3d26688d0acc44e7775e407b5f165fde7e1c56f2dceebc6b486023f6d6df02203507d494908d8dbf605c6a60bdba944e0544063023c68306c94eb2c416a47a97[ALL] 035d41a809c3ff8f1f3508228976edb4a31f7742c59b06d9db18af555b120ac9ae"}, "vout": 3, "txid": "0fbd932eda7b87a865e8f580afe9a6413af124b1378dbfabd1ca7fab2f9eb637"}, {"sequence": 4294967295, "scriptSig": {"hex": "483045022100b5ef7de5126aee2c141034b8e1a14b12f53641b5fbbb51bda1d90695dced1f940220792e8f0c5daf34a98088964cae37ccc128b2774d3d55a1f17710d660a9bcf762012102de58eca34c33c15d1343cd3d2b920c96599924c0b2294ad8c48d9cf9557030ee", "asm": "3045022100b5ef7de5126aee2c141034b8e1a14b12f53641b5fbbb51bda1d90695dced1f940220792e8f0c5daf34a98088964cae37ccc128b2774d3d55a1f17710d660a9bcf762[ALL] 02de58eca34c33c15d1343cd3d2b920c96599924c0b2294ad8c48d9cf9557030ee"}, "vout": 1, "txid": "1d4d0dccd762d88eecb98b74340180d28530bfde2a82eb102bb9727546138454"}], "txid": "799a41e68d102c4137982540854d762e26643ff57e0badf0c56df6a670f3810e", "blocktime": 1537872475, "version": 1, "confirmations": 11486, "time": 1537872475, "locktime": 0, "vsize": 1664, "size": 1664}