{"hash": "62682b1f95b45109552b2145215fc18a12a531af03701c0965317540da1fff99", "blockhash": "00000000000000000004ffacab907a6b429b9a5745fa0b75af4234bf69dd7176", "vout": [{"scriptPubKey": {"reqSigs": 1, "hex": "a914220543ca42ab66ea30557a1a7c8c6f479a52bb2d87", "addresses": ["34nuCsUUSGUZYm3VVVNazhdm8KeYCyGGqF"], "asm": "OP_HASH160 220543ca42ab66ea30557a1a7c8c6f479a52bb2d OP_EQUAL", "type": "scripthash"}, "value": 0.00651961, "n": 0}, {"scriptPubKey": {"reqSigs": 1, "hex": "a914b8159fa3281beafc43a768d23b9203f6a6b9dbc087", "addresses": ["3JUNAGpAwBw9jbJybQ59U7naakBC5kLtU3"], "asm": "OP_HASH160 b8159fa3281beafc43a768d23b9203f6a6b9dbc0 OP_EQUAL", "type": "scripthash"}, "value": 0.005012, "n": 1}], "hex": "01000000000101ef333780231a5d23823b7511e5f18e7225f8d670b9cfdf82081057f52684395e010000002322002053b357750a051cf6be0f6eaccd8c1533c7b23208d1d6db01bbb9a58c987ff900ffffffff02b9f209000000000017a914220543ca42ab66ea30557a1a7c8c6f479a52bb2d87d0a507000000000017a914b8159fa3281beafc43a768d23b9203f6a6b9dbc087040048304502210093ab3a8b97d1fbc10711dae9f574cad09823627ca6ee5ae110c5fdc2e8232f160220057a0de49c9c81d8ee6da0ca14ab6471d74c8efae0640e7538a49657d25918eb0147304402201e1557336d046f09452ee485715a47859639b84656027037fbd8deed3db06f76022040763ba30fac69bc2e6044b321193999ae45302c41169e5d2110a100313ee7710169522102f0912392a67f867022472f3320fcc98ae01e9974a7ed9caa94140b9c1411a29c21022e91f95ac612c24700bc7ed6b8c6068dc68628789ac4a104587f1e436872f3ae2102aa16aca6f1cfb08cc6fc981563c18c3ee8c3cfbe20578757f47efc03fe49592953ae17490800", "vin": [{"txinwitness": ["", "304502210093ab3a8b97d1fbc10711dae9f574cad09823627ca6ee5ae110c5fdc2e8232f160220057a0de49c9c81d8ee6da0ca14ab6471d74c8efae0640e7538a49657d25918eb01", "304402201e1557336d046f09452ee485715a47859639b84656027037fbd8deed3db06f76022040763ba30fac69bc2e6044b321193999ae45302c41169e5d2110a100313ee77101", "522102f0912392a67f867022472f3320fcc98ae01e9974a7ed9caa94140b9c1411a29c21022e91f95ac612c24700bc7ed6b8c6068dc68628789ac4a104587f1e436872f3ae2102aa16aca6f1cfb08cc6fc981563c18c3ee8c3cfbe20578757f47efc03fe49592953ae"], "sequence": 4294967295, "scriptSig": {"hex": "22002053b357750a051cf6be0f6eaccd8c1533c7b23208d1d6db01bbb9a58c987ff900", "asm": "002053b357750a051cf6be0f6eaccd8c1533c7b23208d1d6db01bbb9a58c987ff900"}, "vout": 1, "txid": "5e398426f557100882dfcfb970d6f825728ef1e511753b82235d1a23803733ef"}], "txid": "79a5ae402a29ba580a530ddae0cc796214cacd15a5192a66344f704a79a53202", "blocktime": 1537875543, "version": 1, "confirmations": 11464, "time": 1537875543, "locktime": 542999, "vsize": 214, "size": 405}