{"hash": "a1f041d809355315fc1b7944414fd2a1d51953495da07199df0d19a2445e79c0", "blockhash": "0000000000000000000e13cef7c366c0283d82e591d1acd082e914b08063cdf1", "vout": [{"scriptPubKey": {"reqSigs": 1, "hex": "a9146a539a40fa7c00b5d4d64e434c101e761955e10187", "addresses": ["3BPDhggp3a279m9LaLA9kp2Tw91xd276w1"], "asm": "OP_HASH160 6a539a40fa7c00b5d4d64e434c101e761955e101 OP_EQUAL", "type": "scripthash"}, "value": 0.002, "n": 0}, {"scriptPubKey": {"reqSigs": 1, "hex": "0014f2820a883cde2e227ab4de004cc58942492e8003", "addresses": ["bc1q72pq4zpumchzy745mcqye3vfgfyjaqqrtgr3q7"], "asm": "0 f2820a883cde2e227ab4de004cc58942492e8003", "type": "witness_v0_keyhash"}, "value": 1.462e-05, "n": 1}], "hex": "01000000000101ffcb9bb0194df844b7e45604a956bdfe22d15996abf042fefa0bd6265ccbb3f80a000000171600147eec3a73ed6c5c269745077fae894cb689e87a46ffffffff02400d03000000000017a9146a539a40fa7c00b5d4d64e434c101e761955e10187b605000000000000160014f2820a883cde2e227ab4de004cc58942492e800302483045022100fc5ed8160857750daedd0d52bd42b3e5a8170917929735dc4854270c4152fb1302202ae3ba10e8957e307363b58471bf8466e905a5ba8712056fe8487aac1b43a79c0121030d8a961ab919d6a403d28da57e4ace962a186d4554f61ba0a0945cc5576c9bdc00000000", "vin": [{"txinwitness": ["3045022100fc5ed8160857750daedd0d52bd42b3e5a8170917929735dc4854270c4152fb1302202ae3ba10e8957e307363b58471bf8466e905a5ba8712056fe8487aac1b43a79c01", "030d8a961ab919d6a403d28da57e4ace962a186d4554f61ba0a0945cc5576c9bdc"], "sequence": 4294967295, "scriptSig": {"hex": "1600147eec3a73ed6c5c269745077fae894cb689e87a46", "asm": "00147eec3a73ed6c5c269745077fae894cb689e87a46"}, "vout": 10, "txid": "f8b3cb5c26d60bfafe42f0ab9659d122febd56a90456e4b744f84d19b09bcbff"}], "txid": "79a6ff7431cd063ae359d97a45fa74bd6275f0bacdd654a6e8e371aa1d6516e0", "blocktime": 1537871767, "version": 1, "confirmations": 11495, "time": 1537871767, "locktime": 0, "vsize": 165, "size": 247}