{"hash": "79a9fe913ca554ccbb3c48a458848c452d8b2881e8beebb435bb2e58841e831a", "blockhash": "00000000000000000004ffacab907a6b429b9a5745fa0b75af4234bf69dd7176", "vout": [{"scriptPubKey": {"reqSigs": 1, "hex": "76a914528a069be8ffaa5236a02c07fc617a186009de9b88ac", "addresses": ["18XRkw466GXty4RL6cE3b6ytgB9DUCiE8A"], "asm": "OP_DUP OP_HASH160 528a069be8ffaa5236a02c07fc617a186009de9b OP_EQUALVERIFY OP_CHECKSIG", "type": "pubkeyhash"}, "value": 0.005, "n": 0}, {"scriptPubKey": {"reqSigs": 1, "hex": "76a914514b3e64f0a4f3f1350bd55d020a55124a461b5c88ac", "addresses": ["18QqsZihW8wKvNibLTuit77ybk59FjWFnt"], "asm": "OP_DUP OP_HASH160 514b3e64f0a4f3f1350bd55d020a55124a461b5c OP_EQUALVERIFY OP_CHECKSIG", "type": "pubkeyhash"}, "value": 0.005, "n": 1}, {"scriptPubKey": {"reqSigs": 1, "hex": "76a9144c92496353ac05d7633906ab7e39ebeea657248b88ac", "addresses": ["17ysbkohnGwFZ72WperQLwy2wg6E4sK1iL"], "asm": "OP_DUP OP_HASH160 4c92496353ac05d7633906ab7e39ebeea657248b OP_EQUALVERIFY OP_CHECKSIG", "type": "pubkeyhash"}, "value": 0.005, "n": 2}, {"scriptPubKey": {"reqSigs": 1, "hex": "76a914506c8c909bb9bcf0645c46ee9b38c2cbe508ff6d88ac", "addresses": ["18LF6UCBfBoBRonFDmLZVQBduEAoMywPp1"], "asm": "OP_DUP OP_HASH160 506c8c909bb9bcf0645c46ee9b38c2cbe508ff6d OP_EQUALVERIFY OP_CHECKSIG", "type": "pubkeyhash"}, "value": 0.005, "n": 3}, {"scriptPubKey": {"reqSigs": 1, "hex": "76a914568f24493711f3a6431a2b5a5da2648241889b6988ac", "addresses": ["18tgbAHK7skoVUbrmPvtYytuA9Mv9DkZ81"], "asm": "OP_DUP OP_HASH160 568f24493711f3a6431a2b5a5da2648241889b69 OP_EQUALVERIFY OP_CHECKSIG", "type": "pubkeyhash"}, "value": 0.005, "n": 4}, {"scriptPubKey": {"reqSigs": 1, "hex": "76a9144288ccb377c7fe9b89b4fddd217191789b9815b288ac", "addresses": ["174oUfYfWUTSgpYP8WGB2ScJChz1nDYcmj"], "asm": "OP_DUP OP_HASH160 4288ccb377c7fe9b89b4fddd217191789b9815b2 OP_EQUALVERIFY OP_CHECKSIG", "type": "pubkeyhash"}, "value": 0.00901238, "n": 5}, {"scriptPubKey": {"reqSigs": 1, "hex": "76a9145729b6f356bf93c790ad6cdb1f31c30f4aa1ef8688ac", "addresses": ["18wsm5HsF1aGpAsoSQympRiQm6JYFshCSs"], "asm": "OP_DUP OP_HASH160 5729b6f356bf93c790ad6cdb1f31c30f4aa1ef86 OP_EQUALVERIFY OP_CHECKSIG", "type": "pubkeyhash"}, "value": 0.005, "n": 6}], "hex": "02000000050058e1ff70ed7e7c8edf52b9623142a3857a76dc827b7778fbe102828eed1d25000000006a4730440220492489ea3b5a7b7fd0b2a81e1a4054fd679106777cec8e6fb129ad80315d25d4022057c14c9c3b4f586aa9aae918f4e6e661da47edb7687afe821fcc0492d216416c012102af51bf9eb9457319a6a5c55a9f5616d539e775c7c3601a02e5681e160db8cf61feffffffa2729f0d47d89dfb43b1fc2c93566aa28bde7989c32da0a9258a2a738c72383b000000006a4730440220706d4db2f6d341bb7f1c1a324919dc742e4d70d1ba01529f0e86f692b687b98402200e05f31f7f552c83f1ce2b4b474853e4d6080be195e5b661eda1cbb5c4c96a48012102d1a785117318529d503c020f0fbf8a261e707a246183ce46193f577cc0c5a764feffffffb7ad33cc3ba552348136d3154dd19d51a8c7bd3390da380e3cafd1fa797b7385170100006a473044022062e688aa492eae7b562ee81af52bd414be760c4b42924704230de25ff90f3ee5022010905d09feb33a71f409c6778cf2d2ab75e464073f142823788fc84480276ac4012103b17b32fec63989f10dddd2ddfeb23fab6424dc0837b9db8bffde8a2170a0b448feffffffb7ad33cc3ba552348136d3154dd19d51a8c7bd3390da380e3cafd1fa797b7385680100006b483045022100daaa9c6a3f41fe6d4784123072d44c22806f6338d68f6ba39dbb50fe97ef8ceb02206bc86f24421869f2a1c2bda8b7bee996d84fc9a9413599df3b07242c52a54207012102194610e0f7fd696d55e0ff4e9736a7d809f1335ce56a9c3f7761a565ae12cdcbfeffffffb9a9b9036f956aa7a5d8fc2faaa888f19da3ff57b1528f0b0cf605059950eb69450000006b483045022100a038b016c45805691d47d634b10ed718ac0d9bf0917064b2a5075ecfdcaa922c022056a2779b6f0e92a5f32716af488722ce332fc4abcec6f86223e5e727a65674150121022fb4a89ec5390836b66a6938c1cea6e74bdb5b48fd6b963f9e2fb6287f250d26feffffff0720a10700000000001976a914528a069be8ffaa5236a02c07fc617a186009de9b88ac20a10700000000001976a914514b3e64f0a4f3f1350bd55d020a55124a461b5c88ac20a10700000000001976a9144c92496353ac05d7633906ab7e39ebeea657248b88ac20a10700000000001976a914506c8c909bb9bcf0645c46ee9b38c2cbe508ff6d88ac20a10700000000001976a914568f24493711f3a6431a2b5a5da2648241889b6988ac76c00d00000000001976a9144288ccb377c7fe9b89b4fddd217191789b9815b288ac20a10700000000001976a9145729b6f356bf93c790ad6cdb1f31c30f4aa1ef8688ac16490800", "vin": [{"sequence": 4294967294, "scriptSig": {"hex": "4730440220492489ea3b5a7b7fd0b2a81e1a4054fd679106777cec8e6fb129ad80315d25d4022057c14c9c3b4f586aa9aae918f4e6e661da47edb7687afe821fcc0492d216416c012102af51bf9eb9457319a6a5c55a9f5616d539e775c7c3601a02e5681e160db8cf61", "asm": "30440220492489ea3b5a7b7fd0b2a81e1a4054fd679106777cec8e6fb129ad80315d25d4022057c14c9c3b4f586aa9aae918f4e6e661da47edb7687afe821fcc0492d216416c[ALL] 02af51bf9eb9457319a6a5c55a9f5616d539e775c7c3601a02e5681e160db8cf61"}, "vout": 0, "txid": "251ded8e8202e1fb78777b82dc767a85a3423162b952df8e7c7eed70ffe15800"}, {"sequence": 4294967294, "scriptSig": {"hex": "4730440220706d4db2f6d341bb7f1c1a324919dc742e4d70d1ba01529f0e86f692b687b98402200e05f31f7f552c83f1ce2b4b474853e4d6080be195e5b661eda1cbb5c4c96a48012102d1a785117318529d503c020f0fbf8a261e707a246183ce46193f577cc0c5a764", "asm": "30440220706d4db2f6d341bb7f1c1a324919dc742e4d70d1ba01529f0e86f692b687b98402200e05f31f7f552c83f1ce2b4b474853e4d6080be195e5b661eda1cbb5c4c96a48[ALL] 02d1a785117318529d503c020f0fbf8a261e707a246183ce46193f577cc0c5a764"}, "vout": 0, "txid": "3b38728c732a8a25a9a02dc38979de8ba26a56932cfcb143fb9dd8470d9f72a2"}, {"sequence": 4294967294, "scriptSig": {"hex": "473044022062e688aa492eae7b562ee81af52bd414be760c4b42924704230de25ff90f3ee5022010905d09feb33a71f409c6778cf2d2ab75e464073f142823788fc84480276ac4012103b17b32fec63989f10dddd2ddfeb23fab6424dc0837b9db8bffde8a2170a0b448", "asm": "3044022062e688aa492eae7b562ee81af52bd414be760c4b42924704230de25ff90f3ee5022010905d09feb33a71f409c6778cf2d2ab75e464073f142823788fc84480276ac4[ALL] 03b17b32fec63989f10dddd2ddfeb23fab6424dc0837b9db8bffde8a2170a0b448"}, "vout": 279, "txid": "85737b79fad1af3c0e38da9033bdc7a8519dd14d15d336813452a53bcc33adb7"}, {"sequence": 4294967294, "scriptSig": {"hex": "483045022100daaa9c6a3f41fe6d4784123072d44c22806f6338d68f6ba39dbb50fe97ef8ceb02206bc86f24421869f2a1c2bda8b7bee996d84fc9a9413599df3b07242c52a54207012102194610e0f7fd696d55e0ff4e9736a7d809f1335ce56a9c3f7761a565ae12cdcb", "asm": "3045022100daaa9c6a3f41fe6d4784123072d44c22806f6338d68f6ba39dbb50fe97ef8ceb02206bc86f24421869f2a1c2bda8b7bee996d84fc9a9413599df3b07242c52a54207[ALL] 02194610e0f7fd696d55e0ff4e9736a7d809f1335ce56a9c3f7761a565ae12cdcb"}, "vout": 360, "txid": "85737b79fad1af3c0e38da9033bdc7a8519dd14d15d336813452a53bcc33adb7"}, {"sequence": 4294967294, "scriptSig": {"hex": "483045022100a038b016c45805691d47d634b10ed718ac0d9bf0917064b2a5075ecfdcaa922c022056a2779b6f0e92a5f32716af488722ce332fc4abcec6f86223e5e727a65674150121022fb4a89ec5390836b66a6938c1cea6e74bdb5b48fd6b963f9e2fb6287f250d26", "asm": "3045022100a038b016c45805691d47d634b10ed718ac0d9bf0917064b2a5075ecfdcaa922c022056a2779b6f0e92a5f32716af488722ce332fc4abcec6f86223e5e727a6567415[ALL] 022fb4a89ec5390836b66a6938c1cea6e74bdb5b48fd6b963f9e2fb6287f250d26"}, "vout": 69, "txid": "69eb50990505f60c0b8f52b157ffa39df188a8aa2ffcd8a5a76a956f03b9a9b9"}], "txid": "79a9fe913ca554ccbb3c48a458848c452d8b2881e8beebb435bb2e58841e831a", "blocktime": 1537875543, "version": 2, "confirmations": 11464, "time": 1537875543, "locktime": 542998, "vsize": 985, "size": 985}