{"hash": "79aa783da99ff1b56bae27e4e4b168f42315ad98657ef00bb3a748807fd50812", "blockhash": "0000000000000000001f76057863aec43deb6fa401d9628bb513d65a8098bfab", "vout": [{"scriptPubKey": {"reqSigs": 1, "hex": "76a9140340c8076677b4d62c6c069f040901105c3f03e188ac", "addresses": ["1JCdfV15egRqvBbYki46kcJdT9Dfv94b1"], "asm": "OP_DUP OP_HASH160 0340c8076677b4d62c6c069f040901105c3f03e1 OP_EQUALVERIFY OP_CHECKSIG", "type": "pubkeyhash"}, "value": 0.016, "n": 0}], "hex": "01000000010a98e0c0e7c28361a156409b582e33c489fab2d24c56ef265ff1a83b9406005801000000fdfe0000483045022100cc58a065fedce03657935fe72118e2476f5b82e6e8d246a8c36e9361fe306c0002206da31d82d383cfe0a5a99b7621956de0eff844bdf5b466e450fb3e81038a9289014830450221008f3fe9471e7906086e770fd79f67b4d44bfcbeb9c40913c45c5ad54f5a98a912022013990b107745ad7a9b158d6bf1a754ad830cc9e286e8b396a7f55f48c7ff43a6014c6952210223ec31f72e357d3d22708cf199157b038f623c56c5541814af60fd077caf4b0c210252eff93eab0d72366e87a89de204d6ce086118b1a05b4c212c69d73d875881f42103e64cc972c8ceb57135c95e7d550bc6fd2fd5f038d192fb2fd79701a3abde893e53aeffffffff01006a1800000000001976a9140340c8076677b4d62c6c069f040901105c3f03e188ac00000000", "vin": [{"sequence": 4294967295, "scriptSig": {"hex": "00483045022100cc58a065fedce03657935fe72118e2476f5b82e6e8d246a8c36e9361fe306c0002206da31d82d383cfe0a5a99b7621956de0eff844bdf5b466e450fb3e81038a9289014830450221008f3fe9471e7906086e770fd79f67b4d44bfcbeb9c40913c45c5ad54f5a98a912022013990b107745ad7a9b158d6bf1a754ad830cc9e286e8b396a7f55f48c7ff43a6014c6952210223ec31f72e357d3d22708cf199157b038f623c56c5541814af60fd077caf4b0c210252eff93eab0d72366e87a89de204d6ce086118b1a05b4c212c69d73d875881f42103e64cc972c8ceb57135c95e7d550bc6fd2fd5f038d192fb2fd79701a3abde893e53ae", "asm": "0 3045022100cc58a065fedce03657935fe72118e2476f5b82e6e8d246a8c36e9361fe306c0002206da31d82d383cfe0a5a99b7621956de0eff844bdf5b466e450fb3e81038a9289[ALL] 30450221008f3fe9471e7906086e770fd79f67b4d44bfcbeb9c40913c45c5ad54f5a98a912022013990b107745ad7a9b158d6bf1a754ad830cc9e286e8b396a7f55f48c7ff43a6[ALL] 52210223ec31f72e357d3d22708cf199157b038f623c56c5541814af60fd077caf4b0c210252eff93eab0d72366e87a89de204d6ce086118b1a05b4c212c69d73d875881f42103e64cc972c8ceb57135c95e7d550bc6fd2fd5f038d192fb2fd79701a3abde893e53ae"}, "vout": 1, "txid": "580006943ba8f15f26ef564cd2b2fa89c4332e589b4056a16183c2e7c0e0980a"}], "txid": "79aa783da99ff1b56bae27e4e4b168f42315ad98657ef00bb3a748807fd50812", "blocktime": 1537873891, "version": 1, "confirmations": 11475, "time": 1537873891, "locktime": 0, "vsize": 341, "size": 341}