{"hash": "79ab63032d57792866dd5da62609dc43aa654fc9d0d9a3e0a1e853b19deb12b3", "blockhash": "00000000000000000017f5eb5941039fbcee6240d03bc1f2f8e35350df66a1d8", "vout": [{"scriptPubKey": {"reqSigs": 1, "hex": "76a914b62802dfa52d14520f41642f97fe86e8fec3761588ac", "addresses": ["1Hc9uwdBc9Q63XYgXZbHSBTLPNmK15YcA9"], "asm": "OP_DUP OP_HASH160 b62802dfa52d14520f41642f97fe86e8fec37615 OP_EQUALVERIFY OP_CHECKSIG", "type": "pubkeyhash"}, "value": 0.02247019, "n": 0}, {"scriptPubKey": {"reqSigs": 1, "hex": "76a914788743d1684104a78fad568a3b512ac7e8c1c0c588ac", "addresses": ["1BzJ8Pf8AP3cLPTydtpgABhEncnZomPoGQ"], "asm": "OP_DUP OP_HASH160 788743d1684104a78fad568a3b512ac7e8c1c0c5 OP_EQUALVERIFY OP_CHECKSIG", "type": "pubkeyhash"}, "value": 0.02374945, "n": 1}], "hex": "0100000012ebca81eb17b6877e07586bdb159eb116ba55031482f6c9eae16113f26d33e325000000006b483045022100f62ed5edeb7880a9ae944dddcb447b5f1076cbd4d5d24b0e0dfc0833c6f139e002205acb4e8a3e8f6fd5bd4e64c277891e9a33ba0b37dbb94c2deacb8e6b3b903d0701210357e55cb3388204c3e837a715d65aa70b84b4f0c925206c7f998ca289bb9779c6fdffffffee971d5baf468ab2a9af2dc4b49a5f0cfdf3b80a31b2281b9bac7821d467f72a000000006a473044022075ff6759dda0111e79e0aa9e1b13f54f2369a286702afb0811ff11805f17bd940220524bbf3e3b1d9ec3118015c0b5407dec75c7dd549911ed0d06f09769a31409e801210357e55cb3388204c3e837a715d65aa70b84b4f0c925206c7f998ca289bb9779c6fdffffffac93ca143210d094c6477eafc08c6867d6f3396c2b8f0243ed52552694f0fa2a010000006b483045022100c0d97cc9dc3e2528c73bc7ad64c385175f6d4f4c6dadf35082fa270daf24c5a8022016ff93e9c5c20e531d638e1bd07678637047de59e71be44f18b03bf167e0aa3601210357e55cb3388204c3e837a715d65aa70b84b4f0c925206c7f998ca289bb9779c6fdffffff1a5abe328fbe6c00ac3b7af281df3e0aea77b379028e2c67f393bf0a569cc331010000006b483045022100911d877557fcffeae5269b714714dcda9ae55a72ebd33e610d163b315f729492022075f68fbaf9d4a1704c5e4bebe90821ef251d7a067dd59622295095ff81c37a8901210357e55cb3388204c3e837a715d65aa70b84b4f0c925206c7f998ca289bb9779c6fdfffffffa3f1d970b5e9cbf3ace119c436959ad65f0e81ad7fdd7574e424b4af00d1140010000006a4730440220770eb4e98ab70c6bd393b45b2e4b89bc6d247d750abc05a77181936766c7769f02207ed5e6b48f1a40daad4acf85b708de78991910ddbf099ab87d4ca29294b0763601210357e55cb3388204c3e837a715d65aa70b84b4f0c925206c7f998ca289bb9779c6fdffffffd91e880bdd2f5fb81558d0031cce8650a2240f517af3c9b2440e38a0769bb447010000006b4830450221009a4343598252054e14755a6f44c701b878223e8749e65b8fb193671d3602e5f80220450ca922a93e5db207909133dfd9924f31a7738090747145b1fd8e8ab20b9b9401210357e55cb3388204c3e837a715d65aa70b84b4f0c925206c7f998ca289bb9779c6fdffffffc241c8b49c77228fb24f3096c93ec531a25390c3af09e27752f79df02ed19949000000006b483045022100c35c0f3ae7e880c2fa5865f9e3cd328b41b3e9ceb23e671620653faf337d306d02201905ab19bdec921cbf3f84279507711049e15a66ce66fec809f599231fc3a61401210357e55cb3388204c3e837a715d65aa70b84b4f0c925206c7f998ca289bb9779c6fdffffff40292b7e8b7ca2cc8b61577b97f3501d6023b6092b3468b4f6f52d0d50ec274c000000006a4730440220515d5be5788dabd38f814f9831f9895ceb8d82068347c52ad93a708ef6df2a9b02202ea6d38bddc149a93d095b9da1cc4b1887160d5f6e895f79aec0881a9d4f48a601210357e55cb3388204c3e837a715d65aa70b84b4f0c925206c7f998ca289bb9779c6fdffffff2072e7f4435a495632a9c050d6230305020826ef72238d5bd6995c9204a03972010000006b483045022100905f8aa56eeec5ef35edc057685853ab078a320d1cc3903d3b7b45494ab15a5002201ade9e00f1a032d6ede7cb0b6fbfb13e2554f7b9fc645ec6a5915be70f12265601210357e55cb3388204c3e837a715d65aa70b84b4f0c925206c7f998ca289bb9779c6fdffffff879f4a801da425a4901c994da40a5527c129f0d32e8c1e922f48dd3d8a614781010000006b483045022100e7140882972cfa554f197e57d5462451f1307adecebc9e79caec95ebf4adf1aa022061bc44ab9134864f67276234fd011bccbed6311e866c10862528db74e0fa344501210357e55cb3388204c3e837a715d65aa70b84b4f0c925206c7f998ca289bb9779c6fdffffff1bf46673c87877ef2c6a09fbf005fb9cd27d4062d2a5e7b194de197e26e30e87000000006b4830450221008dbe220f7ca46610a288664ab68b83f1c18de1547f3a0f6b5a3f0d130f71c0d102204f7ca125be850b9e5f5985f11b3812681568e17e9319ca76a5ce4579881fc37c01210357e55cb3388204c3e837a715d65aa70b84b4f0c925206c7f998ca289bb9779c6fdffffffde639958fcfad16edd00b57731ec51516304352b833d4fb03c027b3318519699000000006b483045022100d41dd9c3282ed76f7ec39d0137a936a2f0ca238813c18881740331124dcb0a4f02206a728b2dcbaa7e094115080e7f8880a257294092edaad3c99c17a693f06aed6101210357e55cb3388204c3e837a715d65aa70b84b4f0c925206c7f998ca289bb9779c6fdffffff9ef94d022107bfff3ff45e099ceafea229cd5240db8a0777af8c1e61a9f8409d000000006a473044022004c3ec4637ffc76e4701ba2855a6be036d2d1db9c3668fb7b5f0081cb52805e602206ed2c13426b5811ce3022a725d26e3785c16750b8b03604c46cfe166f5aa69ec01210357e55cb3388204c3e837a715d65aa70b84b4f0c925206c7f998ca289bb9779c6fdffffff90addb7f5269a5410f7c078eccf848398c897eb7f88acaa2a6e2c82b2e9e67bb000000006b483045022100a19231f35041ef1e43538cbdbb3d8be83318629a8f3365886365b63a1e0e91db02205fa1ab7df4d373e0bb57281585557e5f1b4c72c164cf0c9335c8b0145545d7c501210357e55cb3388204c3e837a715d65aa70b84b4f0c925206c7f998ca289bb9779c6fdffffff9db7d72583f45d82016543eca84c00b3677d4b32b1bac0557f7019a8ed5accc0010000006a47304402204d74e55931cf2e5d1b0a4e7649a701105eeeb0d454d5524dddb857c18032127b02203f82aef81e821b9051fda38132a9c9c312acbf0f453eacb79cddff6585c13f9c01210357e55cb3388204c3e837a715d65aa70b84b4f0c925206c7f998ca289bb9779c6fdffffffec6d57ba444c5910247e367604f3c071d080192a76cb829a6bd330d9d9975ccc000000006a4730440220080fef4382d0ea9a814e76e1d1d1c9abddc1594d2f2f0f978c1a0e73f486cb37022041d04057b8e82f9cdefc14bbfb94c79cf2d7600e77b09900711d16cba3ffc82101210357e55cb3388204c3e837a715d65aa70b84b4f0c925206c7f998ca289bb9779c6fdffffff829c0e966f180f0dbc64da051f6f7178b9c5aa27dd548751cd692183688cd6cc000000006b4830450221009ad9599e7f926b16a154159fb062fbb83c8f0fbd56423d9110dc07ce0f9918bf02204823d5287c3f588a26cf1e8a3ae155fac39d5bfb62d3bd05062a8bd8bb32ba8b01210357e55cb3388204c3e837a715d65aa70b84b4f0c925206c7f998ca289bb9779c6fdffffff9686f72a4c269608799ce8e2381f5587cd28fa427e32e9e88dee5d020fe9d1db010000006b483045022100c3a6aa32e9b12b3f921c1ddf90f9cd61ed6bff49134c127273e833ebbd78d09e022064077b20a02efb537f2af5a63abdd0fd756aa2ae4e2acec0565d57a596f9dc7701210357e55cb3388204c3e837a715d65aa70b84b4f0c925206c7f998ca289bb9779c6fdffffff026b492200000000001976a914b62802dfa52d14520f41642f97fe86e8fec3761588ac213d2400000000001976a914788743d1684104a78fad568a3b512ac7e8c1c0c588ac00000000", "vin": [{"sequence": 4294967293, "scriptSig": {"hex": "483045022100f62ed5edeb7880a9ae944dddcb447b5f1076cbd4d5d24b0e0dfc0833c6f139e002205acb4e8a3e8f6fd5bd4e64c277891e9a33ba0b37dbb94c2deacb8e6b3b903d0701210357e55cb3388204c3e837a715d65aa70b84b4f0c925206c7f998ca289bb9779c6", "asm": "3045022100f62ed5edeb7880a9ae944dddcb447b5f1076cbd4d5d24b0e0dfc0833c6f139e002205acb4e8a3e8f6fd5bd4e64c277891e9a33ba0b37dbb94c2deacb8e6b3b903d07[ALL] 0357e55cb3388204c3e837a715d65aa70b84b4f0c925206c7f998ca289bb9779c6"}, "vout": 0, "txid": "25e3336df21361e1eac9f682140355ba16b19e15db6b58077e87b617eb81caeb"}, {"sequence": 4294967293, "scriptSig": {"hex": "473044022075ff6759dda0111e79e0aa9e1b13f54f2369a286702afb0811ff11805f17bd940220524bbf3e3b1d9ec3118015c0b5407dec75c7dd549911ed0d06f09769a31409e801210357e55cb3388204c3e837a715d65aa70b84b4f0c925206c7f998ca289bb9779c6", "asm": "3044022075ff6759dda0111e79e0aa9e1b13f54f2369a286702afb0811ff11805f17bd940220524bbf3e3b1d9ec3118015c0b5407dec75c7dd549911ed0d06f09769a31409e8[ALL] 0357e55cb3388204c3e837a715d65aa70b84b4f0c925206c7f998ca289bb9779c6"}, "vout": 0, "txid": "2af767d42178ac9b1b28b2310ab8f3fd0c5f9ab4c42dafa9b28a46af5b1d97ee"}, {"sequence": 4294967293, "scriptSig": {"hex": "483045022100c0d97cc9dc3e2528c73bc7ad64c385175f6d4f4c6dadf35082fa270daf24c5a8022016ff93e9c5c20e531d638e1bd07678637047de59e71be44f18b03bf167e0aa3601210357e55cb3388204c3e837a715d65aa70b84b4f0c925206c7f998ca289bb9779c6", "asm": "3045022100c0d97cc9dc3e2528c73bc7ad64c385175f6d4f4c6dadf35082fa270daf24c5a8022016ff93e9c5c20e531d638e1bd07678637047de59e71be44f18b03bf167e0aa36[ALL] 0357e55cb3388204c3e837a715d65aa70b84b4f0c925206c7f998ca289bb9779c6"}, "vout": 1, "txid": "2afaf094265552ed43028f2b6c39f3d667688cc0af7e47c694d0103214ca93ac"}, {"sequence": 4294967293, "scriptSig": {"hex": "483045022100911d877557fcffeae5269b714714dcda9ae55a72ebd33e610d163b315f729492022075f68fbaf9d4a1704c5e4bebe90821ef251d7a067dd59622295095ff81c37a8901210357e55cb3388204c3e837a715d65aa70b84b4f0c925206c7f998ca289bb9779c6", "asm": "3045022100911d877557fcffeae5269b714714dcda9ae55a72ebd33e610d163b315f729492022075f68fbaf9d4a1704c5e4bebe90821ef251d7a067dd59622295095ff81c37a89[ALL] 0357e55cb3388204c3e837a715d65aa70b84b4f0c925206c7f998ca289bb9779c6"}, "vout": 1, "txid": "31c39c560abf93f3672c8e0279b377ea0a3edf81f27a3bac006cbe8f32be5a1a"}, {"sequence": 4294967293, "scriptSig": {"hex": "4730440220770eb4e98ab70c6bd393b45b2e4b89bc6d247d750abc05a77181936766c7769f02207ed5e6b48f1a40daad4acf85b708de78991910ddbf099ab87d4ca29294b0763601210357e55cb3388204c3e837a715d65aa70b84b4f0c925206c7f998ca289bb9779c6", "asm": "30440220770eb4e98ab70c6bd393b45b2e4b89bc6d247d750abc05a77181936766c7769f02207ed5e6b48f1a40daad4acf85b708de78991910ddbf099ab87d4ca29294b07636[ALL] 0357e55cb3388204c3e837a715d65aa70b84b4f0c925206c7f998ca289bb9779c6"}, "vout": 1, "txid": "40110df04a4b424e57d7fdd71ae8f065ad5969439c11ce3abf9c5e0b971d3ffa"}, {"sequence": 4294967293, "scriptSig": {"hex": "4830450221009a4343598252054e14755a6f44c701b878223e8749e65b8fb193671d3602e5f80220450ca922a93e5db207909133dfd9924f31a7738090747145b1fd8e8ab20b9b9401210357e55cb3388204c3e837a715d65aa70b84b4f0c925206c7f998ca289bb9779c6", "asm": "30450221009a4343598252054e14755a6f44c701b878223e8749e65b8fb193671d3602e5f80220450ca922a93e5db207909133dfd9924f31a7738090747145b1fd8e8ab20b9b94[ALL] 0357e55cb3388204c3e837a715d65aa70b84b4f0c925206c7f998ca289bb9779c6"}, "vout": 1, "txid": "47b49b76a0380e44b2c9f37a510f24a25086ce1c03d05815b85f2fdd0b881ed9"}, {"sequence": 4294967293, "scriptSig": {"hex": "483045022100c35c0f3ae7e880c2fa5865f9e3cd328b41b3e9ceb23e671620653faf337d306d02201905ab19bdec921cbf3f84279507711049e15a66ce66fec809f599231fc3a61401210357e55cb3388204c3e837a715d65aa70b84b4f0c925206c7f998ca289bb9779c6", "asm": "3045022100c35c0f3ae7e880c2fa5865f9e3cd328b41b3e9ceb23e671620653faf337d306d02201905ab19bdec921cbf3f84279507711049e15a66ce66fec809f599231fc3a614[ALL] 0357e55cb3388204c3e837a715d65aa70b84b4f0c925206c7f998ca289bb9779c6"}, "vout": 0, "txid": "4999d12ef09df75277e209afc39053a231c53ec996304fb28f22779cb4c841c2"}, {"sequence": 4294967293, "scriptSig": {"hex": "4730440220515d5be5788dabd38f814f9831f9895ceb8d82068347c52ad93a708ef6df2a9b02202ea6d38bddc149a93d095b9da1cc4b1887160d5f6e895f79aec0881a9d4f48a601210357e55cb3388204c3e837a715d65aa70b84b4f0c925206c7f998ca289bb9779c6", "asm": "30440220515d5be5788dabd38f814f9831f9895ceb8d82068347c52ad93a708ef6df2a9b02202ea6d38bddc149a93d095b9da1cc4b1887160d5f6e895f79aec0881a9d4f48a6[ALL] 0357e55cb3388204c3e837a715d65aa70b84b4f0c925206c7f998ca289bb9779c6"}, "vout": 0, "txid": "4c27ec500d2df5f6b468342b09b623601d50f3977b57618bcca27c8b7e2b2940"}, {"sequence": 4294967293, "scriptSig": {"hex": "483045022100905f8aa56eeec5ef35edc057685853ab078a320d1cc3903d3b7b45494ab15a5002201ade9e00f1a032d6ede7cb0b6fbfb13e2554f7b9fc645ec6a5915be70f12265601210357e55cb3388204c3e837a715d65aa70b84b4f0c925206c7f998ca289bb9779c6", "asm": "3045022100905f8aa56eeec5ef35edc057685853ab078a320d1cc3903d3b7b45494ab15a5002201ade9e00f1a032d6ede7cb0b6fbfb13e2554f7b9fc645ec6a5915be70f122656[ALL] 0357e55cb3388204c3e837a715d65aa70b84b4f0c925206c7f998ca289bb9779c6"}, "vout": 1, "txid": "7239a004925c99d65b8d2372ef260802050323d650c0a93256495a43f4e77220"}, {"sequence": 4294967293, "scriptSig": {"hex": "483045022100e7140882972cfa554f197e57d5462451f1307adecebc9e79caec95ebf4adf1aa022061bc44ab9134864f67276234fd011bccbed6311e866c10862528db74e0fa344501210357e55cb3388204c3e837a715d65aa70b84b4f0c925206c7f998ca289bb9779c6", "asm": "3045022100e7140882972cfa554f197e57d5462451f1307adecebc9e79caec95ebf4adf1aa022061bc44ab9134864f67276234fd011bccbed6311e866c10862528db74e0fa3445[ALL] 0357e55cb3388204c3e837a715d65aa70b84b4f0c925206c7f998ca289bb9779c6"}, "vout": 1, "txid": "8147618a3ddd482f921e8c2ed3f029c127550aa44d991c90a425a41d804a9f87"}, {"sequence": 4294967293, "scriptSig": {"hex": "4830450221008dbe220f7ca46610a288664ab68b83f1c18de1547f3a0f6b5a3f0d130f71c0d102204f7ca125be850b9e5f5985f11b3812681568e17e9319ca76a5ce4579881fc37c01210357e55cb3388204c3e837a715d65aa70b84b4f0c925206c7f998ca289bb9779c6", "asm": "30450221008dbe220f7ca46610a288664ab68b83f1c18de1547f3a0f6b5a3f0d130f71c0d102204f7ca125be850b9e5f5985f11b3812681568e17e9319ca76a5ce4579881fc37c[ALL] 0357e55cb3388204c3e837a715d65aa70b84b4f0c925206c7f998ca289bb9779c6"}, "vout": 0, "txid": "870ee3267e19de94b1e7a5d262407dd29cfb05f0fb096a2cef7778c87366f41b"}, {"sequence": 4294967293, "scriptSig": {"hex": "483045022100d41dd9c3282ed76f7ec39d0137a936a2f0ca238813c18881740331124dcb0a4f02206a728b2dcbaa7e094115080e7f8880a257294092edaad3c99c17a693f06aed6101210357e55cb3388204c3e837a715d65aa70b84b4f0c925206c7f998ca289bb9779c6", "asm": "3045022100d41dd9c3282ed76f7ec39d0137a936a2f0ca238813c18881740331124dcb0a4f02206a728b2dcbaa7e094115080e7f8880a257294092edaad3c99c17a693f06aed61[ALL] 0357e55cb3388204c3e837a715d65aa70b84b4f0c925206c7f998ca289bb9779c6"}, "vout": 0, "txid": "99965118337b023cb04f3d832b3504635151ec3177b500dd6ed1fafc589963de"}, {"sequence": 4294967293, "scriptSig": {"hex": "473044022004c3ec4637ffc76e4701ba2855a6be036d2d1db9c3668fb7b5f0081cb52805e602206ed2c13426b5811ce3022a725d26e3785c16750b8b03604c46cfe166f5aa69ec01210357e55cb3388204c3e837a715d65aa70b84b4f0c925206c7f998ca289bb9779c6", "asm": "3044022004c3ec4637ffc76e4701ba2855a6be036d2d1db9c3668fb7b5f0081cb52805e602206ed2c13426b5811ce3022a725d26e3785c16750b8b03604c46cfe166f5aa69ec[ALL] 0357e55cb3388204c3e837a715d65aa70b84b4f0c925206c7f998ca289bb9779c6"}, "vout": 0, "txid": "9d40f8a9611e8caf77078adb4052cd29a2feea9c095ef43fffbf0721024df99e"}, {"sequence": 4294967293, "scriptSig": {"hex": "483045022100a19231f35041ef1e43538cbdbb3d8be83318629a8f3365886365b63a1e0e91db02205fa1ab7df4d373e0bb57281585557e5f1b4c72c164cf0c9335c8b0145545d7c501210357e55cb3388204c3e837a715d65aa70b84b4f0c925206c7f998ca289bb9779c6", "asm": "3045022100a19231f35041ef1e43538cbdbb3d8be83318629a8f3365886365b63a1e0e91db02205fa1ab7df4d373e0bb57281585557e5f1b4c72c164cf0c9335c8b0145545d7c5[ALL] 0357e55cb3388204c3e837a715d65aa70b84b4f0c925206c7f998ca289bb9779c6"}, "vout": 0, "txid": "bb679e2e2bc8e2a6a2ca8af8b77e898c3948f8cc8e077c0f41a569527fdbad90"}, {"sequence": 4294967293, "scriptSig": {"hex": "47304402204d74e55931cf2e5d1b0a4e7649a701105eeeb0d454d5524dddb857c18032127b02203f82aef81e821b9051fda38132a9c9c312acbf0f453eacb79cddff6585c13f9c01210357e55cb3388204c3e837a715d65aa70b84b4f0c925206c7f998ca289bb9779c6", "asm": "304402204d74e55931cf2e5d1b0a4e7649a701105eeeb0d454d5524dddb857c18032127b02203f82aef81e821b9051fda38132a9c9c312acbf0f453eacb79cddff6585c13f9c[ALL] 0357e55cb3388204c3e837a715d65aa70b84b4f0c925206c7f998ca289bb9779c6"}, "vout": 1, "txid": "c0cc5aeda819707f55c0bab1324b7d67b3004ca8ec436501825df48325d7b79d"}, {"sequence": 4294967293, "scriptSig": {"hex": "4730440220080fef4382d0ea9a814e76e1d1d1c9abddc1594d2f2f0f978c1a0e73f486cb37022041d04057b8e82f9cdefc14bbfb94c79cf2d7600e77b09900711d16cba3ffc82101210357e55cb3388204c3e837a715d65aa70b84b4f0c925206c7f998ca289bb9779c6", "asm": "30440220080fef4382d0ea9a814e76e1d1d1c9abddc1594d2f2f0f978c1a0e73f486cb37022041d04057b8e82f9cdefc14bbfb94c79cf2d7600e77b09900711d16cba3ffc821[ALL] 0357e55cb3388204c3e837a715d65aa70b84b4f0c925206c7f998ca289bb9779c6"}, "vout": 0, "txid": "cc5c97d9d930d36b9a82cb762a1980d071c0f30476367e2410594c44ba576dec"}, {"sequence": 4294967293, "scriptSig": {"hex": "4830450221009ad9599e7f926b16a154159fb062fbb83c8f0fbd56423d9110dc07ce0f9918bf02204823d5287c3f588a26cf1e8a3ae155fac39d5bfb62d3bd05062a8bd8bb32ba8b01210357e55cb3388204c3e837a715d65aa70b84b4f0c925206c7f998ca289bb9779c6", "asm": "30450221009ad9599e7f926b16a154159fb062fbb83c8f0fbd56423d9110dc07ce0f9918bf02204823d5287c3f588a26cf1e8a3ae155fac39d5bfb62d3bd05062a8bd8bb32ba8b[ALL] 0357e55cb3388204c3e837a715d65aa70b84b4f0c925206c7f998ca289bb9779c6"}, "vout": 0, "txid": "ccd68c68832169cd518754dd27aac5b978716f1f05da64bc0d0f186f960e9c82"}, {"sequence": 4294967293, "scriptSig": {"hex": "483045022100c3a6aa32e9b12b3f921c1ddf90f9cd61ed6bff49134c127273e833ebbd78d09e022064077b20a02efb537f2af5a63abdd0fd756aa2ae4e2acec0565d57a596f9dc7701210357e55cb3388204c3e837a715d65aa70b84b4f0c925206c7f998ca289bb9779c6", "asm": "3045022100c3a6aa32e9b12b3f921c1ddf90f9cd61ed6bff49134c127273e833ebbd78d09e022064077b20a02efb537f2af5a63abdd0fd756aa2ae4e2acec0565d57a596f9dc77[ALL] 0357e55cb3388204c3e837a715d65aa70b84b4f0c925206c7f998ca289bb9779c6"}, "vout": 1, "txid": "dbd1e90f025dee8de8e9327e42fa28cd87551f38e2e89c790896264c2af78696"}], "txid": "79ab63032d57792866dd5da62609dc43aa654fc9d0d9a3e0a1e853b19deb12b3", "blocktime": 1537874412, "version": 1, "confirmations": 11468, "time": 1537874412, "locktime": 0, "vsize": 2736, "size": 2736}