{"hash": "79b0bf2f71d0fd51d5f8da8f00e81a5ecb69345e04f62baa81be44f0010107ca", "blockhash": "00000000000000000017f5eb5941039fbcee6240d03bc1f2f8e35350df66a1d8", "vout": [{"scriptPubKey": {"reqSigs": 1, "hex": "76a91442be35a3ca0d4139632db3bba8c1883a5d5e6faa88ac", "addresses": ["175uTejstw8yuS6uZVvVj9DbYjLUdsAgwU"], "asm": "OP_DUP OP_HASH160 42be35a3ca0d4139632db3bba8c1883a5d5e6faa OP_EQUALVERIFY OP_CHECKSIG", "type": "pubkeyhash"}, "value": 0.08941023, "n": 0}, {"scriptPubKey": {"reqSigs": 1, "hex": "76a9140b005c7718bfb5b92d2ec2f6a5437f63ce1ed75788ac", "addresses": ["121AsCxhk4gmUwt6VxEnpvRc6RFScFewzQ"], "asm": "OP_DUP OP_HASH160 0b005c7718bfb5b92d2ec2f6a5437f63ce1ed757 OP_EQUALVERIFY OP_CHECKSIG", "type": "pubkeyhash"}, "value": 14.0, "n": 1}], "hex": "0100000002b25c3777a16a4cd0636b2a5c5c9951cc9c6bf7a70f10a5dbc077f010c5f7c9cd000000006a4730440220361cbc8e85f4a2a87b048e86917ff1d0f51f9b28f38ed1490f7bcd629a196b290220216f3369d9691820a377bc471fe64660ac29f0b3d011e41c288e78bff0bb7384012102b39c7d9f890ebbe3e3c9fed05a566672833ef5927ef26101d7cd5b74e8f4ce0fffffffff550cb2de73ebd31569e8f46c8b58f99c0ac0cf92a979bffce91a5bdb35ff42fc160000006b483045022100963002e0272724ddc9a0728f4606632e085c7d6ee4989afce37f1e6f482b7e4602206df63708ef8db3cba02104aa9dc2466b93fe3c8c888f476ea9668c4333ff42b40121028791064bf2193a1b780dc49431c11239897cf10f9d8d5d0bf025dfda4f206229ffffffff02df6d8800000000001976a91442be35a3ca0d4139632db3bba8c1883a5d5e6faa88ac004e7253000000001976a9140b005c7718bfb5b92d2ec2f6a5437f63ce1ed75788ac00000000", "vin": [{"sequence": 4294967295, "scriptSig": {"hex": "4730440220361cbc8e85f4a2a87b048e86917ff1d0f51f9b28f38ed1490f7bcd629a196b290220216f3369d9691820a377bc471fe64660ac29f0b3d011e41c288e78bff0bb7384012102b39c7d9f890ebbe3e3c9fed05a566672833ef5927ef26101d7cd5b74e8f4ce0f", "asm": "30440220361cbc8e85f4a2a87b048e86917ff1d0f51f9b28f38ed1490f7bcd629a196b290220216f3369d9691820a377bc471fe64660ac29f0b3d011e41c288e78bff0bb7384[ALL] 02b39c7d9f890ebbe3e3c9fed05a566672833ef5927ef26101d7cd5b74e8f4ce0f"}, "vout": 0, "txid": "cdc9f7c510f077c0dba5100fa7f76b9ccc51995c5c2a6b63d04c6aa177375cb2"}, {"sequence": 4294967295, "scriptSig": {"hex": "483045022100963002e0272724ddc9a0728f4606632e085c7d6ee4989afce37f1e6f482b7e4602206df63708ef8db3cba02104aa9dc2466b93fe3c8c888f476ea9668c4333ff42b40121028791064bf2193a1b780dc49431c11239897cf10f9d8d5d0bf025dfda4f206229", "asm": "3045022100963002e0272724ddc9a0728f4606632e085c7d6ee4989afce37f1e6f482b7e4602206df63708ef8db3cba02104aa9dc2466b93fe3c8c888f476ea9668c4333ff42b4[ALL] 028791064bf2193a1b780dc49431c11239897cf10f9d8d5d0bf025dfda4f206229"}, "vout": 22, "txid": "fc42ff35db5b1ae9fcbf79a992cfc00a9cf9588b6cf4e86915d3eb73deb20c55"}], "txid": "79b0bf2f71d0fd51d5f8da8f00e81a5ecb69345e04f62baa81be44f0010107ca", "blocktime": 1537874412, "version": 1, "confirmations": 11467, "time": 1537874412, "locktime": 0, "vsize": 373, "size": 373}