{"hash": "79b768a8165bcfb8ba70b6816e3f189d817431cdbb20d39f6e029ffb0d5edf74", "blockhash": "00000000000000000024a2167bbff67b0be802c0b01cdd79e6331c2be6459f87", "vout": [{"scriptPubKey": {"reqSigs": 1, "hex": "76a914d9e8c61cb7826c5545e7c7fcfe0daa0248c46f6488ac", "addresses": ["1LsCV3JHqXpZDKXk8D2nznNBGmQoTZB1Sz"], "asm": "OP_DUP OP_HASH160 d9e8c61cb7826c5545e7c7fcfe0daa0248c46f64 OP_EQUALVERIFY OP_CHECKSIG", "type": "pubkeyhash"}, "value": 0.0016588, "n": 0}], "hex": "0100000002f0f39598cac9345f703ea30e1771e3bcb85fae3c18b40a73c3cca61a3e1c8c43000000006a4730440220735fdaee001ce5f1eb498dbff3f6494135923e654d65927d7a8253876c1b9231022055dc185ac24eae409f047ff09e9ec1e43e853d46080936b1b43e1548df494e46012103c63d833d13fca23467943573a4d94bfa108fa59e6f15fe01db1b67a9f7e8c30fffffffff0341632872b241da6f326bd66af0c2d9ae2e859a3da7a1ac19b22082d97526d9000000006a473044022023ea0e75f15db1fb5bc9162c13a761fcd4c8cf4814dd7b04c81ee050f07a11ec02200e414485fa1024cd669c64ddc7167e94e1dec21aa682426eff9be6a1f247a72f012102ce26830ae9466eaa33325e74eb6ab0882f560a33368255ebe3d7dabab8beea17ffffffff01f8870200000000001976a914d9e8c61cb7826c5545e7c7fcfe0daa0248c46f6488ac00000000", "vin": [{"sequence": 4294967295, "scriptSig": {"hex": "4730440220735fdaee001ce5f1eb498dbff3f6494135923e654d65927d7a8253876c1b9231022055dc185ac24eae409f047ff09e9ec1e43e853d46080936b1b43e1548df494e46012103c63d833d13fca23467943573a4d94bfa108fa59e6f15fe01db1b67a9f7e8c30f", "asm": "30440220735fdaee001ce5f1eb498dbff3f6494135923e654d65927d7a8253876c1b9231022055dc185ac24eae409f047ff09e9ec1e43e853d46080936b1b43e1548df494e46[ALL] 03c63d833d13fca23467943573a4d94bfa108fa59e6f15fe01db1b67a9f7e8c30f"}, "vout": 0, "txid": "438c1c3e1aa6ccc3730ab4183cae5fb8bce371170ea33e705f34c9ca9895f3f0"}, {"sequence": 4294967295, "scriptSig": {"hex": "473044022023ea0e75f15db1fb5bc9162c13a761fcd4c8cf4814dd7b04c81ee050f07a11ec02200e414485fa1024cd669c64ddc7167e94e1dec21aa682426eff9be6a1f247a72f012102ce26830ae9466eaa33325e74eb6ab0882f560a33368255ebe3d7dabab8beea17", "asm": "3044022023ea0e75f15db1fb5bc9162c13a761fcd4c8cf4814dd7b04c81ee050f07a11ec02200e414485fa1024cd669c64ddc7167e94e1dec21aa682426eff9be6a1f247a72f[ALL] 02ce26830ae9466eaa33325e74eb6ab0882f560a33368255ebe3d7dabab8beea17"}, "vout": 0, "txid": "d92675d98220b219aca1a73d9a852eaed9c2f06ad66b326fda41b27228634103"}], "txid": "79b768a8165bcfb8ba70b6816e3f189d817431cdbb20d39f6e029ffb0d5edf74", "blocktime": 1537870564, "version": 1, "confirmations": 11515, "time": 1537870564, "locktime": 0, "vsize": 338, "size": 338}