{"hash": "6fa07fb29c9ed64f389dbc6f111a9d107b3727372398ddd0b7e8b7f00c46d9fe", "blockhash": "0000000000000000001e0dab787dd257d1dbfcb92a98c2207d5e1078be1f4165", "vout": [{"scriptPubKey": {"reqSigs": 1, "hex": "a91478047b66b1a6c76a4d26c53ea01364bc554625b987", "addresses": ["3CdcNyqMH4NtZphVhbBHj1PDNEfGgN45kb"], "asm": "OP_HASH160 78047b66b1a6c76a4d26c53ea01364bc554625b9 OP_EQUAL", "type": "scripthash"}, "value": 0.005204, "n": 0}, {"scriptPubKey": {"reqSigs": 1, "hex": "a91408a10dc13729797782ab32151ec05e73bcd14ae787", "addresses": ["32UeGHe5EoEqZZ5TojaWVNKLMRBqwDjaX4"], "asm": "OP_HASH160 08a10dc13729797782ab32151ec05e73bcd14ae7 OP_EQUAL", "type": "scripthash"}, "value": 0.235009, "n": 1}], "hex": "01000000000101ca31904eb71c96e63ee87985338c8848ceebc640a550eda68e43d14e04e2bcd40000000023220020fea097ce378753d305ad003544f9b3ea60ab491625592f001d999bbef3441881ffffffff02d0f007000000000017a91478047b66b1a6c76a4d26c53ea01364bc554625b987649866010000000017a91408a10dc13729797782ab32151ec05e73bcd14ae78704004730440220085994f7f965968577dfde19b1a2b38477d34aa3f3511a7c901e34b238581c0702200dcf41f101da758226ba76660ec8714e85a50746cfc1ece66f1be972483c2f6b01473044022038a4bb2e7671d115fb9ecbaf8a8a202679a295593d3f106ad9a0a40a64e2e0ac0220733aa4ce539447f6aa0cd447d13bbd8d4d57d16541986ce5d9d94fff53eec8010169522102d8d2ce7a7c90cfd5d84f20847c1a5d5dced20f25df9cb73ce1a935761f7ff1cc21030e40de9830c87474118c3e23cf8d0c2c656ef757e39342ef852ae77d7371459b2102d9176451e083883d8e59957e629ea420a691296d2c298838206664195d9ab32853ae00000000", "vin": [{"txinwitness": ["", "30440220085994f7f965968577dfde19b1a2b38477d34aa3f3511a7c901e34b238581c0702200dcf41f101da758226ba76660ec8714e85a50746cfc1ece66f1be972483c2f6b01", "3044022038a4bb2e7671d115fb9ecbaf8a8a202679a295593d3f106ad9a0a40a64e2e0ac0220733aa4ce539447f6aa0cd447d13bbd8d4d57d16541986ce5d9d94fff53eec80101", "522102d8d2ce7a7c90cfd5d84f20847c1a5d5dced20f25df9cb73ce1a935761f7ff1cc21030e40de9830c87474118c3e23cf8d0c2c656ef757e39342ef852ae77d7371459b2102d9176451e083883d8e59957e629ea420a691296d2c298838206664195d9ab32853ae"], "sequence": 4294967295, "scriptSig": {"hex": "220020fea097ce378753d305ad003544f9b3ea60ab491625592f001d999bbef3441881", "asm": "0020fea097ce378753d305ad003544f9b3ea60ab491625592f001d999bbef3441881"}, "vout": 0, "txid": "d4bce2044ed1438ea6ed50a540c6ebce48888c338579e83ee6961cb74e9031ca"}], "txid": "79bcbf24d60bb9b2492446bd62275092f8bb1a0f67e5bd679d5d1938465f3a18", "blocktime": 1537872475, "version": 1, "confirmations": 11487, "time": 1537872475, "locktime": 0, "vsize": 214, "size": 404}