{"hash": "79c4fb504f4e41ca3c3e7fa7553ad2017f2edf14d5cc167777b947259cafcbb3", "blockhash": "0000000000000000001e0dab787dd257d1dbfcb92a98c2207d5e1078be1f4165", "vout": [{"scriptPubKey": {"reqSigs": 1, "hex": "a914a99dda4c45b2fe845e54252255e352ef6c941cb087", "addresses": ["3H9sDmCJiBXWdGKmJcegnqZ29Jhy5mjd7u"], "asm": "OP_HASH160 a99dda4c45b2fe845e54252255e352ef6c941cb0 OP_EQUAL", "type": "scripthash"}, "value": 0.009, "n": 0}, {"scriptPubKey": {"reqSigs": 1, "hex": "76a9148b1f70948a2e4b8a6df7b9204e5805ec4ee96e9c88ac", "addresses": ["1Dgcb8zEeUY8shksBZad1MiT6rvY7sid24"], "asm": "OP_DUP OP_HASH160 8b1f70948a2e4b8a6df7b9204e5805ec4ee96e9c OP_EQUALVERIFY OP_CHECKSIG", "type": "pubkeyhash"}, "value": 0.00016387, "n": 1}], "hex": "0200000001309f9cc977fc89dfa3ee0be7a9218415e406d058c3277f1a91adfba05a9357f4a90000006b483045022100a273ef594d2f07ba705e2e89b9f49bbb0b0f4f55d19ca134a1b4a3c4586811d2022020cd14c4e0e6e8368efe24ccc462b302c7e923602e7a05c378c43628f03fa74c012102bcd4e9c18a8036f76ad3350fe97325f96ce1a4667cdd9dc73f738eaa906a604efeffffff02a0bb0d000000000017a914a99dda4c45b2fe845e54252255e352ef6c941cb08703400000000000001976a9148b1f70948a2e4b8a6df7b9204e5805ec4ee96e9c88ac12490800", "vin": [{"sequence": 4294967294, "scriptSig": {"hex": "483045022100a273ef594d2f07ba705e2e89b9f49bbb0b0f4f55d19ca134a1b4a3c4586811d2022020cd14c4e0e6e8368efe24ccc462b302c7e923602e7a05c378c43628f03fa74c012102bcd4e9c18a8036f76ad3350fe97325f96ce1a4667cdd9dc73f738eaa906a604e", "asm": "3045022100a273ef594d2f07ba705e2e89b9f49bbb0b0f4f55d19ca134a1b4a3c4586811d2022020cd14c4e0e6e8368efe24ccc462b302c7e923602e7a05c378c43628f03fa74c[ALL] 02bcd4e9c18a8036f76ad3350fe97325f96ce1a4667cdd9dc73f738eaa906a604e"}, "vout": 169, "txid": "f457935aa0fbad911a7f27c358d006e4158421a9e70beea3df89fc77c99c9f30"}], "txid": "79c4fb504f4e41ca3c3e7fa7553ad2017f2edf14d5cc167777b947259cafcbb3", "blocktime": 1537872475, "version": 2, "confirmations": 11488, "time": 1537872475, "locktime": 542994, "vsize": 224, "size": 224}