{"hash": "79c5ffa3ad1038f42ebe6cf4c83e793c7a6920b5ded3707c5588dcae81d2e723", "blockhash": "0000000000000000000baef3f32e3676a92c3b2e5da21b426e4f302fc371ce76", "vout": [{"scriptPubKey": {"reqSigs": 1, "hex": "a914ab82e036a1f3865ecf896fc46e7d9736d115aead87", "addresses": ["3HKtFkyr44qXwjufLcwSnmiuvSQcSZ1N8T"], "asm": "OP_HASH160 ab82e036a1f3865ecf896fc46e7d9736d115aead OP_EQUAL", "type": "scripthash"}, "value": 0.24300952, "n": 0}], "hex": "01000000113559c3d08ea910ad8e2b3dc3b32f0909fe7dd4a367ec0b9038538b44caea8314000000006b48304502210090ba3ad2619da288a6c900d6331ab20b73d40232205fa008fd8229a3459a4b080220248d87b0e3dc3722f0283ca98d0e0e2809d663cd9cfa64059551106005cafbf0012102a4d482a2d622fc9fa55b07a78f8bd9fe4a2e6330ea97428dbf40f34e98c7447dfdffffffc4a1c05949f4a772950f2d4562260e5959497647ae40ae5b3878447ee1614719010000006b483045022100ea87f7767790caaf5677e9de46b3cb7e307575d42875577662d988f0dbdf5aa50220641edf76a2d694ad28510b0359265d44b314370323fa3901e0dd345e6eb707eb012102ac9437bddfe4449afbb8fdcd5b96aa4f94dcba63b70b8c246fefcc4e999c34b1fdffffffd835f7e7607899693ffb9a135a7f319829308b128212b21d34e08e64daa2de34000000006a473044022036fab9754f1061a302b793927ae6f080ae8935b40ec920b6792abb7e44cd0c6d0220449846ec6d4029fc5aa8e8e2f89bde2d95e9c39a40657b7743837fff589756f3012102f0ac8008a3918b48db3f4891a472756a6267385f683ab0057920cd4df4f4a676fdffffffcfba911599d791664a82f4f170ac5eb6d511db79e12196f6d067a90d4624bb36010000006b483045022100ad38127a782359a2df1bd51f94165b272ba94654099dc73abd2cebb99abf939802206505a422ebf1ce6cc20134773b6f1c6118d164af203f6ca4af1a5338b07154930121027038b4a9662a8e49a822046335b5fc7053b71380fb1290bac9cc7077762fa859fdffffff7a2138c961e2aebfc8c15cc3174dcf748860079f7d046050e425d822e48b8e37010000006b483045022100be3b84ce856170e9d7459d387fee7958b1e11e22c60f1dc2add23c77d03fe3b702201f5377394bdbb5c5d5d9e92161c398590eb4a1d8e30320b7244e88f97087df640121020198031cb0bfa54be53b084e2dcd34d8b511d3f0531dcdc7e95d43e86b765bd3fdffffff949cbac4658394f07f92e9c5185ab3309da8bcedca7a8080e4cfcd37658d923a000000006b483045022100d8cabce381cba117911af2a890d9d8844bfd273a2714fa956ec4528de6ce239402202ed4bd5f69daa0f61de56ebfa9f089812888dac33ee3f47a0eab6ebdf548de87012102b264592b8c67b91d05a1af17179955629f59db5d4de41723d0ced2cfb1d2a16bfdffffff3dc1984e214303f80b355d61ab66684d0ab5fa30b514f4c9e964a8b93b64ff3d010000006a47304402205093e8fec819e9abfdd68f0749fcfac11fa7d108ab6365c47c8779c3156f46cc02203743b51cdaff566e77d1116183475c21cbe00ea6bb21f9dc454eca0866e8a0db01210347c38277e2ecc860e9b76f96191d37f472a30f8dbf9e5d3fbb22e6d8442c53a3fdffffffaf7d5fec9f3661684d1002a726240a6e3f53801f736bd0160b01ee41fe051a43010000006a4730440220699e1ccfc6cae305e0e5b458de94645652ed96e208331ec9d07c92be0db0234102204f7e70f6a27525640b773cb2d035f32564c433ab094bfe72e8b27fc8baceab45012102cfe164968a36e5db349c6b9c2121cbb2c9b0518b9e6b27e488a0b15b24912706fdffffffccb8df0c2cf0eb67f2bf5c05ffea307b141f9df9b1c43e80a20647341a831a6a010000006b483045022100e0dc4001a57af6dffb6a6311d27a1d1ca37a9440348c615b7900d6d8f08c402a022079fbf74bb95e089c86744cae2ca2a121dd56d3645532eac31d6b8237757ee3a2012103453f9991e6ceb40f295f52c390fe825ff445aef81aae8087d797b66c7d295253fdffffffdb5696429c129a3ec5b9b3e17af4ce86f39403015029f7c5ea5905c3f5b2c06e010000006b48304502210084e89040e0d55ed6975719e7416ac4b240103b553fd44cec4229ef1ab811120102200d03235ac1db5e6a8e16aa759533a25c7945b84a3520dc53ccffa113c6c9f03c0121027174f804d4741e1853bbd749901846251c84996f1845a01883874385ee8379adfdffffff2b3051a393d278b1c0eca119e47fc7c3a9cff2090ae6f4134aeced69e2e75db1010000006a47304402200744d467fff1a3df5b053f0a6acf99083e1038a9ed5f7676ac841075cc788b8302205c69c0706387ea23fee36eeccb47745d9d0ec6ae3666a947ac84b525c6b298e5012103fc2a17949f7ab5e797e16a29c051bb2e212b90aea2a6a47a17a972771d45ace0fdffffff614a6c6b23b2b11975da34f4c72c4fbd6f5709545be49111dd932b9c5f2b3cb6000000006b483045022100828528061e933370eee039721c238f33a2bf3ee3e2a9c8d0b0faeb00f51ac0fd0220641b26e9a75174375b64dbb55f4ba2a476ebbc81ecaa5e505494de537faaec160121037225420577b5a2b1c59375edfa3a6f6cab9798650e5a48602edb20b6599dded0fdffffffa9a577a945d7c998090e30f658772a542b5598a7bff9ed6c6cbdd724c5b4aeba000000006a47304402204dac68545ef764b6e9958087378b3a5492334cedd7ae6f2ae8d9e5cb3123e3f6022069cebf16ef9e09b8ea39e2d7f6e340b44fa72628a1172c320293fae79db36f88012103aea6ce3415fb4289818deb0d58e7470d56f5dc201ea7a150738ce42757835a10fdffffff267c71f289358ee4fab01ad7d1e7adac02fd55d373562c0cdf42863cdb746ec2010000006b483045022100ec43f368e2cfa778e0f13edb3e0e8f4efdd0b5080b3625305d106f37070645210220786c4652c05e4c12b6d3107fabda000292612c8fe7a7f4e5179ce9fb1577c6060121036a3aa2b6272a46ed5f774deb540e5f771791f01ccce452ec258fcb858ddbab6bfdffffff4912d1be3881822d637b298deec720d4b4827e8c7ab850c7081e6c8a5cb820f6010000006a47304402201d7b0835297cfd345315965a914a8ccc0953af9ec6038579bca1416c1971876f02204d942fa631ee37e1fe030804ff99696136307af431d3bd4b0e9d688a9c07e754012103b02431caa69310df67b0baa642f5717b901a4b7af382165e5d81a195bb439e10fdffffff28984ae7bc41aed8183c7e36128dfecc4832cc722fb53659e41a1ea3d75c9ff6010000006b483045022100c6139decfa9704d94e1c3ced68741449e60a1d349c69de2c2afce9276646ba79022040500bac7b2ca38c3efee4dd8110a0bf9ec5bd168c6557567469f5829f4e070d012103431e4d54a635082f138881f2511bf4cde132be74f0215fb6f939061133181fecfdffffffab5135cd3c673a94c3a175b6c0eb9c69cf8ab57479d0b2076b7e4388a9211cfb010000006a473044022079d6fb5bab2891d114f126a56eeaa9ddfb3fd4e19c2cd4542425e4ab6fee4f1e022070f486edbf34b7303b3efbbf5267364dda514446182f1380ef7717d9a087b2050121027dfe8dde4bfcdcb3f59f459cf39eb12e35e516c822bb437d3f7b95543761fb70fdffffff0198cd72010000000017a914ab82e036a1f3865ecf896fc46e7d9736d115aead8717490800", "vin": [{"sequence": 4294967293, "scriptSig": {"hex": "48304502210090ba3ad2619da288a6c900d6331ab20b73d40232205fa008fd8229a3459a4b080220248d87b0e3dc3722f0283ca98d0e0e2809d663cd9cfa64059551106005cafbf0012102a4d482a2d622fc9fa55b07a78f8bd9fe4a2e6330ea97428dbf40f34e98c7447d", "asm": "304502210090ba3ad2619da288a6c900d6331ab20b73d40232205fa008fd8229a3459a4b080220248d87b0e3dc3722f0283ca98d0e0e2809d663cd9cfa64059551106005cafbf0[ALL] 02a4d482a2d622fc9fa55b07a78f8bd9fe4a2e6330ea97428dbf40f34e98c7447d"}, "vout": 0, "txid": "1483eaca448b5338900bec67a3d47dfe09092fb3c33d2b8ead10a98ed0c35935"}, {"sequence": 4294967293, "scriptSig": {"hex": "483045022100ea87f7767790caaf5677e9de46b3cb7e307575d42875577662d988f0dbdf5aa50220641edf76a2d694ad28510b0359265d44b314370323fa3901e0dd345e6eb707eb012102ac9437bddfe4449afbb8fdcd5b96aa4f94dcba63b70b8c246fefcc4e999c34b1", "asm": "3045022100ea87f7767790caaf5677e9de46b3cb7e307575d42875577662d988f0dbdf5aa50220641edf76a2d694ad28510b0359265d44b314370323fa3901e0dd345e6eb707eb[ALL] 02ac9437bddfe4449afbb8fdcd5b96aa4f94dcba63b70b8c246fefcc4e999c34b1"}, "vout": 1, "txid": "194761e17e4478385bae40ae47764959590e2662452d0f9572a7f44959c0a1c4"}, {"sequence": 4294967293, "scriptSig": {"hex": "473044022036fab9754f1061a302b793927ae6f080ae8935b40ec920b6792abb7e44cd0c6d0220449846ec6d4029fc5aa8e8e2f89bde2d95e9c39a40657b7743837fff589756f3012102f0ac8008a3918b48db3f4891a472756a6267385f683ab0057920cd4df4f4a676", "asm": "3044022036fab9754f1061a302b793927ae6f080ae8935b40ec920b6792abb7e44cd0c6d0220449846ec6d4029fc5aa8e8e2f89bde2d95e9c39a40657b7743837fff589756f3[ALL] 02f0ac8008a3918b48db3f4891a472756a6267385f683ab0057920cd4df4f4a676"}, "vout": 0, "txid": "34dea2da648ee0341db21282128b302998317f5a139afb3f69997860e7f735d8"}, {"sequence": 4294967293, "scriptSig": {"hex": "483045022100ad38127a782359a2df1bd51f94165b272ba94654099dc73abd2cebb99abf939802206505a422ebf1ce6cc20134773b6f1c6118d164af203f6ca4af1a5338b07154930121027038b4a9662a8e49a822046335b5fc7053b71380fb1290bac9cc7077762fa859", "asm": "3045022100ad38127a782359a2df1bd51f94165b272ba94654099dc73abd2cebb99abf939802206505a422ebf1ce6cc20134773b6f1c6118d164af203f6ca4af1a5338b0715493[ALL] 027038b4a9662a8e49a822046335b5fc7053b71380fb1290bac9cc7077762fa859"}, "vout": 1, "txid": "36bb24460da967d0f69621e179db11d5b65eac70f1f4824a6691d7991591bacf"}, {"sequence": 4294967293, "scriptSig": {"hex": "483045022100be3b84ce856170e9d7459d387fee7958b1e11e22c60f1dc2add23c77d03fe3b702201f5377394bdbb5c5d5d9e92161c398590eb4a1d8e30320b7244e88f97087df640121020198031cb0bfa54be53b084e2dcd34d8b511d3f0531dcdc7e95d43e86b765bd3", "asm": "3045022100be3b84ce856170e9d7459d387fee7958b1e11e22c60f1dc2add23c77d03fe3b702201f5377394bdbb5c5d5d9e92161c398590eb4a1d8e30320b7244e88f97087df64[ALL] 020198031cb0bfa54be53b084e2dcd34d8b511d3f0531dcdc7e95d43e86b765bd3"}, "vout": 1, "txid": "378e8be422d825e45060047d9f07608874cf4d17c35cc1c8bfaee261c938217a"}, {"sequence": 4294967293, "scriptSig": {"hex": "483045022100d8cabce381cba117911af2a890d9d8844bfd273a2714fa956ec4528de6ce239402202ed4bd5f69daa0f61de56ebfa9f089812888dac33ee3f47a0eab6ebdf548de87012102b264592b8c67b91d05a1af17179955629f59db5d4de41723d0ced2cfb1d2a16b", "asm": "3045022100d8cabce381cba117911af2a890d9d8844bfd273a2714fa956ec4528de6ce239402202ed4bd5f69daa0f61de56ebfa9f089812888dac33ee3f47a0eab6ebdf548de87[ALL] 02b264592b8c67b91d05a1af17179955629f59db5d4de41723d0ced2cfb1d2a16b"}, "vout": 0, "txid": "3a928d6537cdcfe480807acaedbca89d30b35a18c5e9927ff0948365c4ba9c94"}, {"sequence": 4294967293, "scriptSig": {"hex": "47304402205093e8fec819e9abfdd68f0749fcfac11fa7d108ab6365c47c8779c3156f46cc02203743b51cdaff566e77d1116183475c21cbe00ea6bb21f9dc454eca0866e8a0db01210347c38277e2ecc860e9b76f96191d37f472a30f8dbf9e5d3fbb22e6d8442c53a3", "asm": "304402205093e8fec819e9abfdd68f0749fcfac11fa7d108ab6365c47c8779c3156f46cc02203743b51cdaff566e77d1116183475c21cbe00ea6bb21f9dc454eca0866e8a0db[ALL] 0347c38277e2ecc860e9b76f96191d37f472a30f8dbf9e5d3fbb22e6d8442c53a3"}, "vout": 1, "txid": "3dff643bb9a864e9c9f414b530fab50a4d6866ab615d350bf80343214e98c13d"}, {"sequence": 4294967293, "scriptSig": {"hex": "4730440220699e1ccfc6cae305e0e5b458de94645652ed96e208331ec9d07c92be0db0234102204f7e70f6a27525640b773cb2d035f32564c433ab094bfe72e8b27fc8baceab45012102cfe164968a36e5db349c6b9c2121cbb2c9b0518b9e6b27e488a0b15b24912706", "asm": "30440220699e1ccfc6cae305e0e5b458de94645652ed96e208331ec9d07c92be0db0234102204f7e70f6a27525640b773cb2d035f32564c433ab094bfe72e8b27fc8baceab45[ALL] 02cfe164968a36e5db349c6b9c2121cbb2c9b0518b9e6b27e488a0b15b24912706"}, "vout": 1, "txid": "431a05fe41ee010b16d06b731f80533f6e0a2426a702104d6861369fec5f7daf"}, {"sequence": 4294967293, "scriptSig": {"hex": "483045022100e0dc4001a57af6dffb6a6311d27a1d1ca37a9440348c615b7900d6d8f08c402a022079fbf74bb95e089c86744cae2ca2a121dd56d3645532eac31d6b8237757ee3a2012103453f9991e6ceb40f295f52c390fe825ff445aef81aae8087d797b66c7d295253", "asm": "3045022100e0dc4001a57af6dffb6a6311d27a1d1ca37a9440348c615b7900d6d8f08c402a022079fbf74bb95e089c86744cae2ca2a121dd56d3645532eac31d6b8237757ee3a2[ALL] 03453f9991e6ceb40f295f52c390fe825ff445aef81aae8087d797b66c7d295253"}, "vout": 1, "txid": "6a1a831a344706a2803ec4b1f99d1f147b30eaff055cbff267ebf02c0cdfb8cc"}, {"sequence": 4294967293, "scriptSig": {"hex": "48304502210084e89040e0d55ed6975719e7416ac4b240103b553fd44cec4229ef1ab811120102200d03235ac1db5e6a8e16aa759533a25c7945b84a3520dc53ccffa113c6c9f03c0121027174f804d4741e1853bbd749901846251c84996f1845a01883874385ee8379ad", "asm": "304502210084e89040e0d55ed6975719e7416ac4b240103b553fd44cec4229ef1ab811120102200d03235ac1db5e6a8e16aa759533a25c7945b84a3520dc53ccffa113c6c9f03c[ALL] 027174f804d4741e1853bbd749901846251c84996f1845a01883874385ee8379ad"}, "vout": 1, "txid": "6ec0b2f5c30559eac5f72950010394f386cef47ae1b3b9c53e9a129c429656db"}, {"sequence": 4294967293, "scriptSig": {"hex": "47304402200744d467fff1a3df5b053f0a6acf99083e1038a9ed5f7676ac841075cc788b8302205c69c0706387ea23fee36eeccb47745d9d0ec6ae3666a947ac84b525c6b298e5012103fc2a17949f7ab5e797e16a29c051bb2e212b90aea2a6a47a17a972771d45ace0", "asm": "304402200744d467fff1a3df5b053f0a6acf99083e1038a9ed5f7676ac841075cc788b8302205c69c0706387ea23fee36eeccb47745d9d0ec6ae3666a947ac84b525c6b298e5[ALL] 03fc2a17949f7ab5e797e16a29c051bb2e212b90aea2a6a47a17a972771d45ace0"}, "vout": 1, "txid": "b15de7e269edec4a13f4e60a09f2cfa9c3c77fe419a1ecc0b178d293a351302b"}, {"sequence": 4294967293, "scriptSig": {"hex": "483045022100828528061e933370eee039721c238f33a2bf3ee3e2a9c8d0b0faeb00f51ac0fd0220641b26e9a75174375b64dbb55f4ba2a476ebbc81ecaa5e505494de537faaec160121037225420577b5a2b1c59375edfa3a6f6cab9798650e5a48602edb20b6599dded0", "asm": "3045022100828528061e933370eee039721c238f33a2bf3ee3e2a9c8d0b0faeb00f51ac0fd0220641b26e9a75174375b64dbb55f4ba2a476ebbc81ecaa5e505494de537faaec16[ALL] 037225420577b5a2b1c59375edfa3a6f6cab9798650e5a48602edb20b6599dded0"}, "vout": 0, "txid": "b63c2b5f9c2b93dd1191e45b5409576fbd4f2cc7f434da7519b1b2236b6c4a61"}, {"sequence": 4294967293, "scriptSig": {"hex": "47304402204dac68545ef764b6e9958087378b3a5492334cedd7ae6f2ae8d9e5cb3123e3f6022069cebf16ef9e09b8ea39e2d7f6e340b44fa72628a1172c320293fae79db36f88012103aea6ce3415fb4289818deb0d58e7470d56f5dc201ea7a150738ce42757835a10", "asm": "304402204dac68545ef764b6e9958087378b3a5492334cedd7ae6f2ae8d9e5cb3123e3f6022069cebf16ef9e09b8ea39e2d7f6e340b44fa72628a1172c320293fae79db36f88[ALL] 03aea6ce3415fb4289818deb0d58e7470d56f5dc201ea7a150738ce42757835a10"}, "vout": 0, "txid": "baaeb4c524d7bd6c6cedf9bfa798552b542a7758f6300e0998c9d745a977a5a9"}, {"sequence": 4294967293, "scriptSig": {"hex": "483045022100ec43f368e2cfa778e0f13edb3e0e8f4efdd0b5080b3625305d106f37070645210220786c4652c05e4c12b6d3107fabda000292612c8fe7a7f4e5179ce9fb1577c6060121036a3aa2b6272a46ed5f774deb540e5f771791f01ccce452ec258fcb858ddbab6b", "asm": "3045022100ec43f368e2cfa778e0f13edb3e0e8f4efdd0b5080b3625305d106f37070645210220786c4652c05e4c12b6d3107fabda000292612c8fe7a7f4e5179ce9fb1577c606[ALL] 036a3aa2b6272a46ed5f774deb540e5f771791f01ccce452ec258fcb858ddbab6b"}, "vout": 1, "txid": "c26e74db3c8642df0c2c5673d355fd02acade7d1d71ab0fae48e3589f2717c26"}, {"sequence": 4294967293, "scriptSig": {"hex": "47304402201d7b0835297cfd345315965a914a8ccc0953af9ec6038579bca1416c1971876f02204d942fa631ee37e1fe030804ff99696136307af431d3bd4b0e9d688a9c07e754012103b02431caa69310df67b0baa642f5717b901a4b7af382165e5d81a195bb439e10", "asm": "304402201d7b0835297cfd345315965a914a8ccc0953af9ec6038579bca1416c1971876f02204d942fa631ee37e1fe030804ff99696136307af431d3bd4b0e9d688a9c07e754[ALL] 03b02431caa69310df67b0baa642f5717b901a4b7af382165e5d81a195bb439e10"}, "vout": 1, "txid": "f620b85c8a6c1e08c750b87a8c7e82b4d420c7ee8d297b632d828138bed11249"}, {"sequence": 4294967293, "scriptSig": {"hex": "483045022100c6139decfa9704d94e1c3ced68741449e60a1d349c69de2c2afce9276646ba79022040500bac7b2ca38c3efee4dd8110a0bf9ec5bd168c6557567469f5829f4e070d012103431e4d54a635082f138881f2511bf4cde132be74f0215fb6f939061133181fec", "asm": "3045022100c6139decfa9704d94e1c3ced68741449e60a1d349c69de2c2afce9276646ba79022040500bac7b2ca38c3efee4dd8110a0bf9ec5bd168c6557567469f5829f4e070d[ALL] 03431e4d54a635082f138881f2511bf4cde132be74f0215fb6f939061133181fec"}, "vout": 1, "txid": "f69f5cd7a31e1ae45936b52f72cc3248ccfe8d12367e3c18d8ae41bce74a9828"}, {"sequence": 4294967293, "scriptSig": {"hex": "473044022079d6fb5bab2891d114f126a56eeaa9ddfb3fd4e19c2cd4542425e4ab6fee4f1e022070f486edbf34b7303b3efbbf5267364dda514446182f1380ef7717d9a087b2050121027dfe8dde4bfcdcb3f59f459cf39eb12e35e516c822bb437d3f7b95543761fb70", "asm": "3044022079d6fb5bab2891d114f126a56eeaa9ddfb3fd4e19c2cd4542425e4ab6fee4f1e022070f486edbf34b7303b3efbbf5267364dda514446182f1380ef7717d9a087b205[ALL] 027dfe8dde4bfcdcb3f59f459cf39eb12e35e516c822bb437d3f7b95543761fb70"}, "vout": 1, "txid": "fb1c21a988437e6b07b2d07974b58acf699cebc0b675a1c3943a673ccd3551ab"}], "txid": "79c5ffa3ad1038f42ebe6cf4c83e793c7a6920b5ded3707c5588dcae81d2e723", "blocktime": 1537876114, "version": 1, "confirmations": 11460, "time": 1537876114, "locktime": 542999, "vsize": 2551, "size": 2551}