{"hash": "79c8d4818161bd9d4ff5232a2f6a6c854103078b0bc04f5391336020c2dc6d3b", "blockhash": "00000000000000000004ffacab907a6b429b9a5745fa0b75af4234bf69dd7176", "vout": [{"scriptPubKey": {"reqSigs": 1, "hex": "76a9146199532572c7b934ce1f2ef53b99b9a56bd5202a88ac", "addresses": ["19u4DoSfup4QnGwEUoiHrfv2r7EtXggRrU"], "asm": "OP_DUP OP_HASH160 6199532572c7b934ce1f2ef53b99b9a56bd5202a OP_EQUALVERIFY OP_CHECKSIG", "type": "pubkeyhash"}, "value": 0.003929, "n": 0}, {"scriptPubKey": {"reqSigs": 1, "hex": "76a9148365480568567a49489858cfc36b82be0f30331088ac", "addresses": ["1CykrHFPBxviZLgMhLJz7KiYrCdA2u4BYm"], "asm": "OP_DUP OP_HASH160 8365480568567a49489858cfc36b82be0f303310 OP_EQUALVERIFY OP_CHECKSIG", "type": "pubkeyhash"}, "value": 0.0061161, "n": 1}], "hex": "010000000161bc73da55ef935a26c9169bce9d7041300289ee1f02d9affd93a725744c240e010000006a47304402200fdda135daf08252e919d5768fdb95f0349e5e466a0113402e150eb1af0aeacb02203af5044f10d86a8064b317d360fd2b8ecaffb9943b979227fe346d692222d15e012103b176160beca70dbc1611d6eda308e9436cc38759cc66e7cce7c24552019b54f4ffffffff02c4fe0500000000001976a9146199532572c7b934ce1f2ef53b99b9a56bd5202a88ac1a550900000000001976a9148365480568567a49489858cfc36b82be0f30331088ac00000000", "vin": [{"sequence": 4294967295, "scriptSig": {"hex": "47304402200fdda135daf08252e919d5768fdb95f0349e5e466a0113402e150eb1af0aeacb02203af5044f10d86a8064b317d360fd2b8ecaffb9943b979227fe346d692222d15e012103b176160beca70dbc1611d6eda308e9436cc38759cc66e7cce7c24552019b54f4", "asm": "304402200fdda135daf08252e919d5768fdb95f0349e5e466a0113402e150eb1af0aeacb02203af5044f10d86a8064b317d360fd2b8ecaffb9943b979227fe346d692222d15e[ALL] 03b176160beca70dbc1611d6eda308e9436cc38759cc66e7cce7c24552019b54f4"}, "vout": 1, "txid": "0e244c7425a793fdafd9021fee89023041709dce9b16c9265a93ef55da73bc61"}], "txid": "79c8d4818161bd9d4ff5232a2f6a6c854103078b0bc04f5391336020c2dc6d3b", "blocktime": 1537875543, "version": 1, "confirmations": 11464, "time": 1537875543, "locktime": 0, "vsize": 225, "size": 225}