{"hash": "79cd2910d54b1bc299194e562be737f2dbc17c3b22c184136ffa08c27e9a3001", "blockhash": "0000000000000000000e13cef7c366c0283d82e591d1acd082e914b08063cdf1", "vout": [{"scriptPubKey": {"reqSigs": 1, "hex": "a914d8b273d14eea5d5e648a4d149fd4f60841720e5b87", "addresses": ["3MSof528c9xRazSzFfaNiR561kFX3M6F7V"], "asm": "OP_HASH160 d8b273d14eea5d5e648a4d149fd4f60841720e5b OP_EQUAL", "type": "scripthash"}, "value": 0.67, "n": 0}, {"scriptPubKey": {"reqSigs": 1, "hex": "76a9141940252cc7deb7607b25b316965d09e35e3e4bc188ac", "addresses": ["13JWjgdxuwmrQ1zwHA6DYdud82Apsav5DK"], "asm": "OP_DUP OP_HASH160 1940252cc7deb7607b25b316965d09e35e3e4bc1 OP_EQUALVERIFY OP_CHECKSIG", "type": "pubkeyhash"}, "value": 10.03681791, "n": 1}], "hex": "02000000011cda83633fe7488f1c4cd928453527926a36afa61caf4ed9f296c8599ac3e36e000000006b483045022100a7350891e684f1b9337f2ccce57f35ef01c3b717db7c64d6f64a801362b34b220220758ea6debb6cb2b35409f4d41963e2a3665843d9018bfa6f25f9debbd148793501210303d8fe9596e9493ea0553d0d9450a7f0f413488540ddbe01c6a3f9d47d473978ffffffff02c056fe030000000017a914d8b273d14eea5d5e648a4d149fd4f60841720e5b87fff7d23b000000001976a9141940252cc7deb7607b25b316965d09e35e3e4bc188ac00000000", "vin": [{"sequence": 4294967295, "scriptSig": {"hex": "483045022100a7350891e684f1b9337f2ccce57f35ef01c3b717db7c64d6f64a801362b34b220220758ea6debb6cb2b35409f4d41963e2a3665843d9018bfa6f25f9debbd148793501210303d8fe9596e9493ea0553d0d9450a7f0f413488540ddbe01c6a3f9d47d473978", "asm": "3045022100a7350891e684f1b9337f2ccce57f35ef01c3b717db7c64d6f64a801362b34b220220758ea6debb6cb2b35409f4d41963e2a3665843d9018bfa6f25f9debbd1487935[ALL] 0303d8fe9596e9493ea0553d0d9450a7f0f413488540ddbe01c6a3f9d47d473978"}, "vout": 0, "txid": "6ee3c39a59c896f2d94eaf1ca6af366a9227354528d94c1c8f48e73f6383da1c"}], "txid": "79cd2910d54b1bc299194e562be737f2dbc17c3b22c184136ffa08c27e9a3001", "blocktime": 1537871767, "version": 2, "confirmations": 11495, "time": 1537871767, "locktime": 0, "vsize": 224, "size": 224}