{"hash": "79e2c75860b8a21c9a8a39563da85514df5531e5b93754a6319e436919422a6a", "blockhash": "0000000000000000001f76057863aec43deb6fa401d9628bb513d65a8098bfab", "vout": [{"scriptPubKey": {"reqSigs": 1, "hex": "76a914a9b82e5bd26ad3f1155c619bd692811b65d384e788ac", "addresses": ["1GUPqYepVMWZHvC36nmTEmHq7kG3hcdiJh"], "asm": "OP_DUP OP_HASH160 a9b82e5bd26ad3f1155c619bd692811b65d384e7 OP_EQUALVERIFY OP_CHECKSIG", "type": "pubkeyhash"}, "value": 8.169e-05, "n": 0}, {"scriptPubKey": {"type": "nulldata", "hex": "6a4c50000077dc0001057ffcdc7709b0f59811b7277af8e8e963c7cfd5b95b23cc0f42c2fc38c5e7f9b63708a5d9a01eb5a7faf062f1305baa15eb061314d0b4f7c0434bbf23acfcfaac8058b692fe6808c31d", "asm": "OP_RETURN 000077dc0001057ffcdc7709b0f59811b7277af8e8e963c7cfd5b95b23cc0f42c2fc38c5e7f9b63708a5d9a01eb5a7faf062f1305baa15eb061314d0b4f7c0434bbf23acfcfaac8058b692fe6808c31d"}, "value": 0.0, "n": 1}], "hex": "01000000019208cbb123b21e068be9d0a0820b0ade7e2858a40f2a5094e1a59d357c02e528010000006a47304402204e1515e0dbb703a7e552696c918cdde82813e039773bab3e00240b137fb2d55802206ad0195b0a33a405c3760e465e404e06028124b0d4794464ae29428b94376e920121030264bb66e12b91c8dea978f1331a262a95d2c110ccd009347edcf6666aa41de4ffffffff02e91f0000000000001976a914a9b82e5bd26ad3f1155c619bd692811b65d384e788ac0000000000000000536a4c50000077dc0001057ffcdc7709b0f59811b7277af8e8e963c7cfd5b95b23cc0f42c2fc38c5e7f9b63708a5d9a01eb5a7faf062f1305baa15eb061314d0b4f7c0434bbf23acfcfaac8058b692fe6808c31d00000000", "vin": [{"sequence": 4294967295, "scriptSig": {"hex": "47304402204e1515e0dbb703a7e552696c918cdde82813e039773bab3e00240b137fb2d55802206ad0195b0a33a405c3760e465e404e06028124b0d4794464ae29428b94376e920121030264bb66e12b91c8dea978f1331a262a95d2c110ccd009347edcf6666aa41de4", "asm": "304402204e1515e0dbb703a7e552696c918cdde82813e039773bab3e00240b137fb2d55802206ad0195b0a33a405c3760e465e404e06028124b0d4794464ae29428b94376e92[ALL] 030264bb66e12b91c8dea978f1331a262a95d2c110ccd009347edcf6666aa41de4"}, "vout": 1, "txid": "28e5027c359da5e194502a0fa458287ede0a0b82a0d0e98b061eb223b1cb0892"}], "txid": "79e2c75860b8a21c9a8a39563da85514df5531e5b93754a6319e436919422a6a", "blocktime": 1537873891, "version": 1, "confirmations": 11478, "time": 1537873891, "locktime": 0, "vsize": 283, "size": 283}