{"hash": "79e368d2a425dbd629e6cb2615fbbfb6a9b2253ffd22e670f9ad02501cd6cc91", "blockhash": "000000000000000000022b45ed06c6f4ccd3cf7fb5ba4856ebd2e58215665228", "vout": [{"scriptPubKey": {"reqSigs": 1, "hex": "76a914d243e6abb9a60fbff430b421d2df4b7d59ec186088ac", "addresses": ["1LAnF8h3qMGx3TSwNUHVneBZUEpwE4gu3D"], "asm": "OP_DUP OP_HASH160 d243e6abb9a60fbff430b421d2df4b7d59ec1860 OP_EQUALVERIFY OP_CHECKSIG", "type": "pubkeyhash"}, "value": 0.00076972, "n": 0}, {"scriptPubKey": {"reqSigs": 1, "hex": "76a9143851f34d13937b673a7d24a1950bb5b21ce94af388ac", "addresses": ["168o1kqNquEJeR9vosUB5fw4eAwcVAgh8P"], "asm": "OP_DUP OP_HASH160 3851f34d13937b673a7d24a1950bb5b21ce94af3 OP_EQUALVERIFY OP_CHECKSIG", "type": "pubkeyhash"}, "value": 5.46e-06, "n": 1}, {"scriptPubKey": {"type": "nulldata", "hex": "6a146f6d6e69000000000000001f0000000be7e3b460", "asm": "OP_RETURN 6f6d6e69000000000000001f0000000be7e3b460"}, "value": 0.0, "n": 2}], "hex": "010000000210b85b3cb2c2ab92b9078a06faa35d52aea4c67b8701231b2d5e382227eeed2e020000006b483045022100fe88081e79f0d96bd41a29539c7efa8e510e2825e21b9ea4ac93f701dee2483602204d8e5658448e3cc9f23767db29672f45ed522abb75943eea4d6c01d8297ffdfc0121034f4ac9617ef326abf3a3a06c0ce44414ecb27d8d0d38ac7fbbb24e2e7ade2f9dffffffff7928ab544bb0a6202ac22c49d5955836e1999071f92895c9500f4463961e2f35000000006b4830450221008f72c53715d1ac3f1e646a93cabd1633945f37a7d8dad28ec905244cd292b80d02200eb7d449fddd094d720c20392790af0b9c051b9c5bc978d9f9fdb5bb7793bfd701210271977291b74f1f5f5c42157e8aae804664eaaeccfd097918450d37f28fb94d77ffffffff03ac2c0100000000001976a914d243e6abb9a60fbff430b421d2df4b7d59ec186088ac22020000000000001976a9143851f34d13937b673a7d24a1950bb5b21ce94af388ac0000000000000000166a146f6d6e69000000000000001f0000000be7e3b46000000000", "vin": [{"sequence": 4294967295, "scriptSig": {"hex": "483045022100fe88081e79f0d96bd41a29539c7efa8e510e2825e21b9ea4ac93f701dee2483602204d8e5658448e3cc9f23767db29672f45ed522abb75943eea4d6c01d8297ffdfc0121034f4ac9617ef326abf3a3a06c0ce44414ecb27d8d0d38ac7fbbb24e2e7ade2f9d", "asm": "3045022100fe88081e79f0d96bd41a29539c7efa8e510e2825e21b9ea4ac93f701dee2483602204d8e5658448e3cc9f23767db29672f45ed522abb75943eea4d6c01d8297ffdfc[ALL] 034f4ac9617ef326abf3a3a06c0ce44414ecb27d8d0d38ac7fbbb24e2e7ade2f9d"}, "vout": 2, "txid": "2eedee2722385e2d1b2301877bc6a4ae525da3fa068a07b992abc2b23c5bb810"}, {"sequence": 4294967295, "scriptSig": {"hex": "4830450221008f72c53715d1ac3f1e646a93cabd1633945f37a7d8dad28ec905244cd292b80d02200eb7d449fddd094d720c20392790af0b9c051b9c5bc978d9f9fdb5bb7793bfd701210271977291b74f1f5f5c42157e8aae804664eaaeccfd097918450d37f28fb94d77", "asm": "30450221008f72c53715d1ac3f1e646a93cabd1633945f37a7d8dad28ec905244cd292b80d02200eb7d449fddd094d720c20392790af0b9c051b9c5bc978d9f9fdb5bb7793bfd7[ALL] 0271977291b74f1f5f5c42157e8aae804664eaaeccfd097918450d37f28fb94d77"}, "vout": 0, "txid": "352f1e9663440f50c99528f9719099e1365895d5492cc22a20a6b04b54ab2879"}], "txid": "79e368d2a425dbd629e6cb2615fbbfb6a9b2253ffd22e670f9ad02501cd6cc91", "blocktime": 1537869901, "version": 1, "confirmations": 11522, "time": 1537869901, "locktime": 0, "vsize": 405, "size": 405}