{"hash": "79e46ac97ae0cf53278ded8f166e8370438d23df0d1cf60a16b59ad41497521d", "blockhash": "000000000000000000022b45ed06c6f4ccd3cf7fb5ba4856ebd2e58215665228", "vout": [{"scriptPubKey": {"reqSigs": 1, "hex": "76a914dce6c04171587b02710ddb0be7e8b468f755bbfc88ac", "addresses": ["1M9264fS1VnnA5EEQLZ3ggtadYNDoNaLCB"], "asm": "OP_DUP OP_HASH160 dce6c04171587b02710ddb0be7e8b468f755bbfc OP_EQUALVERIFY OP_CHECKSIG", "type": "pubkeyhash"}, "value": 0.0007802, "n": 0}, {"scriptPubKey": {"reqSigs": 1, "hex": "76a9148b419879fdf22e8fcc6eca42244a93c2f4ab458b88ac", "addresses": ["1DhKWKzRDdDA6cGgNyHhhTfjTTeWd3o3XG"], "asm": "OP_DUP OP_HASH160 8b419879fdf22e8fcc6eca42244a93c2f4ab458b OP_EQUALVERIFY OP_CHECKSIG", "type": "pubkeyhash"}, "value": 16.01027234, "n": 1}], "hex": "0100000001917d9de7068cb7a9f8482fe0502b99f27a30373884d8ede62fcacb561fb58cb9010000006b48304502210097a2bbcfd1902d079508c3febbbd64b50c6647749924fba052c243dd90ea71e802203187fa9480534a9cc06ac391afc22688e850f299c9ebe2d880e4e8f5601af12f0121024b33d22de496f7e13106fb4d99c959186392008a774adee5c5a79de25b988bbaffffffff02c4300100000000001976a914dce6c04171587b02710ddb0be7e8b468f755bbfc88aca2bc6d5f000000001976a9148b419879fdf22e8fcc6eca42244a93c2f4ab458b88ac00000000", "vin": [{"sequence": 4294967295, "scriptSig": {"hex": "48304502210097a2bbcfd1902d079508c3febbbd64b50c6647749924fba052c243dd90ea71e802203187fa9480534a9cc06ac391afc22688e850f299c9ebe2d880e4e8f5601af12f0121024b33d22de496f7e13106fb4d99c959186392008a774adee5c5a79de25b988bba", "asm": "304502210097a2bbcfd1902d079508c3febbbd64b50c6647749924fba052c243dd90ea71e802203187fa9480534a9cc06ac391afc22688e850f299c9ebe2d880e4e8f5601af12f[ALL] 024b33d22de496f7e13106fb4d99c959186392008a774adee5c5a79de25b988bba"}, "vout": 1, "txid": "b98cb51f56cbca2fe6edd8843837307af2992b50e02f48f8a9b78c06e79d7d91"}], "txid": "79e46ac97ae0cf53278ded8f166e8370438d23df0d1cf60a16b59ad41497521d", "blocktime": 1537869901, "version": 1, "confirmations": 11524, "time": 1537869901, "locktime": 0, "vsize": 226, "size": 226}