{"hash": "7ca1446a8f1414538fe83765b78f67a9c8e2ef7021ffb2a5538fb88431fd662c", "blockhash": "0000000000000000001cda96e906b7601b7a6fb1a3b62bca570a9e5d8f4b3de1", "vout": [{"scriptPubKey": {"reqSigs": 1, "hex": "a914bba348daafdf9566eb74483e0e841e0dd3f535f887", "addresses": ["3Jo9tdNxp1X7Uo8jR7iN48zy3M6cuDLGMu"], "asm": "OP_HASH160 bba348daafdf9566eb74483e0e841e0dd3f535f8 OP_EQUAL", "type": "scripthash"}, "value": 0.23854854, "n": 0}, {"scriptPubKey": {"reqSigs": 1, "hex": "a91449052fd9a3bb3f62f4705955ff4d9824fefcea1c87", "addresses": ["38M7TwWB6R6bT3i31AvFz6QQkQtTnpzBf8"], "asm": "OP_HASH160 49052fd9a3bb3f62f4705955ff4d9824fefcea1c OP_EQUAL", "type": "scripthash"}, "value": 0.005029, "n": 1}, {"scriptPubKey": {"reqSigs": 1, "hex": "a91482bee299089632267d5b6e80326feeb70234a29987", "addresses": ["3DcLSQytSWGkPDbsyBrk6K7C2kc7qpqbcJ"], "asm": "OP_HASH160 82bee299089632267d5b6e80326feeb70234a299 OP_EQUAL", "type": "scripthash"}, "value": 0.00502756, "n": 2}], "hex": "02000000000101935519f539a681b695f64857d53ebb6971ea4fbc2f1555ccad67c97e620e7f820000000017160014dc874e1796cf0a59dadf52d5d2fdf58810be3593feffffff0306ff6b010000000017a914bba348daafdf9566eb74483e0e841e0dd3f535f88774ac07000000000017a91449052fd9a3bb3f62f4705955ff4d9824fefcea1c87e4ab07000000000017a91482bee299089632267d5b6e80326feeb70234a2998702483045022100faed05ca3de593da955622564b8b5780e025b89ad2d5a2d4fd321ce08243c8dc02201d416f2c5f7e917f687fb706ba9e93ef411e2bd47f0e8d7b6b6347e3d204f95b01210384b84b372bfe07b8ef53424ab17ab9641f342c3fc6128dcdac1500b81d7e560b13490800", "vin": [{"txinwitness": ["3045022100faed05ca3de593da955622564b8b5780e025b89ad2d5a2d4fd321ce08243c8dc02201d416f2c5f7e917f687fb706ba9e93ef411e2bd47f0e8d7b6b6347e3d204f95b01", "0384b84b372bfe07b8ef53424ab17ab9641f342c3fc6128dcdac1500b81d7e560b"], "sequence": 4294967294, "scriptSig": {"hex": "160014dc874e1796cf0a59dadf52d5d2fdf58810be3593", "asm": "0014dc874e1796cf0a59dadf52d5d2fdf58810be3593"}, "vout": 0, "txid": "827f0e627ec967adcc55152fbc4fea7169bb3ed55748f695b681a639f5195593"}], "txid": "79eabed3ea21b29d634597a78afbc9bad0b923779f232e2474c6a386cc5a3626", "blocktime": 1537873282, "version": 2, "confirmations": 11485, "time": 1537873282, "locktime": 542995, "vsize": 198, "size": 280}