{"hash": "9f2d7cff2c06b76e070096684166e58922ab0e547075780eef521013f5aef85e", "blockhash": "00000000000000000018f53835495a110e01622372bf6ae95dc86f2b0ab887b0", "vout": [{"scriptPubKey": {"reqSigs": 1, "hex": "a914defbeb7ed7be42f08cb4664886df2303ed5bd6fe87", "addresses": ["3N23iqCom2XyCYoxghAutLQAgLnkJHzBqk"], "asm": "OP_HASH160 defbeb7ed7be42f08cb4664886df2303ed5bd6fe OP_EQUAL", "type": "scripthash"}, "value": 1.68868757, "n": 0}, {"scriptPubKey": {"reqSigs": 1, "hex": "76a914a9f34936006c81caadd90f016577f89d6ae1046d88ac", "addresses": ["1GVceE5tmUKAGUgcCpuQn6hxy3ErYnqEET"], "asm": "OP_DUP OP_HASH160 a9f34936006c81caadd90f016577f89d6ae1046d OP_EQUALVERIFY OP_CHECKSIG", "type": "pubkeyhash"}, "value": 0.014, "n": 1}], "hex": "02000000000101d668bad4330ad8592b42fb5905b594260864995392122feb0664df43c7eae16d01000000171600140dac7f4bcd063ebd21c167dfc98d69119c2c1c9fffffffff0295bb100a0000000017a914defbeb7ed7be42f08cb4664886df2303ed5bd6fe87c05c1500000000001976a914a9f34936006c81caadd90f016577f89d6ae1046d88ac0247304402201c0e7460cd8b926e6e3d37a018853da0573547571a7ee7decfe1bc1081e796490220685320657625d3709e625cc3adc6f9e75afe1536753d924e741a53d927f27a840121027a61f803ea7bf222a78b2297bc77397e180bee6ab702711403bc5f154b8259f100000000", "vin": [{"txinwitness": ["304402201c0e7460cd8b926e6e3d37a018853da0573547571a7ee7decfe1bc1081e796490220685320657625d3709e625cc3adc6f9e75afe1536753d924e741a53d927f27a8401", "027a61f803ea7bf222a78b2297bc77397e180bee6ab702711403bc5f154b8259f1"], "sequence": 4294967295, "scriptSig": {"hex": "1600140dac7f4bcd063ebd21c167dfc98d69119c2c1c9f", "asm": "00140dac7f4bcd063ebd21c167dfc98d69119c2c1c9f"}, "vout": 1, "txid": "6de1eac743df6406eb2f1292539964082694b50559fb422b59d80a33d4ba68d6"}], "txid": "79ecaf029f14ba3ba06795c92909dc401b62fdc44c055a76ba7f887d92851c8b", "blocktime": 1537870928, "version": 2, "confirmations": 11512, "time": 1537870928, "locktime": 0, "vsize": 168, "size": 249}