{"hash": "79f078c3f79b1df47475eb74447857fbd9eb784977b10cbad93ce609ff69f6a8", "blockhash": "000000000000000000022b45ed06c6f4ccd3cf7fb5ba4856ebd2e58215665228", "vout": [{"scriptPubKey": {"reqSigs": 1, "hex": "76a91474889bcfed3ccc2e9bc57a79ab219226070bb12a88ac", "addresses": ["1BdB2zFjawZixFpuA9bkqtXq1t33iGZcY7"], "asm": "OP_DUP OP_HASH160 74889bcfed3ccc2e9bc57a79ab219226070bb12a OP_EQUALVERIFY OP_CHECKSIG", "type": "pubkeyhash"}, "value": 9.94e-06, "n": 0}, {"scriptPubKey": {"reqSigs": 1, "hex": "76a914de8baa14c56c534a4518de1f5a46a4ed9dbae37288ac", "addresses": ["1MHiKdykfj6CRbJFaz1uqccmAopUpZhFUn"], "asm": "OP_DUP OP_HASH160 de8baa14c56c534a4518de1f5a46a4ed9dbae372 OP_EQUALVERIFY OP_CHECKSIG", "type": "pubkeyhash"}, "value": 0.00763959, "n": 1}], "hex": "0100000001d9d12b93eb83368634632aa054dbd55d8e9ba9c096111d92b384c1792a9eef16060000006a47304402202ce147c0b0a4b051ad2031c89bf7654249fdeaba2788e8d70d58d107287bec35022075c7284ed476262c2c3c61d37f087031693a1594d485d020cfab21fda64082dc0121027854d07b7a6568097de05fbebef34c1f27fd13a56896c6597d039230fb821214ffffffff02e2030000000000001976a91474889bcfed3ccc2e9bc57a79ab219226070bb12a88ac37a80b00000000001976a914de8baa14c56c534a4518de1f5a46a4ed9dbae37288ac00000000", "vin": [{"sequence": 4294967295, "scriptSig": {"hex": "47304402202ce147c0b0a4b051ad2031c89bf7654249fdeaba2788e8d70d58d107287bec35022075c7284ed476262c2c3c61d37f087031693a1594d485d020cfab21fda64082dc0121027854d07b7a6568097de05fbebef34c1f27fd13a56896c6597d039230fb821214", "asm": "304402202ce147c0b0a4b051ad2031c89bf7654249fdeaba2788e8d70d58d107287bec35022075c7284ed476262c2c3c61d37f087031693a1594d485d020cfab21fda64082dc[ALL] 027854d07b7a6568097de05fbebef34c1f27fd13a56896c6597d039230fb821214"}, "vout": 6, "txid": "16ef9e2a79c184b3921d1196c0a99b8e5dd5db54a02a6334863683eb932bd1d9"}], "txid": "79f078c3f79b1df47475eb74447857fbd9eb784977b10cbad93ce609ff69f6a8", "blocktime": 1537869901, "version": 1, "confirmations": 11524, "time": 1537869901, "locktime": 0, "vsize": 225, "size": 225}