{"hash": "79f60e79236a3a13283588f1f84b009013c48bdc092a9c28c36e286779f0e492", "blockhash": "0000000000000000001cda96e906b7601b7a6fb1a3b62bca570a9e5d8f4b3de1", "vout": [{"scriptPubKey": {"reqSigs": 1, "hex": "76a914d6e997ca95a7625e20948c591584407376739d8a88ac", "addresses": ["1LbMSNf1H6o7mLKkhJjR9TNigQ5Nuo1oY9"], "asm": "OP_DUP OP_HASH160 d6e997ca95a7625e20948c591584407376739d8a OP_EQUALVERIFY OP_CHECKSIG", "type": "pubkeyhash"}, "value": 0.1653812, "n": 0}, {"scriptPubKey": {"reqSigs": 1, "hex": "76a914a0e263369eba52833026c0ae0982908fca08852e88ac", "addresses": ["1FfgKNo2thfd9tUeYLbfu9eSH9fx2Y5PUR"], "asm": "OP_DUP OP_HASH160 a0e263369eba52833026c0ae0982908fca08852e OP_EQUALVERIFY OP_CHECKSIG", "type": "pubkeyhash"}, "value": 0.00013, "n": 1}], "hex": "010000000138805b834c6d96a4552b1fca6a3e6a4f7af9e331e867d5957b8db2e891e0cb3c010000006a473044022000b8effa53987fadb6b93b2c0f8434a235939ddeb4aa609a58241b5df1754bea02200929e6b4aebd74f607501d89212f7a16a856446fca24a294432b66c088b8a206012103068c002a449e67110dfcddfb171c138a756547e9648f3c535bf31024122a5467feffffff02085afc00000000001976a914d6e997ca95a7625e20948c591584407376739d8a88acc8320000000000001976a914a0e263369eba52833026c0ae0982908fca08852e88ac12490800", "vin": [{"sequence": 4294967294, "scriptSig": {"hex": "473044022000b8effa53987fadb6b93b2c0f8434a235939ddeb4aa609a58241b5df1754bea02200929e6b4aebd74f607501d89212f7a16a856446fca24a294432b66c088b8a206012103068c002a449e67110dfcddfb171c138a756547e9648f3c535bf31024122a5467", "asm": "3044022000b8effa53987fadb6b93b2c0f8434a235939ddeb4aa609a58241b5df1754bea02200929e6b4aebd74f607501d89212f7a16a856446fca24a294432b66c088b8a206[ALL] 03068c002a449e67110dfcddfb171c138a756547e9648f3c535bf31024122a5467"}, "vout": 1, "txid": "3ccbe091e8b28d7b95d567e831e3f97a4f6a3e6aca1f2b55a4966d4c835b8038"}], "txid": "79f60e79236a3a13283588f1f84b009013c48bdc092a9c28c36e286779f0e492", "blocktime": 1537873282, "version": 1, "confirmations": 11480, "time": 1537873282, "locktime": 542994, "vsize": 225, "size": 225}