{"hash": "7a002867d86463bb095e2abfa5f799ed6823e9aa37f9c9d1bf328250faa819d3", "blockhash": "00000000000000000018f53835495a110e01622372bf6ae95dc86f2b0ab887b0", "vout": [{"scriptPubKey": {"reqSigs": 1, "hex": "76a9147655b3048ae48fa0c0a21a0820d1c41e354ca42088ac", "addresses": ["1BnhQ8MwLJzp7mbQUT4F7Eo1RN2H9fDwzh"], "asm": "OP_DUP OP_HASH160 7655b3048ae48fa0c0a21a0820d1c41e354ca420 OP_EQUALVERIFY OP_CHECKSIG", "type": "pubkeyhash"}, "value": 0.002945, "n": 0}, {"scriptPubKey": {"reqSigs": 1, "hex": "76a91436acb85c5be3bcf90b7d2c8a835a8522280e644a88ac", "addresses": ["15z6QAd5iGHEi1p38sjtcs9R1cSJxi5Hxc"], "asm": "OP_DUP OP_HASH160 36acb85c5be3bcf90b7d2c8a835a8522280e644a OP_EQUALVERIFY OP_CHECKSIG", "type": "pubkeyhash"}, "value": 0.00450647, "n": 1}], "hex": "0100000001e03c7140c3ba1175c3a42e6564fc16f79091d7ff9d9dd91b70847aa3b0126372010000006a4730440220022d1406d7c2547cdde3b81be7b719108870f72e5ad262c1714785630c930bb1022051ad78ce6c1204ccdc183184a3152600c056f28443fbb4da14caf7e039253ac301210350198ecb96dc12726269affb7f061009f2401fdcfc30085083341058486a009bfdffffff02647e0400000000001976a9147655b3048ae48fa0c0a21a0820d1c41e354ca42088ac57e00600000000001976a91436acb85c5be3bcf90b7d2c8a835a8522280e644a88ac0e490800", "vin": [{"sequence": 4294967293, "scriptSig": {"hex": "4730440220022d1406d7c2547cdde3b81be7b719108870f72e5ad262c1714785630c930bb1022051ad78ce6c1204ccdc183184a3152600c056f28443fbb4da14caf7e039253ac301210350198ecb96dc12726269affb7f061009f2401fdcfc30085083341058486a009b", "asm": "30440220022d1406d7c2547cdde3b81be7b719108870f72e5ad262c1714785630c930bb1022051ad78ce6c1204ccdc183184a3152600c056f28443fbb4da14caf7e039253ac3[ALL] 0350198ecb96dc12726269affb7f061009f2401fdcfc30085083341058486a009b"}, "vout": 1, "txid": "726312b0a37a84701bd99d9dffd79190f716fc64652ea4c37511bac340713ce0"}], "txid": "7a002867d86463bb095e2abfa5f799ed6823e9aa37f9c9d1bf328250faa819d3", "blocktime": 1537870928, "version": 1, "confirmations": 11514, "time": 1537870928, "locktime": 542990, "vsize": 225, "size": 225}