{"hash": "7a03b762c2dde3cdc7208c6faf35a4c1f5c81efeb760e2a0278c4c80f5f932da", "blockhash": "00000000000000000018f53835495a110e01622372bf6ae95dc86f2b0ab887b0", "vout": [{"scriptPubKey": {"reqSigs": 1, "hex": "76a91497396627658db8a0f00783f5591794542f0264b188ac", "addresses": ["1Enbo83n943FM8xsC3iGKsjakijJ6KvygZ"], "asm": "OP_DUP OP_HASH160 97396627658db8a0f00783f5591794542f0264b1 OP_EQUALVERIFY OP_CHECKSIG", "type": "pubkeyhash"}, "value": 1.001e-05, "n": 0}, {"scriptPubKey": {"reqSigs": 1, "hex": "76a914bf0f1affa74bec12f7103f4933505e3a291d307888ac", "addresses": ["1JREABmPzr511mX3V3gjkmSHWKhBKHYHey"], "asm": "OP_DUP OP_HASH160 bf0f1affa74bec12f7103f4933505e3a291d3078 OP_EQUALVERIFY OP_CHECKSIG", "type": "pubkeyhash"}, "value": 0.00499435, "n": 1}], "hex": "01000000012e9c1a81ecf1b03fa54640adaee3076c9ec298a2e1de90b1a5d9c5c1f0e53c1b010000006a47304402200cc6a571be5c719c0aee6b004ac98243224b9460f6f7860278ffef5d57a5dafe022033ea7a9ad0b55837eaf1968f9589e4731e4e78e985ec266b299bb02c494fe17a01210365bc22feb261274064cfe79039497af20dc68624c510eafbd7e5671708d73afcffffffff02e9030000000000001976a91497396627658db8a0f00783f5591794542f0264b188aceb9e0700000000001976a914bf0f1affa74bec12f7103f4933505e3a291d307888ac00000000", "vin": [{"sequence": 4294967295, "scriptSig": {"hex": "47304402200cc6a571be5c719c0aee6b004ac98243224b9460f6f7860278ffef5d57a5dafe022033ea7a9ad0b55837eaf1968f9589e4731e4e78e985ec266b299bb02c494fe17a01210365bc22feb261274064cfe79039497af20dc68624c510eafbd7e5671708d73afc", "asm": "304402200cc6a571be5c719c0aee6b004ac98243224b9460f6f7860278ffef5d57a5dafe022033ea7a9ad0b55837eaf1968f9589e4731e4e78e985ec266b299bb02c494fe17a[ALL] 0365bc22feb261274064cfe79039497af20dc68624c510eafbd7e5671708d73afc"}, "vout": 1, "txid": "1b3ce5f0c1c5d9a5b190dee1a298c29e6c07e3aead4046a53fb0f1ec811a9c2e"}], "txid": "7a03b762c2dde3cdc7208c6faf35a4c1f5c81efeb760e2a0278c4c80f5f932da", "blocktime": 1537870928, "version": 1, "confirmations": 11512, "time": 1537870928, "locktime": 0, "vsize": 225, "size": 225}