{"hash": "987ffe7c054dc0cb7ef49386d72fc5fd80ecf367f5944e7aca03cc50f4de6b28", "blockhash": "0000000000000000000dcc0f55137456b1a82d3642486a52398922ac4d620174", "vout": [{"scriptPubKey": {"reqSigs": 1, "hex": "76a914e1993003905e7fb7a463ebf134e57b4b6bc55e1288ac", "addresses": ["1MZrYpYXxMon5QPk1f9494Y6EiymxqDmeX"], "asm": "OP_DUP OP_HASH160 e1993003905e7fb7a463ebf134e57b4b6bc55e12 OP_EQUALVERIFY OP_CHECKSIG", "type": "pubkeyhash"}, "value": 0.10012935, "n": 0}, {"scriptPubKey": {"reqSigs": 1, "hex": "0014ea09b81aa313c4828df16f7c4bf56960c064784c", "addresses": ["bc1qagymsx4rz0zg9r03da7yhatfvrqxg7zvgn0xdd"], "asm": "0 ea09b81aa313c4828df16f7c4bf56960c064784c", "type": "witness_v0_keyhash"}, "value": 0.04307201, "n": 1}], "hex": "0100000000010116fe403f3bee4cfc87920a54ea5631ac60b7a123cbc79bb6787cf753fcded3d2000000001716001451ac126cbcbf16b6b111e2eeb5e7721199ea1293ffffffff0207c99800000000001976a914e1993003905e7fb7a463ebf134e57b4b6bc55e1288ac01b9410000000000160014ea09b81aa313c4828df16f7c4bf56960c064784c02483045022100d5adb1cad5ce2795f5356d717bb1fe6586ddb7d71313ab7b7597fdb6bd23bec6022057914927c0970c74f4f4198e57e37dbe5d7d9d1f9cbc2932dc5b50c6cfb825d70121036713095606dbb46be1d3e7a763ea2808a09d4d417c2075f77af6b81d79eb35af00000000", "vin": [{"txinwitness": ["3045022100d5adb1cad5ce2795f5356d717bb1fe6586ddb7d71313ab7b7597fdb6bd23bec6022057914927c0970c74f4f4198e57e37dbe5d7d9d1f9cbc2932dc5b50c6cfb825d701", "036713095606dbb46be1d3e7a763ea2808a09d4d417c2075f77af6b81d79eb35af"], "sequence": 4294967295, "scriptSig": {"hex": "16001451ac126cbcbf16b6b111e2eeb5e7721199ea1293", "asm": "001451ac126cbcbf16b6b111e2eeb5e7721199ea1293"}, "vout": 0, "txid": "d2d3defc53f77c78b69bc7cb23a1b760ac3156ea540a9287fc4cee3b3f40fe16"}], "txid": "7a055f8290087a6eb70f4f2fd5384cba07d106bf3a0c4b0a76f4dde6da738bdb", "blocktime": 1537870268, "version": 1, "confirmations": 11518, "time": 1537870268, "locktime": 0, "vsize": 167, "size": 249}