{"hash": "c706a82f8de3f91ae77b4144029ab0c73c8e002f166613312cd928750054b3c3", "blockhash": "0000000000000000001cda96e906b7601b7a6fb1a3b62bca570a9e5d8f4b3de1", "vout": [{"scriptPubKey": {"reqSigs": 1, "hex": "a9146fc013106c8d81c70e0ae130418e0ee81a109a2b87", "addresses": ["3Bsu2QSkv6r944o9A2y3At5JZxKQgAS227"], "asm": "OP_HASH160 6fc013106c8d81c70e0ae130418e0ee81a109a2b OP_EQUAL", "type": "scripthash"}, "value": 0.00266404, "n": 0}, {"scriptPubKey": {"reqSigs": 1, "hex": "a914adb875a3138c70f195e00b533bc27838ef6d445487", "addresses": ["3HXZoChYtkp1nkWF83fDF7VY8TbSFNpsK5"], "asm": "OP_HASH160 adb875a3138c70f195e00b533bc27838ef6d4454 OP_EQUAL", "type": "scripthash"}, "value": 0.01961, "n": 1}], "hex": "02000000000103aa10452c22b5068195f5ea291acf287be9edf83656bbcfcbbb80de6315fd9b5b010000006a4730440220043a58bdd736d86224af1e0afee979aad878b861024aae5a668cb4fd9dc57b640220225f50f6226f1a2d08ae5a10c35092f803495e8ca48a1037ff0223c1fa7172770121039383faea60474952fa5fd89d288a122f8667703efbf444bb2634e90469a8295efdffffff6e75a237197cb1111d7baa0958c28d2aa7d5050f6d854aa8f6f9c7c36d550fca000000001716001475f52adbd048122c665011bce3d87f9873223458fdffffffc103175f7a3ebde6aac4b553ab78c0a8f5bc66e85f4e5de497655c331568868c0300000017160014fd7e7efbdb76cf8941f603fcbad38659fd57c9cafdffffff02a41004000000000017a9146fc013106c8d81c70e0ae130418e0ee81a109a2b8728ec1d000000000017a914adb875a3138c70f195e00b533bc27838ef6d4454870002483045022100d245287866f2b74c5384a438ae64aac319682189b40f12724a96d3b27479975202202fae57d2fd10d2096880456f80a885b5eefa22096eb0a19a96ea2290bb7e3ab601210287c808bf00e65546b55ea615c7a2649e70319f624fe4cb2573846bbc7058c7d302473044022078aff6cd5d6cf83d025357d34efd0e718f80d1de7e7b949bded47e69d1a3ee7b022047286cb2346ea6c4d5b416046f7b29d253444d6432320e9a7a743340d87220b80121025677073965bf41000050b0af64baea216b545ee388d0bcc9509b4015eba9518600000000", "vin": [{"sequence": 4294967293, "scriptSig": {"hex": "4730440220043a58bdd736d86224af1e0afee979aad878b861024aae5a668cb4fd9dc57b640220225f50f6226f1a2d08ae5a10c35092f803495e8ca48a1037ff0223c1fa7172770121039383faea60474952fa5fd89d288a122f8667703efbf444bb2634e90469a8295e", "asm": "30440220043a58bdd736d86224af1e0afee979aad878b861024aae5a668cb4fd9dc57b640220225f50f6226f1a2d08ae5a10c35092f803495e8ca48a1037ff0223c1fa717277[ALL] 039383faea60474952fa5fd89d288a122f8667703efbf444bb2634e90469a8295e"}, "vout": 1, "txid": "5b9bfd1563de80bbcbcfbb5636f8ede97b28cf1a29eaf5958106b5222c4510aa"}, {"txinwitness": ["3045022100d245287866f2b74c5384a438ae64aac319682189b40f12724a96d3b27479975202202fae57d2fd10d2096880456f80a885b5eefa22096eb0a19a96ea2290bb7e3ab601", "0287c808bf00e65546b55ea615c7a2649e70319f624fe4cb2573846bbc7058c7d3"], "sequence": 4294967293, "scriptSig": {"hex": "16001475f52adbd048122c665011bce3d87f9873223458", "asm": "001475f52adbd048122c665011bce3d87f9873223458"}, "vout": 0, "txid": "ca0f556dc3c7f9f6a84a856d0f05d5a72a8dc25809aa7b1d11b17c1937a2756e"}, {"txinwitness": ["3044022078aff6cd5d6cf83d025357d34efd0e718f80d1de7e7b949bded47e69d1a3ee7b022047286cb2346ea6c4d5b416046f7b29d253444d6432320e9a7a743340d87220b801", "025677073965bf41000050b0af64baea216b545ee388d0bcc9509b4015eba95186"], "sequence": 4294967293, "scriptSig": {"hex": "160014fd7e7efbdb76cf8941f603fcbad38659fd57c9ca", "asm": "0014fd7e7efbdb76cf8941f603fcbad38659fd57c9ca"}, "vout": 3, "txid": "8c866815335c6597e45d4e5fe866bcf5a8c078ab53b5c4aae6bd3e7a5f1703c1"}], "txid": "7a07af6f4226c1d1d7025f3beaff4d5c32e066ee96298065bb8cb8dac6a69700", "blocktime": 1537873282, "version": 2, "confirmations": 11480, "time": 1537873282, "locktime": 0, "vsize": 404, "size": 567}