{"hash": "7a0860370f3a02f5f24b38a93c7f6004b91bd4e1dabfb09d8a8898bc97ab9d3a", "blockhash": "0000000000000000001f0ddff1eddb255c1121bcd4da4f1bc9a0da00cae72433", "vout": [{"scriptPubKey": {"reqSigs": 1, "hex": "76a9141fab0ca4e18b5216ca324fa6b4cf1719b72db7a188ac", "addresses": ["13tSrfg2mgf9YQNk2NNad55xtC6hKK3jLm"], "asm": "OP_DUP OP_HASH160 1fab0ca4e18b5216ca324fa6b4cf1719b72db7a1 OP_EQUALVERIFY OP_CHECKSIG", "type": "pubkeyhash"}, "value": 0.00579433, "n": 0}, {"scriptPubKey": {"reqSigs": 1, "hex": "a91409619d7a8445865f5e69f321a580f6cdd78c5c0c87", "addresses": ["32YcwgxkPsWm6PGcE3M4GaXX5MW3b9Whbc"], "asm": "OP_HASH160 09619d7a8445865f5e69f321a580f6cdd78c5c0c OP_EQUAL", "type": "scripthash"}, "value": 0.01, "n": 1}], "hex": "01000000013acf4d95e550ef48f00fe1b80070ddef107a0c88dae8a869d95c8fd36ea6edb7580000006a47304402200fc93d71290759f5bfedc135c386f9f953c4abe111533af25dc152e24e7019ee022048ec55e6cc1f10dfd7cc29cbd9d5f71c648ea33d981c8e61fc6b781415c7f097012103d838dfa4005e1339d475e664bb87b386cfbcb737a1ae692e7ddf8765d32e5478ffffffff0269d70800000000001976a9141fab0ca4e18b5216ca324fa6b4cf1719b72db7a188ac40420f000000000017a91409619d7a8445865f5e69f321a580f6cdd78c5c0c8700000000", "vin": [{"sequence": 4294967295, "scriptSig": {"hex": "47304402200fc93d71290759f5bfedc135c386f9f953c4abe111533af25dc152e24e7019ee022048ec55e6cc1f10dfd7cc29cbd9d5f71c648ea33d981c8e61fc6b781415c7f097012103d838dfa4005e1339d475e664bb87b386cfbcb737a1ae692e7ddf8765d32e5478", "asm": "304402200fc93d71290759f5bfedc135c386f9f953c4abe111533af25dc152e24e7019ee022048ec55e6cc1f10dfd7cc29cbd9d5f71c648ea33d981c8e61fc6b781415c7f097[ALL] 03d838dfa4005e1339d475e664bb87b386cfbcb737a1ae692e7ddf8765d32e5478"}, "vout": 88, "txid": "b7eda66ed38f5cd969a8e8da880c7a10efdd7000b8e10ff048ef50e5954dcf3a"}], "txid": "7a0860370f3a02f5f24b38a93c7f6004b91bd4e1dabfb09d8a8898bc97ab9d3a", "blocktime": 1537872018, "version": 1, "confirmations": 11489, "time": 1537872018, "locktime": 0, "vsize": 223, "size": 223}