{"hash": "961270bb369d350ffa4dcacfc3bc9d3bcd37375c3576af334255c11439d74c3e", "blockhash": "00000000000000000017f5eb5941039fbcee6240d03bc1f2f8e35350df66a1d8", "vout": [{"scriptPubKey": {"reqSigs": 1, "hex": "76a914503e65fbe9cbac8ae63b9f386bb8c614592140f588ac", "addresses": ["18KHoryEnRtZUCcfYGWJ4u6tLLPvJuAXGo"], "asm": "OP_DUP OP_HASH160 503e65fbe9cbac8ae63b9f386bb8c614592140f5 OP_EQUALVERIFY OP_CHECKSIG", "type": "pubkeyhash"}, "value": 0.0024646, "n": 0}, {"scriptPubKey": {"reqSigs": 1, "hex": "a9143f17dc80b97211a9f527fcf3015a805d5e8b3ae087", "addresses": ["37Sd5YWCzHRopCvwVcBpGoapakhg8UF2mC"], "asm": "OP_HASH160 3f17dc80b97211a9f527fcf3015a805d5e8b3ae0 OP_EQUAL", "type": "scripthash"}, "value": 0.01008888, "n": 1}], "hex": "02000000000102a5ebdbd3d98228774007ff18c5e3bbb108122c4340b92b8bea3fad0c4b670cec050000001716001406eb129f8593107e634631aefc5ce849a33e9b26feffffffc5461807abb5ff856e27c157c6426697f94e96e0df8a22a0c089dd37fd29bc9c0000000017160014a96bea6a44987a57da88b5e397a448a8787b786ffeffffff02bcc20300000000001976a914503e65fbe9cbac8ae63b9f386bb8c614592140f588acf8640f000000000017a9143f17dc80b97211a9f527fcf3015a805d5e8b3ae08702483045022100c0e3cb950ed885598df34c2a2feb0436ab3538f24fd01aa2e17b59e87d0ac66902201654efcfd85221610a6f35fc125131039372fcec6eb156b4d92c0c012ff7cf85012103c15525dfc3cd89f8a5c72a5d6ad343436dda39a74daed4f1a6991f8d4aa8eeb502483045022100b38252eba2ae9fa87e8c13139938fda703755a85d3f710b591654ec1885f2ddf0220537da0ec7f86d4f7994e7332d92931afc12e9809be3866afb26aea22ef49a67e0121022d7731c9042af6b5c2838cf247a261a6c36f9bd076db4dde7549f2272169837d15490800", "vin": [{"txinwitness": ["3045022100c0e3cb950ed885598df34c2a2feb0436ab3538f24fd01aa2e17b59e87d0ac66902201654efcfd85221610a6f35fc125131039372fcec6eb156b4d92c0c012ff7cf8501", "03c15525dfc3cd89f8a5c72a5d6ad343436dda39a74daed4f1a6991f8d4aa8eeb5"], "sequence": 4294967294, "scriptSig": {"hex": "16001406eb129f8593107e634631aefc5ce849a33e9b26", "asm": "001406eb129f8593107e634631aefc5ce849a33e9b26"}, "vout": 5, "txid": "ec0c674b0cad3fea8b2bb940432c1208b1bbe3c518ff0740772882d9d3dbeba5"}, {"txinwitness": ["3045022100b38252eba2ae9fa87e8c13139938fda703755a85d3f710b591654ec1885f2ddf0220537da0ec7f86d4f7994e7332d92931afc12e9809be3866afb26aea22ef49a67e01", "022d7731c9042af6b5c2838cf247a261a6c36f9bd076db4dde7549f2272169837d"], "sequence": 4294967294, "scriptSig": {"hex": "160014a96bea6a44987a57da88b5e397a448a8787b786f", "asm": "0014a96bea6a44987a57da88b5e397a448a8787b786f"}, "vout": 0, "txid": "9cbc29fd37dd89c0a0228adfe0964ef9976642c657c1276e85ffb5ab071846c5"}], "txid": "7a0c519e7b59143d9825781241f144d00711dfd6f4aa667952e3dff5b7063353", "blocktime": 1537874412, "version": 2, "confirmations": 11468, "time": 1537874412, "locktime": 542997, "vsize": 259, "size": 422}