{"hash": "7a0d60e421ec2bbc04bfc91d713140e11f3b9c60a6be93ca97c06f480912bd8f", "blockhash": "00000000000000000004ffacab907a6b429b9a5745fa0b75af4234bf69dd7176", "vout": [{"scriptPubKey": {"reqSigs": 1, "hex": "76a914b83dc5dfdbd2d3eb3f79f975067d38a1d1fc205a88ac", "addresses": ["1HoBLMfwh8TtB3thBf6uHnjFSZQfR8EjaS"], "asm": "OP_DUP OP_HASH160 b83dc5dfdbd2d3eb3f79f975067d38a1d1fc205a OP_EQUALVERIFY OP_CHECKSIG", "type": "pubkeyhash"}, "value": 1.1, "n": 0}, {"scriptPubKey": {"reqSigs": 1, "hex": "76a914efc88dca299eeef622ff9110562af642bb028df388ac", "addresses": ["1NrrkaKByxBy45q5bkhxurjTo2KgPSv72G"], "asm": "OP_DUP OP_HASH160 efc88dca299eeef622ff9110562af642bb028df3 OP_EQUALVERIFY OP_CHECKSIG", "type": "pubkeyhash"}, "value": 0.23428, "n": 1}], "hex": "0100000002147e8a65f27dfa86344f3bee7dac901a577cc7cfe56a45ed18c2ca512aff0ae8010000006a4730440220043194b240020e630e7ec75178ad099f27e7a93d3c068e5e004155c55afaf81e0220594f53a310654d4fd88f3b3607cd2defaa6a27d8fd7562fa595692bf9ee48daf012102fe1fb33478f27a32974865b5c521305737fd71ee49dbadaa85bc3f1c9f053694ffffffff147e8a65f27dfa86344f3bee7dac901a577cc7cfe56a45ed18c2ca512aff0ae8000000006b483045022100f85c865d1a2000c426283fa5471820504e8c32b29267764c6debde97853fff22022025666bb50b2c1855704e89112631c649351dd0135651e866f814d3cdd9c506c6012103021aca6231842241dbb0546e19eae3548ff0096b72e6d1b5c2a2bc05e6b88f4fffffffff0280778e06000000001976a914b83dc5dfdbd2d3eb3f79f975067d38a1d1fc205a88aca07b6501000000001976a914efc88dca299eeef622ff9110562af642bb028df388ac00000000", "vin": [{"sequence": 4294967295, "scriptSig": {"hex": "4730440220043194b240020e630e7ec75178ad099f27e7a93d3c068e5e004155c55afaf81e0220594f53a310654d4fd88f3b3607cd2defaa6a27d8fd7562fa595692bf9ee48daf012102fe1fb33478f27a32974865b5c521305737fd71ee49dbadaa85bc3f1c9f053694", "asm": "30440220043194b240020e630e7ec75178ad099f27e7a93d3c068e5e004155c55afaf81e0220594f53a310654d4fd88f3b3607cd2defaa6a27d8fd7562fa595692bf9ee48daf[ALL] 02fe1fb33478f27a32974865b5c521305737fd71ee49dbadaa85bc3f1c9f053694"}, "vout": 1, "txid": "e80aff2a51cac218ed456ae5cfc77c571a90ac7dee3b4f3486fa7df2658a7e14"}, {"sequence": 4294967295, "scriptSig": {"hex": "483045022100f85c865d1a2000c426283fa5471820504e8c32b29267764c6debde97853fff22022025666bb50b2c1855704e89112631c649351dd0135651e866f814d3cdd9c506c6012103021aca6231842241dbb0546e19eae3548ff0096b72e6d1b5c2a2bc05e6b88f4f", "asm": "3045022100f85c865d1a2000c426283fa5471820504e8c32b29267764c6debde97853fff22022025666bb50b2c1855704e89112631c649351dd0135651e866f814d3cdd9c506c6[ALL] 03021aca6231842241dbb0546e19eae3548ff0096b72e6d1b5c2a2bc05e6b88f4f"}, "vout": 0, "txid": "e80aff2a51cac218ed456ae5cfc77c571a90ac7dee3b4f3486fa7df2658a7e14"}], "txid": "7a0d60e421ec2bbc04bfc91d713140e11f3b9c60a6be93ca97c06f480912bd8f", "blocktime": 1537875543, "version": 1, "confirmations": 11464, "time": 1537875543, "locktime": 0, "vsize": 373, "size": 373}