{"hash": "7a0e7703df7f7c0af734a4643ea9046a55fd206f51ed91e6f2272ca80f12fdbf", "blockhash": "0000000000000000001cda96e906b7601b7a6fb1a3b62bca570a9e5d8f4b3de1", "vout": [{"scriptPubKey": {"reqSigs": 1, "hex": "76a9144cfc13de8e2198c0eab41cb21faab5f3674f588e88ac", "addresses": ["1824LErRz4tXo8NCMdpWwaAVR6j8REVdmj"], "asm": "OP_DUP OP_HASH160 4cfc13de8e2198c0eab41cb21faab5f3674f588e OP_EQUALVERIFY OP_CHECKSIG", "type": "pubkeyhash"}, "value": 0.01157118, "n": 0}, {"scriptPubKey": {"reqSigs": 1, "hex": "a914a1874a39f4dc2618300ebeab458200abd5234fbd87", "addresses": ["3GR6nYCcsjRBoUQ5jm9xtXQfn4wB1isFqX"], "asm": "OP_HASH160 a1874a39f4dc2618300ebeab458200abd5234fbd OP_EQUAL", "type": "scripthash"}, "value": 0.015613, "n": 1}], "hex": "0100000001b629f4ef445da590bfbb57e19af3d542eddd12bb2027bf1e8ee2ff9542702307000000006b483045022100bf26241faf8842a742144add4a96059f2dfafe06f69283b812975c7c2a1dc87c02203d6e3b874bcd5c0c39e3b928fa62a9fdb0a52ba11d4c8543d3158fc36fe98f1101210329b4bbaf3f05f0366d8ee50b1aa45657aad7ff07e693cb6d5e23bed022e81d89ffffffff02fea71100000000001976a9144cfc13de8e2198c0eab41cb21faab5f3674f588e88acd4d217000000000017a914a1874a39f4dc2618300ebeab458200abd5234fbd8700000000", "vin": [{"sequence": 4294967295, "scriptSig": {"hex": "483045022100bf26241faf8842a742144add4a96059f2dfafe06f69283b812975c7c2a1dc87c02203d6e3b874bcd5c0c39e3b928fa62a9fdb0a52ba11d4c8543d3158fc36fe98f1101210329b4bbaf3f05f0366d8ee50b1aa45657aad7ff07e693cb6d5e23bed022e81d89", "asm": "3045022100bf26241faf8842a742144add4a96059f2dfafe06f69283b812975c7c2a1dc87c02203d6e3b874bcd5c0c39e3b928fa62a9fdb0a52ba11d4c8543d3158fc36fe98f11[ALL] 0329b4bbaf3f05f0366d8ee50b1aa45657aad7ff07e693cb6d5e23bed022e81d89"}, "vout": 0, "txid": "0723704295ffe28e1ebf2720bb12dded42d5f39ae157bbbf90a55d44eff429b6"}], "txid": "7a0e7703df7f7c0af734a4643ea9046a55fd206f51ed91e6f2272ca80f12fdbf", "blocktime": 1537873282, "version": 1, "confirmations": 11482, "time": 1537873282, "locktime": 0, "vsize": 224, "size": 224}