{"hash": "42a2d4809dc695ef0994eae8cbdcdf4710d8b3ad30a695821811baaa11421012", "blockhash": "0000000000000000000baef3f32e3676a92c3b2e5da21b426e4f302fc371ce76", "vout": [{"scriptPubKey": {"reqSigs": 1, "hex": "76a91406932b63cda53fd2f097dcc17fb9a15aab16ba0788ac", "addresses": ["1bmMffCFGqQKNoZr2ztnJRFGNQ9d5iLYw"], "asm": "OP_DUP OP_HASH160 06932b63cda53fd2f097dcc17fb9a15aab16ba07 OP_EQUALVERIFY OP_CHECKSIG", "type": "pubkeyhash"}, "value": 0.003641, "n": 0}, {"scriptPubKey": {"reqSigs": 1, "hex": "a9149fedd0435a5346d19e10dbf067501f04f6a02d3687", "addresses": ["3GGeFcpTvbKcU9so2Fz4C8o4V2C9Du9Ngp"], "asm": "OP_HASH160 9fedd0435a5346d19e10dbf067501f04f6a02d36 OP_EQUAL", "type": "scripthash"}, "value": 4.61786442, "n": 1}], "hex": "010000000001010156d27bc5ba2592c65f31511df00b38afea3c208f01b56b7525f539c3921d880100000023220020bdce0b87be1099509aee666bf280d91936d77265b9626a3811efa68c794ec6d9ffffffff02448e0500000000001976a91406932b63cda53fd2f097dcc17fb9a15aab16ba0788ac4a4d861b0000000017a9149fedd0435a5346d19e10dbf067501f04f6a02d36870400483045022100e4509bbdebc4d73a7250825634406609814f966baed82d65d1aa8f455cc8a11002205588f6f9df73614ad446df5551cc3fb9e67bb6e92ce3a96e20ba1696ce137f000147304402202e8ecad4ed35a2d0b12f3fa789a233d0f7749916021fdabbef4f1c67ec4efdbb022078cb2e35e9e2b342a3f214b853803db8ee9b5928061c2bbcdf3113dfb266fe900147522103eb143395e1f431f678a743f1647f1b19b73b3255e6eb16378dc614c75af6729821022a8a912ad76544ca20f666a2071879d22db3f19b68028bfb6e15e148dbbe91a252ae00000000", "vin": [{"txinwitness": ["", "3045022100e4509bbdebc4d73a7250825634406609814f966baed82d65d1aa8f455cc8a11002205588f6f9df73614ad446df5551cc3fb9e67bb6e92ce3a96e20ba1696ce137f0001", "304402202e8ecad4ed35a2d0b12f3fa789a233d0f7749916021fdabbef4f1c67ec4efdbb022078cb2e35e9e2b342a3f214b853803db8ee9b5928061c2bbcdf3113dfb266fe9001", "522103eb143395e1f431f678a743f1647f1b19b73b3255e6eb16378dc614c75af6729821022a8a912ad76544ca20f666a2071879d22db3f19b68028bfb6e15e148dbbe91a252ae"], "sequence": 4294967295, "scriptSig": {"hex": "220020bdce0b87be1099509aee666bf280d91936d77265b9626a3811efa68c794ec6d9", "asm": "0020bdce0b87be1099509aee666bf280d91936d77265b9626a3811efa68c794ec6d9"}, "vout": 1, "txid": "881d92c339f525756bb5018f203ceaaf380bf01d51315fc69225bac57bd25601"}], "txid": "7a108c75d9d6ac96dde45bb49d63945fbd4a7862390b6d85dda9615e4caf8896", "blocktime": 1537876114, "version": 1, "confirmations": 11460, "time": 1537876114, "locktime": 0, "vsize": 208, "size": 373}