{"hash": "30fd63d56103ed6d7f1c1a7511a5b5cf7d17c780a6f5e8cfd17b5fe06cc3f8f7", "blockhash": "0000000000000000000baef3f32e3676a92c3b2e5da21b426e4f302fc371ce76", "vout": [{"scriptPubKey": {"reqSigs": 1, "hex": "a914376def8eaad40206a2e26f7ac599285380fa838887", "addresses": ["36k6nZmDcnZTrkuf4Bo9pbTwRrbLSie5VE"], "asm": "OP_HASH160 376def8eaad40206a2e26f7ac599285380fa8388 OP_EQUAL", "type": "scripthash"}, "value": 0.01224337, "n": 0}, {"scriptPubKey": {"reqSigs": 1, "hex": "76a9145b357d32503df8e16d9b221d4005d217fe5c639788ac", "addresses": ["19KGZwa1B6VHjbNxX72BnrUYuBmgn2LXgq"], "asm": "OP_DUP OP_HASH160 5b357d32503df8e16d9b221d4005d217fe5c6397 OP_EQUALVERIFY OP_CHECKSIG", "type": "pubkeyhash"}, "value": 0.0024686, "n": 1}], "hex": "020000000001026c11cf61f425f3bbf59ce0f3a4c709a36af33176e4d4cc847d6502df74ac0a2800000000171600142fedb5e82d14ce054d16527a77d43b553c6f8310feffffffb37de404a925a9427a14ae7a22dd60aeb0bd18e99bf08648d416a8b0c6a6538401000000171600142c5bb15ef89290fb2b2e5f709c7f214ed98b427cfeffffff0291ae12000000000017a914376def8eaad40206a2e26f7ac599285380fa8388874cc40300000000001976a9145b357d32503df8e16d9b221d4005d217fe5c639788ac0247304402207c243f37a95e5e6ed9234726647b5ad2c3c6590a71d922fb60678ba379cd238f02201ab0abfdd27facb4a67970a216c68395c6d949cff0efb2092d799ac2c06fb4820121037b778a02736bc330bd2b51aa93ef8fd4b11274051d21d0c6f29cdabc7d0ea39d02473044022061f97daa699c4efaac610ca9d9dfd10bbc1d0bc8818a29fb87573e593a1516b202200291903b67eaece0ecfffefb841e40579af52d95235fa0c0854c9c5440d001f201210330d92a05ffbec6b493ea13026c4878423256d8a9ab68e57024ecb87b4ddc173e17490800", "vin": [{"txinwitness": ["304402207c243f37a95e5e6ed9234726647b5ad2c3c6590a71d922fb60678ba379cd238f02201ab0abfdd27facb4a67970a216c68395c6d949cff0efb2092d799ac2c06fb48201", "037b778a02736bc330bd2b51aa93ef8fd4b11274051d21d0c6f29cdabc7d0ea39d"], "sequence": 4294967294, "scriptSig": {"hex": "1600142fedb5e82d14ce054d16527a77d43b553c6f8310", "asm": "00142fedb5e82d14ce054d16527a77d43b553c6f8310"}, "vout": 0, "txid": "280aac74df02657d84ccd4e47631f36aa309c7a4f3e09cf5bbf325f461cf116c"}, {"txinwitness": ["3044022061f97daa699c4efaac610ca9d9dfd10bbc1d0bc8818a29fb87573e593a1516b202200291903b67eaece0ecfffefb841e40579af52d95235fa0c0854c9c5440d001f201", "0330d92a05ffbec6b493ea13026c4878423256d8a9ab68e57024ecb87b4ddc173e"], "sequence": 4294967294, "scriptSig": {"hex": "1600142c5bb15ef89290fb2b2e5f709c7f214ed98b427c", "asm": "00142c5bb15ef89290fb2b2e5f709c7f214ed98b427c"}, "vout": 1, "txid": "8453a6c6b0a816d44886f09be918bdb0ae60dd227aae147a42a925a904e47db3"}], "txid": "7a11383faa514cc31c1ef44d58a56ec8ef0340fa41d438200b7283283f358025", "blocktime": 1537876114, "version": 2, "confirmations": 11461, "time": 1537876114, "locktime": 542999, "vsize": 258, "size": 420}