{"hash": "7a11d8471774742b84efbd794c68230953bf7a7e838e931d07d822ce0bb5d4af", "blockhash": "0000000000000000000dcc0f55137456b1a82d3642486a52398922ac4d620174", "vout": [{"scriptPubKey": {"reqSigs": 1, "hex": "76a91437c3442412fd516ee90a8d52bbcfeadb135d9db788ac", "addresses": ["165r5tBNm9eogsaJGNxqhHXtctzksnNvEs"], "asm": "OP_DUP OP_HASH160 37c3442412fd516ee90a8d52bbcfeadb135d9db7 OP_EQUALVERIFY OP_CHECKSIG", "type": "pubkeyhash"}, "value": 0.573, "n": 0}, {"scriptPubKey": {"reqSigs": 1, "hex": "76a914bae025140c454518b8cba0c25d45a6dc87f4b9ce88ac", "addresses": ["1J37CY8hcdUXQ1KfBhMCsUVafa8XjDsdCn"], "asm": "OP_DUP OP_HASH160 bae025140c454518b8cba0c25d45a6dc87f4b9ce OP_EQUALVERIFY OP_CHECKSIG", "type": "pubkeyhash"}, "value": 0.07160015, "n": 1}], "hex": "010000000a7d1f51589ae6d58c4db9c18c8f85669f8d3c85c85a1474f29ef93c17e7e96b68010000008b48304502210088528b86b87b020be904267a16c4275db312f4d75ed72b8ca8d87e7dc6c5d62602200531f2506f0858fa1994c966ca88aa39b1fdee285f10a4bfcc7c311cf746fe29014104f8a342aec4551d1c21313e21c84e7a593d9c095918f56a36775eeda87204b331fe8f11f2e8528956ee3c0a46cef18c5b1330902970f51abec1597805940deeb2ffffffff0928b6ffa514c1b29b25cd19633978e870aef41a559e71d2d79adca025f455ad010000008a47304402203b1da71614040bab49d6a902c730dd5e71b85613c2bb70a18d3fa21d7e242bec02205067382c83088c2c5b6b1b0dc9be415ac7780001b26a8c6c5c1e0318172d59e0014104025a1cffe502a80dfa1f543ae14c082aff24d5ecadab160ca904d288eed8e3d8cacef0985f690868df4f416c3890909b4c0c843da153d41382ac20c80170240affffffff1694f2e4db855892298723c0a3ea961bb254bd535f6b9b670327728fa3671b78010000008b483045022100fa5df43ce34f6e0b29c60adcc8803f2a60b42c161787a89a89202b6d693b64390220350bc517b4b38039a38b14eac89eca5207ea8eef377f206609ba8e84b6a98cc8014104025a1cffe502a80dfa1f543ae14c082aff24d5ecadab160ca904d288eed8e3d8cacef0985f690868df4f416c3890909b4c0c843da153d41382ac20c80170240affffffff10e391cae1d5be8473f82bc91b8ab6b50f4aa5d09da7b360499b9972cdc37ca0010000008a4730440220540933bd528d16d7b6af61de2875c2c9c0439e9dff9da9df2cf5400c013159e8022024173e3b7d2eac583ebe466a12efb22bf89226bf493f791fc66a19b6392ad95f014104025a1cffe502a80dfa1f543ae14c082aff24d5ecadab160ca904d288eed8e3d8cacef0985f690868df4f416c3890909b4c0c843da153d41382ac20c80170240affffffff9581bda8a1f240beeefe61b2f3267605dea1f7fa3cea33cf129039c80d7c7746010000008a473044022012c4a8a517f1c4ee6c847a188a88b37d00d329d3373b0bf5edcb0cd60cbc63a002202351c39fa45337a6dd1bde30e69e53a973fa1212d8d14ec0cb839945cb7f9aa9014104025a1cffe502a80dfa1f543ae14c082aff24d5ecadab160ca904d288eed8e3d8cacef0985f690868df4f416c3890909b4c0c843da153d41382ac20c80170240affffffff7552542692ddf907238728e6e3ce980906f3f916ecd03db711aa24b81f02f0ef010000008a4730440220773f3d608ccfaf1cccf4e95c65943cdfb2a41bd82851ca84bd3bc9fcc69f33a60220682727be88554afd73eba938b549a207f25ac2c1ace129fc42c7eaffbc3e88ae014104025a1cffe502a80dfa1f543ae14c082aff24d5ecadab160ca904d288eed8e3d8cacef0985f690868df4f416c3890909b4c0c843da153d41382ac20c80170240affffffff5a1c7d694e92500c4c9414d7abf81c74471553f30eaed1e989cad486e2de8a83010000008a47304402205d5ed216c9fca73efcf393a5dae06d0966675009c0d4eb45f41bf257f93aa04d02207b8d0f61f5d1f25d5e7dc8403c124f3b72dd2414fcf074851893db3a7e330509014104025a1cffe502a80dfa1f543ae14c082aff24d5ecadab160ca904d288eed8e3d8cacef0985f690868df4f416c3890909b4c0c843da153d41382ac20c80170240affffffff45354e63e097375e4a278526ef6f281258569a4df7a65ad06ed58e7a649c27a3010000008b483045022100927f457aa72271905671907d43033d3fb54de51b3dae61bd868e6aaa99e548e4022004bc7c487fdd40ea8fd6e2b395b7f462892c36cc1043a9a9171e2becc1fcd9e9014104025a1cffe502a80dfa1f543ae14c082aff24d5ecadab160ca904d288eed8e3d8cacef0985f690868df4f416c3890909b4c0c843da153d41382ac20c80170240affffffff8e3abc6b34732304eeaa078636c2e77d5c4e9f0545e9fd6020471a46a9b20146010000008b483045022100a7646517fc3283ffcd579e3a1f6961d04d800a91b8bc24be592fdf807128cc2002200637748cbc52841df06dbb0b643874b210a18d93ffdefb1c57cbcd3bc2c3fba7014104025a1cffe502a80dfa1f543ae14c082aff24d5ecadab160ca904d288eed8e3d8cacef0985f690868df4f416c3890909b4c0c843da153d41382ac20c80170240affffffff65550bc2189ebdde49ffca3a1a38d5dd10fb6ad9d18426ae213c0d1af6109251010000008b4830450221008423e9b8cb1e462d958c2363fae5be4ad4a9f4f5f09def1e91e5ed5532085cc002202077b25ed34c523888a1222523f6b03e196b57ec287f95cf17d1bbec9196d625014104025a1cffe502a80dfa1f543ae14c082aff24d5ecadab160ca904d288eed8e3d8cacef0985f690868df4f416c3890909b4c0c843da153d41382ac20c80170240affffffff0220546a03000000001976a91437c3442412fd516ee90a8d52bbcfeadb135d9db788accf406d00000000001976a914bae025140c454518b8cba0c25d45a6dc87f4b9ce88ac00000000", "vin": [{"sequence": 4294967295, "scriptSig": {"hex": "48304502210088528b86b87b020be904267a16c4275db312f4d75ed72b8ca8d87e7dc6c5d62602200531f2506f0858fa1994c966ca88aa39b1fdee285f10a4bfcc7c311cf746fe29014104f8a342aec4551d1c21313e21c84e7a593d9c095918f56a36775eeda87204b331fe8f11f2e8528956ee3c0a46cef18c5b1330902970f51abec1597805940deeb2", "asm": "304502210088528b86b87b020be904267a16c4275db312f4d75ed72b8ca8d87e7dc6c5d62602200531f2506f0858fa1994c966ca88aa39b1fdee285f10a4bfcc7c311cf746fe29[ALL] 04f8a342aec4551d1c21313e21c84e7a593d9c095918f56a36775eeda87204b331fe8f11f2e8528956ee3c0a46cef18c5b1330902970f51abec1597805940deeb2"}, "vout": 1, "txid": "686be9e7173cf99ef274145ac8853c8d9f66858f8cc1b94d8cd5e69a58511f7d"}, {"sequence": 4294967295, "scriptSig": {"hex": "47304402203b1da71614040bab49d6a902c730dd5e71b85613c2bb70a18d3fa21d7e242bec02205067382c83088c2c5b6b1b0dc9be415ac7780001b26a8c6c5c1e0318172d59e0014104025a1cffe502a80dfa1f543ae14c082aff24d5ecadab160ca904d288eed8e3d8cacef0985f690868df4f416c3890909b4c0c843da153d41382ac20c80170240a", "asm": "304402203b1da71614040bab49d6a902c730dd5e71b85613c2bb70a18d3fa21d7e242bec02205067382c83088c2c5b6b1b0dc9be415ac7780001b26a8c6c5c1e0318172d59e0[ALL] 04025a1cffe502a80dfa1f543ae14c082aff24d5ecadab160ca904d288eed8e3d8cacef0985f690868df4f416c3890909b4c0c843da153d41382ac20c80170240a"}, "vout": 1, "txid": "ad55f425a0dc9ad7d2719e551af4ae70e878396319cd259bb2c114a5ffb62809"}, {"sequence": 4294967295, "scriptSig": {"hex": "483045022100fa5df43ce34f6e0b29c60adcc8803f2a60b42c161787a89a89202b6d693b64390220350bc517b4b38039a38b14eac89eca5207ea8eef377f206609ba8e84b6a98cc8014104025a1cffe502a80dfa1f543ae14c082aff24d5ecadab160ca904d288eed8e3d8cacef0985f690868df4f416c3890909b4c0c843da153d41382ac20c80170240a", "asm": "3045022100fa5df43ce34f6e0b29c60adcc8803f2a60b42c161787a89a89202b6d693b64390220350bc517b4b38039a38b14eac89eca5207ea8eef377f206609ba8e84b6a98cc8[ALL] 04025a1cffe502a80dfa1f543ae14c082aff24d5ecadab160ca904d288eed8e3d8cacef0985f690868df4f416c3890909b4c0c843da153d41382ac20c80170240a"}, "vout": 1, "txid": "781b67a38f722703679b6b5f53bd54b21b96eaa3c0238729925885dbe4f29416"}, {"sequence": 4294967295, "scriptSig": {"hex": "4730440220540933bd528d16d7b6af61de2875c2c9c0439e9dff9da9df2cf5400c013159e8022024173e3b7d2eac583ebe466a12efb22bf89226bf493f791fc66a19b6392ad95f014104025a1cffe502a80dfa1f543ae14c082aff24d5ecadab160ca904d288eed8e3d8cacef0985f690868df4f416c3890909b4c0c843da153d41382ac20c80170240a", "asm": "30440220540933bd528d16d7b6af61de2875c2c9c0439e9dff9da9df2cf5400c013159e8022024173e3b7d2eac583ebe466a12efb22bf89226bf493f791fc66a19b6392ad95f[ALL] 04025a1cffe502a80dfa1f543ae14c082aff24d5ecadab160ca904d288eed8e3d8cacef0985f690868df4f416c3890909b4c0c843da153d41382ac20c80170240a"}, "vout": 1, "txid": "a07cc3cd72999b4960b3a79dd0a54a0fb5b68a1bc92bf87384bed5e1ca91e310"}, {"sequence": 4294967295, "scriptSig": {"hex": "473044022012c4a8a517f1c4ee6c847a188a88b37d00d329d3373b0bf5edcb0cd60cbc63a002202351c39fa45337a6dd1bde30e69e53a973fa1212d8d14ec0cb839945cb7f9aa9014104025a1cffe502a80dfa1f543ae14c082aff24d5ecadab160ca904d288eed8e3d8cacef0985f690868df4f416c3890909b4c0c843da153d41382ac20c80170240a", "asm": "3044022012c4a8a517f1c4ee6c847a188a88b37d00d329d3373b0bf5edcb0cd60cbc63a002202351c39fa45337a6dd1bde30e69e53a973fa1212d8d14ec0cb839945cb7f9aa9[ALL] 04025a1cffe502a80dfa1f543ae14c082aff24d5ecadab160ca904d288eed8e3d8cacef0985f690868df4f416c3890909b4c0c843da153d41382ac20c80170240a"}, "vout": 1, "txid": "46777c0dc8399012cf33ea3cfaf7a1de057626f3b261feeebe40f2a1a8bd8195"}, {"sequence": 4294967295, "scriptSig": {"hex": "4730440220773f3d608ccfaf1cccf4e95c65943cdfb2a41bd82851ca84bd3bc9fcc69f33a60220682727be88554afd73eba938b549a207f25ac2c1ace129fc42c7eaffbc3e88ae014104025a1cffe502a80dfa1f543ae14c082aff24d5ecadab160ca904d288eed8e3d8cacef0985f690868df4f416c3890909b4c0c843da153d41382ac20c80170240a", "asm": "30440220773f3d608ccfaf1cccf4e95c65943cdfb2a41bd82851ca84bd3bc9fcc69f33a60220682727be88554afd73eba938b549a207f25ac2c1ace129fc42c7eaffbc3e88ae[ALL] 04025a1cffe502a80dfa1f543ae14c082aff24d5ecadab160ca904d288eed8e3d8cacef0985f690868df4f416c3890909b4c0c843da153d41382ac20c80170240a"}, "vout": 1, "txid": "eff0021fb824aa11b73dd0ec16f9f3060998cee3e628872307f9dd9226545275"}, {"sequence": 4294967295, "scriptSig": {"hex": "47304402205d5ed216c9fca73efcf393a5dae06d0966675009c0d4eb45f41bf257f93aa04d02207b8d0f61f5d1f25d5e7dc8403c124f3b72dd2414fcf074851893db3a7e330509014104025a1cffe502a80dfa1f543ae14c082aff24d5ecadab160ca904d288eed8e3d8cacef0985f690868df4f416c3890909b4c0c843da153d41382ac20c80170240a", "asm": "304402205d5ed216c9fca73efcf393a5dae06d0966675009c0d4eb45f41bf257f93aa04d02207b8d0f61f5d1f25d5e7dc8403c124f3b72dd2414fcf074851893db3a7e330509[ALL] 04025a1cffe502a80dfa1f543ae14c082aff24d5ecadab160ca904d288eed8e3d8cacef0985f690868df4f416c3890909b4c0c843da153d41382ac20c80170240a"}, "vout": 1, "txid": "838adee286d4ca89e9d1ae0ef3531547741cf8abd714944c0c50924e697d1c5a"}, {"sequence": 4294967295, "scriptSig": {"hex": "483045022100927f457aa72271905671907d43033d3fb54de51b3dae61bd868e6aaa99e548e4022004bc7c487fdd40ea8fd6e2b395b7f462892c36cc1043a9a9171e2becc1fcd9e9014104025a1cffe502a80dfa1f543ae14c082aff24d5ecadab160ca904d288eed8e3d8cacef0985f690868df4f416c3890909b4c0c843da153d41382ac20c80170240a", "asm": "3045022100927f457aa72271905671907d43033d3fb54de51b3dae61bd868e6aaa99e548e4022004bc7c487fdd40ea8fd6e2b395b7f462892c36cc1043a9a9171e2becc1fcd9e9[ALL] 04025a1cffe502a80dfa1f543ae14c082aff24d5ecadab160ca904d288eed8e3d8cacef0985f690868df4f416c3890909b4c0c843da153d41382ac20c80170240a"}, "vout": 1, "txid": "a3279c647a8ed56ed05aa6f74d9a565812286fef2685274a5e3797e0634e3545"}, {"sequence": 4294967295, "scriptSig": {"hex": "483045022100a7646517fc3283ffcd579e3a1f6961d04d800a91b8bc24be592fdf807128cc2002200637748cbc52841df06dbb0b643874b210a18d93ffdefb1c57cbcd3bc2c3fba7014104025a1cffe502a80dfa1f543ae14c082aff24d5ecadab160ca904d288eed8e3d8cacef0985f690868df4f416c3890909b4c0c843da153d41382ac20c80170240a", "asm": "3045022100a7646517fc3283ffcd579e3a1f6961d04d800a91b8bc24be592fdf807128cc2002200637748cbc52841df06dbb0b643874b210a18d93ffdefb1c57cbcd3bc2c3fba7[ALL] 04025a1cffe502a80dfa1f543ae14c082aff24d5ecadab160ca904d288eed8e3d8cacef0985f690868df4f416c3890909b4c0c843da153d41382ac20c80170240a"}, "vout": 1, "txid": "4601b2a9461a472060fde945059f4e5c7de7c2368607aaee042373346bbc3a8e"}, {"sequence": 4294967295, "scriptSig": {"hex": "4830450221008423e9b8cb1e462d958c2363fae5be4ad4a9f4f5f09def1e91e5ed5532085cc002202077b25ed34c523888a1222523f6b03e196b57ec287f95cf17d1bbec9196d625014104025a1cffe502a80dfa1f543ae14c082aff24d5ecadab160ca904d288eed8e3d8cacef0985f690868df4f416c3890909b4c0c843da153d41382ac20c80170240a", "asm": "30450221008423e9b8cb1e462d958c2363fae5be4ad4a9f4f5f09def1e91e5ed5532085cc002202077b25ed34c523888a1222523f6b03e196b57ec287f95cf17d1bbec9196d625[ALL] 04025a1cffe502a80dfa1f543ae14c082aff24d5ecadab160ca904d288eed8e3d8cacef0985f690868df4f416c3890909b4c0c843da153d41382ac20c80170240a"}, "vout": 1, "txid": "519210f61a0d3c21ae2684d1d96afb10ddd5381a3acaff49debd9e18c20b5565"}], "txid": "7a11d8471774742b84efbd794c68230953bf7a7e838e931d07d822ce0bb5d4af", "blocktime": 1537870268, "version": 1, "confirmations": 11516, "time": 1537870268, "locktime": 0, "vsize": 1873, "size": 1873}