{"hash": "7a15ff5ff86b7368a51695cf057d46ea5bb3348d0260df117437e44bc6884a72", "blockhash": "0000000000000000001e0dab787dd257d1dbfcb92a98c2207d5e1078be1f4165", "vout": [{"scriptPubKey": {"reqSigs": 1, "hex": "76a9144d88b07630aaacdbbcf37ebc84fbdc3ced5593e488ac", "addresses": ["184xn7Ps4uXkaV7EGHh9rQ4CdSkPdCf36S"], "asm": "OP_DUP OP_HASH160 4d88b07630aaacdbbcf37ebc84fbdc3ced5593e4 OP_EQUALVERIFY OP_CHECKSIG", "type": "pubkeyhash"}, "value": 5.46e-06, "n": 0}, {"scriptPubKey": {"reqSigs": 1, "hex": "76a914872b3ff1bd5d2b465518ca94c2dd1f8995a0c26788ac", "addresses": ["1DKi2wnsVLd8LVjmhu8kQMEugtpNU9hXXn"], "asm": "OP_DUP OP_HASH160 872b3ff1bd5d2b465518ca94c2dd1f8995a0c267 OP_EQUALVERIFY OP_CHECKSIG", "type": "pubkeyhash"}, "value": 0.00185684, "n": 1}, {"scriptPubKey": {"type": "nulldata", "hex": "6a146f6d6e69000000000000001f00000245d801de00", "asm": "OP_RETURN 6f6d6e69000000000000001f00000245d801de00"}, "value": 0.0, "n": 2}], "hex": "0100000001dc583e2fb6168d11e5c2c573aeab9001156d39725b1f9de21ab2f5f5fecfbefc000000008a4730440220131993236985a3d5ee38e61c38a8ee0936b09c4a591d63636a2d28abc78fda9102203987369e2f5da20fd75dd82cd79d1ca728bc749e5b54bc283c542bd5502a9821014104bc58c7a60aac6b2f306b7aafc353050f93430298fdb44217e825fcf277134707695de53158205bd2f3128e95c6bdde0db78e2d50fdc16fe3790edffd74367631ffffffff0322020000000000001976a9144d88b07630aaacdbbcf37ebc84fbdc3ced5593e488ac54d50200000000001976a914872b3ff1bd5d2b465518ca94c2dd1f8995a0c26788ac0000000000000000166a146f6d6e69000000000000001f00000245d801de0000000000", "vin": [{"sequence": 4294967295, "scriptSig": {"hex": "4730440220131993236985a3d5ee38e61c38a8ee0936b09c4a591d63636a2d28abc78fda9102203987369e2f5da20fd75dd82cd79d1ca728bc749e5b54bc283c542bd5502a9821014104bc58c7a60aac6b2f306b7aafc353050f93430298fdb44217e825fcf277134707695de53158205bd2f3128e95c6bdde0db78e2d50fdc16fe3790edffd74367631", "asm": "30440220131993236985a3d5ee38e61c38a8ee0936b09c4a591d63636a2d28abc78fda9102203987369e2f5da20fd75dd82cd79d1ca728bc749e5b54bc283c542bd5502a9821[ALL] 04bc58c7a60aac6b2f306b7aafc353050f93430298fdb44217e825fcf277134707695de53158205bd2f3128e95c6bdde0db78e2d50fdc16fe3790edffd74367631"}, "vout": 0, "txid": "fcbecffef5f5b21ae29d1f5b72396d150190abae73c5c2e5118d16b62f3e58dc"}], "txid": "7a15ff5ff86b7368a51695cf057d46ea5bb3348d0260df117437e44bc6884a72", "blocktime": 1537872475, "version": 1, "confirmations": 11486, "time": 1537872475, "locktime": 0, "vsize": 288, "size": 288}