{"hash": "7a1900efc25cc3f1c0ec9f24a69616fe086085047c0b1ff6719268e4f1ef8c85", "blockhash": "000000000000000000022b45ed06c6f4ccd3cf7fb5ba4856ebd2e58215665228", "vout": [{"scriptPubKey": {"reqSigs": 1, "hex": "a9142f7d032d976f847b4d21231110432de29f52771f87", "addresses": ["3627SaHFftr56ixpPM2ZsPuTG9EkHkqC1r"], "asm": "OP_HASH160 2f7d032d976f847b4d21231110432de29f52771f OP_EQUAL", "type": "scripthash"}, "value": 0.000598, "n": 0}, {"scriptPubKey": {"reqSigs": 1, "hex": "76a91421de35b064eafbf9c62a114488d3a85a618c021e88ac", "addresses": ["1465VjVX815pJhg8MAgafgaa2Kw3kArv5d"], "asm": "OP_DUP OP_HASH160 21de35b064eafbf9c62a114488d3a85a618c021e OP_EQUALVERIFY OP_CHECKSIG", "type": "pubkeyhash"}, "value": 0.000198, "n": 1}], "hex": "01000000014d5eb32fb791dc38fa7727e95bf3fef7a2e6655300d69dcb15632b6cf147b5b1010000006b483045022100bc436ee313d8d21d2f2512828748270b24bcd53192a6784d22f7ab83342a58f8022046bf7f6affb7a2328ffb4e954199e2626edaec12faeed853d9d0fad5ec21e4ec012103c4b25b2573661480516e6966a72582f2449dae66d39117dd11d03fcd7478c194ffffffff0298e900000000000017a9142f7d032d976f847b4d21231110432de29f52771f87584d0000000000001976a91421de35b064eafbf9c62a114488d3a85a618c021e88ac00000000", "vin": [{"sequence": 4294967295, "scriptSig": {"hex": "483045022100bc436ee313d8d21d2f2512828748270b24bcd53192a6784d22f7ab83342a58f8022046bf7f6affb7a2328ffb4e954199e2626edaec12faeed853d9d0fad5ec21e4ec012103c4b25b2573661480516e6966a72582f2449dae66d39117dd11d03fcd7478c194", "asm": "3045022100bc436ee313d8d21d2f2512828748270b24bcd53192a6784d22f7ab83342a58f8022046bf7f6affb7a2328ffb4e954199e2626edaec12faeed853d9d0fad5ec21e4ec[ALL] 03c4b25b2573661480516e6966a72582f2449dae66d39117dd11d03fcd7478c194"}, "vout": 1, "txid": "b1b547f16c2b6315cb9dd6005365e6a2f7fef35be92777fa38dc91b72fb35e4d"}], "txid": "7a1900efc25cc3f1c0ec9f24a69616fe086085047c0b1ff6719268e4f1ef8c85", "blocktime": 1537869901, "version": 1, "confirmations": 11522, "time": 1537869901, "locktime": 0, "vsize": 224, "size": 224}