{"hash": "8e1be250d5925143aab7163f4c0be735b34d37cd869df960da9c02c55dfd1485", "blockhash": "0000000000000000001cda96e906b7601b7a6fb1a3b62bca570a9e5d8f4b3de1", "vout": [{"scriptPubKey": {"reqSigs": 1, "hex": "76a91433d06c1085d7256d542ef6c030b49277765f59ca88ac", "addresses": ["15iy9Cz536pz3TdeZVpjroTNzuAb5K95Gm"], "asm": "OP_DUP OP_HASH160 33d06c1085d7256d542ef6c030b49277765f59ca OP_EQUALVERIFY OP_CHECKSIG", "type": "pubkeyhash"}, "value": 0.00139736, "n": 0}, {"scriptPubKey": {"reqSigs": 1, "hex": "a91439991f4e11830a775b1ac1050eb22d527a8d520987", "addresses": ["36wZsbou2qpw2rZ4kuobAf7e19UCoGRcPv"], "asm": "OP_HASH160 39991f4e11830a775b1ac1050eb22d527a8d5209 OP_EQUAL", "type": "scripthash"}, "value": 0.00047915, "n": 1}, {"scriptPubKey": {"reqSigs": 1, "hex": "a9146d5cbdc8e65f340e94a08562ac011f546b196da987", "addresses": ["3BfGgEapYskyyuKxxPkWJzvN5fnirrvK1D"], "asm": "OP_HASH160 6d5cbdc8e65f340e94a08562ac011f546b196da9 OP_EQUAL", "type": "scripthash"}, "value": 0.02618475, "n": 2}, {"scriptPubKey": {"reqSigs": 1, "hex": "a91405401bbf847f9779a95dd16115e69d051a4984b787", "addresses": ["32An6qD8JrRZNKctMU4bcqMsvFeSCNXwDx"], "asm": "OP_HASH160 05401bbf847f9779a95dd16115e69d051a4984b7 OP_EQUAL", "type": "scripthash"}, "value": 0.00056601, "n": 3}, {"scriptPubKey": {"reqSigs": 1, "hex": "a9145244c0518eed4aa25bf04f634aaf66448fd2160387", "addresses": ["39C1hCD5423KcumFSDY8DFruFt4XJoeg8V"], "asm": "OP_HASH160 5244c0518eed4aa25bf04f634aaf66448fd21603 OP_EQUAL", "type": "scripthash"}, "value": 0.17941734, "n": 4}, {"scriptPubKey": {"reqSigs": 1, "hex": "76a9149fa698d076a9577b0866048954cf39550bcba9f788ac", "addresses": ["1FZA1rokdCVJ9V2Bd4Ar5Qrha1Fnwr1Srn"], "asm": "OP_DUP OP_HASH160 9fa698d076a9577b0866048954cf39550bcba9f7 OP_EQUALVERIFY OP_CHECKSIG", "type": "pubkeyhash"}, "value": 0.00110143, "n": 5}, {"scriptPubKey": {"reqSigs": 1, "hex": "a9140ef9bb038006dc12258de1817b9a697215ee79cd87", "addresses": ["334CYowwhwKRqDxPEWEewLfqUrHEQpLtx3"], "asm": "OP_HASH160 0ef9bb038006dc12258de1817b9a697215ee79cd OP_EQUAL", "type": "scripthash"}, "value": 0.00041037, "n": 6}, {"scriptPubKey": {"reqSigs": 1, "hex": "a91488cf760e2754b40f9e131427b049b763f534377287", "addresses": ["3EAQMHZVxYL56UqEt7vjHtMS9iZp6Vtv2N"], "asm": "OP_HASH160 88cf760e2754b40f9e131427b049b763f5343772 OP_EQUAL", "type": "scripthash"}, "value": 0.02479872, "n": 7}, {"scriptPubKey": {"reqSigs": 1, "hex": "a914bd19e85399ad97467e32e0aedef937222d22f4ad87", "addresses": ["3JvtftMEdZLqC1JcGy4qQxtFZv1Dtdn2A6"], "asm": "OP_HASH160 bd19e85399ad97467e32e0aedef937222d22f4ad OP_EQUAL", "type": "scripthash"}, "value": 0.01835662, "n": 8}, {"scriptPubKey": {"reqSigs": 1, "hex": "76a914375f0a27e1e73d2cc299afca32b366ea5e2bd26a88ac", "addresses": ["163n22KebCNJwN8r4VhtPToeEAwpnVPejQ"], "asm": "OP_DUP OP_HASH160 375f0a27e1e73d2cc299afca32b366ea5e2bd26a OP_EQUALVERIFY OP_CHECKSIG", "type": "pubkeyhash"}, "value": 0.00096807, "n": 9}, {"scriptPubKey": {"reqSigs": 1, "hex": "76a914a56d8c46ecc78550dd25299526232fa3ef9ce53c88ac", "addresses": ["1G5hjBJCYdc9S5a4thr6uvqGPjMU835Z5L"], "asm": "OP_DUP OP_HASH160 a56d8c46ecc78550dd25299526232fa3ef9ce53c OP_EQUALVERIFY OP_CHECKSIG", "type": "pubkeyhash"}, "value": 0.00048675, "n": 10}, {"scriptPubKey": {"reqSigs": 1, "hex": "a9149228be3c51f9bc75d020a41009a7e0715b7d7fe487", "addresses": ["3F1qPRzhXFuKMabFCQv5FCnE1tDuZxceeo"], "asm": "OP_HASH160 9228be3c51f9bc75d020a41009a7e0715b7d7fe4 OP_EQUAL", "type": "scripthash"}, "value": 0.00055206, "n": 11}, {"scriptPubKey": {"reqSigs": 1, "hex": "76a91443aba496127bd9dd6cfebe5d94a69bbace8fab8088ac", "addresses": ["17Aotp4hEwHYyLcgovv5M51csNPFWEqtNR"], "asm": "OP_DUP OP_HASH160 43aba496127bd9dd6cfebe5d94a69bbace8fab80 OP_EQUALVERIFY OP_CHECKSIG", "type": "pubkeyhash"}, "value": 0.00051601, "n": 12}, {"scriptPubKey": {"reqSigs": 1, "hex": "a9149e9fa9ea5c03b790dbcb5ce6705f10cf1b87a9b487", "addresses": ["3G9jxUzxpPoEJhUXUCALkmCSZPhUA4itLu"], "asm": "OP_HASH160 9e9fa9ea5c03b790dbcb5ce6705f10cf1b87a9b4 OP_EQUAL", "type": "scripthash"}, "value": 0.01508433, "n": 13}, {"scriptPubKey": {"reqSigs": 1, "hex": "76a91482bb0ec79169b897bb5300bddde8ec84eb45905f88ac", "addresses": ["1CvEvwMKApU2afdLcKhQDcWEe8HX5RA8do"], "asm": "OP_DUP OP_HASH160 82bb0ec79169b897bb5300bddde8ec84eb45905f OP_EQUALVERIFY OP_CHECKSIG", "type": "pubkeyhash"}, "value": 0.00047467, "n": 14}, {"scriptPubKey": {"reqSigs": 1, "hex": "002092f79fba759ed7d1428723c5c11d026167a26b81748d2944ad3a30bd5048dd00", "addresses": ["bc1qjtmelwn4nmtazs58y0zuz8gzv9n6y6upwjxjj39d8gct65zgm5qqmsw364"], "asm": "0 92f79fba759ed7d1428723c5c11d026167a26b81748d2944ad3a30bd5048dd00", "type": "witness_v0_scripthash"}, "value": 0.05957506, "n": 15}], "hex": "010000000001017bf0f94de2bdb9181843ce25aaf79216e2ce1648fe1b12c0ee3468b6e73b535d1100000000ffffffff10d8210200000000001976a91433d06c1085d7256d542ef6c030b49277765f59ca88ac2bbb00000000000017a91439991f4e11830a775b1ac1050eb22d527a8d5209876bf427000000000017a9146d5cbdc8e65f340e94a08562ac011f546b196da98719dd00000000000017a91405401bbf847f9779a95dd16115e69d051a4984b787e6c411010000000017a9145244c0518eed4aa25bf04f634aaf66448fd21603873fae0100000000001976a9149fa698d076a9577b0866048954cf39550bcba9f788ac4da000000000000017a9140ef9bb038006dc12258de1817b9a697215ee79cd8700d725000000000017a91488cf760e2754b40f9e131427b049b763f5343772878e021c000000000017a914bd19e85399ad97467e32e0aedef937222d22f4ad87277a0100000000001976a914375f0a27e1e73d2cc299afca32b366ea5e2bd26a88ac23be0000000000001976a914a56d8c46ecc78550dd25299526232fa3ef9ce53c88aca6d700000000000017a9149228be3c51f9bc75d020a41009a7e0715b7d7fe48791c90000000000001976a91443aba496127bd9dd6cfebe5d94a69bbace8fab8088ac510417000000000017a9149e9fa9ea5c03b790dbcb5ce6705f10cf1b87a9b4876bb90000000000001976a91482bb0ec79169b897bb5300bddde8ec84eb45905f88ac82e75a000000000022002092f79fba759ed7d1428723c5c11d026167a26b81748d2944ad3a30bd5048dd000400473044022055139e7e28c3ede9b3bf72f3fd5fd0cfb7e4d64dad3611220ef7fa69d2760da502200fff512276affe34d17935608906af897accae1a31993b7674c810237600e876014730440220082ab1fcfb885c4ff3de914e166d74990bfb6169e9eaea4b416c425bb09ff9bd02202cf89d8ca6d2a6e596481db1e662cc4dba91783695ba3d3257518e1a38bbde730147522102cdd42f879c9f408180a9d58607747c0d541379fbffb159094d701288a8b135d82102feb2538477491cdc4444e23b87d6dd3aa4c5bee60460a51c45380f14080f3f5952ae00000000", "vin": [{"txinwitness": ["", "3044022055139e7e28c3ede9b3bf72f3fd5fd0cfb7e4d64dad3611220ef7fa69d2760da502200fff512276affe34d17935608906af897accae1a31993b7674c810237600e87601", "30440220082ab1fcfb885c4ff3de914e166d74990bfb6169e9eaea4b416c425bb09ff9bd02202cf89d8ca6d2a6e596481db1e662cc4dba91783695ba3d3257518e1a38bbde7301", "522102cdd42f879c9f408180a9d58607747c0d541379fbffb159094d701288a8b135d82102feb2538477491cdc4444e23b87d6dd3aa4c5bee60460a51c45380f14080f3f5952ae"], "sequence": 4294967295, "scriptSig": {"hex": "", "asm": ""}, "vout": 17, "txid": "5d533be7b66834eec0121bfe4816cee21692f7aa25ce431818b9bde24df9f07b"}], "txid": "7a222cb29f7f87e22fd382540a4b6d74044e380d5c3134e2220ee61ea84f51a0", "blocktime": 1537873282, "version": 1, "confirmations": 11484, "time": 1537873282, "locktime": 0, "vsize": 641, "size": 806}