{"hash": "7a268b09bbc7f7c9c8961523b09026671b969b9ff84ee84587d85ea4f6c4d972", "blockhash": "0000000000000000000e13cef7c366c0283d82e591d1acd082e914b08063cdf1", "vout": [{"scriptPubKey": {"reqSigs": 1, "hex": "76a9147397e87b41db6ad7b0cd228caee87670440c4db688ac", "addresses": ["1BYCgphkwM7htP4Pi4kJaJPcbcE4LaY2rE"], "asm": "OP_DUP OP_HASH160 7397e87b41db6ad7b0cd228caee87670440c4db6 OP_EQUALVERIFY OP_CHECKSIG", "type": "pubkeyhash"}, "value": 0.00511137, "n": 0}, {"scriptPubKey": {"reqSigs": 1, "hex": "76a914955fa885073c08e3965e35ae523dec5a8a0fcb2a88ac", "addresses": ["1EcpH37ukA886qEi7zGY3hKP963qKzNHvp"], "asm": "OP_DUP OP_HASH160 955fa885073c08e3965e35ae523dec5a8a0fcb2a OP_EQUALVERIFY OP_CHECKSIG", "type": "pubkeyhash"}, "value": 0.00453182, "n": 1}], "hex": "0100000002943eeec0a4c16b085d0c2d7e68de7224aad4331290029501b1d997e948dd2874000000006b483045022100e18a47648f8cea4713a3c2e43d2be8097ef8a8c5658c638a6596250b698fee3e0220135df54b995c585a5e6fbf4e018092f4e22240fcb0bf91612c08da32e369d750012103907a79f8d96af8b2817d83655a1e5ab55f953a61d58a6f2f807c60d245e674a1ffffffffed24bf93b3a1fa87bd0a915faf7bd6d898c4cd9634f8c96ab41bf327cc33f0f6440000006b4830450221008cf1e45299feeb81bd647da6b84c6254ba0076b0f106095ed279e77cddb1f59c02205991838c1c3b52bf1ac0751231c3b5ac41aece78ee132dfb0d5102d51fa3177001210262b8cd5606065342ec9d787016aea99f4a0511d39b3b83ea3f6dba61bf0613cfffffffff02a1cc0700000000001976a9147397e87b41db6ad7b0cd228caee87670440c4db688ac3eea0600000000001976a914955fa885073c08e3965e35ae523dec5a8a0fcb2a88ac00000000", "vin": [{"sequence": 4294967295, "scriptSig": {"hex": "483045022100e18a47648f8cea4713a3c2e43d2be8097ef8a8c5658c638a6596250b698fee3e0220135df54b995c585a5e6fbf4e018092f4e22240fcb0bf91612c08da32e369d750012103907a79f8d96af8b2817d83655a1e5ab55f953a61d58a6f2f807c60d245e674a1", "asm": "3045022100e18a47648f8cea4713a3c2e43d2be8097ef8a8c5658c638a6596250b698fee3e0220135df54b995c585a5e6fbf4e018092f4e22240fcb0bf91612c08da32e369d750[ALL] 03907a79f8d96af8b2817d83655a1e5ab55f953a61d58a6f2f807c60d245e674a1"}, "vout": 0, "txid": "7428dd48e997d9b1019502901233d4aa2472de687e2d0c5d086bc1a4c0ee3e94"}, {"sequence": 4294967295, "scriptSig": {"hex": "4830450221008cf1e45299feeb81bd647da6b84c6254ba0076b0f106095ed279e77cddb1f59c02205991838c1c3b52bf1ac0751231c3b5ac41aece78ee132dfb0d5102d51fa3177001210262b8cd5606065342ec9d787016aea99f4a0511d39b3b83ea3f6dba61bf0613cf", "asm": "30450221008cf1e45299feeb81bd647da6b84c6254ba0076b0f106095ed279e77cddb1f59c02205991838c1c3b52bf1ac0751231c3b5ac41aece78ee132dfb0d5102d51fa31770[ALL] 0262b8cd5606065342ec9d787016aea99f4a0511d39b3b83ea3f6dba61bf0613cf"}, "vout": 68, "txid": "f6f033cc27f31bb46ac9f83496cdc498d8d67baf5f910abd87faa1b393bf24ed"}], "txid": "7a268b09bbc7f7c9c8961523b09026671b969b9ff84ee84587d85ea4f6c4d972", "blocktime": 1537871767, "version": 1, "confirmations": 11490, "time": 1537871767, "locktime": 0, "vsize": 374, "size": 374}