{"hash": "4024fea1932c9c9f2a69c52f97362aa86dce269c792d85e4452f4af1b8fa3adf", "blockhash": "00000000000000000024a2167bbff67b0be802c0b01cdd79e6331c2be6459f87", "vout": [{"scriptPubKey": {"reqSigs": 1, "hex": "76a914387fa245e5dff24015fedfb638b4c24725dcc8d988ac", "addresses": ["169jjuCEH92cLkkwydFnFTj7uG4VvgdeEp"], "asm": "OP_DUP OP_HASH160 387fa245e5dff24015fedfb638b4c24725dcc8d9 OP_EQUALVERIFY OP_CHECKSIG", "type": "pubkeyhash"}, "value": 0.00781166, "n": 0}, {"scriptPubKey": {"reqSigs": 1, "hex": "a914abe96308d788e9080ebcc892630a3acfffbabeec87", "addresses": ["3HN14MERSkHHZfEYWd9FFqim5RsTztAUnW"], "asm": "OP_HASH160 abe96308d788e9080ebcc892630a3acfffbabeec OP_EQUAL", "type": "scripthash"}, "value": 0.09858721, "n": 1}], "hex": "0100000000010129d1ecd8353bed15785ef5ee9b79b68bc5644980866cfdf9343e70868fef79be0100000023220020d6670edfc9e44d3ed67150446b50ab7408e046ffba3dc691b817d402ea5aa932ffffffff026eeb0b00000000001976a914387fa245e5dff24015fedfb638b4c24725dcc8d988aca16e96000000000017a914abe96308d788e9080ebcc892630a3acfffbabeec870400473044022071f061a915c127282efcbdf56dc5038d84e51db0ba942040724d235db4b9e64802203a780b2287baa3a628552dbf85c27a315a38f92057349e136cc140f5910667a101483045022100bc27a310f471c5f97e43d88b03ff18072883704948238c8c2069a271f48aa71b02205e89b498c60c9ef0a4271247ec4abc70891e36d814cf30c3a610d131a18f49a9014752210318fb07d2c5d8e0f2c91c5fd47d7961b56f6cfa3d33cca6093cae95077e6490cc2103acc0991ca2f705af88eeaba7371492bb4ea001f16b7b9148cc451062163ca17952ae00000000", "vin": [{"txinwitness": ["", "3044022071f061a915c127282efcbdf56dc5038d84e51db0ba942040724d235db4b9e64802203a780b2287baa3a628552dbf85c27a315a38f92057349e136cc140f5910667a101", "3045022100bc27a310f471c5f97e43d88b03ff18072883704948238c8c2069a271f48aa71b02205e89b498c60c9ef0a4271247ec4abc70891e36d814cf30c3a610d131a18f49a901", "52210318fb07d2c5d8e0f2c91c5fd47d7961b56f6cfa3d33cca6093cae95077e6490cc2103acc0991ca2f705af88eeaba7371492bb4ea001f16b7b9148cc451062163ca17952ae"], "sequence": 4294967295, "scriptSig": {"hex": "220020d6670edfc9e44d3ed67150446b50ab7408e046ffba3dc691b817d402ea5aa932", "asm": "0020d6670edfc9e44d3ed67150446b50ab7408e046ffba3dc691b817d402ea5aa932"}, "vout": 1, "txid": "be79ef8f86703e34f9fd6c86804964c58bb6799beef55e7815ed3b35d8ecd129"}], "txid": "7a2a1ff3e5aacdb1e771c4b48a85507d86c4bee6d1dd6955153cb9558ec38ccd", "blocktime": 1537870564, "version": 1, "confirmations": 11515, "time": 1537870564, "locktime": 0, "vsize": 208, "size": 373}