{"hash": "301fc366256a61f55668c360c699647fc41af3ac1be7008700e258069ff1ff3b", "blockhash": "0000000000000000000e13cef7c366c0283d82e591d1acd082e914b08063cdf1", "vout": [{"scriptPubKey": {"reqSigs": 1, "hex": "a9142e1eca14697f9ec951340ce593d864fa738445fb87", "addresses": ["35tsteikqqufq899bf1ZARHpubchK9HPad"], "asm": "OP_HASH160 2e1eca14697f9ec951340ce593d864fa738445fb OP_EQUAL", "type": "scripthash"}, "value": 1.98364765, "n": 0}, {"scriptPubKey": {"reqSigs": 1, "hex": "0014056b4694e0cade4111dc56fd4fb5590d247ecd7b", "addresses": ["bc1qq445d98qet0yzywu2m75ld2ep5j8antmfghpua"], "asm": "0 056b4694e0cade4111dc56fd4fb5590d247ecd7b", "type": "witness_v0_keyhash"}, "value": 0.00612167, "n": 1}], "hex": "010000000001018149b33a453ec2a88b691e06f4eae60ce941a8988f1453ddf1c3c6adb5b804930000000000ffffffff025dced20b0000000017a9142e1eca14697f9ec951340ce593d864fa738445fb874757090000000000160014056b4694e0cade4111dc56fd4fb5590d247ecd7b02483045022100a7c893bfa924b4ee9f403a0bde3d6a98c89576682f62820df84783d7adcaa0a4022027e7d475ce9519ae0109a13835d073ebdd7b852f8bbf59a67e1da54242e90a5501210234a9e575d28aa1d8e0eb78755fa2bb3841c23193848b6d362dbe5b190f75396500000000", "vin": [{"txinwitness": ["3045022100a7c893bfa924b4ee9f403a0bde3d6a98c89576682f62820df84783d7adcaa0a4022027e7d475ce9519ae0109a13835d073ebdd7b852f8bbf59a67e1da54242e90a5501", "0234a9e575d28aa1d8e0eb78755fa2bb3841c23193848b6d362dbe5b190f753965"], "sequence": 4294967295, "scriptSig": {"hex": "", "asm": ""}, "vout": 0, "txid": "9304b8b5adc6c3f1dd53148f98a841e90ce6eaf4061e698ba8c23e453ab34981"}], "txid": "7a30e6941f554958e8ac32032a81ce35394e3882f75887e1b331353d9fe9c665", "blocktime": 1537871767, "version": 1, "confirmations": 11495, "time": 1537871767, "locktime": 0, "vsize": 142, "size": 224}