{"hash": "cce05d229a176be0ebb8757396baf3eb95590e707f4a1c2ff9c099c30c1ce9ae", "blockhash": "0000000000000000001e0dab787dd257d1dbfcb92a98c2207d5e1078be1f4165", "vout": [{"scriptPubKey": {"reqSigs": 1, "hex": "a914c3e324baab7154bea611688b2685ad25234b6aab87", "addresses": ["3KYmo9zgcwo9G4MFRDmjuDrgxeaTdLts6s"], "asm": "OP_HASH160 c3e324baab7154bea611688b2685ad25234b6aab OP_EQUAL", "type": "scripthash"}, "value": 0.02949865, "n": 0}], "hex": "01000000000101c9d3117831c3c2cf6dd7a47bbf6c56f3b046c8430865af76978b394940c7d3ed1e000000171600143fc262911a7c6f275975d6ec630b2c9666865187ffffffff01e9022d000000000017a914c3e324baab7154bea611688b2685ad25234b6aab87024730440220197155091f27515fc5ff507245f52e69accf0fae6ae6771e2e91e0279eb8dcb5022015698304c63110269dd63729cb707e99aaae6cd4f9560e7cfeb981e18ce66a1f0121021d70d95dc666cfa49446ec793b1165158db47bf95d8108f07d3cff626b0c53db00000000", "vin": [{"txinwitness": ["30440220197155091f27515fc5ff507245f52e69accf0fae6ae6771e2e91e0279eb8dcb5022015698304c63110269dd63729cb707e99aaae6cd4f9560e7cfeb981e18ce66a1f01", "021d70d95dc666cfa49446ec793b1165158db47bf95d8108f07d3cff626b0c53db"], "sequence": 4294967295, "scriptSig": {"hex": "1600143fc262911a7c6f275975d6ec630b2c9666865187", "asm": "00143fc262911a7c6f275975d6ec630b2c9666865187"}, "vout": 30, "txid": "edd3c74049398b9776af650843c846b0f3566cbf7ba4d76dcfc2c3317811d3c9"}], "txid": "7a362a8d9c6809cc11c01e0b2d8db367c3c8359754f64cfc4883bd568addbaf1", "blocktime": 1537872475, "version": 1, "confirmations": 11487, "time": 1537872475, "locktime": 0, "vsize": 134, "size": 215}