{"hash": "7a3c4fd95270fc10f9897556a0af7fb54f331139592284561858247be9ecc6cf", "blockhash": "0000000000000000001f0ddff1eddb255c1121bcd4da4f1bc9a0da00cae72433", "vout": [{"scriptPubKey": {"reqSigs": 1, "hex": "a9149463c0b7c3c34f5685164bb7ddbe825269968ce187", "addresses": ["3FDdRt3trtMrekNaVGfPdEagZHGVpDz3T5"], "asm": "OP_HASH160 9463c0b7c3c34f5685164bb7ddbe825269968ce1 OP_EQUAL", "type": "scripthash"}, "value": 0.00171798, "n": 0}, {"scriptPubKey": {"reqSigs": 1, "hex": "76a9149e53fa69e3da1880096936c3ebcbbeb0c594256388ac", "addresses": ["1FSANDVMKySgEvRJGzvJi2s2wy17NoWA26"], "asm": "OP_DUP OP_HASH160 9e53fa69e3da1880096936c3ebcbbeb0c5942563 OP_EQUALVERIFY OP_CHECKSIG", "type": "pubkeyhash"}, "value": 0.00336041, "n": 1}], "hex": "0100000001a5e8261126ed737bb20451214d4474ef6c653b097ccb857db97f561fbf953a35010000006b4830450221008b86c6c7157241a9b2f42ae76bfcf34d20271ce8ad238c348adfe101ed591cb202207295182e71e563894fe3d9772b179cf05b5acc01c72d70eaf171c286439d0d0e012102f2f9ac3a517ba8c32118252bb4cc80fa0e7124a6e5d4c593f3af8a38e307aa9affffffff02169f02000000000017a9149463c0b7c3c34f5685164bb7ddbe825269968ce187a9200500000000001976a9149e53fa69e3da1880096936c3ebcbbeb0c594256388ac00000000", "vin": [{"sequence": 4294967295, "scriptSig": {"hex": "4830450221008b86c6c7157241a9b2f42ae76bfcf34d20271ce8ad238c348adfe101ed591cb202207295182e71e563894fe3d9772b179cf05b5acc01c72d70eaf171c286439d0d0e012102f2f9ac3a517ba8c32118252bb4cc80fa0e7124a6e5d4c593f3af8a38e307aa9a", "asm": "30450221008b86c6c7157241a9b2f42ae76bfcf34d20271ce8ad238c348adfe101ed591cb202207295182e71e563894fe3d9772b179cf05b5acc01c72d70eaf171c286439d0d0e[ALL] 02f2f9ac3a517ba8c32118252bb4cc80fa0e7124a6e5d4c593f3af8a38e307aa9a"}, "vout": 1, "txid": "353a95bf1f567fb97d85cb7c093b656cef74444d215104b27b73ed261126e8a5"}], "txid": "7a3c4fd95270fc10f9897556a0af7fb54f331139592284561858247be9ecc6cf", "blocktime": 1537872018, "version": 1, "confirmations": 11489, "time": 1537872018, "locktime": 0, "vsize": 224, "size": 224}