{"hash": "7a3dd26c0f7a81a1819160c1d10bdb272b91c99a4d8c32572e7219c2c3ed812a", "blockhash": "000000000000000000022b45ed06c6f4ccd3cf7fb5ba4856ebd2e58215665228", "vout": [{"scriptPubKey": {"reqSigs": 1, "hex": "76a914b9ee9d0790aaa7efe55959237e06df75138120db88ac", "addresses": ["1Hx7re1WKBYjsTwFtNFJvRxVcvg9cnNryk"], "asm": "OP_DUP OP_HASH160 b9ee9d0790aaa7efe55959237e06df75138120db OP_EQUALVERIFY OP_CHECKSIG", "type": "pubkeyhash"}, "value": 3.19, "n": 0}, {"scriptPubKey": {"reqSigs": 1, "hex": "76a9145998d3949ad2bd45358605527b486546fff2a06988ac", "addresses": ["19AkDeKAQzB6foNREV4LhzszwXinG51vRn"], "asm": "OP_DUP OP_HASH160 5998d3949ad2bd45358605527b486546fff2a069 OP_EQUALVERIFY OP_CHECKSIG", "type": "pubkeyhash"}, "value": 0.62182, "n": 1}], "hex": "01000000034bfeb210d50715d435b658ccb0b88b1cc13f646831f903153fb6e88227f5cb93010000006b483045022100c6ce8353548dd9e2dc30e216b81c7f4e0f1abecbe7b29de099fab05669de3f600220277a49ed630f7488a77670a5072bf5a024ded5f1780d5e7b572cecd5a0a1890f0121034a5bd0ec6dc3d8bff4ff28c46de7139616a9eb2d5d83d12ff455e1f18223a565ffffffff4bfeb210d50715d435b658ccb0b88b1cc13f646831f903153fb6e88227f5cb93000000006a47304402207a41beb1e3715a5e6058f346fa71422ede7891a32a243dec362c58f255ca374d022060d9f8c254a10a2254e80bea1b7be31762113c22066027a7ae116a023efb2f66012102489449009da09deb25621ff5808743898cbe6844cf61cef60944afbc9a857a4bffffffff9b745805e3f0b75bba52969b51c36179abb62c1e3b465b46cbe11cdec9459188000000006b483045022100d0ee245f076aadd7e1b9b3b64fbc51ea110b2c17bad2253c29e22bfc95966ba20220336aa7c20d169d80d98ae9ce27231d24d84757431759ae1d91c1ff2e638c63130121022ed9462713256786a73c611fa61955f57905cd8aba4607e421d0931504f183baffffffff02c08d0313000000001976a914b9ee9d0790aaa7efe55959237e06df75138120db88ac70d2b403000000001976a9145998d3949ad2bd45358605527b486546fff2a06988ac00000000", "vin": [{"sequence": 4294967295, "scriptSig": {"hex": "483045022100c6ce8353548dd9e2dc30e216b81c7f4e0f1abecbe7b29de099fab05669de3f600220277a49ed630f7488a77670a5072bf5a024ded5f1780d5e7b572cecd5a0a1890f0121034a5bd0ec6dc3d8bff4ff28c46de7139616a9eb2d5d83d12ff455e1f18223a565", "asm": "3045022100c6ce8353548dd9e2dc30e216b81c7f4e0f1abecbe7b29de099fab05669de3f600220277a49ed630f7488a77670a5072bf5a024ded5f1780d5e7b572cecd5a0a1890f[ALL] 034a5bd0ec6dc3d8bff4ff28c46de7139616a9eb2d5d83d12ff455e1f18223a565"}, "vout": 1, "txid": "93cbf52782e8b63f1503f93168643fc11c8bb8b0cc58b635d41507d510b2fe4b"}, {"sequence": 4294967295, "scriptSig": {"hex": "47304402207a41beb1e3715a5e6058f346fa71422ede7891a32a243dec362c58f255ca374d022060d9f8c254a10a2254e80bea1b7be31762113c22066027a7ae116a023efb2f66012102489449009da09deb25621ff5808743898cbe6844cf61cef60944afbc9a857a4b", "asm": "304402207a41beb1e3715a5e6058f346fa71422ede7891a32a243dec362c58f255ca374d022060d9f8c254a10a2254e80bea1b7be31762113c22066027a7ae116a023efb2f66[ALL] 02489449009da09deb25621ff5808743898cbe6844cf61cef60944afbc9a857a4b"}, "vout": 0, "txid": "93cbf52782e8b63f1503f93168643fc11c8bb8b0cc58b635d41507d510b2fe4b"}, {"sequence": 4294967295, "scriptSig": {"hex": "483045022100d0ee245f076aadd7e1b9b3b64fbc51ea110b2c17bad2253c29e22bfc95966ba20220336aa7c20d169d80d98ae9ce27231d24d84757431759ae1d91c1ff2e638c63130121022ed9462713256786a73c611fa61955f57905cd8aba4607e421d0931504f183ba", "asm": "3045022100d0ee245f076aadd7e1b9b3b64fbc51ea110b2c17bad2253c29e22bfc95966ba20220336aa7c20d169d80d98ae9ce27231d24d84757431759ae1d91c1ff2e638c6313[ALL] 022ed9462713256786a73c611fa61955f57905cd8aba4607e421d0931504f183ba"}, "vout": 0, "txid": "889145c9de1ce1cb465b463b1e2cb6ab7961c3519b9652ba5bb7f0e30558749b"}], "txid": "7a3dd26c0f7a81a1819160c1d10bdb272b91c99a4d8c32572e7219c2c3ed812a", "blocktime": 1537869901, "version": 1, "confirmations": 11522, "time": 1537869901, "locktime": 0, "vsize": 521, "size": 521}