{"hash": "7a4069bb5e4af5fc3bfde3e871f55a57911a53c3e4f586159eb3f179162ef28b", "blockhash": "0000000000000000001cda96e906b7601b7a6fb1a3b62bca570a9e5d8f4b3de1", "vout": [{"scriptPubKey": {"reqSigs": 1, "hex": "a9145e3f7ffeb3c2d59b0ebb46a71c6ef719355ef77387", "addresses": ["3AHMWdbafVETxFWw9wfHsJdxsQHE1MjyS3"], "asm": "OP_HASH160 5e3f7ffeb3c2d59b0ebb46a71c6ef719355ef773 OP_EQUAL", "type": "scripthash"}, "value": 0.0624, "n": 0}, {"scriptPubKey": {"reqSigs": 1, "hex": "0014991a5bd37041969cc119954324235da4bbf78906", "addresses": ["bc1qnyd9h5msgxtfesgej4pjgg6a5jal0zgxx2qr7q"], "asm": "0 991a5bd37041969cc119954324235da4bbf78906", "type": "witness_v0_keyhash"}, "value": 2.977e-05, "n": 1}], "hex": "01000000011a15c643d8652f680cdeaeb3b2256343cd37d6e3996d88cb32fcd09459b3d7e6000000006b483045022100e86ba18b4e847820bb81b18a6686d543229de6be5f91dae6be3461efd8c346bc022074e0b7cbe5b8151704a0fa6f94b787d7cb906385f107a01e786944aaa4913fbd0121031fbd5c71ff1ed6b255a4704e882abd4fcc94bef21944c97fb5e92e99fdb81c80ffffffff0200375f000000000017a9145e3f7ffeb3c2d59b0ebb46a71c6ef719355ef77387a10b000000000000160014991a5bd37041969cc119954324235da4bbf7890600000000", "vin": [{"sequence": 4294967295, "scriptSig": {"hex": "483045022100e86ba18b4e847820bb81b18a6686d543229de6be5f91dae6be3461efd8c346bc022074e0b7cbe5b8151704a0fa6f94b787d7cb906385f107a01e786944aaa4913fbd0121031fbd5c71ff1ed6b255a4704e882abd4fcc94bef21944c97fb5e92e99fdb81c80", "asm": "3045022100e86ba18b4e847820bb81b18a6686d543229de6be5f91dae6be3461efd8c346bc022074e0b7cbe5b8151704a0fa6f94b787d7cb906385f107a01e786944aaa4913fbd[ALL] 031fbd5c71ff1ed6b255a4704e882abd4fcc94bef21944c97fb5e92e99fdb81c80"}, "vout": 0, "txid": "e6d7b35994d0fc32cb886d99e3d637cd436325b2b3aede0c682f65d843c6151a"}], "txid": "7a4069bb5e4af5fc3bfde3e871f55a57911a53c3e4f586159eb3f179162ef28b", "blocktime": 1537873282, "version": 1, "confirmations": 11484, "time": 1537873282, "locktime": 0, "vsize": 221, "size": 221}