{"hash": "7a4a3d9fc4fd0e7e99074cf49f8eeff48b9456257c6621f9c45c8d316f213dbc", "blockhash": "00000000000000000024a2167bbff67b0be802c0b01cdd79e6331c2be6459f87", "vout": [{"scriptPubKey": {"type": "nulldata", "hex": "6a4c500000777f0001697b62b91ca94ca97e027312bcbefa6b8351586b4e86aeaeacb577c031fc23f646fef7818aeb8a3635f57734f1825baa0a860613dabc4d245b7abc9a9526289ac0f6612cd74e33776ee4", "asm": "OP_RETURN 0000777f0001697b62b91ca94ca97e027312bcbefa6b8351586b4e86aeaeacb577c031fc23f646fef7818aeb8a3635f57734f1825baa0a860613dabc4d245b7abc9a9526289ac0f6612cd74e33776ee4"}, "value": 0.0, "n": 0}, {"scriptPubKey": {"reqSigs": 1, "hex": "76a9145dae19eb236fcc2905c7eab128097393169577db88ac", "addresses": ["19YLQcC6EvyMUGWnZEBau1dFWm7ZWcgzU7"], "asm": "OP_DUP OP_HASH160 5dae19eb236fcc2905c7eab128097393169577db OP_EQUALVERIFY OP_CHECKSIG", "type": "pubkeyhash"}, "value": 0.0224408, "n": 1}], "hex": "010000000147b39183bff082621101b620465c9d1bd015abd20fce74822c43165877094052000000006a4730440220103e339d06ed31aa375b897a657ac1934678f64a8121201c7e1afec41c0866f902201e7c22eb1d9c54ade3463614c85a28dd258afe25aa0f972315efe3400fd49d960121032d4ce707a360306ab454e2fdd881cff01aeb055006ed5167fd45113c20c144e6ffffffff020000000000000000536a4c500000777f0001697b62b91ca94ca97e027312bcbefa6b8351586b4e86aeaeacb577c031fc23f646fef7818aeb8a3635f57734f1825baa0a860613dabc4d245b7abc9a9526289ac0f6612cd74e33776ee4f03d2200000000001976a9145dae19eb236fcc2905c7eab128097393169577db88ac00000000", "vin": [{"sequence": 4294967295, "scriptSig": {"hex": "4730440220103e339d06ed31aa375b897a657ac1934678f64a8121201c7e1afec41c0866f902201e7c22eb1d9c54ade3463614c85a28dd258afe25aa0f972315efe3400fd49d960121032d4ce707a360306ab454e2fdd881cff01aeb055006ed5167fd45113c20c144e6", "asm": "30440220103e339d06ed31aa375b897a657ac1934678f64a8121201c7e1afec41c0866f902201e7c22eb1d9c54ade3463614c85a28dd258afe25aa0f972315efe3400fd49d96[ALL] 032d4ce707a360306ab454e2fdd881cff01aeb055006ed5167fd45113c20c144e6"}, "vout": 0, "txid": "524009775816432c8274ce0fd2ab15d01b9d5c4620b601116282f0bf8391b347"}], "txid": "7a4a3d9fc4fd0e7e99074cf49f8eeff48b9456257c6621f9c45c8d316f213dbc", "blocktime": 1537870564, "version": 1, "confirmations": 11515, "time": 1537870564, "locktime": 0, "vsize": 283, "size": 283}