{"hash": "d17a5ae9f341c86438b7de167d75e041825c78f1f98a5c8bf7a128deaed03146", "blockhash": "0000000000000000000dcc0f55137456b1a82d3642486a52398922ac4d620174", "vout": [{"scriptPubKey": {"reqSigs": 1, "hex": "a9144a85299c76a8db99ce665547febe04f6b586966587", "addresses": ["38V3T2yoiddfaiMteuFLkeK8DFEHBPQ2jt"], "asm": "OP_HASH160 4a85299c76a8db99ce665547febe04f6b5869665 OP_EQUAL", "type": "scripthash"}, "value": 0.01000022, "n": 0}, {"scriptPubKey": {"reqSigs": 1, "hex": "76a914381ea480d014a101835697c0413ed17a9980389d88ac", "addresses": ["167jYpy6GyAKBTzveiB7iLbrDfuKYA5u7q"], "asm": "OP_DUP OP_HASH160 381ea480d014a101835697c0413ed17a9980389d OP_EQUALVERIFY OP_CHECKSIG", "type": "pubkeyhash"}, "value": 0.07479339, "n": 1}], "hex": "0200000000010b1017e86c939cc31c564f7b4c29ea0894f39514e76a00e1e05bf16c994ad38379000000001716001421ca3991d13471d90450c06578475c990667e6adfeffffff142398e35497ae15b87faccb7c02ce4582ef64d40138bc2ddcc87b803fa776ab0000000017160014d373d56f6dad0fcfeff8a166fb235eaa8f39f890feffffff2b483def63f9d5bfe955f18910334505d7fe04dbcac1dd0640c584ba56a75ddc00000000171600140f8f30e4160f3496044563f392b19ace8fb077a5feffffff34c5f6cae083813628126e38d4d9814c93f1fe7a2d5cd9815918ab687a786a6f00000000171600147c5acd818a965fdaae1e8bfc88d982535a15eaa0feffffff616f680beba3c318ad67fe8d0ac03b6d300136f538e7d91d4738608620aaa0e80000000017160014a2d3c863378930bf09d0fadd6d7e5b91af7e857cfeffffff69fc8dfb8b06f086b0ee02b3d3d715b697dfcadebe2025a17b4d21523ec8313c0000000017160014c1831a7c8d8a869be9dc8d8d693e17f992239cb4feffffff842379aa73c4f1d15272e3481a7edfdf55477aed8fe8eb9465d19cb12d6049ed0100000017160014387153e946500cfbefc13f0a6bd56259a3c147bcfeffffff8a64a09d6c10449d25c3920b9f7fd7852ad6bcdc6e466b2b5c21fe2cb0bf57600100000017160014900471bcef05ef4eb96e53523c231059169beaf0feffffff8acb9012ee7716770f26c59ce6e7af14c6d106c7142c1682b3c5c857dbaae3da020000001716001494ff0360b57130c2aa4cec94005d7cfb0cda3dcbfeffffffbb71dd13212ae0a8e7cd89cd0922a50db223bcd3eab32c0c3db37a034c8426da00000000171600146b9326d01932e7da94b84f3efb5df58b3c450384feffffffbf0c19c480893311b45960be19f03c1a470f7b3655edee1c8b0945fb7527974e00000000171600147601a1dcf68c0a13c361425efea70086edca8814feffffff0256420f000000000017a9144a85299c76a8db99ce665547febe04f6b5869665872b207200000000001976a914381ea480d014a101835697c0413ed17a9980389d88ac024830450221009ca75b585b202c6ea7662a72dea8f38d6615141b06a16907320e29d8067ce2130220719aca72b3067595f826d35ec3cce0e4452c54a2acc6d52be54881c914eabad90121027c4498b50c35537fa18972a5f29573181a1044b9f37d2fa9973e0420ceaebeb70247304402205ecd6d577bed589f6b44dcb39c21b4a640f8a149dd758303e588f36167c4575c02207f6d9d2a7b2c1367909efac18ddcb87543e2be33a001077cbc3bd8f3e32baf8d012103bf47ec8fbe614e87358ec4b789cfc76010b62b363780efecefb8bc06e83b1e2002483045022100aa83423e61a94504c9e487b0661dba2b5eaa07e086239e556a5c77e944d135140220273cc09453c8a2617ffad1b657191b2829f98b41ab63d0b78477ee579d57e519012103dc6e59ff0566db7601d598f8d9965809363921a585c23a7230b9aeb4555ddcaa024730440220500b9fd0c503a3a748876577bb0a6d0d604ee2d09801bc4109dead8183e7b50f02207f390a120ec2362e77f7984b5fb0d139a116d0104f36e567d24a15c32cf529af0121021dd3184b16d40e114e271744526b6e75109aa4e682b75e2e783ca2ab0f3b7b5002483045022100ad3032944343e067431342c8cf317b9a8e01fc238f051409c27a020a11c947f50220255998966e93dee79244f647db64a6be7f154edcbf843d76f239e0dd2224a97f0121038644c1f1c70c409c592f1ffe62b6c541217ed2d5575358077fb3310becdd9f4702473044022076a9a80e1a6bdce3c6eb02973f4d492016142d2024a8b3953863cfbe6973376502201660402ff068f468fd3dddb41688f18705b2823c4f4f2e2231d8de36d409dbb701210214aee91e56cee7fe43a3dbd7498d3aea123d1169aaf5094a11d079882a43d5a3024730440220652975398cd4992c0e3deb87813fb009dd4c2876046bf0ca96f3894b1d557a4f022051e5dda1fa60d8bafebfbbf062e14bc73519371741d343c01baef7f16510b80701210203de457823547cdbc6ca797c0bac9c9ccef606f71ec7802a2e1b6c23f40a54720247304402206a18aca922f37f0274aaf3c8a4d5c0e08432564b3daf4c7affed78543ff73d7202201d1f4dee7baf18739595c3c17bf0c270556bc9a404a79ddfd8eb973f624942b401210285a9e0bfec77e54dd66819c2e0cabbd911fb8a46cf0f24b34a3434d3272187ab02473044022014ae6f3f157c7818583fd70ecafffec0e9e5c8802b88d31d2e698f8d147ed19502204165abcad0cefaefa2fe26d0d7f6610c8275fe0410116a3a7b57bf8057560e9901210298af2f86b17ef31f5eb2baa9d686d2904da763fb01c4d1fcfd058b7573ba05be0247304402202a4dd875020be1136a8ce66e921827a726476d8461ca7e7c0daa81a0267f6d8b0220250f6fb1e05492b2db77114d3b78de675c87cba21b9b09a7fb94f04ddb9967c20121024f2ca797b09d523bfce98e6a0949793547db46754c7712a28e29a3ad5c5fb62402483045022100fcec2bd2375a4e6fe4139b940e0ff5513d3edb83ced1145fa7691fb3504f22800220129704dbcadf356abdc7845b366591819573c7ded4ec32875ae0593e28c2bc030121022bf4e2700049d1b96502552defb9bfbcd3258632de6b90f26963981dd089aae00b490800", "vin": [{"txinwitness": ["30450221009ca75b585b202c6ea7662a72dea8f38d6615141b06a16907320e29d8067ce2130220719aca72b3067595f826d35ec3cce0e4452c54a2acc6d52be54881c914eabad901", "027c4498b50c35537fa18972a5f29573181a1044b9f37d2fa9973e0420ceaebeb7"], "sequence": 4294967294, "scriptSig": {"hex": "16001421ca3991d13471d90450c06578475c990667e6ad", "asm": "001421ca3991d13471d90450c06578475c990667e6ad"}, "vout": 0, "txid": "7983d34a996cf15be0e1006ae71495f39408ea294c7b4f561cc39c936ce81710"}, {"txinwitness": ["304402205ecd6d577bed589f6b44dcb39c21b4a640f8a149dd758303e588f36167c4575c02207f6d9d2a7b2c1367909efac18ddcb87543e2be33a001077cbc3bd8f3e32baf8d01", "03bf47ec8fbe614e87358ec4b789cfc76010b62b363780efecefb8bc06e83b1e20"], "sequence": 4294967294, "scriptSig": {"hex": "160014d373d56f6dad0fcfeff8a166fb235eaa8f39f890", "asm": "0014d373d56f6dad0fcfeff8a166fb235eaa8f39f890"}, "vout": 0, "txid": "ab76a73f807bc8dc2dbc3801d464ef8245ce027ccbac7fb815ae9754e3982314"}, {"txinwitness": ["3045022100aa83423e61a94504c9e487b0661dba2b5eaa07e086239e556a5c77e944d135140220273cc09453c8a2617ffad1b657191b2829f98b41ab63d0b78477ee579d57e51901", "03dc6e59ff0566db7601d598f8d9965809363921a585c23a7230b9aeb4555ddcaa"], "sequence": 4294967294, "scriptSig": {"hex": "1600140f8f30e4160f3496044563f392b19ace8fb077a5", "asm": "00140f8f30e4160f3496044563f392b19ace8fb077a5"}, "vout": 0, "txid": "dc5da756ba84c54006ddc1cadb04fed70545331089f155e9bfd5f963ef3d482b"}, {"txinwitness": ["30440220500b9fd0c503a3a748876577bb0a6d0d604ee2d09801bc4109dead8183e7b50f02207f390a120ec2362e77f7984b5fb0d139a116d0104f36e567d24a15c32cf529af01", "021dd3184b16d40e114e271744526b6e75109aa4e682b75e2e783ca2ab0f3b7b50"], "sequence": 4294967294, "scriptSig": {"hex": "1600147c5acd818a965fdaae1e8bfc88d982535a15eaa0", "asm": "00147c5acd818a965fdaae1e8bfc88d982535a15eaa0"}, "vout": 0, "txid": "6f6a787a68ab185981d95c2d7afef1934c81d9d4386e1228368183e0caf6c534"}, {"txinwitness": ["3045022100ad3032944343e067431342c8cf317b9a8e01fc238f051409c27a020a11c947f50220255998966e93dee79244f647db64a6be7f154edcbf843d76f239e0dd2224a97f01", "038644c1f1c70c409c592f1ffe62b6c541217ed2d5575358077fb3310becdd9f47"], "sequence": 4294967294, "scriptSig": {"hex": "160014a2d3c863378930bf09d0fadd6d7e5b91af7e857c", "asm": "0014a2d3c863378930bf09d0fadd6d7e5b91af7e857c"}, "vout": 0, "txid": "e8a0aa20866038471dd9e738f53601306d3bc00a8dfe67ad18c3a3eb0b686f61"}, {"txinwitness": ["3044022076a9a80e1a6bdce3c6eb02973f4d492016142d2024a8b3953863cfbe6973376502201660402ff068f468fd3dddb41688f18705b2823c4f4f2e2231d8de36d409dbb701", "0214aee91e56cee7fe43a3dbd7498d3aea123d1169aaf5094a11d079882a43d5a3"], "sequence": 4294967294, "scriptSig": {"hex": "160014c1831a7c8d8a869be9dc8d8d693e17f992239cb4", "asm": "0014c1831a7c8d8a869be9dc8d8d693e17f992239cb4"}, "vout": 0, "txid": "3c31c83e52214d7ba12520bedecadf97b615d7d3b302eeb086f0068bfb8dfc69"}, {"txinwitness": ["30440220652975398cd4992c0e3deb87813fb009dd4c2876046bf0ca96f3894b1d557a4f022051e5dda1fa60d8bafebfbbf062e14bc73519371741d343c01baef7f16510b80701", "0203de457823547cdbc6ca797c0bac9c9ccef606f71ec7802a2e1b6c23f40a5472"], "sequence": 4294967294, "scriptSig": {"hex": "160014387153e946500cfbefc13f0a6bd56259a3c147bc", "asm": "0014387153e946500cfbefc13f0a6bd56259a3c147bc"}, "vout": 1, "txid": "ed49602db19cd16594ebe88fed7a4755dfdf7e1a48e37252d1f1c473aa792384"}, {"txinwitness": ["304402206a18aca922f37f0274aaf3c8a4d5c0e08432564b3daf4c7affed78543ff73d7202201d1f4dee7baf18739595c3c17bf0c270556bc9a404a79ddfd8eb973f624942b401", "0285a9e0bfec77e54dd66819c2e0cabbd911fb8a46cf0f24b34a3434d3272187ab"], "sequence": 4294967294, "scriptSig": {"hex": "160014900471bcef05ef4eb96e53523c231059169beaf0", "asm": "0014900471bcef05ef4eb96e53523c231059169beaf0"}, "vout": 1, "txid": "6057bfb02cfe215c2b6b466edcbcd62a85d77f9f0b92c3259d44106c9da0648a"}, {"txinwitness": ["3044022014ae6f3f157c7818583fd70ecafffec0e9e5c8802b88d31d2e698f8d147ed19502204165abcad0cefaefa2fe26d0d7f6610c8275fe0410116a3a7b57bf8057560e9901", "0298af2f86b17ef31f5eb2baa9d686d2904da763fb01c4d1fcfd058b7573ba05be"], "sequence": 4294967294, "scriptSig": {"hex": "16001494ff0360b57130c2aa4cec94005d7cfb0cda3dcb", "asm": "001494ff0360b57130c2aa4cec94005d7cfb0cda3dcb"}, "vout": 2, "txid": "dae3aadb57c8c5b382162c14c706d1c614afe7e69cc5260f771677ee1290cb8a"}, {"txinwitness": ["304402202a4dd875020be1136a8ce66e921827a726476d8461ca7e7c0daa81a0267f6d8b0220250f6fb1e05492b2db77114d3b78de675c87cba21b9b09a7fb94f04ddb9967c201", "024f2ca797b09d523bfce98e6a0949793547db46754c7712a28e29a3ad5c5fb624"], "sequence": 4294967294, "scriptSig": {"hex": "1600146b9326d01932e7da94b84f3efb5df58b3c450384", "asm": "00146b9326d01932e7da94b84f3efb5df58b3c450384"}, "vout": 0, "txid": "da26844c037ab33d0c2cb3ead3bc23b20da52209cd89cde7a8e02a2113dd71bb"}, {"txinwitness": ["3045022100fcec2bd2375a4e6fe4139b940e0ff5513d3edb83ced1145fa7691fb3504f22800220129704dbcadf356abdc7845b366591819573c7ded4ec32875ae0593e28c2bc0301", "022bf4e2700049d1b96502552defb9bfbcd3258632de6b90f26963981dd089aae0"], "sequence": 4294967294, "scriptSig": {"hex": "1600147601a1dcf68c0a13c361425efea70086edca8814", "asm": "00147601a1dcf68c0a13c361425efea70086edca8814"}, "vout": 0, "txid": "4e972775fb45098b1ceeed55367b0f471a3cf019be6059b411338980c4190cbf"}], "txid": "7a4bfae30b20a2f84a5ac25aeab41bdc1d8c6213342259f59c0b0926ab3c2ae9", "blocktime": 1537870268, "version": 2, "confirmations": 11518, "time": 1537870268, "locktime": 542987, "vsize": 1076, "size": 1963}