{"hash": "7a58da03dcd84275c87fdf701698370cdbfa2a32fd6c4e07cffd4e5fcec3c500", "blockhash": "0000000000000000000dcc0f55137456b1a82d3642486a52398922ac4d620174", "vout": [{"scriptPubKey": {"reqSigs": 1, "hex": "76a9145c540d13cc3cb7ac0715ab89d313c851452e01d288ac", "addresses": ["19RBrcxrL5SSn3jy9xTz6mNVUjXL4WNfuk"], "asm": "OP_DUP OP_HASH160 5c540d13cc3cb7ac0715ab89d313c851452e01d2 OP_EQUALVERIFY OP_CHECKSIG", "type": "pubkeyhash"}, "value": 0.01102567, "n": 0}, {"scriptPubKey": {"reqSigs": 1, "hex": "76a914fb9d7ae19290be46e6590defc069a1574364df7188ac", "addresses": ["1PwRG41px4ZY1piG4eizGBjUrYDsJPFxbF"], "asm": "OP_DUP OP_HASH160 fb9d7ae19290be46e6590defc069a1574364df71 OP_EQUALVERIFY OP_CHECKSIG", "type": "pubkeyhash"}, "value": 0.0779651, "n": 1}], "hex": "0100000001f625e366ca1769927a4c98655e22ec257f6c9fb89463a91d97027e9be6a76de7010000006a47304402201ef1cd2a7eca60e5321124c4a2bf392a2ad3cf5016d1277ea28438181d94932002202298d89a0362c21330c65a0d6fc29f7b4264bcf2accf88fb43b549638984e54a012103098c8773864edf9a25a2a8cf7e7c192556a342e329e01811f5759b1f84c503e8ffffffff02e7d21000000000001976a9145c540d13cc3cb7ac0715ab89d313c851452e01d288ac1ef77600000000001976a914fb9d7ae19290be46e6590defc069a1574364df7188ac00000000", "vin": [{"sequence": 4294967295, "scriptSig": {"hex": "47304402201ef1cd2a7eca60e5321124c4a2bf392a2ad3cf5016d1277ea28438181d94932002202298d89a0362c21330c65a0d6fc29f7b4264bcf2accf88fb43b549638984e54a012103098c8773864edf9a25a2a8cf7e7c192556a342e329e01811f5759b1f84c503e8", "asm": "304402201ef1cd2a7eca60e5321124c4a2bf392a2ad3cf5016d1277ea28438181d94932002202298d89a0362c21330c65a0d6fc29f7b4264bcf2accf88fb43b549638984e54a[ALL] 03098c8773864edf9a25a2a8cf7e7c192556a342e329e01811f5759b1f84c503e8"}, "vout": 1, "txid": "e76da7e69b7e02971da96394b89f6c7f25ec225e65984c7a926917ca66e325f6"}], "txid": "7a58da03dcd84275c87fdf701698370cdbfa2a32fd6c4e07cffd4e5fcec3c500", "blocktime": 1537870268, "version": 1, "confirmations": 11518, "time": 1537870268, "locktime": 0, "vsize": 225, "size": 225}