{"hash": "7a595a05839896c1ce1150f33fff3a61c68440128f728b52d9f4b9ac381884cf", "blockhash": "0000000000000000000dcc0f55137456b1a82d3642486a52398922ac4d620174", "vout": [{"scriptPubKey": {"reqSigs": 1, "hex": "a91469f37719f18dd9751d0088fc4063f970fd7f730687", "addresses": ["3BMEXwuAfWRodX9gz7d2eumyqPprYTFJeE"], "asm": "OP_HASH160 69f37719f18dd9751d0088fc4063f970fd7f7306 OP_EQUAL", "type": "scripthash"}, "value": 0.1995, "n": 0}, {"scriptPubKey": {"reqSigs": 1, "hex": "a91429d110f1acd92bb94143495fe80a2f0965ea17cd87", "addresses": ["35W85aiiDUUt5DiQwTvJGBr3VWq9gkhtLw"], "asm": "OP_HASH160 29d110f1acd92bb94143495fe80a2f0965ea17cd OP_EQUAL", "type": "scripthash"}, "value": 0.01305067, "n": 1}, {"scriptPubKey": {"reqSigs": 1, "hex": "a91470a3d5c98e87c803931b760245330b7f3a7d325887", "addresses": ["3BxbsVTopTENEvJomNqdsstZeYBwdBoUhP"], "asm": "OP_HASH160 70a3d5c98e87c803931b760245330b7f3a7d3258 OP_EQUAL", "type": "scripthash"}, "value": 0.0116898, "n": 2}, {"scriptPubKey": {"reqSigs": 1, "hex": "a91469f375f1e7d807bc7133570167d71d8e495a52a387", "addresses": ["3BMEXdhLyDTEqLYmgrTAKzUA7eSU9p3cUz"], "asm": "OP_HASH160 69f375f1e7d807bc7133570167d71d8e495a52a3 OP_EQUAL", "type": "scripthash"}, "value": 0.02032086, "n": 3}, {"scriptPubKey": {"reqSigs": 1, "hex": "a91469f375cb57656a4b4568f9ba25bb8c66e12ab76087", "addresses": ["3BMEXbKofMwEMuYMJjDc6H7SnDTgvtBYyW"], "asm": "OP_HASH160 69f375cb57656a4b4568f9ba25bb8c66e12ab760 OP_EQUAL", "type": "scripthash"}, "value": 0.1, "n": 4}, {"scriptPubKey": {"reqSigs": 1, "hex": "a91469f375fcf3612edbf8a476278fac0550f790399287", "addresses": ["3BMEXeNjizsCX5j6kTtKND2r5UuXBqY6ru"], "asm": "OP_HASH160 69f375fcf3612edbf8a476278fac0550f7903992 OP_EQUAL", "type": "scripthash"}, "value": 0.8, "n": 5}, {"scriptPubKey": {"reqSigs": 1, "hex": "a914d2bc01bb6493e8011802596e7d6c4759bb7e376d87", "addresses": ["3LuH3mTCtcf7w7iz8kzb2a119aQy7NTL29"], "asm": "OP_HASH160 d2bc01bb6493e8011802596e7d6c4759bb7e376d OP_EQUAL", "type": "scripthash"}, "value": 0.43209601, "n": 6}, {"scriptPubKey": {"reqSigs": 1, "hex": "a914fe66efcbc74fc9d60d99554d634ee58bcf3c4d5687", "addresses": ["3QtAsSFdw44EWqAs9UoSowJh7SQ2FoRsLV"], "asm": "OP_HASH160 fe66efcbc74fc9d60d99554d634ee58bcf3c4d56 OP_EQUAL", "type": "scripthash"}, "value": 0.055001, "n": 7}, {"scriptPubKey": {"reqSigs": 1, "hex": "76a9141ced4c191afa494da3745f13dfcd28623e0ac60588ac", "addresses": ["13dxC5HEfyKo1CbBRDnt5WahWMnAKkCrYa"], "asm": "OP_DUP OP_HASH160 1ced4c191afa494da3745f13dfcd28623e0ac605 OP_EQUALVERIFY OP_CHECKSIG", "type": "pubkeyhash"}, "value": 0.6895, "n": 8}, {"scriptPubKey": {"reqSigs": 1, "hex": "a91469f373abc7d839154924928f8f4ff92715d1fcb487", "addresses": ["3BMEX1uBzWuay1DPvGRE5jBb4S8Zgzqj76"], "asm": "OP_HASH160 69f373abc7d839154924928f8f4ff92715d1fcb4 OP_EQUAL", "type": "scripthash"}, "value": 0.16136825, "n": 9}, {"scriptPubKey": {"reqSigs": 1, "hex": "a914d7d408093d48086f3ba96d0163e26296dfd38f4c87", "addresses": ["3MNDCzBDYdvvnkZLrHqWv3nTkviaq7JFYu"], "asm": "OP_HASH160 d7d408093d48086f3ba96d0163e26296dfd38f4c OP_EQUAL", "type": "scripthash"}, "value": 0.03294793, "n": 10}, {"scriptPubKey": {"reqSigs": 1, "hex": "76a91469160b4fa752aa3f69b5148adb753d9fe72cce6688ac", "addresses": ["1AaeMoLi2gW7TLQeDjCC5mHZzFNLGi5oEG"], "asm": "OP_DUP OP_HASH160 69160b4fa752aa3f69b5148adb753d9fe72cce66 OP_EQUALVERIFY OP_CHECKSIG", "type": "pubkeyhash"}, "value": 0.047, "n": 11}, {"scriptPubKey": {"reqSigs": 1, "hex": "76a914391f02473042588e6168ec8debccb73e686d430188ac", "addresses": ["16D2fUHPrzuHrfTfhgPaABkZypWKsGLHQ2"], "asm": "OP_DUP OP_HASH160 391f02473042588e6168ec8debccb73e686d4301 OP_EQUALVERIFY OP_CHECKSIG", "type": "pubkeyhash"}, "value": 0.1425, "n": 12}, {"scriptPubKey": {"reqSigs": 1, "hex": "76a9145cf19bf02e2f64740f54aa4752c1af34a7349c7b88ac", "addresses": ["19USbwpzyPNZhXW4MN6pBCT6DQXzq25vBS"], "asm": "OP_DUP OP_HASH160 5cf19bf02e2f64740f54aa4752c1af34a7349c7b OP_EQUALVERIFY OP_CHECKSIG", "type": "pubkeyhash"}, "value": 1.9195, "n": 13}, {"scriptPubKey": {"reqSigs": 1, "hex": "a91403f65f462a532db5996fe33b246336b10b27a60487", "addresses": ["323y6MgJxJCWSSQtULxPuNQ9E8WPSyyoX3"], "asm": "OP_HASH160 03f65f462a532db5996fe33b246336b10b27a604 OP_EQUAL", "type": "scripthash"}, "value": 0.99200386, "n": 14}, {"scriptPubKey": {"reqSigs": 1, "hex": "a91469f37457c9fb12f0e2fcca6f1626c2d22b0904c587", "addresses": ["3BMEXCUfE1SxxxAWBaJ7wmAwYQyk4enzeQ"], "asm": "OP_HASH160 69f37457c9fb12f0e2fcca6f1626c2d22b0904c5 OP_EQUAL", "type": "scripthash"}, "value": 0.04, "n": 15}, {"scriptPubKey": {"reqSigs": 1, "hex": "76a9148a164394d5391223564f0a6762f9a16839082b9488ac", "addresses": ["1Db8vQJQYhZ4wPeDxCM3K9tEurPU5TbbPW"], "asm": "OP_DUP OP_HASH160 8a164394d5391223564f0a6762f9a16839082b94 OP_EQUALVERIFY OP_CHECKSIG", "type": "pubkeyhash"}, "value": 0.02292465, "n": 16}, {"scriptPubKey": {"reqSigs": 1, "hex": "76a914d72f96aca9e85ecc775db5c96cbca2d76773b32988ac", "addresses": ["1LcoHkpW1wRBEaMBQgabE1nLWshNbXAiR7"], "asm": "OP_DUP OP_HASH160 d72f96aca9e85ecc775db5c96cbca2d76773b329 OP_EQUALVERIFY OP_CHECKSIG", "type": "pubkeyhash"}, "value": 0.00985408, "n": 17}, {"scriptPubKey": {"reqSigs": 1, "hex": "a914f15e2440e1dd95e319de18a0298a369c54d13daa87", "addresses": ["3PhFYrCBpQCWa837FNfS4X6MbtrBApjJzU"], "asm": "OP_HASH160 f15e2440e1dd95e319de18a0298a369c54d13daa OP_EQUAL", "type": "scripthash"}, "value": 0.11058667, "n": 18}, {"scriptPubKey": {"reqSigs": 1, "hex": "a9149fcd3e0d21738dfeaa5d01d22bf93dee2559321187", "addresses": ["3GFyEY32bFMxCDjJoT81f2zxD6z4W5CUoN"], "asm": "OP_HASH160 9fcd3e0d21738dfeaa5d01d22bf93dee25593211 OP_EQUAL", "type": "scripthash"}, "value": 0.24802868, "n": 19}, {"scriptPubKey": {"reqSigs": 1, "hex": "a9145273c1763e014dda24fb6dca97894f81fcf05f1587", "addresses": ["39Cz181Mqyu5JdfXGYg4ZzmmTwUh88c9U9"], "asm": "OP_HASH160 5273c1763e014dda24fb6dca97894f81fcf05f15 OP_EQUAL", "type": "scripthash"}, "value": 0.00209112, "n": 20}, {"scriptPubKey": {"reqSigs": 1, "hex": "a9141c5fa1f4eb94e983144d9c9a5f0b04a71464029d87", "addresses": ["34H3Qb2okYvQNXDuiV4ZfqU5xvAH2h3DUe"], "asm": "OP_HASH160 1c5fa1f4eb94e983144d9c9a5f0b04a71464029d OP_EQUAL", "type": "scripthash"}, "value": 0.13937106, "n": 21}, {"scriptPubKey": {"reqSigs": 1, "hex": "a914952f3a43d4d1f1611cc40aefe562e6ef4b20d7f587", "addresses": ["3FHqBZHeaTpdv7xGAdJcYhyxE9RaPxdNiY"], "asm": "OP_HASH160 952f3a43d4d1f1611cc40aefe562e6ef4b20d7f5 OP_EQUAL", "type": "scripthash"}, "value": 0.0015, "n": 22}, {"scriptPubKey": {"reqSigs": 1, "hex": "76a9142088b139488c2c6021ec4ddb2039c6c2feeda7f688ac", "addresses": ["13y2NgiNqagvVu19QxNPazg18Punizn27p"], "asm": "OP_DUP OP_HASH160 2088b139488c2c6021ec4ddb2039c6c2feeda7f6 OP_EQUALVERIFY OP_CHECKSIG", "type": "pubkeyhash"}, "value": 0.08009398, "n": 23}, {"scriptPubKey": {"reqSigs": 1, "hex": "a914c464cd68d8036f20318818ad7e4f62bc49bf759a87", "addresses": ["3KbT81opz88HhxdxKLJqXcH9EAYm1144c3"], "asm": "OP_HASH160 c464cd68d8036f20318818ad7e4f62bc49bf759a OP_EQUAL", "type": "scripthash"}, "value": 0.029, "n": 24}, {"scriptPubKey": {"reqSigs": 1, "hex": "a9149c731a8b3af80d60f4a35275d26f6ff1377d3e8287", "addresses": ["3FxFE1kGJ5kTxLjV5pAeLSRjigNzikHQCr"], "asm": "OP_HASH160 9c731a8b3af80d60f4a35275d26f6ff1377d3e82 OP_EQUAL", "type": "scripthash"}, "value": 0.34065071, "n": 25}, {"scriptPubKey": {"reqSigs": 1, "hex": "a91479c7aebd9d455762bee0be55652231c361c10c7c87", "addresses": ["3CnvtwiUCKbEHJTPXzZNk9J8mgecDRaiqe"], "asm": "OP_HASH160 79c7aebd9d455762bee0be55652231c361c10c7c OP_EQUAL", "type": "scripthash"}, "value": 0.0860002, "n": 26}, {"scriptPubKey": {"reqSigs": 1, "hex": "a91484219499ed1bf12dd2acb6fa96a43310caf02e6087", "addresses": ["3DjfM5TFxY2a4EirrxuQSdva8DH3uLNFFe"], "asm": "OP_HASH160 84219499ed1bf12dd2acb6fa96a43310caf02e60 OP_EQUAL", "type": "scripthash"}, "value": 0.005145, "n": 27}, {"scriptPubKey": {"reqSigs": 1, "hex": "76a91492e599c225cda7a90822a60f729364de04189f7488ac", "addresses": ["1EPihwQ766NC6ru1bB7MJBgdUimZo5ZhSB"], "asm": "OP_DUP OP_HASH160 92e599c225cda7a90822a60f729364de04189f74 OP_EQUALVERIFY OP_CHECKSIG", "type": "pubkeyhash"}, "value": 0.1091, "n": 28}, {"scriptPubKey": {"reqSigs": 1, "hex": "76a914228c9421d19b86d656354572437ffec9af3f0da488ac", "addresses": ["149gP6epjqLE1CD8cTDkBwStSEdryNjfbY"], "asm": "OP_DUP OP_HASH160 228c9421d19b86d656354572437ffec9af3f0da4 OP_EQUALVERIFY OP_CHECKSIG", "type": "pubkeyhash"}, "value": 0.0081, "n": 29}, {"scriptPubKey": {"reqSigs": 1, "hex": "a91469f376af21da5fffe2457b945b8e0e29f0883eb187", "addresses": ["3BMEXqLDvrPC79JFcpVCuMisorwn6g93zM"], "asm": "OP_HASH160 69f376af21da5fffe2457b945b8e0e29f0883eb1 OP_EQUAL", "type": "scripthash"}, "value": 0.00650028, "n": 30}, {"scriptPubKey": {"reqSigs": 1, "hex": "a9147447de72d509c782e75a51c79c2534f1d5c527e887", "addresses": ["3CHrQLXnne3f8F2TJG9YMjRhvds2q96NJv"], "asm": "OP_HASH160 7447de72d509c782e75a51c79c2534f1d5c527e8 OP_EQUAL", "type": "scripthash"}, "value": 0.36729511, "n": 31}, {"scriptPubKey": {"reqSigs": 1, "hex": "76a9149e56b418e34e1dc010ef7e8e4560d2b3857baf4188ac", "addresses": ["1FSDdaK3Zt3TMZf2SDHVYsG4zjv3SX5CU2"], "asm": "OP_DUP OP_HASH160 9e56b418e34e1dc010ef7e8e4560d2b3857baf41 OP_EQUALVERIFY OP_CHECKSIG", "type": "pubkeyhash"}, "value": 0.00964187, "n": 32}, {"scriptPubKey": {"reqSigs": 1, "hex": "a91469f3741c3991036e59f52a3fe2bd4e1f783b012187", "addresses": ["3BMEX8pDwAjmRTrqm2ASHd5jEijv2Qnp48"], "asm": "OP_HASH160 69f3741c3991036e59f52a3fe2bd4e1f783b0121 OP_EQUAL", "type": "scripthash"}, "value": 0.01503747, "n": 33}, {"scriptPubKey": {"reqSigs": 1, "hex": "a914d1600096fa333f79bf2822ebc71c83b8ee1eab6887", "addresses": ["3Ln69zZm8sEb3xVUBHVHEFr3Hv5zBjs1HP"], "asm": "OP_HASH160 d1600096fa333f79bf2822ebc71c83b8ee1eab68 OP_EQUAL", "type": "scripthash"}, "value": 0.09712301, "n": 34}, {"scriptPubKey": {"reqSigs": 1, "hex": "76a914447b0e0686b53a9486621ba1854d763f2fa5ae7c88ac", "addresses": ["17F6N3Np4CMiQfgMgafTzrqy1mjxcTQ2eN"], "asm": "OP_DUP OP_HASH160 447b0e0686b53a9486621ba1854d763f2fa5ae7c OP_EQUALVERIFY OP_CHECKSIG", "type": "pubkeyhash"}, "value": 0.11482659, "n": 35}, {"scriptPubKey": {"reqSigs": 1, "hex": "a91483d81a6bc0a21d3b323e4dea46123d9d4dd7685c87", "addresses": ["3Di9KndeDBu9Pi3NR5aoQ2WKYEnEaLT5ET"], "asm": "OP_HASH160 83d81a6bc0a21d3b323e4dea46123d9d4dd7685c OP_EQUAL", "type": "scripthash"}, "value": 0.0205, "n": 36}, {"scriptPubKey": {"reqSigs": 1, "hex": "76a914c3f7cbc14e0e0ad01986cd0f05959cadb1e2d3f588ac", "addresses": ["1JsBca1i2ykTgf9yXK2kf6PD3siU1SUi2Y"], "asm": "OP_DUP OP_HASH160 c3f7cbc14e0e0ad01986cd0f05959cadb1e2d3f5 OP_EQUALVERIFY OP_CHECKSIG", "type": "pubkeyhash"}, "value": 0.00680112, "n": 37}, {"scriptPubKey": {"reqSigs": 1, "hex": "a91472a9cd9d672cc57626be56bbd9ba14c1df3e12c687", "addresses": ["3C9JNYXfJTCawhxHHAoyssFQBMuHKs8v7U"], "asm": "OP_HASH160 72a9cd9d672cc57626be56bbd9ba14c1df3e12c6 OP_EQUAL", "type": "scripthash"}, "value": 0.02045037, "n": 38}, {"scriptPubKey": {"reqSigs": 1, "hex": "76a914269bb031f8c6854313821c3b1a18e6f5e5b2d0d788ac", "addresses": ["14X9BhaiNxSgdDz3Deb9RG814QdymGQw4x"], "asm": "OP_DUP OP_HASH160 269bb031f8c6854313821c3b1a18e6f5e5b2d0d7 OP_EQUALVERIFY OP_CHECKSIG", "type": "pubkeyhash"}, "value": 1.0, "n": 39}, {"scriptPubKey": {"reqSigs": 1, "hex": "a914f5789c2a29404bbf81afa515be4cbf584120e2f287", "addresses": ["3Q4wxfzsorxkc9DPbTLH4YJbrYooF9gZqQ"], "asm": "OP_HASH160 f5789c2a29404bbf81afa515be4cbf584120e2f2 OP_EQUAL", "type": "scripthash"}, "value": 0.78091, "n": 40}, {"scriptPubKey": {"reqSigs": 1, "hex": "a9147c95e8706775659dfd88e9732fa97bef365eecae87", "addresses": ["3D3mJ7qiLoXHK7WUhdcsNC1CRqSYvssijA"], "asm": "OP_HASH160 7c95e8706775659dfd88e9732fa97bef365eecae OP_EQUAL", "type": "scripthash"}, "value": 0.02048745, "n": 41}, {"scriptPubKey": {"reqSigs": 1, "hex": "76a914daa323aeb44925f1e20d1dcc388da21728a7327788ac", "addresses": ["1Lw3jweWs2GuTMHHmhigyRpFpTmAJBtkWx"], "asm": "OP_DUP OP_HASH160 daa323aeb44925f1e20d1dcc388da21728a73277 OP_EQUALVERIFY OP_CHECKSIG", "type": "pubkeyhash"}, "value": 0.06654842, "n": 42}, {"scriptPubKey": {"reqSigs": 1, "hex": "a9142762f47e0a747e8db07a742f809d400bd61ab35287", "addresses": ["35HGpYQyhnVv6nEtr4aXgVVpNeJjVij8MC"], "asm": "OP_HASH160 2762f47e0a747e8db07a742f809d400bd61ab352 OP_EQUAL", "type": "scripthash"}, "value": 0.14070141, "n": 43}, {"scriptPubKey": {"reqSigs": 1, "hex": "a91489a62636faecd32b56879f95f3d4457c5a8fb9cf87", "addresses": ["3EEqY5WmioyB4LyRborppkT7E8yc16AkGG"], "asm": "OP_HASH160 89a62636faecd32b56879f95f3d4457c5a8fb9cf OP_EQUAL", "type": "scripthash"}, "value": 0.10486, "n": 44}, {"scriptPubKey": {"reqSigs": 1, "hex": "76a914e542cb6d30a3f5f7b1f8ff4294abfc28c331f57e88ac", "addresses": ["1MuDkuJWkJ2dXYqe7YEiagKA783WrqwRnM"], "asm": "OP_DUP OP_HASH160 e542cb6d30a3f5f7b1f8ff4294abfc28c331f57e OP_EQUALVERIFY OP_CHECKSIG", "type": "pubkeyhash"}, "value": 0.00720745, "n": 45}, {"scriptPubKey": {"reqSigs": 1, "hex": "a9141a44aeb569c7893d6ccb4af79b407000716e92c887", "addresses": ["345umfvweeTGdUg7Ystnyhh5Q23fMyFu34"], "asm": "OP_HASH160 1a44aeb569c7893d6ccb4af79b407000716e92c8 OP_EQUAL", "type": "scripthash"}, "value": 0.00755144, "n": 46}, {"scriptPubKey": {"reqSigs": 1, "hex": "76a914925301b45ddd114c896134f9b020a5ad28adf8cf88ac", "addresses": ["1ELh6QqXmRtu1MHvPcJZyATGKgUbiHDU3s"], "asm": "OP_DUP OP_HASH160 925301b45ddd114c896134f9b020a5ad28adf8cf OP_EQUALVERIFY OP_CHECKSIG", "type": "pubkeyhash"}, "value": 0.00761564, "n": 47}, {"scriptPubKey": {"reqSigs": 1, "hex": "76a91452f6e5bedb469def5411e61b7ab327f87c4dfcaa88ac", "addresses": ["18ZgBTyyD2jd4VyoHtFTLfXFjVK65uLhpk"], "asm": "OP_DUP OP_HASH160 52f6e5bedb469def5411e61b7ab327f87c4dfcaa OP_EQUALVERIFY OP_CHECKSIG", "type": "pubkeyhash"}, "value": 1.82178289, "n": 48}, {"scriptPubKey": {"reqSigs": 1, "hex": "76a914c983edf26d8c88d7b4b29d378a45f60a90a561ec88ac", "addresses": ["1KNWsBNsQ13xeJLhj13vUbG4FLX7ScVjgR"], "asm": "OP_DUP OP_HASH160 c983edf26d8c88d7b4b29d378a45f60a90a561ec OP_EQUALVERIFY OP_CHECKSIG", "type": "pubkeyhash"}, "value": 0.01339969, "n": 49}, {"scriptPubKey": {"reqSigs": 1, "hex": "a91469f375de530439d4dbb31eed487df41e2ff038d287", "addresses": ["3BMEXcVWRB8hkpWPj3127B8PyHXhA1MAN2"], "asm": "OP_HASH160 69f375de530439d4dbb31eed487df41e2ff038d2 OP_EQUAL", "type": "scripthash"}, "value": 0.24373183, "n": 50}, {"scriptPubKey": {"reqSigs": 1, "hex": "76a914453e4a4f1077a9ea269f0394e8f87af3e6e8bdd088ac", "addresses": ["17K8FEvZNtZGheivzxiSK96mM7Nebeu1J5"], "asm": "OP_DUP OP_HASH160 453e4a4f1077a9ea269f0394e8f87af3e6e8bdd0 OP_EQUALVERIFY OP_CHECKSIG", "type": "pubkeyhash"}, "value": 0.03235711, "n": 51}, {"scriptPubKey": {"reqSigs": 1, "hex": "a914ec2bc097bdc2f438754e8faa17d3eaff568f165387", "addresses": ["3PDmonBqXvBc46eKwNC2tj8jGftzPrrhKa"], "asm": "OP_HASH160 ec2bc097bdc2f438754e8faa17d3eaff568f1653 OP_EQUAL", "type": "scripthash"}, "value": 0.05056488, "n": 52}, {"scriptPubKey": {"reqSigs": 1, "hex": "76a9143bf6dd0c80941c5b7e5c491d92178aa78602e09288ac", "addresses": ["16U4bhBMKoqyG3UX16jipMF4r2Exwcg6AR"], "asm": "OP_DUP OP_HASH160 3bf6dd0c80941c5b7e5c491d92178aa78602e092 OP_EQUALVERIFY OP_CHECKSIG", "type": "pubkeyhash"}, "value": 0.02649288, "n": 53}, {"scriptPubKey": {"reqSigs": 1, "hex": "76a914f5a52cc83f21e2481ebcf316831c83b3ae4e1d4388ac", "addresses": ["1PPrRZ84Vw1dQgo7VKQUQyojBejGnqiQDD"], "asm": "OP_DUP OP_HASH160 f5a52cc83f21e2481ebcf316831c83b3ae4e1d43 OP_EQUALVERIFY OP_CHECKSIG", "type": "pubkeyhash"}, "value": 1.9995, "n": 54}, {"scriptPubKey": {"reqSigs": 1, "hex": "a91469f373abb144f18e024f285d335f521556f7c6c587", "addresses": ["3BMEX1tskVqdKMTLW3TjhZHR5NbspXmzsJ"], "asm": "OP_HASH160 69f373abb144f18e024f285d335f521556f7c6c5 OP_EQUAL", "type": "scripthash"}, "value": 0.00158121, "n": 55}, {"scriptPubKey": {"reqSigs": 1, "hex": "76a914717fdcba81decde8bc266a1f9ed5ea55304e34a588ac", "addresses": ["1BM8XhamA8cjVTgs3Doxcbqaqf8V5RpLuY"], "asm": "OP_DUP OP_HASH160 717fdcba81decde8bc266a1f9ed5ea55304e34a5 OP_EQUALVERIFY OP_CHECKSIG", "type": "pubkeyhash"}, "value": 1.36585507, "n": 56}, {"scriptPubKey": {"reqSigs": 1, "hex": "76a9149ed7fabb4e9e03e0146638fe4e52dab1037132b288ac", "addresses": ["1FUtVphexyzczmCGEmY2k1BmCuxThYRkfL"], "asm": "OP_DUP OP_HASH160 9ed7fabb4e9e03e0146638fe4e52dab1037132b2 OP_EQUALVERIFY OP_CHECKSIG", "type": "pubkeyhash"}, "value": 0.02151144, "n": 57}, {"scriptPubKey": {"reqSigs": 1, "hex": "a91448f2215db1c1a5c0ab0ffc4cbb9a7ec037e5297187", "addresses": ["38LidsCDQwwYEoyafysNvQUEw3uQeUMDa9"], "asm": "OP_HASH160 48f2215db1c1a5c0ab0ffc4cbb9a7ec037e52971 OP_EQUAL", "type": "scripthash"}, "value": 0.04875407, "n": 58}, {"scriptPubKey": {"reqSigs": 1, "hex": "76a9146b8cea1f6f63a1a754d96804070c69f60276c5e088ac", "addresses": ["1Aog7SWnvhTeLfsw3DMqhmBhd5oPpTWQz5"], "asm": "OP_DUP OP_HASH160 6b8cea1f6f63a1a754d96804070c69f60276c5e0 OP_EQUALVERIFY OP_CHECKSIG", "type": "pubkeyhash"}, "value": 0.267536, "n": 59}, {"scriptPubKey": {"reqSigs": 1, "hex": "a914c8b7e18e3a26aca2a549bac5f20120a7cba69ac587", "addresses": ["3KzKMC2pj5JfXHmWie74JoNyHkupFGE61J"], "asm": "OP_HASH160 c8b7e18e3a26aca2a549bac5f20120a7cba69ac5 OP_EQUAL", "type": "scripthash"}, "value": 0.00813022, "n": 60}, {"scriptPubKey": {"reqSigs": 1, "hex": "a9141e1076e0e7698e6bb93bb565e3a31f8d31b2df7787", "addresses": ["34RyvGDKBufVFUjL3opKf3JPep9poGJQR8"], "asm": "OP_HASH160 1e1076e0e7698e6bb93bb565e3a31f8d31b2df77 OP_EQUAL", "type": "scripthash"}, "value": 0.27920135, "n": 61}, {"scriptPubKey": {"reqSigs": 1, "hex": "a91469f3744f22b57e581ddd33cc48eb37433291bcb287", "addresses": ["3BMEXBwoChF6ZYExbY5519149KVqMLkUph"], "asm": "OP_HASH160 69f3744f22b57e581ddd33cc48eb37433291bcb2 OP_EQUAL", "type": "scripthash"}, "value": 0.02347645, "n": 62}, {"scriptPubKey": {"reqSigs": 1, "hex": "a91469f3754bf67d43a8828e78a1c2ba646c5baf42a187", "addresses": ["3BMEXTVWSeyDTe5GJHuNJzAZVdpoyDgBrQ"], "asm": "OP_HASH160 69f3754bf67d43a8828e78a1c2ba646c5baf42a1 OP_EQUAL", "type": "scripthash"}, "value": 0.29494796, "n": 63}, {"scriptPubKey": {"reqSigs": 1, "hex": "76a91431818a76bf6bf3c03b07837a6819aac8019b37cf88ac", "addresses": ["15WmJ4LE644A9HA8StStedtfNFzoGzUAfp"], "asm": "OP_DUP OP_HASH160 31818a76bf6bf3c03b07837a6819aac8019b37cf OP_EQUALVERIFY OP_CHECKSIG", "type": "pubkeyhash"}, "value": 0.001647, "n": 64}, {"scriptPubKey": {"reqSigs": 1, "hex": "76a9140c8af6b593f51500155f2115d197f50789c3e81188ac", "addresses": ["129KafqoCm44PnN1PkaFR68XbE6YCzKw6a"], "asm": "OP_DUP OP_HASH160 0c8af6b593f51500155f2115d197f50789c3e811 OP_EQUALVERIFY OP_CHECKSIG", "type": "pubkeyhash"}, "value": 0.0175, "n": 65}, {"scriptPubKey": {"reqSigs": 1, "hex": "76a914d6f341c54d1b6426e1c657105b1920ab791a494388ac", "addresses": ["1LbZ1qe3mTSdRjMdgECgSwKBcN1tnb7pzp"], "asm": "OP_DUP OP_HASH160 d6f341c54d1b6426e1c657105b1920ab791a4943 OP_EQUALVERIFY OP_CHECKSIG", "type": "pubkeyhash"}, "value": 0.003, "n": 66}], "hex": "0200000004170943106074c8a0f39b92d0aa5b1698799aa307c82c10fb1554afcf4a5092fe010000006a4730440220750706afa46b3b130485f0a75ad31f82fa3553a16900f9cc251800929261df0f02201885c4580b8feae4967e506d13a162d571779061a7ad4a55b35da94c5859943c012102679a681d9b5bf5c672e0413997762664a17009038674b806bf27dd6b368d9b67feffffff226fcdda8400596322eb592a7fedce5a9e992d55e3735e14efe6ce74cf2665bf050000006b483045022100d8bb2d00950b5b68f93b6abe3f7a483f4f622aac93684d535f15823294fbeb0e02200e808fd62c8e6952779eafca5080502be8f5a55c14b1a6b9c7cb80d30242054601210360378c075d4fa8ca8a61476ffaa0f3c21baea79e25fbfb71701bd8fe0722d572feffffff32069aaa953172f743d7a9996931c8d2ef56ab1437776bf179ef14cfbfc136ab010000006a4730440220514519d02674349e9075e976253e914383d7a771c64f1e597a98a2eebb9139fc022064efedcdfb617347794491b86fbc731c9af0a31fc6fcc35a8bdbed818d6da087012102679a681d9b5bf5c672e0413997762664a17009038674b806bf27dd6b368d9b67feffffffd5583e733eac8f1dbdb382bf78cd14fda40e50ad7807fb8e0c622eeb41326513050000006a4730440220703abdb74959a852c2ef6e4639f3ecc7d7bc4db4757c4e8f0b3252d3cddb74fa022033d035106aad44f9a9cfd58eac5c317d955ed20cfc89d57d437e00d050af3101012103020cb7ba5c759cd4e500238e01bb50bc8a068e71ef842f9886f20d5b7d11da7ffeffffff43b06930010000000017a91469f37719f18dd9751d0088fc4063f970fd7f730687ebe913000000000017a91429d110f1acd92bb94143495fe80a2f0965ea17cd8754d611000000000017a91470a3d5c98e87c803931b760245330b7f3a7d325887d6011f000000000017a91469f375f1e7d807bc7133570167d71d8e495a52a387809698000000000017a91469f375cb57656a4b4568f9ba25bb8c66e12ab7608700b4c4040000000017a91469f375fcf3612edbf8a476278fac0550f790399287815393020000000017a914d2bc01bb6493e8011802596e7d6c4759bb7e376d87c4ec53000000000017a914fe66efcbc74fc9d60d99554d634ee58bcf3c4d5687f0171c04000000001976a9141ced4c191afa494da3745f13dfcd28623e0ac60588ac793af6000000000017a91469f373abc7d839154924928f8f4ff92715d1fcb487494632000000000017a914d7d408093d48086f3ba96d0163e26296dfd38f4c8760b74700000000001976a91469160b4fa752aa3f69b5148adb753d9fe72cce6688ac1070d900000000001976a914391f02473042588e6168ec8debccb73e686d430188acb0ec700b000000001976a9145cf19bf02e2f64740f54aa4752c1af34a7349c7b88ac82ade9050000000017a91403f65f462a532db5996fe33b246336b10b27a6048700093d000000000017a91469f37457c9fb12f0e2fcca6f1626c2d22b0904c587f1fa2200000000001976a9148a164394d5391223564f0a6762f9a16839082b9488ac40090f00000000001976a914d72f96aca9e85ecc775db5c96cbca2d76773b32988acebbda8000000000017a914f15e2440e1dd95e319de18a0298a369c54d13daa8734767a010000000017a9149fcd3e0d21738dfeaa5d01d22bf93dee2559321187d83003000000000017a9145273c1763e014dda24fb6dca97894f81fcf05f1587d2a9d4000000000017a9141c5fa1f4eb94e983144d9c9a5f0b04a71464029d87f04902000000000017a914952f3a43d4d1f1611cc40aefe562e6ef4b20d7f587b6367a00000000001976a9142088b139488c2c6021ec4ddb2039c6c2feeda7f688ac20402c000000000017a914c464cd68d8036f20318818ad7e4f62bc49bf759a87afca07020000000017a9149c731a8b3af80d60f4a35275d26f6ff1377d3e8287d43983000000000017a91479c7aebd9d455762bee0be55652231c361c10c7c87c4d907000000000017a91484219499ed1bf12dd2acb6fa96a43310caf02e60873079a600000000001976a91492e599c225cda7a90822a60f729364de04189f7488ac105c0c00000000001976a914228c9421d19b86d656354572437ffec9af3f0da488ac2ceb09000000000017a91469f376af21da5fffe2457b945b8e0e29f0883eb187a77230020000000017a9147447de72d509c782e75a51c79c2534f1d5c527e8875bb60e00000000001976a9149e56b418e34e1dc010ef7e8e4560d2b3857baf4188ac03f216000000000017a91469f3741c3991036e59f52a3fe2bd4e1f783b012187ad3294000000000017a914d1600096fa333f79bf2822ebc71c83b8ee1eab68872336af00000000001976a914447b0e0686b53a9486621ba1854d763f2fa5ae7c88acd0471f000000000017a91483d81a6bc0a21d3b323e4dea46123d9d4dd7685c87b0600a00000000001976a914c3f7cbc14e0e0ad01986cd0f05959cadb1e2d3f588ac6d341f000000000017a91472a9cd9d672cc57626be56bbd9ba14c1df3e12c68700e1f505000000001976a914269bb031f8c6854313821c3b1a18e6f5e5b2d0d788acf892a7040000000017a914f5789c2a29404bbf81afa515be4cbf584120e2f287e9421f000000000017a9147c95e8706775659dfd88e9732fa97bef365eecae877a8b6500000000001976a914daa323aeb44925f1e20d1dcc388da21728a7327788ac7db1d6000000000017a9142762f47e0a747e8db07a742f809d400bd61ab35287f000a0000000000017a91489a62636faecd32b56879f95f3d4457c5a8fb9cf8769ff0a00000000001976a914e542cb6d30a3f5f7b1f8ff4294abfc28c331f57e88acc8850b000000000017a9141a44aeb569c7893d6ccb4af79b407000716e92c887dc9e0b00000000001976a914925301b45ddd114c896134f9b020a5ad28adf8cf88acf1d1db0a000000001976a91452f6e5bedb469def5411e61b7ab327f87c4dfcaa88ac41721400000000001976a914c983edf26d8c88d7b4b29d378a45f60a90a561ec88acbfe773010000000017a91469f375de530439d4dbb31eed487df41e2ff038d2877f5f3100000000001976a914453e4a4f1077a9ea269f0394e8f87af3e6e8bdd088ace8274d000000000017a914ec2bc097bdc2f438754e8faa17d3eaff568f165387c86c2800000000001976a9143bf6dd0c80941c5b7e5c491d92178aa78602e09288acb0feea0b000000001976a914f5a52cc83f21e2481ebcf316831c83b3ae4e1d4388aca96902000000000017a91469f373abb144f18e024f285d335f521556f7c6c58723212408000000001976a914717fdcba81decde8bc266a1f9ed5ea55304e34a588ace8d22000000000001976a9149ed7fabb4e9e03e0146638fe4e52dab1037132b288ac8f644a000000000017a91448f2215db1c1a5c0ab0ffc4cbb9a7ec037e5297187403a9801000000001976a9146b8cea1f6f63a1a754d96804070c69f60276c5e088acde670c000000000017a914c8b7e18e3a26aca2a549bac5f20120a7cba69ac5870707aa010000000017a9141e1076e0e7698e6bb93bb565e3a31f8d31b2df77877dd223000000000017a91469f3744f22b57e581ddd33cc48eb37433291bcb2870c0ec2010000000017a91469f3754bf67d43a8828e78a1c2ba646c5baf42a1875c830200000000001976a91431818a76bf6bf3c03b07837a6819aac8019b37cf88acf0b31a00000000001976a9140c8af6b593f51500155f2115d197f50789c3e81188ace0930400000000001976a914d6f341c54d1b6426e1c657105b1920ab791a494388ac0c490800", "vin": [{"sequence": 4294967294, "scriptSig": {"hex": "4730440220750706afa46b3b130485f0a75ad31f82fa3553a16900f9cc251800929261df0f02201885c4580b8feae4967e506d13a162d571779061a7ad4a55b35da94c5859943c012102679a681d9b5bf5c672e0413997762664a17009038674b806bf27dd6b368d9b67", "asm": "30440220750706afa46b3b130485f0a75ad31f82fa3553a16900f9cc251800929261df0f02201885c4580b8feae4967e506d13a162d571779061a7ad4a55b35da94c5859943c[ALL] 02679a681d9b5bf5c672e0413997762664a17009038674b806bf27dd6b368d9b67"}, "vout": 1, "txid": "fe92504acfaf5415fb102cc807a39a7998165baad0929bf3a0c8746010430917"}, {"sequence": 4294967294, "scriptSig": {"hex": "483045022100d8bb2d00950b5b68f93b6abe3f7a483f4f622aac93684d535f15823294fbeb0e02200e808fd62c8e6952779eafca5080502be8f5a55c14b1a6b9c7cb80d30242054601210360378c075d4fa8ca8a61476ffaa0f3c21baea79e25fbfb71701bd8fe0722d572", "asm": "3045022100d8bb2d00950b5b68f93b6abe3f7a483f4f622aac93684d535f15823294fbeb0e02200e808fd62c8e6952779eafca5080502be8f5a55c14b1a6b9c7cb80d302420546[ALL] 0360378c075d4fa8ca8a61476ffaa0f3c21baea79e25fbfb71701bd8fe0722d572"}, "vout": 5, "txid": "bf6526cf74cee6ef145e73e3552d999e5aceed7f2a59eb2263590084dacd6f22"}, {"sequence": 4294967294, "scriptSig": {"hex": "4730440220514519d02674349e9075e976253e914383d7a771c64f1e597a98a2eebb9139fc022064efedcdfb617347794491b86fbc731c9af0a31fc6fcc35a8bdbed818d6da087012102679a681d9b5bf5c672e0413997762664a17009038674b806bf27dd6b368d9b67", "asm": "30440220514519d02674349e9075e976253e914383d7a771c64f1e597a98a2eebb9139fc022064efedcdfb617347794491b86fbc731c9af0a31fc6fcc35a8bdbed818d6da087[ALL] 02679a681d9b5bf5c672e0413997762664a17009038674b806bf27dd6b368d9b67"}, "vout": 1, "txid": "ab36c1bfcf14ef79f16b773714ab56efd2c8316999a9d743f7723195aa9a0632"}, {"sequence": 4294967294, "scriptSig": {"hex": "4730440220703abdb74959a852c2ef6e4639f3ecc7d7bc4db4757c4e8f0b3252d3cddb74fa022033d035106aad44f9a9cfd58eac5c317d955ed20cfc89d57d437e00d050af3101012103020cb7ba5c759cd4e500238e01bb50bc8a068e71ef842f9886f20d5b7d11da7f", "asm": "30440220703abdb74959a852c2ef6e4639f3ecc7d7bc4db4757c4e8f0b3252d3cddb74fa022033d035106aad44f9a9cfd58eac5c317d955ed20cfc89d57d437e00d050af3101[ALL] 03020cb7ba5c759cd4e500238e01bb50bc8a068e71ef842f9886f20d5b7d11da7f"}, "vout": 5, "txid": "13653241eb2e620c8efb0778ad500ea4fd14cd78bf82b3bd1d8fac3e733e58d5"}], "txid": "7a595a05839896c1ce1150f33fff3a61c68440128f728b52d9f4b9ac381884cf", "blocktime": 1537870268, "version": 2, "confirmations": 11516, "time": 1537870268, "locktime": 542988, "vsize": 2797, "size": 2797}