{"hash": "7a60eea59d5c6a883301b0b6b5e476367195f7819b4a83abdc9523a0a0edf4a3", "blockhash": "00000000000000000004ffacab907a6b429b9a5745fa0b75af4234bf69dd7176", "vout": [{"scriptPubKey": {"reqSigs": 1, "hex": "76a914959cdd35c64abe758abe06649f1c887193b580cc88ac", "addresses": ["1Ee5bh7YDZztnr3FQtjhhz2RPCeX2GNnuk"], "asm": "OP_DUP OP_HASH160 959cdd35c64abe758abe06649f1c887193b580cc OP_EQUALVERIFY OP_CHECKSIG", "type": "pubkeyhash"}, "value": 1.01876002, "n": 0}, {"scriptPubKey": {"reqSigs": 1, "hex": "76a91438e91685d06b2354604a886e43e589c7df2c08b688ac", "addresses": ["16Bv4yo8UKarvJfrVn7dpGz63q3sgXaP4X"], "asm": "OP_DUP OP_HASH160 38e91685d06b2354604a886e43e589c7df2c08b6 OP_EQUALVERIFY OP_CHECKSIG", "type": "pubkeyhash"}, "value": 70.30053703, "n": 1}], "hex": "02000000010d958e1a2ec8ce2d60280bd6f9e216587e657c6d22b9ea66710d3b81edc5c210010000006b483045022100e5a65c524dc3560f1c3b8d28a35f2a0626b84ddbc24b1ed2a84970010c9dc61402206d92b8f8c7fbdfdfa98ff78304713150d8568cac14b0c1af0ec4ddac51250f860121038b62b7aaeb1fdeeadbcb62d669a93d2179b3033861400658a96cb607a6845313feffffff0222811206000000001976a914959cdd35c64abe758abe06649f1c887193b580cc88ac471b06a3010000001976a91438e91685d06b2354604a886e43e589c7df2c08b688ac16490800", "vin": [{"sequence": 4294967294, "scriptSig": {"hex": "483045022100e5a65c524dc3560f1c3b8d28a35f2a0626b84ddbc24b1ed2a84970010c9dc61402206d92b8f8c7fbdfdfa98ff78304713150d8568cac14b0c1af0ec4ddac51250f860121038b62b7aaeb1fdeeadbcb62d669a93d2179b3033861400658a96cb607a6845313", "asm": "3045022100e5a65c524dc3560f1c3b8d28a35f2a0626b84ddbc24b1ed2a84970010c9dc61402206d92b8f8c7fbdfdfa98ff78304713150d8568cac14b0c1af0ec4ddac51250f86[ALL] 038b62b7aaeb1fdeeadbcb62d669a93d2179b3033861400658a96cb607a6845313"}, "vout": 1, "txid": "10c2c5ed813b0d7166eab9226d7c657e5816e2f9d60b28602dcec82e1a8e950d"}], "txid": "7a60eea59d5c6a883301b0b6b5e476367195f7819b4a83abdc9523a0a0edf4a3", "blocktime": 1537875543, "version": 2, "confirmations": 11464, "time": 1537875543, "locktime": 542998, "vsize": 226, "size": 226}