{"hash": "7a600befff1287332df141636bff4adf40a46c98d1c7c0160b2aabab9658c005", "blockhash": "0000000000000000001cda96e906b7601b7a6fb1a3b62bca570a9e5d8f4b3de1", "vout": [{"scriptPubKey": {"reqSigs": 1, "hex": "76a91400b333b1f01ad5f35ffb7a3fa251713223a9142688ac", "addresses": ["114hgAnLPgcXaRGU4FyuEzTKppsWsWcQZQ"], "asm": "OP_DUP OP_HASH160 00b333b1f01ad5f35ffb7a3fa251713223a91426 OP_EQUALVERIFY OP_CHECKSIG", "type": "pubkeyhash"}, "value": 0.00480855, "n": 0}, {"scriptPubKey": {"reqSigs": 1, "hex": "76a91431d2e467fd225408ddf02e4d82476c340538a04a88ac", "addresses": ["15YSkSxDQii2eR6xXVpgPnc77JTWAWpnaN"], "asm": "OP_DUP OP_HASH160 31d2e467fd225408ddf02e4d82476c340538a04a OP_EQUALVERIFY OP_CHECKSIG", "type": "pubkeyhash"}, "value": 0.0174712, "n": 1}], "hex": "01000000018cc1caa8ba7e54fbd9544f13c6ff7d83940757c20f94f918a08cb67767cde190010000006a47304402201dd30cb1df2784a8cf6851a44b0dc33c6b4cce641717aafcfb9744aeaa13053d02206a74310bc34c131f2590cec0d6f9445c467dd8088fbba8911f5411d736f2940d01210381552a90990bcb08107285fd786d379a9acb80dbfdf06801406abc1988695d67ffffffff0257560700000000001976a91400b333b1f01ad5f35ffb7a3fa251713223a9142688acb0a81a00000000001976a91431d2e467fd225408ddf02e4d82476c340538a04a88ac00000000", "vin": [{"sequence": 4294967295, "scriptSig": {"hex": "47304402201dd30cb1df2784a8cf6851a44b0dc33c6b4cce641717aafcfb9744aeaa13053d02206a74310bc34c131f2590cec0d6f9445c467dd8088fbba8911f5411d736f2940d01210381552a90990bcb08107285fd786d379a9acb80dbfdf06801406abc1988695d67", "asm": "304402201dd30cb1df2784a8cf6851a44b0dc33c6b4cce641717aafcfb9744aeaa13053d02206a74310bc34c131f2590cec0d6f9445c467dd8088fbba8911f5411d736f2940d[ALL] 0381552a90990bcb08107285fd786d379a9acb80dbfdf06801406abc1988695d67"}, "vout": 1, "txid": "90e1cd6777b68ca018f9940fc2570794837dffc6134f54d9fb547ebaa8cac18c"}], "txid": "7a600befff1287332df141636bff4adf40a46c98d1c7c0160b2aabab9658c005", "blocktime": 1537873282, "version": 1, "confirmations": 11485, "time": 1537873282, "locktime": 0, "vsize": 225, "size": 225}