{"hash": "7a69366282a715b32d3a4b5fa9be83409af0fe0430fb10aa6739b779dd17f879", "blockhash": "00000000000000000017f5eb5941039fbcee6240d03bc1f2f8e35350df66a1d8", "vout": [{"scriptPubKey": {"reqSigs": 1, "hex": "76a914cb71dda3f3bc420b0a1cd901802793b78189e36c88ac", "addresses": ["1KYiaUYUa751boAjtccMBo9oXtXGKgK6Bc"], "asm": "OP_DUP OP_HASH160 cb71dda3f3bc420b0a1cd901802793b78189e36c OP_EQUALVERIFY OP_CHECKSIG", "type": "pubkeyhash"}, "value": 0.0012, "n": 0}, {"scriptPubKey": {"reqSigs": 1, "hex": "76a914a00003181125f7dac8c2eef89057a55cac3aefe888ac", "addresses": ["1Fb18XtimTD9FSpGdXxcquw9TPf5zBZ7mL"], "asm": "OP_DUP OP_HASH160 a00003181125f7dac8c2eef89057a55cac3aefe8 OP_EQUALVERIFY OP_CHECKSIG", "type": "pubkeyhash"}, "value": 0.01434046, "n": 1}], "hex": "01000000011b995281122ea754bbc466ab13e9963aeb9c77baecc85e9ddece7420c8c632cc010000006b483045022100990950d17cb16af01995dea7776065ef160f866008da4b2b9641f94ecf763da202202f551cc3541cd43c24482310b09e5bfc2e124097f69d9d037e700a7a1b4ba80e0121036de82a5a17c4ee46d8724836a882335837d4ede9debca092ab806282b73e71b0ffffffff02c0d40100000000001976a914cb71dda3f3bc420b0a1cd901802793b78189e36c88acbee11500000000001976a914a00003181125f7dac8c2eef89057a55cac3aefe888ac00000000", "vin": [{"sequence": 4294967295, "scriptSig": {"hex": "483045022100990950d17cb16af01995dea7776065ef160f866008da4b2b9641f94ecf763da202202f551cc3541cd43c24482310b09e5bfc2e124097f69d9d037e700a7a1b4ba80e0121036de82a5a17c4ee46d8724836a882335837d4ede9debca092ab806282b73e71b0", "asm": "3045022100990950d17cb16af01995dea7776065ef160f866008da4b2b9641f94ecf763da202202f551cc3541cd43c24482310b09e5bfc2e124097f69d9d037e700a7a1b4ba80e[ALL] 036de82a5a17c4ee46d8724836a882335837d4ede9debca092ab806282b73e71b0"}, "vout": 1, "txid": "cc32c6c82074cede9d5ec8ecba779ceb3a96e913ab66c4bb54a72e128152991b"}], "txid": "7a69366282a715b32d3a4b5fa9be83409af0fe0430fb10aa6739b779dd17f879", "blocktime": 1537874412, "version": 1, "confirmations": 11468, "time": 1537874412, "locktime": 0, "vsize": 226, "size": 226}