{"hash": "7a6b9bc553b27ba0c8f648177b9867d517af897e72bd74155a7828fc94d90db9", "blockhash": "0000000000000000000baef3f32e3676a92c3b2e5da21b426e4f302fc371ce76", "vout": [{"scriptPubKey": {"reqSigs": 1, "hex": "76a914623b865e2da760d5c2805bd1bf5de1803bf1a04288ac", "addresses": ["19xQXfHpKZycHz8mdLTdE9V8fxw4FCsu4M"], "asm": "OP_DUP OP_HASH160 623b865e2da760d5c2805bd1bf5de1803bf1a042 OP_EQUALVERIFY OP_CHECKSIG", "type": "pubkeyhash"}, "value": 0.31056333, "n": 0}, {"scriptPubKey": {"reqSigs": 1, "hex": "76a91465e2f2613add70901267f794b3220c8c7aa2cfa888ac", "addresses": ["1AHj7v45N3pNgt3mDMVNgD1WX5dfGDGVFd"], "asm": "OP_DUP OP_HASH160 65e2f2613add70901267f794b3220c8c7aa2cfa8 OP_EQUALVERIFY OP_CHECKSIG", "type": "pubkeyhash"}, "value": 0.0002, "n": 1}], "hex": "01000000013cb958cbc580d286144f2eb6a3c072e76d6523eebd4aa65bd6ff0bf1a4139171490000006b48304502210099e813f80177781df54fc60fa3211a3bb6edb164825d5d95a0a02ccf0f63369e0220225cb4d3651bcb06137cf6d04e4bc1dee3a2ed49d75aaab515581b891bacb36401210330128c7b02f1619f1712ca2388a9eb9b2f3ba7293fee1cac09f5bcf6f0206dfbffffffff02cde1d901000000001976a914623b865e2da760d5c2805bd1bf5de1803bf1a04288ac204e0000000000001976a91465e2f2613add70901267f794b3220c8c7aa2cfa888ac00000000", "vin": [{"sequence": 4294967295, "scriptSig": {"hex": "48304502210099e813f80177781df54fc60fa3211a3bb6edb164825d5d95a0a02ccf0f63369e0220225cb4d3651bcb06137cf6d04e4bc1dee3a2ed49d75aaab515581b891bacb36401210330128c7b02f1619f1712ca2388a9eb9b2f3ba7293fee1cac09f5bcf6f0206dfb", "asm": "304502210099e813f80177781df54fc60fa3211a3bb6edb164825d5d95a0a02ccf0f63369e0220225cb4d3651bcb06137cf6d04e4bc1dee3a2ed49d75aaab515581b891bacb364[ALL] 0330128c7b02f1619f1712ca2388a9eb9b2f3ba7293fee1cac09f5bcf6f0206dfb"}, "vout": 73, "txid": "719113a4f10bffd65ba64abdee23656de772c0a3b62e4f1486d280c5cb58b93c"}], "txid": "7a6b9bc553b27ba0c8f648177b9867d517af897e72bd74155a7828fc94d90db9", "blocktime": 1537876114, "version": 1, "confirmations": 11459, "time": 1537876114, "locktime": 0, "vsize": 226, "size": 226}