{"hash": "7a6b9841e93e6274b9c7c1bfaa76b8c8e64c21721991ecb515294d923906361f", "blockhash": "0000000000000000001cda96e906b7601b7a6fb1a3b62bca570a9e5d8f4b3de1", "vout": [{"scriptPubKey": {"reqSigs": 1, "hex": "76a914b0137d0199e57dbaa5c3600777395cbfd8ab9b8b88ac", "addresses": ["1H41GqLThZM6dNuSHAKbwN1znEetZmytCi"], "asm": "OP_DUP OP_HASH160 b0137d0199e57dbaa5c3600777395cbfd8ab9b8b OP_EQUALVERIFY OP_CHECKSIG", "type": "pubkeyhash"}, "value": 0.0063982, "n": 0}, {"scriptPubKey": {"type": "nulldata", "hex": "6a4c50000077d600013d397e1442baadab1ee11fa75b23cc0f42c2fc38c5e5bf9ae76da98a211ac24e26e5571bd9ae408f4f8470e7d7ab5baa15540612fa0ec1b9dc0f1d100759d4ba30d2c37bb011d97e02cf", "asm": "OP_RETURN 000077d600013d397e1442baadab1ee11fa75b23cc0f42c2fc38c5e5bf9ae76da98a211ac24e26e5571bd9ae408f4f8470e7d7ab5baa15540612fa0ec1b9dc0f1d100759d4ba30d2c37bb011d97e02cf"}, "value": 0.0, "n": 1}], "hex": "010000000117ecbd33aa7d7f9b7f772776ad6e9ab31ffa08dccd773515e65abe12c2864fd5000000006b4830450221008eeb6066a26a713ffd1ea5be3d5ccff8c66d53be596c6c7aa9964c2113653305022057cf167e03c9032da145d62db85de0ca4493d7365f2d444d09e00f3189419d240121036a45b6254c30be0ef4d57532ca6bf369a83bbeac9dad945edfefe80e2a9a0b33ffffffff024cc30900000000001976a914b0137d0199e57dbaa5c3600777395cbfd8ab9b8b88ac0000000000000000536a4c50000077d600013d397e1442baadab1ee11fa75b23cc0f42c2fc38c5e5bf9ae76da98a211ac24e26e5571bd9ae408f4f8470e7d7ab5baa15540612fa0ec1b9dc0f1d100759d4ba30d2c37bb011d97e02cf00000000", "vin": [{"sequence": 4294967295, "scriptSig": {"hex": "4830450221008eeb6066a26a713ffd1ea5be3d5ccff8c66d53be596c6c7aa9964c2113653305022057cf167e03c9032da145d62db85de0ca4493d7365f2d444d09e00f3189419d240121036a45b6254c30be0ef4d57532ca6bf369a83bbeac9dad945edfefe80e2a9a0b33", "asm": "30450221008eeb6066a26a713ffd1ea5be3d5ccff8c66d53be596c6c7aa9964c2113653305022057cf167e03c9032da145d62db85de0ca4493d7365f2d444d09e00f3189419d24[ALL] 036a45b6254c30be0ef4d57532ca6bf369a83bbeac9dad945edfefe80e2a9a0b33"}, "vout": 0, "txid": "d54f86c212be5ae6153577cddc08fa1fb39a6ead7627777f9b7f7daa33bdec17"}], "txid": "7a6b9841e93e6274b9c7c1bfaa76b8c8e64c21721991ecb515294d923906361f", "blocktime": 1537873282, "version": 1, "confirmations": 11484, "time": 1537873282, "locktime": 0, "vsize": 284, "size": 284}