{"hash": "7a6f9564a76f1d71e72bec9949fb056bae2646d3764e7c015b4af07526443e61", "blockhash": "0000000000000000000e13cef7c366c0283d82e591d1acd082e914b08063cdf1", "vout": [{"scriptPubKey": {"reqSigs": 1, "hex": "76a9146b5e1161b2e942e7c3073c4c7f382999d1c9582c88ac", "addresses": ["1AnhzUijRYMkH7y1DoWzV42WCeAcZHe4xE"], "asm": "OP_DUP OP_HASH160 6b5e1161b2e942e7c3073c4c7f382999d1c9582c OP_EQUALVERIFY OP_CHECKSIG", "type": "pubkeyhash"}, "value": 0.00139201, "n": 0}, {"scriptPubKey": {"reqSigs": 1, "hex": "a914046a098e8dc57ff7bf54598d3af2ebd1552f0c6187", "addresses": ["326Meuy3M3p8kYDrpGmif9iV6ZxmvAqAHU"], "asm": "OP_HASH160 046a098e8dc57ff7bf54598d3af2ebd1552f0c61 OP_EQUAL", "type": "scripthash"}, "value": 0.10157202, "n": 1}], "hex": "0100000003302665d82be96130883a7284a7c4cdcad7b219a0afc88b387246076fc38d8143000000006b483045022100d05723ede10ef6bfb25252c2495b3b4b8ddaaa033eadacd5b021f6dd3dc35d2d0220619faff0bf09f98e615262d12a9612a8133851b0293ed3f592e8efdcecb2f014012103491d9bd3b71ed5476ecc3c7723cbddcd8c142893d13a381b15996ff8f9d141ddffffffffc81130d002cf8bf123dfb7ab405d769002c4de16f1fd129d1d6b74678806b37e000000006a47304402205f9f05a2270fc030aadad8ed7d43333ba1da6c4334b02930e87b481fd6c4942c022067b8f89f084385b2646f7c9fbac19a673b6b5a202340868b4822f26ee898d1a9012102954a9b4797f91916b52150fbcef0831eb50d8980cc8defe60fa9bbdae51583d6ffffffff0bfa6b4cf640c822838ea906d25d66d6adbd3dc72899491cd6acec5f65c240a10a0000006b4830450221008a30a8baeab11ccd880b944f27b526545ed9303b696f25cfb89cc160ae1af8f4022001e5260aeb030813e7563c779cf5f0c6727e7b7e74f50816ce972499694fdc8601210217c20c25ec220108d267fc46c82b45cb101429dce205646b7cbbf890a5f9e772ffffffff02c11f0200000000001976a9146b5e1161b2e942e7c3073c4c7f382999d1c9582c88ac92fc9a000000000017a914046a098e8dc57ff7bf54598d3af2ebd1552f0c618700000000", "vin": [{"sequence": 4294967295, "scriptSig": {"hex": "483045022100d05723ede10ef6bfb25252c2495b3b4b8ddaaa033eadacd5b021f6dd3dc35d2d0220619faff0bf09f98e615262d12a9612a8133851b0293ed3f592e8efdcecb2f014012103491d9bd3b71ed5476ecc3c7723cbddcd8c142893d13a381b15996ff8f9d141dd", "asm": "3045022100d05723ede10ef6bfb25252c2495b3b4b8ddaaa033eadacd5b021f6dd3dc35d2d0220619faff0bf09f98e615262d12a9612a8133851b0293ed3f592e8efdcecb2f014[ALL] 03491d9bd3b71ed5476ecc3c7723cbddcd8c142893d13a381b15996ff8f9d141dd"}, "vout": 0, "txid": "43818dc36f074672388bc8afa019b2d7cacdc4a784723a883061e92bd8652630"}, {"sequence": 4294967295, "scriptSig": {"hex": "47304402205f9f05a2270fc030aadad8ed7d43333ba1da6c4334b02930e87b481fd6c4942c022067b8f89f084385b2646f7c9fbac19a673b6b5a202340868b4822f26ee898d1a9012102954a9b4797f91916b52150fbcef0831eb50d8980cc8defe60fa9bbdae51583d6", "asm": "304402205f9f05a2270fc030aadad8ed7d43333ba1da6c4334b02930e87b481fd6c4942c022067b8f89f084385b2646f7c9fbac19a673b6b5a202340868b4822f26ee898d1a9[ALL] 02954a9b4797f91916b52150fbcef0831eb50d8980cc8defe60fa9bbdae51583d6"}, "vout": 0, "txid": "7eb3068867746b1d9d12fdf116dec40290765d40abb7df23f18bcf02d03011c8"}, {"sequence": 4294967295, "scriptSig": {"hex": "4830450221008a30a8baeab11ccd880b944f27b526545ed9303b696f25cfb89cc160ae1af8f4022001e5260aeb030813e7563c779cf5f0c6727e7b7e74f50816ce972499694fdc8601210217c20c25ec220108d267fc46c82b45cb101429dce205646b7cbbf890a5f9e772", "asm": "30450221008a30a8baeab11ccd880b944f27b526545ed9303b696f25cfb89cc160ae1af8f4022001e5260aeb030813e7563c779cf5f0c6727e7b7e74f50816ce972499694fdc86[ALL] 0217c20c25ec220108d267fc46c82b45cb101429dce205646b7cbbf890a5f9e772"}, "vout": 10, "txid": "a140c2655fecacd61c499928c73dbdadd6665dd206a98e8322c840f64c6bfa0b"}], "txid": "7a6f9564a76f1d71e72bec9949fb056bae2646d3764e7c015b4af07526443e61", "blocktime": 1537871767, "version": 1, "confirmations": 11495, "time": 1537871767, "locktime": 0, "vsize": 519, "size": 519}