{"hash": "340b242667316f3966c9583a700e643b7190fc7a1c5bda1c5747e1ddcba461af", "blockhash": "0000000000000000001cda96e906b7601b7a6fb1a3b62bca570a9e5d8f4b3de1", "vout": [{"scriptPubKey": {"reqSigs": 1, "hex": "a914a34f0171d0b298fdeebaaa7c09736db4e02c780987", "addresses": ["3GaWiDjk3J7Jv3d8rGxFNDr2McP8TQU5cf"], "asm": "OP_HASH160 a34f0171d0b298fdeebaaa7c09736db4e02c7809 OP_EQUAL", "type": "scripthash"}, "value": 0.02688802, "n": 0}, {"scriptPubKey": {"reqSigs": 1, "hex": "a91420a27d6e190e959479db2e31ea799abfcce47ffa87", "addresses": ["34faCgZ4A6JU1ZK7AXdfutfyUHxJKqroPK"], "asm": "OP_HASH160 20a27d6e190e959479db2e31ea799abfcce47ffa OP_EQUAL", "type": "scripthash"}, "value": 0.03521115, "n": 1}], "hex": "0100000000010190bfd1fa8ccac47e60f9d48cd98cbe3fd99b47dc3306de122c3e5ffff34e23b30200000023220020c6fd733f409d9b0748651b4b334409b1a21e0e8e3ef9df4b81e696f34f02c781ffffffff02220729000000000017a914a34f0171d0b298fdeebaaa7c09736db4e02c7809875bba35000000000017a91420a27d6e190e959479db2e31ea799abfcce47ffa870400483045022100ab85bf18e396ef66cdafa53b84ef3d0dcd5292e28911e2fd0f53a192150979e9022037f1eb507ff83af2e2f7666ee7384a6d8bbd2424cde35c78a4af77e7c85f60dc01483045022100e27e67fd350a6a19367a2b1a274083164c32df9560d64c238a08704ad5ea1ce60220432cfaa7a92288c086265d760e4da817cca9d9ef1c0ac3a5f34edb11b00d0bfe01475221039d2acab0422fa20b2e8873c6575bc4cab25b85b12d64561508439001fdd0951221038407424ead2b88063db2d589e50c34e1572f6b82eb9e266dec536939ee0db9eb52ae00000000", "vin": [{"txinwitness": ["", "3045022100ab85bf18e396ef66cdafa53b84ef3d0dcd5292e28911e2fd0f53a192150979e9022037f1eb507ff83af2e2f7666ee7384a6d8bbd2424cde35c78a4af77e7c85f60dc01", "3045022100e27e67fd350a6a19367a2b1a274083164c32df9560d64c238a08704ad5ea1ce60220432cfaa7a92288c086265d760e4da817cca9d9ef1c0ac3a5f34edb11b00d0bfe01", "5221039d2acab0422fa20b2e8873c6575bc4cab25b85b12d64561508439001fdd0951221038407424ead2b88063db2d589e50c34e1572f6b82eb9e266dec536939ee0db9eb52ae"], "sequence": 4294967295, "scriptSig": {"hex": "220020c6fd733f409d9b0748651b4b334409b1a21e0e8e3ef9df4b81e696f34f02c781", "asm": "0020c6fd733f409d9b0748651b4b334409b1a21e0e8e3ef9df4b81e696f34f02c781"}, "vout": 2, "txid": "b3234ef3ff5f3e2c12de0633dc479bd93fbe8cd98cd4f9607ec4ca8cfad1bf90"}], "txid": "7a734e60030310ac6c75c2b26a5277a2aa9c03921a1d2a2051ae9c995b73d572", "blocktime": 1537873282, "version": 1, "confirmations": 11481, "time": 1537873282, "locktime": 0, "vsize": 206, "size": 372}