{"hash": "7a8986effd5c70f2143cbb78b417de238789f0f218588b7f96cd208b685bef81", "blockhash": "0000000000000000001e0dab787dd257d1dbfcb92a98c2207d5e1078be1f4165", "vout": [{"scriptPubKey": {"reqSigs": 1, "hex": "76a9142ccd457f6c710bdef481e8dc1f220f15881795bf88ac", "addresses": ["155tdxFtH6bdX8144oZxLnWbd8tL9kw3Fy"], "asm": "OP_DUP OP_HASH160 2ccd457f6c710bdef481e8dc1f220f15881795bf OP_EQUALVERIFY OP_CHECKSIG", "type": "pubkeyhash"}, "value": 0.06448358, "n": 0}, {"scriptPubKey": {"reqSigs": 1, "hex": "76a914ef7ea2fe0a84944b1110208ef63bfaeb59d025f988ac", "addresses": ["1NqLCihGYThqR2htgHiW9AcuGP1wXHB6ip"], "asm": "OP_DUP OP_HASH160 ef7ea2fe0a84944b1110208ef63bfaeb59d025f9 OP_EQUALVERIFY OP_CHECKSIG", "type": "pubkeyhash"}, "value": 0.1, "n": 1}], "hex": "0100000001cf6bd79bec1956283ca5e5c4da5439b3275a76de7d372c97c96dda3c1be50669010000006a47304402206cb8e6e375479d6a2f80e2b01d8659b4a5280e3e5a6132a7379ddaeb23ab5c6c022076830551e36b884e91efc6570653cfedf2d6852aca7f59d2237cd04ed6a30d2a01210243a9dbeefe989de3fd1c309a4c8f455e9b4b83840f87e593c8e4c8f0dd9c7c45fdffffff02e6646200000000001976a9142ccd457f6c710bdef481e8dc1f220f15881795bf88ac80969800000000001976a914ef7ea2fe0a84944b1110208ef63bfaeb59d025f988ac12490800", "vin": [{"sequence": 4294967293, "scriptSig": {"hex": "47304402206cb8e6e375479d6a2f80e2b01d8659b4a5280e3e5a6132a7379ddaeb23ab5c6c022076830551e36b884e91efc6570653cfedf2d6852aca7f59d2237cd04ed6a30d2a01210243a9dbeefe989de3fd1c309a4c8f455e9b4b83840f87e593c8e4c8f0dd9c7c45", "asm": "304402206cb8e6e375479d6a2f80e2b01d8659b4a5280e3e5a6132a7379ddaeb23ab5c6c022076830551e36b884e91efc6570653cfedf2d6852aca7f59d2237cd04ed6a30d2a[ALL] 0243a9dbeefe989de3fd1c309a4c8f455e9b4b83840f87e593c8e4c8f0dd9c7c45"}, "vout": 1, "txid": "6906e51b3cda6dc9972c377dde765a27b33954dac4e5a53c285619ec9bd76bcf"}], "txid": "7a8986effd5c70f2143cbb78b417de238789f0f218588b7f96cd208b685bef81", "blocktime": 1537872475, "version": 1, "confirmations": 11486, "time": 1537872475, "locktime": 542994, "vsize": 225, "size": 225}