{"hash": "7c5ef1315b4ca3c0634cf7d3d6dedd9f0bcb274e0f5747936d27ffa054cb2904", "blockhash": "0000000000000000001e0dab787dd257d1dbfcb92a98c2207d5e1078be1f4165", "vout": [{"scriptPubKey": {"reqSigs": 1, "hex": "76a914a840c2b6d0105c2ad992ee9f06f3af6f9a0d735488ac", "addresses": ["1GLe6sdqzjkJmFWQJ4WM8ZdcBaMFuDCwcT"], "asm": "OP_DUP OP_HASH160 a840c2b6d0105c2ad992ee9f06f3af6f9a0d7354 OP_EQUALVERIFY OP_CHECKSIG", "type": "pubkeyhash"}, "value": 0.01423332, "n": 0}, {"scriptPubKey": {"reqSigs": 1, "hex": "001433a6634882ec0c01a7f2ad22de1034b2887df58f", "addresses": ["bc1qxwnxxjyzasxqrflj453duyp5k2y8mav0mwayce"], "asm": "0 33a6634882ec0c01a7f2ad22de1034b2887df58f", "type": "witness_v0_keyhash"}, "value": 6.82572017, "n": 1}], "hex": "02000000000101e3410a718050c28ee683b0202712d7284ef56a6b68733885b6c210d4f6545b3d0100000000ffffffff02e4b71500000000001976a914a840c2b6d0105c2ad992ee9f06f3af6f9a0d735488acf138af280000000016001433a6634882ec0c01a7f2ad22de1034b2887df58f024830450221009227430bf7b1a1c791afe2501c16c0b561d3a24f8d1951df6f9f9df41d95efd20220785091e90a1cb1a885ab6eda80db04666ee66c0d18fe215b50f6e92d94a9a5f601210369986e23607cc0b8bc37a3169ca07c9d5e0599e0c34e1cd5930a1be726f114eb00000000", "vin": [{"txinwitness": ["30450221009227430bf7b1a1c791afe2501c16c0b561d3a24f8d1951df6f9f9df41d95efd20220785091e90a1cb1a885ab6eda80db04666ee66c0d18fe215b50f6e92d94a9a5f601", "0369986e23607cc0b8bc37a3169ca07c9d5e0599e0c34e1cd5930a1be726f114eb"], "sequence": 4294967295, "scriptSig": {"hex": "", "asm": ""}, "vout": 1, "txid": "3d5b54f6d410c2b6853873686b6af54e28d7122720b083e68ec25080710a41e3"}], "txid": "7a9324a544f1891fce1f93634c681af713c69f73526b59749897659b2a268449", "blocktime": 1537872475, "version": 2, "confirmations": 11486, "time": 1537872475, "locktime": 0, "vsize": 144, "size": 226}