{"hash": "7a99d0ffcb4ccd3084a8cd45caee69aae277d8cb2ded7083fa334d5fd19c4c09", "blockhash": "0000000000000000001cda96e906b7601b7a6fb1a3b62bca570a9e5d8f4b3de1", "vout": [{"scriptPubKey": {"reqSigs": 1, "hex": "76a9146516ebc877de9acd2974ac2d88b41211d6a9bb8488ac", "addresses": ["1ADWhxSHnNVFaNwnYf4P3gNcNn9gGei6T7"], "asm": "OP_DUP OP_HASH160 6516ebc877de9acd2974ac2d88b41211d6a9bb84 OP_EQUALVERIFY OP_CHECKSIG", "type": "pubkeyhash"}, "value": 0.00639332, "n": 0}, {"scriptPubKey": {"type": "nulldata", "hex": "6a4c50000077d700014918a3b16f95623afe8708b65b23cc0f42c2fc38c5e5bf9ae76da98a211adaa32c9d2579c05c19505560bc10150f5baa15750612be7d91e9b27a1d100759d4ba30d2c37bb011d97e02cf", "asm": "OP_RETURN 000077d700014918a3b16f95623afe8708b65b23cc0f42c2fc38c5e5bf9ae76da98a211adaa32c9d2579c05c19505560bc10150f5baa15750612be7d91e9b27a1d100759d4ba30d2c37bb011d97e02cf"}, "value": 0.0, "n": 1}], "hex": "01000000010d0f136c7c25e8c320e23b9e561f2fa4e03961b81d6ff2f43f7311f369fc29af000000006a47304402204fa08b8c6c1402e9ef33de9fa3117ab6e9c9aa82a3b09dc320a6cab23be9d79f022011bc879a6e7423dc5af18a3e2cc0a77d6becfc89a4437aaf61455bb3a08e8b700121031d26137aa7f9c966fd0a550f42a3ae22ef1855cd9c13c9c1393c00114a798ab7ffffffff0264c10900000000001976a9146516ebc877de9acd2974ac2d88b41211d6a9bb8488ac0000000000000000536a4c50000077d700014918a3b16f95623afe8708b65b23cc0f42c2fc38c5e5bf9ae76da98a211adaa32c9d2579c05c19505560bc10150f5baa15750612be7d91e9b27a1d100759d4ba30d2c37bb011d97e02cf00000000", "vin": [{"sequence": 4294967295, "scriptSig": {"hex": "47304402204fa08b8c6c1402e9ef33de9fa3117ab6e9c9aa82a3b09dc320a6cab23be9d79f022011bc879a6e7423dc5af18a3e2cc0a77d6becfc89a4437aaf61455bb3a08e8b700121031d26137aa7f9c966fd0a550f42a3ae22ef1855cd9c13c9c1393c00114a798ab7", "asm": "304402204fa08b8c6c1402e9ef33de9fa3117ab6e9c9aa82a3b09dc320a6cab23be9d79f022011bc879a6e7423dc5af18a3e2cc0a77d6becfc89a4437aaf61455bb3a08e8b70[ALL] 031d26137aa7f9c966fd0a550f42a3ae22ef1855cd9c13c9c1393c00114a798ab7"}, "vout": 0, "txid": "af29fc69f311733ff4f26f1db86139e0a42f1f569e3be220c3e8257c6c130f0d"}], "txid": "7a99d0ffcb4ccd3084a8cd45caee69aae277d8cb2ded7083fa334d5fd19c4c09", "blocktime": 1537873282, "version": 1, "confirmations": 11484, "time": 1537873282, "locktime": 0, "vsize": 283, "size": 283}