{"hash": "7a9d644d2ad474a6d6c598117d153864b7601c4a566298cebfa5fc1350551e86", "blockhash": "0000000000000000001e0dab787dd257d1dbfcb92a98c2207d5e1078be1f4165", "vout": [{"scriptPubKey": {"reqSigs": 1, "hex": "a914358eeaa1765141bef4fa0a9746ee65032c1f163787", "addresses": ["36aCwj1TuAsvZHhdYvVNAkhLbqsKiLQY9X"], "asm": "OP_HASH160 358eeaa1765141bef4fa0a9746ee65032c1f1637 OP_EQUAL", "type": "scripthash"}, "value": 0.02068, "n": 0}, {"scriptPubKey": {"reqSigs": 1, "hex": "76a9142ac2a4dc85a3c010d4aa9132018dd2596a09ca1188ac", "addresses": ["14u6ZABpeETjPR5HYwim1x4YziFMmRosQn"], "asm": "OP_DUP OP_HASH160 2ac2a4dc85a3c010d4aa9132018dd2596a09ca11 OP_EQUALVERIFY OP_CHECKSIG", "type": "pubkeyhash"}, "value": 0.0014862, "n": 1}], "hex": "01000000029840f06f82415c74db6a6d063e08dd3088582909e7e6ce76003208a6f039b8de010000006a47304402203aae4781c728977fb570dab5a1feb6a60a5a8149f5bd7145ee2124374c3a8e1402202c3b70785e75a944e3f5358e8c85fb56de0d469997dbc1eefa8c9bd39022900b012102d61dd8776ed26a7eb46ca560c719614215a6d12ddf4320b6754ef286ebb8e9d1ffffffff89012613ba3acb1c9fed0e575b31730d77450539403d6ab9030fd4104d99a446000000006b483045022100f6be42b3430ebfc59fcae5a5b7d7c9ed9623e9e3d8425f8b3571cdf31855ec520220348d6e57b6675db7335efc2e49395d6838596ccbdd0e4988d469406acf197a1a01210220c470f7147a70d77eada9ad9c3a96734c8b14997d506a68b5880024987a9380ffffffff02208e1f000000000017a914358eeaa1765141bef4fa0a9746ee65032c1f1637878c440200000000001976a9142ac2a4dc85a3c010d4aa9132018dd2596a09ca1188ac00000000", "vin": [{"sequence": 4294967295, "scriptSig": {"hex": "47304402203aae4781c728977fb570dab5a1feb6a60a5a8149f5bd7145ee2124374c3a8e1402202c3b70785e75a944e3f5358e8c85fb56de0d469997dbc1eefa8c9bd39022900b012102d61dd8776ed26a7eb46ca560c719614215a6d12ddf4320b6754ef286ebb8e9d1", "asm": "304402203aae4781c728977fb570dab5a1feb6a60a5a8149f5bd7145ee2124374c3a8e1402202c3b70785e75a944e3f5358e8c85fb56de0d469997dbc1eefa8c9bd39022900b[ALL] 02d61dd8776ed26a7eb46ca560c719614215a6d12ddf4320b6754ef286ebb8e9d1"}, "vout": 1, "txid": "deb839f0a608320076cee6e70929588830dd083e066d6adb745c41826ff04098"}, {"sequence": 4294967295, "scriptSig": {"hex": "483045022100f6be42b3430ebfc59fcae5a5b7d7c9ed9623e9e3d8425f8b3571cdf31855ec520220348d6e57b6675db7335efc2e49395d6838596ccbdd0e4988d469406acf197a1a01210220c470f7147a70d77eada9ad9c3a96734c8b14997d506a68b5880024987a9380", "asm": "3045022100f6be42b3430ebfc59fcae5a5b7d7c9ed9623e9e3d8425f8b3571cdf31855ec520220348d6e57b6675db7335efc2e49395d6838596ccbdd0e4988d469406acf197a1a[ALL] 0220c470f7147a70d77eada9ad9c3a96734c8b14997d506a68b5880024987a9380"}, "vout": 0, "txid": "46a4994d10d40f03b96a3d40390545770d73315b570eed9f1ccb3aba13260189"}], "txid": "7a9d644d2ad474a6d6c598117d153864b7601c4a566298cebfa5fc1350551e86", "blocktime": 1537872475, "version": 1, "confirmations": 11486, "time": 1537872475, "locktime": 0, "vsize": 371, "size": 371}