{"hash": "7a9f0e2808561cef903901499615253d8157b887e4f1b6f6c094e464cd145a4f", "blockhash": "00000000000000000004ffacab907a6b429b9a5745fa0b75af4234bf69dd7176", "vout": [{"scriptPubKey": {"reqSigs": 1, "hex": "76a9143619dbf01aad3347101ceda5124e7faa8abdca6c88ac", "addresses": ["15w4U5okkP1RooKFU5EtVbn847ThoYrB8m"], "asm": "OP_DUP OP_HASH160 3619dbf01aad3347101ceda5124e7faa8abdca6c OP_EQUALVERIFY OP_CHECKSIG", "type": "pubkeyhash"}, "value": 0.01003314, "n": 0}, {"scriptPubKey": {"reqSigs": 1, "hex": "a91481e6c5dd3b01f81b7af24dcaefd0f232231609c087", "addresses": ["3DXsYfxjECV5DnQsYzs1iud7xwX4g3HXFr"], "asm": "OP_HASH160 81e6c5dd3b01f81b7af24dcaefd0f232231609c0 OP_EQUAL", "type": "scripthash"}, "value": 0.00225117, "n": 1}], "hex": "02000000019024f1fbe4984878355fa22ebc69385ea1f0378d87200248fd818bd9c6d74a8a000000006b483045022100be57a05b8350783559c03c1c8807a56c68f99bcfaf1dca42f8e29b8cd2db71e402204ac38abd4029eb0dd0d9d31cc7e3f370c76d77cc948f141b164c257c5a1b48ae012103f515cd07354db3da9a2999354ab94543ddde4de7568cfcd5df03992caf21f08cfeffffff02324f0f00000000001976a9143619dbf01aad3347101ceda5124e7faa8abdca6c88ac5d6f03000000000017a91481e6c5dd3b01f81b7af24dcaefd0f232231609c08716490800", "vin": [{"sequence": 4294967294, "scriptSig": {"hex": "483045022100be57a05b8350783559c03c1c8807a56c68f99bcfaf1dca42f8e29b8cd2db71e402204ac38abd4029eb0dd0d9d31cc7e3f370c76d77cc948f141b164c257c5a1b48ae012103f515cd07354db3da9a2999354ab94543ddde4de7568cfcd5df03992caf21f08c", "asm": "3045022100be57a05b8350783559c03c1c8807a56c68f99bcfaf1dca42f8e29b8cd2db71e402204ac38abd4029eb0dd0d9d31cc7e3f370c76d77cc948f141b164c257c5a1b48ae[ALL] 03f515cd07354db3da9a2999354ab94543ddde4de7568cfcd5df03992caf21f08c"}, "vout": 0, "txid": "8a4ad7c6d98b81fd480220878d37f0a15e3869bc2ea25f35784898e4fbf12490"}], "txid": "7a9f0e2808561cef903901499615253d8157b887e4f1b6f6c094e464cd145a4f", "blocktime": 1537875543, "version": 2, "confirmations": 11464, "time": 1537875543, "locktime": 542998, "vsize": 224, "size": 224}