{"hash": "7aa0b5c53e549661cd2c07503029c34c3228ab695a1b6da89f70d6f45c0de2ac", "blockhash": "0000000000000000000e13cef7c366c0283d82e591d1acd082e914b08063cdf1", "vout": [{"scriptPubKey": {"reqSigs": 1, "hex": "76a9148c5499c46ea4a67424b8fff552453963e8b058b688ac", "addresses": ["1Dnzx1jnkaRR8drhheyvXm1FZHgykvKdy7"], "asm": "OP_DUP OP_HASH160 8c5499c46ea4a67424b8fff552453963e8b058b6 OP_EQUALVERIFY OP_CHECKSIG", "type": "pubkeyhash"}, "value": 0.000362, "n": 0}, {"scriptPubKey": {"reqSigs": 1, "hex": "a9147e5a74c4c3c4eb97676a56c42e0fba0d4bc1db4987", "addresses": ["3DD7RiVteAAWzcYWmuBRqQQ8GWD49fUc1U"], "asm": "OP_HASH160 7e5a74c4c3c4eb97676a56c42e0fba0d4bc1db49 OP_EQUAL", "type": "scripthash"}, "value": 0.003129, "n": 1}], "hex": "0100000001b201cedff13b13548eb9244c5e98c0383d9357974622585276247b4020e3a42c000000006a47304402201416df50c436441c8702050563e445dfb22333b934de18ebbe16b80ca364a92e022071394e70e2cc83ddf1e289cce8c5a192539741aca35df61d8a0c429cab166941012102c229bc8b5f535344dcfd2ec47639562e1623f90841b54041745c1e733e552717ffffffff02688d0000000000001976a9148c5499c46ea4a67424b8fff552453963e8b058b688ac44c604000000000017a9147e5a74c4c3c4eb97676a56c42e0fba0d4bc1db498700000000", "vin": [{"sequence": 4294967295, "scriptSig": {"hex": "47304402201416df50c436441c8702050563e445dfb22333b934de18ebbe16b80ca364a92e022071394e70e2cc83ddf1e289cce8c5a192539741aca35df61d8a0c429cab166941012102c229bc8b5f535344dcfd2ec47639562e1623f90841b54041745c1e733e552717", "asm": "304402201416df50c436441c8702050563e445dfb22333b934de18ebbe16b80ca364a92e022071394e70e2cc83ddf1e289cce8c5a192539741aca35df61d8a0c429cab166941[ALL] 02c229bc8b5f535344dcfd2ec47639562e1623f90841b54041745c1e733e552717"}, "vout": 0, "txid": "2ca4e320407b2476525822469757933d38c0985e4c24b98e54133bf1dfce01b2"}], "txid": "7aa0b5c53e549661cd2c07503029c34c3228ab695a1b6da89f70d6f45c0de2ac", "blocktime": 1537871767, "version": 1, "confirmations": 11493, "time": 1537871767, "locktime": 0, "vsize": 223, "size": 223}