{"hash": "fb54bcc63376fac633d8785eead7816dcd020b4dd4760d5df352addcdcb6c73c", "blockhash": "00000000000000000024a2167bbff67b0be802c0b01cdd79e6331c2be6459f87", "vout": [{"scriptPubKey": {"reqSigs": 1, "hex": "0014a2a10eb61447107a90f2a6193560925810b5840c", "addresses": ["bc1q52ssads5gug84y8j5cvn2cyjtqgttpqv58py0g"], "asm": "0 a2a10eb61447107a90f2a6193560925810b5840c", "type": "witness_v0_keyhash"}, "value": 0.0062942, "n": 0}, {"scriptPubKey": {"reqSigs": 1, "hex": "a914bcd738e92f99b00e2dc50577cbbf1bb55fa5c52787", "addresses": ["3JuWnWt5kWD19tjKUryjqr1ZpBGTGPK6JN"], "asm": "OP_HASH160 bcd738e92f99b00e2dc50577cbbf1bb55fa5c527 OP_EQUAL", "type": "scripthash"}, "value": 0.0287, "n": 1}], "hex": "010000000001011076f76c6b3631084925553cc88f29863569aa01140ab2b1050f56b8aee6279800000000171600141c7c88134932b019e3098614436dbf896e689b04ffffffff02ac9a090000000000160014a2a10eb61447107a90f2a6193560925810b5840cf0ca2b000000000017a914bcd738e92f99b00e2dc50577cbbf1bb55fa5c5278702473044022078e52dd226fac4c1a3dbb9cf4e010c7e94991f4e172f37ab79bfd8e63a752c8802204676e0c789928888ef0239b2ca12e124cdffa6caea8847153c299af1c68f0325012102652f4f7a823a1978823244c7e33b01c6a6c417257e1e101a52d4993275e1c0e300000000", "vin": [{"txinwitness": ["3044022078e52dd226fac4c1a3dbb9cf4e010c7e94991f4e172f37ab79bfd8e63a752c8802204676e0c789928888ef0239b2ca12e124cdffa6caea8847153c299af1c68f032501", "02652f4f7a823a1978823244c7e33b01c6a6c417257e1e101a52d4993275e1c0e3"], "sequence": 4294967295, "scriptSig": {"hex": "1600141c7c88134932b019e3098614436dbf896e689b04", "asm": "00141c7c88134932b019e3098614436dbf896e689b04"}, "vout": 0, "txid": "9827e6aeb8560f05b1b20a1401aa693586298fc83c5525490831366b6cf77610"}], "txid": "7aa18370c7b5b5efb16948a87fa5f7adb377ec455a21712dbf22228f7d31b072", "blocktime": 1537870564, "version": 1, "confirmations": 11515, "time": 1537870564, "locktime": 0, "vsize": 165, "size": 246}