{"hash": "7aa41c345dd083396e82dc49ca0d2a110f4b0d966ae15d7b4031258ba1257b4b", "blockhash": "0000000000000000000baef3f32e3676a92c3b2e5da21b426e4f302fc371ce76", "vout": [{"scriptPubKey": {"reqSigs": 1, "hex": "a914a2035ae75a4679e8815cd41691a4e449e9f056a087", "addresses": ["3GTfQjerR3gKUH5swmusX2EAboakB2whaw"], "asm": "OP_HASH160 a2035ae75a4679e8815cd41691a4e449e9f056a0 OP_EQUAL", "type": "scripthash"}, "value": 0.0055, "n": 0}, {"scriptPubKey": {"reqSigs": 1, "hex": "76a914668d2a0d672ef721f30237acff2d7b3a788559be88ac", "addresses": ["1AMF2qFbdZALTUmy31VyF5yaWRhSzaaUun"], "asm": "OP_DUP OP_HASH160 668d2a0d672ef721f30237acff2d7b3a788559be OP_EQUALVERIFY OP_CHECKSIG", "type": "pubkeyhash"}, "value": 0.04467544, "n": 1}], "hex": "0100000001cd8b2f71bd1db1a729319c6637a5c382f9f6c8b8f037aa873ac0097e2aa2bb7a010000006b483045022100f9f3de36c10d6f44a874a7ebb615710b9a9974bd002de1e992978b91318d722b02202c04ac9196e6c30b52df755e5eced317afa027c4ff7967ff33fddbcde3104763012103e5c582e053f1fb8b7b35eed107917de40982e3b36865045d348ad8d6ffa3b689fdffffff02706408000000000017a914a2035ae75a4679e8815cd41691a4e449e9f056a087582b4400000000001976a914668d2a0d672ef721f30237acff2d7b3a788559be88ac16490800", "vin": [{"sequence": 4294967293, "scriptSig": {"hex": "483045022100f9f3de36c10d6f44a874a7ebb615710b9a9974bd002de1e992978b91318d722b02202c04ac9196e6c30b52df755e5eced317afa027c4ff7967ff33fddbcde3104763012103e5c582e053f1fb8b7b35eed107917de40982e3b36865045d348ad8d6ffa3b689", "asm": "3045022100f9f3de36c10d6f44a874a7ebb615710b9a9974bd002de1e992978b91318d722b02202c04ac9196e6c30b52df755e5eced317afa027c4ff7967ff33fddbcde3104763[ALL] 03e5c582e053f1fb8b7b35eed107917de40982e3b36865045d348ad8d6ffa3b689"}, "vout": 1, "txid": "7abba22a7e09c03a87aa37f0b8c8f6f982c3a537669c3129a7b11dbd712f8bcd"}], "txid": "7aa41c345dd083396e82dc49ca0d2a110f4b0d966ae15d7b4031258ba1257b4b", "blocktime": 1537876114, "version": 1, "confirmations": 11460, "time": 1537876114, "locktime": 542998, "vsize": 224, "size": 224}