{"hash": "7aa559f59776bf4db7bf8483f04882d17ffa247cb35d4f7af7b311d1a4abe3e0", "blockhash": "000000000000000000022b45ed06c6f4ccd3cf7fb5ba4856ebd2e58215665228", "vout": [{"scriptPubKey": {"type": "nulldata", "hex": "6a146f6d6e69000000000000001f000000e0b4715300", "asm": "OP_RETURN 6f6d6e69000000000000001f000000e0b4715300"}, "value": 0.0, "n": 0}, {"scriptPubKey": {"reqSigs": 1, "hex": "76a914a25dec4d0011064ef106a983c39c7a540699f22088ac", "addresses": ["1FoWyxwPXuj4C6abqwhjDWdz6D4PZgYRjA"], "asm": "OP_DUP OP_HASH160 a25dec4d0011064ef106a983c39c7a540699f220 OP_EQUALVERIFY OP_CHECKSIG", "type": "pubkeyhash"}, "value": 5.46e-06, "n": 1}, {"scriptPubKey": {"reqSigs": 1, "hex": "76a914da22b7b47c9a0fb4da8416c811141d3e2e900e0d88ac", "addresses": ["1LtPu3KbzAbZxbToRrN7cqmK9sm2fG3xWm"], "asm": "OP_DUP OP_HASH160 da22b7b47c9a0fb4da8416c811141d3e2e900e0d OP_EQUALVERIFY OP_CHECKSIG", "type": "pubkeyhash"}, "value": 0.00590125, "n": 2}], "hex": "0100000002a64a82734828405bbf6d1c2f77238b3e74c8393e417951ae342ce128c6c12c8a010000006b483045022100f86edb53dcb531d130cf733e15fa02febd2efb3626c97c87a0681ad71ce8301e02206b624c5d466a8900301283697b2b936bf84845c90e2eaba6e18c929c06b65d3f012102b72f5e9f18354f24f2bf5a8b489d930d8446964fb6348c7ad4a2ea09a0133e8afeffffffed1cf49fa18e68584dc7a5215922997bef11c8a5e676f520900e9694929c64a9010000006b483045022100cf6de25cb6208120e7dea08b8cd9e688dcf8b58e5347a687539e0ae231f6be980220060ad9c3e5f018dc89ec2abc6ab6d77ebab5e52f6e965b3dfcd663c96174aaaf012102b72f5e9f18354f24f2bf5a8b489d930d8446964fb6348c7ad4a2ea09a0133e8afeffffff030000000000000000166a146f6d6e69000000000000001f000000e0b471530022020000000000001976a914a25dec4d0011064ef106a983c39c7a540699f22088ac2d010900000000001976a914da22b7b47c9a0fb4da8416c811141d3e2e900e0d88ac0b490800", "vin": [{"sequence": 4294967294, "scriptSig": {"hex": "483045022100f86edb53dcb531d130cf733e15fa02febd2efb3626c97c87a0681ad71ce8301e02206b624c5d466a8900301283697b2b936bf84845c90e2eaba6e18c929c06b65d3f012102b72f5e9f18354f24f2bf5a8b489d930d8446964fb6348c7ad4a2ea09a0133e8a", "asm": "3045022100f86edb53dcb531d130cf733e15fa02febd2efb3626c97c87a0681ad71ce8301e02206b624c5d466a8900301283697b2b936bf84845c90e2eaba6e18c929c06b65d3f[ALL] 02b72f5e9f18354f24f2bf5a8b489d930d8446964fb6348c7ad4a2ea09a0133e8a"}, "vout": 1, "txid": "8a2cc1c628e12c34ae5179413e39c8743e8b23772f1c6dbf5b40284873824aa6"}, {"sequence": 4294967294, "scriptSig": {"hex": "483045022100cf6de25cb6208120e7dea08b8cd9e688dcf8b58e5347a687539e0ae231f6be980220060ad9c3e5f018dc89ec2abc6ab6d77ebab5e52f6e965b3dfcd663c96174aaaf012102b72f5e9f18354f24f2bf5a8b489d930d8446964fb6348c7ad4a2ea09a0133e8a", "asm": "3045022100cf6de25cb6208120e7dea08b8cd9e688dcf8b58e5347a687539e0ae231f6be980220060ad9c3e5f018dc89ec2abc6ab6d77ebab5e52f6e965b3dfcd663c96174aaaf[ALL] 02b72f5e9f18354f24f2bf5a8b489d930d8446964fb6348c7ad4a2ea09a0133e8a"}, "vout": 1, "txid": "a9649c9294960e9020f576e6a5c811ef7b99225921a5c74d58688ea19ff41ced"}], "txid": "7aa559f59776bf4db7bf8483f04882d17ffa247cb35d4f7af7b311d1a4abe3e0", "blocktime": 1537869901, "version": 1, "confirmations": 11524, "time": 1537869901, "locktime": 542987, "vsize": 405, "size": 405}