{"hash": "7aacd646747f2daf738820bcd286058bcd1961fa5f019a2299bbe9c6979b00a4", "blockhash": "0000000000000000001e0dab787dd257d1dbfcb92a98c2207d5e1078be1f4165", "vout": [{"scriptPubKey": {"reqSigs": 1, "hex": "76a914e01e3ee5d3dc5102cd3fa98e84ceb6a77898c9fe88ac", "addresses": ["1MS2bUhzRakPiBhc5BXnALTBAvy6AaqrFJ"], "asm": "OP_DUP OP_HASH160 e01e3ee5d3dc5102cd3fa98e84ceb6a77898c9fe OP_EQUALVERIFY OP_CHECKSIG", "type": "pubkeyhash"}, "value": 0.11883123, "n": 0}, {"scriptPubKey": {"reqSigs": 1, "hex": "76a914aa3446e26929be6ce5ada18bb7b876f5286815ee88ac", "addresses": ["1GWxVseroRKJC8ohrbXyq3j6MNW2ARLyiS"], "asm": "OP_DUP OP_HASH160 aa3446e26929be6ce5ada18bb7b876f5286815ee OP_EQUALVERIFY OP_CHECKSIG", "type": "pubkeyhash"}, "value": 0.20346519, "n": 1}], "hex": "01000000035a89abb87c935e1ad96b9d291433521197a399f100f299258635c35742746019000000006b483045022100804705b61fdf33d60436c2f811592c4e6357bbf476c7a4ae6b4bac9fccd3ab7202205644bc9bda909122a532daf56903da91b6e13e6306de7dae0ca69284659579a001210211d4fcdcce01c72ff5f870639c6ccbd0d181d72f370496ed8f0de8ed844c5ef4ffffffffbd86c17e268a79d62287194d8df6530f4e21faba0e6c74777735061bde43c1520a0000006a473044022046ed660126b6eae80706d1cca727ffbd15d56a467b9a8569166ea9af9738834b02207d7e36aa82d8025b97682bdfbcc805037cac80112b456de338b052c7f0d8edfa012103866442a95067f01b5cf09d7d5f526b12abfe8e45b8a97786ae738676c268f5b6ffffffffbdaa7f2cc1c1d04c53040382767d6817b808e59f73abe1558f4e664e825cad5d000000006b483045022100a8af5472168aa07fd45ef4cb5b8d0c57cc860d9e0ff4375179b8840b36c1ff72022003442714efef0bb5c54221a6ebb04d01b83496bded9b9df2129c16c900e1f05c01210273dd4f754510e14538647638cc1e9a8a5a76c62d579c57b75d51ad670249944fffffffff027352b500000000001976a914e01e3ee5d3dc5102cd3fa98e84ceb6a77898c9fe88ac97763601000000001976a914aa3446e26929be6ce5ada18bb7b876f5286815ee88ac00000000", "vin": [{"sequence": 4294967295, "scriptSig": {"hex": "483045022100804705b61fdf33d60436c2f811592c4e6357bbf476c7a4ae6b4bac9fccd3ab7202205644bc9bda909122a532daf56903da91b6e13e6306de7dae0ca69284659579a001210211d4fcdcce01c72ff5f870639c6ccbd0d181d72f370496ed8f0de8ed844c5ef4", "asm": "3045022100804705b61fdf33d60436c2f811592c4e6357bbf476c7a4ae6b4bac9fccd3ab7202205644bc9bda909122a532daf56903da91b6e13e6306de7dae0ca69284659579a0[ALL] 0211d4fcdcce01c72ff5f870639c6ccbd0d181d72f370496ed8f0de8ed844c5ef4"}, "vout": 0, "txid": "1960744257c335862599f200f199a39711523314299d6bd91a5e937cb8ab895a"}, {"sequence": 4294967295, "scriptSig": {"hex": "473044022046ed660126b6eae80706d1cca727ffbd15d56a467b9a8569166ea9af9738834b02207d7e36aa82d8025b97682bdfbcc805037cac80112b456de338b052c7f0d8edfa012103866442a95067f01b5cf09d7d5f526b12abfe8e45b8a97786ae738676c268f5b6", "asm": "3044022046ed660126b6eae80706d1cca727ffbd15d56a467b9a8569166ea9af9738834b02207d7e36aa82d8025b97682bdfbcc805037cac80112b456de338b052c7f0d8edfa[ALL] 03866442a95067f01b5cf09d7d5f526b12abfe8e45b8a97786ae738676c268f5b6"}, "vout": 10, "txid": "52c143de1b06357777746c0ebafa214e0f53f68d4d198722d6798a267ec186bd"}, {"sequence": 4294967295, "scriptSig": {"hex": "483045022100a8af5472168aa07fd45ef4cb5b8d0c57cc860d9e0ff4375179b8840b36c1ff72022003442714efef0bb5c54221a6ebb04d01b83496bded9b9df2129c16c900e1f05c01210273dd4f754510e14538647638cc1e9a8a5a76c62d579c57b75d51ad670249944f", "asm": "3045022100a8af5472168aa07fd45ef4cb5b8d0c57cc860d9e0ff4375179b8840b36c1ff72022003442714efef0bb5c54221a6ebb04d01b83496bded9b9df2129c16c900e1f05c[ALL] 0273dd4f754510e14538647638cc1e9a8a5a76c62d579c57b75d51ad670249944f"}, "vout": 0, "txid": "5dad5c824e664e8f55e1ab739fe508b817687d76820304534cd0c1c12c7faabd"}], "txid": "7aacd646747f2daf738820bcd286058bcd1961fa5f019a2299bbe9c6979b00a4", "blocktime": 1537872475, "version": 1, "confirmations": 11487, "time": 1537872475, "locktime": 0, "vsize": 521, "size": 521}