{"hash": "7aae0524076a5e7ff6cf8cfd28420af9fc6d770cad85e2f195d3f8b3a7297e38", "blockhash": "00000000000000000024a2167bbff67b0be802c0b01cdd79e6331c2be6459f87", "vout": [{"scriptPubKey": {"reqSigs": 1, "hex": "76a914f5c921c63fb851f5656156ef765015e6a40f3ee488ac", "addresses": ["1PQbVtd5WoAM25jJ3UNFiwdLrXRHVv47bw"], "asm": "OP_DUP OP_HASH160 f5c921c63fb851f5656156ef765015e6a40f3ee4 OP_EQUALVERIFY OP_CHECKSIG", "type": "pubkeyhash"}, "value": 6.6e-06, "n": 0}, {"scriptPubKey": {"reqSigs": 1, "hex": "76a91472dba9746a955e1db3edda387867ad10623a370a88ac", "addresses": ["1BUKBFLxuvLScM11CHbtXQbrFdakZxDZtV"], "asm": "OP_DUP OP_HASH160 72dba9746a955e1db3edda387867ad10623a370a OP_EQUALVERIFY OP_CHECKSIG", "type": "pubkeyhash"}, "value": 0.00028073, "n": 1}], "hex": "010000000380f38a48750bbc735a3ed75c7ec32170397c8d24610e463bdfe751bcfd6da03e000000006b483045022100f1c72da5326b6ff421e8bb11e9b153097dc075411b4bd6ae981c7e819914b992022072722e312aed644bdc2c3b2b797d81424fa0ed083c208285ce385430293674360121020e95ac4853bc7d197062f2a5cff9b402f944db2e92d13950b2165c6ba4a687e2ffffffff803353197c27d07f46f139e899f69fd758b3e17db2f22d62ddcdbfb45e060f98000000006a47304402207a4c9cc8d4653aa66d54e24912987aa8b582eb4ffc97d24668e37a620f15d58102206fb9ac5d320ba3215ea40fec0897c7e2322605f19d9f70b52e5d1ab32d5da3830121033f045a8225c3cf2f7c41f94c4957b359ef2ff3e464224021db81e2b68c0d9690ffffffff212aaa6f8dafc46599ef75832eaec7285dbb4a02e9f289675b89b907da3208aa000000006a4730440220579afe4ec79a3985882ef1ecc20ff2dffea1018bd81850a8c298aa755d433a080220691bad77b6434b7c89e9406f88d00b3ee72f360d3940cf369df592b87ff961d4012103f9fc60a21c80a766af74009a7292dba7238120d9d57e636f6c4b5ea7d219bac4ffffffff0294020000000000001976a914f5c921c63fb851f5656156ef765015e6a40f3ee488aca96d0000000000001976a91472dba9746a955e1db3edda387867ad10623a370a88ac00000000", "vin": [{"sequence": 4294967295, "scriptSig": {"hex": "483045022100f1c72da5326b6ff421e8bb11e9b153097dc075411b4bd6ae981c7e819914b992022072722e312aed644bdc2c3b2b797d81424fa0ed083c208285ce385430293674360121020e95ac4853bc7d197062f2a5cff9b402f944db2e92d13950b2165c6ba4a687e2", "asm": "3045022100f1c72da5326b6ff421e8bb11e9b153097dc075411b4bd6ae981c7e819914b992022072722e312aed644bdc2c3b2b797d81424fa0ed083c208285ce38543029367436[ALL] 020e95ac4853bc7d197062f2a5cff9b402f944db2e92d13950b2165c6ba4a687e2"}, "vout": 0, "txid": "3ea06dfdbc51e7df3b460e61248d7c397021c37e5cd73e5a73bc0b75488af380"}, {"sequence": 4294967295, "scriptSig": {"hex": "47304402207a4c9cc8d4653aa66d54e24912987aa8b582eb4ffc97d24668e37a620f15d58102206fb9ac5d320ba3215ea40fec0897c7e2322605f19d9f70b52e5d1ab32d5da3830121033f045a8225c3cf2f7c41f94c4957b359ef2ff3e464224021db81e2b68c0d9690", "asm": "304402207a4c9cc8d4653aa66d54e24912987aa8b582eb4ffc97d24668e37a620f15d58102206fb9ac5d320ba3215ea40fec0897c7e2322605f19d9f70b52e5d1ab32d5da383[ALL] 033f045a8225c3cf2f7c41f94c4957b359ef2ff3e464224021db81e2b68c0d9690"}, "vout": 0, "txid": "980f065eb4bfcddd622df2b27de1b358d79ff699e839f1467fd0277c19533380"}, {"sequence": 4294967295, "scriptSig": {"hex": "4730440220579afe4ec79a3985882ef1ecc20ff2dffea1018bd81850a8c298aa755d433a080220691bad77b6434b7c89e9406f88d00b3ee72f360d3940cf369df592b87ff961d4012103f9fc60a21c80a766af74009a7292dba7238120d9d57e636f6c4b5ea7d219bac4", "asm": "30440220579afe4ec79a3985882ef1ecc20ff2dffea1018bd81850a8c298aa755d433a080220691bad77b6434b7c89e9406f88d00b3ee72f360d3940cf369df592b87ff961d4[ALL] 03f9fc60a21c80a766af74009a7292dba7238120d9d57e636f6c4b5ea7d219bac4"}, "vout": 0, "txid": "aa0832da07b9895b6789f2e9024abb5d28c7ae2e8375ef9965c4af8d6faa2a21"}], "txid": "7aae0524076a5e7ff6cf8cfd28420af9fc6d770cad85e2f195d3f8b3a7297e38", "blocktime": 1537870564, "version": 1, "confirmations": 11515, "time": 1537870564, "locktime": 0, "vsize": 520, "size": 520}