{"hash": "236d7d3b987477b7c0e62e2d81a36d6f3b3d67c3337cf8900c5fb26e77797846", "blockhash": "0000000000000000001f76057863aec43deb6fa401d9628bb513d65a8098bfab", "vout": [{"scriptPubKey": {"reqSigs": 1, "hex": "a9144a8c6bcef64845ce03f4f9ab8c4f0d7e7393595b87", "addresses": ["38VC9NRPdcHE8TNp7V38SSuRqqFNCu458e"], "asm": "OP_HASH160 4a8c6bcef64845ce03f4f9ab8c4f0d7e7393595b OP_EQUAL", "type": "scripthash"}, "value": 0.01, "n": 0}, {"scriptPubKey": {"reqSigs": 1, "hex": "a9149b96d9fbf5ec0d998683bfa1a30833a26c8f56be87", "addresses": ["3FshNd7hqg6DK2CBZncUePVGWRE3MGXK3m"], "asm": "OP_HASH160 9b96d9fbf5ec0d998683bfa1a30833a26c8f56be OP_EQUAL", "type": "scripthash"}, "value": 5.51389562, "n": 1}], "hex": "020000000001012d063df28869f8fbeae06119d934bc9f9f9bdd074982fe96e59a4428032caac80000000017160014c13390ed88c99a36e31bee3b9d0d4c4d96c184f2feffffff0240420f000000000017a9144a8c6bcef64845ce03f4f9ab8c4f0d7e7393595b877a89dd200000000017a9149b96d9fbf5ec0d998683bfa1a30833a26c8f56be87024830450221009ab11e34742033ec2edd5879b1cfe6d927c6c263c25a0f186dc56a0e24eb884d022033ea928b6d4045b81eba53a11b2a6809c0969cd194dfff8d060077cd81320be4012102d30e3f2d8e0060fa95cdcf26aa983ec501aff1fb899c94bd85b04a10587c600914490800", "vin": [{"txinwitness": ["30450221009ab11e34742033ec2edd5879b1cfe6d927c6c263c25a0f186dc56a0e24eb884d022033ea928b6d4045b81eba53a11b2a6809c0969cd194dfff8d060077cd81320be401", "02d30e3f2d8e0060fa95cdcf26aa983ec501aff1fb899c94bd85b04a10587c6009"], "sequence": 4294967294, "scriptSig": {"hex": "160014c13390ed88c99a36e31bee3b9d0d4c4d96c184f2", "asm": "0014c13390ed88c99a36e31bee3b9d0d4c4d96c184f2"}, "vout": 0, "txid": "c8aa2c0328449ae596fe824907dd9b9f9fbc34d91961e0eafbf86988f23d062d"}], "txid": "7ab08dc07fe4fc7647214c8188be13c38577a2a1b5cdc25ed3c651cc536baf01", "blocktime": 1537873891, "version": 2, "confirmations": 11479, "time": 1537873891, "locktime": 542996, "vsize": 166, "size": 248}