{"hash": "7abae0a003bd0648ea36009ecf75d118a1430ec43c0e00939d9f5298b7e4d4ba", "blockhash": "0000000000000000001f76057863aec43deb6fa401d9628bb513d65a8098bfab", "vout": [{"scriptPubKey": {"reqSigs": 1, "hex": "76a914eda338dcc8f7c01b32e8620142d39d10dfebb8c088ac", "addresses": ["1NfWgLTTP5gmUkfJq6BJqKoenbnk8REFVu"], "asm": "OP_DUP OP_HASH160 eda338dcc8f7c01b32e8620142d39d10dfebb8c0 OP_EQUALVERIFY OP_CHECKSIG", "type": "pubkeyhash"}, "value": 2.169e-05, "n": 0}], "hex": "0100000001712d848290241c93ec4f704694bd134d5d34e437de49d17b68c9420b92102412000000006b483045022100bb1cf5d44ca671d3fd0d9ec46ee8bd98640071d2d5ee2df737a886ee4752936c022012379e57597327c7cb959071989f9e79e48489b33b501124487b4922579962c4012102f28087d0088979c1552c5fbbfdf164e29d7ece206d6c3482698932c304bcafe8ffffffff0179080000000000001976a914eda338dcc8f7c01b32e8620142d39d10dfebb8c088ac00000000", "vin": [{"sequence": 4294967295, "scriptSig": {"hex": "483045022100bb1cf5d44ca671d3fd0d9ec46ee8bd98640071d2d5ee2df737a886ee4752936c022012379e57597327c7cb959071989f9e79e48489b33b501124487b4922579962c4012102f28087d0088979c1552c5fbbfdf164e29d7ece206d6c3482698932c304bcafe8", "asm": "3045022100bb1cf5d44ca671d3fd0d9ec46ee8bd98640071d2d5ee2df737a886ee4752936c022012379e57597327c7cb959071989f9e79e48489b33b501124487b4922579962c4[ALL] 02f28087d0088979c1552c5fbbfdf164e29d7ece206d6c3482698932c304bcafe8"}, "vout": 0, "txid": "122410920b42c9687bd149de37e4345d4d13bd9446704fec931c249082842d71"}], "txid": "7abae0a003bd0648ea36009ecf75d118a1430ec43c0e00939d9f5298b7e4d4ba", "blocktime": 1537873891, "version": 1, "confirmations": 11478, "time": 1537873891, "locktime": 0, "vsize": 192, "size": 192}