{"hash": "33d095735d437a3152b7de0c2ec1fe2dce1ba498186ee6c0f5e35181fc11026c", "blockhash": "0000000000000000000e13cef7c366c0283d82e591d1acd082e914b08063cdf1", "vout": [{"scriptPubKey": {"reqSigs": 1, "hex": "a914c1b880f41b0993c49235b06a5066908a9d52ff8987", "addresses": ["3KMKN7NBjiP4SNasa4cLviX4Y5wrzDGJTi"], "asm": "OP_HASH160 c1b880f41b0993c49235b06a5066908a9d52ff89 OP_EQUAL", "type": "scripthash"}, "value": 0.09533668, "n": 0}, {"scriptPubKey": {"reqSigs": 1, "hex": "76a91475c0d69a7c4b2dc0ad13e8396606b35bea15d16588ac", "addresses": ["1Bjd55rp8ruLkLLSGYnmRxzRBoiTWWDm52"], "asm": "OP_DUP OP_HASH160 75c0d69a7c4b2dc0ad13e8396606b35bea15d165 OP_EQUALVERIFY OP_CHECKSIG", "type": "pubkeyhash"}, "value": 0.00176938, "n": 1}, {"scriptPubKey": {"reqSigs": 1, "hex": "a9143854b85a1d5e7318b9661b746ee1325e991f70a487", "addresses": ["36psFk6CbNcEKnNcbiMKWMJFGNyiskNJQ2"], "asm": "OP_HASH160 3854b85a1d5e7318b9661b746ee1325e991f70a4 OP_EQUAL", "type": "scripthash"}, "value": 0.15557128, "n": 2}], "hex": "020000000001026c18b91a646554d5e4627ed0550ec89f507696d90ca2c6ba54fda0d446382e0d000000006b483045022100c785f8f602fde37df02cbf0674407625b71110036958de0234f1d259ab9c53c002204ede96f23544792b2d9118ce4d117b5473772b02fe4f223d4844d76b0e6a8369012102abab9af180e6c776a9e7917bf90ce99a3fe22e5ac2ca8553ac52fa556b6ff126ffffffff69d416c509870e12c22d8983841b599fe45242313d0da579e942942709a835d000000000171600140836998402596f462c58cd00531262b0a6131c48ffffffff03e47891000000000017a914c1b880f41b0993c49235b06a5066908a9d52ff89872ab30200000000001976a91475c0d69a7c4b2dc0ad13e8396606b35bea15d16588ac0862ed000000000017a9143854b85a1d5e7318b9661b746ee1325e991f70a4870002483045022100e12b003d8db7328e6aace4037ccdd25193b572d3bfb28ea717a895f63010f569022009d1814597a79e1e0ebdb8ee82b3a6bc836aafa0b7ff0404edca1c9d4dc9e5b2012102bffae160b79b5cff8a78c600f63523a380219d36088908e0e590e493382c515600000000", "vin": [{"sequence": 4294967295, "scriptSig": {"hex": "483045022100c785f8f602fde37df02cbf0674407625b71110036958de0234f1d259ab9c53c002204ede96f23544792b2d9118ce4d117b5473772b02fe4f223d4844d76b0e6a8369012102abab9af180e6c776a9e7917bf90ce99a3fe22e5ac2ca8553ac52fa556b6ff126", "asm": "3045022100c785f8f602fde37df02cbf0674407625b71110036958de0234f1d259ab9c53c002204ede96f23544792b2d9118ce4d117b5473772b02fe4f223d4844d76b0e6a8369[ALL] 02abab9af180e6c776a9e7917bf90ce99a3fe22e5ac2ca8553ac52fa556b6ff126"}, "vout": 0, "txid": "0d2e3846d4a0fd54bac6a20cd99676509fc80e55d07e62e4d55465641ab9186c"}, {"txinwitness": ["3045022100e12b003d8db7328e6aace4037ccdd25193b572d3bfb28ea717a895f63010f569022009d1814597a79e1e0ebdb8ee82b3a6bc836aafa0b7ff0404edca1c9d4dc9e5b201", "02bffae160b79b5cff8a78c600f63523a380219d36088908e0e590e493382c5156"], "sequence": 4294967295, "scriptSig": {"hex": "1600140836998402596f462c58cd00531262b0a6131c48", "asm": "00140836998402596f462c58cd00531262b0a6131c48"}, "vout": 0, "txid": "d035a809279442e979a50d3d314252e49f591b8483892dc2120e8709c516d469"}], "txid": "7ac313337b3a5552ceec18cce920b7ac8890ee99350b2d9d485c2b14b92b5ac1", "blocktime": 1537871767, "version": 2, "confirmations": 11490, "time": 1537871767, "locktime": 0, "vsize": 348, "size": 431}