{"hash": "2d70d1ad18bfdd1c36ca569bb7450e01ba7b924e08c708919d51fb83dd81c0df", "blockhash": "0000000000000000000baef3f32e3676a92c3b2e5da21b426e4f302fc371ce76", "vout": [{"scriptPubKey": {"reqSigs": 1, "hex": "a914136385f3bcd1116795e63424aceef96760c5a33187", "addresses": ["33TXzBhFoJvCVGFgU7kHk67YMvti6GRuzo"], "asm": "OP_HASH160 136385f3bcd1116795e63424aceef96760c5a331 OP_EQUAL", "type": "scripthash"}, "value": 0.00490001, "n": 0}, {"scriptPubKey": {"reqSigs": 1, "hex": "a914c3aac73b19a6df3a3a68ef69a8e9f79c8dff9a9c87", "addresses": ["3KXcGqASXznMituPhPnV7BkSc6CHZRLykC"], "asm": "OP_HASH160 c3aac73b19a6df3a3a68ef69a8e9f79c8dff9a9c OP_EQUAL", "type": "scripthash"}, "value": 0.02035127, "n": 1}], "hex": "01000000000101c567557e74c10a15ef476f8e8d3cf0cb5947352816a87ad35aee0089372eed1300000000232200200b5c15b2a266c1fd9e615145cf3cd379109fe761c2844ebebbc12b381bddc9faffffffff02117a07000000000017a914136385f3bcd1116795e63424aceef96760c5a33187b70d1f000000000017a914c3aac73b19a6df3a3a68ef69a8e9f79c8dff9a9c870400473044022073a021d9dff71df60d5a003ea14400386b4a28e42ed3161c6190668126fdf0260220644f6a0feffb6f39221afe33eccfb3708c130d6980905959dc198f91b67494a0014830450221008d23b53af235e86b827f8682d595b4c9f9883c4f5525b290603830aa09946a1e022023978e22fc81927d6127606e9c7d8042e4b31dd25b5dea4078182c22bb102c560147522102b590b6826675da568b914aa494372424b69f5fe06067fd7fa568cc41070c8e6b21024c55499905a522129124e75484b7ddea868aee9a7f01d75add901db6cf9b589f52ae00000000", "vin": [{"txinwitness": ["", "3044022073a021d9dff71df60d5a003ea14400386b4a28e42ed3161c6190668126fdf0260220644f6a0feffb6f39221afe33eccfb3708c130d6980905959dc198f91b67494a001", "30450221008d23b53af235e86b827f8682d595b4c9f9883c4f5525b290603830aa09946a1e022023978e22fc81927d6127606e9c7d8042e4b31dd25b5dea4078182c22bb102c5601", "522102b590b6826675da568b914aa494372424b69f5fe06067fd7fa568cc41070c8e6b21024c55499905a522129124e75484b7ddea868aee9a7f01d75add901db6cf9b589f52ae"], "sequence": 4294967295, "scriptSig": {"hex": "2200200b5c15b2a266c1fd9e615145cf3cd379109fe761c2844ebebbc12b381bddc9fa", "asm": "00200b5c15b2a266c1fd9e615145cf3cd379109fe761c2844ebebbc12b381bddc9fa"}, "vout": 0, "txid": "13ed2e378900ee5ad37aa81628354759cbf03c8d8e6f47ef150ac1747e5567c5"}], "txid": "7acb8b3f048ae7289067272589c0b237700698aa5526ef0e8620e48a88e69b22", "blocktime": 1537876114, "version": 1, "confirmations": 11459, "time": 1537876114, "locktime": 0, "vsize": 206, "size": 371}