{"hash": "30720cfcfca2a186c389c508b8182b2d36257977bf893d333467d34f89308e1e", "blockhash": "0000000000000000001cda96e906b7601b7a6fb1a3b62bca570a9e5d8f4b3de1", "vout": [{"scriptPubKey": {"reqSigs": 1, "hex": "a914c87066f0b917bd55f0ec84e3150d13b99e9707c287", "addresses": ["3KxqikBnHbRkQjnJk5SJoLZnS7ZiH3Dd8d"], "asm": "OP_HASH160 c87066f0b917bd55f0ec84e3150d13b99e9707c2 OP_EQUAL", "type": "scripthash"}, "value": 0.079, "n": 0}, {"scriptPubKey": {"reqSigs": 1, "hex": "a914804a43718fdb84a1a3e0676f7f7b3ddac57e6fa887", "addresses": ["3DPMP1iPtJvuVk8QAenyoHMPp4FFQRuLDn"], "asm": "OP_HASH160 804a43718fdb84a1a3e0676f7f7b3ddac57e6fa8 OP_EQUAL", "type": "scripthash"}, "value": 0.00475049, "n": 1}, {"scriptPubKey": {"reqSigs": 1, "hex": "76a914ff0ec245de2744d95a31e34918924109fcb0c4ba88ac", "addresses": ["1QFczP8mZZsoUMnX9s8HfK7LG3H5k6gC1V"], "asm": "OP_DUP OP_HASH160 ff0ec245de2744d95a31e34918924109fcb0c4ba OP_EQUALVERIFY OP_CHECKSIG", "type": "pubkeyhash"}, "value": 0.0032246, "n": 2}, {"scriptPubKey": {"reqSigs": 1, "hex": "a914f7a5c7e164b62d4723ffb81592a3a0ea3ccf607d87", "addresses": ["3QGTRaPx74Q1GRVfprF7URPkkwBxdA3sA2"], "asm": "OP_HASH160 f7a5c7e164b62d4723ffb81592a3a0ea3ccf607d OP_EQUAL", "type": "scripthash"}, "value": 24.96761041, "n": 3}], "hex": "0100000000010107610088854722bed5799e11c967259dbf91f0097596f04b5de230104fd2737b0200000017160014000b814f2c1a19852357ed615a08ec572a781ed1ffffffff04608b78000000000017a914c87066f0b917bd55f0ec84e3150d13b99e9707c287a93f07000000000017a914804a43718fdb84a1a3e0676f7f7b3ddac57e6fa8879ceb0400000000001976a914ff0ec245de2744d95a31e34918924109fcb0c4ba88acd18cd1940000000017a914f7a5c7e164b62d4723ffb81592a3a0ea3ccf607d870247304402206239e25d3454389acc18ee15292010bd37dd203ca97bbec78f8332a022ca969d02205fb45408a14a373db76e83f464a58d3479466831424fdc19c348c95e82726e04012102aad79950b2c2af3689e8644c89e9d10dff06c2d8926200496b92e9f7ccb0304c00000000", "vin": [{"txinwitness": ["304402206239e25d3454389acc18ee15292010bd37dd203ca97bbec78f8332a022ca969d02205fb45408a14a373db76e83f464a58d3479466831424fdc19c348c95e82726e0401", "02aad79950b2c2af3689e8644c89e9d10dff06c2d8926200496b92e9f7ccb0304c"], "sequence": 4294967295, "scriptSig": {"hex": "160014000b814f2c1a19852357ed615a08ec572a781ed1", "asm": "0014000b814f2c1a19852357ed615a08ec572a781ed1"}, "vout": 2, "txid": "7b73d24f1030e25d4bf0967509f091bf9d2567c9119e79d5be22478588006107"}], "txid": "7acdcb077f59ce58da1e983bd51584d9d95c90dc72740e0a54485022f1bb47d4", "blocktime": 1537873282, "version": 1, "confirmations": 11484, "time": 1537873282, "locktime": 0, "vsize": 232, "size": 313}