{"hash": "1a591f0c74da2a4a8e3996dc079a62fc5e47f8a37f3cbd0a20f631db05190c50", "blockhash": "00000000000000000004ffacab907a6b429b9a5745fa0b75af4234bf69dd7176", "vout": [{"scriptPubKey": {"reqSigs": 1, "hex": "a914e219ad6ca1b42a7602465883f734486b7f141dd687", "addresses": ["3NJXPzngr32qqyKNSrY8fSCPocoBQYcbKC"], "asm": "OP_HASH160 e219ad6ca1b42a7602465883f734486b7f141dd6 OP_EQUAL", "type": "scripthash"}, "value": 0.00997426, "n": 0}, {"scriptPubKey": {"reqSigs": 1, "hex": "76a914aad00f922247db057ce05bf3364d62b00a06234d88ac", "addresses": ["1GaB7vye2hSBXVPnLphDP1NPGMUrpN8a18"], "asm": "OP_DUP OP_HASH160 aad00f922247db057ce05bf3364d62b00a06234d OP_EQUALVERIFY OP_CHECKSIG", "type": "pubkeyhash"}, "value": 0.061365, "n": 1}], "hex": "02000000000102a418d6aa8ed6ee93f2de2127036ea092929112c44f02932708f4b3047910f7b50000000017160014c089aa34ed5444db293f9efe968445d3ca9bdf22feffffffd6bfd9fa340fd6105f172ee6f22e03524ef197ac6a4b75d576957e53a2c12d90000000001716001441d9497873d0429b67c41218ca77a242b6d6cf29feffffff0232380f000000000017a914e219ad6ca1b42a7602465883f734486b7f141dd687b4a25d00000000001976a914aad00f922247db057ce05bf3364d62b00a06234d88ac02483045022100d4896a05c6e94c07182b85832c477c173e98c7d4f11cae0ddb6c1a1677c2a1ca02204e4181dc4a820b067bd479a761c19f57960973cee84aee924a892311142466bb0121039ed727bdd6d782e6b86985d2c3c11fb80378b298308688a447efbea23a8277c102483045022100a28da61f5fdd7f0500a5c8452add487b26a57bd2230340cd2cecf299b3cf47af022047e08174bf8bb7ac789afd646f9226191362564404a60682694195fbe9f0daf2012103bde58319fb9bc4b660ed0e57b22530d676691d9f365b1e2020ea1616a3428e5516490800", "vin": [{"txinwitness": ["3045022100d4896a05c6e94c07182b85832c477c173e98c7d4f11cae0ddb6c1a1677c2a1ca02204e4181dc4a820b067bd479a761c19f57960973cee84aee924a892311142466bb01", "039ed727bdd6d782e6b86985d2c3c11fb80378b298308688a447efbea23a8277c1"], "sequence": 4294967294, "scriptSig": {"hex": "160014c089aa34ed5444db293f9efe968445d3ca9bdf22", "asm": "0014c089aa34ed5444db293f9efe968445d3ca9bdf22"}, "vout": 0, "txid": "b5f7107904b3f4082793024fc412919292a06e032721def293eed68eaad618a4"}, {"txinwitness": ["3045022100a28da61f5fdd7f0500a5c8452add487b26a57bd2230340cd2cecf299b3cf47af022047e08174bf8bb7ac789afd646f9226191362564404a60682694195fbe9f0daf201", "03bde58319fb9bc4b660ed0e57b22530d676691d9f365b1e2020ea1616a3428e55"], "sequence": 4294967294, "scriptSig": {"hex": "16001441d9497873d0429b67c41218ca77a242b6d6cf29", "asm": "001441d9497873d0429b67c41218ca77a242b6d6cf29"}, "vout": 0, "txid": "902dc1a2537e9576d5754b6aac97f14e52032ef2e62e175f10d60f34fad9bfd6"}], "txid": "7acf55b36b413712541d3fa2a22949fd9adcd8e0e75a682d3d3c8c6c0490c571", "blocktime": 1537875543, "version": 2, "confirmations": 11464, "time": 1537875543, "locktime": 542998, "vsize": 259, "size": 422}