{"hash": "f374bb111fdde0611c6b3b64899fc430aa33884c1c11674b5d7ac07eec197beb", "blockhash": "0000000000000000001f76057863aec43deb6fa401d9628bb513d65a8098bfab", "vout": [{"scriptPubKey": {"reqSigs": 1, "hex": "a9148983f12e3346c3e414336167630d519e5820a74587", "addresses": ["3EE8ZKhFGoB2ZUohj9SUQ2R1y45K9Gjxpu"], "asm": "OP_HASH160 8983f12e3346c3e414336167630d519e5820a745 OP_EQUAL", "type": "scripthash"}, "value": 0.02224281, "n": 0}, {"scriptPubKey": {"reqSigs": 1, "hex": "0014aac719897218615a02e7e14c0b237c4a5641202c", "addresses": ["bc1q4tr3nztjrps45qh8u9xqkgmufftyzgpv793ejw"], "asm": "0 aac719897218615a02e7e14c0b237c4a5641202c", "type": "witness_v0_keyhash"}, "value": 0.0025501, "n": 1}], "hex": "01000000000101a0514fa81ee60e22e234315c0d384e04746d4b0a5482d32fe2877f9fb22c227a07000000171600146f701bb9c14b7f63a11031b8076dd9060b17d14fffffffff0299f021000000000017a9148983f12e3346c3e414336167630d519e5820a7458722e4030000000000160014aac719897218615a02e7e14c0b237c4a5641202c02473044022037e59e407138c31abb9114db24746aee7ade5909e1f4b4ab2f22bb746e9f3292022015363962bf6599b430261be2df34dc4468745bb1677564ae43fc3a8366a8dac9012103c82f39e8c41cb47cd23ee43dc69fb0a7cf058004812dc11d3ad46a73a4838a0f00000000", "vin": [{"txinwitness": ["3044022037e59e407138c31abb9114db24746aee7ade5909e1f4b4ab2f22bb746e9f3292022015363962bf6599b430261be2df34dc4468745bb1677564ae43fc3a8366a8dac901", "03c82f39e8c41cb47cd23ee43dc69fb0a7cf058004812dc11d3ad46a73a4838a0f"], "sequence": 4294967295, "scriptSig": {"hex": "1600146f701bb9c14b7f63a11031b8076dd9060b17d14f", "asm": "00146f701bb9c14b7f63a11031b8076dd9060b17d14f"}, "vout": 7, "txid": "7a222cb29f7f87e22fd382540a4b6d74044e380d5c3134e2220ee61ea84f51a0"}], "txid": "7ad9b3b56e42fd7617d842f6311ff4b0ff159bc554bbef758dca42f2e8af8ad0", "blocktime": 1537873891, "version": 1, "confirmations": 11478, "time": 1537873891, "locktime": 0, "vsize": 165, "size": 246}