{"hash": "a03e6e4f99f088ccfb48261abec913ee191f86c2d60010c2159bff62e141827f", "blockhash": "0000000000000000001f76057863aec43deb6fa401d9628bb513d65a8098bfab", "vout": [{"scriptPubKey": {"reqSigs": 1, "hex": "a91491ce732730f50ab3c9b5b1dbb3d54ec2519bf44387", "addresses": ["3EyyDk6ksTvpf73NtHuBVB3UmTDRxg79N4"], "asm": "OP_HASH160 91ce732730f50ab3c9b5b1dbb3d54ec2519bf443 OP_EQUAL", "type": "scripthash"}, "value": 0.06399598, "n": 0}, {"scriptPubKey": {"reqSigs": 1, "hex": "a914f7c337689401f0be947625b5225bcf9ab9b3b37e87", "addresses": ["3QH4goTkqEVt9QPUWVhdcy7htgSJnZedYK"], "asm": "OP_HASH160 f7c337689401f0be947625b5225bcf9ab9b3b37e OP_EQUAL", "type": "scripthash"}, "value": 0.1, "n": 1}], "hex": "02000000000101090c2d7ba5036b0acbf3bd07ac9e508715f055ab624ae98606a2179ca3abf58900000000171600142ecf115640eea2ca00fefe58934268af41d40d95feffffff026ea661000000000017a91491ce732730f50ab3c9b5b1dbb3d54ec2519bf44387809698000000000017a914f7c337689401f0be947625b5225bcf9ab9b3b37e870247304402207c3a207eac5556e7f52dbe0b31861deb05f33cf5dba1ebdfe32a8f5776ac9fcd0220149bb667410eb2f1cfe14a7a030a1811ed76ccb8a3f12c6b42c6318f92843b3f0121022f882efe5af30b1d169e64cecfed5433aa07ff753d50a8a38d8caf375bde714a14490800", "vin": [{"txinwitness": ["304402207c3a207eac5556e7f52dbe0b31861deb05f33cf5dba1ebdfe32a8f5776ac9fcd0220149bb667410eb2f1cfe14a7a030a1811ed76ccb8a3f12c6b42c6318f92843b3f01", "022f882efe5af30b1d169e64cecfed5433aa07ff753d50a8a38d8caf375bde714a"], "sequence": 4294967294, "scriptSig": {"hex": "1600142ecf115640eea2ca00fefe58934268af41d40d95", "asm": "00142ecf115640eea2ca00fefe58934268af41d40d95"}, "vout": 0, "txid": "89f5aba39c17a20686e94a62ab55f01587509eac07bdf3cb0a6b03a57b2d0c09"}], "txid": "7adea00673caaef41d5f82bfd1390fbe41e646d3b3b31f4ecfaa6b22dcd754fe", "blocktime": 1537873891, "version": 2, "confirmations": 11479, "time": 1537873891, "locktime": 542996, "vsize": 166, "size": 247}