{"hash": "9ba074b0485cc54c44d1adbd7cbc0edd6b2df157bf26cc6c8b32db983fe4ef22", "blockhash": "0000000000000000001f0ddff1eddb255c1121bcd4da4f1bc9a0da00cae72433", "vout": [{"scriptPubKey": {"reqSigs": 1, "hex": "76a9140e6b2ddadc37c354dbe29584e4f6e6d0ffe7da5288ac", "addresses": ["12KErd3hZQrd8YQkymDyuBusRbi4q8tLBm"], "asm": "OP_DUP OP_HASH160 0e6b2ddadc37c354dbe29584e4f6e6d0ffe7da52 OP_EQUALVERIFY OP_CHECKSIG", "type": "pubkeyhash"}, "value": 0.230018, "n": 0}, {"scriptPubKey": {"reqSigs": 1, "hex": "a91409ebf48ecdd06219152e321161f7de29621590a487", "addresses": ["32bUfjRFoDtZYyhBQru5U8xs7hLFLEYCrH"], "asm": "OP_HASH160 09ebf48ecdd06219152e321161f7de29621590a4 OP_EQUAL", "type": "scripthash"}, "value": 0.00994786, "n": 1}], "hex": "020000000001042625c704372850f5992ba95b3ce6e5883bcc3b9cfea13447acec0eff58885d6401000000171600146d874bd5e2d11faebdf1e9603294726486af0b68feffffff8647166a29f63b9790f97a660ef6b5c02af694179cd3a08c7cd1ec267e4434c10100000017160014e35a6aa3e3c00956326c02e8368c3e79ac1cf653feffffffc1b163bc848ef0002fedbeeaf804eb34fc61b889611bc98c92b95ada2bc9e8850000000017160014d1c5978499e81c41e0bef18348c0b9a0b13f4cd9fefffffff09df019aeb78377bccc5e90bce869c9a598b8dc5540648bb0531ec88c77d2821d00000017160014106a01409ec82dd528a849a5cae8bdc78671421bfeffffff02c8fa5e01000000001976a9140e6b2ddadc37c354dbe29584e4f6e6d0ffe7da5288ace22d0f000000000017a91409ebf48ecdd06219152e321161f7de29621590a487024730440220277be02782f86648d8e65145eb811c03af343bc33002f204244df68a6ed44660022033348c7b5fe7da54a145e36bf576d439a2e3b890a29835e94295a5bbfca0204f012102b29bbaf7253fe18bf2a27a622990224cbc91838814e2c3622e4aa001ab8435090247304402207f9873cf3dcc5dfa4b00b97e63ebb42292dd227e950242a2b18a486beb747716022042b563deae0ace98b209f2462f641fef69afcf1b61d628d9f9956303305a41f6012102a79e068ebe996acf2414c6a4121c22cfe88991302eb9da9bac26a3d2392c3a2b02483045022100a969863e819fe5f36ef29886fb3705c81baae7c84c2d11ab0e95c6c68e82a44a022008a6bd60c5c4725c40c60e6953a6161b21013a0b7f8b3e3efbe7a89f8e3ac5bf01210392f0f5dee1d3efa957a47be5c0b92978c4758174345cf2a1b4d41a395dbdbefb0248304502210084e6683221d1fc998f690ac0f61a0f29d9aff09f0676d0f7fe8b8ef1714ec7f5022053a91ecca03ea78813bfd748bab4b9e48689820f3feb06b8c1336d2f2e655f19012102644ba0c801fc309489c21c21974682e1bf0c3e720ed99638b845d9ea80e6d56e11490800", "vin": [{"txinwitness": ["30440220277be02782f86648d8e65145eb811c03af343bc33002f204244df68a6ed44660022033348c7b5fe7da54a145e36bf576d439a2e3b890a29835e94295a5bbfca0204f01", "02b29bbaf7253fe18bf2a27a622990224cbc91838814e2c3622e4aa001ab843509"], "sequence": 4294967294, "scriptSig": {"hex": "1600146d874bd5e2d11faebdf1e9603294726486af0b68", "asm": "00146d874bd5e2d11faebdf1e9603294726486af0b68"}, "vout": 1, "txid": "645d8858ff0eecac4734a1fe9c3bcc3b88e5e63c5ba92b99f550283704c72526"}, {"txinwitness": ["304402207f9873cf3dcc5dfa4b00b97e63ebb42292dd227e950242a2b18a486beb747716022042b563deae0ace98b209f2462f641fef69afcf1b61d628d9f9956303305a41f601", "02a79e068ebe996acf2414c6a4121c22cfe88991302eb9da9bac26a3d2392c3a2b"], "sequence": 4294967294, "scriptSig": {"hex": "160014e35a6aa3e3c00956326c02e8368c3e79ac1cf653", "asm": "0014e35a6aa3e3c00956326c02e8368c3e79ac1cf653"}, "vout": 1, "txid": "c134447e26ecd17c8ca0d39c1794f62ac0b5f60e667af990973bf6296a164786"}, {"txinwitness": ["3045022100a969863e819fe5f36ef29886fb3705c81baae7c84c2d11ab0e95c6c68e82a44a022008a6bd60c5c4725c40c60e6953a6161b21013a0b7f8b3e3efbe7a89f8e3ac5bf01", "0392f0f5dee1d3efa957a47be5c0b92978c4758174345cf2a1b4d41a395dbdbefb"], "sequence": 4294967294, "scriptSig": {"hex": "160014d1c5978499e81c41e0bef18348c0b9a0b13f4cd9", "asm": "0014d1c5978499e81c41e0bef18348c0b9a0b13f4cd9"}, "vout": 0, "txid": "85e8c92bda5ab9928cc91b6189b861fc34eb04f8eabeed2f00f08e84bc63b1c1"}, {"txinwitness": ["304502210084e6683221d1fc998f690ac0f61a0f29d9aff09f0676d0f7fe8b8ef1714ec7f5022053a91ecca03ea78813bfd748bab4b9e48689820f3feb06b8c1336d2f2e655f1901", "02644ba0c801fc309489c21c21974682e1bf0c3e720ed99638b845d9ea80e6d56e"], "sequence": 4294967294, "scriptSig": {"hex": "160014106a01409ec82dd528a849a5cae8bdc78671421b", "asm": "0014106a01409ec82dd528a849a5cae8bdc78671421b"}, "vout": 29, "txid": "82d2778cc81e53b08b644055dcb898a5c969e8bc905eccbc7783b7ae19f09df0"}], "txid": "7af126ab1401c7f7bd89c4ded0cd4bcf7336723acb550d8aa5915df8a112f334", "blocktime": 1537872018, "version": 2, "confirmations": 11489, "time": 1537872018, "locktime": 542993, "vsize": 440, "size": 764}