{"hash": "7af3f277614eef89e4241a665fb28b3693bb7cc5a2910f87e0f8fc5346018cec", "blockhash": "0000000000000000001f76057863aec43deb6fa401d9628bb513d65a8098bfab", "vout": [{"scriptPubKey": {"reqSigs": 1, "hex": "76a9141ff65e8c1845a578eb9eb4798344f798b0110e5c88ac", "addresses": ["13v15zH8yXAHNopiecCUrC1n28UGVZzrfC"], "asm": "OP_DUP OP_HASH160 1ff65e8c1845a578eb9eb4798344f798b0110e5c OP_EQUALVERIFY OP_CHECKSIG", "type": "pubkeyhash"}, "value": 0.00111064, "n": 0}], "hex": "010000000174ee6d8822d1f15c271472d4ac9c38a4f47f2b02b3f88d77a0f923af75c336f21c0000006a47304402207e3187d4c7be74f838fc850557c5393ba59858aac308f15b6eb8f6dc6073e1220220166c0c480f730a370030232981d0606b414a3b87a2999f93bcdc8bbca43b0ce30121036ad14dd69b27b577436fcfae7edc24f6e363c1d155f19cd5fd83afe02a869d5affffffff01d8b10100000000001976a9141ff65e8c1845a578eb9eb4798344f798b0110e5c88ac00000000", "vin": [{"sequence": 4294967295, "scriptSig": {"hex": "47304402207e3187d4c7be74f838fc850557c5393ba59858aac308f15b6eb8f6dc6073e1220220166c0c480f730a370030232981d0606b414a3b87a2999f93bcdc8bbca43b0ce30121036ad14dd69b27b577436fcfae7edc24f6e363c1d155f19cd5fd83afe02a869d5a", "asm": "304402207e3187d4c7be74f838fc850557c5393ba59858aac308f15b6eb8f6dc6073e1220220166c0c480f730a370030232981d0606b414a3b87a2999f93bcdc8bbca43b0ce3[ALL] 036ad14dd69b27b577436fcfae7edc24f6e363c1d155f19cd5fd83afe02a869d5a"}, "vout": 28, "txid": "f236c375af23f9a0778df8b3022b7ff4a4389cacd47214275cf1d122886dee74"}], "txid": "7af3f277614eef89e4241a665fb28b3693bb7cc5a2910f87e0f8fc5346018cec", "blocktime": 1537873891, "version": 1, "confirmations": 11478, "time": 1537873891, "locktime": 0, "vsize": 191, "size": 191}