{"hash": "7af774322ab54844a21f064a27aacef3f30e44639bc7187737df9dffb05b8dea", "blockhash": "0000000000000000001e0dab787dd257d1dbfcb92a98c2207d5e1078be1f4165", "vout": [{"scriptPubKey": {"reqSigs": 1, "hex": "a9143f4eecba122ad73039d481c8d37f99cb4f887cd887", "addresses": ["37Tm3Qz8Zw2VJrheUUhArDAoq58S6YrS3g"], "asm": "OP_HASH160 3f4eecba122ad73039d481c8d37f99cb4f887cd8 OP_EQUAL", "type": "scripthash"}, "value": 1.0, "n": 0}, {"scriptPubKey": {"reqSigs": 1, "hex": "a914539e9af2ac809b64b3fce3e8a0a0eb536b35e51487", "addresses": ["39KA1Z1arrWewGSbvp1vrvi5pc2f863Jsp"], "asm": "OP_HASH160 539e9af2ac809b64b3fce3e8a0a0eb536b35e514 OP_EQUAL", "type": "scripthash"}, "value": 32.80919867, "n": 1}], "hex": "0100000001a255efca9d6e88f02077e2ff5a2cba2dea5c584661aa876c01c37eea1fdac89501000000fdfe000048304502210087fcc97242a3db0b857798f19d90e9492d0766f167e622c437d93255bd67c3740220459021024a65ea6e225f2e2b97d80586556756bc38d425bb599d021c181795ba01483045022100c45d408ec46127bf261a8aa2a263411fab8de5be50d3a37eee24861c809b62ff0220029b5eec1232b776473e62d9c7effa9370dfdf2347716aa31eb7e2ca2f8c72e5014c6952210282b5eab5adde0e9869a2e1f0ef64a3d60bed645a77e43ca496b2a8f62b9924342102f984f6c6a2604bc058c9143e97439d4138533083fc38797da670edf1a7add37f210226a77007d0b125b46589ae6007f67cb09795e8b443e8dcac3995eed350acc5ef53aeffffffff0200e1f5050000000017a9143f4eecba122ad73039d481c8d37f99cb4f887cd8873bdd8ec30000000017a914539e9af2ac809b64b3fce3e8a0a0eb536b35e5148700000000", "vin": [{"sequence": 4294967295, "scriptSig": {"hex": "0048304502210087fcc97242a3db0b857798f19d90e9492d0766f167e622c437d93255bd67c3740220459021024a65ea6e225f2e2b97d80586556756bc38d425bb599d021c181795ba01483045022100c45d408ec46127bf261a8aa2a263411fab8de5be50d3a37eee24861c809b62ff0220029b5eec1232b776473e62d9c7effa9370dfdf2347716aa31eb7e2ca2f8c72e5014c6952210282b5eab5adde0e9869a2e1f0ef64a3d60bed645a77e43ca496b2a8f62b9924342102f984f6c6a2604bc058c9143e97439d4138533083fc38797da670edf1a7add37f210226a77007d0b125b46589ae6007f67cb09795e8b443e8dcac3995eed350acc5ef53ae", "asm": "0 304502210087fcc97242a3db0b857798f19d90e9492d0766f167e622c437d93255bd67c3740220459021024a65ea6e225f2e2b97d80586556756bc38d425bb599d021c181795ba[ALL] 3045022100c45d408ec46127bf261a8aa2a263411fab8de5be50d3a37eee24861c809b62ff0220029b5eec1232b776473e62d9c7effa9370dfdf2347716aa31eb7e2ca2f8c72e5[ALL] 52210282b5eab5adde0e9869a2e1f0ef64a3d60bed645a77e43ca496b2a8f62b9924342102f984f6c6a2604bc058c9143e97439d4138533083fc38797da670edf1a7add37f210226a77007d0b125b46589ae6007f67cb09795e8b443e8dcac3995eed350acc5ef53ae"}, "vout": 1, "txid": "95c8da1fea7ec3016c87aa6146585cea2dba2c5affe27720f0886e9dcaef55a2"}], "txid": "7af774322ab54844a21f064a27aacef3f30e44639bc7187737df9dffb05b8dea", "blocktime": 1537872475, "version": 1, "confirmations": 11486, "time": 1537872475, "locktime": 0, "vsize": 371, "size": 371}