{"hash": "905beb8d7d3be594b558cb450c49e5c29c068d8819a9c91491d37d37a7c4e2e2", "blockhash": "0000000000000000001f76057863aec43deb6fa401d9628bb513d65a8098bfab", "vout": [{"scriptPubKey": {"reqSigs": 1, "hex": "a914aaa7e6c3fcdf0b60545c10a2f1402ff2e136832d87", "addresses": ["3HFMw9h5xkXtHwe3dmuXmn4K1w9KR6EVW9"], "asm": "OP_HASH160 aaa7e6c3fcdf0b60545c10a2f1402ff2e136832d OP_EQUAL", "type": "scripthash"}, "value": 0.01011799, "n": 0}, {"scriptPubKey": {"reqSigs": 1, "hex": "76a9146bf5d825fdc826a564706de3e597daf6a5aaf14b88ac", "addresses": ["1Aqqp6BYo68MNUBoX7myFDEicK2Xk7yxRH"], "asm": "OP_DUP OP_HASH160 6bf5d825fdc826a564706de3e597daf6a5aaf14b OP_EQUALVERIFY OP_CHECKSIG", "type": "pubkeyhash"}, "value": 0.00308, "n": 1}], "hex": "020000000001025f1c1d207d0876ac9232cae66480bad85d4456096c6685fe61b93ed9effa9a3701000000171600144df848e94e2f036c9bcd1a8255c08976e5463014feffffff6e152e11620cfc2341471c6cbb982d2f63656376dc753fa3b7d8993d9fc258c60000000017160014751e1cb09cdbb689aab3677a716bdbfc43f6bdcffeffffff0257700f000000000017a914aaa7e6c3fcdf0b60545c10a2f1402ff2e136832d8720b30400000000001976a9146bf5d825fdc826a564706de3e597daf6a5aaf14b88ac024730440220788f7c63f8b9bc6212a8bf3ccd95565d6dd4f0fb4c73f37739f1aabb1526584c0220251491d08a61d1456be3e1e7a81ead1865e94a774c7adb351d5c808d787717830121024060f546c79cff1d8a36ae721f8af08dfc01ce0cc5eb129576f3a916720650fc02483045022100eb3a3942202eabab8f9137e8f90606765f2c77cb010c6fa2db79e401eb58c27602201871f64c24c037151b3a53c86f55263fef62fbc8eac1588f2438cc7bc8ff646501210232e822aef56b1566cfd1ff3507a34f115f80da2281af92e6b77c38483d5b589714490800", "vin": [{"txinwitness": ["30440220788f7c63f8b9bc6212a8bf3ccd95565d6dd4f0fb4c73f37739f1aabb1526584c0220251491d08a61d1456be3e1e7a81ead1865e94a774c7adb351d5c808d7877178301", "024060f546c79cff1d8a36ae721f8af08dfc01ce0cc5eb129576f3a916720650fc"], "sequence": 4294967294, "scriptSig": {"hex": "1600144df848e94e2f036c9bcd1a8255c08976e5463014", "asm": "00144df848e94e2f036c9bcd1a8255c08976e5463014"}, "vout": 1, "txid": "379afaefd93eb961fe85666c0956445dd8ba8064e6ca3292ac76087d201d1c5f"}, {"txinwitness": ["3045022100eb3a3942202eabab8f9137e8f90606765f2c77cb010c6fa2db79e401eb58c27602201871f64c24c037151b3a53c86f55263fef62fbc8eac1588f2438cc7bc8ff646501", "0232e822aef56b1566cfd1ff3507a34f115f80da2281af92e6b77c38483d5b5897"], "sequence": 4294967294, "scriptSig": {"hex": "160014751e1cb09cdbb689aab3677a716bdbfc43f6bdcf", "asm": "0014751e1cb09cdbb689aab3677a716bdbfc43f6bdcf"}, "vout": 0, "txid": "c658c29f3d99d8b7a33f75dc766365632f2d98bb6c1c474123fc0c62112e156e"}], "txid": "7af74320aa60748c363763dd22b8f56b5e0d0cb0733bf8143c499b7cd1d900ea", "blocktime": 1537873891, "version": 2, "confirmations": 11478, "time": 1537873891, "locktime": 542996, "vsize": 259, "size": 421}