{"hash": "7af83d1d4e7d399ec17f57099f36154fd1ef7b019c3cb19c23e4e2b28123e15e", "blockhash": "00000000000000000004ffacab907a6b429b9a5745fa0b75af4234bf69dd7176", "vout": [{"scriptPubKey": {"reqSigs": 1, "hex": "a9149d9a18fab5f7f69f43283a9cac13e4fe20a035f087", "addresses": ["3G4LcYm1imtGNtZTVBaennLQvLtVeTHyuV"], "asm": "OP_HASH160 9d9a18fab5f7f69f43283a9cac13e4fe20a035f0 OP_EQUAL", "type": "scripthash"}, "value": 0.11491, "n": 0}, {"scriptPubKey": {"reqSigs": 1, "hex": "a914e370231feecbfc25e2e2423a5a79bf79bfdca59887", "addresses": ["3NRbeX3vD5VaVE4TDU9ivCDsEf7NPPte6J"], "asm": "OP_HASH160 e370231feecbfc25e2e2423a5a79bf79bfdca598 OP_EQUAL", "type": "scripthash"}, "value": 2.88245303, "n": 1}], "hex": "0100000001a5cf1f897d03de4817322c60bd785e6b7dee80540a97b46b8d3720fb3eb53ef301000000da00483045022100c4d30ec6e91e4d837114dc9c26aa3b731bfa4b0b934b6cbb68949d3acdd3bc1002201dcc8b90b1a91e90cae5d785c723101956d17369a9e6581a65b6a4a88b866a5f01473044022013f0bc0429605cbdbe792bd2dfe3d1ca946dccb8336069c2d67467be9188e17b02200f9c7f56ea5404502b549001aff65c3274a39c9999d7e7bd664c9af510ab6917014752210327881b6abce6535553a3ce21fad12a7d74fd237ce7c4cd270a267162344e3082210256141f8eb687f5a68c5cc65054652dc25116fa285e44d72b44368827ffe77d9a52aeffffffff02b856af000000000017a9149d9a18fab5f7f69f43283a9cac13e4fe20a035f08737462e110000000017a914e370231feecbfc25e2e2423a5a79bf79bfdca5988700000000", "vin": [{"sequence": 4294967295, "scriptSig": {"hex": "00483045022100c4d30ec6e91e4d837114dc9c26aa3b731bfa4b0b934b6cbb68949d3acdd3bc1002201dcc8b90b1a91e90cae5d785c723101956d17369a9e6581a65b6a4a88b866a5f01473044022013f0bc0429605cbdbe792bd2dfe3d1ca946dccb8336069c2d67467be9188e17b02200f9c7f56ea5404502b549001aff65c3274a39c9999d7e7bd664c9af510ab6917014752210327881b6abce6535553a3ce21fad12a7d74fd237ce7c4cd270a267162344e3082210256141f8eb687f5a68c5cc65054652dc25116fa285e44d72b44368827ffe77d9a52ae", "asm": "0 3045022100c4d30ec6e91e4d837114dc9c26aa3b731bfa4b0b934b6cbb68949d3acdd3bc1002201dcc8b90b1a91e90cae5d785c723101956d17369a9e6581a65b6a4a88b866a5f[ALL] 3044022013f0bc0429605cbdbe792bd2dfe3d1ca946dccb8336069c2d67467be9188e17b02200f9c7f56ea5404502b549001aff65c3274a39c9999d7e7bd664c9af510ab6917[ALL] 52210327881b6abce6535553a3ce21fad12a7d74fd237ce7c4cd270a267162344e3082210256141f8eb687f5a68c5cc65054652dc25116fa285e44d72b44368827ffe77d9a52ae"}, "vout": 1, "txid": "f33eb53efb20378d6bb4970a5480ee7d6b5e78bd602c321748de037d891fcfa5"}], "txid": "7af83d1d4e7d399ec17f57099f36154fd1ef7b019c3cb19c23e4e2b28123e15e", "blocktime": 1537875543, "version": 1, "confirmations": 11464, "time": 1537875543, "locktime": 0, "vsize": 333, "size": 333}