{"hash": "e26f0e8ed3b18a0b761b36c67627a776dc60697c70f37612e5da55b36230647f", "blockhash": "000000000000000000022b45ed06c6f4ccd3cf7fb5ba4856ebd2e58215665228", "vout": [{"scriptPubKey": {"reqSigs": 1, "hex": "a914b19e10de7f8a398514cfe6c01b2b2dc886d3097f87", "addresses": ["3HtAt7FoQFbbFdGj68Z6d6avb5VCuzASBk"], "asm": "OP_HASH160 b19e10de7f8a398514cfe6c01b2b2dc886d3097f OP_EQUAL", "type": "scripthash"}, "value": 0.0101843, "n": 0}, {"scriptPubKey": {"reqSigs": 1, "hex": "a9146325c93ed1608a8f1f8f62a460d09fa2daccba6587", "addresses": ["3AjG5xeXK3nFez8PRUvdwUYGkRnZob4jeB"], "asm": "OP_HASH160 6325c93ed1608a8f1f8f62a460d09fa2daccba65 OP_EQUAL", "type": "scripthash"}, "value": 0.02136634, "n": 1}], "hex": "02000000000101f17cbfc4bf9a93fa09b4cf870cd7ee1a094586aa53f2d219574bfc044180240801000000171600146c5700dd33cef52762503c8513f83d2fbe899fbeffffffff023e8a0f000000000017a914b19e10de7f8a398514cfe6c01b2b2dc886d3097f873a9a20000000000017a9146325c93ed1608a8f1f8f62a460d09fa2daccba65870247304402204ee23fbae811a20d0a8fe33cf9503d71ad9d1769fe51053b95d39816e60537d302204b6a3a8af8cbf830438705d6a09df8512e4b282daa1a71cd1f8df0c73ccb58480121030431a3be4c6a8ad6ec8ac3a65cace928d363efd67911e1206dfc6440a749332000000000", "vin": [{"txinwitness": ["304402204ee23fbae811a20d0a8fe33cf9503d71ad9d1769fe51053b95d39816e60537d302204b6a3a8af8cbf830438705d6a09df8512e4b282daa1a71cd1f8df0c73ccb584801", "030431a3be4c6a8ad6ec8ac3a65cace928d363efd67911e1206dfc6440a7493320"], "sequence": 4294967295, "scriptSig": {"hex": "1600146c5700dd33cef52762503c8513f83d2fbe899fbe", "asm": "00146c5700dd33cef52762503c8513f83d2fbe899fbe"}, "vout": 1, "txid": "0824804104fc4b5719d2f253aa8645091aeed70c87cfb409fa939abfc4bf7cf1"}], "txid": "7b0318ad158a018d53bde3b27a72911f515ec3697bd502d47ddc14b3f5a9f446", "blocktime": 1537869901, "version": 2, "confirmations": 11522, "time": 1537869901, "locktime": 0, "vsize": 166, "size": 247}