{"hash": "7b08bf59c2d62c73a941351c8a89879a2115a7db6d6687ce5eee494a88a84b14", "blockhash": "0000000000000000001f0ddff1eddb255c1121bcd4da4f1bc9a0da00cae72433", "vout": [{"scriptPubKey": {"reqSigs": 1, "hex": "76a9146c8ad522f03cd670dbf080646254c17c501a7fcf88ac", "addresses": ["1AtvHyTQkFg1eKtuAoiVtEDqyQU3NXAgQD"], "asm": "OP_DUP OP_HASH160 6c8ad522f03cd670dbf080646254c17c501a7fcf OP_EQUALVERIFY OP_CHECKSIG", "type": "pubkeyhash"}, "value": 0.08991009, "n": 0}, {"scriptPubKey": {"reqSigs": 1, "hex": "76a914721193c14b320b90813d7b323007fc2c564f635988ac", "addresses": ["1BQ969oQ4CyHPMLd1LxedfBnqgWWRXSRrT"], "asm": "OP_DUP OP_HASH160 721193c14b320b90813d7b323007fc2c564f6359 OP_EQUALVERIFY OP_CHECKSIG", "type": "pubkeyhash"}, "value": 1.19044223, "n": 1}], "hex": "01000000026ba4769452200ce058722a7cd0349e3a63a48ae1a452e4323243d205de847048010000006b483045022100e11cf8e0b5fa729439d0b0007de68f4144ff6862236821eb3864480825cd0de602207ce9b25db1067752a4c7bee6d3f59ec49f09c9701c95258c1935a5302e19a4f80121035778c2135112f23bd5408bee06e3427ebbbe0faf05d9e00af7976d4577b167f7ffffffffd5b9821b773fa9f19d8b0c3e0ac4c4f8adfd689c7a93072675bbc06caa1ef79f010000006b4830450221008bf4d9a5753e75db2cfa3f4840f88480fc6035332b9fc7fe918a818cfa0a56be022071f81d31712f40c4d064628298c3e0726040bf96d9016b0418c0def6330906a20121031be11666a705895a8e2ee8e21b989f4cbcfc72ffe974df654eedfeecef92437bffffffff0221318900000000001976a9146c8ad522f03cd670dbf080646254c17c501a7fcf88ac7f781807000000001976a914721193c14b320b90813d7b323007fc2c564f635988ac00000000", "vin": [{"sequence": 4294967295, "scriptSig": {"hex": "483045022100e11cf8e0b5fa729439d0b0007de68f4144ff6862236821eb3864480825cd0de602207ce9b25db1067752a4c7bee6d3f59ec49f09c9701c95258c1935a5302e19a4f80121035778c2135112f23bd5408bee06e3427ebbbe0faf05d9e00af7976d4577b167f7", "asm": "3045022100e11cf8e0b5fa729439d0b0007de68f4144ff6862236821eb3864480825cd0de602207ce9b25db1067752a4c7bee6d3f59ec49f09c9701c95258c1935a5302e19a4f8[ALL] 035778c2135112f23bd5408bee06e3427ebbbe0faf05d9e00af7976d4577b167f7"}, "vout": 1, "txid": "487084de05d2433232e452a4e18aa4633a9e34d07c2a7258e00c20529476a46b"}, {"sequence": 4294967295, "scriptSig": {"hex": "4830450221008bf4d9a5753e75db2cfa3f4840f88480fc6035332b9fc7fe918a818cfa0a56be022071f81d31712f40c4d064628298c3e0726040bf96d9016b0418c0def6330906a20121031be11666a705895a8e2ee8e21b989f4cbcfc72ffe974df654eedfeecef92437b", "asm": "30450221008bf4d9a5753e75db2cfa3f4840f88480fc6035332b9fc7fe918a818cfa0a56be022071f81d31712f40c4d064628298c3e0726040bf96d9016b0418c0def6330906a2[ALL] 031be11666a705895a8e2ee8e21b989f4cbcfc72ffe974df654eedfeecef92437b"}, "vout": 1, "txid": "9ff71eaa6cc0bb752607937a9c68fdadf8c4c40a3e0c8b9df1a93f771b82b9d5"}], "txid": "7b08bf59c2d62c73a941351c8a89879a2115a7db6d6687ce5eee494a88a84b14", "blocktime": 1537872018, "version": 1, "confirmations": 11489, "time": 1537872018, "locktime": 0, "vsize": 374, "size": 374}