{"hash": "7b080d41f22f1148a9e013ab038b8adaa6f3e9f9d765933b53eece99bd9cfdda", "blockhash": "0000000000000000001f76057863aec43deb6fa401d9628bb513d65a8098bfab", "vout": [{"scriptPubKey": {"reqSigs": 1, "hex": "76a914f922c31047f62949cfd5788ba8dd1dd55843f57788ac", "addresses": ["1PiJu538GCBmv42Y5w6GHmPNjuUXEDAewo"], "asm": "OP_DUP OP_HASH160 f922c31047f62949cfd5788ba8dd1dd55843f577 OP_EQUALVERIFY OP_CHECKSIG", "type": "pubkeyhash"}, "value": 8.151e-05, "n": 0}, {"scriptPubKey": {"reqSigs": 1, "hex": "76a914969f63265fd08d3756ee4853c5bfc9a4a6a5dc0b88ac", "addresses": ["1EjRJCX8nrXXCrX4Bw62RTvFMMXZwhPdWd"], "asm": "OP_DUP OP_HASH160 969f63265fd08d3756ee4853c5bfc9a4a6a5dc0b OP_EQUALVERIFY OP_CHECKSIG", "type": "pubkeyhash"}, "value": 0.00109249, "n": 1}], "hex": "01000000027b87bd1d078c7d76199eb375f183ec0017da80ff839a3f8830aee3676b3cbd7f000000006a4730440220519e6791d90606508905378641408f9bd8f36546303a44d7c43cd19ae0409c2c02203c420ddd270550988633f5c75af00a44eac8019681e65b13bbf6be63507829e9012103b72ca556de402cec80af1b7954417a7688167ec4df602cb37b727148f6b5b750ffffffff84135478c9b678247b0cbfecc1e7c91283df0cb29cec0ef683336bebbf2eed82000000006a47304402201ab840e619b2192987c8f325b43d9cc298f849ed59d424b21fda0de8b2b6482a0220728a5ec8d2c5f56489c78bdeff1a6e4a423825006e2769baad047f49dfc927e301210335fd247780bcf84435f5b351f44a3a4683de193a2aeb74c3ecf817767fe09d95ffffffff02d71f0000000000001976a914f922c31047f62949cfd5788ba8dd1dd55843f57788acc1aa0100000000001976a914969f63265fd08d3756ee4853c5bfc9a4a6a5dc0b88ac00000000", "vin": [{"sequence": 4294967295, "scriptSig": {"hex": "4730440220519e6791d90606508905378641408f9bd8f36546303a44d7c43cd19ae0409c2c02203c420ddd270550988633f5c75af00a44eac8019681e65b13bbf6be63507829e9012103b72ca556de402cec80af1b7954417a7688167ec4df602cb37b727148f6b5b750", "asm": "30440220519e6791d90606508905378641408f9bd8f36546303a44d7c43cd19ae0409c2c02203c420ddd270550988633f5c75af00a44eac8019681e65b13bbf6be63507829e9[ALL] 03b72ca556de402cec80af1b7954417a7688167ec4df602cb37b727148f6b5b750"}, "vout": 0, "txid": "7fbd3c6b67e3ae30883f9a83ff80da1700ec83f175b39e19767d8c071dbd877b"}, {"sequence": 4294967295, "scriptSig": {"hex": "47304402201ab840e619b2192987c8f325b43d9cc298f849ed59d424b21fda0de8b2b6482a0220728a5ec8d2c5f56489c78bdeff1a6e4a423825006e2769baad047f49dfc927e301210335fd247780bcf84435f5b351f44a3a4683de193a2aeb74c3ecf817767fe09d95", "asm": "304402201ab840e619b2192987c8f325b43d9cc298f849ed59d424b21fda0de8b2b6482a0220728a5ec8d2c5f56489c78bdeff1a6e4a423825006e2769baad047f49dfc927e3[ALL] 0335fd247780bcf84435f5b351f44a3a4683de193a2aeb74c3ecf817767fe09d95"}, "vout": 0, "txid": "82ed2ebfeb6b3383f60eec9cb20cdf8312c9e7c1ecbf0c7b2478b6c978541384"}], "txid": "7b080d41f22f1148a9e013ab038b8adaa6f3e9f9d765933b53eece99bd9cfdda", "blocktime": 1537873891, "version": 1, "confirmations": 11478, "time": 1537873891, "locktime": 0, "vsize": 372, "size": 372}