{"hash": "7b131b051c7d2b52fa46b20259aa6dfccc7c9f8edb41a23b0560abf71a44d7cb", "blockhash": "000000000000000000205f8b0775d31398ef75b89a5e8ec8d2c57b4dc0ac4c20", "vout": [{"scriptPubKey": {"reqSigs": 1, "hex": "a914082b3b95892d31e7f9c0ae35b35a710d639afd3487", "addresses": ["32SD7wd2rWzayywUTsort7W4c88PTc2hUm"], "asm": "OP_HASH160 082b3b95892d31e7f9c0ae35b35a710d639afd34 OP_EQUAL", "type": "scripthash"}, "value": 0.01, "n": 0}, {"scriptPubKey": {"reqSigs": 1, "hex": "76a9145e979c4fd77e1916d4e9fd4a51c8274974af451388ac", "addresses": ["19dA981DyCXdu9keSRvEKAL1JMAypbAMLN"], "asm": "OP_DUP OP_HASH160 5e979c4fd77e1916d4e9fd4a51c8274974af4513 OP_EQUALVERIFY OP_CHECKSIG", "type": "pubkeyhash"}, "value": 7.59030138, "n": 1}], "hex": "010000000139cad9cb67c4b2d4b499c4ed1fcacbd20eba2f826dab6ab1f25358f8eaf48548010000006a473044022014596f475504b496cdf8d0374921257650bcf6b67364b8a1f240303c7532cdc102201b44a8f7ea8b238853b7259cab4f6fcdedf224a49fa5852bbad13af88e17d4af0121021ab44f8b28e4066678c71ac4c296e9f34d68b36d4b14d6c02aca3ec3ac714ee8ffffffff0240420f000000000017a914082b3b95892d31e7f9c0ae35b35a710d639afd34877ae13d2d000000001976a9145e979c4fd77e1916d4e9fd4a51c8274974af451388ac00000000", "vin": [{"sequence": 4294967295, "scriptSig": {"hex": "473044022014596f475504b496cdf8d0374921257650bcf6b67364b8a1f240303c7532cdc102201b44a8f7ea8b238853b7259cab4f6fcdedf224a49fa5852bbad13af88e17d4af0121021ab44f8b28e4066678c71ac4c296e9f34d68b36d4b14d6c02aca3ec3ac714ee8", "asm": "3044022014596f475504b496cdf8d0374921257650bcf6b67364b8a1f240303c7532cdc102201b44a8f7ea8b238853b7259cab4f6fcdedf224a49fa5852bbad13af88e17d4af[ALL] 021ab44f8b28e4066678c71ac4c296e9f34d68b36d4b14d6c02aca3ec3ac714ee8"}, "vout": 1, "txid": "4885f4eaf85853f2b16aab6d822fba0ed2cbca1fedc499b4d4b2c467cbd9ca39"}], "txid": "7b131b051c7d2b52fa46b20259aa6dfccc7c9f8edb41a23b0560abf71a44d7cb", "blocktime": 1537871175, "version": 1, "confirmations": 11510, "time": 1537871175, "locktime": 0, "vsize": 223, "size": 223}