{"hash": "7b15a9f6c1cbef4d8f7cdb046a364ff6d2acdcb351ccd8757e6b34faa77d1490", "blockhash": "0000000000000000000e13cef7c366c0283d82e591d1acd082e914b08063cdf1", "vout": [{"scriptPubKey": {"reqSigs": 1, "hex": "76a91404ec93333eb291324831d46b952efa66551e5c6d88ac", "addresses": ["1T37Hcv5EnNhT6vJxjGsEVnS4nWnuQQBQ"], "asm": "OP_DUP OP_HASH160 04ec93333eb291324831d46b952efa66551e5c6d OP_EQUALVERIFY OP_CHECKSIG", "type": "pubkeyhash"}, "value": 0.0025, "n": 0}, {"scriptPubKey": {"reqSigs": 1, "hex": "76a9144164c9a16f559fecf32c70d8f07ec116a4b7d7c788ac", "addresses": ["16xmfKJWx4V1TAHAc9nkSp3vsU8jxbF18o"], "asm": "OP_DUP OP_HASH160 4164c9a16f559fecf32c70d8f07ec116a4b7d7c7 OP_EQUALVERIFY OP_CHECKSIG", "type": "pubkeyhash"}, "value": 0.00540622, "n": 1}], "hex": "0100000001f10b1bcdfacbf8afbea5bde962675d6201b486783015d522f300f9f7aac17de8070000006b483045022100dabcadeff2cf3da050057dffde5f0fe6758650d8129e797a6db353953c336bdb02200f3702a9eb5b66db1e22d7b8bd63a2a2993a40f99a430981a25a9991e2a674c3012103425edcdae23f2fbc1b9784b4eec17c15d1dbe5ad394dfb62055affbd68a4b8f5ffffffff0290d00300000000001976a91404ec93333eb291324831d46b952efa66551e5c6d88acce3f0800000000001976a9144164c9a16f559fecf32c70d8f07ec116a4b7d7c788ac00000000", "vin": [{"sequence": 4294967295, "scriptSig": {"hex": "483045022100dabcadeff2cf3da050057dffde5f0fe6758650d8129e797a6db353953c336bdb02200f3702a9eb5b66db1e22d7b8bd63a2a2993a40f99a430981a25a9991e2a674c3012103425edcdae23f2fbc1b9784b4eec17c15d1dbe5ad394dfb62055affbd68a4b8f5", "asm": "3045022100dabcadeff2cf3da050057dffde5f0fe6758650d8129e797a6db353953c336bdb02200f3702a9eb5b66db1e22d7b8bd63a2a2993a40f99a430981a25a9991e2a674c3[ALL] 03425edcdae23f2fbc1b9784b4eec17c15d1dbe5ad394dfb62055affbd68a4b8f5"}, "vout": 7, "txid": "e87dc1aaf7f900f322d515307886b401625d6762e9bda5beaff8cbfacd1b0bf1"}], "txid": "7b15a9f6c1cbef4d8f7cdb046a364ff6d2acdcb351ccd8757e6b34faa77d1490", "blocktime": 1537871767, "version": 1, "confirmations": 11495, "time": 1537871767, "locktime": 0, "vsize": 226, "size": 226}