{"hash": "7b1861e6aeebd3a162c30ffaf81eb44d2aea16624de91c85932208866c4804c9", "blockhash": "0000000000000000001f76057863aec43deb6fa401d9628bb513d65a8098bfab", "vout": [{"scriptPubKey": {"reqSigs": 1, "hex": "76a914901714d4fe1c1f826388b08697487275e5d160cf88ac", "addresses": ["1E8sxM3hoHnuoHoNKypGwwgr8emYDWVhGW"], "asm": "OP_DUP OP_HASH160 901714d4fe1c1f826388b08697487275e5d160cf OP_EQUALVERIFY OP_CHECKSIG", "type": "pubkeyhash"}, "value": 0.02211814, "n": 0}], "hex": "01000000021c8d1c2344908e4341584599eb3aa381be4d2b6251ad6d4706cd3297169022a0010000006b483045022100fade980f6afc99319312c4f43dea6817f3619a0a07200fb20676d3e73699e661022059437e41eefb0a3afabd4cade40185d9bf000d7aa581ad86dc6afb7127712053012102033c7a376b064f7ceb9651672f4f61c5e70512067074949eeeab4fa867982976ffffffffa2b98a915556e86d34be1dd155b9b94e52d96510d4e26dd94507e02fac2ce0c6000000006b48304502210087afc503f0cb3b09475f95a3b5753ef36008aeaa8a01df46e3a6fa88811da10f0220041dd119ddf57cc0c0f78e26ffc58d1cca5ae317fdd8a41103b5aa79f35a474301210389dc49475f73d14b09505ed10ae52499b7e659631a407fe00b376f6a791eea0bffffffff01e6bf2100000000001976a914901714d4fe1c1f826388b08697487275e5d160cf88ac00000000", "vin": [{"sequence": 4294967295, "scriptSig": {"hex": "483045022100fade980f6afc99319312c4f43dea6817f3619a0a07200fb20676d3e73699e661022059437e41eefb0a3afabd4cade40185d9bf000d7aa581ad86dc6afb7127712053012102033c7a376b064f7ceb9651672f4f61c5e70512067074949eeeab4fa867982976", "asm": "3045022100fade980f6afc99319312c4f43dea6817f3619a0a07200fb20676d3e73699e661022059437e41eefb0a3afabd4cade40185d9bf000d7aa581ad86dc6afb7127712053[ALL] 02033c7a376b064f7ceb9651672f4f61c5e70512067074949eeeab4fa867982976"}, "vout": 1, "txid": "a02290169732cd06476dad51622b4dbe81a33aeb99455841438e9044231c8d1c"}, {"sequence": 4294967295, "scriptSig": {"hex": "48304502210087afc503f0cb3b09475f95a3b5753ef36008aeaa8a01df46e3a6fa88811da10f0220041dd119ddf57cc0c0f78e26ffc58d1cca5ae317fdd8a41103b5aa79f35a474301210389dc49475f73d14b09505ed10ae52499b7e659631a407fe00b376f6a791eea0b", "asm": "304502210087afc503f0cb3b09475f95a3b5753ef36008aeaa8a01df46e3a6fa88811da10f0220041dd119ddf57cc0c0f78e26ffc58d1cca5ae317fdd8a41103b5aa79f35a4743[ALL] 0389dc49475f73d14b09505ed10ae52499b7e659631a407fe00b376f6a791eea0b"}, "vout": 0, "txid": "c6e02cac2fe00745d96de2d41065d9524eb9b955d11dbe346de85655918ab9a2"}], "txid": "7b1861e6aeebd3a162c30ffaf81eb44d2aea16624de91c85932208866c4804c9", "blocktime": 1537873891, "version": 1, "confirmations": 11478, "time": 1537873891, "locktime": 0, "vsize": 340, "size": 340}