{"hash": "5999922749fa87ec969c80bd887df11d2e70e89b8bd1fd3006a5975e13979d4b", "blockhash": "0000000000000000001f76057863aec43deb6fa401d9628bb513d65a8098bfab", "vout": [{"scriptPubKey": {"reqSigs": 1, "hex": "a914ad2341fe4f3741cfb760bbe5e28a2f8f12b63a8e87", "addresses": ["3HUV4V3ij2UHjdZHPwxq6QEgQq2TJc2fcG"], "asm": "OP_HASH160 ad2341fe4f3741cfb760bbe5e28a2f8f12b63a8e OP_EQUAL", "type": "scripthash"}, "value": 0.0138, "n": 0}, {"scriptPubKey": {"reqSigs": 1, "hex": "a9143e1799863625d3545a1a08e8620bc2bb58fae94887", "addresses": ["37ML6B1g8if84nFd4ojt73fsEi5adqvVJz"], "asm": "OP_HASH160 3e1799863625d3545a1a08e8620bc2bb58fae948 OP_EQUAL", "type": "scripthash"}, "value": 0.00017572, "n": 1}], "hex": "02000000000101723bb8b2254e52dd78df414384bff0e962eb8390b45227ddc4acba8660aff38f0100000017160014fb16c59f6858eb035c146c6714387282e64ff6edffffffff02a00e15000000000017a914ad2341fe4f3741cfb760bbe5e28a2f8f12b63a8e87a44400000000000017a9143e1799863625d3545a1a08e8620bc2bb58fae948870247304402200eda54ebb906bce2a942c6f342850eb64cdcf1f80f35d0b39c1ea759d0c8a0b6022047ef2d394a89a7061a51f5b31ec98b5309a6351bc7651701736c312f09922cc7012102bdc662caad256724023931d8c9348b3ddceb213c4a002cc4ca4a13d3b62c7df800000000", "vin": [{"txinwitness": ["304402200eda54ebb906bce2a942c6f342850eb64cdcf1f80f35d0b39c1ea759d0c8a0b6022047ef2d394a89a7061a51f5b31ec98b5309a6351bc7651701736c312f09922cc701", "02bdc662caad256724023931d8c9348b3ddceb213c4a002cc4ca4a13d3b62c7df8"], "sequence": 4294967295, "scriptSig": {"hex": "160014fb16c59f6858eb035c146c6714387282e64ff6ed", "asm": "0014fb16c59f6858eb035c146c6714387282e64ff6ed"}, "vout": 1, "txid": "8ff3af6086baacc4dd2752b49083eb62e9f0bf844341df78dd524e25b2b83b72"}], "txid": "7b1c200509cfc570015fa1004993e4ef633cb04deb50ee4818fd112f959980a5", "blocktime": 1537873891, "version": 2, "confirmations": 11475, "time": 1537873891, "locktime": 0, "vsize": 166, "size": 247}