{"hash": "ad30c1b890c69c4e13b689039a3aa83744214274017a496b8eacf3d687dded51", "blockhash": "0000000000000000001cda96e906b7601b7a6fb1a3b62bca570a9e5d8f4b3de1", "vout": [{"scriptPubKey": {"reqSigs": 1, "hex": "76a914d2db55230b4633912915a5669ff325976957fdf388ac", "addresses": ["1LDuen8zhh9eh3ECXb7a9zq8PzRzSks9PM"], "asm": "OP_DUP OP_HASH160 d2db55230b4633912915a5669ff325976957fdf3 OP_EQUALVERIFY OP_CHECKSIG", "type": "pubkeyhash"}, "value": 0.034496, "n": 0}, {"scriptPubKey": {"reqSigs": 1, "hex": "a914dee0a1cc9f055700143e0f4ecee53180ab3530dc87", "addresses": ["3N1V2qWA5hpScEmS72pMooYRmXUiLmwPQQ"], "asm": "OP_HASH160 dee0a1cc9f055700143e0f4ecee53180ab3530dc OP_EQUAL", "type": "scripthash"}, "value": 0.19085827, "n": 1}], "hex": "0200000000010116ccb07a8017c66f533c23ee94b183345b5851143d4d2b9da57497eaf45303e00100000017160014cb5dbe423de4d42b6425c6921084c6197a5d2937ffffffff0200a33400000000001976a914d2db55230b4633912915a5669ff325976957fdf388ac033a23010000000017a914dee0a1cc9f055700143e0f4ecee53180ab3530dc8702483045022100c9bb8697b3adee4e54a03a334037bfc59c5c0adf3f0932c877919aad730ec4f902203d01f45e734ca27e25a910298d8f0d97d2f47ebdbef3a27be284eb698d436601012102acecad485eda786cbe0422823b7594aea6854abb5ec85e267f1c4b87f3f758f700000000", "vin": [{"txinwitness": ["3045022100c9bb8697b3adee4e54a03a334037bfc59c5c0adf3f0932c877919aad730ec4f902203d01f45e734ca27e25a910298d8f0d97d2f47ebdbef3a27be284eb698d43660101", "02acecad485eda786cbe0422823b7594aea6854abb5ec85e267f1c4b87f3f758f7"], "sequence": 4294967295, "scriptSig": {"hex": "160014cb5dbe423de4d42b6425c6921084c6197a5d2937", "asm": "0014cb5dbe423de4d42b6425c6921084c6197a5d2937"}, "vout": 1, "txid": "e00353f4ea9774a59d2b4d3d1451585b3483b194ee233c536fc617807ab0cc16"}], "txid": "7b1f6e6a8c29bb75142a95c81c519ab45fd476409cdd7998a9f50bab9bffe730", "blocktime": 1537873282, "version": 2, "confirmations": 11481, "time": 1537873282, "locktime": 0, "vsize": 168, "size": 250}