{"hash": "7246ec4c7ef35ab93227cf16e1311ff4149766a55ffe587100f984a0e56a7298", "blockhash": "0000000000000000001f76057863aec43deb6fa401d9628bb513d65a8098bfab", "vout": [{"scriptPubKey": {"reqSigs": 1, "hex": "a9145c866f2d03d12f902c7f60f2566bc6df03f133ca87", "addresses": ["3A8F8rEin7NH7uc296ZVx8SNE9uL5FVjUt"], "asm": "OP_HASH160 5c866f2d03d12f902c7f60f2566bc6df03f133ca OP_EQUAL", "type": "scripthash"}, "value": 0.0062, "n": 0}, {"scriptPubKey": {"reqSigs": 1, "hex": "a91492d11218a591117e3c97e392116d5b0685f41e7d87", "addresses": ["3F5K33756DKfuYSU8Uxy4FvJyiyGW1f8qp"], "asm": "OP_HASH160 92d11218a591117e3c97e392116d5b0685f41e7d OP_EQUAL", "type": "scripthash"}, "value": 0.64143328, "n": 1}], "hex": "010000000001014a176526eeab7a7e73b3e10dfb720212ae6a6a3cc6dc8b26aad52f9d76bc21e60100000023220020f1cd9874ef937cfbf1f2149c0fc92f78a2cd941a33824f23002b294568a4f7c1ffffffff02e07509000000000017a9145c866f2d03d12f902c7f60f2566bc6df03f133ca87e0bfd2030000000017a91492d11218a591117e3c97e392116d5b0685f41e7d870400483045022100a5430e73ea66bd711bf50696a4efdbc1a54ac900bec63e962862d0819746b93202200711790e51fd9bb894b998f0ca59ed82e9265470e40b9acb7fde7967dbfa76220147304402205a979304c2c2040fa1dcf5ab895a37d6228ee493d71e34b8f6aef69d0089fc15022007d6fa76ff46ccf58f420a3c3943c14a184ce1d042ce6cd8d1c98bdffdccdff5016952210257659d9228e098b40c70ba055d5038487d7bfa1e94725d90ec0d08f02d0b74d22102976f2a6213b2892cedc067a847de448bee09c2080dc962dcdc026d8077e8a9de21032c082c36412bb53f8cc1bb27a9fab105389fca84d6f1c883f41afdf55a7c5b5e53ae00000000", "vin": [{"txinwitness": ["", "3045022100a5430e73ea66bd711bf50696a4efdbc1a54ac900bec63e962862d0819746b93202200711790e51fd9bb894b998f0ca59ed82e9265470e40b9acb7fde7967dbfa762201", "304402205a979304c2c2040fa1dcf5ab895a37d6228ee493d71e34b8f6aef69d0089fc15022007d6fa76ff46ccf58f420a3c3943c14a184ce1d042ce6cd8d1c98bdffdccdff501", "52210257659d9228e098b40c70ba055d5038487d7bfa1e94725d90ec0d08f02d0b74d22102976f2a6213b2892cedc067a847de448bee09c2080dc962dcdc026d8077e8a9de21032c082c36412bb53f8cc1bb27a9fab105389fca84d6f1c883f41afdf55a7c5b5e53ae"], "sequence": 4294967295, "scriptSig": {"hex": "220020f1cd9874ef937cfbf1f2149c0fc92f78a2cd941a33824f23002b294568a4f7c1", "asm": "0020f1cd9874ef937cfbf1f2149c0fc92f78a2cd941a33824f23002b294568a4f7c1"}, "vout": 1, "txid": "e621bc769d2fd5aa268bdcc63c6a6aae120272fb0de1b3737e7aabee2665174a"}], "txid": "7b24d55888f1865a4721b2c6270280e43ac269df3add74748f97bfc173fa0ea2", "blocktime": 1537873891, "version": 1, "confirmations": 11478, "time": 1537873891, "locktime": 0, "vsize": 214, "size": 405}