{"hash": "7b29277c3909d87baa832bdd253bf7b98b1331ea0f08d7f6660e5f9c1ba74509", "blockhash": "0000000000000000001f0ddff1eddb255c1121bcd4da4f1bc9a0da00cae72433", "vout": [{"scriptPubKey": {"reqSigs": 1, "hex": "76a914e3fce1216bb8ec0ea859572e080adaddd4bb492b88ac", "addresses": ["1MnVKv6KEHrUEbm87S1KueRHFX7AXKrojc"], "asm": "OP_DUP OP_HASH160 e3fce1216bb8ec0ea859572e080adaddd4bb492b OP_EQUALVERIFY OP_CHECKSIG", "type": "pubkeyhash"}, "value": 0.00169979, "n": 0}, {"scriptPubKey": {"reqSigs": 1, "hex": "76a914ea9c831b52c211f357fb7c93f7c6a07475d7664888ac", "addresses": ["1NPWcYSnykbysrSwLrzjZewZHubocrJ9XZ"], "asm": "OP_DUP OP_HASH160 ea9c831b52c211f357fb7c93f7c6a07475d76648 OP_EQUALVERIFY OP_CHECKSIG", "type": "pubkeyhash"}, "value": 0.00297, "n": 1}], "hex": "0100000002865df73292f08e16a5c6d8d5824d5fc3edf8febb1dc7c80d147755f7a79e1766000000006a47304402203a4bca5047de88f1e41a01867e9173afb15be8c891955fdd3f9f374a2b53b3d20220159626297519ac6b8ba1e49d7bacb7f71fef9921f9b33ebbb284624528bd7cbe0121022485b0c580f591807947ec44e7b5743853cfd8b0cdf95b3a2a775312b93a2949ffffffffc92bc5f3897747615b74c84953c85ed151e9f48834ca86cefc637fba2198799b050000006b483045022100a72f7f5167ffa00dfd1f8f3f64afa199d2b93d3f819f52a8a4fddbdaf93350e9022052ab5fa9e9e0ef77630206b0480f097a925da00723bd41f24202e554d6042de4012102b3026395371d51131ae1e453bbb75133e3b9ca6c8f79baf8520de7d80c11037cffffffff02fb970200000000001976a914e3fce1216bb8ec0ea859572e080adaddd4bb492b88ac28880400000000001976a914ea9c831b52c211f357fb7c93f7c6a07475d7664888ac00000000", "vin": [{"sequence": 4294967295, "scriptSig": {"hex": "47304402203a4bca5047de88f1e41a01867e9173afb15be8c891955fdd3f9f374a2b53b3d20220159626297519ac6b8ba1e49d7bacb7f71fef9921f9b33ebbb284624528bd7cbe0121022485b0c580f591807947ec44e7b5743853cfd8b0cdf95b3a2a775312b93a2949", "asm": "304402203a4bca5047de88f1e41a01867e9173afb15be8c891955fdd3f9f374a2b53b3d20220159626297519ac6b8ba1e49d7bacb7f71fef9921f9b33ebbb284624528bd7cbe[ALL] 022485b0c580f591807947ec44e7b5743853cfd8b0cdf95b3a2a775312b93a2949"}, "vout": 0, "txid": "66179ea7f75577140dc8c71dbbfef8edc35f4d82d5d8c6a5168ef09232f75d86"}, {"sequence": 4294967295, "scriptSig": {"hex": "483045022100a72f7f5167ffa00dfd1f8f3f64afa199d2b93d3f819f52a8a4fddbdaf93350e9022052ab5fa9e9e0ef77630206b0480f097a925da00723bd41f24202e554d6042de4012102b3026395371d51131ae1e453bbb75133e3b9ca6c8f79baf8520de7d80c11037c", "asm": "3045022100a72f7f5167ffa00dfd1f8f3f64afa199d2b93d3f819f52a8a4fddbdaf93350e9022052ab5fa9e9e0ef77630206b0480f097a925da00723bd41f24202e554d6042de4[ALL] 02b3026395371d51131ae1e453bbb75133e3b9ca6c8f79baf8520de7d80c11037c"}, "vout": 5, "txid": "9b799821ba7f63fcce86ca3488f4e951d15ec85349c8745b61477789f3c52bc9"}], "txid": "7b29277c3909d87baa832bdd253bf7b98b1331ea0f08d7f6660e5f9c1ba74509", "blocktime": 1537872018, "version": 1, "confirmations": 11489, "time": 1537872018, "locktime": 0, "vsize": 373, "size": 373}