{"hash": "7b2cee0c4a0121c193949bc8d841a5b37e1ffa9919e17b8f157b41cae45f22e5", "blockhash": "0000000000000000000e13cef7c366c0283d82e591d1acd082e914b08063cdf1", "vout": [{"scriptPubKey": {"type": "nulldata", "hex": "6a146f6d6e69000000000000001f000000744c852300", "asm": "OP_RETURN 6f6d6e69000000000000001f000000744c852300"}, "value": 0.0, "n": 0}, {"scriptPubKey": {"reqSigs": 1, "hex": "76a914e2b8f9eaa0b53fe433f280f346e62676fc3135da88ac", "addresses": ["1MfoJjDeH2NkzvwgVJwpLXiHgnHrFcPfAj"], "asm": "OP_DUP OP_HASH160 e2b8f9eaa0b53fe433f280f346e62676fc3135da OP_EQUALVERIFY OP_CHECKSIG", "type": "pubkeyhash"}, "value": 5.46e-06, "n": 1}, {"scriptPubKey": {"reqSigs": 1, "hex": "76a914d57b07631748e4a8b7aa81a9b6f0de9f68a5237f88ac", "addresses": ["1LTnK4AoQZkcWR2DRtKEZpZJDVfB7HxPvj"], "asm": "OP_DUP OP_HASH160 d57b07631748e4a8b7aa81a9b6f0de9f68a5237f OP_EQUALVERIFY OP_CHECKSIG", "type": "pubkeyhash"}, "value": 0.00095929, "n": 2}], "hex": "010000000133ff54ab7160fb1094dd8e705826fc72c0678a93528fa60e5109ce182dfa7a51010000006a47304402201c557069c29ad425b8bebd6e4352f9750d36fe3f34deb9edd573a1a3e7fd00fa02202aa7a45b8765d9516a5944ec9eb4561be32c7acdda013d7e476331b6524a5403012102bc2c890048aa969e3ee5628095937ee7d5eaede38051556934ff705d1bbeda9ffeffffff030000000000000000166a146f6d6e69000000000000001f000000744c85230022020000000000001976a914e2b8f9eaa0b53fe433f280f346e62676fc3135da88acb9760100000000001976a914d57b07631748e4a8b7aa81a9b6f0de9f68a5237f88ac10490800", "vin": [{"sequence": 4294967294, "scriptSig": {"hex": "47304402201c557069c29ad425b8bebd6e4352f9750d36fe3f34deb9edd573a1a3e7fd00fa02202aa7a45b8765d9516a5944ec9eb4561be32c7acdda013d7e476331b6524a5403012102bc2c890048aa969e3ee5628095937ee7d5eaede38051556934ff705d1bbeda9f", "asm": "304402201c557069c29ad425b8bebd6e4352f9750d36fe3f34deb9edd573a1a3e7fd00fa02202aa7a45b8765d9516a5944ec9eb4561be32c7acdda013d7e476331b6524a5403[ALL] 02bc2c890048aa969e3ee5628095937ee7d5eaede38051556934ff705d1bbeda9f"}, "vout": 1, "txid": "517afa2d18ce09510ea68f52938a67c072fc2658708edd9410fb6071ab54ff33"}], "txid": "7b2cee0c4a0121c193949bc8d841a5b37e1ffa9919e17b8f157b41cae45f22e5", "blocktime": 1537871767, "version": 1, "confirmations": 11490, "time": 1537871767, "locktime": 542992, "vsize": 256, "size": 256}