{"hash": "7b2ff8f24993649b1957a21623ea86e69102130b19cd93f3cf78660eef471827", "blockhash": "0000000000000000000baef3f32e3676a92c3b2e5da21b426e4f302fc371ce76", "vout": [{"scriptPubKey": {"reqSigs": 1, "hex": "76a914a63f4e01e0668c30871442d3f244120a66ba6d6a88ac", "addresses": ["1GA31LHzYBz9GVDCJyeAebR82n45DL1Lv2"], "asm": "OP_DUP OP_HASH160 a63f4e01e0668c30871442d3f244120a66ba6d6a OP_EQUALVERIFY OP_CHECKSIG", "type": "pubkeyhash"}, "value": 8e-06, "n": 0}, {"scriptPubKey": {"reqSigs": 1, "hex": "76a91479cb28b67949abfd0f9c2345c4967257a5e20f3a88ac", "addresses": ["1C6z8x2GHHfWFNvNBZKVfHZb26FovoMm2e"], "asm": "OP_DUP OP_HASH160 79cb28b67949abfd0f9c2345c4967257a5e20f3a OP_EQUALVERIFY OP_CHECKSIG", "type": "pubkeyhash"}, "value": 1.0, "n": 1}], "hex": "0100000005d61601ea5a009244ef99177cab8006917ee21c93bee730a049eaf88315af030f000000006b483045022100a38af604339db7a4d968d478c52eed8e6dc01725b532a28adc93fcccd33bea000220429762dddfe925848d391fe08900ad1eb0e0e83994c51728eed507bfae833e63012103b8d6659537a937c7b58310062bfb61f88e3c303eb308c6a4f8dadd4ac462d45bffffffff9fdfe3eb87af12924714b565b4e227ee9a61e02140292a8d87fa66b309e38484000000006a47304402200ad73ce4f892cfb95440b62504e050cd20c46e8930b06da494d832e47869e34e022018a3ccf90aa321c1c8c4dc8f7b2cfd17ad9e40800b7f1cae72391856a79d5a9601210234049d507a6d69b65ba5d45f4486b05a8fae2a12b7bf1a582f3f9c0dcd9b03fdffffffff3d556e8bf4bf64a82ec406caa528c3b7e09e95da0df02f23308cf0efc7853d930c0000006a473044022013fbdf0abcb0ce11c8f25e0f51f1dddce8eb5a2b99760c9aa5160e1ab193476d02204ceda5c095cbcd7396d12ded67d3e1d5ee5bab430ab9e6b9cabe8373f851468d012103741b0996ee015b317a5a9e287028f8c2cdc329627f2e80857ef2a6168365e547ffffffff994081768ce39c007e0a2882df59c02c07c2ced49c0801944be713e27777b6d7000000006a47304402207e517315ed5a3ae1707fc58ab3c3c0ae5404aca40efff19607aec25a72af53e902200c3e67c69a8853e6597a8c6f329b5761c61cc69a66d440336c29169217c4165f0121020e1d4e5cc36d0a83a45e948697b8a2d1c2a4550587e46139346097f9bb448492ffffffff304a780004931e974f3f88a713463830d61d559cc67bea5c5ac2dcd5b71f4fef000000006b483045022100d841d739d4b0eb9cc85d0624d5c54965cc32a10075079beaa4c9321f2acddc0a02206d54967daa9d47dbdb19973819e8e7d9430a42295d50528bea39998ca340f990012103d80ed494a37505cf4f42ac54be46fb28e5db0b3a6f654636e7f8b44edd65bcc5ffffffff0220030000000000001976a914a63f4e01e0668c30871442d3f244120a66ba6d6a88ac00e1f505000000001976a91479cb28b67949abfd0f9c2345c4967257a5e20f3a88ac00000000", "vin": [{"sequence": 4294967295, "scriptSig": {"hex": "483045022100a38af604339db7a4d968d478c52eed8e6dc01725b532a28adc93fcccd33bea000220429762dddfe925848d391fe08900ad1eb0e0e83994c51728eed507bfae833e63012103b8d6659537a937c7b58310062bfb61f88e3c303eb308c6a4f8dadd4ac462d45b", "asm": "3045022100a38af604339db7a4d968d478c52eed8e6dc01725b532a28adc93fcccd33bea000220429762dddfe925848d391fe08900ad1eb0e0e83994c51728eed507bfae833e63[ALL] 03b8d6659537a937c7b58310062bfb61f88e3c303eb308c6a4f8dadd4ac462d45b"}, "vout": 0, "txid": "0f03af1583f8ea49a030e7be931ce27e910680ab7c1799ef4492005aea0116d6"}, {"sequence": 4294967295, "scriptSig": {"hex": "47304402200ad73ce4f892cfb95440b62504e050cd20c46e8930b06da494d832e47869e34e022018a3ccf90aa321c1c8c4dc8f7b2cfd17ad9e40800b7f1cae72391856a79d5a9601210234049d507a6d69b65ba5d45f4486b05a8fae2a12b7bf1a582f3f9c0dcd9b03fd", "asm": "304402200ad73ce4f892cfb95440b62504e050cd20c46e8930b06da494d832e47869e34e022018a3ccf90aa321c1c8c4dc8f7b2cfd17ad9e40800b7f1cae72391856a79d5a96[ALL] 0234049d507a6d69b65ba5d45f4486b05a8fae2a12b7bf1a582f3f9c0dcd9b03fd"}, "vout": 0, "txid": "8484e309b366fa878d2a294021e0619aee27e2b465b514479212af87ebe3df9f"}, {"sequence": 4294967295, "scriptSig": {"hex": "473044022013fbdf0abcb0ce11c8f25e0f51f1dddce8eb5a2b99760c9aa5160e1ab193476d02204ceda5c095cbcd7396d12ded67d3e1d5ee5bab430ab9e6b9cabe8373f851468d012103741b0996ee015b317a5a9e287028f8c2cdc329627f2e80857ef2a6168365e547", "asm": "3044022013fbdf0abcb0ce11c8f25e0f51f1dddce8eb5a2b99760c9aa5160e1ab193476d02204ceda5c095cbcd7396d12ded67d3e1d5ee5bab430ab9e6b9cabe8373f851468d[ALL] 03741b0996ee015b317a5a9e287028f8c2cdc329627f2e80857ef2a6168365e547"}, "vout": 12, "txid": "933d85c7eff08c30232ff00dda959ee0b7c328a5ca06c42ea864bff48b6e553d"}, {"sequence": 4294967295, "scriptSig": {"hex": "47304402207e517315ed5a3ae1707fc58ab3c3c0ae5404aca40efff19607aec25a72af53e902200c3e67c69a8853e6597a8c6f329b5761c61cc69a66d440336c29169217c4165f0121020e1d4e5cc36d0a83a45e948697b8a2d1c2a4550587e46139346097f9bb448492", "asm": "304402207e517315ed5a3ae1707fc58ab3c3c0ae5404aca40efff19607aec25a72af53e902200c3e67c69a8853e6597a8c6f329b5761c61cc69a66d440336c29169217c4165f[ALL] 020e1d4e5cc36d0a83a45e948697b8a2d1c2a4550587e46139346097f9bb448492"}, "vout": 0, "txid": "d7b67777e213e74b9401089cd4cec2072cc059df82280a7e009ce38c76814099"}, {"sequence": 4294967295, "scriptSig": {"hex": "483045022100d841d739d4b0eb9cc85d0624d5c54965cc32a10075079beaa4c9321f2acddc0a02206d54967daa9d47dbdb19973819e8e7d9430a42295d50528bea39998ca340f990012103d80ed494a37505cf4f42ac54be46fb28e5db0b3a6f654636e7f8b44edd65bcc5", "asm": "3045022100d841d739d4b0eb9cc85d0624d5c54965cc32a10075079beaa4c9321f2acddc0a02206d54967daa9d47dbdb19973819e8e7d9430a42295d50528bea39998ca340f990[ALL] 03d80ed494a37505cf4f42ac54be46fb28e5db0b3a6f654636e7f8b44edd65bcc5"}, "vout": 0, "txid": "ef4f1fb7d5dcc25a5cea7bc69c551dd630384613a7883f4f971e930400784a30"}], "txid": "7b2ff8f24993649b1957a21623ea86e69102130b19cd93f3cf78660eef471827", "blocktime": 1537876114, "version": 1, "confirmations": 11463, "time": 1537876114, "locktime": 0, "vsize": 815, "size": 815}