{"hash": "7b30254bce1ba053f9b0a5209e04e219ea5c2554f77bcb5180c98fc5778bcc4e", "blockhash": "00000000000000000024a2167bbff67b0be802c0b01cdd79e6331c2be6459f87", "vout": [{"scriptPubKey": {"reqSigs": 1, "hex": "76a91400c4a7ef223af839ff68d06ad10e2f476c0d1fee88ac", "addresses": ["1154au5aarBRwY5s6hG27mX1CDLaKqBdx6"], "asm": "OP_DUP OP_HASH160 00c4a7ef223af839ff68d06ad10e2f476c0d1fee OP_EQUALVERIFY OP_CHECKSIG", "type": "pubkeyhash"}, "value": 9.49303235, "n": 0}, {"scriptPubKey": {"reqSigs": 1, "hex": "a914e72d92feef620c4553ff5db29dffda82a04f866787", "addresses": ["3NmNcQbhfxLuUuN3hQqdvQFJAjF8rJQHrk"], "asm": "OP_HASH160 e72d92feef620c4553ff5db29dffda82a04f8667 OP_EQUAL", "type": "scripthash"}, "value": 0.17124728, "n": 1}], "hex": "0100000001bf0ea34d3756c19663ca95c8b4be7ff8c0275e617400fa2de5fc99d3bb4b8204010000006b483045022100c0cb64f4774c3cc5da55ba9b9b616420f40f37ed3c960dee66b44332eafef52c02200b4651dceba15b8f6949107ec29345bd60d365994ee440d5918a59fccd9852030121029806880565f4c2c51262a0b4b262be8504e9ee9e9db18612fea5724aaa09bd94ffffffff02c3379538000000001976a91400c4a7ef223af839ff68d06ad10e2f476c0d1fee88ac784d05010000000017a914e72d92feef620c4553ff5db29dffda82a04f86678700000000", "vin": [{"sequence": 4294967295, "scriptSig": {"hex": "483045022100c0cb64f4774c3cc5da55ba9b9b616420f40f37ed3c960dee66b44332eafef52c02200b4651dceba15b8f6949107ec29345bd60d365994ee440d5918a59fccd9852030121029806880565f4c2c51262a0b4b262be8504e9ee9e9db18612fea5724aaa09bd94", "asm": "3045022100c0cb64f4774c3cc5da55ba9b9b616420f40f37ed3c960dee66b44332eafef52c02200b4651dceba15b8f6949107ec29345bd60d365994ee440d5918a59fccd985203[ALL] 029806880565f4c2c51262a0b4b262be8504e9ee9e9db18612fea5724aaa09bd94"}, "vout": 1, "txid": "04824bbbd399fce52dfa0074615e27c0f87fbeb4c895ca6396c156374da30ebf"}], "txid": "7b30254bce1ba053f9b0a5209e04e219ea5c2554f77bcb5180c98fc5778bcc4e", "blocktime": 1537870564, "version": 1, "confirmations": 11515, "time": 1537870564, "locktime": 0, "vsize": 224, "size": 224}