{"hash": "7b3fb1a2ed821c5d2e0f8429999386e0108d49c6a40154910f4114f01a9630f0", "blockhash": "0000000000000000001cda96e906b7601b7a6fb1a3b62bca570a9e5d8f4b3de1", "vout": [{"scriptPubKey": {"type": "nulldata", "hex": "6a200b0b167c460b566a7ba55c3c90e33c449fd26482765e3531ce4c15f04de16397", "asm": "OP_RETURN 0b0b167c460b566a7ba55c3c90e33c449fd26482765e3531ce4c15f04de16397"}, "value": 0.0, "n": 0}, {"scriptPubKey": {"reqSigs": 1, "hex": "76a91488cc4cc4b7c2b04a33d8f1cabe5610bd435645b788ac", "addresses": ["1DUKe6Qc3tz9gZtLpjRAy1HtkYnZQ7vW24"], "asm": "OP_DUP OP_HASH160 88cc4cc4b7c2b04a33d8f1cabe5610bd435645b7 OP_EQUALVERIFY OP_CHECKSIG", "type": "pubkeyhash"}, "value": 0.43735595, "n": 1}], "hex": "0100000001de3b6cf98ef3d6f7c3f9584aaba01b506725e7d6d54d1904039c90a4152311e9010000006b483045022100a65f5c61c07e8b83a2eb647a6f79c1fc13471bb5e5e7225c97f992896f1bd182022041e3a90dad4a37deda3532c18b9b550736545ffa7606eef030c8c5ad4390da030121023f64280243b139aecdcd947b732f2cbcb49e6c78550929a5f8f3679837b8ebf7ffffffff020000000000000000226a200b0b167c460b566a7ba55c3c90e33c449fd26482765e3531ce4c15f04de163972b5a9b02000000001976a91488cc4cc4b7c2b04a33d8f1cabe5610bd435645b788ac00000000", "vin": [{"sequence": 4294967295, "scriptSig": {"hex": "483045022100a65f5c61c07e8b83a2eb647a6f79c1fc13471bb5e5e7225c97f992896f1bd182022041e3a90dad4a37deda3532c18b9b550736545ffa7606eef030c8c5ad4390da030121023f64280243b139aecdcd947b732f2cbcb49e6c78550929a5f8f3679837b8ebf7", "asm": "3045022100a65f5c61c07e8b83a2eb647a6f79c1fc13471bb5e5e7225c97f992896f1bd182022041e3a90dad4a37deda3532c18b9b550736545ffa7606eef030c8c5ad4390da03[ALL] 023f64280243b139aecdcd947b732f2cbcb49e6c78550929a5f8f3679837b8ebf7"}, "vout": 1, "txid": "e9112315a4909c0304194dd5d6e72567501ba0ab4a58f9c3f7d6f38ef96c3bde"}], "txid": "7b3fb1a2ed821c5d2e0f8429999386e0108d49c6a40154910f4114f01a9630f0", "blocktime": 1537873282, "version": 1, "confirmations": 11480, "time": 1537873282, "locktime": 0, "vsize": 235, "size": 235}