{"hash": "7b43aebe22f90096d5fccd57aef13302d62708f6bb173cccefe9152bd29e26f7", "blockhash": "0000000000000000000dcc0f55137456b1a82d3642486a52398922ac4d620174", "vout": [{"scriptPubKey": {"reqSigs": 1, "hex": "76a914073ca8529702e5452c711850b5b80abb860ae5c188ac", "addresses": ["1fGPuEKAtFmigiv4U3aeXKCpoXs8jZQb2"], "asm": "OP_DUP OP_HASH160 073ca8529702e5452c711850b5b80abb860ae5c1 OP_EQUALVERIFY OP_CHECKSIG", "type": "pubkeyhash"}, "value": 0.00491478, "n": 0}], "hex": "010000000412a3b6872859ea326ef7e5f7839ac1e69f29a9922834ac3b86c5b834c7cb8d11050000006a47304402202e80f54caa514f9eddf5143da2962110121141c3247652527311e99fc07d56a702200c2ec4055c4dcfda2a20f8fe62d6ca4804a38abc099efbf9ef968c16f31ade8d0121031e8c5bf2006669baa0888067b52b1845d049f63f82dee6590b798cf325b3efcefdffffff15b02d5fd07bfcc6d8872f5f9ac0d8430150e7448d122c4ef935456ba4e0192d030000006b483045022100ace18324fe8eeada74949f91acfe895695111ed2331adf7a9c1a99f40e7da2b002204f4b5c326e6c5193510134b544d65a36b6c7c8b7487e8edaec47fdbe6a558e760121031e8c5bf2006669baa0888067b52b1845d049f63f82dee6590b798cf325b3efcefdffffff87ce8aa7ceaaf27a00b3e9f4b30dff558a19f6c770fe7e64845ec82ced702fb4040000006a4730440220205a6f859ada364606097d1db991ccb9e974c4bd6b9bb9c8936e8badfe26acff022023667d305250e7def1146556ee823394189c6cba59af23db4b43faad9660cedd0121031e8c5bf2006669baa0888067b52b1845d049f63f82dee6590b798cf325b3efcefdffffffbf4d3f6746c3837223e80f43b96be12963a6e38c611d819eac2def87852e81e1010000006a47304402203b34f597dc51357156159a02b74376252c3d83b87f28f3a4363f6c6354e3eef9022071e2011816eaf6b4e065a63b010be4b83e734f0256a09ed5b0af9f06becce84b0121031e8c5bf2006669baa0888067b52b1845d049f63f82dee6590b798cf325b3efcefdffffff01d67f0700000000001976a914073ca8529702e5452c711850b5b80abb860ae5c188ac0c490800", "vin": [{"sequence": 4294967293, "scriptSig": {"hex": "47304402202e80f54caa514f9eddf5143da2962110121141c3247652527311e99fc07d56a702200c2ec4055c4dcfda2a20f8fe62d6ca4804a38abc099efbf9ef968c16f31ade8d0121031e8c5bf2006669baa0888067b52b1845d049f63f82dee6590b798cf325b3efce", "asm": "304402202e80f54caa514f9eddf5143da2962110121141c3247652527311e99fc07d56a702200c2ec4055c4dcfda2a20f8fe62d6ca4804a38abc099efbf9ef968c16f31ade8d[ALL] 031e8c5bf2006669baa0888067b52b1845d049f63f82dee6590b798cf325b3efce"}, "vout": 5, "txid": "118dcbc734b8c5863bac342892a9299fe6c19a83f7e5f76e32ea592887b6a312"}, {"sequence": 4294967293, "scriptSig": {"hex": "483045022100ace18324fe8eeada74949f91acfe895695111ed2331adf7a9c1a99f40e7da2b002204f4b5c326e6c5193510134b544d65a36b6c7c8b7487e8edaec47fdbe6a558e760121031e8c5bf2006669baa0888067b52b1845d049f63f82dee6590b798cf325b3efce", "asm": "3045022100ace18324fe8eeada74949f91acfe895695111ed2331adf7a9c1a99f40e7da2b002204f4b5c326e6c5193510134b544d65a36b6c7c8b7487e8edaec47fdbe6a558e76[ALL] 031e8c5bf2006669baa0888067b52b1845d049f63f82dee6590b798cf325b3efce"}, "vout": 3, "txid": "2d19e0a46b4535f94e2c128d44e7500143d8c09a5f2f87d8c6fc7bd05f2db015"}, {"sequence": 4294967293, "scriptSig": {"hex": "4730440220205a6f859ada364606097d1db991ccb9e974c4bd6b9bb9c8936e8badfe26acff022023667d305250e7def1146556ee823394189c6cba59af23db4b43faad9660cedd0121031e8c5bf2006669baa0888067b52b1845d049f63f82dee6590b798cf325b3efce", "asm": "30440220205a6f859ada364606097d1db991ccb9e974c4bd6b9bb9c8936e8badfe26acff022023667d305250e7def1146556ee823394189c6cba59af23db4b43faad9660cedd[ALL] 031e8c5bf2006669baa0888067b52b1845d049f63f82dee6590b798cf325b3efce"}, "vout": 4, "txid": "b42f70ed2cc85e84647efe70c7f6198a55ff0db3f4e9b3007af2aacea78ace87"}, {"sequence": 4294967293, "scriptSig": {"hex": "47304402203b34f597dc51357156159a02b74376252c3d83b87f28f3a4363f6c6354e3eef9022071e2011816eaf6b4e065a63b010be4b83e734f0256a09ed5b0af9f06becce84b0121031e8c5bf2006669baa0888067b52b1845d049f63f82dee6590b798cf325b3efce", "asm": "304402203b34f597dc51357156159a02b74376252c3d83b87f28f3a4363f6c6354e3eef9022071e2011816eaf6b4e065a63b010be4b83e734f0256a09ed5b0af9f06becce84b[ALL] 031e8c5bf2006669baa0888067b52b1845d049f63f82dee6590b798cf325b3efce"}, "vout": 1, "txid": "e1812e8587ef2dac9e811d618ce3a66329e16bb9430fe8237283c346673f4dbf"}], "txid": "7b43aebe22f90096d5fccd57aef13302d62708f6bb173cccefe9152bd29e26f7", "blocktime": 1537870268, "version": 1, "confirmations": 11519, "time": 1537870268, "locktime": 542988, "vsize": 633, "size": 633}