{"hash": "7b4cbec3e46bede358cc0994527b74feaa40d605d1ea081fcc888ad75f07a02b", "blockhash": "00000000000000000024a2167bbff67b0be802c0b01cdd79e6331c2be6459f87", "vout": [{"scriptPubKey": {"reqSigs": 1, "hex": "76a9144005c59e3971913b91eaefd89aa877d4d6fbc18488ac", "addresses": ["16qXAKVy19c6KKezA5imnSx4KFLUJccxEu"], "asm": "OP_DUP OP_HASH160 4005c59e3971913b91eaefd89aa877d4d6fbc184 OP_EQUALVERIFY OP_CHECKSIG", "type": "pubkeyhash"}, "value": 0.0014806, "n": 0}, {"scriptPubKey": {"type": "nulldata", "hex": "6a4c500000777c0001b5e35f1de28bd9246c8a4ea5bcbefa6b8351586b4e86aeaeacb577c031fc188e23a49bea01f4b5f926be4d26c66a5baa0a0d0614ac97a78d2db7bc9a9526289ac0f6612cd74e33776ee4", "asm": "OP_RETURN 0000777c0001b5e35f1de28bd9246c8a4ea5bcbefa6b8351586b4e86aeaeacb577c031fc188e23a49bea01f4b5f926be4d26c66a5baa0a0d0614ac97a78d2db7bc9a9526289ac0f6612cd74e33776ee4"}, "value": 0.0, "n": 1}], "hex": "0100000001a7e4470b203410461972ee45611a41e602a513a1c5429c19ad7af387d2979212000000006a473044022068a544c33ff6a42d499254319753046b44284f7dd7889d81c3bd725b19f1086702200f3638ce904964d8e70e7085adcd0d78063ac8f80600c696471cb77c612553e90121027134b6840c4d5442cea67bcf3fcaf974edc89faaab47cbee273fa19bc8da15d3ffffffff025c420200000000001976a9144005c59e3971913b91eaefd89aa877d4d6fbc18488ac0000000000000000536a4c500000777c0001b5e35f1de28bd9246c8a4ea5bcbefa6b8351586b4e86aeaeacb577c031fc188e23a49bea01f4b5f926be4d26c66a5baa0a0d0614ac97a78d2db7bc9a9526289ac0f6612cd74e33776ee400000000", "vin": [{"sequence": 4294967295, "scriptSig": {"hex": "473044022068a544c33ff6a42d499254319753046b44284f7dd7889d81c3bd725b19f1086702200f3638ce904964d8e70e7085adcd0d78063ac8f80600c696471cb77c612553e90121027134b6840c4d5442cea67bcf3fcaf974edc89faaab47cbee273fa19bc8da15d3", "asm": "3044022068a544c33ff6a42d499254319753046b44284f7dd7889d81c3bd725b19f1086702200f3638ce904964d8e70e7085adcd0d78063ac8f80600c696471cb77c612553e9[ALL] 027134b6840c4d5442cea67bcf3fcaf974edc89faaab47cbee273fa19bc8da15d3"}, "vout": 0, "txid": "129297d287f37aad199c42c5a113a502e6411a6145ee7219461034200b47e4a7"}], "txid": "7b4cbec3e46bede358cc0994527b74feaa40d605d1ea081fcc888ad75f07a02b", "blocktime": 1537870564, "version": 1, "confirmations": 11515, "time": 1537870564, "locktime": 0, "vsize": 283, "size": 283}