{"hash": "7b52272ac29bf3a2b4c66b63453a1096f2a0a197ba958636f5ca627b48370f56", "blockhash": "0000000000000000000e13cef7c366c0283d82e591d1acd082e914b08063cdf1", "vout": [{"scriptPubKey": {"reqSigs": 1, "hex": "76a9148e0611cc6332fe7b4a3520b54d37ceb04162a8fa88ac", "addresses": ["1DwxDxZQ6bzVvwSeeVA5FykDcEPTrucy61"], "asm": "OP_DUP OP_HASH160 8e0611cc6332fe7b4a3520b54d37ceb04162a8fa OP_EQUALVERIFY OP_CHECKSIG", "type": "pubkeyhash"}, "value": 0.00022575, "n": 0}, {"scriptPubKey": {"type": "nulldata", "hex": "6a4c500000778c0001f70b36bf1d3054d80ba3060ce3ef3236678a625097bcbefa6b8351586b4e0397d38bd4ef329276b2018db169cec95baa0c4006144be3021c8cbf4bbf23acfcfaac8058b692fe6808c31d", "asm": "OP_RETURN 0000778c0001f70b36bf1d3054d80ba3060ce3ef3236678a625097bcbefa6b8351586b4e0397d38bd4ef329276b2018db169cec95baa0c4006144be3021c8cbf4bbf23acfcfaac8058b692fe6808c31d"}, "value": 0.0, "n": 1}], "hex": "0100000001d493653b6ec9025a360fc29acb16277ac4ecaa41ebbf0c7c36cd955636d20d16000000006a473044022002afab213f381ab36078eca73ef5b957c4c7c22d64a1c3c04fb3fadd3005c10202200980dc23a52a70e9a535ca64fa9d02f40b7e5542a81b67245cd793af5bc5428701210201e073aa08f88b6ea10043e042cd5f156dd46e96e98d960011fb7347abd81139ffffffff022f580000000000001976a9148e0611cc6332fe7b4a3520b54d37ceb04162a8fa88ac0000000000000000536a4c500000778c0001f70b36bf1d3054d80ba3060ce3ef3236678a625097bcbefa6b8351586b4e0397d38bd4ef329276b2018db169cec95baa0c4006144be3021c8cbf4bbf23acfcfaac8058b692fe6808c31d00000000", "vin": [{"sequence": 4294967295, "scriptSig": {"hex": "473044022002afab213f381ab36078eca73ef5b957c4c7c22d64a1c3c04fb3fadd3005c10202200980dc23a52a70e9a535ca64fa9d02f40b7e5542a81b67245cd793af5bc5428701210201e073aa08f88b6ea10043e042cd5f156dd46e96e98d960011fb7347abd81139", "asm": "3044022002afab213f381ab36078eca73ef5b957c4c7c22d64a1c3c04fb3fadd3005c10202200980dc23a52a70e9a535ca64fa9d02f40b7e5542a81b67245cd793af5bc54287[ALL] 0201e073aa08f88b6ea10043e042cd5f156dd46e96e98d960011fb7347abd81139"}, "vout": 0, "txid": "160dd2365695cd367c0cbfeb41aaecc47a2716cb9ac20f365a02c96e3b6593d4"}], "txid": "7b52272ac29bf3a2b4c66b63453a1096f2a0a197ba958636f5ca627b48370f56", "blocktime": 1537871767, "version": 1, "confirmations": 11495, "time": 1537871767, "locktime": 0, "vsize": 283, "size": 283}