{"hash": "7b5222e681a9907f750adddffa5d5abf4f58ec16b78ec8834b9438117c0770df", "blockhash": "00000000000000000017f5eb5941039fbcee6240d03bc1f2f8e35350df66a1d8", "vout": [{"scriptPubKey": {"reqSigs": 1, "hex": "a91414ee593bd6ae8db4662d8e57a0367922b8fd257987", "addresses": ["33bgy8TBDpv8qmv4U6Y8rpTP8LRkQ22rpY"], "asm": "OP_HASH160 14ee593bd6ae8db4662d8e57a0367922b8fd2579 OP_EQUAL", "type": "scripthash"}, "value": 0.01001336, "n": 0}, {"scriptPubKey": {"reqSigs": 1, "hex": "a914add7b3b437522c1bfef7fd01194318f5e757324c87", "addresses": ["3HYDDxygGnSjeNUcddNY72odpUhD3syYEq"], "asm": "OP_HASH160 add7b3b437522c1bfef7fd01194318f5e757324c OP_EQUAL", "type": "scripthash"}, "value": 0.0038, "n": 1}], "hex": "02000000025836e67a45eabb377cfbab2f59c910ff83997f171b62d7c80f71f902f32d6db5000000006a473044022035a6bd166aa7732e2084f0ae24d42f4088fff369876e36fdc14e1b62560330a402200ed737f2b5f8c3cbeb06b0d24e3ea0eb3ac06c007b8f42df63b499a610d85c4d01210330c69a49cce2534c420c15f804b5af32ae6dd4bc21e502988943b95860767e75feffffff995981a974e75a266f6f173ed22f673c017e62f340c2fa557709e55df0fb7e5c010000006b483045022100f9fa038b5a5ac152b8453f9d3602cc774aa0b0bac9918f0091fe2b3a38f1be49022032c69a304154579db031ec14b093d64d8d2aee4590735a859b44173d0e2ec750012102ad5eeffdb9b0b7db08049c56f535db2135e789043a6919c7557f31933e39cbd8feffffff0278470f000000000017a91414ee593bd6ae8db4662d8e57a0367922b8fd25798760cc05000000000017a914add7b3b437522c1bfef7fd01194318f5e757324c8715490800", "vin": [{"sequence": 4294967294, "scriptSig": {"hex": "473044022035a6bd166aa7732e2084f0ae24d42f4088fff369876e36fdc14e1b62560330a402200ed737f2b5f8c3cbeb06b0d24e3ea0eb3ac06c007b8f42df63b499a610d85c4d01210330c69a49cce2534c420c15f804b5af32ae6dd4bc21e502988943b95860767e75", "asm": "3044022035a6bd166aa7732e2084f0ae24d42f4088fff369876e36fdc14e1b62560330a402200ed737f2b5f8c3cbeb06b0d24e3ea0eb3ac06c007b8f42df63b499a610d85c4d[ALL] 0330c69a49cce2534c420c15f804b5af32ae6dd4bc21e502988943b95860767e75"}, "vout": 0, "txid": "b56d2df302f9710fc8d7621b177f9983ff10c9592fabfb7c37bbea457ae63658"}, {"sequence": 4294967294, "scriptSig": {"hex": "483045022100f9fa038b5a5ac152b8453f9d3602cc774aa0b0bac9918f0091fe2b3a38f1be49022032c69a304154579db031ec14b093d64d8d2aee4590735a859b44173d0e2ec750012102ad5eeffdb9b0b7db08049c56f535db2135e789043a6919c7557f31933e39cbd8", "asm": "3045022100f9fa038b5a5ac152b8453f9d3602cc774aa0b0bac9918f0091fe2b3a38f1be49022032c69a304154579db031ec14b093d64d8d2aee4590735a859b44173d0e2ec750[ALL] 02ad5eeffdb9b0b7db08049c56f535db2135e789043a6919c7557f31933e39cbd8"}, "vout": 1, "txid": "5c7efbf05de5097755fac240f3627e013c672fd23e176f6f265ae774a9815999"}], "txid": "7b5222e681a9907f750adddffa5d5abf4f58ec16b78ec8834b9438117c0770df", "blocktime": 1537874412, "version": 2, "confirmations": 11466, "time": 1537874412, "locktime": 542997, "vsize": 369, "size": 369}