{"hash": "7b574195b145999174a61fdfa7c37067634185dc8829e0064b762c05e2042475", "blockhash": "00000000000000000004ffacab907a6b429b9a5745fa0b75af4234bf69dd7176", "vout": [{"scriptPubKey": {"reqSigs": 1, "hex": "76a91413a56482366330d1543f990852e511cecc28c9e588ac", "addresses": ["12nsyKr1hJStGJMSm6oonMQPvBK1FWZXAn"], "asm": "OP_DUP OP_HASH160 13a56482366330d1543f990852e511cecc28c9e5 OP_EQUALVERIFY OP_CHECKSIG", "type": "pubkeyhash"}, "value": 0.00020344, "n": 0}, {"scriptPubKey": {"reqSigs": 1, "hex": "a914cdb19aaa255433566a3ca854d729576b265a213b87", "addresses": ["3LSdD2FBnheZCfZJoCpfhT5QzGMKSXk4gr"], "asm": "OP_HASH160 cdb19aaa255433566a3ca854d729576b265a213b OP_EQUAL", "type": "scripthash"}, "value": 0.0156248, "n": 1}], "hex": "01000000016113dcf092f123377aed1f804c81051bd513a446ab0b831caf99d6ac0118a13d020000006a473044022025e76c646ebf75f3e03f72b9111a3bcc628eabb82db5577168590e9fb857dc4a02207ee1add41a732a913bb55bbeabb905f8f17b9037a44e9208a2d0c9c37f18371a012103fc383ae0b981547364fa0daf2fc34a8400dd68954e28c1c6089d41d512041fb1ffffffff02784f0000000000001976a91413a56482366330d1543f990852e511cecc28c9e588ac70d717000000000017a914cdb19aaa255433566a3ca854d729576b265a213b8700000000", "vin": [{"sequence": 4294967295, "scriptSig": {"hex": "473044022025e76c646ebf75f3e03f72b9111a3bcc628eabb82db5577168590e9fb857dc4a02207ee1add41a732a913bb55bbeabb905f8f17b9037a44e9208a2d0c9c37f18371a012103fc383ae0b981547364fa0daf2fc34a8400dd68954e28c1c6089d41d512041fb1", "asm": "3044022025e76c646ebf75f3e03f72b9111a3bcc628eabb82db5577168590e9fb857dc4a02207ee1add41a732a913bb55bbeabb905f8f17b9037a44e9208a2d0c9c37f18371a[ALL] 03fc383ae0b981547364fa0daf2fc34a8400dd68954e28c1c6089d41d512041fb1"}, "vout": 2, "txid": "3da11801acd699af1c830bab46a413d51b05814c801fed7a3723f192f0dc1361"}], "txid": "7b574195b145999174a61fdfa7c37067634185dc8829e0064b762c05e2042475", "blocktime": 1537875543, "version": 1, "confirmations": 11464, "time": 1537875543, "locktime": 0, "vsize": 223, "size": 223}