{"hash": "c400a84e0e124c05f0abc529c25ab3c38b0725c814325a4ae247953253031cd5", "blockhash": "0000000000000000001cda96e906b7601b7a6fb1a3b62bca570a9e5d8f4b3de1", "vout": [{"scriptPubKey": {"reqSigs": 1, "hex": "76a914f1eedb44830b3290348a2c9e2831f639bd1ac94188ac", "addresses": ["1P4DzGpJjFe4E9aHHDM3LomYCbjAZP7gja"], "asm": "OP_DUP OP_HASH160 f1eedb44830b3290348a2c9e2831f639bd1ac941 OP_EQUALVERIFY OP_CHECKSIG", "type": "pubkeyhash"}, "value": 0.0045846, "n": 0}, {"scriptPubKey": {"reqSigs": 1, "hex": "a914721242395035e70aa9629f2bb43e26d54fd661f387", "addresses": ["3C6Aq3kXLMM5P7NUVdjy6L28bkq4XvL2dK"], "asm": "OP_HASH160 721242395035e70aa9629f2bb43e26d54fd661f3 OP_EQUAL", "type": "scripthash"}, "value": 0.00999847, "n": 1}], "hex": "02000000000102905ca56b36a414ddcc58301aea2ed7bdee40d1433831696681806b3a09a655740000000017160014be0cdb733cf9863d9bc4a9fd74bbe2defea4468ffeffffffe530becb0bf24fdbbfd81260954dc5733f60fddd68741ba5e69b5962afa28e900900000017160014c85b417bb48cb7bbe0240f5b87f8ea1dfde4155dfeffffff02dcfe0600000000001976a914f1eedb44830b3290348a2c9e2831f639bd1ac94188aca7410f000000000017a914721242395035e70aa9629f2bb43e26d54fd661f38702483045022100a86c554d3c5f2fc907292a415b86512e7493c4b02aba43e793bacf1848776f4702201267f9d7a856fbe64b60c7c8614b4dd6118df45210e6f6a3c980d8c11a8444850121029cfcfbcf2ba968338d9f5d95bd24b6ea54071ca854bfa0c0f4ac7f639f09f79e02483045022100bf05e7b63f505ba2b4031f5127a504e1d0a6b97e93461ca5c33c8d37b5c6b3f402202ed03737dd4b77928f166ffadec7ed859cf044a6371c841d86189bb8d02c580d01210374021774470fd81496374e705fe3bf1a87bc3f5dfe7a2e09ead4ce68afcc1ee813490800", "vin": [{"txinwitness": ["3045022100a86c554d3c5f2fc907292a415b86512e7493c4b02aba43e793bacf1848776f4702201267f9d7a856fbe64b60c7c8614b4dd6118df45210e6f6a3c980d8c11a84448501", "029cfcfbcf2ba968338d9f5d95bd24b6ea54071ca854bfa0c0f4ac7f639f09f79e"], "sequence": 4294967294, "scriptSig": {"hex": "160014be0cdb733cf9863d9bc4a9fd74bbe2defea4468f", "asm": "0014be0cdb733cf9863d9bc4a9fd74bbe2defea4468f"}, "vout": 0, "txid": "7455a6093a6b80816669313843d140eebdd72eea1a3058ccdd14a4366ba55c90"}, {"txinwitness": ["3045022100bf05e7b63f505ba2b4031f5127a504e1d0a6b97e93461ca5c33c8d37b5c6b3f402202ed03737dd4b77928f166ffadec7ed859cf044a6371c841d86189bb8d02c580d01", "0374021774470fd81496374e705fe3bf1a87bc3f5dfe7a2e09ead4ce68afcc1ee8"], "sequence": 4294967294, "scriptSig": {"hex": "160014c85b417bb48cb7bbe0240f5b87f8ea1dfde4155d", "asm": "0014c85b417bb48cb7bbe0240f5b87f8ea1dfde4155d"}, "vout": 9, "txid": "908ea2af62599be6a51b7468ddfd603f73c54d956012d8bfdb4ff20bcbbe30e5"}], "txid": "7b5fcc7bbb8b8921d875fed6a1953a2799b22d3a8709dead1b7c4e8fe1f7be5d", "blocktime": 1537873282, "version": 2, "confirmations": 11485, "time": 1537873282, "locktime": 542995, "vsize": 259, "size": 422}