{"hash": "9c435d30b7853fb66960014694a1defff8342924ed2ac848a2ee46339fbe4bbc", "blockhash": "00000000000000000018f53835495a110e01622372bf6ae95dc86f2b0ab887b0", "vout": [{"scriptPubKey": {"reqSigs": 1, "hex": "a914813a9836bfce46f930c4741b6698cf5037e62df187", "addresses": ["3DUKHWi8xvcuwVT3JfXMCo65NvqZM7UgvK"], "asm": "OP_HASH160 813a9836bfce46f930c4741b6698cf5037e62df1 OP_EQUAL", "type": "scripthash"}, "value": 0.00031233, "n": 0}, {"scriptPubKey": {"reqSigs": 1, "hex": "a914632c90f90d571384f9d36278354608a7db03844387", "addresses": ["3AjQD4BwCTCeWMyryyKwWZQG3dPbhEWnNS"], "asm": "OP_HASH160 632c90f90d571384f9d36278354608a7db038443 OP_EQUAL", "type": "scripthash"}, "value": 0.02051184, "n": 1}], "hex": "01000000000101c960a1b678add167d5b6d93bdc6eb97cd0661a95980dc09572e8a2dabe1807400100000017160014530b2e73c84dc67bf4a5f29af260b459c0046ef9ffffff0002017a00000000000017a914813a9836bfce46f930c4741b6698cf5037e62df187704c1f000000000017a914632c90f90d571384f9d36278354608a7db038443870247304402206e9541ef377c0470390d436b45dcb49e48083fecd19402dd9e5b27db5fe0452d02207a0eca3499ea8cf0b9df2bbab13174ba2bc97ca35c24bdfa43d8a1eff2bf8e850121031de0fb5148cc409f695d9943bee283b4b7c53e3ec26d2b20d42fa56f60efa04800000000", "vin": [{"txinwitness": ["304402206e9541ef377c0470390d436b45dcb49e48083fecd19402dd9e5b27db5fe0452d02207a0eca3499ea8cf0b9df2bbab13174ba2bc97ca35c24bdfa43d8a1eff2bf8e8501", "031de0fb5148cc409f695d9943bee283b4b7c53e3ec26d2b20d42fa56f60efa048"], "sequence": 16777215, "scriptSig": {"hex": "160014530b2e73c84dc67bf4a5f29af260b459c0046ef9", "asm": "0014530b2e73c84dc67bf4a5f29af260b459c0046ef9"}, "vout": 1, "txid": "400718bedaa2e87295c00d98951a66d07cb96edc3bd9b6d567d1ad78b6a160c9"}], "txid": "7b68ba80bc3e46e0ddecba7fc6f2777f5731ad7d3b6cb5d0325aad8197cc9c33", "blocktime": 1537870928, "version": 1, "confirmations": 11514, "time": 1537870928, "locktime": 0, "vsize": 166, "size": 247}