{"hash": "7b6d6dfcd6d64896a7891cabd58c81b977998bd2c0301c16e651eefbf8d0ceea", "blockhash": "00000000000000000004ffacab907a6b429b9a5745fa0b75af4234bf69dd7176", "vout": [{"scriptPubKey": {"reqSigs": 1, "hex": "76a914bb79c53a5e86d73af6304abfb2048abbcf7fe87588ac", "addresses": ["1J6HEdWjc58cdsb8ZJcXpTZChfXJLnQTaF"], "asm": "OP_DUP OP_HASH160 bb79c53a5e86d73af6304abfb2048abbcf7fe875 OP_EQUALVERIFY OP_CHECKSIG", "type": "pubkeyhash"}, "value": 0.0147818, "n": 0}, {"scriptPubKey": {"reqSigs": 1, "hex": "76a914f15d9cec25c7b842b396845bc398db1c0070e52d88ac", "addresses": ["1P1DzaLwj3jMsQ37wZza6F9RBmjRfRbFRz"], "asm": "OP_DUP OP_HASH160 f15d9cec25c7b842b396845bc398db1c0070e52d OP_EQUALVERIFY OP_CHECKSIG", "type": "pubkeyhash"}, "value": 0.002, "n": 1}], "hex": "02000000012c40ab6b13574605ba84d64fd5fe21fe1d472f05ab86cb6c3fbc787d8e45f4a4000000006b483045022100900dd8d4eefad090e30fc9a749fa5ff21f56ce7d3565a7e9300cbb2e98a962440220611ad47f4290b56cdc39b8981c33b4dfe75efa1385a8aa3160494437f96eaab4012102929551887dcb52b2f41320f0401f89459341b33d09fc3a4168aa20cbf88305d1feffffff02248e1600000000001976a914bb79c53a5e86d73af6304abfb2048abbcf7fe87588ac400d0300000000001976a914f15d9cec25c7b842b396845bc398db1c0070e52d88acbd480800", "vin": [{"sequence": 4294967294, "scriptSig": {"hex": "483045022100900dd8d4eefad090e30fc9a749fa5ff21f56ce7d3565a7e9300cbb2e98a962440220611ad47f4290b56cdc39b8981c33b4dfe75efa1385a8aa3160494437f96eaab4012102929551887dcb52b2f41320f0401f89459341b33d09fc3a4168aa20cbf88305d1", "asm": "3045022100900dd8d4eefad090e30fc9a749fa5ff21f56ce7d3565a7e9300cbb2e98a962440220611ad47f4290b56cdc39b8981c33b4dfe75efa1385a8aa3160494437f96eaab4[ALL] 02929551887dcb52b2f41320f0401f89459341b33d09fc3a4168aa20cbf88305d1"}, "vout": 0, "txid": "a4f4458e7d78bc3f6ccb86ab052f471dfe21fed54fd684ba054657136bab402c"}], "txid": "7b6d6dfcd6d64896a7891cabd58c81b977998bd2c0301c16e651eefbf8d0ceea", "blocktime": 1537875543, "version": 2, "confirmations": 11464, "time": 1537875543, "locktime": 542909, "vsize": 226, "size": 226}