{"hash": "7b720a2b380ff35906f40150553c3fecda1b3b68007ff8cbfca708235c4d54f3", "blockhash": "00000000000000000004ffacab907a6b429b9a5745fa0b75af4234bf69dd7176", "vout": [{"scriptPubKey": {"reqSigs": 1, "hex": "a914c0d7d79fd804381046d9ddd7e8863a402254738187", "addresses": ["3KGgEMq1dwZ9CduVv3Vx2XxHqxahPMdrio"], "asm": "OP_HASH160 c0d7d79fd804381046d9ddd7e8863a4022547381 OP_EQUAL", "type": "scripthash"}, "value": 0.004, "n": 0}, {"scriptPubKey": {"reqSigs": 1, "hex": "76a9145bad74525ffab1dd087b07acccd8760ac9d6f3d688ac", "addresses": ["19MkHH9EFdF4BzX3XofMrRz5WKrcR63pEY"], "asm": "OP_DUP OP_HASH160 5bad74525ffab1dd087b07acccd8760ac9d6f3d6 OP_EQUALVERIFY OP_CHECKSIG", "type": "pubkeyhash"}, "value": 0.02203004, "n": 1}], "hex": "0100000001cd540976fd5b40f484e4372e38b06c68b668040c17a17b5ad6d9ca9333425cd5010000006b483045022100c9917c809a29f936b1691d71b2f58ef72ee5398e2b5cb8dec79e0743738e80f00220657c343724d3fbac7295273b66ee0f08d503a3eeee729652b9604d618e1ad8340121036f5d98692350291eb83834f82f237e12fb116c0a08bfc63db292e263129ac20bffffffff02801a06000000000017a914c0d7d79fd804381046d9ddd7e8863a4022547381877c9d2100000000001976a9145bad74525ffab1dd087b07acccd8760ac9d6f3d688ac00000000", "vin": [{"sequence": 4294967295, "scriptSig": {"hex": "483045022100c9917c809a29f936b1691d71b2f58ef72ee5398e2b5cb8dec79e0743738e80f00220657c343724d3fbac7295273b66ee0f08d503a3eeee729652b9604d618e1ad8340121036f5d98692350291eb83834f82f237e12fb116c0a08bfc63db292e263129ac20b", "asm": "3045022100c9917c809a29f936b1691d71b2f58ef72ee5398e2b5cb8dec79e0743738e80f00220657c343724d3fbac7295273b66ee0f08d503a3eeee729652b9604d618e1ad834[ALL] 036f5d98692350291eb83834f82f237e12fb116c0a08bfc63db292e263129ac20b"}, "vout": 1, "txid": "d55c423393cad9d65a7ba1170c0468b6686cb0382e37e484f4405bfd760954cd"}], "txid": "7b720a2b380ff35906f40150553c3fecda1b3b68007ff8cbfca708235c4d54f3", "blocktime": 1537875543, "version": 1, "confirmations": 11464, "time": 1537875543, "locktime": 0, "vsize": 224, "size": 224}