{"hash": "8fa1c3302c9b1931b71590d53cb2bc777a486b5fb93aac9bb2c9eef36ec47d51", "blockhash": "0000000000000000001cda96e906b7601b7a6fb1a3b62bca570a9e5d8f4b3de1", "vout": [{"scriptPubKey": {"type": "nulldata", "hex": "6a146f6d6e69000000000000001f0000005289d8b900", "asm": "OP_RETURN 6f6d6e69000000000000001f0000005289d8b900"}, "value": 0.0, "n": 0}, {"scriptPubKey": {"reqSigs": 1, "hex": "76a9144c92496353ac05d7633906ab7e39ebeea657248b88ac", "addresses": ["17ysbkohnGwFZ72WperQLwy2wg6E4sK1iL"], "asm": "OP_DUP OP_HASH160 4c92496353ac05d7633906ab7e39ebeea657248b OP_EQUALVERIFY OP_CHECKSIG", "type": "pubkeyhash"}, "value": 2.73e-05, "n": 1}, {"scriptPubKey": {"reqSigs": 1, "hex": "a914e818e90b8e6b38dba66f74b35cb708bbc73e2ea787", "addresses": ["3NrEXrB9qAxXYfRt6jKtBD8QzoU2qtNWDR"], "asm": "OP_HASH160 e818e90b8e6b38dba66f74b35cb708bbc73e2ea7 OP_EQUAL", "type": "scripthash"}, "value": 25.05459715, "n": 2}], "hex": "01000000000102fe3072a92f2f226e0224c9db69076b23f3432fdc3ad91298b2b336a5774a625c0100000017160014000b814f2c1a19852357ed615a08ec572a781ed1ffffffff6358d69a7f381e025234710094dd5c42cf6bff91a6cabc890c72d8ec4294095c0200000017160014000b814f2c1a19852357ed615a08ec572a781ed1ffffffff030000000000000000166a146f6d6e69000000000000001f0000005289d8b900aa0a0000000000001976a9144c92496353ac05d7633906ab7e39ebeea657248b88ac034856950000000017a914e818e90b8e6b38dba66f74b35cb708bbc73e2ea7870247304402205c004100078932e231e2f792a9e8adf8cf445704219987e78a6ea4256db5c93602207f72f365cb389bd36671fa41e1e40c193949955266550bb51b2ac60beb8fb167012102aad79950b2c2af3689e8644c89e9d10dff06c2d8926200496b92e9f7ccb0304c02483045022100db99ef2eae514102ef7a5d47d9d3b445a0f3e440fed185bd65aaeb63fb6053ba02203442f7716bec6f8e158109f4d95bc751fcbf846b28e73727e320d3d0452a9260012102aad79950b2c2af3689e8644c89e9d10dff06c2d8926200496b92e9f7ccb0304c00000000", "vin": [{"txinwitness": ["304402205c004100078932e231e2f792a9e8adf8cf445704219987e78a6ea4256db5c93602207f72f365cb389bd36671fa41e1e40c193949955266550bb51b2ac60beb8fb16701", "02aad79950b2c2af3689e8644c89e9d10dff06c2d8926200496b92e9f7ccb0304c"], "sequence": 4294967295, "scriptSig": {"hex": "160014000b814f2c1a19852357ed615a08ec572a781ed1", "asm": "0014000b814f2c1a19852357ed615a08ec572a781ed1"}, "vout": 1, "txid": "5c624a77a536b3b29812d93adc2f43f3236b0769dbc924026e222f2fa97230fe"}, {"txinwitness": ["3045022100db99ef2eae514102ef7a5d47d9d3b445a0f3e440fed185bd65aaeb63fb6053ba02203442f7716bec6f8e158109f4d95bc751fcbf846b28e73727e320d3d0452a926001", "02aad79950b2c2af3689e8644c89e9d10dff06c2d8926200496b92e9f7ccb0304c"], "sequence": 4294967295, "scriptSig": {"hex": "160014000b814f2c1a19852357ed615a08ec572a781ed1", "asm": "0014000b814f2c1a19852357ed615a08ec572a781ed1"}, "vout": 2, "txid": "5c099442ecd8720c89bccaa691ff6bcf425cdd9400713452021e387f9ad65863"}], "txid": "7b73d24f1030e25d4bf0967509f091bf9d2567c9119e79d5be22478588006107", "blocktime": 1537873282, "version": 1, "confirmations": 11484, "time": 1537873282, "locktime": 0, "vsize": 290, "size": 452}