{"hash": "7b789f097f260ac9a28fe72330d899c08b4452bb8301fd36371533565d257bda", "blockhash": "0000000000000000001f76057863aec43deb6fa401d9628bb513d65a8098bfab", "vout": [{"scriptPubKey": {"reqSigs": 1, "hex": "76a9148f75804a24cb0988fcb378d51d976554af406e9988ac", "addresses": ["1E5YPZ6v4ZvHnqQkAexNXp5GtFwXUK5oBH"], "asm": "OP_DUP OP_HASH160 8f75804a24cb0988fcb378d51d976554af406e99 OP_EQUALVERIFY OP_CHECKSIG", "type": "pubkeyhash"}, "value": 0.0019473, "n": 0}, {"scriptPubKey": {"reqSigs": 1, "hex": "a914f124b9ecc213a7574dd6946f1424f1df1dc4345f87", "addresses": ["3Pg4mZUjDvoveBRER6jmvQQmSS3Crri7qF"], "asm": "OP_HASH160 f124b9ecc213a7574dd6946f1424f1df1dc4345f OP_EQUAL", "type": "scripthash"}, "value": 0.0536096, "n": 1}], "hex": "0100000003d57ea073056adf48d093337ee265776921eab67f9ad275aa9dcc3eaa4154875d010000006a47304402206c11f0649eaf54177d50d31d46377cdc2a9b2c60544b4f82de6e6a4efc2aa28802205596b8b103848d19d4bbad4d5e25d6c14dca76e8bf0b834dcccf5bb81bbf4ace012102c4ed29c68b7429a25a21b532172af34215e1500eff62cf124d90ebb3d4d1c95affffffff7fde6a3b2d04b06740fd4bfd94737404319d56de07e8e2fe90db53254f37bec8010000006b48304502210091849827c606015d0ab5fd2a5af1de25987bb085e0cc437795caadf8cc136c1b022045525dd37bb45c8397cd3f09d41dfce5666f0d6b6efc70a41bf88950e5035778012103386542b1327f2c94201c32ee21a368054203fdc4aed7fd6d81021cebc8536ccbffffffff7fb18c2a6485640069dd7ebed1128c843fd60b0f3f29eaa20f91c0e2e80628d0000000006b4830450221008c27f5bfb8f7012f57bbd5f60865cb870efb5b32b16e2df833789d00ea201a2002206ff7745de69c0c249277a516aa6b489e6e83fbeea428295a5558b0ed8dc674bf0121036d17467fd7ce73e2c02d3fe837a6f3123bfb194ef6777c65a65061e8ee829bf4ffffffff02aaf80200000000001976a9148f75804a24cb0988fcb378d51d976554af406e9988ac40cd51000000000017a914f124b9ecc213a7574dd6946f1424f1df1dc4345f8700000000", "vin": [{"sequence": 4294967295, "scriptSig": {"hex": "47304402206c11f0649eaf54177d50d31d46377cdc2a9b2c60544b4f82de6e6a4efc2aa28802205596b8b103848d19d4bbad4d5e25d6c14dca76e8bf0b834dcccf5bb81bbf4ace012102c4ed29c68b7429a25a21b532172af34215e1500eff62cf124d90ebb3d4d1c95a", "asm": "304402206c11f0649eaf54177d50d31d46377cdc2a9b2c60544b4f82de6e6a4efc2aa28802205596b8b103848d19d4bbad4d5e25d6c14dca76e8bf0b834dcccf5bb81bbf4ace[ALL] 02c4ed29c68b7429a25a21b532172af34215e1500eff62cf124d90ebb3d4d1c95a"}, "vout": 1, "txid": "5d875441aa3ecc9daa75d29a7fb6ea21697765e27e3393d048df6a0573a07ed5"}, {"sequence": 4294967295, "scriptSig": {"hex": "48304502210091849827c606015d0ab5fd2a5af1de25987bb085e0cc437795caadf8cc136c1b022045525dd37bb45c8397cd3f09d41dfce5666f0d6b6efc70a41bf88950e5035778012103386542b1327f2c94201c32ee21a368054203fdc4aed7fd6d81021cebc8536ccb", "asm": "304502210091849827c606015d0ab5fd2a5af1de25987bb085e0cc437795caadf8cc136c1b022045525dd37bb45c8397cd3f09d41dfce5666f0d6b6efc70a41bf88950e5035778[ALL] 03386542b1327f2c94201c32ee21a368054203fdc4aed7fd6d81021cebc8536ccb"}, "vout": 1, "txid": "c8be374f2553db90fee2e807de569d3104747394fd4bfd4067b0042d3b6ade7f"}, {"sequence": 4294967295, "scriptSig": {"hex": "4830450221008c27f5bfb8f7012f57bbd5f60865cb870efb5b32b16e2df833789d00ea201a2002206ff7745de69c0c249277a516aa6b489e6e83fbeea428295a5558b0ed8dc674bf0121036d17467fd7ce73e2c02d3fe837a6f3123bfb194ef6777c65a65061e8ee829bf4", "asm": "30450221008c27f5bfb8f7012f57bbd5f60865cb870efb5b32b16e2df833789d00ea201a2002206ff7745de69c0c249277a516aa6b489e6e83fbeea428295a5558b0ed8dc674bf[ALL] 036d17467fd7ce73e2c02d3fe837a6f3123bfb194ef6777c65a65061e8ee829bf4"}, "vout": 0, "txid": "d02806e8e2c0910fa2ea293f0f0bd63f848c12d1be7edd69006485642a8cb17f"}], "txid": "7b789f097f260ac9a28fe72330d899c08b4452bb8301fd36371533565d257bda", "blocktime": 1537873891, "version": 1, "confirmations": 11474, "time": 1537873891, "locktime": 0, "vsize": 519, "size": 519}