{"hash": "7b7b1db4d476ba66c6af26a2015a4e54d08c31eedea253866f7f442094db214e", "blockhash": "0000000000000000001cda96e906b7601b7a6fb1a3b62bca570a9e5d8f4b3de1", "vout": [{"scriptPubKey": {"reqSigs": 1, "hex": "a9142996425f5dae99016c75b2e7b8dd970cd34c4d3887", "addresses": ["35Uudc5zHJmbPW7g5MbDdgwEAvpKKWDAWW"], "asm": "OP_HASH160 2996425f5dae99016c75b2e7b8dd970cd34c4d38 OP_EQUAL", "type": "scripthash"}, "value": 0.0067188, "n": 0}, {"scriptPubKey": {"reqSigs": 1, "hex": "76a91435548da4c0cb0e561cb359fc82c919fbe79ca7a388ac", "addresses": ["15rz72urtXLXK5JdLcnxy25HhnvM8zhCEH"], "asm": "OP_DUP OP_HASH160 35548da4c0cb0e561cb359fc82c919fbe79ca7a3 OP_EQUALVERIFY OP_CHECKSIG", "type": "pubkeyhash"}, "value": 0.00010899, "n": 1}], "hex": "01000000035811c528c72b211d52d6fb0a469bfb26fe0151c611acfbb36b21c138949dcc1b00000000da00483045022100e0a12dd7addf965a9580edb70b6e563417873811ebf8e50e6b29a26dd5417096022011ddef06185bc36ac51075f6462702116a1ac3b76a31a40748b9e76073d1a353014730440220034bfd8d39d1f42a1bbc63d6b1557a5ad1754c96d8c676c6c26e53fede77ec0802205efd9f9e9ba75b0fd912d7d391464978eb3d495c63f434b3389edc9d72a921710147522102907a54bed8ad74b3f35638c60114ca240a308cb986f3f2f306178869a8880b612103773767276f04ff0d3c12be659376c8d5b48191fc5abb759a644f147f8ec0381c52aeffffffff9dc0f5cc0a02a4a8b2847829433b1ebd1306b69d83024e8c9337d7b49c6772db00000000db00483045022100f6e82d8daebd431b73e25d242607b4f19e72a47feca7a442eea28054089e5147022070bd438ae42843f07e1c90abb1c9e312bb6306cebb66da6c1a724b836f01221701483045022100d074563ee031bf4e8938b0ba8a07203ee033f15c40d80b5c248f07ab3576928802200351335f0d56e4174edef250903411267db71e873e3bc257e473a091afb91dd80147522102907a54bed8ad74b3f35638c60114ca240a308cb986f3f2f306178869a8880b61210328222459a659e0b87b46cdb337f292ae9a2e4c9f844eb7c8720c64ff705abe3652aeffffffff7d8283df779e9b7c45329311a0be34ef230735b588e8a6b301e1a14dccedbe17020000006b483045022100d6407d74fa6563c9ed7231ae61e8e9c9b7e4e21307fa5985c192111ae8c4bc5c022004952b7b434ea168126f7c2f9e60fa4c3aecfddc75709ea9331dc759eb20563f0121031280ef61b69663e87e6ebf6aa277343a8d8bb453365a71d20c71e427d224c9c7ffffffff0288400a000000000017a9142996425f5dae99016c75b2e7b8dd970cd34c4d3887932a0000000000001976a91435548da4c0cb0e561cb359fc82c919fbe79ca7a388ac00000000", "vin": [{"sequence": 4294967295, "scriptSig": {"hex": "00483045022100e0a12dd7addf965a9580edb70b6e563417873811ebf8e50e6b29a26dd5417096022011ddef06185bc36ac51075f6462702116a1ac3b76a31a40748b9e76073d1a353014730440220034bfd8d39d1f42a1bbc63d6b1557a5ad1754c96d8c676c6c26e53fede77ec0802205efd9f9e9ba75b0fd912d7d391464978eb3d495c63f434b3389edc9d72a921710147522102907a54bed8ad74b3f35638c60114ca240a308cb986f3f2f306178869a8880b612103773767276f04ff0d3c12be659376c8d5b48191fc5abb759a644f147f8ec0381c52ae", "asm": "0 3045022100e0a12dd7addf965a9580edb70b6e563417873811ebf8e50e6b29a26dd5417096022011ddef06185bc36ac51075f6462702116a1ac3b76a31a40748b9e76073d1a353[ALL] 30440220034bfd8d39d1f42a1bbc63d6b1557a5ad1754c96d8c676c6c26e53fede77ec0802205efd9f9e9ba75b0fd912d7d391464978eb3d495c63f434b3389edc9d72a92171[ALL] 522102907a54bed8ad74b3f35638c60114ca240a308cb986f3f2f306178869a8880b612103773767276f04ff0d3c12be659376c8d5b48191fc5abb759a644f147f8ec0381c52ae"}, "vout": 0, "txid": "1bcc9d9438c1216bb3fbac11c65101fe26fb9b460afbd6521d212bc728c51158"}, {"sequence": 4294967295, "scriptSig": {"hex": "00483045022100f6e82d8daebd431b73e25d242607b4f19e72a47feca7a442eea28054089e5147022070bd438ae42843f07e1c90abb1c9e312bb6306cebb66da6c1a724b836f01221701483045022100d074563ee031bf4e8938b0ba8a07203ee033f15c40d80b5c248f07ab3576928802200351335f0d56e4174edef250903411267db71e873e3bc257e473a091afb91dd80147522102907a54bed8ad74b3f35638c60114ca240a308cb986f3f2f306178869a8880b61210328222459a659e0b87b46cdb337f292ae9a2e4c9f844eb7c8720c64ff705abe3652ae", "asm": "0 3045022100f6e82d8daebd431b73e25d242607b4f19e72a47feca7a442eea28054089e5147022070bd438ae42843f07e1c90abb1c9e312bb6306cebb66da6c1a724b836f012217[ALL] 3045022100d074563ee031bf4e8938b0ba8a07203ee033f15c40d80b5c248f07ab3576928802200351335f0d56e4174edef250903411267db71e873e3bc257e473a091afb91dd8[ALL] 522102907a54bed8ad74b3f35638c60114ca240a308cb986f3f2f306178869a8880b61210328222459a659e0b87b46cdb337f292ae9a2e4c9f844eb7c8720c64ff705abe3652ae"}, "vout": 0, "txid": "db72679cb4d737938c4e02839db60613bd1e3b43297884b2a8a4020accf5c09d"}, {"sequence": 4294967295, "scriptSig": {"hex": "483045022100d6407d74fa6563c9ed7231ae61e8e9c9b7e4e21307fa5985c192111ae8c4bc5c022004952b7b434ea168126f7c2f9e60fa4c3aecfddc75709ea9331dc759eb20563f0121031280ef61b69663e87e6ebf6aa277343a8d8bb453365a71d20c71e427d224c9c7", "asm": "3045022100d6407d74fa6563c9ed7231ae61e8e9c9b7e4e21307fa5985c192111ae8c4bc5c022004952b7b434ea168126f7c2f9e60fa4c3aecfddc75709ea9331dc759eb20563f[ALL] 031280ef61b69663e87e6ebf6aa277343a8d8bb453365a71d20c71e427d224c9c7"}, "vout": 2, "txid": "17beedcc4da1e101b3a6e888b5350723ef34bea0119332457c9b9e77df83827d"}], "txid": "7b7b1db4d476ba66c6af26a2015a4e54d08c31eedea253866f7f442094db214e", "blocktime": 1537873282, "version": 1, "confirmations": 11484, "time": 1537873282, "locktime": 0, "vsize": 743, "size": 743}