{"hash": "7b7f6e12dc5e84cdf1a614fb5e7053319238aeefe3a20e45240a481568d2e9d2", "blockhash": "0000000000000000000e13cef7c366c0283d82e591d1acd082e914b08063cdf1", "vout": [{"scriptPubKey": {"type": "nulldata", "hex": "6a4c50000077a6000180404a80dbc9af1eaeb491f9af6c953dd567cf27e7e3ef3236678a6250977f07dfeca2ad31ae70aa8be3759bed0d5baa0f6006145fadded470d64bbf23acfcfaac8058b692fe6808c31d", "asm": "OP_RETURN 000077a6000180404a80dbc9af1eaeb491f9af6c953dd567cf27e7e3ef3236678a6250977f07dfeca2ad31ae70aa8be3759bed0d5baa0f6006145fadded470d64bbf23acfcfaac8058b692fe6808c31d"}, "value": 0.0, "n": 0}, {"scriptPubKey": {"reqSigs": 1, "hex": "76a914f095431326036c53e9efd5ab819c91cddd01416588ac", "addresses": ["1Nw5ywr7eHnNhJ9n1YjGk3y66MbcZ81ENM"], "asm": "OP_DUP OP_HASH160 f095431326036c53e9efd5ab819c91cddd014165 OP_EQUALVERIFY OP_CHECKSIG", "type": "pubkeyhash"}, "value": 0.00022169, "n": 1}], "hex": "010000000129687ebc2c3e5a247a618827d492fb81b04c6ed4523e753c23f2a29254805053000000006a4730440220601701a4c7b9a896636af3211888f2fa99ae379f0838d9f4fd57ab0e58076a7b022021acd375eb3bcd655847e91a83b86aa7f51bf6d04623a8695b78965915f00752012102e981cd62ae08fbd39903592aee38e9b38d3eff5d17c78ddfb96cc1058c166fdaffffffff020000000000000000536a4c50000077a6000180404a80dbc9af1eaeb491f9af6c953dd567cf27e7e3ef3236678a6250977f07dfeca2ad31ae70aa8be3759bed0d5baa0f6006145fadded470d64bbf23acfcfaac8058b692fe6808c31d99560000000000001976a914f095431326036c53e9efd5ab819c91cddd01416588ac00000000", "vin": [{"sequence": 4294967295, "scriptSig": {"hex": "4730440220601701a4c7b9a896636af3211888f2fa99ae379f0838d9f4fd57ab0e58076a7b022021acd375eb3bcd655847e91a83b86aa7f51bf6d04623a8695b78965915f00752012102e981cd62ae08fbd39903592aee38e9b38d3eff5d17c78ddfb96cc1058c166fda", "asm": "30440220601701a4c7b9a896636af3211888f2fa99ae379f0838d9f4fd57ab0e58076a7b022021acd375eb3bcd655847e91a83b86aa7f51bf6d04623a8695b78965915f00752[ALL] 02e981cd62ae08fbd39903592aee38e9b38d3eff5d17c78ddfb96cc1058c166fda"}, "vout": 0, "txid": "5350805492a2f2233c753e52d46e4cb081fb92d42788617a245a3e2cbc7e6829"}], "txid": "7b7f6e12dc5e84cdf1a614fb5e7053319238aeefe3a20e45240a481568d2e9d2", "blocktime": 1537871767, "version": 1, "confirmations": 11495, "time": 1537871767, "locktime": 0, "vsize": 283, "size": 283}