{"hash": "7b83b98fb5e459030f8196608084dc5c0eab4f1c36fca3dd1365e0a7acf94881", "blockhash": "00000000000000000004ffacab907a6b429b9a5745fa0b75af4234bf69dd7176", "vout": [{"scriptPubKey": {"reqSigs": 1, "hex": "a9146ad4527a2973d33a3b26609a1d89e5525f1a749d87", "addresses": ["3BRsuHGKJJTF125W5FFpLD9yMED8eu1Vrs"], "asm": "OP_HASH160 6ad4527a2973d33a3b26609a1d89e5525f1a749d OP_EQUAL", "type": "scripthash"}, "value": 0.09153656, "n": 0}], "hex": "0100000001c755e8000acda8475229ce872defc5b6ec8ec0a5aac3eac6be18686a2b90dabf010000006a4730440220330983fa36f774ad61722966e5f375907c9d052f7ebe43b0e316bd6996c7f83202202eabadf65ce912713d2946fca5f5eda86664681cf2c0fb83149e17a2f081ab08012102dea2ff27b8f37d6ac320009100198229c2ac0df1a9ba76f85fd55ba22e96f52bffffffff0178ac8b000000000017a9146ad4527a2973d33a3b26609a1d89e5525f1a749d8700000000", "vin": [{"sequence": 4294967295, "scriptSig": {"hex": "4730440220330983fa36f774ad61722966e5f375907c9d052f7ebe43b0e316bd6996c7f83202202eabadf65ce912713d2946fca5f5eda86664681cf2c0fb83149e17a2f081ab08012102dea2ff27b8f37d6ac320009100198229c2ac0df1a9ba76f85fd55ba22e96f52b", "asm": "30440220330983fa36f774ad61722966e5f375907c9d052f7ebe43b0e316bd6996c7f83202202eabadf65ce912713d2946fca5f5eda86664681cf2c0fb83149e17a2f081ab08[ALL] 02dea2ff27b8f37d6ac320009100198229c2ac0df1a9ba76f85fd55ba22e96f52b"}, "vout": 1, "txid": "bfda902b6a6818bec6eac3aaa5c08eecb6c5ef2d87ce295247a8cd0a00e855c7"}], "txid": "7b83b98fb5e459030f8196608084dc5c0eab4f1c36fca3dd1365e0a7acf94881", "blocktime": 1537875543, "version": 1, "confirmations": 11464, "time": 1537875543, "locktime": 0, "vsize": 189, "size": 189}