{"hash": "7b84b86e6384f51d6d050fb126e10a7af9d220565c261642574a65722defa0cd", "blockhash": "0000000000000000001e0dab787dd257d1dbfcb92a98c2207d5e1078be1f4165", "vout": [{"scriptPubKey": {"reqSigs": 1, "hex": "a914a1874a39f4dc2618300ebeab458200abd5234fbd87", "addresses": ["3GR6nYCcsjRBoUQ5jm9xtXQfn4wB1isFqX"], "asm": "OP_HASH160 a1874a39f4dc2618300ebeab458200abd5234fbd OP_EQUAL", "type": "scripthash"}, "value": 0.00287504, "n": 0}], "hex": "0100000001cf4f411365f55715f6d6b7b32c4d26401079bfa0d6e7e55b510cea9cecdc2850000000006a47304402205b4657932ce3edc396821666f13469d7e18276444064c6bc04abfae2e75095d802204e794758f39dabae6ff96430680410a7614bc7c02eed3e989d7c4a94d60f667201210329b4bbaf3f05f0366d8ee50b1aa45657aad7ff07e693cb6d5e23bed022e81d89ffffffff01106304000000000017a914a1874a39f4dc2618300ebeab458200abd5234fbd8700000000", "vin": [{"sequence": 4294967295, "scriptSig": {"hex": "47304402205b4657932ce3edc396821666f13469d7e18276444064c6bc04abfae2e75095d802204e794758f39dabae6ff96430680410a7614bc7c02eed3e989d7c4a94d60f667201210329b4bbaf3f05f0366d8ee50b1aa45657aad7ff07e693cb6d5e23bed022e81d89", "asm": "304402205b4657932ce3edc396821666f13469d7e18276444064c6bc04abfae2e75095d802204e794758f39dabae6ff96430680410a7614bc7c02eed3e989d7c4a94d60f6672[ALL] 0329b4bbaf3f05f0366d8ee50b1aa45657aad7ff07e693cb6d5e23bed022e81d89"}, "vout": 0, "txid": "5028dcec9cea0c515be5e7d6a0bf791040264d2cb3b7d6f61557f56513414fcf"}], "txid": "7b84b86e6384f51d6d050fb126e10a7af9d220565c261642574a65722defa0cd", "blocktime": 1537872475, "version": 1, "confirmations": 11486, "time": 1537872475, "locktime": 0, "vsize": 189, "size": 189}