{"hash": "1e6503e080906db474335e3c38271826790bc0a513e826f7b011ba8a3373164b", "blockhash": "00000000000000000024a2167bbff67b0be802c0b01cdd79e6331c2be6459f87", "vout": [{"scriptPubKey": {"reqSigs": 1, "hex": "a914eec9114bbc7e13f2d26cda32126e90cbf9ab6c9c87", "addresses": ["3PTbccpvma5uqeZD7UVCfrV7b4b6ZL6zpB"], "asm": "OP_HASH160 eec9114bbc7e13f2d26cda32126e90cbf9ab6c9c OP_EQUAL", "type": "scripthash"}, "value": 0.0486235, "n": 0}, {"scriptPubKey": {"reqSigs": 1, "hex": "a914e816fad0c2e8a656c345e29421a4b57e6b09f74d87", "addresses": ["3NrCDi6Jbwa2wguvL93W9DiQb1Cxmk669o"], "asm": "OP_HASH160 e816fad0c2e8a656c345e29421a4b57e6b09f74d OP_EQUAL", "type": "scripthash"}, "value": 0.08436637, "n": 1}], "hex": "0100000000010147a495640cda38d3207c4b4b3a351460f8beeddd4509d75fe303b2d5aba9126501000000232200201f69d6259854ea5a19559325c5babe59397b834eaa5d95fadcf4c5da20bc4f07ffffffff028e314a000000000017a914eec9114bbc7e13f2d26cda32126e90cbf9ab6c9c879dbb80000000000017a914e816fad0c2e8a656c345e29421a4b57e6b09f74d870400483045022100a72e673e7765aa5d3c779dafce63da9d7a95b067da4a88b3549f0fdc4eb83e410220680300967185b65521ff12c96002008ae7eb6d97f418b911e443cd377cf410b2014730440220647d5599721bbe66cdb05d914bf0a78d56371632ea06ce6206c78203c2e408bd02207d066557163484219f1191f5c9a8e97c4677804ab19dc8b0c3c5dfe7ead5cd400169522103eaf089335bbadbc0a3694ca19175fee9526c80aae993f62dfd6b09c85ffb2874210372dc84e548dfe0f7a9cdd0765e2abba6188e8211abb9e1910f3b8db9a564cf5f2102f87739741587ac675b1884313ecd05a30e9ff9c52dc67cb4c37068f71fd4db8c53ae00000000", "vin": [{"txinwitness": ["", "3045022100a72e673e7765aa5d3c779dafce63da9d7a95b067da4a88b3549f0fdc4eb83e410220680300967185b65521ff12c96002008ae7eb6d97f418b911e443cd377cf410b201", "30440220647d5599721bbe66cdb05d914bf0a78d56371632ea06ce6206c78203c2e408bd02207d066557163484219f1191f5c9a8e97c4677804ab19dc8b0c3c5dfe7ead5cd4001", "522103eaf089335bbadbc0a3694ca19175fee9526c80aae993f62dfd6b09c85ffb2874210372dc84e548dfe0f7a9cdd0765e2abba6188e8211abb9e1910f3b8db9a564cf5f2102f87739741587ac675b1884313ecd05a30e9ff9c52dc67cb4c37068f71fd4db8c53ae"], "sequence": 4294967295, "scriptSig": {"hex": "2200201f69d6259854ea5a19559325c5babe59397b834eaa5d95fadcf4c5da20bc4f07", "asm": "00201f69d6259854ea5a19559325c5babe59397b834eaa5d95fadcf4c5da20bc4f07"}, "vout": 1, "txid": "6512a9abd5b203e35fd70945ddedbef86014353a4b4b7c20d338da0c6495a447"}], "txid": "7b84fbeead6dfbedcff5100f6f237ff515c2db8b70dd024621788173572d4fb3", "blocktime": 1537870564, "version": 1, "confirmations": 11515, "time": 1537870564, "locktime": 0, "vsize": 214, "size": 405}