{"hash": "7b8b7fee89839163976d0322fedb52ed576c171074ca664dab1d455c1b89a733", "blockhash": "0000000000000000001cda96e906b7601b7a6fb1a3b62bca570a9e5d8f4b3de1", "vout": [{"scriptPubKey": {"reqSigs": 1, "hex": "76a914e3db19ff256afb08ab628b27c90dfe2c4ea36ede88ac", "addresses": ["1MmnrzJnuawraK54tFwFFi9aMXPmfYDtiH"], "asm": "OP_DUP OP_HASH160 e3db19ff256afb08ab628b27c90dfe2c4ea36ede OP_EQUALVERIFY OP_CHECKSIG", "type": "pubkeyhash"}, "value": 8.21, "n": 0}, {"scriptPubKey": {"reqSigs": 1, "hex": "76a9149ac6b0d3f8b5f01ec053ba474cffaf0b412820aa88ac", "addresses": ["1F7P5pLUpaqUzbtQ6tPG59gKXQWeJLxZJp"], "asm": "OP_DUP OP_HASH160 9ac6b0d3f8b5f01ec053ba474cffaf0b412820aa OP_EQUALVERIFY OP_CHECKSIG", "type": "pubkeyhash"}, "value": 1.33865221, "n": 1}], "hex": "02000000018d722502260ff6f5c628edc3aa697dea04aa35ffd61c2b8a8091026b70af8185000000006a47304402200e852f53daf2ac1dc642bada648bc107ae55dd9fbdc4295b9416339dfb4a0d04022008bf54f73095967f1a67f41f8e2a06a1669b4d6565c3dfe9563f058725954b1301210290a2f589dfc799d452bc9f3ee51d71196f4927fec7f8cb83dc3cb520bf7a32dcfdffffff024077ef30000000001976a914e3db19ff256afb08ab628b27c90dfe2c4ea36ede88ac059ffa07000000001976a9149ac6b0d3f8b5f01ec053ba474cffaf0b412820aa88ac13490800", "vin": [{"sequence": 4294967293, "scriptSig": {"hex": "47304402200e852f53daf2ac1dc642bada648bc107ae55dd9fbdc4295b9416339dfb4a0d04022008bf54f73095967f1a67f41f8e2a06a1669b4d6565c3dfe9563f058725954b1301210290a2f589dfc799d452bc9f3ee51d71196f4927fec7f8cb83dc3cb520bf7a32dc", "asm": "304402200e852f53daf2ac1dc642bada648bc107ae55dd9fbdc4295b9416339dfb4a0d04022008bf54f73095967f1a67f41f8e2a06a1669b4d6565c3dfe9563f058725954b13[ALL] 0290a2f589dfc799d452bc9f3ee51d71196f4927fec7f8cb83dc3cb520bf7a32dc"}, "vout": 0, "txid": "8581af706b0291808a2b1cd6ff35aa04ea7d69aac3ed28c6f5f60f260225728d"}], "txid": "7b8b7fee89839163976d0322fedb52ed576c171074ca664dab1d455c1b89a733", "blocktime": 1537873282, "version": 2, "confirmations": 11480, "time": 1537873282, "locktime": 542995, "vsize": 225, "size": 225}