{"hash": "9fd79bbc0969e1f458a4b56c7991b440af320e49b5c4e118666cbd5866cfa0bf", "blockhash": "00000000000000000004ffacab907a6b429b9a5745fa0b75af4234bf69dd7176", "vout": [{"scriptPubKey": {"reqSigs": 1, "hex": "a91484983b6ab06340c60c054511012d8c4640af8e0d87", "addresses": ["3Dn7V8tiWd3NcBcC1zHd7oQBRbbRumchdB"], "asm": "OP_HASH160 84983b6ab06340c60c054511012d8c4640af8e0d OP_EQUAL", "type": "scripthash"}, "value": 0.27573022, "n": 0}, {"scriptPubKey": {"reqSigs": 1, "hex": "a9141f8aaec2b312636b22e13fc6498f8af515f8c61887", "addresses": ["34Zo1L89kWkXgxqHa5xMjeQoxKpfZe2hnT"], "asm": "OP_HASH160 1f8aaec2b312636b22e13fc6498f8af515f8c618 OP_EQUAL", "type": "scripthash"}, "value": 12.56183742, "n": 1}], "hex": "010000000001041f4904458934d3d0c50c61815027ff6063667a3b836596d3293ff1c72e10a9410100000017160014fe3cc1555e93cbdddbbe26d26417f38d833682defdffffff82da321e39c2af72dc8f150db2c59d373172a1c3a3ee660ce80ab626e39495460000000017160014fe3cc1555e93cbdddbbe26d26417f38d833682defdffffff112f413e20053ac2b1b2c5a23b52e3b2436882923f17c6b8b3bfd981671734d30000000017160014fe3cc1555e93cbdddbbe26d26417f38d833682defdffffff3fa5d78ef93f64ec0728869c1f619ef5fd82a6cd1a8815a37d0e784d1c3da2e10000000017160014fe3cc1555e93cbdddbbe26d26417f38d833682defdffffff021ebba4010000000017a91484983b6ab06340c60c054511012d8c4640af8e0d87bed7df4a0000000017a9141f8aaec2b312636b22e13fc6498f8af515f8c61887024830450221008a67fa1493d36ce4fedd7e089d57887c741751afe6c29963c5528384d3ac1ca8022061f56425cbc2a0013be50d1b416a75751bc7ace4a4e80f5c5cd3b6d876a57651012103bd8d06c2b0d336c44b3b2eea79f05d833cca559a4797d6a6db1d81252edcedf20247304402204f5c6f9da8e6646756768e88aec3c2f10c158b4b15e07bcd608e1631ad88efc502205b904bd7f61c15f12659390116c437ec9879e7c0c6ddba9d4e983101800af153012103bd8d06c2b0d336c44b3b2eea79f05d833cca559a4797d6a6db1d81252edcedf2024730440220710fad6d0a883489cd7317c017764a62c5ae2b7ee02334782aa4207e25fe121b02204cf79a9f970c7c5a4c11830680c130270db05fc108f0e6a3bdcf485d7f84b0e8012103bd8d06c2b0d336c44b3b2eea79f05d833cca559a4797d6a6db1d81252edcedf2024730440220319f73a4245015a3574f7262010fee67541b92c8d7a9452343f80986a608c21d0220441242454018c5b56f57e444c90c37ef98571db0612ad11a38e7c7094a1502bf012103bd8d06c2b0d336c44b3b2eea79f05d833cca559a4797d6a6db1d81252edcedf216490800", "vin": [{"txinwitness": ["30450221008a67fa1493d36ce4fedd7e089d57887c741751afe6c29963c5528384d3ac1ca8022061f56425cbc2a0013be50d1b416a75751bc7ace4a4e80f5c5cd3b6d876a5765101", "03bd8d06c2b0d336c44b3b2eea79f05d833cca559a4797d6a6db1d81252edcedf2"], "sequence": 4294967293, "scriptSig": {"hex": "160014fe3cc1555e93cbdddbbe26d26417f38d833682de", "asm": "0014fe3cc1555e93cbdddbbe26d26417f38d833682de"}, "vout": 1, "txid": "41a9102ec7f13f29d39665833b7a666360ff275081610cc5d0d334894504491f"}, {"txinwitness": ["304402204f5c6f9da8e6646756768e88aec3c2f10c158b4b15e07bcd608e1631ad88efc502205b904bd7f61c15f12659390116c437ec9879e7c0c6ddba9d4e983101800af15301", "03bd8d06c2b0d336c44b3b2eea79f05d833cca559a4797d6a6db1d81252edcedf2"], "sequence": 4294967293, "scriptSig": {"hex": "160014fe3cc1555e93cbdddbbe26d26417f38d833682de", "asm": "0014fe3cc1555e93cbdddbbe26d26417f38d833682de"}, "vout": 0, "txid": "469594e326b60ae80c66eea3c3a17231379dc5b20d158fdc72afc2391e32da82"}, {"txinwitness": ["30440220710fad6d0a883489cd7317c017764a62c5ae2b7ee02334782aa4207e25fe121b02204cf79a9f970c7c5a4c11830680c130270db05fc108f0e6a3bdcf485d7f84b0e801", "03bd8d06c2b0d336c44b3b2eea79f05d833cca559a4797d6a6db1d81252edcedf2"], "sequence": 4294967293, "scriptSig": {"hex": "160014fe3cc1555e93cbdddbbe26d26417f38d833682de", "asm": "0014fe3cc1555e93cbdddbbe26d26417f38d833682de"}, "vout": 0, "txid": "d334176781d9bfb3b8c6173f92826843b2e3523ba2c5b2b1c23a05203e412f11"}, {"txinwitness": ["30440220319f73a4245015a3574f7262010fee67541b92c8d7a9452343f80986a608c21d0220441242454018c5b56f57e444c90c37ef98571db0612ad11a38e7c7094a1502bf01", "03bd8d06c2b0d336c44b3b2eea79f05d833cca559a4797d6a6db1d81252edcedf2"], "sequence": 4294967293, "scriptSig": {"hex": "160014fe3cc1555e93cbdddbbe26d26417f38d833682de", "asm": "0014fe3cc1555e93cbdddbbe26d26417f38d833682de"}, "vout": 0, "txid": "e1a23d1c4d780e7da315881acda682fdf59e611f9c862807ec643ff98ed7a53f"}], "txid": "7b8c0caaffaff4efa5ab6fc4d5e51a0fe97e0dcb7fa3b06f743d46ec6777d858", "blocktime": 1537875543, "version": 1, "confirmations": 11464, "time": 1537875543, "locktime": 542998, "vsize": 438, "size": 761}