{"hash": "b0e0c830aed46a282d9f1204a90a1d00fe14c06d34fbf34d522b361c492aa417", "blockhash": "0000000000000000000dcc0f55137456b1a82d3642486a52398922ac4d620174", "vout": [{"scriptPubKey": {"reqSigs": 1, "hex": "76a91493e818c3232d87b6d2e4d9d8c19e30eb380a7b5e88ac", "addresses": ["1EV4NZcyFnQXKTuqTYdPJFtWpG7VTH2muY"], "asm": "OP_DUP OP_HASH160 93e818c3232d87b6d2e4d9d8c19e30eb380a7b5e OP_EQUALVERIFY OP_CHECKSIG", "type": "pubkeyhash"}, "value": 0.3054, "n": 0}, {"scriptPubKey": {"reqSigs": 1, "hex": "a914d27fc24e0fa5a2006904847e47b010442c1382ff87", "addresses": ["3Lt2sgMY4fkUvUz4yA9YMNs2g6QnhVHbHE"], "asm": "OP_HASH160 d27fc24e0fa5a2006904847e47b010442c1382ff OP_EQUAL", "type": "scripthash"}, "value": 0.0029616, "n": 1}, {"scriptPubKey": {"reqSigs": 1, "hex": "a914d5ee1c7a00a24c0282184e36ed1b931961fbc89b87", "addresses": ["3MCB6fNYX4ec1xmHKoqzobMfychHuhqEUX"], "asm": "OP_HASH160 d5ee1c7a00a24c0282184e36ed1b931961fbc89b OP_EQUAL", "type": "scripthash"}, "value": 0.00426583, "n": 2}, {"scriptPubKey": {"reqSigs": 1, "hex": "a91441605eab53fad549566b68c9466e098124dd765187", "addresses": ["37ehHuP81BEMeLFDCDz95SN2p56xk2ZkYG"], "asm": "OP_HASH160 41605eab53fad549566b68c9466e098124dd7651 OP_EQUAL", "type": "scripthash"}, "value": 0.01289852, "n": 3}, {"scriptPubKey": {"reqSigs": 1, "hex": "a91469f0a1ba13074a497e6228d9835c5b463210996987", "addresses": ["3BMB95AwXq32NMBvzDRtAe5iWquRvzpSYh"], "asm": "OP_HASH160 69f0a1ba13074a497e6228d9835c5b4632109969 OP_EQUAL", "type": "scripthash"}, "value": 0.00224521, "n": 4}, {"scriptPubKey": {"reqSigs": 1, "hex": "76a9140970fc06af4656b94ed5363a4e5f6ddb63d2314388ac", "addresses": ["1rvS2UzCn5N2vUeEHBryDswycCtCKbWCC"], "asm": "OP_DUP OP_HASH160 0970fc06af4656b94ed5363a4e5f6ddb63d23143 OP_EQUALVERIFY OP_CHECKSIG", "type": "pubkeyhash"}, "value": 0.02265345, "n": 5}, {"scriptPubKey": {"reqSigs": 1, "hex": "76a914e7837494d45828701f8781fcc5dedffb3411dfb788ac", "addresses": ["1N78ZzeMT9LXPpgGRqD4Ds4KnXPR15DC31"], "asm": "OP_DUP OP_HASH160 e7837494d45828701f8781fcc5dedffb3411dfb7 OP_EQUALVERIFY OP_CHECKSIG", "type": "pubkeyhash"}, "value": 0.01235, "n": 6}, {"scriptPubKey": {"reqSigs": 1, "hex": "76a9147d05a39b6949ec148e3aeebc3b3356adbd65174688ac", "addresses": ["1CQ4DnoQ11pNWyV3z4idtTX48jxeuh5Efo"], "asm": "OP_DUP OP_HASH160 7d05a39b6949ec148e3aeebc3b3356adbd651746 OP_EQUALVERIFY OP_CHECKSIG", "type": "pubkeyhash"}, "value": 0.05382523, "n": 7}, {"scriptPubKey": {"reqSigs": 1, "hex": "76a9140ff6f11473907afd4b282c937d8c3b7131b0754688ac", "addresses": ["12TQxgxGDogHnd2vL9XQDC93hgS7sxvtMZ"], "asm": "OP_DUP OP_HASH160 0ff6f11473907afd4b282c937d8c3b7131b07546 OP_EQUALVERIFY OP_CHECKSIG", "type": "pubkeyhash"}, "value": 0.0178995, "n": 8}, {"scriptPubKey": {"reqSigs": 1, "hex": "76a914fb05a925d151c04a98a716989547b7d59166167f88ac", "addresses": ["1PtHPTvAeuct4bSyPXVaxoyjcEJuTJtZCT"], "asm": "OP_DUP OP_HASH160 fb05a925d151c04a98a716989547b7d59166167f OP_EQUALVERIFY OP_CHECKSIG", "type": "pubkeyhash"}, "value": 0.002203, "n": 9}, {"scriptPubKey": {"reqSigs": 1, "hex": "a91459c62b087daa4f3ec89ec35f6d09eb401560ecd887", "addresses": ["39shTaT2KnaUJQHPMMbqa2R3ZC5pEEgCGn"], "asm": "OP_HASH160 59c62b087daa4f3ec89ec35f6d09eb401560ecd8 OP_EQUAL", "type": "scripthash"}, "value": 0.00660351, "n": 10}, {"scriptPubKey": {"reqSigs": 1, "hex": "a914f6ad7f7c2a27b081f7747a3261498c4ea34e73fe87", "addresses": ["3QBKzavDvvMMURrMGqxKximP2gvPEG74HA"], "asm": "OP_HASH160 f6ad7f7c2a27b081f7747a3261498c4ea34e73fe OP_EQUAL", "type": "scripthash"}, "value": 0.00013653, "n": 11}, {"scriptPubKey": {"reqSigs": 1, "hex": "a914ae5643d24b624abcc77f99decb5b7a4cf562513287", "addresses": ["3HapqiPozvtL8p1eMVsNuaBDdzQsua9SK1"], "asm": "OP_HASH160 ae5643d24b624abcc77f99decb5b7a4cf5625132 OP_EQUAL", "type": "scripthash"}, "value": 0.00489253, "n": 12}, {"scriptPubKey": {"reqSigs": 1, "hex": "76a914618cad9239b847b0e5990a44d61cac10e0e8016a88ac", "addresses": ["19to564Pnwsvu8LBDsubqiVCe4SFSF4gRf"], "asm": "OP_DUP OP_HASH160 618cad9239b847b0e5990a44d61cac10e0e8016a OP_EQUALVERIFY OP_CHECKSIG", "type": "pubkeyhash"}, "value": 0.00780031, "n": 13}, {"scriptPubKey": {"reqSigs": 1, "hex": "a9145316844e9e341dfe2f7dc73d2e10c26b8d982f1787", "addresses": ["39GLyxkh5jiREz8fnKZWNmzzRcXVc5iQZP"], "asm": "OP_HASH160 5316844e9e341dfe2f7dc73d2e10c26b8d982f17 OP_EQUAL", "type": "scripthash"}, "value": 0.00512241, "n": 14}, {"scriptPubKey": {"reqSigs": 1, "hex": "a914516a2f3f5a1d0071be2d842992f7cece1a6db8ee87", "addresses": ["397Vrv12eTeV8EaPgEefy6ZAhEM5SqjKhL"], "asm": "OP_HASH160 516a2f3f5a1d0071be2d842992f7cece1a6db8ee OP_EQUAL", "type": "scripthash"}, "value": 0.00342004, "n": 15}, {"scriptPubKey": {"reqSigs": 1, "hex": "76a9145a7efc1878b731047341421717a59c7ed061a7ed88ac", "addresses": ["19FVwKYbFJsLqftQCdBTCMdvRYR2x4vXvr"], "asm": "OP_DUP OP_HASH160 5a7efc1878b731047341421717a59c7ed061a7ed OP_EQUALVERIFY OP_CHECKSIG", "type": "pubkeyhash"}, "value": 0.00901222, "n": 16}, {"scriptPubKey": {"reqSigs": 1, "hex": "a914f23d28fc2396e5984b9e863078b607c8ded855d787", "addresses": ["3PmriSkUv4PXo4sVFZZSDfbBpTXSkbDzC5"], "asm": "OP_HASH160 f23d28fc2396e5984b9e863078b607c8ded855d7 OP_EQUAL", "type": "scripthash"}, "value": 0.00251006, "n": 17}, {"scriptPubKey": {"reqSigs": 1, "hex": "a9143ffa720bb72bb1caecf9a86dc44ae3764671263487", "addresses": ["37XJWtPgDXDueredbUK1Vh6wa2fmjLEf7L"], "asm": "OP_HASH160 3ffa720bb72bb1caecf9a86dc44ae37646712634 OP_EQUAL", "type": "scripthash"}, "value": 0.0027286, "n": 18}, {"scriptPubKey": {"reqSigs": 1, "hex": "a914a85f9f4bddf8fb71934051ada5f6e9b0ef47483587", "addresses": ["3H3HzipH67qJT48bK2FFb8ySvpauMHrwcA"], "asm": "OP_HASH160 a85f9f4bddf8fb71934051ada5f6e9b0ef474835 OP_EQUAL", "type": "scripthash"}, "value": 4.42087116, "n": 19}, {"scriptPubKey": {"reqSigs": 1, "hex": "76a91458182069a35657f2aeb07aa500806387af0e3bbc88ac", "addresses": ["192oNECBJd4uSSZx4msB2TYhuPNYtFRFKy"], "asm": "OP_DUP OP_HASH160 58182069a35657f2aeb07aa500806387af0e3bbc OP_EQUALVERIFY OP_CHECKSIG", "type": "pubkeyhash"}, "value": 0.00343026, "n": 20}, {"scriptPubKey": {"reqSigs": 1, "hex": "a9149b1cc28808121d0415dcf8926c5c003af60e12f287", "addresses": ["3FqB7Ypsq6BqGcxdsySaQac9xXBdMecw1U"], "asm": "OP_HASH160 9b1cc28808121d0415dcf8926c5c003af60e12f2 OP_EQUAL", "type": "scripthash"}, "value": 0.00202808, "n": 21}, {"scriptPubKey": {"reqSigs": 1, "hex": "a9142cd649441ea96d52e7d8dcba1ac6881efd92241887", "addresses": ["35n6MrGHNVAwbdemdio4NCgZCFfCcUDBK3"], "asm": "OP_HASH160 2cd649441ea96d52e7d8dcba1ac6881efd922418 OP_EQUAL", "type": "scripthash"}, "value": 0.00408138, "n": 22}, {"scriptPubKey": {"reqSigs": 1, "hex": "a914bf5d423ec8a6f6f42cb40abcbe5bc8e2045d0dc987", "addresses": ["3K8rhv6ooXFhDRmHZYjg5UzX5XTbsH8LFo"], "asm": "OP_HASH160 bf5d423ec8a6f6f42cb40abcbe5bc8e2045d0dc9 OP_EQUAL", "type": "scripthash"}, "value": 0.00687377, "n": 23}, {"scriptPubKey": {"reqSigs": 1, "hex": "a9145352f1921dd4e27798b70d3a9862f54567b128ca87", "addresses": ["39HbNVQPSgzdM4TcTHWU6HSCBRf5avvEWA"], "asm": "OP_HASH160 5352f1921dd4e27798b70d3a9862f54567b128ca OP_EQUAL", "type": "scripthash"}, "value": 0.0030846, "n": 24}, {"scriptPubKey": {"reqSigs": 1, "hex": "a9148fe0f245216659fe5fa9db5f46d2f2a23c133eb287", "addresses": ["3Eon2XHzz3abLBxCMisfujRB2B73rFgKb2"], "asm": "OP_HASH160 8fe0f245216659fe5fa9db5f46d2f2a23c133eb2 OP_EQUAL", "type": "scripthash"}, "value": 0.00293673, "n": 25}, {"scriptPubKey": {"reqSigs": 1, "hex": "76a914f16355c2b11688bf1d57b60ffcd0aa5a4854386f88ac", "addresses": ["1P1Lr9b79PgGSw5PETRCrJKRtwM25yvAhG"], "asm": "OP_DUP OP_HASH160 f16355c2b11688bf1d57b60ffcd0aa5a4854386f OP_EQUALVERIFY OP_CHECKSIG", "type": "pubkeyhash"}, "value": 0.0814508, "n": 26}, {"scriptPubKey": {"reqSigs": 1, "hex": "a914339a58518267a1da90dc14002d5e73f724031edf87", "addresses": ["36PsHQTbnxCHJfqLVJ17vjj31eHxLvf28y"], "asm": "OP_HASH160 339a58518267a1da90dc14002d5e73f724031edf OP_EQUAL", "type": "scripthash"}, "value": 0.15600624, "n": 27}, {"scriptPubKey": {"reqSigs": 1, "hex": "a91471e3f2eb3fd5b9a456113e0c3072a4a07aec51cd87", "addresses": ["3C5DMPTPhkW4yxxZB13brCLniWAYNs3Prm"], "asm": "OP_HASH160 71e3f2eb3fd5b9a456113e0c3072a4a07aec51cd OP_EQUAL", "type": "scripthash"}, "value": 0.00326944, "n": 28}, {"scriptPubKey": {"reqSigs": 1, "hex": "a914fb2be12453a084103bb0a43fd5fba6261426ab2887", "addresses": ["3Qb66VTrNgrZZBsavxYXgLqyk4PYzBecPo"], "asm": "OP_HASH160 fb2be12453a084103bb0a43fd5fba6261426ab28 OP_EQUAL", "type": "scripthash"}, "value": 0.00278, "n": 29}, {"scriptPubKey": {"reqSigs": 1, "hex": "a914a3aaef7a98b86d23311d63ecb273f64aa9d1425787", "addresses": ["3GcQqchogkQne84tRxFUbWL3ydGL8uWoVb"], "asm": "OP_HASH160 a3aaef7a98b86d23311d63ecb273f64aa9d14257 OP_EQUAL", "type": "scripthash"}, "value": 0.00325, "n": 30}, {"scriptPubKey": {"reqSigs": 1, "hex": "76a914b86710993f4e259b819862ad6d51caf2a894c10888ac", "addresses": ["1Hp2oNJdQ5Qs4zK72gehifUEC8P7EsWeev"], "asm": "OP_DUP OP_HASH160 b86710993f4e259b819862ad6d51caf2a894c108 OP_EQUALVERIFY OP_CHECKSIG", "type": "pubkeyhash"}, "value": 0.00156006, "n": 31}, {"scriptPubKey": {"reqSigs": 1, "hex": "a914201e1aedf11ab0de08a1aab7a3b953df07c2669387", "addresses": ["34cqcRmSptX6xdNcFfckXLNZzq6ewzSDWq"], "asm": "OP_HASH160 201e1aedf11ab0de08a1aab7a3b953df07c26693 OP_EQUAL", "type": "scripthash"}, "value": 0.2, "n": 32}, {"scriptPubKey": {"reqSigs": 1, "hex": "76a9143b7b32ad5429ddd065edbde3e0ef45dbdd64177488ac", "addresses": ["16RWTGCpHdqWfox5K9kpg2ALxdzPiqKNCq"], "asm": "OP_DUP OP_HASH160 3b7b32ad5429ddd065edbde3e0ef45dbdd641774 OP_EQUALVERIFY OP_CHECKSIG", "type": "pubkeyhash"}, "value": 0.04886032, "n": 33}], "hex": "02000000000101d806391d52203081ab91d45528ce7e3253083f27dba81cf24c327041974862950e0000001716001465cafd9c3a6ad7418225b35415731358899a87f4feffffff22e000d201000000001976a91493e818c3232d87b6d2e4d9d8c19e30eb380a7b5e88ace08404000000000017a914d27fc24e0fa5a2006904847e47b010442c1382ff87578206000000000017a914d5ee1c7a00a24c0282184e36ed1b931961fbc89b877cae13000000000017a91441605eab53fad549566b68c9466e098124dd765187096d03000000000017a91469f0a1ba13074a497e6228d9835c5b46321099698701912200000000001976a9140970fc06af4656b94ed5363a4e5f6ddb63d2314388ac38d81200000000001976a914e7837494d45828701f8781fcc5dedffb3411dfb788ac7b215200000000001976a9147d05a39b6949ec148e3aeebc3b3356adbd65174688acfe4f1b00000000001976a9140ff6f11473907afd4b282c937d8c3b7131b0754688ac8c5c0300000000001976a914fb05a925d151c04a98a716989547b7d59166167f88ac7f130a000000000017a91459c62b087daa4f3ec89ec35f6d09eb401560ecd887553500000000000017a914f6ad7f7c2a27b081f7747a3261498c4ea34e73fe87257707000000000017a914ae5643d24b624abcc77f99decb5b7a4cf562513287ffe60b00000000001976a914618cad9239b847b0e5990a44d61cac10e0e8016a88acf1d007000000000017a9145316844e9e341dfe2f7dc73d2e10c26b8d982f1787f43705000000000017a914516a2f3f5a1d0071be2d842992f7cece1a6db8ee8766c00d00000000001976a9145a7efc1878b731047341421717a59c7ed061a7ed88ac7ed403000000000017a914f23d28fc2396e5984b9e863078b607c8ded855d787dc2904000000000017a9143ffa720bb72bb1caecf9a86dc44ae3764671263487ccb6591a0000000017a914a85f9f4bddf8fb71934051ada5f6e9b0ef47483587f23b0500000000001976a91458182069a35657f2aeb07aa500806387af0e3bbc88ac381803000000000017a9149b1cc28808121d0415dcf8926c5c003af60e12f2874a3a06000000000017a9142cd649441ea96d52e7d8dcba1ac6881efd92241887117d0a000000000017a914bf5d423ec8a6f6f42cb40abcbe5bc8e2045d0dc987ecb404000000000017a9145352f1921dd4e27798b70d3a9862f54567b128ca87297b04000000000017a9148fe0f245216659fe5fa9db5f46d2f2a23c133eb287b8487c00000000001976a914f16355c2b11688bf1d57b60ffcd0aa5a4854386f88acf00bee000000000017a914339a58518267a1da90dc14002d5e73f724031edf8720fd04000000000017a91471e3f2eb3fd5b9a456113e0c3072a4a07aec51cd87f03d04000000000017a914fb2be12453a084103bb0a43fd5fba6261426ab288788f504000000000017a914a3aaef7a98b86d23311d63ecb273f64aa9d142578766610200000000001976a914b86710993f4e259b819862ad6d51caf2a894c10888ac002d31010000000017a914201e1aedf11ab0de08a1aab7a3b953df07c2669387108e4a00000000001976a9143b7b32ad5429ddd065edbde3e0ef45dbdd64177488ac0248304502210091b248dbc0248efd796090cb0b9aff74a6e78173bff321260d6b08d6eabf822c02203a7a29489e0ae695b03eb2dfab8a53c4fcf04e433e751cb2b4c70a29eab6ed47012102a53a07b6fc052065d3b5bd137b55a6270c1f0d8cb28f26f7cca14e7846663b400c490800", "vin": [{"txinwitness": ["304502210091b248dbc0248efd796090cb0b9aff74a6e78173bff321260d6b08d6eabf822c02203a7a29489e0ae695b03eb2dfab8a53c4fcf04e433e751cb2b4c70a29eab6ed4701", "02a53a07b6fc052065d3b5bd137b55a6270c1f0d8cb28f26f7cca14e7846663b40"], "sequence": 4294967294, "scriptSig": {"hex": "16001465cafd9c3a6ad7418225b35415731358899a87f4", "asm": "001465cafd9c3a6ad7418225b35415731358899a87f4"}, "vout": 14, "txid": "956248974170324cf21ca8db273f0853327ece2855d491ab813020521d3906d8"}], "txid": "7b8e377236da97214998a60dd5e195af72ab87caecd2bd881d9d68162ee30fe8", "blocktime": 1537870268, "version": 2, "confirmations": 11516, "time": 1537870268, "locktime": 542988, "vsize": 1214, "size": 1296}