{"hash": "9871485259e03efa4621341b856a01027c0b8e9a5cba3232aa6b72bd651599e5", "blockhash": "0000000000000000001cda96e906b7601b7a6fb1a3b62bca570a9e5d8f4b3de1", "vout": [{"scriptPubKey": {"reqSigs": 1, "hex": "76a914c67a69e55dbff6690252b743029c70c7ad7bee7c88ac", "addresses": ["1K6TSS5TXhSWdwBw7yUvUST96BFPaC7yzc"], "asm": "OP_DUP OP_HASH160 c67a69e55dbff6690252b743029c70c7ad7bee7c OP_EQUALVERIFY OP_CHECKSIG", "type": "pubkeyhash"}, "value": 0.0002, "n": 0}, {"scriptPubKey": {"reqSigs": 1, "hex": "a9145f1bda604203e45291f239e9a55fcddd096813c187", "addresses": ["3AMuV2hnz4hcSVf6T8GqVyEobmo25myN7p"], "asm": "OP_HASH160 5f1bda604203e45291f239e9a55fcddd096813c1 OP_EQUAL", "type": "scripthash"}, "value": 1.87894773, "n": 1}], "hex": "0100000000010184024e2fc83079db03901f8ef9ace9845cb38ceb290be061e0fbfbcc1b8b59ee00000000171600142c77444aa93590d7159b521aa3d0af043a4d1e2effffffff02204e0000000000001976a914c67a69e55dbff6690252b743029c70c7ad7bee7c88acf50b330b0000000017a9145f1bda604203e45291f239e9a55fcddd096813c1870247304402204cc4c78507ab766b17bc81b25943fbff588ebd44ae21275300e6b8fb8eb4fbf3022025155a9adda8359a6e4cef3223559992b096505f87f09973d60eb99565e359b2012102d7b0f03b6b018e79bbbfbbaed2adcdd8a640fa5f7c3a7998437bdf336c247e9000000000", "vin": [{"txinwitness": ["304402204cc4c78507ab766b17bc81b25943fbff588ebd44ae21275300e6b8fb8eb4fbf3022025155a9adda8359a6e4cef3223559992b096505f87f09973d60eb99565e359b201", "02d7b0f03b6b018e79bbbfbbaed2adcdd8a640fa5f7c3a7998437bdf336c247e90"], "sequence": 4294967295, "scriptSig": {"hex": "1600142c77444aa93590d7159b521aa3d0af043a4d1e2e", "asm": "00142c77444aa93590d7159b521aa3d0af043a4d1e2e"}, "vout": 0, "txid": "ee598b1bccfbfbe061e00b29eb8cb35c84e9acf98e1f9003db7930c82f4e0284"}], "txid": "7b92120f60bf8ed338190dfafbbdb4b8a8ae51b14837c25e50f1fbeb4e18ccd2", "blocktime": 1537873282, "version": 1, "confirmations": 11485, "time": 1537873282, "locktime": 0, "vsize": 168, "size": 249}