{"hash": "7b9265fc9423d2b5c9850611b994f1bbb79fe158e8262534005a7c66a88449b7", "blockhash": "00000000000000000024a2167bbff67b0be802c0b01cdd79e6331c2be6459f87", "vout": [{"scriptPubKey": {"reqSigs": 1, "hex": "76a914f423dfee34e4833104508103d89e316b4a49314088ac", "addresses": ["1PFtrRjbq4aLfM7k4tyLZ3ZAuTsgLr6Q8Q"], "asm": "OP_DUP OP_HASH160 f423dfee34e4833104508103d89e316b4a493140 OP_EQUALVERIFY OP_CHECKSIG", "type": "pubkeyhash"}, "value": 0.07816724, "n": 0}, {"scriptPubKey": {"reqSigs": 1, "hex": "76a9142fabdcdef98d8ca284271baa8fa4ab56c19f624388ac", "addresses": ["15M4eFZqrzQvkRvcZZU72rVtLjxFqkRWMp"], "asm": "OP_DUP OP_HASH160 2fabdcdef98d8ca284271baa8fa4ab56c19f6243 OP_EQUALVERIFY OP_CHECKSIG", "type": "pubkeyhash"}, "value": 5.46e-06, "n": 1}, {"scriptPubKey": {"type": "nulldata", "hex": "6a146f6d6e69000000000000001f00000050539a3a00", "asm": "OP_RETURN 6f6d6e69000000000000001f00000050539a3a00"}, "value": 0.0, "n": 2}], "hex": "010000000188c8712d01af9d76d57aa37bd35011174703e2c7838736a474f7bfa4dc8e17f4000000006a473044022035961d05bd20295e8f9c88dd6424b43f62efd155710b33c6b99bbf0402cf61e6022060f584108e0ab0380ee8199ff9a0972b4cc998bcc6456010f6f26097d1d725910121039a403b4eeaf8f7a9c5cc655cf2d17310fcd606a75b1392f7892f6b514a67d23cffffffff0314467700000000001976a914f423dfee34e4833104508103d89e316b4a49314088ac22020000000000001976a9142fabdcdef98d8ca284271baa8fa4ab56c19f624388ac0000000000000000166a146f6d6e69000000000000001f00000050539a3a0000000000", "vin": [{"sequence": 4294967295, "scriptSig": {"hex": "473044022035961d05bd20295e8f9c88dd6424b43f62efd155710b33c6b99bbf0402cf61e6022060f584108e0ab0380ee8199ff9a0972b4cc998bcc6456010f6f26097d1d725910121039a403b4eeaf8f7a9c5cc655cf2d17310fcd606a75b1392f7892f6b514a67d23c", "asm": "3044022035961d05bd20295e8f9c88dd6424b43f62efd155710b33c6b99bbf0402cf61e6022060f584108e0ab0380ee8199ff9a0972b4cc998bcc6456010f6f26097d1d72591[ALL] 039a403b4eeaf8f7a9c5cc655cf2d17310fcd606a75b1392f7892f6b514a67d23c"}, "vout": 0, "txid": "f4178edca4bff774a4368783c7e20347171150d37ba37ad5769daf012d71c888"}], "txid": "7b9265fc9423d2b5c9850611b994f1bbb79fe158e8262534005a7c66a88449b7", "blocktime": 1537870564, "version": 1, "confirmations": 11515, "time": 1537870564, "locktime": 0, "vsize": 256, "size": 256}