{"hash": "7b989561a5b1db8526f57a896c0cceb9535f412ffa13b7b099ed5c6746bec6c8", "blockhash": "00000000000000000004ffacab907a6b429b9a5745fa0b75af4234bf69dd7176", "vout": [{"scriptPubKey": {"reqSigs": 1, "hex": "a91427cdb9edd075b2dc1f91d867f35afc680c94d0e587", "addresses": ["35KUj8xY5GphXfM8hvqtBQp8PwmjFSVxNE"], "asm": "OP_HASH160 27cdb9edd075b2dc1f91d867f35afc680c94d0e5 OP_EQUAL", "type": "scripthash"}, "value": 0.4154, "n": 0}, {"scriptPubKey": {"reqSigs": 1, "hex": "76a9148a0a4662e45de4c9b973afb33a8f7496e873b82f88ac", "addresses": ["1DatZPXZTQnvPy6QqcY8GJeQ15CjGtqhWf"], "asm": "OP_DUP OP_HASH160 8a0a4662e45de4c9b973afb33a8f7496e873b82f OP_EQUALVERIFY OP_CHECKSIG", "type": "pubkeyhash"}, "value": 8.118e-05, "n": 1}], "hex": "0100000002d42b60854af44881005492700f46e2daf0f6c13777ffb78c08b19e34ecc705e6010000006a47304402205a0aed614b986b5367502b060709bfa8fcaf38b016ee01fd97430b7bb17e5cca0220659c909ed82521bed7f07bc86bb8a1f6dab3c8b59c1b70beea3b55ccca86adad012102fe67f84dfa00dba586df13b8fc5a48cc8a81e92c2bbd15cf321b862c6a67e7dcffffffffd639cb26e9d660f9509aa688623aa096d32c8278f65f4113f5a66bb9489de193080000006b483045022100c6dc4445c838a7d35f67573b7e25a57d3908dcaa017d37ec670f6cad1377f53302203116aae21c9ad378209e634cb15a64ec4a404b95c68dbef61bb2fd7d160330f90121026d063dccd44f8f287c0b8f49f28b8e3ef85cc5e0d91feb614a5f04dee25e777dffffffff02a0d979020000000017a91427cdb9edd075b2dc1f91d867f35afc680c94d0e587b61f0000000000001976a9148a0a4662e45de4c9b973afb33a8f7496e873b82f88ac00000000", "vin": [{"sequence": 4294967295, "scriptSig": {"hex": "47304402205a0aed614b986b5367502b060709bfa8fcaf38b016ee01fd97430b7bb17e5cca0220659c909ed82521bed7f07bc86bb8a1f6dab3c8b59c1b70beea3b55ccca86adad012102fe67f84dfa00dba586df13b8fc5a48cc8a81e92c2bbd15cf321b862c6a67e7dc", "asm": "304402205a0aed614b986b5367502b060709bfa8fcaf38b016ee01fd97430b7bb17e5cca0220659c909ed82521bed7f07bc86bb8a1f6dab3c8b59c1b70beea3b55ccca86adad[ALL] 02fe67f84dfa00dba586df13b8fc5a48cc8a81e92c2bbd15cf321b862c6a67e7dc"}, "vout": 1, "txid": "e605c7ec349eb1088cb7ff7737c1f6f0dae2460f709254008148f44a85602bd4"}, {"sequence": 4294967295, "scriptSig": {"hex": "483045022100c6dc4445c838a7d35f67573b7e25a57d3908dcaa017d37ec670f6cad1377f53302203116aae21c9ad378209e634cb15a64ec4a404b95c68dbef61bb2fd7d160330f90121026d063dccd44f8f287c0b8f49f28b8e3ef85cc5e0d91feb614a5f04dee25e777d", "asm": "3045022100c6dc4445c838a7d35f67573b7e25a57d3908dcaa017d37ec670f6cad1377f53302203116aae21c9ad378209e634cb15a64ec4a404b95c68dbef61bb2fd7d160330f9[ALL] 026d063dccd44f8f287c0b8f49f28b8e3ef85cc5e0d91feb614a5f04dee25e777d"}, "vout": 8, "txid": "93e19d48b96ba6f513415ff678822cd396a03a6288a69a50f960d6e926cb39d6"}], "txid": "7b989561a5b1db8526f57a896c0cceb9535f412ffa13b7b099ed5c6746bec6c8", "blocktime": 1537875543, "version": 1, "confirmations": 11464, "time": 1537875543, "locktime": 0, "vsize": 371, "size": 371}