{"hash": "7b9b8dd97985cc197e2ca989d8ae9ec3389a4dcc9d6416b1e1d9bc0504c0e04d", "blockhash": "0000000000000000001f0ddff1eddb255c1121bcd4da4f1bc9a0da00cae72433", "vout": [{"scriptPubKey": {"reqSigs": 1, "hex": "76a9148cd1e3beafb9d22e76b9d1dc0f10caf75ed2126c88ac", "addresses": ["1Dqb3F7USEP1Ar7SGUzSgp7efnPiYqUR2R"], "asm": "OP_DUP OP_HASH160 8cd1e3beafb9d22e76b9d1dc0f10caf75ed2126c OP_EQUALVERIFY OP_CHECKSIG", "type": "pubkeyhash"}, "value": 3e-05, "n": 0}, {"scriptPubKey": {"reqSigs": 1, "hex": "76a914dc0b1cd08ce3878c238291cc27c9e33849358b2888ac", "addresses": ["1M4UyKNPqT2C6HHLXuQZkituxJ2GkdZX6t"], "asm": "OP_DUP OP_HASH160 dc0b1cd08ce3878c238291cc27c9e33849358b28 OP_EQUALVERIFY OP_CHECKSIG", "type": "pubkeyhash"}, "value": 2.253e-05, "n": 1}], "hex": "01000000025b3706fba3de8cfa7c48b5073d284618bd353c8ed1ad45509e59519e860d7334010000006b483045022100e571808c34c6c2c4653095f406a25adc8a00b2d6663fe8ba30bbcd200a86303502203c503d41a28f60d90db33547b990acabdd26167df0f76b13a5f7cdc6bc62175d01210200812061cfbff2c1f930bec63cb7c5b5f99495f8f06871771d89e9898712b782feffffff7d02d2704885124d00732827b3dff0c96e1f3340ab9781b1a52979b06ec000a3010000006b483045022100f59847a1013dd1e0530401328eb59f4ccab3ae48a9a88eb621c2b561e5ef90a0022018d76b727018923eb03c5d0655bb4db389022b9cdd986d1a26fed4f58f7f79c1012103336c16b091ddf4e710b8c5f4bb76b8fef84af0202ab484c9f553924b5cf4f6b0feffffff02b80b0000000000001976a9148cd1e3beafb9d22e76b9d1dc0f10caf75ed2126c88accd080000000000001976a914dc0b1cd08ce3878c238291cc27c9e33849358b2888ac10490800", "vin": [{"sequence": 4294967294, "scriptSig": {"hex": "483045022100e571808c34c6c2c4653095f406a25adc8a00b2d6663fe8ba30bbcd200a86303502203c503d41a28f60d90db33547b990acabdd26167df0f76b13a5f7cdc6bc62175d01210200812061cfbff2c1f930bec63cb7c5b5f99495f8f06871771d89e9898712b782", "asm": "3045022100e571808c34c6c2c4653095f406a25adc8a00b2d6663fe8ba30bbcd200a86303502203c503d41a28f60d90db33547b990acabdd26167df0f76b13a5f7cdc6bc62175d[ALL] 0200812061cfbff2c1f930bec63cb7c5b5f99495f8f06871771d89e9898712b782"}, "vout": 1, "txid": "34730d869e51599e5045add18e3c35bd1846283d07b5487cfa8cdea3fb06375b"}, {"sequence": 4294967294, "scriptSig": {"hex": "483045022100f59847a1013dd1e0530401328eb59f4ccab3ae48a9a88eb621c2b561e5ef90a0022018d76b727018923eb03c5d0655bb4db389022b9cdd986d1a26fed4f58f7f79c1012103336c16b091ddf4e710b8c5f4bb76b8fef84af0202ab484c9f553924b5cf4f6b0", "asm": "3045022100f59847a1013dd1e0530401328eb59f4ccab3ae48a9a88eb621c2b561e5ef90a0022018d76b727018923eb03c5d0655bb4db389022b9cdd986d1a26fed4f58f7f79c1[ALL] 03336c16b091ddf4e710b8c5f4bb76b8fef84af0202ab484c9f553924b5cf4f6b0"}, "vout": 1, "txid": "a300c06eb07929a5b18197ab40331f6ec9f0dfb3272873004d12854870d2027d"}], "txid": "7b9b8dd97985cc197e2ca989d8ae9ec3389a4dcc9d6416b1e1d9bc0504c0e04d", "blocktime": 1537872018, "version": 1, "confirmations": 11489, "time": 1537872018, "locktime": 542992, "vsize": 374, "size": 374}