{"hash": "7b9c102d25e673d435041b48ee64ceebd9794c3ca16992d42d3169f8cabb20ff", "blockhash": "00000000000000000024a2167bbff67b0be802c0b01cdd79e6331c2be6459f87", "vout": [{"scriptPubKey": {"reqSigs": 1, "hex": "76a9148826b1cf5c0e762b98abb67362bf629aa0f81bcb88ac", "addresses": ["1DQuFdpX694KwiSxnnqPJQFvqK2pjTfwQ8"], "asm": "OP_DUP OP_HASH160 8826b1cf5c0e762b98abb67362bf629aa0f81bcb OP_EQUALVERIFY OP_CHECKSIG", "type": "pubkeyhash"}, "value": 9.292e-05, "n": 0}, {"scriptPubKey": {"reqSigs": 1, "hex": "76a914ada272190e4e56a69e7b97a801afc4f0b86aeeca88ac", "addresses": ["1Gq6W7TnooLGHcThi9sQEgq1FPfwiuLbua"], "asm": "OP_DUP OP_HASH160 ada272190e4e56a69e7b97a801afc4f0b86aeeca OP_EQUALVERIFY OP_CHECKSIG", "type": "pubkeyhash"}, "value": 0.00405573, "n": 1}], "hex": "01000000016029ead61bb90c55f51b10b1c285ec0f9fb83579d2bc77b0fa4e922a0d93763f010000006b4830450221009f5ec2ce445e0003a401301bbb55123360d9ada2dfd4c1979d744f248ce28c6d02201a4fb8fbaea52cde6d015b8ba611ca7a43be2af02dd1d8105794e5d779c76d26012102bbd274add305b928de7861ba06e8f44b3b81f23719745faf14b67cad43047470ffffffff024c240000000000001976a9148826b1cf5c0e762b98abb67362bf629aa0f81bcb88ac45300600000000001976a914ada272190e4e56a69e7b97a801afc4f0b86aeeca88ac00000000", "vin": [{"sequence": 4294967295, "scriptSig": {"hex": "4830450221009f5ec2ce445e0003a401301bbb55123360d9ada2dfd4c1979d744f248ce28c6d02201a4fb8fbaea52cde6d015b8ba611ca7a43be2af02dd1d8105794e5d779c76d26012102bbd274add305b928de7861ba06e8f44b3b81f23719745faf14b67cad43047470", "asm": "30450221009f5ec2ce445e0003a401301bbb55123360d9ada2dfd4c1979d744f248ce28c6d02201a4fb8fbaea52cde6d015b8ba611ca7a43be2af02dd1d8105794e5d779c76d26[ALL] 02bbd274add305b928de7861ba06e8f44b3b81f23719745faf14b67cad43047470"}, "vout": 1, "txid": "3f76930d2a924efab077bcd27935b89f0fec85c2b1101bf5550cb91bd6ea2960"}], "txid": "7b9c102d25e673d435041b48ee64ceebd9794c3ca16992d42d3169f8cabb20ff", "blocktime": 1537870564, "version": 1, "confirmations": 11515, "time": 1537870564, "locktime": 0, "vsize": 226, "size": 226}