{"hash": "7b9ed87b84bf8279426e9beb42a0d0a0b5178d9a4b3cc8de03309a7711786f9b", "blockhash": "00000000000000000017f5eb5941039fbcee6240d03bc1f2f8e35350df66a1d8", "vout": [{"scriptPubKey": {"reqSigs": 1, "hex": "a914b8aacfe8744212e585da529d32635cad9e3e7caf87", "addresses": ["3JXSt5NRtFRjFfkCp8iTgMupfitUvfEA5f"], "asm": "OP_HASH160 b8aacfe8744212e585da529d32635cad9e3e7caf OP_EQUAL", "type": "scripthash"}, "value": 0.08103803, "n": 0}], "hex": "0100000001f1971e899b66da79911d13d2fd10d72e2c2503120d73c746a9df600ccc2b2efe000000006a47304402201fb73b3aa5cd03dec478ad81c950cf4c865c875601208786463b10df2a69db9802201e573dd37b481afcc2942388a2f7d6493da298b037b14902b9c07e5ccd6a7d230121036542d30ac7ab522c02326880b7d638f4f59a3815c7f874aaefb2ae1555365e3dffffffff017ba77b000000000017a914b8aacfe8744212e585da529d32635cad9e3e7caf8700000000", "vin": [{"sequence": 4294967295, "scriptSig": {"hex": "47304402201fb73b3aa5cd03dec478ad81c950cf4c865c875601208786463b10df2a69db9802201e573dd37b481afcc2942388a2f7d6493da298b037b14902b9c07e5ccd6a7d230121036542d30ac7ab522c02326880b7d638f4f59a3815c7f874aaefb2ae1555365e3d", "asm": "304402201fb73b3aa5cd03dec478ad81c950cf4c865c875601208786463b10df2a69db9802201e573dd37b481afcc2942388a2f7d6493da298b037b14902b9c07e5ccd6a7d23[ALL] 036542d30ac7ab522c02326880b7d638f4f59a3815c7f874aaefb2ae1555365e3d"}, "vout": 0, "txid": "fe2e2bcc0c60dfa946c7730d1203252c2ed710fdd2131d9179da669b891e97f1"}], "txid": "7b9ed87b84bf8279426e9beb42a0d0a0b5178d9a4b3cc8de03309a7711786f9b", "blocktime": 1537874412, "version": 1, "confirmations": 11466, "time": 1537874412, "locktime": 0, "vsize": 189, "size": 189}