{"hash": "c163318f1cf12d09851670871c466f6408734b183855760c56661a9243d6df33", "blockhash": "0000000000000000000baef3f32e3676a92c3b2e5da21b426e4f302fc371ce76", "vout": [{"scriptPubKey": {"reqSigs": 1, "hex": "a91490e99e8d26d05ead3c05430c292a887bbff695f587", "addresses": ["3EuF6KjJawxTiUsea3Sc8hsLUGmVEf7Xg5"], "asm": "OP_HASH160 90e99e8d26d05ead3c05430c292a887bbff695f5 OP_EQUAL", "type": "scripthash"}, "value": 0.00117588, "n": 0}, {"scriptPubKey": {"type": "nulldata", "hex": "6a146f6d6e69000000000000001f0000000005f5e100", "asm": "OP_RETURN 6f6d6e69000000000000001f0000000005f5e100"}, "value": 0.0, "n": 1}, {"scriptPubKey": {"reqSigs": 1, "hex": "a91490e99e8d26d05ead3c05430c292a887bbff695f587", "addresses": ["3EuF6KjJawxTiUsea3Sc8hsLUGmVEf7Xg5"], "asm": "OP_HASH160 90e99e8d26d05ead3c05430c292a887bbff695f5 OP_EQUAL", "type": "scripthash"}, "value": 5.4e-06, "n": 2}], "hex": "01000000000102a803931e4975e3c08543c44f0269f55d557f375acb0c9a17c1d37911d6d21fac0000000017160014f6e1792e7852ebd5ae795c2a25d579acdfadec2dffffffffa803931e4975e3c08543c44f0269f55d557f375acb0c9a17c1d37911d6d21fac0200000017160014f6e1792e7852ebd5ae795c2a25d579acdfadec2dffffffff0354cb01000000000017a91490e99e8d26d05ead3c05430c292a887bbff695f5870000000000000000166a146f6d6e69000000000000001f0000000005f5e1001c0200000000000017a91490e99e8d26d05ead3c05430c292a887bbff695f58702483045022100d2d106efc1a4a10703b30e2de87a21b883fe6fb9df35a399287c8e56ae0a662a0220423ae3dee261cc083d82c2ca41a5531118522a594ca10575abc6d82980821065012103f1cf988013a33e053d1e9bd54c4798c1a6dc362a5b2798b5344049fca40e2db002473044022023c58646fcd1ddc4f3d1407629980ec9af58c90599128cd32216c4d271b712ed022058ca31754ae90e31fe7f3f8426cd50c63ea555b91b5910afdbd1b6629ec5d991012103f1cf988013a33e053d1e9bd54c4798c1a6dc362a5b2798b5344049fca40e2db000000000", "vin": [{"txinwitness": ["3045022100d2d106efc1a4a10703b30e2de87a21b883fe6fb9df35a399287c8e56ae0a662a0220423ae3dee261cc083d82c2ca41a5531118522a594ca10575abc6d8298082106501", "03f1cf988013a33e053d1e9bd54c4798c1a6dc362a5b2798b5344049fca40e2db0"], "sequence": 4294967295, "scriptSig": {"hex": "160014f6e1792e7852ebd5ae795c2a25d579acdfadec2d", "asm": "0014f6e1792e7852ebd5ae795c2a25d579acdfadec2d"}, "vout": 0, "txid": "ac1fd2d61179d3c1179a0ccb5a377f555df569024fc44385c0e375491e9303a8"}, {"txinwitness": ["3044022023c58646fcd1ddc4f3d1407629980ec9af58c90599128cd32216c4d271b712ed022058ca31754ae90e31fe7f3f8426cd50c63ea555b91b5910afdbd1b6629ec5d99101", "03f1cf988013a33e053d1e9bd54c4798c1a6dc362a5b2798b5344049fca40e2db0"], "sequence": 4294967295, "scriptSig": {"hex": "160014f6e1792e7852ebd5ae795c2a25d579acdfadec2d", "asm": "0014f6e1792e7852ebd5ae795c2a25d579acdfadec2d"}, "vout": 2, "txid": "ac1fd2d61179d3c1179a0ccb5a377f555df569024fc44385c0e375491e9303a8"}], "txid": "7ba2add36973aa923237b2beab0899ea11200f1f0b81fb7f169447bd41365be1", "blocktime": 1537876114, "version": 1, "confirmations": 11460, "time": 1537876114, "locktime": 0, "vsize": 288, "size": 450}