{"hash": "7ba5b79bf00fc0630f65d1a26edb016b098931e8f015100ac2d6a315561e0ce6", "blockhash": "00000000000000000004ffacab907a6b429b9a5745fa0b75af4234bf69dd7176", "vout": [{"scriptPubKey": {"reqSigs": 1, "hex": "76a914abb6141392bc3840aad3d4fb0a4b4a5f318c998588ac", "addresses": ["1GevfqMT7S5HmJfnbp37xvTbn5wjPLZX4G"], "asm": "OP_DUP OP_HASH160 abb6141392bc3840aad3d4fb0a4b4a5f318c9985 OP_EQUALVERIFY OP_CHECKSIG", "type": "pubkeyhash"}, "value": 1.1, "n": 0}, {"scriptPubKey": {"reqSigs": 1, "hex": "76a914986862abb895adbbdd8497bea2ac19ba55276a5e88ac", "addresses": ["1Etrkz9MaTD15wKc4FZWp62VGndJ7LVhgq"], "asm": "OP_DUP OP_HASH160 986862abb895adbbdd8497bea2ac19ba55276a5e OP_EQUALVERIFY OP_CHECKSIG", "type": "pubkeyhash"}, "value": 2.89992, "n": 1}], "hex": "01000000019edf152109971bb6c9f5d139bb8ace3a41f3363aa5d0ef5cb006a75123bae827010000006b48304502210085a1a52b0786a8d7914ab37251f99d771adf47bc4cd8c53b062381d3a65264a002201d73c220c007a49e4313ef61812023aacc75cef0ff24606db0d974d8f7bb5dda012102de3c809662645c078fd26064aa11df25270ac40e5b2277bcd158ae892e72ab52ffffffff0280778e06000000001976a914abb6141392bc3840aad3d4fb0a4b4a5f318c998588ac40ed4811000000001976a914986862abb895adbbdd8497bea2ac19ba55276a5e88ac00000000", "vin": [{"sequence": 4294967295, "scriptSig": {"hex": "48304502210085a1a52b0786a8d7914ab37251f99d771adf47bc4cd8c53b062381d3a65264a002201d73c220c007a49e4313ef61812023aacc75cef0ff24606db0d974d8f7bb5dda012102de3c809662645c078fd26064aa11df25270ac40e5b2277bcd158ae892e72ab52", "asm": "304502210085a1a52b0786a8d7914ab37251f99d771adf47bc4cd8c53b062381d3a65264a002201d73c220c007a49e4313ef61812023aacc75cef0ff24606db0d974d8f7bb5dda[ALL] 02de3c809662645c078fd26064aa11df25270ac40e5b2277bcd158ae892e72ab52"}, "vout": 1, "txid": "27e8ba2351a706b05cefd0a53a36f3413ace8abb39d1f5c9b61b97092115df9e"}], "txid": "7ba5b79bf00fc0630f65d1a26edb016b098931e8f015100ac2d6a315561e0ce6", "blocktime": 1537875543, "version": 1, "confirmations": 11464, "time": 1537875543, "locktime": 0, "vsize": 226, "size": 226}