{"hash": "006e0eb3b9548d50a2870ec692a8a4933215feae471f2e1a98c9c9b7a5120bbc", "blockhash": "0000000000000000001cda96e906b7601b7a6fb1a3b62bca570a9e5d8f4b3de1", "vout": [{"scriptPubKey": {"reqSigs": 1, "hex": "76a914cb7cd9485a1c060767c17d2cbcab45b8829e5b3b88ac", "addresses": ["1KYwjaxfshLzGtGNGztTKr3LCiB7UEsZk1"], "asm": "OP_DUP OP_HASH160 cb7cd9485a1c060767c17d2cbcab45b8829e5b3b OP_EQUALVERIFY OP_CHECKSIG", "type": "pubkeyhash"}, "value": 0.024548, "n": 0}, {"scriptPubKey": {"reqSigs": 1, "hex": "a91443f62a3d4933e05622cd51c77017b970eed9a05b87", "addresses": ["37tN6EtYzsorm6zBcpfWz8w5xRNy3mab33"], "asm": "OP_HASH160 43f62a3d4933e05622cd51c77017b970eed9a05b OP_EQUAL", "type": "scripthash"}, "value": 0.16331941, "n": 1}], "hex": "0100000000010194436fad2fc3f9b53f0174e36c2f08d5487b49994c0bc1a972b03f84e9554be101000000232200201dd6ce43abdc84f34fdcc73ab17bc29ae9c934e26a45e54e686de9b71cb3af4affffffff0210752500000000001976a914cb7cd9485a1c060767c17d2cbcab45b8829e5b3b88aca534f9000000000017a91443f62a3d4933e05622cd51c77017b970eed9a05b8704004730440220467c0ff12f8b31d1e915c69b5c2aaa08260d6ab489037289ff042a419ad2c05402201327c2fc8ca9e702784b1c2df4da017d3a6250cdd7b8db480010ff74246f38dc01483045022100af33e8bfc1940070abb9b118962fdd9008ac3d3832a75e903abbf59960b14a89022062c859567f6ecd6f498ea0ba2b7283ddb7109464f340ca0724080ce2e64522c001475221023d094ce44231935102dd1c672bc70808e5831d5d55d4082df3b1d9c342a4f7b92103c86ff487c5c7bef620008af5c952420bf509584280226750bb54cc3b293fd7ec52ae00000000", "vin": [{"txinwitness": ["", "30440220467c0ff12f8b31d1e915c69b5c2aaa08260d6ab489037289ff042a419ad2c05402201327c2fc8ca9e702784b1c2df4da017d3a6250cdd7b8db480010ff74246f38dc01", "3045022100af33e8bfc1940070abb9b118962fdd9008ac3d3832a75e903abbf59960b14a89022062c859567f6ecd6f498ea0ba2b7283ddb7109464f340ca0724080ce2e64522c001", "5221023d094ce44231935102dd1c672bc70808e5831d5d55d4082df3b1d9c342a4f7b92103c86ff487c5c7bef620008af5c952420bf509584280226750bb54cc3b293fd7ec52ae"], "sequence": 4294967295, "scriptSig": {"hex": "2200201dd6ce43abdc84f34fdcc73ab17bc29ae9c934e26a45e54e686de9b71cb3af4a", "asm": "00201dd6ce43abdc84f34fdcc73ab17bc29ae9c934e26a45e54e686de9b71cb3af4a"}, "vout": 1, "txid": "e14b55e9843fb072a9c10b4c99497b48d5082f6ce374013fb5f9c32fad6f4394"}], "txid": "7ba9eea09c09f12f9d7709f1667234de2f712e4eddfc9a6fd3e66a4973dcfc0e", "blocktime": 1537873282, "version": 1, "confirmations": 11484, "time": 1537873282, "locktime": 0, "vsize": 208, "size": 373}