{"hash": "9a8b09078ecd4fca5d5553e729c21b9cd448db1d62227953399c15049860377a", "blockhash": "000000000000000000022b45ed06c6f4ccd3cf7fb5ba4856ebd2e58215665228", "vout": [{"scriptPubKey": {"reqSigs": 1, "hex": "a9147c7e63a9c94acfc3d0307d1f28f0a533dd89f1f387", "addresses": ["3D3H81m26vr3TAA7ZSp2wvGeySzbQvEEJg"], "asm": "OP_HASH160 7c7e63a9c94acfc3d0307d1f28f0a533dd89f1f3 OP_EQUAL", "type": "scripthash"}, "value": 0.07, "n": 0}, {"scriptPubKey": {"reqSigs": 1, "hex": "a914977b60ffa49a0cdf68c772ea1b200f20d32f255087", "addresses": ["3FVym2VGZPTLxmZ4GihSRy8M8uQq2tcXY8"], "asm": "OP_HASH160 977b60ffa49a0cdf68c772ea1b200f20d32f2550 OP_EQUAL", "type": "scripthash"}, "value": 0.01006417, "n": 1}], "hex": "02000000000101c7090498b2c19bd4062f0ccc96c5928ae953ec866e48eeb69cc7a45158533c8301000000171600146247db34b8eab5d9f69689203103e7e1f31a359cfdffffff02c0cf6a000000000017a9147c7e63a9c94acfc3d0307d1f28f0a533dd89f1f387515b0f000000000017a914977b60ffa49a0cdf68c772ea1b200f20d32f2550870247304402207eff7f8568795ffc33b57c9f5798b9ea8ce72db7caa6363897a2b6478251c8f7022016c53fe6ff846c5b039731836f6ea2a0b0da894447ef2ecb1f89bd41580416f20121033e769f05ca5e20d02a62c4ff804bb988fd2d314ed721e4ecfe511dfd1b8da04700000000", "vin": [{"txinwitness": ["304402207eff7f8568795ffc33b57c9f5798b9ea8ce72db7caa6363897a2b6478251c8f7022016c53fe6ff846c5b039731836f6ea2a0b0da894447ef2ecb1f89bd41580416f201", "033e769f05ca5e20d02a62c4ff804bb988fd2d314ed721e4ecfe511dfd1b8da047"], "sequence": 4294967293, "scriptSig": {"hex": "1600146247db34b8eab5d9f69689203103e7e1f31a359c", "asm": "00146247db34b8eab5d9f69689203103e7e1f31a359c"}, "vout": 1, "txid": "833c535851a4c79cb6ee486e86ec53e98a92c596cc0c2f06d49bc1b2980409c7"}], "txid": "7ba9a7ad1d51f392856234ba6849e365b565e61112837a55deab0c5524b9babe", "blocktime": 1537869901, "version": 2, "confirmations": 11523, "time": 1537869901, "locktime": 0, "vsize": 166, "size": 247}