{"hash": "7bb38a21d506ede587a3a2cea80dc12d1a35e12c23c8f3bdcf45d2aef2c751e8", "blockhash": "00000000000000000018f53835495a110e01622372bf6ae95dc86f2b0ab887b0", "vout": [{"scriptPubKey": {"reqSigs": 1, "hex": "76a91483aa783fc31929573b17410615d5334eb128ff8e88ac", "addresses": ["1D1BjaHCdc6ZoRvWGnCN2ysYwUKbnE8A8J"], "asm": "OP_DUP OP_HASH160 83aa783fc31929573b17410615d5334eb128ff8e OP_EQUALVERIFY OP_CHECKSIG", "type": "pubkeyhash"}, "value": 1.774e-05, "n": 0}, {"scriptPubKey": {"reqSigs": 1, "hex": "a914c4f77734be2f5b13ea1f06403d7b914d1969b05287", "addresses": ["3KeUpMfuwLqe8kQa2oL8J1m1hNkvkNQb9A"], "asm": "OP_HASH160 c4f77734be2f5b13ea1f06403d7b914d1969b052 OP_EQUAL", "type": "scripthash"}, "value": 0.00031216, "n": 1}], "hex": "010000000367e2b30d521250c3969bdf65c9b011f7e5637165efc567ccbf869b499406f521000000006a47304402201bb32881846a98c0f65e070d68642d6943fc22ce8ac903dae60b5abe5a0e949c0220621c564608d0fb34b95859649945d3462f2c81f9b11fc310ff8dde0f84fc90570121032958ada4757cce088f4cd79032d9f83f4098e0ad38986944eb8d07f4103a9540ffffffffb701a70bf07578498f675c4d4676e5656adc441e8a805e69b888601284d4c832000000006b483045022100c6a3c992d218945c2d44a2539271225514f429cdd1499ede1fb98a98cdc3f4750220149cc18064ee95a6bee46013048024130a17a27baae39de66e1095bbaadd40880121032958ada4757cce088f4cd79032d9f83f4098e0ad38986944eb8d07f4103a9540ffffffff219f3942f675c5be276318c1e1c645afa4b4621e4c85713b917d7c06f1d4f538e70100006a473044022017c2cab18f445d71f12ce9937d0d208d2d60038acaf72f3907d847f611b5ad6a02201843881d7295dddbcd9421d2a1f7ad56f04890c97015be1f6b47873917e01fb60121032958ada4757cce088f4cd79032d9f83f4098e0ad38986944eb8d07f4103a9540ffffffff02ee060000000000001976a91483aa783fc31929573b17410615d5334eb128ff8e88acf07900000000000017a914c4f77734be2f5b13ea1f06403d7b914d1969b0528700000000", "vin": [{"sequence": 4294967295, "scriptSig": {"hex": "47304402201bb32881846a98c0f65e070d68642d6943fc22ce8ac903dae60b5abe5a0e949c0220621c564608d0fb34b95859649945d3462f2c81f9b11fc310ff8dde0f84fc90570121032958ada4757cce088f4cd79032d9f83f4098e0ad38986944eb8d07f4103a9540", "asm": "304402201bb32881846a98c0f65e070d68642d6943fc22ce8ac903dae60b5abe5a0e949c0220621c564608d0fb34b95859649945d3462f2c81f9b11fc310ff8dde0f84fc9057[ALL] 032958ada4757cce088f4cd79032d9f83f4098e0ad38986944eb8d07f4103a9540"}, "vout": 0, "txid": "21f50694499b86bfcc67c5ef657163e5f711b0c965df9b96c35012520db3e267"}, {"sequence": 4294967295, "scriptSig": {"hex": "483045022100c6a3c992d218945c2d44a2539271225514f429cdd1499ede1fb98a98cdc3f4750220149cc18064ee95a6bee46013048024130a17a27baae39de66e1095bbaadd40880121032958ada4757cce088f4cd79032d9f83f4098e0ad38986944eb8d07f4103a9540", "asm": "3045022100c6a3c992d218945c2d44a2539271225514f429cdd1499ede1fb98a98cdc3f4750220149cc18064ee95a6bee46013048024130a17a27baae39de66e1095bbaadd4088[ALL] 032958ada4757cce088f4cd79032d9f83f4098e0ad38986944eb8d07f4103a9540"}, "vout": 0, "txid": "32c8d484126088b8695e808a1e44dc6a65e576464d5c678f497875f00ba701b7"}, {"sequence": 4294967295, "scriptSig": {"hex": "473044022017c2cab18f445d71f12ce9937d0d208d2d60038acaf72f3907d847f611b5ad6a02201843881d7295dddbcd9421d2a1f7ad56f04890c97015be1f6b47873917e01fb60121032958ada4757cce088f4cd79032d9f83f4098e0ad38986944eb8d07f4103a9540", "asm": "3044022017c2cab18f445d71f12ce9937d0d208d2d60038acaf72f3907d847f611b5ad6a02201843881d7295dddbcd9421d2a1f7ad56f04890c97015be1f6b47873917e01fb6[ALL] 032958ada4757cce088f4cd79032d9f83f4098e0ad38986944eb8d07f4103a9540"}, "vout": 487, "txid": "38f5d4f1067c7d913b71854c1e62b4a4af45c6e1c1186327bec575f642399f21"}], "txid": "7bb38a21d506ede587a3a2cea80dc12d1a35e12c23c8f3bdcf45d2aef2c751e8", "blocktime": 1537870928, "version": 1, "confirmations": 11514, "time": 1537870928, "locktime": 0, "vsize": 518, "size": 518}