{"hash": "7bb43b2f20b55d824093013cc8381fb6492a3b4fa8354322455a4381e2c3680f", "blockhash": "0000000000000000000e13cef7c366c0283d82e591d1acd082e914b08063cdf1", "vout": [{"scriptPubKey": {"reqSigs": 1, "hex": "76a9140575f5bdae996fb6ccf023d05f92b736f2aa202888ac", "addresses": ["1VsgxbHEeGzRfBzfGJCAcB2GMM66GoAte"], "asm": "OP_DUP OP_HASH160 0575f5bdae996fb6ccf023d05f92b736f2aa2028 OP_EQUALVERIFY OP_CHECKSIG", "type": "pubkeyhash"}, "value": 0.00499544, "n": 0}, {"scriptPubKey": {"reqSigs": 1, "hex": "a91423d2966182530c65f198d314355cf504a38de5ea87", "addresses": ["34xRr8R2GDHyat9riJym2pt5DPhAVe41AR"], "asm": "OP_HASH160 23d2966182530c65f198d314355cf504a38de5ea OP_EQUAL", "type": "scripthash"}, "value": 0.0109431, "n": 1}], "hex": "01000000017e8e05a82a3ae5e34345e1361c037e10feb4c7cbcb718f3c27eae448e4c08f9d000000006a4730440220145723ccec544a1db399bd65d8f6337a492c7e46ad5c8487a6f591d61e82d43b02202f1cc6b71424001465e81330a537f5b427a0b998a6cbcc9fffc52d332d058e7b012102d73680b00eecf4e7f7583092f5f6ebbcf0cdb5327d7a8de0263f366699ebbf18ffffffff02589f0700000000001976a9140575f5bdae996fb6ccf023d05f92b736f2aa202888aca6b210000000000017a91423d2966182530c65f198d314355cf504a38de5ea8700000000", "vin": [{"sequence": 4294967295, "scriptSig": {"hex": "4730440220145723ccec544a1db399bd65d8f6337a492c7e46ad5c8487a6f591d61e82d43b02202f1cc6b71424001465e81330a537f5b427a0b998a6cbcc9fffc52d332d058e7b012102d73680b00eecf4e7f7583092f5f6ebbcf0cdb5327d7a8de0263f366699ebbf18", "asm": "30440220145723ccec544a1db399bd65d8f6337a492c7e46ad5c8487a6f591d61e82d43b02202f1cc6b71424001465e81330a537f5b427a0b998a6cbcc9fffc52d332d058e7b[ALL] 02d73680b00eecf4e7f7583092f5f6ebbcf0cdb5327d7a8de0263f366699ebbf18"}, "vout": 0, "txid": "9d8fc0e448e4ea273c8f71cbcbc7b4fe107e031c36e14543e3e53a2aa8058e7e"}], "txid": "7bb43b2f20b55d824093013cc8381fb6492a3b4fa8354322455a4381e2c3680f", "blocktime": 1537871767, "version": 1, "confirmations": 11495, "time": 1537871767, "locktime": 0, "vsize": 223, "size": 223}