{"hash": "7bbc9060c51b48bf92831d1784fa48b3e7f51fbf2c31d5edf1863de5740e12bf", "blockhash": "0000000000000000000dcc0f55137456b1a82d3642486a52398922ac4d620174", "vout": [{"scriptPubKey": {"reqSigs": 1, "hex": "76a9140fc8b3d8b98b496b88103ed15224754907cf246c88ac", "addresses": ["12STZw91cGZjjpXUBCGAU1pwshAM8MjjSz"], "asm": "OP_DUP OP_HASH160 0fc8b3d8b98b496b88103ed15224754907cf246c OP_EQUALVERIFY OP_CHECKSIG", "type": "pubkeyhash"}, "value": 0.00781214, "n": 0}, {"scriptPubKey": {"reqSigs": 1, "hex": "76a9147fcd09e690494f9eb7c91485a30b00ecb980596e88ac", "addresses": ["1CekShZVVeMeJgaPK3HgN2D6qDL2BSxTyi"], "asm": "OP_DUP OP_HASH160 7fcd09e690494f9eb7c91485a30b00ecb980596e OP_EQUALVERIFY OP_CHECKSIG", "type": "pubkeyhash"}, "value": 0.03476883, "n": 1}], "hex": "01000000015541ed2fd3ea3d520edb82a30a32607e27532cd2f83ea20120bcbbb98f5d658d010000006a47304402201772d641b017dc59042766e3e6c4d099f5036641e04fd530ee19aaaea79d28f6022037f1985c476bcb4a350c1f1f2ebb6e7587e9cdb2346a2fd3757df28303fc9fa8012102cb20d25fe49079942980b53e722539e8a934f5b8a69d0ae962d41cca69ed426dfdffffff029eeb0b00000000001976a9140fc8b3d8b98b496b88103ed15224754907cf246c88ac930d3500000000001976a9147fcd09e690494f9eb7c91485a30b00ecb980596e88ac0c490800", "vin": [{"sequence": 4294967293, "scriptSig": {"hex": "47304402201772d641b017dc59042766e3e6c4d099f5036641e04fd530ee19aaaea79d28f6022037f1985c476bcb4a350c1f1f2ebb6e7587e9cdb2346a2fd3757df28303fc9fa8012102cb20d25fe49079942980b53e722539e8a934f5b8a69d0ae962d41cca69ed426d", "asm": "304402201772d641b017dc59042766e3e6c4d099f5036641e04fd530ee19aaaea79d28f6022037f1985c476bcb4a350c1f1f2ebb6e7587e9cdb2346a2fd3757df28303fc9fa8[ALL] 02cb20d25fe49079942980b53e722539e8a934f5b8a69d0ae962d41cca69ed426d"}, "vout": 1, "txid": "8d655d8fb9bbbc2001a23ef8d22c53277e60320aa382db0e523dead32fed4155"}], "txid": "7bbc9060c51b48bf92831d1784fa48b3e7f51fbf2c31d5edf1863de5740e12bf", "blocktime": 1537870268, "version": 1, "confirmations": 11519, "time": 1537870268, "locktime": 542988, "vsize": 225, "size": 225}