{"hash": "7bbce734a0692a26416668a6f6886fc0ff398199cd644820f4001aa22bab2b40", "blockhash": "00000000000000000017f5eb5941039fbcee6240d03bc1f2f8e35350df66a1d8", "vout": [{"scriptPubKey": {"reqSigs": 1, "hex": "76a914034e4f1e9cd4c9c4eebdfa540b14071e59d5ab9a88ac", "addresses": ["1JUqau1mDaqXjnTm4PAjo5pWdEksBLGjY"], "asm": "OP_DUP OP_HASH160 034e4f1e9cd4c9c4eebdfa540b14071e59d5ab9a OP_EQUALVERIFY OP_CHECKSIG", "type": "pubkeyhash"}, "value": 0.00234567, "n": 0}, {"scriptPubKey": {"reqSigs": 1, "hex": "76a91447ef13a52aba2b26a4a7c74165c74cd21d7357cb88ac", "addresses": ["17ZMNxrYBxvh2DRSCsEPBxk5L4D5HMuWbF"], "asm": "OP_DUP OP_HASH160 47ef13a52aba2b26a4a7c74165c74cd21d7357cb OP_EQUALVERIFY OP_CHECKSIG", "type": "pubkeyhash"}, "value": 0.15786329, "n": 1}], "hex": "01000000013e518b358d39022ca335943abf66a481394b4e3c5fdb23a6b2847288e9442c8a010000006b483045022100ea1fc41457ebf419e21561570eaa6abbf2287cb8ee7b0a4880c7bc8b8530c68302201af6d66bef93014a7d043eb77eb6c98c0acbbc7a30a0d56f52ab651eb18836ec0121024a5499a8291e793f75afea17aa37330aabb734eb97207cdfe8a3bd14c36a1c14ffffffff0247940300000000001976a914034e4f1e9cd4c9c4eebdfa540b14071e59d5ab9a88ac59e1f000000000001976a91447ef13a52aba2b26a4a7c74165c74cd21d7357cb88ac00000000", "vin": [{"sequence": 4294967295, "scriptSig": {"hex": "483045022100ea1fc41457ebf419e21561570eaa6abbf2287cb8ee7b0a4880c7bc8b8530c68302201af6d66bef93014a7d043eb77eb6c98c0acbbc7a30a0d56f52ab651eb18836ec0121024a5499a8291e793f75afea17aa37330aabb734eb97207cdfe8a3bd14c36a1c14", "asm": "3045022100ea1fc41457ebf419e21561570eaa6abbf2287cb8ee7b0a4880c7bc8b8530c68302201af6d66bef93014a7d043eb77eb6c98c0acbbc7a30a0d56f52ab651eb18836ec[ALL] 024a5499a8291e793f75afea17aa37330aabb734eb97207cdfe8a3bd14c36a1c14"}, "vout": 1, "txid": "8a2c44e9887284b2a623db5f3c4e4b3981a466bf3a9435a32c02398d358b513e"}], "txid": "7bbce734a0692a26416668a6f6886fc0ff398199cd644820f4001aa22bab2b40", "blocktime": 1537874412, "version": 1, "confirmations": 11467, "time": 1537874412, "locktime": 0, "vsize": 226, "size": 226}