{"hash": "3b803f9dfb6a0ca017de81dcad759b5d008d80cb2131251b9c220d315b3d1992", "blockhash": "0000000000000000001cda96e906b7601b7a6fb1a3b62bca570a9e5d8f4b3de1", "vout": [{"scriptPubKey": {"reqSigs": 1, "hex": "76a914af14d8bdfddd29dc2679916326d94bd2d506aee688ac", "addresses": ["1GxkE2DHGnd1qmsm7G9VtvTVnrog2K3zq6"], "asm": "OP_DUP OP_HASH160 af14d8bdfddd29dc2679916326d94bd2d506aee6 OP_EQUALVERIFY OP_CHECKSIG", "type": "pubkeyhash"}, "value": 0.00769258, "n": 0}, {"scriptPubKey": {"reqSigs": 1, "hex": "a914842d7a306d6572ceb441bb90a28f64a44f87721287", "addresses": ["3Djubgc7dpzefJpcpbbQiDxXsPMQJRuthn"], "asm": "OP_HASH160 842d7a306d6572ceb441bb90a28f64a44f877212 OP_EQUAL", "type": "scripthash"}, "value": 0.01007978, "n": 1}], "hex": "02000000000102077ae72c3271170678eb23aba05c3c3bd5cc01aa05ada228ab2efdee2761ac621f00000017160014734c7ccc7a26e33735fd0d2cfceafe2aae212972fefffffffc3ad120ab8a132a50375675e41770c9333769c54cc5e59cc68f3be87e444798010000001716001446ecbb053e63c7d3e9a7a927a5c23b95d8cde5a8feffffff02eabc0b00000000001976a914af14d8bdfddd29dc2679916326d94bd2d506aee688ac6a610f000000000017a914842d7a306d6572ceb441bb90a28f64a44f8772128702473044022029e1ef7d0a0f7796dbf2d997393af3bbfc52e68db58e7b80a3f938ca029dee1502202f4389f9443879970df54fc4f0b10f3d3021a116046f46305538c8667477ef2901210252cb6ca242bb067e0abfce96ea242f8a08594a9350024c99465aeeeb514c763d024830450221009e48846770fa7b0de838735212a349c4a46a8411d68179650726aab32f357447022014b9953ee3f97d8779f9997c825559d671c7f9a924cd2882fbcf223b7263d77f012103ccda767fc8bb4a145b303947c53355319f6690c8fc197ee68fcc63dbd18356ea13490800", "vin": [{"txinwitness": ["3044022029e1ef7d0a0f7796dbf2d997393af3bbfc52e68db58e7b80a3f938ca029dee1502202f4389f9443879970df54fc4f0b10f3d3021a116046f46305538c8667477ef2901", "0252cb6ca242bb067e0abfce96ea242f8a08594a9350024c99465aeeeb514c763d"], "sequence": 4294967294, "scriptSig": {"hex": "160014734c7ccc7a26e33735fd0d2cfceafe2aae212972", "asm": "0014734c7ccc7a26e33735fd0d2cfceafe2aae212972"}, "vout": 31, "txid": "62ac6127eefd2eab28a2ad05aa01ccd53b3c5ca0ab23eb78061771322ce77a07"}, {"txinwitness": ["30450221009e48846770fa7b0de838735212a349c4a46a8411d68179650726aab32f357447022014b9953ee3f97d8779f9997c825559d671c7f9a924cd2882fbcf223b7263d77f01", "03ccda767fc8bb4a145b303947c53355319f6690c8fc197ee68fcc63dbd18356ea"], "sequence": 4294967294, "scriptSig": {"hex": "16001446ecbb053e63c7d3e9a7a927a5c23b95d8cde5a8", "asm": "001446ecbb053e63c7d3e9a7a927a5c23b95d8cde5a8"}, "vout": 1, "txid": "9847447ee83b8fc69ce5c54cc5693733c97017e4755637502a138aab20d13afc"}], "txid": "7bbff10ffb46aa36cf7c2d140d955917d063e30e2a1a36aa3bff4ddab10e73fd", "blocktime": 1537873282, "version": 2, "confirmations": 11484, "time": 1537873282, "locktime": 542995, "vsize": 259, "size": 421}