{"hash": "d4fe49da870b646126020d3f3aa7a08258638617d2bd830b9bc1952ab63b9408", "blockhash": "0000000000000000000baef3f32e3676a92c3b2e5da21b426e4f302fc371ce76", "vout": [{"scriptPubKey": {"reqSigs": 1, "hex": "76a914b880b6fc1d3856f6ea0756799a23d8803a52dfca88ac", "addresses": ["1HpZXZJ6kfP1HBbxWS2f28dmvSuEx8fm4o"], "asm": "OP_DUP OP_HASH160 b880b6fc1d3856f6ea0756799a23d8803a52dfca OP_EQUALVERIFY OP_CHECKSIG", "type": "pubkeyhash"}, "value": 0.0110805, "n": 0}, {"scriptPubKey": {"reqSigs": 1, "hex": "a91495effd5eff4efc273ff5fbf0d04e3278e92deee787", "addresses": ["3FMp6uTiaYnt8hkQwhYR5qHXYwoF9XbJzY"], "asm": "OP_HASH160 95effd5eff4efc273ff5fbf0d04e3278e92deee7 OP_EQUAL", "type": "scripthash"}, "value": 0.03383603, "n": 1}, {"scriptPubKey": {"reqSigs": 1, "hex": "a914d481771cc35083d522d8200aa3d49aaf48e154ee87", "addresses": ["3M4eGckzCLYUMJvKC6gfjxbMyZnf15Xtg7"], "asm": "OP_HASH160 d481771cc35083d522d8200aa3d49aaf48e154ee OP_EQUAL", "type": "scripthash"}, "value": 0.01771349, "n": 2}], "hex": "0100000000010351bcc946b5f2b8f0438593f1e354e470aabd880310f1f824504bd2520e6ba31501000000232200205ecff54092231decdfae80b7823e536b1a9d177de74cae93d96bc1b1e6041dd0ffffffffcab7c750a7610fc44eceeb83c9e0757a534444485b8c19fc83936aa7c4c5c234020000002322002093571525e51f68f4437547a9c8847ee309bbc8eaa8a2ca9f77c7d5cc44a9e63dffffffffc973fb0cf1b6c557efe85076eaa110dcccc70d57a34cc8f87840175ecf78107701000000232200200cad3c735f20078cde9516db57dc04979cab7b7e27632b4af19edc3d5db2ba21ffffffff0352e81000000000001976a914b880b6fc1d3856f6ea0756799a23d8803a52dfca88ac33a133000000000017a91495effd5eff4efc273ff5fbf0d04e3278e92deee78755071b000000000017a914d481771cc35083d522d8200aa3d49aaf48e154ee87040048304502210081766dd5292b1048c2093fa216f08f93a9d94bf339e9d8798add87fa1c83dc0702207e327ff44eca83e97212d47c8c0b5b9a3acceb3e6a390c2c1cee5b0bf96babad01483045022100d9612412431475f4aea3dde6176c1ddfa25e0e83a60769034bab65355e76f48e022068eaefc5667d021abca5cd7d8092f5f446181175a90330782fba226edaa08c8301475221029415e3902a47a7d008a578a4c65340492b89a3dd6d5d3aaf93165633644eaa0521038407424ead2b88063db2d589e50c34e1572f6b82eb9e266dec536939ee0db9eb52ae040047304402202faf5f1301edd626f5881e8802ccde4122b883a5e8815020b76a3ec58e0184990220744bf6dac8b9d56f783952f62d14eb7049927b41d64ad4acacc9c54683d374bc0147304402203b2c807b1a2dc45f840de4832e9bc06acad4f9fb764cf73e02d3b43c6b397e76022050f1ea8001e0ab61350491b0a28618a24f616791e3d8cee7636198c4a70e10770147522103f3af1ea82b4f356c877be03cbcd233b691e0ec6cabdd5eac1710b1c60c19e19821038407424ead2b88063db2d589e50c34e1572f6b82eb9e266dec536939ee0db9eb52ae04004730440220087d1096f8a22174bda0f57bd325bdf7cdcd3b47ae9bd2ddd8952641b83e4fd902202ef63eb0252857f52ec26b1f5e06a417f2a0eeae2f3e70b6b85ed368855719c40147304402203095f7926109210e93b27e719c81045183c738cf3a3881154db2724adf2f7d090220141509c620d83e2096ccf0a87d6501239d15091bee8d24838679af81e2ff89a90147522102a84ecd233594e1deafcad7b8b23afba8b08841b88ae0da21abaa23ae3f1de0f121038407424ead2b88063db2d589e50c34e1572f6b82eb9e266dec536939ee0db9eb52ae00000000", "vin": [{"txinwitness": ["", "304502210081766dd5292b1048c2093fa216f08f93a9d94bf339e9d8798add87fa1c83dc0702207e327ff44eca83e97212d47c8c0b5b9a3acceb3e6a390c2c1cee5b0bf96babad01", "3045022100d9612412431475f4aea3dde6176c1ddfa25e0e83a60769034bab65355e76f48e022068eaefc5667d021abca5cd7d8092f5f446181175a90330782fba226edaa08c8301", "5221029415e3902a47a7d008a578a4c65340492b89a3dd6d5d3aaf93165633644eaa0521038407424ead2b88063db2d589e50c34e1572f6b82eb9e266dec536939ee0db9eb52ae"], "sequence": 4294967295, "scriptSig": {"hex": "2200205ecff54092231decdfae80b7823e536b1a9d177de74cae93d96bc1b1e6041dd0", "asm": "00205ecff54092231decdfae80b7823e536b1a9d177de74cae93d96bc1b1e6041dd0"}, "vout": 1, "txid": "15a36b0e52d24b5024f8f1100388bdaa70e454e3f1938543f0b8f2b546c9bc51"}, {"txinwitness": ["", "304402202faf5f1301edd626f5881e8802ccde4122b883a5e8815020b76a3ec58e0184990220744bf6dac8b9d56f783952f62d14eb7049927b41d64ad4acacc9c54683d374bc01", "304402203b2c807b1a2dc45f840de4832e9bc06acad4f9fb764cf73e02d3b43c6b397e76022050f1ea8001e0ab61350491b0a28618a24f616791e3d8cee7636198c4a70e107701", "522103f3af1ea82b4f356c877be03cbcd233b691e0ec6cabdd5eac1710b1c60c19e19821038407424ead2b88063db2d589e50c34e1572f6b82eb9e266dec536939ee0db9eb52ae"], "sequence": 4294967295, "scriptSig": {"hex": "22002093571525e51f68f4437547a9c8847ee309bbc8eaa8a2ca9f77c7d5cc44a9e63d", "asm": "002093571525e51f68f4437547a9c8847ee309bbc8eaa8a2ca9f77c7d5cc44a9e63d"}, "vout": 2, "txid": "34c2c5c4a76a9383fc198c5b484444537a75e0c983ebce4ec40f61a750c7b7ca"}, {"txinwitness": ["", "30440220087d1096f8a22174bda0f57bd325bdf7cdcd3b47ae9bd2ddd8952641b83e4fd902202ef63eb0252857f52ec26b1f5e06a417f2a0eeae2f3e70b6b85ed368855719c401", "304402203095f7926109210e93b27e719c81045183c738cf3a3881154db2724adf2f7d090220141509c620d83e2096ccf0a87d6501239d15091bee8d24838679af81e2ff89a901", "522102a84ecd233594e1deafcad7b8b23afba8b08841b88ae0da21abaa23ae3f1de0f121038407424ead2b88063db2d589e50c34e1572f6b82eb9e266dec536939ee0db9eb52ae"], "sequence": 4294967295, "scriptSig": {"hex": "2200200cad3c735f20078cde9516db57dc04979cab7b7e27632b4af19edc3d5db2ba21", "asm": "00200cad3c735f20078cde9516db57dc04979cab7b7e27632b4af19edc3d5db2ba21"}, "vout": 1, "txid": "771078cf5e174078f8c84ca3570dc7ccdc10a1ea7650e8ef57c5b6f10cfb73c9"}], "txid": "7bc1f32f60783f20e676bc33e27487d4bc0e881f0a6eb6f0a68d92b10e3796f7", "blocktime": 1537876114, "version": 1, "confirmations": 11459, "time": 1537876114, "locktime": 0, "vsize": 501, "size": 994}