{"hash": "2379c34e5821973ed9e283ddfe9cfe34084846a33617b80f0cf4a63fa5527246", "blockhash": "0000000000000000000e13cef7c366c0283d82e591d1acd082e914b08063cdf1", "vout": [{"scriptPubKey": {"reqSigs": 1, "hex": "a914de455698fd220ed8a1d86f14c92274ded406f0cf87", "addresses": ["3MxGzqYH3U5R8CeLJ8JHY7x755sG477r88"], "asm": "OP_HASH160 de455698fd220ed8a1d86f14c92274ded406f0cf OP_EQUAL", "type": "scripthash"}, "value": 0.004, "n": 0}, {"scriptPubKey": {"reqSigs": 1, "hex": "a91463d5af822d6900936d4aff532da30271e72bb53887", "addresses": ["3AntofmyWjYKuGodEisb4a4dAms8oK4LPz"], "asm": "OP_HASH160 63d5af822d6900936d4aff532da30271e72bb538 OP_EQUAL", "type": "scripthash"}, "value": 0.01389237, "n": 1}], "hex": "020000000001023caa1bd92bfb776a56b0caf094844d653cb157cafd091bcaa786a5b4876a01340100000017160014b0b2a57372e72d8b4907847f2092092ecfb77924fdffffffec22c3130e0cc1a527e5b714738a47746ee53c696868f657898480fafd9525ea010000001716001406d43d56ef12d9fbe10132b28e9663354c3aa1c0fdffffff02801a06000000000017a914de455698fd220ed8a1d86f14c92274ded406f0cf87b53215000000000017a91463d5af822d6900936d4aff532da30271e72bb5388702483045022100ca7eb16464105eefa1d26d102374e323b834f1927270cf40c19a3d3d2343f07b022021768924f2b6f194d4c9ba723a9f0b92c46aca9657e0fb849c6e321c741357fa012102047967e4c8c0fb87b45ee9483414c67a1f992aaa98f7e96e905cc188cbb21f670247304402201c0c478e21a27d45f7104dedd2dfda3e1eb09fff372e4b47fcc74e35d69cb0740220632cdb9015d153c143ec813aedb5bf50b252cfc560441c401187b7310b679055012102c07f1a7d166d4546a65ef3460f3c7283b9d920b3853d6f07dd56d0e7186d3f0110490800", "vin": [{"txinwitness": ["3045022100ca7eb16464105eefa1d26d102374e323b834f1927270cf40c19a3d3d2343f07b022021768924f2b6f194d4c9ba723a9f0b92c46aca9657e0fb849c6e321c741357fa01", "02047967e4c8c0fb87b45ee9483414c67a1f992aaa98f7e96e905cc188cbb21f67"], "sequence": 4294967293, "scriptSig": {"hex": "160014b0b2a57372e72d8b4907847f2092092ecfb77924", "asm": "0014b0b2a57372e72d8b4907847f2092092ecfb77924"}, "vout": 1, "txid": "34016a87b4a586a7ca1b09fdca57b13c654d8494f0cab0566a77fb2bd91baa3c"}, {"txinwitness": ["304402201c0c478e21a27d45f7104dedd2dfda3e1eb09fff372e4b47fcc74e35d69cb0740220632cdb9015d153c143ec813aedb5bf50b252cfc560441c401187b7310b67905501", "02c07f1a7d166d4546a65ef3460f3c7283b9d920b3853d6f07dd56d0e7186d3f01"], "sequence": 4294967293, "scriptSig": {"hex": "16001406d43d56ef12d9fbe10132b28e9663354c3aa1c0", "asm": "001406d43d56ef12d9fbe10132b28e9663354c3aa1c0"}, "vout": 1, "txid": "ea2595fdfa80848957f66868693ce56e74478a7314b7e527a5c10c0e13c322ec"}], "txid": "7bc61ed72ea8a3e22d70bdbbab86ffba20156cd9c4c6254f40953a1f5a03f6e8", "blocktime": 1537871767, "version": 2, "confirmations": 11493, "time": 1537871767, "locktime": 542992, "vsize": 257, "size": 419}