{"hash": "9cd89169d4da3bf3a15ad2430c5b1dfa6adeeaaf5b6f5ebfa9ae2c0504482315", "blockhash": "0000000000000000000e13cef7c366c0283d82e591d1acd082e914b08063cdf1", "vout": [{"scriptPubKey": {"reqSigs": 1, "hex": "a9143822b5fd1de912f7ebc0d818a2cd27ea4710caee87", "addresses": ["36oqM3Mb1YPHFUKcmdKJisa7aSRjD4Dfaa"], "asm": "OP_HASH160 3822b5fd1de912f7ebc0d818a2cd27ea4710caee OP_EQUAL", "type": "scripthash"}, "value": 0.04740882, "n": 0}, {"scriptPubKey": {"reqSigs": 1, "hex": "76a9140ac3d6f8c0fd14d12edcd1f244f950a4aa5f5cd288ac", "addresses": ["1yvN6tVvkSda54yDDqEsXdA7eoNgLyBmv"], "asm": "OP_DUP OP_HASH160 0ac3d6f8c0fd14d12edcd1f244f950a4aa5f5cd2 OP_EQUALVERIFY OP_CHECKSIG", "type": "pubkeyhash"}, "value": 0.04909007, "n": 1}], "hex": "0200000000010196e58f32216693bbf3bc651157c24c87e498f8060d9946524adb374db96f3709010000001716001433be7eeab046f1f218c8ba590354702f8fa1eb63feffffff02125748000000000017a9143822b5fd1de912f7ebc0d818a2cd27ea4710caee87cfe74a00000000001976a9140ac3d6f8c0fd14d12edcd1f244f950a4aa5f5cd288ac024730440220607919ddbb2d2fd69110de9cc1065554e5ee9f6cb0194e29103a860b07dfa49d02200cae00438925ddad7768aa55aa4fc8e8ff0df62f2e8e3442f287157162fb8fce01210357b2bb6eadc18316473abb79a775a7dba00bdf4655d74dd52ae8bca92c3a9fbb10490800", "vin": [{"txinwitness": ["30440220607919ddbb2d2fd69110de9cc1065554e5ee9f6cb0194e29103a860b07dfa49d02200cae00438925ddad7768aa55aa4fc8e8ff0df62f2e8e3442f287157162fb8fce01", "0357b2bb6eadc18316473abb79a775a7dba00bdf4655d74dd52ae8bca92c3a9fbb"], "sequence": 4294967294, "scriptSig": {"hex": "16001433be7eeab046f1f218c8ba590354702f8fa1eb63", "asm": "001433be7eeab046f1f218c8ba590354702f8fa1eb63"}, "vout": 1, "txid": "09376fb94d37db4a5246990d06f898e4874cc2571165bcf3bb936621328fe596"}], "txid": "7bcbdc0e56d56cdf49ecd688612b7aea71625535f9aa2be3417fc8c1d9b4ab71", "blocktime": 1537871767, "version": 2, "confirmations": 11491, "time": 1537871767, "locktime": 542992, "vsize": 168, "size": 249}