{"hash": "e06794b62031c43b9709631a75e91bfe70a2de19fe6239171dfe93cde31dd92e", "blockhash": "0000000000000000001f0ddff1eddb255c1121bcd4da4f1bc9a0da00cae72433", "vout": [{"scriptPubKey": {"reqSigs": 1, "hex": "76a914bbd7d68d6f5c96d8a5a727d51b05e87baa4c751b88ac", "addresses": ["1J8DvZqJTU77YzvLk2VPSvpr8Y61r34iZf"], "asm": "OP_DUP OP_HASH160 bbd7d68d6f5c96d8a5a727d51b05e87baa4c751b OP_EQUALVERIFY OP_CHECKSIG", "type": "pubkeyhash"}, "value": 0.08120023, "n": 0}, {"scriptPubKey": {"reqSigs": 1, "hex": "a91485193272c13be4e757dbfcc4aa09ccb642e1925187", "addresses": ["3DpmynBiiRaNUdEi6cz6sTk6UEymaDLRgT"], "asm": "OP_HASH160 85193272c13be4e757dbfcc4aa09ccb642e19251 OP_EQUAL", "type": "scripthash"}, "value": 0.0158131, "n": 1}, {"scriptPubKey": {"reqSigs": 1, "hex": "a914f7238027223ab0d9c63042017145b50a176fc8e687", "addresses": ["3QDmMYtU9ZjTQEkyKEbeMBugNoWXRtzmmX"], "asm": "OP_HASH160 f7238027223ab0d9c63042017145b50a176fc8e6 OP_EQUAL", "type": "scripthash"}, "value": 0.00419824, "n": 2}, {"scriptPubKey": {"reqSigs": 1, "hex": "a914ef43c46a12ccf44d487962f9953dba87f9ecd61a87", "addresses": ["3PW8bwaePhrmcW32sFKtX2dneJApnnug5q"], "asm": "OP_HASH160 ef43c46a12ccf44d487962f9953dba87f9ecd61a OP_EQUAL", "type": "scripthash"}, "value": 0.0543336, "n": 3}, {"scriptPubKey": {"reqSigs": 1, "hex": "76a9149b314946d4948fbc67e9233c8cee0991c044f61088ac", "addresses": ["1F9anCgqvZ38EzXTQP1bLUtJynp1VhZJRz"], "asm": "OP_DUP OP_HASH160 9b314946d4948fbc67e9233c8cee0991c044f610 OP_EQUALVERIFY OP_CHECKSIG", "type": "pubkeyhash"}, "value": 0.07260431, "n": 4}, {"scriptPubKey": {"reqSigs": 1, "hex": "76a914ee525f6fe50d249432ac0c8d06d9058fb5a15e0788ac", "addresses": ["1Nj8W24Dx2JULYMtn2QhhXBgsaXUcc42hi"], "asm": "OP_DUP OP_HASH160 ee525f6fe50d249432ac0c8d06d9058fb5a15e07 OP_EQUALVERIFY OP_CHECKSIG", "type": "pubkeyhash"}, "value": 0.01258232, "n": 5}, {"scriptPubKey": {"reqSigs": 1, "hex": "76a9141a25ab7f0e3f62eb85d964d59baaba094268417d88ac", "addresses": ["13PFhLeD4nNcoZ3gU8rnECc8pQ5VpRd3pX"], "asm": "OP_DUP OP_HASH160 1a25ab7f0e3f62eb85d964d59baaba094268417d OP_EQUALVERIFY OP_CHECKSIG", "type": "pubkeyhash"}, "value": 0.01439718, "n": 6}], "hex": "02000000000103218c41af64025c69caac567cbc73a34358190a346fad76c9ff59d4a42543c07e01000000171600147e41f4f688929b3e08bdc6d4e84a24bd7cc5722cfdffffff912ec10f2521d7ba76a6dcb7143df184aef3e5a4c1004cb3f8f1a1306bbe02870100000017160014fb87a49f04887cfe07a2675b858f8b56cc7a4998fdfffffff82df2ebbe8c0c3b3949de6d4769cb905d5bbdb73435d4a78545e33f46ccff59000000001716001488af50b39426db7eb84934ba626d9bc220f82c7afdffffff07d7e67b00000000001976a914bbd7d68d6f5c96d8a5a727d51b05e87baa4c751b88acfe2018000000000017a91485193272c13be4e757dbfcc4aa09ccb642e1925187f06706000000000017a914f7238027223ab0d9c63042017145b50a176fc8e68710e852000000000017a914ef43c46a12ccf44d487962f9953dba87f9ecd61a870fc96e00000000001976a9149b314946d4948fbc67e9233c8cee0991c044f61088acf8321300000000001976a914ee525f6fe50d249432ac0c8d06d9058fb5a15e0788ace6f71500000000001976a9141a25ab7f0e3f62eb85d964d59baaba094268417d88ac02483045022100a1868212c48aae564a9b077ec4b72f6aecc38d748e9e1a60ea55733d9cb86fc602205c7ce4c5ce98344d5f5a2a25f7a4036a3046e2180373831ff87a255fd2e80ad701210303feeb79ca12f9633c6686ff63358bc3268e9c7dfc31c9acbd3e24762dc8efee02473044022057e6b9d785f33ce94ef51f2790ec249bed2ebb50e64060246c31c9be9d15664c02203e0afb3529093f18c29f9c50f67f67ab02e53be758fccb9ac56f2043fe2ccae60121027ed15f642d396407a0507b878697f0e84a8d339a518116c030375d094f8f4fc60247304402207ed0f675cbae8b047df324d9f8abda0a8d230f5bd388dd7a100dc3dd4d53bd9b022008d68a7322b6944c1a04ca036d52dba502d25f0e6611d5e1746443b8c9e7f1e7012103cee12d5d6330d9045b0b0d2f2f11ac526ac36e5e104f0e9af006ddd02d2ee414be480800", "vin": [{"txinwitness": ["3045022100a1868212c48aae564a9b077ec4b72f6aecc38d748e9e1a60ea55733d9cb86fc602205c7ce4c5ce98344d5f5a2a25f7a4036a3046e2180373831ff87a255fd2e80ad701", "0303feeb79ca12f9633c6686ff63358bc3268e9c7dfc31c9acbd3e24762dc8efee"], "sequence": 4294967293, "scriptSig": {"hex": "1600147e41f4f688929b3e08bdc6d4e84a24bd7cc5722c", "asm": "00147e41f4f688929b3e08bdc6d4e84a24bd7cc5722c"}, "vout": 1, "txid": "7ec04325a4d459ffc976ad6f340a195843a373bc7c56acca695c0264af418c21"}, {"txinwitness": ["3044022057e6b9d785f33ce94ef51f2790ec249bed2ebb50e64060246c31c9be9d15664c02203e0afb3529093f18c29f9c50f67f67ab02e53be758fccb9ac56f2043fe2ccae601", "027ed15f642d396407a0507b878697f0e84a8d339a518116c030375d094f8f4fc6"], "sequence": 4294967293, "scriptSig": {"hex": "160014fb87a49f04887cfe07a2675b858f8b56cc7a4998", "asm": "0014fb87a49f04887cfe07a2675b858f8b56cc7a4998"}, "vout": 1, "txid": "8702be6b30a1f1f8b34c00c1a4e5f3ae84f13d14b7dca676bad721250fc12e91"}, {"txinwitness": ["304402207ed0f675cbae8b047df324d9f8abda0a8d230f5bd388dd7a100dc3dd4d53bd9b022008d68a7322b6944c1a04ca036d52dba502d25f0e6611d5e1746443b8c9e7f1e701", "03cee12d5d6330d9045b0b0d2f2f11ac526ac36e5e104f0e9af006ddd02d2ee414"], "sequence": 4294967293, "scriptSig": {"hex": "16001488af50b39426db7eb84934ba626d9bc220f82c7a", "asm": "001488af50b39426db7eb84934ba626d9bc220f82c7a"}, "vout": 0, "txid": "59ffcc463fe34585a7d43534b7bd5b5d90cb69476dde49393b0c8cbeebf22df8"}], "txid": "7bd9645a736ecaff7affd2d47dd3f95e9059507647947eae3deb6334defd0282", "blocktime": 1537872018, "version": 2, "confirmations": 11489, "time": 1537872018, "locktime": 542910, "vsize": 515, "size": 758}