{"hash": "b2055d6593c9b6d2ada21b3a042d99fb05ac7041535b43a6043af0aaa5a9c767", "blockhash": "0000000000000000000baef3f32e3676a92c3b2e5da21b426e4f302fc371ce76", "vout": [{"scriptPubKey": {"reqSigs": 1, "hex": "a91490e99e8d26d05ead3c05430c292a887bbff695f587", "addresses": ["3EuF6KjJawxTiUsea3Sc8hsLUGmVEf7Xg5"], "asm": "OP_HASH160 90e99e8d26d05ead3c05430c292a887bbff695f5 OP_EQUAL", "type": "scripthash"}, "value": 0.00094009, "n": 0}, {"scriptPubKey": {"type": "nulldata", "hex": "6a146f6d6e69000000000000001f0000000005f5e100", "asm": "OP_RETURN 6f6d6e69000000000000001f0000000005f5e100"}, "value": 0.0, "n": 1}, {"scriptPubKey": {"reqSigs": 1, "hex": "a91490e99e8d26d05ead3c05430c292a887bbff695f587", "addresses": ["3EuF6KjJawxTiUsea3Sc8hsLUGmVEf7Xg5"], "asm": "OP_HASH160 90e99e8d26d05ead3c05430c292a887bbff695f5 OP_EQUAL", "type": "scripthash"}, "value": 5.4e-06, "n": 2}], "hex": "01000000000102aa16bc42b14b8a1ed99c4875372cc9feae30062246d6f4856a923e7cb3fc5fb50000000017160014f6e1792e7852ebd5ae795c2a25d579acdfadec2dffffffffaa16bc42b14b8a1ed99c4875372cc9feae30062246d6f4856a923e7cb3fc5fb50200000017160014f6e1792e7852ebd5ae795c2a25d579acdfadec2dffffffff03396f01000000000017a91490e99e8d26d05ead3c05430c292a887bbff695f5870000000000000000166a146f6d6e69000000000000001f0000000005f5e1001c0200000000000017a91490e99e8d26d05ead3c05430c292a887bbff695f587024730440220422a50eb670c1769a48a7d4a1866e94fa9cde712583381a98bf86978be3704240220222b5c95d0b168fcc56fb932b55cbaa57563b80f61a49ed829b70f3eb3a922ed012103f1cf988013a33e053d1e9bd54c4798c1a6dc362a5b2798b5344049fca40e2db002483045022100f822da8f3cccb9f4df1c30d4d770098f9c752a84c1676d684b4905003984ad960220599ec211c6ed95d90f3abdc50d6acf6dc964218f13a358e78d3f0cc85e340793012103f1cf988013a33e053d1e9bd54c4798c1a6dc362a5b2798b5344049fca40e2db000000000", "vin": [{"txinwitness": ["30440220422a50eb670c1769a48a7d4a1866e94fa9cde712583381a98bf86978be3704240220222b5c95d0b168fcc56fb932b55cbaa57563b80f61a49ed829b70f3eb3a922ed01", "03f1cf988013a33e053d1e9bd54c4798c1a6dc362a5b2798b5344049fca40e2db0"], "sequence": 4294967295, "scriptSig": {"hex": "160014f6e1792e7852ebd5ae795c2a25d579acdfadec2d", "asm": "0014f6e1792e7852ebd5ae795c2a25d579acdfadec2d"}, "vout": 0, "txid": "b55ffcb37c3e926a85f4d646220630aefec92c3775489cd91e8a4bb142bc16aa"}, {"txinwitness": ["3045022100f822da8f3cccb9f4df1c30d4d770098f9c752a84c1676d684b4905003984ad960220599ec211c6ed95d90f3abdc50d6acf6dc964218f13a358e78d3f0cc85e34079301", "03f1cf988013a33e053d1e9bd54c4798c1a6dc362a5b2798b5344049fca40e2db0"], "sequence": 4294967295, "scriptSig": {"hex": "160014f6e1792e7852ebd5ae795c2a25d579acdfadec2d", "asm": "0014f6e1792e7852ebd5ae795c2a25d579acdfadec2d"}, "vout": 2, "txid": "b55ffcb37c3e926a85f4d646220630aefec92c3775489cd91e8a4bb142bc16aa"}], "txid": "7bddfcc785933e1380693947d9a7619505665c123226e81510e1da2824ff1dce", "blocktime": 1537876114, "version": 1, "confirmations": 11460, "time": 1537876114, "locktime": 0, "vsize": 288, "size": 450}