{"hash": "cf9fbe259f875dfc4d3b9e06812dd0e596ab3453f793061dd4c2580b8fbf23d7", "blockhash": "00000000000000000018f53835495a110e01622372bf6ae95dc86f2b0ab887b0", "vout": [{"scriptPubKey": {"reqSigs": 1, "hex": "a914077d0f067796a42346b35d6e0d6627ce0857169687", "addresses": ["32NcU7jLMTMX6TFFJPWM8GLRfuDbFQMZ8Q"], "asm": "OP_HASH160 077d0f067796a42346b35d6e0d6627ce08571696 OP_EQUAL", "type": "scripthash"}, "value": 0.00151243, "n": 0}, {"scriptPubKey": {"reqSigs": 1, "hex": "a9141cabf2e77ec9f36f69c464f1c6d1838c687eafbf87", "addresses": ["34Jcq8WDzfMRA9R3bQ7ovNCuEeEfcx9qod"], "asm": "OP_HASH160 1cabf2e77ec9f36f69c464f1c6d1838c687eafbf OP_EQUAL", "type": "scripthash"}, "value": 0.00998073, "n": 1}], "hex": "02000000000101cdd1d9870b1db52f447ee2235c2fdf6447d0cad4a0cc3ba6b14b4ae3a61aa56600000000171600143e2379ffca133619f06827ac992efcc343826516feffffff02cb4e02000000000017a914077d0f067796a42346b35d6e0d6627ce0857169687b93a0f000000000017a9141cabf2e77ec9f36f69c464f1c6d1838c687eafbf8702483045022100a05949e16d032f66e4caedd146d973c038c129488ae2d41b1a40f15dc380e9ae022007d4df1ea8f3db34381961eb569a1a360a3ce09abbccc908924baddda02c9327012103de0b63c69ece6f7d6b7501972d7305d0fd54b5655f4b0e874fa1a32eb5f3e9f50e490800", "vin": [{"txinwitness": ["3045022100a05949e16d032f66e4caedd146d973c038c129488ae2d41b1a40f15dc380e9ae022007d4df1ea8f3db34381961eb569a1a360a3ce09abbccc908924baddda02c932701", "03de0b63c69ece6f7d6b7501972d7305d0fd54b5655f4b0e874fa1a32eb5f3e9f5"], "sequence": 4294967294, "scriptSig": {"hex": "1600143e2379ffca133619f06827ac992efcc343826516", "asm": "00143e2379ffca133619f06827ac992efcc343826516"}, "vout": 0, "txid": "66a51aa6e34a4bb1a63bcca0d4cad04764df2f5c23e27e442fb51d0b87d9d1cd"}], "txid": "7be308f7f48f7cafd289984b04722246b223b666eb81e22c9a2a5b4e806d0ddf", "blocktime": 1537870928, "version": 2, "confirmations": 11512, "time": 1537870928, "locktime": 542990, "vsize": 166, "size": 248}