{"hash": "fc6566da921033a26a908e47fa359bb2846d8ea9290eb07458cdf8f7262d94e3", "blockhash": "0000000000000000001cda96e906b7601b7a6fb1a3b62bca570a9e5d8f4b3de1", "vout": [{"scriptPubKey": {"reqSigs": 1, "hex": "0014a30df5103ba3c5209ed4d5e95a6d8ad8189c2264", "addresses": ["bc1q5vxl2ypm50zjp8k56h545mv2mqvfcgnyjy6u06"], "asm": "0 a30df5103ba3c5209ed4d5e95a6d8ad8189c2264", "type": "witness_v0_keyhash"}, "value": 0.00011854, "n": 0}, {"scriptPubKey": {"reqSigs": 1, "hex": "76a914c02fa41a4e42766817c04a7560b71e03ae9891b088ac", "addresses": ["1JXBozJano38M9YzaGQrqNoikb296EkzeM"], "asm": "OP_DUP OP_HASH160 c02fa41a4e42766817c04a7560b71e03ae9891b0 OP_EQUALVERIFY OP_CHECKSIG", "type": "pubkeyhash"}, "value": 0.00366773, "n": 1}], "hex": "01000000000101a3d6d275f9f721847e3582ae656a5e0104aee2aed8f1dbfb57518f3abf47d4cd0100000000ffffffff024e2e000000000000160014a30df5103ba3c5209ed4d5e95a6d8ad8189c2264b5980500000000001976a914c02fa41a4e42766817c04a7560b71e03ae9891b088ac02473044022068903865a37b58d76ba1f25ab5291ef042ff85d85d29b336b989d7138de81bc7022053326fe7c76335232d6d48169c0030624c728c24f9778c3c1b7c9e49d7f5c487012102f0cdca0532bf70e18a1efed9dab6f3ebf903a7cfb45a7ddabb39b2d5b352ef3500000000", "vin": [{"txinwitness": ["3044022068903865a37b58d76ba1f25ab5291ef042ff85d85d29b336b989d7138de81bc7022053326fe7c76335232d6d48169c0030624c728c24f9778c3c1b7c9e49d7f5c48701", "02f0cdca0532bf70e18a1efed9dab6f3ebf903a7cfb45a7ddabb39b2d5b352ef35"], "sequence": 4294967295, "scriptSig": {"hex": "", "asm": ""}, "vout": 1, "txid": "cdd447bf3a8f5157fbdbf1d8aee2ae04015e6a65ae82357e8421f7f975d2d6a3"}], "txid": "7be3e8c0acbdf16e32c154fa81e002de607546495e50d6e2fbc4d4f8607d453c", "blocktime": 1537873282, "version": 1, "confirmations": 11484, "time": 1537873282, "locktime": 0, "vsize": 144, "size": 225}