{"hash": "7bea12cfc51841df66c95788ce270a2ec0d16b73547b0de360cfbeff0e4f5b71", "blockhash": "0000000000000000000e13cef7c366c0283d82e591d1acd082e914b08063cdf1", "vout": [{"scriptPubKey": {"reqSigs": 1, "hex": "76a914f6a7a294c012d7b954fc3e54f6cf0ad009522cce88ac", "addresses": ["1PVC3gSVd7DAUXy2W6M3sAQcEePD3bq8L9"], "asm": "OP_DUP OP_HASH160 f6a7a294c012d7b954fc3e54f6cf0ad009522cce OP_EQUALVERIFY OP_CHECKSIG", "type": "pubkeyhash"}, "value": 0.022361, "n": 0}, {"scriptPubKey": {"type": "nulldata", "hex": "6a4c500000779d0001abc9a6af6c953dd567cf27e7e3ef3236678a625097bcbefa6b8351586b4e2c11c7f7018bbbbd3fbb5818bdbdc8f75baa0dcf06154ad32edb164fbc9a9526289ac0f6612cd74e33776ee4", "asm": "OP_RETURN 0000779d0001abc9a6af6c953dd567cf27e7e3ef3236678a625097bcbefa6b8351586b4e2c11c7f7018bbbbd3fbb5818bdbdc8f75baa0dcf06154ad32edb164fbc9a9526289ac0f6612cd74e33776ee4"}, "value": 0.0, "n": 1}], "hex": "0100000001fd1150d6eff41128f9539dd5884d65a7c726125275da8c9bba8961076acfad2f010000006a473044022001432dd9e511c36666ebe4e18812c5a33f34d484974003be46dcab8cff405158022015672ca7f62b92f4a7f40fdfec63372d91516769037ee9a7964a69e9dc3132230121032cf8a12783feaa7d40307166c58ef61483384970712654cf2b171f95d6e5f441ffffffff02c41e2200000000001976a914f6a7a294c012d7b954fc3e54f6cf0ad009522cce88ac0000000000000000536a4c500000779d0001abc9a6af6c953dd567cf27e7e3ef3236678a625097bcbefa6b8351586b4e2c11c7f7018bbbbd3fbb5818bdbdc8f75baa0dcf06154ad32edb164fbc9a9526289ac0f6612cd74e33776ee400000000", "vin": [{"sequence": 4294967295, "scriptSig": {"hex": "473044022001432dd9e511c36666ebe4e18812c5a33f34d484974003be46dcab8cff405158022015672ca7f62b92f4a7f40fdfec63372d91516769037ee9a7964a69e9dc3132230121032cf8a12783feaa7d40307166c58ef61483384970712654cf2b171f95d6e5f441", "asm": "3044022001432dd9e511c36666ebe4e18812c5a33f34d484974003be46dcab8cff405158022015672ca7f62b92f4a7f40fdfec63372d91516769037ee9a7964a69e9dc313223[ALL] 032cf8a12783feaa7d40307166c58ef61483384970712654cf2b171f95d6e5f441"}, "vout": 1, "txid": "2fadcf6a076189ba9b8cda75521226c7a7654d88d59d53f92811f4efd65011fd"}], "txid": "7bea12cfc51841df66c95788ce270a2ec0d16b73547b0de360cfbeff0e4f5b71", "blocktime": 1537871767, "version": 1, "confirmations": 11493, "time": 1537871767, "locktime": 0, "vsize": 283, "size": 283}