{"hash": "7beeb85dfe0209241616d7ea5534e62adecb5f41345428fa5015947b29b70289", "blockhash": "00000000000000000018f53835495a110e01622372bf6ae95dc86f2b0ab887b0", "vout": [{"scriptPubKey": {"reqSigs": 1, "hex": "a91412f9684759fcbceaafced19d6be6c816567ae87887", "addresses": ["33RLs83zkRHozpkmkfFaXdc1JudN7meGPM"], "asm": "OP_HASH160 12f9684759fcbceaafced19d6be6c816567ae878 OP_EQUAL", "type": "scripthash"}, "value": 0.01316892, "n": 0}, {"scriptPubKey": {"reqSigs": 1, "hex": "76a91414ae68f5c064aa5f6751c12bd5eb02493f8a4f8688ac", "addresses": ["12tMT4EsEsHy4HfXCAhKzi5hPH3kaJPewx"], "asm": "OP_DUP OP_HASH160 14ae68f5c064aa5f6751c12bd5eb02493f8a4f86 OP_EQUALVERIFY OP_CHECKSIG", "type": "pubkeyhash"}, "value": 0.21376093, "n": 1}], "hex": "01000000010cced2bf1f752067bb9c7cb4848418e1dcbe4b20bcff43b6947ba1d2f34d8736010000006a47304402206fe9184ff1508cc419ec91c39f0f4168ba77ed87e43d0b69f648b5893b8a27ce02203158a51857d8251c745dcf0d9fad0157e24bc1d9a2d72dc3f75bd21b5330cad701210350acba27a4feae0e5ec9c6d092395c202d52e3b414559bf30bac1bef8d23ff19ffffffff021c1814000000000017a91412f9684759fcbceaafced19d6be6c816567ae878875d2c4601000000001976a91414ae68f5c064aa5f6751c12bd5eb02493f8a4f8688ac00000000", "vin": [{"sequence": 4294967295, "scriptSig": {"hex": "47304402206fe9184ff1508cc419ec91c39f0f4168ba77ed87e43d0b69f648b5893b8a27ce02203158a51857d8251c745dcf0d9fad0157e24bc1d9a2d72dc3f75bd21b5330cad701210350acba27a4feae0e5ec9c6d092395c202d52e3b414559bf30bac1bef8d23ff19", "asm": "304402206fe9184ff1508cc419ec91c39f0f4168ba77ed87e43d0b69f648b5893b8a27ce02203158a51857d8251c745dcf0d9fad0157e24bc1d9a2d72dc3f75bd21b5330cad7[ALL] 0350acba27a4feae0e5ec9c6d092395c202d52e3b414559bf30bac1bef8d23ff19"}, "vout": 1, "txid": "36874df3d2a17b94b643ffbc204bbedce1188484b47c9cbb6720751fbfd2ce0c"}], "txid": "7beeb85dfe0209241616d7ea5534e62adecb5f41345428fa5015947b29b70289", "blocktime": 1537870928, "version": 1, "confirmations": 11514, "time": 1537870928, "locktime": 0, "vsize": 223, "size": 223}