{"hash": "7bee21080166ba196b30ee6e07525cb0362fa14674ef1feab0d8cf0d0f02322b", "blockhash": "000000000000000000022b45ed06c6f4ccd3cf7fb5ba4856ebd2e58215665228", "vout": [{"scriptPubKey": {"reqSigs": 1, "hex": "76a914d1744e3c09889373a3b41c8dd96da180247f59f288ac", "addresses": ["1L6VZ9ZQtKmjgTETLp9ympcXbPxwerPXCU"], "asm": "OP_DUP OP_HASH160 d1744e3c09889373a3b41c8dd96da180247f59f2 OP_EQUALVERIFY OP_CHECKSIG", "type": "pubkeyhash"}, "value": 2.881e-05, "n": 0}, {"scriptPubKey": {"reqSigs": 1, "hex": "a91401972c2ccbf41f9171864c13f04cbb0f9a91220087", "addresses": ["31qRhPXAR7KCH511Vq5GFZwy5HC5gXEiJ3"], "asm": "OP_HASH160 01972c2ccbf41f9171864c13f04cbb0f9a912200 OP_EQUAL", "type": "scripthash"}, "value": 0.01, "n": 1}], "hex": "01000000025937ea16bb6e41d58d90fa80859b2924f28572d240f98495dec267d5a153bd2b040000006b483045022100b1786fd92bbbdefcddd7a5370387cf8221e652257a7c89941cf94483e8eba296022060e17cb7a5581de1390698768777d138f4bb0b26b47456d03890ff10f142a5be01210239c76aa2b0038b67a9a315d01b755dcec27c921b43bc2228224a601a142a615effffffff9a6821973467e94c48c97f0797eb36d3933a542f023f076923c5c2291d18a49e000000006a47304402205c104567408ad9711e94625ae924935e0061766567a90867e23df22425a765230220736ead1abe71de1fdedc5283b963f51353737a59c98c183243efa836f791c134012102b85624220fe4c94c8eecea0b0af89c1933b7fcadb3a85a002df5091341462ddeffffffff02410b0000000000001976a914d1744e3c09889373a3b41c8dd96da180247f59f288ac40420f000000000017a91401972c2ccbf41f9171864c13f04cbb0f9a9122008700000000", "vin": [{"sequence": 4294967295, "scriptSig": {"hex": "483045022100b1786fd92bbbdefcddd7a5370387cf8221e652257a7c89941cf94483e8eba296022060e17cb7a5581de1390698768777d138f4bb0b26b47456d03890ff10f142a5be01210239c76aa2b0038b67a9a315d01b755dcec27c921b43bc2228224a601a142a615e", "asm": "3045022100b1786fd92bbbdefcddd7a5370387cf8221e652257a7c89941cf94483e8eba296022060e17cb7a5581de1390698768777d138f4bb0b26b47456d03890ff10f142a5be[ALL] 0239c76aa2b0038b67a9a315d01b755dcec27c921b43bc2228224a601a142a615e"}, "vout": 4, "txid": "2bbd53a1d567c2de9584f940d27285f224299b8580fa908dd5416ebb16ea3759"}, {"sequence": 4294967295, "scriptSig": {"hex": "47304402205c104567408ad9711e94625ae924935e0061766567a90867e23df22425a765230220736ead1abe71de1fdedc5283b963f51353737a59c98c183243efa836f791c134012102b85624220fe4c94c8eecea0b0af89c1933b7fcadb3a85a002df5091341462dde", "asm": "304402205c104567408ad9711e94625ae924935e0061766567a90867e23df22425a765230220736ead1abe71de1fdedc5283b963f51353737a59c98c183243efa836f791c134[ALL] 02b85624220fe4c94c8eecea0b0af89c1933b7fcadb3a85a002df5091341462dde"}, "vout": 0, "txid": "9ea4181d29c2c52369073f022f543a93d336eb97077fc9484ce967349721689a"}], "txid": "7bee21080166ba196b30ee6e07525cb0362fa14674ef1feab0d8cf0d0f02322b", "blocktime": 1537869901, "version": 1, "confirmations": 11523, "time": 1537869901, "locktime": 0, "vsize": 371, "size": 371}