{"hash": "1f1e365e8ac1b4ff09e9e1b920bf82b3f614a6edff12931a8ca5ff6d0bc4f107", "blockhash": "00000000000000000017f5eb5941039fbcee6240d03bc1f2f8e35350df66a1d8", "vout": [{"scriptPubKey": {"reqSigs": 1, "hex": "a9146960d3eb6729e1c94fffafb0dee1a41dd16274d887", "addresses": ["3BJCsQATnWuDmYmtUcXZ8H1MXN6Szibc7F"], "asm": "OP_HASH160 6960d3eb6729e1c94fffafb0dee1a41dd16274d8 OP_EQUAL", "type": "scripthash"}, "value": 0.0001092, "n": 0}, {"scriptPubKey": {"reqSigs": 1, "hex": "0014561d4c8f589662719f9167de1db9da5b8950987c", "addresses": ["bc1q2cw5er6cje38r8u3vl0pmww6twy4pxrujyv9zn"], "asm": "0 561d4c8f589662719f9167de1db9da5b8950987c", "type": "witness_v0_keyhash"}, "value": 9.6e-06, "n": 1}], "hex": "01000000000101d34b122a9d38520d1e77b8c924d9a10f67a2a631ba1f30a99c50b8dc9aa76b2a0000000000ffffffff02a82a00000000000017a9146960d3eb6729e1c94fffafb0dee1a41dd16274d887c003000000000000160014561d4c8f589662719f9167de1db9da5b8950987c02473044022052cffcaefbd515ae38e4527c618c86171c02d2c6ab555456d9d9bc86aee23beb0220424a7d563b1aebaf8b4523ce9e346668c08a13380113cd3678d6027a8bc29d04012103405c3522445122326e2cc69c50868f097f405425e3d23465a7249d0ab8dbd1fd00000000", "vin": [{"txinwitness": ["3044022052cffcaefbd515ae38e4527c618c86171c02d2c6ab555456d9d9bc86aee23beb0220424a7d563b1aebaf8b4523ce9e346668c08a13380113cd3678d6027a8bc29d0401", "03405c3522445122326e2cc69c50868f097f405425e3d23465a7249d0ab8dbd1fd"], "sequence": 4294967295, "scriptSig": {"hex": "", "asm": ""}, "vout": 0, "txid": "2a6ba79adcb8509ca9301fba31a6a2670fa1d924c9b8771e0d52389d2a124bd3"}], "txid": "7beefa89f3aad735bd4861307c29f5c0d06f9e961b5a971a4adfb1f09bdc0c1c", "blocktime": 1537874412, "version": 1, "confirmations": 11467, "time": 1537874412, "locktime": 0, "vsize": 142, "size": 223}