{"hash": "5ffacc5c56d18f1d3b7602f5c9fad1b3781f98e608a67bebdf7c9c326c58fdb9", "blockhash": "0000000000000000000e13cef7c366c0283d82e591d1acd082e914b08063cdf1", "vout": [{"scriptPubKey": {"reqSigs": 1, "hex": "a914beca049ca678f8835a2150cd09c83c0537a0157e87", "addresses": ["3K5pKT1jn1jHDfNLiHC3syWc9gJoaigsWh"], "asm": "OP_HASH160 beca049ca678f8835a2150cd09c83c0537a0157e OP_EQUAL", "type": "scripthash"}, "value": 0.01008565, "n": 0}, {"scriptPubKey": {"reqSigs": 1, "hex": "76a9142e1b944fe7ffbe969fc1df8d662fd7b5d6303c9b88ac", "addresses": ["15Co856cRnFRCKwSSzECoyT3ozVhuFoJZ6"], "asm": "OP_DUP OP_HASH160 2e1b944fe7ffbe969fc1df8d662fd7b5d6303c9b OP_EQUALVERIFY OP_CHECKSIG", "type": "pubkeyhash"}, "value": 0.0028596, "n": 1}], "hex": "020000000001021ae76bab797a87f6ab4e07001bd8620fb9a2bc3b178530c2f4212074faa3cb7e1400000017160014bccf9466565101c2ea7672e543a5eab107b63c79feffffffc821170038de1224923ecc5c394beee6ff206de7c315b16edb837bc74deeec6e0100000017160014849345a3019723d4e91444085b0e70de6cfa13d4feffffff02b5630f000000000017a914beca049ca678f8835a2150cd09c83c0537a0157e87085d0400000000001976a9142e1b944fe7ffbe969fc1df8d662fd7b5d6303c9b88ac02483045022100fed80460254bfa504768334b04c57e99cbbb38aa038589fcd7fcbf443d5f80450220766194cc15fe5f0763a0d8750f495afd1a4036e93142d0de7fa4cde75fb74fc4012103ef455067674c130ede1aa84dceff6ba7605b84148962c75662daa4333b31b2aa02483045022100e7cac51e02e20171fd91b28d6d7be78764d03019d40e6837e0840c35bb84f94f0220472a3a326fb25402a38f4ff77aaf7e4bea4ce1451b1cb9e7c7518b51af9fac0a01210328322bc9abf95c844032c612483372644eb0a60acf6d2f2a1e1341b2d4a3694710490800", "vin": [{"txinwitness": ["3045022100fed80460254bfa504768334b04c57e99cbbb38aa038589fcd7fcbf443d5f80450220766194cc15fe5f0763a0d8750f495afd1a4036e93142d0de7fa4cde75fb74fc401", "03ef455067674c130ede1aa84dceff6ba7605b84148962c75662daa4333b31b2aa"], "sequence": 4294967294, "scriptSig": {"hex": "160014bccf9466565101c2ea7672e543a5eab107b63c79", "asm": "0014bccf9466565101c2ea7672e543a5eab107b63c79"}, "vout": 20, "txid": "7ecba3fa742021f4c23085173bbca2b90f62d81b00074eabf6877a79ab6be71a"}, {"txinwitness": ["3045022100e7cac51e02e20171fd91b28d6d7be78764d03019d40e6837e0840c35bb84f94f0220472a3a326fb25402a38f4ff77aaf7e4bea4ce1451b1cb9e7c7518b51af9fac0a01", "0328322bc9abf95c844032c612483372644eb0a60acf6d2f2a1e1341b2d4a36947"], "sequence": 4294967294, "scriptSig": {"hex": "160014849345a3019723d4e91444085b0e70de6cfa13d4", "asm": "0014849345a3019723d4e91444085b0e70de6cfa13d4"}, "vout": 1, "txid": "6eecee4dc77b83db6eb115c3e76d20ffe6ee4b395ccc3e922412de38001721c8"}], "txid": "7bf4bad800b6e11dd457a0ec07e71ca305645ff3885d4ba4ef05b564e7cf29ce", "blocktime": 1537871767, "version": 2, "confirmations": 11495, "time": 1537871767, "locktime": 542992, "vsize": 259, "size": 422}