{"hash": "7bf9869fbb46b454ef997dcde5a20cc76a2a54e608838dfa766def479e12b30b", "blockhash": "0000000000000000001cda96e906b7601b7a6fb1a3b62bca570a9e5d8f4b3de1", "vout": [{"scriptPubKey": {"reqSigs": 1, "hex": "76a914fc91bbb7374c9c3306e9bf109009f75456ebd76b88ac", "addresses": ["1Q2Ts4pzvJw8uhRhgTHgoqEuySNybT7iwf"], "asm": "OP_DUP OP_HASH160 fc91bbb7374c9c3306e9bf109009f75456ebd76b OP_EQUALVERIFY OP_CHECKSIG", "type": "pubkeyhash"}, "value": 0.00074118, "n": 0}, {"scriptPubKey": {"reqSigs": 1, "hex": "a91440615b4b26f60f0a5277e0fb4a2902ba58b5b83287", "addresses": ["37ZRoH2XfrNYsZQckp7h6rPm62iDpApf9W"], "asm": "OP_HASH160 40615b4b26f60f0a5277e0fb4a2902ba58b5b832 OP_EQUAL", "type": "scripthash"}, "value": 0.00235, "n": 1}], "hex": "0100000001fb63f6ba6937e612c4ae1650b4ea963e18a2ab4e14c56e6807ade6d9fc3a525f010000006a4730440220042521e398e8744e1f9f7bae344002897ae55f7836c450feeca287fb871fad6002202a14dcf93b63d2b40ce60aa15d6eadb61b14a8704ce06e0069326e976ebf98e60121034bf1513afa00bd12f78c4323f522ee4e01870022976df19bf353477804989cfbffffffff0286210100000000001976a914fc91bbb7374c9c3306e9bf109009f75456ebd76b88acf89503000000000017a91440615b4b26f60f0a5277e0fb4a2902ba58b5b8328700000000", "vin": [{"sequence": 4294967295, "scriptSig": {"hex": "4730440220042521e398e8744e1f9f7bae344002897ae55f7836c450feeca287fb871fad6002202a14dcf93b63d2b40ce60aa15d6eadb61b14a8704ce06e0069326e976ebf98e60121034bf1513afa00bd12f78c4323f522ee4e01870022976df19bf353477804989cfb", "asm": "30440220042521e398e8744e1f9f7bae344002897ae55f7836c450feeca287fb871fad6002202a14dcf93b63d2b40ce60aa15d6eadb61b14a8704ce06e0069326e976ebf98e6[ALL] 034bf1513afa00bd12f78c4323f522ee4e01870022976df19bf353477804989cfb"}, "vout": 1, "txid": "5f523afcd9e6ad07686ec5144eaba2183e96eab45016aec412e63769baf663fb"}], "txid": "7bf9869fbb46b454ef997dcde5a20cc76a2a54e608838dfa766def479e12b30b", "blocktime": 1537873282, "version": 1, "confirmations": 11481, "time": 1537873282, "locktime": 0, "vsize": 223, "size": 223}