{"hash": "325d23c6ac02b2c4253077725205203fe6a78643945783d46f12b79b89d2ed34", "blockhash": "0000000000000000000e13cef7c366c0283d82e591d1acd082e914b08063cdf1", "vout": [{"scriptPubKey": {"reqSigs": 1, "hex": "a914cf213e93fbc6d8e0414a646b64e09b71e2d6a9f587", "addresses": ["3LaDd7kb6AQyk2bbAMuUFYaWyXU3Fw6sES"], "asm": "OP_HASH160 cf213e93fbc6d8e0414a646b64e09b71e2d6a9f5 OP_EQUAL", "type": "scripthash"}, "value": 2.65e-05, "n": 0}, {"scriptPubKey": {"reqSigs": 1, "hex": "a914fe1e156c60cc1f663d3d97db1f94c596cc729f1587", "addresses": ["3QrfbX6iQUrGvzadA6qWL3JQPs2NTVq4Pp"], "asm": "OP_HASH160 fe1e156c60cc1f663d3d97db1f94c596cc729f15 OP_EQUAL", "type": "scripthash"}, "value": 0.00096839, "n": 1}], "hex": "020000000001014e7c3be0481b7fa4bdce20fb9878382bded67757bac2739c711b28a6ced92ea00000000000ffffffff025a0a00000000000017a914cf213e93fbc6d8e0414a646b64e09b71e2d6a9f587477a01000000000017a914fe1e156c60cc1f663d3d97db1f94c596cc729f15870400473044022077a69e62434a28d3fb23d7782773ca4e512bdda40f6f97f28d7969392c41428d02204cd956442ccfe5323a1fa91f14f0c51f869e8697a329d354112eb1ef42f4de3a01483045022100b385107acb5ddfe4c78e86915983a092a90fcc28a493ad82b04ccd6774aba6cb022038ffdb9c36d5533aaa721542924042ef649d86d70a264609bdba62b984ccaf590147522102a82c9296fdf65bbdf7381985a8a7c907eb58053a56fd33fa0135ad28cef4cc8f2103441d2917611cb02d1df81df0d63fc2fc5d91798fdd87abed02d695a2ad6b405a52ae00000000", "vin": [{"txinwitness": ["", "3044022077a69e62434a28d3fb23d7782773ca4e512bdda40f6f97f28d7969392c41428d02204cd956442ccfe5323a1fa91f14f0c51f869e8697a329d354112eb1ef42f4de3a01", "3045022100b385107acb5ddfe4c78e86915983a092a90fcc28a493ad82b04ccd6774aba6cb022038ffdb9c36d5533aaa721542924042ef649d86d70a264609bdba62b984ccaf5901", "522102a82c9296fdf65bbdf7381985a8a7c907eb58053a56fd33fa0135ad28cef4cc8f2103441d2917611cb02d1df81df0d63fc2fc5d91798fdd87abed02d695a2ad6b405a52ae"], "sequence": 4294967295, "scriptSig": {"hex": "", "asm": ""}, "vout": 0, "txid": "a02ed9cea6281b719c73c2ba5777d6de2b387898fb20cebda47f1b48e03b7c4e"}], "txid": "7bfddc4fa05dc8b5dd1f16d75fbb1428e47f6fab8355d3019bf950f85efa1f46", "blocktime": 1537871767, "version": 2, "confirmations": 11495, "time": 1537871767, "locktime": 0, "vsize": 171, "size": 336}