{"hash": "7c0307d0b58b33d7146d58bc97a7d310581e63f607486d41a7ea78d5573c18bd", "blockhash": "00000000000000000004ffacab907a6b429b9a5745fa0b75af4234bf69dd7176", "vout": [{"scriptPubKey": {"reqSigs": 1, "hex": "a914116ed1bca3b2f6063532d518e7ad56b621c58ad487", "addresses": ["33HCAfT8YxC8pTfUbmX7fRy6xBTnxbG4aD"], "asm": "OP_HASH160 116ed1bca3b2f6063532d518e7ad56b621c58ad4 OP_EQUAL", "type": "scripthash"}, "value": 0.00625278, "n": 0}, {"scriptPubKey": {"reqSigs": 1, "hex": "76a914f22e6ab0d2f900746596adcf791405828cffbf4488ac", "addresses": ["1P5Y8WvvVnNejhNV7UhyvQJ81asZketaTx"], "asm": "OP_DUP OP_HASH160 f22e6ab0d2f900746596adcf791405828cffbf44 OP_EQUALVERIFY OP_CHECKSIG", "type": "pubkeyhash"}, "value": 0.03614499, "n": 1}], "hex": "010000000108ef5498d1f4811fec267d8c174962198ce6e61da5468ae0d006c1bbfea5eadd000000006b483045022100b9bb2ad964b8f049c7b041a2c50333d5fc0d1f82e9f11484a52c8da3abb1e3da022042b7a4a66b5fbaac369ec01f45a3b07e7140ae40e77a5eb687d0fdba72903ca3012102c6e02d62947d65bd210fa5fe1e7f905054f6176cbfea159bb0a055d700b65ebdffffffff027e8a09000000000017a914116ed1bca3b2f6063532d518e7ad56b621c58ad48723273700000000001976a914f22e6ab0d2f900746596adcf791405828cffbf4488ac00000000", "vin": [{"sequence": 4294967295, "scriptSig": {"hex": "483045022100b9bb2ad964b8f049c7b041a2c50333d5fc0d1f82e9f11484a52c8da3abb1e3da022042b7a4a66b5fbaac369ec01f45a3b07e7140ae40e77a5eb687d0fdba72903ca3012102c6e02d62947d65bd210fa5fe1e7f905054f6176cbfea159bb0a055d700b65ebd", "asm": "3045022100b9bb2ad964b8f049c7b041a2c50333d5fc0d1f82e9f11484a52c8da3abb1e3da022042b7a4a66b5fbaac369ec01f45a3b07e7140ae40e77a5eb687d0fdba72903ca3[ALL] 02c6e02d62947d65bd210fa5fe1e7f905054f6176cbfea159bb0a055d700b65ebd"}, "vout": 0, "txid": "ddeaa5febbc106d0e08a46a51de6e68c196249178c7d26ec1f81f4d19854ef08"}], "txid": "7c0307d0b58b33d7146d58bc97a7d310581e63f607486d41a7ea78d5573c18bd", "blocktime": 1537875543, "version": 1, "confirmations": 11464, "time": 1537875543, "locktime": 0, "vsize": 224, "size": 224}