{"hash": "7c05229dd1b9142a582d4dd12631e95511c0df553597f13bf559e4c50d1b03e1", "blockhash": "000000000000000000205f8b0775d31398ef75b89a5e8ec8d2c57b4dc0ac4c20", "vout": [{"scriptPubKey": {"reqSigs": 1, "hex": "76a914bb279221192448ebc828c3fe52286437e96fe2bc88ac", "addresses": ["1J4amJTCba9TgsxmavzMbXPPrNDvote7Ye"], "asm": "OP_DUP OP_HASH160 bb279221192448ebc828c3fe52286437e96fe2bc OP_EQUALVERIFY OP_CHECKSIG", "type": "pubkeyhash"}, "value": 0.00202345, "n": 0}, {"scriptPubKey": {"reqSigs": 1, "hex": "a914e975f847277a37a4e5509f49af01e8e67ecdbf3f87", "addresses": ["3NySgvnU5WdQJsN7j678q7f7XUuzgTvMV9"], "asm": "OP_HASH160 e975f847277a37a4e5509f49af01e8e67ecdbf3f OP_EQUAL", "type": "scripthash"}, "value": 2e-05, "n": 1}], "hex": "01000000019302c21452ca12544c0168d032cbd659e8bbb16d480a5df79b5f193976f635f2000000006b4830450221008376602133a8ae5b228b836caaf31459a4917d95325568cd5d3fc6ca38aa7d2b02200597146bb42b2aeceb7843ea3e14e50c2ab1175d3c8b83cbef2e09e6685e666c012102100500a466d422de5c7adc4fa991780edda2188b708778c371d8c8caaa672b5bffffffff0269160300000000001976a914bb279221192448ebc828c3fe52286437e96fe2bc88acd00700000000000017a914e975f847277a37a4e5509f49af01e8e67ecdbf3f8700000000", "vin": [{"sequence": 4294967295, "scriptSig": {"hex": "4830450221008376602133a8ae5b228b836caaf31459a4917d95325568cd5d3fc6ca38aa7d2b02200597146bb42b2aeceb7843ea3e14e50c2ab1175d3c8b83cbef2e09e6685e666c012102100500a466d422de5c7adc4fa991780edda2188b708778c371d8c8caaa672b5b", "asm": "30450221008376602133a8ae5b228b836caaf31459a4917d95325568cd5d3fc6ca38aa7d2b02200597146bb42b2aeceb7843ea3e14e50c2ab1175d3c8b83cbef2e09e6685e666c[ALL] 02100500a466d422de5c7adc4fa991780edda2188b708778c371d8c8caaa672b5b"}, "vout": 0, "txid": "f235f67639195f9bf75d0a486db1bbe859d6cb32d068014c5412ca5214c20293"}], "txid": "7c05229dd1b9142a582d4dd12631e95511c0df553597f13bf559e4c50d1b03e1", "blocktime": 1537871175, "version": 1, "confirmations": 11511, "time": 1537871175, "locktime": 0, "vsize": 224, "size": 224}