{"hash": "7c0771daf495b2239a5c3758090dc7f6bc2a83cba632204faa5044b47bd5b7ac", "blockhash": "0000000000000000001e0dab787dd257d1dbfcb92a98c2207d5e1078be1f4165", "vout": [{"scriptPubKey": {"type": "nulldata", "hex": "6a146f6d6e69000000000000001f0000082f79cd9000", "asm": "OP_RETURN 6f6d6e69000000000000001f0000082f79cd9000"}, "value": 0.0, "n": 0}, {"scriptPubKey": {"reqSigs": 1, "hex": "76a9141f8c87f6a3f068e064aec409ab658a626575ca5d88ac", "addresses": ["13spJDiZB6d1F693ko13e1QhJcGYECU4MC"], "asm": "OP_DUP OP_HASH160 1f8c87f6a3f068e064aec409ab658a626575ca5d OP_EQUALVERIFY OP_CHECKSIG", "type": "pubkeyhash"}, "value": 0.00292556, "n": 1}, {"scriptPubKey": {"reqSigs": 1, "hex": "76a9143d5d896021734204e05378a29c393251fca8fdd788ac", "addresses": ["16bUGjvunVp7LqygLHrTvHyvbvfeuRCWAh"], "asm": "OP_DUP OP_HASH160 3d5d896021734204e05378a29c393251fca8fdd7 OP_EQUALVERIFY OP_CHECKSIG", "type": "pubkeyhash"}, "value": 5.46e-06, "n": 2}], "hex": "01000000018c9cb434c726bacaebf19500a96f6d4fb32a8ebf2c76d0cd181415d6d34739af010000006a473044022027ded235d13c01526ec0d44f1812b6bb4ace73c946138b426b3815020a53a92f022012fdb9cdfec05fcc65a941d3401b07395e8dd263ad2e1fafde056a7ab322992d01210223159e3329e3c836afd6aac878accacbb8662acdf8f1fffc4e75dc56c98be1acfeffffff030000000000000000166a146f6d6e69000000000000001f0000082f79cd9000cc760400000000001976a9141f8c87f6a3f068e064aec409ab658a626575ca5d88ac22020000000000001976a9143d5d896021734204e05378a29c393251fca8fdd788ac12490800", "vin": [{"sequence": 4294967294, "scriptSig": {"hex": "473044022027ded235d13c01526ec0d44f1812b6bb4ace73c946138b426b3815020a53a92f022012fdb9cdfec05fcc65a941d3401b07395e8dd263ad2e1fafde056a7ab322992d01210223159e3329e3c836afd6aac878accacbb8662acdf8f1fffc4e75dc56c98be1ac", "asm": "3044022027ded235d13c01526ec0d44f1812b6bb4ace73c946138b426b3815020a53a92f022012fdb9cdfec05fcc65a941d3401b07395e8dd263ad2e1fafde056a7ab322992d[ALL] 0223159e3329e3c836afd6aac878accacbb8662acdf8f1fffc4e75dc56c98be1ac"}, "vout": 1, "txid": "af3947d3d6151418cdd0762cbf8e2ab34f6d6fa90095f1ebcaba26c734b49c8c"}], "txid": "7c0771daf495b2239a5c3758090dc7f6bc2a83cba632204faa5044b47bd5b7ac", "blocktime": 1537872475, "version": 1, "confirmations": 11487, "time": 1537872475, "locktime": 542994, "vsize": 256, "size": 256}