{"hash": "583f0bf2c8f70033a45a776c30823d7d8284c1b496a1d00cedea67243c8bd999", "blockhash": "00000000000000000017f5eb5941039fbcee6240d03bc1f2f8e35350df66a1d8", "vout": [{"scriptPubKey": {"reqSigs": 1, "hex": "76a914811a705be4f2535e68925873b8bf5b608f36c24388ac", "addresses": ["1CmdqkgwpXQJLn6nVeJXnVPUubVXxNTMin"], "asm": "OP_DUP OP_HASH160 811a705be4f2535e68925873b8bf5b608f36c243 OP_EQUALVERIFY OP_CHECKSIG", "type": "pubkeyhash"}, "value": 0.00269653, "n": 0}, {"scriptPubKey": {"reqSigs": 1, "hex": "a914c1ae14210c76d7f8c4be723718465ea618f8895187", "addresses": ["3KM6smAPxK4wiLk6VdGrv9zzHmJfwDqfuq"], "asm": "OP_HASH160 c1ae14210c76d7f8c4be723718465ea618f88951 OP_EQUAL", "type": "scripthash"}, "value": 0.02743027, "n": 1}], "hex": "01000000000101bb8fe338d810cb3d5539ef161b00410f19e9d0ffe1aae1125f077b8feeb4392e0100000023220020b99024b0b0eff4e47516f15fa8e8e9b4baa43f97a125da91b16f7b56c5cd5d47ffffffff02551d0400000000001976a914811a705be4f2535e68925873b8bf5b608f36c24388acf3da29000000000017a914c1ae14210c76d7f8c4be723718465ea618f88951870400483045022100bbed17fbfb8ae3e19ec37eefc5d5a7f4d7af3de4942732f82de6cf22cf1c94ad0220638cadb8b4b89cebd7305232610bbd91ddeb5dfe91c6a62df8bf46c610da6c3e0147304402204a66e50e0ed27828fb34459a95d0d5f2f814d5bb6183b5f224b38e94ab0f79f302203331d35db464bf88c2c79dbe265ff0c75edba4d7ff756ac3340b8827a455a99c0147522103966835d0d4a4efd0657fc018c36a5484a4c6d01e122347c049e80afa24e72afb210292d679353fa4a760eaad69284c09d063a1fd1a15ad8c70e83dbf86f7063f8c1852ae00000000", "vin": [{"txinwitness": ["", "3045022100bbed17fbfb8ae3e19ec37eefc5d5a7f4d7af3de4942732f82de6cf22cf1c94ad0220638cadb8b4b89cebd7305232610bbd91ddeb5dfe91c6a62df8bf46c610da6c3e01", "304402204a66e50e0ed27828fb34459a95d0d5f2f814d5bb6183b5f224b38e94ab0f79f302203331d35db464bf88c2c79dbe265ff0c75edba4d7ff756ac3340b8827a455a99c01", "522103966835d0d4a4efd0657fc018c36a5484a4c6d01e122347c049e80afa24e72afb210292d679353fa4a760eaad69284c09d063a1fd1a15ad8c70e83dbf86f7063f8c1852ae"], "sequence": 4294967295, "scriptSig": {"hex": "220020b99024b0b0eff4e47516f15fa8e8e9b4baa43f97a125da91b16f7b56c5cd5d47", "asm": "0020b99024b0b0eff4e47516f15fa8e8e9b4baa43f97a125da91b16f7b56c5cd5d47"}, "vout": 1, "txid": "2e39b4ee8f7b075f12e1aae1ffd0e9190f41001b16ef39553dcb10d838e38fbb"}], "txid": "7c0c0639c8d43bbc0f8b4f96db0ed1cd72a7997a7b2954b62d476f06a5bf9562", "blocktime": 1537874412, "version": 1, "confirmations": 11467, "time": 1537874412, "locktime": 0, "vsize": 208, "size": 373}