{"hash": "575fc3add7e175b704c736450e05f4c7d08fbfb684978fc6a1d5e6ba12e7524e", "blockhash": "0000000000000000001e0dab787dd257d1dbfcb92a98c2207d5e1078be1f4165", "vout": [{"scriptPubKey": {"reqSigs": 1, "hex": "a914c6c9572ab0b0384ade0405cc2632d8ff083ae5f787", "addresses": ["3Kp6uugEP2ZhziRm8QnZBNHF3rRbUjPUAT"], "asm": "OP_HASH160 c6c9572ab0b0384ade0405cc2632d8ff083ae5f7 OP_EQUAL", "type": "scripthash"}, "value": 0.02558891, "n": 0}, {"scriptPubKey": {"reqSigs": 1, "hex": "a914ebbd4b7e9a5b268bc48e2755e8a799ef2f89b25c87", "addresses": ["3PBVV4g8BKZj82woP2wcc49YJ8t1mUNWan"], "asm": "OP_HASH160 ebbd4b7e9a5b268bc48e2755e8a799ef2f89b25c OP_EQUAL", "type": "scripthash"}, "value": 0.04, "n": 1}], "hex": "02000000000101adcafa239f065b02d411fe9175329c82a44f25b704bd1e99fce87ed115cc1b420300000017160014fe19652af77b867642af1879d5ea372abd3c52c6feffffff02ab0b27000000000017a914c6c9572ab0b0384ade0405cc2632d8ff083ae5f78700093d000000000017a914ebbd4b7e9a5b268bc48e2755e8a799ef2f89b25c8702483045022100cfdbabfe405ce42012fe696a91c320e3c3c425f86dc1bb4d51a3f5311b706bf7022057433090ab6aafb29ad267db7a7424be20fb9cf8fea9f9e8fad3a8523254b763012103d282cfef1fb7b08b9de89d0dce8e83c03ae1b9235957ee5d7ac137eb54fe690d11490800", "vin": [{"txinwitness": ["3045022100cfdbabfe405ce42012fe696a91c320e3c3c425f86dc1bb4d51a3f5311b706bf7022057433090ab6aafb29ad267db7a7424be20fb9cf8fea9f9e8fad3a8523254b76301", "03d282cfef1fb7b08b9de89d0dce8e83c03ae1b9235957ee5d7ac137eb54fe690d"], "sequence": 4294967294, "scriptSig": {"hex": "160014fe19652af77b867642af1879d5ea372abd3c52c6", "asm": "0014fe19652af77b867642af1879d5ea372abd3c52c6"}, "vout": 3, "txid": "421bcc15d17ee8fc991ebd04b7254fa4829c327591fe11d4025b069f23facaad"}], "txid": "7c1b10111e8e2d52686beacf1edecac578edc5180aa8d06e8956c719fd9f3792", "blocktime": 1537872475, "version": 2, "confirmations": 11487, "time": 1537872475, "locktime": 542993, "vsize": 166, "size": 248}