{"hash": "7c201a42ac388a2a6e127976ee9b5ad8ed73e640a67d7ec3357fb142974c1cb9", "blockhash": "000000000000000000022b45ed06c6f4ccd3cf7fb5ba4856ebd2e58215665228", "vout": [{"scriptPubKey": {"reqSigs": 1, "hex": "76a914199e2889bc9c72d6c0cc348f13ad72036fc19ae888ac", "addresses": ["13LTMqBS1s3QeoQcLEXSRLQ6s3GKVPbyWG"], "asm": "OP_DUP OP_HASH160 199e2889bc9c72d6c0cc348f13ad72036fc19ae8 OP_EQUALVERIFY OP_CHECKSIG", "type": "pubkeyhash"}, "value": 0.01557361, "n": 0}, {"scriptPubKey": {"reqSigs": 1, "hex": "76a914417ded08febbc9bde3377a8107ac1006181d1d8e88ac", "addresses": ["16yHmxQEoa5JWLAVfdWRkEuRjj9NREEu77"], "asm": "OP_DUP OP_HASH160 417ded08febbc9bde3377a8107ac1006181d1d8e OP_EQUALVERIFY OP_CHECKSIG", "type": "pubkeyhash"}, "value": 0.09390585, "n": 1}], "hex": "0100000001a407f4f5cb8581028ccef99bee03c155b95ff46781fa2aeb479b93e46dd53a26010000006b483045022100af9d536f40966015a80f91f2b7750bafaeef03f9dc6536564c92f5eea1e4dd490220114a0c33296d16af34361b630265e28cdd9df29cfc9bf8900efec512b5d9e7bd012102a1cb5da94030a60df24f76de02a08844fc4bb63a67354b355a9e39ac215c6442ffffffff0271c31700000000001976a914199e2889bc9c72d6c0cc348f13ad72036fc19ae888acf9498f00000000001976a914417ded08febbc9bde3377a8107ac1006181d1d8e88ac00000000", "vin": [{"sequence": 4294967295, "scriptSig": {"hex": "483045022100af9d536f40966015a80f91f2b7750bafaeef03f9dc6536564c92f5eea1e4dd490220114a0c33296d16af34361b630265e28cdd9df29cfc9bf8900efec512b5d9e7bd012102a1cb5da94030a60df24f76de02a08844fc4bb63a67354b355a9e39ac215c6442", "asm": "3045022100af9d536f40966015a80f91f2b7750bafaeef03f9dc6536564c92f5eea1e4dd490220114a0c33296d16af34361b630265e28cdd9df29cfc9bf8900efec512b5d9e7bd[ALL] 02a1cb5da94030a60df24f76de02a08844fc4bb63a67354b355a9e39ac215c6442"}, "vout": 1, "txid": "263ad56de4939b47eb2afa8167f45fb955c103ee9bf9ce8c028185cbf5f407a4"}], "txid": "7c201a42ac388a2a6e127976ee9b5ad8ed73e640a67d7ec3357fb142974c1cb9", "blocktime": 1537869901, "version": 1, "confirmations": 11524, "time": 1537869901, "locktime": 0, "vsize": 226, "size": 226}