{"hash": "7c245d60c53b161e18787e03d2598352a309b2f5e6263bdee7467f1869399f04", "blockhash": "000000000000000000022b45ed06c6f4ccd3cf7fb5ba4856ebd2e58215665228", "vout": [{"scriptPubKey": {"reqSigs": 1, "hex": "76a9142e153cf5f291fa143fb40da1a1a44368b79fc7ca88ac", "addresses": ["15CfXUZYs1npsYJcbKty5GXaTZEVFZHsaR"], "asm": "OP_DUP OP_HASH160 2e153cf5f291fa143fb40da1a1a44368b79fc7ca OP_EQUALVERIFY OP_CHECKSIG", "type": "pubkeyhash"}, "value": 0.00044717, "n": 0}, {"scriptPubKey": {"reqSigs": 1, "hex": "76a914828417dcb308bdc2b76f45d0cecd990fba8bbd9a88ac", "addresses": ["1Cu75wEwxPH3rQ2YDHWpATXX1fKi4Gt3rf"], "asm": "OP_DUP OP_HASH160 828417dcb308bdc2b76f45d0cecd990fba8bbd9a OP_EQUALVERIFY OP_CHECKSIG", "type": "pubkeyhash"}, "value": 0.0050085, "n": 1}], "hex": "0100000001fc62250d4d494060d16684d42ea4501cff750335c39fa012413fd4794cad2673010000006a47304402200b24bfc0152d31e84c16c44c2e2927e71a4a13148fa80b86b1815d202c593378022062239151bf7ebc83163271657d5ce3019aee48611987fefe9a3dd78eeb703c9901210285755fd664575442899c500b02c9d407c7e6820c1a826a96a95163681271a02affffffff02adae0000000000001976a9142e153cf5f291fa143fb40da1a1a44368b79fc7ca88ac72a40700000000001976a914828417dcb308bdc2b76f45d0cecd990fba8bbd9a88ac00000000", "vin": [{"sequence": 4294967295, "scriptSig": {"hex": "47304402200b24bfc0152d31e84c16c44c2e2927e71a4a13148fa80b86b1815d202c593378022062239151bf7ebc83163271657d5ce3019aee48611987fefe9a3dd78eeb703c9901210285755fd664575442899c500b02c9d407c7e6820c1a826a96a95163681271a02a", "asm": "304402200b24bfc0152d31e84c16c44c2e2927e71a4a13148fa80b86b1815d202c593378022062239151bf7ebc83163271657d5ce3019aee48611987fefe9a3dd78eeb703c99[ALL] 0285755fd664575442899c500b02c9d407c7e6820c1a826a96a95163681271a02a"}, "vout": 1, "txid": "7326ad4c79d43f4112a09fc3350375ff1c50a42ed48466d16040494d0d2562fc"}], "txid": "7c245d60c53b161e18787e03d2598352a309b2f5e6263bdee7467f1869399f04", "blocktime": 1537869901, "version": 1, "confirmations": 11524, "time": 1537869901, "locktime": 0, "vsize": 225, "size": 225}