{"hash": "7c2c073a6d5910cd7474c6caec1cd3abe2a11b5a1edcc1418c9c0fc3fb7dca25", "blockhash": "0000000000000000001f0ddff1eddb255c1121bcd4da4f1bc9a0da00cae72433", "vout": [{"scriptPubKey": {"reqSigs": 1, "hex": "76a914ec5ca1041bba701f2dd3a08659105cb45cd0ee0788ac", "addresses": ["1NYmSFF6rdow7rHUjgZWjo4buprbSLKkpt"], "asm": "OP_DUP OP_HASH160 ec5ca1041bba701f2dd3a08659105cb45cd0ee07 OP_EQUALVERIFY OP_CHECKSIG", "type": "pubkeyhash"}, "value": 0.02633819, "n": 0}, {"scriptPubKey": {"reqSigs": 1, "hex": "a9149b23f826ba54f9688ce064005befdc5acae03e6487", "addresses": ["3FqKkUH1CdkxJo4f4Tw9dGsD7C5HtUeRXq"], "asm": "OP_HASH160 9b23f826ba54f9688ce064005befdc5acae03e64 OP_EQUAL", "type": "scripthash"}, "value": 0.1, "n": 1}], "hex": "0200000001e9c84016000422f5a5d3c3dc29e9b9f0508df50b6a5e14f53945f7f2420395ad010000006b48304502210093ee1bea9e83f75ca6e19eb285d0275bcbae128a01750cc090ecb68c20db97ad0220376743381f098e2e8a70740434eeea9fe0355c783a9ef24fd507b84ea4aa032501210352ca03b81c2a5cb495c63013773977658dc4964648e9bc2ee431ba0e9a3e1e88feffffff025b302800000000001976a914ec5ca1041bba701f2dd3a08659105cb45cd0ee0788ac809698000000000017a9149b23f826ba54f9688ce064005befdc5acae03e648710490800", "vin": [{"sequence": 4294967294, "scriptSig": {"hex": "48304502210093ee1bea9e83f75ca6e19eb285d0275bcbae128a01750cc090ecb68c20db97ad0220376743381f098e2e8a70740434eeea9fe0355c783a9ef24fd507b84ea4aa032501210352ca03b81c2a5cb495c63013773977658dc4964648e9bc2ee431ba0e9a3e1e88", "asm": "304502210093ee1bea9e83f75ca6e19eb285d0275bcbae128a01750cc090ecb68c20db97ad0220376743381f098e2e8a70740434eeea9fe0355c783a9ef24fd507b84ea4aa0325[ALL] 0352ca03b81c2a5cb495c63013773977658dc4964648e9bc2ee431ba0e9a3e1e88"}, "vout": 1, "txid": "ad950342f2f74539f5145e6a0bf58d50f0b9e929dcc3d3a5f52204001640c8e9"}], "txid": "7c2c073a6d5910cd7474c6caec1cd3abe2a11b5a1edcc1418c9c0fc3fb7dca25", "blocktime": 1537872018, "version": 2, "confirmations": 11489, "time": 1537872018, "locktime": 542992, "vsize": 224, "size": 224}