{"hash": "50dab913e6c0993f367e4e85815832c1185991a0f99b80b8c7476e9a648bcc72", "blockhash": "0000000000000000001cda96e906b7601b7a6fb1a3b62bca570a9e5d8f4b3de1", "vout": [{"scriptPubKey": {"reqSigs": 1, "hex": "a9141af0014aa91423607b03f2ef5d3a2cc1900faabe87", "addresses": ["349T1NfEf7oJT7ukHD9LnuUrHZuJaRLjwi"], "asm": "OP_HASH160 1af0014aa91423607b03f2ef5d3a2cc1900faabe OP_EQUAL", "type": "scripthash"}, "value": 0.00960725, "n": 0}, {"scriptPubKey": {"reqSigs": 1, "hex": "76a914aad20de3795383397fe65d11cfc5a419ee96634388ac", "addresses": ["1GaDWSKKb8GctbPUmsKwaTSbYqHkesHuPm"], "asm": "OP_DUP OP_HASH160 aad20de3795383397fe65d11cfc5a419ee966343 OP_EQUALVERIFY OP_CHECKSIG", "type": "pubkeyhash"}, "value": 0.00312767, "n": 1}], "hex": "0100000000010140674ec2ddb39e91aeeb7907ecfdfb9cb1cc3d3c8ca9adfb174aa36bb2b7f8c401000000232200202473d215a86083b032653fd5825e52233749a9960758c6d9a37e848c554450d8fdffffff02d5a80e000000000017a9141af0014aa91423607b03f2ef5d3a2cc1900faabe87bfc50400000000001976a914aad20de3795383397fe65d11cfc5a419ee96634388ac0400473044022065ab8c1508b9de2fe9d7e9ab4c5698def1f2ea69ed4cc819162c066678c2326d0220710dc6b77085fdf0985b81bbf3b2b6f2e8fae8e0fd319a729a6081037724eb7e014830450221009ee38974ac98bc19d103d1ecc26daa34113568121f08a6406a201ff366f3a584022033558ce1f25e68350d455b2f86878761efa6dd56fa7e9fe7e2b3379cf3326cbb0147522102b679d196e708ce278cc42e1df211afb3e5829ed5577a12e71942901eb923053c2103d7a733fd081952457c46360760062f81a37d1400b8d9531a5c828033367b867952ae13490800", "vin": [{"txinwitness": ["", "3044022065ab8c1508b9de2fe9d7e9ab4c5698def1f2ea69ed4cc819162c066678c2326d0220710dc6b77085fdf0985b81bbf3b2b6f2e8fae8e0fd319a729a6081037724eb7e01", "30450221009ee38974ac98bc19d103d1ecc26daa34113568121f08a6406a201ff366f3a584022033558ce1f25e68350d455b2f86878761efa6dd56fa7e9fe7e2b3379cf3326cbb01", "522102b679d196e708ce278cc42e1df211afb3e5829ed5577a12e71942901eb923053c2103d7a733fd081952457c46360760062f81a37d1400b8d9531a5c828033367b867952ae"], "sequence": 4294967293, "scriptSig": {"hex": "2200202473d215a86083b032653fd5825e52233749a9960758c6d9a37e848c554450d8", "asm": "00202473d215a86083b032653fd5825e52233749a9960758c6d9a37e848c554450d8"}, "vout": 1, "txid": "c4f8b7b26ba34a17fbada98c3c3dccb19cfbfdec0779ebae919eb3ddc24e6740"}], "txid": "7c31ea55ad473c9bccfb9f31102de62ad15fceec8480ad4bea0107de1bb723a2", "blocktime": 1537873282, "version": 1, "confirmations": 11485, "time": 1537873282, "locktime": 542995, "vsize": 208, "size": 373}