{"hash": "04c159bb5f7a53681dff717f5564c005d5db8df4f22ae86d66071fa995d4feac", "blockhash": "0000000000000000000e13cef7c366c0283d82e591d1acd082e914b08063cdf1", "vout": [{"scriptPubKey": {"reqSigs": 1, "hex": "0014d9db262ffce01a8043a4fa878673a1586d68234e", "addresses": ["bc1qm8djvtluuqdgqsayl2rcvuaptpkksg6w98de4e"], "asm": "0 d9db262ffce01a8043a4fa878673a1586d68234e", "type": "witness_v0_keyhash"}, "value": 0.00260704, "n": 0}, {"scriptPubKey": {"reqSigs": 1, "hex": "76a91462f9a19bb360a0c3c690c954a73ac93b0defb7bb88ac", "addresses": ["1A2LGV8JrkBhHwfUaMMLy55eF2uQ2wYnWE"], "asm": "OP_DUP OP_HASH160 62f9a19bb360a0c3c690c954a73ac93b0defb7bb OP_EQUALVERIFY OP_CHECKSIG", "type": "pubkeyhash"}, "value": 0.010556, "n": 1}], "hex": "010000000001018902b7297b941550fa285434415fcbde2ae63455ead71616240902fe5db8ee7b00000000171600142057b141ec83d25cab79aa311aa05e426f3f9d67ffffffff0260fa030000000000160014d9db262ffce01a8043a4fa878673a1586d68234e701b1000000000001976a91462f9a19bb360a0c3c690c954a73ac93b0defb7bb88ac02483045022100ecf4935656d6cd45706c0a122495d019235fbe32acfc7e3f8fd83db3d24db114022019f1fa96d894987aa8c6547ef820526720a0356ecdbc830b01100a5598e48ceb012103d262ebde3098b276403545a790bbaf91b3370b29f0a25df262ab93169595b98500000000", "vin": [{"txinwitness": ["3045022100ecf4935656d6cd45706c0a122495d019235fbe32acfc7e3f8fd83db3d24db114022019f1fa96d894987aa8c6547ef820526720a0356ecdbc830b01100a5598e48ceb01", "03d262ebde3098b276403545a790bbaf91b3370b29f0a25df262ab93169595b985"], "sequence": 4294967295, "scriptSig": {"hex": "1600142057b141ec83d25cab79aa311aa05e426f3f9d67", "asm": "00142057b141ec83d25cab79aa311aa05e426f3f9d67"}, "vout": 0, "txid": "7beeb85dfe0209241616d7ea5534e62adecb5f41345428fa5015947b29b70289"}], "txid": "7c3ae5c7096707ea31c8ac896d85b7415480c8620daf0311d5baebe8686de8ab", "blocktime": 1537871767, "version": 1, "confirmations": 11495, "time": 1537871767, "locktime": 0, "vsize": 167, "size": 249}