{"hash": "cdba7453b264d806e03c7927103271c57841338f95b237ac462f5ea53ee94b6b", "blockhash": "0000000000000000001f76057863aec43deb6fa401d9628bb513d65a8098bfab", "vout": [{"scriptPubKey": {"reqSigs": 1, "hex": "a91462450c907a35660b0919a290b55599fbdeb11e0f87", "addresses": ["3AecrxUaQD3apKsdMDBh4kamtMaT5ckMy6"], "asm": "OP_HASH160 62450c907a35660b0919a290b55599fbdeb11e0f OP_EQUAL", "type": "scripthash"}, "value": 0.01003493, "n": 0}, {"scriptPubKey": {"reqSigs": 1, "hex": "a9141495de23ffaf87c282f50ddc0450cae85e1d495687", "addresses": ["33ZryNbvWqsdau18FCj3n8FiQ4ZdSVG4CW"], "asm": "OP_HASH160 1495de23ffaf87c282f50ddc0450cae85e1d4956 OP_EQUAL", "type": "scripthash"}, "value": 0.01483, "n": 1}], "hex": "020000000001034b8f2410a6958ab67f99216566022a60c0f0c154f115340afd4024c32fb26f760000000017160014a8796c929ff04fbf382167e356f122674b39e0c0feffffffa2f5a82fe9a8068cedf91c9b7bd09f14acf4087623b505e7fcf8065b9246daa71500000017160014e79c9fcd81640b26f9b168ed4755a6f0491ef99afeffffffb624f15232ea621c244f74c717af4bb6b7ce863133cc76e96b0723571c40a8d500000000171600145f9ea70abbc45d3c3c1f5b4b468832619e9d275bfeffffff02e54f0f000000000017a91462450c907a35660b0919a290b55599fbdeb11e0f87f8a016000000000017a9141495de23ffaf87c282f50ddc0450cae85e1d4956870248304502210099dbab3666acfaaa702257b614be7a944121415fcf0cb2c5fd171be93a76c70d02207188b7a6ffd7a4199ab4f5ea56db8ecd68ec66aa677f8e17a89519165c3599af0121030f125bd0d42cf76e1451b304f2743ea1740e0f416dd2d5309dc1e7a6de906a1d02473044022045a8847f84b2d24de5fd6a660b75bd25b11c44f5968eaff2f08f63674cb0d118022049331bd12c32eb3b2840a14c94ac714e4dcb504842c035e371157b8e2baf704b0121029491623d8305e0685ab4ddb702674cd2251afa1eecbbeb56610661959be960e702473044022015af7da98e434cf1b13f2d363b384b0f80031686e46952f3b9a761811d3357f5022032e8f0924f4a44f4f2291668742e856d11e6d3690b594f3259fa808887792a030121023165c2b3a7a8538d7382837356dd1e891517605eb9ebcd7acc34d4883ceccf1300000000", "vin": [{"txinwitness": ["304502210099dbab3666acfaaa702257b614be7a944121415fcf0cb2c5fd171be93a76c70d02207188b7a6ffd7a4199ab4f5ea56db8ecd68ec66aa677f8e17a89519165c3599af01", "030f125bd0d42cf76e1451b304f2743ea1740e0f416dd2d5309dc1e7a6de906a1d"], "sequence": 4294967294, "scriptSig": {"hex": "160014a8796c929ff04fbf382167e356f122674b39e0c0", "asm": "0014a8796c929ff04fbf382167e356f122674b39e0c0"}, "vout": 0, "txid": "766fb22fc32440fd0a3415f154c1f0c0602a02666521997fb68a95a610248f4b"}, {"txinwitness": ["3044022045a8847f84b2d24de5fd6a660b75bd25b11c44f5968eaff2f08f63674cb0d118022049331bd12c32eb3b2840a14c94ac714e4dcb504842c035e371157b8e2baf704b01", "029491623d8305e0685ab4ddb702674cd2251afa1eecbbeb56610661959be960e7"], "sequence": 4294967294, "scriptSig": {"hex": "160014e79c9fcd81640b26f9b168ed4755a6f0491ef99a", "asm": "0014e79c9fcd81640b26f9b168ed4755a6f0491ef99a"}, "vout": 21, "txid": "a7da46925b06f8fce705b5237608f4ac149fd07b9b1cf9ed8c06a8e92fa8f5a2"}, {"txinwitness": ["3044022015af7da98e434cf1b13f2d363b384b0f80031686e46952f3b9a761811d3357f5022032e8f0924f4a44f4f2291668742e856d11e6d3690b594f3259fa808887792a0301", "023165c2b3a7a8538d7382837356dd1e891517605eb9ebcd7acc34d4883ceccf13"], "sequence": 4294967294, "scriptSig": {"hex": "1600145f9ea70abbc45d3c3c1f5b4b468832619e9d275b", "asm": "00145f9ea70abbc45d3c3c1f5b4b468832619e9d275b"}, "vout": 0, "txid": "d5a8401c5723076be976cc333186ceb7b64baf17c7744f241c62ea3252f124b6"}], "txid": "7c3bcbff860dd09c2bf929ead90ccfb99c3d391efc42841b04b243043fee7995", "blocktime": 1537873891, "version": 2, "confirmations": 11478, "time": 1537873891, "locktime": 0, "vsize": 347, "size": 590}