{"hash": "61ab672740ceac8691eace547aa864710385223f6d424bcb7c2ce76054c14d4f", "blockhash": "0000000000000000000baef3f32e3676a92c3b2e5da21b426e4f302fc371ce76", "vout": [{"scriptPubKey": {"reqSigs": 1, "hex": "76a914eb3257daa592b3f5165eb06509ca4f9f3829e8ae88ac", "addresses": ["1NSc6zAdG2NGbjPLQwAjAuqjHSoq5KECT7"], "asm": "OP_DUP OP_HASH160 eb3257daa592b3f5165eb06509ca4f9f3829e8ae OP_EQUALVERIFY OP_CHECKSIG", "type": "pubkeyhash"}, "value": 9.0, "n": 0}, {"scriptPubKey": {"reqSigs": 1, "hex": "76a914cebb2851a9c7cfe2582c12ecaf7f3ff4383d1dc088ac", "addresses": ["1Kr6QSydW9bFQG1mXiPNNu6WpJGmUa9i1g"], "asm": "OP_DUP OP_HASH160 cebb2851a9c7cfe2582c12ecaf7f3ff4383d1dc0 OP_EQUALVERIFY OP_CHECKSIG", "type": "pubkeyhash"}, "value": 194.47267412, "n": 1}], "hex": "020000000001083cb958cbc580d286144f2eb6a3c072e76d6523eebd4aa65bd6ff0bf1a4139171410000006b48304502210098e333841dbaad201cd8fc2afd67cb849e6adc3305aad34d14dfb94f7a2fe96502205fcfcb6b7df3e176be550db62cb650c4e6fe9120b73271a0de33aa49034bb2ac01210335b20599beb3ffc33012c8fd34385cb7c35963ef3322d27f39fa3b0f3d0c413affffffff215573c34e009b4e063f1dbfa1629a64f541b424ad63bd5e603e731421fba01e060000006b48304502210091a3878110cdc9861c436f47ce2ab83c86aa50243651d65d0c62f2410527a29502206dda7f43e9b19e3551e7208fe6a98cb61371d3966647972e312f5bdc058e85d30121031e8c78693cf02a23d910589897d99a844b438e8b48f588094ec3fe444568d65dffffffffa3660a1c203ac080792c90ef8b3611d5ed2b345635c7831ba4ee00c628ce42b8000000006b483045022100ee207211cc769f7228be51d2f8e190276f851b81743392d87387535b88f3fe2a02206ae0a750d882cbe093e188098635e8feec863d7b02ea9b609e4204eb242bb21c012102c7f0380b096289fc8d2d97a323548d99b93cd907bc73bc03c4cb89ae70ed7b63ffffffffbb64e8cdc37e3e5325465a14e54ec9fb2ad766aabae654e982ba5a15efef9f2c1900000017160014efa602ddb24e16c62aade3584480354cb5cac957ffffffff5bd305780b6a3e711c816262d861f4b4707795c743f5eccacaeda93bb43ed288000000006b483045022100ed7cf0ee8c59ccc62cc29cad8d02ffea5540b71717abb856772a33abaf93e61302206462a81a30120ec3596bc6585b8d701b32220fc8da897eb22772d8c9392990660121037895e12be9eb60619595f88a063c79c740420f010d2475ecf48646d0b41a7ea9ffffffff18766895875f2a2c2262c36bb0289a9761bb130a0128130ea5d6054f52289785010000006a473044022042d2e07704a8fa92003ee800a59d102636e024c22296a60aa729788b8c06a138022019e1011dcd4dfb6ba9057279044003d61b3503e85cf5230cde019c206593185d0121029d72e311f9730cab0d3f8f5b844e111bbaaff38d129d3d4c9680cbf7f37769adffffffff234d0627bb057422871640953a0955a59edbd978d338aaa02c7e3cd2a24a57ff00000000171600143be9d85a5baac9bf1aec4aa48eff50f7126bb07affffffff66fc3fb3af42c706f16767d5a279efd0be15bdef5026e8e3597c3690a0fe3736020000006b483045022100e42629e20268ec107a36bbac07da6b8a803651a8950d651e985854691853fa4d02203006bf7bd2d71d1a1cecb016c6fc8d2210e199d947dfb43283990c9bbd476ed9012103786af4b32017ec640dba2d2a7e1fd5aa4a231a658e4cbc114d51c031576e19bcffffffff0200e9a435000000001976a914eb3257daa592b3f5165eb06509ca4f9f3829e8ae88ac54c02587040000001976a914cebb2851a9c7cfe2582c12ecaf7f3ff4383d1dc088ac0000000248304502210090893aa104715fab90ff688664419bd6a0c99e48e5caeb2dea0290ffb4494666022015fa57f795c97c5793000af997ddd2af3367700d373c0705043a6f9b4ff580710121027d55f4733cd1c7f7337b3170c1af9d3fdb9910fe48b3a2cee311c7e29678bbfb000002483045022100822cb928daae3e962e592e92d50c26011a258f1a41dfb2c889705069dac23cce02207a4d3255f2f7d3551b5244912b08c5c85a6dcf9c0ca4dd212451b2d1a52f5f97012103af3ff8d07651278b5badad643983c114cd58c089ebd84b6d8d0b013dae650afc0000000000", "vin": [{"sequence": 4294967295, "scriptSig": {"hex": "48304502210098e333841dbaad201cd8fc2afd67cb849e6adc3305aad34d14dfb94f7a2fe96502205fcfcb6b7df3e176be550db62cb650c4e6fe9120b73271a0de33aa49034bb2ac01210335b20599beb3ffc33012c8fd34385cb7c35963ef3322d27f39fa3b0f3d0c413a", "asm": "304502210098e333841dbaad201cd8fc2afd67cb849e6adc3305aad34d14dfb94f7a2fe96502205fcfcb6b7df3e176be550db62cb650c4e6fe9120b73271a0de33aa49034bb2ac[ALL] 0335b20599beb3ffc33012c8fd34385cb7c35963ef3322d27f39fa3b0f3d0c413a"}, "vout": 65, "txid": "719113a4f10bffd65ba64abdee23656de772c0a3b62e4f1486d280c5cb58b93c"}, {"sequence": 4294967295, "scriptSig": {"hex": "48304502210091a3878110cdc9861c436f47ce2ab83c86aa50243651d65d0c62f2410527a29502206dda7f43e9b19e3551e7208fe6a98cb61371d3966647972e312f5bdc058e85d30121031e8c78693cf02a23d910589897d99a844b438e8b48f588094ec3fe444568d65d", "asm": "304502210091a3878110cdc9861c436f47ce2ab83c86aa50243651d65d0c62f2410527a29502206dda7f43e9b19e3551e7208fe6a98cb61371d3966647972e312f5bdc058e85d3[ALL] 031e8c78693cf02a23d910589897d99a844b438e8b48f588094ec3fe444568d65d"}, "vout": 6, "txid": "1ea0fb2114733e605ebd63ad24b441f5649a62a1bf1d3f064e9b004ec3735521"}, {"sequence": 4294967295, "scriptSig": {"hex": "483045022100ee207211cc769f7228be51d2f8e190276f851b81743392d87387535b88f3fe2a02206ae0a750d882cbe093e188098635e8feec863d7b02ea9b609e4204eb242bb21c012102c7f0380b096289fc8d2d97a323548d99b93cd907bc73bc03c4cb89ae70ed7b63", "asm": "3045022100ee207211cc769f7228be51d2f8e190276f851b81743392d87387535b88f3fe2a02206ae0a750d882cbe093e188098635e8feec863d7b02ea9b609e4204eb242bb21c[ALL] 02c7f0380b096289fc8d2d97a323548d99b93cd907bc73bc03c4cb89ae70ed7b63"}, "vout": 0, "txid": "b842ce28c600eea41b83c73556342bedd511368bef902c7980c03a201c0a66a3"}, {"txinwitness": ["304502210090893aa104715fab90ff688664419bd6a0c99e48e5caeb2dea0290ffb4494666022015fa57f795c97c5793000af997ddd2af3367700d373c0705043a6f9b4ff5807101", "027d55f4733cd1c7f7337b3170c1af9d3fdb9910fe48b3a2cee311c7e29678bbfb"], "sequence": 4294967295, "scriptSig": {"hex": "160014efa602ddb24e16c62aade3584480354cb5cac957", "asm": "0014efa602ddb24e16c62aade3584480354cb5cac957"}, "vout": 25, "txid": "2c9fefef155aba82e954e6baaa66d72afbc94ee5145a4625533e7ec3cde864bb"}, {"sequence": 4294967295, "scriptSig": {"hex": "483045022100ed7cf0ee8c59ccc62cc29cad8d02ffea5540b71717abb856772a33abaf93e61302206462a81a30120ec3596bc6585b8d701b32220fc8da897eb22772d8c9392990660121037895e12be9eb60619595f88a063c79c740420f010d2475ecf48646d0b41a7ea9", "asm": "3045022100ed7cf0ee8c59ccc62cc29cad8d02ffea5540b71717abb856772a33abaf93e61302206462a81a30120ec3596bc6585b8d701b32220fc8da897eb22772d8c939299066[ALL] 037895e12be9eb60619595f88a063c79c740420f010d2475ecf48646d0b41a7ea9"}, "vout": 0, "txid": "88d23eb43ba9edcacaecf543c7957770b4f461d86262811c713e6a0b7805d35b"}, {"sequence": 4294967295, "scriptSig": {"hex": "473044022042d2e07704a8fa92003ee800a59d102636e024c22296a60aa729788b8c06a138022019e1011dcd4dfb6ba9057279044003d61b3503e85cf5230cde019c206593185d0121029d72e311f9730cab0d3f8f5b844e111bbaaff38d129d3d4c9680cbf7f37769ad", "asm": "3044022042d2e07704a8fa92003ee800a59d102636e024c22296a60aa729788b8c06a138022019e1011dcd4dfb6ba9057279044003d61b3503e85cf5230cde019c206593185d[ALL] 029d72e311f9730cab0d3f8f5b844e111bbaaff38d129d3d4c9680cbf7f37769ad"}, "vout": 1, "txid": "859728524f05d6a50e1328010a13bb61979a28b06bc362222c2a5f8795687618"}, {"txinwitness": ["3045022100822cb928daae3e962e592e92d50c26011a258f1a41dfb2c889705069dac23cce02207a4d3255f2f7d3551b5244912b08c5c85a6dcf9c0ca4dd212451b2d1a52f5f9701", "03af3ff8d07651278b5badad643983c114cd58c089ebd84b6d8d0b013dae650afc"], "sequence": 4294967295, "scriptSig": {"hex": "1600143be9d85a5baac9bf1aec4aa48eff50f7126bb07a", "asm": "00143be9d85a5baac9bf1aec4aa48eff50f7126bb07a"}, "vout": 0, "txid": "ff574aa2d23c7e2ca0aa38d378d9db9ea555093a95401687227405bb27064d23"}, {"sequence": 4294967295, "scriptSig": {"hex": "483045022100e42629e20268ec107a36bbac07da6b8a803651a8950d651e985854691853fa4d02203006bf7bd2d71d1a1cecb016c6fc8d2210e199d947dfb43283990c9bbd476ed9012103786af4b32017ec640dba2d2a7e1fd5aa4a231a658e4cbc114d51c031576e19bc", "asm": "3045022100e42629e20268ec107a36bbac07da6b8a803651a8950d651e985854691853fa4d02203006bf7bd2d71d1a1cecb016c6fc8d2210e199d947dfb43283990c9bbd476ed9[ALL] 03786af4b32017ec640dba2d2a7e1fd5aa4a231a658e4cbc114d51c031576e19bc"}, "vout": 2, "txid": "3637fea090367c59e3e82650efbd15bed0ef79a2d56767f106c742afb33ffc66"}], "txid": "7c40465b38efc774f7943689608054945d651f87d617d2de2bcc71a2c234a975", "blocktime": 1537876114, "version": 2, "confirmations": 11460, "time": 1537876114, "locktime": 0, "vsize": 1149, "size": 1317}