{"hash": "7c45abbeb519c8f46f24f7be475ea6b378e6224976b79cf05ca7fffd997716dc", "blockhash": "0000000000000000000baef3f32e3676a92c3b2e5da21b426e4f302fc371ce76", "vout": [{"scriptPubKey": {"reqSigs": 1, "hex": "a914dd9dc6a441b75c3a3cf7d52601fba93d55728ce687", "addresses": ["3MtpGQL5k6tYHku7eJBRa35C5DZGaJGvFy"], "asm": "OP_HASH160 dd9dc6a441b75c3a3cf7d52601fba93d55728ce6 OP_EQUAL", "type": "scripthash"}, "value": 1.15206, "n": 0}, {"scriptPubKey": {"reqSigs": 1, "hex": "a914e370231feecbfc25e2e2423a5a79bf79bfdca59887", "addresses": ["3NRbeX3vD5VaVE4TDU9ivCDsEf7NPPte6J"], "asm": "OP_HASH160 e370231feecbfc25e2e2423a5a79bf79bfdca598 OP_EQUAL", "type": "scripthash"}, "value": 9.33292132, "n": 1}], "hex": "01000000020da6c25f785689a4e20603ab54d6226d0afb47c65a219d4d4130c9306978a46c01000000da004730440220431438c11058d1a44a050b2c19eabb4fe32ffd627bba6553ced06c77de99d2ff022062242b37f575b04da0c65c90889a888cdab28bef9b5003b7ad0d64776628698c01483045022100d27838dec450069e2f0506ea7911e432d3f18092354f6911620ecbb88bbae32902204c14998b37df089c4a342278c5c4c7f8b570dd5e39c37c0e5fc1958328dd3a4e014752210327881b6abce6535553a3ce21fad12a7d74fd237ce7c4cd270a267162344e3082210256141f8eb687f5a68c5cc65054652dc25116fa285e44d72b44368827ffe77d9a52aeffffffffaab137d8328a563ab1189605fdf254fec1a44ae4552d14803b8ec63ac2cb601901000000da00473044022032f4418639f181afa584f9ad91a048a5ecfd8fcf960b949eaf9566ee6a0b04ca022017848cbd9b73e591c4f91f5c4cbf9c9ba490da0d9ad885304ea98d5c53542d2e01483045022100c89bfa5cd0e0155c5913a265ec7dda7b03eb848383628f0fcd613844e63d3fe4022074ce7cc1ed6f751af8d95c4fc046b7b82a20cc87904d8277f80ed999333a1836014752210327881b6abce6535553a3ce21fad12a7d74fd237ce7c4cd270a267162344e3082210256141f8eb687f5a68c5cc65054652dc25116fa285e44d72b44368827ffe77d9a52aeffffffff0270e7dd060000000017a914dd9dc6a441b75c3a3cf7d52601fba93d55728ce68764e8a0370000000017a914e370231feecbfc25e2e2423a5a79bf79bfdca5988700000000", "vin": [{"sequence": 4294967295, "scriptSig": {"hex": "004730440220431438c11058d1a44a050b2c19eabb4fe32ffd627bba6553ced06c77de99d2ff022062242b37f575b04da0c65c90889a888cdab28bef9b5003b7ad0d64776628698c01483045022100d27838dec450069e2f0506ea7911e432d3f18092354f6911620ecbb88bbae32902204c14998b37df089c4a342278c5c4c7f8b570dd5e39c37c0e5fc1958328dd3a4e014752210327881b6abce6535553a3ce21fad12a7d74fd237ce7c4cd270a267162344e3082210256141f8eb687f5a68c5cc65054652dc25116fa285e44d72b44368827ffe77d9a52ae", "asm": "0 30440220431438c11058d1a44a050b2c19eabb4fe32ffd627bba6553ced06c77de99d2ff022062242b37f575b04da0c65c90889a888cdab28bef9b5003b7ad0d64776628698c[ALL] 3045022100d27838dec450069e2f0506ea7911e432d3f18092354f6911620ecbb88bbae32902204c14998b37df089c4a342278c5c4c7f8b570dd5e39c37c0e5fc1958328dd3a4e[ALL] 52210327881b6abce6535553a3ce21fad12a7d74fd237ce7c4cd270a267162344e3082210256141f8eb687f5a68c5cc65054652dc25116fa285e44d72b44368827ffe77d9a52ae"}, "vout": 1, "txid": "6ca4786930c930414d9d215ac647fb0a6d22d654ab0306e2a48956785fc2a60d"}, {"sequence": 4294967295, "scriptSig": {"hex": "00473044022032f4418639f181afa584f9ad91a048a5ecfd8fcf960b949eaf9566ee6a0b04ca022017848cbd9b73e591c4f91f5c4cbf9c9ba490da0d9ad885304ea98d5c53542d2e01483045022100c89bfa5cd0e0155c5913a265ec7dda7b03eb848383628f0fcd613844e63d3fe4022074ce7cc1ed6f751af8d95c4fc046b7b82a20cc87904d8277f80ed999333a1836014752210327881b6abce6535553a3ce21fad12a7d74fd237ce7c4cd270a267162344e3082210256141f8eb687f5a68c5cc65054652dc25116fa285e44d72b44368827ffe77d9a52ae", "asm": "0 3044022032f4418639f181afa584f9ad91a048a5ecfd8fcf960b949eaf9566ee6a0b04ca022017848cbd9b73e591c4f91f5c4cbf9c9ba490da0d9ad885304ea98d5c53542d2e[ALL] 3045022100c89bfa5cd0e0155c5913a265ec7dda7b03eb848383628f0fcd613844e63d3fe4022074ce7cc1ed6f751af8d95c4fc046b7b82a20cc87904d8277f80ed999333a1836[ALL] 52210327881b6abce6535553a3ce21fad12a7d74fd237ce7c4cd270a267162344e3082210256141f8eb687f5a68c5cc65054652dc25116fa285e44d72b44368827ffe77d9a52ae"}, "vout": 1, "txid": "1960cbc23ac68e3b80142d55e44aa4c1fe54f2fd059618b13a568a32d837b1aa"}], "txid": "7c45abbeb519c8f46f24f7be475ea6b378e6224976b79cf05ca7fffd997716dc", "blocktime": 1537876114, "version": 1, "confirmations": 11460, "time": 1537876114, "locktime": 0, "vsize": 592, "size": 592}