{"hash": "7c471052af18847b28b199c462debd591de9bb913c3dac9d0f3b4833683db2c5", "blockhash": "000000000000000000022b45ed06c6f4ccd3cf7fb5ba4856ebd2e58215665228", "vout": [{"scriptPubKey": {"reqSigs": 1, "hex": "a9142dcdead4de767edfbe2675e0e7a1d5ce430512b687", "addresses": ["35sD1ZXn8ugaavMjZQ9ga8stKoQRhTPqo3"], "asm": "OP_HASH160 2dcdead4de767edfbe2675e0e7a1d5ce430512b6 OP_EQUAL", "type": "scripthash"}, "value": 0.03309498, "n": 0}, {"scriptPubKey": {"reqSigs": 1, "hex": "76a91427073d24bfa9ac84ec5c09b3c60cc98ac76f4a0388ac", "addresses": ["14ZN2SooBs7v3K2qmxjA4Zi57d4C2FPLHw"], "asm": "OP_DUP OP_HASH160 27073d24bfa9ac84ec5c09b3c60cc98ac76f4a03 OP_EQUALVERIFY OP_CHECKSIG", "type": "pubkeyhash"}, "value": 1.49997121, "n": 1}, {"scriptPubKey": {"reqSigs": 1, "hex": "a914eb7cda55ace75ce37aebc7e95d6ad0de44ec123f87", "addresses": ["3PAAHZ3pMiLHR5kJaDMG6iP8jD5AK8Sz7r"], "asm": "OP_HASH160 eb7cda55ace75ce37aebc7e95d6ad0de44ec123f OP_EQUAL", "type": "scripthash"}, "value": 1.24796129, "n": 2}], "hex": "02000000100135dbb13b35123ef80b51347ad574f14fddd2ba895794ea1e8571e310f51030010000006b483045022100fcdd8bd00c0c05f5659fd0dd6c3e5f59186e5e879b9a1457c2e3358b2290b10602202cb05247678fdfffa82e3e368fbaefc149193c56f4e734728deb87553b86c75d01210286258cc7dc74170f9a759135a4e34f98311b7e6dd2aa17085d652a8ef6ea80d0ffffffffa99e52957883db7439444ee79f9d46026204751eb49fe01350a0fd672bd5f810010000006b483045022100a953be2605bca86f31d916945709a731aeca9b7538482da099c124a326e76b2202201070109422211960f77adef6ec1736c63c7788ae046404e548ba87bca46140a3012102ebf648ecd4c514a88b5ba10318eca2d08c03d57208a5af1e715c839b7fcc6372ffffffff929ac997b40641069cecdf1247bfb3374a105647bf7d43d2ce0df6fbbef29202010000006b483045022100b57ea0e1199dc99ba7a5e5e89a994cb9566673922b1947fc272042f47ed51ea202206289c6cf560f923758bdaca4fa887858b9ddfe14b1cd4775c3a9bbe1d2e9c5770121020617c93333bac0d1c0d62eb39303d12068bfd5d0efeb2c985a32aba6c61b1f34ffffffffed2846e648e9108e06e845be0ab4f1ac6f75f6600c8c23ce761eff6ac0d7b47d000000006a4730440220493574c1f3832de78063abf5d23a57d61a8f01b1d4da52d9558a24c53abf002e0220045bc1e3a43131970a37bb994e2a83f42998920e50490f64159d582da0005e160121034f0cf0bfc512b06a46785777089085560752493f38473a0da5ee60c55cbcc52cffffffffefe0c073594e0f11d617987b9a79ae4a23406ce422a3b09dc5d538ef1fe83c2d000000006b483045022100d8db31e2de0ec6074762f95d3adf4ef683391400e86763df6243c49da823d83d02204a8b76b1bf7c0ce02af857d9ff0dd7b4f15c4602cc1a9fd1c4396821f63bffb6012103ebb34b20b630696acc0acf13caa67f180c366998b7651d1320e64c0a2ceaa3e3ffffffff7cf498d1463c318b7266c2dabcc227373a1907205ac034f1243502f426497e5d000000006b483045022100c7f4e5ab8e511c67a5ded792c6deee227a388e446f6263a3aeee375ca1099483022069772a63b15e714571d11828eff1add39fc3bbcd5975c3cfbe827529f7fb237c0121029b69751b5716d429c9eadf45b96ea67e23025c8f2a8f46dd661eb9a6b3af36ccffffffffdb6426fd7675af2f32b7c057116b838ab5c15611c9a13991d18c27c163649a77000000006b483045022100a1e29ed2eae8a752df6009c59809c2ed7c7be5c2de258bb3d5c6f58dbc8d83b4022074e82f3ac32e436633eb1ab4fdd762dd6b6ff03f20245a559b5b5b52aa71b5dd012102ca69428a1379904abf2edb39e573751881d8c9f85a9bbf6eeb88351094f63101ffffffffd1b2600a17491f080f355b1fb8b51e5ad4106def4a8cb80e37679faa70a20470470000006b483045022100aedbdc58e39657b8a2a0c910a9130e0360debb9c30b36318c24bd645f7c58cab022026c6656bbb76da8bd4cf3ae684e31911658a0f8b8edc4f33320e755c49461265012103a4e92d241fa5b0a42799e54680bb68ec8547165e016cd8da9418af2913768e0dffffffff2e51848f6331d46775859e3f98b36ad9793e0d8ccc6b4cf93fb9d4c4256ae44e000000006b483045022100e52f7d748696c602513824bed11c6d8940270024db70c9dceca04895c37501ab02207faf027cc2a8af7ae9e6b9eb6b09e3f0ec84d67988f59dbd2db56037f1f92ab30121032eaa9730aca2f7462c4b419b7ca80b2c02c2ba43510fbb40b8ffc73c95108e0efffffffff1272799ca64c66d4e051f63e2db2e15a1f8edde1030c77100af8217a47a21d4010000006a47304402201af674d8b65821b013ce0ec7738a6f4ff30dcb176e75c8b110b96e891c58c0a9022054e6fd03fa16b85ea9692bbf52c500de6190797b37f9a97d6e2e1817602acd2b012102282ecd9a787fd52e428413652f0a2a44f5ade6125cd623841e834e744ec2b83bffffffff4017319644dc1f167f6023f86db3a48bc686f23b953d13d4c929f11bd1d1021d010000006b483045022100c20cd55ca5a0850f6baf7b121418ebb03ae79de699919e8e941328def47d371102207928672e71066ab6368d4d686b5843c83226dd2158c0952bde10ad5de6ecc6e001210267cb062324b8991c39a0d7587ff5e119197b2000d064109a5a0fa92ba2e847a3ffffffff29d389a9b9752eae6f82ea25dd8d320651ed27f765acceff06aca58049c5a14d000000006a47304402204533d4054e0d6c48652cf3388bcee87e83a764c1cbb7793a78779c95c92a26cb02207b36f95aedc97bee98998c730e8923d7d6a403a647e708522c02df50e07cc353012103620f407c6597019b8ed31d8d411c98aea28009040cbcb8ab936cdbcfe5e16ae9fffffffffefc57873d1c128ad73bdc92ce3efebec3d2e2c32d1e90c1d295da98002f8a5a000000006b483045022100c4c9317365c18a7b4bbcff5ecb5864a118f20701a91dff121d1be32c9d1f937a02201d26d55c8bd71f60d661188bed807eb3ae7c557eb127695d7f822d303d91770901210376fbe20d59148cf7c5cc791e93b2e05e034b67d751d488589d53d64fb3ac1fffffffffffd50487ed0084812aa5daa360cccee787e411e526556c7cb46eb2f18cbc6785e8020000006a47304402202279160fd52b0ac791bdf63b4a2c6466801bc74e5229d24e39f10dc992b79f3602203ab4467d9580d91d2e15e41b38666dc7f61326541127f4b005d441735f218ddd012102a30edd70efd257892b77e4ca46ac95d0fca3c5333bb2ab116ba1b38f8cfa1d33ffffffff54663acdb8d0c959d42aa86d95410edd2effcea34e09b92ba7982ef8f02d6d0d000000006b483045022100900cdb5d43eb581882969e8ef7bc1c7d36594c3dab1dd47ca06a93b8c719210f022066d279e8189b08f9ac627f3d4b9a1d9d7f8776f748d35013f5ee7333647c33370121037d41f1740f2ebc35e4500a698c63e53d7900edc9722e7b9062fb3b1e1fcfe3a7ffffffffbea163afef141165acc77a8eb5c75a3b847275afb2bad30fc8e6227a310f707a0000000069463043021f396e4f7ec6608ffab57694d8bdc2bc0afb2ccfbea721db4a09b8ccbd198663022033b4b14be33c429c50a7f32ad6ab4a3df0246179969119c18123cb5cd4cfea60012103fe8e9c2442367d825c94a32674a7e1c6d5eb859f6f7dc8babb58471264a9582bffffffff03ba7f32000000000017a9142dcdead4de767edfbe2675e0e7a1d5ce430512b68741c6f008000000001976a91427073d24bfa9ac84ec5c09b3c60cc98ac76f4a0388ace13c70070000000017a914eb7cda55ace75ce37aebc7e95d6ad0de44ec123f8700000000", "vin": [{"sequence": 4294967295, "scriptSig": {"hex": "483045022100fcdd8bd00c0c05f5659fd0dd6c3e5f59186e5e879b9a1457c2e3358b2290b10602202cb05247678fdfffa82e3e368fbaefc149193c56f4e734728deb87553b86c75d01210286258cc7dc74170f9a759135a4e34f98311b7e6dd2aa17085d652a8ef6ea80d0", "asm": "3045022100fcdd8bd00c0c05f5659fd0dd6c3e5f59186e5e879b9a1457c2e3358b2290b10602202cb05247678fdfffa82e3e368fbaefc149193c56f4e734728deb87553b86c75d[ALL] 0286258cc7dc74170f9a759135a4e34f98311b7e6dd2aa17085d652a8ef6ea80d0"}, "vout": 1, "txid": "3010f510e371851eea945789bad2dd4ff174d57a34510bf83e12353bb1db3501"}, {"sequence": 4294967295, "scriptSig": {"hex": "483045022100a953be2605bca86f31d916945709a731aeca9b7538482da099c124a326e76b2202201070109422211960f77adef6ec1736c63c7788ae046404e548ba87bca46140a3012102ebf648ecd4c514a88b5ba10318eca2d08c03d57208a5af1e715c839b7fcc6372", "asm": "3045022100a953be2605bca86f31d916945709a731aeca9b7538482da099c124a326e76b2202201070109422211960f77adef6ec1736c63c7788ae046404e548ba87bca46140a3[ALL] 02ebf648ecd4c514a88b5ba10318eca2d08c03d57208a5af1e715c839b7fcc6372"}, "vout": 1, "txid": "10f8d52b67fda05013e09fb41e75046202469d9fe74e443974db837895529ea9"}, {"sequence": 4294967295, "scriptSig": {"hex": "483045022100b57ea0e1199dc99ba7a5e5e89a994cb9566673922b1947fc272042f47ed51ea202206289c6cf560f923758bdaca4fa887858b9ddfe14b1cd4775c3a9bbe1d2e9c5770121020617c93333bac0d1c0d62eb39303d12068bfd5d0efeb2c985a32aba6c61b1f34", "asm": "3045022100b57ea0e1199dc99ba7a5e5e89a994cb9566673922b1947fc272042f47ed51ea202206289c6cf560f923758bdaca4fa887858b9ddfe14b1cd4775c3a9bbe1d2e9c577[ALL] 020617c93333bac0d1c0d62eb39303d12068bfd5d0efeb2c985a32aba6c61b1f34"}, "vout": 1, "txid": "0292f2befbf60dced2437dbf4756104a37b3bf4712dfec9c064106b497c99a92"}, {"sequence": 4294967295, "scriptSig": {"hex": "4730440220493574c1f3832de78063abf5d23a57d61a8f01b1d4da52d9558a24c53abf002e0220045bc1e3a43131970a37bb994e2a83f42998920e50490f64159d582da0005e160121034f0cf0bfc512b06a46785777089085560752493f38473a0da5ee60c55cbcc52c", "asm": "30440220493574c1f3832de78063abf5d23a57d61a8f01b1d4da52d9558a24c53abf002e0220045bc1e3a43131970a37bb994e2a83f42998920e50490f64159d582da0005e16[ALL] 034f0cf0bfc512b06a46785777089085560752493f38473a0da5ee60c55cbcc52c"}, "vout": 0, "txid": "7db4d7c06aff1e76ce238c0c60f6756facf1b40abe45e8068e10e948e64628ed"}, {"sequence": 4294967295, "scriptSig": {"hex": "483045022100d8db31e2de0ec6074762f95d3adf4ef683391400e86763df6243c49da823d83d02204a8b76b1bf7c0ce02af857d9ff0dd7b4f15c4602cc1a9fd1c4396821f63bffb6012103ebb34b20b630696acc0acf13caa67f180c366998b7651d1320e64c0a2ceaa3e3", "asm": "3045022100d8db31e2de0ec6074762f95d3adf4ef683391400e86763df6243c49da823d83d02204a8b76b1bf7c0ce02af857d9ff0dd7b4f15c4602cc1a9fd1c4396821f63bffb6[ALL] 03ebb34b20b630696acc0acf13caa67f180c366998b7651d1320e64c0a2ceaa3e3"}, "vout": 0, "txid": "2d3ce81fef38d5c59db0a322e46c40234aae799a7b9817d6110f4e5973c0e0ef"}, {"sequence": 4294967295, "scriptSig": {"hex": "483045022100c7f4e5ab8e511c67a5ded792c6deee227a388e446f6263a3aeee375ca1099483022069772a63b15e714571d11828eff1add39fc3bbcd5975c3cfbe827529f7fb237c0121029b69751b5716d429c9eadf45b96ea67e23025c8f2a8f46dd661eb9a6b3af36cc", "asm": "3045022100c7f4e5ab8e511c67a5ded792c6deee227a388e446f6263a3aeee375ca1099483022069772a63b15e714571d11828eff1add39fc3bbcd5975c3cfbe827529f7fb237c[ALL] 029b69751b5716d429c9eadf45b96ea67e23025c8f2a8f46dd661eb9a6b3af36cc"}, "vout": 0, "txid": "5d7e4926f4023524f134c05a2007193a3727c2bcdac266728b313c46d198f47c"}, {"sequence": 4294967295, "scriptSig": {"hex": "483045022100a1e29ed2eae8a752df6009c59809c2ed7c7be5c2de258bb3d5c6f58dbc8d83b4022074e82f3ac32e436633eb1ab4fdd762dd6b6ff03f20245a559b5b5b52aa71b5dd012102ca69428a1379904abf2edb39e573751881d8c9f85a9bbf6eeb88351094f63101", "asm": "3045022100a1e29ed2eae8a752df6009c59809c2ed7c7be5c2de258bb3d5c6f58dbc8d83b4022074e82f3ac32e436633eb1ab4fdd762dd6b6ff03f20245a559b5b5b52aa71b5dd[ALL] 02ca69428a1379904abf2edb39e573751881d8c9f85a9bbf6eeb88351094f63101"}, "vout": 0, "txid": "779a6463c1278cd19139a1c91156c1b58a836b1157c0b7322faf7576fd2664db"}, {"sequence": 4294967295, "scriptSig": {"hex": "483045022100aedbdc58e39657b8a2a0c910a9130e0360debb9c30b36318c24bd645f7c58cab022026c6656bbb76da8bd4cf3ae684e31911658a0f8b8edc4f33320e755c49461265012103a4e92d241fa5b0a42799e54680bb68ec8547165e016cd8da9418af2913768e0d", "asm": "3045022100aedbdc58e39657b8a2a0c910a9130e0360debb9c30b36318c24bd645f7c58cab022026c6656bbb76da8bd4cf3ae684e31911658a0f8b8edc4f33320e755c49461265[ALL] 03a4e92d241fa5b0a42799e54680bb68ec8547165e016cd8da9418af2913768e0d"}, "vout": 71, "txid": "7004a270aa9f67370eb88c4aef6d10d45a1eb5b81f5b350f081f49170a60b2d1"}, {"sequence": 4294967295, "scriptSig": {"hex": "483045022100e52f7d748696c602513824bed11c6d8940270024db70c9dceca04895c37501ab02207faf027cc2a8af7ae9e6b9eb6b09e3f0ec84d67988f59dbd2db56037f1f92ab30121032eaa9730aca2f7462c4b419b7ca80b2c02c2ba43510fbb40b8ffc73c95108e0e", "asm": "3045022100e52f7d748696c602513824bed11c6d8940270024db70c9dceca04895c37501ab02207faf027cc2a8af7ae9e6b9eb6b09e3f0ec84d67988f59dbd2db56037f1f92ab3[ALL] 032eaa9730aca2f7462c4b419b7ca80b2c02c2ba43510fbb40b8ffc73c95108e0e"}, "vout": 0, "txid": "4ee46a25c4d4b93ff94c6bcc8c0d3e79d96ab3983f9e857567d431638f84512e"}, {"sequence": 4294967295, "scriptSig": {"hex": "47304402201af674d8b65821b013ce0ec7738a6f4ff30dcb176e75c8b110b96e891c58c0a9022054e6fd03fa16b85ea9692bbf52c500de6190797b37f9a97d6e2e1817602acd2b012102282ecd9a787fd52e428413652f0a2a44f5ade6125cd623841e834e744ec2b83b", "asm": "304402201af674d8b65821b013ce0ec7738a6f4ff30dcb176e75c8b110b96e891c58c0a9022054e6fd03fa16b85ea9692bbf52c500de6190797b37f9a97d6e2e1817602acd2b[ALL] 02282ecd9a787fd52e428413652f0a2a44f5ade6125cd623841e834e744ec2b83b"}, "vout": 1, "txid": "d4217aa41782af0071c73010deedf8a1152edbe2631f054e6dc664ca992727f1"}, {"sequence": 4294967295, "scriptSig": {"hex": "483045022100c20cd55ca5a0850f6baf7b121418ebb03ae79de699919e8e941328def47d371102207928672e71066ab6368d4d686b5843c83226dd2158c0952bde10ad5de6ecc6e001210267cb062324b8991c39a0d7587ff5e119197b2000d064109a5a0fa92ba2e847a3", "asm": "3045022100c20cd55ca5a0850f6baf7b121418ebb03ae79de699919e8e941328def47d371102207928672e71066ab6368d4d686b5843c83226dd2158c0952bde10ad5de6ecc6e0[ALL] 0267cb062324b8991c39a0d7587ff5e119197b2000d064109a5a0fa92ba2e847a3"}, "vout": 1, "txid": "1d02d1d11bf129c9d4133d953bf286c68ba4b36df823607f161fdc4496311740"}, {"sequence": 4294967295, "scriptSig": {"hex": "47304402204533d4054e0d6c48652cf3388bcee87e83a764c1cbb7793a78779c95c92a26cb02207b36f95aedc97bee98998c730e8923d7d6a403a647e708522c02df50e07cc353012103620f407c6597019b8ed31d8d411c98aea28009040cbcb8ab936cdbcfe5e16ae9", "asm": "304402204533d4054e0d6c48652cf3388bcee87e83a764c1cbb7793a78779c95c92a26cb02207b36f95aedc97bee98998c730e8923d7d6a403a647e708522c02df50e07cc353[ALL] 03620f407c6597019b8ed31d8d411c98aea28009040cbcb8ab936cdbcfe5e16ae9"}, "vout": 0, "txid": "4da1c54980a5ac06ffceac65f727ed5106328ddd25ea826fae2e75b9a989d329"}, {"sequence": 4294967295, "scriptSig": {"hex": "483045022100c4c9317365c18a7b4bbcff5ecb5864a118f20701a91dff121d1be32c9d1f937a02201d26d55c8bd71f60d661188bed807eb3ae7c557eb127695d7f822d303d91770901210376fbe20d59148cf7c5cc791e93b2e05e034b67d751d488589d53d64fb3ac1fff", "asm": "3045022100c4c9317365c18a7b4bbcff5ecb5864a118f20701a91dff121d1be32c9d1f937a02201d26d55c8bd71f60d661188bed807eb3ae7c557eb127695d7f822d303d917709[ALL] 0376fbe20d59148cf7c5cc791e93b2e05e034b67d751d488589d53d64fb3ac1fff"}, "vout": 0, "txid": "5a8a2f0098da95d2c1901e2dc3e2d2c3befe3ece92dc3bd78a121c3d8757fcfe"}, {"sequence": 4294967295, "scriptSig": {"hex": "47304402202279160fd52b0ac791bdf63b4a2c6466801bc74e5229d24e39f10dc992b79f3602203ab4467d9580d91d2e15e41b38666dc7f61326541127f4b005d441735f218ddd012102a30edd70efd257892b77e4ca46ac95d0fca3c5333bb2ab116ba1b38f8cfa1d33", "asm": "304402202279160fd52b0ac791bdf63b4a2c6466801bc74e5229d24e39f10dc992b79f3602203ab4467d9580d91d2e15e41b38666dc7f61326541127f4b005d441735f218ddd[ALL] 02a30edd70efd257892b77e4ca46ac95d0fca3c5333bb2ab116ba1b38f8cfa1d33"}, "vout": 2, "txid": "e88567bc8cf1b26eb47c6c5526e511e487e7cecc60a3daa52a818400ed8704d5"}, {"sequence": 4294967295, "scriptSig": {"hex": "483045022100900cdb5d43eb581882969e8ef7bc1c7d36594c3dab1dd47ca06a93b8c719210f022066d279e8189b08f9ac627f3d4b9a1d9d7f8776f748d35013f5ee7333647c33370121037d41f1740f2ebc35e4500a698c63e53d7900edc9722e7b9062fb3b1e1fcfe3a7", "asm": "3045022100900cdb5d43eb581882969e8ef7bc1c7d36594c3dab1dd47ca06a93b8c719210f022066d279e8189b08f9ac627f3d4b9a1d9d7f8776f748d35013f5ee7333647c3337[ALL] 037d41f1740f2ebc35e4500a698c63e53d7900edc9722e7b9062fb3b1e1fcfe3a7"}, "vout": 0, "txid": "0d6d2df0f82e98a72bb9094ea3ceff2edd0e41956da82ad459c9d0b8cd3a6654"}, {"sequence": 4294967295, "scriptSig": {"hex": "463043021f396e4f7ec6608ffab57694d8bdc2bc0afb2ccfbea721db4a09b8ccbd198663022033b4b14be33c429c50a7f32ad6ab4a3df0246179969119c18123cb5cd4cfea60012103fe8e9c2442367d825c94a32674a7e1c6d5eb859f6f7dc8babb58471264a9582b", "asm": "3043021f396e4f7ec6608ffab57694d8bdc2bc0afb2ccfbea721db4a09b8ccbd198663022033b4b14be33c429c50a7f32ad6ab4a3df0246179969119c18123cb5cd4cfea60[ALL] 03fe8e9c2442367d825c94a32674a7e1c6d5eb859f6f7dc8babb58471264a9582b"}, "vout": 0, "txid": "7a700f317a22e6c80fd3bab2af7572843b5ac7b58e7ac7ac651114efaf63a1be"}], "txid": "7c471052af18847b28b199c462debd591de9bb913c3dac9d0f3b4833683db2c5", "blocktime": 1537869901, "version": 2, "confirmations": 11522, "time": 1537869901, "locktime": 0, "vsize": 2470, "size": 2470}