{"hash": "4b7f7eb88c1e960aac65c39454783f3e3d210d67cda25705344ebe49e668ae5e", "blockhash": "0000000000000000000e13cef7c366c0283d82e591d1acd082e914b08063cdf1", "vout": [{"scriptPubKey": {"reqSigs": 1, "hex": "a91494f3365513dee0c57f09df636d47242f860eec2787", "addresses": ["3FGbHcjzWr2rAhU3emUt8rb1wgMg2EMyGA"], "asm": "OP_HASH160 94f3365513dee0c57f09df636d47242f860eec27 OP_EQUAL", "type": "scripthash"}, "value": 0.04663549, "n": 0}, {"scriptPubKey": {"reqSigs": 1, "hex": "76a9143393c23e0dac196fc5d7014f2b16ac0e2c0f894788ac", "addresses": ["15hiUF2sPa7HWs7BiSdE4XSbnkFwvjPthB"], "asm": "OP_DUP OP_HASH160 3393c23e0dac196fc5d7014f2b16ac0e2c0f8947 OP_EQUALVERIFY OP_CHECKSIG", "type": "pubkeyhash"}, "value": 1.03922308, "n": 1}], "hex": "010000000001104a49972ffeb9e2d1618c6b16ab6179423286ed4a53180c3d8fedfbc1d72d5ff900000000fdfd0000473044022030a0dee8daff87273c17dee9ad51c5ec368c7c816020ee9725acdee48587dcb802200b16a4e592f0f61bc29f2c3d21dcda934cf47443add8dde7ea374039e54f5d99014830450221009c1897c016a1a33c87b8e58a30ec772fdf8caf7f63877e03f91d836e92fcdbc00220766583006e1c2206946dd9283017506c294c91a8ff3b2c455228cb65a0d506f7014c69522103354f9967f27476e44dd63b061577d0e7f16fc2b25094ef560f54eec21e276f5f2102ac9079af700bcd85992a9bc4b4e50bbf2cae555c4a73d570c73df334bf7007d32102671bc1bdfe72b501e5e3ac9a77421e2e1479c1bcd3383dfa4e9541262f74a68c53aeffffffffc3de80ba1269b7a7afc9c1035c1ce9b3a46110a563ee2dbf04a126b815c3549b0000000023220020e23774f8a79d8188a588f3baff2fa302ccb27c81922492a9d400ed16dc9f173affffffff35d0d07654d478e386ffe6be391d321091e94b69c5c9dd3f64dfde2aee8c8d9d03000000fdfe0000483045022100c43d18c6afccdc9eb26b505513f52fde893939f07d4d470b9fc967d77f51cda50220228cdde8ddbf3e95e746d37ebcead853d835440d41fc9cf348303e780fcb3d7001483045022100ce3b85b94543095027982c3dc4c5fe8144aafcd707678c91ff54eec17cf0d1f902205465023454a3a5b8afb2b8971005e76355c0854e68b9367f075a8a69a95f128a014c69522102923ddad71f025fad12733634598f9e4481d2956c09a94d001ed2b9bbab312d0b2102483f2cbc87b7fc9781f8654f04015c7b348213887983b2763ad9cd63a5adacb6210303a07c3e2b84b2c97bf21314fc1b338eead8d551b7fb9b5218aeb784f2b1d95c53aeffffffff59ba684aadbd94e42e42f02a53d4b0fa3723c248c6667627a12dfce3bac15c9f02000000fdfd0000483045022100f7fa5ac080a1e7cb5ae3441813811f1877961a5f45892bc4599640f77c4cfbd202200ac0d91db1b4e210aa055337aab29a7d493ce23d84d2e9e52f233c5c2c2081750147304402201de03d6fffdd91e9b999f3b38fdb9ac0ea7d7317a8777dfdbc587a1937c58a5d02206bdb922fb8d9c1cbf664a3b0158c3da82c394653433a251039e224659720d85f014c69522102d7fb9fc4e5b19e473b251675d9e2130b3b7ae150979e162e4e27fc992cd00c8c210357766b837c63172a334f9eca8f7fe48ac208aabe7874a5942554d59dab0f22b42103aa4b869c8c9d80fbfa550fd29493ee58480e65a54f8d54b00ade30eaacad8fd753aeffffffffc6c91f02f9b16d53f7f85aba35eef366dd098a25438524d6708f88dd3a127c9c0100000023220020a5a48754163d410db93091ccccc84e9e7bb13ac69b64a359c23096d00b88e72effffffff24a89238b778dc860d17164f643e4cc9f526db17f36d57aeb6d032a923dc06b401000000fdfd00004830450221008c547f2102fad27a0c86b64e7e799db7ec7a4e5683e5aaac41bcc5edd5b24de6022068595732213a2291495ba0fd5611145155d5d74b8a7aea36368ec553f95af6020147304402205f490c39026e8ba090a0d530ef171168a5d8fd668020681764f5bdf95618cca502201407a84bb07229103cb69d65921393c4966e5828e8a6ed6b084016be24232a8f014c69522102e468d2eafb507f6f6881d30698cad82b51352b2cdbce03b99e59ceddef09876a21036a943e4f5358b06e98c1e1433817bd3a4fcc25012ee687a351ce86ffa4e20545210369f6736ca061e5369eacc770ffdf75ec61595eaec478550b1a4e2780ef1e8dc553aeffffffffbbc68f74c72f653f51540f855b7e9f3f480e67c13a7ff8990fbd443b9aec96e801000000fdfd00004830450221009f5550a095c906a491b74f77889c1e16b0794c39c2823f6eed287d87eaf9dfa8022057998fe7fc57271a5517b95abb5c87349f7b71be6a2bd299646edbf074ca97cc01473044022001d11b92596f1a657e8851d4f191470209b1838bb8e1c734be86df43f44f42de022015cb369ac9a8746df8197e3227a78f943ba53376273ec92cc8ba71f57a89f04b014c695221034b3f3617f7bd415fecd3c4b2b9aec74d2b26855b56d2bb27a2a7ec4537f112ef210268ff5e1ed3481efb8ec6b5c25fbeb8677dd6f7ce4cd1b9bb17b50d978941e16d21038e75bf110c20013740aeaf43115ffe7b8d6fc3436cef1b178208c4c1332d049a53aeffffffffc4ce3804438db84fcd70d3cef8c84b9449ef4bf2c68db2f10df919142104c0aa01000000fdfd0000483045022100ed56dc6df66ece90cbdbc005e58394be712187794d1113c258df1fba6f5253d302207911860bcb79061e6b68f44f0a08326d3bb6cdb070bb00320ca7f2fc1a7a698b01473044022047bc95cc66a5166938d07d121e211265821fbbd4aae1b44db37f45eab141fc450220612804d61527a49cc365830f914bd15a4f5188d30185e944da690ea2bef975ca014c695221022801e6787116a0244cb090de04603c1b3d29961982664c830f13f415ed67c295210271ac2ab52e208cccebdfe5f81f0ecf107935b0cf7ebb369a686c1d52e1fae9ae2103beb320869c2819f3557df63e2000c9f47c3e8536842e476701c8d639a749098553aeffffffff20796173d35a3aaa485dbe71fe7d0734741921d9bb6a0b1f4798ef01f565217900000000fdfe0000483045022100d68b7c57d3a722b5bb9ca7b1a6d83d5b010b5ef9ef630db1bea4c6995a40da860220507998fb42408d8e8aac3b236d7b6b0841203b67f4da493a81c213531d3d0c0001483045022100967944e10e5c20fddd337e18c5132cd47525f26e296cda47015543207f7fd31e022006c13f06ab06319ba84b307075ca32f0a3c6af3ef04916b2379a1a69674dc033014c6952210274722d44a18a7982d73da73ab52a31b81d9c2e5487a80c80bc8f4e919cc9cd8f2103c8e57c77a9ec9f546026a32d9b8cf35fe5de821529b274afd6b08df188e68655210399db420bea0242cb41c782b64aee39a9f282627bbccae55c53ac445eb6ee6f5453aeffffffff8ca9096f1a8a7596d3d80d390fa9db66a60915b9217722fa0823e552421c7a7c0100000023220020d08e084027545564f78a29755bad1ad20774197a84328a3ea93a85b7aca4b0eeffffffff94cb600cf858181f1aa6f0e0b68bca1bbf90a57bb6587f79dd33746f5cf371e301000000fc0047304402202474e4910df3d6a2e87d20db1eaed6bc47f848a5ca0969ae3a7511a38b769a490220783e85fdcb835f05ba61a944ba849ac1b6d3d4c4b0da10bad09cecc56096c9040147304402206f57c7a9f964af43dbdd1ce314909a32881c52c7176410846c9917e052206e4e022073f2cb142227e2ab052e19730d281c7b25d2dd0aba475caae47b9c19c437cb57014c69522103417079fc00e88e644747319c1f274f839bb54974eba077d485c504a98d8b1a8721034f6c4450ae9781ee9d7aa5006a839235ed85f6e6c3fa2d3ea157ea21047d7e0c21020176ab5507618fe0200a7c64787f617578abbaa6280ebefc3f010e1b480954a853aeffffffffd91741b0d4634f7650c0e4eac47949793abbe10bed0a10853f234aff84039ec203000000fc0047304402204192312b698688628044389d50cbc8496563cab962dbf56140cc2b764c2fe42102204491fcd91a497c50dc07d1fb6e52090a09875cdfe0c2c84b3657f49f379487f70147304402206ad5e8c4b92efe5d15f72dcde6d6b83533153fc5b72337cae2e765247e8c023b0220193c2e8de7fd70e3e16bb83c5e9dfb25f5ad6209ed4ccfc3f497b6d6a9908e7e014c69522103969cc44fb8fd77198b4c0ca9eabfc33dcfa46e2004b5e6d09b588e7687a46e412102f00614b08727b270ede0601d778d9a89587a3949e6f5ee303b513a512313b50f2103d10a1c39f77f5a031f8d8d3c190973769a420ed35975efa5d4cd9637f4fc9af153aeffffffff7831babf7e2b9200249c71caa2c2a17d92d3b73e49bd83e1909b98286ed038b80000000023220020a8420b37bb866c23b89b671dea0c6d3968c0ac0a5dd9f677a1c97d52f07286beffffffff13b57114a93626c77463710afa174d07ed2acbb7a42d93b7670d3ba6638776b605000000fdfd0000483045022100e77f383c37077e674fa7928b1990f55d33fb0e7202fc8e1818f6947cf2ca376d022022caf0f9e0afa98e87b778e467673626ca789623387894919ac49050095093770147304402207613f8fca089839c1a63da71836b2af4019f05846d41176345507fe75c7c369c0220413c45d1cfbb77f2ff85a40d3ea70386a7f9cb9d22f8d9a0d78a49be923b3d54014c69522103969cc44fb8fd77198b4c0ca9eabfc33dcfa46e2004b5e6d09b588e7687a46e412102f00614b08727b270ede0601d778d9a89587a3949e6f5ee303b513a512313b50f2103d10a1c39f77f5a031f8d8d3c190973769a420ed35975efa5d4cd9637f4fc9af153aeffffffffb327b389309d8379e021e79316e446001e131da49b24b373dff399e12395851000000000fdfe0000483045022100aed577e871dac28ce6a96d7897cbe881618df97b2dfd1f07cd426637e0832506022003b79df08b1f7ed753a101564710964b67f603fb82ef3cccecb9336fd3e56e8301483045022100983d2c3bbb9b6dcb2682939583174420f52a61d8c35c158359e0a4eb759d3a6d02202ea78a67da4f3ddcaa4120c565e9fd7f7240422e99dc0235175b81b04d35ddc6014c695221022b70eddafbe5bf67553e028938f17ec74d01079a7e0d1741191fdfc467394416210247685fe522b4ae8231502dd6c08aa536cba06213e692c7f592ef178fa268a9c5210298a56c3e5c7a4a2da2cab90e80bc3c6426614b69c33009db3a4168c980e31eca53aeffffffffd0d7ce923673082f2b6f0cee9984c142d19dfcea4ca68068f1fe8620b49c1bb30100000023220020ccae6e186d45f8014621be0913bd8ef172f37cf50f19eb7947f5cb296277608cffffffff02fd2847000000000017a91494f3365513dee0c57f09df636d47242f860eec278784ba3106000000001976a9143393c23e0dac196fc5d7014f2b16ac0e2c0f894788ac0004004830450221008346c1233c7c78cc8bca51758d77adca3bd922e68d2bfec4a8ed1802e1d069d5022038ca74d60092a7c78529dbb2c663fb597109fc2b540ce86c562b665089d660fe01473044022006e4c514572af3e09e1fe996ba10937ce07ec85e11fa33f7aea3c2ef5e91f7d202201ff363b40570b40acbc164d7f11d0264fee7bcbf6e987b87b024ac20596c621d01695221035d399bf797309953192701f17f4d7fb0ce182b304b4c2d83de233dec3bf198d92102555227b26812327e9768ec877f88ce7748b606df5353df2e6c063e71e0386f9321023d4c3fbabd66a195822bf24f90049506996450501b7cc13905985f3365fb8c5c53ae00000400473044022076d39a2ea5326cb2ce681836fddb43ef1ecd6030342978f0b3531f0ca9bffa8002201f8c858432319223e67166a54cc31fd45c42238da0b424f12ae82614395c94ae01483045022100fad947ff711e9cbd8bc7b27323ad1e0971b4e1a43ae462ea2ada28c12d57b6d1022001fd911562d897a25fcfcfc7b1dec39690e220604900c8337bb822db0e60181501695221025fe06096e3de3ff159e2da93c922ebbb708cf088ba91e49581f39152f7beb957210343d87952ca9ed13e57546a3070246407b974357f728457ced607a0580cde220221020a291953f70e39a9b2f9418f89d08db6b76b181816e636d2ce8572f4c0c8148953ae00000000040047304402205ff4458768c85b3f3c3774b0751fada84e5b21eb575c042439d0694cb4614615022078267c7667df116a48c332726e6cdc446b36b4e8062bcec2ffd4862f13118c910147304402203410abd584c9d389ef638b1f986ce70a8491ea74886be6804478ed3fc5c97f1102202707f1c88c472a85d6fdce52531d95450f5515d2b6f51711eb65e01d64b576ad0169522103ba1dc96a2a13e8901ea615e63bb95b503464239e9666d273f9dbd2ebc30b5fc72103a5545688c8f6a7a1dfeac83e8555ee079a18b86c7d30682982ffd5764135aeb021029ddd8eb7534f1cae80c3e917afd22cd7ffa3d88227e524bfba113b38efc9343553ae000004004830450221008961c9c3f6e760534f77faf27dac86198ff78aaf2532fb18d55aff328583bc1e0220375e58d327d86999003a4b305ed4cb53ffbd083a06c075a7dcc563b153132ea80147304402205b06b63adab146894ebeba3870f4fcf98e54ad4c115ab4a7fb6e447f82a5c82d022050f7fb24af68afee1857252a41ba0b9448b733e746067b2bbd002cd96de053b40169522103994e063dc06e552fb7e7b1cecf5c4692cbfcda5e6adbbbb7f7048b681601a88a2103a0d387ddcce70cc84389f386e21cc71d87828a3bb2871a71c206d9de09a18ceb2103a52d999e0c610de0f8c4d088c8aaf6a67ef280719603a239ab6304c7ed1dc35553ae00000400483045022100b91d5f59d01743290979c971bfc9cff5b4c565dae47a307fdad4a774ca53ad8902201b8ebc9df4f20a45ee3c569c00ec238e522f469c39b685bbb939bb4ea64861b70148304502210093506be895fe3063ad3dfa3fd6470102b0b18045ff814b0c87e78b5f4688373502203fe188cf566965906104c4603df95f48b81907800d2c014f37d9eb5b2c8b56a20169522102f3b1ec1f09ed5becb63f762ef85b9516b4e1f4a4f756f3795fe08fe86b3d3cc021028ed2d5db807e08c583f8d74559d34d391a4cb20c2b05bbd143a02b30c0f357502102e7b7b01f46161d13a5c5f4080a149c8e177130bb0b1b9176a502c4cb3dec422353ae00000000", "vin": [{"sequence": 4294967295, "scriptSig": {"hex": "00473044022030a0dee8daff87273c17dee9ad51c5ec368c7c816020ee9725acdee48587dcb802200b16a4e592f0f61bc29f2c3d21dcda934cf47443add8dde7ea374039e54f5d99014830450221009c1897c016a1a33c87b8e58a30ec772fdf8caf7f63877e03f91d836e92fcdbc00220766583006e1c2206946dd9283017506c294c91a8ff3b2c455228cb65a0d506f7014c69522103354f9967f27476e44dd63b061577d0e7f16fc2b25094ef560f54eec21e276f5f2102ac9079af700bcd85992a9bc4b4e50bbf2cae555c4a73d570c73df334bf7007d32102671bc1bdfe72b501e5e3ac9a77421e2e1479c1bcd3383dfa4e9541262f74a68c53ae", "asm": "0 3044022030a0dee8daff87273c17dee9ad51c5ec368c7c816020ee9725acdee48587dcb802200b16a4e592f0f61bc29f2c3d21dcda934cf47443add8dde7ea374039e54f5d99[ALL] 30450221009c1897c016a1a33c87b8e58a30ec772fdf8caf7f63877e03f91d836e92fcdbc00220766583006e1c2206946dd9283017506c294c91a8ff3b2c455228cb65a0d506f7[ALL] 522103354f9967f27476e44dd63b061577d0e7f16fc2b25094ef560f54eec21e276f5f2102ac9079af700bcd85992a9bc4b4e50bbf2cae555c4a73d570c73df334bf7007d32102671bc1bdfe72b501e5e3ac9a77421e2e1479c1bcd3383dfa4e9541262f74a68c53ae"}, "vout": 0, "txid": "f95f2dd7c1fbed8f3d0c18534aed8632427961ab166b8c61d1e2b9fe2f97494a"}, {"txinwitness": ["", "30450221008346c1233c7c78cc8bca51758d77adca3bd922e68d2bfec4a8ed1802e1d069d5022038ca74d60092a7c78529dbb2c663fb597109fc2b540ce86c562b665089d660fe01", "3044022006e4c514572af3e09e1fe996ba10937ce07ec85e11fa33f7aea3c2ef5e91f7d202201ff363b40570b40acbc164d7f11d0264fee7bcbf6e987b87b024ac20596c621d01", "5221035d399bf797309953192701f17f4d7fb0ce182b304b4c2d83de233dec3bf198d92102555227b26812327e9768ec877f88ce7748b606df5353df2e6c063e71e0386f9321023d4c3fbabd66a195822bf24f90049506996450501b7cc13905985f3365fb8c5c53ae"], "sequence": 4294967295, "scriptSig": {"hex": "220020e23774f8a79d8188a588f3baff2fa302ccb27c81922492a9d400ed16dc9f173a", "asm": "0020e23774f8a79d8188a588f3baff2fa302ccb27c81922492a9d400ed16dc9f173a"}, "vout": 0, "txid": "9b54c315b826a104bf2dee63a51061a4b3e91c5c03c1c9afa7b76912ba80dec3"}, {"sequence": 4294967295, "scriptSig": {"hex": "00483045022100c43d18c6afccdc9eb26b505513f52fde893939f07d4d470b9fc967d77f51cda50220228cdde8ddbf3e95e746d37ebcead853d835440d41fc9cf348303e780fcb3d7001483045022100ce3b85b94543095027982c3dc4c5fe8144aafcd707678c91ff54eec17cf0d1f902205465023454a3a5b8afb2b8971005e76355c0854e68b9367f075a8a69a95f128a014c69522102923ddad71f025fad12733634598f9e4481d2956c09a94d001ed2b9bbab312d0b2102483f2cbc87b7fc9781f8654f04015c7b348213887983b2763ad9cd63a5adacb6210303a07c3e2b84b2c97bf21314fc1b338eead8d551b7fb9b5218aeb784f2b1d95c53ae", "asm": "0 3045022100c43d18c6afccdc9eb26b505513f52fde893939f07d4d470b9fc967d77f51cda50220228cdde8ddbf3e95e746d37ebcead853d835440d41fc9cf348303e780fcb3d70[ALL] 3045022100ce3b85b94543095027982c3dc4c5fe8144aafcd707678c91ff54eec17cf0d1f902205465023454a3a5b8afb2b8971005e76355c0854e68b9367f075a8a69a95f128a[ALL] 522102923ddad71f025fad12733634598f9e4481d2956c09a94d001ed2b9bbab312d0b2102483f2cbc87b7fc9781f8654f04015c7b348213887983b2763ad9cd63a5adacb6210303a07c3e2b84b2c97bf21314fc1b338eead8d551b7fb9b5218aeb784f2b1d95c53ae"}, "vout": 3, "txid": "9d8d8cee2adedf643fddc9c5694be99110321d39bee6ff86e378d45476d0d035"}, {"sequence": 4294967295, "scriptSig": {"hex": "00483045022100f7fa5ac080a1e7cb5ae3441813811f1877961a5f45892bc4599640f77c4cfbd202200ac0d91db1b4e210aa055337aab29a7d493ce23d84d2e9e52f233c5c2c2081750147304402201de03d6fffdd91e9b999f3b38fdb9ac0ea7d7317a8777dfdbc587a1937c58a5d02206bdb922fb8d9c1cbf664a3b0158c3da82c394653433a251039e224659720d85f014c69522102d7fb9fc4e5b19e473b251675d9e2130b3b7ae150979e162e4e27fc992cd00c8c210357766b837c63172a334f9eca8f7fe48ac208aabe7874a5942554d59dab0f22b42103aa4b869c8c9d80fbfa550fd29493ee58480e65a54f8d54b00ade30eaacad8fd753ae", "asm": "0 3045022100f7fa5ac080a1e7cb5ae3441813811f1877961a5f45892bc4599640f77c4cfbd202200ac0d91db1b4e210aa055337aab29a7d493ce23d84d2e9e52f233c5c2c208175[ALL] 304402201de03d6fffdd91e9b999f3b38fdb9ac0ea7d7317a8777dfdbc587a1937c58a5d02206bdb922fb8d9c1cbf664a3b0158c3da82c394653433a251039e224659720d85f[ALL] 522102d7fb9fc4e5b19e473b251675d9e2130b3b7ae150979e162e4e27fc992cd00c8c210357766b837c63172a334f9eca8f7fe48ac208aabe7874a5942554d59dab0f22b42103aa4b869c8c9d80fbfa550fd29493ee58480e65a54f8d54b00ade30eaacad8fd753ae"}, "vout": 2, "txid": "9f5cc1bae3fc2da1277666c648c22337fab0d4532af0422ee494bdad4a68ba59"}, {"txinwitness": ["", "3044022076d39a2ea5326cb2ce681836fddb43ef1ecd6030342978f0b3531f0ca9bffa8002201f8c858432319223e67166a54cc31fd45c42238da0b424f12ae82614395c94ae01", "3045022100fad947ff711e9cbd8bc7b27323ad1e0971b4e1a43ae462ea2ada28c12d57b6d1022001fd911562d897a25fcfcfc7b1dec39690e220604900c8337bb822db0e60181501", "5221025fe06096e3de3ff159e2da93c922ebbb708cf088ba91e49581f39152f7beb957210343d87952ca9ed13e57546a3070246407b974357f728457ced607a0580cde220221020a291953f70e39a9b2f9418f89d08db6b76b181816e636d2ce8572f4c0c8148953ae"], "sequence": 4294967295, "scriptSig": {"hex": "220020a5a48754163d410db93091ccccc84e9e7bb13ac69b64a359c23096d00b88e72e", "asm": "0020a5a48754163d410db93091ccccc84e9e7bb13ac69b64a359c23096d00b88e72e"}, "vout": 1, "txid": "9c7c123add888f70d6248543258a09dd66f3ee35ba5af8f7536db1f9021fc9c6"}, {"sequence": 4294967295, "scriptSig": {"hex": "004830450221008c547f2102fad27a0c86b64e7e799db7ec7a4e5683e5aaac41bcc5edd5b24de6022068595732213a2291495ba0fd5611145155d5d74b8a7aea36368ec553f95af6020147304402205f490c39026e8ba090a0d530ef171168a5d8fd668020681764f5bdf95618cca502201407a84bb07229103cb69d65921393c4966e5828e8a6ed6b084016be24232a8f014c69522102e468d2eafb507f6f6881d30698cad82b51352b2cdbce03b99e59ceddef09876a21036a943e4f5358b06e98c1e1433817bd3a4fcc25012ee687a351ce86ffa4e20545210369f6736ca061e5369eacc770ffdf75ec61595eaec478550b1a4e2780ef1e8dc553ae", "asm": "0 30450221008c547f2102fad27a0c86b64e7e799db7ec7a4e5683e5aaac41bcc5edd5b24de6022068595732213a2291495ba0fd5611145155d5d74b8a7aea36368ec553f95af602[ALL] 304402205f490c39026e8ba090a0d530ef171168a5d8fd668020681764f5bdf95618cca502201407a84bb07229103cb69d65921393c4966e5828e8a6ed6b084016be24232a8f[ALL] 522102e468d2eafb507f6f6881d30698cad82b51352b2cdbce03b99e59ceddef09876a21036a943e4f5358b06e98c1e1433817bd3a4fcc25012ee687a351ce86ffa4e20545210369f6736ca061e5369eacc770ffdf75ec61595eaec478550b1a4e2780ef1e8dc553ae"}, "vout": 1, "txid": "b406dc23a932d0b6ae576df317db26f5c94c3e644f16170d86dc78b73892a824"}, {"sequence": 4294967295, "scriptSig": {"hex": "004830450221009f5550a095c906a491b74f77889c1e16b0794c39c2823f6eed287d87eaf9dfa8022057998fe7fc57271a5517b95abb5c87349f7b71be6a2bd299646edbf074ca97cc01473044022001d11b92596f1a657e8851d4f191470209b1838bb8e1c734be86df43f44f42de022015cb369ac9a8746df8197e3227a78f943ba53376273ec92cc8ba71f57a89f04b014c695221034b3f3617f7bd415fecd3c4b2b9aec74d2b26855b56d2bb27a2a7ec4537f112ef210268ff5e1ed3481efb8ec6b5c25fbeb8677dd6f7ce4cd1b9bb17b50d978941e16d21038e75bf110c20013740aeaf43115ffe7b8d6fc3436cef1b178208c4c1332d049a53ae", "asm": "0 30450221009f5550a095c906a491b74f77889c1e16b0794c39c2823f6eed287d87eaf9dfa8022057998fe7fc57271a5517b95abb5c87349f7b71be6a2bd299646edbf074ca97cc[ALL] 3044022001d11b92596f1a657e8851d4f191470209b1838bb8e1c734be86df43f44f42de022015cb369ac9a8746df8197e3227a78f943ba53376273ec92cc8ba71f57a89f04b[ALL] 5221034b3f3617f7bd415fecd3c4b2b9aec74d2b26855b56d2bb27a2a7ec4537f112ef210268ff5e1ed3481efb8ec6b5c25fbeb8677dd6f7ce4cd1b9bb17b50d978941e16d21038e75bf110c20013740aeaf43115ffe7b8d6fc3436cef1b178208c4c1332d049a53ae"}, "vout": 1, "txid": "e896ec9a3b44bd0f99f87f3ac1670e483f9f7e5b850f54513f652fc7748fc6bb"}, {"sequence": 4294967295, "scriptSig": {"hex": "00483045022100ed56dc6df66ece90cbdbc005e58394be712187794d1113c258df1fba6f5253d302207911860bcb79061e6b68f44f0a08326d3bb6cdb070bb00320ca7f2fc1a7a698b01473044022047bc95cc66a5166938d07d121e211265821fbbd4aae1b44db37f45eab141fc450220612804d61527a49cc365830f914bd15a4f5188d30185e944da690ea2bef975ca014c695221022801e6787116a0244cb090de04603c1b3d29961982664c830f13f415ed67c295210271ac2ab52e208cccebdfe5f81f0ecf107935b0cf7ebb369a686c1d52e1fae9ae2103beb320869c2819f3557df63e2000c9f47c3e8536842e476701c8d639a749098553ae", "asm": "0 3045022100ed56dc6df66ece90cbdbc005e58394be712187794d1113c258df1fba6f5253d302207911860bcb79061e6b68f44f0a08326d3bb6cdb070bb00320ca7f2fc1a7a698b[ALL] 3044022047bc95cc66a5166938d07d121e211265821fbbd4aae1b44db37f45eab141fc450220612804d61527a49cc365830f914bd15a4f5188d30185e944da690ea2bef975ca[ALL] 5221022801e6787116a0244cb090de04603c1b3d29961982664c830f13f415ed67c295210271ac2ab52e208cccebdfe5f81f0ecf107935b0cf7ebb369a686c1d52e1fae9ae2103beb320869c2819f3557df63e2000c9f47c3e8536842e476701c8d639a749098553ae"}, "vout": 1, "txid": "aac004211419f90df1b28dc6f24bef49944bc8f8ced370cd4fb88d430438cec4"}, {"sequence": 4294967295, "scriptSig": {"hex": "00483045022100d68b7c57d3a722b5bb9ca7b1a6d83d5b010b5ef9ef630db1bea4c6995a40da860220507998fb42408d8e8aac3b236d7b6b0841203b67f4da493a81c213531d3d0c0001483045022100967944e10e5c20fddd337e18c5132cd47525f26e296cda47015543207f7fd31e022006c13f06ab06319ba84b307075ca32f0a3c6af3ef04916b2379a1a69674dc033014c6952210274722d44a18a7982d73da73ab52a31b81d9c2e5487a80c80bc8f4e919cc9cd8f2103c8e57c77a9ec9f546026a32d9b8cf35fe5de821529b274afd6b08df188e68655210399db420bea0242cb41c782b64aee39a9f282627bbccae55c53ac445eb6ee6f5453ae", "asm": "0 3045022100d68b7c57d3a722b5bb9ca7b1a6d83d5b010b5ef9ef630db1bea4c6995a40da860220507998fb42408d8e8aac3b236d7b6b0841203b67f4da493a81c213531d3d0c00[ALL] 3045022100967944e10e5c20fddd337e18c5132cd47525f26e296cda47015543207f7fd31e022006c13f06ab06319ba84b307075ca32f0a3c6af3ef04916b2379a1a69674dc033[ALL] 52210274722d44a18a7982d73da73ab52a31b81d9c2e5487a80c80bc8f4e919cc9cd8f2103c8e57c77a9ec9f546026a32d9b8cf35fe5de821529b274afd6b08df188e68655210399db420bea0242cb41c782b64aee39a9f282627bbccae55c53ac445eb6ee6f5453ae"}, "vout": 0, "txid": "792165f501ef98471f0b6abbd921197434077dfe71be5d48aa3a5ad373617920"}, {"txinwitness": ["", "304402205ff4458768c85b3f3c3774b0751fada84e5b21eb575c042439d0694cb4614615022078267c7667df116a48c332726e6cdc446b36b4e8062bcec2ffd4862f13118c9101", "304402203410abd584c9d389ef638b1f986ce70a8491ea74886be6804478ed3fc5c97f1102202707f1c88c472a85d6fdce52531d95450f5515d2b6f51711eb65e01d64b576ad01", "522103ba1dc96a2a13e8901ea615e63bb95b503464239e9666d273f9dbd2ebc30b5fc72103a5545688c8f6a7a1dfeac83e8555ee079a18b86c7d30682982ffd5764135aeb021029ddd8eb7534f1cae80c3e917afd22cd7ffa3d88227e524bfba113b38efc9343553ae"], "sequence": 4294967295, "scriptSig": {"hex": "220020d08e084027545564f78a29755bad1ad20774197a84328a3ea93a85b7aca4b0ee", "asm": "0020d08e084027545564f78a29755bad1ad20774197a84328a3ea93a85b7aca4b0ee"}, "vout": 1, "txid": "7c7a1c4252e52308fa227721b91509a666dba90f390dd8d396758a1a6f09a98c"}, {"sequence": 4294967295, "scriptSig": {"hex": "0047304402202474e4910df3d6a2e87d20db1eaed6bc47f848a5ca0969ae3a7511a38b769a490220783e85fdcb835f05ba61a944ba849ac1b6d3d4c4b0da10bad09cecc56096c9040147304402206f57c7a9f964af43dbdd1ce314909a32881c52c7176410846c9917e052206e4e022073f2cb142227e2ab052e19730d281c7b25d2dd0aba475caae47b9c19c437cb57014c69522103417079fc00e88e644747319c1f274f839bb54974eba077d485c504a98d8b1a8721034f6c4450ae9781ee9d7aa5006a839235ed85f6e6c3fa2d3ea157ea21047d7e0c21020176ab5507618fe0200a7c64787f617578abbaa6280ebefc3f010e1b480954a853ae", "asm": "0 304402202474e4910df3d6a2e87d20db1eaed6bc47f848a5ca0969ae3a7511a38b769a490220783e85fdcb835f05ba61a944ba849ac1b6d3d4c4b0da10bad09cecc56096c904[ALL] 304402206f57c7a9f964af43dbdd1ce314909a32881c52c7176410846c9917e052206e4e022073f2cb142227e2ab052e19730d281c7b25d2dd0aba475caae47b9c19c437cb57[ALL] 522103417079fc00e88e644747319c1f274f839bb54974eba077d485c504a98d8b1a8721034f6c4450ae9781ee9d7aa5006a839235ed85f6e6c3fa2d3ea157ea21047d7e0c21020176ab5507618fe0200a7c64787f617578abbaa6280ebefc3f010e1b480954a853ae"}, "vout": 1, "txid": "e371f35c6f7433dd797f58b67ba590bf1bca8bb6e0f0a61a1f1858f80c60cb94"}, {"sequence": 4294967295, "scriptSig": {"hex": "0047304402204192312b698688628044389d50cbc8496563cab962dbf56140cc2b764c2fe42102204491fcd91a497c50dc07d1fb6e52090a09875cdfe0c2c84b3657f49f379487f70147304402206ad5e8c4b92efe5d15f72dcde6d6b83533153fc5b72337cae2e765247e8c023b0220193c2e8de7fd70e3e16bb83c5e9dfb25f5ad6209ed4ccfc3f497b6d6a9908e7e014c69522103969cc44fb8fd77198b4c0ca9eabfc33dcfa46e2004b5e6d09b588e7687a46e412102f00614b08727b270ede0601d778d9a89587a3949e6f5ee303b513a512313b50f2103d10a1c39f77f5a031f8d8d3c190973769a420ed35975efa5d4cd9637f4fc9af153ae", "asm": "0 304402204192312b698688628044389d50cbc8496563cab962dbf56140cc2b764c2fe42102204491fcd91a497c50dc07d1fb6e52090a09875cdfe0c2c84b3657f49f379487f7[ALL] 304402206ad5e8c4b92efe5d15f72dcde6d6b83533153fc5b72337cae2e765247e8c023b0220193c2e8de7fd70e3e16bb83c5e9dfb25f5ad6209ed4ccfc3f497b6d6a9908e7e[ALL] 522103969cc44fb8fd77198b4c0ca9eabfc33dcfa46e2004b5e6d09b588e7687a46e412102f00614b08727b270ede0601d778d9a89587a3949e6f5ee303b513a512313b50f2103d10a1c39f77f5a031f8d8d3c190973769a420ed35975efa5d4cd9637f4fc9af153ae"}, "vout": 3, "txid": "c29e0384ff4a233f85100aed0be1bb3a794979c4eae4c050764f63d4b04117d9"}, {"txinwitness": ["", "30450221008961c9c3f6e760534f77faf27dac86198ff78aaf2532fb18d55aff328583bc1e0220375e58d327d86999003a4b305ed4cb53ffbd083a06c075a7dcc563b153132ea801", "304402205b06b63adab146894ebeba3870f4fcf98e54ad4c115ab4a7fb6e447f82a5c82d022050f7fb24af68afee1857252a41ba0b9448b733e746067b2bbd002cd96de053b401", "522103994e063dc06e552fb7e7b1cecf5c4692cbfcda5e6adbbbb7f7048b681601a88a2103a0d387ddcce70cc84389f386e21cc71d87828a3bb2871a71c206d9de09a18ceb2103a52d999e0c610de0f8c4d088c8aaf6a67ef280719603a239ab6304c7ed1dc35553ae"], "sequence": 4294967295, "scriptSig": {"hex": "220020a8420b37bb866c23b89b671dea0c6d3968c0ac0a5dd9f677a1c97d52f07286be", "asm": "0020a8420b37bb866c23b89b671dea0c6d3968c0ac0a5dd9f677a1c97d52f07286be"}, "vout": 0, "txid": "b838d06e28989b90e183bd493eb7d3927da1c2a2ca719c2400922b7ebfba3178"}, {"sequence": 4294967295, "scriptSig": {"hex": "00483045022100e77f383c37077e674fa7928b1990f55d33fb0e7202fc8e1818f6947cf2ca376d022022caf0f9e0afa98e87b778e467673626ca789623387894919ac49050095093770147304402207613f8fca089839c1a63da71836b2af4019f05846d41176345507fe75c7c369c0220413c45d1cfbb77f2ff85a40d3ea70386a7f9cb9d22f8d9a0d78a49be923b3d54014c69522103969cc44fb8fd77198b4c0ca9eabfc33dcfa46e2004b5e6d09b588e7687a46e412102f00614b08727b270ede0601d778d9a89587a3949e6f5ee303b513a512313b50f2103d10a1c39f77f5a031f8d8d3c190973769a420ed35975efa5d4cd9637f4fc9af153ae", "asm": "0 3045022100e77f383c37077e674fa7928b1990f55d33fb0e7202fc8e1818f6947cf2ca376d022022caf0f9e0afa98e87b778e467673626ca789623387894919ac4905009509377[ALL] 304402207613f8fca089839c1a63da71836b2af4019f05846d41176345507fe75c7c369c0220413c45d1cfbb77f2ff85a40d3ea70386a7f9cb9d22f8d9a0d78a49be923b3d54[ALL] 522103969cc44fb8fd77198b4c0ca9eabfc33dcfa46e2004b5e6d09b588e7687a46e412102f00614b08727b270ede0601d778d9a89587a3949e6f5ee303b513a512313b50f2103d10a1c39f77f5a031f8d8d3c190973769a420ed35975efa5d4cd9637f4fc9af153ae"}, "vout": 5, "txid": "b6768763a63b0d67b7932da4b7cb2aed074d17fa0a716374c72636a91471b513"}, {"sequence": 4294967295, "scriptSig": {"hex": "00483045022100aed577e871dac28ce6a96d7897cbe881618df97b2dfd1f07cd426637e0832506022003b79df08b1f7ed753a101564710964b67f603fb82ef3cccecb9336fd3e56e8301483045022100983d2c3bbb9b6dcb2682939583174420f52a61d8c35c158359e0a4eb759d3a6d02202ea78a67da4f3ddcaa4120c565e9fd7f7240422e99dc0235175b81b04d35ddc6014c695221022b70eddafbe5bf67553e028938f17ec74d01079a7e0d1741191fdfc467394416210247685fe522b4ae8231502dd6c08aa536cba06213e692c7f592ef178fa268a9c5210298a56c3e5c7a4a2da2cab90e80bc3c6426614b69c33009db3a4168c980e31eca53ae", "asm": "0 3045022100aed577e871dac28ce6a96d7897cbe881618df97b2dfd1f07cd426637e0832506022003b79df08b1f7ed753a101564710964b67f603fb82ef3cccecb9336fd3e56e83[ALL] 3045022100983d2c3bbb9b6dcb2682939583174420f52a61d8c35c158359e0a4eb759d3a6d02202ea78a67da4f3ddcaa4120c565e9fd7f7240422e99dc0235175b81b04d35ddc6[ALL] 5221022b70eddafbe5bf67553e028938f17ec74d01079a7e0d1741191fdfc467394416210247685fe522b4ae8231502dd6c08aa536cba06213e692c7f592ef178fa268a9c5210298a56c3e5c7a4a2da2cab90e80bc3c6426614b69c33009db3a4168c980e31eca53ae"}, "vout": 0, "txid": "10859523e199f3df73b3249ba41d131e0046e41693e721e079839d3089b327b3"}, {"txinwitness": ["", "3045022100b91d5f59d01743290979c971bfc9cff5b4c565dae47a307fdad4a774ca53ad8902201b8ebc9df4f20a45ee3c569c00ec238e522f469c39b685bbb939bb4ea64861b701", "304502210093506be895fe3063ad3dfa3fd6470102b0b18045ff814b0c87e78b5f4688373502203fe188cf566965906104c4603df95f48b81907800d2c014f37d9eb5b2c8b56a201", "522102f3b1ec1f09ed5becb63f762ef85b9516b4e1f4a4f756f3795fe08fe86b3d3cc021028ed2d5db807e08c583f8d74559d34d391a4cb20c2b05bbd143a02b30c0f357502102e7b7b01f46161d13a5c5f4080a149c8e177130bb0b1b9176a502c4cb3dec422353ae"], "sequence": 4294967295, "scriptSig": {"hex": "220020ccae6e186d45f8014621be0913bd8ef172f37cf50f19eb7947f5cb296277608c", "asm": "0020ccae6e186d45f8014621be0913bd8ef172f37cf50f19eb7947f5cb296277608c"}, "vout": 1, "txid": "b31b9cb42086fef16880a64ceafc9dd142c18499ee0c6f2b2f08733692ced7d0"}], "txid": "7c4cc18239a68e5ee17c2d6836fc37688517d4191ceb8d5f0b88978e04088812", "blocktime": 1537871767, "version": 1, "confirmations": 11495, "time": 1537871767, "locktime": 0, "vsize": 4029, "size": 4987}