{"hash": "7c4e5936f54a36034793eb04e2ebabc479b263a5450933f850467dce6bc35805", "blockhash": "0000000000000000001cda96e906b7601b7a6fb1a3b62bca570a9e5d8f4b3de1", "vout": [{"scriptPubKey": {"reqSigs": 1, "hex": "76a914c87667544ba08944afa01c71fc2b032eb3d57db988ac", "addresses": ["1KGwzCHNatng1n7tUiWQJ6qwPUMjoH1UxY"], "asm": "OP_DUP OP_HASH160 c87667544ba08944afa01c71fc2b032eb3d57db9 OP_EQUALVERIFY OP_CHECKSIG", "type": "pubkeyhash"}, "value": 0.00010854, "n": 0}, {"scriptPubKey": {"reqSigs": 1, "hex": "a914f81ca6d6b2c587421f39a9a0865e342dd371304587", "addresses": ["3QJupsdEAtvS5EQBJmNL9sBaS14VwFsc3R"], "asm": "OP_HASH160 f81ca6d6b2c587421f39a9a0865e342dd3713045 OP_EQUAL", "type": "scripthash"}, "value": 0.01405132, "n": 1}], "hex": "01000000054027d76afa2281f42be944d65e23a64cb8290ac92ccf913c397bb5910258e843010000006a473044022038e9c96422a31f274f40220e772c625c21440dbda7141788a282306fee3579ea0220434376f6fa48539814c258ce9d260a4d186f28af1ec5c071b6b524aeff7e39b60121039a8ba7150533932d7ee85b0a6553888570aac0f2743af766865aba871aea8adbffffffffc09e33b6e2be4f976e7fe3b038316bea142dfcba0c49c64fc1702c15c35e5473000000006b48304502210086eae544f57058a311f3444c18c5dd6ca8d5d4bc72d895d159ca18305c2edb73022015392db946a344227bb74f85689524b02362162065b355282692f85610cdc9df012102b3ae404de39c9a0d1d551c193822440fd091c498ba5ab8a8265d328bb2ffedb4ffffffff7abf993c13c3c62b84202d90d8cea1e7f61e380612056d9a1f22edb1b210f674000000006a47304402201c1f7a601b30af96fe8b5405aee8d6ef6404199b04fdad230ef4e98734fcb9af022053678176846ee241359d266329a6cdfd85f2ddd5117e6efd5a734b1a5afd2b1601210378d9a1c1d627c73c4e4f65f9fb8ed20153a98ff7e9bbeb5c70f1e7981243ed27ffffffffcc413dc177a8fc3ef9b764702fa92740d4d995117548d23f8baf0b9eed3e5e9a010000006b483045022100f8816a666e4955dd12e4cd6b52fcee73a9fd263ceea80eb83847f7f62f0156fd0220483ecd1a562b03a7774cf89b3f628ed545aad92650ad363f50f59ae50cb637a30121024a2f3a078030255a359c28fc61a254c485c94e2c51b5844caf36809219332ae2ffffffffb0937e8cb45c21d42c6913a8bcb9b87c1f3483a4453d0b78c4c5f0eb81e299fe000000006a47304402207dce4b8b0184d5ea091e95cc5611bc4e6726677cfd69e701993954ef7d1a4ef2022049b1a3b861c6fc8f998cb5753eca86f556d1e84bbb04f4d4f2a6f70fa3ec9cca0121039a8ba7150533932d7ee85b0a6553888570aac0f2743af766865aba871aea8adbffffffff02662a0000000000001976a914c87667544ba08944afa01c71fc2b032eb3d57db988accc7015000000000017a914f81ca6d6b2c587421f39a9a0865e342dd37130458700000000", "vin": [{"sequence": 4294967295, "scriptSig": {"hex": "473044022038e9c96422a31f274f40220e772c625c21440dbda7141788a282306fee3579ea0220434376f6fa48539814c258ce9d260a4d186f28af1ec5c071b6b524aeff7e39b60121039a8ba7150533932d7ee85b0a6553888570aac0f2743af766865aba871aea8adb", "asm": "3044022038e9c96422a31f274f40220e772c625c21440dbda7141788a282306fee3579ea0220434376f6fa48539814c258ce9d260a4d186f28af1ec5c071b6b524aeff7e39b6[ALL] 039a8ba7150533932d7ee85b0a6553888570aac0f2743af766865aba871aea8adb"}, "vout": 1, "txid": "43e8580291b57b393c91cf2cc90a29b84ca6235ed644e92bf48122fa6ad72740"}, {"sequence": 4294967295, "scriptSig": {"hex": "48304502210086eae544f57058a311f3444c18c5dd6ca8d5d4bc72d895d159ca18305c2edb73022015392db946a344227bb74f85689524b02362162065b355282692f85610cdc9df012102b3ae404de39c9a0d1d551c193822440fd091c498ba5ab8a8265d328bb2ffedb4", "asm": "304502210086eae544f57058a311f3444c18c5dd6ca8d5d4bc72d895d159ca18305c2edb73022015392db946a344227bb74f85689524b02362162065b355282692f85610cdc9df[ALL] 02b3ae404de39c9a0d1d551c193822440fd091c498ba5ab8a8265d328bb2ffedb4"}, "vout": 0, "txid": "73545ec3152c70c14fc6490cbafc2d14ea6b3138b0e37f6e974fbee2b6339ec0"}, {"sequence": 4294967295, "scriptSig": {"hex": "47304402201c1f7a601b30af96fe8b5405aee8d6ef6404199b04fdad230ef4e98734fcb9af022053678176846ee241359d266329a6cdfd85f2ddd5117e6efd5a734b1a5afd2b1601210378d9a1c1d627c73c4e4f65f9fb8ed20153a98ff7e9bbeb5c70f1e7981243ed27", "asm": "304402201c1f7a601b30af96fe8b5405aee8d6ef6404199b04fdad230ef4e98734fcb9af022053678176846ee241359d266329a6cdfd85f2ddd5117e6efd5a734b1a5afd2b16[ALL] 0378d9a1c1d627c73c4e4f65f9fb8ed20153a98ff7e9bbeb5c70f1e7981243ed27"}, "vout": 0, "txid": "74f610b2b1ed221f9a6d051206381ef6e7a1ced8902d20842bc6c3133c99bf7a"}, {"sequence": 4294967295, "scriptSig": {"hex": "483045022100f8816a666e4955dd12e4cd6b52fcee73a9fd263ceea80eb83847f7f62f0156fd0220483ecd1a562b03a7774cf89b3f628ed545aad92650ad363f50f59ae50cb637a30121024a2f3a078030255a359c28fc61a254c485c94e2c51b5844caf36809219332ae2", "asm": "3045022100f8816a666e4955dd12e4cd6b52fcee73a9fd263ceea80eb83847f7f62f0156fd0220483ecd1a562b03a7774cf89b3f628ed545aad92650ad363f50f59ae50cb637a3[ALL] 024a2f3a078030255a359c28fc61a254c485c94e2c51b5844caf36809219332ae2"}, "vout": 1, "txid": "9a5e3eed9e0baf8b3fd248751195d9d44027a92f7064b7f93efca877c13d41cc"}, {"sequence": 4294967295, "scriptSig": {"hex": "47304402207dce4b8b0184d5ea091e95cc5611bc4e6726677cfd69e701993954ef7d1a4ef2022049b1a3b861c6fc8f998cb5753eca86f556d1e84bbb04f4d4f2a6f70fa3ec9cca0121039a8ba7150533932d7ee85b0a6553888570aac0f2743af766865aba871aea8adb", "asm": "304402207dce4b8b0184d5ea091e95cc5611bc4e6726677cfd69e701993954ef7d1a4ef2022049b1a3b861c6fc8f998cb5753eca86f556d1e84bbb04f4d4f2a6f70fa3ec9cca[ALL] 039a8ba7150533932d7ee85b0a6553888570aac0f2743af766865aba871aea8adb"}, "vout": 0, "txid": "fe99e281ebf0c5c4780b3d45a483341f7cb8b9bca813692cd4215cb48c7e93b0"}], "txid": "7c4e5936f54a36034793eb04e2ebabc479b263a5450933f850467dce6bc35805", "blocktime": 1537873282, "version": 1, "confirmations": 11484, "time": 1537873282, "locktime": 0, "vsize": 813, "size": 813}