{"hash": "7c54a8b6de28384492456c709519b66724002beff804ef5ab8d3c3774e38cb14", "blockhash": "0000000000000000000baef3f32e3676a92c3b2e5da21b426e4f302fc371ce76", "vout": [{"scriptPubKey": {"reqSigs": 1, "hex": "76a914899a6b0ed2c377694561bdc0b4735580132c82a988ac", "addresses": ["1DYaZSp8utaoH26GJEehiunqhwBK9jjSXr"], "asm": "OP_DUP OP_HASH160 899a6b0ed2c377694561bdc0b4735580132c82a9 OP_EQUALVERIFY OP_CHECKSIG", "type": "pubkeyhash"}, "value": 0.05725, "n": 0}, {"scriptPubKey": {"reqSigs": 1, "hex": "a914e370231feecbfc25e2e2423a5a79bf79bfdca59887", "addresses": ["3NRbeX3vD5VaVE4TDU9ivCDsEf7NPPte6J"], "asm": "OP_HASH160 e370231feecbfc25e2e2423a5a79bf79bfdca598 OP_EQUAL", "type": "scripthash"}, "value": 8.8594471, "n": 1}], "hex": "0100000001a01ba1e3f1b0ccaac8d69a766ad9ca648cbb1ec6c8f60f266365c4a31730842001000000da004830450221008818b41e87a0f1912176d913e96ec2ae44481d1b16fbba436108a1be0def5aae022073f6979620f95e200a962960d538089b24ad8b8aed40ef7683341fe7b191a08501473044022100fc16acd487f56e8dc2d8e59d3af573202330deea4014e1f2130022b6b8f6b2ef021f6423198d3c3fe34c4b9847db378c30d15f77db3517d8fd7d2296131a12bbca014752210327881b6abce6535553a3ce21fad12a7d74fd237ce7c4cd270a267162344e3082210256141f8eb687f5a68c5cc65054652dc25116fa285e44d72b44368827ffe77d9a52aeffffffff02485b5700000000001976a914899a6b0ed2c377694561bdc0b4735580132c82a988ac8671ce340000000017a914e370231feecbfc25e2e2423a5a79bf79bfdca5988700000000", "vin": [{"sequence": 4294967295, "scriptSig": {"hex": "004830450221008818b41e87a0f1912176d913e96ec2ae44481d1b16fbba436108a1be0def5aae022073f6979620f95e200a962960d538089b24ad8b8aed40ef7683341fe7b191a08501473044022100fc16acd487f56e8dc2d8e59d3af573202330deea4014e1f2130022b6b8f6b2ef021f6423198d3c3fe34c4b9847db378c30d15f77db3517d8fd7d2296131a12bbca014752210327881b6abce6535553a3ce21fad12a7d74fd237ce7c4cd270a267162344e3082210256141f8eb687f5a68c5cc65054652dc25116fa285e44d72b44368827ffe77d9a52ae", "asm": "0 30450221008818b41e87a0f1912176d913e96ec2ae44481d1b16fbba436108a1be0def5aae022073f6979620f95e200a962960d538089b24ad8b8aed40ef7683341fe7b191a085[ALL] 3044022100fc16acd487f56e8dc2d8e59d3af573202330deea4014e1f2130022b6b8f6b2ef021f6423198d3c3fe34c4b9847db378c30d15f77db3517d8fd7d2296131a12bbca[ALL] 52210327881b6abce6535553a3ce21fad12a7d74fd237ce7c4cd270a267162344e3082210256141f8eb687f5a68c5cc65054652dc25116fa285e44d72b44368827ffe77d9a52ae"}, "vout": 1, "txid": "20843017a3c46563260ff6c8c61ebb8c64cad96a769ad6c8aaccb0f1e3a11ba0"}], "txid": "7c54a8b6de28384492456c709519b66724002beff804ef5ab8d3c3774e38cb14", "blocktime": 1537876114, "version": 1, "confirmations": 11460, "time": 1537876114, "locktime": 0, "vsize": 335, "size": 335}