{"hash": "7c590be1a663ad61619b3b9c8fbacad2eb6fd248acfda13425427e21ebb393c9", "blockhash": "00000000000000000018f53835495a110e01622372bf6ae95dc86f2b0ab887b0", "vout": [{"scriptPubKey": {"reqSigs": 1, "hex": "76a9147396fbd64146680fc8cc2a139cea0e646c12172e88ac", "addresses": ["1BYBabUzS58yFoyfmyW9Gt3N6Yv4aoVMuB"], "asm": "OP_DUP OP_HASH160 7396fbd64146680fc8cc2a139cea0e646c12172e OP_EQUALVERIFY OP_CHECKSIG", "type": "pubkeyhash"}, "value": 0.00086753, "n": 0}, {"scriptPubKey": {"reqSigs": 1, "hex": "76a914004f11325946410edaa0fa8a31c43d9d8e14852488ac", "addresses": ["112digecjUGqPwGxpo7c4nw4cjzfcNhkP6"], "asm": "OP_DUP OP_HASH160 004f11325946410edaa0fa8a31c43d9d8e148524 OP_EQUALVERIFY OP_CHECKSIG", "type": "pubkeyhash"}, "value": 0.00611076, "n": 1}], "hex": "010000000163a15c8e68153d8aa3da2e95b329394a075cc84b8d938871646addd287e51760000000006a4730440220037136b2060ae0918e982cbc8a7d99513dd9aac5275aa8c6bfa940decc2cf423022031968e4758393ec27d1359b5a96a3743ed2f4de2603f24519a5cf0501a4a24e10121024621b800f9486a04c6c122272586cc9b91e2ca9503d073d3d6f9b9d0be98479cffffffff02e1520100000000001976a9147396fbd64146680fc8cc2a139cea0e646c12172e88ac04530900000000001976a914004f11325946410edaa0fa8a31c43d9d8e14852488ac00000000", "vin": [{"sequence": 4294967295, "scriptSig": {"hex": "4730440220037136b2060ae0918e982cbc8a7d99513dd9aac5275aa8c6bfa940decc2cf423022031968e4758393ec27d1359b5a96a3743ed2f4de2603f24519a5cf0501a4a24e10121024621b800f9486a04c6c122272586cc9b91e2ca9503d073d3d6f9b9d0be98479c", "asm": "30440220037136b2060ae0918e982cbc8a7d99513dd9aac5275aa8c6bfa940decc2cf423022031968e4758393ec27d1359b5a96a3743ed2f4de2603f24519a5cf0501a4a24e1[ALL] 024621b800f9486a04c6c122272586cc9b91e2ca9503d073d3d6f9b9d0be98479c"}, "vout": 0, "txid": "6017e587d2dd6a647188938d4bc85c074a3929b3952edaa38a3d15688e5ca163"}], "txid": "7c590be1a663ad61619b3b9c8fbacad2eb6fd248acfda13425427e21ebb393c9", "blocktime": 1537870928, "version": 1, "confirmations": 11514, "time": 1537870928, "locktime": 0, "vsize": 225, "size": 225}