{"hash": "df1fc3994a39a4dd8fa3e99cbc2eab93547b283356436e9d12c968c6c4c82d6b", "blockhash": "000000000000000000022b45ed06c6f4ccd3cf7fb5ba4856ebd2e58215665228", "vout": [{"scriptPubKey": {"reqSigs": 1, "hex": "76a914a0f3690bcb733749bba2174135605e8caee64ee888ac", "addresses": ["1Fg2i96McvLcxfkUvV5iy2wQof8dL9RUYa"], "asm": "OP_DUP OP_HASH160 a0f3690bcb733749bba2174135605e8caee64ee8 OP_EQUALVERIFY OP_CHECKSIG", "type": "pubkeyhash"}, "value": 0.0008, "n": 0}, {"scriptPubKey": {"reqSigs": 1, "hex": "a91470ff0908d6dd9ab16dab48ba68c4be3e885146d187", "addresses": ["3BzV8C4GcRx91AVGDVFYq1Gdy4JHfHM73C"], "asm": "OP_HASH160 70ff0908d6dd9ab16dab48ba68c4be3e885146d1 OP_EQUAL", "type": "scripthash"}, "value": 0.0008759, "n": 1}], "hex": "010000000001035b014e4f5335d4820c712972cfb35055586aef3ca00c7123ad0924aa03585acd07000000232200202a52f09f60ed15930c61086dde601c2ecb07f04e2e04535b0b998f92aa3e5bd9ffffffffc8d645b0a016f2dae0a8043b5e26bde820cf7e5166c5615b7247f1221a06feb501000000232200204a6407415583b6046c8ee90f991c7834325b0a3ea1a04b27e8604544f962c186ffffffffa5c63c5a83273c758e1d15992acb55bb6c4f2e2cbe81565914cf07de871fcb2609000000232200203d8d3185bf2a79b7ba1e13db5fb36a944475ab4c7d7e3c788c6c7034f21dcf81ffffffff0280380100000000001976a914a0f3690bcb733749bba2174135605e8caee64ee888ac265601000000000017a91470ff0908d6dd9ab16dab48ba68c4be3e885146d1870400483045022100ae254d3d79693bcdd90642aa73c999ce3d570aa54af57dfdad05171a89c459cd022068f2ecd67ee63601253a183d31c5cbe202d5b05a0db1ca5b2e7fe8a6a51755b201473044022042c0a5daf7874ea94c41cbb61262d757e139bf16c54b689d611e0406cc32054202203fd39085586fe368dccedbd555314da098b18c7e259e52240615c5989b4e5f930147522103cde2033d76509308e134b9453e944440cd55349f8b828b882da61117ad3e4fda2102726ff74b232948bf3b0b4302934f660ce5f3375e3c0ec0ccd022a4260517f25a52ae040047304402201ebcad820954911600921af3c94fb21a0a7b941f4ef0a7b7842959b5b61561ae02206d11f458ca38892295da1bb63107bd555c6552dc010e2fd2939beed7c556080801473044022056b707da28baa118b9a660670de1c5ff6686abe5d89cf93330ddd94124819873022067130081c80f9ea2d84349acf3bb5a7283ac08f5cb95aac209d1976735e22dbe0147522103ab85104af91127e09701954267f0c26ccf32ef64c1690c657de0488828fa1a362102726ff74b232948bf3b0b4302934f660ce5f3375e3c0ec0ccd022a4260517f25a52ae04004730440220102f4986114debb014cb6be1c494a801136683ab5c6ed1914dac5367ef4127ea022076f58ffc17903d58e4087deadcb250d11e250d8f397eaa893ff13217ebace38201483045022100cc679c3d25784cc504dc2035bddd99ce1efbbf8f9abb2f0ac701cf457038cc460220189954fdbafc5ff602351e8662a27d09aef6f5cad6deb4a15cd624f04258ad7b014752210383a9961c13f2eb182b076b6f5397715aa1a3de41bc3c07801a98e2d7f5f0f5e12102726ff74b232948bf3b0b4302934f660ce5f3375e3c0ec0ccd022a4260517f25a52ae00000000", "vin": [{"txinwitness": ["", "3045022100ae254d3d79693bcdd90642aa73c999ce3d570aa54af57dfdad05171a89c459cd022068f2ecd67ee63601253a183d31c5cbe202d5b05a0db1ca5b2e7fe8a6a51755b201", "3044022042c0a5daf7874ea94c41cbb61262d757e139bf16c54b689d611e0406cc32054202203fd39085586fe368dccedbd555314da098b18c7e259e52240615c5989b4e5f9301", "522103cde2033d76509308e134b9453e944440cd55349f8b828b882da61117ad3e4fda2102726ff74b232948bf3b0b4302934f660ce5f3375e3c0ec0ccd022a4260517f25a52ae"], "sequence": 4294967295, "scriptSig": {"hex": "2200202a52f09f60ed15930c61086dde601c2ecb07f04e2e04535b0b998f92aa3e5bd9", "asm": "00202a52f09f60ed15930c61086dde601c2ecb07f04e2e04535b0b998f92aa3e5bd9"}, "vout": 7, "txid": "cd5a5803aa2409ad23710ca03cef6a585550b3cf7229710c82d435534f4e015b"}, {"txinwitness": ["", "304402201ebcad820954911600921af3c94fb21a0a7b941f4ef0a7b7842959b5b61561ae02206d11f458ca38892295da1bb63107bd555c6552dc010e2fd2939beed7c556080801", "3044022056b707da28baa118b9a660670de1c5ff6686abe5d89cf93330ddd94124819873022067130081c80f9ea2d84349acf3bb5a7283ac08f5cb95aac209d1976735e22dbe01", "522103ab85104af91127e09701954267f0c26ccf32ef64c1690c657de0488828fa1a362102726ff74b232948bf3b0b4302934f660ce5f3375e3c0ec0ccd022a4260517f25a52ae"], "sequence": 4294967295, "scriptSig": {"hex": "2200204a6407415583b6046c8ee90f991c7834325b0a3ea1a04b27e8604544f962c186", "asm": "00204a6407415583b6046c8ee90f991c7834325b0a3ea1a04b27e8604544f962c186"}, "vout": 1, "txid": "b5fe061a22f147725b61c566517ecf20e8bd265e3b04a8e0daf216a0b045d6c8"}, {"txinwitness": ["", "30440220102f4986114debb014cb6be1c494a801136683ab5c6ed1914dac5367ef4127ea022076f58ffc17903d58e4087deadcb250d11e250d8f397eaa893ff13217ebace38201", "3045022100cc679c3d25784cc504dc2035bddd99ce1efbbf8f9abb2f0ac701cf457038cc460220189954fdbafc5ff602351e8662a27d09aef6f5cad6deb4a15cd624f04258ad7b01", "52210383a9961c13f2eb182b076b6f5397715aa1a3de41bc3c07801a98e2d7f5f0f5e12102726ff74b232948bf3b0b4302934f660ce5f3375e3c0ec0ccd022a4260517f25a52ae"], "sequence": 4294967295, "scriptSig": {"hex": "2200203d8d3185bf2a79b7ba1e13db5fb36a944475ab4c7d7e3c788c6c7034f21dcf81", "asm": "00203d8d3185bf2a79b7ba1e13db5fb36a944475ab4c7d7e3c788c6c7034f21dcf81"}, "vout": 9, "txid": "26cb1f87de07cf14595681be2c2e4f6cbb55cb2a99151d8e753c27835a3cc6a5"}], "txid": "7c5a918cca8f8fe51c99e2c0977633edde7abee3305283ade0f922e6e22b8abf", "blocktime": 1537869901, "version": 1, "confirmations": 11524, "time": 1537869901, "locktime": 0, "vsize": 469, "size": 962}