{"hash": "7c5dea78b8ee17b68f49bdc303e845fb651908f5af1d31a471d7c3775c36ea98", "blockhash": "00000000000000000018f53835495a110e01622372bf6ae95dc86f2b0ab887b0", "vout": [{"scriptPubKey": {"reqSigs": 1, "hex": "76a914a73b1fd7e823ddc82aa4a15670f21d0ff4e640c688ac", "addresses": ["1GFEg558SgEhg9SC2yjTpFG5UgtCbuSBCF"], "asm": "OP_DUP OP_HASH160 a73b1fd7e823ddc82aa4a15670f21d0ff4e640c6 OP_EQUALVERIFY OP_CHECKSIG", "type": "pubkeyhash"}, "value": 0.0004686, "n": 0}, {"scriptPubKey": {"reqSigs": 1, "hex": "76a914088a905c5c9f3d1fa951f6b611d2ce0c3e62a53688ac", "addresses": ["1nAQ8BcwoEMpjn93TAZN2hHxks7xtCRzC"], "asm": "OP_DUP OP_HASH160 088a905c5c9f3d1fa951f6b611d2ce0c3e62a536 OP_EQUALVERIFY OP_CHECKSIG", "type": "pubkeyhash"}, "value": 0.05314104, "n": 1}], "hex": "0100000001a29d576a61680f554a7c316fd7b191c3852efd18e75901a4b1a6205cad17fc62010000006b48304502210091b54aad2c57b66e57db0a7bea1db0e8ad83099baf96164719ff40a565bfa67c022003242cd314498f8b3c492d56a8ff2c1168e3c9a48542025481235933f7a42e110121024b8b88fc88edafe453740f5a85a2e189f324fd1429ee24f3c73371389f5ab9aafdffffff020cb70000000000001976a914a73b1fd7e823ddc82aa4a15670f21d0ff4e640c688ac38165100000000001976a914088a905c5c9f3d1fa951f6b611d2ce0c3e62a53688ac00000000", "vin": [{"sequence": 4294967293, "scriptSig": {"hex": "48304502210091b54aad2c57b66e57db0a7bea1db0e8ad83099baf96164719ff40a565bfa67c022003242cd314498f8b3c492d56a8ff2c1168e3c9a48542025481235933f7a42e110121024b8b88fc88edafe453740f5a85a2e189f324fd1429ee24f3c73371389f5ab9aa", "asm": "304502210091b54aad2c57b66e57db0a7bea1db0e8ad83099baf96164719ff40a565bfa67c022003242cd314498f8b3c492d56a8ff2c1168e3c9a48542025481235933f7a42e11[ALL] 024b8b88fc88edafe453740f5a85a2e189f324fd1429ee24f3c73371389f5ab9aa"}, "vout": 1, "txid": "62fc17ad5c20a6b1a40159e718fd2e85c391b1d76f317c4a550f68616a579da2"}], "txid": "7c5dea78b8ee17b68f49bdc303e845fb651908f5af1d31a471d7c3775c36ea98", "blocktime": 1537870928, "version": 1, "confirmations": 11514, "time": 1537870928, "locktime": 0, "vsize": 226, "size": 226}