{"hash": "7c69f65d39c32902d5db9a249e4f012bf2f73a5a56648f3b4f33f0ba6be8f5aa", "blockhash": "00000000000000000017f5eb5941039fbcee6240d03bc1f2f8e35350df66a1d8", "vout": [{"scriptPubKey": {"reqSigs": 1, "hex": "76a9141ce675960893389fe9755d466fb2c673d30bbffc88ac", "addresses": ["13dozy1ANFp5GNu4oTwRaJ5BSthghhLXZT"], "asm": "OP_DUP OP_HASH160 1ce675960893389fe9755d466fb2c673d30bbffc OP_EQUALVERIFY OP_CHECKSIG", "type": "pubkeyhash"}, "value": 0.00012179, "n": 0}, {"scriptPubKey": {"reqSigs": 1, "hex": "a9144c74d134c47aa1edcb8e50b3a230155ff91fba2e87", "addresses": ["38fHDj1BYJBr6w3zzviCaxBnhXNm2SejDM"], "asm": "OP_HASH160 4c74d134c47aa1edcb8e50b3a230155ff91fba2e OP_EQUAL", "type": "scripthash"}, "value": 0.00374547, "n": 1}], "hex": "0100000004a413ca7968bb360de1b98e73c5adb7b292b20941c7dc2e626087d2a58c019d88000000006a47304402200a98c4197c0531a383eb7cd1d2cbad4ec5e35132e915e6d8af9c4657e6ab356f02202ef1975cf5ebc80e67621b1cb46ca356f7a0c3b0c42b3f3746c111020fb5d5e8012102ce9d3fb482fa0277285b36f15cee44cedcfaaadb3bc61aaa5ed78ff4c41996f1ffffffff49f936dfb34b860b6f267eec305ed81893ef54d305fb67ac4f394380d2dcb0b4000000006b483045022100eb3e8abe39fcea51bcf3a07d156a2205b47f2db867778315a13c9ff6ac5271a002203d2641352dc407912289fb4aeca6463eb0ec179334b1b78e3297c27ec1816bed01210277c01d3ece879d62f915518cb58ad72c624946e48f5046d181b7cef1dbd3e2ddffffffff8e4fde6720ffbe10dd09a0511a336bf7e8a1ac46cbef4003142d2dcf6a0f27c9010000006b4830450221009578b40808557a39ac469224a1be40c97b66dcdd75fc5c6be86d8c23b713f56c02200e29f840e1eda402b540593bb660b803052db0670bbdcc16513c078499a86689012103eb61f71b48c3dfcb3372100f62e2b74d018d33bcd4148d83a92e3e97ce07857dffffffffba7655362845b2b419de0955ada5758357604d025af0b66054d7304741b755cb010000006a473044022034dd67290376ca043052ab48eb94454f9cf8b99a382f8ddf8f2be8ae179e01850220359c9eeb0eccec5d48f4b72d97095f0606f994839fcdd614b594faa9d4179f1d012102c1dddaf91f2e1047a1dc82e6044c6915955882e28717475a6196a7d3f9ce9203ffffffff02932f0000000000001976a9141ce675960893389fe9755d466fb2c673d30bbffc88ac13b705000000000017a9144c74d134c47aa1edcb8e50b3a230155ff91fba2e8700000000", "vin": [{"sequence": 4294967295, "scriptSig": {"hex": "47304402200a98c4197c0531a383eb7cd1d2cbad4ec5e35132e915e6d8af9c4657e6ab356f02202ef1975cf5ebc80e67621b1cb46ca356f7a0c3b0c42b3f3746c111020fb5d5e8012102ce9d3fb482fa0277285b36f15cee44cedcfaaadb3bc61aaa5ed78ff4c41996f1", "asm": "304402200a98c4197c0531a383eb7cd1d2cbad4ec5e35132e915e6d8af9c4657e6ab356f02202ef1975cf5ebc80e67621b1cb46ca356f7a0c3b0c42b3f3746c111020fb5d5e8[ALL] 02ce9d3fb482fa0277285b36f15cee44cedcfaaadb3bc61aaa5ed78ff4c41996f1"}, "vout": 0, "txid": "889d018ca5d28760622edcc74109b292b2b7adc5738eb9e10d36bb6879ca13a4"}, {"sequence": 4294967295, "scriptSig": {"hex": "483045022100eb3e8abe39fcea51bcf3a07d156a2205b47f2db867778315a13c9ff6ac5271a002203d2641352dc407912289fb4aeca6463eb0ec179334b1b78e3297c27ec1816bed01210277c01d3ece879d62f915518cb58ad72c624946e48f5046d181b7cef1dbd3e2dd", "asm": "3045022100eb3e8abe39fcea51bcf3a07d156a2205b47f2db867778315a13c9ff6ac5271a002203d2641352dc407912289fb4aeca6463eb0ec179334b1b78e3297c27ec1816bed[ALL] 0277c01d3ece879d62f915518cb58ad72c624946e48f5046d181b7cef1dbd3e2dd"}, "vout": 0, "txid": "b4b0dcd28043394fac67fb05d354ef9318d85e30ec7e266f0b864bb3df36f949"}, {"sequence": 4294967295, "scriptSig": {"hex": "4830450221009578b40808557a39ac469224a1be40c97b66dcdd75fc5c6be86d8c23b713f56c02200e29f840e1eda402b540593bb660b803052db0670bbdcc16513c078499a86689012103eb61f71b48c3dfcb3372100f62e2b74d018d33bcd4148d83a92e3e97ce07857d", "asm": "30450221009578b40808557a39ac469224a1be40c97b66dcdd75fc5c6be86d8c23b713f56c02200e29f840e1eda402b540593bb660b803052db0670bbdcc16513c078499a86689[ALL] 03eb61f71b48c3dfcb3372100f62e2b74d018d33bcd4148d83a92e3e97ce07857d"}, "vout": 1, "txid": "c9270f6acf2d2d140340efcb46aca1e8f76b331a51a009dd10beff2067de4f8e"}, {"sequence": 4294967295, "scriptSig": {"hex": "473044022034dd67290376ca043052ab48eb94454f9cf8b99a382f8ddf8f2be8ae179e01850220359c9eeb0eccec5d48f4b72d97095f0606f994839fcdd614b594faa9d4179f1d012102c1dddaf91f2e1047a1dc82e6044c6915955882e28717475a6196a7d3f9ce9203", "asm": "3044022034dd67290376ca043052ab48eb94454f9cf8b99a382f8ddf8f2be8ae179e01850220359c9eeb0eccec5d48f4b72d97095f0606f994839fcdd614b594faa9d4179f1d[ALL] 02c1dddaf91f2e1047a1dc82e6044c6915955882e28717475a6196a7d3f9ce9203"}, "vout": 1, "txid": "cb55b7414730d75460b6f05a024d60578375a5ad5509de19b4b24528365576ba"}], "txid": "7c69f65d39c32902d5db9a249e4f012bf2f73a5a56648f3b4f33f0ba6be8f5aa", "blocktime": 1537874412, "version": 1, "confirmations": 11468, "time": 1537874412, "locktime": 0, "vsize": 666, "size": 666}