{"hash": "7c6cd48d299482143ac285556a3ec69a7a5bfc4e60d968ef89becb2868fead74", "blockhash": "0000000000000000001cda96e906b7601b7a6fb1a3b62bca570a9e5d8f4b3de1", "vout": [{"scriptPubKey": {"reqSigs": 1, "hex": "a914c86f0527228210cf62e253ebe0042fccc9ebd6a487", "addresses": ["3Kxp4ivQyoGK3QRMxPwUXD87Ciy1Kytyu8"], "asm": "OP_HASH160 c86f0527228210cf62e253ebe0042fccc9ebd6a4 OP_EQUAL", "type": "scripthash"}, "value": 0.0176534, "n": 0}], "hex": "010000000111e49f27c1d4022c8ade3854797f83f9d8f1920250bec76ba1cb039e2a5557a9000000006b483045022100b530aa522e0afcec43836b9c23904a8517dc27d291f8eed204070645e421b53e02207cc90db940167070b856128c22c0d615e13067b045624571478c9798e437a983012102d7f708a0f06a16998fc3290eab36fae743c9475ac16b345414a876e27ce98791ffffffff01dcef1a000000000017a914c86f0527228210cf62e253ebe0042fccc9ebd6a48700000000", "vin": [{"sequence": 4294967295, "scriptSig": {"hex": "483045022100b530aa522e0afcec43836b9c23904a8517dc27d291f8eed204070645e421b53e02207cc90db940167070b856128c22c0d615e13067b045624571478c9798e437a983012102d7f708a0f06a16998fc3290eab36fae743c9475ac16b345414a876e27ce98791", "asm": "3045022100b530aa522e0afcec43836b9c23904a8517dc27d291f8eed204070645e421b53e02207cc90db940167070b856128c22c0d615e13067b045624571478c9798e437a983[ALL] 02d7f708a0f06a16998fc3290eab36fae743c9475ac16b345414a876e27ce98791"}, "vout": 0, "txid": "a957552a9e03cba16bc7be500292f1d8f9837f795438de8a2c02d4c1279fe411"}], "txid": "7c6cd48d299482143ac285556a3ec69a7a5bfc4e60d968ef89becb2868fead74", "blocktime": 1537873282, "version": 1, "confirmations": 11481, "time": 1537873282, "locktime": 0, "vsize": 190, "size": 190}