{"hash": "f82a5bacddd26c2154d8255be10ff854270c3e1c1b139fdc0a1db1f0ef7a8dc1", "blockhash": "0000000000000000000e13cef7c366c0283d82e591d1acd082e914b08063cdf1", "vout": [{"scriptPubKey": {"reqSigs": 1, "hex": "a9142ecc17e0a0f39cfad71eef3dc9be4e6f85bf668287", "addresses": ["35xTW1wboWpdyMVboZUMA56TzTL98X8e5i"], "asm": "OP_HASH160 2ecc17e0a0f39cfad71eef3dc9be4e6f85bf6682 OP_EQUAL", "type": "scripthash"}, "value": 0.0100004, "n": 0}, {"scriptPubKey": {"reqSigs": 1, "hex": "a9146aa377d1965933002d32c1054616981af2e70da087", "addresses": ["3BQsNqU3JSD1xFFejTs7xQ56Dv3LyyZr8L"], "asm": "OP_HASH160 6aa377d1965933002d32c1054616981af2e70da0 OP_EQUAL", "type": "scripthash"}, "value": 0.00387137, "n": 1}], "hex": "0200000000010534887b9a9a0d042393268e8059f07181663931f98779895524bcabca7ef97fb500000000171600140ddd09c3f9939cb68378041522a3ac40fb0a765cfeffffff415f59cb72f4bc6364b476056b16229fb60b3399b42455856412d8040c56380901000000171600143e2228ae312fca990a6a50a93c9ce3afe5e492f0feffffff5737fa303db68538f01c26b2c9df9e4bd9a63a42efaf0b93ac5c2deb37285d95050000001716001490b6b2fb81bcb2429f9ca44a988844b2aacb6381feffffff70ccdd0dbd82f54227be5aaae04d48243016038b12e0ed3536f854e9ac7ffab500000000171600145ee2d6225d3414fa011a50358dec5e8640514a2efeffffffc0573cd0dd504e4dc23067406dee13ebd1961895ea53913032f35e31aa25b01400000000171600148d3a8667d12a26592030ff3487e0b4516b31c062feffffff0268420f000000000017a9142ecc17e0a0f39cfad71eef3dc9be4e6f85bf66828741e805000000000017a9146aa377d1965933002d32c1054616981af2e70da087024730440220239a3cea6bc9cb5755e82ca9cf06935220ee0448c2b8c3f18c79ee85fe9b3a5b02201956e5371e3a765c81a9f29d9937fa6846cd73153ce4870969ed542a65705cf40121033fbc138521aa111da616a590ebd883ef0a9ee5a5317f9a635b56f9bf54dcb66a02483045022100af34dda2125e0526827aaffd2482d6028c9ee795a43b1e60a85d0eeb4d6cfdd10220469b293d1e8921acdbb1076dca1fb1600797e33d7674d07eadb6f645c900de1e0121022c07bb133b4998a4f043795e493ff6caaa20a3f9fdec1e6038995cc28a8d7cde0247304402205b28810784795d54ab5cc7f4e629bb5420852058926f8e362e3a509ca2de0a07022039b8d8ea92be9c89eee9c1e3a63d79856ad743c5ac74da8510b13580f069b872012102b9030f6654b1594b8f85b00505842e6795db4fdee6b0d3a9ca3d09290008b8950247304402204a41eb9d432f186fab94e62bb1c422a469659e47c6bfc0a56a9b62355a311de902200fe4109ce0367d3e43cebcc6d64384a4ce36472d7868c79831f9d21d086eeaa00121030b48cae94d398f3de6a4fb81530490fb31a59e10ce41eb7a65d0a3b9da88f9480247304402201e9ae0dd0c0f096a4b1e01336440f26f97a0b3429aa4d929a1a348f88f54788802205750ec1e4184c9eacc37ff187751b98e5dd935b542c3b1df78614704a87ed289012103ae51d98032d4fcc37862619f35f4edb9a9c2c5e79ac1ca011408e60d3c919b4710490800", "vin": [{"txinwitness": ["30440220239a3cea6bc9cb5755e82ca9cf06935220ee0448c2b8c3f18c79ee85fe9b3a5b02201956e5371e3a765c81a9f29d9937fa6846cd73153ce4870969ed542a65705cf401", "033fbc138521aa111da616a590ebd883ef0a9ee5a5317f9a635b56f9bf54dcb66a"], "sequence": 4294967294, "scriptSig": {"hex": "1600140ddd09c3f9939cb68378041522a3ac40fb0a765c", "asm": "00140ddd09c3f9939cb68378041522a3ac40fb0a765c"}, "vout": 0, "txid": "b57ff97ecaabbc2455897987f93139668171f059808e269323040d9a9a7b8834"}, {"txinwitness": ["3045022100af34dda2125e0526827aaffd2482d6028c9ee795a43b1e60a85d0eeb4d6cfdd10220469b293d1e8921acdbb1076dca1fb1600797e33d7674d07eadb6f645c900de1e01", "022c07bb133b4998a4f043795e493ff6caaa20a3f9fdec1e6038995cc28a8d7cde"], "sequence": 4294967294, "scriptSig": {"hex": "1600143e2228ae312fca990a6a50a93c9ce3afe5e492f0", "asm": "00143e2228ae312fca990a6a50a93c9ce3afe5e492f0"}, "vout": 1, "txid": "0938560c04d81264855524b499330bb69f22166b0576b46463bcf472cb595f41"}, {"txinwitness": ["304402205b28810784795d54ab5cc7f4e629bb5420852058926f8e362e3a509ca2de0a07022039b8d8ea92be9c89eee9c1e3a63d79856ad743c5ac74da8510b13580f069b87201", "02b9030f6654b1594b8f85b00505842e6795db4fdee6b0d3a9ca3d09290008b895"], "sequence": 4294967294, "scriptSig": {"hex": "16001490b6b2fb81bcb2429f9ca44a988844b2aacb6381", "asm": "001490b6b2fb81bcb2429f9ca44a988844b2aacb6381"}, "vout": 5, "txid": "955d2837eb2d5cac930bafef423aa6d94b9edfc9b2261cf03885b63d30fa3757"}, {"txinwitness": ["304402204a41eb9d432f186fab94e62bb1c422a469659e47c6bfc0a56a9b62355a311de902200fe4109ce0367d3e43cebcc6d64384a4ce36472d7868c79831f9d21d086eeaa001", "030b48cae94d398f3de6a4fb81530490fb31a59e10ce41eb7a65d0a3b9da88f948"], "sequence": 4294967294, "scriptSig": {"hex": "1600145ee2d6225d3414fa011a50358dec5e8640514a2e", "asm": "00145ee2d6225d3414fa011a50358dec5e8640514a2e"}, "vout": 0, "txid": "b5fa7face954f83635ede0128b03163024484de0aa5abe2742f582bd0dddcc70"}, {"txinwitness": ["304402201e9ae0dd0c0f096a4b1e01336440f26f97a0b3429aa4d929a1a348f88f54788802205750ec1e4184c9eacc37ff187751b98e5dd935b542c3b1df78614704a87ed28901", "03ae51d98032d4fcc37862619f35f4edb9a9c2c5e79ac1ca011408e60d3c919b47"], "sequence": 4294967294, "scriptSig": {"hex": "1600148d3a8667d12a26592030ff3487e0b4516b31c062", "asm": "00148d3a8667d12a26592030ff3487e0b4516b31c062"}, "vout": 0, "txid": "14b025aa315ef332309153ea951896d1eb13ee6d406730c24d4e50ddd03c57c0"}], "txid": "7c70441c31cac5959c8d8b927ba630ac79b60d94143074051b47ae27cb61772d", "blocktime": 1537871767, "version": 2, "confirmations": 11495, "time": 1537871767, "locktime": 542992, "vsize": 529, "size": 932}