{"hash": "7c7761c4fbb95df5d9badab6638a430fb3677f36a2dca91cfbe6d3eaea448a29", "blockhash": "0000000000000000001e0dab787dd257d1dbfcb92a98c2207d5e1078be1f4165", "vout": [{"scriptPubKey": {"reqSigs": 1, "hex": "76a9142c2ff069a69bb3621fc6f3fc9195087a9e1d9cf788ac", "addresses": ["152eAJtbdSRBoM1QPeNrzuxB6CnffaCn9J"], "asm": "OP_DUP OP_HASH160 2c2ff069a69bb3621fc6f3fc9195087a9e1d9cf7 OP_EQUALVERIFY OP_CHECKSIG", "type": "pubkeyhash"}, "value": 0.00475877, "n": 0}], "hex": "0100000001cdd17a13e765dd8300d0f0aa841c1ae8e16fd1b5b5dd162bbe69e9385ab563dc000000006a47304402202742937ff38cda53219326334a2244a0c33951487ed0d446f2ec8add668eaf5202204bbb719f1a2171faae3d5dfdc2bdc9e964ac6bbf043d0acce59bc32f3ae332cc01210324944944526bb7e5d999811a9cbfb562ad77102943a885b7d307f0ee9332f241ffffffff01e5420700000000001976a9142c2ff069a69bb3621fc6f3fc9195087a9e1d9cf788ac00000000", "vin": [{"sequence": 4294967295, "scriptSig": {"hex": "47304402202742937ff38cda53219326334a2244a0c33951487ed0d446f2ec8add668eaf5202204bbb719f1a2171faae3d5dfdc2bdc9e964ac6bbf043d0acce59bc32f3ae332cc01210324944944526bb7e5d999811a9cbfb562ad77102943a885b7d307f0ee9332f241", "asm": "304402202742937ff38cda53219326334a2244a0c33951487ed0d446f2ec8add668eaf5202204bbb719f1a2171faae3d5dfdc2bdc9e964ac6bbf043d0acce59bc32f3ae332cc[ALL] 0324944944526bb7e5d999811a9cbfb562ad77102943a885b7d307f0ee9332f241"}, "vout": 0, "txid": "dc63b55a38e969be2b16ddb5b5d16fe1e81a1c84aaf0d00083dd65e7137ad1cd"}], "txid": "7c7761c4fbb95df5d9badab6638a430fb3677f36a2dca91cfbe6d3eaea448a29", "blocktime": 1537872475, "version": 1, "confirmations": 11487, "time": 1537872475, "locktime": 0, "vsize": 191, "size": 191}