{"hash": "7c7f29a944e6acb736f9bd33ba3bf87a7dd164a1bfd1ed3c660837637e9dddc6", "blockhash": "0000000000000000000dcc0f55137456b1a82d3642486a52398922ac4d620174", "vout": [{"scriptPubKey": {"reqSigs": 1, "hex": "76a9142d2c45974292fc827c2efc8786333b0bf79c166f88ac", "addresses": ["157rShEaGD3274UrLaXRQB3iEXpkPaGASE"], "asm": "OP_DUP OP_HASH160 2d2c45974292fc827c2efc8786333b0bf79c166f OP_EQUALVERIFY OP_CHECKSIG", "type": "pubkeyhash"}, "value": 0.0261, "n": 0}, {"scriptPubKey": {"reqSigs": 1, "hex": "76a9141bd5441538266fe744718b0ba32799b2535457e788ac", "addresses": ["13YAjA8Dsp82tADvetEtforR3utjQYf9dV"], "asm": "OP_DUP OP_HASH160 1bd5441538266fe744718b0ba32799b2535457e7 OP_EQUALVERIFY OP_CHECKSIG", "type": "pubkeyhash"}, "value": 0.15766394, "n": 1}], "hex": "0100000001fdc25b9910f3877d80891ba6d3bacee95642a2330479ffa0f60ac1e2aed2c50b010000006b483045022100a70d882dd6d1b234bcc64235eb2bffa539e234e9bc71b0233c3836816698c4c0022051681b616907d4315bf3196ff981217d38cc279ecae3b4419f234cdcce9fe960012103ff28b6a4d14f7a2fd2829f6ebf64e68a99136239aa3249d313216b7da855c4b6ffffffff0250d32700000000001976a9142d2c45974292fc827c2efc8786333b0bf79c166f88ac7a93f000000000001976a9141bd5441538266fe744718b0ba32799b2535457e788ac00000000", "vin": [{"sequence": 4294967295, "scriptSig": {"hex": "483045022100a70d882dd6d1b234bcc64235eb2bffa539e234e9bc71b0233c3836816698c4c0022051681b616907d4315bf3196ff981217d38cc279ecae3b4419f234cdcce9fe960012103ff28b6a4d14f7a2fd2829f6ebf64e68a99136239aa3249d313216b7da855c4b6", "asm": "3045022100a70d882dd6d1b234bcc64235eb2bffa539e234e9bc71b0233c3836816698c4c0022051681b616907d4315bf3196ff981217d38cc279ecae3b4419f234cdcce9fe960[ALL] 03ff28b6a4d14f7a2fd2829f6ebf64e68a99136239aa3249d313216b7da855c4b6"}, "vout": 1, "txid": "0bc5d2aee2c10af6a0ff790433a24256e9cebad3a61b89807d87f310995bc2fd"}], "txid": "7c7f29a944e6acb736f9bd33ba3bf87a7dd164a1bfd1ed3c660837637e9dddc6", "blocktime": 1537870268, "version": 1, "confirmations": 11518, "time": 1537870268, "locktime": 0, "vsize": 226, "size": 226}