{"hash": "7c8231076904b8281ac7ce10914b0e5e8eb6014c7b343b8bbead6c562367d287", "blockhash": "0000000000000000000e13cef7c366c0283d82e591d1acd082e914b08063cdf1", "vout": [{"scriptPubKey": {"reqSigs": 1, "hex": "76a914ada673f1db85aff86cddaaa51dd099d3b38e609488ac", "addresses": ["1GqBJYBK7JawVuZKdtdfgbjqYsc49Q1zPA"], "asm": "OP_DUP OP_HASH160 ada673f1db85aff86cddaaa51dd099d3b38e6094 OP_EQUALVERIFY OP_CHECKSIG", "type": "pubkeyhash"}, "value": 0.01562632, "n": 0}], "hex": "01000000023d7ba07274f8cb99856f44b1fc4071079ae8bb2db17c9fc6b0d3ce681bb00b88000000006b483045022100e9b6a5c82e360708af50a429171474c2f53b5e5af4feb7357a452daa20af0d5102204273aa54dd657a05c229d64159412d4349c5dc84610a326bc9de2008229b832d012102e334164660a0ba7c3d0db3ffea2c051e29cd425d05dfdc42d3ce5942f046d4f8ffffffff6433c9315b7728a39f543218ac856ecb654419a8bfc261082df01def5ff5fdac000000006a473044022015b81a9ca1ffcfc124574438213d74a8f50e35f9711fc76a6ac6b861348b9b65022004b4aebef29f29e0a41e505ed3563868120c999aed2a608cbba2b381eb7bf8eb0121037401b8ebe21f6cb4f9728661b09ffa1dab99d9a10d0c4acf113425b4eeb20aa9ffffffff0108d81700000000001976a914ada673f1db85aff86cddaaa51dd099d3b38e609488ac00000000", "vin": [{"sequence": 4294967295, "scriptSig": {"hex": "483045022100e9b6a5c82e360708af50a429171474c2f53b5e5af4feb7357a452daa20af0d5102204273aa54dd657a05c229d64159412d4349c5dc84610a326bc9de2008229b832d012102e334164660a0ba7c3d0db3ffea2c051e29cd425d05dfdc42d3ce5942f046d4f8", "asm": "3045022100e9b6a5c82e360708af50a429171474c2f53b5e5af4feb7357a452daa20af0d5102204273aa54dd657a05c229d64159412d4349c5dc84610a326bc9de2008229b832d[ALL] 02e334164660a0ba7c3d0db3ffea2c051e29cd425d05dfdc42d3ce5942f046d4f8"}, "vout": 0, "txid": "880bb01b68ced3b0c69f7cb12dbbe89a077140fcb1446f8599cbf87472a07b3d"}, {"sequence": 4294967295, "scriptSig": {"hex": "473044022015b81a9ca1ffcfc124574438213d74a8f50e35f9711fc76a6ac6b861348b9b65022004b4aebef29f29e0a41e505ed3563868120c999aed2a608cbba2b381eb7bf8eb0121037401b8ebe21f6cb4f9728661b09ffa1dab99d9a10d0c4acf113425b4eeb20aa9", "asm": "3044022015b81a9ca1ffcfc124574438213d74a8f50e35f9711fc76a6ac6b861348b9b65022004b4aebef29f29e0a41e505ed3563868120c999aed2a608cbba2b381eb7bf8eb[ALL] 037401b8ebe21f6cb4f9728661b09ffa1dab99d9a10d0c4acf113425b4eeb20aa9"}, "vout": 0, "txid": "acfdf55fef1df02d0861c2bfa8194465cb6e85ac1832549fa328775b31c93364"}], "txid": "7c8231076904b8281ac7ce10914b0e5e8eb6014c7b343b8bbead6c562367d287", "blocktime": 1537871767, "version": 1, "confirmations": 11495, "time": 1537871767, "locktime": 0, "vsize": 339, "size": 339}