{"hash": "7c837116ed8c086cd4d6df36fbeee5a0324472458102b1ea1d6db17494179016", "blockhash": "0000000000000000001f0ddff1eddb255c1121bcd4da4f1bc9a0da00cae72433", "vout": [{"scriptPubKey": {"reqSigs": 1, "hex": "76a914f4e592e22050b1cb2148c7ec357f3a52ad5f227688ac", "addresses": ["1PKttsY68mCzf2FzgRXoN7N5Y7T3ZaxcMp"], "asm": "OP_DUP OP_HASH160 f4e592e22050b1cb2148c7ec357f3a52ad5f2276 OP_EQUALVERIFY OP_CHECKSIG", "type": "pubkeyhash"}, "value": 0.039119, "n": 0}, {"scriptPubKey": {"reqSigs": 1, "hex": "76a914bae07ef7d9b0e32584c14bdb4e1920011abc18be88ac", "addresses": ["1J37cwAXkMQPc1QfTAAgwGBpZ6eTpALnkK"], "asm": "OP_DUP OP_HASH160 bae07ef7d9b0e32584c14bdb4e1920011abc18be OP_EQUALVERIFY OP_CHECKSIG", "type": "pubkeyhash"}, "value": 8.117e-05, "n": 1}], "hex": "01000000018a36b923e003bd5dba6a3810e66165e087d1a729a772d300cc5a9a47a3b3242c010000006b483045022100caf656502af4b25c11eafb2e15b121f65f8170b4eee45b58a71e598e2a5b90260220218527709d8aeb573bfe69c54413f0e9675a55e7206f3a562b1946f30ea63454012103bacb86897eaa82ec9daab94ece434fa6152043da54bf61e1d5b8be222f39c32fffffffff02dcb03b00000000001976a914f4e592e22050b1cb2148c7ec357f3a52ad5f227688acb51f0000000000001976a914bae07ef7d9b0e32584c14bdb4e1920011abc18be88ac00000000", "vin": [{"sequence": 4294967295, "scriptSig": {"hex": "483045022100caf656502af4b25c11eafb2e15b121f65f8170b4eee45b58a71e598e2a5b90260220218527709d8aeb573bfe69c54413f0e9675a55e7206f3a562b1946f30ea63454012103bacb86897eaa82ec9daab94ece434fa6152043da54bf61e1d5b8be222f39c32f", "asm": "3045022100caf656502af4b25c11eafb2e15b121f65f8170b4eee45b58a71e598e2a5b90260220218527709d8aeb573bfe69c54413f0e9675a55e7206f3a562b1946f30ea63454[ALL] 03bacb86897eaa82ec9daab94ece434fa6152043da54bf61e1d5b8be222f39c32f"}, "vout": 1, "txid": "2c24b3a3479a5acc00d372a729a7d187e06561e610386aba5dbd03e023b9368a"}], "txid": "7c837116ed8c086cd4d6df36fbeee5a0324472458102b1ea1d6db17494179016", "blocktime": 1537872018, "version": 1, "confirmations": 11489, "time": 1537872018, "locktime": 0, "vsize": 226, "size": 226}