{"hash": "d7ea8e986071282c091d24516e978fbcf9d75d906866cd65ffaa307c65511bd1", "blockhash": "0000000000000000001cda96e906b7601b7a6fb1a3b62bca570a9e5d8f4b3de1", "vout": [{"scriptPubKey": {"reqSigs": 1, "hex": "0014f884350466ca577d544f5f289efe3b2d30ef78ad", "addresses": ["bc1qlzzr2prxefth64z0tu5fal3m95cw779dxcy8w5"], "asm": "0 f884350466ca577d544f5f289efe3b2d30ef78ad", "type": "witness_v0_keyhash"}, "value": 1.048e-05, "n": 0}, {"scriptPubKey": {"reqSigs": 1, "hex": "a914ea0429502d21b5305e96e6b8d49d39fd2d61925387", "addresses": ["3P2P2a14BxkMs2WKvjePvoPLYu62Qg6xmP"], "asm": "OP_HASH160 ea0429502d21b5305e96e6b8d49d39fd2d619253 OP_EQUAL", "type": "scripthash"}, "value": 0.000386, "n": 1}], "hex": "01000000000101ce4a849726061d14adbcba993e2869d0466c7be6ef46abb9670de4fd1bb79d560000000000ffffffff021804000000000000160014f884350466ca577d544f5f289efe3b2d30ef78adc89600000000000017a914ea0429502d21b5305e96e6b8d49d39fd2d6192538702483045022100e36126450a218f6a25a92d61a7681b8b9ba489b56d74aa73e3f3b18c2b76d4f902204ac652890bde7713683053b8888dd6bd1cf97512d2f843ec071a1dc35b9a92780121029683dd18be6042a9d03440e890be7c083adc4d82edf4ddfa31787dbc92edefc300000000", "vin": [{"txinwitness": ["3045022100e36126450a218f6a25a92d61a7681b8b9ba489b56d74aa73e3f3b18c2b76d4f902204ac652890bde7713683053b8888dd6bd1cf97512d2f843ec071a1dc35b9a927801", "029683dd18be6042a9d03440e890be7c083adc4d82edf4ddfa31787dbc92edefc3"], "sequence": 4294967295, "scriptSig": {"hex": "", "asm": ""}, "vout": 0, "txid": "569db71bfde40d67b9ab46efe67b6c46d069283e99babcad141d062697844ace"}], "txid": "7c855ef281279fda47e8a89a9b7d5f188286a01fc4a09663db63701e24330692", "blocktime": 1537873282, "version": 1, "confirmations": 11484, "time": 1537873282, "locktime": 0, "vsize": 142, "size": 224}