{"hash": "4d2658aff2b4f4423320429983ec680d974b389cf642ec8c4a27a5ea2e3e2ddf", "blockhash": "0000000000000000001f0ddff1eddb255c1121bcd4da4f1bc9a0da00cae72433", "vout": [{"scriptPubKey": {"reqSigs": 1, "hex": "a914e8ab454244270d4f88428ab2a30dc7f0510697a487", "addresses": ["3NuFs8k6vfLRv8GgYoS7HP1wJp5DyNaiUR"], "asm": "OP_HASH160 e8ab454244270d4f88428ab2a30dc7f0510697a4 OP_EQUAL", "type": "scripthash"}, "value": 0.01096269, "n": 0}, {"scriptPubKey": {"reqSigs": 1, "hex": "a9149f205975f6d13e5bd8480e0b756b66efbd40a05287", "addresses": ["3GCQ7iyBdN2cabtZjUGEqQMESfRGGFTpd8"], "asm": "OP_HASH160 9f205975f6d13e5bd8480e0b756b66efbd40a052 OP_EQUAL", "type": "scripthash"}, "value": 0.00234, "n": 1}], "hex": "02000000000101c11bed9ddc09ba605ef504dbcfd961e7d63b25c898e2daa932ac727d3f80a1ab01000000171600144246796ea0aec6bd2f7d5256391ccf6b2fb4b987feffffff024dba10000000000017a914e8ab454244270d4f88428ab2a30dc7f0510697a487109203000000000017a9149f205975f6d13e5bd8480e0b756b66efbd40a0528702483045022100a70f3fa02f733db2102fa3cb09b01e84693684baf2d6347379f617fb591e655b02200a11bfe5ccb73b2fee12053b25e0dfd8487aa72577033173908aa89efe94995a012103fd92c66b7b93e9dde2ca334e334f65b5f0a12f82b46e2894a86b8eed9d3e558910490800", "vin": [{"txinwitness": ["3045022100a70f3fa02f733db2102fa3cb09b01e84693684baf2d6347379f617fb591e655b02200a11bfe5ccb73b2fee12053b25e0dfd8487aa72577033173908aa89efe94995a01", "03fd92c66b7b93e9dde2ca334e334f65b5f0a12f82b46e2894a86b8eed9d3e5589"], "sequence": 4294967294, "scriptSig": {"hex": "1600144246796ea0aec6bd2f7d5256391ccf6b2fb4b987", "asm": "00144246796ea0aec6bd2f7d5256391ccf6b2fb4b987"}, "vout": 1, "txid": "aba1803f7d72ac32a9dae298c8253bd6e761d9cfdb04f55e60ba09dc9ded1bc1"}], "txid": "7c870e810884ef1b4a0db4ca6eaadf84afcbca14553cdc44bfe17974f051ac59", "blocktime": 1537872018, "version": 2, "confirmations": 11489, "time": 1537872018, "locktime": 542992, "vsize": 166, "size": 248}