{"hash": "7c8ee55e275f691ea53fc4c38ae2ae8cd6d0bee32ec21b7b0e939ab349e3b9bd", "blockhash": "00000000000000000018f53835495a110e01622372bf6ae95dc86f2b0ab887b0", "vout": [{"scriptPubKey": {"reqSigs": 1, "hex": "a914a49726f57542997ce4027ff41d02a5bbec45fe0187", "addresses": ["3GhHpEyRRDMxpohvL3M5khAU1TYqJ9UuZP"], "asm": "OP_HASH160 a49726f57542997ce4027ff41d02a5bbec45fe01 OP_EQUAL", "type": "scripthash"}, "value": 0.018, "n": 0}, {"scriptPubKey": {"reqSigs": 1, "hex": "76a914e192ca0a037d30709c39b29c4f349cf0741db73c88ac", "addresses": ["1MZitFov2fNZPSMp3hCY3n43WXaCeUmgU5"], "asm": "OP_DUP OP_HASH160 e192ca0a037d30709c39b29c4f349cf0741db73c OP_EQUALVERIFY OP_CHECKSIG", "type": "pubkeyhash"}, "value": 59.8519198, "n": 1}], "hex": "0100000001c41278040cda089906cf4a052805e0e59722eb4fb315e9d32010c49d7b6494ce000000006b483045022100ccd4f61496a6fe970c5d52bc88ea6bec7f310d35216cf70959388ee1678397220220525f68f881b250d55d9902f7fe2de0028eaf67370f26a6f47b0146c3153768ab012102a3155033d1151053090e7939a9a317d6c345406f67123382d699f81e850e6708ffffffff0240771b000000000017a914a49726f57542997ce4027ff41d02a5bbec45fe01872cc8be64010000001976a914e192ca0a037d30709c39b29c4f349cf0741db73c88ac00000000", "vin": [{"sequence": 4294967295, "scriptSig": {"hex": "483045022100ccd4f61496a6fe970c5d52bc88ea6bec7f310d35216cf70959388ee1678397220220525f68f881b250d55d9902f7fe2de0028eaf67370f26a6f47b0146c3153768ab012102a3155033d1151053090e7939a9a317d6c345406f67123382d699f81e850e6708", "asm": "3045022100ccd4f61496a6fe970c5d52bc88ea6bec7f310d35216cf70959388ee1678397220220525f68f881b250d55d9902f7fe2de0028eaf67370f26a6f47b0146c3153768ab[ALL] 02a3155033d1151053090e7939a9a317d6c345406f67123382d699f81e850e6708"}, "vout": 0, "txid": "ce94647b9dc41020d3e915b34feb2297e5e00528054acf069908da0c047812c4"}], "txid": "7c8ee55e275f691ea53fc4c38ae2ae8cd6d0bee32ec21b7b0e939ab349e3b9bd", "blocktime": 1537870928, "version": 1, "confirmations": 11512, "time": 1537870928, "locktime": 0, "vsize": 224, "size": 224}