{"hash": "7c958f83e9a946ef8fc23ae6d52f576c4d54d9609dd14919881358c72a8558e8", "blockhash": "00000000000000000024a2167bbff67b0be802c0b01cdd79e6331c2be6459f87", "vout": [{"scriptPubKey": {"reqSigs": 1, "hex": "76a914242f57abc57add4d55e5dcff398174c1ab01d76788ac", "addresses": ["14JL3KSoWm44LMzSFjAdAb3dV68yN4kgcq"], "asm": "OP_DUP OP_HASH160 242f57abc57add4d55e5dcff398174c1ab01d767 OP_EQUALVERIFY OP_CHECKSIG", "type": "pubkeyhash"}, "value": 0.00645309, "n": 0}, {"scriptPubKey": {"type": "nulldata", "hex": "6a4c500000777b0001964f2c680e7d576e9683a0f5bcbefa6b8351586b4e86aeaeacb577c031fcdc9390c47f37d723e84212e59a02b5255baa09ec0614bb3b86f21dff1d100759d4ba30d2c37bb011d97e02cf", "asm": "OP_RETURN 0000777b0001964f2c680e7d576e9683a0f5bcbefa6b8351586b4e86aeaeacb577c031fcdc9390c47f37d723e84212e59a02b5255baa09ec0614bb3b86f21dff1d100759d4ba30d2c37bb011d97e02cf"}, "value": 0.0, "n": 1}], "hex": "0100000001b4369a84eb368fa7703d81c7abae11414347bfdbb2bfb0ea80d09ccd3545bd11000000006b48304502210088e45a003a64f5787e685a2b8cd15c257ca2c83a0409a867873d6d05160598ec022064e304945313ec100c282273384887d929b3bec6d85db44183e3904c64f94dc0012102857f9e4434fbcf5bcbccb81cf3b80444a0e12eada3c16ec319b010f815ce274affffffff02bdd80900000000001976a914242f57abc57add4d55e5dcff398174c1ab01d76788ac0000000000000000536a4c500000777b0001964f2c680e7d576e9683a0f5bcbefa6b8351586b4e86aeaeacb577c031fcdc9390c47f37d723e84212e59a02b5255baa09ec0614bb3b86f21dff1d100759d4ba30d2c37bb011d97e02cf00000000", "vin": [{"sequence": 4294967295, "scriptSig": {"hex": "48304502210088e45a003a64f5787e685a2b8cd15c257ca2c83a0409a867873d6d05160598ec022064e304945313ec100c282273384887d929b3bec6d85db44183e3904c64f94dc0012102857f9e4434fbcf5bcbccb81cf3b80444a0e12eada3c16ec319b010f815ce274a", "asm": "304502210088e45a003a64f5787e685a2b8cd15c257ca2c83a0409a867873d6d05160598ec022064e304945313ec100c282273384887d929b3bec6d85db44183e3904c64f94dc0[ALL] 02857f9e4434fbcf5bcbccb81cf3b80444a0e12eada3c16ec319b010f815ce274a"}, "vout": 0, "txid": "11bd4535cd9cd080eab0bfb2dbbf47434111aeabc7813d70a78f36eb849a36b4"}], "txid": "7c958f83e9a946ef8fc23ae6d52f576c4d54d9609dd14919881358c72a8558e8", "blocktime": 1537870564, "version": 1, "confirmations": 11515, "time": 1537870564, "locktime": 0, "vsize": 284, "size": 284}