{"hash": "7c9f0b036af6d3d38d19f59367766f4564980ab5bc43b2ae0595cd8e168e1b38", "blockhash": "0000000000000000000e13cef7c366c0283d82e591d1acd082e914b08063cdf1", "vout": [{"scriptPubKey": {"reqSigs": 1, "hex": "76a914d243e6abb9a60fbff430b421d2df4b7d59ec186088ac", "addresses": ["1LAnF8h3qMGx3TSwNUHVneBZUEpwE4gu3D"], "asm": "OP_DUP OP_HASH160 d243e6abb9a60fbff430b421d2df4b7d59ec1860 OP_EQUALVERIFY OP_CHECKSIG", "type": "pubkeyhash"}, "value": 0.00076972, "n": 0}, {"scriptPubKey": {"reqSigs": 1, "hex": "76a9143851f34d13937b673a7d24a1950bb5b21ce94af388ac", "addresses": ["168o1kqNquEJeR9vosUB5fw4eAwcVAgh8P"], "asm": "OP_DUP OP_HASH160 3851f34d13937b673a7d24a1950bb5b21ce94af3 OP_EQUALVERIFY OP_CHECKSIG", "type": "pubkeyhash"}, "value": 5.46e-06, "n": 1}, {"scriptPubKey": {"type": "nulldata", "hex": "6a146f6d6e69000000000000001f0000000db168a4c0", "asm": "OP_RETURN 6f6d6e69000000000000001f0000000db168a4c0"}, "value": 0.0, "n": 2}], "hex": "01000000024e7d59b5380b867cce13eacd190ddfb257dce6198838f7035fffb658fc750b59000000006a47304402205df3e4e8571ab89d06b4a6f41fad1c3fe828dbecfa01d501447456a54ad3e70c022010a3e60114874350e6c26ef5fc94247b808c1a33e32a60f93afe516b14062cdf012103ef024f898d524275ce09f7a10d4b32954a2935258723be506791f0dd7eef0957fffffffff5c0c29c59b9c73d11322c40c8d800dd16df9aaf6c6ce4aa6b5326a7dd01689b000000006a47304402207b670a7325fe4413f7aed3f5adf9762c7c83e4e74dc97d96f649a91ff3aa3eb70220233a542f3a86d5217687a21b5d0b12c573c0fb0215e9c2fbe6a563f8cb5338f401210271977291b74f1f5f5c42157e8aae804664eaaeccfd097918450d37f28fb94d77ffffffff03ac2c0100000000001976a914d243e6abb9a60fbff430b421d2df4b7d59ec186088ac22020000000000001976a9143851f34d13937b673a7d24a1950bb5b21ce94af388ac0000000000000000166a146f6d6e69000000000000001f0000000db168a4c000000000", "vin": [{"sequence": 4294967295, "scriptSig": {"hex": "47304402205df3e4e8571ab89d06b4a6f41fad1c3fe828dbecfa01d501447456a54ad3e70c022010a3e60114874350e6c26ef5fc94247b808c1a33e32a60f93afe516b14062cdf012103ef024f898d524275ce09f7a10d4b32954a2935258723be506791f0dd7eef0957", "asm": "304402205df3e4e8571ab89d06b4a6f41fad1c3fe828dbecfa01d501447456a54ad3e70c022010a3e60114874350e6c26ef5fc94247b808c1a33e32a60f93afe516b14062cdf[ALL] 03ef024f898d524275ce09f7a10d4b32954a2935258723be506791f0dd7eef0957"}, "vout": 0, "txid": "590b75fc58b6ff5f03f7388819e6dc57b2df0d19cdea13ce7c860b38b5597d4e"}, {"sequence": 4294967295, "scriptSig": {"hex": "47304402207b670a7325fe4413f7aed3f5adf9762c7c83e4e74dc97d96f649a91ff3aa3eb70220233a542f3a86d5217687a21b5d0b12c573c0fb0215e9c2fbe6a563f8cb5338f401210271977291b74f1f5f5c42157e8aae804664eaaeccfd097918450d37f28fb94d77", "asm": "304402207b670a7325fe4413f7aed3f5adf9762c7c83e4e74dc97d96f649a91ff3aa3eb70220233a542f3a86d5217687a21b5d0b12c573c0fb0215e9c2fbe6a563f8cb5338f4[ALL] 0271977291b74f1f5f5c42157e8aae804664eaaeccfd097918450d37f28fb94d77"}, "vout": 0, "txid": "9b6801dda726536baae46c6caf9adf16dd00d8c8402c32113dc7b9599cc2c0f5"}], "txid": "7c9f0b036af6d3d38d19f59367766f4564980ab5bc43b2ae0595cd8e168e1b38", "blocktime": 1537871767, "version": 1, "confirmations": 11491, "time": 1537871767, "locktime": 0, "vsize": 403, "size": 403}