{"hash": "7ca24a236cec96e12d733801a1d52e8b0ad5b07fd99a3d1188b7e89c3b0afa00", "blockhash": "000000000000000000022b45ed06c6f4ccd3cf7fb5ba4856ebd2e58215665228", "vout": [{"scriptPubKey": {"reqSigs": 1, "hex": "76a91430c62e135898e1e887297e1d11de33bfd111a25c88ac", "addresses": ["15StqzgMoKYqufWkTUzQs9fPHAeB4uomNp"], "asm": "OP_DUP OP_HASH160 30c62e135898e1e887297e1d11de33bfd111a25c OP_EQUALVERIFY OP_CHECKSIG", "type": "pubkeyhash"}, "value": 0.00495, "n": 0}, {"scriptPubKey": {"type": "nulldata", "hex": "6a146f6d6e69000000000000001f00000016187b1500", "asm": "OP_RETURN 6f6d6e69000000000000001f00000016187b1500"}, "value": 0.0, "n": 1}, {"scriptPubKey": {"reqSigs": 1, "hex": "76a914a25dec4d0011064ef106a983c39c7a540699f22088ac", "addresses": ["1FoWyxwPXuj4C6abqwhjDWdz6D4PZgYRjA"], "asm": "OP_DUP OP_HASH160 a25dec4d0011064ef106a983c39c7a540699f220 OP_EQUALVERIFY OP_CHECKSIG", "type": "pubkeyhash"}, "value": 5.46e-06, "n": 2}], "hex": "01000000013cd3e837b6045e0b1fbedf4b4bf0ca34471ac37190a3ccb841626ee867c9435a020000006a47304402202088d8f082f63403c1c2a455c32f6da564ef3305dae14fd3252741780461f0d302203580a82780f17ec11b3d88907e34535657fe8b26f60db49f517119db4bf335ec01210363ce8e7892991b8d44a2e118772934771792fc3453e66deabfb4e6a653faa39efeffffff03988d0700000000001976a91430c62e135898e1e887297e1d11de33bfd111a25c88ac0000000000000000166a146f6d6e69000000000000001f00000016187b150022020000000000001976a914a25dec4d0011064ef106a983c39c7a540699f22088ac0b490800", "vin": [{"sequence": 4294967294, "scriptSig": {"hex": "47304402202088d8f082f63403c1c2a455c32f6da564ef3305dae14fd3252741780461f0d302203580a82780f17ec11b3d88907e34535657fe8b26f60db49f517119db4bf335ec01210363ce8e7892991b8d44a2e118772934771792fc3453e66deabfb4e6a653faa39e", "asm": "304402202088d8f082f63403c1c2a455c32f6da564ef3305dae14fd3252741780461f0d302203580a82780f17ec11b3d88907e34535657fe8b26f60db49f517119db4bf335ec[ALL] 0363ce8e7892991b8d44a2e118772934771792fc3453e66deabfb4e6a653faa39e"}, "vout": 2, "txid": "5a43c967e86e6241b8cca39071c31a4734caf04b4bdfbe1f0b5e04b637e8d33c"}], "txid": "7ca24a236cec96e12d733801a1d52e8b0ad5b07fd99a3d1188b7e89c3b0afa00", "blocktime": 1537869901, "version": 1, "confirmations": 11524, "time": 1537869901, "locktime": 542987, "vsize": 256, "size": 256}