{"hash": "5b9fa2064e3175b71f2667d279604be4d627b8e62b95ff61b865cc7e82fb8573", "blockhash": "0000000000000000001cda96e906b7601b7a6fb1a3b62bca570a9e5d8f4b3de1", "vout": [{"scriptPubKey": {"reqSigs": 1, "hex": "76a914d01037db19606ca30550fcfb5782d6c4cb7d5ecb88ac", "addresses": ["1Ky8ym61kZZ43zXKHfEWbfXZr7VQpNUoNc"], "asm": "OP_DUP OP_HASH160 d01037db19606ca30550fcfb5782d6c4cb7d5ecb OP_EQUALVERIFY OP_CHECKSIG", "type": "pubkeyhash"}, "value": 0.01377001, "n": 0}, {"scriptPubKey": {"reqSigs": 1, "hex": "a9140155874553c527f049c0ae3d5a778b0e04e347bb87", "addresses": ["31p54MS7MSBGATPf7L9k6okpqGURCLuP5X"], "asm": "OP_HASH160 0155874553c527f049c0ae3d5a778b0e04e347bb OP_EQUAL", "type": "scripthash"}, "value": 0.29771136, "n": 1}], "hex": "010000000001011deabce7b245399ddfeff45e218cd2edcba8187070e66b99953f48b7f15c01ab0100000023220020ead9813ef71a14a1fc550cfb5c5dd853d1e6bbccfde25f8f3c1124c6b47fda22ffffffff02e9021500000000001976a914d01037db19606ca30550fcfb5782d6c4cb7d5ecb88ac8045c6010000000017a9140155874553c527f049c0ae3d5a778b0e04e347bb870400483045022100c26e15aa4323ff7a90310817b88bb6f04a6c095fc12d7f8fe8921ca74c7b5bf602207e1e978a5c2ee189498f44e7f76fc6483ca197d52fcbda420d3c28a62cffaa1501483045022100abef1ca7fefa5d581a5053dcd7a57086039272bbb3a79062c4a7041d4e4c9c0d0220102dfd39778847a442b09c37e1cb56c6c586f205af128960400661c4e953a4dc0147522103baf82ab85653fe1a4c26c826d6e71ff0f794cef0ba8d4b9c350b7cd8a099295c210374d34c43195a03910cd16cba2c089b5a40de35ab5857ec656bdacade80fb67c052ae00000000", "vin": [{"txinwitness": ["", "3045022100c26e15aa4323ff7a90310817b88bb6f04a6c095fc12d7f8fe8921ca74c7b5bf602207e1e978a5c2ee189498f44e7f76fc6483ca197d52fcbda420d3c28a62cffaa1501", "3045022100abef1ca7fefa5d581a5053dcd7a57086039272bbb3a79062c4a7041d4e4c9c0d0220102dfd39778847a442b09c37e1cb56c6c586f205af128960400661c4e953a4dc01", "522103baf82ab85653fe1a4c26c826d6e71ff0f794cef0ba8d4b9c350b7cd8a099295c210374d34c43195a03910cd16cba2c089b5a40de35ab5857ec656bdacade80fb67c052ae"], "sequence": 4294967295, "scriptSig": {"hex": "220020ead9813ef71a14a1fc550cfb5c5dd853d1e6bbccfde25f8f3c1124c6b47fda22", "asm": "0020ead9813ef71a14a1fc550cfb5c5dd853d1e6bbccfde25f8f3c1124c6b47fda22"}, "vout": 1, "txid": "ab015cf1b7483f95996be6707018a8cbedd28c215ef4efdf9d3945b2e7bcea1d"}], "txid": "7ca39535db8729915465b81aa07ffa74b1708acfb2ff61dafd319afa4b13eca9", "blocktime": 1537873282, "version": 1, "confirmations": 11484, "time": 1537873282, "locktime": 0, "vsize": 208, "size": 374}