{"hash": "6881388886179c81f70faecd1cf8e16df2d26229b8a0d33228ba1500504fca9f", "blockhash": "0000000000000000000e13cef7c366c0283d82e591d1acd082e914b08063cdf1", "vout": [{"scriptPubKey": {"reqSigs": 1, "hex": "a914156f3a980a321a86b80fe91e08ac426cee31b5a387", "addresses": ["33eMMtbfVduxpcmgeXrsBnN76sK9Ej4rJR"], "asm": "OP_HASH160 156f3a980a321a86b80fe91e08ac426cee31b5a3 OP_EQUAL", "type": "scripthash"}, "value": 0.01332884, "n": 0}, {"scriptPubKey": {"reqSigs": 1, "hex": "a9145c04c4506a1629cf0f39abd80807f5a26bdcc70987", "addresses": ["3A5ZoQ5wfnWWXUmky8TRyuhRWGDUaqiCLf"], "asm": "OP_HASH160 5c04c4506a1629cf0f39abd80807f5a26bdcc709 OP_EQUAL", "type": "scripthash"}, "value": 0.01121859, "n": 1}, {"scriptPubKey": {"reqSigs": 1, "hex": "76a914862872d228e24e5b34b2f5a0f8973669177284aa88ac", "addresses": ["1DEN17pq1pjKqCbYwApuZWAuS7n6WDBrdx"], "asm": "OP_DUP OP_HASH160 862872d228e24e5b34b2f5a0f8973669177284aa OP_EQUALVERIFY OP_CHECKSIG", "type": "pubkeyhash"}, "value": 0.0148818, "n": 2}, {"scriptPubKey": {"reqSigs": 1, "hex": "76a914392498d4b7ddf31d37ec74c203a06deaf9a564df88ac", "addresses": ["16D9MjpFAsqYcZghQYz8Komw912WQT5azR"], "asm": "OP_DUP OP_HASH160 392498d4b7ddf31d37ec74c203a06deaf9a564df OP_EQUALVERIFY OP_CHECKSIG", "type": "pubkeyhash"}, "value": 0.16527934, "n": 3}, {"scriptPubKey": {"reqSigs": 1, "hex": "76a914d773d6caf60ab57fec673d792a84af2778d4f3f088ac", "addresses": ["1LeD3t5rvD7mL8WJ4BCRCtJvCKP2sud4S5"], "asm": "OP_DUP OP_HASH160 d773d6caf60ab57fec673d792a84af2778d4f3f0 OP_EQUALVERIFY OP_CHECKSIG", "type": "pubkeyhash"}, "value": 0.022897, "n": 4}, {"scriptPubKey": {"reqSigs": 1, "hex": "76a914b169b5a24d1d44d32a77145532254ad6009ae78c88ac", "addresses": ["1HB5EnCj4rVCDUoTha5tcpPdnny9D2ho6y"], "asm": "OP_DUP OP_HASH160 b169b5a24d1d44d32a77145532254ad6009ae78c OP_EQUALVERIFY OP_CHECKSIG", "type": "pubkeyhash"}, "value": 0.02403594, "n": 5}, {"scriptPubKey": {"reqSigs": 1, "hex": "76a9144ef08f61f160525a870d129d568568215a7eb2b288ac", "addresses": ["18CPtNW8GFfVSyrtheNeMbbTWHmSEzStWQ"], "asm": "OP_DUP OP_HASH160 4ef08f61f160525a870d129d568568215a7eb2b2 OP_EQUALVERIFY OP_CHECKSIG", "type": "pubkeyhash"}, "value": 0.02620209, "n": 6}, {"scriptPubKey": {"reqSigs": 1, "hex": "a9143cf8bfb947b249c634ce452e2080b67c4ab2e12887", "addresses": ["37FQTRzACeC2Se7pgXN1WJH7YA75QsHNXJ"], "asm": "OP_HASH160 3cf8bfb947b249c634ce452e2080b67c4ab2e128 OP_EQUAL", "type": "scripthash"}, "value": 0.01599531, "n": 7}], "hex": "020000000001014638e98182e91158aa7764a3846b26b3632db218a6e5abe2841a8e76fcbb3092020000001716001408252a4f60bea213aa3fc4dba2f2993664f75faffdffffff08945614000000000017a914156f3a980a321a86b80fe91e08ac426cee31b5a387431e11000000000017a9145c04c4506a1629cf0f39abd80807f5a26bdcc7098734b51600000000001976a914862872d228e24e5b34b2f5a0f8973669177284aa88ac3e32fc00000000001976a914392498d4b7ddf31d37ec74c203a06deaf9a564df88ac24f02200000000001976a914d773d6caf60ab57fec673d792a84af2778d4f3f088ac0aad2400000000001976a914b169b5a24d1d44d32a77145532254ad6009ae78c88ac31fb2700000000001976a9144ef08f61f160525a870d129d568568215a7eb2b288ac2b6818000000000017a9143cf8bfb947b249c634ce452e2080b67c4ab2e1288702483045022100bd5fbf0efc52465f3953ab568a5b63e76d96adc677a76cb8b6a98b7e8382214e022033c792728b6b76ece4bb8f2cbb072b3a9599afb55811a83492f4deff816d1cc6012103f2cb5adb168d38a6dadfad9a4b2561022688477fbd8b86a423756853b57bb56e01000000", "vin": [{"txinwitness": ["3045022100bd5fbf0efc52465f3953ab568a5b63e76d96adc677a76cb8b6a98b7e8382214e022033c792728b6b76ece4bb8f2cbb072b3a9599afb55811a83492f4deff816d1cc601", "03f2cb5adb168d38a6dadfad9a4b2561022688477fbd8b86a423756853b57bb56e"], "sequence": 4294967293, "scriptSig": {"hex": "16001408252a4f60bea213aa3fc4dba2f2993664f75faf", "asm": "001408252a4f60bea213aa3fc4dba2f2993664f75faf"}, "vout": 2, "txid": "9230bbfc768e1a84e2abe5a618b22d63b3266b84a36477aa5811e98281e93846"}], "txid": "7ca6942fdab64d17a16b36769c5dbb02fb85d7614d70a94871a89644a5fd0135", "blocktime": 1537871767, "version": 2, "confirmations": 11490, "time": 1537871767, "locktime": 1, "vsize": 368, "size": 450}