{"hash": "9f62622f60a7d2ae91f6d4475448fac223aa3804866afada31624e884e057c36", "blockhash": "0000000000000000001e0dab787dd257d1dbfcb92a98c2207d5e1078be1f4165", "vout": [{"scriptPubKey": {"reqSigs": 1, "hex": "76a914b37410e7366e0bf24d88e2f59e90b58cb1095f0888ac", "addresses": ["1HMrzkJjYKptgKvoUgUfo4JS8G7DNcPHQR"], "asm": "OP_DUP OP_HASH160 b37410e7366e0bf24d88e2f59e90b58cb1095f08 OP_EQUALVERIFY OP_CHECKSIG", "type": "pubkeyhash"}, "value": 0.00264159, "n": 0}, {"scriptPubKey": {"reqSigs": 1, "hex": "a914812b3a32c13d7a7c26557eb31f5b583e6f3ca21d87", "addresses": ["3DTzsn589THr1ny69RWmwFy9CALX78C2d5"], "asm": "OP_HASH160 812b3a32c13d7a7c26557eb31f5b583e6f3ca21d OP_EQUAL", "type": "scripthash"}, "value": 0.01500592, "n": 1}], "hex": "020000000001015f9a4b2027199571d8c0c08312147c190d91eed0b04a31dd6ba791ca6d6ffc4f00000000171600146952e112abf6b99bfa051a684ba1858b2d5f1313feffffff02df070400000000001976a914b37410e7366e0bf24d88e2f59e90b58cb1095f0888acb0e516000000000017a914812b3a32c13d7a7c26557eb31f5b583e6f3ca21d870247304402204a9f34e9df2379057f68c6424b54edbd8c0c96be346c044f932c3355a220bb70022017af6adf39f9491b0e536ea36f32f36a058a26f36d7b4818127e148811c45e4b012103bff4fa6c6f674253a06176189b879348b8d4ad7e89a85431c8903350fa115baa12490800", "vin": [{"txinwitness": ["304402204a9f34e9df2379057f68c6424b54edbd8c0c96be346c044f932c3355a220bb70022017af6adf39f9491b0e536ea36f32f36a058a26f36d7b4818127e148811c45e4b01", "03bff4fa6c6f674253a06176189b879348b8d4ad7e89a85431c8903350fa115baa"], "sequence": 4294967294, "scriptSig": {"hex": "1600146952e112abf6b99bfa051a684ba1858b2d5f1313", "asm": "00146952e112abf6b99bfa051a684ba1858b2d5f1313"}, "vout": 0, "txid": "4ffc6f6dca91a76bdd314ab0d0ee910d197c141283c0c0d871951927204b9a5f"}], "txid": "7ca9915e6fbda51b0aa65f82476a4761fcb287130691ed312eeab8ed5305da43", "blocktime": 1537872475, "version": 2, "confirmations": 11487, "time": 1537872475, "locktime": 542994, "vsize": 168, "size": 249}