{"hash": "5a3374dbef86e1baa8799e98fe7d3c6bce97c4becf77c82e0b9ab3585f52fd6a", "blockhash": "00000000000000000024a2167bbff67b0be802c0b01cdd79e6331c2be6459f87", "vout": [{"scriptPubKey": {"reqSigs": 1, "hex": "76a91446fcfbf493cccbec9c56a39f54647a3fdc9afd3a88ac", "addresses": ["17UMN5ZFHRSRiazggVKdzv8aKpwR1MbPGF"], "asm": "OP_DUP OP_HASH160 46fcfbf493cccbec9c56a39f54647a3fdc9afd3a OP_EQUALVERIFY OP_CHECKSIG", "type": "pubkeyhash"}, "value": 0.00434, "n": 0}, {"scriptPubKey": {"reqSigs": 1, "hex": "a91451807b3c3e41e456a7f08029b005806869309efe87", "addresses": ["397xa8DxGpxrYVDvvq73TQ21jvzU9kVLh8"], "asm": "OP_HASH160 51807b3c3e41e456a7f08029b005806869309efe OP_EQUAL", "type": "scripthash"}, "value": 0.00563957, "n": 1}], "hex": "010000000001011f13105709fc67e77ae4de74be875e0d38703457064d88eb0f4735d9c4671f120000000023220020a1f31447b4571b5282de1d27fac7b6e8c6dd92579c73ccf0fa7a74b2971c22a5ffffffff02509f0600000000001976a91446fcfbf493cccbec9c56a39f54647a3fdc9afd3a88acf59a08000000000017a91451807b3c3e41e456a7f08029b005806869309efe870400473044022074ad50af46d4799940ec012d3e6cb3eb9b657fc2b1bed86796a00eab358e3ad9022053827a7a2c2f565b41f2cf924da2c8545c76c3997c7053af5af2f043d4c5c70f0147304402202a439e9eaf388f16a2e5f3102ed5ebba5229bbd7491851d962112a8c058c871d02202729f69559ceaeb63792b344cccd75903ea1a9ce41ef45ca3e57156bfa7fd82a0169522102c820f8977bc79a21ddae169bbab8857b3c34d6933280746a48aed69df2c9fe2a2103d7b490ca5c22c2089a8680bfd87bb098897b577d469996d044e1f5641f07ecdb21023c64a08de51e6ddb14a8a83516a9f3304f22fc89d975a8a0cf94a912aa47d5b753ae0e490800", "vin": [{"txinwitness": ["", "3044022074ad50af46d4799940ec012d3e6cb3eb9b657fc2b1bed86796a00eab358e3ad9022053827a7a2c2f565b41f2cf924da2c8545c76c3997c7053af5af2f043d4c5c70f01", "304402202a439e9eaf388f16a2e5f3102ed5ebba5229bbd7491851d962112a8c058c871d02202729f69559ceaeb63792b344cccd75903ea1a9ce41ef45ca3e57156bfa7fd82a01", "522102c820f8977bc79a21ddae169bbab8857b3c34d6933280746a48aed69df2c9fe2a2103d7b490ca5c22c2089a8680bfd87bb098897b577d469996d044e1f5641f07ecdb21023c64a08de51e6ddb14a8a83516a9f3304f22fc89d975a8a0cf94a912aa47d5b753ae"], "sequence": 4294967295, "scriptSig": {"hex": "220020a1f31447b4571b5282de1d27fac7b6e8c6dd92579c73ccf0fa7a74b2971c22a5", "asm": "0020a1f31447b4571b5282de1d27fac7b6e8c6dd92579c73ccf0fa7a74b2971c22a5"}, "vout": 0, "txid": "121f67c4d935470feb884d06573470380d5e87be74dee47ae767fc095710131f"}], "txid": "7cad21fc374d4895aac548ae332b69c6e33e21c119d84cdb709d35ef69917513", "blocktime": 1537870564, "version": 1, "confirmations": 11515, "time": 1537870564, "locktime": 542990, "vsize": 216, "size": 406}