{"hash": "309f5df63a1cd9ec36e0ac3231038359959b41ae076cfa1df16552b5e67df8de", "blockhash": "000000000000000000022b45ed06c6f4ccd3cf7fb5ba4856ebd2e58215665228", "vout": [{"scriptPubKey": {"reqSigs": 1, "hex": "a914d0976e35c248e4168bb6370a1e7274862d4787ee87", "addresses": ["3Lhwt29cYysMdjLhoLEuJALbJaDANLHs88"], "asm": "OP_HASH160 d0976e35c248e4168bb6370a1e7274862d4787ee OP_EQUAL", "type": "scripthash"}, "value": 1.50761017, "n": 0}, {"scriptPubKey": {"reqSigs": 1, "hex": "76a9148bdb6bc0498f75c7586462299b1fcc2b132db27688ac", "addresses": ["1DkVnJAr4VBf3cCiSxDtLHEnFreFJ16N6P"], "asm": "OP_DUP OP_HASH160 8bdb6bc0498f75c7586462299b1fcc2b132db276 OP_EQUALVERIFY OP_CHECKSIG", "type": "pubkeyhash"}, "value": 0.00557617, "n": 1}], "hex": "02000000000101bb5148f53f3b259a63b29d5351effda0c6ed67a8a5c1b72165437ee482505692020000001716001499adf319273f8d5d02a3f3ab80627a6098aba5bdfeffffff02396efc080000000017a914d0976e35c248e4168bb6370a1e7274862d4787ee8731820800000000001976a9148bdb6bc0498f75c7586462299b1fcc2b132db27688ac0247304402204972c13e28f3486beb256886be34c4fb7f3dc98ce3eed6c871ec6a72b3ed5149022060e81d1895376b30cc282ce4cb9b2bd530aa4e17b752b4080d7e89f9a938e9a801210323e6a89e9429ace0b094212a9ff93d47efd957c5a67e36d631d90321ec09ec9000000000", "vin": [{"txinwitness": ["304402204972c13e28f3486beb256886be34c4fb7f3dc98ce3eed6c871ec6a72b3ed5149022060e81d1895376b30cc282ce4cb9b2bd530aa4e17b752b4080d7e89f9a938e9a801", "0323e6a89e9429ace0b094212a9ff93d47efd957c5a67e36d631d90321ec09ec90"], "sequence": 4294967294, "scriptSig": {"hex": "16001499adf319273f8d5d02a3f3ab80627a6098aba5bd", "asm": "001499adf319273f8d5d02a3f3ab80627a6098aba5bd"}, "vout": 2, "txid": "92565082e47e436521b7c1a5a867edc6a0fdef51539db2639a253b3ff54851bb"}], "txid": "7cb6e8b55765fc261d268844c6a2166731790145841c0f6e2a4c18e6dd914be1", "blocktime": 1537869901, "version": 2, "confirmations": 11522, "time": 1537869901, "locktime": 0, "vsize": 168, "size": 249}