{"hash": "2023cd373ce3e19a21b7b0781617938931876c6f8427b388937946526d7bc592", "blockhash": "000000000000000000022b45ed06c6f4ccd3cf7fb5ba4856ebd2e58215665228", "vout": [{"scriptPubKey": {"reqSigs": 1, "hex": "76a914138d1369bcc26bd07a4ae2c83db0a8dce939f73a88ac", "addresses": ["12nNqmPwZ8en8gRUUuVUiLMbq8iE9F8Rh2"], "asm": "OP_DUP OP_HASH160 138d1369bcc26bd07a4ae2c83db0a8dce939f73a OP_EQUALVERIFY OP_CHECKSIG", "type": "pubkeyhash"}, "value": 0.000875, "n": 0}, {"scriptPubKey": {"reqSigs": 1, "hex": "a914627aa52932456d89054bd84f86246af3b71b93a887", "addresses": ["3Afj4stdiLG9EktGrMbm252ySonnhYaz8v"], "asm": "OP_HASH160 627aa52932456d89054bd84f86246af3b71b93a8 OP_EQUAL", "type": "scripthash"}, "value": 0.80249306, "n": 1}], "hex": "010000000001018860166d27853d71cdda8dcd8addd5074ab6c9ac6165c942ffa7b234b935ffbb01000000232200205fdd641234b13964b223bd85ad2a4a667ca2099df3d42a1d3b45706a8d81abf0ffffffff02cc550100000000001976a914138d1369bcc26bd07a4ae2c83db0a8dce939f73a88acda81c8040000000017a914627aa52932456d89054bd84f86246af3b71b93a8870400483045022100ca43ecf7f847178407e81b25a9e92a639c3ac154d0298194f3375f9902f31a3b0220499404dca401e10e014492f82ab75c5115cdc3588c5097d2a79a7a5b0e03db34014730440220691e34a282960b87042389ef24de38dc7d076fa43a457b328c9ff1dda11f804002205853c94f1c9173a366577122750607402444ae936a61891331110a838b9d68990147522103dcde3832fa56def7b4e783faad1b8af85c3cdd74a5ff4f3c7c216b1075c18da12103c70ae8ded79be1afda73b9ce5ea14a3878908ee160d66a9a717e792bb6db276952ae00000000", "vin": [{"txinwitness": ["", "3045022100ca43ecf7f847178407e81b25a9e92a639c3ac154d0298194f3375f9902f31a3b0220499404dca401e10e014492f82ab75c5115cdc3588c5097d2a79a7a5b0e03db3401", "30440220691e34a282960b87042389ef24de38dc7d076fa43a457b328c9ff1dda11f804002205853c94f1c9173a366577122750607402444ae936a61891331110a838b9d689901", "522103dcde3832fa56def7b4e783faad1b8af85c3cdd74a5ff4f3c7c216b1075c18da12103c70ae8ded79be1afda73b9ce5ea14a3878908ee160d66a9a717e792bb6db276952ae"], "sequence": 4294967295, "scriptSig": {"hex": "2200205fdd641234b13964b223bd85ad2a4a667ca2099df3d42a1d3b45706a8d81abf0", "asm": "00205fdd641234b13964b223bd85ad2a4a667ca2099df3d42a1d3b45706a8d81abf0"}, "vout": 1, "txid": "bbff35b934b2a7ff42c96561acc9b64a07d5dd8acd8ddacd713d85276d166088"}], "txid": "7cbdbd210553b110383ee769fa368e2569028c8f085e6bc98666421ab5da8da0", "blocktime": 1537869901, "version": 1, "confirmations": 11523, "time": 1537869901, "locktime": 0, "vsize": 208, "size": 373}