{"hash": "7cbecb8a7eb2c7d9158035e96c4c9cab7ae24091928f0bd534c49763f6c8b245", "blockhash": "00000000000000000017f5eb5941039fbcee6240d03bc1f2f8e35350df66a1d8", "vout": [{"scriptPubKey": {"reqSigs": 1, "hex": "a914d491be37708ae43fb7ba985ef73a4be059fdb37c87", "addresses": ["3M4ymce6uty3KixsQEubKetGayrfU11Vq3"], "asm": "OP_HASH160 d491be37708ae43fb7ba985ef73a4be059fdb37c OP_EQUAL", "type": "scripthash"}, "value": 0.00016, "n": 0}, {"scriptPubKey": {"reqSigs": 1, "hex": "76a9142a43540531084356443549d8693da43dda7e6e5b88ac", "addresses": ["14rU36wsYD427nDGa6BaEWDjBYvRxXx3zY"], "asm": "OP_DUP OP_HASH160 2a43540531084356443549d8693da43dda7e6e5b OP_EQUALVERIFY OP_CHECKSIG", "type": "pubkeyhash"}, "value": 0.00028285, "n": 1}], "hex": "0100000001f7dfbcbc787cd500a0631031451a2689922f269aff56ace8752ae77f52f83c55000000006b48304502210098cc4037884938860f35f48a64c1c9fe627e50491cc07e4e98b55e2d5025bb6a02200ccfd8213da7d01e46bf25ac0aff53b3a10a67b27c37b6815b4e44328d32c7cd0121023dac863ad57277949d5514a3eb9391d013a6e4982b38a8adfbefe17ab6962195ffffffff02803e00000000000017a914d491be37708ae43fb7ba985ef73a4be059fdb37c877d6e0000000000001976a9142a43540531084356443549d8693da43dda7e6e5b88ac00000000", "vin": [{"sequence": 4294967295, "scriptSig": {"hex": "48304502210098cc4037884938860f35f48a64c1c9fe627e50491cc07e4e98b55e2d5025bb6a02200ccfd8213da7d01e46bf25ac0aff53b3a10a67b27c37b6815b4e44328d32c7cd0121023dac863ad57277949d5514a3eb9391d013a6e4982b38a8adfbefe17ab6962195", "asm": "304502210098cc4037884938860f35f48a64c1c9fe627e50491cc07e4e98b55e2d5025bb6a02200ccfd8213da7d01e46bf25ac0aff53b3a10a67b27c37b6815b4e44328d32c7cd[ALL] 023dac863ad57277949d5514a3eb9391d013a6e4982b38a8adfbefe17ab6962195"}, "vout": 0, "txid": "553cf8527fe72a75e8ac56ff9a262f9289261a45311063a000d57c78bcbcdff7"}], "txid": "7cbecb8a7eb2c7d9158035e96c4c9cab7ae24091928f0bd534c49763f6c8b245", "blocktime": 1537874412, "version": 1, "confirmations": 11467, "time": 1537874412, "locktime": 0, "vsize": 224, "size": 224}