{"hash": "7cc01ab8e940ef04f3e5ac561de695b1d16932b3eea54569df0425ddd9ab4261", "blockhash": "0000000000000000000baef3f32e3676a92c3b2e5da21b426e4f302fc371ce76", "vout": [{"scriptPubKey": {"reqSigs": 1, "hex": "a91452f9d3914dc55f93837bbdc2b4cb29d6f701321187", "addresses": ["39FkcX3vHvE4cTeBdfdcvSrzDSSUb4MLp3"], "asm": "OP_HASH160 52f9d3914dc55f93837bbdc2b4cb29d6f7013211 OP_EQUAL", "type": "scripthash"}, "value": 0.06, "n": 0}, {"scriptPubKey": {"reqSigs": 1, "hex": "76a9144a7db91079709350275d02e32ef52fd98853552988ac", "addresses": ["17nscaRPPXitDhvrG4JQJtfcsYUSoZT4XL"], "asm": "OP_DUP OP_HASH160 4a7db91079709350275d02e32ef52fd988535529 OP_EQUALVERIFY OP_CHECKSIG", "type": "pubkeyhash"}, "value": 0.0299776, "n": 1}], "hex": "01000000014b4c05d5b62b7ba9303150896ae799ffe73ed63611df709b2d892ff4625fa6a0000000006b483045022100997410a33e51f57c69eecddc526e2011db0d9ab607d30325ac568eb72c2868c602206480797bc17837b88206a44e24c94336fba154ec4143b97ec580cfa9ea30eb3201210243737b7b80cc43ef08f3f9d3c1b94be68316a8adf9b5f3f46af9cbae47874e25ffffffff02808d5b000000000017a91452f9d3914dc55f93837bbdc2b4cb29d6f70132118700be2d00000000001976a9144a7db91079709350275d02e32ef52fd98853552988ac00000000", "vin": [{"sequence": 4294967295, "scriptSig": {"hex": "483045022100997410a33e51f57c69eecddc526e2011db0d9ab607d30325ac568eb72c2868c602206480797bc17837b88206a44e24c94336fba154ec4143b97ec580cfa9ea30eb3201210243737b7b80cc43ef08f3f9d3c1b94be68316a8adf9b5f3f46af9cbae47874e25", "asm": "3045022100997410a33e51f57c69eecddc526e2011db0d9ab607d30325ac568eb72c2868c602206480797bc17837b88206a44e24c94336fba154ec4143b97ec580cfa9ea30eb32[ALL] 0243737b7b80cc43ef08f3f9d3c1b94be68316a8adf9b5f3f46af9cbae47874e25"}, "vout": 0, "txid": "a0a65f62f42f892d9b70df1136d63ee7ff99e76a89503130a97b2bb6d5054c4b"}], "txid": "7cc01ab8e940ef04f3e5ac561de695b1d16932b3eea54569df0425ddd9ab4261", "blocktime": 1537876114, "version": 1, "confirmations": 11460, "time": 1537876114, "locktime": 0, "vsize": 224, "size": 224}