{"hash": "7cc1ca65dc40779692dfef3a45ae71051b85090658ae0cc007ce478d40a429d3", "blockhash": "0000000000000000001e0dab787dd257d1dbfcb92a98c2207d5e1078be1f4165", "vout": [{"scriptPubKey": {"type": "nulldata", "hex": "6a4c50000077b00001f2289f724a7e0bbbfb737760af6c953dd567cf27e7e3ef3236678a6250979402b35ca0835fc3b2e4fcfe24b3cddc5baa11790611b99a0107d7ec1d100759d4ba30d2c37bb011d97e02cf", "asm": "OP_RETURN 000077b00001f2289f724a7e0bbbfb737760af6c953dd567cf27e7e3ef3236678a6250979402b35ca0835fc3b2e4fcfe24b3cddc5baa11790611b99a0107d7ec1d100759d4ba30d2c37bb011d97e02cf"}, "value": 0.0, "n": 0}, {"scriptPubKey": {"reqSigs": 1, "hex": "76a914174d92746306995f31136159d906a60b27c3815788ac", "addresses": ["138DUDVFDAEtA1RBNxc1aak8K7vzVZb2eL"], "asm": "OP_DUP OP_HASH160 174d92746306995f31136159d906a60b27c38157 OP_EQUALVERIFY OP_CHECKSIG", "type": "pubkeyhash"}, "value": 0.0064481, "n": 1}], "hex": "01000000014d34f1d16def01d848076072ec8d305f7aee4dc4b11656e9442049049d64111e010000006a47304402202289d8cb1ac926e50f121df1c37007aacc501f70a46b1e93be6389f87cdded1102204bd6fb38842108dca59f474b2f11804ffca7e23678fafbcb1ebbf9d669722abb012102a25800d26b8817a32489cbb8058a07463c64175fbfc406503a88be914a852732ffffffff020000000000000000536a4c50000077b00001f2289f724a7e0bbbfb737760af6c953dd567cf27e7e3ef3236678a6250979402b35ca0835fc3b2e4fcfe24b3cddc5baa11790611b99a0107d7ec1d100759d4ba30d2c37bb011d97e02cfcad60900000000001976a914174d92746306995f31136159d906a60b27c3815788ac00000000", "vin": [{"sequence": 4294967295, "scriptSig": {"hex": "47304402202289d8cb1ac926e50f121df1c37007aacc501f70a46b1e93be6389f87cdded1102204bd6fb38842108dca59f474b2f11804ffca7e23678fafbcb1ebbf9d669722abb012102a25800d26b8817a32489cbb8058a07463c64175fbfc406503a88be914a852732", "asm": "304402202289d8cb1ac926e50f121df1c37007aacc501f70a46b1e93be6389f87cdded1102204bd6fb38842108dca59f474b2f11804ffca7e23678fafbcb1ebbf9d669722abb[ALL] 02a25800d26b8817a32489cbb8058a07463c64175fbfc406503a88be914a852732"}, "vout": 1, "txid": "1e11649d04492044e95616b1c44dee7a5f308dec72600748d801ef6dd1f1344d"}], "txid": "7cc1ca65dc40779692dfef3a45ae71051b85090658ae0cc007ce478d40a429d3", "blocktime": 1537872475, "version": 1, "confirmations": 11486, "time": 1537872475, "locktime": 0, "vsize": 283, "size": 283}