{"hash": "7a107efc1c0200b5382b9335e9839d19935b7185c8bf731ccd3f16e96fc94bb8", "blockhash": "00000000000000000017f5eb5941039fbcee6240d03bc1f2f8e35350df66a1d8", "vout": [{"scriptPubKey": {"reqSigs": 1, "hex": "a9147918cdbc9d22f4fcea9048b646efbc4f195ea31f87", "addresses": ["3CjKQ9Hdzxe1bHdSL8cRmenrYkn9KqvrHk"], "asm": "OP_HASH160 7918cdbc9d22f4fcea9048b646efbc4f195ea31f OP_EQUAL", "type": "scripthash"}, "value": 0.01171326, "n": 0}, {"scriptPubKey": {"reqSigs": 1, "hex": "001476a04093b43543613b4c2e03a893687e65a1875d", "addresses": ["bc1qw6sypya5x4pkzw6v9cp63ymg0ej6rp6a03tn6u"], "asm": "0 76a04093b43543613b4c2e03a893687e65a1875d", "type": "witness_v0_keyhash"}, "value": 0.0005257, "n": 1}], "hex": "010000000001012e91e1c100384a35ce8f197dbf0e3b80cb5d7afe6dea71e86d898d56006f4f2c0100000000ffffffff027edf11000000000017a9147918cdbc9d22f4fcea9048b646efbc4f195ea31f875acd00000000000016001476a04093b43543613b4c2e03a893687e65a1875d0247304402200a341bb2a0669b5d649bfe3ce32e2e865fd73e3871ed90fa29571e25c6999dbd02205e17aca81d82f448f1b3eaa683d4e56e7b869a26b6b0ec07d71e709e2437da020121026ff25d106f225efec6302939424b5db9f8a9c1720955d33ef3695e580b21681c00000000", "vin": [{"txinwitness": ["304402200a341bb2a0669b5d649bfe3ce32e2e865fd73e3871ed90fa29571e25c6999dbd02205e17aca81d82f448f1b3eaa683d4e56e7b869a26b6b0ec07d71e709e2437da0201", "026ff25d106f225efec6302939424b5db9f8a9c1720955d33ef3695e580b21681c"], "sequence": 4294967295, "scriptSig": {"hex": "", "asm": ""}, "vout": 1, "txid": "2c4f6f00568d896de871ea6dfe7a5dcb803b0ebf7d198fce354a3800c1e1912e"}], "txid": "7cc1c9a50c75bf893af921a31880093af19ade112bc8378713b86c6bd578b22d", "blocktime": 1537874412, "version": 1, "confirmations": 11467, "time": 1537874412, "locktime": 0, "vsize": 142, "size": 223}