{"hash": "7cc2633a94eb618d631600849182338b3d6c136fd7ae4f143983280c7cc8740e", "blockhash": "000000000000000000205f8b0775d31398ef75b89a5e8ec8d2c57b4dc0ac4c20", "vout": [{"scriptPubKey": {"reqSigs": 1, "hex": "76a9140f953657d998b24b70625cff7a583b0892658e6688ac", "addresses": ["12RPtL3MCfed9d6Gb5vitU2afQaeE69Dx5"], "asm": "OP_DUP OP_HASH160 0f953657d998b24b70625cff7a583b0892658e66 OP_EQUALVERIFY OP_CHECKSIG", "type": "pubkeyhash"}, "value": 0.00495943, "n": 0}, {"scriptPubKey": {"type": "nulldata", "hex": "6a146f6d6e69000000000000001f0000007e675c9500", "asm": "OP_RETURN 6f6d6e69000000000000001f0000007e675c9500"}, "value": 0.0, "n": 1}, {"scriptPubKey": {"reqSigs": 1, "hex": "76a91488d924f51033b74a895863a5fb57fd545529df7d88ac", "addresses": ["1DUb2YYbQA1jjaNYzVXLZ7ZioEhLXtbUru"], "asm": "OP_DUP OP_HASH160 88d924f51033b74a895863a5fb57fd545529df7d OP_EQUALVERIFY OP_CHECKSIG", "type": "pubkeyhash"}, "value": 5.46e-06, "n": 2}], "hex": "01000000014899af9e99cd4883b70e685ab99736be6dc64f463505f2299c4143c03c67b076000000006b483045022100dea1ba4c206c75485cfb9d49e45f213c430738be2b4f396fe0a1bdbb6fdd2ac402207a79e23db83b3eb636ff2811eeacb950cbee7c4e3e512ffa7a558bf931aacc470121026bbdee67f6b5aab9e05fb37f23ef9b503c7c3116a6511c209595afe8d7abc16dfeffffff0347910700000000001976a9140f953657d998b24b70625cff7a583b0892658e6688ac0000000000000000166a146f6d6e69000000000000001f0000007e675c950022020000000000001976a91488d924f51033b74a895863a5fb57fd545529df7d88ac0f490800", "vin": [{"sequence": 4294967294, "scriptSig": {"hex": "483045022100dea1ba4c206c75485cfb9d49e45f213c430738be2b4f396fe0a1bdbb6fdd2ac402207a79e23db83b3eb636ff2811eeacb950cbee7c4e3e512ffa7a558bf931aacc470121026bbdee67f6b5aab9e05fb37f23ef9b503c7c3116a6511c209595afe8d7abc16d", "asm": "3045022100dea1ba4c206c75485cfb9d49e45f213c430738be2b4f396fe0a1bdbb6fdd2ac402207a79e23db83b3eb636ff2811eeacb950cbee7c4e3e512ffa7a558bf931aacc47[ALL] 026bbdee67f6b5aab9e05fb37f23ef9b503c7c3116a6511c209595afe8d7abc16d"}, "vout": 0, "txid": "76b0673cc043419c29f20535464fc66dbe3697b95a680eb78348cd999eaf9948"}], "txid": "7cc2633a94eb618d631600849182338b3d6c136fd7ae4f143983280c7cc8740e", "blocktime": 1537871175, "version": 1, "confirmations": 11511, "time": 1537871175, "locktime": 542991, "vsize": 257, "size": 257}