{"hash": "133593baf8f25a1a7d817a7ce9c48bf55b486fb5c3734cb84e762c514279c362", "blockhash": "00000000000000000024a2167bbff67b0be802c0b01cdd79e6331c2be6459f87", "vout": [{"scriptPubKey": {"reqSigs": 1, "hex": "76a914e9a70725f49b19f312f10821bb56cfd2e838656f88ac", "addresses": ["1NJSY1163S8YptLCWP34fkWvc7AqkJDEP9"], "asm": "OP_DUP OP_HASH160 e9a70725f49b19f312f10821bb56cfd2e838656f OP_EQUALVERIFY OP_CHECKSIG", "type": "pubkeyhash"}, "value": 0.0031106, "n": 0}, {"scriptPubKey": {"reqSigs": 1, "hex": "a9144838fa3a47e34ecef6dce6f27bdbe1332ff797da87", "addresses": ["38GtqDccGFMAdexqrQTyWjdwYZw1YkqxNv"], "asm": "OP_HASH160 4838fa3a47e34ecef6dce6f27bdbe1332ff797da OP_EQUAL", "type": "scripthash"}, "value": 0.00999808, "n": 1}], "hex": "020000000001021b61547cdba2a6d891b27b3016aa47ef7a1739c2bd48538445fed17cdb54010a0100000017160014d602c8ec2a49306347eec323565e0fb4016be474feffffff1be7c78cbc809775dad694d899e49f3771af19a998f82846a7b9b89c86378186040000001716001414343a22f00f45b276f195fb5b441ac2e0a44d83feffffff0214bf0400000000001976a914e9a70725f49b19f312f10821bb56cfd2e838656f88ac80410f000000000017a9144838fa3a47e34ecef6dce6f27bdbe1332ff797da870247304402205b30069e0d314afd74825015ab02fe994f4528c3594597d83de412d83d9c42da02201a85e13138fcad06aa80524322a85032bc06c63366eebca32fede133e74a8a5a01210357c5ac9ff0d349f0139e4a4842db712803e4b3ecaedfc4931c0d38ad2e6f24440247304402205d9615030b13ca979542b5c541ecf389489c22f5f592bc35322b79157c0543d9022002bffd4abef127a76b1a2c6713321f358dfabb0a84ab9004f7c76fc36cf4e90d012103eacb02c8dd95041ad1900b566063199353f433e8420c9b61ed3bad0ee2d54bf90d490800", "vin": [{"txinwitness": ["304402205b30069e0d314afd74825015ab02fe994f4528c3594597d83de412d83d9c42da02201a85e13138fcad06aa80524322a85032bc06c63366eebca32fede133e74a8a5a01", "0357c5ac9ff0d349f0139e4a4842db712803e4b3ecaedfc4931c0d38ad2e6f2444"], "sequence": 4294967294, "scriptSig": {"hex": "160014d602c8ec2a49306347eec323565e0fb4016be474", "asm": "0014d602c8ec2a49306347eec323565e0fb4016be474"}, "vout": 1, "txid": "0a0154db7cd1fe45845348bdc239177aef47aa16307bb291d8a6a2db7c54611b"}, {"txinwitness": ["304402205d9615030b13ca979542b5c541ecf389489c22f5f592bc35322b79157c0543d9022002bffd4abef127a76b1a2c6713321f358dfabb0a84ab9004f7c76fc36cf4e90d01", "03eacb02c8dd95041ad1900b566063199353f433e8420c9b61ed3bad0ee2d54bf9"], "sequence": 4294967294, "scriptSig": {"hex": "16001414343a22f00f45b276f195fb5b441ac2e0a44d83", "asm": "001414343a22f00f45b276f195fb5b441ac2e0a44d83"}, "vout": 4, "txid": "868137869cb8b9a74628f898a919af71379fe499d894d6da759780bc8cc7e71b"}], "txid": "7cc5e398a5e998c748e82faa03de9032937f97a2c13cdbb67f8d3cb0407097bd", "blocktime": 1537870564, "version": 2, "confirmations": 11515, "time": 1537870564, "locktime": 542989, "vsize": 258, "size": 420}