{"hash": "55f37cd738972a4092d811c1e7c99ca06a1357c5a45017031abe2a79f0093cba", "blockhash": "0000000000000000000e13cef7c366c0283d82e591d1acd082e914b08063cdf1", "vout": [{"scriptPubKey": {"reqSigs": 1, "hex": "76a91492dc3ab90b3ce8f4e99246ad419fde28db1aab1488ac", "addresses": ["1EPXUpAkMU3zvMWCdXQKo9SKmG871eDGeD"], "asm": "OP_DUP OP_HASH160 92dc3ab90b3ce8f4e99246ad419fde28db1aab14 OP_EQUALVERIFY OP_CHECKSIG", "type": "pubkeyhash"}, "value": 2.5, "n": 0}, {"scriptPubKey": {"reqSigs": 1, "hex": "a9148cc3fc32e4ab9f419351741cf9ab5ea41548452f87", "addresses": ["3EXKJgoZPaYMAAFUdqjCNvdi6gTMvfxayN"], "asm": "OP_HASH160 8cc3fc32e4ab9f419351741cf9ab5ea41548452f OP_EQUAL", "type": "scripthash"}, "value": 51.94942466, "n": 1}], "hex": "010000000001012eb3a776df10cea1715890e7dface23eaeae58c0ec70efeaffd7ba773d0976ed0100000017160014714cab112661652472c8ad111e42141a108ed230ffffffff0280b2e60e000000001976a91492dc3ab90b3ce8f4e99246ad419fde28db1aab1488ac0288a4350100000017a9148cc3fc32e4ab9f419351741cf9ab5ea41548452f8702483045022100c9e7af347027bb68746d73555ba1323b2055876126a3e32e62299f8a3fc66f3f02200eb67a1f22ed0f49b8d201cc28b5a564dc6906d0907a4219b3fa64469bff9d6d0121024426ad1468f55378bfd3215bab8ed8762e008d010d65556209a9747f04ac3ed500000000", "vin": [{"txinwitness": ["3045022100c9e7af347027bb68746d73555ba1323b2055876126a3e32e62299f8a3fc66f3f02200eb67a1f22ed0f49b8d201cc28b5a564dc6906d0907a4219b3fa64469bff9d6d01", "024426ad1468f55378bfd3215bab8ed8762e008d010d65556209a9747f04ac3ed5"], "sequence": 4294967295, "scriptSig": {"hex": "160014714cab112661652472c8ad111e42141a108ed230", "asm": "0014714cab112661652472c8ad111e42141a108ed230"}, "vout": 1, "txid": "ed76093d77bad7ffeaef70ecc058aeae3ee2acdfe7905871a1ce10df76a7b32e"}], "txid": "7cc9b9240e967887a6e42619a4d5b1b619944be395fa4d8b80b285844dc2b5d7", "blocktime": 1537871767, "version": 1, "confirmations": 11493, "time": 1537871767, "locktime": 0, "vsize": 168, "size": 250}