{"hash": "114d9fd8482bfd7d3ec67064b80f3394599e43f29eecade20a50301f2633fb6a", "blockhash": "0000000000000000000baef3f32e3676a92c3b2e5da21b426e4f302fc371ce76", "vout": [{"scriptPubKey": {"type": "nulldata", "hex": "6a146f6d6e69000000000000001f0000001c2c297a00", "asm": "OP_RETURN 6f6d6e69000000000000001f0000001c2c297a00"}, "value": 0.0, "n": 0}, {"scriptPubKey": {"reqSigs": 1, "hex": "76a914657387139baca2407c5dc82ba9231f7201fe055488ac", "addresses": ["1AFReNpdQvWn3zy2HQz3QgVSeMDN3oWy5u"], "asm": "OP_DUP OP_HASH160 657387139baca2407c5dc82ba9231f7201fe0554 OP_EQUALVERIFY OP_CHECKSIG", "type": "pubkeyhash"}, "value": 2.73e-05, "n": 1}, {"scriptPubKey": {"reqSigs": 1, "hex": "a914e818e90b8e6b38dba66f74b35cb708bbc73e2ea787", "addresses": ["3NrEXrB9qAxXYfRt6jKtBD8QzoU2qtNWDR"], "asm": "OP_HASH160 e818e90b8e6b38dba66f74b35cb708bbc73e2ea7 OP_EQUAL", "type": "scripthash"}, "value": 0.02298545, "n": 2}], "hex": "0100000000010259f4d43342f8ddf899b7ce6b2b704a68f1352fa69e308a8414f38b05d62f016c0100000017160014000b814f2c1a19852357ed615a08ec572a781ed1ffffffffc11a0459e2931e06892cac0f704100ce5d67a090bc9d7ca59a7354c4c5eca8ad0000000017160014050aefb341a21acbe63157f453db3c1d6d33d347ffffffff030000000000000000166a146f6d6e69000000000000001f0000001c2c297a00aa0a0000000000001976a914657387139baca2407c5dc82ba9231f7201fe055488acb11223000000000017a914e818e90b8e6b38dba66f74b35cb708bbc73e2ea787024730440220225329a15a4feefbc13dc770d163d22982796648ab5a03077b2849a575d579f7022011b0f7439540797c01be9f9100cdf26803a6caa4434c065ac31556d9cf43ea6a012102aad79950b2c2af3689e8644c89e9d10dff06c2d8926200496b92e9f7ccb0304c02473044022041fe74c5c7bf5af454a58affe3164733a0d1b0df6c9121b0cd56ab33e3424d7902205766c08e8c6f6786f6d3ed32f7f30e006bbb11b162aaef94c9e75fff77bef8c401210361ba94f89d87b8ef8efa7c4552d19111305a0057715736f361e262d6889652fe00000000", "vin": [{"txinwitness": ["30440220225329a15a4feefbc13dc770d163d22982796648ab5a03077b2849a575d579f7022011b0f7439540797c01be9f9100cdf26803a6caa4434c065ac31556d9cf43ea6a01", "02aad79950b2c2af3689e8644c89e9d10dff06c2d8926200496b92e9f7ccb0304c"], "sequence": 4294967295, "scriptSig": {"hex": "160014000b814f2c1a19852357ed615a08ec572a781ed1", "asm": "0014000b814f2c1a19852357ed615a08ec572a781ed1"}, "vout": 1, "txid": "6c012fd6058bf314848a309ea62f35f1684a702b6bceb799f8ddf84233d4f459"}, {"txinwitness": ["3044022041fe74c5c7bf5af454a58affe3164733a0d1b0df6c9121b0cd56ab33e3424d7902205766c08e8c6f6786f6d3ed32f7f30e006bbb11b162aaef94c9e75fff77bef8c401", "0361ba94f89d87b8ef8efa7c4552d19111305a0057715736f361e262d6889652fe"], "sequence": 4294967295, "scriptSig": {"hex": "160014050aefb341a21acbe63157f453db3c1d6d33d347", "asm": "0014050aefb341a21acbe63157f453db3c1d6d33d347"}, "vout": 0, "txid": "ada8ecc5c454739aa57c9dbc90a0675dce0041700fac2c89061e93e259041ac1"}], "txid": "7ccd04970d755290e3bd15855874901f441c52febcb53043efaa630ad4f5a299", "blocktime": 1537876114, "version": 1, "confirmations": 11460, "time": 1537876114, "locktime": 0, "vsize": 289, "size": 451}