{"hash": "7cd15d6ea6d776f1472b15fafd8038de65bacad5063986846751ac1982140782", "blockhash": "0000000000000000000e13cef7c366c0283d82e591d1acd082e914b08063cdf1", "vout": [{"scriptPubKey": {"reqSigs": 1, "hex": "76a91409cb192ec174bd5610df9f1dc30ceb10053ef84a88ac", "addresses": ["1tnPFRG7EHkej9AUMcrf6oAvegZL8BTaE"], "asm": "OP_DUP OP_HASH160 09cb192ec174bd5610df9f1dc30ceb10053ef84a OP_EQUALVERIFY OP_CHECKSIG", "type": "pubkeyhash"}, "value": 0.096045, "n": 0}, {"scriptPubKey": {"reqSigs": 1, "hex": "76a9141006bf08f0005c42c2b255c7f83cf60bc1d0647888ac", "addresses": ["12Tjtoix2QknASMVi3uUFkZtNZJh4d67qc"], "asm": "OP_DUP OP_HASH160 1006bf08f0005c42c2b255c7f83cf60bc1d06478 OP_EQUALVERIFY OP_CHECKSIG", "type": "pubkeyhash"}, "value": 0.30315074, "n": 1}], "hex": "0100000001c07403b7f0f1d3273707d9bd63fb6568cb4176a0cc7ade1991ab088e83ab9ff9000000006b4830450221009cb9c274e4b7f591d7279932b9aca2cb45689d94a8da8d1946762027ead233c40220625599b88e01afbeaf5f4a97e04befa155782cc4353ebbb29679048aa42c17750121030216dfb0dd4eff7823ad96fcd006b94e30366d95ce8df2d50c3fd1815337d745fdffffff02948d9200000000001976a91409cb192ec174bd5610df9f1dc30ceb10053ef84a88ac4292ce01000000001976a9141006bf08f0005c42c2b255c7f83cf60bc1d0647888ac10490800", "vin": [{"sequence": 4294967293, "scriptSig": {"hex": "4830450221009cb9c274e4b7f591d7279932b9aca2cb45689d94a8da8d1946762027ead233c40220625599b88e01afbeaf5f4a97e04befa155782cc4353ebbb29679048aa42c17750121030216dfb0dd4eff7823ad96fcd006b94e30366d95ce8df2d50c3fd1815337d745", "asm": "30450221009cb9c274e4b7f591d7279932b9aca2cb45689d94a8da8d1946762027ead233c40220625599b88e01afbeaf5f4a97e04befa155782cc4353ebbb29679048aa42c1775[ALL] 030216dfb0dd4eff7823ad96fcd006b94e30366d95ce8df2d50c3fd1815337d745"}, "vout": 0, "txid": "f99fab838e08ab9119de7acca07641cb6865fb63bdd9073727d3f1f0b70374c0"}], "txid": "7cd15d6ea6d776f1472b15fafd8038de65bacad5063986846751ac1982140782", "blocktime": 1537871767, "version": 1, "confirmations": 11490, "time": 1537871767, "locktime": 542992, "vsize": 226, "size": 226}