{"hash": "ed50345e16fdf845f0f4a3034a70ec60cd3ac027400782e2d3397817a0148f5e", "blockhash": "00000000000000000017f5eb5941039fbcee6240d03bc1f2f8e35350df66a1d8", "vout": [{"scriptPubKey": {"reqSigs": 1, "hex": "a914db782aaa57cfd49637ac0ab79fc11bd52ae420d287", "addresses": ["3MhTrt2kH98aMgbBNprddD1moeWnBNZwDh"], "asm": "OP_HASH160 db782aaa57cfd49637ac0ab79fc11bd52ae420d2 OP_EQUAL", "type": "scripthash"}, "value": 0.00358, "n": 0}, {"scriptPubKey": {"reqSigs": 1, "hex": "a91474fa9f6babf779417fc19354b8118a9b037860ca87", "addresses": ["3CMYYNMw6MDU15zccqsKT4AnADKFALCXys"], "asm": "OP_HASH160 74fa9f6babf779417fc19354b8118a9b037860ca OP_EQUAL", "type": "scripthash"}, "value": 0.01004658, "n": 1}], "hex": "02000000000104624f014bd50d862c90874c412159ab49e1177687a0a67f3cf83a62c4cdf8c69f00000000171600140d7ccb162e6177da4ee05a1770e650f60adf2a41feffffff7dd90cea7822541525d8aecb9af74532e47e359f620578d03734d9b11a9a282e01000000171600145b02860c5f4e2019f044df8bada45ca51cf3c305feffffff7ec144e4c2ad1847d3778fd14cbe74ba0f77ce33bbc8dce4d253be301b6f957b000000001716001476f3c3568fe6104dabfdd28bfc43d37d915ad9d0feffffffdfe7a6312ce31984ed9cc017df2373270558a0bcffd677fda25b08d0933a2c830e000000171600140c306524545022bde3c97f73d8bd8ba2801c8eacfeffffff02707605000000000017a914db782aaa57cfd49637ac0ab79fc11bd52ae420d28772540f000000000017a91474fa9f6babf779417fc19354b8118a9b037860ca870247304402204dc3789a09a7dde23d01f4f23f5de62b3a3de4cd8a4be5d37af7f2332a8b1976022022cc4bbc01c90c8a9633e9e42fd154b1aa56844721aca899b21f627654eaa095012103b7b6fee77cb1b13d3864d403b455852f6823994c350b51d68163cbec4756eb6a02483045022100a9313f52a83a0abd022663f275b1bfd46bf8e2be2d0d4770a17968be54710fb002207beef3ab59ffb6d2e7b5da7b6d8a6470d1af43864b1570584564c13b9d76d3c90121037e0845815e498b555603c130e131a9173bc7eb93c6f71d6d85e180cf2b6773b3024830450221009005d095feb924121bdeaa96423dd8d0754d6da454f96809193665241d66d77602206f5f2e0277460909a2cf97c4bbb689c1a2d00d26183687a41b5044b68ae1b03001210280f593781fbd3ec6b88054fd8456588cbf2395c7f7272713cf1428ec26aea2180247304402203db5eeb2a86de918d71825f42559dbb595555bd4f9643c8e298f23eb140b2bbd022054a0c5048bdd6c956fba614b912b52a8c338f0a03b5605a25a59d1a9494a9f7d012102df41c166268ef085680fc8af3da4e07f28349fe18e1e7be6436018d5b431ad1d15490800", "vin": [{"txinwitness": ["304402204dc3789a09a7dde23d01f4f23f5de62b3a3de4cd8a4be5d37af7f2332a8b1976022022cc4bbc01c90c8a9633e9e42fd154b1aa56844721aca899b21f627654eaa09501", "03b7b6fee77cb1b13d3864d403b455852f6823994c350b51d68163cbec4756eb6a"], "sequence": 4294967294, "scriptSig": {"hex": "1600140d7ccb162e6177da4ee05a1770e650f60adf2a41", "asm": "00140d7ccb162e6177da4ee05a1770e650f60adf2a41"}, "vout": 0, "txid": "9fc6f8cdc4623af83c7fa6a0877617e149ab5921414c87902c860dd54b014f62"}, {"txinwitness": ["3045022100a9313f52a83a0abd022663f275b1bfd46bf8e2be2d0d4770a17968be54710fb002207beef3ab59ffb6d2e7b5da7b6d8a6470d1af43864b1570584564c13b9d76d3c901", "037e0845815e498b555603c130e131a9173bc7eb93c6f71d6d85e180cf2b6773b3"], "sequence": 4294967294, "scriptSig": {"hex": "1600145b02860c5f4e2019f044df8bada45ca51cf3c305", "asm": "00145b02860c5f4e2019f044df8bada45ca51cf3c305"}, "vout": 1, "txid": "2e289a1ab1d93437d07805629f357ee43245f79acbaed82515542278ea0cd97d"}, {"txinwitness": ["30450221009005d095feb924121bdeaa96423dd8d0754d6da454f96809193665241d66d77602206f5f2e0277460909a2cf97c4bbb689c1a2d00d26183687a41b5044b68ae1b03001", "0280f593781fbd3ec6b88054fd8456588cbf2395c7f7272713cf1428ec26aea218"], "sequence": 4294967294, "scriptSig": {"hex": "16001476f3c3568fe6104dabfdd28bfc43d37d915ad9d0", "asm": "001476f3c3568fe6104dabfdd28bfc43d37d915ad9d0"}, "vout": 0, "txid": "7b956f1b30be53d2e4dcc8bb33ce770fba74be4cd18f77d34718adc2e444c17e"}, {"txinwitness": ["304402203db5eeb2a86de918d71825f42559dbb595555bd4f9643c8e298f23eb140b2bbd022054a0c5048bdd6c956fba614b912b52a8c338f0a03b5605a25a59d1a9494a9f7d01", "02df41c166268ef085680fc8af3da4e07f28349fe18e1e7be6436018d5b431ad1d"], "sequence": 4294967294, "scriptSig": {"hex": "1600140c306524545022bde3c97f73d8bd8ba2801c8eac", "asm": "00140c306524545022bde3c97f73d8bd8ba2801c8eac"}, "vout": 14, "txid": "832c3a93d0085ba2fd77d6ffbca05805277323df17c09ced8419e32c31a6e7df"}], "txid": "7cd205aaf92301e3fa4d0c3bf934e2c749038386e8351b4407602217a78fb04d", "blocktime": 1537874412, "version": 2, "confirmations": 11468, "time": 1537874412, "locktime": 542997, "vsize": 438, "size": 762}