{"hash": "7ce1a4378056c2e42e17450da96bd3532e0ef57c778320fdc3fd195c5eeb00e3", "blockhash": "0000000000000000001f76057863aec43deb6fa401d9628bb513d65a8098bfab", "vout": [{"scriptPubKey": {"reqSigs": 1, "hex": "76a9146118ae2d6554d017b15b9745ea55453755e3633288ac", "addresses": ["19rQ7RxxqJs82HipSt21HmCVAzwpCoVFA3"], "asm": "OP_DUP OP_HASH160 6118ae2d6554d017b15b9745ea55453755e36332 OP_EQUALVERIFY OP_CHECKSIG", "type": "pubkeyhash"}, "value": 0.00783484, "n": 0}, {"scriptPubKey": {"reqSigs": 1, "hex": "76a914d4f37977234d3e789ab3af99837da802df14734b88ac", "addresses": ["1LQyva88m2CtFZ9ZqK6qrHfmqnCyqkoQ58"], "asm": "OP_DUP OP_HASH160 d4f37977234d3e789ab3af99837da802df14734b OP_EQUALVERIFY OP_CHECKSIG", "type": "pubkeyhash"}, "value": 0.062436, "n": 1}], "hex": "01000000013f39c33cbfa8e074f9625012d567977ac76f057f682e3b5517d41b8f60bbef4a010000006a473044022040b4de0d1232366b0f38d5c764d0254dc401e651c3381ff4f7d4b30694b0d47b0220486fdbe139e292a37837f8cde7c0bb6c202d27ed6c7572b71beab077ed8bc723012102f115be309c732ba0bc7639ce584e8d01284128d3f11973ec28f37937dcdfebb0ffffffff027cf40b00000000001976a9146118ae2d6554d017b15b9745ea55453755e3633288ac10455f00000000001976a914d4f37977234d3e789ab3af99837da802df14734b88ac00000000", "vin": [{"sequence": 4294967295, "scriptSig": {"hex": "473044022040b4de0d1232366b0f38d5c764d0254dc401e651c3381ff4f7d4b30694b0d47b0220486fdbe139e292a37837f8cde7c0bb6c202d27ed6c7572b71beab077ed8bc723012102f115be309c732ba0bc7639ce584e8d01284128d3f11973ec28f37937dcdfebb0", "asm": "3044022040b4de0d1232366b0f38d5c764d0254dc401e651c3381ff4f7d4b30694b0d47b0220486fdbe139e292a37837f8cde7c0bb6c202d27ed6c7572b71beab077ed8bc723[ALL] 02f115be309c732ba0bc7639ce584e8d01284128d3f11973ec28f37937dcdfebb0"}, "vout": 1, "txid": "4aefbb608f1bd417553b2e687f056fc77a9767d5125062f974e0a8bf3cc3393f"}], "txid": "7ce1a4378056c2e42e17450da96bd3532e0ef57c778320fdc3fd195c5eeb00e3", "blocktime": 1537873891, "version": 1, "confirmations": 11478, "time": 1537873891, "locktime": 0, "vsize": 225, "size": 225}