{"hash": "63a3fa3a647be7da721881c73675d4d8042f0be5fcdbb1035f5ed368b9fae700", "blockhash": "0000000000000000001f76057863aec43deb6fa401d9628bb513d65a8098bfab", "vout": [{"scriptPubKey": {"reqSigs": 1, "hex": "a9141041002f0a63796347d70b4e3cbf9c14dad1106987", "addresses": ["33AxbwbST1kKAmJyEbYxp8N5bta3xYjetM"], "asm": "OP_HASH160 1041002f0a63796347d70b4e3cbf9c14dad11069 OP_EQUAL", "type": "scripthash"}, "value": 0.15757859, "n": 0}, {"scriptPubKey": {"reqSigs": 1, "hex": "a91426f3a697dbcb1dda8c2adefd69c42c3e0d0c1b5687", "addresses": ["35EyUz4DooKV2EN9MFDpBimKGzr8Ta8P5d"], "asm": "OP_HASH160 26f3a697dbcb1dda8c2adefd69c42c3e0d0c1b56 OP_EQUAL", "type": "scripthash"}, "value": 0.0037, "n": 1}, {"scriptPubKey": {"reqSigs": 1, "hex": "0020701a8d401c84fb13e6baf169d59684e17abd9fa216c8cc5b9fc63d622ff8c58d", "addresses": ["bc1qwqdg6squsna38e46795at95yu9atm8azzmyvckulcc7kytlcckxswvvzej"], "asm": "0 701a8d401c84fb13e6baf169d59684e17abd9fa216c8cc5b9fc63d622ff8c58d", "type": "witness_v0_scripthash"}, "value": 0.06897736, "n": 2}], "hex": "01000000000101c919c7f65c26645b41e87cc718f4212d61b0000ab4d8fa356bf659a511eea0f40100000000ffffffff032372f0000000000017a9141041002f0a63796347d70b4e3cbf9c14dad110698750a505000000000017a91426f3a697dbcb1dda8c2adefd69c42c3e0d0c1b56874840690000000000220020701a8d401c84fb13e6baf169d59684e17abd9fa216c8cc5b9fc63d622ff8c58d0400483045022100b47f5dc9b935e3c0bb23ef40e09af3b96c84736c18221736077d5c4f65ebd4d8022015524f69b22f04cf57743fdb7d462dbcfd9bd43aa34a795a062d955728afc2f90147304402205cbdb962fac5f02180fa15561378a72b3b352de0260a837cb9f07e6bed65cc0e02206465ba4a95a95846998a98c8e9dfd345cfa1245e2e4767deee7ad6f339997b97016952210375e00eb72e29da82b89367947f29ef34afb75e8654f6ea368e0acdfd92976b7c2103a1b26313f430c4b15bb1fdce663207659d8cac749a0e53d70eff01874496feff2103c96d495bfdd5ba4145e3e046fee45e84a8a48ad05bd8dbb395c011a32cf9f88053ae00000000", "vin": [{"txinwitness": ["", "3045022100b47f5dc9b935e3c0bb23ef40e09af3b96c84736c18221736077d5c4f65ebd4d8022015524f69b22f04cf57743fdb7d462dbcfd9bd43aa34a795a062d955728afc2f901", "304402205cbdb962fac5f02180fa15561378a72b3b352de0260a837cb9f07e6bed65cc0e02206465ba4a95a95846998a98c8e9dfd345cfa1245e2e4767deee7ad6f339997b9701", "52210375e00eb72e29da82b89367947f29ef34afb75e8654f6ea368e0acdfd92976b7c2103a1b26313f430c4b15bb1fdce663207659d8cac749a0e53d70eff01874496feff2103c96d495bfdd5ba4145e3e046fee45e84a8a48ad05bd8dbb395c011a32cf9f88053ae"], "sequence": 4294967295, "scriptSig": {"hex": "", "asm": ""}, "vout": 1, "txid": "f4a0ee11a559f66b35fad8b40a00b0612d21f418c77ce8415b64265cf6c719c9"}], "txid": "7ce72e9625a8e5abff36cb81b0920d5f56fde5eacc5c00648b1b944ae7b25cb9", "blocktime": 1537873891, "version": 1, "confirmations": 11474, "time": 1537873891, "locktime": 0, "vsize": 222, "size": 413}