{"hash": "68a5de33a3c156d7bf232432597e411526a28a06e3ff4e5b10643c61b4f5636c", "blockhash": "0000000000000000000e13cef7c366c0283d82e591d1acd082e914b08063cdf1", "vout": [{"scriptPubKey": {"reqSigs": 1, "hex": "a9142940223e5e83a4763b76d39a08dc34fccacb627487", "addresses": ["35T8TW18ocfVYqw9V343KpwGkkGLfkKYTc"], "asm": "OP_HASH160 2940223e5e83a4763b76d39a08dc34fccacb6274 OP_EQUAL", "type": "scripthash"}, "value": 0.00497972, "n": 0}, {"scriptPubKey": {"reqSigs": 1, "hex": "76a914501c2cb0f401c6118b9150f2bbc23c2f3273c1da88ac", "addresses": ["18Jaox7aGnCUsSpoaGxbqHhZeemvVKJsGE"], "asm": "OP_DUP OP_HASH160 501c2cb0f401c6118b9150f2bbc23c2f3273c1da OP_EQUALVERIFY OP_CHECKSIG", "type": "pubkeyhash"}, "value": 1.995, "n": 1}], "hex": "0100000000010121082cf43d6322f7d29cb543483b807428b81988f48228eb5832a6c13ac15e2201000000171600145ba68c6eae000dced9ef8e63d5c6c5d0df519498ffffffff02349907000000000017a9142940223e5e83a4763b76d39a08dc34fccacb627487e020e40b000000001976a914501c2cb0f401c6118b9150f2bbc23c2f3273c1da88ac02483045022100dc3e4a51688c1a9ece92a81340002d71625489622af3a50311b17f561dbb021a02201ada84365f7248a132ffa26b1c3db7def8fae6e92d37263150eaebb7209a1709012103c15fb324720398c4f9686cf006d494e7117adb19b4ea2d15e324603486e99a7200000000", "vin": [{"txinwitness": ["3045022100dc3e4a51688c1a9ece92a81340002d71625489622af3a50311b17f561dbb021a02201ada84365f7248a132ffa26b1c3db7def8fae6e92d37263150eaebb7209a170901", "03c15fb324720398c4f9686cf006d494e7117adb19b4ea2d15e324603486e99a72"], "sequence": 4294967295, "scriptSig": {"hex": "1600145ba68c6eae000dced9ef8e63d5c6c5d0df519498", "asm": "00145ba68c6eae000dced9ef8e63d5c6c5d0df519498"}, "vout": 1, "txid": "225ec13ac1a63258eb2882f48819b82874803b4843b59cd2f722633df42c0821"}], "txid": "7cea612ee37ae081447e71f3db5f8d95d219da6d88fe0a9fa9a1426a51b392e5", "blocktime": 1537871767, "version": 1, "confirmations": 11493, "time": 1537871767, "locktime": 0, "vsize": 168, "size": 250}