{"hash": "c01812be91cb599f13f529a2ac17980bc782b0f4f08b160b6e4483bca92e9eff", "blockhash": "0000000000000000000baef3f32e3676a92c3b2e5da21b426e4f302fc371ce76", "vout": [{"scriptPubKey": {"reqSigs": 1, "hex": "a9144af7559328123e73826bc589af95475c7d820cd987", "addresses": ["38XQDprzjuyhtA7rHzVEjh55RVaLHFeqaZ"], "asm": "OP_HASH160 4af7559328123e73826bc589af95475c7d820cd9 OP_EQUAL", "type": "scripthash"}, "value": 0.0011587, "n": 0}, {"scriptPubKey": {"reqSigs": 1, "hex": "a9140be7846be16b05bea00dbec2fcd7e045a793cb1787", "addresses": ["32mxhko5mJHfkbkDPpz7SfdJwEJi21P1WK"], "asm": "OP_HASH160 0be7846be16b05bea00dbec2fcd7e045a793cb17 OP_EQUAL", "type": "scripthash"}, "value": 0.17991534, "n": 1}], "hex": "0100000000010177f8a39bc861934e92aff8150af70b24e1169e2535fc138ae467ca39fce3408201000000232200202c66ece6da72bcbfeadf83a91236f4891c13e14d8ecebdcaa81666fc1aa73a31ffffffff029ec401000000000017a9144af7559328123e73826bc589af95475c7d820cd9876e8712010000000017a9140be7846be16b05bea00dbec2fcd7e045a793cb1787040047304402207eaeca9a54722b900862f17f2fa61e2f9848eeef7c4aff213e578cdd4f68c363022022a0421211bc5a72b4c89bab01247a8fac64e08a65fbd1ecfaab5defa9e5ba3d0147304402207e72358ae761e92f38f41d48f9a94f38fd0889ef8665fa39ca7fa4b0086ac6b402201f6c32410ff23a3a55eba13fdfc7cf0af1276d87532c4f421843e6171e9805b001475221029e6fbb942d34a473faaa5557c1bfe08d72102f0b9754ad140fd369d7a3ba3cdc2103871fc2ca08e6950b38867e8e6a0e94ee625223d3aa0df5c65f414c6d784467e252ae00000000", "vin": [{"txinwitness": ["", "304402207eaeca9a54722b900862f17f2fa61e2f9848eeef7c4aff213e578cdd4f68c363022022a0421211bc5a72b4c89bab01247a8fac64e08a65fbd1ecfaab5defa9e5ba3d01", "304402207e72358ae761e92f38f41d48f9a94f38fd0889ef8665fa39ca7fa4b0086ac6b402201f6c32410ff23a3a55eba13fdfc7cf0af1276d87532c4f421843e6171e9805b001", "5221029e6fbb942d34a473faaa5557c1bfe08d72102f0b9754ad140fd369d7a3ba3cdc2103871fc2ca08e6950b38867e8e6a0e94ee625223d3aa0df5c65f414c6d784467e252ae"], "sequence": 4294967295, "scriptSig": {"hex": "2200202c66ece6da72bcbfeadf83a91236f4891c13e14d8ecebdcaa81666fc1aa73a31", "asm": "00202c66ece6da72bcbfeadf83a91236f4891c13e14d8ecebdcaa81666fc1aa73a31"}, "vout": 1, "txid": "8240e3fc39ca67e48a13fc35259e16e1240bf70a15f8af924e9361c89ba3f877"}], "txid": "7cea9b26d81c035606ad3063aa836f1a59d05c6ddb4b7bfa606ec5018030a8a1", "blocktime": 1537876114, "version": 1, "confirmations": 11460, "time": 1537876114, "locktime": 0, "vsize": 205, "size": 370}