{"hash": "7cec02e72e89b98a1ee19b6271371378b343403a971f7433d9182ed93575fb5e", "blockhash": "0000000000000000000baef3f32e3676a92c3b2e5da21b426e4f302fc371ce76", "vout": [{"scriptPubKey": {"reqSigs": 1, "hex": "76a91491ccc089373d7491292dfaf200cfffa8145e558588ac", "addresses": ["1EHvGEwLXkgDQac6jJuDuytYvGbxaj6HsQ"], "asm": "OP_DUP OP_HASH160 91ccc089373d7491292dfaf200cfffa8145e5585 OP_EQUALVERIFY OP_CHECKSIG", "type": "pubkeyhash"}, "value": 0.02019728, "n": 0}, {"scriptPubKey": {"reqSigs": 1, "hex": "76a914fae04ed700b9c3460e516690f400da33b394902388ac", "addresses": ["1PsWe9cRXPCph8feP6EpuZSQps9hqGkQSv"], "asm": "OP_DUP OP_HASH160 fae04ed700b9c3460e516690f400da33b3949023 OP_EQUALVERIFY OP_CHECKSIG", "type": "pubkeyhash"}, "value": 0.19159794, "n": 1}], "hex": "02000000015e2945186af4eb218f78eb7a27f6c24b8b2ab033b2d532bdfc333eb18adc281e000000006b483045022100f8d92ac0d55c494496aafbf61da41c78916c7ca1aa93d751557ae0d470e06cbf0220699f3071f1ed045b013b30c6af12c40b8e2249eef216c5eb64b1d4440bb75aab0121031c4e8c69173a3c7ab98c57c41e8b6668bf5256c1c9936a9e602bb7f398901abcfeffffff0290d11e00000000001976a91491ccc089373d7491292dfaf200cfffa8145e558588acf25a2401000000001976a914fae04ed700b9c3460e516690f400da33b394902388ac17490800", "vin": [{"sequence": 4294967294, "scriptSig": {"hex": "483045022100f8d92ac0d55c494496aafbf61da41c78916c7ca1aa93d751557ae0d470e06cbf0220699f3071f1ed045b013b30c6af12c40b8e2249eef216c5eb64b1d4440bb75aab0121031c4e8c69173a3c7ab98c57c41e8b6668bf5256c1c9936a9e602bb7f398901abc", "asm": "3045022100f8d92ac0d55c494496aafbf61da41c78916c7ca1aa93d751557ae0d470e06cbf0220699f3071f1ed045b013b30c6af12c40b8e2249eef216c5eb64b1d4440bb75aab[ALL] 031c4e8c69173a3c7ab98c57c41e8b6668bf5256c1c9936a9e602bb7f398901abc"}, "vout": 0, "txid": "1e28dc8ab13e33fcbd32d5b233b02a8b4bc2f6277aeb788f21ebf46a1845295e"}], "txid": "7cec02e72e89b98a1ee19b6271371378b343403a971f7433d9182ed93575fb5e", "blocktime": 1537876114, "version": 2, "confirmations": 11459, "time": 1537876114, "locktime": 542999, "vsize": 226, "size": 226}