{"hash": "7cefaec6baa70d5f509fe0e91786a70dddccb3c40557e31b2b9f0b1c2f42a72f", "blockhash": "0000000000000000001e0dab787dd257d1dbfcb92a98c2207d5e1078be1f4165", "vout": [{"scriptPubKey": {"reqSigs": 1, "hex": "76a91464e20071fee74a7d0e3bdd689e16112754a2d20188ac", "addresses": ["1ACRK4S7Gy1ZtJNZw57JuDwiCCEtcCEyZN"], "asm": "OP_DUP OP_HASH160 64e20071fee74a7d0e3bdd689e16112754a2d201 OP_EQUALVERIFY OP_CHECKSIG", "type": "pubkeyhash"}, "value": 0.00537909, "n": 0}, {"scriptPubKey": {"reqSigs": 1, "hex": "76a9146586ced214191eaee684bf8787713d2671eff5aa88ac", "addresses": ["1AFpjzWNNtmMamjbbSSNLiVdktzrYMspCQ"], "asm": "OP_DUP OP_HASH160 6586ced214191eaee684bf8787713d2671eff5aa OP_EQUALVERIFY OP_CHECKSIG", "type": "pubkeyhash"}, "value": 0.29487932, "n": 1}], "hex": "0200000001fdb644a4c06a0f021837d5b9b4e8ddcbb29d969d26e1f552dd7535d5f66939d0010000006b483045022100f13ce267f31fe870363742f47f62e6191bd3168372f1d2e584150071ce8b85a20220304438a8f25e3a58f3438bb8ab0aff3a3116c877ecd590277c6fdd45a7bb3d1a01210210dac65f236a05432a1dbd2f909aa1c6e1870304203e734e8d07db9b57443d46ffffffff0235350800000000001976a91464e20071fee74a7d0e3bdd689e16112754a2d20188ac3cf3c101000000001976a9146586ced214191eaee684bf8787713d2671eff5aa88ac00000000", "vin": [{"sequence": 4294967295, "scriptSig": {"hex": "483045022100f13ce267f31fe870363742f47f62e6191bd3168372f1d2e584150071ce8b85a20220304438a8f25e3a58f3438bb8ab0aff3a3116c877ecd590277c6fdd45a7bb3d1a01210210dac65f236a05432a1dbd2f909aa1c6e1870304203e734e8d07db9b57443d46", "asm": "3045022100f13ce267f31fe870363742f47f62e6191bd3168372f1d2e584150071ce8b85a20220304438a8f25e3a58f3438bb8ab0aff3a3116c877ecd590277c6fdd45a7bb3d1a[ALL] 0210dac65f236a05432a1dbd2f909aa1c6e1870304203e734e8d07db9b57443d46"}, "vout": 1, "txid": "d03969f6d53575dd52f5e1269d969db2cbdde8b4b9d53718020f6ac0a444b6fd"}], "txid": "7cefaec6baa70d5f509fe0e91786a70dddccb3c40557e31b2b9f0b1c2f42a72f", "blocktime": 1537872475, "version": 2, "confirmations": 11486, "time": 1537872475, "locktime": 0, "vsize": 226, "size": 226}