{"hash": "7cf12bddf61aae51074b30d34ed84cf59ce4ca6567a18ee98f899af3f600a44c", "blockhash": "0000000000000000000dcc0f55137456b1a82d3642486a52398922ac4d620174", "vout": [{"scriptPubKey": {"reqSigs": 1, "hex": "76a914ead7f1ebba711181f13b4dd1afebe4a5a65615ef88ac", "addresses": ["1NQjp1bF2yAxZ5Ab6NsBFW7C7hALsNZBTQ"], "asm": "OP_DUP OP_HASH160 ead7f1ebba711181f13b4dd1afebe4a5a65615ef OP_EQUALVERIFY OP_CHECKSIG", "type": "pubkeyhash"}, "value": 0.0010864, "n": 0}, {"scriptPubKey": {"type": "nulldata", "hex": "6a4c50000077760001289af6db5aa7155404994516bcbefa6b8351586b4e86aeaeacb577c031fc4be3474d14b6f32469216d99516ca4025baa09660614909024164bf4bc9a9526289ac0f6612cd74e33776ee4", "asm": "OP_RETURN 000077760001289af6db5aa7155404994516bcbefa6b8351586b4e86aeaeacb577c031fc4be3474d14b6f32469216d99516ca4025baa09660614909024164bf4bc9a9526289ac0f6612cd74e33776ee4"}, "value": 0.0, "n": 1}], "hex": "01000000015b68d67f624815d72b373ef7083200749d561b7f98c5a4b2a0f07e188896942e000000006b48304502210088622b4ea844285772927d21261cd8cf793c52c1154e341d692bd739ff8de11f02204ab120fe0c66b8f7980c9b6878a5b31a10836b908627d0c50bb779793baa28d50121034260c03566b1e51f6f45508ea51c0928f5a7d66d4b29fc24793ab001f6dce93cffffffff0260a80100000000001976a914ead7f1ebba711181f13b4dd1afebe4a5a65615ef88ac0000000000000000536a4c50000077760001289af6db5aa7155404994516bcbefa6b8351586b4e86aeaeacb577c031fc4be3474d14b6f32469216d99516ca4025baa09660614909024164bf4bc9a9526289ac0f6612cd74e33776ee400000000", "vin": [{"sequence": 4294967295, "scriptSig": {"hex": "48304502210088622b4ea844285772927d21261cd8cf793c52c1154e341d692bd739ff8de11f02204ab120fe0c66b8f7980c9b6878a5b31a10836b908627d0c50bb779793baa28d50121034260c03566b1e51f6f45508ea51c0928f5a7d66d4b29fc24793ab001f6dce93c", "asm": "304502210088622b4ea844285772927d21261cd8cf793c52c1154e341d692bd739ff8de11f02204ab120fe0c66b8f7980c9b6878a5b31a10836b908627d0c50bb779793baa28d5[ALL] 034260c03566b1e51f6f45508ea51c0928f5a7d66d4b29fc24793ab001f6dce93c"}, "vout": 0, "txid": "2e949688187ef0a0b2a4c5987f1b569d74003208f73e372bd71548627fd6685b"}], "txid": "7cf12bddf61aae51074b30d34ed84cf59ce4ca6567a18ee98f899af3f600a44c", "blocktime": 1537870268, "version": 1, "confirmations": 11518, "time": 1537870268, "locktime": 0, "vsize": 284, "size": 284}