{"hash": "7cf27a799dc6daf0963577b747d839d3ae7d2e9a9bb3dcde536629ecf1e448dc", "blockhash": "00000000000000000018f53835495a110e01622372bf6ae95dc86f2b0ab887b0", "vout": [{"scriptPubKey": {"reqSigs": 1, "hex": "76a9145bbf32c10e60956f30f563f9b92f356dbd4841a388ac", "addresses": ["19N7Y9NwBn1hBeMLLSfVkXDDhtmv5fiXDs"], "asm": "OP_DUP OP_HASH160 5bbf32c10e60956f30f563f9b92f356dbd4841a3 OP_EQUALVERIFY OP_CHECKSIG", "type": "pubkeyhash"}, "value": 2.34094817, "n": 0}, {"scriptPubKey": {"reqSigs": 1, "hex": "76a914bae025140c454518b8cba0c25d45a6dc87f4b9ce88ac", "addresses": ["1J37CY8hcdUXQ1KfBhMCsUVafa8XjDsdCn"], "asm": "OP_DUP OP_HASH160 bae025140c454518b8cba0c25d45a6dc87f4b9ce OP_EQUALVERIFY OP_CHECKSIG", "type": "pubkeyhash"}, "value": 4.55996993, "n": 1}], "hex": "010000000295540953172d81ff8f34d73f2da72ecb07f9665e718c0cf6570bf3c5565c30b2010000008b483045022100b6fd776e8587719849a0f9a3092aa5dbd7e642f66531aa7b2328a12311a17c43022028f4cbd01aa00086511ee30794291fc868d19bba0ddcf38d84e36cedb97097c7014104025a1cffe502a80dfa1f543ae14c082aff24d5ecadab160ca904d288eed8e3d8cacef0985f690868df4f416c3890909b4c0c843da153d41382ac20c80170240affffffff84c341814b57f3fa57c90363c65f29b9e74da9ea9f79fce783533798302d0a04010000008a473044022070f504a9ec3e6dc5a82d357fe01741909aad820476b706e91f14b6ff09eb3bf302207c2d20964ef717150ee776cfde6e05d406ccd3c2f338d805b78c87cbeed4b421014104025a1cffe502a80dfa1f543ae14c082aff24d5ecadab160ca904d288eed8e3d8cacef0985f690868df4f416c3890909b4c0c843da153d41382ac20c80170240affffffff02e100f40d000000001976a9145bbf32c10e60956f30f563f9b92f356dbd4841a388ac41f62d1b000000001976a914bae025140c454518b8cba0c25d45a6dc87f4b9ce88ac00000000", "vin": [{"sequence": 4294967295, "scriptSig": {"hex": "483045022100b6fd776e8587719849a0f9a3092aa5dbd7e642f66531aa7b2328a12311a17c43022028f4cbd01aa00086511ee30794291fc868d19bba0ddcf38d84e36cedb97097c7014104025a1cffe502a80dfa1f543ae14c082aff24d5ecadab160ca904d288eed8e3d8cacef0985f690868df4f416c3890909b4c0c843da153d41382ac20c80170240a", "asm": "3045022100b6fd776e8587719849a0f9a3092aa5dbd7e642f66531aa7b2328a12311a17c43022028f4cbd01aa00086511ee30794291fc868d19bba0ddcf38d84e36cedb97097c7[ALL] 04025a1cffe502a80dfa1f543ae14c082aff24d5ecadab160ca904d288eed8e3d8cacef0985f690868df4f416c3890909b4c0c843da153d41382ac20c80170240a"}, "vout": 1, "txid": "b2305c56c5f30b57f60c8c715e66f907cb2ea72d3fd7348fff812d1753095495"}, {"sequence": 4294967295, "scriptSig": {"hex": "473044022070f504a9ec3e6dc5a82d357fe01741909aad820476b706e91f14b6ff09eb3bf302207c2d20964ef717150ee776cfde6e05d406ccd3c2f338d805b78c87cbeed4b421014104025a1cffe502a80dfa1f543ae14c082aff24d5ecadab160ca904d288eed8e3d8cacef0985f690868df4f416c3890909b4c0c843da153d41382ac20c80170240a", "asm": "3044022070f504a9ec3e6dc5a82d357fe01741909aad820476b706e91f14b6ff09eb3bf302207c2d20964ef717150ee776cfde6e05d406ccd3c2f338d805b78c87cbeed4b421[ALL] 04025a1cffe502a80dfa1f543ae14c082aff24d5ecadab160ca904d288eed8e3d8cacef0985f690868df4f416c3890909b4c0c843da153d41382ac20c80170240a"}, "vout": 1, "txid": "040a2d3098375383e7fc799feaa94de7b9295fc66303c957faf3574b8141c384"}], "txid": "7cf27a799dc6daf0963577b747d839d3ae7d2e9a9bb3dcde536629ecf1e448dc", "blocktime": 1537870928, "version": 1, "confirmations": 11512, "time": 1537870928, "locktime": 0, "vsize": 437, "size": 437}