{"hash": "b0bbe3b66110fa2406f7947067d847193b81874dbb21d4cf40759e5c32e050cd", "blockhash": "0000000000000000001f0ddff1eddb255c1121bcd4da4f1bc9a0da00cae72433", "vout": [{"scriptPubKey": {"reqSigs": 1, "hex": "a9143e479add909465d12d6ac244c2d4d1b29a2d89a787", "addresses": ["37NKbdqVgy9UyhbcsXp4NJ24EudNxfWb9u"], "asm": "OP_HASH160 3e479add909465d12d6ac244c2d4d1b29a2d89a7 OP_EQUAL", "type": "scripthash"}, "value": 0.05494826, "n": 0}, {"scriptPubKey": {"reqSigs": 1, "hex": "76a9141f5f5322705846884652a7521059a105ee80c2b388ac", "addresses": ["13rt9E7ZJ9CSHFK2CNwjBrivCm6mBqUBrq"], "asm": "OP_DUP OP_HASH160 1f5f5322705846884652a7521059a105ee80c2b3 OP_EQUALVERIFY OP_CHECKSIG", "type": "pubkeyhash"}, "value": 0.031, "n": 1}], "hex": "0200000000010142925044d05a22bd5bc5ae586760bff68b0aeb2dd40b5a14e8fff63285dc3dec00000000171600147cc081de8403014f0b9464f57f768f2c8eaaa9bafeffffff022ad853000000000017a9143e479add909465d12d6ac244c2d4d1b29a2d89a787604d2f00000000001976a9141f5f5322705846884652a7521059a105ee80c2b388ac02483045022100f85b1d79f3cb002dacb83e78e24e7a572c75e55669748e2ef92250d832cf832b02200d5eb64023f7171476365ed9b191d17d6815af2d4cc618393489ea0ce66d93b50121032e07c6b0ad152ae4923cae9110ca416e03da0722702b2b3f81e48a64f1d4fbfd0f490800", "vin": [{"txinwitness": ["3045022100f85b1d79f3cb002dacb83e78e24e7a572c75e55669748e2ef92250d832cf832b02200d5eb64023f7171476365ed9b191d17d6815af2d4cc618393489ea0ce66d93b501", "032e07c6b0ad152ae4923cae9110ca416e03da0722702b2b3f81e48a64f1d4fbfd"], "sequence": 4294967294, "scriptSig": {"hex": "1600147cc081de8403014f0b9464f57f768f2c8eaaa9ba", "asm": "00147cc081de8403014f0b9464f57f768f2c8eaaa9ba"}, "vout": 0, "txid": "ec3ddc8532f6ffe8145a0bd42deb0a8bf6bf606758aec55bbd225ad044509242"}], "txid": "7cf729dab2ce3b7521baf9cef809c9823da01e1c0d986960b86756ed991bdc47", "blocktime": 1537872018, "version": 2, "confirmations": 11489, "time": 1537872018, "locktime": 542991, "vsize": 168, "size": 250}