{"hash": "7cf8c00da8f2ea43449b71c1593baee70b4da113c3caedcdb97d71702fadd51c", "blockhash": "0000000000000000001cda96e906b7601b7a6fb1a3b62bca570a9e5d8f4b3de1", "vout": [{"scriptPubKey": {"reqSigs": 1, "hex": "00147a019321e23d1ad75112058d6fc73ab5cfc16eac", "addresses": ["bc1q0gqexg0z85ddw5gjqkxkl3e6kh8uzm4vls4lwl"], "asm": "0 7a019321e23d1ad75112058d6fc73ab5cfc16eac", "type": "witness_v0_keyhash"}, "value": 3.475e-05, "n": 0}, {"scriptPubKey": {"reqSigs": 1, "hex": "76a91443b8116dbe136cf897a8456d06e04d52c61057aa88ac", "addresses": ["17B4n8NaBJXY8Wp4EYUXHpukRRvwpSL4iS"], "asm": "OP_DUP OP_HASH160 43b8116dbe136cf897a8456d06e04d52c61057aa OP_EQUALVERIFY OP_CHECKSIG", "type": "pubkeyhash"}, "value": 0.00206793, "n": 1}], "hex": "0100000001c13c83bcc3caff127d10030d95e98053a99ff81984d208715be68eca5949a15d4c0000006b4830450221008201353a66e1f8408d1ac7bb70981b62155946b9f073f5d2c3e15b74cc1ce093022044be1ed0b4127fdc8946c2487c59d58eff1d190fdcad1f46c59a6fd446cf8da9012102da916abb33dd0bcccf31a5790681db048376cfabd12f22c8c34edc7113025512ffffffff02930d0000000000001600147a019321e23d1ad75112058d6fc73ab5cfc16eacc9270300000000001976a91443b8116dbe136cf897a8456d06e04d52c61057aa88ac00000000", "vin": [{"sequence": 4294967295, "scriptSig": {"hex": "4830450221008201353a66e1f8408d1ac7bb70981b62155946b9f073f5d2c3e15b74cc1ce093022044be1ed0b4127fdc8946c2487c59d58eff1d190fdcad1f46c59a6fd446cf8da9012102da916abb33dd0bcccf31a5790681db048376cfabd12f22c8c34edc7113025512", "asm": "30450221008201353a66e1f8408d1ac7bb70981b62155946b9f073f5d2c3e15b74cc1ce093022044be1ed0b4127fdc8946c2487c59d58eff1d190fdcad1f46c59a6fd446cf8da9[ALL] 02da916abb33dd0bcccf31a5790681db048376cfabd12f22c8c34edc7113025512"}, "vout": 76, "txid": "5da14959ca8ee65b7108d28419f89fa95380e9950d03107d12ffcac3bc833cc1"}], "txid": "7cf8c00da8f2ea43449b71c1593baee70b4da113c3caedcdb97d71702fadd51c", "blocktime": 1537873282, "version": 1, "confirmations": 11484, "time": 1537873282, "locktime": 0, "vsize": 223, "size": 223}