{"hash": "7cf90a0ce41e21f555aec8ee08e71118c70c0cfc8a75903b0a2da00f1e02a43b", "blockhash": "00000000000000000004ffacab907a6b429b9a5745fa0b75af4234bf69dd7176", "vout": [{"scriptPubKey": {"reqSigs": 1, "hex": "76a9148a7277ac29e10e5753cfc158789b0050c8db4af288ac", "addresses": ["1Dd3Np6DxeB1vsTtULpdEEZyYMHef78Wg2"], "asm": "OP_DUP OP_HASH160 8a7277ac29e10e5753cfc158789b0050c8db4af2 OP_EQUALVERIFY OP_CHECKSIG", "type": "pubkeyhash"}, "value": 0.00453252, "n": 0}, {"scriptPubKey": {"reqSigs": 1, "hex": "76a9146586ced214191eaee684bf8787713d2671eff5aa88ac", "addresses": ["1AFpjzWNNtmMamjbbSSNLiVdktzrYMspCQ"], "asm": "OP_DUP OP_HASH160 6586ced214191eaee684bf8787713d2671eff5aa OP_EQUALVERIFY OP_CHECKSIG", "type": "pubkeyhash"}, "value": 0.22646648, "n": 1}], "hex": "0200000001d26b17a4f117b386825a137f86609ee0d15dd932abc8616b678cd40fc45f8e0a010000006b4830450221008707b4d8f58fdb034928d7d3c9d588fc8e697009b98bf7c79a27755a4a50c681022051d5840a51d45092899e7cb8c97283101899f264200309ceb032a23f352a652601210210dac65f236a05432a1dbd2f909aa1c6e1870304203e734e8d07db9b57443d46ffffffff0284ea0600000000001976a9148a7277ac29e10e5753cfc158789b0050c8db4af288ac788f5901000000001976a9146586ced214191eaee684bf8787713d2671eff5aa88ac00000000", "vin": [{"sequence": 4294967295, "scriptSig": {"hex": "4830450221008707b4d8f58fdb034928d7d3c9d588fc8e697009b98bf7c79a27755a4a50c681022051d5840a51d45092899e7cb8c97283101899f264200309ceb032a23f352a652601210210dac65f236a05432a1dbd2f909aa1c6e1870304203e734e8d07db9b57443d46", "asm": "30450221008707b4d8f58fdb034928d7d3c9d588fc8e697009b98bf7c79a27755a4a50c681022051d5840a51d45092899e7cb8c97283101899f264200309ceb032a23f352a6526[ALL] 0210dac65f236a05432a1dbd2f909aa1c6e1870304203e734e8d07db9b57443d46"}, "vout": 1, "txid": "0a8e5fc40fd48c676b61c8ab32d95dd1e09e60867f135a8286b317f1a4176bd2"}], "txid": "7cf90a0ce41e21f555aec8ee08e71118c70c0cfc8a75903b0a2da00f1e02a43b", "blocktime": 1537875543, "version": 2, "confirmations": 11464, "time": 1537875543, "locktime": 0, "vsize": 226, "size": 226}