{"hash": "cee0ab4df56540c8ea343f65246e8e7d709930a590c331f070d215d9ab6bb3f4", "blockhash": "00000000000000000004ffacab907a6b429b9a5745fa0b75af4234bf69dd7176", "vout": [{"scriptPubKey": {"reqSigs": 1, "hex": "a914a7b65d909125eb3a5b5992aab0c6cde64ec20b0887", "addresses": ["3GyoEZBMfkfZpbPYyxyZ5wxXbN31DVx7in"], "asm": "OP_HASH160 a7b65d909125eb3a5b5992aab0c6cde64ec20b08 OP_EQUAL", "type": "scripthash"}, "value": 0.029, "n": 0}, {"scriptPubKey": {"reqSigs": 1, "hex": "a914e184207da296ccf34291da5912c137fb70edbf6c87", "addresses": ["3NFSF3YkFGoisHcnhdfkeU4CZsYSCYAnoi"], "asm": "OP_HASH160 e184207da296ccf34291da5912c137fb70edbf6c OP_EQUAL", "type": "scripthash"}, "value": 0.01003734, "n": 1}], "hex": "02000000000101eb4f2940ed2517b763c1f3fe6d9dacd8016ef48ac6f7ed55cec46cc533097f1d0000000017160014f09b61630bc717ea02e4b8f73f88ee492ef7da1afeffffff0220402c000000000017a914a7b65d909125eb3a5b5992aab0c6cde64ec20b0887d6500f000000000017a914e184207da296ccf34291da5912c137fb70edbf6c870248304502210094050fe3d5d3191c75dffbe8a43a9db71a7ccf942086c06617571fe7965ca95f02202780bfa900882bb62ccdb68e84aae689692d90e291f0e82e57705666754a963801210271d0b026a6fb6503b5ca0470f9ab80536a1f88560f132005304c6a7b5167064416490800", "vin": [{"txinwitness": ["304502210094050fe3d5d3191c75dffbe8a43a9db71a7ccf942086c06617571fe7965ca95f02202780bfa900882bb62ccdb68e84aae689692d90e291f0e82e57705666754a963801", "0271d0b026a6fb6503b5ca0470f9ab80536a1f88560f132005304c6a7b51670644"], "sequence": 4294967294, "scriptSig": {"hex": "160014f09b61630bc717ea02e4b8f73f88ee492ef7da1a", "asm": "0014f09b61630bc717ea02e4b8f73f88ee492ef7da1a"}, "vout": 0, "txid": "1d7f0933c56cc4ce55edf7c68af46e01d8ac9d6dfef3c163b71725ed40294feb"}], "txid": "7cfa258d12409d6479c49126eeb4d5c348b7787980309c48a826795721174f89", "blocktime": 1537875543, "version": 2, "confirmations": 11464, "time": 1537875543, "locktime": 542998, "vsize": 166, "size": 248}