{"hash": "4c1b5857db5f1b88e112d0870c2c43c1acc766063aa1aa5b08ddfc7ffc5522f1", "blockhash": "000000000000000000022b45ed06c6f4ccd3cf7fb5ba4856ebd2e58215665228", "vout": [{"scriptPubKey": {"reqSigs": 1, "hex": "76a9142ec26665da5ff908c6d3d39e50531a1ab8c50e5188ac", "addresses": ["15GExyQCxZZQhLKqBWkfgpB63YHwUkMRiZ"], "asm": "OP_DUP OP_HASH160 2ec26665da5ff908c6d3d39e50531a1ab8c50e51 OP_EQUALVERIFY OP_CHECKSIG", "type": "pubkeyhash"}, "value": 0.00018854, "n": 0}, {"scriptPubKey": {"reqSigs": 1, "hex": "a914adbd5349688194d005a14a6e2d13c00cbeeba88787", "addresses": ["3HXfdHWvxZSDVxpioMNZ6doomYvnqkXsDz"], "asm": "OP_HASH160 adbd5349688194d005a14a6e2d13c00cbeeba887 OP_EQUAL", "type": "scripthash"}, "value": 0.00032771, "n": 1}], "hex": "01000000000103535decbbbbc60c6746d93cde1980113789375864b95a5f70909523636a5a74720100000023220020fca44666f2b9daafbb89f103e3f0ebc1920011ad11d8d4fbc60b7f4ac77cdb0bfffffffff37d164589da0be3fa5378d030f0892161fac8cc9c3bbe3527dfbc98894b1c470100000023220020b13adb43604aa96d37d3e6c18a22e5b1faf7ceee584d5fdd37756a5feb1aca2dffffffff85cdf6e45b0a526ab3224644edceaae8e7fc3aa54f03f0930a5e52288b5183460100000023220020430568b5ef5b9689ad115096f98d3b2f6446f9a125303d6041accbf1971b2072ffffffff02a6490000000000001976a9142ec26665da5ff908c6d3d39e50531a1ab8c50e5188ac038000000000000017a914adbd5349688194d005a14a6e2d13c00cbeeba88787040048304502210093dcd1c90f8b350aa3f8bd4e44059487796b030571b8c2620f48e951ef95d7e90220712bb1aa3b00437d8a22a1bbf8dd2984b50647a43d4a0e89c64d903170615249014730440220193cfefe1f4ae7cac186a2259a8a7b27243b2652ce08e75ec17d07a24b57f0f90220341dd08f1aecfade903a3486a4027bc2c8030ed3e45fbe07f2cff74a41b19e960147522103db04c8c7ccdd30a18fd0e8aee1ae7c044f0cec76ea49386f0a75483a7cf762ae2102726ff74b232948bf3b0b4302934f660ce5f3375e3c0ec0ccd022a4260517f25a52ae0400473044022076cc572b2be8f0c88e48d51a8104edcba865ab6c67837c86e0795aef5b3adcf202206704ff4fca90432af0d2a65aa72136130ef79fe1cd0583ba036aa89dd569142701483045022100f3b18a34a2f0363c1a051082cb5b176e967e1a99db4c56780db01ed203a3b39b02205646d08cefb6d37fdf8f7396ab9322b8076bbeb4579f6ce9282d4dbcac3f2789014752210353424205fefb4d6f5d4f0054bdcf5f59b999e74c439ebab68de7c6377eb29c722102726ff74b232948bf3b0b4302934f660ce5f3375e3c0ec0ccd022a4260517f25a52ae0400483045022100f979b4a70271e1af28e11bba058c0be78cdc989d96ddfc61087d0e56eddb725202207233b0b8c4c7e7e7391181fc3b06fe4a67277a052a88784613948404dabc2bdb01473044022051fcd2a4431a4c8decd49aa011b32b5c8e5725d03733d072a607f841932d5d7002203a1aed9a3fd9d568cfac6dcac636d958992f35d8661c6d58266b2c4a6763edb80147522103082dd988758e2e1e608a4414d0678d96a0456f102621e765c7aa6b17428b96a82102726ff74b232948bf3b0b4302934f660ce5f3375e3c0ec0ccd022a4260517f25a52ae00000000", "vin": [{"txinwitness": ["", "304502210093dcd1c90f8b350aa3f8bd4e44059487796b030571b8c2620f48e951ef95d7e90220712bb1aa3b00437d8a22a1bbf8dd2984b50647a43d4a0e89c64d90317061524901", "30440220193cfefe1f4ae7cac186a2259a8a7b27243b2652ce08e75ec17d07a24b57f0f90220341dd08f1aecfade903a3486a4027bc2c8030ed3e45fbe07f2cff74a41b19e9601", "522103db04c8c7ccdd30a18fd0e8aee1ae7c044f0cec76ea49386f0a75483a7cf762ae2102726ff74b232948bf3b0b4302934f660ce5f3375e3c0ec0ccd022a4260517f25a52ae"], "sequence": 4294967295, "scriptSig": {"hex": "220020fca44666f2b9daafbb89f103e3f0ebc1920011ad11d8d4fbc60b7f4ac77cdb0b", "asm": "0020fca44666f2b9daafbb89f103e3f0ebc1920011ad11d8d4fbc60b7f4ac77cdb0b"}, "vout": 1, "txid": "72745a6a63239590705f5ab96458378937118019de3cd946670cc6bbbbec5d53"}, {"txinwitness": ["", "3044022076cc572b2be8f0c88e48d51a8104edcba865ab6c67837c86e0795aef5b3adcf202206704ff4fca90432af0d2a65aa72136130ef79fe1cd0583ba036aa89dd569142701", "3045022100f3b18a34a2f0363c1a051082cb5b176e967e1a99db4c56780db01ed203a3b39b02205646d08cefb6d37fdf8f7396ab9322b8076bbeb4579f6ce9282d4dbcac3f278901", "52210353424205fefb4d6f5d4f0054bdcf5f59b999e74c439ebab68de7c6377eb29c722102726ff74b232948bf3b0b4302934f660ce5f3375e3c0ec0ccd022a4260517f25a52ae"], "sequence": 4294967295, "scriptSig": {"hex": "220020b13adb43604aa96d37d3e6c18a22e5b1faf7ceee584d5fdd37756a5feb1aca2d", "asm": "0020b13adb43604aa96d37d3e6c18a22e5b1faf7ceee584d5fdd37756a5feb1aca2d"}, "vout": 1, "txid": "471c4b8998bcdf2735be3b9cccc8fa612189f030d07853fae30bda8945167df3"}, {"txinwitness": ["", "3045022100f979b4a70271e1af28e11bba058c0be78cdc989d96ddfc61087d0e56eddb725202207233b0b8c4c7e7e7391181fc3b06fe4a67277a052a88784613948404dabc2bdb01", "3044022051fcd2a4431a4c8decd49aa011b32b5c8e5725d03733d072a607f841932d5d7002203a1aed9a3fd9d568cfac6dcac636d958992f35d8661c6d58266b2c4a6763edb801", "522103082dd988758e2e1e608a4414d0678d96a0456f102621e765c7aa6b17428b96a82102726ff74b232948bf3b0b4302934f660ce5f3375e3c0ec0ccd022a4260517f25a52ae"], "sequence": 4294967295, "scriptSig": {"hex": "220020430568b5ef5b9689ad115096f98d3b2f6446f9a125303d6041accbf1971b2072", "asm": "0020430568b5ef5b9689ad115096f98d3b2f6446f9a125303d6041accbf1971b2072"}, "vout": 1, "txid": "4683518b28525e0a93f0034fa53afce7e8aaceed444622b36a520a5be4f6cd85"}], "txid": "7cff59b9aeabf7eb37086c0b6bc014bdebf6a60e6b43be48dfb01b1d2ed5cea9", "blocktime": 1537869901, "version": 1, "confirmations": 11524, "time": 1537869901, "locktime": 0, "vsize": 469, "size": 963}