{"hash": "7d00c17aaef51c715cf79ce0ed2b5cf2a1aa9271d955471d33932f11133e30b3", "blockhash": "000000000000000000205f8b0775d31398ef75b89a5e8ec8d2c57b4dc0ac4c20", "vout": [{"scriptPubKey": {"reqSigs": 1, "hex": "a914b2a5233ebea8aa3347d3ad6a6f450c91c105c15587", "addresses": ["3Hyc2f2avCGDq6D5zA29yXfywdsas5zrTi"], "asm": "OP_HASH160 b2a5233ebea8aa3347d3ad6a6f450c91c105c155 OP_EQUAL", "type": "scripthash"}, "value": 1.33265232, "n": 0}, {"scriptPubKey": {"reqSigs": 1, "hex": "76a914100cfc8802152097c7c47fe06b87469ea0cb542288ac", "addresses": ["12TsNPFgK7UCLc5zuDY7fiyQLX7UZSWw5q"], "asm": "OP_DUP OP_HASH160 100cfc8802152097c7c47fe06b87469ea0cb5422 OP_EQUALVERIFY OP_CHECKSIG", "type": "pubkeyhash"}, "value": 0.003, "n": 1}, {"scriptPubKey": {"reqSigs": 1, "hex": "76a914911fa73e2a7247443ea13267afc4113612698f2488ac", "addresses": ["1EELu8EYzV6z8p9dkT3D5RrME2wynoZUVa"], "asm": "OP_DUP OP_HASH160 911fa73e2a7247443ea13267afc4113612698f24 OP_EQUALVERIFY OP_CHECKSIG", "type": "pubkeyhash"}, "value": 0.06431671, "n": 2}, {"scriptPubKey": {"reqSigs": 1, "hex": "76a9144ff1dd0cc92c6b17913c2e29711cabf964fcc2ba88ac", "addresses": ["18Hi88AdCmc917BkPbW3mdTa4WiqDs9qEy"], "asm": "OP_DUP OP_HASH160 4ff1dd0cc92c6b17913c2e29711cabf964fcc2ba OP_EQUALVERIFY OP_CHECKSIG", "type": "pubkeyhash"}, "value": 0.0015, "n": 3}, {"scriptPubKey": {"reqSigs": 1, "hex": "a91498225be74e9eda4ff0202d43ca88ee68aba5328087", "addresses": ["3FZRo1MtW7aYHRr9bBZiGQS8wPo4izRgx8"], "asm": "OP_HASH160 98225be74e9eda4ff0202d43ca88ee68aba53280 OP_EQUAL", "type": "scripthash"}, "value": 0.05135455, "n": 4}], "hex": "020000000187922e03ffd9f38de45ff32f981b318c5077c4e312fb4ec09a6a8dbc748bf771000000006a47304402207215c946ef48b4eb1694416c6af80334e7c9c1f2fcc29f07b312f324afbb023f022066d4b25e8f04c2b2c009af4b1d4aedd4d0485e07d6581c018e36d543cbe8d9d20121027ebc1070fc6d694ad9128ce3dfb800e10035463d60016b5f9641b9e133f02222feffffff055077f1070000000017a914b2a5233ebea8aa3347d3ad6a6f450c91c105c15587e0930400000000001976a914100cfc8802152097c7c47fe06b87469ea0cb542288acb7236200000000001976a914911fa73e2a7247443ea13267afc4113612698f2488acf0490200000000001976a9144ff1dd0cc92c6b17913c2e29711cabf964fcc2ba88ac5f5c4e000000000017a91498225be74e9eda4ff0202d43ca88ee68aba53280870f490800", "vin": [{"sequence": 4294967294, "scriptSig": {"hex": "47304402207215c946ef48b4eb1694416c6af80334e7c9c1f2fcc29f07b312f324afbb023f022066d4b25e8f04c2b2c009af4b1d4aedd4d0485e07d6581c018e36d543cbe8d9d20121027ebc1070fc6d694ad9128ce3dfb800e10035463d60016b5f9641b9e133f02222", "asm": "304402207215c946ef48b4eb1694416c6af80334e7c9c1f2fcc29f07b312f324afbb023f022066d4b25e8f04c2b2c009af4b1d4aedd4d0485e07d6581c018e36d543cbe8d9d2[ALL] 027ebc1070fc6d694ad9128ce3dfb800e10035463d60016b5f9641b9e133f02222"}, "vout": 0, "txid": "71f78b74bc8d6a9ac04efb12e3c477508c311b982ff35fe48df3d9ff032e9287"}], "txid": "7d00c17aaef51c715cf79ce0ed2b5cf2a1aa9271d955471d33932f11133e30b3", "blocktime": 1537871175, "version": 2, "confirmations": 11511, "time": 1537871175, "locktime": 542991, "vsize": 323, "size": 323}