{"hash": "7d036167a0f8691a3dd774410d4a789fa73d268b2c70c4d04c0c991b21b5db94", "blockhash": "0000000000000000001cda96e906b7601b7a6fb1a3b62bca570a9e5d8f4b3de1", "vout": [{"scriptPubKey": {"reqSigs": 1, "hex": "76a91445cc39d538d64d4d6c7a2fc398015fe2f2b7f2d288ac", "addresses": ["17N4H6sgo5GCKoeQCwUUNJif8GK8im8VmN"], "asm": "OP_DUP OP_HASH160 45cc39d538d64d4d6c7a2fc398015fe2f2b7f2d2 OP_EQUALVERIFY OP_CHECKSIG", "type": "pubkeyhash"}, "value": 0.50390781, "n": 0}, {"scriptPubKey": {"reqSigs": 1, "hex": "76a9141623de665f7afa8d268a02c26d6d93511c6a5b9c88ac", "addresses": ["1324qRddXW1oNsZigkGFM5P4PBd3mSnLbr"], "asm": "OP_DUP OP_HASH160 1623de665f7afa8d268a02c26d6d93511c6a5b9c OP_EQUALVERIFY OP_CHECKSIG", "type": "pubkeyhash"}, "value": 8.0, "n": 1}], "hex": "0100000007c803f92cf9c4cd35676cbe7116b74bde5370ddae29e78079594ab25416ec5f06010000006a4730440220712e865a04aeb17251561aa9db74a93d643c098905eef7f4ae0d08af7daf46aa02201868b58149a621e4368417bb7168d0604ca03d595a8aefb30810da536ed74478012102a75fff89ca7a2d9dcfa405055ccfa1a15fe1be20ba33eef9bdcf7ed0545b7af4ffffffffb7c4e8d2aab913adb251da4e620ee5b0ceeeacd1a85e6017e6c7f7221d16a641000000006b483045022100d9d9e58488adde1376019610235421d71de7eda80998721b461c54649abf1b6102203342b3795fc4dd47638128250d84165d824217fc5b45f6d10ccdbaac8abc496e0121029f1a295a1fe174d0aa96f50d4f252dc769e52d6ea84b8d81851412d7e3c45db8ffffffffd777a87f7bcf9454b2bda6cceaaf582c910d04e57c4f405c6dd0c6a1bca9ab45010000006a47304402204fba42cbaf55a9c53a37d64b5e84cabb373b57d4c03a37d485463b0db398995202202c9453ec81a92a12379c17978fad8e9b6de846fbb7bae75cf0e74b5e3e5672d1012103cf18b9d93f71ad1da6e91a1ada10aaa0e9c6d16d543f38b08bcce69612ca553bffffffffdb3a809baa5438f01b89dcfb1c2be6bc10a705c60a612ff671f47c6be0f37d63010000006b483045022100f4f34b7d7ead3853aacbd322fac72d5129c9fa2bef131771a7fc40503dd119e5022046b4b79d136fcb0186a691cc60d756707c9ba15e38c6f8d8e2b6fe1aba8d02d40121020166432e8edd689599252a7c66ad56aadaee8bb875e79af906f5ff9c4e72c38bffffffffc7968f37e9c6599cc910473774f36e653ea495fd655fee1e0603125692c32b7c010000006a473044022053275fe68bb3bf063ffd19daeff00fcfd7eec38acc48023b3c462edec658690502207e1aed230ac0b1ef04b4f63fbcc7326cb21b0cd30443c292d7953fa1f58ac8fa01210313d5184734e1b3842318d206ba5efb720aed2951e9e450959ebd9e31fdd761c2ffffffff3e5349aa51d21fda00cfa59c8653b7ab01c7c185baffb997e034f8c588633482000000006b483045022100f2dca89600c404ebecf7694bce0b8d0f26dea2f88340ab1485f7a5a2ab095b8e022046b1fbe78c8b8ce802123e4125f470fdc87271811884e231b3f682cea342f64a012102dba4377e9baaeba3574b851aabac627bd2d3e8296c9c28b72ec03bc586e215d0ffffffff816fd6790411cc1aab3ecc5b0bf431d8fe7cbbe3b56b6ef3a99fb885f7c51ec6020000006a47304402202aaf4fc37a305448b9c2163dad34c00b689f7b1a55d70d88a330183af29e1eee022035c839ac59f89f9e60704dc42ef889104850ec428dbdc8aedc37c11e5bcef66e012102a75fff89ca7a2d9dcfa405055ccfa1a15fe1be20ba33eef9bdcf7ed0545b7af4ffffffff02fde60003000000001976a91445cc39d538d64d4d6c7a2fc398015fe2f2b7f2d288ac0008af2f000000001976a9141623de665f7afa8d268a02c26d6d93511c6a5b9c88ac00000000", "vin": [{"sequence": 4294967295, "scriptSig": {"hex": "4730440220712e865a04aeb17251561aa9db74a93d643c098905eef7f4ae0d08af7daf46aa02201868b58149a621e4368417bb7168d0604ca03d595a8aefb30810da536ed74478012102a75fff89ca7a2d9dcfa405055ccfa1a15fe1be20ba33eef9bdcf7ed0545b7af4", "asm": "30440220712e865a04aeb17251561aa9db74a93d643c098905eef7f4ae0d08af7daf46aa02201868b58149a621e4368417bb7168d0604ca03d595a8aefb30810da536ed74478[ALL] 02a75fff89ca7a2d9dcfa405055ccfa1a15fe1be20ba33eef9bdcf7ed0545b7af4"}, "vout": 1, "txid": "065fec1654b24a597980e729aedd7053de4bb71671be6c6735cdc4f92cf903c8"}, {"sequence": 4294967295, "scriptSig": {"hex": "483045022100d9d9e58488adde1376019610235421d71de7eda80998721b461c54649abf1b6102203342b3795fc4dd47638128250d84165d824217fc5b45f6d10ccdbaac8abc496e0121029f1a295a1fe174d0aa96f50d4f252dc769e52d6ea84b8d81851412d7e3c45db8", "asm": "3045022100d9d9e58488adde1376019610235421d71de7eda80998721b461c54649abf1b6102203342b3795fc4dd47638128250d84165d824217fc5b45f6d10ccdbaac8abc496e[ALL] 029f1a295a1fe174d0aa96f50d4f252dc769e52d6ea84b8d81851412d7e3c45db8"}, "vout": 0, "txid": "41a6161d22f7c7e617605ea8d1aceeceb0e50e624eda51b2ad13b9aad2e8c4b7"}, {"sequence": 4294967295, "scriptSig": {"hex": "47304402204fba42cbaf55a9c53a37d64b5e84cabb373b57d4c03a37d485463b0db398995202202c9453ec81a92a12379c17978fad8e9b6de846fbb7bae75cf0e74b5e3e5672d1012103cf18b9d93f71ad1da6e91a1ada10aaa0e9c6d16d543f38b08bcce69612ca553b", "asm": "304402204fba42cbaf55a9c53a37d64b5e84cabb373b57d4c03a37d485463b0db398995202202c9453ec81a92a12379c17978fad8e9b6de846fbb7bae75cf0e74b5e3e5672d1[ALL] 03cf18b9d93f71ad1da6e91a1ada10aaa0e9c6d16d543f38b08bcce69612ca553b"}, "vout": 1, "txid": "45aba9bca1c6d06d5c404f7ce5040d912c58afeacca6bdb25494cf7b7fa877d7"}, {"sequence": 4294967295, "scriptSig": {"hex": "483045022100f4f34b7d7ead3853aacbd322fac72d5129c9fa2bef131771a7fc40503dd119e5022046b4b79d136fcb0186a691cc60d756707c9ba15e38c6f8d8e2b6fe1aba8d02d40121020166432e8edd689599252a7c66ad56aadaee8bb875e79af906f5ff9c4e72c38b", "asm": "3045022100f4f34b7d7ead3853aacbd322fac72d5129c9fa2bef131771a7fc40503dd119e5022046b4b79d136fcb0186a691cc60d756707c9ba15e38c6f8d8e2b6fe1aba8d02d4[ALL] 020166432e8edd689599252a7c66ad56aadaee8bb875e79af906f5ff9c4e72c38b"}, "vout": 1, "txid": "637df3e06b7cf471f62f610ac605a710bce62b1cfbdc891bf03854aa9b803adb"}, {"sequence": 4294967295, "scriptSig": {"hex": "473044022053275fe68bb3bf063ffd19daeff00fcfd7eec38acc48023b3c462edec658690502207e1aed230ac0b1ef04b4f63fbcc7326cb21b0cd30443c292d7953fa1f58ac8fa01210313d5184734e1b3842318d206ba5efb720aed2951e9e450959ebd9e31fdd761c2", "asm": "3044022053275fe68bb3bf063ffd19daeff00fcfd7eec38acc48023b3c462edec658690502207e1aed230ac0b1ef04b4f63fbcc7326cb21b0cd30443c292d7953fa1f58ac8fa[ALL] 0313d5184734e1b3842318d206ba5efb720aed2951e9e450959ebd9e31fdd761c2"}, "vout": 1, "txid": "7c2bc392561203061eee5f65fd95a43e656ef374374710c99c59c6e9378f96c7"}, {"sequence": 4294967295, "scriptSig": {"hex": "483045022100f2dca89600c404ebecf7694bce0b8d0f26dea2f88340ab1485f7a5a2ab095b8e022046b1fbe78c8b8ce802123e4125f470fdc87271811884e231b3f682cea342f64a012102dba4377e9baaeba3574b851aabac627bd2d3e8296c9c28b72ec03bc586e215d0", "asm": "3045022100f2dca89600c404ebecf7694bce0b8d0f26dea2f88340ab1485f7a5a2ab095b8e022046b1fbe78c8b8ce802123e4125f470fdc87271811884e231b3f682cea342f64a[ALL] 02dba4377e9baaeba3574b851aabac627bd2d3e8296c9c28b72ec03bc586e215d0"}, "vout": 0, "txid": "82346388c5f834e097b9ffba85c1c701abb753869ca5cf00da1fd251aa49533e"}, {"sequence": 4294967295, "scriptSig": {"hex": "47304402202aaf4fc37a305448b9c2163dad34c00b689f7b1a55d70d88a330183af29e1eee022035c839ac59f89f9e60704dc42ef889104850ec428dbdc8aedc37c11e5bcef66e012102a75fff89ca7a2d9dcfa405055ccfa1a15fe1be20ba33eef9bdcf7ed0545b7af4", "asm": "304402202aaf4fc37a305448b9c2163dad34c00b689f7b1a55d70d88a330183af29e1eee022035c839ac59f89f9e60704dc42ef889104850ec428dbdc8aedc37c11e5bcef66e[ALL] 02a75fff89ca7a2d9dcfa405055ccfa1a15fe1be20ba33eef9bdcf7ed0545b7af4"}, "vout": 2, "txid": "c61ec5f785b89fa9f36e6bb5e3bb7cfed831f40b5bcc3eab1acc110479d66f81"}], "txid": "7d036167a0f8691a3dd774410d4a789fa73d268b2c70c4d04c0c991b21b5db94", "blocktime": 1537873282, "version": 1, "confirmations": 11484, "time": 1537873282, "locktime": 0, "vsize": 1110, "size": 1110}