{"hash": "fa00bf20a8489f5791393093e4a0bb5815d34ec0db56828a5af0d589f58dafe8", "blockhash": "00000000000000000004ffacab907a6b429b9a5745fa0b75af4234bf69dd7176", "vout": [{"scriptPubKey": {"reqSigs": 1, "hex": "a9147c4fe23a1fe955499b2a773b8888a1403fa21ad387", "addresses": ["3D2KQkJjJih2QjqT3wbSfohu13RRRhaDZB"], "asm": "OP_HASH160 7c4fe23a1fe955499b2a773b8888a1403fa21ad3 OP_EQUAL", "type": "scripthash"}, "value": 0.127231, "n": 0}, {"scriptPubKey": {"reqSigs": 1, "hex": "76a914a9f75cb0f10939ca22e1827f3c0fc03246f7a1cb88ac", "addresses": ["1GVhXSP8rpdxHB6AgTRRSD1LqChpZDzEq2"], "asm": "OP_DUP OP_HASH160 a9f75cb0f10939ca22e1827f3c0fc03246f7a1cb OP_EQUALVERIFY OP_CHECKSIG", "type": "pubkeyhash"}, "value": 0.0314487, "n": 1}], "hex": "02000000000101bf7251147b2146945f74848ae1e49d436deee20a7c5b339b7cb873caab9e06f90000000017160014d326124c4752e6cd66371f5abb1ef7843e7aa3effdffffff029c23c2000000000017a9147c4fe23a1fe955499b2a773b8888a1403fa21ad387a6fc2f00000000001976a914a9f75cb0f10939ca22e1827f3c0fc03246f7a1cb88ac02473044022060077f56c70049210dbbe298e80af21f3a3ae3ef7e9a40ef68751c79c88e5f0d02203402ec9591fe5a1b819cf66087bd3a48d776930168e9f4ce4f3cd773984fa9760121023bf6ae6d925dfa6c42efeb75ea5a52e98709c58eac946588d60a897842f73e2216490800", "vin": [{"txinwitness": ["3044022060077f56c70049210dbbe298e80af21f3a3ae3ef7e9a40ef68751c79c88e5f0d02203402ec9591fe5a1b819cf66087bd3a48d776930168e9f4ce4f3cd773984fa97601", "023bf6ae6d925dfa6c42efeb75ea5a52e98709c58eac946588d60a897842f73e22"], "sequence": 4294967293, "scriptSig": {"hex": "160014d326124c4752e6cd66371f5abb1ef7843e7aa3ef", "asm": "0014d326124c4752e6cd66371f5abb1ef7843e7aa3ef"}, "vout": 0, "txid": "f9069eabca73b87c9b335b7c0ae2ee6d439de4e18a84745f9446217b145172bf"}], "txid": "7d07c179293f3d0a15783ba738c27f78ca8b23cef764b2527589348651b0fefb", "blocktime": 1537875543, "version": 2, "confirmations": 11464, "time": 1537875543, "locktime": 542998, "vsize": 168, "size": 249}