{"hash": "62e8cd9f51bf02602fa17cf5aad4c0f7fa671151c97b66869b88f7538ea04d40", "blockhash": "00000000000000000024a2167bbff67b0be802c0b01cdd79e6331c2be6459f87", "vout": [{"scriptPubKey": {"reqSigs": 1, "hex": "a914c80a3d93a68844bd76d35e152a8140f5b38bbdb687", "addresses": ["3KvjLSAM1JeZ8B7QkdWNAtnxRYiReaYznb"], "asm": "OP_HASH160 c80a3d93a68844bd76d35e152a8140f5b38bbdb6 OP_EQUAL", "type": "scripthash"}, "value": 0.2, "n": 0}, {"scriptPubKey": {"reqSigs": 1, "hex": "a9149fedd0435a5346d19e10dbf067501f04f6a02d3687", "addresses": ["3GGeFcpTvbKcU9so2Fz4C8o4V2C9Du9Ngp"], "asm": "OP_HASH160 9fedd0435a5346d19e10dbf067501f04f6a02d36 OP_EQUAL", "type": "scripthash"}, "value": 7.25498794, "n": 1}], "hex": "01000000000101628b2497147146d65ff12e8e15c10b2cf716e5ee6ad4d18e83d805ae1194a85e0100000023220020bdce0b87be1099509aee666bf280d91936d77265b9626a3811efa68c794ec6d9ffffffff02002d31010000000017a914c80a3d93a68844bd76d35e152a8140f5b38bbdb687aa3b3e2b0000000017a9149fedd0435a5346d19e10dbf067501f04f6a02d36870400483045022100d8da497782e319c3dd0f7b09a768abf587a012fb6132b2bbb11d975463360e93022057c33b691319e7bf8a86178a7fb95f2efb790f83a94506e421d5497b6e6e130901483045022100f3b6522fc86644b4dbd51fa56085b178bd5ca5a7638d1cda2a27e791638f9631022021cf0024e060d14365d44024ca3f7f68c6913068b7c2163495e1883b8dd4de970147522103eb143395e1f431f678a743f1647f1b19b73b3255e6eb16378dc614c75af6729821022a8a912ad76544ca20f666a2071879d22db3f19b68028bfb6e15e148dbbe91a252ae00000000", "vin": [{"txinwitness": ["", "3045022100d8da497782e319c3dd0f7b09a768abf587a012fb6132b2bbb11d975463360e93022057c33b691319e7bf8a86178a7fb95f2efb790f83a94506e421d5497b6e6e130901", "3045022100f3b6522fc86644b4dbd51fa56085b178bd5ca5a7638d1cda2a27e791638f9631022021cf0024e060d14365d44024ca3f7f68c6913068b7c2163495e1883b8dd4de9701", "522103eb143395e1f431f678a743f1647f1b19b73b3255e6eb16378dc614c75af6729821022a8a912ad76544ca20f666a2071879d22db3f19b68028bfb6e15e148dbbe91a252ae"], "sequence": 4294967295, "scriptSig": {"hex": "220020bdce0b87be1099509aee666bf280d91936d77265b9626a3811efa68c794ec6d9", "asm": "0020bdce0b87be1099509aee666bf280d91936d77265b9626a3811efa68c794ec6d9"}, "vout": 1, "txid": "5ea89411ae05d8838ed1d46aeee516f72c0bc1158e2ef15fd646711497248b62"}], "txid": "7d1160a61a8f4a2ba2b696e0319121918b1e1f03418237a541230e71929c961f", "blocktime": 1537870564, "version": 1, "confirmations": 11515, "time": 1537870564, "locktime": 0, "vsize": 206, "size": 372}