{"hash": "7d1202fd248743f112136913091b6c8fbe85d41a5402f5a3cb5420f962a28835", "blockhash": "0000000000000000001f0ddff1eddb255c1121bcd4da4f1bc9a0da00cae72433", "vout": [{"scriptPubKey": {"reqSigs": 1, "hex": "76a914576f7630bd0ee22dca47b476655606e9d4665c5d88ac", "addresses": ["18yKKBbMUFP6XhYb5bxki5cxHdaDEGjpXQ"], "asm": "OP_DUP OP_HASH160 576f7630bd0ee22dca47b476655606e9d4665c5d OP_EQUALVERIFY OP_CHECKSIG", "type": "pubkeyhash"}, "value": 0.0223154, "n": 0}, {"scriptPubKey": {"type": "nulldata", "hex": "6a4c50000077a70001bce166cdd5c3a8a548e45712af6c953dd567cf27e7e3ef3236678a62509738897a2b0c6b1d23b3efafcc8f3883695baa0f96061395acacf5c719bc9a9526289ac0f6612cd74e33776ee4", "asm": "OP_RETURN 000077a70001bce166cdd5c3a8a548e45712af6c953dd567cf27e7e3ef3236678a62509738897a2b0c6b1d23b3efafcc8f3883695baa0f96061395acacf5c719bc9a9526289ac0f6612cd74e33776ee4"}, "value": 0.0, "n": 1}], "hex": "010000000141d2ec1b3913084a0911c9aefe90ad58f8a297a2609d85bb1ca65800aa0c0814000000006b483045022100ff0709d43f9406fd691e6cffd9d93fd642b3a27d9974390c316456bbe2b59ce2022021e3317db5cebb24fbfed53533c52e97d28e448435bad26d139af3b891d0ea73012102a178d4c5d37f31dba59cbf23e21eb378034f5393642a29c588162dc403e8ab01ffffffff02f40c2200000000001976a914576f7630bd0ee22dca47b476655606e9d4665c5d88ac0000000000000000536a4c50000077a70001bce166cdd5c3a8a548e45712af6c953dd567cf27e7e3ef3236678a62509738897a2b0c6b1d23b3efafcc8f3883695baa0f96061395acacf5c719bc9a9526289ac0f6612cd74e33776ee400000000", "vin": [{"sequence": 4294967295, "scriptSig": {"hex": "483045022100ff0709d43f9406fd691e6cffd9d93fd642b3a27d9974390c316456bbe2b59ce2022021e3317db5cebb24fbfed53533c52e97d28e448435bad26d139af3b891d0ea73012102a178d4c5d37f31dba59cbf23e21eb378034f5393642a29c588162dc403e8ab01", "asm": "3045022100ff0709d43f9406fd691e6cffd9d93fd642b3a27d9974390c316456bbe2b59ce2022021e3317db5cebb24fbfed53533c52e97d28e448435bad26d139af3b891d0ea73[ALL] 02a178d4c5d37f31dba59cbf23e21eb378034f5393642a29c588162dc403e8ab01"}, "vout": 0, "txid": "14080caa0058a61cbb859d60a297a2f858ad90feaec911094a0813391becd241"}], "txid": "7d1202fd248743f112136913091b6c8fbe85d41a5402f5a3cb5420f962a28835", "blocktime": 1537872018, "version": 1, "confirmations": 11489, "time": 1537872018, "locktime": 0, "vsize": 284, "size": 284}