{"hash": "c2fc799ba168de6ac02c55d6361168c8176750796f1a5309e17b201d37df8c6f", "blockhash": "0000000000000000001cda96e906b7601b7a6fb1a3b62bca570a9e5d8f4b3de1", "vout": [{"scriptPubKey": {"reqSigs": 1, "hex": "76a914883fe0be9662047d4a1248d8c3c10ca371a6adda88ac", "addresses": ["1DRRRQRPpokYDJbynwXanFBvxGRZKn9Hdp"], "asm": "OP_DUP OP_HASH160 883fe0be9662047d4a1248d8c3c10ca371a6adda OP_EQUALVERIFY OP_CHECKSIG", "type": "pubkeyhash"}, "value": 0.014, "n": 0}, {"scriptPubKey": {"reqSigs": 1, "hex": "76a914e1c0ed925c9c18fb80b15e72fef5cb3616b5521588ac", "addresses": ["1MagA33kDcwm2umJVzQdcjod5pE1w5CSNd"], "asm": "OP_DUP OP_HASH160 e1c0ed925c9c18fb80b15e72fef5cb3616b55215 OP_EQUALVERIFY OP_CHECKSIG", "type": "pubkeyhash"}, "value": 0.00781608, "n": 1}, {"scriptPubKey": {"reqSigs": 1, "hex": "76a914028805f44e8eac32d5536ceef2890df2626712a088ac", "addresses": ["1EPJSqHtGdKXsiWjK5NAWQ29DBT2gQpD9"], "asm": "OP_DUP OP_HASH160 028805f44e8eac32d5536ceef2890df2626712a0 OP_EQUALVERIFY OP_CHECKSIG", "type": "pubkeyhash"}, "value": 0.00395062, "n": 2}, {"scriptPubKey": {"reqSigs": 1, "hex": "a9140845c6844cf008999d05b403d066e73abf230d2a87", "addresses": ["32SkvAMXK9w3C6amkBLCdLBzJG8Yfbi7ib"], "asm": "OP_HASH160 0845c6844cf008999d05b403d066e73abf230d2a OP_EQUAL", "type": "scripthash"}, "value": 0.00994061, "n": 3}, {"scriptPubKey": {"reqSigs": 1, "hex": "76a91454bc7572faadf7950c1e8ebccad2fa3f7501f19188ac", "addresses": ["18j3XTfagLPjTBKbdFeAbqSpLn8Piq5BmH"], "asm": "OP_DUP OP_HASH160 54bc7572faadf7950c1e8ebccad2fa3f7501f191 OP_EQUALVERIFY OP_CHECKSIG", "type": "pubkeyhash"}, "value": 0.01019763, "n": 4}, {"scriptPubKey": {"reqSigs": 1, "hex": "a91475db20f7b9376f8dc7525cce0c7ab145d8e1f7b187", "addresses": ["3CSBVKf1z2NJFX5JTwEGEuvBLLuwQvH6Kd"], "asm": "OP_HASH160 75db20f7b9376f8dc7525cce0c7ab145d8e1f7b1 OP_EQUAL", "type": "scripthash"}, "value": 0.10895831, "n": 5}, {"scriptPubKey": {"reqSigs": 1, "hex": "76a9141aa0afda2f4f701398013cd73f4537d2f481842b88ac", "addresses": ["13Ro4iDu6KgVGZpPyLWg7TPG47mAQTDtBq"], "asm": "OP_DUP OP_HASH160 1aa0afda2f4f701398013cd73f4537d2f481842b OP_EQUALVERIFY OP_CHECKSIG", "type": "pubkeyhash"}, "value": 0.00208745, "n": 6}], "hex": "020000000001100ea32bddce9b72d8d3dd65d7c93be61832cfaae55d2202171f51e72a3a83912001000000171600142f138b42db27d05b2ad718c66121ca739b3adfe8feffffff1ba82c43b419e9013b47f7f86a2b99c0b9e0106f6e603d33cec00153487c6d770000000017160014456ed31e5440f5449a2d3c1e3c25f457d2f42a60feffffff2350060516c9c775f78bd78a4f04eb8675a2630238fdd274970eb712a3c3aa4a0200000017160014022893d4a2ec86dfedda33c762ed3771ea0f302dfeffffff26be30ca7ab36d87f97c2dc9d8b2745a2b45a5500dd75e2949660b7c0ed848b501000000171600145892fabe7d98205c23cf67477d83ae8bb264ceb1feffffff31b2e1d1085042ff53b6c752ff345090f835877fd673c5ade9224925970d39370600000017160014c87d84c252ac5694d354882b874068750b76ab55feffffff35d8a062639e9ac89b79edd8ad53ca9e1ce5ba08a598f16c4b7ac71c6c4b019e0300000017160014d77836d6a4a4972a453a8174a8a4ed2d68c1e73cfeffffff38654f9d39f30823eaf88c39c0224c5d8da508ccbe8f27b0af9c3520d8f98dca0700000017160014ce529a9c90e930d9402d328815ab7640c6fd5f83feffffff3f31577ce3b052d7e5251448e5d339b907b55155f6275345233f1211692e684a00000000171600148077a210162e0af05aab79a17edec6792a49df98feffffff41a65d55aeab31cfdb35629f581a5fc56afbf55484462e7f14c9436394694baf00000000171600146c5a7cc1b1f7071bfeb58de89a6af0db8cec9ae5feffffff441e881c10ca2e233ea1fdb02dcd332dfa5c6775fbb0f3c10f32b296131c70c50100000017160014e4308e891a4e70ed5303de4321d5c2cb46bebef2feffffff446b110fa3cd3b80ca782ec12f0266e2ab55408dc54468d46550c204f6a9573e00000000171600141ae619058e924d5bad7fedb9d0e40190d13c4ad1feffffff62ba7a746dc179354ea5f99887f2ba732a4030c87b8418741db82176680b613b01000000171600141203aa895a8f03217315c739a391f926e35b5df7feffffffb3f6c2f8012ad754a210fbbfce44f34b4e5468123e98858e3d7b721f05bc47a805000000171600143dd0e4bb950faad5f49903260072c5c396aaba7afeffffffc37b4a5ac392eff88c51d5b2c0ce53755f9194ea3545f643b66c0350ac729b3a00000000171600142b59af92b39a71f69101accbe7d976987d3452cdfeffffffd69cb6ae92f67f79cb4c0c9f29dd2ef92a6950fbad4ca478f25706231534ff350600000017160014a55961fd85170fe109ee471c9eeb321cd518e999feffffffeba48d7f8199392a8dea7b56979140664b91534de9e591aa1e66acd5b5292ad30100000017160014bc0572cfb2f6258f85e023256c6e8b4bf5cdcd1dfeffffff07c05c1500000000001976a914883fe0be9662047d4a1248d8c3c10ca371a6adda88ac28ed0b00000000001976a914e1c0ed925c9c18fb80b15e72fef5cb3616b5521588ac36070600000000001976a914028805f44e8eac32d5536ceef2890df2626712a088ac0d2b0f000000000017a9140845c6844cf008999d05b403d066e73abf230d2a87738f0f00000000001976a91454bc7572faadf7950c1e8ebccad2fa3f7501f19188acd741a6000000000017a91475db20f7b9376f8dc7525cce0c7ab145d8e1f7b187692f0300000000001976a9141aa0afda2f4f701398013cd73f4537d2f481842b88ac02473044022003008fc1b1e1fd4f529aa4d3fbbd22c70ffcc9fae579803c59885a5597af34b202206df0ae5bb96525c55ba08839f1783e9b06245180fc610f1b62e7b7ea9e51326c012102ecc745f7491751f5f91d67e3d2979a48a4e29870c254d3bd2f762927563a79c20247304402206d191fd900b43a5a067bf59a68eecfffb416aa21e5d77a6e1796b04e30ee3f5302207e433e52559adaa56e5b9d054dd57500b6ecd529f90e6e66ae4ce30d6adffdb801210375df7af340582df8550b984b8380d2ea7675f37b5d3f62b93a956a3878350df60247304402204fe3540311d91c60113cb5e4fe20bd423852def8a15b76fb0ede30e8fe9a904c022065f5f50fe82344f3584040bbafe9e97b788dabbb9cd88071bd9fb95d1d4feb9a012103fc6a99e60744168a505e32deff9a5487b27e620682b8cbcc11f28a902fd3d02902473044022049d97824e9865828e20e1d7a4d0ff0f0069f0b54302d1f64c41e6ca85d79feb302201911bd4de3c7c7f7aaa0fb5333e0e7714b64d6d71fb61fbee965da73260b54b0012102677df16ea1dddc47f51c7801eaaa65cae4bf675ebac6bf565e7e25b7f2f58a50024730440220445f6400c7523055aa7e8e1547690b5faa2ad4f09e4b47afa30b6284745feab3022053a3bcb7dc0ae2f4cdec8f9895c38333827afcd74d8b1e12778c3a57aba77b280121031952014a170db4f3a00815fe602608e79fa3d8827cbb4a00cd5852354ac123560247304402200eccf43e7eedb0e75a0e259c7bb3b3661771f90b3b3e51ba57624596f731fe4002206d07da44e98afc06d1187bb5955b68b610159c5f9c29483eabeed1a8c03e57160121037b788dcd3c0bffcc4b6939b94cfa361f9a7b15e16300f687fe007159117a537b02483045022100b1fa1ae27df321ad5398da468a8b5a99e73eb6c9ee267d4ed54b7edc1aa5f89a0220508c2b0fb288a91b951e10a4b6499bf5ebbc020f17de6a93b3ea01f4edb339c3012103d8df24214e03d120308e7baaca0c5076101cf59ba2a8b03e4458eec970f9799f024830450221009bae26a12696d8243a8d9da2fb01cad958aa2b866c0d52e7b48262fe8a4f19da02201f279db7dab5e05bc996e208c0a7acece74398c988c100398e1a2a7ea15829a6012102b462bd3023c359de393f8f082a98c7b995ff2e8b074eed0cc6a121a5c17ae248024730440220439f318402680b6a6abdc3dfdb8e77b772445f44ecb21784b3d3fe63f3c1fe6b0220552518acb29b2e46a9af7b5b1bc374a5f5ad7f013860ae0621a523bd8fbc1d5c012103b805b4d206d83365c647f46ead8164d4230c360d43ebfb97ad1396e644a088a302483045022100fd8ba04a09d497a3d2853806778cc4f7212a383182955aa9c48bd6ed9847bae102207e578ec813a45c8e2ececb4e24801298e8076cf53a900cab0cea0cda18d0b0ca012102d118e5003535ad39fcbcfdd1c63ac82fa1c283c8ed546cebe1e87bb4c2927f7102483045022100a76e45f376bafb65502142c5f25cb9764d215c650f2d9100417c2c3ce4c6b69302207df27157674b37355c9989930f01739c56a80ef3d475a9b779b1718e555f40c6012103c534d4cea0ed4398d12d43e3d1f6044a9c879b35e3a05544ad9a284c82e5c1ee02473044022050f6909924fb474aaeaa8ee1fc74f593a197f75a967ab4aa5567d0810faa2a4202201a6c9719623f4ca950a4b7573e791bd6a955b94c65bf190f153106deb540064f012102a7826b7b34980fe8fb15fdede50c751b52c632dfc5684d756229970d331b25ed02483045022100917ca2cc63191fdc7e01b44022ba87b70564f88fdccec527df2453e28075834602204c7dbd2273fa7294d1664bd1de828a9109052a6f320f20bc86b41336119346240121028ac654b3e52e2c9b1a76efb07c362dcc016d8c253dadd3aef7ef30b2a6d6833a02483045022100f89ba42800681db518f7827af570f1fee0a0e576da9bb477071b542739b81254022059d38d9b8757de5ad718005ec370d5b69ccc2d9f4993d07a008e9b5d4c712816012102d016ec3d99245ce5d72c66a6446e8144b88bca14b289b9797f9baad3bed1187302483045022100eb65afaea9e63ce61df3f789e0dce727b1765a553e4ba6e618e88cbc6f27222802203c5273b6280c64372464c38937ae8b0a5f13f4cfc44e9df407ad962348140bf70121034ed064aad7229903d8e2d476b1c9718facaf6283271dc0c8557122199252cbc602483045022100b887088b2594ee092784d87b6ca531be9bef86057e7e68b42a831da7349a20a4022007f596c143974b6329e1d6bbfbd3abb0089f4a364ac451198804e088821125230121026fbe4d20cfd36eeeeabaf2d32ed176b2cdd05c0024c46386404b148872af509a13490800", "vin": [{"txinwitness": ["3044022003008fc1b1e1fd4f529aa4d3fbbd22c70ffcc9fae579803c59885a5597af34b202206df0ae5bb96525c55ba08839f1783e9b06245180fc610f1b62e7b7ea9e51326c01", "02ecc745f7491751f5f91d67e3d2979a48a4e29870c254d3bd2f762927563a79c2"], "sequence": 4294967294, "scriptSig": {"hex": "1600142f138b42db27d05b2ad718c66121ca739b3adfe8", "asm": "00142f138b42db27d05b2ad718c66121ca739b3adfe8"}, "vout": 1, "txid": "2091833a2ae7511f1702225de5aacf3218e63bc9d765ddd3d8729bcedd2ba30e"}, {"txinwitness": ["304402206d191fd900b43a5a067bf59a68eecfffb416aa21e5d77a6e1796b04e30ee3f5302207e433e52559adaa56e5b9d054dd57500b6ecd529f90e6e66ae4ce30d6adffdb801", "0375df7af340582df8550b984b8380d2ea7675f37b5d3f62b93a956a3878350df6"], "sequence": 4294967294, "scriptSig": {"hex": "160014456ed31e5440f5449a2d3c1e3c25f457d2f42a60", "asm": "0014456ed31e5440f5449a2d3c1e3c25f457d2f42a60"}, "vout": 0, "txid": "776d7c485301c0ce333d606e6f10e0b9c0992b6af8f7473b01e919b4432ca81b"}, {"txinwitness": ["304402204fe3540311d91c60113cb5e4fe20bd423852def8a15b76fb0ede30e8fe9a904c022065f5f50fe82344f3584040bbafe9e97b788dabbb9cd88071bd9fb95d1d4feb9a01", "03fc6a99e60744168a505e32deff9a5487b27e620682b8cbcc11f28a902fd3d029"], "sequence": 4294967294, "scriptSig": {"hex": "160014022893d4a2ec86dfedda33c762ed3771ea0f302d", "asm": "0014022893d4a2ec86dfedda33c762ed3771ea0f302d"}, "vout": 2, "txid": "4aaac3a312b70e9774d2fd380263a27586eb044f8ad78bf775c7c91605065023"}, {"txinwitness": ["3044022049d97824e9865828e20e1d7a4d0ff0f0069f0b54302d1f64c41e6ca85d79feb302201911bd4de3c7c7f7aaa0fb5333e0e7714b64d6d71fb61fbee965da73260b54b001", "02677df16ea1dddc47f51c7801eaaa65cae4bf675ebac6bf565e7e25b7f2f58a50"], "sequence": 4294967294, "scriptSig": {"hex": "1600145892fabe7d98205c23cf67477d83ae8bb264ceb1", "asm": "00145892fabe7d98205c23cf67477d83ae8bb264ceb1"}, "vout": 1, "txid": "b548d80e7c0b6649295ed70d50a5452b5a74b2d8c92d7cf9876db37aca30be26"}, {"txinwitness": ["30440220445f6400c7523055aa7e8e1547690b5faa2ad4f09e4b47afa30b6284745feab3022053a3bcb7dc0ae2f4cdec8f9895c38333827afcd74d8b1e12778c3a57aba77b2801", "031952014a170db4f3a00815fe602608e79fa3d8827cbb4a00cd5852354ac12356"], "sequence": 4294967294, "scriptSig": {"hex": "160014c87d84c252ac5694d354882b874068750b76ab55", "asm": "0014c87d84c252ac5694d354882b874068750b76ab55"}, "vout": 6, "txid": "37390d97254922e9adc573d67f8735f8905034ff52c7b653ff425008d1e1b231"}, {"txinwitness": ["304402200eccf43e7eedb0e75a0e259c7bb3b3661771f90b3b3e51ba57624596f731fe4002206d07da44e98afc06d1187bb5955b68b610159c5f9c29483eabeed1a8c03e571601", "037b788dcd3c0bffcc4b6939b94cfa361f9a7b15e16300f687fe007159117a537b"], "sequence": 4294967294, "scriptSig": {"hex": "160014d77836d6a4a4972a453a8174a8a4ed2d68c1e73c", "asm": "0014d77836d6a4a4972a453a8174a8a4ed2d68c1e73c"}, "vout": 3, "txid": "9e014b6c1cc77a4b6cf198a508bae51c9eca53add8ed799bc89a9e6362a0d835"}, {"txinwitness": ["3045022100b1fa1ae27df321ad5398da468a8b5a99e73eb6c9ee267d4ed54b7edc1aa5f89a0220508c2b0fb288a91b951e10a4b6499bf5ebbc020f17de6a93b3ea01f4edb339c301", "03d8df24214e03d120308e7baaca0c5076101cf59ba2a8b03e4458eec970f9799f"], "sequence": 4294967294, "scriptSig": {"hex": "160014ce529a9c90e930d9402d328815ab7640c6fd5f83", "asm": "0014ce529a9c90e930d9402d328815ab7640c6fd5f83"}, "vout": 7, "txid": "ca8df9d820359cafb0278fbecc08a58d5d4c22c0398cf8ea2308f3399d4f6538"}, {"txinwitness": ["30450221009bae26a12696d8243a8d9da2fb01cad958aa2b866c0d52e7b48262fe8a4f19da02201f279db7dab5e05bc996e208c0a7acece74398c988c100398e1a2a7ea15829a601", "02b462bd3023c359de393f8f082a98c7b995ff2e8b074eed0cc6a121a5c17ae248"], "sequence": 4294967294, "scriptSig": {"hex": "1600148077a210162e0af05aab79a17edec6792a49df98", "asm": "00148077a210162e0af05aab79a17edec6792a49df98"}, "vout": 0, "txid": "4a682e6911123f23455327f65551b507b939d3e5481425e5d752b0e37c57313f"}, {"txinwitness": ["30440220439f318402680b6a6abdc3dfdb8e77b772445f44ecb21784b3d3fe63f3c1fe6b0220552518acb29b2e46a9af7b5b1bc374a5f5ad7f013860ae0621a523bd8fbc1d5c01", "03b805b4d206d83365c647f46ead8164d4230c360d43ebfb97ad1396e644a088a3"], "sequence": 4294967294, "scriptSig": {"hex": "1600146c5a7cc1b1f7071bfeb58de89a6af0db8cec9ae5", "asm": "00146c5a7cc1b1f7071bfeb58de89a6af0db8cec9ae5"}, "vout": 0, "txid": "af4b69946343c9147f2e468454f5fb6ac55f1a589f6235dbcf31abae555da641"}, {"txinwitness": ["3045022100fd8ba04a09d497a3d2853806778cc4f7212a383182955aa9c48bd6ed9847bae102207e578ec813a45c8e2ececb4e24801298e8076cf53a900cab0cea0cda18d0b0ca01", "02d118e5003535ad39fcbcfdd1c63ac82fa1c283c8ed546cebe1e87bb4c2927f71"], "sequence": 4294967294, "scriptSig": {"hex": "160014e4308e891a4e70ed5303de4321d5c2cb46bebef2", "asm": "0014e4308e891a4e70ed5303de4321d5c2cb46bebef2"}, "vout": 1, "txid": "c5701c1396b2320fc1f3b0fb75675cfa2d33cd2db0fda13e232eca101c881e44"}, {"txinwitness": ["3045022100a76e45f376bafb65502142c5f25cb9764d215c650f2d9100417c2c3ce4c6b69302207df27157674b37355c9989930f01739c56a80ef3d475a9b779b1718e555f40c601", "03c534d4cea0ed4398d12d43e3d1f6044a9c879b35e3a05544ad9a284c82e5c1ee"], "sequence": 4294967294, "scriptSig": {"hex": "1600141ae619058e924d5bad7fedb9d0e40190d13c4ad1", "asm": "00141ae619058e924d5bad7fedb9d0e40190d13c4ad1"}, "vout": 0, "txid": "3e57a9f604c25065d46844c58d4055abe266022fc12e78ca803bcda30f116b44"}, {"txinwitness": ["3044022050f6909924fb474aaeaa8ee1fc74f593a197f75a967ab4aa5567d0810faa2a4202201a6c9719623f4ca950a4b7573e791bd6a955b94c65bf190f153106deb540064f01", "02a7826b7b34980fe8fb15fdede50c751b52c632dfc5684d756229970d331b25ed"], "sequence": 4294967294, "scriptSig": {"hex": "1600141203aa895a8f03217315c739a391f926e35b5df7", "asm": "00141203aa895a8f03217315c739a391f926e35b5df7"}, "vout": 1, "txid": "3b610b687621b81d7418847bc830402a73baf28798f9a54e3579c16d747aba62"}, {"txinwitness": ["3045022100917ca2cc63191fdc7e01b44022ba87b70564f88fdccec527df2453e28075834602204c7dbd2273fa7294d1664bd1de828a9109052a6f320f20bc86b413361193462401", "028ac654b3e52e2c9b1a76efb07c362dcc016d8c253dadd3aef7ef30b2a6d6833a"], "sequence": 4294967294, "scriptSig": {"hex": "1600143dd0e4bb950faad5f49903260072c5c396aaba7a", "asm": "00143dd0e4bb950faad5f49903260072c5c396aaba7a"}, "vout": 5, "txid": "a847bc051f727b3d8e85983e1268544e4bf344cebffb10a254d72a01f8c2f6b3"}, {"txinwitness": ["3045022100f89ba42800681db518f7827af570f1fee0a0e576da9bb477071b542739b81254022059d38d9b8757de5ad718005ec370d5b69ccc2d9f4993d07a008e9b5d4c71281601", "02d016ec3d99245ce5d72c66a6446e8144b88bca14b289b9797f9baad3bed11873"], "sequence": 4294967294, "scriptSig": {"hex": "1600142b59af92b39a71f69101accbe7d976987d3452cd", "asm": "00142b59af92b39a71f69101accbe7d976987d3452cd"}, "vout": 0, "txid": "3a9b72ac50036cb643f64535ea94915f7553cec0b2d5518cf8ef92c35a4a7bc3"}, {"txinwitness": ["3045022100eb65afaea9e63ce61df3f789e0dce727b1765a553e4ba6e618e88cbc6f27222802203c5273b6280c64372464c38937ae8b0a5f13f4cfc44e9df407ad962348140bf701", "034ed064aad7229903d8e2d476b1c9718facaf6283271dc0c8557122199252cbc6"], "sequence": 4294967294, "scriptSig": {"hex": "160014a55961fd85170fe109ee471c9eeb321cd518e999", "asm": "0014a55961fd85170fe109ee471c9eeb321cd518e999"}, "vout": 6, "txid": "35ff3415230657f278a44cadfb50692af92edd299f0c4ccb797ff692aeb69cd6"}, {"txinwitness": ["3045022100b887088b2594ee092784d87b6ca531be9bef86057e7e68b42a831da7349a20a4022007f596c143974b6329e1d6bbfbd3abb0089f4a364ac451198804e0888211252301", "026fbe4d20cfd36eeeeabaf2d32ed176b2cdd05c0024c46386404b148872af509a"], "sequence": 4294967294, "scriptSig": {"hex": "160014bc0572cfb2f6258f85e023256c6e8b4bf5cdcd1d", "asm": "0014bc0572cfb2f6258f85e023256c6e8b4bf5cdcd1d"}, "vout": 1, "txid": "d32a29b5d5ac661eaa91e5e94d53914b66409197567bea8d2a3999817f8da4eb"}], "txid": "7d15f0209a44148b3c2e48ea05e62bcc601447d010750b092459bfdf24dbbf45", "blocktime": 1537873282, "version": 2, "confirmations": 11484, "time": 1537873282, "locktime": 542995, "vsize": 1699, "size": 2990}