{"hash": "7d1a33dfa250fced94997c4946c936ae794f9faa9a774be76733e5c4efff4d52", "blockhash": "00000000000000000004ffacab907a6b429b9a5745fa0b75af4234bf69dd7176", "vout": [{"scriptPubKey": {"reqSigs": 1, "hex": "76a9146f34314e0522642a519160b1b041568e08417e2188ac", "addresses": ["1B8zXhWL262EpVLCxNf4x4F5WuEWdDUC3B"], "asm": "OP_DUP OP_HASH160 6f34314e0522642a519160b1b041568e08417e21 OP_EQUALVERIFY OP_CHECKSIG", "type": "pubkeyhash"}, "value": 9.718e-05, "n": 0}, {"scriptPubKey": {"reqSigs": 1, "hex": "76a914d2d16a04be1a5759fffdc43d362bc06f390d5bbd88ac", "addresses": ["1LDhmdkJpUCSR89yqJ7wumTsfdLRFXRnBK"], "asm": "OP_DUP OP_HASH160 d2d16a04be1a5759fffdc43d362bc06f390d5bbd OP_EQUALVERIFY OP_CHECKSIG", "type": "pubkeyhash"}, "value": 0.1456, "n": 1}], "hex": "0100000002c9ea8053a15aa3f28bcc745d20ae0c54845fae985f71e144b85b6b0156b6e3af000000006b483045022100929badac59e9cd17bb0f888286638dbed4c389010c807c36b86ba35a433fc02b02202b5c1e0d150d97901801c8b644c7b25a938f8b94221e873d2905822ccb8bea0601210230c057cc56c8c7b85f5947b398742cbfc3f241fe9418711d3815c0521c775314ffffffff1374079bae188ed1de1fd251c10de527fe4568693bc13331f34574c55357f8d8000000006a47304402200197dc7562614192eb3112c74ac7b8a8f99be216ab3bbe602a460d37007a5f340220155ecad9d2209a9828db83582b776155e4253806d8a891916fb7e1166ca34dde012102464dad3e8a214c3245afc14c96b64d515efe63b8963070047449d72d73e9012cffffffff02f6250000000000001976a9146f34314e0522642a519160b1b041568e08417e2188ac002bde00000000001976a914d2d16a04be1a5759fffdc43d362bc06f390d5bbd88ac00000000", "vin": [{"sequence": 4294967295, "scriptSig": {"hex": "483045022100929badac59e9cd17bb0f888286638dbed4c389010c807c36b86ba35a433fc02b02202b5c1e0d150d97901801c8b644c7b25a938f8b94221e873d2905822ccb8bea0601210230c057cc56c8c7b85f5947b398742cbfc3f241fe9418711d3815c0521c775314", "asm": "3045022100929badac59e9cd17bb0f888286638dbed4c389010c807c36b86ba35a433fc02b02202b5c1e0d150d97901801c8b644c7b25a938f8b94221e873d2905822ccb8bea06[ALL] 0230c057cc56c8c7b85f5947b398742cbfc3f241fe9418711d3815c0521c775314"}, "vout": 0, "txid": "afe3b656016b5bb844e1715f98ae5f84540cae205d74cc8bf2a35aa15380eac9"}, {"sequence": 4294967295, "scriptSig": {"hex": "47304402200197dc7562614192eb3112c74ac7b8a8f99be216ab3bbe602a460d37007a5f340220155ecad9d2209a9828db83582b776155e4253806d8a891916fb7e1166ca34dde012102464dad3e8a214c3245afc14c96b64d515efe63b8963070047449d72d73e9012c", "asm": "304402200197dc7562614192eb3112c74ac7b8a8f99be216ab3bbe602a460d37007a5f340220155ecad9d2209a9828db83582b776155e4253806d8a891916fb7e1166ca34dde[ALL] 02464dad3e8a214c3245afc14c96b64d515efe63b8963070047449d72d73e9012c"}, "vout": 0, "txid": "d8f85753c57445f33133c13b696845fe27e50dc151d21fded18e18ae9b077413"}], "txid": "7d1a33dfa250fced94997c4946c936ae794f9faa9a774be76733e5c4efff4d52", "blocktime": 1537875543, "version": 1, "confirmations": 11464, "time": 1537875543, "locktime": 0, "vsize": 373, "size": 373}