{"hash": "e82bb466f6e8c2aae2b6578587d5d1ece89a8eb8a99590a6c413fa65187e07d2", "blockhash": "00000000000000000004ffacab907a6b429b9a5745fa0b75af4234bf69dd7176", "vout": [{"scriptPubKey": {"reqSigs": 1, "hex": "a91469f375b3d1570b899c0ca928b473aefc0d6a9cfc87", "addresses": ["3BMEXZsucdWoWwC2hRHzva2N2objkqrtsb"], "asm": "OP_HASH160 69f375b3d1570b899c0ca928b473aefc0d6a9cfc OP_EQUAL", "type": "scripthash"}, "value": 0.014, "n": 0}, {"scriptPubKey": {"reqSigs": 1, "hex": "0020701a8d401c84fb13e6baf169d59684e17abd9fa216c8cc5b9fc63d622ff8c58d", "addresses": ["bc1qwqdg6squsna38e46795at95yu9atm8azzmyvckulcc7kytlcckxswvvzej"], "asm": "0 701a8d401c84fb13e6baf169d59684e17abd9fa216c8cc5b9fc63d622ff8c58d", "type": "witness_v0_scripthash"}, "value": 0.0021, "n": 1}], "hex": "010000000001010c101d8abc362a766fc03e6f3191bc84c845ebaeaf2c64719243434da7f612f20100000000ffffffff02c05c15000000000017a91469f375b3d1570b899c0ca928b473aefc0d6a9cfc875034030000000000220020701a8d401c84fb13e6baf169d59684e17abd9fa216c8cc5b9fc63d622ff8c58d04004830450221008efef6c17090f956a95f1c28d3b7a91092b205bd71f0a4555bd9a88de2087d6702204d0116340cb061e3a2e98739ec49d47ab9f108ca087edb6de5bbe6105540e514014730440220230d78d9248b024723027f5046744d7e22aca39a6f173527fa2e02cfb59a4efb0220599f17c6c4a86fc4e3e12f2997342db30a6ccfad7fa84d0001c66216bfde2ef3016952210375e00eb72e29da82b89367947f29ef34afb75e8654f6ea368e0acdfd92976b7c2103a1b26313f430c4b15bb1fdce663207659d8cac749a0e53d70eff01874496feff2103c96d495bfdd5ba4145e3e046fee45e84a8a48ad05bd8dbb395c011a32cf9f88053ae00000000", "vin": [{"txinwitness": ["", "30450221008efef6c17090f956a95f1c28d3b7a91092b205bd71f0a4555bd9a88de2087d6702204d0116340cb061e3a2e98739ec49d47ab9f108ca087edb6de5bbe6105540e51401", "30440220230d78d9248b024723027f5046744d7e22aca39a6f173527fa2e02cfb59a4efb0220599f17c6c4a86fc4e3e12f2997342db30a6ccfad7fa84d0001c66216bfde2ef301", "52210375e00eb72e29da82b89367947f29ef34afb75e8654f6ea368e0acdfd92976b7c2103a1b26313f430c4b15bb1fdce663207659d8cac749a0e53d70eff01874496feff2103c96d495bfdd5ba4145e3e046fee45e84a8a48ad05bd8dbb395c011a32cf9f88053ae"], "sequence": 4294967295, "scriptSig": {"hex": "", "asm": ""}, "vout": 1, "txid": "f212f6a74d43439271642cafaeeb45c884bc91316f3ec06f762a36bc8a1d100c"}], "txid": "7d1bd1f2efae3c95701413d646a0a049f0462020ea23c322e9a52a2604b48af7", "blocktime": 1537875543, "version": 1, "confirmations": 11464, "time": 1537875543, "locktime": 0, "vsize": 190, "size": 381}