{"hash": "7d252f63297f4414fcd743dc7138633dbf98d9fbbbe590144be0e9c750a68394", "blockhash": "0000000000000000001f0ddff1eddb255c1121bcd4da4f1bc9a0da00cae72433", "vout": [{"scriptPubKey": {"reqSigs": 1, "hex": "a9142fddb8cb93e9b1e0696a1ecf7f30ca0ae6b2fd2287", "addresses": ["3647J4h2ZKxQenhTVgp175vMc8JRk31ig9"], "asm": "OP_HASH160 2fddb8cb93e9b1e0696a1ecf7f30ca0ae6b2fd22 OP_EQUAL", "type": "scripthash"}, "value": 0.0055408, "n": 0}, {"scriptPubKey": {"reqSigs": 1, "hex": "76a9147f2ba0bbaba534f3d1bf0843ac0f1983e014734b88ac", "addresses": ["1CbR5gR5MaiuGCURczg5oepkfxTZMsvME1"], "asm": "OP_DUP OP_HASH160 7f2ba0bbaba534f3d1bf0843ac0f1983e014734b OP_EQUALVERIFY OP_CHECKSIG", "type": "pubkeyhash"}, "value": 0.02559929, "n": 1}], "hex": "0100000001358bfc26e91e003d7e47e57370ba6c4da2d82259d907552a0871315c553f535e010000006a47304402202e53a37686fc79c41b4087c5ee0aca582a2124f964a26edbc517a0efb6bee58c02201ccacd68630601161359a3c95d74ec4156ae8c7d577bae04621a22752b6bfe60012103d784421a8f240f5035304e8847a30b928e1529d6a8521725582d58c41001df6dffffffff02607408000000000017a9142fddb8cb93e9b1e0696a1ecf7f30ca0ae6b2fd2287b90f2700000000001976a9147f2ba0bbaba534f3d1bf0843ac0f1983e014734b88ac00000000", "vin": [{"sequence": 4294967295, "scriptSig": {"hex": "47304402202e53a37686fc79c41b4087c5ee0aca582a2124f964a26edbc517a0efb6bee58c02201ccacd68630601161359a3c95d74ec4156ae8c7d577bae04621a22752b6bfe60012103d784421a8f240f5035304e8847a30b928e1529d6a8521725582d58c41001df6d", "asm": "304402202e53a37686fc79c41b4087c5ee0aca582a2124f964a26edbc517a0efb6bee58c02201ccacd68630601161359a3c95d74ec4156ae8c7d577bae04621a22752b6bfe60[ALL] 03d784421a8f240f5035304e8847a30b928e1529d6a8521725582d58c41001df6d"}, "vout": 1, "txid": "5e533f555c3171082a5507d95922d8a24d6cba7073e5477e3d001ee926fc8b35"}], "txid": "7d252f63297f4414fcd743dc7138633dbf98d9fbbbe590144be0e9c750a68394", "blocktime": 1537872018, "version": 1, "confirmations": 11489, "time": 1537872018, "locktime": 0, "vsize": 223, "size": 223}