{"hash": "bc965f4cd8cff258794a448d3ab6ae43ddf5f10f71f7317f93b23fccf0742433", "blockhash": "0000000000000000001e0dab787dd257d1dbfcb92a98c2207d5e1078be1f4165", "vout": [{"scriptPubKey": {"reqSigs": 1, "hex": "a9141752d7927d66b298ea0eb7c959ee0ffb0542f5e987", "addresses": ["33pLhvZyVnnqedd3zrF8kNqgasRar48WXj"], "asm": "OP_HASH160 1752d7927d66b298ea0eb7c959ee0ffb0542f5e9 OP_EQUAL", "type": "scripthash"}, "value": 0.00526187, "n": 0}, {"scriptPubKey": {"reqSigs": 1, "hex": "a914f387412b5f487a6d43d686fbee110c04d1756a8487", "addresses": ["3Ptg9oyQHSy34HTWhUYWF4PpRvxKj28M5E"], "asm": "OP_HASH160 f387412b5f487a6d43d686fbee110c04d1756a84 OP_EQUAL", "type": "scripthash"}, "value": 0.01258418, "n": 1}], "hex": "020000000001012b871cb6ec62acf471d29be1449a800ee14db851e36b2cb873a67c01125982ca0100000017160014070493279393419a71f720e7017e6ae373c7ebccfeffffff026b0708000000000017a9141752d7927d66b298ea0eb7c959ee0ffb0542f5e987b23313000000000017a914f387412b5f487a6d43d686fbee110c04d1756a84870247304402204b3b2a505d1d830e33c15f05a580b1a93fe2e6ac4414b85c5d01daec688657cd02203970cdcbbb1c24274afba997e4a8efe67da9a8cce1019ed38d9c70bc89a8f447012102d26cda9b6e6fca1aee13dc5603b60925eb2f03a1c2678c9aac9a4dd718ed22cd12490800", "vin": [{"txinwitness": ["304402204b3b2a505d1d830e33c15f05a580b1a93fe2e6ac4414b85c5d01daec688657cd02203970cdcbbb1c24274afba997e4a8efe67da9a8cce1019ed38d9c70bc89a8f44701", "02d26cda9b6e6fca1aee13dc5603b60925eb2f03a1c2678c9aac9a4dd718ed22cd"], "sequence": 4294967294, "scriptSig": {"hex": "160014070493279393419a71f720e7017e6ae373c7ebcc", "asm": "0014070493279393419a71f720e7017e6ae373c7ebcc"}, "vout": 1, "txid": "ca825912017ca673b82c6be351b84de10e809a44e19bd271f4ac62ecb61c872b"}], "txid": "7d262daae57f624d3f8b41c8740e807dfdeee2bcf204522477b538c49da33760", "blocktime": 1537872475, "version": 2, "confirmations": 11487, "time": 1537872475, "locktime": 542994, "vsize": 166, "size": 247}