{"hash": "7d2d701b88bc91e6b426ee58f411a348e51cfa5bfb84c293c4f15196307b637e", "blockhash": "0000000000000000001f0ddff1eddb255c1121bcd4da4f1bc9a0da00cae72433", "vout": [{"scriptPubKey": {"reqSigs": 1, "hex": "76a9148cd1e3beafb9d22e76b9d1dc0f10caf75ed2126c88ac", "addresses": ["1Dqb3F7USEP1Ar7SGUzSgp7efnPiYqUR2R"], "asm": "OP_DUP OP_HASH160 8cd1e3beafb9d22e76b9d1dc0f10caf75ed2126c OP_EQUALVERIFY OP_CHECKSIG", "type": "pubkeyhash"}, "value": 3e-05, "n": 0}, {"scriptPubKey": {"reqSigs": 1, "hex": "76a9148052dbbcec8153a26e5813608e98c9d3955910c688ac", "addresses": ["1ChWkeuKgtx6GJxsZCN2HdgRwGDUuCHhu1"], "asm": "OP_DUP OP_HASH160 8052dbbcec8153a26e5813608e98c9d3955910c6 OP_EQUALVERIFY OP_CHECKSIG", "type": "pubkeyhash"}, "value": 2.626e-05, "n": 1}], "hex": "010000000258533888b2bdf835cd49f9526ce0473ad54a601103a046e69a8da4a6b7f685dc000000006b483045022100c94a894d605d96f20d2f9fed5a41659f58ae142addac44a8f0e5f497398c6d4d02204eaa268c633463a91d5e35c34f65fff8ea705e3fc3aa41f8b9240097f290a998012103336c16b091ddf4e710b8c5f4bb76b8fef84af0202ab484c9f553924b5cf4f6b0feffffff172dbeb77a78430a811362382f56d73f8217f4776e0fca9fbbe6427f65661652000000006a473044022062b97147f3eaf7735d2a06405a258fa02456655b3d4090c6f16de10d291e343e022020a6d53285e0ed8172e0db100b58cfe51c0a05766ad1ce56ee1aedbb473cdd8e012103336c16b091ddf4e710b8c5f4bb76b8fef84af0202ab484c9f553924b5cf4f6b0feffffff02b80b0000000000001976a9148cd1e3beafb9d22e76b9d1dc0f10caf75ed2126c88ac420a0000000000001976a9148052dbbcec8153a26e5813608e98c9d3955910c688ac10490800", "vin": [{"sequence": 4294967294, "scriptSig": {"hex": "483045022100c94a894d605d96f20d2f9fed5a41659f58ae142addac44a8f0e5f497398c6d4d02204eaa268c633463a91d5e35c34f65fff8ea705e3fc3aa41f8b9240097f290a998012103336c16b091ddf4e710b8c5f4bb76b8fef84af0202ab484c9f553924b5cf4f6b0", "asm": "3045022100c94a894d605d96f20d2f9fed5a41659f58ae142addac44a8f0e5f497398c6d4d02204eaa268c633463a91d5e35c34f65fff8ea705e3fc3aa41f8b9240097f290a998[ALL] 03336c16b091ddf4e710b8c5f4bb76b8fef84af0202ab484c9f553924b5cf4f6b0"}, "vout": 0, "txid": "dc85f6b7a6a48d9ae646a00311604ad53a47e06c52f949cd35f8bdb288385358"}, {"sequence": 4294967294, "scriptSig": {"hex": "473044022062b97147f3eaf7735d2a06405a258fa02456655b3d4090c6f16de10d291e343e022020a6d53285e0ed8172e0db100b58cfe51c0a05766ad1ce56ee1aedbb473cdd8e012103336c16b091ddf4e710b8c5f4bb76b8fef84af0202ab484c9f553924b5cf4f6b0", "asm": "3044022062b97147f3eaf7735d2a06405a258fa02456655b3d4090c6f16de10d291e343e022020a6d53285e0ed8172e0db100b58cfe51c0a05766ad1ce56ee1aedbb473cdd8e[ALL] 03336c16b091ddf4e710b8c5f4bb76b8fef84af0202ab484c9f553924b5cf4f6b0"}, "vout": 0, "txid": "521666657f42e6bb9fca0f6e77f417823fd7562f386213810a43787ab7be2d17"}], "txid": "7d2d701b88bc91e6b426ee58f411a348e51cfa5bfb84c293c4f15196307b637e", "blocktime": 1537872018, "version": 1, "confirmations": 11489, "time": 1537872018, "locktime": 542992, "vsize": 373, "size": 373}