{"hash": "7d2deee2a989e43e5aa90b6c066bca43515eaf1b0cad447db9c21e173a4d9947", "blockhash": "0000000000000000000baef3f32e3676a92c3b2e5da21b426e4f302fc371ce76", "vout": [{"scriptPubKey": {"reqSigs": 1, "hex": "a914ac9e463e41978df20e8db2555db931d50b3e03b487", "addresses": ["3HRjkdq9TNfh1HXRXA5LhW2E8kxrmjMZx2"], "asm": "OP_HASH160 ac9e463e41978df20e8db2555db931d50b3e03b4 OP_EQUAL", "type": "scripthash"}, "value": 0.0026126, "n": 0}, {"scriptPubKey": {"reqSigs": 1, "hex": "76a914c40942ac011a92938fedd106d3832c3d4935ec0d88ac", "addresses": ["1JsYY2Torb4zN2AookuxaUSFhU3TsJNCbc"], "asm": "OP_DUP OP_HASH160 c40942ac011a92938fedd106d3832c3d4935ec0d OP_EQUALVERIFY OP_CHECKSIG", "type": "pubkeyhash"}, "value": 0.03031159, "n": 1}], "hex": "0100000001bf6d14617ce97d2bcd84747419fb964c647ad53e707430905f6f68d8454f1220010000006b48304502210082c979404a708c8a33c47b96ac738c82cf2bf237fbf273b1e9753a4a47baae7d0220287e8b6416df369ad85eae7e84aa1ab952abc270e5ccd0593f95fe1718a1544f012102700d68f40e2f42a49500acc5c5c877b2c8889bf40910365dd96f60036d3e8fb9ffffffff028cfc03000000000017a914ac9e463e41978df20e8db2555db931d50b3e03b48777402e00000000001976a914c40942ac011a92938fedd106d3832c3d4935ec0d88ac00000000", "vin": [{"sequence": 4294967295, "scriptSig": {"hex": "48304502210082c979404a708c8a33c47b96ac738c82cf2bf237fbf273b1e9753a4a47baae7d0220287e8b6416df369ad85eae7e84aa1ab952abc270e5ccd0593f95fe1718a1544f012102700d68f40e2f42a49500acc5c5c877b2c8889bf40910365dd96f60036d3e8fb9", "asm": "304502210082c979404a708c8a33c47b96ac738c82cf2bf237fbf273b1e9753a4a47baae7d0220287e8b6416df369ad85eae7e84aa1ab952abc270e5ccd0593f95fe1718a1544f[ALL] 02700d68f40e2f42a49500acc5c5c877b2c8889bf40910365dd96f60036d3e8fb9"}, "vout": 1, "txid": "20124f45d8686f5f903074703ed57a644c96fb19747484cd2b7de97c61146dbf"}], "txid": "7d2deee2a989e43e5aa90b6c066bca43515eaf1b0cad447db9c21e173a4d9947", "blocktime": 1537876114, "version": 1, "confirmations": 11460, "time": 1537876114, "locktime": 0, "vsize": 224, "size": 224}