{"hash": "2df0512abf58d97af7c55ebdc1be617256b2eabe9568f355f0851c0d80c35370", "blockhash": "0000000000000000001f0ddff1eddb255c1121bcd4da4f1bc9a0da00cae72433", "vout": [{"scriptPubKey": {"reqSigs": 1, "hex": "a91469f374ffab9dd3fa56f9053dde1a0deb23d764fb87", "addresses": ["3BMEXNoQmNQb9PkugFRKY8T3dFgPmUivia"], "asm": "OP_HASH160 69f374ffab9dd3fa56f9053dde1a0deb23d764fb OP_EQUAL", "type": "scripthash"}, "value": 0.00379498, "n": 0}, {"scriptPubKey": {"reqSigs": 1, "hex": "a91406dc23946f1884791b3301f6d603a937bda4d90287", "addresses": ["32KHhDgYygqTfUyEokgaEoKSCeZKPL6P7z"], "asm": "OP_HASH160 06dc23946f1884791b3301f6d603a937bda4d902 OP_EQUAL", "type": "scripthash"}, "value": 1.52452366, "n": 1}, {"scriptPubKey": {"reqSigs": 1, "hex": "76a914fb446446be3ba812c43bed0542efbed5469f26f888ac", "addresses": ["1PuaY68Gdk8NmUERx768qAv2fBLPgrW4Yv"], "asm": "OP_DUP OP_HASH160 fb446446be3ba812c43bed0542efbed5469f26f8 OP_EQUALVERIFY OP_CHECKSIG", "type": "pubkeyhash"}, "value": 0.76019628, "n": 2}, {"scriptPubKey": {"reqSigs": 1, "hex": "76a91481492a84359aaf3c672aa9ca2a203f7c7af0d7e388ac", "addresses": ["1CnbpR3J5ZfRn5B83Gqd5DYHSUPFf1aGsH"], "asm": "OP_DUP OP_HASH160 81492a84359aaf3c672aa9ca2a203f7c7af0d7e3 OP_EQUALVERIFY OP_CHECKSIG", "type": "pubkeyhash"}, "value": 0.02668, "n": 3}, {"scriptPubKey": {"reqSigs": 1, "hex": "76a9148ef2870c1aed69c00a55c67e9dbdc9a4768df64288ac", "addresses": ["1E2qVMBjFd6UXTT1gB5BWwRvQncSktFe6N"], "asm": "OP_DUP OP_HASH160 8ef2870c1aed69c00a55c67e9dbdc9a4768df642 OP_EQUALVERIFY OP_CHECKSIG", "type": "pubkeyhash"}, "value": 0.0157, "n": 4}, {"scriptPubKey": {"reqSigs": 1, "hex": "a914edb5fd2b7dc5944ad76163067f68a39fc26949aa87", "addresses": ["3PMv5paYHkfqsKna5TVhZyGskx2Bkpx2wn"], "asm": "OP_HASH160 edb5fd2b7dc5944ad76163067f68a39fc26949aa OP_EQUAL", "type": "scripthash"}, "value": 0.00393523, "n": 5}, {"scriptPubKey": {"reqSigs": 1, "hex": "a91421eceadb3ee6aebf28713d34bca5d587e6be964b87", "addresses": ["34nQ3Be4LPFsjcrzhfmPyRNmdiTHhbBMY8"], "asm": "OP_HASH160 21eceadb3ee6aebf28713d34bca5d587e6be964b OP_EQUAL", "type": "scripthash"}, "value": 0.01654433, "n": 6}], "hex": "01000000000103abfdba62d9ce22739e92b59b0e04165b3fd447973fad0a59a6d789ade59b6f742c0000002322002086a671d4708e7036e2d812e79878fae95dada5cea93b3cc325ef367fc3fc6d52ffffffffaf153645a7b71b154027174f0fd9fde4a51569da44a589be8a9c4f52d4fbf99e01000000232200209aa046e90f94c191b50840442f6aa8893aab2e707156dbe205072acb55aa3c1cffffffffe8dfc3947d30f20d7577bcd5e2f2da3b979adf353bb3e740e96a6adc2671a0f1000000002322002050e3b37a87fcb9eabea9f01576d6457883ac414cbe41e102c71a3f4386206a49ffffffff076aca05000000000017a91469f374ffab9dd3fa56f9053dde1a0deb23d764fb870e3d16090000000017a91406dc23946f1884791b3301f6d603a937bda4d90287acf78704000000001976a914fb446446be3ba812c43bed0542efbed5469f26f888ace0b52800000000001976a91481492a84359aaf3c672aa9ca2a203f7c7af0d7e388acd0f41700000000001976a9148ef2870c1aed69c00a55c67e9dbdc9a4768df64288ac330106000000000017a914edb5fd2b7dc5944ad76163067f68a39fc26949aa87a13e19000000000017a91421eceadb3ee6aebf28713d34bca5d587e6be964b870400483045022100b47cf6e69ff382142e875a83ab0fd2b9d5f824958904e5ea662399f6176d17f102200b5973ad43180ecd7a1f74b0d21ffa69ced07b3fa17b9823a6e3aaf3bf4b54910148304502210088be1c5420bf76a8856fb833475b33ccc785970f1ad5c262e38806ec593e4b45022064fb9e9af20d904ed98372f926eecf1d25478bbbd583027f484dde66159ba5f30169522103b8586528580e46ebc87c1e0fc536762ef81e275de7d22de5699e65d03f16b8e8210300e71b6e9d565800c1c8e8534f8209cdb25b30ab85a49497b7016e8f6135e5dc210355fa8d5c1413bed3c890b055570ead0b1f5651509414069d29fe7634d8f6202453ae0400483045022100aa014bc7bab4fa99759850423dfaf541e0422a7a52ae9e7dca20a07d73de60d602206378a8216d40d008cea6610170b0ad224f7c5b1e1a56caec147331a207cd7a3001483045022100ad63ba593207f34862336e0aac9f5b7f447eade6f62ac67e808efed1ed30719b0220210d0528b1ffb5c20e95b3f65907be2b2bb5168164d2cb7f68aa41ef78dec1940169522103a9402f49823eef1e91b820ec53673d41130fca9ddae1a2c5162cb4f742d796af21035d190e70b3c39cf89e8d688d6747d5362e769b1d4ba73a2af699258e0bc955682102addc6257c02efbb144e1c5d49254425e62c5eb52690b7cfdcda95cdeb7046c2d53ae0400483045022100e80386d8472e5cc45e514ef5fd685122fb0e3ec87bd1fa1215f366d9ac345de9022032fb8503b45cc5c5354984749b56c05d3baded5b563771c3c9631ff7861ae6ea01473044022058d86be1e9f969d374ab5de78b7019242860fd6f87fb32fcdb17f9f3b5cf99ac02207118e725d64b5152f9bafa869ccb722233a1f507f0b8cf344f293e731f74c408016952210340ff658c30ff0a250025d2ca290739e2e5b143bcbf0c7b9f7e0740f27d31551c210269345da8d8fbd2fe437767546bd6fba9d636112e6f7d200b8414878ce8225c7e2102429db152668a83b2a4515496a80f29ecb59ed98607101b011d629e87bacde42a53ae00000000", "vin": [{"txinwitness": ["", "3045022100b47cf6e69ff382142e875a83ab0fd2b9d5f824958904e5ea662399f6176d17f102200b5973ad43180ecd7a1f74b0d21ffa69ced07b3fa17b9823a6e3aaf3bf4b549101", "304502210088be1c5420bf76a8856fb833475b33ccc785970f1ad5c262e38806ec593e4b45022064fb9e9af20d904ed98372f926eecf1d25478bbbd583027f484dde66159ba5f301", "522103b8586528580e46ebc87c1e0fc536762ef81e275de7d22de5699e65d03f16b8e8210300e71b6e9d565800c1c8e8534f8209cdb25b30ab85a49497b7016e8f6135e5dc210355fa8d5c1413bed3c890b055570ead0b1f5651509414069d29fe7634d8f6202453ae"], "sequence": 4294967295, "scriptSig": {"hex": "22002086a671d4708e7036e2d812e79878fae95dada5cea93b3cc325ef367fc3fc6d52", "asm": "002086a671d4708e7036e2d812e79878fae95dada5cea93b3cc325ef367fc3fc6d52"}, "vout": 44, "txid": "746f9be5ad89d7a6590aad3f9747d43f5b16040e9bb5929e7322ced962bafdab"}, {"txinwitness": ["", "3045022100aa014bc7bab4fa99759850423dfaf541e0422a7a52ae9e7dca20a07d73de60d602206378a8216d40d008cea6610170b0ad224f7c5b1e1a56caec147331a207cd7a3001", "3045022100ad63ba593207f34862336e0aac9f5b7f447eade6f62ac67e808efed1ed30719b0220210d0528b1ffb5c20e95b3f65907be2b2bb5168164d2cb7f68aa41ef78dec19401", "522103a9402f49823eef1e91b820ec53673d41130fca9ddae1a2c5162cb4f742d796af21035d190e70b3c39cf89e8d688d6747d5362e769b1d4ba73a2af699258e0bc955682102addc6257c02efbb144e1c5d49254425e62c5eb52690b7cfdcda95cdeb7046c2d53ae"], "sequence": 4294967295, "scriptSig": {"hex": "2200209aa046e90f94c191b50840442f6aa8893aab2e707156dbe205072acb55aa3c1c", "asm": "00209aa046e90f94c191b50840442f6aa8893aab2e707156dbe205072acb55aa3c1c"}, "vout": 1, "txid": "9ef9fbd4524f9c8abe89a544da6915a5e4fdd90f4f172740151bb7a7453615af"}, {"txinwitness": ["", "3045022100e80386d8472e5cc45e514ef5fd685122fb0e3ec87bd1fa1215f366d9ac345de9022032fb8503b45cc5c5354984749b56c05d3baded5b563771c3c9631ff7861ae6ea01", "3044022058d86be1e9f969d374ab5de78b7019242860fd6f87fb32fcdb17f9f3b5cf99ac02207118e725d64b5152f9bafa869ccb722233a1f507f0b8cf344f293e731f74c40801", "52210340ff658c30ff0a250025d2ca290739e2e5b143bcbf0c7b9f7e0740f27d31551c210269345da8d8fbd2fe437767546bd6fba9d636112e6f7d200b8414878ce8225c7e2102429db152668a83b2a4515496a80f29ecb59ed98607101b011d629e87bacde42a53ae"], "sequence": 4294967295, "scriptSig": {"hex": "22002050e3b37a87fcb9eabea9f01576d6457883ac414cbe41e102c71a3f4386206a49", "asm": "002050e3b37a87fcb9eabea9f01576d6457883ac414cbe41e102c71a3f4386206a49"}, "vout": 0, "txid": "f1a07126dc6a6ae940e7b33b35df9a973bdaf2e2d5bc77750df2307d94c3dfe8"}], "txid": "7d330a3cde894619b18b09aaeed3b4391cbfdfd4a3a8c2a633be96762fdd0aa9", "blocktime": 1537872018, "version": 1, "confirmations": 11489, "time": 1537872018, "locktime": 0, "vsize": 659, "size": 1231}