{"hash": "8fcb72ca01284d2158ef19e0980a7d8a5adf4a76842a2a7a52b1628ee1e06d87", "blockhash": "0000000000000000001f76057863aec43deb6fa401d9628bb513d65a8098bfab", "vout": [{"scriptPubKey": {"reqSigs": 1, "hex": "76a91446ef508a14bb42e799b5d09222c46babf91bf68f88ac", "addresses": ["17U4zJKF4p93wJcqWjUuzgsFAiXug5drGW"], "asm": "OP_DUP OP_HASH160 46ef508a14bb42e799b5d09222c46babf91bf68f OP_EQUALVERIFY OP_CHECKSIG", "type": "pubkeyhash"}, "value": 0.015275, "n": 0}, {"scriptPubKey": {"reqSigs": 1, "hex": "a9140d2b7eac6da207091e1d98d84f59ff07b261b02487", "addresses": ["32tep7N3tyUzpDkAs5vPBWpFwYxQVhkHm8"], "asm": "OP_HASH160 0d2b7eac6da207091e1d98d84f59ff07b261b024 OP_EQUAL", "type": "scripthash"}, "value": 0.02171576, "n": 1}], "hex": "02000000000102728147d087ad25a86e6093c65eba2ac2e9a9fff653e52f9e8dd826be12ab0378370000006a47304402205a1a7ceb10fec978638cc7934b3c63bfc4308cbb5a7ce83e7258ae431395678c022010a122e560098be43552bdf1e08e3dacb49811e1cad4f052716bd66142a1dea00121022324f6f74c1698eaa04076c0ed3614d9224a2b854e45b45d0bda7bb69eb0d568feffffff7a370cf35e51aaba32722826cbacd7bf64f21e6508244927f1ca86f09ad74ebe0100000017160014ca597f3ec2e3ad7b06062b5814412abd0c4fb3f9feffffff02cc4e1700000000001976a91446ef508a14bb42e799b5d09222c46babf91bf68f88acb82221000000000017a9140d2b7eac6da207091e1d98d84f59ff07b261b024870002473044022057f6deb5056f8299f5b04cfa8163f556c766669807f5923ad767a1a24f5616880220042fec512620723bb352d66b18932b61e80f7d4a8b72bfd3c91dc10db95b74ce012102d5e45ede1ef4f8ed30747900b57b22088484bbd2cba96ca4e7808d81d0670e5413490800", "vin": [{"sequence": 4294967294, "scriptSig": {"hex": "47304402205a1a7ceb10fec978638cc7934b3c63bfc4308cbb5a7ce83e7258ae431395678c022010a122e560098be43552bdf1e08e3dacb49811e1cad4f052716bd66142a1dea00121022324f6f74c1698eaa04076c0ed3614d9224a2b854e45b45d0bda7bb69eb0d568", "asm": "304402205a1a7ceb10fec978638cc7934b3c63bfc4308cbb5a7ce83e7258ae431395678c022010a122e560098be43552bdf1e08e3dacb49811e1cad4f052716bd66142a1dea0[ALL] 022324f6f74c1698eaa04076c0ed3614d9224a2b854e45b45d0bda7bb69eb0d568"}, "vout": 55, "txid": "7803ab12be26d88d9e2fe553f6ffa9e9c22aba5ec693606ea825ad87d0478172"}, {"txinwitness": ["3044022057f6deb5056f8299f5b04cfa8163f556c766669807f5923ad767a1a24f5616880220042fec512620723bb352d66b18932b61e80f7d4a8b72bfd3c91dc10db95b74ce01", "02d5e45ede1ef4f8ed30747900b57b22088484bbd2cba96ca4e7808d81d0670e54"], "sequence": 4294967294, "scriptSig": {"hex": "160014ca597f3ec2e3ad7b06062b5814412abd0c4fb3f9", "asm": "0014ca597f3ec2e3ad7b06062b5814412abd0c4fb3f9"}, "vout": 1, "txid": "be4ed79af086caf127492408651ef264bfd7accb26287232baaa515ef30c377a"}], "txid": "7d34666b5ae533cac88e7f72a625d48331865312a7b468c106fd2a7451a41e53", "blocktime": 1537873891, "version": 2, "confirmations": 11474, "time": 1537873891, "locktime": 542995, "vsize": 315, "size": 397}