{"hash": "6e079f0244eb674b917ebddb65b4f1b52cbe9f6d5cd7e8b2b0b2d53ac853e025", "blockhash": "000000000000000000022b45ed06c6f4ccd3cf7fb5ba4856ebd2e58215665228", "vout": [{"scriptPubKey": {"reqSigs": 1, "hex": "a91486016bbbd92d9a53af8f8b163b572057e3bd04b887", "addresses": ["3DuaAyEcxqp6GtD8D3nXDyQug1JpHX7gnq"], "asm": "OP_HASH160 86016bbbd92d9a53af8f8b163b572057e3bd04b8 OP_EQUAL", "type": "scripthash"}, "value": 0.17062818, "n": 0}, {"scriptPubKey": {"reqSigs": 1, "hex": "a91426555e2aeecb5700477d1475159a08d2d14fa50187", "addresses": ["35BhsJ4dZF9QT6vdYxxU9YjFXEXQ7KRBnm"], "asm": "OP_HASH160 26555e2aeecb5700477d1475159a08d2d14fa501 OP_EQUAL", "type": "scripthash"}, "value": 0.0125463, "n": 1}], "hex": "02000000000104620f242341f70e4793e72fdcbf221f2eeee73d2ef288d8b2f3f15e8a23fd975600000000171600144bbb8b713b6acf09a0f91936c56a350bdb650364feffffff6ba31e004813cbcd6e17b4add8b9bb9a092aa8b5b040d09933ae6554464c79b20100000017160014562b1a894af802cd61a0eaa35a5c9c85f54d4490feffffffafddfb75c60ec2e19931988930df218cac9c43ea4599f1f4653de3a8cc61d45b00000000171600146266b2d62c5ac446e55fb02ceb45b448f525249efeffffffb3248fb8913a0b2f769e4043af4bdb3bed4d116920ace9f4a7fa26d543f420290000000017160014938a2a0133aa74ea8f9f8428643c9bda3f5ab293feffffff02a25b04010000000017a91486016bbbd92d9a53af8f8b163b572057e3bd04b887e62413000000000017a91426555e2aeecb5700477d1475159a08d2d14fa5018702483045022100aef96ed5a86926bf51562accc3c5ed6a0f46f153217820404bfbb2d9e4b754e402200b42a4df9427cbaa41a391c2e9fa825c4c6b4b66e2fd7229b74674fc317864fd0121037b0c612c425b4a9df742c116d48109102d5c1b8a782e2e601e250931de635b3f02483045022100f98a5f200a694dcefb1d059474821ab38fde1ff13aeff93de710a0a57c41114a02200c2d501fdb79b3b77492ca34550870014041a9def8c08eb01edb8c0444be56190121036415bd617ecc356816835f7b130dfc42bb43943a90dce5375a1c1f3d8dfa4ff002483045022100d14c769d9e3e98ab23b19b42133ab0915a1293a9bf86d37bea38ae770e46d26a022059fed56af0642999c91ec9137210a1763813694037db90ec12838d7352e516340121039c4989dba214a096fa81837b5d6fde25f7ab8062c5e5307248d270dc913421280247304402206f8a7633bcf33659c9ff5edc53bf1980ef4c43ab133a36da2fb510755424fc4a022048cb6b7c7b87603106589e3d9f2e13d14d53eaa65f2afe9606f1ffc393e66217012102f31c69624d0d5a5b89dbc6d178d229761c2c10358d144afbfe23e8449b3f76ec0b490800", "vin": [{"txinwitness": ["3045022100aef96ed5a86926bf51562accc3c5ed6a0f46f153217820404bfbb2d9e4b754e402200b42a4df9427cbaa41a391c2e9fa825c4c6b4b66e2fd7229b74674fc317864fd01", "037b0c612c425b4a9df742c116d48109102d5c1b8a782e2e601e250931de635b3f"], "sequence": 4294967294, "scriptSig": {"hex": "1600144bbb8b713b6acf09a0f91936c56a350bdb650364", "asm": "00144bbb8b713b6acf09a0f91936c56a350bdb650364"}, "vout": 0, "txid": "5697fd238a5ef1f3b2d888f22e3de7ee2e1f22bfdc2fe793470ef74123240f62"}, {"txinwitness": ["3045022100f98a5f200a694dcefb1d059474821ab38fde1ff13aeff93de710a0a57c41114a02200c2d501fdb79b3b77492ca34550870014041a9def8c08eb01edb8c0444be561901", "036415bd617ecc356816835f7b130dfc42bb43943a90dce5375a1c1f3d8dfa4ff0"], "sequence": 4294967294, "scriptSig": {"hex": "160014562b1a894af802cd61a0eaa35a5c9c85f54d4490", "asm": "0014562b1a894af802cd61a0eaa35a5c9c85f54d4490"}, "vout": 1, "txid": "b2794c465465ae3399d040b0b5a82a099abbb9d8adb4176ecdcb1348001ea36b"}, {"txinwitness": ["3045022100d14c769d9e3e98ab23b19b42133ab0915a1293a9bf86d37bea38ae770e46d26a022059fed56af0642999c91ec9137210a1763813694037db90ec12838d7352e5163401", "039c4989dba214a096fa81837b5d6fde25f7ab8062c5e5307248d270dc91342128"], "sequence": 4294967294, "scriptSig": {"hex": "1600146266b2d62c5ac446e55fb02ceb45b448f525249e", "asm": "00146266b2d62c5ac446e55fb02ceb45b448f525249e"}, "vout": 0, "txid": "5bd461cca8e33d65f4f19945ea439cac8c21df3089983199e1c20ec675fbddaf"}, {"txinwitness": ["304402206f8a7633bcf33659c9ff5edc53bf1980ef4c43ab133a36da2fb510755424fc4a022048cb6b7c7b87603106589e3d9f2e13d14d53eaa65f2afe9606f1ffc393e6621701", "02f31c69624d0d5a5b89dbc6d178d229761c2c10358d144afbfe23e8449b3f76ec"], "sequence": 4294967294, "scriptSig": {"hex": "160014938a2a0133aa74ea8f9f8428643c9bda3f5ab293", "asm": "0014938a2a0133aa74ea8f9f8428643c9bda3f5ab293"}, "vout": 0, "txid": "2920f443d526faa7f4e9ac2069114ded3bdb4baf43409e762f0b3a91b88f24b3"}], "txid": "7d352abde38ee71734029c6141efee956a2c77284e0666b800d5fa25be17fdda", "blocktime": 1537869901, "version": 2, "confirmations": 11524, "time": 1537869901, "locktime": 542987, "vsize": 439, "size": 763}