{"hash": "7d49d399c0286f40e779a2f7d85516cfe150e38a39a7b262e4ccc42ce66e58cb", "blockhash": "0000000000000000001e0dab787dd257d1dbfcb92a98c2207d5e1078be1f4165", "vout": [{"scriptPubKey": {"reqSigs": 1, "hex": "76a914cc73b1b17ece0e64c05d99ce1dc376311d8c288088ac", "addresses": ["1Ke3ShgZPpBhoLKWvGACC4b2RjY7Mc5uS3"], "asm": "OP_DUP OP_HASH160 cc73b1b17ece0e64c05d99ce1dc376311d8c2880 OP_EQUALVERIFY OP_CHECKSIG", "type": "pubkeyhash"}, "value": 0.008212, "n": 0}, {"scriptPubKey": {"reqSigs": 1, "hex": "76a914b59aa0a2dfacad972d21615d66161a7f904503e788ac", "addresses": ["1HZEYRnYUXARScHTwa3XMyrvHC9ikhc2te"], "asm": "OP_DUP OP_HASH160 b59aa0a2dfacad972d21615d66161a7f904503e7 OP_EQUALVERIFY OP_CHECKSIG", "type": "pubkeyhash"}, "value": 0.03909719, "n": 1}], "hex": "0100000001b0087f26cdd051d1347e7ada8afe816015377c51db59aa96e7d52e51bfdf1697000000006b483045022100b6fa01a55de1cb4247d154164b8fc3ad30124e87d6945055f29ba190714906b402205aa40434297914ba203200386cd6201ccc7455019a826825c5ee32bf10aea2d601210376241bc2bde18e0faccc1965f96d203efba1d894f8d349bc4877731cbb4aab60feffffff02d0870c00000000001976a914cc73b1b17ece0e64c05d99ce1dc376311d8c288088ac57a83b00000000001976a914b59aa0a2dfacad972d21615d66161a7f904503e788ac12490800", "vin": [{"sequence": 4294967294, "scriptSig": {"hex": "483045022100b6fa01a55de1cb4247d154164b8fc3ad30124e87d6945055f29ba190714906b402205aa40434297914ba203200386cd6201ccc7455019a826825c5ee32bf10aea2d601210376241bc2bde18e0faccc1965f96d203efba1d894f8d349bc4877731cbb4aab60", "asm": "3045022100b6fa01a55de1cb4247d154164b8fc3ad30124e87d6945055f29ba190714906b402205aa40434297914ba203200386cd6201ccc7455019a826825c5ee32bf10aea2d6[ALL] 0376241bc2bde18e0faccc1965f96d203efba1d894f8d349bc4877731cbb4aab60"}, "vout": 0, "txid": "9716dfbf512ed5e796aa59db517c37156081fe8ada7a7e34d151d0cd267f08b0"}], "txid": "7d49d399c0286f40e779a2f7d85516cfe150e38a39a7b262e4ccc42ce66e58cb", "blocktime": 1537872475, "version": 1, "confirmations": 11486, "time": 1537872475, "locktime": 542994, "vsize": 226, "size": 226}