{"hash": "bfa04d57ec8d816be4492d9eb00aac7f3078134b214052a747fc4316e9af5b96", "blockhash": "000000000000000000022b45ed06c6f4ccd3cf7fb5ba4856ebd2e58215665228", "vout": [{"scriptPubKey": {"reqSigs": 1, "hex": "a914bdcf867626d983b3e9384c21fcc87c03d3f57a7787", "addresses": ["3JzeEuWfZmmvEiknMzZJgSqbtY3VPAuXgt"], "asm": "OP_HASH160 bdcf867626d983b3e9384c21fcc87c03d3f57a77 OP_EQUAL", "type": "scripthash"}, "value": 0.00013987, "n": 0}, {"scriptPubKey": {"reqSigs": 1, "hex": "a914487162c585f75b6cc150d77d82a25a5579e61e5b87", "addresses": ["38J4QYKmzGRejkvV9knWmLoNdpDaarqRxW"], "asm": "OP_HASH160 487162c585f75b6cc150d77d82a25a5579e61e5b OP_EQUAL", "type": "scripthash"}, "value": 1.04747366, "n": 1}], "hex": "0100000000010101c90e0ee52f049c42db1e2b9af8ef4bb9260e149954b7431fd10493a03f61d9010000002322002044dec21a3f37d24817a24fccbf8cda9f68367d66cec31872187a00bd1cc9b702ffffffff02a33600000000000017a914bdcf867626d983b3e9384c21fcc87c03d3f57a778766513e060000000017a914487162c585f75b6cc150d77d82a25a5579e61e5b8704004730440220062a1ccac53d34b5fa312fc146453ed57009e05ddffae6fe32119bad0b413c13022040d19e6d96d327700257c866015cb6d04a433c78e44bc6b316acc68f08bc5a9101483045022100b9952d3795020aae717b532fd2351e3033f966903ac85bc37125dab69e13694302207d0e77cc66df9f74bf6ec985ee10f5765c369d04c21d30693cfb5b84de98d2d601475221035bd066d3e541773e5250501a67e4a775970be7dfff703259a4c11e220115b4762103871fc2ca08e6950b38867e8e6a0e94ee625223d3aa0df5c65f414c6d784467e252ae00000000", "vin": [{"txinwitness": ["", "30440220062a1ccac53d34b5fa312fc146453ed57009e05ddffae6fe32119bad0b413c13022040d19e6d96d327700257c866015cb6d04a433c78e44bc6b316acc68f08bc5a9101", "3045022100b9952d3795020aae717b532fd2351e3033f966903ac85bc37125dab69e13694302207d0e77cc66df9f74bf6ec985ee10f5765c369d04c21d30693cfb5b84de98d2d601", "5221035bd066d3e541773e5250501a67e4a775970be7dfff703259a4c11e220115b4762103871fc2ca08e6950b38867e8e6a0e94ee625223d3aa0df5c65f414c6d784467e252ae"], "sequence": 4294967295, "scriptSig": {"hex": "22002044dec21a3f37d24817a24fccbf8cda9f68367d66cec31872187a00bd1cc9b702", "asm": "002044dec21a3f37d24817a24fccbf8cda9f68367d66cec31872187a00bd1cc9b702"}, "vout": 1, "txid": "d9613fa09304d11f43b75499140e26b94beff89a2b1edb429c042fe50e0ec901"}], "txid": "7d4a2024beafc281f78fe6c9b0d185b2184c40985451984f802a865a3c39951e", "blocktime": 1537869901, "version": 1, "confirmations": 11524, "time": 1537869901, "locktime": 0, "vsize": 206, "size": 371}