{"hash": "1c78e467ac8adaf54a3782aa083711e1c6f720a9f5c554f25c9bf1d0d149c1eb", "blockhash": "0000000000000000001f76057863aec43deb6fa401d9628bb513d65a8098bfab", "vout": [{"scriptPubKey": {"reqSigs": 1, "hex": "a9148321bac2202c2b1e12fe11bf27bf5f01f34f5b0587", "addresses": ["3DeNrEzKoUdDa6m3FJvp4jPBk1JrUfuUHz"], "asm": "OP_HASH160 8321bac2202c2b1e12fe11bf27bf5f01f34f5b05 OP_EQUAL", "type": "scripthash"}, "value": 0.00187956, "n": 0}, {"scriptPubKey": {"reqSigs": 1, "hex": "a9147166afe342ed42ac5fb1f7f06a74b34cce6483c187", "addresses": ["3C2dJ3RuuvrzucjMKJHqEKaMetPkzeqRgQ"], "asm": "OP_HASH160 7166afe342ed42ac5fb1f7f06a74b34cce6483c1 OP_EQUAL", "type": "scripthash"}, "value": 0.01025272, "n": 1}], "hex": "0200000000010225d3db74e3718ef7e42c625e8f60cd33316e8f6114b219e42d6672274bb5258100000000171600147abc56f0d02c19b37ef7a91d8c0d0ba07d2dd50bfeffffffb6d1ed3e5e9b72d245539076200eaf846d7b7b37dc14196868607685edf1f40d01000000171600148a6b62c6c6751e98292ee380b1927f42ba9c5d9bfeffffff0234de02000000000017a9148321bac2202c2b1e12fe11bf27bf5f01f34f5b0587f8a40f000000000017a9147166afe342ed42ac5fb1f7f06a74b34cce6483c18702483045022100d80d5f0c37ed89afa4442e2b27189249d6288d77f5ca8f4943d10669d19119450220532b8f60b283a68518e45d0f4ecee477f2fcf78cf916731a81f7d70cc6a80de7012102e4faa7108e70bc43748aa85f4709382d68ac4968217859b156a6bf9cfb4b606502473044022001a8b53c405c17765faf6128a62d8cd34e35ad9fc15e2c67e211ab8f08176f4d02202e5a8db39bfe58ad41eccdf6204b6a0e11543e75e186e61fe1070cdf0c80ee6601210365f0c2dd325998f2a214dde26772f343c90212e446e1bd07e44cd21a22d13e3d14490800", "vin": [{"txinwitness": ["3045022100d80d5f0c37ed89afa4442e2b27189249d6288d77f5ca8f4943d10669d19119450220532b8f60b283a68518e45d0f4ecee477f2fcf78cf916731a81f7d70cc6a80de701", "02e4faa7108e70bc43748aa85f4709382d68ac4968217859b156a6bf9cfb4b6065"], "sequence": 4294967294, "scriptSig": {"hex": "1600147abc56f0d02c19b37ef7a91d8c0d0ba07d2dd50b", "asm": "00147abc56f0d02c19b37ef7a91d8c0d0ba07d2dd50b"}, "vout": 0, "txid": "8125b54b2772662de419b214618f6e3133cd608f5e622ce4f78e71e374dbd325"}, {"txinwitness": ["3044022001a8b53c405c17765faf6128a62d8cd34e35ad9fc15e2c67e211ab8f08176f4d02202e5a8db39bfe58ad41eccdf6204b6a0e11543e75e186e61fe1070cdf0c80ee6601", "0365f0c2dd325998f2a214dde26772f343c90212e446e1bd07e44cd21a22d13e3d"], "sequence": 4294967294, "scriptSig": {"hex": "1600148a6b62c6c6751e98292ee380b1927f42ba9c5d9b", "asm": "00148a6b62c6c6751e98292ee380b1927f42ba9c5d9b"}, "vout": 1, "txid": "0df4f1ed85766068681914dc377b7b6d84af0e2076905345d2729b5e3eedd1b6"}], "txid": "7d4bc5af8b8129d696c97bc86d80e2d7797a07dfb2349adb8c026508029f4728", "blocktime": 1537873891, "version": 2, "confirmations": 11478, "time": 1537873891, "locktime": 542996, "vsize": 257, "size": 419}