{"hash": "7d4d8a733fa7b09ccec16cf4764331c59bc2a2ae72f87bde499ce4750aeaf828", "blockhash": "00000000000000000004ffacab907a6b429b9a5745fa0b75af4234bf69dd7176", "vout": [{"scriptPubKey": {"reqSigs": 1, "hex": "76a91450170849ba3365f8945eece6c92eedce08d3331788ac", "addresses": ["18JUefWNWMjedJBc9hTNbD5Ra9m4UWMCUa"], "asm": "OP_DUP OP_HASH160 50170849ba3365f8945eece6c92eedce08d33317 OP_EQUALVERIFY OP_CHECKSIG", "type": "pubkeyhash"}, "value": 0.01562422, "n": 0}, {"scriptPubKey": {"reqSigs": 1, "hex": "76a914e67b23ef2ea5d843da0663f1b4b58fc0ac0b9ac388ac", "addresses": ["1N1fw4hagerCPckighXsERN9gUrcUYcXKB"], "asm": "OP_DUP OP_HASH160 e67b23ef2ea5d843da0663f1b4b58fc0ac0b9ac3 OP_EQUALVERIFY OP_CHECKSIG", "type": "pubkeyhash"}, "value": 0.07437298, "n": 1}], "hex": "01000000014a7b04f436eabd048617eea54397be5c64bfb4e006ac0c2db854b92c9535d584010000006a473044022055729bc12adfb39f9bce23ff411deace1672ed09153c2add49bad19f3588cb2402202fc3ed5d7d0a675000ab354d6e51e5ff50210afb6abec95ed1da9ab7285847e4012103d18f8638380dd0ceccd9d9b1c1131453be5da3808ef1a46aca8532fdbad5eb7affffffff0236d71700000000001976a91450170849ba3365f8945eece6c92eedce08d3331788acf27b7100000000001976a914e67b23ef2ea5d843da0663f1b4b58fc0ac0b9ac388ac00000000", "vin": [{"sequence": 4294967295, "scriptSig": {"hex": "473044022055729bc12adfb39f9bce23ff411deace1672ed09153c2add49bad19f3588cb2402202fc3ed5d7d0a675000ab354d6e51e5ff50210afb6abec95ed1da9ab7285847e4012103d18f8638380dd0ceccd9d9b1c1131453be5da3808ef1a46aca8532fdbad5eb7a", "asm": "3044022055729bc12adfb39f9bce23ff411deace1672ed09153c2add49bad19f3588cb2402202fc3ed5d7d0a675000ab354d6e51e5ff50210afb6abec95ed1da9ab7285847e4[ALL] 03d18f8638380dd0ceccd9d9b1c1131453be5da3808ef1a46aca8532fdbad5eb7a"}, "vout": 1, "txid": "84d535952cb954b82d0cac06e0b4bf645cbe9743a5ee178604bdea36f4047b4a"}], "txid": "7d4d8a733fa7b09ccec16cf4764331c59bc2a2ae72f87bde499ce4750aeaf828", "blocktime": 1537875543, "version": 1, "confirmations": 11464, "time": 1537875543, "locktime": 0, "vsize": 225, "size": 225}