{"hash": "7d4ff6492761e297d4902449239c9de64793b25a9ed7c790943bb15d4b232742", "blockhash": "0000000000000000000e13cef7c366c0283d82e591d1acd082e914b08063cdf1", "vout": [{"scriptPubKey": {"reqSigs": 1, "hex": "76a9141f0715c5c7cb51e4c690bb7f4663a797c9346f3988ac", "addresses": ["13q4SE2WiFSJh41CcasN5XRL6yLdCYfae9"], "asm": "OP_DUP OP_HASH160 1f0715c5c7cb51e4c690bb7f4663a797c9346f39 OP_EQUALVERIFY OP_CHECKSIG", "type": "pubkeyhash"}, "value": 0.0361005, "n": 0}, {"scriptPubKey": {"reqSigs": 1, "hex": "76a9141eba81e0af9cd54db57cb94ee67aa0124bf54bdb88ac", "addresses": ["13oUhWgPY6kryQcr9NS3veZT9uDmvtVqCh"], "asm": "OP_DUP OP_HASH160 1eba81e0af9cd54db57cb94ee67aa0124bf54bdb OP_EQUALVERIFY OP_CHECKSIG", "type": "pubkeyhash"}, "value": 0.0654, "n": 1}], "hex": "0100000002857f50010c87c3ac6261a62a5bc783c36c576c7f5e90a7ac6b8d8a85e6cf396f010000006b483045022100e89eca0982c8f757f5f26d2dabbd23e60cf6caf37e5907c49fde70f4dddd0fe202201d4908bdd3c71d2f87f5ed5899aa965962e51867a77173fb70f40b440d5ddfa201210345e8ee852811794ade4c73294466c64b6ca5c2dff660bf488192e5cee22ee0f5ffffffffa7499414004cde699804896ea0e3a4d02578b60c549720e22237d8031cd6fead000000006a47304402202d0cbf1130d3c32810c6f57f64088a92252adf1246d8ca211d7b2ef633a3c30f02204cb9de91d4bf5ee9723e20659ce02c927e8348fce49727eaa6a36d2f7708eb9d012103c5b4ab326b31c7cd7c02fb8320e3e1d5ba4eca5e9d2aa4279e31b964a67c2591ffffffff02c2153700000000001976a9141f0715c5c7cb51e4c690bb7f4663a797c9346f3988ace0ca6300000000001976a9141eba81e0af9cd54db57cb94ee67aa0124bf54bdb88ac00000000", "vin": [{"sequence": 4294967295, "scriptSig": {"hex": "483045022100e89eca0982c8f757f5f26d2dabbd23e60cf6caf37e5907c49fde70f4dddd0fe202201d4908bdd3c71d2f87f5ed5899aa965962e51867a77173fb70f40b440d5ddfa201210345e8ee852811794ade4c73294466c64b6ca5c2dff660bf488192e5cee22ee0f5", "asm": "3045022100e89eca0982c8f757f5f26d2dabbd23e60cf6caf37e5907c49fde70f4dddd0fe202201d4908bdd3c71d2f87f5ed5899aa965962e51867a77173fb70f40b440d5ddfa2[ALL] 0345e8ee852811794ade4c73294466c64b6ca5c2dff660bf488192e5cee22ee0f5"}, "vout": 1, "txid": "6f39cfe6858a8d6baca7905e7f6c576cc383c75b2aa66162acc3870c01507f85"}, {"sequence": 4294967295, "scriptSig": {"hex": "47304402202d0cbf1130d3c32810c6f57f64088a92252adf1246d8ca211d7b2ef633a3c30f02204cb9de91d4bf5ee9723e20659ce02c927e8348fce49727eaa6a36d2f7708eb9d012103c5b4ab326b31c7cd7c02fb8320e3e1d5ba4eca5e9d2aa4279e31b964a67c2591", "asm": "304402202d0cbf1130d3c32810c6f57f64088a92252adf1246d8ca211d7b2ef633a3c30f02204cb9de91d4bf5ee9723e20659ce02c927e8348fce49727eaa6a36d2f7708eb9d[ALL] 03c5b4ab326b31c7cd7c02fb8320e3e1d5ba4eca5e9d2aa4279e31b964a67c2591"}, "vout": 0, "txid": "adfed61c03d83722e22097540cb67825d0a4e3a06e89049869de4c00149449a7"}], "txid": "7d4ff6492761e297d4902449239c9de64793b25a9ed7c790943bb15d4b232742", "blocktime": 1537871767, "version": 1, "confirmations": 11493, "time": 1537871767, "locktime": 0, "vsize": 373, "size": 373}