{"hash": "7d54742d544b3afec190e492e58eca972dd3215d02856e82d49df2ae3f5c985a", "blockhash": "0000000000000000001f0ddff1eddb255c1121bcd4da4f1bc9a0da00cae72433", "vout": [{"scriptPubKey": {"reqSigs": 1, "hex": "76a914cf27837b157559ac2d0eeded2b451f3a4ef4d65588ac", "addresses": ["1KtLDAP5yJpbETFzMG1VgubJPspFVEQvnp"], "asm": "OP_DUP OP_HASH160 cf27837b157559ac2d0eeded2b451f3a4ef4d655 OP_EQUALVERIFY OP_CHECKSIG", "type": "pubkeyhash"}, "value": 0.0006, "n": 0}, {"scriptPubKey": {"reqSigs": 1, "hex": "76a914e349bc52d6b8100b58d3fce45135a91c5c128a1d88ac", "addresses": ["1MiningDkXkhKaXBTMKXfLemnk1YY5rbkT"], "asm": "OP_DUP OP_HASH160 e349bc52d6b8100b58d3fce45135a91c5c128a1d OP_EQUALVERIFY OP_CHECKSIG", "type": "pubkeyhash"}, "value": 0.11612994, "n": 1}], "hex": "02000000016978999e7da21dd58c2a59e4dbad23c52a68aa0866c602c40bfcad6598c4c6fc010000008b4830450221008fde17879d4c3a34084690c162163d3b78a074d8de1e2edfedbf41438a1a9f970220091e28c4ad53362a92a4565b7d366dcdd78425bb2f1941f0e6dbfc48f1644f07014104ae414abde7876c34e01694b38b2341d10b9b4c8db18a66262bd8df26bcb57893885c9fe8b79aa25330d5f05bb5aa9ab636a908a72e27956572b44190b22809beffffffff0260ea0000000000001976a914cf27837b157559ac2d0eeded2b451f3a4ef4d65588ac4233b100000000001976a914e349bc52d6b8100b58d3fce45135a91c5c128a1d88ac00000000", "vin": [{"sequence": 4294967295, "scriptSig": {"hex": "4830450221008fde17879d4c3a34084690c162163d3b78a074d8de1e2edfedbf41438a1a9f970220091e28c4ad53362a92a4565b7d366dcdd78425bb2f1941f0e6dbfc48f1644f07014104ae414abde7876c34e01694b38b2341d10b9b4c8db18a66262bd8df26bcb57893885c9fe8b79aa25330d5f05bb5aa9ab636a908a72e27956572b44190b22809be", "asm": "30450221008fde17879d4c3a34084690c162163d3b78a074d8de1e2edfedbf41438a1a9f970220091e28c4ad53362a92a4565b7d366dcdd78425bb2f1941f0e6dbfc48f1644f07[ALL] 04ae414abde7876c34e01694b38b2341d10b9b4c8db18a66262bd8df26bcb57893885c9fe8b79aa25330d5f05bb5aa9ab636a908a72e27956572b44190b22809be"}, "vout": 1, "txid": "fcc6c49865adfc0bc402c66608aa682ac523addbe4592a8cd51da27d9e997869"}], "txid": "7d54742d544b3afec190e492e58eca972dd3215d02856e82d49df2ae3f5c985a", "blocktime": 1537872018, "version": 2, "confirmations": 11489, "time": 1537872018, "locktime": 0, "vsize": 258, "size": 258}