{"hash": "8c377277bb77b8cb483f1a1d163f06d7efcced81dfb2b969335913ee4407e2c6", "blockhash": "00000000000000000024a2167bbff67b0be802c0b01cdd79e6331c2be6459f87", "vout": [{"scriptPubKey": {"reqSigs": 1, "hex": "76a914ea3d5dafea28f6226284ae08fb03b1e5cbe54d1788ac", "addresses": ["1NMYdft4K8mW4PzVt2wrH5r5BJBD9QrjwM"], "asm": "OP_DUP OP_HASH160 ea3d5dafea28f6226284ae08fb03b1e5cbe54d17 OP_EQUALVERIFY OP_CHECKSIG", "type": "pubkeyhash"}, "value": 0.012979, "n": 0}, {"scriptPubKey": {"reqSigs": 1, "hex": "a91415dfea55157f39fa958769cd03602021366c555787", "addresses": ["33ggMV38TFjGJEFaX2CqRZT8E731noL5VQ"], "asm": "OP_HASH160 15dfea55157f39fa958769cd03602021366c5557 OP_EQUAL", "type": "scripthash"}, "value": 3.28802144, "n": 1}], "hex": "02000000000101eb30921089799d895629fc2fee28ec12e7b3ae27a8792fa070980317098dafae0100000017160014b89d342a7c1644435186704d77522587e2ad9b5bfeffffff02eccd1300000000001976a914ea3d5dafea28f6226284ae08fb03b1e5cbe54d1788ac601f99130000000017a91415dfea55157f39fa958769cd03602021366c555787024830450221008169d1450b625303d4f99749a287473607604ee5abf084168b8cab157545717702204d0d005052045af1e684a6bbb991af191ad2ef71aa676b5a6d73adfa3fba94d3012102fffa996cfb37f2f550eca86e94d528ef3f079db54220f47bb5814eed3fb248330d490800", "vin": [{"txinwitness": ["30450221008169d1450b625303d4f99749a287473607604ee5abf084168b8cab157545717702204d0d005052045af1e684a6bbb991af191ad2ef71aa676b5a6d73adfa3fba94d301", "02fffa996cfb37f2f550eca86e94d528ef3f079db54220f47bb5814eed3fb24833"], "sequence": 4294967294, "scriptSig": {"hex": "160014b89d342a7c1644435186704d77522587e2ad9b5b", "asm": "0014b89d342a7c1644435186704d77522587e2ad9b5b"}, "vout": 1, "txid": "aeaf8d0917039870a02f79a827aeb3e712ec28ee2ffc2956899d7989109230eb"}], "txid": "7d568e3d271ee4c46368eab8659b2c285160cd2a9aa0cd17d035398261df7055", "blocktime": 1537870564, "version": 2, "confirmations": 11515, "time": 1537870564, "locktime": 542989, "vsize": 168, "size": 250}