{"hash": "7d59d807d9706054aa103ef1daad47aa2e6004213aa299bd478daae341aa3a50", "blockhash": "0000000000000000001cda96e906b7601b7a6fb1a3b62bca570a9e5d8f4b3de1", "vout": [{"scriptPubKey": {"reqSigs": 1, "hex": "76a914819a8e8c6f2851b2a2ada8b0c83399f9c5ecb76d88ac", "addresses": ["1CpHKYVXDDpNhAR4ekYXj6cmAChb6bV2DR"], "asm": "OP_DUP OP_HASH160 819a8e8c6f2851b2a2ada8b0c83399f9c5ecb76d OP_EQUALVERIFY OP_CHECKSIG", "type": "pubkeyhash"}, "value": 0.00287983, "n": 0}, {"scriptPubKey": {"reqSigs": 1, "hex": "76a91472466cc7da59a7c2040c00b625c04a78a867b5bb88ac", "addresses": ["1BREQ5Y65gCjgXwc1HXeLN18ePBdzqTJWD"], "asm": "OP_DUP OP_HASH160 72466cc7da59a7c2040c00b625c04a78a867b5bb OP_EQUALVERIFY OP_CHECKSIG", "type": "pubkeyhash"}, "value": 1.0, "n": 1}], "hex": "0100000002bda7962575f4bdefa82a39a93d75444aedab9ce799095223c1d3e7471197202a010000006b48304502210086fb4220a62424551e24fb998897e8e3fbfb367680f018e1134a0606e6b2e59f02206514b6ade2ea6c2db5c75252eda111dfd2c0bdbd0c157da04a3f3387cac28483012103b851030c08d35d46f8f7788efc0927382d22575d5582f289ad1737a6615b9adbffffffff13d431670ee45ebd982e0943d91d42f1c8b41ef4afa86109995958f974ea36b1000000006b4830450221008b5a599b932c7d4da5b235874976604da85452a707deb04bad0a39770a3a5c51022021d10448f40c94d8bc99d97456046fd5f8c09962ac4a62e87419575775cb2ff30121026ca8fd772e9e1fe6f5e292ed7b8ed25eef19a93d4cacfa1a4033af8ff0192e0affffffff02ef640400000000001976a914819a8e8c6f2851b2a2ada8b0c83399f9c5ecb76d88ac00e1f505000000001976a91472466cc7da59a7c2040c00b625c04a78a867b5bb88ac00000000", "vin": [{"sequence": 4294967295, "scriptSig": {"hex": "48304502210086fb4220a62424551e24fb998897e8e3fbfb367680f018e1134a0606e6b2e59f02206514b6ade2ea6c2db5c75252eda111dfd2c0bdbd0c157da04a3f3387cac28483012103b851030c08d35d46f8f7788efc0927382d22575d5582f289ad1737a6615b9adb", "asm": "304502210086fb4220a62424551e24fb998897e8e3fbfb367680f018e1134a0606e6b2e59f02206514b6ade2ea6c2db5c75252eda111dfd2c0bdbd0c157da04a3f3387cac28483[ALL] 03b851030c08d35d46f8f7788efc0927382d22575d5582f289ad1737a6615b9adb"}, "vout": 1, "txid": "2a20971147e7d3c123520999e79cabed4a44753da9392aa8efbdf4752596a7bd"}, {"sequence": 4294967295, "scriptSig": {"hex": "4830450221008b5a599b932c7d4da5b235874976604da85452a707deb04bad0a39770a3a5c51022021d10448f40c94d8bc99d97456046fd5f8c09962ac4a62e87419575775cb2ff30121026ca8fd772e9e1fe6f5e292ed7b8ed25eef19a93d4cacfa1a4033af8ff0192e0a", "asm": "30450221008b5a599b932c7d4da5b235874976604da85452a707deb04bad0a39770a3a5c51022021d10448f40c94d8bc99d97456046fd5f8c09962ac4a62e87419575775cb2ff3[ALL] 026ca8fd772e9e1fe6f5e292ed7b8ed25eef19a93d4cacfa1a4033af8ff0192e0a"}, "vout": 0, "txid": "b136ea74f95859990961a8aff41eb4c8f1421dd943092e98bd5ee40e6731d413"}], "txid": "7d59d807d9706054aa103ef1daad47aa2e6004213aa299bd478daae341aa3a50", "blocktime": 1537873282, "version": 1, "confirmations": 11485, "time": 1537873282, "locktime": 0, "vsize": 374, "size": 374}