{"hash": "7d5ced41ccb8f7444364a043df7cc2c67475fb397d3476aea27e169b4f065c4d", "blockhash": "00000000000000000004ffacab907a6b429b9a5745fa0b75af4234bf69dd7176", "vout": [{"scriptPubKey": {"reqSigs": 1, "hex": "a914ba7a6cb341088ef88efb6fd1e1dcdc620ef0f5aa87", "addresses": ["3Jh2GSCSdPWSo4WQrKY5sEXKrsTpfEeiy3"], "asm": "OP_HASH160 ba7a6cb341088ef88efb6fd1e1dcdc620ef0f5aa OP_EQUAL", "type": "scripthash"}, "value": 0.0025686, "n": 0}, {"scriptPubKey": {"reqSigs": 1, "hex": "76a91409f3cb008b9de09b26ab7034fd367920e4898ff688ac", "addresses": ["1ud8m3u38uRRVtSVLKy4xwk2h7n2Wu1sR"], "asm": "OP_DUP OP_HASH160 09f3cb008b9de09b26ab7034fd367920e4898ff6 OP_EQUALVERIFY OP_CHECKSIG", "type": "pubkeyhash"}, "value": 0.11928165, "n": 1}], "hex": "0100000001dcf6f25db064b64cf9a7241ae35102bbfd6e8ba7ac865627092099cbb600491f010000006b483045022100d5cc41725c850c53877b134106966b742b157b305eed6c1d706eebc14e27d5c6022067e8d85f36af45bf6f75a9b511036378340d85957511b5e600baa486833b0285012103f34bf05382931b944e1e9a914fd307a38caf45a573b2a032ac0cb637e7f0a2a9ffffffff025ceb03000000000017a914ba7a6cb341088ef88efb6fd1e1dcdc620ef0f5aa876502b600000000001976a91409f3cb008b9de09b26ab7034fd367920e4898ff688ac00000000", "vin": [{"sequence": 4294967295, "scriptSig": {"hex": "483045022100d5cc41725c850c53877b134106966b742b157b305eed6c1d706eebc14e27d5c6022067e8d85f36af45bf6f75a9b511036378340d85957511b5e600baa486833b0285012103f34bf05382931b944e1e9a914fd307a38caf45a573b2a032ac0cb637e7f0a2a9", "asm": "3045022100d5cc41725c850c53877b134106966b742b157b305eed6c1d706eebc14e27d5c6022067e8d85f36af45bf6f75a9b511036378340d85957511b5e600baa486833b0285[ALL] 03f34bf05382931b944e1e9a914fd307a38caf45a573b2a032ac0cb637e7f0a2a9"}, "vout": 1, "txid": "1f4900b6cb992009275686aca78b6efdbb0251e31a24a7f94cb664b05df2f6dc"}], "txid": "7d5ced41ccb8f7444364a043df7cc2c67475fb397d3476aea27e169b4f065c4d", "blocktime": 1537875543, "version": 1, "confirmations": 11464, "time": 1537875543, "locktime": 0, "vsize": 224, "size": 224}