{"hash": "7d5cee6127f1bcb6e2b165054ffd5aa1862ebd4c0817b1dc6929483bdc4cbed0", "blockhash": "0000000000000000000baef3f32e3676a92c3b2e5da21b426e4f302fc371ce76", "vout": [{"scriptPubKey": {"reqSigs": 1, "hex": "76a914be41eb80ca65f8179bc0617153c218c74793d04d88ac", "addresses": ["1JLzMeR52nHXTgjp2vzsRMB2PVLyr5Ep2G"], "asm": "OP_DUP OP_HASH160 be41eb80ca65f8179bc0617153c218c74793d04d OP_EQUALVERIFY OP_CHECKSIG", "type": "pubkeyhash"}, "value": 0.00188, "n": 0}, {"scriptPubKey": {"reqSigs": 1, "hex": "76a91448ef13c42e7629a5c00acacde9959b711bd7c43a88ac", "addresses": ["17ee4BtUD7afJrmfBfCEnvAumkAZQ5qhb2"], "asm": "OP_DUP OP_HASH160 48ef13c42e7629a5c00acacde9959b711bd7c43a OP_EQUALVERIFY OP_CHECKSIG", "type": "pubkeyhash"}, "value": 0.0056943, "n": 1}], "hex": "01000000011415c98c5bddd9b9ad1e9321362c8794382a1d65c587e019b7cd6b0a47c347b1010000006a4730440220125319e57106ce285e09491243834657b72abcf0ad7c4150d6b0d8f2d133332e022020d330f47ef767bd41aa828de971a77d284fc25b46d94291152b836b603200a6012102f88f532b0681d2928dfb595233ea90330e46ab6dabfc01c2e74484c6e637ced1ffffffff0260de0200000000001976a914be41eb80ca65f8179bc0617153c218c74793d04d88ac56b00800000000001976a91448ef13c42e7629a5c00acacde9959b711bd7c43a88ac00000000", "vin": [{"sequence": 4294967295, "scriptSig": {"hex": "4730440220125319e57106ce285e09491243834657b72abcf0ad7c4150d6b0d8f2d133332e022020d330f47ef767bd41aa828de971a77d284fc25b46d94291152b836b603200a6012102f88f532b0681d2928dfb595233ea90330e46ab6dabfc01c2e74484c6e637ced1", "asm": "30440220125319e57106ce285e09491243834657b72abcf0ad7c4150d6b0d8f2d133332e022020d330f47ef767bd41aa828de971a77d284fc25b46d94291152b836b603200a6[ALL] 02f88f532b0681d2928dfb595233ea90330e46ab6dabfc01c2e74484c6e637ced1"}, "vout": 1, "txid": "b147c3470a6bcdb719e087c5651d2a3894872c3621931eadb9d9dd5b8cc91514"}], "txid": "7d5cee6127f1bcb6e2b165054ffd5aa1862ebd4c0817b1dc6929483bdc4cbed0", "blocktime": 1537876114, "version": 1, "confirmations": 11460, "time": 1537876114, "locktime": 0, "vsize": 225, "size": 225}