{"hash": "7d6b5d05297282c6957e29c693d598a36743a60e07dd805366a86860cce0096d", "blockhash": "00000000000000000018f53835495a110e01622372bf6ae95dc86f2b0ab887b0", "vout": [{"scriptPubKey": {"reqSigs": 1, "hex": "a9145272d107d9146b5df91d7e3bfd2d515a81f58be687", "addresses": ["39CxssBFFP44udT5LppdzDjjL7vXvcLCKC"], "asm": "OP_HASH160 5272d107d9146b5df91d7e3bfd2d515a81f58be6 OP_EQUAL", "type": "scripthash"}, "value": 0.10439, "n": 0}, {"scriptPubKey": {"reqSigs": 1, "hex": "76a914f2c1001e1bcff42ca778596fb478e0cdbece51f088ac", "addresses": ["1P8ZjL92p5cXHEzSSkZdAHWcnYK5mz2mGD"], "asm": "OP_DUP OP_HASH160 f2c1001e1bcff42ca778596fb478e0cdbece51f0 OP_EQUALVERIFY OP_CHECKSIG", "type": "pubkeyhash"}, "value": 0.07762774, "n": 1}], "hex": "02000000013c9b543bebbdc0868c0afc8e97ba5d645c3dcda85e62c8d8d319a771c148128a010000006b483045022100d7097dd348bd57f5f7773b7d97f50875eba446fc07a715e234d82bb341cbdd1002204c97b11e4e17800d0f706329ea56de6e580c72984ca0fb63784a7a49997a56fc01210235a1698912aed92b69a74e045f0551fe5946857f5431f62208d4ad10a288f090feffffff0258499f000000000017a9145272d107d9146b5df91d7e3bfd2d515a81f58be68756737600000000001976a914f2c1001e1bcff42ca778596fb478e0cdbece51f088ac0e490800", "vin": [{"sequence": 4294967294, "scriptSig": {"hex": "483045022100d7097dd348bd57f5f7773b7d97f50875eba446fc07a715e234d82bb341cbdd1002204c97b11e4e17800d0f706329ea56de6e580c72984ca0fb63784a7a49997a56fc01210235a1698912aed92b69a74e045f0551fe5946857f5431f62208d4ad10a288f090", "asm": "3045022100d7097dd348bd57f5f7773b7d97f50875eba446fc07a715e234d82bb341cbdd1002204c97b11e4e17800d0f706329ea56de6e580c72984ca0fb63784a7a49997a56fc[ALL] 0235a1698912aed92b69a74e045f0551fe5946857f5431f62208d4ad10a288f090"}, "vout": 1, "txid": "8a1248c171a719d3d8c8625ea8cd3d5c645dba978efc0a8c86c0bdeb3b549b3c"}], "txid": "7d6b5d05297282c6957e29c693d598a36743a60e07dd805366a86860cce0096d", "blocktime": 1537870928, "version": 2, "confirmations": 11512, "time": 1537870928, "locktime": 542990, "vsize": 224, "size": 224}