{"hash": "d208d92d1ed1b78b32e978f89ac7a31733f120ed0f5c592675f6c5417d61f93b", "blockhash": "00000000000000000024a2167bbff67b0be802c0b01cdd79e6331c2be6459f87", "vout": [{"scriptPubKey": {"reqSigs": 1, "hex": "a914092b8c8d2df6f32fad4c16b14b1602569350188e87", "addresses": ["32XWB7Khpf2MuUaykhsZf69ST4Q2JmHMZE"], "asm": "OP_HASH160 092b8c8d2df6f32fad4c16b14b1602569350188e OP_EQUAL", "type": "scripthash"}, "value": 3.16960321, "n": 0}, {"scriptPubKey": {"reqSigs": 1, "hex": "a9148e38467e1b3d647f0247db9b2ffb59e013398e3487", "addresses": ["3Ef1Hs5wecPEvqVRNCEktj6Gu8Grr9tVVi"], "asm": "OP_HASH160 8e38467e1b3d647f0247db9b2ffb59e013398e34 OP_EQUAL", "type": "scripthash"}, "value": 0.00994682, "n": 1}], "hex": "020000000001036934470f3b59d4c9266610630432459b07cd0e062bb19aadb65d0c7ea034a191010000001716001401cae1f064fb6ffb00dab2d1f024051059ce7dddfeffffff98dd8513efeaf1745a31ee72c25ab208206b82ce71d8c75c28ebddb267a9817e0000000017160014c89cc65dec88ec1a34fd73aa346a7f8521eaa300feffffffd716b1e1fa7f4e096193443514420e8dafa7dedf7c78b08b5a37ece96fd192ca000000001716001497b8cdf80c1c0c6fe328c79f7374444690a49ed2feffffff02416ee4120000000017a914092b8c8d2df6f32fad4c16b14b1602569350188e877a2d0f000000000017a9148e38467e1b3d647f0247db9b2ffb59e013398e348702483045022100ec50bea734c003c7182a3a97928a5f5b26a90f7f38bcfbf37cef33f7203ac53d02207ef608864d74457eedf8c9342299b52cadadf7148c32182874cb12689c593bb20121022dd1bc062434fd8c6634e8b3c1fd433bcca9be652c874409c6108b60dfca58bb02473044022100eb6b5b2a9518abb9ffe045666953b567fc047d83a79afae6db8ab465072c24ed021f53a3e2a9a2c3b899ce2ddd3043c58153ce63ada5b0fc51427b7c3288a1c1cd0121034712a73cff2065d23d5484100b56a9ea960857314e1f8e1270016c1cd062312202483045022100c5807ce31c2716471233aad559747cf2ee6407c7ccdb092bf4cc163469be0a4802205ebd0c772b3186874f5071008612ebd80f4e7a05c42a78be979164d26a6b7ba7012103004bcb9ea8199c1840de75e710cf355855b6b5807d34b6e197496c3b97a9b564d2480800", "vin": [{"txinwitness": ["3045022100ec50bea734c003c7182a3a97928a5f5b26a90f7f38bcfbf37cef33f7203ac53d02207ef608864d74457eedf8c9342299b52cadadf7148c32182874cb12689c593bb201", "022dd1bc062434fd8c6634e8b3c1fd433bcca9be652c874409c6108b60dfca58bb"], "sequence": 4294967294, "scriptSig": {"hex": "16001401cae1f064fb6ffb00dab2d1f024051059ce7ddd", "asm": "001401cae1f064fb6ffb00dab2d1f024051059ce7ddd"}, "vout": 1, "txid": "91a134a07e0c5db6ad9ab12b060ecd079b45320463106626c9d4593b0f473469"}, {"txinwitness": ["3044022100eb6b5b2a9518abb9ffe045666953b567fc047d83a79afae6db8ab465072c24ed021f53a3e2a9a2c3b899ce2ddd3043c58153ce63ada5b0fc51427b7c3288a1c1cd01", "034712a73cff2065d23d5484100b56a9ea960857314e1f8e1270016c1cd0623122"], "sequence": 4294967294, "scriptSig": {"hex": "160014c89cc65dec88ec1a34fd73aa346a7f8521eaa300", "asm": "0014c89cc65dec88ec1a34fd73aa346a7f8521eaa300"}, "vout": 0, "txid": "7e81a967b2ddeb285cc7d871ce826b2008b25ac272ee315a74f1eaef1385dd98"}, {"txinwitness": ["3045022100c5807ce31c2716471233aad559747cf2ee6407c7ccdb092bf4cc163469be0a4802205ebd0c772b3186874f5071008612ebd80f4e7a05c42a78be979164d26a6b7ba701", "03004bcb9ea8199c1840de75e710cf355855b6b5807d34b6e197496c3b97a9b564"], "sequence": 4294967294, "scriptSig": {"hex": "16001497b8cdf80c1c0c6fe328c79f7374444690a49ed2", "asm": "001497b8cdf80c1c0c6fe328c79f7374444690a49ed2"}, "vout": 0, "txid": "ca92d16fe9ec375a8bb0787cdfdea7af8d0e421435449361094e7ffae1b116d7"}], "txid": "7d6f33505d04bfbaddf47df32359a054968ad4fae23d03abc553ae2fd8ef6b5c", "blocktime": 1537870564, "version": 2, "confirmations": 11515, "time": 1537870564, "locktime": 542930, "vsize": 348, "size": 591}