{"hash": "7d778005b57c836291a5cb461ab6c780cd72370dbc71c79d2031e8f03276b08d", "blockhash": "0000000000000000001f0ddff1eddb255c1121bcd4da4f1bc9a0da00cae72433", "vout": [{"scriptPubKey": {"reqSigs": 1, "hex": "a9148e7b30cfa30554c19032bf41eb38fbbbad22c23687", "addresses": ["3EgPTDnvDvpxCu9EKGkZKwNBVcmw1HSpXU"], "asm": "OP_HASH160 8e7b30cfa30554c19032bf41eb38fbbbad22c236 OP_EQUAL", "type": "scripthash"}, "value": 0.00797716, "n": 0}], "hex": "0100000001a57a274579f79481b0822a061f793ac1e39ce313d3ebd1a9837089cd85efae9f010000006b483045022100d51029ec9df6f5c622ebdecd9a4358a577de058eb10c89e367714c62107c3c4f0220608ebdff66fe56b92096297645be1809353cd8deb6c0eadbb98faffc80418792012103ac25bd0a50388d6efbad472d4b84250a1defd99d7c6f647a59f48bc721296559ffffffff01142c0c000000000017a9148e7b30cfa30554c19032bf41eb38fbbbad22c2368700000000", "vin": [{"sequence": 4294967295, "scriptSig": {"hex": "483045022100d51029ec9df6f5c622ebdecd9a4358a577de058eb10c89e367714c62107c3c4f0220608ebdff66fe56b92096297645be1809353cd8deb6c0eadbb98faffc80418792012103ac25bd0a50388d6efbad472d4b84250a1defd99d7c6f647a59f48bc721296559", "asm": "3045022100d51029ec9df6f5c622ebdecd9a4358a577de058eb10c89e367714c62107c3c4f0220608ebdff66fe56b92096297645be1809353cd8deb6c0eadbb98faffc80418792[ALL] 03ac25bd0a50388d6efbad472d4b84250a1defd99d7c6f647a59f48bc721296559"}, "vout": 1, "txid": "9faeef85cd897083a9d1ebd313e39ce3c13a791f062a82b08194f77945277aa5"}], "txid": "7d778005b57c836291a5cb461ab6c780cd72370dbc71c79d2031e8f03276b08d", "blocktime": 1537872018, "version": 1, "confirmations": 11489, "time": 1537872018, "locktime": 0, "vsize": 190, "size": 190}