{"hash": "7d7dfa1bbf4ac5b3cd182ebeab70ab733fb06c578add0f568a14e925dd26a4f3", "blockhash": "0000000000000000001cda96e906b7601b7a6fb1a3b62bca570a9e5d8f4b3de1", "vout": [{"scriptPubKey": {"reqSigs": 1, "hex": "76a91426cf5ad7a80055bb273def34bb3e418e562f7d9988ac", "addresses": ["14YD5ZKrf2H4y8qF8ZTr4QF8z3i9YyDYoy"], "asm": "OP_DUP OP_HASH160 26cf5ad7a80055bb273def34bb3e418e562f7d99 OP_EQUALVERIFY OP_CHECKSIG", "type": "pubkeyhash"}, "value": 0.00546484, "n": 0}, {"scriptPubKey": {"reqSigs": 1, "hex": "76a9146438611929060118ea682dd0559e0e906367360688ac", "addresses": ["1A8v7V7rpN5KFF94X2nFWBPBsecbUBbYpa"], "asm": "OP_DUP OP_HASH160 6438611929060118ea682dd0559e0e9063673606 OP_EQUALVERIFY OP_CHECKSIG", "type": "pubkeyhash"}, "value": 1.41505305, "n": 1}], "hex": "0100000001e5d5a7b9a72b1216762b5125e6007932f9315edef8ae72fe007078a4853785b8010000006a473044022014d870a8b2ce3a9f3f054f076e486bd0b0fa70f3eb9a0c3df9c7470b7a33edfe022000fe0c21587b3222dd335207bb24232caccee5608416a5d37ff8fa8348e8bc700121024610d836d662dded124c10c466f9be04c3ec0d4aeae25513d2fd1a49dac2196affffffff02b4560800000000001976a91426cf5ad7a80055bb273def34bb3e418e562f7d9988ac19336f08000000001976a9146438611929060118ea682dd0559e0e906367360688ac00000000", "vin": [{"sequence": 4294967295, "scriptSig": {"hex": "473044022014d870a8b2ce3a9f3f054f076e486bd0b0fa70f3eb9a0c3df9c7470b7a33edfe022000fe0c21587b3222dd335207bb24232caccee5608416a5d37ff8fa8348e8bc700121024610d836d662dded124c10c466f9be04c3ec0d4aeae25513d2fd1a49dac2196a", "asm": "3044022014d870a8b2ce3a9f3f054f076e486bd0b0fa70f3eb9a0c3df9c7470b7a33edfe022000fe0c21587b3222dd335207bb24232caccee5608416a5d37ff8fa8348e8bc70[ALL] 024610d836d662dded124c10c466f9be04c3ec0d4aeae25513d2fd1a49dac2196a"}, "vout": 1, "txid": "b8853785a4787000fe72aef8de5e31f9327900e625512b7616122ba7b9a7d5e5"}], "txid": "7d7dfa1bbf4ac5b3cd182ebeab70ab733fb06c578add0f568a14e925dd26a4f3", "blocktime": 1537873282, "version": 1, "confirmations": 11484, "time": 1537873282, "locktime": 0, "vsize": 225, "size": 225}