{"hash": "7d7ef84b5b94c366915787e4ebd1ecd7fb6b4f0f90a08097b37772cb550fd97d", "blockhash": "0000000000000000001e0dab787dd257d1dbfcb92a98c2207d5e1078be1f4165", "vout": [{"scriptPubKey": {"type": "nulldata", "hex": "6a4c50000077ac0001822e42dd8bd1a4fd87de89c8af6c953dd567cf27e7e3ef3236678a625097a1e44d6c54af0dabd960e864e2dc6a695baa10a50612e85f7aeb84a51d100759d4ba30d2c37bb011d97e02cf", "asm": "OP_RETURN 000077ac0001822e42dd8bd1a4fd87de89c8af6c953dd567cf27e7e3ef3236678a625097a1e44d6c54af0dabd960e864e2dc6a695baa10a50612e85f7aeb84a51d100759d4ba30d2c37bb011d97e02cf"}, "value": 0.0, "n": 0}, {"scriptPubKey": {"reqSigs": 1, "hex": "76a914f6d2df4af86543dce29c507c138d5cdd9a8a89c988ac", "addresses": ["1PW5qrK96zaNJ3xvxsMoA9bYh8RWajvSy2"], "asm": "OP_DUP OP_HASH160 f6d2df4af86543dce29c507c138d5cdd9a8a89c9 OP_EQUALVERIFY OP_CHECKSIG", "type": "pubkeyhash"}, "value": 0.00641761, "n": 1}], "hex": "01000000012d9e368a819d1e1ece846ada2e692f6afe7b5f60b6b0292fe10b2db9506c1b46010000006b483045022100f46df8a16d1627c017864affd97715c087d67b0de73808484629f96bc71145de02207a7bff7ff509e5c5b32ae0f28b261391b03b104691dd08525a67afca753c904f012102729e3bb7e38b6cff65067ffc01db4cea929f83f789c5b15bc6f3bb2082f22de7ffffffff020000000000000000536a4c50000077ac0001822e42dd8bd1a4fd87de89c8af6c953dd567cf27e7e3ef3236678a625097a1e44d6c54af0dabd960e864e2dc6a695baa10a50612e85f7aeb84a51d100759d4ba30d2c37bb011d97e02cfe1ca0900000000001976a914f6d2df4af86543dce29c507c138d5cdd9a8a89c988ac00000000", "vin": [{"sequence": 4294967295, "scriptSig": {"hex": "483045022100f46df8a16d1627c017864affd97715c087d67b0de73808484629f96bc71145de02207a7bff7ff509e5c5b32ae0f28b261391b03b104691dd08525a67afca753c904f012102729e3bb7e38b6cff65067ffc01db4cea929f83f789c5b15bc6f3bb2082f22de7", "asm": "3045022100f46df8a16d1627c017864affd97715c087d67b0de73808484629f96bc71145de02207a7bff7ff509e5c5b32ae0f28b261391b03b104691dd08525a67afca753c904f[ALL] 02729e3bb7e38b6cff65067ffc01db4cea929f83f789c5b15bc6f3bb2082f22de7"}, "vout": 1, "txid": "461b6c50b92d0be12f29b0b6605f7bfe6a2f692eda6a84ce1e1e9d818a369e2d"}], "txid": "7d7ef84b5b94c366915787e4ebd1ecd7fb6b4f0f90a08097b37772cb550fd97d", "blocktime": 1537872475, "version": 1, "confirmations": 11486, "time": 1537872475, "locktime": 0, "vsize": 284, "size": 284}