{"hash": "7d8164ee421da1012faa45020c481b3dfc19ca6092c957172b27ff129931a283", "blockhash": "00000000000000000004ffacab907a6b429b9a5745fa0b75af4234bf69dd7176", "vout": [{"scriptPubKey": {"reqSigs": 1, "hex": "76a914dfb4a887dcc9320527c5f69356376c89e8ad029488ac", "addresses": ["1MPr7931rucDck7YqsRHBN8pd5UFybkBP5"], "asm": "OP_DUP OP_HASH160 dfb4a887dcc9320527c5f69356376c89e8ad0294 OP_EQUALVERIFY OP_CHECKSIG", "type": "pubkeyhash"}, "value": 0.001, "n": 0}, {"scriptPubKey": {"reqSigs": 1, "hex": "76a914e980406100f1b02d9023620d15858ca5a5fb144c88ac", "addresses": ["1NHe5mQK8w5uu6QxqnWsd6M8fPLPiYGWzA"], "asm": "OP_DUP OP_HASH160 e980406100f1b02d9023620d15858ca5a5fb144c OP_EQUALVERIFY OP_CHECKSIG", "type": "pubkeyhash"}, "value": 0.07247086, "n": 1}], "hex": "0100000001cbf129697cf80276c7b24b267b024f471742bb738494ad52976843907df23112010000006b483045022100eb31069e588e45d3dfe1fcd9ae8f9add5e4c32fdec20c2e763109b7ffc7d012902206c244e82a09710b39492a17816c83fd0ec95d4e85e9efb45b2c0880630cfb380012103ad603f5d3610dce0c476cc5ff31b70d340cb842f4285d362fdb63d990e4c8e16ffffffff02a0860100000000001976a914dfb4a887dcc9320527c5f69356376c89e8ad029488acee946e00000000001976a914e980406100f1b02d9023620d15858ca5a5fb144c88ac00000000", "vin": [{"sequence": 4294967295, "scriptSig": {"hex": "483045022100eb31069e588e45d3dfe1fcd9ae8f9add5e4c32fdec20c2e763109b7ffc7d012902206c244e82a09710b39492a17816c83fd0ec95d4e85e9efb45b2c0880630cfb380012103ad603f5d3610dce0c476cc5ff31b70d340cb842f4285d362fdb63d990e4c8e16", "asm": "3045022100eb31069e588e45d3dfe1fcd9ae8f9add5e4c32fdec20c2e763109b7ffc7d012902206c244e82a09710b39492a17816c83fd0ec95d4e85e9efb45b2c0880630cfb380[ALL] 03ad603f5d3610dce0c476cc5ff31b70d340cb842f4285d362fdb63d990e4c8e16"}, "vout": 1, "txid": "1231f27d9043689752ad948473bb4217474f027b264bb2c77602f87c6929f1cb"}], "txid": "7d8164ee421da1012faa45020c481b3dfc19ca6092c957172b27ff129931a283", "blocktime": 1537875543, "version": 1, "confirmations": 11464, "time": 1537875543, "locktime": 0, "vsize": 226, "size": 226}