{"hash": "bec9e85e8ba0c16e3efb7dd0cb5802bf650a6795e0f745dfe5e7667ae29733e0", "blockhash": "000000000000000000205f8b0775d31398ef75b89a5e8ec8d2c57b4dc0ac4c20", "vout": [{"scriptPubKey": {"reqSigs": 1, "hex": "76a91462c478094feb3d5d86258ca76b63bcacd72f623a88ac", "addresses": ["1A1EahSnWR7f4HZ5A6vCuPyZjRFeos3Auz"], "asm": "OP_DUP OP_HASH160 62c478094feb3d5d86258ca76b63bcacd72f623a OP_EQUALVERIFY OP_CHECKSIG", "type": "pubkeyhash"}, "value": 0.02204925, "n": 0}, {"scriptPubKey": {"reqSigs": 1, "hex": "0014ee1eb675c98821b9ccb3dd81434d29363a58fe6c", "addresses": ["bc1qac0tvawf3qsmnn9nmkq5xnffxca93lnvzk8gf7"], "asm": "0 ee1eb675c98821b9ccb3dd81434d29363a58fe6c", "type": "witness_v0_keyhash"}, "value": 1.2779414, "n": 1}], "hex": "020000000001010bde3fdbd3fc991fead5cb85cb6768baacf0f76cf8b96f97c564eb52c102e58e000000001716001467be140b8adecc002ea825aad71694c615de201dffffffff02fda42100000000001976a91462c478094feb3d5d86258ca76b63bcacd72f623a88acdcfb9d0700000000160014ee1eb675c98821b9ccb3dd81434d29363a58fe6c0247304402203689fee06d127f92c5221122cb8e0013cbfc7f0aefe48e8b9b9183e85be62d7d02205e8f1cdd26863496a811d79ebd32cddf9c8c0b0334a07533767be37d61565f20012102bf7e366eab0ba2571062940563a2d29263fa30b2b20bd976f91d8b6205e46f1f00000000", "vin": [{"txinwitness": ["304402203689fee06d127f92c5221122cb8e0013cbfc7f0aefe48e8b9b9183e85be62d7d02205e8f1cdd26863496a811d79ebd32cddf9c8c0b0334a07533767be37d61565f2001", "02bf7e366eab0ba2571062940563a2d29263fa30b2b20bd976f91d8b6205e46f1f"], "sequence": 4294967295, "scriptSig": {"hex": "16001467be140b8adecc002ea825aad71694c615de201d", "asm": "001467be140b8adecc002ea825aad71694c615de201d"}, "vout": 0, "txid": "8ee502c152eb64c5976fb9f86cf7f0acba6867cb85cbd5ea1f99fcd3db3fde0b"}], "txid": "7d8736eaf9135d1ffdfc9df39583b4941c3a5ef953ce0c2daf68bb9375a53331", "blocktime": 1537871175, "version": 2, "confirmations": 11511, "time": 1537871175, "locktime": 0, "vsize": 167, "size": 248}