{"hash": "7d88017945f18ea2d37c207eb5ce5a0bcfb11246c70c3b8860d26428a424e3ee", "blockhash": "00000000000000000017f5eb5941039fbcee6240d03bc1f2f8e35350df66a1d8", "vout": [{"scriptPubKey": {"reqSigs": 1, "hex": "a9144970638a181c58bed3b063d3670782ff5c48501b87", "addresses": ["38PKtTdMAGR9DUWbU1W4Wf7kFa5tvBgwQq"], "asm": "OP_HASH160 4970638a181c58bed3b063d3670782ff5c48501b OP_EQUAL", "type": "scripthash"}, "value": 0.0154691, "n": 0}, {"scriptPubKey": {"reqSigs": 1, "hex": "76a914412501f3fd533d4584eb8d4905b9abfcbe63395188ac", "addresses": ["16wTFoe7QEsNdB5hx5uSsCjjHepSeCqS4F"], "asm": "OP_DUP OP_HASH160 412501f3fd533d4584eb8d4905b9abfcbe633951 OP_EQUALVERIFY OP_CHECKSIG", "type": "pubkeyhash"}, "value": 0.02331688, "n": 1}], "hex": "0100000001e5f8e16f4594ca6ddc6c930d50b2d5d794e4d5d17200d2c6148e838acd169599000000006a473044022043f03df3f3fb5a88164d52c3bf59bfce7d8fbe2854a1574a9810a1486af3892c022078d998f603a16920c82e5bac5125cdc13a0057b0634a28edbcdcbf9a7eaa3de10121035f0bbeac72e5b5829a883be97f299ef11a46eefa796b09b0c3ce23fc324fa487ffffffff029e9a17000000000017a9144970638a181c58bed3b063d3670782ff5c48501b8728942300000000001976a914412501f3fd533d4584eb8d4905b9abfcbe63395188ac00000000", "vin": [{"sequence": 4294967295, "scriptSig": {"hex": "473044022043f03df3f3fb5a88164d52c3bf59bfce7d8fbe2854a1574a9810a1486af3892c022078d998f603a16920c82e5bac5125cdc13a0057b0634a28edbcdcbf9a7eaa3de10121035f0bbeac72e5b5829a883be97f299ef11a46eefa796b09b0c3ce23fc324fa487", "asm": "3044022043f03df3f3fb5a88164d52c3bf59bfce7d8fbe2854a1574a9810a1486af3892c022078d998f603a16920c82e5bac5125cdc13a0057b0634a28edbcdcbf9a7eaa3de1[ALL] 035f0bbeac72e5b5829a883be97f299ef11a46eefa796b09b0c3ce23fc324fa487"}, "vout": 0, "txid": "999516cd8a838e14c6d20072d1d5e494d7d5b2500d936cdc6dca94456fe1f8e5"}], "txid": "7d88017945f18ea2d37c207eb5ce5a0bcfb11246c70c3b8860d26428a424e3ee", "blocktime": 1537874412, "version": 1, "confirmations": 11466, "time": 1537874412, "locktime": 0, "vsize": 223, "size": 223}