{"hash": "1cf7f03c0aa654fcebbc8e94bdecd676a7006f05858b4eed8ce4fb29f51e29db", "blockhash": "0000000000000000000baef3f32e3676a92c3b2e5da21b426e4f302fc371ce76", "vout": [{"scriptPubKey": {"type": "nulldata", "hex": "6a146f6d6e69000000000000001f000000e4c7862200", "asm": "OP_RETURN 6f6d6e69000000000000001f000000e4c7862200"}, "value": 0.0, "n": 0}, {"scriptPubKey": {"reqSigs": 1, "hex": "76a9144f8a650291baa9e787bf1341cf3482838958457c88ac", "addresses": ["18FaAyimrKBhKcq9wQiGMe3d2fJ3mnTusA"], "asm": "OP_DUP OP_HASH160 4f8a650291baa9e787bf1341cf3482838958457c OP_EQUALVERIFY OP_CHECKSIG", "type": "pubkeyhash"}, "value": 2.73e-05, "n": 1}, {"scriptPubKey": {"reqSigs": 1, "hex": "a914e818e90b8e6b38dba66f74b35cb708bbc73e2ea787", "addresses": ["3NrEXrB9qAxXYfRt6jKtBD8QzoU2qtNWDR"], "asm": "OP_HASH160 e818e90b8e6b38dba66f74b35cb708bbc73e2ea7 OP_EQUAL", "type": "scripthash"}, "value": 0.19948545, "n": 2}], "hex": "01000000000102f4eb28eda0f73be98af825f6ba37211728741c8db4a0cf9795ddf10b786366fc0100000017160014000b814f2c1a19852357ed615a08ec572a781ed1ffffffff3cb958cbc580d286144f2eb6a3c072e76d6523eebd4aa65bd6ff0bf1a41391710700000017160014bf3b494f40487a8baa6c4600b21ac9cef3b2ba0cffffffff030000000000000000166a146f6d6e69000000000000001f000000e4c7862200aa0a0000000000001976a9144f8a650291baa9e787bf1341cf3482838958457c88ac016430010000000017a914e818e90b8e6b38dba66f74b35cb708bbc73e2ea78702483045022100d7a84d53fad8818aecdaaf3f4e52b65677c1041dfdd690292b7175247e8fbde102205592acb2933c13c8b5e10a23609d12a836b554df64e63bbd7e4c6e1b5e932504012102aad79950b2c2af3689e8644c89e9d10dff06c2d8926200496b92e9f7ccb0304c0247304402205b38672e2de50702cdd5911f62d5432fc287641e7568e78c53f218abbcb823bd02200ad5d1417821b5e6b485f898273f326fa38ddd9fee1b947d102b049cca1cafb601210279e4efe00805c4e3706553cbf28ac14c4a4bcf419e3dcf558888493e690e698c00000000", "vin": [{"txinwitness": ["3045022100d7a84d53fad8818aecdaaf3f4e52b65677c1041dfdd690292b7175247e8fbde102205592acb2933c13c8b5e10a23609d12a836b554df64e63bbd7e4c6e1b5e93250401", "02aad79950b2c2af3689e8644c89e9d10dff06c2d8926200496b92e9f7ccb0304c"], "sequence": 4294967295, "scriptSig": {"hex": "160014000b814f2c1a19852357ed615a08ec572a781ed1", "asm": "0014000b814f2c1a19852357ed615a08ec572a781ed1"}, "vout": 1, "txid": "fc6663780bf1dd9597cfa0b48d1c7428172137baf625f88ae93bf7a0ed28ebf4"}, {"txinwitness": ["304402205b38672e2de50702cdd5911f62d5432fc287641e7568e78c53f218abbcb823bd02200ad5d1417821b5e6b485f898273f326fa38ddd9fee1b947d102b049cca1cafb601", "0279e4efe00805c4e3706553cbf28ac14c4a4bcf419e3dcf558888493e690e698c"], "sequence": 4294967295, "scriptSig": {"hex": "160014bf3b494f40487a8baa6c4600b21ac9cef3b2ba0c", "asm": "0014bf3b494f40487a8baa6c4600b21ac9cef3b2ba0c"}, "vout": 7, "txid": "719113a4f10bffd65ba64abdee23656de772c0a3b62e4f1486d280c5cb58b93c"}], "txid": "7d8a957cca966fc55c46e4a241f0a1ddf51d77d776cbdda0d1bca8265f3d4334", "blocktime": 1537876114, "version": 1, "confirmations": 11460, "time": 1537876114, "locktime": 0, "vsize": 290, "size": 452}