{"hash": "7d8a0540ade78e573fe0ad0e5a5d87af7ec00df8615b9ca84459c60ca7970cd4", "blockhash": "00000000000000000018f53835495a110e01622372bf6ae95dc86f2b0ab887b0", "vout": [{"scriptPubKey": {"reqSigs": 1, "hex": "a91453931ee4606a6177d67c6cdf06a02152b3c8569b87", "addresses": ["39JvFb8JBTsBcK9C63x8VsSjsXkZo8tc3Q"], "asm": "OP_HASH160 53931ee4606a6177d67c6cdf06a02152b3c8569b OP_EQUAL", "type": "scripthash"}, "value": 0.01405, "n": 0}, {"scriptPubKey": {"reqSigs": 1, "hex": "76a9145321f1f91771eda469f8ecdf4d92e92137b967df88ac", "addresses": ["18aZkUd9KA9jYXW2FkAuKFtjDx1R8UCRSM"], "asm": "OP_DUP OP_HASH160 5321f1f91771eda469f8ecdf4d92e92137b967df OP_EQUALVERIFY OP_CHECKSIG", "type": "pubkeyhash"}, "value": 0.11761, "n": 1}], "hex": "0100000001b5e64219c4db0350a667493d2ac8f144fe8d2228b9b4f83ad3f83b864dc2b2a4010000006b483045022100f677acbaa4071096f1e2cd155da19e8132889cca8d88133c33cbcb56b2ffef5202205f9a603879aa08f7b81ec566cf01fd54d9813f2faa8decc4872ab9d95c37bf1a0121035acc4197be3d39f3285383c54613b44212a5fff3b3052036c6067f606139d3b6feffffff02487015000000000017a91453931ee4606a6177d67c6cdf06a02152b3c8569b876875b300000000001976a9145321f1f91771eda469f8ecdf4d92e92137b967df88ac0e490800", "vin": [{"sequence": 4294967294, "scriptSig": {"hex": "483045022100f677acbaa4071096f1e2cd155da19e8132889cca8d88133c33cbcb56b2ffef5202205f9a603879aa08f7b81ec566cf01fd54d9813f2faa8decc4872ab9d95c37bf1a0121035acc4197be3d39f3285383c54613b44212a5fff3b3052036c6067f606139d3b6", "asm": "3045022100f677acbaa4071096f1e2cd155da19e8132889cca8d88133c33cbcb56b2ffef5202205f9a603879aa08f7b81ec566cf01fd54d9813f2faa8decc4872ab9d95c37bf1a[ALL] 035acc4197be3d39f3285383c54613b44212a5fff3b3052036c6067f606139d3b6"}, "vout": 1, "txid": "a4b2c24d863bf8d33af8b4b928228dfe44f1c82a3d4967a65003dbc41942e6b5"}], "txid": "7d8a0540ade78e573fe0ad0e5a5d87af7ec00df8615b9ca84459c60ca7970cd4", "blocktime": 1537870928, "version": 1, "confirmations": 11512, "time": 1537870928, "locktime": 542990, "vsize": 224, "size": 224}