{"hash": "7d8bcb9a232f8ed1e66b7b680a333d0ab259478644ae54f2313282a118106a92", "blockhash": "0000000000000000000e13cef7c366c0283d82e591d1acd082e914b08063cdf1", "vout": [{"scriptPubKey": {"reqSigs": 1, "hex": "a91452532a7daa626b8d7e150345de2bce54cd2118ee87", "addresses": ["39CJxkJedfHnkjeHEUyb5hNRBbekWZ28Hh"], "asm": "OP_HASH160 52532a7daa626b8d7e150345de2bce54cd2118ee OP_EQUAL", "type": "scripthash"}, "value": 0.01661644, "n": 0}], "hex": "01000000012c1493fc216e607b2c2e70708f2765aa9ed727e41b71d0eb4dd1911972636e43020000006a47304402204242eeb1bb68e5e79bc91b99643766e58abf136ff3547a33a504b61628d20936022055edb52bf2f982f5a94c423b40815e31e1171e62cbd99b728d92cded717a68ba01210363bba2953ff1f6866e1dcfc7e60d6931a64e608fb39c19b5ad07896b5fc9127affffffff01cc5a19000000000017a91452532a7daa626b8d7e150345de2bce54cd2118ee8700000000", "vin": [{"sequence": 4294967295, "scriptSig": {"hex": "47304402204242eeb1bb68e5e79bc91b99643766e58abf136ff3547a33a504b61628d20936022055edb52bf2f982f5a94c423b40815e31e1171e62cbd99b728d92cded717a68ba01210363bba2953ff1f6866e1dcfc7e60d6931a64e608fb39c19b5ad07896b5fc9127a", "asm": "304402204242eeb1bb68e5e79bc91b99643766e58abf136ff3547a33a504b61628d20936022055edb52bf2f982f5a94c423b40815e31e1171e62cbd99b728d92cded717a68ba[ALL] 0363bba2953ff1f6866e1dcfc7e60d6931a64e608fb39c19b5ad07896b5fc9127a"}, "vout": 2, "txid": "436e63721991d14debd0711be427d79eaa65278f70702e2c7b606e21fc93142c"}], "txid": "7d8bcb9a232f8ed1e66b7b680a333d0ab259478644ae54f2313282a118106a92", "blocktime": 1537871767, "version": 1, "confirmations": 11491, "time": 1537871767, "locktime": 0, "vsize": 189, "size": 189}