{"hash": "b516668ba8f305449ea4013ccbac94ca0bac77d1bc6e07ab238ba1c3bf20d7d0", "blockhash": "0000000000000000000dcc0f55137456b1a82d3642486a52398922ac4d620174", "vout": [{"scriptPubKey": {"reqSigs": 1, "hex": "00149ccd49c72ee4f35a8477dbf7e86e8e4dad29458f", "addresses": ["bc1qnnx5n3ewune44prhm0m7sm5wfkkjj3v0hj0xnk"], "asm": "0 9ccd49c72ee4f35a8477dbf7e86e8e4dad29458f", "type": "witness_v0_keyhash"}, "value": 1.424e-05, "n": 0}, {"scriptPubKey": {"reqSigs": 1, "hex": "76a914be1995b0351416301f33040659f7763acbe85f9d88ac", "addresses": ["1JLA377BmAuw5WUfFXiwTns4LNTF8uQiGE"], "asm": "OP_DUP OP_HASH160 be1995b0351416301f33040659f7763acbe85f9d OP_EQUALVERIFY OP_CHECKSIG", "type": "pubkeyhash"}, "value": 0.00044896, "n": 1}], "hex": "01000000000101cff75a2f1f2398ed13779e62c0b783d9920cb67ae9440fdef8348870d5407b420000000000ffffffff0290050000000000001600149ccd49c72ee4f35a8477dbf7e86e8e4dad29458f60af0000000000001976a914be1995b0351416301f33040659f7763acbe85f9d88ac02473044022061612d63652b47353b79f06209d1ab2f20cdd00546e379e0ac882fbd3bb562bb0220167e13e689614236828af93df4a33cef9d44924a4ded7c151194c2ea429e6e2501210339d3b05e703beffd47defe7677a9714e7fb275be3347235b2be3d3961e945f5800000000", "vin": [{"txinwitness": ["3044022061612d63652b47353b79f06209d1ab2f20cdd00546e379e0ac882fbd3bb562bb0220167e13e689614236828af93df4a33cef9d44924a4ded7c151194c2ea429e6e2501", "0339d3b05e703beffd47defe7677a9714e7fb275be3347235b2be3d3961e945f58"], "sequence": 4294967295, "scriptSig": {"hex": "", "asm": ""}, "vout": 0, "txid": "427b40d5708834f8de0f44e97ab60c92d983b7c0629e7713ed98231f2f5af7cf"}], "txid": "7d97c53914648a62710b401faff8292394c034e53ad62cab896b4d451529ca24", "blocktime": 1537870268, "version": 1, "confirmations": 11518, "time": 1537870268, "locktime": 0, "vsize": 144, "size": 225}