{"hash": "de1cef8dd023086f57333e5504d4e0daece8d7d51f9c3b38e0093ce77b2aff47", "blockhash": "00000000000000000018f53835495a110e01622372bf6ae95dc86f2b0ab887b0", "vout": [{"scriptPubKey": {"reqSigs": 1, "hex": "a914634d4fa5d404a434faf9be4f20b7c01d8737190487", "addresses": ["3Ak5SCuNGsr8tRCydZfH1XKJRbNqhDbmHb"], "asm": "OP_HASH160 634d4fa5d404a434faf9be4f20b7c01d87371904 OP_EQUAL", "type": "scripthash"}, "value": 0.0317035, "n": 0}, {"scriptPubKey": {"reqSigs": 1, "hex": "a9149649ad6d2730bb28020a268d9d80df10a9f74ad487", "addresses": ["3FPfYWwfMfKMGY7fuPHvz2b73RhTNGzsm3"], "asm": "OP_HASH160 9649ad6d2730bb28020a268d9d80df10a9f74ad4 OP_EQUAL", "type": "scripthash"}, "value": 13.89822539, "n": 1}], "hex": "010000000001018d7d3ae62195085b0eef55073658199289f3228b9954dc8a125519e9b2f3d9bb01000000232200207768efcc1e5eb3d28410fac3f45831004c860cc24cddd940a616b34324823fceffffffff022e6030000000000017a914634d4fa5d404a434faf9be4f20b7c01d87371904874b02d7520000000017a9149649ad6d2730bb28020a268d9d80df10a9f74ad4870400483045022100b6a6bc6370e12808543a8e6f731c3c97ba974b4da90feb5e87a50bc0ea6bacf902206f731156f2dc0332eda4ed67c59965511d43579d1a803b77d6b862bccbdd5af401483045022100f549f0e995ad18b3d9507a3c884c0bee32f934a04497c32a0cd801a4e98db7e202203ed8aa32cf2f0aeffe67578196dc13948b59f8937bbc81490a8c781625a585690147522102529d5d1f6733ab45d9d50e07db42c7f6b967ae321c38b726c2247f149959b8262103d0c936a5988dd8421c63240496b723b0ec42400c38b9350e32c2eb4f47d8796952ae00000000", "vin": [{"txinwitness": ["", "3045022100b6a6bc6370e12808543a8e6f731c3c97ba974b4da90feb5e87a50bc0ea6bacf902206f731156f2dc0332eda4ed67c59965511d43579d1a803b77d6b862bccbdd5af401", "3045022100f549f0e995ad18b3d9507a3c884c0bee32f934a04497c32a0cd801a4e98db7e202203ed8aa32cf2f0aeffe67578196dc13948b59f8937bbc81490a8c781625a5856901", "522102529d5d1f6733ab45d9d50e07db42c7f6b967ae321c38b726c2247f149959b8262103d0c936a5988dd8421c63240496b723b0ec42400c38b9350e32c2eb4f47d8796952ae"], "sequence": 4294967295, "scriptSig": {"hex": "2200207768efcc1e5eb3d28410fac3f45831004c860cc24cddd940a616b34324823fce", "asm": "00207768efcc1e5eb3d28410fac3f45831004c860cc24cddd940a616b34324823fce"}, "vout": 1, "txid": "bbd9f3b2e91955128adc54998b22f389921958360755ef0e5b089521e63a7d8d"}], "txid": "7d98805b62815b0a4cdc5514e8f02eec4513cae0cfe4091615d2ef9d67ea5f95", "blocktime": 1537870928, "version": 1, "confirmations": 11514, "time": 1537870928, "locktime": 0, "vsize": 206, "size": 372}