{"hash": "7d9b3db90002205cd6dca4330ac354776e3f9bcb605eb80a7d311265de9c2a51", "blockhash": "0000000000000000000dcc0f55137456b1a82d3642486a52398922ac4d620174", "vout": [{"scriptPubKey": {"type": "nulldata", "hex": "6a4c500000777100019fbb6c1945afd4bd7a07a7d486aeaeacb577c031fc3a016b46dc7dc7d096d57b0044fceeaf2ace887a27c80c775a5baa090606140e7084a7707dbc9a9526289ac0f6612cd74e33776ee4", "asm": "OP_RETURN 0000777100019fbb6c1945afd4bd7a07a7d486aeaeacb577c031fc3a016b46dc7dc7d096d57b0044fceeaf2ace887a27c80c775a5baa090606140e7084a7707dbc9a9526289ac0f6612cd74e33776ee4"}, "value": 0.0, "n": 0}, {"scriptPubKey": {"reqSigs": 1, "hex": "76a914f5d2ceb13383ad79f9dd0286b1a2167982cca20f88ac", "addresses": ["1PQo69ryg2fuuG5sYZ4Ejh24HcQeqndtn8"], "asm": "OP_DUP OP_HASH160 f5d2ceb13383ad79f9dd0286b1a2167982cca20f OP_EQUALVERIFY OP_CHECKSIG", "type": "pubkeyhash"}, "value": 0.00155304, "n": 1}], "hex": "010000000108334a0d72d955f3f8531cce3461b8640acc7e8782c9f12b3ebf333662fca781000000006b483045022100aeb95773b73b4c6c16813c7f986f97e2224d52cd5690977be865648d5a0263c80220719e113ce7bd4524d39ffbc8cffe7f58e3cde5e1c127ce616b43f71e52efa51e012103539427f0299cc82ed4f8de89cc1dd4fd024182507756d6cb35eb4199c6488f36ffffffff020000000000000000536a4c500000777100019fbb6c1945afd4bd7a07a7d486aeaeacb577c031fc3a016b46dc7dc7d096d57b0044fceeaf2ace887a27c80c775a5baa090606140e7084a7707dbc9a9526289ac0f6612cd74e33776ee4a85e0200000000001976a914f5d2ceb13383ad79f9dd0286b1a2167982cca20f88ac00000000", "vin": [{"sequence": 4294967295, "scriptSig": {"hex": "483045022100aeb95773b73b4c6c16813c7f986f97e2224d52cd5690977be865648d5a0263c80220719e113ce7bd4524d39ffbc8cffe7f58e3cde5e1c127ce616b43f71e52efa51e012103539427f0299cc82ed4f8de89cc1dd4fd024182507756d6cb35eb4199c6488f36", "asm": "3045022100aeb95773b73b4c6c16813c7f986f97e2224d52cd5690977be865648d5a0263c80220719e113ce7bd4524d39ffbc8cffe7f58e3cde5e1c127ce616b43f71e52efa51e[ALL] 03539427f0299cc82ed4f8de89cc1dd4fd024182507756d6cb35eb4199c6488f36"}, "vout": 0, "txid": "81a7fc623633bf3e2bf1c982877ecc0a64b86134ce1c53f8f355d9720d4a3308"}], "txid": "7d9b3db90002205cd6dca4330ac354776e3f9bcb605eb80a7d311265de9c2a51", "blocktime": 1537870268, "version": 1, "confirmations": 11518, "time": 1537870268, "locktime": 0, "vsize": 284, "size": 284}