{"hash": "7d9e50a186b5030e693874bde2142b39325c97d9fa6a4e2fcd83c02195dbcffb", "blockhash": "0000000000000000000e13cef7c366c0283d82e591d1acd082e914b08063cdf1", "vout": [{"scriptPubKey": {"reqSigs": 1, "hex": "a91425de5bfc0616bb6384c1b65f2c82d0db776389fa87", "addresses": ["359FJSKyaxyDNGUQYb5E7ipjH333PBXZ5w"], "asm": "OP_HASH160 25de5bfc0616bb6384c1b65f2c82d0db776389fa OP_EQUAL", "type": "scripthash"}, "value": 0.0038, "n": 0}, {"scriptPubKey": {"reqSigs": 1, "hex": "76a91468088f229f1dcbb1788ad4ae1e1edcd59839d3bb88ac", "addresses": ["1AV5XecrMKYoB1hxcmeWzzewCZMNkzZnsr"], "asm": "OP_DUP OP_HASH160 68088f229f1dcbb1788ad4ae1e1edcd59839d3bb OP_EQUALVERIFY OP_CHECKSIG", "type": "pubkeyhash"}, "value": 0.05554319, "n": 1}], "hex": "0100000001ec0217a0943201b2c83635a2a5beba003a5a8988adca1c9500a699904bce930d010000006a473044022074dbc794595d65e557600bd495f69b2b160fc10490d2281eb43021bcf677c66f02203d6ee8d8c2a376060d3706e7b7d3eebace186ab7f8366cd3fead0e7672e60d9d012102b77632f1f5d13b21eb1ee6cbcf1fb08eec2f055aef2c7a8474101301a34d9942ffffffff0260cc05000000000017a91425de5bfc0616bb6384c1b65f2c82d0db776389fa878fc05400000000001976a91468088f229f1dcbb1788ad4ae1e1edcd59839d3bb88ac00000000", "vin": [{"sequence": 4294967295, "scriptSig": {"hex": "473044022074dbc794595d65e557600bd495f69b2b160fc10490d2281eb43021bcf677c66f02203d6ee8d8c2a376060d3706e7b7d3eebace186ab7f8366cd3fead0e7672e60d9d012102b77632f1f5d13b21eb1ee6cbcf1fb08eec2f055aef2c7a8474101301a34d9942", "asm": "3044022074dbc794595d65e557600bd495f69b2b160fc10490d2281eb43021bcf677c66f02203d6ee8d8c2a376060d3706e7b7d3eebace186ab7f8366cd3fead0e7672e60d9d[ALL] 02b77632f1f5d13b21eb1ee6cbcf1fb08eec2f055aef2c7a8474101301a34d9942"}, "vout": 1, "txid": "0d93ce4b9099a600951ccaad88895a3a00babea5a23536c8b2013294a01702ec"}], "txid": "7d9e50a186b5030e693874bde2142b39325c97d9fa6a4e2fcd83c02195dbcffb", "blocktime": 1537871767, "version": 1, "confirmations": 11492, "time": 1537871767, "locktime": 0, "vsize": 223, "size": 223}