{"hash": "7da9f803c45dd4d8bebd38e3a510ad32651c308e8f4a1cc1aac7acce9c890fa0", "blockhash": "0000000000000000001e0dab787dd257d1dbfcb92a98c2207d5e1078be1f4165", "vout": [{"scriptPubKey": {"reqSigs": 1, "hex": "76a914d7e7f302fcbd054c99c1fee398df6af69bfacbcc88ac", "addresses": ["1Lgc9MwGjKZ5HdujE61prCGvJRMrUKywdF"], "asm": "OP_DUP OP_HASH160 d7e7f302fcbd054c99c1fee398df6af69bfacbcc OP_EQUALVERIFY OP_CHECKSIG", "type": "pubkeyhash"}, "value": 0.00156082, "n": 0}, {"scriptPubKey": {"reqSigs": 1, "hex": "76a914f472f4b4c0c49135bf758a280852b4f53f903a6588ac", "addresses": ["1PHXb5ir1NHmXxHJfFvW5WV3GvrnoDB1BP"], "asm": "OP_DUP OP_HASH160 f472f4b4c0c49135bf758a280852b4f53f903a65 OP_EQUALVERIFY OP_CHECKSIG", "type": "pubkeyhash"}, "value": 0.69368974, "n": 1}], "hex": "01000000013be0ed217cfb0a2e2424a41a2115a5bb43485b6008730aa7ebc1b93e9496bf13010000006b483045022100c035dfd3d929ae381503ecacb5acafb55b8ae94e63a22ed00994e14d0a386a7f0220239609e6ce5a8009dad409f1e9eba8dace95a1c808ae5854a547dcbff55d90d6012103d73a2d2b4a6eb6cbac8b8f045061868b22fcaf2d604b5ab44f5fe903268097b8ffffffff02b2610200000000001976a914d7e7f302fcbd054c99c1fee398df6af69bfacbcc88ac8e7c2204000000001976a914f472f4b4c0c49135bf758a280852b4f53f903a6588ac00000000", "vin": [{"sequence": 4294967295, "scriptSig": {"hex": "483045022100c035dfd3d929ae381503ecacb5acafb55b8ae94e63a22ed00994e14d0a386a7f0220239609e6ce5a8009dad409f1e9eba8dace95a1c808ae5854a547dcbff55d90d6012103d73a2d2b4a6eb6cbac8b8f045061868b22fcaf2d604b5ab44f5fe903268097b8", "asm": "3045022100c035dfd3d929ae381503ecacb5acafb55b8ae94e63a22ed00994e14d0a386a7f0220239609e6ce5a8009dad409f1e9eba8dace95a1c808ae5854a547dcbff55d90d6[ALL] 03d73a2d2b4a6eb6cbac8b8f045061868b22fcaf2d604b5ab44f5fe903268097b8"}, "vout": 1, "txid": "13bf96943eb9c1eba70a7308605b4843bba515211aa424242e0afb7c21ede03b"}], "txid": "7da9f803c45dd4d8bebd38e3a510ad32651c308e8f4a1cc1aac7acce9c890fa0", "blocktime": 1537872475, "version": 1, "confirmations": 11487, "time": 1537872475, "locktime": 0, "vsize": 226, "size": 226}