{"hash": "12187862d7065f9bf980e6e678b8c3ecf18a9d02c5383b7c4414cfc1dc47cc48", "blockhash": "0000000000000000001cda96e906b7601b7a6fb1a3b62bca570a9e5d8f4b3de1", "vout": [{"scriptPubKey": {"reqSigs": 1, "hex": "a914ed7e4baaab682093090aad6865829a8a9cafa70b87", "addresses": ["3PLmNBGQqswDohAA6fAeDrHV7PMu5HpfZ2"], "asm": "OP_HASH160 ed7e4baaab682093090aad6865829a8a9cafa70b OP_EQUAL", "type": "scripthash"}, "value": 0.26456848, "n": 0}, {"scriptPubKey": {"reqSigs": 1, "hex": "76a91474113963150318fe430fdaf0ac261aa15e26765988ac", "addresses": ["1Bai21VdUeNx2KggpYUAh27MTbDHsPJqJB"], "asm": "OP_DUP OP_HASH160 74113963150318fe430fdaf0ac261aa15e267659 OP_EQUALVERIFY OP_CHECKSIG", "type": "pubkeyhash"}, "value": 0.04459321, "n": 1}], "hex": "020000000001016d19375a55f53b73c93880668108b53ee72f65a05e96171091e46bc53042bc500100000017160014fe07cfc96135a908da3687c33cd89ca3fcc73b84fdffffff0210b393010000000017a914ed7e4baaab682093090aad6865829a8a9cafa70b87390b4400000000001976a91474113963150318fe430fdaf0ac261aa15e26765988ac02483045022100c9ee490f7a992c8e96ea4989052f9a20ad0e6369ee774aadae240e8996b102a102205be1430bbbfec792c75ad54d7fbb8b56db8007778ba13edc7b3534376afbbe9b012102116cf6d5b3cfdc6c466a35618a4154e45f51cfbe823c5353aa7fa03377e4064113490800", "vin": [{"txinwitness": ["3045022100c9ee490f7a992c8e96ea4989052f9a20ad0e6369ee774aadae240e8996b102a102205be1430bbbfec792c75ad54d7fbb8b56db8007778ba13edc7b3534376afbbe9b01", "02116cf6d5b3cfdc6c466a35618a4154e45f51cfbe823c5353aa7fa03377e40641"], "sequence": 4294967293, "scriptSig": {"hex": "160014fe07cfc96135a908da3687c33cd89ca3fcc73b84", "asm": "0014fe07cfc96135a908da3687c33cd89ca3fcc73b84"}, "vout": 1, "txid": "50bc4230c56be4911017965ea0652fe73eb50881668038c9733bf5555a37196d"}], "txid": "7dae09dc3f74fba225b4aff0ed49d45156b5503953649da467fce326bfe2eb90", "blocktime": 1537873282, "version": 2, "confirmations": 11484, "time": 1537873282, "locktime": 542995, "vsize": 168, "size": 250}