{"hash": "7db0aa24b643d040d802c41498c58ed66a803733e5d2328b5636a31f33931348", "blockhash": "0000000000000000000dcc0f55137456b1a82d3642486a52398922ac4d620174", "vout": [{"scriptPubKey": {"reqSigs": 1, "hex": "76a91498a5dc254b443562b52e178282196f9eccb053c788ac", "addresses": ["1Ev8QJw3bzeFQZECpM8UL8puCnA4RT9SDD"], "asm": "OP_DUP OP_HASH160 98a5dc254b443562b52e178282196f9eccb053c7 OP_EQUALVERIFY OP_CHECKSIG", "type": "pubkeyhash"}, "value": 0.002026, "n": 0}, {"scriptPubKey": {"reqSigs": 1, "hex": "76a914e453f1f98fa1dc5aac65b947fdf613fabf90d13b88ac", "addresses": ["1MpHdMUk3dAw3thi1ra5LRX1BUWT8nNK7j"], "asm": "OP_DUP OP_HASH160 e453f1f98fa1dc5aac65b947fdf613fabf90d13b OP_EQUALVERIFY OP_CHECKSIG", "type": "pubkeyhash"}, "value": 0.00352775, "n": 1}], "hex": "01000000017cf498d1463c318b7266c2dabcc227373a1907205ac034f1243502f426497e5d010000006a473044022022593f049734412f2648d33f2e661cfb9174c1412f4487c5a3f251ad68427a1e022018f9126f3351124f91b7a11f45eafe97b5e70504a6b26904348e4b21a3a539fd012103b0c1c761b1c4ea7bc837c25adf251af5bb9793bd1e488edf2fa936d620758be4ffffffff0268170300000000001976a91498a5dc254b443562b52e178282196f9eccb053c788ac07620500000000001976a914e453f1f98fa1dc5aac65b947fdf613fabf90d13b88ac00000000", "vin": [{"sequence": 4294967295, "scriptSig": {"hex": "473044022022593f049734412f2648d33f2e661cfb9174c1412f4487c5a3f251ad68427a1e022018f9126f3351124f91b7a11f45eafe97b5e70504a6b26904348e4b21a3a539fd012103b0c1c761b1c4ea7bc837c25adf251af5bb9793bd1e488edf2fa936d620758be4", "asm": "3044022022593f049734412f2648d33f2e661cfb9174c1412f4487c5a3f251ad68427a1e022018f9126f3351124f91b7a11f45eafe97b5e70504a6b26904348e4b21a3a539fd[ALL] 03b0c1c761b1c4ea7bc837c25adf251af5bb9793bd1e488edf2fa936d620758be4"}, "vout": 1, "txid": "5d7e4926f4023524f134c05a2007193a3727c2bcdac266728b313c46d198f47c"}], "txid": "7db0aa24b643d040d802c41498c58ed66a803733e5d2328b5636a31f33931348", "blocktime": 1537870268, "version": 1, "confirmations": 11518, "time": 1537870268, "locktime": 0, "vsize": 225, "size": 225}