{"hash": "7dbf15bee99c92a7153a258c80f4143fd0daa7e9c79a9ff435b90adca12d8793", "blockhash": "0000000000000000001f76057863aec43deb6fa401d9628bb513d65a8098bfab", "vout": [{"scriptPubKey": {"type": "nulldata", "hex": "6a4c50000077ec00010bfa2521b752ef3a7ce7766b7af8e8e963c7cfd5b95b23cc0f42c2fc38c503919c38a803afc4f4de078971a44a4f5baa17a3061336a77aa18b18bc9a9526289ac0f6612cd74e33776ee4", "asm": "OP_RETURN 000077ec00010bfa2521b752ef3a7ce7766b7af8e8e963c7cfd5b95b23cc0f42c2fc38c503919c38a803afc4f4de078971a44a4f5baa17a3061336a77aa18b18bc9a9526289ac0f6612cd74e33776ee4"}, "value": 0.0, "n": 0}, {"scriptPubKey": {"reqSigs": 1, "hex": "76a914d6cbb54adadf61bcbb3d231058bb3207c327314288ac", "addresses": ["1Lajdwjj55AdgnZfLygQjWMGpYJaepfHMv"], "asm": "OP_DUP OP_HASH160 d6cbb54adadf61bcbb3d231058bb3207c3273142 OP_EQUALVERIFY OP_CHECKSIG", "type": "pubkeyhash"}, "value": 0.0008014, "n": 1}], "hex": "01000000016c55e7adc84281274ca2581eb9df075726bd0243ca8bcc8175456648a891e627000000006b483045022100caef178508a21130f288dffcdea35be32e98207e90b8a2656f38c48f6fda2093022022492e83b5254110c01bb9bfa2c9e286740626db6027bebd459160d59b57d51b012103c8f578cc6cc2894dba918769ea9bd269629bdcfdde9ea724821343cb19904538ffffffff020000000000000000536a4c50000077ec00010bfa2521b752ef3a7ce7766b7af8e8e963c7cfd5b95b23cc0f42c2fc38c503919c38a803afc4f4de078971a44a4f5baa17a3061336a77aa18b18bc9a9526289ac0f6612cd74e33776ee40c390100000000001976a914d6cbb54adadf61bcbb3d231058bb3207c327314288ac00000000", "vin": [{"sequence": 4294967295, "scriptSig": {"hex": "483045022100caef178508a21130f288dffcdea35be32e98207e90b8a2656f38c48f6fda2093022022492e83b5254110c01bb9bfa2c9e286740626db6027bebd459160d59b57d51b012103c8f578cc6cc2894dba918769ea9bd269629bdcfdde9ea724821343cb19904538", "asm": "3045022100caef178508a21130f288dffcdea35be32e98207e90b8a2656f38c48f6fda2093022022492e83b5254110c01bb9bfa2c9e286740626db6027bebd459160d59b57d51b[ALL] 03c8f578cc6cc2894dba918769ea9bd269629bdcfdde9ea724821343cb19904538"}, "vout": 0, "txid": "27e691a84866457581cc8bca4302bd265707dfb91e58a24c278142c8ade7556c"}], "txid": "7dbf15bee99c92a7153a258c80f4143fd0daa7e9c79a9ff435b90adca12d8793", "blocktime": 1537873891, "version": 1, "confirmations": 11478, "time": 1537873891, "locktime": 0, "vsize": 284, "size": 284}