{"hash": "7dcd0cbd516384e304dc6297cb4c4a7699d77b14db0fde923133a2fb50e21b3f", "blockhash": "0000000000000000001cda96e906b7601b7a6fb1a3b62bca570a9e5d8f4b3de1", "vout": [{"scriptPubKey": {"reqSigs": 1, "hex": "a914e531c84931c972453ab739707e3708c2e43b35f287", "addresses": ["3NatJQsbWve8qzp9AVQN3UdMLioPH7V8kT"], "asm": "OP_HASH160 e531c84931c972453ab739707e3708c2e43b35f2 OP_EQUAL", "type": "scripthash"}, "value": 0.11862685, "n": 0}], "hex": "0100000004c47167517d70efca94e5ef614daccb0a920dd46cf39b01628bdc86f70c3c277f010000006b483045022100f5cd1a793d549c840c181d77a0a6e97a16004e3a0a0548ccc19e888b7494d81e02207bdb4ce90d3e95e640f586df5d21ab585930a3f69a70e91150b4941eac16a7d00121030c901cbabfa3b77a7dc735bdd3cd06a8a6bdc0edb6c68dc70370c4d32c7ff751ffffffff5d74786e15294c71768890c6c0300d3871324defab399902ff0abdfce517ee8d010000006b483045022100eeb33aed7f6c33452b111a5896db976135d692adcdb0526dbdd69526feabce4d02205f0688fff8e894206230830766b91b6eeef73bdf510e0359c55f98bbede4b62a0121030c901cbabfa3b77a7dc735bdd3cd06a8a6bdc0edb6c68dc70370c4d32c7ff751fffffffffb2d091c0af63ab607cb2ee29e288f4cc05429f0c6b3a5181e915d1cc7b9f7bb000000006a4730440220729b6fc85432df178c1c98135218541ced02a83a619f6d28e0f3f30fb442bcab02203e6456df35e0143676cb97f7e0915f59937b95034f207c1fbd8cee835f26b8d10121030c901cbabfa3b77a7dc735bdd3cd06a8a6bdc0edb6c68dc70370c4d32c7ff751ffffffffeae1a0538745899ed0b619e72566bf757588ee87dee17b786c0db16549bf1be6010000006b483045022100d0f258e3743056ee8a0ecb63b6b56f6783f8436f404afd3b5c2a8e8bcbd96bc602200553f593d480016e92ddc1ea56d35f7194585bded587ddf4e169fce592811faa0121030c901cbabfa3b77a7dc735bdd3cd06a8a6bdc0edb6c68dc70370c4d32c7ff751ffffffff019d02b5000000000017a914e531c84931c972453ab739707e3708c2e43b35f28700000000", "vin": [{"sequence": 4294967295, "scriptSig": {"hex": "483045022100f5cd1a793d549c840c181d77a0a6e97a16004e3a0a0548ccc19e888b7494d81e02207bdb4ce90d3e95e640f586df5d21ab585930a3f69a70e91150b4941eac16a7d00121030c901cbabfa3b77a7dc735bdd3cd06a8a6bdc0edb6c68dc70370c4d32c7ff751", "asm": "3045022100f5cd1a793d549c840c181d77a0a6e97a16004e3a0a0548ccc19e888b7494d81e02207bdb4ce90d3e95e640f586df5d21ab585930a3f69a70e91150b4941eac16a7d0[ALL] 030c901cbabfa3b77a7dc735bdd3cd06a8a6bdc0edb6c68dc70370c4d32c7ff751"}, "vout": 1, "txid": "7f273c0cf786dc8b62019bf36cd40d920acbac4d61efe594caef707d516771c4"}, {"sequence": 4294967295, "scriptSig": {"hex": "483045022100eeb33aed7f6c33452b111a5896db976135d692adcdb0526dbdd69526feabce4d02205f0688fff8e894206230830766b91b6eeef73bdf510e0359c55f98bbede4b62a0121030c901cbabfa3b77a7dc735bdd3cd06a8a6bdc0edb6c68dc70370c4d32c7ff751", "asm": "3045022100eeb33aed7f6c33452b111a5896db976135d692adcdb0526dbdd69526feabce4d02205f0688fff8e894206230830766b91b6eeef73bdf510e0359c55f98bbede4b62a[ALL] 030c901cbabfa3b77a7dc735bdd3cd06a8a6bdc0edb6c68dc70370c4d32c7ff751"}, "vout": 1, "txid": "8dee17e5fcbd0aff029939abef4d3271380d30c0c6908876714c29156e78745d"}, {"sequence": 4294967295, "scriptSig": {"hex": "4730440220729b6fc85432df178c1c98135218541ced02a83a619f6d28e0f3f30fb442bcab02203e6456df35e0143676cb97f7e0915f59937b95034f207c1fbd8cee835f26b8d10121030c901cbabfa3b77a7dc735bdd3cd06a8a6bdc0edb6c68dc70370c4d32c7ff751", "asm": "30440220729b6fc85432df178c1c98135218541ced02a83a619f6d28e0f3f30fb442bcab02203e6456df35e0143676cb97f7e0915f59937b95034f207c1fbd8cee835f26b8d1[ALL] 030c901cbabfa3b77a7dc735bdd3cd06a8a6bdc0edb6c68dc70370c4d32c7ff751"}, "vout": 0, "txid": "bbf7b9c71c5d911e18a5b3c6f02954c04c8f289ee22ecb07b63af60a1c092dfb"}, {"sequence": 4294967295, "scriptSig": {"hex": "483045022100d0f258e3743056ee8a0ecb63b6b56f6783f8436f404afd3b5c2a8e8bcbd96bc602200553f593d480016e92ddc1ea56d35f7194585bded587ddf4e169fce592811faa0121030c901cbabfa3b77a7dc735bdd3cd06a8a6bdc0edb6c68dc70370c4d32c7ff751", "asm": "3045022100d0f258e3743056ee8a0ecb63b6b56f6783f8436f404afd3b5c2a8e8bcbd96bc602200553f593d480016e92ddc1ea56d35f7194585bded587ddf4e169fce592811faa[ALL] 030c901cbabfa3b77a7dc735bdd3cd06a8a6bdc0edb6c68dc70370c4d32c7ff751"}, "vout": 1, "txid": "e61bbf4965b10d6c787be1de87ee887575bf6625e719b6d09e89458753a0e1ea"}], "txid": "7dcd0cbd516384e304dc6297cb4c4a7699d77b14db0fde923133a2fb50e21b3f", "blocktime": 1537873282, "version": 1, "confirmations": 11481, "time": 1537873282, "locktime": 0, "vsize": 633, "size": 633}