{"hash": "7ddafaebac5132e5d3771349de69e26a4e153aae2576a8c5559a47c5443ece99", "blockhash": "0000000000000000001cda96e906b7601b7a6fb1a3b62bca570a9e5d8f4b3de1", "vout": [{"scriptPubKey": {"reqSigs": 1, "hex": "76a914742600d95f6f66e3c1d9c029cfd80736e6152b8b88ac", "addresses": ["1Bb8umcAfG67ABx4kjmMvqHxtY2NWkNRup"], "asm": "OP_DUP OP_HASH160 742600d95f6f66e3c1d9c029cfd80736e6152b8b OP_EQUALVERIFY OP_CHECKSIG", "type": "pubkeyhash"}, "value": 0.00747038, "n": 0}], "hex": "01000000021fd59c196de6347b2675aa6ebe83bf85126176032b1f7f9fcc7e68167768e56a000000006a47304402207c2cee69d355cc19d774ea021e23903fee1cec5bc08cfb7be2063c0a750aecd1022001d5ab04591ceac1c05e82303ac3a56f13ec6965b2723eec38a97b3071ec5a25012103df30932846f4356b9bb7379c5740e1d671fc42fbb4b9a0399c971fec8b0b70feffffffff3b2960be772bd5e7e9e5fdca35cb121b2a49d626554adcbe5b88a28880d6dd89000000006a47304402200e3a142bc083a59d16f27ab8f43d4645923bfbe2ca659499c0fa6a802c03520d0220263b38bc8f4cb340d8ae1ed86cf9c0ee69199436d704fb2438ccd64a22568215012103cdd95d8dbeb64a587f453c8e84c09c7d0d6c213c3b20f66ca2aed86eeb6f3a50ffffffff011e660b00000000001976a914742600d95f6f66e3c1d9c029cfd80736e6152b8b88ac00000000", "vin": [{"sequence": 4294967295, "scriptSig": {"hex": "47304402207c2cee69d355cc19d774ea021e23903fee1cec5bc08cfb7be2063c0a750aecd1022001d5ab04591ceac1c05e82303ac3a56f13ec6965b2723eec38a97b3071ec5a25012103df30932846f4356b9bb7379c5740e1d671fc42fbb4b9a0399c971fec8b0b70fe", "asm": "304402207c2cee69d355cc19d774ea021e23903fee1cec5bc08cfb7be2063c0a750aecd1022001d5ab04591ceac1c05e82303ac3a56f13ec6965b2723eec38a97b3071ec5a25[ALL] 03df30932846f4356b9bb7379c5740e1d671fc42fbb4b9a0399c971fec8b0b70fe"}, "vout": 0, "txid": "6ae5687716687ecc9f7f1f2b0376611285bf83be6eaa75267b34e66d199cd51f"}, {"sequence": 4294967295, "scriptSig": {"hex": "47304402200e3a142bc083a59d16f27ab8f43d4645923bfbe2ca659499c0fa6a802c03520d0220263b38bc8f4cb340d8ae1ed86cf9c0ee69199436d704fb2438ccd64a22568215012103cdd95d8dbeb64a587f453c8e84c09c7d0d6c213c3b20f66ca2aed86eeb6f3a50", "asm": "304402200e3a142bc083a59d16f27ab8f43d4645923bfbe2ca659499c0fa6a802c03520d0220263b38bc8f4cb340d8ae1ed86cf9c0ee69199436d704fb2438ccd64a22568215[ALL] 03cdd95d8dbeb64a587f453c8e84c09c7d0d6c213c3b20f66ca2aed86eeb6f3a50"}, "vout": 0, "txid": "89ddd68088a2885bbedc4a5526d6492a1b12cb35cafde5e9e7d52b77be60293b"}], "txid": "7ddafaebac5132e5d3771349de69e26a4e153aae2576a8c5559a47c5443ece99", "blocktime": 1537873282, "version": 1, "confirmations": 11484, "time": 1537873282, "locktime": 0, "vsize": 338, "size": 338}