{"hash": "903ef84732ab0e75dcdacd9a5440b30d5085bdd2c7f4502830c62b3b68ed9599", "blockhash": "00000000000000000024a2167bbff67b0be802c0b01cdd79e6331c2be6459f87", "vout": [{"scriptPubKey": {"reqSigs": 1, "hex": "a9148ea6545ebada7078ea718a805d03a0d406e4a86f87", "addresses": ["3EhH8ZiMPZz6sg9GL8zAbjUMnXyV4yuFrm"], "asm": "OP_HASH160 8ea6545ebada7078ea718a805d03a0d406e4a86f OP_EQUAL", "type": "scripthash"}, "value": 0.05075702, "n": 0}, {"scriptPubKey": {"reqSigs": 1, "hex": "76a914436cb99bca030e5a75d817469933a1ccf0be069088ac", "addresses": ["179WXCd8amhw9RWER2dc9JTP36iCS6HBYr"], "asm": "OP_DUP OP_HASH160 436cb99bca030e5a75d817469933a1ccf0be0690 OP_EQUALVERIFY OP_CHECKSIG", "type": "pubkeyhash"}, "value": 0.03045, "n": 1}, {"scriptPubKey": {"reqSigs": 1, "hex": "a9141988a27e3c2df4ddee7fad5a2303d086179b2a3087", "addresses": ["3422VtS7UtCvXYxoXMVp6eZupR252z85oC"], "asm": "OP_HASH160 1988a27e3c2df4ddee7fad5a2303d086179b2a30 OP_EQUAL", "type": "scripthash"}, "value": 0.89121825, "n": 2}], "hex": "010000000001019cfdc1cd2a4b5706c5beafc67f3275f8bc8b3e57c3aee224ec9efb0a26e05260000000002322002065d416c48a8072e0ac51c2d111eb194f009caef0332446c1bf2097316cf07fa9ffffffff03f6724d000000000017a9148ea6545ebada7078ea718a805d03a0d406e4a86f8788762e00000000001976a914436cb99bca030e5a75d817469933a1ccf0be069088ac21e44f050000000017a9141988a27e3c2df4ddee7fad5a2303d086179b2a30870400483045022100b30a7c9d17e59fb677e5388d3d2edc2f72f965324356cb956c1019be45273f3e022024b380de60dae84e77180476c47847607ae0022837ac04ad5325cee3354881ff01483045022100d5eec442db4f1d7360a93a3c0fa5ad85f5adaea18a8398ce7a3dd79689d7492102206064cf7b7e0254b499a2f2bfc64cfbf02e9b8340ac4b940e7697563478230a3c0169522102f44abcf9e23c9a460da309ccca56c619c04eed3bde2c2cff5e7d78fbcd980b9c2103c9443cf3047bb6c2c82f1b0c44c36109cdc3d0d601d16d1189a1602bf8d1a0a02103bfe867059274412412e088af5572b92168c2ef495cfe6c9b7a753a009eb37c4853ae00000000", "vin": [{"txinwitness": ["", "3045022100b30a7c9d17e59fb677e5388d3d2edc2f72f965324356cb956c1019be45273f3e022024b380de60dae84e77180476c47847607ae0022837ac04ad5325cee3354881ff01", "3045022100d5eec442db4f1d7360a93a3c0fa5ad85f5adaea18a8398ce7a3dd79689d7492102206064cf7b7e0254b499a2f2bfc64cfbf02e9b8340ac4b940e7697563478230a3c01", "522102f44abcf9e23c9a460da309ccca56c619c04eed3bde2c2cff5e7d78fbcd980b9c2103c9443cf3047bb6c2c82f1b0c44c36109cdc3d0d601d16d1189a1602bf8d1a0a02103bfe867059274412412e088af5572b92168c2ef495cfe6c9b7a753a009eb37c4853ae"], "sequence": 4294967295, "scriptSig": {"hex": "22002065d416c48a8072e0ac51c2d111eb194f009caef0332446c1bf2097316cf07fa9", "asm": "002065d416c48a8072e0ac51c2d111eb194f009caef0332446c1bf2097316cf07fa9"}, "vout": 0, "txid": "6052e0260afb9eec24e2aec3573e8bbcf875327fc6afbec506574b2acdc1fd9c"}], "txid": "7ddd0d170e5cc4eb8e7822171d53eecab609916663e8babe1084d00c2e73ca3a", "blocktime": 1537870564, "version": 1, "confirmations": 11515, "time": 1537870564, "locktime": 0, "vsize": 248, "size": 440}