{"hash": "7ddea0e3bec02e83fde8c7ffd0d1b75361dabed94c7418f1f151fbc0a4051dd5", "blockhash": "000000000000000000022b45ed06c6f4ccd3cf7fb5ba4856ebd2e58215665228", "vout": [{"scriptPubKey": {"reqSigs": 1, "hex": "76a914ed50b7d274e6ba35a128789dc6d15d12fea4354088ac", "addresses": ["1NdoqrT8tkRafudy8UXC3XBhy5fdDfPfHW"], "asm": "OP_DUP OP_HASH160 ed50b7d274e6ba35a128789dc6d15d12fea43540 OP_EQUALVERIFY OP_CHECKSIG", "type": "pubkeyhash"}, "value": 0.00813104, "n": 0}, {"scriptPubKey": {"reqSigs": 1, "hex": "76a914536c1c723651053fdf1ae43f92ff295e233b25e588ac", "addresses": ["18c6bcckEyQXwFY7voqdng9Yh5J5eW1SJ8"], "asm": "OP_DUP OP_HASH160 536c1c723651053fdf1ae43f92ff295e233b25e5 OP_EQUALVERIFY OP_CHECKSIG", "type": "pubkeyhash"}, "value": 0.01149309, "n": 1}], "hex": "020000000254663acdb8d0c959d42aa86d95410edd2effcea34e09b92ba7982ef8f02d6d0d010000006a473044022068cae1dc8efb04dcbe35e2d088c433943a125634de1db73eef75a77c547ec5bb02201ec160ce1942edcfdd8e0c3f6eaa02849f6f4031ce583e0fc44f44b8633884fa0121035e143af97a3477fd3b4b6394f989ea32c8ffd130a824e81979b6804e5200f7b9fdffffffb7ef7f0e2009819d4615f8b83a37b4ce1a3bdafcaed4ca58c007d302cb1fce14000000006a4730440220459d58a7101cf9dbdac79fdefeb63e8e4972a92b001475d6c9e2eebc13d7809002205440375fab87ad4d9563af4b34cb8e6acb9f81698357fd30bfc8779096428387012103ad9518392432194f2a070b6ef1efb8609edb4a306300c9360abe942ada12affcfdffffff0230680c00000000001976a914ed50b7d274e6ba35a128789dc6d15d12fea4354088ac7d891100000000001976a914536c1c723651053fdf1ae43f92ff295e233b25e588ac0b490800", "vin": [{"sequence": 4294967293, "scriptSig": {"hex": "473044022068cae1dc8efb04dcbe35e2d088c433943a125634de1db73eef75a77c547ec5bb02201ec160ce1942edcfdd8e0c3f6eaa02849f6f4031ce583e0fc44f44b8633884fa0121035e143af97a3477fd3b4b6394f989ea32c8ffd130a824e81979b6804e5200f7b9", "asm": "3044022068cae1dc8efb04dcbe35e2d088c433943a125634de1db73eef75a77c547ec5bb02201ec160ce1942edcfdd8e0c3f6eaa02849f6f4031ce583e0fc44f44b8633884fa[ALL] 035e143af97a3477fd3b4b6394f989ea32c8ffd130a824e81979b6804e5200f7b9"}, "vout": 1, "txid": "0d6d2df0f82e98a72bb9094ea3ceff2edd0e41956da82ad459c9d0b8cd3a6654"}, {"sequence": 4294967293, "scriptSig": {"hex": "4730440220459d58a7101cf9dbdac79fdefeb63e8e4972a92b001475d6c9e2eebc13d7809002205440375fab87ad4d9563af4b34cb8e6acb9f81698357fd30bfc8779096428387012103ad9518392432194f2a070b6ef1efb8609edb4a306300c9360abe942ada12affc", "asm": "30440220459d58a7101cf9dbdac79fdefeb63e8e4972a92b001475d6c9e2eebc13d7809002205440375fab87ad4d9563af4b34cb8e6acb9f81698357fd30bfc8779096428387[ALL] 03ad9518392432194f2a070b6ef1efb8609edb4a306300c9360abe942ada12affc"}, "vout": 0, "txid": "14ce1fcb02d307c058cad4aefcda3b1aceb4373ab8f815469d8109200e7fefb7"}], "txid": "7ddea0e3bec02e83fde8c7ffd0d1b75361dabed94c7418f1f151fbc0a4051dd5", "blocktime": 1537869901, "version": 2, "confirmations": 11522, "time": 1537869901, "locktime": 542987, "vsize": 372, "size": 372}