{"hash": "cd46ba1abb2fb5f367e2234d17f8700c397fb9942f485c12dc060bebb7cbdebd", "blockhash": "000000000000000000022b45ed06c6f4ccd3cf7fb5ba4856ebd2e58215665228", "vout": [{"scriptPubKey": {"reqSigs": 1, "hex": "a914de667549e19fcba8872b235c0a645fa8dbd1472787", "addresses": ["3Mxxg3iwvYbCX7AV1yofz7Z1vEp39RG9XP"], "asm": "OP_HASH160 de667549e19fcba8872b235c0a645fa8dbd14727 OP_EQUAL", "type": "scripthash"}, "value": 0.14887869, "n": 0}, {"scriptPubKey": {"reqSigs": 1, "hex": "76a914a8addd7d81b8fb78ba265dd25295a3956fa07d1588ac", "addresses": ["1GNtobQJgEYQqNdhMNHdzkDcMZzFDWrwtH"], "asm": "OP_DUP OP_HASH160 a8addd7d81b8fb78ba265dd25295a3956fa07d15 OP_EQUALVERIFY OP_CHECKSIG", "type": "pubkeyhash"}, "value": 0.00764589, "n": 1}], "hex": "0200000000010168c2d7e2e76775c6450c469bed8df4d6c13d83a8a8a2bd61045d20bbef2955ff0000000017160014a5ecafd01fb0faa5362764797ce2d8444da8fb11feffffff02bd2be3000000000017a914de667549e19fcba8872b235c0a645fa8dbd1472787adaa0b00000000001976a914a8addd7d81b8fb78ba265dd25295a3956fa07d1588ac02483045022100d8d8fdfd6038a4dce5182c6660be6d19e3013bbd52c5a47371b8e8e26a77326402205a3d31071417c949c6da698d7689d897e9e4e4a947ae094593fc631965982153012102ff16184c59ddd8b888255598040603da4edc5e1a144ee9539e88a5926f5701bb0b490800", "vin": [{"txinwitness": ["3045022100d8d8fdfd6038a4dce5182c6660be6d19e3013bbd52c5a47371b8e8e26a77326402205a3d31071417c949c6da698d7689d897e9e4e4a947ae094593fc63196598215301", "02ff16184c59ddd8b888255598040603da4edc5e1a144ee9539e88a5926f5701bb"], "sequence": 4294967294, "scriptSig": {"hex": "160014a5ecafd01fb0faa5362764797ce2d8444da8fb11", "asm": "0014a5ecafd01fb0faa5362764797ce2d8444da8fb11"}, "vout": 0, "txid": "ff5529efbb205d0461bda2a8a8833dc1d6f48ded9b460c45c67567e7e2d7c268"}], "txid": "7de31c87a42e48de194147d5ee0af1bb9cccec4043e14dbb8a479385508d031d", "blocktime": 1537869901, "version": 2, "confirmations": 11522, "time": 1537869901, "locktime": 542987, "vsize": 168, "size": 250}