{"hash": "7de8eb96d140d278ca6eb248a4ffe3d03bb28544e2fdb62094fa829986f372fe", "blockhash": "00000000000000000017f5eb5941039fbcee6240d03bc1f2f8e35350df66a1d8", "vout": [{"scriptPubKey": {"reqSigs": 1, "hex": "a9148a8d33559856474a53b4973a46d3594622b7555c87", "addresses": ["3EKcKoQBZ4k6K44P4MAqdnUWRmZYVf1Ey6"], "asm": "OP_HASH160 8a8d33559856474a53b4973a46d3594622b7555c OP_EQUAL", "type": "scripthash"}, "value": 0.668781, "n": 0}, {"scriptPubKey": {"reqSigs": 1, "hex": "76a9140ffbd8fca6e8778fca2d37a0b46407e8b14e33e388ac", "addresses": ["12TWqZEqB1pqUofjmgaSUxzor1DN7wzAPU"], "asm": "OP_DUP OP_HASH160 0ffbd8fca6e8778fca2d37a0b46407e8b14e33e3 OP_EQUALVERIFY OP_CHECKSIG", "type": "pubkeyhash"}, "value": 10.33847066, "n": 1}], "hex": "01000000018b308266c5dcf6331a2a6b0b4256d16f3da27b73b1886da8243c5c366b6241df010000008a4730440220573f52565e6db4889e44b986351db6f14d8ec1157171c8979d514bba460ed9c6022029f78675c58dc7a76dff2b4a74745adcfae908cdc3505e5d121fb4540db6c83a014104a30e2037100d8fdde70cf95150c21c17317e3d41bda9506b9ec5a7fe4c0de829a612a568acc590b0c7d8b6eb840f9d599f7c7eb7c2a20d2e207fbe5751d9986dfdffffff02947afc030000000017a9148a8d33559856474a53b4973a46d3594622b7555c871a419f3d000000001976a9140ffbd8fca6e8778fca2d37a0b46407e8b14e33e388ac15490800", "vin": [{"sequence": 4294967293, "scriptSig": {"hex": "4730440220573f52565e6db4889e44b986351db6f14d8ec1157171c8979d514bba460ed9c6022029f78675c58dc7a76dff2b4a74745adcfae908cdc3505e5d121fb4540db6c83a014104a30e2037100d8fdde70cf95150c21c17317e3d41bda9506b9ec5a7fe4c0de829a612a568acc590b0c7d8b6eb840f9d599f7c7eb7c2a20d2e207fbe5751d9986d", "asm": "30440220573f52565e6db4889e44b986351db6f14d8ec1157171c8979d514bba460ed9c6022029f78675c58dc7a76dff2b4a74745adcfae908cdc3505e5d121fb4540db6c83a[ALL] 04a30e2037100d8fdde70cf95150c21c17317e3d41bda9506b9ec5a7fe4c0de829a612a568acc590b0c7d8b6eb840f9d599f7c7eb7c2a20d2e207fbe5751d9986d"}, "vout": 1, "txid": "df41626b365c3c24a86d88b1737ba23d6fd156420b6b2a1a33f6dcc56682308b"}], "txid": "7de8eb96d140d278ca6eb248a4ffe3d03bb28544e2fdb62094fa829986f372fe", "blocktime": 1537874412, "version": 1, "confirmations": 11467, "time": 1537874412, "locktime": 542997, "vsize": 255, "size": 255}