{"hash": "fdc6be87ad97d1b0c35528fd94ff1b014b25d1b93e5beebded7eb46a8316049a", "blockhash": "0000000000000000001cda96e906b7601b7a6fb1a3b62bca570a9e5d8f4b3de1", "vout": [{"scriptPubKey": {"reqSigs": 1, "hex": "0014a76a14faada07489451804a0b9f0bf04e1951bd9", "addresses": ["bc1q5a4pf74d5p6gj3gcqjstnu9lqnse2x7e92h5a5"], "asm": "0 a76a14faada07489451804a0b9f0bf04e1951bd9", "type": "witness_v0_keyhash"}, "value": 0.46730823, "n": 0}, {"scriptPubKey": {"reqSigs": 1, "hex": "76a914977b87d9d3c4bd3d6acb219c9cfd7d48e0add68f88ac", "addresses": ["1Eoy22bzmojfpTzJeH1EXXZoxYpxkcFCeP"], "asm": "OP_DUP OP_HASH160 977b87d9d3c4bd3d6acb219c9cfd7d48e0add68f OP_EQUALVERIFY OP_CHECKSIG", "type": "pubkeyhash"}, "value": 0.0166571, "n": 1}], "hex": "01000000000101536f5b21ac8ee735a841a87f934d4e9dbe605d5b483ef1dbe609624b532369300000000000ffffffff02470ec90200000000160014a76a14faada07489451804a0b9f0bf04e1951bd9ae6a1900000000001976a914977b87d9d3c4bd3d6acb219c9cfd7d48e0add68f88ac02473044022023c0969b8db824a7252f85280b32885a8645681689350f09f7a1af704d1f618602207db2d5262f3b51f316be8d3c491f4db5088045abf3c0aa7fa5036aba354955cb0121033e7de97b75324185760d06885923e5544cbf06e8632871f32208065c16b5a0e800000000", "vin": [{"txinwitness": ["3044022023c0969b8db824a7252f85280b32885a8645681689350f09f7a1af704d1f618602207db2d5262f3b51f316be8d3c491f4db5088045abf3c0aa7fa5036aba354955cb01", "033e7de97b75324185760d06885923e5544cbf06e8632871f32208065c16b5a0e8"], "sequence": 4294967295, "scriptSig": {"hex": "", "asm": ""}, "vout": 0, "txid": "306923534b6209e6dbf13e485b5d60be9d4e4d937fa841a835e78eac215b6f53"}], "txid": "7dec16a5916238195024257a9c285b71edd82f76cb65261aef9b0badf8fc65de", "blocktime": 1537873282, "version": 1, "confirmations": 11484, "time": 1537873282, "locktime": 0, "vsize": 144, "size": 225}