{"hash": "7def01dd36c7bedb0e5b27d5ef336276992cc71384583d9fd156b13356edaefa", "blockhash": "00000000000000000004ffacab907a6b429b9a5745fa0b75af4234bf69dd7176", "vout": [{"scriptPubKey": {"reqSigs": 1, "hex": "a914c927026a8ca520d2b962fceda3746ecc1d9f516787", "addresses": ["3L2cUXQDVWiEPfN7nJRnS2GPbqifmx8yqL"], "asm": "OP_HASH160 c927026a8ca520d2b962fceda3746ecc1d9f5167 OP_EQUAL", "type": "scripthash"}, "value": 0.40443753, "n": 0}, {"scriptPubKey": {"reqSigs": 1, "hex": "a914c531813eb8e91546d49d3d153b1389a80fda29fd87", "addresses": ["3KfgLzXCG6i8swaXjSbBJFgVBopmoLDh8F"], "asm": "OP_HASH160 c531813eb8e91546d49d3d153b1389a80fda29fd OP_EQUAL", "type": "scripthash"}, "value": 0.02751659, "n": 1}], "hex": "0100000001900e7b17e9449e655545481ea3b632cabc1d41b307f8283861c6371d03d60fa401000000fdfd0000473044022031ca03f7f19de1b243d2328840ef7df4796339eb68c778499dd505d5855929d20220129d04b66b5ce9dee83c767b58f72051f09a66fc329aa7f034c81ad1d88abefc01483045022100bc15f0f482d4c60fa122e2dc55b26ec1733f2457cfda5b0bcf6b351d89bdf310022037fcfc8c8e36f032cf2681bfbf695d600a65d8fb0da41fbc9e63973d30246152014c6952210312ae275d6cffb21af89b6b24e69f1fc9d2de296e0a0314272725d312bad26f1e210341bb692fd7cf9bb56372b6dc32e893dd5dc71cd9c1bb9723f22b7b6d151acfea2103a4879818abef8eb6910a537b4a6d34b589f397db99a77a3cfe4fb725d8c33e0953aeffffffff02691f69020000000017a914c927026a8ca520d2b962fceda3746ecc1d9f516787abfc29000000000017a914c531813eb8e91546d49d3d153b1389a80fda29fd8700000000", "vin": [{"sequence": 4294967295, "scriptSig": {"hex": "00473044022031ca03f7f19de1b243d2328840ef7df4796339eb68c778499dd505d5855929d20220129d04b66b5ce9dee83c767b58f72051f09a66fc329aa7f034c81ad1d88abefc01483045022100bc15f0f482d4c60fa122e2dc55b26ec1733f2457cfda5b0bcf6b351d89bdf310022037fcfc8c8e36f032cf2681bfbf695d600a65d8fb0da41fbc9e63973d30246152014c6952210312ae275d6cffb21af89b6b24e69f1fc9d2de296e0a0314272725d312bad26f1e210341bb692fd7cf9bb56372b6dc32e893dd5dc71cd9c1bb9723f22b7b6d151acfea2103a4879818abef8eb6910a537b4a6d34b589f397db99a77a3cfe4fb725d8c33e0953ae", "asm": "0 3044022031ca03f7f19de1b243d2328840ef7df4796339eb68c778499dd505d5855929d20220129d04b66b5ce9dee83c767b58f72051f09a66fc329aa7f034c81ad1d88abefc[ALL] 3045022100bc15f0f482d4c60fa122e2dc55b26ec1733f2457cfda5b0bcf6b351d89bdf310022037fcfc8c8e36f032cf2681bfbf695d600a65d8fb0da41fbc9e63973d30246152[ALL] 52210312ae275d6cffb21af89b6b24e69f1fc9d2de296e0a0314272725d312bad26f1e210341bb692fd7cf9bb56372b6dc32e893dd5dc71cd9c1bb9723f22b7b6d151acfea2103a4879818abef8eb6910a537b4a6d34b589f397db99a77a3cfe4fb725d8c33e0953ae"}, "vout": 1, "txid": "a40fd6031d37c6613828f807b3411dbcca32b6a31e484555659e44e9177b0e90"}], "txid": "7def01dd36c7bedb0e5b27d5ef336276992cc71384583d9fd156b13356edaefa", "blocktime": 1537875543, "version": 1, "confirmations": 11464, "time": 1537875543, "locktime": 0, "vsize": 370, "size": 370}