{"hash": "7def796386bea0caaf86d89a8a06bc726600f54af1d718cd7d6730e3ac8d59fd", "blockhash": "0000000000000000001cda96e906b7601b7a6fb1a3b62bca570a9e5d8f4b3de1", "vout": [{"scriptPubKey": {"reqSigs": 1, "hex": "76a91467317a3f6853f289ac6303d70c27c6212daca7af88ac", "addresses": ["1AQdsX2ATdmo3z6ouzHoYnsWf4r5YDkQK5"], "asm": "OP_DUP OP_HASH160 67317a3f6853f289ac6303d70c27c6212daca7af OP_EQUALVERIFY OP_CHECKSIG", "type": "pubkeyhash"}, "value": 0.01038168, "n": 0}, {"scriptPubKey": {"reqSigs": 1, "hex": "76a914da3178ec76e8ad094ed21df4e1b7f66c14fdf15288ac", "addresses": ["1LthaDgqTEE7mL7aP2P7gtTpkjADz7LbzL"], "asm": "OP_DUP OP_HASH160 da3178ec76e8ad094ed21df4e1b7f66c14fdf152 OP_EQUALVERIFY OP_CHECKSIG", "type": "pubkeyhash"}, "value": 24.46388972, "n": 1}], "hex": "010000000120dd37fc0dd5f77fd7f3231f46dc17653da910aab43055b06529fb6f9b799724010000006b483045022100b10d20c84302983e572137c5625ed56e93fc23ed4f02eb20650a264f5e1fb441022020dc128f1ac650b051a81cec4dbeee0489c1892ceecdedc3d5fddc8a5d3b63510121029b3d0a0a71e3d537a7d5059445f84d267df83e95c95f5cdb166d4ae91d59fb79ffffffff0258d70f00000000001976a91467317a3f6853f289ac6303d70c27c6212daca7af88aceceed091000000001976a914da3178ec76e8ad094ed21df4e1b7f66c14fdf15288ac00000000", "vin": [{"sequence": 4294967295, "scriptSig": {"hex": "483045022100b10d20c84302983e572137c5625ed56e93fc23ed4f02eb20650a264f5e1fb441022020dc128f1ac650b051a81cec4dbeee0489c1892ceecdedc3d5fddc8a5d3b63510121029b3d0a0a71e3d537a7d5059445f84d267df83e95c95f5cdb166d4ae91d59fb79", "asm": "3045022100b10d20c84302983e572137c5625ed56e93fc23ed4f02eb20650a264f5e1fb441022020dc128f1ac650b051a81cec4dbeee0489c1892ceecdedc3d5fddc8a5d3b6351[ALL] 029b3d0a0a71e3d537a7d5059445f84d267df83e95c95f5cdb166d4ae91d59fb79"}, "vout": 1, "txid": "2497799b6ffb2965b05530b4aa10a93d6517dc461f23f3d77ff7d50dfc37dd20"}], "txid": "7def796386bea0caaf86d89a8a06bc726600f54af1d718cd7d6730e3ac8d59fd", "blocktime": 1537873282, "version": 1, "confirmations": 11484, "time": 1537873282, "locktime": 0, "vsize": 226, "size": 226}