{"hash": "ba7ac868bee6a4303bbce8a4b2a181f90bac65c70923bf7782017d4844d822b0", "blockhash": "000000000000000000022b45ed06c6f4ccd3cf7fb5ba4856ebd2e58215665228", "vout": [{"scriptPubKey": {"reqSigs": 1, "hex": "76a914db54304b3ed5d1af2d83ee11ee53631a82a3916d88ac", "addresses": ["1LzhqYMs6abRQPVN941G62ry1BwCVWGdXd"], "asm": "OP_DUP OP_HASH160 db54304b3ed5d1af2d83ee11ee53631a82a3916d OP_EQUALVERIFY OP_CHECKSIG", "type": "pubkeyhash"}, "value": 0.00113658, "n": 0}, {"scriptPubKey": {"reqSigs": 1, "hex": "0014a0d40f74c37eb0e32516fff3669fdc3f9a42df99", "addresses": ["bc1q5r2q7axr06cwxfgkllekd87u87dy9huecsn6s9"], "asm": "0 a0d40f74c37eb0e32516fff3669fdc3f9a42df99", "type": "witness_v0_keyhash"}, "value": 1.304e-05, "n": 1}], "hex": "010000000001018468d5511a9c66ef3d8a12bf4d77a90f45af28efe9286df0e64d2b1f5810b37c0000000000ffffffff02fabb0100000000001976a914db54304b3ed5d1af2d83ee11ee53631a82a3916d88ac1805000000000000160014a0d40f74c37eb0e32516fff3669fdc3f9a42df99024830450221008dee1f8f24430a2fefcf257ff58a27303d211455fd8177280e0e9e2422caacf7022009185388254a6ebe7ea3c370978548e3ff5ebd1e0d208b78c21005740c1f87350121031adb5aefc34ae6d4e268a4b86eebd4d2996597475e8d4aec84ea683f60c4d34200000000", "vin": [{"txinwitness": ["30450221008dee1f8f24430a2fefcf257ff58a27303d211455fd8177280e0e9e2422caacf7022009185388254a6ebe7ea3c370978548e3ff5ebd1e0d208b78c21005740c1f873501", "031adb5aefc34ae6d4e268a4b86eebd4d2996597475e8d4aec84ea683f60c4d342"], "sequence": 4294967295, "scriptSig": {"hex": "", "asm": ""}, "vout": 0, "txid": "7cb310581f2b4de6f06d28e9ef28af450fa9774dbf128a3def669c1a51d56884"}], "txid": "7df05d7391d350b309140414c95888d895b7b13e356cb30b158e97d0b3ac4a45", "blocktime": 1537869901, "version": 1, "confirmations": 11523, "time": 1537869901, "locktime": 0, "vsize": 144, "size": 226}