{"hash": "7df1c9b178c04d5586f9fa3110b2abe488420c2262b8defcb80bcde17e9f5c7c", "blockhash": "0000000000000000000dcc0f55137456b1a82d3642486a52398922ac4d620174", "vout": [{"scriptPubKey": {"reqSigs": 1, "hex": "a914c13bc15e6870607336a2d6e3a8cef7b2a40438d887", "addresses": ["3KJjvSYp6yNbZrfkPxTdHZqcmMWJmSKtj7"], "asm": "OP_HASH160 c13bc15e6870607336a2d6e3a8cef7b2a40438d8 OP_EQUAL", "type": "scripthash"}, "value": 0.00679036, "n": 0}], "hex": "0100000001a5c4aacdb07bf97313922981aa957c08c34db52787469c7cfa6ac6e7e12c282b010000006a47304402203c25a8a6b2bedece5f1630473993743ac6909260649e70a970a7bd042f5ae6d7022064ec2ff112b95a335e73f7d85ea37fdf2df22fd8dec3585675bd4f44f977c1360121023e823f7cf25cb95bade10cb748dd605d9f6c80770649ab8d052f8abbe660ce00ffffffff017c5c0a000000000017a914c13bc15e6870607336a2d6e3a8cef7b2a40438d88700000000", "vin": [{"sequence": 4294967295, "scriptSig": {"hex": "47304402203c25a8a6b2bedece5f1630473993743ac6909260649e70a970a7bd042f5ae6d7022064ec2ff112b95a335e73f7d85ea37fdf2df22fd8dec3585675bd4f44f977c1360121023e823f7cf25cb95bade10cb748dd605d9f6c80770649ab8d052f8abbe660ce00", "asm": "304402203c25a8a6b2bedece5f1630473993743ac6909260649e70a970a7bd042f5ae6d7022064ec2ff112b95a335e73f7d85ea37fdf2df22fd8dec3585675bd4f44f977c136[ALL] 023e823f7cf25cb95bade10cb748dd605d9f6c80770649ab8d052f8abbe660ce00"}, "vout": 1, "txid": "2b282ce1e7c66afa7c9c468727b54dc3087c95aa8129921373f97bb0cdaac4a5"}], "txid": "7df1c9b178c04d5586f9fa3110b2abe488420c2262b8defcb80bcde17e9f5c7c", "blocktime": 1537870268, "version": 1, "confirmations": 11516, "time": 1537870268, "locktime": 0, "vsize": 189, "size": 189}