{"hash": "7df2e23559adb6d81b1a1b3c69b4422bff1ca6c72789425b4f865ccb106d250f", "blockhash": "00000000000000000024a2167bbff67b0be802c0b01cdd79e6331c2be6459f87", "vout": [{"scriptPubKey": {"type": "nulldata", "hex": "6a2769642bf52f135ea9f64552d9331c2400eecc3ab7bdb2da33239ccfd0136dbde6af4951c2955e1b", "asm": "OP_RETURN 69642bf52f135ea9f64552d9331c2400eecc3ab7bdb2da33239ccfd0136dbde6af4951c2955e1b"}, "value": 0.0, "n": 0}, {"scriptPubKey": {"reqSigs": 1, "hex": "76a914dd2d39d80f5692c398d1eb44d2f9dc0bf5c735d288ac", "addresses": ["1MAUWkS4rgHpsmr5sLCKBDA4o5ZRcxUFUb"], "asm": "OP_DUP OP_HASH160 dd2d39d80f5692c398d1eb44d2f9dc0bf5c735d2 OP_EQUALVERIFY OP_CHECKSIG", "type": "pubkeyhash"}, "value": 5.5e-05, "n": 1}, {"scriptPubKey": {"reqSigs": 1, "hex": "76a914796f80a96d30556758a17b0d103f71ed7708b86e88ac", "addresses": ["1C56LYirKa3PFXFsvhSESgDy2acEHVAEt6"], "asm": "OP_DUP OP_HASH160 796f80a96d30556758a17b0d103f71ed7708b86e OP_EQUALVERIFY OP_CHECKSIG", "type": "pubkeyhash"}, "value": 0.03254352, "n": 2}], "hex": "010000000246d17bc3bd99bafa785fcc8b833dada1a8c008402ba15d12627260b9edb89632010000006a473044022035b75c567c4888d0e90831d6a381d4620ea93acb1671d0399b8bfd028745106102207e54415da8edd9148b1cbe5bd1c0ec2ae56167988d6ba46f1d2b4bbc78ec11d301210260aab7bdea11e1097f5fe7e99a16b5af0c0e0b30d801516b3600a960b914f2d0ffffffff46d17bc3bd99bafa785fcc8b833dada1a8c008402ba15d12627260b9edb89632020000006b483045022100fda477206a8c37ef9e9b4733d64a95c608fa0721759ed947d43226b81cbe61980220445efb5210ee122641719f8bd460faca4d882013205e7e0910ef03bc5ed9350a0121030f1e9d3f7ad2c076e1d88b7838f1622ab0e0a2452710288f2691c2e55af063ddffffffff030000000000000000296a2769642bf52f135ea9f64552d9331c2400eecc3ab7bdb2da33239ccfd0136dbde6af4951c2955e1b7c150000000000001976a914dd2d39d80f5692c398d1eb44d2f9dc0bf5c735d288ac50a83100000000001976a914796f80a96d30556758a17b0d103f71ed7708b86e88ac00000000", "vin": [{"sequence": 4294967295, "scriptSig": {"hex": "473044022035b75c567c4888d0e90831d6a381d4620ea93acb1671d0399b8bfd028745106102207e54415da8edd9148b1cbe5bd1c0ec2ae56167988d6ba46f1d2b4bbc78ec11d301210260aab7bdea11e1097f5fe7e99a16b5af0c0e0b30d801516b3600a960b914f2d0", "asm": "3044022035b75c567c4888d0e90831d6a381d4620ea93acb1671d0399b8bfd028745106102207e54415da8edd9148b1cbe5bd1c0ec2ae56167988d6ba46f1d2b4bbc78ec11d3[ALL] 0260aab7bdea11e1097f5fe7e99a16b5af0c0e0b30d801516b3600a960b914f2d0"}, "vout": 1, "txid": "3296b8edb9607262125da12b4008c0a8a1ad3d838bcc5f78faba99bdc37bd146"}, {"sequence": 4294967295, "scriptSig": {"hex": "483045022100fda477206a8c37ef9e9b4733d64a95c608fa0721759ed947d43226b81cbe61980220445efb5210ee122641719f8bd460faca4d882013205e7e0910ef03bc5ed9350a0121030f1e9d3f7ad2c076e1d88b7838f1622ab0e0a2452710288f2691c2e55af063dd", "asm": "3045022100fda477206a8c37ef9e9b4733d64a95c608fa0721759ed947d43226b81cbe61980220445efb5210ee122641719f8bd460faca4d882013205e7e0910ef03bc5ed9350a[ALL] 030f1e9d3f7ad2c076e1d88b7838f1622ab0e0a2452710288f2691c2e55af063dd"}, "vout": 2, "txid": "3296b8edb9607262125da12b4008c0a8a1ad3d838bcc5f78faba99bdc37bd146"}], "txid": "7df2e23559adb6d81b1a1b3c69b4422bff1ca6c72789425b4f865ccb106d250f", "blocktime": 1537870564, "version": 1, "confirmations": 11515, "time": 1537870564, "locktime": 0, "vsize": 423, "size": 423}