{"hash": "7df5314f88b654d065c24854afaaa2b343dcbd32ad9d5f5463d2c1a319b857f9", "blockhash": "000000000000000000022b45ed06c6f4ccd3cf7fb5ba4856ebd2e58215665228", "vout": [{"scriptPubKey": {"type": "nulldata", "hex": "6a4c500000776500018bffff623cfe112441cdc70386aeaeacb577c031fc3a016b46dc7dc7d0968359b37dcedfd75b87abd0b05dc9b8465baa07fa0612c6675664fc4cbc9a9526289ac0f6612cd74e33776ee4", "asm": "OP_RETURN 0000776500018bffff623cfe112441cdc70386aeaeacb577c031fc3a016b46dc7dc7d0968359b37dcedfd75b87abd0b05dc9b8465baa07fa0612c6675664fc4cbc9a9526289ac0f6612cd74e33776ee4"}, "value": 0.0, "n": 0}, {"scriptPubKey": {"reqSigs": 1, "hex": "76a914dac8084b56efe3f4fd3b653582db07ffe723112c88ac", "addresses": ["1LwowKCfVmZUpaxs8b9TQBL7ouCUnQ5CCz"], "asm": "OP_DUP OP_HASH160 dac8084b56efe3f4fd3b653582db07ffe723112c OP_EQUALVERIFY OP_CHECKSIG", "type": "pubkeyhash"}, "value": 0.0015148, "n": 1}], "hex": "010000000117cc15a296d2140ba2aa19b3f5303c16c9cd78a74376adca0307156e5288a673000000006b483045022100ac004ed13f091c16fb2c5cb4e61e1673de9acd8d1dc30e24fc0d32b834c4fdb6022070d656d499f3005227c9e756a781e1f9f43dbac20c97d36dd0a8aaad5b14dbb5012102d55a16e8a3eea3315e7e4132acc94ddde317892f0bfb49b46f841acb92065ec8ffffffff020000000000000000536a4c500000776500018bffff623cfe112441cdc70386aeaeacb577c031fc3a016b46dc7dc7d0968359b37dcedfd75b87abd0b05dc9b8465baa07fa0612c6675664fc4cbc9a9526289ac0f6612cd74e33776ee4b84f0200000000001976a914dac8084b56efe3f4fd3b653582db07ffe723112c88ac00000000", "vin": [{"sequence": 4294967295, "scriptSig": {"hex": "483045022100ac004ed13f091c16fb2c5cb4e61e1673de9acd8d1dc30e24fc0d32b834c4fdb6022070d656d499f3005227c9e756a781e1f9f43dbac20c97d36dd0a8aaad5b14dbb5012102d55a16e8a3eea3315e7e4132acc94ddde317892f0bfb49b46f841acb92065ec8", "asm": "3045022100ac004ed13f091c16fb2c5cb4e61e1673de9acd8d1dc30e24fc0d32b834c4fdb6022070d656d499f3005227c9e756a781e1f9f43dbac20c97d36dd0a8aaad5b14dbb5[ALL] 02d55a16e8a3eea3315e7e4132acc94ddde317892f0bfb49b46f841acb92065ec8"}, "vout": 0, "txid": "73a688526e150703caad7643a778cdc9163c30f5b319aaa20b14d296a215cc17"}], "txid": "7df5314f88b654d065c24854afaaa2b343dcbd32ad9d5f5463d2c1a319b857f9", "blocktime": 1537869901, "version": 1, "confirmations": 11523, "time": 1537869901, "locktime": 0, "vsize": 284, "size": 284}