{"hash": "7e006390e0c3094e9648af1e1152ae4d7695f4822e5aea7c951ead38f7ec6d62", "blockhash": "0000000000000000000e13cef7c366c0283d82e591d1acd082e914b08063cdf1", "vout": [{"scriptPubKey": {"reqSigs": 1, "hex": "76a914b33dc38580711570da12485e82c4184ddbafc05888ac", "addresses": ["1HLjwm13VhiMgjuQ3P1jdgofze82CncFKK"], "asm": "OP_DUP OP_HASH160 b33dc38580711570da12485e82c4184ddbafc058 OP_EQUALVERIFY OP_CHECKSIG", "type": "pubkeyhash"}, "value": 0.00017756, "n": 0}], "hex": "0100000002e8d1c4c6cbcd3c8e377a813096ae15582cd8613a1bd182c77e49e7ad72cec46bb70000006b483045022100a5f893acbd8b54e4bd2b35e59abb972a5b141aa09c2ee33634617e8be124da8e022067cce4c0c2d5daa0566b291aeb370186deb075258c9b727da9a4bfd0253a1e4b012102b12936a52129765a85bbde919732a00c391a277200592ddfa8bad008cc3c8635ffffffff2928395c3a9f4488607c4753d74ee28f53d8af7dc712c80e4cea60df590ea6d1510000006b483045022100c1bef570be19810a9b6dcac04b75109ff937424944f6f1fa5ce20196346e400202205e25de78cf054f4a22d7b1b94db8f323d6c40da93bedef98761b54641ebfb4a2012102b12936a52129765a85bbde919732a00c391a277200592ddfa8bad008cc3c8635ffffffff015c450000000000001976a914b33dc38580711570da12485e82c4184ddbafc05888ac00000000", "vin": [{"sequence": 4294967295, "scriptSig": {"hex": "483045022100a5f893acbd8b54e4bd2b35e59abb972a5b141aa09c2ee33634617e8be124da8e022067cce4c0c2d5daa0566b291aeb370186deb075258c9b727da9a4bfd0253a1e4b012102b12936a52129765a85bbde919732a00c391a277200592ddfa8bad008cc3c8635", "asm": "3045022100a5f893acbd8b54e4bd2b35e59abb972a5b141aa09c2ee33634617e8be124da8e022067cce4c0c2d5daa0566b291aeb370186deb075258c9b727da9a4bfd0253a1e4b[ALL] 02b12936a52129765a85bbde919732a00c391a277200592ddfa8bad008cc3c8635"}, "vout": 183, "txid": "6bc4ce72ade7497ec782d11b3a61d82c5815ae9630817a378e3ccdcbc6c4d1e8"}, {"sequence": 4294967295, "scriptSig": {"hex": "483045022100c1bef570be19810a9b6dcac04b75109ff937424944f6f1fa5ce20196346e400202205e25de78cf054f4a22d7b1b94db8f323d6c40da93bedef98761b54641ebfb4a2012102b12936a52129765a85bbde919732a00c391a277200592ddfa8bad008cc3c8635", "asm": "3045022100c1bef570be19810a9b6dcac04b75109ff937424944f6f1fa5ce20196346e400202205e25de78cf054f4a22d7b1b94db8f323d6c40da93bedef98761b54641ebfb4a2[ALL] 02b12936a52129765a85bbde919732a00c391a277200592ddfa8bad008cc3c8635"}, "vout": 81, "txid": "d1a60e59df60ea4c0ec812c77dafd8538fe24ed753477c6088449f3a5c392829"}], "txid": "7e006390e0c3094e9648af1e1152ae4d7695f4822e5aea7c951ead38f7ec6d62", "blocktime": 1537871767, "version": 1, "confirmations": 11491, "time": 1537871767, "locktime": 0, "vsize": 340, "size": 340}