{"hash": "7e045c09433ceb633b01907a95a50e6572be70aeeb7a2eb58fa2121ac88442aa", "blockhash": "00000000000000000017f5eb5941039fbcee6240d03bc1f2f8e35350df66a1d8", "vout": [{"scriptPubKey": {"type": "nulldata", "hex": "6a4c50000077fc0001024291d4c6f5cc6431af6411d19ed074892d00f8e87af8e8e963c7cfd5b9f682f669bcef1809ebfb471da22bee5d5baa19670613a51606938be41d100759d4ba30d2c37bb011d97e02cf", "asm": "OP_RETURN 000077fc0001024291d4c6f5cc6431af6411d19ed074892d00f8e87af8e8e963c7cfd5b9f682f669bcef1809ebfb471da22bee5d5baa19670613a51606938be41d100759d4ba30d2c37bb011d97e02cf"}, "value": 0.0, "n": 0}, {"scriptPubKey": {"reqSigs": 1, "hex": "76a914963cc1b9a2d7c77b0b25c3e7febf276950c07bfb88ac", "addresses": ["1EhP9E9uHc66qPGb8bL6PFS2yUMwcjyakd"], "asm": "OP_DUP OP_HASH160 963cc1b9a2d7c77b0b25c3e7febf276950c07bfb OP_EQUALVERIFY OP_CHECKSIG", "type": "pubkeyhash"}, "value": 0.0063582, "n": 1}], "hex": "01000000010390bf7afc712c066f9fe2c9af113a380e96b8e74d6c5bea97f9bf1cb046d25a000000006b483045022100d01b45e0e77a8dc0c3c9a32f62a50e0fb3793cdafcd50055e02da84cbb23dcd202202d57c2f4766eef3f89d140f94c93f252cea80e02dd6975e52a51cf9b30307f950121026190e56e17154c4c71da07d809347a1d88b7c45399022286f73a5f2d5ca41ff1ffffffff020000000000000000536a4c50000077fc0001024291d4c6f5cc6431af6411d19ed074892d00f8e87af8e8e963c7cfd5b9f682f669bcef1809ebfb471da22bee5d5baa19670613a51606938be41d100759d4ba30d2c37bb011d97e02cfacb30900000000001976a914963cc1b9a2d7c77b0b25c3e7febf276950c07bfb88ac00000000", "vin": [{"sequence": 4294967295, "scriptSig": {"hex": "483045022100d01b45e0e77a8dc0c3c9a32f62a50e0fb3793cdafcd50055e02da84cbb23dcd202202d57c2f4766eef3f89d140f94c93f252cea80e02dd6975e52a51cf9b30307f950121026190e56e17154c4c71da07d809347a1d88b7c45399022286f73a5f2d5ca41ff1", "asm": "3045022100d01b45e0e77a8dc0c3c9a32f62a50e0fb3793cdafcd50055e02da84cbb23dcd202202d57c2f4766eef3f89d140f94c93f252cea80e02dd6975e52a51cf9b30307f95[ALL] 026190e56e17154c4c71da07d809347a1d88b7c45399022286f73a5f2d5ca41ff1"}, "vout": 0, "txid": "5ad246b01cbff997ea5b6c4de7b8960e383a11afc9e29f6f062c71fc7abf9003"}], "txid": "7e045c09433ceb633b01907a95a50e6572be70aeeb7a2eb58fa2121ac88442aa", "blocktime": 1537874412, "version": 1, "confirmations": 11467, "time": 1537874412, "locktime": 0, "vsize": 284, "size": 284}