{"hash": "7e0547d0bb87a8358b8a8cdcac45e2412492a55253f5e68fa39c418c889aefee", "blockhash": "0000000000000000000e13cef7c366c0283d82e591d1acd082e914b08063cdf1", "vout": [{"scriptPubKey": {"reqSigs": 1, "hex": "76a9142ed48b5e4e2d965d2fc54326af4ad2981c9e590f88ac", "addresses": ["15GchfmzSnfXB1ogQu1BmxuBZx8jVtaVex"], "asm": "OP_DUP OP_HASH160 2ed48b5e4e2d965d2fc54326af4ad2981c9e590f OP_EQUALVERIFY OP_CHECKSIG", "type": "pubkeyhash"}, "value": 0.01615364, "n": 0}, {"scriptPubKey": {"reqSigs": 1, "hex": "76a914194636552c46b434fb7c8d691cf7619dc8611c2988ac", "addresses": ["13Je1ECP9bmmwXGs4fnoLBTV4taayQe225"], "asm": "OP_DUP OP_HASH160 194636552c46b434fb7c8d691cf7619dc8611c29 OP_EQUALVERIFY OP_CHECKSIG", "type": "pubkeyhash"}, "value": 0.34408309, "n": 1}], "hex": "020000000120e372b23fd5e9c448ab8a72c5e54bd7ac63ae68ed4e02fda85ccdafd925912d010000006a47304402204f85eb43b6135619c341a9348e7932b27e1b77134904cfa556a2f7d2b773833202200f7f92822eafe1d8feaf5e8b2552f323ddb8bd7759c212bab1f072274d6d31f701210227931848148f75c2338968c231c9108019afb144097672dd39d23b038884bf42ffffffff0204a61800000000001976a9142ed48b5e4e2d965d2fc54326af4ad2981c9e590f88ac75070d02000000001976a914194636552c46b434fb7c8d691cf7619dc8611c2988ac00000000", "vin": [{"sequence": 4294967295, "scriptSig": {"hex": "47304402204f85eb43b6135619c341a9348e7932b27e1b77134904cfa556a2f7d2b773833202200f7f92822eafe1d8feaf5e8b2552f323ddb8bd7759c212bab1f072274d6d31f701210227931848148f75c2338968c231c9108019afb144097672dd39d23b038884bf42", "asm": "304402204f85eb43b6135619c341a9348e7932b27e1b77134904cfa556a2f7d2b773833202200f7f92822eafe1d8feaf5e8b2552f323ddb8bd7759c212bab1f072274d6d31f7[ALL] 0227931848148f75c2338968c231c9108019afb144097672dd39d23b038884bf42"}, "vout": 1, "txid": "2d9125d9afcd5ca8fd024eed68ae63acd74be5c5728aab48c4e9d53fb272e320"}], "txid": "7e0547d0bb87a8358b8a8cdcac45e2412492a55253f5e68fa39c418c889aefee", "blocktime": 1537871767, "version": 2, "confirmations": 11491, "time": 1537871767, "locktime": 0, "vsize": 225, "size": 225}