{"hash": "7e0cd16dbc512c79c626cac7e9f5965fdc3d2184b298bd09e1d4f51ead3418e3", "blockhash": "00000000000000000017f5eb5941039fbcee6240d03bc1f2f8e35350df66a1d8", "vout": [{"scriptPubKey": {"reqSigs": 1, "hex": "76a914831a0280699ebd24e5d8495cd65cff3e8b7979b688ac", "addresses": ["1CxCgKatpk23WatM2wPzq6Mou3EP7Se4fb"], "asm": "OP_DUP OP_HASH160 831a0280699ebd24e5d8495cd65cff3e8b7979b6 OP_EQUALVERIFY OP_CHECKSIG", "type": "pubkeyhash"}, "value": 0.0024, "n": 0}, {"scriptPubKey": {"reqSigs": 1, "hex": "76a91415a76c83f08dc7232d491d7f41b72d26223db89288ac", "addresses": ["12yVkqxf28af51F9qHvQER5h2jHvDxiu5v"], "asm": "OP_DUP OP_HASH160 15a76c83f08dc7232d491d7f41b72d26223db892 OP_EQUALVERIFY OP_CHECKSIG", "type": "pubkeyhash"}, "value": 0.00708581, "n": 1}], "hex": "01000000018c19be85d3c6e206bb5ca3c0bb36421ce8ad099f009e481487ff1e01d657cc1d010000006b4830450221008325166c4c5c65c7c91abc5023cff492fdb882cd535d05b0c6cb6943bb2fb51302203de45635d364a01f5732baf709b756527ed9f8e6f6f6ffdef1f51c58381d14ad0121033dc65eec3541890347e8409ee2c9f286ce1c39a959e38ed6b5b0aa4f31088f60ffffffff0280a90300000000001976a914831a0280699ebd24e5d8495cd65cff3e8b7979b688ace5cf0a00000000001976a91415a76c83f08dc7232d491d7f41b72d26223db89288ac00000000", "vin": [{"sequence": 4294967295, "scriptSig": {"hex": "4830450221008325166c4c5c65c7c91abc5023cff492fdb882cd535d05b0c6cb6943bb2fb51302203de45635d364a01f5732baf709b756527ed9f8e6f6f6ffdef1f51c58381d14ad0121033dc65eec3541890347e8409ee2c9f286ce1c39a959e38ed6b5b0aa4f31088f60", "asm": "30450221008325166c4c5c65c7c91abc5023cff492fdb882cd535d05b0c6cb6943bb2fb51302203de45635d364a01f5732baf709b756527ed9f8e6f6f6ffdef1f51c58381d14ad[ALL] 033dc65eec3541890347e8409ee2c9f286ce1c39a959e38ed6b5b0aa4f31088f60"}, "vout": 1, "txid": "1dcc57d6011eff8714489e009f09ade81c4236bbc0a35cbb06e2c6d385be198c"}], "txid": "7e0cd16dbc512c79c626cac7e9f5965fdc3d2184b298bd09e1d4f51ead3418e3", "blocktime": 1537874412, "version": 1, "confirmations": 11467, "time": 1537874412, "locktime": 0, "vsize": 226, "size": 226}