{"hash": "7e0e8b6b64063231335b56a5989e9e57d3d8d3048e09bc0ec7424834be2fc138", "blockhash": "00000000000000000004ffacab907a6b429b9a5745fa0b75af4234bf69dd7176", "vout": [{"scriptPubKey": {"type": "nulldata", "hex": "6a146f6d6e69000000000000001f000000746a528800", "asm": "OP_RETURN 6f6d6e69000000000000001f000000746a528800"}, "value": 0.0, "n": 0}, {"scriptPubKey": {"reqSigs": 1, "hex": "a9145f6a697b1d098b7e1ede63d7b0211d37ca5303c887", "addresses": ["3APXbQUAB5YRyLmFxkuxBZm6xKxxkfb4cz"], "asm": "OP_HASH160 5f6a697b1d098b7e1ede63d7b0211d37ca5303c8 OP_EQUAL", "type": "scripthash"}, "value": 5.4e-06, "n": 1}, {"scriptPubKey": {"reqSigs": 1, "hex": "76a91407836037a0dafa6cc55cd5e39b43009ce9ac1ee388ac", "addresses": ["1gj7VpHptCG4MbbaQZtJmo1VmPL6nMH6m"], "asm": "OP_DUP OP_HASH160 07836037a0dafa6cc55cd5e39b43009ce9ac1ee3 OP_EQUALVERIFY OP_CHECKSIG", "type": "pubkeyhash"}, "value": 0.16229346, "n": 2}], "hex": "010000000110e537d983dd3188509c7045a3f56be2714ff94cc3a42d7c41c49df8fbbee0d5020000006b483045022100884fd5ab997776c51a8076dda9d1f3d8d6fc32a6d7670a384cdba9cfbdd58326022077d77ce7ca9f3ecf1e18edfe818f0339fc0060cb429fd3eaccfb90c9547dcfc50121030f088c9e8403b7f3439de04f80afd0298bf3f4bb500e85afb7a81a3fd52110a4feffffff030000000000000000166a146f6d6e69000000000000001f000000746a5288001c0200000000000017a9145f6a697b1d098b7e1ede63d7b0211d37ca5303c887e2a3f700000000001976a91407836037a0dafa6cc55cd5e39b43009ce9ac1ee388ac16490800", "vin": [{"sequence": 4294967294, "scriptSig": {"hex": "483045022100884fd5ab997776c51a8076dda9d1f3d8d6fc32a6d7670a384cdba9cfbdd58326022077d77ce7ca9f3ecf1e18edfe818f0339fc0060cb429fd3eaccfb90c9547dcfc50121030f088c9e8403b7f3439de04f80afd0298bf3f4bb500e85afb7a81a3fd52110a4", "asm": "3045022100884fd5ab997776c51a8076dda9d1f3d8d6fc32a6d7670a384cdba9cfbdd58326022077d77ce7ca9f3ecf1e18edfe818f0339fc0060cb429fd3eaccfb90c9547dcfc5[ALL] 030f088c9e8403b7f3439de04f80afd0298bf3f4bb500e85afb7a81a3fd52110a4"}, "vout": 2, "txid": "d5e0befbf89dc4417c2da4c34cf94f71e26bf5a345709c508831dd83d937e510"}], "txid": "7e0e8b6b64063231335b56a5989e9e57d3d8d3048e09bc0ec7424834be2fc138", "blocktime": 1537875543, "version": 1, "confirmations": 11464, "time": 1537875543, "locktime": 542998, "vsize": 255, "size": 255}