{"hash": "7e186defc2dcd8c7face49a6e5c910e2369f974b998782ecfe15b1e14d0eb62d", "blockhash": "0000000000000000001cda96e906b7601b7a6fb1a3b62bca570a9e5d8f4b3de1", "vout": [{"scriptPubKey": {"reqSigs": 1, "hex": "76a9149ecdcb200217ad5d809f691f5e3bdff409d026a388ac", "addresses": ["1FUgJ6BMNVmVs5UQ43LBNrvkDvF5r1oXA9"], "asm": "OP_DUP OP_HASH160 9ecdcb200217ad5d809f691f5e3bdff409d026a3 OP_EQUALVERIFY OP_CHECKSIG", "type": "pubkeyhash"}, "value": 0.00404605, "n": 0}, {"scriptPubKey": {"reqSigs": 1, "hex": "76a91443cde739e915be43ad0bc0ff526377fd9c9d2b3988ac", "addresses": ["17BWwG4an9iSGFKvwmDreVFek2sDNSqy2k"], "asm": "OP_DUP OP_HASH160 43cde739e915be43ad0bc0ff526377fd9c9d2b39 OP_EQUALVERIFY OP_CHECKSIG", "type": "pubkeyhash"}, "value": 0.072, "n": 1}], "hex": "0100000002d02d178739c0e82ad69474e535c2e723b991c9155189dddb95a573ca2a0890b5010000006a473044022014d15716842c35651dec9b713cfce2a26de945999e033a45fdefcfa72988b48002205dcd307aed49a935d64cfee094fe40663e6a1c245385617c78154fdcae3e4ce40121021fc61f97657c0243327ba5f0838435ef1f66f80287f0859ab29620ecce3ffebbffffffffb08ba134ba08326b85a74da859cc4c57a10611a4a2892424345566f3129663a7000000006b48304502210090bd1ed9c3ccb748295be06d35ad00c054c1767d93652dac264440b8f7ecf615022012e811d2b7cff803d006fcdbf6c8df513561019f6785622ccee838f1237f916d012102a3d96d83047106b587ade8562937606ce85613f57db0ce50405bc50589019356ffffffff027d2c0600000000001976a9149ecdcb200217ad5d809f691f5e3bdff409d026a388ac00dd6d00000000001976a91443cde739e915be43ad0bc0ff526377fd9c9d2b3988ac00000000", "vin": [{"sequence": 4294967295, "scriptSig": {"hex": "473044022014d15716842c35651dec9b713cfce2a26de945999e033a45fdefcfa72988b48002205dcd307aed49a935d64cfee094fe40663e6a1c245385617c78154fdcae3e4ce40121021fc61f97657c0243327ba5f0838435ef1f66f80287f0859ab29620ecce3ffebb", "asm": "3044022014d15716842c35651dec9b713cfce2a26de945999e033a45fdefcfa72988b48002205dcd307aed49a935d64cfee094fe40663e6a1c245385617c78154fdcae3e4ce4[ALL] 021fc61f97657c0243327ba5f0838435ef1f66f80287f0859ab29620ecce3ffebb"}, "vout": 1, "txid": "b590082aca73a595dbdd895115c991b923e7c235e57494d62ae8c03987172dd0"}, {"sequence": 4294967295, "scriptSig": {"hex": "48304502210090bd1ed9c3ccb748295be06d35ad00c054c1767d93652dac264440b8f7ecf615022012e811d2b7cff803d006fcdbf6c8df513561019f6785622ccee838f1237f916d012102a3d96d83047106b587ade8562937606ce85613f57db0ce50405bc50589019356", "asm": "304502210090bd1ed9c3ccb748295be06d35ad00c054c1767d93652dac264440b8f7ecf615022012e811d2b7cff803d006fcdbf6c8df513561019f6785622ccee838f1237f916d[ALL] 02a3d96d83047106b587ade8562937606ce85613f57db0ce50405bc50589019356"}, "vout": 0, "txid": "a7639612f3665534242489a2a41106a1574ccc59a84da7856b3208ba34a18bb0"}], "txid": "7e186defc2dcd8c7face49a6e5c910e2369f974b998782ecfe15b1e14d0eb62d", "blocktime": 1537873282, "version": 1, "confirmations": 11481, "time": 1537873282, "locktime": 0, "vsize": 373, "size": 373}