{"hash": "d429b2c9ec419099b601a60d0dbf4df9c6fb19e7cc3b9fd9a7b6be9633349d0f", "blockhash": "0000000000000000001cda96e906b7601b7a6fb1a3b62bca570a9e5d8f4b3de1", "vout": [{"scriptPubKey": {"reqSigs": 1, "hex": "a9142b2d7da468557bfe2670dee7ba36b7bf3d7dc5ac87", "addresses": ["35dKUYjaZYDwy5dACE1AMvk9zrdhTVjuoN"], "asm": "OP_HASH160 2b2d7da468557bfe2670dee7ba36b7bf3d7dc5ac OP_EQUAL", "type": "scripthash"}, "value": 0.00103, "n": 0}, {"scriptPubKey": {"reqSigs": 1, "hex": "a9149649ad6d2730bb28020a268d9d80df10a9f74ad487", "addresses": ["3FPfYWwfMfKMGY7fuPHvz2b73RhTNGzsm3"], "asm": "OP_HASH160 9649ad6d2730bb28020a268d9d80df10a9f74ad4 OP_EQUAL", "type": "scripthash"}, "value": 13.84766778, "n": 1}], "hex": "01000000000101fd00a8e443394f64eb33ef2b88efd38f43f11f3a792616eb2beeda301645bad801000000232200207768efcc1e5eb3d28410fac3f45831004c860cc24cddd940a616b34324823fceffffffff02589201000000000017a9142b2d7da468557bfe2670dee7ba36b7bf3d7dc5ac873add89520000000017a9149649ad6d2730bb28020a268d9d80df10a9f74ad4870400483045022100fa5f3fca702c044df67dd181efc1335e1deb0d7cd112edeca36d3f4bb83ba55602202d2d49faa92232a0e1a640fbec06034097fd4b79a6193c49847afce722128ec50147304402203ea9bee0fc8f1d38487603aa767fbb7f0c55b59c43682816f71edd953e18a94f022034fae370f6027196606c090b7db002974948bd91e82704aa6bccf771bc6753130147522102529d5d1f6733ab45d9d50e07db42c7f6b967ae321c38b726c2247f149959b8262103d0c936a5988dd8421c63240496b723b0ec42400c38b9350e32c2eb4f47d8796952ae00000000", "vin": [{"txinwitness": ["", "3045022100fa5f3fca702c044df67dd181efc1335e1deb0d7cd112edeca36d3f4bb83ba55602202d2d49faa92232a0e1a640fbec06034097fd4b79a6193c49847afce722128ec501", "304402203ea9bee0fc8f1d38487603aa767fbb7f0c55b59c43682816f71edd953e18a94f022034fae370f6027196606c090b7db002974948bd91e82704aa6bccf771bc67531301", "522102529d5d1f6733ab45d9d50e07db42c7f6b967ae321c38b726c2247f149959b8262103d0c936a5988dd8421c63240496b723b0ec42400c38b9350e32c2eb4f47d8796952ae"], "sequence": 4294967295, "scriptSig": {"hex": "2200207768efcc1e5eb3d28410fac3f45831004c860cc24cddd940a616b34324823fce", "asm": "00207768efcc1e5eb3d28410fac3f45831004c860cc24cddd940a616b34324823fce"}, "vout": 1, "txid": "d8ba451630daee2beb1626793a1ff1438fd3ef882bef33eb644f3943e4a800fd"}], "txid": "7e19c83d3291b9145e439d228506b55ffbe7d4ed9700ed7ed985f5a70a5f99eb", "blocktime": 1537873282, "version": 1, "confirmations": 11484, "time": 1537873282, "locktime": 0, "vsize": 206, "size": 371}