{"hash": "436ea69ba172da80deba3017d4fb303cb7cc6b1a462dbe5e09483b3e93466a6d", "blockhash": "0000000000000000001f76057863aec43deb6fa401d9628bb513d65a8098bfab", "vout": [{"scriptPubKey": {"reqSigs": 1, "hex": "76a914a645b33c7f1567d77f9b2e425b9c6becdc32607c88ac", "addresses": ["1GAAfhHf3nsgEtcrXNM6xjfD9hg8cg8zTH"], "asm": "OP_DUP OP_HASH160 a645b33c7f1567d77f9b2e425b9c6becdc32607c OP_EQUALVERIFY OP_CHECKSIG", "type": "pubkeyhash"}, "value": 0.00047963, "n": 0}, {"scriptPubKey": {"reqSigs": 1, "hex": "a91494baf5448f28549fa52da6fdeb5b3c4b64e9c27a87", "addresses": ["3FFRu1WZSUX3UvpHJCcZH5VG3fvLHkjYz5"], "asm": "OP_HASH160 94baf5448f28549fa52da6fdeb5b3c4b64e9c27a OP_EQUAL", "type": "scripthash"}, "value": 0.00999127, "n": 1}], "hex": "0200000000010435852db54bf82fe69ac8aae669e251fa0fcf9e493a2b4f0c37a5abc4344e97250100000017160014074717dfcfaa28c08528714b88c046bac5993f23feffffff3d0b25b59d29b2c6d48dd24602e3dc88d0b5da4e7c4dad2d8281bb563747fc7000000000171600141ba0bc6277a3e8cdc007ca14d91397fdd6eae7fbfeffffff9b6d510d3c38835fdb3ac3f2fa72349126bbaa31192f5ab5124455823a74a213070000001716001418bec9a5f676a8810a2fbd53d2ca1fc6479c2b00feffffffb752da1b153d880722095d24fb7e6fd82207e2a157b5bfe86771f79f02d380a21000000017160014c8d3378e2be3f549a51902a28701ed792001bcb6feffffff025bbb0000000000001976a914a645b33c7f1567d77f9b2e425b9c6becdc32607c88acd73e0f000000000017a91494baf5448f28549fa52da6fdeb5b3c4b64e9c27a8702483045022100e1cd82c1474eb6d4eacc7156a701c96a88d233da6f51dd025d5289fa67f7d4260220626531633d6b980cb5f8fb43e5ee999eb7f62bb43923f77ebcd25a3c6f5111010121029689280511ea4e0afcf243e47bbe449423ee9d550b2d16330cd18ea72e2bd66102483045022100a7cb48366225602b0ff0b4ebf8db8b61c2c4fdfa3e5afdf903231e45ce8cd24702204a3b3c98afeec08eaf1cd9fc91ba6d5062cd8a8ed99089808f2d027853b902ac0121038b06a83ceb5a65eb7436f5e1a0745821232dbc6729bf5737739d96386c0e805c024730440220276c2f8494fb935746085fb8b9482e5479f1e80963debf8d50cb15fc026f672202204e892159eaac5d4db1d6072ac8f4e168b56a317823f890daae8704f487a762ae01210280635b7e1056a52fa5fc194379ba9e0cd39ef925441e64fd71093245fc70e69302483045022100a4c41e90b00906f5b00812da6cf4eaa4443eb25ec4806ee6ba2c56329d62d7ad02201766c7ad765eecd00f5f571512b8255cec7fbd258c52c1448e802f9ca9efb144012103b6b38389485715174c3f2a1b4edc8daae69c96759e1ba3939f8c688a66b81bbf14490800", "vin": [{"txinwitness": ["3045022100e1cd82c1474eb6d4eacc7156a701c96a88d233da6f51dd025d5289fa67f7d4260220626531633d6b980cb5f8fb43e5ee999eb7f62bb43923f77ebcd25a3c6f51110101", "029689280511ea4e0afcf243e47bbe449423ee9d550b2d16330cd18ea72e2bd661"], "sequence": 4294967294, "scriptSig": {"hex": "160014074717dfcfaa28c08528714b88c046bac5993f23", "asm": "0014074717dfcfaa28c08528714b88c046bac5993f23"}, "vout": 1, "txid": "25974e34c4aba5370c4f2b3a499ecf0ffa51e269e6aac89ae62ff84bb52d8535"}, {"txinwitness": ["3045022100a7cb48366225602b0ff0b4ebf8db8b61c2c4fdfa3e5afdf903231e45ce8cd24702204a3b3c98afeec08eaf1cd9fc91ba6d5062cd8a8ed99089808f2d027853b902ac01", "038b06a83ceb5a65eb7436f5e1a0745821232dbc6729bf5737739d96386c0e805c"], "sequence": 4294967294, "scriptSig": {"hex": "1600141ba0bc6277a3e8cdc007ca14d91397fdd6eae7fb", "asm": "00141ba0bc6277a3e8cdc007ca14d91397fdd6eae7fb"}, "vout": 0, "txid": "70fc473756bb81822dad4d7c4edab5d088dce30246d28dd4c6b2299db5250b3d"}, {"txinwitness": ["30440220276c2f8494fb935746085fb8b9482e5479f1e80963debf8d50cb15fc026f672202204e892159eaac5d4db1d6072ac8f4e168b56a317823f890daae8704f487a762ae01", "0280635b7e1056a52fa5fc194379ba9e0cd39ef925441e64fd71093245fc70e693"], "sequence": 4294967294, "scriptSig": {"hex": "16001418bec9a5f676a8810a2fbd53d2ca1fc6479c2b00", "asm": "001418bec9a5f676a8810a2fbd53d2ca1fc6479c2b00"}, "vout": 7, "txid": "13a2743a82554412b55a2f1931aabb26913472faf2c33adb5f83383c0d516d9b"}, {"txinwitness": ["3045022100a4c41e90b00906f5b00812da6cf4eaa4443eb25ec4806ee6ba2c56329d62d7ad02201766c7ad765eecd00f5f571512b8255cec7fbd258c52c1448e802f9ca9efb14401", "03b6b38389485715174c3f2a1b4edc8daae69c96759e1ba3939f8c688a66b81bbf"], "sequence": 4294967294, "scriptSig": {"hex": "160014c8d3378e2be3f549a51902a28701ed792001bcb6", "asm": "0014c8d3378e2be3f549a51902a28701ed792001bcb6"}, "vout": 16, "txid": "a280d3029ff77167e8bfb557a1e20722d86f7efb245d092207883d151bda52b7"}], "txid": "7e1b43a2d8fc719e81e5d6995187d9b3461167c47f3503cadedf1b0dc42d2f96", "blocktime": 1537873891, "version": 2, "confirmations": 11478, "time": 1537873891, "locktime": 542996, "vsize": 441, "size": 765}