{"hash": "78bbaad95f94b2e817605cd804e372a7f69881b8a97f2cfa80ffa81f0cf892bf", "blockhash": "0000000000000000000baef3f32e3676a92c3b2e5da21b426e4f302fc371ce76", "vout": [{"scriptPubKey": {"reqSigs": 1, "hex": "76a91408ea3e54586f13e0d7141500b05fc38659e53f2488ac", "addresses": ["1p924HLhRvhcXskCWZvfmnno2hqMiUwEB"], "asm": "OP_DUP OP_HASH160 08ea3e54586f13e0d7141500b05fc38659e53f24 OP_EQUALVERIFY OP_CHECKSIG", "type": "pubkeyhash"}, "value": 0.001, "n": 0}, {"scriptPubKey": {"reqSigs": 1, "hex": "76a914357ea7b5e2daa3a2e49cd3fb847a1ee26528ef3888ac", "addresses": ["15srYKVzwMwxNTrLdUCWybjU8wgHmZTVr4"], "asm": "OP_DUP OP_HASH160 357ea7b5e2daa3a2e49cd3fb847a1ee26528ef38 OP_EQUALVERIFY OP_CHECKSIG", "type": "pubkeyhash"}, "value": 0.001, "n": 1}, {"scriptPubKey": {"reqSigs": 1, "hex": "76a914143db3dc79d5e11274854129c6071fab3bb0b8a788ac", "addresses": ["12r2S1RKn3vJiizfuQrS7Y3mPgu9Yo64f2"], "asm": "OP_DUP OP_HASH160 143db3dc79d5e11274854129c6071fab3bb0b8a7 OP_EQUALVERIFY OP_CHECKSIG", "type": "pubkeyhash"}, "value": 0.14939, "n": 2}, {"scriptPubKey": {"reqSigs": 1, "hex": "76a9140942472f72543021c6093693417ce1d9a0571eea88ac", "addresses": ["1qxUopw4UqwY7QPF4VPNbZ1EZFLpHubGq"], "asm": "OP_DUP OP_HASH160 0942472f72543021c6093693417ce1d9a0571eea OP_EQUALVERIFY OP_CHECKSIG", "type": "pubkeyhash"}, "value": 0.41, "n": 3}, {"scriptPubKey": {"reqSigs": 1, "hex": "76a914fea45f14789c2fc4abae9a0e352e66569848474c88ac", "addresses": ["1QDRYT8HgQjjfmt2BKwe2feot4A44efCge"], "asm": "OP_DUP OP_HASH160 fea45f14789c2fc4abae9a0e352e66569848474c OP_EQUALVERIFY OP_CHECKSIG", "type": "pubkeyhash"}, "value": 0.01138702, "n": 4}, {"scriptPubKey": {"reqSigs": 1, "hex": "0020701a8d401c84fb13e6baf169d59684e17abd9fa216c8cc5b9fc63d622ff8c58d", "addresses": ["bc1qwqdg6squsna38e46795at95yu9atm8azzmyvckulcc7kytlcckxswvvzej"], "asm": "0 701a8d401c84fb13e6baf169d59684e17abd9fa216c8cc5b9fc63d622ff8c58d", "type": "witness_v0_scripthash"}, "value": 0.08350798, "n": 5}], "hex": "01000000000101a75520267f8b470dc0e81a6973babe00f0e09b1eda1e78c8e8cce35ec5592f590100000000ffffffff06a0860100000000001976a91408ea3e54586f13e0d7141500b05fc38659e53f2488aca0860100000000001976a914357ea7b5e2daa3a2e49cd3fb847a1ee26528ef3888ac78f3e300000000001976a914143db3dc79d5e11274854129c6071fab3bb0b8a788ac409c7102000000001976a9140942472f72543021c6093693417ce1d9a0571eea88ac0e601100000000001976a914fea45f14789c2fc4abae9a0e352e66569848474c88ac4e6c7f0000000000220020701a8d401c84fb13e6baf169d59684e17abd9fa216c8cc5b9fc63d622ff8c58d04004830450221009eb2ef0cd8f09c89c294fdc75b5ac3bc3c49f8bd9cd58d99aaa17848f0edb23402204b8fb12a6e76c5d4de64722eb558451cee0bbeb638931ccae3c489a6cad70caf01483045022100fff29af179e553ab2f44b2c52899529a5ed4f0738c44366a76f88d600cd65f4202203a861d07a8bc55e109feb60a06754a2e22588cc4515d095e2766ee03a51ed95c016952210375e00eb72e29da82b89367947f29ef34afb75e8654f6ea368e0acdfd92976b7c2103a1b26313f430c4b15bb1fdce663207659d8cac749a0e53d70eff01874496feff2103c96d495bfdd5ba4145e3e046fee45e84a8a48ad05bd8dbb395c011a32cf9f88053ae00000000", "vin": [{"txinwitness": ["", "30450221009eb2ef0cd8f09c89c294fdc75b5ac3bc3c49f8bd9cd58d99aaa17848f0edb23402204b8fb12a6e76c5d4de64722eb558451cee0bbeb638931ccae3c489a6cad70caf01", "3045022100fff29af179e553ab2f44b2c52899529a5ed4f0738c44366a76f88d600cd65f4202203a861d07a8bc55e109feb60a06754a2e22588cc4515d095e2766ee03a51ed95c01", "52210375e00eb72e29da82b89367947f29ef34afb75e8654f6ea368e0acdfd92976b7c2103a1b26313f430c4b15bb1fdce663207659d8cac749a0e53d70eff01874496feff2103c96d495bfdd5ba4145e3e046fee45e84a8a48ad05bd8dbb395c011a32cf9f88053ae"], "sequence": 4294967295, "scriptSig": {"hex": "", "asm": ""}, "vout": 1, "txid": "592f59c55ee3cce8c8781eda1e9be0f000beba73691ae8c00d478b7f262055a7"}], "txid": "7e1e5c5de650c21ffb86ebf840eea81d4deb8c53820a31270ebfa1bb3b9d7a85", "blocktime": 1537876114, "version": 1, "confirmations": 11459, "time": 1537876114, "locktime": 0, "vsize": 328, "size": 520}