{"hash": "7e1e2c92593d3e3a06741481cc833bc357087453c630442ed2365902ceb514d7", "blockhash": "0000000000000000001e0dab787dd257d1dbfcb92a98c2207d5e1078be1f4165", "vout": [{"scriptPubKey": {"reqSigs": 1, "hex": "76a9144d520e24e5d15ed00f2780ac30504c072dd9f40b88ac", "addresses": ["183qL53U2MFnRYSopAGQYG9ssndExWFXxv"], "asm": "OP_DUP OP_HASH160 4d520e24e5d15ed00f2780ac30504c072dd9f40b OP_EQUALVERIFY OP_CHECKSIG", "type": "pubkeyhash"}, "value": 0.11121395, "n": 0}], "hex": "01000000032941d071b55c7c44b6e0a9060e8d59b75cef5c0445b407a169c3d1794bd32c1e5b0000006a47304402201b9bdf4e4f0d1da9c3662cfef86fe8409cd8bda7c09f610151a66d56778c7bf802201c6529d18ded880b6014564aaa7cd2824a4fd1f19d929793a70d8e8afb8639890121033c3e6e99159c9288e58b412f30b2b6d0fd3f05d9b49f2865e17437a457b6c1d6ffffffff054845e2a53bc2a58815e90be7c0ae80f72d97bac17f6db0378c0755145e5d050a0000006b483045022100dd4e35869401ccf5fb517a5f475895757b313579884b209a1c38ae51a9060f7a02203b94ba134b75cb524f646c8d5fc0c9b362d5aa9f980d32173ba6a220a68be5540121036109f00c063663356cd7c47784b6fdf10cca2ef1c3a3d4fe0d450dd13b1f1f1fffffffff2e1f65ceae369b463c19082573d4b4562d39986673926d118c3bc260ca795dfd0a0000006b483045022100aff21cc276e75b60347e37699858fed4954a14c9f4e31a387c4c4933484212f7022069ec328730ad0d9dbed5cc509846516c28192c2e51dfe34520ae88a5396c9c530121036109f00c063663356cd7c47784b6fdf10cca2ef1c3a3d4fe0d450dd13b1f1f1fffffffff01f3b2a900000000001976a9144d520e24e5d15ed00f2780ac30504c072dd9f40b88ac00000000", "vin": [{"sequence": 4294967295, "scriptSig": {"hex": "47304402201b9bdf4e4f0d1da9c3662cfef86fe8409cd8bda7c09f610151a66d56778c7bf802201c6529d18ded880b6014564aaa7cd2824a4fd1f19d929793a70d8e8afb8639890121033c3e6e99159c9288e58b412f30b2b6d0fd3f05d9b49f2865e17437a457b6c1d6", "asm": "304402201b9bdf4e4f0d1da9c3662cfef86fe8409cd8bda7c09f610151a66d56778c7bf802201c6529d18ded880b6014564aaa7cd2824a4fd1f19d929793a70d8e8afb863989[ALL] 033c3e6e99159c9288e58b412f30b2b6d0fd3f05d9b49f2865e17437a457b6c1d6"}, "vout": 91, "txid": "1e2cd34b79d1c369a107b445045cef5cb7598d0e06a9e0b6447c5cb571d04129"}, {"sequence": 4294967295, "scriptSig": {"hex": "483045022100dd4e35869401ccf5fb517a5f475895757b313579884b209a1c38ae51a9060f7a02203b94ba134b75cb524f646c8d5fc0c9b362d5aa9f980d32173ba6a220a68be5540121036109f00c063663356cd7c47784b6fdf10cca2ef1c3a3d4fe0d450dd13b1f1f1f", "asm": "3045022100dd4e35869401ccf5fb517a5f475895757b313579884b209a1c38ae51a9060f7a02203b94ba134b75cb524f646c8d5fc0c9b362d5aa9f980d32173ba6a220a68be554[ALL] 036109f00c063663356cd7c47784b6fdf10cca2ef1c3a3d4fe0d450dd13b1f1f1f"}, "vout": 10, "txid": "055d5e1455078c37b06d7fc1ba972df780aec0e70be91588a5c23ba5e2454805"}, {"sequence": 4294967295, "scriptSig": {"hex": "483045022100aff21cc276e75b60347e37699858fed4954a14c9f4e31a387c4c4933484212f7022069ec328730ad0d9dbed5cc509846516c28192c2e51dfe34520ae88a5396c9c530121036109f00c063663356cd7c47784b6fdf10cca2ef1c3a3d4fe0d450dd13b1f1f1f", "asm": "3045022100aff21cc276e75b60347e37699858fed4954a14c9f4e31a387c4c4933484212f7022069ec328730ad0d9dbed5cc509846516c28192c2e51dfe34520ae88a5396c9c53[ALL] 036109f00c063663356cd7c47784b6fdf10cca2ef1c3a3d4fe0d450dd13b1f1f1f"}, "vout": 10, "txid": "fd5d79ca60c23b8c116d92736698392d56b4d4732508193c469b36aece651f2e"}], "txid": "7e1e2c92593d3e3a06741481cc833bc357087453c630442ed2365902ceb514d7", "blocktime": 1537872475, "version": 1, "confirmations": 11486, "time": 1537872475, "locktime": 0, "vsize": 487, "size": 487}