{"hash": "cf404f88e07df85b913e612f986837f78518f9aefc60290d919866b602b43bef", "blockhash": "0000000000000000001e0dab787dd257d1dbfcb92a98c2207d5e1078be1f4165", "vout": [{"scriptPubKey": {"reqSigs": 1, "hex": "76a91421947bd0f17e7f95ccde1218ba40e8e524b120f388ac", "addresses": ["144ZBA2xwTtArt3XsfDXavZjegiUh9XE8i"], "asm": "OP_DUP OP_HASH160 21947bd0f17e7f95ccde1218ba40e8e524b120f3 OP_EQUALVERIFY OP_CHECKSIG", "type": "pubkeyhash"}, "value": 0.49953136, "n": 0}, {"scriptPubKey": {"reqSigs": 1, "hex": "a914028250d5e965f1af74c3ded14147f1c04dd46beb87", "addresses": ["31vHPRdRGkEf8UDJAosgj1Ahkb12VJ8TgC"], "asm": "OP_HASH160 028250d5e965f1af74c3ded14147f1c04dd46beb OP_EQUAL", "type": "scripthash"}, "value": 4.17772601, "n": 1}, {"scriptPubKey": {"reqSigs": 1, "hex": "a91474ed9bbc227e05ff668a9c271ad9b071cdaa977c87", "addresses": ["3CMGx7WAnmAmBgE4j4SU2e4tdGT77acNjp"], "asm": "OP_HASH160 74ed9bbc227e05ff668a9c271ad9b071cdaa977c OP_EQUAL", "type": "scripthash"}, "value": 0.094907, "n": 2}], "hex": "020000000001016ef22b07769b81d38ab74908eb9039feafdff720c84d02e171f55b840b71308d0300000017160014e9e43d12918176e97ab067d1fdb85b68700925e0feffffff037039fa02000000001976a91421947bd0f17e7f95ccde1218ba40e8e524b120f388ac39b4e6180000000017a914028250d5e965f1af74c3ded14147f1c04dd46beb870cd190000000000017a91474ed9bbc227e05ff668a9c271ad9b071cdaa977c870247304402206b561a8dae9e71ed66dc4fdd5ba005793059ffc45fc695c0ecd9b3d1b95de70e02203c65a119158b82a556164203bdb34d8e5922152c9b487eca70d739d4ee32591501210215b85ffc545fd622b274d8907de32065e1e423d61f5298b0c48f23f084ff7bb812490800", "vin": [{"txinwitness": ["304402206b561a8dae9e71ed66dc4fdd5ba005793059ffc45fc695c0ecd9b3d1b95de70e02203c65a119158b82a556164203bdb34d8e5922152c9b487eca70d739d4ee32591501", "0215b85ffc545fd622b274d8907de32065e1e423d61f5298b0c48f23f084ff7bb8"], "sequence": 4294967294, "scriptSig": {"hex": "160014e9e43d12918176e97ab067d1fdb85b68700925e0", "asm": "0014e9e43d12918176e97ab067d1fdb85b68700925e0"}, "vout": 3, "txid": "8d30710b845bf571e1024dc820f7dfaffe3990eb0849b78ad3819b76072bf26e"}], "txid": "7e20544e1d25ddf96d0111a1a9cdfe8a43ae9925348915a3818f90f4c255ddf3", "blocktime": 1537872475, "version": 2, "confirmations": 11486, "time": 1537872475, "locktime": 542994, "vsize": 200, "size": 281}