{"hash": "7e212efc11a3fac94cb4e215bbd49b6e49ec4b1ca175dd6fd4ce9cc30586e94f", "blockhash": "0000000000000000000e13cef7c366c0283d82e591d1acd082e914b08063cdf1", "vout": [{"scriptPubKey": {"type": "nulldata", "hex": "6a146f6d6e69000000000000001f0000002e90edd000", "asm": "OP_RETURN 6f6d6e69000000000000001f0000002e90edd000"}, "value": 0.0, "n": 0}, {"scriptPubKey": {"reqSigs": 1, "hex": "76a914a25dec4d0011064ef106a983c39c7a540699f22088ac", "addresses": ["1FoWyxwPXuj4C6abqwhjDWdz6D4PZgYRjA"], "asm": "OP_DUP OP_HASH160 a25dec4d0011064ef106a983c39c7a540699f220 OP_EQUALVERIFY OP_CHECKSIG", "type": "pubkeyhash"}, "value": 0.01966426, "n": 1}, {"scriptPubKey": {"reqSigs": 1, "hex": "76a914d782e18499e7c7732e23b508e8c6801c37348b3d88ac", "addresses": ["1LeX51aUnCnBQBwqbFkZSzrcMvQeCXVNCA"], "asm": "OP_DUP OP_HASH160 d782e18499e7c7732e23b508e8c6801c37348b3d OP_EQUALVERIFY OP_CHECKSIG", "type": "pubkeyhash"}, "value": 5.46e-06, "n": 2}], "hex": "01000000015cd751bfa105e40b5ca718e706a3ed2e6520480b05ac6bb1f3fba45b70acb28e010000006a47304402200bfa9d90110a306ced36265b2ab2decc8fd99606af26a274f8bddf805a6d7e5e0220162e6a0b4f7e5ca83818fe4e502ad4ee554b13eaf61170a4e4d126c1957409bd012103da5bac7b36d5aa38f531c6b9601e21bb598a4b6716ebed38b009a55dabde9440feffffff030000000000000000166a146f6d6e69000000000000001f0000002e90edd0005a011e00000000001976a914a25dec4d0011064ef106a983c39c7a540699f22088ac22020000000000001976a914d782e18499e7c7732e23b508e8c6801c37348b3d88ac10490800", "vin": [{"sequence": 4294967294, "scriptSig": {"hex": "47304402200bfa9d90110a306ced36265b2ab2decc8fd99606af26a274f8bddf805a6d7e5e0220162e6a0b4f7e5ca83818fe4e502ad4ee554b13eaf61170a4e4d126c1957409bd012103da5bac7b36d5aa38f531c6b9601e21bb598a4b6716ebed38b009a55dabde9440", "asm": "304402200bfa9d90110a306ced36265b2ab2decc8fd99606af26a274f8bddf805a6d7e5e0220162e6a0b4f7e5ca83818fe4e502ad4ee554b13eaf61170a4e4d126c1957409bd[ALL] 03da5bac7b36d5aa38f531c6b9601e21bb598a4b6716ebed38b009a55dabde9440"}, "vout": 1, "txid": "8eb2ac705ba4fbf3b16bac050b4820652eeda306e718a75c0be405a1bf51d75c"}], "txid": "7e212efc11a3fac94cb4e215bbd49b6e49ec4b1ca175dd6fd4ce9cc30586e94f", "blocktime": 1537871767, "version": 1, "confirmations": 11490, "time": 1537871767, "locktime": 542992, "vsize": 256, "size": 256}