{"hash": "3aa9a06a1a0568e2e47c4c66ae7885161e147b99ffeea43eb30e99b415d38a86", "blockhash": "00000000000000000024a2167bbff67b0be802c0b01cdd79e6331c2be6459f87", "vout": [{"scriptPubKey": {"reqSigs": 1, "hex": "a9143114d7505395a22bfbccb67cfae21239e738068b87", "addresses": ["36AY11KZgo8wqyQYiJRZAHvpeHdM7erpC3"], "asm": "OP_HASH160 3114d7505395a22bfbccb67cfae21239e738068b OP_EQUAL", "type": "scripthash"}, "value": 0.00015682, "n": 0}, {"scriptPubKey": {"reqSigs": 1, "hex": "a91432072553c1d13bea07b6aac18d09c879b2bc914a87", "addresses": ["36FYGdmkJNhHkEtbNyr8hWDKvGffZFKPCp"], "asm": "OP_HASH160 32072553c1d13bea07b6aac18d09c879b2bc914a OP_EQUAL", "type": "scripthash"}, "value": 0.003837, "n": 1}], "hex": "010000000001015a6b2be2066d41103242dc7e5c338785ab6657b0535b81c75d5fa17aa31875180000000023220020b58b29a5c7a4beb628a03f2da5849859aaa374ee7a2998f1dadeb6ca3fd7e9a0ffffffff02423d00000000000017a9143114d7505395a22bfbccb67cfae21239e738068b87d4da05000000000017a91432072553c1d13bea07b6aac18d09c879b2bc914a870400473044022024ec874774cb078b6fc17308929931a9ce297b69d084df9ddec29afd9689bcaf02207b53edbdf660f6e08db0bb3d98ec7a328c06fb9241556b9c9d012a52e52ce9d001483045022100c3aca48475739e068744cd86a2681eea21c5e11548dec28db23ee5ae8db5b42c02201e069afcf404be02b54eae9536f1f2ba80973f784fb929fbf02f5d128c496d930147522102ae69da8d7e68d58540f59af96793d6c611a658a3a5ca15ed11521fad83e95c272103871fc2ca08e6950b38867e8e6a0e94ee625223d3aa0df5c65f414c6d784467e252ae00000000", "vin": [{"txinwitness": ["", "3044022024ec874774cb078b6fc17308929931a9ce297b69d084df9ddec29afd9689bcaf02207b53edbdf660f6e08db0bb3d98ec7a328c06fb9241556b9c9d012a52e52ce9d001", "3045022100c3aca48475739e068744cd86a2681eea21c5e11548dec28db23ee5ae8db5b42c02201e069afcf404be02b54eae9536f1f2ba80973f784fb929fbf02f5d128c496d9301", "522102ae69da8d7e68d58540f59af96793d6c611a658a3a5ca15ed11521fad83e95c272103871fc2ca08e6950b38867e8e6a0e94ee625223d3aa0df5c65f414c6d784467e252ae"], "sequence": 4294967295, "scriptSig": {"hex": "220020b58b29a5c7a4beb628a03f2da5849859aaa374ee7a2998f1dadeb6ca3fd7e9a0", "asm": "0020b58b29a5c7a4beb628a03f2da5849859aaa374ee7a2998f1dadeb6ca3fd7e9a0"}, "vout": 0, "txid": "187518a37aa15f5dc7815b53b05766ab8587335c7edc423210416d06e22b6b5a"}], "txid": "7e2627ec6bf63c8449f1f85df40351c4bdc9c844659cdba1b0d25ab03b76ef46", "blocktime": 1537870564, "version": 1, "confirmations": 11515, "time": 1537870564, "locktime": 0, "vsize": 206, "size": 371}