{"hash": "7926553ead0bba15a3dcae54694640a94f5720128ad8cdd3beaf7840997e9083", "blockhash": "0000000000000000000baef3f32e3676a92c3b2e5da21b426e4f302fc371ce76", "vout": [{"scriptPubKey": {"reqSigs": 1, "hex": "76a914db861fca3c3db890b2a25ea3d8ede12b7b43982588ac", "addresses": ["1M1jf86CqDa3NXUH849gcVgejC1hSKvdBh"], "asm": "OP_DUP OP_HASH160 db861fca3c3db890b2a25ea3d8ede12b7b439825 OP_EQUALVERIFY OP_CHECKSIG", "type": "pubkeyhash"}, "value": 0.0021346, "n": 0}, {"scriptPubKey": {"reqSigs": 1, "hex": "a9148f8c1c5a1f9647d5ef428ce62cca72c624e5d13987", "addresses": ["3En2Q3LVQUDxXXsLtJfU6GnYoz1Jt3SDZC"], "asm": "OP_HASH160 8f8c1c5a1f9647d5ef428ce62cca72c624e5d139 OP_EQUAL", "type": "scripthash"}, "value": 0.01040644, "n": 1}], "hex": "020000000001020a7bbcbf583ad249cd459eeb94b53305e3caf640065be5457ed3bd12f79886b0000000001716001444af53eaf5be3a56585e0579269875f957e0cd45feffffff3a9b0476d9d2852bed43764a475eeca26f376c7b97b4b2c67f09ae66578b81ce0800000017160014d2705e9a03c4cfec31cdc9e3fa5dbfc73ccf74d7feffffff02d4410300000000001976a914db861fca3c3db890b2a25ea3d8ede12b7b43982588ac04e10f000000000017a9148f8c1c5a1f9647d5ef428ce62cca72c624e5d139870248304502210090051c575b51cd0319c526142f0ee7b50c904fb407c775ce28f20101a6895fe6022051150f65ab6e43c25c86d178e02386cb32a8b089fbb5be33207f9468a3512f6a0121025da37600239a8d35215af146c558bb55381fcd13d2ae9be5fe095effedee6ba50247304402202f348cb1011de1039785a62ba7c74ba269c93b6308f705360f5b3b28315cd087022029993b16b7f299ac16090a046f26d302bbfa6adba549b1f3e729e27447a41642012102b4d8130c20381e5d1d811369fa324fbf0287f5b50b298a71509276b01f68933f17490800", "vin": [{"txinwitness": ["304502210090051c575b51cd0319c526142f0ee7b50c904fb407c775ce28f20101a6895fe6022051150f65ab6e43c25c86d178e02386cb32a8b089fbb5be33207f9468a3512f6a01", "025da37600239a8d35215af146c558bb55381fcd13d2ae9be5fe095effedee6ba5"], "sequence": 4294967294, "scriptSig": {"hex": "16001444af53eaf5be3a56585e0579269875f957e0cd45", "asm": "001444af53eaf5be3a56585e0579269875f957e0cd45"}, "vout": 0, "txid": "b08698f712bdd37e45e55b0640f6cae30533b594eb9e45cd49d23a58bfbc7b0a"}, {"txinwitness": ["304402202f348cb1011de1039785a62ba7c74ba269c93b6308f705360f5b3b28315cd087022029993b16b7f299ac16090a046f26d302bbfa6adba549b1f3e729e27447a4164201", "02b4d8130c20381e5d1d811369fa324fbf0287f5b50b298a71509276b01f68933f"], "sequence": 4294967294, "scriptSig": {"hex": "160014d2705e9a03c4cfec31cdc9e3fa5dbfc73ccf74d7", "asm": "0014d2705e9a03c4cfec31cdc9e3fa5dbfc73ccf74d7"}, "vout": 8, "txid": "ce818b5766ae097fc6b2b4977b6c376fa2ec5e474a7643ed2b85d2d976049b3a"}], "txid": "7e2887b7562a19874721353ef030aed022dc11dc864c65d9c5bbd61e57d2b093", "blocktime": 1537876114, "version": 2, "confirmations": 11462, "time": 1537876114, "locktime": 542999, "vsize": 259, "size": 421}