{"hash": "7e2f7f16f5b33721658b43eb96cea0593948b04d3aa69496b581f0774d25bf74", "blockhash": "00000000000000000018f53835495a110e01622372bf6ae95dc86f2b0ab887b0", "vout": [{"scriptPubKey": {"reqSigs": 1, "hex": "76a914d243e6abb9a60fbff430b421d2df4b7d59ec186088ac", "addresses": ["1LAnF8h3qMGx3TSwNUHVneBZUEpwE4gu3D"], "asm": "OP_DUP OP_HASH160 d243e6abb9a60fbff430b421d2df4b7d59ec1860 OP_EQUALVERIFY OP_CHECKSIG", "type": "pubkeyhash"}, "value": 0.00076972, "n": 0}, {"scriptPubKey": {"reqSigs": 1, "hex": "76a9143851f34d13937b673a7d24a1950bb5b21ce94af388ac", "addresses": ["168o1kqNquEJeR9vosUB5fw4eAwcVAgh8P"], "asm": "OP_DUP OP_HASH160 3851f34d13937b673a7d24a1950bb5b21ce94af3 OP_EQUALVERIFY OP_CHECKSIG", "type": "pubkeyhash"}, "value": 5.46e-06, "n": 1}, {"scriptPubKey": {"type": "nulldata", "hex": "6a146f6d6e69000000000000001f0000001ccd183500", "asm": "OP_RETURN 6f6d6e69000000000000001f0000001ccd183500"}, "value": 0.0, "n": 2}], "hex": "0100000002b4924ea1cab7c02b6800b2b936048548239cedb9933c2dea62573346c648c9c3020000006a47304402203adfebc25c668b83c9b73f9761a6ebe746f357ee24478a6afd8834dfb9a46a5402201b9808fee7d777a293d9f3a27b146e7f9ec93f40da0934ddf7e6511fdeab88e40121031acbe2c161fe50f1522aac7eeac304118f0abbd2f032f24347a1a77c2e98ed70ffffffff4aaf63c4fdfd9e9e33eaa818bf5587ca204a8d61a608bfb921e5439342551534000000006a47304402205f4ccded27cfb638e047fa32452bfa529ea75eab2e777fa8df6d8b69039ce6f902204b82bab7033e0fb60026a7919ccca2b96362db41c66cdecf51b2c5ae2b5270db01210271977291b74f1f5f5c42157e8aae804664eaaeccfd097918450d37f28fb94d77ffffffff03ac2c0100000000001976a914d243e6abb9a60fbff430b421d2df4b7d59ec186088ac22020000000000001976a9143851f34d13937b673a7d24a1950bb5b21ce94af388ac0000000000000000166a146f6d6e69000000000000001f0000001ccd18350000000000", "vin": [{"sequence": 4294967295, "scriptSig": {"hex": "47304402203adfebc25c668b83c9b73f9761a6ebe746f357ee24478a6afd8834dfb9a46a5402201b9808fee7d777a293d9f3a27b146e7f9ec93f40da0934ddf7e6511fdeab88e40121031acbe2c161fe50f1522aac7eeac304118f0abbd2f032f24347a1a77c2e98ed70", "asm": "304402203adfebc25c668b83c9b73f9761a6ebe746f357ee24478a6afd8834dfb9a46a5402201b9808fee7d777a293d9f3a27b146e7f9ec93f40da0934ddf7e6511fdeab88e4[ALL] 031acbe2c161fe50f1522aac7eeac304118f0abbd2f032f24347a1a77c2e98ed70"}, "vout": 2, "txid": "c3c948c646335762ea2d3c93b9ed9c2348850436b9b200682bc0b7caa14e92b4"}, {"sequence": 4294967295, "scriptSig": {"hex": "47304402205f4ccded27cfb638e047fa32452bfa529ea75eab2e777fa8df6d8b69039ce6f902204b82bab7033e0fb60026a7919ccca2b96362db41c66cdecf51b2c5ae2b5270db01210271977291b74f1f5f5c42157e8aae804664eaaeccfd097918450d37f28fb94d77", "asm": "304402205f4ccded27cfb638e047fa32452bfa529ea75eab2e777fa8df6d8b69039ce6f902204b82bab7033e0fb60026a7919ccca2b96362db41c66cdecf51b2c5ae2b5270db[ALL] 0271977291b74f1f5f5c42157e8aae804664eaaeccfd097918450d37f28fb94d77"}, "vout": 0, "txid": "341555429343e521b9bf08a6618d4a20ca8755bf18a8ea339e9efdfdc463af4a"}], "txid": "7e2f7f16f5b33721658b43eb96cea0593948b04d3aa69496b581f0774d25bf74", "blocktime": 1537870928, "version": 1, "confirmations": 11512, "time": 1537870928, "locktime": 0, "vsize": 403, "size": 403}