{"hash": "32a257df886a07694cf735c8c7a3010c5db4332cf42710554f06fa3fc812b0d1", "blockhash": "00000000000000000018f53835495a110e01622372bf6ae95dc86f2b0ab887b0", "vout": [{"scriptPubKey": {"reqSigs": 1, "hex": "76a914ed42dbaa1fac35944b4236389e38b99af1ade64388ac", "addresses": ["1NdXEqvoQ5QuMe5K9EgcujmSdjTWRyaVYL"], "asm": "OP_DUP OP_HASH160 ed42dbaa1fac35944b4236389e38b99af1ade643 OP_EQUALVERIFY OP_CHECKSIG", "type": "pubkeyhash"}, "value": 0.00038, "n": 0}, {"scriptPubKey": {"reqSigs": 1, "hex": "a9141988a27e3c2df4ddee7fad5a2303d086179b2a3087", "addresses": ["3422VtS7UtCvXYxoXMVp6eZupR252z85oC"], "asm": "OP_HASH160 1988a27e3c2df4ddee7fad5a2303d086179b2a30 OP_EQUAL", "type": "scripthash"}, "value": 2.34635258, "n": 1}], "hex": "010000000001012052de27bd2fb817190d5c03d34e7f7f6519b31bd13e4d84d75dec503956617d010000002322002065d416c48a8072e0ac51c2d111eb194f009caef0332446c1bf2097316cf07fa9ffffffff0270940000000000001976a914ed42dbaa1fac35944b4236389e38b99af1ade64388acfa3ffc0d0000000017a9141988a27e3c2df4ddee7fad5a2303d086179b2a30870400473044022007937ca1cee08638fca0bb8b7044a7b4731e402239f54338f8df318820463b9902203343713f4f7776a0e121e8bb4ad66ac5a919c60ed433bbad501c3b130686e78401483045022100d9f074049fb806ba6425358111fd435ed11deb4014c1c55c3c60bd8031e9f43b02202b9d50fd44de97ce2d6c902b5ee85f246f29ba0c1e0c54913edf7a77ce9caf950169522102f44abcf9e23c9a460da309ccca56c619c04eed3bde2c2cff5e7d78fbcd980b9c2103c9443cf3047bb6c2c82f1b0c44c36109cdc3d0d601d16d1189a1602bf8d1a0a02103bfe867059274412412e088af5572b92168c2ef495cfe6c9b7a753a009eb37c4853ae00000000", "vin": [{"txinwitness": ["", "3044022007937ca1cee08638fca0bb8b7044a7b4731e402239f54338f8df318820463b9902203343713f4f7776a0e121e8bb4ad66ac5a919c60ed433bbad501c3b130686e78401", "3045022100d9f074049fb806ba6425358111fd435ed11deb4014c1c55c3c60bd8031e9f43b02202b9d50fd44de97ce2d6c902b5ee85f246f29ba0c1e0c54913edf7a77ce9caf9501", "522102f44abcf9e23c9a460da309ccca56c619c04eed3bde2c2cff5e7d78fbcd980b9c2103c9443cf3047bb6c2c82f1b0c44c36109cdc3d0d601d16d1189a1602bf8d1a0a02103bfe867059274412412e088af5572b92168c2ef495cfe6c9b7a753a009eb37c4853ae"], "sequence": 4294967295, "scriptSig": {"hex": "22002065d416c48a8072e0ac51c2d111eb194f009caef0332446c1bf2097316cf07fa9", "asm": "002065d416c48a8072e0ac51c2d111eb194f009caef0332446c1bf2097316cf07fa9"}, "vout": 1, "txid": "7d61563950ec5dd7844d3ed11bb319657f7f4ed3035c0d1917b82fbd27de5220"}], "txid": "7e34420735d8f8a2f35f753d1068957542f7c734d7e8e8ca2a4deb2ec9c771d7", "blocktime": 1537870928, "version": 1, "confirmations": 11512, "time": 1537870928, "locktime": 0, "vsize": 216, "size": 407}