{"hash": "7e38246941c35aa6a9b567ed6f3c58bde6721293edbccb46fcecf18080d16b55", "blockhash": "0000000000000000000e13cef7c366c0283d82e591d1acd082e914b08063cdf1", "vout": [{"scriptPubKey": {"reqSigs": 1, "hex": "76a9145f2b13a53b12fa45ca3de1a2e2793179e866344188ac", "addresses": ["19gCoFQ8Pw41DJXUnNE8usdbEj3XzPtWmr"], "asm": "OP_DUP OP_HASH160 5f2b13a53b12fa45ca3de1a2e2793179e8663441 OP_EQUALVERIFY OP_CHECKSIG", "type": "pubkeyhash"}, "value": 0.00123394, "n": 0}, {"scriptPubKey": {"reqSigs": 1, "hex": "a91400acb05395e85775d93358099bf021ea26acaf5587", "addresses": ["31kaoApsZM4BsJq4fuzkwH6LrF6dJUJQ5S"], "asm": "OP_HASH160 00acb05395e85775d93358099bf021ea26acaf55 OP_EQUAL", "type": "scripthash"}, "value": 0.00122341, "n": 1}, {"scriptPubKey": {"reqSigs": 1, "hex": "76a914eb8682e307b303bfa38462b643554cc7d1b42a2e88ac", "addresses": ["1NULw65MQM6KuBob1JN4puoANCww6J1JGx"], "asm": "OP_DUP OP_HASH160 eb8682e307b303bfa38462b643554cc7d1b42a2e OP_EQUALVERIFY OP_CHECKSIG", "type": "pubkeyhash"}, "value": 0.00126597, "n": 2}, {"scriptPubKey": {"reqSigs": 1, "hex": "76a9149721304d36f31f6070a4e240ff3a2446474ddcf488ac", "addresses": ["1En6nxTbVmmbKKEguVX3hwFLNSLNyS4Qf4"], "asm": "OP_DUP OP_HASH160 9721304d36f31f6070a4e240ff3a2446474ddcf4 OP_EQUALVERIFY OP_CHECKSIG", "type": "pubkeyhash"}, "value": 0.00124793, "n": 3}, {"scriptPubKey": {"reqSigs": 1, "hex": "76a914119d97f34212c916b6c0653dd606bf50415e0e2988ac", "addresses": ["12c9H46NboDuphjyPJcZ8XJsL2dFAwkZuD"], "asm": "OP_DUP OP_HASH160 119d97f34212c916b6c0653dd606bf50415e0e29 OP_EQUALVERIFY OP_CHECKSIG", "type": "pubkeyhash"}, "value": 0.00122826, "n": 4}, {"scriptPubKey": {"reqSigs": 1, "hex": "76a91441d1310af9da3aaf00e695f8a5a6dfd4ecacaf1b88ac", "addresses": ["1711XMYym2px4p91jCtzBrM5QbqBdwHE8B"], "asm": "OP_DUP OP_HASH160 41d1310af9da3aaf00e695f8a5a6dfd4ecacaf1b OP_EQUALVERIFY OP_CHECKSIG", "type": "pubkeyhash"}, "value": 0.16833276, "n": 5}, {"scriptPubKey": {"reqSigs": 1, "hex": "76a91422d42b2813caea73202615aa1a1e1ebca24f213b88ac", "addresses": ["14BA9FiDfv5CUBR2KSTsemrtRj78ACJHQ1"], "asm": "OP_DUP OP_HASH160 22d42b2813caea73202615aa1a1e1ebca24f213b OP_EQUALVERIFY OP_CHECKSIG", "type": "pubkeyhash"}, "value": 0.00126448, "n": 6}, {"scriptPubKey": {"reqSigs": 1, "hex": "76a91460c6c7a52485b2579b017e01be022028a85e906b88ac", "addresses": ["19phztCfGM96GJf1kFhbWKEpejLJgTtpKT"], "asm": "OP_DUP OP_HASH160 60c6c7a52485b2579b017e01be022028a85e906b OP_EQUALVERIFY OP_CHECKSIG", "type": "pubkeyhash"}, "value": 0.00124125, "n": 7}, {"scriptPubKey": {"reqSigs": 1, "hex": "76a914ada48082ed00bee9a431a2753ce34b4f01429f8288ac", "addresses": ["1Gq8xzBPGsZZKujgxy7wsZeKtJxUjMLVdr"], "asm": "OP_DUP OP_HASH160 ada48082ed00bee9a431a2753ce34b4f01429f82 OP_EQUALVERIFY OP_CHECKSIG", "type": "pubkeyhash"}, "value": 0.00125418, "n": 8}, {"scriptPubKey": {"reqSigs": 1, "hex": "76a91491d5486256450323f8a633e035711f2b15de03a288ac", "addresses": ["1EJ6Uxiqcbf6McMoA8NWCzbWfuyaBvfqh4"], "asm": "OP_DUP OP_HASH160 91d5486256450323f8a633e035711f2b15de03a2 OP_EQUALVERIFY OP_CHECKSIG", "type": "pubkeyhash"}, "value": 0.00125111, "n": 9}, {"scriptPubKey": {"reqSigs": 1, "hex": "76a914dd66c33fe692c31b2a4a94e72588451bb189e77288ac", "addresses": ["1MBfSUMfrt32pjBMvHk8RweAqhDSqpz4Xv"], "asm": "OP_DUP OP_HASH160 dd66c33fe692c31b2a4a94e72588451bb189e772 OP_EQUALVERIFY OP_CHECKSIG", "type": "pubkeyhash"}, "value": 0.0012309, "n": 10}, {"scriptPubKey": {"reqSigs": 1, "hex": "a9140f17cdeb58d9422c642d3176e6abdf1069d5032587", "addresses": ["334paNsqX72SeoSzbKyhKu8pW2Jw8APYox"], "asm": "OP_HASH160 0f17cdeb58d9422c642d3176e6abdf1069d50325 OP_EQUAL", "type": "scripthash"}, "value": 0.00122555, "n": 11}, {"scriptPubKey": {"reqSigs": 1, "hex": "76a914d6f62141b14b44b8916f7ca2c17ce9a1db28ded788ac", "addresses": ["1LbcTTYGMxAFKCiw5VyJ8fDCcKVQNtMArY"], "asm": "OP_DUP OP_HASH160 d6f62141b14b44b8916f7ca2c17ce9a1db28ded7 OP_EQUALVERIFY OP_CHECKSIG", "type": "pubkeyhash"}, "value": 0.00123488, "n": 12}, {"scriptPubKey": {"reqSigs": 1, "hex": "76a914e08dd3b902322f06d8dae79fd8e12e729ee5834888ac", "addresses": ["1MULGHZsRy36sM5wADa9VMn5AKpjEnocoX"], "asm": "OP_DUP OP_HASH160 e08dd3b902322f06d8dae79fd8e12e729ee58348 OP_EQUALVERIFY OP_CHECKSIG", "type": "pubkeyhash"}, "value": 0.00121364, "n": 13}, {"scriptPubKey": {"reqSigs": 1, "hex": "76a9145b961186288e02c51dec3d33d4f5d3581ea1cd7188ac", "addresses": ["19MGGPwUQRLKVa37JbsdEiETDy5tTzRRPY"], "asm": "OP_DUP OP_HASH160 5b961186288e02c51dec3d33d4f5d3581ea1cd71 OP_EQUALVERIFY OP_CHECKSIG", "type": "pubkeyhash"}, "value": 0.00121026, "n": 14}, {"scriptPubKey": {"reqSigs": 1, "hex": "76a914937e8022bae902915f746c3e34cdbbff729dd5e088ac", "addresses": ["1ESsscNyY8gB7Tq83bBbPkkkP7y9qDbhDm"], "asm": "OP_DUP OP_HASH160 937e8022bae902915f746c3e34cdbbff729dd5e0 OP_EQUALVERIFY OP_CHECKSIG", "type": "pubkeyhash"}, "value": 0.00123218, "n": 15}, {"scriptPubKey": {"reqSigs": 1, "hex": "76a9149b621a8b2e167fddf47d83f0f275378a0bcf7ef288ac", "addresses": ["1FAbG6eRik68R3wkppHi1TivFSTsfdZJod"], "asm": "OP_DUP OP_HASH160 9b621a8b2e167fddf47d83f0f275378a0bcf7ef2 OP_EQUALVERIFY OP_CHECKSIG", "type": "pubkeyhash"}, "value": 0.00124691, "n": 16}, {"scriptPubKey": {"reqSigs": 1, "hex": "76a91476c000c557fe3b33e726e8ca5eec7e540d26fbc788ac", "addresses": ["1BptkEsHYka7RkebZSAkAZ2vXPf7yhQr3g"], "asm": "OP_DUP OP_HASH160 76c000c557fe3b33e726e8ca5eec7e540d26fbc7 OP_EQUALVERIFY OP_CHECKSIG", "type": "pubkeyhash"}, "value": 0.00122542, "n": 17}, {"scriptPubKey": {"reqSigs": 1, "hex": "76a914be1b4dfadb4b7aa86f6759970f97d3775e21f13e88ac", "addresses": ["1JLC6c79AgS5gKD6q43YNKPzkze45VGgjx"], "asm": "OP_DUP OP_HASH160 be1b4dfadb4b7aa86f6759970f97d3775e21f13e OP_EQUALVERIFY OP_CHECKSIG", "type": "pubkeyhash"}, "value": 0.00122555, "n": 18}, {"scriptPubKey": {"reqSigs": 1, "hex": "76a9140c1296d81adc8a73aa5a7a0282ea428f53ba4c4b88ac", "addresses": ["126qNuUGGLVKpHBMJHeVh9YiQ6Xdxu8Vbm"], "asm": "OP_DUP OP_HASH160 0c1296d81adc8a73aa5a7a0282ea428f53ba4c4b OP_EQUALVERIFY OP_CHECKSIG", "type": "pubkeyhash"}, "value": 0.00124751, "n": 19}, {"scriptPubKey": {"reqSigs": 1, "hex": "76a91413f7e675848c693ab450bbb3e7090ed04b0a8c8988ac", "addresses": ["12pap4BFERPbXSiwDfrd2d9tPUYDe4BVGH"], "asm": "OP_DUP OP_HASH160 13f7e675848c693ab450bbb3e7090ed04b0a8c89 OP_EQUALVERIFY OP_CHECKSIG", "type": "pubkeyhash"}, "value": 0.00124591, "n": 20}, {"scriptPubKey": {"reqSigs": 1, "hex": "76a914c6c1c74b346d5d0a19811d9e39d7a2cb75473ef388ac", "addresses": ["1K7vvwzCLHXFLwFc4FLZX7cyJDSExYxr6L"], "asm": "OP_DUP OP_HASH160 c6c1c74b346d5d0a19811d9e39d7a2cb75473ef3 OP_EQUALVERIFY OP_CHECKSIG", "type": "pubkeyhash"}, "value": 0.00125456, "n": 21}, {"scriptPubKey": {"reqSigs": 1, "hex": "76a9145bf54fbd2a2af41fd5af3ec0f5a2dcf84b31833688ac", "addresses": ["19PEMzpysia4VMzke6mk4nb6emi7RrBUj7"], "asm": "OP_DUP OP_HASH160 5bf54fbd2a2af41fd5af3ec0f5a2dcf84b318336 OP_EQUALVERIFY OP_CHECKSIG", "type": "pubkeyhash"}, "value": 0.00123637, "n": 22}, {"scriptPubKey": {"reqSigs": 1, "hex": "76a914871c03991e9c4d85e09386918ae2f72fa087d9da88ac", "addresses": ["1DKPnMAwiGXBGJuuaetfXQko66Zm6Pq1Cg"], "asm": "OP_DUP OP_HASH160 871c03991e9c4d85e09386918ae2f72fa087d9da OP_EQUALVERIFY OP_CHECKSIG", "type": "pubkeyhash"}, "value": 0.00125563, "n": 23}, {"scriptPubKey": {"reqSigs": 1, "hex": "a9142039c82a0ccc04b4514a6b0361f73af499b681c787", "addresses": ["34dQmSPWK8NYVnrPEHfsPrvFeKissLwAeD"], "asm": "OP_HASH160 2039c82a0ccc04b4514a6b0361f73af499b681c7 OP_EQUAL", "type": "scripthash"}, "value": 0.00138197, "n": 24}, {"scriptPubKey": {"reqSigs": 1, "hex": "76a914a438fa2f1b8e9cea5181c2169ea2b1e84381caaf88ac", "addresses": ["1FyL5K3XopVePcXac4MHNY2D98aaEJDtDp"], "asm": "OP_DUP OP_HASH160 a438fa2f1b8e9cea5181c2169ea2b1e84381caaf OP_EQUALVERIFY OP_CHECKSIG", "type": "pubkeyhash"}, "value": 0.00122888, "n": 25}, {"scriptPubKey": {"reqSigs": 1, "hex": "a91442a5c9bdc22cba6b5c04b6291c87143a63535cd087", "addresses": ["37mR8MrSPtUjPXRLedYTFgnUfCJj7DcjwX"], "asm": "OP_HASH160 42a5c9bdc22cba6b5c04b6291c87143a63535cd0 OP_EQUAL", "type": "scripthash"}, "value": 0.0012152, "n": 26}, {"scriptPubKey": {"reqSigs": 1, "hex": "76a914f72f7f71b8721303b0ec64a20dccb6ccfe95624888ac", "addresses": ["1PXzobApyhdWipMdrhRovPxWPCwwwik6QE"], "asm": "OP_DUP OP_HASH160 f72f7f71b8721303b0ec64a20dccb6ccfe956248 OP_EQUALVERIFY OP_CHECKSIG", "type": "pubkeyhash"}, "value": 0.00121155, "n": 27}, {"scriptPubKey": {"reqSigs": 1, "hex": "a914ea86ae22798777a6d637008303aa34563d32b0a087", "addresses": ["3P55PBEtxnpHmbWbqmyQ1dWiv5rd7niu3V"], "asm": "OP_HASH160 ea86ae22798777a6d637008303aa34563d32b0a0 OP_EQUAL", "type": "scripthash"}, "value": 0.00123943, "n": 28}, {"scriptPubKey": {"reqSigs": 1, "hex": "76a914b8d08ce1c85580f7f6b396fb69d5bd1ff578affc88ac", "addresses": ["1HrDAdNUsUWgtSVGzXA4B23DX72Y5FZd2K"], "asm": "OP_DUP OP_HASH160 b8d08ce1c85580f7f6b396fb69d5bd1ff578affc OP_EQUALVERIFY OP_CHECKSIG", "type": "pubkeyhash"}, "value": 0.00125585, "n": 29}, {"scriptPubKey": {"reqSigs": 1, "hex": "76a9149650b91a3f796065a29d8c0300c600ecd6306fdf88ac", "addresses": ["1Eho4WdakNveNYc8kZ8gtxuCsUpDVYYhv9"], "asm": "OP_DUP OP_HASH160 9650b91a3f796065a29d8c0300c600ecd6306fdf OP_EQUALVERIFY OP_CHECKSIG", "type": "pubkeyhash"}, "value": 0.00124519, "n": 30}, {"scriptPubKey": {"reqSigs": 1, "hex": "a91459a1c67ab40dd7ee552aeb7b4685c3563d4ddfca87", "addresses": ["39rwrxmEnXknJmiDmASc9xZ7ebQYx3jNLb"], "asm": "OP_HASH160 59a1c67ab40dd7ee552aeb7b4685c3563d4ddfca OP_EQUAL", "type": "scripthash"}, "value": 0.00120972, "n": 31}, {"scriptPubKey": {"reqSigs": 1, "hex": "a9142353620bf544347575506f5e499764ca32e8c99887", "addresses": ["34uoTovgHJnMUUjQzmm4UpFKgoUitytj7b"], "asm": "OP_HASH160 2353620bf544347575506f5e499764ca32e8c998 OP_EQUAL", "type": "scripthash"}, "value": 0.00125142, "n": 32}, {"scriptPubKey": {"reqSigs": 1, "hex": "a914bde07956073544dc14c2a8f9bc17cb5edd9c856187", "addresses": ["3JzzYXNeg5kY7xT9gNCFF8Dg2dx4Xt1YgW"], "asm": "OP_HASH160 bde07956073544dc14c2a8f9bc17cb5edd9c8561 OP_EQUAL", "type": "scripthash"}, "value": 0.00126336, "n": 33}, {"scriptPubKey": {"reqSigs": 1, "hex": "76a91488392b0ace61e66cac637cd17fc8e95b60f0729488ac", "addresses": ["1DRHPCdUb9wU1rh8YxqFgxUW6tdp9R6M3v"], "asm": "OP_DUP OP_HASH160 88392b0ace61e66cac637cd17fc8e95b60f07294 OP_EQUALVERIFY OP_CHECKSIG", "type": "pubkeyhash"}, "value": 0.00123566, "n": 34}, {"scriptPubKey": {"reqSigs": 1, "hex": "76a914be82946390590268b12c588f3bb34d17480643e388ac", "addresses": ["1JNKpHGfQ8hQPzZPYL26AmF8UjJVnng5T6"], "asm": "OP_DUP OP_HASH160 be82946390590268b12c588f3bb34d17480643e3 OP_EQUALVERIFY OP_CHECKSIG", "type": "pubkeyhash"}, "value": 0.00125462, "n": 35}, {"scriptPubKey": {"reqSigs": 1, "hex": "a91469cd3a7c59408f5c39c5c3428d39fe40e1edabb487", "addresses": ["3BLSjD6SBjsX4kTyR5CH7Ww4ajJrT3x6tR"], "asm": "OP_HASH160 69cd3a7c59408f5c39c5c3428d39fe40e1edabb4 OP_EQUAL", "type": "scripthash"}, "value": 0.00123165, "n": 36}, {"scriptPubKey": {"reqSigs": 1, "hex": "76a914dffd826644c879e4ccdb4b09e37a95934592801a88ac", "addresses": ["1MRMNvFsxSbpkVWWUEzCK9ES11eP3umFKf"], "asm": "OP_DUP OP_HASH160 dffd826644c879e4ccdb4b09e37a95934592801a OP_EQUALVERIFY OP_CHECKSIG", "type": "pubkeyhash"}, "value": 0.00124828, "n": 37}, {"scriptPubKey": {"reqSigs": 1, "hex": "76a914127066d171dadc964bceea5edc1fdf72b1fb58c188ac", "addresses": ["12gVpFoziyFUibssXnrchAWJi9wJ9KrQQt"], "asm": "OP_DUP OP_HASH160 127066d171dadc964bceea5edc1fdf72b1fb58c1 OP_EQUALVERIFY OP_CHECKSIG", "type": "pubkeyhash"}, "value": 0.00122405, "n": 38}, {"scriptPubKey": {"reqSigs": 1, "hex": "76a914995e47650ba2576e1d761589d2fdbcb445295c3188ac", "addresses": ["1EywKxniGkHYcuHK67nAweuwkDenFrMNrt"], "asm": "OP_DUP OP_HASH160 995e47650ba2576e1d761589d2fdbcb445295c31 OP_EQUALVERIFY OP_CHECKSIG", "type": "pubkeyhash"}, "value": 0.00125951, "n": 39}, {"scriptPubKey": {"reqSigs": 1, "hex": "76a9145f5ba4416167a57ecd9defe071dbf9dbd924dc7c88ac", "addresses": ["19hCybY7ubvVkFqM4zW41y2pcRi5KTr9vU"], "asm": "OP_DUP OP_HASH160 5f5ba4416167a57ecd9defe071dbf9dbd924dc7c OP_EQUALVERIFY OP_CHECKSIG", "type": "pubkeyhash"}, "value": 0.00125954, "n": 40}, {"scriptPubKey": {"reqSigs": 1, "hex": "a914124db79a79f267c820d6c60f3a017d012f24622887", "addresses": ["33MoBt8vwJp2UXJtek3sbRyUPCcXi6WQ5Q"], "asm": "OP_HASH160 124db79a79f267c820d6c60f3a017d012f246228 OP_EQUAL", "type": "scripthash"}, "value": 0.00123259, "n": 41}, {"scriptPubKey": {"reqSigs": 1, "hex": "a91499e3c93d46ac19b579bb6c25083ca87ed526ef5687", "addresses": ["3FiiBkPXMH8SDds4TJYYMX814uFi32CRCz"], "asm": "OP_HASH160 99e3c93d46ac19b579bb6c25083ca87ed526ef56 OP_EQUAL", "type": "scripthash"}, "value": 0.00122603, "n": 42}, {"scriptPubKey": {"reqSigs": 1, "hex": "76a914a8560dd7c7160216cb5fd68326495e3f8c7b4f0288ac", "addresses": ["1GM5cNRanMQaPLKdQM1DNPPRAbJkBqugKi"], "asm": "OP_DUP OP_HASH160 a8560dd7c7160216cb5fd68326495e3f8c7b4f02 OP_EQUALVERIFY OP_CHECKSIG", "type": "pubkeyhash"}, "value": 0.00124565, "n": 43}, {"scriptPubKey": {"reqSigs": 1, "hex": "a914c8828e2e23cf204d6cdee616510682ca9306c17887", "addresses": ["3KyDU4HahEPbf8MWLbAWuGGkAZmeGPvnfA"], "asm": "OP_HASH160 c8828e2e23cf204d6cdee616510682ca9306c178 OP_EQUAL", "type": "scripthash"}, "value": 0.00121794, "n": 44}, {"scriptPubKey": {"reqSigs": 1, "hex": "76a914a96e8ed2e99e4f7bd9ad243be9513bf009a74b8d88ac", "addresses": ["1GSse7ocEcecNZYRPqPZJNyUPU6NskADXF"], "asm": "OP_DUP OP_HASH160 a96e8ed2e99e4f7bd9ad243be9513bf009a74b8d OP_EQUALVERIFY OP_CHECKSIG", "type": "pubkeyhash"}, "value": 0.00123277, "n": 45}, {"scriptPubKey": {"reqSigs": 1, "hex": "76a9144f9713d572d09434925d0d39f2b0a0c42ccc7bf288ac", "addresses": ["18FqNChKfqAfS54mkP3ycBa9hwNzGTNs5E"], "asm": "OP_DUP OP_HASH160 4f9713d572d09434925d0d39f2b0a0c42ccc7bf2 OP_EQUALVERIFY OP_CHECKSIG", "type": "pubkeyhash"}, "value": 0.00126066, "n": 46}, {"scriptPubKey": {"reqSigs": 1, "hex": "76a914fff1a997ce6e7e2ea63e3e4a7da02ba793004b9a88ac", "addresses": ["1QLJovLwhcg9ukkkVnFBMytdzgn56qq5Uy"], "asm": "OP_DUP OP_HASH160 fff1a997ce6e7e2ea63e3e4a7da02ba793004b9a OP_EQUALVERIFY OP_CHECKSIG", "type": "pubkeyhash"}, "value": 0.00123814, "n": 47}, {"scriptPubKey": {"reqSigs": 1, "hex": "a9146d1f503f2d73e77ec4044a5d5570c76ef568918187", "addresses": ["3Be169hrSW7EzY9qEvTedohcCWbYQTLDRj"], "asm": "OP_HASH160 6d1f503f2d73e77ec4044a5d5570c76ef5689181 OP_EQUAL", "type": "scripthash"}, "value": 0.00123727, "n": 48}, {"scriptPubKey": {"reqSigs": 1, "hex": "76a914bc7d294ecdd6de8036b26fc6151815f57cb482eb88ac", "addresses": ["1JBdyRp3rMp38y5UQwerKZkh1w9DL97jYn"], "asm": "OP_DUP OP_HASH160 bc7d294ecdd6de8036b26fc6151815f57cb482eb OP_EQUALVERIFY OP_CHECKSIG", "type": "pubkeyhash"}, "value": 0.00124414, "n": 49}, {"scriptPubKey": {"reqSigs": 1, "hex": "a914bf0644b2eed4007bf34d7a182b2ec3f241fbdfc787", "addresses": ["3K74ViVyNmVipUTABFuUfNDfUnusjC1ism"], "asm": "OP_HASH160 bf0644b2eed4007bf34d7a182b2ec3f241fbdfc7 OP_EQUAL", "type": "scripthash"}, "value": 0.0012394, "n": 50}, {"scriptPubKey": {"reqSigs": 1, "hex": "76a9149e66b8ceccb226b92ec9e40f5510bdf1b47c78c588ac", "addresses": ["1FSYpZ32LRPPP8dzmqwFN22SeSGrdSaNt2"], "asm": "OP_DUP OP_HASH160 9e66b8ceccb226b92ec9e40f5510bdf1b47c78c5 OP_EQUALVERIFY OP_CHECKSIG", "type": "pubkeyhash"}, "value": 0.00121455, "n": 51}, {"scriptPubKey": {"reqSigs": 1, "hex": "a914b6ead3a3ab82efab7d6744efcb1d548543c1ded287", "addresses": ["3JNCDW8uohyg8tTgm95Pp49KbyViyrLH2V"], "asm": "OP_HASH160 b6ead3a3ab82efab7d6744efcb1d548543c1ded2 OP_EQUAL", "type": "scripthash"}, "value": 0.00125945, "n": 52}, {"scriptPubKey": {"reqSigs": 1, "hex": "76a91469338043e8792153927dd8e56d2c10f979d1381188ac", "addresses": ["1AbFeVpePHMDRoBECb5UgRo8xgHHoLq3ot"], "asm": "OP_DUP OP_HASH160 69338043e8792153927dd8e56d2c10f979d13811 OP_EQUALVERIFY OP_CHECKSIG", "type": "pubkeyhash"}, "value": 0.00121348, "n": 53}, {"scriptPubKey": {"reqSigs": 1, "hex": "76a9149f2a3084e8af2625f7ac07a582db7f883e72e59088ac", "addresses": ["1FWayt68RiikDejkfv8WM93qXrontnuQUh"], "asm": "OP_DUP OP_HASH160 9f2a3084e8af2625f7ac07a582db7f883e72e590 OP_EQUALVERIFY OP_CHECKSIG", "type": "pubkeyhash"}, "value": 0.00124847, "n": 54}, {"scriptPubKey": {"reqSigs": 1, "hex": "76a914eebed3937031948fbd5acb5f17c42ecb65847ca788ac", "addresses": ["1NmNRWePK4Uc4zDTAj3znnn7tbarT1yQQD"], "asm": "OP_DUP OP_HASH160 eebed3937031948fbd5acb5f17c42ecb65847ca7 OP_EQUALVERIFY OP_CHECKSIG", "type": "pubkeyhash"}, "value": 0.00122342, "n": 55}, {"scriptPubKey": {"reqSigs": 1, "hex": "76a914c5f431bcbafcafa5f9eb948182da2501e6976e7588ac", "addresses": ["1K3gei1UTbsyEd9rkCFfn6eZQ92rew633H"], "asm": "OP_DUP OP_HASH160 c5f431bcbafcafa5f9eb948182da2501e6976e75 OP_EQUALVERIFY OP_CHECKSIG", "type": "pubkeyhash"}, "value": 0.00121835, "n": 56}, {"scriptPubKey": {"reqSigs": 1, "hex": "76a91495ff3b09b9227de9aeb3e06eb784b22039d4558888ac", "addresses": ["1Eg7SKP4YqEpFBRw42sYUBAxiWTQhbYWvy"], "asm": "OP_DUP OP_HASH160 95ff3b09b9227de9aeb3e06eb784b22039d45588 OP_EQUALVERIFY OP_CHECKSIG", "type": "pubkeyhash"}, "value": 0.00121229, "n": 57}, {"scriptPubKey": {"reqSigs": 1, "hex": "76a914582fe096b8a58dd657574777915e6429ffe6dd2888ac", "addresses": ["193HpTLtRWqaakqhvpDYBr9XTnw7JFaexN"], "asm": "OP_DUP OP_HASH160 582fe096b8a58dd657574777915e6429ffe6dd28 OP_EQUALVERIFY OP_CHECKSIG", "type": "pubkeyhash"}, "value": 0.00123454, "n": 58}, {"scriptPubKey": {"reqSigs": 1, "hex": "a914aca3fa73808826850420e17e6eab982dda13807587", "addresses": ["3HRraxBvv48E8JjViXybN3RyYB54gbQJqW"], "asm": "OP_HASH160 aca3fa73808826850420e17e6eab982dda138075 OP_EQUAL", "type": "scripthash"}, "value": 0.00122435, "n": 59}, {"scriptPubKey": {"reqSigs": 1, "hex": "a914544c99cfd84d8975afc67d728c0cafddaa4f7bf587", "addresses": ["39NkSyacP6wZ9PvUmsrMrJiahdwREJcqVk"], "asm": "OP_HASH160 544c99cfd84d8975afc67d728c0cafddaa4f7bf5 OP_EQUAL", "type": "scripthash"}, "value": 0.00122596, "n": 60}, {"scriptPubKey": {"reqSigs": 1, "hex": "76a9140e15a22ee62a92f08f74c08f8dcc8724c2f3bcac88ac", "addresses": ["12HUNoxCPf6Qe9WqiTSmXjwj5StwodwY4A"], "asm": "OP_DUP OP_HASH160 0e15a22ee62a92f08f74c08f8dcc8724c2f3bcac OP_EQUALVERIFY OP_CHECKSIG", "type": "pubkeyhash"}, "value": 0.00126534, "n": 61}, {"scriptPubKey": {"reqSigs": 1, "hex": "a91416fdd18b62f12882ab2102fc03664f2958fc486287", "addresses": ["33narPGyrAgZMdAyydHkLqhaRbqi894vEf"], "asm": "OP_HASH160 16fdd18b62f12882ab2102fc03664f2958fc4862 OP_EQUAL", "type": "scripthash"}, "value": 0.00126212, "n": 62}, {"scriptPubKey": {"reqSigs": 1, "hex": "a914fcc5c4b9ee77f5c2fd4a2950eb88021b822d76d587", "addresses": ["3QjZ85Wt7icQkXXK2USagT1nYxNKYm6GNg"], "asm": "OP_HASH160 fcc5c4b9ee77f5c2fd4a2950eb88021b822d76d5 OP_EQUAL", "type": "scripthash"}, "value": 0.00120898, "n": 63}, {"scriptPubKey": {"reqSigs": 1, "hex": "76a91458acf8f674bffb22318b208622ae1205c263298c88ac", "addresses": ["195sgDsAu4c1UhYtjpovZRPZbAUmqdsySC"], "asm": "OP_DUP OP_HASH160 58acf8f674bffb22318b208622ae1205c263298c OP_EQUALVERIFY OP_CHECKSIG", "type": "pubkeyhash"}, "value": 0.00123881, "n": 64}, {"scriptPubKey": {"reqSigs": 1, "hex": "76a9142da7e5dc9282aa6f3687c21899d9cfb50d63d4e588ac", "addresses": ["15AQYPCcFzJ1Z3mvd5BVbQcDHvfTdYW6Wy"], "asm": "OP_DUP OP_HASH160 2da7e5dc9282aa6f3687c21899d9cfb50d63d4e5 OP_EQUALVERIFY OP_CHECKSIG", "type": "pubkeyhash"}, "value": 0.00124742, "n": 65}, {"scriptPubKey": {"reqSigs": 1, "hex": "76a9140587bbc66c9e3b3154e83045958c5a1b7335cbd888ac", "addresses": ["1WEytVdg3Xn5ZPBsgNfhKywwTB7mwYAdf"], "asm": "OP_DUP OP_HASH160 0587bbc66c9e3b3154e83045958c5a1b7335cbd8 OP_EQUALVERIFY OP_CHECKSIG", "type": "pubkeyhash"}, "value": 0.0012405, "n": 66}, {"scriptPubKey": {"reqSigs": 1, "hex": "76a9147dbcc8f10ed0b9e0f422eb46c487426f9337d11288ac", "addresses": ["1CTqczAUJPMb2As52N7Xxn2XNjBQ3odW5g"], "asm": "OP_DUP OP_HASH160 7dbcc8f10ed0b9e0f422eb46c487426f9337d112 OP_EQUALVERIFY OP_CHECKSIG", "type": "pubkeyhash"}, "value": 0.00125809, "n": 67}, {"scriptPubKey": {"reqSigs": 1, "hex": "76a914d9457dc758432f6897b4e589d6e4147ab7e6972588ac", "addresses": ["1LopsyCcjaE2kMcppJ7Mwnh3xtxkgo3xKn"], "asm": "OP_DUP OP_HASH160 d9457dc758432f6897b4e589d6e4147ab7e69725 OP_EQUALVERIFY OP_CHECKSIG", "type": "pubkeyhash"}, "value": 0.00125536, "n": 68}, {"scriptPubKey": {"reqSigs": 1, "hex": "a914d04b18e4d61afb1544a42744292bb2e3cb1f91bd87", "addresses": ["3LgNSHubd7rcnBCg9vzb9if1c5Mryy8Ebr"], "asm": "OP_HASH160 d04b18e4d61afb1544a42744292bb2e3cb1f91bd OP_EQUAL", "type": "scripthash"}, "value": 0.00121186, "n": 69}, {"scriptPubKey": {"reqSigs": 1, "hex": "76a91475da4763f6133b24a5e6a21be7127d05d82ab7af88ac", "addresses": ["1Bk9Yj6oW6iwES2UAeTD6Lzm18Kye9DxFw"], "asm": "OP_DUP OP_HASH160 75da4763f6133b24a5e6a21be7127d05d82ab7af OP_EQUALVERIFY OP_CHECKSIG", "type": "pubkeyhash"}, "value": 0.00126348, "n": 70}, {"scriptPubKey": {"reqSigs": 1, "hex": "76a914e48556c9d863c2d64948510e7ee44e994016cd9488ac", "addresses": ["1MqJoJ6KRwJ1uJPZHfZmoysMCPVc6jUPgq"], "asm": "OP_DUP OP_HASH160 e48556c9d863c2d64948510e7ee44e994016cd94 OP_EQUALVERIFY OP_CHECKSIG", "type": "pubkeyhash"}, "value": 0.00123122, "n": 71}, {"scriptPubKey": {"reqSigs": 1, "hex": "76a914a7f15ddb2cb4e354f2affd61f18041bb01c86ac988ac", "addresses": ["1GJzzV1FGK7eJqDeseAZ54dMvt1W32QtT7"], "asm": "OP_DUP OP_HASH160 a7f15ddb2cb4e354f2affd61f18041bb01c86ac9 OP_EQUALVERIFY OP_CHECKSIG", "type": "pubkeyhash"}, "value": 0.00123393, "n": 72}, {"scriptPubKey": {"reqSigs": 1, "hex": "76a914eb57395b1e6d06786ea08d1314c3ad484d63fa7788ac", "addresses": ["1NTNHWmFULJQCm8Jg8nB3EguKFSP2mgvdk"], "asm": "OP_DUP OP_HASH160 eb57395b1e6d06786ea08d1314c3ad484d63fa77 OP_EQUALVERIFY OP_CHECKSIG", "type": "pubkeyhash"}, "value": 0.00125777, "n": 73}, {"scriptPubKey": {"reqSigs": 1, "hex": "a914ba7f22536583ca4fcdfd2456ec6819508315ec3087", "addresses": ["3Jh7uexgbL4pv7gwSPkcLNUnj6BDyLHVSN"], "asm": "OP_HASH160 ba7f22536583ca4fcdfd2456ec6819508315ec30 OP_EQUAL", "type": "scripthash"}, "value": 0.0012497, "n": 74}, {"scriptPubKey": {"reqSigs": 1, "hex": "76a91456cfe36c7875738e544fbf70c87171795f35cb7388ac", "addresses": ["18v29qRU6h3xbBfGvmMro51Dakx47bJ1dQ"], "asm": "OP_DUP OP_HASH160 56cfe36c7875738e544fbf70c87171795f35cb73 OP_EQUALVERIFY OP_CHECKSIG", "type": "pubkeyhash"}, "value": 0.00125024, "n": 75}, {"scriptPubKey": {"reqSigs": 1, "hex": "76a91430eeece273bc8cb7d99a9f81e351204b88e3e88588ac", "addresses": ["15Tjf2nmfoxa9ZTKwm7r5WKmWE2CUKNPpu"], "asm": "OP_DUP OP_HASH160 30eeece273bc8cb7d99a9f81e351204b88e3e885 OP_EQUALVERIFY OP_CHECKSIG", "type": "pubkeyhash"}, "value": 0.0012488, "n": 76}, {"scriptPubKey": {"reqSigs": 1, "hex": "a91454f8cced344664a08a01af2e847e27fa084196c287", "addresses": ["39SJjcrKBpjVT93E2QVsx22BGuvdrmsBPd"], "asm": "OP_HASH160 54f8cced344664a08a01af2e847e27fa084196c2 OP_EQUAL", "type": "scripthash"}, "value": 0.00123146, "n": 77}, {"scriptPubKey": {"reqSigs": 1, "hex": "a914f7d5db18757cb8dc1678a09dd5eb06cfb150e51687", "addresses": ["3QHT1tb6WCsnfRiGauymEYSWo4RQNDeDUd"], "asm": "OP_HASH160 f7d5db18757cb8dc1678a09dd5eb06cfb150e516 OP_EQUAL", "type": "scripthash"}, "value": 0.00125057, "n": 78}, {"scriptPubKey": {"reqSigs": 1, "hex": "76a914df1defbd15720a41c1203092516a00e1c18d895088ac", "addresses": ["1MLjYoUFpHq7ULGMJYbFk39BVRcTQB3C1x"], "asm": "OP_DUP OP_HASH160 df1defbd15720a41c1203092516a00e1c18d8950 OP_EQUALVERIFY OP_CHECKSIG", "type": "pubkeyhash"}, "value": 0.00123978, "n": 79}, {"scriptPubKey": {"reqSigs": 1, "hex": "76a914e25cbff3b893a1b59e2e14f2899b53109aaa2ef088ac", "addresses": ["1MdtpiyJjQ3JnVBNwQ4E6Hr4W19hUSAdow"], "asm": "OP_DUP OP_HASH160 e25cbff3b893a1b59e2e14f2899b53109aaa2ef0 OP_EQUALVERIFY OP_CHECKSIG", "type": "pubkeyhash"}, "value": 0.0012114, "n": 80}, {"scriptPubKey": {"reqSigs": 1, "hex": "76a9147d84775f49c64addde089b3c499460f4044f11c588ac", "addresses": ["1CSg9u7duH67YPqZge1CgkJjoxqYNeyear"], "asm": "OP_DUP OP_HASH160 7d84775f49c64addde089b3c499460f4044f11c5 OP_EQUALVERIFY OP_CHECKSIG", "type": "pubkeyhash"}, "value": 0.0012275, "n": 81}, {"scriptPubKey": {"reqSigs": 1, "hex": "a91494968ea1a8a2cd7091d9626f85181561d7f6a47587", "addresses": ["3FEgHq3RSa6qL9Hb9XpJB2P6WYi9XjEn32"], "asm": "OP_HASH160 94968ea1a8a2cd7091d9626f85181561d7f6a475 OP_EQUAL", "type": "scripthash"}, "value": 0.00124527, "n": 82}, {"scriptPubKey": {"reqSigs": 1, "hex": "76a9148402fb0a6571e976f274e005be4bbdf93ce4d89f88ac", "addresses": ["1D31mRKK7nj741iDNnESPXKjSCpbWusCcW"], "asm": "OP_DUP OP_HASH160 8402fb0a6571e976f274e005be4bbdf93ce4d89f OP_EQUALVERIFY OP_CHECKSIG", "type": "pubkeyhash"}, "value": 0.00125359, "n": 83}, {"scriptPubKey": {"reqSigs": 1, "hex": "a914fb83b0153a517fe1616e2753db98fc02a1d5dc5d87", "addresses": ["3QcuHXKeeCdJFHeoqyrbBJ25fLqiShfJUb"], "asm": "OP_HASH160 fb83b0153a517fe1616e2753db98fc02a1d5dc5d OP_EQUAL", "type": "scripthash"}, "value": 0.0012165, "n": 84}, {"scriptPubKey": {"reqSigs": 1, "hex": "a9142b397faf218b483f0599f23d5cab4bcb9346bce987", "addresses": ["35dZrsogxyF6yFsAjz2FpcoM3i6PAAprrF"], "asm": "OP_HASH160 2b397faf218b483f0599f23d5cab4bcb9346bce9 OP_EQUAL", "type": "scripthash"}, "value": 0.0012465, "n": 85}, {"scriptPubKey": {"reqSigs": 1, "hex": "76a9144fe461ff42c34d46ac982e6bad8ff0f14c72f63088ac", "addresses": ["18HRyUFUxAkNBVFwGK56ZT4AtjK2Eyv47D"], "asm": "OP_DUP OP_HASH160 4fe461ff42c34d46ac982e6bad8ff0f14c72f630 OP_EQUALVERIFY OP_CHECKSIG", "type": "pubkeyhash"}, "value": 0.00122913, "n": 86}, {"scriptPubKey": {"reqSigs": 1, "hex": "76a914088e1fe7e194ebdf8286eb8e69e35fcaa7e3e7ef88ac", "addresses": ["1nEfXaUjqu7vVGBECjPTYDcyT6L7DWybq"], "asm": "OP_DUP OP_HASH160 088e1fe7e194ebdf8286eb8e69e35fcaa7e3e7ef OP_EQUALVERIFY OP_CHECKSIG", "type": "pubkeyhash"}, "value": 0.00122797, "n": 87}, {"scriptPubKey": {"reqSigs": 1, "hex": "76a914e970dafdc9e6ac3e9420df549fc66a26079a29ef88ac", "addresses": ["1NHKe2iWQ7LizMQ15AM9WhtNhLdfEZtxdK"], "asm": "OP_DUP OP_HASH160 e970dafdc9e6ac3e9420df549fc66a26079a29ef OP_EQUALVERIFY OP_CHECKSIG", "type": "pubkeyhash"}, "value": 0.00121057, "n": 88}, {"scriptPubKey": {"reqSigs": 1, "hex": "76a914da30c41b3b32cfa7877a3b6d2e74c312c297eaea88ac", "addresses": ["1Ltgj9HowBfh92yibSKU4N3obPHFTNooMz"], "asm": "OP_DUP OP_HASH160 da30c41b3b32cfa7877a3b6d2e74c312c297eaea OP_EQUALVERIFY OP_CHECKSIG", "type": "pubkeyhash"}, "value": 0.00124292, "n": 89}, {"scriptPubKey": {"reqSigs": 1, "hex": "76a9148bb3c830e55da98e35b5eb1949782614d5ef08f488ac", "addresses": ["1DjgJ8vDB254bCnMEgvxaQ3uq4Wzjy8eoY"], "asm": "OP_DUP OP_HASH160 8bb3c830e55da98e35b5eb1949782614d5ef08f4 OP_EQUALVERIFY OP_CHECKSIG", "type": "pubkeyhash"}, "value": 0.00124474, "n": 90}, {"scriptPubKey": {"reqSigs": 1, "hex": "76a914305c4c5a0c3cebff56cc1c2283845e68baed7ad488ac", "addresses": ["15Qi1CkeSBaZymU7fFbsFsBm7CnKs2o984"], "asm": "OP_DUP OP_HASH160 305c4c5a0c3cebff56cc1c2283845e68baed7ad4 OP_EQUALVERIFY OP_CHECKSIG", "type": "pubkeyhash"}, "value": 0.00124231, "n": 91}, {"scriptPubKey": {"reqSigs": 1, "hex": "76a914cf3440d026c423a843d7dda2799a730aba702df788ac", "addresses": ["1KtbUKkKsKexwT9oTJr5nuixvcdGmNkKqz"], "asm": "OP_DUP OP_HASH160 cf3440d026c423a843d7dda2799a730aba702df7 OP_EQUALVERIFY OP_CHECKSIG", "type": "pubkeyhash"}, "value": 0.00123991, "n": 92}, {"scriptPubKey": {"reqSigs": 1, "hex": "76a9141d093688275d5a25ea331c52e5e7574bcbc5fac988ac", "addresses": ["13eXdhHbkY5MnJnfo94SgTfpbwAbc96Bmc"], "asm": "OP_DUP OP_HASH160 1d093688275d5a25ea331c52e5e7574bcbc5fac9 OP_EQUALVERIFY OP_CHECKSIG", "type": "pubkeyhash"}, "value": 0.00124944, "n": 93}, {"scriptPubKey": {"reqSigs": 1, "hex": "76a9141ab292cd8ec70b000bed8b6126c3d5de2f8b8e5188ac", "addresses": ["13SAVVKouxcHG1QF1YKLDqvzSmrcNDEJxR"], "asm": "OP_DUP OP_HASH160 1ab292cd8ec70b000bed8b6126c3d5de2f8b8e51 OP_EQUALVERIFY OP_CHECKSIG", "type": "pubkeyhash"}, "value": 0.00125178, "n": 94}, {"scriptPubKey": {"reqSigs": 1, "hex": "a914da080ae16dfbb340ded73c2ab03b6f16ae52117f87", "addresses": ["3MZrsAZU5tLEqLaAw7AiryafJegkL1rx7h"], "asm": "OP_HASH160 da080ae16dfbb340ded73c2ab03b6f16ae52117f OP_EQUAL", "type": "scripthash"}, "value": 0.00124141, "n": 95}, {"scriptPubKey": {"reqSigs": 1, "hex": "76a914af270e0b05f4d2e369d76a9247fec6b964ac5e2b88ac", "addresses": ["1Gy839f9LP5kF3jhSZ7b7CcD2bmcVNMsZ8"], "asm": "OP_DUP OP_HASH160 af270e0b05f4d2e369d76a9247fec6b964ac5e2b OP_EQUALVERIFY OP_CHECKSIG", "type": "pubkeyhash"}, "value": 0.0012096, "n": 96}, {"scriptPubKey": {"reqSigs": 1, "hex": "76a9141ae714f5e2a0ec3c3bf12f80b235ba11a15a7a8088ac", "addresses": ["13TFPqbco786VoUAa5teSAK7ZpmTqABA7f"], "asm": "OP_DUP OP_HASH160 1ae714f5e2a0ec3c3bf12f80b235ba11a15a7a80 OP_EQUALVERIFY OP_CHECKSIG", "type": "pubkeyhash"}, "value": 0.00123334, "n": 97}, {"scriptPubKey": {"reqSigs": 1, "hex": "76a914192c59f8a1805cea7888ea18ad9077e087a8dc9588ac", "addresses": ["13J72PY2i9vMuU8T2h2hRCXbBtEEfoBB9A"], "asm": "OP_DUP OP_HASH160 192c59f8a1805cea7888ea18ad9077e087a8dc95 OP_EQUALVERIFY OP_CHECKSIG", "type": "pubkeyhash"}, "value": 0.00121835, "n": 98}, {"scriptPubKey": {"reqSigs": 1, "hex": "76a9142bcf15c85b26a765895913419118af1dc60f9d5a88ac", "addresses": ["14ze8mq3CXyHaXHy7NLRRhGWweTgnYEUZR"], "asm": "OP_DUP OP_HASH160 2bcf15c85b26a765895913419118af1dc60f9d5a OP_EQUALVERIFY OP_CHECKSIG", "type": "pubkeyhash"}, "value": 0.00124483, "n": 99}, {"scriptPubKey": {"reqSigs": 1, "hex": "a9146106ea3105927568edd082467342630216a72c9d87", "addresses": ["3AY3kboDVTT1QqcNLNnkxi3HRxxVjPDeqd"], "asm": "OP_HASH160 6106ea3105927568edd082467342630216a72c9d OP_EQUAL", "type": "scripthash"}, "value": 0.00125379, "n": 100}], "hex": "02000000019f0905014e62c4213e65d1aa4d9f6cc911ecba4fbb47f0356a60ee216ff86561500000006b483045022100ac2e5f3bf0b541c8df7c0667a858caae38dca9f6f0b9e8089eb86be38691e6b7022069a19786f507bcb4992269f80cafae4113a7b43c28933205ed436af0e6ef7ebd0121020ac23a442263076f7280d5645863bf0d0035bd00f464dc7cd3b0cfb83537c6e4feffffff6502e20100000000001976a9145f2b13a53b12fa45ca3de1a2e2793179e866344188ace5dd01000000000017a91400acb05395e85775d93358099bf021ea26acaf558785ee0100000000001976a914eb8682e307b303bfa38462b643554cc7d1b42a2e88ac79e70100000000001976a9149721304d36f31f6070a4e240ff3a2446474ddcf488accadf0100000000001976a914119d97f34212c916b6c0653dd606bf50415e0e2988acfcda0001000000001976a91441d1310af9da3aaf00e695f8a5a6dfd4ecacaf1b88acf0ed0100000000001976a91422d42b2813caea73202615aa1a1e1ebca24f213b88acdde40100000000001976a91460c6c7a52485b2579b017e01be022028a85e906b88aceae90100000000001976a914ada48082ed00bee9a431a2753ce34b4f01429f8288acb7e80100000000001976a91491d5486256450323f8a633e035711f2b15de03a288acd2e00100000000001976a914dd66c33fe692c31b2a4a94e72588451bb189e77288acbbde01000000000017a9140f17cdeb58d9422c642d3176e6abdf1069d503258760e20100000000001976a914d6f62141b14b44b8916f7ca2c17ce9a1db28ded788ac14da0100000000001976a914e08dd3b902322f06d8dae79fd8e12e729ee5834888acc2d80100000000001976a9145b961186288e02c51dec3d33d4f5d3581ea1cd7188ac52e10100000000001976a914937e8022bae902915f746c3e34cdbbff729dd5e088ac13e70100000000001976a9149b621a8b2e167fddf47d83f0f275378a0bcf7ef288acaede0100000000001976a91476c000c557fe3b33e726e8ca5eec7e540d26fbc788acbbde0100000000001976a914be1b4dfadb4b7aa86f6759970f97d3775e21f13e88ac4fe70100000000001976a9140c1296d81adc8a73aa5a7a0282ea428f53ba4c4b88acafe60100000000001976a91413f7e675848c693ab450bbb3e7090ed04b0a8c8988ac10ea0100000000001976a914c6c1c74b346d5d0a19811d9e39d7a2cb75473ef388acf5e20100000000001976a9145bf54fbd2a2af41fd5af3ec0f5a2dcf84b31833688ac7bea0100000000001976a914871c03991e9c4d85e09386918ae2f72fa087d9da88acd51b02000000000017a9142039c82a0ccc04b4514a6b0361f73af499b681c78708e00100000000001976a914a438fa2f1b8e9cea5181c2169ea2b1e84381caaf88acb0da01000000000017a91442a5c9bdc22cba6b5c04b6291c87143a63535cd08743d90100000000001976a914f72f7f71b8721303b0ec64a20dccb6ccfe95624888ac27e401000000000017a914ea86ae22798777a6d637008303aa34563d32b0a08791ea0100000000001976a914b8d08ce1c85580f7f6b396fb69d5bd1ff578affc88ac67e60100000000001976a9149650b91a3f796065a29d8c0300c600ecd6306fdf88ac8cd801000000000017a91459a1c67ab40dd7ee552aeb7b4685c3563d4ddfca87d6e801000000000017a9142353620bf544347575506f5e499764ca32e8c9988780ed01000000000017a914bde07956073544dc14c2a8f9bc17cb5edd9c856187aee20100000000001976a91488392b0ace61e66cac637cd17fc8e95b60f0729488ac16ea0100000000001976a914be82946390590268b12c588f3bb34d17480643e388ac1de101000000000017a91469cd3a7c59408f5c39c5c3428d39fe40e1edabb4879ce70100000000001976a914dffd826644c879e4ccdb4b09e37a95934592801a88ac25de0100000000001976a914127066d171dadc964bceea5edc1fdf72b1fb58c188acffeb0100000000001976a914995e47650ba2576e1d761589d2fdbcb445295c3188ac02ec0100000000001976a9145f5ba4416167a57ecd9defe071dbf9dbd924dc7c88ac7be101000000000017a914124db79a79f267c820d6c60f3a017d012f24622887ebde01000000000017a91499e3c93d46ac19b579bb6c25083ca87ed526ef568795e60100000000001976a914a8560dd7c7160216cb5fd68326495e3f8c7b4f0288acc2db01000000000017a914c8828e2e23cf204d6cdee616510682ca9306c178878de10100000000001976a914a96e8ed2e99e4f7bd9ad243be9513bf009a74b8d88ac72ec0100000000001976a9144f9713d572d09434925d0d39f2b0a0c42ccc7bf288aca6e30100000000001976a914fff1a997ce6e7e2ea63e3e4a7da02ba793004b9a88ac4fe301000000000017a9146d1f503f2d73e77ec4044a5d5570c76ef568918187fee50100000000001976a914bc7d294ecdd6de8036b26fc6151815f57cb482eb88ac24e401000000000017a914bf0644b2eed4007bf34d7a182b2ec3f241fbdfc7876fda0100000000001976a9149e66b8ceccb226b92ec9e40f5510bdf1b47c78c588acf9eb01000000000017a914b6ead3a3ab82efab7d6744efcb1d548543c1ded28704da0100000000001976a91469338043e8792153927dd8e56d2c10f979d1381188acafe70100000000001976a9149f2a3084e8af2625f7ac07a582db7f883e72e59088ace6dd0100000000001976a914eebed3937031948fbd5acb5f17c42ecb65847ca788acebdb0100000000001976a914c5f431bcbafcafa5f9eb948182da2501e6976e7588ac8dd90100000000001976a91495ff3b09b9227de9aeb3e06eb784b22039d4558888ac3ee20100000000001976a914582fe096b8a58dd657574777915e6429ffe6dd2888ac43de01000000000017a914aca3fa73808826850420e17e6eab982dda13807587e4de01000000000017a914544c99cfd84d8975afc67d728c0cafddaa4f7bf58746ee0100000000001976a9140e15a22ee62a92f08f74c08f8dcc8724c2f3bcac88ac04ed01000000000017a91416fdd18b62f12882ab2102fc03664f2958fc48628742d801000000000017a914fcc5c4b9ee77f5c2fd4a2950eb88021b822d76d587e9e30100000000001976a91458acf8f674bffb22318b208622ae1205c263298c88ac46e70100000000001976a9142da7e5dc9282aa6f3687c21899d9cfb50d63d4e588ac92e40100000000001976a9140587bbc66c9e3b3154e83045958c5a1b7335cbd888ac71eb0100000000001976a9147dbcc8f10ed0b9e0f422eb46c487426f9337d11288ac60ea0100000000001976a914d9457dc758432f6897b4e589d6e4147ab7e6972588ac62d901000000000017a914d04b18e4d61afb1544a42744292bb2e3cb1f91bd878ced0100000000001976a91475da4763f6133b24a5e6a21be7127d05d82ab7af88acf2e00100000000001976a914e48556c9d863c2d64948510e7ee44e994016cd9488ac01e20100000000001976a914a7f15ddb2cb4e354f2affd61f18041bb01c86ac988ac51eb0100000000001976a914eb57395b1e6d06786ea08d1314c3ad484d63fa7788ac2ae801000000000017a914ba7f22536583ca4fcdfd2456ec6819508315ec308760e80100000000001976a91456cfe36c7875738e544fbf70c87171795f35cb7388acd0e70100000000001976a91430eeece273bc8cb7d99a9f81e351204b88e3e88588ac0ae101000000000017a91454f8cced344664a08a01af2e847e27fa084196c28781e801000000000017a914f7d5db18757cb8dc1678a09dd5eb06cfb150e516874ae40100000000001976a914df1defbd15720a41c1203092516a00e1c18d895088ac34d90100000000001976a914e25cbff3b893a1b59e2e14f2899b53109aaa2ef088ac7edf0100000000001976a9147d84775f49c64addde089b3c499460f4044f11c588ac6fe601000000000017a91494968ea1a8a2cd7091d9626f85181561d7f6a47587afe90100000000001976a9148402fb0a6571e976f274e005be4bbdf93ce4d89f88ac32db01000000000017a914fb83b0153a517fe1616e2753db98fc02a1d5dc5d87eae601000000000017a9142b397faf218b483f0599f23d5cab4bcb9346bce98721e00100000000001976a9144fe461ff42c34d46ac982e6bad8ff0f14c72f63088acaddf0100000000001976a914088e1fe7e194ebdf8286eb8e69e35fcaa7e3e7ef88ace1d80100000000001976a914e970dafdc9e6ac3e9420df549fc66a26079a29ef88ac84e50100000000001976a914da30c41b3b32cfa7877a3b6d2e74c312c297eaea88ac3ae60100000000001976a9148bb3c830e55da98e35b5eb1949782614d5ef08f488ac47e50100000000001976a914305c4c5a0c3cebff56cc1c2283845e68baed7ad488ac57e40100000000001976a914cf3440d026c423a843d7dda2799a730aba702df788ac10e80100000000001976a9141d093688275d5a25ea331c52e5e7574bcbc5fac988acfae80100000000001976a9141ab292cd8ec70b000bed8b6126c3d5de2f8b8e5188acede401000000000017a914da080ae16dfbb340ded73c2ab03b6f16ae52117f8780d80100000000001976a914af270e0b05f4d2e369d76a9247fec6b964ac5e2b88acc6e10100000000001976a9141ae714f5e2a0ec3c3bf12f80b235ba11a15a7a8088acebdb0100000000001976a914192c59f8a1805cea7888ea18ad9077e087a8dc9588ac43e60100000000001976a9142bcf15c85b26a765895913419118af1dc60f9d5a88acc3e901000000000017a9146106ea3105927568edd082467342630216a72c9d8710490800", "vin": [{"sequence": 4294967294, "scriptSig": {"hex": "483045022100ac2e5f3bf0b541c8df7c0667a858caae38dca9f6f0b9e8089eb86be38691e6b7022069a19786f507bcb4992269f80cafae4113a7b43c28933205ed436af0e6ef7ebd0121020ac23a442263076f7280d5645863bf0d0035bd00f464dc7cd3b0cfb83537c6e4", "asm": "3045022100ac2e5f3bf0b541c8df7c0667a858caae38dca9f6f0b9e8089eb86be38691e6b7022069a19786f507bcb4992269f80cafae4113a7b43c28933205ed436af0e6ef7ebd[ALL] 020ac23a442263076f7280d5645863bf0d0035bd00f464dc7cd3b0cfb83537c6e4"}, "vout": 80, "txid": "6165f86f21ee606a35f047bb4fbaec11c96c9f4daad1653e21c4624e0105099f"}], "txid": "7e38246941c35aa6a9b567ed6f3c58bde6721293edbccb46fcecf18080d16b55", "blocktime": 1537871767, "version": 2, "confirmations": 11495, "time": 1537871767, "locktime": 542992, "vsize": 3536, "size": 3536}