{"hash": "1e083a2cb6181d533a41e9b2c0a22e0b679aa7947ba53f954dfc923a4ee69402", "blockhash": "0000000000000000000baef3f32e3676a92c3b2e5da21b426e4f302fc371ce76", "vout": [{"scriptPubKey": {"reqSigs": 1, "hex": "76a914d0c4afd4b25d50183044fc916205bcb229d5acad88ac", "addresses": ["1L2sAwdYxHQN1qHWhg5hAc3mHcHAmktoYW"], "asm": "OP_DUP OP_HASH160 d0c4afd4b25d50183044fc916205bcb229d5acad OP_EQUALVERIFY OP_CHECKSIG", "type": "pubkeyhash"}, "value": 0.03669, "n": 0}, {"scriptPubKey": {"reqSigs": 1, "hex": "a9141988a27e3c2df4ddee7fad5a2303d086179b2a3087", "addresses": ["3422VtS7UtCvXYxoXMVp6eZupR252z85oC"], "asm": "OP_HASH160 1988a27e3c2df4ddee7fad5a2303d086179b2a30 OP_EQUAL", "type": "scripthash"}, "value": 0.33978744, "n": 1}, {"scriptPubKey": {"reqSigs": 1, "hex": "76a914042f68e918614a44def04de3ea2db98613835e8188ac", "addresses": ["1P8VrnojVn36yqCU1pgy7QpzJPWTpwimx"], "asm": "OP_DUP OP_HASH160 042f68e918614a44def04de3ea2db98613835e81 OP_EQUALVERIFY OP_CHECKSIG", "type": "pubkeyhash"}, "value": 0.00058123, "n": 2}, {"scriptPubKey": {"reqSigs": 1, "hex": "76a91444731503e1bcfd78da471a34977b42a9110efaa388ac", "addresses": ["17Evp682Tq3CEcc4qVvH3sHXY38CLtiBsD"], "asm": "OP_DUP OP_HASH160 44731503e1bcfd78da471a34977b42a9110efaa3 OP_EQUALVERIFY OP_CHECKSIG", "type": "pubkeyhash"}, "value": 0.00234951, "n": 3}, {"scriptPubKey": {"reqSigs": 1, "hex": "76a914374565c71e2da94eaa640c04708842cf955dbde088ac", "addresses": ["163FJNwjCgvXoP5zrptecuf3UrWHCkGF3D"], "asm": "OP_DUP OP_HASH160 374565c71e2da94eaa640c04708842cf955dbde0 OP_EQUALVERIFY OP_CHECKSIG", "type": "pubkeyhash"}, "value": 0.17084902, "n": 4}], "hex": "010000000001015ea9a488ade7058479da6b230ac17a4a8e0a7156bbd3232049140a6b1423d083010000002322002065d416c48a8072e0ac51c2d111eb194f009caef0332446c1bf2097316cf07fa9ffffffff0508fc3700000000001976a914d0c4afd4b25d50183044fc916205bcb229d5acad88ac787906020000000017a9141988a27e3c2df4ddee7fad5a2303d086179b2a30870be30000000000001976a914042f68e918614a44def04de3ea2db98613835e8188acc7950300000000001976a91444731503e1bcfd78da471a34977b42a9110efaa388ace6b10401000000001976a914374565c71e2da94eaa640c04708842cf955dbde088ac0400483045022100f72220689a0b2f9e815c1b01542a9ac3647f55b46312fb49f1444db3a560c37c022002efc45fc8a67b854251abca34fa07235aa40bcf9aa7fa9a3703607f85cbe3fb01473044022100e1e3073710e2942baef65928c8a5b43f5454e51761c5f06f75c2cec9f3d11d48021f58f6b9ff9165431437fd3fd451b74235a6883e498f7e5b1dcdc1d6c30dedd20169522102f44abcf9e23c9a460da309ccca56c619c04eed3bde2c2cff5e7d78fbcd980b9c2103c9443cf3047bb6c2c82f1b0c44c36109cdc3d0d601d16d1189a1602bf8d1a0a02103bfe867059274412412e088af5572b92168c2ef495cfe6c9b7a753a009eb37c4853ae00000000", "vin": [{"txinwitness": ["", "3045022100f72220689a0b2f9e815c1b01542a9ac3647f55b46312fb49f1444db3a560c37c022002efc45fc8a67b854251abca34fa07235aa40bcf9aa7fa9a3703607f85cbe3fb01", "3044022100e1e3073710e2942baef65928c8a5b43f5454e51761c5f06f75c2cec9f3d11d48021f58f6b9ff9165431437fd3fd451b74235a6883e498f7e5b1dcdc1d6c30dedd201", "522102f44abcf9e23c9a460da309ccca56c619c04eed3bde2c2cff5e7d78fbcd980b9c2103c9443cf3047bb6c2c82f1b0c44c36109cdc3d0d601d16d1189a1602bf8d1a0a02103bfe867059274412412e088af5572b92168c2ef495cfe6c9b7a753a009eb37c4853ae"], "sequence": 4294967295, "scriptSig": {"hex": "22002065d416c48a8072e0ac51c2d111eb194f009caef0332446c1bf2097316cf07fa9", "asm": "002065d416c48a8072e0ac51c2d111eb194f009caef0332446c1bf2097316cf07fa9"}, "vout": 1, "txid": "83d023146b0a14492023d3bb56710a8e4a7ac10a236bda798405e7ad88a4a95e"}], "txid": "7e39ba144080b885c53460a477385fa8c973771281fd82d8886a38a7a942fd65", "blocktime": 1537876114, "version": 1, "confirmations": 11460, "time": 1537876114, "locktime": 0, "vsize": 318, "size": 509}