{"hash": "7e3cb6ad079173d8f66d6aefdbef44e6e86e5a782ed3455e01867a0a641578ed", "blockhash": "00000000000000000017f5eb5941039fbcee6240d03bc1f2f8e35350df66a1d8", "vout": [{"scriptPubKey": {"type": "nulldata", "hex": "6a4c50000077f00001cc976e396876d674d1a4089cd19ed074892d00f8e87af8e8e963c7cfd5b98853840b3e68e9720b96e4622d4ab07b5baa181b06137458153121bd1d100759d4ba30d2c37bb011d97e02cf", "asm": "OP_RETURN 000077f00001cc976e396876d674d1a4089cd19ed074892d00f8e87af8e8e963c7cfd5b98853840b3e68e9720b96e4622d4ab07b5baa181b06137458153121bd1d100759d4ba30d2c37bb011d97e02cf"}, "value": 0.0, "n": 0}, {"scriptPubKey": {"reqSigs": 1, "hex": "76a914909855041f13225110785980d200ad69baf97c8588ac", "addresses": ["1EBYnqtyEKyCgaCdPhVQRkzv4NszRVxSkp"], "asm": "OP_DUP OP_HASH160 909855041f13225110785980d200ad69baf97c85 OP_EQUALVERIFY OP_CHECKSIG", "type": "pubkeyhash"}, "value": 0.00634375, "n": 1}], "hex": "0100000001a386b5f354e15ba6a69b5fcd45efb8ba62d8a213e721d35fbcb3db88f5782ea7000000006a473044022038ac990ac5e5cdf9e558b43026e87b5459e86300238c9c4115d6dc16aaad2d93022032b18af089dd4ed31b2f77252d1276ec7cee4c73d6a60a05d56845399cfc97eb012102f3e584d59fe5324ef72a603762969187f69e3029bac4ac0383628f0d2c3eecdfffffffff020000000000000000536a4c50000077f00001cc976e396876d674d1a4089cd19ed074892d00f8e87af8e8e963c7cfd5b98853840b3e68e9720b96e4622d4ab07b5baa181b06137458153121bd1d100759d4ba30d2c37bb011d97e02cf07ae0900000000001976a914909855041f13225110785980d200ad69baf97c8588ac00000000", "vin": [{"sequence": 4294967295, "scriptSig": {"hex": "473044022038ac990ac5e5cdf9e558b43026e87b5459e86300238c9c4115d6dc16aaad2d93022032b18af089dd4ed31b2f77252d1276ec7cee4c73d6a60a05d56845399cfc97eb012102f3e584d59fe5324ef72a603762969187f69e3029bac4ac0383628f0d2c3eecdf", "asm": "3044022038ac990ac5e5cdf9e558b43026e87b5459e86300238c9c4115d6dc16aaad2d93022032b18af089dd4ed31b2f77252d1276ec7cee4c73d6a60a05d56845399cfc97eb[ALL] 02f3e584d59fe5324ef72a603762969187f69e3029bac4ac0383628f0d2c3eecdf"}, "vout": 0, "txid": "a72e78f588dbb3bc5fd321e713a2d862bab8ef45cd5f9ba6a65be154f3b586a3"}], "txid": "7e3cb6ad079173d8f66d6aefdbef44e6e86e5a782ed3455e01867a0a641578ed", "blocktime": 1537874412, "version": 1, "confirmations": 11467, "time": 1537874412, "locktime": 0, "vsize": 283, "size": 283}