{"hash": "b99a57c9ebb113052d60e3eef69020052f9bcb39a993c361ecfa81d5b9b06926", "blockhash": "0000000000000000001f76057863aec43deb6fa401d9628bb513d65a8098bfab", "vout": [{"scriptPubKey": {"reqSigs": 1, "hex": "0014869b9005ff31e2833331b83373688915f5933003", "addresses": ["bc1qs6deqp0lx83gxve3hqehx6yfzh6exvqrrr7nl7"], "asm": "0 869b9005ff31e2833331b83373688915f5933003", "type": "witness_v0_keyhash"}, "value": 0.00103108, "n": 0}, {"scriptPubKey": {"reqSigs": 1, "hex": "a914f365149562b474ceb78ed853b2341a0ac02fdb6787", "addresses": ["3PsyDM9W3hdjnJJ1TD7XdEd32bACNZL6Gv"], "asm": "OP_HASH160 f365149562b474ceb78ed853b2341a0ac02fdb67 OP_EQUAL", "type": "scripthash"}, "value": 0.01404744, "n": 1}], "hex": "01000000000101a0514fa81ee60e22e234315c0d384e04746d4b0a5482d32fe2877f9fb22c227a0d000000171600140430588f7eb93405bba21123bd9186bdf35d5698ffffffff02c492010000000000160014869b9005ff31e2833331b83373688915f5933003486f15000000000017a914f365149562b474ceb78ed853b2341a0ac02fdb6787024730440220095a01b2fd3c48b93de66a419a5e23d63b511ff3d6e794dc2e38a7cc264cb9b80220364f9fb30ae8919ad87f5379304722f903264d58f64dde4a0a0327f2504cbd7c01210397dc1895927b0b2670a114c4cdc207b6e7c0b4d7dd436a8d7e20c478690be0b100000000", "vin": [{"txinwitness": ["30440220095a01b2fd3c48b93de66a419a5e23d63b511ff3d6e794dc2e38a7cc264cb9b80220364f9fb30ae8919ad87f5379304722f903264d58f64dde4a0a0327f2504cbd7c01", "0397dc1895927b0b2670a114c4cdc207b6e7c0b4d7dd436a8d7e20c478690be0b1"], "sequence": 4294967295, "scriptSig": {"hex": "1600140430588f7eb93405bba21123bd9186bdf35d5698", "asm": "00140430588f7eb93405bba21123bd9186bdf35d5698"}, "vout": 13, "txid": "7a222cb29f7f87e22fd382540a4b6d74044e380d5c3134e2220ee61ea84f51a0"}], "txid": "7e429bd5dc9939a5c7dc7a8ae40c410e24fb5d4ce9480d4242f53b7e23dfd14a", "blocktime": 1537873891, "version": 1, "confirmations": 11478, "time": 1537873891, "locktime": 0, "vsize": 165, "size": 246}