{"hash": "4ab5261f3306c78c1fffdbd5da0300c6a9f1a411311ce4684a2b172d79356251", "blockhash": "0000000000000000000baef3f32e3676a92c3b2e5da21b426e4f302fc371ce76", "vout": [{"scriptPubKey": {"reqSigs": 1, "hex": "76a9140ee562020081fb69d7258536d6ed7dc62194032f88ac", "addresses": ["12MmFV8SKMdketYg2dFRsfErXAa3tQjNbL"], "asm": "OP_DUP OP_HASH160 0ee562020081fb69d7258536d6ed7dc62194032f OP_EQUALVERIFY OP_CHECKSIG", "type": "pubkeyhash"}, "value": 0.0003896, "n": 0}, {"scriptPubKey": {"reqSigs": 1, "hex": "a914b2e6a8e553bd7e11c1392f8d61e19b5888e139c087", "addresses": ["3HzxXD8PhqJETjkWrQYD4nYc6yKx3mGLXi"], "asm": "OP_HASH160 b2e6a8e553bd7e11c1392f8d61e19b5888e139c0 OP_EQUAL", "type": "scripthash"}, "value": 0.00516892, "n": 1}], "hex": "010000000001013bac6433fc8466d19b2172488181bdd09e34e6a566626f8b16a2a7ca1d12266c010000002322002045dc4a8e7a7ed593d2ea538a381c31e2607ee08f052e914f99311fee2a8f4d56ffffffff0230980000000000001976a9140ee562020081fb69d7258536d6ed7dc62194032f88ac1ce307000000000017a914b2e6a8e553bd7e11c1392f8d61e19b5888e139c087040047304402200f49a624d15a383dede91a2bc7594fbf3e51ad0f10b272252e72f212928551e802204311f724ea76ef4f83cbf7ac16640396e957fc027542abb7be149f5f890739640147304402207d44228d1260ae40e15be3136f85bcdf3c1f507e2e624196e3654aa7e4718f550220580475b0a122a2fad2821d6320ba6c5a497035f07636e2f2b8d97f18a6699507014752210333a2cce5556afb7a9431cdacaea04e945b9daa974227ab5f4aca265bc268c7952103871fc2ca08e6950b38867e8e6a0e94ee625223d3aa0df5c65f414c6d784467e252ae00000000", "vin": [{"txinwitness": ["", "304402200f49a624d15a383dede91a2bc7594fbf3e51ad0f10b272252e72f212928551e802204311f724ea76ef4f83cbf7ac16640396e957fc027542abb7be149f5f8907396401", "304402207d44228d1260ae40e15be3136f85bcdf3c1f507e2e624196e3654aa7e4718f550220580475b0a122a2fad2821d6320ba6c5a497035f07636e2f2b8d97f18a669950701", "52210333a2cce5556afb7a9431cdacaea04e945b9daa974227ab5f4aca265bc268c7952103871fc2ca08e6950b38867e8e6a0e94ee625223d3aa0df5c65f414c6d784467e252ae"], "sequence": 4294967295, "scriptSig": {"hex": "22002045dc4a8e7a7ed593d2ea538a381c31e2607ee08f052e914f99311fee2a8f4d56", "asm": "002045dc4a8e7a7ed593d2ea538a381c31e2607ee08f052e914f99311fee2a8f4d56"}, "vout": 1, "txid": "6c26121dcaa7a2168b6f6266a5e6349ed0bd81814872219bd16684fc3364ac3b"}], "txid": "7e444b40e01ff14dcb6a7a810861c2cd61023426e4d3a6f0921a29282c33555b", "blocktime": 1537876114, "version": 1, "confirmations": 11460, "time": 1537876114, "locktime": 0, "vsize": 207, "size": 372}