{"hash": "e3a9cb4a3433aeaf367c67f21e3000fbf3ecfe2706b09bb8c5e4f2a99a306286", "blockhash": "0000000000000000000baef3f32e3676a92c3b2e5da21b426e4f302fc371ce76", "vout": [{"scriptPubKey": {"reqSigs": 1, "hex": "76a914080feec865581162d4654483655934e4f01dfd9d88ac", "addresses": ["1jdVZYriZPcBNfwR3WygPfD7S2FnH9i6Z"], "asm": "OP_DUP OP_HASH160 080feec865581162d4654483655934e4f01dfd9d OP_EQUALVERIFY OP_CHECKSIG", "type": "pubkeyhash"}, "value": 1.0, "n": 0}, {"scriptPubKey": {"reqSigs": 1, "hex": "a91403b2dec9b337fa5b217d36f242f4220e78285e6b87", "addresses": ["322aEF4DHPvCEZCssPaQCRKJk9KDByfLcZ"], "asm": "OP_HASH160 03b2dec9b337fa5b217d36f242f4220e78285e6b OP_EQUAL", "type": "scripthash"}, "value": 0.0006328, "n": 1}], "hex": "01000000000105f812e7b43d92c2fb6a08a118f01a3c928143e1ffb1cc14218b7d1a778649df4405000000fdfd000047304402204706f6d8385c102abef24b770c99bb0ae45ee74f344445e64b804e438d1e0c0502206c1c91cba319b1956a53e12ce0379ee6091f2fc9436741effaf553b90ffe1c9401483045022100db4de7bb2ca047c9bffeb82fd7b9f31ff1af19c94628e5af0636af7a9e96a48202200aeb9ca59bec34c1af2255807f7f38028e57d6041feeb60bffec846ce9c009e9014c6952210232fb0e259ace6c3407b72c8e1a6aecb0eab6acad37bbfd25f5c55266ca52ebc22102dd53cf77cd3bd8faae18d21c89f2d9cac30acb23267e5cbafc3377d35cebb5c121030d4579a36b6e9a63548744ee88dd72e1eddffaa89d15f3e0c76c60a5621c643453aeffffffffdadf639f9f8b7ecd7d52897cbf80c5a9c8467728ec2306d98c7dc25350681ace10000000fdfe0000483045022100822d31cd05e997f3bc3132fa2c9201f8223718f7587fa585a6a7b03b1148d3dd02205e4c976b9abba062975c540655f358a36edaf5d3f17f8970a036c700e6c5794601483045022100c7a258611886671134d2bb725db9e3319dfa46fa165d11f39a7eda0cbfe513280220144e50136a3a6fc59cd21e89b8b9e93b832801bd8b28a090db70bf4839e8d877014c6952210215b3d493c210ca35478425a18969c0203f9dfd8c0d2abdbba2d5a7292a2f314921030c859a7adc0a6b35cef34bdbe90a06a18c6eedf5eae6b643ad6b1578b40705482103432f45de8549cdbab80b44d6dd9db339d32971520888adaf8b2a63562436375453aeffffffff7eb2ccf74848fe6f01b59ccd9b847fdb846ecf34f448ff9a7e70a8620817a40500000000fc004730440220531bd3a9436ac2cb86244bb1d8f6ae4113ec4eb888ca74f81888425f78958d3c022071273c59e0960f9bdf5788bd5f1676437bb6c2e4f9fc5ef88752903e40bc89e00147304402202fc6f97719855dc75e50cc4654bf62bf5788a80f017c29b9cfe5cb8a51aae495022015dce7cb6854dc78d3b9f2c5f3771e87a072e9e12bff160ca262ec1b942c6aba014c695221030e5797ed84dbf6d912e80da270891cf202db67f37d2a44d0139e5325d49d97792103115e7ba17abc8d218f2cee97887e890f698d41ccbafc25dde84a9e1b134063f521035992483ce751bdd764cd6784e0d653f9fd263ee5758b3837a42f071a46bbb92d53aeffffffff75fb527864eb34c53821432e830e736279d65d198766a31ca93de5de190ded7d0000000023220020578e9a1d443d154077fd3cdce4781a6804bd2163fc02bd20a304ff5a6c44cdb8ffffffff762f24540135bc1bfb99b54a619f484c8ed10d4bf2494f443315054aa935952600000000232200200ad4f57b524890fa2b08aeff28a4e6678964eb23357a47952ecde4fb10b50ba3ffffffff0200e1f505000000001976a914080feec865581162d4654483655934e4f01dfd9d88ac30f700000000000017a91403b2dec9b337fa5b217d36f242f4220e78285e6b870000000400473044022043893fba451edfa10eafc6508001375c958818b8f3ebb947d08de1976074c9b302204b9d68780e1d0f06603343eea9371eacd2a7e7d7f053e31019d1c433041303310147304402204278066da5c2339020d3778da375fdeb2c91a1ef9bba46817a360e63ae8bed2b02205a4c6ff43195ca5d0c54acdeaa8cc5093e944673ccda985d9eea382834a4c3ff0169522102ed3e2752039e530d9d0617e086b7b3c87d0143130a707137c41aee52a8265e6e2103a6f058ffb67225e7c467275b5df32a4209b56958837acf4fed62a9c644601e172103dab5604f7e1690b16dd0ecd770165de584581318c1ae34f39b72c726ebe10e9553ae04004730440220632f94328af54e3521f4e6b9b65c77881b7fac44fe6f4b9969f83ef4ff7a7137022014ae766c1161afdbadb736e9387933008cda8d119fe8380b6353c6d3d076f93b014730440220174503ad86aa49d09a0ebf3c64938ef6b64cc66b067d24f25ce12309edd86bec022074e2753bdad4bb85ac388e393c5987ed525d38f05e0fe210cb746ac550b5b2530169522103102f2b3ae240857863cf8ebdd4bf198358cb6e2f797a5c3dbf3c88afd6e1671d2103a16866de43f85279f52e441e508d1314e46588ad6b0ca608fbeb509f4951426a2103e29aaedfb9b6c4df11306cdae75131c3be32e53127fbf109c9f3aa25d204f3e453ae00000000", "vin": [{"sequence": 4294967295, "scriptSig": {"hex": "0047304402204706f6d8385c102abef24b770c99bb0ae45ee74f344445e64b804e438d1e0c0502206c1c91cba319b1956a53e12ce0379ee6091f2fc9436741effaf553b90ffe1c9401483045022100db4de7bb2ca047c9bffeb82fd7b9f31ff1af19c94628e5af0636af7a9e96a48202200aeb9ca59bec34c1af2255807f7f38028e57d6041feeb60bffec846ce9c009e9014c6952210232fb0e259ace6c3407b72c8e1a6aecb0eab6acad37bbfd25f5c55266ca52ebc22102dd53cf77cd3bd8faae18d21c89f2d9cac30acb23267e5cbafc3377d35cebb5c121030d4579a36b6e9a63548744ee88dd72e1eddffaa89d15f3e0c76c60a5621c643453ae", "asm": "0 304402204706f6d8385c102abef24b770c99bb0ae45ee74f344445e64b804e438d1e0c0502206c1c91cba319b1956a53e12ce0379ee6091f2fc9436741effaf553b90ffe1c94[ALL] 3045022100db4de7bb2ca047c9bffeb82fd7b9f31ff1af19c94628e5af0636af7a9e96a48202200aeb9ca59bec34c1af2255807f7f38028e57d6041feeb60bffec846ce9c009e9[ALL] 52210232fb0e259ace6c3407b72c8e1a6aecb0eab6acad37bbfd25f5c55266ca52ebc22102dd53cf77cd3bd8faae18d21c89f2d9cac30acb23267e5cbafc3377d35cebb5c121030d4579a36b6e9a63548744ee88dd72e1eddffaa89d15f3e0c76c60a5621c643453ae"}, "vout": 5, "txid": "44df4986771a7d8b2114ccb1ffe14381923c1af018a1086afbc2923db4e712f8"}, {"sequence": 4294967295, "scriptSig": {"hex": "00483045022100822d31cd05e997f3bc3132fa2c9201f8223718f7587fa585a6a7b03b1148d3dd02205e4c976b9abba062975c540655f358a36edaf5d3f17f8970a036c700e6c5794601483045022100c7a258611886671134d2bb725db9e3319dfa46fa165d11f39a7eda0cbfe513280220144e50136a3a6fc59cd21e89b8b9e93b832801bd8b28a090db70bf4839e8d877014c6952210215b3d493c210ca35478425a18969c0203f9dfd8c0d2abdbba2d5a7292a2f314921030c859a7adc0a6b35cef34bdbe90a06a18c6eedf5eae6b643ad6b1578b40705482103432f45de8549cdbab80b44d6dd9db339d32971520888adaf8b2a63562436375453ae", "asm": "0 3045022100822d31cd05e997f3bc3132fa2c9201f8223718f7587fa585a6a7b03b1148d3dd02205e4c976b9abba062975c540655f358a36edaf5d3f17f8970a036c700e6c57946[ALL] 3045022100c7a258611886671134d2bb725db9e3319dfa46fa165d11f39a7eda0cbfe513280220144e50136a3a6fc59cd21e89b8b9e93b832801bd8b28a090db70bf4839e8d877[ALL] 52210215b3d493c210ca35478425a18969c0203f9dfd8c0d2abdbba2d5a7292a2f314921030c859a7adc0a6b35cef34bdbe90a06a18c6eedf5eae6b643ad6b1578b40705482103432f45de8549cdbab80b44d6dd9db339d32971520888adaf8b2a63562436375453ae"}, "vout": 16, "txid": "ce1a685053c27d8cd90623ec287746c8a9c580bf7c89527dcd7e8b9f9f63dfda"}, {"sequence": 4294967295, "scriptSig": {"hex": "004730440220531bd3a9436ac2cb86244bb1d8f6ae4113ec4eb888ca74f81888425f78958d3c022071273c59e0960f9bdf5788bd5f1676437bb6c2e4f9fc5ef88752903e40bc89e00147304402202fc6f97719855dc75e50cc4654bf62bf5788a80f017c29b9cfe5cb8a51aae495022015dce7cb6854dc78d3b9f2c5f3771e87a072e9e12bff160ca262ec1b942c6aba014c695221030e5797ed84dbf6d912e80da270891cf202db67f37d2a44d0139e5325d49d97792103115e7ba17abc8d218f2cee97887e890f698d41ccbafc25dde84a9e1b134063f521035992483ce751bdd764cd6784e0d653f9fd263ee5758b3837a42f071a46bbb92d53ae", "asm": "0 30440220531bd3a9436ac2cb86244bb1d8f6ae4113ec4eb888ca74f81888425f78958d3c022071273c59e0960f9bdf5788bd5f1676437bb6c2e4f9fc5ef88752903e40bc89e0[ALL] 304402202fc6f97719855dc75e50cc4654bf62bf5788a80f017c29b9cfe5cb8a51aae495022015dce7cb6854dc78d3b9f2c5f3771e87a072e9e12bff160ca262ec1b942c6aba[ALL] 5221030e5797ed84dbf6d912e80da270891cf202db67f37d2a44d0139e5325d49d97792103115e7ba17abc8d218f2cee97887e890f698d41ccbafc25dde84a9e1b134063f521035992483ce751bdd764cd6784e0d653f9fd263ee5758b3837a42f071a46bbb92d53ae"}, "vout": 0, "txid": "05a4170862a8707e9aff48f434cf6e84db7f849bcd9cb5016ffe4848f7ccb27e"}, {"txinwitness": ["", "3044022043893fba451edfa10eafc6508001375c958818b8f3ebb947d08de1976074c9b302204b9d68780e1d0f06603343eea9371eacd2a7e7d7f053e31019d1c4330413033101", "304402204278066da5c2339020d3778da375fdeb2c91a1ef9bba46817a360e63ae8bed2b02205a4c6ff43195ca5d0c54acdeaa8cc5093e944673ccda985d9eea382834a4c3ff01", "522102ed3e2752039e530d9d0617e086b7b3c87d0143130a707137c41aee52a8265e6e2103a6f058ffb67225e7c467275b5df32a4209b56958837acf4fed62a9c644601e172103dab5604f7e1690b16dd0ecd770165de584581318c1ae34f39b72c726ebe10e9553ae"], "sequence": 4294967295, "scriptSig": {"hex": "220020578e9a1d443d154077fd3cdce4781a6804bd2163fc02bd20a304ff5a6c44cdb8", "asm": "0020578e9a1d443d154077fd3cdce4781a6804bd2163fc02bd20a304ff5a6c44cdb8"}, "vout": 0, "txid": "7ded0d19dee53da91ca36687195dd67962730e832e432138c534eb647852fb75"}, {"txinwitness": ["", "30440220632f94328af54e3521f4e6b9b65c77881b7fac44fe6f4b9969f83ef4ff7a7137022014ae766c1161afdbadb736e9387933008cda8d119fe8380b6353c6d3d076f93b01", "30440220174503ad86aa49d09a0ebf3c64938ef6b64cc66b067d24f25ce12309edd86bec022074e2753bdad4bb85ac388e393c5987ed525d38f05e0fe210cb746ac550b5b25301", "522103102f2b3ae240857863cf8ebdd4bf198358cb6e2f797a5c3dbf3c88afd6e1671d2103a16866de43f85279f52e441e508d1314e46588ad6b0ca608fbeb509f4951426a2103e29aaedfb9b6c4df11306cdae75131c3be32e53127fbf109c9f3aa25d204f3e453ae"], "sequence": 4294967295, "scriptSig": {"hex": "2200200ad4f57b524890fa2b08aeff28a4e6678964eb23357a47952ecde4fb10b50ba3", "asm": "00200ad4f57b524890fa2b08aeff28a4e6678964eb23357a47952ecde4fb10b50ba3"}, "vout": 0, "txid": "269535a94a051533444f49f24b0dd18e4c489f614ab599fb1bbc350154242f76"}], "txid": "7e46a6b1e8b5e07db87f35085924af999acc7cda346ddef978db7b7563102e41", "blocktime": 1537876114, "version": 1, "confirmations": 11460, "time": 1537876114, "locktime": 0, "vsize": 1242, "size": 1623}