{"hash": "7e4e2d1169cb0e92102b3ae3d81c6328ada61b09638416cdfdbf9f953db88178", "blockhash": "0000000000000000000baef3f32e3676a92c3b2e5da21b426e4f302fc371ce76", "vout": [{"scriptPubKey": {"reqSigs": 1, "hex": "76a914532cb00bc554eb4ebf7e03780fdcedd0fe7a6b6f88ac", "addresses": ["18ancspzyGeVkKtTXzjjUhasX3E6EMMNyh"], "asm": "OP_DUP OP_HASH160 532cb00bc554eb4ebf7e03780fdcedd0fe7a6b6f OP_EQUALVERIFY OP_CHECKSIG", "type": "pubkeyhash"}, "value": 0.00864999, "n": 0}, {"scriptPubKey": {"reqSigs": 1, "hex": "76a9149d7a124db0d946b65a81984fad65b21a892caf7d88ac", "addresses": ["1FMfKo3ArFcuaFHXw5zmgYCeLpqefVQdg8"], "asm": "OP_DUP OP_HASH160 9d7a124db0d946b65a81984fad65b21a892caf7d OP_EQUALVERIFY OP_CHECKSIG", "type": "pubkeyhash"}, "value": 4.15733445, "n": 1}], "hex": "01000000013ac68611ca90378d04c335ee3cdb899565012344284397ff04b7c45a27b6fbb5010000006b483045022100cab02b664062c6982b3ad9125cf4f051008c1f10999e1409fc944b77b560b76a0220302d1b176c8433f0cfb111cba203f55eb54648a768b6635d23f46caf0d80b3d9012102f81f31afeeaf57a8521ad9e353bbcaddce87d70d72cd314676bb3c5655fec54dffffffff02e7320d00000000001976a914532cb00bc554eb4ebf7e03780fdcedd0fe7a6b6f88acc596c718000000001976a9149d7a124db0d946b65a81984fad65b21a892caf7d88ac00000000", "vin": [{"sequence": 4294967295, "scriptSig": {"hex": "483045022100cab02b664062c6982b3ad9125cf4f051008c1f10999e1409fc944b77b560b76a0220302d1b176c8433f0cfb111cba203f55eb54648a768b6635d23f46caf0d80b3d9012102f81f31afeeaf57a8521ad9e353bbcaddce87d70d72cd314676bb3c5655fec54d", "asm": "3045022100cab02b664062c6982b3ad9125cf4f051008c1f10999e1409fc944b77b560b76a0220302d1b176c8433f0cfb111cba203f55eb54648a768b6635d23f46caf0d80b3d9[ALL] 02f81f31afeeaf57a8521ad9e353bbcaddce87d70d72cd314676bb3c5655fec54d"}, "vout": 1, "txid": "b5fbb6275ac4b704ff974328442301659589db3cee35c3048d3790ca1186c63a"}], "txid": "7e4e2d1169cb0e92102b3ae3d81c6328ada61b09638416cdfdbf9f953db88178", "blocktime": 1537876114, "version": 1, "confirmations": 11460, "time": 1537876114, "locktime": 0, "vsize": 226, "size": 226}