{"hash": "7e53ad1be0de0e672482211ba39c3a86e143f527e39ee0c34ce6c986c1ce24b0", "blockhash": "0000000000000000001f0ddff1eddb255c1121bcd4da4f1bc9a0da00cae72433", "vout": [{"scriptPubKey": {"reqSigs": 1, "hex": "a914868779e5f3561993c9442265dd657c4b7ada405987", "addresses": ["3DxLmJEiVajN8YGgGrkDgVXuSq9xAvYeVo"], "asm": "OP_HASH160 868779e5f3561993c9442265dd657c4b7ada4059 OP_EQUAL", "type": "scripthash"}, "value": 8.13e-06, "n": 0}, {"scriptPubKey": {"reqSigs": 1, "hex": "76a914ecd5f977b7a947e95146cb73f399817327cff09788ac", "addresses": ["1NbGoUphegkhWjfAmYbS2nQqZ7Lp7xgYyF"], "asm": "OP_DUP OP_HASH160 ecd5f977b7a947e95146cb73f399817327cff097 OP_EQUALVERIFY OP_CHECKSIG", "type": "pubkeyhash"}, "value": 0.02766469, "n": 1}], "hex": "010000000143dbc14e13654b5b5a3d99bf3b5497c6385186ea0084b77fc82ab677a9462c2200000000fdfd0000483045022100b9f9875b5464f33c2a7f61826c458e2ff176a289ac7587e6ebee49f52c4c4c72022058ac92e9f2236b65699b001dfcf566fd8dd6318fa6fdd4306bbf39097293770b014730440220724ecb78eed71fe140dfe2d06d6349d5460de57491e6d45e64f0ca398fe7a0d302202bf7afa1780a7bb2e17472da2b3a427ddb69b77f8987ad945d3ef17b42c96fa1014c69522102b1124405d94226111704e5f42f3e545bcc75287f2bf6ae334de22b18126caa4e2102f2a86ccb23a92a7fd0cb0988d66dd3ca116e53556b0b7b8efcd22d0319684b5d2102f9c640a82692e718d2ae752f967fd7867fb868d9e07563d81c3acf704d04395153aefdffffff022d0300000000000017a914868779e5f3561993c9442265dd657c4b7ada40598785362a00000000001976a914ecd5f977b7a947e95146cb73f399817327cff09788ac10490800", "vin": [{"sequence": 4294967293, "scriptSig": {"hex": "00483045022100b9f9875b5464f33c2a7f61826c458e2ff176a289ac7587e6ebee49f52c4c4c72022058ac92e9f2236b65699b001dfcf566fd8dd6318fa6fdd4306bbf39097293770b014730440220724ecb78eed71fe140dfe2d06d6349d5460de57491e6d45e64f0ca398fe7a0d302202bf7afa1780a7bb2e17472da2b3a427ddb69b77f8987ad945d3ef17b42c96fa1014c69522102b1124405d94226111704e5f42f3e545bcc75287f2bf6ae334de22b18126caa4e2102f2a86ccb23a92a7fd0cb0988d66dd3ca116e53556b0b7b8efcd22d0319684b5d2102f9c640a82692e718d2ae752f967fd7867fb868d9e07563d81c3acf704d04395153ae", "asm": "0 3045022100b9f9875b5464f33c2a7f61826c458e2ff176a289ac7587e6ebee49f52c4c4c72022058ac92e9f2236b65699b001dfcf566fd8dd6318fa6fdd4306bbf39097293770b[ALL] 30440220724ecb78eed71fe140dfe2d06d6349d5460de57491e6d45e64f0ca398fe7a0d302202bf7afa1780a7bb2e17472da2b3a427ddb69b77f8987ad945d3ef17b42c96fa1[ALL] 522102b1124405d94226111704e5f42f3e545bcc75287f2bf6ae334de22b18126caa4e2102f2a86ccb23a92a7fd0cb0988d66dd3ca116e53556b0b7b8efcd22d0319684b5d2102f9c640a82692e718d2ae752f967fd7867fb868d9e07563d81c3acf704d04395153ae"}, "vout": 0, "txid": "222c46a977b62ac87fb78400ea865138c697543bbf993d5a5b4b65134ec1db43"}], "txid": "7e53ad1be0de0e672482211ba39c3a86e143f527e39ee0c34ce6c986c1ce24b0", "blocktime": 1537872018, "version": 1, "confirmations": 11489, "time": 1537872018, "locktime": 542992, "vsize": 372, "size": 372}