{"hash": "1ac50735604fce00da162ba71e49e2575beb1f983ded829054c246a7d6d646b6", "blockhash": "0000000000000000000dcc0f55137456b1a82d3642486a52398922ac4d620174", "vout": [{"scriptPubKey": {"reqSigs": 1, "hex": "a914065de2855853b0c930999a210ac8b79e2c97074287", "addresses": ["32GgSvnyxJJBtSY5yehkZ1tZ7DEif28KMH"], "asm": "OP_HASH160 065de2855853b0c930999a210ac8b79e2c970742 OP_EQUAL", "type": "scripthash"}, "value": 0.00282611, "n": 0}, {"scriptPubKey": {"reqSigs": 1, "hex": "a914a60db639f04a87fb664bb72fe25095047b80b41387", "addresses": ["3Gq2X6rGRJRfjLViVH2RR24rYm78nbUZmK"], "asm": "OP_HASH160 a60db639f04a87fb664bb72fe25095047b80b413 OP_EQUAL", "type": "scripthash"}, "value": 0.00696616, "n": 1}, {"scriptPubKey": {"reqSigs": 1, "hex": "a914a86e9408b5dc39e4416eb0c65d25b5f236cffd4f87", "addresses": ["3H3butBjaZq28fdhtnZzJqfM5GWZWFgM8M"], "asm": "OP_HASH160 a86e9408b5dc39e4416eb0c65d25b5f236cffd4f OP_EQUAL", "type": "scripthash"}, "value": 0.00364864, "n": 2}, {"scriptPubKey": {"reqSigs": 1, "hex": "a914362cc8b88212220cbefd1f910db4cb705708a2b887", "addresses": ["36dU4Z5wX2fxNJsQuEtX4eDEHwGMAVhbjq"], "asm": "OP_HASH160 362cc8b88212220cbefd1f910db4cb705708a2b8 OP_EQUAL", "type": "scripthash"}, "value": 0.0043564, "n": 3}, {"scriptPubKey": {"reqSigs": 1, "hex": "a914b0688b2c385ca147d87c6cfbd73d754214a647b087", "addresses": ["3Hmn68EmwLTNgtPGYqjcWQJtoiodv26LSZ"], "asm": "OP_HASH160 b0688b2c385ca147d87c6cfbd73d754214a647b0 OP_EQUAL", "type": "scripthash"}, "value": 0.00415364, "n": 4}, {"scriptPubKey": {"reqSigs": 1, "hex": "a91416cff96d4650d16ae85e1289f50ac06e2ddead8387", "addresses": ["33mdw5D3HxndmJpUFaPGCV7PveEX4AoS8a"], "asm": "OP_HASH160 16cff96d4650d16ae85e1289f50ac06e2ddead83 OP_EQUAL", "type": "scripthash"}, "value": 0.0041, "n": 5}, {"scriptPubKey": {"reqSigs": 1, "hex": "76a914a06d6f277444fe592fa3667b20663f2baa8599a488ac", "addresses": ["1FdGDKDbhu6LjY7ReHXb5iLU3u6F97Wa3u"], "asm": "OP_DUP OP_HASH160 a06d6f277444fe592fa3667b20663f2baa8599a4 OP_EQUALVERIFY OP_CHECKSIG", "type": "pubkeyhash"}, "value": 0.00703414, "n": 6}, {"scriptPubKey": {"reqSigs": 1, "hex": "a914b8e3aa9de2cd81820c494f973d81b7fa1092773487", "addresses": ["3JYczPF6srNKGHMWXga5EiDR8gJugqBptb"], "asm": "OP_HASH160 b8e3aa9de2cd81820c494f973d81b7fa10927734 OP_EQUAL", "type": "scripthash"}, "value": 0.00601407, "n": 7}, {"scriptPubKey": {"reqSigs": 1, "hex": "76a914217c0c475b2938782026192bd5f2b74176bba39988ac", "addresses": ["1443uLNgMfekn3rnvqCmUi45eRf2iNpQ3o"], "asm": "OP_DUP OP_HASH160 217c0c475b2938782026192bd5f2b74176bba399 OP_EQUALVERIFY OP_CHECKSIG", "type": "pubkeyhash"}, "value": 0.00455405, "n": 8}, {"scriptPubKey": {"reqSigs": 1, "hex": "a914443ac5630a87805619f5856e6ede5310f46dc9e687", "addresses": ["37unH57wADZMQtJ3f4kV3Aby4w26ELEtBb"], "asm": "OP_HASH160 443ac5630a87805619f5856e6ede5310f46dc9e6 OP_EQUAL", "type": "scripthash"}, "value": 0.00650172, "n": 9}, {"scriptPubKey": {"reqSigs": 1, "hex": "76a914d1cacf56c6f9c50f2c1fd61128b90a8a658f21b088ac", "addresses": ["1L8HBaDXwK6xySiSS4BbYvjfBq7nTRyoQm"], "asm": "OP_DUP OP_HASH160 d1cacf56c6f9c50f2c1fd61128b90a8a658f21b0 OP_EQUALVERIFY OP_CHECKSIG", "type": "pubkeyhash"}, "value": 0.0024491, "n": 10}, {"scriptPubKey": {"reqSigs": 1, "hex": "a914946bad972c0ad848985a0bf0775b32e5b5fd790a87", "addresses": ["3FDnvYEgrxQyCcz512tCGfct6G1hNBoDzt"], "asm": "OP_HASH160 946bad972c0ad848985a0bf0775b32e5b5fd790a OP_EQUAL", "type": "scripthash"}, "value": 0.00298983, "n": 11}, {"scriptPubKey": {"reqSigs": 1, "hex": "a914644f41c196e73e92749e1ba95305c72876f8a66c87", "addresses": ["3AqQSbAxYTt4pX3qGhEm1ZoqEEmphnJZBN"], "asm": "OP_HASH160 644f41c196e73e92749e1ba95305c72876f8a66c OP_EQUAL", "type": "scripthash"}, "value": 0.00371195, "n": 12}, {"scriptPubKey": {"reqSigs": 1, "hex": "a91428c97fecf4a59f681085d0d2bed29d780ee5b7d587", "addresses": ["35QgLfMybJPLG2mCiFLcLFw5u83xo4pBfM"], "asm": "OP_HASH160 28c97fecf4a59f681085d0d2bed29d780ee5b7d5 OP_EQUAL", "type": "scripthash"}, "value": 0.0055769, "n": 13}, {"scriptPubKey": {"reqSigs": 1, "hex": "a91416164078f56121d9947f64d0cfa428ea9f2f814d87", "addresses": ["33hoSrDX5gS56UqorscGM13LWu21PeTpbN"], "asm": "OP_HASH160 16164078f56121d9947f64d0cfa428ea9f2f814d OP_EQUAL", "type": "scripthash"}, "value": 0.00185, "n": 14}, {"scriptPubKey": {"reqSigs": 1, "hex": "a9141643338ab57ecfa599102a8e435c7228b76cabb587", "addresses": ["33ijHzeGshxif8RegqjEtXUsCnVuR25Rga"], "asm": "OP_HASH160 1643338ab57ecfa599102a8e435c7228b76cabb5 OP_EQUAL", "type": "scripthash"}, "value": 0.00216244, "n": 15}, {"scriptPubKey": {"reqSigs": 1, "hex": "a914351bab61ecd476cca55e4e00012a36c32f21771387", "addresses": ["36XptDe9mBbLu4jp5WsaQV3C9N8yg98zkE"], "asm": "OP_HASH160 351bab61ecd476cca55e4e00012a36c32f217713 OP_EQUAL", "type": "scripthash"}, "value": 18.43880207, "n": 16}, {"scriptPubKey": {"reqSigs": 1, "hex": "76a914a21b7618525bf2ff69c4a5aa95bc9dbb60a5465788ac", "addresses": ["1Fn9N84QMqAfHmdNYhVseYUW79TC3wxaWQ"], "asm": "OP_DUP OP_HASH160 a21b7618525bf2ff69c4a5aa95bc9dbb60a54657 OP_EQUALVERIFY OP_CHECKSIG", "type": "pubkeyhash"}, "value": 0.0008934, "n": 17}, {"scriptPubKey": {"reqSigs": 1, "hex": "a9147f4a1cfed68b52fc17f1be75f0af16bba55fee6087", "addresses": ["3DJ4XPLuGSB9vchA7twZKyKqzA4SV169Z5"], "asm": "OP_HASH160 7f4a1cfed68b52fc17f1be75f0af16bba55fee60 OP_EQUAL", "type": "scripthash"}, "value": 0.00438563, "n": 18}, {"scriptPubKey": {"reqSigs": 1, "hex": "a914839c23a1cab52422e6bb2941de5613c89230411487", "addresses": ["3DguVQzZ9pusxHgWbhcnmWZcUR9wWr7His"], "asm": "OP_HASH160 839c23a1cab52422e6bb2941de5613c892304114 OP_EQUAL", "type": "scripthash"}, "value": 0.00741535, "n": 19}, {"scriptPubKey": {"reqSigs": 1, "hex": "a914b7aeb2ca4de39482dd55eb45980829116c6bd17f87", "addresses": ["3JSEruX5dqbypBXWB9LGpkwdxthtnH9s3R"], "asm": "OP_HASH160 b7aeb2ca4de39482dd55eb45980829116c6bd17f OP_EQUAL", "type": "scripthash"}, "value": 0.00362156, "n": 20}, {"scriptPubKey": {"reqSigs": 1, "hex": "a9146ec36a751ce4c676a749d1c33c0826bcb3220f5a87", "addresses": ["3BngMNnKQGEbzE7n5i2bnbYwiCW41Pv5qp"], "asm": "OP_HASH160 6ec36a751ce4c676a749d1c33c0826bcb3220f5a OP_EQUAL", "type": "scripthash"}, "value": 0.00316329, "n": 21}, {"scriptPubKey": {"reqSigs": 1, "hex": "a914446307116f3b67d59d6d446e0c5362638bf70f6d87", "addresses": ["37vcW9VM6PQnm47F4FUtx6KHaURchFy8fv"], "asm": "OP_HASH160 446307116f3b67d59d6d446e0c5362638bf70f6d OP_EQUAL", "type": "scripthash"}, "value": 0.00369821, "n": 22}, {"scriptPubKey": {"reqSigs": 1, "hex": "a91454bd547ab96c6364942f8f1e3b4acd14fe5f403187", "addresses": ["39R5VY4ap1WPMNVgSS8iwgypSTkKubDFvH"], "asm": "OP_HASH160 54bd547ab96c6364942f8f1e3b4acd14fe5f4031 OP_EQUAL", "type": "scripthash"}, "value": 0.00918169, "n": 23}, {"scriptPubKey": {"reqSigs": 1, "hex": "a9147668300d828e62e89f449cc558b5b150e414e2ea87", "addresses": ["3CV6UGXQZpwmfZfgnaqsDtCPAjwQYZ1BdD"], "asm": "OP_HASH160 7668300d828e62e89f449cc558b5b150e414e2ea OP_EQUAL", "type": "scripthash"}, "value": 0.03570795, "n": 24}, {"scriptPubKey": {"reqSigs": 1, "hex": "a9146f2b4279c79c4a57c8ed38d672467d24572b46ea87", "addresses": ["3Bppka6w37nsDtJ5zgwn9xw8JEk1UbBVDz"], "asm": "OP_HASH160 6f2b4279c79c4a57c8ed38d672467d24572b46ea OP_EQUAL", "type": "scripthash"}, "value": 0.0007, "n": 25}, {"scriptPubKey": {"reqSigs": 1, "hex": "a9143382efbec81b4ceb9259222214a87c88eee49c5987", "addresses": ["36PPExLifdFQEPHwZj4iZ4iem5tNUwg9cg"], "asm": "OP_HASH160 3382efbec81b4ceb9259222214a87c88eee49c59 OP_EQUAL", "type": "scripthash"}, "value": 0.0028476, "n": 26}, {"scriptPubKey": {"reqSigs": 1, "hex": "76a914ed5c512f2436e1ff3d6f47905b39492891b4302188ac", "addresses": ["1Ne3jmfmSKNBzHDVKpDJ37NLHe98bKT4ds"], "asm": "OP_DUP OP_HASH160 ed5c512f2436e1ff3d6f47905b39492891b43021 OP_EQUALVERIFY OP_CHECKSIG", "type": "pubkeyhash"}, "value": 0.00260258, "n": 27}, {"scriptPubKey": {"reqSigs": 1, "hex": "a914b19bddda0a107f164f64e12642c61050fd32400b87", "addresses": ["3Ht8FJKuRYMpd3CqErXmNFYRmNSgB2u4A8"], "asm": "OP_HASH160 b19bddda0a107f164f64e12642c61050fd32400b OP_EQUAL", "type": "scripthash"}, "value": 0.00282363, "n": 28}, {"scriptPubKey": {"reqSigs": 1, "hex": "a914e71098535de51fa51f5bdf52dfecd4f5b3adf43f87", "addresses": ["3Nkmtu6FT3gmg4P6HKrsqpLXZiQLUXjGHu"], "asm": "OP_HASH160 e71098535de51fa51f5bdf52dfecd4f5b3adf43f OP_EQUAL", "type": "scripthash"}, "value": 0.0024, "n": 29}, {"scriptPubKey": {"reqSigs": 1, "hex": "a914c463ec1e73dc4ae4279a7caaa7b51c30647d7f1c87", "addresses": ["3KbS4sKX4Cx2YDRJYEidYAQEdqw9YCy5TH"], "asm": "OP_HASH160 c463ec1e73dc4ae4279a7caaa7b51c30647d7f1c OP_EQUAL", "type": "scripthash"}, "value": 0.01173753, "n": 30}, {"scriptPubKey": {"reqSigs": 1, "hex": "a914f279e3ff262397bb948852f80894342b2e5638af87", "addresses": ["3Po7U5JFoYVL3iRYm4WyNndUreA2nJs1YL"], "asm": "OP_HASH160 f279e3ff262397bb948852f80894342b2e5638af OP_EQUAL", "type": "scripthash"}, "value": 0.0166417, "n": 31}, {"scriptPubKey": {"reqSigs": 1, "hex": "76a914c70b85592bad91e6a13de8d6d3090bcc794abccc88ac", "addresses": ["1K9TGfGkfUJMfXJL6ABFrg2wTr12QnbpNe"], "asm": "OP_DUP OP_HASH160 c70b85592bad91e6a13de8d6d3090bcc794abccc OP_EQUALVERIFY OP_CHECKSIG", "type": "pubkeyhash"}, "value": 0.0084786, "n": 32}, {"scriptPubKey": {"reqSigs": 1, "hex": "76a914fd114e01688535353ff3375d218c8325219b01a588ac", "addresses": ["1Q56gtMLTJvhqE5mHVyNcyAyUNUx3c5nAm"], "asm": "OP_DUP OP_HASH160 fd114e01688535353ff3375d218c8325219b01a5 OP_EQUALVERIFY OP_CHECKSIG", "type": "pubkeyhash"}, "value": 0.08345847, "n": 33}, {"scriptPubKey": {"reqSigs": 1, "hex": "76a914961f825fe18342c059b27ec4a31a3fb649e13b9a88ac", "addresses": ["1Egn75VQ9fW6fWnaznDnbDKDNpAVbHzv9j"], "asm": "OP_DUP OP_HASH160 961f825fe18342c059b27ec4a31a3fb649e13b9a OP_EQUALVERIFY OP_CHECKSIG", "type": "pubkeyhash"}, "value": 0.2656, "n": 34}, {"scriptPubKey": {"reqSigs": 1, "hex": "a914170d47ea56bc37b648d96c0455cf762e001a5c9487", "addresses": ["33nuNjK35HUKkSSrxYirdPUnXDcBgHqy9s"], "asm": "OP_HASH160 170d47ea56bc37b648d96c0455cf762e001a5c94 OP_EQUAL", "type": "scripthash"}, "value": 0.05559063, "n": 35}], "hex": "020000000001019f4879f287804fd9c96a4d6ae033d1a0a39af65414f8399ca41a155136e6c7750800000017160014599ab49899f73b2189da79b84d1d3cd03e3cf03afeffffff24f34f04000000000017a914065de2855853b0c930999a210ac8b79e2c9707428728a10a000000000017a914a60db639f04a87fb664bb72fe25095047b80b41387409105000000000017a914a86e9408b5dc39e4416eb0c65d25b5f236cffd4f87b8a506000000000017a914362cc8b88212220cbefd1f910db4cb705708a2b887845606000000000017a914b0688b2c385ca147d87c6cfbd73d754214a647b087904106000000000017a91416cff96d4650d16ae85e1289f50ac06e2ddead8387b6bb0a00000000001976a914a06d6f277444fe592fa3667b20663f2baa8599a488ac3f2d09000000000017a914b8e3aa9de2cd81820c494f973d81b7fa1092773487edf20600000000001976a914217c0c475b2938782026192bd5f2b74176bba39988acbceb09000000000017a914443ac5630a87805619f5856e6ede5310f46dc9e687aebc0300000000001976a914d1cacf56c6f9c50f2c1fd61128b90a8a658f21b088ace78f04000000000017a914946bad972c0ad848985a0bf0775b32e5b5fd790a87fba905000000000017a914644f41c196e73e92749e1ba95305c72876f8a66c877a8208000000000017a91428c97fecf4a59f681085d0d2bed29d780ee5b7d587a8d202000000000017a91416164078f56121d9947f64d0cfa428ea9f2f814d87b44c03000000000017a9141643338ab57ecfa599102a8e435c7228b76cabb5870f61e76d0000000017a914351bab61ecd476cca55e4e00012a36c32f21771387fc5c0100000000001976a914a21b7618525bf2ff69c4a5aa95bc9dbb60a5465788ac23b106000000000017a9147f4a1cfed68b52fc17f1be75f0af16bba55fee60879f500b000000000017a914839c23a1cab52422e6bb2941de5613c89230411487ac8605000000000017a914b7aeb2ca4de39482dd55eb45980829116c6bd17f87a9d304000000000017a9146ec36a751ce4c676a749d1c33c0826bcb3220f5a879da405000000000017a914446307116f3b67d59d6d446e0c5362638bf70f6d8799020e000000000017a91454bd547ab96c6364942f8f1e3b4acd14fe5f4031876b7c36000000000017a9147668300d828e62e89f449cc558b5b150e414e2ea87701101000000000017a9146f2b4279c79c4a57c8ed38d672467d24572b46ea87585804000000000017a9143382efbec81b4ceb9259222214a87c88eee49c5987a2f80300000000001976a914ed5c512f2436e1ff3d6f47905b39492891b4302188acfb4e04000000000017a914b19bddda0a107f164f64e12642c61050fd32400b8780a903000000000017a914e71098535de51fa51f5bdf52dfecd4f5b3adf43f87f9e811000000000017a914c463ec1e73dc4ae4279a7caaa7b51c30647d7f1c87aa6419000000000017a914f279e3ff262397bb948852f80894342b2e5638af87f4ef0c00000000001976a914c70b85592bad91e6a13de8d6d3090bcc794abccc88acf7587f00000000001976a914fd114e01688535353ff3375d218c8325219b01a588ac00469501000000001976a914961f825fe18342c059b27ec4a31a3fb649e13b9a88ac17d354000000000017a914170d47ea56bc37b648d96c0455cf762e001a5c948702483045022100910754e2b2b34dd4da0b537d3f47afe936de00608bdb2d30bf37af377af1b8fe02203c89e8e033c8b61f5f942aac08ff379fcd01d57c19d78d92f219268453fbe5ff012102559ab7f8d56dcf40dc41152302e909e4599c210c86064263776df16b4c89bc860b490800", "vin": [{"txinwitness": ["3045022100910754e2b2b34dd4da0b537d3f47afe936de00608bdb2d30bf37af377af1b8fe02203c89e8e033c8b61f5f942aac08ff379fcd01d57c19d78d92f219268453fbe5ff01", "02559ab7f8d56dcf40dc41152302e909e4599c210c86064263776df16b4c89bc86"], "sequence": 4294967294, "scriptSig": {"hex": "160014599ab49899f73b2189da79b84d1d3cd03e3cf03a", "asm": "0014599ab49899f73b2189da79b84d1d3cd03e3cf03a"}, "vout": 8, "txid": "75c7e63651151aa49c39f81454f69aa3a0d133e06a4d6ac9d94f8087f279489f"}], "txid": "7e549b3d3908cdb213943448376752816ab0ab23add26758215b05474b26a986", "blocktime": 1537870268, "version": 2, "confirmations": 11516, "time": 1537870268, "locktime": 542987, "vsize": 1270, "size": 1352}