{"hash": "7e58265ff6ae775e5dba3ffceb1e04073fb2af9484fc2fe08a4df2b7c3522fee", "blockhash": "00000000000000000018f53835495a110e01622372bf6ae95dc86f2b0ab887b0", "vout": [{"scriptPubKey": {"type": "nulldata", "hex": "6a146f6d6e69000000000000001f00000029ed022580", "asm": "OP_RETURN 6f6d6e69000000000000001f00000029ed022580"}, "value": 0.0, "n": 0}, {"scriptPubKey": {"reqSigs": 1, "hex": "76a914ae667d6f3933d1d3fad28273415c3fde03f3934b88ac", "addresses": ["1Gu9MWQfDjZo4Sqtg3MwqqLb33d3zZ4uPT"], "asm": "OP_DUP OP_HASH160 ae667d6f3933d1d3fad28273415c3fde03f3934b OP_EQUALVERIFY OP_CHECKSIG", "type": "pubkeyhash"}, "value": 5.46e-06, "n": 1}, {"scriptPubKey": {"reqSigs": 1, "hex": "76a914a25dec4d0011064ef106a983c39c7a540699f22088ac", "addresses": ["1FoWyxwPXuj4C6abqwhjDWdz6D4PZgYRjA"], "asm": "OP_DUP OP_HASH160 a25dec4d0011064ef106a983c39c7a540699f220 OP_EQUALVERIFY OP_CHECKSIG", "type": "pubkeyhash"}, "value": 0.01995188, "n": 2}], "hex": "0100000001a44813c76173a4fe9689194c29809e35be05f1741d9b5e1e9e8bd44070ac1fea6b0000006a47304402203356fa6bede16df3b9253630ed1ce6f2849b9efef6cca9da6079b6e6ba8d98f6022069aa0bc5d373ca12f09a4f62702bd7e62ee52ad2acc96825eb4d7ec94f2d0576012103da5bac7b36d5aa38f531c6b9601e21bb598a4b6716ebed38b009a55dabde9440feffffff030000000000000000166a146f6d6e69000000000000001f00000029ed02258022020000000000001976a914ae667d6f3933d1d3fad28273415c3fde03f3934b88acb4711e00000000001976a914a25dec4d0011064ef106a983c39c7a540699f22088ac0e490800", "vin": [{"sequence": 4294967294, "scriptSig": {"hex": "47304402203356fa6bede16df3b9253630ed1ce6f2849b9efef6cca9da6079b6e6ba8d98f6022069aa0bc5d373ca12f09a4f62702bd7e62ee52ad2acc96825eb4d7ec94f2d0576012103da5bac7b36d5aa38f531c6b9601e21bb598a4b6716ebed38b009a55dabde9440", "asm": "304402203356fa6bede16df3b9253630ed1ce6f2849b9efef6cca9da6079b6e6ba8d98f6022069aa0bc5d373ca12f09a4f62702bd7e62ee52ad2acc96825eb4d7ec94f2d0576[ALL] 03da5bac7b36d5aa38f531c6b9601e21bb598a4b6716ebed38b009a55dabde9440"}, "vout": 107, "txid": "ea1fac7040d48b9e1e5e9b1d74f105be359e80294c198996fea47361c71348a4"}], "txid": "7e58265ff6ae775e5dba3ffceb1e04073fb2af9484fc2fe08a4df2b7c3522fee", "blocktime": 1537870928, "version": 1, "confirmations": 11512, "time": 1537870928, "locktime": 542990, "vsize": 256, "size": 256}