{"hash": "7e593c5b2fcbb0705cd85576688887a7a9f1680012779138690e424ad5370dbe", "blockhash": "00000000000000000004ffacab907a6b429b9a5745fa0b75af4234bf69dd7176", "vout": [{"scriptPubKey": {"reqSigs": 1, "hex": "a91470d30d230213ff001fd346f52638c1bf828691fa87", "addresses": ["3ByaS8ZjNTi7oVpuGSKijmsp5i8huZDU9D"], "asm": "OP_HASH160 70d30d230213ff001fd346f52638c1bf828691fa OP_EQUAL", "type": "scripthash"}, "value": 0.001074, "n": 0}, {"scriptPubKey": {"reqSigs": 1, "hex": "76a9149dfc7639338af7552a2e6fb02b1ece626e7bb52c88ac", "addresses": ["1FQMXUM3xrveviqGrqv6cw5B3w2N3HpfxU"], "asm": "OP_DUP OP_HASH160 9dfc7639338af7552a2e6fb02b1ece626e7bb52c OP_EQUALVERIFY OP_CHECKSIG", "type": "pubkeyhash"}, "value": 0.00125844, "n": 1}], "hex": "0100000001402bab2ba21a00f4204864cd998139ffc06f88f6a6686641262a69a034e7bc7b000000006b4830450221009417ef76a42cc0b21950290772c84e97eae351bde660a00e25e2e6cbd41b31c602206648f25a5996b351c1d48043d6174180994ed9a2d1846c699a3f346027056a66012103d7c86f7c65699205484cf356eccccce81a8260103a5fba507740546d52494021ffffffff0288a301000000000017a91470d30d230213ff001fd346f52638c1bf828691fa8794eb0100000000001976a9149dfc7639338af7552a2e6fb02b1ece626e7bb52c88ac00000000", "vin": [{"sequence": 4294967295, "scriptSig": {"hex": "4830450221009417ef76a42cc0b21950290772c84e97eae351bde660a00e25e2e6cbd41b31c602206648f25a5996b351c1d48043d6174180994ed9a2d1846c699a3f346027056a66012103d7c86f7c65699205484cf356eccccce81a8260103a5fba507740546d52494021", "asm": "30450221009417ef76a42cc0b21950290772c84e97eae351bde660a00e25e2e6cbd41b31c602206648f25a5996b351c1d48043d6174180994ed9a2d1846c699a3f346027056a66[ALL] 03d7c86f7c65699205484cf356eccccce81a8260103a5fba507740546d52494021"}, "vout": 0, "txid": "7bbce734a0692a26416668a6f6886fc0ff398199cd644820f4001aa22bab2b40"}], "txid": "7e593c5b2fcbb0705cd85576688887a7a9f1680012779138690e424ad5370dbe", "blocktime": 1537875543, "version": 1, "confirmations": 11464, "time": 1537875543, "locktime": 0, "vsize": 224, "size": 224}