{"hash": "7e5ff8096ae5f96e8da1319ef65e4d815a284b5dbb6665d04930f6ffe50ee999", "blockhash": "00000000000000000018f53835495a110e01622372bf6ae95dc86f2b0ab887b0", "vout": [{"scriptPubKey": {"reqSigs": 1, "hex": "a914a50715307e1a4e7ba525db517ebd16d80fa8c3b987", "addresses": ["3GjbuKF4npPiVat2z6Lyv3QjPYTDXfmpHW"], "asm": "OP_HASH160 a50715307e1a4e7ba525db517ebd16d80fa8c3b9 OP_EQUAL", "type": "scripthash"}, "value": 0.00196927, "n": 0}, {"scriptPubKey": {"reqSigs": 1, "hex": "76a9145fa811f4f1c445ad388fde91bed1833d6cc508eb88ac", "addresses": ["19inXweacm9kiieZ1whH6nCFUtX2QJHyVz"], "asm": "OP_DUP OP_HASH160 5fa811f4f1c445ad388fde91bed1833d6cc508eb OP_EQUALVERIFY OP_CHECKSIG", "type": "pubkeyhash"}, "value": 0.06641512, "n": 1}], "hex": "01000000017c5cbf52ad4d94baab05b4959e3e36d0308372aea05f1b981959123a8fef79cb010000006b483045022100ce8b35caf019decd2b164d74d6689cee162cc0cefbb4f28edf2b593f5660d39502202c1b955308b8b8cb6698e5421a24e55e6cacc9b7043a49d83264ae88af1866d001210268cfed4fe186ffb2b877508f2a9cb4380196253b6acad3c3afebdbe91127e54dffffffff023f0103000000000017a914a50715307e1a4e7ba525db517ebd16d80fa8c3b98768576500000000001976a9145fa811f4f1c445ad388fde91bed1833d6cc508eb88ac00000000", "vin": [{"sequence": 4294967295, "scriptSig": {"hex": "483045022100ce8b35caf019decd2b164d74d6689cee162cc0cefbb4f28edf2b593f5660d39502202c1b955308b8b8cb6698e5421a24e55e6cacc9b7043a49d83264ae88af1866d001210268cfed4fe186ffb2b877508f2a9cb4380196253b6acad3c3afebdbe91127e54d", "asm": "3045022100ce8b35caf019decd2b164d74d6689cee162cc0cefbb4f28edf2b593f5660d39502202c1b955308b8b8cb6698e5421a24e55e6cacc9b7043a49d83264ae88af1866d0[ALL] 0268cfed4fe186ffb2b877508f2a9cb4380196253b6acad3c3afebdbe91127e54d"}, "vout": 1, "txid": "cb79ef8f3a125919981b5fa0ae728330d0363e9e95b405abba944dad52bf5c7c"}], "txid": "7e5ff8096ae5f96e8da1319ef65e4d815a284b5dbb6665d04930f6ffe50ee999", "blocktime": 1537870928, "version": 1, "confirmations": 11512, "time": 1537870928, "locktime": 0, "vsize": 224, "size": 224}