{"hash": "39f9d6553b61e4e5bc6b7bb4041077c18a94a02a2722ec440737fd3b4e9c852f", "blockhash": "00000000000000000004ffacab907a6b429b9a5745fa0b75af4234bf69dd7176", "vout": [{"scriptPubKey": {"reqSigs": 1, "hex": "a91427dc55d61aab30f0f01b81d726c0567f860770e587", "addresses": ["35KnEByaM2KmHcvoi8f9vcvt1jQ37Lxbg1"], "asm": "OP_HASH160 27dc55d61aab30f0f01b81d726c0567f860770e5 OP_EQUAL", "type": "scripthash"}, "value": 0.002, "n": 0}, {"scriptPubKey": {"reqSigs": 1, "hex": "a914ab5dca7eaf0a6e36e6799c63c83e3384f8f4f3ec87", "addresses": ["3HK7q4Pyj4jfHYh3Km5KuDguCXWn4YHDDf"], "asm": "OP_HASH160 ab5dca7eaf0a6e36e6799c63c83e3384f8f4f3ec OP_EQUAL", "type": "scripthash"}, "value": 0.48681477, "n": 1}], "hex": "02000000000101704f2a04c97c3c69d745f0da05adace9335668b10698015a32ba13be900fdfff0200000017160014be755d4f39f4d55910548ab6dff53aa558d8295bffffffff02400d03000000000017a91427dc55d61aab30f0f01b81d726c0567f860770e58705d2e6020000000017a914ab5dca7eaf0a6e36e6799c63c83e3384f8f4f3ec87024730440220740693916d3b129965956fb8d99bccf136afaf8ca73a1c92b35ea9bc22272524022007e41d8cb22f0db41511a3e3fe46b6eb0ca9aef2149bee1138e08d88058a7f030121024f44283583e13bd09026264ee3b2bc0ac7e34b7bb2b0df07e62820969b1a361600000000", "vin": [{"txinwitness": ["30440220740693916d3b129965956fb8d99bccf136afaf8ca73a1c92b35ea9bc22272524022007e41d8cb22f0db41511a3e3fe46b6eb0ca9aef2149bee1138e08d88058a7f0301", "024f44283583e13bd09026264ee3b2bc0ac7e34b7bb2b0df07e62820969b1a3616"], "sequence": 4294967295, "scriptSig": {"hex": "160014be755d4f39f4d55910548ab6dff53aa558d8295b", "asm": "0014be755d4f39f4d55910548ab6dff53aa558d8295b"}, "vout": 2, "txid": "ffdf0f90be13ba325a019806b1685633e9acad05daf045d7693c7cc9042a4f70"}], "txid": "7e602ca18701a8b8c0a591e9505b02333624b95a8b3fbf5847c75d0fca6c9233", "blocktime": 1537875543, "version": 2, "confirmations": 11464, "time": 1537875543, "locktime": 0, "vsize": 166, "size": 247}