{"hash": "7e615e054176e4f83c475a4178210030212a5ce9f3a99ff19d52ee2b890ff4fa", "blockhash": "0000000000000000001f76057863aec43deb6fa401d9628bb513d65a8098bfab", "vout": [{"scriptPubKey": {"reqSigs": 1, "hex": "a914419e6c96ca8cf78672c1a6f081aea1e4c075eda487", "addresses": ["37fydWxwgjmGVUjX8gXEpPezrfZL1oz8JG"], "asm": "OP_HASH160 419e6c96ca8cf78672c1a6f081aea1e4c075eda4 OP_EQUAL", "type": "scripthash"}, "value": 0.004559, "n": 0}, {"scriptPubKey": {"reqSigs": 1, "hex": "76a914da3148406804beba32e10f1f26289882152296cb88ac", "addresses": ["1LthM1VummJt7F1R2fbWtRiJGyX8TwRKnh"], "asm": "OP_DUP OP_HASH160 da3148406804beba32e10f1f26289882152296cb OP_EQUALVERIFY OP_CHECKSIG", "type": "pubkeyhash"}, "value": 0.13009043, "n": 1}], "hex": "010000000138b5c235c0e79484298f9978a3126ecfecbd6271a5afd7ada6d6b04613762cf5010000006b483045022100a0579d8d5337365f39b274504cef45fde98a22561de80d1c27c380e2408b062c022039cbe436aec304a9dee58d8a25f55ef09e169bae261d82fe6f78e0bb6098bea6012102c52859695da055c1f17b6050bbfbd25d2c855fc53128f559ee450a8ecd27e2e9fdffffff02dcf406000000000017a914419e6c96ca8cf78672c1a6f081aea1e4c075eda4879380c600000000001976a914da3148406804beba32e10f1f26289882152296cb88ac14490800", "vin": [{"sequence": 4294967293, "scriptSig": {"hex": "483045022100a0579d8d5337365f39b274504cef45fde98a22561de80d1c27c380e2408b062c022039cbe436aec304a9dee58d8a25f55ef09e169bae261d82fe6f78e0bb6098bea6012102c52859695da055c1f17b6050bbfbd25d2c855fc53128f559ee450a8ecd27e2e9", "asm": "3045022100a0579d8d5337365f39b274504cef45fde98a22561de80d1c27c380e2408b062c022039cbe436aec304a9dee58d8a25f55ef09e169bae261d82fe6f78e0bb6098bea6[ALL] 02c52859695da055c1f17b6050bbfbd25d2c855fc53128f559ee450a8ecd27e2e9"}, "vout": 1, "txid": "f52c761346b0d6a6add7afa57162bdeccf6e12a378998f298494e7c035c2b538"}], "txid": "7e615e054176e4f83c475a4178210030212a5ce9f3a99ff19d52ee2b890ff4fa", "blocktime": 1537873891, "version": 1, "confirmations": 11477, "time": 1537873891, "locktime": 542996, "vsize": 224, "size": 224}