{"hash": "a471f04e9d6c12d6c3e749100cc23f98a3d2ceef63eab62232098ed2e20be5a1", "blockhash": "0000000000000000001cda96e906b7601b7a6fb1a3b62bca570a9e5d8f4b3de1", "vout": [{"scriptPubKey": {"reqSigs": 1, "hex": "00142e1a2c3a7207fc7d5a0f85b997ade6c342a2cdc3", "addresses": ["bc1q9cdzcwnjql786ks0skue0t0xcdp29nwrf3j5my"], "asm": "0 2e1a2c3a7207fc7d5a0f85b997ade6c342a2cdc3", "type": "witness_v0_keyhash"}, "value": 0.54901119, "n": 0}, {"scriptPubKey": {"reqSigs": 1, "hex": "76a9140e7e1e9f9d4de5f12974267a4d049be4be4a005088ac", "addresses": ["12KdYdaY15atmMJ3uqpr4ZJpcNUzzYG7HY"], "asm": "OP_DUP OP_HASH160 0e7e1e9f9d4de5f12974267a4d049be4be4a0050 OP_EQUALVERIFY OP_CHECKSIG", "type": "pubkeyhash"}, "value": 0.00988355, "n": 1}], "hex": "01000000000101212affd168bff6074eafd89cb51e407d6483497b7261dbebd21c662b4da7c3c40000000000ffffffff027fb94503000000001600142e1a2c3a7207fc7d5a0f85b997ade6c342a2cdc3c3140f00000000001976a9140e7e1e9f9d4de5f12974267a4d049be4be4a005088ac0247304402206f52b3aba7a1419b417c3c20e84fe5b7d19bff3daed2ce3399b186eb59fb123d022041531900fff2b85d6e2cffcb26d55ee080158a23f979612e9d3c6bf2d614d51e0121029af4cf089b5467cef98f1eb6dd6d85fbc8bc5f4a79e655274c112a39dbd9dd7b00000000", "vin": [{"txinwitness": ["304402206f52b3aba7a1419b417c3c20e84fe5b7d19bff3daed2ce3399b186eb59fb123d022041531900fff2b85d6e2cffcb26d55ee080158a23f979612e9d3c6bf2d614d51e01", "029af4cf089b5467cef98f1eb6dd6d85fbc8bc5f4a79e655274c112a39dbd9dd7b"], "sequence": 4294967295, "scriptSig": {"hex": "", "asm": ""}, "vout": 0, "txid": "c4c3a74d2b661cd2ebdb61727b4983647d401eb59cd8af4e07f6bf68d1ff2a21"}], "txid": "7e650cb74ba6f020761b4609d53cf15c0a8d48df5067f123c78d3902fc38c620", "blocktime": 1537873282, "version": 1, "confirmations": 11484, "time": 1537873282, "locktime": 0, "vsize": 144, "size": 225}