{"hash": "35585cb8f0f4382f22e7ab6e577f1ce252bcd6e841f0047a46d82db04e076739", "blockhash": "00000000000000000018f53835495a110e01622372bf6ae95dc86f2b0ab887b0", "vout": [{"scriptPubKey": {"reqSigs": 1, "hex": "a914c0b4529b1ae865ac93d6ca141e5774c1409ac41a87", "addresses": ["3KFwgQzx9FA69myYjpBdPbQjX5Ea5TrLND"], "asm": "OP_HASH160 c0b4529b1ae865ac93d6ca141e5774c1409ac41a OP_EQUAL", "type": "scripthash"}, "value": 0.01001962, "n": 0}, {"scriptPubKey": {"reqSigs": 1, "hex": "76a9149e13987671dc6e2f15c92c294037fe48fb89493388ac", "addresses": ["1FQqEqHBtbxJGctpQnjEqsypA7PbC7FoNy"], "asm": "OP_DUP OP_HASH160 9e13987671dc6e2f15c92c294037fe48fb894933 OP_EQUALVERIFY OP_CHECKSIG", "type": "pubkeyhash"}, "value": 0.0019926, "n": 1}], "hex": "020000000001029034a2a0642efe4743f3e33705222c698f8d7c11662357eea2ebfba9c87d3dbd0000000017160014253ed0357cfbcbc2a8dc2307073d69ddf5b86328feffffffc06301dca41d7dd761ba0cf658b801aa2bd9e5f8d1d3dbe1e8f616358a492ab4010000001716001454b4ef8678756de0f3b35cbf1a1b0d5bbf1c6ed7feffffff02ea490f000000000017a914c0b4529b1ae865ac93d6ca141e5774c1409ac41a875c0a0300000000001976a9149e13987671dc6e2f15c92c294037fe48fb89493388ac024730440220299f453984e2909ff269c20cafc175f3bb270c983a96c661e3442558c2d6877b02205dccb3cec2ed9d7774fc04d8012bb6872d4389f73e89d27d816d1388708318070121039faea9b53b69ce8ce2ea2e167bd40a34589dfdefe150255ec913557e7dfdb6f202473044022100e7e0cf1dc32e3236127ab60b4b09d2a023835035f261ebd0804d44aa553efe85021f127630fe0de6b5162dc90b6efe8824b8727d24e7a7d71e035fd689d66db4590121034417b4556be68898b7f0bb35ddb758ecc98404a19231b1972abbd20ac57f597d0e490800", "vin": [{"txinwitness": ["30440220299f453984e2909ff269c20cafc175f3bb270c983a96c661e3442558c2d6877b02205dccb3cec2ed9d7774fc04d8012bb6872d4389f73e89d27d816d13887083180701", "039faea9b53b69ce8ce2ea2e167bd40a34589dfdefe150255ec913557e7dfdb6f2"], "sequence": 4294967294, "scriptSig": {"hex": "160014253ed0357cfbcbc2a8dc2307073d69ddf5b86328", "asm": "0014253ed0357cfbcbc2a8dc2307073d69ddf5b86328"}, "vout": 0, "txid": "bd3d7dc8a9fbeba2ee572366117c8d8f692c220537e3f34347fe2e64a0a23490"}, {"txinwitness": ["3044022100e7e0cf1dc32e3236127ab60b4b09d2a023835035f261ebd0804d44aa553efe85021f127630fe0de6b5162dc90b6efe8824b8727d24e7a7d71e035fd689d66db45901", "034417b4556be68898b7f0bb35ddb758ecc98404a19231b1972abbd20ac57f597d"], "sequence": 4294967294, "scriptSig": {"hex": "16001454b4ef8678756de0f3b35cbf1a1b0d5bbf1c6ed7", "asm": "001454b4ef8678756de0f3b35cbf1a1b0d5bbf1c6ed7"}, "vout": 1, "txid": "b42a498a3516f6e8e1dbd3d1f8e5d92baa01b858f60cba61d77d1da4dc0163c0"}], "txid": "7e66b791f24349205fe3def674ff7e9ee11be9e5cebb5af1ea2c494ae4df27d8", "blocktime": 1537870928, "version": 2, "confirmations": 11514, "time": 1537870928, "locktime": 542990, "vsize": 258, "size": 420}