{"hash": "453fe361a50db3f484f5fd60a1cdbe298fa29f52da886e78974d98e239655fba", "blockhash": "0000000000000000001e0dab787dd257d1dbfcb92a98c2207d5e1078be1f4165", "vout": [{"scriptPubKey": {"reqSigs": 1, "hex": "a91430897cc6c9d69f6a2c2f1c651d51f22219f1a4f687", "addresses": ["367f4YWz1VCFaqBqwbTrzwi2b1h2U3w1AF"], "asm": "OP_HASH160 30897cc6c9d69f6a2c2f1c651d51f22219f1a4f6 OP_EQUAL", "type": "scripthash"}, "value": 0.03087733, "n": 0}, {"scriptPubKey": {"reqSigs": 1, "hex": "a914caa2135b86b7a9a2dd5d7716dfee511817648f4c87", "addresses": ["3LASaWDyc3iKf7NvcTYu57wcigWqShUqio"], "asm": "OP_HASH160 caa2135b86b7a9a2dd5d7716dfee511817648f4c OP_EQUAL", "type": "scripthash"}, "value": 0.20546158, "n": 1}], "hex": "01000000000101a551a00396c8ae8b597373bfb8333475d371f5fa7ba202303fc846f089f0c6150000000023220020bcf9f822194145acea0f3235f4107b5bf1a91b6b9f8489f63bf79ec29b360913ffffffff02751d2f000000000017a91430897cc6c9d69f6a2c2f1c651d51f22219f1a4f6876e8239010000000017a914caa2135b86b7a9a2dd5d7716dfee511817648f4c87040047304402206a88a3dfbe5358b0da5a46851a521d85c24e9966ba7e6a8c1385ed8bb059aca802200430d97ed33c50d48e0f36f6b4ff43de56a5af8299004ce86e07848eb850e408014730440220237ec44f81aeae95c797ae4b026cb49882d62903486eb99b8a4e31ed5062ee1a0220214b1133d7a2e9407c27d8d318d23d0287aa1500e89f0d1e9f9f5563e64b136801695221026c8f72b9e63db63907115e65d4da86eaae595b22fdc85ec75301bb4adbf203582103806535be3e3920e5eedee92de5714188fd6a784f2bf7b04f87de0b9c3ae1ecdb21024b23bfdce2afcae7e28c42f7f79aa100f22931712c52d7414a526ba494d44a2553ae00000000", "vin": [{"txinwitness": ["", "304402206a88a3dfbe5358b0da5a46851a521d85c24e9966ba7e6a8c1385ed8bb059aca802200430d97ed33c50d48e0f36f6b4ff43de56a5af8299004ce86e07848eb850e40801", "30440220237ec44f81aeae95c797ae4b026cb49882d62903486eb99b8a4e31ed5062ee1a0220214b1133d7a2e9407c27d8d318d23d0287aa1500e89f0d1e9f9f5563e64b136801", "5221026c8f72b9e63db63907115e65d4da86eaae595b22fdc85ec75301bb4adbf203582103806535be3e3920e5eedee92de5714188fd6a784f2bf7b04f87de0b9c3ae1ecdb21024b23bfdce2afcae7e28c42f7f79aa100f22931712c52d7414a526ba494d44a2553ae"], "sequence": 4294967295, "scriptSig": {"hex": "220020bcf9f822194145acea0f3235f4107b5bf1a91b6b9f8489f63bf79ec29b360913", "asm": "0020bcf9f822194145acea0f3235f4107b5bf1a91b6b9f8489f63bf79ec29b360913"}, "vout": 0, "txid": "15c6f089f046c83f3002a27bfaf571d3753433b8bf7373598baec89603a051a5"}], "txid": "7e6b63e10b4c90417cf3785c60ec53b5d247d0d631482b9bda12ab78dd320d7d", "blocktime": 1537872475, "version": 1, "confirmations": 11486, "time": 1537872475, "locktime": 0, "vsize": 214, "size": 404}