{"hash": "dfb64ad05374a098e11e46251303d6116b0b1869bb8d9f8ce6994977fb42b89b", "blockhash": "0000000000000000000dcc0f55137456b1a82d3642486a52398922ac4d620174", "vout": [{"scriptPubKey": {"reqSigs": 1, "hex": "a91449d7e96499e76d96ef877a2fcb98823c8bccba2187", "addresses": ["38RTuMXR3rjgmqC2TwiJHrCLzc9nbGoNw7"], "asm": "OP_HASH160 49d7e96499e76d96ef877a2fcb98823c8bccba21 OP_EQUAL", "type": "scripthash"}, "value": 0.00138385, "n": 0}], "hex": "01000000000101f9a182967dfa1cbd22c722c2d6746ff99e89ba7ecfa20313a64e28778fa1c4a900000000171600149b70ecc3364b40c03a8b2cfa6b77039d12a6c062ffffffff01911c02000000000017a91449d7e96499e76d96ef877a2fcb98823c8bccba2187024730440220513d95b3ef792669b3c730eda39088426fb8f3dabaf76539ffe78ac5b7f824c70220457b38b5e9ddd65538bae113f523050ff022f222e41646506155d8f42992945a0121027fed009dec24639bcb77e64ff21023353427fe1cd0400cd40d255356f0bbea6700000000", "vin": [{"txinwitness": ["30440220513d95b3ef792669b3c730eda39088426fb8f3dabaf76539ffe78ac5b7f824c70220457b38b5e9ddd65538bae113f523050ff022f222e41646506155d8f42992945a01", "027fed009dec24639bcb77e64ff21023353427fe1cd0400cd40d255356f0bbea67"], "sequence": 4294967295, "scriptSig": {"hex": "1600149b70ecc3364b40c03a8b2cfa6b77039d12a6c062", "asm": "00149b70ecc3364b40c03a8b2cfa6b77039d12a6c062"}, "vout": 0, "txid": "a9c4a18f77284ea61303a2cf7eba899ef96f74d6c222c722bd1cfa7d9682a1f9"}], "txid": "7e6fb38501d46e6da3f29d1e801cc270ae55dec0391750d5d4f1a6471c7b9fc9", "blocktime": 1537870268, "version": 1, "confirmations": 11518, "time": 1537870268, "locktime": 0, "vsize": 134, "size": 215}