{"hash": "0d6c1311098ffb132ef8d41c4f044edcdba943342b9744bde1767fe9bfbbc277", "blockhash": "00000000000000000018f53835495a110e01622372bf6ae95dc86f2b0ab887b0", "vout": [{"scriptPubKey": {"reqSigs": 1, "hex": "a91473526abcaa73f1ff18ac04349af2d42865816ed987", "addresses": ["3CCnN2uhuRk8S65csPYtwAZf56F2Zzgkd4"], "asm": "OP_HASH160 73526abcaa73f1ff18ac04349af2d42865816ed9 OP_EQUAL", "type": "scripthash"}, "value": 0.00197107, "n": 0}], "hex": "02000000000101e335aa40d36624600c1937e6043e4ac90315ec9d2d0f6ef0d33bd919466b925c0200000017160014cd9bbcedab2b674efc10d938d7f542ab7ad37f97ffffffff01f30103000000000017a91473526abcaa73f1ff18ac04349af2d42865816ed98702483045022100ec141b6c35b88f1c59f9223e3874278cb23e33f4d4c3d17d448f9102e1a39fc4022030427c1b98e89e8096518804bde32cd7e6697d3b22aae8e4c92d0ca241f5032101210245235a4e2126e4d16ad94694587a9cf8e682c2f1a69f8309c8ba3d0ab739608f00000000", "vin": [{"txinwitness": ["3045022100ec141b6c35b88f1c59f9223e3874278cb23e33f4d4c3d17d448f9102e1a39fc4022030427c1b98e89e8096518804bde32cd7e6697d3b22aae8e4c92d0ca241f5032101", "0245235a4e2126e4d16ad94694587a9cf8e682c2f1a69f8309c8ba3d0ab739608f"], "sequence": 4294967295, "scriptSig": {"hex": "160014cd9bbcedab2b674efc10d938d7f542ab7ad37f97", "asm": "0014cd9bbcedab2b674efc10d938d7f542ab7ad37f97"}, "vout": 2, "txid": "5c926b4619d93bd3f06e0f2d9dec1503c94a3e04e637190c602466d340aa35e3"}], "txid": "7e772d1ba342191bcb9a3bc78c6b2915d4020653d05fe1e333d40340b9533d9d", "blocktime": 1537870928, "version": 2, "confirmations": 11512, "time": 1537870928, "locktime": 0, "vsize": 134, "size": 216}