{"hash": "7e78f91bf3005c91c05a5227c18b62529def8ab7c8d74aa2776ee23e04b8807c", "blockhash": "0000000000000000001f76057863aec43deb6fa401d9628bb513d65a8098bfab", "vout": [{"scriptPubKey": {"reqSigs": 1, "hex": "a9141c42bfc841404e2c8d132a335272af7b532db11e87", "addresses": ["34GSoj8bSYCR2HYASFSz54AjvbyLCPdkAs"], "asm": "OP_HASH160 1c42bfc841404e2c8d132a335272af7b532db11e OP_EQUAL", "type": "scripthash"}, "value": 0.03077829, "n": 0}, {"scriptPubKey": {"reqSigs": 1, "hex": "76a914f0d719beeec57a116e4e6d0c70245ea297fe720188ac", "addresses": ["1NxSrVMdbA8gBB5tq7nortzHhyRzkdB1oq"], "asm": "OP_DUP OP_HASH160 f0d719beeec57a116e4e6d0c70245ea297fe7201 OP_EQUALVERIFY OP_CHECKSIG", "type": "pubkeyhash"}, "value": 0.00047286, "n": 1}], "hex": "01000000011972b76b045cb1d0ef2a25911db7bdf61da524ebea988f52c32eef1e8cb22d7500000000da00483045022100ee06ba48822e4a6c39aa8adf5b24fee4fd5713af9c78927ab11ac9f105df59cf0220405c2c9826b7a435c5cb30ca51775e4f4f6cabbeecc6ae61095571102b6830a1014730440220557f61c4d09380083f13132761b20687d33db87e4f668abc225e9d494b1146e902205c6f027e843488cae058914359ad7236499f36621c823eac4734f5cc7127f2840147522102907a54bed8ad74b3f35638c60114ca240a308cb986f3f2f306178869a8880b612102c3dfd7ad39b9b0f0191d53321f595c66f444d676e15577bde1fd11f5d084603e52aeffffffff02c5f62e000000000017a9141c42bfc841404e2c8d132a335272af7b532db11e87b6b80000000000001976a914f0d719beeec57a116e4e6d0c70245ea297fe720188ac00000000", "vin": [{"sequence": 4294967295, "scriptSig": {"hex": "00483045022100ee06ba48822e4a6c39aa8adf5b24fee4fd5713af9c78927ab11ac9f105df59cf0220405c2c9826b7a435c5cb30ca51775e4f4f6cabbeecc6ae61095571102b6830a1014730440220557f61c4d09380083f13132761b20687d33db87e4f668abc225e9d494b1146e902205c6f027e843488cae058914359ad7236499f36621c823eac4734f5cc7127f2840147522102907a54bed8ad74b3f35638c60114ca240a308cb986f3f2f306178869a8880b612102c3dfd7ad39b9b0f0191d53321f595c66f444d676e15577bde1fd11f5d084603e52ae", "asm": "0 3045022100ee06ba48822e4a6c39aa8adf5b24fee4fd5713af9c78927ab11ac9f105df59cf0220405c2c9826b7a435c5cb30ca51775e4f4f6cabbeecc6ae61095571102b6830a1[ALL] 30440220557f61c4d09380083f13132761b20687d33db87e4f668abc225e9d494b1146e902205c6f027e843488cae058914359ad7236499f36621c823eac4734f5cc7127f284[ALL] 522102907a54bed8ad74b3f35638c60114ca240a308cb986f3f2f306178869a8880b612102c3dfd7ad39b9b0f0191d53321f595c66f444d676e15577bde1fd11f5d084603e52ae"}, "vout": 0, "txid": "752db28c1eef2ec3528f98eaeb24a51df6bdb71d91252aefd0b15c046bb77219"}], "txid": "7e78f91bf3005c91c05a5227c18b62529def8ab7c8d74aa2776ee23e04b8807c", "blocktime": 1537873891, "version": 1, "confirmations": 11478, "time": 1537873891, "locktime": 0, "vsize": 335, "size": 335}