{"hash": "12e76415cdc4d08b79dd735938aecf5f3c969e2e6e176a69aabc2156cb9a3373", "blockhash": "00000000000000000024a2167bbff67b0be802c0b01cdd79e6331c2be6459f87", "vout": [{"scriptPubKey": {"reqSigs": 1, "hex": "a914c0863b626e0087c828b73af287f4d4fb8053be6887", "addresses": ["3KEzTyZbPuekA8NuvMFp35DdHLFC6oK6d3"], "asm": "OP_HASH160 c0863b626e0087c828b73af287f4d4fb8053be68 OP_EQUAL", "type": "scripthash"}, "value": 0.01543997, "n": 0}, {"scriptPubKey": {"reqSigs": 1, "hex": "76a91401716372974b5b3f51d7b39f7160e66c0c4c24ab88ac", "addresses": ["18dWZX3D4GWkh9mDpiVRNmfMx8Z2xhg48"], "asm": "OP_DUP OP_HASH160 01716372974b5b3f51d7b39f7160e66c0c4c24ab OP_EQUALVERIFY OP_CHECKSIG", "type": "pubkeyhash"}, "value": 0.273397, "n": 1}, {"scriptPubKey": {"reqSigs": 1, "hex": "a9141988a27e3c2df4ddee7fad5a2303d086179b2a3087", "addresses": ["3422VtS7UtCvXYxoXMVp6eZupR252z85oC"], "asm": "OP_HASH160 1988a27e3c2df4ddee7fad5a2303d086179b2a30 OP_EQUAL", "type": "scripthash"}, "value": 0.67477723, "n": 2}], "hex": "010000000001014da1c15e2bdbec44e6bcbcf5111d964704681b47ceed78cabee64c4c812be5d0030000002322002065d416c48a8072e0ac51c2d111eb194f009caef0332446c1bf2097316cf07fa9ffffffff033d8f17000000000017a914c0863b626e0087c828b73af287f4d4fb8053be6887b42ba101000000001976a91401716372974b5b3f51d7b39f7160e66c0c4c24ab88acdba005040000000017a9141988a27e3c2df4ddee7fad5a2303d086179b2a3087040047304402206482ba765d5bc056efe29c96f14626ec5b20cd35340796a1201a2b920dffde5c0220276deda059bc8774958f94d01cb2cce8f6d6bed5828eab3a3990ef3f14aaad2b01473044022074f00148efb0550116518071122957e6a232790956a8ea219034d50b1d40287202200e3932cb3a26a07fca71fe3823ef8503b0e2851cf3aec1e98a77654c1661f5560169522102f44abcf9e23c9a460da309ccca56c619c04eed3bde2c2cff5e7d78fbcd980b9c2103c9443cf3047bb6c2c82f1b0c44c36109cdc3d0d601d16d1189a1602bf8d1a0a02103bfe867059274412412e088af5572b92168c2ef495cfe6c9b7a753a009eb37c4853ae00000000", "vin": [{"txinwitness": ["", "304402206482ba765d5bc056efe29c96f14626ec5b20cd35340796a1201a2b920dffde5c0220276deda059bc8774958f94d01cb2cce8f6d6bed5828eab3a3990ef3f14aaad2b01", "3044022074f00148efb0550116518071122957e6a232790956a8ea219034d50b1d40287202200e3932cb3a26a07fca71fe3823ef8503b0e2851cf3aec1e98a77654c1661f55601", "522102f44abcf9e23c9a460da309ccca56c619c04eed3bde2c2cff5e7d78fbcd980b9c2103c9443cf3047bb6c2c82f1b0c44c36109cdc3d0d601d16d1189a1602bf8d1a0a02103bfe867059274412412e088af5572b92168c2ef495cfe6c9b7a753a009eb37c4853ae"], "sequence": 4294967295, "scriptSig": {"hex": "22002065d416c48a8072e0ac51c2d111eb194f009caef0332446c1bf2097316cf07fa9", "asm": "002065d416c48a8072e0ac51c2d111eb194f009caef0332446c1bf2097316cf07fa9"}, "vout": 3, "txid": "d0e52b814c4ce6beca78edce471b680447961d11f5bcbce644ecdb2b5ec1a14d"}], "txid": "7e798b325fab1123f8dcb55b433246f71b10ccc9b5319b8b10c36fcd13280dce", "blocktime": 1537870564, "version": 1, "confirmations": 11515, "time": 1537870564, "locktime": 0, "vsize": 248, "size": 438}