{"hash": "7e876cd15d389cbda0c30386e2fe6b98a0cff6e6347ed91984814bb620003a79", "blockhash": "0000000000000000001f0ddff1eddb255c1121bcd4da4f1bc9a0da00cae72433", "vout": [{"scriptPubKey": {"reqSigs": 1, "hex": "76a9147b74e068f58372180af90497124aeafdb08d013188ac", "addresses": ["1CFn8KnCy5UvsNLf1jGDamxcMqPXSkWVcx"], "asm": "OP_DUP OP_HASH160 7b74e068f58372180af90497124aeafdb08d0131 OP_EQUALVERIFY OP_CHECKSIG", "type": "pubkeyhash"}, "value": 6.78e-05, "n": 0}, {"scriptPubKey": {"reqSigs": 1, "hex": "76a91407f92ed91d7505a5362d011fea0909db65bacbfa88ac", "addresses": ["1jAEt7PKmmVkpwu6PU8zKsrLznZLppAkV"], "asm": "OP_DUP OP_HASH160 07f92ed91d7505a5362d011fea0909db65bacbfa OP_EQUALVERIFY OP_CHECKSIG", "type": "pubkeyhash"}, "value": 0.002899, "n": 1}], "hex": "010000000148e1207a3d8aa40a3f8795a39945f1b86b733b3c728c7877cad839c15a2c05df010000006a4730440220718f7e4bdfa4fc05ab7b975803c21010da5e7ef760c8870db5342b92714af5c702201767307f4aecb8c74d5a7cd5b6ae8137b9431586b5e1aa25ab7b04fc24848d95012103969dfcf13ebdc858204a7158ad889db7d0d3e4f6d31d3cb76a3b4ad5ff86eb21ffffffff027c1a0000000000001976a9147b74e068f58372180af90497124aeafdb08d013188ac6c6c0400000000001976a91407f92ed91d7505a5362d011fea0909db65bacbfa88ac00000000", "vin": [{"sequence": 4294967295, "scriptSig": {"hex": "4730440220718f7e4bdfa4fc05ab7b975803c21010da5e7ef760c8870db5342b92714af5c702201767307f4aecb8c74d5a7cd5b6ae8137b9431586b5e1aa25ab7b04fc24848d95012103969dfcf13ebdc858204a7158ad889db7d0d3e4f6d31d3cb76a3b4ad5ff86eb21", "asm": "30440220718f7e4bdfa4fc05ab7b975803c21010da5e7ef760c8870db5342b92714af5c702201767307f4aecb8c74d5a7cd5b6ae8137b9431586b5e1aa25ab7b04fc24848d95[ALL] 03969dfcf13ebdc858204a7158ad889db7d0d3e4f6d31d3cb76a3b4ad5ff86eb21"}, "vout": 1, "txid": "df052c5ac139d8ca77788c723c3b736bb8f14599a395873f0aa48a3d7a20e148"}], "txid": "7e876cd15d389cbda0c30386e2fe6b98a0cff6e6347ed91984814bb620003a79", "blocktime": 1537872018, "version": 1, "confirmations": 11489, "time": 1537872018, "locktime": 0, "vsize": 225, "size": 225}