{"hash": "7e8d2538d292461c0cc982eafda51c9602bb9986521f81ce558689ab28d9e328", "blockhash": "0000000000000000001cda96e906b7601b7a6fb1a3b62bca570a9e5d8f4b3de1", "vout": [{"scriptPubKey": {"reqSigs": 1, "hex": "a914c19e23615137524d301f555ff1567460f0252f8f87", "addresses": ["3KLmnCfvnf5avDzGpodxgiihkBPiEQYqvt"], "asm": "OP_HASH160 c19e23615137524d301f555ff1567460f0252f8f OP_EQUAL", "type": "scripthash"}, "value": 0.00159, "n": 0}, {"scriptPubKey": {"reqSigs": 1, "hex": "76a914c1534f8853161162aecb3552734766686b87cffa88ac", "addresses": ["1JdDDYvTPvPcDNJXa5LVwPc6GkCbPe5xko"], "asm": "OP_DUP OP_HASH160 c1534f8853161162aecb3552734766686b87cffa OP_EQUALVERIFY OP_CHECKSIG", "type": "pubkeyhash"}, "value": 0.29966764, "n": 1}], "hex": "0100000001b4988b653a9484451d9873df9a3d7036d45cd73379ab6a064790277763803cac010000006a473044022014124df5f7deb0c9b27a2c76551e6b1c786810209af415105dee3d3e1a6f4e9e02206a825db2dace34fad69ec76fef4e59f158f41b6828931a73f278b547252135d90121039415709642c7878149d36b9ea8d3f2e08bc9930bc1b836eaa939c3997c923b7cffffffff02186d02000000000017a914c19e23615137524d301f555ff1567460f0252f8f87ac41c901000000001976a914c1534f8853161162aecb3552734766686b87cffa88ac00000000", "vin": [{"sequence": 4294967295, "scriptSig": {"hex": "473044022014124df5f7deb0c9b27a2c76551e6b1c786810209af415105dee3d3e1a6f4e9e02206a825db2dace34fad69ec76fef4e59f158f41b6828931a73f278b547252135d90121039415709642c7878149d36b9ea8d3f2e08bc9930bc1b836eaa939c3997c923b7c", "asm": "3044022014124df5f7deb0c9b27a2c76551e6b1c786810209af415105dee3d3e1a6f4e9e02206a825db2dace34fad69ec76fef4e59f158f41b6828931a73f278b547252135d9[ALL] 039415709642c7878149d36b9ea8d3f2e08bc9930bc1b836eaa939c3997c923b7c"}, "vout": 1, "txid": "ac3c806377279047066aab7933d75cd436703d9adf73981d4584943a658b98b4"}], "txid": "7e8d2538d292461c0cc982eafda51c9602bb9986521f81ce558689ab28d9e328", "blocktime": 1537873282, "version": 1, "confirmations": 11481, "time": 1537873282, "locktime": 0, "vsize": 223, "size": 223}