{"hash": "7e90a6146645fb58f3927bee70f56398edf58dc4358dafb151835032b9fc109d", "blockhash": "00000000000000000018f53835495a110e01622372bf6ae95dc86f2b0ab887b0", "vout": [{"scriptPubKey": {"reqSigs": 1, "hex": "76a914a25dec4d0011064ef106a983c39c7a540699f22088ac", "addresses": ["1FoWyxwPXuj4C6abqwhjDWdz6D4PZgYRjA"], "asm": "OP_DUP OP_HASH160 a25dec4d0011064ef106a983c39c7a540699f220 OP_EQUALVERIFY OP_CHECKSIG", "type": "pubkeyhash"}, "value": 0.01985564, "n": 0}, {"scriptPubKey": {"type": "nulldata", "hex": "6a146f6d6e69000000000000001f0000000b30d72180", "asm": "OP_RETURN 6f6d6e69000000000000001f0000000b30d72180"}, "value": 0.0, "n": 1}, {"scriptPubKey": {"reqSigs": 1, "hex": "76a914afc42604777d2a048b162c76cdf3e3cc403376a288ac", "addresses": ["1H2NED2mda5eDWSEDdQ46Z29kjAu7mJr2C"], "asm": "OP_DUP OP_HASH160 afc42604777d2a048b162c76cdf3e3cc403376a2 OP_EQUALVERIFY OP_CHECKSIG", "type": "pubkeyhash"}, "value": 5.46e-06, "n": 2}], "hex": "01000000015d9a7642baac7a21d32bdb12d6faba50e6530c36c3d85a9fff8f30f51544ced7000000006b483045022100ac00f437b27a28afba44c89bfe983bb273cec682736c79124519117acd342a450220727b1c5bfa4760d447702befd21ba07715c3773cf59e7323d019708dcaded941012103da5bac7b36d5aa38f531c6b9601e21bb598a4b6716ebed38b009a55dabde9440feffffff031c4c1e00000000001976a914a25dec4d0011064ef106a983c39c7a540699f22088ac0000000000000000166a146f6d6e69000000000000001f0000000b30d7218022020000000000001976a914afc42604777d2a048b162c76cdf3e3cc403376a288ac0e490800", "vin": [{"sequence": 4294967294, "scriptSig": {"hex": "483045022100ac00f437b27a28afba44c89bfe983bb273cec682736c79124519117acd342a450220727b1c5bfa4760d447702befd21ba07715c3773cf59e7323d019708dcaded941012103da5bac7b36d5aa38f531c6b9601e21bb598a4b6716ebed38b009a55dabde9440", "asm": "3045022100ac00f437b27a28afba44c89bfe983bb273cec682736c79124519117acd342a450220727b1c5bfa4760d447702befd21ba07715c3773cf59e7323d019708dcaded941[ALL] 03da5bac7b36d5aa38f531c6b9601e21bb598a4b6716ebed38b009a55dabde9440"}, "vout": 0, "txid": "d7ce4415f5308fff9f5ad8c3360c53e650bafad612db2bd3217aacba42769a5d"}], "txid": "7e90a6146645fb58f3927bee70f56398edf58dc4358dafb151835032b9fc109d", "blocktime": 1537870928, "version": 1, "confirmations": 11512, "time": 1537870928, "locktime": 542990, "vsize": 257, "size": 257}