{"hash": "5ffe298309a636b29de07547ea44936dd33b7c6ae7905606973653bfd56608c3", "blockhash": "0000000000000000000baef3f32e3676a92c3b2e5da21b426e4f302fc371ce76", "vout": [{"scriptPubKey": {"reqSigs": 1, "hex": "76a914bc67c9870207e362164266e6c95f2c5fef8d922588ac", "addresses": ["1JBCNKvmsZNLXuFMhjNnksPoVRGHMaAUEz"], "asm": "OP_DUP OP_HASH160 bc67c9870207e362164266e6c95f2c5fef8d9225 OP_EQUALVERIFY OP_CHECKSIG", "type": "pubkeyhash"}, "value": 0.0155104, "n": 0}, {"scriptPubKey": {"reqSigs": 1, "hex": "76a91494ddf76c20140608ecd2a0904b1ec53cb13eb0d888ac", "addresses": ["1Ea8utouMDnsfu2Dm3XABXjaLCsBKGLVZe"], "asm": "OP_DUP OP_HASH160 94ddf76c20140608ecd2a0904b1ec53cb13eb0d8 OP_EQUALVERIFY OP_CHECKSIG", "type": "pubkeyhash"}, "value": 0.00736367, "n": 1}, {"scriptPubKey": {"reqSigs": 1, "hex": "a9141988a27e3c2df4ddee7fad5a2303d086179b2a3087", "addresses": ["3422VtS7UtCvXYxoXMVp6eZupR252z85oC"], "asm": "OP_HASH160 1988a27e3c2df4ddee7fad5a2303d086179b2a30 OP_EQUAL", "type": "scripthash"}, "value": 0.68088006, "n": 2}], "hex": "010000000001013f0d4163f4e91ab5ee663719b310004bfef11078c48c9b73b77c921ca1049059020000002322002065d416c48a8072e0ac51c2d111eb194f009caef0332446c1bf2097316cf07fa9ffffffff03c0aa1700000000001976a914bc67c9870207e362164266e6c95f2c5fef8d922588ac6f3c0b00000000001976a91494ddf76c20140608ecd2a0904b1ec53cb13eb0d888acc6f00e040000000017a9141988a27e3c2df4ddee7fad5a2303d086179b2a3087040047304402200c1aa36f8b48cffc3ad1005153bb7a90fd1b5c7743fd1a56be04a457fd29fd88022029c53643510581bf7c24c3ac9e181aeb479b9c57f401da6cfada2020f923dfab014730440220571ba80df6495745abda8710f5e910dbb542a2747e065cc5c95ee91aba86fcb102203f3484dc43833268cae8a0f7ed1f2b0fd0113591f0805bc95b715a62a35014c10169522102f44abcf9e23c9a460da309ccca56c619c04eed3bde2c2cff5e7d78fbcd980b9c2103c9443cf3047bb6c2c82f1b0c44c36109cdc3d0d601d16d1189a1602bf8d1a0a02103bfe867059274412412e088af5572b92168c2ef495cfe6c9b7a753a009eb37c4853ae00000000", "vin": [{"txinwitness": ["", "304402200c1aa36f8b48cffc3ad1005153bb7a90fd1b5c7743fd1a56be04a457fd29fd88022029c53643510581bf7c24c3ac9e181aeb479b9c57f401da6cfada2020f923dfab01", "30440220571ba80df6495745abda8710f5e910dbb542a2747e065cc5c95ee91aba86fcb102203f3484dc43833268cae8a0f7ed1f2b0fd0113591f0805bc95b715a62a35014c101", "522102f44abcf9e23c9a460da309ccca56c619c04eed3bde2c2cff5e7d78fbcd980b9c2103c9443cf3047bb6c2c82f1b0c44c36109cdc3d0d601d16d1189a1602bf8d1a0a02103bfe867059274412412e088af5572b92168c2ef495cfe6c9b7a753a009eb37c4853ae"], "sequence": 4294967295, "scriptSig": {"hex": "22002065d416c48a8072e0ac51c2d111eb194f009caef0332446c1bf2097316cf07fa9", "asm": "002065d416c48a8072e0ac51c2d111eb194f009caef0332446c1bf2097316cf07fa9"}, "vout": 2, "txid": "599004a11c927cb7739b8cc47810f1fe4b0010b3193766eeb51ae9f463410d3f"}], "txid": "7e97edc712de8d508258bad51f885be483ce6b3809566bc47e0b997119d96853", "blocktime": 1537876114, "version": 1, "confirmations": 11460, "time": 1537876114, "locktime": 0, "vsize": 250, "size": 440}