{"hash": "7ea68c6cf2dd66f87f7febf7e4dcee12812bea3d483114e85156a98d8078d633", "blockhash": "0000000000000000000dcc0f55137456b1a82d3642486a52398922ac4d620174", "vout": [{"scriptPubKey": {"reqSigs": 1, "hex": "a9143e6f15908582f42917ec31e39bf8722fc9d5db3f87", "addresses": ["37P8thrtDXb6Di5E7f4FL3bpzum3fhUvT7"], "asm": "OP_HASH160 3e6f15908582f42917ec31e39bf8722fc9d5db3f OP_EQUAL", "type": "scripthash"}, "value": 0.0002, "n": 0}, {"scriptPubKey": {"reqSigs": 1, "hex": "76a9141bd99f87dbf5c1bab319ffaa366b9b32d05814b488ac", "addresses": ["13YFwuKnG9qDZAzyve8xztGAgPxwZYwb5X"], "asm": "OP_DUP OP_HASH160 1bd99f87dbf5c1bab319ffaa366b9b32d05814b4 OP_EQUALVERIFY OP_CHECKSIG", "type": "pubkeyhash"}, "value": 0.0035334, "n": 1}], "hex": "010000000160152527c325082866798e879147ff70627a6de535f772075c40ecce204b5fc1010000006a4730440220113bbda1c6a976d4911acf4342c4632bd1a529aec8818e66e05c68511b6d9de3022050cc7aa374a4f671b7a3699114e9bd7b4f1844355047bae7588b8148b6cc08c6012103f30b91328c7e59f1ba495ccab02dc87f83715659d925ef8fe3b417f89a0bd7ceffffffff02204e00000000000017a9143e6f15908582f42917ec31e39bf8722fc9d5db3f873c640500000000001976a9141bd99f87dbf5c1bab319ffaa366b9b32d05814b488ac00000000", "vin": [{"sequence": 4294967295, "scriptSig": {"hex": "4730440220113bbda1c6a976d4911acf4342c4632bd1a529aec8818e66e05c68511b6d9de3022050cc7aa374a4f671b7a3699114e9bd7b4f1844355047bae7588b8148b6cc08c6012103f30b91328c7e59f1ba495ccab02dc87f83715659d925ef8fe3b417f89a0bd7ce", "asm": "30440220113bbda1c6a976d4911acf4342c4632bd1a529aec8818e66e05c68511b6d9de3022050cc7aa374a4f671b7a3699114e9bd7b4f1844355047bae7588b8148b6cc08c6[ALL] 03f30b91328c7e59f1ba495ccab02dc87f83715659d925ef8fe3b417f89a0bd7ce"}, "vout": 1, "txid": "c15f4b20ceec405c0772f735e56d7a6270ff4791878e7966280825c327251560"}], "txid": "7ea68c6cf2dd66f87f7febf7e4dcee12812bea3d483114e85156a98d8078d633", "blocktime": 1537870268, "version": 1, "confirmations": 11516, "time": 1537870268, "locktime": 0, "vsize": 223, "size": 223}