{"hash": "7ead3bf3a46c13145e2d9fc88d6e84526a29d10e67eaf059b9c6ae9a5a3553a5", "blockhash": "0000000000000000001f0ddff1eddb255c1121bcd4da4f1bc9a0da00cae72433", "vout": [{"scriptPubKey": {"reqSigs": 1, "hex": "76a914a000b49d3234270ff063fe5a2aa7891fb4ebc7f888ac", "addresses": ["1Fb1xiPEwEKdkg1kTXaXcPTJMdrraTzuMf"], "asm": "OP_DUP OP_HASH160 a000b49d3234270ff063fe5a2aa7891fb4ebc7f8 OP_EQUALVERIFY OP_CHECKSIG", "type": "pubkeyhash"}, "value": 0.00019469, "n": 0}, {"scriptPubKey": {"reqSigs": 1, "hex": "a914ab562869c72ad5745c3bc96b92877298aa103d2287", "addresses": ["3HJxghZP21hAaSAPR7cVZnY8cCUdFp8yD3"], "asm": "OP_HASH160 ab562869c72ad5745c3bc96b92877298aa103d22 OP_EQUAL", "type": "scripthash"}, "value": 0.01341529, "n": 1}], "hex": "010000000164c5185abea594d25a8fbb6818e5025dd7f331aaffcbc6619be370cfcc2c95b00000000069463043021f1116b7a81f23b7479e7d4622775675779bb811f265fcc608452ba51db11614022008c112f14ac90487a19b8d3c5a96338ccdc868d69a866f9d793c7a8121c51d6f01210292cd85af829788c2f33d4115a4b47eb5a838d9e2a4d5015388b5e4122bd7f438ffffffff020d4c0000000000001976a914a000b49d3234270ff063fe5a2aa7891fb4ebc7f888ac597814000000000017a914ab562869c72ad5745c3bc96b92877298aa103d228700000000", "vin": [{"sequence": 4294967295, "scriptSig": {"hex": "463043021f1116b7a81f23b7479e7d4622775675779bb811f265fcc608452ba51db11614022008c112f14ac90487a19b8d3c5a96338ccdc868d69a866f9d793c7a8121c51d6f01210292cd85af829788c2f33d4115a4b47eb5a838d9e2a4d5015388b5e4122bd7f438", "asm": "3043021f1116b7a81f23b7479e7d4622775675779bb811f265fcc608452ba51db11614022008c112f14ac90487a19b8d3c5a96338ccdc868d69a866f9d793c7a8121c51d6f[ALL] 0292cd85af829788c2f33d4115a4b47eb5a838d9e2a4d5015388b5e4122bd7f438"}, "vout": 0, "txid": "b0952ccccf70e39b61c6cbffaa31f3d75d02e51868bb8f5ad294a5be5a18c564"}], "txid": "7ead3bf3a46c13145e2d9fc88d6e84526a29d10e67eaf059b9c6ae9a5a3553a5", "blocktime": 1537872018, "version": 1, "confirmations": 11489, "time": 1537872018, "locktime": 0, "vsize": 222, "size": 222}