{"hash": "7eb9bc054acf5e7c7921fa2cd7dabd38b3f92d5eef39909afbed511a05b2fa1f", "blockhash": "0000000000000000001e0dab787dd257d1dbfcb92a98c2207d5e1078be1f4165", "vout": [{"scriptPubKey": {"reqSigs": 1, "hex": "a914679016dfb0303959886bcdf41d11c163441d83cc87", "addresses": ["3B8c8ohG4YTtPz3DkAFmpwdNdYKTwa4Zx8"], "asm": "OP_HASH160 679016dfb0303959886bcdf41d11c163441d83cc OP_EQUAL", "type": "scripthash"}, "value": 0.0062484, "n": 0}, {"scriptPubKey": {"reqSigs": 1, "hex": "76a91455cec9dc6f001eaae7c6ce21b4a1585da203e45d88ac", "addresses": ["18piADyxWL48YLTFveFUXNzC9WjyRTZPPW"], "asm": "OP_DUP OP_HASH160 55cec9dc6f001eaae7c6ce21b4a1585da203e45d OP_EQUALVERIFY OP_CHECKSIG", "type": "pubkeyhash"}, "value": 0.32596684, "n": 1}], "hex": "0100000001e47301f5c0ab6378b72dcade4e7b6ea98d04e997c88d19fa35da52c512723b17010000006a473044022037549850e483ce38471f03ca3dceb6b2051788a1bb3c0be9027c095cf77dae0102200a67f26fb7ed6b1bd4d5dae513b2e25b4431680fbdce9b33532867c959f4279401210308e75b97afafe2815de718206deed8d5e5221df7dceab1043b90c1e65cd701edffffffff02c88809000000000017a914679016dfb0303959886bcdf41d11c163441d83cc87cc62f101000000001976a91455cec9dc6f001eaae7c6ce21b4a1585da203e45d88ac00000000", "vin": [{"sequence": 4294967295, "scriptSig": {"hex": "473044022037549850e483ce38471f03ca3dceb6b2051788a1bb3c0be9027c095cf77dae0102200a67f26fb7ed6b1bd4d5dae513b2e25b4431680fbdce9b33532867c959f4279401210308e75b97afafe2815de718206deed8d5e5221df7dceab1043b90c1e65cd701ed", "asm": "3044022037549850e483ce38471f03ca3dceb6b2051788a1bb3c0be9027c095cf77dae0102200a67f26fb7ed6b1bd4d5dae513b2e25b4431680fbdce9b33532867c959f42794[ALL] 0308e75b97afafe2815de718206deed8d5e5221df7dceab1043b90c1e65cd701ed"}, "vout": 1, "txid": "173b7212c552da35fa198dc897e9048da96e7b4edeca2db77863abc0f50173e4"}], "txid": "7eb9bc054acf5e7c7921fa2cd7dabd38b3f92d5eef39909afbed511a05b2fa1f", "blocktime": 1537872475, "version": 1, "confirmations": 11487, "time": 1537872475, "locktime": 0, "vsize": 223, "size": 223}