{"hash": "7ec476679183e8a0fa42d8046280cbe80a09c98a82b92b0935d8d941c5373d07", "blockhash": "0000000000000000000dcc0f55137456b1a82d3642486a52398922ac4d620174", "vout": [{"scriptPubKey": {"reqSigs": 1, "hex": "76a9140ad6423df15b408b6cc66a15fda74c1d155fd5c688ac", "addresses": ["1zJRsuq5jXyX5fCbqLC5DjZys9Hj5BjLE"], "asm": "OP_DUP OP_HASH160 0ad6423df15b408b6cc66a15fda74c1d155fd5c6 OP_EQUALVERIFY OP_CHECKSIG", "type": "pubkeyhash"}, "value": 0.02271063, "n": 0}], "hex": "01000000014dfcf83ec4533bf87f5c29128ad3c25a53a55af29fcaf8e6a5033ed1002e0ab5000000006a47304402203a952c1d467a6b298a61a30eb773cacd2f92c22167de7e006dbe14b4ce11d2a302204394268a7feb8d4d87fe3bd72057a92291febde545eff6a6bbb14676adb7989101210230ae8897e688ab4a7391f6dcbf313f47f88d07294dac25ed539c8e16c5951cd1ffffffff0157a72200000000001976a9140ad6423df15b408b6cc66a15fda74c1d155fd5c688ac00000000", "vin": [{"sequence": 4294967295, "scriptSig": {"hex": "47304402203a952c1d467a6b298a61a30eb773cacd2f92c22167de7e006dbe14b4ce11d2a302204394268a7feb8d4d87fe3bd72057a92291febde545eff6a6bbb14676adb7989101210230ae8897e688ab4a7391f6dcbf313f47f88d07294dac25ed539c8e16c5951cd1", "asm": "304402203a952c1d467a6b298a61a30eb773cacd2f92c22167de7e006dbe14b4ce11d2a302204394268a7feb8d4d87fe3bd72057a92291febde545eff6a6bbb14676adb79891[ALL] 0230ae8897e688ab4a7391f6dcbf313f47f88d07294dac25ed539c8e16c5951cd1"}, "vout": 0, "txid": "b50a2e00d13e03a5e6f8ca9ff25aa5535ac2d38a12295c7ff83b53c43ef8fc4d"}], "txid": "7ec476679183e8a0fa42d8046280cbe80a09c98a82b92b0935d8d941c5373d07", "blocktime": 1537870268, "version": 1, "confirmations": 11518, "time": 1537870268, "locktime": 0, "vsize": 191, "size": 191}