{"hash": "7ec531c9e3f249c8df523704963abca67a3d6478e2cc4908c5731915e3db3239", "blockhash": "0000000000000000001cda96e906b7601b7a6fb1a3b62bca570a9e5d8f4b3de1", "vout": [{"scriptPubKey": {"reqSigs": 1, "hex": "a914c62a7b479fcef44c68955972632bdc130c879d4e87", "addresses": ["3KkpcCNNt2owhLo2oPQ966zPtc59Vte9Uu"], "asm": "OP_HASH160 c62a7b479fcef44c68955972632bdc130c879d4e OP_EQUAL", "type": "scripthash"}, "value": 0.01639392, "n": 0}, {"scriptPubKey": {"reqSigs": 1, "hex": "76a9141280e10fe2008b42fe862eb51523a12caff5635788ac", "addresses": ["12gqZ8j1jZTJK2dPGzfNR94bKs9gstA8Km"], "asm": "OP_DUP OP_HASH160 1280e10fe2008b42fe862eb51523a12caff56357 OP_EQUALVERIFY OP_CHECKSIG", "type": "pubkeyhash"}, "value": 0.0343907, "n": 1}], "hex": "0100000001a52cdc0eef72e1240f6339aaf385d220f096e7da389047a71c2f8753504fd213010000006a473044022030bbae56cef1e254e0a4e59e3236cd64f8416645066043c57527e01e774bf48f02201866a9fac5c40a98b45ae9a8fe06f3937ec2fbc9c02480ceaf4dc4b92255c10d012103da3a6ec0360a76ac1df0932eccea3c30ccbfb895a9e1066841f8af769e6a1cf5ffffffff02e00319000000000017a914c62a7b479fcef44c68955972632bdc130c879d4e87de793400000000001976a9141280e10fe2008b42fe862eb51523a12caff5635788ac00000000", "vin": [{"sequence": 4294967295, "scriptSig": {"hex": "473044022030bbae56cef1e254e0a4e59e3236cd64f8416645066043c57527e01e774bf48f02201866a9fac5c40a98b45ae9a8fe06f3937ec2fbc9c02480ceaf4dc4b92255c10d012103da3a6ec0360a76ac1df0932eccea3c30ccbfb895a9e1066841f8af769e6a1cf5", "asm": "3044022030bbae56cef1e254e0a4e59e3236cd64f8416645066043c57527e01e774bf48f02201866a9fac5c40a98b45ae9a8fe06f3937ec2fbc9c02480ceaf4dc4b92255c10d[ALL] 03da3a6ec0360a76ac1df0932eccea3c30ccbfb895a9e1066841f8af769e6a1cf5"}, "vout": 1, "txid": "13d24f5053872f1ca7479038dae796f020d285f3aa39630f24e172ef0edc2ca5"}], "txid": "7ec531c9e3f249c8df523704963abca67a3d6478e2cc4908c5731915e3db3239", "blocktime": 1537873282, "version": 1, "confirmations": 11485, "time": 1537873282, "locktime": 0, "vsize": 223, "size": 223}