{"hash": "fa75c774a3e5c0b3f1c5fd072cce2e0c6458634edce98456ae3d4656ab746fe9", "blockhash": "0000000000000000001f0ddff1eddb255c1121bcd4da4f1bc9a0da00cae72433", "vout": [{"scriptPubKey": {"reqSigs": 1, "hex": "0014d85cfcc3b72457531fe1b8a889ffc45dbb492b8f", "addresses": ["bc1qmpw0esahy3t4x8lphz5gnl7ytka5j2u0g4syzl"], "asm": "0 d85cfcc3b72457531fe1b8a889ffc45dbb492b8f", "type": "witness_v0_keyhash"}, "value": 0.0002681, "n": 0}, {"scriptPubKey": {"reqSigs": 1, "hex": "a9141bc834fd0ff9ff14d7ecf6a093c289714838713a87", "addresses": ["34Dv1MAUi1pzyx1CGnXTkoWq8g9UVNznQL"], "asm": "OP_HASH160 1bc834fd0ff9ff14d7ecf6a093c289714838713a OP_EQUAL", "type": "scripthash"}, "value": 0.00653213, "n": 1}], "hex": "01000000000101265cdd7c1c24c2ce6299d55b287f543e923817e80c53bf122f43382273309a5a5a000000171600146052c8ae6553e77c90be48ca767e2cd88a325c39ffffffff02ba68000000000000160014d85cfcc3b72457531fe1b8a889ffc45dbb492b8f9df709000000000017a9141bc834fd0ff9ff14d7ecf6a093c289714838713a870247304402205f847646e1998cbf10eddd30260daf48e85c3324e6ab0697d45f186ac4e000ef0220795254ea4b0600fb46a6722b9da581e0e92390795773ef265148ba5a81385d130121038af6c1cfa7b9565dc6e7ca8bf0298299a70ca1f2ce6d573c6a396bb026c8601100000000", "vin": [{"txinwitness": ["304402205f847646e1998cbf10eddd30260daf48e85c3324e6ab0697d45f186ac4e000ef0220795254ea4b0600fb46a6722b9da581e0e92390795773ef265148ba5a81385d1301", "038af6c1cfa7b9565dc6e7ca8bf0298299a70ca1f2ce6d573c6a396bb026c86011"], "sequence": 4294967295, "scriptSig": {"hex": "1600146052c8ae6553e77c90be48ca767e2cd88a325c39", "asm": "00146052c8ae6553e77c90be48ca767e2cd88a325c39"}, "vout": 90, "txid": "5a9a30732238432f12bf530ce81738923e547f285bd59962cec2241c7cdd5c26"}], "txid": "7ec6d0a407f78241a034511fc5847031b9a9b85d740e074c1c0cfc8d6ab1b90d", "blocktime": 1537872018, "version": 1, "confirmations": 11489, "time": 1537872018, "locktime": 0, "vsize": 165, "size": 246}