{"hash": "7ec75c33f8fc97b2cce9915dcba73170646e1d0f7e2c01e447e1ee6fad39c3f8", "blockhash": "0000000000000000000baef3f32e3676a92c3b2e5da21b426e4f302fc371ce76", "vout": [{"scriptPubKey": {"reqSigs": 1, "hex": "76a9144b846ae9444bc095899118cf48ed3b0c542a38a488ac", "addresses": ["17tJJveWuF5YyouuYcBSdo5kGLN9xtTSp9"], "asm": "OP_DUP OP_HASH160 4b846ae9444bc095899118cf48ed3b0c542a38a4 OP_EQUALVERIFY OP_CHECKSIG", "type": "pubkeyhash"}, "value": 0.00093701, "n": 0}, {"scriptPubKey": {"reqSigs": 1, "hex": "76a914f4967c12821258663aa35b21114840a6c72a06f788ac", "addresses": ["1PJG9fWSJmAwDdKCDaQagVNBho97fRxf73"], "asm": "OP_DUP OP_HASH160 f4967c12821258663aa35b21114840a6c72a06f7 OP_EQUALVERIFY OP_CHECKSIG", "type": "pubkeyhash"}, "value": 0.02714708, "n": 1}], "hex": "010000000178299f270b64e722b399db4184f3862005fd577cbbc143cd5a00d57abcda3564010000006a473044022051f774d0a85930fe9f270e6b3c04d8da044e0f75ab733d7643c949880ddee03d02202555339cf3d4aea77a87eb38a327750484443109556e4d339ad8c579976e491b0121028d49e1860fbfee13e7bc744e5d6fdedcbd916baf2ddbe502691af3f6fd671279ffffffff02056e0100000000001976a9144b846ae9444bc095899118cf48ed3b0c542a38a488ac546c2900000000001976a914f4967c12821258663aa35b21114840a6c72a06f788ac00000000", "vin": [{"sequence": 4294967295, "scriptSig": {"hex": "473044022051f774d0a85930fe9f270e6b3c04d8da044e0f75ab733d7643c949880ddee03d02202555339cf3d4aea77a87eb38a327750484443109556e4d339ad8c579976e491b0121028d49e1860fbfee13e7bc744e5d6fdedcbd916baf2ddbe502691af3f6fd671279", "asm": "3044022051f774d0a85930fe9f270e6b3c04d8da044e0f75ab733d7643c949880ddee03d02202555339cf3d4aea77a87eb38a327750484443109556e4d339ad8c579976e491b[ALL] 028d49e1860fbfee13e7bc744e5d6fdedcbd916baf2ddbe502691af3f6fd671279"}, "vout": 1, "txid": "6435dabc7ad5005acd43c1bb7c57fd052086f38441db99b322e7640b279f2978"}], "txid": "7ec75c33f8fc97b2cce9915dcba73170646e1d0f7e2c01e447e1ee6fad39c3f8", "blocktime": 1537876114, "version": 1, "confirmations": 11460, "time": 1537876114, "locktime": 0, "vsize": 225, "size": 225}