{"hash": "7ecbf5e296efa7e972d7b0ea774b0a09f78b9499d9d625d150476377cebbdaae", "blockhash": "0000000000000000001e0dab787dd257d1dbfcb92a98c2207d5e1078be1f4165", "vout": [{"scriptPubKey": {"reqSigs": 1, "hex": "76a9145c10dcea5fb1071591c7275d37a3551de3373e9488ac", "addresses": ["19PoNJo3wdTUe6sFEqLuSSknv5VdYSPsZt"], "asm": "OP_DUP OP_HASH160 5c10dcea5fb1071591c7275d37a3551de3373e94 OP_EQUALVERIFY OP_CHECKSIG", "type": "pubkeyhash"}, "value": 0.01350627, "n": 0}, {"scriptPubKey": {"reqSigs": 1, "hex": "76a914d94cba0ce9a84f2f7dcbfe802c10076a69d5b0a888ac", "addresses": ["1LoyYhN431fdhTNBLeFFe9WrkAPS5BCb3q"], "asm": "OP_DUP OP_HASH160 d94cba0ce9a84f2f7dcbfe802c10076a69d5b0a8 OP_EQUALVERIFY OP_CHECKSIG", "type": "pubkeyhash"}, "value": 0.07966297, "n": 1}], "hex": "01000000020f307e3051fac882fe2d94eaa7632a8528db1801e4fa36a11396dcda99afc50a000000006a473044022061e5dfeebaabc0e5fd2c9517e624d501f20df75b860d33a9e7b79baeafdf373202201183138c705e16c317ec5d789207070234d1c844503b6f4c20125126aa21dbe50121037dad28972f99746e502a091e6be2d4ce2e8812b2715449e74b7146932bb21d3fffffffffc0660f6bfa543503338b397a52419f5c73c2334cb6ae52cead3156c49ca9742f010000006b483045022100f95aad026d881253f435efe0a2074b810ec1f59310f0b4b86a90f5e87e825d6702207e75f601726be6196249465458402c157bf17180ebeeae2cb72df7d90b24c5d10121023c5ad38f4d2f9608bc336b8f6cc0ae36996d7a61d5302c8b758942740c38caebffffffff02e39b1400000000001976a9145c10dcea5fb1071591c7275d37a3551de3373e9488ac598e7900000000001976a914d94cba0ce9a84f2f7dcbfe802c10076a69d5b0a888ac00000000", "vin": [{"sequence": 4294967295, "scriptSig": {"hex": "473044022061e5dfeebaabc0e5fd2c9517e624d501f20df75b860d33a9e7b79baeafdf373202201183138c705e16c317ec5d789207070234d1c844503b6f4c20125126aa21dbe50121037dad28972f99746e502a091e6be2d4ce2e8812b2715449e74b7146932bb21d3f", "asm": "3044022061e5dfeebaabc0e5fd2c9517e624d501f20df75b860d33a9e7b79baeafdf373202201183138c705e16c317ec5d789207070234d1c844503b6f4c20125126aa21dbe5[ALL] 037dad28972f99746e502a091e6be2d4ce2e8812b2715449e74b7146932bb21d3f"}, "vout": 0, "txid": "0ac5af99dadc9613a136fae40118db28852a63a7ea942dfe82c8fa51307e300f"}, {"sequence": 4294967295, "scriptSig": {"hex": "483045022100f95aad026d881253f435efe0a2074b810ec1f59310f0b4b86a90f5e87e825d6702207e75f601726be6196249465458402c157bf17180ebeeae2cb72df7d90b24c5d10121023c5ad38f4d2f9608bc336b8f6cc0ae36996d7a61d5302c8b758942740c38caeb", "asm": "3045022100f95aad026d881253f435efe0a2074b810ec1f59310f0b4b86a90f5e87e825d6702207e75f601726be6196249465458402c157bf17180ebeeae2cb72df7d90b24c5d1[ALL] 023c5ad38f4d2f9608bc336b8f6cc0ae36996d7a61d5302c8b758942740c38caeb"}, "vout": 1, "txid": "2f74a99cc45631adce52aeb64c33c2735c9f41527a398b33033554fa6b0f66c0"}], "txid": "7ecbf5e296efa7e972d7b0ea774b0a09f78b9499d9d625d150476377cebbdaae", "blocktime": 1537872475, "version": 1, "confirmations": 11487, "time": 1537872475, "locktime": 0, "vsize": 373, "size": 373}