{"hash": "7ecc2497b1c9fd16251edf525ec2396dc62a031ac9e674f8e7b278ea9c25c3be", "blockhash": "00000000000000000018f53835495a110e01622372bf6ae95dc86f2b0ab887b0", "vout": [{"scriptPubKey": {"reqSigs": 1, "hex": "76a914f213929c4188ea0dfabe8b279efcaa35b837084888ac", "addresses": ["1P4yyMkZBB9L6wjgE1UNxtYqw2qWMCCRUK"], "asm": "OP_DUP OP_HASH160 f213929c4188ea0dfabe8b279efcaa35b8370848 OP_EQUALVERIFY OP_CHECKSIG", "type": "pubkeyhash"}, "value": 0.0007808, "n": 0}, {"scriptPubKey": {"reqSigs": 1, "hex": "76a91426bc4283d5b07c527f65fb29524505414cb819ff88ac", "addresses": ["14XpCp4jRDxf1nco2W5bjFwznqwMtNJJW4"], "asm": "OP_DUP OP_HASH160 26bc4283d5b07c527f65fb29524505414cb819ff OP_EQUALVERIFY OP_CHECKSIG", "type": "pubkeyhash"}, "value": 0.02013295, "n": 1}], "hex": "01000000014d0b8e46663511bb2ee3082cd9f81b8f6e550134d89694f4a7fe8adcc18fd15d010000006b48304502210090108ae0192b27c6182aaf42b268af7c3cfe11fc5558cb8d23dfd396ffd908da02200320e0c259c2c19a7574a82def4fdadd69a723c25829f39062df16cc77e38e29012103c89e27f5ff678106ab1712c17d94210874a4b6556a1f39c07d30c0767a49d46cffffffff0200310100000000001976a914f213929c4188ea0dfabe8b279efcaa35b837084888ac6fb81e00000000001976a91426bc4283d5b07c527f65fb29524505414cb819ff88ac00000000", "vin": [{"sequence": 4294967295, "scriptSig": {"hex": "48304502210090108ae0192b27c6182aaf42b268af7c3cfe11fc5558cb8d23dfd396ffd908da02200320e0c259c2c19a7574a82def4fdadd69a723c25829f39062df16cc77e38e29012103c89e27f5ff678106ab1712c17d94210874a4b6556a1f39c07d30c0767a49d46c", "asm": "304502210090108ae0192b27c6182aaf42b268af7c3cfe11fc5558cb8d23dfd396ffd908da02200320e0c259c2c19a7574a82def4fdadd69a723c25829f39062df16cc77e38e29[ALL] 03c89e27f5ff678106ab1712c17d94210874a4b6556a1f39c07d30c0767a49d46c"}, "vout": 1, "txid": "5dd18fc1dc8afea7f49496d83401556e8f1bf8d92c08e32ebb113566468e0b4d"}], "txid": "7ecc2497b1c9fd16251edf525ec2396dc62a031ac9e674f8e7b278ea9c25c3be", "blocktime": 1537870928, "version": 1, "confirmations": 11512, "time": 1537870928, "locktime": 0, "vsize": 226, "size": 226}