{"hash": "7ed1643ab3af75a223aa062c2931b1e4529d5c905b6aff29c350a0046c2185c8", "blockhash": "0000000000000000000dcc0f55137456b1a82d3642486a52398922ac4d620174", "vout": [{"scriptPubKey": {"reqSigs": 1, "hex": "76a9145073c4dd18a066db4d6fffdb675f95062a458f5888ac", "addresses": ["18LPk7pCDyw2FpMcZvG5prmWFxqVaynXMi"], "asm": "OP_DUP OP_HASH160 5073c4dd18a066db4d6fffdb675f95062a458f58 OP_EQUALVERIFY OP_CHECKSIG", "type": "pubkeyhash"}, "value": 0.18670257, "n": 0}, {"scriptPubKey": {"reqSigs": 1, "hex": "76a91403954fcfdbc4416312ddcb3f5d14d71fba65b8ba88ac", "addresses": ["1KwtwTDUq2qA78zipnh4wppHmUWPMU4KK"], "asm": "OP_DUP OP_HASH160 03954fcfdbc4416312ddcb3f5d14d71fba65b8ba OP_EQUALVERIFY OP_CHECKSIG", "type": "pubkeyhash"}, "value": 0.12664222, "n": 1}], "hex": "0100000001c37b4a5ac392eff88c51d5b2c0ce53755f9194ea3545f643b66c0350ac729b3a010000006a47304402207d4da93782171a11df7ff304f19a756db3bf7f68071128d14fc40514271c152d02200699e298459a2e1b69abd981d87531c4aa0094d4d38eb62dc00065c45584cddf0121035cdef1196d96e912a44344596fc7e8b00f4d21fc0ae6697efe6ac05f9c4a7193ffffffff02b1e21c01000000001976a9145073c4dd18a066db4d6fffdb675f95062a458f5888ac9e3dc100000000001976a91403954fcfdbc4416312ddcb3f5d14d71fba65b8ba88ac00000000", "vin": [{"sequence": 4294967295, "scriptSig": {"hex": "47304402207d4da93782171a11df7ff304f19a756db3bf7f68071128d14fc40514271c152d02200699e298459a2e1b69abd981d87531c4aa0094d4d38eb62dc00065c45584cddf0121035cdef1196d96e912a44344596fc7e8b00f4d21fc0ae6697efe6ac05f9c4a7193", "asm": "304402207d4da93782171a11df7ff304f19a756db3bf7f68071128d14fc40514271c152d02200699e298459a2e1b69abd981d87531c4aa0094d4d38eb62dc00065c45584cddf[ALL] 035cdef1196d96e912a44344596fc7e8b00f4d21fc0ae6697efe6ac05f9c4a7193"}, "vout": 1, "txid": "3a9b72ac50036cb643f64535ea94915f7553cec0b2d5518cf8ef92c35a4a7bc3"}], "txid": "7ed1643ab3af75a223aa062c2931b1e4529d5c905b6aff29c350a0046c2185c8", "blocktime": 1537870268, "version": 1, "confirmations": 11516, "time": 1537870268, "locktime": 0, "vsize": 225, "size": 225}