{"hash": "7ed24e15529aaf3a71acf80f53d494c370110fc1733adeeea63f6646f941c877", "blockhash": "0000000000000000001cda96e906b7601b7a6fb1a3b62bca570a9e5d8f4b3de1", "vout": [{"scriptPubKey": {"reqSigs": 1, "hex": "76a91469850d8fa9faf34f569bedea03bcda6f93d0cdfd88ac", "addresses": ["1AcwLpqpAJvDfeG6t2rPVocS79w93G7jYt"], "asm": "OP_DUP OP_HASH160 69850d8fa9faf34f569bedea03bcda6f93d0cdfd OP_EQUALVERIFY OP_CHECKSIG", "type": "pubkeyhash"}, "value": 0.00445025, "n": 0}, {"scriptPubKey": {"reqSigs": 1, "hex": "76a914f8222fa7fbb62a3169e57180a84d2780574d24b388ac", "addresses": ["1Pd1XsSuyzhgwsTrw2dZUG5fv9CJHKUG97"], "asm": "OP_DUP OP_HASH160 f8222fa7fbb62a3169e57180a84d2780574d24b3 OP_EQUALVERIFY OP_CHECKSIG", "type": "pubkeyhash"}, "value": 0.01354727, "n": 1}], "hex": "0100000001cb8a98352c656197f2e74fec9df288cc0f74ee3db06620a24346f1b7da56751f010000006b483045022100aa0dd96447b0ff36341dd8db29806cabd339fff1134bcd87028d56672059305002205829ce73a098574a66a0d4f9c3a4401ac516ed0860bde276fd52cb5b866d359a0121026f196fab27d355f84513bf8157cda293c1b5faac57d8ccecbba15ecb33a213bfffffffff0261ca0600000000001976a91469850d8fa9faf34f569bedea03bcda6f93d0cdfd88ace7ab1400000000001976a914f8222fa7fbb62a3169e57180a84d2780574d24b388ac00000000", "vin": [{"sequence": 4294967295, "scriptSig": {"hex": "483045022100aa0dd96447b0ff36341dd8db29806cabd339fff1134bcd87028d56672059305002205829ce73a098574a66a0d4f9c3a4401ac516ed0860bde276fd52cb5b866d359a0121026f196fab27d355f84513bf8157cda293c1b5faac57d8ccecbba15ecb33a213bf", "asm": "3045022100aa0dd96447b0ff36341dd8db29806cabd339fff1134bcd87028d56672059305002205829ce73a098574a66a0d4f9c3a4401ac516ed0860bde276fd52cb5b866d359a[ALL] 026f196fab27d355f84513bf8157cda293c1b5faac57d8ccecbba15ecb33a213bf"}, "vout": 1, "txid": "1f7556dab7f14643a22066b03dee740fcc88f29dec4fe7f29761652c35988acb"}], "txid": "7ed24e15529aaf3a71acf80f53d494c370110fc1733adeeea63f6646f941c877", "blocktime": 1537873282, "version": 1, "confirmations": 11485, "time": 1537873282, "locktime": 0, "vsize": 226, "size": 226}