{"hash": "493b9dfeb6748193d3024f1d6e061379368840af6eaf72289d8e7188bb6a535b", "blockhash": "0000000000000000001e0dab787dd257d1dbfcb92a98c2207d5e1078be1f4165", "vout": [{"scriptPubKey": {"reqSigs": 1, "hex": "76a9140b3215404b68c01db18271eb9f269e360f9b830588ac", "addresses": ["122CRwTF1zLY5YSvnJtdTNGBKWD2TpntvY"], "asm": "OP_DUP OP_HASH160 0b3215404b68c01db18271eb9f269e360f9b8305 OP_EQUALVERIFY OP_CHECKSIG", "type": "pubkeyhash"}, "value": 0.00944644, "n": 0}, {"scriptPubKey": {"reqSigs": 1, "hex": "a914f65449c9219ac7e04df08e653160f5d0adbfdbfa87", "addresses": ["3Q9V8BYWxLTPHwfhByy1gEezwpiASvPQ1x"], "asm": "OP_HASH160 f65449c9219ac7e04df08e653160f5d0adbfdbfa OP_EQUAL", "type": "scripthash"}, "value": 0.01000147, "n": 1}], "hex": "0200000000010406e8a820e742f16fb0ed20075a250122f404811cd20a99be41754c66cb29a69c0000000017160014fde4aca325ac22c10340286e5ff373ba14b0a6eefeffffff7a3ab58912148a92ac2e75d080750f909480520fd5d4c2540bf8769dbc49d1fd000000001716001441b48b96f2d7914c3ff8ab998ed8b21c8d11e2f9feffffff7f228ff6a053cd80511eb8806b59f07e56f14c6caeb0342e1640feb0b3126d150100000017160014ae258f96a08bc2eb5c56fd69853b50e8a91ba722feffffffea1ad9a46e95673b120686319409ed75354c116858fcb15dfedfcc75b3013df20100000017160014e0b8ad823f9f3a75a5b17faeb6f37636d1d3606bfeffffff02046a0e00000000001976a9140b3215404b68c01db18271eb9f269e360f9b830588acd3420f000000000017a914f65449c9219ac7e04df08e653160f5d0adbfdbfa8702483045022100e86df3514e146327120b7349e2e5ca9eb946d69a08fe0d69e0ba1ca2cc89da7c02206690da35db0283d8ee69605ece8ac8131d38a5d79b07f43f189fc719a9877fc4012102c49f063ef420f959b1633e07b994212fba88e7f0208506d7e5c20bac97140d310247304402205472ab885c914a2584186963f6e8e29cb24711f095d79f5f9c8c409a497f76a702203c8648aaed027916ceb4dcd1ab1eb3f26417d2c7237de93c58cd6e622a84a24f0121023ea0795866b69f166ede351012703e641fa3ddbcba2e6c12c66b6edab84b6db7024730440220081dc8efe248499e8b63d4b4b8e8be267f54e315854a6a4677f9612803c25019022043578247a34b18c7e7b0197f347793a6e084d26a935e74f0a7d669efe83533e40121024cc23825367d67967d9c66e99f4013ca0349b2e3fa1caf796d2f23b45a3e90e202483045022100f7bc3b020f3b1ed3fb08c419a5a31aa6463d749db611160038e8c4c8d1468278022044133e04537ca68e201db146eae71c91100edd8877fb9f7fc02eacabe811ad4f012102963c0f1f2b578d5419a21f3c8e6364a87efb78c467e4cb5b1405735a43d4237a00000000", "vin": [{"txinwitness": ["3045022100e86df3514e146327120b7349e2e5ca9eb946d69a08fe0d69e0ba1ca2cc89da7c02206690da35db0283d8ee69605ece8ac8131d38a5d79b07f43f189fc719a9877fc401", "02c49f063ef420f959b1633e07b994212fba88e7f0208506d7e5c20bac97140d31"], "sequence": 4294967294, "scriptSig": {"hex": "160014fde4aca325ac22c10340286e5ff373ba14b0a6ee", "asm": "0014fde4aca325ac22c10340286e5ff373ba14b0a6ee"}, "vout": 0, "txid": "9ca629cb664c7541be990ad21c8104f42201255a0720edb06ff142e720a8e806"}, {"txinwitness": ["304402205472ab885c914a2584186963f6e8e29cb24711f095d79f5f9c8c409a497f76a702203c8648aaed027916ceb4dcd1ab1eb3f26417d2c7237de93c58cd6e622a84a24f01", "023ea0795866b69f166ede351012703e641fa3ddbcba2e6c12c66b6edab84b6db7"], "sequence": 4294967294, "scriptSig": {"hex": "16001441b48b96f2d7914c3ff8ab998ed8b21c8d11e2f9", "asm": "001441b48b96f2d7914c3ff8ab998ed8b21c8d11e2f9"}, "vout": 0, "txid": "fdd149bc9d76f80b54c2d4d50f528094900f7580d0752eac928a141289b53a7a"}, {"txinwitness": ["30440220081dc8efe248499e8b63d4b4b8e8be267f54e315854a6a4677f9612803c25019022043578247a34b18c7e7b0197f347793a6e084d26a935e74f0a7d669efe83533e401", "024cc23825367d67967d9c66e99f4013ca0349b2e3fa1caf796d2f23b45a3e90e2"], "sequence": 4294967294, "scriptSig": {"hex": "160014ae258f96a08bc2eb5c56fd69853b50e8a91ba722", "asm": "0014ae258f96a08bc2eb5c56fd69853b50e8a91ba722"}, "vout": 1, "txid": "156d12b3b0fe40162e34b0ae6c4cf1567ef0596b80b81e5180cd53a0f68f227f"}, {"txinwitness": ["3045022100f7bc3b020f3b1ed3fb08c419a5a31aa6463d749db611160038e8c4c8d1468278022044133e04537ca68e201db146eae71c91100edd8877fb9f7fc02eacabe811ad4f01", "02963c0f1f2b578d5419a21f3c8e6364a87efb78c467e4cb5b1405735a43d4237a"], "sequence": 4294967294, "scriptSig": {"hex": "160014e0b8ad823f9f3a75a5b17faeb6f37636d1d3606b", "asm": "0014e0b8ad823f9f3a75a5b17faeb6f37636d1d3606b"}, "vout": 1, "txid": "f23d01b375ccdffe5db1fc5868114c3575ed0994318606123b67956ea4d91aea"}], "txid": "7ed45c2b9cf16b24529c314545225f0e289107d97cebc5e616d8c0f16b13cdee", "blocktime": 1537872475, "version": 2, "confirmations": 11487, "time": 1537872475, "locktime": 0, "vsize": 440, "size": 764}