{"hash": "7ed9dbb3ff5e02fd33eb50700b72a78ee8cafa977a2923de4bfa70efbd56279d", "blockhash": "0000000000000000000dcc0f55137456b1a82d3642486a52398922ac4d620174", "vout": [{"scriptPubKey": {"reqSigs": 1, "hex": "a91487690c911ec37a980b7bb90d18b897f99e04fc9087", "addresses": ["3E2zzNy435PzAwsGmb9X9G95jd49HM8KKF"], "asm": "OP_HASH160 87690c911ec37a980b7bb90d18b897f99e04fc90 OP_EQUAL", "type": "scripthash"}, "value": 0.0032036, "n": 0}, {"scriptPubKey": {"reqSigs": 1, "hex": "76a914adee988c252988599a18ff29cb08a4a2f922d50388ac", "addresses": ["1Grfj7wQnJTGj8FVseNkg5Ngx7WHxfzWXP"], "asm": "OP_DUP OP_HASH160 adee988c252988599a18ff29cb08a4a2f922d503 OP_EQUALVERIFY OP_CHECKSIG", "type": "pubkeyhash"}, "value": 0.12537279, "n": 1}], "hex": "010000000166164203f2aa0d1a9bbc49e9f89b8e57854e4a3826de7ae8dcf69c89dd0366f8010000006b483045022100b7ad9ec01b66b216c1347c364915945083023cc38763924e8585a2e3aa754e5202204b46bc701d3c73a1e4a3524260748255fb4c10d9a64b456b76d626c29b10b3e8012102d1cc2a059b5a96ab8e3556543fd20d2dd2a81d7657116a0892cae699fadb2225ffffffff0268e304000000000017a91487690c911ec37a980b7bb90d18b897f99e04fc9087bf4dbf00000000001976a914adee988c252988599a18ff29cb08a4a2f922d50388ac00000000", "vin": [{"sequence": 4294967295, "scriptSig": {"hex": "483045022100b7ad9ec01b66b216c1347c364915945083023cc38763924e8585a2e3aa754e5202204b46bc701d3c73a1e4a3524260748255fb4c10d9a64b456b76d626c29b10b3e8012102d1cc2a059b5a96ab8e3556543fd20d2dd2a81d7657116a0892cae699fadb2225", "asm": "3045022100b7ad9ec01b66b216c1347c364915945083023cc38763924e8585a2e3aa754e5202204b46bc701d3c73a1e4a3524260748255fb4c10d9a64b456b76d626c29b10b3e8[ALL] 02d1cc2a059b5a96ab8e3556543fd20d2dd2a81d7657116a0892cae699fadb2225"}, "vout": 1, "txid": "f86603dd899cf6dce87ade26384a4e85578e9bf8e949bc9b1a0daaf203421666"}], "txid": "7ed9dbb3ff5e02fd33eb50700b72a78ee8cafa977a2923de4bfa70efbd56279d", "blocktime": 1537870268, "version": 1, "confirmations": 11516, "time": 1537870268, "locktime": 0, "vsize": 224, "size": 224}