{"hash": "8a1a2d5fe5249411c16bfb54be861761dadee95b43f2bf417d58dc32ade69425", "blockhash": "0000000000000000001f76057863aec43deb6fa401d9628bb513d65a8098bfab", "vout": [{"scriptPubKey": {"reqSigs": 1, "hex": "a9148ca2ea6be3040ca0e1407af195d767484b2ff9a887", "addresses": ["3EWdgyuNA5PWZz5f5ScfM6SNJdBXTNEeBV"], "asm": "OP_HASH160 8ca2ea6be3040ca0e1407af195d767484b2ff9a8 OP_EQUAL", "type": "scripthash"}, "value": 0.0099826, "n": 0}, {"scriptPubKey": {"reqSigs": 1, "hex": "a9146166d559f7d21ab0f11e9b3c96bdeb7acb66048c87", "addresses": ["3Aa2f9ABm4Vi8pCfBB5sE4aRreGdkz4WeT"], "asm": "OP_HASH160 6166d559f7d21ab0f11e9b3c96bdeb7acb66048c OP_EQUAL", "type": "scripthash"}, "value": 0.0176, "n": 1}], "hex": "020000000001037bb837dc2c46ee5761ce976d4c31c795abbb4fdc784f386877e6994035adad7a000000006a473044022023358456c1942309f674d9a58a6479ac15d9ccbeaf59667cc56b4061ef7e8cc6022075ceeb6a54297ebcee178d9cde08f5a3c2dc2b2ebf0f817bf53ab3a1df93cefe01210398374136d444e454b8a01468d1d8b8d9abd219bf1ce712b62e120ba23c46a28dfeffffffcf2bad157e598ccf87fd6df0eac130c470cbb9ad4a8c0d6de7b9dae87dd3d16e0100000017160014e21cae61ceffe41b10f9d09373eb765ccad26a4afefffffffda1607000cdf55309fcbe14f3d2bf726facc29b56e2f384430e70f9346e9f1d000000006a473044022022822926d37c1bd2571927ec274fc2e8ee91c7f84616fa8c6cfe804a58342f4002202e638f33a06e3944f2fe4a2bf10f1c3ba02bc6607b1f0ccf29bd488679e759f701210362f3a29ab2165afc7c864839301ad83879f9575df143c9183d5c4dd8a282cdbafeffffff02743b0f000000000017a9148ca2ea6be3040ca0e1407af195d767484b2ff9a88700db1a000000000017a9146166d559f7d21ab0f11e9b3c96bdeb7acb66048c870002483045022100c038d4e4f6a6d0844859fdea1de8f94c0029f4c3ad06cadc2534c9ddb6375ae302207c8d7cc6c26c168e5da7fe276ae3705eaf54e3c9e44c74677086aababf62da440121039e4afd22cf06318e0c51e6b00024e3911d9645cd2fa91a929e37ffdbd5472de40014490800", "vin": [{"sequence": 4294967294, "scriptSig": {"hex": "473044022023358456c1942309f674d9a58a6479ac15d9ccbeaf59667cc56b4061ef7e8cc6022075ceeb6a54297ebcee178d9cde08f5a3c2dc2b2ebf0f817bf53ab3a1df93cefe01210398374136d444e454b8a01468d1d8b8d9abd219bf1ce712b62e120ba23c46a28d", "asm": "3044022023358456c1942309f674d9a58a6479ac15d9ccbeaf59667cc56b4061ef7e8cc6022075ceeb6a54297ebcee178d9cde08f5a3c2dc2b2ebf0f817bf53ab3a1df93cefe[ALL] 0398374136d444e454b8a01468d1d8b8d9abd219bf1ce712b62e120ba23c46a28d"}, "vout": 0, "txid": "7aadad354099e67768384f78dc4fbbab95c7314c6d97ce6157ee462cdc37b87b"}, {"txinwitness": ["3045022100c038d4e4f6a6d0844859fdea1de8f94c0029f4c3ad06cadc2534c9ddb6375ae302207c8d7cc6c26c168e5da7fe276ae3705eaf54e3c9e44c74677086aababf62da4401", "039e4afd22cf06318e0c51e6b00024e3911d9645cd2fa91a929e37ffdbd5472de4"], "sequence": 4294967294, "scriptSig": {"hex": "160014e21cae61ceffe41b10f9d09373eb765ccad26a4a", "asm": "0014e21cae61ceffe41b10f9d09373eb765ccad26a4a"}, "vout": 1, "txid": "6ed1d37de8dab9e76d0d8c4aadb9cb70c430c1eaf06dfd87cf8c597e15ad2bcf"}, {"sequence": 4294967294, "scriptSig": {"hex": "473044022022822926d37c1bd2571927ec274fc2e8ee91c7f84616fa8c6cfe804a58342f4002202e638f33a06e3944f2fe4a2bf10f1c3ba02bc6607b1f0ccf29bd488679e759f701210362f3a29ab2165afc7c864839301ad83879f9575df143c9183d5c4dd8a282cdba", "asm": "3044022022822926d37c1bd2571927ec274fc2e8ee91c7f84616fa8c6cfe804a58342f4002202e638f33a06e3944f2fe4a2bf10f1c3ba02bc6607b1f0ccf29bd488679e759f7[ALL] 0362f3a29ab2165afc7c864839301ad83879f9575df143c9183d5c4dd8a282cdba"}, "vout": 0, "txid": "1d9f6e34f9700e4384f3e2569bc2ac6f72bfd2f314befc0953f5cd007060a1fd"}], "txid": "7edfa82d8b2b8543a8583eae9c4531420bec6fe9d8ae95170ffbb642be624025", "blocktime": 1537873891, "version": 2, "confirmations": 11475, "time": 1537873891, "locktime": 542996, "vsize": 460, "size": 544}