{"hash": "6b1653192b3909907dd4076c23570815d52f136897b561dfecf59ccd0a412829", "blockhash": "00000000000000000017f5eb5941039fbcee6240d03bc1f2f8e35350df66a1d8", "vout": [{"scriptPubKey": {"reqSigs": 1, "hex": "0014ff173393c04522d73191951106adb0dd64d3e3dc", "addresses": ["bc1qlutn8y7qg53dwvv3j5gsdtdsm4jd8c7uh8mjkl"], "asm": "0 ff173393c04522d73191951106adb0dd64d3e3dc", "type": "witness_v0_keyhash"}, "value": 9.61e-06, "n": 0}, {"scriptPubKey": {"reqSigs": 1, "hex": "76a914178e900ba0c30b1ae144b4e17322a9227f9fefd788ac", "addresses": ["139ZKqkiVAZeZARpResK6W5hEzrtKmovb3"], "asm": "OP_DUP OP_HASH160 178e900ba0c30b1ae144b4e17322a9227f9fefd7 OP_EQUALVERIFY OP_CHECKSIG", "type": "pubkeyhash"}, "value": 0.00024184, "n": 1}], "hex": "01000000000101736c4b891edf08efb94102a73a1565fc815d2db3236426a278716d4562bd03710000000000ffffffff02c103000000000000160014ff173393c04522d73191951106adb0dd64d3e3dc785e0000000000001976a914178e900ba0c30b1ae144b4e17322a9227f9fefd788ac02483045022100879668ae4c0ac41e7c73583d87b0bd039896d676cece4208b03ea35b4a40667302205c607294feeb8e1bc990135ba4d6ad351144ac855c6ad05e6a6c6b59355c08ec01210315d425c715c2d2c4a255e1898983d1a9411a4bdfd98b360ecc6df5058638124a00000000", "vin": [{"txinwitness": ["3045022100879668ae4c0ac41e7c73583d87b0bd039896d676cece4208b03ea35b4a40667302205c607294feeb8e1bc990135ba4d6ad351144ac855c6ad05e6a6c6b59355c08ec01", "0315d425c715c2d2c4a255e1898983d1a9411a4bdfd98b360ecc6df5058638124a"], "sequence": 4294967295, "scriptSig": {"hex": "", "asm": ""}, "vout": 0, "txid": "7103bd62456d7178a2266423b32d5d81fc65153aa70241b9ef08df1e894b6c73"}], "txid": "7ee029d264dfb8fb49171126789d9a6c39393e8439c754124f1523a7b5c07331", "blocktime": 1537874412, "version": 1, "confirmations": 11467, "time": 1537874412, "locktime": 0, "vsize": 144, "size": 226}