{"hash": "a74e793b3c1b4afc80b90a91a6da6211aa7daed15b219c4187ac8a97d1b506dd", "blockhash": "0000000000000000000e13cef7c366c0283d82e591d1acd082e914b08063cdf1", "vout": [{"scriptPubKey": {"reqSigs": 1, "hex": "76a914f2ba5a8bc461ce2284ae2a390dfc509e6c9cbd6788ac", "addresses": ["1P8RmWGoZ1eDDFy6G5MTPYJArcEyaFYfiS"], "asm": "OP_DUP OP_HASH160 f2ba5a8bc461ce2284ae2a390dfc509e6c9cbd67 OP_EQUALVERIFY OP_CHECKSIG", "type": "pubkeyhash"}, "value": 0.00775069, "n": 0}, {"scriptPubKey": {"reqSigs": 1, "hex": "001445c56e99f4297b6d50eadddaf48a2b8e1f9eaeb9", "addresses": ["bc1qghzkax0599ak6582mhd0fz3t3c0eat4etav637"], "asm": "0 45c56e99f4297b6d50eadddaf48a2b8e1f9eaeb9", "type": "witness_v0_keyhash"}, "value": 1.99174343, "n": 1}], "hex": "0100000000010153ed48d88d6c1022fc39721335d7b8ebd72e416c74f826b29ff33379b41e80081100000017160014bbf9ffe28ac1f7084fa8a1d03f9bc38678f77f69ffffffff029dd30b00000000001976a914f2ba5a8bc461ce2284ae2a390dfc509e6c9cbd6788acc728df0b0000000016001445c56e99f4297b6d50eadddaf48a2b8e1f9eaeb90247304402206c40bf09065f7b1d2b08b1324519b21bf2f522e6872d00842b43c8171bc2bcd202202d09ba6b132b3236ceda1d5c6d08a584abb81b03bccc6944fe718866b1a6c22f012103b9a447c0d71b87a790c331ad117eac24499767b9c0918e38d68f8b1e2fc565f500000000", "vin": [{"txinwitness": ["304402206c40bf09065f7b1d2b08b1324519b21bf2f522e6872d00842b43c8171bc2bcd202202d09ba6b132b3236ceda1d5c6d08a584abb81b03bccc6944fe718866b1a6c22f01", "03b9a447c0d71b87a790c331ad117eac24499767b9c0918e38d68f8b1e2fc565f5"], "sequence": 4294967295, "scriptSig": {"hex": "160014bbf9ffe28ac1f7084fa8a1d03f9bc38678f77f69", "asm": "0014bbf9ffe28ac1f7084fa8a1d03f9bc38678f77f69"}, "vout": 17, "txid": "08801eb47933f39fb226f8746c412ed7ebb8d735137239fc22106c8dd848ed53"}], "txid": "7ee79ffef465f9079f6b424f733919a7a605b4c6b2ad19c465ab24149ac319f1", "blocktime": 1537871767, "version": 1, "confirmations": 11495, "time": 1537871767, "locktime": 0, "vsize": 167, "size": 248}