{"hash": "7ef3a731f8253a7694badfad298d8dbcaf1afe22ed230c2f43798157c65ffbe4", "blockhash": "000000000000000000022b45ed06c6f4ccd3cf7fb5ba4856ebd2e58215665228", "vout": [{"scriptPubKey": {"reqSigs": 1, "hex": "76a9142a669c5a6e036754af40ba057d4a1453e6a50a9d88ac", "addresses": ["14sCJaUQkANLECuT6eMUyGYXXqoGWbqCec"], "asm": "OP_DUP OP_HASH160 2a669c5a6e036754af40ba057d4a1453e6a50a9d OP_EQUALVERIFY OP_CHECKSIG", "type": "pubkeyhash"}, "value": 0.0004, "n": 0}, {"scriptPubKey": {"reqSigs": 1, "hex": "76a914c49fa5ed9bdbb8974f896a78e8dbf1ad5e0c8ac988ac", "addresses": ["1Jveh9Y56BRby4NMrUnnYMULcc1cew4CAh"], "asm": "OP_DUP OP_HASH160 c49fa5ed9bdbb8974f896a78e8dbf1ad5e0c8ac9 OP_EQUALVERIFY OP_CHECKSIG", "type": "pubkeyhash"}, "value": 0.00905738, "n": 1}], "hex": "0100000001a94533c931695d349c22036c763ef335cbd1dc795b2510af9f885b0420b51a400000000069463043021f5ee933595076a22c3044f62bd7e2e71505c9779696606e8da9fc25d1801884022065860315b17cf8c2ec273d1d52066de6a6b851e9aa4d5687525cfb3547d58e5801210282a9e3cffe7b64ad3a234d55242921f7daeaf76a8b2cef77f4a7ffd08c66aac6ffffffff02409c0000000000001976a9142a669c5a6e036754af40ba057d4a1453e6a50a9d88ac0ad20d00000000001976a914c49fa5ed9bdbb8974f896a78e8dbf1ad5e0c8ac988ac00000000", "vin": [{"sequence": 4294967295, "scriptSig": {"hex": "463043021f5ee933595076a22c3044f62bd7e2e71505c9779696606e8da9fc25d1801884022065860315b17cf8c2ec273d1d52066de6a6b851e9aa4d5687525cfb3547d58e5801210282a9e3cffe7b64ad3a234d55242921f7daeaf76a8b2cef77f4a7ffd08c66aac6", "asm": "3043021f5ee933595076a22c3044f62bd7e2e71505c9779696606e8da9fc25d1801884022065860315b17cf8c2ec273d1d52066de6a6b851e9aa4d5687525cfb3547d58e58[ALL] 0282a9e3cffe7b64ad3a234d55242921f7daeaf76a8b2cef77f4a7ffd08c66aac6"}, "vout": 0, "txid": "401ab520045b889faf10255b79dcd1cb35f33e766c03229c345d6931c93345a9"}], "txid": "7ef3a731f8253a7694badfad298d8dbcaf1afe22ed230c2f43798157c65ffbe4", "blocktime": 1537869901, "version": 1, "confirmations": 11522, "time": 1537869901, "locktime": 0, "vsize": 224, "size": 224}