{"hash": "7efa11e24eaf297f4d6ea5f31d48a066adbc584d2ed8c0dd784dc1bec630a161", "blockhash": "00000000000000000018f53835495a110e01622372bf6ae95dc86f2b0ab887b0", "vout": [{"scriptPubKey": {"reqSigs": 1, "hex": "76a91490a8dd7cb7f649150bcfc08cffb6557d00395d1288ac", "addresses": ["1EBtbamnXSNpjkW1v3P8mo2QzpKFcCei72"], "asm": "OP_DUP OP_HASH160 90a8dd7cb7f649150bcfc08cffb6557d00395d12 OP_EQUALVERIFY OP_CHECKSIG", "type": "pubkeyhash"}, "value": 0.0141268, "n": 0}, {"scriptPubKey": {"reqSigs": 1, "hex": "76a914a81dbbfc6607d28c715ecebc6ff82b96672f791a88ac", "addresses": ["1GKv9CrDiNYgQsEs1JZZ4inUko3cK8UwS9"], "asm": "OP_DUP OP_HASH160 a81dbbfc6607d28c715ecebc6ff82b96672f791a OP_EQUALVERIFY OP_CHECKSIG", "type": "pubkeyhash"}, "value": 0.03438393, "n": 1}], "hex": "01000000011431f0db413ca50d477b07eefde769843bbd15846d51c77a76e92376529656bb010000006a47304402205d2ba2c23ec8849e5abd91c7aaf5e41aa492a649934b4893b180b9a8adfa52d102204bbb26a2f2bc41902edd2a9c9ff873faab94357f198016aa601cc2f26594854d012103abd6f89d7e2aed8382438b61c6af53d03431fb5068d7a6b85f4e917122dee6bbffffffff02488e1500000000001976a91490a8dd7cb7f649150bcfc08cffb6557d00395d1288ac39773400000000001976a914a81dbbfc6607d28c715ecebc6ff82b96672f791a88ac00000000", "vin": [{"sequence": 4294967295, "scriptSig": {"hex": "47304402205d2ba2c23ec8849e5abd91c7aaf5e41aa492a649934b4893b180b9a8adfa52d102204bbb26a2f2bc41902edd2a9c9ff873faab94357f198016aa601cc2f26594854d012103abd6f89d7e2aed8382438b61c6af53d03431fb5068d7a6b85f4e917122dee6bb", "asm": "304402205d2ba2c23ec8849e5abd91c7aaf5e41aa492a649934b4893b180b9a8adfa52d102204bbb26a2f2bc41902edd2a9c9ff873faab94357f198016aa601cc2f26594854d[ALL] 03abd6f89d7e2aed8382438b61c6af53d03431fb5068d7a6b85f4e917122dee6bb"}, "vout": 1, "txid": "bb5696527623e9767ac7516d8415bd3b8469e7fdee077b470da53c41dbf03114"}], "txid": "7efa11e24eaf297f4d6ea5f31d48a066adbc584d2ed8c0dd784dc1bec630a161", "blocktime": 1537870928, "version": 1, "confirmations": 11514, "time": 1537870928, "locktime": 0, "vsize": 225, "size": 225}