{"hash": "7f015638080593135ead9e7b63e37503a365eddeb7a24dead7ae1e61402b09e2", "blockhash": "0000000000000000001f76057863aec43deb6fa401d9628bb513d65a8098bfab", "vout": [{"scriptPubKey": {"reqSigs": 1, "hex": "a91493fca948aa8087978904cc8bd83e2d5f1ec291b287", "addresses": ["3FBVvxMq7GQue5SRfnMinrmioLt2KXJHMv"], "asm": "OP_HASH160 93fca948aa8087978904cc8bd83e2d5f1ec291b2 OP_EQUAL", "type": "scripthash"}, "value": 0.02, "n": 0}, {"scriptPubKey": {"reqSigs": 1, "hex": "76a914961fc7ae0be77c01f6ab95c87fb15abafc6d44ee88ac", "addresses": ["1EgnRtV1sjnxk1VHxeAtR4oMhe5wF1bDrP"], "asm": "OP_DUP OP_HASH160 961fc7ae0be77c01f6ab95c87fb15abafc6d44ee OP_EQUALVERIFY OP_CHECKSIG", "type": "pubkeyhash"}, "value": 0.11209194, "n": 1}], "hex": "01000000016881582860e9c68e78fc6e976b9098d5758df71f3b5019ff56763b0ac1362df0010000006b483045022100a6dae1689ea93487a10376e8439dc16280db13503d19ff8fb5dc8953327eb4f802203c3adb742a23988266e51517cdc3b8a8295730363aec8d24c844ba95eb580ee601210296a4e3796fcc64b1625ab485e70a4fa068fb6fb7473970e109bf824fbb98420fffffffff0280841e000000000017a91493fca948aa8087978904cc8bd83e2d5f1ec291b287ea09ab00000000001976a914961fc7ae0be77c01f6ab95c87fb15abafc6d44ee88ac00000000", "vin": [{"sequence": 4294967295, "scriptSig": {"hex": "483045022100a6dae1689ea93487a10376e8439dc16280db13503d19ff8fb5dc8953327eb4f802203c3adb742a23988266e51517cdc3b8a8295730363aec8d24c844ba95eb580ee601210296a4e3796fcc64b1625ab485e70a4fa068fb6fb7473970e109bf824fbb98420f", "asm": "3045022100a6dae1689ea93487a10376e8439dc16280db13503d19ff8fb5dc8953327eb4f802203c3adb742a23988266e51517cdc3b8a8295730363aec8d24c844ba95eb580ee6[ALL] 0296a4e3796fcc64b1625ab485e70a4fa068fb6fb7473970e109bf824fbb98420f"}, "vout": 1, "txid": "f02d36c10a3b7656ff19503b1ff78d75d598906b976efc788ec6e96028588168"}], "txid": "7f015638080593135ead9e7b63e37503a365eddeb7a24dead7ae1e61402b09e2", "blocktime": 1537873891, "version": 1, "confirmations": 11475, "time": 1537873891, "locktime": 0, "vsize": 224, "size": 224}