{"hash": "7f04b77b8c2ad63366384b509b22f5489c9aa9085ab05049e1025def4ef90348", "blockhash": "00000000000000000024a2167bbff67b0be802c0b01cdd79e6331c2be6459f87", "vout": [{"scriptPubKey": {"type": "nulldata", "hex": "6a4c500000777c0001b5e35f1de28bd9246c8a4ea5bcbefa6b8351586b4e86aeaeacb577c031fc188e23a49bea01f4b5f926be4d26c66a5baa0a0d0614ac97a78d2db7bc9a9526289ac0f6612cd74e33776ee4", "asm": "OP_RETURN 0000777c0001b5e35f1de28bd9246c8a4ea5bcbefa6b8351586b4e86aeaeacb577c031fc188e23a49bea01f4b5f926be4d26c66a5baa0a0d0614ac97a78d2db7bc9a9526289ac0f6612cd74e33776ee4"}, "value": 0.0, "n": 0}, {"scriptPubKey": {"reqSigs": 1, "hex": "76a91447952cdcd51487260180468a53f021c07c05981688ac", "addresses": ["17XVgVs9WWFFFuetAg84tieQznkjKDBYhy"], "asm": "OP_DUP OP_HASH160 47952cdcd51487260180468a53f021c07c059816 OP_EQUALVERIFY OP_CHECKSIG", "type": "pubkeyhash"}, "value": 0.01417984, "n": 1}], "hex": "0100000001240af845cf92951fe1a438c20e32617a9123a04ebcf162388314722e55917132010000006a47304402207a6d94b0ee0165a3b9e43f7e90079f4b14c66c2574841a36f7754331d20c803802200407b41ed31b3cadd3f4fc417ebe9c030b10f872203f8809048506547b07d1ef012102f0963639aefbfc4377e74cbdca972b15d518b8269100778980c9fd13ef50574dffffffff020000000000000000536a4c500000777c0001b5e35f1de28bd9246c8a4ea5bcbefa6b8351586b4e86aeaeacb577c031fc188e23a49bea01f4b5f926be4d26c66a5baa0a0d0614ac97a78d2db7bc9a9526289ac0f6612cd74e33776ee400a31500000000001976a91447952cdcd51487260180468a53f021c07c05981688ac00000000", "vin": [{"sequence": 4294967295, "scriptSig": {"hex": "47304402207a6d94b0ee0165a3b9e43f7e90079f4b14c66c2574841a36f7754331d20c803802200407b41ed31b3cadd3f4fc417ebe9c030b10f872203f8809048506547b07d1ef012102f0963639aefbfc4377e74cbdca972b15d518b8269100778980c9fd13ef50574d", "asm": "304402207a6d94b0ee0165a3b9e43f7e90079f4b14c66c2574841a36f7754331d20c803802200407b41ed31b3cadd3f4fc417ebe9c030b10f872203f8809048506547b07d1ef[ALL] 02f0963639aefbfc4377e74cbdca972b15d518b8269100778980c9fd13ef50574d"}, "vout": 1, "txid": "327191552e7214833862f1bc4ea023917a61320ec238a4e11f9592cf45f80a24"}], "txid": "7f04b77b8c2ad63366384b509b22f5489c9aa9085ab05049e1025def4ef90348", "blocktime": 1537870564, "version": 1, "confirmations": 11515, "time": 1537870564, "locktime": 0, "vsize": 283, "size": 283}