{"hash": "7f06abec8a1f3ea0e4a7be880f9c420cd135ff0bb2440b99c9d6d00cc51b30f4", "blockhash": "00000000000000000017f5eb5941039fbcee6240d03bc1f2f8e35350df66a1d8", "vout": [{"scriptPubKey": {"reqSigs": 1, "hex": "76a914cfe95481afb1f75144e82e7941f49ef8e4dfe25088ac", "addresses": ["1KxLPmb1Jrabz2poTm5TKBTQzZr5f5JEpQ"], "asm": "OP_DUP OP_HASH160 cfe95481afb1f75144e82e7941f49ef8e4dfe250 OP_EQUALVERIFY OP_CHECKSIG", "type": "pubkeyhash"}, "value": 0.000562, "n": 0}, {"scriptPubKey": {"type": "nulldata", "hex": "6a4c50000077f40001fc28e6b5ad2529de39b27bfad19ed074892d00f8e87af8e8e963c7cfd5b9e4473a4344f48ffff1016eb0571f15905baa18a406131478cd400475bc9a9526289ac0f6612cd74e33776ee4", "asm": "OP_RETURN 000077f40001fc28e6b5ad2529de39b27bfad19ed074892d00f8e87af8e8e963c7cfd5b9e4473a4344f48ffff1016eb0571f15905baa18a406131478cd400475bc9a9526289ac0f6612cd74e33776ee4"}, "value": 0.0, "n": 1}], "hex": "0100000001961b471dcb06a437636670d6bf13e6f128d528c712370feeacb54471fa1bb2fc000000006a47304402200870c07fafe0bbcc92a445d38c9c42ec18538bffd5ee209e9c7aa269ff8cf8aa0220444c1bfe1b8ac40f91d5dabad25a94f1a30aec48e8c699f0b2c529db0810a6010121023cb609212828275dcb0e7668ea2dfead5eddd25540f71a8b777f7554ef8b053dffffffff0288db0000000000001976a914cfe95481afb1f75144e82e7941f49ef8e4dfe25088ac0000000000000000536a4c50000077f40001fc28e6b5ad2529de39b27bfad19ed074892d00f8e87af8e8e963c7cfd5b9e4473a4344f48ffff1016eb0571f15905baa18a406131478cd400475bc9a9526289ac0f6612cd74e33776ee400000000", "vin": [{"sequence": 4294967295, "scriptSig": {"hex": "47304402200870c07fafe0bbcc92a445d38c9c42ec18538bffd5ee209e9c7aa269ff8cf8aa0220444c1bfe1b8ac40f91d5dabad25a94f1a30aec48e8c699f0b2c529db0810a6010121023cb609212828275dcb0e7668ea2dfead5eddd25540f71a8b777f7554ef8b053d", "asm": "304402200870c07fafe0bbcc92a445d38c9c42ec18538bffd5ee209e9c7aa269ff8cf8aa0220444c1bfe1b8ac40f91d5dabad25a94f1a30aec48e8c699f0b2c529db0810a601[ALL] 023cb609212828275dcb0e7668ea2dfead5eddd25540f71a8b777f7554ef8b053d"}, "vout": 0, "txid": "fcb21bfa7144b5acee0f3712c728d528f1e613bfd670666337a406cb1d471b96"}], "txid": "7f06abec8a1f3ea0e4a7be880f9c420cd135ff0bb2440b99c9d6d00cc51b30f4", "blocktime": 1537874412, "version": 1, "confirmations": 11467, "time": 1537874412, "locktime": 0, "vsize": 283, "size": 283}