{"hash": "7f0bbba7c9e05c96ace0b1dffde41f1ee02c68f0f15186488d7852205b123103", "blockhash": "00000000000000000017f5eb5941039fbcee6240d03bc1f2f8e35350df66a1d8", "vout": [{"scriptPubKey": {"type": "nulldata", "hex": "6a146f6d6e69000000000000001f00001b48df6c1e00", "asm": "OP_RETURN 6f6d6e69000000000000001f00001b48df6c1e00"}, "value": 0.0, "n": 0}, {"scriptPubKey": {"reqSigs": 1, "hex": "76a9147bdeef07df90246d63d8bb763d143c0941198ff588ac", "addresses": ["1CHyBJU272jLWz1ovG7Wj2NKJUFQt8nxZD"], "asm": "OP_DUP OP_HASH160 7bdeef07df90246d63d8bb763d143c0941198ff5 OP_EQUALVERIFY OP_CHECKSIG", "type": "pubkeyhash"}, "value": 0.00565441, "n": 1}, {"scriptPubKey": {"reqSigs": 1, "hex": "76a914a25dec4d0011064ef106a983c39c7a540699f22088ac", "addresses": ["1FoWyxwPXuj4C6abqwhjDWdz6D4PZgYRjA"], "asm": "OP_DUP OP_HASH160 a25dec4d0011064ef106a983c39c7a540699f220 OP_EQUALVERIFY OP_CHECKSIG", "type": "pubkeyhash"}, "value": 5.46e-06, "n": 2}], "hex": "01000000029417abcb1d59976825f525b87a344835e756143ae531ecee5963a67fe51036e0000000006a47304402205ade59ff49d85125ccc0c1327c17d167789f46548da374f8c7dba378ffed1adc02203df155bc8296c5095eb69352d7531a0077d3911caf5bf6d2dd1f105f470d7aee012102e8d15d95d7fd599cca33ab855d355abdfa13b1e050508cd914773b245ecc3ec0feffffffcda4e5b1264d0aa518ca32c817c1a9f27b75e078275671361d64f8a5e962c4d6000000006b483045022100e4c2af94e3d28990b4eaced16e7ed6fc9843fd3889ad9c92cfe9a27763115ba3022078f18c89e81aaa8f83a46ac3b0781f64875a552763589911b6cc37b04106650d012102e8d15d95d7fd599cca33ab855d355abdfa13b1e050508cd914773b245ecc3ec0feffffff030000000000000000166a146f6d6e69000000000000001f00001b48df6c1e00c1a00800000000001976a9147bdeef07df90246d63d8bb763d143c0941198ff588ac22020000000000001976a914a25dec4d0011064ef106a983c39c7a540699f22088ac15490800", "vin": [{"sequence": 4294967294, "scriptSig": {"hex": "47304402205ade59ff49d85125ccc0c1327c17d167789f46548da374f8c7dba378ffed1adc02203df155bc8296c5095eb69352d7531a0077d3911caf5bf6d2dd1f105f470d7aee012102e8d15d95d7fd599cca33ab855d355abdfa13b1e050508cd914773b245ecc3ec0", "asm": "304402205ade59ff49d85125ccc0c1327c17d167789f46548da374f8c7dba378ffed1adc02203df155bc8296c5095eb69352d7531a0077d3911caf5bf6d2dd1f105f470d7aee[ALL] 02e8d15d95d7fd599cca33ab855d355abdfa13b1e050508cd914773b245ecc3ec0"}, "vout": 0, "txid": "e03610e57fa66359eeec31e53a1456e73548347ab825f5256897591dcbab1794"}, {"sequence": 4294967294, "scriptSig": {"hex": "483045022100e4c2af94e3d28990b4eaced16e7ed6fc9843fd3889ad9c92cfe9a27763115ba3022078f18c89e81aaa8f83a46ac3b0781f64875a552763589911b6cc37b04106650d012102e8d15d95d7fd599cca33ab855d355abdfa13b1e050508cd914773b245ecc3ec0", "asm": "3045022100e4c2af94e3d28990b4eaced16e7ed6fc9843fd3889ad9c92cfe9a27763115ba3022078f18c89e81aaa8f83a46ac3b0781f64875a552763589911b6cc37b04106650d[ALL] 02e8d15d95d7fd599cca33ab855d355abdfa13b1e050508cd914773b245ecc3ec0"}, "vout": 0, "txid": "d6c462e9a5f8641d3671562778e0757bf2a9c117c832ca18a50a4d26b1e5a4cd"}], "txid": "7f0bbba7c9e05c96ace0b1dffde41f1ee02c68f0f15186488d7852205b123103", "blocktime": 1537874412, "version": 1, "confirmations": 11468, "time": 1537874412, "locktime": 542997, "vsize": 404, "size": 404}