{"hash": "3eaea1f0222fa90b17fb3218f67028776e8b7e922254f814304eabc4e9f13954", "blockhash": "0000000000000000000baef3f32e3676a92c3b2e5da21b426e4f302fc371ce76", "vout": [{"scriptPubKey": {"reqSigs": 1, "hex": "76a9141deb26a11f13427891134750af212a9c7abe2ce188ac", "addresses": ["13jCJ8m1VRnLhHQajr2ASmcCe5PHxjYmjt"], "asm": "OP_DUP OP_HASH160 1deb26a11f13427891134750af212a9c7abe2ce1 OP_EQUALVERIFY OP_CHECKSIG", "type": "pubkeyhash"}, "value": 0.0031, "n": 0}, {"scriptPubKey": {"reqSigs": 1, "hex": "a914ccc971413f6f91a8a641f38e2f15c42164556f4a87", "addresses": ["3LMq697HFhSyxn6tTbvbZCutsKwRVHasYt"], "asm": "OP_HASH160 ccc971413f6f91a8a641f38e2f15c42164556f4a OP_EQUAL", "type": "scripthash"}, "value": 0.03597953, "n": 1}], "hex": "01000000000101b6c4279af838e8ba6660519f9ba4c630d7123a92834ae3f32fda22400eba288b0000000017160014c026aced35abdbb2381b78ddc4d61706902269aeffffffff02f0ba0400000000001976a9141deb26a11f13427891134750af212a9c7abe2ce188ac81e636000000000017a914ccc971413f6f91a8a641f38e2f15c42164556f4a87024730440220583f529627e0615f4ba05596f36c01a78ebdb6493e3351e022f5764947bb99da022031112b1be5292adb729100bdd91d269f75d77400d02eb61b644908d8a16461480121036a2c2795eaeff8b6815ee77da200b2f27833d99c59daf124c9b5f87b6fb6ef0b00000000", "vin": [{"txinwitness": ["30440220583f529627e0615f4ba05596f36c01a78ebdb6493e3351e022f5764947bb99da022031112b1be5292adb729100bdd91d269f75d77400d02eb61b644908d8a164614801", "036a2c2795eaeff8b6815ee77da200b2f27833d99c59daf124c9b5f87b6fb6ef0b"], "sequence": 4294967295, "scriptSig": {"hex": "160014c026aced35abdbb2381b78ddc4d61706902269ae", "asm": "0014c026aced35abdbb2381b78ddc4d61706902269ae"}, "vout": 0, "txid": "8b28ba0e4022da2ff3e34a83923a12d730c6a49b9f516066bae838f89a27c4b6"}], "txid": "7f1042e4d9ea83ae617fa1cb2b71c5c7a9dbea7ad03ba5baba058e84a8fe591d", "blocktime": 1537876114, "version": 1, "confirmations": 11460, "time": 1537876114, "locktime": 0, "vsize": 168, "size": 249}