{"hash": "7f115bf02efbc22ef4312ec7f15546b7385b8e5e014f0ddfe4c04a9594ec7df6", "blockhash": "0000000000000000001cda96e906b7601b7a6fb1a3b62bca570a9e5d8f4b3de1", "vout": [{"scriptPubKey": {"reqSigs": 1, "hex": "76a9149d501816c66dad245c8f94fa7687c913c3bfe28c88ac", "addresses": ["1FLo39s8bkeSkGCXsTv1DnJh7PTDZjXKei"], "asm": "OP_DUP OP_HASH160 9d501816c66dad245c8f94fa7687c913c3bfe28c OP_EQUALVERIFY OP_CHECKSIG", "type": "pubkeyhash"}, "value": 0.528794, "n": 0}, {"scriptPubKey": {"reqSigs": 1, "hex": "76a914d84aff640e8f240f4fc127c513a1fc21acf0b21988ac", "addresses": ["1LieoMxjnAMXqG8kAES9KF279FeYrRYhAR"], "asm": "OP_DUP OP_HASH160 d84aff640e8f240f4fc127c513a1fc21acf0b219 OP_EQUALVERIFY OP_CHECKSIG", "type": "pubkeyhash"}, "value": 0.54146619, "n": 1}], "hex": "01000000014afb8299ff4379f211fc783069295a1e4f189b6832ef280aaef79b4b3de5d97a010000006a473044022025b0347b44d508fa07f883895062e6e380e9d82818baf0ef99cf239b93ed29cf02201389dc735a68b2de2899315fe07c7c99f530027192e19b1d2c1ac49f1a00acbc01210288e8b4ef43b92f43ea00440e5d57fdaf168f2666c07ff0338a196c31fd397482ffffffff0228e02603000000001976a9149d501816c66dad245c8f94fa7687c913c3bfe28c88ac3b363a03000000001976a914d84aff640e8f240f4fc127c513a1fc21acf0b21988ac00000000", "vin": [{"sequence": 4294967295, "scriptSig": {"hex": "473044022025b0347b44d508fa07f883895062e6e380e9d82818baf0ef99cf239b93ed29cf02201389dc735a68b2de2899315fe07c7c99f530027192e19b1d2c1ac49f1a00acbc01210288e8b4ef43b92f43ea00440e5d57fdaf168f2666c07ff0338a196c31fd397482", "asm": "3044022025b0347b44d508fa07f883895062e6e380e9d82818baf0ef99cf239b93ed29cf02201389dc735a68b2de2899315fe07c7c99f530027192e19b1d2c1ac49f1a00acbc[ALL] 0288e8b4ef43b92f43ea00440e5d57fdaf168f2666c07ff0338a196c31fd397482"}, "vout": 1, "txid": "7ad9e53d4b9bf7ae0a28ef32689b184f1e5a29693078fc11f27943ff9982fb4a"}], "txid": "7f115bf02efbc22ef4312ec7f15546b7385b8e5e014f0ddfe4c04a9594ec7df6", "blocktime": 1537873282, "version": 1, "confirmations": 11484, "time": 1537873282, "locktime": 0, "vsize": 225, "size": 225}