{"hash": "b9269ca422f49da6ad18f0632d909e3291cc590570192b9d10b60d1ad20be3b4", "blockhash": "0000000000000000001f0ddff1eddb255c1121bcd4da4f1bc9a0da00cae72433", "vout": [{"scriptPubKey": {"reqSigs": 1, "hex": "a91418207466679554df67c9b65acc0009a57fd3127e87", "addresses": ["33tb291YTUfM3iVKX8fGDeSX8i7ZzMuwDf"], "asm": "OP_HASH160 18207466679554df67c9b65acc0009a57fd3127e OP_EQUAL", "type": "scripthash"}, "value": 0.07897811, "n": 0}, {"scriptPubKey": {"reqSigs": 1, "hex": "76a914fc6379d8bcdfba970601561415de31fa3a51b72a88ac", "addresses": ["1Q1WT43BjADKuC5Jc5hYumfEypBy2uNhse"], "asm": "OP_DUP OP_HASH160 fc6379d8bcdfba970601561415de31fa3a51b72a OP_EQUALVERIFY OP_CHECKSIG", "type": "pubkeyhash"}, "value": 0.09528073, "n": 1}], "hex": "020000000001018e5d11d573aded330ecb764a3ea79a1ddf974b44b63f1b2c078a747b86eccee400000000171600145b34dd873a7a0f9a5a6de8df13b346a390568ee5fdffffff02d38278000000000017a91418207466679554df67c9b65acc0009a57fd3127e8709639100000000001976a914fc6379d8bcdfba970601561415de31fa3a51b72a88ac024730440220627326407a1a478d5fe89bccf3e7d206d92bedf1867d1b74c4afc5d7a39b3b4602204ce9f5e5527d0a9ea385fdf444bd75e8c84f9f7f855ebd913a400e62c04d260b01210351fa2eb6f4f54b7cafdd3ee125346d67bdf7b91ef6de91cf4547d18e56113ff510490800", "vin": [{"txinwitness": ["30440220627326407a1a478d5fe89bccf3e7d206d92bedf1867d1b74c4afc5d7a39b3b4602204ce9f5e5527d0a9ea385fdf444bd75e8c84f9f7f855ebd913a400e62c04d260b01", "0351fa2eb6f4f54b7cafdd3ee125346d67bdf7b91ef6de91cf4547d18e56113ff5"], "sequence": 4294967293, "scriptSig": {"hex": "1600145b34dd873a7a0f9a5a6de8df13b346a390568ee5", "asm": "00145b34dd873a7a0f9a5a6de8df13b346a390568ee5"}, "vout": 0, "txid": "e4ceec867b748a072c1b3fb6444b97df1d9aa73e4a76cb0e33edad73d5115d8e"}], "txid": "7f12bbdb083bc019a3bcc97a814b8e9e43a0d333c1eb583224ee8e78f8fb1691", "blocktime": 1537872018, "version": 2, "confirmations": 11489, "time": 1537872018, "locktime": 542992, "vsize": 168, "size": 249}