{"hash": "7f1a7f779d3d36c837154b1a3f3e16553c0345f9843a33e6fc026eeaedfa735f", "blockhash": "0000000000000000001cda96e906b7601b7a6fb1a3b62bca570a9e5d8f4b3de1", "vout": [{"scriptPubKey": {"reqSigs": 1, "hex": "76a91461b879de4480d5a619b4d95d2a85073c7972108088ac", "addresses": ["19uhYEEBzogL9Fz8ftFQXE9eFyheSHoctR"], "asm": "OP_DUP OP_HASH160 61b879de4480d5a619b4d95d2a85073c79721080 OP_EQUALVERIFY OP_CHECKSIG", "type": "pubkeyhash"}, "value": 0.00027931, "n": 0}, {"scriptPubKey": {"reqSigs": 1, "hex": "76a914ac34a6bfc9b06106f39d0ca5fe313ae65c91f22588ac", "addresses": ["1GhYJGzZu7bLnqv5F94Db14Yms1ottvJic"], "asm": "OP_DUP OP_HASH160 ac34a6bfc9b06106f39d0ca5fe313ae65c91f225 OP_EQUALVERIFY OP_CHECKSIG", "type": "pubkeyhash"}, "value": 0.005385, "n": 1}], "hex": "0100000004dbe2a8bc381c600713367aceb6fa869098d46fa7ed7dfcffcc0b62c61725b630000000008a473044022059c00b33251b7e029d7c184ad42f11634c713053ba81f7bc93e21adbb1a1e89202203de3aeca2a8079e79e136aa45db7229de47996d015e445335578af648ae7f51e0141042912a64899b80137a6ba01bf20702ad9c59b9dec3b942ce91f223fe4360c0bff032620a0c82438033a37551fd7421682474531d74f27acae0689be82116147d6fdffffffe0f462185586a350c164c9530ccd6024ac7e95cee9066024984a2e5b75a872a4000000008b483045022100989e9b393d160d2a2ba96579e2fc48c7b5a252b741fa520fa1bfb00b4b5487250220214eef64a173fa39ae44bf00d655d752d20fc66cc875465708714d1933537de90141047194fc46fcdc43f749ee5de4147be21b46c9b4b0a6b2b9a8183c38924b27904be43c2dd5168a0a0f85908961896b924c5e72c7556b635131fd98175970c9b779fdffffff47579f176edf427ec670473723a6c0171fd43997614b1cd71c75d3ec101b5abe000000008b483045022100e040fbf74e6e74ca36dad644ed5c5d61b6672d249e133b4825611cbb441694c202203e6301efdf9c72e8106bfc9ed6935d2884c39cff9b6e530fb6c63016a943d2be014104da450d5ac230616a4e8adf87cc7cf29c21673e59296b065b059fec9bcfacf868ab7e975103a7c4592a8ee026282f618acf1bf79b4408a7595d08712b2ef189c1fdffffffb91d97cf9c1579885f3148d161eb58e8f96638745b2d82e97b0752d70a318ef7000000008a47304402200a0e2d21b307dd16dd95f89bbfd03aabab51447e644706f13cb41cc708b6006302201e17c64aeb33580926dd8e756ab16f21c4398b1f5b5f306785d54957b626ab2b014104ccd1b2194490fb5b892915e9cac9edd19fe35fe07fc78283f138d90f7fb3f02e4dca59d663f8082886d98bf421ad0ad2e5f8613b67e95bd058f8308dfc0a794efdffffff021b6d0000000000001976a91461b879de4480d5a619b4d95d2a85073c7972108088ac84370800000000001976a914ac34a6bfc9b06106f39d0ca5fe313ae65c91f22588ac13490800", "vin": [{"sequence": 4294967293, "scriptSig": {"hex": "473044022059c00b33251b7e029d7c184ad42f11634c713053ba81f7bc93e21adbb1a1e89202203de3aeca2a8079e79e136aa45db7229de47996d015e445335578af648ae7f51e0141042912a64899b80137a6ba01bf20702ad9c59b9dec3b942ce91f223fe4360c0bff032620a0c82438033a37551fd7421682474531d74f27acae0689be82116147d6", "asm": "3044022059c00b33251b7e029d7c184ad42f11634c713053ba81f7bc93e21adbb1a1e89202203de3aeca2a8079e79e136aa45db7229de47996d015e445335578af648ae7f51e[ALL] 042912a64899b80137a6ba01bf20702ad9c59b9dec3b942ce91f223fe4360c0bff032620a0c82438033a37551fd7421682474531d74f27acae0689be82116147d6"}, "vout": 0, "txid": "30b62517c6620bccfffc7deda76fd4989086fab6ce7a361307601c38bca8e2db"}, {"sequence": 4294967293, "scriptSig": {"hex": "483045022100989e9b393d160d2a2ba96579e2fc48c7b5a252b741fa520fa1bfb00b4b5487250220214eef64a173fa39ae44bf00d655d752d20fc66cc875465708714d1933537de90141047194fc46fcdc43f749ee5de4147be21b46c9b4b0a6b2b9a8183c38924b27904be43c2dd5168a0a0f85908961896b924c5e72c7556b635131fd98175970c9b779", "asm": "3045022100989e9b393d160d2a2ba96579e2fc48c7b5a252b741fa520fa1bfb00b4b5487250220214eef64a173fa39ae44bf00d655d752d20fc66cc875465708714d1933537de9[ALL] 047194fc46fcdc43f749ee5de4147be21b46c9b4b0a6b2b9a8183c38924b27904be43c2dd5168a0a0f85908961896b924c5e72c7556b635131fd98175970c9b779"}, "vout": 0, "txid": "a472a8755b2e4a98246006e9ce957eac2460cd0c53c964c150a386551862f4e0"}, {"sequence": 4294967293, "scriptSig": {"hex": "483045022100e040fbf74e6e74ca36dad644ed5c5d61b6672d249e133b4825611cbb441694c202203e6301efdf9c72e8106bfc9ed6935d2884c39cff9b6e530fb6c63016a943d2be014104da450d5ac230616a4e8adf87cc7cf29c21673e59296b065b059fec9bcfacf868ab7e975103a7c4592a8ee026282f618acf1bf79b4408a7595d08712b2ef189c1", "asm": "3045022100e040fbf74e6e74ca36dad644ed5c5d61b6672d249e133b4825611cbb441694c202203e6301efdf9c72e8106bfc9ed6935d2884c39cff9b6e530fb6c63016a943d2be[ALL] 04da450d5ac230616a4e8adf87cc7cf29c21673e59296b065b059fec9bcfacf868ab7e975103a7c4592a8ee026282f618acf1bf79b4408a7595d08712b2ef189c1"}, "vout": 0, "txid": "be5a1b10ecd3751cd71c4b619739d41f17c0a623374770c67e42df6e179f5747"}, {"sequence": 4294967293, "scriptSig": {"hex": "47304402200a0e2d21b307dd16dd95f89bbfd03aabab51447e644706f13cb41cc708b6006302201e17c64aeb33580926dd8e756ab16f21c4398b1f5b5f306785d54957b626ab2b014104ccd1b2194490fb5b892915e9cac9edd19fe35fe07fc78283f138d90f7fb3f02e4dca59d663f8082886d98bf421ad0ad2e5f8613b67e95bd058f8308dfc0a794e", "asm": "304402200a0e2d21b307dd16dd95f89bbfd03aabab51447e644706f13cb41cc708b6006302201e17c64aeb33580926dd8e756ab16f21c4398b1f5b5f306785d54957b626ab2b[ALL] 04ccd1b2194490fb5b892915e9cac9edd19fe35fe07fc78283f138d90f7fb3f02e4dca59d663f8082886d98bf421ad0ad2e5f8613b67e95bd058f8308dfc0a794e"}, "vout": 0, "txid": "f78e310ad752077be9822d5b743866f9e858eb61d148315f8879159ccf971db9"}], "txid": "7f1a7f779d3d36c837154b1a3f3e16553c0345f9843a33e6fc026eeaedfa735f", "blocktime": 1537873282, "version": 1, "confirmations": 11484, "time": 1537873282, "locktime": 542995, "vsize": 796, "size": 796}