{"hash": "7f1e263948d7f6317056ee56ff7334609fa51e80e265bd9f5eb273daabf626a6", "blockhash": "00000000000000000018f53835495a110e01622372bf6ae95dc86f2b0ab887b0", "vout": [{"scriptPubKey": {"reqSigs": 1, "hex": "76a914a84e71e7f8d0e9bb94a8cba70292e299317453c488ac", "addresses": ["1GLvVgKTmAnZSfn2s3hnrBTGhazgyRhbbD"], "asm": "OP_DUP OP_HASH160 a84e71e7f8d0e9bb94a8cba70292e299317453c4 OP_EQUALVERIFY OP_CHECKSIG", "type": "pubkeyhash"}, "value": 60.6769402, "n": 0}, {"scriptPubKey": {"reqSigs": 1, "hex": "a9146585543effb9c16db26d89ea7373b1a28010d19087", "addresses": ["3AwotnYBXqEQu8T4t9b6uyGjKB6VJSFTE9"], "asm": "OP_HASH160 6585543effb9c16db26d89ea7373b1a28010d190 OP_EQUAL", "type": "scripthash"}, "value": 0.05, "n": 1}], "hex": "01000000011c3dbea74d7f992cd6dca462a04468c35381383c59973d3c2872c3422b8c216b000000006b483045022100ce2761c0c30b26cc339786b09f55bb6f2c638acd151bb795c894610c261d61450220642e1db329658da37779e3e194ac29c45e8f0cebc7a07f3ea399830374ef9a3d0121031d3d6ac30c9183311515cc0e30af3ab52ea8453ef1baf85c6541bde855021a60ffffffff02c4a9a969010000001976a914a84e71e7f8d0e9bb94a8cba70292e299317453c488ac404b4c000000000017a9146585543effb9c16db26d89ea7373b1a28010d1908700000000", "vin": [{"sequence": 4294967295, "scriptSig": {"hex": "483045022100ce2761c0c30b26cc339786b09f55bb6f2c638acd151bb795c894610c261d61450220642e1db329658da37779e3e194ac29c45e8f0cebc7a07f3ea399830374ef9a3d0121031d3d6ac30c9183311515cc0e30af3ab52ea8453ef1baf85c6541bde855021a60", "asm": "3045022100ce2761c0c30b26cc339786b09f55bb6f2c638acd151bb795c894610c261d61450220642e1db329658da37779e3e194ac29c45e8f0cebc7a07f3ea399830374ef9a3d[ALL] 031d3d6ac30c9183311515cc0e30af3ab52ea8453ef1baf85c6541bde855021a60"}, "vout": 0, "txid": "6b218c2b42c372283c3d97593c388153c36844a062a4dcd62c997f4da7be3d1c"}], "txid": "7f1e263948d7f6317056ee56ff7334609fa51e80e265bd9f5eb273daabf626a6", "blocktime": 1537870928, "version": 1, "confirmations": 11512, "time": 1537870928, "locktime": 0, "vsize": 224, "size": 224}