{"hash": "7f259150d8a2e91e72480a3224a174c54bb3e979fc659624c73b72f7dc6c504a", "blockhash": "0000000000000000000dcc0f55137456b1a82d3642486a52398922ac4d620174", "vout": [{"scriptPubKey": {"reqSigs": 1, "hex": "76a914273c36d138295b1164971f88215e1613252ce0e388ac", "addresses": ["14aTVEV4hHuVW4quyJZmHGZ7M2jfBKLmDZ"], "asm": "OP_DUP OP_HASH160 273c36d138295b1164971f88215e1613252ce0e3 OP_EQUALVERIFY OP_CHECKSIG", "type": "pubkeyhash"}, "value": 0.00137214, "n": 0}, {"scriptPubKey": {"reqSigs": 1, "hex": "76a9148aa50c95043d3e8a16dad27c14bf5aa99bf9127e88ac", "addresses": ["1De5yHjX9MzYKy1n9D77wEEG3Kgh7t1tJH"], "asm": "OP_DUP OP_HASH160 8aa50c95043d3e8a16dad27c14bf5aa99bf9127e OP_EQUALVERIFY OP_CHECKSIG", "type": "pubkeyhash"}, "value": 0.00312284, "n": 1}], "hex": "01000000010917659afcf39374c614c0bf9f17e63011f2e6271b55b2cb6f7b41f66127c046000000006b4830450221008506d450993e7da68fd159c2c8daf8b6247c028f2c0151ce3fed6fb76311399a022062e0200a2d67a8772f2fd3cc133b36cfc50a10aa862a85f8ff38a7a681905859012102bab5c203711348d44138ba0b4bace4d0904b0dd989c99f72e63a33d719cfbe75ffffffff02fe170200000000001976a914273c36d138295b1164971f88215e1613252ce0e388acdcc30400000000001976a9148aa50c95043d3e8a16dad27c14bf5aa99bf9127e88ac00000000", "vin": [{"sequence": 4294967295, "scriptSig": {"hex": "4830450221008506d450993e7da68fd159c2c8daf8b6247c028f2c0151ce3fed6fb76311399a022062e0200a2d67a8772f2fd3cc133b36cfc50a10aa862a85f8ff38a7a681905859012102bab5c203711348d44138ba0b4bace4d0904b0dd989c99f72e63a33d719cfbe75", "asm": "30450221008506d450993e7da68fd159c2c8daf8b6247c028f2c0151ce3fed6fb76311399a022062e0200a2d67a8772f2fd3cc133b36cfc50a10aa862a85f8ff38a7a681905859[ALL] 02bab5c203711348d44138ba0b4bace4d0904b0dd989c99f72e63a33d719cfbe75"}, "vout": 0, "txid": "46c02761f6417b6fcbb2551b27e6f21130e6179fbfc014c67493f3fc9a651709"}], "txid": "7f259150d8a2e91e72480a3224a174c54bb3e979fc659624c73b72f7dc6c504a", "blocktime": 1537870268, "version": 1, "confirmations": 11516, "time": 1537870268, "locktime": 0, "vsize": 226, "size": 226}