{"hash": "7f3bbd9c96ca23b38ee3c4859e1a1a5b46b4983ff887cee17f300d5f55301ecb", "blockhash": "0000000000000000001f76057863aec43deb6fa401d9628bb513d65a8098bfab", "vout": [{"scriptPubKey": {"reqSigs": 1, "hex": "76a914bfabbceedfbf9cc651a09148ba2de75b6008ba8988ac", "addresses": ["1JUToCyRL5UwgeucjnFAagKs4v1YqhjT1d"], "asm": "OP_DUP OP_HASH160 bfabbceedfbf9cc651a09148ba2de75b6008ba89 OP_EQUALVERIFY OP_CHECKSIG", "type": "pubkeyhash"}, "value": 0.75127318, "n": 0}], "hex": "02000000055134e6b126a160e35a88fcc9e704ee382d5a944c099c138ec97acc18c1791cc00c0000006a4730440220590d8ff1c92d95bec3eaa2321bc02bad1bba1b4e1ebe822dd078ab1fcd1843880220245c9497467bafb03617a20b66a78ffaf3c0810ac696a0e131acdc1269f8a97601210227b1d4a6d90445185ed9608ed90ba360b11e0477cd0ccd5e21dda4fcb0b6e67effffffff5dafd596c74e607a1cf84d03b4ebbd89a15f167bb89f037a7bc7f8132980f72a000000006a473044022030a55db165f3da3a92270b8f175496632948ba1e64598366ee3312fc10c4324c02205984290ef65eb13ee8a92266c6950c8cb6fff62159005fa60872ecd1d94e8e06012102b189968076a74f17e043bd1cc981695ec49e57fc126283d2dee5ef968842d5a1ffffffff2f56a5f8e2dc93d6be06931c29baecd0c5a5ea885bd4699158c728085ca9bd46580000006b483045022100eb0dd70441775db734d2f8688b8eb200fc65778723edccd66a69229cf6e93a6a02204fffebc7625b4b8dc954a90cb8e82911b37491047266f23f9f21fb8e09420bda012102d4fbf96eb6451c77d183cbb311d7c19d72b521097dec5e671ed1cee498db9e09ffffffffefdc1e10c966b73b32a57a0bc2ab33f8978488f8c4cc73ce72e6fc56ef846bbec90100006a47304402201a39193a907e6122b1781ba2a15bdbb25381475e7a844d2c2271dd150f0eea9c022016ca36b2fe36139215f35a560110c0310693e1928a8120795867681a4a24b63d012103ab4d53636a3ca0b47f5b0cc8864af69ac8ac913822290269498677af0cfa4debffffffff2ae8a55d40045867285d6ef08a0062636296715e6b4399cb452b7b367e48f2ac010000006b4830450221009632ef6af52c10d7c75ed8895ec879065cfe815045b505caad1be23e68ad4f8a022077c366dbbd78a7d497b123afb578b8654e3d73e18bb5b155f3b17218fa510abb012102177ddb7a6a4e393c8b043afca3e39d30c2c47e63b2ca3b06e825971d24bcc142ffffffff01165a7a04000000001976a914bfabbceedfbf9cc651a09148ba2de75b6008ba8988ac00000000", "vin": [{"sequence": 4294967295, "scriptSig": {"hex": "4730440220590d8ff1c92d95bec3eaa2321bc02bad1bba1b4e1ebe822dd078ab1fcd1843880220245c9497467bafb03617a20b66a78ffaf3c0810ac696a0e131acdc1269f8a97601210227b1d4a6d90445185ed9608ed90ba360b11e0477cd0ccd5e21dda4fcb0b6e67e", "asm": "30440220590d8ff1c92d95bec3eaa2321bc02bad1bba1b4e1ebe822dd078ab1fcd1843880220245c9497467bafb03617a20b66a78ffaf3c0810ac696a0e131acdc1269f8a976[ALL] 0227b1d4a6d90445185ed9608ed90ba360b11e0477cd0ccd5e21dda4fcb0b6e67e"}, "vout": 12, "txid": "c01c79c118cc7ac98e139c094c945a2d38ee04e7c9fc885ae360a126b1e63451"}, {"sequence": 4294967295, "scriptSig": {"hex": "473044022030a55db165f3da3a92270b8f175496632948ba1e64598366ee3312fc10c4324c02205984290ef65eb13ee8a92266c6950c8cb6fff62159005fa60872ecd1d94e8e06012102b189968076a74f17e043bd1cc981695ec49e57fc126283d2dee5ef968842d5a1", "asm": "3044022030a55db165f3da3a92270b8f175496632948ba1e64598366ee3312fc10c4324c02205984290ef65eb13ee8a92266c6950c8cb6fff62159005fa60872ecd1d94e8e06[ALL] 02b189968076a74f17e043bd1cc981695ec49e57fc126283d2dee5ef968842d5a1"}, "vout": 0, "txid": "2af7802913f8c77b7a039fb87b165fa189bdebb4034df81c7a604ec796d5af5d"}, {"sequence": 4294967295, "scriptSig": {"hex": "483045022100eb0dd70441775db734d2f8688b8eb200fc65778723edccd66a69229cf6e93a6a02204fffebc7625b4b8dc954a90cb8e82911b37491047266f23f9f21fb8e09420bda012102d4fbf96eb6451c77d183cbb311d7c19d72b521097dec5e671ed1cee498db9e09", "asm": "3045022100eb0dd70441775db734d2f8688b8eb200fc65778723edccd66a69229cf6e93a6a02204fffebc7625b4b8dc954a90cb8e82911b37491047266f23f9f21fb8e09420bda[ALL] 02d4fbf96eb6451c77d183cbb311d7c19d72b521097dec5e671ed1cee498db9e09"}, "vout": 88, "txid": "46bda95c0828c7589169d45b88eaa5c5d0ecba291c9306bed693dce2f8a5562f"}, {"sequence": 4294967295, "scriptSig": {"hex": "47304402201a39193a907e6122b1781ba2a15bdbb25381475e7a844d2c2271dd150f0eea9c022016ca36b2fe36139215f35a560110c0310693e1928a8120795867681a4a24b63d012103ab4d53636a3ca0b47f5b0cc8864af69ac8ac913822290269498677af0cfa4deb", "asm": "304402201a39193a907e6122b1781ba2a15bdbb25381475e7a844d2c2271dd150f0eea9c022016ca36b2fe36139215f35a560110c0310693e1928a8120795867681a4a24b63d[ALL] 03ab4d53636a3ca0b47f5b0cc8864af69ac8ac913822290269498677af0cfa4deb"}, "vout": 457, "txid": "be6b84ef56fce672ce73ccc4f8888497f833abc20b7aa5323bb766c9101edcef"}, {"sequence": 4294967295, "scriptSig": {"hex": "4830450221009632ef6af52c10d7c75ed8895ec879065cfe815045b505caad1be23e68ad4f8a022077c366dbbd78a7d497b123afb578b8654e3d73e18bb5b155f3b17218fa510abb012102177ddb7a6a4e393c8b043afca3e39d30c2c47e63b2ca3b06e825971d24bcc142", "asm": "30450221009632ef6af52c10d7c75ed8895ec879065cfe815045b505caad1be23e68ad4f8a022077c366dbbd78a7d497b123afb578b8654e3d73e18bb5b155f3b17218fa510abb[ALL] 02177ddb7a6a4e393c8b043afca3e39d30c2c47e63b2ca3b06e825971d24bcc142"}, "vout": 1, "txid": "acf2487e367b2b45cb99436b5e7196626362008af06e5d28675804405da5e82a"}], "txid": "7f3bbd9c96ca23b38ee3c4859e1a1a5b46b4983ff887cee17f300d5f55301ecb", "blocktime": 1537873891, "version": 2, "confirmations": 11478, "time": 1537873891, "locktime": 0, "vsize": 781, "size": 781}