{"hash": "7f41c9efca9e2e7f036ef20de4356c09bd261f6cdedbe419d95f72132c1ea592", "blockhash": "0000000000000000001e0dab787dd257d1dbfcb92a98c2207d5e1078be1f4165", "vout": [{"scriptPubKey": {"reqSigs": 1, "hex": "76a914804f80c6ba12d4a49a2f700d17df50c2105d6e1388ac", "addresses": ["1ChSjXGQgZ8szKf1x8L39J65vpJVHQJ3GU"], "asm": "OP_DUP OP_HASH160 804f80c6ba12d4a49a2f700d17df50c2105d6e13 OP_EQUALVERIFY OP_CHECKSIG", "type": "pubkeyhash"}, "value": 0.0095822, "n": 0}], "hex": "01000000014b5f61ed57790910f41335fcffdb96c14d3fce8908550498007ff3e804b4f1f3010000006a47304402207a84f45173e751845939ba89cb14c539a10cc651fe83973576ed85c2a9763cef02201596986881675f2aedc827638167fb5026fddff6aabe59f6727303f44431a34f012102ccb9d05b754384e065a80ab91addecb69b2a354610ccfaa12ef12ab4f5d445c1ffffffff010c9f0e00000000001976a914804f80c6ba12d4a49a2f700d17df50c2105d6e1388ac00000000", "vin": [{"sequence": 4294967295, "scriptSig": {"hex": "47304402207a84f45173e751845939ba89cb14c539a10cc651fe83973576ed85c2a9763cef02201596986881675f2aedc827638167fb5026fddff6aabe59f6727303f44431a34f012102ccb9d05b754384e065a80ab91addecb69b2a354610ccfaa12ef12ab4f5d445c1", "asm": "304402207a84f45173e751845939ba89cb14c539a10cc651fe83973576ed85c2a9763cef02201596986881675f2aedc827638167fb5026fddff6aabe59f6727303f44431a34f[ALL] 02ccb9d05b754384e065a80ab91addecb69b2a354610ccfaa12ef12ab4f5d445c1"}, "vout": 1, "txid": "f3f1b404e8f37f009804550889ce3f4dc196dbfffc3513f410097957ed615f4b"}], "txid": "7f41c9efca9e2e7f036ef20de4356c09bd261f6cdedbe419d95f72132c1ea592", "blocktime": 1537872475, "version": 1, "confirmations": 11486, "time": 1537872475, "locktime": 0, "vsize": 191, "size": 191}