{"hash": "7f48dbc5aab057637693b74a28992df99a8adb053da97f4c1943c53aba09fc42", "blockhash": "00000000000000000018f53835495a110e01622372bf6ae95dc86f2b0ab887b0", "vout": [{"scriptPubKey": {"reqSigs": 1, "hex": "a914f487d48dc986b254ae214827884d518b0af2706187", "addresses": ["3PyyX1CderzY6xEXe5vaBXjYxcfayFGTdd"], "asm": "OP_HASH160 f487d48dc986b254ae214827884d518b0af27061 OP_EQUAL", "type": "scripthash"}, "value": 0.00291965, "n": 0}, {"scriptPubKey": {"reqSigs": 1, "hex": "76a914ddab80714e4ff0842b023b0faed78a5389c2cfe688ac", "addresses": ["1MD5nYXWSUNf2xuLzjrfaRCHhFVQBsZfLK"], "asm": "OP_DUP OP_HASH160 ddab80714e4ff0842b023b0faed78a5389c2cfe6 OP_EQUALVERIFY OP_CHECKSIG", "type": "pubkeyhash"}, "value": 0.08093366, "n": 1}], "hex": "01000000013a5267324a645d44192ee7c8b77cf859a57b9f3382fa599428f756d14798c917010000006a47304402206033e8f3fcef7d499259867da84912b2b497bbb14c1fba31be5e2d704d0a08a1022054106d06ee19f952e5776832ecec50a2dfbfc2525e0bba5171963d7c4694d38b0121039e6f071ee241f1e35e76c558a2f7ccdca9cc39dfd4f5e5e34520c9426d577a53ffffffff027d7404000000000017a914f487d48dc986b254ae214827884d518b0af2706187b67e7b00000000001976a914ddab80714e4ff0842b023b0faed78a5389c2cfe688ac00000000", "vin": [{"sequence": 4294967295, "scriptSig": {"hex": "47304402206033e8f3fcef7d499259867da84912b2b497bbb14c1fba31be5e2d704d0a08a1022054106d06ee19f952e5776832ecec50a2dfbfc2525e0bba5171963d7c4694d38b0121039e6f071ee241f1e35e76c558a2f7ccdca9cc39dfd4f5e5e34520c9426d577a53", "asm": "304402206033e8f3fcef7d499259867da84912b2b497bbb14c1fba31be5e2d704d0a08a1022054106d06ee19f952e5776832ecec50a2dfbfc2525e0bba5171963d7c4694d38b[ALL] 039e6f071ee241f1e35e76c558a2f7ccdca9cc39dfd4f5e5e34520c9426d577a53"}, "vout": 1, "txid": "17c99847d156f7289459fa82339f7ba559f87cb7c8e72e19445d644a3267523a"}], "txid": "7f48dbc5aab057637693b74a28992df99a8adb053da97f4c1943c53aba09fc42", "blocktime": 1537870928, "version": 1, "confirmations": 11512, "time": 1537870928, "locktime": 0, "vsize": 223, "size": 223}