{"hash": "7f4c21cf6c9b735c2140074b93a0787cab61aa15535bcb3e0e0e31bc9c0ad183", "blockhash": "0000000000000000001cda96e906b7601b7a6fb1a3b62bca570a9e5d8f4b3de1", "vout": [{"scriptPubKey": {"reqSigs": 1, "hex": "a9146ce7703f2f25a7f565d5ab7c76d182866dc05a7587", "addresses": ["3Bcr9tSwXC5biWH3womTVhJ7nYmiBEb8ZN"], "asm": "OP_HASH160 6ce7703f2f25a7f565d5ab7c76d182866dc05a75 OP_EQUAL", "type": "scripthash"}, "value": 0.0309981, "n": 0}], "hex": "01000000010fa8504c151f103582d38328b82174fae664e8b4a26d0540f6c43110dbff46de010000006b483045022100ae80e6f1c5b8adfa6686ba5e19a4a8c19550af505fa553417230da2d88ba00c902201a7816039ad26146ae94846f90c54580b0fd136e6c4c7160071912e96fced73a012102e45098e20971a2b4b220305fbc408833f61eb48d4a8af126ccd431e8db397a48fdffffff01a24c2f000000000017a9146ce7703f2f25a7f565d5ab7c76d182866dc05a758700000000", "vin": [{"sequence": 4294967293, "scriptSig": {"hex": "483045022100ae80e6f1c5b8adfa6686ba5e19a4a8c19550af505fa553417230da2d88ba00c902201a7816039ad26146ae94846f90c54580b0fd136e6c4c7160071912e96fced73a012102e45098e20971a2b4b220305fbc408833f61eb48d4a8af126ccd431e8db397a48", "asm": "3045022100ae80e6f1c5b8adfa6686ba5e19a4a8c19550af505fa553417230da2d88ba00c902201a7816039ad26146ae94846f90c54580b0fd136e6c4c7160071912e96fced73a[ALL] 02e45098e20971a2b4b220305fbc408833f61eb48d4a8af126ccd431e8db397a48"}, "vout": 1, "txid": "de46ffdb1031c4f640056da2b4e864e6fa7421b82883d38235101f154c50a80f"}], "txid": "7f4c21cf6c9b735c2140074b93a0787cab61aa15535bcb3e0e0e31bc9c0ad183", "blocktime": 1537873282, "version": 1, "confirmations": 11485, "time": 1537873282, "locktime": 0, "vsize": 190, "size": 190}