{"hash": "71028ed53bb6e09c04b82831fbfb0098d045a93a69cb515e85983919b50ab8e8", "blockhash": "00000000000000000024a2167bbff67b0be802c0b01cdd79e6331c2be6459f87", "vout": [{"scriptPubKey": {"reqSigs": 1, "hex": "a914ab8a79d909c0c1ffd62e1f36eeed5a53a22af45987", "addresses": ["3HL3Mpqs9kp7JNqxeLbofWyB8mAxHcoYjx"], "asm": "OP_HASH160 ab8a79d909c0c1ffd62e1f36eeed5a53a22af459 OP_EQUAL", "type": "scripthash"}, "value": 0.0010497, "n": 0}, {"scriptPubKey": {"reqSigs": 1, "hex": "a91402d02192ef4ca4b1513a8fd59d2ea1de431d196d87", "addresses": ["31wtc8g51yje3Cw2sLNUsZEwcxWU6DuLjh"], "asm": "OP_HASH160 02d02192ef4ca4b1513a8fd59d2ea1de431d196d OP_EQUAL", "type": "scripthash"}, "value": 0.00094412, "n": 1}], "hex": "0100000000010130971d0082d13a2d13934b4367bbe702c1c9c668d46a030b19ae1c917540eb99010000002322002092f149c13e199c76d1d3fac2d7ef83bf02bd3b93b4fefaa50c160f0a37304ad8ffffffff020a9a01000000000017a914ab8a79d909c0c1ffd62e1f36eeed5a53a22af45987cc7001000000000017a91402d02192ef4ca4b1513a8fd59d2ea1de431d196d870400483045022100a4c3023f0b9e6bf20fbf9c6188037d5e7f6be8266779196193d22c2d001c62a802201260403d87223a12ef82c9cdf48f96907361299bfcc2e0038d9bc296935b57c101463043022072623e48f76cdab110411032bb7086fb09f8719da71a32369af9b7fc689f9970021f53bec9e86372605a31a52cf4989a3d68ad82517cfc93a074d6f7f1763298dc0147522102b1cb24067d8838cbad364de2d5c7fad564c1553148968e48ad58ddbdf48fcb692103871fc2ca08e6950b38867e8e6a0e94ee625223d3aa0df5c65f414c6d784467e252ae00000000", "vin": [{"txinwitness": ["", "3045022100a4c3023f0b9e6bf20fbf9c6188037d5e7f6be8266779196193d22c2d001c62a802201260403d87223a12ef82c9cdf48f96907361299bfcc2e0038d9bc296935b57c101", "3043022072623e48f76cdab110411032bb7086fb09f8719da71a32369af9b7fc689f9970021f53bec9e86372605a31a52cf4989a3d68ad82517cfc93a074d6f7f1763298dc01", "522102b1cb24067d8838cbad364de2d5c7fad564c1553148968e48ad58ddbdf48fcb692103871fc2ca08e6950b38867e8e6a0e94ee625223d3aa0df5c65f414c6d784467e252ae"], "sequence": 4294967295, "scriptSig": {"hex": "22002092f149c13e199c76d1d3fac2d7ef83bf02bd3b93b4fefaa50c160f0a37304ad8", "asm": "002092f149c13e199c76d1d3fac2d7ef83bf02bd3b93b4fefaa50c160f0a37304ad8"}, "vout": 1, "txid": "99eb4075911cae190b036ad468c6c9c102e7bb67434b93132d3ad182001d9730"}], "txid": "7f4df47e98dd5d8370d034c4cec21c10399f2f5dec0ea8431b19591108728cdb", "blocktime": 1537870564, "version": 1, "confirmations": 11515, "time": 1537870564, "locktime": 0, "vsize": 205, "size": 370}