{"hash": "2239884380c1c4941ef28052b1f3fd9a5937316883327bba183905d95bf5d720", "blockhash": "0000000000000000000dcc0f55137456b1a82d3642486a52398922ac4d620174", "vout": [{"scriptPubKey": {"reqSigs": 1, "hex": "76a914e904b490797674d3168f5381665194abc108985788ac", "addresses": ["1NF65dTKVNken5k9nHFxvKUXm7VP7zrn4X"], "asm": "OP_DUP OP_HASH160 e904b490797674d3168f5381665194abc1089857 OP_EQUALVERIFY OP_CHECKSIG", "type": "pubkeyhash"}, "value": 0.001332, "n": 0}, {"scriptPubKey": {"reqSigs": 1, "hex": "a9141988a27e3c2df4ddee7fad5a2303d086179b2a3087", "addresses": ["3422VtS7UtCvXYxoXMVp6eZupR252z85oC"], "asm": "OP_HASH160 1988a27e3c2df4ddee7fad5a2303d086179b2a30 OP_EQUAL", "type": "scripthash"}, "value": 0.10403705, "n": 1}], "hex": "010000000001013655233c58833f64821851608f50f9963168432c93a8c9c26faf9ffbdfb5b339030000002322002065d416c48a8072e0ac51c2d111eb194f009caef0332446c1bf2097316cf07fa9ffffffff0250080200000000001976a914e904b490797674d3168f5381665194abc108985788ac79bf9e000000000017a9141988a27e3c2df4ddee7fad5a2303d086179b2a3087040047304402203723913e23555f2eecb298cbb68ac0082be8cd04f62d786d5642dc7625a5373602207f9f4690e1a21c7e8198e54cf0e4da226301c8c66e06ee80d729343aa8286c01014830450221009bdb445f1a6c11c43642567d1c31bc33b9718af5be588f063604286400a0db0b02203f0c22ba412784473cb5a0abb83ed6187f3c3948959c07fe95f1e9af95ff617e0169522102f44abcf9e23c9a460da309ccca56c619c04eed3bde2c2cff5e7d78fbcd980b9c2103c9443cf3047bb6c2c82f1b0c44c36109cdc3d0d601d16d1189a1602bf8d1a0a02103bfe867059274412412e088af5572b92168c2ef495cfe6c9b7a753a009eb37c4853ae00000000", "vin": [{"txinwitness": ["", "304402203723913e23555f2eecb298cbb68ac0082be8cd04f62d786d5642dc7625a5373602207f9f4690e1a21c7e8198e54cf0e4da226301c8c66e06ee80d729343aa8286c0101", "30450221009bdb445f1a6c11c43642567d1c31bc33b9718af5be588f063604286400a0db0b02203f0c22ba412784473cb5a0abb83ed6187f3c3948959c07fe95f1e9af95ff617e01", "522102f44abcf9e23c9a460da309ccca56c619c04eed3bde2c2cff5e7d78fbcd980b9c2103c9443cf3047bb6c2c82f1b0c44c36109cdc3d0d601d16d1189a1602bf8d1a0a02103bfe867059274412412e088af5572b92168c2ef495cfe6c9b7a753a009eb37c4853ae"], "sequence": 4294967295, "scriptSig": {"hex": "22002065d416c48a8072e0ac51c2d111eb194f009caef0332446c1bf2097316cf07fa9", "asm": "002065d416c48a8072e0ac51c2d111eb194f009caef0332446c1bf2097316cf07fa9"}, "vout": 3, "txid": "39b3b5dffb9faf6fc2c9a8932c43683196f9508f60511882643f83583c235536"}], "txid": "7f51b63b9ae1e0099d4052136f4ce5860e34ef0e432cea58f2239bd3e3847f14", "blocktime": 1537870268, "version": 1, "confirmations": 11516, "time": 1537870268, "locktime": 0, "vsize": 216, "size": 407}