{"hash": "00599d478398ba2c5edee30009a8909f3a8ae280cefce1b4c869afab9a480df3", "blockhash": "0000000000000000000baef3f32e3676a92c3b2e5da21b426e4f302fc371ce76", "vout": [{"scriptPubKey": {"reqSigs": 1, "hex": "a914946d1f7326ee084220fcc8b74675dc1bf92459a887", "addresses": ["3FDpevW5NJPYyCs9b4gKS5kDag5WBXU7wx"], "asm": "OP_HASH160 946d1f7326ee084220fcc8b74675dc1bf92459a8 OP_EQUAL", "type": "scripthash"}, "value": 0.00996881, "n": 0}, {"scriptPubKey": {"reqSigs": 1, "hex": "76a9149f827abc5e34ea31cff69164ca9051dee48ef13d88ac", "addresses": ["1FYQkNXr8NAom2pr6yGNq1dxLZhiyhQXNo"], "asm": "OP_DUP OP_HASH160 9f827abc5e34ea31cff69164ca9051dee48ef13d OP_EQUALVERIFY OP_CHECKSIG", "type": "pubkeyhash"}, "value": 0.0836449, "n": 1}], "hex": "02000000000102bc46d55173fd2324cec1f5d5bbfc460d54918dad104bf7e4cedaff384e3eb3640c000000171600140b61e4a28fbef692564affa0da87868e626bb07ffeffffffcef9c05edceecc5538fd1c736478d264884d1036e5b08f1de8bfbbc41b3f2fd10000000017160014f6fbf9fe7f2138469dafd77c27bfed23a7720170feffffff0211360f000000000017a914946d1f7326ee084220fcc8b74675dc1bf92459a887caa17f00000000001976a9149f827abc5e34ea31cff69164ca9051dee48ef13d88ac02473044022078af4c15606fd30ce0de25d6bbf787d9e8349a0ff566b0aa647e1643a7af91dc0220520ce44c07923f59fae47787462413b54b81a89beb88d97d30f1c0becaa63099012103612703f43aeaf53a2f95e1635d6a0a5bb73a4eb46919c0ef7fe9cf86709d562202473044022070c3cc19ac5bda87b1bf9f5248f2a20ad4337e59d827fe165089ef172520f6ce022062248f29b0804e772244a83addfbe8478accc33c3e8bd45c0e2e8ac2a234b8cb012103401a84947f9cd47bf0a06c5a65604d9d5734260733043fb54c2fb3b30d70529916490800", "vin": [{"txinwitness": ["3044022078af4c15606fd30ce0de25d6bbf787d9e8349a0ff566b0aa647e1643a7af91dc0220520ce44c07923f59fae47787462413b54b81a89beb88d97d30f1c0becaa6309901", "03612703f43aeaf53a2f95e1635d6a0a5bb73a4eb46919c0ef7fe9cf86709d5622"], "sequence": 4294967294, "scriptSig": {"hex": "1600140b61e4a28fbef692564affa0da87868e626bb07f", "asm": "00140b61e4a28fbef692564affa0da87868e626bb07f"}, "vout": 12, "txid": "64b33e4e38ffdacee4f74b10ad8d91540d46fcbbd5f5c1ce2423fd7351d546bc"}, {"txinwitness": ["3044022070c3cc19ac5bda87b1bf9f5248f2a20ad4337e59d827fe165089ef172520f6ce022062248f29b0804e772244a83addfbe8478accc33c3e8bd45c0e2e8ac2a234b8cb01", "03401a84947f9cd47bf0a06c5a65604d9d5734260733043fb54c2fb3b30d705299"], "sequence": 4294967294, "scriptSig": {"hex": "160014f6fbf9fe7f2138469dafd77c27bfed23a7720170", "asm": "0014f6fbf9fe7f2138469dafd77c27bfed23a7720170"}, "vout": 0, "txid": "d12f3f1bc4bbbfe81d8fb0e536104d8864d27864731cfd3855cceedc5ec0f9ce"}], "txid": "7f5336ddb9c111cd13119a9dd3f2f01c47e34c84d713fe47cc060f01ee2c6844", "blocktime": 1537876114, "version": 2, "confirmations": 11459, "time": 1537876114, "locktime": 542998, "vsize": 258, "size": 420}