{"hash": "7f5cd8ef7b24c6edf5aea10e5f5e7475ece147d28453bc4ce1a12f8b0acf7631", "blockhash": "00000000000000000024a2167bbff67b0be802c0b01cdd79e6331c2be6459f87", "vout": [{"scriptPubKey": {"reqSigs": 1, "hex": "76a914a8d0956061909b270973f7bdd440a4e9b2f970c088ac", "addresses": ["1GPcPs58S1mBdnCyyW9hT2KviDqh4JhJxf"], "asm": "OP_DUP OP_HASH160 a8d0956061909b270973f7bdd440a4e9b2f970c0 OP_EQUALVERIFY OP_CHECKSIG", "type": "pubkeyhash"}, "value": 0.00437579, "n": 0}, {"scriptPubKey": {"reqSigs": 1, "hex": "76a9148eba33eecf7f080efd3dfa5f525194f004a9675288ac", "addresses": ["1E1g1qpFWd1LYTJRpCyeDRNfP1SR3RasdQ"], "asm": "OP_DUP OP_HASH160 8eba33eecf7f080efd3dfa5f525194f004a96752 OP_EQUALVERIFY OP_CHECKSIG", "type": "pubkeyhash"}, "value": 0.10397605, "n": 1}], "hex": "01000000013834fa3e59fbc13de6e9134396a77cd14a1edc61eaca51939b4294fb629be973010000006b483045022100ece1890a25ded88f73f23cd0679d7e91e8afc0da7e35e1f0f2f0703fe11575910220481c6cd3052e810f6376ef1ab2c6ce091b03e851d56ad3f0cccefc5d0f916bba0121033071357eecd9118a9b0d43a67fd5f6fe089f792d6aef148566a10fcef07ccc0cffffffff024bad0600000000001976a914a8d0956061909b270973f7bdd440a4e9b2f970c088aca5a79e00000000001976a9148eba33eecf7f080efd3dfa5f525194f004a9675288ac00000000", "vin": [{"sequence": 4294967295, "scriptSig": {"hex": "483045022100ece1890a25ded88f73f23cd0679d7e91e8afc0da7e35e1f0f2f0703fe11575910220481c6cd3052e810f6376ef1ab2c6ce091b03e851d56ad3f0cccefc5d0f916bba0121033071357eecd9118a9b0d43a67fd5f6fe089f792d6aef148566a10fcef07ccc0c", "asm": "3045022100ece1890a25ded88f73f23cd0679d7e91e8afc0da7e35e1f0f2f0703fe11575910220481c6cd3052e810f6376ef1ab2c6ce091b03e851d56ad3f0cccefc5d0f916bba[ALL] 033071357eecd9118a9b0d43a67fd5f6fe089f792d6aef148566a10fcef07ccc0c"}, "vout": 1, "txid": "73e99b62fb94429b9351caea61dc1e4ad17ca7964313e9e63dc1fb593efa3438"}], "txid": "7f5cd8ef7b24c6edf5aea10e5f5e7475ece147d28453bc4ce1a12f8b0acf7631", "blocktime": 1537870564, "version": 1, "confirmations": 11515, "time": 1537870564, "locktime": 0, "vsize": 226, "size": 226}