{"hash": "89c41e62a71a4c640ee7b27bf20572dc2a8ea3762ece65259f2d3a90815917be", "blockhash": "00000000000000000024a2167bbff67b0be802c0b01cdd79e6331c2be6459f87", "vout": [{"scriptPubKey": {"reqSigs": 1, "hex": "a914e0fa70ce06311c897b577dd9184c5aec9d0ca9fb87", "addresses": ["3NCbJSAkTrLvGX8Mz7SztnRfqncLPC8SJ5"], "asm": "OP_HASH160 e0fa70ce06311c897b577dd9184c5aec9d0ca9fb OP_EQUAL", "type": "scripthash"}, "value": 0.00057341, "n": 0}, {"scriptPubKey": {"reqSigs": 1, "hex": "a914dafeddc6589ea9b6358fbd515508c9dedaf2e6b487", "addresses": ["3MexYnSdmJvCiSYvg3JJZMNVbmHF5N7quq"], "asm": "OP_HASH160 dafeddc6589ea9b6358fbd515508c9dedaf2e6b4 OP_EQUAL", "type": "scripthash"}, "value": 0.00143341, "n": 1}], "hex": "01000000000101e52dfe689de73a144a5b3590caa14881e173f6ebe0665f6725ac78bd551dd9db00000000232200200626f5cf7c617095d1e041029521fe4907d93c5ac763225c2a3550219a461f9fffffffff02fddf00000000000017a914e0fa70ce06311c897b577dd9184c5aec9d0ca9fb87ed2f02000000000017a914dafeddc6589ea9b6358fbd515508c9dedaf2e6b4870400463043022010dbb3e698aa54e2b2edac6d3d6f35b26e17bca4d363b4c5751717168df838ad021f0c3c16634d223911dbe1941962547f7fcba9bd8f3db136d8c95af535c467690147304402200d1e1b6965cb9c7738a956f0bab95f7071b4dd4b15dd6f1e418320adf858f898022036251a0e69a6bc0a4cc74badfd7a0c64cac63e5cd48558be2f012d6e9f02317f0147522102b3a47dcf2a69a0f2bc7d8a648df9b4330f09267abb2fe07001c7d62f0c3812352103871fc2ca08e6950b38867e8e6a0e94ee625223d3aa0df5c65f414c6d784467e252ae00000000", "vin": [{"txinwitness": ["", "3043022010dbb3e698aa54e2b2edac6d3d6f35b26e17bca4d363b4c5751717168df838ad021f0c3c16634d223911dbe1941962547f7fcba9bd8f3db136d8c95af535c4676901", "304402200d1e1b6965cb9c7738a956f0bab95f7071b4dd4b15dd6f1e418320adf858f898022036251a0e69a6bc0a4cc74badfd7a0c64cac63e5cd48558be2f012d6e9f02317f01", "522102b3a47dcf2a69a0f2bc7d8a648df9b4330f09267abb2fe07001c7d62f0c3812352103871fc2ca08e6950b38867e8e6a0e94ee625223d3aa0df5c65f414c6d784467e252ae"], "sequence": 4294967295, "scriptSig": {"hex": "2200200626f5cf7c617095d1e041029521fe4907d93c5ac763225c2a3550219a461f9f", "asm": "00200626f5cf7c617095d1e041029521fe4907d93c5ac763225c2a3550219a461f9f"}, "vout": 0, "txid": "dbd91d55bd78ac25675f66e0ebf673e18148a1ca90355b4a143ae79d68fe2de5"}], "txid": "7f62d7368e52622f20ef3de256646eb814469133b966f066cad520a567c28520", "blocktime": 1537870564, "version": 1, "confirmations": 11515, "time": 1537870564, "locktime": 0, "vsize": 205, "size": 369}