{"hash": "ca7fdd8cea9f419e7644a3fc007fea03d428dcaecf1dfcd520e7995513a26b19", "blockhash": "0000000000000000001f76057863aec43deb6fa401d9628bb513d65a8098bfab", "vout": [{"scriptPubKey": {"reqSigs": 1, "hex": "a91410f404161672aed8074cc8b0e9b18ac6727bc27587", "addresses": ["33Ef492ujqjaXFi8ZZPiv4m86tRjgjambt"], "asm": "OP_HASH160 10f404161672aed8074cc8b0e9b18ac6727bc275 OP_EQUAL", "type": "scripthash"}, "value": 0.02747, "n": 0}, {"scriptPubKey": {"reqSigs": 1, "hex": "a91471f9a4a1060ab308e1e4a00ab620e8a3e4cded4787", "addresses": ["3C5fLj4aNvWZrnDWxMPf8MMvAEV4fHQu9x"], "asm": "OP_HASH160 71f9a4a1060ab308e1e4a00ab620e8a3e4cded47 OP_EQUAL", "type": "scripthash"}, "value": 0.01292685, "n": 1}], "hex": "02000000000102f7ef118df03e25e67a83db1d64e6bdd3b30f69adfda177c8c4fd47878a6707940200000017160014e3dc51ea238d61517a50637c3e87f9c2a6e9694cfeffffff3c41a291a92c0affbcb309f398a9ef992ee270995e83a18842288930f174015c030000006a4730440220434d7a1d03c0701e8e26816e922c7b536a47175e39ba40dc56888ac78c2cad3a022018325e741ca8d73d3c9a08e2561a610a0ad34c4461d308ed3009bdaad12d8367012102a18d50eecbc80936c12d46dd26768e521b52ce4a1c20ab19d1cecb9048f5018cfeffffff0278ea29000000000017a91410f404161672aed8074cc8b0e9b18ac6727bc275878db913000000000017a91471f9a4a1060ab308e1e4a00ab620e8a3e4cded478702473044022050ebcd73a39292eb5e61ff559eea239bf2eb31237a8df02a9e4e29b364e77b0b022046cc5047a7cf779f14510b534b10c972a4f87193aa49a6f93ff650e706bb5868012102925bcf13b0085112f925df0ffefb295f2590f0695429b2ddd101501be05095690014490800", "vin": [{"txinwitness": ["3044022050ebcd73a39292eb5e61ff559eea239bf2eb31237a8df02a9e4e29b364e77b0b022046cc5047a7cf779f14510b534b10c972a4f87193aa49a6f93ff650e706bb586801", "02925bcf13b0085112f925df0ffefb295f2590f0695429b2ddd101501be0509569"], "sequence": 4294967294, "scriptSig": {"hex": "160014e3dc51ea238d61517a50637c3e87f9c2a6e9694c", "asm": "0014e3dc51ea238d61517a50637c3e87f9c2a6e9694c"}, "vout": 2, "txid": "9407678a8747fdc4c877a1fdad690fb3d3bde6641ddb837ae6253ef08d11eff7"}, {"sequence": 4294967294, "scriptSig": {"hex": "4730440220434d7a1d03c0701e8e26816e922c7b536a47175e39ba40dc56888ac78c2cad3a022018325e741ca8d73d3c9a08e2561a610a0ad34c4461d308ed3009bdaad12d8367012102a18d50eecbc80936c12d46dd26768e521b52ce4a1c20ab19d1cecb9048f5018c", "asm": "30440220434d7a1d03c0701e8e26816e922c7b536a47175e39ba40dc56888ac78c2cad3a022018325e741ca8d73d3c9a08e2561a610a0ad34c4461d308ed3009bdaad12d8367[ALL] 02a18d50eecbc80936c12d46dd26768e521b52ce4a1c20ab19d1cecb9048f5018c"}, "vout": 3, "txid": "5c0174f13089284288a1835e9970e22e99efa998f309b3bcff0a2ca991a2413c"}], "txid": "7f6314d952f1f185a3789ebc2e6d47eb8b890e56bd4dc19ff1984320d9f48582", "blocktime": 1537873891, "version": 2, "confirmations": 11479, "time": 1537873891, "locktime": 542996, "vsize": 313, "size": 395}