{"hash": "7f64370edfc0698099609fccef86910eb62a590418ca701bec02a166a3bcabcc", "blockhash": "00000000000000000024a2167bbff67b0be802c0b01cdd79e6331c2be6459f87", "vout": [{"scriptPubKey": {"reqSigs": 1, "hex": "76a9145baf327a7e14dd574bc1c9f43f7591f5f5399e9888ac", "addresses": ["19MnNNUBnLLqQWH6q38RXRtEStLuqyGWw4"], "asm": "OP_DUP OP_HASH160 5baf327a7e14dd574bc1c9f43f7591f5f5399e98 OP_EQUALVERIFY OP_CHECKSIG", "type": "pubkeyhash"}, "value": 0.001, "n": 0}, {"scriptPubKey": {"reqSigs": 1, "hex": "76a914be159bdfc5bdae60ee4c9d02cea6b475d401af8288ac", "addresses": ["1JL5GrqiY2oZ1iPZox2erVo34qSPComNQg"], "asm": "OP_DUP OP_HASH160 be159bdfc5bdae60ee4c9d02cea6b475d401af82 OP_EQUALVERIFY OP_CHECKSIG", "type": "pubkeyhash"}, "value": 0.00147008, "n": 1}], "hex": "01000000029049ac878236bdd28d69a3353833da180fcfb48c5a5832a685b11c0e82619920000000006b483045022100acae893afb2c051e62406f3096d21f1be44e74667847b786fafa068ad67fa4550220369b9e0f3008706b1e11aa1ec4347e52c673fe5a95e06e40242ed0cd58e95a8b012102a135df8dc32ad6e3c0a350f60f73a993eefff6c3cd6103cabe82beb0d9182ec5ffffffffd2b0cd0f0ba196d2cd7e5bcdb72a61d4ad633b288801766fe950b0a8c204bca5000000006a47304402207a5e48998be10f713cd2cff4b88e4ca118be30e4c33f5a0ba43f44bf2f75799b02207dd6d4179fa3494be5aa4ffabf5e6cad673021d5d25f41f2f9f9c1f99839bca10121025ba2a5596977567325abbb73bbb7c47a760d72eb083b39a48e404ddbb89f5f7effffffff02a0860100000000001976a9145baf327a7e14dd574bc1c9f43f7591f5f5399e9888ac403e0200000000001976a914be159bdfc5bdae60ee4c9d02cea6b475d401af8288ac00000000", "vin": [{"sequence": 4294967295, "scriptSig": {"hex": "483045022100acae893afb2c051e62406f3096d21f1be44e74667847b786fafa068ad67fa4550220369b9e0f3008706b1e11aa1ec4347e52c673fe5a95e06e40242ed0cd58e95a8b012102a135df8dc32ad6e3c0a350f60f73a993eefff6c3cd6103cabe82beb0d9182ec5", "asm": "3045022100acae893afb2c051e62406f3096d21f1be44e74667847b786fafa068ad67fa4550220369b9e0f3008706b1e11aa1ec4347e52c673fe5a95e06e40242ed0cd58e95a8b[ALL] 02a135df8dc32ad6e3c0a350f60f73a993eefff6c3cd6103cabe82beb0d9182ec5"}, "vout": 0, "txid": "209961820e1cb185a632585a8cb4cf0f18da333835a3698dd2bd368287ac4990"}, {"sequence": 4294967295, "scriptSig": {"hex": "47304402207a5e48998be10f713cd2cff4b88e4ca118be30e4c33f5a0ba43f44bf2f75799b02207dd6d4179fa3494be5aa4ffabf5e6cad673021d5d25f41f2f9f9c1f99839bca10121025ba2a5596977567325abbb73bbb7c47a760d72eb083b39a48e404ddbb89f5f7e", "asm": "304402207a5e48998be10f713cd2cff4b88e4ca118be30e4c33f5a0ba43f44bf2f75799b02207dd6d4179fa3494be5aa4ffabf5e6cad673021d5d25f41f2f9f9c1f99839bca1[ALL] 025ba2a5596977567325abbb73bbb7c47a760d72eb083b39a48e404ddbb89f5f7e"}, "vout": 0, "txid": "a5bc04c2a8b050e96f760188283b63add4612ab7cd5b7ecdd296a10b0fcdb0d2"}], "txid": "7f64370edfc0698099609fccef86910eb62a590418ca701bec02a166a3bcabcc", "blocktime": 1537870564, "version": 1, "confirmations": 11515, "time": 1537870564, "locktime": 0, "vsize": 373, "size": 373}