{"hash": "2b4992a292fd714f8409e8e59f61db6f6a4e835a3facd0fe7ae795bbd0b049e5", "blockhash": "00000000000000000017f5eb5941039fbcee6240d03bc1f2f8e35350df66a1d8", "vout": [{"scriptPubKey": {"reqSigs": 1, "hex": "a91490e99e8d26d05ead3c05430c292a887bbff695f587", "addresses": ["3EuF6KjJawxTiUsea3Sc8hsLUGmVEf7Xg5"], "asm": "OP_HASH160 90e99e8d26d05ead3c05430c292a887bbff695f5 OP_EQUAL", "type": "scripthash"}, "value": 0.00126275, "n": 0}, {"scriptPubKey": {"type": "nulldata", "hex": "6a146f6d6e69000000000000001f0000000005f5e100", "asm": "OP_RETURN 6f6d6e69000000000000001f0000000005f5e100"}, "value": 0.0, "n": 1}, {"scriptPubKey": {"reqSigs": 1, "hex": "a91490e99e8d26d05ead3c05430c292a887bbff695f587", "addresses": ["3EuF6KjJawxTiUsea3Sc8hsLUGmVEf7Xg5"], "asm": "OP_HASH160 90e99e8d26d05ead3c05430c292a887bbff695f5 OP_EQUAL", "type": "scripthash"}, "value": 5.4e-06, "n": 2}], "hex": "0100000000010290c590c0797ce3d59b967a38c2b68836fe544cb13d4468dfa4f13aad56ebfa450000000017160014f6e1792e7852ebd5ae795c2a25d579acdfadec2dffffffff90c590c0797ce3d59b967a38c2b68836fe544cb13d4468dfa4f13aad56ebfa450200000017160014f6e1792e7852ebd5ae795c2a25d579acdfadec2dffffffff0343ed01000000000017a91490e99e8d26d05ead3c05430c292a887bbff695f5870000000000000000166a146f6d6e69000000000000001f0000000005f5e1001c0200000000000017a91490e99e8d26d05ead3c05430c292a887bbff695f58702483045022100e8365559b42476c3f569ca6d3991aa635cb4337425f5582134034c6ee72e92af022064a58df209626d753c4a1c9c16774b36815e2e1ce99138ecbacb682234a9b7ab012103f1cf988013a33e053d1e9bd54c4798c1a6dc362a5b2798b5344049fca40e2db002483045022100ea3c4db57088c101af1ec48d8e57c7d11172247dd1ecd22aa0ffe625504246ad022013442baee819667f82f105ed03759bd81f67d2b86f1f1178e06633bfc31b4022012103f1cf988013a33e053d1e9bd54c4798c1a6dc362a5b2798b5344049fca40e2db000000000", "vin": [{"txinwitness": ["3045022100e8365559b42476c3f569ca6d3991aa635cb4337425f5582134034c6ee72e92af022064a58df209626d753c4a1c9c16774b36815e2e1ce99138ecbacb682234a9b7ab01", "03f1cf988013a33e053d1e9bd54c4798c1a6dc362a5b2798b5344049fca40e2db0"], "sequence": 4294967295, "scriptSig": {"hex": "160014f6e1792e7852ebd5ae795c2a25d579acdfadec2d", "asm": "0014f6e1792e7852ebd5ae795c2a25d579acdfadec2d"}, "vout": 0, "txid": "45faeb56ad3af1a4df68443db14c54fe3688b6c2387a969bd5e37c79c090c590"}, {"txinwitness": ["3045022100ea3c4db57088c101af1ec48d8e57c7d11172247dd1ecd22aa0ffe625504246ad022013442baee819667f82f105ed03759bd81f67d2b86f1f1178e06633bfc31b402201", "03f1cf988013a33e053d1e9bd54c4798c1a6dc362a5b2798b5344049fca40e2db0"], "sequence": 4294967295, "scriptSig": {"hex": "160014f6e1792e7852ebd5ae795c2a25d579acdfadec2d", "asm": "0014f6e1792e7852ebd5ae795c2a25d579acdfadec2d"}, "vout": 2, "txid": "45faeb56ad3af1a4df68443db14c54fe3688b6c2387a969bd5e37c79c090c590"}], "txid": "7f69413ba99df94574f08e8a62bd6086ef627dc768a2b1de852a4af0724e615b", "blocktime": 1537874412, "version": 1, "confirmations": 11467, "time": 1537874412, "locktime": 0, "vsize": 288, "size": 451}