{"hash": "7f6e00476d015966b1a4c30c9c72de0b4f30d1aaa887743bfa172126cb0ba0e6", "blockhash": "0000000000000000001cda96e906b7601b7a6fb1a3b62bca570a9e5d8f4b3de1", "vout": [{"scriptPubKey": {"reqSigs": 1, "hex": "21025c6e94877515dfd7b05682b9cc2fe4a49e076efe291e54fcec3add78183c1edbac", "addresses": ["18jjQDoohMiYZp2Da292NcNnUbMRDxjpay"], "asm": "025c6e94877515dfd7b05682b9cc2fe4a49e076efe291e54fcec3add78183c1edb OP_CHECKSIG", "type": "pubkey"}, "value": 0.0001, "n": 0}, {"scriptPubKey": {"reqSigs": 1, "hex": "21025c6e94877515dfd7b05682b9cc2fe4a49e076efe291e54fcec3add78183c1edbac", "addresses": ["18jjQDoohMiYZp2Da292NcNnUbMRDxjpay"], "asm": "025c6e94877515dfd7b05682b9cc2fe4a49e076efe291e54fcec3add78183c1edb OP_CHECKSIG", "type": "pubkey"}, "value": 0.0001, "n": 1}, {"scriptPubKey": {"reqSigs": 1, "hex": "21025c6e94877515dfd7b05682b9cc2fe4a49e076efe291e54fcec3add78183c1edbac", "addresses": ["18jjQDoohMiYZp2Da292NcNnUbMRDxjpay"], "asm": "025c6e94877515dfd7b05682b9cc2fe4a49e076efe291e54fcec3add78183c1edb OP_CHECKSIG", "type": "pubkey"}, "value": 0.0001, "n": 2}, {"scriptPubKey": {"reqSigs": 1, "hex": "21025c6e94877515dfd7b05682b9cc2fe4a49e076efe291e54fcec3add78183c1edbac", "addresses": ["18jjQDoohMiYZp2Da292NcNnUbMRDxjpay"], "asm": "025c6e94877515dfd7b05682b9cc2fe4a49e076efe291e54fcec3add78183c1edb OP_CHECKSIG", "type": "pubkey"}, "value": 0.0001, "n": 3}, {"scriptPubKey": {"reqSigs": 1, "hex": "21025c6e94877515dfd7b05682b9cc2fe4a49e076efe291e54fcec3add78183c1edbac", "addresses": ["18jjQDoohMiYZp2Da292NcNnUbMRDxjpay"], "asm": "025c6e94877515dfd7b05682b9cc2fe4a49e076efe291e54fcec3add78183c1edb OP_CHECKSIG", "type": "pubkey"}, "value": 0.0001, "n": 4}, {"scriptPubKey": {"reqSigs": 1, "hex": "21025c6e94877515dfd7b05682b9cc2fe4a49e076efe291e54fcec3add78183c1edbac", "addresses": ["18jjQDoohMiYZp2Da292NcNnUbMRDxjpay"], "asm": "025c6e94877515dfd7b05682b9cc2fe4a49e076efe291e54fcec3add78183c1edb OP_CHECKSIG", "type": "pubkey"}, "value": 0.0001, "n": 5}, {"scriptPubKey": {"reqSigs": 1, "hex": "21025c6e94877515dfd7b05682b9cc2fe4a49e076efe291e54fcec3add78183c1edbac", "addresses": ["18jjQDoohMiYZp2Da292NcNnUbMRDxjpay"], "asm": "025c6e94877515dfd7b05682b9cc2fe4a49e076efe291e54fcec3add78183c1edb OP_CHECKSIG", "type": "pubkey"}, "value": 0.0001, "n": 6}, {"scriptPubKey": {"reqSigs": 1, "hex": "21025c6e94877515dfd7b05682b9cc2fe4a49e076efe291e54fcec3add78183c1edbac", "addresses": ["18jjQDoohMiYZp2Da292NcNnUbMRDxjpay"], "asm": "025c6e94877515dfd7b05682b9cc2fe4a49e076efe291e54fcec3add78183c1edb OP_CHECKSIG", "type": "pubkey"}, "value": 0.0001, "n": 7}, {"scriptPubKey": {"reqSigs": 1, "hex": "21025c6e94877515dfd7b05682b9cc2fe4a49e076efe291e54fcec3add78183c1edbac", "addresses": ["18jjQDoohMiYZp2Da292NcNnUbMRDxjpay"], "asm": "025c6e94877515dfd7b05682b9cc2fe4a49e076efe291e54fcec3add78183c1edb OP_CHECKSIG", "type": "pubkey"}, "value": 0.0001, "n": 8}, {"scriptPubKey": {"reqSigs": 1, "hex": "21025c6e94877515dfd7b05682b9cc2fe4a49e076efe291e54fcec3add78183c1edbac", "addresses": ["18jjQDoohMiYZp2Da292NcNnUbMRDxjpay"], "asm": "025c6e94877515dfd7b05682b9cc2fe4a49e076efe291e54fcec3add78183c1edb OP_CHECKSIG", "type": "pubkey"}, "value": 0.0001, "n": 9}, {"scriptPubKey": {"reqSigs": 1, "hex": "76a91454ddbeb2fda5d1361a55db84f3733ab9e47aeb1288ac", "addresses": ["18jjQDoohMiYZp2Da292NcNnUbMRDxjpay"], "asm": "OP_DUP OP_HASH160 54ddbeb2fda5d1361a55db84f3733ab9e47aeb12 OP_EQUALVERIFY OP_CHECKSIG", "type": "pubkeyhash"}, "value": 0.425419, "n": 10}], "hex": "010000000145fc179178bd7b9c9f186ebb1d1e8dc891058322cd016e407e2435325c29a0330a0000006b48304502210098f5eb797f33a4cd3472fb26d3596120fb6a12005fa69d2ab4908379f60799ac02203f03ed75ec974b9da8cfc4f9768cfa82cfe37aa63be0a3bbcd036f790425a5200121025c6e94877515dfd7b05682b9cc2fe4a49e076efe291e54fcec3add78183c1edbffffffff0b10270000000000002321025c6e94877515dfd7b05682b9cc2fe4a49e076efe291e54fcec3add78183c1edbac10270000000000002321025c6e94877515dfd7b05682b9cc2fe4a49e076efe291e54fcec3add78183c1edbac10270000000000002321025c6e94877515dfd7b05682b9cc2fe4a49e076efe291e54fcec3add78183c1edbac10270000000000002321025c6e94877515dfd7b05682b9cc2fe4a49e076efe291e54fcec3add78183c1edbac10270000000000002321025c6e94877515dfd7b05682b9cc2fe4a49e076efe291e54fcec3add78183c1edbac10270000000000002321025c6e94877515dfd7b05682b9cc2fe4a49e076efe291e54fcec3add78183c1edbac10270000000000002321025c6e94877515dfd7b05682b9cc2fe4a49e076efe291e54fcec3add78183c1edbac10270000000000002321025c6e94877515dfd7b05682b9cc2fe4a49e076efe291e54fcec3add78183c1edbac10270000000000002321025c6e94877515dfd7b05682b9cc2fe4a49e076efe291e54fcec3add78183c1edbac10270000000000002321025c6e94877515dfd7b05682b9cc2fe4a49e076efe291e54fcec3add78183c1edbac4c238902000000001976a91454ddbeb2fda5d1361a55db84f3733ab9e47aeb1288ac00000000", "vin": [{"sequence": 4294967295, "scriptSig": {"hex": "48304502210098f5eb797f33a4cd3472fb26d3596120fb6a12005fa69d2ab4908379f60799ac02203f03ed75ec974b9da8cfc4f9768cfa82cfe37aa63be0a3bbcd036f790425a5200121025c6e94877515dfd7b05682b9cc2fe4a49e076efe291e54fcec3add78183c1edb", "asm": "304502210098f5eb797f33a4cd3472fb26d3596120fb6a12005fa69d2ab4908379f60799ac02203f03ed75ec974b9da8cfc4f9768cfa82cfe37aa63be0a3bbcd036f790425a520[ALL] 025c6e94877515dfd7b05682b9cc2fe4a49e076efe291e54fcec3add78183c1edb"}, "vout": 10, "txid": "33a0295c3235247e406e01cd22830591c88d1e1dbb6e189f9c7bbd789117fc45"}], "txid": "7f6e00476d015966b1a4c30c9c72de0b4f30d1aaa887743bfa172126cb0ba0e6", "blocktime": 1537873282, "version": 1, "confirmations": 11480, "time": 1537873282, "locktime": 0, "vsize": 632, "size": 632}