{"hash": "d84f57dedca91737efb26190c62a0f7a536bc9731f984d22a172a33b663269b4", "blockhash": "00000000000000000017f5eb5941039fbcee6240d03bc1f2f8e35350df66a1d8", "vout": [{"scriptPubKey": {"reqSigs": 1, "hex": "76a914d6d8264cb3c364c7af526ac07ff4545fae90469b88ac", "addresses": ["1LazYPc8osErpNU5vANpfrS4iR546BJTGB"], "asm": "OP_DUP OP_HASH160 d6d8264cb3c364c7af526ac07ff4545fae90469b OP_EQUALVERIFY OP_CHECKSIG", "type": "pubkeyhash"}, "value": 0.25814039, "n": 0}, {"scriptPubKey": {"reqSigs": 1, "hex": "0014f41ee231e861ea27571c1cf1818e53eac91c6edd", "addresses": ["bc1q7s0wyv0gv84zw4curnccrrjnaty3cmkave2r0r"], "asm": "0 f41ee231e861ea27571c1cf1818e53eac91c6edd", "type": "witness_v0_keyhash"}, "value": 0.47225458, "n": 1}], "hex": "0100000000010153e963f0cadb84c9cb2c312b523c200161536c3f735102a11afad298e16111500100000017160014ce5fd9fcd534185e0a6064d3a0e51de36bd38f76ffffffff0217e48901000000001976a914d6d8264cb3c364c7af526ac07ff4545fae90469b88ac729ad00200000000160014f41ee231e861ea27571c1cf1818e53eac91c6edd02473044022003b283d496dbff5bac60ac69adaacc97adb21f9794da9eec14005fb1c9206e1802201018311b6401a5a364d6edf755aea3d42ef9acc3d6ce68a20d0fb73a12d5e7bb0121021a6663be0612b1d01751dc4c08810285367dccf5e0256724dbbb41050eafb5b800000000", "vin": [{"txinwitness": ["3044022003b283d496dbff5bac60ac69adaacc97adb21f9794da9eec14005fb1c9206e1802201018311b6401a5a364d6edf755aea3d42ef9acc3d6ce68a20d0fb73a12d5e7bb01", "021a6663be0612b1d01751dc4c08810285367dccf5e0256724dbbb41050eafb5b8"], "sequence": 4294967295, "scriptSig": {"hex": "160014ce5fd9fcd534185e0a6064d3a0e51de36bd38f76", "asm": "0014ce5fd9fcd534185e0a6064d3a0e51de36bd38f76"}, "vout": 1, "txid": "501161e198d2fa1aa10251733f6c536101203c522b312ccbc984dbcaf063e953"}], "txid": "7f6f0ff6b8f93ddb41c743c5e4f1cadf8d6a46d2426d1fab255c6b8cc568cebf", "blocktime": 1537874412, "version": 1, "confirmations": 11468, "time": 1537874412, "locktime": 0, "vsize": 167, "size": 248}