{"hash": "7f73924b35c789fe2852dfa2c85d7647d4455c7338b362161fa3acadaca3072b", "blockhash": "0000000000000000001cda96e906b7601b7a6fb1a3b62bca570a9e5d8f4b3de1", "vout": [{"scriptPubKey": {"reqSigs": 1, "hex": "a91430ecc43b5e713f9e07c72dce50458238fb3f072787", "addresses": ["369hzaWcAQfY6s7gfxJggqtbyvfv5itdP7"], "asm": "OP_HASH160 30ecc43b5e713f9e07c72dce50458238fb3f0727 OP_EQUAL", "type": "scripthash"}, "value": 0.00285111, "n": 0}, {"scriptPubKey": {"reqSigs": 1, "hex": "76a9148f91446994eebbc139e850bbe1285b3ab16108dd88ac", "addresses": ["1E67en2LSZ5H9b93XgX5AJYDntpbzBGJ28"], "asm": "OP_DUP OP_HASH160 8f91446994eebbc139e850bbe1285b3ab16108dd OP_EQUALVERIFY OP_CHECKSIG", "type": "pubkeyhash"}, "value": 0.09823113, "n": 1}], "hex": "0100000001d0681b559ee94683941e6fda049f0aad0287b7f1dd7b40b770a0bcf7289a256e010000006a473044022032a1855450ba15e95962862e4106745a7315b27e547c0fd947bd081e47152ba6022018c3e6c08c053ba562e46eb5308b35a9fdf7242d9b1113999644276aa2d07d02012102ece50215e5ec3b887cbb04b8390576c17f5ce378f3e989bf6580d4b9670ec6e7ffffffff02b75904000000000017a91430ecc43b5e713f9e07c72dce50458238fb3f07278789e39500000000001976a9148f91446994eebbc139e850bbe1285b3ab16108dd88ac00000000", "vin": [{"sequence": 4294967295, "scriptSig": {"hex": "473044022032a1855450ba15e95962862e4106745a7315b27e547c0fd947bd081e47152ba6022018c3e6c08c053ba562e46eb5308b35a9fdf7242d9b1113999644276aa2d07d02012102ece50215e5ec3b887cbb04b8390576c17f5ce378f3e989bf6580d4b9670ec6e7", "asm": "3044022032a1855450ba15e95962862e4106745a7315b27e547c0fd947bd081e47152ba6022018c3e6c08c053ba562e46eb5308b35a9fdf7242d9b1113999644276aa2d07d02[ALL] 02ece50215e5ec3b887cbb04b8390576c17f5ce378f3e989bf6580d4b9670ec6e7"}, "vout": 1, "txid": "6e259a28f7bca070b7407bddf1b78702ad0a9f04da6f1e948346e99e551b68d0"}], "txid": "7f73924b35c789fe2852dfa2c85d7647d4455c7338b362161fa3acadaca3072b", "blocktime": 1537873282, "version": 1, "confirmations": 11481, "time": 1537873282, "locktime": 0, "vsize": 223, "size": 223}