{"hash": "7f75f7b7b58bd81db0c49ce66c30f56ed7cfc539b2fc77d8f4d87492fa819004", "blockhash": "00000000000000000004ffacab907a6b429b9a5745fa0b75af4234bf69dd7176", "vout": [{"scriptPubKey": {"reqSigs": 1, "hex": "76a914fdb5dec2ae70530b21f100237d4a531b0358a7ff88ac", "addresses": ["1Q8Vq6QaM751RMVjyLyD8MLSu1AsX8v7HB"], "asm": "OP_DUP OP_HASH160 fdb5dec2ae70530b21f100237d4a531b0358a7ff OP_EQUALVERIFY OP_CHECKSIG", "type": "pubkeyhash"}, "value": 0.00203401, "n": 0}, {"scriptPubKey": {"reqSigs": 1, "hex": "76a9140bd2ca2f2003089b4f1275b3f88063afe8e413dc88ac", "addresses": ["125Wx3Nei6Wf7qKgimPosd9McKbP1iGihm"], "asm": "OP_DUP OP_HASH160 0bd2ca2f2003089b4f1275b3f88063afe8e413dc OP_EQUALVERIFY OP_CHECKSIG", "type": "pubkeyhash"}, "value": 0.0025309, "n": 1}], "hex": "01000000015fc32abef805a199e086685f0b4d6e6f46164bc15575a59685de5784621663f6000000006b483045022100e1270b432817680ce068224e3274642022d84d350331fed9569552ad89e1865b02201c8dc7cdf9f7e2286ad6ebab2c1bc4bb31b23a452f85e2dd2f140e1a5426e3b901210248b28289bcd914ddf5b3c0512bc3804569eb5b2da1b2a467e31578d701344935ffffffff02891a0300000000001976a914fdb5dec2ae70530b21f100237d4a531b0358a7ff88aca2dc0300000000001976a9140bd2ca2f2003089b4f1275b3f88063afe8e413dc88ac00000000", "vin": [{"sequence": 4294967295, "scriptSig": {"hex": "483045022100e1270b432817680ce068224e3274642022d84d350331fed9569552ad89e1865b02201c8dc7cdf9f7e2286ad6ebab2c1bc4bb31b23a452f85e2dd2f140e1a5426e3b901210248b28289bcd914ddf5b3c0512bc3804569eb5b2da1b2a467e31578d701344935", "asm": "3045022100e1270b432817680ce068224e3274642022d84d350331fed9569552ad89e1865b02201c8dc7cdf9f7e2286ad6ebab2c1bc4bb31b23a452f85e2dd2f140e1a5426e3b9[ALL] 0248b28289bcd914ddf5b3c0512bc3804569eb5b2da1b2a467e31578d701344935"}, "vout": 0, "txid": "f66316628457de8596a57555c14b16466f6e4d0b5f6886e099a105f8be2ac35f"}], "txid": "7f75f7b7b58bd81db0c49ce66c30f56ed7cfc539b2fc77d8f4d87492fa819004", "blocktime": 1537875543, "version": 1, "confirmations": 11464, "time": 1537875543, "locktime": 0, "vsize": 226, "size": 226}