{"hash": "2c40fb00eb00f0da72fcd801c9063ceeccf8c98befa371cb393c688254997e30", "blockhash": "00000000000000000018f53835495a110e01622372bf6ae95dc86f2b0ab887b0", "vout": [{"scriptPubKey": {"reqSigs": 1, "hex": "76a91468a8a0890963944c9bfb0d2fed960fef6818e68288ac", "addresses": ["1AYPHNEPiZKg58Bo498XJDsAxSo6pdQ99k"], "asm": "OP_DUP OP_HASH160 68a8a0890963944c9bfb0d2fed960fef6818e682 OP_EQUALVERIFY OP_CHECKSIG", "type": "pubkeyhash"}, "value": 0.0086, "n": 0}, {"scriptPubKey": {"reqSigs": 1, "hex": "001425bd6f659854e82c6ed79210ad50e14458ecae8c", "addresses": ["bc1qyk7k7evc2n5zcmkhjgg2658pg3vwet5vfejc5k"], "asm": "0 25bd6f659854e82c6ed79210ad50e14458ecae8c", "type": "witness_v0_keyhash"}, "value": 0.00082736, "n": 1}], "hex": "01000000000101271e4d506a02c02f1e5eb2442a16300abf1db3519b4dda981674f895240ac09c01000000171600142e0d8dd3fdc35baf9ee7e209cd852c576ed530dcffffffff02601f0d00000000001976a91468a8a0890963944c9bfb0d2fed960fef6818e68288ac304301000000000016001425bd6f659854e82c6ed79210ad50e14458ecae8c02483045022100e9f59aa5c64a331d41eefcaa03564ce23fb62020bd63ded22c8842a44fb9b01402203a25f746e7606b34b1f3c462c83a10af5aca5e39f6be1fc6f35271a2fbcb98e001210275d35f8d9144300ab22cc252d5fc39d85c94e892055a926e0ac19a6deb9146b800000000", "vin": [{"txinwitness": ["3045022100e9f59aa5c64a331d41eefcaa03564ce23fb62020bd63ded22c8842a44fb9b01402203a25f746e7606b34b1f3c462c83a10af5aca5e39f6be1fc6f35271a2fbcb98e001", "0275d35f8d9144300ab22cc252d5fc39d85c94e892055a926e0ac19a6deb9146b8"], "sequence": 4294967295, "scriptSig": {"hex": "1600142e0d8dd3fdc35baf9ee7e209cd852c576ed530dc", "asm": "00142e0d8dd3fdc35baf9ee7e209cd852c576ed530dc"}, "vout": 1, "txid": "9cc00a2495f8741698da4d9b51b31dbf0a30162a44b25e1e2fc0026a504d1e27"}], "txid": "7f8126bfbac640220e3c60d94335168e42e9ee974de9c8a8c05f67bebb6a2088", "blocktime": 1537870928, "version": 1, "confirmations": 11514, "time": 1537870928, "locktime": 0, "vsize": 167, "size": 249}