{"hash": "29bec6f1cdb48079f3361320b58c2013b4e056cb4b137488dec8d6aee87e30f4", "blockhash": "0000000000000000001cda96e906b7601b7a6fb1a3b62bca570a9e5d8f4b3de1", "vout": [{"scriptPubKey": {"reqSigs": 1, "hex": "76a9146f8a1071bc8c384e2cf5bb5ee617b42285075f0a88ac", "addresses": ["1BAmQAY9gvAU3jVy6ND1qbzKEubu9yRLuQ"], "asm": "OP_DUP OP_HASH160 6f8a1071bc8c384e2cf5bb5ee617b42285075f0a OP_EQUALVERIFY OP_CHECKSIG", "type": "pubkeyhash"}, "value": 0.00352548, "n": 0}, {"scriptPubKey": {"reqSigs": 1, "hex": "a914d30bed9af4f236824994236c5d6352780d283f3687", "addresses": ["3LvvnoUQETo63CB3XmYEyhxD9k5FZsikVp"], "asm": "OP_HASH160 d30bed9af4f236824994236c5d6352780d283f36 OP_EQUAL", "type": "scripthash"}, "value": 7.55079597, "n": 1}], "hex": "02000000000101560563b48452141125e1b5c467271173fbbe3bcdcfdda5d453b786de54bff556000000001716001475fde349cfe740beb03b29b7bd6830449b7e5400feffffff0224610500000000001976a9146f8a1071bc8c384e2cf5bb5ee617b42285075f0a88acad99012d0000000017a914d30bed9af4f236824994236c5d6352780d283f368702483045022100edc7fbc583c68e09d4eb8b807a3e9681078371023351d21ba257734e363e4cd6022071affd8b6e3496d39ff13c026a513dc1ded9dbbb22f9069740a5d8b0540c3660012102c653587a45b8c7eb3baa757403236b7fbbce5e4471c5f71103f65fb9a981c7fc13490800", "vin": [{"txinwitness": ["3045022100edc7fbc583c68e09d4eb8b807a3e9681078371023351d21ba257734e363e4cd6022071affd8b6e3496d39ff13c026a513dc1ded9dbbb22f9069740a5d8b0540c366001", "02c653587a45b8c7eb3baa757403236b7fbbce5e4471c5f71103f65fb9a981c7fc"], "sequence": 4294967294, "scriptSig": {"hex": "16001475fde349cfe740beb03b29b7bd6830449b7e5400", "asm": "001475fde349cfe740beb03b29b7bd6830449b7e5400"}, "vout": 0, "txid": "56f5bf54de86b753d4a5ddcfcd3bbefb73112767c4b5e12511145284b4630556"}], "txid": "7f83e43f844ce7efb7c81fd131e366da4cebc36215346ddfefc311717d8e31e7", "blocktime": 1537873282, "version": 2, "confirmations": 11480, "time": 1537873282, "locktime": 542995, "vsize": 168, "size": 250}