{"hash": "e36ab28da3a3e6cf222cd18c8c7449038b868071b118be5e8beca60a62e016b3", "blockhash": "00000000000000000004ffacab907a6b429b9a5745fa0b75af4234bf69dd7176", "vout": [{"scriptPubKey": {"reqSigs": 1, "hex": "76a9143ff7561f19b5c75b6789ad513a93de3388e7dab588ac", "addresses": ["16qDsKbB4hRTAibzcCGyAroMKs68TW9w7d"], "asm": "OP_DUP OP_HASH160 3ff7561f19b5c75b6789ad513a93de3388e7dab5 OP_EQUALVERIFY OP_CHECKSIG", "type": "pubkeyhash"}, "value": 0.00025859, "n": 0}], "hex": "010000000001016fc41eaf28f7d55562ec35894d941e7ebf7da7cc90a58ea9b84acd998bb32e2300000000171600143bbfeafc419adcf42f800d9b81ea0550f6395e6effffffff0103650000000000001976a9143ff7561f19b5c75b6789ad513a93de3388e7dab588ac0247304402205d665549c1ca8557c9c3896635d2bad0a87e5934dd2f8dd1086f8352c7b22c8f022073271402b055ecf1e82f43f01b1f17d99424ca0a4b0c8f9d6f3e2be64c5b19270121028944e22c9d430da47fe8101079ac2d05b443d24c2e68f4cf5647304379a9920800000000", "vin": [{"txinwitness": ["304402205d665549c1ca8557c9c3896635d2bad0a87e5934dd2f8dd1086f8352c7b22c8f022073271402b055ecf1e82f43f01b1f17d99424ca0a4b0c8f9d6f3e2be64c5b192701", "028944e22c9d430da47fe8101079ac2d05b443d24c2e68f4cf5647304379a99208"], "sequence": 4294967295, "scriptSig": {"hex": "1600143bbfeafc419adcf42f800d9b81ea0550f6395e6e", "asm": "00143bbfeafc419adcf42f800d9b81ea0550f6395e6e"}, "vout": 0, "txid": "232eb38b99cd4ab8a98ea590cca77dbf7e1e944d8935ec6255d5f728af1ec46f"}], "txid": "7f86c806e3a3b765c775dbcec17b8f365aa612cf864370508989dbe2fb20f39d", "blocktime": 1537875543, "version": 1, "confirmations": 11464, "time": 1537875543, "locktime": 0, "vsize": 136, "size": 217}