{"hash": "937e376532b7b6a8f8b90dedc35a828578d4c619ecb772151a444a1352a25564", "blockhash": "0000000000000000001e0dab787dd257d1dbfcb92a98c2207d5e1078be1f4165", "vout": [{"scriptPubKey": {"reqSigs": 1, "hex": "76a914f73b1ec2deb04fb7d2c1511d95d8a9d4eb089e1488ac", "addresses": ["1PYEj88Ubhsn1SLmFm2QtLmihvhAn1LUtX"], "asm": "OP_DUP OP_HASH160 f73b1ec2deb04fb7d2c1511d95d8a9d4eb089e14 OP_EQUALVERIFY OP_CHECKSIG", "type": "pubkeyhash"}, "value": 0.01154978, "n": 0}, {"scriptPubKey": {"reqSigs": 1, "hex": "a914074a69634347a98ca117b3f155ddb47aca44314287", "addresses": ["32MZo6kzG3DCbVWeif9LCGBtM5tVBh12sJ"], "asm": "OP_HASH160 074a69634347a98ca117b3f155ddb47aca443142 OP_EQUAL", "type": "scripthash"}, "value": 0.22250091, "n": 1}], "hex": "01000000000101d08d31dd0712e0333fbf9abe5ebf47ce80516b08f7ddc5e3276da4d19c993ab10100000023220020a4c3e8b78551736a8a7307da130fe0371682874a7781bc6b021833795649a1e9ffffffff02a29f1100000000001976a914f73b1ec2deb04fb7d2c1511d95d8a9d4eb089e1488ac6b8253010000000017a914074a69634347a98ca117b3f155ddb47aca44314287040048304502210097eb140115ad88e0542e327ba0a5a949ac70da3d87640dfd9ed3acb0dd20bd2a022049aa27995631068b98983267032019862db78f47e17c0aa5ba1463dc8aeb914a0147304402207714c07c8869c915498b1c42736dd5f487ad14e638b9ac2400c71fb86c29e899022022507807ec31780c277485ffc0169af3227e481dc26edc00bf5705dfb3bf65200147522102bfdd608b68f9f41dac4ad1e97745c073ed2f0a71179a03fcb5caf640dac9c5672103f62b1d27158b53be9caeae920614d9c61c0d4e3ab8a2b8afbc8e020933c6e68352ae00000000", "vin": [{"txinwitness": ["", "304502210097eb140115ad88e0542e327ba0a5a949ac70da3d87640dfd9ed3acb0dd20bd2a022049aa27995631068b98983267032019862db78f47e17c0aa5ba1463dc8aeb914a01", "304402207714c07c8869c915498b1c42736dd5f487ad14e638b9ac2400c71fb86c29e899022022507807ec31780c277485ffc0169af3227e481dc26edc00bf5705dfb3bf652001", "522102bfdd608b68f9f41dac4ad1e97745c073ed2f0a71179a03fcb5caf640dac9c5672103f62b1d27158b53be9caeae920614d9c61c0d4e3ab8a2b8afbc8e020933c6e68352ae"], "sequence": 4294967295, "scriptSig": {"hex": "220020a4c3e8b78551736a8a7307da130fe0371682874a7781bc6b021833795649a1e9", "asm": "0020a4c3e8b78551736a8a7307da130fe0371682874a7781bc6b021833795649a1e9"}, "vout": 1, "txid": "b13a999cd1a46d27e3c5ddf7086b5180ce47bf5ebe9abf3f33e01207dd318dd0"}], "txid": "7f8ce54088623caac80999d597ca72c1f18a2fa115f30ea598f43a372f0bc40f", "blocktime": 1537872475, "version": 1, "confirmations": 11487, "time": 1537872475, "locktime": 0, "vsize": 208, "size": 373}