{"hash": "7f9302971237770248a4daed7dad11209ed7c8059a3ed36ef4701782481a16c9", "blockhash": "00000000000000000018f53835495a110e01622372bf6ae95dc86f2b0ab887b0", "vout": [{"scriptPubKey": {"reqSigs": 1, "hex": "76a914a25dec4d0011064ef106a983c39c7a540699f22088ac", "addresses": ["1FoWyxwPXuj4C6abqwhjDWdz6D4PZgYRjA"], "asm": "OP_DUP OP_HASH160 a25dec4d0011064ef106a983c39c7a540699f220 OP_EQUALVERIFY OP_CHECKSIG", "type": "pubkeyhash"}, "value": 0.01995188, "n": 0}, {"scriptPubKey": {"type": "nulldata", "hex": "6a146f6d6e69000000000000001f0000000090132067", "asm": "OP_RETURN 6f6d6e69000000000000001f0000000090132067"}, "value": 0.0, "n": 1}, {"scriptPubKey": {"reqSigs": 1, "hex": "76a9146fafed7e7b0290cc380613773eef2096a5a94b0a88ac", "addresses": ["1BBYkxxjurocJwzattw9rFFNA6EbdZ5jTA"], "asm": "OP_DUP OP_HASH160 6fafed7e7b0290cc380613773eef2096a5a94b0a OP_EQUALVERIFY OP_CHECKSIG", "type": "pubkeyhash"}, "value": 5.46e-06, "n": 2}], "hex": "0100000001a44813c76173a4fe9689194c29809e35be05f1741d9b5e1e9e8bd44070ac1fea6c0000006a4730440220026c80d2b428bd0dd74420fe170a03146b442d262a4cce21b2b1eebbe6852f0b0220579cde93b4aec48070711e89fc03bc8366726353c38c85e5acc7941a0aa31480012103da5bac7b36d5aa38f531c6b9601e21bb598a4b6716ebed38b009a55dabde9440feffffff03b4711e00000000001976a914a25dec4d0011064ef106a983c39c7a540699f22088ac0000000000000000166a146f6d6e69000000000000001f000000009013206722020000000000001976a9146fafed7e7b0290cc380613773eef2096a5a94b0a88ac0e490800", "vin": [{"sequence": 4294967294, "scriptSig": {"hex": "4730440220026c80d2b428bd0dd74420fe170a03146b442d262a4cce21b2b1eebbe6852f0b0220579cde93b4aec48070711e89fc03bc8366726353c38c85e5acc7941a0aa31480012103da5bac7b36d5aa38f531c6b9601e21bb598a4b6716ebed38b009a55dabde9440", "asm": "30440220026c80d2b428bd0dd74420fe170a03146b442d262a4cce21b2b1eebbe6852f0b0220579cde93b4aec48070711e89fc03bc8366726353c38c85e5acc7941a0aa31480[ALL] 03da5bac7b36d5aa38f531c6b9601e21bb598a4b6716ebed38b009a55dabde9440"}, "vout": 108, "txid": "ea1fac7040d48b9e1e5e9b1d74f105be359e80294c198996fea47361c71348a4"}], "txid": "7f9302971237770248a4daed7dad11209ed7c8059a3ed36ef4701782481a16c9", "blocktime": 1537870928, "version": 1, "confirmations": 11512, "time": 1537870928, "locktime": 542990, "vsize": 256, "size": 256}