{"hash": "7f955342ff55cf6ffe00cd5816ccfd98cdf1930288e630ec32c354ac62468c4a", "blockhash": "0000000000000000000baef3f32e3676a92c3b2e5da21b426e4f302fc371ce76", "vout": [{"scriptPubKey": {"reqSigs": 1, "hex": "76a91400563ecc0e1edef3eb9b07567315a550abda50ba88ac", "addresses": ["112nKRrjYknMxU6THAdmtWjReaZ1sqa4my"], "asm": "OP_DUP OP_HASH160 00563ecc0e1edef3eb9b07567315a550abda50ba OP_EQUALVERIFY OP_CHECKSIG", "type": "pubkeyhash"}, "value": 0.00329, "n": 0}, {"scriptPubKey": {"reqSigs": 1, "hex": "76a91421f1e85d2ebe4804b4432c0500ccfd84a45c79f788ac", "addresses": ["146V6NU3hZ6bdny1LuA3N2FEKyHx2ewf8j"], "asm": "OP_DUP OP_HASH160 21f1e85d2ebe4804b4432c0500ccfd84a45c79f7 OP_EQUALVERIFY OP_CHECKSIG", "type": "pubkeyhash"}, "value": 0.0656345, "n": 1}], "hex": "0200000001f0e915f5c0fc49ed49ed278fd6be60ac3c9a7c1809af38a9eb80f805c3f9ea76000000006b483045022100f3600302278a80400ac10f2815fc35b1b8ba8522b12d9f0a10564c76d98ab7e6022074d77a7d59a2165d061bd861e3ff5fb15a7a1ca958c4bd9f69e38a913d040dd1012103c6a9aa2982de7b2dcdcbcbdd84c54ce4f1014e1e3e8ca07be9a8eb1cb4e48cdcfeffffff0228050500000000001976a91400563ecc0e1edef3eb9b07567315a550abda50ba88ac7a266400000000001976a91421f1e85d2ebe4804b4432c0500ccfd84a45c79f788ac16490800", "vin": [{"sequence": 4294967294, "scriptSig": {"hex": "483045022100f3600302278a80400ac10f2815fc35b1b8ba8522b12d9f0a10564c76d98ab7e6022074d77a7d59a2165d061bd861e3ff5fb15a7a1ca958c4bd9f69e38a913d040dd1012103c6a9aa2982de7b2dcdcbcbdd84c54ce4f1014e1e3e8ca07be9a8eb1cb4e48cdc", "asm": "3045022100f3600302278a80400ac10f2815fc35b1b8ba8522b12d9f0a10564c76d98ab7e6022074d77a7d59a2165d061bd861e3ff5fb15a7a1ca958c4bd9f69e38a913d040dd1[ALL] 03c6a9aa2982de7b2dcdcbcbdd84c54ce4f1014e1e3e8ca07be9a8eb1cb4e48cdc"}, "vout": 0, "txid": "76eaf9c305f880eba938af09187c9a3cac60bed68f27ed49ed49fcc0f515e9f0"}], "txid": "7f955342ff55cf6ffe00cd5816ccfd98cdf1930288e630ec32c354ac62468c4a", "blocktime": 1537876114, "version": 2, "confirmations": 11460, "time": 1537876114, "locktime": 542998, "vsize": 226, "size": 226}