{"hash": "7f9f04e69c24707dc51922d20812798b817dcb1983dadc231584dcf82d71364f", "blockhash": "0000000000000000001f76057863aec43deb6fa401d9628bb513d65a8098bfab", "vout": [{"scriptPubKey": {"reqSigs": 1, "hex": "76a914b90198eba3bb98c735f14b221b345f7049bed71388ac", "addresses": ["1HsDvUW2ABCg5A8aDNg25QE4QqCRwa2kPj"], "asm": "OP_DUP OP_HASH160 b90198eba3bb98c735f14b221b345f7049bed713 OP_EQUALVERIFY OP_CHECKSIG", "type": "pubkeyhash"}, "value": 0.01728431, "n": 0}, {"scriptPubKey": {"reqSigs": 1, "hex": "76a914b1d926f97f40bedc4123f27ef3c3fc4c1acc3b9888ac", "addresses": ["1HDNjxUUk4WktfY4cVcxtQ59W274PLKo4n"], "asm": "OP_DUP OP_HASH160 b1d926f97f40bedc4123f27ef3c3fc4c1acc3b98 OP_EQUALVERIFY OP_CHECKSIG", "type": "pubkeyhash"}, "value": 0.03786562, "n": 1}], "hex": "0200000001cca20448673acc97b735e73514fc7e40179552bccfdc4c12530ec211ca31d403010000006a47304402207899773146eeed0f5bfd3b7266f92e592a094cdd855689e27d400b22ca44b66c022071bc92ed42e3470cea32d6bca6b13828c4de68b95aa66d6177f520466a8b748e01210346b8be253334d4d176cc5d74489211b354769a8a7e0cb4da947f7df8d7e58eaafeffffff02af5f1a00000000001976a914b90198eba3bb98c735f14b221b345f7049bed71388ac42c73900000000001976a914b1d926f97f40bedc4123f27ef3c3fc4c1acc3b9888acf2480800", "vin": [{"sequence": 4294967294, "scriptSig": {"hex": "47304402207899773146eeed0f5bfd3b7266f92e592a094cdd855689e27d400b22ca44b66c022071bc92ed42e3470cea32d6bca6b13828c4de68b95aa66d6177f520466a8b748e01210346b8be253334d4d176cc5d74489211b354769a8a7e0cb4da947f7df8d7e58eaa", "asm": "304402207899773146eeed0f5bfd3b7266f92e592a094cdd855689e27d400b22ca44b66c022071bc92ed42e3470cea32d6bca6b13828c4de68b95aa66d6177f520466a8b748e[ALL] 0346b8be253334d4d176cc5d74489211b354769a8a7e0cb4da947f7df8d7e58eaa"}, "vout": 1, "txid": "03d431ca11c20e53124cdccfbc529517407efc1435e735b797cc3a674804a2cc"}], "txid": "7f9f04e69c24707dc51922d20812798b817dcb1983dadc231584dcf82d71364f", "blocktime": 1537873891, "version": 2, "confirmations": 11478, "time": 1537873891, "locktime": 542962, "vsize": 225, "size": 225}