{"hash": "7fa6e7980aabcd889595fca912c4388eaffc0691f09463c837073d06a4ae26fb", "blockhash": "0000000000000000000e13cef7c366c0283d82e591d1acd082e914b08063cdf1", "vout": [{"scriptPubKey": {"reqSigs": 1, "hex": "76a914add3279f83410464341b5468a158334ab50a543288ac", "addresses": ["1Gr6rUiQ8RhxJNxogruCZKvaCFo21dCG5D"], "asm": "OP_DUP OP_HASH160 add3279f83410464341b5468a158334ab50a5432 OP_EQUALVERIFY OP_CHECKSIG", "type": "pubkeyhash"}, "value": 0.09510459, "n": 0}, {"scriptPubKey": {"reqSigs": 1, "hex": "a914135c7ad48a48f3188a5ff81b47f7bc623f516e8f87", "addresses": ["33TPYoEyRiFA5gye3ScPzRKUS2XeUoorvz"], "asm": "OP_HASH160 135c7ad48a48f3188a5ff81b47f7bc623f516e8f OP_EQUAL", "type": "scripthash"}, "value": 0.1, "n": 1}], "hex": "0100000001c01301efc6a97ba30bfaa979054d68302ca35eda060595fc43251fb38290d08a030000006a47304402203bc5403748cab52579287ae38ec838d90edc5a707caee0eb03a3a65f4a4cc7f20220664c70e95159cfafc69c15bc1a20d3e5ab954ddf3a885a57941d0ae4bda92bbf0121023e4c3420aab86fbcae8386c0ec8b1dc46046fb2bf6577aa9ad5819cb16ed94f2ffffffff023b1e9100000000001976a914add3279f83410464341b5468a158334ab50a543288ac809698000000000017a914135c7ad48a48f3188a5ff81b47f7bc623f516e8f8700000000", "vin": [{"sequence": 4294967295, "scriptSig": {"hex": "47304402203bc5403748cab52579287ae38ec838d90edc5a707caee0eb03a3a65f4a4cc7f20220664c70e95159cfafc69c15bc1a20d3e5ab954ddf3a885a57941d0ae4bda92bbf0121023e4c3420aab86fbcae8386c0ec8b1dc46046fb2bf6577aa9ad5819cb16ed94f2", "asm": "304402203bc5403748cab52579287ae38ec838d90edc5a707caee0eb03a3a65f4a4cc7f20220664c70e95159cfafc69c15bc1a20d3e5ab954ddf3a885a57941d0ae4bda92bbf[ALL] 023e4c3420aab86fbcae8386c0ec8b1dc46046fb2bf6577aa9ad5819cb16ed94f2"}, "vout": 3, "txid": "8ad09082b31f2543fc950506da5ea32c30684d0579a9fa0ba37ba9c6ef0113c0"}], "txid": "7fa6e7980aabcd889595fca912c4388eaffc0691f09463c837073d06a4ae26fb", "blocktime": 1537871767, "version": 1, "confirmations": 11493, "time": 1537871767, "locktime": 0, "vsize": 223, "size": 223}