{"hash": "7fab351f3d525504f4829eb7b1e6772350b1c43351746a59a5d77b005c37f781", "blockhash": "00000000000000000018f53835495a110e01622372bf6ae95dc86f2b0ab887b0", "vout": [{"scriptPubKey": {"reqSigs": 1, "hex": "76a914365384daf06ee3f3ad1a27843a5663bbd97f91d388ac", "addresses": ["15xFYMnNnYCPhy4TTxJYZDtR9k3ug6sssn"], "asm": "OP_DUP OP_HASH160 365384daf06ee3f3ad1a27843a5663bbd97f91d3 OP_EQUALVERIFY OP_CHECKSIG", "type": "pubkeyhash"}, "value": 0.00303, "n": 0}, {"scriptPubKey": {"reqSigs": 1, "hex": "76a91423666deeb5d56a2ba46893fbbc1a92e694ed784188ac", "addresses": ["14EBMdqnBqQaiM2eYPysP5Q7X7bK7wtbgp"], "asm": "OP_DUP OP_HASH160 23666deeb5d56a2ba46893fbbc1a92e694ed7841 OP_EQUALVERIFY OP_CHECKSIG", "type": "pubkeyhash"}, "value": 0.07571435, "n": 1}], "hex": "01000000013a7727ec779076803a2903d8b5d70910f4ec6d9e4a13b9a0d9d8e6a949b19027010000006a47304402203edabca85afc0513a72e6c7bb3682eb4ec1a1c2d6ec81ca0d68b3662d78b43dc02206d7d5c85d3cad1503801bfc9d8af4f5195bfc895934891ad918fe5e13e9b6cfa0121030daae90556d125ccadc4b11f81dc28b4be8a61b0269e527201dadb0ea7505501ffffffff02989f0400000000001976a914365384daf06ee3f3ad1a27843a5663bbd97f91d388aceb877300000000001976a91423666deeb5d56a2ba46893fbbc1a92e694ed784188ac00000000", "vin": [{"sequence": 4294967295, "scriptSig": {"hex": "47304402203edabca85afc0513a72e6c7bb3682eb4ec1a1c2d6ec81ca0d68b3662d78b43dc02206d7d5c85d3cad1503801bfc9d8af4f5195bfc895934891ad918fe5e13e9b6cfa0121030daae90556d125ccadc4b11f81dc28b4be8a61b0269e527201dadb0ea7505501", "asm": "304402203edabca85afc0513a72e6c7bb3682eb4ec1a1c2d6ec81ca0d68b3662d78b43dc02206d7d5c85d3cad1503801bfc9d8af4f5195bfc895934891ad918fe5e13e9b6cfa[ALL] 030daae90556d125ccadc4b11f81dc28b4be8a61b0269e527201dadb0ea7505501"}, "vout": 1, "txid": "2790b149a9e6d8d9a0b9134a9e6decf41009d7b5d803293a80769077ec27773a"}], "txid": "7fab351f3d525504f4829eb7b1e6772350b1c43351746a59a5d77b005c37f781", "blocktime": 1537870928, "version": 1, "confirmations": 11512, "time": 1537870928, "locktime": 0, "vsize": 225, "size": 225}