{"hash": "03c7f7d4f7be15df1de27d699c018472381114ea6d2730ab83f1ad52a3a4cb8b", "blockhash": "0000000000000000000dcc0f55137456b1a82d3642486a52398922ac4d620174", "vout": [{"scriptPubKey": {"reqSigs": 1, "hex": "a914fadb463869f8c3a4256e94436ae0bd0b4f5a5f8687", "addresses": ["3QZRXwrxHVeAVdQi7bXaRmWj1ShnttRH2q"], "asm": "OP_HASH160 fadb463869f8c3a4256e94436ae0bd0b4f5a5f86 OP_EQUAL", "type": "scripthash"}, "value": 0.04377476, "n": 0}, {"scriptPubKey": {"reqSigs": 1, "hex": "a914356f00707b895672dfbf0c4799cac5fa9bfc675587", "addresses": ["36ZYiFBCXQ14doRqZvXn1vZjuxESmKWWrJ"], "asm": "OP_HASH160 356f00707b895672dfbf0c4799cac5fa9bfc6755 OP_EQUAL", "type": "scripthash"}, "value": 0.01060943, "n": 1}], "hex": "010000000001067476c7f2fc7621c211c661d1d130ea64284c86b9b5f81eef13f21e6c1c7ff47b0100000023220020b3159ecfdfaba64f4b2f883a5ed3fd42d7ce3daba8d397219845f91ae092c78fffffffff06cf8d8fbcf9e1de95a93f622dde1c4a180c237068eacadbee0e67e7850ce4070000000023220020c3c8b2d9f4a97ee9213dc0a35a5b93705ba80a4ff442bd366f6be621b32bac5fffffffff28f3117b9e23f146fa8a1a448ad17c3e2b2bafbd203e7770016ff21e920573430000000023220020cbd535b231cfebf53d7fbfa1b0fce73fd9f976fbf2738ad904f56e16d900c2bdffffffff15a5bc8951c931f75811d0710eb3a938f8a00bf8e1cf12e9f535a8cc33d0db970a00000023220020b06363d7118c033615b71a5f54fce2c758e1581d6a49c877126c987edfde1c58ffffffff0ee4e7a116f90d9dd02b4406a3244b65330af4055d7ce539c1852cda0cfc3b030000000023220020e5787c17a7c9d957aa4b2d0d8d4f5a93732e63c822f53e2b9c8c339a30a92d0cffffffff53ed48d88d6c1022fc39721335d7b8ebd72e416c74f826b29ff33379b41e80083200000023220020ddf9c4ef367b617c7cda9838e16bdd4257c5ec43dd4227716f11b1eaf2b3364effffffff0284cb42000000000017a914fadb463869f8c3a4256e94436ae0bd0b4f5a5f86874f3010000000000017a914356f00707b895672dfbf0c4799cac5fa9bfc6755870400483045022100d82bcdca8ac9c628f02410782e3093c0d376dd52149aec6c65920b4fe74dad1c022068c095a3fa1342bfa597ed547e12b00ea81fdac9b2184809ddbd7dd342edf166014730440220220de0c66bfc4e072e58b05218737845484165f55cafe542e6993757fcae5a1802203e0fc03c4b28a52cb76d2a3167d08b2611c9958ab3f17e3168f33f7c132ddf350169522102e98da7402d76e81ae6200a32c4033318aa9ad5e437bd1cff97636db7555a9c0b210345ae84b3fa48932b42c4d90165bdf8bcbe54c43c99b81c080e1c596630e257f42102dc5d6392751cefc5ebadfa0dc989ec4dc9aa0f5862d7571a849b6f7ebbf061e153ae04004730440220305008f7819bba5532f677be6a15a14ce3b06999ae79faa3271dc82d727671a702203f9ea98c5c31c3deba002035f938e368efdbd0411a83ebca94202939cd7ce25c01473044022037ff5b00417c9e434ad55f68dbecbb994173cc6ff52668d5c09ed4e658eb364502204726a66c77d80228488f21c1178e4e3c8f133dac97157fb3c3f9de91e3056eb101695221020c544a49d082db0c70e19fd905bb5cf592e759416bcd3370a626d49f37b39a00210396de47697c8a4cb8b01768fab389702963d5f32dfdbfda05ecb22fe1dbc454892102e6e8058e523af4e21a3c8a7f1aea4aa4e03d618283d34d0d197a17a44bbb3c6b53ae0400483045022100a816b1d217ac775ac371a23b772adb436b2fda9482c5e4f6aca837c26e0f7dd202203e53bd8b175df2d9934cc4df3399efa2a4d7deea649f4f6f073856e8245a08db01483045022100e289fc7ca0c360c5b2e55ed927da6acc054b3d8909b5221253b44da79983583e0220561efc24ba68a3dcc9be447acfe9e2c449491037a54cda77816325eaebb47eab0169522103f69046494a89002c9efe2f3dda150c9dc8fa27d89f33ca7440347f0c297823b321029bddbb2a045d95cb93ff44e01fb08fc61d2993daa00ad68bd0149ad0309d354321023039cdc39cf7ed4e19b3e58ad522497aa152a4a02700df73c5d492e205b4abc053ae040047304402200946db5ffcc94e265aecdc2dfe5c8b6e3af1d137cabe9833211dae97d12a8a3c02207bc54bab95b7ec61ff1e2768b624ced6efb170c580b7e63b9d0366b182da21af014830450221008d7f1f256e4ef7c5a8f02258ae6d215824b112b34f09f82dd3e3331e67851a4e0220559b84de4bf579c39e190a558e201e0c1d3933b20b5df9ee8c00adfd30dbb34901695221022c167d7aaf69a4ef34f8b5f116c8f2a44250ba56ac248d80c8ab82e018ba774f2103b747f745b8c2ef74be3cb9b338dc8c56e07532ac39938c2359daed4da063b746210301eb7065656505c83f4a8d50c9d793880c8374bf40c3358eff1a6a8a5e97435753ae0400483045022100e7558318bdfc374a31d9e2de5af4b55aee51eeb43653e5f99e6eb9d9efcc78810220140b716d7d46fc265ac565bc47309e3f78163dec52e079e2f61d7897c361cf83014730440220223934d120286106d9407b07b5b5bb08bccea793090a0cde7b74879a7d1d5a2d02204a82cc6c0c3954fc88b53159d841d61f7f498b1912159c2199e88caacdcdbf5a016952210228f0eef3b2d98e7b401c188c7111029f833a3df5d0ba44263424876389d675382103c7bc1f9d61b51f65d969b0a338151b6d3c65e6f53abef425c72a1e98f1c35fa42102dcab40d356551ec9fd3da431ffd2504adfe5b5315a776a2f9d4a4fcf0637d9db53ae04004730440220600620f928a689e4a7c7792daeea07de13a84932d4bbab3b0d162498f32e5939022038e284b758cb332b9dda517822ae6214131312c454f71dd6b8602db088088d4d01473044022054f0e32295f03d48a7906fef2dec6610a24421021b9260ed8bf4be5bb5a0e739022050338fa1aad955542b3679d02cf4197d68fd956e7f3e2210c6ad88c7fb5910a901695221025a540a42783e16636e1882fe383709c554f4b7948aadf302afbb46a97f73eb7c2102a36a21fc4d16f96eb8d75f1efd26c880aa385a6a5c1e6d6941d374c130be984421029010db8c240bb1a5186393b9d9171adb7b767fd87e18e2e8c0bf1aeb111f8ccc53ae0d490800", "vin": [{"txinwitness": ["", "3045022100d82bcdca8ac9c628f02410782e3093c0d376dd52149aec6c65920b4fe74dad1c022068c095a3fa1342bfa597ed547e12b00ea81fdac9b2184809ddbd7dd342edf16601", "30440220220de0c66bfc4e072e58b05218737845484165f55cafe542e6993757fcae5a1802203e0fc03c4b28a52cb76d2a3167d08b2611c9958ab3f17e3168f33f7c132ddf3501", "522102e98da7402d76e81ae6200a32c4033318aa9ad5e437bd1cff97636db7555a9c0b210345ae84b3fa48932b42c4d90165bdf8bcbe54c43c99b81c080e1c596630e257f42102dc5d6392751cefc5ebadfa0dc989ec4dc9aa0f5862d7571a849b6f7ebbf061e153ae"], "sequence": 4294967295, "scriptSig": {"hex": "220020b3159ecfdfaba64f4b2f883a5ed3fd42d7ce3daba8d397219845f91ae092c78f", "asm": "0020b3159ecfdfaba64f4b2f883a5ed3fd42d7ce3daba8d397219845f91ae092c78f"}, "vout": 1, "txid": "7bf47f1c6c1ef213ef1ef8b5b9864c2864ea30d1d161c611c22176fcf2c77674"}, {"txinwitness": ["", "30440220305008f7819bba5532f677be6a15a14ce3b06999ae79faa3271dc82d727671a702203f9ea98c5c31c3deba002035f938e368efdbd0411a83ebca94202939cd7ce25c01", "3044022037ff5b00417c9e434ad55f68dbecbb994173cc6ff52668d5c09ed4e658eb364502204726a66c77d80228488f21c1178e4e3c8f133dac97157fb3c3f9de91e3056eb101", "5221020c544a49d082db0c70e19fd905bb5cf592e759416bcd3370a626d49f37b39a00210396de47697c8a4cb8b01768fab389702963d5f32dfdbfda05ecb22fe1dbc454892102e6e8058e523af4e21a3c8a7f1aea4aa4e03d618283d34d0d197a17a44bbb3c6b53ae"], "sequence": 4294967295, "scriptSig": {"hex": "220020c3c8b2d9f4a97ee9213dc0a35a5b93705ba80a4ff442bd366f6be621b32bac5f", "asm": "0020c3c8b2d9f4a97ee9213dc0a35a5b93705ba80a4ff442bd366f6be621b32bac5f"}, "vout": 0, "txid": "07e40c85e7670eeedbcaea6870230c184a1cde2d623fa995dee1f9bc8f8dcf06"}, {"txinwitness": ["", "3045022100a816b1d217ac775ac371a23b772adb436b2fda9482c5e4f6aca837c26e0f7dd202203e53bd8b175df2d9934cc4df3399efa2a4d7deea649f4f6f073856e8245a08db01", "3045022100e289fc7ca0c360c5b2e55ed927da6acc054b3d8909b5221253b44da79983583e0220561efc24ba68a3dcc9be447acfe9e2c449491037a54cda77816325eaebb47eab01", "522103f69046494a89002c9efe2f3dda150c9dc8fa27d89f33ca7440347f0c297823b321029bddbb2a045d95cb93ff44e01fb08fc61d2993daa00ad68bd0149ad0309d354321023039cdc39cf7ed4e19b3e58ad522497aa152a4a02700df73c5d492e205b4abc053ae"], "sequence": 4294967295, "scriptSig": {"hex": "220020cbd535b231cfebf53d7fbfa1b0fce73fd9f976fbf2738ad904f56e16d900c2bd", "asm": "0020cbd535b231cfebf53d7fbfa1b0fce73fd9f976fbf2738ad904f56e16d900c2bd"}, "vout": 0, "txid": "437305921ef26f0170773e20bdaf2b2b3e7cd18a441a8afa46f1239e7b11f328"}, {"txinwitness": ["", "304402200946db5ffcc94e265aecdc2dfe5c8b6e3af1d137cabe9833211dae97d12a8a3c02207bc54bab95b7ec61ff1e2768b624ced6efb170c580b7e63b9d0366b182da21af01", "30450221008d7f1f256e4ef7c5a8f02258ae6d215824b112b34f09f82dd3e3331e67851a4e0220559b84de4bf579c39e190a558e201e0c1d3933b20b5df9ee8c00adfd30dbb34901", "5221022c167d7aaf69a4ef34f8b5f116c8f2a44250ba56ac248d80c8ab82e018ba774f2103b747f745b8c2ef74be3cb9b338dc8c56e07532ac39938c2359daed4da063b746210301eb7065656505c83f4a8d50c9d793880c8374bf40c3358eff1a6a8a5e97435753ae"], "sequence": 4294967295, "scriptSig": {"hex": "220020b06363d7118c033615b71a5f54fce2c758e1581d6a49c877126c987edfde1c58", "asm": "0020b06363d7118c033615b71a5f54fce2c758e1581d6a49c877126c987edfde1c58"}, "vout": 10, "txid": "97dbd033cca835f5e912cfe1f80ba0f838a9b30e71d01158f731c95189bca515"}, {"txinwitness": ["", "3045022100e7558318bdfc374a31d9e2de5af4b55aee51eeb43653e5f99e6eb9d9efcc78810220140b716d7d46fc265ac565bc47309e3f78163dec52e079e2f61d7897c361cf8301", "30440220223934d120286106d9407b07b5b5bb08bccea793090a0cde7b74879a7d1d5a2d02204a82cc6c0c3954fc88b53159d841d61f7f498b1912159c2199e88caacdcdbf5a01", "52210228f0eef3b2d98e7b401c188c7111029f833a3df5d0ba44263424876389d675382103c7bc1f9d61b51f65d969b0a338151b6d3c65e6f53abef425c72a1e98f1c35fa42102dcab40d356551ec9fd3da431ffd2504adfe5b5315a776a2f9d4a4fcf0637d9db53ae"], "sequence": 4294967295, "scriptSig": {"hex": "220020e5787c17a7c9d957aa4b2d0d8d4f5a93732e63c822f53e2b9c8c339a30a92d0c", "asm": "0020e5787c17a7c9d957aa4b2d0d8d4f5a93732e63c822f53e2b9c8c339a30a92d0c"}, "vout": 0, "txid": "033bfc0cda2c85c139e57c5d05f40a33654b24a306442bd09d0df916a1e7e40e"}, {"txinwitness": ["", "30440220600620f928a689e4a7c7792daeea07de13a84932d4bbab3b0d162498f32e5939022038e284b758cb332b9dda517822ae6214131312c454f71dd6b8602db088088d4d01", "3044022054f0e32295f03d48a7906fef2dec6610a24421021b9260ed8bf4be5bb5a0e739022050338fa1aad955542b3679d02cf4197d68fd956e7f3e2210c6ad88c7fb5910a901", "5221025a540a42783e16636e1882fe383709c554f4b7948aadf302afbb46a97f73eb7c2102a36a21fc4d16f96eb8d75f1efd26c880aa385a6a5c1e6d6941d374c130be984421029010db8c240bb1a5186393b9d9171adb7b767fd87e18e2e8c0bf1aeb111f8ccc53ae"], "sequence": 4294967295, "scriptSig": {"hex": "220020ddf9c4ef367b617c7cda9838e16bdd4257c5ec43dd4227716f11b1eaf2b3364e", "asm": "0020ddf9c4ef367b617c7cda9838e16bdd4257c5ec43dd4227716f11b1eaf2b3364e"}, "vout": 50, "txid": "08801eb47933f39fb226f8746c412ed7ebb8d735137239fc22106c8dd848ed53"}], "txid": "7facc52127d0820f165b142ff927278486e27c312f16611b8db5978a41fd9bd4", "blocktime": 1537870268, "version": 1, "confirmations": 11518, "time": 1537870268, "locktime": 542989, "vsize": 910, "size": 2049}