{"hash": "7fb4224dc2c094dd268c9ea61f24497d522568bdcac98f1da0a22182c1ae30cf", "blockhash": "00000000000000000017f5eb5941039fbcee6240d03bc1f2f8e35350df66a1d8", "vout": [{"scriptPubKey": {"reqSigs": 1, "hex": "76a914007daf4d56780f2497cdfd872474e2c71e53560788ac", "addresses": ["113bZjQh9pRSgTLmSuKGVULo6J5CP4HCPp"], "asm": "OP_DUP OP_HASH160 007daf4d56780f2497cdfd872474e2c71e535607 OP_EQUALVERIFY OP_CHECKSIG", "type": "pubkeyhash"}, "value": 0.00117, "n": 0}, {"scriptPubKey": {"reqSigs": 1, "hex": "76a9149437d88aba6cc9636610325829d0dad17443078988ac", "addresses": ["1EWhudXVcMhoeWXUqtjnTYiPGFmdZ18HTw"], "asm": "OP_DUP OP_HASH160 9437d88aba6cc9636610325829d0dad174430789 OP_EQUALVERIFY OP_CHECKSIG", "type": "pubkeyhash"}, "value": 0.0142084, "n": 1}], "hex": "0100000001be3c91e5eb2741fd61cef3c58b0c1ff1007ce4bfa1a6cb5e00b7b09822f2de40030000006a47304402202d87d40aad530f33aee8e54c3fc7f1e087f90281c5ba6b6452fba5a8f38b0e5f02202aff35cc452d5e13a4a1a6b5b93f5b9ea777baf778099f725fc6ca5e7319711c0121038ec993a213c526a2eb353524f14c37cd489283f0ae77649cd1bea99c9eb6be2efdffffff0208c90100000000001976a914007daf4d56780f2497cdfd872474e2c71e53560788ac28ae1500000000001976a9149437d88aba6cc9636610325829d0dad17443078988ac15490800", "vin": [{"sequence": 4294967293, "scriptSig": {"hex": "47304402202d87d40aad530f33aee8e54c3fc7f1e087f90281c5ba6b6452fba5a8f38b0e5f02202aff35cc452d5e13a4a1a6b5b93f5b9ea777baf778099f725fc6ca5e7319711c0121038ec993a213c526a2eb353524f14c37cd489283f0ae77649cd1bea99c9eb6be2e", "asm": "304402202d87d40aad530f33aee8e54c3fc7f1e087f90281c5ba6b6452fba5a8f38b0e5f02202aff35cc452d5e13a4a1a6b5b93f5b9ea777baf778099f725fc6ca5e7319711c[ALL] 038ec993a213c526a2eb353524f14c37cd489283f0ae77649cd1bea99c9eb6be2e"}, "vout": 3, "txid": "40def22298b0b7005ecba6a1bfe47c00f11f0c8bc5f3ce61fd4127ebe5913cbe"}], "txid": "7fb4224dc2c094dd268c9ea61f24497d522568bdcac98f1da0a22182c1ae30cf", "blocktime": 1537874412, "version": 1, "confirmations": 11468, "time": 1537874412, "locktime": 542997, "vsize": 225, "size": 225}