{"hash": "dbc292c043ece186a8115805ccef9ba9d85f30c23aeef2b12ca0f9e8e094d3a5", "blockhash": "0000000000000000001cda96e906b7601b7a6fb1a3b62bca570a9e5d8f4b3de1", "vout": [{"scriptPubKey": {"reqSigs": 1, "hex": "76a914603c3b4ca8d9f7b362f8ba60e72dd1bd681f501788ac", "addresses": ["19mr2PEXB94Fyuxgn53FsKGkNcApMadCi4"], "asm": "OP_DUP OP_HASH160 603c3b4ca8d9f7b362f8ba60e72dd1bd681f5017 OP_EQUALVERIFY OP_CHECKSIG", "type": "pubkeyhash"}, "value": 0.00016989, "n": 0}, {"scriptPubKey": {"reqSigs": 1, "hex": "a914412a5a9d44d5834123b7756088f409b7b3a36da687", "addresses": ["37daapNiiDgPEaARWMQCfhGXJo4yF1nTaW"], "asm": "OP_HASH160 412a5a9d44d5834123b7756088f409b7b3a36da6 OP_EQUAL", "type": "scripthash"}, "value": 0.0168227, "n": 1}], "hex": "0100000000010126e9130b291e17298cfeb6412c230146229b8def0217adacca079e5d885010da010000002322002083f5850b1b9ae687f7cf8d5c77fefcbd87cde420155cd43c20d50f5f293b7ed6ffffffff025d420000000000001976a914603c3b4ca8d9f7b362f8ba60e72dd1bd681f501788ac5eab19000000000017a914412a5a9d44d5834123b7756088f409b7b3a36da687040047304402206022669dcda68f67644a5298e5ff7e3c11c31b3bb19a5e543dd986bf38bd0b8c022036d38f01c28bc7b11126db4dbbc6468f6cdd2ec15fe979cb4b775b3f12b3de5c0147304402200737d7fda25ac2b7805124e322b15a47c9b34af5c9d108beb19ad65cb113314c0220342446b2d49b7f5dd21f6cdb8bb6d667872597b125dbedeaed3a655bf701252901475221020511070566b8412d1941b8dc0ded10caa6a6915b609dfa65bb8111255071d3a22103871fc2ca08e6950b38867e8e6a0e94ee625223d3aa0df5c65f414c6d784467e252ae00000000", "vin": [{"txinwitness": ["", "304402206022669dcda68f67644a5298e5ff7e3c11c31b3bb19a5e543dd986bf38bd0b8c022036d38f01c28bc7b11126db4dbbc6468f6cdd2ec15fe979cb4b775b3f12b3de5c01", "304402200737d7fda25ac2b7805124e322b15a47c9b34af5c9d108beb19ad65cb113314c0220342446b2d49b7f5dd21f6cdb8bb6d667872597b125dbedeaed3a655bf701252901", "5221020511070566b8412d1941b8dc0ded10caa6a6915b609dfa65bb8111255071d3a22103871fc2ca08e6950b38867e8e6a0e94ee625223d3aa0df5c65f414c6d784467e252ae"], "sequence": 4294967295, "scriptSig": {"hex": "22002083f5850b1b9ae687f7cf8d5c77fefcbd87cde420155cd43c20d50f5f293b7ed6", "asm": "002083f5850b1b9ae687f7cf8d5c77fefcbd87cde420155cd43c20d50f5f293b7ed6"}, "vout": 1, "txid": "da1050885d9e07caacad1702ef8d9b224601232c41b6fe8c29171e290b13e926"}], "txid": "7fb50446c97d439112b7b03a59c0051f8c0fbca355efe469b1db35a6340d9aa6", "blocktime": 1537873282, "version": 1, "confirmations": 11484, "time": 1537873282, "locktime": 0, "vsize": 207, "size": 372}