{"hash": "7fb635cc91541d81d118d2b5d9a753371b40f608e191c94449d5571df563fbc3", "blockhash": "00000000000000000017f5eb5941039fbcee6240d03bc1f2f8e35350df66a1d8", "vout": [{"scriptPubKey": {"reqSigs": 1, "hex": "a9146147d1952c900cf4f49835c1179fddfcebbf030b87", "addresses": ["3AZPWCbtfkwuQUuztGGstdeAjWhzhZfp8G"], "asm": "OP_HASH160 6147d1952c900cf4f49835c1179fddfcebbf030b OP_EQUAL", "type": "scripthash"}, "value": 0.01526132, "n": 0}, {"scriptPubKey": {"reqSigs": 1, "hex": "76a9143733c14bd562cd4fbbb98e2557f2c67bea17bb0188ac", "addresses": ["162tAZDmP4qekrmbtEuXu6jqfeLiphZVpR"], "asm": "OP_DUP OP_HASH160 3733c14bd562cd4fbbb98e2557f2c67bea17bb01 OP_EQUALVERIFY OP_CHECKSIG", "type": "pubkeyhash"}, "value": 8.399e-05, "n": 1}], "hex": "01000000027df0cbc16b39efada69ecc250fb79734b68675fc5b70cf64f2516692a30219a501000000d90047304402205efd0c089c688d9f1ad8ad6762a7ad9be6c46f01655ddd492d24bcf21e1d3b40022073564b4cfd5f0122fbccb28dad6eeef7d5b36b58d4ac36be051e6aba7a950127014730440220182208cf6ec523991da5b80156a7a093ddd6dea236e861277331948ab435f4bc022043f402808ec0794549c9271264dea7146fb2d8fd22820cffb246ae4d1f8109440147522102907a54bed8ad74b3f35638c60114ca240a308cb986f3f2f306178869a8880b612103c58a285f17c654348e6306261af50b1f03bdded1bda87040027c8dd195f924a952aeffffffffdee42e767f24b69b78ed9c3b23deb0529b30da1575257e2b0348be1f1f5b820d010000006b483045022100ddf5d668c0fa3476b04b31bee939068167b8dd9be9e41cdc4a5298cb2f6fd95802205f747ac0690df2834bc97bb8dbd497aa7aed3019e65fa0f7d33195c1157406c3012103ee5c59cd76fc1b25f9d73ffffd2a6c31183bdb798d64e8c3da50e8cf78deedf8ffffffff02744917000000000017a9146147d1952c900cf4f49835c1179fddfcebbf030b87cf200000000000001976a9143733c14bd562cd4fbbb98e2557f2c67bea17bb0188ac00000000", "vin": [{"sequence": 4294967295, "scriptSig": {"hex": "0047304402205efd0c089c688d9f1ad8ad6762a7ad9be6c46f01655ddd492d24bcf21e1d3b40022073564b4cfd5f0122fbccb28dad6eeef7d5b36b58d4ac36be051e6aba7a950127014730440220182208cf6ec523991da5b80156a7a093ddd6dea236e861277331948ab435f4bc022043f402808ec0794549c9271264dea7146fb2d8fd22820cffb246ae4d1f8109440147522102907a54bed8ad74b3f35638c60114ca240a308cb986f3f2f306178869a8880b612103c58a285f17c654348e6306261af50b1f03bdded1bda87040027c8dd195f924a952ae", "asm": "0 304402205efd0c089c688d9f1ad8ad6762a7ad9be6c46f01655ddd492d24bcf21e1d3b40022073564b4cfd5f0122fbccb28dad6eeef7d5b36b58d4ac36be051e6aba7a950127[ALL] 30440220182208cf6ec523991da5b80156a7a093ddd6dea236e861277331948ab435f4bc022043f402808ec0794549c9271264dea7146fb2d8fd22820cffb246ae4d1f810944[ALL] 522102907a54bed8ad74b3f35638c60114ca240a308cb986f3f2f306178869a8880b612103c58a285f17c654348e6306261af50b1f03bdded1bda87040027c8dd195f924a952ae"}, "vout": 1, "txid": "a51902a3926651f264cf705bfc7586b63497b70f25cc9ea6adef396bc1cbf07d"}, {"sequence": 4294967295, "scriptSig": {"hex": "483045022100ddf5d668c0fa3476b04b31bee939068167b8dd9be9e41cdc4a5298cb2f6fd95802205f747ac0690df2834bc97bb8dbd497aa7aed3019e65fa0f7d33195c1157406c3012103ee5c59cd76fc1b25f9d73ffffd2a6c31183bdb798d64e8c3da50e8cf78deedf8", "asm": "3045022100ddf5d668c0fa3476b04b31bee939068167b8dd9be9e41cdc4a5298cb2f6fd95802205f747ac0690df2834bc97bb8dbd497aa7aed3019e65fa0f7d33195c1157406c3[ALL] 03ee5c59cd76fc1b25f9d73ffffd2a6c31183bdb798d64e8c3da50e8cf78deedf8"}, "vout": 1, "txid": "0d825b1f1fbe48032b7e257515da309b52b0de233b9ced789bb6247f762ee4de"}], "txid": "7fb635cc91541d81d118d2b5d9a753371b40f608e191c94449d5571df563fbc3", "blocktime": 1537874412, "version": 1, "confirmations": 11467, "time": 1537874412, "locktime": 0, "vsize": 482, "size": 482}