{"hash": "cef005e1774c85653087b8d55dfa453be7084da603d183ecdf3e777c24803f88", "blockhash": "000000000000000000022b45ed06c6f4ccd3cf7fb5ba4856ebd2e58215665228", "vout": [{"scriptPubKey": {"reqSigs": 1, "hex": "a9142c14c91c6feb9c49a8efa92d58edc71a24b47bd087", "addresses": ["35i6ZC7YHAPGymrdDTgMDBJP6wodxH661q"], "asm": "OP_HASH160 2c14c91c6feb9c49a8efa92d58edc71a24b47bd0 OP_EQUAL", "type": "scripthash"}, "value": 3.35277669, "n": 0}, {"scriptPubKey": {"reqSigs": 1, "hex": "a91469f375e876933f802e96df7ee36c9cb0fb3492e187", "addresses": ["3BMEXd7fj5dRBxAxoFbeSnr86rmpVEUhgV"], "asm": "OP_HASH160 69f375e876933f802e96df7ee36c9cb0fb3492e1 OP_EQUAL", "type": "scripthash"}, "value": 0.9995, "n": 1}, {"scriptPubKey": {"reqSigs": 1, "hex": "a91480e8597ce0c971c8a2de443d5590dbb8c05c264187", "addresses": ["3DScm2cXcEL1uArCSLN5hDq5CAGn8Fy3g4"], "asm": "OP_HASH160 80e8597ce0c971c8a2de443d5590dbb8c05c2641 OP_EQUAL", "type": "scripthash"}, "value": 0.00721448, "n": 2}], "hex": "0100000000010174d3a7c2f1b4e095237342bba540707bab1d653955566bf4033bf18663d79faa000000002322002046c0a0d26d033a86d3e5f02b27da810f83e659a1566738cb1202137a3501eeceffffffff0365eefb130000000017a9142c14c91c6feb9c49a8efa92d58edc71a24b47bd087b01df5050000000017a91469f375e876933f802e96df7ee36c9cb0fb3492e18728020b000000000017a91480e8597ce0c971c8a2de443d5590dbb8c05c264187040047304402205ed72054fbb539d86c74170fb9ae6fb0d1004399bd8305c7fe0f2cd77dd67c5202207a49f7f8b0aaf357574297502ff98b010b0c7b28809ee393666658075e1a5d8601483045022100c8e6e3e16d17c4916aab56bac4d0f276437de0c3c42d15a6c8fed5cc210faf5602207d1773f14a1c448e346cfc2a6bada750670ac02ec9b20a9e7130848cc237d8df0169522103f098a0849c3e8cd64528755ae868813dc229c5109798d36f497ae357397219ed2102328a8b8835d6c3a0e0a27ff15177588bd4f6126268b71da9e9f2ed25ea9cac8e2102d51109010510bef8fc1e8f99aa0e58f3bc3eb28c95e21b1e8ce14ebb7f6f715d53ae00000000", "vin": [{"txinwitness": ["", "304402205ed72054fbb539d86c74170fb9ae6fb0d1004399bd8305c7fe0f2cd77dd67c5202207a49f7f8b0aaf357574297502ff98b010b0c7b28809ee393666658075e1a5d8601", "3045022100c8e6e3e16d17c4916aab56bac4d0f276437de0c3c42d15a6c8fed5cc210faf5602207d1773f14a1c448e346cfc2a6bada750670ac02ec9b20a9e7130848cc237d8df01", "522103f098a0849c3e8cd64528755ae868813dc229c5109798d36f497ae357397219ed2102328a8b8835d6c3a0e0a27ff15177588bd4f6126268b71da9e9f2ed25ea9cac8e2102d51109010510bef8fc1e8f99aa0e58f3bc3eb28c95e21b1e8ce14ebb7f6f715d53ae"], "sequence": 4294967295, "scriptSig": {"hex": "22002046c0a0d26d033a86d3e5f02b27da810f83e659a1566738cb1202137a3501eece", "asm": "002046c0a0d26d033a86d3e5f02b27da810f83e659a1566738cb1202137a3501eece"}, "vout": 0, "txid": "aa9fd76386f13b03f46b565539651dab7b7040a5bb42732395e0b4f1c2a7d374"}], "txid": "7fbbf0363bd7e78213caa28be4f1587f2c897913ef4dce284cc4d9b15cc65af3", "blocktime": 1537869901, "version": 1, "confirmations": 11523, "time": 1537869901, "locktime": 0, "vsize": 246, "size": 437}