{"hash": "86acdac3960d9b51f948c6fc185aff332654ecc395cad547facf780b7e242169", "blockhash": "00000000000000000004ffacab907a6b429b9a5745fa0b75af4234bf69dd7176", "vout": [{"scriptPubKey": {"reqSigs": 1, "hex": "a9140c74ea7ccda6a7992e8754702be67f74c1a8fc2987", "addresses": ["32pt6JuSdt6vnsi8bchFt4WxNDXeizfApH"], "asm": "OP_HASH160 0c74ea7ccda6a7992e8754702be67f74c1a8fc29 OP_EQUAL", "type": "scripthash"}, "value": 0.07, "n": 0}, {"scriptPubKey": {"reqSigs": 1, "hex": "a9144ff6fa5747eabb4899f1bf3b9c7f6eb4287b3ce987", "addresses": ["38yqB2JcYKpzkoYuqAPS9HqZReGs5veunv"], "asm": "OP_HASH160 4ff6fa5747eabb4899f1bf3b9c7f6eb4287b3ce9 OP_EQUAL", "type": "scripthash"}, "value": 0.01854803, "n": 1}], "hex": "02000000000103169ea824635f8fb036b64ac3f86c001906b2468aca9e2fb645dfdfdfd9fd6d24000000001716001449c2899586cbd64e757459e440e5a053e91a239dfeffffffc092ece87e9d58042a39a8a79f130a71128a8d4f7f3bb672c5f08a34237d85fb00000000171600148ca3f8147a647f6bf5f56ec50edb67cba6d8933cfeffffffec7afd3aeb63e4db240677935d03228f138fc8085150db108a30fb33c3143b2b000000001716001421228ad2409b0c950a5b521186259608498784ccfeffffff02c0cf6a000000000017a9140c74ea7ccda6a7992e8754702be67f74c1a8fc2987534d1c000000000017a9144ff6fa5747eabb4899f1bf3b9c7f6eb4287b3ce98702473044022015e59416a4cebdb5982f0939d5c6212a889c5b373951ff342cfc309233e2bec402206a48ce09e45c35a597fd8550cc4d439f05257cda7d6bd8bbaa8db11041e1f5860121035e7bcc4c66c6a2ee350d698b01bfaccc66aa1d3ddede8dae4c33ef1325ae4b5e02483045022100dd956423d2155ceff82ee115f16ff1bb0e9802b51bc83a0fe64b22dd079604ad02200bf14d6eba2343d5611a39e42862ddb5b54778e9b16c3bc3795974de0fbd17fe01210307be7c9f9dd6d79391659ecc1848129f19b38af768793ba25d0318bcb5ecdf7b02483045022100d02ee9ce14744518dd789ddb8c7e435d7acb29dc6702e485e47e6267753bb25e02207571b4381636b1cb02fc27acb3f4bc8ed71df91535f2e920ce37919f564325a0012103d97ef2c643c608249f9085cd66f8ec23f048530e47ea6f781d950e941e7c088016490800", "vin": [{"txinwitness": ["3044022015e59416a4cebdb5982f0939d5c6212a889c5b373951ff342cfc309233e2bec402206a48ce09e45c35a597fd8550cc4d439f05257cda7d6bd8bbaa8db11041e1f58601", "035e7bcc4c66c6a2ee350d698b01bfaccc66aa1d3ddede8dae4c33ef1325ae4b5e"], "sequence": 4294967294, "scriptSig": {"hex": "16001449c2899586cbd64e757459e440e5a053e91a239d", "asm": "001449c2899586cbd64e757459e440e5a053e91a239d"}, "vout": 0, "txid": "246dfdd9dfdfdf45b62f9eca8a46b20619006cf8c34ab636b08f5f6324a89e16"}, {"txinwitness": ["3045022100dd956423d2155ceff82ee115f16ff1bb0e9802b51bc83a0fe64b22dd079604ad02200bf14d6eba2343d5611a39e42862ddb5b54778e9b16c3bc3795974de0fbd17fe01", "0307be7c9f9dd6d79391659ecc1848129f19b38af768793ba25d0318bcb5ecdf7b"], "sequence": 4294967294, "scriptSig": {"hex": "1600148ca3f8147a647f6bf5f56ec50edb67cba6d8933c", "asm": "00148ca3f8147a647f6bf5f56ec50edb67cba6d8933c"}, "vout": 0, "txid": "fb857d23348af0c572b63b7f4f8d8a12710a139fa7a8392a04589d7ee8ec92c0"}, {"txinwitness": ["3045022100d02ee9ce14744518dd789ddb8c7e435d7acb29dc6702e485e47e6267753bb25e02207571b4381636b1cb02fc27acb3f4bc8ed71df91535f2e920ce37919f564325a001", "03d97ef2c643c608249f9085cd66f8ec23f048530e47ea6f781d950e941e7c0880"], "sequence": 4294967294, "scriptSig": {"hex": "16001421228ad2409b0c950a5b521186259608498784cc", "asm": "001421228ad2409b0c950a5b521186259608498784cc"}, "vout": 0, "txid": "2b3b14c333fb308a10db505108c88f138f22035d93770624dbe463eb3afd7aec"}], "txid": "7fc0d1c49fdbe67d3728dff4656ab9c3458bb7fea8421425fed21c3d019053cd", "blocktime": 1537875543, "version": 2, "confirmations": 11464, "time": 1537875543, "locktime": 542998, "vsize": 348, "size": 591}