{"hash": "a96f8211adf64546fa7a062671b9cd977c90d412cb8c90b81372e4ebf4e139a3", "blockhash": "00000000000000000024a2167bbff67b0be802c0b01cdd79e6331c2be6459f87", "vout": [{"scriptPubKey": {"reqSigs": 1, "hex": "a91409f4af8b65aa375907a8e7eff81419f001e183d087", "addresses": ["32bf8LDdJRGFuen16hRNrhcmr2KWDxeQte"], "asm": "OP_HASH160 09f4af8b65aa375907a8e7eff81419f001e183d0 OP_EQUAL", "type": "scripthash"}, "value": 0.0198934, "n": 0}, {"scriptPubKey": {"reqSigs": 1, "hex": "a914f6526a9e878d1fd5a61c9bd589ea73953928fe4487", "addresses": ["3Q9St8apad6fSsxhoPjHer8nPZhTxiPLug"], "asm": "OP_HASH160 f6526a9e878d1fd5a61c9bd589ea73953928fe44 OP_EQUAL", "type": "scripthash"}, "value": 0.00999122, "n": 1}], "hex": "02000000000104342e495f9922bb4e292e8c20051b617ef329e5d5263ef95d2f6c68bb852eccb5010000001716001479face1ff5b4f89b79e3795321f68c4231632c70feffffff5dfd70d486cfd4ac770c935a845ce4727671ee96ee62fbbcd9300c0c2868135e00000000171600148f608c13305e2f55cd0cdf9471d3be7c785115a3feffffff7e13258c338ed4762166fbd428697eadfa5d976e5e0e1a6dc2122c8eeb6f16460100000017160014e3db4a540bef8e918763d81cc7ab881859b2b6f5feffffffbbe47513a5f6021c7aa75a6c4abba40d3fe560ed858b2aed09427e1e5463e1b80000000017160014500d02e1f81402a66c6940118a674e86f22eef72feffffff02dc5a1e000000000017a91409f4af8b65aa375907a8e7eff81419f001e183d087d23e0f000000000017a914f6526a9e878d1fd5a61c9bd589ea73953928fe448702483045022100e4e641c11950bc9770b700081a4ba6b4d26d9a2c889a6eddb5d8d9a82f86e90002203824daa690a8671185368640e473be87887951a90e0a711ae1f171b519605392012103ef9c1e1b101700193995233c19f85d899511f6d024e3fcdfc662fe9944c9051e02473044022015d28bf2768c4be68dc2c5529e67e105803fdbc204a94b93c99edfa2f2ac705502204b9fcb3859151374739591533cd5dc9522b8fd9ef3acc45ef677bcfb05216dfd012102b67e43e6c3ad6bdf860559a4229b9d6bec9b574fc65180e31a63d7272128989c0247304402205386a3ea46229b8ff893d204dfacb5a897bf5a12a662da1867faf6978750d9b4022055ce0750774711e722e4f620aa5e522debdd3d102f6ad71df45a49adf9638a02012103807039481074c7d4c90a335cde122bc6e70239c3396cd661055b833d739987e00247304402207829aca30324219c873bd952f200e31f31eb02a7e14c4f7bce527c01f3d13a0b022052dff761a94914796560c3391a9e4c2a029072ab9c8977bfa92869c0cd45f3bc012103365764f039a5040c8010617913011fb5286a689f6d3f9214943b87532d182f9a0d490800", "vin": [{"txinwitness": ["3045022100e4e641c11950bc9770b700081a4ba6b4d26d9a2c889a6eddb5d8d9a82f86e90002203824daa690a8671185368640e473be87887951a90e0a711ae1f171b51960539201", "03ef9c1e1b101700193995233c19f85d899511f6d024e3fcdfc662fe9944c9051e"], "sequence": 4294967294, "scriptSig": {"hex": "16001479face1ff5b4f89b79e3795321f68c4231632c70", "asm": "001479face1ff5b4f89b79e3795321f68c4231632c70"}, "vout": 1, "txid": "b5cc2e85bb686c2f5df93e26d5e529f37e611b05208c2e294ebb22995f492e34"}, {"txinwitness": ["3044022015d28bf2768c4be68dc2c5529e67e105803fdbc204a94b93c99edfa2f2ac705502204b9fcb3859151374739591533cd5dc9522b8fd9ef3acc45ef677bcfb05216dfd01", "02b67e43e6c3ad6bdf860559a4229b9d6bec9b574fc65180e31a63d7272128989c"], "sequence": 4294967294, "scriptSig": {"hex": "1600148f608c13305e2f55cd0cdf9471d3be7c785115a3", "asm": "00148f608c13305e2f55cd0cdf9471d3be7c785115a3"}, "vout": 0, "txid": "5e1368280c0c30d9bcfb62ee96ee717672e45c845a930c77acd4cf86d470fd5d"}, {"txinwitness": ["304402205386a3ea46229b8ff893d204dfacb5a897bf5a12a662da1867faf6978750d9b4022055ce0750774711e722e4f620aa5e522debdd3d102f6ad71df45a49adf9638a0201", "03807039481074c7d4c90a335cde122bc6e70239c3396cd661055b833d739987e0"], "sequence": 4294967294, "scriptSig": {"hex": "160014e3db4a540bef8e918763d81cc7ab881859b2b6f5", "asm": "0014e3db4a540bef8e918763d81cc7ab881859b2b6f5"}, "vout": 1, "txid": "46166feb8e2c12c26d1a0e5e6e975dfaad7e6928d4fb662176d48e338c25137e"}, {"txinwitness": ["304402207829aca30324219c873bd952f200e31f31eb02a7e14c4f7bce527c01f3d13a0b022052dff761a94914796560c3391a9e4c2a029072ab9c8977bfa92869c0cd45f3bc01", "03365764f039a5040c8010617913011fb5286a689f6d3f9214943b87532d182f9a"], "sequence": 4294967294, "scriptSig": {"hex": "160014500d02e1f81402a66c6940118a674e86f22eef72", "asm": "0014500d02e1f81402a66c6940118a674e86f22eef72"}, "vout": 0, "txid": "b8e163541e7e4209ed2a8b85ed60e53f0da4bb4a6c5aa77a1c02f6a51375e4bb"}], "txid": "7fc5c596423a7014ed2c2627761e88d014d3d76943ffb7c5981c7c07954ebff5", "blocktime": 1537870564, "version": 2, "confirmations": 11515, "time": 1537870564, "locktime": 542989, "vsize": 438, "size": 761}