{"hash": "7fd349ebd41cfaca323ebad366560481b20854eeeb99d823501b468913bdc8da", "blockhash": "00000000000000000018f53835495a110e01622372bf6ae95dc86f2b0ab887b0", "vout": [{"scriptPubKey": {"type": "nulldata", "hex": "6a146f6d6e69000000000000001f000000174ca30580", "asm": "OP_RETURN 6f6d6e69000000000000001f000000174ca30580"}, "value": 0.0, "n": 0}, {"scriptPubKey": {"reqSigs": 1, "hex": "76a9143a4219672ba6aa415ff26aff75e2f3ca54767e6c88ac", "addresses": ["16K3NnK1M9WfesgVNEpefKkkyev6AJLScv"], "asm": "OP_DUP OP_HASH160 3a4219672ba6aa415ff26aff75e2f3ca54767e6c OP_EQUALVERIFY OP_CHECKSIG", "type": "pubkeyhash"}, "value": 0.04953539, "n": 1}, {"scriptPubKey": {"reqSigs": 1, "hex": "76a914a25dec4d0011064ef106a983c39c7a540699f22088ac", "addresses": ["1FoWyxwPXuj4C6abqwhjDWdz6D4PZgYRjA"], "asm": "OP_DUP OP_HASH160 a25dec4d0011064ef106a983c39c7a540699f220 OP_EQUALVERIFY OP_CHECKSIG", "type": "pubkeyhash"}, "value": 5.46e-06, "n": 2}], "hex": "0100000013095adea0b0589a40209942062cc65ef88153681e0fbc37de7186e9b1df97a3ef020000006b483045022100fcf9cdfff303a3d0c1703180e604584adba9cad73a0f93ccfd8f200bad889c5b022024452fefd1936e4d36cc406c8121b1357d676a6eb7004863520711fe95fed540012102273528a04b5aab69c45c53a15586b4e62fa99e3b7976df09dd573fc3ef8199e9feffffff473c941896c17135dcb9f26ffbec24f64f0e23fc7d6b14b34253f7fd10d0da72020000006b483045022100ea2e750a00375a50f8acba8d0aa45d8c057432ac9b537f7b19f515b4fdc7958b02207eb47ee3a72c81574ef3f91a79d4467d84b104de2da328249924f7316042a559012102273528a04b5aab69c45c53a15586b4e62fa99e3b7976df09dd573fc3ef8199e9feffffff54923565e9f311a942e0c2e7dbbfe5c331ec3c2bb44aa1808cfad58b10598880020000006b483045022100aad80248b73e6af6bcfc7b5b49422835d429dc0ac823d3d905e54afa81132e7802203e511af3779593e6523be7d8be2d9edf392cf5898bf896cd483f491e0ffb1366012102273528a04b5aab69c45c53a15586b4e62fa99e3b7976df09dd573fc3ef8199e9feffffff5b3d2dfa22e6f9bdea00fa2f5a1fda78501f7afe430b501f47e78244277987ea010000006a473044022003d6050cc61c90d9598ad1c3e6f4cbf62bdf1b6e4ca90559a811adbd6d67f240022071eaa810c19cb621e2234cba6f276505529f7442308ef057845011d2bb294147012102273528a04b5aab69c45c53a15586b4e62fa99e3b7976df09dd573fc3ef8199e9feffffff731776a17f5b16975e46fc2c10c2f6fb674f8f85e667a1d81f156635a1bdf78b020000006b483045022100d3950ce684fda2b4d40154021efa2d246a232ba954ac43723448210bbf7960e002205c5f34262c55f0b7c70d3af610473eafc55115830fc7020285504a9f0903c282012102273528a04b5aab69c45c53a15586b4e62fa99e3b7976df09dd573fc3ef8199e9feffffff75db7a579f87b38a84bdd767333c535ddb5234743fcd7fc88e818795d2d1330a020000006a473044022076733644d3383b06830fcaee27b10f054704d4f9c94fb4813cb75e7db2e6ca5402207fad2dfa6e12a5021137428498703d396f0d2a60ee39aec30371ab87d05cf4be012102273528a04b5aab69c45c53a15586b4e62fa99e3b7976df09dd573fc3ef8199e9feffffff7c9908a156d441dda7864b09c8369292477e12c16fb46d67e2b6fc96187be581020000006b483045022100dc7654205013bbc1a4ab15f0b54f438c889a28a7ab5608918858754e9c48f67e022073cced6937e83b0b7bcd01d8fae8cfa2f61570b3a0af6c489fc68321a50a2fbd012102273528a04b5aab69c45c53a15586b4e62fa99e3b7976df09dd573fc3ef8199e9feffffff7ec55d8f619440b95e0efa2b78d713a1e8683e8327893ea742090752fcaf593d010000006b483045022100d91bb1c8f6aa18387bda446d897b472be36748e24b35e1a819c490b6a8225147022014f62a8ffe80ede4c57f47c8d412584367b4b47adc7e676f92fbafdf963ab0fe012102273528a04b5aab69c45c53a15586b4e62fa99e3b7976df09dd573fc3ef8199e9feffffff7f75d2a4b5744b99d95df89de4f893ae2f6285c8adc5e253af86adf5766c37e1020000006a47304402200dbf11ebf75e87e5683f2203dcc69ba580f9615fa2b8bd73d2b52f93f95063ae022033a7e2bef0db87acff4ff8451a8706048f14cc49cd34bad0801943e4fbc8f6e4012102273528a04b5aab69c45c53a15586b4e62fa99e3b7976df09dd573fc3ef8199e9feffffff8aa3a9ab1b8227d1c0fc4a9834f90593a9621e9ba57282dc4f26a948e8a646a3020000006b483045022100f771733d5ac941e32777f7de06e01f7fc9479d32c34c67721493a9763298206d02204e9830c7592043e369882d4b1c97e1d461ff30c56a33a4c5470b3f0b1721e4f0012102273528a04b5aab69c45c53a15586b4e62fa99e3b7976df09dd573fc3ef8199e9feffffff9407176a8f8300db9b96a0b8595e9840e09972a02f537e5d5c8869354ad8c118020000006b483045022100f6524a3ad88880e8597b4e32e185a2163dc7c6d3087b9460fded0f57d7d48f43022049389f15d04c01268bf14e15f6bcf633a21ed19da6d0ef84a00296546250cddc012102273528a04b5aab69c45c53a15586b4e62fa99e3b7976df09dd573fc3ef8199e9feffffff9e0aebd20834bba9a85c3dd9de69831486e1e817f95c1179d9891fef81b5055e010000006a4730440220092368ed0c87fbbab54f61563f89555f890b5ec833fb758422f50ee41e36c19d022029ee91352d068b17882a40802eb43730f9ec94d7e15d08d832c30ff25aa022f6012102273528a04b5aab69c45c53a15586b4e62fa99e3b7976df09dd573fc3ef8199e9feffffffa68a8c53708bc1504a9c1843cebeb0bf4952d1c88c8947b04c9343117d179592020000006a473044022012326452d3d15c2dfa5e1475dc37903dca608a9bd7a57cfed79977877aa49c1b02200bd15d67c390748c0770fde13268fcee148e8bddec1740f03855a7bba172979f012102273528a04b5aab69c45c53a15586b4e62fa99e3b7976df09dd573fc3ef8199e9feffffffa756e23f2f8b28360343f9d57ef465a095424dad2a9ffbd654942d8cfd91d75e020000006b483045022100c083626e89acb407d06d91050c19fa2ec75ea3405853dd504a7baba9afe1cce902207701e90dcc1c7f8843880c8d129b21728ccc2568a40b3d44e60dec3935e93c37012102273528a04b5aab69c45c53a15586b4e62fa99e3b7976df09dd573fc3ef8199e9feffffffab0305e31e6cae596ce65cfe63c8b8ca31fad7324a3d6386e182710343ed1c7b020000006b483045022100de35044b68a200bed8f0d27cd94c09eb6aa6d9ed25889cda78bbee933f97828b0220273e5e760899d4319d1a28d10bb7e54194e89dacd61fe1afc57c9ca6fcd8f948012102273528a04b5aab69c45c53a15586b4e62fa99e3b7976df09dd573fc3ef8199e9feffffffb7bc50aab0f28a281101aa4a2f51d86e507631465aad3a79d85dc5c3a20dd5e1010000006b483045022100b3cc4d874771c1a201f2c53cbd9ea4056bce89ca4f3cbe3a8405d0ece925bf32022016885a6bc3126f369d31302f9bea0dd999360e5b1b91314b28da7b44f87150e8012102273528a04b5aab69c45c53a15586b4e62fa99e3b7976df09dd573fc3ef8199e9feffffffc1e71f889085620ef9d647195eb7641b370752fff61b20eab4696da0934972c4020000006b483045022100bab9eeef8feea1b7d3e70cabd3d25e5724cd91ea3fb771fced2e49109d51afac022027ff7c426c872375270eecfca64a8d37515a676071ad1063b7c3b4f7d56ae07e012102273528a04b5aab69c45c53a15586b4e62fa99e3b7976df09dd573fc3ef8199e9feffffffce6cbf78087dd240df9d68da68d086823430e1f5f2c094396abd7a544b6c1bf6000000006a473044022076aa4ef5267b155224305823a24515e46efa31118be87301e7e4f1cc63cb264e022033968c2eb421a6d7bae6790dcb5f7f31361ac8cf7a19640544d9ae382831267a012102273528a04b5aab69c45c53a15586b4e62fa99e3b7976df09dd573fc3ef8199e9feffffffb492b158a78c10bb9cfeca4fae63d7bf4830d209b1e0804c4229fe6283c0d873010000006a47304402205ec9e3195cfbb1a7cbac6c0e25b571abf485eb6e25abadeea9f6092df0821cb2022008d6492b7c8f0be0b29af6f9145b2824a0b0edb2775a3e84d98a0d0ddfc2c2a0012102273528a04b5aab69c45c53a15586b4e62fa99e3b7976df09dd573fc3ef8199e9feffffff030000000000000000166a146f6d6e69000000000000001f000000174ca30580c3954b00000000001976a9143a4219672ba6aa415ff26aff75e2f3ca54767e6c88ac22020000000000001976a914a25dec4d0011064ef106a983c39c7a540699f22088ac0e490800", "vin": [{"sequence": 4294967294, "scriptSig": {"hex": "483045022100fcf9cdfff303a3d0c1703180e604584adba9cad73a0f93ccfd8f200bad889c5b022024452fefd1936e4d36cc406c8121b1357d676a6eb7004863520711fe95fed540012102273528a04b5aab69c45c53a15586b4e62fa99e3b7976df09dd573fc3ef8199e9", "asm": "3045022100fcf9cdfff303a3d0c1703180e604584adba9cad73a0f93ccfd8f200bad889c5b022024452fefd1936e4d36cc406c8121b1357d676a6eb7004863520711fe95fed540[ALL] 02273528a04b5aab69c45c53a15586b4e62fa99e3b7976df09dd573fc3ef8199e9"}, "vout": 2, "txid": "efa397dfb1e98671de37bc0f1e685381f85ec62c06429920409a58b0a0de5a09"}, {"sequence": 4294967294, "scriptSig": {"hex": "483045022100ea2e750a00375a50f8acba8d0aa45d8c057432ac9b537f7b19f515b4fdc7958b02207eb47ee3a72c81574ef3f91a79d4467d84b104de2da328249924f7316042a559012102273528a04b5aab69c45c53a15586b4e62fa99e3b7976df09dd573fc3ef8199e9", "asm": "3045022100ea2e750a00375a50f8acba8d0aa45d8c057432ac9b537f7b19f515b4fdc7958b02207eb47ee3a72c81574ef3f91a79d4467d84b104de2da328249924f7316042a559[ALL] 02273528a04b5aab69c45c53a15586b4e62fa99e3b7976df09dd573fc3ef8199e9"}, "vout": 2, "txid": "72dad010fdf75342b3146b7dfc230e4ff624ecfb6ff2b9dc3571c19618943c47"}, {"sequence": 4294967294, "scriptSig": {"hex": "483045022100aad80248b73e6af6bcfc7b5b49422835d429dc0ac823d3d905e54afa81132e7802203e511af3779593e6523be7d8be2d9edf392cf5898bf896cd483f491e0ffb1366012102273528a04b5aab69c45c53a15586b4e62fa99e3b7976df09dd573fc3ef8199e9", "asm": "3045022100aad80248b73e6af6bcfc7b5b49422835d429dc0ac823d3d905e54afa81132e7802203e511af3779593e6523be7d8be2d9edf392cf5898bf896cd483f491e0ffb1366[ALL] 02273528a04b5aab69c45c53a15586b4e62fa99e3b7976df09dd573fc3ef8199e9"}, "vout": 2, "txid": "808859108bd5fa8c80a14ab42b3cec31c3e5bfdbe7c2e042a911f3e965359254"}, {"sequence": 4294967294, "scriptSig": {"hex": "473044022003d6050cc61c90d9598ad1c3e6f4cbf62bdf1b6e4ca90559a811adbd6d67f240022071eaa810c19cb621e2234cba6f276505529f7442308ef057845011d2bb294147012102273528a04b5aab69c45c53a15586b4e62fa99e3b7976df09dd573fc3ef8199e9", "asm": "3044022003d6050cc61c90d9598ad1c3e6f4cbf62bdf1b6e4ca90559a811adbd6d67f240022071eaa810c19cb621e2234cba6f276505529f7442308ef057845011d2bb294147[ALL] 02273528a04b5aab69c45c53a15586b4e62fa99e3b7976df09dd573fc3ef8199e9"}, "vout": 1, "txid": "ea8779274482e7471f500b43fe7a1f5078da1f5a2ffa00eabdf9e622fa2d3d5b"}, {"sequence": 4294967294, "scriptSig": {"hex": "483045022100d3950ce684fda2b4d40154021efa2d246a232ba954ac43723448210bbf7960e002205c5f34262c55f0b7c70d3af610473eafc55115830fc7020285504a9f0903c282012102273528a04b5aab69c45c53a15586b4e62fa99e3b7976df09dd573fc3ef8199e9", "asm": "3045022100d3950ce684fda2b4d40154021efa2d246a232ba954ac43723448210bbf7960e002205c5f34262c55f0b7c70d3af610473eafc55115830fc7020285504a9f0903c282[ALL] 02273528a04b5aab69c45c53a15586b4e62fa99e3b7976df09dd573fc3ef8199e9"}, "vout": 2, "txid": "8bf7bda13566151fd8a167e6858f4f67fbf6c2102cfc465e97165b7fa1761773"}, {"sequence": 4294967294, "scriptSig": {"hex": "473044022076733644d3383b06830fcaee27b10f054704d4f9c94fb4813cb75e7db2e6ca5402207fad2dfa6e12a5021137428498703d396f0d2a60ee39aec30371ab87d05cf4be012102273528a04b5aab69c45c53a15586b4e62fa99e3b7976df09dd573fc3ef8199e9", "asm": "3044022076733644d3383b06830fcaee27b10f054704d4f9c94fb4813cb75e7db2e6ca5402207fad2dfa6e12a5021137428498703d396f0d2a60ee39aec30371ab87d05cf4be[ALL] 02273528a04b5aab69c45c53a15586b4e62fa99e3b7976df09dd573fc3ef8199e9"}, "vout": 2, "txid": "0a33d1d29587818ec87fcd3f743452db5d533c3367d7bd848ab3879f577adb75"}, {"sequence": 4294967294, "scriptSig": {"hex": "483045022100dc7654205013bbc1a4ab15f0b54f438c889a28a7ab5608918858754e9c48f67e022073cced6937e83b0b7bcd01d8fae8cfa2f61570b3a0af6c489fc68321a50a2fbd012102273528a04b5aab69c45c53a15586b4e62fa99e3b7976df09dd573fc3ef8199e9", "asm": "3045022100dc7654205013bbc1a4ab15f0b54f438c889a28a7ab5608918858754e9c48f67e022073cced6937e83b0b7bcd01d8fae8cfa2f61570b3a0af6c489fc68321a50a2fbd[ALL] 02273528a04b5aab69c45c53a15586b4e62fa99e3b7976df09dd573fc3ef8199e9"}, "vout": 2, "txid": "81e57b1896fcb6e2676db46fc1127e47929236c8094b86a7dd41d456a108997c"}, {"sequence": 4294967294, "scriptSig": {"hex": "483045022100d91bb1c8f6aa18387bda446d897b472be36748e24b35e1a819c490b6a8225147022014f62a8ffe80ede4c57f47c8d412584367b4b47adc7e676f92fbafdf963ab0fe012102273528a04b5aab69c45c53a15586b4e62fa99e3b7976df09dd573fc3ef8199e9", "asm": "3045022100d91bb1c8f6aa18387bda446d897b472be36748e24b35e1a819c490b6a8225147022014f62a8ffe80ede4c57f47c8d412584367b4b47adc7e676f92fbafdf963ab0fe[ALL] 02273528a04b5aab69c45c53a15586b4e62fa99e3b7976df09dd573fc3ef8199e9"}, "vout": 1, "txid": "3d59affc52070942a73e8927833e68e8a113d7782bfa0e5eb94094618f5dc57e"}, {"sequence": 4294967294, "scriptSig": {"hex": "47304402200dbf11ebf75e87e5683f2203dcc69ba580f9615fa2b8bd73d2b52f93f95063ae022033a7e2bef0db87acff4ff8451a8706048f14cc49cd34bad0801943e4fbc8f6e4012102273528a04b5aab69c45c53a15586b4e62fa99e3b7976df09dd573fc3ef8199e9", "asm": "304402200dbf11ebf75e87e5683f2203dcc69ba580f9615fa2b8bd73d2b52f93f95063ae022033a7e2bef0db87acff4ff8451a8706048f14cc49cd34bad0801943e4fbc8f6e4[ALL] 02273528a04b5aab69c45c53a15586b4e62fa99e3b7976df09dd573fc3ef8199e9"}, "vout": 2, "txid": "e1376c76f5ad86af53e2c5adc885622fae93f8e49df85dd9994b74b5a4d2757f"}, {"sequence": 4294967294, "scriptSig": {"hex": "483045022100f771733d5ac941e32777f7de06e01f7fc9479d32c34c67721493a9763298206d02204e9830c7592043e369882d4b1c97e1d461ff30c56a33a4c5470b3f0b1721e4f0012102273528a04b5aab69c45c53a15586b4e62fa99e3b7976df09dd573fc3ef8199e9", "asm": "3045022100f771733d5ac941e32777f7de06e01f7fc9479d32c34c67721493a9763298206d02204e9830c7592043e369882d4b1c97e1d461ff30c56a33a4c5470b3f0b1721e4f0[ALL] 02273528a04b5aab69c45c53a15586b4e62fa99e3b7976df09dd573fc3ef8199e9"}, "vout": 2, "txid": "a346a6e848a9264fdc8272a59b1e62a99305f934984afcc0d127821baba9a38a"}, {"sequence": 4294967294, "scriptSig": {"hex": "483045022100f6524a3ad88880e8597b4e32e185a2163dc7c6d3087b9460fded0f57d7d48f43022049389f15d04c01268bf14e15f6bcf633a21ed19da6d0ef84a00296546250cddc012102273528a04b5aab69c45c53a15586b4e62fa99e3b7976df09dd573fc3ef8199e9", "asm": "3045022100f6524a3ad88880e8597b4e32e185a2163dc7c6d3087b9460fded0f57d7d48f43022049389f15d04c01268bf14e15f6bcf633a21ed19da6d0ef84a00296546250cddc[ALL] 02273528a04b5aab69c45c53a15586b4e62fa99e3b7976df09dd573fc3ef8199e9"}, "vout": 2, "txid": "18c1d84a3569885c5d7e532fa07299e040985e59b8a0969bdb00838f6a170794"}, {"sequence": 4294967294, "scriptSig": {"hex": "4730440220092368ed0c87fbbab54f61563f89555f890b5ec833fb758422f50ee41e36c19d022029ee91352d068b17882a40802eb43730f9ec94d7e15d08d832c30ff25aa022f6012102273528a04b5aab69c45c53a15586b4e62fa99e3b7976df09dd573fc3ef8199e9", "asm": "30440220092368ed0c87fbbab54f61563f89555f890b5ec833fb758422f50ee41e36c19d022029ee91352d068b17882a40802eb43730f9ec94d7e15d08d832c30ff25aa022f6[ALL] 02273528a04b5aab69c45c53a15586b4e62fa99e3b7976df09dd573fc3ef8199e9"}, "vout": 1, "txid": "5e05b581ef1f89d979115cf917e8e186148369ded93d5ca8a9bb3408d2eb0a9e"}, {"sequence": 4294967294, "scriptSig": {"hex": "473044022012326452d3d15c2dfa5e1475dc37903dca608a9bd7a57cfed79977877aa49c1b02200bd15d67c390748c0770fde13268fcee148e8bddec1740f03855a7bba172979f012102273528a04b5aab69c45c53a15586b4e62fa99e3b7976df09dd573fc3ef8199e9", "asm": "3044022012326452d3d15c2dfa5e1475dc37903dca608a9bd7a57cfed79977877aa49c1b02200bd15d67c390748c0770fde13268fcee148e8bddec1740f03855a7bba172979f[ALL] 02273528a04b5aab69c45c53a15586b4e62fa99e3b7976df09dd573fc3ef8199e9"}, "vout": 2, "txid": "9295177d1143934cb047898cc8d15249bfb0bece43189c4a50c18b70538c8aa6"}, {"sequence": 4294967294, "scriptSig": {"hex": "483045022100c083626e89acb407d06d91050c19fa2ec75ea3405853dd504a7baba9afe1cce902207701e90dcc1c7f8843880c8d129b21728ccc2568a40b3d44e60dec3935e93c37012102273528a04b5aab69c45c53a15586b4e62fa99e3b7976df09dd573fc3ef8199e9", "asm": "3045022100c083626e89acb407d06d91050c19fa2ec75ea3405853dd504a7baba9afe1cce902207701e90dcc1c7f8843880c8d129b21728ccc2568a40b3d44e60dec3935e93c37[ALL] 02273528a04b5aab69c45c53a15586b4e62fa99e3b7976df09dd573fc3ef8199e9"}, "vout": 2, "txid": "5ed791fd8c2d9454d6fb9f2aad4d4295a065f47ed5f9430336288b2f3fe256a7"}, {"sequence": 4294967294, "scriptSig": {"hex": "483045022100de35044b68a200bed8f0d27cd94c09eb6aa6d9ed25889cda78bbee933f97828b0220273e5e760899d4319d1a28d10bb7e54194e89dacd61fe1afc57c9ca6fcd8f948012102273528a04b5aab69c45c53a15586b4e62fa99e3b7976df09dd573fc3ef8199e9", "asm": "3045022100de35044b68a200bed8f0d27cd94c09eb6aa6d9ed25889cda78bbee933f97828b0220273e5e760899d4319d1a28d10bb7e54194e89dacd61fe1afc57c9ca6fcd8f948[ALL] 02273528a04b5aab69c45c53a15586b4e62fa99e3b7976df09dd573fc3ef8199e9"}, "vout": 2, "txid": "7b1ced43037182e186633d4a32d7fa31cab8c863fe5ce66c59ae6c1ee30503ab"}, {"sequence": 4294967294, "scriptSig": {"hex": "483045022100b3cc4d874771c1a201f2c53cbd9ea4056bce89ca4f3cbe3a8405d0ece925bf32022016885a6bc3126f369d31302f9bea0dd999360e5b1b91314b28da7b44f87150e8012102273528a04b5aab69c45c53a15586b4e62fa99e3b7976df09dd573fc3ef8199e9", "asm": "3045022100b3cc4d874771c1a201f2c53cbd9ea4056bce89ca4f3cbe3a8405d0ece925bf32022016885a6bc3126f369d31302f9bea0dd999360e5b1b91314b28da7b44f87150e8[ALL] 02273528a04b5aab69c45c53a15586b4e62fa99e3b7976df09dd573fc3ef8199e9"}, "vout": 1, "txid": "e1d50da2c3c55dd8793aad5a463176506ed8512f4aaa0111288af2b0aa50bcb7"}, {"sequence": 4294967294, "scriptSig": {"hex": "483045022100bab9eeef8feea1b7d3e70cabd3d25e5724cd91ea3fb771fced2e49109d51afac022027ff7c426c872375270eecfca64a8d37515a676071ad1063b7c3b4f7d56ae07e012102273528a04b5aab69c45c53a15586b4e62fa99e3b7976df09dd573fc3ef8199e9", "asm": "3045022100bab9eeef8feea1b7d3e70cabd3d25e5724cd91ea3fb771fced2e49109d51afac022027ff7c426c872375270eecfca64a8d37515a676071ad1063b7c3b4f7d56ae07e[ALL] 02273528a04b5aab69c45c53a15586b4e62fa99e3b7976df09dd573fc3ef8199e9"}, "vout": 2, "txid": "c4724993a06d69b4ea201bf6ff5207371b64b75e1947d6f90e628590881fe7c1"}, {"sequence": 4294967294, "scriptSig": {"hex": "473044022076aa4ef5267b155224305823a24515e46efa31118be87301e7e4f1cc63cb264e022033968c2eb421a6d7bae6790dcb5f7f31361ac8cf7a19640544d9ae382831267a012102273528a04b5aab69c45c53a15586b4e62fa99e3b7976df09dd573fc3ef8199e9", "asm": "3044022076aa4ef5267b155224305823a24515e46efa31118be87301e7e4f1cc63cb264e022033968c2eb421a6d7bae6790dcb5f7f31361ac8cf7a19640544d9ae382831267a[ALL] 02273528a04b5aab69c45c53a15586b4e62fa99e3b7976df09dd573fc3ef8199e9"}, "vout": 0, "txid": "f61b6c4b547abd6a3994c0f2f5e130348286d068da689ddf40d27d0878bf6cce"}, {"sequence": 4294967294, "scriptSig": {"hex": "47304402205ec9e3195cfbb1a7cbac6c0e25b571abf485eb6e25abadeea9f6092df0821cb2022008d6492b7c8f0be0b29af6f9145b2824a0b0edb2775a3e84d98a0d0ddfc2c2a0012102273528a04b5aab69c45c53a15586b4e62fa99e3b7976df09dd573fc3ef8199e9", "asm": "304402205ec9e3195cfbb1a7cbac6c0e25b571abf485eb6e25abadeea9f6092df0821cb2022008d6492b7c8f0be0b29af6f9145b2824a0b0edb2775a3e84d98a0d0ddfc2c2a0[ALL] 02273528a04b5aab69c45c53a15586b4e62fa99e3b7976df09dd573fc3ef8199e9"}, "vout": 1, "txid": "73d8c08362fe29424c80e0b109d23048bfd763ae4fcafe9cbb108ca758b192b4"}], "txid": "7fd349ebd41cfaca323ebad366560481b20854eeeb99d823501b468913bdc8da", "blocktime": 1537870928, "version": 1, "confirmations": 11514, "time": 1537870928, "locktime": 542990, "vsize": 2914, "size": 2914}