{"hash": "2219cc5c7a483910df029dc30fafa725a8b15375810cf759697778e5b4ab795e", "blockhash": "0000000000000000001f76057863aec43deb6fa401d9628bb513d65a8098bfab", "vout": [{"scriptPubKey": {"reqSigs": 1, "hex": "76a9147ffb2b6b4c31ca6bef1e8fde0c261026f1c1935588ac", "addresses": ["1Cfhhw6NzFXrWexD4HdiSWAwMgayGxJk9V"], "asm": "OP_DUP OP_HASH160 7ffb2b6b4c31ca6bef1e8fde0c261026f1c19355 OP_EQUALVERIFY OP_CHECKSIG", "type": "pubkeyhash"}, "value": 0.02660446, "n": 0}, {"scriptPubKey": {"reqSigs": 1, "hex": "a914323f9b9a9985d4bf28f8a74e8af2b0763623d96e87", "addresses": ["36GhugfLcSgt6hKkKeoT7GV7vmEhZbeDkz"], "asm": "OP_HASH160 323f9b9a9985d4bf28f8a74e8af2b0763623d96e OP_EQUAL", "type": "scripthash"}, "value": 0.01178986, "n": 1}], "hex": "0200000000010157160a81ab7730c5bb36ac311f256a306cd0042ff234d046528b1cd257a6e2420100000017160014a282e4088fe82a295ea2bb68138908fa0e870115feffffff025e982800000000001976a9147ffb2b6b4c31ca6bef1e8fde0c261026f1c1935588ac6afd11000000000017a914323f9b9a9985d4bf28f8a74e8af2b0763623d96e870247304402200c11501d390892fdeae84377fca27c62efbf74d89fe136501762cc1857b1dc7d02201e11442aa214c8ef1100eece2a650640793e803d3c9f3243407a04f52d4f69220121034e23e35d40b48f25a687cd5f99312157a93ca18d18c5b0dc07c1bd9cfe1d2bfa14490800", "vin": [{"txinwitness": ["304402200c11501d390892fdeae84377fca27c62efbf74d89fe136501762cc1857b1dc7d02201e11442aa214c8ef1100eece2a650640793e803d3c9f3243407a04f52d4f692201", "034e23e35d40b48f25a687cd5f99312157a93ca18d18c5b0dc07c1bd9cfe1d2bfa"], "sequence": 4294967294, "scriptSig": {"hex": "160014a282e4088fe82a295ea2bb68138908fa0e870115", "asm": "0014a282e4088fe82a295ea2bb68138908fa0e870115"}, "vout": 1, "txid": "42e2a657d21c8b5246d034f22f04d06c306a251f31ac36bbc53077ab810a1657"}], "txid": "7fd7bd7eaf646e8ef408822f27348b5aa37994f34facbb2ace72becb23dc85d9", "blocktime": 1537873891, "version": 2, "confirmations": 11475, "time": 1537873891, "locktime": 542996, "vsize": 168, "size": 249}