{"hash": "15fe26671c346b99df166ecfe0c9cb6173eeda70abd22a5d91061bcfe8fd181c", "blockhash": "0000000000000000000e13cef7c366c0283d82e591d1acd082e914b08063cdf1", "vout": [{"scriptPubKey": {"reqSigs": 1, "hex": "0014a22c508d74d6a44d0f8cbc22c4232b2848d9289d", "addresses": ["bc1q5gk9prt566jy6ruvhs3vgget9pydj2yaf3ueqh"], "asm": "0 a22c508d74d6a44d0f8cbc22c4232b2848d9289d", "type": "witness_v0_keyhash"}, "value": 1.125e-05, "n": 0}, {"scriptPubKey": {"reqSigs": 1, "hex": "a91473fda8d566eda3babff7e964001cf8b6576e7f1987", "addresses": ["3CGKWB9Py6DDiADuSq9MAyxAsqJY7dLEhe"], "asm": "OP_HASH160 73fda8d566eda3babff7e964001cf8b6576e7f19 OP_EQUAL", "type": "scripthash"}, "value": 0.00240001, "n": 1}], "hex": "01000000000101f92929510ffb8fcead7dfd2800136cdbde60fb222326ae11646587b6c5ed26ce0100000000ffffffff026504000000000000160014a22c508d74d6a44d0f8cbc22c4232b2848d9289d81a903000000000017a91473fda8d566eda3babff7e964001cf8b6576e7f198702473044022059fdbbf161dc651e47cafb5bfde13421ee08dc67dd0f1238bd5e3ca30c70416c02206f56731fc7147a80a50be2a56a4a99a0346544567a152ffde2cc65e5b1f8664d01210351cef373a9a80ab1b2dfc2b830e4af8190cc4f00eaad4e3c9985c227643f284200000000", "vin": [{"txinwitness": ["3044022059fdbbf161dc651e47cafb5bfde13421ee08dc67dd0f1238bd5e3ca30c70416c02206f56731fc7147a80a50be2a56a4a99a0346544567a152ffde2cc65e5b1f8664d01", "0351cef373a9a80ab1b2dfc2b830e4af8190cc4f00eaad4e3c9985c227643f2842"], "sequence": 4294967295, "scriptSig": {"hex": "", "asm": ""}, "vout": 1, "txid": "ce26edc5b687656411ae262322fb60dedb6c130028fd7dadce8ffb0f512929f9"}], "txid": "7fdc68e25b6b5de8531a4a887f35d34f979c41bb1adcc2ca36e8e3da545a2f35", "blocktime": 1537871767, "version": 1, "confirmations": 11495, "time": 1537871767, "locktime": 0, "vsize": 142, "size": 223}