{"hash": "41e6f51a2498756cb4bd9ebd360fa98c4b62b24021beca78175e12404eba809c", "blockhash": "0000000000000000000e13cef7c366c0283d82e591d1acd082e914b08063cdf1", "vout": [{"scriptPubKey": {"reqSigs": 1, "hex": "a914bfce64b3aaee024cdcff5847bc19e64123608aa987", "addresses": ["3KBCEeQyVpz6pDaV2gvATPTc15juyFGC3x"], "asm": "OP_HASH160 bfce64b3aaee024cdcff5847bc19e64123608aa9 OP_EQUAL", "type": "scripthash"}, "value": 0.0027, "n": 0}, {"scriptPubKey": {"reqSigs": 1, "hex": "a91461aba4b1b7166ba1d90377b20142880fa6266f6287", "addresses": ["3AbT693FTUifzwrL8cnuesip6t4NHQEsSc"], "asm": "OP_HASH160 61aba4b1b7166ba1d90377b20142880fa6266f62 OP_EQUAL", "type": "scripthash"}, "value": 0.00901, "n": 1}, {"scriptPubKey": {"reqSigs": 1, "hex": "a91481373e405712b46677cb33e33db61dd0ef1e40fc87", "addresses": ["3DUFGeoVdHer7h3XRg6H5otHMRBtzGo2NN"], "asm": "OP_HASH160 81373e405712b46677cb33e33db61dd0ef1e40fc OP_EQUAL", "type": "scripthash"}, "value": 0.75685765, "n": 2}, {"scriptPubKey": {"reqSigs": 1, "hex": "a914935d16cf805fc682589e0fe1cb949b84176bcea487", "addresses": ["3F8CmgooSsAQBvydGwvr9RCLnA14h9bD7D"], "asm": "OP_HASH160 935d16cf805fc682589e0fe1cb949b84176bcea4 OP_EQUAL", "type": "scripthash"}, "value": 0.02, "n": 3}], "hex": "02000000000102f133e8a142054a4f03f1b7400c779fdb092eb33d07fb3ca7a90898afde481c4e0000000023220020499168197284e09d0966e9f4a914783b3ad3a0ccca6e48fb0500b4b1bdd05ca6ffffffffb00284af75288e8a3b2ba84ba63c4cb202cdc930fbe63e71de3234976bd368fa01000000fc0047304402204cffcbd9b51a615981db71882905447fb2c320da8b5323647f8f5cc876580e620220572167679400a3f3707aa8df5a6656f6d8c1d4f193dbd8ed2ade08abe40f6f1a014730440220165c7eb888632f53077126f61de0ef1b096a5490309d17cd2249fb0c1a247c0d02205d3b727a97c9585c5c5d30de861270b67f4dbf2c0078e2c0b262ac3db6fcf213014c69522102416ac16351b6da05496b5937b2f344594984ed8de44ba8e421cdc1e04d22aa87210344e237698250fd33d16c12f1a6c18ac05f8e3a4324999b1dac6585e12bac3d4d2103ae20d47e376955bf3cf71d6ce92901a2e8aba9bf2bf1f82b2d8ca9aa199b4ad453aeffffffff04b01e04000000000017a914bfce64b3aaee024cdcff5847bc19e64123608aa98788bf0d000000000017a91461aba4b1b7166ba1d90377b20142880fa6266f628785df82040000000017a91481373e405712b46677cb33e33db61dd0ef1e40fc8780841e000000000017a914935d16cf805fc682589e0fe1cb949b84176bcea487040047304402204544bf3c21df45e30796070fd9d29968a2d89879eef384c8b6e2c8c28319024302207f9c8c44221f9f22d7158f894dc3f4e90ce0641db143be8790f2edfd719abfde0147304402203d942458412f2e115e88288ec9994303eaa8224e413feca19d95c29768a7bf38022054ad7364df9e2a8ec6b096c5799950417237bba23eb06c1d6a43512501bc743e0169522103110186f95e01bef9e6f0e4a5d302118cfade77a19c8400b6f1a6258260944f1a2103b8508c0564f60b16066c903bf59a05f441f3f27127f3b01f379c3c4c95e6bdde21022efe24179dcbf68db944684fc328226e1f7d12c0085258b76b9bdd2d4a3f33ea53ae0000000000", "vin": [{"txinwitness": ["", "304402204544bf3c21df45e30796070fd9d29968a2d89879eef384c8b6e2c8c28319024302207f9c8c44221f9f22d7158f894dc3f4e90ce0641db143be8790f2edfd719abfde01", "304402203d942458412f2e115e88288ec9994303eaa8224e413feca19d95c29768a7bf38022054ad7364df9e2a8ec6b096c5799950417237bba23eb06c1d6a43512501bc743e01", "522103110186f95e01bef9e6f0e4a5d302118cfade77a19c8400b6f1a6258260944f1a2103b8508c0564f60b16066c903bf59a05f441f3f27127f3b01f379c3c4c95e6bdde21022efe24179dcbf68db944684fc328226e1f7d12c0085258b76b9bdd2d4a3f33ea53ae"], "sequence": 4294967295, "scriptSig": {"hex": "220020499168197284e09d0966e9f4a914783b3ad3a0ccca6e48fb0500b4b1bdd05ca6", "asm": "0020499168197284e09d0966e9f4a914783b3ad3a0ccca6e48fb0500b4b1bdd05ca6"}, "vout": 0, "txid": "4e1c48deaf9808a9a73cfb073db32e09db9f770c40b7f1034f4a0542a1e833f1"}, {"sequence": 4294967295, "scriptSig": {"hex": "0047304402204cffcbd9b51a615981db71882905447fb2c320da8b5323647f8f5cc876580e620220572167679400a3f3707aa8df5a6656f6d8c1d4f193dbd8ed2ade08abe40f6f1a014730440220165c7eb888632f53077126f61de0ef1b096a5490309d17cd2249fb0c1a247c0d02205d3b727a97c9585c5c5d30de861270b67f4dbf2c0078e2c0b262ac3db6fcf213014c69522102416ac16351b6da05496b5937b2f344594984ed8de44ba8e421cdc1e04d22aa87210344e237698250fd33d16c12f1a6c18ac05f8e3a4324999b1dac6585e12bac3d4d2103ae20d47e376955bf3cf71d6ce92901a2e8aba9bf2bf1f82b2d8ca9aa199b4ad453ae", "asm": "0 304402204cffcbd9b51a615981db71882905447fb2c320da8b5323647f8f5cc876580e620220572167679400a3f3707aa8df5a6656f6d8c1d4f193dbd8ed2ade08abe40f6f1a[ALL] 30440220165c7eb888632f53077126f61de0ef1b096a5490309d17cd2249fb0c1a247c0d02205d3b727a97c9585c5c5d30de861270b67f4dbf2c0078e2c0b262ac3db6fcf213[ALL] 522102416ac16351b6da05496b5937b2f344594984ed8de44ba8e421cdc1e04d22aa87210344e237698250fd33d16c12f1a6c18ac05f8e3a4324999b1dac6585e12bac3d4d2103ae20d47e376955bf3cf71d6ce92901a2e8aba9bf2bf1f82b2d8ca9aa199b4ad453ae"}, "vout": 1, "txid": "fa68d36b973432de713ee6fb30c9cd02b24c3ca64ba82b3b8a8e2875af8402b0"}], "txid": "7fe97893fa06436fe1176eee82fb2dfec05989f8bda02824e15f3f6d5d9eda1e", "blocktime": 1537871767, "version": 2, "confirmations": 11493, "time": 1537871767, "locktime": 0, "vsize": 571, "size": 762}