{"hash": "7fea62f5d02cdb768bc4008f01973ec16162579792735f3c121afd6262483c5b", "blockhash": "0000000000000000001f76057863aec43deb6fa401d9628bb513d65a8098bfab", "vout": [{"scriptPubKey": {"reqSigs": 1, "hex": "a91450f93a3bd35f0d503c3a39883a566b3cf014670f87", "addresses": ["395AYX3MLE4UyNQXfcVzRsjCUmMphwTFuq"], "asm": "OP_HASH160 50f93a3bd35f0d503c3a39883a566b3cf014670f OP_EQUAL", "type": "scripthash"}, "value": 0.029214, "n": 0}, {"scriptPubKey": {"reqSigs": 1, "hex": "76a914b953de78060c55ce641269cb63f0b327b6af23d188ac", "addresses": ["1HtvUozayHaYke1dEQn4FfQQ3cp8omehB7"], "asm": "OP_DUP OP_HASH160 b953de78060c55ce641269cb63f0b327b6af23d1 OP_EQUALVERIFY OP_CHECKSIG", "type": "pubkeyhash"}, "value": 0.05013693, "n": 1}], "hex": "010000000110384295cb900dbc51a3f404274948bfbed58d6ef1a461119d972204cfb0efb3000000006b483045022100eba76c994c1d2409f0f7ed1f889fbd0c9171f1b53c0ff0ee7da01a6d163371350220103ec7f5a5f910db7100f4b59edf4bcbe55b10daaf127f8054c5f128e449b22e0121038b3677ab777b41f196ee170f8ab6f9ed6947ed876705b0462ff6b8a37caa6befffffffff02b8932c000000000017a91450f93a3bd35f0d503c3a39883a566b3cf014670f87bd804c00000000001976a914b953de78060c55ce641269cb63f0b327b6af23d188ac00000000", "vin": [{"sequence": 4294967295, "scriptSig": {"hex": "483045022100eba76c994c1d2409f0f7ed1f889fbd0c9171f1b53c0ff0ee7da01a6d163371350220103ec7f5a5f910db7100f4b59edf4bcbe55b10daaf127f8054c5f128e449b22e0121038b3677ab777b41f196ee170f8ab6f9ed6947ed876705b0462ff6b8a37caa6bef", "asm": "3045022100eba76c994c1d2409f0f7ed1f889fbd0c9171f1b53c0ff0ee7da01a6d163371350220103ec7f5a5f910db7100f4b59edf4bcbe55b10daaf127f8054c5f128e449b22e[ALL] 038b3677ab777b41f196ee170f8ab6f9ed6947ed876705b0462ff6b8a37caa6bef"}, "vout": 0, "txid": "b3efb0cf0422979d1161a4f16e8dd5bebf48492704f4a351bc0d90cb95423810"}], "txid": "7fea62f5d02cdb768bc4008f01973ec16162579792735f3c121afd6262483c5b", "blocktime": 1537873891, "version": 1, "confirmations": 11478, "time": 1537873891, "locktime": 0, "vsize": 224, "size": 224}