{"hash": "7ff5771252133233d67d0b3b567c8d531a95c0d4a3684e5edc1af4e5907657f0", "blockhash": "0000000000000000000baef3f32e3676a92c3b2e5da21b426e4f302fc371ce76", "vout": [{"scriptPubKey": {"type": "nulldata", "hex": "6a4c50000078170001531c8e40a2822957b3f09510019d6ddc0f1b8ff117702940d64fa54d8eb2031b266e538dfbecd6ca0bb3b5322d665baa1c1b0615bbafbaed871fbc9a9526289ac0f6612cd74e33776ee4", "asm": "OP_RETURN 000078170001531c8e40a2822957b3f09510019d6ddc0f1b8ff117702940d64fa54d8eb2031b266e538dfbecd6ca0bb3b5322d665baa1c1b0615bbafbaed871fbc9a9526289ac0f6612cd74e33776ee4"}, "value": 0.0, "n": 0}, {"scriptPubKey": {"reqSigs": 1, "hex": "76a914a32b439ce4be71ae3b3fcd43bd15f7c53a7f7e8988ac", "addresses": ["1FskyK5GGGo6FYxt63UZ6qjt2xRRCK16sy"], "asm": "OP_DUP OP_HASH160 a32b439ce4be71ae3b3fcd43bd15f7c53a7f7e89 OP_EQUALVERIFY OP_CHECKSIG", "type": "pubkeyhash"}, "value": 0.0011728, "n": 1}], "hex": "010000000190b91c6d47172a208968d22193a490690e16f3f13e5c0ef8642f56cee8f73bfc000000006a47304402207d784b64ce08bc5de5dd49b048c8cf955ba022a3e4f2a8e04c819330721c439102200e28757dfa70c73a8de458f0807ab2f8298597d12d872eaf25aa8c3cdb1f89e30121021081ce98ea452298548c87060499e3b75e605840f412fe43025a29f1dd0909e1ffffffff020000000000000000536a4c50000078170001531c8e40a2822957b3f09510019d6ddc0f1b8ff117702940d64fa54d8eb2031b266e538dfbecd6ca0bb3b5322d665baa1c1b0615bbafbaed871fbc9a9526289ac0f6612cd74e33776ee420ca0100000000001976a914a32b439ce4be71ae3b3fcd43bd15f7c53a7f7e8988ac00000000", "vin": [{"sequence": 4294967295, "scriptSig": {"hex": "47304402207d784b64ce08bc5de5dd49b048c8cf955ba022a3e4f2a8e04c819330721c439102200e28757dfa70c73a8de458f0807ab2f8298597d12d872eaf25aa8c3cdb1f89e30121021081ce98ea452298548c87060499e3b75e605840f412fe43025a29f1dd0909e1", "asm": "304402207d784b64ce08bc5de5dd49b048c8cf955ba022a3e4f2a8e04c819330721c439102200e28757dfa70c73a8de458f0807ab2f8298597d12d872eaf25aa8c3cdb1f89e3[ALL] 021081ce98ea452298548c87060499e3b75e605840f412fe43025a29f1dd0909e1"}, "vout": 0, "txid": "fc3bf7e8ce562f64f80e5c3ef1f3160e6990a49321d26889202a17476d1cb990"}], "txid": "7ff5771252133233d67d0b3b567c8d531a95c0d4a3684e5edc1af4e5907657f0", "blocktime": 1537876114, "version": 1, "confirmations": 11460, "time": 1537876114, "locktime": 0, "vsize": 283, "size": 283}