{"hash": "862a91749ecabe870e1d3183e699d431c6736c1c167334827525b00927c25719", "blockhash": "0000000000000000000baef3f32e3676a92c3b2e5da21b426e4f302fc371ce76", "vout": [{"scriptPubKey": {"reqSigs": 1, "hex": "a91463abacc2cf54eb0918aae4787338c99f3bb9f64c87", "addresses": ["3An2UiH4pMcuytGLEaeA47S2xSy4pi9NQj"], "asm": "OP_HASH160 63abacc2cf54eb0918aae4787338c99f3bb9f64c OP_EQUAL", "type": "scripthash"}, "value": 0.00792429, "n": 0}, {"scriptPubKey": {"reqSigs": 1, "hex": "76a914abda9ca74b3d6b993c9383e1f677e84aa9cf928588ac", "addresses": ["1GfgSE7Mab6NRh5tL88rfKeSeEagJnwy3h"], "asm": "OP_DUP OP_HASH160 abda9ca74b3d6b993c9383e1f677e84aa9cf9285 OP_EQUALVERIFY OP_CHECKSIG", "type": "pubkeyhash"}, "value": 0.00263158, "n": 1}, {"scriptPubKey": {"reqSigs": 1, "hex": "a914dd9b5a6d66d5b8b54c2d27cc19fc81796605e2bc87", "addresses": ["3MtmN51vuLD77oHkE75sRfLo1rkRs7cyrn"], "asm": "OP_HASH160 dd9b5a6d66d5b8b54c2d27cc19fc81796605e2bc OP_EQUAL", "type": "scripthash"}, "value": 0.00455, "n": 2}, {"scriptPubKey": {"reqSigs": 1, "hex": "a9144862feece8da4420809fe1dfdfed63539c7cb4eb87", "addresses": ["38HmAhp8wsnecXjMukbg19Vsrc1XT1NnmR"], "asm": "OP_HASH160 4862feece8da4420809fe1dfdfed63539c7cb4eb OP_EQUAL", "type": "scripthash"}, "value": 0.00319, "n": 3}, {"scriptPubKey": {"reqSigs": 1, "hex": "76a9142576819e667cce6c49087e9d3da2359183ca966a88ac", "addresses": ["14R5y4Zby4ovSMosfe1KYSTGdHUDMgQ1y2"], "asm": "OP_DUP OP_HASH160 2576819e667cce6c49087e9d3da2359183ca966a OP_EQUALVERIFY OP_CHECKSIG", "type": "pubkeyhash"}, "value": 0.0038, "n": 4}, {"scriptPubKey": {"reqSigs": 1, "hex": "76a9140522e87c266dd6e6c2af8d61c626762b332fcda988ac", "addresses": ["1UACRLMELM4Y9J67DsMLB5p1PPHRWv4fg"], "asm": "OP_DUP OP_HASH160 0522e87c266dd6e6c2af8d61c626762b332fcda9 OP_EQUALVERIFY OP_CHECKSIG", "type": "pubkeyhash"}, "value": 0.0061929, "n": 5}, {"scriptPubKey": {"reqSigs": 1, "hex": "76a914d4406d3725e72ad43190b3024e06f58a704ce92388ac", "addresses": ["1LMHS7HEdfer1NCpjQZhr7Xq5urKHcoiB8"], "asm": "OP_DUP OP_HASH160 d4406d3725e72ad43190b3024e06f58a704ce923 OP_EQUALVERIFY OP_CHECKSIG", "type": "pubkeyhash"}, "value": 0.002, "n": 6}, {"scriptPubKey": {"reqSigs": 1, "hex": "a9142c4bac5782d761719294cbd7f390b55621d5075b87", "addresses": ["35jEJrKRfXh9AzwMmzDs7WLdvVeZgkGEAV"], "asm": "OP_HASH160 2c4bac5782d761719294cbd7f390b55621d5075b OP_EQUAL", "type": "scripthash"}, "value": 0.00226637, "n": 7}, {"scriptPubKey": {"reqSigs": 1, "hex": "76a914d1cacf56c6f9c50f2c1fd61128b90a8a658f21b088ac", "addresses": ["1L8HBaDXwK6xySiSS4BbYvjfBq7nTRyoQm"], "asm": "OP_DUP OP_HASH160 d1cacf56c6f9c50f2c1fd61128b90a8a658f21b0 OP_EQUALVERIFY OP_CHECKSIG", "type": "pubkeyhash"}, "value": 0.01, "n": 8}, {"scriptPubKey": {"reqSigs": 1, "hex": "a914383096a8400e3bb68056e61f2d4b31cf07fccbc687", "addresses": ["36p7yGtXkVptbWJ212evdC7WJuRoFww3PA"], "asm": "OP_HASH160 383096a8400e3bb68056e61f2d4b31cf07fccbc6 OP_EQUAL", "type": "scripthash"}, "value": 0.0021713, "n": 9}, {"scriptPubKey": {"reqSigs": 1, "hex": "a91445e53ee63d2c8fb99d3b7ddb58efd6ad8841407287", "addresses": ["384bB3tPjqqgzCwAL565qwPhfR74TgDWHX"], "asm": "OP_HASH160 45e53ee63d2c8fb99d3b7ddb58efd6ad88414072 OP_EQUAL", "type": "scripthash"}, "value": 0.00477178, "n": 10}, {"scriptPubKey": {"reqSigs": 1, "hex": "a914f04d1ba932e6cb88af494d7f0ea0dd7a40dc311087", "addresses": ["3PbcU9KmyDtt7n7bNx2Z4zfhBJeD99ynhG"], "asm": "OP_HASH160 f04d1ba932e6cb88af494d7f0ea0dd7a40dc3110 OP_EQUAL", "type": "scripthash"}, "value": 0.01565619, "n": 11}, {"scriptPubKey": {"reqSigs": 1, "hex": "a9148368e7cf807976b3588253f7d36bd3364691c13587", "addresses": ["3Dfr7drHLrrwZgEAMjqREwNkDAwJGtZcgT"], "asm": "OP_HASH160 8368e7cf807976b3588253f7d36bd3364691c135 OP_EQUAL", "type": "scripthash"}, "value": 0.0022542, "n": 12}, {"scriptPubKey": {"reqSigs": 1, "hex": "76a914c846caf238c8000c3a183448c2035958df2ade8b88ac", "addresses": ["1KFxx8j1Ss8HcDoNxLQF2yNKxVH5ujcJuk"], "asm": "OP_DUP OP_HASH160 c846caf238c8000c3a183448c2035958df2ade8b OP_EQUALVERIFY OP_CHECKSIG", "type": "pubkeyhash"}, "value": 0.0021673, "n": 13}, {"scriptPubKey": {"reqSigs": 1, "hex": "a9148fb14983118b8f8f9ace07306457bc434aecc4bf87", "addresses": ["3Ennw6vyQ3ogocqc5iTwSJcDBz2J68J7uX"], "asm": "OP_HASH160 8fb14983118b8f8f9ace07306457bc434aecc4bf OP_EQUAL", "type": "scripthash"}, "value": 16.15353949, "n": 14}, {"scriptPubKey": {"reqSigs": 1, "hex": "a914642feee6edf9ea751902b195f45171e90f772ead87", "addresses": ["3ApkvBfaJNDzpk8PmkCaXD125jusyFFoSU"], "asm": "OP_HASH160 642feee6edf9ea751902b195f45171e90f772ead OP_EQUAL", "type": "scripthash"}, "value": 0.00239962, "n": 15}, {"scriptPubKey": {"reqSigs": 1, "hex": "a9142c190b2ddf94b17b6429c4401c880d88023f9fc187", "addresses": ["35iBf3nkivR4KxUnTv38RqEahTA4oXWAzN"], "asm": "OP_HASH160 2c190b2ddf94b17b6429c4401c880d88023f9fc1 OP_EQUAL", "type": "scripthash"}, "value": 0.0024306, "n": 16}, {"scriptPubKey": {"reqSigs": 1, "hex": "a914a0f3e9e669d103af7f38c5d556650447f5c1f14d87", "addresses": ["3GN4EeyuoaSv1emJrAJpm87LDbzbKbxgBH"], "asm": "OP_HASH160 a0f3e9e669d103af7f38c5d556650447f5c1f14d OP_EQUAL", "type": "scripthash"}, "value": 0.01904503, "n": 17}, {"scriptPubKey": {"reqSigs": 1, "hex": "76a9140b27f495af6364bb19c3366d30a1a9b0fad3e8eb88ac", "addresses": ["121zJG7jVXyUWkS1HgUcEuQrwSGHfXfj9F"], "asm": "OP_DUP OP_HASH160 0b27f495af6364bb19c3366d30a1a9b0fad3e8eb OP_EQUALVERIFY OP_CHECKSIG", "type": "pubkeyhash"}, "value": 0.11929461, "n": 18}, {"scriptPubKey": {"reqSigs": 1, "hex": "a9142dbe643eb3a2a6fcd0c8135d37a6a528c455953087", "addresses": ["35rtQpENZQHuxbaB6ck4A9FahcGpRxDhxH"], "asm": "OP_HASH160 2dbe643eb3a2a6fcd0c8135d37a6a528c4559530 OP_EQUAL", "type": "scripthash"}, "value": 0.0074757, "n": 19}, {"scriptPubKey": {"reqSigs": 1, "hex": "76a91493462f9fddbac83b9463f90057b8926422c58bf988ac", "addresses": ["1ERiQozL3P3TGbjgAUvkngG7DYU5DSc2Uv"], "asm": "OP_DUP OP_HASH160 93462f9fddbac83b9463f90057b8926422c58bf9 OP_EQUALVERIFY OP_CHECKSIG", "type": "pubkeyhash"}, "value": 0.00431596, "n": 20}, {"scriptPubKey": {"reqSigs": 1, "hex": "a914cbcb2c09090b52aec65fd9a80f209340b647037587", "addresses": ["3LGaV8AH8U8pwGz6XaLWz9MGWP4htyxtVp"], "asm": "OP_HASH160 cbcb2c09090b52aec65fd9a80f209340b6470375 OP_EQUAL", "type": "scripthash"}, "value": 0.00370021, "n": 21}, {"scriptPubKey": {"reqSigs": 1, "hex": "a914d83d38cd4a4f3fcb5c3efaa1c85ea1b01797153987", "addresses": ["3MQPDkTZmjkBDP63ePG8u6e6saq3nxhqyZ"], "asm": "OP_HASH160 d83d38cd4a4f3fcb5c3efaa1c85ea1b017971539 OP_EQUAL", "type": "scripthash"}, "value": 0.00647786, "n": 22}, {"scriptPubKey": {"reqSigs": 1, "hex": "76a91459c05631c5d599cb839555115e4648daf03b5bd088ac", "addresses": ["19BZYrw48Szjp3uVRDsgfTs93Nr9dxu8dN"], "asm": "OP_DUP OP_HASH160 59c05631c5d599cb839555115e4648daf03b5bd0 OP_EQUALVERIFY OP_CHECKSIG", "type": "pubkeyhash"}, "value": 0.01031309, "n": 23}, {"scriptPubKey": {"reqSigs": 1, "hex": "a9140061ed7dd4a0adc271331c05cc89a1f3f41dd0c587", "addresses": ["31j3EgNqiY8uSrwHuwMHhpsznZK3nvC2E5"], "asm": "OP_HASH160 0061ed7dd4a0adc271331c05cc89a1f3f41dd0c5 OP_EQUAL", "type": "scripthash"}, "value": 0.02262668, "n": 24}, {"scriptPubKey": {"reqSigs": 1, "hex": "a9142cbce50398dfc50b2489a276a154b09a54e0539587", "addresses": ["35mZwcM4L5S75bQKZsZmyUxuunSAx79VqQ"], "asm": "OP_HASH160 2cbce50398dfc50b2489a276a154b09a54e05395 OP_EQUAL", "type": "scripthash"}, "value": 0.00278353, "n": 25}, {"scriptPubKey": {"reqSigs": 1, "hex": "a9148bc7be05892d3f6347e675f105268f53a8e24a1287", "addresses": ["3ES78YY6NuaxF2YN3mHtiNcCXKhQTgEBxs"], "asm": "OP_HASH160 8bc7be05892d3f6347e675f105268f53a8e24a12 OP_EQUAL", "type": "scripthash"}, "value": 0.00161224, "n": 26}, {"scriptPubKey": {"reqSigs": 1, "hex": "a914c8caae291e733caff7be239d1d75d6ef68c7f09d87", "addresses": ["3KzhsPHPzkCpmxAS9voALePNoKJHU2MY5t"], "asm": "OP_HASH160 c8caae291e733caff7be239d1d75d6ef68c7f09d OP_EQUAL", "type": "scripthash"}, "value": 0.00221293, "n": 27}, {"scriptPubKey": {"reqSigs": 1, "hex": "a9147165b29c048c04df684fab4da9baae7bc85158d287", "addresses": ["3C2c7JN5q3YjaqxbQdaRh7wRsiADrUBGWA"], "asm": "OP_HASH160 7165b29c048c04df684fab4da9baae7bc85158d2 OP_EQUAL", "type": "scripthash"}, "value": 0.00440336, "n": 28}], "hex": "020000000001010160ddab8e937e27516f43b3e8ad4b3a9a103ae9be08f3bb78f9f89022cd38ed19000000171600141770b49f69ed392b39c5e557b67231ab8e79f6f1feffffff1d6d170c000000000017a91463abacc2cf54eb0918aae4787338c99f3bb9f64c87f6030400000000001976a914abda9ca74b3d6b993c9383e1f677e84aa9cf928588ac58f106000000000017a914dd9b5a6d66d5b8b54c2d27cc19fc81796605e2bc8718de04000000000017a9144862feece8da4420809fe1dfdfed63539c7cb4eb8760cc0500000000001976a9142576819e667cce6c49087e9d3da2359183ca966a88ac1a730900000000001976a9140522e87c266dd6e6c2af8d61c626762b332fcda988ac400d0300000000001976a914d4406d3725e72ad43190b3024e06f58a704ce92388ac4d7503000000000017a9142c4bac5782d761719294cbd7f390b55621d5075b8740420f00000000001976a914d1cacf56c6f9c50f2c1fd61128b90a8a658f21b088ac2a5003000000000017a914383096a8400e3bb68056e61f2d4b31cf07fccbc687fa4707000000000017a91445e53ee63d2c8fb99d3b7ddb58efd6ad8841407287b3e317000000000017a914f04d1ba932e6cb88af494d7f0ea0dd7a40dc3110878c7003000000000017a9148368e7cf807976b3588253f7d36bd3364691c135879a4e0300000000001976a914c846caf238c8000c3a183448c2035958df2ade8b88ac5d5848600000000017a9148fb14983118b8f8f9ace07306457bc434aecc4bf875aa903000000000017a914642feee6edf9ea751902b195f45171e90f772ead8774b503000000000017a9142c190b2ddf94b17b6429c4401c880d88023f9fc187770f1d000000000017a914a0f3e9e669d103af7f38c5d556650447f5c1f14d877507b600000000001976a9140b27f495af6364bb19c3366d30a1a9b0fad3e8eb88ac32680b000000000017a9142dbe643eb3a2a6fcd0c8135d37a6a528c455953087ec950600000000001976a91493462f9fddbac83b9463f90057b8926422c58bf988ac65a505000000000017a914cbcb2c09090b52aec65fd9a80f209340b6470375876ae209000000000017a914d83d38cd4a4f3fcb5c3efaa1c85ea1b017971539878dbc0f00000000001976a91459c05631c5d599cb839555115e4648daf03b5bd088ac8c8622000000000017a9140061ed7dd4a0adc271331c05cc89a1f3f41dd0c587513f04000000000017a9142cbce50398dfc50b2489a276a154b09a54e0539587c87502000000000017a9148bc7be05892d3f6347e675f105268f53a8e24a12876d6003000000000017a914c8caae291e733caff7be239d1d75d6ef68c7f09d8710b806000000000017a9147165b29c048c04df684fab4da9baae7bc85158d28702483045022100943593dc85419a4bac9b2a4f07280387db6221e947f2c389af8e3d778ec6d89502200d80dd074ca2a52eeed0fb9c5bd602905e5215b831c9e572cd2f55d4dfeea67d012103d93a3721846458c3e660320e5c3b156d737027baf8b4e1d8505e47d87da4c7c917490800", "vin": [{"txinwitness": ["3045022100943593dc85419a4bac9b2a4f07280387db6221e947f2c389af8e3d778ec6d89502200d80dd074ca2a52eeed0fb9c5bd602905e5215b831c9e572cd2f55d4dfeea67d01", "03d93a3721846458c3e660320e5c3b156d737027baf8b4e1d8505e47d87da4c7c9"], "sequence": 4294967294, "scriptSig": {"hex": "1600141770b49f69ed392b39c5e557b67231ab8e79f6f1", "asm": "00141770b49f69ed392b39c5e557b67231ab8e79f6f1"}, "vout": 25, "txid": "ed38cd2290f8f978bbf308bee93a109a3a4bade8b3436f51277e938eabdd6001"}], "txid": "7ff6ac122920081cc6289b042d84591c8397ee729d47bc5f6ddb3e9d18dd4d81", "blocktime": 1537876114, "version": 2, "confirmations": 11459, "time": 1537876114, "locktime": 542999, "vsize": 1048, "size": 1130}