{"hash": "7ffa85b2ec3b86918c8829da7ed266ae7128ff0eebce5cfd76da2b5906439fd1", "blockhash": "00000000000000000017f5eb5941039fbcee6240d03bc1f2f8e35350df66a1d8", "vout": [{"scriptPubKey": {"reqSigs": 1, "hex": "76a91478f13348d1c0c3dea7c0c0bd4585edeb0494a4e088ac", "addresses": ["1C2V2uvE6YY6xAEMPDYcR98fPBR9bihCCJ"], "asm": "OP_DUP OP_HASH160 78f13348d1c0c3dea7c0c0bd4585edeb0494a4e0 OP_EQUALVERIFY OP_CHECKSIG", "type": "pubkeyhash"}, "value": 0.01138656, "n": 0}, {"scriptPubKey": {"reqSigs": 1, "hex": "76a914defe2e3b6ecce0fea25a25e881d09d2c07daa22b88ac", "addresses": ["1ML5WN6NHmNRLUUMigeYtXL8G61RK55Seb"], "asm": "OP_DUP OP_HASH160 defe2e3b6ecce0fea25a25e881d09d2c07daa22b OP_EQUALVERIFY OP_CHECKSIG", "type": "pubkeyhash"}, "value": 0.00981727, "n": 1}], "hex": "0200000002b6ba44fa821e99468ba4f1729e7cd22799d6cb0bcb8551d28494a1698c85e758010000006a473044022016f84cc2e23d22f743c5d4f5a5db8199bf59e228db5144af0af37c9729b8c128022036f954a594c24721f02a31e25d44ffff84b7ae7e8a925428558eb12583813192012103cb37431192fddf6e454b91a5c5e0b616e98535a6f158ae30e41282710e1c9523feffffff2964f9e0049695907669cdacac5c6bd17e846310896022d032a9ed8aa9921f7c010000006b483045022100c3c11c9b01d6ba2936478bf29b70625b9b3e5d79ea76d624b72878da688e3d5902204f14eccc02e9ff82f59347b8f51220df6e4ec741b54fcd64dc14f995d99bda4c012102ee0f597c083248b7571ee381d616dadfc010cbd87aba6661df1d972c102361aefeffffff02e05f1100000000001976a91478f13348d1c0c3dea7c0c0bd4585edeb0494a4e088acdffa0e00000000001976a914defe2e3b6ecce0fea25a25e881d09d2c07daa22b88ac15490800", "vin": [{"sequence": 4294967294, "scriptSig": {"hex": "473044022016f84cc2e23d22f743c5d4f5a5db8199bf59e228db5144af0af37c9729b8c128022036f954a594c24721f02a31e25d44ffff84b7ae7e8a925428558eb12583813192012103cb37431192fddf6e454b91a5c5e0b616e98535a6f158ae30e41282710e1c9523", "asm": "3044022016f84cc2e23d22f743c5d4f5a5db8199bf59e228db5144af0af37c9729b8c128022036f954a594c24721f02a31e25d44ffff84b7ae7e8a925428558eb12583813192[ALL] 03cb37431192fddf6e454b91a5c5e0b616e98535a6f158ae30e41282710e1c9523"}, "vout": 1, "txid": "58e7858c69a19484d25185cb0bcbd69927d27c9e72f1a48b46991e82fa44bab6"}, {"sequence": 4294967294, "scriptSig": {"hex": "483045022100c3c11c9b01d6ba2936478bf29b70625b9b3e5d79ea76d624b72878da688e3d5902204f14eccc02e9ff82f59347b8f51220df6e4ec741b54fcd64dc14f995d99bda4c012102ee0f597c083248b7571ee381d616dadfc010cbd87aba6661df1d972c102361ae", "asm": "3045022100c3c11c9b01d6ba2936478bf29b70625b9b3e5d79ea76d624b72878da688e3d5902204f14eccc02e9ff82f59347b8f51220df6e4ec741b54fcd64dc14f995d99bda4c[ALL] 02ee0f597c083248b7571ee381d616dadfc010cbd87aba6661df1d972c102361ae"}, "vout": 1, "txid": "7c1f92a98aeda932d02260891063847ed16b5cacaccd697690959604e0f96429"}], "txid": "7ffa85b2ec3b86918c8829da7ed266ae7128ff0eebce5cfd76da2b5906439fd1", "blocktime": 1537874412, "version": 2, "confirmations": 11466, "time": 1537874412, "locktime": 542997, "vsize": 373, "size": 373}