{"hash": "c6e0a2f04397a240f88e494736c67d7b0610645a35a8419a37e37f16b84e3995", "blockhash": "0000000000000000001cda96e906b7601b7a6fb1a3b62bca570a9e5d8f4b3de1", "vout": [{"scriptPubKey": {"reqSigs": 1, "hex": "a9143b1306dd106226c6f7d734dc59c2998962d97b4987", "addresses": ["375NasHJE3Hmit1SiovY3iVYefzsfz4hHi"], "asm": "OP_HASH160 3b1306dd106226c6f7d734dc59c2998962d97b49 OP_EQUAL", "type": "scripthash"}, "value": 0.00070378, "n": 0}, {"scriptPubKey": {"reqSigs": 1, "hex": "a91426129cf06da2a5f73572a68b4ea5c92b7a07e32787", "addresses": ["35AKu6BsPRZFcfRvGjXYxWYy5hXLRkDYwn"], "asm": "OP_HASH160 26129cf06da2a5f73572a68b4ea5c92b7a07e327 OP_EQUAL", "type": "scripthash"}, "value": 0.0134981, "n": 1}], "hex": "020000000001011a69e0d82dcaf4d7f1db10e62091c76efb1e6fecd156a4435191dfbe528d0d640000000017160014ce71929d443d83ba51fffac535a38c9b69c1f342feffffff02ea1201000000000017a9143b1306dd106226c6f7d734dc59c2998962d97b4987b29814000000000017a91426129cf06da2a5f73572a68b4ea5c92b7a07e327870247304402204502ef71213fd6a43b825e94b24b506e71470897108141dd35181645969104b1022021524ef506e6669c2815d016625e28aa3fd23e9d0ab724560d5a3cef9a533af801210350ba23ded790dc489d010e39034cfef7f7dc97bd29d2b497e4708c4b96ac0f8513490800", "vin": [{"txinwitness": ["304402204502ef71213fd6a43b825e94b24b506e71470897108141dd35181645969104b1022021524ef506e6669c2815d016625e28aa3fd23e9d0ab724560d5a3cef9a533af801", "0350ba23ded790dc489d010e39034cfef7f7dc97bd29d2b497e4708c4b96ac0f85"], "sequence": 4294967294, "scriptSig": {"hex": "160014ce71929d443d83ba51fffac535a38c9b69c1f342", "asm": "0014ce71929d443d83ba51fffac535a38c9b69c1f342"}, "vout": 0, "txid": "640d8d52bedf915143a456d1ec6f1efb6ec79120e610dbf1d7f4ca2dd8e0691a"}], "txid": "7ffb781612f7ae723301f2c317b230c28b341916cb2a545218e37ec6c9b85150", "blocktime": 1537873282, "version": 2, "confirmations": 11485, "time": 1537873282, "locktime": 542995, "vsize": 166, "size": 247}