{"hash": "6a41496b778659e37906287d7fab45841f21eabcc6e44ff314f5958d8d3c4dfb", "blockhash": "0000000000000000001f0ddff1eddb255c1121bcd4da4f1bc9a0da00cae72433", "vout": [{"scriptPubKey": {"reqSigs": 1, "hex": "0020641ea2fdd9ebdc97222b6fffe7a336837805d17855fa20c68c43f1e0b0627854", "addresses": ["bc1qvs029lwea0wfwg3tdll70geksduqt5tc2hazp35vg0c7pvrz0p2qlzsuk2"], "asm": "0 641ea2fdd9ebdc97222b6fffe7a336837805d17855fa20c68c43f1e0b0627854", "type": "witness_v0_scripthash"}, "value": 0.0025, "n": 0}, {"scriptPubKey": {"reqSigs": 1, "hex": "00145e5f4d7c1ff31ac1cbecd2201cdd4c3994d56c25", "addresses": ["bc1qte056lql7vdvrjlv6gspeh2v8x2d2mp939j8mh"], "asm": "0 5e5f4d7c1ff31ac1cbecd2201cdd4c3994d56c25", "type": "witness_v0_keyhash"}, "value": 0.02440706, "n": 1}], "hex": "01000000000102827cc716a148b5e267b1a84b9deccd3142a659a188934958be672229c53c1c1d0000000000ffffffff7c019ed274c15e5bba2d2c4dc8712390bc15b6c3cc2ba4c1641ad41eca3a6fc30000000000ffffffff0290d0030000000000220020641ea2fdd9ebdc97222b6fffe7a336837805d17855fa20c68c43f1e0b0627854023e2500000000001600145e5f4d7c1ff31ac1cbecd2201cdd4c3994d56c250247304402201ea2be23c287e05d9c0dd507989e80ee15f3243bc8204739e6607551cd2085a402205cde03cfc241ed57b75d48bca33480279a1564bc9c228957f152082c99e8371401210243058bdcd4a40dccc73ceeb3b5a7fe432d88b6579a4477b658b18fdfc8fc73890248304502210084ff263a15572e638d415810b1d008d5e7bfc9cf92b066bad710b30c328b261e02201f76ee546db4f706582b689bccc79c1894568f7141c94f91c072c6bee629fa08012103c85f667177e47c1a62f205db31836855275e6a7ec3c8c4457494e3b560111b3600000000", "vin": [{"txinwitness": ["304402201ea2be23c287e05d9c0dd507989e80ee15f3243bc8204739e6607551cd2085a402205cde03cfc241ed57b75d48bca33480279a1564bc9c228957f152082c99e8371401", "0243058bdcd4a40dccc73ceeb3b5a7fe432d88b6579a4477b658b18fdfc8fc7389"], "sequence": 4294967295, "scriptSig": {"hex": "", "asm": ""}, "vout": 0, "txid": "1d1c3cc5292267be58499388a159a64231cdec9d4ba8b167e2b548a116c77c82"}, {"txinwitness": ["304502210084ff263a15572e638d415810b1d008d5e7bfc9cf92b066bad710b30c328b261e02201f76ee546db4f706582b689bccc79c1894568f7141c94f91c072c6bee629fa0801", "03c85f667177e47c1a62f205db31836855275e6a7ec3c8c4457494e3b560111b36"], "sequence": 4294967295, "scriptSig": {"hex": "", "asm": ""}, "vout": 0, "txid": "c36f3aca1ed41a64c1a42bccc3b615bc902371c84d2c2dba5b5ec174d29e017c"}], "txid": "7ffff8f44e4553adc8271f872e5fa75ca733a964a74c773302092741f10458c8", "blocktime": 1537872018, "version": 1, "confirmations": 11489, "time": 1537872018, "locktime": 0, "vsize": 221, "size": 383}