{"hash": "78febb68ca051a10529894cfd3fcfd1c75eebf93a5841bc38ceb1a5dbac23655", "blockhash": "00000000000000000018f53835495a110e01622372bf6ae95dc86f2b0ab887b0", "vout": [{"scriptPubKey": {"reqSigs": 1, "hex": "a91473b4edfe9528b9ac23cd7bd555eb4ed80cfecd2687", "addresses": ["3CEpNpPR9apbTVDy44AbxztLEPhwm6Jycr"], "asm": "OP_HASH160 73b4edfe9528b9ac23cd7bd555eb4ed80cfecd26 OP_EQUAL", "type": "scripthash"}, "value": 0.00208333, "n": 0}, {"scriptPubKey": {"reqSigs": 1, "hex": "00147b7481f8b22e19e51b8a4173d3f44b932fb9bb52", "addresses": ["bc1q0d6gr79j9cv72xu2g9ea8aztjvhmnw6j4al7z7"], "asm": "0 7b7481f8b22e19e51b8a4173d3f44b932fb9bb52", "type": "witness_v0_keyhash"}, "value": 0.00024003, "n": 1}], "hex": "0100000000010202a658c8b2f9b7089b8c32bd5bdf07f0eaf43951570eebe86a15cd8e89d19aa8000000001716001477a63188e3794edfc8109a54c99643b7324e48c1ffffffffae7f03d09dd15022daf839d763c3a8638424c3eae6d2dd8594abd4285ebefa9a0100000017160014cfd48827a8476062ba428ea71c229c5866d22eb3ffffffff02cd2d03000000000017a91473b4edfe9528b9ac23cd7bd555eb4ed80cfecd2687c35d0000000000001600147b7481f8b22e19e51b8a4173d3f44b932fb9bb52024830450221008334c16303a43194c0c93f31e50a7a62e6e66d0afd1d59ba0fbb2bea648625510220142beeae530a6daed0a183964c698b25fa0fd3291da7a26ab9cdd3b26412b2890121031f079cc932f7f028c30a2f1925f89fc32f74531a30eebc1dc4d9eb026a3f947802483045022100d280231b176f725b9c9fb5c21e97c511ba84d33ea1dbc01180c7164b5f1c7002022052d0820be398ec9646b0aba5083cc66fa561af29c78a5ef98304528169c32383012103defeeb1fa91ef25fef8ed0fa23b19663934c86ab548975970353f3f5140658e100000000", "vin": [{"txinwitness": ["30450221008334c16303a43194c0c93f31e50a7a62e6e66d0afd1d59ba0fbb2bea648625510220142beeae530a6daed0a183964c698b25fa0fd3291da7a26ab9cdd3b26412b28901", "031f079cc932f7f028c30a2f1925f89fc32f74531a30eebc1dc4d9eb026a3f9478"], "sequence": 4294967295, "scriptSig": {"hex": "16001477a63188e3794edfc8109a54c99643b7324e48c1", "asm": "001477a63188e3794edfc8109a54c99643b7324e48c1"}, "vout": 0, "txid": "a89ad1898ecd156ae8eb0e575139f4eaf007df5bbd328c9b08b7f9b2c858a602"}, {"txinwitness": ["3045022100d280231b176f725b9c9fb5c21e97c511ba84d33ea1dbc01180c7164b5f1c7002022052d0820be398ec9646b0aba5083cc66fa561af29c78a5ef98304528169c3238301", "03defeeb1fa91ef25fef8ed0fa23b19663934c86ab548975970353f3f5140658e1"], "sequence": 4294967295, "scriptSig": {"hex": "160014cfd48827a8476062ba428ea71c229c5866d22eb3", "asm": "0014cfd48827a8476062ba428ea71c229c5866d22eb3"}, "vout": 1, "txid": "9afabe5e28d4ab9485ddd2e6eac3248463a8c363d739f8da2250d19dd0037fae"}], "txid": "80049721c7a2066ea00670a295a47ec1c93ebfba8843486002d833acacc334a6", "blocktime": 1537870928, "version": 1, "confirmations": 11514, "time": 1537870928, "locktime": 0, "vsize": 256, "size": 419}