{"hash": "800a344189a3045c4b541d8993d8351e04fbd9e26a9105542cf0f92d31806593", "blockhash": "000000000000000000205f8b0775d31398ef75b89a5e8ec8d2c57b4dc0ac4c20", "vout": [{"scriptPubKey": {"reqSigs": 1, "hex": "a914a3ea3bfd0e49633055deadc417977f79efb2f50b87", "addresses": ["3GdifhUdF5rG3XBipLCdGQ7y5hJj35zwmV"], "asm": "OP_HASH160 a3ea3bfd0e49633055deadc417977f79efb2f50b OP_EQUAL", "type": "scripthash"}, "value": 0.039314, "n": 0}, {"scriptPubKey": {"reqSigs": 1, "hex": "76a9142309a097e3051cc4889b844bef9e8759f447e71e88ac", "addresses": ["14CGBdeSUjVGPnm85T4y6bEAW9PphKiBWA"], "asm": "OP_DUP OP_HASH160 2309a097e3051cc4889b844bef9e8759f447e71e OP_EQUALVERIFY OP_CHECKSIG", "type": "pubkeyhash"}, "value": 0.050986, "n": 1}], "hex": "0200000001e29c2a211735290439df4b5da1a9c9cfbcc81a196ec2568b7140a53af7c04c2a020000006b483045022100870260e410eedddbbc87dd7b8b7b7660b907712748e48a50af34db96589e51580220315eb83217df8b6337b37a0b386348f4ddf395f5f7104ce0a2b644d9fd8240e70121035bfc0b137e014d75b14e8b3eb24ead32543073a721266e156a6af74d82b2e177fdffffff0208fd3b000000000017a914a3ea3bfd0e49633055deadc417977f79efb2f50b8768cc4d00000000001976a9142309a097e3051cc4889b844bef9e8759f447e71e88ac0f490800", "vin": [{"sequence": 4294967293, "scriptSig": {"hex": "483045022100870260e410eedddbbc87dd7b8b7b7660b907712748e48a50af34db96589e51580220315eb83217df8b6337b37a0b386348f4ddf395f5f7104ce0a2b644d9fd8240e70121035bfc0b137e014d75b14e8b3eb24ead32543073a721266e156a6af74d82b2e177", "asm": "3045022100870260e410eedddbbc87dd7b8b7b7660b907712748e48a50af34db96589e51580220315eb83217df8b6337b37a0b386348f4ddf395f5f7104ce0a2b644d9fd8240e7[ALL] 035bfc0b137e014d75b14e8b3eb24ead32543073a721266e156a6af74d82b2e177"}, "vout": 2, "txid": "2a4cc0f73aa540718b56c26e191ac8bccfc9a9a15d4bdf3904293517212a9ce2"}], "txid": "800a344189a3045c4b541d8993d8351e04fbd9e26a9105542cf0f92d31806593", "blocktime": 1537871175, "version": 2, "confirmations": 11511, "time": 1537871175, "locktime": 542991, "vsize": 224, "size": 224}