{"hash": "243a01a01e60102d070689b37721d417522564fac078a11d788f4bd7bffc8931", "blockhash": "0000000000000000001e0dab787dd257d1dbfcb92a98c2207d5e1078be1f4165", "vout": [{"scriptPubKey": {"reqSigs": 1, "hex": "a914884b0cf3e8cdfe22617092a8321050a6c1e8573d87", "addresses": ["3E7fjErB3psBse4ZJXjhRXnankWdk4Ueo5"], "asm": "OP_HASH160 884b0cf3e8cdfe22617092a8321050a6c1e8573d OP_EQUAL", "type": "scripthash"}, "value": 0.01009488, "n": 0}, {"scriptPubKey": {"reqSigs": 1, "hex": "a914d5d8d453cdd5f05de1ed620b8d3324ca7d8a5d8387", "addresses": ["3MBjbyVDn2atEV5azCvDtL5snz32kaAn4Z"], "asm": "OP_HASH160 d5d8d453cdd5f05de1ed620b8d3324ca7d8a5d83 OP_EQUAL", "type": "scripthash"}, "value": 0.00414, "n": 1}], "hex": "020000000001025205360aafe75f8c288df31ab6fa8081a8c16b2c0572914482a790d9de40525701000000171600144d92f626cc34471a81503ed46233ab0074568f13feffffffb265927547610fe1e210b25714764a8904342efba39d4782b2eb42a70005279101000000171600149b6567e2cc74fe075f77c5ec2d2bb0e9fef684fdfeffffff0250670f000000000017a914884b0cf3e8cdfe22617092a8321050a6c1e8573d87305106000000000017a914d5d8d453cdd5f05de1ed620b8d3324ca7d8a5d838702483045022100d9b2485e444b74d8078f7494c4dc681924b1b27d1349192d38c4e19761ca2c450220366a0f34e2fa146cb2ae86c798eb0e11162110636b4561a41767466f7ad00cb20121028c66c3a2f603d2f5e51ed2fd3003e042ee15493ec4cf5337874fb24de4099405024830450221008633c1bd12bdcafa1feaf388f341a2b97ea245799dc952ad87d31c9a4413e708022027d1948915d51226bbd3ff13a4451590850b8557bf16ab13c4e3b0b77425889101210282cc1b58e7e796d59c2ba557207cd40cdbb94b5da91105202440a661c805a07a12490800", "vin": [{"txinwitness": ["3045022100d9b2485e444b74d8078f7494c4dc681924b1b27d1349192d38c4e19761ca2c450220366a0f34e2fa146cb2ae86c798eb0e11162110636b4561a41767466f7ad00cb201", "028c66c3a2f603d2f5e51ed2fd3003e042ee15493ec4cf5337874fb24de4099405"], "sequence": 4294967294, "scriptSig": {"hex": "1600144d92f626cc34471a81503ed46233ab0074568f13", "asm": "00144d92f626cc34471a81503ed46233ab0074568f13"}, "vout": 1, "txid": "575240ded990a782449172052c6bc1a88180fab61af38d288c5fe7af0a360552"}, {"txinwitness": ["30450221008633c1bd12bdcafa1feaf388f341a2b97ea245799dc952ad87d31c9a4413e708022027d1948915d51226bbd3ff13a4451590850b8557bf16ab13c4e3b0b77425889101", "0282cc1b58e7e796d59c2ba557207cd40cdbb94b5da91105202440a661c805a07a"], "sequence": 4294967294, "scriptSig": {"hex": "1600149b6567e2cc74fe075f77c5ec2d2bb0e9fef684fd", "asm": "00149b6567e2cc74fe075f77c5ec2d2bb0e9fef684fd"}, "vout": 1, "txid": "91270500a742ebb282479da3fb2e3404894a761457b210e2e10f6147759265b2"}], "txid": "80106ed98e712771eba3aff21a6c82228756e412bd36c03fbdcd8e90541a2149", "blocktime": 1537872475, "version": 2, "confirmations": 11487, "time": 1537872475, "locktime": 542994, "vsize": 257, "size": 420}