{"hash": "8011bf593c2f0faec6fbece4f6cf2dee2c7d6d3afc2ac9e1e4df0138e08b8b3a", "blockhash": "0000000000000000000e13cef7c366c0283d82e591d1acd082e914b08063cdf1", "vout": [{"scriptPubKey": {"type": "nulldata", "hex": "6a146f6d6e69000000000000001f00000009961a1f40", "asm": "OP_RETURN 6f6d6e69000000000000001f00000009961a1f40"}, "value": 0.0, "n": 0}, {"scriptPubKey": {"reqSigs": 1, "hex": "76a914a25dec4d0011064ef106a983c39c7a540699f22088ac", "addresses": ["1FoWyxwPXuj4C6abqwhjDWdz6D4PZgYRjA"], "asm": "OP_DUP OP_HASH160 a25dec4d0011064ef106a983c39c7a540699f220 OP_EQUALVERIFY OP_CHECKSIG", "type": "pubkeyhash"}, "value": 5.46e-06, "n": 1}, {"scriptPubKey": {"reqSigs": 1, "hex": "76a914d7f6bfceee3868e86c4861fc496711da0511cff888ac", "addresses": ["1LgusgZWyrpahoHwXSZj7gRcA6PZp4YAe3"], "asm": "OP_DUP OP_HASH160 d7f6bfceee3868e86c4861fc496711da0511cff8 OP_EQUALVERIFY OP_CHECKSIG", "type": "pubkeyhash"}, "value": 0.00492508, "n": 2}], "hex": "010000000109f620dc0864be97a789e4743473473abc49a3ba03840b1bcc3462daf7205423000000006a47304402202c65e3bac25be7f3a56376022940e9af2094c5d88f907e5a4c9b4f947b09069202207b4f7a11627a233c8c51e439c23ba123c94118f3f3cfad93febb33ec9dd381250121026d5a90ff4435ad3b641aae7c56b79b058fa91b5db67cfa00ef2d30d3246d3aaffeffffff030000000000000000166a146f6d6e69000000000000001f00000009961a1f4022020000000000001976a914a25dec4d0011064ef106a983c39c7a540699f22088acdc830700000000001976a914d7f6bfceee3868e86c4861fc496711da0511cff888ac10490800", "vin": [{"sequence": 4294967294, "scriptSig": {"hex": "47304402202c65e3bac25be7f3a56376022940e9af2094c5d88f907e5a4c9b4f947b09069202207b4f7a11627a233c8c51e439c23ba123c94118f3f3cfad93febb33ec9dd381250121026d5a90ff4435ad3b641aae7c56b79b058fa91b5db67cfa00ef2d30d3246d3aaf", "asm": "304402202c65e3bac25be7f3a56376022940e9af2094c5d88f907e5a4c9b4f947b09069202207b4f7a11627a233c8c51e439c23ba123c94118f3f3cfad93febb33ec9dd38125[ALL] 026d5a90ff4435ad3b641aae7c56b79b058fa91b5db67cfa00ef2d30d3246d3aaf"}, "vout": 0, "txid": "235420f7da6234cc1b0b8403baa349bc3a47733474e489a797be6408dc20f609"}], "txid": "8011bf593c2f0faec6fbece4f6cf2dee2c7d6d3afc2ac9e1e4df0138e08b8b3a", "blocktime": 1537871767, "version": 1, "confirmations": 11495, "time": 1537871767, "locktime": 542992, "vsize": 256, "size": 256}