{"hash": "f9056aaab04a1b063689e7f520b074d4af5429b01d03876fbeec098956fcd44e", "blockhash": "00000000000000000018f53835495a110e01622372bf6ae95dc86f2b0ab887b0", "vout": [{"scriptPubKey": {"reqSigs": 1, "hex": "76a914795dd3051da051704b160a1f2b6f5798d40b59ca88ac", "addresses": ["1C4jAEoKxzzrrudd3HT9zTVypBeQEMdeCT"], "asm": "OP_DUP OP_HASH160 795dd3051da051704b160a1f2b6f5798d40b59ca OP_EQUALVERIFY OP_CHECKSIG", "type": "pubkeyhash"}, "value": 0.03114707, "n": 0}, {"scriptPubKey": {"reqSigs": 1, "hex": "a9140155874553c527f049c0ae3d5a778b0e04e347bb87", "addresses": ["31p54MS7MSBGATPf7L9k6okpqGURCLuP5X"], "asm": "OP_HASH160 0155874553c527f049c0ae3d5a778b0e04e347bb OP_EQUAL", "type": "scripthash"}, "value": 2.39842421, "n": 1}], "hex": "010000000001013a0534749bcade862159518f78ccc780f220427bb7e3a3be4892b48deb62fae30100000023220020ead9813ef71a14a1fc550cfb5c5dd853d1e6bbccfde25f8f3c1124c6b47fda22ffffffff02d3862f00000000001976a914795dd3051da051704b160a1f2b6f5798d40b59ca88ac75b44b0e0000000017a9140155874553c527f049c0ae3d5a778b0e04e347bb87040047304402204a4295d5372225c465b7812fb0ef46f952daafd3ed30ce81d294fce26322baf90220490aad1bd9ac33c431a93e90b2812ac9a4e84c11d1b7887ba5c1fbfae317bf9d0147304402207720b38de004b913cea68eb267a9568dfa11cc0bc0ca8509f90bb897aa38f0b202205090cc7d64f0022a4c23b9baad0c18847a8e97cb5b8c802cd922fc6f697062820147522103baf82ab85653fe1a4c26c826d6e71ff0f794cef0ba8d4b9c350b7cd8a099295c210374d34c43195a03910cd16cba2c089b5a40de35ab5857ec656bdacade80fb67c052ae00000000", "vin": [{"txinwitness": ["", "304402204a4295d5372225c465b7812fb0ef46f952daafd3ed30ce81d294fce26322baf90220490aad1bd9ac33c431a93e90b2812ac9a4e84c11d1b7887ba5c1fbfae317bf9d01", "304402207720b38de004b913cea68eb267a9568dfa11cc0bc0ca8509f90bb897aa38f0b202205090cc7d64f0022a4c23b9baad0c18847a8e97cb5b8c802cd922fc6f6970628201", "522103baf82ab85653fe1a4c26c826d6e71ff0f794cef0ba8d4b9c350b7cd8a099295c210374d34c43195a03910cd16cba2c089b5a40de35ab5857ec656bdacade80fb67c052ae"], "sequence": 4294967295, "scriptSig": {"hex": "220020ead9813ef71a14a1fc550cfb5c5dd853d1e6bbccfde25f8f3c1124c6b47fda22", "asm": "0020ead9813ef71a14a1fc550cfb5c5dd853d1e6bbccfde25f8f3c1124c6b47fda22"}, "vout": 1, "txid": "e3fa62eb8db49248bea3e3b77b4220f280c7cc788f51592186deca9b7434053a"}], "txid": "80139e14be36bce5e0f23cb6d1cdb6541686d61f7768881d79d0c753aeaaead0", "blocktime": 1537870928, "version": 1, "confirmations": 11514, "time": 1537870928, "locktime": 0, "vsize": 207, "size": 372}