{"hash": "c781427fa504215909acdfcd3ed8cdcd72ddc8143c7f5cd5feaa1d0614f9d2e9", "blockhash": "0000000000000000001f0ddff1eddb255c1121bcd4da4f1bc9a0da00cae72433", "vout": [{"scriptPubKey": {"reqSigs": 1, "hex": "76a9140a3195c50a139c1268b517078c4818eb7c3cee7288ac", "addresses": ["1vuA9XxA95fff3zonS6wemPTWBvQ16vN9"], "asm": "OP_DUP OP_HASH160 0a3195c50a139c1268b517078c4818eb7c3cee72 OP_EQUALVERIFY OP_CHECKSIG", "type": "pubkeyhash"}, "value": 0.00271238, "n": 0}, {"scriptPubKey": {"reqSigs": 1, "hex": "a9141d5f36d31e720b91c342bc46ee959b97ca5e970987", "addresses": ["34NKahhiqQgE7SryQ5y2PS8CfpUQG1pbmJ"], "asm": "OP_HASH160 1d5f36d31e720b91c342bc46ee959b97ca5e9709 OP_EQUAL", "type": "scripthash"}, "value": 0.009985, "n": 1}], "hex": "020000000001054c8016706222fc8825a6322fdaab3a12f9a2b009a1ca32717c252dcdc38b5e85010000001716001479b03a898c19873c788d50ced799a85d366009cffeffffff954e4134cd73541cf9d2e931d24dbf66f1b777fdb7f74f26db152ea9f4b977c30f000000171600146ff7b03f2496aeed3d28204123b5fa0c0e719a67feffffffbd76f487dc8b6c4aeed075762bef4370b07633f60e3122e4ae6877439571f7f50000000017160014131b52b36642cc26f7f0d9e1136c9adc95cf0126feffffffca5a9d770ef7ac5d544a20b07d364cbe8f49521b19e62159090818c323149a960000000017160014238d2b9fcea79d0b26c00072119a9e5fedce8eabfefffffffb143f4c53dbb6c13b2bbf8d86e8d0928685ab218331602b3538249a367858390c0000001716001434c1bdc0c0420d77e548de5bb44af47fbd58eb23feffffff0286230400000000001976a9140a3195c50a139c1268b517078c4818eb7c3cee7288ac643c0f000000000017a9141d5f36d31e720b91c342bc46ee959b97ca5e9709870247304402202e56e79dcc692597ba02a8cfc77bad0b98ad88e11afc645c4134b3a51d104fe102202476e52592501db3564ee58152afa463b5c4dc84ac521ee3e018ae30921717ab012102842d8bbc27b3ea5779cf6e3b19b9424d564a0069a0f76308c64d45e5f7e5ec830247304402204352208255c7837361cfbc362c6622c2c22cf612d1beee2a731f242b4830cabb02205cd9d4d2dbc482ecbe38676b679f247f537ed9a21b84dc5b51770f09153720d1012103f728554e3b6cb549b3a9536889fe28ea2a880e328442ba36e1b4396174e6bad502473044022021c6d13648d499d79954c22f36f8ba82cb1938b2eebc3067e2222a765ffa5d3e0220693ee60a68c99e648586e91675c50bc15acab6e6b3ac3f00336e8f1a954af42101210248d78a7a161054f912d2ef16304b0b4b7244349c0d4eed9b4ceab0d5046f738d0247304402203195b416483bfd4dcd2e178d68077befc8dcb6f5d08170f5e0ace0f31dda2336022015e1bae80ceb601e50819da7e695921be034c31d0e223ba68a8a3b3734d0d4250121033d65ba5807f83cb07e2a94da6d43404d39534ba2e2be66bb02ca81e170ba2a8d02473044022008dd4cdb5f0da49e51cc3fd2308ef65d4c399095997fed60660ae1dd843feb1902207eb8a47388dce4a7aea4646add12815f129ba51386d726f40563f53a9a8b415301210293a5201ce395508b04fd14b024b73580dc60a1009a3accb2c08681b1be5e7d9011490800", "vin": [{"txinwitness": ["304402202e56e79dcc692597ba02a8cfc77bad0b98ad88e11afc645c4134b3a51d104fe102202476e52592501db3564ee58152afa463b5c4dc84ac521ee3e018ae30921717ab01", "02842d8bbc27b3ea5779cf6e3b19b9424d564a0069a0f76308c64d45e5f7e5ec83"], "sequence": 4294967294, "scriptSig": {"hex": "16001479b03a898c19873c788d50ced799a85d366009cf", "asm": "001479b03a898c19873c788d50ced799a85d366009cf"}, "vout": 1, "txid": "855e8bc3cd2d257c7132caa109b0a2f9123aabda2f32a62588fc22627016804c"}, {"txinwitness": ["304402204352208255c7837361cfbc362c6622c2c22cf612d1beee2a731f242b4830cabb02205cd9d4d2dbc482ecbe38676b679f247f537ed9a21b84dc5b51770f09153720d101", "03f728554e3b6cb549b3a9536889fe28ea2a880e328442ba36e1b4396174e6bad5"], "sequence": 4294967294, "scriptSig": {"hex": "1600146ff7b03f2496aeed3d28204123b5fa0c0e719a67", "asm": "00146ff7b03f2496aeed3d28204123b5fa0c0e719a67"}, "vout": 15, "txid": "c377b9f4a92e15db264ff7b7fd77b7f166bf4dd231e9d2f91c5473cd34414e95"}, {"txinwitness": ["3044022021c6d13648d499d79954c22f36f8ba82cb1938b2eebc3067e2222a765ffa5d3e0220693ee60a68c99e648586e91675c50bc15acab6e6b3ac3f00336e8f1a954af42101", "0248d78a7a161054f912d2ef16304b0b4b7244349c0d4eed9b4ceab0d5046f738d"], "sequence": 4294967294, "scriptSig": {"hex": "160014131b52b36642cc26f7f0d9e1136c9adc95cf0126", "asm": "0014131b52b36642cc26f7f0d9e1136c9adc95cf0126"}, "vout": 0, "txid": "f5f77195437768aee422310ef63376b07043ef2b7675d0ee4a6c8bdc87f476bd"}, {"txinwitness": ["304402203195b416483bfd4dcd2e178d68077befc8dcb6f5d08170f5e0ace0f31dda2336022015e1bae80ceb601e50819da7e695921be034c31d0e223ba68a8a3b3734d0d42501", "033d65ba5807f83cb07e2a94da6d43404d39534ba2e2be66bb02ca81e170ba2a8d"], "sequence": 4294967294, "scriptSig": {"hex": "160014238d2b9fcea79d0b26c00072119a9e5fedce8eab", "asm": "0014238d2b9fcea79d0b26c00072119a9e5fedce8eab"}, "vout": 0, "txid": "969a1423c31808095921e6191b52498fbe4c367db0204a545dacf70e779d5aca"}, {"txinwitness": ["3044022008dd4cdb5f0da49e51cc3fd2308ef65d4c399095997fed60660ae1dd843feb1902207eb8a47388dce4a7aea4646add12815f129ba51386d726f40563f53a9a8b415301", "0293a5201ce395508b04fd14b024b73580dc60a1009a3accb2c08681b1be5e7d90"], "sequence": 4294967294, "scriptSig": {"hex": "16001434c1bdc0c0420d77e548de5bb44af47fbd58eb23", "asm": "001434c1bdc0c0420d77e548de5bb44af47fbd58eb23"}, "vout": 12, "txid": "395878369a2438352b60318321ab858692d0e8868dbf2b3bc1b6db534c3f14fb"}], "txid": "8016b41f28800531455f1a77805d21a0de325e5d8c00d513edebd7a350f523be", "blocktime": 1537872018, "version": 2, "confirmations": 11489, "time": 1537872018, "locktime": 542993, "vsize": 531, "size": 933}