{"hash": "801b7fc691592ebcb23f3aed3f550116c98967ad7d69c443e650c0401f0b2482", "blockhash": "0000000000000000001e0dab787dd257d1dbfcb92a98c2207d5e1078be1f4165", "vout": [{"scriptPubKey": {"reqSigs": 1, "hex": "76a9147a655c33b97edc906cf0f2ae8837e9bef312d92288ac", "addresses": ["1CAAs2oFMkzUHNp9kESspGPvLYNvbyTK8R"], "asm": "OP_DUP OP_HASH160 7a655c33b97edc906cf0f2ae8837e9bef312d922 OP_EQUALVERIFY OP_CHECKSIG", "type": "pubkeyhash"}, "value": 0.00026466, "n": 0}, {"scriptPubKey": {"reqSigs": 1, "hex": "a9148d3236fde9600a41179d2f225306e22e68a779e887", "addresses": ["3EZbMaV7TUQfJjAHBoe5dQFWQuRhBUVW29"], "asm": "OP_HASH160 8d3236fde9600a41179d2f225306e22e68a779e8 OP_EQUAL", "type": "scripthash"}, "value": 0.01718221, "n": 1}], "hex": "01000000026e10cd379cad79c2fb84b4087068ad5aeb0b90d82712fb6a5a27fb34addd16d6010000006a473044022054ef1cb314d05d911c84b882729b4cb68f1a384b61f4653e96f3b58b988b885602206c4bb0e7c099e2c33e9b761efb09819fe734b6c4b67b87b48552787816b86921012103de58f45d17b5cc235654875fe9eb4c812f92af7f7dabe40a952fd78f33f2b350ffffffffc8ffbda9bbd5c34d9fc53a71a5f6dbe5aa720bb3ea33430453af4123c6d396dd000000006b4830450221008f3fe0fa1e1b901017a78264f36c0868e3038192ab34c15bf7c87652450214ef02203a6d0cad88b540c0f180560ed9c6be931a0a03b067470c56ed77022ef7a7d7a101210259ad7e0dfac8927ac7e4dfd148813a96ce6f7cc8d7c03078454fd6c0090e2128ffffffff0262670000000000001976a9147a655c33b97edc906cf0f2ae8837e9bef312d92288accd371a000000000017a9148d3236fde9600a41179d2f225306e22e68a779e88700000000", "vin": [{"sequence": 4294967295, "scriptSig": {"hex": "473044022054ef1cb314d05d911c84b882729b4cb68f1a384b61f4653e96f3b58b988b885602206c4bb0e7c099e2c33e9b761efb09819fe734b6c4b67b87b48552787816b86921012103de58f45d17b5cc235654875fe9eb4c812f92af7f7dabe40a952fd78f33f2b350", "asm": "3044022054ef1cb314d05d911c84b882729b4cb68f1a384b61f4653e96f3b58b988b885602206c4bb0e7c099e2c33e9b761efb09819fe734b6c4b67b87b48552787816b86921[ALL] 03de58f45d17b5cc235654875fe9eb4c812f92af7f7dabe40a952fd78f33f2b350"}, "vout": 1, "txid": "d616ddad34fb275a6afb1227d8900beb5aad687008b484fbc279ad9c37cd106e"}, {"sequence": 4294967295, "scriptSig": {"hex": "4830450221008f3fe0fa1e1b901017a78264f36c0868e3038192ab34c15bf7c87652450214ef02203a6d0cad88b540c0f180560ed9c6be931a0a03b067470c56ed77022ef7a7d7a101210259ad7e0dfac8927ac7e4dfd148813a96ce6f7cc8d7c03078454fd6c0090e2128", "asm": "30450221008f3fe0fa1e1b901017a78264f36c0868e3038192ab34c15bf7c87652450214ef02203a6d0cad88b540c0f180560ed9c6be931a0a03b067470c56ed77022ef7a7d7a1[ALL] 0259ad7e0dfac8927ac7e4dfd148813a96ce6f7cc8d7c03078454fd6c0090e2128"}, "vout": 0, "txid": "dd96d3c62341af53044333eab30b72aae5dbf6a5713ac59f4dc3d5bba9bdffc8"}], "txid": "801b7fc691592ebcb23f3aed3f550116c98967ad7d69c443e650c0401f0b2482", "blocktime": 1537872475, "version": 1, "confirmations": 11487, "time": 1537872475, "locktime": 0, "vsize": 371, "size": 371}