{"hash": "801d94660d1222e803aaf651839cca4874acded4ca177be87a240cfd1b4febf9", "blockhash": "0000000000000000001f76057863aec43deb6fa401d9628bb513d65a8098bfab", "vout": [{"scriptPubKey": {"reqSigs": 1, "hex": "a91416b504cbfaf9aacc81c5387369f3e057c330a13687", "addresses": ["33m5eAc2SfRB9cHmKDrsg3iKhpFw9JYCHx"], "asm": "OP_HASH160 16b504cbfaf9aacc81c5387369f3e057c330a136 OP_EQUAL", "type": "scripthash"}, "value": 0.0019966, "n": 0}, {"scriptPubKey": {"reqSigs": 1, "hex": "76a914a25ccd825f215e8908ec31a28335eebbfd02c6f488ac", "addresses": ["1FoVe8K6VeJCUgevF34aZ1w7NkZ7xsnzDC"], "asm": "OP_DUP OP_HASH160 a25ccd825f215e8908ec31a28335eebbfd02c6f4 OP_EQUALVERIFY OP_CHECKSIG", "type": "pubkeyhash"}, "value": 0.05478653, "n": 1}], "hex": "01000000012d3cd0564c6c6d15948af33e96b8c3c3378a857c66b68ccd206fb861c4dc99ed010000006a47304402206341b146f6ff62e6376e7c3c9e8a4fda805cb7a2c491de17a717d7dc992801e3022013eecc4ea395b80194e446d59bb738d4e6b97bbff8dec8a6224d83b7f1edeb91012102e5cdbd49bf0ee22cce364795353149794983a4c05d5a64b18f460b4341fd0378ffffffff02ec0b03000000000017a91416b504cbfaf9aacc81c5387369f3e057c330a13687fd985300000000001976a914a25ccd825f215e8908ec31a28335eebbfd02c6f488ac00000000", "vin": [{"sequence": 4294967295, "scriptSig": {"hex": "47304402206341b146f6ff62e6376e7c3c9e8a4fda805cb7a2c491de17a717d7dc992801e3022013eecc4ea395b80194e446d59bb738d4e6b97bbff8dec8a6224d83b7f1edeb91012102e5cdbd49bf0ee22cce364795353149794983a4c05d5a64b18f460b4341fd0378", "asm": "304402206341b146f6ff62e6376e7c3c9e8a4fda805cb7a2c491de17a717d7dc992801e3022013eecc4ea395b80194e446d59bb738d4e6b97bbff8dec8a6224d83b7f1edeb91[ALL] 02e5cdbd49bf0ee22cce364795353149794983a4c05d5a64b18f460b4341fd0378"}, "vout": 1, "txid": "ed99dcc461b86f20cd8cb6667c858a37c3c3b8963ef38a94156d6c4c56d03c2d"}], "txid": "801d94660d1222e803aaf651839cca4874acded4ca177be87a240cfd1b4febf9", "blocktime": 1537873891, "version": 1, "confirmations": 11475, "time": 1537873891, "locktime": 0, "vsize": 223, "size": 223}