{"hash": "1b150dcf0b91d5224e30e5de5dd8458f90ec17964f903e216b0e2c70d1b9cca1", "blockhash": "0000000000000000000dcc0f55137456b1a82d3642486a52398922ac4d620174", "vout": [{"scriptPubKey": {"reqSigs": 1, "hex": "a914061c2463cecf2d193f000d4037b44b2455f9fe8987", "addresses": ["32FKh3bAXaf6LeyxKuh5LpzrwWMNQWebVE"], "asm": "OP_HASH160 061c2463cecf2d193f000d4037b44b2455f9fe89 OP_EQUAL", "type": "scripthash"}, "value": 0.00186, "n": 0}], "hex": "01000000000101f4cf25cc4ceddd74b86ba19f95ba90739d0522b525d5bd4dfb81e8d773f71ca20000000023220020b4a5c05d19a487a69346f4b20e335f038d9645ec1112ee97eede475d53dcac97ffffffff0190d602000000000017a914061c2463cecf2d193f000d4037b44b2455f9fe89870400483045022100b5b46866c29c5feda7f6083fa42dae630fdebf7e523f507008a4755b9f23d9f502207b6a7f163c1985fd6e06da31325e552d76a0bf3955afcfc1eb25b677935e4d98014830450221009088668687644ffcfa97e0de31f0e73515937b67eb23800fe1dd2075938a2aaf02200acaf895ace4f55cc4e8e367eccd4e7b5bd8e4bab77f7abff8115d4ec0ee973d01695221036669fd3c2617a5d98e58481b6179ee3d4f20a71ec6310db752154302011c650221033bf23606068cbd6d081e28fc3cf40d7170a93265e2e217670777e03b0c13722a2103d5aa002819c42b6ff137acd098e6ef892cd46b1abf49c7cfba2d8cfacd6ac64a53ae00000000", "vin": [{"txinwitness": ["", "3045022100b5b46866c29c5feda7f6083fa42dae630fdebf7e523f507008a4755b9f23d9f502207b6a7f163c1985fd6e06da31325e552d76a0bf3955afcfc1eb25b677935e4d9801", "30450221009088668687644ffcfa97e0de31f0e73515937b67eb23800fe1dd2075938a2aaf02200acaf895ace4f55cc4e8e367eccd4e7b5bd8e4bab77f7abff8115d4ec0ee973d01", "5221036669fd3c2617a5d98e58481b6179ee3d4f20a71ec6310db752154302011c650221033bf23606068cbd6d081e28fc3cf40d7170a93265e2e217670777e03b0c13722a2103d5aa002819c42b6ff137acd098e6ef892cd46b1abf49c7cfba2d8cfacd6ac64a53ae"], "sequence": 4294967295, "scriptSig": {"hex": "220020b4a5c05d19a487a69346f4b20e335f038d9645ec1112ee97eede475d53dcac97", "asm": "0020b4a5c05d19a487a69346f4b20e335f038d9645ec1112ee97eede475d53dcac97"}, "vout": 0, "txid": "a21cf773d7e881fb4dbdd525b522059d7390ba959fa16bb874dded4ccc25cff4"}], "txid": "80269cab55288eea8175fb6a911bbe8f9f320622469b040d66dd4953ae7688d6", "blocktime": 1537870268, "version": 1, "confirmations": 11517, "time": 1537870268, "locktime": 0, "vsize": 182, "size": 374}