{"hash": "802bfa0d7689a0256b7a1f8a6c9638314d155d4dc3e7fbeeb8cc06e838420fd8", "blockhash": "0000000000000000001cda96e906b7601b7a6fb1a3b62bca570a9e5d8f4b3de1", "vout": [{"scriptPubKey": {"reqSigs": 1, "hex": "a9141d2b912f2bd0db6b00daf43cc9b44bb1c81abff687", "addresses": ["34MFiCmuXoirdpu5yw7s1JCw26Gw7YnX3C"], "asm": "OP_HASH160 1d2b912f2bd0db6b00daf43cc9b44bb1c81abff6 OP_EQUAL", "type": "scripthash"}, "value": 8.516e-05, "n": 0}, {"scriptPubKey": {"reqSigs": 1, "hex": "a914c6a371cbaaeeb022ae418d331b957d4ddd958dfc87", "addresses": ["3KoKWrFysPbVgLWFgdivYdTuXeH6aHwtat"], "asm": "OP_HASH160 c6a371cbaaeeb022ae418d331b957d4ddd958dfc OP_EQUAL", "type": "scripthash"}, "value": 0.0054, "n": 1}], "hex": "0100000001f898e02feb16bc729237945ac0ddcf055c63a3ecf61950d2117650c8ff4ac0da00000000fc0047304402203a0441019b510522c6619c9880aa4791f7bbafc37a30884876942ac7e71eb08d02203b4d14acbfa68e88ecd00533e3c4366891adf3e101d1958644f33aef0f6b26f701473044022060fb6b3252d20fad5ae17282c31b5c0882098163b21b05fe443cf04dfbac727f02201a81812bcce8aa068a9a8f34805956b20e2b22aabd3b9331119eeaa186aaadc8014c69522102707fbd7ee04c9fb9569aa238ed2d502c9bf5d21fd3db2bf8a67d9f0cce484b2e21034672f39aeed6d0ec42a89fabad2e0d273d921275f132b285559d1a7867ff19672103da063b3399ff35e40d546d063503ac8730461eb434feba72ee73428591d03e1753aeffffffff02442100000000000017a9141d2b912f2bd0db6b00daf43cc9b44bb1c81abff687603d08000000000017a914c6a371cbaaeeb022ae418d331b957d4ddd958dfc8700000000", "vin": [{"sequence": 4294967295, "scriptSig": {"hex": "0047304402203a0441019b510522c6619c9880aa4791f7bbafc37a30884876942ac7e71eb08d02203b4d14acbfa68e88ecd00533e3c4366891adf3e101d1958644f33aef0f6b26f701473044022060fb6b3252d20fad5ae17282c31b5c0882098163b21b05fe443cf04dfbac727f02201a81812bcce8aa068a9a8f34805956b20e2b22aabd3b9331119eeaa186aaadc8014c69522102707fbd7ee04c9fb9569aa238ed2d502c9bf5d21fd3db2bf8a67d9f0cce484b2e21034672f39aeed6d0ec42a89fabad2e0d273d921275f132b285559d1a7867ff19672103da063b3399ff35e40d546d063503ac8730461eb434feba72ee73428591d03e1753ae", "asm": "0 304402203a0441019b510522c6619c9880aa4791f7bbafc37a30884876942ac7e71eb08d02203b4d14acbfa68e88ecd00533e3c4366891adf3e101d1958644f33aef0f6b26f7[ALL] 3044022060fb6b3252d20fad5ae17282c31b5c0882098163b21b05fe443cf04dfbac727f02201a81812bcce8aa068a9a8f34805956b20e2b22aabd3b9331119eeaa186aaadc8[ALL] 522102707fbd7ee04c9fb9569aa238ed2d502c9bf5d21fd3db2bf8a67d9f0cce484b2e21034672f39aeed6d0ec42a89fabad2e0d273d921275f132b285559d1a7867ff19672103da063b3399ff35e40d546d063503ac8730461eb434feba72ee73428591d03e1753ae"}, "vout": 0, "txid": "dac04affc8507611d25019f6eca3635c05cfddc05a94379272bc16eb2fe098f8"}], "txid": "802bfa0d7689a0256b7a1f8a6c9638314d155d4dc3e7fbeeb8cc06e838420fd8", "blocktime": 1537873282, "version": 1, "confirmations": 11484, "time": 1537873282, "locktime": 0, "vsize": 367, "size": 367}