{"hash": "802b85e74b5be271386ba981c10b3bbdb535178e2db104fac0d6c56e8bfed24e", "blockhash": "0000000000000000000e13cef7c366c0283d82e591d1acd082e914b08063cdf1", "vout": [{"scriptPubKey": {"reqSigs": 1, "hex": "76a914f80cb887d067436b4403020856f54a7798d3156988ac", "addresses": ["1PcZpS4qqnsjuXkuMiocs9Hg6uB5UJHDf2"], "asm": "OP_DUP OP_HASH160 f80cb887d067436b4403020856f54a7798d31569 OP_EQUALVERIFY OP_CHECKSIG", "type": "pubkeyhash"}, "value": 0.00028121, "n": 0}], "hex": "0100000001b36955b33ce8cad521fef4005861c5b87b8edf312974ae083f83817c39e2ee951c0000006a4730440220792a332ae947da9137bb34216c400dced941ccd1b326e1491896fbad5231775702205f3859d17fc808a1ec6a7f1eef10e58512b57d59e011c50a58a60f427f1fb03801210255a67b92a497534965cd30aa4461c3a21f18a0af6dca0805cac5624b0b23be26ffffffff01d96d0000000000001976a914f80cb887d067436b4403020856f54a7798d3156988ac00000000", "vin": [{"sequence": 4294967295, "scriptSig": {"hex": "4730440220792a332ae947da9137bb34216c400dced941ccd1b326e1491896fbad5231775702205f3859d17fc808a1ec6a7f1eef10e58512b57d59e011c50a58a60f427f1fb03801210255a67b92a497534965cd30aa4461c3a21f18a0af6dca0805cac5624b0b23be26", "asm": "30440220792a332ae947da9137bb34216c400dced941ccd1b326e1491896fbad5231775702205f3859d17fc808a1ec6a7f1eef10e58512b57d59e011c50a58a60f427f1fb038[ALL] 0255a67b92a497534965cd30aa4461c3a21f18a0af6dca0805cac5624b0b23be26"}, "vout": 28, "txid": "95eee2397c81833f08ae742931df8e7bb8c5615800f4fe21d5cae83cb35569b3"}], "txid": "802b85e74b5be271386ba981c10b3bbdb535178e2db104fac0d6c56e8bfed24e", "blocktime": 1537871767, "version": 1, "confirmations": 11491, "time": 1537871767, "locktime": 0, "vsize": 191, "size": 191}