{"hash": "802cac31fa6cec89624f0a626abc6665ff6d67d48cb124a77137c8cd044e3e97", "blockhash": "00000000000000000004ffacab907a6b429b9a5745fa0b75af4234bf69dd7176", "vout": [{"scriptPubKey": {"type": "nulldata", "hex": "6a146f6d6e69000000000000001f00000022d906f580", "asm": "OP_RETURN 6f6d6e69000000000000001f00000022d906f580"}, "value": 0.0, "n": 0}, {"scriptPubKey": {"reqSigs": 1, "hex": "76a914a25dec4d0011064ef106a983c39c7a540699f22088ac", "addresses": ["1FoWyxwPXuj4C6abqwhjDWdz6D4PZgYRjA"], "asm": "OP_DUP OP_HASH160 a25dec4d0011064ef106a983c39c7a540699f220 OP_EQUALVERIFY OP_CHECKSIG", "type": "pubkeyhash"}, "value": 0.01980768, "n": 1}, {"scriptPubKey": {"reqSigs": 1, "hex": "76a9144710e377dc7d7169c1b8af6bd6be40b4f656513a88ac", "addresses": ["17UmD4JADhen1SraiKNKX1QCivxJHm6eB6"], "asm": "OP_DUP OP_HASH160 4710e377dc7d7169c1b8af6bd6be40b4f656513a OP_EQUALVERIFY OP_CHECKSIG", "type": "pubkeyhash"}, "value": 5.46e-06, "n": 2}], "hex": "0100000001155af778666be3d77e04677bfe26d40071640a9f465d5f70f81ba27d84d050f8020000006b483045022100abce7ad60334369def236ae570c3e37514b4c5c7b73102ee89fc7b044193533302202ef2faf0f1aa5b9b89aa0bb584bc422c9b94234389d5eec7cf69fda9a01ea6a6012103da5bac7b36d5aa38f531c6b9601e21bb598a4b6716ebed38b009a55dabde9440feffffff030000000000000000166a146f6d6e69000000000000001f00000022d906f58060391e00000000001976a914a25dec4d0011064ef106a983c39c7a540699f22088ac22020000000000001976a9144710e377dc7d7169c1b8af6bd6be40b4f656513a88ac16490800", "vin": [{"sequence": 4294967294, "scriptSig": {"hex": "483045022100abce7ad60334369def236ae570c3e37514b4c5c7b73102ee89fc7b044193533302202ef2faf0f1aa5b9b89aa0bb584bc422c9b94234389d5eec7cf69fda9a01ea6a6012103da5bac7b36d5aa38f531c6b9601e21bb598a4b6716ebed38b009a55dabde9440", "asm": "3045022100abce7ad60334369def236ae570c3e37514b4c5c7b73102ee89fc7b044193533302202ef2faf0f1aa5b9b89aa0bb584bc422c9b94234389d5eec7cf69fda9a01ea6a6[ALL] 03da5bac7b36d5aa38f531c6b9601e21bb598a4b6716ebed38b009a55dabde9440"}, "vout": 2, "txid": "f850d0847da21bf8705f5d469f0a647100d426fe7b67047ed7e36b6678f75a15"}], "txid": "802cac31fa6cec89624f0a626abc6665ff6d67d48cb124a77137c8cd044e3e97", "blocktime": 1537875543, "version": 1, "confirmations": 11464, "time": 1537875543, "locktime": 542998, "vsize": 257, "size": 257}