{"hash": "ec16d63c0c6ca2fc86eea5138f98325324d86f1c69cf7a9e39cceddbcede2871", "blockhash": "000000000000000000022b45ed06c6f4ccd3cf7fb5ba4856ebd2e58215665228", "vout": [{"scriptPubKey": {"reqSigs": 1, "hex": "a9142f9e204d5c604a3b7e06496f91bdf67de68a237987", "addresses": ["362o7MoKALpLM3B87QgEsWPTxkLMhsiwny"], "asm": "OP_HASH160 2f9e204d5c604a3b7e06496f91bdf67de68a2379 OP_EQUAL", "type": "scripthash"}, "value": 0.01000003, "n": 0}, {"scriptPubKey": {"reqSigs": 1, "hex": "76a914f59922e130f6a11712ce45cba13dcbc39042c61088ac", "addresses": ["1PPc16Jwxm8mY8uQZB3PzDSpHcgeaxhiY2"], "asm": "OP_DUP OP_HASH160 f59922e130f6a11712ce45cba13dcbc39042c610 OP_EQUALVERIFY OP_CHECKSIG", "type": "pubkeyhash"}, "value": 0.0027406, "n": 1}], "hex": "0200000000010233d94aaccbf9ee6a5370108723654549db139389747e063578eb2ecc41a3f1a60d000000171600145107163c583bba0ba5eafe4c87f9991616ada74cfeffffff8a4d8da0f81ae2124b4c18273be68834405fc7f65f00121bb2be4440e2ce00e20000000017160014fea8516555cf336a9b335423b13419af2b1dc68ffeffffff0243420f000000000017a9142f9e204d5c604a3b7e06496f91bdf67de68a2379878c2e0400000000001976a914f59922e130f6a11712ce45cba13dcbc39042c61088ac02483045022100ba227c9bb4ee1843c8aa0dd2cf4a14d3f2671d1f1fc3e9115d81f9ca3c75c636022067ccadf883f91384b7953905d07862eea3e9b78bcfc683a239335b0e088ed3b901210341114da7102691b8849d47ad4bfa38895dc7cdd517d472900fb19db01799987102483045022100aa3d9fbae808aeed89cc3961178507f5376d36ae8125b0cf81ff783e9d8569350220230c1b1dfabc7ee60a0322e6b737bcae0d6cc4932d8dc3b8ac55698df1ff25e10121026652996d57ea42aa4a7eebe026ff7a5a9ab93fac2a76e1f874c8df88f4a747c50b490800", "vin": [{"txinwitness": ["3045022100ba227c9bb4ee1843c8aa0dd2cf4a14d3f2671d1f1fc3e9115d81f9ca3c75c636022067ccadf883f91384b7953905d07862eea3e9b78bcfc683a239335b0e088ed3b901", "0341114da7102691b8849d47ad4bfa38895dc7cdd517d472900fb19db017999871"], "sequence": 4294967294, "scriptSig": {"hex": "1600145107163c583bba0ba5eafe4c87f9991616ada74c", "asm": "00145107163c583bba0ba5eafe4c87f9991616ada74c"}, "vout": 13, "txid": "a6f1a341cc2eeb7835067e74899313db49456523871070536aeef9cbac4ad933"}, {"txinwitness": ["3045022100aa3d9fbae808aeed89cc3961178507f5376d36ae8125b0cf81ff783e9d8569350220230c1b1dfabc7ee60a0322e6b737bcae0d6cc4932d8dc3b8ac55698df1ff25e101", "026652996d57ea42aa4a7eebe026ff7a5a9ab93fac2a76e1f874c8df88f4a747c5"], "sequence": 4294967294, "scriptSig": {"hex": "160014fea8516555cf336a9b335423b13419af2b1dc68f", "asm": "0014fea8516555cf336a9b335423b13419af2b1dc68f"}, "vout": 0, "txid": "e200cee24044beb21b12005ff6c75f403488e63b27184c4b12e21af8a08d4d8a"}], "txid": "803d3b95c06ddf2d1aaaafc92aefd5f8c0b6ab44b58e89d639121623917d3266", "blocktime": 1537869901, "version": 2, "confirmations": 11524, "time": 1537869901, "locktime": 542987, "vsize": 259, "size": 422}