{"hash": "803e3492d79bef57b3ba1c8d7735ef2d35d367fa8f7ad1cbc3a65e15636893e4", "blockhash": "0000000000000000000dcc0f55137456b1a82d3642486a52398922ac4d620174", "vout": [{"scriptPubKey": {"reqSigs": 1, "hex": "a9140ed75480246054f7940a6dd205989a9abd5eea4c87", "addresses": ["333VLdEwMUVYFNSE2FaU88VVVjfoz7HeUR"], "asm": "OP_HASH160 0ed75480246054f7940a6dd205989a9abd5eea4c OP_EQUAL", "type": "scripthash"}, "value": 0.00848768, "n": 0}, {"scriptPubKey": {"reqSigs": 1, "hex": "76a9147ba9c8d9a8fe1a85e75ab1d1c34335ef0b8358c088ac", "addresses": ["1CGsWSArRFrWKdHkyrMftvCFUU9GrB5neU"], "asm": "OP_DUP OP_HASH160 7ba9c8d9a8fe1a85e75ab1d1c34335ef0b8358c0 OP_EQUALVERIFY OP_CHECKSIG", "type": "pubkeyhash"}, "value": 0.00032072, "n": 1}], "hex": "0100000001cc6ad962c23adeeeebb9dadf0654eb6a95bbe5ab9b6b0abfe0e9fd5f91558cc900000000db004830450221008bcabacdbb279e38e92471bb749e39ff2b1af4c09149ab0846933fb4f374776202204c3e40fa01c51359c7cb94e73018a803b7afee55f26680121e5675a9f7846e9401483045022100d768ba1a74eafde1668bbf830132789314c0abc68ce0597e1a821ccc1113d2e202205d8c4653f7acfef350108a3aa8f043a49984f89900f612bd508a9f39119142d80147522102907a54bed8ad74b3f35638c60114ca240a308cb986f3f2f306178869a8880b612102f6d58c059e29fd8f6acfa203771811ee5473ccdce57261ee1a5d7b51ebf127cf52aeffffffff0280f30c000000000017a9140ed75480246054f7940a6dd205989a9abd5eea4c87487d0000000000001976a9147ba9c8d9a8fe1a85e75ab1d1c34335ef0b8358c088ac00000000", "vin": [{"sequence": 4294967295, "scriptSig": {"hex": "004830450221008bcabacdbb279e38e92471bb749e39ff2b1af4c09149ab0846933fb4f374776202204c3e40fa01c51359c7cb94e73018a803b7afee55f26680121e5675a9f7846e9401483045022100d768ba1a74eafde1668bbf830132789314c0abc68ce0597e1a821ccc1113d2e202205d8c4653f7acfef350108a3aa8f043a49984f89900f612bd508a9f39119142d80147522102907a54bed8ad74b3f35638c60114ca240a308cb986f3f2f306178869a8880b612102f6d58c059e29fd8f6acfa203771811ee5473ccdce57261ee1a5d7b51ebf127cf52ae", "asm": "0 30450221008bcabacdbb279e38e92471bb749e39ff2b1af4c09149ab0846933fb4f374776202204c3e40fa01c51359c7cb94e73018a803b7afee55f26680121e5675a9f7846e94[ALL] 3045022100d768ba1a74eafde1668bbf830132789314c0abc68ce0597e1a821ccc1113d2e202205d8c4653f7acfef350108a3aa8f043a49984f89900f612bd508a9f39119142d8[ALL] 522102907a54bed8ad74b3f35638c60114ca240a308cb986f3f2f306178869a8880b612102f6d58c059e29fd8f6acfa203771811ee5473ccdce57261ee1a5d7b51ebf127cf52ae"}, "vout": 0, "txid": "c98c55915ffde9e0bf0a6b9babe5bb956aeb5406dfdab9ebeede3ac262d96acc"}], "txid": "803e3492d79bef57b3ba1c8d7735ef2d35d367fa8f7ad1cbc3a65e15636893e4", "blocktime": 1537870268, "version": 1, "confirmations": 11518, "time": 1537870268, "locktime": 0, "vsize": 336, "size": 336}