{"hash": "4408dd323cb72a21ff02e172ee25700e9f04402881bdf4170323357c214d1776", "blockhash": "0000000000000000001f76057863aec43deb6fa401d9628bb513d65a8098bfab", "vout": [{"scriptPubKey": {"reqSigs": 1, "hex": "a914b61339e6bf308158902bec145ed7e3e5a5eb6cc087", "addresses": ["3JHjwKEFEu9jxun5rCvfyEj23QR1LbGaxw"], "asm": "OP_HASH160 b61339e6bf308158902bec145ed7e3e5a5eb6cc0 OP_EQUAL", "type": "scripthash"}, "value": 0.0105895, "n": 0}, {"scriptPubKey": {"reqSigs": 1, "hex": "76a914d8880c5e7196026aa113532dc7e4018081061ff188ac", "addresses": ["1LjuwEowZjA2ZuA9iFFeZmUYZgLgEzBjbn"], "asm": "OP_DUP OP_HASH160 d8880c5e7196026aa113532dc7e4018081061ff1 OP_EQUALVERIFY OP_CHECKSIG", "type": "pubkeyhash"}, "value": 0.0024666, "n": 1}], "hex": "02000000000102499efa27a6f633d21ef63cae3fe2c42b4effd29fa28d80f2c554a637487e20410000000017160014b8ad5fe24a89297c7c547cec6c3cfcddf8fd7d73feffffff6b69df73b7d03be4a212bc41942f678380e067ca6501f17d25417da4ed0b89e70000000017160014c6cce0e9dded19bc347b23b068d994d31db93274feffffff02862810000000000017a914b61339e6bf308158902bec145ed7e3e5a5eb6cc08784c30300000000001976a914d8880c5e7196026aa113532dc7e4018081061ff188ac02483045022100d69294267825be1daeafe4e3c416c52be61e9613d2757c2dcdc736960223507b02201b03a8e9e8dfe370a773bd6f5019c572ec998a02ed13ae2ec4c720253891e382012103d7cf6c0c4563fa24d87e9558b529561e04e1fb0576cd41650e5683dd3f5e0ad702483045022100ffd684dd2e98c8e06ea015c63701239f2f3fd11fe89684833ed666ee55a4670302203e2fd354ae0f592b0f40ab3d5149e001c52c9526098a8bf0b110b3e8efb35db6012102a968548f33866fa2653920b376eb3c1277be30aac3e7bc4735b6484b0da7b9a914490800", "vin": [{"txinwitness": ["3045022100d69294267825be1daeafe4e3c416c52be61e9613d2757c2dcdc736960223507b02201b03a8e9e8dfe370a773bd6f5019c572ec998a02ed13ae2ec4c720253891e38201", "03d7cf6c0c4563fa24d87e9558b529561e04e1fb0576cd41650e5683dd3f5e0ad7"], "sequence": 4294967294, "scriptSig": {"hex": "160014b8ad5fe24a89297c7c547cec6c3cfcddf8fd7d73", "asm": "0014b8ad5fe24a89297c7c547cec6c3cfcddf8fd7d73"}, "vout": 0, "txid": "41207e4837a654c5f2808da29fd2ff4e2bc4e23fae3cf61ed233f6a627fa9e49"}, {"txinwitness": ["3045022100ffd684dd2e98c8e06ea015c63701239f2f3fd11fe89684833ed666ee55a4670302203e2fd354ae0f592b0f40ab3d5149e001c52c9526098a8bf0b110b3e8efb35db601", "02a968548f33866fa2653920b376eb3c1277be30aac3e7bc4735b6484b0da7b9a9"], "sequence": 4294967294, "scriptSig": {"hex": "160014c6cce0e9dded19bc347b23b068d994d31db93274", "asm": "0014c6cce0e9dded19bc347b23b068d994d31db93274"}, "vout": 0, "txid": "e7890beda47d41257df10165ca67e08083672f9441bc12a2e43bd0b773df696b"}], "txid": "80448c174bfa311723d3e6482fd8cfe6d6095c604cd317a0e62a026d165fb396", "blocktime": 1537873891, "version": 2, "confirmations": 11478, "time": 1537873891, "locktime": 542996, "vsize": 259, "size": 422}