{"hash": "80496b0d9b07ec5ba4b12d777de93d4b51f4c172cb61ebb86f7effc76a63204c", "blockhash": "0000000000000000000dcc0f55137456b1a82d3642486a52398922ac4d620174", "vout": [{"scriptPubKey": {"reqSigs": 1, "hex": "76a914d4825301abdb2569a573c5f24d1aad3d1ef3df2988ac", "addresses": ["1LNeNkonMRQGa4DyRWyf3GjptLcoaZTnH1"], "asm": "OP_DUP OP_HASH160 d4825301abdb2569a573c5f24d1aad3d1ef3df29 OP_EQUALVERIFY OP_CHECKSIG", "type": "pubkeyhash"}, "value": 1.091e-05, "n": 0}, {"scriptPubKey": {"reqSigs": 1, "hex": "76a914cea9a7c4535ea94dc66284bbc3e48e1bb2b837ab88ac", "addresses": ["1KqjSNrEr8XGQP43hGwL9HwCUZCTStQStL"], "asm": "OP_DUP OP_HASH160 cea9a7c4535ea94dc66284bbc3e48e1bb2b837ab OP_EQUALVERIFY OP_CHECKSIG", "type": "pubkeyhash"}, "value": 0.03345555, "n": 1}], "hex": "0100000001005ce73796969917f11566ad5b1a0a69f8108bae014df96b489fc672330302e4010000006a47304402205547935eebb3b8d305eddc5dd12d852763c862c10ab454d2f8145de28764c1c802202feda287049b99b2783fba9ccc968f0e8d53439d1107b39b8788e46e931aa8040121020fd5494401c6c866a886fd1c8d05824ffc56c320867d92e44b35c1802938212cffffffff0243040000000000001976a914d4825301abdb2569a573c5f24d1aad3d1ef3df2988ac930c3300000000001976a914cea9a7c4535ea94dc66284bbc3e48e1bb2b837ab88ac00000000", "vin": [{"sequence": 4294967295, "scriptSig": {"hex": "47304402205547935eebb3b8d305eddc5dd12d852763c862c10ab454d2f8145de28764c1c802202feda287049b99b2783fba9ccc968f0e8d53439d1107b39b8788e46e931aa8040121020fd5494401c6c866a886fd1c8d05824ffc56c320867d92e44b35c1802938212c", "asm": "304402205547935eebb3b8d305eddc5dd12d852763c862c10ab454d2f8145de28764c1c802202feda287049b99b2783fba9ccc968f0e8d53439d1107b39b8788e46e931aa804[ALL] 020fd5494401c6c866a886fd1c8d05824ffc56c320867d92e44b35c1802938212c"}, "vout": 1, "txid": "e402033372c69f486bf94d01ae8b10f8690a1a5bad6615f11799969637e75c00"}], "txid": "80496b0d9b07ec5ba4b12d777de93d4b51f4c172cb61ebb86f7effc76a63204c", "blocktime": 1537870268, "version": 1, "confirmations": 11518, "time": 1537870268, "locktime": 0, "vsize": 225, "size": 225}