{"hash": "1bf400b9f7b5fcf1761452d66d11e70e95004b1595435c21e7d8997865bee16b", "blockhash": "0000000000000000000e13cef7c366c0283d82e591d1acd082e914b08063cdf1", "vout": [{"scriptPubKey": {"reqSigs": 1, "hex": "a9141b7004a4130bc07ccebee83fc899a6d4ddfaee7987", "addresses": ["34C6MswsTAK4RXXQtnjTFCfMiPG6e4ahwU"], "asm": "OP_HASH160 1b7004a4130bc07ccebee83fc899a6d4ddfaee79 OP_EQUAL", "type": "scripthash"}, "value": 0.249943, "n": 0}, {"scriptPubKey": {"reqSigs": 1, "hex": "a914e66e4199afbaa73d69ea7964d710ba9ab7bc391887", "addresses": ["3NhRRQMGcjY2xJgMNtBQV19ovJGrsSe9PT"], "asm": "OP_HASH160 e66e4199afbaa73d69ea7964d710ba9ab7bc3918 OP_EQUAL", "type": "scripthash"}, "value": 0.0179893, "n": 1}, {"scriptPubKey": {"reqSigs": 1, "hex": "a914c8b6825f9563feb7dbba1c7cf0b6705536056c7f87", "addresses": ["3KzHhsn7ysxmfKCwxznr29CHHVGKFrXvYP"], "asm": "OP_HASH160 c8b6825f9563feb7dbba1c7cf0b6705536056c7f OP_EQUAL", "type": "scripthash"}, "value": 0.0032, "n": 2}, {"scriptPubKey": {"reqSigs": 1, "hex": "a914f2c7303970acf58cf135bfcbf6343e17349f37fc87", "addresses": ["3Ppi4pP8mohh9hsPY4jjoaBB3KDUffaqGE"], "asm": "OP_HASH160 f2c7303970acf58cf135bfcbf6343e17349f37fc OP_EQUAL", "type": "scripthash"}, "value": 0.00773986, "n": 3}], "hex": "02000000000101030d6361bd40cb2b4e348bfaa7722671d097c981a148518e528adfa265612780010000001716001411ac0b7e0f371c701ed068f8017475df711910d7feffffff04fc617d010000000017a9141b7004a4130bc07ccebee83fc899a6d4ddfaee798712731b000000000017a914e66e4199afbaa73d69ea7964d710ba9ab7bc39188700e204000000000017a914c8b6825f9563feb7dbba1c7cf0b6705536056c7f8762cf0b000000000017a914f2c7303970acf58cf135bfcbf6343e17349f37fc8702483045022100919d1622bc895f3de930a24e552bb41c244f701d24cc88d4d1049234fa62fb3302207165a23243ee6311e90c86577ee6e2ab0d191a41b69be3da975de07bc15497cc0121025a877e5223fb92483902cd0399dd3c8c178df0e1c910d86d97b466480ca2f5c910490800", "vin": [{"txinwitness": ["3045022100919d1622bc895f3de930a24e552bb41c244f701d24cc88d4d1049234fa62fb3302207165a23243ee6311e90c86577ee6e2ab0d191a41b69be3da975de07bc15497cc01", "025a877e5223fb92483902cd0399dd3c8c178df0e1c910d86d97b466480ca2f5c9"], "sequence": 4294967294, "scriptSig": {"hex": "16001411ac0b7e0f371c701ed068f8017475df711910d7", "asm": "001411ac0b7e0f371c701ed068f8017475df711910d7"}, "vout": 1, "txid": "80276165a2df8a528e5148a181c997d0712672a7fa8b344e2bcb40bd61630d03"}], "txid": "8049d8491c6d254dcd285ec411e1892893186230db88c22fded00f4c1faab397", "blocktime": 1537871767, "version": 2, "confirmations": 11490, "time": 1537871767, "locktime": 542992, "vsize": 230, "size": 312}