{"hash": "805e29e951d7ef71f5868a2c4ce12ccfb80c2522f1ea8e25b4f9befcbf147113", "blockhash": "0000000000000000000dcc0f55137456b1a82d3642486a52398922ac4d620174", "vout": [{"scriptPubKey": {"reqSigs": 1, "hex": "76a9142b816f8669a0a2093ace1e208f34f5ba3744455288ac", "addresses": ["14y37bWUH7mPtfaoEVpyVMmdK35Q4i6R2M"], "asm": "OP_DUP OP_HASH160 2b816f8669a0a2093ace1e208f34f5ba37444552 OP_EQUALVERIFY OP_CHECKSIG", "type": "pubkeyhash"}, "value": 0.0034098, "n": 0}, {"scriptPubKey": {"reqSigs": 1, "hex": "a9147ae023c5a399b169499b867c455808c55c47b04a87", "addresses": ["3CtisSz9UPbnY3kffukt1QFVShZN3yaAD7"], "asm": "OP_HASH160 7ae023c5a399b169499b867c455808c55c47b04a OP_EQUAL", "type": "scripthash"}, "value": 0.00999837, "n": 1}], "hex": "02000000000102305ee7ef07e6d1de43e93f356f4ada5879bd9df329533ac27c5918860d13de990d0000001716001456a36fae582c2631d96b165420aa8b0f20a6fc45feffffff35eae02a1dd7025ff21c411ea3ef0dffbaa23a1d6e03527e90cf343ef5aae33e010000001716001401ecf49638c680e8637751920bfba8ea07262bc2feffffff02f4330500000000001976a9142b816f8669a0a2093ace1e208f34f5ba3744455288ac9d410f000000000017a9147ae023c5a399b169499b867c455808c55c47b04a8702483045022100d4b8e43d7d6a4d4bb31188cd621b0f5d9a04d501753a2cc8b02b0824b8d75ea7022069d18ee2ba935d6439ef2ddbd089d86336338c6d8705d84ef8d81e3752889673012103a614cc9922df4215f25a158ac3c7e942fb0201a8c3cd456cbd62584d2866994202483045022100ca4126cb621559b9f100679650a2b54916475af639bcff992b54bfd8da3df9af02204a09af498f3d910410fc6acaceae34e11622950c1eea3e4d8c9348d548c590f4012103edffc02f4ca9786926d00cfe49c1497990e4e37ca74feea7a4dee0f765ebbe2db9480800", "vin": [{"txinwitness": ["3045022100d4b8e43d7d6a4d4bb31188cd621b0f5d9a04d501753a2cc8b02b0824b8d75ea7022069d18ee2ba935d6439ef2ddbd089d86336338c6d8705d84ef8d81e375288967301", "03a614cc9922df4215f25a158ac3c7e942fb0201a8c3cd456cbd62584d28669942"], "sequence": 4294967294, "scriptSig": {"hex": "16001456a36fae582c2631d96b165420aa8b0f20a6fc45", "asm": "001456a36fae582c2631d96b165420aa8b0f20a6fc45"}, "vout": 13, "txid": "99de130d8618597cc23a5329f39dbd7958da4a6f353fe943ded1e607efe75e30"}, {"txinwitness": ["3045022100ca4126cb621559b9f100679650a2b54916475af639bcff992b54bfd8da3df9af02204a09af498f3d910410fc6acaceae34e11622950c1eea3e4d8c9348d548c590f401", "03edffc02f4ca9786926d00cfe49c1497990e4e37ca74feea7a4dee0f765ebbe2d"], "sequence": 4294967294, "scriptSig": {"hex": "16001401ecf49638c680e8637751920bfba8ea07262bc2", "asm": "001401ecf49638c680e8637751920bfba8ea07262bc2"}, "vout": 1, "txid": "3ee3aaf53e34cf907e52036e1d3aa2baff0defa31e411cf25f02d71d2ae0ea35"}], "txid": "804ec03e912c505aef8e21fbe3bd9e575a1ae20186de196c0d98491ca6b28c8c", "blocktime": 1537870268, "version": 2, "confirmations": 11520, "time": 1537870268, "locktime": 542905, "vsize": 259, "size": 422}