{"hash": "c5ecb14acd46431cd44f13fb82833430a3dfdaa37035a51cf76d6cfdf49bf392", "blockhash": "00000000000000000017f5eb5941039fbcee6240d03bc1f2f8e35350df66a1d8", "vout": [{"scriptPubKey": {"reqSigs": 1, "hex": "a91495fdbe4f261678a166c258f272cef26a42a4943a87", "addresses": ["3FN6aXVxoy1LEABk1kuZYNHh8uxjSwZenw"], "asm": "OP_HASH160 95fdbe4f261678a166c258f272cef26a42a4943a OP_EQUAL", "type": "scripthash"}, "value": 0.02203458, "n": 0}, {"scriptPubKey": {"reqSigs": 1, "hex": "a9147d7d2b5410a2c874e8ca5352225bf483714f9c7f87", "addresses": ["3D8YLSAJVX8uJhTkYwohNmynAKq1i3JasZ"], "asm": "OP_HASH160 7d7d2b5410a2c874e8ca5352225bf483714f9c7f OP_EQUAL", "type": "scripthash"}, "value": 0.01005178, "n": 1}], "hex": "020000000001023413a25922b9fa2818e948edce7c44ea9aa6ff945ce6fef438bab159bda4307800000000171600142fdb437c6e13bc4589b0b4dd574610c23176ee90feffffffd4ff58c7b175adb0b96a23ff5544939b6873a6babd32c2641fee7b4e7e8d49890100000017160014197090ffbd5be0351a3b8e2f2c874fb8c07e8ce1feffffff02429f21000000000017a91495fdbe4f261678a166c258f272cef26a42a4943a877a560f000000000017a9147d7d2b5410a2c874e8ca5352225bf483714f9c7f870247304402206bb4d07fbe572da43ab3d3a121536a9884b8d31106ad467f5e11c936b098a80d02201a078f3671479f40cab54944576d416c6d3150e309d9904ffb9671100d1c0fa70121037aa9e74469cb1323c5c7f73cab27851351e808136ad8638af897b3d7672c1f5f02483045022100e63401f3ac56624e43129aec3e4414aec03044de8f9d5c720206a5dcbbf13f87022079abea0722e05c50fd329ff7aef9ca4ace0f51a5fb9b99146dbf20119b2f85ff0121029c502e8551f98821c442cc0fb88fd890204f0f968201c55c9e9a9738305debe913490800", "vin": [{"txinwitness": ["304402206bb4d07fbe572da43ab3d3a121536a9884b8d31106ad467f5e11c936b098a80d02201a078f3671479f40cab54944576d416c6d3150e309d9904ffb9671100d1c0fa701", "037aa9e74469cb1323c5c7f73cab27851351e808136ad8638af897b3d7672c1f5f"], "sequence": 4294967294, "scriptSig": {"hex": "1600142fdb437c6e13bc4589b0b4dd574610c23176ee90", "asm": "00142fdb437c6e13bc4589b0b4dd574610c23176ee90"}, "vout": 0, "txid": "7830a4bd59b1ba38f4fee65c94ffa69aea447cceed48e91828fab92259a21334"}, {"txinwitness": ["3045022100e63401f3ac56624e43129aec3e4414aec03044de8f9d5c720206a5dcbbf13f87022079abea0722e05c50fd329ff7aef9ca4ace0f51a5fb9b99146dbf20119b2f85ff01", "029c502e8551f98821c442cc0fb88fd890204f0f968201c55c9e9a9738305debe9"], "sequence": 4294967294, "scriptSig": {"hex": "160014197090ffbd5be0351a3b8e2f2c874fb8c07e8ce1", "asm": "0014197090ffbd5be0351a3b8e2f2c874fb8c07e8ce1"}, "vout": 1, "txid": "89498d7e4e7bee1f64c232bdbaa673689b934455ff236ab9b0ad75b1c758ffd4"}], "txid": "80550e6fe6b1f8f7557ea505aec5fc7cae7eaa4b51ee751ba48802a3580240fe", "blocktime": 1537874412, "version": 2, "confirmations": 11468, "time": 1537874412, "locktime": 542995, "vsize": 257, "size": 419}