{"hash": "80599e6bc7d5bf632e028c6e422c2f31678a4369ad39f534c2f9b582c4ec68a6", "blockhash": "0000000000000000000dcc0f55137456b1a82d3642486a52398922ac4d620174", "vout": [{"scriptPubKey": {"reqSigs": 1, "hex": "76a914a25dec4d0011064ef106a983c39c7a540699f22088ac", "addresses": ["1FoWyxwPXuj4C6abqwhjDWdz6D4PZgYRjA"], "asm": "OP_DUP OP_HASH160 a25dec4d0011064ef106a983c39c7a540699f220 OP_EQUALVERIFY OP_CHECKSIG", "type": "pubkeyhash"}, "value": 0.01980784, "n": 0}, {"scriptPubKey": {"type": "nulldata", "hex": "6a146f6d6e69000000000000001f0000001bf08eb000", "asm": "OP_RETURN 6f6d6e69000000000000001f0000001bf08eb000"}, "value": 0.0, "n": 1}, {"scriptPubKey": {"reqSigs": 1, "hex": "76a914259dcfb78ab78fe6abaae163bba8410d3e2718ee88ac", "addresses": ["14Ru42VEgMmHswLkEhdaML4mogLLYCeQeB"], "asm": "OP_DUP OP_HASH160 259dcfb78ab78fe6abaae163bba8410d3e2718ee OP_EQUALVERIFY OP_CHECKSIG", "type": "pubkeyhash"}, "value": 5.46e-06, "n": 2}], "hex": "010000000183930180ab8065470644cda731dc062c1b635c517c9de6a3e0c5b02ea5f89e2d010000006a473044022038071c59138a8d5e09351ad8814dd2cc3d42ede930dfb635f0f8bbcb4025426e0220606c84341c7fad8da66fddb7b5bb4f8d1be7e39d9e236609490f0295618ae64a012103da5bac7b36d5aa38f531c6b9601e21bb598a4b6716ebed38b009a55dabde9440feffffff0370391e00000000001976a914a25dec4d0011064ef106a983c39c7a540699f22088ac0000000000000000166a146f6d6e69000000000000001f0000001bf08eb00022020000000000001976a914259dcfb78ab78fe6abaae163bba8410d3e2718ee88ac0b490800", "vin": [{"sequence": 4294967294, "scriptSig": {"hex": "473044022038071c59138a8d5e09351ad8814dd2cc3d42ede930dfb635f0f8bbcb4025426e0220606c84341c7fad8da66fddb7b5bb4f8d1be7e39d9e236609490f0295618ae64a012103da5bac7b36d5aa38f531c6b9601e21bb598a4b6716ebed38b009a55dabde9440", "asm": "3044022038071c59138a8d5e09351ad8814dd2cc3d42ede930dfb635f0f8bbcb4025426e0220606c84341c7fad8da66fddb7b5bb4f8d1be7e39d9e236609490f0295618ae64a[ALL] 03da5bac7b36d5aa38f531c6b9601e21bb598a4b6716ebed38b009a55dabde9440"}, "vout": 1, "txid": "2d9ef8a52eb0c5e0a3e69d7c515c631b2c06dc31a7cd4406476580ab80019383"}], "txid": "80599e6bc7d5bf632e028c6e422c2f31678a4369ad39f534c2f9b582c4ec68a6", "blocktime": 1537870268, "version": 1, "confirmations": 11516, "time": 1537870268, "locktime": 542987, "vsize": 256, "size": 256}