{"hash": "7532d16491bf68978550b6068d694f9f09ea761c91e0b49c5b67b52f69d99346", "blockhash": "0000000000000000001f76057863aec43deb6fa401d9628bb513d65a8098bfab", "vout": [{"scriptPubKey": {"reqSigs": 1, "hex": "76a9142e1b944fe7ffbe969fc1df8d662fd7b5d6303c9b88ac", "addresses": ["15Co856cRnFRCKwSSzECoyT3ozVhuFoJZ6"], "asm": "OP_DUP OP_HASH160 2e1b944fe7ffbe969fc1df8d662fd7b5d6303c9b OP_EQUALVERIFY OP_CHECKSIG", "type": "pubkeyhash"}, "value": 0.0028636, "n": 0}, {"scriptPubKey": {"reqSigs": 1, "hex": "a914cf0dd81fa1c4f8b356f641610937779eed88375387", "addresses": ["3LZpPAdNHGQ9KcfDfykQeqPUCmG2CVmNuL"], "asm": "OP_HASH160 cf0dd81fa1c4f8b356f641610937779eed883753 OP_EQUAL", "type": "scripthash"}, "value": 0.01010767, "n": 1}], "hex": "020000000001025ab4bfa8168b641da69a7b29c095bb9e547b6028b0ec08bfaee8133cfbfd72be0100000017160014c925bd4d6d2c9a2ef7942ee2acec131b77c0823efeffffff9c0400a37b51f422a4138791790bbae34c771c3d35bcdba0030e042358b40b160900000017160014d8694794a7f3754deec068673308f025487db6c5feffffff02985e0400000000001976a9142e1b944fe7ffbe969fc1df8d662fd7b5d6303c9b88ac4f6c0f000000000017a914cf0dd81fa1c4f8b356f641610937779eed88375387024730440220367a501a22bc91c2030ad51284720285775f61d5ed36b5bbb397b368e246fb6f02203cd37dbe83018caaf56730529cee7eb7142dff7c35657c2130a72c47436b71ec01210263006eb99cec58adc3c184489cf05042bd15538c9eee08b5e3a2afccfb26d1f30247304402201e53e8d4215bdfc1620df66ed64717888c351d79a0ec776174e7ac1eac1bee7c02207b8b3d73cc2b48bcddf15e0f76af56d84e2d3724c0a7e3994ab8d73f12f961a70121026f3465d906674210d24034ee50384f9bc61337208fa418736751fec415ca62d414490800", "vin": [{"txinwitness": ["30440220367a501a22bc91c2030ad51284720285775f61d5ed36b5bbb397b368e246fb6f02203cd37dbe83018caaf56730529cee7eb7142dff7c35657c2130a72c47436b71ec01", "0263006eb99cec58adc3c184489cf05042bd15538c9eee08b5e3a2afccfb26d1f3"], "sequence": 4294967294, "scriptSig": {"hex": "160014c925bd4d6d2c9a2ef7942ee2acec131b77c0823e", "asm": "0014c925bd4d6d2c9a2ef7942ee2acec131b77c0823e"}, "vout": 1, "txid": "be72fdfb3c13e8aebf08ecb028607b549ebb95c0297b9aa61d648b16a8bfb45a"}, {"txinwitness": ["304402201e53e8d4215bdfc1620df66ed64717888c351d79a0ec776174e7ac1eac1bee7c02207b8b3d73cc2b48bcddf15e0f76af56d84e2d3724c0a7e3994ab8d73f12f961a701", "026f3465d906674210d24034ee50384f9bc61337208fa418736751fec415ca62d4"], "sequence": 4294967294, "scriptSig": {"hex": "160014d8694794a7f3754deec068673308f025487db6c5", "asm": "0014d8694794a7f3754deec068673308f025487db6c5"}, "vout": 9, "txid": "160bb45823040e03a0dbbc353d1c774ce3ba0b79918713a422f4517ba300049c"}], "txid": "8059491414561634b234743359c1ef62dddf4d24c7346f3ecde485fe84ac7084", "blocktime": 1537873891, "version": 2, "confirmations": 11478, "time": 1537873891, "locktime": 542996, "vsize": 258, "size": 420}