{"hash": "80605bd17be5e2b73b327655418ce4dc33f155523065072b1bbe8c31bc92a27a", "blockhash": "0000000000000000001cda96e906b7601b7a6fb1a3b62bca570a9e5d8f4b3de1", "vout": [{"scriptPubKey": {"reqSigs": 1, "hex": "76a91469754331acf1126c0c7051f700dffac8c2869bdb88ac", "addresses": ["1AccRgYxaEWknRbbapNemJRUWXHNv7uoXY"], "asm": "OP_DUP OP_HASH160 69754331acf1126c0c7051f700dffac8c2869bdb OP_EQUALVERIFY OP_CHECKSIG", "type": "pubkeyhash"}, "value": 0.00083495, "n": 0}, {"scriptPubKey": {"reqSigs": 1, "hex": "76a914c5cab0769620a6d4341bb648c2affd3ef0dd636d88ac", "addresses": ["1K2pvtfM2LVqux3Ds4eCpbAob3mtb2Gtn8"], "asm": "OP_DUP OP_HASH160 c5cab0769620a6d4341bb648c2affd3ef0dd636d OP_EQUALVERIFY OP_CHECKSIG", "type": "pubkeyhash"}, "value": 0.03430067, "n": 1}], "hex": "0100000002397c006727055e7ea91088513d53171469764ba065a4322d89278c5c38ad51a4000000006a47304402202c7062c8d880b6f18fc6e045eed8e794ee757539fb2810e8079033ef6098147f02201e7a0dc9378430b7fc2f16a45ed4b36dcc282a1ebaa7b5a36c1b3944c33dd6fe012103bbc67f1f46945e5bcb9ec89a4662d2c093f0f346bf8c9cd3ef2346586d7874b1ffffffff55908eb47b3658a4009f98d596532cbb1763a0328509043c8dda6d587271c1d8030000006a4730440220386100ec517c7467e2db885984da64037396860a2236eb49f6e2cdbe47b6ae9f02201325bc5d1ede610c4fa84c02e05128e8078e3263b2fde39c879e27f730f3409f012103c9a3f29b92b4a745b2301749ecb6dd3068cd6eb74ce08da297f8dbbf1434cbccffffffff0227460100000000001976a91469754331acf1126c0c7051f700dffac8c2869bdb88acb3563400000000001976a914c5cab0769620a6d4341bb648c2affd3ef0dd636d88ac00000000", "vin": [{"sequence": 4294967295, "scriptSig": {"hex": "47304402202c7062c8d880b6f18fc6e045eed8e794ee757539fb2810e8079033ef6098147f02201e7a0dc9378430b7fc2f16a45ed4b36dcc282a1ebaa7b5a36c1b3944c33dd6fe012103bbc67f1f46945e5bcb9ec89a4662d2c093f0f346bf8c9cd3ef2346586d7874b1", "asm": "304402202c7062c8d880b6f18fc6e045eed8e794ee757539fb2810e8079033ef6098147f02201e7a0dc9378430b7fc2f16a45ed4b36dcc282a1ebaa7b5a36c1b3944c33dd6fe[ALL] 03bbc67f1f46945e5bcb9ec89a4662d2c093f0f346bf8c9cd3ef2346586d7874b1"}, "vout": 0, "txid": "a451ad385c8c27892d32a465a04b76691417533d518810a97e5e052767007c39"}, {"sequence": 4294967295, "scriptSig": {"hex": "4730440220386100ec517c7467e2db885984da64037396860a2236eb49f6e2cdbe47b6ae9f02201325bc5d1ede610c4fa84c02e05128e8078e3263b2fde39c879e27f730f3409f012103c9a3f29b92b4a745b2301749ecb6dd3068cd6eb74ce08da297f8dbbf1434cbcc", "asm": "30440220386100ec517c7467e2db885984da64037396860a2236eb49f6e2cdbe47b6ae9f02201325bc5d1ede610c4fa84c02e05128e8078e3263b2fde39c879e27f730f3409f[ALL] 03c9a3f29b92b4a745b2301749ecb6dd3068cd6eb74ce08da297f8dbbf1434cbcc"}, "vout": 3, "txid": "d8c17172586dda8d3c04098532a06317bb2c5396d5989f00a458367bb48e9055"}], "txid": "80605bd17be5e2b73b327655418ce4dc33f155523065072b1bbe8c31bc92a27a", "blocktime": 1537873282, "version": 1, "confirmations": 11482, "time": 1537873282, "locktime": 0, "vsize": 372, "size": 372}