{"hash": "80610cb75146e80d08d16510263397b72b54c9db8fdc19bacd663ea7cd6c79aa", "blockhash": "0000000000000000001f76057863aec43deb6fa401d9628bb513d65a8098bfab", "vout": [{"scriptPubKey": {"reqSigs": 1, "hex": "76a91417e56e737aa446efdf6e9e20b83d8e6285f68a1988ac", "addresses": ["13BMPb9LCe42gtQDabU6x5c5cLqnd4spxK"], "asm": "OP_DUP OP_HASH160 17e56e737aa446efdf6e9e20b83d8e6285f68a19 OP_EQUALVERIFY OP_CHECKSIG", "type": "pubkeyhash"}, "value": 0.00251378, "n": 0}, {"scriptPubKey": {"reqSigs": 1, "hex": "76a914eab9bd02b91d3df790c807ac2a67b29aa1e8693b88ac", "addresses": ["1NQ7dDNK7iuQgNryrd1dyZE3FK9deupBbe"], "asm": "OP_DUP OP_HASH160 eab9bd02b91d3df790c807ac2a67b29aa1e8693b OP_EQUALVERIFY OP_CHECKSIG", "type": "pubkeyhash"}, "value": 0.0075085, "n": 1}], "hex": "010000000232cdc27ba9917f01bf0bedb8298fd132b509942cb2595391421eccb2eeb5765d000000006a4730440220409c51a70c92a0ad92472e576f79ac1be47e347a3b8c309006d3df6427377efb022035d708275ba0c7763b050e769c0ca8efc675e7d962f1605115f8fbec7091cebe01210278014892b5cbadfa84cc6c0682e18c95e74e98a42a20f252cf65a651fb5beda1ffffffff017c571689479e37d2c9b439eee219473e6c287ecd4514783214f2f0ef3cc4e1010000006a47304402205bdce910603d6cff21bcf4044956e50d093fa5122bca36130722019488153758022065a8380bb3f0aef8a606079d1a6b02f5257b0b7f7c5646393f3acc7b747dfa6201210278014892b5cbadfa84cc6c0682e18c95e74e98a42a20f252cf65a651fb5beda1ffffffff02f2d50300000000001976a91417e56e737aa446efdf6e9e20b83d8e6285f68a1988ac02750b00000000001976a914eab9bd02b91d3df790c807ac2a67b29aa1e8693b88ac00000000", "vin": [{"sequence": 4294967295, "scriptSig": {"hex": "4730440220409c51a70c92a0ad92472e576f79ac1be47e347a3b8c309006d3df6427377efb022035d708275ba0c7763b050e769c0ca8efc675e7d962f1605115f8fbec7091cebe01210278014892b5cbadfa84cc6c0682e18c95e74e98a42a20f252cf65a651fb5beda1", "asm": "30440220409c51a70c92a0ad92472e576f79ac1be47e347a3b8c309006d3df6427377efb022035d708275ba0c7763b050e769c0ca8efc675e7d962f1605115f8fbec7091cebe[ALL] 0278014892b5cbadfa84cc6c0682e18c95e74e98a42a20f252cf65a651fb5beda1"}, "vout": 0, "txid": "5d76b5eeb2cc1e42915359b22c9409b532d18f29b8ed0bbf017f91a97bc2cd32"}, {"sequence": 4294967295, "scriptSig": {"hex": "47304402205bdce910603d6cff21bcf4044956e50d093fa5122bca36130722019488153758022065a8380bb3f0aef8a606079d1a6b02f5257b0b7f7c5646393f3acc7b747dfa6201210278014892b5cbadfa84cc6c0682e18c95e74e98a42a20f252cf65a651fb5beda1", "asm": "304402205bdce910603d6cff21bcf4044956e50d093fa5122bca36130722019488153758022065a8380bb3f0aef8a606079d1a6b02f5257b0b7f7c5646393f3acc7b747dfa62[ALL] 0278014892b5cbadfa84cc6c0682e18c95e74e98a42a20f252cf65a651fb5beda1"}, "vout": 1, "txid": "e1c43ceff0f21432781445cd7e286c3e4719e2ee39b4c9d2379e478916577c01"}], "txid": "80610cb75146e80d08d16510263397b72b54c9db8fdc19bacd663ea7cd6c79aa", "blocktime": 1537873891, "version": 1, "confirmations": 11478, "time": 1537873891, "locktime": 0, "vsize": 372, "size": 372}