{"hash": "806bea0b8bbf5355762668efc29c4095276b560952ba1d4c50c08ddc44da46d4", "blockhash": "00000000000000000004ffacab907a6b429b9a5745fa0b75af4234bf69dd7176", "vout": [{"scriptPubKey": {"reqSigs": 1, "hex": "a9142017d4a050791b5ff5a660190a595958de526a9c87", "addresses": ["34ci6TbpL9THvcaV6H6Dj4nq4xtu6qS2wz"], "asm": "OP_HASH160 2017d4a050791b5ff5a660190a595958de526a9c OP_EQUAL", "type": "scripthash"}, "value": 0.01831867, "n": 0}, {"scriptPubKey": {"reqSigs": 1, "hex": "76a9144b6d46cf2a037505b2be8b3bc6f2688ada8b571588ac", "addresses": ["17spb4Pf278boeNQBoQWQ87YqqLDPJceZL"], "asm": "OP_DUP OP_HASH160 4b6d46cf2a037505b2be8b3bc6f2688ada8b5715 OP_EQUALVERIFY OP_CHECKSIG", "type": "pubkeyhash"}, "value": 1.08996226, "n": 1}], "hex": "01000000013a4345f52d1f4a3e2828d2c4656a31c7b0fe46a8654a39177b79dcc4d52fbba8010000006b483045022100a05e46dc3d52a62a3f9d471607b342e71bd8e9f642f0a582b4fdc969b885f0c8022064023c4fa5cfa166219aa8035306220ca6a47e7f33a75432f7ccb7c4dd020f87012102ecf37b80d637fd504be81450f3ee1a1e524006c7a3658d30f2579d27f10f7b92ffffffff02bbf31b000000000017a9142017d4a050791b5ff5a660190a595958de526a9c8782267f06000000001976a9144b6d46cf2a037505b2be8b3bc6f2688ada8b571588ac00000000", "vin": [{"sequence": 4294967295, "scriptSig": {"hex": "483045022100a05e46dc3d52a62a3f9d471607b342e71bd8e9f642f0a582b4fdc969b885f0c8022064023c4fa5cfa166219aa8035306220ca6a47e7f33a75432f7ccb7c4dd020f87012102ecf37b80d637fd504be81450f3ee1a1e524006c7a3658d30f2579d27f10f7b92", "asm": "3045022100a05e46dc3d52a62a3f9d471607b342e71bd8e9f642f0a582b4fdc969b885f0c8022064023c4fa5cfa166219aa8035306220ca6a47e7f33a75432f7ccb7c4dd020f87[ALL] 02ecf37b80d637fd504be81450f3ee1a1e524006c7a3658d30f2579d27f10f7b92"}, "vout": 1, "txid": "a8bb2fd5c4dc797b17394a65a846feb0c7316a65c4d228283e4a1f2df545433a"}], "txid": "806bea0b8bbf5355762668efc29c4095276b560952ba1d4c50c08ddc44da46d4", "blocktime": 1537875543, "version": 1, "confirmations": 11464, "time": 1537875543, "locktime": 0, "vsize": 224, "size": 224}