{"hash": "806dc0d5af3a1fa9d3054a3284a7adcdabe546e0c58653f29f02d17ad3a44a83", "blockhash": "00000000000000000004ffacab907a6b429b9a5745fa0b75af4234bf69dd7176", "vout": [{"scriptPubKey": {"reqSigs": 1, "hex": "76a9149cba3f8d03f8063ee7a2432a93f1d89eda79c48288ac", "addresses": ["1FHhXgUEEmJheNZK5Ca1qRRexwFWP9S3Bi"], "asm": "OP_DUP OP_HASH160 9cba3f8d03f8063ee7a2432a93f1d89eda79c482 OP_EQUALVERIFY OP_CHECKSIG", "type": "pubkeyhash"}, "value": 1.1, "n": 0}, {"scriptPubKey": {"reqSigs": 1, "hex": "76a91463fe16b0950d4c1766549a08a9845ca54474af5d88ac", "addresses": ["1A7iHNyVCJFM9XL5vHwpfYBJvM3bQAW96F"], "asm": "OP_DUP OP_HASH160 63fe16b0950d4c1766549a08a9845ca54474af5d OP_EQUALVERIFY OP_CHECKSIG", "type": "pubkeyhash"}, "value": 0.23416, "n": 1}], "hex": "0100000002e117adb1cfd2518807b034f711a37f24e95782e43cd40e4bcd69e4392ff1cd49010000006b483045022100e8e0da254727fa08ef7cb1f5d599570cf4aabd481757cb098edc6b01d5a9307b022064b4060f3aa2602eb39e9e8d9c942f3a2b28f022736ba48ea095ce9706bf57b10121036ecf95247be9a4365c23bd776757b7c3af9d8642359be5d8b131208b144729c9ffffffffe117adb1cfd2518807b034f711a37f24e95782e43cd40e4bcd69e4392ff1cd49000000006b483045022100d78d8db0340795d7db37ce6f9bdcfb0cf751214afd122ce672fbf6152306daf3022064d0aa7182b4c69fcbd54431bb3a7462a94b0bf6bb534e632e4f99dead3eb70b01210297350ee26a17716182e7843caa582c5b639fdb6d3183e8bd8903083389ba65c4ffffffff0280778e06000000001976a9149cba3f8d03f8063ee7a2432a93f1d89eda79c48288acc04c6501000000001976a91463fe16b0950d4c1766549a08a9845ca54474af5d88ac00000000", "vin": [{"sequence": 4294967295, "scriptSig": {"hex": "483045022100e8e0da254727fa08ef7cb1f5d599570cf4aabd481757cb098edc6b01d5a9307b022064b4060f3aa2602eb39e9e8d9c942f3a2b28f022736ba48ea095ce9706bf57b10121036ecf95247be9a4365c23bd776757b7c3af9d8642359be5d8b131208b144729c9", "asm": "3045022100e8e0da254727fa08ef7cb1f5d599570cf4aabd481757cb098edc6b01d5a9307b022064b4060f3aa2602eb39e9e8d9c942f3a2b28f022736ba48ea095ce9706bf57b1[ALL] 036ecf95247be9a4365c23bd776757b7c3af9d8642359be5d8b131208b144729c9"}, "vout": 1, "txid": "49cdf12f39e469cd4b0ed43ce48257e9247fa311f734b0078851d2cfb1ad17e1"}, {"sequence": 4294967295, "scriptSig": {"hex": "483045022100d78d8db0340795d7db37ce6f9bdcfb0cf751214afd122ce672fbf6152306daf3022064d0aa7182b4c69fcbd54431bb3a7462a94b0bf6bb534e632e4f99dead3eb70b01210297350ee26a17716182e7843caa582c5b639fdb6d3183e8bd8903083389ba65c4", "asm": "3045022100d78d8db0340795d7db37ce6f9bdcfb0cf751214afd122ce672fbf6152306daf3022064d0aa7182b4c69fcbd54431bb3a7462a94b0bf6bb534e632e4f99dead3eb70b[ALL] 0297350ee26a17716182e7843caa582c5b639fdb6d3183e8bd8903083389ba65c4"}, "vout": 0, "txid": "49cdf12f39e469cd4b0ed43ce48257e9247fa311f734b0078851d2cfb1ad17e1"}], "txid": "806dc0d5af3a1fa9d3054a3284a7adcdabe546e0c58653f29f02d17ad3a44a83", "blocktime": 1537875543, "version": 1, "confirmations": 11464, "time": 1537875543, "locktime": 0, "vsize": 374, "size": 374}