{"hash": "807416a03c79f2cee4b3a0daa32be961a327dad0281a2a132cbb53495ac418f2", "blockhash": "00000000000000000018f53835495a110e01622372bf6ae95dc86f2b0ab887b0", "vout": [{"scriptPubKey": {"reqSigs": 1, "hex": "76a914caeb1d2b67afd2c6e2e56bc6866c87bb27c31d3d88ac", "addresses": ["1KVw9kfsBJfmwms3T4WVNX7Y6nFHUhH5R5"], "asm": "OP_DUP OP_HASH160 caeb1d2b67afd2c6e2e56bc6866c87bb27c31d3d OP_EQUALVERIFY OP_CHECKSIG", "type": "pubkeyhash"}, "value": 2.0111275, "n": 0}], "hex": "0200000003ad1ea86877e35988c1294cb860dd010ff92d071321ebff7d65baedcf2504b638000000006b483045022100c635fb5894a9242abb33da65e7abd95c8cb0b350e9a6b7553651756784ff957a02205bb8a6873d11c4adec9bdd54ff40631b01eb9a2054c96e6cfd94df2e05efcfa0012103c852acb8556641a7f31891f601e3a7a0dbb4f3e41524655401d78a204c30eb7afeffffffdabc5fd9cbb50e9ffef3ff22a9dce9bac89d7137dfa86d6487292e0e1b40ea69000000006a47304402203c83fdb375533b65d9cfc02f23790341e2a6cc186caf686d25ff01f161bc2a1f022056ca51b9f23bd400c0929d908732d29961e353a49c3ad9075ba88a38209f37a20121022cba72c8adf82dd53b88a943c41f9039b8dce3ad41cca31c01497f03a2ce3f02fefffffffe229a3db974dcf4a8ebb6bf9d44afa367ccd826fe4289a40b4a0da59dccb2c9010000006a4730440220076e764b716dc048cc6ab40ac0bf0b08304a6a0e2fc2d38e5eed65f0cda0e5e90220355f45f2a65874365c2b4397e1d848e0c43b76e47ed449d93da75fae585c0206012103e0f034069bbb45df3af50a65382e6e296e8034962d36bed7208338dbf3864af0feffffff01aebcfc0b000000001976a914caeb1d2b67afd2c6e2e56bc6866c87bb27c31d3d88ac0e490800", "vin": [{"sequence": 4294967294, "scriptSig": {"hex": "483045022100c635fb5894a9242abb33da65e7abd95c8cb0b350e9a6b7553651756784ff957a02205bb8a6873d11c4adec9bdd54ff40631b01eb9a2054c96e6cfd94df2e05efcfa0012103c852acb8556641a7f31891f601e3a7a0dbb4f3e41524655401d78a204c30eb7a", "asm": "3045022100c635fb5894a9242abb33da65e7abd95c8cb0b350e9a6b7553651756784ff957a02205bb8a6873d11c4adec9bdd54ff40631b01eb9a2054c96e6cfd94df2e05efcfa0[ALL] 03c852acb8556641a7f31891f601e3a7a0dbb4f3e41524655401d78a204c30eb7a"}, "vout": 0, "txid": "38b60425cfedba657dffeb2113072df90f01dd60b84c29c18859e37768a81ead"}, {"sequence": 4294967294, "scriptSig": {"hex": "47304402203c83fdb375533b65d9cfc02f23790341e2a6cc186caf686d25ff01f161bc2a1f022056ca51b9f23bd400c0929d908732d29961e353a49c3ad9075ba88a38209f37a20121022cba72c8adf82dd53b88a943c41f9039b8dce3ad41cca31c01497f03a2ce3f02", "asm": "304402203c83fdb375533b65d9cfc02f23790341e2a6cc186caf686d25ff01f161bc2a1f022056ca51b9f23bd400c0929d908732d29961e353a49c3ad9075ba88a38209f37a2[ALL] 022cba72c8adf82dd53b88a943c41f9039b8dce3ad41cca31c01497f03a2ce3f02"}, "vout": 0, "txid": "69ea401b0e2e2987646da8df37719dc8bae9dca922fff3fe9f0eb5cbd95fbcda"}, {"sequence": 4294967294, "scriptSig": {"hex": "4730440220076e764b716dc048cc6ab40ac0bf0b08304a6a0e2fc2d38e5eed65f0cda0e5e90220355f45f2a65874365c2b4397e1d848e0c43b76e47ed449d93da75fae585c0206012103e0f034069bbb45df3af50a65382e6e296e8034962d36bed7208338dbf3864af0", "asm": "30440220076e764b716dc048cc6ab40ac0bf0b08304a6a0e2fc2d38e5eed65f0cda0e5e90220355f45f2a65874365c2b4397e1d848e0c43b76e47ed449d93da75fae585c0206[ALL] 03e0f034069bbb45df3af50a65382e6e296e8034962d36bed7208338dbf3864af0"}, "vout": 1, "txid": "c9b2cc9da50d4a0ba48942fe26d8cc67a3af449dbfb6eba8f4dc74b93d9a22fe"}], "txid": "807416a03c79f2cee4b3a0daa32be961a327dad0281a2a132cbb53495ac418f2", "blocktime": 1537870928, "version": 2, "confirmations": 11512, "time": 1537870928, "locktime": 542990, "vsize": 486, "size": 486}