{"hash": "80788cb3232d5c1b12dab6159e5bfccdbaca2ce7c04039f55e56f694275e747c", "blockhash": "00000000000000000004ffacab907a6b429b9a5745fa0b75af4234bf69dd7176", "vout": [{"scriptPubKey": {"reqSigs": 1, "hex": "a9148c076837c4ad482c306312c8241811e647bb610c87", "addresses": ["3ETRQ47Hbwj1Gcp5C3zeWgP2U5FNopsR3F"], "asm": "OP_HASH160 8c076837c4ad482c306312c8241811e647bb610c OP_EQUAL", "type": "scripthash"}, "value": 0.0056144, "n": 0}, {"scriptPubKey": {"reqSigs": 1, "hex": "76a914646c3c2893970889d900f610389139eec4e3a2a288ac", "addresses": ["1A9zEUyNfMzKkmBaJPUn6HQ4EyLMnPx5yy"], "asm": "OP_DUP OP_HASH160 646c3c2893970889d900f610389139eec4e3a2a2 OP_EQUALVERIFY OP_CHECKSIG", "type": "pubkeyhash"}, "value": 0.18120836, "n": 1}], "hex": "010000000293b32064e45037cdc6d31f2e772ec1b8b47592051b19cffba630d593f9920daf000000006b483045022100affd1ac863c69404c91ad19269017a216d946994e2f738cde54317f172d53fa002204dc0071250de891b00e3d54dff00276d7a5f0c46cf94e54d488d752be78d3019012103dd5643d8f367e8f6024fb50e6fed30344078d45c0fdbe4390012ff6075d27695ffffffffbe180a871154ac81dd6a816007d66a2bca9fed91e26de0dd2ff38644f7d122d5020000006b483045022100f52f7ebdc61e824471b70ff402bd1db7d40523b7467fbb69abea7e6dad1436d602206e66369caa21964bc9e6ae116f41bb4382644e1ffcbb6ed1998b252ba228a1a801210384d84cc99f3583f0c9aeb39263d14694017b1d2ea8744370e4ed4866e8810503ffffffff02209108000000000017a9148c076837c4ad482c306312c8241811e647bb610c8784801401000000001976a914646c3c2893970889d900f610389139eec4e3a2a288ac00000000", "vin": [{"sequence": 4294967295, "scriptSig": {"hex": "483045022100affd1ac863c69404c91ad19269017a216d946994e2f738cde54317f172d53fa002204dc0071250de891b00e3d54dff00276d7a5f0c46cf94e54d488d752be78d3019012103dd5643d8f367e8f6024fb50e6fed30344078d45c0fdbe4390012ff6075d27695", "asm": "3045022100affd1ac863c69404c91ad19269017a216d946994e2f738cde54317f172d53fa002204dc0071250de891b00e3d54dff00276d7a5f0c46cf94e54d488d752be78d3019[ALL] 03dd5643d8f367e8f6024fb50e6fed30344078d45c0fdbe4390012ff6075d27695"}, "vout": 0, "txid": "af0d92f993d530a6fbcf191b059275b4b8c12e772e1fd3c6cd3750e46420b393"}, {"sequence": 4294967295, "scriptSig": {"hex": "483045022100f52f7ebdc61e824471b70ff402bd1db7d40523b7467fbb69abea7e6dad1436d602206e66369caa21964bc9e6ae116f41bb4382644e1ffcbb6ed1998b252ba228a1a801210384d84cc99f3583f0c9aeb39263d14694017b1d2ea8744370e4ed4866e8810503", "asm": "3045022100f52f7ebdc61e824471b70ff402bd1db7d40523b7467fbb69abea7e6dad1436d602206e66369caa21964bc9e6ae116f41bb4382644e1ffcbb6ed1998b252ba228a1a8[ALL] 0384d84cc99f3583f0c9aeb39263d14694017b1d2ea8744370e4ed4866e8810503"}, "vout": 2, "txid": "d522d1f74486f32fdde06de291ed9fca2b6ad60760816add81ac5411870a18be"}], "txid": "80788cb3232d5c1b12dab6159e5bfccdbaca2ce7c04039f55e56f694275e747c", "blocktime": 1537875543, "version": 1, "confirmations": 11464, "time": 1537875543, "locktime": 0, "vsize": 372, "size": 372}