{"hash": "20367d63a0e3cbb0e23acb6dce429951942729fc2a94a367a918f4add64c1f19", "blockhash": "00000000000000000018f53835495a110e01622372bf6ae95dc86f2b0ab887b0", "vout": [{"scriptPubKey": {"reqSigs": 1, "hex": "76a914db8cf65d522797c7c6b44b7d4d46fc87ebc7916688ac", "addresses": ["1M1srFMPhKyZWUweYfReVrM6EbdAY5CVNz"], "asm": "OP_DUP OP_HASH160 db8cf65d522797c7c6b44b7d4d46fc87ebc79166 OP_EQUALVERIFY OP_CHECKSIG", "type": "pubkeyhash"}, "value": 0.0019, "n": 0}, {"scriptPubKey": {"reqSigs": 1, "hex": "a9145b14ad64cc3db7d2915d4ac054bfd2692421707e87", "addresses": ["39zcBginy2jrgquwhFzEd1ErQbzWR6LPF7"], "asm": "OP_HASH160 5b14ad64cc3db7d2915d4ac054bfd2692421707e OP_EQUAL", "type": "scripthash"}, "value": 0.23259476, "n": 1}], "hex": "01000000000101460b10060de0d12bb0bc5d0a74c1dc9c1490319e6eb17fec336652fc3f68eec7010000002322002020a476cf1b5d9d8e75e8f49ecf93f451150c36fa88a97c33dcf02dbe73f22cb8ffffffff0230e60200000000001976a914db8cf65d522797c7c6b44b7d4d46fc87ebc7916688ac54e962010000000017a9145b14ad64cc3db7d2915d4ac054bfd2692421707e870400483045022100dee7f146b106dd71a4035d3514d681ceea87093ed9ed77349764d24d8af78adf02200b49014bd37d528669ca7f305b8337224539f254d9d5b80b927c3cff25af20a8014830450221008684fcad5d7a4c7fd91223ea596df12f2d0ec19bb0c0919676d7038a0f996ef1022008a132de94647e66ca7fff1430deb6d4e1f7e17da06bba659760baa866f1fb5f01695221020901495a6b0220577afe83a49ca20f7c333e3788d0b3d09c942f78649c3dfeee21038fcc90db2d13b0160dee1cfde8ca506d200994c0bcb6597ae39b08496ee6d96f2102c3e5102aaacc757ce2f2ad1012c1c59ac1dc3e760bb6bc158a5ac64e967ae63a53ae00000000", "vin": [{"txinwitness": ["", "3045022100dee7f146b106dd71a4035d3514d681ceea87093ed9ed77349764d24d8af78adf02200b49014bd37d528669ca7f305b8337224539f254d9d5b80b927c3cff25af20a801", "30450221008684fcad5d7a4c7fd91223ea596df12f2d0ec19bb0c0919676d7038a0f996ef1022008a132de94647e66ca7fff1430deb6d4e1f7e17da06bba659760baa866f1fb5f01", "5221020901495a6b0220577afe83a49ca20f7c333e3788d0b3d09c942f78649c3dfeee21038fcc90db2d13b0160dee1cfde8ca506d200994c0bcb6597ae39b08496ee6d96f2102c3e5102aaacc757ce2f2ad1012c1c59ac1dc3e760bb6bc158a5ac64e967ae63a53ae"], "sequence": 4294967295, "scriptSig": {"hex": "22002020a476cf1b5d9d8e75e8f49ecf93f451150c36fa88a97c33dcf02dbe73f22cb8", "asm": "002020a476cf1b5d9d8e75e8f49ecf93f451150c36fa88a97c33dcf02dbe73f22cb8"}, "vout": 1, "txid": "c7ee683ffc526633ec7fb16e9e3190149cdcc1740a5dbcb02bd1e00d06100b46"}], "txid": "807c406696ac4795ecf6e83437c8a5aa78b78e99b8f30ada461cf45f2384dca1", "blocktime": 1537870928, "version": 1, "confirmations": 11514, "time": 1537870928, "locktime": 0, "vsize": 216, "size": 408}