{"hash": "fc1caeb504bbdfd4aa97fbd3d05c84fef25a4cea374419ff894e044e402282e2", "blockhash": "0000000000000000000baef3f32e3676a92c3b2e5da21b426e4f302fc371ce76", "vout": [{"scriptPubKey": {"reqSigs": 1, "hex": "76a9146320ad47a5a2b1cf699ec3eb3986d73dc742657988ac", "addresses": ["1A393RNjmXXtf6rwGKseKw3xLPxmhS9ia5"], "asm": "OP_DUP OP_HASH160 6320ad47a5a2b1cf699ec3eb3986d73dc7426579 OP_EQUALVERIFY OP_CHECKSIG", "type": "pubkeyhash"}, "value": 0.009269, "n": 0}, {"scriptPubKey": {"reqSigs": 1, "hex": "a914c26e83ece7f65beff0e252ecd2fd5403e10ca99587", "addresses": ["3KR5QVtQB6sCqdUacdb3vb8QTkauyqsbut"], "asm": "OP_HASH160 c26e83ece7f65beff0e252ecd2fd5403e10ca995 OP_EQUAL", "type": "scripthash"}, "value": 0.0985827, "n": 1}], "hex": "01000000000101d4a4bea0fa60a40f0d59f91f360a8807bf1dc27067e92675a16e8328253f5784010000002322002061b7e0679c39feb972a76917fed8b59a2af28b216dde6dcf6b3205156948ce58ffffffff02b4240e00000000001976a9146320ad47a5a2b1cf699ec3eb3986d73dc742657988acde6c96000000000017a914c26e83ece7f65beff0e252ecd2fd5403e10ca9958704004730440220457940306b3c6ead1a923bb181ddbfaa64ccfae10b91c0ce8a3e6cecccd8db5f02207e7b87fb2eccfbebfb73439b4d594167933bbe4fab2e8445e9587d48d533b16001473044022071a4870a1f49616bc29ebf320a615ea651802dbda9893abd0fafbd7361c3d55b02201163d5ca4f4369e6ffd7f75ed889674ff4c79bd28293c303bd21341c1716dc73014752210334016f8ee34d545e41a39e49929d1d9d91db6b3d60e6e69635ba210692b768a42102dd2332c0512dee4ea813748993f8056f254166d97719c8c2e4e8f542e54e1af152ae00000000", "vin": [{"txinwitness": ["", "30440220457940306b3c6ead1a923bb181ddbfaa64ccfae10b91c0ce8a3e6cecccd8db5f02207e7b87fb2eccfbebfb73439b4d594167933bbe4fab2e8445e9587d48d533b16001", "3044022071a4870a1f49616bc29ebf320a615ea651802dbda9893abd0fafbd7361c3d55b02201163d5ca4f4369e6ffd7f75ed889674ff4c79bd28293c303bd21341c1716dc7301", "52210334016f8ee34d545e41a39e49929d1d9d91db6b3d60e6e69635ba210692b768a42102dd2332c0512dee4ea813748993f8056f254166d97719c8c2e4e8f542e54e1af152ae"], "sequence": 4294967295, "scriptSig": {"hex": "22002061b7e0679c39feb972a76917fed8b59a2af28b216dde6dcf6b3205156948ce58", "asm": "002061b7e0679c39feb972a76917fed8b59a2af28b216dde6dcf6b3205156948ce58"}, "vout": 1, "txid": "84573f2528836ea17526e96770c21dbf07880a361ff9590d0fa460faa0bea4d4"}], "txid": "807c2684e81d8dde1cb7f8faffbe176f4a3e56591e8c55063a3e95afecb3d0a6", "blocktime": 1537876114, "version": 1, "confirmations": 11460, "time": 1537876114, "locktime": 0, "vsize": 207, "size": 372}