{"hash": "9183b32ef0682adde06cdd62f86e31e9a77e8e63721f56d6ad1ad2f790739c29", "blockhash": "0000000000000000000dcc0f55137456b1a82d3642486a52398922ac4d620174", "vout": [{"scriptPubKey": {"reqSigs": 1, "hex": "76a9141f53da07133f73de0fffa8c8eb5264cc23134f6a88ac", "addresses": ["13reQ4ekMgsZ5WAcG2pbY12N9tYwwJkxmL"], "asm": "OP_DUP OP_HASH160 1f53da07133f73de0fffa8c8eb5264cc23134f6a OP_EQUALVERIFY OP_CHECKSIG", "type": "pubkeyhash"}, "value": 0.027821, "n": 0}, {"scriptPubKey": {"reqSigs": 1, "hex": "a914324fe38005b5a5e4c9bcadd34747e9dfc80c422d87", "addresses": ["36H3Qu1Ys75tdFU7XfYg9zpkFh6vAoefrr"], "asm": "OP_HASH160 324fe38005b5a5e4c9bcadd34747e9dfc80c422d OP_EQUAL", "type": "scripthash"}, "value": 0.15897804, "n": 1}], "hex": "010000000001014237a07948f9de560ca3370b153e8c7caa88b8e5d9b6ca500be862303a97605d1f0000002322002083e0f1f939c72adc3c497adcc58dc981ff63726d05ecc82cbb41b9104e61fbf0ffffffff0294732a00000000001976a9141f53da07133f73de0fffa8c8eb5264cc23134f6a88accc94f2000000000017a914324fe38005b5a5e4c9bcadd34747e9dfc80c422d8704004830450221008439fdc99b0d2c94fcf3e7b7ebf037e41b5440b2b1cdc1dc307a071c0df9ddbc022060c807ee63cba170e7f3cee062647a84ef8c67766e7d9c24a18d2e3349cb07ce01483045022100a0d16074319a752cdf002182625cc1cee220708f7a7a003a771f5920eb9dbc2802202aab8d92e664af66c41192709378f8d147ced1fea2fb4989911e4de7b81bd73501475221027305a1e57c684102c75cddfc0d716a172c58ba4b6ac86b184a1dffffe5ec55a72103eb1f8b2a177131c0d51cb89099b4c5c08f6989febe3d7ecdd36fc3048608000a52ae00000000", "vin": [{"txinwitness": ["", "30450221008439fdc99b0d2c94fcf3e7b7ebf037e41b5440b2b1cdc1dc307a071c0df9ddbc022060c807ee63cba170e7f3cee062647a84ef8c67766e7d9c24a18d2e3349cb07ce01", "3045022100a0d16074319a752cdf002182625cc1cee220708f7a7a003a771f5920eb9dbc2802202aab8d92e664af66c41192709378f8d147ced1fea2fb4989911e4de7b81bd73501", "5221027305a1e57c684102c75cddfc0d716a172c58ba4b6ac86b184a1dffffe5ec55a72103eb1f8b2a177131c0d51cb89099b4c5c08f6989febe3d7ecdd36fc3048608000a52ae"], "sequence": 4294967295, "scriptSig": {"hex": "22002083e0f1f939c72adc3c497adcc58dc981ff63726d05ecc82cbb41b9104e61fbf0", "asm": "002083e0f1f939c72adc3c497adcc58dc981ff63726d05ecc82cbb41b9104e61fbf0"}, "vout": 31, "txid": "5d60973a3062e80b50cab6d9e5b888aa7c8c3e150b37a30c56def94879a03742"}], "txid": "80853a572def9a1625f9fbe7f5bbd2ad873c0ad7dbe533caecefa4e510e2f3ef", "blocktime": 1537870268, "version": 1, "confirmations": 11516, "time": 1537870268, "locktime": 0, "vsize": 208, "size": 374}