{"hash": "caaa0dd0e485c5819ed1fda8152cb623b26199667743947d0359eb61393838df", "blockhash": "0000000000000000000e13cef7c366c0283d82e591d1acd082e914b08063cdf1", "vout": [{"scriptPubKey": {"reqSigs": 1, "hex": "76a9142da7303145fec8d6ded5da40862d0f44ef46d5d388ac", "addresses": ["15APh5PrCvYP7Cjghu8zoqDMmC8xYtb3q1"], "asm": "OP_DUP OP_HASH160 2da7303145fec8d6ded5da40862d0f44ef46d5d3 OP_EQUALVERIFY OP_CHECKSIG", "type": "pubkeyhash"}, "value": 0.01028838, "n": 0}, {"scriptPubKey": {"reqSigs": 1, "hex": "00142782a251696c9120e02d64c056d3f986ff8e0dc9", "addresses": ["bc1qy7p2y5tfdjgjpcpdvnq9d5lesmlcurwf655fmk"], "asm": "0 2782a251696c9120e02d64c056d3f986ff8e0dc9", "type": "witness_v0_keyhash"}, "value": 0.00040938, "n": 1}], "hex": "01000000000101c0ed4e8f9627e8f65cf7f5b2e313c1e3d4f2a629b4b9035f63f9425f2ece151d0000000000ffffffff02e6b20f00000000001976a9142da7303145fec8d6ded5da40862d0f44ef46d5d388acea9f0000000000001600142782a251696c9120e02d64c056d3f986ff8e0dc902483045022100f25d2f95e5d847db4c37b4541d34e870407c080892c996faeae4a692b279f13702200ea02534e9a11d92003b808c43b10b3ac2c52530cd9815fd4e83c32c3ddb0713012102d9c15fe0551ac21c9b2ef5bbd82c5bf04aff47c7ca84c0074ff9c196e202ac5800000000", "vin": [{"txinwitness": ["3045022100f25d2f95e5d847db4c37b4541d34e870407c080892c996faeae4a692b279f13702200ea02534e9a11d92003b808c43b10b3ac2c52530cd9815fd4e83c32c3ddb071301", "02d9c15fe0551ac21c9b2ef5bbd82c5bf04aff47c7ca84c0074ff9c196e202ac58"], "sequence": 4294967295, "scriptSig": {"hex": "", "asm": ""}, "vout": 0, "txid": "1d15ce2e5f42f9635f03b9b429a6f2d4e3c113e3b2f5f75cf6e827968f4eedc0"}], "txid": "80893cfcba7b94f6598b2acf29f3a63983758311c81f3818ee9d2ccc0af53a96", "blocktime": 1537871767, "version": 1, "confirmations": 11495, "time": 1537871767, "locktime": 0, "vsize": 144, "size": 226}