{"hash": "80902e95b0e25e8d7bce449ee193711315637df9021fa8a90ccb687c80e61e3a", "blockhash": "0000000000000000000dcc0f55137456b1a82d3642486a52398922ac4d620174", "vout": [{"scriptPubKey": {"reqSigs": 1, "hex": "0014daead001753c5ec22637753663cbd1cdf8d32772", "addresses": ["bc1qmt4dqqt4830vyf3hw5mx8j73ehudxfmj7l8lu3"], "asm": "0 daead001753c5ec22637753663cbd1cdf8d32772", "type": "witness_v0_keyhash"}, "value": 1.071e-05, "n": 0}, {"scriptPubKey": {"reqSigs": 1, "hex": "a91472b1d86168d9efa700bcca27c16143aaf4c1f8bc87", "addresses": ["3C9U1KHXaZTgLzhvamsUoPFkadWNrxFgQo"], "asm": "OP_HASH160 72b1d86168d9efa700bcca27c16143aaf4c1f8bc OP_EQUAL", "type": "scripthash"}, "value": 0.00112707, "n": 1}], "hex": "01000000019968475105aba01d9b242b02e9eef69a0a26a928a683808b565414efc1cbc7ef4a0100006b483045022100b7771669dcb872e4200563035559be8b4d97abf1b2c272833bbb35a96aacef410220675baa4cb301de8cb6b4b17ce9e80c8ad521c4ad12b0314e6881fc685448c4f30121028c722a98d60b5d86d91b333620728b94b00e84a434edb70aa1caadc01088ef86ffffffff022f04000000000000160014daead001753c5ec22637753663cbd1cdf8d3277243b801000000000017a91472b1d86168d9efa700bcca27c16143aaf4c1f8bc8700000000", "vin": [{"sequence": 4294967295, "scriptSig": {"hex": "483045022100b7771669dcb872e4200563035559be8b4d97abf1b2c272833bbb35a96aacef410220675baa4cb301de8cb6b4b17ce9e80c8ad521c4ad12b0314e6881fc685448c4f30121028c722a98d60b5d86d91b333620728b94b00e84a434edb70aa1caadc01088ef86", "asm": "3045022100b7771669dcb872e4200563035559be8b4d97abf1b2c272833bbb35a96aacef410220675baa4cb301de8cb6b4b17ce9e80c8ad521c4ad12b0314e6881fc685448c4f3[ALL] 028c722a98d60b5d86d91b333620728b94b00e84a434edb70aa1caadc01088ef86"}, "vout": 330, "txid": "efc7cbc1ef1454568b8083a628a9260a9af6eee9022b249b1da0ab0551476899"}], "txid": "80902e95b0e25e8d7bce449ee193711315637df9021fa8a90ccb687c80e61e3a", "blocktime": 1537870268, "version": 1, "confirmations": 11518, "time": 1537870268, "locktime": 0, "vsize": 221, "size": 221}