{"hash": "a9262089b8187e4bbd8341adac20f888031b111e325164437aa23eee8e823734", "blockhash": "00000000000000000018f53835495a110e01622372bf6ae95dc86f2b0ab887b0", "vout": [{"scriptPubKey": {"reqSigs": 1, "hex": "a914ae163dee66edbed40077e9788ac9989df97af1b887", "addresses": ["3HZW9KPZu1WvpmrUjKvSje7tEDxfsAYDfz"], "asm": "OP_HASH160 ae163dee66edbed40077e9788ac9989df97af1b8 OP_EQUAL", "type": "scripthash"}, "value": 5.67498989, "n": 0}, {"scriptPubKey": {"reqSigs": 1, "hex": "76a914e295de809732fe0e8c61dc7cbabd08d366554c9088ac", "addresses": ["1Mf5FSo8AHmicLAmLV6a3Ug2jXMemMcCJU"], "asm": "OP_DUP OP_HASH160 e295de809732fe0e8c61dc7cbabd08d366554c90 OP_EQUALVERIFY OP_CHECKSIG", "type": "pubkeyhash"}, "value": 0.02399801, "n": 1}], "hex": "020000000001015a32b14e12ca3ef8a65c4ecaf41048bb947567574fc7e020392d4df3a26467130000000017160014c82594e5c43fc6d9e75dc1761c4ed61652bb4114feffffff02ed58d3210000000017a914ae163dee66edbed40077e9788ac9989df97af1b887399e2400000000001976a914e295de809732fe0e8c61dc7cbabd08d366554c9088ac024730440220036c441a1451681b0e850b89bc703bd5c1fd12d493c425e6632d0a16dee9395c022042349fa4ba07afa51c57dcbc4e0e9ac365ed9ad57fbb974ea349bad7ed4a1e9f0121023f3ce78bfa57124d037d5710fed5c771c4f8c460b24c5f1b2f4bab51527d17380e490800", "vin": [{"txinwitness": ["30440220036c441a1451681b0e850b89bc703bd5c1fd12d493c425e6632d0a16dee9395c022042349fa4ba07afa51c57dcbc4e0e9ac365ed9ad57fbb974ea349bad7ed4a1e9f01", "023f3ce78bfa57124d037d5710fed5c771c4f8c460b24c5f1b2f4bab51527d1738"], "sequence": 4294967294, "scriptSig": {"hex": "160014c82594e5c43fc6d9e75dc1761c4ed61652bb4114", "asm": "0014c82594e5c43fc6d9e75dc1761c4ed61652bb4114"}, "vout": 0, "txid": "136764a2f34d2d3920e0c74f57677594bb4810f4ca4e5ca6f83eca124eb1325a"}], "txid": "80929d04d3801cd4b772da52c912f4ad1c7c7b9843219719a03f68d817e4033d", "blocktime": 1537870928, "version": 2, "confirmations": 11514, "time": 1537870928, "locktime": 542990, "vsize": 168, "size": 249}