{"hash": "8094b028707bda609eaaddca48c8cddf5bed91899ac5879f7f7e2119bdfee4f0", "blockhash": "00000000000000000018f53835495a110e01622372bf6ae95dc86f2b0ab887b0", "vout": [{"scriptPubKey": {"reqSigs": 1, "hex": "76a914e5eff96233484e06563ffa6d740795b23ca0944188ac", "addresses": ["1MxoDdHzmTET8tA84RdwC62hKxhbHarC3c"], "asm": "OP_DUP OP_HASH160 e5eff96233484e06563ffa6d740795b23ca09441 OP_EQUALVERIFY OP_CHECKSIG", "type": "pubkeyhash"}, "value": 0.07068286, "n": 0}, {"scriptPubKey": {"reqSigs": 1, "hex": "76a91489a13e08f4cc4e63f2c84319cd3539c9d5428dfa88ac", "addresses": ["1DYijbSjizSCgxFf3sptuxvhmuRTRZoJN8"], "asm": "OP_DUP OP_HASH160 89a13e08f4cc4e63f2c84319cd3539c9d5428dfa OP_EQUALVERIFY OP_CHECKSIG", "type": "pubkeyhash"}, "value": 0.0061644, "n": 1}], "hex": "0200000001bcad624bde616fc6cff1401e672be0abcb1fd2547165407b37745723963a4723010000006a473044022013bb49e50aabe0efbad0c6eee5d4137246176e0e6b893814fb7498a6455279340220499a7fb9c4050f89bd710abc2f6f7bc7af6b33ff6160e4b8b5064c816ccd73ea01210293c217c9fd7720979d4552df4da6847439a0dd5fa10101ce21d38777fca4238cfeffffff027eda6b00000000001976a914e5eff96233484e06563ffa6d740795b23ca0944188acf8670900000000001976a91489a13e08f4cc4e63f2c84319cd3539c9d5428dfa88ac0e490800", "vin": [{"sequence": 4294967294, "scriptSig": {"hex": "473044022013bb49e50aabe0efbad0c6eee5d4137246176e0e6b893814fb7498a6455279340220499a7fb9c4050f89bd710abc2f6f7bc7af6b33ff6160e4b8b5064c816ccd73ea01210293c217c9fd7720979d4552df4da6847439a0dd5fa10101ce21d38777fca4238c", "asm": "3044022013bb49e50aabe0efbad0c6eee5d4137246176e0e6b893814fb7498a6455279340220499a7fb9c4050f89bd710abc2f6f7bc7af6b33ff6160e4b8b5064c816ccd73ea[ALL] 0293c217c9fd7720979d4552df4da6847439a0dd5fa10101ce21d38777fca4238c"}, "vout": 1, "txid": "23473a96235774377b40657154d21fcbabe02b671e40f1cfc66f61de4b62adbc"}], "txid": "8094b028707bda609eaaddca48c8cddf5bed91899ac5879f7f7e2119bdfee4f0", "blocktime": 1537870928, "version": 2, "confirmations": 11512, "time": 1537870928, "locktime": 542990, "vsize": 225, "size": 225}