{"hash": "809b851b1a1fda0f4cab4f04038bf3d9b4455db2624984edf9761f201ff8188c", "blockhash": "00000000000000000017f5eb5941039fbcee6240d03bc1f2f8e35350df66a1d8", "vout": [{"scriptPubKey": {"type": "nulldata", "hex": "6a4c50000077f100015fa7ffcbabf70d374b7ef707d19ed074892d00f8e87af8e8e963c7cfd5b92d1bcfb58c88dea69206b844d2cc2ec85baa183606137e70c931546d1d100759d4ba30d2c37bb011d97e02cf", "asm": "OP_RETURN 000077f100015fa7ffcbabf70d374b7ef707d19ed074892d00f8e87af8e8e963c7cfd5b92d1bcfb58c88dea69206b844d2cc2ec85baa183606137e70c931546d1d100759d4ba30d2c37bb011d97e02cf"}, "value": 0.0, "n": 0}, {"scriptPubKey": {"reqSigs": 1, "hex": "76a914c7436ee7c64b1d0666812cd0addfd797c1c1dc3888ac", "addresses": ["1KAcFWyXZsrNQpmYXyyLr3hhvVuM66E2dr"], "asm": "OP_DUP OP_HASH160 c7436ee7c64b1d0666812cd0addfd797c1c1dc38 OP_EQUALVERIFY OP_CHECKSIG", "type": "pubkeyhash"}, "value": 0.00635916, "n": 1}], "hex": "010000000198486e4c5b167185c763ed0954d3085228afc1832335fdd91b3388eefcdf51bc000000006b4830450221008e9f864aa2c8782237d3fa7ef31b6c568e11a33c751bedca8326d895b63aae1d0220372c7c171d14b913fc765e05a65a0d007267edf61e6fdad32c0228548754273e01210258c8e3c81a2a7790e2486e332057524253f778996710e390e3441974be5b57f8ffffffff020000000000000000536a4c50000077f100015fa7ffcbabf70d374b7ef707d19ed074892d00f8e87af8e8e963c7cfd5b92d1bcfb58c88dea69206b844d2cc2ec85baa183606137e70c931546d1d100759d4ba30d2c37bb011d97e02cf0cb40900000000001976a914c7436ee7c64b1d0666812cd0addfd797c1c1dc3888ac00000000", "vin": [{"sequence": 4294967295, "scriptSig": {"hex": "4830450221008e9f864aa2c8782237d3fa7ef31b6c568e11a33c751bedca8326d895b63aae1d0220372c7c171d14b913fc765e05a65a0d007267edf61e6fdad32c0228548754273e01210258c8e3c81a2a7790e2486e332057524253f778996710e390e3441974be5b57f8", "asm": "30450221008e9f864aa2c8782237d3fa7ef31b6c568e11a33c751bedca8326d895b63aae1d0220372c7c171d14b913fc765e05a65a0d007267edf61e6fdad32c0228548754273e[ALL] 0258c8e3c81a2a7790e2486e332057524253f778996710e390e3441974be5b57f8"}, "vout": 0, "txid": "bc51dffcee88331bd9fd352383c1af285208d35409ed63c78571165b4c6e4898"}], "txid": "809b851b1a1fda0f4cab4f04038bf3d9b4455db2624984edf9761f201ff8188c", "blocktime": 1537874412, "version": 1, "confirmations": 11467, "time": 1537874412, "locktime": 0, "vsize": 284, "size": 284}