{"hash": "80a08a143cda1f5c43bba826c25470e02e43a70b395371be27983f790319e144", "blockhash": "00000000000000000017f5eb5941039fbcee6240d03bc1f2f8e35350df66a1d8", "vout": [{"scriptPubKey": {"reqSigs": 1, "hex": "76a914528a361cd7f5a23e490d35b51d29b6152d09666688ac", "addresses": ["18XRyprBYtEyqConuntDDdv957zsFURY2v"], "asm": "OP_DUP OP_HASH160 528a361cd7f5a23e490d35b51d29b6152d096666 OP_EQUALVERIFY OP_CHECKSIG", "type": "pubkeyhash"}, "value": 0.0312477, "n": 0}, {"scriptPubKey": {"reqSigs": 1, "hex": "76a9148c1a2c005bfd78ab74783e4d467d07fe4eef24cb88ac", "addresses": ["1DmnxK1AfTLcctq5WCkxrDupUk8fWwpU2C"], "asm": "OP_DUP OP_HASH160 8c1a2c005bfd78ab74783e4d467d07fe4eef24cb OP_EQUALVERIFY OP_CHECKSIG", "type": "pubkeyhash"}, "value": 0.07024306, "n": 1}], "hex": "0100000001763e696169ff04fd2f029ad4ebda8379221d47dc81481ee9bbc90ffb0582211c010000006a473044022015f46d95bb20973098838b627f7a74a11519ca4f3e79c7e8cbc640fd1a7c172d02207289e8ce6f9fa2bcb49831c429a7d29a1d958339d8aecb7f91233536b90bdb5101210244638d3e4a42640b222f262546080bc823344744dd16e9001eed3daeab834e9affffffff0222ae2f00000000001976a914528a361cd7f5a23e490d35b51d29b6152d09666688acb22e6b00000000001976a9148c1a2c005bfd78ab74783e4d467d07fe4eef24cb88ac00000000", "vin": [{"sequence": 4294967295, "scriptSig": {"hex": "473044022015f46d95bb20973098838b627f7a74a11519ca4f3e79c7e8cbc640fd1a7c172d02207289e8ce6f9fa2bcb49831c429a7d29a1d958339d8aecb7f91233536b90bdb5101210244638d3e4a42640b222f262546080bc823344744dd16e9001eed3daeab834e9a", "asm": "3044022015f46d95bb20973098838b627f7a74a11519ca4f3e79c7e8cbc640fd1a7c172d02207289e8ce6f9fa2bcb49831c429a7d29a1d958339d8aecb7f91233536b90bdb51[ALL] 0244638d3e4a42640b222f262546080bc823344744dd16e9001eed3daeab834e9a"}, "vout": 1, "txid": "1c218205fb0fc9bbe91e4881dc471d227983daebd49a022ffd04ff6961693e76"}], "txid": "80a08a143cda1f5c43bba826c25470e02e43a70b395371be27983f790319e144", "blocktime": 1537874412, "version": 1, "confirmations": 11466, "time": 1537874412, "locktime": 0, "vsize": 225, "size": 225}