{"hash": "80b0474d10d727aa2c24ccde6ab5b2b3efb18be4f1ca8f5fdde28216dbb30349", "blockhash": "0000000000000000001e0dab787dd257d1dbfcb92a98c2207d5e1078be1f4165", "vout": [{"scriptPubKey": {"reqSigs": 1, "hex": "a9147af6a3380b91a276c840539766a5cfd62765afe087", "addresses": ["3CuBpdGYjWMWFb5aEcSiSKV6C4XSo2zrFr"], "asm": "OP_HASH160 7af6a3380b91a276c840539766a5cfd62765afe0 OP_EQUAL", "type": "scripthash"}, "value": 0.01499791, "n": 0}], "hex": "0100000001e29c2a211735290439df4b5da1a9c9cfbcc81a196ec2568b7140a53af7c04c2a090000006b483045022100e40f0f5bb6b3c1c91ac43c131b585d751b4ea8420069e69f5e74545f100eec280220533d7a39c12a5b1a513914228fe8162864de3ac5e39a5aec77ba6b87a4bbe15a0121034a97e43e13e12a62e03fc50289c5d492408c56922e5bdf17f3b96c1873aff4bafeffffff018fe216000000000017a9147af6a3380b91a276c840539766a5cfd62765afe08712490800", "vin": [{"sequence": 4294967294, "scriptSig": {"hex": "483045022100e40f0f5bb6b3c1c91ac43c131b585d751b4ea8420069e69f5e74545f100eec280220533d7a39c12a5b1a513914228fe8162864de3ac5e39a5aec77ba6b87a4bbe15a0121034a97e43e13e12a62e03fc50289c5d492408c56922e5bdf17f3b96c1873aff4ba", "asm": "3045022100e40f0f5bb6b3c1c91ac43c131b585d751b4ea8420069e69f5e74545f100eec280220533d7a39c12a5b1a513914228fe8162864de3ac5e39a5aec77ba6b87a4bbe15a[ALL] 034a97e43e13e12a62e03fc50289c5d492408c56922e5bdf17f3b96c1873aff4ba"}, "vout": 9, "txid": "2a4cc0f73aa540718b56c26e191ac8bccfc9a9a15d4bdf3904293517212a9ce2"}], "txid": "80b0474d10d727aa2c24ccde6ab5b2b3efb18be4f1ca8f5fdde28216dbb30349", "blocktime": 1537872475, "version": 1, "confirmations": 11487, "time": 1537872475, "locktime": 542994, "vsize": 190, "size": 190}