{"hash": "2d5e4735935ce7941afa3ffa704982227c1d45a3e2a940a98648b9242832a4c7", "blockhash": "0000000000000000000baef3f32e3676a92c3b2e5da21b426e4f302fc371ce76", "vout": [{"scriptPubKey": {"reqSigs": 1, "hex": "a91414f3b2971983c54efb21c3461b12f0c5d9d7e91587", "addresses": ["33boNne7rafKcKmbgRw7ETBRsc9dYrtHPx"], "asm": "OP_HASH160 14f3b2971983c54efb21c3461b12f0c5d9d7e915 OP_EQUAL", "type": "scripthash"}, "value": 9.91e-05, "n": 0}, {"scriptPubKey": {"reqSigs": 1, "hex": "a914b2e6a8e553bd7e11c1392f8d61e19b5888e139c087", "addresses": ["3HzxXD8PhqJETjkWrQYD4nYc6yKx3mGLXi"], "asm": "OP_HASH160 b2e6a8e553bd7e11c1392f8d61e19b5888e139c0 OP_EQUAL", "type": "scripthash"}, "value": 0.00300272, "n": 1}], "hex": "0100000000010186835a5e249a251edd2359cbfdfdbdd5d16aa250b686f459965f0e8fface7abe010000002322002045dc4a8e7a7ed593d2ea538a381c31e2607ee08f052e914f99311fee2a8f4d56ffffffff02b62600000000000017a91414f3b2971983c54efb21c3461b12f0c5d9d7e91587f09404000000000017a914b2e6a8e553bd7e11c1392f8d61e19b5888e139c0870400483045022100fd76cdab57ae4456c4f331005eb80b4c0c9fb0f53f366632da1f453fb62a4996022007576d6a02efd598e73d8d6349e62ba1cb2cd913d3a7567f1b24befdd28b43450147304402201634328321028749341e00ef1fcafd3f0b2ca225398f65d43f79069dee23b011022054c34e0877c0c6cfe7e76324ef4ba1e43e9d42880d8bdcf24e0773f1e5fe75c3014752210333a2cce5556afb7a9431cdacaea04e945b9daa974227ab5f4aca265bc268c7952103871fc2ca08e6950b38867e8e6a0e94ee625223d3aa0df5c65f414c6d784467e252ae00000000", "vin": [{"txinwitness": ["", "3045022100fd76cdab57ae4456c4f331005eb80b4c0c9fb0f53f366632da1f453fb62a4996022007576d6a02efd598e73d8d6349e62ba1cb2cd913d3a7567f1b24befdd28b434501", "304402201634328321028749341e00ef1fcafd3f0b2ca225398f65d43f79069dee23b011022054c34e0877c0c6cfe7e76324ef4ba1e43e9d42880d8bdcf24e0773f1e5fe75c301", "52210333a2cce5556afb7a9431cdacaea04e945b9daa974227ab5f4aca265bc268c7952103871fc2ca08e6950b38867e8e6a0e94ee625223d3aa0df5c65f414c6d784467e252ae"], "sequence": 4294967295, "scriptSig": {"hex": "22002045dc4a8e7a7ed593d2ea538a381c31e2607ee08f052e914f99311fee2a8f4d56", "asm": "002045dc4a8e7a7ed593d2ea538a381c31e2607ee08f052e914f99311fee2a8f4d56"}, "vout": 1, "txid": "be7acefa8f0e5f9659f486b650a26ad1d5bdfdfdcb5923dd1e259a245e5a8386"}], "txid": "80b323a684c0acd7e5972f67a4ac40fc1847ee0477f57f29f2af914453e0be06", "blocktime": 1537876114, "version": 1, "confirmations": 11460, "time": 1537876114, "locktime": 0, "vsize": 206, "size": 371}