{"hash": "80b51d5691609a972921b3bf84d35a84e4c8e0bcd494ca4753dd11e9ae215e30", "blockhash": "0000000000000000001e0dab787dd257d1dbfcb92a98c2207d5e1078be1f4165", "vout": [{"scriptPubKey": {"reqSigs": 1, "hex": "76a914f433ee454d98c3eb2ee62c0fed8f3687e05e31a988ac", "addresses": ["1PGE623goXQLZxCuWaarphh4gEMrcidQcv"], "asm": "OP_DUP OP_HASH160 f433ee454d98c3eb2ee62c0fed8f3687e05e31a9 OP_EQUALVERIFY OP_CHECKSIG", "type": "pubkeyhash"}, "value": 0.01596252, "n": 0}], "hex": "0100000008f54534e1759ce55e57ea659b2bbe5621cee6f64846d0346763d65a88fcb4d30a020000006a473044022054634038b96c5d4957860c9db3003352be7648092464a10fc8802ee289f2f92a02204c4e49e9bc6156af1fb6647f94131006c22b9cfaa74fb017ed8a819a6e2705e50121033c7c87ee2fb4ae5c30f1be4dd6a7066ad52bfef5572c13ca50f513891b8a9522ffffffff940dc78a182bf4a255617e8aa89f9703ac9059b16a563ede9dbcf0e68a4df078040000006b483045022100f92f91f8f858a22c685803ab42266ba4ef177995e72b6ee63437642f4f609a0602202ff5d7ac83cb66a716a5c6f14b5e6ed474125e3bb260c70c7a0c1d54a4d7b2e00121033c7c87ee2fb4ae5c30f1be4dd6a7066ad52bfef5572c13ca50f513891b8a9522ffffffff0116368c0be90ff2df3c2a019a54d08e0eca3d5ba58ffd89e499628ab2c5da5f060000006a47304402204bd3e038c3c87eabac4b881fae87af46013bc916c57fcbaa634d31db75e8db8c0220151e416666cfa13f488c28bc881f83d2dbd1b4679a972f27f35cd889668fad350121033c7c87ee2fb4ae5c30f1be4dd6a7066ad52bfef5572c13ca50f513891b8a9522ffffffff789a6b0afe67e570f03d6258539fc5fa26d044a5e0a0968c18270a47aa0d8743020000006a47304402206d188c718f4c8c64f03cbae6f05b9a4241a35c4c9d792a32b6b17d39d033d08002202fbcbee367380088e450f2c029a984ea24c4a69a1855cafe6e71b4050d2d0a4d0121033c7c87ee2fb4ae5c30f1be4dd6a7066ad52bfef5572c13ca50f513891b8a9522ffffffffa4867928973472f1a046a9ea58f0008c05927a047c16b24b955c68b24b1fd273030000006a47304402203b6215c2cfe84adbc7ad8fceee46e31dd53b2941e86dbd562c9995dadde38faf02203bcd4ca43e3f926ab4aa45ab206f2f32e747a63f620227f45c80e86d77b9df8f0121033c7c87ee2fb4ae5c30f1be4dd6a7066ad52bfef5572c13ca50f513891b8a9522ffffffffb65dd3cb921d551a7b9997d824477fc6befeddb662ef03e027bcd0da052cdaaf040000006a47304402204294c2efdefe75ee38530bb78a3ecf947dc54cf0f011227a176e0b4f71a60e9002207ad3e8a495a45b442948b752dfd6acd8d6254ab5dcd67bfb8a0b9b1ad34672c40121033c7c87ee2fb4ae5c30f1be4dd6a7066ad52bfef5572c13ca50f513891b8a9522ffffffff2d41b85fd0e7054b8c969c95f3bca775a373216895043cd52b7d1fb6db192475040000006a47304402205ca2ab76ab51f5edc30efcaedb82875eae53091049f90ee5d494fbd8cc1e542002204cfb6ec314ea5af4d239b3abffbd00aac27e092062f4ca4b1abf599c226760c00121033c7c87ee2fb4ae5c30f1be4dd6a7066ad52bfef5572c13ca50f513891b8a9522fffffffff1650f3168c6541433354ea6d774e9fa2f149e7c80f118bc57b1bf6cff0251d6020000006a47304402207a3a5da4b69c6aca3ab2d91f9e77a6e6583c4e83ad2096ba6702a10e904cda2702205b051b53807e25453df4acaf40c742054efced2547880c4e28280eb1a254d8450121033c7c87ee2fb4ae5c30f1be4dd6a7066ad52bfef5572c13ca50f513891b8a9522ffffffff015c5b1800000000001976a914f433ee454d98c3eb2ee62c0fed8f3687e05e31a988ac00000000", "vin": [{"sequence": 4294967295, "scriptSig": {"hex": "473044022054634038b96c5d4957860c9db3003352be7648092464a10fc8802ee289f2f92a02204c4e49e9bc6156af1fb6647f94131006c22b9cfaa74fb017ed8a819a6e2705e50121033c7c87ee2fb4ae5c30f1be4dd6a7066ad52bfef5572c13ca50f513891b8a9522", "asm": "3044022054634038b96c5d4957860c9db3003352be7648092464a10fc8802ee289f2f92a02204c4e49e9bc6156af1fb6647f94131006c22b9cfaa74fb017ed8a819a6e2705e5[ALL] 033c7c87ee2fb4ae5c30f1be4dd6a7066ad52bfef5572c13ca50f513891b8a9522"}, "vout": 2, "txid": "0ad3b4fc885ad6636734d04648f6e6ce2156be2b9b65ea575ee59c75e13445f5"}, {"sequence": 4294967295, "scriptSig": {"hex": "483045022100f92f91f8f858a22c685803ab42266ba4ef177995e72b6ee63437642f4f609a0602202ff5d7ac83cb66a716a5c6f14b5e6ed474125e3bb260c70c7a0c1d54a4d7b2e00121033c7c87ee2fb4ae5c30f1be4dd6a7066ad52bfef5572c13ca50f513891b8a9522", "asm": "3045022100f92f91f8f858a22c685803ab42266ba4ef177995e72b6ee63437642f4f609a0602202ff5d7ac83cb66a716a5c6f14b5e6ed474125e3bb260c70c7a0c1d54a4d7b2e0[ALL] 033c7c87ee2fb4ae5c30f1be4dd6a7066ad52bfef5572c13ca50f513891b8a9522"}, "vout": 4, "txid": "78f04d8ae6f0bc9dde3e566ab15990ac03979fa88a7e6155a2f42b188ac70d94"}, {"sequence": 4294967295, "scriptSig": {"hex": "47304402204bd3e038c3c87eabac4b881fae87af46013bc916c57fcbaa634d31db75e8db8c0220151e416666cfa13f488c28bc881f83d2dbd1b4679a972f27f35cd889668fad350121033c7c87ee2fb4ae5c30f1be4dd6a7066ad52bfef5572c13ca50f513891b8a9522", "asm": "304402204bd3e038c3c87eabac4b881fae87af46013bc916c57fcbaa634d31db75e8db8c0220151e416666cfa13f488c28bc881f83d2dbd1b4679a972f27f35cd889668fad35[ALL] 033c7c87ee2fb4ae5c30f1be4dd6a7066ad52bfef5572c13ca50f513891b8a9522"}, "vout": 6, "txid": "5fdac5b28a6299e489fd8fa55b3dca0e8ed0549a012a3cdff20fe90b8c361601"}, {"sequence": 4294967295, "scriptSig": {"hex": "47304402206d188c718f4c8c64f03cbae6f05b9a4241a35c4c9d792a32b6b17d39d033d08002202fbcbee367380088e450f2c029a984ea24c4a69a1855cafe6e71b4050d2d0a4d0121033c7c87ee2fb4ae5c30f1be4dd6a7066ad52bfef5572c13ca50f513891b8a9522", "asm": "304402206d188c718f4c8c64f03cbae6f05b9a4241a35c4c9d792a32b6b17d39d033d08002202fbcbee367380088e450f2c029a984ea24c4a69a1855cafe6e71b4050d2d0a4d[ALL] 033c7c87ee2fb4ae5c30f1be4dd6a7066ad52bfef5572c13ca50f513891b8a9522"}, "vout": 2, "txid": "43870daa470a27188c96a0e0a544d026fac59f5358623df070e567fe0a6b9a78"}, {"sequence": 4294967295, "scriptSig": {"hex": "47304402203b6215c2cfe84adbc7ad8fceee46e31dd53b2941e86dbd562c9995dadde38faf02203bcd4ca43e3f926ab4aa45ab206f2f32e747a63f620227f45c80e86d77b9df8f0121033c7c87ee2fb4ae5c30f1be4dd6a7066ad52bfef5572c13ca50f513891b8a9522", "asm": "304402203b6215c2cfe84adbc7ad8fceee46e31dd53b2941e86dbd562c9995dadde38faf02203bcd4ca43e3f926ab4aa45ab206f2f32e747a63f620227f45c80e86d77b9df8f[ALL] 033c7c87ee2fb4ae5c30f1be4dd6a7066ad52bfef5572c13ca50f513891b8a9522"}, "vout": 3, "txid": "73d21f4bb2685c954bb2167c047a92058c00f058eaa946a0f1723497287986a4"}, {"sequence": 4294967295, "scriptSig": {"hex": "47304402204294c2efdefe75ee38530bb78a3ecf947dc54cf0f011227a176e0b4f71a60e9002207ad3e8a495a45b442948b752dfd6acd8d6254ab5dcd67bfb8a0b9b1ad34672c40121033c7c87ee2fb4ae5c30f1be4dd6a7066ad52bfef5572c13ca50f513891b8a9522", "asm": "304402204294c2efdefe75ee38530bb78a3ecf947dc54cf0f011227a176e0b4f71a60e9002207ad3e8a495a45b442948b752dfd6acd8d6254ab5dcd67bfb8a0b9b1ad34672c4[ALL] 033c7c87ee2fb4ae5c30f1be4dd6a7066ad52bfef5572c13ca50f513891b8a9522"}, "vout": 4, "txid": "afda2c05dad0bc27e003ef62b6ddfebec67f4724d897997b1a551d92cbd35db6"}, {"sequence": 4294967295, "scriptSig": {"hex": "47304402205ca2ab76ab51f5edc30efcaedb82875eae53091049f90ee5d494fbd8cc1e542002204cfb6ec314ea5af4d239b3abffbd00aac27e092062f4ca4b1abf599c226760c00121033c7c87ee2fb4ae5c30f1be4dd6a7066ad52bfef5572c13ca50f513891b8a9522", "asm": "304402205ca2ab76ab51f5edc30efcaedb82875eae53091049f90ee5d494fbd8cc1e542002204cfb6ec314ea5af4d239b3abffbd00aac27e092062f4ca4b1abf599c226760c0[ALL] 033c7c87ee2fb4ae5c30f1be4dd6a7066ad52bfef5572c13ca50f513891b8a9522"}, "vout": 4, "txid": "752419dbb61f7d2bd53c0495682173a375a7bcf3959c968c4b05e7d05fb8412d"}, {"sequence": 4294967295, "scriptSig": {"hex": "47304402207a3a5da4b69c6aca3ab2d91f9e77a6e6583c4e83ad2096ba6702a10e904cda2702205b051b53807e25453df4acaf40c742054efced2547880c4e28280eb1a254d8450121033c7c87ee2fb4ae5c30f1be4dd6a7066ad52bfef5572c13ca50f513891b8a9522", "asm": "304402207a3a5da4b69c6aca3ab2d91f9e77a6e6583c4e83ad2096ba6702a10e904cda2702205b051b53807e25453df4acaf40c742054efced2547880c4e28280eb1a254d845[ALL] 033c7c87ee2fb4ae5c30f1be4dd6a7066ad52bfef5572c13ca50f513891b8a9522"}, "vout": 2, "txid": "d65102ff6cbfb157bc18f1807c9e142ffae974d7a64e35331454c668310f65f1"}], "txid": "80b51d5691609a972921b3bf84d35a84e4c8e0bcd494ca4753dd11e9ae215e30", "blocktime": 1537872475, "version": 1, "confirmations": 11486, "time": 1537872475, "locktime": 0, "vsize": 1221, "size": 1221}