{"hash": "80bc7a14d38537f17ba01ecf99c7758dd9e66dbf7b582c53cd623b0055bd9498", "blockhash": "00000000000000000004ffacab907a6b429b9a5745fa0b75af4234bf69dd7176", "vout": [{"scriptPubKey": {"reqSigs": 1, "hex": "76a91422e13dbadeb2daac97bac13fb47b8cf31f7bb6ea88ac", "addresses": ["14BRoYvs9NoHDXoT3JgVyNEt44yeahSBkx"], "asm": "OP_DUP OP_HASH160 22e13dbadeb2daac97bac13fb47b8cf31f7bb6ea OP_EQUALVERIFY OP_CHECKSIG", "type": "pubkeyhash"}, "value": 0.01122256, "n": 0}, {"scriptPubKey": {"reqSigs": 1, "hex": "76a9143c58f717e898a015bec473f05e6ee09b61ca694488ac", "addresses": ["16W67vQrUM7VFHfFWFWUFNMtPrYzpnpa8Q"], "asm": "OP_DUP OP_HASH160 3c58f717e898a015bec473f05e6ee09b61ca6944 OP_EQUALVERIFY OP_CHECKSIG", "type": "pubkeyhash"}, "value": 0.00304384, "n": 1}], "hex": "02000000012f70d8134d2d10eb3395284302d33d7b954c3e103fc50bbe25c7140bcbaa1946000000006a4730440220511486c8b7d28cea8afe502947c6cd88fb337906de477facbd475778d102f01e02205939e9f20b6eca0ffc31ea7a1436a53cd8cf611fafae7517bbb3a40ea7bfd7f9012103bfadaf9f58f57629802874c64e86f8b689425bbdc28ae3b62f05ca9f8cee5b72feffffff02d01f1100000000001976a91422e13dbadeb2daac97bac13fb47b8cf31f7bb6ea88ac00a50400000000001976a9143c58f717e898a015bec473f05e6ee09b61ca694488ac16490800", "vin": [{"sequence": 4294967294, "scriptSig": {"hex": "4730440220511486c8b7d28cea8afe502947c6cd88fb337906de477facbd475778d102f01e02205939e9f20b6eca0ffc31ea7a1436a53cd8cf611fafae7517bbb3a40ea7bfd7f9012103bfadaf9f58f57629802874c64e86f8b689425bbdc28ae3b62f05ca9f8cee5b72", "asm": "30440220511486c8b7d28cea8afe502947c6cd88fb337906de477facbd475778d102f01e02205939e9f20b6eca0ffc31ea7a1436a53cd8cf611fafae7517bbb3a40ea7bfd7f9[ALL] 03bfadaf9f58f57629802874c64e86f8b689425bbdc28ae3b62f05ca9f8cee5b72"}, "vout": 0, "txid": "4619aacb0b14c725be0bc53f103e4c957b3dd30243289533eb102d4d13d8702f"}], "txid": "80bc7a14d38537f17ba01ecf99c7758dd9e66dbf7b582c53cd623b0055bd9498", "blocktime": 1537875543, "version": 2, "confirmations": 11464, "time": 1537875543, "locktime": 542998, "vsize": 225, "size": 225}