{"hash": "d64df73eda641214a976b7c2d82ccd3e6cb6ebd97b7368fcec4bcf6cad956312", "blockhash": "0000000000000000001cda96e906b7601b7a6fb1a3b62bca570a9e5d8f4b3de1", "vout": [{"scriptPubKey": {"reqSigs": 1, "hex": "a914765f521140d63f1c8cf76b33d3a9c69ca15a215187", "addresses": ["3CUurAnJbhtP6mfhKes7gjF3H1QvnXpZxw"], "asm": "OP_HASH160 765f521140d63f1c8cf76b33d3a9c69ca15a2151 OP_EQUAL", "type": "scripthash"}, "value": 0.15666054, "n": 0}, {"scriptPubKey": {"reqSigs": 1, "hex": "76a914d3f02b213958c0831128c203c4c83cef282da74a88ac", "addresses": ["1LKdHg7sekfZ7mZ8y6BFKvaqficrRAj78m"], "asm": "OP_DUP OP_HASH160 d3f02b213958c0831128c203c4c83cef282da74a OP_EQUALVERIFY OP_CHECKSIG", "type": "pubkeyhash"}, "value": 0.00278948, "n": 1}, {"scriptPubKey": {"reqSigs": 1, "hex": "76a914f2b9fd8e12996776b1099dc428a72c8c5c57156a88ac", "addresses": ["1P8RLGRYpY4fJprHMN2nuDUHKPqaTLs5q5"], "asm": "OP_DUP OP_HASH160 f2b9fd8e12996776b1099dc428a72c8c5c57156a OP_EQUALVERIFY OP_CHECKSIG", "type": "pubkeyhash"}, "value": 0.0149, "n": 2}, {"scriptPubKey": {"reqSigs": 1, "hex": "76a914c55fc6df946dfd08992d1bf2ad97b93c15d58d3888ac", "addresses": ["1JzcrUzuNCdHtCGRryurN2ugT2NC6EiLM9"], "asm": "OP_DUP OP_HASH160 c55fc6df946dfd08992d1bf2ad97b93c15d58d38 OP_EQUALVERIFY OP_CHECKSIG", "type": "pubkeyhash"}, "value": 0.00906862, "n": 3}], "hex": "020000000001016f8e7d7e9c5267118882fcd17207915e8f790703bc5ff2d872df58baf1ddbf980000000017160014ec1eeaa84687713f261752c46970ea4c44190edafeffffff04860bef000000000017a914765f521140d63f1c8cf76b33d3a9c69ca15a215187a4410400000000001976a914d3f02b213958c0831128c203c4c83cef282da74a88ac50bc1600000000001976a914f2b9fd8e12996776b1099dc428a72c8c5c57156a88ac6ed60d00000000001976a914c55fc6df946dfd08992d1bf2ad97b93c15d58d3888ac02483045022100fe01e096e1da05717c3dacbc7314eae6c812cb0ce78a91824827735e3aa8652702203bd99ab6a13b2d59c93f47fef6281adfd520c776c78dfcaf684448699169c175012102e126bea1cae011a702cc409fe7afc58ec564a7c266f541d4ce3c0fd444755bb2f4480800", "vin": [{"txinwitness": ["3045022100fe01e096e1da05717c3dacbc7314eae6c812cb0ce78a91824827735e3aa8652702203bd99ab6a13b2d59c93f47fef6281adfd520c776c78dfcaf684448699169c17501", "02e126bea1cae011a702cc409fe7afc58ec564a7c266f541d4ce3c0fd444755bb2"], "sequence": 4294967294, "scriptSig": {"hex": "160014ec1eeaa84687713f261752c46970ea4c44190eda", "asm": "0014ec1eeaa84687713f261752c46970ea4c44190eda"}, "vout": 0, "txid": "98bfddf1ba58df72d8f25fbc0307798f5e910772d1fc82881167529c7e7d8e6f"}], "txid": "80c22ed8212681c7a4510c56bd3fc6e6469867127da828166ee9b65897c7f979", "blocktime": 1537873282, "version": 2, "confirmations": 11480, "time": 1537873282, "locktime": 542964, "vsize": 236, "size": 318}