{"hash": "80c5fc5df8d49486dd2d5cbfdeb183daf295777ca0f1bedaf202064e0ac201d0", "blockhash": "00000000000000000024a2167bbff67b0be802c0b01cdd79e6331c2be6459f87", "vout": [{"scriptPubKey": {"reqSigs": 1, "hex": "76a9146e59c5fe5ed7892fedecb65a70133f2aae3e5e9388ac", "addresses": ["1B4UsfiAJPPsJynbVhKKMz2tC5zfU3hJDf"], "asm": "OP_DUP OP_HASH160 6e59c5fe5ed7892fedecb65a70133f2aae3e5e93 OP_EQUALVERIFY OP_CHECKSIG", "type": "pubkeyhash"}, "value": 0.0010362, "n": 0}, {"scriptPubKey": {"reqSigs": 1, "hex": "76a9141aed4c7eb06803a186fd0b819b6b64a5a517b73088ac", "addresses": ["13TNqoGuCZk1HPcyh93zcbFFcGB2pu9n8k"], "asm": "OP_DUP OP_HASH160 1aed4c7eb06803a186fd0b819b6b64a5a517b730 OP_EQUALVERIFY OP_CHECKSIG", "type": "pubkeyhash"}, "value": 0.00711924, "n": 1}], "hex": "0100000002b2906f448efa051635506138649fe185b2cc73610173dad439d4cae3ce490a48000000006a47304402205f77045e5286a990448a30ae700b732d92edaa9e426bd3a24d6c63e121f39be40220415610b066d1abcc6a8b9470a7bda1bcd3ca1d24ab3cfe58c8d891f994076b0401210225ab230d2694106e46310fc1fcb39a1b1b95479ac32dc2550aaf473626129e9bffffffff5f8f23ce7c330c59886a1939441bff09d6b74ae3f030afba4df607419b40ee56000000006b48304502210087ee2157eeb0af4ad56941938d5bfbd4441151790d4ce67652170f0a11bfbc1602207235666f7489f24a7c6a7ad8549cde52a61bdf0c69a95675e3227791401dbdcb012102899c58c6030fdc30d1448f7ac7300e213381311832ccf6c076cfed0473f47432ffffffff02c4940100000000001976a9146e59c5fe5ed7892fedecb65a70133f2aae3e5e9388acf4dc0a00000000001976a9141aed4c7eb06803a186fd0b819b6b64a5a517b73088ac00000000", "vin": [{"sequence": 4294967295, "scriptSig": {"hex": "47304402205f77045e5286a990448a30ae700b732d92edaa9e426bd3a24d6c63e121f39be40220415610b066d1abcc6a8b9470a7bda1bcd3ca1d24ab3cfe58c8d891f994076b0401210225ab230d2694106e46310fc1fcb39a1b1b95479ac32dc2550aaf473626129e9b", "asm": "304402205f77045e5286a990448a30ae700b732d92edaa9e426bd3a24d6c63e121f39be40220415610b066d1abcc6a8b9470a7bda1bcd3ca1d24ab3cfe58c8d891f994076b04[ALL] 0225ab230d2694106e46310fc1fcb39a1b1b95479ac32dc2550aaf473626129e9b"}, "vout": 0, "txid": "480a49cee3cad439d4da73016173ccb285e19f64386150351605fa8e446f90b2"}, {"sequence": 4294967295, "scriptSig": {"hex": "48304502210087ee2157eeb0af4ad56941938d5bfbd4441151790d4ce67652170f0a11bfbc1602207235666f7489f24a7c6a7ad8549cde52a61bdf0c69a95675e3227791401dbdcb012102899c58c6030fdc30d1448f7ac7300e213381311832ccf6c076cfed0473f47432", "asm": "304502210087ee2157eeb0af4ad56941938d5bfbd4441151790d4ce67652170f0a11bfbc1602207235666f7489f24a7c6a7ad8549cde52a61bdf0c69a95675e3227791401dbdcb[ALL] 02899c58c6030fdc30d1448f7ac7300e213381311832ccf6c076cfed0473f47432"}, "vout": 0, "txid": "56ee409b4107f64dbaaf30f0e34ab7d609ff1b4439196a88590c337cce238f5f"}], "txid": "80c5fc5df8d49486dd2d5cbfdeb183daf295777ca0f1bedaf202064e0ac201d0", "blocktime": 1537870564, "version": 1, "confirmations": 11515, "time": 1537870564, "locktime": 0, "vsize": 373, "size": 373}