{"hash": "f8ce1cca021045e2f391268cb626efcbe7e7d6e228c041a07127b98f5c199df4", "blockhash": "0000000000000000000dcc0f55137456b1a82d3642486a52398922ac4d620174", "vout": [{"scriptPubKey": {"reqSigs": 1, "hex": "001446947568c40d4cc6a6594f4722cc9b844371a3ea", "addresses": ["bc1qg62826xyp4xvdfjefarj9nyms3phrgl2wkvccr"], "asm": "0 46947568c40d4cc6a6594f4722cc9b844371a3ea", "type": "witness_v0_keyhash"}, "value": 0.0003815, "n": 0}, {"scriptPubKey": {"reqSigs": 1, "hex": "76a9147ddcdedaf96cc55191c37fc69a2916616a4a950e88ac", "addresses": ["1CUW4LGTgZnN5KW1y9vgY5pZYYPBkx1emY"], "asm": "OP_DUP OP_HASH160 7ddcdedaf96cc55191c37fc69a2916616a4a950e OP_EQUALVERIFY OP_CHECKSIG", "type": "pubkeyhash"}, "value": 0.01983668, "n": 1}], "hex": "01000000000101204c0d79d61d72685deead6fa8e30aba177aebcd63dccf853b959442883b44c30100000017160014d8f4eff729ae0ab42569cb05d0a60906f0511e4affffffff02069500000000000016001446947568c40d4cc6a6594f4722cc9b844371a3eab4441e00000000001976a9147ddcdedaf96cc55191c37fc69a2916616a4a950e88ac02483045022100fe3e7f8c79b2ee233fa456866e5c6a506408f25ec513e39eb277affccca9fb1102206af5b0aa85e3ebdd592caa1a3ee44353b1ef947a8d86e82ae76ee6ac0dcad27a012102ad6a727910e21141b920ec64dcb331ec07bddc120140041fb17f5d734525288c00000000", "vin": [{"txinwitness": ["3045022100fe3e7f8c79b2ee233fa456866e5c6a506408f25ec513e39eb277affccca9fb1102206af5b0aa85e3ebdd592caa1a3ee44353b1ef947a8d86e82ae76ee6ac0dcad27a01", "02ad6a727910e21141b920ec64dcb331ec07bddc120140041fb17f5d734525288c"], "sequence": 4294967295, "scriptSig": {"hex": "160014d8f4eff729ae0ab42569cb05d0a60906f0511e4a", "asm": "0014d8f4eff729ae0ab42569cb05d0a60906f0511e4a"}, "vout": 1, "txid": "c3443b884294953b85cfdc63cdeb7a17ba0ae3a86fadee5d68721dd6790d4c20"}], "txid": "80c86f083a0a33492de390a311b375824d40e1106e268e0e6220f03748059020", "blocktime": 1537870268, "version": 1, "confirmations": 11518, "time": 1537870268, "locktime": 0, "vsize": 167, "size": 249}