{"hash": "fb00fa7930ba716f6c608581acf7ade9147409a34671818a48dbf83a547d3687", "blockhash": "0000000000000000001f0ddff1eddb255c1121bcd4da4f1bc9a0da00cae72433", "vout": [{"scriptPubKey": {"reqSigs": 1, "hex": "a914746d4172ddd86a5c3b6979f4f1cdd2f4f97042f087", "addresses": ["3CJdC1foVTjAqF2SzLQHh2prdVrxQ2WdHQ"], "asm": "OP_HASH160 746d4172ddd86a5c3b6979f4f1cdd2f4f97042f0 OP_EQUAL", "type": "scripthash"}, "value": 0.001914, "n": 0}, {"scriptPubKey": {"reqSigs": 1, "hex": "a914fb68fc52d4a6205ade7e7e74c171ae6145baa0c287", "addresses": ["3QcMJDuJckbSDbNeWQWYMQkmN58yRAYRt2"], "asm": "OP_HASH160 fb68fc52d4a6205ade7e7e74c171ae6145baa0c2 OP_EQUAL", "type": "scripthash"}, "value": 0.12008288, "n": 1}], "hex": "010000000001015ffed91e3754a022dce8abf360099a20803d0a8f7cbecdaf2fa8761f11469d7a00000000232200202482a788576cee74b24eb589bdd97353cf8a7ab27afd1ff1a3f34def4c5ece78ffffffff02a8eb02000000000017a914746d4172ddd86a5c3b6979f4f1cdd2f4f97042f087603bb7000000000017a914fb68fc52d4a6205ade7e7e74c171ae6145baa0c2870400483045022100ca433fff39f249400947b2b05d77aedfa4d66279113ecdd5a7aef22818f59395022049aff0bba9406ce97fbe81be3e5ad284d559d2b1c24cd58fd0faca746f46ea6d01473044022038ed8c29daeb22882bd9934c9f4c4189a37f7b3d9905c4010a5939b258e0ebd602207bc3c2f43b5c1b6a4af02b562c8b431bf91ed1e394b44d9e6f96129323201e08014752210355c3588106799fe298d20b08b6aed418a083a3c2699fd57b16ffd5f0e134223921038b1b6ed49cc72906c5c0e2461e321ac7d1bb62efef523bca036dc542747c8d8352ae00000000", "vin": [{"txinwitness": ["", "3045022100ca433fff39f249400947b2b05d77aedfa4d66279113ecdd5a7aef22818f59395022049aff0bba9406ce97fbe81be3e5ad284d559d2b1c24cd58fd0faca746f46ea6d01", "3044022038ed8c29daeb22882bd9934c9f4c4189a37f7b3d9905c4010a5939b258e0ebd602207bc3c2f43b5c1b6a4af02b562c8b431bf91ed1e394b44d9e6f96129323201e0801", "52210355c3588106799fe298d20b08b6aed418a083a3c2699fd57b16ffd5f0e134223921038b1b6ed49cc72906c5c0e2461e321ac7d1bb62efef523bca036dc542747c8d8352ae"], "sequence": 4294967295, "scriptSig": {"hex": "2200202482a788576cee74b24eb589bdd97353cf8a7ab27afd1ff1a3f34def4c5ece78", "asm": "00202482a788576cee74b24eb589bdd97353cf8a7ab27afd1ff1a3f34def4c5ece78"}, "vout": 0, "txid": "7a9d46111f76a82fafcdbe7c8f0a3d80209a0960f3abe8dc22a054371ed9fe5f"}], "txid": "80e3f38812cd2807f99373d0a60c380afa995a503fe41eb4251c7838c3cdc4e8", "blocktime": 1537872018, "version": 1, "confirmations": 11489, "time": 1537872018, "locktime": 0, "vsize": 206, "size": 371}