{"hash": "80e4dc60eddf52684e23ce6e48988ec519f7a54bc960b3bcd8272ddb982b5148", "blockhash": "00000000000000000017f5eb5941039fbcee6240d03bc1f2f8e35350df66a1d8", "vout": [{"scriptPubKey": {"reqSigs": 1, "hex": "76a914bc588303e7830ca29a360c65a9a262a915f597d788ac", "addresses": ["1JAt4yH4d5x3qkKEsNWs1SbgwoPjYYY5GE"], "asm": "OP_DUP OP_HASH160 bc588303e7830ca29a360c65a9a262a915f597d7 OP_EQUALVERIFY OP_CHECKSIG", "type": "pubkeyhash"}, "value": 0.0056219, "n": 0}, {"scriptPubKey": {"reqSigs": 1, "hex": "76a91455e80642dcc183d6a8f934b3cd9c49aebfab603b88ac", "addresses": ["18qEPeZJw47A7f7SR8icbVzJE3FmJ61u7Z"], "asm": "OP_DUP OP_HASH160 55e80642dcc183d6a8f934b3cd9c49aebfab603b OP_EQUALVERIFY OP_CHECKSIG", "type": "pubkeyhash"}, "value": 0.069, "n": 1}], "hex": "0100000001e3a70b206eb8be548b209065bae0f82d62284cc514366bde76ccf8d6e0782454000000006a4730440220638b5db72a739c4b50d3929c198b48c2a016bf458f531de44586addb091f4e3d0220374f6d179171e32559d4507eca59ba1013b53719f274aff6e15eebe7a9966d5001210237dc0e1cbebd9723cad0bcaa5256f20e00fee19e98691a64b640277099c4ccd6ffffffff020e940800000000001976a914bc588303e7830ca29a360c65a9a262a915f597d788ac20496900000000001976a91455e80642dcc183d6a8f934b3cd9c49aebfab603b88ac00000000", "vin": [{"sequence": 4294967295, "scriptSig": {"hex": "4730440220638b5db72a739c4b50d3929c198b48c2a016bf458f531de44586addb091f4e3d0220374f6d179171e32559d4507eca59ba1013b53719f274aff6e15eebe7a9966d5001210237dc0e1cbebd9723cad0bcaa5256f20e00fee19e98691a64b640277099c4ccd6", "asm": "30440220638b5db72a739c4b50d3929c198b48c2a016bf458f531de44586addb091f4e3d0220374f6d179171e32559d4507eca59ba1013b53719f274aff6e15eebe7a9966d50[ALL] 0237dc0e1cbebd9723cad0bcaa5256f20e00fee19e98691a64b640277099c4ccd6"}, "vout": 0, "txid": "542478e0d6f8cc76de6b3614c54c28622df8e0ba6590208b54beb86e200ba7e3"}], "txid": "80e4dc60eddf52684e23ce6e48988ec519f7a54bc960b3bcd8272ddb982b5148", "blocktime": 1537874412, "version": 1, "confirmations": 11468, "time": 1537874412, "locktime": 0, "vsize": 225, "size": 225}