{"hash": "2556da0c69573b774cd48120b7b65440225c8248f7da8f3745916ea757dd03ea", "blockhash": "0000000000000000001f76057863aec43deb6fa401d9628bb513d65a8098bfab", "vout": [{"scriptPubKey": {"reqSigs": 1, "hex": "76a914b55649c194881389dbf1b54b81a544272554d14d88ac", "addresses": ["1HXpg8D9AMGFVZ9FEU2tkZYvAZ8xBhVudo"], "asm": "OP_DUP OP_HASH160 b55649c194881389dbf1b54b81a544272554d14d OP_EQUALVERIFY OP_CHECKSIG", "type": "pubkeyhash"}, "value": 0.0033226, "n": 0}, {"scriptPubKey": {"reqSigs": 1, "hex": "a914982af7af92e13f62d82c9de595a7209a93ef30ce87", "addresses": ["3FZc78woyx9RMKfbUsYnVvMC6StkLTmyDW"], "asm": "OP_HASH160 982af7af92e13f62d82c9de595a7209a93ef30ce OP_EQUAL", "type": "scripthash"}, "value": 0.00999692, "n": 1}], "hex": "02000000000102bdc71ab6d2f69fb2774cdf91106f794e6fd1badb2c4059a0b375d21e6a4c43690700000017160014fbefd80d5038a245612e3dfcaba55205b5f16581feffffffd4a7db36b71b27daed5e8fe098a137a1c5d9626a0cd35c276c9bea1d1f775ae201000000171600147d0625195feff3ccfb319e25d7d4d1ac15a7cbddfeffffff02e4110500000000001976a914b55649c194881389dbf1b54b81a544272554d14d88ac0c410f000000000017a914982af7af92e13f62d82c9de595a7209a93ef30ce8702483045022100ea8d911b2264d16de439179df832dfd113074404950672dcfc08cde161237ec602205a0c4889ccf347b5e27137d1aea9ecb6bab698827d5d36d485545923e45132170121035df7404f8ad8a22f7dea17df70c535c70446aedc6e47a3feadf83187c9b0e2be0248304502210099250671d0d913fbd19c7a3c60f2e0ed9bf53c13af5d392bb351728a4827d92f02200999186859f5b9e8b4bee6c50764a69f336186e7b86f7b490b02c3d4233519f40121021b55311095cdb76d00dc70515460db2b2ec354f2258186fbaefa2e45185b7cf714490800", "vin": [{"txinwitness": ["3045022100ea8d911b2264d16de439179df832dfd113074404950672dcfc08cde161237ec602205a0c4889ccf347b5e27137d1aea9ecb6bab698827d5d36d485545923e451321701", "035df7404f8ad8a22f7dea17df70c535c70446aedc6e47a3feadf83187c9b0e2be"], "sequence": 4294967294, "scriptSig": {"hex": "160014fbefd80d5038a245612e3dfcaba55205b5f16581", "asm": "0014fbefd80d5038a245612e3dfcaba55205b5f16581"}, "vout": 7, "txid": "69434c6a1ed275b3a059402cdbbad16f4e796f1091df4c77b29ff6d2b61ac7bd"}, {"txinwitness": ["304502210099250671d0d913fbd19c7a3c60f2e0ed9bf53c13af5d392bb351728a4827d92f02200999186859f5b9e8b4bee6c50764a69f336186e7b86f7b490b02c3d4233519f401", "021b55311095cdb76d00dc70515460db2b2ec354f2258186fbaefa2e45185b7cf7"], "sequence": 4294967294, "scriptSig": {"hex": "1600147d0625195feff3ccfb319e25d7d4d1ac15a7cbdd", "asm": "00147d0625195feff3ccfb319e25d7d4d1ac15a7cbdd"}, "vout": 1, "txid": "e25a771f1dea9b6c275cd30c6a62d9c5a137a198e08f5eedda271bb736dba7d4"}], "txid": "80e73b30598dc3c8653604dcafacdcef852c3cf674473821f933f9ca14bf4671", "blocktime": 1537873891, "version": 2, "confirmations": 11478, "time": 1537873891, "locktime": 542996, "vsize": 259, "size": 422}