{"hash": "80e8ca0b3926a6606275c37b55a3fbc379f5e6278de94d7ad2f5c9277d0f7932", "blockhash": "0000000000000000001cda96e906b7601b7a6fb1a3b62bca570a9e5d8f4b3de1", "vout": [{"scriptPubKey": {"reqSigs": 1, "hex": "76a91449cf53dc4858af740b5bcacbf0c058d8f2d9029088ac", "addresses": ["17jGhNqHRona5a1MaAmbAFck7AsmDmrENZ"], "asm": "OP_DUP OP_HASH160 49cf53dc4858af740b5bcacbf0c058d8f2d90290 OP_EQUALVERIFY OP_CHECKSIG", "type": "pubkeyhash"}, "value": 0.00078427, "n": 0}, {"scriptPubKey": {"reqSigs": 1, "hex": "76a914bf6746a148a3dd33c0b8f63e3f7a010d4feb056188ac", "addresses": ["1JT3nNjx8V3BWDdgFrdV5C8jinqCgUCNqb"], "asm": "OP_DUP OP_HASH160 bf6746a148a3dd33c0b8f63e3f7a010d4feb0561 OP_EQUALVERIFY OP_CHECKSIG", "type": "pubkeyhash"}, "value": 0.002618, "n": 1}], "hex": "0100000001b9c28c1fd0aaac69c9ef79509ab53da6ae8cfc0dd8508b9053963fed9d39382b020000006b4830450221008f263c4b289d10265729a096faa0a5f9a7aa340c4f7523370b727e0ef44453c8022050273d5920603a905b231dc828cbde8df86daa11c6f95c12c06b2522d1c7a2b00121037a727bd1f1891610d5b43d69a4d1017d8bc1888d0e1d0826dbdbb394925f9ecbffffffff025b320100000000001976a91449cf53dc4858af740b5bcacbf0c058d8f2d9029088aca8fe0300000000001976a914bf6746a148a3dd33c0b8f63e3f7a010d4feb056188ac00000000", "vin": [{"sequence": 4294967295, "scriptSig": {"hex": "4830450221008f263c4b289d10265729a096faa0a5f9a7aa340c4f7523370b727e0ef44453c8022050273d5920603a905b231dc828cbde8df86daa11c6f95c12c06b2522d1c7a2b00121037a727bd1f1891610d5b43d69a4d1017d8bc1888d0e1d0826dbdbb394925f9ecb", "asm": "30450221008f263c4b289d10265729a096faa0a5f9a7aa340c4f7523370b727e0ef44453c8022050273d5920603a905b231dc828cbde8df86daa11c6f95c12c06b2522d1c7a2b0[ALL] 037a727bd1f1891610d5b43d69a4d1017d8bc1888d0e1d0826dbdbb394925f9ecb"}, "vout": 2, "txid": "2b38399ded3f9653908b50d80dfc8caea63db59a5079efc969acaad01f8cc2b9"}], "txid": "80e8ca0b3926a6606275c37b55a3fbc379f5e6278de94d7ad2f5c9277d0f7932", "blocktime": 1537873282, "version": 1, "confirmations": 11484, "time": 1537873282, "locktime": 0, "vsize": 226, "size": 226}