{"hash": "80e8fb701b0d3581d699b1a3247ed55cbbd18c05ee3e9402f62e743e0653df3a", "blockhash": "0000000000000000001cda96e906b7601b7a6fb1a3b62bca570a9e5d8f4b3de1", "vout": [{"scriptPubKey": {"reqSigs": 1, "hex": "76a9145161b244ea3210babd5fed3f3d7638f014156daa88ac", "addresses": ["18RJmbqZLpiwKaFz63pAkZsXzmv75Nuhso"], "asm": "OP_DUP OP_HASH160 5161b244ea3210babd5fed3f3d7638f014156daa OP_EQUALVERIFY OP_CHECKSIG", "type": "pubkeyhash"}, "value": 0.00285315, "n": 0}], "hex": "01000000036b1720ff1f02f30f8404193a02f07d1b0afafbd7e387b822ad41e0dffe884126010000006b483045022100dba3f340fdf7bb7d180fb56de2ebdc657530617d6f6b5e405b39e88ea4e78ee60220316f4e7121356dba1dae9f6b92137bc857e07c16595d14120463fd3fdd68ab2101210339184a614f75e4678fc338b0b6086707ebea3b4f75daeeb42dc0e7ffa9ad33ecffffffffbb527516413bc35063809d535d11417d92658e001dafabd78cc4be0b7a1c9d2f070000006b483045022100c637a2bb7a33fe7d7b5d127b92dbcb77dd2f5ef2a352090800ab33ac0690feed022032b0a5e26935469f7f9ae2abb978fd60cb7ec9ad13a2194e37d03d6ae1e2263701210250aa9f3ce19c51b50c9e4140b37d74d4010dfb2bd58635c39464423b4e3f94d1ffffffff6723b311a852255e68590388517c00bf9caf8e28d1825ace060f55bfdd04e731060000006b483045022100e8f7a18ffe8b3491bbbe40ab412e50c94bc3ea94171c323b2bc1ac70532477930220138aef0734561605dc4bcdad8b1d564948f80348b8e6805ac2fe86d143764ff101210250aa9f3ce19c51b50c9e4140b37d74d4010dfb2bd58635c39464423b4e3f94d1ffffffff01835a0400000000001976a9145161b244ea3210babd5fed3f3d7638f014156daa88ac00000000", "vin": [{"sequence": 4294967295, "scriptSig": {"hex": "483045022100dba3f340fdf7bb7d180fb56de2ebdc657530617d6f6b5e405b39e88ea4e78ee60220316f4e7121356dba1dae9f6b92137bc857e07c16595d14120463fd3fdd68ab2101210339184a614f75e4678fc338b0b6086707ebea3b4f75daeeb42dc0e7ffa9ad33ec", "asm": "3045022100dba3f340fdf7bb7d180fb56de2ebdc657530617d6f6b5e405b39e88ea4e78ee60220316f4e7121356dba1dae9f6b92137bc857e07c16595d14120463fd3fdd68ab21[ALL] 0339184a614f75e4678fc338b0b6086707ebea3b4f75daeeb42dc0e7ffa9ad33ec"}, "vout": 1, "txid": "264188fedfe041ad22b887e3d7fbfa0a1b7df0023a1904840ff3021fff20176b"}, {"sequence": 4294967295, "scriptSig": {"hex": "483045022100c637a2bb7a33fe7d7b5d127b92dbcb77dd2f5ef2a352090800ab33ac0690feed022032b0a5e26935469f7f9ae2abb978fd60cb7ec9ad13a2194e37d03d6ae1e2263701210250aa9f3ce19c51b50c9e4140b37d74d4010dfb2bd58635c39464423b4e3f94d1", "asm": "3045022100c637a2bb7a33fe7d7b5d127b92dbcb77dd2f5ef2a352090800ab33ac0690feed022032b0a5e26935469f7f9ae2abb978fd60cb7ec9ad13a2194e37d03d6ae1e22637[ALL] 0250aa9f3ce19c51b50c9e4140b37d74d4010dfb2bd58635c39464423b4e3f94d1"}, "vout": 7, "txid": "2f9d1c7a0bbec48cd7abaf1d008e65927d41115d539d806350c33b41167552bb"}, {"sequence": 4294967295, "scriptSig": {"hex": "483045022100e8f7a18ffe8b3491bbbe40ab412e50c94bc3ea94171c323b2bc1ac70532477930220138aef0734561605dc4bcdad8b1d564948f80348b8e6805ac2fe86d143764ff101210250aa9f3ce19c51b50c9e4140b37d74d4010dfb2bd58635c39464423b4e3f94d1", "asm": "3045022100e8f7a18ffe8b3491bbbe40ab412e50c94bc3ea94171c323b2bc1ac70532477930220138aef0734561605dc4bcdad8b1d564948f80348b8e6805ac2fe86d143764ff1[ALL] 0250aa9f3ce19c51b50c9e4140b37d74d4010dfb2bd58635c39464423b4e3f94d1"}, "vout": 6, "txid": "31e704ddbf550f06ce5a82d1288eaf9cbf007c51880359685e2552a811b32367"}], "txid": "80e8fb701b0d3581d699b1a3247ed55cbbd18c05ee3e9402f62e743e0653df3a", "blocktime": 1537873282, "version": 1, "confirmations": 11483, "time": 1537873282, "locktime": 0, "vsize": 488, "size": 488}