{"hash": "80e92cdaf99bec675ed99ecaa596d0cae2b6b97b5a35f65a0a8a985ef0d4cc96", "blockhash": "0000000000000000001cda96e906b7601b7a6fb1a3b62bca570a9e5d8f4b3de1", "vout": [{"scriptPubKey": {"reqSigs": 1, "hex": "76a914916475a8f2e92489796e6d682c167374a52ef1c888ac", "addresses": ["1EFmKsYUsSChHNwMddsKgx4s5Yjbm13JUz"], "asm": "OP_DUP OP_HASH160 916475a8f2e92489796e6d682c167374a52ef1c8 OP_EQUALVERIFY OP_CHECKSIG", "type": "pubkeyhash"}, "value": 0.005, "n": 0}, {"scriptPubKey": {"reqSigs": 1, "hex": "76a91488d924f51033b74a895863a5fb57fd545529df7d88ac", "addresses": ["1DUb2YYbQA1jjaNYzVXLZ7ZioEhLXtbUru"], "asm": "OP_DUP OP_HASH160 88d924f51033b74a895863a5fb57fd545529df7d OP_EQUALVERIFY OP_CHECKSIG", "type": "pubkeyhash"}, "value": 0.73280142, "n": 1}], "hex": "0100000001e68fa6d0e0f48aa0d73d558043048f221b26d07413a4fa460acafb1401646a40000000006b483045022100dc842d33b3381805f4afb8f9807b2f7c052d791d7f681a2ec04f2a34f777d88f022008c44b2c7d4bf16ab7c302c5d60c46c6c8404735838feb135cdf43d7d37a399d0121030888863fcb4cdf5b7d33b40e613af35df8f39d576e7972238b0d396cd3fcc3f2ffffffff0220a10700000000001976a914916475a8f2e92489796e6d682c167374a52ef1c888ac8e2a5e04000000001976a91488d924f51033b74a895863a5fb57fd545529df7d88ac00000000", "vin": [{"sequence": 4294967295, "scriptSig": {"hex": "483045022100dc842d33b3381805f4afb8f9807b2f7c052d791d7f681a2ec04f2a34f777d88f022008c44b2c7d4bf16ab7c302c5d60c46c6c8404735838feb135cdf43d7d37a399d0121030888863fcb4cdf5b7d33b40e613af35df8f39d576e7972238b0d396cd3fcc3f2", "asm": "3045022100dc842d33b3381805f4afb8f9807b2f7c052d791d7f681a2ec04f2a34f777d88f022008c44b2c7d4bf16ab7c302c5d60c46c6c8404735838feb135cdf43d7d37a399d[ALL] 030888863fcb4cdf5b7d33b40e613af35df8f39d576e7972238b0d396cd3fcc3f2"}, "vout": 0, "txid": "406a640114fbca0a46faa41374d0261b228f044380553dd7a08af4e0d0a68fe6"}], "txid": "80e92cdaf99bec675ed99ecaa596d0cae2b6b97b5a35f65a0a8a985ef0d4cc96", "blocktime": 1537873282, "version": 1, "confirmations": 11481, "time": 1537873282, "locktime": 0, "vsize": 226, "size": 226}