{"hash": "80ea08cfbeed4e526c9b4c34897bcda66e6317190d35a974890995a5d1369d1d", "blockhash": "00000000000000000024a2167bbff67b0be802c0b01cdd79e6331c2be6459f87", "vout": [{"scriptPubKey": {"reqSigs": 1, "hex": "76a9145fa711c4395a52a297595168738694b422229c8c88ac", "addresses": ["19imLQk11svTEJM8Bk5dMHYBAUF2Ax9F4R"], "asm": "OP_DUP OP_HASH160 5fa711c4395a52a297595168738694b422229c8c OP_EQUALVERIFY OP_CHECKSIG", "type": "pubkeyhash"}, "value": 5.875e-05, "n": 0}, {"scriptPubKey": {"reqSigs": 1, "hex": "a9147e354037e6c28e7d0b42b0ff93604c8179dbc4a887", "addresses": ["3DCLreZs1CXBbwPd3dveN9qfSggfwX92F7"], "asm": "OP_HASH160 7e354037e6c28e7d0b42b0ff93604c8179dbc4a8 OP_EQUAL", "type": "scripthash"}, "value": 0.0018715, "n": 1}], "hex": "010000000155c1de11b8de3c9c3689c6255ef2c263e7476b989a126db4d6588bc0cbb17ce3000000006b483045022100f5d2bc3face2761b1c26467441254455e09eb1f40cd6a7c4f7624ab016c019ae02201f9f83aef56b69791994163f4efbf386951d5cb306d0ffa3f58025d6a4b2a0030121021ee48091c836476d1c42b18cb7192cf660e8a27d1665cfb7444cbc68a49246d9ffffffff02f3160000000000001976a9145fa711c4395a52a297595168738694b422229c8c88ac0edb02000000000017a9147e354037e6c28e7d0b42b0ff93604c8179dbc4a88700000000", "vin": [{"sequence": 4294967295, "scriptSig": {"hex": "483045022100f5d2bc3face2761b1c26467441254455e09eb1f40cd6a7c4f7624ab016c019ae02201f9f83aef56b69791994163f4efbf386951d5cb306d0ffa3f58025d6a4b2a0030121021ee48091c836476d1c42b18cb7192cf660e8a27d1665cfb7444cbc68a49246d9", "asm": "3045022100f5d2bc3face2761b1c26467441254455e09eb1f40cd6a7c4f7624ab016c019ae02201f9f83aef56b69791994163f4efbf386951d5cb306d0ffa3f58025d6a4b2a003[ALL] 021ee48091c836476d1c42b18cb7192cf660e8a27d1665cfb7444cbc68a49246d9"}, "vout": 0, "txid": "e37cb1cbc08b58d6b46d129a986b47e763c2f25e25c689369c3cdeb811dec155"}], "txid": "80ea08cfbeed4e526c9b4c34897bcda66e6317190d35a974890995a5d1369d1d", "blocktime": 1537870564, "version": 1, "confirmations": 11515, "time": 1537870564, "locktime": 0, "vsize": 224, "size": 224}