{"hash": "10f04866b42a79961a95a96ba611b09cc58fcfc4738e7c358ba059c25711b025", "blockhash": "0000000000000000000baef3f32e3676a92c3b2e5da21b426e4f302fc371ce76", "vout": [{"scriptPubKey": {"reqSigs": 1, "hex": "76a914df68e33cd274b726e5b6e5eb5f091e5ad860b59188ac", "addresses": ["1MNHLVyp98kzSK3KdTicKmcFoNAmpQDaHe"], "asm": "OP_DUP OP_HASH160 df68e33cd274b726e5b6e5eb5f091e5ad860b591 OP_EQUALVERIFY OP_CHECKSIG", "type": "pubkeyhash"}, "value": 0.00010019, "n": 0}, {"scriptPubKey": {"reqSigs": 1, "hex": "a914f5342287aaa57f5c05756dbd5ef14091cc70030f87", "addresses": ["3Q3XvwKWsx3ocmCXheK6pAo5ieooFx75hh"], "asm": "OP_HASH160 f5342287aaa57f5c05756dbd5ef14091cc70030f OP_EQUAL", "type": "scripthash"}, "value": 0.08251701, "n": 1}], "hex": "01000000000101de2a54ec45cf2681572f80ac838cc9c9c07beb644bec96299087e25c431c7a2f01000000232200204fd7968ffe15cb453352a1e9ee2915eff8b6d6252d5a351f9092b82ca10eb12cffffffff0223270000000000001976a914df68e33cd274b726e5b6e5eb5f091e5ad860b59188ac35e97d000000000017a914f5342287aaa57f5c05756dbd5ef14091cc70030f870400473044022076a6a28f3f0b3a8605b81c136e65a19b8586b3803c8ba35e5d7e5bdf821e6ca802204bf0018971809039f707fc2701347310f7fd6b0b9b5f6f0b581ef1d216b26cb20147304402200f48819163598877464d1d9eee40c734b08c4e82fe1b5cc3cb5a10f5749aab970220530748759f83a1127802657a5859ca6eee05b3cb6fb61e2eddc40d14374f05440147522103b70e79262cbb7310fe069dea7c473b53276b75c67fb841ff66279f152a3fe0172103871fc2ca08e6950b38867e8e6a0e94ee625223d3aa0df5c65f414c6d784467e252ae00000000", "vin": [{"txinwitness": ["", "3044022076a6a28f3f0b3a8605b81c136e65a19b8586b3803c8ba35e5d7e5bdf821e6ca802204bf0018971809039f707fc2701347310f7fd6b0b9b5f6f0b581ef1d216b26cb201", "304402200f48819163598877464d1d9eee40c734b08c4e82fe1b5cc3cb5a10f5749aab970220530748759f83a1127802657a5859ca6eee05b3cb6fb61e2eddc40d14374f054401", "522103b70e79262cbb7310fe069dea7c473b53276b75c67fb841ff66279f152a3fe0172103871fc2ca08e6950b38867e8e6a0e94ee625223d3aa0df5c65f414c6d784467e252ae"], "sequence": 4294967295, "scriptSig": {"hex": "2200204fd7968ffe15cb453352a1e9ee2915eff8b6d6252d5a351f9092b82ca10eb12c", "asm": "00204fd7968ffe15cb453352a1e9ee2915eff8b6d6252d5a351f9092b82ca10eb12c"}, "vout": 1, "txid": "2f7a1c435ce287902996ec4b64eb7bc0c9c98c83ac802f578126cf45ec542ade"}], "txid": "80f6f009cc94bebfb839b0ce1daeebb6eab63c757e9d0e348b9aeb4b7c0a9086", "blocktime": 1537876114, "version": 1, "confirmations": 11460, "time": 1537876114, "locktime": 0, "vsize": 207, "size": 372}