{"hash": "0ca20ab881ed122e72185e2dcc8fabde6d813ba6207ab4d7c3e4d636740fcbfa", "blockhash": "0000000000000000001f76057863aec43deb6fa401d9628bb513d65a8098bfab", "vout": [{"scriptPubKey": {"reqSigs": 1, "hex": "76a9147e283d41f6f962e72deb36220fe796db7f56e86388ac", "addresses": ["1CW4M3dbzWktP8rnoFHdLD4yfjPDGF9hNA"], "asm": "OP_DUP OP_HASH160 7e283d41f6f962e72deb36220fe796db7f56e863 OP_EQUALVERIFY OP_CHECKSIG", "type": "pubkeyhash"}, "value": 1.0000008, "n": 0}, {"scriptPubKey": {"reqSigs": 1, "hex": "a914e8fdc50fbe40b5a1a07d1d3aa1e2b55b92afd3dd87", "addresses": ["3NvxhHGNHj3jbGQLEawD5wjwsc99GSzuvi"], "asm": "OP_HASH160 e8fdc50fbe40b5a1a07d1d3aa1e2b55b92afd3dd OP_EQUAL", "type": "scripthash"}, "value": 2.16957217, "n": 1}], "hex": "020000000001015c6befd82fae53c5ab033de2fad48a9654a05923f37df4ddbabf045d50336f7d0000000017160014055e5e584aa2020ff918a76afe898a8f43fd3073fdffffff0250e1f505000000001976a9147e283d41f6f962e72deb36220fe796db7f56e86388ac2181ee0c0000000017a914e8fdc50fbe40b5a1a07d1d3aa1e2b55b92afd3dd8702483045022100bf637fd88569b39417aa0ec80d6ca18ac66ae82d078cc34bf08dbcf39fb7875002203e53f829af06e15cc87b06a8bda66b160969fc5fd59cf770eaf158ddfc552801012102fd2aac4f48b8be94257b21658d2e0c211c05415ea34413b9c77139af19c143ff14490800", "vin": [{"txinwitness": ["3045022100bf637fd88569b39417aa0ec80d6ca18ac66ae82d078cc34bf08dbcf39fb7875002203e53f829af06e15cc87b06a8bda66b160969fc5fd59cf770eaf158ddfc55280101", "02fd2aac4f48b8be94257b21658d2e0c211c05415ea34413b9c77139af19c143ff"], "sequence": 4294967293, "scriptSig": {"hex": "160014055e5e584aa2020ff918a76afe898a8f43fd3073", "asm": "0014055e5e584aa2020ff918a76afe898a8f43fd3073"}, "vout": 0, "txid": "7d6f33505d04bfbaddf47df32359a054968ad4fae23d03abc553ae2fd8ef6b5c"}], "txid": "81030756ca52c2e048aadecd4b7e8d71aa7c2096dbf85700c139976da061ada0", "blocktime": 1537873891, "version": 2, "confirmations": 11475, "time": 1537873891, "locktime": 542996, "vsize": 168, "size": 250}