{"hash": "810303b873bea56ca271c74e21d863ba583a854ff3a83386a9886b1ee3be8dbc", "blockhash": "00000000000000000004ffacab907a6b429b9a5745fa0b75af4234bf69dd7176", "vout": [{"scriptPubKey": {"reqSigs": 1, "hex": "76a914db3e1866d2a55550a353eb01d5de729f0f4d125388ac", "addresses": ["1LzFNUDbJPS8cbQBwtB6jPx1Rj4NnogmHR"], "asm": "OP_DUP OP_HASH160 db3e1866d2a55550a353eb01d5de729f0f4d1253 OP_EQUALVERIFY OP_CHECKSIG", "type": "pubkeyhash"}, "value": 0.028194, "n": 0}, {"scriptPubKey": {"reqSigs": 1, "hex": "76a914e9eeb36c844256047cf0b6c3233f7c1f47ebc61b88ac", "addresses": ["1NKvPvbNtu7rJU8yHxNRJ2fYhCVyofPyjT"], "asm": "OP_DUP OP_HASH160 e9eeb36c844256047cf0b6c3233f7c1f47ebc61b OP_EQUALVERIFY OP_CHECKSIG", "type": "pubkeyhash"}, "value": 0.487069, "n": 1}], "hex": "0100000001950b377b2bf6f09d88c86cc079d12b059cf9cad22b15100115936dab5cde4b3d010000006b483045022100b11225b3c61a6b684afa9c2cf6397da8f3b083596a3059d5bde7dc87197dc2560220300680d334daee7da922d656815036c3f8a7381c5c68ab8c7f03e7c21a27f334012102f706fd0028a5a1699ec2923723ab1bc9ec76965bb64ed3a4a7dbe0478fcce98bfcffffff0248052b00000000001976a914db3e1866d2a55550a353eb01d5de729f0f4d125388ac5435e702000000001976a914e9eeb36c844256047cf0b6c3233f7c1f47ebc61b88ac00000000", "vin": [{"sequence": 4294967292, "scriptSig": {"hex": "483045022100b11225b3c61a6b684afa9c2cf6397da8f3b083596a3059d5bde7dc87197dc2560220300680d334daee7da922d656815036c3f8a7381c5c68ab8c7f03e7c21a27f334012102f706fd0028a5a1699ec2923723ab1bc9ec76965bb64ed3a4a7dbe0478fcce98b", "asm": "3045022100b11225b3c61a6b684afa9c2cf6397da8f3b083596a3059d5bde7dc87197dc2560220300680d334daee7da922d656815036c3f8a7381c5c68ab8c7f03e7c21a27f334[ALL] 02f706fd0028a5a1699ec2923723ab1bc9ec76965bb64ed3a4a7dbe0478fcce98b"}, "vout": 1, "txid": "3d4bde5cab6d93150110152bd2caf99c052bd179c06cc8889df0f62b7b370b95"}], "txid": "810303b873bea56ca271c74e21d863ba583a854ff3a83386a9886b1ee3be8dbc", "blocktime": 1537875543, "version": 1, "confirmations": 11464, "time": 1537875543, "locktime": 0, "vsize": 226, "size": 226}