{"hash": "2c662437e17e313bf8f10243d65f338938c95885e612def73d250117c8b3148a", "blockhash": "0000000000000000000e13cef7c366c0283d82e591d1acd082e914b08063cdf1", "vout": [{"scriptPubKey": {"reqSigs": 1, "hex": "a91431b8d471c98fc05be6f2fc5888537e613e3c1d7a87", "addresses": ["36DvT9Vv8xxzQmnhmKnEvjz7qk1zcuB1Uh"], "asm": "OP_HASH160 31b8d471c98fc05be6f2fc5888537e613e3c1d7a OP_EQUAL", "type": "scripthash"}, "value": 0.01004777, "n": 0}, {"scriptPubKey": {"reqSigs": 1, "hex": "76a914f1c7c1a50e5a3abcc51916bc449a690df7d8254988ac", "addresses": ["1P3R9Yx3wxbt38AVdvY7aq6iNvozVzj2uf"], "asm": "OP_DUP OP_HASH160 f1c7c1a50e5a3abcc51916bc449a690df7d82549 OP_EQUALVERIFY OP_CHECKSIG", "type": "pubkeyhash"}, "value": 0.0021726, "n": 1}], "hex": "0200000000010263d64b8246a1113d3a45e17a91607e77bfe305f62524646e6d987039ca0fa0c10000000017160014ea117019008cee9b75c9fb87371253d4774369e7feffffff7f77e5034a9bb66b85f353e496af682b3a095ad4886d717d3515d2f5fcb24b260000000017160014566dfb058f36394b08a5f603ba4a692ce6dd3551feffffff02e9540f000000000017a91431b8d471c98fc05be6f2fc5888537e613e3c1d7a87ac500300000000001976a914f1c7c1a50e5a3abcc51916bc449a690df7d8254988ac0247304402202baeb11254fbb19a40244dd7fe0552d7fd4b18cd60c2c07bc10b03369253b9330220100a5ef71eedd8875718aaea8e67163f0b466a1d65660d99968da9480574b7d1012102b0cc23c38e59faec10343ca21bedc78b53d5f102be86bdd001fbe4e026d1aed00247304402202b146aa10a0802632b0842ec3c0739e9eaa76c24cbf6ad7f79f1f30e838fcbb5022001930b56d1b6bfdf4c7e81e92315a890d37b02290bdb177383c8051ae5f75bc201210311f45aa8586b2a4185019c7f92080c2f6fab980912ac33bd0c763d7e815d4d7410490800", "vin": [{"txinwitness": ["304402202baeb11254fbb19a40244dd7fe0552d7fd4b18cd60c2c07bc10b03369253b9330220100a5ef71eedd8875718aaea8e67163f0b466a1d65660d99968da9480574b7d101", "02b0cc23c38e59faec10343ca21bedc78b53d5f102be86bdd001fbe4e026d1aed0"], "sequence": 4294967294, "scriptSig": {"hex": "160014ea117019008cee9b75c9fb87371253d4774369e7", "asm": "0014ea117019008cee9b75c9fb87371253d4774369e7"}, "vout": 0, "txid": "c1a00fca3970986d6e642425f605e3bf777e60917ae1453a3d11a146824bd663"}, {"txinwitness": ["304402202b146aa10a0802632b0842ec3c0739e9eaa76c24cbf6ad7f79f1f30e838fcbb5022001930b56d1b6bfdf4c7e81e92315a890d37b02290bdb177383c8051ae5f75bc201", "0311f45aa8586b2a4185019c7f92080c2f6fab980912ac33bd0c763d7e815d4d74"], "sequence": 4294967294, "scriptSig": {"hex": "160014566dfb058f36394b08a5f603ba4a692ce6dd3551", "asm": "0014566dfb058f36394b08a5f603ba4a692ce6dd3551"}, "vout": 0, "txid": "264bb2fcf5d215357d716d88d45a093a2b68af96e453f3856bb69b4a03e5777f"}], "txid": "8107ae903e1da79259e890b1d9c08b886948fc26c6a99a25534ae50c2e81199f", "blocktime": 1537871767, "version": 2, "confirmations": 11495, "time": 1537871767, "locktime": 542992, "vsize": 258, "size": 420}