{"hash": "811138c241950bc2393032ba141142fcd36b44fb5bcda57d53036fc86150f250", "blockhash": "0000000000000000000baef3f32e3676a92c3b2e5da21b426e4f302fc371ce76", "vout": [{"scriptPubKey": {"reqSigs": 1, "hex": "76a914a75c898b4d846f98ecf2d040b3dccf53158ae5ac88ac", "addresses": ["1GFvhe3j2k4Xqq7XxuAqQgg5bGxuo6cDrw"], "asm": "OP_DUP OP_HASH160 a75c898b4d846f98ecf2d040b3dccf53158ae5ac OP_EQUALVERIFY OP_CHECKSIG", "type": "pubkeyhash"}, "value": 0.24960466, "n": 0}, {"scriptPubKey": {"reqSigs": 1, "hex": "a91461d0e7819d5dd6b01cdfaafc70699cf973dd4a8b87", "addresses": ["3AcDj5UjfjC2scNd1Gz9upbNRWTcHzomo7"], "asm": "OP_HASH160 61d0e7819d5dd6b01cdfaafc70699cf973dd4a8b OP_EQUAL", "type": "scripthash"}, "value": 0.89, "n": 1}], "hex": "0100000002f81ebc2b07d280f039d3d2e455eec3f18f749396aef0fb8df829c57a270f30ac010000006b483045022100e489cbb04ec3b19ae9f862f29926b0343854a1606ab4aff14237e7c378d1fe0e02207761502fc4b1aa76611f2ebfbdc6dbce1480f4b80d47417ee9f2c330a204a31c012103dc5dd0b1b75976c3c90908379517a826672131d9dbeba4c43469efed2ff04fffffffffff39e74e63364c71d84a2e801a9679c9ea6516c3076eae80bd32ab30b530c417d2000000006b483045022100be3c9eab0d65e2c408d84773aea3fbd87268a9cf2b861defd0d1750021053e8f022027ab68d6fe33e2a21ee9aebdd27e842c36e65aa9adfafd906c7eb0a9ea129ee40121022b87dae46a2449cc4b6fe6b1c3be7c6f216b56d4532b09c2458bd62ab5baad30ffffffff02d2dd7c01000000001976a914a75c898b4d846f98ecf2d040b3dccf53158ae5ac88ac40084e050000000017a91461d0e7819d5dd6b01cdfaafc70699cf973dd4a8b8700000000", "vin": [{"sequence": 4294967295, "scriptSig": {"hex": "483045022100e489cbb04ec3b19ae9f862f29926b0343854a1606ab4aff14237e7c378d1fe0e02207761502fc4b1aa76611f2ebfbdc6dbce1480f4b80d47417ee9f2c330a204a31c012103dc5dd0b1b75976c3c90908379517a826672131d9dbeba4c43469efed2ff04fff", "asm": "3045022100e489cbb04ec3b19ae9f862f29926b0343854a1606ab4aff14237e7c378d1fe0e02207761502fc4b1aa76611f2ebfbdc6dbce1480f4b80d47417ee9f2c330a204a31c[ALL] 03dc5dd0b1b75976c3c90908379517a826672131d9dbeba4c43469efed2ff04fff"}, "vout": 1, "txid": "ac300f277ac529f88dfbf0ae9693748ff1c3ee55e4d2d339f080d2072bbc1ef8"}, {"sequence": 4294967295, "scriptSig": {"hex": "483045022100be3c9eab0d65e2c408d84773aea3fbd87268a9cf2b861defd0d1750021053e8f022027ab68d6fe33e2a21ee9aebdd27e842c36e65aa9adfafd906c7eb0a9ea129ee40121022b87dae46a2449cc4b6fe6b1c3be7c6f216b56d4532b09c2458bd62ab5baad30", "asm": "3045022100be3c9eab0d65e2c408d84773aea3fbd87268a9cf2b861defd0d1750021053e8f022027ab68d6fe33e2a21ee9aebdd27e842c36e65aa9adfafd906c7eb0a9ea129ee4[ALL] 022b87dae46a2449cc4b6fe6b1c3be7c6f216b56d4532b09c2458bd62ab5baad30"}, "vout": 0, "txid": "d217c430b530ab32bd80ae6e07c31665eac979961a802e4ad8714c36634ee739"}], "txid": "811138c241950bc2393032ba141142fcd36b44fb5bcda57d53036fc86150f250", "blocktime": 1537876114, "version": 1, "confirmations": 11460, "time": 1537876114, "locktime": 0, "vsize": 372, "size": 372}