{"hash": "81149d2ad1bcf7aab496b8eb8542b7e8502696330ebade3e2dad5cf0bb8d6c74", "blockhash": "00000000000000000017f5eb5941039fbcee6240d03bc1f2f8e35350df66a1d8", "vout": [{"scriptPubKey": {"reqSigs": 1, "hex": "a9148f2b075787f398e271e18676746621b7fdc2bba187", "addresses": ["3Ek26fGNeS7memB2iLgUJ8i5XW7Ssx7xZH"], "asm": "OP_HASH160 8f2b075787f398e271e18676746621b7fdc2bba1 OP_EQUAL", "type": "scripthash"}, "value": 0.00363956, "n": 0}, {"scriptPubKey": {"reqSigs": 1, "hex": "76a914c61b3e0f6f890b68ea40156b2b4da7ac8b77566c88ac", "addresses": ["1K4VRpWeixYsFGmiSbCNYYojhjqAu5hnNG"], "asm": "OP_DUP OP_HASH160 c61b3e0f6f890b68ea40156b2b4da7ac8b77566c OP_EQUALVERIFY OP_CHECKSIG", "type": "pubkeyhash"}, "value": 2.49497152, "n": 1}], "hex": "0100000001a0f31757aa11031198787b180f65636a337d01ff2c4bb5ada2c6eb5142d575ba010000006b483045022100f8339d604deecae53fc60825d9da846faa1f46c53e4af16b6ffae233783b19a60220672e06a6e83245d4c1c41d8154d29edfecfba675104de54c2f3370672d6dbfa4012103f7a785568bfef9181d79a0580afc2e7e356532ebef4669cf075b7028c27874c7ffffffff02b48d05000000000017a9148f2b075787f398e271e18676746621b7fdc2bba1874006df0e000000001976a914c61b3e0f6f890b68ea40156b2b4da7ac8b77566c88ac00000000", "vin": [{"sequence": 4294967295, "scriptSig": {"hex": "483045022100f8339d604deecae53fc60825d9da846faa1f46c53e4af16b6ffae233783b19a60220672e06a6e83245d4c1c41d8154d29edfecfba675104de54c2f3370672d6dbfa4012103f7a785568bfef9181d79a0580afc2e7e356532ebef4669cf075b7028c27874c7", "asm": "3045022100f8339d604deecae53fc60825d9da846faa1f46c53e4af16b6ffae233783b19a60220672e06a6e83245d4c1c41d8154d29edfecfba675104de54c2f3370672d6dbfa4[ALL] 03f7a785568bfef9181d79a0580afc2e7e356532ebef4669cf075b7028c27874c7"}, "vout": 1, "txid": "ba75d54251ebc6a2adb54b2cff017d336a63650f187b7898110311aa5717f3a0"}], "txid": "81149d2ad1bcf7aab496b8eb8542b7e8502696330ebade3e2dad5cf0bb8d6c74", "blocktime": 1537874412, "version": 1, "confirmations": 11467, "time": 1537874412, "locktime": 0, "vsize": 224, "size": 224}