{"hash": "e81ee01897c289a4b2902abf009f1fce92f011229690353c03d78aaecbd102e5", "blockhash": "0000000000000000001cda96e906b7601b7a6fb1a3b62bca570a9e5d8f4b3de1", "vout": [{"scriptPubKey": {"reqSigs": 1, "hex": "76a914de026784f9e0e8a9194e98d13bba053f414207fd88ac", "addresses": ["1MEsteR8bVZahEpzUxmLpW42DsNJgtUPJz"], "asm": "OP_DUP OP_HASH160 de026784f9e0e8a9194e98d13bba053f414207fd OP_EQUALVERIFY OP_CHECKSIG", "type": "pubkeyhash"}, "value": 0.004, "n": 0}, {"scriptPubKey": {"reqSigs": 1, "hex": "001488be1bd52558d00e5cbf8ae696b5dd18c3e5bb16", "addresses": ["bc1q3zlph4f9trgquh9l3tnfddwarrp7twckm8xy4z"], "asm": "0 88be1bd52558d00e5cbf8ae696b5dd18c3e5bb16", "type": "witness_v0_keyhash"}, "value": 2.232e-05, "n": 1}], "hex": "0100000000010170928c216a5b6301eb71793c31a1005060e7155dab0c1d04bdd79ff1db52d9c04d00000017160014f2b734a8e9b46212e186b6ecf51e5af967f5fafbffffffff02801a0600000000001976a914de026784f9e0e8a9194e98d13bba053f414207fd88acb80800000000000016001488be1bd52558d00e5cbf8ae696b5dd18c3e5bb160247304402201701b0fb8ef24a833c73c3b6d55afe188df9ceddb95fbf8cc6e4164863a2ab1c022007860829eb79f0278e4fafc7cd4e8670144456ec58f2cf6cd0cad9e99bbf8eaa012102d2fb82eaf75bced36a2e010cc25dd046c58454ac5f39ba35a794e0bf0a5178e500000000", "vin": [{"txinwitness": ["304402201701b0fb8ef24a833c73c3b6d55afe188df9ceddb95fbf8cc6e4164863a2ab1c022007860829eb79f0278e4fafc7cd4e8670144456ec58f2cf6cd0cad9e99bbf8eaa01", "02d2fb82eaf75bced36a2e010cc25dd046c58454ac5f39ba35a794e0bf0a5178e5"], "sequence": 4294967295, "scriptSig": {"hex": "160014f2b734a8e9b46212e186b6ecf51e5af967f5fafb", "asm": "0014f2b734a8e9b46212e186b6ecf51e5af967f5fafb"}, "vout": 77, "txid": "c0d952dbf19fd7bd041d0cab5d15e7605000a1313c7971eb01635b6a218c9270"}], "txid": "811b4c54fe90e72e9a36649658716cde7a68185f8d900fe1555aabc82024caea", "blocktime": 1537873282, "version": 1, "confirmations": 11484, "time": 1537873282, "locktime": 0, "vsize": 167, "size": 248}