{"hash": "811eb3f28bb5aa40839d18b0ed7342b85ec5033a8eeb0545049485c09b850bcb", "blockhash": "0000000000000000000e13cef7c366c0283d82e591d1acd082e914b08063cdf1", "vout": [{"scriptPubKey": {"reqSigs": 1, "hex": "a914465c012321028bbee136c90518fd49032d570cc587", "addresses": ["3873SZ1CvdQV8p7CycHa6kbUyQcmBT4AMM"], "asm": "OP_HASH160 465c012321028bbee136c90518fd49032d570cc5 OP_EQUAL", "type": "scripthash"}, "value": 0.00411478, "n": 0}, {"scriptPubKey": {"reqSigs": 1, "hex": "76a914f920a303412c07f5716c4688a018f6c2504f6d6188ac", "addresses": ["1PiGMQgBMRCve2qD2DgfP8VfdSp4SywVUW"], "asm": "OP_DUP OP_HASH160 f920a303412c07f5716c4688a018f6c2504f6d61 OP_EQUALVERIFY OP_CHECKSIG", "type": "pubkeyhash"}, "value": 0.00031835, "n": 1}], "hex": "0100000001d9bd66c3202cbaf8f5703127159d735241461828aa9610e454c5d1d271154187010000006a47304402202b4ccd2877816ef0c7f4ab931b36a552744204e00510dd5a12a66b87f2eca337022018be3df541b930d36af4bce8ab3461b90cfab15729804536cb148d9d7f873d5d012103312fbc796a08b1edb78eebcdd4ded87900ac0f57c70fe958224377dbd5c3d25dffffffff02564706000000000017a914465c012321028bbee136c90518fd49032d570cc5875b7c0000000000001976a914f920a303412c07f5716c4688a018f6c2504f6d6188ac00000000", "vin": [{"sequence": 4294967295, "scriptSig": {"hex": "47304402202b4ccd2877816ef0c7f4ab931b36a552744204e00510dd5a12a66b87f2eca337022018be3df541b930d36af4bce8ab3461b90cfab15729804536cb148d9d7f873d5d012103312fbc796a08b1edb78eebcdd4ded87900ac0f57c70fe958224377dbd5c3d25d", "asm": "304402202b4ccd2877816ef0c7f4ab931b36a552744204e00510dd5a12a66b87f2eca337022018be3df541b930d36af4bce8ab3461b90cfab15729804536cb148d9d7f873d5d[ALL] 03312fbc796a08b1edb78eebcdd4ded87900ac0f57c70fe958224377dbd5c3d25d"}, "vout": 1, "txid": "87411571d2d1c554e41096aa2818464152739d15273170f5f8ba2c20c366bdd9"}], "txid": "811eb3f28bb5aa40839d18b0ed7342b85ec5033a8eeb0545049485c09b850bcb", "blocktime": 1537871767, "version": 1, "confirmations": 11494, "time": 1537871767, "locktime": 0, "vsize": 223, "size": 223}