{"hash": "e92fe94ef53fed90a227b261eb9e31d11d44b3e202fc4f41f3d4013f9caa75db", "blockhash": "0000000000000000000e13cef7c366c0283d82e591d1acd082e914b08063cdf1", "vout": [{"scriptPubKey": {"reqSigs": 1, "hex": "001410b684439de16f9d0db92c7beb2100fb19f47afa", "addresses": ["bc1qzzmggsuau9he6rde93a7kggqlvvlg7h64d5xrg"], "asm": "0 10b684439de16f9d0db92c7beb2100fb19f47afa", "type": "witness_v0_keyhash"}, "value": 0.000468, "n": 0}, {"scriptPubKey": {"reqSigs": 1, "hex": "00149c911d0b7e7e07d32c6bc449bb8cfe794d69c162", "addresses": ["bc1qnjg36zm70craxtrtc3ymhr8709xknstzrzdxay"], "asm": "0 9c911d0b7e7e07d32c6bc449bb8cfe794d69c162", "type": "witness_v0_keyhash"}, "value": 1.623e-05, "n": 1}], "hex": "010000000001014c97a8d9890f74aecb2a86aa6bfafe82b4eb19435baf7afad362ff79e50129760200000017160014ce7a20b4be751f81ca28bf1e7d134f2d018fd9a4ffffffff02d0b600000000000016001410b684439de16f9d0db92c7beb2100fb19f47afa57060000000000001600149c911d0b7e7e07d32c6bc449bb8cfe794d69c16202483045022100c3a0e17da03d0ab8217e3446d044f036a66939cb68bb61ac2a20a8fb5c808c3f022035f518716c73eaa1e8cc14038724c56e41f50d3cdcfbdf5c4b70539404e5e5dc01210307e2a9edeac6e9408afd580386704043b64d0e6dfd4b21c2b25f6b9f9ce02eb400000000", "vin": [{"txinwitness": ["3045022100c3a0e17da03d0ab8217e3446d044f036a66939cb68bb61ac2a20a8fb5c808c3f022035f518716c73eaa1e8cc14038724c56e41f50d3cdcfbdf5c4b70539404e5e5dc01", "0307e2a9edeac6e9408afd580386704043b64d0e6dfd4b21c2b25f6b9f9ce02eb4"], "sequence": 4294967295, "scriptSig": {"hex": "160014ce7a20b4be751f81ca28bf1e7d134f2d018fd9a4", "asm": "0014ce7a20b4be751f81ca28bf1e7d134f2d018fd9a4"}, "vout": 2, "txid": "762901e579ff62d3fa7aaf5b4319ebb482fefa6baa862acbae740f89d9a8974c"}], "txid": "811f843c562a7724b2ef9fbe33e71bcfec02d7090af6c62cfa17191cf9d3497f", "blocktime": 1537871767, "version": 1, "confirmations": 11495, "time": 1537871767, "locktime": 0, "vsize": 164, "size": 246}