{"hash": "7061ac704351d647e27bec1219c9206e7ee7497f7f86ce54a934f0c417f2ac25", "blockhash": "0000000000000000001f76057863aec43deb6fa401d9628bb513d65a8098bfab", "vout": [{"scriptPubKey": {"reqSigs": 1, "hex": "a914d4d6a90bfbf0028328c5a210d53c1f8fdc0c673387", "addresses": ["3M6QL5DybjKjaaf44y6kLePzv5p1DKBYbV"], "asm": "OP_HASH160 d4d6a90bfbf0028328c5a210d53c1f8fdc0c6733 OP_EQUAL", "type": "scripthash"}, "value": 0.00998155, "n": 0}, {"scriptPubKey": {"reqSigs": 1, "hex": "76a914d84a2b7e65fe4e8219af1213b8843826cd0bf4ef88ac", "addresses": ["1LidorK3GSVhVZSoHvoeDJ7BPRPBgWdDDk"], "asm": "OP_DUP OP_HASH160 d84a2b7e65fe4e8219af1213b8843826cd0bf4ef OP_EQUALVERIFY OP_CHECKSIG", "type": "pubkeyhash"}, "value": 0.0029243, "n": 1}], "hex": "02000000000106109b6746806fad2c546dbbb8af12d03922d18c7169947d309bbc3fb362e4e45304000000171600140c90b5dc19c74d56a5a6e9e174627053a1344170feffffff2b07a3acadaca31f1662b338735c45d447765dc8a2df5228fe89c7354b92737f0000000017160014e83b5c33aa7c36f51eb4f9a6d87731f35f3b7f6afeffffff5134e6b126a160e35a88fcc9e704ee382d5a944c099c138ec97acc18c1791cc00200000017160014336e505511190547d197f268e3f166624184fc51feffffff6ad2c7bc5df03a7ec59b82239faa50ec7b275dcbd69b65d5992e01852eba7ec100000000171600142e611cc1ef810c9a3145b12f9f0ceb5d0c4691d9feffffff87e0662cac839d345eef42a20fa677b1ca0003faf7ada3e00ee0fa8f9053dd940600000017160014c67be2b79bdf7765bf44a86a38a4d35a92e285ddfeffffffb752da1b153d880722095d24fb7e6fd82207e2a157b5bfe86771f79f02d380a2000000001716001490dc50285b57a7e5cd7f0c796999dd9509f3dc26feffffff020b3b0f000000000017a914d4d6a90bfbf0028328c5a210d53c1f8fdc0c6733874e760400000000001976a914d84a2b7e65fe4e8219af1213b8843826cd0bf4ef88ac02483045022100cdc646da2c366cfca874acd38ae8a9b90e2fce5e28dbe610354b3c41fa948a1002203e9719e5f1dc8c1d7b09e40d8d881942399adac83bdf37438bb302c083876505012103b7227a3577aee76e214ac86bf993ece0f6373a20bf50c677c8d5eec10dd0d28a0247304402200991e7eb53a75c6fc934f7871fc53d63834fb424dd6d2114f8b4af753ce5768f0220101570de1c836cd30cba3597e4d51fc73b9d522e2e9e7c399c3beb2f35f812b7012103d21f30f595198e674dc1f0dbfb7e86d664da8085109e31aa043814f5e2f6c1630247304402205b5501634b793088bb8c90bfe150184c390ffca692dafe6df556a83e72e7f9b302205b224e73d3e7bf1fe539f1e3469018b3d8cc4f88e3311f82d8634145262d7e7101210265b1563cd5dc1fa775b2214c63cc400c279fe372bc993a89a5c5823bc2cb252c0248304502210081ebc8059e73030d3dc7cee67661e5380ec98d8de5bb7b9b3d204188f888904d022053a907b3515d25fedd12850d91d616a66675be98a026314eb90f6ca78f2c63ed0121031462325699447a8a92f1bfafe8387d0694146c152c63c9f82ebcca38c7529b2b024830450221009bb53430d0118e394f4f2a901b8e39e271e20b1b09bcd7153ccd48df90b2505802204788481dfa3719ee49c2b7c567989458de47b9222a03807f40e4f89f84600f240121030664f92d868e1bebe050d95e257babed7ab7d2aee4fdf3f40fbd084866ccdfd30247304402207dc1d9ed7a3be4c4bb50bd7375922d1400d1421e1fe35b8bffd5a858c9fa79ef0220291e3101e40b48140af59b2b7fb04035f8760a911c22439627c34fde354f46960121039a025daedf56211fce8df21739cd028143a8edfcb2cc29578b6bec58b9a6203014490800", "vin": [{"txinwitness": ["3045022100cdc646da2c366cfca874acd38ae8a9b90e2fce5e28dbe610354b3c41fa948a1002203e9719e5f1dc8c1d7b09e40d8d881942399adac83bdf37438bb302c08387650501", "03b7227a3577aee76e214ac86bf993ece0f6373a20bf50c677c8d5eec10dd0d28a"], "sequence": 4294967294, "scriptSig": {"hex": "1600140c90b5dc19c74d56a5a6e9e174627053a1344170", "asm": "00140c90b5dc19c74d56a5a6e9e174627053a1344170"}, "vout": 4, "txid": "53e4e462b33fbc9b307d9469718cd12239d012afb8bb6d542cad6f8046679b10"}, {"txinwitness": ["304402200991e7eb53a75c6fc934f7871fc53d63834fb424dd6d2114f8b4af753ce5768f0220101570de1c836cd30cba3597e4d51fc73b9d522e2e9e7c399c3beb2f35f812b701", "03d21f30f595198e674dc1f0dbfb7e86d664da8085109e31aa043814f5e2f6c163"], "sequence": 4294967294, "scriptSig": {"hex": "160014e83b5c33aa7c36f51eb4f9a6d87731f35f3b7f6a", "asm": "0014e83b5c33aa7c36f51eb4f9a6d87731f35f3b7f6a"}, "vout": 0, "txid": "7f73924b35c789fe2852dfa2c85d7647d4455c7338b362161fa3acadaca3072b"}, {"txinwitness": ["304402205b5501634b793088bb8c90bfe150184c390ffca692dafe6df556a83e72e7f9b302205b224e73d3e7bf1fe539f1e3469018b3d8cc4f88e3311f82d8634145262d7e7101", "0265b1563cd5dc1fa775b2214c63cc400c279fe372bc993a89a5c5823bc2cb252c"], "sequence": 4294967294, "scriptSig": {"hex": "160014336e505511190547d197f268e3f166624184fc51", "asm": "0014336e505511190547d197f268e3f166624184fc51"}, "vout": 2, "txid": "c01c79c118cc7ac98e139c094c945a2d38ee04e7c9fc885ae360a126b1e63451"}, {"txinwitness": ["304502210081ebc8059e73030d3dc7cee67661e5380ec98d8de5bb7b9b3d204188f888904d022053a907b3515d25fedd12850d91d616a66675be98a026314eb90f6ca78f2c63ed01", "031462325699447a8a92f1bfafe8387d0694146c152c63c9f82ebcca38c7529b2b"], "sequence": 4294967294, "scriptSig": {"hex": "1600142e611cc1ef810c9a3145b12f9f0ceb5d0c4691d9", "asm": "00142e611cc1ef810c9a3145b12f9f0ceb5d0c4691d9"}, "vout": 0, "txid": "c17eba2e85012e99d5659bd6cb5d277bec50aa9f23829bc57e3af05dbcc7d26a"}, {"txinwitness": ["30450221009bb53430d0118e394f4f2a901b8e39e271e20b1b09bcd7153ccd48df90b2505802204788481dfa3719ee49c2b7c567989458de47b9222a03807f40e4f89f84600f2401", "030664f92d868e1bebe050d95e257babed7ab7d2aee4fdf3f40fbd084866ccdfd3"], "sequence": 4294967294, "scriptSig": {"hex": "160014c67be2b79bdf7765bf44a86a38a4d35a92e285dd", "asm": "0014c67be2b79bdf7765bf44a86a38a4d35a92e285dd"}, "vout": 6, "txid": "94dd53908ffae00ee0a3adf7fa0300cab177a60fa242ef5e349d83ac2c66e087"}, {"txinwitness": ["304402207dc1d9ed7a3be4c4bb50bd7375922d1400d1421e1fe35b8bffd5a858c9fa79ef0220291e3101e40b48140af59b2b7fb04035f8760a911c22439627c34fde354f469601", "039a025daedf56211fce8df21739cd028143a8edfcb2cc29578b6bec58b9a62030"], "sequence": 4294967294, "scriptSig": {"hex": "16001490dc50285b57a7e5cd7f0c796999dd9509f3dc26", "asm": "001490dc50285b57a7e5cd7f0c796999dd9509f3dc26"}, "vout": 0, "txid": "a280d3029ff77167e8bfb557a1e20722d86f7efb245d092207883d151bda52b7"}], "txid": "8125b54b2772662de419b214618f6e3133cd608f5e622ce4f78e71e374dbd325", "blocktime": 1537873891, "version": 2, "confirmations": 11478, "time": 1537873891, "locktime": 542996, "vsize": 622, "size": 1107}