{"hash": "578862f9cd5e778aa5ce382f00a1b6779c74fe724938aa8a39e5e78232f1a7e8", "blockhash": "0000000000000000000e13cef7c366c0283d82e591d1acd082e914b08063cdf1", "vout": [{"scriptPubKey": {"reqSigs": 1, "hex": "76a91420ba1182bdb77b802cc46411a29c758a039da8b488ac", "addresses": ["13z3XQ4z9yMLWHRW6JfwuX3FFh3Ao9KPc1"], "asm": "OP_DUP OP_HASH160 20ba1182bdb77b802cc46411a29c758a039da8b4 OP_EQUALVERIFY OP_CHECKSIG", "type": "pubkeyhash"}, "value": 0.0042946, "n": 0}, {"scriptPubKey": {"reqSigs": 1, "hex": "a914a09309368ef6992343dbb872fabc7a6c5b20aa3987", "addresses": ["3GL4BUaGEMaYG7wNd3kU9k4dfuN9YH4E6R"], "asm": "OP_HASH160 a09309368ef6992343dbb872fabc7a6c5b20aa39 OP_EQUAL", "type": "scripthash"}, "value": 0.00999626, "n": 1}], "hex": "020000000001025e56091558855941744070c0c4c7d891d21397557a3048889ada4c6ab8173f360000000017160014f4b78bfb4edfcc7c0a5a509cd7eff48aa93fc5f8feffffffc60f3d9fd9d72b3857d6dfb27bfa8d1926b052a107e4d68c12a26422c6748de80300000017160014ceaca6d59b61efcd6bc9f522da269ac467e41fa2feffffff02948d0600000000001976a91420ba1182bdb77b802cc46411a29c758a039da8b488acca400f000000000017a914a09309368ef6992343dbb872fabc7a6c5b20aa398702483045022100fca0a09cdaae70977c4d88b16e7fd061601fd2de156500250a97f486debfc723022017bcb598d3da1b9009ebd8c88df5561cb887ed0f340656afa87f521d46c721ca012102ccfc545a49fe39f198a28297a61bf6d6d085a2cbba9bc6329af7a9b3eaef1db80247304402205ab3f3e2cf1c3328a7dd6bd424e3b65776ac803359abd23bfef91f569bbec83c02205217c9aa82287ab7bae9020b0e7a9cd506e6cf46129f9ad81a3bdf65bebc5fec0121020b42685ecc6c6f59a61ad6149b5386166e2b8a92d916bdfd14ff28ba097e1be10f490800", "vin": [{"txinwitness": ["3045022100fca0a09cdaae70977c4d88b16e7fd061601fd2de156500250a97f486debfc723022017bcb598d3da1b9009ebd8c88df5561cb887ed0f340656afa87f521d46c721ca01", "02ccfc545a49fe39f198a28297a61bf6d6d085a2cbba9bc6329af7a9b3eaef1db8"], "sequence": 4294967294, "scriptSig": {"hex": "160014f4b78bfb4edfcc7c0a5a509cd7eff48aa93fc5f8", "asm": "0014f4b78bfb4edfcc7c0a5a509cd7eff48aa93fc5f8"}, "vout": 0, "txid": "363f17b86a4cda9a8848307a559713d291d8c7c4c0704074415985581509565e"}, {"txinwitness": ["304402205ab3f3e2cf1c3328a7dd6bd424e3b65776ac803359abd23bfef91f569bbec83c02205217c9aa82287ab7bae9020b0e7a9cd506e6cf46129f9ad81a3bdf65bebc5fec01", "020b42685ecc6c6f59a61ad6149b5386166e2b8a92d916bdfd14ff28ba097e1be1"], "sequence": 4294967294, "scriptSig": {"hex": "160014ceaca6d59b61efcd6bc9f522da269ac467e41fa2", "asm": "0014ceaca6d59b61efcd6bc9f522da269ac467e41fa2"}, "vout": 3, "txid": "e88d74c62264a2128cd6e407a152b026198dfa7bb2dfd657382bd7d99f3d0fc6"}], "txid": "812c03b60794691a1564b813f53f075594e98e6b3f7e3a5f5e1a0fddc7b21c5f", "blocktime": 1537871767, "version": 2, "confirmations": 11495, "time": 1537871767, "locktime": 542991, "vsize": 259, "size": 421}