{"hash": "f0fd14354af7f3f461b888e36ac02fc40e7175d4ce61395979111261e23cdadb", "blockhash": "0000000000000000001e0dab787dd257d1dbfcb92a98c2207d5e1078be1f4165", "vout": [{"scriptPubKey": {"reqSigs": 1, "hex": "a9148275d4a9cd05c66b912b42e51a30fa1d8488757f87", "addresses": ["3DapvW9dMCr2viTn2d4WLYf8hxJqCYPZtX"], "asm": "OP_HASH160 8275d4a9cd05c66b912b42e51a30fa1d8488757f OP_EQUAL", "type": "scripthash"}, "value": 0.0022961, "n": 0}, {"scriptPubKey": {"reqSigs": 1, "hex": "a914a5c679defd49547b8133a1367eeadbdeaecec3da87", "addresses": ["3GoZBZ6F8g4UiCt7moPNLDX7KKwgtGgLUT"], "asm": "OP_HASH160 a5c679defd49547b8133a1367eeadbdeaecec3da OP_EQUAL", "type": "scripthash"}, "value": 0.577802, "n": 1}], "hex": "0100000000010106bb68a4e6e91fa6a1e8a4242834cd11c2d6bc89d512ab41438bcfc12beb75b901000000232200202d90cd274cea8141a030c0b79acc5b5c0b80b73d028692a1104913808bff6c09ffffffff02ea8003000000000017a9148275d4a9cd05c66b912b42e51a30fa1d8488757f87e8a771030000000017a914a5c679defd49547b8133a1367eeadbdeaecec3da870400483045022100ef056c7e8812f2d484612fae323a48fb157cab27b1be1d3d0dff2633235b2c4502201553bf0db59a9a95b0f1f23157f83c3b748e6ee9e8320f96bbb749ad7497abc401483045022100d076f3d9447e1d10b81b9a8768438526087bd2bf93457e2a0f02a255ff80d238022023624ce6894bcd5abaf7d6daa8baadbc0c32b65c55bfb2fbebf4e3ec988772b1014752210295d70c0f10033e6e119fdc61ddd495bfe23995150af6df4688db5bf235f2853b21023e4b58fb2a91970de56515d11487aabd364f0404f1099bef70493cc56002342352ae00000000", "vin": [{"txinwitness": ["", "3045022100ef056c7e8812f2d484612fae323a48fb157cab27b1be1d3d0dff2633235b2c4502201553bf0db59a9a95b0f1f23157f83c3b748e6ee9e8320f96bbb749ad7497abc401", "3045022100d076f3d9447e1d10b81b9a8768438526087bd2bf93457e2a0f02a255ff80d238022023624ce6894bcd5abaf7d6daa8baadbc0c32b65c55bfb2fbebf4e3ec988772b101", "52210295d70c0f10033e6e119fdc61ddd495bfe23995150af6df4688db5bf235f2853b21023e4b58fb2a91970de56515d11487aabd364f0404f1099bef70493cc56002342352ae"], "sequence": 4294967295, "scriptSig": {"hex": "2200202d90cd274cea8141a030c0b79acc5b5c0b80b73d028692a1104913808bff6c09", "asm": "00202d90cd274cea8141a030c0b79acc5b5c0b80b73d028692a1104913808bff6c09"}, "vout": 1, "txid": "b975eb2bc1cf8b4341ab12d589bcd6c211cd342824a4e8a1a61fe9e6a468bb06"}], "txid": "813a52ece671a851fb331365b2c43cf9e01454629f6cb7c85a68eb1872a53143", "blocktime": 1537872475, "version": 1, "confirmations": 11487, "time": 1537872475, "locktime": 0, "vsize": 206, "size": 372}