{"hash": "697da2ac05f04edef48b9e7e8a3ea5b9b17ef6a69b62029c7927bf22a5b00fbe", "blockhash": "0000000000000000001f76057863aec43deb6fa401d9628bb513d65a8098bfab", "vout": [{"scriptPubKey": {"reqSigs": 1, "hex": "a91490e99e8d26d05ead3c05430c292a887bbff695f587", "addresses": ["3EuF6KjJawxTiUsea3Sc8hsLUGmVEf7Xg5"], "asm": "OP_HASH160 90e99e8d26d05ead3c05430c292a887bbff695f5 OP_EQUAL", "type": "scripthash"}, "value": 0.00142408, "n": 0}, {"scriptPubKey": {"type": "nulldata", "hex": "6a146f6d6e69000000000000001f0000000005f5e100", "asm": "OP_RETURN 6f6d6e69000000000000001f0000000005f5e100"}, "value": 0.0, "n": 1}, {"scriptPubKey": {"reqSigs": 1, "hex": "a91490e99e8d26d05ead3c05430c292a887bbff695f587", "addresses": ["3EuF6KjJawxTiUsea3Sc8hsLUGmVEf7Xg5"], "asm": "OP_HASH160 90e99e8d26d05ead3c05430c292a887bbff695f5 OP_EQUAL", "type": "scripthash"}, "value": 5.4e-06, "n": 2}], "hex": "010000000001020815cc40f835a5776a19ff7f4e8cf16cd29588a5215d87d72365712d9ce4a52b0000000017160014f6e1792e7852ebd5ae795c2a25d579acdfadec2dffffffff0815cc40f835a5776a19ff7f4e8cf16cd29588a5215d87d72365712d9ce4a52b0200000017160014f6e1792e7852ebd5ae795c2a25d579acdfadec2dffffffff03482c02000000000017a91490e99e8d26d05ead3c05430c292a887bbff695f5870000000000000000166a146f6d6e69000000000000001f0000000005f5e1001c0200000000000017a91490e99e8d26d05ead3c05430c292a887bbff695f5870247304402201dddce7d031c1b4782c8814c7d341ca575891f9ca9cd37913a401ee1ff0a5486022040fddb573a452ca2040b2c434d9c4d2e8371adaefe0aee1e415a9d6f1bc26c2a012103f1cf988013a33e053d1e9bd54c4798c1a6dc362a5b2798b5344049fca40e2db002483045022100d5e40733549373baf7867565454480665c005997c62e9c8e3ddba251d3966e3102203138121897e2e64d45bdf16843fe6b781ab4b13162444f791cb8b897224c7dd1012103f1cf988013a33e053d1e9bd54c4798c1a6dc362a5b2798b5344049fca40e2db000000000", "vin": [{"txinwitness": ["304402201dddce7d031c1b4782c8814c7d341ca575891f9ca9cd37913a401ee1ff0a5486022040fddb573a452ca2040b2c434d9c4d2e8371adaefe0aee1e415a9d6f1bc26c2a01", "03f1cf988013a33e053d1e9bd54c4798c1a6dc362a5b2798b5344049fca40e2db0"], "sequence": 4294967295, "scriptSig": {"hex": "160014f6e1792e7852ebd5ae795c2a25d579acdfadec2d", "asm": "0014f6e1792e7852ebd5ae795c2a25d579acdfadec2d"}, "vout": 0, "txid": "2ba5e49c2d716523d7875d21a58895d26cf18c4e7fff196a77a535f840cc1508"}, {"txinwitness": ["3045022100d5e40733549373baf7867565454480665c005997c62e9c8e3ddba251d3966e3102203138121897e2e64d45bdf16843fe6b781ab4b13162444f791cb8b897224c7dd101", "03f1cf988013a33e053d1e9bd54c4798c1a6dc362a5b2798b5344049fca40e2db0"], "sequence": 4294967295, "scriptSig": {"hex": "160014f6e1792e7852ebd5ae795c2a25d579acdfadec2d", "asm": "0014f6e1792e7852ebd5ae795c2a25d579acdfadec2d"}, "vout": 2, "txid": "2ba5e49c2d716523d7875d21a58895d26cf18c4e7fff196a77a535f840cc1508"}], "txid": "8143e59603c75a01425f9d780cec977bd29a52c3332079df0104366f2403e62e", "blocktime": 1537873891, "version": 1, "confirmations": 11478, "time": 1537873891, "locktime": 0, "vsize": 288, "size": 450}