{"hash": "81448015ddfb7542549f925558032a08e6c342f2aaa69d3f9f160bbf25fd7ba4", "blockhash": "00000000000000000024a2167bbff67b0be802c0b01cdd79e6331c2be6459f87", "vout": [{"scriptPubKey": {"reqSigs": 1, "hex": "76a91448df14a2fe9f7037e75ea15d434205713810355188ac", "addresses": ["17eJtj242ERiR3Q3THPYMG2xS7QfAqjCJt"], "asm": "OP_DUP OP_HASH160 48df14a2fe9f7037e75ea15d4342057138103551 OP_EQUALVERIFY OP_CHECKSIG", "type": "pubkeyhash"}, "value": 0.00011006, "n": 0}, {"scriptPubKey": {"reqSigs": 1, "hex": "76a914e466ab82deb2cac8cbcd50bb191e965b1716257b88ac", "addresses": ["1Mpg4NZ6oZ5pXNZXFyZqpSkhAvzQyDf1hW"], "asm": "OP_DUP OP_HASH160 e466ab82deb2cac8cbcd50bb191e965b1716257b OP_EQUALVERIFY OP_CHECKSIG", "type": "pubkeyhash"}, "value": 0.07833674, "n": 1}], "hex": "01000000024f4e51fd8d88234cb5a33251a0b70dbfbfad8c103b199e98d2e208744e79bad5000000006a473044022016e5c2980ce902411f2c535fa921bea2d4235c081a4fbeb821cea33b1f865d0c022023a4ed204145a8c8dab5e687ebb09da236f748f022fdf8a0b7159bf2aff64c07012102f72f9b4508092c5286dbe2ea1f6485ae0cee79ea52e840538429bde7dc95cfeeffffffffec789fe49aaea914389d87f5472169c7108ae492596b6528536aaa43eb79ddf7000000006a47304402200f6c1efae061a9054ea58d29a50cf8fa9658c3049937330b18eb63588b2e8f5a02200b456673762415db76f3a104d9733869ccb4719ec3368ec557dc9be6674d4081012103bc9a9a570a96964c6354543d7598302541be0ed056319d050a764d5e4997f573ffffffff02fe2a0000000000001976a91448df14a2fe9f7037e75ea15d434205713810355188ac4a887700000000001976a914e466ab82deb2cac8cbcd50bb191e965b1716257b88ac00000000", "vin": [{"sequence": 4294967295, "scriptSig": {"hex": "473044022016e5c2980ce902411f2c535fa921bea2d4235c081a4fbeb821cea33b1f865d0c022023a4ed204145a8c8dab5e687ebb09da236f748f022fdf8a0b7159bf2aff64c07012102f72f9b4508092c5286dbe2ea1f6485ae0cee79ea52e840538429bde7dc95cfee", "asm": "3044022016e5c2980ce902411f2c535fa921bea2d4235c081a4fbeb821cea33b1f865d0c022023a4ed204145a8c8dab5e687ebb09da236f748f022fdf8a0b7159bf2aff64c07[ALL] 02f72f9b4508092c5286dbe2ea1f6485ae0cee79ea52e840538429bde7dc95cfee"}, "vout": 0, "txid": "d5ba794e7408e2d2989e193b108cadbfbf0db7a05132a3b54c23888dfd514e4f"}, {"sequence": 4294967295, "scriptSig": {"hex": "47304402200f6c1efae061a9054ea58d29a50cf8fa9658c3049937330b18eb63588b2e8f5a02200b456673762415db76f3a104d9733869ccb4719ec3368ec557dc9be6674d4081012103bc9a9a570a96964c6354543d7598302541be0ed056319d050a764d5e4997f573", "asm": "304402200f6c1efae061a9054ea58d29a50cf8fa9658c3049937330b18eb63588b2e8f5a02200b456673762415db76f3a104d9733869ccb4719ec3368ec557dc9be6674d4081[ALL] 03bc9a9a570a96964c6354543d7598302541be0ed056319d050a764d5e4997f573"}, "vout": 0, "txid": "f7dd79eb43aa6a5328656b5992e48a10c7692147f5879d3814a9ae9ae49f78ec"}], "txid": "81448015ddfb7542549f925558032a08e6c342f2aaa69d3f9f160bbf25fd7ba4", "blocktime": 1537870564, "version": 1, "confirmations": 11515, "time": 1537870564, "locktime": 0, "vsize": 372, "size": 372}