{"hash": "814ab1885934c433605bf95d208ad9f79b2a92311bfe4ddfff9761d0e22b04dc", "blockhash": "00000000000000000018f53835495a110e01622372bf6ae95dc86f2b0ab887b0", "vout": [{"scriptPubKey": {"reqSigs": 1, "hex": "a9149710d09219c0a26451e904c44fa9020e65e068a287", "addresses": ["3FTn6pQ5ZwVs3CQJxhVt8KLhTFusoyaa34"], "asm": "OP_HASH160 9710d09219c0a26451e904c44fa9020e65e068a2 OP_EQUAL", "type": "scripthash"}, "value": 0.078074, "n": 0}], "hex": "01000000041bb9b4cb4a866e86e44227610f677a29ec053dd65e6c1dd95457debe262b610a000000006b483045022100ed591cbebe749d79b773bdf7dd51b91410b235367a226b6ae9508482cf5c83df02204d5d00b02bc97412b40301de8b0f1812fd49c9ca718c8d9846ab646c09e0bdae012103a200911f3ee8cde2eefa13a89e93651b41f75213c6fbaa7273e9f82552e61465ffffffff114cd9d01bf0887c8966b069890950ea7900454b45770e2e3b225b53185fa049000000006a4730440220237ebd5b2aa17f0139e7fa0159c12602e804384b2a736c1a2c3e07581145eb4302206fc82e1cc7a25516fd7f003abf44f07a862e1bc90dccee05ae93eb23cc0e880d012103a200911f3ee8cde2eefa13a89e93651b41f75213c6fbaa7273e9f82552e61465ffffffffd3d2d1864b5cfcb1b843ad2a4bf1c55e4a75ac4c7c7e71b6f2b58b7ef26e9b9c010000006a4730440220627c81692fa20af3712543ae40e9131da5d01ab3233441770c5f5f77ae13d4b002203477d68b437ac4e83d354d9cce66b076c69457e2bee8e9ad8bbc4d7156b85ae501210317de4b8f13355d79e414b2a834f2a4f71cb43dff9d42b8a4e8a3a4466fd9221cffffffff76b809560cb7c5d1989ddf52cbd24f80402141d34d121478e9d7f34fb07657c4010000006a4730440220669bc0046bc3dcc445248b7256e218d30074a6a290224cabf95a1265af5ba8ac02205b0783eff25bc4ebc4091799400392043ad8571e811470b7202c620ddab84505012102692909c371210202a8d1c13bc9cfe6969985638f4137d11593d6197b0386c2a7ffffffff01a82177000000000017a9149710d09219c0a26451e904c44fa9020e65e068a28700000000", "vin": [{"sequence": 4294967295, "scriptSig": {"hex": "483045022100ed591cbebe749d79b773bdf7dd51b91410b235367a226b6ae9508482cf5c83df02204d5d00b02bc97412b40301de8b0f1812fd49c9ca718c8d9846ab646c09e0bdae012103a200911f3ee8cde2eefa13a89e93651b41f75213c6fbaa7273e9f82552e61465", "asm": "3045022100ed591cbebe749d79b773bdf7dd51b91410b235367a226b6ae9508482cf5c83df02204d5d00b02bc97412b40301de8b0f1812fd49c9ca718c8d9846ab646c09e0bdae[ALL] 03a200911f3ee8cde2eefa13a89e93651b41f75213c6fbaa7273e9f82552e61465"}, "vout": 0, "txid": "0a612b26bede5754d91d6c5ed63d05ec297a670f612742e4866e864acbb4b91b"}, {"sequence": 4294967295, "scriptSig": {"hex": "4730440220237ebd5b2aa17f0139e7fa0159c12602e804384b2a736c1a2c3e07581145eb4302206fc82e1cc7a25516fd7f003abf44f07a862e1bc90dccee05ae93eb23cc0e880d012103a200911f3ee8cde2eefa13a89e93651b41f75213c6fbaa7273e9f82552e61465", "asm": "30440220237ebd5b2aa17f0139e7fa0159c12602e804384b2a736c1a2c3e07581145eb4302206fc82e1cc7a25516fd7f003abf44f07a862e1bc90dccee05ae93eb23cc0e880d[ALL] 03a200911f3ee8cde2eefa13a89e93651b41f75213c6fbaa7273e9f82552e61465"}, "vout": 0, "txid": "49a05f18535b223b2e0e77454b450079ea50098969b066897c88f01bd0d94c11"}, {"sequence": 4294967295, "scriptSig": {"hex": "4730440220627c81692fa20af3712543ae40e9131da5d01ab3233441770c5f5f77ae13d4b002203477d68b437ac4e83d354d9cce66b076c69457e2bee8e9ad8bbc4d7156b85ae501210317de4b8f13355d79e414b2a834f2a4f71cb43dff9d42b8a4e8a3a4466fd9221c", "asm": "30440220627c81692fa20af3712543ae40e9131da5d01ab3233441770c5f5f77ae13d4b002203477d68b437ac4e83d354d9cce66b076c69457e2bee8e9ad8bbc4d7156b85ae5[ALL] 0317de4b8f13355d79e414b2a834f2a4f71cb43dff9d42b8a4e8a3a4466fd9221c"}, "vout": 1, "txid": "9c9b6ef27e8bb5f2b6717e7c4cac754a5ec5f14b2aad43b8b1fc5c4b86d1d2d3"}, {"sequence": 4294967295, "scriptSig": {"hex": "4730440220669bc0046bc3dcc445248b7256e218d30074a6a290224cabf95a1265af5ba8ac02205b0783eff25bc4ebc4091799400392043ad8571e811470b7202c620ddab84505012102692909c371210202a8d1c13bc9cfe6969985638f4137d11593d6197b0386c2a7", "asm": "30440220669bc0046bc3dcc445248b7256e218d30074a6a290224cabf95a1265af5ba8ac02205b0783eff25bc4ebc4091799400392043ad8571e811470b7202c620ddab84505[ALL] 02692909c371210202a8d1c13bc9cfe6969985638f4137d11593d6197b0386c2a7"}, "vout": 1, "txid": "c45776b04ff3d7e97814124dd3412140804fd2cb52df9d98d1c5b70c5609b876"}], "txid": "814ab1885934c433605bf95d208ad9f79b2a92311bfe4ddfff9761d0e22b04dc", "blocktime": 1537870928, "version": 1, "confirmations": 11512, "time": 1537870928, "locktime": 0, "vsize": 631, "size": 631}