{"hash": "814d688a26753e8dc034f959a8d6dacb10ed958ed74b97d1ac51324297e400f1", "blockhash": "0000000000000000001e0dab787dd257d1dbfcb92a98c2207d5e1078be1f4165", "vout": [{"scriptPubKey": {"reqSigs": 1, "hex": "76a914238e6c6ce9a95c3cc76d1c37e055253236f7fd8b88ac", "addresses": ["14F1GUYXyUY9WF5UJtp1siP9MTaC3sCY7g"], "asm": "OP_DUP OP_HASH160 238e6c6ce9a95c3cc76d1c37e055253236f7fd8b OP_EQUALVERIFY OP_CHECKSIG", "type": "pubkeyhash"}, "value": 0.001663, "n": 0}, {"scriptPubKey": {"reqSigs": 1, "hex": "76a914524812503416c49accd4502198677dd2b04c367588ac", "addresses": ["18W4kMCSB4gVk9fy5yCiZ7xQzVMDLtfwjR"], "asm": "OP_DUP OP_HASH160 524812503416c49accd4502198677dd2b04c3675 OP_EQUALVERIFY OP_CHECKSIG", "type": "pubkeyhash"}, "value": 0.01004084, "n": 1}], "hex": "010000000185939e2ddea38e80479eb2eabc8c04a3085345aa1abe3eac89d5eebece98c10e010000006b483045022100c929fc1c697f7f6f4fde589ac49ae10db34ffda170fc4fc79efdc228f6b8dce402200cf61b956467c49de90fe2a202c3e33545abc8a643383ccc3e57b76a1a442b7401210387a59d7759a37f0d780d126fc65de7a669e9a56b4c75044f44249d7a8c4dc9c1ffffffff029c890200000000001976a914238e6c6ce9a95c3cc76d1c37e055253236f7fd8b88ac34520f00000000001976a914524812503416c49accd4502198677dd2b04c367588ac00000000", "vin": [{"sequence": 4294967295, "scriptSig": {"hex": "483045022100c929fc1c697f7f6f4fde589ac49ae10db34ffda170fc4fc79efdc228f6b8dce402200cf61b956467c49de90fe2a202c3e33545abc8a643383ccc3e57b76a1a442b7401210387a59d7759a37f0d780d126fc65de7a669e9a56b4c75044f44249d7a8c4dc9c1", "asm": "3045022100c929fc1c697f7f6f4fde589ac49ae10db34ffda170fc4fc79efdc228f6b8dce402200cf61b956467c49de90fe2a202c3e33545abc8a643383ccc3e57b76a1a442b74[ALL] 0387a59d7759a37f0d780d126fc65de7a669e9a56b4c75044f44249d7a8c4dc9c1"}, "vout": 1, "txid": "0ec198cebeeed589ac3ebe1aaa455308a3048cbceab29e47808ea3de2d9e9385"}], "txid": "814d688a26753e8dc034f959a8d6dacb10ed958ed74b97d1ac51324297e400f1", "blocktime": 1537872475, "version": 1, "confirmations": 11486, "time": 1537872475, "locktime": 0, "vsize": 226, "size": 226}