{"hash": "6469d0b219aa39eda683ca2aef8758fc1ff1910bbb0a5fa822dba9883aa61aa2", "blockhash": "0000000000000000000e13cef7c366c0283d82e591d1acd082e914b08063cdf1", "vout": [{"scriptPubKey": {"reqSigs": 1, "hex": "a914de2e7d3e8e0973db6ae0fbeaabc63cc52ac9e22487", "addresses": ["3MwodFxyb9drViaCUQ2JbBdAyYeZtmnBoa"], "asm": "OP_HASH160 de2e7d3e8e0973db6ae0fbeaabc63cc52ac9e224 OP_EQUAL", "type": "scripthash"}, "value": 0.01014441, "n": 0}, {"scriptPubKey": {"reqSigs": 1, "hex": "76a9142180102b7c7adf36c15ed67f57bc2fc2809a435b88ac", "addresses": ["1448iKGf94uCKtCejMTxQUadDxoeKr9VnF"], "asm": "OP_DUP OP_HASH160 2180102b7c7adf36c15ed67f57bc2fc2809a435b OP_EQUALVERIFY OP_CHECKSIG", "type": "pubkeyhash"}, "value": 0.0024616, "n": 1}], "hex": "0200000000010219d4021faa788a94c9b57904d725540b978cadb17d2016db10c8bf071e090b7801000000171600148be97bf564a9f7d3e7093b62eb238ac33684f956feffffffa6f488bce33bb003f2e0cd32e782c326d682d764dd186f42411555573b7c3776000000001716001435409e350a8d20837beb782211427a12f8d725d5feffffff02a97a0f000000000017a914de2e7d3e8e0973db6ae0fbeaabc63cc52ac9e2248790c10300000000001976a9142180102b7c7adf36c15ed67f57bc2fc2809a435b88ac02483045022100c507764f38b4821fdc4093296924ebf955611e99a3980816bcec3592a7d364ef02207e57d50371425e815ca24e68dddc10ab028b23709bc85ff25c2c907aece3997c0121028c1b56688f4c2fe5108d5d0aaa038358ce261a1b6055d9e2120fa000c193443a0248304502210088d8b80f4b79344e000d53bda369e90aa0d3fdda8e089fee19a08f8382accebc0220327a531205255f8563194f62cd81ecef3e340835b1cb0db9386cdea20235cf6801210366389d6708edad103920367c488703b2cfde848bd6590f4367fba3f9a0a7074904490800", "vin": [{"txinwitness": ["3045022100c507764f38b4821fdc4093296924ebf955611e99a3980816bcec3592a7d364ef02207e57d50371425e815ca24e68dddc10ab028b23709bc85ff25c2c907aece3997c01", "028c1b56688f4c2fe5108d5d0aaa038358ce261a1b6055d9e2120fa000c193443a"], "sequence": 4294967294, "scriptSig": {"hex": "1600148be97bf564a9f7d3e7093b62eb238ac33684f956", "asm": "00148be97bf564a9f7d3e7093b62eb238ac33684f956"}, "vout": 1, "txid": "780b091e07bfc810db16207db1ad8c970b5425d70479b5c9948a78aa1f02d419"}, {"txinwitness": ["304502210088d8b80f4b79344e000d53bda369e90aa0d3fdda8e089fee19a08f8382accebc0220327a531205255f8563194f62cd81ecef3e340835b1cb0db9386cdea20235cf6801", "0366389d6708edad103920367c488703b2cfde848bd6590f4367fba3f9a0a70749"], "sequence": 4294967294, "scriptSig": {"hex": "16001435409e350a8d20837beb782211427a12f8d725d5", "asm": "001435409e350a8d20837beb782211427a12f8d725d5"}, "vout": 0, "txid": "76377c3b57551541426f18dd64d782d626c382e732cde0f203b03be3bc88f4a6"}], "txid": "814d3bc5258d6cfd7d89b3628cdb409d312c5412c750f69b7c1679c1eef4c1ff", "blocktime": 1537871767, "version": 2, "confirmations": 11495, "time": 1537871767, "locktime": 542980, "vsize": 259, "size": 422}