{"hash": "8155b7d683faa8e4d13acd1884fb9fa20c22ad529286d2c5f36080b07fe3446e", "blockhash": "0000000000000000000dcc0f55137456b1a82d3642486a52398922ac4d620174", "vout": [{"scriptPubKey": {"reqSigs": 1, "hex": "76a914d243e6abb9a60fbff430b421d2df4b7d59ec186088ac", "addresses": ["1LAnF8h3qMGx3TSwNUHVneBZUEpwE4gu3D"], "asm": "OP_DUP OP_HASH160 d243e6abb9a60fbff430b421d2df4b7d59ec1860 OP_EQUALVERIFY OP_CHECKSIG", "type": "pubkeyhash"}, "value": 0.00076972, "n": 0}, {"scriptPubKey": {"reqSigs": 1, "hex": "76a9143851f34d13937b673a7d24a1950bb5b21ce94af388ac", "addresses": ["168o1kqNquEJeR9vosUB5fw4eAwcVAgh8P"], "asm": "OP_DUP OP_HASH160 3851f34d13937b673a7d24a1950bb5b21ce94af3 OP_EQUALVERIFY OP_CHECKSIG", "type": "pubkeyhash"}, "value": 5.46e-06, "n": 1}, {"scriptPubKey": {"type": "nulldata", "hex": "6a146f6d6e69000000000000001f00000106c5cd5600", "asm": "OP_RETURN 6f6d6e69000000000000001f00000106c5cd5600"}, "value": 0.0, "n": 2}], "hex": "0100000002abe4c0c7b6abce6a8a9adec19a66f1f12c70c9651d4fe5eb051705b577f4559d010000006a473044022013899851c629856eb1582c2346aa36f2550be672b1f085998b5fbbb623baf1cf02203b986d42a652b1264a9b237f9b2046b37328d6246342aa814acb3e17dae6933f0121026c6fa6d87d500ec02472e81ecbcb85490729418a4c6209dd45dc037909e7deb2ffffffff49e49e5d21d2e87896f829f201928c6b09c86c5f98cd0603517aebc412ca7f19000000006b483045022100f8c03b5e0d35781a72f9eef07418cdd4f96c2def6c95ccfcddb4b0acb25f0087022032771d8491be80ac760a627ef1dce4abdf71ea23ce4288661724095a1d5e50b301210271977291b74f1f5f5c42157e8aae804664eaaeccfd097918450d37f28fb94d77ffffffff03ac2c0100000000001976a914d243e6abb9a60fbff430b421d2df4b7d59ec186088ac22020000000000001976a9143851f34d13937b673a7d24a1950bb5b21ce94af388ac0000000000000000166a146f6d6e69000000000000001f00000106c5cd560000000000", "vin": [{"sequence": 4294967295, "scriptSig": {"hex": "473044022013899851c629856eb1582c2346aa36f2550be672b1f085998b5fbbb623baf1cf02203b986d42a652b1264a9b237f9b2046b37328d6246342aa814acb3e17dae6933f0121026c6fa6d87d500ec02472e81ecbcb85490729418a4c6209dd45dc037909e7deb2", "asm": "3044022013899851c629856eb1582c2346aa36f2550be672b1f085998b5fbbb623baf1cf02203b986d42a652b1264a9b237f9b2046b37328d6246342aa814acb3e17dae6933f[ALL] 026c6fa6d87d500ec02472e81ecbcb85490729418a4c6209dd45dc037909e7deb2"}, "vout": 1, "txid": "9d55f477b5051705ebe54f1d65c9702cf1f1669ac1de9a8a6aceabb6c7c0e4ab"}, {"sequence": 4294967295, "scriptSig": {"hex": "483045022100f8c03b5e0d35781a72f9eef07418cdd4f96c2def6c95ccfcddb4b0acb25f0087022032771d8491be80ac760a627ef1dce4abdf71ea23ce4288661724095a1d5e50b301210271977291b74f1f5f5c42157e8aae804664eaaeccfd097918450d37f28fb94d77", "asm": "3045022100f8c03b5e0d35781a72f9eef07418cdd4f96c2def6c95ccfcddb4b0acb25f0087022032771d8491be80ac760a627ef1dce4abdf71ea23ce4288661724095a1d5e50b3[ALL] 0271977291b74f1f5f5c42157e8aae804664eaaeccfd097918450d37f28fb94d77"}, "vout": 0, "txid": "197fca12c4eb7a510306cd985f6cc8096b8c9201f229f89678e8d2215d9ee449"}], "txid": "8155b7d683faa8e4d13acd1884fb9fa20c22ad529286d2c5f36080b07fe3446e", "blocktime": 1537870268, "version": 1, "confirmations": 11516, "time": 1537870268, "locktime": 0, "vsize": 404, "size": 404}