{"hash": "196517b1c658bfbc0df560d1de229476ccf60e780df8d23308d7c4e666ce354a", "blockhash": "0000000000000000001f0ddff1eddb255c1121bcd4da4f1bc9a0da00cae72433", "vout": [{"scriptPubKey": {"reqSigs": 1, "hex": "a91449d7e96499e76d96ef877a2fcb98823c8bccba2187", "addresses": ["38RTuMXR3rjgmqC2TwiJHrCLzc9nbGoNw7"], "asm": "OP_HASH160 49d7e96499e76d96ef877a2fcb98823c8bccba21 OP_EQUAL", "type": "scripthash"}, "value": 0.00053574, "n": 0}], "hex": "01000000000101c41293c799e9669c8838984e631b8f3088959445b0cfdb60f2b9e1c3a559d1ad0000000017160014ad9bb640255e3aedc6defbc4b928ef4ea4d4f02cffffffff0146d100000000000017a91449d7e96499e76d96ef877a2fcb98823c8bccba218702473044022052608047218e746f029fec68ffc8beb2b344fc7e66b4244f62f2e8476d2c5df7022023e699f84e1a398518d44222ed6ccd9b1afcd3546889a811f2ada4d73b3672040121025eeff2deabd4c424e98b9621fdba2a5bde1b2988844c32a1903d84959c3eaec600000000", "vin": [{"txinwitness": ["3044022052608047218e746f029fec68ffc8beb2b344fc7e66b4244f62f2e8476d2c5df7022023e699f84e1a398518d44222ed6ccd9b1afcd3546889a811f2ada4d73b36720401", "025eeff2deabd4c424e98b9621fdba2a5bde1b2988844c32a1903d84959c3eaec6"], "sequence": 4294967295, "scriptSig": {"hex": "160014ad9bb640255e3aedc6defbc4b928ef4ea4d4f02c", "asm": "0014ad9bb640255e3aedc6defbc4b928ef4ea4d4f02c"}, "vout": 0, "txid": "add159a5c3e1b9f260dbcfb045949588308f1b634e9838889c66e999c79312c4"}], "txid": "8155bb7c7c21f9d097b70f97cba0343d3cd2f7f6337266a7786b537a5534608b", "blocktime": 1537872018, "version": 1, "confirmations": 11489, "time": 1537872018, "locktime": 0, "vsize": 134, "size": 215}