{"hash": "815d1fd4d10a96bbc98dde155ddb748395e00a75380dfaa505b96a2b175e7c26", "blockhash": "00000000000000000024a2167bbff67b0be802c0b01cdd79e6331c2be6459f87", "vout": [{"scriptPubKey": {"reqSigs": 1, "hex": "76a914a932444f4c6aa35a6afd12aabf23792e444b549488ac", "addresses": ["1GRdR2BB9qW6Efebiq7EoHzsQB3RvJ369H"], "asm": "OP_DUP OP_HASH160 a932444f4c6aa35a6afd12aabf23792e444b5494 OP_EQUALVERIFY OP_CHECKSIG", "type": "pubkeyhash"}, "value": 0.0270453, "n": 0}, {"scriptPubKey": {"reqSigs": 1, "hex": "76a914ad4634b16781f8f6fc1f862d841d49ebf452f3a588ac", "addresses": ["1GoC1B4GWdbnwzpCFNxqDb2zSL9UzQnwrW"], "asm": "OP_DUP OP_HASH160 ad4634b16781f8f6fc1f862d841d49ebf452f3a5 OP_EQUALVERIFY OP_CHECKSIG", "type": "pubkeyhash"}, "value": 39.83586306, "n": 1}], "hex": "02000000016c08a2040602acdfdc597ba278e34e1dfd76682a00b1332995023a5f06035741010000006a47304402206100bbadceed45710b01d8a56774d011e7074ddc0f475ba52f7713f60c93479b022073d89883238c9933c8330450bf366dea0b5862a9802a1b44ad37982a7d01c8ce012103c38205e5b9b5cf8f91f90ca38d79a7ab6d3b168e1b25bd5f4be0d615f0b47a44ffffffff0292442900000000001976a914a932444f4c6aa35a6afd12aabf23792e444b549488ac02b470ed000000001976a914ad4634b16781f8f6fc1f862d841d49ebf452f3a588ac00000000", "vin": [{"sequence": 4294967295, "scriptSig": {"hex": "47304402206100bbadceed45710b01d8a56774d011e7074ddc0f475ba52f7713f60c93479b022073d89883238c9933c8330450bf366dea0b5862a9802a1b44ad37982a7d01c8ce012103c38205e5b9b5cf8f91f90ca38d79a7ab6d3b168e1b25bd5f4be0d615f0b47a44", "asm": "304402206100bbadceed45710b01d8a56774d011e7074ddc0f475ba52f7713f60c93479b022073d89883238c9933c8330450bf366dea0b5862a9802a1b44ad37982a7d01c8ce[ALL] 03c38205e5b9b5cf8f91f90ca38d79a7ab6d3b168e1b25bd5f4be0d615f0b47a44"}, "vout": 1, "txid": "415703065f3a02952933b1002a6876fd1d4ee378a27b59dcdfac020604a2086c"}], "txid": "815d1fd4d10a96bbc98dde155ddb748395e00a75380dfaa505b96a2b175e7c26", "blocktime": 1537870564, "version": 2, "confirmations": 11515, "time": 1537870564, "locktime": 0, "vsize": 225, "size": 225}