{"hash": "26dccbe3ac86fc882f16cca79587d59f14849ff3990dccb355de8dc32282df90", "blockhash": "0000000000000000000e13cef7c366c0283d82e591d1acd082e914b08063cdf1", "vout": [{"scriptPubKey": {"reqSigs": 1, "hex": "76a914ccf7006281862d9ac080528ad94e14e601f6ca7488ac", "addresses": ["1Kgkk6j4LzKMFwXxjKyK5FQvfH9SgNrNVB"], "asm": "OP_DUP OP_HASH160 ccf7006281862d9ac080528ad94e14e601f6ca74 OP_EQUALVERIFY OP_CHECKSIG", "type": "pubkeyhash"}, "value": 0.012, "n": 0}, {"scriptPubKey": {"reqSigs": 1, "hex": "0014fd7fdda569edcd6bfc3554f61bebe6c1923e44a2", "addresses": ["bc1ql4lamftfahxkhlp42nmph6lxcxfru39zgvafjy"], "asm": "0 fd7fdda569edcd6bfc3554f61bebe6c1923e44a2", "type": "witness_v0_keyhash"}, "value": 0.00075535, "n": 1}], "hex": "01000000000101fe0f85aaaa12f2b59a2c636344fbfe299c7a41afb35a7cf602bf8e140916033d0000000017160014794be5309978b77c243d127559bea0e6e228e665ffffffff02804f1200000000001976a914ccf7006281862d9ac080528ad94e14e601f6ca7488ac0f27010000000000160014fd7fdda569edcd6bfc3554f61bebe6c1923e44a202483045022100a877322307b4439898439b0503a7deb95ffbd5e2db376fc54a3733120c21738102205aa68e8b83dff805fe51974a8ad62ff2efbc0da9c7e7d20c3a6825003c5726350121033e02bbdc17c00a0377c8ef2b1c6a57137b36b8756f99a58f7514bd130c3e900400000000", "vin": [{"txinwitness": ["3045022100a877322307b4439898439b0503a7deb95ffbd5e2db376fc54a3733120c21738102205aa68e8b83dff805fe51974a8ad62ff2efbc0da9c7e7d20c3a6825003c57263501", "033e02bbdc17c00a0377c8ef2b1c6a57137b36b8756f99a58f7514bd130c3e9004"], "sequence": 4294967295, "scriptSig": {"hex": "160014794be5309978b77c243d127559bea0e6e228e665", "asm": "0014794be5309978b77c243d127559bea0e6e228e665"}, "vout": 0, "txid": "3d031609148ebf02f67c5ab3af417a9c29fefb4463632c9ab5f212aaaa850ffe"}], "txid": "816c542632b1d37d78aff7accdad4847df0e27b40cc88f0ce4c57035d7c6151b", "blocktime": 1537871767, "version": 1, "confirmations": 11495, "time": 1537871767, "locktime": 0, "vsize": 167, "size": 249}