{"hash": "bd1b021ea9dccb9daf0a3094c8299fed3219445b51c87214201788cf08527d10", "blockhash": "0000000000000000001cda96e906b7601b7a6fb1a3b62bca570a9e5d8f4b3de1", "vout": [{"scriptPubKey": {"reqSigs": 1, "hex": "0014985b1f708771ffc19e18cb4371b944e6853bf10e", "addresses": ["bc1qnpd37uy8w8lur8scedphrw2yu6znhugw4jpy5p"], "asm": "0 985b1f708771ffc19e18cb4371b944e6853bf10e", "type": "witness_v0_keyhash"}, "value": 0.00010441, "n": 0}, {"scriptPubKey": {"reqSigs": 1, "hex": "76a914afb39e01514ab68770e0de5dd39a264d12323d9588ac", "addresses": ["1H22RbNqMCcEep26Tiv9AkAdz7LzMVi5sx"], "asm": "OP_DUP OP_HASH160 afb39e01514ab68770e0de5dd39a264d12323d95 OP_EQUALVERIFY OP_CHECKSIG", "type": "pubkeyhash"}, "value": 0.0039, "n": 1}], "hex": "01000000000101b29563023cc84ef0c8e79d44e8833b6549821b2bbd5f50839d63817f36e087400100000000ffffffff02c928000000000000160014985b1f708771ffc19e18cb4371b944e6853bf10e70f30500000000001976a914afb39e01514ab68770e0de5dd39a264d12323d9588ac024830450221008fe8adec90d501a8f6d1a1befe43fddd9cf85d2282f864aa2c82cb999433e63e0220250d5bfca7b875f2563e050baeb1ddde45d30985f54e4d7104e89ab94913b7300121032272170346386adf9963656b522aef895956f98cef1704e3633bbf84b5def3e200000000", "vin": [{"txinwitness": ["30450221008fe8adec90d501a8f6d1a1befe43fddd9cf85d2282f864aa2c82cb999433e63e0220250d5bfca7b875f2563e050baeb1ddde45d30985f54e4d7104e89ab94913b73001", "032272170346386adf9963656b522aef895956f98cef1704e3633bbf84b5def3e2"], "sequence": 4294967295, "scriptSig": {"hex": "", "asm": ""}, "vout": 1, "txid": "4087e0367f81639d83505fbd2b1b8249653b83e8449de7c8f04ec83c026395b2"}], "txid": "8170d7fe1303789927981e7b58ed10c8defcdc53dc77e5677fa18d0764cb439c", "blocktime": 1537873282, "version": 1, "confirmations": 11484, "time": 1537873282, "locktime": 0, "vsize": 144, "size": 226}