{"hash": "43b8f5fbf97843266ba17c8bbd83ae68c1528bed47f7897460b6196a0a3111cd", "blockhash": "0000000000000000000baef3f32e3676a92c3b2e5da21b426e4f302fc371ce76", "vout": [{"scriptPubKey": {"reqSigs": 1, "hex": "a914e7f6008f3f326e93da7121860fd7c9fb06a1b1c687", "addresses": ["3NqWiPTpivKDN1AwKpV9EhjzZZwTDwSwLv"], "asm": "OP_HASH160 e7f6008f3f326e93da7121860fd7c9fb06a1b1c6 OP_EQUAL", "type": "scripthash"}, "value": 1.254e-05, "n": 0}, {"scriptPubKey": {"reqSigs": 1, "hex": "a91449d7e96499e76d96ef877a2fcb98823c8bccba2187", "addresses": ["38RTuMXR3rjgmqC2TwiJHrCLzc9nbGoNw7"], "asm": "OP_HASH160 49d7e96499e76d96ef877a2fcb98823c8bccba21 OP_EQUAL", "type": "scripthash"}, "value": 0.00051496, "n": 1}], "hex": "010000000001014a71beb92e62c0f88f1b50066a5e55529eabbda4bad5b9d15d86254a8f61fbe500000000232200202a9a1aa43dd52fca361d638a9bb1c7c7a7b32bed598a04104268b8ecbdbfe96fffffffff02e60400000000000017a914e7f6008f3f326e93da7121860fd7c9fb06a1b1c68728c900000000000017a91449d7e96499e76d96ef877a2fcb98823c8bccba21870400473044022059531ad0477a4a61791283480453098d13cd1cfcd35137ae791d25a4379b9e5b02203eb53490112503535a8f73f506a082edf845eb3c3e913bd9015d6ae1f8765b6101483045022100be6635c1c0bc19a0458b29dd070cee1704b99ee13e9a7547d368cdb1604bf7b302201403e163211e0205221a2128c1c790e68444f28c53c5d75267dec04f999bb3ef0147522103ea39afa13bfc0b16775c1ffdd58dbb69a77441d8211cfd208f16ac7437c451312103338f346cab6ba87fe940591a03ac234be06520c5ab386d4b6632e8eef0d0db7652ae00000000", "vin": [{"txinwitness": ["", "3044022059531ad0477a4a61791283480453098d13cd1cfcd35137ae791d25a4379b9e5b02203eb53490112503535a8f73f506a082edf845eb3c3e913bd9015d6ae1f8765b6101", "3045022100be6635c1c0bc19a0458b29dd070cee1704b99ee13e9a7547d368cdb1604bf7b302201403e163211e0205221a2128c1c790e68444f28c53c5d75267dec04f999bb3ef01", "522103ea39afa13bfc0b16775c1ffdd58dbb69a77441d8211cfd208f16ac7437c451312103338f346cab6ba87fe940591a03ac234be06520c5ab386d4b6632e8eef0d0db7652ae"], "sequence": 4294967295, "scriptSig": {"hex": "2200202a9a1aa43dd52fca361d638a9bb1c7c7a7b32bed598a04104268b8ecbdbfe96f", "asm": "00202a9a1aa43dd52fca361d638a9bb1c7c7a7b32bed598a04104268b8ecbdbfe96f"}, "vout": 0, "txid": "e5fb618f4a25865dd1b9d5baa4bdab9e52555e6a06501b8ff8c0622eb9be714a"}], "txid": "81721920a56be106a3fe939e2d3d933b33dc297fe75726fa3f338de442e19961", "blocktime": 1537876114, "version": 1, "confirmations": 11462, "time": 1537876114, "locktime": 0, "vsize": 206, "size": 371}