{"hash": "66c75465b7fa71f1250e08f08e2414aacb395b5bfe73d8721c75d562cef8e5d9", "blockhash": "0000000000000000000e13cef7c366c0283d82e591d1acd082e914b08063cdf1", "vout": [{"scriptPubKey": {"reqSigs": 1, "hex": "a914274440b242c2438bd862eb6b65bec519beb75b5687", "addresses": ["35Ge3Jmu4H5Z2jhHDU5JvsE3z2SCTuxaMr"], "asm": "OP_HASH160 274440b242c2438bd862eb6b65bec519beb75b56 OP_EQUAL", "type": "scripthash"}, "value": 0.24079386, "n": 0}, {"scriptPubKey": {"reqSigs": 1, "hex": "76a9147b323b7d91e8b88bac2e8e963df8237e55e1e7f188ac", "addresses": ["1CEQHoYMgLgfWZc9W1WrrLRqP4H9n9Qm4j"], "asm": "OP_DUP OP_HASH160 7b323b7d91e8b88bac2e8e963df8237e55e1e7f1 OP_EQUALVERIFY OP_CHECKSIG", "type": "pubkeyhash"}, "value": 0.03457145, "n": 1}], "hex": "0100000000010192e41f17be1ab91ae82e593ba502a3f38f2cd89d637674df3e3512c7f79b31b4010000002322002020c62be20d0ecf88f391302cffd3e5c17120921607f274eeaccc240c09094c59ffffffff021a6c6f010000000017a914274440b242c2438bd862eb6b65bec519beb75b568779c03400000000001976a9147b323b7d91e8b88bac2e8e963df8237e55e1e7f188ac0400483045022100add5d841603794c752b1bdae0f51bf48197b8145dbb6596718b0dd24d526b2b402207eea736ce8c0f94ad52478eb06071b9028e0d57247aa2a2a4c9c8c939b84147201483045022100956c6c78b9eb96c5630afa5c272f72cfae43ca291c768b8e79454fba70bea3910220135c6db52b093775385703cc1136ff20ce2c2ae18f08b901b4baeb436664c693016952210219b04026514db72101ba0b19d0aea47f72bb2927b73ccf385b2fa35be5cc5b8121028f8a9fea7aa459cdf034d2717f41192ad03b30a51e54bc76b53326f3b814068e21038121413aad800383438a6f69ab078344299928d8ee11b1da57b7c24682c4b58c53ae00000000", "vin": [{"txinwitness": ["", "3045022100add5d841603794c752b1bdae0f51bf48197b8145dbb6596718b0dd24d526b2b402207eea736ce8c0f94ad52478eb06071b9028e0d57247aa2a2a4c9c8c939b84147201", "3045022100956c6c78b9eb96c5630afa5c272f72cfae43ca291c768b8e79454fba70bea3910220135c6db52b093775385703cc1136ff20ce2c2ae18f08b901b4baeb436664c69301", "52210219b04026514db72101ba0b19d0aea47f72bb2927b73ccf385b2fa35be5cc5b8121028f8a9fea7aa459cdf034d2717f41192ad03b30a51e54bc76b53326f3b814068e21038121413aad800383438a6f69ab078344299928d8ee11b1da57b7c24682c4b58c53ae"], "sequence": 4294967295, "scriptSig": {"hex": "22002020c62be20d0ecf88f391302cffd3e5c17120921607f274eeaccc240c09094c59", "asm": "002020c62be20d0ecf88f391302cffd3e5c17120921607f274eeaccc240c09094c59"}, "vout": 1, "txid": "b4319bf7c712353edf7476639dd82c8ff3a302a53b592ee81ab91abe171fe492"}], "txid": "81760e7c5a12df87704705a57be7dbc00b8c8037cf2e856f75a12c8d3010c0c5", "blocktime": 1537871767, "version": 1, "confirmations": 11493, "time": 1537871767, "locktime": 0, "vsize": 216, "size": 408}