{"hash": "2a69d211b83a62ee31ac113877e45f335a49191468fee0478bf3675d05987eda", "blockhash": "0000000000000000000e13cef7c366c0283d82e591d1acd082e914b08063cdf1", "vout": [{"scriptPubKey": {"reqSigs": 1, "hex": "a914eae69c8ee5639f34b047d086f2d752056c5b1aa387", "addresses": ["3P74JbybbEj8Ajer6rghC7jSR6p8yuPpue"], "asm": "OP_HASH160 eae69c8ee5639f34b047d086f2d752056c5b1aa3 OP_EQUAL", "type": "scripthash"}, "value": 0.00105286, "n": 0}, {"scriptPubKey": {"reqSigs": 1, "hex": "a914b8a9a8ba8cf965b7df6b05afd948e53c351b2c0d87", "addresses": ["3JXRVxhrk2o9f4w3cQchBLwUeegJBj6BEp"], "asm": "OP_HASH160 b8a9a8ba8cf965b7df6b05afd948e53c351b2c0d OP_EQUAL", "type": "scripthash"}, "value": 2.98150108, "n": 1}], "hex": "01000000000101d7c0e9ff53d218078ae53f12d15abd695afc52a9e1e9002be67f0f7e9463bfef010000002322002065d416c48a8072e0ac51c2d111eb194f009caef0332446c1bf2097316cf07fa9ffffffff02469b01000000000017a914eae69c8ee5639f34b047d086f2d752056c5b1aa387dc68c5110000000017a914b8a9a8ba8cf965b7df6b05afd948e53c351b2c0d87040048304502210081b8bb38360282ed0c08a162b961f1f704f2c929c8c036f5cd73b49cad5562600220647b06349b8fdfe8145c818d24b592c794bd0314d264786aff4a3f0d6b4f60f4014730440220585b38b5ca7e529a9c7e399566f43082d1ad0cbf58ba29a9e187a3c14608a2ab022053b8dcb4da2d077eb0933ba46e1eda1160f330b63c1998b3f816c71b6ebaef3d0169522102f44abcf9e23c9a460da309ccca56c619c04eed3bde2c2cff5e7d78fbcd980b9c2103c9443cf3047bb6c2c82f1b0c44c36109cdc3d0d601d16d1189a1602bf8d1a0a02103bfe867059274412412e088af5572b92168c2ef495cfe6c9b7a753a009eb37c4853ae00000000", "vin": [{"txinwitness": ["", "304502210081b8bb38360282ed0c08a162b961f1f704f2c929c8c036f5cd73b49cad5562600220647b06349b8fdfe8145c818d24b592c794bd0314d264786aff4a3f0d6b4f60f401", "30440220585b38b5ca7e529a9c7e399566f43082d1ad0cbf58ba29a9e187a3c14608a2ab022053b8dcb4da2d077eb0933ba46e1eda1160f330b63c1998b3f816c71b6ebaef3d01", "522102f44abcf9e23c9a460da309ccca56c619c04eed3bde2c2cff5e7d78fbcd980b9c2103c9443cf3047bb6c2c82f1b0c44c36109cdc3d0d601d16d1189a1602bf8d1a0a02103bfe867059274412412e088af5572b92168c2ef495cfe6c9b7a753a009eb37c4853ae"], "sequence": 4294967295, "scriptSig": {"hex": "22002065d416c48a8072e0ac51c2d111eb194f009caef0332446c1bf2097316cf07fa9", "asm": "002065d416c48a8072e0ac51c2d111eb194f009caef0332446c1bf2097316cf07fa9"}, "vout": 1, "txid": "efbf63947e0f7fe62b00e9e1a952fc5a69bd5ad1123fe58a0718d253ffe9c0d7"}], "txid": "817875626d80f3c87bb7bde24d89977aa886edaa229b039ec058988d397e6d7e", "blocktime": 1537871767, "version": 1, "confirmations": 11491, "time": 1537871767, "locktime": 0, "vsize": 214, "size": 405}