{"hash": "81786eb3aef6607ca8b386a0074b69e60e2eda01fa8fa8a1cefe2698c2c78155", "blockhash": "0000000000000000001f76057863aec43deb6fa401d9628bb513d65a8098bfab", "vout": [{"scriptPubKey": {"reqSigs": 1, "hex": "76a9143b461c52e529d1cdafa67791b6df1854e6050bed88ac", "addresses": ["16QQrh4Mz3P6U8gcfup3ZSNTkNRqYN4jfw"], "asm": "OP_DUP OP_HASH160 3b461c52e529d1cdafa67791b6df1854e6050bed OP_EQUALVERIFY OP_CHECKSIG", "type": "pubkeyhash"}, "value": 0.00635761, "n": 0}, {"scriptPubKey": {"type": "nulldata", "hex": "6a4c50000077e5000156cc4abfee6c8a7dd3835c4c7af8e8e963c7cfd5b95b23cc0f42c2fc38c555f0bf47b10919c186d469e2ea8439825baa17490612320a6ff6adaa1d100759d4ba30d2c37bb011d97e02cf", "asm": "OP_RETURN 000077e5000156cc4abfee6c8a7dd3835c4c7af8e8e963c7cfd5b95b23cc0f42c2fc38c555f0bf47b10919c186d469e2ea8439825baa17490612320a6ff6adaa1d100759d4ba30d2c37bb011d97e02cf"}, "value": 0.0, "n": 1}], "hex": "0100000001b0ecc74f6e33434d1805be35ded9ca603470b28a86a7c299e0f0bbaef92c4bea000000006b483045022100b0f92136b401b5e8f5c23fca109e1e338124c5406c84061db73668d524cd9663022076f711fdec35328b90622c5df69a1d4a61003cc8e14b1b63e017140f6dc73e45012102ccb2b72aca15d8fb675af7e2edeaefd71e94963a442c2c60fe130326a7656537ffffffff0271b30900000000001976a9143b461c52e529d1cdafa67791b6df1854e6050bed88ac0000000000000000536a4c50000077e5000156cc4abfee6c8a7dd3835c4c7af8e8e963c7cfd5b95b23cc0f42c2fc38c555f0bf47b10919c186d469e2ea8439825baa17490612320a6ff6adaa1d100759d4ba30d2c37bb011d97e02cf00000000", "vin": [{"sequence": 4294967295, "scriptSig": {"hex": "483045022100b0f92136b401b5e8f5c23fca109e1e338124c5406c84061db73668d524cd9663022076f711fdec35328b90622c5df69a1d4a61003cc8e14b1b63e017140f6dc73e45012102ccb2b72aca15d8fb675af7e2edeaefd71e94963a442c2c60fe130326a7656537", "asm": "3045022100b0f92136b401b5e8f5c23fca109e1e338124c5406c84061db73668d524cd9663022076f711fdec35328b90622c5df69a1d4a61003cc8e14b1b63e017140f6dc73e45[ALL] 02ccb2b72aca15d8fb675af7e2edeaefd71e94963a442c2c60fe130326a7656537"}, "vout": 0, "txid": "ea4b2cf9aebbf0e099c2a7868ab2703460cad9de35be05184d43336e4fc7ecb0"}], "txid": "81786eb3aef6607ca8b386a0074b69e60e2eda01fa8fa8a1cefe2698c2c78155", "blocktime": 1537873891, "version": 1, "confirmations": 11478, "time": 1537873891, "locktime": 0, "vsize": 284, "size": 284}