{"hash": "de98481c89f32d0a7fe3fee726b95aa4c25418dba0810b0c13a39d498cc8e108", "blockhash": "0000000000000000001e0dab787dd257d1dbfcb92a98c2207d5e1078be1f4165", "vout": [{"scriptPubKey": {"reqSigs": 1, "hex": "a914a075c94f7f64c4df5bf3b66c93a5158bcefc281887", "addresses": ["3GKT9BDnxCxuK9u1NsWH5akxafrRCTAAeg"], "asm": "OP_HASH160 a075c94f7f64c4df5bf3b66c93a5158bcefc2818 OP_EQUAL", "type": "scripthash"}, "value": 0.10102147, "n": 0}, {"scriptPubKey": {"reqSigs": 1, "hex": "76a9147e2a7dc3cf2b35930e0a2d6bc4042864a72d136c88ac", "addresses": ["1CW73Wv322idaVwgCPBvRtVmiP9BzfxzFx"], "asm": "OP_DUP OP_HASH160 7e2a7dc3cf2b35930e0a2d6bc4042864a72d136c OP_EQUALVERIFY OP_CHECKSIG", "type": "pubkeyhash"}, "value": 0.001, "n": 1}], "hex": "0100000000010181a2a605795e99b2af125fc3bf5bdd2de97f2aa26ed819a425546e4030b58348000000001716001423b7f9e88f08be456253702ddab9de2537a26ecdffffffff0283259a000000000017a914a075c94f7f64c4df5bf3b66c93a5158bcefc281887a0860100000000001976a9147e2a7dc3cf2b35930e0a2d6bc4042864a72d136c88ac02473044022034117b959c151d115d1cade9b4db5f9a45fb3b6aa6688db50c4300a3d37ef9aa02205354611752d44fc3bc8cd6a304651915718a5cd80b51417c33e8109617a5fa37012102462949eb3f6c0bc2b7d970e45191b01dcd685b30204db6dfa5d6d7b77c6be95d00000000", "vin": [{"txinwitness": ["3044022034117b959c151d115d1cade9b4db5f9a45fb3b6aa6688db50c4300a3d37ef9aa02205354611752d44fc3bc8cd6a304651915718a5cd80b51417c33e8109617a5fa3701", "02462949eb3f6c0bc2b7d970e45191b01dcd685b30204db6dfa5d6d7b77c6be95d"], "sequence": 4294967295, "scriptSig": {"hex": "16001423b7f9e88f08be456253702ddab9de2537a26ecd", "asm": "001423b7f9e88f08be456253702ddab9de2537a26ecd"}, "vout": 0, "txid": "4883b530406e5425a419d86ea22a7fe92ddd5bbfc35f12afb2995e7905a6a281"}], "txid": "817c3d5f5fcc660c8008c463c365bd00d82c3b2a554b51b22ecd5deb8f0d37c6", "blocktime": 1537872475, "version": 1, "confirmations": 11486, "time": 1537872475, "locktime": 0, "vsize": 168, "size": 249}