{"hash": "8180f548c57ac3555ab5acdf2469f6296ce63f8feac8783c3e4d69231af98653", "blockhash": "00000000000000000018f53835495a110e01622372bf6ae95dc86f2b0ab887b0", "vout": [{"scriptPubKey": {"reqSigs": 1, "hex": "76a914e75af8fbe502256e56f6037eb797b63c634e7c9088ac", "addresses": ["1N6J5CZvmwqPwtKd3wKai8LZR1cKTAwuWn"], "asm": "OP_DUP OP_HASH160 e75af8fbe502256e56f6037eb797b63c634e7c90 OP_EQUALVERIFY OP_CHECKSIG", "type": "pubkeyhash"}, "value": 0.0148176, "n": 0}, {"scriptPubKey": {"type": "nulldata", "hex": "6a4c500000778200015aa091b580448882568b364dbcbefa6b8351586b4e86aeaeacb577c031fc00b8ec07956fbef6f6fdb23a1c7eddd85baa0b03061403b1747f0a3abc9a9526289ac0f6612cd74e33776ee4", "asm": "OP_RETURN 0000778200015aa091b580448882568b364dbcbefa6b8351586b4e86aeaeacb577c031fc00b8ec07956fbef6f6fdb23a1c7eddd85baa0b03061403b1747f0a3abc9a9526289ac0f6612cd74e33776ee4"}, "value": 0.0, "n": 1}], "hex": "01000000014e9ac61dfd92c0681a6c67cd977b4cb26960a35bfd8001c44bf958955d6c2049010000006a473044022000a0ffdb8a2e6b761ca23f32c7694757ccc2c4a39517e022bdd970a7740ef99202204a318911db92bd879f73daebd6da8fbaa5987b08e03be203648d34c296d86ae4012102ebfd5db1822d8f713883ca8882514da71aa614ecbb19e9de7d3e30303a845ce2ffffffff02209c1600000000001976a914e75af8fbe502256e56f6037eb797b63c634e7c9088ac0000000000000000536a4c500000778200015aa091b580448882568b364dbcbefa6b8351586b4e86aeaeacb577c031fc00b8ec07956fbef6f6fdb23a1c7eddd85baa0b03061403b1747f0a3abc9a9526289ac0f6612cd74e33776ee400000000", "vin": [{"sequence": 4294967295, "scriptSig": {"hex": "473044022000a0ffdb8a2e6b761ca23f32c7694757ccc2c4a39517e022bdd970a7740ef99202204a318911db92bd879f73daebd6da8fbaa5987b08e03be203648d34c296d86ae4012102ebfd5db1822d8f713883ca8882514da71aa614ecbb19e9de7d3e30303a845ce2", "asm": "3044022000a0ffdb8a2e6b761ca23f32c7694757ccc2c4a39517e022bdd970a7740ef99202204a318911db92bd879f73daebd6da8fbaa5987b08e03be203648d34c296d86ae4[ALL] 02ebfd5db1822d8f713883ca8882514da71aa614ecbb19e9de7d3e30303a845ce2"}, "vout": 1, "txid": "49206c5d9558f94bc40180fd5ba36069b24c7b97cd676c1a68c092fd1dc69a4e"}], "txid": "8180f548c57ac3555ab5acdf2469f6296ce63f8feac8783c3e4d69231af98653", "blocktime": 1537870928, "version": 1, "confirmations": 11512, "time": 1537870928, "locktime": 0, "vsize": 283, "size": 283}