{"hash": "c6c2bf0225c4c3cd2e1104a5fed34e802ba5ceff5c14cbd84d9597640fce4a20", "blockhash": "00000000000000000004ffacab907a6b429b9a5745fa0b75af4234bf69dd7176", "vout": [{"scriptPubKey": {"reqSigs": 1, "hex": "a9142e0541f4dc414dd1bee548e8f27c942094743aa187", "addresses": ["35tMJg8AUHEz7rpWHcbwKYsV51LGPMUCKw"], "asm": "OP_HASH160 2e0541f4dc414dd1bee548e8f27c942094743aa1 OP_EQUAL", "type": "scripthash"}, "value": 0.04, "n": 0}, {"scriptPubKey": {"reqSigs": 1, "hex": "a914e15b6c3b2b9b0d77cc85dea455facd0220c97fe287", "addresses": ["3NEbUsWCXhvyNbXEuVoQp9j69X6TxBinU3"], "asm": "OP_HASH160 e15b6c3b2b9b0d77cc85dea455facd0220c97fe2 OP_EQUAL", "type": "scripthash"}, "value": 0.00483889, "n": 1}, {"scriptPubKey": {"reqSigs": 1, "hex": "a914ad20b55bb4e4d87842e4a295a90b07af320e30f187", "addresses": ["3HUS1MNS17GNNnsLxGSYr4aodh19BqdwxX"], "asm": "OP_HASH160 ad20b55bb4e4d87842e4a295a90b07af320e30f1 OP_EQUAL", "type": "scripthash"}, "value": 0.0029706, "n": 2}, {"scriptPubKey": {"reqSigs": 1, "hex": "a914437ca52da42df759eefb35b7989896a135ee923287", "addresses": ["37qrWu5H7Q7HN7mWgY5F4njzAkmu9dUMyU"], "asm": "OP_HASH160 437ca52da42df759eefb35b7989896a135ee9232 OP_EQUAL", "type": "scripthash"}, "value": 0.00503201, "n": 3}, {"scriptPubKey": {"reqSigs": 1, "hex": "a914b27606f87bd6d7607d0d9fff3755d888f4ccedd687", "addresses": ["3HxdbN8pjqUj91jun45jiV7Cu8BMULRD2u"], "asm": "OP_HASH160 b27606f87bd6d7607d0d9fff3755d888f4ccedd6 OP_EQUAL", "type": "scripthash"}, "value": 9.33777961, "n": 4}, {"scriptPubKey": {"reqSigs": 1, "hex": "a914560d14be7d48cdce61d7446bb08e47cae703e21487", "addresses": ["39Y1hvjHyUVbqt3vM3KfN6mnpcjrwf92Mn"], "asm": "OP_HASH160 560d14be7d48cdce61d7446bb08e47cae703e214 OP_EQUAL", "type": "scripthash"}, "value": 0.01022222, "n": 5}, {"scriptPubKey": {"reqSigs": 1, "hex": "76a91482659e9e7ab555ee65a397eca10155c840cb7e8a88ac", "addresses": ["1CtUabLHfdiPxP5FKuGHHsxsnKeie4QXNu"], "asm": "OP_DUP OP_HASH160 82659e9e7ab555ee65a397eca10155c840cb7e8a OP_EQUALVERIFY OP_CHECKSIG", "type": "pubkeyhash"}, "value": 0.00328293, "n": 6}, {"scriptPubKey": {"reqSigs": 1, "hex": "76a914d046ec3e3d472f8e40f037da07ea77bc8bf3c14b88ac", "addresses": ["1KzGWhtYZic5RbK6rs8tBa11XKGgmPQzkT"], "asm": "OP_DUP OP_HASH160 d046ec3e3d472f8e40f037da07ea77bc8bf3c14b OP_EQUALVERIFY OP_CHECKSIG", "type": "pubkeyhash"}, "value": 0.0003855, "n": 7}, {"scriptPubKey": {"reqSigs": 1, "hex": "a91473dc10f978c78053ad905841e671d314bdf4c8a587", "addresses": ["3CFdG5Z1WNuQQyETJtbtspTx1YEEBusQ5v"], "asm": "OP_HASH160 73dc10f978c78053ad905841e671d314bdf4c8a5 OP_EQUAL", "type": "scripthash"}, "value": 0.0019266, "n": 8}, {"scriptPubKey": {"reqSigs": 1, "hex": "a914585a089f9f7594d49f41ab7d26bfbc552ad8fa8a87", "addresses": ["39kBF5JUupp94Nv1UE51rqKxmofL7KVAk4"], "asm": "OP_HASH160 585a089f9f7594d49f41ab7d26bfbc552ad8fa8a OP_EQUAL", "type": "scripthash"}, "value": 0.01068655, "n": 9}, {"scriptPubKey": {"reqSigs": 1, "hex": "a914f6184fe5b3cddde4e7a256cbf086914fce2207d987", "addresses": ["3Q8FGy7Wxd8Nt6HMveaoLPkdRwN9HLohfh"], "asm": "OP_HASH160 f6184fe5b3cddde4e7a256cbf086914fce2207d9 OP_EQUAL", "type": "scripthash"}, "value": 0.001614, "n": 10}, {"scriptPubKey": {"reqSigs": 1, "hex": "a914f3602d8e091c4996fea44232170bcf56091ffc2787", "addresses": ["3PssLigs9TVk4t1q5aoqVWzSdL7oPbrQpa"], "asm": "OP_HASH160 f3602d8e091c4996fea44232170bcf56091ffc27 OP_EQUAL", "type": "scripthash"}, "value": 0.00191, "n": 11}, {"scriptPubKey": {"reqSigs": 1, "hex": "a91474af390e74137617ae3519b48af04841005c9d6b87", "addresses": ["3CKzDVfRrs5haNapNczra3g1F24WofPqir"], "asm": "OP_HASH160 74af390e74137617ae3519b48af04841005c9d6b OP_EQUAL", "type": "scripthash"}, "value": 0.00217432, "n": 12}, {"scriptPubKey": {"reqSigs": 1, "hex": "a9142e3c5daa3660fa673522f9ab80481b7a859dffa687", "addresses": ["35uVKfPeWwBa5PgJo4qKd9wj6e7WESSke8"], "asm": "OP_HASH160 2e3c5daa3660fa673522f9ab80481b7a859dffa6 OP_EQUAL", "type": "scripthash"}, "value": 0.0030282, "n": 13}, {"scriptPubKey": {"reqSigs": 1, "hex": "a9140f4145167ba10003dc11c0cb20851306c5a10ce887", "addresses": ["335gFT9Ng3bLciT1vk3uocLBJKwopwyJPm"], "asm": "OP_HASH160 0f4145167ba10003dc11c0cb20851306c5a10ce8 OP_EQUAL", "type": "scripthash"}, "value": 0.00687681, "n": 14}, {"scriptPubKey": {"reqSigs": 1, "hex": "a914af13022f77f7c33d1d74bcf3f8ff89d93d60f7e987", "addresses": ["3HeiwrGtsuS54RzwKW9iRzQDTLxRK5SRiG"], "asm": "OP_HASH160 af13022f77f7c33d1d74bcf3f8ff89d93d60f7e9 OP_EQUAL", "type": "scripthash"}, "value": 0.00572503, "n": 15}, {"scriptPubKey": {"reqSigs": 1, "hex": "a91452817e2bfbd3935ca025c1f05cb7184d14b6e80487", "addresses": ["39DGTbVBM7srtEAX4ENH4jADoLCjwgJCNv"], "asm": "OP_HASH160 52817e2bfbd3935ca025c1f05cb7184d14b6e804 OP_EQUAL", "type": "scripthash"}, "value": 0.00250449, "n": 16}, {"scriptPubKey": {"reqSigs": 1, "hex": "a914471ac03e05af1bf3e3ae393dd8ef054bafce7c8187", "addresses": ["38AywrNZVJWuxRPXxBnTpgjDqBqtFfRuhp"], "asm": "OP_HASH160 471ac03e05af1bf3e3ae393dd8ef054bafce7c81 OP_EQUAL", "type": "scripthash"}, "value": 0.00685926, "n": 17}, {"scriptPubKey": {"reqSigs": 1, "hex": "a914277f076326da4b2e410480a2bbb390b27f26a2d587", "addresses": ["35HrT9MUhd5qd4dK6uR7tGnGBaNksUgaJf"], "asm": "OP_HASH160 277f076326da4b2e410480a2bbb390b27f26a2d5 OP_EQUAL", "type": "scripthash"}, "value": 0.0047576, "n": 18}, {"scriptPubKey": {"reqSigs": 1, "hex": "a914b3e384432d53fbd3ad0d19e499dfbf28d27ad1a387", "addresses": ["3J6BS1qzGwgKoTN6Pz1WoA3uXtSXthzwqE"], "asm": "OP_HASH160 b3e384432d53fbd3ad0d19e499dfbf28d27ad1a3 OP_EQUAL", "type": "scripthash"}, "value": 0.01130085, "n": 19}, {"scriptPubKey": {"reqSigs": 1, "hex": "a91492e767d787c4b7dc92b3e40e822f57af00d9726c87", "addresses": ["3F5mntw7RWt7ACHn6gYvVWSzGPXswyCgNe"], "asm": "OP_HASH160 92e767d787c4b7dc92b3e40e822f57af00d9726c OP_EQUAL", "type": "scripthash"}, "value": 0.0199501, "n": 20}, {"scriptPubKey": {"reqSigs": 1, "hex": "a9143f22719ce5047a0253256bdfeb78e598259f36ab87", "addresses": ["37SqkpspbLGp4qXVCDp1f9VK3fGMsAkUiq"], "asm": "OP_HASH160 3f22719ce5047a0253256bdfeb78e598259f36ab OP_EQUAL", "type": "scripthash"}, "value": 0.00303995, "n": 21}, {"scriptPubKey": {"reqSigs": 1, "hex": "a914135242fe3d9002ed0f85599eea5bb560783f649b87", "addresses": ["33TBJqA2iZany5C4SqwMNX8EaHBXDbeRn8"], "asm": "OP_HASH160 135242fe3d9002ed0f85599eea5bb560783f649b OP_EQUAL", "type": "scripthash"}, "value": 0.0021485, "n": 22}, {"scriptPubKey": {"reqSigs": 1, "hex": "a914b85cb4adb05ef4ae8e63fe63b4e720cc8bfead9087", "addresses": ["3JVqK9hM81EUKXb5C1AHK4hD7Jv7uaPSyR"], "asm": "OP_HASH160 b85cb4adb05ef4ae8e63fe63b4e720cc8bfead90 OP_EQUAL", "type": "scripthash"}, "value": 0.0021396, "n": 23}, {"scriptPubKey": {"reqSigs": 1, "hex": "76a91421a8a66c0b19a9a1e52fef32f337feea26e0a65188ac", "addresses": ["144yLLwbuHC7opsvFNbQNNhxfuyqwhaMCs"], "asm": "OP_DUP OP_HASH160 21a8a66c0b19a9a1e52fef32f337feea26e0a651 OP_EQUALVERIFY OP_CHECKSIG", "type": "pubkeyhash"}, "value": 0.011039, "n": 24}, {"scriptPubKey": {"reqSigs": 1, "hex": "a914e178590781b748509b7b463707431a0e4d0bea0387", "addresses": ["3NFC8ce9T1jArq2ShCQ8HP6ErCmkvrrQpg"], "asm": "OP_HASH160 e178590781b748509b7b463707431a0e4d0bea03 OP_EQUAL", "type": "scripthash"}, "value": 0.00247294, "n": 25}, {"scriptPubKey": {"reqSigs": 1, "hex": "76a91450669596ed6027f836642fa7bae8e4fa2cec622188ac", "addresses": ["18L7x2o49AsN5XrUgxyA5juyujqAPSULhr"], "asm": "OP_DUP OP_HASH160 50669596ed6027f836642fa7bae8e4fa2cec6221 OP_EQUALVERIFY OP_CHECKSIG", "type": "pubkeyhash"}, "value": 0.00731988, "n": 26}, {"scriptPubKey": {"reqSigs": 1, "hex": "a9145e3026da1ba3da07e05a8eca0f1285fd9125f3ce87", "addresses": ["3AH38DfS3ho4y3DDGF78723R4QnAMJW3MZ"], "asm": "OP_HASH160 5e3026da1ba3da07e05a8eca0f1285fd9125f3ce OP_EQUAL", "type": "scripthash"}, "value": 0.00338249, "n": 27}, {"scriptPubKey": {"reqSigs": 1, "hex": "a914caf67d2029f8d0f14aad5cedf6f30194de429fbd87", "addresses": ["3LCBhdhmNNqzp8HbQRskf6GRMHwxunXBDD"], "asm": "OP_HASH160 caf67d2029f8d0f14aad5cedf6f30194de429fbd OP_EQUAL", "type": "scripthash"}, "value": 0.00051446, "n": 28}, {"scriptPubKey": {"reqSigs": 1, "hex": "a914923730e495a5ef5d3182809a6586bf95b5c341ac87", "addresses": ["3F28hHfJJAZDQDGzZfLwEJrL6CmGJHc5ej"], "asm": "OP_HASH160 923730e495a5ef5d3182809a6586bf95b5c341ac OP_EQUAL", "type": "scripthash"}, "value": 0.00981835, "n": 29}, {"scriptPubKey": {"reqSigs": 1, "hex": "76a914a444457aefd11c2f36c1be1a384a6f02b03a79ee88ac", "addresses": ["1FyZc3My9UGyohgVahdesSU5zaygL7SATP"], "asm": "OP_DUP OP_HASH160 a444457aefd11c2f36c1be1a384a6f02b03a79ee OP_EQUALVERIFY OP_CHECKSIG", "type": "pubkeyhash"}, "value": 0.02306602, "n": 30}, {"scriptPubKey": {"reqSigs": 1, "hex": "76a9149fc6d14ae0bfafd1f903365a25e54dc23c79c32588ac", "addresses": ["1FZpcb212Qsg6dujp76nFUK462qwCh4DHh"], "asm": "OP_DUP OP_HASH160 9fc6d14ae0bfafd1f903365a25e54dc23c79c325 OP_EQUALVERIFY OP_CHECKSIG", "type": "pubkeyhash"}, "value": 0.0245, "n": 31}, {"scriptPubKey": {"reqSigs": 1, "hex": "76a91473dd266b3f144c51e6141341a03e6a03b92847cf88ac", "addresses": ["1BZddqYixdwN3qJZ45qKD2PtHkQ1mbAbu6"], "asm": "OP_DUP OP_HASH160 73dd266b3f144c51e6141341a03e6a03b92847cf OP_EQUALVERIFY OP_CHECKSIG", "type": "pubkeyhash"}, "value": 0.00828838, "n": 32}, {"scriptPubKey": {"reqSigs": 1, "hex": "a914f530b2c32d76952fcf3d62074beee3f49d0a27af87", "addresses": ["3Q3TpAAKuxpR9AuRJ6vW22i2qnsqYgGVqF"], "asm": "OP_HASH160 f530b2c32d76952fcf3d62074beee3f49d0a27af OP_EQUAL", "type": "scripthash"}, "value": 0.0025938, "n": 33}, {"scriptPubKey": {"reqSigs": 1, "hex": "a9141c9213fa2cf81ce629d30ce978e79dbe2ba7083287", "addresses": ["34J5qbTU8vWF7fHYrjZ5YhMrcUSbWtR4W2"], "asm": "OP_HASH160 1c9213fa2cf81ce629d30ce978e79dbe2ba70832 OP_EQUAL", "type": "scripthash"}, "value": 0.00437644, "n": 34}, {"scriptPubKey": {"reqSigs": 1, "hex": "a914558a8ec0cd987bfb4d26fb050b40f032e1ee913e87", "addresses": ["39VKM15gYp3yw2igFwfqcf9nWg67Hm55ww"], "asm": "OP_HASH160 558a8ec0cd987bfb4d26fb050b40f032e1ee913e OP_EQUAL", "type": "scripthash"}, "value": 0.00038588, "n": 35}, {"scriptPubKey": {"reqSigs": 1, "hex": "a914e4b5e95a700b5f5c41d5297582eff7683d842c6187", "addresses": ["3NYKuiVarrrxhiH2YLr2C7dCQ8EzU2dajS"], "asm": "OP_HASH160 e4b5e95a700b5f5c41d5297582eff7683d842c61 OP_EQUAL", "type": "scripthash"}, "value": 0.00410292, "n": 36}, {"scriptPubKey": {"reqSigs": 1, "hex": "a914e0175f25a5fbb1725d873af02d15f3eaa685002f87", "addresses": ["3N7uHQVBFfEMLWRG72fmMQ68aQno24Dabq"], "asm": "OP_HASH160 e0175f25a5fbb1725d873af02d15f3eaa685002f OP_EQUAL", "type": "scripthash"}, "value": 0.00337597, "n": 37}], "hex": "0200000000010145a34a57bbbc5af657f2b356cb5747511d3d5710977cb953d0442b77f3a0218d0000000017160014af8e82b8f899d867e9aeea681e7865b6590ac98bfeffffff2600093d000000000017a9142e0541f4dc414dd1bee548e8f27c942094743aa187316207000000000017a914e15b6c3b2b9b0d77cc85dea455facd0220c97fe287648804000000000017a914ad20b55bb4e4d87842e4a295a90b07af320e30f187a1ad07000000000017a914437ca52da42df759eefb35b7989896a135ee9232872952a8370000000017a914b27606f87bd6d7607d0d9fff3755d888f4ccedd6870e990f000000000017a914560d14be7d48cdce61d7446bb08e47cae703e2148765020500000000001976a91482659e9e7ab555ee65a397eca10155c840cb7e8a88ac96960000000000001976a914d046ec3e3d472f8e40f037da07ea77bc8bf3c14b88ac94f002000000000017a91473dc10f978c78053ad905841e671d314bdf4c8a5876f4e10000000000017a914585a089f9f7594d49f41ab7d26bfbc552ad8fa8a87787602000000000017a914f6184fe5b3cddde4e7a256cbf086914fce2207d98718ea02000000000017a914f3602d8e091c4996fea44232170bcf56091ffc2787585103000000000017a91474af390e74137617ae3519b48af04841005c9d6b87e49e04000000000017a9142e3c5daa3660fa673522f9ab80481b7a859dffa687417e0a000000000017a9140f4145167ba10003dc11c0cb20851306c5a10ce88757bc08000000000017a914af13022f77f7c33d1d74bcf3f8ff89d93d60f7e98751d203000000000017a91452817e2bfbd3935ca025c1f05cb7184d14b6e8048766770a000000000017a914471ac03e05af1bf3e3ae393dd8ef054bafce7c8187704207000000000017a914277f076326da4b2e410480a2bbb390b27f26a2d587653e11000000000017a914b3e384432d53fbd3ad0d19e499dfbf28d27ad1a38702711e000000000017a91492e767d787c4b7dc92b3e40e822f57af00d9726c877ba304000000000017a9143f22719ce5047a0253256bdfeb78e598259f36ab87424703000000000017a914135242fe3d9002ed0f85599eea5bb560783f649b87c84303000000000017a914b85cb4adb05ef4ae8e63fe63b4e720cc8bfead90871cd81000000000001976a91421a8a66c0b19a9a1e52fef32f337feea26e0a65188acfec503000000000017a914e178590781b748509b7b463707431a0e4d0bea0387542b0b00000000001976a91450669596ed6027f836642fa7bae8e4fa2cec622188ac492905000000000017a9145e3026da1ba3da07e05a8eca0f1285fd9125f3ce87f6c800000000000017a914caf67d2029f8d0f14aad5cedf6f30194de429fbd874bfb0e000000000017a914923730e495a5ef5d3182809a6586bf95b5c341ac872a322300000000001976a914a444457aefd11c2f36c1be1a384a6f02b03a79ee88ac50622500000000001976a9149fc6d14ae0bfafd1f903365a25e54dc23c79c32588aca6a50c00000000001976a91473dd266b3f144c51e6141341a03e6a03b92847cf88ac34f503000000000017a914f530b2c32d76952fcf3d62074beee3f49d0a27af878cad06000000000017a9141c9213fa2cf81ce629d30ce978e79dbe2ba7083287bc9600000000000017a914558a8ec0cd987bfb4d26fb050b40f032e1ee913e87b44206000000000017a914e4b5e95a700b5f5c41d5297582eff7683d842c6187bd2605000000000017a914e0175f25a5fbb1725d873af02d15f3eaa685002f870248304502210084074c4c78119ee8573d846798261b7a3538fd6dcb55aa1aa74d285614fe9c5c02201155c389a9b7e56e5a13232dba06b20ff64c5acfe2d6c0b7465ec55c323c1ea701210201f9dbfd13a9508cacfed6e16b5dbf26a6ff9efe788f0f586cb2d5d294eb77c316490800", "vin": [{"txinwitness": ["304502210084074c4c78119ee8573d846798261b7a3538fd6dcb55aa1aa74d285614fe9c5c02201155c389a9b7e56e5a13232dba06b20ff64c5acfe2d6c0b7465ec55c323c1ea701", "0201f9dbfd13a9508cacfed6e16b5dbf26a6ff9efe788f0f586cb2d5d294eb77c3"], "sequence": 4294967294, "scriptSig": {"hex": "160014af8e82b8f899d867e9aeea681e7865b6590ac98b", "asm": "0014af8e82b8f899d867e9aeea681e7865b6590ac98b"}, "vout": 0, "txid": "8d21a0f3772b44d053b97c9710573d1d514757cb56b3f257f65abcbb574aa345"}], "txid": "81824e766a9b78beea8751566c584abf2ede15f540e0c91c7350acabca7e4082", "blocktime": 1537875543, "version": 2, "confirmations": 11464, "time": 1537875543, "locktime": 542998, "vsize": 1332, "size": 1414}