{"hash": "5bc7553f807cdfbe55445a6ac7d974fabe0bfea8a734e19a622701deb7976a28", "blockhash": "00000000000000000004ffacab907a6b429b9a5745fa0b75af4234bf69dd7176", "vout": [{"scriptPubKey": {"reqSigs": 1, "hex": "a914674f76fc85e0abbea4b4a04281ac1b12b398780f87", "addresses": ["3B7GicVWVvwNHxQHHW8hndZmKwiu3nmiS4"], "asm": "OP_HASH160 674f76fc85e0abbea4b4a04281ac1b12b398780f OP_EQUAL", "type": "scripthash"}, "value": 0.00998482, "n": 0}, {"scriptPubKey": {"reqSigs": 1, "hex": "76a9144733f4edccf92dbde9eb0bfefbea29b576d1c7d188ac", "addresses": ["17VVDe2rxbP2sBP7atLK9cesirFmAVz7CH"], "asm": "OP_DUP OP_HASH160 4733f4edccf92dbde9eb0bfefbea29b576d1c7d1 OP_EQUALVERIFY OP_CHECKSIG", "type": "pubkeyhash"}, "value": 0.0075939, "n": 1}], "hex": "02000000000101d43fe29a6ae9115b57396622266ab695f4264ed3f6f865ecb062e0d7f18ca1ca000000001716001490fa4397bde047e3a78bc6c4ed124f220b677c31feffffff02523c0f000000000017a914674f76fc85e0abbea4b4a04281ac1b12b398780f875e960b00000000001976a9144733f4edccf92dbde9eb0bfefbea29b576d1c7d188ac0247304402202da4e38a1911570658bfd2ed2b7550cf272afa57fe39dc258088d8edfabb8e87022058296bee418b0da50562c8e89a8eb39ee30254439842678b5c0291daa9bcbc67012102167085f914120bdac3094f53322ff975f026c1ba5c8c5d853a2245810c1ef23516490800", "vin": [{"txinwitness": ["304402202da4e38a1911570658bfd2ed2b7550cf272afa57fe39dc258088d8edfabb8e87022058296bee418b0da50562c8e89a8eb39ee30254439842678b5c0291daa9bcbc6701", "02167085f914120bdac3094f53322ff975f026c1ba5c8c5d853a2245810c1ef235"], "sequence": 4294967294, "scriptSig": {"hex": "16001490fa4397bde047e3a78bc6c4ed124f220b677c31", "asm": "001490fa4397bde047e3a78bc6c4ed124f220b677c31"}, "vout": 0, "txid": "caa18cf1d7e062b0ec65f8f6d34e26f495b66a26226639575b11e96a9ae23fd4"}], "txid": "8187fba7c322f7196c55edddd43dc781cca0eda35db7c57dd531713edfa32edb", "blocktime": 1537875543, "version": 2, "confirmations": 11464, "time": 1537875543, "locktime": 542998, "vsize": 168, "size": 249}