{"hash": "d72caf5993dd1afc247a17e1fd24ad0f78e9cecaac379af0197778096129504c", "blockhash": "0000000000000000001cda96e906b7601b7a6fb1a3b62bca570a9e5d8f4b3de1", "vout": [{"scriptPubKey": {"reqSigs": 1, "hex": "76a9149c179493d7a797092c1f03ceeb3084e11871364b88ac", "addresses": ["1FELfKWZhJZsc7FBFKWqkPW6boi4zVPiSp"], "asm": "OP_DUP OP_HASH160 9c179493d7a797092c1f03ceeb3084e11871364b OP_EQUALVERIFY OP_CHECKSIG", "type": "pubkeyhash"}, "value": 0.051913, "n": 0}, {"scriptPubKey": {"reqSigs": 1, "hex": "a91415eb2a4cda66448c942f15983bb72ad7df548f6f87", "addresses": ["33guq92UMVX6TBMRdcfP8z6DQPjC4k6ABb"], "asm": "OP_HASH160 15eb2a4cda66448c942f15983bb72ad7df548f6f OP_EQUAL", "type": "scripthash"}, "value": 0.01013474, "n": 1}], "hex": "0200000000010318e94062e28975ef93e5e57835dff92a23b74d71a0be9031c5510ea03811325a0700000017160014d76142fa82a3b1016706c356c10b283946b31fb8feffffffc198f7822279d611d6f008c4317f3673c88bdcced18ed1c6330bb3e5d4e73d050000000017160014e249a91174563f12601925cd97668430a6e6089dfeffffffeaf6ae16e64234b45e2ca2b32d947ceb1dd8dda12137acf447762c4e8d4456d2010000001716001414086944a8cdc50fcadfe9ac209f25ab78e76816feffffff0284364f00000000001976a9149c179493d7a797092c1f03ceeb3084e11871364b88ace2760f000000000017a91415eb2a4cda66448c942f15983bb72ad7df548f6f8702483045022100f572e43157ab15deb896dfabe7c39401ec32f67cf99e54871f22c4eece790f0102200139ae9fc1a7b681cdb2ac97598ab604762e167a81016580bc04daf829dc5f8701210290345beb9297c33ec8ae3a6414d59fe72e8376b1771c2482a08a4f6fcbd8f58c0247304402204585983e81dfec560ef7c2ac5126e343998183d2b77aa98a7d5885d95198082e02204bc1a330a13c5d9d0ed37c38b9c2404daad23df531c789d4da4ae5cc765c9fa701210323c2ed6cc58938070ac043ebc56ca6903435f79cd325cee0f9969001776977eb0247304402207b0b406bfb0a1a05ffb7f8a6ca14d72ec1a8a140d8a92555dbb97ad0b5a0ce3502203a56b3951953d6ad9045e00e0c887914d27aac2638641243f9b497b5f2a1dc530121028d9b1888bcb8ddc196454ea505807209cce8dbbb6c0de684c5254ab11867a66d12490800", "vin": [{"txinwitness": ["3045022100f572e43157ab15deb896dfabe7c39401ec32f67cf99e54871f22c4eece790f0102200139ae9fc1a7b681cdb2ac97598ab604762e167a81016580bc04daf829dc5f8701", "0290345beb9297c33ec8ae3a6414d59fe72e8376b1771c2482a08a4f6fcbd8f58c"], "sequence": 4294967294, "scriptSig": {"hex": "160014d76142fa82a3b1016706c356c10b283946b31fb8", "asm": "0014d76142fa82a3b1016706c356c10b283946b31fb8"}, "vout": 7, "txid": "5a321138a00e51c53190bea0714db7232af9df3578e5e593ef7589e26240e918"}, {"txinwitness": ["304402204585983e81dfec560ef7c2ac5126e343998183d2b77aa98a7d5885d95198082e02204bc1a330a13c5d9d0ed37c38b9c2404daad23df531c789d4da4ae5cc765c9fa701", "0323c2ed6cc58938070ac043ebc56ca6903435f79cd325cee0f9969001776977eb"], "sequence": 4294967294, "scriptSig": {"hex": "160014e249a91174563f12601925cd97668430a6e6089d", "asm": "0014e249a91174563f12601925cd97668430a6e6089d"}, "vout": 0, "txid": "053de7d4e5b30b33c6d18ed1cedc8bc873367f31c408f0d611d6792282f798c1"}, {"txinwitness": ["304402207b0b406bfb0a1a05ffb7f8a6ca14d72ec1a8a140d8a92555dbb97ad0b5a0ce3502203a56b3951953d6ad9045e00e0c887914d27aac2638641243f9b497b5f2a1dc5301", "028d9b1888bcb8ddc196454ea505807209cce8dbbb6c0de684c5254ab11867a66d"], "sequence": 4294967294, "scriptSig": {"hex": "16001414086944a8cdc50fcadfe9ac209f25ab78e76816", "asm": "001414086944a8cdc50fcadfe9ac209f25ab78e76816"}, "vout": 1, "txid": "d256448d4e2c7647f4ac3721a1ddd81deb7c942db3a22c5eb43442e616aef6ea"}], "txid": "8189819ebab01b8c6276ae593d20eac08bda760952518eee98a385c61d90e1c2", "blocktime": 1537873282, "version": 2, "confirmations": 11485, "time": 1537873282, "locktime": 542994, "vsize": 349, "size": 592}