{"hash": "81941da83e1b2cc91791b65d54f6251b1c4059e1aa29de8f10de199088ff1e20", "blockhash": "00000000000000000024a2167bbff67b0be802c0b01cdd79e6331c2be6459f87", "vout": [{"scriptPubKey": {"reqSigs": 1, "hex": "a9145f24b57ae2e644425bdd49a5dfd8434829e9b1ee87", "addresses": ["3AN66M68wf74EPBwfJPUL2peDAGq59DkRr"], "asm": "OP_HASH160 5f24b57ae2e644425bdd49a5dfd8434829e9b1ee OP_EQUAL", "type": "scripthash"}, "value": 0.00879886, "n": 0}, {"scriptPubKey": {"reqSigs": 1, "hex": "76a914d19e94b00d93225c1cd28337535865b8fd2939f688ac", "addresses": ["1L7NCUsPYTDMTmtzzf1gXHGx1kV7prJgNV"], "asm": "OP_DUP OP_HASH160 d19e94b00d93225c1cd28337535865b8fd2939f6 OP_EQUALVERIFY OP_CHECKSIG", "type": "pubkeyhash"}, "value": 0.0099898, "n": 1}], "hex": "0100000001fb23f136eafa89d27c18323214d1dfb8741b58a22a3ba3d377966099b2274fb81a0000006b483045022100d09e41a960a203358bcccdd2529cde9164115bcbe03364aa9d10359f3d1cb3ac022058b9d0934ae6be715a631c2831b08c2d2848444223874c35fef883a4d8baffd4012103988c1e6c6f2dac08694708efd12063d8d24934cfa3ce69cc42db96d367cefd94ffffffff020e6d0d000000000017a9145f24b57ae2e644425bdd49a5dfd8434829e9b1ee87443e0f00000000001976a914d19e94b00d93225c1cd28337535865b8fd2939f688ac00000000", "vin": [{"sequence": 4294967295, "scriptSig": {"hex": "483045022100d09e41a960a203358bcccdd2529cde9164115bcbe03364aa9d10359f3d1cb3ac022058b9d0934ae6be715a631c2831b08c2d2848444223874c35fef883a4d8baffd4012103988c1e6c6f2dac08694708efd12063d8d24934cfa3ce69cc42db96d367cefd94", "asm": "3045022100d09e41a960a203358bcccdd2529cde9164115bcbe03364aa9d10359f3d1cb3ac022058b9d0934ae6be715a631c2831b08c2d2848444223874c35fef883a4d8baffd4[ALL] 03988c1e6c6f2dac08694708efd12063d8d24934cfa3ce69cc42db96d367cefd94"}, "vout": 26, "txid": "b84f27b299609677d3a33b2aa2581b74b8dfd1143232187cd289faea36f123fb"}], "txid": "81941da83e1b2cc91791b65d54f6251b1c4059e1aa29de8f10de199088ff1e20", "blocktime": 1537870564, "version": 1, "confirmations": 11515, "time": 1537870564, "locktime": 0, "vsize": 224, "size": 224}