{"hash": "81947dcf993dfd2d8e8fe378a303906f46df04a456e2379185709a3c2ede6b84", "blockhash": "00000000000000000017f5eb5941039fbcee6240d03bc1f2f8e35350df66a1d8", "vout": [{"scriptPubKey": {"type": "nulldata", "hex": "6a146f6d6e69000000000000001f000000c252e73ea9", "asm": "OP_RETURN 6f6d6e69000000000000001f000000c252e73ea9"}, "value": 0.0, "n": 0}, {"scriptPubKey": {"reqSigs": 1, "hex": "76a9145703921e0f41a59ee186c1cd942b52505eff633488ac", "addresses": ["18w64nsB797kyPty5sUY6fHrCZuVuzziE1"], "asm": "OP_DUP OP_HASH160 5703921e0f41a59ee186c1cd942b52505eff6334 OP_EQUALVERIFY OP_CHECKSIG", "type": "pubkeyhash"}, "value": 0.00499064, "n": 1}, {"scriptPubKey": {"reqSigs": 1, "hex": "76a914a25dec4d0011064ef106a983c39c7a540699f22088ac", "addresses": ["1FoWyxwPXuj4C6abqwhjDWdz6D4PZgYRjA"], "asm": "OP_DUP OP_HASH160 a25dec4d0011064ef106a983c39c7a540699f220 OP_EQUALVERIFY OP_CHECKSIG", "type": "pubkeyhash"}, "value": 5.46e-06, "n": 2}], "hex": "01000000013a4c1d798db6bc890731bb89fb16f82f1d6cbe6a01b7d47d30c65bc3d1988db3000000006b483045022100be9c0832c2990add1ce8788c78043d791d2e49cb4ad13d01cb5c15c5497b60d602207c770127d9e215299f1b79e42a4ca14ae0a7dad7d2c9b0953c3b11c17d03cb6e0121035567c0d2240b9c0a9a63cdb82199d8b271c37bbb3e0edff422a84f9b9ede928ffeffffff030000000000000000166a146f6d6e69000000000000001f000000c252e73ea9789d0700000000001976a9145703921e0f41a59ee186c1cd942b52505eff633488ac22020000000000001976a914a25dec4d0011064ef106a983c39c7a540699f22088ac15490800", "vin": [{"sequence": 4294967294, "scriptSig": {"hex": "483045022100be9c0832c2990add1ce8788c78043d791d2e49cb4ad13d01cb5c15c5497b60d602207c770127d9e215299f1b79e42a4ca14ae0a7dad7d2c9b0953c3b11c17d03cb6e0121035567c0d2240b9c0a9a63cdb82199d8b271c37bbb3e0edff422a84f9b9ede928f", "asm": "3045022100be9c0832c2990add1ce8788c78043d791d2e49cb4ad13d01cb5c15c5497b60d602207c770127d9e215299f1b79e42a4ca14ae0a7dad7d2c9b0953c3b11c17d03cb6e[ALL] 035567c0d2240b9c0a9a63cdb82199d8b271c37bbb3e0edff422a84f9b9ede928f"}, "vout": 0, "txid": "b38d98d1c35bc6307dd4b7016abe6c1d2ff816fb89bb310789bcb68d791d4c3a"}], "txid": "81947dcf993dfd2d8e8fe378a303906f46df04a456e2379185709a3c2ede6b84", "blocktime": 1537874412, "version": 1, "confirmations": 11468, "time": 1537874412, "locktime": 542997, "vsize": 257, "size": 257}