{"hash": "11e9d63351071f2eff067f14a01d14fb8aa431668ce45772f2eef61bfe4e9dea", "blockhash": "0000000000000000001f76057863aec43deb6fa401d9628bb513d65a8098bfab", "vout": [{"scriptPubKey": {"reqSigs": 1, "hex": "a914fc728ea480dab48de1e3896b2010998cde2e172187", "addresses": ["3QhqSTZ9yTeKbq7E3yUBRDfGXBK2WL5aS4"], "asm": "OP_HASH160 fc728ea480dab48de1e3896b2010998cde2e1721 OP_EQUAL", "type": "scripthash"}, "value": 0.00070378, "n": 0}, {"scriptPubKey": {"reqSigs": 1, "hex": "a91470fae1193b7adca73f8062df5a7c8e87bf9b6dd087", "addresses": ["3BzQ9RkQ9ufEAwVeanYqH7oCC9Yu4YYLUm"], "asm": "OP_HASH160 70fae1193b7adca73f8062df5a7c8e87bf9b6dd0 OP_EQUAL", "type": "scripthash"}, "value": 0.00858112, "n": 1}], "hex": "02000000000101f3da0c3b761c4d29663776958c775382c64bbb9bbde07cf7603cb21e29a2213201000000171600142c618c826adda17a18310916aff20f5baec8d632feffffff02ea1201000000000017a914fc728ea480dab48de1e3896b2010998cde2e17218700180d000000000017a91470fae1193b7adca73f8062df5a7c8e87bf9b6dd08702483045022100caf29abac67d2fcab5baaebdf11b19a4e3ceaba7652e169a3e898091a8d018ae0220262d88e05cd98167515818eb60afbae163695288884cf262b71542ed6e42473001210244cc7cdfdac32d02fdaff5bee1d5040c1cb863fb56906a86c0b1d340dc9c752114490800", "vin": [{"txinwitness": ["3045022100caf29abac67d2fcab5baaebdf11b19a4e3ceaba7652e169a3e898091a8d018ae0220262d88e05cd98167515818eb60afbae163695288884cf262b71542ed6e42473001", "0244cc7cdfdac32d02fdaff5bee1d5040c1cb863fb56906a86c0b1d340dc9c7521"], "sequence": 4294967294, "scriptSig": {"hex": "1600142c618c826adda17a18310916aff20f5baec8d632", "asm": "00142c618c826adda17a18310916aff20f5baec8d632"}, "vout": 1, "txid": "3221a2291eb23c60f77ce0bd9bbb4bc68253778c95763766294d1c763b0cdaf3"}], "txid": "81980a53f7ea9138772afe041ee0c0ae12f60d5a1b0755904ebd49acba9b5b3d", "blocktime": 1537873891, "version": 2, "confirmations": 11478, "time": 1537873891, "locktime": 542996, "vsize": 166, "size": 248}