{"hash": "b176f260e291b1afe2575c676b17856d068259d0a47b5f3ac65090018a79f3b4", "blockhash": "0000000000000000001cda96e906b7601b7a6fb1a3b62bca570a9e5d8f4b3de1", "vout": [{"scriptPubKey": {"reqSigs": 1, "hex": "a914d20603a3a698f1211bc57c800a4c04afa6de2eb887", "addresses": ["3LqX2hjmfc9pW7LoGHa1A5QkxsN7A2uLyh"], "asm": "OP_HASH160 d20603a3a698f1211bc57c800a4c04afa6de2eb8 OP_EQUAL", "type": "scripthash"}, "value": 0.00024288, "n": 0}, {"scriptPubKey": {"reqSigs": 1, "hex": "a91457cf1628ef4b94dd6d721739361aef4263275f5487", "addresses": ["39hJnrou8FZbW2Cqip16LS5gVmASProL8b"], "asm": "OP_HASH160 57cf1628ef4b94dd6d721739361aef4263275f54 OP_EQUAL", "type": "scripthash"}, "value": 0.01067279, "n": 1}], "hex": "020000000001013bb154883234772f7fe7a12aca0da160d11d4da115dd16bb7ac1048ef19bde95000000001716001411f490adff0e4f4253ed9d9128424bf1afbe07c4feffffff02e05e00000000000017a914d20603a3a698f1211bc57c800a4c04afa6de2eb8870f4910000000000017a91457cf1628ef4b94dd6d721739361aef4263275f548702483045022100ed31e2cebe31f92ed308bf92506e1ed45429b67ebf78f31d68e5440e42eefb2102206e0ce4cd389d0da2b50b44c922e9ca739badca9e8e337e305d2d857e7c6b30ab012102f1c56e8958a8d14d08e4b55ac8e7720b4238964a9179b540ff26bb93ea82c9dc13490800", "vin": [{"txinwitness": ["3045022100ed31e2cebe31f92ed308bf92506e1ed45429b67ebf78f31d68e5440e42eefb2102206e0ce4cd389d0da2b50b44c922e9ca739badca9e8e337e305d2d857e7c6b30ab01", "02f1c56e8958a8d14d08e4b55ac8e7720b4238964a9179b540ff26bb93ea82c9dc"], "sequence": 4294967294, "scriptSig": {"hex": "16001411f490adff0e4f4253ed9d9128424bf1afbe07c4", "asm": "001411f490adff0e4f4253ed9d9128424bf1afbe07c4"}, "vout": 0, "txid": "95de9bf18e04c17abb16dd15a14d1dd160a10dca2aa1e77f2f7734328854b13b"}], "txid": "81980d9a0e6fed822056070ebd46b5c191e2183aa77a09a6be06a10858c29d60", "blocktime": 1537873282, "version": 2, "confirmations": 11485, "time": 1537873282, "locktime": 542995, "vsize": 166, "size": 248}