{"hash": "81a32b27a952a660a8fcee7362e7884df10c91cbedeed4bf30349d33515713ac", "blockhash": "0000000000000000000baef3f32e3676a92c3b2e5da21b426e4f302fc371ce76", "vout": [{"scriptPubKey": {"reqSigs": 1, "hex": "76a91419d9c0e24eb673df313247f2b765cbb831519d9388ac", "addresses": ["13Mgka7cJt5xRKUngwHeFqJRQFd6kSc7M1"], "asm": "OP_DUP OP_HASH160 19d9c0e24eb673df313247f2b765cbb831519d93 OP_EQUALVERIFY OP_CHECKSIG", "type": "pubkeyhash"}, "value": 0.00624345, "n": 0}, {"scriptPubKey": {"reqSigs": 1, "hex": "76a9144309f3b35a398f6cca5ff1ef4c8b3bc57f5bbf1088ac", "addresses": ["177UCKwmVsKNjXnZ8t9yUn9mXyVcMZ1Uad"], "asm": "OP_DUP OP_HASH160 4309f3b35a398f6cca5ff1ef4c8b3bc57f5bbf10 OP_EQUALVERIFY OP_CHECKSIG", "type": "pubkeyhash"}, "value": 0.05256977, "n": 1}], "hex": "010000000120628ce59b851688414ecc3abf9c3a324a6e906c9bc5e61f6d28bad1d06198b5010000006a473044022004f7de8caeb36b82097c5d0f76f8880fae9837fcfb2c51e30b7e42e28b4c3773022033435331c501a0990568ed15b44db930eefbcd73d2e8a0762ad38ae91291baee0121023c4f1fffe0ea5d40c92f0f21944dcb39095ca03fd72a9a7d0af76c8c32561d63ffffffff02d9860900000000001976a91419d9c0e24eb673df313247f2b765cbb831519d9388ac11375000000000001976a9144309f3b35a398f6cca5ff1ef4c8b3bc57f5bbf1088ac00000000", "vin": [{"sequence": 4294967295, "scriptSig": {"hex": "473044022004f7de8caeb36b82097c5d0f76f8880fae9837fcfb2c51e30b7e42e28b4c3773022033435331c501a0990568ed15b44db930eefbcd73d2e8a0762ad38ae91291baee0121023c4f1fffe0ea5d40c92f0f21944dcb39095ca03fd72a9a7d0af76c8c32561d63", "asm": "3044022004f7de8caeb36b82097c5d0f76f8880fae9837fcfb2c51e30b7e42e28b4c3773022033435331c501a0990568ed15b44db930eefbcd73d2e8a0762ad38ae91291baee[ALL] 023c4f1fffe0ea5d40c92f0f21944dcb39095ca03fd72a9a7d0af76c8c32561d63"}, "vout": 1, "txid": "b59861d0d1ba286d1fe6c59b6c906e4a323a9cbf3acc4e418816859be58c6220"}], "txid": "81a32b27a952a660a8fcee7362e7884df10c91cbedeed4bf30349d33515713ac", "blocktime": 1537876114, "version": 1, "confirmations": 11460, "time": 1537876114, "locktime": 0, "vsize": 225, "size": 225}