{"hash": "81a32d540ad6651aa3822d976331ce754187fe72011b02a453f48f613d1f1a4e", "blockhash": "00000000000000000017f5eb5941039fbcee6240d03bc1f2f8e35350df66a1d8", "vout": [{"scriptPubKey": {"reqSigs": 1, "hex": "a91476233218b2fc90356767ab9ba1c5a403b4070ab387", "addresses": ["3CTfpcrx135JHcXWb9H7HXRLswLUZDUNCR"], "asm": "OP_HASH160 76233218b2fc90356767ab9ba1c5a403b4070ab3 OP_EQUAL", "type": "scripthash"}, "value": 0.00113758, "n": 0}, {"scriptPubKey": {"reqSigs": 1, "hex": "76a9148b15e5c97ca2a5e6f42b51d48a327af4a37d012488ac", "addresses": ["1DgRA8w1e5eHAiFcQcoZAT35TotMpLrUem"], "asm": "OP_DUP OP_HASH160 8b15e5c97ca2a5e6f42b51d48a327af4a37d0124 OP_EQUALVERIFY OP_CHECKSIG", "type": "pubkeyhash"}, "value": 0.00419585, "n": 1}], "hex": "0100000001f62be73b189e5534503b0e44949bcb80b461b33a89c3c92dd6cd4607d95e73f7010000006a47304402200110d86c34913f6b561bfaaf3468dd53d0653cc33de2c42892b97a9c7358259902202cc7053d589ac09c9e84cb9d5d9f5eeab437de45d381ecd0b65710daa67caae201210306026c3b601f2e7d8db67cf834f6e22ddf003e2afca5604bcbbbd4b904b4fdb4ffffffff025ebc01000000000017a91476233218b2fc90356767ab9ba1c5a403b4070ab38701670600000000001976a9148b15e5c97ca2a5e6f42b51d48a327af4a37d012488ac00000000", "vin": [{"sequence": 4294967295, "scriptSig": {"hex": "47304402200110d86c34913f6b561bfaaf3468dd53d0653cc33de2c42892b97a9c7358259902202cc7053d589ac09c9e84cb9d5d9f5eeab437de45d381ecd0b65710daa67caae201210306026c3b601f2e7d8db67cf834f6e22ddf003e2afca5604bcbbbd4b904b4fdb4", "asm": "304402200110d86c34913f6b561bfaaf3468dd53d0653cc33de2c42892b97a9c7358259902202cc7053d589ac09c9e84cb9d5d9f5eeab437de45d381ecd0b65710daa67caae2[ALL] 0306026c3b601f2e7d8db67cf834f6e22ddf003e2afca5604bcbbbd4b904b4fdb4"}, "vout": 1, "txid": "f7735ed90746cdd62dc9c3893ab361b480cb9b94440e3b5034559e183be72bf6"}], "txid": "81a32d540ad6651aa3822d976331ce754187fe72011b02a453f48f613d1f1a4e", "blocktime": 1537874412, "version": 1, "confirmations": 11466, "time": 1537874412, "locktime": 0, "vsize": 223, "size": 223}