{"hash": "81a7fc623633bf3e2bf1c982877ecc0a64b86134ce1c53f8f355d9720d4a3308", "blockhash": "000000000000000000022b45ed06c6f4ccd3cf7fb5ba4856ebd2e58215665228", "vout": [{"scriptPubKey": {"reqSigs": 1, "hex": "76a91452ab0084039cd76c5ac9b3e0b58a6724dae47ed888ac", "addresses": ["18Y7GABgir2VC6VaYJiYz9zAb5Srr1odwr"], "asm": "OP_DUP OP_HASH160 52ab0084039cd76c5ac9b3e0b58a6724dae47ed8 OP_EQUALVERIFY OP_CHECKSIG", "type": "pubkeyhash"}, "value": 0.00156444, "n": 0}, {"scriptPubKey": {"type": "nulldata", "hex": "6a4c5000007766000164a4edbeb4bc70a9238af0a086aeaeacb577c031fc3a016b46dc7dc7d096cd221468efcb3c4bbb0087076dd5c5575baa08190612ee9c03631966bc9a9526289ac0f6612cd74e33776ee4", "asm": "OP_RETURN 00007766000164a4edbeb4bc70a9238af0a086aeaeacb577c031fc3a016b46dc7dc7d096cd221468efcb3c4bbb0087076dd5c5575baa08190612ee9c03631966bc9a9526289ac0f6612cd74e33776ee4"}, "value": 0.0, "n": 1}], "hex": "0100000001bf0f7a0d8f65d30ef2b17c4d2685a5c2e9b5de47819274ff0977ea411efa2e0f000000006b483045022100f470ef4953afbe1bdee947db0ce5b23f863fa1abf529c9cfe8e34b1a1649695402203c8aebaf1271c338dde37d6d41fb8bdfa241b8c148abcacb47c0f8837533865f0121021e1518bcca2eeaf9565f74a880d0bff51b09640452eb562007c866e4196e2473ffffffff021c630200000000001976a91452ab0084039cd76c5ac9b3e0b58a6724dae47ed888ac0000000000000000536a4c5000007766000164a4edbeb4bc70a9238af0a086aeaeacb577c031fc3a016b46dc7dc7d096cd221468efcb3c4bbb0087076dd5c5575baa08190612ee9c03631966bc9a9526289ac0f6612cd74e33776ee400000000", "vin": [{"sequence": 4294967295, "scriptSig": {"hex": "483045022100f470ef4953afbe1bdee947db0ce5b23f863fa1abf529c9cfe8e34b1a1649695402203c8aebaf1271c338dde37d6d41fb8bdfa241b8c148abcacb47c0f8837533865f0121021e1518bcca2eeaf9565f74a880d0bff51b09640452eb562007c866e4196e2473", "asm": "3045022100f470ef4953afbe1bdee947db0ce5b23f863fa1abf529c9cfe8e34b1a1649695402203c8aebaf1271c338dde37d6d41fb8bdfa241b8c148abcacb47c0f8837533865f[ALL] 021e1518bcca2eeaf9565f74a880d0bff51b09640452eb562007c866e4196e2473"}, "vout": 0, "txid": "0f2efa1e41ea7709ff74928147deb5e9c2a585264d7cb1f20ed3658f0d7a0fbf"}], "txid": "81a7fc623633bf3e2bf1c982877ecc0a64b86134ce1c53f8f355d9720d4a3308", "blocktime": 1537869901, "version": 1, "confirmations": 11523, "time": 1537869901, "locktime": 0, "vsize": 284, "size": 284}