{"hash": "81a9ee4e40d015e8e15e7ca33cba298b02fca7238a8d9546a660ba541e9798b9", "blockhash": "0000000000000000001e0dab787dd257d1dbfcb92a98c2207d5e1078be1f4165", "vout": [{"scriptPubKey": {"reqSigs": 1, "hex": "76a91426f0ad9ab5cd437a90f705a1bb662b07b8825d2c88ac", "addresses": ["14YtzuCgg2QDgGyz13ipJ2pjbK9x8Cfff8"], "asm": "OP_DUP OP_HASH160 26f0ad9ab5cd437a90f705a1bb662b07b8825d2c OP_EQUALVERIFY OP_CHECKSIG", "type": "pubkeyhash"}, "value": 0.00026871, "n": 0}, {"scriptPubKey": {"reqSigs": 1, "hex": "76a914f71db9bf0ef70a9339234d512509ac970b1227c588ac", "addresses": ["1PXdWkZUtXv42wYVsTFf8t3r61kx7SsGBb"], "asm": "OP_DUP OP_HASH160 f71db9bf0ef70a9339234d512509ac970b1227c5 OP_EQUALVERIFY OP_CHECKSIG", "type": "pubkeyhash"}, "value": 0.02593754, "n": 1}], "hex": "02000000015c4d88aa14bf2e1c08a88d705c73c93f5c382cd204a85293bc1be89d97edd539010000006a47304402205d3d381b5c0f6e93b7d7e3bde283c94ef9dc9bd9609d806ed2495e9a5ea38e3002207188044768bc6848de46a1cf1317bf76545b5a9e4ffa92bbf1c53bcde5557ffe0121037b0f4accc4f5d3bcaf338aa9359dc181515b7bac7ed463a3e29525444e5209acffffffff02f7680000000000001976a91426f0ad9ab5cd437a90f705a1bb662b07b8825d2c88acda932700000000001976a914f71db9bf0ef70a9339234d512509ac970b1227c588ac00000000", "vin": [{"sequence": 4294967295, "scriptSig": {"hex": "47304402205d3d381b5c0f6e93b7d7e3bde283c94ef9dc9bd9609d806ed2495e9a5ea38e3002207188044768bc6848de46a1cf1317bf76545b5a9e4ffa92bbf1c53bcde5557ffe0121037b0f4accc4f5d3bcaf338aa9359dc181515b7bac7ed463a3e29525444e5209ac", "asm": "304402205d3d381b5c0f6e93b7d7e3bde283c94ef9dc9bd9609d806ed2495e9a5ea38e3002207188044768bc6848de46a1cf1317bf76545b5a9e4ffa92bbf1c53bcde5557ffe[ALL] 037b0f4accc4f5d3bcaf338aa9359dc181515b7bac7ed463a3e29525444e5209ac"}, "vout": 1, "txid": "39d5ed979de81bbc9352a804d22c385c3fc9735c708da8081c2ebf14aa884d5c"}], "txid": "81a9ee4e40d015e8e15e7ca33cba298b02fca7238a8d9546a660ba541e9798b9", "blocktime": 1537872475, "version": 2, "confirmations": 11486, "time": 1537872475, "locktime": 0, "vsize": 225, "size": 225}