{"hash": "02b664db586f13d4acaf81610e15b8eea4d338afb1857bc74d5577fc70a1b239", "blockhash": "0000000000000000000e13cef7c366c0283d82e591d1acd082e914b08063cdf1", "vout": [{"scriptPubKey": {"reqSigs": 1, "hex": "001480be06263328d42f1129505eb9e1d28c99cd69ac", "addresses": ["bc1qszlqvf3n9r2z7yff2p0tncwj3jvu66dvdsc0ak"], "asm": "0 80be06263328d42f1129505eb9e1d28c99cd69ac", "type": "witness_v0_keyhash"}, "value": 5.221e-05, "n": 0}, {"scriptPubKey": {"reqSigs": 1, "hex": "a91485cdee1f86328be1b1b0fc38ea6556bd22e6f00987", "addresses": ["3DtWVLT4T5sisqZ94NenMtLXj2YJkxZtTu"], "asm": "OP_HASH160 85cdee1f86328be1b1b0fc38ea6556bd22e6f009 OP_EQUAL", "type": "scripthash"}, "value": 0.00327738, "n": 1}], "hex": "01000000000101902709ea4b59ff318e7656101c1e083a9f72732f75e879dbee5f90d2cc34ca4b0000000000ffffffff02651400000000000016001480be06263328d42f1129505eb9e1d28c99cd69ac3a0005000000000017a91485cdee1f86328be1b1b0fc38ea6556bd22e6f0098702473044022034d336572f302457bee2c00052271af8ce8fc733202deff14fbd1f4b50ec518702206ab0fe6204fe7c2153014d346e2b27e3673793b3ac5d852e27a06dcbd4c231900121032c1958ca0e6145d010b8fcc5c23371d92495efa09a94ffedb423a8fca783c16800000000", "vin": [{"txinwitness": ["3044022034d336572f302457bee2c00052271af8ce8fc733202deff14fbd1f4b50ec518702206ab0fe6204fe7c2153014d346e2b27e3673793b3ac5d852e27a06dcbd4c2319001", "032c1958ca0e6145d010b8fcc5c23371d92495efa09a94ffedb423a8fca783c168"], "sequence": 4294967295, "scriptSig": {"hex": "", "asm": ""}, "vout": 0, "txid": "4bca34ccd2905feedb79e8752f73729f3a081e1c1056768e31ff594bea092790"}], "txid": "81ae3032c9971144d69dbce64f6d7cd7930e69a02949ca3da3c0dbe656d362a2", "blocktime": 1537871767, "version": 1, "confirmations": 11495, "time": 1537871767, "locktime": 0, "vsize": 142, "size": 223}