{"hash": "81afd437fa047f840e67d4701453119f5bb7f13fade6cafaba94010caa1b6579", "blockhash": "0000000000000000001cda96e906b7601b7a6fb1a3b62bca570a9e5d8f4b3de1", "vout": [{"scriptPubKey": {"reqSigs": 1, "hex": "76a9148dfce8435c81dbbb66ed0a601c5ec4444b176b5b88ac", "addresses": ["1DwmFMXF4LW3rmHEvMn73XvXPiZRCFKV8U"], "asm": "OP_DUP OP_HASH160 8dfce8435c81dbbb66ed0a601c5ec4444b176b5b OP_EQUALVERIFY OP_CHECKSIG", "type": "pubkeyhash"}, "value": 0.11, "n": 0}, {"scriptPubKey": {"reqSigs": 1, "hex": "76a914bae025140c454518b8cba0c25d45a6dc87f4b9ce88ac", "addresses": ["1J37CY8hcdUXQ1KfBhMCsUVafa8XjDsdCn"], "asm": "OP_DUP OP_HASH160 bae025140c454518b8cba0c25d45a6dc87f4b9ce OP_EQUALVERIFY OP_CHECKSIG", "type": "pubkeyhash"}, "value": 0.06439905, "n": 1}], "hex": "010000000a232088a05048948a4550089c1f2ccb5b4f3c881d939fd1e494456bbdbb6abe5d010000008b483045022100902138403826fceeda9cb8b44d617ec160507c942c4bfddfe96497bf2014997302206b45af51fa601beae90a930ae2e57e1e368c1cdf2b36480797b1dd5fb30ca6bd014104025a1cffe502a80dfa1f543ae14c082aff24d5ecadab160ca904d288eed8e3d8cacef0985f690868df4f416c3890909b4c0c843da153d41382ac20c80170240affffffff8740a68a7d5a3c1a8e629cc568bbf7900e5db38bf6ce7d97853ca8e76bf4f771010000008a4730440220279fb9ac9f67dfbc49fda41b921481d9f60e08d6fbc6b5f75daa83cd7b6ca4840220599b5d2ed35121bc0e89863c8da1b8e71ab55e2ea5e0190f85fcd9ce0d2de342014104025a1cffe502a80dfa1f543ae14c082aff24d5ecadab160ca904d288eed8e3d8cacef0985f690868df4f416c3890909b4c0c843da153d41382ac20c80170240affffffffd96915ff0dcab0a70d1ab9c1a3df2a6897492ed9ccf8736a667472905350c9fc010000008a473044022076f8b8c51e153d54ad75ea0239029496c99a32a810cae3c1c1131f9386df6d46022025fb20c0bb05614486a496ca618284d299405957085790c73c971fa004f4a614014104025a1cffe502a80dfa1f543ae14c082aff24d5ecadab160ca904d288eed8e3d8cacef0985f690868df4f416c3890909b4c0c843da153d41382ac20c80170240affffffffaf2f6389ad1d433d27d846e034342c3d69fe219aaa1e2351b53db4cf3120bccc010000008b48304502210095ae5b778d8ea158a0d4c430bb56ff1643c22a2067ea69a93cc50b9745e7ea08022027df105c3fdf4188e15debff25f229a6f441ef829ca48e9d4cfe9b2f0aff23bc014104025a1cffe502a80dfa1f543ae14c082aff24d5ecadab160ca904d288eed8e3d8cacef0985f690868df4f416c3890909b4c0c843da153d41382ac20c80170240affffffff1217d187a82067c5415329e9db4b35ac8b19b62e98ff546030a374e0a8502407010000008a47304402204ee998fb0306a7f3969d4f7f758041e29b3fd4bb07a14bc40f0d54e02a9e78d60220684a8a472f17878fa55e7c470751c00465153b9acc9d322d38d2736b23f01735014104025a1cffe502a80dfa1f543ae14c082aff24d5ecadab160ca904d288eed8e3d8cacef0985f690868df4f416c3890909b4c0c843da153d41382ac20c80170240affffffff57035991de5a069c94bae3f71ac7a7f93b6f0f821e738becfcb2d18d9ab486ff010000008a47304402204d42be77aa295c395f049701b7d00b53c877503a8b2100dc3ea63e78d7b6266f02207142931e12beec0f7e2b7b0d17f1be7a35e2835a4ea716ee572cd78a2ddbf6b4014104025a1cffe502a80dfa1f543ae14c082aff24d5ecadab160ca904d288eed8e3d8cacef0985f690868df4f416c3890909b4c0c843da153d41382ac20c80170240affffffffc98ef15f188ef8894b0f4ba77e209334bd7a83bf0c242539af1657f56c13e5c6010000008a4730440220093d67753f089536bc0ab9e5e4858632bff787d11b55426017a534c4de1d65b9022044b6dbecb64e2be7dac56b065abeec9cf20c59c9fd52193581a888e23bba4dd9014104025a1cffe502a80dfa1f543ae14c082aff24d5ecadab160ca904d288eed8e3d8cacef0985f690868df4f416c3890909b4c0c843da153d41382ac20c80170240affffffff4cfb0115c7b18ae97035fb6ea7bbd7bdd082d64ca108f1c09a65e63d3f0a652c010000008a4730440220723f31b8adac344944a124c04d1960533f4b74fd3b088d722f3ed5687cb7f73602200e808effb93ceb759ba7e16a75b08ec00c7b24ae287820a98ce770dc35dd1799014104025a1cffe502a80dfa1f543ae14c082aff24d5ecadab160ca904d288eed8e3d8cacef0985f690868df4f416c3890909b4c0c843da153d41382ac20c80170240afffffffff8da117db1d99f490e909cb11385aa939580a36c9bd5aca3b69199990a255027010000008a473044022027b51dbb4a4d26c3df0babf1860fccc329b5327a928fe0cd7c3a405ba476180302206ca531cfabaf765884be72140aaf76151df77f6d81420658cce1612b44538937014104025a1cffe502a80dfa1f543ae14c082aff24d5ecadab160ca904d288eed8e3d8cacef0985f690868df4f416c3890909b4c0c843da153d41382ac20c80170240affffffff26714a4788b4d923ef1c802c7b702a5e9cb6f9a39a394cf80f990d7d435deaca010000008b48304502210092e7b1b6e47ba7d62247cfb8050647ec9f43db0476e17341b75044f507ae0221022039ed61fbaafda58cfd8dcede1c47db6773f016f33be7324dee6162cfd84aed7d014104025a1cffe502a80dfa1f543ae14c082aff24d5ecadab160ca904d288eed8e3d8cacef0985f690868df4f416c3890909b4c0c843da153d41382ac20c80170240affffffff02c0d8a700000000001976a9148dfce8435c81dbbb66ed0a601c5ec4444b176b5b88ace1436200000000001976a914bae025140c454518b8cba0c25d45a6dc87f4b9ce88ac00000000", "vin": [{"sequence": 4294967295, "scriptSig": {"hex": "483045022100902138403826fceeda9cb8b44d617ec160507c942c4bfddfe96497bf2014997302206b45af51fa601beae90a930ae2e57e1e368c1cdf2b36480797b1dd5fb30ca6bd014104025a1cffe502a80dfa1f543ae14c082aff24d5ecadab160ca904d288eed8e3d8cacef0985f690868df4f416c3890909b4c0c843da153d41382ac20c80170240a", "asm": "3045022100902138403826fceeda9cb8b44d617ec160507c942c4bfddfe96497bf2014997302206b45af51fa601beae90a930ae2e57e1e368c1cdf2b36480797b1dd5fb30ca6bd[ALL] 04025a1cffe502a80dfa1f543ae14c082aff24d5ecadab160ca904d288eed8e3d8cacef0985f690868df4f416c3890909b4c0c843da153d41382ac20c80170240a"}, "vout": 1, "txid": "5dbe6abbbd6b4594e4d19f931d883c4f5bcb2c1f9c0850458a944850a0882023"}, {"sequence": 4294967295, "scriptSig": {"hex": "4730440220279fb9ac9f67dfbc49fda41b921481d9f60e08d6fbc6b5f75daa83cd7b6ca4840220599b5d2ed35121bc0e89863c8da1b8e71ab55e2ea5e0190f85fcd9ce0d2de342014104025a1cffe502a80dfa1f543ae14c082aff24d5ecadab160ca904d288eed8e3d8cacef0985f690868df4f416c3890909b4c0c843da153d41382ac20c80170240a", "asm": "30440220279fb9ac9f67dfbc49fda41b921481d9f60e08d6fbc6b5f75daa83cd7b6ca4840220599b5d2ed35121bc0e89863c8da1b8e71ab55e2ea5e0190f85fcd9ce0d2de342[ALL] 04025a1cffe502a80dfa1f543ae14c082aff24d5ecadab160ca904d288eed8e3d8cacef0985f690868df4f416c3890909b4c0c843da153d41382ac20c80170240a"}, "vout": 1, "txid": "71f7f46be7a83c85977dcef68bb35d0e90f7bb68c59c628e1a3c5a7d8aa64087"}, {"sequence": 4294967295, "scriptSig": {"hex": "473044022076f8b8c51e153d54ad75ea0239029496c99a32a810cae3c1c1131f9386df6d46022025fb20c0bb05614486a496ca618284d299405957085790c73c971fa004f4a614014104025a1cffe502a80dfa1f543ae14c082aff24d5ecadab160ca904d288eed8e3d8cacef0985f690868df4f416c3890909b4c0c843da153d41382ac20c80170240a", "asm": "3044022076f8b8c51e153d54ad75ea0239029496c99a32a810cae3c1c1131f9386df6d46022025fb20c0bb05614486a496ca618284d299405957085790c73c971fa004f4a614[ALL] 04025a1cffe502a80dfa1f543ae14c082aff24d5ecadab160ca904d288eed8e3d8cacef0985f690868df4f416c3890909b4c0c843da153d41382ac20c80170240a"}, "vout": 1, "txid": "fcc95053907274666a73f8ccd92e4997682adfa3c1b91a0da7b0ca0dff1569d9"}, {"sequence": 4294967295, "scriptSig": {"hex": "48304502210095ae5b778d8ea158a0d4c430bb56ff1643c22a2067ea69a93cc50b9745e7ea08022027df105c3fdf4188e15debff25f229a6f441ef829ca48e9d4cfe9b2f0aff23bc014104025a1cffe502a80dfa1f543ae14c082aff24d5ecadab160ca904d288eed8e3d8cacef0985f690868df4f416c3890909b4c0c843da153d41382ac20c80170240a", "asm": "304502210095ae5b778d8ea158a0d4c430bb56ff1643c22a2067ea69a93cc50b9745e7ea08022027df105c3fdf4188e15debff25f229a6f441ef829ca48e9d4cfe9b2f0aff23bc[ALL] 04025a1cffe502a80dfa1f543ae14c082aff24d5ecadab160ca904d288eed8e3d8cacef0985f690868df4f416c3890909b4c0c843da153d41382ac20c80170240a"}, "vout": 1, "txid": "ccbc2031cfb43db551231eaa9a21fe693d2c3434e046d8273d431dad89632faf"}, {"sequence": 4294967295, "scriptSig": {"hex": "47304402204ee998fb0306a7f3969d4f7f758041e29b3fd4bb07a14bc40f0d54e02a9e78d60220684a8a472f17878fa55e7c470751c00465153b9acc9d322d38d2736b23f01735014104025a1cffe502a80dfa1f543ae14c082aff24d5ecadab160ca904d288eed8e3d8cacef0985f690868df4f416c3890909b4c0c843da153d41382ac20c80170240a", "asm": "304402204ee998fb0306a7f3969d4f7f758041e29b3fd4bb07a14bc40f0d54e02a9e78d60220684a8a472f17878fa55e7c470751c00465153b9acc9d322d38d2736b23f01735[ALL] 04025a1cffe502a80dfa1f543ae14c082aff24d5ecadab160ca904d288eed8e3d8cacef0985f690868df4f416c3890909b4c0c843da153d41382ac20c80170240a"}, "vout": 1, "txid": "072450a8e074a3306054ff982eb6198bac354bdbe9295341c56720a887d11712"}, {"sequence": 4294967295, "scriptSig": {"hex": "47304402204d42be77aa295c395f049701b7d00b53c877503a8b2100dc3ea63e78d7b6266f02207142931e12beec0f7e2b7b0d17f1be7a35e2835a4ea716ee572cd78a2ddbf6b4014104025a1cffe502a80dfa1f543ae14c082aff24d5ecadab160ca904d288eed8e3d8cacef0985f690868df4f416c3890909b4c0c843da153d41382ac20c80170240a", "asm": "304402204d42be77aa295c395f049701b7d00b53c877503a8b2100dc3ea63e78d7b6266f02207142931e12beec0f7e2b7b0d17f1be7a35e2835a4ea716ee572cd78a2ddbf6b4[ALL] 04025a1cffe502a80dfa1f543ae14c082aff24d5ecadab160ca904d288eed8e3d8cacef0985f690868df4f416c3890909b4c0c843da153d41382ac20c80170240a"}, "vout": 1, "txid": "ff86b49a8dd1b2fcec8b731e820f6f3bf9a7c71af7e3ba949c065ade91590357"}, {"sequence": 4294967295, "scriptSig": {"hex": "4730440220093d67753f089536bc0ab9e5e4858632bff787d11b55426017a534c4de1d65b9022044b6dbecb64e2be7dac56b065abeec9cf20c59c9fd52193581a888e23bba4dd9014104025a1cffe502a80dfa1f543ae14c082aff24d5ecadab160ca904d288eed8e3d8cacef0985f690868df4f416c3890909b4c0c843da153d41382ac20c80170240a", "asm": "30440220093d67753f089536bc0ab9e5e4858632bff787d11b55426017a534c4de1d65b9022044b6dbecb64e2be7dac56b065abeec9cf20c59c9fd52193581a888e23bba4dd9[ALL] 04025a1cffe502a80dfa1f543ae14c082aff24d5ecadab160ca904d288eed8e3d8cacef0985f690868df4f416c3890909b4c0c843da153d41382ac20c80170240a"}, "vout": 1, "txid": "c6e5136cf55716af3925240cbf837abd3493207ea74b0f4b89f88e185ff18ec9"}, {"sequence": 4294967295, "scriptSig": {"hex": "4730440220723f31b8adac344944a124c04d1960533f4b74fd3b088d722f3ed5687cb7f73602200e808effb93ceb759ba7e16a75b08ec00c7b24ae287820a98ce770dc35dd1799014104025a1cffe502a80dfa1f543ae14c082aff24d5ecadab160ca904d288eed8e3d8cacef0985f690868df4f416c3890909b4c0c843da153d41382ac20c80170240a", "asm": "30440220723f31b8adac344944a124c04d1960533f4b74fd3b088d722f3ed5687cb7f73602200e808effb93ceb759ba7e16a75b08ec00c7b24ae287820a98ce770dc35dd1799[ALL] 04025a1cffe502a80dfa1f543ae14c082aff24d5ecadab160ca904d288eed8e3d8cacef0985f690868df4f416c3890909b4c0c843da153d41382ac20c80170240a"}, "vout": 1, "txid": "2c650a3f3de6659ac0f108a14cd682d0bdd7bba76efb3570e98ab1c71501fb4c"}, {"sequence": 4294967295, "scriptSig": {"hex": "473044022027b51dbb4a4d26c3df0babf1860fccc329b5327a928fe0cd7c3a405ba476180302206ca531cfabaf765884be72140aaf76151df77f6d81420658cce1612b44538937014104025a1cffe502a80dfa1f543ae14c082aff24d5ecadab160ca904d288eed8e3d8cacef0985f690868df4f416c3890909b4c0c843da153d41382ac20c80170240a", "asm": "3044022027b51dbb4a4d26c3df0babf1860fccc329b5327a928fe0cd7c3a405ba476180302206ca531cfabaf765884be72140aaf76151df77f6d81420658cce1612b44538937[ALL] 04025a1cffe502a80dfa1f543ae14c082aff24d5ecadab160ca904d288eed8e3d8cacef0985f690868df4f416c3890909b4c0c843da153d41382ac20c80170240a"}, "vout": 1, "txid": "2750250a999991b6a3acd59b6ca3809593aa8513b19c900e499fd9b17d11daf8"}, {"sequence": 4294967295, "scriptSig": {"hex": "48304502210092e7b1b6e47ba7d62247cfb8050647ec9f43db0476e17341b75044f507ae0221022039ed61fbaafda58cfd8dcede1c47db6773f016f33be7324dee6162cfd84aed7d014104025a1cffe502a80dfa1f543ae14c082aff24d5ecadab160ca904d288eed8e3d8cacef0985f690868df4f416c3890909b4c0c843da153d41382ac20c80170240a", "asm": "304502210092e7b1b6e47ba7d62247cfb8050647ec9f43db0476e17341b75044f507ae0221022039ed61fbaafda58cfd8dcede1c47db6773f016f33be7324dee6162cfd84aed7d[ALL] 04025a1cffe502a80dfa1f543ae14c082aff24d5ecadab160ca904d288eed8e3d8cacef0985f690868df4f416c3890909b4c0c843da153d41382ac20c80170240a"}, "vout": 1, "txid": "caea5d437d0d990ff84c399aa3f9b69c5e2a707b2c801cef23d9b488474a7126"}], "txid": "81afd437fa047f840e67d4701453119f5bb7f13fade6cafaba94010caa1b6579", "blocktime": 1537873282, "version": 1, "confirmations": 11481, "time": 1537873282, "locktime": 0, "vsize": 1871, "size": 1871}