{"hash": "81b025cfd8b7edf84f55bdbb926e818675034c9cafd90203d84820dfc104201e", "blockhash": "0000000000000000001cda96e906b7601b7a6fb1a3b62bca570a9e5d8f4b3de1", "vout": [{"scriptPubKey": {"reqSigs": 1, "hex": "76a914d243e6abb9a60fbff430b421d2df4b7d59ec186088ac", "addresses": ["1LAnF8h3qMGx3TSwNUHVneBZUEpwE4gu3D"], "asm": "OP_DUP OP_HASH160 d243e6abb9a60fbff430b421d2df4b7d59ec1860 OP_EQUALVERIFY OP_CHECKSIG", "type": "pubkeyhash"}, "value": 5.64e-06, "n": 0}, {"scriptPubKey": {"reqSigs": 1, "hex": "76a9143851f34d13937b673a7d24a1950bb5b21ce94af388ac", "addresses": ["168o1kqNquEJeR9vosUB5fw4eAwcVAgh8P"], "asm": "OP_DUP OP_HASH160 3851f34d13937b673a7d24a1950bb5b21ce94af3 OP_EQUALVERIFY OP_CHECKSIG", "type": "pubkeyhash"}, "value": 5.46e-06, "n": 1}, {"scriptPubKey": {"type": "nulldata", "hex": "6a146f6d6e69000000000000001f00000054229baac0", "asm": "OP_RETURN 6f6d6e69000000000000001f00000054229baac0"}, "value": 0.0, "n": 2}], "hex": "0100000001497ea2b6d4b338246d2fe10d69b3d68d4947e43bb9154af81e82e939942a5159010000006b483045022100b6987516fd0ad1c04c03dc1216d2bc5b31915c11d651244e04d4331e2202e5490220184b2dd7b2d1074c05b6507a098f5ca7ff462a26fe2d588e2a3a90cdef3915e2012102d597573ff876bb7be5d0c6f0b9e442f0a53559e793ed75f2d6c172c6960d0d10ffffffff0334020000000000001976a914d243e6abb9a60fbff430b421d2df4b7d59ec186088ac22020000000000001976a9143851f34d13937b673a7d24a1950bb5b21ce94af388ac0000000000000000166a146f6d6e69000000000000001f00000054229baac000000000", "vin": [{"sequence": 4294967295, "scriptSig": {"hex": "483045022100b6987516fd0ad1c04c03dc1216d2bc5b31915c11d651244e04d4331e2202e5490220184b2dd7b2d1074c05b6507a098f5ca7ff462a26fe2d588e2a3a90cdef3915e2012102d597573ff876bb7be5d0c6f0b9e442f0a53559e793ed75f2d6c172c6960d0d10", "asm": "3045022100b6987516fd0ad1c04c03dc1216d2bc5b31915c11d651244e04d4331e2202e5490220184b2dd7b2d1074c05b6507a098f5ca7ff462a26fe2d588e2a3a90cdef3915e2[ALL] 02d597573ff876bb7be5d0c6f0b9e442f0a53559e793ed75f2d6c172c6960d0d10"}, "vout": 1, "txid": "59512a9439e9821ef84a15b93be447498dd6b3690de12f6d2438b3d4b6a27e49"}], "txid": "81b025cfd8b7edf84f55bdbb926e818675034c9cafd90203d84820dfc104201e", "blocktime": 1537873282, "version": 1, "confirmations": 11483, "time": 1537873282, "locktime": 0, "vsize": 257, "size": 257}