{"hash": "81b249c702ae462c0d4ceae5b4b0cf41cc825e0a3ad146e2cf3c1b2d4fc2913a", "blockhash": "0000000000000000001cda96e906b7601b7a6fb1a3b62bca570a9e5d8f4b3de1", "vout": [{"scriptPubKey": {"reqSigs": 1, "hex": "a9143ff179da77be4309ececb8ce47f1aa180be9798787", "addresses": ["37X7mg6tVGSXMRNcsWHNJUrg4QXGVNtSBT"], "asm": "OP_HASH160 3ff179da77be4309ececb8ce47f1aa180be97987 OP_EQUAL", "type": "scripthash"}, "value": 0.00153239, "n": 0}, {"scriptPubKey": {"reqSigs": 1, "hex": "76a914deab42c7017a725aa6be8d5f70ba04c49bbb632088ac", "addresses": ["1MJNAzvpkxgoFCvdoLK3HeNv9GJFBYhjtR"], "asm": "OP_DUP OP_HASH160 deab42c7017a725aa6be8d5f70ba04c49bbb6320 OP_EQUALVERIFY OP_CHECKSIG", "type": "pubkeyhash"}, "value": 8.33e-05, "n": 1}], "hex": "01000000026087ed03352ca6ef0ee957a40b272189bf7597b96f745f43ba8761946f29479700000000db00483045022100a13b53955b5043bdb49b3fe675481d4ef3bfd8ed09ca4058686d21d29bd1c51602207ad06010912a4ab9bd6623cb12cb79bf8ee78b1073a9b5b518de8deec1c4c00601483045022100ad849b3840b409e3fac7902b29db6b078891311e3f36a68a08140aa0f41ecb7702206615cacb0b73f1f6529628513a690671ec81226d468dad525578803c4d7fb9030147522102907a54bed8ad74b3f35638c60114ca240a308cb986f3f2f306178869a8880b6121030fb8bff3b8e874a57e54148b6750ef3032ba633f2f9d46f8051e2e9a971d549a52aeffffffff21372651264ae9f01bd900004f0934db7f73ae70f3abefb9ea21411b53dacc90010000006b483045022100f350d3bb39ce8f5416f8117721187f09433ba4afa681cba92a94b50a01d7eb890220540881e611caa51a5a768157ed8152a8936981e4fda010376069024a844611af012102385e65f587d9a663b8bc6f16f52da4c4271388d1649a5e1c629e47a71c684968ffffffff02975602000000000017a9143ff179da77be4309ececb8ce47f1aa180be97987878a200000000000001976a914deab42c7017a725aa6be8d5f70ba04c49bbb632088ac00000000", "vin": [{"sequence": 4294967295, "scriptSig": {"hex": "00483045022100a13b53955b5043bdb49b3fe675481d4ef3bfd8ed09ca4058686d21d29bd1c51602207ad06010912a4ab9bd6623cb12cb79bf8ee78b1073a9b5b518de8deec1c4c00601483045022100ad849b3840b409e3fac7902b29db6b078891311e3f36a68a08140aa0f41ecb7702206615cacb0b73f1f6529628513a690671ec81226d468dad525578803c4d7fb9030147522102907a54bed8ad74b3f35638c60114ca240a308cb986f3f2f306178869a8880b6121030fb8bff3b8e874a57e54148b6750ef3032ba633f2f9d46f8051e2e9a971d549a52ae", "asm": "0 3045022100a13b53955b5043bdb49b3fe675481d4ef3bfd8ed09ca4058686d21d29bd1c51602207ad06010912a4ab9bd6623cb12cb79bf8ee78b1073a9b5b518de8deec1c4c006[ALL] 3045022100ad849b3840b409e3fac7902b29db6b078891311e3f36a68a08140aa0f41ecb7702206615cacb0b73f1f6529628513a690671ec81226d468dad525578803c4d7fb903[ALL] 522102907a54bed8ad74b3f35638c60114ca240a308cb986f3f2f306178869a8880b6121030fb8bff3b8e874a57e54148b6750ef3032ba633f2f9d46f8051e2e9a971d549a52ae"}, "vout": 0, "txid": "9747296f946187ba435f746fb99775bf8921270ba457e90eefa62c3503ed8760"}, {"sequence": 4294967295, "scriptSig": {"hex": "483045022100f350d3bb39ce8f5416f8117721187f09433ba4afa681cba92a94b50a01d7eb890220540881e611caa51a5a768157ed8152a8936981e4fda010376069024a844611af012102385e65f587d9a663b8bc6f16f52da4c4271388d1649a5e1c629e47a71c684968", "asm": "3045022100f350d3bb39ce8f5416f8117721187f09433ba4afa681cba92a94b50a01d7eb890220540881e611caa51a5a768157ed8152a8936981e4fda010376069024a844611af[ALL] 02385e65f587d9a663b8bc6f16f52da4c4271388d1649a5e1c629e47a71c684968"}, "vout": 1, "txid": "90ccda531b4121eab9efabf370ae737fdb34094f0000d91bf0e94a2651263721"}], "txid": "81b249c702ae462c0d4ceae5b4b0cf41cc825e0a3ad146e2cf3c1b2d4fc2913a", "blocktime": 1537873282, "version": 1, "confirmations": 11484, "time": 1537873282, "locktime": 0, "vsize": 484, "size": 484}