{"hash": "81c32f80820ff776ada870e69467bc649b71d03970ec2122373c3f27f2d5d377", "blockhash": "00000000000000000004ffacab907a6b429b9a5745fa0b75af4234bf69dd7176", "vout": [{"scriptPubKey": {"reqSigs": 1, "hex": "76a9144f35dc29f1183a7fc4cdb7f304bd64a6bcf5b12188ac", "addresses": ["18DpuR1sAjH1reHANi2bxsxfvLrun6ahLf"], "asm": "OP_DUP OP_HASH160 4f35dc29f1183a7fc4cdb7f304bd64a6bcf5b121 OP_EQUALVERIFY OP_CHECKSIG", "type": "pubkeyhash"}, "value": 0.00110734, "n": 0}, {"scriptPubKey": {"reqSigs": 1, "hex": "76a914e163d073e054266d0f5e025eebd6100b0c946b5b88ac", "addresses": ["1MYkcNyCtPmxivKoMy5v5VBkv6LuBrgrAy"], "asm": "OP_DUP OP_HASH160 e163d073e054266d0f5e025eebd6100b0c946b5b OP_EQUALVERIFY OP_CHECKSIG", "type": "pubkeyhash"}, "value": 0.08872348, "n": 1}], "hex": "01000000019f7c9750491876914b10772995d7e8a4b205926acf0ef5872de1ed15da0a7ab4010000006a47304402202c2b0784b5f514800bfc6e52542200e5029f24515fa3b6e654ac01f11a726d9e0220791409b9abf59422013bcb734f0169a484536c7a571d16b010e94d2ac75703390121033387315522fd785dc6a3184e4f2acbd937f90409a105c06583c94e6554220085ffffffff028eb00100000000001976a9144f35dc29f1183a7fc4cdb7f304bd64a6bcf5b12188ac9c618700000000001976a914e163d073e054266d0f5e025eebd6100b0c946b5b88ac00000000", "vin": [{"sequence": 4294967295, "scriptSig": {"hex": "47304402202c2b0784b5f514800bfc6e52542200e5029f24515fa3b6e654ac01f11a726d9e0220791409b9abf59422013bcb734f0169a484536c7a571d16b010e94d2ac75703390121033387315522fd785dc6a3184e4f2acbd937f90409a105c06583c94e6554220085", "asm": "304402202c2b0784b5f514800bfc6e52542200e5029f24515fa3b6e654ac01f11a726d9e0220791409b9abf59422013bcb734f0169a484536c7a571d16b010e94d2ac7570339[ALL] 033387315522fd785dc6a3184e4f2acbd937f90409a105c06583c94e6554220085"}, "vout": 1, "txid": "b47a0ada15ede12d87f50ecf6a9205b2a4e8d7952977104b9176184950977c9f"}], "txid": "81c32f80820ff776ada870e69467bc649b71d03970ec2122373c3f27f2d5d377", "blocktime": 1537875543, "version": 1, "confirmations": 11464, "time": 1537875543, "locktime": 0, "vsize": 225, "size": 225}