{"hash": "81c4beeac964e6bec48577339b31ba68d271281155797727a88e1f35436647fb", "blockhash": "0000000000000000000dcc0f55137456b1a82d3642486a52398922ac4d620174", "vout": [{"scriptPubKey": {"reqSigs": 1, "hex": "a9141c44eab97edeb85389c1ade12f1513d3623532af87", "addresses": ["34GVQLwjdgdQb5TTerzzm3CpgFfB332ULx"], "asm": "OP_HASH160 1c44eab97edeb85389c1ade12f1513d3623532af OP_EQUAL", "type": "scripthash"}, "value": 0.000679, "n": 0}, {"scriptPubKey": {"reqSigs": 1, "hex": "76a9144e7caeb51098af2676bbe53bce14725f6b237bbe88ac", "addresses": ["18A153yZRnzEaQBd49wNtjGaaJsepDZZeP"], "asm": "OP_DUP OP_HASH160 4e7caeb51098af2676bbe53bce14725f6b237bbe OP_EQUALVERIFY OP_CHECKSIG", "type": "pubkeyhash"}, "value": 0.00128069, "n": 1}], "hex": "010000000132a1d18dedc13dc55aeeca6584bf8839bce93b459040c10818bc55cafa7433a9010000008a4730440220657727951a0ff946d1b81e25e23dbdc228927f76626b3c1a5039ec69f124a92902202f4c5a0fee13818cced43ed9b7d526a5b7fe3a0f25cbeab6782bf08a65b58faf014104cad6daa2eba296be7781388d08d671211cfbd4222979064218afb2baf2e12521cbd0abf34cd11d8d6aff67ba96dde2de111a7c6209f677b6c992c0f35f58fa2dffffffff023c0901000000000017a9141c44eab97edeb85389c1ade12f1513d3623532af8745f40100000000001976a9144e7caeb51098af2676bbe53bce14725f6b237bbe88ac00000000", "vin": [{"sequence": 4294967295, "scriptSig": {"hex": "4730440220657727951a0ff946d1b81e25e23dbdc228927f76626b3c1a5039ec69f124a92902202f4c5a0fee13818cced43ed9b7d526a5b7fe3a0f25cbeab6782bf08a65b58faf014104cad6daa2eba296be7781388d08d671211cfbd4222979064218afb2baf2e12521cbd0abf34cd11d8d6aff67ba96dde2de111a7c6209f677b6c992c0f35f58fa2d", "asm": "30440220657727951a0ff946d1b81e25e23dbdc228927f76626b3c1a5039ec69f124a92902202f4c5a0fee13818cced43ed9b7d526a5b7fe3a0f25cbeab6782bf08a65b58faf[ALL] 04cad6daa2eba296be7781388d08d671211cfbd4222979064218afb2baf2e12521cbd0abf34cd11d8d6aff67ba96dde2de111a7c6209f677b6c992c0f35f58fa2d"}, "vout": 1, "txid": "a93374faca55bc1808c14090453be9bc3988bf8465caee5ac53dc1ed8dd1a132"}], "txid": "81c4beeac964e6bec48577339b31ba68d271281155797727a88e1f35436647fb", "blocktime": 1537870268, "version": 1, "confirmations": 11516, "time": 1537870268, "locktime": 0, "vsize": 255, "size": 255}