{"hash": "81c741c2ee2746391888eb0e09ae500b78a169057e9673d32cdf8f2e28315741", "blockhash": "000000000000000000205f8b0775d31398ef75b89a5e8ec8d2c57b4dc0ac4c20", "vout": [{"scriptPubKey": {"reqSigs": 1, "hex": "001443c832af34ac84308677105ac9f3d4cceb33585b", "addresses": ["bc1qg0yr9te54jzrppnhzpdvnu75en4nxkzmh5jglu"], "asm": "0 43c832af34ac84308677105ac9f3d4cceb33585b", "type": "witness_v0_keyhash"}, "value": 0.36096478, "n": 0}, {"scriptPubKey": {"reqSigs": 1, "hex": "0014181cb3e6e7817199e1e93d23aa0cf84722416b5e", "addresses": ["bc1qrqwt8eh8s9cenc0f85365r8cgu3yz66773ce38"], "asm": "0 181cb3e6e7817199e1e93d23aa0cf84722416b5e", "type": "witness_v0_keyhash"}, "value": 0.092, "n": 1}], "hex": "01000000014d6ab2af205987a6589120a803773c7374ac96c08e16d96e4c298c1683065cde000000006a47304402201df3bdf943894a11432ae59336cbf3f843d816575f6b4b051dd883cda933f2a30220535db3c3b79eee06ea005741bb1da0b5d4b7a332520ab5e5b04d57fc508f56e9012102e3b5d03e4552dbb5fd02b42ececf2545499dc9e76fc7e0d541662e8bfb9938e9ffffffff02dec926020000000016001443c832af34ac84308677105ac9f3d4cceb33585b80618c0000000000160014181cb3e6e7817199e1e93d23aa0cf84722416b5e00000000", "vin": [{"sequence": 4294967295, "scriptSig": {"hex": "47304402201df3bdf943894a11432ae59336cbf3f843d816575f6b4b051dd883cda933f2a30220535db3c3b79eee06ea005741bb1da0b5d4b7a332520ab5e5b04d57fc508f56e9012102e3b5d03e4552dbb5fd02b42ececf2545499dc9e76fc7e0d541662e8bfb9938e9", "asm": "304402201df3bdf943894a11432ae59336cbf3f843d816575f6b4b051dd883cda933f2a30220535db3c3b79eee06ea005741bb1da0b5d4b7a332520ab5e5b04d57fc508f56e9[ALL] 02e3b5d03e4552dbb5fd02b42ececf2545499dc9e76fc7e0d541662e8bfb9938e9"}, "vout": 0, "txid": "de5c0683168c294c6ed9168ec096ac74733c7703a8209158a6875920afb26a4d"}], "txid": "81c741c2ee2746391888eb0e09ae500b78a169057e9673d32cdf8f2e28315741", "blocktime": 1537871175, "version": 1, "confirmations": 11511, "time": 1537871175, "locktime": 0, "vsize": 219, "size": 219}