{"hash": "81cad44b68fe3678b581ceba59707b0fb113e9076fcc90c7cacfe9e63baac643", "blockhash": "00000000000000000017f5eb5941039fbcee6240d03bc1f2f8e35350df66a1d8", "vout": [{"scriptPubKey": {"reqSigs": 1, "hex": "76a9148e0f3c4102ae961b7a1d1a83176bd908bcee910c88ac", "addresses": ["1Dx9Cp5p8dU87uiKDqq7s9iyPHgahSPkTp"], "asm": "OP_DUP OP_HASH160 8e0f3c4102ae961b7a1d1a83176bd908bcee910c OP_EQUALVERIFY OP_CHECKSIG", "type": "pubkeyhash"}, "value": 0.0037592, "n": 0}, {"scriptPubKey": {"reqSigs": 1, "hex": "76a91467dc47c417ef354fdea7b21e2ed83c0da8c9782e88ac", "addresses": ["1AUAV74rChtbv3xK7yLcj1XVUMBR1DY8nu"], "asm": "OP_DUP OP_HASH160 67dc47c417ef354fdea7b21e2ed83c0da8c9782e OP_EQUALVERIFY OP_CHECKSIG", "type": "pubkeyhash"}, "value": 0.00082193, "n": 1}], "hex": "020000000303e55a6265021cb238de4933bbb1ef73e208f32a32836df040e95adb72336161220000006a47304402203e4a97d88053fa108583e127b8eab2aea29246052902d29ab62dbee28920bad602203b0a7c6d61f518e449e53adca249bf89c6e53b37a5b280f208452df4315c254a0121024f8ad52ba7e7c2f144e76742c8f4770c9eb51113aa2e008996e6b9af805ee3dfffffffff4eee10e4e1029d577982c697241b110ec74e631ec8378b12c8b2ff89949f2bfe0a0000006b483045022100f7028fbb5cec95758e34bb39114cb7f156b85f16561237a73c1d7399324e0f7202206709cd514582209c27365ef9851982da2e00776ece0714060297fd213f7710400121023f2687a7a538a9da248897741c36fc6f4946b62cd27c87bf09c18521ab356c0fffffffffebd778eadfd2835d522511d7530a9de95e166ef78be65c69a0cceb7cc0c7b13f010000006b48304502210084a5a60ac48c0ca73d40b7af7ef107f0d1c6a37a4d91c4fe9ca5ae03e405e9c702202521f6177673cb166dacb278ef9ba4f7b8ae008038e2906486968011055ea0b4012103209c86fe90592c115366863bd3dc1f40cb02ed7251b6fc01ec6a83d65e1abb80ffffffff0270bc0500000000001976a9148e0f3c4102ae961b7a1d1a83176bd908bcee910c88ac11410100000000001976a91467dc47c417ef354fdea7b21e2ed83c0da8c9782e88ac00000000", "vin": [{"sequence": 4294967295, "scriptSig": {"hex": "47304402203e4a97d88053fa108583e127b8eab2aea29246052902d29ab62dbee28920bad602203b0a7c6d61f518e449e53adca249bf89c6e53b37a5b280f208452df4315c254a0121024f8ad52ba7e7c2f144e76742c8f4770c9eb51113aa2e008996e6b9af805ee3df", "asm": "304402203e4a97d88053fa108583e127b8eab2aea29246052902d29ab62dbee28920bad602203b0a7c6d61f518e449e53adca249bf89c6e53b37a5b280f208452df4315c254a[ALL] 024f8ad52ba7e7c2f144e76742c8f4770c9eb51113aa2e008996e6b9af805ee3df"}, "vout": 34, "txid": "61613372db5ae940f06d83322af308e273efb1bb3349de38b21c0265625ae503"}, {"sequence": 4294967295, "scriptSig": {"hex": "483045022100f7028fbb5cec95758e34bb39114cb7f156b85f16561237a73c1d7399324e0f7202206709cd514582209c27365ef9851982da2e00776ece0714060297fd213f7710400121023f2687a7a538a9da248897741c36fc6f4946b62cd27c87bf09c18521ab356c0f", "asm": "3045022100f7028fbb5cec95758e34bb39114cb7f156b85f16561237a73c1d7399324e0f7202206709cd514582209c27365ef9851982da2e00776ece0714060297fd213f771040[ALL] 023f2687a7a538a9da248897741c36fc6f4946b62cd27c87bf09c18521ab356c0f"}, "vout": 10, "txid": "fe2b9f9489ffb2c8128b37c81e634ec70e111b2497c68279579d02e1e410ee4e"}, {"sequence": 4294967295, "scriptSig": {"hex": "48304502210084a5a60ac48c0ca73d40b7af7ef107f0d1c6a37a4d91c4fe9ca5ae03e405e9c702202521f6177673cb166dacb278ef9ba4f7b8ae008038e2906486968011055ea0b4012103209c86fe90592c115366863bd3dc1f40cb02ed7251b6fc01ec6a83d65e1abb80", "asm": "304502210084a5a60ac48c0ca73d40b7af7ef107f0d1c6a37a4d91c4fe9ca5ae03e405e9c702202521f6177673cb166dacb278ef9ba4f7b8ae008038e2906486968011055ea0b4[ALL] 03209c86fe90592c115366863bd3dc1f40cb02ed7251b6fc01ec6a83d65e1abb80"}, "vout": 1, "txid": "3fb1c7c07cebcca0695ce68bf76e165ee99d0a53d71125525d83d2dfea78d7eb"}], "txid": "81cad44b68fe3678b581ceba59707b0fb113e9076fcc90c7cacfe9e63baac643", "blocktime": 1537874412, "version": 2, "confirmations": 11466, "time": 1537874412, "locktime": 0, "vsize": 521, "size": 521}