{"hash": "81cf65e11c1e7ab2a4c0cebd4713c2ea8868973d543977092b7bf559783b8fe9", "blockhash": "0000000000000000000baef3f32e3676a92c3b2e5da21b426e4f302fc371ce76", "vout": [{"scriptPubKey": {"reqSigs": 1, "hex": "76a91492aef2b62f9ed2281f09ef897bc3e87ff198fc2088ac", "addresses": ["1ENbEcbqufQZ7rPwUD7XqohVHbiuYg4Mt7"], "asm": "OP_DUP OP_HASH160 92aef2b62f9ed2281f09ef897bc3e87ff198fc20 OP_EQUALVERIFY OP_CHECKSIG", "type": "pubkeyhash"}, "value": 0.00893746, "n": 0}, {"scriptPubKey": {"reqSigs": 1, "hex": "76a914933ad5e47aa1ba9d6757a2a1d7b9f50e19c96a7988ac", "addresses": ["1ERUpAReU1req7yBReJcZvoedAW68JsDSK"], "asm": "OP_DUP OP_HASH160 933ad5e47aa1ba9d6757a2a1d7b9f50e19c96a79 OP_EQUALVERIFY OP_CHECKSIG", "type": "pubkeyhash"}, "value": 0.33098121, "n": 1}, {"scriptPubKey": {"reqSigs": 1, "hex": "76a914f8733558029eb7baeb626cecedebe0939f19fe3b88ac", "addresses": ["1PegbPk5Xfey1vuyNgg2dNQPL1nW9jkRAY"], "asm": "OP_DUP OP_HASH160 f8733558029eb7baeb626cecedebe0939f19fe3b OP_EQUALVERIFY OP_CHECKSIG", "type": "pubkeyhash"}, "value": 0.00998987, "n": 2}, {"scriptPubKey": {"reqSigs": 1, "hex": "76a91427bd5ccf277dcca557b47f597d7134e89636e53888ac", "addresses": ["14d8Cd2BqYd21PfvQ5GmMQ9VbaaannH9xB"], "asm": "OP_DUP OP_HASH160 27bd5ccf277dcca557b47f597d7134e89636e538 OP_EQUALVERIFY OP_CHECKSIG", "type": "pubkeyhash"}, "value": 0.01439537, "n": 3}, {"scriptPubKey": {"reqSigs": 1, "hex": "76a914c59cbf25b73711631f908706521613b32f64064a88ac", "addresses": ["1K1stjvhyxE2dKNt5suu2VkAEeV88MYTw7"], "asm": "OP_DUP OP_HASH160 c59cbf25b73711631f908706521613b32f64064a OP_EQUALVERIFY OP_CHECKSIG", "type": "pubkeyhash"}, "value": 0.00995391, "n": 4}, {"scriptPubKey": {"reqSigs": 1, "hex": "76a91406065c931055e2c9c3cf9d71f2b32842d334e21688ac", "addresses": ["1YrgAWmQze27Gb8fdXWg5QmFQh6bC9K5U"], "asm": "OP_DUP OP_HASH160 06065c931055e2c9c3cf9d71f2b32842d334e216 OP_EQUALVERIFY OP_CHECKSIG", "type": "pubkeyhash"}, "value": 0.06113185, "n": 5}, {"scriptPubKey": {"reqSigs": 1, "hex": "76a914e13f367bdad908edee839da58d80e5ab43c11d8d88ac", "addresses": ["1MXzmGS8Cbn8MapsfsrUnzf4pstMtM1ejo"], "asm": "OP_DUP OP_HASH160 e13f367bdad908edee839da58d80e5ab43c11d8d OP_EQUALVERIFY OP_CHECKSIG", "type": "pubkeyhash"}, "value": 0.01787017, "n": 6}, {"scriptPubKey": {"reqSigs": 1, "hex": "76a91441827d0f521fede4802517c92121158ea4fcaffd88ac", "addresses": ["16yPEyFuTBesjboHN7uamJATtg8gnAjD27"], "asm": "OP_DUP OP_HASH160 41827d0f521fede4802517c92121158ea4fcaffd OP_EQUALVERIFY OP_CHECKSIG", "type": "pubkeyhash"}, "value": 0.00892691, "n": 7}, {"scriptPubKey": {"reqSigs": 1, "hex": "76a914657e89ece1e0bf3bcac70951c8f661bdea1e3eb088ac", "addresses": ["1AFeqSgazAzDDUn7RN8igJawC2fk8bxvoe"], "asm": "OP_DUP OP_HASH160 657e89ece1e0bf3bcac70951c8f661bdea1e3eb0 OP_EQUALVERIFY OP_CHECKSIG", "type": "pubkeyhash"}, "value": 0.00898792, "n": 8}, {"scriptPubKey": {"reqSigs": 1, "hex": "76a91419a723ffbba4464c14df9d2b1646a28bf88cf29788ac", "addresses": ["13Le7vvVWwr5q6WpK6ZMrC6pXTinRe8mL4"], "asm": "OP_DUP OP_HASH160 19a723ffbba4464c14df9d2b1646a28bf88cf297 OP_EQUALVERIFY OP_CHECKSIG", "type": "pubkeyhash"}, "value": 0.04582978, "n": 9}], "hex": "0200000005fc90ad7ada7aa33cd64a8483c57b2cca0f67e5ddb5d1e3c2385fa76077b607f7000000006b483045022100c8c5582e3e3d9a7c67250d182477ce2e785282bab1f52644213e82d1e34df87802203ab62ec4d7d7c88ebb2684b12d874f95ef40e7440b87b275ebfbbc069824ff260121035eee1c0d80b1b2e03898b421c2323f66bf7b8d0ae6344b0dfd6872af57220cd5feffffff7f37c70278485ad5c9b3532676d960086841caaa05a0ee3f6fb97a7dd6b71e7a010000006a47304402201a6ba2dedb2df65b8907a395af970a6f03b9395f906faf503359ab596daf441d02201dfbbe26fe7b006d91ec26935807472d3886633249159bff4d5bb7eb52a63f590121031cf19019b9a8b72dd38ea11037a641ccd6fee6cef14cf45dd057ea369e5a9bd2feffffff81b5a10b6966691ad87da3b0cca6a12fb926caa153bbe4445c3b656e6eb0653f000000006a47304402207ba8328e44fceec2b790185627d882b3781b414ed5bb97961f311fa928d2eef3022076c8dd71ba74a73821ddaf6348cdefa5f09c29ee29820feee1c513e18da29794012102915fa3b589eab33af82fef0a6d04c6c7752390d9fafb1df726cc3bcb99563568feffffffce893d4ddc4d6e21de7a4b65d9b3549cb22dbed24f36301205cc65d71a6746ed000000006b483045022100bbd4a5d823b1d99e44cc3c49787ba0bfadd1ab7cd1d61d7597da3878ded7b63302204f908bf6237318e8d39ebabcb12ed7b136d93a528095a96e50a22dbd5168d19701210373a5a6e5e0fbe9d92917efb5758891d6513084b7dae0815b68625ea80640b511feffffff535b66495a8e36963d41375b8510c637a312f7caa4baf6e11ac7ddffbd2eb5ea010000006a4730440220012e5017cc354ec07212111db136a85f3f278effeacc907f38e427227337237402202b2b1e23038a0a81c23e77771d9764acf4132982646d10ffa4354c702c57f31a01210255dd7b8f82ce286a395464d607b9f5c93b937aebff09603eaf4a857cd5d027dbfeffffff0a32a30d00000000001976a91492aef2b62f9ed2281f09ef897bc3e87ff198fc2088ac8909f901000000001976a914933ad5e47aa1ba9d6757a2a1d7b9f50e19c96a7988ac4b3e0f00000000001976a914f8733558029eb7baeb626cecedebe0939f19fe3b88ac31f71500000000001976a91427bd5ccf277dcca557b47f597d7134e89636e53888ac3f300f00000000001976a914c59cbf25b73711631f908706521613b32f64064a88aca1475d00000000001976a91406065c931055e2c9c3cf9d71f2b32842d334e21688ac89441b00000000001976a914e13f367bdad908edee839da58d80e5ab43c11d8d88ac139f0d00000000001976a91441827d0f521fede4802517c92121158ea4fcaffd88ace8b60d00000000001976a914657e89ece1e0bf3bcac70951c8f661bdea1e3eb088ac42ee4500000000001976a91419a723ffbba4464c14df9d2b1646a28bf88cf29788ac00000000", "vin": [{"sequence": 4294967294, "scriptSig": {"hex": "483045022100c8c5582e3e3d9a7c67250d182477ce2e785282bab1f52644213e82d1e34df87802203ab62ec4d7d7c88ebb2684b12d874f95ef40e7440b87b275ebfbbc069824ff260121035eee1c0d80b1b2e03898b421c2323f66bf7b8d0ae6344b0dfd6872af57220cd5", "asm": "3045022100c8c5582e3e3d9a7c67250d182477ce2e785282bab1f52644213e82d1e34df87802203ab62ec4d7d7c88ebb2684b12d874f95ef40e7440b87b275ebfbbc069824ff26[ALL] 035eee1c0d80b1b2e03898b421c2323f66bf7b8d0ae6344b0dfd6872af57220cd5"}, "vout": 0, "txid": "f707b67760a75f38c2e3d1b5dde5670fca2c7bc583844ad63ca37ada7aad90fc"}, {"sequence": 4294967294, "scriptSig": {"hex": "47304402201a6ba2dedb2df65b8907a395af970a6f03b9395f906faf503359ab596daf441d02201dfbbe26fe7b006d91ec26935807472d3886633249159bff4d5bb7eb52a63f590121031cf19019b9a8b72dd38ea11037a641ccd6fee6cef14cf45dd057ea369e5a9bd2", "asm": "304402201a6ba2dedb2df65b8907a395af970a6f03b9395f906faf503359ab596daf441d02201dfbbe26fe7b006d91ec26935807472d3886633249159bff4d5bb7eb52a63f59[ALL] 031cf19019b9a8b72dd38ea11037a641ccd6fee6cef14cf45dd057ea369e5a9bd2"}, "vout": 1, "txid": "7a1eb7d67d7ab96f3feea005aaca41680860d9762653b3c9d55a487802c7377f"}, {"sequence": 4294967294, "scriptSig": {"hex": "47304402207ba8328e44fceec2b790185627d882b3781b414ed5bb97961f311fa928d2eef3022076c8dd71ba74a73821ddaf6348cdefa5f09c29ee29820feee1c513e18da29794012102915fa3b589eab33af82fef0a6d04c6c7752390d9fafb1df726cc3bcb99563568", "asm": "304402207ba8328e44fceec2b790185627d882b3781b414ed5bb97961f311fa928d2eef3022076c8dd71ba74a73821ddaf6348cdefa5f09c29ee29820feee1c513e18da29794[ALL] 02915fa3b589eab33af82fef0a6d04c6c7752390d9fafb1df726cc3bcb99563568"}, "vout": 0, "txid": "3f65b06e6e653b5c44e4bb53a1ca26b92fa1a6ccb0a37dd81a6966690ba1b581"}, {"sequence": 4294967294, "scriptSig": {"hex": "483045022100bbd4a5d823b1d99e44cc3c49787ba0bfadd1ab7cd1d61d7597da3878ded7b63302204f908bf6237318e8d39ebabcb12ed7b136d93a528095a96e50a22dbd5168d19701210373a5a6e5e0fbe9d92917efb5758891d6513084b7dae0815b68625ea80640b511", "asm": "3045022100bbd4a5d823b1d99e44cc3c49787ba0bfadd1ab7cd1d61d7597da3878ded7b63302204f908bf6237318e8d39ebabcb12ed7b136d93a528095a96e50a22dbd5168d197[ALL] 0373a5a6e5e0fbe9d92917efb5758891d6513084b7dae0815b68625ea80640b511"}, "vout": 0, "txid": "ed46671ad765cc051230364fd2be2db29c54b3d9654b7ade216e4ddc4d3d89ce"}, {"sequence": 4294967294, "scriptSig": {"hex": "4730440220012e5017cc354ec07212111db136a85f3f278effeacc907f38e427227337237402202b2b1e23038a0a81c23e77771d9764acf4132982646d10ffa4354c702c57f31a01210255dd7b8f82ce286a395464d607b9f5c93b937aebff09603eaf4a857cd5d027db", "asm": "30440220012e5017cc354ec07212111db136a85f3f278effeacc907f38e427227337237402202b2b1e23038a0a81c23e77771d9764acf4132982646d10ffa4354c702c57f31a[ALL] 0255dd7b8f82ce286a395464d607b9f5c93b937aebff09603eaf4a857cd5d027db"}, "vout": 1, "txid": "eab52ebdffddc71ae1f6baa4caf712a337c610855b37413d96368e5a49665b53"}], "txid": "81cf65e11c1e7ab2a4c0cebd4713c2ea8868973d543977092b7bf559783b8fe9", "blocktime": 1537876114, "version": 2, "confirmations": 11460, "time": 1537876114, "locktime": 0, "vsize": 1087, "size": 1087}