{"hash": "a008455b86fe6334dc5fb071cd200caee7915b22b006345410e8aa430830a090", "blockhash": "0000000000000000000e13cef7c366c0283d82e591d1acd082e914b08063cdf1", "vout": [{"scriptPubKey": {"reqSigs": 1, "hex": "76a91489467e39f86df738a6d23d34ca5540a00209d47688ac", "addresses": ["1DWr2E4qzs3e4cZddG7tCLsTVuP2cYgGnL"], "asm": "OP_DUP OP_HASH160 89467e39f86df738a6d23d34ca5540a00209d476 OP_EQUALVERIFY OP_CHECKSIG", "type": "pubkeyhash"}, "value": 0.08684513, "n": 0}, {"scriptPubKey": {"reqSigs": 1, "hex": "a91467eb61a3ca11a9bd11814497cba54580e7f41c4587", "addresses": ["3BAVVtX2uPrQoerLQDYq2M8jHRGbBkLcvx"], "asm": "OP_HASH160 67eb61a3ca11a9bd11814497cba54580e7f41c45 OP_EQUAL", "type": "scripthash"}, "value": 0.17082634, "n": 1}], "hex": "01000000000101771c600f464a9fe3c3ae13248b2796b5785d4946ff5988ff458345425fde3fc500000000232200209034905795dc6886b342c64c556daee7f06ed49182fcf7d0c63153394aeeb808ffffffff02e1838400000000001976a91489467e39f86df738a6d23d34ca5540a00209d47688ac0aa904010000000017a91467eb61a3ca11a9bd11814497cba54580e7f41c45870400483045022100d6ea4d0439180abebf5ae7f280082b4d2e3077af7883c0b08cb303dd6aeace27022018efd880552f0185d49ad797d42cca55bc214daeadf6b35d7b0a18277c6e3bfe01483045022100a89dffa241c0b07cd60ce41579a43db057fefa74cbabc01a2ac3cd09355b3e4a022067c9bf94585f31484a07c0643061799a74b289d805fa687f2fe894643d8da14501695221020071a960782f699e5dbdc79aa043f0f1c20d0f92e33669556a994980d31f837f21025c8a056a7346eab0e053cda676b9f5caa4c8481c853672809b6f345c3f834d9b2103e4d76b16ceabda6d35ff644439d066274e444fd1c708e6cc703d9dafd86a00a353ae00000000", "vin": [{"txinwitness": ["", "3045022100d6ea4d0439180abebf5ae7f280082b4d2e3077af7883c0b08cb303dd6aeace27022018efd880552f0185d49ad797d42cca55bc214daeadf6b35d7b0a18277c6e3bfe01", "3045022100a89dffa241c0b07cd60ce41579a43db057fefa74cbabc01a2ac3cd09355b3e4a022067c9bf94585f31484a07c0643061799a74b289d805fa687f2fe894643d8da14501", "5221020071a960782f699e5dbdc79aa043f0f1c20d0f92e33669556a994980d31f837f21025c8a056a7346eab0e053cda676b9f5caa4c8481c853672809b6f345c3f834d9b2103e4d76b16ceabda6d35ff644439d066274e444fd1c708e6cc703d9dafd86a00a353ae"], "sequence": 4294967295, "scriptSig": {"hex": "2200209034905795dc6886b342c64c556daee7f06ed49182fcf7d0c63153394aeeb808", "asm": "00209034905795dc6886b342c64c556daee7f06ed49182fcf7d0c63153394aeeb808"}, "vout": 0, "txid": "c53fde5f42458345ff8859ff46495d78b596278b2413aec3e39f4a460f601c77"}], "txid": "81d3112fc45093b34f4b92f44d64cc9d46608eccc645e31be461fca1fe451295", "blocktime": 1537871767, "version": 1, "confirmations": 11495, "time": 1537871767, "locktime": 0, "vsize": 216, "size": 408}