{"hash": "81d533c1b3bcd8606b05b32b446d7e8d5ea392b9faf85adc508491d944b1b927", "blockhash": "0000000000000000000e13cef7c366c0283d82e591d1acd082e914b08063cdf1", "vout": [{"scriptPubKey": {"reqSigs": 1, "hex": "76a91453cfa2d6d80ddbe63cbef1c375f8ed8dba071f3f88ac", "addresses": ["18e9pjNAbd3Vr8PaHUymeoEoJi8g65VBKz"], "asm": "OP_DUP OP_HASH160 53cfa2d6d80ddbe63cbef1c375f8ed8dba071f3f OP_EQUALVERIFY OP_CHECKSIG", "type": "pubkeyhash"}, "value": 0.0147948, "n": 0}, {"scriptPubKey": {"type": "nulldata", "hex": "6a4c500000778c0001f70b36bf1d3054d80ba3060ce3ef3236678a625097bcbefa6b8351586b4e0397d38bd4ef329276b2018db169cec95baa0c4006144be3021c8cbfbc9a9526289ac0f6612cd74e33776ee4", "asm": "OP_RETURN 0000778c0001f70b36bf1d3054d80ba3060ce3ef3236678a625097bcbefa6b8351586b4e0397d38bd4ef329276b2018db169cec95baa0c4006144be3021c8cbfbc9a9526289ac0f6612cd74e33776ee4"}, "value": 0.0, "n": 1}], "hex": "010000000132d5d52641e31a48d8deb0b5418a05f0a37b7c00b608bb4a498d5b5f8b3ac389010000006b483045022100f7081eb404ed2da60f84ba9cd67700d49d0cc8a87c6357a2914f51918762f4ef02201c4f1ae2cfec39874eeb8909abc5c531283bf018ff3766eab5a2352b823b2c06012102adeb21461cbd6fd1fa756f29f9ca9540fdd60d43d712cb8e2ec0d00cb62088b0ffffffff0238931600000000001976a91453cfa2d6d80ddbe63cbef1c375f8ed8dba071f3f88ac0000000000000000536a4c500000778c0001f70b36bf1d3054d80ba3060ce3ef3236678a625097bcbefa6b8351586b4e0397d38bd4ef329276b2018db169cec95baa0c4006144be3021c8cbfbc9a9526289ac0f6612cd74e33776ee400000000", "vin": [{"sequence": 4294967295, "scriptSig": {"hex": "483045022100f7081eb404ed2da60f84ba9cd67700d49d0cc8a87c6357a2914f51918762f4ef02201c4f1ae2cfec39874eeb8909abc5c531283bf018ff3766eab5a2352b823b2c06012102adeb21461cbd6fd1fa756f29f9ca9540fdd60d43d712cb8e2ec0d00cb62088b0", "asm": "3045022100f7081eb404ed2da60f84ba9cd67700d49d0cc8a87c6357a2914f51918762f4ef02201c4f1ae2cfec39874eeb8909abc5c531283bf018ff3766eab5a2352b823b2c06[ALL] 02adeb21461cbd6fd1fa756f29f9ca9540fdd60d43d712cb8e2ec0d00cb62088b0"}, "vout": 1, "txid": "89c33a8b5f5b8d494abb08b6007c7ba3f0058a41b5b0ded8481ae34126d5d532"}], "txid": "81d533c1b3bcd8606b05b32b446d7e8d5ea392b9faf85adc508491d944b1b927", "blocktime": 1537871767, "version": 1, "confirmations": 11493, "time": 1537871767, "locktime": 0, "vsize": 284, "size": 284}