{"hash": "81d6f2aa0bc97efdd7f88078d2868b1e103c901ee8288b083c94c95971463d05", "blockhash": "0000000000000000001e0dab787dd257d1dbfcb92a98c2207d5e1078be1f4165", "vout": [{"scriptPubKey": {"reqSigs": 1, "hex": "76a914f0264a2493d74e56d2a9b0bff102184c0ca413bc88ac", "addresses": ["1Nto3T2hmgiNZR5fCtDmG3HbsA174RoJxC"], "asm": "OP_DUP OP_HASH160 f0264a2493d74e56d2a9b0bff102184c0ca413bc OP_EQUALVERIFY OP_CHECKSIG", "type": "pubkeyhash"}, "value": 0.00780996, "n": 0}, {"scriptPubKey": {"reqSigs": 1, "hex": "76a91405984008772f6fda05eb767a97c5728662aa515788ac", "addresses": ["1WamV3mUp5XgssUR7si6toZswfw5mvqhX"], "asm": "OP_DUP OP_HASH160 05984008772f6fda05eb767a97c5728662aa5157 OP_EQUALVERIFY OP_CHECKSIG", "type": "pubkeyhash"}, "value": 0.06696765, "n": 1}], "hex": "0100000001cb00b10cba5e2cc56d14be7513eb7271181669e37b342ded9109666e487501df010000006b483045022100e4c0ba84fbbe3e59c1996d266f08645f38c209fbfe35b37e262c23999ebf7f3302203077209754319c14637f557cec51d35656cc1faf6b1ecb0ed978525b1cf0f0db0121035094c68fa6e1bc638257e03cad606cef77ac879dc2a63fb8a67ac3f203802030ffffffff02c4ea0b00000000001976a914f0264a2493d74e56d2a9b0bff102184c0ca413bc88ac3d2f6600000000001976a91405984008772f6fda05eb767a97c5728662aa515788ac00000000", "vin": [{"sequence": 4294967295, "scriptSig": {"hex": "483045022100e4c0ba84fbbe3e59c1996d266f08645f38c209fbfe35b37e262c23999ebf7f3302203077209754319c14637f557cec51d35656cc1faf6b1ecb0ed978525b1cf0f0db0121035094c68fa6e1bc638257e03cad606cef77ac879dc2a63fb8a67ac3f203802030", "asm": "3045022100e4c0ba84fbbe3e59c1996d266f08645f38c209fbfe35b37e262c23999ebf7f3302203077209754319c14637f557cec51d35656cc1faf6b1ecb0ed978525b1cf0f0db[ALL] 035094c68fa6e1bc638257e03cad606cef77ac879dc2a63fb8a67ac3f203802030"}, "vout": 1, "txid": "df0175486e660991ed2d347be36916187172eb1375be146dc52c5eba0cb100cb"}], "txid": "81d6f2aa0bc97efdd7f88078d2868b1e103c901ee8288b083c94c95971463d05", "blocktime": 1537872475, "version": 1, "confirmations": 11487, "time": 1537872475, "locktime": 0, "vsize": 226, "size": 226}