{"hash": "81d989cd4ee7557e910b432d74d7a61de30904c52b5a77006b6b8308d06ea539", "blockhash": "0000000000000000001cda96e906b7601b7a6fb1a3b62bca570a9e5d8f4b3de1", "vout": [{"scriptPubKey": {"reqSigs": 1, "hex": "a914d726a76b7900908f10e91dda6931f6223c092a2c87", "addresses": ["3MJdWWiXkcuMeunKnDJntRgd2yDFbVe9EK"], "asm": "OP_HASH160 d726a76b7900908f10e91dda6931f6223c092a2c OP_EQUAL", "type": "scripthash"}, "value": 0.34452145, "n": 0}, {"scriptPubKey": {"reqSigs": 1, "hex": "a914b68eab675af91294b20239eb0c97ee20e57e891c87", "addresses": ["3JLHpJyWXQCvrMBNJX1DV3dYzGsZoABkj5"], "asm": "OP_HASH160 b68eab675af91294b20239eb0c97ee20e57e891c OP_EQUAL", "type": "scripthash"}, "value": 0.141631, "n": 1}, {"scriptPubKey": {"reqSigs": 1, "hex": "76a9143c17a2ca65c5f71752d105b6e1ac16516dd8bf9488ac", "addresses": ["16Ujrm92T9HsBG4rasm2mWFX4gPcvXQFMN"], "asm": "OP_DUP OP_HASH160 3c17a2ca65c5f71752d105b6e1ac16516dd8bf94 OP_EQUALVERIFY OP_CHECKSIG", "type": "pubkeyhash"}, "value": 0.00021075, "n": 2}], "hex": "01000000025e7195e705631ee4929c5865761a3c76c64082b6756f80a7783eb185127f9eb300000000da00483045022100e59d62a0c06a21acaf3ebe0461c915c5007dd8e4b9477d442578eac81ebad8c302203fa96d51e8c9b3dbe16a99028d9693fb63cb486176842092154aa67b636f2e6201473044022067ae4920d56112d5ac43b3fba6053a1caaa96195fc697695ae0034dd6edde17102204fca39c9d644b05527250ce828e35d74bebb9cf08df1bc84b3e280711c5b8e8f0147522102907a54bed8ad74b3f35638c60114ca240a308cb986f3f2f306178869a8880b612102ff810a92e078c0de146ab84bcab8f649830003fbc1de9b37cb779ea3c83e779a52aeffffffff8882aa9cbd28126041b46bacfc29d786c9dd3b14529e70073cdac2a2d41d9988010000006b4830450221009fbab43997df23a3de8f150bd5e3eac8bf215728ba798cf0392fdd97af3849ab02204b5e9aed3c933d21c6229c4ea34ea768cc4670dbe256ecf0e746c8ef641e9b00012102d9ed4a6bbc903b8296a7210f0d5fef39936ce6ca1992d159b5e2523095d8f0afffffffff03b1b20d020000000017a914d726a76b7900908f10e91dda6931f6223c092a2c879c1cd8000000000017a914b68eab675af91294b20239eb0c97ee20e57e891c8753520000000000001976a9143c17a2ca65c5f71752d105b6e1ac16516dd8bf9488ac00000000", "vin": [{"sequence": 4294967295, "scriptSig": {"hex": "00483045022100e59d62a0c06a21acaf3ebe0461c915c5007dd8e4b9477d442578eac81ebad8c302203fa96d51e8c9b3dbe16a99028d9693fb63cb486176842092154aa67b636f2e6201473044022067ae4920d56112d5ac43b3fba6053a1caaa96195fc697695ae0034dd6edde17102204fca39c9d644b05527250ce828e35d74bebb9cf08df1bc84b3e280711c5b8e8f0147522102907a54bed8ad74b3f35638c60114ca240a308cb986f3f2f306178869a8880b612102ff810a92e078c0de146ab84bcab8f649830003fbc1de9b37cb779ea3c83e779a52ae", "asm": "0 3045022100e59d62a0c06a21acaf3ebe0461c915c5007dd8e4b9477d442578eac81ebad8c302203fa96d51e8c9b3dbe16a99028d9693fb63cb486176842092154aa67b636f2e62[ALL] 3044022067ae4920d56112d5ac43b3fba6053a1caaa96195fc697695ae0034dd6edde17102204fca39c9d644b05527250ce828e35d74bebb9cf08df1bc84b3e280711c5b8e8f[ALL] 522102907a54bed8ad74b3f35638c60114ca240a308cb986f3f2f306178869a8880b612102ff810a92e078c0de146ab84bcab8f649830003fbc1de9b37cb779ea3c83e779a52ae"}, "vout": 0, "txid": "b39e7f1285b13e78a7806f75b68240c6763c1a7665589c92e41e6305e795715e"}, {"sequence": 4294967295, "scriptSig": {"hex": "4830450221009fbab43997df23a3de8f150bd5e3eac8bf215728ba798cf0392fdd97af3849ab02204b5e9aed3c933d21c6229c4ea34ea768cc4670dbe256ecf0e746c8ef641e9b00012102d9ed4a6bbc903b8296a7210f0d5fef39936ce6ca1992d159b5e2523095d8f0af", "asm": "30450221009fbab43997df23a3de8f150bd5e3eac8bf215728ba798cf0392fdd97af3849ab02204b5e9aed3c933d21c6229c4ea34ea768cc4670dbe256ecf0e746c8ef641e9b00[ALL] 02d9ed4a6bbc903b8296a7210f0d5fef39936ce6ca1992d159b5e2523095d8f0af"}, "vout": 1, "txid": "88991dd4a2c2da3c07709e52143bddc986d729fcac6bb441601228bd9caa8288"}], "txid": "81d989cd4ee7557e910b432d74d7a61de30904c52b5a77006b6b8308d06ea539", "blocktime": 1537873282, "version": 1, "confirmations": 11484, "time": 1537873282, "locktime": 0, "vsize": 515, "size": 515}