{"hash": "ce48eb973c94446e886972f84d3157a693f0d08b2a8d053213517272ac35c17d", "blockhash": "00000000000000000024a2167bbff67b0be802c0b01cdd79e6331c2be6459f87", "vout": [{"scriptPubKey": {"reqSigs": 1, "hex": "a914b68e1c8b7b5ef2838503a0496484999efa393a5087", "addresses": ["3JLH9Y7YhKrpa4KiQqm563E9gby8fR7Zzq"], "asm": "OP_HASH160 b68e1c8b7b5ef2838503a0496484999efa393a50 OP_EQUAL", "type": "scripthash"}, "value": 0.01034114, "n": 0}, {"scriptPubKey": {"reqSigs": 1, "hex": "a914092b8c8d2df6f32fad4c16b14b1602569350188e87", "addresses": ["32XWB7Khpf2MuUaykhsZf69ST4Q2JmHMZE"], "asm": "OP_HASH160 092b8c8d2df6f32fad4c16b14b1602569350188e OP_EQUAL", "type": "scripthash"}, "value": 0.04447386, "n": 1}], "hex": "020000000001027a3ab58912148a92ac2e75d080750f909480520fd5d4c2540bf8769dbc49d1fd0200000017160014858a18816a1db531cc78f8e46d12fcf2aea6b9aafeffffffd57f683fcbf7a67b8122520d376d1afe7448e12265a34419170b7a7b5ddec53d0000000017160014ef8658ab056957c3a42f388999ee90a12aaa0485feffffff0282c70f000000000017a914b68e1c8b7b5ef2838503a0496484999efa393a50879adc43000000000017a914092b8c8d2df6f32fad4c16b14b1602569350188e8702483045022100b9ed92ae13111ee27b1da51b5936970cb6374c2af1adb148b1fba8bf0d1407fe02206ee559d1f347d8c01072f6b7aceeb25f6c7b2f8e4a912f191b599693432a25760121028b0383f66f59b5c3a83d14f0d1af6aa4dd5b0aaf6ef10152d1bad3665eab4888024730440220073542ff285b9cfbba9a877c1e87a537ad8ba5c3c714f166c7b94c4d46d0a0b70220050d87940dcb2d70c7b5994d9b64ca88dd33f678721e3da49e7df693d1fb831b012103018f3c4b27f48f45a0648d7ffba02d44b3c1ea2c787b308351b38505d4b1a2defa480800", "vin": [{"txinwitness": ["3045022100b9ed92ae13111ee27b1da51b5936970cb6374c2af1adb148b1fba8bf0d1407fe02206ee559d1f347d8c01072f6b7aceeb25f6c7b2f8e4a912f191b599693432a257601", "028b0383f66f59b5c3a83d14f0d1af6aa4dd5b0aaf6ef10152d1bad3665eab4888"], "sequence": 4294967294, "scriptSig": {"hex": "160014858a18816a1db531cc78f8e46d12fcf2aea6b9aa", "asm": "0014858a18816a1db531cc78f8e46d12fcf2aea6b9aa"}, "vout": 2, "txid": "fdd149bc9d76f80b54c2d4d50f528094900f7580d0752eac928a141289b53a7a"}, {"txinwitness": ["30440220073542ff285b9cfbba9a877c1e87a537ad8ba5c3c714f166c7b94c4d46d0a0b70220050d87940dcb2d70c7b5994d9b64ca88dd33f678721e3da49e7df693d1fb831b01", "03018f3c4b27f48f45a0648d7ffba02d44b3c1ea2c787b308351b38505d4b1a2de"], "sequence": 4294967294, "scriptSig": {"hex": "160014ef8658ab056957c3a42f388999ee90a12aaa0485", "asm": "0014ef8658ab056957c3a42f388999ee90a12aaa0485"}, "vout": 0, "txid": "3dc5de5d7b7a0b171944a36522e14874fe1a6d370d5222817ba6f7cb3f687fd5"}], "txid": "81da98799e56cb8b2abac7b1b6bcc7ca30ee1730e1639fe44a9af2f6a61a988b", "blocktime": 1537870564, "version": 2, "confirmations": 11515, "time": 1537870564, "locktime": 542970, "vsize": 257, "size": 419}