{"hash": "81eadf76623758a374a7e482c50c97976d662f0e8cc7fa1dc5aeff4158a07de1", "blockhash": "00000000000000000018f53835495a110e01622372bf6ae95dc86f2b0ab887b0", "vout": [{"scriptPubKey": {"reqSigs": 1, "hex": "76a914df753ba88a1908f4e2570ce203758492b2c3993e88ac", "addresses": ["1MNY8Gp9JUxf7wW1fB3NSk93RsirHeTf1p"], "asm": "OP_DUP OP_HASH160 df753ba88a1908f4e2570ce203758492b2c3993e OP_EQUALVERIFY OP_CHECKSIG", "type": "pubkeyhash"}, "value": 0.02687285, "n": 0}, {"scriptPubKey": {"reqSigs": 1, "hex": "a914c95ad29554682f09dd21768c428b13d547d31bbd87", "addresses": ["3L3gYZn2okUEE2KiBvGXhRqesxVPbTxVqK"], "asm": "OP_HASH160 c95ad29554682f09dd21768c428b13d547d31bbd OP_EQUAL", "type": "scripthash"}, "value": 0.22874, "n": 1}], "hex": "02000000010685a07ce85f850c21e85e9b535d2195d8fd84c79a819b16cfbbacaeb5b408ab010000006a473044022013a09efd6332d03f956105022bf644b5ece4f5bedfaa6d205231e727a58757e202207ed4f368686f86701146a0d30002c3a50408bc11ae50d9b1ac64bfff7bb0ae01012102067f08eb15708ae625b44c1973125c6b60238fa1f98d37f941cbef2bc6614ee0feffffff0235012900000000001976a914df753ba88a1908f4e2570ce203758492b2c3993e88ac90075d010000000017a914c95ad29554682f09dd21768c428b13d547d31bbd870e490800", "vin": [{"sequence": 4294967294, "scriptSig": {"hex": "473044022013a09efd6332d03f956105022bf644b5ece4f5bedfaa6d205231e727a58757e202207ed4f368686f86701146a0d30002c3a50408bc11ae50d9b1ac64bfff7bb0ae01012102067f08eb15708ae625b44c1973125c6b60238fa1f98d37f941cbef2bc6614ee0", "asm": "3044022013a09efd6332d03f956105022bf644b5ece4f5bedfaa6d205231e727a58757e202207ed4f368686f86701146a0d30002c3a50408bc11ae50d9b1ac64bfff7bb0ae01[ALL] 02067f08eb15708ae625b44c1973125c6b60238fa1f98d37f941cbef2bc6614ee0"}, "vout": 1, "txid": "ab08b4b5aeacbbcf169b819ac784fdd895215d539b5ee8210c855fe87ca08506"}], "txid": "81eadf76623758a374a7e482c50c97976d662f0e8cc7fa1dc5aeff4158a07de1", "blocktime": 1537870928, "version": 2, "confirmations": 11514, "time": 1537870928, "locktime": 542990, "vsize": 223, "size": 223}