{"hash": "81ea2487aedcb7136307a5911b628bffcc17190d81d6bc9ff02cdb6002975a7d", "blockhash": "0000000000000000000dcc0f55137456b1a82d3642486a52398922ac4d620174", "vout": [{"scriptPubKey": {"reqSigs": 1, "hex": "a914aa6465ecd5e79b640a2017fe7dbb0ef7223da29687", "addresses": ["3HDy4wVZ1JGDn3MwMByxLiJCHdkemeuMFh"], "asm": "OP_HASH160 aa6465ecd5e79b640a2017fe7dbb0ef7223da296 OP_EQUAL", "type": "scripthash"}, "value": 0.00962, "n": 0}, {"scriptPubKey": {"reqSigs": 1, "hex": "76a9140f527fab43a7aeaec16b97c0dde6f7899b00471c88ac", "addresses": ["12Q1xzK1TtmwiJk23swAdCVdUyKs4DLkTt"], "asm": "OP_DUP OP_HASH160 0f527fab43a7aeaec16b97c0dde6f7899b00471c OP_EQUALVERIFY OP_CHECKSIG", "type": "pubkeyhash"}, "value": 0.02033737, "n": 1}], "hex": "01000000010ee4e7a116f90d9dd02b4406a3244b65330af4055d7ce539c1852cda0cfc3b03010000006b483045022100b2fb4cfddf13793b9a86a25593a27ae6bb92f6a0fd8d4a4b295be6dabcfd537a02201c91b113326a68d74680fa5d9dd5729b6ee821cd31d51fc4e2f30082a57fe9cb0121022ab7f2200777027d6e13d931ff0aecf47d53eee34374456d8419a339c01e4203ffffffff02d0ad0e000000000017a914aa6465ecd5e79b640a2017fe7dbb0ef7223da2968749081f00000000001976a9140f527fab43a7aeaec16b97c0dde6f7899b00471c88ac00000000", "vin": [{"sequence": 4294967295, "scriptSig": {"hex": "483045022100b2fb4cfddf13793b9a86a25593a27ae6bb92f6a0fd8d4a4b295be6dabcfd537a02201c91b113326a68d74680fa5d9dd5729b6ee821cd31d51fc4e2f30082a57fe9cb0121022ab7f2200777027d6e13d931ff0aecf47d53eee34374456d8419a339c01e4203", "asm": "3045022100b2fb4cfddf13793b9a86a25593a27ae6bb92f6a0fd8d4a4b295be6dabcfd537a02201c91b113326a68d74680fa5d9dd5729b6ee821cd31d51fc4e2f30082a57fe9cb[ALL] 022ab7f2200777027d6e13d931ff0aecf47d53eee34374456d8419a339c01e4203"}, "vout": 1, "txid": "033bfc0cda2c85c139e57c5d05f40a33654b24a306442bd09d0df916a1e7e40e"}], "txid": "81ea2487aedcb7136307a5911b628bffcc17190d81d6bc9ff02cdb6002975a7d", "blocktime": 1537870268, "version": 1, "confirmations": 11516, "time": 1537870268, "locktime": 0, "vsize": 224, "size": 224}