{"hash": "1a5dd96e61ff19be5ba72f09680afedcdeb31d31011366e52a8095658010106e", "blockhash": "00000000000000000024a2167bbff67b0be802c0b01cdd79e6331c2be6459f87", "vout": [{"scriptPubKey": {"reqSigs": 1, "hex": "76a9146bf5d825fdc826a564706de3e597daf6a5aaf14b88ac", "addresses": ["1Aqqp6BYo68MNUBoX7myFDEicK2Xk7yxRH"], "asm": "OP_DUP OP_HASH160 6bf5d825fdc826a564706de3e597daf6a5aaf14b OP_EQUALVERIFY OP_CHECKSIG", "type": "pubkeyhash"}, "value": 0.00291857, "n": 0}, {"scriptPubKey": {"reqSigs": 1, "hex": "a9144ebc6eb36092ac29148f134c06db5550ef9e3f2687", "addresses": ["38sLN2Ac8p1GfVQfy1RN2KhXocLPcZ2z96"], "asm": "OP_HASH160 4ebc6eb36092ac29148f134c06db5550ef9e3f26 OP_EQUAL", "type": "scripthash"}, "value": 0.01606834, "n": 1}], "hex": "020000000001012767cb44ee7289c07f595f08bfbfce69f8815bae541196993aef0d896a0a8b5c00000000171600140c2fee4ee2dc5882ca8c0c91ad3c176d6522d50bfeffffff0211740400000000001976a9146bf5d825fdc826a564706de3e597daf6a5aaf14b88acb28418000000000017a9144ebc6eb36092ac29148f134c06db5550ef9e3f268702473044022064b838ebb8b19e97d3488743bc8806c6141ebcbc6c281e4fb89e1d708fab75020220092bfa1bc5d613ed4bc76fa6df60abf99bf26dae4d43f8235c75c67e536ef8680121023a7e49304c00494ef732baf4981bff8d97c4a43be615bf8a33f78d3b672bca3d0d490800", "vin": [{"txinwitness": ["3044022064b838ebb8b19e97d3488743bc8806c6141ebcbc6c281e4fb89e1d708fab75020220092bfa1bc5d613ed4bc76fa6df60abf99bf26dae4d43f8235c75c67e536ef86801", "023a7e49304c00494ef732baf4981bff8d97c4a43be615bf8a33f78d3b672bca3d"], "sequence": 4294967294, "scriptSig": {"hex": "1600140c2fee4ee2dc5882ca8c0c91ad3c176d6522d50b", "asm": "00140c2fee4ee2dc5882ca8c0c91ad3c176d6522d50b"}, "vout": 0, "txid": "5c8b0a6a890def3a99961154ae5b81f869cebfbf085f597fc08972ee44cb6727"}], "txid": "81ec6c215611a5be44eda980f0e1995dea4d1a0c27d3026212878042d0e3d1cd", "blocktime": 1537870564, "version": 2, "confirmations": 11515, "time": 1537870564, "locktime": 542989, "vsize": 168, "size": 249}