{"hash": "1eef9df94e522e6c3019374a3b3d481ee4fe25e8588759ad085ac638aeb3eef3", "blockhash": "0000000000000000000baef3f32e3676a92c3b2e5da21b426e4f302fc371ce76", "vout": [{"scriptPubKey": {"reqSigs": 1, "hex": "a914c2739fab5f84ec172b07cc02c5523d3b0e0ac07c87", "addresses": ["3KRBXSBWYgUd7oYEUhMM7gqFbmoyqZ4EYS"], "asm": "OP_HASH160 c2739fab5f84ec172b07cc02c5523d3b0e0ac07c OP_EQUAL", "type": "scripthash"}, "value": 5.553e-05, "n": 0}, {"scriptPubKey": {"reqSigs": 1, "hex": "a914e8db75c900cf08f06518e96d167331f2a4abfb3387", "addresses": ["3NvFbQMAkkqEFj4i1sYPPLkSWzxTFUchjA"], "asm": "OP_HASH160 e8db75c900cf08f06518e96d167331f2a4abfb33 OP_EQUAL", "type": "scripthash"}, "value": 0.00876112, "n": 1}], "hex": "01000000000101e57503ac8fa59b18f61c00d02a0b4521cdbf7ceee1b427a0f4d327d002ec0dff0100000023220020941cfaff8837763dc1f69ff82b6d6553fdea17a41cfc29a04403293eedd8ccc7ffffffff02b11500000000000017a914c2739fab5f84ec172b07cc02c5523d3b0e0ac07c87505e0d000000000017a914e8db75c900cf08f06518e96d167331f2a4abfb33870400483045022100d0ccd5c109ad201c16df4953ff7daf716f28ecc9fc2bf2d3744222a478f635d5022044102811506e595b11ab83c59b1e7cb8d564000ff516b876e329204be38122b10147304402201a51ab892e0238e1121465826b0efcc19760aed686d1b2fddc52594b2d61430102203caae8a8b72818cfc57b6c3d5b5d60f466183fcd5a026ac56c3eea2f4c07b1460147522102531db3a5883f29bab4241dd0cd726936667bcda445d89bdd22244e828b6993342103148c80a5bdfddb05ff5bcffc397c8ca748d8b435ec6a175bc9d7bfc7fc6f853752ae00000000", "vin": [{"txinwitness": ["", "3045022100d0ccd5c109ad201c16df4953ff7daf716f28ecc9fc2bf2d3744222a478f635d5022044102811506e595b11ab83c59b1e7cb8d564000ff516b876e329204be38122b101", "304402201a51ab892e0238e1121465826b0efcc19760aed686d1b2fddc52594b2d61430102203caae8a8b72818cfc57b6c3d5b5d60f466183fcd5a026ac56c3eea2f4c07b14601", "522102531db3a5883f29bab4241dd0cd726936667bcda445d89bdd22244e828b6993342103148c80a5bdfddb05ff5bcffc397c8ca748d8b435ec6a175bc9d7bfc7fc6f853752ae"], "sequence": 4294967295, "scriptSig": {"hex": "220020941cfaff8837763dc1f69ff82b6d6553fdea17a41cfc29a04403293eedd8ccc7", "asm": "0020941cfaff8837763dc1f69ff82b6d6553fdea17a41cfc29a04403293eedd8ccc7"}, "vout": 1, "txid": "ff0dec02d027d3f4a027b4e1ee7cbfcd21450b2ad0001cf6189ba58fac0375e5"}], "txid": "81f189a17ab1a59ff77e89bebd8e2e53a1ef240764766980f6a333d9a47a81c1", "blocktime": 1537876114, "version": 1, "confirmations": 11462, "time": 1537876114, "locktime": 0, "vsize": 206, "size": 371}