{"hash": "8df1644a26ecc526ed9f4598bf77beda92f7b584398b9c28d302e58011b24d2c", "blockhash": "00000000000000000004ffacab907a6b429b9a5745fa0b75af4234bf69dd7176", "vout": [{"scriptPubKey": {"reqSigs": 1, "hex": "a91465549a96d01982ec04ddd923cca5bee408d5c8ad87", "addresses": ["3AvoXJFAtXiZ9hSqp7XpSStKyFT8J4nzXp"], "asm": "OP_HASH160 65549a96d01982ec04ddd923cca5bee408d5c8ad OP_EQUAL", "type": "scripthash"}, "value": 0.04303801, "n": 0}, {"scriptPubKey": {"reqSigs": 1, "hex": "a914cfaabfe8c271f99a4364b5197ba50c6cddb7adb987", "addresses": ["3Ld4M9RPwEG3VeQbHcC1PsKUndQL7VYLZP"], "asm": "OP_HASH160 cfaabfe8c271f99a4364b5197ba50c6cddb7adb9 OP_EQUAL", "type": "scripthash"}, "value": 0.08415292, "n": 1}], "hex": "010000000001034001678b1954b9ce73f830dbc229b27ad7ff2faae1130982713068d3b02221d101000000232200202f7b4024602241b47d3306a6733d9889e4b6761d9f1cb82a18aa8b9ac4506e51ffffffffdb7a65345292ec1001e2a44bf3f53031b8c7ffb717f5cc8b92ac817ce315301e01000000232200202f7b4024602241b47d3306a6733d9889e4b6761d9f1cb82a18aa8b9ac4506e51ffffffff5cf4da12da1fb1c0f4ddfc119f62495091afdaebef907562afd86702f74bcb9a01000000232200202f7b4024602241b47d3306a6733d9889e4b6761d9f1cb82a18aa8b9ac4506e51ffffffff02b9ab41000000000017a91465549a96d01982ec04ddd923cca5bee408d5c8ad873c6880000000000017a914cfaabfe8c271f99a4364b5197ba50c6cddb7adb9870400483045022100fc6fbb5fefd89e66dd99375c97f691e36e4fc378d3e402893d25284c86e0a53a0220207322c7d62512dd3f1f9a550d337b4b0aa54a810a8f79b5084de8bfdf94cd9f01483045022100e2e90ccf337c8d45b50972436881f30e5e636186f01e2b7cdca4eccba2f0d5b202207a7b5b7d0ad91aba1393b2bf1568ae1c048be752e7ca72386ea28f2af43826a70147522102973cd851fecff3a20f08377b072729f303801eee1b7678668338adcaec770ec221033e4af03ed09dbd8a417ba042650d5bd1db7f14f271a8f660974e3abf1fdfa4da52ae0400473044022067f51fffd4dc4c4f004ace9f6c6410e7d0cb2399b514caf6384a69b23c3f1c7f02201164692b6cb0cb603eac961cc986c081f61feeab6fca957a099c4ed4b45d41af01483045022100ccbc0dfa13e89781758229645f46877b71f0494c3898b2eabd7b012c2518008b02201303e3c0ebfd4ba69aea420aaf9bfe0846553d564754c44ac26ba39ab8f11ef50147522102973cd851fecff3a20f08377b072729f303801eee1b7678668338adcaec770ec221033e4af03ed09dbd8a417ba042650d5bd1db7f14f271a8f660974e3abf1fdfa4da52ae0400483045022100f0ed3f628486081ec730f8e64b08f1c294f7ec2f9b9bb4e6a986727e96541d9b02206bd2fa3532419ff3c5224966bcfe2342937d6064efa5b3c0987c605a29d0974f0147304402207d6657b849ed6218f43dbb51bdab69509f6f5d9973039d7046f982b813cc59d602200afa5d5f15fdb466fd6552581ecb7513d9d412b397fc74669909c50ade7615930147522102973cd851fecff3a20f08377b072729f303801eee1b7678668338adcaec770ec221033e4af03ed09dbd8a417ba042650d5bd1db7f14f271a8f660974e3abf1fdfa4da52ae00000000", "vin": [{"txinwitness": ["", "3045022100fc6fbb5fefd89e66dd99375c97f691e36e4fc378d3e402893d25284c86e0a53a0220207322c7d62512dd3f1f9a550d337b4b0aa54a810a8f79b5084de8bfdf94cd9f01", "3045022100e2e90ccf337c8d45b50972436881f30e5e636186f01e2b7cdca4eccba2f0d5b202207a7b5b7d0ad91aba1393b2bf1568ae1c048be752e7ca72386ea28f2af43826a701", "522102973cd851fecff3a20f08377b072729f303801eee1b7678668338adcaec770ec221033e4af03ed09dbd8a417ba042650d5bd1db7f14f271a8f660974e3abf1fdfa4da52ae"], "sequence": 4294967295, "scriptSig": {"hex": "2200202f7b4024602241b47d3306a6733d9889e4b6761d9f1cb82a18aa8b9ac4506e51", "asm": "00202f7b4024602241b47d3306a6733d9889e4b6761d9f1cb82a18aa8b9ac4506e51"}, "vout": 1, "txid": "d12122b0d3683071820913e1aa2fffd77ab229c2db30f873ceb954198b670140"}, {"txinwitness": ["", "3044022067f51fffd4dc4c4f004ace9f6c6410e7d0cb2399b514caf6384a69b23c3f1c7f02201164692b6cb0cb603eac961cc986c081f61feeab6fca957a099c4ed4b45d41af01", "3045022100ccbc0dfa13e89781758229645f46877b71f0494c3898b2eabd7b012c2518008b02201303e3c0ebfd4ba69aea420aaf9bfe0846553d564754c44ac26ba39ab8f11ef501", "522102973cd851fecff3a20f08377b072729f303801eee1b7678668338adcaec770ec221033e4af03ed09dbd8a417ba042650d5bd1db7f14f271a8f660974e3abf1fdfa4da52ae"], "sequence": 4294967295, "scriptSig": {"hex": "2200202f7b4024602241b47d3306a6733d9889e4b6761d9f1cb82a18aa8b9ac4506e51", "asm": "00202f7b4024602241b47d3306a6733d9889e4b6761d9f1cb82a18aa8b9ac4506e51"}, "vout": 1, "txid": "1e3015e37c81ac928bccf517b7ffc7b83130f5f34ba4e20110ec925234657adb"}, {"txinwitness": ["", "3045022100f0ed3f628486081ec730f8e64b08f1c294f7ec2f9b9bb4e6a986727e96541d9b02206bd2fa3532419ff3c5224966bcfe2342937d6064efa5b3c0987c605a29d0974f01", "304402207d6657b849ed6218f43dbb51bdab69509f6f5d9973039d7046f982b813cc59d602200afa5d5f15fdb466fd6552581ecb7513d9d412b397fc74669909c50ade76159301", "522102973cd851fecff3a20f08377b072729f303801eee1b7678668338adcaec770ec221033e4af03ed09dbd8a417ba042650d5bd1db7f14f271a8f660974e3abf1fdfa4da52ae"], "sequence": 4294967295, "scriptSig": {"hex": "2200202f7b4024602241b47d3306a6733d9889e4b6761d9f1cb82a18aa8b9ac4506e51", "asm": "00202f7b4024602241b47d3306a6733d9889e4b6761d9f1cb82a18aa8b9ac4506e51"}, "vout": 1, "txid": "9acb4bf70267d8af627590efebdaaf915049629f11fcddf4c0b11fda12daf45c"}], "txid": "81f525ed864c65fd30f919c75d27ed058c3fad4169ef56544e6606c07cc6ce8e", "blocktime": 1537875543, "version": 1, "confirmations": 11464, "time": 1537875543, "locktime": 0, "vsize": 467, "size": 962}