{"hash": "81ffe27d32728109f139e3bc337d14910c20286287b821d129a277a531bce002", "blockhash": "0000000000000000000baef3f32e3676a92c3b2e5da21b426e4f302fc371ce76", "vout": [{"scriptPubKey": {"reqSigs": 1, "hex": "a9145a461b23cc341d4e9135cfe3ae871f42060e656987", "addresses": ["39vLirpeSFT8YF7FbFuQL9zjH8guJ9jmCo"], "asm": "OP_HASH160 5a461b23cc341d4e9135cfe3ae871f42060e6569 OP_EQUAL", "type": "scripthash"}, "value": 0.00261822, "n": 0}, {"scriptPubKey": {"reqSigs": 1, "hex": "76a914feb54d789c805128f7c9c989da6ff1de5bf5b80488ac", "addresses": ["1QDmprQrqY2qHdySDuXhpXMZq2Krx78F28"], "asm": "OP_DUP OP_HASH160 feb54d789c805128f7c9c989da6ff1de5bf5b804 OP_EQUALVERIFY OP_CHECKSIG", "type": "pubkeyhash"}, "value": 0.10285086, "n": 1}], "hex": "0100000001445c736894b657e9a34a9a03159867ac4a81122957711a5e5d4c830a78039af1010000006b48304502210087e0f524472f947c42c5d804ba7035247882f4f47147909ed19b466f2756376602207978a553db28ad585a1ea3d0f4bc7699a61f57b38bad2df8e50496a5067c514b012103ebca196f8ceb5fdda00e37dc78c50ac50fa3e323297c0c89d7cc7bb3789ec99fffffffff02befe03000000000017a9145a461b23cc341d4e9135cfe3ae871f42060e6569871ef09c00000000001976a914feb54d789c805128f7c9c989da6ff1de5bf5b80488ac00000000", "vin": [{"sequence": 4294967295, "scriptSig": {"hex": "48304502210087e0f524472f947c42c5d804ba7035247882f4f47147909ed19b466f2756376602207978a553db28ad585a1ea3d0f4bc7699a61f57b38bad2df8e50496a5067c514b012103ebca196f8ceb5fdda00e37dc78c50ac50fa3e323297c0c89d7cc7bb3789ec99f", "asm": "304502210087e0f524472f947c42c5d804ba7035247882f4f47147909ed19b466f2756376602207978a553db28ad585a1ea3d0f4bc7699a61f57b38bad2df8e50496a5067c514b[ALL] 03ebca196f8ceb5fdda00e37dc78c50ac50fa3e323297c0c89d7cc7bb3789ec99f"}, "vout": 1, "txid": "f19a03780a834c5d5e1a71572912814aac679815039a4aa3e957b69468735c44"}], "txid": "81ffe27d32728109f139e3bc337d14910c20286287b821d129a277a531bce002", "blocktime": 1537876114, "version": 1, "confirmations": 11460, "time": 1537876114, "locktime": 0, "vsize": 224, "size": 224}