{"hash": "8201a90fa0b76e840b477398de0fe82248909fca35f6d8809557c31c650c45b6", "blockhash": "0000000000000000001cda96e906b7601b7a6fb1a3b62bca570a9e5d8f4b3de1", "vout": [{"scriptPubKey": {"reqSigs": 1, "hex": "a914e9e387908ca3e66ec342ebb37feb0530b26747bb87", "addresses": ["3P1hwGeAUBNgGzUmFBcWs1yEskUhDmU7qH"], "asm": "OP_HASH160 e9e387908ca3e66ec342ebb37feb0530b26747bb OP_EQUAL", "type": "scripthash"}, "value": 0.07245, "n": 0}, {"scriptPubKey": {"reqSigs": 1, "hex": "76a91478b1c4a8e8bd3762030f8602013fc3cc4ee2f00d88ac", "addresses": ["1C1B3a7Ts9YuqJnsLrqphKJ4vuJ1pAhP8s"], "asm": "OP_DUP OP_HASH160 78b1c4a8e8bd3762030f8602013fc3cc4ee2f00d OP_EQUALVERIFY OP_CHECKSIG", "type": "pubkeyhash"}, "value": 4.60407672, "n": 1}], "hex": "0100000001bf90a5292f325d191aa3b0f4d1e0c0e975984745cd57133a6465de240e227477000000006a473044022063ac433cbe813d820a59fdeaa36c54d034f24566bb539899abab3b43e58145f6022011b6e73df1ab5d3f7c4b9939f747433bdd258d160cccf751b818b1d828a10eca012103dea4c5105045c98d3f81948a0fe0567affdc05b644a937b4c68a1b1d6c31c3adffffffff02c88c6e000000000017a914e9e387908ca3e66ec342ebb37feb0530b26747bb877843711b000000001976a91478b1c4a8e8bd3762030f8602013fc3cc4ee2f00d88ac00000000", "vin": [{"sequence": 4294967295, "scriptSig": {"hex": "473044022063ac433cbe813d820a59fdeaa36c54d034f24566bb539899abab3b43e58145f6022011b6e73df1ab5d3f7c4b9939f747433bdd258d160cccf751b818b1d828a10eca012103dea4c5105045c98d3f81948a0fe0567affdc05b644a937b4c68a1b1d6c31c3ad", "asm": "3044022063ac433cbe813d820a59fdeaa36c54d034f24566bb539899abab3b43e58145f6022011b6e73df1ab5d3f7c4b9939f747433bdd258d160cccf751b818b1d828a10eca[ALL] 03dea4c5105045c98d3f81948a0fe0567affdc05b644a937b4c68a1b1d6c31c3ad"}, "vout": 0, "txid": "7774220e24de65643a1357cd45479875e9c0e0d1f4b0a31a195d322f29a590bf"}], "txid": "8201a90fa0b76e840b477398de0fe82248909fca35f6d8809557c31c650c45b6", "blocktime": 1537873282, "version": 1, "confirmations": 11480, "time": 1537873282, "locktime": 0, "vsize": 223, "size": 223}