{"hash": "820fc4cbc4cd899e578835fb5a21547629fdadc97926dc796dfc7d7b5175a841", "blockhash": "0000000000000000000baef3f32e3676a92c3b2e5da21b426e4f302fc371ce76", "vout": [{"scriptPubKey": {"reqSigs": 1, "hex": "76a914235176ee123e9ef22fef548360e0f2610e90b7b488ac", "addresses": ["14DkEyMa1WVa3oqzzHm6w3uo8gY64pW1Ey"], "asm": "OP_DUP OP_HASH160 235176ee123e9ef22fef548360e0f2610e90b7b4 OP_EQUALVERIFY OP_CHECKSIG", "type": "pubkeyhash"}, "value": 0.0009, "n": 0}, {"scriptPubKey": {"reqSigs": 1, "hex": "a914c51515bb8dc892c3dccc31543674b3d8720bb45a87", "addresses": ["3Kf6JLadwBm7kEtX6BdUfjGM84rXVxq15y"], "asm": "OP_HASH160 c51515bb8dc892c3dccc31543674b3d8720bb45a OP_EQUAL", "type": "scripthash"}, "value": 0.007, "n": 1}, {"scriptPubKey": {"reqSigs": 1, "hex": "76a914a503447868b5db51fcd1bd1cfa7c0a1ccff728fa88ac", "addresses": ["1G3WQgQ6c3kEz2wg8iXPNiu2ygnQwj4mnZ"], "asm": "OP_DUP OP_HASH160 a503447868b5db51fcd1bd1cfa7c0a1ccff728fa OP_EQUALVERIFY OP_CHECKSIG", "type": "pubkeyhash"}, "value": 0.006638, "n": 2}, {"scriptPubKey": {"reqSigs": 1, "hex": "a91469f376289c56a1fef051fb95f9aece05a2fc7f4e87", "addresses": ["3BMEXh4T8J5rqcxr3SW9rb2jxdJo6cXAJV"], "asm": "OP_HASH160 69f376289c56a1fef051fb95f9aece05a2fc7f4e OP_EQUAL", "type": "scripthash"}, "value": 0.02575139, "n": 3}, {"scriptPubKey": {"reqSigs": 1, "hex": "a9147b40b96c116daf9ec16aed87a827d595834423ff87", "addresses": ["3CviaGBBPFLKZyBq97wKhgdLZzBcqeh8QK"], "asm": "OP_HASH160 7b40b96c116daf9ec16aed87a827d595834423ff OP_EQUAL", "type": "scripthash"}, "value": 0.005, "n": 4}], "hex": "020000000510b58cc4ba882dc9548e79bec8f52bf822f420507bc46e82267e76f891e2b1390000000069463043021f55f541c9675d7d1d258ef3a7999c133181941aabc2898475852b0251cd93f5022057e7889bafa147d2b2a4307161938791b3d3e3fcb5c220bb281e99ab753a19580121035375d86b554e504fcdbcde3a3367ef2ce980170226d4ac912fb44d1a7e8539b1feffffff5448a7efe116e88c2b516594c2ae5989384668044ea3ad0a1e88b18e2fbd8805010000006a47304402206f31f4d1030cfa96fd6aa5e3079c362eed3dfface238209d96b029633dac250702206f716add954d96aec74fbfdea1d4b09ae348d97e844f506a87f48e80094e03070121028eda8aa7f837cda0dc224e2ec68e7cd49c1c2ca76bcb03829af802776e6c70c9feffffffa4dc921796d45631438e32796b35147a62dc11065f44f1d93aa9e9797ae34006000000006b48304502210092b64e1a3a9a56fe8b468986fa55c263d82fbe83b0907093e3d91fdc413470b70220155e32467554cf51c4e012842a8d25ace76f70ec18ab29565feb7e0b45aba4fb012102a12d7c071a5c81ff3317d1fbd854428aa60d5c19e0551cd0130c7b130f985ec1feffffffb3b3db18b334977ec2cac6cb4b10e1403e0b595c87cfe326640004e16de4499e020000006b483045022100bd74e5ca99f4aeb8815d006ca9b4882bdfaa02e293e485a7a4857646de244e2e022046f59d9a8959a641318fbc2cd8be563b122e4ff14d7f6d162ebf4048d1e23748012103bc2975fcbc44ff6d56218f2e9e1addf85b3af724f6475346a70a7096eb54ab85feffffffd723525026570dff3e9dbaa864aa1e22bb757ad2fb3673bc1eae1adcdbc70976b80000006b483045022100d57599542805eb286df9337354f693f0a8d4f5a3c73c85a25cde3b899145aeca022017f0390ddf6ea458b2eb6ee39f5d0f651f97429b9bea6c4abde1047b86814b6b012102cd00e458c09a6123e29e0b8c2290d3c6827f8f2eb998a9a4d116085883464133feffffff05905f0100000000001976a914235176ee123e9ef22fef548360e0f2610e90b7b488ac60ae0a000000000017a914c51515bb8dc892c3dccc31543674b3d8720bb45a87f8200a00000000001976a914a503447868b5db51fcd1bd1cfa7c0a1ccff728fa88ac234b27000000000017a91469f376289c56a1fef051fb95f9aece05a2fc7f4e8720a107000000000017a9147b40b96c116daf9ec16aed87a827d595834423ff8716490800", "vin": [{"sequence": 4294967294, "scriptSig": {"hex": "463043021f55f541c9675d7d1d258ef3a7999c133181941aabc2898475852b0251cd93f5022057e7889bafa147d2b2a4307161938791b3d3e3fcb5c220bb281e99ab753a19580121035375d86b554e504fcdbcde3a3367ef2ce980170226d4ac912fb44d1a7e8539b1", "asm": "3043021f55f541c9675d7d1d258ef3a7999c133181941aabc2898475852b0251cd93f5022057e7889bafa147d2b2a4307161938791b3d3e3fcb5c220bb281e99ab753a1958[ALL] 035375d86b554e504fcdbcde3a3367ef2ce980170226d4ac912fb44d1a7e8539b1"}, "vout": 0, "txid": "39b1e291f8767e26826ec47b5020f422f82bf5c8be798e54c92d88bac48cb510"}, {"sequence": 4294967294, "scriptSig": {"hex": "47304402206f31f4d1030cfa96fd6aa5e3079c362eed3dfface238209d96b029633dac250702206f716add954d96aec74fbfdea1d4b09ae348d97e844f506a87f48e80094e03070121028eda8aa7f837cda0dc224e2ec68e7cd49c1c2ca76bcb03829af802776e6c70c9", "asm": "304402206f31f4d1030cfa96fd6aa5e3079c362eed3dfface238209d96b029633dac250702206f716add954d96aec74fbfdea1d4b09ae348d97e844f506a87f48e80094e0307[ALL] 028eda8aa7f837cda0dc224e2ec68e7cd49c1c2ca76bcb03829af802776e6c70c9"}, "vout": 1, "txid": "0588bd2f8eb1881e0aada34e046846388959aec29465512b8ce816e1efa74854"}, {"sequence": 4294967294, "scriptSig": {"hex": "48304502210092b64e1a3a9a56fe8b468986fa55c263d82fbe83b0907093e3d91fdc413470b70220155e32467554cf51c4e012842a8d25ace76f70ec18ab29565feb7e0b45aba4fb012102a12d7c071a5c81ff3317d1fbd854428aa60d5c19e0551cd0130c7b130f985ec1", "asm": "304502210092b64e1a3a9a56fe8b468986fa55c263d82fbe83b0907093e3d91fdc413470b70220155e32467554cf51c4e012842a8d25ace76f70ec18ab29565feb7e0b45aba4fb[ALL] 02a12d7c071a5c81ff3317d1fbd854428aa60d5c19e0551cd0130c7b130f985ec1"}, "vout": 0, "txid": "0640e37a79e9a93ad9f1445f0611dc627a14356b79328e433156d4961792dca4"}, {"sequence": 4294967294, "scriptSig": {"hex": "483045022100bd74e5ca99f4aeb8815d006ca9b4882bdfaa02e293e485a7a4857646de244e2e022046f59d9a8959a641318fbc2cd8be563b122e4ff14d7f6d162ebf4048d1e23748012103bc2975fcbc44ff6d56218f2e9e1addf85b3af724f6475346a70a7096eb54ab85", "asm": "3045022100bd74e5ca99f4aeb8815d006ca9b4882bdfaa02e293e485a7a4857646de244e2e022046f59d9a8959a641318fbc2cd8be563b122e4ff14d7f6d162ebf4048d1e23748[ALL] 03bc2975fcbc44ff6d56218f2e9e1addf85b3af724f6475346a70a7096eb54ab85"}, "vout": 2, "txid": "9e49e46de104006426e3cf875c590b3e40e1104bcbc6cac27e9734b318dbb3b3"}, {"sequence": 4294967294, "scriptSig": {"hex": "483045022100d57599542805eb286df9337354f693f0a8d4f5a3c73c85a25cde3b899145aeca022017f0390ddf6ea458b2eb6ee39f5d0f651f97429b9bea6c4abde1047b86814b6b012102cd00e458c09a6123e29e0b8c2290d3c6827f8f2eb998a9a4d116085883464133", "asm": "3045022100d57599542805eb286df9337354f693f0a8d4f5a3c73c85a25cde3b899145aeca022017f0390ddf6ea458b2eb6ee39f5d0f651f97429b9bea6c4abde1047b86814b6b[ALL] 02cd00e458c09a6123e29e0b8c2290d3c6827f8f2eb998a9a4d116085883464133"}, "vout": 184, "txid": "7609c7dbdc1aae1ebc7336fbd27a75bb221eaa64a8ba9d3eff0d5726505223d7"}], "txid": "820fc4cbc4cd899e578835fb5a21547629fdadc97926dc796dfc7d7b5175a841", "blocktime": 1537876114, "version": 2, "confirmations": 11462, "time": 1537876114, "locktime": 542998, "vsize": 911, "size": 911}