{"hash": "820fdf8d8ec599fa6e7ed658089aa3b401d30f48099e5e73e6160e9341ffa3d8", "blockhash": "0000000000000000001f0ddff1eddb255c1121bcd4da4f1bc9a0da00cae72433", "vout": [{"scriptPubKey": {"reqSigs": 1, "hex": "76a9140c98ea67987ac029276ab3d082a56a703d00e6de88ac", "addresses": ["129cJ4toMkuLAVdUbJbM1N9pGRm5ofoxt1"], "asm": "OP_DUP OP_HASH160 0c98ea67987ac029276ab3d082a56a703d00e6de OP_EQUALVERIFY OP_CHECKSIG", "type": "pubkeyhash"}, "value": 0.00496356, "n": 0}, {"scriptPubKey": {"reqSigs": 1, "hex": "76a91408d5800958973c4c8d83e44184335ca9aedacc7b88ac", "addresses": ["1oiAnWSZEEeyVkpuRRMWEYyjoPSi5L5fU"], "asm": "OP_DUP OP_HASH160 08d5800958973c4c8d83e44184335ca9aedacc7b OP_EQUALVERIFY OP_CHECKSIG", "type": "pubkeyhash"}, "value": 0.0189065, "n": 1}], "hex": "0100000002926858b001725dbe04a0b441cf0e6fd5abdf7f2864ab564d97b7a710f9f10ab5000000006a473044022069d64e91b8c4f974ff37bfc1aba61607e63e8197f510c7da0613fc858859236a022067db2dc8f422b024b6ec201be97de5ba6bf5e8186763a2a33990b15b1d998d6d0121023e6c61551fc5549b9fb6a76cf7da4c8a9b2591b9f7d0d6b28c8fab663ff3266afdffffff35460c75d8ef6644539ff1b9bbabdd31d93f7bc452a8430ad19bc623b6bccffc000000006a47304402203d002b6f26dca5a7f4e26da98cd97d8fffd62cdd765cbb2ed2657e2b85c0285b0220718bb0ecdf7127aaec1602f9a87429eeb2ec6c301c271a48683ae2020205eddb0121023e6c61551fc5549b9fb6a76cf7da4c8a9b2591b9f7d0d6b28c8fab663ff3266afdffffff02e4920700000000001976a9140c98ea67987ac029276ab3d082a56a703d00e6de88ac5ad91c00000000001976a91408d5800958973c4c8d83e44184335ca9aedacc7b88ac10490800", "vin": [{"sequence": 4294967293, "scriptSig": {"hex": "473044022069d64e91b8c4f974ff37bfc1aba61607e63e8197f510c7da0613fc858859236a022067db2dc8f422b024b6ec201be97de5ba6bf5e8186763a2a33990b15b1d998d6d0121023e6c61551fc5549b9fb6a76cf7da4c8a9b2591b9f7d0d6b28c8fab663ff3266a", "asm": "3044022069d64e91b8c4f974ff37bfc1aba61607e63e8197f510c7da0613fc858859236a022067db2dc8f422b024b6ec201be97de5ba6bf5e8186763a2a33990b15b1d998d6d[ALL] 023e6c61551fc5549b9fb6a76cf7da4c8a9b2591b9f7d0d6b28c8fab663ff3266a"}, "vout": 0, "txid": "b50af1f910a7b7974d56ab64287fdfabd56f0ecf41b4a004be5d7201b0586892"}, {"sequence": 4294967293, "scriptSig": {"hex": "47304402203d002b6f26dca5a7f4e26da98cd97d8fffd62cdd765cbb2ed2657e2b85c0285b0220718bb0ecdf7127aaec1602f9a87429eeb2ec6c301c271a48683ae2020205eddb0121023e6c61551fc5549b9fb6a76cf7da4c8a9b2591b9f7d0d6b28c8fab663ff3266a", "asm": "304402203d002b6f26dca5a7f4e26da98cd97d8fffd62cdd765cbb2ed2657e2b85c0285b0220718bb0ecdf7127aaec1602f9a87429eeb2ec6c301c271a48683ae2020205eddb[ALL] 023e6c61551fc5549b9fb6a76cf7da4c8a9b2591b9f7d0d6b28c8fab663ff3266a"}, "vout": 0, "txid": "fccfbcb623c69bd10a43a852c47b3fd931ddabbbb9f19f534466efd8750c4635"}], "txid": "820fdf8d8ec599fa6e7ed658089aa3b401d30f48099e5e73e6160e9341ffa3d8", "blocktime": 1537872018, "version": 1, "confirmations": 11489, "time": 1537872018, "locktime": 542992, "vsize": 372, "size": 372}