{"hash": "821688d0a1073c5e340d7c8e0fdd0769ea446383db5f8b1f5b67faed1c0884cc", "blockhash": "00000000000000000024a2167bbff67b0be802c0b01cdd79e6331c2be6459f87", "vout": [{"scriptPubKey": {"reqSigs": 1, "hex": "76a914e8cea30989bd15530f819b766684b00dc7ba7cfa88ac", "addresses": ["1NDyJtNTjmwk5xPNhjgAMu4HDHigtobu1s"], "asm": "OP_DUP OP_HASH160 e8cea30989bd15530f819b766684b00dc7ba7cfa OP_EQUALVERIFY OP_CHECKSIG", "type": "pubkeyhash"}, "value": 1.00694742, "n": 0}, {"scriptPubKey": {"reqSigs": 1, "hex": "76a9142a4db31001e6d1a56e139780d9d0b032c860c95788ac", "addresses": ["14rgTiC9s2XQxT7p7cvqiyzjCj2bJQB3A6"], "asm": "OP_DUP OP_HASH160 2a4db31001e6d1a56e139780d9d0b032c860c957 OP_EQUALVERIFY OP_CHECKSIG", "type": "pubkeyhash"}, "value": 0.00895047, "n": 1}], "hex": "020000000721a8063b4f110cf586d567f6e63c68d4a8582af7cb43de70dc8d1fd7198da5c1000000006b483045022100a6505fab27d52844376fdad1ea4330db9679a76b68f42d7e7dc07e757ced3c6a0220347c283a055d2ed6a328f8cfe48b53ba20c8ce340cb75dd6cfc0514f0c17a03a012102b3d5d3a1eca59166883919c2152c2c4e82cc534412f9607a90c1ecdbd0a2dcb6feffffff335ab7898e3c5f0c5cc9e6b5c195d14f760e3ba88c9c299cb958e713b421dace000000006a47304402204712e63c5a69da2da6f64fbf510d1790756d8429ede75acc89f9ecc399a5cc3c022066cdf75faea0f4bb4060dc26eb5401c017d4ca2a7431aa7c1dfa50aa76c7eba40121039b46da3702b2307be898ce949e1ccf7d1069e28b207781ed8187056237722a57feffffff668238d1a76b6e29ab978be309996253315c54e20a76a9da6690666900f15351010000006a47304402203e74892122c50350a4eccf7ab79c0046c0e8eedb3211133161f43d4c8be95d47022053d76cb8aeb54b32595dc70f32e21e424ebbec552fc3e42d356d8c59176ba43b0121025499bcc3ee62a5478da589cee5b5c3280301ff4b84f6bea15599f2b2d2e0edabfeffffffa9924c94056470cd003b080440b8d04538b42cc4927e9984636e874b643cfb4a010000006a473044022076ddfb7a90c97778e032d5b26697dec0adb7acda0bebe77147bab3d6831b56cf022040a7d59fb075b5211f8c3095e383f62b9bc82a8499d0d7fd88cff997da13c042012103266d8a5943eed6358eaca7081a46dc28b89720a3bc144505af97da1982ea58f8feffffffc0ffe871618f097d6ab6a25e524768eda604752123a3d4d5c350203265c051692d0100006a47304402207b288e71371997c1b8b755636dacaf9a5b081686adfa1e2c39cf1995256d1f8a0220480e3448f503e445695df2ff6f7812b10830f8ba1a04b4a372893ed0a74abf8c0121037d214ceae4efca5df13d4cf911e93e8c54aceb1f487aa5feff3567361b9da54cfeffffffe8dc4cde69e849792cffcd5f2697488ce54b4e941b09e36f437130d6de04bff0000000006b483045022100bcd1391d4e7068ff77d66e41d80651d77b2bad951db711142f816559bc3744ff02206cfffec07a4e40736102730e7cbc2dbe4c27c21f48e17e3059bb6ac30c6d1290012102b3d5d3a1eca59166883919c2152c2c4e82cc534412f9607a90c1ecdbd0a2dcb6fefffffff52dd9f20d7406ac499a85868cbdf8c6d94e0aa129cb39ba21a9272c10b9993a000000006a47304402205f98a5cd010f19fbc92eb9471cb1d7205e8afceac796318b3dade8b61ce31106022059820e1e428235780ba243c072a0b282a3c4ee48e540da1b13eebd0b5a6029ba012103a21c2f5887dc25c6ee4f9ad725242c266de7be2dcd579b793b008f0e0602a648feffffff02d67a0006000000001976a914e8cea30989bd15530f819b766684b00dc7ba7cfa88ac47a80d00000000001976a9142a4db31001e6d1a56e139780d9d0b032c860c95788ac0d490800", "vin": [{"sequence": 4294967294, "scriptSig": {"hex": "483045022100a6505fab27d52844376fdad1ea4330db9679a76b68f42d7e7dc07e757ced3c6a0220347c283a055d2ed6a328f8cfe48b53ba20c8ce340cb75dd6cfc0514f0c17a03a012102b3d5d3a1eca59166883919c2152c2c4e82cc534412f9607a90c1ecdbd0a2dcb6", "asm": "3045022100a6505fab27d52844376fdad1ea4330db9679a76b68f42d7e7dc07e757ced3c6a0220347c283a055d2ed6a328f8cfe48b53ba20c8ce340cb75dd6cfc0514f0c17a03a[ALL] 02b3d5d3a1eca59166883919c2152c2c4e82cc534412f9607a90c1ecdbd0a2dcb6"}, "vout": 0, "txid": "c1a58d19d71f8ddc70de43cbf72a58a8d4683ce6f667d586f50c114f3b06a821"}, {"sequence": 4294967294, "scriptSig": {"hex": "47304402204712e63c5a69da2da6f64fbf510d1790756d8429ede75acc89f9ecc399a5cc3c022066cdf75faea0f4bb4060dc26eb5401c017d4ca2a7431aa7c1dfa50aa76c7eba40121039b46da3702b2307be898ce949e1ccf7d1069e28b207781ed8187056237722a57", "asm": "304402204712e63c5a69da2da6f64fbf510d1790756d8429ede75acc89f9ecc399a5cc3c022066cdf75faea0f4bb4060dc26eb5401c017d4ca2a7431aa7c1dfa50aa76c7eba4[ALL] 039b46da3702b2307be898ce949e1ccf7d1069e28b207781ed8187056237722a57"}, "vout": 0, "txid": "ceda21b413e758b99c299c8ca83b0e764fd195c1b5e6c95c0c5f3c8e89b75a33"}, {"sequence": 4294967294, "scriptSig": {"hex": "47304402203e74892122c50350a4eccf7ab79c0046c0e8eedb3211133161f43d4c8be95d47022053d76cb8aeb54b32595dc70f32e21e424ebbec552fc3e42d356d8c59176ba43b0121025499bcc3ee62a5478da589cee5b5c3280301ff4b84f6bea15599f2b2d2e0edab", "asm": "304402203e74892122c50350a4eccf7ab79c0046c0e8eedb3211133161f43d4c8be95d47022053d76cb8aeb54b32595dc70f32e21e424ebbec552fc3e42d356d8c59176ba43b[ALL] 025499bcc3ee62a5478da589cee5b5c3280301ff4b84f6bea15599f2b2d2e0edab"}, "vout": 1, "txid": "5153f10069669066daa9760ae2545c3153629909e38b97ab296e6ba7d1388266"}, {"sequence": 4294967294, "scriptSig": {"hex": "473044022076ddfb7a90c97778e032d5b26697dec0adb7acda0bebe77147bab3d6831b56cf022040a7d59fb075b5211f8c3095e383f62b9bc82a8499d0d7fd88cff997da13c042012103266d8a5943eed6358eaca7081a46dc28b89720a3bc144505af97da1982ea58f8", "asm": "3044022076ddfb7a90c97778e032d5b26697dec0adb7acda0bebe77147bab3d6831b56cf022040a7d59fb075b5211f8c3095e383f62b9bc82a8499d0d7fd88cff997da13c042[ALL] 03266d8a5943eed6358eaca7081a46dc28b89720a3bc144505af97da1982ea58f8"}, "vout": 1, "txid": "4afb3c644b876e6384997e92c42cb43845d0b84004083b00cd706405944c92a9"}, {"sequence": 4294967294, "scriptSig": {"hex": "47304402207b288e71371997c1b8b755636dacaf9a5b081686adfa1e2c39cf1995256d1f8a0220480e3448f503e445695df2ff6f7812b10830f8ba1a04b4a372893ed0a74abf8c0121037d214ceae4efca5df13d4cf911e93e8c54aceb1f487aa5feff3567361b9da54c", "asm": "304402207b288e71371997c1b8b755636dacaf9a5b081686adfa1e2c39cf1995256d1f8a0220480e3448f503e445695df2ff6f7812b10830f8ba1a04b4a372893ed0a74abf8c[ALL] 037d214ceae4efca5df13d4cf911e93e8c54aceb1f487aa5feff3567361b9da54c"}, "vout": 301, "txid": "6951c065322050c3d5d4a323217504a6ed6847525ea2b66a7d098f6171e8ffc0"}, {"sequence": 4294967294, "scriptSig": {"hex": "483045022100bcd1391d4e7068ff77d66e41d80651d77b2bad951db711142f816559bc3744ff02206cfffec07a4e40736102730e7cbc2dbe4c27c21f48e17e3059bb6ac30c6d1290012102b3d5d3a1eca59166883919c2152c2c4e82cc534412f9607a90c1ecdbd0a2dcb6", "asm": "3045022100bcd1391d4e7068ff77d66e41d80651d77b2bad951db711142f816559bc3744ff02206cfffec07a4e40736102730e7cbc2dbe4c27c21f48e17e3059bb6ac30c6d1290[ALL] 02b3d5d3a1eca59166883919c2152c2c4e82cc534412f9607a90c1ecdbd0a2dcb6"}, "vout": 0, "txid": "f0bf04ded63071436fe3091b944e4be58c4897265fcdff2c7949e869de4cdce8"}, {"sequence": 4294967294, "scriptSig": {"hex": "47304402205f98a5cd010f19fbc92eb9471cb1d7205e8afceac796318b3dade8b61ce31106022059820e1e428235780ba243c072a0b282a3c4ee48e540da1b13eebd0b5a6029ba012103a21c2f5887dc25c6ee4f9ad725242c266de7be2dcd579b793b008f0e0602a648", "asm": "304402205f98a5cd010f19fbc92eb9471cb1d7205e8afceac796318b3dade8b61ce31106022059820e1e428235780ba243c072a0b282a3c4ee48e540da1b13eebd0b5a6029ba[ALL] 03a21c2f5887dc25c6ee4f9ad725242c266de7be2dcd579b793b008f0e0602a648"}, "vout": 0, "txid": "3a99b9102c27a921ba39cb29a10a4ed9c6f8bd8c86859a49ac06740df2d92df5"}], "txid": "821688d0a1073c5e340d7c8e0fdd0769ea446383db5f8b1f5b67faed1c0884cc", "blocktime": 1537870564, "version": 2, "confirmations": 11515, "time": 1537870564, "locktime": 542989, "vsize": 1109, "size": 1109}