{"hash": "d0aeb728b46ee8acc30d4176f25a40a7ebf49352ec70f12b6e5e7d2344e89244", "blockhash": "0000000000000000001f76057863aec43deb6fa401d9628bb513d65a8098bfab", "vout": [{"scriptPubKey": {"reqSigs": 1, "hex": "76a914a47bd1fea4ce80da15ab547e6946c5d8bb80bc2388ac", "addresses": ["1Fzi9eQQH6rroUN17juKPhbdUKmVfciety"], "asm": "OP_DUP OP_HASH160 a47bd1fea4ce80da15ab547e6946c5d8bb80bc23 OP_EQUALVERIFY OP_CHECKSIG", "type": "pubkeyhash"}, "value": 0.00935138, "n": 0}, {"scriptPubKey": {"reqSigs": 1, "hex": "0014c066d63a410799359f0fc1bfc57468293d77607c", "addresses": ["bc1qcpndvwjpq7vnt8c0cxlu2arg9y7hwcrukk4zj3"], "asm": "0 c066d63a410799359f0fc1bfc57468293d77607c", "type": "witness_v0_keyhash"}, "value": 0.00064274, "n": 1}], "hex": "01000000000101dca7d51c96fb7b027a63d77f0d7873abb0b6769bf2df326ec643cd12578a5e6f0400000017160014fc3a92917ba33d997f9b21121641d57129930f71ffffffff02e2440e00000000001976a914a47bd1fea4ce80da15ab547e6946c5d8bb80bc2388ac12fb000000000000160014c066d63a410799359f0fc1bfc57468293d77607c02483045022100b0c726efd00d31417855b59422ecabab0910e58f87dacb8e2275e56adc2270d002207c946cd86845078c96930ca0bf56a128672b3972d567b758ced1197426ae49b3012102cf828d27879d40a235f8b9b4ebaacbb95bb781987277237b5b2c0aa25b11959600000000", "vin": [{"txinwitness": ["3045022100b0c726efd00d31417855b59422ecabab0910e58f87dacb8e2275e56adc2270d002207c946cd86845078c96930ca0bf56a128672b3972d567b758ced1197426ae49b301", "02cf828d27879d40a235f8b9b4ebaacbb95bb781987277237b5b2c0aa25b119596"], "sequence": 4294967295, "scriptSig": {"hex": "160014fc3a92917ba33d997f9b21121641d57129930f71", "asm": "0014fc3a92917ba33d997f9b21121641d57129930f71"}, "vout": 4, "txid": "6f5e8a5712cd43c66e32dff29b76b6b0ab73780d7fd7637a027bfb961cd5a7dc"}], "txid": "8218efe6d8bd3d413993762fa06a6aac7e0fda15939c4b4cdd3b8cae90193107", "blocktime": 1537873891, "version": 1, "confirmations": 11478, "time": 1537873891, "locktime": 0, "vsize": 167, "size": 249}