{"hash": "82215c22d5467b58bd82c6314d7002787039766b3aa67994410a92c1765b7d71", "blockhash": "000000000000000000022b45ed06c6f4ccd3cf7fb5ba4856ebd2e58215665228", "vout": [{"scriptPubKey": {"reqSigs": 1, "hex": "76a9140f4ca3948dbe067d72b5dec79fce6652fa9c9b4088ac", "addresses": ["12PtwrA4fqk9sm6zP2Lue9vqVfpxLQhQfu"], "asm": "OP_DUP OP_HASH160 0f4ca3948dbe067d72b5dec79fce6652fa9c9b40 OP_EQUALVERIFY OP_CHECKSIG", "type": "pubkeyhash"}, "value": 0.07563451, "n": 0}, {"scriptPubKey": {"reqSigs": 1, "hex": "a914551e805f4dc7ddba22701b5fa1cba299641f9c4687", "addresses": ["39T5u8MGiioL6zrnZYS6owAus4Aeuj6cAP"], "asm": "OP_HASH160 551e805f4dc7ddba22701b5fa1cba299641f9c46 OP_EQUAL", "type": "scripthash"}, "value": 0.09171, "n": 1}], "hex": "01000000018724365f3a6ba7ee39c3cace0d9a3dbda560d38f74034207f61bc92dc01ea70b010000006b483045022100d401d99b4dc4ec47969a9d8d4ae8492ca6a8de88106f5965d5069b629265c87b022032195009dc16a42badc8fe371dd0a84cc00383d23fc527b2a35cc677f2e1ce88012102ab9871d7e31c01af26bc3425d437b30cefb7067f6f961d680f3ccb034b154b33ffffffff02bb687300000000001976a9140f4ca3948dbe067d72b5dec79fce6652fa9c9b4088ac38f08b000000000017a914551e805f4dc7ddba22701b5fa1cba299641f9c468700000000", "vin": [{"sequence": 4294967295, "scriptSig": {"hex": "483045022100d401d99b4dc4ec47969a9d8d4ae8492ca6a8de88106f5965d5069b629265c87b022032195009dc16a42badc8fe371dd0a84cc00383d23fc527b2a35cc677f2e1ce88012102ab9871d7e31c01af26bc3425d437b30cefb7067f6f961d680f3ccb034b154b33", "asm": "3045022100d401d99b4dc4ec47969a9d8d4ae8492ca6a8de88106f5965d5069b629265c87b022032195009dc16a42badc8fe371dd0a84cc00383d23fc527b2a35cc677f2e1ce88[ALL] 02ab9871d7e31c01af26bc3425d437b30cefb7067f6f961d680f3ccb034b154b33"}, "vout": 1, "txid": "0ba71ec02dc91bf6074203748fd360a5bd3d9a0dcecac339eea76b3a5f362487"}], "txid": "82215c22d5467b58bd82c6314d7002787039766b3aa67994410a92c1765b7d71", "blocktime": 1537869901, "version": 1, "confirmations": 11522, "time": 1537869901, "locktime": 0, "vsize": 224, "size": 224}