{"hash": "8230a7caf87c420c45e04a63178c77f3a8cfb4bfce1f857579b8f20371a19967", "blockhash": "0000000000000000000e13cef7c366c0283d82e591d1acd082e914b08063cdf1", "vout": [{"scriptPubKey": {"reqSigs": 1, "hex": "76a914d243e6abb9a60fbff430b421d2df4b7d59ec186088ac", "addresses": ["1LAnF8h3qMGx3TSwNUHVneBZUEpwE4gu3D"], "asm": "OP_DUP OP_HASH160 d243e6abb9a60fbff430b421d2df4b7d59ec1860 OP_EQUALVERIFY OP_CHECKSIG", "type": "pubkeyhash"}, "value": 0.00077314, "n": 0}, {"scriptPubKey": {"reqSigs": 1, "hex": "76a914ba5b429b67ebb80c1f048a492a6b41e1bf54aba788ac", "addresses": ["1HzN1YrUv442DCS379b4qnpgTJuUgjJzUn"], "asm": "OP_DUP OP_HASH160 ba5b429b67ebb80c1f048a492a6b41e1bf54aba7 OP_EQUALVERIFY OP_CHECKSIG", "type": "pubkeyhash"}, "value": 5.46e-06, "n": 1}, {"scriptPubKey": {"type": "nulldata", "hex": "6a146f6d6e69000000000000001f00000004fd511a60", "asm": "OP_RETURN 6f6d6e69000000000000001f00000004fd511a60"}, "value": 0.0, "n": 2}], "hex": "01000000014f18a6768ad037db5fa23704d24c234e3a032a0c744cd462defa3c4806f69810000000006b483045022100fc32d303190a58b588cd5626d5fc5b13ec593af21c3810c773d001a11199c8f702200422908632e57ee952bc95b2173b59dd78f5c7558258c2d681c9028ce2a55dbf01210271977291b74f1f5f5c42157e8aae804664eaaeccfd097918450d37f28fb94d77ffffffff03022e0100000000001976a914d243e6abb9a60fbff430b421d2df4b7d59ec186088ac22020000000000001976a914ba5b429b67ebb80c1f048a492a6b41e1bf54aba788ac0000000000000000166a146f6d6e69000000000000001f00000004fd511a6000000000", "vin": [{"sequence": 4294967295, "scriptSig": {"hex": "483045022100fc32d303190a58b588cd5626d5fc5b13ec593af21c3810c773d001a11199c8f702200422908632e57ee952bc95b2173b59dd78f5c7558258c2d681c9028ce2a55dbf01210271977291b74f1f5f5c42157e8aae804664eaaeccfd097918450d37f28fb94d77", "asm": "3045022100fc32d303190a58b588cd5626d5fc5b13ec593af21c3810c773d001a11199c8f702200422908632e57ee952bc95b2173b59dd78f5c7558258c2d681c9028ce2a55dbf[ALL] 0271977291b74f1f5f5c42157e8aae804664eaaeccfd097918450d37f28fb94d77"}, "vout": 0, "txid": "1098f606483cfade62d44c740c2a033a4e234cd20437a25fdb37d08a76a6184f"}], "txid": "8230a7caf87c420c45e04a63178c77f3a8cfb4bfce1f857579b8f20371a19967", "blocktime": 1537871767, "version": 1, "confirmations": 11491, "time": 1537871767, "locktime": 0, "vsize": 257, "size": 257}