{"hash": "82327da672fd975ef017b3d295ebc1b618b468ca64c65ee4a323fb192e007245", "blockhash": "0000000000000000001f76057863aec43deb6fa401d9628bb513d65a8098bfab", "vout": [{"scriptPubKey": {"reqSigs": 1, "hex": "a91454e3a2121dfc0a57b0ded997cc3636791529516a87", "addresses": ["39RsNt6ebSWetWGRYhGN6D27TwQCeG9iKr"], "asm": "OP_HASH160 54e3a2121dfc0a57b0ded997cc3636791529516a OP_EQUAL", "type": "scripthash"}, "value": 0.489803, "n": 0}, {"scriptPubKey": {"reqSigs": 1, "hex": "76a914293c5e47a5398b9037aede64da926d2c1772767688ac", "addresses": ["14m32Kx76M7tyVVg7LZY7aeYeFZk7bQhz6"], "asm": "OP_DUP OP_HASH160 293c5e47a5398b9037aede64da926d2c17727676 OP_EQUALVERIFY OP_CHECKSIG", "type": "pubkeyhash"}, "value": 14.8854454, "n": 1}], "hex": "01000000012e247ed7e353443d677f6d05d314f9c25831ea3574a9b8b8e78d1fbe8ef2c56a010000008a47304402201551d8fefade91c555459b0d21f472a3922e6238a97a3ba676be85f4cd28bcfc02204c3e1a1aad658f595f31ebfe76eeb3d6f608821acee3ad753bddd312aebed3fc0141040ecb939326370ec3164e659195bdf42c9c28014017226ee6fb1218a0834468af5d9cab08d2aa8ebb1c45c2db33905cadd7c52552b207da59e75ebfec5bb423b9fdffffff024c61eb020000000017a91454e3a2121dfc0a57b0ded997cc3636791529516a871c63b958000000001976a914293c5e47a5398b9037aede64da926d2c1772767688ac14490800", "vin": [{"sequence": 4294967293, "scriptSig": {"hex": "47304402201551d8fefade91c555459b0d21f472a3922e6238a97a3ba676be85f4cd28bcfc02204c3e1a1aad658f595f31ebfe76eeb3d6f608821acee3ad753bddd312aebed3fc0141040ecb939326370ec3164e659195bdf42c9c28014017226ee6fb1218a0834468af5d9cab08d2aa8ebb1c45c2db33905cadd7c52552b207da59e75ebfec5bb423b9", "asm": "304402201551d8fefade91c555459b0d21f472a3922e6238a97a3ba676be85f4cd28bcfc02204c3e1a1aad658f595f31ebfe76eeb3d6f608821acee3ad753bddd312aebed3fc[ALL] 040ecb939326370ec3164e659195bdf42c9c28014017226ee6fb1218a0834468af5d9cab08d2aa8ebb1c45c2db33905cadd7c52552b207da59e75ebfec5bb423b9"}, "vout": 1, "txid": "6ac5f28ebe1f8de7b8b8a97435ea3158c2f914d3056d7f673d4453e3d77e242e"}], "txid": "82327da672fd975ef017b3d295ebc1b618b468ca64c65ee4a323fb192e007245", "blocktime": 1537873891, "version": 1, "confirmations": 11477, "time": 1537873891, "locktime": 542996, "vsize": 255, "size": 255}