{"hash": "3a7b728773af82ff63e577d91d08ba0bbd3d89fd35bdbac4ceb16c4dd83f4f2a", "blockhash": "0000000000000000001cda96e906b7601b7a6fb1a3b62bca570a9e5d8f4b3de1", "vout": [{"scriptPubKey": {"reqSigs": 1, "hex": "76a914a805c2e5528a4adc59d56b6ae7258387cdefa8e588ac", "addresses": ["1GKRRXmUtW2GhE6HxZYapTTR3S1tgpnSdq"], "asm": "OP_DUP OP_HASH160 a805c2e5528a4adc59d56b6ae7258387cdefa8e5 OP_EQUALVERIFY OP_CHECKSIG", "type": "pubkeyhash"}, "value": 0.0031, "n": 0}, {"scriptPubKey": {"reqSigs": 1, "hex": "76a9146bc2d92d473aba4b6d6a7ebeb75618a5d64c287388ac", "addresses": ["1Apnipvs6LyGX83s79U6Xx159ttyyVJJHa"], "asm": "OP_DUP OP_HASH160 6bc2d92d473aba4b6d6a7ebeb75618a5d64c2873 OP_EQUALVERIFY OP_CHECKSIG", "type": "pubkeyhash"}, "value": 0.04, "n": 1}, {"scriptPubKey": {"reqSigs": 1, "hex": "a914e640f43ea28f5155e4c2a557d263d1804a3047a287", "addresses": ["3NgV9kegwWygV7diZ5RcsgbUT7tpYNSnYj"], "asm": "OP_HASH160 e640f43ea28f5155e4c2a557d263d1804a3047a2 OP_EQUAL", "type": "scripthash"}, "value": 18.88633224, "n": 2}, {"scriptPubKey": {"reqSigs": 1, "hex": "76a914217b49d960b6ce0d204cdf30ab86945527f0ebec88ac", "addresses": ["1442zZhGrMayGYh8P1fzuPBPqyb2tKyURk"], "asm": "OP_DUP OP_HASH160 217b49d960b6ce0d204cdf30ab86945527f0ebec OP_EQUALVERIFY OP_CHECKSIG", "type": "pubkeyhash"}, "value": 0.03837, "n": 3}], "hex": "02000000000101d1a2c15d6cd8318d2492b05c1ed46a41ae8c92d5a7a95def6bdada5a632048550000000017160014da498a624fa093a61ac9df88f27db37deae0f512fdffffff04f0ba0400000000001976a914a805c2e5528a4adc59d56b6ae7258387cdefa8e588ac00093d00000000001976a9146bc2d92d473aba4b6d6a7ebeb75618a5d64c287388ac884192700000000017a914e640f43ea28f5155e4c2a557d263d1804a3047a287488c3a00000000001976a914217b49d960b6ce0d204cdf30ab86945527f0ebec88ac02483045022100c6669bd82755b470eccd2051e21ff8e5d226287db709f62dd5290e356579932702205f3ef2737551a2cd98e13617b4400ba40d2b3ae89f5b3d8d3798fb1111b1465f0121028c2ae1b744ab98188ffda2432bea4225ec4d99425f7cc7b11b922860428c1fd7fb480800", "vin": [{"txinwitness": ["3045022100c6669bd82755b470eccd2051e21ff8e5d226287db709f62dd5290e356579932702205f3ef2737551a2cd98e13617b4400ba40d2b3ae89f5b3d8d3798fb1111b1465f01", "028c2ae1b744ab98188ffda2432bea4225ec4d99425f7cc7b11b922860428c1fd7"], "sequence": 4294967293, "scriptSig": {"hex": "160014da498a624fa093a61ac9df88f27db37deae0f512", "asm": "0014da498a624fa093a61ac9df88f27db37deae0f512"}, "vout": 0, "txid": "554820635adada6bef5da9a7d5928cae416ad41e5cb092248d31d86c5dc1a2d1"}], "txid": "823588b279ed9e594d07275d8f62f0e2fa061885b43375ff692f0875f55bb5b2", "blocktime": 1537873282, "version": 2, "confirmations": 11484, "time": 1537873282, "locktime": 542971, "vsize": 236, "size": 318}