{"hash": "829c1ef78d86d967eec3115ee9faf28e0b5586054d964c97f54fa537d2b87bca", "blockhash": "0000000000000000001f76057863aec43deb6fa401d9628bb513d65a8098bfab", "vout": [{"scriptPubKey": {"reqSigs": 1, "hex": "a914e8db75c900cf08f06518e96d167331f2a4abfb3387", "addresses": ["3NvFbQMAkkqEFj4i1sYPPLkSWzxTFUchjA"], "asm": "OP_HASH160 e8db75c900cf08f06518e96d167331f2a4abfb33 OP_EQUAL", "type": "scripthash"}, "value": 0.04999574, "n": 0}], "hex": "01000000000101734c48123c668b0bdff47dd6fb612b4ee64b21a13100ffe98f44029fe819d6c8000000001716001436a1c997918916521ef81b47e1efc659eac4eb13ffffffff0196494c000000000017a914e8db75c900cf08f06518e96d167331f2a4abfb338702483045022100cb6f8c22713036541e9016fc7e5cd49039367b19b41ca955bd57647c15254c2a022043df276c4ae21b45d2e214a2679fc62fb04583c25ea6f81bbb3048d63d0c3d6c0121021aa83fef0982ef8d68965a050fcae8d484eb6a0b0dac9358a8dc0d214ccf640300000000", "vin": [{"txinwitness": ["3045022100cb6f8c22713036541e9016fc7e5cd49039367b19b41ca955bd57647c15254c2a022043df276c4ae21b45d2e214a2679fc62fb04583c25ea6f81bbb3048d63d0c3d6c01", "021aa83fef0982ef8d68965a050fcae8d484eb6a0b0dac9358a8dc0d214ccf6403"], "sequence": 4294967295, "scriptSig": {"hex": "16001436a1c997918916521ef81b47e1efc659eac4eb13", "asm": "001436a1c997918916521ef81b47e1efc659eac4eb13"}, "vout": 0, "txid": "c8d619e89f02448fe9ff0031a1214be64e2b61fbd67df4df0b8b663c12484c73"}], "txid": "8237c0d44cc435ac7926fadd59f359b6f1aa3325e091f4ddda2c5931cd818afd", "blocktime": 1537873891, "version": 1, "confirmations": 11478, "time": 1537873891, "locktime": 0, "vsize": 134, "size": 216}