{"hash": "fcaac0c623f445032efd6dda4ba7737cf629a77436f92bd38430dd9e0e8a20f3", "blockhash": "0000000000000000000dcc0f55137456b1a82d3642486a52398922ac4d620174", "vout": [{"scriptPubKey": {"reqSigs": 1, "hex": "a91445da455061835fdea6a247cd297ff311234aa0de87", "addresses": ["384N2Vr7ckdwuyfzG2WS5ccomZJwWwQvQm"], "asm": "OP_HASH160 45da455061835fdea6a247cd297ff311234aa0de OP_EQUAL", "type": "scripthash"}, "value": 0.00312, "n": 0}, {"scriptPubKey": {"reqSigs": 1, "hex": "00145326aca212d3dcdc7270f94cda131d8b834f9fb8", "addresses": ["bc1q2vn2egsj60wdcunsl9xd5yca3wp5l8acmgth5j"], "asm": "0 5326aca212d3dcdc7270f94cda131d8b834f9fb8", "type": "witness_v0_keyhash"}, "value": 7.317e-05, "n": 1}], "hex": "01000000000101239a0ef3df84eefcd610605347cdc45907e20398b2582124f14fda2a46ff856a0000000000ffffffff02c0c204000000000017a91445da455061835fdea6a247cd297ff311234aa0de87951c0000000000001600145326aca212d3dcdc7270f94cda131d8b834f9fb802483045022100e3ba137712532e1826e2b0d910d3dabe73c4c914dc9b922579cd4fae6848a33d02207f3cfd270d7ac2a24b36c6a875d3bb4fc9eabad8b6017dcc5fca091c2ab166bb0121021bb3a107c390d2b933f0103ecbabe8ea192e539c8d75007c4d8a13ba2df6e6c200000000", "vin": [{"txinwitness": ["3045022100e3ba137712532e1826e2b0d910d3dabe73c4c914dc9b922579cd4fae6848a33d02207f3cfd270d7ac2a24b36c6a875d3bb4fc9eabad8b6017dcc5fca091c2ab166bb01", "021bb3a107c390d2b933f0103ecbabe8ea192e539c8d75007c4d8a13ba2df6e6c2"], "sequence": 4294967295, "scriptSig": {"hex": "", "asm": ""}, "vout": 0, "txid": "6a85ff462ada4ff1242158b29803e20759c4cd47536010d6fcee84dff30e9a23"}], "txid": "823a9e35cb68df3aa817b4c41e56b4ca2227773311d87c51ed127d58b264f543", "blocktime": 1537870268, "version": 1, "confirmations": 11518, "time": 1537870268, "locktime": 0, "vsize": 142, "size": 224}