{"hash": "823eb632c6fc97276a0a305e81fcf35b5401342fe33db9c1656db5e467255d13", "blockhash": "0000000000000000001cda96e906b7601b7a6fb1a3b62bca570a9e5d8f4b3de1", "vout": [{"scriptPubKey": {"reqSigs": 1, "hex": "76a91416b43b1baab2e6b017d4db22c8786e57a73564de88ac", "addresses": ["1353mtAQcxKLPEa9BEhJU7Z44ypami3ySx"], "asm": "OP_DUP OP_HASH160 16b43b1baab2e6b017d4db22c8786e57a73564de OP_EQUALVERIFY OP_CHECKSIG", "type": "pubkeyhash"}, "value": 0.02963021, "n": 0}, {"scriptPubKey": {"reqSigs": 1, "hex": "76a9146ea9e874f152cea2ec3dd19df23a014f348e0e3e88ac", "addresses": ["1B68sX5NFrbLnyeu5A5W51uZ6X4jjE456W"], "asm": "OP_DUP OP_HASH160 6ea9e874f152cea2ec3dd19df23a014f348e0e3e OP_EQUALVERIFY OP_CHECKSIG", "type": "pubkeyhash"}, "value": 0.070367, "n": 1}], "hex": "010000000182280bdd99e82e0f6c1f94f661ba85df2b066b4dcdcb95d8e2b000aaad15f939000000006a47304402205a27d309a36ce20bc51ee9c8168ca636559fe8324e1daa7abc32948cf97f1ffc02205ae6f5a2f5d2a2e5dafdfe566ffed87d8dfdc9fe099d24ab86d3e53824215d2d01210247f32476b7564f9d7f322156c4d4e31eb376091953f6a266adbdd42f2af4fdc3ffffffff024d362d00000000001976a91416b43b1baab2e6b017d4db22c8786e57a73564de88ac1c5f6b00000000001976a9146ea9e874f152cea2ec3dd19df23a014f348e0e3e88ac00000000", "vin": [{"sequence": 4294967295, "scriptSig": {"hex": "47304402205a27d309a36ce20bc51ee9c8168ca636559fe8324e1daa7abc32948cf97f1ffc02205ae6f5a2f5d2a2e5dafdfe566ffed87d8dfdc9fe099d24ab86d3e53824215d2d01210247f32476b7564f9d7f322156c4d4e31eb376091953f6a266adbdd42f2af4fdc3", "asm": "304402205a27d309a36ce20bc51ee9c8168ca636559fe8324e1daa7abc32948cf97f1ffc02205ae6f5a2f5d2a2e5dafdfe566ffed87d8dfdc9fe099d24ab86d3e53824215d2d[ALL] 0247f32476b7564f9d7f322156c4d4e31eb376091953f6a266adbdd42f2af4fdc3"}, "vout": 0, "txid": "39f915adaa00b0e2d895cbcd4d6b062bdf85ba61f6941f6c0f2ee899dd0b2882"}], "txid": "823eb632c6fc97276a0a305e81fcf35b5401342fe33db9c1656db5e467255d13", "blocktime": 1537873282, "version": 1, "confirmations": 11485, "time": 1537873282, "locktime": 0, "vsize": 225, "size": 225}