{"hash": "ad63ae3293667a71085219d1ff8f1ad7cb6b600acbfdfbd44c13bc3cb8462ddc", "blockhash": "0000000000000000000dcc0f55137456b1a82d3642486a52398922ac4d620174", "vout": [{"scriptPubKey": {"reqSigs": 1, "hex": "001409f353ce381226cb1d4ddc29733f7649078d4b8e", "addresses": ["bc1qp8e48n3czgnvk82dms5hx0mkfyrc6juwgy0awe"], "asm": "0 09f353ce381226cb1d4ddc29733f7649078d4b8e", "type": "witness_v0_keyhash"}, "value": 0.00269372, "n": 0}, {"scriptPubKey": {"reqSigs": 1, "hex": "76a91419787b539f0b3f47bc3f05eff5e914bbb4c9444088ac", "addresses": ["13KgE1pZvauNfaQjkzB7LrLzCyiTPWMoRr"], "asm": "OP_DUP OP_HASH160 19787b539f0b3f47bc3f05eff5e914bbb4c94440 OP_EQUALVERIFY OP_CHECKSIG", "type": "pubkeyhash"}, "value": 0.01152651, "n": 1}], "hex": "010000000001019250fbd3c055187a7dfd774b88c87f51c6b6485f1474e6cd3fb309b89bd6410e0100000000ffffffff023c1c04000000000016001409f353ce381226cb1d4ddc29733f7649078d4b8e8b961100000000001976a91419787b539f0b3f47bc3f05eff5e914bbb4c9444088ac02473044022073489cf9c10aa4404024a467c3b9aecc8ec995c8a231222584c42751f8981dec02203c295ee48643eae84dcaf4e8238a55e96f9dbcad2e6c67ee93ed55b69bae2b910121031a46e690cc4e8f19e83e6b250fe9cba28d7263c3206cbbfb1a11246c90755b2800000000", "vin": [{"txinwitness": ["3044022073489cf9c10aa4404024a467c3b9aecc8ec995c8a231222584c42751f8981dec02203c295ee48643eae84dcaf4e8238a55e96f9dbcad2e6c67ee93ed55b69bae2b9101", "031a46e690cc4e8f19e83e6b250fe9cba28d7263c3206cbbfb1a11246c90755b28"], "sequence": 4294967295, "scriptSig": {"hex": "", "asm": ""}, "vout": 1, "txid": "0e41d69bb809b33fcde674145f48b6c6517fc8884b77fd7d7a1855c0d3fb5092"}], "txid": "823fdfe1214673f4e59280648d0310d913377547564be99e384f522aa33ff0a1", "blocktime": 1537870268, "version": 1, "confirmations": 11518, "time": 1537870268, "locktime": 0, "vsize": 144, "size": 225}