{"hash": "fc51e301cbe46fe926118ec784950369b64e3d8f719670ff7d21c65ee7619446", "blockhash": "00000000000000000017f5eb5941039fbcee6240d03bc1f2f8e35350df66a1d8", "vout": [{"scriptPubKey": {"reqSigs": 1, "hex": "76a914d3a621167ee76ce14f9f38310f8a00be688bb45388ac", "addresses": ["1LJ6bLeqdwCUShPYwZMMWZP53RoZjzBuzu"], "asm": "OP_DUP OP_HASH160 d3a621167ee76ce14f9f38310f8a00be688bb453 OP_EQUALVERIFY OP_CHECKSIG", "type": "pubkeyhash"}, "value": 0.0010694, "n": 0}, {"scriptPubKey": {"reqSigs": 1, "hex": "a9140be7846be16b05bea00dbec2fcd7e045a793cb1787", "addresses": ["32mxhko5mJHfkbkDPpz7SfdJwEJi21P1WK"], "asm": "OP_HASH160 0be7846be16b05bea00dbec2fcd7e045a793cb17 OP_EQUAL", "type": "scripthash"}, "value": 0.18108022, "n": 1}], "hex": "0100000000010152c938347dd25d3c27e55a68d1048c433f588551d271b303a5af3e090feb172c01000000232200202c66ece6da72bcbfeadf83a91236f4891c13e14d8ecebdcaa81666fc1aa73a31ffffffff02bca10100000000001976a914d3a621167ee76ce14f9f38310f8a00be688bb45388ac764e14010000000017a9140be7846be16b05bea00dbec2fcd7e045a793cb1787040047304402201f66285574835d0ac4be45d6e3619689c57f3ea5084b48341e45db4381bee03b02200f707b2e22ddf0c3d04e8b8ed3996f63e4a6863d12a19d13dd5ac002c5eb415e01483045022100f59e842a32e8fa06ee81f0ab3d01ba284cf29a2655d4f6478aa23081398915290220527a4d885e64082ac8c0e2f4d8531358bc80e19c0f8523603d4f189c28cb2a0301475221029e6fbb942d34a473faaa5557c1bfe08d72102f0b9754ad140fd369d7a3ba3cdc2103871fc2ca08e6950b38867e8e6a0e94ee625223d3aa0df5c65f414c6d784467e252ae00000000", "vin": [{"txinwitness": ["", "304402201f66285574835d0ac4be45d6e3619689c57f3ea5084b48341e45db4381bee03b02200f707b2e22ddf0c3d04e8b8ed3996f63e4a6863d12a19d13dd5ac002c5eb415e01", "3045022100f59e842a32e8fa06ee81f0ab3d01ba284cf29a2655d4f6478aa23081398915290220527a4d885e64082ac8c0e2f4d8531358bc80e19c0f8523603d4f189c28cb2a0301", "5221029e6fbb942d34a473faaa5557c1bfe08d72102f0b9754ad140fd369d7a3ba3cdc2103871fc2ca08e6950b38867e8e6a0e94ee625223d3aa0df5c65f414c6d784467e252ae"], "sequence": 4294967295, "scriptSig": {"hex": "2200202c66ece6da72bcbfeadf83a91236f4891c13e14d8ecebdcaa81666fc1aa73a31", "asm": "00202c66ece6da72bcbfeadf83a91236f4891c13e14d8ecebdcaa81666fc1aa73a31"}, "vout": 1, "txid": "2c17eb0f093eafa503b371d25185583f438c04d1685ae5273c5dd27d3438c952"}], "txid": "8240e3fc39ca67e48a13fc35259e16e1240bf70a15f8af924e9361c89ba3f877", "blocktime": 1537874412, "version": 1, "confirmations": 11468, "time": 1537874412, "locktime": 0, "vsize": 208, "size": 373}