{"hash": "93572cf3c9adbba6aad896d353f484a67102606d79013b555f6ca4653abdbdb1", "blockhash": "00000000000000000004ffacab907a6b429b9a5745fa0b75af4234bf69dd7176", "vout": [{"scriptPubKey": {"reqSigs": 1, "hex": "76a91494e7ede788ad1106623bf47132316fd7fff2032c88ac", "addresses": ["1EaLr85x9AQAhHg14ZZgjtt3PatNRxpmSQ"], "asm": "OP_DUP OP_HASH160 94e7ede788ad1106623bf47132316fd7fff2032c OP_EQUALVERIFY OP_CHECKSIG", "type": "pubkeyhash"}, "value": 0.078285, "n": 0}, {"scriptPubKey": {"reqSigs": 1, "hex": "a9141988a27e3c2df4ddee7fad5a2303d086179b2a3087", "addresses": ["3422VtS7UtCvXYxoXMVp6eZupR252z85oC"], "asm": "OP_HASH160 1988a27e3c2df4ddee7fad5a2303d086179b2a30 OP_EQUAL", "type": "scripthash"}, "value": 0.08848441, "n": 1}, {"scriptPubKey": {"reqSigs": 1, "hex": "76a914f6abcb962722b6955bfb15d3996d5f71a61a189888ac", "addresses": ["1PVH2jarnLTKD4nwBBqRuRpsYAuH2rB1Ad"], "asm": "OP_DUP OP_HASH160 f6abcb962722b6955bfb15d3996d5f71a61a1898 OP_EQUALVERIFY OP_CHECKSIG", "type": "pubkeyhash"}, "value": 0.0005, "n": 2}], "hex": "010000000001010885cb9b0763c3fd3b4110ab9ebb882a6cad9976f42828cb201eaf749641cde6010000002322002065d416c48a8072e0ac51c2d111eb194f009caef0332446c1bf2097316cf07fa9ffffffff0314747700000000001976a91494e7ede788ad1106623bf47132316fd7fff2032c88ac390487000000000017a9141988a27e3c2df4ddee7fad5a2303d086179b2a308750c30000000000001976a914f6abcb962722b6955bfb15d3996d5f71a61a189888ac0400473044022067d468b0b0191aea8d1f1bdce799e3c0a7de11062ff97f63109e0bf7bf0e81370220244c4a7286df8c2ab92a44be92a4049dbf3b553f1355cb471c575a9eb8d754030147304402201f59ed43ab907084a8544836d1eac8d7ce651bfea612a122489962c7ea11f0bf02205f1f868d154a828336906738b44d424133f44f521fc8dea26df3537bccbdeb650169522102f44abcf9e23c9a460da309ccca56c619c04eed3bde2c2cff5e7d78fbcd980b9c2103c9443cf3047bb6c2c82f1b0c44c36109cdc3d0d601d16d1189a1602bf8d1a0a02103bfe867059274412412e088af5572b92168c2ef495cfe6c9b7a753a009eb37c4853ae00000000", "vin": [{"txinwitness": ["", "3044022067d468b0b0191aea8d1f1bdce799e3c0a7de11062ff97f63109e0bf7bf0e81370220244c4a7286df8c2ab92a44be92a4049dbf3b553f1355cb471c575a9eb8d7540301", "304402201f59ed43ab907084a8544836d1eac8d7ce651bfea612a122489962c7ea11f0bf02205f1f868d154a828336906738b44d424133f44f521fc8dea26df3537bccbdeb6501", "522102f44abcf9e23c9a460da309ccca56c619c04eed3bde2c2cff5e7d78fbcd980b9c2103c9443cf3047bb6c2c82f1b0c44c36109cdc3d0d601d16d1189a1602bf8d1a0a02103bfe867059274412412e088af5572b92168c2ef495cfe6c9b7a753a009eb37c4853ae"], "sequence": 4294967295, "scriptSig": {"hex": "22002065d416c48a8072e0ac51c2d111eb194f009caef0332446c1bf2097316cf07fa9", "asm": "002065d416c48a8072e0ac51c2d111eb194f009caef0332446c1bf2097316cf07fa9"}, "vout": 1, "txid": "e6cd419674af1e20cb2828f47699ad6c2a88bb9eab10413bfdc363079bcb8508"}], "txid": "8243bae42f861e28ca9f8e6cdd3049ab70d4b8228e01b3c119231f4a7c7cccb3", "blocktime": 1537875543, "version": 1, "confirmations": 11464, "time": 1537875543, "locktime": 0, "vsize": 250, "size": 440}