{"hash": "90e084ffb66604d69d9ccfe507354825b7523514524b3e33d978b551b148a6e6", "blockhash": "0000000000000000000dcc0f55137456b1a82d3642486a52398922ac4d620174", "vout": [{"scriptPubKey": {"reqSigs": 1, "hex": "00149a8064bdabd9e28347c7b3a0002de6f98073efd9", "addresses": ["bc1qn2qxf0dtm83gx378kwsqqt0xlxq88m7e6mlayf"], "asm": "0 9a8064bdabd9e28347c7b3a0002de6f98073efd9", "type": "witness_v0_keyhash"}, "value": 0.01457285, "n": 0}, {"scriptPubKey": {"reqSigs": 1, "hex": "76a9146856bd6e8b6e4f7fb855fe1c5ac93d82f682d5ef88ac", "addresses": ["1AWhBkSdi1CBiveyumxRsQDokhFwtevH6f"], "asm": "OP_DUP OP_HASH160 6856bd6e8b6e4f7fb855fe1c5ac93d82f682d5ef OP_EQUALVERIFY OP_CHECKSIG", "type": "pubkeyhash"}, "value": 0.04392, "n": 1}], "hex": "0100000000010134f47e312dfbd3f47fe7a29e5a6a3aa7c5e839ee8e93af4ad38a2bcba77ade960100000017160014bd0e5f4e2cdcad4b27b49248ff3c41d7699fa7f4ffffffff02853c1600000000001600149a8064bdabd9e28347c7b3a0002de6f98073efd940044300000000001976a9146856bd6e8b6e4f7fb855fe1c5ac93d82f682d5ef88ac02473044022020e312a72224a29f108e3bebdfa8014361bfc388feace6c8359c12330b2abc9b02204a8bfe5c1d0b488f9f52a5497f17ecaebd591eda70718d3a07cb0c5c254b2e7c01210215696b876f24b5c2d13d4997fc930db948d835c8a72b1fc15c770b51166cbae700000000", "vin": [{"txinwitness": ["3044022020e312a72224a29f108e3bebdfa8014361bfc388feace6c8359c12330b2abc9b02204a8bfe5c1d0b488f9f52a5497f17ecaebd591eda70718d3a07cb0c5c254b2e7c01", "0215696b876f24b5c2d13d4997fc930db948d835c8a72b1fc15c770b51166cbae7"], "sequence": 4294967295, "scriptSig": {"hex": "160014bd0e5f4e2cdcad4b27b49248ff3c41d7699fa7f4", "asm": "0014bd0e5f4e2cdcad4b27b49248ff3c41d7699fa7f4"}, "vout": 1, "txid": "96de7aa7cb2b8ad34aaf938eee39e8c5a73a6a5a9ea2e77ff4d3fb2d317ef434"}], "txid": "8248f0b2023c717f7229361f162cb812a0f98aa9738147eb5f277dfd870b374f", "blocktime": 1537870268, "version": 1, "confirmations": 11518, "time": 1537870268, "locktime": 0, "vsize": 167, "size": 248}