{"hash": "82500a32bce9745d6645f3e26383cd33575caab492e083d3fb11b0f51e099173", "blockhash": "0000000000000000001e0dab787dd257d1dbfcb92a98c2207d5e1078be1f4165", "vout": [{"scriptPubKey": {"reqSigs": 1, "hex": "76a9146030cee4c8f0a07f0e27c4e2240a50375a39d96d88ac", "addresses": ["19mcLfiBSGhQomsk7BDxTHVJfhyUjFBGot"], "asm": "OP_DUP OP_HASH160 6030cee4c8f0a07f0e27c4e2240a50375a39d96d OP_EQUALVERIFY OP_CHECKSIG", "type": "pubkeyhash"}, "value": 0.01053444, "n": 0}, {"scriptPubKey": {"reqSigs": 1, "hex": "76a914003dd3c9454e6d58781060b5369ad017a7c7afa988ac", "addresses": ["112H4qTL8S2xW7GsUpzbVwe6eZQ3oHaR6u"], "asm": "OP_DUP OP_HASH160 003dd3c9454e6d58781060b5369ad017a7c7afa9 OP_EQUALVERIFY OP_CHECKSIG", "type": "pubkeyhash"}, "value": 0.011706, "n": 1}], "hex": "0100000001058ae04d9bbe0543e8ebb0b8b3362159080b9ed17eee300b77fe1ab1a23c7a3d010000006b483045022100bf8f12f203a4233b93eda663de90bd7b6cf729bad2cf1dc13caecc89e41650a1022057c0cbd5518b6241d875762a7c460000dd54ef3c1c4d475eca1d46a1a2bb906e012102cb56313330d355c1a85f7d82b9c78c0be47fb020fa82465f17b513300f91dd29ffffffff0204131000000000001976a9146030cee4c8f0a07f0e27c4e2240a50375a39d96d88aca8dc1100000000001976a914003dd3c9454e6d58781060b5369ad017a7c7afa988ac00000000", "vin": [{"sequence": 4294967295, "scriptSig": {"hex": "483045022100bf8f12f203a4233b93eda663de90bd7b6cf729bad2cf1dc13caecc89e41650a1022057c0cbd5518b6241d875762a7c460000dd54ef3c1c4d475eca1d46a1a2bb906e012102cb56313330d355c1a85f7d82b9c78c0be47fb020fa82465f17b513300f91dd29", "asm": "3045022100bf8f12f203a4233b93eda663de90bd7b6cf729bad2cf1dc13caecc89e41650a1022057c0cbd5518b6241d875762a7c460000dd54ef3c1c4d475eca1d46a1a2bb906e[ALL] 02cb56313330d355c1a85f7d82b9c78c0be47fb020fa82465f17b513300f91dd29"}, "vout": 1, "txid": "3d7a3ca2b11afe770b30ee7ed19e0b08592136b3b8b0ebe84305be9b4de08a05"}], "txid": "82500a32bce9745d6645f3e26383cd33575caab492e083d3fb11b0f51e099173", "blocktime": 1537872475, "version": 1, "confirmations": 11486, "time": 1537872475, "locktime": 0, "vsize": 226, "size": 226}