{"hash": "41db7718ebac1eb236627c36f0ff12e2d908c6373cabb80b61819f62ff28a4f6", "blockhash": "00000000000000000017f5eb5941039fbcee6240d03bc1f2f8e35350df66a1d8", "vout": [{"scriptPubKey": {"reqSigs": 1, "hex": "a914a15a3bc3a5dc52e6357705e6e850fa06a2e4685287", "addresses": ["3GQAoxZWANTHV3HKCZc5SkBKX2oE87CQ1W"], "asm": "OP_HASH160 a15a3bc3a5dc52e6357705e6e850fa06a2e46852 OP_EQUAL", "type": "scripthash"}, "value": 0.01583653, "n": 0}, {"scriptPubKey": {"reqSigs": 1, "hex": "a914be9416413552b184fbbd5d4f22fc6c6727b19f2087", "addresses": ["3K4hiFZwEuivHhVQtQ67Acgxkm4z2U7PVs"], "asm": "OP_HASH160 be9416413552b184fbbd5d4f22fc6c6727b19f20 OP_EQUAL", "type": "scripthash"}, "value": 1.62261912, "n": 1}], "hex": "0200000000010138f11e68a5f77c9071fe5f6c47caa238043936326c0cd6086ab69708b226fbb300000000171600147190e39f67fc071e0cbc2b8f56ad4ed6e4cf8e7dfeffffff02252a18000000000017a914a15a3bc3a5dc52e6357705e6e850fa06a2e468528798ebab090000000017a914be9416413552b184fbbd5d4f22fc6c6727b19f208702473044022052258af714da8cf58faf65b8eeea68eab87d487e8afc1173da0f8f7f9b12682b02207211089add638867e72540c16938d044ab06fc141f938a11f88c893395bbb8a301210339a9b6ef25ca2bf772d5a15601bf89c89ec5d649db59bef791ddc5b3f58cfd1615490800", "vin": [{"txinwitness": ["3044022052258af714da8cf58faf65b8eeea68eab87d487e8afc1173da0f8f7f9b12682b02207211089add638867e72540c16938d044ab06fc141f938a11f88c893395bbb8a301", "0339a9b6ef25ca2bf772d5a15601bf89c89ec5d649db59bef791ddc5b3f58cfd16"], "sequence": 4294967294, "scriptSig": {"hex": "1600147190e39f67fc071e0cbc2b8f56ad4ed6e4cf8e7d", "asm": "00147190e39f67fc071e0cbc2b8f56ad4ed6e4cf8e7d"}, "vout": 0, "txid": "b3fb26b20897b66a08d60c6c3236390438a2ca476c5ffe71907cf7a5681ef138"}], "txid": "82531e1d13d8703a15cfe05cc1e157c6f09adb1df1fff47b34647382bd597b99", "blocktime": 1537874412, "version": 2, "confirmations": 11466, "time": 1537874412, "locktime": 542997, "vsize": 166, "size": 247}