{"hash": "82595b6641a2e283f38e7c1820597bf68b39fdd92202f1364be363c4b9e17b86", "blockhash": "00000000000000000004ffacab907a6b429b9a5745fa0b75af4234bf69dd7176", "vout": [{"scriptPubKey": {"reqSigs": 1, "hex": "76a914fa0692278afe508514b5ffee8fe5e97732ce066988ac", "addresses": ["1Po1oWkD2LmodfkBYiAktwh76vkF93LKnh"], "asm": "OP_DUP OP_HASH160 fa0692278afe508514b5ffee8fe5e97732ce0669 OP_EQUALVERIFY OP_CHECKSIG", "type": "pubkeyhash"}, "value": 2.184e-05, "n": 0}, {"scriptPubKey": {"type": "nulldata", "hex": "6a146f6d6e690000000000000027000000a441405660", "asm": "OP_RETURN 6f6d6e690000000000000027000000a441405660"}, "value": 0.0, "n": 1}, {"scriptPubKey": {"reqSigs": 1, "hex": "76a9146270b789c6abc97df2cc6d91725b3b3c845c83b688ac", "addresses": ["19yWFWawyQxFmkXbjP3E94v7ftBdevz4fH"], "asm": "OP_DUP OP_HASH160 6270b789c6abc97df2cc6d91725b3b3c845c83b6 OP_EQUALVERIFY OP_CHECKSIG", "type": "pubkeyhash"}, "value": 5.46e-06, "n": 2}], "hex": "010000000160188ae2e89a6f7ee5925756b57031d2333bb4c3afeaabe85e936278213e6fa7e60000008b483045022100ed857f5a5039bab280d0afc98bc0c2dc42b6e44f64b40bc8c48df0de9d23c297022067ed001aee4c4022334cb36d8817bed36b5d5a26293078cc3d9ae7e80a679d22014104fcf07bb1222f7925f2b7cc15183a40443c578e62ea17100aa3b44ba66905c95d4980aec4cd2f6eb426d1b1ec45d76724f26901099416b9265b76ba67c8b0b73dffffffff0388080000000000001976a914fa0692278afe508514b5ffee8fe5e97732ce066988ac0000000000000000166a146f6d6e690000000000000027000000a44140566022020000000000001976a9146270b789c6abc97df2cc6d91725b3b3c845c83b688ac00000000", "vin": [{"sequence": 4294967295, "scriptSig": {"hex": "483045022100ed857f5a5039bab280d0afc98bc0c2dc42b6e44f64b40bc8c48df0de9d23c297022067ed001aee4c4022334cb36d8817bed36b5d5a26293078cc3d9ae7e80a679d22014104fcf07bb1222f7925f2b7cc15183a40443c578e62ea17100aa3b44ba66905c95d4980aec4cd2f6eb426d1b1ec45d76724f26901099416b9265b76ba67c8b0b73d", "asm": "3045022100ed857f5a5039bab280d0afc98bc0c2dc42b6e44f64b40bc8c48df0de9d23c297022067ed001aee4c4022334cb36d8817bed36b5d5a26293078cc3d9ae7e80a679d22[ALL] 04fcf07bb1222f7925f2b7cc15183a40443c578e62ea17100aa3b44ba66905c95d4980aec4cd2f6eb426d1b1ec45d76724f26901099416b9265b76ba67c8b0b73d"}, "vout": 230, "txid": "a76f3e217862935ee8abeaafc3b43b33d23170b5565792e57e6f9ae8e28a1860"}], "txid": "82595b6641a2e283f38e7c1820597bf68b39fdd92202f1364be363c4b9e17b86", "blocktime": 1537875543, "version": 1, "confirmations": 11464, "time": 1537875543, "locktime": 0, "vsize": 289, "size": 289}