{"hash": "d877a8a26f817316592834395adf404e7e5be7fb3d3f2d2274a8de5012a79e2c", "blockhash": "0000000000000000000dcc0f55137456b1a82d3642486a52398922ac4d620174", "vout": [{"scriptPubKey": {"reqSigs": 1, "hex": "a914a2cf24faa4462313fa8e144e202b605b3a824cf687", "addresses": ["3GXsYGZ1VHRbCwUwAMnAQSpYQ6WzP6YDEY"], "asm": "OP_HASH160 a2cf24faa4462313fa8e144e202b605b3a824cf6 OP_EQUAL", "type": "scripthash"}, "value": 12.83369085, "n": 0}, {"scriptPubKey": {"reqSigs": 1, "hex": "a914e142245fc921e2fc47727f1af67c74f832511f3387", "addresses": ["3NE5CLaRtcdz37sYacPmPmHAVEvJwyraK6"], "asm": "OP_HASH160 e142245fc921e2fc47727f1af67c74f832511f33 OP_EQUAL", "type": "scripthash"}, "value": 9.0258, "n": 1}], "hex": "0200000000010196cb2104db2b348857016986f52fd98ca632b8e822a8a2a64b88b9d378d2f1f30100000017160014ebb81dd43d661dc28cb0fb8fa7d92d68f8f15003feffffff027da87e4c0000000017a914a2cf24faa4462313fa8e144e202b605b3a824cf6872047cc350000000017a914e142245fc921e2fc47727f1af67c74f832511f33870247304402206170958cc1f74c2e6ba44d1831fda36f683ef0866c3c83597f1b8e1f69cb309f0220266643f864d371d9523c657f1004ede08b55c373724335d875fb0810d0b88d3b012103c1c987461dd43336566a0615587588c9526ff0a4be45a6ea4d7ab7d6251ff64b0c490800", "vin": [{"txinwitness": ["304402206170958cc1f74c2e6ba44d1831fda36f683ef0866c3c83597f1b8e1f69cb309f0220266643f864d371d9523c657f1004ede08b55c373724335d875fb0810d0b88d3b01", "03c1c987461dd43336566a0615587588c9526ff0a4be45a6ea4d7ab7d6251ff64b"], "sequence": 4294967294, "scriptSig": {"hex": "160014ebb81dd43d661dc28cb0fb8fa7d92d68f8f15003", "asm": "0014ebb81dd43d661dc28cb0fb8fa7d92d68f8f15003"}, "vout": 1, "txid": "f3f1d278d3b9884ba6a2a822e8b832a68cd92ff58669015788342bdb0421cb96"}], "txid": "8259638c68ca2e440a7812a5b30cd673677a2edeaf25ce588b0df8e29cb8b69a", "blocktime": 1537870268, "version": 2, "confirmations": 11516, "time": 1537870268, "locktime": 542988, "vsize": 166, "size": 247}