{"hash": "82706fcc012a06f567ac94181a88e12831c7ca6264bb84d4edd36c2a5bb85e51", "blockhash": "00000000000000000017f5eb5941039fbcee6240d03bc1f2f8e35350df66a1d8", "vout": [{"scriptPubKey": {"reqSigs": 1, "hex": "76a9141fb4c396c2d0a3feb3717520f4e2c2c990cfcb8088ac", "addresses": ["13teVekuQrT6XieTvQviwgHQZr9an1dkEo"], "asm": "OP_DUP OP_HASH160 1fb4c396c2d0a3feb3717520f4e2c2c990cfcb80 OP_EQUALVERIFY OP_CHECKSIG", "type": "pubkeyhash"}, "value": 0.00999809, "n": 0}], "hex": "0100000001ebe01e053466a175e963afde27234f7600889b943fe2daf372053ebc4a678e7f010000006a47304402207a9b786fe10b5c23d6be213b2195f67069103085919e53315d4efc9ab17a0bc302205732cb754b0e953a676b3873fecec03f3b6cad89f285db935cf1833661dedbf2012103e1bac1bbd75647910f93bac4660ccb18a22d457aed1b19e93b82519f744fe758feffffff0181410f00000000001976a9141fb4c396c2d0a3feb3717520f4e2c2c990cfcb8088acc5480800", "vin": [{"sequence": 4294967294, "scriptSig": {"hex": "47304402207a9b786fe10b5c23d6be213b2195f67069103085919e53315d4efc9ab17a0bc302205732cb754b0e953a676b3873fecec03f3b6cad89f285db935cf1833661dedbf2012103e1bac1bbd75647910f93bac4660ccb18a22d457aed1b19e93b82519f744fe758", "asm": "304402207a9b786fe10b5c23d6be213b2195f67069103085919e53315d4efc9ab17a0bc302205732cb754b0e953a676b3873fecec03f3b6cad89f285db935cf1833661dedbf2[ALL] 03e1bac1bbd75647910f93bac4660ccb18a22d457aed1b19e93b82519f744fe758"}, "vout": 1, "txid": "7f8e674abc3e0572f3dae23f949b8800764f2327deaf63e975a16634051ee0eb"}], "txid": "82706fcc012a06f567ac94181a88e12831c7ca6264bb84d4edd36c2a5bb85e51", "blocktime": 1537874412, "version": 1, "confirmations": 11468, "time": 1537874412, "locktime": 542917, "vsize": 191, "size": 191}