{"hash": "82718a045edef5824431e16ba1117982ceeac4cfba2e414c8e9bd29e985240f7", "blockhash": "00000000000000000018f53835495a110e01622372bf6ae95dc86f2b0ab887b0", "vout": [{"scriptPubKey": {"reqSigs": 1, "hex": "76a9142c64e5c65ae3121cd7ddef91d79ab8240513d8ca88ac", "addresses": ["153jbvhGevqBNTPyRzfkNezRkk4Bv9mbFz"], "asm": "OP_DUP OP_HASH160 2c64e5c65ae3121cd7ddef91d79ab8240513d8ca OP_EQUALVERIFY OP_CHECKSIG", "type": "pubkeyhash"}, "value": 0.30798138, "n": 0}, {"scriptPubKey": {"reqSigs": 1, "hex": "76a9147f9779131219dcf5bb7a82caccfe62d9c093674e88ac", "addresses": ["1CdeGtU2i1yjQ5ztCdoVLGh3PkaSAvvXRz"], "asm": "OP_DUP OP_HASH160 7f9779131219dcf5bb7a82caccfe62d9c093674e OP_EQUALVERIFY OP_CHECKSIG", "type": "pubkeyhash"}, "value": 0.00351236, "n": 1}], "hex": "0100000001e947b8c2ea3efc86106eaa7f153c2c1ac696ed886b226e529c0975cad5dbabad17000000da00483045022100c5aa69a0dbd6131893db8d2b8df7e0a9b4edbdf20170b4500697fdd42190707a022003bb238085e9933a76165d2dc709bcc701d35145654aec4b32f7a29b726cacea0147304402200e2796638bf33d5e95670b0de57262cd8def6a62762dd80ad1d75e8a8078a5c302207013cea08872bb69d000962722f5887c279033fcdf7853793bee5e0f350fd7260147522102907a54bed8ad74b3f35638c60114ca240a308cb986f3f2f306178869a8880b612102a8f885d0d00622a161fe941070b623797542e3c0070102580b1086a2b2cb111d52aeffffffff023af1d501000000001976a9142c64e5c65ae3121cd7ddef91d79ab8240513d8ca88ac045c0500000000001976a9147f9779131219dcf5bb7a82caccfe62d9c093674e88ac00000000", "vin": [{"sequence": 4294967295, "scriptSig": {"hex": "00483045022100c5aa69a0dbd6131893db8d2b8df7e0a9b4edbdf20170b4500697fdd42190707a022003bb238085e9933a76165d2dc709bcc701d35145654aec4b32f7a29b726cacea0147304402200e2796638bf33d5e95670b0de57262cd8def6a62762dd80ad1d75e8a8078a5c302207013cea08872bb69d000962722f5887c279033fcdf7853793bee5e0f350fd7260147522102907a54bed8ad74b3f35638c60114ca240a308cb986f3f2f306178869a8880b612102a8f885d0d00622a161fe941070b623797542e3c0070102580b1086a2b2cb111d52ae", "asm": "0 3045022100c5aa69a0dbd6131893db8d2b8df7e0a9b4edbdf20170b4500697fdd42190707a022003bb238085e9933a76165d2dc709bcc701d35145654aec4b32f7a29b726cacea[ALL] 304402200e2796638bf33d5e95670b0de57262cd8def6a62762dd80ad1d75e8a8078a5c302207013cea08872bb69d000962722f5887c279033fcdf7853793bee5e0f350fd726[ALL] 522102907a54bed8ad74b3f35638c60114ca240a308cb986f3f2f306178869a8880b612102a8f885d0d00622a161fe941070b623797542e3c0070102580b1086a2b2cb111d52ae"}, "vout": 23, "txid": "adabdbd5ca75099c526e226b88ed96c61a2c3c157faa6e1086fc3eeac2b847e9"}], "txid": "82718a045edef5824431e16ba1117982ceeac4cfba2e414c8e9bd29e985240f7", "blocktime": 1537870928, "version": 1, "confirmations": 11512, "time": 1537870928, "locktime": 0, "vsize": 337, "size": 337}