{"hash": "3b4568103bbb075d8b1d7936b420d8291c0b9958b5547c9959514cbdea10a0aa", "blockhash": "000000000000000000022b45ed06c6f4ccd3cf7fb5ba4856ebd2e58215665228", "vout": [{"scriptPubKey": {"reqSigs": 1, "hex": "a914f4d2c4d61b90d0a0bfcb2a813101b5129539694e87", "addresses": ["3Q1XHq5TjthBdosPDaEYiKYPTkqauGhV2U"], "asm": "OP_HASH160 f4d2c4d61b90d0a0bfcb2a813101b5129539694e OP_EQUAL", "type": "scripthash"}, "value": 0.008, "n": 0}, {"scriptPubKey": {"reqSigs": 1, "hex": "a914cd494e790e06d8ea713a361eacf8ada2b4eb776587", "addresses": ["3LQUGJ93W4S6wzZXeZYk7V83p4VHc35XuP"], "asm": "OP_HASH160 cd494e790e06d8ea713a361eacf8ada2b4eb7765 OP_EQUAL", "type": "scripthash"}, "value": 4.38984939, "n": 1}], "hex": "020000000001012023292f36caa5d1734c3ac5ccfc35e7272d4814ce1a3a48737002b17b0e8fc70100000017160014c8662b26d939839a8253e868f482092143c307d8feffffff0200350c000000000017a914f4d2c4d61b90d0a0bfcb2a813101b5129539694e87eb602a1a0000000017a914cd494e790e06d8ea713a361eacf8ada2b4eb77658702483045022100854366a571b8a3a9056cac03b0ce4d9b148fffed87c07344aab44a47949c52d30220101786199db7e6c92fe582b752bcc75984c0fa971f16380f5194d3741865b04b012103c713ce45e2ca59d10f6b75440efd3d26ddc4261f22c3347e58d0878da82a12a20b490800", "vin": [{"txinwitness": ["3045022100854366a571b8a3a9056cac03b0ce4d9b148fffed87c07344aab44a47949c52d30220101786199db7e6c92fe582b752bcc75984c0fa971f16380f5194d3741865b04b01", "03c713ce45e2ca59d10f6b75440efd3d26ddc4261f22c3347e58d0878da82a12a2"], "sequence": 4294967294, "scriptSig": {"hex": "160014c8662b26d939839a8253e868f482092143c307d8", "asm": "0014c8662b26d939839a8253e868f482092143c307d8"}, "vout": 1, "txid": "c78f0e7bb1027073483a1ace14482d27e735fcccc53a4c73d1a5ca362f292320"}], "txid": "82739f3b2610f29a1b6ff48d8d7781b07cc29760741fb02433733e2d7b67aaab", "blocktime": 1537869901, "version": 2, "confirmations": 11522, "time": 1537869901, "locktime": 542987, "vsize": 166, "size": 248}