{"hash": "827b05e273f4b34cf835f8326b445b0aad95ddaa49a821ce3144386265a9c021", "blockhash": "0000000000000000001f76057863aec43deb6fa401d9628bb513d65a8098bfab", "vout": [{"scriptPubKey": {"reqSigs": 1, "hex": "76a9147ae36470cadfbce8d0111a1bd1be403cd103cdb688ac", "addresses": ["1CCmquEHS4XzAsjRwStUEQofU1yVgF9v8W"], "asm": "OP_DUP OP_HASH160 7ae36470cadfbce8d0111a1bd1be403cd103cdb6 OP_EQUALVERIFY OP_CHECKSIG", "type": "pubkeyhash"}, "value": 0.01544853, "n": 0}, {"scriptPubKey": {"reqSigs": 1, "hex": "76a914b7000f21da0c51f57e60d21e549ff4cbb32b839988ac", "addresses": ["1HgcjDJEwe6KBTnEoXURL6UNscdpw9Vehm"], "asm": "OP_DUP OP_HASH160 b7000f21da0c51f57e60d21e549ff4cbb32b8399 OP_EQUALVERIFY OP_CHECKSIG", "type": "pubkeyhash"}, "value": 3.90513549, "n": 1}], "hex": "0100000001f5c0cef41bb27f20623b4aff6311e15b146f633641eae54fc998f56b5bf36074010000006a473044022056e810a0a0573488b3e67d933c5cf6145198618c37d5882158ce6f375a1582e1022012dbf99748b1e7e9728a6311edbd26668f695f678ff233fb86a67ae28a13c4b8012103cd800f81d903544411cdc62af2f2fdef6ff55e37ae97454b628dfe16f214353effffffff0295921700000000001976a9147ae36470cadfbce8d0111a1bd1be403cd103cdb688ac8dc34617000000001976a914b7000f21da0c51f57e60d21e549ff4cbb32b839988ac00000000", "vin": [{"sequence": 4294967295, "scriptSig": {"hex": "473044022056e810a0a0573488b3e67d933c5cf6145198618c37d5882158ce6f375a1582e1022012dbf99748b1e7e9728a6311edbd26668f695f678ff233fb86a67ae28a13c4b8012103cd800f81d903544411cdc62af2f2fdef6ff55e37ae97454b628dfe16f214353e", "asm": "3044022056e810a0a0573488b3e67d933c5cf6145198618c37d5882158ce6f375a1582e1022012dbf99748b1e7e9728a6311edbd26668f695f678ff233fb86a67ae28a13c4b8[ALL] 03cd800f81d903544411cdc62af2f2fdef6ff55e37ae97454b628dfe16f214353e"}, "vout": 1, "txid": "7460f35b6bf598c94fe5ea4136636f145be11163ff4a3b62207fb21bf4cec0f5"}], "txid": "827b05e273f4b34cf835f8326b445b0aad95ddaa49a821ce3144386265a9c021", "blocktime": 1537873891, "version": 1, "confirmations": 11474, "time": 1537873891, "locktime": 0, "vsize": 225, "size": 225}