{"hash": "827e1eb641154163f3d9adcb428874b91c6ff872020512fa67fc332a88f4f1d3", "blockhash": "0000000000000000000dcc0f55137456b1a82d3642486a52398922ac4d620174", "vout": [{"scriptPubKey": {"reqSigs": 1, "hex": "76a914d243e6abb9a60fbff430b421d2df4b7d59ec186088ac", "addresses": ["1LAnF8h3qMGx3TSwNUHVneBZUEpwE4gu3D"], "asm": "OP_DUP OP_HASH160 d243e6abb9a60fbff430b421d2df4b7d59ec1860 OP_EQUALVERIFY OP_CHECKSIG", "type": "pubkeyhash"}, "value": 0.00076972, "n": 0}, {"scriptPubKey": {"reqSigs": 1, "hex": "76a9143851f34d13937b673a7d24a1950bb5b21ce94af388ac", "addresses": ["168o1kqNquEJeR9vosUB5fw4eAwcVAgh8P"], "asm": "OP_DUP OP_HASH160 3851f34d13937b673a7d24a1950bb5b21ce94af3 OP_EQUALVERIFY OP_CHECKSIG", "type": "pubkeyhash"}, "value": 5.46e-06, "n": 1}, {"scriptPubKey": {"type": "nulldata", "hex": "6a146f6d6e69000000000000001f000000a9e3b89d80", "asm": "OP_RETURN 6f6d6e69000000000000001f000000a9e3b89d80"}, "value": 0.0, "n": 2}], "hex": "01000000026626fb0aae3d02022866be936cd94f5eccac6e6a838193bb306b9dacd4f8d6ad020000006a47304402207e05c86b9fe33ff3e734769d79e47676fb95d9682044edb4334a53adb921bc4302203df8c85369ce03b0f72b3c0e51b67a8fda89d2a50deb3199dd93b61eb5655a2001210248a8321616e051d32c992df02c4a041b42b82307fcb4f2fd0b61ebfc6edec038ffffffff0208b4e08d76c8c8db6aae965021e2a18e8d62922d4d11ae7704ea24c5462760000000006b483045022100f48fce9bbe795a6449a8f4db479b6a1ba9df3d9f79f57ae9e4c256683d465166022061d3ec42670115cbce5e9fcb34ffc2c7e95f5597aed6067be31269b72252fbba01210271977291b74f1f5f5c42157e8aae804664eaaeccfd097918450d37f28fb94d77ffffffff03ac2c0100000000001976a914d243e6abb9a60fbff430b421d2df4b7d59ec186088ac22020000000000001976a9143851f34d13937b673a7d24a1950bb5b21ce94af388ac0000000000000000166a146f6d6e69000000000000001f000000a9e3b89d8000000000", "vin": [{"sequence": 4294967295, "scriptSig": {"hex": "47304402207e05c86b9fe33ff3e734769d79e47676fb95d9682044edb4334a53adb921bc4302203df8c85369ce03b0f72b3c0e51b67a8fda89d2a50deb3199dd93b61eb5655a2001210248a8321616e051d32c992df02c4a041b42b82307fcb4f2fd0b61ebfc6edec038", "asm": "304402207e05c86b9fe33ff3e734769d79e47676fb95d9682044edb4334a53adb921bc4302203df8c85369ce03b0f72b3c0e51b67a8fda89d2a50deb3199dd93b61eb5655a20[ALL] 0248a8321616e051d32c992df02c4a041b42b82307fcb4f2fd0b61ebfc6edec038"}, "vout": 2, "txid": "add6f8d4ac9d6b30bb9381836a6eaccc5e4fd96c93be662802023dae0afb2666"}, {"sequence": 4294967295, "scriptSig": {"hex": "483045022100f48fce9bbe795a6449a8f4db479b6a1ba9df3d9f79f57ae9e4c256683d465166022061d3ec42670115cbce5e9fcb34ffc2c7e95f5597aed6067be31269b72252fbba01210271977291b74f1f5f5c42157e8aae804664eaaeccfd097918450d37f28fb94d77", "asm": "3045022100f48fce9bbe795a6449a8f4db479b6a1ba9df3d9f79f57ae9e4c256683d465166022061d3ec42670115cbce5e9fcb34ffc2c7e95f5597aed6067be31269b72252fbba[ALL] 0271977291b74f1f5f5c42157e8aae804664eaaeccfd097918450d37f28fb94d77"}, "vout": 0, "txid": "602746c524ea0477ae114d2d92628d8ea1e2215096ae6adbc8c8768de0b40802"}], "txid": "827e1eb641154163f3d9adcb428874b91c6ff872020512fa67fc332a88f4f1d3", "blocktime": 1537870268, "version": 1, "confirmations": 11516, "time": 1537870268, "locktime": 0, "vsize": 404, "size": 404}