{"hash": "8280fe63b6cb47fa1d7bec845ff287cd2603bd566c34a7fe188a8b8e70e964cf", "blockhash": "0000000000000000001f76057863aec43deb6fa401d9628bb513d65a8098bfab", "vout": [{"scriptPubKey": {"reqSigs": 1, "hex": "76a9146453e0006860e99f1bee6eda70b835fafbff630988ac", "addresses": ["1A9V3vQ3AxgmoK45a8sXWRNELhp1ygZEsT"], "asm": "OP_DUP OP_HASH160 6453e0006860e99f1bee6eda70b835fafbff6309 OP_EQUALVERIFY OP_CHECKSIG", "type": "pubkeyhash"}, "value": 0.00348347, "n": 0}], "hex": "0100000001658627ab6cc29afc71d327f237e322a2ca4cc900e6e3580e66e23a3d32370154000000006a473044022039d301ed8d18a1d4e55354eeda1b2426892eb96015d0836843b683b77c831d14022043eddb7849ad1a8d456bdfd019e0cfd7fc193c2c11521cad9c4a170dbbb30678012102ea239c60947191ab4350eadd2e3eff0e77cec55f1fa67f08845d3ec40ecd7ae1ffffffff01bb500500000000001976a9146453e0006860e99f1bee6eda70b835fafbff630988ac00000000", "vin": [{"sequence": 4294967295, "scriptSig": {"hex": "473044022039d301ed8d18a1d4e55354eeda1b2426892eb96015d0836843b683b77c831d14022043eddb7849ad1a8d456bdfd019e0cfd7fc193c2c11521cad9c4a170dbbb30678012102ea239c60947191ab4350eadd2e3eff0e77cec55f1fa67f08845d3ec40ecd7ae1", "asm": "3044022039d301ed8d18a1d4e55354eeda1b2426892eb96015d0836843b683b77c831d14022043eddb7849ad1a8d456bdfd019e0cfd7fc193c2c11521cad9c4a170dbbb30678[ALL] 02ea239c60947191ab4350eadd2e3eff0e77cec55f1fa67f08845d3ec40ecd7ae1"}, "vout": 0, "txid": "540137323d3ae2660e58e3e600c94ccaa222e337f227d371fc9ac26cab278665"}], "txid": "8280fe63b6cb47fa1d7bec845ff287cd2603bd566c34a7fe188a8b8e70e964cf", "blocktime": 1537873891, "version": 1, "confirmations": 11478, "time": 1537873891, "locktime": 0, "vsize": 191, "size": 191}