{"hash": "f1e57ac2b78be418601c1ef52b78e5e7c13c5b623ca165b36d525f2f225dc850", "blockhash": "0000000000000000001e0dab787dd257d1dbfcb92a98c2207d5e1078be1f4165", "vout": [{"scriptPubKey": {"reqSigs": 1, "hex": "a9140c2930cda2c23bd72ca4dd0a487721471be1e62387", "addresses": ["32oKNpbTP3EteGeRRihgJcg5WDgyEmzpMF"], "asm": "OP_HASH160 0c2930cda2c23bd72ca4dd0a487721471be1e623 OP_EQUAL", "type": "scripthash"}, "value": 0.17499087, "n": 0}, {"scriptPubKey": {"reqSigs": 1, "hex": "a914845b61d032acac78ac68591d242a99eb08afe19b87", "addresses": ["3DkrbCmtGTasz7PHb1fUQDVanfe52wfuDm"], "asm": "OP_HASH160 845b61d032acac78ac68591d242a99eb08afe19b OP_EQUAL", "type": "scripthash"}, "value": 0.29295218, "n": 1}], "hex": "01000000000103be5bff792b1236e375e3df8d8c3b60ea0ec8ebbee4c2bdfcc23e06b8dafd8db50e000000fc004730440220054c9cb5b31873f6ead39ab1d767499dc2f4423eb48c85f788d019f60928fe2d022029c21ea5c9936cebe24e24085ba9ceef8308afcb73af02d102a9b047fd9f2c7101473044022072f4ce3584aaede91fffe203ae6ef44370c6056cb4d7ab7f07b6c95332d500ab022055b82973df61599fa14d42a68968a5f7ef182234de8ae682abedc9579a75a331014c69522102d0e2f6e21602c1085ff77a23ed7ae25544917ca214c14faf71ef4e37d2fa5a6e210314a3249842f0b3ec20f0e48aec1c62458f016c1755e595a91b3183d3997cca922102d7d8e56cda586bef2670cfb03451769317ce9a1e25f30dc75eda361d78fbf1b353aeffffffff3dd397e1ff2c3c568b1dbb8619318b5ae0697f3a1c2e5527f7ca1c69ea619c020000000023220020a273ac1a66f701a491348ec2f65ffc797c0caf67aad15809060e4810789e4303fffffffffeb7dd2231629d24fbf417fa93e72102c7afebfe21b572e1935252e16449395200000000fc0047304402202844cdf0b5bf9d5d45841b7fee073a87136aed948771fbde86cf3b19efc291ac0220366e7cc778001fbd58fa11dd1f48b9b57e19b6dbed93f418351975be0125f056014730440220101f27b11efb526349b93d632086d70bde69a98d48e92a97eccd0f69874b57ba02207e417b7027b0ef22928dd8a6a0888236064d08f249bdf06d754c2fdaafe351f1014c695221027669d84728aa06bbf2ee18066d90d180d487cf2c9f62ee1f8eea5f4ffbf3f62c2102b99a33baa76636fecc5daa7933b20c1ace62a2bb4b8ac08c0a4e9427a75d68502103d0cc3fe11e207764b766d2f3f9154102aea9ea15440a2c8fb37f902587ec9c0153aeffffffff02cf030b010000000017a9140c2930cda2c23bd72ca4dd0a487721471be1e623877202bf010000000017a914845b61d032acac78ac68591d242a99eb08afe19b8700040048304502210092bc14c141853c6484113d1d488fda691456efbfb1d64be4e18d8cf3e8686af5022046b0d623da0dd8f0ab7a316d9b2ff2721778b14f4b6e7e2de51f16a5be3b215501473044022050dbf0d59dde53623443cfcbd5c88353d535916b38323102fea1ea891cdeebbf02206f7f4b8a3d9e83dc052ddbf916d697075df03f5cdeedad961c23466993e9b20b01695221022f3abe329ec1b21d1f350458e31e668f14c73c168f81a75aa078052a26668e9621030ee0f4358f5a2fd66085989ffddb157932ecd834fb35b6e3411cba46ed8bd0ac21020301005362382f424ca5f63e3134257d2b41b74608fa344a8ec306a7f9836f2453ae0000000000", "vin": [{"sequence": 4294967295, "scriptSig": {"hex": "004730440220054c9cb5b31873f6ead39ab1d767499dc2f4423eb48c85f788d019f60928fe2d022029c21ea5c9936cebe24e24085ba9ceef8308afcb73af02d102a9b047fd9f2c7101473044022072f4ce3584aaede91fffe203ae6ef44370c6056cb4d7ab7f07b6c95332d500ab022055b82973df61599fa14d42a68968a5f7ef182234de8ae682abedc9579a75a331014c69522102d0e2f6e21602c1085ff77a23ed7ae25544917ca214c14faf71ef4e37d2fa5a6e210314a3249842f0b3ec20f0e48aec1c62458f016c1755e595a91b3183d3997cca922102d7d8e56cda586bef2670cfb03451769317ce9a1e25f30dc75eda361d78fbf1b353ae", "asm": "0 30440220054c9cb5b31873f6ead39ab1d767499dc2f4423eb48c85f788d019f60928fe2d022029c21ea5c9936cebe24e24085ba9ceef8308afcb73af02d102a9b047fd9f2c71[ALL] 3044022072f4ce3584aaede91fffe203ae6ef44370c6056cb4d7ab7f07b6c95332d500ab022055b82973df61599fa14d42a68968a5f7ef182234de8ae682abedc9579a75a331[ALL] 522102d0e2f6e21602c1085ff77a23ed7ae25544917ca214c14faf71ef4e37d2fa5a6e210314a3249842f0b3ec20f0e48aec1c62458f016c1755e595a91b3183d3997cca922102d7d8e56cda586bef2670cfb03451769317ce9a1e25f30dc75eda361d78fbf1b353ae"}, "vout": 14, "txid": "b58dfddab8063ec2fcbdc2e4beebc80eea603b8c8ddfe375e336122b79ff5bbe"}, {"txinwitness": ["", "304502210092bc14c141853c6484113d1d488fda691456efbfb1d64be4e18d8cf3e8686af5022046b0d623da0dd8f0ab7a316d9b2ff2721778b14f4b6e7e2de51f16a5be3b215501", "3044022050dbf0d59dde53623443cfcbd5c88353d535916b38323102fea1ea891cdeebbf02206f7f4b8a3d9e83dc052ddbf916d697075df03f5cdeedad961c23466993e9b20b01", "5221022f3abe329ec1b21d1f350458e31e668f14c73c168f81a75aa078052a26668e9621030ee0f4358f5a2fd66085989ffddb157932ecd834fb35b6e3411cba46ed8bd0ac21020301005362382f424ca5f63e3134257d2b41b74608fa344a8ec306a7f9836f2453ae"], "sequence": 4294967295, "scriptSig": {"hex": "220020a273ac1a66f701a491348ec2f65ffc797c0caf67aad15809060e4810789e4303", "asm": "0020a273ac1a66f701a491348ec2f65ffc797c0caf67aad15809060e4810789e4303"}, "vout": 0, "txid": "029c61ea691ccaf727552e1c3a7f69e05a8b311986bb1d8b563c2cffe197d33d"}, {"sequence": 4294967295, "scriptSig": {"hex": "0047304402202844cdf0b5bf9d5d45841b7fee073a87136aed948771fbde86cf3b19efc291ac0220366e7cc778001fbd58fa11dd1f48b9b57e19b6dbed93f418351975be0125f056014730440220101f27b11efb526349b93d632086d70bde69a98d48e92a97eccd0f69874b57ba02207e417b7027b0ef22928dd8a6a0888236064d08f249bdf06d754c2fdaafe351f1014c695221027669d84728aa06bbf2ee18066d90d180d487cf2c9f62ee1f8eea5f4ffbf3f62c2102b99a33baa76636fecc5daa7933b20c1ace62a2bb4b8ac08c0a4e9427a75d68502103d0cc3fe11e207764b766d2f3f9154102aea9ea15440a2c8fb37f902587ec9c0153ae", "asm": "0 304402202844cdf0b5bf9d5d45841b7fee073a87136aed948771fbde86cf3b19efc291ac0220366e7cc778001fbd58fa11dd1f48b9b57e19b6dbed93f418351975be0125f056[ALL] 30440220101f27b11efb526349b93d632086d70bde69a98d48e92a97eccd0f69874b57ba02207e417b7027b0ef22928dd8a6a0888236064d08f249bdf06d754c2fdaafe351f1[ALL] 5221027669d84728aa06bbf2ee18066d90d180d487cf2c9f62ee1f8eea5f4ffbf3f62c2102b99a33baa76636fecc5daa7933b20c1ace62a2bb4b8ac08c0a4e9427a75d68502103d0cc3fe11e207764b766d2f3f9154102aea9ea15440a2c8fb37f902587ec9c0153ae"}, "vout": 0, "txid": "52394964e1525293e172b521feebafc70221e793fa17f4fb249d623122ddb7fe"}], "txid": "8283693f39df1872f7a7759fce92297b6b01e8931f7d1bcae5eae1c86da7ef65", "blocktime": 1537872475, "version": 1, "confirmations": 11487, "time": 1537872475, "locktime": 0, "vsize": 801, "size": 993}