{"hash": "8286e1a0e760fc8b14d843554494d9309f81192418b22378347ad8c410784119", "blockhash": "0000000000000000001e0dab787dd257d1dbfcb92a98c2207d5e1078be1f4165", "vout": [{"scriptPubKey": {"type": "nulldata", "hex": "6a4c50000077af000133d242bfa6513a9aee3b9501af6c953dd567cf27e7e3ef3236678a62509767e2578ffb078e13fec09074c7521b0a5baa11320612075735e6fe33bc9a9526289ac0f6612cd74e33776ee4", "asm": "OP_RETURN 000077af000133d242bfa6513a9aee3b9501af6c953dd567cf27e7e3ef3236678a62509767e2578ffb078e13fec09074c7521b0a5baa11320612075735e6fe33bc9a9526289ac0f6612cd74e33776ee4"}, "value": 0.0, "n": 0}, {"scriptPubKey": {"reqSigs": 1, "hex": "76a914f5132b417aa8eda73972547fd913d6aae594400188ac", "addresses": ["1PLqWt91Sy3e99DAt16jJ3igSUEhtJ9KuZ"], "asm": "OP_DUP OP_HASH160 f5132b417aa8eda73972547fd913d6aae5944001 OP_EQUALVERIFY OP_CHECKSIG", "type": "pubkeyhash"}, "value": 0.0013552, "n": 1}], "hex": "010000000192148048b0f817c2d5a1197021bf906725fbc9d8a7872ca2f5af1b9cdd831c3a010000006b4830450221009901f61c26fbd0153095508ba67bee1cfcb730b17ca3926201b86cb673e48233022040c2c20a4a9b46811e6c9f35a3403798f3f7cbaca17a47f97d667742f73961e901210235d90b47ee7777c8cb92c56f77363b5b551dd7da91097d3dda5dd764c768f2caffffffff020000000000000000536a4c50000077af000133d242bfa6513a9aee3b9501af6c953dd567cf27e7e3ef3236678a62509767e2578ffb078e13fec09074c7521b0a5baa11320612075735e6fe33bc9a9526289ac0f6612cd74e33776ee460110200000000001976a914f5132b417aa8eda73972547fd913d6aae594400188ac00000000", "vin": [{"sequence": 4294967295, "scriptSig": {"hex": "4830450221009901f61c26fbd0153095508ba67bee1cfcb730b17ca3926201b86cb673e48233022040c2c20a4a9b46811e6c9f35a3403798f3f7cbaca17a47f97d667742f73961e901210235d90b47ee7777c8cb92c56f77363b5b551dd7da91097d3dda5dd764c768f2ca", "asm": "30450221009901f61c26fbd0153095508ba67bee1cfcb730b17ca3926201b86cb673e48233022040c2c20a4a9b46811e6c9f35a3403798f3f7cbaca17a47f97d667742f73961e9[ALL] 0235d90b47ee7777c8cb92c56f77363b5b551dd7da91097d3dda5dd764c768f2ca"}, "vout": 1, "txid": "3a1c83dd9c1baff5a22c87a7d8c9fb256790bf217019a1d5c217f8b048801492"}], "txid": "8286e1a0e760fc8b14d843554494d9309f81192418b22378347ad8c410784119", "blocktime": 1537872475, "version": 1, "confirmations": 11486, "time": 1537872475, "locktime": 0, "vsize": 284, "size": 284}