{"hash": "8288586cbfbf9a3480219d899fbeb1e4e7836c39d0dfbf331127df4e285e74df", "blockhash": "0000000000000000001e0dab787dd257d1dbfcb92a98c2207d5e1078be1f4165", "vout": [{"scriptPubKey": {"reqSigs": 1, "hex": "76a914bae7a3139f3fe7e7ba05e6360e46dde96482667588ac", "addresses": ["1J3GB6xG7HL6WNRjjXpQdwq3PMgRF2jn3u"], "asm": "OP_DUP OP_HASH160 bae7a3139f3fe7e7ba05e6360e46dde964826675 OP_EQUALVERIFY OP_CHECKSIG", "type": "pubkeyhash"}, "value": 1.562e-05, "n": 0}, {"scriptPubKey": {"reqSigs": 1, "hex": "76a914f372f0f25f0ff32b2b6b6ab4dd5c681edddc5d2688ac", "addresses": ["1PCEtsRBdfpDAQc1N8UffPQrVhRdpSwUgn"], "asm": "OP_DUP OP_HASH160 f372f0f25f0ff32b2b6b6ab4dd5c681edddc5d26 OP_EQUALVERIFY OP_CHECKSIG", "type": "pubkeyhash"}, "value": 0.0699776, "n": 1}], "hex": "0100000001dea90dbb1db3f09cc9ab9c7b4bac921d82c8912b7fed3094a6a2ef2556378d2d010000006a47304402207e334986fcfe82880d2671c7ca8d11fe692a7ea7fb2624e929906841250cd5f8022072bed004874c90a915f6d571c780c25a05402672d81bfab94a319d455a15d6370121030ce4e104f8f54f1a6db85f1b25c59fca3a476a0e680710cfd530070504b3ee51ffffffff021a060000000000001976a914bae7a3139f3fe7e7ba05e6360e46dde96482667588ac00c76a00000000001976a914f372f0f25f0ff32b2b6b6ab4dd5c681edddc5d2688ac00000000", "vin": [{"sequence": 4294967295, "scriptSig": {"hex": "47304402207e334986fcfe82880d2671c7ca8d11fe692a7ea7fb2624e929906841250cd5f8022072bed004874c90a915f6d571c780c25a05402672d81bfab94a319d455a15d6370121030ce4e104f8f54f1a6db85f1b25c59fca3a476a0e680710cfd530070504b3ee51", "asm": "304402207e334986fcfe82880d2671c7ca8d11fe692a7ea7fb2624e929906841250cd5f8022072bed004874c90a915f6d571c780c25a05402672d81bfab94a319d455a15d637[ALL] 030ce4e104f8f54f1a6db85f1b25c59fca3a476a0e680710cfd530070504b3ee51"}, "vout": 1, "txid": "2d8d375625efa2a69430ed7f2b91c8821d92ac4b7b9cabc99cf0b31dbb0da9de"}], "txid": "8288586cbfbf9a3480219d899fbeb1e4e7836c39d0dfbf331127df4e285e74df", "blocktime": 1537872475, "version": 1, "confirmations": 11487, "time": 1537872475, "locktime": 0, "vsize": 225, "size": 225}