{"hash": "828cf42ed15ac94d49fa848f38382a7c33b68b527144cb6db85e75cef15397f5", "blockhash": "00000000000000000004ffacab907a6b429b9a5745fa0b75af4234bf69dd7176", "vout": [{"scriptPubKey": {"reqSigs": 1, "hex": "76a914c41789c22e429b871da4451df6c28dc990e6d59288ac", "addresses": ["1Jsqe4FEoq7pALTDhXJ7VXcbarQGPmscEN"], "asm": "OP_DUP OP_HASH160 c41789c22e429b871da4451df6c28dc990e6d592 OP_EQUALVERIFY OP_CHECKSIG", "type": "pubkeyhash"}, "value": 0.2491387, "n": 0}, {"scriptPubKey": {"reqSigs": 1, "hex": "a91469d48312e4936b0df02aed59c8c786ef2bfe532e87", "addresses": ["3BLbTH8zagWw4Lp3zg7WkXozm6awe65xcA"], "asm": "OP_HASH160 69d48312e4936b0df02aed59c8c786ef2bfe532e OP_EQUAL", "type": "scripthash"}, "value": 0.04973769, "n": 1}], "hex": "0200000001ab9cf3a8505152bf7c6ee1b63f4b359c7f32fe47155ad2a61463c63790a5d7c3000000006b4830450221009da53752e81bcadb3c1e85e7b04249ae536c73477d35152cf7e58c8fdef66cc9022031fa86b0b09abc0558b9f0d46e4b821bcfa018be54b1344b011d37ed3f2258c701210383dc2b0099b30e5bcc181142be12bdde020ee680d251fd8cd698ce812ce7ff44feffffff02ce277c01000000001976a914c41789c22e429b871da4451df6c28dc990e6d59288acc9e44b000000000017a91469d48312e4936b0df02aed59c8c786ef2bfe532e8716490800", "vin": [{"sequence": 4294967294, "scriptSig": {"hex": "4830450221009da53752e81bcadb3c1e85e7b04249ae536c73477d35152cf7e58c8fdef66cc9022031fa86b0b09abc0558b9f0d46e4b821bcfa018be54b1344b011d37ed3f2258c701210383dc2b0099b30e5bcc181142be12bdde020ee680d251fd8cd698ce812ce7ff44", "asm": "30450221009da53752e81bcadb3c1e85e7b04249ae536c73477d35152cf7e58c8fdef66cc9022031fa86b0b09abc0558b9f0d46e4b821bcfa018be54b1344b011d37ed3f2258c7[ALL] 0383dc2b0099b30e5bcc181142be12bdde020ee680d251fd8cd698ce812ce7ff44"}, "vout": 0, "txid": "c3d7a59037c66314a6d25a1547fe327f9c354b3fb6e16e7cbf525150a8f39cab"}], "txid": "828cf42ed15ac94d49fa848f38382a7c33b68b527144cb6db85e75cef15397f5", "blocktime": 1537875543, "version": 2, "confirmations": 11464, "time": 1537875543, "locktime": 542998, "vsize": 224, "size": 224}