{"hash": "829310d9f7c4be56bf693a435afa7d4f3dfeb0687377b93519411f56c040fe07", "blockhash": "00000000000000000004ffacab907a6b429b9a5745fa0b75af4234bf69dd7176", "vout": [{"scriptPubKey": {"reqSigs": 1, "hex": "a914206b9953de7f861891ea193065adc655dfba67c687", "addresses": ["34eSSndHVuE9iAB9ThRfJF97VLuMNoETRT"], "asm": "OP_HASH160 206b9953de7f861891ea193065adc655dfba67c6 OP_EQUAL", "type": "scripthash"}, "value": 0.00115989, "n": 0}, {"scriptPubKey": {"reqSigs": 1, "hex": "76a9148b15e5c97ca2a5e6f42b51d48a327af4a37d012488ac", "addresses": ["1DgRA8w1e5eHAiFcQcoZAT35TotMpLrUem"], "asm": "OP_DUP OP_HASH160 8b15e5c97ca2a5e6f42b51d48a327af4a37d0124 OP_EQUALVERIFY OP_CHECKSIG", "type": "pubkeyhash"}, "value": 0.00355394, "n": 1}], "hex": "0100000001503b070ba5bee9efda5688552615cf72f5093a3ea76b754bca3d834b478b62d0010000006b483045022100f753b91840fba6dde3ac4c4cc94143fe17beda0461ce72b988c5a5ec6e3d1fe402207d825edde5045bbf2f18a86a22eb3f1965039d6dc0e5903ffeb1300352c7ddfb01210306026c3b601f2e7d8db67cf834f6e22ddf003e2afca5604bcbbbd4b904b4fdb4ffffffff0215c501000000000017a914206b9953de7f861891ea193065adc655dfba67c687426c0500000000001976a9148b15e5c97ca2a5e6f42b51d48a327af4a37d012488ac00000000", "vin": [{"sequence": 4294967295, "scriptSig": {"hex": "483045022100f753b91840fba6dde3ac4c4cc94143fe17beda0461ce72b988c5a5ec6e3d1fe402207d825edde5045bbf2f18a86a22eb3f1965039d6dc0e5903ffeb1300352c7ddfb01210306026c3b601f2e7d8db67cf834f6e22ddf003e2afca5604bcbbbd4b904b4fdb4", "asm": "3045022100f753b91840fba6dde3ac4c4cc94143fe17beda0461ce72b988c5a5ec6e3d1fe402207d825edde5045bbf2f18a86a22eb3f1965039d6dc0e5903ffeb1300352c7ddfb[ALL] 0306026c3b601f2e7d8db67cf834f6e22ddf003e2afca5604bcbbbd4b904b4fdb4"}, "vout": 1, "txid": "d0628b474b833dca4b756ba73e3a09f572cf1526558856daefe9bea50b073b50"}], "txid": "829310d9f7c4be56bf693a435afa7d4f3dfeb0687377b93519411f56c040fe07", "blocktime": 1537875543, "version": 1, "confirmations": 11464, "time": 1537875543, "locktime": 0, "vsize": 224, "size": 224}