{"hash": "829cf418c55edd35ba9ea951543bf3abbde6d94f3a4b9d44fc0f9b404394f116", "blockhash": "00000000000000000017f5eb5941039fbcee6240d03bc1f2f8e35350df66a1d8", "vout": [{"scriptPubKey": {"type": "nulldata", "hex": "6a146f6d6e69000000000000001f00000018956a8080", "asm": "OP_RETURN 6f6d6e69000000000000001f00000018956a8080"}, "value": 0.0, "n": 0}, {"scriptPubKey": {"reqSigs": 1, "hex": "76a914a25dec4d0011064ef106a983c39c7a540699f22088ac", "addresses": ["1FoWyxwPXuj4C6abqwhjDWdz6D4PZgYRjA"], "asm": "OP_DUP OP_HASH160 a25dec4d0011064ef106a983c39c7a540699f220 OP_EQUALVERIFY OP_CHECKSIG", "type": "pubkeyhash"}, "value": 5.46e-06, "n": 1}, {"scriptPubKey": {"reqSigs": 1, "hex": "76a91456db2f63cf7c354311911b935d3b90b821f7511488ac", "addresses": ["18vFgkHbkWkar74Sn7Eyoyw6TBTPrv7rCG"], "asm": "OP_DUP OP_HASH160 56db2f63cf7c354311911b935d3b90b821f75114 OP_EQUALVERIFY OP_CHECKSIG", "type": "pubkeyhash"}, "value": 0.00499064, "n": 2}], "hex": "01000000013a4c1d798db6bc890731bb89fb16f82f1d6cbe6a01b7d47d30c65bc3d1988db3050000006a4730440220347dffd51a6ad6465d9a3db77a083999a6bac77acb08c1595851e507667e56c9022070e610ffe5e9f57d838a5673b59477fc68fadf52d0bef3fb55c1bb88353ebe27012102d5f479fd7ece2e6070732f99313c6f1f8e7e70c4521273592a842e8d6c85bb52feffffff030000000000000000166a146f6d6e69000000000000001f00000018956a808022020000000000001976a914a25dec4d0011064ef106a983c39c7a540699f22088ac789d0700000000001976a91456db2f63cf7c354311911b935d3b90b821f7511488ac15490800", "vin": [{"sequence": 4294967294, "scriptSig": {"hex": "4730440220347dffd51a6ad6465d9a3db77a083999a6bac77acb08c1595851e507667e56c9022070e610ffe5e9f57d838a5673b59477fc68fadf52d0bef3fb55c1bb88353ebe27012102d5f479fd7ece2e6070732f99313c6f1f8e7e70c4521273592a842e8d6c85bb52", "asm": "30440220347dffd51a6ad6465d9a3db77a083999a6bac77acb08c1595851e507667e56c9022070e610ffe5e9f57d838a5673b59477fc68fadf52d0bef3fb55c1bb88353ebe27[ALL] 02d5f479fd7ece2e6070732f99313c6f1f8e7e70c4521273592a842e8d6c85bb52"}, "vout": 5, "txid": "b38d98d1c35bc6307dd4b7016abe6c1d2ff816fb89bb310789bcb68d791d4c3a"}], "txid": "829cf418c55edd35ba9ea951543bf3abbde6d94f3a4b9d44fc0f9b404394f116", "blocktime": 1537874412, "version": 1, "confirmations": 11468, "time": 1537874412, "locktime": 542997, "vsize": 256, "size": 256}