{"hash": "829e836a26c4cc624ddbeec9ec0798f913096cd6b6b2e26cfb55a2fd813910c6", "blockhash": "00000000000000000024a2167bbff67b0be802c0b01cdd79e6331c2be6459f87", "vout": [{"scriptPubKey": {"reqSigs": 1, "hex": "a914ae5852cadf108fde3a6751b22ed0b59edbaba55687", "addresses": ["3HasJjtNVBgpV63i16vxtz4QgsFYt44d7o"], "asm": "OP_HASH160 ae5852cadf108fde3a6751b22ed0b59edbaba556 OP_EQUAL", "type": "scripthash"}, "value": 0.0022, "n": 0}, {"scriptPubKey": {"reqSigs": 1, "hex": "76a9149af9380b11fba90cbdbea456f1eef679f4256ce388ac", "addresses": ["1F8RcaQU7HvP1R1ThKLmqAqnhyA2d34cZr"], "asm": "OP_DUP OP_HASH160 9af9380b11fba90cbdbea456f1eef679f4256ce3 OP_EQUALVERIFY OP_CHECKSIG", "type": "pubkeyhash"}, "value": 0.0029628, "n": 1}], "hex": "0100000001c3b3215c5ffa84477c49ebde8cfae113dc577d6e6c0bbb85c2c5efb4a6542ea7000000006b483045022100eb0b8b22fb112cc82931d38ae5abd6fd63019a60ac319f7da587f3a113daa23102202d692650d0f71dfee12516ee52165ee08cdb63282f1f88e372553784966826cb012103b76682f9a7544d3056e4445d64b2ed9492d866ef688603c81172dea214f55342fdffffff02605b03000000000017a914ae5852cadf108fde3a6751b22ed0b59edbaba5568758850400000000001976a9149af9380b11fba90cbdbea456f1eef679f4256ce388ac0d490800", "vin": [{"sequence": 4294967293, "scriptSig": {"hex": "483045022100eb0b8b22fb112cc82931d38ae5abd6fd63019a60ac319f7da587f3a113daa23102202d692650d0f71dfee12516ee52165ee08cdb63282f1f88e372553784966826cb012103b76682f9a7544d3056e4445d64b2ed9492d866ef688603c81172dea214f55342", "asm": "3045022100eb0b8b22fb112cc82931d38ae5abd6fd63019a60ac319f7da587f3a113daa23102202d692650d0f71dfee12516ee52165ee08cdb63282f1f88e372553784966826cb[ALL] 03b76682f9a7544d3056e4445d64b2ed9492d866ef688603c81172dea214f55342"}, "vout": 0, "txid": "a72e54a6b4efc5c285bb0b6c6e7d57dc13e1fa8cdeeb497c4784fa5f5c21b3c3"}], "txid": "829e836a26c4cc624ddbeec9ec0798f913096cd6b6b2e26cfb55a2fd813910c6", "blocktime": 1537870564, "version": 1, "confirmations": 11515, "time": 1537870564, "locktime": 542989, "vsize": 224, "size": 224}