{"hash": "829fd4631cb7eaaa091d57469dcc303fc88567336fddbd4b1169d5d14d68a347", "blockhash": "0000000000000000001f76057863aec43deb6fa401d9628bb513d65a8098bfab", "vout": [{"scriptPubKey": {"reqSigs": 1, "hex": "76a9140499d41c858775faf25a023e552cfe77199ffff688ac", "addresses": ["1RKyxrjqJ8f7xaXfTtFHFst7KKr3WKmHs"], "asm": "OP_DUP OP_HASH160 0499d41c858775faf25a023e552cfe77199ffff6 OP_EQUALVERIFY OP_CHECKSIG", "type": "pubkeyhash"}, "value": 0.00200255, "n": 0}, {"scriptPubKey": {"reqSigs": 1, "hex": "76a914cf1ff49562020e03e4238e4397abb0003d3cef0288ac", "addresses": ["1KtBA1YMH74P6GoLNrRP5jHDWkY3q3jaYj"], "asm": "OP_DUP OP_HASH160 cf1ff49562020e03e4238e4397abb0003d3cef02 OP_EQUALVERIFY OP_CHECKSIG", "type": "pubkeyhash"}, "value": 0.01789745, "n": 1}], "hex": "01000000026753cfd22184016313dd7f344b979cf3d0cc2cd9f7d3e38040cae8c91f224d51110000006b48304502210084ba13c69c0732bcc0cdd31cadea34029f71217f2dd821478303b07fa1e015a10220120aff6efb5de66ac06041f66251631889be7769829e754939e04ba6fa83de14012102571314fc7243d143df7e4201fadcac7a1aa854e7b76000a17808b8fe01508056fdfffffffa83ad60c8dca5dc7b2dbf7778da822244790f6bbfb680babeb3395dd545ffca010000006b483045022100fc1b664e0d8caf0bbbdde5c41d2d0ae22fbf3d5392732d0d9218a5133072c34c022004dec49e182a6977808e9cb93afa47111007d481b3ffcbf7acfa4de78dd3877a012103953ea6129787b8582537e94fa6b7af4e2fe8f9dc3bbef2c5b5492e5cddb3befffdffffff023f0e0300000000001976a9140499d41c858775faf25a023e552cfe77199ffff688ac314f1b00000000001976a914cf1ff49562020e03e4238e4397abb0003d3cef0288ac14490800", "vin": [{"sequence": 4294967293, "scriptSig": {"hex": "48304502210084ba13c69c0732bcc0cdd31cadea34029f71217f2dd821478303b07fa1e015a10220120aff6efb5de66ac06041f66251631889be7769829e754939e04ba6fa83de14012102571314fc7243d143df7e4201fadcac7a1aa854e7b76000a17808b8fe01508056", "asm": "304502210084ba13c69c0732bcc0cdd31cadea34029f71217f2dd821478303b07fa1e015a10220120aff6efb5de66ac06041f66251631889be7769829e754939e04ba6fa83de14[ALL] 02571314fc7243d143df7e4201fadcac7a1aa854e7b76000a17808b8fe01508056"}, "vout": 17, "txid": "514d221fc9e8ca4080e3d3f7d92cccd0f39c974b347fdd1363018421d2cf5367"}, {"sequence": 4294967293, "scriptSig": {"hex": "483045022100fc1b664e0d8caf0bbbdde5c41d2d0ae22fbf3d5392732d0d9218a5133072c34c022004dec49e182a6977808e9cb93afa47111007d481b3ffcbf7acfa4de78dd3877a012103953ea6129787b8582537e94fa6b7af4e2fe8f9dc3bbef2c5b5492e5cddb3beff", "asm": "3045022100fc1b664e0d8caf0bbbdde5c41d2d0ae22fbf3d5392732d0d9218a5133072c34c022004dec49e182a6977808e9cb93afa47111007d481b3ffcbf7acfa4de78dd3877a[ALL] 03953ea6129787b8582537e94fa6b7af4e2fe8f9dc3bbef2c5b5492e5cddb3beff"}, "vout": 1, "txid": "caff45d55d39b3beba80b6bf6b0f79442282da7877bf2d7bdca5dcc860ad83fa"}], "txid": "829fd4631cb7eaaa091d57469dcc303fc88567336fddbd4b1169d5d14d68a347", "blocktime": 1537873891, "version": 1, "confirmations": 11474, "time": 1537873891, "locktime": 542996, "vsize": 374, "size": 374}