{"hash": "a29dfed95a5976ac5da2208d327cdadce5f448116be13d9f0c7a0098d622a891", "blockhash": "0000000000000000000dcc0f55137456b1a82d3642486a52398922ac4d620174", "vout": [{"scriptPubKey": {"reqSigs": 1, "hex": "a91424c1f5f4ed9e76aad735ca0b3dad598623d022fc87", "addresses": ["353Nc5bjz3H9buzwHSYtiPkomSjPd6YRBe"], "asm": "OP_HASH160 24c1f5f4ed9e76aad735ca0b3dad598623d022fc OP_EQUAL", "type": "scripthash"}, "value": 0.01249929, "n": 0}, {"scriptPubKey": {"reqSigs": 1, "hex": "76a914b225455d7f42fd9db9ebd5e276b27b9982c4cfa888ac", "addresses": ["1HEwvn652ycBECxxjsAzgMkbHBofsHQrS3"], "asm": "OP_DUP OP_HASH160 b225455d7f42fd9db9ebd5e276b27b9982c4cfa8 OP_EQUALVERIFY OP_CHECKSIG", "type": "pubkeyhash"}, "value": 0.0086758, "n": 1}], "hex": "0200000000010226cfdf5ed586958f363a001ae9e662c54b04d21d5007e9f29df361a9910538ce000000001716001421da818f7cb7a02d1afe74ba0dde5ac4f150c2aafeffffffe05314c357e57af4c8a086999a8474ac35774803112d0c116177942466f56d9e0000000017160014df4aa5081cf072b3638bab805c30a6686e65d2a5feffffff02891213000000000017a91424c1f5f4ed9e76aad735ca0b3dad598623d022fc87fc3c0d00000000001976a914b225455d7f42fd9db9ebd5e276b27b9982c4cfa888ac02483045022100b45b30d784b30918929fdfd31edd8cea1b9db515b21d9294fd65eb0d8c4e4ca9022016a64d475dc4999f44dec7f3f5777dd0464c5869e3aab7b1422a880e05c367c9012102c7d3cce5d2af613ec13ac40449ae9da5e1dc158749f5338d844e26e8ee9da962024730440220281b181889721d15f5b15e79452ed39492bfc7faf758fbec6d77f57e7ebd57f902206f8cd95539db45dc1d6fbd546b46f7f44f63b41fb0b9cbabe68b44ecb49e681d012102b5c2b079be26cdd22e92d71487d6ad7e2aa396e03d618cf8fb8cf7354b3e5d170c490800", "vin": [{"txinwitness": ["3045022100b45b30d784b30918929fdfd31edd8cea1b9db515b21d9294fd65eb0d8c4e4ca9022016a64d475dc4999f44dec7f3f5777dd0464c5869e3aab7b1422a880e05c367c901", "02c7d3cce5d2af613ec13ac40449ae9da5e1dc158749f5338d844e26e8ee9da962"], "sequence": 4294967294, "scriptSig": {"hex": "16001421da818f7cb7a02d1afe74ba0dde5ac4f150c2aa", "asm": "001421da818f7cb7a02d1afe74ba0dde5ac4f150c2aa"}, "vout": 0, "txid": "ce380591a961f39df2e907501dd2044bc562e6e91a003a368f9586d55edfcf26"}, {"txinwitness": ["30440220281b181889721d15f5b15e79452ed39492bfc7faf758fbec6d77f57e7ebd57f902206f8cd95539db45dc1d6fbd546b46f7f44f63b41fb0b9cbabe68b44ecb49e681d01", "02b5c2b079be26cdd22e92d71487d6ad7e2aa396e03d618cf8fb8cf7354b3e5d17"], "sequence": 4294967294, "scriptSig": {"hex": "160014df4aa5081cf072b3638bab805c30a6686e65d2a5", "asm": "0014df4aa5081cf072b3638bab805c30a6686e65d2a5"}, "vout": 0, "txid": "9e6df56624947761110c2d1103487735ac74849a9986a0c8f47ae557c31453e0"}], "txid": "82a25f5ed7eda3c42d7401e01c14d1d7743a6eba683e246c27adc06cde1ac395", "blocktime": 1537870268, "version": 2, "confirmations": 11518, "time": 1537870268, "locktime": 542988, "vsize": 259, "size": 421}