{"hash": "82a978d3115e7a732621d84dfe846e9e8f254e56940da900b51604f9e7e4c2b3", "blockhash": "00000000000000000024a2167bbff67b0be802c0b01cdd79e6331c2be6459f87", "vout": [{"scriptPubKey": {"reqSigs": 1, "hex": "a91409857d0fb706a1207f6781bb0057ebdff8059c5387", "addresses": ["32ZMvDSRTk9gRWAP9R9rDrTSv6f4sYPwSy"], "asm": "OP_HASH160 09857d0fb706a1207f6781bb0057ebdff8059c53 OP_EQUAL", "type": "scripthash"}, "value": 0.00235594, "n": 0}, {"scriptPubKey": {"reqSigs": 1, "hex": "76a91496bc7931d5785decc4c730c8b89eb21794d0d56f88ac", "addresses": ["1Ek298xJZLWC7u9GGRTKbJC3cWbJuhsEMu"], "asm": "OP_DUP OP_HASH160 96bc7931d5785decc4c730c8b89eb21794d0d56f OP_EQUALVERIFY OP_CHECKSIG", "type": "pubkeyhash"}, "value": 0.03917423, "n": 1}], "hex": "0100000001467f6043db9618c828234f5a9abc2465a8464ddd7111367c4838059b1da14c56010000006b483045022100e0a238441c759ea8e14db3fea69e94a74223b029dc44b436907a701c286adfcf02200d553bc49449378b19d2c0994c0e7df87c9d6af32b45f5d31673ccb6e0df758c012102c12dddc43482b28611288971496ecc196c306324dfc9d817c49cf566d5a7d659ffffffff024a9803000000000017a91409857d0fb706a1207f6781bb0057ebdff8059c53876fc63b00000000001976a91496bc7931d5785decc4c730c8b89eb21794d0d56f88ac00000000", "vin": [{"sequence": 4294967295, "scriptSig": {"hex": "483045022100e0a238441c759ea8e14db3fea69e94a74223b029dc44b436907a701c286adfcf02200d553bc49449378b19d2c0994c0e7df87c9d6af32b45f5d31673ccb6e0df758c012102c12dddc43482b28611288971496ecc196c306324dfc9d817c49cf566d5a7d659", "asm": "3045022100e0a238441c759ea8e14db3fea69e94a74223b029dc44b436907a701c286adfcf02200d553bc49449378b19d2c0994c0e7df87c9d6af32b45f5d31673ccb6e0df758c[ALL] 02c12dddc43482b28611288971496ecc196c306324dfc9d817c49cf566d5a7d659"}, "vout": 1, "txid": "564ca11d9b0538487c361171dd4d46a86524bc9a5a4f2328c81896db43607f46"}], "txid": "82a978d3115e7a732621d84dfe846e9e8f254e56940da900b51604f9e7e4c2b3", "blocktime": 1537870564, "version": 1, "confirmations": 11515, "time": 1537870564, "locktime": 0, "vsize": 224, "size": 224}