{"hash": "82aca4479f177758954e99f935d1cbe8160d3f936cfe7107e168e8094444db1d", "blockhash": "00000000000000000017f5eb5941039fbcee6240d03bc1f2f8e35350df66a1d8", "vout": [{"scriptPubKey": {"reqSigs": 1, "hex": "a91446d7e40f53c4975c02b09dca040f8f60ae5bd09487", "addresses": ["389brLCCWRr5Md7NwagCqbdm8jPMFHSoPB"], "asm": "OP_HASH160 46d7e40f53c4975c02b09dca040f8f60ae5bd094 OP_EQUAL", "type": "scripthash"}, "value": 0.00500018, "n": 0}, {"scriptPubKey": {"reqSigs": 1, "hex": "76a9149bb32cca2657f676216f6b4f7bf8f9366c0d7afe88ac", "addresses": ["1FCGP2dibfEZwPmG4CYVXADVyfTq4HT94D"], "asm": "OP_DUP OP_HASH160 9bb32cca2657f676216f6b4f7bf8f9366c0d7afe OP_EQUALVERIFY OP_CHECKSIG", "type": "pubkeyhash"}, "value": 0.02620619, "n": 1}], "hex": "0100000001f5b0023cd941142f228315eebcc74a3b928d951179c4d62bb22a1fb0ef2f509c010000006a47304402207b6c008176594cc0f1764af885e12acd4963ebe3058405bbff8fb21eb2043b4e02203ab36be655e0389edfb4c317f7eb4abcc21598a1c7d4cd42c7e5a1922e7c7554012102282cedfca392a9ad96a5f6efc17a5064ea3f6a921c3a8e4d176b42c8bc83d9f3ffffffff0232a107000000000017a91446d7e40f53c4975c02b09dca040f8f60ae5bd09487cbfc2700000000001976a9149bb32cca2657f676216f6b4f7bf8f9366c0d7afe88ac00000000", "vin": [{"sequence": 4294967295, "scriptSig": {"hex": "47304402207b6c008176594cc0f1764af885e12acd4963ebe3058405bbff8fb21eb2043b4e02203ab36be655e0389edfb4c317f7eb4abcc21598a1c7d4cd42c7e5a1922e7c7554012102282cedfca392a9ad96a5f6efc17a5064ea3f6a921c3a8e4d176b42c8bc83d9f3", "asm": "304402207b6c008176594cc0f1764af885e12acd4963ebe3058405bbff8fb21eb2043b4e02203ab36be655e0389edfb4c317f7eb4abcc21598a1c7d4cd42c7e5a1922e7c7554[ALL] 02282cedfca392a9ad96a5f6efc17a5064ea3f6a921c3a8e4d176b42c8bc83d9f3"}, "vout": 1, "txid": "9c502fefb01f2ab22bd6c47911958d923b4ac7bcee1583222f1441d93c02b0f5"}], "txid": "82aca4479f177758954e99f935d1cbe8160d3f936cfe7107e168e8094444db1d", "blocktime": 1537874412, "version": 1, "confirmations": 11467, "time": 1537874412, "locktime": 0, "vsize": 223, "size": 223}