{"hash": "82ac1f2e009d0c03157c80ab02e55d7c5cc1302f9fb1290c84dcba1e84f68dad", "blockhash": "000000000000000000022b45ed06c6f4ccd3cf7fb5ba4856ebd2e58215665228", "vout": [{"scriptPubKey": {"reqSigs": 1, "hex": "a9146e788a33d689cd25e30d3370d7d7558ba75be15e87", "addresses": ["3Bm8euD3URKnDr85aeJyJvyqZxf4v72kcv"], "asm": "OP_HASH160 6e788a33d689cd25e30d3370d7d7558ba75be15e OP_EQUAL", "type": "scripthash"}, "value": 5e-05, "n": 0}, {"scriptPubKey": {"reqSigs": 1, "hex": "76a914a26126483607d6feb9a96110ee931c026fec6a0c88ac", "addresses": ["1Foar9QJi6nA4ynh83qTcPW6CCNvdLSji9"], "asm": "OP_DUP OP_HASH160 a26126483607d6feb9a96110ee931c026fec6a0c OP_EQUALVERIFY OP_CHECKSIG", "type": "pubkeyhash"}, "value": 0.00011, "n": 1}], "hex": "0100000001b61cf2c5fc7cd790e01c48664bdbb1b3a29d12d84410f2b9213f7d7abacc7669010000006a473044022065d8d5974e2f0d52a6c26c90e04702e5e5c2c9bba96c30c37e1ef2d96486bf9802203d94c911be6b5bf7868be3fb50e976e3811c5eb214d258251c68b0078b24572201210208f26a3ec3ac956ba9f9b0b50e60b7cd31d97060cde63410ad3c178e60660bebffffffff02881300000000000017a9146e788a33d689cd25e30d3370d7d7558ba75be15e87f82a0000000000001976a914a26126483607d6feb9a96110ee931c026fec6a0c88ac00000000", "vin": [{"sequence": 4294967295, "scriptSig": {"hex": "473044022065d8d5974e2f0d52a6c26c90e04702e5e5c2c9bba96c30c37e1ef2d96486bf9802203d94c911be6b5bf7868be3fb50e976e3811c5eb214d258251c68b0078b24572201210208f26a3ec3ac956ba9f9b0b50e60b7cd31d97060cde63410ad3c178e60660beb", "asm": "3044022065d8d5974e2f0d52a6c26c90e04702e5e5c2c9bba96c30c37e1ef2d96486bf9802203d94c911be6b5bf7868be3fb50e976e3811c5eb214d258251c68b0078b245722[ALL] 0208f26a3ec3ac956ba9f9b0b50e60b7cd31d97060cde63410ad3c178e60660beb"}, "vout": 1, "txid": "6976ccba7a7d3f21b9f21044d8129da2b3b1db4b66481ce090d77cfcc5f21cb6"}], "txid": "82ac1f2e009d0c03157c80ab02e55d7c5cc1302f9fb1290c84dcba1e84f68dad", "blocktime": 1537869901, "version": 1, "confirmations": 11524, "time": 1537869901, "locktime": 0, "vsize": 223, "size": 223}