{"hash": "82adedf66832781c19deeebb3425513a55aafe4e026dead57d64c1fa6eb1d321", "blockhash": "0000000000000000001cda96e906b7601b7a6fb1a3b62bca570a9e5d8f4b3de1", "vout": [{"scriptPubKey": {"reqSigs": 1, "hex": "76a914c16ca792e7d25456840127531a85594910d99bda88ac", "addresses": ["1JdjaUcyfpdH9c5TUyX9bNed7QnSyF1JCa"], "asm": "OP_DUP OP_HASH160 c16ca792e7d25456840127531a85594910d99bda OP_EQUALVERIFY OP_CHECKSIG", "type": "pubkeyhash"}, "value": 0.00015615, "n": 0}, {"scriptPubKey": {"reqSigs": 1, "hex": "76a914e6b39d719d72e400eb6e2c6e1b930754eb2a3f7488ac", "addresses": ["1N2qazUnKSzVCcSkjvNWRT57mfENmYStyF"], "asm": "OP_DUP OP_HASH160 e6b39d719d72e400eb6e2c6e1b930754eb2a3f74 OP_EQUALVERIFY OP_CHECKSIG", "type": "pubkeyhash"}, "value": 0.00023687, "n": 1}], "hex": "0100000001e710360be3667cc8e3a2a152a6fafeab3c4d668d2ab2ec95d57c397cecdb5bf4000000006a47304402204d8bc5c627b65b6a99f7fee932fd2436e71b19df3d5e60ca49c9a570788604ca02204bd34c482bf5cf5f331d7de961ec23b74461b4d28c6b6d58aed46ae6f49e7d670121030a819ff593840ee684f21a2eb3a75743c95c16f8c7cbc77acab5ff0a9f1eaf98ffffffff02ff3c0000000000001976a914c16ca792e7d25456840127531a85594910d99bda88ac875c0000000000001976a914e6b39d719d72e400eb6e2c6e1b930754eb2a3f7488ac00000000", "vin": [{"sequence": 4294967295, "scriptSig": {"hex": "47304402204d8bc5c627b65b6a99f7fee932fd2436e71b19df3d5e60ca49c9a570788604ca02204bd34c482bf5cf5f331d7de961ec23b74461b4d28c6b6d58aed46ae6f49e7d670121030a819ff593840ee684f21a2eb3a75743c95c16f8c7cbc77acab5ff0a9f1eaf98", "asm": "304402204d8bc5c627b65b6a99f7fee932fd2436e71b19df3d5e60ca49c9a570788604ca02204bd34c482bf5cf5f331d7de961ec23b74461b4d28c6b6d58aed46ae6f49e7d67[ALL] 030a819ff593840ee684f21a2eb3a75743c95c16f8c7cbc77acab5ff0a9f1eaf98"}, "vout": 0, "txid": "f45bdbec7c397cd595ecb22a8d664d3cabfefaa652a1a2e3c87c66e30b3610e7"}], "txid": "82adedf66832781c19deeebb3425513a55aafe4e026dead57d64c1fa6eb1d321", "blocktime": 1537873282, "version": 1, "confirmations": 11484, "time": 1537873282, "locktime": 0, "vsize": 225, "size": 225}