{"hash": "82b1c16cb28b9100016fcf27f439d2676cb90b4ca00bcf68a3f63485df75afd9", "blockhash": "0000000000000000000e13cef7c366c0283d82e591d1acd082e914b08063cdf1", "vout": [{"scriptPubKey": {"reqSigs": 1, "hex": "76a9145ec4ea51584307dea81304860fba19fe9cff872788ac", "addresses": ["19e6QwwTR5fxbJLXZX3bEgZ41D7b6X6WM5"], "asm": "OP_DUP OP_HASH160 5ec4ea51584307dea81304860fba19fe9cff8727 OP_EQUALVERIFY OP_CHECKSIG", "type": "pubkeyhash"}, "value": 0.01233594, "n": 0}, {"scriptPubKey": {"reqSigs": 1, "hex": "76a91478ceac3aa323365b31cba67365ba3f28995ad2c488ac", "addresses": ["1C1mftwFVwbT84qssq4s2A1TSASSuEmoXs"], "asm": "OP_DUP OP_HASH160 78ceac3aa323365b31cba67365ba3f28995ad2c4 OP_EQUALVERIFY OP_CHECKSIG", "type": "pubkeyhash"}, "value": 0.01421244, "n": 1}], "hex": "0100000001dc0b0beaeb0d28f52d1c6f7f8b3fa75991b9cdf36caf5e99140a29e134367cd2010000006b483045022100c77a8fc85846007143bcdf7d7af0949d8980afc0bef3a94fba268caccd5f225802201abc3e7f8fb3b99749fd923f34d379664cf09925ca8026c515047442ad0fed10012103850a61b6d252d885663ccd239d20ee3872543f4e7ad9033905b1dd8bb4241ee7ffffffff02bad21200000000001976a9145ec4ea51584307dea81304860fba19fe9cff872788acbcaf1500000000001976a91478ceac3aa323365b31cba67365ba3f28995ad2c488ac00000000", "vin": [{"sequence": 4294967295, "scriptSig": {"hex": "483045022100c77a8fc85846007143bcdf7d7af0949d8980afc0bef3a94fba268caccd5f225802201abc3e7f8fb3b99749fd923f34d379664cf09925ca8026c515047442ad0fed10012103850a61b6d252d885663ccd239d20ee3872543f4e7ad9033905b1dd8bb4241ee7", "asm": "3045022100c77a8fc85846007143bcdf7d7af0949d8980afc0bef3a94fba268caccd5f225802201abc3e7f8fb3b99749fd923f34d379664cf09925ca8026c515047442ad0fed10[ALL] 03850a61b6d252d885663ccd239d20ee3872543f4e7ad9033905b1dd8bb4241ee7"}, "vout": 1, "txid": "d27c3634e1290a14995eaf6cf3cdb99159a73f8b7f6f1c2df5280debea0b0bdc"}], "txid": "82b1c16cb28b9100016fcf27f439d2676cb90b4ca00bcf68a3f63485df75afd9", "blocktime": 1537871767, "version": 1, "confirmations": 11495, "time": 1537871767, "locktime": 0, "vsize": 226, "size": 226}