{"hash": "82b42612c7f9a936f9071b4303c7211b18cccf0b6f9bddfaea1c8abdba382291", "blockhash": "0000000000000000001cda96e906b7601b7a6fb1a3b62bca570a9e5d8f4b3de1", "vout": [{"scriptPubKey": {"reqSigs": 1, "hex": "76a9149516167d663b83b9ce9e31edf327a04da436078d88ac", "addresses": ["1EbJ9Gs8DShXJUnMXKdHTzn59ucE5XJCpL"], "asm": "OP_DUP OP_HASH160 9516167d663b83b9ce9e31edf327a04da436078d OP_EQUALVERIFY OP_CHECKSIG", "type": "pubkeyhash"}, "value": 0.00280911, "n": 0}, {"scriptPubKey": {"reqSigs": 1, "hex": "76a914c004255b101c674d6e0c8618700b58a5f873017a88ac", "addresses": ["1JWHhtuzwMKvNKphCxqYh9ASZzvS5SCczG"], "asm": "OP_DUP OP_HASH160 c004255b101c674d6e0c8618700b58a5f873017a OP_EQUALVERIFY OP_CHECKSIG", "type": "pubkeyhash"}, "value": 3.236e-05, "n": 1}], "hex": "0100000006b79a17ce87fa7895823637b2e67ed64a1ca77627c020da08b5dc3ab67d52dc41000000006b483045022100f0b89266af3b2b313515050d1c4334a1ccf83f046849983d839447b84184298e02207d30c57ae520e771b673ba0e1fdc7e894674a78672e6ced1e40afe59631e6903012102a7c22095b68779d69b52f4dca23ccad77f4ac85160ac9e39908b7332019a3938fffffffff38b14ed50b1ce6f60fbfae9103b6636f8a58f1e243bd3271ff790cb929f684e010000006a473044022030e15a97295d2d7a8aa73d24e53abf19b3e606f31a2c71e3e523c27753fc57e90220391e03f6559475dc62578458fdedfd6f2c3c38a45495b3ea9986b41a412ffc610121023e2260bfde255eb7a296622470e6d60bbee8bb2d5c9d673385b9976fe4165be3ffffffffbe6fdb70739db527891988adbe497c8c3a6ecb720c1c9097993cf2cbf4874a60010000006b483045022100af8af502ea46fb86e11e0e19f4f67528af2eef8ab0f3733fcf5b30cb92d7a7ab022028e0c6df801c8bb0d777facd14bfe2a9da0298754b2f7b35bd9274c728cf2ba5012102e71a02fb7e40cd02f97818a7216ecad1b4782fdddb6042e9783e2a27e0d3c640ffffffffd30190095064db3010494cd98c656c1ad0b83e3b7ba143f90de7178f73f3b798010000006b483045022100f6d17c02cd3d6796d1a21dfb93a6a6aa753ffc2b8c2ba0de5b71b4367ce4a63702206af12583cd396cc9c64e32967b8523d095feff6635a6cf3563163bf4703f7f0c0121027b6cae0481c9395b42812c9a38fe2e1093dbc1bc7e77bb57c0175ffc926719a0ffffffff923cb01e7db86557ea2e9b6c7df918eed717077f1b5a250ea6b534d7128fc5bf010000006a47304402204f7716ec2cf765312aa1aaa3c8f8ba7f9e1707520c07064d0639a9b7e33c847b0220613bd8ea31f9eb2356421fa7043cb37cbea19204f065b52b62ab1c06e8e95cf8012103625e20f41dc6cb16eecdda09ad701ab0ff636ac1aa2190c36523f30c5a5419fcffffffff4b296e76e53348745befaa0c4d9a3e3a2aa40ff96a06d8e2d66acbad1b1ad6a4010000006b48304502210097079f7ea64cf6ef0422016d74a63e44433f533c779f0774030d2963faa84acd0220040fdd56d1a7785899466250ce9281cdb426ce839c44d1db07daf3629cdf810b01210280f39316c2623be462d0f505c0a04701ae3967a97873381f766bb33c93985689ffffffff024f490400000000001976a9149516167d663b83b9ce9e31edf327a04da436078d88aca40c0000000000001976a914c004255b101c674d6e0c8618700b58a5f873017a88ac00000000", "vin": [{"sequence": 4294967295, "scriptSig": {"hex": "483045022100f0b89266af3b2b313515050d1c4334a1ccf83f046849983d839447b84184298e02207d30c57ae520e771b673ba0e1fdc7e894674a78672e6ced1e40afe59631e6903012102a7c22095b68779d69b52f4dca23ccad77f4ac85160ac9e39908b7332019a3938", "asm": "3045022100f0b89266af3b2b313515050d1c4334a1ccf83f046849983d839447b84184298e02207d30c57ae520e771b673ba0e1fdc7e894674a78672e6ced1e40afe59631e6903[ALL] 02a7c22095b68779d69b52f4dca23ccad77f4ac85160ac9e39908b7332019a3938"}, "vout": 0, "txid": "41dc527db63adcb508da20c02776a71c4ad67ee6b23736829578fa87ce179ab7"}, {"sequence": 4294967295, "scriptSig": {"hex": "473044022030e15a97295d2d7a8aa73d24e53abf19b3e606f31a2c71e3e523c27753fc57e90220391e03f6559475dc62578458fdedfd6f2c3c38a45495b3ea9986b41a412ffc610121023e2260bfde255eb7a296622470e6d60bbee8bb2d5c9d673385b9976fe4165be3", "asm": "3044022030e15a97295d2d7a8aa73d24e53abf19b3e606f31a2c71e3e523c27753fc57e90220391e03f6559475dc62578458fdedfd6f2c3c38a45495b3ea9986b41a412ffc61[ALL] 023e2260bfde255eb7a296622470e6d60bbee8bb2d5c9d673385b9976fe4165be3"}, "vout": 1, "txid": "4e689f92cb90f71f27d33b241e8fa5f836663b10e9fafb606fceb150ed148bf3"}, {"sequence": 4294967295, "scriptSig": {"hex": "483045022100af8af502ea46fb86e11e0e19f4f67528af2eef8ab0f3733fcf5b30cb92d7a7ab022028e0c6df801c8bb0d777facd14bfe2a9da0298754b2f7b35bd9274c728cf2ba5012102e71a02fb7e40cd02f97818a7216ecad1b4782fdddb6042e9783e2a27e0d3c640", "asm": "3045022100af8af502ea46fb86e11e0e19f4f67528af2eef8ab0f3733fcf5b30cb92d7a7ab022028e0c6df801c8bb0d777facd14bfe2a9da0298754b2f7b35bd9274c728cf2ba5[ALL] 02e71a02fb7e40cd02f97818a7216ecad1b4782fdddb6042e9783e2a27e0d3c640"}, "vout": 1, "txid": "604a87f4cbf23c9997901c0c72cb6e3a8c7c49bead88198927b59d7370db6fbe"}, {"sequence": 4294967295, "scriptSig": {"hex": "483045022100f6d17c02cd3d6796d1a21dfb93a6a6aa753ffc2b8c2ba0de5b71b4367ce4a63702206af12583cd396cc9c64e32967b8523d095feff6635a6cf3563163bf4703f7f0c0121027b6cae0481c9395b42812c9a38fe2e1093dbc1bc7e77bb57c0175ffc926719a0", "asm": "3045022100f6d17c02cd3d6796d1a21dfb93a6a6aa753ffc2b8c2ba0de5b71b4367ce4a63702206af12583cd396cc9c64e32967b8523d095feff6635a6cf3563163bf4703f7f0c[ALL] 027b6cae0481c9395b42812c9a38fe2e1093dbc1bc7e77bb57c0175ffc926719a0"}, "vout": 1, "txid": "98b7f3738f17e70df943a17b3b3eb8d01a6c658cd94c491030db6450099001d3"}, {"sequence": 4294967295, "scriptSig": {"hex": "47304402204f7716ec2cf765312aa1aaa3c8f8ba7f9e1707520c07064d0639a9b7e33c847b0220613bd8ea31f9eb2356421fa7043cb37cbea19204f065b52b62ab1c06e8e95cf8012103625e20f41dc6cb16eecdda09ad701ab0ff636ac1aa2190c36523f30c5a5419fc", "asm": "304402204f7716ec2cf765312aa1aaa3c8f8ba7f9e1707520c07064d0639a9b7e33c847b0220613bd8ea31f9eb2356421fa7043cb37cbea19204f065b52b62ab1c06e8e95cf8[ALL] 03625e20f41dc6cb16eecdda09ad701ab0ff636ac1aa2190c36523f30c5a5419fc"}, "vout": 1, "txid": "bfc58f12d734b5a60e255a1b7f0717d7ee18f97d6c9b2eea5765b87d1eb03c92"}, {"sequence": 4294967295, "scriptSig": {"hex": "48304502210097079f7ea64cf6ef0422016d74a63e44433f533c779f0774030d2963faa84acd0220040fdd56d1a7785899466250ce9281cdb426ce839c44d1db07daf3629cdf810b01210280f39316c2623be462d0f505c0a04701ae3967a97873381f766bb33c93985689", "asm": "304502210097079f7ea64cf6ef0422016d74a63e44433f533c779f0774030d2963faa84acd0220040fdd56d1a7785899466250ce9281cdb426ce839c44d1db07daf3629cdf810b[ALL] 0280f39316c2623be462d0f505c0a04701ae3967a97873381f766bb33c93985689"}, "vout": 1, "txid": "a4d61a1badcb6ad6e2d8066af90fa42a3a3e9a4d0caaef5b744833e5766e294b"}], "txid": "82b42612c7f9a936f9071b4303c7211b18cccf0b6f9bddfaea1c8abdba382291", "blocktime": 1537873282, "version": 1, "confirmations": 11481, "time": 1537873282, "locktime": 0, "vsize": 964, "size": 964}