{"hash": "82b6c19cc54ca85161e7a5c686eea56f79150fb3d6891bb77373b5d88a5037a9", "blockhash": "0000000000000000001f76057863aec43deb6fa401d9628bb513d65a8098bfab", "vout": [{"scriptPubKey": {"reqSigs": 1, "hex": "a9147c1e6b5c902dc6b9ee5ffbc9dfd621b49178d8f887", "addresses": ["3D1J9uXKcrcBA7bUxv57qDegkrU54TknfD"], "asm": "OP_HASH160 7c1e6b5c902dc6b9ee5ffbc9dfd621b49178d8f8 OP_EQUAL", "type": "scripthash"}, "value": 0.00078126, "n": 0}, {"scriptPubKey": {"reqSigs": 1, "hex": "76a914fa5845ff01210b14ac45d80604e522e0603bb4fc88ac", "addresses": ["1PphgJYef2Yca3HkZeGxPRVeGoeFkBNqhR"], "asm": "OP_DUP OP_HASH160 fa5845ff01210b14ac45d80604e522e0603bb4fc OP_EQUALVERIFY OP_CHECKSIG", "type": "pubkeyhash"}, "value": 0.005388, "n": 1}], "hex": "01000000019fb05c1ea687302e7c48354bb70f5d25ccfc7e10bdb8375d4d59c8f6f6cf6a53000000006b483045022100bbcde1229a134ddd4207242c7af8c97cf3592ac8ddb50951c37e4112e7e7f85c022059bb207625964f2cfe6bcbe1dcff11e805c9b79c675a02f343c111b389cefa290121031385c27338ac98f084d05b0da6d5a5e60be43fe5ef0f86cd46e619181574d03dffffffff022e3101000000000017a9147c1e6b5c902dc6b9ee5ffbc9dfd621b49178d8f887b0380800000000001976a914fa5845ff01210b14ac45d80604e522e0603bb4fc88ac00000000", "vin": [{"sequence": 4294967295, "scriptSig": {"hex": "483045022100bbcde1229a134ddd4207242c7af8c97cf3592ac8ddb50951c37e4112e7e7f85c022059bb207625964f2cfe6bcbe1dcff11e805c9b79c675a02f343c111b389cefa290121031385c27338ac98f084d05b0da6d5a5e60be43fe5ef0f86cd46e619181574d03d", "asm": "3045022100bbcde1229a134ddd4207242c7af8c97cf3592ac8ddb50951c37e4112e7e7f85c022059bb207625964f2cfe6bcbe1dcff11e805c9b79c675a02f343c111b389cefa29[ALL] 031385c27338ac98f084d05b0da6d5a5e60be43fe5ef0f86cd46e619181574d03d"}, "vout": 0, "txid": "536acff6f6c8594d5d37b8bd107efccc255d0fb74b35487c2e3087a61e5cb09f"}], "txid": "82b6c19cc54ca85161e7a5c686eea56f79150fb3d6891bb77373b5d88a5037a9", "blocktime": 1537873891, "version": 1, "confirmations": 11478, "time": 1537873891, "locktime": 0, "vsize": 224, "size": 224}