{"hash": "21fed3f30ed25942e0b06f13ef889b558fb8a65bf33b027653ac896f751bb273", "blockhash": "0000000000000000000e13cef7c366c0283d82e591d1acd082e914b08063cdf1", "vout": [{"scriptPubKey": {"reqSigs": 1, "hex": "a914310679a3023fe6cae41f7063f3b5087592a5910087", "addresses": ["36AEnqvW2ErGWubs4m4tHCLWnWt2wRoJsp"], "asm": "OP_HASH160 310679a3023fe6cae41f7063f3b5087592a59100 OP_EQUAL", "type": "scripthash"}, "value": 0.00660348, "n": 0}, {"scriptPubKey": {"reqSigs": 1, "hex": "a9140b651da9a0c4c4ae248f3d8fcb510aff339bda2d87", "addresses": ["32jGVJoGYYtBUZhUXns4SxhQbZAfbd2M2s"], "asm": "OP_HASH160 0b651da9a0c4c4ae248f3d8fcb510aff339bda2d OP_EQUAL", "type": "scripthash"}, "value": 0.00523091, "n": 1}], "hex": "020000000001011b3e0a677ccfd4b39254efb4afe56abc0d15f4aa5005ad2accb83cd4036377af0100000017160014143316b6af08dcdcd847d199a89c148f7767e258ffffffff027c130a000000000017a914310679a3023fe6cae41f7063f3b5087592a591008753fb07000000000017a9140b651da9a0c4c4ae248f3d8fcb510aff339bda2d870247304402202bbb2fc45a16f91092cafa52184a37c2f271f6b1bfe02ccd2cada95f41255c7f022040227fb2958d65e4e63914fa035fa30f1ae333215547d7fb100e6e813334dcde012103fe69dd9009fc16ee115feb21bd07ad6951b8d13c7d8f9e24fada9e78d4ef8ea700000000", "vin": [{"txinwitness": ["304402202bbb2fc45a16f91092cafa52184a37c2f271f6b1bfe02ccd2cada95f41255c7f022040227fb2958d65e4e63914fa035fa30f1ae333215547d7fb100e6e813334dcde01", "03fe69dd9009fc16ee115feb21bd07ad6951b8d13c7d8f9e24fada9e78d4ef8ea7"], "sequence": 4294967295, "scriptSig": {"hex": "160014143316b6af08dcdcd847d199a89c148f7767e258", "asm": "0014143316b6af08dcdcd847d199a89c148f7767e258"}, "vout": 1, "txid": "af776303d43cb8cc2aad0550aaf4150dbc6ae5afb4ef5492b3d4cf7c670a3e1b"}], "txid": "82b960d2d4069609e472cef1ba429b72e492ecd486c5d4e2017665a47ccba6dd", "blocktime": 1537871767, "version": 2, "confirmations": 11491, "time": 1537871767, "locktime": 0, "vsize": 166, "size": 247}