{"hash": "82bb6c757664171ab90b6722a54dcdeebaa387f27a4c86abcc469fd1681b4d14", "blockhash": "000000000000000000205f8b0775d31398ef75b89a5e8ec8d2c57b4dc0ac4c20", "vout": [{"scriptPubKey": {"reqSigs": 1, "hex": "a914f66dc824dda5a13b52ce4fa63f515498c86843e887", "addresses": ["3QA1fWRV9jvSoeu45c5WDojig1xhm5g72s"], "asm": "OP_HASH160 f66dc824dda5a13b52ce4fa63f515498c86843e8 OP_EQUAL", "type": "scripthash"}, "value": 0.01874501, "n": 0}, {"scriptPubKey": {"reqSigs": 1, "hex": "76a91412730dc03a9d6f34b4c1d03bf5452f64743ffe0d88ac", "addresses": ["12gYzXTgJqjQ2B7LH16a9VX2WDmh92K5Le"], "asm": "OP_DUP OP_HASH160 12730dc03a9d6f34b4c1d03bf5452f64743ffe0d OP_EQUALVERIFY OP_CHECKSIG", "type": "pubkeyhash"}, "value": 0.42385683, "n": 1}], "hex": "010000000108350e27a8585d35fcc7ccb351840762b2a40c63427017729abe8485139ba54c010000006b483045022100b1eb37771edefb025898b34990a285d683d6b7304e96631c33081506a327eeee0220214d60fcca1b1e18afac31ef9363c3bbbc52134e7618e0e9c85ba0a58eda5f71012102c35aa6b48949a6611fdbcf69f8a2e2b09731d584560e09f736d0f9b2048799b2ffffffff02459a1c000000000017a914f66dc824dda5a13b52ce4fa63f515498c86843e88713c18602000000001976a91412730dc03a9d6f34b4c1d03bf5452f64743ffe0d88ac00000000", "vin": [{"sequence": 4294967295, "scriptSig": {"hex": "483045022100b1eb37771edefb025898b34990a285d683d6b7304e96631c33081506a327eeee0220214d60fcca1b1e18afac31ef9363c3bbbc52134e7618e0e9c85ba0a58eda5f71012102c35aa6b48949a6611fdbcf69f8a2e2b09731d584560e09f736d0f9b2048799b2", "asm": "3045022100b1eb37771edefb025898b34990a285d683d6b7304e96631c33081506a327eeee0220214d60fcca1b1e18afac31ef9363c3bbbc52134e7618e0e9c85ba0a58eda5f71[ALL] 02c35aa6b48949a6611fdbcf69f8a2e2b09731d584560e09f736d0f9b2048799b2"}, "vout": 1, "txid": "4ca59b138584be9a72177042630ca4b262078451b3ccc7fc355d58a8270e3508"}], "txid": "82bb6c757664171ab90b6722a54dcdeebaa387f27a4c86abcc469fd1681b4d14", "blocktime": 1537871175, "version": 1, "confirmations": 11511, "time": 1537871175, "locktime": 0, "vsize": 224, "size": 224}