{"hash": "82c9a0074f3ab20d03311255d03ed9cf190fe0c525b21340b8b337ade9bacfe2", "blockhash": "0000000000000000001f0ddff1eddb255c1121bcd4da4f1bc9a0da00cae72433", "vout": [{"scriptPubKey": {"reqSigs": 1, "hex": "a9149a268d12366cffa423482e954a9793656e9e0c5987", "addresses": ["3Fk6AfF83U8T3fH2XpxUYm3hzmzoWhhkWL"], "asm": "OP_HASH160 9a268d12366cffa423482e954a9793656e9e0c59 OP_EQUAL", "type": "scripthash"}, "value": 0.159, "n": 0}, {"scriptPubKey": {"reqSigs": 1, "hex": "76a914c6de1be6b637e6fe7d507d18ca23d89bbd13ee2688ac", "addresses": ["1K8WsPMwk4eSayiHbDLq3qhFvmXso4URCr"], "asm": "OP_DUP OP_HASH160 c6de1be6b637e6fe7d507d18ca23d89bbd13ee26 OP_EQUALVERIFY OP_CHECKSIG", "type": "pubkeyhash"}, "value": 0.00948186, "n": 1}], "hex": "02000000030cd8e198fc16bd07b4020acfba8d2ccbae2d8d45117148f375dad9c460bd4a42020000006b483045022100d4d404c7fea2369f6ffd4afc3234c6848b9df60c6f6bc92b1e645a7af25ccafe022019a97b495293c04c89c2f06c050b1d98665fafde1070b1acfc7e487f98a26c250121035ed56fa25734383717225dd0fdbb6480bb1c07fa207e5687070ed7e53569b9dbfeffffffaf4d565346c5e42e5cdfb8b90b1915e73d3990dbcd3cd6a7c839179b00eda6e8000000006b4830450221009c1371a6bd5d081ba869667dcfdf46474fc47cf340f5e57509845610bc5d3ca102202f33ded72ab7689cac12dad1983f697340cbface86aa4d77f2aa9bf2c38cda93012102a25193ef6176280f0905020b33c7c37c1b82262cac1102b67473fc0db5e65043fefffffff85d271868980544adb7fc3f4d6bef45fd0dc1be8eded58bbb63922f129cb360010000006a4730440220361b3a9b80a138e806c896b0bac316405dad3ddddd5e5bfa0b326707ea529d8f02201a3fd3292f784c093fe5f5d2f9023833773ee997d9db3af14a88c8fbba46d705012103200a4e538ccd99b8b75c511b4644f4e3cef797ac720eb446187c3233ffe97949feffffff02609df2000000000017a9149a268d12366cffa423482e954a9793656e9e0c5987da770e00000000001976a914c6de1be6b637e6fe7d507d18ca23d89bbd13ee2688ac11490800", "vin": [{"sequence": 4294967294, "scriptSig": {"hex": "483045022100d4d404c7fea2369f6ffd4afc3234c6848b9df60c6f6bc92b1e645a7af25ccafe022019a97b495293c04c89c2f06c050b1d98665fafde1070b1acfc7e487f98a26c250121035ed56fa25734383717225dd0fdbb6480bb1c07fa207e5687070ed7e53569b9db", "asm": "3045022100d4d404c7fea2369f6ffd4afc3234c6848b9df60c6f6bc92b1e645a7af25ccafe022019a97b495293c04c89c2f06c050b1d98665fafde1070b1acfc7e487f98a26c25[ALL] 035ed56fa25734383717225dd0fdbb6480bb1c07fa207e5687070ed7e53569b9db"}, "vout": 2, "txid": "424abd60c4d9da75f3487111458d2daecb2c8dbacf0a02b407bd16fc98e1d80c"}, {"sequence": 4294967294, "scriptSig": {"hex": "4830450221009c1371a6bd5d081ba869667dcfdf46474fc47cf340f5e57509845610bc5d3ca102202f33ded72ab7689cac12dad1983f697340cbface86aa4d77f2aa9bf2c38cda93012102a25193ef6176280f0905020b33c7c37c1b82262cac1102b67473fc0db5e65043", "asm": "30450221009c1371a6bd5d081ba869667dcfdf46474fc47cf340f5e57509845610bc5d3ca102202f33ded72ab7689cac12dad1983f697340cbface86aa4d77f2aa9bf2c38cda93[ALL] 02a25193ef6176280f0905020b33c7c37c1b82262cac1102b67473fc0db5e65043"}, "vout": 0, "txid": "e8a6ed009b1739c8a7d63ccddb90393de715190bb9b8df5c2ee4c54653564daf"}, {"sequence": 4294967294, "scriptSig": {"hex": "4730440220361b3a9b80a138e806c896b0bac316405dad3ddddd5e5bfa0b326707ea529d8f02201a3fd3292f784c093fe5f5d2f9023833773ee997d9db3af14a88c8fbba46d705012103200a4e538ccd99b8b75c511b4644f4e3cef797ac720eb446187c3233ffe97949", "asm": "30440220361b3a9b80a138e806c896b0bac316405dad3ddddd5e5bfa0b326707ea529d8f02201a3fd3292f784c093fe5f5d2f9023833773ee997d9db3af14a88c8fbba46d705[ALL] 03200a4e538ccd99b8b75c511b4644f4e3cef797ac720eb446187c3233ffe97949"}, "vout": 1, "txid": "60b39c122f9263bb8bd5de8ebec10dfd45ef6b4d3ffcb7ad4405986818275df8"}], "txid": "82c9a0074f3ab20d03311255d03ed9cf190fe0c525b21340b8b337ade9bacfe2", "blocktime": 1537872018, "version": 2, "confirmations": 11489, "time": 1537872018, "locktime": 542993, "vsize": 519, "size": 519}