{"hash": "82ca2834fffab0349f9fc79afdbdab18e622fd3de89992250f86b8164b8b0731", "blockhash": "000000000000000000022b45ed06c6f4ccd3cf7fb5ba4856ebd2e58215665228", "vout": [{"scriptPubKey": {"reqSigs": 1, "hex": "a9144487cda3af6b640dc2d26d339f817e85269a9b0187", "addresses": ["37wNZN9fFTVWVNuYEDTHCKqSUyxXm7EjUs"], "asm": "OP_HASH160 4487cda3af6b640dc2d26d339f817e85269a9b01 OP_EQUAL", "type": "scripthash"}, "value": 0.0011878, "n": 0}], "hex": "010000000131703e9b171657a5e04ff35a07b26a2951a2c644b401582522eefb9fadc9fd1d010000006a473044022069f89198c100f78d5d52b7d59bd9ba6a1563e9b3be1c8b2f496865cd77e52e5802201e23e65159e47a02daac5eb30d6dd4cbb61bf7dbd198ff3870cc9cf0548b2dd5012102ca42f310753755f2928f07f5396b6cecf7aab3116c5b57a846bcca6020c79470ffffffff01fccf01000000000017a9144487cda3af6b640dc2d26d339f817e85269a9b018700000000", "vin": [{"sequence": 4294967295, "scriptSig": {"hex": "473044022069f89198c100f78d5d52b7d59bd9ba6a1563e9b3be1c8b2f496865cd77e52e5802201e23e65159e47a02daac5eb30d6dd4cbb61bf7dbd198ff3870cc9cf0548b2dd5012102ca42f310753755f2928f07f5396b6cecf7aab3116c5b57a846bcca6020c79470", "asm": "3044022069f89198c100f78d5d52b7d59bd9ba6a1563e9b3be1c8b2f496865cd77e52e5802201e23e65159e47a02daac5eb30d6dd4cbb61bf7dbd198ff3870cc9cf0548b2dd5[ALL] 02ca42f310753755f2928f07f5396b6cecf7aab3116c5b57a846bcca6020c79470"}, "vout": 1, "txid": "1dfdc9ad9ffbee22255801b444c6a251296ab2075af34fe0a55716179b3e7031"}], "txid": "82ca2834fffab0349f9fc79afdbdab18e622fd3de89992250f86b8164b8b0731", "blocktime": 1537869901, "version": 1, "confirmations": 11522, "time": 1537869901, "locktime": 0, "vsize": 189, "size": 189}