{"hash": "82d7ce559eac91d7a7337161e464ce1d38cc2493b45df9963ad9ab10b208585d", "blockhash": "0000000000000000000e13cef7c366c0283d82e591d1acd082e914b08063cdf1", "vout": [{"scriptPubKey": {"reqSigs": 1, "hex": "a914fe56cb9f2addc361adb22764dab78e03de577cf487", "addresses": ["3QsqXvEVQHYzKmWNAt7TiHCaoMZXrN4qCH"], "asm": "OP_HASH160 fe56cb9f2addc361adb22764dab78e03de577cf4 OP_EQUAL", "type": "scripthash"}, "value": 0.00112, "n": 0}, {"scriptPubKey": {"reqSigs": 1, "hex": "76a9142905c419f20f43091f8e4dfd328625c58d82ce1e88ac", "addresses": ["14jucVirzFU4YNPiuFdsGbQEvsSkpb8kKh"], "asm": "OP_DUP OP_HASH160 2905c419f20f43091f8e4dfd328625c58d82ce1e OP_EQUALVERIFY OP_CHECKSIG", "type": "pubkeyhash"}, "value": 0.03668635, "n": 1}], "hex": "020000000148e57d244f568784c281ae66a8013220290700f36dcf2cd0d6212201ccd7ea1f010000006a473044022074bc3d5d13593931f466eab6a602215f42a84c8fa7b96e8d50f2e8cbba25cb9b02200dccc3d7044fe8ebd1b9dbabc195d8d17448db2b63b0aa8d3f8be891021c6c93012102553619577d3b092e0dbd1d1f75ca7faa85e1f576ca2891c8ff3bc04d72904356ffffffff0280b501000000000017a914fe56cb9f2addc361adb22764dab78e03de577cf4879bfa3700000000001976a9142905c419f20f43091f8e4dfd328625c58d82ce1e88ac00000000", "vin": [{"sequence": 4294967295, "scriptSig": {"hex": "473044022074bc3d5d13593931f466eab6a602215f42a84c8fa7b96e8d50f2e8cbba25cb9b02200dccc3d7044fe8ebd1b9dbabc195d8d17448db2b63b0aa8d3f8be891021c6c93012102553619577d3b092e0dbd1d1f75ca7faa85e1f576ca2891c8ff3bc04d72904356", "asm": "3044022074bc3d5d13593931f466eab6a602215f42a84c8fa7b96e8d50f2e8cbba25cb9b02200dccc3d7044fe8ebd1b9dbabc195d8d17448db2b63b0aa8d3f8be891021c6c93[ALL] 02553619577d3b092e0dbd1d1f75ca7faa85e1f576ca2891c8ff3bc04d72904356"}, "vout": 1, "txid": "1fead7cc012221d6d02ccf6df3000729203201a866ae81c28487564f247de548"}], "txid": "82d7ce559eac91d7a7337161e464ce1d38cc2493b45df9963ad9ab10b208585d", "blocktime": 1537871767, "version": 2, "confirmations": 11491, "time": 1537871767, "locktime": 0, "vsize": 223, "size": 223}