{"hash": "82dfff9381a243ce4d003e357816d13f00b917cb91ebf595bf2bebfc11b77a85", "blockhash": "0000000000000000000e13cef7c366c0283d82e591d1acd082e914b08063cdf1", "vout": [{"scriptPubKey": {"reqSigs": 1, "hex": "76a914a02dde5cb648963b2a04f1f88c57ab1cf31a3eec88ac", "addresses": ["1Fbx4hZArDNRb6dx2CKhTpGzkrBhphm5qR"], "asm": "OP_DUP OP_HASH160 a02dde5cb648963b2a04f1f88c57ab1cf31a3eec OP_EQUALVERIFY OP_CHECKSIG", "type": "pubkeyhash"}, "value": 0.0105955, "n": 0}, {"scriptPubKey": {"reqSigs": 1, "hex": "76a9140d7da8c3596059a8d92f44e0e5c1f0be3d147b8388ac", "addresses": ["12ELKT7XJeCX4ndZneT96iX4rpobLKj6RB"], "asm": "OP_DUP OP_HASH160 0d7da8c3596059a8d92f44e0e5c1f0be3d147b83 OP_EQUALVERIFY OP_CHECKSIG", "type": "pubkeyhash"}, "value": 0.21948881, "n": 1}], "hex": "0100000001ff354d912fa94f76d9c5c98ff5aa18b9b3fbe18cd6d7787d638add83ea4d86ea010000006b483045022100e4600fd8c332de9f9b26323a4144e30f41e4d63aba98deeb68211d70251bfe2a02200ebe7cf2d10805a0ea67dc60165e715f80a72eb134c2d582eca3ce2d7b44cf0501210239828fffc9c2878302a52e298f92425b20a5b5e7199beb9b42a57b4892fd74edfdffffff02de2a1000000000001976a914a02dde5cb648963b2a04f1f88c57ab1cf31a3eec88acd1e94e01000000001976a9140d7da8c3596059a8d92f44e0e5c1f0be3d147b8388ac10490800", "vin": [{"sequence": 4294967293, "scriptSig": {"hex": "483045022100e4600fd8c332de9f9b26323a4144e30f41e4d63aba98deeb68211d70251bfe2a02200ebe7cf2d10805a0ea67dc60165e715f80a72eb134c2d582eca3ce2d7b44cf0501210239828fffc9c2878302a52e298f92425b20a5b5e7199beb9b42a57b4892fd74ed", "asm": "3045022100e4600fd8c332de9f9b26323a4144e30f41e4d63aba98deeb68211d70251bfe2a02200ebe7cf2d10805a0ea67dc60165e715f80a72eb134c2d582eca3ce2d7b44cf05[ALL] 0239828fffc9c2878302a52e298f92425b20a5b5e7199beb9b42a57b4892fd74ed"}, "vout": 1, "txid": "ea864dea83dd8a637d78d7d68ce1fbb3b918aaf58fc9c5d9764fa92f914d35ff"}], "txid": "82dfff9381a243ce4d003e357816d13f00b917cb91ebf595bf2bebfc11b77a85", "blocktime": 1537871767, "version": 1, "confirmations": 11495, "time": 1537871767, "locktime": 542992, "vsize": 226, "size": 226}