{"hash": "f39cb5ba2ad9a70e326eb90667978ad461f203746266d93187af4ea641ee6442", "blockhash": "0000000000000000001cda96e906b7601b7a6fb1a3b62bca570a9e5d8f4b3de1", "vout": [{"scriptPubKey": {"reqSigs": 1, "hex": "a914f0a155be4aad5567beb35db62cd1eaff7b3fcbef87", "addresses": ["3PdMNL9EMTrZgmFw63k4vECCtH28VbekeX"], "asm": "OP_HASH160 f0a155be4aad5567beb35db62cd1eaff7b3fcbef OP_EQUAL", "type": "scripthash"}, "value": 0.009, "n": 0}, {"scriptPubKey": {"reqSigs": 1, "hex": "0014e637dfd0f0fe1cb99e68d6b0f10d58b6185cf703", "addresses": ["bc1qucmal58slcwtn8ng66c0zr2ckcv9eacrjp83n0"], "asm": "0 e637dfd0f0fe1cb99e68d6b0f10d58b6185cf703", "type": "witness_v0_keyhash"}, "value": 0.0002969, "n": 1}], "hex": "01000000000101081353c3ea79e79e51fe1e31287d7d863e916346cbc5fe6aac068b1134fbd0d80100000000ffffffff02a0bb0d000000000017a914f0a155be4aad5567beb35db62cd1eaff7b3fcbef87fa73000000000000160014e637dfd0f0fe1cb99e68d6b0f10d58b6185cf70302483045022100b88cf51bbfc406000c9bfcea1f99f14db630163aabd3cd05d3005d732e4306ee022046fd8ae9c24ca5343a6365ca8aee714a63931f7956660d4d24fbd5811b40595e0121039370e90f99e278f6a3e01a1fdb054b3829cf2b09000a3b5c6a19cc96fe65f06a00000000", "vin": [{"txinwitness": ["3045022100b88cf51bbfc406000c9bfcea1f99f14db630163aabd3cd05d3005d732e4306ee022046fd8ae9c24ca5343a6365ca8aee714a63931f7956660d4d24fbd5811b40595e01", "039370e90f99e278f6a3e01a1fdb054b3829cf2b09000a3b5c6a19cc96fe65f06a"], "sequence": 4294967295, "scriptSig": {"hex": "", "asm": ""}, "vout": 1, "txid": "d8d0fb34118b06ac6afec5cb4663913e867d7d28311efe519ee779eac3531308"}], "txid": "82e5d0ed04edd7c356f496b6814af32e4eabc6fac59950a9da7e72fcd7c58ee7", "blocktime": 1537873282, "version": 1, "confirmations": 11485, "time": 1537873282, "locktime": 0, "vsize": 142, "size": 224}