{"hash": "fdb01865e49cff0b38c3f1a578be85fde6af5e2c618ee33dc393e6f5682b4866", "blockhash": "00000000000000000018f53835495a110e01622372bf6ae95dc86f2b0ab887b0", "vout": [{"scriptPubKey": {"reqSigs": 1, "hex": "001488a6924b55431058951b66d8084b08db5a50dee6", "addresses": ["bc1q3znfyj64gvg939gmvmvqsjcgmdd9phhx3j5w7c"], "asm": "0 88a6924b55431058951b66d8084b08db5a50dee6", "type": "witness_v0_keyhash"}, "value": 0.00249279, "n": 0}, {"scriptPubKey": {"reqSigs": 1, "hex": "76a91462f9a19bb360a0c3c690c954a73ac93b0defb7bb88ac", "addresses": ["1A2LGV8JrkBhHwfUaMMLy55eF2uQ2wYnWE"], "asm": "OP_DUP OP_HASH160 62f9a19bb360a0c3c690c954a73ac93b0defb7bb OP_EQUALVERIFY OP_CHECKSIG", "type": "pubkeyhash"}, "value": 0.010552, "n": 1}], "hex": "01000000000101cf841838acb9f4d9528b728f124084c6613aff3ff35011cec1969883055a597a01000000171600147a8ad4284b1215451f8456e33a1fbb335d234affffffffff02bfcd03000000000016001488a6924b55431058951b66d8084b08db5a50dee6e0191000000000001976a91462f9a19bb360a0c3c690c954a73ac93b0defb7bb88ac0247304402201db49ee76c3f694610e51618fbc5114e5b340dfeeb5ee9e61bdfe6f37cc054e702205823ed9a7d90b0c9829fc62a4df72b77890ce3a9697577e36cd2b40a1aa38868012102d6becd407c8c36267f4cf0d94f8b4ad43c9426be700b2b02b0ecb0f19f9732b400000000", "vin": [{"txinwitness": ["304402201db49ee76c3f694610e51618fbc5114e5b340dfeeb5ee9e61bdfe6f37cc054e702205823ed9a7d90b0c9829fc62a4df72b77890ce3a9697577e36cd2b40a1aa3886801", "02d6becd407c8c36267f4cf0d94f8b4ad43c9426be700b2b02b0ecb0f19f9732b4"], "sequence": 4294967295, "scriptSig": {"hex": "1600147a8ad4284b1215451f8456e33a1fbb335d234aff", "asm": "00147a8ad4284b1215451f8456e33a1fbb335d234aff"}, "vout": 1, "txid": "7a595a05839896c1ce1150f33fff3a61c68440128f728b52d9f4b9ac381884cf"}], "txid": "82e7dbe04aef340ff83035e32f03019083ca6ecfe61886b61fd8748c08c8d835", "blocktime": 1537870928, "version": 1, "confirmations": 11514, "time": 1537870928, "locktime": 0, "vsize": 167, "size": 248}