{"hash": "61d2d3aa6991a6edcc190d7db6078bd41a2b719999113445d876ed68e7c5ec45", "blockhash": "00000000000000000018f53835495a110e01622372bf6ae95dc86f2b0ab887b0", "vout": [{"scriptPubKey": {"reqSigs": 1, "hex": "a914ff0d48a31b818227735bebfaa6217ca58bc6c12187", "addresses": ["3Qwc9RwgaPFG96xbxf21FLi3EgGt7zNmsy"], "asm": "OP_HASH160 ff0d48a31b818227735bebfaa6217ca58bc6c121 OP_EQUAL", "type": "scripthash"}, "value": 0.0128, "n": 0}, {"scriptPubKey": {"reqSigs": 1, "hex": "76a914f503e45a15500298b35610fa9912656d259c89e688ac", "addresses": ["1PLXDRKbyWmY744NXEaFyG4F5s4nnSHrnu"], "asm": "OP_DUP OP_HASH160 f503e45a15500298b35610fa9912656d259c89e6 OP_EQUALVERIFY OP_CHECKSIG", "type": "pubkeyhash"}, "value": 0.0157, "n": 1}, {"scriptPubKey": {"reqSigs": 1, "hex": "76a914b3caec52184938b00201a5a0fc1056fca80e228f88ac", "addresses": ["1HPf3gf5e5QnAsqVxKygk5MSwY1UWivgtM"], "asm": "OP_DUP OP_HASH160 b3caec52184938b00201a5a0fc1056fca80e228f OP_EQUALVERIFY OP_CHECKSIG", "type": "pubkeyhash"}, "value": 0.0074, "n": 2}, {"scriptPubKey": {"reqSigs": 1, "hex": "76a91441677e3bc588613da60b24863f7ff9203c44d9c688ac", "addresses": ["16xpuJ9PYtDbUegpnghZeQJqjDAA47NAaB"], "asm": "OP_DUP OP_HASH160 41677e3bc588613da60b24863f7ff9203c44d9c6 OP_EQUALVERIFY OP_CHECKSIG", "type": "pubkeyhash"}, "value": 0.7808, "n": 3}, {"scriptPubKey": {"reqSigs": 1, "hex": "76a914029c8df3c380812ec0d1dd602a089f99c79ad53288ac", "addresses": ["1EotyuL4XczHBGCoSN3Vrvq4g69t8XVwv"], "asm": "OP_DUP OP_HASH160 029c8df3c380812ec0d1dd602a089f99c79ad532 OP_EQUALVERIFY OP_CHECKSIG", "type": "pubkeyhash"}, "value": 0.0388, "n": 4}, {"scriptPubKey": {"reqSigs": 1, "hex": "76a91486f9e21f4921da402a4a16c56b1b99a502918c9b88ac", "addresses": ["1DJgtuEk5BvpRBGfWw7mCr4onqfZkWPaCp"], "asm": "OP_DUP OP_HASH160 86f9e21f4921da402a4a16c56b1b99a502918c9b OP_EQUALVERIFY OP_CHECKSIG", "type": "pubkeyhash"}, "value": 3.0, "n": 5}, {"scriptPubKey": {"reqSigs": 1, "hex": "a9147ad63b89128bf17ff09fd8c0c573b10bded2854587", "addresses": ["3CtX15xbeKuQbUJnoefP49TXciA5JBidq2"], "asm": "OP_HASH160 7ad63b89128bf17ff09fd8c0c573b10bded28545 OP_EQUAL", "type": "scripthash"}, "value": 38.19537039, "n": 6}], "hex": "0100000000010be0e3d44d8572cb514644162a621527230691658354e657827c9a035e0ef47d030200000017160014dd207cbe960f99ec9d014a099be26520d0dd7c46ffffffff9080621bbe3d20fb3884dcbf9f00112c1c296fc820018b7a3bb4525cc08405e1010000001716001434e0a77afee41bb37345e54cc70448c2b25ebae0ffffffff7e8b395917437b8e0d38a31c579d9b7e1c33203d12db6568d991fd446c87b6c90900000017160014c14d79fb7b0f25d358d5e438b0f60440297a57e7ffffffff7e8b395917437b8e0d38a31c579d9b7e1c33203d12db6568d991fd446c87b6c90c0000001716001470b665b64d6fcd988999776dcb042cd539d777c2ffffffff2a40fe27187d380ea0ef0df2b4b031e7048f13d8abf6abf58a7491ef1f66ee710200000017160014000b814f2c1a19852357ed615a08ec572a781ed1ffffffff67a33607771e38bce221bcec2ea87882ca181c91e957a3399bafbce191bca4690200000017160014000b814f2c1a19852357ed615a08ec572a781ed1fffffffffec66e87a293b8133262d9e51d4fd2846ca8ad2f86bcb56837f3d4e173eb55e601000000171600140a98495764ee9540de5e7eea13571debd6566387ffffffffd057749c01ad09c5d7185052e97f11e8d4dfcb3c2a82e389c9625145aeac00d201000000171600140a98495764ee9540de5e7eea13571debd6566387ffffffff6bb64c4869128cdd4569adffca53653563457b923e11befc067998ea0f2543340100000017160014133d0b053bf131944133e31066e132aeca508c52ffffffff53e598722a64de3bcb067a3f6242d813bd2121ffc61079e93fe0c6d9f634845e0000000017160014e47ff29c729249f51d1234296fd233560985fe25ffffffff520a4a59571d59a3486392d99efbb8a78ff611c099360f39a129ccd81ff1168b03000000171600140a98495764ee9540de5e7eea13571debd6566387ffffffff07008813000000000017a914ff0d48a31b818227735bebfaa6217ca58bc6c12187d0f41700000000001976a914f503e45a15500298b35610fa9912656d259c89e688aca04a0b00000000001976a914b3caec52184938b00201a5a0fc1056fca80e228f88ac0068a704000000001976a91441677e3bc588613da60b24863f7ff9203c44d9c688ac40343b00000000001976a914029c8df3c380812ec0d1dd602a089f99c79ad53288ac00a3e111000000001976a91486f9e21f4921da402a4a16c56b1b99a502918c9b88ac8f82a9e30000000017a9147ad63b89128bf17ff09fd8c0c573b10bded28545870247304402205bc2e6f5667387492417af984773b78650372b50d6f97ef1fc4cdfb0b98df2e0022034efd1d689f5e502ab7ad0c3dd998f186eaf06ec92f44397682d68aed0d5ad1d012103b870c24003518d67df75086ef1bc89c22c911dacb7e1dfdd9099cfc7d4d3d9c10248304502210084118b3ed8049c827fa5cc6da6cae405d4e81ae868cac61edc225e520cc812a40220211d887442ffc49622f3f30acb4e81a5522fdfc9a34ca51fb8028061b856c21b0121029db29b62d51d7be484c9dd7b70d479d917ee4215778584ccbc9a321f60b2bb770247304402203dd7bb741a9488e08d9828ab16930203efcb9ca0381c51d43c3b29b7e56af796022015e0558c09d53a5e98c44c422f71935694a844cb495654fd402214277ceecd19012102e7e11fb574c24668c4fef22bd11e50fb6087e763dc91cc57ca170872cf95f1ac02473044022047842eab3864cd850b7980268a15f54a2dad375aafd698acc8fb12bd0f14c135022074c8ae4c592e8f1e2abe70edd5241510de157d09b648def6744fe07ea5b0f8e60121028a53d437bd1c7e301dbbca92776be2d95f9805be142d0008fa73a22d5647581302473044022028af8bf12ef0b19fa4b6a4648b2da69689aeed11c89e96e30e09b75ea28f84bc02200e219a8ec7f3a5711ce80e8c3fa76555668dc5d8cf24b5ce2478e267b073144a012102aad79950b2c2af3689e8644c89e9d10dff06c2d8926200496b92e9f7ccb0304c024730440220094fdc94825c5d2edd262729199a3d99e793d5b8808d50d80b8c8e1308ecfd3702206f2a7c349c19097a4629288031f8e703254e85679eb62b4525053949a2d0a26a012102aad79950b2c2af3689e8644c89e9d10dff06c2d8926200496b92e9f7ccb0304c02483045022100a60397cf1e5a402bc7502adadd9c4158e1b472d2bfcb087f1d24fcb0fe4c8c9302202162e05aadef8b2d4990d26ae27ad9e0c3a85f8e801cf0e5ea3ee762f9ce1ab2012102eabe37aadd634330318b87965c043f82e877585d973136b81cc01cb0c18a622c0247304402201fb00cdaa352e4d77f78c9062f026085023b513ca6820a7b6c8dfe10306e984d022052c903d42e84592c4e9eadc0560d0179d1dc5eaf5f2d36a85d2f80115aa9d8a7012102eabe37aadd634330318b87965c043f82e877585d973136b81cc01cb0c18a622c024730440220584e07a984051bd08ec7817bec7cdc96c74539da8d6ff8280eebb0cbc484bfd00220467c94fccb8c88b783af5fe16822a028bb3c3e32ed00e388e75676d732618032012103c814ba20eacb8e3f9d0344437bff74c76e078ce3d579164ca92088e5a088569b024730440220019d6e4d249c61e88a4f7215cfd3fc0e42f94d0016a8ea9ac049b6fd87a27820022009b73e194255e25702116ddced5c85baf1ca799bbfaa1ed2221e640c20ea717b012102c05aba399acd0e83cddec28c785473267258055328a8cc72217e4ecf4cc32f9a02483045022100e4da5e8afd43bdcd1245f949ab31447facbb7d115fd44631f919b2e0d6765772022077eb2173e5567d2e0ba82447263070a1284a9dbec5ac452c359cc810dd73d52e012102eabe37aadd634330318b87965c043f82e877585d973136b81cc01cb0c18a622c00000000", "vin": [{"txinwitness": ["304402205bc2e6f5667387492417af984773b78650372b50d6f97ef1fc4cdfb0b98df2e0022034efd1d689f5e502ab7ad0c3dd998f186eaf06ec92f44397682d68aed0d5ad1d01", "03b870c24003518d67df75086ef1bc89c22c911dacb7e1dfdd9099cfc7d4d3d9c1"], "sequence": 4294967295, "scriptSig": {"hex": "160014dd207cbe960f99ec9d014a099be26520d0dd7c46", "asm": "0014dd207cbe960f99ec9d014a099be26520d0dd7c46"}, "vout": 2, "txid": "037df40e5e039a7c8257e65483659106232715622a16444651cb72854dd4e3e0"}, {"txinwitness": ["304502210084118b3ed8049c827fa5cc6da6cae405d4e81ae868cac61edc225e520cc812a40220211d887442ffc49622f3f30acb4e81a5522fdfc9a34ca51fb8028061b856c21b01", "029db29b62d51d7be484c9dd7b70d479d917ee4215778584ccbc9a321f60b2bb77"], "sequence": 4294967295, "scriptSig": {"hex": "16001434e0a77afee41bb37345e54cc70448c2b25ebae0", "asm": "001434e0a77afee41bb37345e54cc70448c2b25ebae0"}, "vout": 1, "txid": "e10584c05c52b43b7a8b0120c86f291c2c11009fbfdc8438fb203dbe1b628090"}, {"txinwitness": ["304402203dd7bb741a9488e08d9828ab16930203efcb9ca0381c51d43c3b29b7e56af796022015e0558c09d53a5e98c44c422f71935694a844cb495654fd402214277ceecd1901", "02e7e11fb574c24668c4fef22bd11e50fb6087e763dc91cc57ca170872cf95f1ac"], "sequence": 4294967295, "scriptSig": {"hex": "160014c14d79fb7b0f25d358d5e438b0f60440297a57e7", "asm": "0014c14d79fb7b0f25d358d5e438b0f60440297a57e7"}, "vout": 9, "txid": "c9b6876c44fd91d96865db123d20331c7e9b9d571ca3380d8e7b431759398b7e"}, {"txinwitness": ["3044022047842eab3864cd850b7980268a15f54a2dad375aafd698acc8fb12bd0f14c135022074c8ae4c592e8f1e2abe70edd5241510de157d09b648def6744fe07ea5b0f8e601", "028a53d437bd1c7e301dbbca92776be2d95f9805be142d0008fa73a22d56475813"], "sequence": 4294967295, "scriptSig": {"hex": "16001470b665b64d6fcd988999776dcb042cd539d777c2", "asm": "001470b665b64d6fcd988999776dcb042cd539d777c2"}, "vout": 12, "txid": "c9b6876c44fd91d96865db123d20331c7e9b9d571ca3380d8e7b431759398b7e"}, {"txinwitness": ["3044022028af8bf12ef0b19fa4b6a4648b2da69689aeed11c89e96e30e09b75ea28f84bc02200e219a8ec7f3a5711ce80e8c3fa76555668dc5d8cf24b5ce2478e267b073144a01", "02aad79950b2c2af3689e8644c89e9d10dff06c2d8926200496b92e9f7ccb0304c"], "sequence": 4294967295, "scriptSig": {"hex": "160014000b814f2c1a19852357ed615a08ec572a781ed1", "asm": "0014000b814f2c1a19852357ed615a08ec572a781ed1"}, "vout": 2, "txid": "71ee661fef91748af5abf6abd8138f04e731b0b4f20defa00e387d1827fe402a"}, {"txinwitness": ["30440220094fdc94825c5d2edd262729199a3d99e793d5b8808d50d80b8c8e1308ecfd3702206f2a7c349c19097a4629288031f8e703254e85679eb62b4525053949a2d0a26a01", "02aad79950b2c2af3689e8644c89e9d10dff06c2d8926200496b92e9f7ccb0304c"], "sequence": 4294967295, "scriptSig": {"hex": "160014000b814f2c1a19852357ed615a08ec572a781ed1", "asm": "0014000b814f2c1a19852357ed615a08ec572a781ed1"}, "vout": 2, "txid": "69a4bc91e1bcaf9b39a357e9911c18ca8278a82eecbc21e2bc381e770736a367"}, {"txinwitness": ["3045022100a60397cf1e5a402bc7502adadd9c4158e1b472d2bfcb087f1d24fcb0fe4c8c9302202162e05aadef8b2d4990d26ae27ad9e0c3a85f8e801cf0e5ea3ee762f9ce1ab201", "02eabe37aadd634330318b87965c043f82e877585d973136b81cc01cb0c18a622c"], "sequence": 4294967295, "scriptSig": {"hex": "1600140a98495764ee9540de5e7eea13571debd6566387", "asm": "00140a98495764ee9540de5e7eea13571debd6566387"}, "vout": 1, "txid": "e655eb73e1d4f33768b5bc862fada86c84d24f1de5d9623213b893a2876ec6fe"}, {"txinwitness": ["304402201fb00cdaa352e4d77f78c9062f026085023b513ca6820a7b6c8dfe10306e984d022052c903d42e84592c4e9eadc0560d0179d1dc5eaf5f2d36a85d2f80115aa9d8a701", "02eabe37aadd634330318b87965c043f82e877585d973136b81cc01cb0c18a622c"], "sequence": 4294967295, "scriptSig": {"hex": "1600140a98495764ee9540de5e7eea13571debd6566387", "asm": "00140a98495764ee9540de5e7eea13571debd6566387"}, "vout": 1, "txid": "d200acae455162c989e3822a3ccbdfd4e8117fe9525018d7c509ad019c7457d0"}, {"txinwitness": ["30440220584e07a984051bd08ec7817bec7cdc96c74539da8d6ff8280eebb0cbc484bfd00220467c94fccb8c88b783af5fe16822a028bb3c3e32ed00e388e75676d73261803201", "03c814ba20eacb8e3f9d0344437bff74c76e078ce3d579164ca92088e5a088569b"], "sequence": 4294967295, "scriptSig": {"hex": "160014133d0b053bf131944133e31066e132aeca508c52", "asm": "0014133d0b053bf131944133e31066e132aeca508c52"}, "vout": 1, "txid": "3443250fea987906fcbe113e927b4563356553caffad6945dd8c1269484cb66b"}, {"txinwitness": ["30440220019d6e4d249c61e88a4f7215cfd3fc0e42f94d0016a8ea9ac049b6fd87a27820022009b73e194255e25702116ddced5c85baf1ca799bbfaa1ed2221e640c20ea717b01", "02c05aba399acd0e83cddec28c785473267258055328a8cc72217e4ecf4cc32f9a"], "sequence": 4294967295, "scriptSig": {"hex": "160014e47ff29c729249f51d1234296fd233560985fe25", "asm": "0014e47ff29c729249f51d1234296fd233560985fe25"}, "vout": 0, "txid": "5e8434f6d9c6e03fe97910c6ff2121bd13d842623f7a06cb3bde642a7298e553"}, {"txinwitness": ["3045022100e4da5e8afd43bdcd1245f949ab31447facbb7d115fd44631f919b2e0d6765772022077eb2173e5567d2e0ba82447263070a1284a9dbec5ac452c359cc810dd73d52e01", "02eabe37aadd634330318b87965c043f82e877585d973136b81cc01cb0c18a622c"], "sequence": 4294967295, "scriptSig": {"hex": "1600140a98495764ee9540de5e7eea13571debd6566387", "asm": "00140a98495764ee9540de5e7eea13571debd6566387"}, "vout": 3, "txid": "8b16f11fd8cc29a1390f3699c011f68fa7b8fb9ed9926348a3591d57594a0a52"}], "txid": "82eadab788a6b10da8d482730854fc38b73c1987b07cfa7469f37fe7a946871e", "blocktime": 1537870928, "version": 1, "confirmations": 11512, "time": 1537870928, "locktime": 0, "vsize": 1244, "size": 2130}