{"hash": "82ed3524d40aa4dfdc0a6e14ec2571b2e9c28b5125094c5b5c25f0b265e74958", "blockhash": "00000000000000000018f53835495a110e01622372bf6ae95dc86f2b0ab887b0", "vout": [{"scriptPubKey": {"reqSigs": 1, "hex": "76a91401d3adee8757bc6f4af536dad6050bb3c84d6c5588ac", "addresses": ["1AfFwHAU1bx3ovvk2f3xLJjq3mtKwb15K"], "asm": "OP_DUP OP_HASH160 01d3adee8757bc6f4af536dad6050bb3c84d6c55 OP_EQUALVERIFY OP_CHECKSIG", "type": "pubkeyhash"}, "value": 0.00311987, "n": 0}, {"scriptPubKey": {"reqSigs": 1, "hex": "76a91489056a76863b86cfd5aac6e5d34d7f9f0184158e88ac", "addresses": ["1DVW4am8ch3BfJq7XGizawj55hqqL4GLhJ"], "asm": "OP_DUP OP_HASH160 89056a76863b86cfd5aac6e5d34d7f9f0184158e OP_EQUALVERIFY OP_CHECKSIG", "type": "pubkeyhash"}, "value": 0.00739669, "n": 1}], "hex": "010000000109c3e0b88e5d468d32364f17855486e30fbe1e065d5584810bf61a0315b1e6e8000000006a47304402206aa4038acfc829180216b1ca560026dff0124dc104a1727c4e1d19e887dbceea0220330c26479f0a30b5d97f4c7a28fc72d0b2a88591a45654b5d8eba5c047c5f75f012102f51b193c57e07a76a5d9b0f9e3642c11f13648e440cefbea3723acee99d3bb32ffffffff02b3c20400000000001976a91401d3adee8757bc6f4af536dad6050bb3c84d6c5588ac55490b00000000001976a91489056a76863b86cfd5aac6e5d34d7f9f0184158e88ac00000000", "vin": [{"sequence": 4294967295, "scriptSig": {"hex": "47304402206aa4038acfc829180216b1ca560026dff0124dc104a1727c4e1d19e887dbceea0220330c26479f0a30b5d97f4c7a28fc72d0b2a88591a45654b5d8eba5c047c5f75f012102f51b193c57e07a76a5d9b0f9e3642c11f13648e440cefbea3723acee99d3bb32", "asm": "304402206aa4038acfc829180216b1ca560026dff0124dc104a1727c4e1d19e887dbceea0220330c26479f0a30b5d97f4c7a28fc72d0b2a88591a45654b5d8eba5c047c5f75f[ALL] 02f51b193c57e07a76a5d9b0f9e3642c11f13648e440cefbea3723acee99d3bb32"}, "vout": 0, "txid": "e8e6b115031af60b8184555d061ebe0fe3865485174f36328d465d8eb8e0c309"}], "txid": "82ed3524d40aa4dfdc0a6e14ec2571b2e9c28b5125094c5b5c25f0b265e74958", "blocktime": 1537870928, "version": 1, "confirmations": 11514, "time": 1537870928, "locktime": 0, "vsize": 225, "size": 225}