{"hash": "82ef033d5c41ea2b2d42ab6f34d246d34f7f57881414d4e97e2a0aad9689a6ad", "blockhash": "0000000000000000001cda96e906b7601b7a6fb1a3b62bca570a9e5d8f4b3de1", "vout": [{"scriptPubKey": {"type": "nulldata", "hex": "6a4c50000077c700016c535a3287fb36221fb713d25b23cc0f42c2fc38c5e5bf9ae76da98a211aa106f2130baf7bfe3da336a60ae474bc5baa139006128acde03ca0041d100759d4ba30d2c37bb011d97e02cf", "asm": "OP_RETURN 000077c700016c535a3287fb36221fb713d25b23cc0f42c2fc38c5e5bf9ae76da98a211aa106f2130baf7bfe3da336a60ae474bc5baa139006128acde03ca0041d100759d4ba30d2c37bb011d97e02cf"}, "value": 0.0, "n": 0}, {"scriptPubKey": {"reqSigs": 1, "hex": "76a9146fe535a8720657adcdc90fa100613394d3019e5888ac", "addresses": ["1BCeb4DfL47xP5oSsM3qBY9dezRVWA22iv"], "asm": "OP_DUP OP_HASH160 6fe535a8720657adcdc90fa100613394d3019e58 OP_EQUALVERIFY OP_CHECKSIG", "type": "pubkeyhash"}, "value": 0.0059305, "n": 1}], "hex": "01000000017c0d281da2efefcfcabbdda2245496ea68a9ad3a2fbb5696cd08859e5ef7873d010000006a473044022100a3454ded438091129d27a5b437554f7fed7cae7d4d1eb0ec9cfe60730b1a81a8021f41ae173eaa261ab0a1807fcc0eefbf08fe5b842ad4d2be8532566061baba8c0121030b04a555791a66cd4b07746b28e0205601d4a0aa51361fa958ce8d5a59648a68ffffffff020000000000000000536a4c50000077c700016c535a3287fb36221fb713d25b23cc0f42c2fc38c5e5bf9ae76da98a211aa106f2130baf7bfe3da336a60ae474bc5baa139006128acde03ca0041d100759d4ba30d2c37bb011d97e02cf9a0c0900000000001976a9146fe535a8720657adcdc90fa100613394d3019e5888ac00000000", "vin": [{"sequence": 4294967295, "scriptSig": {"hex": "473044022100a3454ded438091129d27a5b437554f7fed7cae7d4d1eb0ec9cfe60730b1a81a8021f41ae173eaa261ab0a1807fcc0eefbf08fe5b842ad4d2be8532566061baba8c0121030b04a555791a66cd4b07746b28e0205601d4a0aa51361fa958ce8d5a59648a68", "asm": "3044022100a3454ded438091129d27a5b437554f7fed7cae7d4d1eb0ec9cfe60730b1a81a8021f41ae173eaa261ab0a1807fcc0eefbf08fe5b842ad4d2be8532566061baba8c[ALL] 030b04a555791a66cd4b07746b28e0205601d4a0aa51361fa958ce8d5a59648a68"}, "vout": 1, "txid": "3d87f75e9e8508cd9656bb2f3aada968ea965424a2ddbbcacfefefa21d280d7c"}], "txid": "82ef033d5c41ea2b2d42ab6f34d246d34f7f57881414d4e97e2a0aad9689a6ad", "blocktime": 1537873282, "version": 1, "confirmations": 11484, "time": 1537873282, "locktime": 0, "vsize": 283, "size": 283}