{"hash": "82f77c69f91a992339a63056be49652a6224a1494ec42b5068b30bc63918ecf8", "blockhash": "0000000000000000001f76057863aec43deb6fa401d9628bb513d65a8098bfab", "vout": [{"scriptPubKey": {"reqSigs": 1, "hex": "76a9145bd5e0c4abb03538ae418724ca19918527d0df4f88ac", "addresses": ["19NahxiSxHpueJngq6nMPSVoZTpzqpS9b9"], "asm": "OP_DUP OP_HASH160 5bd5e0c4abb03538ae418724ca19918527d0df4f OP_EQUALVERIFY OP_CHECKSIG", "type": "pubkeyhash"}, "value": 0.01380605, "n": 0}, {"scriptPubKey": {"reqSigs": 1, "hex": "a914118008312100d97e0e1798ed5f95c2223a6dea9e87", "addresses": ["33HYnd9vtix2VkSv43PVuXbuJqMBfVUDh2"], "asm": "OP_HASH160 118008312100d97e0e1798ed5f95c2223a6dea9e OP_EQUAL", "type": "scripthash"}, "value": 0.00210309, "n": 1}], "hex": "020000000180d1015c4adcd0f9f8e164a0135d3406ccf19fa226797209543f363b5a1dbfe9010000006a47304402204bbb8af3ba9a41733c2f6b4e2d02f45230d07a115af8a3d8f476a41e320b96b402203c306f88f062339f86705e5c6402a2594165f8a411f08702068faa931b8ca2ce0121021f5d45bac4f619c5ef5ddc09f6d7d366d52549f044756edb51b1d500ccf8e84afeffffff02fd101500000000001976a9145bd5e0c4abb03538ae418724ca19918527d0df4f88ac853503000000000017a914118008312100d97e0e1798ed5f95c2223a6dea9e8700000000", "vin": [{"sequence": 4294967294, "scriptSig": {"hex": "47304402204bbb8af3ba9a41733c2f6b4e2d02f45230d07a115af8a3d8f476a41e320b96b402203c306f88f062339f86705e5c6402a2594165f8a411f08702068faa931b8ca2ce0121021f5d45bac4f619c5ef5ddc09f6d7d366d52549f044756edb51b1d500ccf8e84a", "asm": "304402204bbb8af3ba9a41733c2f6b4e2d02f45230d07a115af8a3d8f476a41e320b96b402203c306f88f062339f86705e5c6402a2594165f8a411f08702068faa931b8ca2ce[ALL] 021f5d45bac4f619c5ef5ddc09f6d7d366d52549f044756edb51b1d500ccf8e84a"}, "vout": 1, "txid": "e9bf1d5a3b363f5409727926a29ff1cc06345d13a064e1f8f9d0dc4a5c01d180"}], "txid": "82f77c69f91a992339a63056be49652a6224a1494ec42b5068b30bc63918ecf8", "blocktime": 1537873891, "version": 2, "confirmations": 11475, "time": 1537873891, "locktime": 0, "vsize": 223, "size": 223}