{"hash": "82fe57544fa73a7d02f276248b0b59f39bc10a9c4a002d77fed0f03989d0f1dc", "blockhash": "0000000000000000000baef3f32e3676a92c3b2e5da21b426e4f302fc371ce76", "vout": [{"scriptPubKey": {"reqSigs": 1, "hex": "a914e0b9a2a4f5769b2133128a9f1487b7db845fc24287", "addresses": ["3NBFfgYUVHUZ7QYw2yjSqT3QK7fhLKYSFw"], "asm": "OP_HASH160 e0b9a2a4f5769b2133128a9f1487b7db845fc242 OP_EQUAL", "type": "scripthash"}, "value": 0.08332628, "n": 0}], "hex": "0100000004359025a32d94f8361674d47ebc53472e5acb17c27fa3f9b1f4fb72afbeca1c2b000000006b483045022100c345e923d43ecb956ed108d3f7544ddfccf0a9d1d3c41650d88363d3ca4d56b7022018934b5c4f1b51b3c68b140b9ab0b46394b346711042dd98c8c2963f28018bc0012102cd6ecc287865c489fe3c511707d723d84ad295a4a4cd9c3830029c226e35f59dffffffff2186f44e862d86b8147bf4a7f97d2181d9d700762228faedd74c0bd779eb7147000000006a47304402202e0eb6dea37059d352ea14af7192326969c3352c036c8181039aa695d51f4a9d02206b1112b6e680c7a8a968f69c80a9af52bd03270511b16f0ddd7c7a70d8354ac9012103ca9723718559eb55bda8fc5c04a24be86b1ae67add8299268d66f2f47ba752a8fffffffff46a823127045988e272d21b8183771fcc62bca8f080a7216c21458b99b9f2df000000006a473044022038d3f247526e83b27f7e2bff996872179e904d61fd338b3c4d37900911992a8c022059fd26b7d25e16110e98c139db45d7ae93c00d151cf6bfec0446bd85351df70f012103a58cec3d8e58b2b99b1afeee4a470f47ed35ff45bab4dd272b5ad19632637988ffffffff17e484f82fc3fe671926d2a4fd026b775fde5a5929d1f54732367252d993a7e0010000006a47304402201236ee7b04ebe89b8d6196b2568e784ca3cac7cfbe57bcda9c017cf08f334b3c022010ba8ac553d41d8f7d5f878899cf6c588108aba998538dc119148077e59a6d720121039f8ece1fc23dafc5f5bebc1e81ce9e4601382e6d43815c61fe268cb1aced8874ffffffff0154257f000000000017a914e0b9a2a4f5769b2133128a9f1487b7db845fc2428700000000", "vin": [{"sequence": 4294967295, "scriptSig": {"hex": "483045022100c345e923d43ecb956ed108d3f7544ddfccf0a9d1d3c41650d88363d3ca4d56b7022018934b5c4f1b51b3c68b140b9ab0b46394b346711042dd98c8c2963f28018bc0012102cd6ecc287865c489fe3c511707d723d84ad295a4a4cd9c3830029c226e35f59d", "asm": "3045022100c345e923d43ecb956ed108d3f7544ddfccf0a9d1d3c41650d88363d3ca4d56b7022018934b5c4f1b51b3c68b140b9ab0b46394b346711042dd98c8c2963f28018bc0[ALL] 02cd6ecc287865c489fe3c511707d723d84ad295a4a4cd9c3830029c226e35f59d"}, "vout": 0, "txid": "2b1ccabeaf72fbf4b1f9a37fc217cb5a2e4753bc7ed4741636f8942da3259035"}, {"sequence": 4294967295, "scriptSig": {"hex": "47304402202e0eb6dea37059d352ea14af7192326969c3352c036c8181039aa695d51f4a9d02206b1112b6e680c7a8a968f69c80a9af52bd03270511b16f0ddd7c7a70d8354ac9012103ca9723718559eb55bda8fc5c04a24be86b1ae67add8299268d66f2f47ba752a8", "asm": "304402202e0eb6dea37059d352ea14af7192326969c3352c036c8181039aa695d51f4a9d02206b1112b6e680c7a8a968f69c80a9af52bd03270511b16f0ddd7c7a70d8354ac9[ALL] 03ca9723718559eb55bda8fc5c04a24be86b1ae67add8299268d66f2f47ba752a8"}, "vout": 0, "txid": "4771eb79d70b4cd7edfa28227600d7d981217df9a7f47b14b8862d864ef48621"}, {"sequence": 4294967295, "scriptSig": {"hex": "473044022038d3f247526e83b27f7e2bff996872179e904d61fd338b3c4d37900911992a8c022059fd26b7d25e16110e98c139db45d7ae93c00d151cf6bfec0446bd85351df70f012103a58cec3d8e58b2b99b1afeee4a470f47ed35ff45bab4dd272b5ad19632637988", "asm": "3044022038d3f247526e83b27f7e2bff996872179e904d61fd338b3c4d37900911992a8c022059fd26b7d25e16110e98c139db45d7ae93c00d151cf6bfec0446bd85351df70f[ALL] 03a58cec3d8e58b2b99b1afeee4a470f47ed35ff45bab4dd272b5ad19632637988"}, "vout": 0, "txid": "dff2b9998b45216c21a780f0a8bc62cc1f7783811bd272e28859042731826af4"}, {"sequence": 4294967295, "scriptSig": {"hex": "47304402201236ee7b04ebe89b8d6196b2568e784ca3cac7cfbe57bcda9c017cf08f334b3c022010ba8ac553d41d8f7d5f878899cf6c588108aba998538dc119148077e59a6d720121039f8ece1fc23dafc5f5bebc1e81ce9e4601382e6d43815c61fe268cb1aced8874", "asm": "304402201236ee7b04ebe89b8d6196b2568e784ca3cac7cfbe57bcda9c017cf08f334b3c022010ba8ac553d41d8f7d5f878899cf6c588108aba998538dc119148077e59a6d72[ALL] 039f8ece1fc23dafc5f5bebc1e81ce9e4601382e6d43815c61fe268cb1aced8874"}, "vout": 1, "txid": "e0a793d95272363247f5d129595ade5f776b02fda4d2261967fec32ff884e417"}], "txid": "82fe57544fa73a7d02f276248b0b59f39bc10a9c4a002d77fed0f03989d0f1dc", "blocktime": 1537876114, "version": 1, "confirmations": 11459, "time": 1537876114, "locktime": 0, "vsize": 631, "size": 631}