{"hash": "830675d9e231429d8842ba9621b3bc47c4c9a90b246d68de345ea4341d12d9fc", "blockhash": "0000000000000000001f0ddff1eddb255c1121bcd4da4f1bc9a0da00cae72433", "vout": [{"scriptPubKey": {"reqSigs": 1, "hex": "76a9149b6422d36ad4ec3302577d842b0160abf92e5e7088ac", "addresses": ["1FAdhJqukjC9qv7ocv4uHd6gez79BP1EAS"], "asm": "OP_DUP OP_HASH160 9b6422d36ad4ec3302577d842b0160abf92e5e70 OP_EQUALVERIFY OP_CHECKSIG", "type": "pubkeyhash"}, "value": 4.819e-05, "n": 0}, {"scriptPubKey": {"reqSigs": 1, "hex": "76a914d0c18d81219f093215aa7362f8c507c996b72b9f88ac", "addresses": ["1L2oRBYA2Zna7SvR85LFa31vNweAJpFq2f"], "asm": "OP_DUP OP_HASH160 d0c18d81219f093215aa7362f8c507c996b72b9f OP_EQUALVERIFY OP_CHECKSIG", "type": "pubkeyhash"}, "value": 5.391e-05, "n": 1}], "hex": "0100000001b7ad33cc3ba552348136d3154dd19d51a8c7bd3390da380e3cafd1fa797b7385a00100006a47304402203427812e7ade87dd86a9a5cdf3bf91f8b12ae5fdbed5059b348287c91b9696b002200d1d760aa8f13862cf8f0fc28bda4df73407a2f633ad349b820e586fc69183a8012102e857f66b34fa54d61845bfdc1b27f6fa10e8eb005047683046ad620e2f550883ffffffff02d3120000000000001976a9149b6422d36ad4ec3302577d842b0160abf92e5e7088ac0f150000000000001976a914d0c18d81219f093215aa7362f8c507c996b72b9f88ac00000000", "vin": [{"sequence": 4294967295, "scriptSig": {"hex": "47304402203427812e7ade87dd86a9a5cdf3bf91f8b12ae5fdbed5059b348287c91b9696b002200d1d760aa8f13862cf8f0fc28bda4df73407a2f633ad349b820e586fc69183a8012102e857f66b34fa54d61845bfdc1b27f6fa10e8eb005047683046ad620e2f550883", "asm": "304402203427812e7ade87dd86a9a5cdf3bf91f8b12ae5fdbed5059b348287c91b9696b002200d1d760aa8f13862cf8f0fc28bda4df73407a2f633ad349b820e586fc69183a8[ALL] 02e857f66b34fa54d61845bfdc1b27f6fa10e8eb005047683046ad620e2f550883"}, "vout": 416, "txid": "85737b79fad1af3c0e38da9033bdc7a8519dd14d15d336813452a53bcc33adb7"}], "txid": "830675d9e231429d8842ba9621b3bc47c4c9a90b246d68de345ea4341d12d9fc", "blocktime": 1537872018, "version": 1, "confirmations": 11489, "time": 1537872018, "locktime": 0, "vsize": 225, "size": 225}