{"hash": "830d6581d9976bbbb652fcc9e450bb42d4486ce17923b8fea49f4604b81e74cd", "blockhash": "0000000000000000001e0dab787dd257d1dbfcb92a98c2207d5e1078be1f4165", "vout": [{"scriptPubKey": {"type": "nulldata", "hex": "6a146f6d6e69000000000000001f0000021ef0123700", "asm": "OP_RETURN 6f6d6e69000000000000001f0000021ef0123700"}, "value": 0.0, "n": 0}, {"scriptPubKey": {"reqSigs": 1, "hex": "76a9148f0f62305ec04c70e5aa5c753391704048592f5588ac", "addresses": ["1E3S4JNo4Vizjj4QLZPdoTrYb1CvUHtwtQ"], "asm": "OP_DUP OP_HASH160 8f0f62305ec04c70e5aa5c753391704048592f55 OP_EQUALVERIFY OP_CHECKSIG", "type": "pubkeyhash"}, "value": 5.46e-06, "n": 1}, {"scriptPubKey": {"reqSigs": 1, "hex": "76a914628a073fe8ce7a239e56a9158ebd5d291a8bc0d988ac", "addresses": ["19z2aBA5FYQm9bK1Q5UW5u7bJWHbZZ4Z5E"], "asm": "OP_DUP OP_HASH160 628a073fe8ce7a239e56a9158ebd5d291a8bc0d9 OP_EQUALVERIFY OP_CHECKSIG", "type": "pubkeyhash"}, "value": 0.03997984, "n": 2}], "hex": "0100000003cd76a32008b265bd73aa531e5b14c4f46b83b74f844ec25b8f87972c1a5b35bb0200000069463043022072fac158e5882a692de23496b0d6c994fa7e752ee4ef1724e6910cd0877afed0021f4934cc77ba7af807a6575b60a92426ffbe0e85e3debdd97ac13be97544d3c9012103e4addb7809d20e3cf85c913ea93969a52c57a5fdfcb1fedcb25002cf9b21d816fefffffffbecab4e446e90ddf83f4c2222e566dc80007aa852f86369076bb12e024794e1010000006a47304402200447b7fdc4c0e72595163e987f9af35a639998926fe085250c7205d1193de48302202dcee25f14c9e97865f88a90a6f2fbba8b59d9c88a95f5ab5768857c2323465d012103e4addb7809d20e3cf85c913ea93969a52c57a5fdfcb1fedcb25002cf9b21d816feffffff4ae8b085ddbfa86d1fd3d65cfd754e17b93cd64b87a2d01b0811bd9e47bd42f1020000006b483045022100923db186f8834ed19fff9af353d35cd866c6ff4f9bd5bcd05573af3345b7707b022037ce09c9bef00164181b9ca53e2ff37a8252df980aee665a1650df6de111d910012103e4addb7809d20e3cf85c913ea93969a52c57a5fdfcb1fedcb25002cf9b21d816feffffff030000000000000000166a146f6d6e69000000000000001f0000021ef012370022020000000000001976a9148f0f62305ec04c70e5aa5c753391704048592f5588ac20013d00000000001976a914628a073fe8ce7a239e56a9158ebd5d291a8bc0d988ac12490800", "vin": [{"sequence": 4294967294, "scriptSig": {"hex": "463043022072fac158e5882a692de23496b0d6c994fa7e752ee4ef1724e6910cd0877afed0021f4934cc77ba7af807a6575b60a92426ffbe0e85e3debdd97ac13be97544d3c9012103e4addb7809d20e3cf85c913ea93969a52c57a5fdfcb1fedcb25002cf9b21d816", "asm": "3043022072fac158e5882a692de23496b0d6c994fa7e752ee4ef1724e6910cd0877afed0021f4934cc77ba7af807a6575b60a92426ffbe0e85e3debdd97ac13be97544d3c9[ALL] 03e4addb7809d20e3cf85c913ea93969a52c57a5fdfcb1fedcb25002cf9b21d816"}, "vout": 2, "txid": "bb355b1a2c97878f5bc24e844fb7836bf4c4145b1e53aa73bd65b20820a376cd"}, {"sequence": 4294967294, "scriptSig": {"hex": "47304402200447b7fdc4c0e72595163e987f9af35a639998926fe085250c7205d1193de48302202dcee25f14c9e97865f88a90a6f2fbba8b59d9c88a95f5ab5768857c2323465d012103e4addb7809d20e3cf85c913ea93969a52c57a5fdfcb1fedcb25002cf9b21d816", "asm": "304402200447b7fdc4c0e72595163e987f9af35a639998926fe085250c7205d1193de48302202dcee25f14c9e97865f88a90a6f2fbba8b59d9c88a95f5ab5768857c2323465d[ALL] 03e4addb7809d20e3cf85c913ea93969a52c57a5fdfcb1fedcb25002cf9b21d816"}, "vout": 1, "txid": "e19447022eb16b076963f852a87a0080dc66e522224c3ff8dd906e444eabecfb"}, {"sequence": 4294967294, "scriptSig": {"hex": "483045022100923db186f8834ed19fff9af353d35cd866c6ff4f9bd5bcd05573af3345b7707b022037ce09c9bef00164181b9ca53e2ff37a8252df980aee665a1650df6de111d910012103e4addb7809d20e3cf85c913ea93969a52c57a5fdfcb1fedcb25002cf9b21d816", "asm": "3045022100923db186f8834ed19fff9af353d35cd866c6ff4f9bd5bcd05573af3345b7707b022037ce09c9bef00164181b9ca53e2ff37a8252df980aee665a1650df6de111d910[ALL] 03e4addb7809d20e3cf85c913ea93969a52c57a5fdfcb1fedcb25002cf9b21d816"}, "vout": 2, "txid": "f142bd479ebd11081bd0a2874bd63cb9174e75fd5cd6d31f6da8bfdd85b0e84a"}], "txid": "830d6581d9976bbbb652fcc9e450bb42d4486ce17923b8fea49f4604b81e74cd", "blocktime": 1537872475, "version": 1, "confirmations": 11488, "time": 1537872475, "locktime": 542994, "vsize": 550, "size": 550}