{"hash": "830e4442fec0784deab6220c596f6505fbfdf75e57163baeedeaee3bedaf6009", "blockhash": "0000000000000000000dcc0f55137456b1a82d3642486a52398922ac4d620174", "vout": [{"scriptPubKey": {"reqSigs": 1, "hex": "a914b0ae4a91d213c123ac726687a1844a4676f95b2687", "addresses": ["3HoDeH1e1NuHWqJNYc3f3MmVcACtV9HPff"], "asm": "OP_HASH160 b0ae4a91d213c123ac726687a1844a4676f95b26 OP_EQUAL", "type": "scripthash"}, "value": 0.44842972, "n": 0}, {"scriptPubKey": {"reqSigs": 1, "hex": "76a91459dab6d0539ce181dc5d654c9a587b4e47d7381688ac", "addresses": ["19C79baMVBFTMjbrs4c9anMCaTANfWXCff"], "asm": "OP_DUP OP_HASH160 59dab6d0539ce181dc5d654c9a587b4e47d73816 OP_EQUALVERIFY OP_CHECKSIG", "type": "pubkeyhash"}, "value": 0.02773467, "n": 1}, {"scriptPubKey": {"reqSigs": 1, "hex": "76a9145c50b662449190d86660fa50c8cbb90c1004dde188ac", "addresses": ["19R7reWwoTajMBiP4CZbum8VfL95tM6zrx"], "asm": "OP_DUP OP_HASH160 5c50b662449190d86660fa50c8cbb90c1004dde1 OP_EQUALVERIFY OP_CHECKSIG", "type": "pubkeyhash"}, "value": 0.00016777, "n": 2}], "hex": "0100000002292611066b3783d211e48f0c153b74a8d6c5e3d50b1e92fa920cbd1f7f2f9e3e00000000da004730440220734c69a106a980f59cfc2242566050e60409cb5c9cc2a2b4c2d88946db739cb802207f654c9cd6951fbe6be5cc5ee29829e64ac4dfb134a999fef4a99acc02d44e2901483045022100da6af87833e3eebba41684fe8d66c16790cd29890854abb5b783464f522fb75d02201a294128ad664c024304b53970a4a7356b70f9878a540437a297d891753be236014752210287ad1bf3601e8fdc8cf3339d21b3b19fe820b677a87220090b2308592fd08b762102907a54bed8ad74b3f35638c60114ca240a308cb986f3f2f306178869a8880b6152aeffffffff3b96cd440a834449e68acb5b053ba01f14a398a50412016d1f062f337d2523a3010000006b483045022100841ad664d0d0e37d4974308fd005e4d5aec6876395b926edc72186785155a1fe02206e39d933e766bdbbf9597a6bcb7fb6729d24fe3123343d687e0992a47ef9939001210219d8ecd863ccc59ea8266c1cfe14fb624ce405f8580b24f8206bd10eab6c4596ffffffff03dc3fac020000000017a914b0ae4a91d213c123ac726687a1844a4676f95b2687db512a00000000001976a91459dab6d0539ce181dc5d654c9a587b4e47d7381688ac89410000000000001976a9145c50b662449190d86660fa50c8cbb90c1004dde188ac00000000", "vin": [{"sequence": 4294967295, "scriptSig": {"hex": "004730440220734c69a106a980f59cfc2242566050e60409cb5c9cc2a2b4c2d88946db739cb802207f654c9cd6951fbe6be5cc5ee29829e64ac4dfb134a999fef4a99acc02d44e2901483045022100da6af87833e3eebba41684fe8d66c16790cd29890854abb5b783464f522fb75d02201a294128ad664c024304b53970a4a7356b70f9878a540437a297d891753be236014752210287ad1bf3601e8fdc8cf3339d21b3b19fe820b677a87220090b2308592fd08b762102907a54bed8ad74b3f35638c60114ca240a308cb986f3f2f306178869a8880b6152ae", "asm": "0 30440220734c69a106a980f59cfc2242566050e60409cb5c9cc2a2b4c2d88946db739cb802207f654c9cd6951fbe6be5cc5ee29829e64ac4dfb134a999fef4a99acc02d44e29[ALL] 3045022100da6af87833e3eebba41684fe8d66c16790cd29890854abb5b783464f522fb75d02201a294128ad664c024304b53970a4a7356b70f9878a540437a297d891753be236[ALL] 52210287ad1bf3601e8fdc8cf3339d21b3b19fe820b677a87220090b2308592fd08b762102907a54bed8ad74b3f35638c60114ca240a308cb986f3f2f306178869a8880b6152ae"}, "vout": 0, "txid": "3e9e2f7f1fbd0c92fa921e0bd5e3c5d6a8743b150c8fe411d283376b06112629"}, {"sequence": 4294967295, "scriptSig": {"hex": "483045022100841ad664d0d0e37d4974308fd005e4d5aec6876395b926edc72186785155a1fe02206e39d933e766bdbbf9597a6bcb7fb6729d24fe3123343d687e0992a47ef9939001210219d8ecd863ccc59ea8266c1cfe14fb624ce405f8580b24f8206bd10eab6c4596", "asm": "3045022100841ad664d0d0e37d4974308fd005e4d5aec6876395b926edc72186785155a1fe02206e39d933e766bdbbf9597a6bcb7fb6729d24fe3123343d687e0992a47ef99390[ALL] 0219d8ecd863ccc59ea8266c1cfe14fb624ce405f8580b24f8206bd10eab6c4596"}, "vout": 1, "txid": "a323257d332f061f6d011204a598a3141fa03b055bcb8ae64944830a44cd963b"}], "txid": "830e4442fec0784deab6220c596f6505fbfdf75e57163baeedeaee3bedaf6009", "blocktime": 1537870268, "version": 1, "confirmations": 11518, "time": 1537870268, "locktime": 0, "vsize": 517, "size": 517}