{"hash": "cb289b0a2e4abc6c095742cee2b561c22e6f8cb398d41a1655ceb630223f904e", "blockhash": "00000000000000000017f5eb5941039fbcee6240d03bc1f2f8e35350df66a1d8", "vout": [{"scriptPubKey": {"reqSigs": 1, "hex": "a9148c6cb492cd162b20aef1e0a39c0fa96fa41525ef87", "addresses": ["3EVWkP4Zc3mubQ7zFDNgcMLKPToYnmqxrA"], "asm": "OP_HASH160 8c6cb492cd162b20aef1e0a39c0fa96fa41525ef OP_EQUAL", "type": "scripthash"}, "value": 0.00243139, "n": 0}, {"scriptPubKey": {"reqSigs": 1, "hex": "00142b22b4afd3ee89e7141f0c450abc7b9eb11a08c4", "addresses": ["bc1q9v3tft7na6y7w9qlp3zs40rmn6c35zxytfm79r"], "asm": "0 2b22b4afd3ee89e7141f0c450abc7b9eb11a08c4", "type": "witness_v0_keyhash"}, "value": 9.41e-06, "n": 1}], "hex": "01000000000101619cbd50351fd02c68fca3f084b205ad98ffad11e5661d660c2902ccedd4d16d0100000000ffffffff02c3b503000000000017a9148c6cb492cd162b20aef1e0a39c0fa96fa41525ef87ad030000000000001600142b22b4afd3ee89e7141f0c450abc7b9eb11a08c40247304402206d352298846966bb7f6024e93fb24e42f71d51cd1672b038b8da678b5719c44902203ce3474b9716f8f8049e56ed0f794922cd474e3a075591e959fba24e334cc4900121026d7d50ae626123d7ff5d6108a5fdfdc67e8de7dd39d6c0f168ad6eb5f3dd5cb000000000", "vin": [{"txinwitness": ["304402206d352298846966bb7f6024e93fb24e42f71d51cd1672b038b8da678b5719c44902203ce3474b9716f8f8049e56ed0f794922cd474e3a075591e959fba24e334cc49001", "026d7d50ae626123d7ff5d6108a5fdfdc67e8de7dd39d6c0f168ad6eb5f3dd5cb0"], "sequence": 4294967295, "scriptSig": {"hex": "", "asm": ""}, "vout": 1, "txid": "6dd1d4edcc02290c661d66e511adff98ad05b284f0a3fc682cd01f3550bd9c61"}], "txid": "831201f86f987b80055be23d8e30dc6cf0ab088babd48bd341262af3fb04875e", "blocktime": 1537874412, "version": 1, "confirmations": 11467, "time": 1537874412, "locktime": 0, "vsize": 142, "size": 223}