{"hash": "dece8513d64c046163f82be9e48412b921a62a9fadd72f314bbd404966166968", "blockhash": "00000000000000000018f53835495a110e01622372bf6ae95dc86f2b0ab887b0", "vout": [{"scriptPubKey": {"reqSigs": 1, "hex": "76a9148f0ef35d5a4bfb5a28d766193c19eefdcd22cd7088ac", "addresses": ["1E3RYDoGbnBubPaCkgYVVEtYccEffskKFm"], "asm": "OP_DUP OP_HASH160 8f0ef35d5a4bfb5a28d766193c19eefdcd22cd70 OP_EQUALVERIFY OP_CHECKSIG", "type": "pubkeyhash"}, "value": 0.0022736, "n": 0}, {"scriptPubKey": {"reqSigs": 1, "hex": "a9146056cc42f93342bf96f62db8784698a1417a408887", "addresses": ["3AUQmnNY4CY79c27nhhY76cMrQqSety2mN"], "asm": "OP_HASH160 6056cc42f93342bf96f62db8784698a1417a4088 OP_EQUAL", "type": "scripthash"}, "value": 0.01003242, "n": 1}], "hex": "020000000001021a5a27cd7d9dadbab624c255c5daa595004be75b811183defdff2cb4abf08d8c19000000171600147c77269f56def8d0d0b22fdf86078b1b5224a58afeffffffdacf7361a00a6d6f228c33164e06ec18191ec1a71bcdef26afb5db186ba657f609000000171600140bcf8e8e7a1d34fc47f0ba4e1ea4e60f00b808d3feffffff0220780300000000001976a9148f0ef35d5a4bfb5a28d766193c19eefdcd22cd7088acea4e0f000000000017a9146056cc42f93342bf96f62db8784698a1417a408887024830450221009c50d24b04bebc53bfe5f015f4de008e1390bfbeca5111729e8dd701879c1c16022019b97b10085d2ba17593ede1a3979d15b85a68fda54d71248216df06735bbc71012102a06d58fe7003267d0b65eb6469a1a56a512777de947438bfe352ecea859b2fa202483045022100aca0098a29b5e58e0719b9f14dd13013f097c7f8c6314c65799dfacabc6a360302200220837ec38f2a46661b400c9f2cb56696a9a29867d7f5221cdda44fb3abe49e012102cb6b0ad249600c8a69cacef8f16a0f5472614e6375f08900734d7fd3d265d50bda480800", "vin": [{"txinwitness": ["30450221009c50d24b04bebc53bfe5f015f4de008e1390bfbeca5111729e8dd701879c1c16022019b97b10085d2ba17593ede1a3979d15b85a68fda54d71248216df06735bbc7101", "02a06d58fe7003267d0b65eb6469a1a56a512777de947438bfe352ecea859b2fa2"], "sequence": 4294967294, "scriptSig": {"hex": "1600147c77269f56def8d0d0b22fdf86078b1b5224a58a", "asm": "00147c77269f56def8d0d0b22fdf86078b1b5224a58a"}, "vout": 25, "txid": "8c8df0abb42cfffdde8311815be74b0095a5dac555c224b6baad9d7dcd275a1a"}, {"txinwitness": ["3045022100aca0098a29b5e58e0719b9f14dd13013f097c7f8c6314c65799dfacabc6a360302200220837ec38f2a46661b400c9f2cb56696a9a29867d7f5221cdda44fb3abe49e01", "02cb6b0ad249600c8a69cacef8f16a0f5472614e6375f08900734d7fd3d265d50b"], "sequence": 4294967294, "scriptSig": {"hex": "1600140bcf8e8e7a1d34fc47f0ba4e1ea4e60f00b808d3", "asm": "00140bcf8e8e7a1d34fc47f0ba4e1ea4e60f00b808d3"}, "vout": 9, "txid": "f657a66b18dbb5af26efcd1ba7c11e1918ec064e16338c226f6d0aa06173cfda"}], "txid": "831492936295d7ceda2490d94deedad7ac3a8986ce615f238589bcdbfcb70aa9", "blocktime": 1537870928, "version": 2, "confirmations": 11514, "time": 1537870928, "locktime": 542938, "vsize": 259, "size": 422}