{"hash": "8a8612eca7b5704f5689e1b0ce44d256ade493447931a32117579565d7042f31", "blockhash": "00000000000000000018f53835495a110e01622372bf6ae95dc86f2b0ab887b0", "vout": [{"scriptPubKey": {"reqSigs": 1, "hex": "0014234ca6aa675f11c4b9f633aedecb3849b0d0e647", "addresses": ["bc1qydx2d2n8tugufw0kxwhdajecfxcdpej8mxpmpt"], "asm": "0 234ca6aa675f11c4b9f633aedecb3849b0d0e647", "type": "witness_v0_keyhash"}, "value": 0.00120567, "n": 0}, {"scriptPubKey": {"reqSigs": 1, "hex": "76a914862917c63ba3f3c950cc8c2817de75967465a74188ac", "addresses": ["1DENmtVgk2CygRPjwqzhY4vHfobXC4Nuhv"], "asm": "OP_DUP OP_HASH160 862917c63ba3f3c950cc8c2817de75967465a741 OP_EQUALVERIFY OP_CHECKSIG", "type": "pubkeyhash"}, "value": 0.549, "n": 1}], "hex": "01000000000101515ad69d41c8e91f3feff751c5192942fb146fe77641121b173e8b4f4c86c62d0100000000ffffffff02f7d6010000000000160014234ca6aa675f11c4b9f633aedecb3849b0d0e64720b54503000000001976a914862917c63ba3f3c950cc8c2817de75967465a74188ac02483045022100d88930c7c7237aaa57f41d4ffe3d6ea47f05f059290f267da54b1fc4d3d671eb02206f0889a7a14f48c6ebbc6abef206c1325299e19374d11a0b40f52b4b0978ba8b01210233b9f4505d4cf9fd4d820ae2933241931adea084f3a1f56e42e634721c58a31100000000", "vin": [{"txinwitness": ["3045022100d88930c7c7237aaa57f41d4ffe3d6ea47f05f059290f267da54b1fc4d3d671eb02206f0889a7a14f48c6ebbc6abef206c1325299e19374d11a0b40f52b4b0978ba8b01", "0233b9f4505d4cf9fd4d820ae2933241931adea084f3a1f56e42e634721c58a311"], "sequence": 4294967295, "scriptSig": {"hex": "", "asm": ""}, "vout": 1, "txid": "2dc6864c4f8b3e171b124176e76f14fb422919c551f7ef3f1fe9c8419dd65a51"}], "txid": "8316669c5a350ba648eac91691acbc35e4912b4009862d15c3118bb864502383", "blocktime": 1537870928, "version": 1, "confirmations": 11514, "time": 1537870928, "locktime": 0, "vsize": 144, "size": 226}