{"hash": "831985b17604dc0ea0ee207039b037d65227d0b4b0ac579b36513e17ec84e498", "blockhash": "0000000000000000000e13cef7c366c0283d82e591d1acd082e914b08063cdf1", "vout": [{"scriptPubKey": {"reqSigs": 1, "hex": "76a9145990ebd84b61fd8c3198921f592ff3c39a1f28c588ac", "addresses": ["19AakNzgDtPmuTzBM3yAY1TLwNUHoGUygw"], "asm": "OP_DUP OP_HASH160 5990ebd84b61fd8c3198921f592ff3c39a1f28c5 OP_EQUALVERIFY OP_CHECKSIG", "type": "pubkeyhash"}, "value": 0.00895563, "n": 0}, {"scriptPubKey": {"reqSigs": 1, "hex": "76a914eb56e3debbb42751fa6e4310e55ddbce41ba50c588ac", "addresses": ["1NTMtK4N4nDctytBdkpS4hbH9Xg5ogr6Qq"], "asm": "OP_DUP OP_HASH160 eb56e3debbb42751fa6e4310e55ddbce41ba50c5 OP_EQUALVERIFY OP_CHECKSIG", "type": "pubkeyhash"}, "value": 0.0342859, "n": 1}], "hex": "02000000035d500b81072d828b3e8679e89099ca64f4286111edd7f47f90bb2e06f9fd459c2d0000006a4730440220633285e9fe1c491fd09c8dcafe8fec55ef1887408c7c5bf39cb50cd47247f7be0220706d9b31813864b18bdc7eb0c2fcba959ad5359612afcbf450151e7ad65058520121020c3f98193a9d5266fea09acd9c6cb60b7d0e3c1e42e94cb17ddd519dcd418001fefffffff117d48be7addf4bacfcb94c39f7435afa7ef54b4183e0adfa3682153b0656d6010000006b483045022100937b8863c4fb22bc4958cf8651d58a3bd12a092e1f3dd77b8d47dba487cfd2c30220777f22b02db03c7a01a3c03fa25d5862921c33130ce070106fd2cf98ae89e9da0121036e0425d090e3d26a8a9c701e2a7d972e8a0ab239ada1eb27940b1cd8dc27172dfefffffff7b7c1b66cd3e5ec0ec5cf7ac9016a334c3ee630f0670691225e959e51fdc673060000006b483045022100a17e135521639746265298cf024a46d786cd17d2c873a40621a7d93f2739791f022069e9838866840f7e482ca5a567039d68cf05c4ddfc865ea29be8d9a1c6d557d1012103ed87ec1d1a122c528d5a4137f743651e4c84a58184260359adcf911109aa71b3feffffff024baa0d00000000001976a9145990ebd84b61fd8c3198921f592ff3c39a1f28c588acee503400000000001976a914eb56e3debbb42751fa6e4310e55ddbce41ba50c588ac10490800", "vin": [{"sequence": 4294967294, "scriptSig": {"hex": "4730440220633285e9fe1c491fd09c8dcafe8fec55ef1887408c7c5bf39cb50cd47247f7be0220706d9b31813864b18bdc7eb0c2fcba959ad5359612afcbf450151e7ad65058520121020c3f98193a9d5266fea09acd9c6cb60b7d0e3c1e42e94cb17ddd519dcd418001", "asm": "30440220633285e9fe1c491fd09c8dcafe8fec55ef1887408c7c5bf39cb50cd47247f7be0220706d9b31813864b18bdc7eb0c2fcba959ad5359612afcbf450151e7ad6505852[ALL] 020c3f98193a9d5266fea09acd9c6cb60b7d0e3c1e42e94cb17ddd519dcd418001"}, "vout": 45, "txid": "9c45fdf9062ebb907ff4d7ed116128f464ca9990e879863e8b822d07810b505d"}, {"sequence": 4294967294, "scriptSig": {"hex": "483045022100937b8863c4fb22bc4958cf8651d58a3bd12a092e1f3dd77b8d47dba487cfd2c30220777f22b02db03c7a01a3c03fa25d5862921c33130ce070106fd2cf98ae89e9da0121036e0425d090e3d26a8a9c701e2a7d972e8a0ab239ada1eb27940b1cd8dc27172d", "asm": "3045022100937b8863c4fb22bc4958cf8651d58a3bd12a092e1f3dd77b8d47dba487cfd2c30220777f22b02db03c7a01a3c03fa25d5862921c33130ce070106fd2cf98ae89e9da[ALL] 036e0425d090e3d26a8a9c701e2a7d972e8a0ab239ada1eb27940b1cd8dc27172d"}, "vout": 1, "txid": "d656063b158236faade083414bf57efa5a43f7394cb9fcac4bdfade78bd417f1"}, {"sequence": 4294967294, "scriptSig": {"hex": "483045022100a17e135521639746265298cf024a46d786cd17d2c873a40621a7d93f2739791f022069e9838866840f7e482ca5a567039d68cf05c4ddfc865ea29be8d9a1c6d557d1012103ed87ec1d1a122c528d5a4137f743651e4c84a58184260359adcf911109aa71b3", "asm": "3045022100a17e135521639746265298cf024a46d786cd17d2c873a40621a7d93f2739791f022069e9838866840f7e482ca5a567039d68cf05c4ddfc865ea29be8d9a1c6d557d1[ALL] 03ed87ec1d1a122c528d5a4137f743651e4c84a58184260359adcf911109aa71b3"}, "vout": 6, "txid": "73c6fd519e955e22910667f030e63e4c336a01c97acfc50eece5d36cb6c1b7f7"}], "txid": "831985b17604dc0ea0ee207039b037d65227d0b4b0ac579b36513e17ec84e498", "blocktime": 1537871767, "version": 2, "confirmations": 11490, "time": 1537871767, "locktime": 542992, "vsize": 521, "size": 521}