{"hash": "b96da66e51ed40c0ca4586735e9c1ce2ec4b107a983626cb71b47652e75b4196", "blockhash": "0000000000000000000dcc0f55137456b1a82d3642486a52398922ac4d620174", "vout": [{"scriptPubKey": {"reqSigs": 1, "hex": "a91463aa00febf61831e8bb3550852e04eee4a201df987", "addresses": ["3AmzUcTSHWppW2For3VEjQAmQGZD2YJbVD"], "asm": "OP_HASH160 63aa00febf61831e8bb3550852e04eee4a201df9 OP_EQUAL", "type": "scripthash"}, "value": 0.01001349, "n": 0}, {"scriptPubKey": {"reqSigs": 1, "hex": "76a914a9fe6a270995b7a90c7b76306e07a17d2f93509588ac", "addresses": ["1GVqyTfPwJju6kphWzMCGxDkzACUPEAk1a"], "asm": "OP_DUP OP_HASH160 a9fe6a270995b7a90c7b76306e07a17d2f935095 OP_EQUALVERIFY OP_CHECKSIG", "type": "pubkeyhash"}, "value": 0.0037406, "n": 1}], "hex": "0200000000010217e73065a4a32e4cea5ffb7d4fcf1332cef9b91259ad28660e652b934c5dd4e10900000017160014be21b7ce15ce78f5eb37302bcfdf757c42daf1e6feffffffc22e2eda54ce5d8a335042444b05abc1a52528426b11e39b83dd7587ab6b291a01000000171600142317e844065bd027c2d14c0dfcd47c969ddc1f1afeffffff0285470f000000000017a91463aa00febf61831e8bb3550852e04eee4a201df9872cb50500000000001976a914a9fe6a270995b7a90c7b76306e07a17d2f93509588ac024730440220445631febe2691acf72c7672478a95cad540a6709583e02e99692e2ee20d711802204ee64deaad56ea731b349a7c5c2fc749b1741f01cc43e02061b986bd7ad7502e0121027cf18ea71df36d520ff72334e49d476d8c26552373d23ce630aedf6d756af49a02483045022100db9ae7961faa6be3ac1c2797bc6733803f08104b848b06252cf59cbd67ec9237022061c434b7b758f34ffc3bda03b01157a734d5c059bec7af1d2cad97fb7a87aa080121033279df05566ccc0b53cb6696a653fba9927a29f0dc9fc63cb4928f77c872c39d0c490800", "vin": [{"txinwitness": ["30440220445631febe2691acf72c7672478a95cad540a6709583e02e99692e2ee20d711802204ee64deaad56ea731b349a7c5c2fc749b1741f01cc43e02061b986bd7ad7502e01", "027cf18ea71df36d520ff72334e49d476d8c26552373d23ce630aedf6d756af49a"], "sequence": 4294967294, "scriptSig": {"hex": "160014be21b7ce15ce78f5eb37302bcfdf757c42daf1e6", "asm": "0014be21b7ce15ce78f5eb37302bcfdf757c42daf1e6"}, "vout": 9, "txid": "e1d45d4c932b650e6628ad5912b9f9ce3213cf4f7dfb5fea4c2ea3a46530e717"}, {"txinwitness": ["3045022100db9ae7961faa6be3ac1c2797bc6733803f08104b848b06252cf59cbd67ec9237022061c434b7b758f34ffc3bda03b01157a734d5c059bec7af1d2cad97fb7a87aa0801", "033279df05566ccc0b53cb6696a653fba9927a29f0dc9fc63cb4928f77c872c39d"], "sequence": 4294967294, "scriptSig": {"hex": "1600142317e844065bd027c2d14c0dfcd47c969ddc1f1a", "asm": "00142317e844065bd027c2d14c0dfcd47c969ddc1f1a"}, "vout": 1, "txid": "1a296bab8775dd839be3116b422825a5c1ab054b444250338a5dce54da2e2ec2"}], "txid": "83252475688488a25badcd24b5c7e44657efb288b8137e17b986c23675b512d2", "blocktime": 1537870268, "version": 2, "confirmations": 11518, "time": 1537870268, "locktime": 542988, "vsize": 259, "size": 421}