{"hash": "83267ac5bb5341591fcac0915fbad675ff5f5667af13e135161b6aee1271c2e4", "blockhash": "00000000000000000018f53835495a110e01622372bf6ae95dc86f2b0ab887b0", "vout": [{"scriptPubKey": {"reqSigs": 1, "hex": "a9144b72e8c998ca91e73f633f629122c511589633b887", "addresses": ["38ZxFyGeHPax5zif5zHtWpLRmHhDSX38i8"], "asm": "OP_HASH160 4b72e8c998ca91e73f633f629122c511589633b8 OP_EQUAL", "type": "scripthash"}, "value": 0.00195447, "n": 0}, {"scriptPubKey": {"reqSigs": 1, "hex": "76a914b520984c1c6d9448650bbbfe4d5a55e40c4cf19a88ac", "addresses": ["1HWiMTR8vxiGdCQp3LH67w7A7cohumFa8u"], "asm": "OP_DUP OP_HASH160 b520984c1c6d9448650bbbfe4d5a55e40c4cf19a OP_EQUALVERIFY OP_CHECKSIG", "type": "pubkeyhash"}, "value": 0.10291785, "n": 1}], "hex": "0200000001a5720cb2bfa519a9b5aba759e118d3694beaba041a50e23f50bf9c0185d82451010000006b483045022100fff01268c51a07bdb3d659a0661a4295e7d6a4776ff2be6b2823972b8658c04802204d4a21f5b88980ad95852f1c1b4c981b808519897fe481638843029231fa65d1012102db979748bb82aac24e3e82f688b9262d56fd7ae3c9442f309259e127f2db4a52ffffffff0277fb02000000000017a9144b72e8c998ca91e73f633f629122c511589633b887490a9d00000000001976a914b520984c1c6d9448650bbbfe4d5a55e40c4cf19a88ac00000000", "vin": [{"sequence": 4294967295, "scriptSig": {"hex": "483045022100fff01268c51a07bdb3d659a0661a4295e7d6a4776ff2be6b2823972b8658c04802204d4a21f5b88980ad95852f1c1b4c981b808519897fe481638843029231fa65d1012102db979748bb82aac24e3e82f688b9262d56fd7ae3c9442f309259e127f2db4a52", "asm": "3045022100fff01268c51a07bdb3d659a0661a4295e7d6a4776ff2be6b2823972b8658c04802204d4a21f5b88980ad95852f1c1b4c981b808519897fe481638843029231fa65d1[ALL] 02db979748bb82aac24e3e82f688b9262d56fd7ae3c9442f309259e127f2db4a52"}, "vout": 1, "txid": "5124d885019cbf503fe2501a04baea4b69d318e159a7abb5a919a5bfb20c72a5"}], "txid": "83267ac5bb5341591fcac0915fbad675ff5f5667af13e135161b6aee1271c2e4", "blocktime": 1537870928, "version": 2, "confirmations": 11512, "time": 1537870928, "locktime": 0, "vsize": 224, "size": 224}