{"hash": "8327e6c9f9f321167d044ac9119ce6ec73b7124f89c22c07de218880dfa5631d", "blockhash": "0000000000000000000e13cef7c366c0283d82e591d1acd082e914b08063cdf1", "vout": [{"scriptPubKey": {"reqSigs": 1, "hex": "76a91437a541f00ea1826913c9065d53b26ccdb9889eef88ac", "addresses": ["165E8rBGrJ77AHiU6VjB7j5Wa7Q3VMiRvY"], "asm": "OP_DUP OP_HASH160 37a541f00ea1826913c9065d53b26ccdb9889eef OP_EQUALVERIFY OP_CHECKSIG", "type": "pubkeyhash"}, "value": 0.00234901, "n": 0}, {"scriptPubKey": {"reqSigs": 1, "hex": "a9144f1622574f8a8cfe1a690a65b01bd41a5677849c87", "addresses": ["38uBpc5pCTLA2MSmmjJAHyk6ez7ukYWFWM"], "asm": "OP_HASH160 4f1622574f8a8cfe1a690a65b01bd41a5677849c OP_EQUAL", "type": "scripthash"}, "value": 0.01188302, "n": 1}], "hex": "0100000001bdda60b2ca874dff3b6f0905d0a9a5cd241c77c303194754942a6856bb05af120d0000006a473044022046124a8cd996538b2ba5e13c3c2ed13d663fde5e76981de0cd9e5ee8bfcb3261022028c654e9fd6bf787e143405b612c7a8bffcbf2917356d93e4d70f273ae817f09012103e6ae716baa7b1ef719be47fa51e91ebf86f013b247efe8f79edbf50a31f6e56bffffffff0295950300000000001976a91437a541f00ea1826913c9065d53b26ccdb9889eef88acce2112000000000017a9144f1622574f8a8cfe1a690a65b01bd41a5677849c8700000000", "vin": [{"sequence": 4294967295, "scriptSig": {"hex": "473044022046124a8cd996538b2ba5e13c3c2ed13d663fde5e76981de0cd9e5ee8bfcb3261022028c654e9fd6bf787e143405b612c7a8bffcbf2917356d93e4d70f273ae817f09012103e6ae716baa7b1ef719be47fa51e91ebf86f013b247efe8f79edbf50a31f6e56b", "asm": "3044022046124a8cd996538b2ba5e13c3c2ed13d663fde5e76981de0cd9e5ee8bfcb3261022028c654e9fd6bf787e143405b612c7a8bffcbf2917356d93e4d70f273ae817f09[ALL] 03e6ae716baa7b1ef719be47fa51e91ebf86f013b247efe8f79edbf50a31f6e56b"}, "vout": 13, "txid": "12af05bb56682a9454471903c3771c24cda5a9d005096f3bff4d87cab260dabd"}], "txid": "8327e6c9f9f321167d044ac9119ce6ec73b7124f89c22c07de218880dfa5631d", "blocktime": 1537871767, "version": 1, "confirmations": 11495, "time": 1537871767, "locktime": 0, "vsize": 223, "size": 223}