{"hash": "86b7a9eab2d8a606285915d8a961f4436780da3d16c1eb2f420f53c23f3d0b1d", "blockhash": "0000000000000000001e0dab787dd257d1dbfcb92a98c2207d5e1078be1f4165", "vout": [{"scriptPubKey": {"reqSigs": 1, "hex": "a91461ec8c2bc52f1667474e7202de0e81eae9c9d14a87", "addresses": ["3AcnqmC3PNjHktxE9EN9USwUcpELcSUwDQ"], "asm": "OP_HASH160 61ec8c2bc52f1667474e7202de0e81eae9c9d14a OP_EQUAL", "type": "scripthash"}, "value": 0.8057602, "n": 0}, {"scriptPubKey": {"reqSigs": 1, "hex": "a914da8c0a0ede49530afbdb765e3db26ee021fd3df387", "addresses": ["3McazTpRnBoH88T3fmRNiHC4vME5nfyZAU"], "asm": "OP_HASH160 da8c0a0ede49530afbdb765e3db26ee021fd3df3 OP_EQUAL", "type": "scripthash"}, "value": 2.0, "n": 1}], "hex": "010000000001019b9daa84a5559bee29af72db024c63e3f3cce8b506a94bca6366286ab7dd026e0100000017160014c81a44c1e289bb2960a03b75211a1c0102922223ffffffff02147ecd040000000017a91461ec8c2bc52f1667474e7202de0e81eae9c9d14a8700c2eb0b0000000017a914da8c0a0ede49530afbdb765e3db26ee021fd3df3870247304402202ef425201ba47b83e8adcec912abd3a6d351bec3c3ebc5d1272c314f851d1e1f02200ece5853f8a32ce1ba94d5e07702e757cbebb10d16a752a37f47dc3704253130012102f8363dc2907821c49c9521bf1dd3abdc0eea3f1cbf0b030cb8bd435917012adf00000000", "vin": [{"txinwitness": ["304402202ef425201ba47b83e8adcec912abd3a6d351bec3c3ebc5d1272c314f851d1e1f02200ece5853f8a32ce1ba94d5e07702e757cbebb10d16a752a37f47dc370425313001", "02f8363dc2907821c49c9521bf1dd3abdc0eea3f1cbf0b030cb8bd435917012adf"], "sequence": 4294967295, "scriptSig": {"hex": "160014c81a44c1e289bb2960a03b75211a1c0102922223", "asm": "0014c81a44c1e289bb2960a03b75211a1c0102922223"}, "vout": 1, "txid": "6e02ddb76a286663ca4ba906b5e8ccf3e3634c02db72af29ee9b55a584aa9d9b"}], "txid": "832d6b706d93cbf909f68ef507d6f20d5de3722b2f5549f96cfa8795dc6e65eb", "blocktime": 1537872475, "version": 1, "confirmations": 11486, "time": 1537872475, "locktime": 0, "vsize": 166, "size": 247}