{"hash": "73efd82bb0659d6f1651d643db1c070f705d3a48cb68205b02afd58306aac472", "blockhash": "00000000000000000024a2167bbff67b0be802c0b01cdd79e6331c2be6459f87", "vout": [{"scriptPubKey": {"reqSigs": 1, "hex": "a914c9a1d1d765fb39d4672c4c47d582f2d678058d9287", "addresses": ["3L59bXkh8fsBCuzHukHT8H37yhDE5jLXm6"], "asm": "OP_HASH160 c9a1d1d765fb39d4672c4c47d582f2d678058d92 OP_EQUAL", "type": "scripthash"}, "value": 8.51285689, "n": 0}, {"scriptPubKey": {"reqSigs": 1, "hex": "a914fd90f468a343c403103a19e04de16264df62ee4587", "addresses": ["3QokXhzCzmgBXE8uo15NBYG1Yc6j1s66kP"], "asm": "OP_HASH160 fd90f468a343c403103a19e04de16264df62ee45 OP_EQUAL", "type": "scripthash"}, "value": 0.04170574, "n": 1}], "hex": "020000000001019f7aac8c142e9ada4500f5a96acd4428043a33101dfdeec0a496a45f39f7cdcc010000001716001472aa5ee105a75d74189c695cb8b006dcdbc26f00feffffff02b996bd320000000017a914c9a1d1d765fb39d4672c4c47d582f2d678058d92874ea33f000000000017a914fd90f468a343c403103a19e04de16264df62ee45870247304402203ecccc9cac854292afb5b086ec1ad7ed2f70726437ceb0142c84ccae6da1bd280220009fe7170b21b1b43498d3fa98e07b38b8feb4a3e4ec5480c0c61bfcf433c171012103615f4c55a5ef550bc316d409e04c9f7e6193d01669130fcd1ef0def66a2f5fdc02490800", "vin": [{"txinwitness": ["304402203ecccc9cac854292afb5b086ec1ad7ed2f70726437ceb0142c84ccae6da1bd280220009fe7170b21b1b43498d3fa98e07b38b8feb4a3e4ec5480c0c61bfcf433c17101", "03615f4c55a5ef550bc316d409e04c9f7e6193d01669130fcd1ef0def66a2f5fdc"], "sequence": 4294967294, "scriptSig": {"hex": "16001472aa5ee105a75d74189c695cb8b006dcdbc26f00", "asm": "001472aa5ee105a75d74189c695cb8b006dcdbc26f00"}, "vout": 1, "txid": "cccdf7395fa496a4c0eefd1d10333a042844cd6aa9f50045da9a2e148cac7a9f"}], "txid": "832ea2c66453d1023567e18ad3c8b87471f24fd6426eaccd4ba2ddb26d711f2f", "blocktime": 1537870564, "version": 2, "confirmations": 11515, "time": 1537870564, "locktime": 542978, "vsize": 166, "size": 247}