{"hash": "3c2e500655305001a237a3f12cb17e405353df429e0a88fb23f917608f4ecdf8", "blockhash": "0000000000000000001f76057863aec43deb6fa401d9628bb513d65a8098bfab", "vout": [{"scriptPubKey": {"reqSigs": 1, "hex": "76a9141041c6d6612510e688414295d785d5af444ae40188ac", "addresses": ["12UxcKH64AuNV8ghdmaqr67vvoKqS79jKk"], "asm": "OP_DUP OP_HASH160 1041c6d6612510e688414295d785d5af444ae401 OP_EQUALVERIFY OP_CHECKSIG", "type": "pubkeyhash"}, "value": 0.05304, "n": 0}, {"scriptPubKey": {"reqSigs": 1, "hex": "00149c5e95ea340b0d489f9f03db60dfa533f9a0a159", "addresses": ["bc1qn30ft635pvx538ulq0dkpha9x0u6pg2eya9jre"], "asm": "0 9c5e95ea340b0d489f9f03db60dfa533f9a0a159", "type": "witness_v0_keyhash"}, "value": 0.00040409, "n": 1}], "hex": "0100000000010108dca41ccacdd248460a3690004d61922d357903559c5ea28f45fe7ba123e18d00000000171600148d0eabcea91abb2ae163bae1424b978d3791d955ffffffff02c0ee5000000000001976a9141041c6d6612510e688414295d785d5af444ae40188acd99d0000000000001600149c5e95ea340b0d489f9f03db60dfa533f9a0a15902483045022100e92215ada8a674eb30b430ee20c539b98160e6732bc620183e558ae15cd7276c0220033adee35613b5c62fdf9c07142f161a2ec6624492245aa9917b2287653f3b0f01210319ebc1b6d30af3471ca0e5e4c51ccdde8c29f0683894356cfe8f7c75d4760b4800000000", "vin": [{"txinwitness": ["3045022100e92215ada8a674eb30b430ee20c539b98160e6732bc620183e558ae15cd7276c0220033adee35613b5c62fdf9c07142f161a2ec6624492245aa9917b2287653f3b0f01", "0319ebc1b6d30af3471ca0e5e4c51ccdde8c29f0683894356cfe8f7c75d4760b48"], "sequence": 4294967295, "scriptSig": {"hex": "1600148d0eabcea91abb2ae163bae1424b978d3791d955", "asm": "00148d0eabcea91abb2ae163bae1424b978d3791d955"}, "vout": 0, "txid": "8de123a17bfe458fa25e9c550379352d92614d0090360a4648d2cdca1ca4dc08"}], "txid": "8334eaae27b1b8aa6e63efa861d2e08bd8864f64103b5f8ed7d2a4f76d025f0b", "blocktime": 1537873891, "version": 1, "confirmations": 11478, "time": 1537873891, "locktime": 0, "vsize": 167, "size": 249}