{"hash": "83389c0b277ac06fb6c43a0c0adda26c26f1d84e704f34ace732c77f30ce12b3", "blockhash": "0000000000000000001f0ddff1eddb255c1121bcd4da4f1bc9a0da00cae72433", "vout": [{"scriptPubKey": {"reqSigs": 1, "hex": "a914c86017a55a33952728959dd8af4564060b2c473387", "addresses": ["3KxWBXNnVPSpCoceSgebLArRwqoEoaWdFU"], "asm": "OP_HASH160 c86017a55a33952728959dd8af4564060b2c4733 OP_EQUAL", "type": "scripthash"}, "value": 0.01554427, "n": 0}], "hex": "0100000001faae25accbdd95ef32a94252fd3bb0229fb1316b0eff0a3616f8f336d012280e000000006a473044022050743f5f6557ca46e8f0dbf926b41d4a9cd12345d60c0ff4e70161833cb8cbf20220153f5e298033748321ec4e8c4cff48d0204ee963fbbe1350fae2d2430ce3f9ca01210267f80616881344328b0d037081317baded428c59ca1835802c30d8d3715552b7ffffffff01fbb717000000000017a914c86017a55a33952728959dd8af4564060b2c47338700000000", "vin": [{"sequence": 4294967295, "scriptSig": {"hex": "473044022050743f5f6557ca46e8f0dbf926b41d4a9cd12345d60c0ff4e70161833cb8cbf20220153f5e298033748321ec4e8c4cff48d0204ee963fbbe1350fae2d2430ce3f9ca01210267f80616881344328b0d037081317baded428c59ca1835802c30d8d3715552b7", "asm": "3044022050743f5f6557ca46e8f0dbf926b41d4a9cd12345d60c0ff4e70161833cb8cbf20220153f5e298033748321ec4e8c4cff48d0204ee963fbbe1350fae2d2430ce3f9ca[ALL] 0267f80616881344328b0d037081317baded428c59ca1835802c30d8d3715552b7"}, "vout": 0, "txid": "0e2812d036f3f816360aff0e6b31b19f22b03bfd5242a932ef95ddcbac25aefa"}], "txid": "83389c0b277ac06fb6c43a0c0adda26c26f1d84e704f34ace732c77f30ce12b3", "blocktime": 1537872018, "version": 1, "confirmations": 11489, "time": 1537872018, "locktime": 0, "vsize": 189, "size": 189}