{"hash": "833b6d73750797401229a40333d5fbee4ab532edb49a0654bb1a3997189e49f6", "blockhash": "0000000000000000001f76057863aec43deb6fa401d9628bb513d65a8098bfab", "vout": [{"scriptPubKey": {"reqSigs": 1, "hex": "a9149e08b963656a5fe58958d283aab63c03cbf8a1dd87", "addresses": ["3G6d924aQNcpwJcNj2qzR1gqvb9Tn4GaB7"], "asm": "OP_HASH160 9e08b963656a5fe58958d283aab63c03cbf8a1dd OP_EQUAL", "type": "scripthash"}, "value": 0.00093642, "n": 0}, {"scriptPubKey": {"reqSigs": 1, "hex": "76a914a029d067f242b9743a7766f090e93090c7aa44cd88ac", "addresses": ["1FbsCzDbRmfpJiJ6BQWsTpNWvoijY9mxns"], "asm": "OP_DUP OP_HASH160 a029d067f242b9743a7766f090e93090c7aa44cd OP_EQUALVERIFY OP_CHECKSIG", "type": "pubkeyhash"}, "value": 0.00224602, "n": 1}], "hex": "0100000001442033fcfa40a7deb8b4680c894a7219142a9e01577c3a892a2952ca74ea8fe2000000006b483045022100d18ced48fd955e3dc68f59c189a449791ab62f1475a4c90f3f3a4587715558e8022032c6c3b5e54e33685772c748315ee42db368c121f00b64513b55ba3c1454c10c0121035356fd067d3dfc5c4d1f7c3809b2c6634c751efe9a5904ef8e497538554666dbffffffff02ca6d01000000000017a9149e08b963656a5fe58958d283aab63c03cbf8a1dd875a6d0300000000001976a914a029d067f242b9743a7766f090e93090c7aa44cd88ac00000000", "vin": [{"sequence": 4294967295, "scriptSig": {"hex": "483045022100d18ced48fd955e3dc68f59c189a449791ab62f1475a4c90f3f3a4587715558e8022032c6c3b5e54e33685772c748315ee42db368c121f00b64513b55ba3c1454c10c0121035356fd067d3dfc5c4d1f7c3809b2c6634c751efe9a5904ef8e497538554666db", "asm": "3045022100d18ced48fd955e3dc68f59c189a449791ab62f1475a4c90f3f3a4587715558e8022032c6c3b5e54e33685772c748315ee42db368c121f00b64513b55ba3c1454c10c[ALL] 035356fd067d3dfc5c4d1f7c3809b2c6634c751efe9a5904ef8e497538554666db"}, "vout": 0, "txid": "e28fea74ca52292a893a7c57019e2a1419724a890c68b4b8dea740fafc332044"}], "txid": "833b6d73750797401229a40333d5fbee4ab532edb49a0654bb1a3997189e49f6", "blocktime": 1537873891, "version": 1, "confirmations": 11478, "time": 1537873891, "locktime": 0, "vsize": 224, "size": 224}