{"hash": "834102aedfe7928b2fcad63cf156fcef145fe8a1851ddb7e4ac4f6254483a704", "blockhash": "0000000000000000000baef3f32e3676a92c3b2e5da21b426e4f302fc371ce76", "vout": [{"scriptPubKey": {"reqSigs": 1, "hex": "76a914461166d46129010ec9e5331ab8d53559fc8ae6a988ac", "addresses": ["17PV9X3JFStzskPEQxz2DAEuZswhTAFuuG"], "asm": "OP_DUP OP_HASH160 461166d46129010ec9e5331ab8d53559fc8ae6a9 OP_EQUALVERIFY OP_CHECKSIG", "type": "pubkeyhash"}, "value": 0.16952118, "n": 0}, {"scriptPubKey": {"reqSigs": 1, "hex": "76a914538a5b00def7f64c5ced52722a0076d3aed1a7b088ac", "addresses": ["18ciq2himaJxyABKBuX3LJoD6fy4kQw7G6"], "asm": "OP_DUP OP_HASH160 538a5b00def7f64c5ced52722a0076d3aed1a7b0 OP_EQUALVERIFY OP_CHECKSIG", "type": "pubkeyhash"}, "value": 3.92099047, "n": 1}], "hex": "010000000553ed48d88d6c1022fc39721335d7b8ebd72e416c74f826b29ff33379b41e8008060000006a47304402207d2addf4ef21373a52ed93e93dfd9462621a6f6a78b4adcfa23de64cd48779a102206668b70f16681cfc1efc054111036d8ad419fa901a4980a66933f358ee3df38a012103aca9e2d906b102792e286ad9533204f6e7c753512022379601e292ba35ee8977ffffffff3066ce46f72d84a5852717565db0aa0489c0bb50db1ebfa5e87fc527aa40881d000000006a473044022019342f114adadde2a9f7a92375b694a662670b574c36f08ac61304cbb9c0cb4202201ac5008feabd5b249304f0c06235e1d113edcf401f5e2070c00a28952ba40bdf012102db014a675dfa2cc11741c9ad1e540ba57a6adf0b9da7d52f28f9e8fb44eb164dffffffff49bb2e07a7ece91bd072c9e49ca95d53cb378c6133556dcfc909d62f03c7f25c000000006a47304402202001f32e4915cde8931c824adf3e0302bf3c082565fb63e0a4f8ded61e6fbce402206136abe0207ac1a2cd4ceedd4dbd116e2fc4bd2515b6edd129e7d080e6152c7a01210333483d6fa758007d4d6a7701fa5547badb628be0d6e13c4fbe1b9877410524acffffffffd571a157a7c440a767de0dc85e3d09ca2b272205f28cef93c8a96cc5be58d6da010000006a473044022076f7b8076ecd1fb5d6d4e6656e78ad7cd33807a88a231e60676d993ba67db083022046dbb712d034b429489559618037945c6d80d142adb467337e29810571bf3d45012102e3cb161efa964308422f1391d0b84fd9f61a9d3d9a2a3e2a66b2c5246ac3f45fffffffff9dfe46644c93535348b1b3fe252021da3a598fd5b3f8fc16e79c843a18bb90e5010000006b483045022100e615c36469200ae4155b71b1e356d6140bcb8fdb25f358fc770ea61f53d184f9022018a58d841243826256d4cb19bb2542730f4f3808bbb12b6869304ef1e4305ca8012103f30f750e02a2dfd33e8f3f610d6e7f854987aec472f5bedb6479162178b300b1ffffffff0236ab0201000000001976a914461166d46129010ec9e5331ab8d53559fc8ae6a988ace7f45e17000000001976a914538a5b00def7f64c5ced52722a0076d3aed1a7b088ac00000000", "vin": [{"sequence": 4294967295, "scriptSig": {"hex": "47304402207d2addf4ef21373a52ed93e93dfd9462621a6f6a78b4adcfa23de64cd48779a102206668b70f16681cfc1efc054111036d8ad419fa901a4980a66933f358ee3df38a012103aca9e2d906b102792e286ad9533204f6e7c753512022379601e292ba35ee8977", "asm": "304402207d2addf4ef21373a52ed93e93dfd9462621a6f6a78b4adcfa23de64cd48779a102206668b70f16681cfc1efc054111036d8ad419fa901a4980a66933f358ee3df38a[ALL] 03aca9e2d906b102792e286ad9533204f6e7c753512022379601e292ba35ee8977"}, "vout": 6, "txid": "08801eb47933f39fb226f8746c412ed7ebb8d735137239fc22106c8dd848ed53"}, {"sequence": 4294967295, "scriptSig": {"hex": "473044022019342f114adadde2a9f7a92375b694a662670b574c36f08ac61304cbb9c0cb4202201ac5008feabd5b249304f0c06235e1d113edcf401f5e2070c00a28952ba40bdf012102db014a675dfa2cc11741c9ad1e540ba57a6adf0b9da7d52f28f9e8fb44eb164d", "asm": "3044022019342f114adadde2a9f7a92375b694a662670b574c36f08ac61304cbb9c0cb4202201ac5008feabd5b249304f0c06235e1d113edcf401f5e2070c00a28952ba40bdf[ALL] 02db014a675dfa2cc11741c9ad1e540ba57a6adf0b9da7d52f28f9e8fb44eb164d"}, "vout": 0, "txid": "1d8840aa27c57fe8a5bf1edb50bbc08904aab05d56172785a5842df746ce6630"}, {"sequence": 4294967295, "scriptSig": {"hex": "47304402202001f32e4915cde8931c824adf3e0302bf3c082565fb63e0a4f8ded61e6fbce402206136abe0207ac1a2cd4ceedd4dbd116e2fc4bd2515b6edd129e7d080e6152c7a01210333483d6fa758007d4d6a7701fa5547badb628be0d6e13c4fbe1b9877410524ac", "asm": "304402202001f32e4915cde8931c824adf3e0302bf3c082565fb63e0a4f8ded61e6fbce402206136abe0207ac1a2cd4ceedd4dbd116e2fc4bd2515b6edd129e7d080e6152c7a[ALL] 0333483d6fa758007d4d6a7701fa5547badb628be0d6e13c4fbe1b9877410524ac"}, "vout": 0, "txid": "5cf2c7032fd609c9cf6d5533618c37cb535da99ce4c972d01be9eca7072ebb49"}, {"sequence": 4294967295, "scriptSig": {"hex": "473044022076f7b8076ecd1fb5d6d4e6656e78ad7cd33807a88a231e60676d993ba67db083022046dbb712d034b429489559618037945c6d80d142adb467337e29810571bf3d45012102e3cb161efa964308422f1391d0b84fd9f61a9d3d9a2a3e2a66b2c5246ac3f45f", "asm": "3044022076f7b8076ecd1fb5d6d4e6656e78ad7cd33807a88a231e60676d993ba67db083022046dbb712d034b429489559618037945c6d80d142adb467337e29810571bf3d45[ALL] 02e3cb161efa964308422f1391d0b84fd9f61a9d3d9a2a3e2a66b2c5246ac3f45f"}, "vout": 1, "txid": "dad658bec56ca9c893ef8cf20522272bca093d5ec80dde67a740c4a757a171d5"}, {"sequence": 4294967295, "scriptSig": {"hex": "483045022100e615c36469200ae4155b71b1e356d6140bcb8fdb25f358fc770ea61f53d184f9022018a58d841243826256d4cb19bb2542730f4f3808bbb12b6869304ef1e4305ca8012103f30f750e02a2dfd33e8f3f610d6e7f854987aec472f5bedb6479162178b300b1", "asm": "3045022100e615c36469200ae4155b71b1e356d6140bcb8fdb25f358fc770ea61f53d184f9022018a58d841243826256d4cb19bb2542730f4f3808bbb12b6869304ef1e4305ca8[ALL] 03f30f750e02a2dfd33e8f3f610d6e7f854987aec472f5bedb6479162178b300b1"}, "vout": 1, "txid": "e590bb183a849ce716fcf8b3d58f593ada212025feb3b1485353934c6446fe9d"}], "txid": "834102aedfe7928b2fcad63cf156fcef145fe8a1851ddb7e4ac4f6254483a704", "blocktime": 1537876114, "version": 1, "confirmations": 11460, "time": 1537876114, "locktime": 0, "vsize": 814, "size": 814}