{"hash": "8344acbae99ad14c6cdec72f877a2e63d43bf31723e6f7323d908e894f3899b6", "blockhash": "0000000000000000000baef3f32e3676a92c3b2e5da21b426e4f302fc371ce76", "vout": [{"scriptPubKey": {"reqSigs": 1, "hex": "a914e08e374b14b862fda880575904bf0c1238a24c9b87", "addresses": ["3NAMerUv5Nvnne3pBg1tBYzxzZH3h3M9V5"], "asm": "OP_HASH160 e08e374b14b862fda880575904bf0c1238a24c9b OP_EQUAL", "type": "scripthash"}, "value": 0.00676407, "n": 0}, {"scriptPubKey": {"reqSigs": 1, "hex": "76a914b082f19cd9d814bfb8199ad32d7025231510bec488ac", "addresses": ["1H6Jnu21V4oNJNE3uFCfYZC4NRSKZ6hiRj"], "asm": "OP_DUP OP_HASH160 b082f19cd9d814bfb8199ad32d7025231510bec4 OP_EQUALVERIFY OP_CHECKSIG", "type": "pubkeyhash"}, "value": 0.01993812, "n": 1}], "hex": "010000000179d3606eb3674182afd8dcdd83286ea89e404b8de34e91a9c173dcd76eaa5d0c000000006b483045022100eb8fe798ba2382c19d27d0f86e7d2bfcda15ed1b509f5dba500920364180599602200f7ebdc973b590de4111c7b011ea7da172e41d569eebe792e89c7dc752818a1101210298736f2f1ac2d7d55ac7fa70a539407e5a2b68f2578fe1be39d7df70b48f8493ffffffff0237520a000000000017a914e08e374b14b862fda880575904bf0c1238a24c9b87546c1e00000000001976a914b082f19cd9d814bfb8199ad32d7025231510bec488ac00000000", "vin": [{"sequence": 4294967295, "scriptSig": {"hex": "483045022100eb8fe798ba2382c19d27d0f86e7d2bfcda15ed1b509f5dba500920364180599602200f7ebdc973b590de4111c7b011ea7da172e41d569eebe792e89c7dc752818a1101210298736f2f1ac2d7d55ac7fa70a539407e5a2b68f2578fe1be39d7df70b48f8493", "asm": "3045022100eb8fe798ba2382c19d27d0f86e7d2bfcda15ed1b509f5dba500920364180599602200f7ebdc973b590de4111c7b011ea7da172e41d569eebe792e89c7dc752818a11[ALL] 0298736f2f1ac2d7d55ac7fa70a539407e5a2b68f2578fe1be39d7df70b48f8493"}, "vout": 0, "txid": "0c5daa6ed7dc73c1a9914ee38d4b409ea86e2883dddcd8af824167b36e60d379"}], "txid": "8344acbae99ad14c6cdec72f877a2e63d43bf31723e6f7323d908e894f3899b6", "blocktime": 1537876114, "version": 1, "confirmations": 11460, "time": 1537876114, "locktime": 0, "vsize": 224, "size": 224}