{"hash": "83454cdd1c7a48d28939f00d21910e67b52dfbc9a153ca50241d3a1eaa2f86b5", "blockhash": "0000000000000000000baef3f32e3676a92c3b2e5da21b426e4f302fc371ce76", "vout": [{"scriptPubKey": {"reqSigs": 1, "hex": "76a914b7ae4063a903a7c1844e380e13b64d83020a884e88ac", "addresses": ["1HkDQK9XJJYsLMENuiuedD2sYySHRyVCpQ"], "asm": "OP_DUP OP_HASH160 b7ae4063a903a7c1844e380e13b64d83020a884e OP_EQUALVERIFY OP_CHECKSIG", "type": "pubkeyhash"}, "value": 0.00112638, "n": 0}, {"scriptPubKey": {"reqSigs": 1, "hex": "a91430a2f2a3ff822afef9453b8fda000cfcc629382887", "addresses": ["368BZZgVDMmHTbb1Knhe1DnTi17aPyNofm"], "asm": "OP_HASH160 30a2f2a3ff822afef9453b8fda000cfcc6293828 OP_EQUAL", "type": "scripthash"}, "value": 0.01, "n": 1}], "hex": "010000000533ab72ed030358b3cd091a08dcd3f5e37652e9eacc088dbfc6ab2b8b8349ce0b000000006b4830450221009fd92a969ae0317ef7fc4f3159b2b76425607f7030022d6429cbc467561394a3022064bc6dca83279d55d4329c59cfee5b221ec996a5efb09eb6eb75bf980068fd7f01210245898bced9c589561f62784be415ea030657a20c9253bcc049159e6b463a309effffffff1888b3906329d2599d1a7c2561a47d817b6ed6bb44440c4883242b04ad5f7e6b000000006a4730440220407add2b80409d27c3a8c81917ee5dff6fc8befaadf776741c1578284fee330002204cf0cda7b97c906597d999498ce86652d6b2eaed304c836c1bf0ff6ec15652a601210245898bced9c589561f62784be415ea030657a20c9253bcc049159e6b463a309effffffffb320b7b8caf35dfbbc5914e0560585f7702a9cba2611212cfed5ea6f2e1faaa1000000006a473044022032b60ef9baa5bae896bf3b300880ee91002a5dbfe7766d21e76270c87d880231022060ef05c9399da73ac2560095d4721f00606914cb277043102d9ba85c2d4caa3601210245898bced9c589561f62784be415ea030657a20c9253bcc049159e6b463a309effffffff585bfa3fcf664f931f403a8aed992fb5f45201a193f886b35d9776adb5d7d8bb000000006b483045022100af65d598a6063f3433b767f2b600e87a2b6a76582e2d1a6bd527e9838e23747302200e818acfb51be6c26a56410f01c96ae2ed54e26b89a4bf6bad5b4969c941385d01210245898bced9c589561f62784be415ea030657a20c9253bcc049159e6b463a309effffffff4f4ac1e548d8331f977bd55c62d12263c42d4f8393e99b25a7c932f76f162ecc000000006b4830450221008006e8c2a267429b0a59714c061c07fdf2e6ed2bfb0a35ec22c32a7405179daa02202bb17df8dcfa604fb1d421fe5ab629cabb44f21694e11f0f84f8cb8e7205a09a01210245898bced9c589561f62784be415ea030657a20c9253bcc049159e6b463a309effffffff02feb70100000000001976a914b7ae4063a903a7c1844e380e13b64d83020a884e88ac40420f000000000017a91430a2f2a3ff822afef9453b8fda000cfcc62938288700000000", "vin": [{"sequence": 4294967295, "scriptSig": {"hex": "4830450221009fd92a969ae0317ef7fc4f3159b2b76425607f7030022d6429cbc467561394a3022064bc6dca83279d55d4329c59cfee5b221ec996a5efb09eb6eb75bf980068fd7f01210245898bced9c589561f62784be415ea030657a20c9253bcc049159e6b463a309e", "asm": "30450221009fd92a969ae0317ef7fc4f3159b2b76425607f7030022d6429cbc467561394a3022064bc6dca83279d55d4329c59cfee5b221ec996a5efb09eb6eb75bf980068fd7f[ALL] 0245898bced9c589561f62784be415ea030657a20c9253bcc049159e6b463a309e"}, "vout": 0, "txid": "0bce49838b2babc6bf8d08cceae95276e3f5d3dc081a09cdb3580303ed72ab33"}, {"sequence": 4294967295, "scriptSig": {"hex": "4730440220407add2b80409d27c3a8c81917ee5dff6fc8befaadf776741c1578284fee330002204cf0cda7b97c906597d999498ce86652d6b2eaed304c836c1bf0ff6ec15652a601210245898bced9c589561f62784be415ea030657a20c9253bcc049159e6b463a309e", "asm": "30440220407add2b80409d27c3a8c81917ee5dff6fc8befaadf776741c1578284fee330002204cf0cda7b97c906597d999498ce86652d6b2eaed304c836c1bf0ff6ec15652a6[ALL] 0245898bced9c589561f62784be415ea030657a20c9253bcc049159e6b463a309e"}, "vout": 0, "txid": "6b7e5fad042b2483480c4444bbd66e7b817da461257c1a9d59d2296390b38818"}, {"sequence": 4294967295, "scriptSig": {"hex": "473044022032b60ef9baa5bae896bf3b300880ee91002a5dbfe7766d21e76270c87d880231022060ef05c9399da73ac2560095d4721f00606914cb277043102d9ba85c2d4caa3601210245898bced9c589561f62784be415ea030657a20c9253bcc049159e6b463a309e", "asm": "3044022032b60ef9baa5bae896bf3b300880ee91002a5dbfe7766d21e76270c87d880231022060ef05c9399da73ac2560095d4721f00606914cb277043102d9ba85c2d4caa36[ALL] 0245898bced9c589561f62784be415ea030657a20c9253bcc049159e6b463a309e"}, "vout": 0, "txid": "a1aa1f2e6fead5fe2c211126ba9c2a70f7850556e01459bcfb5df3cab8b720b3"}, {"sequence": 4294967295, "scriptSig": {"hex": "483045022100af65d598a6063f3433b767f2b600e87a2b6a76582e2d1a6bd527e9838e23747302200e818acfb51be6c26a56410f01c96ae2ed54e26b89a4bf6bad5b4969c941385d01210245898bced9c589561f62784be415ea030657a20c9253bcc049159e6b463a309e", "asm": "3045022100af65d598a6063f3433b767f2b600e87a2b6a76582e2d1a6bd527e9838e23747302200e818acfb51be6c26a56410f01c96ae2ed54e26b89a4bf6bad5b4969c941385d[ALL] 0245898bced9c589561f62784be415ea030657a20c9253bcc049159e6b463a309e"}, "vout": 0, "txid": "bbd8d7b5ad76975db386f893a10152f4b52f99ed8a3a401f934f66cf3ffa5b58"}, {"sequence": 4294967295, "scriptSig": {"hex": "4830450221008006e8c2a267429b0a59714c061c07fdf2e6ed2bfb0a35ec22c32a7405179daa02202bb17df8dcfa604fb1d421fe5ab629cabb44f21694e11f0f84f8cb8e7205a09a01210245898bced9c589561f62784be415ea030657a20c9253bcc049159e6b463a309e", "asm": "30450221008006e8c2a267429b0a59714c061c07fdf2e6ed2bfb0a35ec22c32a7405179daa02202bb17df8dcfa604fb1d421fe5ab629cabb44f21694e11f0f84f8cb8e7205a09a[ALL] 0245898bced9c589561f62784be415ea030657a20c9253bcc049159e6b463a309e"}, "vout": 0, "txid": "cc2e166ff732c9a7259be993834f2dc46322d1625cd57b971f33d848e5c14a4f"}], "txid": "83454cdd1c7a48d28939f00d21910e67b52dfbc9a153ca50241d3a1eaa2f86b5", "blocktime": 1537876114, "version": 1, "confirmations": 11460, "time": 1537876114, "locktime": 0, "vsize": 814, "size": 814}