{"hash": "83495da1b22a875fbc6eb165cebd9cb84826ebb2a11b380de6858233d3a2d4fe", "blockhash": "00000000000000000004ffacab907a6b429b9a5745fa0b75af4234bf69dd7176", "vout": [{"scriptPubKey": {"reqSigs": 1, "hex": "a91404a761be869c278ccaf2540222a4160779d3268e87", "addresses": ["327d9CkMV5KpcFngsaXbZgHb6ot62tJE4S"], "asm": "OP_HASH160 04a761be869c278ccaf2540222a4160779d3268e OP_EQUAL", "type": "scripthash"}, "value": 0.00102923, "n": 0}, {"scriptPubKey": {"reqSigs": 1, "hex": "76a914e980406100f1b02d9023620d15858ca5a5fb144c88ac", "addresses": ["1NHe5mQK8w5uu6QxqnWsd6M8fPLPiYGWzA"], "asm": "OP_DUP OP_HASH160 e980406100f1b02d9023620d15858ca5a5fb144c OP_EQUALVERIFY OP_CHECKSIG", "type": "pubkeyhash"}, "value": 0.07467086, "n": 1}], "hex": "01000000010f274cbf6704bd857d1a89a6a6485d1d32a082293a2c3199e72e2db7b7cbb0b5010000006b483045022100ca4879f5378bc0c71cb4768ffaf95d1e8249af719944fa128ffb5a1fa22228a402201a726f808dbdf10bedf3794c2333a1c3398476e0cf3489f774e93745288cfc7a012103ad603f5d3610dce0c476cc5ff31b70d340cb842f4285d362fdb63d990e4c8e16ffffffff020b9201000000000017a91404a761be869c278ccaf2540222a4160779d3268e874ef07100000000001976a914e980406100f1b02d9023620d15858ca5a5fb144c88ac00000000", "vin": [{"sequence": 4294967295, "scriptSig": {"hex": "483045022100ca4879f5378bc0c71cb4768ffaf95d1e8249af719944fa128ffb5a1fa22228a402201a726f808dbdf10bedf3794c2333a1c3398476e0cf3489f774e93745288cfc7a012103ad603f5d3610dce0c476cc5ff31b70d340cb842f4285d362fdb63d990e4c8e16", "asm": "3045022100ca4879f5378bc0c71cb4768ffaf95d1e8249af719944fa128ffb5a1fa22228a402201a726f808dbdf10bedf3794c2333a1c3398476e0cf3489f774e93745288cfc7a[ALL] 03ad603f5d3610dce0c476cc5ff31b70d340cb842f4285d362fdb63d990e4c8e16"}, "vout": 1, "txid": "b5b0cbb7b72d2ee799312c3a2982a0321d5d48a6a6891a7d85bd0467bf4c270f"}], "txid": "83495da1b22a875fbc6eb165cebd9cb84826ebb2a11b380de6858233d3a2d4fe", "blocktime": 1537875543, "version": 1, "confirmations": 11464, "time": 1537875543, "locktime": 0, "vsize": 224, "size": 224}