{"hash": "834e22bd0cce58e404412f310bbcefdfeb9c60f14c5588118098f34b99cd55fd", "blockhash": "0000000000000000001f0ddff1eddb255c1121bcd4da4f1bc9a0da00cae72433", "vout": [{"scriptPubKey": {"reqSigs": 1, "hex": "76a91483317662b0d1aad213999f3cfa5da46c8132f5fc88ac", "addresses": ["1CxgmqknYXN6QRVfrdToy6N84nsbsdHVYN"], "asm": "OP_DUP OP_HASH160 83317662b0d1aad213999f3cfa5da46c8132f5fc OP_EQUALVERIFY OP_CHECKSIG", "type": "pubkeyhash"}, "value": 0.001664, "n": 0}, {"scriptPubKey": {"reqSigs": 1, "hex": "a9140e0fd5bc2de8b703abb913b3e946420cba1e937f87", "addresses": ["32yNMTVy4uRksHB6v5merDYg2GcVTZVDqs"], "asm": "OP_HASH160 0e0fd5bc2de8b703abb913b3e946420cba1e937f OP_EQUAL", "type": "scripthash"}, "value": 0.07799, "n": 1}], "hex": "0100000003eee41687d63f0f0585bcb88f861444c34fc1d7720a3f229d1df3a1ac4c699f20000000006a47304402203b755b6e66615b0de50bff841bfa6a710d8c342fa8e4a1f51d0fd17bf0d00b3302204b4c8aebe36efe3869a0f78e157406164868cbb1357c7390786ffd5a3f698443012102f621ed2d0313e0cac0cfe496185bb63f613cf58d0c41259062fd2e8e59966ec0feffffff4458317bf60ceb2c167b88db4c166ff8941c5cbc17f93295100dbf49ae217fad000000006a47304402204b72a8a86474dfcf652dbd996ce1249a5de8ccd598cce836dec348721c56b68c02206403edf43af8d9f15fc9e1b1fe5c9857cc96f190dcdc03d119431afa6b29be7101210294af6f66dad38f6c85f8af0b0d32b4c9e7cf0be3148e140ab2338adadf7af11cfeffffff5560089ebcbaedfbd2df8de2bb8ba6b1d2fc25bad91cc97e8d453e538149e1c8090000006a47304402200df3c96b6815b18fa27b8e39999c7f5304ca09d4fdc33bbaf9d14f46914588b002205cf27688d8a453b378977c49e1a27dd491eef9af4ccf78a1182d13e2e60767b201210371dffe9e3348b04ba2986e4fbb6c4f47fc27c5c772aebb0c6b97e8798906a388feffffff02008a0200000000001976a91483317662b0d1aad213999f3cfa5da46c8132f5fc88acd80077000000000017a9140e0fd5bc2de8b703abb913b3e946420cba1e937f8711490800", "vin": [{"sequence": 4294967294, "scriptSig": {"hex": "47304402203b755b6e66615b0de50bff841bfa6a710d8c342fa8e4a1f51d0fd17bf0d00b3302204b4c8aebe36efe3869a0f78e157406164868cbb1357c7390786ffd5a3f698443012102f621ed2d0313e0cac0cfe496185bb63f613cf58d0c41259062fd2e8e59966ec0", "asm": "304402203b755b6e66615b0de50bff841bfa6a710d8c342fa8e4a1f51d0fd17bf0d00b3302204b4c8aebe36efe3869a0f78e157406164868cbb1357c7390786ffd5a3f698443[ALL] 02f621ed2d0313e0cac0cfe496185bb63f613cf58d0c41259062fd2e8e59966ec0"}, "vout": 0, "txid": "209f694caca1f31d9d223f0a72d7c14fc34414868fb8bc85050f3fd68716e4ee"}, {"sequence": 4294967294, "scriptSig": {"hex": "47304402204b72a8a86474dfcf652dbd996ce1249a5de8ccd598cce836dec348721c56b68c02206403edf43af8d9f15fc9e1b1fe5c9857cc96f190dcdc03d119431afa6b29be7101210294af6f66dad38f6c85f8af0b0d32b4c9e7cf0be3148e140ab2338adadf7af11c", "asm": "304402204b72a8a86474dfcf652dbd996ce1249a5de8ccd598cce836dec348721c56b68c02206403edf43af8d9f15fc9e1b1fe5c9857cc96f190dcdc03d119431afa6b29be71[ALL] 0294af6f66dad38f6c85f8af0b0d32b4c9e7cf0be3148e140ab2338adadf7af11c"}, "vout": 0, "txid": "ad7f21ae49bf0d109532f917bc5c1c94f86f164cdb887b162ceb0cf67b315844"}, {"sequence": 4294967294, "scriptSig": {"hex": "47304402200df3c96b6815b18fa27b8e39999c7f5304ca09d4fdc33bbaf9d14f46914588b002205cf27688d8a453b378977c49e1a27dd491eef9af4ccf78a1182d13e2e60767b201210371dffe9e3348b04ba2986e4fbb6c4f47fc27c5c772aebb0c6b97e8798906a388", "asm": "304402200df3c96b6815b18fa27b8e39999c7f5304ca09d4fdc33bbaf9d14f46914588b002205cf27688d8a453b378977c49e1a27dd491eef9af4ccf78a1182d13e2e60767b2[ALL] 0371dffe9e3348b04ba2986e4fbb6c4f47fc27c5c772aebb0c6b97e8798906a388"}, "vout": 9, "txid": "c8e14981533e458d7ec91cd9ba25fcd2b1a68bbbe28ddfd2fbedbabc9e086055"}], "txid": "834e22bd0cce58e404412f310bbcefdfeb9c60f14c5588118098f34b99cd55fd", "blocktime": 1537872018, "version": 1, "confirmations": 11489, "time": 1537872018, "locktime": 542993, "vsize": 517, "size": 517}