{"hash": "835032709ffd84e634309e9bf7bad79d6e96e905d13a6e948d7a918ee62e8027", "blockhash": "00000000000000000024a2167bbff67b0be802c0b01cdd79e6331c2be6459f87", "vout": [{"scriptPubKey": {"reqSigs": 1, "hex": "a914b60141ed8abc1188a5c31797bd3ca8739a93468b87", "addresses": ["3JHNQqBybJ2p2emN9Wsx6gMbXsxjuvU7Uf"], "asm": "OP_HASH160 b60141ed8abc1188a5c31797bd3ca8739a93468b OP_EQUAL", "type": "scripthash"}, "value": 1e-05, "n": 0}, {"scriptPubKey": {"reqSigs": 1, "hex": "76a91421fe3b8ca5d1156852052881dbcfdd474c43fb8888ac", "addresses": ["146jritMWTAeoaKweRrcPMbjoL4UrY7p5H"], "asm": "OP_DUP OP_HASH160 21fe3b8ca5d1156852052881dbcfdd474c43fb88 OP_EQUALVERIFY OP_CHECKSIG", "type": "pubkeyhash"}, "value": 0.0028426, "n": 1}], "hex": "0100000001841b51b6693c42a8f5f6d17be1aca3ac098ea9e844cc899abc2743229c791579010000006b483045022100ede522557edd494b22984b4fdac0a3a5f9214323a948adc830ce5ec9226e74eb02205126530a348e2609d17adb9b11b5439f4aa41584a6157d418f48aea53bcd3a4f012103d0b6dd12f091d498c8e46e2adbf4ee7f3f7ae36153afc352500ef0845d9cf5f6ffffffff02e80300000000000017a914b60141ed8abc1188a5c31797bd3ca8739a93468b8764560400000000001976a91421fe3b8ca5d1156852052881dbcfdd474c43fb8888ac00000000", "vin": [{"sequence": 4294967295, "scriptSig": {"hex": "483045022100ede522557edd494b22984b4fdac0a3a5f9214323a948adc830ce5ec9226e74eb02205126530a348e2609d17adb9b11b5439f4aa41584a6157d418f48aea53bcd3a4f012103d0b6dd12f091d498c8e46e2adbf4ee7f3f7ae36153afc352500ef0845d9cf5f6", "asm": "3045022100ede522557edd494b22984b4fdac0a3a5f9214323a948adc830ce5ec9226e74eb02205126530a348e2609d17adb9b11b5439f4aa41584a6157d418f48aea53bcd3a4f[ALL] 03d0b6dd12f091d498c8e46e2adbf4ee7f3f7ae36153afc352500ef0845d9cf5f6"}, "vout": 1, "txid": "7915799c224327bc9a89cc44e8a98e09aca3ace17bd1f6f5a8423c69b6511b84"}], "txid": "835032709ffd84e634309e9bf7bad79d6e96e905d13a6e948d7a918ee62e8027", "blocktime": 1537870564, "version": 1, "confirmations": 11515, "time": 1537870564, "locktime": 0, "vsize": 224, "size": 224}