{"hash": "835231b160e77cb7241c1b09021ffcc95c6e0b93290b8119ed69dc7b6429c7c0", "blockhash": "00000000000000000017f5eb5941039fbcee6240d03bc1f2f8e35350df66a1d8", "vout": [{"scriptPubKey": {"reqSigs": 1, "hex": "a91454a385c807d9d98df1064f88bf52c482501aba9c87", "addresses": ["39QYaQVLtoyasuL15KYCvtdBKcwSPDYV7o"], "asm": "OP_HASH160 54a385c807d9d98df1064f88bf52c482501aba9c OP_EQUAL", "type": "scripthash"}, "value": 0.001, "n": 0}, {"scriptPubKey": {"reqSigs": 1, "hex": "76a9140e5fb070d36e52e6c8bc3c4ae2f169b52db5badd88ac", "addresses": ["12K16HnCpPf6eSx8hJDaM9CDuQhn6NDpWr"], "asm": "OP_DUP OP_HASH160 0e5fb070d36e52e6c8bc3c4ae2f169b52db5badd OP_EQUALVERIFY OP_CHECKSIG", "type": "pubkeyhash"}, "value": 0.198988, "n": 1}], "hex": "010000000146b8a98c3869d3407debeadbc898322fa2154aa614fcc1dc38a805323a8671c7150000006b483045022100dfacd3cd9e0ad23428c5aca8c6413e5278718f476b7e2ebcb64db3e588435b1b0220398e978fb30d2c9e2e5af1017b5f06b2c38f63b67faf17727bbb456fe5069f27012103d7eabda3eaba33edcfd52f715bd5cdd216a97d8400d9c89f5314e77b9a1244f8feffffff02a08601000000000017a91454a385c807d9d98df1064f88bf52c482501aba9c87b0a12f01000000001976a9140e5fb070d36e52e6c8bc3c4ae2f169b52db5badd88ac15490800", "vin": [{"sequence": 4294967294, "scriptSig": {"hex": "483045022100dfacd3cd9e0ad23428c5aca8c6413e5278718f476b7e2ebcb64db3e588435b1b0220398e978fb30d2c9e2e5af1017b5f06b2c38f63b67faf17727bbb456fe5069f27012103d7eabda3eaba33edcfd52f715bd5cdd216a97d8400d9c89f5314e77b9a1244f8", "asm": "3045022100dfacd3cd9e0ad23428c5aca8c6413e5278718f476b7e2ebcb64db3e588435b1b0220398e978fb30d2c9e2e5af1017b5f06b2c38f63b67faf17727bbb456fe5069f27[ALL] 03d7eabda3eaba33edcfd52f715bd5cdd216a97d8400d9c89f5314e77b9a1244f8"}, "vout": 21, "txid": "c771863a3205a838dcc1fc14a64a15a22f3298c8dbeaeb7d40d369388ca9b846"}], "txid": "835231b160e77cb7241c1b09021ffcc95c6e0b93290b8119ed69dc7b6429c7c0", "blocktime": 1537874412, "version": 1, "confirmations": 11467, "time": 1537874412, "locktime": 542997, "vsize": 224, "size": 224}