{"hash": "4a6db2a8e3029fc6e19ddcbf6b9574f8a32ca6c197485681a2d38346b9efe484", "blockhash": "0000000000000000000baef3f32e3676a92c3b2e5da21b426e4f302fc371ce76", "vout": [{"scriptPubKey": {"reqSigs": 1, "hex": "76a9140a004f98488d4e8a6a8ff5db51d04c86af62402488ac", "addresses": ["1ut8XEQB2hsBN8GyDvf4Xv27cHGQUSi4s"], "asm": "OP_DUP OP_HASH160 0a004f98488d4e8a6a8ff5db51d04c86af624024 OP_EQUALVERIFY OP_CHECKSIG", "type": "pubkeyhash"}, "value": 0.00175422, "n": 0}, {"scriptPubKey": {"reqSigs": 1, "hex": "a914414cec0fc72a9410f6836edaf08de1aa3b2a321c87", "addresses": ["37eHzewnAFRR2SVZu8rZM3nBsmuE2XBU7D"], "asm": "OP_HASH160 414cec0fc72a9410f6836edaf08de1aa3b2a321c OP_EQUAL", "type": "scripthash"}, "value": 0.23492548, "n": 1}], "hex": "01000000000101b630b53d85bd99459d99e6879435bc9d5cdfe7f0d23d854fe8d4ad0b6cc29ef80100000023220020ce74cde37cfb8dd71d0179287e12fc721ee236ce3c89c2745bcd365b39807eb3ffffffff023ead0200000000001976a9140a004f98488d4e8a6a8ff5db51d04c86af62402488acc47766010000000017a914414cec0fc72a9410f6836edaf08de1aa3b2a321c870400473044022012549f83acce34bce7b348b27cba990541fbfacb1a1ab82f7226d3304a3bee45022024c8927444eda1df8c8f2ffcbe19bdf10f900f8459826165de74c3a49fcf5ce401463043022004e919a908317acf9b7a063f0182733b52d359f8ce2e5c999ad73703b78ba4b0021f7dfaa1cf286dfcd973eed7fb040080bd1dcb2cf885f778b8c7c3f8ceedcac80147522103ada901d90d5a76319a60f228e0b1bbc84b1d9a87238550bae5d5d190067b66712103871fc2ca08e6950b38867e8e6a0e94ee625223d3aa0df5c65f414c6d784467e252ae00000000", "vin": [{"txinwitness": ["", "3044022012549f83acce34bce7b348b27cba990541fbfacb1a1ab82f7226d3304a3bee45022024c8927444eda1df8c8f2ffcbe19bdf10f900f8459826165de74c3a49fcf5ce401", "3043022004e919a908317acf9b7a063f0182733b52d359f8ce2e5c999ad73703b78ba4b0021f7dfaa1cf286dfcd973eed7fb040080bd1dcb2cf885f778b8c7c3f8ceedcac801", "522103ada901d90d5a76319a60f228e0b1bbc84b1d9a87238550bae5d5d190067b66712103871fc2ca08e6950b38867e8e6a0e94ee625223d3aa0df5c65f414c6d784467e252ae"], "sequence": 4294967295, "scriptSig": {"hex": "220020ce74cde37cfb8dd71d0179287e12fc721ee236ce3c89c2745bcd365b39807eb3", "asm": "0020ce74cde37cfb8dd71d0179287e12fc721ee236ce3c89c2745bcd365b39807eb3"}, "vout": 1, "txid": "f89ec26c0badd4e84f853dd2f0e7df5c9dbc359487e6999d4599bd853db530b6"}], "txid": "835b73c7c4913ee4047ecec570cc605772c4161050430cca8c883bb1b66e3bc7", "blocktime": 1537876114, "version": 1, "confirmations": 11460, "time": 1537876114, "locktime": 0, "vsize": 207, "size": 371}