{"hash": "835d57ed786d16604d9ee9e98779c82d81571762fb177d7e54cfc9d345fc270d", "blockhash": "0000000000000000001f76057863aec43deb6fa401d9628bb513d65a8098bfab", "vout": [{"scriptPubKey": {"reqSigs": 1, "hex": "76a9144843bf284897795db893ff01b12645d0b2e6c85c88ac", "addresses": ["17b6owGQNVbtEi24CiadbnAEvUtdUkBE8Y"], "asm": "OP_DUP OP_HASH160 4843bf284897795db893ff01b12645d0b2e6c85c OP_EQUALVERIFY OP_CHECKSIG", "type": "pubkeyhash"}, "value": 0.07056609, "n": 0}, {"scriptPubKey": {"reqSigs": 1, "hex": "76a91426bfe1dbd6013afecae627c03995a65fca37add288ac", "addresses": ["14XtYWAH1P2ieJWpQUpw8SiHTzFjyFZPzg"], "asm": "OP_DUP OP_HASH160 26bfe1dbd6013afecae627c03995a65fca37add2 OP_EQUALVERIFY OP_CHECKSIG", "type": "pubkeyhash"}, "value": 0.01719031, "n": 1}], "hex": "02000000064f36712df8dc841523dcda8319cb7d818b791208d22219c57d70249ce6049f7f010000006b483045022100c4d15d873dc0162bce66cba63ad5f0e45ba85fa376f322f6528034d41aa939bf02201c179f04b0a1b96b9de7c337016f5036cb47e3f31e29848e432fcde8e4af46e0012103e3bf8abb3f2789143cb4132e0c4ec85f02d9b42ff0c3655f2ff05162c9d6c378feffffff2e77f357a1d28337fd9bf808afefe2fa34cf109eac76504f55fab0e403e24216000000006b4830450221008907a577e40c0bd3149c2bef0ee5e358837f283ddaa6f31538972ded63fb873202206995055786e2e52e44a99ce48733553a3f4418c39b01ddc58dd225900f822c04012102e158d092ac7718e473d85445b0bf6b65d0512f084b25d80efff39d76c2e594cefeffffff0586dc4cb7938ef615bccc6a92bec4dda37a75ff56ebd5f900e4e99628ca4222000000006b483045022100e8d963b4524237774d991a586d457da11d68fb14616df8cfff9dabec20acf8fb022010e8d456606eb238dedb97f194c356e48e3964bc737737c7441b62b3e5e093250121020e456628190f94a50d389f399624d23a60d4a6f80af83630464a15ecc952b15afeffffff54ec839aafaa6b5f072d6304661c016ea554c0da3774ba90c99c7c424d68b155000000006a473044022053e2055c31b5b7c2c77e69da4854cbcebfe2a88ae55fae26ea5ab10800d9ea33022038c804bb953eab485258add97629c033498a7f924437381e6982bab3c83d405e01210233677c8d75db4f901b82cd9021712fc1b1f3445de2058f1f5729cc0811023724feffffffcec99321578a29c27a2358dd1ee1b968d9517f25c2d2560dedd51a8c89241e71010000006b483045022100f00cd08b74acf14a92cce9e3b9f91656ecac4f41a9a3d05ba0e568915ede284b0220694dbf3952f087ccc7e666161020bf94de2dde328a75d6fc456a67c4e91d0d7501210335c2afe4fc1ba5296da92839464d58174b97e4dfea00822fbe4c3bc0f29ef542feffffff6ea1bd09ce7d1a34f4b880d478db986cc9630845e6e7bb7cc497b394790fc8b5000000006a47304402205bc2e8d07ac1f68af340b8ff417228e795fd0b393ddd408c7c6fe2d1472d1f3f022073994179b5e80356557c79a4b26027529ed051497bffda41ca1fe0cfc217ee8a012102f3fb0377c3a28dfe630514ed7f5afce793cd1475a2860862e8f805a7a30c4470feffffff02e1ac6b00000000001976a9144843bf284897795db893ff01b12645d0b2e6c85c88acf73a1a00000000001976a91426bfe1dbd6013afecae627c03995a65fca37add288ac13490800", "vin": [{"sequence": 4294967294, "scriptSig": {"hex": "483045022100c4d15d873dc0162bce66cba63ad5f0e45ba85fa376f322f6528034d41aa939bf02201c179f04b0a1b96b9de7c337016f5036cb47e3f31e29848e432fcde8e4af46e0012103e3bf8abb3f2789143cb4132e0c4ec85f02d9b42ff0c3655f2ff05162c9d6c378", "asm": "3045022100c4d15d873dc0162bce66cba63ad5f0e45ba85fa376f322f6528034d41aa939bf02201c179f04b0a1b96b9de7c337016f5036cb47e3f31e29848e432fcde8e4af46e0[ALL] 03e3bf8abb3f2789143cb4132e0c4ec85f02d9b42ff0c3655f2ff05162c9d6c378"}, "vout": 1, "txid": "7f9f04e69c24707dc51922d20812798b817dcb1983dadc231584dcf82d71364f"}, {"sequence": 4294967294, "scriptSig": {"hex": "4830450221008907a577e40c0bd3149c2bef0ee5e358837f283ddaa6f31538972ded63fb873202206995055786e2e52e44a99ce48733553a3f4418c39b01ddc58dd225900f822c04012102e158d092ac7718e473d85445b0bf6b65d0512f084b25d80efff39d76c2e594ce", "asm": "30450221008907a577e40c0bd3149c2bef0ee5e358837f283ddaa6f31538972ded63fb873202206995055786e2e52e44a99ce48733553a3f4418c39b01ddc58dd225900f822c04[ALL] 02e158d092ac7718e473d85445b0bf6b65d0512f084b25d80efff39d76c2e594ce"}, "vout": 0, "txid": "1642e203e4b0fa554f5076ac9e10cf34fae2efaf08f89bfd3783d2a157f3772e"}, {"sequence": 4294967294, "scriptSig": {"hex": "483045022100e8d963b4524237774d991a586d457da11d68fb14616df8cfff9dabec20acf8fb022010e8d456606eb238dedb97f194c356e48e3964bc737737c7441b62b3e5e093250121020e456628190f94a50d389f399624d23a60d4a6f80af83630464a15ecc952b15a", "asm": "3045022100e8d963b4524237774d991a586d457da11d68fb14616df8cfff9dabec20acf8fb022010e8d456606eb238dedb97f194c356e48e3964bc737737c7441b62b3e5e09325[ALL] 020e456628190f94a50d389f399624d23a60d4a6f80af83630464a15ecc952b15a"}, "vout": 0, "txid": "2242ca2896e9e400f9d5eb56ff757aa3ddc4be926accbc15f68e93b74cdc8605"}, {"sequence": 4294967294, "scriptSig": {"hex": "473044022053e2055c31b5b7c2c77e69da4854cbcebfe2a88ae55fae26ea5ab10800d9ea33022038c804bb953eab485258add97629c033498a7f924437381e6982bab3c83d405e01210233677c8d75db4f901b82cd9021712fc1b1f3445de2058f1f5729cc0811023724", "asm": "3044022053e2055c31b5b7c2c77e69da4854cbcebfe2a88ae55fae26ea5ab10800d9ea33022038c804bb953eab485258add97629c033498a7f924437381e6982bab3c83d405e[ALL] 0233677c8d75db4f901b82cd9021712fc1b1f3445de2058f1f5729cc0811023724"}, "vout": 0, "txid": "55b1684d427c9cc990ba7437dac054a56e011c6604632d075f6baaaf9a83ec54"}, {"sequence": 4294967294, "scriptSig": {"hex": "483045022100f00cd08b74acf14a92cce9e3b9f91656ecac4f41a9a3d05ba0e568915ede284b0220694dbf3952f087ccc7e666161020bf94de2dde328a75d6fc456a67c4e91d0d7501210335c2afe4fc1ba5296da92839464d58174b97e4dfea00822fbe4c3bc0f29ef542", "asm": "3045022100f00cd08b74acf14a92cce9e3b9f91656ecac4f41a9a3d05ba0e568915ede284b0220694dbf3952f087ccc7e666161020bf94de2dde328a75d6fc456a67c4e91d0d75[ALL] 0335c2afe4fc1ba5296da92839464d58174b97e4dfea00822fbe4c3bc0f29ef542"}, "vout": 1, "txid": "711e24898c1ad5ed0d56d2c2257f51d968b9e11edd58237ac2298a572193c9ce"}, {"sequence": 4294967294, "scriptSig": {"hex": "47304402205bc2e8d07ac1f68af340b8ff417228e795fd0b393ddd408c7c6fe2d1472d1f3f022073994179b5e80356557c79a4b26027529ed051497bffda41ca1fe0cfc217ee8a012102f3fb0377c3a28dfe630514ed7f5afce793cd1475a2860862e8f805a7a30c4470", "asm": "304402205bc2e8d07ac1f68af340b8ff417228e795fd0b393ddd408c7c6fe2d1472d1f3f022073994179b5e80356557c79a4b26027529ed051497bffda41ca1fe0cfc217ee8a[ALL] 02f3fb0377c3a28dfe630514ed7f5afce793cd1475a2860862e8f805a7a30c4470"}, "vout": 0, "txid": "b5c80f7994b397c47cbbe7e6450863c96c98db78d480b8f4341a7dce09bda16e"}], "txid": "835d57ed786d16604d9ee9e98779c82d81571762fb177d7e54cfc9d345fc270d", "blocktime": 1537873891, "version": 2, "confirmations": 11478, "time": 1537873891, "locktime": 542995, "vsize": 964, "size": 964}