{"hash": "8369a44442718291ec3c2bfcdcf2acfcd5b6253c2e8cf0f43b21b15a81b913e6", "blockhash": "0000000000000000001cda96e906b7601b7a6fb1a3b62bca570a9e5d8f4b3de1", "vout": [{"scriptPubKey": {"reqSigs": 1, "hex": "76a914e8b8bb764f74c35e0835e7e299003178532fe9c388ac", "addresses": ["1NDX4vq3skE7zrkaoDQT2XHyGFyhwW6xmP"], "asm": "OP_DUP OP_HASH160 e8b8bb764f74c35e0835e7e299003178532fe9c3 OP_EQUALVERIFY OP_CHECKSIG", "type": "pubkeyhash"}, "value": 100.0, "n": 0}, {"scriptPubKey": {"reqSigs": 1, "hex": "76a914eb97a5ae0bf35b8e0a90dd04032062406a64944a88ac", "addresses": ["1NUhTiGDeVvynMvrfasvMq8BZtUFaCrXzD"], "asm": "OP_DUP OP_HASH160 eb97a5ae0bf35b8e0a90dd04032062406a64944a OP_EQUALVERIFY OP_CHECKSIG", "type": "pubkeyhash"}, "value": 64.99993898, "n": 1}], "hex": "0100000001963a69c8f65c420e11c64c5786500609d5988d18690876a2074d17923c9617e0010000006b4830450221009e2aba7d6e9c1e4ad7449e8f62503704a4a8de472ad85c601be1c94b3ad19c850220411b9c121de85254251d04e4e04c6a5ea0d7edf9de63b02141c55b6a7ccab2bd01210287b5b984ad335eda439ef0eeae8fbd57d0ab2fd88b5a0fbac250b9024d676cedffffffff0200e40b54020000001976a914e8b8bb764f74c35e0835e7e299003178532fe9c388ac2a096e83010000001976a914eb97a5ae0bf35b8e0a90dd04032062406a64944a88ac00000000", "vin": [{"sequence": 4294967295, "scriptSig": {"hex": "4830450221009e2aba7d6e9c1e4ad7449e8f62503704a4a8de472ad85c601be1c94b3ad19c850220411b9c121de85254251d04e4e04c6a5ea0d7edf9de63b02141c55b6a7ccab2bd01210287b5b984ad335eda439ef0eeae8fbd57d0ab2fd88b5a0fbac250b9024d676ced", "asm": "30450221009e2aba7d6e9c1e4ad7449e8f62503704a4a8de472ad85c601be1c94b3ad19c850220411b9c121de85254251d04e4e04c6a5ea0d7edf9de63b02141c55b6a7ccab2bd[ALL] 0287b5b984ad335eda439ef0eeae8fbd57d0ab2fd88b5a0fbac250b9024d676ced"}, "vout": 1, "txid": "e017963c92174d07a2760869188d98d509065086574cc6110e425cf6c8693a96"}], "txid": "8369a44442718291ec3c2bfcdcf2acfcd5b6253c2e8cf0f43b21b15a81b913e6", "blocktime": 1537873282, "version": 1, "confirmations": 11485, "time": 1537873282, "locktime": 0, "vsize": 226, "size": 226}