{"hash": "8370a04a27b468a9e078c9685a43198c811a65bd6d6a0a2d28a7be270a862c52", "blockhash": "0000000000000000000e13cef7c366c0283d82e591d1acd082e914b08063cdf1", "vout": [{"scriptPubKey": {"reqSigs": 1, "hex": "a914857417ae6e6b961781162090b26d28b7acae314e87", "addresses": ["3DresJhF64vEzJbw5fUDMxRvMBhguB6Exx"], "asm": "OP_HASH160 857417ae6e6b961781162090b26d28b7acae314e OP_EQUAL", "type": "scripthash"}, "value": 0.02569286, "n": 0}, {"scriptPubKey": {"reqSigs": 1, "hex": "76a914c9a1306287dd187d62bd9b36288a21cc048b201b88ac", "addresses": ["1KP7vAe9wN88CkMZEHtW2qSmeh65w613Qa"], "asm": "OP_DUP OP_HASH160 c9a1306287dd187d62bd9b36288a21cc048b201b OP_EQUALVERIFY OP_CHECKSIG", "type": "pubkeyhash"}, "value": 0.0025903, "n": 1}], "hex": "01000000036114db8ed616cf1510464c9a68fdc7282ce9201b1403d9c3d9d9d69599e4b3e200000000d90047304402205447bee8655f764a3a3dd21eea014bb786f1da3b526c5bb7ec919f87febbdda50220751c7e544a55fc4078a66c724702fa8066904a0dca0d3f9192b7044ae9f54eb90147304402205749e979ad56137b66658c742575555a70ddd4ef9a4f4748ad465989adc3695802201e5e389e6eaa6d06cd0e40475a1ebdd198b58243ccafac8b31734c1f51bd7f4a0147522102907a54bed8ad74b3f35638c60114ca240a308cb986f3f2f306178869a8880b61210364de73c83c024769848257857ffb8381825022c6887b4dc932a9bdfc501f7f5652aeffffffff8d6b3e8b054c39906ccbb4ad1bc163bfdb8a939c07d39b220319a7447dac2d8400000000d90047304402207403be1630ec946af7ac8b0ca90599dd6715291529432524592a4b0c891b5d0102202aee8bdce8919fefb8b43b6f301d446ba3f9fbc360dfc8adb783d0a00e4c54340147304402202db1756e25c1a2702c4cc1e2a815d9510ebfe343a84502ff90426b92bd2c515f02201b774c3f539f1bc4c093a577d77d79f16586db12e70ed1dd5ab3c27b47fd4e470147522102907a54bed8ad74b3f35638c60114ca240a308cb986f3f2f306178869a8880b612102e8c64da940df3a399a7403a4b86d1cfecefc0236f9e7d9478e70f587ab3c760852aeffffffff2017564a892da37f8d4b9550486374a1b9d4ae6e7fbed1f8c7a99ba63dd681f000000000db00483045022100faf04682f0a2d0321bff4d03cd2c5c3ff46cfa2cb2204ce61cf853161e0ca862022072036facc18a4754473071629a9077f08a34b5dad063937b774891ba19b4e6b2014830450221009d739b9be399a200037e0d02ac256ac66dac4488cdb9c903388c68579bc117da02205271557bbb4faf86f0d7c4f146804c5a91d1747634610b08bfc868d9e5788e5001475221022734903364c47c5246b2235997b5f2ce3e3b8cc5a8627209a0ffae351cbf02ff2102907a54bed8ad74b3f35638c60114ca240a308cb986f3f2f306178869a8880b6152aeffffffff02463427000000000017a914857417ae6e6b961781162090b26d28b7acae314e87d6f30300000000001976a914c9a1306287dd187d62bd9b36288a21cc048b201b88ac00000000", "vin": [{"sequence": 4294967295, "scriptSig": {"hex": "0047304402205447bee8655f764a3a3dd21eea014bb786f1da3b526c5bb7ec919f87febbdda50220751c7e544a55fc4078a66c724702fa8066904a0dca0d3f9192b7044ae9f54eb90147304402205749e979ad56137b66658c742575555a70ddd4ef9a4f4748ad465989adc3695802201e5e389e6eaa6d06cd0e40475a1ebdd198b58243ccafac8b31734c1f51bd7f4a0147522102907a54bed8ad74b3f35638c60114ca240a308cb986f3f2f306178869a8880b61210364de73c83c024769848257857ffb8381825022c6887b4dc932a9bdfc501f7f5652ae", "asm": "0 304402205447bee8655f764a3a3dd21eea014bb786f1da3b526c5bb7ec919f87febbdda50220751c7e544a55fc4078a66c724702fa8066904a0dca0d3f9192b7044ae9f54eb9[ALL] 304402205749e979ad56137b66658c742575555a70ddd4ef9a4f4748ad465989adc3695802201e5e389e6eaa6d06cd0e40475a1ebdd198b58243ccafac8b31734c1f51bd7f4a[ALL] 522102907a54bed8ad74b3f35638c60114ca240a308cb986f3f2f306178869a8880b61210364de73c83c024769848257857ffb8381825022c6887b4dc932a9bdfc501f7f5652ae"}, "vout": 0, "txid": "e2b3e49995d6d9d9c3d903141b20e92c28c7fd689a4c461015cf16d68edb1461"}, {"sequence": 4294967295, "scriptSig": {"hex": "0047304402207403be1630ec946af7ac8b0ca90599dd6715291529432524592a4b0c891b5d0102202aee8bdce8919fefb8b43b6f301d446ba3f9fbc360dfc8adb783d0a00e4c54340147304402202db1756e25c1a2702c4cc1e2a815d9510ebfe343a84502ff90426b92bd2c515f02201b774c3f539f1bc4c093a577d77d79f16586db12e70ed1dd5ab3c27b47fd4e470147522102907a54bed8ad74b3f35638c60114ca240a308cb986f3f2f306178869a8880b612102e8c64da940df3a399a7403a4b86d1cfecefc0236f9e7d9478e70f587ab3c760852ae", "asm": "0 304402207403be1630ec946af7ac8b0ca90599dd6715291529432524592a4b0c891b5d0102202aee8bdce8919fefb8b43b6f301d446ba3f9fbc360dfc8adb783d0a00e4c5434[ALL] 304402202db1756e25c1a2702c4cc1e2a815d9510ebfe343a84502ff90426b92bd2c515f02201b774c3f539f1bc4c093a577d77d79f16586db12e70ed1dd5ab3c27b47fd4e47[ALL] 522102907a54bed8ad74b3f35638c60114ca240a308cb986f3f2f306178869a8880b612102e8c64da940df3a399a7403a4b86d1cfecefc0236f9e7d9478e70f587ab3c760852ae"}, "vout": 0, "txid": "842dac7d44a71903229bd3079c938adbbf63c11badb4cb6c90394c058b3e6b8d"}, {"sequence": 4294967295, "scriptSig": {"hex": "00483045022100faf04682f0a2d0321bff4d03cd2c5c3ff46cfa2cb2204ce61cf853161e0ca862022072036facc18a4754473071629a9077f08a34b5dad063937b774891ba19b4e6b2014830450221009d739b9be399a200037e0d02ac256ac66dac4488cdb9c903388c68579bc117da02205271557bbb4faf86f0d7c4f146804c5a91d1747634610b08bfc868d9e5788e5001475221022734903364c47c5246b2235997b5f2ce3e3b8cc5a8627209a0ffae351cbf02ff2102907a54bed8ad74b3f35638c60114ca240a308cb986f3f2f306178869a8880b6152ae", "asm": "0 3045022100faf04682f0a2d0321bff4d03cd2c5c3ff46cfa2cb2204ce61cf853161e0ca862022072036facc18a4754473071629a9077f08a34b5dad063937b774891ba19b4e6b2[ALL] 30450221009d739b9be399a200037e0d02ac256ac66dac4488cdb9c903388c68579bc117da02205271557bbb4faf86f0d7c4f146804c5a91d1747634610b08bfc868d9e5788e50[ALL] 5221022734903364c47c5246b2235997b5f2ce3e3b8cc5a8627209a0ffae351cbf02ff2102907a54bed8ad74b3f35638c60114ca240a308cb986f3f2f306178869a8880b6152ae"}, "vout": 0, "txid": "f081d63da69ba9c7f8d1be7f6eaed4b9a174634850954b8d7fa32d894a561720"}], "txid": "8370a04a27b468a9e078c9685a43198c811a65bd6d6a0a2d28a7be270a862c52", "blocktime": 1537871767, "version": 1, "confirmations": 11495, "time": 1537871767, "locktime": 0, "vsize": 852, "size": 852}