{"hash": "8372af39fe1269aa1f0e64c3b8dcdb530a4f63f38284ab29c2385c3193cc86c0", "blockhash": "00000000000000000017f5eb5941039fbcee6240d03bc1f2f8e35350df66a1d8", "vout": [{"scriptPubKey": {"reqSigs": 1, "hex": "a9141974dacd6ca3504c5cb3c12d4dd9de56772f499487", "addresses": ["341coYdgR83pXMWedydmAgAV9EAi8dLzdD"], "asm": "OP_HASH160 1974dacd6ca3504c5cb3c12d4dd9de56772f4994 OP_EQUAL", "type": "scripthash"}, "value": 0.255443, "n": 0}, {"scriptPubKey": {"reqSigs": 1, "hex": "76a914a799138210fe5bc8c5a47427cf3c357666529b1788ac", "addresses": ["1GHBDxVWyWttW9qFdf1Emgz3MRQhf77Drd"], "asm": "OP_DUP OP_HASH160 a799138210fe5bc8c5a47427cf3c357666529b17 OP_EQUALVERIFY OP_CHECKSIG", "type": "pubkeyhash"}, "value": 12.0070777, "n": 1}], "hex": "0100000001a84eacf5fcf212b54b62acd0f4cf11b2d3c322a13e3e05f7d1f9278979023c20010000008a4730440220726f548dc7944d8b1da57a00e0ce1cff122746443d9920ae5d833c4c5b39898902203ea0845e576eee6033683dc845396401d501937274436661dea31caa0578dc1d014104a30e2037100d8fdde70cf95150c21c17317e3d41bda9506b9ec5a7fe4c0de829a612a568acc590b0c7d8b6eb840f9d599f7c7eb7c2a20d2e207fbe5751d9986dfdffffff026cc685010000000017a9141974dacd6ca3504c5cb3c12d4dd9de56772f499487ba589147000000001976a914a799138210fe5bc8c5a47427cf3c357666529b1788ac15490800", "vin": [{"sequence": 4294967293, "scriptSig": {"hex": "4730440220726f548dc7944d8b1da57a00e0ce1cff122746443d9920ae5d833c4c5b39898902203ea0845e576eee6033683dc845396401d501937274436661dea31caa0578dc1d014104a30e2037100d8fdde70cf95150c21c17317e3d41bda9506b9ec5a7fe4c0de829a612a568acc590b0c7d8b6eb840f9d599f7c7eb7c2a20d2e207fbe5751d9986d", "asm": "30440220726f548dc7944d8b1da57a00e0ce1cff122746443d9920ae5d833c4c5b39898902203ea0845e576eee6033683dc845396401d501937274436661dea31caa0578dc1d[ALL] 04a30e2037100d8fdde70cf95150c21c17317e3d41bda9506b9ec5a7fe4c0de829a612a568acc590b0c7d8b6eb840f9d599f7c7eb7c2a20d2e207fbe5751d9986d"}, "vout": 1, "txid": "203c02798927f9d1f7053e3ea122c3d3b211cff4d0ac624bb512f2fcf5ac4ea8"}], "txid": "8372af39fe1269aa1f0e64c3b8dcdb530a4f63f38284ab29c2385c3193cc86c0", "blocktime": 1537874412, "version": 1, "confirmations": 11467, "time": 1537874412, "locktime": 542997, "vsize": 255, "size": 255}