{"hash": "252c7aeaf520877d9f3b3b74780c6cf4a2c178e9eedea9ac1608068b9b597df6", "blockhash": "00000000000000000024a2167bbff67b0be802c0b01cdd79e6331c2be6459f87", "vout": [{"scriptPubKey": {"reqSigs": 1, "hex": "0014929e51e40456eb78f40a1b21e19715d876de83a2", "addresses": ["bc1qj209reqy2m4h3aq2rvs7r9c4mpmdaqaz6hfv3p"], "asm": "0 929e51e40456eb78f40a1b21e19715d876de83a2", "type": "witness_v0_keyhash"}, "value": 1.124e-05, "n": 0}, {"scriptPubKey": {"reqSigs": 1, "hex": "a9142ca8f0568d71505f4a6256e0049e5acf0070fcbd87", "addresses": ["35mA34Pro14SWWGRS7W8T8ND7BtQBGG4C2"], "asm": "OP_HASH160 2ca8f0568d71505f4a6256e0049e5acf0070fcbd OP_EQUAL", "type": "scripthash"}, "value": 0.0002964, "n": 1}], "hex": "01000000000101b654a0649405e04a8fe00034497c0ba3deb20ac86d00cbbb0781ab0ddf3b9c6b0000000000ffffffff026404000000000000160014929e51e40456eb78f40a1b21e19715d876de83a2c87300000000000017a9142ca8f0568d71505f4a6256e0049e5acf0070fcbd8702483045022100a9d21182d9011d48930e8608855727467f5383811d45127a2ccd57ede05fc8c8022051a9907a1acf50732c83cd5ea9d792bcd4bf12269746008a75efabc5a665bd5c0121027645615b9ded76ac1f544ae01cb5c7e670b9c6abb278a98ade287ee9666da52800000000", "vin": [{"txinwitness": ["3045022100a9d21182d9011d48930e8608855727467f5383811d45127a2ccd57ede05fc8c8022051a9907a1acf50732c83cd5ea9d792bcd4bf12269746008a75efabc5a665bd5c01", "027645615b9ded76ac1f544ae01cb5c7e670b9c6abb278a98ade287ee9666da528"], "sequence": 4294967295, "scriptSig": {"hex": "", "asm": ""}, "vout": 0, "txid": "6b9c3bdf0dab8107bbcb006dc80ab2dea30b7c493400e08f4ae0059464a054b6"}], "txid": "83746ffb75db54bccd8a88ceadedff829661389019c678fb6a52a54aede17a09", "blocktime": 1537870564, "version": 1, "confirmations": 11515, "time": 1537870564, "locktime": 0, "vsize": 142, "size": 224}