{"hash": "83781972393ea66b8467a370d5288cd63857b3a30dcd6ec7ca89e03640e25cad", "blockhash": "0000000000000000001e0dab787dd257d1dbfcb92a98c2207d5e1078be1f4165", "vout": [{"scriptPubKey": {"reqSigs": 1, "hex": "76a9144c3bdc98f392dc370885252667f3e342b1d5d30b88ac", "addresses": ["17x64qvjexzpgu4iR1UaxDkvVs7RqvgK7K"], "asm": "OP_DUP OP_HASH160 4c3bdc98f392dc370885252667f3e342b1d5d30b OP_EQUALVERIFY OP_CHECKSIG", "type": "pubkeyhash"}, "value": 0.00025227, "n": 0}, {"scriptPubKey": {"reqSigs": 1, "hex": "76a9145964cf6c546b1763da86f40e7dfd95c696b679d488ac", "addresses": ["199fuVWu27ntVAosdG2ekR2RMkNChB6VLh"], "asm": "OP_DUP OP_HASH160 5964cf6c546b1763da86f40e7dfd95c696b679d4 OP_EQUALVERIFY OP_CHECKSIG", "type": "pubkeyhash"}, "value": 0.1640425, "n": 1}], "hex": "01000000092944d3df2016a5b4108e852f0cac59796d7c298450414fcff8b72ab2825c8f28010000006b483045022100e7dcdce3d398a63c30f72dfd1e6be40059a1ee94f02b913417a3c14cdc7e226a0220220ceac6218bc0dd01d0d872968db3b4910a5d84ea0ab162e4849d67b72402620121027bb1baad450e03e962914113ce0b0c5e21af702af848b14a7aa6e115ebf2d9c6ffffffff41fb38de7ed1957d46cec42816ab526c37690d926202d840b8a29757fdbf543d000000006a47304402201c31bdea58b464acad01291667baa7607839d3512174017daa7b1d32530331b102205bccc0fb2ecd816a2404042d9d1e9b5e9599c37c8ba3fb135fc92569263160060121027bb1baad450e03e962914113ce0b0c5e21af702af848b14a7aa6e115ebf2d9c6fffffffff9fae032f5bd88c5a50010daf130706ade34919c498c794b4a5dbee80c380e3f0a0000006a473044022066059adb7b1184cec7648aef1b8754ec4f17a2e885f104f4674d4c5e70b5a0d802201078041a9b822d05900c0592d7d8a50fcdb08bff990173069a040a771f37f98b01210259d35b5873c06e68f7a8874d95f309863a50234021995083ef0441f1215e2829fffffffffb57e63d02ddf36cc0742a5c1e2a0e0b746f386789bf5af11306efd65eef304c010000006a473044022021325ba9541b6a706643eb882c03176822ec7b62a94edbb255989b922470bd3702200ec2037e9817856803fa62c6ac8b0066e7cbd800317e3f80c3bc28ac1d58315d012102236671168714df78deba9922990cc3e259b6d90c570f9701c50a6a081ac6eb6fffffffffbfd4541cb274fc739d7467ae61bfc9a1fad3f42951489c10266880ec49515692010000006b483045022100ce6b440aaf09dfd0cf3079a066491899377d57d24579ebb4da5ea9b202b5eeab02203099f169b32a41f7e03a491492b1f4154154d5b22b966d522b18253643c538fe0121027bb1baad450e03e962914113ce0b0c5e21af702af848b14a7aa6e115ebf2d9c6ffffffff6ac08a6fef157ac63ee0685217fe0a392373908382db2adc32e9f5922cfa009c010000006b483045022100d4524d796dc604da60308e331f76f3f4de4bc46e791c5aaa35fce62ea1849c31022034a4a06f4148ee77832bc232dc67a080c699f62226f739dfa3f7783c867889d6012102236671168714df78deba9922990cc3e259b6d90c570f9701c50a6a081ac6eb6fffffffff0aad20c82dd77b367365d41b294f150f8854ec0e0a2a96c5dccb3eb0698289a4010000006b483045022100989dd68ce566f1bdf70b5dbfa8b5a71b6707c9eb3c15e851f04ae073d2dd19f602201f7275b7a3dc3a9ca2d332a5530c7b55601f3240ff3cfec469b000b7c405be9f012102236671168714df78deba9922990cc3e259b6d90c570f9701c50a6a081ac6eb6fffffffff932b7ed323e523a356471894bc7cbcb5f19976b1ecd63f378059322874893bbc000000006b483045022100fb447e000e449ed60ba5035f061c8c67f7e50c247a182a2540f424cf6cc608d702204a7188e725966f61808bd22c6b0f126e7c8a060a36ba47f081113d6111f7c4d1012103d6efca2f26cd47b87a7e8566916e93ff2b3fa85c683a9fef3afbae3b310ccde3fffffffff110d0a99183afe760105ed3206d2747b617f9c748cf28c67c827a083be38fc3030000006b483045022100871db1444d9bccff13bea8f60af4f03d868a331bdcceb6989fd2c5f69334466102204e70c9b90f21ebc3f719ab7b9b1c014a8a088b6db77477e4473117db3fda038801210259d35b5873c06e68f7a8874d95f309863a50234021995083ef0441f1215e2829ffffffff028b620000000000001976a9144c3bdc98f392dc370885252667f3e342b1d5d30b88ac1a4ffa00000000001976a9145964cf6c546b1763da86f40e7dfd95c696b679d488ac00000000", "vin": [{"sequence": 4294967295, "scriptSig": {"hex": "483045022100e7dcdce3d398a63c30f72dfd1e6be40059a1ee94f02b913417a3c14cdc7e226a0220220ceac6218bc0dd01d0d872968db3b4910a5d84ea0ab162e4849d67b72402620121027bb1baad450e03e962914113ce0b0c5e21af702af848b14a7aa6e115ebf2d9c6", "asm": "3045022100e7dcdce3d398a63c30f72dfd1e6be40059a1ee94f02b913417a3c14cdc7e226a0220220ceac6218bc0dd01d0d872968db3b4910a5d84ea0ab162e4849d67b7240262[ALL] 027bb1baad450e03e962914113ce0b0c5e21af702af848b14a7aa6e115ebf2d9c6"}, "vout": 1, "txid": "288f5c82b22ab7f8cf4f415084297c6d7959ac0c2f858e10b4a51620dfd34429"}, {"sequence": 4294967295, "scriptSig": {"hex": "47304402201c31bdea58b464acad01291667baa7607839d3512174017daa7b1d32530331b102205bccc0fb2ecd816a2404042d9d1e9b5e9599c37c8ba3fb135fc92569263160060121027bb1baad450e03e962914113ce0b0c5e21af702af848b14a7aa6e115ebf2d9c6", "asm": "304402201c31bdea58b464acad01291667baa7607839d3512174017daa7b1d32530331b102205bccc0fb2ecd816a2404042d9d1e9b5e9599c37c8ba3fb135fc9256926316006[ALL] 027bb1baad450e03e962914113ce0b0c5e21af702af848b14a7aa6e115ebf2d9c6"}, "vout": 0, "txid": "3d54bffd5797a2b840d80262920d69376c52ab1628c4ce467d95d17ede38fb41"}, {"sequence": 4294967295, "scriptSig": {"hex": "473044022066059adb7b1184cec7648aef1b8754ec4f17a2e885f104f4674d4c5e70b5a0d802201078041a9b822d05900c0592d7d8a50fcdb08bff990173069a040a771f37f98b01210259d35b5873c06e68f7a8874d95f309863a50234021995083ef0441f1215e2829", "asm": "3044022066059adb7b1184cec7648aef1b8754ec4f17a2e885f104f4674d4c5e70b5a0d802201078041a9b822d05900c0592d7d8a50fcdb08bff990173069a040a771f37f98b[ALL] 0259d35b5873c06e68f7a8874d95f309863a50234021995083ef0441f1215e2829"}, "vout": 10, "txid": "3f0e380ce8be5d4a4b798c499c9134de6a7030f1da1000a5c588bdf532e0faf9"}, {"sequence": 4294967295, "scriptSig": {"hex": "473044022021325ba9541b6a706643eb882c03176822ec7b62a94edbb255989b922470bd3702200ec2037e9817856803fa62c6ac8b0066e7cbd800317e3f80c3bc28ac1d58315d012102236671168714df78deba9922990cc3e259b6d90c570f9701c50a6a081ac6eb6f", "asm": "3044022021325ba9541b6a706643eb882c03176822ec7b62a94edbb255989b922470bd3702200ec2037e9817856803fa62c6ac8b0066e7cbd800317e3f80c3bc28ac1d58315d[ALL] 02236671168714df78deba9922990cc3e259b6d90c570f9701c50a6a081ac6eb6f"}, "vout": 1, "txid": "4c30ef5ed6ef0613f15abf8967386f740b0e2a1e5c2a74c06cf3dd023de657fb"}, {"sequence": 4294967295, "scriptSig": {"hex": "483045022100ce6b440aaf09dfd0cf3079a066491899377d57d24579ebb4da5ea9b202b5eeab02203099f169b32a41f7e03a491492b1f4154154d5b22b966d522b18253643c538fe0121027bb1baad450e03e962914113ce0b0c5e21af702af848b14a7aa6e115ebf2d9c6", "asm": "3045022100ce6b440aaf09dfd0cf3079a066491899377d57d24579ebb4da5ea9b202b5eeab02203099f169b32a41f7e03a491492b1f4154154d5b22b966d522b18253643c538fe[ALL] 027bb1baad450e03e962914113ce0b0c5e21af702af848b14a7aa6e115ebf2d9c6"}, "vout": 1, "txid": "92565149ec806826109c485129f4d3faa1c9bf61ae67749d73fc74b21c54d4bf"}, {"sequence": 4294967295, "scriptSig": {"hex": "483045022100d4524d796dc604da60308e331f76f3f4de4bc46e791c5aaa35fce62ea1849c31022034a4a06f4148ee77832bc232dc67a080c699f62226f739dfa3f7783c867889d6012102236671168714df78deba9922990cc3e259b6d90c570f9701c50a6a081ac6eb6f", "asm": "3045022100d4524d796dc604da60308e331f76f3f4de4bc46e791c5aaa35fce62ea1849c31022034a4a06f4148ee77832bc232dc67a080c699f62226f739dfa3f7783c867889d6[ALL] 02236671168714df78deba9922990cc3e259b6d90c570f9701c50a6a081ac6eb6f"}, "vout": 1, "txid": "9c00fa2c92f5e932dc2adb8283907323390afe175268e03ec67a15ef6f8ac06a"}, {"sequence": 4294967295, "scriptSig": {"hex": "483045022100989dd68ce566f1bdf70b5dbfa8b5a71b6707c9eb3c15e851f04ae073d2dd19f602201f7275b7a3dc3a9ca2d332a5530c7b55601f3240ff3cfec469b000b7c405be9f012102236671168714df78deba9922990cc3e259b6d90c570f9701c50a6a081ac6eb6f", "asm": "3045022100989dd68ce566f1bdf70b5dbfa8b5a71b6707c9eb3c15e851f04ae073d2dd19f602201f7275b7a3dc3a9ca2d332a5530c7b55601f3240ff3cfec469b000b7c405be9f[ALL] 02236671168714df78deba9922990cc3e259b6d90c570f9701c50a6a081ac6eb6f"}, "vout": 1, "txid": "a4898269b03ecbdcc5962a0a0eec54880f154f291bd46573367bd72dc820ad0a"}, {"sequence": 4294967295, "scriptSig": {"hex": "483045022100fb447e000e449ed60ba5035f061c8c67f7e50c247a182a2540f424cf6cc608d702204a7188e725966f61808bd22c6b0f126e7c8a060a36ba47f081113d6111f7c4d1012103d6efca2f26cd47b87a7e8566916e93ff2b3fa85c683a9fef3afbae3b310ccde3", "asm": "3045022100fb447e000e449ed60ba5035f061c8c67f7e50c247a182a2540f424cf6cc608d702204a7188e725966f61808bd22c6b0f126e7c8a060a36ba47f081113d6111f7c4d1[ALL] 03d6efca2f26cd47b87a7e8566916e93ff2b3fa85c683a9fef3afbae3b310ccde3"}, "vout": 0, "txid": "bc3b897428325980373fd6ecb17699f1b5bc7cbc94184756a323e523d37e2b93"}, {"sequence": 4294967295, "scriptSig": {"hex": "483045022100871db1444d9bccff13bea8f60af4f03d868a331bdcceb6989fd2c5f69334466102204e70c9b90f21ebc3f719ab7b9b1c014a8a088b6db77477e4473117db3fda038801210259d35b5873c06e68f7a8874d95f309863a50234021995083ef0441f1215e2829", "asm": "3045022100871db1444d9bccff13bea8f60af4f03d868a331bdcceb6989fd2c5f69334466102204e70c9b90f21ebc3f719ab7b9b1c014a8a088b6db77477e4473117db3fda0388[ALL] 0259d35b5873c06e68f7a8874d95f309863a50234021995083ef0441f1215e2829"}, "vout": 3, "txid": "c38fe33b087a827cc628cf48c7f917b647276d20d35e1060e7af8391a9d010f1"}], "txid": "83781972393ea66b8467a370d5288cd63857b3a30dcd6ec7ca89e03640e25cad", "blocktime": 1537872475, "version": 1, "confirmations": 11487, "time": 1537872475, "locktime": 0, "vsize": 1407, "size": 1407}