{"hash": "8378a65b101dcffab3bfb430a42da4062bd53fd77e1fd8544b9bf5463f6547dc", "blockhash": "00000000000000000017f5eb5941039fbcee6240d03bc1f2f8e35350df66a1d8", "vout": [{"scriptPubKey": {"reqSigs": 1, "hex": "76a9144ccd44248070b2a51fe9e46a090f8ea5e59e4f2488ac", "addresses": ["1816FixkC2L99TmztnjTdNEBN88Nhccoqs"], "asm": "OP_DUP OP_HASH160 4ccd44248070b2a51fe9e46a090f8ea5e59e4f24 OP_EQUALVERIFY OP_CHECKSIG", "type": "pubkeyhash"}, "value": 3.429e-05, "n": 0}, {"scriptPubKey": {"reqSigs": 1, "hex": "76a914e3253f3dfcc77ed78cafd263fcb3b8683a95ce1288ac", "addresses": ["1Mi31Wt6Avi3UUZ2GcTVpvXRkBKThwvyWV"], "asm": "OP_DUP OP_HASH160 e3253f3dfcc77ed78cafd263fcb3b8683a95ce12 OP_EQUALVERIFY OP_CHECKSIG", "type": "pubkeyhash"}, "value": 0.0016, "n": 1}], "hex": "010000000495cc4551f9444752ae48e77fd471769e1f5825ff04e5e7c2285613f44151d827000000006b48304502210094dee1fe3aa132a8e45961ec796dfbcbc1a2075cffbbace281e01fe8f1b60ea10220549fae6d81554a73a5250d675be3c3b5954b5e634600d9ec9302c56a7c27bdea01210216688bd5e3ba51b3c015cde2b9adc072959ad88668eaf937bdb07749fdd2f117ffffffff1fc4e269a3d3fde3a5020c4b1c66ccb75ea51824a3f8a6a27290c3ed7128ae2c010000006b4830450221009eccce58606337d2f94fd085052b4416e5f8f14ac6caf406a1deb965d808feb5022026d30411c2a193021b4568701ffcfbe585c8933b07a91853cf02f176ab4226b201210348a4900f6fe0676b16a0b8f7abe140b86a8d7d62dcc4f97c64eab750bfeb27fdfffffffffaa3bbf2e33bf830a95b44d23cfef81c02fbfb3bd6b317cae300e6ad0d0b1139010000006a473044022017941a6a81b1be122e5bc08cd6287a6259158406903c7609ebc23c42decb0dc102203629a41dc366bba661722d10eec1bb59dfffee731786e90ecff5123eb3014cd30121022178cddfaa9e059a654d8c0b4fea5901240ac6a827ddea635455787b9fd7bacbffffffff502897df008943b07567a61e72524a4d3c7c6075742a37455349e8560edb078b000000006b48304502210093d6db0c1f2f56c3bd11cc9da78068e7dbe9a573c8e8deb69001cb043251f667022069414dd2459e8b24968c4ae6fa8b16031b2c84e17c9a17be276e244f3cf7305b0121031a78c8241722d48fba28aaee107c177f525498c1a182302b267064b169f4e118ffffffff02650d0000000000001976a9144ccd44248070b2a51fe9e46a090f8ea5e59e4f2488ac00710200000000001976a914e3253f3dfcc77ed78cafd263fcb3b8683a95ce1288ac00000000", "vin": [{"sequence": 4294967295, "scriptSig": {"hex": "48304502210094dee1fe3aa132a8e45961ec796dfbcbc1a2075cffbbace281e01fe8f1b60ea10220549fae6d81554a73a5250d675be3c3b5954b5e634600d9ec9302c56a7c27bdea01210216688bd5e3ba51b3c015cde2b9adc072959ad88668eaf937bdb07749fdd2f117", "asm": "304502210094dee1fe3aa132a8e45961ec796dfbcbc1a2075cffbbace281e01fe8f1b60ea10220549fae6d81554a73a5250d675be3c3b5954b5e634600d9ec9302c56a7c27bdea[ALL] 0216688bd5e3ba51b3c015cde2b9adc072959ad88668eaf937bdb07749fdd2f117"}, "vout": 0, "txid": "27d85141f4135628c2e7e504ff25581f9e7671d47fe748ae524744f95145cc95"}, {"sequence": 4294967295, "scriptSig": {"hex": "4830450221009eccce58606337d2f94fd085052b4416e5f8f14ac6caf406a1deb965d808feb5022026d30411c2a193021b4568701ffcfbe585c8933b07a91853cf02f176ab4226b201210348a4900f6fe0676b16a0b8f7abe140b86a8d7d62dcc4f97c64eab750bfeb27fd", "asm": "30450221009eccce58606337d2f94fd085052b4416e5f8f14ac6caf406a1deb965d808feb5022026d30411c2a193021b4568701ffcfbe585c8933b07a91853cf02f176ab4226b2[ALL] 0348a4900f6fe0676b16a0b8f7abe140b86a8d7d62dcc4f97c64eab750bfeb27fd"}, "vout": 1, "txid": "2cae2871edc39072a2a6f8a32418a55eb7cc661c4b0c02a5e3fdd3a369e2c41f"}, {"sequence": 4294967295, "scriptSig": {"hex": "473044022017941a6a81b1be122e5bc08cd6287a6259158406903c7609ebc23c42decb0dc102203629a41dc366bba661722d10eec1bb59dfffee731786e90ecff5123eb3014cd30121022178cddfaa9e059a654d8c0b4fea5901240ac6a827ddea635455787b9fd7bacb", "asm": "3044022017941a6a81b1be122e5bc08cd6287a6259158406903c7609ebc23c42decb0dc102203629a41dc366bba661722d10eec1bb59dfffee731786e90ecff5123eb3014cd3[ALL] 022178cddfaa9e059a654d8c0b4fea5901240ac6a827ddea635455787b9fd7bacb"}, "vout": 1, "txid": "39110b0dade600e3ca17b3d63bfbfb021cf8fe3cd2445ba930f83be3f2bba3fa"}, {"sequence": 4294967295, "scriptSig": {"hex": "48304502210093d6db0c1f2f56c3bd11cc9da78068e7dbe9a573c8e8deb69001cb043251f667022069414dd2459e8b24968c4ae6fa8b16031b2c84e17c9a17be276e244f3cf7305b0121031a78c8241722d48fba28aaee107c177f525498c1a182302b267064b169f4e118", "asm": "304502210093d6db0c1f2f56c3bd11cc9da78068e7dbe9a573c8e8deb69001cb043251f667022069414dd2459e8b24968c4ae6fa8b16031b2c84e17c9a17be276e244f3cf7305b[ALL] 031a78c8241722d48fba28aaee107c177f525498c1a182302b267064b169f4e118"}, "vout": 0, "txid": "8b07db0e56e8495345372a7475607c3c4d4a52721ea66775b0438900df972850"}], "txid": "8378a65b101dcffab3bfb430a42da4062bd53fd77e1fd8544b9bf5463f6547dc", "blocktime": 1537874412, "version": 1, "confirmations": 11467, "time": 1537874412, "locktime": 0, "vsize": 669, "size": 669}