{"hash": "838139465e2ba5c5c191e87948e2729dbea6bbcb35c0f0c748c67584df8312f1", "blockhash": "0000000000000000000e13cef7c366c0283d82e591d1acd082e914b08063cdf1", "vout": [{"scriptPubKey": {"reqSigs": 1, "hex": "76a91485995f3ef946893dba8726b8f2be3f904740fb0a88ac", "addresses": ["1DBQbzTTa2ALmZ8BGb4CsaW5UpwH6pwKYo"], "asm": "OP_DUP OP_HASH160 85995f3ef946893dba8726b8f2be3f904740fb0a OP_EQUALVERIFY OP_CHECKSIG", "type": "pubkeyhash"}, "value": 0.0043496, "n": 0}, {"scriptPubKey": {"reqSigs": 1, "hex": "a9146a51c854bdd9099d320ba493b17466842075417587", "addresses": ["3BPBXECtQWEzWLfkFPft4ifDsfJFo8ZZpM"], "asm": "OP_HASH160 6a51c854bdd9099d320ba493b174668420754175 OP_EQUAL", "type": "scripthash"}, "value": 0.01171505, "n": 1}], "hex": "0100000001f0b595ea9c118d701afd437f3ab42e2968480a3e40d0d787a3b1c2ed1269309c740000006b483045022100d8c7e724b71ecece55200006c59992ebc150ae96ee0e8e76c31bd28c5619469802204c5cfbd80ce17025cbb8e03f625567c3d9e4c4689e769ef1badd178996cb9914012102b77972388cf97123755c4bab02e4504d423be1b7e2fb089748f5cba395c7a422ffffffff0210a30600000000001976a91485995f3ef946893dba8726b8f2be3f904740fb0a88ac31e011000000000017a9146a51c854bdd9099d320ba493b1746684207541758700000000", "vin": [{"sequence": 4294967295, "scriptSig": {"hex": "483045022100d8c7e724b71ecece55200006c59992ebc150ae96ee0e8e76c31bd28c5619469802204c5cfbd80ce17025cbb8e03f625567c3d9e4c4689e769ef1badd178996cb9914012102b77972388cf97123755c4bab02e4504d423be1b7e2fb089748f5cba395c7a422", "asm": "3045022100d8c7e724b71ecece55200006c59992ebc150ae96ee0e8e76c31bd28c5619469802204c5cfbd80ce17025cbb8e03f625567c3d9e4c4689e769ef1badd178996cb9914[ALL] 02b77972388cf97123755c4bab02e4504d423be1b7e2fb089748f5cba395c7a422"}, "vout": 116, "txid": "9c306912edc2b1a387d7d0403e0a4868292eb43a7f43fd1a708d119cea95b5f0"}], "txid": "838139465e2ba5c5c191e87948e2729dbea6bbcb35c0f0c748c67584df8312f1", "blocktime": 1537871767, "version": 1, "confirmations": 11495, "time": 1537871767, "locktime": 0, "vsize": 224, "size": 224}