{"hash": "83843dca7a81ab7e62d9ebac8a259bc0f1acbe4f3e8265b96207163ad141fd5b", "blockhash": "0000000000000000001f76057863aec43deb6fa401d9628bb513d65a8098bfab", "vout": [{"scriptPubKey": {"reqSigs": 1, "hex": "76a914b31367712850177412c7481cb71ef0a683b4691488ac", "addresses": ["1HKsCZFhEs9Lb1jpC6EaUvoWYPYN3s2f65"], "asm": "OP_DUP OP_HASH160 b31367712850177412c7481cb71ef0a683b46914 OP_EQUALVERIFY OP_CHECKSIG", "type": "pubkeyhash"}, "value": 0.01557763, "n": 0}, {"scriptPubKey": {"reqSigs": 1, "hex": "76a914846c1ad1d34a4116a5d9a6de7ff2b941c5cddb2888ac", "addresses": ["1D5BhaCFtYt3e9hDrbiSNzsbD26KJeEVJZ"], "asm": "OP_DUP OP_HASH160 846c1ad1d34a4116a5d9a6de7ff2b941c5cddb28 OP_EQUALVERIFY OP_CHECKSIG", "type": "pubkeyhash"}, "value": 0.06444758, "n": 1}], "hex": "01000000010b6f14293cd62e99bf3eecedb82e187d17ebc2f1eb49aa051e1e79fa285ed71f010000008a473044022053d4ed164b338b8b9f41afe1b9ae6e3e14761743634c3c644d3f3f3aac14003f0220096c017d1eace7802773cbb2dc459efd190d2a96b05f00be77de1bce2c5f07bf014104861373a0859d9de828b0837610a50a7d19b5f95cd662a5fb86ed5edf5557801c872559f44553f537711cccbaa4649ee6f3ecfd1fd0b2c7a6843be1487fabc1a6ffffffff0203c51700000000001976a914b31367712850177412c7481cb71ef0a683b4691488acd6566200000000001976a914846c1ad1d34a4116a5d9a6de7ff2b941c5cddb2888ac00000000", "vin": [{"sequence": 4294967295, "scriptSig": {"hex": "473044022053d4ed164b338b8b9f41afe1b9ae6e3e14761743634c3c644d3f3f3aac14003f0220096c017d1eace7802773cbb2dc459efd190d2a96b05f00be77de1bce2c5f07bf014104861373a0859d9de828b0837610a50a7d19b5f95cd662a5fb86ed5edf5557801c872559f44553f537711cccbaa4649ee6f3ecfd1fd0b2c7a6843be1487fabc1a6", "asm": "3044022053d4ed164b338b8b9f41afe1b9ae6e3e14761743634c3c644d3f3f3aac14003f0220096c017d1eace7802773cbb2dc459efd190d2a96b05f00be77de1bce2c5f07bf[ALL] 04861373a0859d9de828b0837610a50a7d19b5f95cd662a5fb86ed5edf5557801c872559f44553f537711cccbaa4649ee6f3ecfd1fd0b2c7a6843be1487fabc1a6"}, "vout": 1, "txid": "1fd75e28fa791e1e05aa49ebf1c2eb177d182eb8edec3ebf992ed63c29146f0b"}], "txid": "83843dca7a81ab7e62d9ebac8a259bc0f1acbe4f3e8265b96207163ad141fd5b", "blocktime": 1537873891, "version": 1, "confirmations": 11478, "time": 1537873891, "locktime": 0, "vsize": 257, "size": 257}