{"hash": "8386cc9a149bb7a91f79cd8e3f2f0b15fd3cbff59614352e200fa8e75bd32f1f", "blockhash": "00000000000000000004ffacab907a6b429b9a5745fa0b75af4234bf69dd7176", "vout": [{"scriptPubKey": {"type": "nulldata", "hex": "6a146f6d6e69000000000000001f0000001cec448dc0", "asm": "OP_RETURN 6f6d6e69000000000000001f0000001cec448dc0"}, "value": 0.0, "n": 0}, {"scriptPubKey": {"reqSigs": 1, "hex": "76a914f96c9ce8dade84571041652edd4a8f71e033164188ac", "addresses": ["1PjqNKp1JtwVtHCxqB8VBp1YjT628Lz2v6"], "asm": "OP_DUP OP_HASH160 f96c9ce8dade84571041652edd4a8f71e0331641 OP_EQUALVERIFY OP_CHECKSIG", "type": "pubkeyhash"}, "value": 6e-06, "n": 1}, {"scriptPubKey": {"reqSigs": 1, "hex": "76a9140e49b81f43f719255334d008a790ef674e2e72c288ac", "addresses": ["12JYmnfYU2ghzjwUAspzJsSnmJtK9bZPYR"], "asm": "OP_DUP OP_HASH160 0e49b81f43f719255334d008a790ef674e2e72c2 OP_EQUALVERIFY OP_CHECKSIG", "type": "pubkeyhash"}, "value": 0.08521402, "n": 2}, {"scriptPubKey": {"reqSigs": 1, "hex": "76a9148a02f645d0ed8c12795da0bc7a4e93e820f0d30788ac", "addresses": ["1DajoH21Lv6Pp4kdLxNHc3sp8ahj5krHGK"], "asm": "OP_DUP OP_HASH160 8a02f645d0ed8c12795da0bc7a4e93e820f0d307 OP_EQUALVERIFY OP_CHECKSIG", "type": "pubkeyhash"}, "value": 6e-06, "n": 3}], "hex": "01000000026d65ee1f5ede8dfe7c16467d8dfae0c0526f51fda6182cffe0f323b4bb3582d7010000006a473044022008ee76fb15036bbb7693b0c12a0ac783b0504d28f7c9640d1caa91a863b4798f0220323e7a7315e7fd3e854ecdaa52da60dec496bf413b7c19dc5b93391beafb61580121025ac90c5c62726b379ee703fa269f8a8d04ca7c7739e77bda1a3b0bc744763db8ffffffff5470528d43321cb6b41a8c092982b49c7fdf33dbb7abf1073d383eeede843812020000006a473044022045844647d1eb83db5577355283696ecd29a047859b4fc8bba5e4e5883a6eda430220487afa214c38342839a87cace9104965275d24e612a2b8f6df537e43ab2ee17a01210361f26bf6731f956d2e62ee98a7a9fc6f0d36efdc9e6916973e7986a5ba9d19c4ffffffff040000000000000000166a146f6d6e69000000000000001f0000001cec448dc058020000000000001976a914f96c9ce8dade84571041652edd4a8f71e033164188acba068200000000001976a9140e49b81f43f719255334d008a790ef674e2e72c288ac58020000000000001976a9148a02f645d0ed8c12795da0bc7a4e93e820f0d30788ac00000000", "vin": [{"sequence": 4294967295, "scriptSig": {"hex": "473044022008ee76fb15036bbb7693b0c12a0ac783b0504d28f7c9640d1caa91a863b4798f0220323e7a7315e7fd3e854ecdaa52da60dec496bf413b7c19dc5b93391beafb61580121025ac90c5c62726b379ee703fa269f8a8d04ca7c7739e77bda1a3b0bc744763db8", "asm": "3044022008ee76fb15036bbb7693b0c12a0ac783b0504d28f7c9640d1caa91a863b4798f0220323e7a7315e7fd3e854ecdaa52da60dec496bf413b7c19dc5b93391beafb6158[ALL] 025ac90c5c62726b379ee703fa269f8a8d04ca7c7739e77bda1a3b0bc744763db8"}, "vout": 1, "txid": "d78235bbb423f3e0ff2c18a6fd516f52c0e0fa8d7d46167cfe8dde5e1fee656d"}, {"sequence": 4294967295, "scriptSig": {"hex": "473044022045844647d1eb83db5577355283696ecd29a047859b4fc8bba5e4e5883a6eda430220487afa214c38342839a87cace9104965275d24e612a2b8f6df537e43ab2ee17a01210361f26bf6731f956d2e62ee98a7a9fc6f0d36efdc9e6916973e7986a5ba9d19c4", "asm": "3044022045844647d1eb83db5577355283696ecd29a047859b4fc8bba5e4e5883a6eda430220487afa214c38342839a87cace9104965275d24e612a2b8f6df537e43ab2ee17a[ALL] 0361f26bf6731f956d2e62ee98a7a9fc6f0d36efdc9e6916973e7986a5ba9d19c4"}, "vout": 2, "txid": "123884deee3e383d07f1abb7db33df7f9cb48229098c1ab4b61c32438d527054"}], "txid": "8386cc9a149bb7a91f79cd8e3f2f0b15fd3cbff59614352e200fa8e75bd32f1f", "blocktime": 1537875543, "version": 1, "confirmations": 11464, "time": 1537875543, "locktime": 0, "vsize": 437, "size": 437}