{"hash": "838a819e7eb298cd39692dbf842be312010b003e34316fc40eec2443b83395a2", "blockhash": "0000000000000000001e0dab787dd257d1dbfcb92a98c2207d5e1078be1f4165", "vout": [{"scriptPubKey": {"reqSigs": 1, "hex": "a91465f5c97ab234f5a285869589a6ad02c00ac6ca1e87", "addresses": ["3Az8cVznW9eUeDzrEWbaT72Y9Ju8EHJsJU"], "asm": "OP_HASH160 65f5c97ab234f5a285869589a6ad02c00ac6ca1e OP_EQUAL", "type": "scripthash"}, "value": 0.078174, "n": 0}, {"scriptPubKey": {"reqSigs": 1, "hex": "76a9140392ea2ccd261c97f1c849ac0d82b3c816340b9988ac", "addresses": ["1Ku2PgM2WSVuA6e2e5tn5LiQbJ1SDFv7R"], "asm": "OP_DUP OP_HASH160 0392ea2ccd261c97f1c849ac0d82b3c816340b99 OP_EQUALVERIFY OP_CHECKSIG", "type": "pubkeyhash"}, "value": 0.15875236, "n": 1}], "hex": "0100000001bd649c21425a527236aeebfbb13da3308ecf6d3d68bf87c8ee8772a310b5b86d010000006b483045022100d87f428b39dc73efd6fab9f8248b3f830f4aae3a86a1ab1663b3794574d5b7b602206b231e93beea9e414d454d089057729fbb05b6a14bca6035637ef00b1a39b05a01210320616674cfd369857251bdaf6c3d254e21b43e6c3b04c45a9a4bbbb2d68a637cffffffff02b84877000000000017a91465f5c97ab234f5a285869589a6ad02c00ac6ca1e87a43cf200000000001976a9140392ea2ccd261c97f1c849ac0d82b3c816340b9988ac00000000", "vin": [{"sequence": 4294967295, "scriptSig": {"hex": "483045022100d87f428b39dc73efd6fab9f8248b3f830f4aae3a86a1ab1663b3794574d5b7b602206b231e93beea9e414d454d089057729fbb05b6a14bca6035637ef00b1a39b05a01210320616674cfd369857251bdaf6c3d254e21b43e6c3b04c45a9a4bbbb2d68a637c", "asm": "3045022100d87f428b39dc73efd6fab9f8248b3f830f4aae3a86a1ab1663b3794574d5b7b602206b231e93beea9e414d454d089057729fbb05b6a14bca6035637ef00b1a39b05a[ALL] 0320616674cfd369857251bdaf6c3d254e21b43e6c3b04c45a9a4bbbb2d68a637c"}, "vout": 1, "txid": "6db8b510a37287eec887bf683d6dcf8e30a33db1fbebae3672525a42219c64bd"}], "txid": "838a819e7eb298cd39692dbf842be312010b003e34316fc40eec2443b83395a2", "blocktime": 1537872475, "version": 1, "confirmations": 11486, "time": 1537872475, "locktime": 0, "vsize": 224, "size": 224}