{"hash": "838af57972d01417f7068e71d1863752e4288adf113221a4e74f9ea669ab283a", "blockhash": "0000000000000000001e0dab787dd257d1dbfcb92a98c2207d5e1078be1f4165", "vout": [{"scriptPubKey": {"reqSigs": 1, "hex": "76a914775b4197ab825aaa51411c0095eeaa220a8142bd88ac", "addresses": ["1Bt6jRRrdHiZy22VifVrTetrbwqtDiToAP"], "asm": "OP_DUP OP_HASH160 775b4197ab825aaa51411c0095eeaa220a8142bd OP_EQUALVERIFY OP_CHECKSIG", "type": "pubkeyhash"}, "value": 0.00062535, "n": 0}, {"scriptPubKey": {"reqSigs": 1, "hex": "a91445e654e25a315412c7c61fc4fc428e871285135e87", "addresses": ["384cUVswANg9QuHh3AksDx3EENPxMyjyfy"], "asm": "OP_HASH160 45e654e25a315412c7c61fc4fc428e871285135e OP_EQUAL", "type": "scripthash"}, "value": 0.00390498, "n": 1}], "hex": "01000000013f7576e127aaf6b8d828a9b9ff0634ab62570d2060b085214cc1563daa651041010000006b483045022100efabb71e3dd00960e859eb909d1626479326e48a766b69af7f47913fe0143d3402201157809ddd570c7c7cbb95e9d99d16a63f2d3c0559a7d394ff9013be8009320601210374da6b022b1f71f1a40fc396d35c4b66dd8d95c30fe9aaf58c4b6689b2c6ae69ffffffff0247f40000000000001976a914775b4197ab825aaa51411c0095eeaa220a8142bd88ac62f505000000000017a91445e654e25a315412c7c61fc4fc428e871285135e8700000000", "vin": [{"sequence": 4294967295, "scriptSig": {"hex": "483045022100efabb71e3dd00960e859eb909d1626479326e48a766b69af7f47913fe0143d3402201157809ddd570c7c7cbb95e9d99d16a63f2d3c0559a7d394ff9013be8009320601210374da6b022b1f71f1a40fc396d35c4b66dd8d95c30fe9aaf58c4b6689b2c6ae69", "asm": "3045022100efabb71e3dd00960e859eb909d1626479326e48a766b69af7f47913fe0143d3402201157809ddd570c7c7cbb95e9d99d16a63f2d3c0559a7d394ff9013be80093206[ALL] 0374da6b022b1f71f1a40fc396d35c4b66dd8d95c30fe9aaf58c4b6689b2c6ae69"}, "vout": 1, "txid": "411065aa3d56c14c2185b060200d5762ab3406ffb9a928d8b8f6aa27e176753f"}], "txid": "838af57972d01417f7068e71d1863752e4288adf113221a4e74f9ea669ab283a", "blocktime": 1537872475, "version": 1, "confirmations": 11487, "time": 1537872475, "locktime": 0, "vsize": 224, "size": 224}