{"hash": "838b237d0fbcee212302eb259a817602989158bfe802ee1f2dcccf81fe0c2766", "blockhash": "0000000000000000001f76057863aec43deb6fa401d9628bb513d65a8098bfab", "vout": [{"scriptPubKey": {"type": "nulldata", "hex": "6a146f6d6e69000000000000001f00000915fa66bc00", "asm": "OP_RETURN 6f6d6e69000000000000001f00000915fa66bc00"}, "value": 0.0, "n": 0}, {"scriptPubKey": {"reqSigs": 1, "hex": "76a914531c7fe4d082187e81d7e21b892820b53646926288ac", "addresses": ["18aTE7Fhdwkbgn5BqG2ur4jzhEKi5jyq6N"], "asm": "OP_DUP OP_HASH160 531c7fe4d082187e81d7e21b892820b536469262 OP_EQUALVERIFY OP_CHECKSIG", "type": "pubkeyhash"}, "value": 5.46e-06, "n": 1}, {"scriptPubKey": {"reqSigs": 1, "hex": "76a914a25dec4d0011064ef106a983c39c7a540699f22088ac", "addresses": ["1FoWyxwPXuj4C6abqwhjDWdz6D4PZgYRjA"], "asm": "OP_DUP OP_HASH160 a25dec4d0011064ef106a983c39c7a540699f220 OP_EQUALVERIFY OP_CHECKSIG", "type": "pubkeyhash"}, "value": 0.01980752, "n": 2}], "hex": "010000000118a8adcf1c66709f8e895647759a7806b1a29ba1e7548938864905ba9818d2b1010000006a4730440220233667b538efd132c05b911c1bab71464f1910464e6cf2ffa7fa6a82fd89de0a02200a74a443df130aaa2e2c0b8647099b84e0885e26b412dc32bc4bf47e5b1ed888012103da5bac7b36d5aa38f531c6b9601e21bb598a4b6716ebed38b009a55dabde9440feffffff030000000000000000166a146f6d6e69000000000000001f00000915fa66bc0022020000000000001976a914531c7fe4d082187e81d7e21b892820b53646926288ac50391e00000000001976a914a25dec4d0011064ef106a983c39c7a540699f22088ac14490800", "vin": [{"sequence": 4294967294, "scriptSig": {"hex": "4730440220233667b538efd132c05b911c1bab71464f1910464e6cf2ffa7fa6a82fd89de0a02200a74a443df130aaa2e2c0b8647099b84e0885e26b412dc32bc4bf47e5b1ed888012103da5bac7b36d5aa38f531c6b9601e21bb598a4b6716ebed38b009a55dabde9440", "asm": "30440220233667b538efd132c05b911c1bab71464f1910464e6cf2ffa7fa6a82fd89de0a02200a74a443df130aaa2e2c0b8647099b84e0885e26b412dc32bc4bf47e5b1ed888[ALL] 03da5bac7b36d5aa38f531c6b9601e21bb598a4b6716ebed38b009a55dabde9440"}, "vout": 1, "txid": "b1d21898ba054986388954e7a19ba2b106789a754756898e9f70661ccfada818"}], "txid": "838b237d0fbcee212302eb259a817602989158bfe802ee1f2dcccf81fe0c2766", "blocktime": 1537873891, "version": 1, "confirmations": 11475, "time": 1537873891, "locktime": 542996, "vsize": 256, "size": 256}