{"hash": "83924c50ba03d2142307423bd61a5733e948a63b0b4c024bf9b9f239fbaf772f", "blockhash": "0000000000000000001f76057863aec43deb6fa401d9628bb513d65a8098bfab", "vout": [{"scriptPubKey": {"reqSigs": 1, "hex": "a914599c35e936e5441152d9b523acd3edf2b2505abe87", "addresses": ["39rqCKSRkwRKD7wCVSufaT6uoEhqvHWC12"], "asm": "OP_HASH160 599c35e936e5441152d9b523acd3edf2b2505abe OP_EQUAL", "type": "scripthash"}, "value": 0.00327855, "n": 0}, {"scriptPubKey": {"reqSigs": 1, "hex": "76a914c8d9c60dccba0fe97854cc77387a74b7586ab71888ac", "addresses": ["1KK12YaRgMJrkAScR8JNpN3UKTQw7jB1zV"], "asm": "OP_DUP OP_HASH160 c8d9c60dccba0fe97854cc77387a74b7586ab718 OP_EQUALVERIFY OP_CHECKSIG", "type": "pubkeyhash"}, "value": 0.0271487, "n": 1}], "hex": "010000000122c30f086ae40163fe47e852f2e57fdec413251c20659a51d4c151c58439ab46010000006a47304402202bb30ada3bce4dcf17a7a473a6c1b7040e853b1c38a5935035708ec2f9db5074022048eb1ccc1f0c307a8a21d1f9c9901d8be4a704fcc47a0ca30a4fd8d3ef063e8c0121033ea4a4d850c940708023f93c4fbfe037533948a628185aa55d55c004cc1f6c47ffffffff02af0005000000000017a914599c35e936e5441152d9b523acd3edf2b2505abe87f66c2900000000001976a914c8d9c60dccba0fe97854cc77387a74b7586ab71888ac00000000", "vin": [{"sequence": 4294967295, "scriptSig": {"hex": "47304402202bb30ada3bce4dcf17a7a473a6c1b7040e853b1c38a5935035708ec2f9db5074022048eb1ccc1f0c307a8a21d1f9c9901d8be4a704fcc47a0ca30a4fd8d3ef063e8c0121033ea4a4d850c940708023f93c4fbfe037533948a628185aa55d55c004cc1f6c47", "asm": "304402202bb30ada3bce4dcf17a7a473a6c1b7040e853b1c38a5935035708ec2f9db5074022048eb1ccc1f0c307a8a21d1f9c9901d8be4a704fcc47a0ca30a4fd8d3ef063e8c[ALL] 033ea4a4d850c940708023f93c4fbfe037533948a628185aa55d55c004cc1f6c47"}, "vout": 1, "txid": "46ab3984c551c1d4519a65201c2513c4de7fe5f252e847fe6301e46a080fc322"}], "txid": "83924c50ba03d2142307423bd61a5733e948a63b0b4c024bf9b9f239fbaf772f", "blocktime": 1537873891, "version": 1, "confirmations": 11478, "time": 1537873891, "locktime": 0, "vsize": 223, "size": 223}