{"hash": "8393bc569e2cd4e6bb07f9a6fffefd4c771162bd50dcfd2c9a9947b17855ac94", "blockhash": "00000000000000000004ffacab907a6b429b9a5745fa0b75af4234bf69dd7176", "vout": [{"scriptPubKey": {"reqSigs": 1, "hex": "76a914aaf9cc3382ad6da3dec036fa180856c9f242808e88ac", "addresses": ["1Gb37rhikLeDj24WGAPcpfsuYr6UV6KwnA"], "asm": "OP_DUP OP_HASH160 aaf9cc3382ad6da3dec036fa180856c9f242808e OP_EQUALVERIFY OP_CHECKSIG", "type": "pubkeyhash"}, "value": 0.0099416, "n": 0}, {"scriptPubKey": {"reqSigs": 1, "hex": "76a9146e4ebf67fa95c0b66b52dc98b58535d202b0fa3388ac", "addresses": ["1B4Ffazdiv56DVvnUHNd19xZzGYgHPAcMP"], "asm": "OP_DUP OP_HASH160 6e4ebf67fa95c0b66b52dc98b58535d202b0fa33 OP_EQUALVERIFY OP_CHECKSIG", "type": "pubkeyhash"}, "value": 0.0057, "n": 1}], "hex": "02000000022bb149fca9c0e935c3b3154e9fdab7c5d9895be6c47dea3a256a56d72d480660000000006a4730440220769f1e2e33ad6d081838cb7d9157024d417fead5f474b990744d59419199e34d0220489b9ac47ad8c659e81500f9540607eebc638fd8fbdc052396e46e7a391ce05c0121030cf42257e89242f0341761bd3f8aa84c759ec4ceff08f4e9e3ccca10e903090ffeffffffbef281907e2499558784deb7ec8aecf48058976c36280dab5309c9467dc09401000000006b483045022100e8f1dc6e2dae476fe920c6ee68cdf8a567772efa9227aa32882e88f9e923ab8902207e4bd2c97fe185c231603018bf5a94001d787aefd936b3bd71d69135c126d38201210389f50ee16cacdddc494edcba6d62903268248874b43d963e5fe683e6a4d29b5cfeffffff02702b0f00000000001976a914aaf9cc3382ad6da3dec036fa180856c9f242808e88ac90b20800000000001976a9146e4ebf67fa95c0b66b52dc98b58535d202b0fa3388ac16490800", "vin": [{"sequence": 4294967294, "scriptSig": {"hex": "4730440220769f1e2e33ad6d081838cb7d9157024d417fead5f474b990744d59419199e34d0220489b9ac47ad8c659e81500f9540607eebc638fd8fbdc052396e46e7a391ce05c0121030cf42257e89242f0341761bd3f8aa84c759ec4ceff08f4e9e3ccca10e903090f", "asm": "30440220769f1e2e33ad6d081838cb7d9157024d417fead5f474b990744d59419199e34d0220489b9ac47ad8c659e81500f9540607eebc638fd8fbdc052396e46e7a391ce05c[ALL] 030cf42257e89242f0341761bd3f8aa84c759ec4ceff08f4e9e3ccca10e903090f"}, "vout": 0, "txid": "6006482dd7566a253aea7dc4e65b89d9c5b7da9f4e15b3c335e9c0a9fc49b12b"}, {"sequence": 4294967294, "scriptSig": {"hex": "483045022100e8f1dc6e2dae476fe920c6ee68cdf8a567772efa9227aa32882e88f9e923ab8902207e4bd2c97fe185c231603018bf5a94001d787aefd936b3bd71d69135c126d38201210389f50ee16cacdddc494edcba6d62903268248874b43d963e5fe683e6a4d29b5c", "asm": "3045022100e8f1dc6e2dae476fe920c6ee68cdf8a567772efa9227aa32882e88f9e923ab8902207e4bd2c97fe185c231603018bf5a94001d787aefd936b3bd71d69135c126d382[ALL] 0389f50ee16cacdddc494edcba6d62903268248874b43d963e5fe683e6a4d29b5c"}, "vout": 0, "txid": "0194c07d46c90953ab0d28366c975880f4ec8aecb7de84875599247e9081f2be"}], "txid": "8393bc569e2cd4e6bb07f9a6fffefd4c771162bd50dcfd2c9a9947b17855ac94", "blocktime": 1537875543, "version": 2, "confirmations": 11464, "time": 1537875543, "locktime": 542998, "vsize": 373, "size": 373}