{"hash": "1f2c2189da2fd284301f41432ee6130039744fbb4bd421c4a760ecd1e9bbcbdc", "blockhash": "0000000000000000001f76057863aec43deb6fa401d9628bb513d65a8098bfab", "vout": [{"scriptPubKey": {"reqSigs": 1, "hex": "a914402d459618f8a84acf732099255c70582bce62f687", "addresses": ["37YMQMxigX77U353KWLyXCuPJ35LKF8b7o"], "asm": "OP_HASH160 402d459618f8a84acf732099255c70582bce62f6 OP_EQUAL", "type": "scripthash"}, "value": 0.0001688, "n": 0}, {"scriptPubKey": {"reqSigs": 1, "hex": "a914414cec0fc72a9410f6836edaf08de1aa3b2a321c87", "addresses": ["37eHzewnAFRR2SVZu8rZM3nBsmuE2XBU7D"], "asm": "OP_HASH160 414cec0fc72a9410f6836edaf08de1aa3b2a321c OP_EQUAL", "type": "scripthash"}, "value": 0.24961842, "n": 1}], "hex": "01000000000101ede667dc0e7dc7cddb4e23c5ad165fa52f6d13d487f7bd1febf17b0244368fb10100000023220020ce74cde37cfb8dd71d0179287e12fc721ee236ce3c89c2745bcd365b39807eb3ffffffff02f04100000000000017a914402d459618f8a84acf732099255c70582bce62f68732e37c010000000017a914414cec0fc72a9410f6836edaf08de1aa3b2a321c870400483045022100e61337586f33c5ff03eaba876b586aff23870425138da7eebcdda14d1b2cf6bb02202c25d6f4232dd89956b4c670aebae1c863570bc864e18d8fcff82c3a28515f4a01483045022100da5f38366ea3a7ba84ffce6f9ee5d96ed2da09f59c11771754de2f389476e4ce0220375b880f88677203e8ec671760ef7cb90075abb720adad08288285d441a2d1b70147522103ada901d90d5a76319a60f228e0b1bbc84b1d9a87238550bae5d5d190067b66712103871fc2ca08e6950b38867e8e6a0e94ee625223d3aa0df5c65f414c6d784467e252ae00000000", "vin": [{"txinwitness": ["", "3045022100e61337586f33c5ff03eaba876b586aff23870425138da7eebcdda14d1b2cf6bb02202c25d6f4232dd89956b4c670aebae1c863570bc864e18d8fcff82c3a28515f4a01", "3045022100da5f38366ea3a7ba84ffce6f9ee5d96ed2da09f59c11771754de2f389476e4ce0220375b880f88677203e8ec671760ef7cb90075abb720adad08288285d441a2d1b701", "522103ada901d90d5a76319a60f228e0b1bbc84b1d9a87238550bae5d5d190067b66712103871fc2ca08e6950b38867e8e6a0e94ee625223d3aa0df5c65f414c6d784467e252ae"], "sequence": 4294967295, "scriptSig": {"hex": "220020ce74cde37cfb8dd71d0179287e12fc721ee236ce3c89c2745bcd365b39807eb3", "asm": "0020ce74cde37cfb8dd71d0179287e12fc721ee236ce3c89c2745bcd365b39807eb3"}, "vout": 1, "txid": "b18f3644027bf1eb1fbdf787d4136d2fa55f16adc5234edbcdc77d0edc67e6ed"}], "txid": "839395b5267af72da0133fd0d7331d7c65af6507d258104b166656388ceaa1df", "blocktime": 1537873891, "version": 1, "confirmations": 11478, "time": 1537873891, "locktime": 0, "vsize": 206, "size": 372}