{"hash": "839600389d64c9fecb850e9c2ff2d1a01057e0fd77ebd330ca7eba9dabecef42", "blockhash": "0000000000000000001e0dab787dd257d1dbfcb92a98c2207d5e1078be1f4165", "vout": [{"scriptPubKey": {"reqSigs": 1, "hex": "76a91430b4d91a7dd8d67c7a67ca0c9f15d936a5c0f7cd88ac", "addresses": ["15SY5kagQhJE8ai1S2jw95mzuZSgGhNpEW"], "asm": "OP_DUP OP_HASH160 30b4d91a7dd8d67c7a67ca0c9f15d936a5c0f7cd OP_EQUALVERIFY OP_CHECKSIG", "type": "pubkeyhash"}, "value": 0.00468246, "n": 0}, {"scriptPubKey": {"reqSigs": 1, "hex": "76a9147342b2e81ada90ee128ed4f12ce9234a1765a36a88ac", "addresses": ["1BWScNw2VWAFC3KgfYxRqoAaUBA4YkQWc5"], "asm": "OP_DUP OP_HASH160 7342b2e81ada90ee128ed4f12ce9234a1765a36a OP_EQUALVERIFY OP_CHECKSIG", "type": "pubkeyhash"}, "value": 0.36873017, "n": 1}], "hex": "0100000001187eb3f2f259b11704d605cc14727c40b2e2331e14075d8f148e9de19f3f4675010000006b483045022100dfbaad29f4f3fb19a140a5071d488011bf02efe7a0141ea7b91ba447c9e1b4ac0220283d5265a81551cbe5f7121853be7fa7f19d4d0b7daafc780c4cb9718e7204a2012103f30b788976c834ec3c386e6dc67f235b22d38668e7620e07ae9596bc42e15a3cffffffff0216250700000000001976a91430b4d91a7dd8d67c7a67ca0c9f15d936a5c0f7cd88ac39a33202000000001976a9147342b2e81ada90ee128ed4f12ce9234a1765a36a88ac00000000", "vin": [{"sequence": 4294967295, "scriptSig": {"hex": "483045022100dfbaad29f4f3fb19a140a5071d488011bf02efe7a0141ea7b91ba447c9e1b4ac0220283d5265a81551cbe5f7121853be7fa7f19d4d0b7daafc780c4cb9718e7204a2012103f30b788976c834ec3c386e6dc67f235b22d38668e7620e07ae9596bc42e15a3c", "asm": "3045022100dfbaad29f4f3fb19a140a5071d488011bf02efe7a0141ea7b91ba447c9e1b4ac0220283d5265a81551cbe5f7121853be7fa7f19d4d0b7daafc780c4cb9718e7204a2[ALL] 03f30b788976c834ec3c386e6dc67f235b22d38668e7620e07ae9596bc42e15a3c"}, "vout": 1, "txid": "75463f9fe19d8e148f5d07141e33e2b2407c7214cc05d60417b159f2f2b37e18"}], "txid": "839600389d64c9fecb850e9c2ff2d1a01057e0fd77ebd330ca7eba9dabecef42", "blocktime": 1537872475, "version": 1, "confirmations": 11486, "time": 1537872475, "locktime": 0, "vsize": 226, "size": 226}