{"hash": "839792a985391a520f364fe223f61d958760a4786ea40f61941e8d00c6615ea7", "blockhash": "0000000000000000001f76057863aec43deb6fa401d9628bb513d65a8098bfab", "vout": [{"scriptPubKey": {"reqSigs": 1, "hex": "76a9145ae22e278409cd592e9d782a4e412acfd836657a88ac", "addresses": ["19HYmYiXREPmApHznBCSed1B2jCLLmxop4"], "asm": "OP_DUP OP_HASH160 5ae22e278409cd592e9d782a4e412acfd836657a OP_EQUALVERIFY OP_CHECKSIG", "type": "pubkeyhash"}, "value": 1.438869, "n": 0}, {"scriptPubKey": {"reqSigs": 1, "hex": "76a9142eaac4d84160a5e24a18646d71ba71ba4d99303d88ac", "addresses": ["15Fkf4K6z6XQXr1xoNBDDTaR9GBMX6JdyF"], "asm": "OP_DUP OP_HASH160 2eaac4d84160a5e24a18646d71ba71ba4d99303d OP_EQUALVERIFY OP_CHECKSIG", "type": "pubkeyhash"}, "value": 5.46e-06, "n": 1}, {"scriptPubKey": {"type": "nulldata", "hex": "6a146f6d6e69000000000000001f000000ed30db6742", "asm": "OP_RETURN 6f6d6e69000000000000001f000000ed30db6742"}, "value": 0.0, "n": 2}], "hex": "0100000002ae4f0f8ffadb48e5dbb6f1573c4705eda58b85ce285b4798489c271238796216020000006b4830450221008a1860d912a4626a7dd576603363024c0df6099f0c01d134fdaee5c13d6fb10e022047d54e6f14c322008bae02ddca00c9e5b55d34aa4791c9513d6c0edead1d74dc012103b9bdddcb6b265975eab6683ed7265cd36af6092a34215de12f1c25c356e5e883ffffffffc6745f9a30c0c6cc2d4f11c6f2f85fe11b83131e23827d5f98a3195789c5e7f4000000006b483045022100e794e248e2621af87e6c0086770083aaded76586eea6814683ba38f36e397c9102202c136f4ff284aaa6c45f7df78ae84261588ee9025c217e1c97c2010bfb4e5e80012103bfa79eca72bd969d3ffb56e64774fa8723f13278fd87ffedd36999975e73925bffffffff03348a9308000000001976a9145ae22e278409cd592e9d782a4e412acfd836657a88ac22020000000000001976a9142eaac4d84160a5e24a18646d71ba71ba4d99303d88ac0000000000000000166a146f6d6e69000000000000001f000000ed30db674200000000", "vin": [{"sequence": 4294967295, "scriptSig": {"hex": "4830450221008a1860d912a4626a7dd576603363024c0df6099f0c01d134fdaee5c13d6fb10e022047d54e6f14c322008bae02ddca00c9e5b55d34aa4791c9513d6c0edead1d74dc012103b9bdddcb6b265975eab6683ed7265cd36af6092a34215de12f1c25c356e5e883", "asm": "30450221008a1860d912a4626a7dd576603363024c0df6099f0c01d134fdaee5c13d6fb10e022047d54e6f14c322008bae02ddca00c9e5b55d34aa4791c9513d6c0edead1d74dc[ALL] 03b9bdddcb6b265975eab6683ed7265cd36af6092a34215de12f1c25c356e5e883"}, "vout": 2, "txid": "1662793812279c4898475b28ce858ba5ed05473c57f1b6dbe548dbfa8f0f4fae"}, {"sequence": 4294967295, "scriptSig": {"hex": "483045022100e794e248e2621af87e6c0086770083aaded76586eea6814683ba38f36e397c9102202c136f4ff284aaa6c45f7df78ae84261588ee9025c217e1c97c2010bfb4e5e80012103bfa79eca72bd969d3ffb56e64774fa8723f13278fd87ffedd36999975e73925b", "asm": "3045022100e794e248e2621af87e6c0086770083aaded76586eea6814683ba38f36e397c9102202c136f4ff284aaa6c45f7df78ae84261588ee9025c217e1c97c2010bfb4e5e80[ALL] 03bfa79eca72bd969d3ffb56e64774fa8723f13278fd87ffedd36999975e73925b"}, "vout": 0, "txid": "f4e7c5895719a3985f7d82231e13831be15ff8f2c6114f2dccc6c0309a5f74c6"}], "txid": "839792a985391a520f364fe223f61d958760a4786ea40f61941e8d00c6615ea7", "blocktime": 1537873891, "version": 1, "confirmations": 11478, "time": 1537873891, "locktime": 0, "vsize": 405, "size": 405}