{"hash": "4fa4cc41f1f57db8f25e9da7f13636add77f0b6d368412a0d8a406342e32a37f", "blockhash": "0000000000000000000baef3f32e3676a92c3b2e5da21b426e4f302fc371ce76", "vout": [{"scriptPubKey": {"reqSigs": 1, "hex": "a91430897cc6c9d69f6a2c2f1c651d51f22219f1a4f687", "addresses": ["367f4YWz1VCFaqBqwbTrzwi2b1h2U3w1AF"], "asm": "OP_HASH160 30897cc6c9d69f6a2c2f1c651d51f22219f1a4f6 OP_EQUAL", "type": "scripthash"}, "value": 19.21810591, "n": 0}, {"scriptPubKey": {"reqSigs": 1, "hex": "a914db1940c3bf438b5f4a81731d2701aea3d2f0c41087", "addresses": ["3MfWAAQG4VT2Mte3RKUXZdsDgUoiTHcPcT"], "asm": "OP_HASH160 db1940c3bf438b5f4a81731d2701aea3d2f0c410 OP_EQUAL", "type": "scripthash"}, "value": 0.26654485, "n": 1}], "hex": "01000000000101a9aff6da65ab2c134de7b7f139f4202f45a1951f37fa635ed14e02240e7db3390000000023220020bcf9f822194145acea0f3235f4107b5bf1a91b6b9f8489f63bf79ec29b360913ffffffff029f808c720000000017a91430897cc6c9d69f6a2c2f1c651d51f22219f1a4f68715b796010000000017a914db1940c3bf438b5f4a81731d2701aea3d2f0c41087040047304402206153db305aa548577d8b120ebacb15e9a3f63713f5672e97460e8ec6e0f44a3f022029ae3890bbf092b9fd2f36699662f9f98c5ee4265d2fadac9e40870dbfc1fb7901483045022100c58dcd0710e8a86c2aa4cd6f2bb4442a434b9bf2feeddc23378d39067c4d012902204e290c578daccff5f899dc50564d4ee1009776790f4c873a210ab8523671f6a801695221026c8f72b9e63db63907115e65d4da86eaae595b22fdc85ec75301bb4adbf203582103806535be3e3920e5eedee92de5714188fd6a784f2bf7b04f87de0b9c3ae1ecdb21024b23bfdce2afcae7e28c42f7f79aa100f22931712c52d7414a526ba494d44a2553ae00000000", "vin": [{"txinwitness": ["", "304402206153db305aa548577d8b120ebacb15e9a3f63713f5672e97460e8ec6e0f44a3f022029ae3890bbf092b9fd2f36699662f9f98c5ee4265d2fadac9e40870dbfc1fb7901", "3045022100c58dcd0710e8a86c2aa4cd6f2bb4442a434b9bf2feeddc23378d39067c4d012902204e290c578daccff5f899dc50564d4ee1009776790f4c873a210ab8523671f6a801", "5221026c8f72b9e63db63907115e65d4da86eaae595b22fdc85ec75301bb4adbf203582103806535be3e3920e5eedee92de5714188fd6a784f2bf7b04f87de0b9c3ae1ecdb21024b23bfdce2afcae7e28c42f7f79aa100f22931712c52d7414a526ba494d44a2553ae"], "sequence": 4294967295, "scriptSig": {"hex": "220020bcf9f822194145acea0f3235f4107b5bf1a91b6b9f8489f63bf79ec29b360913", "asm": "0020bcf9f822194145acea0f3235f4107b5bf1a91b6b9f8489f63bf79ec29b360913"}, "vout": 0, "txid": "39b37d0e24024ed15e63fa371f95a1452f20f439f1b7e74d132cab65daf6afa9"}], "txid": "839c3e0c774ff9672a24b44373899bde86cb1e91bf0efc88fa83fb8cdde5e348", "blocktime": 1537876114, "version": 1, "confirmations": 11460, "time": 1537876114, "locktime": 0, "vsize": 214, "size": 405}