{"hash": "839d9b70d6de94c00a29ae45cefb77c828e10442675840fffb03a7e3854b104d", "blockhash": "000000000000000000022b45ed06c6f4ccd3cf7fb5ba4856ebd2e58215665228", "vout": [{"scriptPubKey": {"reqSigs": 1, "hex": "a914a89e6217c008ca987164b653533f910c9c02df8587", "addresses": ["3H4bBRjHm82rtKqCS8w69y9urB5s1Z67gg"], "asm": "OP_HASH160 a89e6217c008ca987164b653533f910c9c02df85 OP_EQUAL", "type": "scripthash"}, "value": 15.13354, "n": 0}, {"scriptPubKey": {"reqSigs": 1, "hex": "76a914e36d2cca2a972e89511e5ae9ccd25e35e7e78f9088ac", "addresses": ["1MjXB9yQPyumzhzMrR1QQdLj9WFXFxpMth"], "asm": "OP_DUP OP_HASH160 e36d2cca2a972e89511e5ae9ccd25e35e7e78f90 OP_EQUALVERIFY OP_CHECKSIG", "type": "pubkeyhash"}, "value": 1.419998, "n": 1}, {"scriptPubKey": {"reqSigs": 1, "hex": "76a9145da3f914dafe88de4b092f4685740aaa4b5cdbbc88ac", "addresses": ["19Y8GtApWtttt1VhpxRgJEriiWBcUm2ue7"], "asm": "OP_DUP OP_HASH160 5da3f914dafe88de4b092f4685740aaa4b5cdbbc OP_EQUALVERIFY OP_CHECKSIG", "type": "pubkeyhash"}, "value": 1.1402, "n": 2}, {"scriptPubKey": {"reqSigs": 1, "hex": "76a91420c7defd1b1d9dfc3792dc1e282dc30d0047e54488ac", "addresses": ["13zL4RWVQTuYrisbhuAu7rnuVVuKFMnHua"], "asm": "OP_DUP OP_HASH160 20c7defd1b1d9dfc3792dc1e282dc30d0047e544 OP_EQUALVERIFY OP_CHECKSIG", "type": "pubkeyhash"}, "value": 1.0, "n": 3}, {"scriptPubKey": {"reqSigs": 1, "hex": "76a9149f2c105f6f1459539e8be1e1e4ef1bec0badfe6188ac", "addresses": ["1FWdE7sFrUgyUDzc57asKQ35pw7fKZsXxD"], "asm": "OP_DUP OP_HASH160 9f2c105f6f1459539e8be1e1e4ef1bec0badfe61 OP_EQUALVERIFY OP_CHECKSIG", "type": "pubkeyhash"}, "value": 0.459872, "n": 4}, {"scriptPubKey": {"reqSigs": 1, "hex": "76a91485c0871c020ee39889e34ce341213207a640dfb288ac", "addresses": ["1DCDWaVhxCUb5TP23mnir3PEw5Pz1CsvpC"], "asm": "OP_DUP OP_HASH160 85c0871c020ee39889e34ce341213207a640dfb2 OP_EQUALVERIFY OP_CHECKSIG", "type": "pubkeyhash"}, "value": 0.4411, "n": 5}, {"scriptPubKey": {"reqSigs": 1, "hex": "76a914d5e7c5d2cbbf80340466c493ba196f9eb347e73288ac", "addresses": ["1LW2aiLZdxwQ6TYNjhxQ8DV3SxtSrW2Pd4"], "asm": "OP_DUP OP_HASH160 d5e7c5d2cbbf80340466c493ba196f9eb347e732 OP_EQUALVERIFY OP_CHECKSIG", "type": "pubkeyhash"}, "value": 0.286424, "n": 6}, {"scriptPubKey": {"reqSigs": 1, "hex": "76a91485c0871c020ee39889e34ce341213207a640dfb288ac", "addresses": ["1DCDWaVhxCUb5TP23mnir3PEw5Pz1CsvpC"], "asm": "OP_DUP OP_HASH160 85c0871c020ee39889e34ce341213207a640dfb2 OP_EQUALVERIFY OP_CHECKSIG", "type": "pubkeyhash"}, "value": 0.1555, "n": 7}, {"scriptPubKey": {"reqSigs": 1, "hex": "76a914370dcf20630045a5d6025430649b2ceb025c8ed188ac", "addresses": ["1626i2L7cGnhmAsZT4ms6cJqnK2eDSfAac"], "asm": "OP_DUP OP_HASH160 370dcf20630045a5d6025430649b2ceb025c8ed1 OP_EQUALVERIFY OP_CHECKSIG", "type": "pubkeyhash"}, "value": 0.1554864, "n": 8}, {"scriptPubKey": {"reqSigs": 1, "hex": "76a9147630fe761462d0f4b511f05c95fcbd01b62e7d8f88ac", "addresses": ["1BmwRoHcX3knXwJLc68izLdhFAeh9km7c8"], "asm": "OP_DUP OP_HASH160 7630fe761462d0f4b511f05c95fcbd01b62e7d8f OP_EQUALVERIFY OP_CHECKSIG", "type": "pubkeyhash"}, "value": 0.125, "n": 9}, {"scriptPubKey": {"reqSigs": 1, "hex": "76a9143b09ef8638b378823d3da3960e426f70b201d0e888ac", "addresses": ["16PAmfCAJeS9Zbcqsdji9m3sSpxsbHdaVV"], "asm": "OP_DUP OP_HASH160 3b09ef8638b378823d3da3960e426f70b201d0e8 OP_EQUALVERIFY OP_CHECKSIG", "type": "pubkeyhash"}, "value": 0.109998, "n": 10}, {"scriptPubKey": {"reqSigs": 1, "hex": "76a91408cbda51b7462a36a784c07db97706e059dc0d4788ac", "addresses": ["1oWcUcmbJ83VKXw2n4ef9LMAP7JKZy1EZ"], "asm": "OP_DUP OP_HASH160 08cbda51b7462a36a784c07db97706e059dc0d47 OP_EQUALVERIFY OP_CHECKSIG", "type": "pubkeyhash"}, "value": 0.09556, "n": 11}, {"scriptPubKey": {"reqSigs": 1, "hex": "a9145a8c53c2ccf5c1f0048ee916d4a30d79103aaeae87", "addresses": ["39wnqutTYp1fVSzJGkEVDv34Gvwm4F45x8"], "asm": "OP_HASH160 5a8c53c2ccf5c1f0048ee916d4a30d79103aaeae OP_EQUAL", "type": "scripthash"}, "value": 0.0090286, "n": 12}, {"scriptPubKey": {"reqSigs": 1, "hex": "76a9141ec86146848ae5bfd9688ff3727ae771c372de1188ac", "addresses": ["13omKQD9AaxDZT9vaZxxoLaEFJGKy5FmQB"], "asm": "OP_DUP OP_HASH160 1ec86146848ae5bfd9688ff3727ae771c372de11 OP_EQUALVERIFY OP_CHECKSIG", "type": "pubkeyhash"}, "value": 1.72041192, "n": 13}], "hex": "0100000003b081efe3ffd17be94c6bbcc7dd9a8405564a7a0e16c3e20d0cc37b3987551fe5180000008a473044022038cc61d6e11cc7fb821a628a63c4a860cfde3381d52026efee2cb7aaebd0a8d302207d8787b0ae150add211c751bc0fe5cdd732f77fbf60634587aac62d3648f3549014104b3304f8ba7a01a6ff04089391503401d363fcbbec389987912240f0fc1a5aea6e357ea8597c115823373309f9ff72084306ee8a3a10d668cec6a62cc043c6847ffffffff6def87d8964b98c4d559aed6688346b83ee6cea8a24a7d7f97e2e9db37665ecd010000006b4830450221009538a4734bf6f327d44f1e034f50f19ba134279835e92a35cb2a0f95e1957a4d02201814e46cc492efc06224aa8e3855c4b9640ba54149217bec2074db703aac39c6012102d1d49a67e53d9b3ae1e385bc6d4b27daa10fee7ebbb3157e8b6c459171e1f717ffffffffa87a704bbfe33309b06557ca046d005c97238c8072a0c9e99e25bcef9f07327a000000008a47304402201dc197172d1dd805bc4e7189033f56a08218baa75eb6fcc5e7ae30a415360a050220080b4d7b03ca61d44cbc90c3ed75f902e2c4da3bf2394abb3d18f86da6d342bf014104e9c5e5ae1d4abae6c614e8b2180d4ea8d7af8e232e7e414c7b16f60d554e19eca9ad76b7035839568d83bfa6aa4f499da74351d537e3b256ca05a95f2115c1acffffffff0e10f3335a0000000017a914a89e6217c008ca987164b653533f910c9c02df8587b8be7608000000001976a914e36d2cca2a972e89511e5ae9ccd25e35e7e78f9088aca0cecb06000000001976a9145da3f914dafe88de4b092f4685740aaa4b5cdbbc88ac00e1f505000000001976a91420c7defd1b1d9dfc3792dc1e282dc30d0047e54488ac80b5bd02000000001976a9149f2c105f6f1459539e8be1e1e4ef1bec0badfe6188acb010a102000000001976a91485c0871c020ee39889e34ce341213207a640dfb288ac600cb501000000001976a914d5e7c5d2cbbf80340466c493ba196f9eb347e73288ac3046ed00000000001976a91485c0871c020ee39889e34ce341213207a640dfb288ace040ed00000000001976a914370dcf20630045a5d6025430649b2ceb025c8ed188ac20bcbe00000000001976a9147630fe761462d0f4b511f05c95fcbd01b62e7d8f88acf8d7a700000000001976a9143b09ef8638b378823d3da3960e426f70b201d0e888ac20d09100000000001976a91408cbda51b7462a36a784c07db97706e059dc0d4788acccc60d000000000017a9145a8c53c2ccf5c1f0048ee916d4a30d79103aaeae87e823410a000000001976a9141ec86146848ae5bfd9688ff3727ae771c372de1188ac00000000", "vin": [{"sequence": 4294967295, "scriptSig": {"hex": "473044022038cc61d6e11cc7fb821a628a63c4a860cfde3381d52026efee2cb7aaebd0a8d302207d8787b0ae150add211c751bc0fe5cdd732f77fbf60634587aac62d3648f3549014104b3304f8ba7a01a6ff04089391503401d363fcbbec389987912240f0fc1a5aea6e357ea8597c115823373309f9ff72084306ee8a3a10d668cec6a62cc043c6847", "asm": "3044022038cc61d6e11cc7fb821a628a63c4a860cfde3381d52026efee2cb7aaebd0a8d302207d8787b0ae150add211c751bc0fe5cdd732f77fbf60634587aac62d3648f3549[ALL] 04b3304f8ba7a01a6ff04089391503401d363fcbbec389987912240f0fc1a5aea6e357ea8597c115823373309f9ff72084306ee8a3a10d668cec6a62cc043c6847"}, "vout": 24, "txid": "e51f5587397bc30c0de2c3160e7a4a5605849addc7bc6b4ce97bd1ffe3ef81b0"}, {"sequence": 4294967295, "scriptSig": {"hex": "4830450221009538a4734bf6f327d44f1e034f50f19ba134279835e92a35cb2a0f95e1957a4d02201814e46cc492efc06224aa8e3855c4b9640ba54149217bec2074db703aac39c6012102d1d49a67e53d9b3ae1e385bc6d4b27daa10fee7ebbb3157e8b6c459171e1f717", "asm": "30450221009538a4734bf6f327d44f1e034f50f19ba134279835e92a35cb2a0f95e1957a4d02201814e46cc492efc06224aa8e3855c4b9640ba54149217bec2074db703aac39c6[ALL] 02d1d49a67e53d9b3ae1e385bc6d4b27daa10fee7ebbb3157e8b6c459171e1f717"}, "vout": 1, "txid": "cd5e6637dbe9e2977f7d4aa2a8cee63eb8468368d6ae59d5c4984b96d887ef6d"}, {"sequence": 4294967295, "scriptSig": {"hex": "47304402201dc197172d1dd805bc4e7189033f56a08218baa75eb6fcc5e7ae30a415360a050220080b4d7b03ca61d44cbc90c3ed75f902e2c4da3bf2394abb3d18f86da6d342bf014104e9c5e5ae1d4abae6c614e8b2180d4ea8d7af8e232e7e414c7b16f60d554e19eca9ad76b7035839568d83bfa6aa4f499da74351d537e3b256ca05a95f2115c1ac", "asm": "304402201dc197172d1dd805bc4e7189033f56a08218baa75eb6fcc5e7ae30a415360a050220080b4d7b03ca61d44cbc90c3ed75f902e2c4da3bf2394abb3d18f86da6d342bf[ALL] 04e9c5e5ae1d4abae6c614e8b2180d4ea8d7af8e232e7e414c7b16f60d554e19eca9ad76b7035839568d83bfa6aa4f499da74351d537e3b256ca05a95f2115c1ac"}, "vout": 0, "txid": "7a32079fefbc259ee9c9a072808c23975c006d04ca5765b00933e3bf4b707aa8"}], "txid": "839d9b70d6de94c00a29ae45cefb77c828e10442675840fffb03a7e3854b104d", "blocktime": 1537869901, "version": 1, "confirmations": 11522, "time": 1537869901, "locktime": 0, "vsize": 988, "size": 988}