{"hash": "ea2ee4ee34d0d10fe23b87e83d331510f035eca4165aeeb2def88b7e9a17cece", "blockhash": "0000000000000000001e0dab787dd257d1dbfcb92a98c2207d5e1078be1f4165", "vout": [{"scriptPubKey": {"reqSigs": 1, "hex": "a9148e4a6d3a9ded966d12c38ec424b1f50abbc3680487", "addresses": ["3EfP33FzoBh3p3PxvX99dhhVbN7en5zvLR"], "asm": "OP_HASH160 8e4a6d3a9ded966d12c38ec424b1f50abbc36804 OP_EQUAL", "type": "scripthash"}, "value": 0.01000262, "n": 0}, {"scriptPubKey": {"reqSigs": 1, "hex": "76a914f82be04cb34275bdcdf8ce06672be50b6f14b9b788ac", "addresses": ["1PdD99LRcE2AVLfStQijayAak9Aw7GLjck"], "asm": "OP_DUP OP_HASH160 f82be04cb34275bdcdf8ce06672be50b6f14b9b7 OP_EQUALVERIFY OP_CHECKSIG", "type": "pubkeyhash"}, "value": 0.0027536, "n": 1}], "hex": "02000000000102dfcf8f63585a994d252d50f3d517664f1fbe21990175568a7a59393bfb9672a0000000001716001441988263a1c9a668e3933daec4225d7304650b74feffffffe80fe32e16689d1d88bdd2ecca87ab72af95e1d50da698492197da3672378e7b1200000017160014698f426a2efb3be3e167123e85012caa9b18c0f6feffffff0246430f000000000017a9148e4a6d3a9ded966d12c38ec424b1f50abbc3680487a0330400000000001976a914f82be04cb34275bdcdf8ce06672be50b6f14b9b788ac02473044022015c2b3fa0de553c366c28cc85fc13eee520bd940460a27aaaf145869d5d5627a02201acc8e2f5a31ffb7f16ef323d3d1824d6a535c959344be04e80884d77f4d0e100121036afe64575d5950b78f37953d6a2e1d58292f120af8d90a3f147a8ec3f3f2bcc102473044022050fc269f8931e3ef2f6dbf9938060b2344e4850a06d1b9915fd3185bc257c11b02202c0420ca5a54a084b45310efd219600cb999f76bd13454110c027840db9b07770121024a26704f3ec8cfb32eaf95d4d3d7bf1a0e6e7dc13ef9baa52667796b7a13a9cd12490800", "vin": [{"txinwitness": ["3044022015c2b3fa0de553c366c28cc85fc13eee520bd940460a27aaaf145869d5d5627a02201acc8e2f5a31ffb7f16ef323d3d1824d6a535c959344be04e80884d77f4d0e1001", "036afe64575d5950b78f37953d6a2e1d58292f120af8d90a3f147a8ec3f3f2bcc1"], "sequence": 4294967294, "scriptSig": {"hex": "16001441988263a1c9a668e3933daec4225d7304650b74", "asm": "001441988263a1c9a668e3933daec4225d7304650b74"}, "vout": 0, "txid": "a07296fb3b39597a8a5675019921be1f4f6617d5f3502d254d995a58638fcfdf"}, {"txinwitness": ["3044022050fc269f8931e3ef2f6dbf9938060b2344e4850a06d1b9915fd3185bc257c11b02202c0420ca5a54a084b45310efd219600cb999f76bd13454110c027840db9b077701", "024a26704f3ec8cfb32eaf95d4d3d7bf1a0e6e7dc13ef9baa52667796b7a13a9cd"], "sequence": 4294967294, "scriptSig": {"hex": "160014698f426a2efb3be3e167123e85012caa9b18c0f6", "asm": "0014698f426a2efb3be3e167123e85012caa9b18c0f6"}, "vout": 18, "txid": "7b8e377236da97214998a60dd5e195af72ab87caecd2bd881d9d68162ee30fe8"}], "txid": "839e343affd07a43112cf00da832226c54716ec820c16f81b0003e0492aaa1eb", "blocktime": 1537872475, "version": 2, "confirmations": 11487, "time": 1537872475, "locktime": 542994, "vsize": 258, "size": 420}