{"hash": "83a24fddf8aeb1171f47f212704bc0ac7bd977e8843da28fd0f71f2ee7742458", "blockhash": "0000000000000000001cda96e906b7601b7a6fb1a3b62bca570a9e5d8f4b3de1", "vout": [{"scriptPubKey": {"reqSigs": 1, "hex": "76a91487684525135186a503b553249ada758a2d6568ca88ac", "addresses": ["1DLy8iCyEmEC5kiPgwB34s6yrJh39xSXop"], "asm": "OP_DUP OP_HASH160 87684525135186a503b553249ada758a2d6568ca OP_EQUALVERIFY OP_CHECKSIG", "type": "pubkeyhash"}, "value": 5.46e-06, "n": 0}, {"scriptPubKey": {"type": "nulldata", "hex": "6a146f6d6e69000000000000001f0000000a62395f00", "asm": "OP_RETURN 6f6d6e69000000000000001f0000000a62395f00"}, "value": 0.0, "n": 1}, {"scriptPubKey": {"reqSigs": 1, "hex": "76a914a520c86a08366941cd90d22e11ac1c7eefa2db3788ac", "addresses": ["1G47mSr3oANXMafVrR8UC4pzV7FEAzo3r9"], "asm": "OP_DUP OP_HASH160 a520c86a08366941cd90d22e11ac1c7eefa2db37 OP_EQUALVERIFY OP_CHECKSIG", "type": "pubkeyhash"}, "value": 0.92965065, "n": 2}], "hex": "0100000001bfbd7943456a1380ffee6bd2cc4773ddf892030421e808f5018366a9febfc943000000006b483045022100f360d510dbab7a23ed15e1d0afae4258aac94aed7f9acd8b8349ad57eb0386f3022026110a9b8e19e67aef9ef59d55b11b7da36b610db11b087ee67801830b6ef1b4012103f3f44c9e80e2cedc1a2909631a3adea8866ee32187f74d0912387359b0ff36a2ffffffff0322020000000000001976a91487684525135186a503b553249ada758a2d6568ca88ac0000000000000000166a146f6d6e69000000000000001f0000000a62395f00c9888a05000000001976a914a520c86a08366941cd90d22e11ac1c7eefa2db3788ac00000000", "vin": [{"sequence": 4294967295, "scriptSig": {"hex": "483045022100f360d510dbab7a23ed15e1d0afae4258aac94aed7f9acd8b8349ad57eb0386f3022026110a9b8e19e67aef9ef59d55b11b7da36b610db11b087ee67801830b6ef1b4012103f3f44c9e80e2cedc1a2909631a3adea8866ee32187f74d0912387359b0ff36a2", "asm": "3045022100f360d510dbab7a23ed15e1d0afae4258aac94aed7f9acd8b8349ad57eb0386f3022026110a9b8e19e67aef9ef59d55b11b7da36b610db11b087ee67801830b6ef1b4[ALL] 03f3f44c9e80e2cedc1a2909631a3adea8866ee32187f74d0912387359b0ff36a2"}, "vout": 0, "txid": "43c9bffea9668301f508e821040392f8dd7347ccd26beeff80136a454379bdbf"}], "txid": "83a24fddf8aeb1171f47f212704bc0ac7bd977e8843da28fd0f71f2ee7742458", "blocktime": 1537873282, "version": 1, "confirmations": 11481, "time": 1537873282, "locktime": 0, "vsize": 257, "size": 257}