{"hash": "2dfe9ed3a3d59487a3a2facb6534ebc41ce42bb764e0e7a6b4f47ecf28c64209", "blockhash": "00000000000000000017f5eb5941039fbcee6240d03bc1f2f8e35350df66a1d8", "vout": [{"scriptPubKey": {"reqSigs": 1, "hex": "a914a664f718d0103996c0c62c7ac9e009eec76307fe87", "addresses": ["3Grq3aFzKhNMRc88479fLhBQvPKiNR8uYs"], "asm": "OP_HASH160 a664f718d0103996c0c62c7ac9e009eec76307fe OP_EQUAL", "type": "scripthash"}, "value": 0.01006305, "n": 0}, {"scriptPubKey": {"reqSigs": 1, "hex": "76a914574354c720cf3b720c8ee30cecbe6314e249170388ac", "addresses": ["18xQSwYqZXJWWQqE3kvgivPfAJyxZBJ5d3"], "asm": "OP_DUP OP_HASH160 574354c720cf3b720c8ee30cecbe6314e2491703 OP_EQUALVERIFY OP_CHECKSIG", "type": "pubkeyhash"}, "value": 0.01032, "n": 1}], "hex": "0200000000010258535fc7e487b408b19cf4228fb66dda23210995e373f055ae70bd9962b9f9f60b000000171600142c9454bb7056e4d87414a4276c0eb0fdd2d3a817feffffff96b815d3dbcac3b8354f29b37ddda2faa02a5eaa780876e3555d0f25627b72b6010000001716001483b094f642d2cc3bc013ffefec74eceb7a4b24cafeffffff02e15a0f000000000017a914a664f718d0103996c0c62c7ac9e009eec76307fe8740bf0f00000000001976a914574354c720cf3b720c8ee30cecbe6314e249170388ac02483045022100d8ed15e7571de139226cb6471208ff68bb48681323abc16ac7442fd9c773de3002202fc6aff59d40029529a828570cbeb659c781db71a88887ed340c452a31103007012102e2893912660fe7b274486ffbb0a9347649846df172d050bae2f00c7bf0b2983002483045022100b30029d8ea40eb6a1a5daf523d360179de0eb271b6a9f12b539c985c373b4cb802204df8dc73449b5bdf170264dcb5ae3f16b258fdebeefb2f6db70c8afc6ca1f579012102229cae654dcd6f85285fc5e3940d270bf00bc0969de553b3845d7ce579f9efaa15490800", "vin": [{"txinwitness": ["3045022100d8ed15e7571de139226cb6471208ff68bb48681323abc16ac7442fd9c773de3002202fc6aff59d40029529a828570cbeb659c781db71a88887ed340c452a3110300701", "02e2893912660fe7b274486ffbb0a9347649846df172d050bae2f00c7bf0b29830"], "sequence": 4294967294, "scriptSig": {"hex": "1600142c9454bb7056e4d87414a4276c0eb0fdd2d3a817", "asm": "00142c9454bb7056e4d87414a4276c0eb0fdd2d3a817"}, "vout": 11, "txid": "f6f9b96299bd70ae55f073e395092123da6db68f22f49cb108b487e4c75f5358"}, {"txinwitness": ["3045022100b30029d8ea40eb6a1a5daf523d360179de0eb271b6a9f12b539c985c373b4cb802204df8dc73449b5bdf170264dcb5ae3f16b258fdebeefb2f6db70c8afc6ca1f57901", "02229cae654dcd6f85285fc5e3940d270bf00bc0969de553b3845d7ce579f9efaa"], "sequence": 4294967294, "scriptSig": {"hex": "16001483b094f642d2cc3bc013ffefec74eceb7a4b24ca", "asm": "001483b094f642d2cc3bc013ffefec74eceb7a4b24ca"}, "vout": 1, "txid": "b6727b62250f5d55e3760878aa5e2aa0faa2dd7db3294f35b8c3cadbd315b896"}], "txid": "83a7bfa9e981773d58e9b7c57079c0f021afcde3b47cd2d23c626d2086870176", "blocktime": 1537874412, "version": 2, "confirmations": 11468, "time": 1537874412, "locktime": 542997, "vsize": 259, "size": 422}