{"hash": "83a8bd7bcafe947af26f46413b854371d149fe81b990d2b9dc321c896e91889f", "blockhash": "00000000000000000017f5eb5941039fbcee6240d03bc1f2f8e35350df66a1d8", "vout": [{"scriptPubKey": {"reqSigs": 1, "hex": "a91481456a2d67d25aa9fd38615e31119410bb4101f887", "addresses": ["3DUYFK2akvYBXXcvvjnRmrWRRAPQWwq7cp"], "asm": "OP_HASH160 81456a2d67d25aa9fd38615e31119410bb4101f8 OP_EQUAL", "type": "scripthash"}, "value": 0.00011332, "n": 0}, {"scriptPubKey": {"reqSigs": 1, "hex": "76a914dee9b91ee1e3aa112453087bfd832a38d12a9f1f88ac", "addresses": ["1MKezxL5DzdreTNfRQgSgrjhk51MWEZpAE"], "asm": "OP_DUP OP_HASH160 dee9b91ee1e3aa112453087bfd832a38d12a9f1f OP_EQUALVERIFY OP_CHECKSIG", "type": "pubkeyhash"}, "value": 0.00025312, "n": 1}], "hex": "010000000187571ffc34342bcae5c5de4a8673b00eefe7df9565847ab4265c7a3053865fb2000000006b483045022100e5b109a5e980f8d4883909dd1347c15406f4cf8a5bf2975d266c894b3c6ca83f022000dd2a731ac04237ab442f1a7e5432606361849483d931fed1da8a0bf98abaa10121031f71bb35ef857d07561dd0c4591c93a455eef45080ad2b5c6cfc9d71bbc3def2ffffffff02442c00000000000017a91481456a2d67d25aa9fd38615e31119410bb4101f887e0620000000000001976a914dee9b91ee1e3aa112453087bfd832a38d12a9f1f88ac00000000", "vin": [{"sequence": 4294967295, "scriptSig": {"hex": "483045022100e5b109a5e980f8d4883909dd1347c15406f4cf8a5bf2975d266c894b3c6ca83f022000dd2a731ac04237ab442f1a7e5432606361849483d931fed1da8a0bf98abaa10121031f71bb35ef857d07561dd0c4591c93a455eef45080ad2b5c6cfc9d71bbc3def2", "asm": "3045022100e5b109a5e980f8d4883909dd1347c15406f4cf8a5bf2975d266c894b3c6ca83f022000dd2a731ac04237ab442f1a7e5432606361849483d931fed1da8a0bf98abaa1[ALL] 031f71bb35ef857d07561dd0c4591c93a455eef45080ad2b5c6cfc9d71bbc3def2"}, "vout": 0, "txid": "b25f8653307a5c26b47a846595dfe7ef0eb073864adec5e5ca2b3434fc1f5787"}], "txid": "83a8bd7bcafe947af26f46413b854371d149fe81b990d2b9dc321c896e91889f", "blocktime": 1537874412, "version": 1, "confirmations": 11467, "time": 1537874412, "locktime": 0, "vsize": 224, "size": 224}