{"hash": "83b38ca587588782002b0f51e39ecb4c502f7a70ac82f3c6730036d3d284ce5c", "blockhash": "00000000000000000004ffacab907a6b429b9a5745fa0b75af4234bf69dd7176", "vout": [{"scriptPubKey": {"reqSigs": 1, "hex": "a9142c58ff251edd4cc4aa3d09f92bc4fb168ae31d1487", "addresses": ["35jWGadYi6zdgQD3xUBeD5CrhnAXco6W7Q"], "asm": "OP_HASH160 2c58ff251edd4cc4aa3d09f92bc4fb168ae31d14 OP_EQUAL", "type": "scripthash"}, "value": 500.0, "n": 0}, {"scriptPubKey": {"reqSigs": 1, "hex": "76a914bae025140c454518b8cba0c25d45a6dc87f4b9ce88ac", "addresses": ["1J37CY8hcdUXQ1KfBhMCsUVafa8XjDsdCn"], "asm": "OP_DUP OP_HASH160 bae025140c454518b8cba0c25d45a6dc87f4b9ce OP_EQUALVERIFY OP_CHECKSIG", "type": "pubkeyhash"}, "value": 19.94053227, "n": 1}], "hex": "010000000f0e4129447aa22f82746710153dc7be5ed8c82bbea39a7f32906b705efa1087dd020000008a47304402203b3cec304b3eb3df68b13761f24bbb57b0b3a5c0a6eb57471009509b5454c470022055dd33c0fe9f3c7d3f8a6e84974302c3217f8dfe2e5c3dcfb35dc46c66cb0b26014104025a1cffe502a80dfa1f543ae14c082aff24d5ecadab160ca904d288eed8e3d8cacef0985f690868df4f416c3890909b4c0c843da153d41382ac20c80170240affffffffa853effe4ee34ffc670feeff41399b0f9f45762f55d6a29ac340fddcf87728d2020000008a4730440220542207654ddafc0ee08ef496dc44885bf781f90b3018ffa07994410add33fbf602207bd978926105deca7e196936cb81b76a5afaae8485f761d4bb71fa87f4cff84c014104025a1cffe502a80dfa1f543ae14c082aff24d5ecadab160ca904d288eed8e3d8cacef0985f690868df4f416c3890909b4c0c843da153d41382ac20c80170240affffffffa853effe4ee34ffc670feeff41399b0f9f45762f55d6a29ac340fddcf87728d2010000008a47304402203bc89ffb2bd64aae14f2782f92624309ceefa616ce7eb13862eb15cbded56cc2022055bf99041e5872cb5edef711e1314f0996fe9cf674b42dbc73ec0baf6e9ca1c0014104025a1cffe502a80dfa1f543ae14c082aff24d5ecadab160ca904d288eed8e3d8cacef0985f690868df4f416c3890909b4c0c843da153d41382ac20c80170240affffffffdd42cc2a5180a89f67a4ff71d3cb39536f2db4c278330db476865f9016a2aecd000000008a473044022009ec9a239e57aba3a20ba5ba4c68f231103f334523b57656462d83a8cb5c0a0a02203b0489636db37290122b97d971db938c729df16de616fc89b1a2c4490d85d2330141041c5fc04f9b9f71e772e8afe6e8ff237ea20eda7d8da569f9c760aec275368634a2df06f523a4b8cfe2c7c0687eca064c7f8ba0c490c470693c22b29c0ade0e54ffffffff19e3df1eaf5bf70e62cf0308062789cb841f2bdcb46f3cc989c190185f0b0207060000008a473044022025153f25f561949de25bd892137dad72808a2d463953ba91a18b316ec46becfc02206c582d799de594515f1024f3a3fe1b395bec131109f44012eae3a73a7d74f5c4014104759beb61c6e1074193c3be89e9c1fe33f94bacbeae76dcbf18e5c46032047fdb6c1f8f9a3c4834ce263cede116a2e38be12cec327426582490ea0eb8da23b32cffffffffab3e4746c672da07f2787d2b5ca0fda8a04d240c770ce5aa691162f905f1b41e010000006b483045022100dedf72aa0fa34153863286ce5d112a1dd85b477a80364a5cf0f89de4b8d695f202204b5f3ba32b56f1ba849308c03fc602b482feb1bb5897afa3b1c42f467609e1690121033a5820d904111152b1967a00a0f8e2c3d89a855d8bc8f37235b27ae642102d0cffffffff94e717612fc61a03e815b0d46db4d697afa4516a1a6bc5e28df50c647a5ecfb6010000008a47304402201e89cf9ebd085e20714c924e4a204c716b48b7f1b6d87614911e199c59cd98f7022079833c024e6fdbe25b4b51ceeb79b95b9f1354e540a7adb94645f010ab3389e4014104025a1cffe502a80dfa1f543ae14c082aff24d5ecadab160ca904d288eed8e3d8cacef0985f690868df4f416c3890909b4c0c843da153d41382ac20c80170240affffffffad2c7ab584e71af6aa841491194ff0fc56d31fcb213f7788d3e5bde3a2342d29010000006a47304402202608e55e310eaebd713d1dfe4209a27c0b2babec7270a37bc651247801f5cce1022010ae03c4cd3dc04722e22acae3630f0f9fba5d10bbd242b8ddc481ea5fa5f49a012103ecfded312dde794609c8a3b8c9bbbac6047df39ebb1ff873b0a22b273649e59cffffffffe909b18298ff9c858541d54468d86f55f7f93258a60956abfdd4f549e2fb588e010000008a47304402201170cca97bb35335741c8373ae3825f867ffaafff04625e07208dd7003de5e0602200373305467d96212970e764ad65b45bb132876c1eacf107a8b93db57316ac2dd014104025a1cffe502a80dfa1f543ae14c082aff24d5ecadab160ca904d288eed8e3d8cacef0985f690868df4f416c3890909b4c0c843da153d41382ac20c80170240affffffff551fadae2468efa20a6fd278808bfd1e844c466db023b5d52291f605e8bb1b6f010000008b483045022100b5bb66a360f7da4ba9620e03c989b9b60364758fa5ebb72ce6b4706c1d12af5f0220695357dfd2b39e9d385eceeb9a1bf5aee918e72c180ff2cf835ba4896d335479014104025a1cffe502a80dfa1f543ae14c082aff24d5ecadab160ca904d288eed8e3d8cacef0985f690868df4f416c3890909b4c0c843da153d41382ac20c80170240affffffff1ebf1717b9f505f6c087a49ddc481967ad39c204ec57b8f1e18dbdb54ee97c20010000006b4830450221009ed45cecd3918668e1d769e85f63536fdb3015f9d7fd1757d7db9a7e701cfb0702202f447c41fbcc9f01e50ac12dad997a84dddddeb805ee41b1ebd281bb53a7bb5c0121033a5820d904111152b1967a00a0f8e2c3d89a855d8bc8f37235b27ae642102d0cffffffffa90c09f9890f699908b092b3f4f88c7142dff5cacb6224b73d7d60feede1c52c070000006a47304402205bb1ae4bb9e3aa2456a5175d408cd9fa6632cc988593ae76d7172dda73cc225d0220214aefc4f713b52feaeb76024a24ddda9e3ca443eec48f4cdc222505a9ccba79012103d8f692afb15dfaa35f554effbaf2fad606da4e3554deb9d506734926f14f7580ffffffff4c0cb3337ca78e3872a68298c99bf7c27cc4ac4a6554c1ead5118add97fa0fd21e0000008a473044022056b8de61970b14f4f7795c472ba1ec603fdf61a52a5ec08544cc2f2bca101dbe022026c63df4653b71c45288635e1ce5eff2e5be11b92405e71c1d5adc272cb284db014104565d212e7829efdbf3d46af0602d53cf69ffd514925980425dd8b806f53a313d165ddc50a8215b900cb6d382c36a894ca07c47627c9d2a3d99f3a910e8f31edfffffffffb2154ded4e96218823776737b3fee68f5fac5e8d7f2a03149093c4be04555f88020000008b483045022100c05e638f4abb892acc6a29b23fe00e542245f19b274e889f8ff683aee85f0965022059c7c9e22f263832627773e58f612101e7e89e2a5378fdfadf2ad09b02a1c5e4014104565d212e7829efdbf3d46af0602d53cf69ffd514925980425dd8b806f53a313d165ddc50a8215b900cb6d382c36a894ca07c47627c9d2a3d99f3a910e8f31edfffffffff723a3c37e5048cd223731c6291f8d6a712abf1d56afe96ec014a0bdbf3ef8fdb090000008b483045022100b1cfddb46a5560dc8093cb969c38e40b2102957813bd86e39054e74a108ddee302205a7ad62c038bc55cc8bbe63c72bcb0ddcecac76cd7887644f4d988143ebba7db01410409c089f3cdd518d3e9ae7f5f57845b0f7d1052d9e78bb8f14e297cb39e51196f353fba9a971a205b5d5d827648475b0a84b5302df39056ec3e82d72a01059b36ffffffff0200743ba40b00000017a9142c58ff251edd4cc4aa3d09f92bc4fb168ae31d14876bd6da76000000001976a914bae025140c454518b8cba0c25d45a6dc87f4b9ce88ac00000000", "vin": [{"sequence": 4294967295, "scriptSig": {"hex": "47304402203b3cec304b3eb3df68b13761f24bbb57b0b3a5c0a6eb57471009509b5454c470022055dd33c0fe9f3c7d3f8a6e84974302c3217f8dfe2e5c3dcfb35dc46c66cb0b26014104025a1cffe502a80dfa1f543ae14c082aff24d5ecadab160ca904d288eed8e3d8cacef0985f690868df4f416c3890909b4c0c843da153d41382ac20c80170240a", "asm": "304402203b3cec304b3eb3df68b13761f24bbb57b0b3a5c0a6eb57471009509b5454c470022055dd33c0fe9f3c7d3f8a6e84974302c3217f8dfe2e5c3dcfb35dc46c66cb0b26[ALL] 04025a1cffe502a80dfa1f543ae14c082aff24d5ecadab160ca904d288eed8e3d8cacef0985f690868df4f416c3890909b4c0c843da153d41382ac20c80170240a"}, "vout": 2, "txid": "dd8710fa5e706b90327f9aa3be2bc8d85ebec73d15106774822fa27a4429410e"}, {"sequence": 4294967295, "scriptSig": {"hex": "4730440220542207654ddafc0ee08ef496dc44885bf781f90b3018ffa07994410add33fbf602207bd978926105deca7e196936cb81b76a5afaae8485f761d4bb71fa87f4cff84c014104025a1cffe502a80dfa1f543ae14c082aff24d5ecadab160ca904d288eed8e3d8cacef0985f690868df4f416c3890909b4c0c843da153d41382ac20c80170240a", "asm": "30440220542207654ddafc0ee08ef496dc44885bf781f90b3018ffa07994410add33fbf602207bd978926105deca7e196936cb81b76a5afaae8485f761d4bb71fa87f4cff84c[ALL] 04025a1cffe502a80dfa1f543ae14c082aff24d5ecadab160ca904d288eed8e3d8cacef0985f690868df4f416c3890909b4c0c843da153d41382ac20c80170240a"}, "vout": 2, "txid": "d22877f8dcfd40c39aa2d6552f76459f0f9b3941ffee0f67fc4fe34efeef53a8"}, {"sequence": 4294967295, "scriptSig": {"hex": "47304402203bc89ffb2bd64aae14f2782f92624309ceefa616ce7eb13862eb15cbded56cc2022055bf99041e5872cb5edef711e1314f0996fe9cf674b42dbc73ec0baf6e9ca1c0014104025a1cffe502a80dfa1f543ae14c082aff24d5ecadab160ca904d288eed8e3d8cacef0985f690868df4f416c3890909b4c0c843da153d41382ac20c80170240a", "asm": "304402203bc89ffb2bd64aae14f2782f92624309ceefa616ce7eb13862eb15cbded56cc2022055bf99041e5872cb5edef711e1314f0996fe9cf674b42dbc73ec0baf6e9ca1c0[ALL] 04025a1cffe502a80dfa1f543ae14c082aff24d5ecadab160ca904d288eed8e3d8cacef0985f690868df4f416c3890909b4c0c843da153d41382ac20c80170240a"}, "vout": 1, "txid": "d22877f8dcfd40c39aa2d6552f76459f0f9b3941ffee0f67fc4fe34efeef53a8"}, {"sequence": 4294967295, "scriptSig": {"hex": "473044022009ec9a239e57aba3a20ba5ba4c68f231103f334523b57656462d83a8cb5c0a0a02203b0489636db37290122b97d971db938c729df16de616fc89b1a2c4490d85d2330141041c5fc04f9b9f71e772e8afe6e8ff237ea20eda7d8da569f9c760aec275368634a2df06f523a4b8cfe2c7c0687eca064c7f8ba0c490c470693c22b29c0ade0e54", "asm": "3044022009ec9a239e57aba3a20ba5ba4c68f231103f334523b57656462d83a8cb5c0a0a02203b0489636db37290122b97d971db938c729df16de616fc89b1a2c4490d85d233[ALL] 041c5fc04f9b9f71e772e8afe6e8ff237ea20eda7d8da569f9c760aec275368634a2df06f523a4b8cfe2c7c0687eca064c7f8ba0c490c470693c22b29c0ade0e54"}, "vout": 0, "txid": "cdaea216905f8676b40d3378c2b42d6f5339cbd371ffa4679fa880512acc42dd"}, {"sequence": 4294967295, "scriptSig": {"hex": "473044022025153f25f561949de25bd892137dad72808a2d463953ba91a18b316ec46becfc02206c582d799de594515f1024f3a3fe1b395bec131109f44012eae3a73a7d74f5c4014104759beb61c6e1074193c3be89e9c1fe33f94bacbeae76dcbf18e5c46032047fdb6c1f8f9a3c4834ce263cede116a2e38be12cec327426582490ea0eb8da23b32c", "asm": "3044022025153f25f561949de25bd892137dad72808a2d463953ba91a18b316ec46becfc02206c582d799de594515f1024f3a3fe1b395bec131109f44012eae3a73a7d74f5c4[ALL] 04759beb61c6e1074193c3be89e9c1fe33f94bacbeae76dcbf18e5c46032047fdb6c1f8f9a3c4834ce263cede116a2e38be12cec327426582490ea0eb8da23b32c"}, "vout": 6, "txid": "07020b5f1890c189c93c6fb4dc2b1f84cb8927060803cf620ef75baf1edfe319"}, {"sequence": 4294967295, "scriptSig": {"hex": "483045022100dedf72aa0fa34153863286ce5d112a1dd85b477a80364a5cf0f89de4b8d695f202204b5f3ba32b56f1ba849308c03fc602b482feb1bb5897afa3b1c42f467609e1690121033a5820d904111152b1967a00a0f8e2c3d89a855d8bc8f37235b27ae642102d0c", "asm": "3045022100dedf72aa0fa34153863286ce5d112a1dd85b477a80364a5cf0f89de4b8d695f202204b5f3ba32b56f1ba849308c03fc602b482feb1bb5897afa3b1c42f467609e169[ALL] 033a5820d904111152b1967a00a0f8e2c3d89a855d8bc8f37235b27ae642102d0c"}, "vout": 1, "txid": "1eb4f105f9621169aae50c770c244da0a8fda05c2b7d78f207da72c646473eab"}, {"sequence": 4294967295, "scriptSig": {"hex": "47304402201e89cf9ebd085e20714c924e4a204c716b48b7f1b6d87614911e199c59cd98f7022079833c024e6fdbe25b4b51ceeb79b95b9f1354e540a7adb94645f010ab3389e4014104025a1cffe502a80dfa1f543ae14c082aff24d5ecadab160ca904d288eed8e3d8cacef0985f690868df4f416c3890909b4c0c843da153d41382ac20c80170240a", "asm": "304402201e89cf9ebd085e20714c924e4a204c716b48b7f1b6d87614911e199c59cd98f7022079833c024e6fdbe25b4b51ceeb79b95b9f1354e540a7adb94645f010ab3389e4[ALL] 04025a1cffe502a80dfa1f543ae14c082aff24d5ecadab160ca904d288eed8e3d8cacef0985f690868df4f416c3890909b4c0c843da153d41382ac20c80170240a"}, "vout": 1, "txid": "b6cf5e7a640cf58de2c56b1a6a51a4af97d6b46dd4b015e8031ac62f6117e794"}, {"sequence": 4294967295, "scriptSig": {"hex": "47304402202608e55e310eaebd713d1dfe4209a27c0b2babec7270a37bc651247801f5cce1022010ae03c4cd3dc04722e22acae3630f0f9fba5d10bbd242b8ddc481ea5fa5f49a012103ecfded312dde794609c8a3b8c9bbbac6047df39ebb1ff873b0a22b273649e59c", "asm": "304402202608e55e310eaebd713d1dfe4209a27c0b2babec7270a37bc651247801f5cce1022010ae03c4cd3dc04722e22acae3630f0f9fba5d10bbd242b8ddc481ea5fa5f49a[ALL] 03ecfded312dde794609c8a3b8c9bbbac6047df39ebb1ff873b0a22b273649e59c"}, "vout": 1, "txid": "292d34a2e3bde5d388773f21cb1fd356fcf04f19911484aaf61ae784b57a2cad"}, {"sequence": 4294967295, "scriptSig": {"hex": "47304402201170cca97bb35335741c8373ae3825f867ffaafff04625e07208dd7003de5e0602200373305467d96212970e764ad65b45bb132876c1eacf107a8b93db57316ac2dd014104025a1cffe502a80dfa1f543ae14c082aff24d5ecadab160ca904d288eed8e3d8cacef0985f690868df4f416c3890909b4c0c843da153d41382ac20c80170240a", "asm": "304402201170cca97bb35335741c8373ae3825f867ffaafff04625e07208dd7003de5e0602200373305467d96212970e764ad65b45bb132876c1eacf107a8b93db57316ac2dd[ALL] 04025a1cffe502a80dfa1f543ae14c082aff24d5ecadab160ca904d288eed8e3d8cacef0985f690868df4f416c3890909b4c0c843da153d41382ac20c80170240a"}, "vout": 1, "txid": "8e58fbe249f5d4fdab5609a65832f9f7556fd86844d54185859cff9882b109e9"}, {"sequence": 4294967295, "scriptSig": {"hex": "483045022100b5bb66a360f7da4ba9620e03c989b9b60364758fa5ebb72ce6b4706c1d12af5f0220695357dfd2b39e9d385eceeb9a1bf5aee918e72c180ff2cf835ba4896d335479014104025a1cffe502a80dfa1f543ae14c082aff24d5ecadab160ca904d288eed8e3d8cacef0985f690868df4f416c3890909b4c0c843da153d41382ac20c80170240a", "asm": "3045022100b5bb66a360f7da4ba9620e03c989b9b60364758fa5ebb72ce6b4706c1d12af5f0220695357dfd2b39e9d385eceeb9a1bf5aee918e72c180ff2cf835ba4896d335479[ALL] 04025a1cffe502a80dfa1f543ae14c082aff24d5ecadab160ca904d288eed8e3d8cacef0985f690868df4f416c3890909b4c0c843da153d41382ac20c80170240a"}, "vout": 1, "txid": "6f1bbbe805f69122d5b523b06d464c841efd8b8078d26f0aa2ef6824aead1f55"}, {"sequence": 4294967295, "scriptSig": {"hex": "4830450221009ed45cecd3918668e1d769e85f63536fdb3015f9d7fd1757d7db9a7e701cfb0702202f447c41fbcc9f01e50ac12dad997a84dddddeb805ee41b1ebd281bb53a7bb5c0121033a5820d904111152b1967a00a0f8e2c3d89a855d8bc8f37235b27ae642102d0c", "asm": "30450221009ed45cecd3918668e1d769e85f63536fdb3015f9d7fd1757d7db9a7e701cfb0702202f447c41fbcc9f01e50ac12dad997a84dddddeb805ee41b1ebd281bb53a7bb5c[ALL] 033a5820d904111152b1967a00a0f8e2c3d89a855d8bc8f37235b27ae642102d0c"}, "vout": 1, "txid": "207ce94eb5bd8de1f1b857ec04c239ad671948dc9da487c0f605f5b91717bf1e"}, {"sequence": 4294967295, "scriptSig": {"hex": "47304402205bb1ae4bb9e3aa2456a5175d408cd9fa6632cc988593ae76d7172dda73cc225d0220214aefc4f713b52feaeb76024a24ddda9e3ca443eec48f4cdc222505a9ccba79012103d8f692afb15dfaa35f554effbaf2fad606da4e3554deb9d506734926f14f7580", "asm": "304402205bb1ae4bb9e3aa2456a5175d408cd9fa6632cc988593ae76d7172dda73cc225d0220214aefc4f713b52feaeb76024a24ddda9e3ca443eec48f4cdc222505a9ccba79[ALL] 03d8f692afb15dfaa35f554effbaf2fad606da4e3554deb9d506734926f14f7580"}, "vout": 7, "txid": "2cc5e1edfe607d3db72462cbcaf5df42718cf8f4b392b00899690f89f9090ca9"}, {"sequence": 4294967295, "scriptSig": {"hex": "473044022056b8de61970b14f4f7795c472ba1ec603fdf61a52a5ec08544cc2f2bca101dbe022026c63df4653b71c45288635e1ce5eff2e5be11b92405e71c1d5adc272cb284db014104565d212e7829efdbf3d46af0602d53cf69ffd514925980425dd8b806f53a313d165ddc50a8215b900cb6d382c36a894ca07c47627c9d2a3d99f3a910e8f31edf", "asm": "3044022056b8de61970b14f4f7795c472ba1ec603fdf61a52a5ec08544cc2f2bca101dbe022026c63df4653b71c45288635e1ce5eff2e5be11b92405e71c1d5adc272cb284db[ALL] 04565d212e7829efdbf3d46af0602d53cf69ffd514925980425dd8b806f53a313d165ddc50a8215b900cb6d382c36a894ca07c47627c9d2a3d99f3a910e8f31edf"}, "vout": 30, "txid": "d20ffa97dd8a11d5eac154654aacc47cc2f79bc99882a672388ea77c33b30c4c"}, {"sequence": 4294967295, "scriptSig": {"hex": "483045022100c05e638f4abb892acc6a29b23fe00e542245f19b274e889f8ff683aee85f0965022059c7c9e22f263832627773e58f612101e7e89e2a5378fdfadf2ad09b02a1c5e4014104565d212e7829efdbf3d46af0602d53cf69ffd514925980425dd8b806f53a313d165ddc50a8215b900cb6d382c36a894ca07c47627c9d2a3d99f3a910e8f31edf", "asm": "3045022100c05e638f4abb892acc6a29b23fe00e542245f19b274e889f8ff683aee85f0965022059c7c9e22f263832627773e58f612101e7e89e2a5378fdfadf2ad09b02a1c5e4[ALL] 04565d212e7829efdbf3d46af0602d53cf69ffd514925980425dd8b806f53a313d165ddc50a8215b900cb6d382c36a894ca07c47627c9d2a3d99f3a910e8f31edf"}, "vout": 2, "txid": "885f5504bec4939014032a7f8d5eac5f8fe6feb3376777238821964eed4d15b2"}, {"sequence": 4294967295, "scriptSig": {"hex": "483045022100b1cfddb46a5560dc8093cb969c38e40b2102957813bd86e39054e74a108ddee302205a7ad62c038bc55cc8bbe63c72bcb0ddcecac76cd7887644f4d988143ebba7db01410409c089f3cdd518d3e9ae7f5f57845b0f7d1052d9e78bb8f14e297cb39e51196f353fba9a971a205b5d5d827648475b0a84b5302df39056ec3e82d72a01059b36", "asm": "3045022100b1cfddb46a5560dc8093cb969c38e40b2102957813bd86e39054e74a108ddee302205a7ad62c038bc55cc8bbe63c72bcb0ddcecac76cd7887644f4d988143ebba7db[ALL] 0409c089f3cdd518d3e9ae7f5f57845b0f7d1052d9e78bb8f14e297cb39e51196f353fba9a971a205b5d5d827648475b0a84b5302df39056ec3e82d72a01059b36"}, "vout": 9, "txid": "db8feff3db0b4a01ec96fe6ad5f1ab12a7d6f891621c7323d28c04e5373c3a72"}], "txid": "83b38ca587588782002b0f51e39ecb4c502f7a70ac82f3c6730036d3d284ce5c", "blocktime": 1537875543, "version": 1, "confirmations": 11464, "time": 1537875543, "locktime": 0, "vsize": 2638, "size": 2638}