{"hash": "83b3bc7239a5273001ade0798ef0060a2002da12e40dedb8cc08ac7889138b04", "blockhash": "0000000000000000000e13cef7c366c0283d82e591d1acd082e914b08063cdf1", "vout": [{"scriptPubKey": {"reqSigs": 1, "hex": "76a914166f1cad04c48f8c18640475260d809e097388fd88ac", "addresses": ["133cyRGZeSAmAdR3rAE1PTf4VnyCQCtxhb"], "asm": "OP_DUP OP_HASH160 166f1cad04c48f8c18640475260d809e097388fd OP_EQUALVERIFY OP_CHECKSIG", "type": "pubkeyhash"}, "value": 0.00735206, "n": 0}], "hex": "010000000fae20528578b6c9b340251fcbb0c4d5d9b5fc6f72ff9f9e5faa4c9b8df7a4b80f000000006b483045022100c3107407387f31173bc38ed0727902d05608c303f4cf9ab6bb266454afec1dd4022061c42b8609725afad5e826a89583c35cdbd016fcb1f6e4e28b0ae1624a6061de012103f0fd765cbd17144fbd0eee761c451826507df3641ac525cb2553b20cd490543bffffffff4e053e0faad14fbb84f87b4ce4596b12bb6ebf94644d53fc9a61f9745aa1fd31000000006b48304502210098a945a42f54598101e04e9cf0882f710ae359b56a8ef2c9ffc944399081045d02206566ad127757059c6223da495da6bf45218634e2466148ea7b5e5c69282e0f84012103f7c368115ee549a8c1ede52596fe876519841aff044be0c83d2a46aca30c6ee9ffffffffd09f1794640a9bdd65a3dae5265dd51bb4b0dfd63259722f0c1cb1382c648334000000006b483045022100f2454a734e5dfa2c447141467c6a68efaad8fc4b45e9e8e740875417167320db02200f186919b7c474af24466e1c106dcf783ebc9e67aafe44e6ad0f253b28baf048012103f0fd765cbd17144fbd0eee761c451826507df3641ac525cb2553b20cd490543bffffffffb7e5e7af115b616dcfb545724ca6cc2e48acbbc77fb84c11df9ece8a28d6c251000000006b483045022100fb63dacced55e266beb7e76dc2704632ead98d5565a8a679dbbf8ca5758addf90220045e0f49e5f25f56db776d6eab41c22afe6664202550d086d9208be77b6d9c0e012103f0fd765cbd17144fbd0eee761c451826507df3641ac525cb2553b20cd490543bffffffff78d042dca3270c8dd8fc7ec4e0b486ed8125dbc50c6516f24171b1ffff58237d000000006b483045022100a442efe9317eeead7f8745f8d1623c9790ac043e723ff19084b835bfb64a995d022018829720fbc5c3c998d020cabfcfd133909899729042f2e58189181305d28f88012103fc62f8676d0a3f5a4a7c39f0ff30a2d5f3365e3dc90692e7520ab9a63126a405ffffffff5fbe47defd75f5978e5209635c0d469180dadb14b6a58bfe326b19e0f0b8e797000000006a4730440220336b21c5266348a10672e0665057e66bd95131dad7e3e3057542a56c5329e0c40220097c78fafa41cd3d1b391e7731c0d0d5b6155dd5e1cd167a962f41d5793d0cb6012103f0fd765cbd17144fbd0eee761c451826507df3641ac525cb2553b20cd490543bffffffffa59b45740b37f0f8ffea6c3a01f3c2a59bf2a2a2221372721ec9400df18220a2000000006a47304402205317b5be85593abfe57abb04f70d2f830d787775147a4eed5f01d0fbfa2ebe5e0220243ad5e67008db26153c44ad5be329f1895034fedbff07c85960123cc0b44575012103f0fd765cbd17144fbd0eee761c451826507df3641ac525cb2553b20cd490543bffffffff3410e0dd3b4fa34c151f7f51ba1f411fa094cb6d1986e1415e1492f7fad6d5c1000000006a473044022077116d724f246acc82acebf0d4cf582b2284913c554ee055a937cd64b30cc9b402207b47cad2297de66ddf6141736cbfa03dd90ec101d59f5b9b99e3299b35ca7153012103f7c368115ee549a8c1ede52596fe876519841aff044be0c83d2a46aca30c6ee9ffffffffe15a80d9775bb61d19d4f3f9d40c173cf69a8108e92f409f78399a10017422c6000000006a4730440220132b359b2d06e9398ad0d01be87d8009aa0c42f79385f6017774a2c015a8c12602204f543da1c97b8d187f26ba36813aa3badc782aefbab8bbf8619583bdf7bfec1d012103f0fd765cbd17144fbd0eee761c451826507df3641ac525cb2553b20cd490543bffffffff2b39c18bf4ebf95e74029597df337c0484201597c68cf1258a63b9de35446bcb000000006a473044022066a52580e3c8078d8f4db828c6d523c4a46dfaf38d0408d533ee444a29e25e67022068007591cd1d1c5f24057c2f6f6b7a08f8fb8a312c51234fbaf2e5af5daed642012103f0fd765cbd17144fbd0eee761c451826507df3641ac525cb2553b20cd490543bffffffff53849dbeeb5fdd1e5aa1790aefa251177a1336f6b492712569545d61908f5dd3000000006a4730440220164774a9f30112e27044e8e402a80149be75829328c98fa19caed0a9898cdad102201075adbfb660dd9e46de3db14fe3d3523115f8d16c53db54900b859825bcaab5012103f0fd765cbd17144fbd0eee761c451826507df3641ac525cb2553b20cd490543bffffffff38527480f50de63d136939b51a93990d8dbc20b96a4ed948a9299f1cc288c2ed000000006b483045022100b44527e13968fd6163bfea28a909cd799c3d097e310c8d3e3b548889374e67a4022046de5ae3bd338ab38156d70e1dd74445dae39badba0851ebb76d1dd46a77cddc012103f7c368115ee549a8c1ede52596fe876519841aff044be0c83d2a46aca30c6ee9ffffffffcfec42777107e5ec174b2359e696056b1ead4bc13a9dbc98e51043ba0cfe96f0000000006b483045022100b0bb03c2562c8713d592a95d4782dd97e0c7b6ab14caadd7364755e8894016a102201c403c1aa4c872a42bcf3bbf659ecb4a0a618266a70bb3ee5afa45319d84592b0121039692cbe4290b389a8c5f632e905021abc89ea159911b3b1e113445e5c3ac5337fffffffff4122e60cb1e454f80961b5914a33acf77b11768389b6a8f0d468f5f9f2b34f1000000006b48304502210084fa87d83d00970cf27c6c87591d73e7a69bde0651cdab7688dee700ca2f88a4022041fefa275b74242af764b3ce5c7bec0bd2e0713660bdfb2b2f8680b65609eb57012103f0fd765cbd17144fbd0eee761c451826507df3641ac525cb2553b20cd490543bfffffffffdf6145e5b20059974ae1004134d06ece7b71a23085fac0bbb0bc12de8a2ccfe000000006b483045022100e26c5361b8320745ec6f5b4c1b1a2c7414e4f9aa6dde2300fc1dc31db27f21a80220398d2ca09b3482ebd94b40f56b146b8c5fc0d52742c64f0ecd9c18f687300c9b012103f0fd765cbd17144fbd0eee761c451826507df3641ac525cb2553b20cd490543bffffffff01e6370b00000000001976a914166f1cad04c48f8c18640475260d809e097388fd88ac00000000", "vin": [{"sequence": 4294967295, "scriptSig": {"hex": "483045022100c3107407387f31173bc38ed0727902d05608c303f4cf9ab6bb266454afec1dd4022061c42b8609725afad5e826a89583c35cdbd016fcb1f6e4e28b0ae1624a6061de012103f0fd765cbd17144fbd0eee761c451826507df3641ac525cb2553b20cd490543b", "asm": "3045022100c3107407387f31173bc38ed0727902d05608c303f4cf9ab6bb266454afec1dd4022061c42b8609725afad5e826a89583c35cdbd016fcb1f6e4e28b0ae1624a6061de[ALL] 03f0fd765cbd17144fbd0eee761c451826507df3641ac525cb2553b20cd490543b"}, "vout": 0, "txid": "0fb8a4f78d9b4caa5f9e9fff726ffcb5d9d5c4b0cb1f2540b3c9b678855220ae"}, {"sequence": 4294967295, "scriptSig": {"hex": "48304502210098a945a42f54598101e04e9cf0882f710ae359b56a8ef2c9ffc944399081045d02206566ad127757059c6223da495da6bf45218634e2466148ea7b5e5c69282e0f84012103f7c368115ee549a8c1ede52596fe876519841aff044be0c83d2a46aca30c6ee9", "asm": "304502210098a945a42f54598101e04e9cf0882f710ae359b56a8ef2c9ffc944399081045d02206566ad127757059c6223da495da6bf45218634e2466148ea7b5e5c69282e0f84[ALL] 03f7c368115ee549a8c1ede52596fe876519841aff044be0c83d2a46aca30c6ee9"}, "vout": 0, "txid": "31fda15a74f9619afc534d6494bf6ebb126b59e44c7bf884bb4fd1aa0f3e054e"}, {"sequence": 4294967295, "scriptSig": {"hex": "483045022100f2454a734e5dfa2c447141467c6a68efaad8fc4b45e9e8e740875417167320db02200f186919b7c474af24466e1c106dcf783ebc9e67aafe44e6ad0f253b28baf048012103f0fd765cbd17144fbd0eee761c451826507df3641ac525cb2553b20cd490543b", "asm": "3045022100f2454a734e5dfa2c447141467c6a68efaad8fc4b45e9e8e740875417167320db02200f186919b7c474af24466e1c106dcf783ebc9e67aafe44e6ad0f253b28baf048[ALL] 03f0fd765cbd17144fbd0eee761c451826507df3641ac525cb2553b20cd490543b"}, "vout": 0, "txid": "3483642c38b11c0c2f725932d6dfb0b41bd55d26e5daa365dd9b0a6494179fd0"}, {"sequence": 4294967295, "scriptSig": {"hex": "483045022100fb63dacced55e266beb7e76dc2704632ead98d5565a8a679dbbf8ca5758addf90220045e0f49e5f25f56db776d6eab41c22afe6664202550d086d9208be77b6d9c0e012103f0fd765cbd17144fbd0eee761c451826507df3641ac525cb2553b20cd490543b", "asm": "3045022100fb63dacced55e266beb7e76dc2704632ead98d5565a8a679dbbf8ca5758addf90220045e0f49e5f25f56db776d6eab41c22afe6664202550d086d9208be77b6d9c0e[ALL] 03f0fd765cbd17144fbd0eee761c451826507df3641ac525cb2553b20cd490543b"}, "vout": 0, "txid": "51c2d6288ace9edf114cb87fc7bbac482ecca64c7245b5cf6d615b11afe7e5b7"}, {"sequence": 4294967295, "scriptSig": {"hex": "483045022100a442efe9317eeead7f8745f8d1623c9790ac043e723ff19084b835bfb64a995d022018829720fbc5c3c998d020cabfcfd133909899729042f2e58189181305d28f88012103fc62f8676d0a3f5a4a7c39f0ff30a2d5f3365e3dc90692e7520ab9a63126a405", "asm": "3045022100a442efe9317eeead7f8745f8d1623c9790ac043e723ff19084b835bfb64a995d022018829720fbc5c3c998d020cabfcfd133909899729042f2e58189181305d28f88[ALL] 03fc62f8676d0a3f5a4a7c39f0ff30a2d5f3365e3dc90692e7520ab9a63126a405"}, "vout": 0, "txid": "7d2358ffffb17141f216650cc5db2581ed86b4e0c47efcd88d0c27a3dc42d078"}, {"sequence": 4294967295, "scriptSig": {"hex": "4730440220336b21c5266348a10672e0665057e66bd95131dad7e3e3057542a56c5329e0c40220097c78fafa41cd3d1b391e7731c0d0d5b6155dd5e1cd167a962f41d5793d0cb6012103f0fd765cbd17144fbd0eee761c451826507df3641ac525cb2553b20cd490543b", "asm": "30440220336b21c5266348a10672e0665057e66bd95131dad7e3e3057542a56c5329e0c40220097c78fafa41cd3d1b391e7731c0d0d5b6155dd5e1cd167a962f41d5793d0cb6[ALL] 03f0fd765cbd17144fbd0eee761c451826507df3641ac525cb2553b20cd490543b"}, "vout": 0, "txid": "97e7b8f0e0196b32fe8ba5b614dbda8091460d5c6309528e97f575fdde47be5f"}, {"sequence": 4294967295, "scriptSig": {"hex": "47304402205317b5be85593abfe57abb04f70d2f830d787775147a4eed5f01d0fbfa2ebe5e0220243ad5e67008db26153c44ad5be329f1895034fedbff07c85960123cc0b44575012103f0fd765cbd17144fbd0eee761c451826507df3641ac525cb2553b20cd490543b", "asm": "304402205317b5be85593abfe57abb04f70d2f830d787775147a4eed5f01d0fbfa2ebe5e0220243ad5e67008db26153c44ad5be329f1895034fedbff07c85960123cc0b44575[ALL] 03f0fd765cbd17144fbd0eee761c451826507df3641ac525cb2553b20cd490543b"}, "vout": 0, "txid": "a22082f10d40c91e72721322a2a2f29ba5c2f3013a6ceafff8f0370b74459ba5"}, {"sequence": 4294967295, "scriptSig": {"hex": "473044022077116d724f246acc82acebf0d4cf582b2284913c554ee055a937cd64b30cc9b402207b47cad2297de66ddf6141736cbfa03dd90ec101d59f5b9b99e3299b35ca7153012103f7c368115ee549a8c1ede52596fe876519841aff044be0c83d2a46aca30c6ee9", "asm": "3044022077116d724f246acc82acebf0d4cf582b2284913c554ee055a937cd64b30cc9b402207b47cad2297de66ddf6141736cbfa03dd90ec101d59f5b9b99e3299b35ca7153[ALL] 03f7c368115ee549a8c1ede52596fe876519841aff044be0c83d2a46aca30c6ee9"}, "vout": 0, "txid": "c1d5d6faf792145e41e186196dcb94a01f411fba517f1f154ca34f3bdde01034"}, {"sequence": 4294967295, "scriptSig": {"hex": "4730440220132b359b2d06e9398ad0d01be87d8009aa0c42f79385f6017774a2c015a8c12602204f543da1c97b8d187f26ba36813aa3badc782aefbab8bbf8619583bdf7bfec1d012103f0fd765cbd17144fbd0eee761c451826507df3641ac525cb2553b20cd490543b", "asm": "30440220132b359b2d06e9398ad0d01be87d8009aa0c42f79385f6017774a2c015a8c12602204f543da1c97b8d187f26ba36813aa3badc782aefbab8bbf8619583bdf7bfec1d[ALL] 03f0fd765cbd17144fbd0eee761c451826507df3641ac525cb2553b20cd490543b"}, "vout": 0, "txid": "c6227401109a39789f402fe908819af63c170cd4f9f3d4191db65b77d9805ae1"}, {"sequence": 4294967295, "scriptSig": {"hex": "473044022066a52580e3c8078d8f4db828c6d523c4a46dfaf38d0408d533ee444a29e25e67022068007591cd1d1c5f24057c2f6f6b7a08f8fb8a312c51234fbaf2e5af5daed642012103f0fd765cbd17144fbd0eee761c451826507df3641ac525cb2553b20cd490543b", "asm": "3044022066a52580e3c8078d8f4db828c6d523c4a46dfaf38d0408d533ee444a29e25e67022068007591cd1d1c5f24057c2f6f6b7a08f8fb8a312c51234fbaf2e5af5daed642[ALL] 03f0fd765cbd17144fbd0eee761c451826507df3641ac525cb2553b20cd490543b"}, "vout": 0, "txid": "cb6b4435deb9638a25f18cc697152084047c33df979502745ef9ebf48bc1392b"}, {"sequence": 4294967295, "scriptSig": {"hex": "4730440220164774a9f30112e27044e8e402a80149be75829328c98fa19caed0a9898cdad102201075adbfb660dd9e46de3db14fe3d3523115f8d16c53db54900b859825bcaab5012103f0fd765cbd17144fbd0eee761c451826507df3641ac525cb2553b20cd490543b", "asm": "30440220164774a9f30112e27044e8e402a80149be75829328c98fa19caed0a9898cdad102201075adbfb660dd9e46de3db14fe3d3523115f8d16c53db54900b859825bcaab5[ALL] 03f0fd765cbd17144fbd0eee761c451826507df3641ac525cb2553b20cd490543b"}, "vout": 0, "txid": "d35d8f90615d5469257192b4f636137a1751a2ef0a79a15a1edd5febbe9d8453"}, {"sequence": 4294967295, "scriptSig": {"hex": "483045022100b44527e13968fd6163bfea28a909cd799c3d097e310c8d3e3b548889374e67a4022046de5ae3bd338ab38156d70e1dd74445dae39badba0851ebb76d1dd46a77cddc012103f7c368115ee549a8c1ede52596fe876519841aff044be0c83d2a46aca30c6ee9", "asm": "3045022100b44527e13968fd6163bfea28a909cd799c3d097e310c8d3e3b548889374e67a4022046de5ae3bd338ab38156d70e1dd74445dae39badba0851ebb76d1dd46a77cddc[ALL] 03f7c368115ee549a8c1ede52596fe876519841aff044be0c83d2a46aca30c6ee9"}, "vout": 0, "txid": "edc288c21c9f29a948d94e6ab920bc8d0d99931ab53969133de60df580745238"}, {"sequence": 4294967295, "scriptSig": {"hex": "483045022100b0bb03c2562c8713d592a95d4782dd97e0c7b6ab14caadd7364755e8894016a102201c403c1aa4c872a42bcf3bbf659ecb4a0a618266a70bb3ee5afa45319d84592b0121039692cbe4290b389a8c5f632e905021abc89ea159911b3b1e113445e5c3ac5337", "asm": "3045022100b0bb03c2562c8713d592a95d4782dd97e0c7b6ab14caadd7364755e8894016a102201c403c1aa4c872a42bcf3bbf659ecb4a0a618266a70bb3ee5afa45319d84592b[ALL] 039692cbe4290b389a8c5f632e905021abc89ea159911b3b1e113445e5c3ac5337"}, "vout": 0, "txid": "f096fe0cba4310e598bc9d3ac14bad1e6b0596e659234b17ece507717742eccf"}, {"sequence": 4294967295, "scriptSig": {"hex": "48304502210084fa87d83d00970cf27c6c87591d73e7a69bde0651cdab7688dee700ca2f88a4022041fefa275b74242af764b3ce5c7bec0bd2e0713660bdfb2b2f8680b65609eb57012103f0fd765cbd17144fbd0eee761c451826507df3641ac525cb2553b20cd490543b", "asm": "304502210084fa87d83d00970cf27c6c87591d73e7a69bde0651cdab7688dee700ca2f88a4022041fefa275b74242af764b3ce5c7bec0bd2e0713660bdfb2b2f8680b65609eb57[ALL] 03f0fd765cbd17144fbd0eee761c451826507df3641ac525cb2553b20cd490543b"}, "vout": 0, "txid": "f1342b9f5f8f460d8f6a9b386817b177cf3aa314591b96804f451ecb602e12f4"}, {"sequence": 4294967295, "scriptSig": {"hex": "483045022100e26c5361b8320745ec6f5b4c1b1a2c7414e4f9aa6dde2300fc1dc31db27f21a80220398d2ca09b3482ebd94b40f56b146b8c5fc0d52742c64f0ecd9c18f687300c9b012103f0fd765cbd17144fbd0eee761c451826507df3641ac525cb2553b20cd490543b", "asm": "3045022100e26c5361b8320745ec6f5b4c1b1a2c7414e4f9aa6dde2300fc1dc31db27f21a80220398d2ca09b3482ebd94b40f56b146b8c5fc0d52742c64f0ecd9c18f687300c9b[ALL] 03f0fd765cbd17144fbd0eee761c451826507df3641ac525cb2553b20cd490543b"}, "vout": 0, "txid": "fecca2e82dc10bbb0bac5f08231ab7e7ec064d130410ae749905205b5e14f6fd"}], "txid": "83b3bc7239a5273001ade0798ef0060a2002da12e40dedb8cc08ac7889138b04", "blocktime": 1537871767, "version": 1, "confirmations": 11495, "time": 1537871767, "locktime": 0, "vsize": 2258, "size": 2258}