{"hash": "a740e844bb31c5fffdf362a7195027752d78a4b07dea796834706119a5e3f3f5", "blockhash": "0000000000000000000e13cef7c366c0283d82e591d1acd082e914b08063cdf1", "vout": [{"scriptPubKey": {"reqSigs": 1, "hex": "a914e8c7d4dc491cf96b99f47764e21012f10c6c846387", "addresses": ["3Nur5ao7k4zyeG3itxJWRVTt7JS2mT8bDh"], "asm": "OP_HASH160 e8c7d4dc491cf96b99f47764e21012f10c6c8463 OP_EQUAL", "type": "scripthash"}, "value": 0.0099956, "n": 0}, {"scriptPubKey": {"reqSigs": 1, "hex": "76a914105761ad0dc581356b31df6ab86195c7893cac7488ac", "addresses": ["12VQVSqzqQgfpLN1uicdjdXnKKh8ZsT92s"], "asm": "OP_DUP OP_HASH160 105761ad0dc581356b31df6ab86195c7893cac74 OP_EQUALVERIFY OP_CHECKSIG", "type": "pubkeyhash"}, "value": 0.0272304, "n": 1}], "hex": "020000000001042586e6d9fde0f4eae4bb4b68a787233c21fef826cd88cc6a46964bc8f8d0ea5a000000001716001417790a109196831b4d69a9967f6161bacfde20f2feffffffbeaee05564c8e562d37dfd4b9d2e693024ceb78b35f8d6833a692f5d2a4d0c89010000001716001443318e571f132e037ad2e3d68ec26803e01f9af8feffffffef7dbf4f171379ac5800911be96ff4f4fdf4ef73f99bc60510c860d4eaae546d01000000171600140ff501b9b1510a837e5f7877ff03f08a4155ee36fefffffff1189583bb5b74a9497a861690bef18f6f42b6e7516a0d7d6e9b8a4dc80fbb6b0000000017160014300b16662085c6fb18b4d72ed4bace95d8de7e89feffffff0288400f000000000017a914e8c7d4dc491cf96b99f47764e21012f10c6c846387e08c2900000000001976a914105761ad0dc581356b31df6ab86195c7893cac7488ac0247304402202b2deef239f03edeeb92334e29c32d7b307657ccde8bc8581e08c20e6587c7e502206615e9b2bb41e286e7d62845aa4b87dcddac332c08c939ceb9a8e860993458500121038e72e821c43ce4e66e1b9a2d717596c9899a07ee71617fad05725894c039ef850247304402202302956db6ef36871cfe7fc396cb39649f22715108633e7818e3c5b99f875508022038de540d0677f2e369a4b047505f209446991abcc86d7c5b783c5a469432a84a012103da8d9b2ab29d44af910dc9c12071d37f15f1b0310b5a82434b06c753943f210702473044022012adcc8cb7a41613b1218216cea2f904c68e81e7793d6081eab0923d652ee3be02201c435cc946a7eb5cd82a9003bf366651bc6ce56bedcea4d0d6f17811f198797501210356670c58401cf92701a124d27814a4b379a07db84cb9390a142cb5803828903902483045022100b358fac9a47f84ab9e49248480838a6abbbdb75330df7728abaafa5f6140ded7022006c68dea348cb109c64ffecf082166cf9491bcf582b4acca95b110fca5561869012102860598082ac8df91499cfb81914ccc7ff96bafb5ba92c5a12eb902e7d6956a0200000000", "vin": [{"txinwitness": ["304402202b2deef239f03edeeb92334e29c32d7b307657ccde8bc8581e08c20e6587c7e502206615e9b2bb41e286e7d62845aa4b87dcddac332c08c939ceb9a8e8609934585001", "038e72e821c43ce4e66e1b9a2d717596c9899a07ee71617fad05725894c039ef85"], "sequence": 4294967294, "scriptSig": {"hex": "16001417790a109196831b4d69a9967f6161bacfde20f2", "asm": "001417790a109196831b4d69a9967f6161bacfde20f2"}, "vout": 0, "txid": "5aead0f8c84b96466acc88cd26f8fe213c2387a7684bbbe4eaf4e0fdd9e68625"}, {"txinwitness": ["304402202302956db6ef36871cfe7fc396cb39649f22715108633e7818e3c5b99f875508022038de540d0677f2e369a4b047505f209446991abcc86d7c5b783c5a469432a84a01", "03da8d9b2ab29d44af910dc9c12071d37f15f1b0310b5a82434b06c753943f2107"], "sequence": 4294967294, "scriptSig": {"hex": "16001443318e571f132e037ad2e3d68ec26803e01f9af8", "asm": "001443318e571f132e037ad2e3d68ec26803e01f9af8"}, "vout": 1, "txid": "890c4d2a5d2f693a83d6f8358bb7ce2430692e9d4bfd7dd362e5c86455e0aebe"}, {"txinwitness": ["3044022012adcc8cb7a41613b1218216cea2f904c68e81e7793d6081eab0923d652ee3be02201c435cc946a7eb5cd82a9003bf366651bc6ce56bedcea4d0d6f17811f198797501", "0356670c58401cf92701a124d27814a4b379a07db84cb9390a142cb58038289039"], "sequence": 4294967294, "scriptSig": {"hex": "1600140ff501b9b1510a837e5f7877ff03f08a4155ee36", "asm": "00140ff501b9b1510a837e5f7877ff03f08a4155ee36"}, "vout": 1, "txid": "6d54aeead460c81005c69bf973eff4fdf4f46fe91b910058ac7913174fbf7def"}, {"txinwitness": ["3045022100b358fac9a47f84ab9e49248480838a6abbbdb75330df7728abaafa5f6140ded7022006c68dea348cb109c64ffecf082166cf9491bcf582b4acca95b110fca556186901", "02860598082ac8df91499cfb81914ccc7ff96bafb5ba92c5a12eb902e7d6956a02"], "sequence": 4294967294, "scriptSig": {"hex": "160014300b16662085c6fb18b4d72ed4bace95d8de7e89", "asm": "0014300b16662085c6fb18b4d72ed4bace95d8de7e89"}, "vout": 0, "txid": "6bbb0fc84d8a9b6e7d0d6a51e7b6426f8ff1be9016867a49a9745bbb839518f1"}], "txid": "83b817c264d86c34f61bd8c66e7ae506cbcd889d3382fe9d4d4c0f221b8c0680", "blocktime": 1537871767, "version": 2, "confirmations": 11495, "time": 1537871767, "locktime": 0, "vsize": 440, "size": 763}