{"hash": "83b90f3dfe9fe8acf4bcfd8ab57022fdc927dfa0640f131db03c1815775ed83c", "blockhash": "0000000000000000001f0ddff1eddb255c1121bcd4da4f1bc9a0da00cae72433", "vout": [{"scriptPubKey": {"reqSigs": 1, "hex": "76a914f88a3dc2fbd473d870fee7dcc846cb9a9fcf7e1f88ac", "addresses": ["1PfABkCcuLmnf3SMeUq58J5CQK5KK2SviW"], "asm": "OP_DUP OP_HASH160 f88a3dc2fbd473d870fee7dcc846cb9a9fcf7e1f OP_EQUALVERIFY OP_CHECKSIG", "type": "pubkeyhash"}, "value": 0.01375391, "n": 0}, {"scriptPubKey": {"reqSigs": 1, "hex": "76a914cb005ddd9aea5bcb88a57c6c5bf5da19f74922ac88ac", "addresses": ["1KWNcREHyVDDRTFYpBm9TJJ3gSxCVb8Jnm"], "asm": "OP_DUP OP_HASH160 cb005ddd9aea5bcb88a57c6c5bf5da19f74922ac OP_EQUALVERIFY OP_CHECKSIG", "type": "pubkeyhash"}, "value": 2.26131227, "n": 1}], "hex": "010000000187ea417d042df375906310563f1cf28d98da0731d82f2bf19669a8a49129958d010000006b483045022100a73960d2fe4c5fe6da2279e8ac9cc91e61c94a25113ab1b84d3cbaf7a0eb7429022053ab93d16cfeb781a6205d5f4b6a21931e49a27d928c176586a7b4b210080a75012102c9c77d185688c109e8ba13390a5755bc379401deafb931b9564649351d03208cffffffff029ffc1400000000001976a914f88a3dc2fbd473d870fee7dcc846cb9a9fcf7e1f88ac1b7d7a0d000000001976a914cb005ddd9aea5bcb88a57c6c5bf5da19f74922ac88ac00000000", "vin": [{"sequence": 4294967295, "scriptSig": {"hex": "483045022100a73960d2fe4c5fe6da2279e8ac9cc91e61c94a25113ab1b84d3cbaf7a0eb7429022053ab93d16cfeb781a6205d5f4b6a21931e49a27d928c176586a7b4b210080a75012102c9c77d185688c109e8ba13390a5755bc379401deafb931b9564649351d03208c", "asm": "3045022100a73960d2fe4c5fe6da2279e8ac9cc91e61c94a25113ab1b84d3cbaf7a0eb7429022053ab93d16cfeb781a6205d5f4b6a21931e49a27d928c176586a7b4b210080a75[ALL] 02c9c77d185688c109e8ba13390a5755bc379401deafb931b9564649351d03208c"}, "vout": 1, "txid": "8d952991a4a86996f12b2fd83107da988df21c3f5610639075f32d047d41ea87"}], "txid": "83b90f3dfe9fe8acf4bcfd8ab57022fdc927dfa0640f131db03c1815775ed83c", "blocktime": 1537872018, "version": 1, "confirmations": 11489, "time": 1537872018, "locktime": 0, "vsize": 226, "size": 226}