{"hash": "83bc9e40473d1660ae101a3daac1eff8d744e944d9c6685f97231d09edec1afa", "blockhash": "0000000000000000001f76057863aec43deb6fa401d9628bb513d65a8098bfab", "vout": [{"scriptPubKey": {"reqSigs": 1, "hex": "76a914aa28958dab6d0e0dd3c6d19b59347e3c375e28f488ac", "addresses": ["1GWiVT7vPfZUUmbmQVWK8ScPhmwbEwwD93"], "asm": "OP_DUP OP_HASH160 aa28958dab6d0e0dd3c6d19b59347e3c375e28f4 OP_EQUALVERIFY OP_CHECKSIG", "type": "pubkeyhash"}, "value": 0.016891, "n": 0}, {"scriptPubKey": {"reqSigs": 1, "hex": "76a914f9ea547026640532be8c8a2af2382dc610b1682a88ac", "addresses": ["1PnRyHiciJhPqiBikKUUJ7N1EHzjSbk38w"], "asm": "OP_DUP OP_HASH160 f9ea547026640532be8c8a2af2382dc610b1682a OP_EQUALVERIFY OP_CHECKSIG", "type": "pubkeyhash"}, "value": 0.00010621, "n": 1}], "hex": "01000000016438e773d3a98cfe7965443c2af359c39cb0a8836a416637af38cf1e1d0f59c4160000006a47304402204fc51478405d1210ce45daa564c86391d7dea8af4024f63c7304a1817caebbde0220344c7cd5fe71005f4ff07ad46005e624f9f031e001a7697759bb073c04f40bdc012103e49600df3777a6cd2084953d16b55cfa17ff7a2463633900d9c4a192d9a26d07ffffffff020cc61900000000001976a914aa28958dab6d0e0dd3c6d19b59347e3c375e28f488ac7d290000000000001976a914f9ea547026640532be8c8a2af2382dc610b1682a88ac00000000", "vin": [{"sequence": 4294967295, "scriptSig": {"hex": "47304402204fc51478405d1210ce45daa564c86391d7dea8af4024f63c7304a1817caebbde0220344c7cd5fe71005f4ff07ad46005e624f9f031e001a7697759bb073c04f40bdc012103e49600df3777a6cd2084953d16b55cfa17ff7a2463633900d9c4a192d9a26d07", "asm": "304402204fc51478405d1210ce45daa564c86391d7dea8af4024f63c7304a1817caebbde0220344c7cd5fe71005f4ff07ad46005e624f9f031e001a7697759bb073c04f40bdc[ALL] 03e49600df3777a6cd2084953d16b55cfa17ff7a2463633900d9c4a192d9a26d07"}, "vout": 22, "txid": "c4590f1d1ecf38af3766416a83a8b09cc359f32a3c446579fe8ca9d373e73864"}], "txid": "83bc9e40473d1660ae101a3daac1eff8d744e944d9c6685f97231d09edec1afa", "blocktime": 1537873891, "version": 1, "confirmations": 11478, "time": 1537873891, "locktime": 0, "vsize": 225, "size": 225}