{"hash": "83bc9bdde3bf499344f96caef276a7b078c838b2dbaf227bd01d2a3f08b915ec", "blockhash": "0000000000000000000dcc0f55137456b1a82d3642486a52398922ac4d620174", "vout": [{"scriptPubKey": {"reqSigs": 1, "hex": "76a914faf14a7eb1a05d480f6aad88887de38300bf76d188ac", "addresses": ["1Psrz9hGAMewBoGuzdPv87Fh2YeMWdgNR5"], "asm": "OP_DUP OP_HASH160 faf14a7eb1a05d480f6aad88887de38300bf76d1 OP_EQUALVERIFY OP_CHECKSIG", "type": "pubkeyhash"}, "value": 0.04208169, "n": 0}, {"scriptPubKey": {"reqSigs": 1, "hex": "76a914d321261463bd4e8bc20bbf338c8dddfdafe341eb88ac", "addresses": ["1LFMHh7iNPm4irSMNfPyNVdFyS7bAgdpry"], "asm": "OP_DUP OP_HASH160 d321261463bd4e8bc20bbf338c8dddfdafe341eb OP_EQUALVERIFY OP_CHECKSIG", "type": "pubkeyhash"}, "value": 9.095e-05, "n": 1}], "hex": "0100000002f0d47074fc306101d9fd8a0769c52df294d7fd81e0df26de6d4117fd0cdde24f000000006a47304402205cc56373c36718a62fbd4b8c9957158357e9cb90f8624047ade9f9841952103002205cea3d38a9a4d36ca909a5462de54a2c01be3541411b84012f1bdd765ff578d901210322d65e1e5fdd13981dcca91befdc0b2191418b921db4c6baf94cbf7060964f0bffffffffbb9f11d18404148bb316f560b0c8fb4dcd2ca89d1ce479294934a6526a5a8dbb020000006b48304502210089c5d016d93c4d0e9478810a9bf86b337259938bc2d4d29b68144225c3f2a565022038eff1888c85a28d73ae0f6f817a51f58fb6cb24c9bfdfb8a6b9ef9385dfa154012102bbfea01cf21979e3c6752dc04cff68d91bbfbe5a6403c54083cc3ae06a1d2075ffffffff0229364000000000001976a914faf14a7eb1a05d480f6aad88887de38300bf76d188ac87230000000000001976a914d321261463bd4e8bc20bbf338c8dddfdafe341eb88ac00000000", "vin": [{"sequence": 4294967295, "scriptSig": {"hex": "47304402205cc56373c36718a62fbd4b8c9957158357e9cb90f8624047ade9f9841952103002205cea3d38a9a4d36ca909a5462de54a2c01be3541411b84012f1bdd765ff578d901210322d65e1e5fdd13981dcca91befdc0b2191418b921db4c6baf94cbf7060964f0b", "asm": "304402205cc56373c36718a62fbd4b8c9957158357e9cb90f8624047ade9f9841952103002205cea3d38a9a4d36ca909a5462de54a2c01be3541411b84012f1bdd765ff578d9[ALL] 0322d65e1e5fdd13981dcca91befdc0b2191418b921db4c6baf94cbf7060964f0b"}, "vout": 0, "txid": "4fe2dd0cfd17416dde26dfe081fdd794f22dc569078afdd9016130fc7470d4f0"}, {"sequence": 4294967295, "scriptSig": {"hex": "48304502210089c5d016d93c4d0e9478810a9bf86b337259938bc2d4d29b68144225c3f2a565022038eff1888c85a28d73ae0f6f817a51f58fb6cb24c9bfdfb8a6b9ef9385dfa154012102bbfea01cf21979e3c6752dc04cff68d91bbfbe5a6403c54083cc3ae06a1d2075", "asm": "304502210089c5d016d93c4d0e9478810a9bf86b337259938bc2d4d29b68144225c3f2a565022038eff1888c85a28d73ae0f6f817a51f58fb6cb24c9bfdfb8a6b9ef9385dfa154[ALL] 02bbfea01cf21979e3c6752dc04cff68d91bbfbe5a6403c54083cc3ae06a1d2075"}, "vout": 2, "txid": "bb8d5a6a52a634492979e41c9da82ccd4dfbc8b060f516b38b140484d1119fbb"}], "txid": "83bc9bdde3bf499344f96caef276a7b078c838b2dbaf227bd01d2a3f08b915ec", "blocktime": 1537870268, "version": 1, "confirmations": 11518, "time": 1537870268, "locktime": 0, "vsize": 373, "size": 373}