{"hash": "83bdf320d915d9437b3a8d982ee04c88d05ac225516a3004072b21395f44ccdc", "blockhash": "0000000000000000000e13cef7c366c0283d82e591d1acd082e914b08063cdf1", "vout": [{"scriptPubKey": {"reqSigs": 1, "hex": "a9141c5f4c73a0b715b372c6a6f1737a32ea432f836887", "addresses": ["34H31P2RLKPKetjFujueyFszMvaAFt5xrR"], "asm": "OP_HASH160 1c5f4c73a0b715b372c6a6f1737a32ea432f8368 OP_EQUAL", "type": "scripthash"}, "value": 0.00060773, "n": 0}, {"scriptPubKey": {"reqSigs": 1, "hex": "76a914852ea35f071813ecf9751abe65049de61cbf8c5788ac", "addresses": ["1D9CjzS6u5ArSoEGqkqUEz4j55iA3rsFCL"], "asm": "OP_DUP OP_HASH160 852ea35f071813ecf9751abe65049de61cbf8c57 OP_EQUALVERIFY OP_CHECKSIG", "type": "pubkeyhash"}, "value": 0.07170409, "n": 1}], "hex": "0200000001d3456ce7e214dc6fc92732c89d29e5d8fd0a5f14ce8d9ac63ff39ae0a22e73bb010000006b483045022100bc7dc84299eacb3c1f4af5531de1522235d2caa575f6c2c50a09ba39761edb3702202d49d04f57e322a07ebcd4f4f5ff3cf23faaf1cbef9052d5a8ca6bbbf8b8adab012103ad9345c23921567f0abf3339bb67fe7dde30c759d2837f65e6d4230853bddca5ffffffff0265ed00000000000017a9141c5f4c73a0b715b372c6a6f1737a32ea432f83688769696d00000000001976a914852ea35f071813ecf9751abe65049de61cbf8c5788ac00000000", "vin": [{"sequence": 4294967295, "scriptSig": {"hex": "483045022100bc7dc84299eacb3c1f4af5531de1522235d2caa575f6c2c50a09ba39761edb3702202d49d04f57e322a07ebcd4f4f5ff3cf23faaf1cbef9052d5a8ca6bbbf8b8adab012103ad9345c23921567f0abf3339bb67fe7dde30c759d2837f65e6d4230853bddca5", "asm": "3045022100bc7dc84299eacb3c1f4af5531de1522235d2caa575f6c2c50a09ba39761edb3702202d49d04f57e322a07ebcd4f4f5ff3cf23faaf1cbef9052d5a8ca6bbbf8b8adab[ALL] 03ad9345c23921567f0abf3339bb67fe7dde30c759d2837f65e6d4230853bddca5"}, "vout": 1, "txid": "bb732ea2e09af33fc69a8dce145f0afdd8e5299dc83227c96fdc14e2e76c45d3"}], "txid": "83bdf320d915d9437b3a8d982ee04c88d05ac225516a3004072b21395f44ccdc", "blocktime": 1537871767, "version": 2, "confirmations": 11494, "time": 1537871767, "locktime": 0, "vsize": 224, "size": 224}