{"hash": "9e5625df73321eed30cc30436f7dd6d442fc41564f844e6d2987d9a396a9f3a1", "blockhash": "000000000000000000022b45ed06c6f4ccd3cf7fb5ba4856ebd2e58215665228", "vout": [{"scriptPubKey": {"reqSigs": 1, "hex": "76a914b55649c194881389dbf1b54b81a544272554d14d88ac", "addresses": ["1HXpg8D9AMGFVZ9FEU2tkZYvAZ8xBhVudo"], "asm": "OP_DUP OP_HASH160 b55649c194881389dbf1b54b81a544272554d14d OP_EQUALVERIFY OP_CHECKSIG", "type": "pubkeyhash"}, "value": 0.0025156, "n": 0}, {"scriptPubKey": {"reqSigs": 1, "hex": "a914d07a2d7a6689a559ac366724115a81dc3de76e7b87", "addresses": ["3LhLqVjyugmkL1AkLphmTaKD7tuZSKnTCN"], "asm": "OP_HASH160 d07a2d7a6689a559ac366724115a81dc3de76e7b OP_EQUAL", "type": "scripthash"}, "value": 0.01007952, "n": 1}], "hex": "02000000000102d90b62e74f4cf1e344e4044f8ba5f57bab4b2ce920a4c8e4b55ed1e09e6ffac2010000001716001450b918083808232f3cd2008039623250fea28b2bfefffffff9eda444024818d120713fe351d7bd3f73422c36216e775b39591f1bf4c544f80200000017160014171bf62d2e02c7890d31dccc213f7365aafac5e6feffffff02a8d60300000000001976a914b55649c194881389dbf1b54b81a544272554d14d88ac50610f000000000017a914d07a2d7a6689a559ac366724115a81dc3de76e7b87024730440220779fcc52f4691403cae19a4ecfab75999f8684069e0f05e07bca03cbf5aef38f02203bf37ad497f0d764b6671641dc1c4f0334142baf0717220ea407538a4e5e6b1b012103acdf05dca102fdf2126b39192e9376253ed867aba58e882d449f1c0d44e0805502473044022056bb76154f5331bbf492b92a3584a7aed5b9ecac826798932cdc5cf0da6c19f40220445a601daf99333d6191c782bdc453ccb1e9b1ef37080bf5b154f6b1ef439dd60121033bed2f912588a11346a6a1d1f6d3fd389ef0ab491c3afe424a2fd6555936ed0e0b490800", "vin": [{"txinwitness": ["30440220779fcc52f4691403cae19a4ecfab75999f8684069e0f05e07bca03cbf5aef38f02203bf37ad497f0d764b6671641dc1c4f0334142baf0717220ea407538a4e5e6b1b01", "03acdf05dca102fdf2126b39192e9376253ed867aba58e882d449f1c0d44e08055"], "sequence": 4294967294, "scriptSig": {"hex": "16001450b918083808232f3cd2008039623250fea28b2b", "asm": "001450b918083808232f3cd2008039623250fea28b2b"}, "vout": 1, "txid": "c2fa6f9ee0d15eb5e4c8a420e92c4bab7bf5a58b4f04e444e3f14c4fe7620bd9"}, {"txinwitness": ["3044022056bb76154f5331bbf492b92a3584a7aed5b9ecac826798932cdc5cf0da6c19f40220445a601daf99333d6191c782bdc453ccb1e9b1ef37080bf5b154f6b1ef439dd601", "033bed2f912588a11346a6a1d1f6d3fd389ef0ab491c3afe424a2fd6555936ed0e"], "sequence": 4294967294, "scriptSig": {"hex": "160014171bf62d2e02c7890d31dccc213f7365aafac5e6", "asm": "0014171bf62d2e02c7890d31dccc213f7365aafac5e6"}, "vout": 2, "txid": "f844c5f41b1f59395b776e21362c42733fbdd751e33f7120d118480244a4edf9"}], "txid": "83c37f27f867692cbda059a69a7b88abc8b8f6a9d42295d5d8b033aec8fdc6b1", "blocktime": 1537869901, "version": 2, "confirmations": 11524, "time": 1537869901, "locktime": 542987, "vsize": 258, "size": 420}