{"hash": "f3e2274962db42621b1038def11c7125858abf438c8e6aa234b934f4cf53fe21", "blockhash": "0000000000000000000baef3f32e3676a92c3b2e5da21b426e4f302fc371ce76", "vout": [{"scriptPubKey": {"reqSigs": 1, "hex": "76a9141142315423ca1ccf2e5d3bb34e6bccdccd2370fc88ac", "addresses": ["12aFnQmkgWswNNGfymt7noDC4rfWBp8QoQ"], "asm": "OP_DUP OP_HASH160 1142315423ca1ccf2e5d3bb34e6bccdccd2370fc OP_EQUALVERIFY OP_CHECKSIG", "type": "pubkeyhash"}, "value": 0.0050056, "n": 0}, {"scriptPubKey": {"reqSigs": 1, "hex": "a914737ed4caf8ce9b685f763c0a4bb38af783de633987", "addresses": ["3CDhZzVXb5T9yyoXvxMKPHNrb2MDD5duvj"], "asm": "OP_HASH160 737ed4caf8ce9b685f763c0a4bb38af783de6339 OP_EQUAL", "type": "scripthash"}, "value": 0.00998969, "n": 1}], "hex": "0200000000010272b7d025fec8f66af30de524d72b3c39f382549d5b0f92d959b6835fe639931902000000171600142c3b2d2fcb2820669ff6502765dc558546b57710feffffffdd1426467ef7abdc223a0752766fcb80757bf9239306b9c73e966ae5a03b6b130100000017160014abec891163cf56f3637fbcc31fa0fda998616698feffffff0250a30700000000001976a9141142315423ca1ccf2e5d3bb34e6bccdccd2370fc88ac393e0f000000000017a914737ed4caf8ce9b685f763c0a4bb38af783de63398702483045022100cf020e8403d316aaaa7a1ff2f2391fd909b2136ba04444158a71d11094979f73022023d316e5e35758344b939f842d8ab4be97981e7c07110bf18a3ca2eb9023fe3c01210218e4b5a814f30c6714f650fdb8395c676813a9a5f308dbb00963a632c9c8c79e02483045022100a05cae555fdc07615bc4820fc081f8462240fd337d517b809a310c66ce1a78a002204d0027b56f2ab480f008b9f18bd1ed47298ba6e57e03c5280906e3791bb23dc2012102ad0bc7d767e8335d8fd2c65a57c50a54a3ac0671f21b782142ce631c81f8d8d117490800", "vin": [{"txinwitness": ["3045022100cf020e8403d316aaaa7a1ff2f2391fd909b2136ba04444158a71d11094979f73022023d316e5e35758344b939f842d8ab4be97981e7c07110bf18a3ca2eb9023fe3c01", "0218e4b5a814f30c6714f650fdb8395c676813a9a5f308dbb00963a632c9c8c79e"], "sequence": 4294967294, "scriptSig": {"hex": "1600142c3b2d2fcb2820669ff6502765dc558546b57710", "asm": "00142c3b2d2fcb2820669ff6502765dc558546b57710"}, "vout": 2, "txid": "199339e65f83b659d9920f5b9d5482f3393c2bd724e50df36af6c8fe25d0b772"}, {"txinwitness": ["3045022100a05cae555fdc07615bc4820fc081f8462240fd337d517b809a310c66ce1a78a002204d0027b56f2ab480f008b9f18bd1ed47298ba6e57e03c5280906e3791bb23dc201", "02ad0bc7d767e8335d8fd2c65a57c50a54a3ac0671f21b782142ce631c81f8d8d1"], "sequence": 4294967294, "scriptSig": {"hex": "160014abec891163cf56f3637fbcc31fa0fda998616698", "asm": "0014abec891163cf56f3637fbcc31fa0fda998616698"}, "vout": 1, "txid": "136b3ba0e56a963ec7b9069323f97b7580cb6f7652073a22dcabf77e462614dd"}], "txid": "83ccc3705d83c0af8466d942283028d1ea2b9b09b23cec5c0d72c67e2e3f71f9", "blocktime": 1537876114, "version": 2, "confirmations": 11462, "time": 1537876114, "locktime": 542999, "vsize": 259, "size": 422}