{"hash": "83cede6f312362da37da2c16b4352df8cf3efa42cf69ff9fc5c7d70cf5bf82c3", "blockhash": "0000000000000000001f76057863aec43deb6fa401d9628bb513d65a8098bfab", "vout": [{"scriptPubKey": {"reqSigs": 1, "hex": "76a914cca8737c3d8d70f2ac08a376fab35d46f9e99cd988ac", "addresses": ["1Kf8eKgJtpP7Y5WqE626DXsvZcrBPrAQXb"], "asm": "OP_DUP OP_HASH160 cca8737c3d8d70f2ac08a376fab35d46f9e99cd9 OP_EQUALVERIFY OP_CHECKSIG", "type": "pubkeyhash"}, "value": 0.01865097, "n": 0}, {"scriptPubKey": {"reqSigs": 1, "hex": "76a914541e3c3c3a21ea3a6fd717f62d6a147a3aa7ac9488ac", "addresses": ["18fmyu8bpteMHmEmyprerCuzoDCN451V4A"], "asm": "OP_DUP OP_HASH160 541e3c3c3a21ea3a6fd717f62d6a147a3aa7ac94 OP_EQUALVERIFY OP_CHECKSIG", "type": "pubkeyhash"}, "value": 0.00666315, "n": 1}], "hex": "0100000002ffb7447b0367b778c1ac6bc7a3104c47797147b216706efd004c7c4ac11fa18d000000006b4830450221009281e5b399a1793a54efa681297b55c04e7bcb9ebb45f9adc8336a337deadbb30220435b89a839e1f0d9717be88b67c05981b18cc2dda47371a4073ff0517e41ee50012102502e6d02a66ec1032d2c891a7774cf636ab98cc57e2a6daf4fae26a39e137ee5ffffffff23d3daba8462ddb4725fba1dcdd23037ba06689ee72fd6a710fc14e61d0d6c94010000006a4730440220553b7cca4cbb2ace75b5897e039194ff121e6054c9dcb5e9978dd352c6ef66200220424f598f4acb3b913d14d65d72197f536d6b8f7fe98621bdb8ee4bd9a907ec8a0121032592b4418c6eb4ccf50e46605734ce136498dab9e9cd1a4e2c6da8f4e0199b36ffffffff0289751c00000000001976a914cca8737c3d8d70f2ac08a376fab35d46f9e99cd988accb2a0a00000000001976a914541e3c3c3a21ea3a6fd717f62d6a147a3aa7ac9488ac00000000", "vin": [{"sequence": 4294967295, "scriptSig": {"hex": "4830450221009281e5b399a1793a54efa681297b55c04e7bcb9ebb45f9adc8336a337deadbb30220435b89a839e1f0d9717be88b67c05981b18cc2dda47371a4073ff0517e41ee50012102502e6d02a66ec1032d2c891a7774cf636ab98cc57e2a6daf4fae26a39e137ee5", "asm": "30450221009281e5b399a1793a54efa681297b55c04e7bcb9ebb45f9adc8336a337deadbb30220435b89a839e1f0d9717be88b67c05981b18cc2dda47371a4073ff0517e41ee50[ALL] 02502e6d02a66ec1032d2c891a7774cf636ab98cc57e2a6daf4fae26a39e137ee5"}, "vout": 0, "txid": "8da11fc14a7c4c00fd6e7016b2477179474c10a3c76bacc178b767037b44b7ff"}, {"sequence": 4294967295, "scriptSig": {"hex": "4730440220553b7cca4cbb2ace75b5897e039194ff121e6054c9dcb5e9978dd352c6ef66200220424f598f4acb3b913d14d65d72197f536d6b8f7fe98621bdb8ee4bd9a907ec8a0121032592b4418c6eb4ccf50e46605734ce136498dab9e9cd1a4e2c6da8f4e0199b36", "asm": "30440220553b7cca4cbb2ace75b5897e039194ff121e6054c9dcb5e9978dd352c6ef66200220424f598f4acb3b913d14d65d72197f536d6b8f7fe98621bdb8ee4bd9a907ec8a[ALL] 032592b4418c6eb4ccf50e46605734ce136498dab9e9cd1a4e2c6da8f4e0199b36"}, "vout": 1, "txid": "946c0d1de614fc10a7d62fe79e6806ba3730d2cd1dba5f72b4dd6284badad323"}], "txid": "83cede6f312362da37da2c16b4352df8cf3efa42cf69ff9fc5c7d70cf5bf82c3", "blocktime": 1537873891, "version": 1, "confirmations": 11474, "time": 1537873891, "locktime": 0, "vsize": 373, "size": 373}