{"hash": "6fb5fe43def457b5055459ec6bcf82fa414720efe6ef971bc95e010b3aa16685", "blockhash": "00000000000000000018f53835495a110e01622372bf6ae95dc86f2b0ab887b0", "vout": [{"scriptPubKey": {"reqSigs": 1, "hex": "76a91453d4d17a9a854edcebe85e0efd82f10e5e41cf5a88ac", "addresses": ["18eG2o7Xh7TycTLzaysbUSoWyMAujKbTmE"], "asm": "OP_DUP OP_HASH160 53d4d17a9a854edcebe85e0efd82f10e5e41cf5a OP_EQUALVERIFY OP_CHECKSIG", "type": "pubkeyhash"}, "value": 0.04224, "n": 0}, {"scriptPubKey": {"reqSigs": 1, "hex": "001437cd8b9d64e7596153c55dfbbf19717fca3fb3d5", "addresses": ["bc1qxlxch8tyuavkz579tham7xt30l9rlv747fwa8c"], "asm": "0 37cd8b9d64e7596153c55dfbbf19717fca3fb3d5", "type": "witness_v0_keyhash"}, "value": 0.13275412, "n": 1}], "hex": "01000000000101612d54dda1df85d09c26cada68c5008cf818707fc0fb50ee7f993dbdbd20b7c801000000171600144faa6c7af939abd674c4591ed9d3e61368887fb9ffffffff0200744000000000001976a91453d4d17a9a854edcebe85e0efd82f10e5e41cf5a88ac1491ca000000000016001437cd8b9d64e7596153c55dfbbf19717fca3fb3d50247304402200e87acc06af601c1ad6579c06c68c20d9deb900dddee688185416152745a8a070220697fd2ab4c6a01fe8ebe00105fb081aef87b18ae25f8c7dc8ab5a18fd9ec1a76012102f0c60b8946bed6d00b2a3a02c19d6f89b4ee91155747ac36d278e09da723378400000000", "vin": [{"txinwitness": ["304402200e87acc06af601c1ad6579c06c68c20d9deb900dddee688185416152745a8a070220697fd2ab4c6a01fe8ebe00105fb081aef87b18ae25f8c7dc8ab5a18fd9ec1a7601", "02f0c60b8946bed6d00b2a3a02c19d6f89b4ee91155747ac36d278e09da7233784"], "sequence": 4294967295, "scriptSig": {"hex": "1600144faa6c7af939abd674c4591ed9d3e61368887fb9", "asm": "00144faa6c7af939abd674c4591ed9d3e61368887fb9"}, "vout": 1, "txid": "c8b720bdbd3d997fee50fbc07f7018f88c00c568daca269cd085dfa1dd542d61"}], "txid": "83cf05316b1eb31af79d231516d566946f8c7a99c9ff8ae86e40d42db86fcc04", "blocktime": 1537870928, "version": 1, "confirmations": 11514, "time": 1537870928, "locktime": 0, "vsize": 167, "size": 248}