{"hash": "71ca26655b90ce9b5187cb6284b009c56fa9cf81bf63c12b6fd88d5613f8a404", "blockhash": "0000000000000000001cda96e906b7601b7a6fb1a3b62bca570a9e5d8f4b3de1", "vout": [{"scriptPubKey": {"reqSigs": 1, "hex": "a91455f106ca1793918e384f223d705497990131676a87", "addresses": ["39XS6fZQbhKhA8MpmvUfQUKhSe2KaaZSYc"], "asm": "OP_HASH160 55f106ca1793918e384f223d705497990131676a OP_EQUAL", "type": "scripthash"}, "value": 0.00282, "n": 0}, {"scriptPubKey": {"reqSigs": 1, "hex": "a9143fe5bb60952bf49c3a37d6b8d4e0784a6e0f29e387", "addresses": ["37Wshge8WBAKUS3FR4RwSj2kHt8R3hpXEr"], "asm": "OP_HASH160 3fe5bb60952bf49c3a37d6b8d4e0784a6e0f29e3 OP_EQUAL", "type": "scripthash"}, "value": 0.046916, "n": 1}], "hex": "01000000000101361259be4fc42ec5ab5ab5678a15dddd630a140a8e9cd0471a0cdaafaa6d02a901000000232200201e5a544cc802669e916e4a5057102815f5d8eec9c8dd1cda419417e4aa6a5269ffffffff02904d04000000000017a91455f106ca1793918e384f223d705497990131676a87909647000000000017a9143fe5bb60952bf49c3a37d6b8d4e0784a6e0f29e3870400483045022100ab8fd2e764854c5707dde61beac364143c43df5d1117dd9dde7101e6d3db5650022063a469d1d6f9d1fe9cebabd0fdc34a219e8244154a12bdda38e6a3484c3ed21f01473044022025edabec11300a7ccd72daaf46e90a03f64587826992e6d68b1026667436cc3702202eda92d07a809829dad4a8f9474b2f58fbe3204a008906b189760612a2133b420169522103d4464b9be61434bb27279378642669fc954bd6c1bd7f4691aa95609b01ff994b2103112b6db5864646a2ee7508f886e8ca45a5d18659c7974e3852c2358f66db725121023b019150681cb3622f289e64cdc1575e61339a75c121211dd6e61533e62e5c0153ae00000000", "vin": [{"txinwitness": ["", "3045022100ab8fd2e764854c5707dde61beac364143c43df5d1117dd9dde7101e6d3db5650022063a469d1d6f9d1fe9cebabd0fdc34a219e8244154a12bdda38e6a3484c3ed21f01", "3044022025edabec11300a7ccd72daaf46e90a03f64587826992e6d68b1026667436cc3702202eda92d07a809829dad4a8f9474b2f58fbe3204a008906b189760612a2133b4201", "522103d4464b9be61434bb27279378642669fc954bd6c1bd7f4691aa95609b01ff994b2103112b6db5864646a2ee7508f886e8ca45a5d18659c7974e3852c2358f66db725121023b019150681cb3622f289e64cdc1575e61339a75c121211dd6e61533e62e5c0153ae"], "sequence": 4294967295, "scriptSig": {"hex": "2200201e5a544cc802669e916e4a5057102815f5d8eec9c8dd1cda419417e4aa6a5269", "asm": "00201e5a544cc802669e916e4a5057102815f5d8eec9c8dd1cda419417e4aa6a5269"}, "vout": 1, "txid": "a9026daaafda0c1a47d09c8e0a140a63dddd158a67b55aabc52ec44fbe591236"}], "txid": "83d10fa90b899d9c51d1a1f57a0286bdcdb53245ad35dae4c313b7482da7d30a", "blocktime": 1537873282, "version": 1, "confirmations": 11485, "time": 1537873282, "locktime": 0, "vsize": 214, "size": 405}