{"hash": "e04d47acf4d314e1766d646b7fdc66166a817e5741d76a77387878508ae5efe8", "blockhash": "000000000000000000022b45ed06c6f4ccd3cf7fb5ba4856ebd2e58215665228", "vout": [{"scriptPubKey": {"reqSigs": 1, "hex": "a914994fa7e50e8718b5f57743d589881ad07be0120587", "addresses": ["3FfejUhzs4rg9UdGRw5DGp6fcnR2NUN98i"], "asm": "OP_HASH160 994fa7e50e8718b5f57743d589881ad07be01205 OP_EQUAL", "type": "scripthash"}, "value": 0.00435311, "n": 0}, {"scriptPubKey": {"reqSigs": 1, "hex": "00143d503ed06e76ea4fc76caea62e86051193e9679d", "addresses": ["bc1q84gra5rwwm4yl3mv46nzaps9zxf7jeuaw308f5"], "asm": "0 3d503ed06e76ea4fc76caea62e86051193e9679d", "type": "witness_v0_keyhash"}, "value": 0.00027842, "n": 1}], "hex": "010000000001016215a15448a6dfe230099f3725cdb3130f145dd7e024833cbd0c1ae733902b290100000000ffffffff026fa406000000000017a914994fa7e50e8718b5f57743d589881ad07be0120587c26c0000000000001600143d503ed06e76ea4fc76caea62e86051193e9679d02483045022100a92d97d78b0c4ec78b18c0efc7a2d0e4f7f7c8cd9d9530ae040d9d086d5d744d02204fa8a2abfb94551b14e968596158f8482706d527a91544b2b2409f5fd97d0ad40121025aa5aac8ead4b25d6ee187832897dc3ea4de1721be23b9a876d4f219f1c7385800000000", "vin": [{"txinwitness": ["3045022100a92d97d78b0c4ec78b18c0efc7a2d0e4f7f7c8cd9d9530ae040d9d086d5d744d02204fa8a2abfb94551b14e968596158f8482706d527a91544b2b2409f5fd97d0ad401", "025aa5aac8ead4b25d6ee187832897dc3ea4de1721be23b9a876d4f219f1c73858"], "sequence": 4294967295, "scriptSig": {"hex": "", "asm": ""}, "vout": 1, "txid": "292b9033e71a0cbd3c8324e0d75d140f13b3cd25379f0930e2dfa64854a11562"}], "txid": "83d32bf065233e5c8f7a548b4767a8157ecc927e5f4a7ec3c65b3f8090287f81", "blocktime": 1537869901, "version": 1, "confirmations": 11523, "time": 1537869901, "locktime": 0, "vsize": 142, "size": 224}