{"hash": "83d5ce861d061246458a511a2f49d01977425ce7b0a0c6b0747c4e23d87651dd", "blockhash": "0000000000000000001e0dab787dd257d1dbfcb92a98c2207d5e1078be1f4165", "vout": [{"scriptPubKey": {"reqSigs": 1, "hex": "76a914a2e2661129622f42d7014dd2a78f595fe473690c88ac", "addresses": ["1FrFgXy9owUjpu3NFiXAuxSMKVsay2e8Vz"], "asm": "OP_DUP OP_HASH160 a2e2661129622f42d7014dd2a78f595fe473690c OP_EQUALVERIFY OP_CHECKSIG", "type": "pubkeyhash"}, "value": 3.292e-05, "n": 0}, {"scriptPubKey": {"reqSigs": 1, "hex": "76a91424fdb0c845cd413a3ac15069b611f15dfbbd152788ac", "addresses": ["14NbEdpFvp1hJywDXF5XwDzCt8MoiCBZPN"], "asm": "OP_DUP OP_HASH160 24fdb0c845cd413a3ac15069b611f15dfbbd1527 OP_EQUALVERIFY OP_CHECKSIG", "type": "pubkeyhash"}, "value": 0.299, "n": 1}], "hex": "0100000004224fa592371085495cfba6608843473125c3af31389fda93d4df6c6b61561222000000006b483045022100a8761db2c5eb2dca6b8d80eec133aee2619571787cbc26d6b9a2c1b249a5cd96022003da84b06e1371e8a081dceb1184998cf598bc2ee08bed08142719045ee98bb7012102ad7b56ccf4c8f0d5c3887fef95372e920b712e8974ce657354f1f997fa2179cafffffffff1a714d24af5611ad8a2ec8da45e700699119a77d5374c1bf33d0f9ecfcbab62000000006a473044022038387095218a4c615fc9a9462c22c181c95b88b4cd43c98bb2c9959d3bc7f0bc02202e3747b1c1ab414726790a28cab28224aa378148caf0081c37998bab8571dd59012103f7ca17de48ab5c0b2d44c814e41d725f199c91b67ee0acc0393b86abd5688f64fffffffff4d363af538e2d7ec4386c8805a50ce1486a8314574dfc6d3b55378c4c9feb8a000000006b483045022100a795e51b0d51cd90bb5119d017ca30e599530254e44f6f76d843cad74e08c0bd02201ea3824140920d2021012142597aa4244d7d97e298ef2dfc262b83c9e6892e6301210299cdf72adbdc0586103f6e33f5b30244bcbb1a148e12f621ae8247c811beef26ffffffffc2455b99e6579465bcd96db55e684bc713774c4b7e4451d8f8ce0470f68e61e3000000006b4830450221008e7853dc3ee5da0a3eb3f6ed3d49601d5193e8f7eb9df13cfc70123b0539682e0220601e8f545ab1d409afdd4a896cafbd29d2f7d4756d7532ec03722b52af21d639012103a21802058ab64a61ed4fea79badcc00b0ca9a1617865b0a3b22dcc802a071838ffffffff02dc0c0000000000001976a914a2e2661129622f42d7014dd2a78f595fe473690c88ace03cc801000000001976a91424fdb0c845cd413a3ac15069b611f15dfbbd152788ac00000000", "vin": [{"sequence": 4294967295, "scriptSig": {"hex": "483045022100a8761db2c5eb2dca6b8d80eec133aee2619571787cbc26d6b9a2c1b249a5cd96022003da84b06e1371e8a081dceb1184998cf598bc2ee08bed08142719045ee98bb7012102ad7b56ccf4c8f0d5c3887fef95372e920b712e8974ce657354f1f997fa2179ca", "asm": "3045022100a8761db2c5eb2dca6b8d80eec133aee2619571787cbc26d6b9a2c1b249a5cd96022003da84b06e1371e8a081dceb1184998cf598bc2ee08bed08142719045ee98bb7[ALL] 02ad7b56ccf4c8f0d5c3887fef95372e920b712e8974ce657354f1f997fa2179ca"}, "vout": 0, "txid": "221256616b6cdfd493da9f3831afc3253147438860a6fb5c4985103792a54f22"}, {"sequence": 4294967295, "scriptSig": {"hex": "473044022038387095218a4c615fc9a9462c22c181c95b88b4cd43c98bb2c9959d3bc7f0bc02202e3747b1c1ab414726790a28cab28224aa378148caf0081c37998bab8571dd59012103f7ca17de48ab5c0b2d44c814e41d725f199c91b67ee0acc0393b86abd5688f64", "asm": "3044022038387095218a4c615fc9a9462c22c181c95b88b4cd43c98bb2c9959d3bc7f0bc02202e3747b1c1ab414726790a28cab28224aa378148caf0081c37998bab8571dd59[ALL] 03f7ca17de48ab5c0b2d44c814e41d725f199c91b67ee0acc0393b86abd5688f64"}, "vout": 0, "txid": "62abcbcf9e0f3df31b4c37d5779a119906705ea48deca2d81a61f54ad214a7f1"}, {"sequence": 4294967295, "scriptSig": {"hex": "483045022100a795e51b0d51cd90bb5119d017ca30e599530254e44f6f76d843cad74e08c0bd02201ea3824140920d2021012142597aa4244d7d97e298ef2dfc262b83c9e6892e6301210299cdf72adbdc0586103f6e33f5b30244bcbb1a148e12f621ae8247c811beef26", "asm": "3045022100a795e51b0d51cd90bb5119d017ca30e599530254e44f6f76d843cad74e08c0bd02201ea3824140920d2021012142597aa4244d7d97e298ef2dfc262b83c9e6892e63[ALL] 0299cdf72adbdc0586103f6e33f5b30244bcbb1a148e12f621ae8247c811beef26"}, "vout": 0, "txid": "8aeb9f4c8c37553b6dfc4d5714836a48e10ca505886c38c47e2d8e53af63d3f4"}, {"sequence": 4294967295, "scriptSig": {"hex": "4830450221008e7853dc3ee5da0a3eb3f6ed3d49601d5193e8f7eb9df13cfc70123b0539682e0220601e8f545ab1d409afdd4a896cafbd29d2f7d4756d7532ec03722b52af21d639012103a21802058ab64a61ed4fea79badcc00b0ca9a1617865b0a3b22dcc802a071838", "asm": "30450221008e7853dc3ee5da0a3eb3f6ed3d49601d5193e8f7eb9df13cfc70123b0539682e0220601e8f545ab1d409afdd4a896cafbd29d2f7d4756d7532ec03722b52af21d639[ALL] 03a21802058ab64a61ed4fea79badcc00b0ca9a1617865b0a3b22dcc802a071838"}, "vout": 0, "txid": "e3618ef67004cef8d851447e4b4c7713c74b685eb56dd9bc659457e6995b45c2"}], "txid": "83d5ce861d061246458a511a2f49d01977425ce7b0a0c6b0747c4e23d87651dd", "blocktime": 1537872475, "version": 1, "confirmations": 11487, "time": 1537872475, "locktime": 0, "vsize": 669, "size": 669}