{"hash": "b6780a233f65ffbab1c68f5e31a92a7d1b370b63155d5e55859e1b7f2c4762bb", "blockhash": "00000000000000000024a2167bbff67b0be802c0b01cdd79e6331c2be6459f87", "vout": [{"scriptPubKey": {"reqSigs": 1, "hex": "a9149ce1ab02c890675eddbc76b4f52c421e3c211bbe87", "addresses": ["3FzXgA6RmskkPJKqgjD3guW8A3LPQrkDc3"], "asm": "OP_HASH160 9ce1ab02c890675eddbc76b4f52c421e3c211bbe OP_EQUAL", "type": "scripthash"}, "value": 0.003, "n": 0}, {"scriptPubKey": {"reqSigs": 1, "hex": "001402cd094598bf48e82bf4fd0dc56d01cf02903bcc", "addresses": ["bc1qqtxsj3vchayws2l5l5xu2mgpeupfqw7v8cvfch"], "asm": "0 02cd094598bf48e82bf4fd0dc56d01cf02903bcc", "type": "witness_v0_keyhash"}, "value": 2.597e-05, "n": 1}], "hex": "0100000000010139bf958eb9a32ac5b4cfeaef48f67e967166162f9e3c54e2e96bc415257483600000000000ffffffff02e09304000000000017a9149ce1ab02c890675eddbc76b4f52c421e3c211bbe87250a00000000000016001402cd094598bf48e82bf4fd0dc56d01cf02903bcc02483045022100a33cb2cdda7bd765507c5831e8fea1a7369c5dc5403cbb4ae1b1f3f951a392aa02200891aac0a38f8bccff8dfdea9537a5961216f418d5baa77e20f060f1f687912f0121037ad46bac25729e6a45dc61bf8178320acb7b86daa5699d636b44fc443c36476400000000", "vin": [{"txinwitness": ["3045022100a33cb2cdda7bd765507c5831e8fea1a7369c5dc5403cbb4ae1b1f3f951a392aa02200891aac0a38f8bccff8dfdea9537a5961216f418d5baa77e20f060f1f687912f01", "037ad46bac25729e6a45dc61bf8178320acb7b86daa5699d636b44fc443c364764"], "sequence": 4294967295, "scriptSig": {"hex": "", "asm": ""}, "vout": 0, "txid": "6083742515c46be9e2543c9e2f166671967ef648efeacfb4c52aa3b98e95bf39"}], "txid": "83d6b3a161c72d867f6a2cb0316ca477ca641bd169798174a7faf81f61be99b4", "blocktime": 1537870564, "version": 1, "confirmations": 11515, "time": 1537870564, "locktime": 0, "vsize": 142, "size": 224}