{"hash": "edfa108a43955ad35d449b4205e35a8dcbf83c4ab968ee219bbd763bbeb290b2", "blockhash": "00000000000000000004ffacab907a6b429b9a5745fa0b75af4234bf69dd7176", "vout": [{"scriptPubKey": {"reqSigs": 1, "hex": "76a914dec96589e19df6401c7aa142f37009647011db6188ac", "addresses": ["1MJzGsTHU3sdthSNiUbnG6s9cH1569t6St"], "asm": "OP_DUP OP_HASH160 dec96589e19df6401c7aa142f37009647011db61 OP_EQUALVERIFY OP_CHECKSIG", "type": "pubkeyhash"}, "value": 0.00047631, "n": 0}, {"scriptPubKey": {"reqSigs": 1, "hex": "a9141988a27e3c2df4ddee7fad5a2303d086179b2a3087", "addresses": ["3422VtS7UtCvXYxoXMVp6eZupR252z85oC"], "asm": "OP_HASH160 1988a27e3c2df4ddee7fad5a2303d086179b2a30 OP_EQUAL", "type": "scripthash"}, "value": 1.59400792, "n": 1}], "hex": "01000000000101b734ea251db2f3a974c30087e1bb5d6955aaba0b43c0c3948898f838a33362bf000000002322002065d416c48a8072e0ac51c2d111eb194f009caef0332446c1bf2097316cf07fa9ffffffff020fba0000000000001976a914dec96589e19df6401c7aa142f37009647011db6188ac584380090000000017a9141988a27e3c2df4ddee7fad5a2303d086179b2a30870400483045022100ec7dc8fece0d26e3c9a98697f7b1e05821d5b42a1a896b112cb2b1f069617fcf02204f0e346fd4f47cc21f1f818bb505cf25698a566c657b7cc19b58711e3d73cfc30147304402201cd4fa232912405229918049a7316ef046d9989c9448045bfd0b661efbaf16e10220184ea134b059532f390e8812d62fa9c32d98f73f4ec487e0d06b550fe28edb670169522102f44abcf9e23c9a460da309ccca56c619c04eed3bde2c2cff5e7d78fbcd980b9c2103c9443cf3047bb6c2c82f1b0c44c36109cdc3d0d601d16d1189a1602bf8d1a0a02103bfe867059274412412e088af5572b92168c2ef495cfe6c9b7a753a009eb37c4853ae00000000", "vin": [{"txinwitness": ["", "3045022100ec7dc8fece0d26e3c9a98697f7b1e05821d5b42a1a896b112cb2b1f069617fcf02204f0e346fd4f47cc21f1f818bb505cf25698a566c657b7cc19b58711e3d73cfc301", "304402201cd4fa232912405229918049a7316ef046d9989c9448045bfd0b661efbaf16e10220184ea134b059532f390e8812d62fa9c32d98f73f4ec487e0d06b550fe28edb6701", "522102f44abcf9e23c9a460da309ccca56c619c04eed3bde2c2cff5e7d78fbcd980b9c2103c9443cf3047bb6c2c82f1b0c44c36109cdc3d0d601d16d1189a1602bf8d1a0a02103bfe867059274412412e088af5572b92168c2ef495cfe6c9b7a753a009eb37c4853ae"], "sequence": 4294967295, "scriptSig": {"hex": "22002065d416c48a8072e0ac51c2d111eb194f009caef0332446c1bf2097316cf07fa9", "asm": "002065d416c48a8072e0ac51c2d111eb194f009caef0332446c1bf2097316cf07fa9"}, "vout": 0, "txid": "bf6233a338f8988894c3c0430bbaaa55695dbbe18700c374a9f3b21d25ea34b7"}], "txid": "83daa02546349134a3cdbcd45c2e2fcdcdf7e47768adcf899442b549da5ebe14", "blocktime": 1537875543, "version": 1, "confirmations": 11464, "time": 1537875543, "locktime": 0, "vsize": 216, "size": 407}