{"hash": "599ba857d4472526c4a6a9b933d7f1e2b73ea779e09a006a223e3eb26d5154c2", "blockhash": "0000000000000000001f76057863aec43deb6fa401d9628bb513d65a8098bfab", "vout": [{"scriptPubKey": {"reqSigs": 1, "hex": "76a9147b9881a739baf1953c69cfbebb2f7a280bdc06a688ac", "addresses": ["1CGWovvBmTP1w8tz6FQVMfYQ8MZpWcuATc"], "asm": "OP_DUP OP_HASH160 7b9881a739baf1953c69cfbebb2f7a280bdc06a6 OP_EQUALVERIFY OP_CHECKSIG", "type": "pubkeyhash"}, "value": 0.0024666, "n": 0}, {"scriptPubKey": {"reqSigs": 1, "hex": "a914e518700f4a227e25927905d2a5feebf3853feb8187", "addresses": ["3NaMwSGHwE5Luog9YXW19zmWkiKRvxSwwU"], "asm": "OP_HASH160 e518700f4a227e25927905d2a5feebf3853feb81 OP_EQUAL", "type": "scripthash"}, "value": 0.0107114, "n": 1}], "hex": "020000000001021b5aa8e7bf2b67d80391e51c32d50d0482ed8eda826a11b12274548be946489807000000171600149c3248abc2498411d316b48dfcbfcf346a755677feffffffdecdbc15e8972aafb6201108e42e6bc31dc4387bdf36a12d661ce64564ae8d0d0000000017160014c59a83d9ab9c37a79dabf480ae6e1a9ce43b6e54feffffff0284c30300000000001976a9147b9881a739baf1953c69cfbebb2f7a280bdc06a688ac245810000000000017a914e518700f4a227e25927905d2a5feebf3853feb818702483045022100c65ee205324881410821b09987c7ced1dc03b9b50d306baf008f77a09efab8db0220583b7edb6bc7e3ce87e3d5b42c8f3b05c16462b96ad55e59fd14fc5ca108158c01210236aad936ceaff55f50da364e9c8301352a172b258882158baec0f381a6d0fb2d0247304402203899348fab13009cec568352744b53646120dd9d05c2d6b0613f8a602779a02e02201243fe10ebdc9a2c649290d489d3eafbc03c6539e2217894c393151883bb169401210370044064f79fc84364234289cc9b12a29f1d877ea39d780768de55bc12b5c6ecc5480800", "vin": [{"txinwitness": ["3045022100c65ee205324881410821b09987c7ced1dc03b9b50d306baf008f77a09efab8db0220583b7edb6bc7e3ce87e3d5b42c8f3b05c16462b96ad55e59fd14fc5ca108158c01", "0236aad936ceaff55f50da364e9c8301352a172b258882158baec0f381a6d0fb2d"], "sequence": 4294967294, "scriptSig": {"hex": "1600149c3248abc2498411d316b48dfcbfcf346a755677", "asm": "00149c3248abc2498411d316b48dfcbfcf346a755677"}, "vout": 7, "txid": "984846e98b547422b1116a82da8eed82040dd5321ce59103d8672bbfe7a85a1b"}, {"txinwitness": ["304402203899348fab13009cec568352744b53646120dd9d05c2d6b0613f8a602779a02e02201243fe10ebdc9a2c649290d489d3eafbc03c6539e2217894c393151883bb169401", "0370044064f79fc84364234289cc9b12a29f1d877ea39d780768de55bc12b5c6ec"], "sequence": 4294967294, "scriptSig": {"hex": "160014c59a83d9ab9c37a79dabf480ae6e1a9ce43b6e54", "asm": "0014c59a83d9ab9c37a79dabf480ae6e1a9ce43b6e54"}, "vout": 0, "txid": "0d8dae6445e61c662da136df7b38c41dc36b2ee4081120b6af2a97e815bccdde"}], "txid": "83e0eb67a8210c90419e9759d937154849b3f0dc61b958f75adb9aeda29776b1", "blocktime": 1537873891, "version": 2, "confirmations": 11478, "time": 1537873891, "locktime": 542917, "vsize": 259, "size": 421}