{"hash": "c12e41ec3ee597566872f80ce93182aedc3b0c9c371f1f671cd6b72146dd0a91", "blockhash": "00000000000000000024a2167bbff67b0be802c0b01cdd79e6331c2be6459f87", "vout": [{"scriptPubKey": {"reqSigs": 1, "hex": "a914b1ebd978072e2efbe5327f12c082068d7896f6b187", "addresses": ["3Hun4cBekWAiiW7WYBfgJd1x8MkSd57BdL"], "asm": "OP_HASH160 b1ebd978072e2efbe5327f12c082068d7896f6b1 OP_EQUAL", "type": "scripthash"}, "value": 0.129596, "n": 0}, {"scriptPubKey": {"reqSigs": 1, "hex": "a914f463176cd2fc7d3f1493aae64c77f66ec983c5cf87", "addresses": ["3PyDWMBbpMJU5MJgJGh5zkqiyUB1WNCJL8"], "asm": "OP_HASH160 f463176cd2fc7d3f1493aae64c77f66ec983c5cf OP_EQUAL", "type": "scripthash"}, "value": 0.0092, "n": 1}], "hex": "01000000000101871b75a02109bdc0caf0fdaa0c0a761b2dff14d973754a989c7a1ed9e428ad4c010000002322002076579974a9a1399cd4cb07cfcca77bfb0167ddc518e492e6e7d757df0e9c6a82ffffffff0270bfc5000000000017a914b1ebd978072e2efbe5327f12c082068d7896f6b187c0090e000000000017a914f463176cd2fc7d3f1493aae64c77f66ec983c5cf870400483045022100ea915edd740aaff983854162d1fc2fa682f30583225d2cc3a877dc887b6c9f4202202b142634fd89b006b43de75269e32be1ac13897cf0f254f37f79ee161d965d3201483045022100a48db911fe2ebb51c3fd0338d9cf78599249cc6dc39b9c37b944e3b0e88c73da02205b34ff3588e433d32c80e7b3ef7889a2c37a053d71fca6315fd7d50d5e7a5fac016952210263cc25749eaa3e8f0c2b22fe72fb30b6f8fcdbf8e536c52c0290019f4bd09ecf2103d880c4fb291c62c7d973c7e54bac5297d7b031cacca6d68602147350a880203f21025f10bc416724b2c52d652fc4d7caf4c7fc1709842b1cb19f3af2f1690378006f53ae00000000", "vin": [{"txinwitness": ["", "3045022100ea915edd740aaff983854162d1fc2fa682f30583225d2cc3a877dc887b6c9f4202202b142634fd89b006b43de75269e32be1ac13897cf0f254f37f79ee161d965d3201", "3045022100a48db911fe2ebb51c3fd0338d9cf78599249cc6dc39b9c37b944e3b0e88c73da02205b34ff3588e433d32c80e7b3ef7889a2c37a053d71fca6315fd7d50d5e7a5fac01", "52210263cc25749eaa3e8f0c2b22fe72fb30b6f8fcdbf8e536c52c0290019f4bd09ecf2103d880c4fb291c62c7d973c7e54bac5297d7b031cacca6d68602147350a880203f21025f10bc416724b2c52d652fc4d7caf4c7fc1709842b1cb19f3af2f1690378006f53ae"], "sequence": 4294967295, "scriptSig": {"hex": "22002076579974a9a1399cd4cb07cfcca77bfb0167ddc518e492e6e7d757df0e9c6a82", "asm": "002076579974a9a1399cd4cb07cfcca77bfb0167ddc518e492e6e7d757df0e9c6a82"}, "vout": 1, "txid": "4cad28e4d91e7a9c984a7573d914ff2d1b760a0caafdf0cac0bd0921a0751b87"}], "txid": "83e1760fc547a4ed959c4ecd98829bd3db6017c9cc0feadfe803ac1efe4d6d4d", "blocktime": 1537870564, "version": 1, "confirmations": 11515, "time": 1537870564, "locktime": 0, "vsize": 214, "size": 406}