{"hash": "83e6badd4a7fe90d5f6ab47dd28f6f93486fb09a33ac5b614823b32f42dc3b50", "blockhash": "0000000000000000001f0ddff1eddb255c1121bcd4da4f1bc9a0da00cae72433", "vout": [{"scriptPubKey": {"reqSigs": 1, "hex": "a91416fd31af7285797ef29b429d0a737309eb99736e87", "addresses": ["33na6zoLAsWPCH9JWNiLeyYHjx3xcGqnF4"], "asm": "OP_HASH160 16fd31af7285797ef29b429d0a737309eb99736e OP_EQUAL", "type": "scripthash"}, "value": 0.02501101, "n": 0}, {"scriptPubKey": {"reqSigs": 1, "hex": "76a9146f0778c2488d0dff11467e4353cc796e6c6aa50488ac", "addresses": ["1B84xSM5ayBJHQi1mu7EmWcTKciWGRFY7d"], "asm": "OP_DUP OP_HASH160 6f0778c2488d0dff11467e4353cc796e6c6aa504 OP_EQUALVERIFY OP_CHECKSIG", "type": "pubkeyhash"}, "value": 0.02501915, "n": 1}], "hex": "01000000015ad7a316565c2655748fe2412b37cc1aae4db9319b8a8b1fb1f588c6e5a7deb3260000006a47304402205150619639d8180208bae9d692af3dfdba7a99f728a5756876404cbda9cd5fdb022025fffeb8a4b9dfb779f39246af76a60dcd5f1ff5dcc946dedd560d6d2222272c0121029e4c7e7b810b947821d8672e92b29d66526d7d7b3ac560c8c37df6953f98d99cffffffff02ed2926000000000017a91416fd31af7285797ef29b429d0a737309eb99736e871b2d2600000000001976a9146f0778c2488d0dff11467e4353cc796e6c6aa50488ac00000000", "vin": [{"sequence": 4294967295, "scriptSig": {"hex": "47304402205150619639d8180208bae9d692af3dfdba7a99f728a5756876404cbda9cd5fdb022025fffeb8a4b9dfb779f39246af76a60dcd5f1ff5dcc946dedd560d6d2222272c0121029e4c7e7b810b947821d8672e92b29d66526d7d7b3ac560c8c37df6953f98d99c", "asm": "304402205150619639d8180208bae9d692af3dfdba7a99f728a5756876404cbda9cd5fdb022025fffeb8a4b9dfb779f39246af76a60dcd5f1ff5dcc946dedd560d6d2222272c[ALL] 029e4c7e7b810b947821d8672e92b29d66526d7d7b3ac560c8c37df6953f98d99c"}, "vout": 38, "txid": "b3dea7e5c688f5b11f8b8a9b31b94dae1acc372b41e28f7455265c5616a3d75a"}], "txid": "83e6badd4a7fe90d5f6ab47dd28f6f93486fb09a33ac5b614823b32f42dc3b50", "blocktime": 1537872018, "version": 1, "confirmations": 11489, "time": 1537872018, "locktime": 0, "vsize": 223, "size": 223}