{"hash": "83e72824dee588ea28717da8ee4893662b7a6fc393ba8b351734c361adeb9d1d", "blockhash": "00000000000000000024a2167bbff67b0be802c0b01cdd79e6331c2be6459f87", "vout": [{"scriptPubKey": {"reqSigs": 1, "hex": "76a914c523a90496d8991a2de7db539b843babedf3e58e88ac", "addresses": ["1JyNqWP3JR7urWGdaHRqqJq3LZ8zAmijK8"], "asm": "OP_DUP OP_HASH160 c523a90496d8991a2de7db539b843babedf3e58e OP_EQUALVERIFY OP_CHECKSIG", "type": "pubkeyhash"}, "value": 2.18368058, "n": 0}, {"scriptPubKey": {"reqSigs": 1, "hex": "a91492f8e5973f8b39ca38940fb22747ec388edf6f4887", "addresses": ["3F68kCw6zufNCDLAA25sJV6JLcr3gkLtcG"], "asm": "OP_HASH160 92f8e5973f8b39ca38940fb22747ec388edf6f48 OP_EQUAL", "type": "scripthash"}, "value": 0.03954949, "n": 1}], "hex": "01000000013d4fb68dcc926e35511c546ce246397b4d189b98e02739cb8d9a49f821102e4c010000006b483045022100d9c92c6116a49fc2241f84f7300e200764eaa046a3182cab7417a8a02d173d4902200667af8a3e32383b9b79a7326185cf99c0025c1e52241385cb55cce324d839840121037147338d43bb5220880bf79a327533d1a43bd55fb5b83b28532ee811f9cdd6d9ffffffff023a08040d000000001976a914c523a90496d8991a2de7db539b843babedf3e58e88ac05593c000000000017a91492f8e5973f8b39ca38940fb22747ec388edf6f488700000000", "vin": [{"sequence": 4294967295, "scriptSig": {"hex": "483045022100d9c92c6116a49fc2241f84f7300e200764eaa046a3182cab7417a8a02d173d4902200667af8a3e32383b9b79a7326185cf99c0025c1e52241385cb55cce324d839840121037147338d43bb5220880bf79a327533d1a43bd55fb5b83b28532ee811f9cdd6d9", "asm": "3045022100d9c92c6116a49fc2241f84f7300e200764eaa046a3182cab7417a8a02d173d4902200667af8a3e32383b9b79a7326185cf99c0025c1e52241385cb55cce324d83984[ALL] 037147338d43bb5220880bf79a327533d1a43bd55fb5b83b28532ee811f9cdd6d9"}, "vout": 1, "txid": "4c2e1021f8499a8dcb3927e0989b184d7b3946e26c541c51356e92cc8db64f3d"}], "txid": "83e72824dee588ea28717da8ee4893662b7a6fc393ba8b351734c361adeb9d1d", "blocktime": 1537870564, "version": 1, "confirmations": 11515, "time": 1537870564, "locktime": 0, "vsize": 224, "size": 224}