{"hash": "686562c08b186bbdd5bb79822e846eabc2150185c9c200e85b2152f6b5a4bc5c", "blockhash": "0000000000000000000e13cef7c366c0283d82e591d1acd082e914b08063cdf1", "vout": [{"scriptPubKey": {"reqSigs": 1, "hex": "76a9141da3b3c20f49fb2668c6c1de2034a1807f05d79388ac", "addresses": ["13hihnpNLQPTTLwtRCyfGnMQJ1HuH9Hjis"], "asm": "OP_DUP OP_HASH160 1da3b3c20f49fb2668c6c1de2034a1807f05d793 OP_EQUALVERIFY OP_CHECKSIG", "type": "pubkeyhash"}, "value": 0.0119659, "n": 0}, {"scriptPubKey": {"reqSigs": 1, "hex": "a914909656e94add4aadd31babaf5e9d3da8be1ce92887", "addresses": ["3EsXKwQ9FYCwTyGstP6LHSaAa97K4p1oLQ"], "asm": "OP_HASH160 909656e94add4aadd31babaf5e9d3da8be1ce928 OP_EQUAL", "type": "scripthash"}, "value": 0.26165455, "n": 1}], "hex": "020000000001018f4fac8576a6e51eb435adb1bc3fd332b5b7afebe19dd1b5c878c77aac4b025e00000000171600145374eeca99f370a897b9f00a63edfcf5e6d99692fdffffff022e421200000000001976a9141da3b3c20f49fb2668c6c1de2034a1807f05d79388accf408f010000000017a914909656e94add4aadd31babaf5e9d3da8be1ce928870247304402200ea9b3ccad1dd0f49f4a3cbf99a251766701a0b73769750ad38582c971066b260220470c1f234cd9069afc438e79c5ec9d4cb7e9dc0f4eabb6f3ea7b24324eed4bbe0121036f39b18e4f77ac4082ebe4a313901db362d54d583bc917f58e4f95185ae0a1000b490800", "vin": [{"txinwitness": ["304402200ea9b3ccad1dd0f49f4a3cbf99a251766701a0b73769750ad38582c971066b260220470c1f234cd9069afc438e79c5ec9d4cb7e9dc0f4eabb6f3ea7b24324eed4bbe01", "036f39b18e4f77ac4082ebe4a313901db362d54d583bc917f58e4f95185ae0a100"], "sequence": 4294967293, "scriptSig": {"hex": "1600145374eeca99f370a897b9f00a63edfcf5e6d99692", "asm": "00145374eeca99f370a897b9f00a63edfcf5e6d99692"}, "vout": 0, "txid": "5e024bac7ac778c8b5d19de1ebafb7b532d33fbcb1ad35b41ee5a67685ac4f8f"}], "txid": "83e7bf9763b94352c011cb11cb0883704234c47279165b11519bfb6d5d86113c", "blocktime": 1537871767, "version": 2, "confirmations": 11490, "time": 1537871767, "locktime": 542987, "vsize": 168, "size": 249}