{"hash": "83e71f9a4efde0d12143bf4d090e097f49ea0ffc0e46d015b3553882bb056bc0", "blockhash": "0000000000000000000baef3f32e3676a92c3b2e5da21b426e4f302fc371ce76", "vout": [{"scriptPubKey": {"reqSigs": 1, "hex": "76a914cdeb119ad9f43b9eb60d1e06fd29e07655eff7ac88ac", "addresses": ["1Kmo8BzyRFQN1x5fqQ932AjdgsfiCCKThZ"], "asm": "OP_DUP OP_HASH160 cdeb119ad9f43b9eb60d1e06fd29e07655eff7ac OP_EQUALVERIFY OP_CHECKSIG", "type": "pubkeyhash"}, "value": 0.0155005, "n": 0}, {"scriptPubKey": {"reqSigs": 1, "hex": "a91486ed17bfa7bd80cf87cf7e80abd9289079b78c5b87", "addresses": ["3DzSVk4veMCkNbNT9CdETeE26uWxmNbBnD"], "asm": "OP_HASH160 86ed17bfa7bd80cf87cf7e80abd9289079b78c5b OP_EQUAL", "type": "scripthash"}, "value": 3.37163427, "n": 1}], "hex": "020000000123631d3b79be229e028ffa31bda2d3d14241646dfa894885495841fe5d83f88500000000d900473044022067a537ca62325f78576c260c59031b5214acd73ae69c212da11c79fb31b6a7c002204553ce77d6b30bb9ca7bae9eb10e43ea881a9d07f7e4a6f3efaaafde774cf6290147304402205ebec5f92be8284cf72ae1a28cdbe9c56473363cf946015db464c6e0ef68b30b02207212985701843bd778b4c469871437321adebeebd71f84a86fb078aa935b318201475221038934160de8ad1dd529329f5bf51e3086cc0f6d19e10fb4120385f23d871c0c1d21021659435e23e3891d39ec2b0266b3c14a68cb4e45adb8543f31508310c98722d952aeffffffff02e2a61700000000001976a914cdeb119ad9f43b9eb60d1e06fd29e07655eff7ac88aca3b418140000000017a91486ed17bfa7bd80cf87cf7e80abd9289079b78c5b8700000000", "vin": [{"sequence": 4294967295, "scriptSig": {"hex": "00473044022067a537ca62325f78576c260c59031b5214acd73ae69c212da11c79fb31b6a7c002204553ce77d6b30bb9ca7bae9eb10e43ea881a9d07f7e4a6f3efaaafde774cf6290147304402205ebec5f92be8284cf72ae1a28cdbe9c56473363cf946015db464c6e0ef68b30b02207212985701843bd778b4c469871437321adebeebd71f84a86fb078aa935b318201475221038934160de8ad1dd529329f5bf51e3086cc0f6d19e10fb4120385f23d871c0c1d21021659435e23e3891d39ec2b0266b3c14a68cb4e45adb8543f31508310c98722d952ae", "asm": "0 3044022067a537ca62325f78576c260c59031b5214acd73ae69c212da11c79fb31b6a7c002204553ce77d6b30bb9ca7bae9eb10e43ea881a9d07f7e4a6f3efaaafde774cf629[ALL] 304402205ebec5f92be8284cf72ae1a28cdbe9c56473363cf946015db464c6e0ef68b30b02207212985701843bd778b4c469871437321adebeebd71f84a86fb078aa935b3182[ALL] 5221038934160de8ad1dd529329f5bf51e3086cc0f6d19e10fb4120385f23d871c0c1d21021659435e23e3891d39ec2b0266b3c14a68cb4e45adb8543f31508310c98722d952ae"}, "vout": 0, "txid": "85f8835dfe415849854889fa6d644142d1d3a2bd31fa8f029e22be793b1d6323"}], "txid": "83e71f9a4efde0d12143bf4d090e097f49ea0ffc0e46d015b3553882bb056bc0", "blocktime": 1537876114, "version": 2, "confirmations": 11460, "time": 1537876114, "locktime": 0, "vsize": 334, "size": 334}