{"hash": "30b675a32a01c51d1950b8d359e3b0d6ed0915f597f2139ccd245d6daf0e258c", "blockhash": "0000000000000000000dcc0f55137456b1a82d3642486a52398922ac4d620174", "vout": [{"scriptPubKey": {"reqSigs": 1, "hex": "76a914b4d4153468a45ae5755743facbc660011f8352ac88ac", "addresses": ["1HV8hJZyQCLB9LB1L35efE3eCFfUZAXpvZ"], "asm": "OP_DUP OP_HASH160 b4d4153468a45ae5755743facbc660011f8352ac OP_EQUALVERIFY OP_CHECKSIG", "type": "pubkeyhash"}, "value": 0.00213, "n": 0}, {"scriptPubKey": {"reqSigs": 1, "hex": "a914627aa52932456d89054bd84f86246af3b71b93a887", "addresses": ["3Afj4stdiLG9EktGrMbm252ySonnhYaz8v"], "asm": "OP_HASH160 627aa52932456d89054bd84f86246af3b71b93a8 OP_EQUAL", "type": "scripthash"}, "value": 0.72077836, "n": 1}], "hex": "01000000000101321ae957d503cd1e615cf86967b7ad3dad4165561b83aa9b3d95ecf820e5f6fb01000000232200205fdd641234b13964b223bd85ad2a4a667ca2099df3d42a1d3b45706a8d81abf0ffffffff0208400300000000001976a914b4d4153468a45ae5755743facbc660011f8352ac88ac0cd24b040000000017a914627aa52932456d89054bd84f86246af3b71b93a887040047304402207c9322353e64fa127ffcef03d39e6f1301d12855eb27d6e3c42095841229c4b702203093fb18c68c1d0b709ff0f3eef2b09b49d027142c8b9ed8fa38e165a4c926af01483045022100eebd79f308a0bcbbc425ce41a7d7e844a79e16306bcebfc3b401c326045e767702201c123027b36bbe1a7f861dd28569d4bd42b208340454a6bb3e7fc33fb1dbc5330147522103dcde3832fa56def7b4e783faad1b8af85c3cdd74a5ff4f3c7c216b1075c18da12103c70ae8ded79be1afda73b9ce5ea14a3878908ee160d66a9a717e792bb6db276952ae00000000", "vin": [{"txinwitness": ["", "304402207c9322353e64fa127ffcef03d39e6f1301d12855eb27d6e3c42095841229c4b702203093fb18c68c1d0b709ff0f3eef2b09b49d027142c8b9ed8fa38e165a4c926af01", "3045022100eebd79f308a0bcbbc425ce41a7d7e844a79e16306bcebfc3b401c326045e767702201c123027b36bbe1a7f861dd28569d4bd42b208340454a6bb3e7fc33fb1dbc53301", "522103dcde3832fa56def7b4e783faad1b8af85c3cdd74a5ff4f3c7c216b1075c18da12103c70ae8ded79be1afda73b9ce5ea14a3878908ee160d66a9a717e792bb6db276952ae"], "sequence": 4294967295, "scriptSig": {"hex": "2200205fdd641234b13964b223bd85ad2a4a667ca2099df3d42a1d3b45706a8d81abf0", "asm": "00205fdd641234b13964b223bd85ad2a4a667ca2099df3d42a1d3b45706a8d81abf0"}, "vout": 1, "txid": "fbf6e520f8ec953d9baa831b566541ad3dadb76769f85c611ecd03d557e91a32"}], "txid": "83eb1a99e9dfd1729690a4951f7a6a7edff8ec5738be54cd488ed69d72724e9a", "blocktime": 1537870268, "version": 1, "confirmations": 11518, "time": 1537870268, "locktime": 0, "vsize": 208, "size": 373}