{"hash": "712872d29ca3f2f973aff7ad2ac0254581edd1640e89a913481a672bc742184c", "blockhash": "0000000000000000001f76057863aec43deb6fa401d9628bb513d65a8098bfab", "vout": [{"scriptPubKey": {"reqSigs": 1, "hex": "76a914e3088ba93aaf0f93fb7d87033f387ca4aeea613488ac", "addresses": ["1MhSdJSt4mH3apqD9vFjvErbEfd35qBBcZ"], "asm": "OP_DUP OP_HASH160 e3088ba93aaf0f93fb7d87033f387ca4aeea6134 OP_EQUALVERIFY OP_CHECKSIG", "type": "pubkeyhash"}, "value": 1.30367963, "n": 0}, {"scriptPubKey": {"reqSigs": 1, "hex": "a914241a5827133e64b1fc298f511e113069ec7235aa87", "addresses": ["34yuotPqVRBBAUp6hgxttC4GNYCc9hudVT"], "asm": "OP_HASH160 241a5827133e64b1fc298f511e113069ec7235aa OP_EQUAL", "type": "scripthash"}, "value": 0.00325919, "n": 1}], "hex": "0100000000010aeefe7995b47ae7b9cdab73a6bf36078388db63cd46cd3e1ec0a89d6d97b7eee600000000232200206088cac14c2da9e8276779fccc67cfbbd7715804cf44f287d708d7140bb06f3dffffffff9d4a8f612e858797ce0bdbf7328bd9d5f5003934487d5c9c7759b02d0f6926490000000023220020de98b1e31ad97362db97298b03d91e54bc07092f6906b45e543387d79d73b0d0ffffffff01777fc6af7f96f8f982a4f0d709cda345cc45bad627018ad5d251dfb0629cbb0200000023220020f132d9ce47d257cc86f40529063c9beda2270a3ba0ce0c3f1af8464cc9b24a09ffffffffa44edb57571cbfd0df732ac499fd7e2542561f2ec21f1e38e2670ebae6e3bb0200000000232200205d84cd4a87445d7d9c9c50227885ad727a422beb79abc380a5c50b27f6775764fffffffffdaa5d36d68840f981175a3bb26d7e2ce0fbded2cb7164dbd10541d2b1d9e79100000000232200202f085785da1bb2f12282ee86e0908b2bc2e62bb320851e0a174a6f7734a03db8ffffffffdb3d9a94311600e635454732317bf8984cae224c4c071c28efe877b4b5454a010000000023220020cee5532840dab2b1a5e4ca982f0b830dd26a32ee08b22bc466a3703a2dba96baffffffffc45e0bfa8a01ef9be7b272c40a302fcda0faf3ff5a6fed650f3e4b9ad6e7739e0000000023220020bf49ce363b1f029505ac6d11d6959e0a0eac9ef45091dd5ad9b94f0b2808d267fffffffffb370dd21b3dcb3c0b7163491758e89178c5275d5e2296815f7bcf8278b0ee1b000000002322002018140369074dacd36e9e1991b75d6db3e9a7d7081b44e875e7f4f5051b5b8a7bffffffffb6b92c6771f41282cea496222076454f28ddb1521365ca9297ef18063c491779000000002322002099dc9d57ebc9fbce40412d139005ba04975c59de6c46a952b6695a0716881b49ffffffff9c8fb58b5e0976a1512e3788a601c9198858b8c3ae315188a2eebb8d93e0570f0100000023220020383172d5c9707976615f94bd1222ce3178df191ffdaac20a2a996c0dcecc4f6effffffff02db41c507000000001976a914e3088ba93aaf0f93fb7d87033f387ca4aeea613488ac1ff904000000000017a914241a5827133e64b1fc298f511e113069ec7235aa870400483045022100d2863337484cb81e0e4fd53eb9afdefd0ca5e4e4a2f0aa2610ef0d0eac788ab202206acbbbd4775521c6cb29aa1c8e6490f55ce257bdd96013ba6ec21fea136e14750147304402203fae07ad95e3c34681985264d87470db4cd3825b5819df5783eb5edb9ab5345d022031d0a5cc7b3e7929cc3cc242ece2d86da9e556fd68c773afb1e4bac064f1b38b016952210337a0a83267ca3e89b608ba32894d9f7924a2b468425aa30ff7500b6fbec4523521026044b471fcb501a4ed9126462253722378cef9617f0a415107f6c046057aa0af21023d9fa7a289fb33b59f64e6f2f9f45902af101f74f9048b62742ef70dc6b2d86153ae040047304402204f4274afee11b7595ba3b810ae833d36039ca3a00d1b54a171fb81d3e6a4274702201f3d918dfbf0d2d3bd5ac314d9a8a8f4d66ffbece62f83f176f6849eb8c1e85c01473044022006c9cbf164d9d3e4d114574ae09be01e4952135b2bcf4c5bb4073beef9eafeb2022054c82418a478fd046713858a7b97b566534cc0f281670fc5db7a6144a2bbd9190169522103328134316ae501b50075199c29922666dc077839e2e2f0acbe3f9bc7b2de5c9c2102dacf524227401e55d7b63c08c24686ee32b6a66ddfed915868ac8c883e4a14b22102871e2ecd7707c5ef5306577161f58bffdd813dc3610de063c6d40f28b73a4c1453ae04004730440220731f9087792df9998bfc0415084d80a793120c4099ca9938943a9aeed06b2eb202206bfa65613c6fe5aabcfb4f4c984c4d0de340920d29e4d8f805f7b67f36a3753c0147304402205dbb2d97f536321d4d0879b10164394515ca917682fb38661570281c7976eb8f022031f0f29ea893c767847368c90ee777c9906c62b848461f9b0c12d0c3d8b5dbd10169522103559e9409ec628553f44b0b6840d1a25cf4b9dbc37e36dad634fbd8200651199c210219611901d6172a8774da7e4dcf3fdc6e3f823f703b04c2219a017f44d259f6ff21038dd86ecd5344306f2bca9946311eb18a52b0508494b670c3423d20d7fd476ed653ae0400483045022100f403c4d27d1811252bd5b69ddf949578055e3669d3dd1decaa9e1fb9757a26b80220615c136c9c9939360e0e91ddaf570cdb13ee1804426980a1519b122b3a2c753301473044022075a2ec74ff4cce15c834b0a8acb1126a9071896a3827bdb9e4ae61f8ce45643002203ae8f6b5a02e1f4f85410d3b026fb421fda2f65b26b061e710ddad8c5a284d6f0169522103795609bcc2d6c8086e2833d038a75e90f25405e2ed1d6816c8c940e20179aafa21021dea48b8c3e7fa393fa3ba09cd7a376fcbedd0efa1363c27d998b8616b9d1a5a210238fbcd2502d00e88f6af675eac4dd36e3026312dcfaf0ee73b532eadcf5e6dfc53ae0400473044022043f223e4fb2b3c3b83460e454d07c7dcf31c114727f1881f3f22378f8636dcad022036699c0c389538c67ebc564e78af3af8282c4ff4f730c3746e96deb6b69daf1e01483045022100ae054efecd8a09775ad6cb9cea07c1262d210e36150668cdb0af4212b09128d902200e81f1bdb14d2489e6638477eb89c6786cd2b9d9c0f3cd0df200925f9325cc380169522102fdf8c166c8f50006b88cca6a3f2acdf2fd9bf15573fd9951f55993d70ec23f122102bf69f1833fe7292d829958c963741ca36da1db87c9ff1d5cf526b404f9bed6342102788f9fd4c4e06d7e48281bce0d2b61d8c357aa680c5bbbf4758a304efbc8a00d53ae040047304402201c8c04cd01bd0d5f0e20511d99f837f6f2f05bd73b45672c2fd501399f4e8f0702207b493893ad7d728c6356d36dfa07e49ddf0e256297baeb5fe750e4aaee9854c301483045022100c288ec790b75ee0348c387f7dda2ffae3dea11063a2929b16cef9afad6cebfa502205abe07f9418318447d57ff5498cad9a2b50814d5cf3258df61b3a66a3b6fa26e016952210367262589b4f44d9766225ee932f59ecf1cf611ba2ecac1994fb91c678421e5332102e546e1738fb01b05c4ee44bad7dfd5199e0ef3aaeb6018e0e780039b33cca3cc21035fbcef219f3035bd2f48d7ae25b1bba2d9ae82db798ffa993dd68e9269398b4a53ae04004730440220462eeb52aa2f54a5875dbb2251dfe6cefe804e86e078a6860dd3a20e9f99588102201dd137d695990e3251339c6dda6266684fb056b0c0ad9b262a0b73fee1b8dda501473044022014bf2fcac4f85be39cebdc501147be3e60c36f74eb1b5fa1cf9db3aeef2bd0e90220374a4b52c1830ac735e23e00ee0eab8f3015ce9d06c04a18ab3d070b3bd597840169522102c0d4d29c53b70fc9b7fafd0b8930e7d1a840f79d1770f697ed59e07ac7c4e20b21028eb05218faa72d032b823864910dfad7671d0e2dc0ed84f535d6e13789a04a492102e182127856761d4ba66b11017e4fd9565261600b205393fa80cfa3e2ffc8859253ae0400483045022100ed7dd02811006c0404b493cbfa504cf255c934c769c74a302d818b61edf736d102203880ffc817ab54b6aa60304a40516a92d415e6ec09f7479bf0e046d922495c4301483045022100b8343aa9dcf15c750dad43db6732e579f70d205cda4dde1c003655c0689afd780220251415b2c718977dc019dc65e981a3bf9b002a97d7f83a1a8c25fb4d3f92f4870169522103184ce063cf9a0a7e76974908b5d8b0ab1b23add03334e5608ee7ca9d75113307210294e15b346af26de1c169d255e85d732e260190fbcee81ffd79a14150a26a568c21029491fb53c8a1e0d93d61ec85412895869c7353ccc0e5b816083f601f4b0ab35953ae0400473044022046d25ec2ba97abe5d4155b61ec4a32c98cc681195602898d8f87378de9925696022029f07d45a9424d4f585200e5031be76f0a74f0aee2c60174b58d104e5c54842001483045022100e97e891dc23dac8f75875497476c459e6c1ef66c44bf60f2f0ad22fc1418dbb402203f2cca2225960eaa25834e96152eacb07086066a95edc5549fc4ccb37133d4d4016952210238f96c922c5dae90de73653da4c9ca683e52673eb7407b4bc09b3d38f88813e321039c1595e1465bab47d60328857558c51db0d52c5e2e8301e1ed7c413b1678f70921036f8bab59db22d1b2c3d6fedf5291f39d8cae296e0f5fc5020fbb0941136e306753ae0400483045022100bcbf35167c004390b373b61bab1581101142fff2767674a0fda8043a9ade753f0220677b21c5af639d03a884e77756a93dbcde66b924ddd823c2ab2efe25e3581a3b014730440220561719ec4adbc6944634730007ecd91fbc18c9e2422fb753d8783c0ef5de41f802200ae278f6ed6f178faf2642bdaf23ddb6e83d1883762c6ddc9893e015526b596c01695221026e0eba222cf91bd012d0e5d4d0997aec789bd909085f71670ebe7d569621a941210215b887a9692383011b265124d6192462d0d90024b4cf261f37cfda78ee82fbd721039091b62355c2f2d71f113b3937922f00c0b3c8648ffedbde8acbf284b0f76b4a53ae00000000", "vin": [{"txinwitness": ["", "3045022100d2863337484cb81e0e4fd53eb9afdefd0ca5e4e4a2f0aa2610ef0d0eac788ab202206acbbbd4775521c6cb29aa1c8e6490f55ce257bdd96013ba6ec21fea136e147501", "304402203fae07ad95e3c34681985264d87470db4cd3825b5819df5783eb5edb9ab5345d022031d0a5cc7b3e7929cc3cc242ece2d86da9e556fd68c773afb1e4bac064f1b38b01", "52210337a0a83267ca3e89b608ba32894d9f7924a2b468425aa30ff7500b6fbec4523521026044b471fcb501a4ed9126462253722378cef9617f0a415107f6c046057aa0af21023d9fa7a289fb33b59f64e6f2f9f45902af101f74f9048b62742ef70dc6b2d86153ae"], "sequence": 4294967295, "scriptSig": {"hex": "2200206088cac14c2da9e8276779fccc67cfbbd7715804cf44f287d708d7140bb06f3d", "asm": "00206088cac14c2da9e8276779fccc67cfbbd7715804cf44f287d708d7140bb06f3d"}, "vout": 0, "txid": "e6eeb7976d9da8c01e3ecd46cd63db88830736bfa673abcdb9e77ab49579feee"}, {"txinwitness": ["", "304402204f4274afee11b7595ba3b810ae833d36039ca3a00d1b54a171fb81d3e6a4274702201f3d918dfbf0d2d3bd5ac314d9a8a8f4d66ffbece62f83f176f6849eb8c1e85c01", "3044022006c9cbf164d9d3e4d114574ae09be01e4952135b2bcf4c5bb4073beef9eafeb2022054c82418a478fd046713858a7b97b566534cc0f281670fc5db7a6144a2bbd91901", "522103328134316ae501b50075199c29922666dc077839e2e2f0acbe3f9bc7b2de5c9c2102dacf524227401e55d7b63c08c24686ee32b6a66ddfed915868ac8c883e4a14b22102871e2ecd7707c5ef5306577161f58bffdd813dc3610de063c6d40f28b73a4c1453ae"], "sequence": 4294967295, "scriptSig": {"hex": "220020de98b1e31ad97362db97298b03d91e54bc07092f6906b45e543387d79d73b0d0", "asm": "0020de98b1e31ad97362db97298b03d91e54bc07092f6906b45e543387d79d73b0d0"}, "vout": 0, "txid": "4926690f2db059779c5c7d48343900f5d5d98b32f7db0bce9787852e618f4a9d"}, {"txinwitness": ["", "30440220731f9087792df9998bfc0415084d80a793120c4099ca9938943a9aeed06b2eb202206bfa65613c6fe5aabcfb4f4c984c4d0de340920d29e4d8f805f7b67f36a3753c01", "304402205dbb2d97f536321d4d0879b10164394515ca917682fb38661570281c7976eb8f022031f0f29ea893c767847368c90ee777c9906c62b848461f9b0c12d0c3d8b5dbd101", "522103559e9409ec628553f44b0b6840d1a25cf4b9dbc37e36dad634fbd8200651199c210219611901d6172a8774da7e4dcf3fdc6e3f823f703b04c2219a017f44d259f6ff21038dd86ecd5344306f2bca9946311eb18a52b0508494b670c3423d20d7fd476ed653ae"], "sequence": 4294967295, "scriptSig": {"hex": "220020f132d9ce47d257cc86f40529063c9beda2270a3ba0ce0c3f1af8464cc9b24a09", "asm": "0020f132d9ce47d257cc86f40529063c9beda2270a3ba0ce0c3f1af8464cc9b24a09"}, "vout": 2, "txid": "bb9c62b0df51d2d58a0127d6ba45cc45a3cd09d7f0a482f9f8967fafc67f7701"}, {"txinwitness": ["", "3045022100f403c4d27d1811252bd5b69ddf949578055e3669d3dd1decaa9e1fb9757a26b80220615c136c9c9939360e0e91ddaf570cdb13ee1804426980a1519b122b3a2c753301", "3044022075a2ec74ff4cce15c834b0a8acb1126a9071896a3827bdb9e4ae61f8ce45643002203ae8f6b5a02e1f4f85410d3b026fb421fda2f65b26b061e710ddad8c5a284d6f01", "522103795609bcc2d6c8086e2833d038a75e90f25405e2ed1d6816c8c940e20179aafa21021dea48b8c3e7fa393fa3ba09cd7a376fcbedd0efa1363c27d998b8616b9d1a5a210238fbcd2502d00e88f6af675eac4dd36e3026312dcfaf0ee73b532eadcf5e6dfc53ae"], "sequence": 4294967295, "scriptSig": {"hex": "2200205d84cd4a87445d7d9c9c50227885ad727a422beb79abc380a5c50b27f6775764", "asm": "00205d84cd4a87445d7d9c9c50227885ad727a422beb79abc380a5c50b27f6775764"}, "vout": 0, "txid": "02bbe3e6ba0e67e2381e1fc22e1f5642257efd99c42a73dfd0bf1c5757db4ea4"}, {"txinwitness": ["", "3044022043f223e4fb2b3c3b83460e454d07c7dcf31c114727f1881f3f22378f8636dcad022036699c0c389538c67ebc564e78af3af8282c4ff4f730c3746e96deb6b69daf1e01", "3045022100ae054efecd8a09775ad6cb9cea07c1262d210e36150668cdb0af4212b09128d902200e81f1bdb14d2489e6638477eb89c6786cd2b9d9c0f3cd0df200925f9325cc3801", "522102fdf8c166c8f50006b88cca6a3f2acdf2fd9bf15573fd9951f55993d70ec23f122102bf69f1833fe7292d829958c963741ca36da1db87c9ff1d5cf526b404f9bed6342102788f9fd4c4e06d7e48281bce0d2b61d8c357aa680c5bbbf4758a304efbc8a00d53ae"], "sequence": 4294967295, "scriptSig": {"hex": "2200202f085785da1bb2f12282ee86e0908b2bc2e62bb320851e0a174a6f7734a03db8", "asm": "00202f085785da1bb2f12282ee86e0908b2bc2e62bb320851e0a174a6f7734a03db8"}, "vout": 0, "txid": "91e7d9b1d24105d1db6471cbd2defbe02c7e6db23b5a1781f94088d6365daafd"}, {"txinwitness": ["", "304402201c8c04cd01bd0d5f0e20511d99f837f6f2f05bd73b45672c2fd501399f4e8f0702207b493893ad7d728c6356d36dfa07e49ddf0e256297baeb5fe750e4aaee9854c301", "3045022100c288ec790b75ee0348c387f7dda2ffae3dea11063a2929b16cef9afad6cebfa502205abe07f9418318447d57ff5498cad9a2b50814d5cf3258df61b3a66a3b6fa26e01", "52210367262589b4f44d9766225ee932f59ecf1cf611ba2ecac1994fb91c678421e5332102e546e1738fb01b05c4ee44bad7dfd5199e0ef3aaeb6018e0e780039b33cca3cc21035fbcef219f3035bd2f48d7ae25b1bba2d9ae82db798ffa993dd68e9269398b4a53ae"], "sequence": 4294967295, "scriptSig": {"hex": "220020cee5532840dab2b1a5e4ca982f0b830dd26a32ee08b22bc466a3703a2dba96ba", "asm": "0020cee5532840dab2b1a5e4ca982f0b830dd26a32ee08b22bc466a3703a2dba96ba"}, "vout": 0, "txid": "014a45b5b477e8ef281c074c4c22ae4c98f87b3132474535e6001631949a3ddb"}, {"txinwitness": ["", "30440220462eeb52aa2f54a5875dbb2251dfe6cefe804e86e078a6860dd3a20e9f99588102201dd137d695990e3251339c6dda6266684fb056b0c0ad9b262a0b73fee1b8dda501", "3044022014bf2fcac4f85be39cebdc501147be3e60c36f74eb1b5fa1cf9db3aeef2bd0e90220374a4b52c1830ac735e23e00ee0eab8f3015ce9d06c04a18ab3d070b3bd5978401", "522102c0d4d29c53b70fc9b7fafd0b8930e7d1a840f79d1770f697ed59e07ac7c4e20b21028eb05218faa72d032b823864910dfad7671d0e2dc0ed84f535d6e13789a04a492102e182127856761d4ba66b11017e4fd9565261600b205393fa80cfa3e2ffc8859253ae"], "sequence": 4294967295, "scriptSig": {"hex": "220020bf49ce363b1f029505ac6d11d6959e0a0eac9ef45091dd5ad9b94f0b2808d267", "asm": "0020bf49ce363b1f029505ac6d11d6959e0a0eac9ef45091dd5ad9b94f0b2808d267"}, "vout": 0, "txid": "9e73e7d69a4b3e0f65ed6f5afff3faa0cd2f300ac472b2e79bef018afa0b5ec4"}, {"txinwitness": ["", "3045022100ed7dd02811006c0404b493cbfa504cf255c934c769c74a302d818b61edf736d102203880ffc817ab54b6aa60304a40516a92d415e6ec09f7479bf0e046d922495c4301", "3045022100b8343aa9dcf15c750dad43db6732e579f70d205cda4dde1c003655c0689afd780220251415b2c718977dc019dc65e981a3bf9b002a97d7f83a1a8c25fb4d3f92f48701", "522103184ce063cf9a0a7e76974908b5d8b0ab1b23add03334e5608ee7ca9d75113307210294e15b346af26de1c169d255e85d732e260190fbcee81ffd79a14150a26a568c21029491fb53c8a1e0d93d61ec85412895869c7353ccc0e5b816083f601f4b0ab35953ae"], "sequence": 4294967295, "scriptSig": {"hex": "22002018140369074dacd36e9e1991b75d6db3e9a7d7081b44e875e7f4f5051b5b8a7b", "asm": "002018140369074dacd36e9e1991b75d6db3e9a7d7081b44e875e7f4f5051b5b8a7b"}, "vout": 0, "txid": "1beeb07882cf7b5f8196225e5d27c57891e858174963710b3ccb3d1bd20d37fb"}, {"txinwitness": ["", "3044022046d25ec2ba97abe5d4155b61ec4a32c98cc681195602898d8f87378de9925696022029f07d45a9424d4f585200e5031be76f0a74f0aee2c60174b58d104e5c54842001", "3045022100e97e891dc23dac8f75875497476c459e6c1ef66c44bf60f2f0ad22fc1418dbb402203f2cca2225960eaa25834e96152eacb07086066a95edc5549fc4ccb37133d4d401", "52210238f96c922c5dae90de73653da4c9ca683e52673eb7407b4bc09b3d38f88813e321039c1595e1465bab47d60328857558c51db0d52c5e2e8301e1ed7c413b1678f70921036f8bab59db22d1b2c3d6fedf5291f39d8cae296e0f5fc5020fbb0941136e306753ae"], "sequence": 4294967295, "scriptSig": {"hex": "22002099dc9d57ebc9fbce40412d139005ba04975c59de6c46a952b6695a0716881b49", "asm": "002099dc9d57ebc9fbce40412d139005ba04975c59de6c46a952b6695a0716881b49"}, "vout": 0, "txid": "7917493c0618ef9792ca651352b1dd284f4576202296a4ce8212f471672cb9b6"}, {"txinwitness": ["", "3045022100bcbf35167c004390b373b61bab1581101142fff2767674a0fda8043a9ade753f0220677b21c5af639d03a884e77756a93dbcde66b924ddd823c2ab2efe25e3581a3b01", "30440220561719ec4adbc6944634730007ecd91fbc18c9e2422fb753d8783c0ef5de41f802200ae278f6ed6f178faf2642bdaf23ddb6e83d1883762c6ddc9893e015526b596c01", "5221026e0eba222cf91bd012d0e5d4d0997aec789bd909085f71670ebe7d569621a941210215b887a9692383011b265124d6192462d0d90024b4cf261f37cfda78ee82fbd721039091b62355c2f2d71f113b3937922f00c0b3c8648ffedbde8acbf284b0f76b4a53ae"], "sequence": 4294967295, "scriptSig": {"hex": "220020383172d5c9707976615f94bd1222ce3178df191ffdaac20a2a996c0dcecc4f6e", "asm": "0020383172d5c9707976615f94bd1222ce3178df191ffdaac20a2a996c0dcecc4f6e"}, "vout": 1, "txid": "0f57e0938dbbeea2885131aec3b8588819c901a688372e51a176095e8bb58f9c"}], "txid": "83ebc7be0864084e16eed6951add29bf003d854d467ead4cf9d7d293c866d44e", "blocktime": 1537873891, "version": 1, "confirmations": 11478, "time": 1537873891, "locktime": 0, "vsize": 1469, "size": 3366}