{"hash": "83ed07458cc39b4563715c4054b52fd2d9934c3ea8cf393a20ec2a74167f9adc", "blockhash": "00000000000000000018f53835495a110e01622372bf6ae95dc86f2b0ab887b0", "vout": [{"scriptPubKey": {"reqSigs": 1, "hex": "76a914e20447d4d0c8ffaa314a777e932cf4513053062f88ac", "addresses": ["1Mc4qmuw5rtwdueXoMJTY1bANGZwUF7jLP"], "asm": "OP_DUP OP_HASH160 e20447d4d0c8ffaa314a777e932cf4513053062f OP_EQUALVERIFY OP_CHECKSIG", "type": "pubkeyhash"}, "value": 0.18747259, "n": 0}, {"scriptPubKey": {"reqSigs": 1, "hex": "76a914d5ba2eb2d52670fbe9522748bf642da754eb0d6f88ac", "addresses": ["1LV5y3NkVkmdWnF6xRCEXrAnUkRgge4KSq"], "asm": "OP_DUP OP_HASH160 d5ba2eb2d52670fbe9522748bf642da754eb0d6f OP_EQUALVERIFY OP_CHECKSIG", "type": "pubkeyhash"}, "value": 0.19905965, "n": 1}], "hex": "010000000113251c1e9b1f8ab5bd0fe0b597ff8bf5b4b3aaf233cc6df63faa0e31eec59d55010000006a4730440220522a551d58521ef047f5d622eb59e5ff5236d3bbcf1aa43ec0eccfbfae89e36b02204f63ab12b3422280717b1bc6af3a345ed138a8e061bdd7148ee81b24eb3e267a012102c19ebc0e7fe714e24c55adaeebc7dbab2dc9a208b511bd1b6e83db85506d4d19ffffffff027b0f1e01000000001976a914e20447d4d0c8ffaa314a777e932cf4513053062f88acadbd2f01000000001976a914d5ba2eb2d52670fbe9522748bf642da754eb0d6f88ac00000000", "vin": [{"sequence": 4294967295, "scriptSig": {"hex": "4730440220522a551d58521ef047f5d622eb59e5ff5236d3bbcf1aa43ec0eccfbfae89e36b02204f63ab12b3422280717b1bc6af3a345ed138a8e061bdd7148ee81b24eb3e267a012102c19ebc0e7fe714e24c55adaeebc7dbab2dc9a208b511bd1b6e83db85506d4d19", "asm": "30440220522a551d58521ef047f5d622eb59e5ff5236d3bbcf1aa43ec0eccfbfae89e36b02204f63ab12b3422280717b1bc6af3a345ed138a8e061bdd7148ee81b24eb3e267a[ALL] 02c19ebc0e7fe714e24c55adaeebc7dbab2dc9a208b511bd1b6e83db85506d4d19"}, "vout": 1, "txid": "559dc5ee310eaa3ff66dcc33f2aab3b4f58bff97b5e00fbdb58a1f9b1e1c2513"}], "txid": "83ed07458cc39b4563715c4054b52fd2d9934c3ea8cf393a20ec2a74167f9adc", "blocktime": 1537870928, "version": 1, "confirmations": 11512, "time": 1537870928, "locktime": 0, "vsize": 225, "size": 225}