{"hash": "83ee4ee2d21f0615134f1001996b9f139b169924457ac507806c1b78f43edeac", "blockhash": "00000000000000000004ffacab907a6b429b9a5745fa0b75af4234bf69dd7176", "vout": [{"scriptPubKey": {"reqSigs": 1, "hex": "a914859fe142be41f559946644de4148647041cac65487", "addresses": ["3DsZKi5iCnBgLxK1TWmb88A12RNmrkKtRj"], "asm": "OP_HASH160 859fe142be41f559946644de4148647041cac654 OP_EQUAL", "type": "scripthash"}, "value": 0.07890132, "n": 0}, {"scriptPubKey": {"reqSigs": 1, "hex": "76a9145470bc053b601dabb1b086148b8158f481c2025188ac", "addresses": ["18hUp3Nv6skkhRVetojmJFBad2D3BBjbbk"], "asm": "OP_DUP OP_HASH160 5470bc053b601dabb1b086148b8158f481c20251 OP_EQUALVERIFY OP_CHECKSIG", "type": "pubkeyhash"}, "value": 0.12752106, "n": 1}], "hex": "01000000019644def1f0cceb876ad893f354ba9fe406dcc028dad46c05ccdd0a13da080814010000006a47304402204c22589e2a32a77fc005617a02a66126375ccbe07c0de8f3b4bb85f261d79c9202201d80aff2321489603e42acbf60aeda93ae18f2e8b6db1013e458c762b1350fb40121039d42585041ccc3c3d325db3505ed056efc42378f43865d04e32e6eae78d790dcffffffff02d46478000000000017a914859fe142be41f559946644de4148647041cac65487ea94c200000000001976a9145470bc053b601dabb1b086148b8158f481c2025188ac00000000", "vin": [{"sequence": 4294967295, "scriptSig": {"hex": "47304402204c22589e2a32a77fc005617a02a66126375ccbe07c0de8f3b4bb85f261d79c9202201d80aff2321489603e42acbf60aeda93ae18f2e8b6db1013e458c762b1350fb40121039d42585041ccc3c3d325db3505ed056efc42378f43865d04e32e6eae78d790dc", "asm": "304402204c22589e2a32a77fc005617a02a66126375ccbe07c0de8f3b4bb85f261d79c9202201d80aff2321489603e42acbf60aeda93ae18f2e8b6db1013e458c762b1350fb4[ALL] 039d42585041ccc3c3d325db3505ed056efc42378f43865d04e32e6eae78d790dc"}, "vout": 1, "txid": "140808da130addcc056cd4da28c0dc06e49fba54f393d86a87ebccf0f1de4496"}], "txid": "83ee4ee2d21f0615134f1001996b9f139b169924457ac507806c1b78f43edeac", "blocktime": 1537875543, "version": 1, "confirmations": 11464, "time": 1537875543, "locktime": 0, "vsize": 223, "size": 223}