{"hash": "83f055fa66539fca92724bcbcd9676e0e732a7ed41d327ad5ad60d4f5f5263a7", "blockhash": "0000000000000000000dcc0f55137456b1a82d3642486a52398922ac4d620174", "vout": [{"scriptPubKey": {"reqSigs": 1, "hex": "76a9146c4a4a05a2a47f02fafacb5d7ad8ff8145acb65788ac", "addresses": ["1AsayRFsNPyy6vCfFgfRqQZXLVk8HxBewK"], "asm": "OP_DUP OP_HASH160 6c4a4a05a2a47f02fafacb5d7ad8ff8145acb657 OP_EQUALVERIFY OP_CHECKSIG", "type": "pubkeyhash"}, "value": 5.46e-06, "n": 0}, {"scriptPubKey": {"reqSigs": 1, "hex": "a9143f4eecba122ad73039d481c8d37f99cb4f887cd887", "addresses": ["37Tm3Qz8Zw2VJrheUUhArDAoq58S6YrS3g"], "asm": "OP_HASH160 3f4eecba122ad73039d481c8d37f99cb4f887cd8 OP_EQUAL", "type": "scripthash"}, "value": 0.99997454, "n": 1}, {"scriptPubKey": {"type": "nulldata", "hex": "6a146f6d6e69000000000000001f000000003b9aca00", "asm": "OP_RETURN 6f6d6e69000000000000001f000000003b9aca00"}, "value": 0.0, "n": 2}], "hex": "01000000013b4c8f57c2adbb5e1fb1e933b5e214cd39ba3f5271aaa488d27aeee7c256cd1300000000fdfd0000483045022100b706680e3e143f05f001c6f1f203661c17a9a72d0fc380d2c3d582b6bbfd1f4402205c3b95e6c761446e2c589e223773d4d82a3c174e7d3d6732c057a33a8e6ed6510147304402203399760f420029e3176d7c8b0933859294997bd7990248aafbe819725fedf797022002a47f4ae2df9d533e775b41966b806462cba08311d6baf836fec3b7bcc11a29014c6952210246ccf4de0c54cc7f3354cdd993c2c50cf965fd82238b89659fbd73a1b4bf05a121024fc59f72272a897fe43803374969f396058152fe4765a8d15216f94624257b1b21022593bc69ecbf3bbcc3c58082267cb49dadaf4ca8dbf1b2297338a9d628c4297653aeffffffff0322020000000000001976a9146c4a4a05a2a47f02fafacb5d7ad8ff8145acb65788ac0ed7f5050000000017a9143f4eecba122ad73039d481c8d37f99cb4f887cd8870000000000000000166a146f6d6e69000000000000001f000000003b9aca0000000000", "vin": [{"sequence": 4294967295, "scriptSig": {"hex": "00483045022100b706680e3e143f05f001c6f1f203661c17a9a72d0fc380d2c3d582b6bbfd1f4402205c3b95e6c761446e2c589e223773d4d82a3c174e7d3d6732c057a33a8e6ed6510147304402203399760f420029e3176d7c8b0933859294997bd7990248aafbe819725fedf797022002a47f4ae2df9d533e775b41966b806462cba08311d6baf836fec3b7bcc11a29014c6952210246ccf4de0c54cc7f3354cdd993c2c50cf965fd82238b89659fbd73a1b4bf05a121024fc59f72272a897fe43803374969f396058152fe4765a8d15216f94624257b1b21022593bc69ecbf3bbcc3c58082267cb49dadaf4ca8dbf1b2297338a9d628c4297653ae", "asm": "0 3045022100b706680e3e143f05f001c6f1f203661c17a9a72d0fc380d2c3d582b6bbfd1f4402205c3b95e6c761446e2c589e223773d4d82a3c174e7d3d6732c057a33a8e6ed651[ALL] 304402203399760f420029e3176d7c8b0933859294997bd7990248aafbe819725fedf797022002a47f4ae2df9d533e775b41966b806462cba08311d6baf836fec3b7bcc11a29[ALL] 52210246ccf4de0c54cc7f3354cdd993c2c50cf965fd82238b89659fbd73a1b4bf05a121024fc59f72272a897fe43803374969f396058152fe4765a8d15216f94624257b1b21022593bc69ecbf3bbcc3c58082267cb49dadaf4ca8dbf1b2297338a9d628c4297653ae"}, "vout": 0, "txid": "13cd56c2e7ee7ad288a4aa71523fba39cd14e2b533e9b11f5ebbadc2578f4c3b"}], "txid": "83f055fa66539fca92724bcbcd9676e0e732a7ed41d327ad5ad60d4f5f5263a7", "blocktime": 1537870268, "version": 1, "confirmations": 11517, "time": 1537870268, "locktime": 0, "vsize": 403, "size": 403}