{"hash": "840ce56bd4bd72a5b2d22651b59186c3e84c9820d4d95191bdb5a42d8ab1573f", "blockhash": "000000000000000000022b45ed06c6f4ccd3cf7fb5ba4856ebd2e58215665228", "vout": [{"scriptPubKey": {"reqSigs": 1, "hex": "76a914c3481b7070c9265d5413a5694215f481a6e81b0c88ac", "addresses": ["1JoZ9W7XfdFvfVXdKYDxZz5Jn4BRR5CNXa"], "asm": "OP_DUP OP_HASH160 c3481b7070c9265d5413a5694215f481a6e81b0c OP_EQUALVERIFY OP_CHECKSIG", "type": "pubkeyhash"}, "value": 0.02, "n": 0}, {"scriptPubKey": {"reqSigs": 1, "hex": "76a914c312936d91d028f61dd335e2f35e82e4aa28a37688ac", "addresses": ["1JnT25nLGSDXapZpdNAzFxWUdrh1p2TFFH"], "asm": "OP_DUP OP_HASH160 c312936d91d028f61dd335e2f35e82e4aa28a376 OP_EQUALVERIFY OP_CHECKSIG", "type": "pubkeyhash"}, "value": 0.00099105, "n": 1}], "hex": "0100000001174f5f1e7f7831e846b2a4e68be822b34df0da9511e56bd51591936194af4d33010000006a473044022100f660f4fc6ae8dabbfa0a0b1f94274049156c259872c9ce014ae3a1d15be5f665021f60b615e6163afa6e66e5ca7b8a710066df78b9793489bb773c81f42cec8bc9012102e4a5661d7be055e3a89a56f22ae4f273aac8c1aa2ef6937f98a04d43abad1647fdffffff0280841e00000000001976a914c3481b7070c9265d5413a5694215f481a6e81b0c88ac21830100000000001976a914c312936d91d028f61dd335e2f35e82e4aa28a37688ac00000000", "vin": [{"sequence": 4294967293, "scriptSig": {"hex": "473044022100f660f4fc6ae8dabbfa0a0b1f94274049156c259872c9ce014ae3a1d15be5f665021f60b615e6163afa6e66e5ca7b8a710066df78b9793489bb773c81f42cec8bc9012102e4a5661d7be055e3a89a56f22ae4f273aac8c1aa2ef6937f98a04d43abad1647", "asm": "3044022100f660f4fc6ae8dabbfa0a0b1f94274049156c259872c9ce014ae3a1d15be5f665021f60b615e6163afa6e66e5ca7b8a710066df78b9793489bb773c81f42cec8bc9[ALL] 02e4a5661d7be055e3a89a56f22ae4f273aac8c1aa2ef6937f98a04d43abad1647"}, "vout": 1, "txid": "334daf9461939115d56be51195daf04db322e88be6a4b246e831787f1e5f4f17"}], "txid": "840ce56bd4bd72a5b2d22651b59186c3e84c9820d4d95191bdb5a42d8ab1573f", "blocktime": 1537869901, "version": 1, "confirmations": 11522, "time": 1537869901, "locktime": 0, "vsize": 225, "size": 225}