{"hash": "1b68517fa88c75a6ce4a0390ffd8f23711b37bb39b3ebf6472eff95c6f1cdfba", "blockhash": "0000000000000000001e0dab787dd257d1dbfcb92a98c2207d5e1078be1f4165", "vout": [{"scriptPubKey": {"reqSigs": 1, "hex": "a9142553908bbca3e114214fd00a687b576558ac21e487", "addresses": ["356P2pAGBemgDWP1tx5PGi7MNq2ZG8P9dN"], "asm": "OP_HASH160 2553908bbca3e114214fd00a687b576558ac21e4 OP_EQUAL", "type": "scripthash"}, "value": 0.00095522, "n": 0}, {"scriptPubKey": {"reqSigs": 1, "hex": "76a91467b0d55075f2d559f6ae018b161f94caa8a6773388ac", "addresses": ["1ATGSMEFPcnsdqDfbw1HzAK6qM68Qbh4hD"], "asm": "OP_DUP OP_HASH160 67b0d55075f2d559f6ae018b161f94caa8a67733 OP_EQUALVERIFY OP_CHECKSIG", "type": "pubkeyhash"}, "value": 0.01001366, "n": 1}], "hex": "020000000001028de13b0778271278139ad845fb6a35dc7ce364e38f7e1e78b0b4241f992ab3aa0000000017160014f96ef15157c5f4eb781e71491edcf899192cbf7efdffffffe64d5eeb4bc6851b88d347a4c6312ee5f2033b334ad96584ad09ab5efdb684b9000000006b483045022100cfce453993ab4d48816801b7e485a49bb97f6930331a426920f07fac6421039d02201dc4d82be104ad30220a7b5cae1600bbb08ac848487db13f0215b262b5d0f09c0121024a4443dececce40ce53ca186f2557fc3212c8f10847c59154e53477149b4e374fdffffff02227501000000000017a9142553908bbca3e114214fd00a687b576558ac21e48796470f00000000001976a91467b0d55075f2d559f6ae018b161f94caa8a6773388ac024830450221009a6835aaa9f44f40e59c25d624b343d3abc40c6a777df652536c7bab80acf35e02205f70a47eaed59257fc450a2f62e810928a5b5ceb8ab66ccc7237da0cbb1d9ecd012103107bf32b3529818b46153ce0a439cebaaa559a04a1d153b2e4721e35f7bba1240012490800", "vin": [{"txinwitness": ["30450221009a6835aaa9f44f40e59c25d624b343d3abc40c6a777df652536c7bab80acf35e02205f70a47eaed59257fc450a2f62e810928a5b5ceb8ab66ccc7237da0cbb1d9ecd01", "03107bf32b3529818b46153ce0a439cebaaa559a04a1d153b2e4721e35f7bba124"], "sequence": 4294967293, "scriptSig": {"hex": "160014f96ef15157c5f4eb781e71491edcf899192cbf7e", "asm": "0014f96ef15157c5f4eb781e71491edcf899192cbf7e"}, "vout": 0, "txid": "aab32a991f24b4b0781e7e8fe364e37cdc356afb45d89a1378122778073be18d"}, {"sequence": 4294967293, "scriptSig": {"hex": "483045022100cfce453993ab4d48816801b7e485a49bb97f6930331a426920f07fac6421039d02201dc4d82be104ad30220a7b5cae1600bbb08ac848487db13f0215b262b5d0f09c0121024a4443dececce40ce53ca186f2557fc3212c8f10847c59154e53477149b4e374", "asm": "3045022100cfce453993ab4d48816801b7e485a49bb97f6930331a426920f07fac6421039d02201dc4d82be104ad30220a7b5cae1600bbb08ac848487db13f0215b262b5d0f09c[ALL] 024a4443dececce40ce53ca186f2557fc3212c8f10847c59154e53477149b4e374"}, "vout": 0, "txid": "b984b6fd5eab09ad8465d94a333b03f2e52e31c6a447d3881b85c64beb5e4de6"}], "txid": "84127bc5609cd9af06479906aaa66d3dbd9b608776d755836c75750cd8450b0e", "blocktime": 1537872475, "version": 2, "confirmations": 11486, "time": 1537872475, "locktime": 542994, "vsize": 316, "size": 399}