{"hash": "84144c0bcbcb1d6cc18c7780c60e94ac61cf9558fc8772034e14dd235d43936d", "blockhash": "00000000000000000004ffacab907a6b429b9a5745fa0b75af4234bf69dd7176", "vout": [{"scriptPubKey": {"reqSigs": 1, "hex": "76a914cc1db05277fc1b99cd5d7013e6dbe4983d4fa0a588ac", "addresses": ["1KcGQwnJSocNobXhu5unxkH6KfePtWFmrT"], "asm": "OP_DUP OP_HASH160 cc1db05277fc1b99cd5d7013e6dbe4983d4fa0a5 OP_EQUALVERIFY OP_CHECKSIG", "type": "pubkeyhash"}, "value": 0.00440535, "n": 0}, {"scriptPubKey": {"reqSigs": 1, "hex": "a914ca8f56d0a858c0d94f11928f64e76007eccfb0f987", "addresses": ["3LA48fpyZUV4C8thedDDWifs3m4ZskyoCf"], "asm": "OP_HASH160 ca8f56d0a858c0d94f11928f64e76007eccfb0f9 OP_EQUAL", "type": "scripthash"}, "value": 0.007821, "n": 1}], "hex": "01000000014c7f8344140205e8f84e7b6e434d7e0fedbe27d2df21b55e7094907f0c0f4de9000000006b483045022100a07c40dc46d43087bda5e369871472bf01fbb9cbde51a4fd10a3b2002caee2d002201128f0b09fd2094c150289c12544c77844c717f6877247bcd917c5feccfc9ce9012102101a950d4730722cfa04cb10ac3a3612de6268d0128904df5b955380443193c1ffffffff02d7b80600000000001976a914cc1db05277fc1b99cd5d7013e6dbe4983d4fa0a588ac14ef0b000000000017a914ca8f56d0a858c0d94f11928f64e76007eccfb0f98700000000", "vin": [{"sequence": 4294967295, "scriptSig": {"hex": "483045022100a07c40dc46d43087bda5e369871472bf01fbb9cbde51a4fd10a3b2002caee2d002201128f0b09fd2094c150289c12544c77844c717f6877247bcd917c5feccfc9ce9012102101a950d4730722cfa04cb10ac3a3612de6268d0128904df5b955380443193c1", "asm": "3045022100a07c40dc46d43087bda5e369871472bf01fbb9cbde51a4fd10a3b2002caee2d002201128f0b09fd2094c150289c12544c77844c717f6877247bcd917c5feccfc9ce9[ALL] 02101a950d4730722cfa04cb10ac3a3612de6268d0128904df5b955380443193c1"}, "vout": 0, "txid": "e94d0f0c7f9094705eb521dfd227beed0f7e4d436e7b4ef8e805021444837f4c"}], "txid": "84144c0bcbcb1d6cc18c7780c60e94ac61cf9558fc8772034e14dd235d43936d", "blocktime": 1537875543, "version": 1, "confirmations": 11464, "time": 1537875543, "locktime": 0, "vsize": 224, "size": 224}