{"hash": "841809c98c54f5c7161f3b6a3dbe1b7f1d49d0348576a8e21589a512457eb914", "blockhash": "0000000000000000001e0dab787dd257d1dbfcb92a98c2207d5e1078be1f4165", "vout": [{"scriptPubKey": {"reqSigs": 1, "hex": "76a914201ecec7969be559f53f205dd5baa261395041dc88ac", "addresses": ["13vqXhT1bYNPWzu5ohj6daFBscnFV1MpQ8"], "asm": "OP_DUP OP_HASH160 201ecec7969be559f53f205dd5baa261395041dc OP_EQUALVERIFY OP_CHECKSIG", "type": "pubkeyhash"}, "value": 0.00019575, "n": 0}, {"scriptPubKey": {"type": "nulldata", "hex": "6a4c50000077ae0001adaf350a813e09068a8e8f00af6c953dd567cf27e7e3ef3236678a6250975d38637e5e7ea8a59895ad68641c2c5b5baa10f20611f279415e82964bbf23acfcfaac8058b692fe6808c31d", "asm": "OP_RETURN 000077ae0001adaf350a813e09068a8e8f00af6c953dd567cf27e7e3ef3236678a6250975d38637e5e7ea8a59895ad68641c2c5b5baa10f20611f279415e82964bbf23acfcfaac8058b692fe6808c31d"}, "value": 0.0, "n": 1}], "hex": "0100000001b56df7006ee7f929113fc72c146301cfd2f200f0caaa91b187873acfbafcd684010000006a4730440220176fc97aabaf9780f6bae32c78a7e88a91fae2d4e17e1ce5f89a9ad50aee723d0220424080e6f0acdbc33e83467491464d594b3d0991ef69f648118bd933a02b6bab01210216b51723331c779aaf7629edf357a1c358a21161c190a0d7d4df7e8d5646061affffffff02774c0000000000001976a914201ecec7969be559f53f205dd5baa261395041dc88ac0000000000000000536a4c50000077ae0001adaf350a813e09068a8e8f00af6c953dd567cf27e7e3ef3236678a6250975d38637e5e7ea8a59895ad68641c2c5b5baa10f20611f279415e82964bbf23acfcfaac8058b692fe6808c31d00000000", "vin": [{"sequence": 4294967295, "scriptSig": {"hex": "4730440220176fc97aabaf9780f6bae32c78a7e88a91fae2d4e17e1ce5f89a9ad50aee723d0220424080e6f0acdbc33e83467491464d594b3d0991ef69f648118bd933a02b6bab01210216b51723331c779aaf7629edf357a1c358a21161c190a0d7d4df7e8d5646061a", "asm": "30440220176fc97aabaf9780f6bae32c78a7e88a91fae2d4e17e1ce5f89a9ad50aee723d0220424080e6f0acdbc33e83467491464d594b3d0991ef69f648118bd933a02b6bab[ALL] 0216b51723331c779aaf7629edf357a1c358a21161c190a0d7d4df7e8d5646061a"}, "vout": 1, "txid": "84d6fcbacf3a8787b191aacaf000f2d2cf0163142cc73f1129f9e76e00f76db5"}], "txid": "841809c98c54f5c7161f3b6a3dbe1b7f1d49d0348576a8e21589a512457eb914", "blocktime": 1537872475, "version": 1, "confirmations": 11486, "time": 1537872475, "locktime": 0, "vsize": 283, "size": 283}