{"hash": "a2cbcb6189cd196f0f0e17d8f49cb510e527366b40a8028f6984468ed9bd98b8", "blockhash": "0000000000000000001f76057863aec43deb6fa401d9628bb513d65a8098bfab", "vout": [{"scriptPubKey": {"reqSigs": 1, "hex": "0014363e40d500caac95f1f656f61541ee1403ac9180", "addresses": ["bc1qxclyp4gqe2kftu0k2mmp2s0wzsp6eyvq9quf8w"], "asm": "0 363e40d500caac95f1f656f61541ee1403ac9180", "type": "witness_v0_keyhash"}, "value": 0.006613, "n": 0}, {"scriptPubKey": {"reqSigs": 1, "hex": "76a9143008ed96f89106ea859f67acced8b5f7e8e04dda88ac", "addresses": ["15Nz8YSXxpC6YAeTLRh2a6A1jHtBc38CmC"], "asm": "OP_DUP OP_HASH160 3008ed96f89106ea859f67acced8b5f7e8e04dda OP_EQUALVERIFY OP_CHECKSIG", "type": "pubkeyhash"}, "value": 0.03921706, "n": 1}], "hex": "010000000001012c4a80fa2a414a37062c6c01d357d5dace62703b532222433fcf43bfb4ab8cbb0100000000ffffffff0234170a0000000000160014363e40d500caac95f1f656f61541ee1403ac91802ad73b00000000001976a9143008ed96f89106ea859f67acced8b5f7e8e04dda88ac02483045022100ba69f3de3efd87478cb7619c3268d424f58fa2fa731e38dba34bafd72dc03752022024543005f618556539de9a5a115d83acf53aa22b4b85329beb5e534a1136b9d301210304322a31b08579b88049676579463baba7cea9a60bab88b19ac2b0b9de942e4700000000", "vin": [{"txinwitness": ["3045022100ba69f3de3efd87478cb7619c3268d424f58fa2fa731e38dba34bafd72dc03752022024543005f618556539de9a5a115d83acf53aa22b4b85329beb5e534a1136b9d301", "0304322a31b08579b88049676579463baba7cea9a60bab88b19ac2b0b9de942e47"], "sequence": 4294967295, "scriptSig": {"hex": "", "asm": ""}, "vout": 1, "txid": "bb8cabb4bf43cf3f432222533b7062cedad557d3016c2c06374a412afa804a2c"}], "txid": "84185aea6483d34828dba1dc2a40aa1304aa59bc0b086baec008f9dcb9d0e306", "blocktime": 1537873891, "version": 1, "confirmations": 11478, "time": 1537873891, "locktime": 0, "vsize": 144, "size": 226}