{"hash": "0fa5f9ad9347c9675d2db569a5fb6c3afc69c240461a62fe03f695a18918f458", "blockhash": "0000000000000000000baef3f32e3676a92c3b2e5da21b426e4f302fc371ce76", "vout": [{"scriptPubKey": {"reqSigs": 1, "hex": "76a9140b0c59856a66bc878be24ee3ac1ef6012ff2df4188ac", "addresses": ["121REBYWBAUTdtwCp4fA5CSUjt8Zf9MqjM"], "asm": "OP_DUP OP_HASH160 0b0c59856a66bc878be24ee3ac1ef6012ff2df41 OP_EQUALVERIFY OP_CHECKSIG", "type": "pubkeyhash"}, "value": 0.01381984, "n": 0}, {"scriptPubKey": {"reqSigs": 1, "hex": "a914074a69634347a98ca117b3f155ddb47aca44314287", "addresses": ["32MZo6kzG3DCbVWeif9LCGBtM5tVBh12sJ"], "asm": "OP_HASH160 074a69634347a98ca117b3f155ddb47aca443142 OP_EQUAL", "type": "scripthash"}, "value": 0.13629919, "n": 1}], "hex": "01000000000101b23709bd77e3f7a7d8c73750f08874ebd690ae97f2f1e539b443d5a0ab2540fc0100000023220020a4c3e8b78551736a8a7307da130fe0371682874a7781bc6b021833795649a1e9ffffffff0260161500000000001976a9140b0c59856a66bc878be24ee3ac1ef6012ff2df4188acdff9cf000000000017a914074a69634347a98ca117b3f155ddb47aca443142870400483045022100fdc6268b38e1189cd87866e98ccc191dc668d96f250b59bea80960b104aec56b022055fa185e2562438d2aeaf4b35b1f53546420d97c0deb568903efa6fe83d4191901473044022047ae2a5fe5f36409e081c0c777b8882700fd885a0e4f0b54f8ef1e90a3047af4022063c1c11617aa6715924d7a2a98f7e5ad70e937ed3cc9ae304dbfbb63bbbeb0500147522102bfdd608b68f9f41dac4ad1e97745c073ed2f0a71179a03fcb5caf640dac9c5672103f62b1d27158b53be9caeae920614d9c61c0d4e3ab8a2b8afbc8e020933c6e68352ae00000000", "vin": [{"txinwitness": ["", "3045022100fdc6268b38e1189cd87866e98ccc191dc668d96f250b59bea80960b104aec56b022055fa185e2562438d2aeaf4b35b1f53546420d97c0deb568903efa6fe83d4191901", "3044022047ae2a5fe5f36409e081c0c777b8882700fd885a0e4f0b54f8ef1e90a3047af4022063c1c11617aa6715924d7a2a98f7e5ad70e937ed3cc9ae304dbfbb63bbbeb05001", "522102bfdd608b68f9f41dac4ad1e97745c073ed2f0a71179a03fcb5caf640dac9c5672103f62b1d27158b53be9caeae920614d9c61c0d4e3ab8a2b8afbc8e020933c6e68352ae"], "sequence": 4294967295, "scriptSig": {"hex": "220020a4c3e8b78551736a8a7307da130fe0371682874a7781bc6b021833795649a1e9", "asm": "0020a4c3e8b78551736a8a7307da130fe0371682874a7781bc6b021833795649a1e9"}, "vout": 1, "txid": "fc4025aba0d543b439e5f1f297ae90d6eb7488f05037c7d8a7f7e377bd0937b2"}], "txid": "841ef8a963aa0d134ffe4a52114ebb968f4cba736f6d97e1d054ac8f92d4483a", "blocktime": 1537876114, "version": 1, "confirmations": 11462, "time": 1537876114, "locktime": 0, "vsize": 208, "size": 373}