{"hash": "8421501627c460bd0256557e02088161b0b487f65dbcdd2c82e0dfec76d29154", "blockhash": "00000000000000000017f5eb5941039fbcee6240d03bc1f2f8e35350df66a1d8", "vout": [{"scriptPubKey": {"reqSigs": 1, "hex": "a914993e512c20335d7c0308e8fb8e91a261b9a09cd987", "addresses": ["3FfHxm4FTAjJxz4SwLzRRPDdHYcM4UrjSD"], "asm": "OP_HASH160 993e512c20335d7c0308e8fb8e91a261b9a09cd9 OP_EQUAL", "type": "scripthash"}, "value": 0.00038218, "n": 0}, {"scriptPubKey": {"reqSigs": 1, "hex": "76a9140396c750f15f6e2aea1495bee284490a42c197e788ac", "addresses": ["1KyeraaoWhQ64rPgxTRNfHXJkNRkoxqhi"], "asm": "OP_DUP OP_HASH160 0396c750f15f6e2aea1495bee284490a42c197e7 OP_EQUALVERIFY OP_CHECKSIG", "type": "pubkeyhash"}, "value": 0.21036955, "n": 1}], "hex": "020000000106508629006b0ba3de40773f5669dcef408ecbb14de6f5d5890949b3a3b78606010000006b483045022100e33ec92429dee8be1f9d39ddb7bf277eb9bc5315d5b584104dce7fe74780914602205ed72b4b6b2b5b75be5faa2af92eb4f76fe51da615aa3f488ab7bea7e753a05d0121037aed202cc0420c61a4ecd5ba5d8ff2b6263caec8e7242e78157405b8890aaf5dffffffff024a9500000000000017a914993e512c20335d7c0308e8fb8e91a261b9a09cd9879bff4001000000001976a9140396c750f15f6e2aea1495bee284490a42c197e788ac00000000", "vin": [{"sequence": 4294967295, "scriptSig": {"hex": "483045022100e33ec92429dee8be1f9d39ddb7bf277eb9bc5315d5b584104dce7fe74780914602205ed72b4b6b2b5b75be5faa2af92eb4f76fe51da615aa3f488ab7bea7e753a05d0121037aed202cc0420c61a4ecd5ba5d8ff2b6263caec8e7242e78157405b8890aaf5d", "asm": "3045022100e33ec92429dee8be1f9d39ddb7bf277eb9bc5315d5b584104dce7fe74780914602205ed72b4b6b2b5b75be5faa2af92eb4f76fe51da615aa3f488ab7bea7e753a05d[ALL] 037aed202cc0420c61a4ecd5ba5d8ff2b6263caec8e7242e78157405b8890aaf5d"}, "vout": 1, "txid": "0686b7a3b3490989d5f5e64db1cb8e40efdc69563f7740dea30b6b0029865006"}], "txid": "8421501627c460bd0256557e02088161b0b487f65dbcdd2c82e0dfec76d29154", "blocktime": 1537874412, "version": 2, "confirmations": 11467, "time": 1537874412, "locktime": 0, "vsize": 224, "size": 224}