{"hash": "551d67da7ea916e54a10906dcddb690e713fb9ab414c83e24b9756f38a07bc36", "blockhash": "0000000000000000000e13cef7c366c0283d82e591d1acd082e914b08063cdf1", "vout": [{"scriptPubKey": {"reqSigs": 1, "hex": "76a9140cded5eaa2a6a57fb1053fd44bc6f8c9a69c8b2088ac", "addresses": ["12B44C7q8YVMDNWiEEgX4toBvvFuXmEZMT"], "asm": "OP_DUP OP_HASH160 0cded5eaa2a6a57fb1053fd44bc6f8c9a69c8b20 OP_EQUALVERIFY OP_CHECKSIG", "type": "pubkeyhash"}, "value": 0.05819302, "n": 0}, {"scriptPubKey": {"reqSigs": 1, "hex": "a914fa029348e6f5d098eafad536c626cbdb238d8ada87", "addresses": ["3QUwwSPP39fUdcE2M27aahqfqAUFNydGFj"], "asm": "OP_HASH160 fa029348e6f5d098eafad536c626cbdb238d8ada OP_EQUAL", "type": "scripthash"}, "value": 0.10303607, "n": 1}], "hex": "01000000000101a8eea8dcc2d4042fd1d5ab03d0d93a8eeec745d5b3bb4a063070547eee4e40c700000000232200201fe2c46d70017566d2da39a623a5fc1ac7acca8b083dfbe42644fb70bbc33f43ffffffff02a6cb5800000000001976a9140cded5eaa2a6a57fb1053fd44bc6f8c9a69c8b2088ac77389d000000000017a914fa029348e6f5d098eafad536c626cbdb238d8ada87040047304402205610bead6620fe93fd34a383f3bf6e9318c5875a5edf05458c213393c8225f130220224dc221afd2d47b0916fb8d47c9ba67f715bbe88d18550af3f9314cc5d4f5a10147304402202eb6c671dc9229897934b1d61ba2adbee96ab7839f447ee99115a7aaba642dfd02205f588ecf98a0811d17a91ab561bd2b05a79c971973ccd1fb7a1ede44daf194360169522102574ac29356a1062125a6bbfbe59ca190d27cd61acffb9d718f4c520fca4a196521026f6a9dd51744c92ea50a040b4abe5924ab07355699850d336ec9b548b0eb8c3121027b6eb96c7f3d8aa89bc939463387a60cbe087d554f93ec39d1b0f77d2436c4ef53ae00000000", "vin": [{"txinwitness": ["", "304402205610bead6620fe93fd34a383f3bf6e9318c5875a5edf05458c213393c8225f130220224dc221afd2d47b0916fb8d47c9ba67f715bbe88d18550af3f9314cc5d4f5a101", "304402202eb6c671dc9229897934b1d61ba2adbee96ab7839f447ee99115a7aaba642dfd02205f588ecf98a0811d17a91ab561bd2b05a79c971973ccd1fb7a1ede44daf1943601", "522102574ac29356a1062125a6bbfbe59ca190d27cd61acffb9d718f4c520fca4a196521026f6a9dd51744c92ea50a040b4abe5924ab07355699850d336ec9b548b0eb8c3121027b6eb96c7f3d8aa89bc939463387a60cbe087d554f93ec39d1b0f77d2436c4ef53ae"], "sequence": 4294967295, "scriptSig": {"hex": "2200201fe2c46d70017566d2da39a623a5fc1ac7acca8b083dfbe42644fb70bbc33f43", "asm": "00201fe2c46d70017566d2da39a623a5fc1ac7acca8b083dfbe42644fb70bbc33f43"}, "vout": 0, "txid": "c7404eee7e547030064abbb3d545c7ee8e3ad9d003abd5d12f04d4c2dca8eea8"}], "txid": "842672bc931cea2a8834bc302261daf7030860f788f2c26dfabd567fd89944c5", "blocktime": 1537871767, "version": 1, "confirmations": 11495, "time": 1537871767, "locktime": 0, "vsize": 216, "size": 406}