{"hash": "84276f4d5c6236db1a937b7d76fb01b693cf277a0efbb631315995d54b02342c", "blockhash": "0000000000000000000e13cef7c366c0283d82e591d1acd082e914b08063cdf1", "vout": [{"scriptPubKey": {"reqSigs": 1, "hex": "76a914ab0a53b638f7f3f79ea7750b2704e6df0d7acd5a88ac", "addresses": ["1GbNvLTaqK1RPkVbMBjpNxEut8kkFhfhBA"], "asm": "OP_DUP OP_HASH160 ab0a53b638f7f3f79ea7750b2704e6df0d7acd5a OP_EQUALVERIFY OP_CHECKSIG", "type": "pubkeyhash"}, "value": 0.01562253, "n": 0}], "hex": "0100000002fd8698d0260801289ea1fbdb12418fefcc6beb864281932c026892cc3098d21a180000006a47304402206dcd4ef772ec0a7a41f6aed946d83d73ec3ab1690816b651aca861263c5cdedd022061aaccd7230213b96e5a20930afdf5be51bf5ef84cb673d23c187630ecfa6e43012103f36915da1624b445cb11dbb3dd07f74fb06e8001f73fc9e89b4111997258edeffffffffffd133c9c7a34446e4c821f52fec2f78c8559ad950382eb86ae58ef281edcaaa8000000006a473044022056704a5d960ee8411b72cff6de820f57f4f0d0b8d2985b83ad6200d148da367a0220322e830e4e730244648b6a235b0930788c730b619acc21d82b479543d5687f270121028a2f3a86e838cef00c5f09dda8c15b163458226e8dc6c4f268fa6f071aa86352ffffffff018dd61700000000001976a914ab0a53b638f7f3f79ea7750b2704e6df0d7acd5a88ac00000000", "vin": [{"sequence": 4294967295, "scriptSig": {"hex": "47304402206dcd4ef772ec0a7a41f6aed946d83d73ec3ab1690816b651aca861263c5cdedd022061aaccd7230213b96e5a20930afdf5be51bf5ef84cb673d23c187630ecfa6e43012103f36915da1624b445cb11dbb3dd07f74fb06e8001f73fc9e89b4111997258edef", "asm": "304402206dcd4ef772ec0a7a41f6aed946d83d73ec3ab1690816b651aca861263c5cdedd022061aaccd7230213b96e5a20930afdf5be51bf5ef84cb673d23c187630ecfa6e43[ALL] 03f36915da1624b445cb11dbb3dd07f74fb06e8001f73fc9e89b4111997258edef"}, "vout": 24, "txid": "1ad29830cc9268022c93814286eb6bccef8f4112dbfba19e28010826d09886fd"}, {"sequence": 4294967295, "scriptSig": {"hex": "473044022056704a5d960ee8411b72cff6de820f57f4f0d0b8d2985b83ad6200d148da367a0220322e830e4e730244648b6a235b0930788c730b619acc21d82b479543d5687f270121028a2f3a86e838cef00c5f09dda8c15b163458226e8dc6c4f268fa6f071aa86352", "asm": "3044022056704a5d960ee8411b72cff6de820f57f4f0d0b8d2985b83ad6200d148da367a0220322e830e4e730244648b6a235b0930788c730b619acc21d82b479543d5687f27[ALL] 028a2f3a86e838cef00c5f09dda8c15b163458226e8dc6c4f268fa6f071aa86352"}, "vout": 0, "txid": "a8aadc1e28ef58ae86eb820395ad59858cf7c2fe521f824c6e44347a9c3c13fd"}], "txid": "84276f4d5c6236db1a937b7d76fb01b693cf277a0efbb631315995d54b02342c", "blocktime": 1537871767, "version": 1, "confirmations": 11490, "time": 1537871767, "locktime": 0, "vsize": 338, "size": 338}