{"hash": "842a49e9a8195a3ae44602bcf96f9cf471a878bb1464c469a3982804bba646c1", "blockhash": "00000000000000000018f53835495a110e01622372bf6ae95dc86f2b0ab887b0", "vout": [{"scriptPubKey": {"reqSigs": 1, "hex": "76a91488a994fc74be0e099b65f8d135269abbb10c110688ac", "addresses": ["1DTc3rNhK821oFc1KhNRkKd3xJ91L4oBWX"], "asm": "OP_DUP OP_HASH160 88a994fc74be0e099b65f8d135269abbb10c1106 OP_EQUALVERIFY OP_CHECKSIG", "type": "pubkeyhash"}, "value": 0.00259551, "n": 0}, {"scriptPubKey": {"reqSigs": 1, "hex": "76a9143826d51f72db703af049dbf895b33dcf48fb273b88ac", "addresses": ["167uMscgqS5CuWMMLHBnUV7eWroCRh1mez"], "asm": "OP_DUP OP_HASH160 3826d51f72db703af049dbf895b33dcf48fb273b OP_EQUALVERIFY OP_CHECKSIG", "type": "pubkeyhash"}, "value": 0.00289411, "n": 1}], "hex": "0100000001f1ecb0cda66f8e6207aa465e62c5b730a2551e16eb3b1ac834772019ecba1c74010000006a47304402207acdb3890a199f57b2c0be4807a24d7b05b92ae6d3dc630308eb713b5368086902204ba08b6d8325d5945415bfeb4d9b987e71c5a0e83fd550eb3b1c4b94b3516a580121026db7a2d3c58a6a8bf3ef8e750f6edc0bfe377aae171d02a3a67bc106fce04c1bffffffff02dff50300000000001976a91488a994fc74be0e099b65f8d135269abbb10c110688ac836a0400000000001976a9143826d51f72db703af049dbf895b33dcf48fb273b88ac00000000", "vin": [{"sequence": 4294967295, "scriptSig": {"hex": "47304402207acdb3890a199f57b2c0be4807a24d7b05b92ae6d3dc630308eb713b5368086902204ba08b6d8325d5945415bfeb4d9b987e71c5a0e83fd550eb3b1c4b94b3516a580121026db7a2d3c58a6a8bf3ef8e750f6edc0bfe377aae171d02a3a67bc106fce04c1b", "asm": "304402207acdb3890a199f57b2c0be4807a24d7b05b92ae6d3dc630308eb713b5368086902204ba08b6d8325d5945415bfeb4d9b987e71c5a0e83fd550eb3b1c4b94b3516a58[ALL] 026db7a2d3c58a6a8bf3ef8e750f6edc0bfe377aae171d02a3a67bc106fce04c1b"}, "vout": 1, "txid": "741cbaec19207734c81a3beb161e55a230b7c5625e46aa07628e6fa6cdb0ecf1"}], "txid": "842a49e9a8195a3ae44602bcf96f9cf471a878bb1464c469a3982804bba646c1", "blocktime": 1537870928, "version": 1, "confirmations": 11512, "time": 1537870928, "locktime": 0, "vsize": 225, "size": 225}