{"hash": "f6415e7561ae0a2e90dea7ee2a5abbce9cea241a4cc3a675ec9db1fb7b1b9368", "blockhash": "0000000000000000000e13cef7c366c0283d82e591d1acd082e914b08063cdf1", "vout": [{"scriptPubKey": {"reqSigs": 1, "hex": "a9143c1db0acb06727cce7322146318f96734220bd4887", "addresses": ["37At2xenk3iUC9Zsscphr4EZGm2FbmVCLf"], "asm": "OP_HASH160 3c1db0acb06727cce7322146318f96734220bd48 OP_EQUAL", "type": "scripthash"}, "value": 0.00999953, "n": 0}, {"scriptPubKey": {"reqSigs": 1, "hex": "a9146ffa65eb258683852f0481f23fe35017833bb8bb87", "addresses": ["3Bu6toYSZQGaiWmJHi8F4css3qmp7fnn1i"], "asm": "OP_HASH160 6ffa65eb258683852f0481f23fe35017833bb8bb OP_EQUAL", "type": "scripthash"}, "value": 0.06835121, "n": 1}], "hex": "02000000000106078074e926f02bc7cbe08d2292278c9ef91e97e6bb4a243dcffe9ea881664b3c300000001716001414ce12e37297f7b7caf08b4ef5763475f034df67feffffff0af5c7ec9ac9b56d15b06f98d7fb027c2b53d274ed1b77768ed2fb9ac6433d7e0100000017160014aa797bb9abe99b9b26010f7c0a3d35bf891ff115feffffff125b576ef94d87d5846f884548322805be25a56ca0d5259f6f8994ef8649e89c0000000017160014bb5a4c9b349e834e8b11165249bd4b96ecd599e9feffffff2c67575b394618f3c223c2363af2c88834b00daa31162db052ad85b9ad0efb8e010000006b483045022100ebbb375fe1817ab04c115cdab03527d0f9c434e8a21c539123214a65fb95cdf902201ed550741f662b06a1f0804e3426d0a390905f3ff8ad272365af978c9a56c36201210225f347bd0fb7210df9273ea62e0530ede2980dfae1a5ce76b036f010f70878edfeffffff94c6b05b91cc23912e73e4388d7a30066fc05a95bdda616cfd5684247dcfc178010000001716001402c539490cbe5c7c473fcfdd5b1ba0d27dfb61bcfeffffffdf3f690179c78eec1388658d3140671882d0182d860785962e1b277063d6a713000000001716001459617bdea27e579fb4bc54782210076b89ff71adfeffffff0211420f000000000017a9143c1db0acb06727cce7322146318f96734220bd4887b14b68000000000017a9146ffa65eb258683852f0481f23fe35017833bb8bb8702483045022100dd52df7fd6fb7266f86053db23176b2ea3fd27852a46da11c9de03f87a2bd16d02202a5dbb58ca54ac8cad7f63dd98199156714154bade705faa83b18f2f2bbdf722012103c765ed62475eb0e75854d40c99899f8761d6f8a4b4145ee4cde75473bb94b3f00247304402205af4a1b86eefb5b61b79e9eabbad8c392fe8df358dbba9116c8ee537f9e60f3602206ae97ee0ac54fdaa6183cb7c716375c5deda51d6fbde3206aaf0a5e4451110d7012102177af6b6d629a57c50e70d92337398e28af5c47c6524209e5d4381308bebe4e002483045022100e576c824908de65cf49bb210f3d51a7856706be157ca474e45cb5df531f8351d02207352596164bc2a3dba7b1c3dcb2bba3f540197d791ef83f9a5d42086306497b1012102690be62f6d991bbe9a205e93261ade56e5a7986982a1ae60ef09a9b74fe6ee1e000247304402206bb88f22a36c32401a7ead974bff30ca07b22aa2cfceadfd5aa9354591aa7944022061620fcbf4402916680271ec0b99a5536d5ccedf74d67c8b69668219ba0170c3012102269656993a5774014c2b978ec569829d5f0b56da5e61a94fc5ec7fea7a843b9a02483045022100e624c3a5b795d92e5696aa9c5647a6d031b8e84a9024a019bf95176deabfdb37022052963a698a4f9432c6adc6885fb8f25bfb1b939fedf7cffae465cf4817ecc33301210366cff0641eb5a3dbd9ef37d66dedc5fb34ef4e6f34c580867432f169644c001a0e490800", "vin": [{"txinwitness": ["3045022100dd52df7fd6fb7266f86053db23176b2ea3fd27852a46da11c9de03f87a2bd16d02202a5dbb58ca54ac8cad7f63dd98199156714154bade705faa83b18f2f2bbdf72201", "03c765ed62475eb0e75854d40c99899f8761d6f8a4b4145ee4cde75473bb94b3f0"], "sequence": 4294967294, "scriptSig": {"hex": "16001414ce12e37297f7b7caf08b4ef5763475f034df67", "asm": "001414ce12e37297f7b7caf08b4ef5763475f034df67"}, "vout": 48, "txid": "3c4b6681a89efecf3d244abbe6971ef99e8c2792228de0cbc72bf026e9748007"}, {"txinwitness": ["304402205af4a1b86eefb5b61b79e9eabbad8c392fe8df358dbba9116c8ee537f9e60f3602206ae97ee0ac54fdaa6183cb7c716375c5deda51d6fbde3206aaf0a5e4451110d701", "02177af6b6d629a57c50e70d92337398e28af5c47c6524209e5d4381308bebe4e0"], "sequence": 4294967294, "scriptSig": {"hex": "160014aa797bb9abe99b9b26010f7c0a3d35bf891ff115", "asm": "0014aa797bb9abe99b9b26010f7c0a3d35bf891ff115"}, "vout": 1, "txid": "7e3d43c69afbd28e76771bed74d2532b7c02fbd7986fb0156db5c99aecc7f50a"}, {"txinwitness": ["3045022100e576c824908de65cf49bb210f3d51a7856706be157ca474e45cb5df531f8351d02207352596164bc2a3dba7b1c3dcb2bba3f540197d791ef83f9a5d42086306497b101", "02690be62f6d991bbe9a205e93261ade56e5a7986982a1ae60ef09a9b74fe6ee1e"], "sequence": 4294967294, "scriptSig": {"hex": "160014bb5a4c9b349e834e8b11165249bd4b96ecd599e9", "asm": "0014bb5a4c9b349e834e8b11165249bd4b96ecd599e9"}, "vout": 0, "txid": "9ce84986ef94896f9f25d5a06ca525be0528324845886f84d5874df96e575b12"}, {"sequence": 4294967294, "scriptSig": {"hex": "483045022100ebbb375fe1817ab04c115cdab03527d0f9c434e8a21c539123214a65fb95cdf902201ed550741f662b06a1f0804e3426d0a390905f3ff8ad272365af978c9a56c36201210225f347bd0fb7210df9273ea62e0530ede2980dfae1a5ce76b036f010f70878ed", "asm": "3045022100ebbb375fe1817ab04c115cdab03527d0f9c434e8a21c539123214a65fb95cdf902201ed550741f662b06a1f0804e3426d0a390905f3ff8ad272365af978c9a56c362[ALL] 0225f347bd0fb7210df9273ea62e0530ede2980dfae1a5ce76b036f010f70878ed"}, "vout": 1, "txid": "8efb0eadb985ad52b02d1631aa0db03488c8f23a36c223c2f31846395b57672c"}, {"txinwitness": ["304402206bb88f22a36c32401a7ead974bff30ca07b22aa2cfceadfd5aa9354591aa7944022061620fcbf4402916680271ec0b99a5536d5ccedf74d67c8b69668219ba0170c301", "02269656993a5774014c2b978ec569829d5f0b56da5e61a94fc5ec7fea7a843b9a"], "sequence": 4294967294, "scriptSig": {"hex": "16001402c539490cbe5c7c473fcfdd5b1ba0d27dfb61bc", "asm": "001402c539490cbe5c7c473fcfdd5b1ba0d27dfb61bc"}, "vout": 1, "txid": "78c1cf7d248456fd6c61dabd955ac06f06307a8d38e4732e9123cc915bb0c694"}, {"txinwitness": ["3045022100e624c3a5b795d92e5696aa9c5647a6d031b8e84a9024a019bf95176deabfdb37022052963a698a4f9432c6adc6885fb8f25bfb1b939fedf7cffae465cf4817ecc33301", "0366cff0641eb5a3dbd9ef37d66dedc5fb34ef4e6f34c580867432f169644c001a"], "sequence": 4294967294, "scriptSig": {"hex": "16001459617bdea27e579fb4bc54782210076b89ff71ad", "asm": "001459617bdea27e579fb4bc54782210076b89ff71ad"}, "vout": 0, "txid": "13a7d66370271b2e968507862d18d082186740318d658813ec8ec77901693fdf"}], "txid": "842ba07c91f476b97476fd93ac3610c480ac097df164bb490cb62bbd8e28e1f6", "blocktime": 1537871767, "version": 2, "confirmations": 11491, "time": 1537871767, "locktime": 542990, "vsize": 678, "size": 1083}