{"hash": "842b8dc0cd0ffbc3b41abe1971ffc397236177bc561296bded49f941526739cf", "blockhash": "0000000000000000001f0ddff1eddb255c1121bcd4da4f1bc9a0da00cae72433", "vout": [{"scriptPubKey": {"reqSigs": 1, "hex": "a91416b2d37946cd264ce64749f7777fd8c05c61115387", "addresses": ["33m31pM7zvrit7LunQdF4bs2CK6ciczbvD"], "asm": "OP_HASH160 16b2d37946cd264ce64749f7777fd8c05c611153 OP_EQUAL", "type": "scripthash"}, "value": 0.08092649, "n": 0}, {"scriptPubKey": {"reqSigs": 1, "hex": "76a914088de2fb253ea65d2d45bfe0f26bf1ee53eb5f0388ac", "addresses": ["1nENzWZV9LU1GsGEHZHfjfSYsMvHzB2de"], "asm": "OP_DUP OP_HASH160 088de2fb253ea65d2d45bfe0f26bf1ee53eb5f03 OP_EQUALVERIFY OP_CHECKSIG", "type": "pubkeyhash"}, "value": 0.11526784, "n": 1}], "hex": "01000000010867e85552b157b68f3f09723316512b380ef44215d65737fcef7a7989480222000000006a473044022014e2d60fc68b9d35e481f6b549e8134a77e52aa949b4f4ee555f13e06aa936c7022008710a29ed2c9b782fb4335b78a114d08d74568e6be946e963e628f39764ef880121034ee3bfa2e006d6b3826e7bc7adf30ba48be938426e177ada653574847e66cf3cffffffff02e97b7b000000000017a91416b2d37946cd264ce64749f7777fd8c05c6111538780e2af00000000001976a914088de2fb253ea65d2d45bfe0f26bf1ee53eb5f0388ac00000000", "vin": [{"sequence": 4294967295, "scriptSig": {"hex": "473044022014e2d60fc68b9d35e481f6b549e8134a77e52aa949b4f4ee555f13e06aa936c7022008710a29ed2c9b782fb4335b78a114d08d74568e6be946e963e628f39764ef880121034ee3bfa2e006d6b3826e7bc7adf30ba48be938426e177ada653574847e66cf3c", "asm": "3044022014e2d60fc68b9d35e481f6b549e8134a77e52aa949b4f4ee555f13e06aa936c7022008710a29ed2c9b782fb4335b78a114d08d74568e6be946e963e628f39764ef88[ALL] 034ee3bfa2e006d6b3826e7bc7adf30ba48be938426e177ada653574847e66cf3c"}, "vout": 0, "txid": "22024889797aeffc3757d61542f40e382b51163372093f8fb657b15255e86708"}], "txid": "842b8dc0cd0ffbc3b41abe1971ffc397236177bc561296bded49f941526739cf", "blocktime": 1537872018, "version": 1, "confirmations": 11489, "time": 1537872018, "locktime": 0, "vsize": 223, "size": 223}