{"hash": "65f85ca5838e6b394813ff7d8afccda0b762d4da47fcf5144ced8d662e04692a", "blockhash": "0000000000000000000e13cef7c366c0283d82e591d1acd082e914b08063cdf1", "vout": [{"scriptPubKey": {"reqSigs": 1, "hex": "00149204be9c618ca25f9f2e2197d24006a0e513d26f", "addresses": ["bc1qjgzta8rp3j39l8ewyxtaysqx5rj385n0zakrn0"], "asm": "0 9204be9c618ca25f9f2e2197d24006a0e513d26f", "type": "witness_v0_keyhash"}, "value": 1.571e-05, "n": 0}, {"scriptPubKey": {"reqSigs": 1, "hex": "76a914836e0742af0b7e53a7c866121fd0d2acd67da51688ac", "addresses": ["1CywL2zZ3kWoxfRqV1vrt7yu8cQXPA9GFg"], "asm": "OP_DUP OP_HASH160 836e0742af0b7e53a7c866121fd0d2acd67da516 OP_EQUALVERIFY OP_CHECKSIG", "type": "pubkeyhash"}, "value": 0.00061585, "n": 1}], "hex": "010000000001010b6a92c61e54cee5c2c75ab8c61e181f96f82036b9f0444c0a783c8ed16f28d10100000000ffffffff0223060000000000001600149204be9c618ca25f9f2e2197d24006a0e513d26f91f00000000000001976a914836e0742af0b7e53a7c866121fd0d2acd67da51688ac02473044022055c2e6d8e76a8712dae598fa7d5160d6efd48b07e92f9577cee4e5ff01876b5e022051eefcca2ba296eab6e9c76b4ddba40cd3c934fe218c00693b587beaededdecc0121024fe982dea6add64edbba1d8f418116d914b41f59b7e8d72669b2becbaf18266800000000", "vin": [{"txinwitness": ["3044022055c2e6d8e76a8712dae598fa7d5160d6efd48b07e92f9577cee4e5ff01876b5e022051eefcca2ba296eab6e9c76b4ddba40cd3c934fe218c00693b587beaededdecc01", "024fe982dea6add64edbba1d8f418116d914b41f59b7e8d72669b2becbaf182668"], "sequence": 4294967295, "scriptSig": {"hex": "", "asm": ""}, "vout": 1, "txid": "d1286fd18e3c780a4c44f0b93620f8961f181ec6b85ac7c2e5ce541ec6926a0b"}], "txid": "8433842467d439846aae4c6731a54f25df41180b96fd187deae1633f52e9ca8e", "blocktime": 1537871767, "version": 1, "confirmations": 11495, "time": 1537871767, "locktime": 0, "vsize": 144, "size": 225}