{"hash": "8437b4d7872a3a464a3bc017cfb91e635100578e1caec5e21360df14e0e0cbf9", "blockhash": "0000000000000000001cda96e906b7601b7a6fb1a3b62bca570a9e5d8f4b3de1", "vout": [{"scriptPubKey": {"type": "nulldata", "hex": "6a146f6d6e69000000000000001f0000000000002710", "asm": "OP_RETURN 6f6d6e69000000000000001f0000000000002710"}, "value": 0.0, "n": 0}, {"scriptPubKey": {"reqSigs": 1, "hex": "76a914bbfc4c89ac947faad1b33988a99e9c8c8265c24388ac", "addresses": ["1J8ybuvU1FcztHdcxBAccaUPJruKKfX7xb"], "asm": "OP_DUP OP_HASH160 bbfc4c89ac947faad1b33988a99e9c8c8265c243 OP_EQUALVERIFY OP_CHECKSIG", "type": "pubkeyhash"}, "value": 0.00113994, "n": 1}, {"scriptPubKey": {"reqSigs": 1, "hex": "76a9148b80b2920c044bdfb3ef56f0ded112c06d7ec9f288ac", "addresses": ["1Did6j8R1caPnxGHhLCsFgWZ6bQdWgx9Xm"], "asm": "OP_DUP OP_HASH160 8b80b2920c044bdfb3ef56f0ded112c06d7ec9f2 OP_EQUALVERIFY OP_CHECKSIG", "type": "pubkeyhash"}, "value": 5.46e-06, "n": 2}], "hex": "0100000001618cf28168b7374d8909b59896ecac516cb37948cb13315398b3e7aca12b7292010000006a47304402207fa97c2903590bf66d8ad96f11f5cbe1f50464e773c072d9e80a45189191d62d022019778f4ad236cec286b7cc2e8b513614d8bfd4883f1f25c4e226166e2ea0c822012103ff140573bbd7eb60c2eba3819ea7c6b94094e9ceae01f4263b49069a2773c69efeffffff030000000000000000166a146f6d6e69000000000000001f00000000000027104abd0100000000001976a914bbfc4c89ac947faad1b33988a99e9c8c8265c24388ac22020000000000001976a9148b80b2920c044bdfb3ef56f0ded112c06d7ec9f288ac13490800", "vin": [{"sequence": 4294967294, "scriptSig": {"hex": "47304402207fa97c2903590bf66d8ad96f11f5cbe1f50464e773c072d9e80a45189191d62d022019778f4ad236cec286b7cc2e8b513614d8bfd4883f1f25c4e226166e2ea0c822012103ff140573bbd7eb60c2eba3819ea7c6b94094e9ceae01f4263b49069a2773c69e", "asm": "304402207fa97c2903590bf66d8ad96f11f5cbe1f50464e773c072d9e80a45189191d62d022019778f4ad236cec286b7cc2e8b513614d8bfd4883f1f25c4e226166e2ea0c822[ALL] 03ff140573bbd7eb60c2eba3819ea7c6b94094e9ceae01f4263b49069a2773c69e"}, "vout": 1, "txid": "92722ba1ace7b398533113cb4879b36c51acec9698b509894d37b76881f28c61"}], "txid": "8437b4d7872a3a464a3bc017cfb91e635100578e1caec5e21360df14e0e0cbf9", "blocktime": 1537873282, "version": 1, "confirmations": 11481, "time": 1537873282, "locktime": 542995, "vsize": 256, "size": 256}