{"hash": "84380192dc7ec0eb92161db5199cfcc78d56def57a33af2a7de94f5a1427a167", "blockhash": "00000000000000000017f5eb5941039fbcee6240d03bc1f2f8e35350df66a1d8", "vout": [{"scriptPubKey": {"reqSigs": 1, "hex": "76a914fc02f84af35bad2cfc1aeafbfddaef1c16ced5b388ac", "addresses": ["1PyWqhCa4XUL9pw4XEYEZuTCVba2ZfKKXa"], "asm": "OP_DUP OP_HASH160 fc02f84af35bad2cfc1aeafbfddaef1c16ced5b3 OP_EQUALVERIFY OP_CHECKSIG", "type": "pubkeyhash"}, "value": 0.00024048, "n": 0}, {"scriptPubKey": {"reqSigs": 1, "hex": "76a9149c8ab6fb56c2c6ef40ace29f280fae5de645747188ac", "addresses": ["1FGiazpcxKym1yPVrXaFfuVruVazfwRupv"], "asm": "OP_DUP OP_HASH160 9c8ab6fb56c2c6ef40ace29f280fae5de6457471 OP_EQUALVERIFY OP_CHECKSIG", "type": "pubkeyhash"}, "value": 0.26154647, "n": 1}], "hex": "010000001c0f496fe25d3a35c50e499b5eaf0ee9fdc77168d6a7d43d3edd4f7922077c3404010000006b483045022100e566edeb8b2d68b3fbf1a0e862ce1a5b0d9981d70547dd0ee6978187c65c987002203c4928c3af927e913d0f4db8398d7ccb0f2eda17525473ccd1c1aeb14534789f01210296ef9fa3b2ce62f92f641eadd9d1e8ace768077a3e95b851f7043e8e3fb7c10bfeffffff0d92074be36337adf564d4b2473ca84f1be55d5523f985e1fbfccb8a19d6db08010000006a4730440220159b8545e3cc14dcc0912d0654f345aee105663e0dc3516c09467d593caca30b02201060301ab28625b9fbfff5371115f7f0ea050b2e98373a611379e1987b8bb08d0121025659a52b69e0ce1257ba35f0308b71760eae2f6a5aa2fb9084fd032c77c86cacfeffffffece0f06f22230e1279f7d025f84d28e1537fb1e28257959c03b30cf35b4d9f0a000000006b483045022100fcd8364c7e6cc4e163484006189890b3960192bd22672c47166c5c715a11c85802207e59ad57c207221ac89109fb487980fbb95d5242f7b20ee980f469ad1f7ce92301210296ef9fa3b2ce62f92f641eadd9d1e8ace768077a3e95b851f7043e8e3fb7c10bfeffffff4b4b05ddd55fb7e82b9f46ec1890ce752c67c1d9c0cb2a6b3ac13d2117f8d31f010000006a47304402207c313ed8951647536caab91cb817282592cc684e3f6e9aa82bffc48543cb3a5702207a7f8b93f100245a5a6e1729a83fd4347affad1aa90e45b9f95876a53cfbcbd001210296ef9fa3b2ce62f92f641eadd9d1e8ace768077a3e95b851f7043e8e3fb7c10bfeffffff6d58b7f03ac14eedac8686fa0d175806dba1bae632e8390516c593f90802672e010000006a47304402202bc6a6d8cf00d230137e675b5f38d60e682011ee8ad0d981f179b5eed6686a0d022065d26543f630265b7838360172dbc2053eddb0aeee6a437e05121ebe8d0665b301210296ef9fa3b2ce62f92f641eadd9d1e8ace768077a3e95b851f7043e8e3fb7c10bfefffffffcf1cd37fa71e9536cb55aabd8a2cef747365f8429c706a82244a0e51c005134000000006b483045022100cd133b18892a37f0d7c306cca08d1a617ea3372036a95075d82a431df987365a02200db96bac01d0610594e3cea037274cdf0f95a1551056708287222b64cd45bc8a012103c60326126b4bec7c12373c8fb5fa2e59c8e3563905a9210ba2de59d674e40e7cfeffffff25df51312e0367bb773b2c36d3bd2d8488a2455ba3d4b6c41d15c72ac76bef36010000006b483045022100d60e3f719c060b83e18f8149f2bd32b5c509a14e0c9b8026e9d074f2233594960220281554609b47cf2efc2c1c5d9dca49e1957d13999483ff0774bbd77f1c31f82401210296ef9fa3b2ce62f92f641eadd9d1e8ace768077a3e95b851f7043e8e3fb7c10bfeffffffd290ca546122d4668cfcb54e24f9c53593cc2fbc4546a8c390cfecb219848f3b000000006a47304402202db9051897214d96b2de15af3460b5e776c7beb7abd304bcd79e987de58d349c02203930e49d90379b4b044abc1ff8041650f1889d6fe1f4d6ff062db404c347faf801210296ef9fa3b2ce62f92f641eadd9d1e8ace768077a3e95b851f7043e8e3fb7c10bfeffffffe38d7e8ea076c849b569bfe2dcffd09576a7b86a6d11dfe44e90de41f551da3f000000006a4730440220228d39af67eab648b96a851c34653027f6bdbc898bdf69b91fd23283dcafc7ef022007157515d4e02bdd5e9aae7f865ecd144c41652da2d771566c6302791a3c92f301210296ef9fa3b2ce62f92f641eadd9d1e8ace768077a3e95b851f7043e8e3fb7c10bfeffffff7f57a7758eca7c9cff057ec12778cd4323e44631f3312cc2efae1948d6493f4c000000006a47304402203b1f5b503036524b8b073ccbdb6eff22100393fa67a3062ff66401359f5a3e0502205024119ea507bfab5dc201e3a60804b0718538adbcfeea56b4d0b09f8173628f01210296ef9fa3b2ce62f92f641eadd9d1e8ace768077a3e95b851f7043e8e3fb7c10bfeffffff58730fe05c3c11f8cedea4220f02341674e0bbfbff93a3d0e9b1ff131af59162000000006a473044022046408f63f606bb6ef215b4ef4e33d9851391f22797e82ebfa4f1e12527aef9db0220375e081970db96a48a3ab236595d7dfb989a0d399f75697758ea036db99a617d01210296ef9fa3b2ce62f92f641eadd9d1e8ace768077a3e95b851f7043e8e3fb7c10bfeffffff1190fee6cd93180346a193a34681c5b53bc7fbb3470914abe16c67d13c355e7a000000006b483045022100af95401b61fbd049bebc824034727a841b5fc228c203f618646a63ad2ccecf2002205afef80fcd3e817da552e177dacb8c2f0bbc2f54333cb3d5e1916a409430b918012103c60326126b4bec7c12373c8fb5fa2e59c8e3563905a9210ba2de59d674e40e7cfeffffffe3c67bc6fcc301ac033c3eee10d894d6589026c4f6f1e66b4de124200582128a000000006a47304402202e001a1be2d831ff4ae3f8fae77e28c06286693aedf96eae17987a2d3b17ed4f02200a759c0b08b66a94c441c1d2547eef5ccb92fea227f560dd3c0032caec42c491012102b590dd16a039639730f8d275e78dce7d85b51b5ec999bfe4d443422c3e45068dfeffffff52fbe71da40fe3228a92f2bcf186b44a3232b4cff3d0df60e1ab19f1ad978497010000006b483045022100a492c86f5af30ecdb6534847e29680ccc2c5b3546c8271d07c8a55faabc128390220296f879866dd178374002dda488622b984ddcbcce8fcc565d2e3d8de484fa5a5012103c60326126b4bec7c12373c8fb5fa2e59c8e3563905a9210ba2de59d674e40e7cfeffffffbed844718347416141f66cb38d57732115c8209ba88187c604f0d6432a609dac010000006b4830450221008e20c83b910a2326dc96714910fd0ddcce5dd9abfe6bb6f1d6e9807b3a5427040220254c8000afe09717bc73087255d29a6489c2d82fbaf741d0398697988189fd9001210296ef9fa3b2ce62f92f641eadd9d1e8ace768077a3e95b851f7043e8e3fb7c10bfeffffff477361597a377a2f2b84ca0cb857404891a0363e1183f81bf5125fcec02071ad000000006b4830450221009a585cb5ca17134129050ecdd2a61c33265a32fadd97a586860011c433a39baf02207cd26745ec4d864dc73119af221a7fac3878dd0015670930db0a98af49c626d7012103c60326126b4bec7c12373c8fb5fa2e59c8e3563905a9210ba2de59d674e40e7cfeffffff4ce21054c51cbbf86fefb1d3d08095a0ccf4cc10e56433c6d2b5146b7494abba000000006b483045022100a387c69a72d5b7533a4e543b1c19d79746584b6937bf733fe42ddf03fe29c23c022052346a8ed52bfba4129b59a1d6adbea84a07d9d308ee713410f4fbdf2484defb01210296ef9fa3b2ce62f92f641eadd9d1e8ace768077a3e95b851f7043e8e3fb7c10bfeffffffac3e319fe61e114246e8f507cb9fde25e3e519c695bf8cc017bb2b0f521e65c2000000006a47304402204712fc0e0976be88067b326b6b71daa5c396b2846f51e486b0650576ae2568a00220019862704adc4e096d99f66644255084a3c6f90db765664506c3bc16932f46d2012103c60326126b4bec7c12373c8fb5fa2e59c8e3563905a9210ba2de59d674e40e7cfeffffff2b2d82312cd0d831b81155430612c21208a05a8708d4e0cf77b61657180f0fc4000000006b4830450221008e957cd21fead61e38130a81a07b3ecf2a312be52c8d88068b1143ea33a09ecd02202ec0771ceea6c772d07bf9e10ddb2554f9269b2dace49ab44af329d7cb5faa1101210296ef9fa3b2ce62f92f641eadd9d1e8ace768077a3e95b851f7043e8e3fb7c10bfeffffff50e1f5a2857d37e4a7044dc3453d51eae7a9f8497b10bc0208349f6c16e216c9000000006b483045022100f49235c621fe3500d3055b471a81cff4490bd2d857242941b65a487cacebb02b022012ede04346f6594999391eb64194555aafae43297f64b21bfd5861731b86d6ba01210296ef9fa3b2ce62f92f641eadd9d1e8ace768077a3e95b851f7043e8e3fb7c10bfeffffff027e0310fff613d050076d28e4690bf3fcbfde3ba290e5fdc94b79b8c9297fca000000006b483045022100bb13f58c9fd695490afb9e0c0364de1b6fe4905d460abcb6ae7851595260945e0220050a7304f9019185e965f36ceb8ea971bb41caf7e2c585d478e14e06ce25b0ca01210296ef9fa3b2ce62f92f641eadd9d1e8ace768077a3e95b851f7043e8e3fb7c10bfeffffff75ee22677e85d8296b7b0169253b95e02c4bc4ab0eb5c2e736440f9cc20e19d1000000006b483045022100cdc072354713747f8360f1ea5a4c41c23dc8daff7dd518d8bf12c68ba5ac8827022002ab91c318f216a33eed961794174527252a9ea3a5eeca27fc3aa89ae3d0e9c801210296ef9fa3b2ce62f92f641eadd9d1e8ace768077a3e95b851f7043e8e3fb7c10bfeffffff19e757ca628aa96717dfccafccd60b66fba430b725eb2bd264f8a79f3f6a68dc000000006a4730440220324c2c5f983dd5517de5c66f026d9566a111ac41db0492a358434b4f2d76f08c02201e7a87faa5d0362d32e3688d26af3889c55bc823156a56e5d560aee0170afdc2012103c60326126b4bec7c12373c8fb5fa2e59c8e3563905a9210ba2de59d674e40e7cfeffffff287d69d3095e389e5a257c73b0fdc30b46587c9ebc1a085b9e2311492f9cddde000000006b483045022100ce7bb022b803916d9d5213e77b985de8de876a6e21a5a2080520f909b58e5b7c02201035ba46e061b1866c91a5603f6efeea4f4c9a645187d6be419f104daee6512b01210296ef9fa3b2ce62f92f641eadd9d1e8ace768077a3e95b851f7043e8e3fb7c10bfeffffff3fca11bcf05a12f3909119f9d6e8f252a96da608335b6f32353c9f3f375b16e2000000006a473044022055475afe5106027b4501051938a9a4f3e495eef678aac9f970a78a1f6fd5a49202206779f0511d68cda8cce8dd8dbdba86c053bfdb82d6942f852096b3a4fe65a89c012103c60326126b4bec7c12373c8fb5fa2e59c8e3563905a9210ba2de59d674e40e7cfeffffff2efc3ffbbc75138f29949a4b47f08e981595f5c4fb816c3c505fd822542803e3000000006b483045022100f4dec6d3e973fe57a134fa09475eb389261f6139b9bdad065ecc96aecbe246aa022077d0810d88901ae2754272d4aef164e56a3e9ccb25f5c866e91aec63683db09601210296ef9fa3b2ce62f92f641eadd9d1e8ace768077a3e95b851f7043e8e3fb7c10bfeffffffa663ce83559c93b2625af8e5dfa6e65305128eb18daf2d5930505e6ec1d64df0010000006a47304402205edebeecb004c2a91c7889109e0f56e97efd4341012d4471cb98ae9ff54f5de0022017db09a8e42df699ae1a33a607113edb98d7c5ae6e54bea5862b68fbd852d3b901210296ef9fa3b2ce62f92f641eadd9d1e8ace768077a3e95b851f7043e8e3fb7c10bfeffffff46e2a23864c455ba067519012b701b0f3cb23ced4cc7c015f7ea1fe274e9f3fc010000006b483045022100c64b10d67a1806d1423393ddee20e1ac41be2b9c53a266a055e80a8a176bc7280220731da293a46b5f45ef359aaa73ec61d545cd0f92202bb43ac314d6ed7ca993fa0121025659a52b69e0ce1257ba35f0308b71760eae2f6a5aa2fb9084fd032c77c86cacfeffffff02f05d0000000000001976a914fc02f84af35bad2cfc1aeafbfddaef1c16ced5b388ac97168f01000000001976a9149c8ab6fb56c2c6ef40ace29f280fae5de645747188ac15490800", "vin": [{"sequence": 4294967294, "scriptSig": {"hex": "483045022100e566edeb8b2d68b3fbf1a0e862ce1a5b0d9981d70547dd0ee6978187c65c987002203c4928c3af927e913d0f4db8398d7ccb0f2eda17525473ccd1c1aeb14534789f01210296ef9fa3b2ce62f92f641eadd9d1e8ace768077a3e95b851f7043e8e3fb7c10b", "asm": "3045022100e566edeb8b2d68b3fbf1a0e862ce1a5b0d9981d70547dd0ee6978187c65c987002203c4928c3af927e913d0f4db8398d7ccb0f2eda17525473ccd1c1aeb14534789f[ALL] 0296ef9fa3b2ce62f92f641eadd9d1e8ace768077a3e95b851f7043e8e3fb7c10b"}, "vout": 1, "txid": "04347c0722794fdd3e3dd4a7d66871c7fde90eaf5e9b490ec5353a5de26f490f"}, {"sequence": 4294967294, "scriptSig": {"hex": "4730440220159b8545e3cc14dcc0912d0654f345aee105663e0dc3516c09467d593caca30b02201060301ab28625b9fbfff5371115f7f0ea050b2e98373a611379e1987b8bb08d0121025659a52b69e0ce1257ba35f0308b71760eae2f6a5aa2fb9084fd032c77c86cac", "asm": "30440220159b8545e3cc14dcc0912d0654f345aee105663e0dc3516c09467d593caca30b02201060301ab28625b9fbfff5371115f7f0ea050b2e98373a611379e1987b8bb08d[ALL] 025659a52b69e0ce1257ba35f0308b71760eae2f6a5aa2fb9084fd032c77c86cac"}, "vout": 1, "txid": "08dbd6198acbfcfbe185f923555de51b4fa83c47b2d464f5ad3763e34b07920d"}, {"sequence": 4294967294, "scriptSig": {"hex": "483045022100fcd8364c7e6cc4e163484006189890b3960192bd22672c47166c5c715a11c85802207e59ad57c207221ac89109fb487980fbb95d5242f7b20ee980f469ad1f7ce92301210296ef9fa3b2ce62f92f641eadd9d1e8ace768077a3e95b851f7043e8e3fb7c10b", "asm": "3045022100fcd8364c7e6cc4e163484006189890b3960192bd22672c47166c5c715a11c85802207e59ad57c207221ac89109fb487980fbb95d5242f7b20ee980f469ad1f7ce923[ALL] 0296ef9fa3b2ce62f92f641eadd9d1e8ace768077a3e95b851f7043e8e3fb7c10b"}, "vout": 0, "txid": "0a9f4d5bf30cb3039c955782e2b17f53e1284df825d0f779120e23226ff0e0ec"}, {"sequence": 4294967294, "scriptSig": {"hex": "47304402207c313ed8951647536caab91cb817282592cc684e3f6e9aa82bffc48543cb3a5702207a7f8b93f100245a5a6e1729a83fd4347affad1aa90e45b9f95876a53cfbcbd001210296ef9fa3b2ce62f92f641eadd9d1e8ace768077a3e95b851f7043e8e3fb7c10b", "asm": "304402207c313ed8951647536caab91cb817282592cc684e3f6e9aa82bffc48543cb3a5702207a7f8b93f100245a5a6e1729a83fd4347affad1aa90e45b9f95876a53cfbcbd0[ALL] 0296ef9fa3b2ce62f92f641eadd9d1e8ace768077a3e95b851f7043e8e3fb7c10b"}, "vout": 1, "txid": "1fd3f817213dc13a6b2acbc0d9c1672c75ce9018ec469f2be8b75fd5dd054b4b"}, {"sequence": 4294967294, "scriptSig": {"hex": "47304402202bc6a6d8cf00d230137e675b5f38d60e682011ee8ad0d981f179b5eed6686a0d022065d26543f630265b7838360172dbc2053eddb0aeee6a437e05121ebe8d0665b301210296ef9fa3b2ce62f92f641eadd9d1e8ace768077a3e95b851f7043e8e3fb7c10b", "asm": "304402202bc6a6d8cf00d230137e675b5f38d60e682011ee8ad0d981f179b5eed6686a0d022065d26543f630265b7838360172dbc2053eddb0aeee6a437e05121ebe8d0665b3[ALL] 0296ef9fa3b2ce62f92f641eadd9d1e8ace768077a3e95b851f7043e8e3fb7c10b"}, "vout": 1, "txid": "2e670208f993c5160539e832e6baa1db0658170dfa8686aced4ec13af0b7586d"}, {"sequence": 4294967294, "scriptSig": {"hex": "483045022100cd133b18892a37f0d7c306cca08d1a617ea3372036a95075d82a431df987365a02200db96bac01d0610594e3cea037274cdf0f95a1551056708287222b64cd45bc8a012103c60326126b4bec7c12373c8fb5fa2e59c8e3563905a9210ba2de59d674e40e7c", "asm": "3045022100cd133b18892a37f0d7c306cca08d1a617ea3372036a95075d82a431df987365a02200db96bac01d0610594e3cea037274cdf0f95a1551056708287222b64cd45bc8a[ALL] 03c60326126b4bec7c12373c8fb5fa2e59c8e3563905a9210ba2de59d674e40e7c"}, "vout": 0, "txid": "3451001ce5a04422a806c729845f3647f7cea2d8ab5ab56c53e971fa37cdf1fc"}, {"sequence": 4294967294, "scriptSig": {"hex": "483045022100d60e3f719c060b83e18f8149f2bd32b5c509a14e0c9b8026e9d074f2233594960220281554609b47cf2efc2c1c5d9dca49e1957d13999483ff0774bbd77f1c31f82401210296ef9fa3b2ce62f92f641eadd9d1e8ace768077a3e95b851f7043e8e3fb7c10b", "asm": "3045022100d60e3f719c060b83e18f8149f2bd32b5c509a14e0c9b8026e9d074f2233594960220281554609b47cf2efc2c1c5d9dca49e1957d13999483ff0774bbd77f1c31f824[ALL] 0296ef9fa3b2ce62f92f641eadd9d1e8ace768077a3e95b851f7043e8e3fb7c10b"}, "vout": 1, "txid": "36ef6bc72ac7151dc4b6d4a35b45a288842dbdd3362c3b77bb67032e3151df25"}, {"sequence": 4294967294, "scriptSig": {"hex": "47304402202db9051897214d96b2de15af3460b5e776c7beb7abd304bcd79e987de58d349c02203930e49d90379b4b044abc1ff8041650f1889d6fe1f4d6ff062db404c347faf801210296ef9fa3b2ce62f92f641eadd9d1e8ace768077a3e95b851f7043e8e3fb7c10b", "asm": "304402202db9051897214d96b2de15af3460b5e776c7beb7abd304bcd79e987de58d349c02203930e49d90379b4b044abc1ff8041650f1889d6fe1f4d6ff062db404c347faf8[ALL] 0296ef9fa3b2ce62f92f641eadd9d1e8ace768077a3e95b851f7043e8e3fb7c10b"}, "vout": 0, "txid": "3b8f8419b2eccf90c3a84645bc2fcc9335c5f9244eb5fc8c66d4226154ca90d2"}, {"sequence": 4294967294, "scriptSig": {"hex": "4730440220228d39af67eab648b96a851c34653027f6bdbc898bdf69b91fd23283dcafc7ef022007157515d4e02bdd5e9aae7f865ecd144c41652da2d771566c6302791a3c92f301210296ef9fa3b2ce62f92f641eadd9d1e8ace768077a3e95b851f7043e8e3fb7c10b", "asm": "30440220228d39af67eab648b96a851c34653027f6bdbc898bdf69b91fd23283dcafc7ef022007157515d4e02bdd5e9aae7f865ecd144c41652da2d771566c6302791a3c92f3[ALL] 0296ef9fa3b2ce62f92f641eadd9d1e8ace768077a3e95b851f7043e8e3fb7c10b"}, "vout": 0, "txid": "3fda51f541de904ee4df116d6ab8a77695d0ffdce2bf69b549c876a08e7e8de3"}, {"sequence": 4294967294, "scriptSig": {"hex": "47304402203b1f5b503036524b8b073ccbdb6eff22100393fa67a3062ff66401359f5a3e0502205024119ea507bfab5dc201e3a60804b0718538adbcfeea56b4d0b09f8173628f01210296ef9fa3b2ce62f92f641eadd9d1e8ace768077a3e95b851f7043e8e3fb7c10b", "asm": "304402203b1f5b503036524b8b073ccbdb6eff22100393fa67a3062ff66401359f5a3e0502205024119ea507bfab5dc201e3a60804b0718538adbcfeea56b4d0b09f8173628f[ALL] 0296ef9fa3b2ce62f92f641eadd9d1e8ace768077a3e95b851f7043e8e3fb7c10b"}, "vout": 0, "txid": "4c3f49d64819aeefc22c31f33146e42343cd7827c17e05ff9c7cca8e75a7577f"}, {"sequence": 4294967294, "scriptSig": {"hex": "473044022046408f63f606bb6ef215b4ef4e33d9851391f22797e82ebfa4f1e12527aef9db0220375e081970db96a48a3ab236595d7dfb989a0d399f75697758ea036db99a617d01210296ef9fa3b2ce62f92f641eadd9d1e8ace768077a3e95b851f7043e8e3fb7c10b", "asm": "3044022046408f63f606bb6ef215b4ef4e33d9851391f22797e82ebfa4f1e12527aef9db0220375e081970db96a48a3ab236595d7dfb989a0d399f75697758ea036db99a617d[ALL] 0296ef9fa3b2ce62f92f641eadd9d1e8ace768077a3e95b851f7043e8e3fb7c10b"}, "vout": 0, "txid": "6291f51a13ffb1e9d0a393fffbbbe0741634020f22a4decef8113c5ce00f7358"}, {"sequence": 4294967294, "scriptSig": {"hex": "483045022100af95401b61fbd049bebc824034727a841b5fc228c203f618646a63ad2ccecf2002205afef80fcd3e817da552e177dacb8c2f0bbc2f54333cb3d5e1916a409430b918012103c60326126b4bec7c12373c8fb5fa2e59c8e3563905a9210ba2de59d674e40e7c", "asm": "3045022100af95401b61fbd049bebc824034727a841b5fc228c203f618646a63ad2ccecf2002205afef80fcd3e817da552e177dacb8c2f0bbc2f54333cb3d5e1916a409430b918[ALL] 03c60326126b4bec7c12373c8fb5fa2e59c8e3563905a9210ba2de59d674e40e7c"}, "vout": 0, "txid": "7a5e353cd1676ce1ab140947b3fbc73bb5c58146a393a146031893cde6fe9011"}, {"sequence": 4294967294, "scriptSig": {"hex": "47304402202e001a1be2d831ff4ae3f8fae77e28c06286693aedf96eae17987a2d3b17ed4f02200a759c0b08b66a94c441c1d2547eef5ccb92fea227f560dd3c0032caec42c491012102b590dd16a039639730f8d275e78dce7d85b51b5ec999bfe4d443422c3e45068d", "asm": "304402202e001a1be2d831ff4ae3f8fae77e28c06286693aedf96eae17987a2d3b17ed4f02200a759c0b08b66a94c441c1d2547eef5ccb92fea227f560dd3c0032caec42c491[ALL] 02b590dd16a039639730f8d275e78dce7d85b51b5ec999bfe4d443422c3e45068d"}, "vout": 0, "txid": "8a1282052024e14d6be6f1f6c4269058d694d810ee3e3c03ac01c3fcc67bc6e3"}, {"sequence": 4294967294, "scriptSig": {"hex": "483045022100a492c86f5af30ecdb6534847e29680ccc2c5b3546c8271d07c8a55faabc128390220296f879866dd178374002dda488622b984ddcbcce8fcc565d2e3d8de484fa5a5012103c60326126b4bec7c12373c8fb5fa2e59c8e3563905a9210ba2de59d674e40e7c", "asm": "3045022100a492c86f5af30ecdb6534847e29680ccc2c5b3546c8271d07c8a55faabc128390220296f879866dd178374002dda488622b984ddcbcce8fcc565d2e3d8de484fa5a5[ALL] 03c60326126b4bec7c12373c8fb5fa2e59c8e3563905a9210ba2de59d674e40e7c"}, "vout": 1, "txid": "978497adf119abe160dfd0f3cfb432324ab486f1bcf2928a22e30fa41de7fb52"}, {"sequence": 4294967294, "scriptSig": {"hex": "4830450221008e20c83b910a2326dc96714910fd0ddcce5dd9abfe6bb6f1d6e9807b3a5427040220254c8000afe09717bc73087255d29a6489c2d82fbaf741d0398697988189fd9001210296ef9fa3b2ce62f92f641eadd9d1e8ace768077a3e95b851f7043e8e3fb7c10b", "asm": "30450221008e20c83b910a2326dc96714910fd0ddcce5dd9abfe6bb6f1d6e9807b3a5427040220254c8000afe09717bc73087255d29a6489c2d82fbaf741d0398697988189fd90[ALL] 0296ef9fa3b2ce62f92f641eadd9d1e8ace768077a3e95b851f7043e8e3fb7c10b"}, "vout": 1, "txid": "ac9d602a43d6f004c68781a89b20c8152173578db36cf641614147837144d8be"}, {"sequence": 4294967294, "scriptSig": {"hex": "4830450221009a585cb5ca17134129050ecdd2a61c33265a32fadd97a586860011c433a39baf02207cd26745ec4d864dc73119af221a7fac3878dd0015670930db0a98af49c626d7012103c60326126b4bec7c12373c8fb5fa2e59c8e3563905a9210ba2de59d674e40e7c", "asm": "30450221009a585cb5ca17134129050ecdd2a61c33265a32fadd97a586860011c433a39baf02207cd26745ec4d864dc73119af221a7fac3878dd0015670930db0a98af49c626d7[ALL] 03c60326126b4bec7c12373c8fb5fa2e59c8e3563905a9210ba2de59d674e40e7c"}, "vout": 0, "txid": "ad7120c0ce5f12f51bf883113e36a091484057b80cca842b2f7a377a59617347"}, {"sequence": 4294967294, "scriptSig": {"hex": "483045022100a387c69a72d5b7533a4e543b1c19d79746584b6937bf733fe42ddf03fe29c23c022052346a8ed52bfba4129b59a1d6adbea84a07d9d308ee713410f4fbdf2484defb01210296ef9fa3b2ce62f92f641eadd9d1e8ace768077a3e95b851f7043e8e3fb7c10b", "asm": "3045022100a387c69a72d5b7533a4e543b1c19d79746584b6937bf733fe42ddf03fe29c23c022052346a8ed52bfba4129b59a1d6adbea84a07d9d308ee713410f4fbdf2484defb[ALL] 0296ef9fa3b2ce62f92f641eadd9d1e8ace768077a3e95b851f7043e8e3fb7c10b"}, "vout": 0, "txid": "baab94746b14b5d2c63364e510ccf4cca09580d0d3b1ef6ff8bb1cc55410e24c"}, {"sequence": 4294967294, "scriptSig": {"hex": "47304402204712fc0e0976be88067b326b6b71daa5c396b2846f51e486b0650576ae2568a00220019862704adc4e096d99f66644255084a3c6f90db765664506c3bc16932f46d2012103c60326126b4bec7c12373c8fb5fa2e59c8e3563905a9210ba2de59d674e40e7c", "asm": "304402204712fc0e0976be88067b326b6b71daa5c396b2846f51e486b0650576ae2568a00220019862704adc4e096d99f66644255084a3c6f90db765664506c3bc16932f46d2[ALL] 03c60326126b4bec7c12373c8fb5fa2e59c8e3563905a9210ba2de59d674e40e7c"}, "vout": 0, "txid": "c2651e520f2bbb17c08cbf95c619e5e325de9fcb07f5e84642111ee69f313eac"}, {"sequence": 4294967294, "scriptSig": {"hex": "4830450221008e957cd21fead61e38130a81a07b3ecf2a312be52c8d88068b1143ea33a09ecd02202ec0771ceea6c772d07bf9e10ddb2554f9269b2dace49ab44af329d7cb5faa1101210296ef9fa3b2ce62f92f641eadd9d1e8ace768077a3e95b851f7043e8e3fb7c10b", "asm": "30450221008e957cd21fead61e38130a81a07b3ecf2a312be52c8d88068b1143ea33a09ecd02202ec0771ceea6c772d07bf9e10ddb2554f9269b2dace49ab44af329d7cb5faa11[ALL] 0296ef9fa3b2ce62f92f641eadd9d1e8ace768077a3e95b851f7043e8e3fb7c10b"}, "vout": 0, "txid": "c40f0f185716b677cfe0d408875aa00812c21206435511b831d8d02c31822d2b"}, {"sequence": 4294967294, "scriptSig": {"hex": "483045022100f49235c621fe3500d3055b471a81cff4490bd2d857242941b65a487cacebb02b022012ede04346f6594999391eb64194555aafae43297f64b21bfd5861731b86d6ba01210296ef9fa3b2ce62f92f641eadd9d1e8ace768077a3e95b851f7043e8e3fb7c10b", "asm": "3045022100f49235c621fe3500d3055b471a81cff4490bd2d857242941b65a487cacebb02b022012ede04346f6594999391eb64194555aafae43297f64b21bfd5861731b86d6ba[ALL] 0296ef9fa3b2ce62f92f641eadd9d1e8ace768077a3e95b851f7043e8e3fb7c10b"}, "vout": 0, "txid": "c916e2166c9f340802bc107b49f8a9e7ea513d45c34d04a7e4377d85a2f5e150"}, {"sequence": 4294967294, "scriptSig": {"hex": "483045022100bb13f58c9fd695490afb9e0c0364de1b6fe4905d460abcb6ae7851595260945e0220050a7304f9019185e965f36ceb8ea971bb41caf7e2c585d478e14e06ce25b0ca01210296ef9fa3b2ce62f92f641eadd9d1e8ace768077a3e95b851f7043e8e3fb7c10b", "asm": "3045022100bb13f58c9fd695490afb9e0c0364de1b6fe4905d460abcb6ae7851595260945e0220050a7304f9019185e965f36ceb8ea971bb41caf7e2c585d478e14e06ce25b0ca[ALL] 0296ef9fa3b2ce62f92f641eadd9d1e8ace768077a3e95b851f7043e8e3fb7c10b"}, "vout": 0, "txid": "ca7f29c9b8794bc9fde590a23bdebffcf30b69e4286d0750d013f6ff10037e02"}, {"sequence": 4294967294, "scriptSig": {"hex": "483045022100cdc072354713747f8360f1ea5a4c41c23dc8daff7dd518d8bf12c68ba5ac8827022002ab91c318f216a33eed961794174527252a9ea3a5eeca27fc3aa89ae3d0e9c801210296ef9fa3b2ce62f92f641eadd9d1e8ace768077a3e95b851f7043e8e3fb7c10b", "asm": "3045022100cdc072354713747f8360f1ea5a4c41c23dc8daff7dd518d8bf12c68ba5ac8827022002ab91c318f216a33eed961794174527252a9ea3a5eeca27fc3aa89ae3d0e9c8[ALL] 0296ef9fa3b2ce62f92f641eadd9d1e8ace768077a3e95b851f7043e8e3fb7c10b"}, "vout": 0, "txid": "d1190ec29c0f4436e7c2b50eabc44b2ce0953b2569017b6b29d8857e6722ee75"}, {"sequence": 4294967294, "scriptSig": {"hex": "4730440220324c2c5f983dd5517de5c66f026d9566a111ac41db0492a358434b4f2d76f08c02201e7a87faa5d0362d32e3688d26af3889c55bc823156a56e5d560aee0170afdc2012103c60326126b4bec7c12373c8fb5fa2e59c8e3563905a9210ba2de59d674e40e7c", "asm": "30440220324c2c5f983dd5517de5c66f026d9566a111ac41db0492a358434b4f2d76f08c02201e7a87faa5d0362d32e3688d26af3889c55bc823156a56e5d560aee0170afdc2[ALL] 03c60326126b4bec7c12373c8fb5fa2e59c8e3563905a9210ba2de59d674e40e7c"}, "vout": 0, "txid": "dc686a3f9fa7f864d22beb25b730a4fb660bd6ccafccdf1767a98a62ca57e719"}, {"sequence": 4294967294, "scriptSig": {"hex": "483045022100ce7bb022b803916d9d5213e77b985de8de876a6e21a5a2080520f909b58e5b7c02201035ba46e061b1866c91a5603f6efeea4f4c9a645187d6be419f104daee6512b01210296ef9fa3b2ce62f92f641eadd9d1e8ace768077a3e95b851f7043e8e3fb7c10b", "asm": "3045022100ce7bb022b803916d9d5213e77b985de8de876a6e21a5a2080520f909b58e5b7c02201035ba46e061b1866c91a5603f6efeea4f4c9a645187d6be419f104daee6512b[ALL] 0296ef9fa3b2ce62f92f641eadd9d1e8ace768077a3e95b851f7043e8e3fb7c10b"}, "vout": 0, "txid": "dedd9c2f4911239e5b081abc9e7c58460bc3fdb0737c255a9e385e09d3697d28"}, {"sequence": 4294967294, "scriptSig": {"hex": "473044022055475afe5106027b4501051938a9a4f3e495eef678aac9f970a78a1f6fd5a49202206779f0511d68cda8cce8dd8dbdba86c053bfdb82d6942f852096b3a4fe65a89c012103c60326126b4bec7c12373c8fb5fa2e59c8e3563905a9210ba2de59d674e40e7c", "asm": "3044022055475afe5106027b4501051938a9a4f3e495eef678aac9f970a78a1f6fd5a49202206779f0511d68cda8cce8dd8dbdba86c053bfdb82d6942f852096b3a4fe65a89c[ALL] 03c60326126b4bec7c12373c8fb5fa2e59c8e3563905a9210ba2de59d674e40e7c"}, "vout": 0, "txid": "e2165b373f9f3c35326f5b3308a66da952f2e8d6f9199190f3125af0bc11ca3f"}, {"sequence": 4294967294, "scriptSig": {"hex": "483045022100f4dec6d3e973fe57a134fa09475eb389261f6139b9bdad065ecc96aecbe246aa022077d0810d88901ae2754272d4aef164e56a3e9ccb25f5c866e91aec63683db09601210296ef9fa3b2ce62f92f641eadd9d1e8ace768077a3e95b851f7043e8e3fb7c10b", "asm": "3045022100f4dec6d3e973fe57a134fa09475eb389261f6139b9bdad065ecc96aecbe246aa022077d0810d88901ae2754272d4aef164e56a3e9ccb25f5c866e91aec63683db096[ALL] 0296ef9fa3b2ce62f92f641eadd9d1e8ace768077a3e95b851f7043e8e3fb7c10b"}, "vout": 0, "txid": "e303285422d85f503c6c81fbc4f59515988ef0474b9a94298f1375bcfb3ffc2e"}, {"sequence": 4294967294, "scriptSig": {"hex": "47304402205edebeecb004c2a91c7889109e0f56e97efd4341012d4471cb98ae9ff54f5de0022017db09a8e42df699ae1a33a607113edb98d7c5ae6e54bea5862b68fbd852d3b901210296ef9fa3b2ce62f92f641eadd9d1e8ace768077a3e95b851f7043e8e3fb7c10b", "asm": "304402205edebeecb004c2a91c7889109e0f56e97efd4341012d4471cb98ae9ff54f5de0022017db09a8e42df699ae1a33a607113edb98d7c5ae6e54bea5862b68fbd852d3b9[ALL] 0296ef9fa3b2ce62f92f641eadd9d1e8ace768077a3e95b851f7043e8e3fb7c10b"}, "vout": 1, "txid": "f04dd6c16e5e5030592daf8db18e120553e6a6dfe5f85a62b2939c5583ce63a6"}, {"sequence": 4294967294, "scriptSig": {"hex": "483045022100c64b10d67a1806d1423393ddee20e1ac41be2b9c53a266a055e80a8a176bc7280220731da293a46b5f45ef359aaa73ec61d545cd0f92202bb43ac314d6ed7ca993fa0121025659a52b69e0ce1257ba35f0308b71760eae2f6a5aa2fb9084fd032c77c86cac", "asm": "3045022100c64b10d67a1806d1423393ddee20e1ac41be2b9c53a266a055e80a8a176bc7280220731da293a46b5f45ef359aaa73ec61d545cd0f92202bb43ac314d6ed7ca993fa[ALL] 025659a52b69e0ce1257ba35f0308b71760eae2f6a5aa2fb9084fd032c77c86cac"}, "vout": 1, "txid": "fcf3e974e21feaf715c0c74ced3cb23c0f1b702b01197506ba55c46438a2e246"}], "txid": "84380192dc7ec0eb92161db5199cfcc78d56def57a33af2a7de94f5a1427a167", "blocktime": 1537874412, "version": 1, "confirmations": 11467, "time": 1537874412, "locktime": 542997, "vsize": 4210, "size": 4210}