{"hash": "8443f416d4b3a68b6adb51ee525f1ac170315af3607d70ddae3df6c8de16b1ea", "blockhash": "0000000000000000000e13cef7c366c0283d82e591d1acd082e914b08063cdf1", "vout": [{"scriptPubKey": {"reqSigs": 1, "hex": "76a9143fe8348650c9873178230b463e707992b6e108e788ac", "addresses": ["16pujz482netGwGChtw3JyYvqs9SGRQ86J"], "asm": "OP_DUP OP_HASH160 3fe8348650c9873178230b463e707992b6e108e7 OP_EQUALVERIFY OP_CHECKSIG", "type": "pubkeyhash"}, "value": 0.00044601, "n": 0}, {"scriptPubKey": {"reqSigs": 1, "hex": "a9147799ea78bf8198d5eaea59520d8eebff9fb6e6ec87", "addresses": ["3CbQidrD3jMC8jz4n4uk24nrrQk4RucfcG"], "asm": "OP_HASH160 7799ea78bf8198d5eaea59520d8eebff9fb6e6ec OP_EQUAL", "type": "scripthash"}, "value": 0.01187353, "n": 1}], "hex": "0100000001004a4f0b4bfa4cf85d8bdbad0500b76aa9391d06ec58a940e7856562476cf24e010000006a4730440220527f8f1d8b50f5ae3c9c88263048b35339de5c4b1a973da9547c4ee2c573fe9402206e9c4b4b82451144395e3f121113e219b01eb9c640be89edc31017488b8a93ab012103000879233803c00eac4272b1dff43f1e8cb7d43a1b4fdd1a624e9d760233b09effffffff0239ae0000000000001976a9143fe8348650c9873178230b463e707992b6e108e788ac191e12000000000017a9147799ea78bf8198d5eaea59520d8eebff9fb6e6ec8700000000", "vin": [{"sequence": 4294967295, "scriptSig": {"hex": "4730440220527f8f1d8b50f5ae3c9c88263048b35339de5c4b1a973da9547c4ee2c573fe9402206e9c4b4b82451144395e3f121113e219b01eb9c640be89edc31017488b8a93ab012103000879233803c00eac4272b1dff43f1e8cb7d43a1b4fdd1a624e9d760233b09e", "asm": "30440220527f8f1d8b50f5ae3c9c88263048b35339de5c4b1a973da9547c4ee2c573fe9402206e9c4b4b82451144395e3f121113e219b01eb9c640be89edc31017488b8a93ab[ALL] 03000879233803c00eac4272b1dff43f1e8cb7d43a1b4fdd1a624e9d760233b09e"}, "vout": 1, "txid": "4ef26c47626585e740a958ec061d39a96ab70005addb8b5df84cfa4b0b4f4a00"}], "txid": "8443f416d4b3a68b6adb51ee525f1ac170315af3607d70ddae3df6c8de16b1ea", "blocktime": 1537871767, "version": 1, "confirmations": 11495, "time": 1537871767, "locktime": 0, "vsize": 223, "size": 223}