{"hash": "844cb9c0816b8a371a96584de82789c9736d696effa6ad002060c3e5ca424474", "blockhash": "0000000000000000001e0dab787dd257d1dbfcb92a98c2207d5e1078be1f4165", "vout": [{"scriptPubKey": {"reqSigs": 1, "hex": "a914140f4a1d9542e53cb4a229136e786c68aa63b90b87", "addresses": ["33X5kiPY2BjepzbXxyGgXet3fPmv1omqrx"], "asm": "OP_HASH160 140f4a1d9542e53cb4a229136e786c68aa63b90b OP_EQUAL", "type": "scripthash"}, "value": 0.00641766, "n": 0}, {"scriptPubKey": {"reqSigs": 1, "hex": "76a914996f86f443191168d05957e74826021186578e3888ac", "addresses": ["1EzHzPp5EekZ9q8or1NT8WyKTE7QFLRiAP"], "asm": "OP_DUP OP_HASH160 996f86f443191168d05957e74826021186578e38 OP_EQUALVERIFY OP_CHECKSIG", "type": "pubkeyhash"}, "value": 0.00366985, "n": 1}, {"scriptPubKey": {"reqSigs": 1, "hex": "76a914d1881d33876fba5ff023f7e86e098282bf5ba33988ac", "addresses": ["1L6uHTu7ghAXrgvKw1CcUhyPmnEYfTyaRU"], "asm": "OP_DUP OP_HASH160 d1881d33876fba5ff023f7e86e098282bf5ba339 OP_EQUALVERIFY OP_CHECKSIG", "type": "pubkeyhash"}, "value": 0.00666903, "n": 2}, {"scriptPubKey": {"reqSigs": 1, "hex": "a914619085de3e265eba9ce73c05b43e5b56870f085787", "addresses": ["3AatbnCA1UkN8JQ3XW6CSRbU9jgKFeckvH"], "asm": "OP_HASH160 619085de3e265eba9ce73c05b43e5b56870f0857 OP_EQUAL", "type": "scripthash"}, "value": 0.005, "n": 3}, {"scriptPubKey": {"reqSigs": 1, "hex": "76a91431756becc039ea374fd795f7b83c0ae5007a872b88ac", "addresses": ["15WWmzfSyA4WnGwNg5JFATpWUjXpomajxB"], "asm": "OP_DUP OP_HASH160 31756becc039ea374fd795f7b83c0ae5007a872b OP_EQUALVERIFY OP_CHECKSIG", "type": "pubkeyhash"}, "value": 0.0278, "n": 4}], "hex": "0200000005309f9cc977fc89dfa3ee0be7a9218415e406d058c3277f1a91adfba05a9357f48f0000006b483045022100b515713fb8882490f0bf7a91af09227f29e7e1e16f016c4751096e9d5916b278022060efed00f8afdfeb75a35e82a6b8a974e6c908b149f52f255bf6119ba6923676012102e2340f7083fac5faee12671d02f268b77aa35b5dfa2362a1b2af4f70596ef28bfeffffff748ca989fc2bc2b4758bab47cdd29ffec49ff525dd4a32de81c87b2aa601078d160000006b483045022100b158662f2d5e5e8a21ca89f927480bb955422d79ee1dac8f3fed90af28e5647902202984ed9304bd85784be799bc6995aa76ea9c068f24cc4ec986bc630875f69a7a0121028545e04f7feb31a4c615cbda14ecbcb892d483e3c4ca9fdc6306f6d4a66b9259feffffff88b5bc41bd71dacebd0a825ed40ed0eb30ea62c0e5d09350673a4f635c3f8436040000006a4730440220418c6abb6ccc1284178e44a48d83a06afb5390fa0a6204d4b66c368876c76c21022070237673a7f7e04dba802485d7c9f2a0ca20da1b822b2b7cb186134d8d1469fb012102bc1b261a97148b98832ad60981aba5cd36342a999bfada5fa92d52e7b67027adfeffffffefdad2ca2f7f631089ba10f75a49c046891a6e8cf133ec2acdafae060d62601e340200006a47304402204c589d668a51506f593341f7ea9afd9b4146aa8d16026a04309296b531bb8a8c02207fec25a8f505df39022c32008ac1b011798001200b6385fda49f7c3ae873d3df0121020a7d90dd0a0a0fc17024ef5e10d3e3167d245ada28b66f3701417780709e85b7fefffffff40343786f853f023144d3574cff5706e371629690b98e75721b005941ad724b1b0000006a473044022028c69016b9397a09a17436e3c1e83ba4751a779cc6b197e5f1fc0c1cd88cd34b02200842eb4df933d56cee9aa4be8624ad386615127e4d4c1d6a0fe6bbbeb60fdc6e0121028545e04f7feb31a4c615cbda14ecbcb892d483e3c4ca9fdc6306f6d4a66b9259feffffff05e6ca09000000000017a914140f4a1d9542e53cb4a229136e786c68aa63b90b8789990500000000001976a914996f86f443191168d05957e74826021186578e3888ac172d0a00000000001976a914d1881d33876fba5ff023f7e86e098282bf5ba33988ac20a107000000000017a914619085de3e265eba9ce73c05b43e5b56870f085787606b2a00000000001976a91431756becc039ea374fd795f7b83c0ae5007a872b88ac12490800", "vin": [{"sequence": 4294967294, "scriptSig": {"hex": "483045022100b515713fb8882490f0bf7a91af09227f29e7e1e16f016c4751096e9d5916b278022060efed00f8afdfeb75a35e82a6b8a974e6c908b149f52f255bf6119ba6923676012102e2340f7083fac5faee12671d02f268b77aa35b5dfa2362a1b2af4f70596ef28b", "asm": "3045022100b515713fb8882490f0bf7a91af09227f29e7e1e16f016c4751096e9d5916b278022060efed00f8afdfeb75a35e82a6b8a974e6c908b149f52f255bf6119ba6923676[ALL] 02e2340f7083fac5faee12671d02f268b77aa35b5dfa2362a1b2af4f70596ef28b"}, "vout": 143, "txid": "f457935aa0fbad911a7f27c358d006e4158421a9e70beea3df89fc77c99c9f30"}, {"sequence": 4294967294, "scriptSig": {"hex": "483045022100b158662f2d5e5e8a21ca89f927480bb955422d79ee1dac8f3fed90af28e5647902202984ed9304bd85784be799bc6995aa76ea9c068f24cc4ec986bc630875f69a7a0121028545e04f7feb31a4c615cbda14ecbcb892d483e3c4ca9fdc6306f6d4a66b9259", "asm": "3045022100b158662f2d5e5e8a21ca89f927480bb955422d79ee1dac8f3fed90af28e5647902202984ed9304bd85784be799bc6995aa76ea9c068f24cc4ec986bc630875f69a7a[ALL] 028545e04f7feb31a4c615cbda14ecbcb892d483e3c4ca9fdc6306f6d4a66b9259"}, "vout": 22, "txid": "8d0701a62a7bc881de324add25f59fc4fe9fd2cd47ab8b75b4c22bfc89a98c74"}, {"sequence": 4294967294, "scriptSig": {"hex": "4730440220418c6abb6ccc1284178e44a48d83a06afb5390fa0a6204d4b66c368876c76c21022070237673a7f7e04dba802485d7c9f2a0ca20da1b822b2b7cb186134d8d1469fb012102bc1b261a97148b98832ad60981aba5cd36342a999bfada5fa92d52e7b67027ad", "asm": "30440220418c6abb6ccc1284178e44a48d83a06afb5390fa0a6204d4b66c368876c76c21022070237673a7f7e04dba802485d7c9f2a0ca20da1b822b2b7cb186134d8d1469fb[ALL] 02bc1b261a97148b98832ad60981aba5cd36342a999bfada5fa92d52e7b67027ad"}, "vout": 4, "txid": "36843f5c634f3a675093d0e5c062ea30ebd00ed45e820abdceda71bd41bcb588"}, {"sequence": 4294967294, "scriptSig": {"hex": "47304402204c589d668a51506f593341f7ea9afd9b4146aa8d16026a04309296b531bb8a8c02207fec25a8f505df39022c32008ac1b011798001200b6385fda49f7c3ae873d3df0121020a7d90dd0a0a0fc17024ef5e10d3e3167d245ada28b66f3701417780709e85b7", "asm": "304402204c589d668a51506f593341f7ea9afd9b4146aa8d16026a04309296b531bb8a8c02207fec25a8f505df39022c32008ac1b011798001200b6385fda49f7c3ae873d3df[ALL] 020a7d90dd0a0a0fc17024ef5e10d3e3167d245ada28b66f3701417780709e85b7"}, "vout": 564, "txid": "1e60620d06aeafcd2aec33f18c6e1a8946c0495af710ba8910637f2fcad2daef"}, {"sequence": 4294967294, "scriptSig": {"hex": "473044022028c69016b9397a09a17436e3c1e83ba4751a779cc6b197e5f1fc0c1cd88cd34b02200842eb4df933d56cee9aa4be8624ad386615127e4d4c1d6a0fe6bbbeb60fdc6e0121028545e04f7feb31a4c615cbda14ecbcb892d483e3c4ca9fdc6306f6d4a66b9259", "asm": "3044022028c69016b9397a09a17436e3c1e83ba4751a779cc6b197e5f1fc0c1cd88cd34b02200842eb4df933d56cee9aa4be8624ad386615127e4d4c1d6a0fe6bbbeb60fdc6e[ALL] 028545e04f7feb31a4c615cbda14ecbcb892d483e3c4ca9fdc6306f6d4a66b9259"}, "vout": 27, "txid": "4b72ad4159001b72758eb990966271e30657ff4c57d34431023f856f784303f4"}], "txid": "844cb9c0816b8a371a96584de82789c9736d696effa6ad002060c3e5ca424474", "blocktime": 1537872475, "version": 2, "confirmations": 11486, "time": 1537872475, "locktime": 542994, "vsize": 913, "size": 913}