{"hash": "844de06a0d2c3742a5bb303e01178d36838d677646d98e50c3d50463e8b1924d", "blockhash": "000000000000000000205f8b0775d31398ef75b89a5e8ec8d2c57b4dc0ac4c20", "vout": [{"scriptPubKey": {"reqSigs": 1, "hex": "76a914f423dfee34e4833104508103d89e316b4a49314088ac", "addresses": ["1PFtrRjbq4aLfM7k4tyLZ3ZAuTsgLr6Q8Q"], "asm": "OP_DUP OP_HASH160 f423dfee34e4833104508103d89e316b4a493140 OP_EQUALVERIFY OP_CHECKSIG", "type": "pubkeyhash"}, "value": 0.0080364, "n": 0}, {"scriptPubKey": {"reqSigs": 1, "hex": "a9147e97678b263527b6a44385c6a215d736deb9698087", "addresses": ["3DENSUrwCM2JsTiJXVsvSSVYj3cnaRn1LG"], "asm": "OP_HASH160 7e97678b263527b6a44385c6a215d736deb96980 OP_EQUAL", "type": "scripthash"}, "value": 5.46e-06, "n": 1}, {"scriptPubKey": {"type": "nulldata", "hex": "6a146f6d6e69000000000000001f00000372f82f3b40", "asm": "OP_RETURN 6f6d6e69000000000000001f00000372f82f3b40"}, "value": 0.0, "n": 2}], "hex": "010000000140edc0f286918557362cdbe47dd6af31594471461ea705ad06a76564e4ef4102000000006b4830450221008e8e06bdb45dac114443bf5ed0da58b198de0698acc41e7f09ff969f46f03787022013744f6ddbebcd664481219ba8505e185e2eab0d96a0ca9b5bc4192739b278c10121039a403b4eeaf8f7a9c5cc655cf2d17310fcd606a75b1392f7892f6b514a67d23cffffffff0338430c00000000001976a914f423dfee34e4833104508103d89e316b4a49314088ac220200000000000017a9147e97678b263527b6a44385c6a215d736deb96980870000000000000000166a146f6d6e69000000000000001f00000372f82f3b4000000000", "vin": [{"sequence": 4294967295, "scriptSig": {"hex": "4830450221008e8e06bdb45dac114443bf5ed0da58b198de0698acc41e7f09ff969f46f03787022013744f6ddbebcd664481219ba8505e185e2eab0d96a0ca9b5bc4192739b278c10121039a403b4eeaf8f7a9c5cc655cf2d17310fcd606a75b1392f7892f6b514a67d23c", "asm": "30450221008e8e06bdb45dac114443bf5ed0da58b198de0698acc41e7f09ff969f46f03787022013744f6ddbebcd664481219ba8505e185e2eab0d96a0ca9b5bc4192739b278c1[ALL] 039a403b4eeaf8f7a9c5cc655cf2d17310fcd606a75b1392f7892f6b514a67d23c"}, "vout": 0, "txid": "0241efe46465a706ad05a71e4671445931afd67de4db2c3657859186f2c0ed40"}], "txid": "844de06a0d2c3742a5bb303e01178d36838d677646d98e50c3d50463e8b1924d", "blocktime": 1537871175, "version": 1, "confirmations": 11511, "time": 1537871175, "locktime": 0, "vsize": 255, "size": 255}