{"hash": "3dbdcd43194066374da64f9b3ccb4f73a96fc879bfe52770d32190b0b2c9589a", "blockhash": "0000000000000000000e13cef7c366c0283d82e591d1acd082e914b08063cdf1", "vout": [{"scriptPubKey": {"reqSigs": 1, "hex": "a914d895ff0cfd3d7424ffae53b8b34125df0ebe091787", "addresses": ["3MSDZuPyVCB3dPdL7VBAyqdLyFCASAL2cm"], "asm": "OP_HASH160 d895ff0cfd3d7424ffae53b8b34125df0ebe0917 OP_EQUAL", "type": "scripthash"}, "value": 0.20592256, "n": 0}, {"scriptPubKey": {"reqSigs": 1, "hex": "a9147ede9f7541a26951cca1a14574461aa36f0fd33987", "addresses": ["3DFqkpiQ4N467oHFZ1TpBiGjUzNFBqH4kJ"], "asm": "OP_HASH160 7ede9f7541a26951cca1a14574461aa36f0fd339 OP_EQUAL", "type": "scripthash"}, "value": 1.08031803, "n": 1}], "hex": "01000000000106a83abb38d9eeaea0ac470f02469c5fbfd3f26d9bc6efb90d53849ef2eba059d901000000232200201dd5daabaf4384e4d6c61bfd1645b41b89898991919a4bba97d0554a2d9cefeaffffffff0c245afa4cd01bb824b03300ee69e2baef092b289f8b92cec508643b16868c5e000000002322002050e7742e44f6f26ce8c2b6d56a30bd41d7df4c0c0b10d1e3a2aa50047046d0c6ffffffff32883cd883466771ce6f24556467c28d0fb40a6119fe672a76a5b9f9e7bf010f0000000023220020950a2ff83f3c1d42499fc3bce6011f4cabd6965cb8ce798b621145a24bbe7485ffffffff751ac88b42b0ef67f37a64f32d3b31708ab3f04663ca3428566155f52d5ffd3d010000002322002045b4902dab8c783c57303266701aea3197e3476c856d223931fc57b2f4ad8260ffffffffe6a57a28e28f307940dd8409b100da75ded26fbfb08ec998d3b2a24139d0932e0000000023220020e20371425882d563411c4ab0182dc7f8400d8f7f09a540fad31df169197fb1c5ffffffff44053d7c79deb1ff5eaada684b4a867adcc5e41efc6420f93ab10ac8ecdce5760000000023220020bd9c72b986ba56f27c7898afcd036b7431ec29a054031337043e54bae6fd3666ffffffff0280363a010000000017a914d895ff0cfd3d7424ffae53b8b34125df0ebe0917873b6f70060000000017a9147ede9f7541a26951cca1a14574461aa36f0fd339870400483045022100b5f77eb72ecab49b61450700a2f014a8992a48b51f897e9babc5b14f1ac6793002201c40502420c362cc1af6356e0f11c55ff4c0cc7007cdb4a3ee06bf851e4a9c70014730440220519aeac5a8c6dccfa793cc6a233ccb2926f86217a760fa63f45611d94285fe91022041748bba9dcc21581dca07d3963204fd2995cfcc05be52a928050f5169b389530169522103c10a4fef350e41e7898f61496da74c7618083394216739f97768676d3754cff12103f00a415d6e4573827515190de0bb565d3adabc34403058368283e3f6530a7f702102ba00ac3485191316870a824a8bc3e5c44fe15e1d98bf06b0bc2c89353954714553ae0400483045022100a8ed0e41ca73357d84a72ebfab26fcc3930670508065d4c71d9f54135f5f4acd02203d543f550592fde6a47e07ad1e118d9ebb2d50845af03880d00f633865340a660147304402206d2382148927d5a509cdb5ff14531068af69ee5c8ce398c23a9f64ba71cda9a0022067899024347411c78827d0b5257db79223474fae13cea3b90ee2d238bf02f7750169522102bfc8d62f07bc4cae6365d48bef3126f607e242ecd3d8cf6cec1dc515eb1a6aea21038534b2348a0b4fd01f38deb6fe394b84c411550ed1e325d3c87371f3c8f06bf0210258215ad952c71d455f599193e5fe021b0292c22d5e7d9c36a0e7d7919e3d202053ae040047304402204c1c302fc76308e26144ab66a6b55cb8f4c36491e7e4b4c501c486fa78caa5bd02202c91382414932fb81c8a2332a2cc842afd691e09ff706d3e12b250f097b595c2014730440220069423346d334af0af4c24f6a56b3d544ae0f81cd2eb11df097e1081cfd78788022064676b13b06cf58dcce86fe47c5c1106a55b66837097dfa5f4335402537a9b5a01695221020570739e8807dc57edf5a16c3957a3f1367d7e4d45c7b620a0043eb46985b38221030da8e4693f0c7a7acae252dd33607cfad0c40d380f37307e169df0a8d9bd24092103ecab096504c48469434dbde3d2647e285de163e412165732d3431b2e105c465853ae040047304402203a62132def4be41c59ae966617ce58c6b619df4668d1e1edf4c67afa46b8db7d02200ca24a9bae9dd19865a3e309e2837bc8eccf760694ee5691e4223af1b9cd1af7014730440220618976e1d0da3699c327cd83d6132e642c2ab813f386ccf4e7024e235f84abeb02202ea876fe1f934b01a644324670bebbee4c40f5d452f9faa17e40f10e72797d360169522102e831dfb3b031ff2f9dfc9797dec533f25b761e96ce3288fc5edadd4fbd659764210231e2a49419d407cef6923dddf962cc3eaa02991023d5fe3c66833eea6e3c6c3e21032b793cbb8a1acfb4377f2a67443eb95cb91675e4fb0566ab5cb27edc1c084c2d53ae040047304402204a91a50e2fe64f8494da64679cccfe973dfc3ebb4309523f1356475ee5662e4d0220009383567cece7a0e9692749b0484c1d4d6446993b5a7fd388a166e178247f5b0147304402200fac988160b8a3aa844bf94ed1ae888cb9719299fc2dd034497bc20eb3bd777f022064d75ff7b4bde79925843099778e777c1a5f9c92b703f3c7d48b638f52f1578201695221023cd7541fb25e64d9268047dfd2813ee9414525d732eed712d1029ea59cfca42d2102346d0fd30f50ba7eeec95ffb709be7555d2c59db46a29a145caaa2538d4e121d21036a5b2f797822d75a2541d66730fd6e86dc8d7c63c921cb788c59a18098a6e38653ae0400473044022052ce9efc531512ec132d30db69c10029abbb09115b01e89e145bf4126528a1fc0220471c150b3369fd16d3c351e7a00200b010c6f8ff9c0d1dacaf5026b06100785701473044022000f4a99a4c7bde0c86b35f82c1fa087bba75966242189fdf0345510392530f330220082bcdd9c7c3e7b0b8822528f8a56e7f2faa916984f7a222e8fddb4db7f87bd501695221035a154990d78dd8deb4960f5825959a4cea2632a0b2fe20c1b292d04149d679992103531547cfe752c02c4cc38ec994692fbd9bdad8a503cd8b43e1ce8bad2da39b53210301cacd6297fe1de66c92af059adb80fcfa9eff8125c4f2b9290ca5b578c12d4253ae00000000", "vin": [{"txinwitness": ["", "3045022100b5f77eb72ecab49b61450700a2f014a8992a48b51f897e9babc5b14f1ac6793002201c40502420c362cc1af6356e0f11c55ff4c0cc7007cdb4a3ee06bf851e4a9c7001", "30440220519aeac5a8c6dccfa793cc6a233ccb2926f86217a760fa63f45611d94285fe91022041748bba9dcc21581dca07d3963204fd2995cfcc05be52a928050f5169b3895301", "522103c10a4fef350e41e7898f61496da74c7618083394216739f97768676d3754cff12103f00a415d6e4573827515190de0bb565d3adabc34403058368283e3f6530a7f702102ba00ac3485191316870a824a8bc3e5c44fe15e1d98bf06b0bc2c89353954714553ae"], "sequence": 4294967295, "scriptSig": {"hex": "2200201dd5daabaf4384e4d6c61bfd1645b41b89898991919a4bba97d0554a2d9cefea", "asm": "00201dd5daabaf4384e4d6c61bfd1645b41b89898991919a4bba97d0554a2d9cefea"}, "vout": 1, "txid": "d959a0ebf29e84530db9efc69b6df2d3bf5f9c46020f47aca0aeeed938bb3aa8"}, {"txinwitness": ["", "3045022100a8ed0e41ca73357d84a72ebfab26fcc3930670508065d4c71d9f54135f5f4acd02203d543f550592fde6a47e07ad1e118d9ebb2d50845af03880d00f633865340a6601", "304402206d2382148927d5a509cdb5ff14531068af69ee5c8ce398c23a9f64ba71cda9a0022067899024347411c78827d0b5257db79223474fae13cea3b90ee2d238bf02f77501", "522102bfc8d62f07bc4cae6365d48bef3126f607e242ecd3d8cf6cec1dc515eb1a6aea21038534b2348a0b4fd01f38deb6fe394b84c411550ed1e325d3c87371f3c8f06bf0210258215ad952c71d455f599193e5fe021b0292c22d5e7d9c36a0e7d7919e3d202053ae"], "sequence": 4294967295, "scriptSig": {"hex": "22002050e7742e44f6f26ce8c2b6d56a30bd41d7df4c0c0b10d1e3a2aa50047046d0c6", "asm": "002050e7742e44f6f26ce8c2b6d56a30bd41d7df4c0c0b10d1e3a2aa50047046d0c6"}, "vout": 0, "txid": "5e8c86163b6408c5ce928b9f282b09efbae269ee0033b024b81bd04cfa5a240c"}, {"txinwitness": ["", "304402204c1c302fc76308e26144ab66a6b55cb8f4c36491e7e4b4c501c486fa78caa5bd02202c91382414932fb81c8a2332a2cc842afd691e09ff706d3e12b250f097b595c201", "30440220069423346d334af0af4c24f6a56b3d544ae0f81cd2eb11df097e1081cfd78788022064676b13b06cf58dcce86fe47c5c1106a55b66837097dfa5f4335402537a9b5a01", "5221020570739e8807dc57edf5a16c3957a3f1367d7e4d45c7b620a0043eb46985b38221030da8e4693f0c7a7acae252dd33607cfad0c40d380f37307e169df0a8d9bd24092103ecab096504c48469434dbde3d2647e285de163e412165732d3431b2e105c465853ae"], "sequence": 4294967295, "scriptSig": {"hex": "220020950a2ff83f3c1d42499fc3bce6011f4cabd6965cb8ce798b621145a24bbe7485", "asm": "0020950a2ff83f3c1d42499fc3bce6011f4cabd6965cb8ce798b621145a24bbe7485"}, "vout": 0, "txid": "0f01bfe7f9b9a5762a67fe19610ab40f8dc2676455246fce71674683d83c8832"}, {"txinwitness": ["", "304402203a62132def4be41c59ae966617ce58c6b619df4668d1e1edf4c67afa46b8db7d02200ca24a9bae9dd19865a3e309e2837bc8eccf760694ee5691e4223af1b9cd1af701", "30440220618976e1d0da3699c327cd83d6132e642c2ab813f386ccf4e7024e235f84abeb02202ea876fe1f934b01a644324670bebbee4c40f5d452f9faa17e40f10e72797d3601", "522102e831dfb3b031ff2f9dfc9797dec533f25b761e96ce3288fc5edadd4fbd659764210231e2a49419d407cef6923dddf962cc3eaa02991023d5fe3c66833eea6e3c6c3e21032b793cbb8a1acfb4377f2a67443eb95cb91675e4fb0566ab5cb27edc1c084c2d53ae"], "sequence": 4294967295, "scriptSig": {"hex": "22002045b4902dab8c783c57303266701aea3197e3476c856d223931fc57b2f4ad8260", "asm": "002045b4902dab8c783c57303266701aea3197e3476c856d223931fc57b2f4ad8260"}, "vout": 1, "txid": "3dfd5f2df55561562834ca6346f0b38a70313b2df3647af367efb0428bc81a75"}, {"txinwitness": ["", "304402204a91a50e2fe64f8494da64679cccfe973dfc3ebb4309523f1356475ee5662e4d0220009383567cece7a0e9692749b0484c1d4d6446993b5a7fd388a166e178247f5b01", "304402200fac988160b8a3aa844bf94ed1ae888cb9719299fc2dd034497bc20eb3bd777f022064d75ff7b4bde79925843099778e777c1a5f9c92b703f3c7d48b638f52f1578201", "5221023cd7541fb25e64d9268047dfd2813ee9414525d732eed712d1029ea59cfca42d2102346d0fd30f50ba7eeec95ffb709be7555d2c59db46a29a145caaa2538d4e121d21036a5b2f797822d75a2541d66730fd6e86dc8d7c63c921cb788c59a18098a6e38653ae"], "sequence": 4294967295, "scriptSig": {"hex": "220020e20371425882d563411c4ab0182dc7f8400d8f7f09a540fad31df169197fb1c5", "asm": "0020e20371425882d563411c4ab0182dc7f8400d8f7f09a540fad31df169197fb1c5"}, "vout": 0, "txid": "2e93d03941a2b2d398c98eb0bf6fd2de75da00b10984dd4079308fe2287aa5e6"}, {"txinwitness": ["", "3044022052ce9efc531512ec132d30db69c10029abbb09115b01e89e145bf4126528a1fc0220471c150b3369fd16d3c351e7a00200b010c6f8ff9c0d1dacaf5026b06100785701", "3044022000f4a99a4c7bde0c86b35f82c1fa087bba75966242189fdf0345510392530f330220082bcdd9c7c3e7b0b8822528f8a56e7f2faa916984f7a222e8fddb4db7f87bd501", "5221035a154990d78dd8deb4960f5825959a4cea2632a0b2fe20c1b292d04149d679992103531547cfe752c02c4cc38ec994692fbd9bdad8a503cd8b43e1ce8bad2da39b53210301cacd6297fe1de66c92af059adb80fcfa9eff8125c4f2b9290ca5b578c12d4253ae"], "sequence": 4294967295, "scriptSig": {"hex": "220020bd9c72b986ba56f27c7898afcd036b7431ec29a054031337043e54bae6fd3666", "asm": "0020bd9c72b986ba56f27c7898afcd036b7431ec29a054031337043e54bae6fd3666"}, "vout": 0, "txid": "76e5dcecc80ab13af92064fc1ee4c5dc7a864a4b68daaa5effb1de797c3d0544"}], "txid": "845300a06f70b3f4bb7217bb7dda2a9e776a819907992d0b79a6f939617a8b30", "blocktime": 1537871767, "version": 1, "confirmations": 11495, "time": 1537871767, "locktime": 0, "vsize": 909, "size": 2046}