{"hash": "6e6ee2aad943ffdf634661583782012216ace8b9e03278f0a35402022f1ef85e", "blockhash": "000000000000000000022b45ed06c6f4ccd3cf7fb5ba4856ebd2e58215665228", "vout": [{"scriptPubKey": {"reqSigs": 1, "hex": "76a914471a0b2664f131794b0fddf3e0692bee620e23b688ac", "addresses": ["17UxBAA2kZMYRwyd4LBocDdtcRUu9nyg5S"], "asm": "OP_DUP OP_HASH160 471a0b2664f131794b0fddf3e0692bee620e23b6 OP_EQUALVERIFY OP_CHECKSIG", "type": "pubkeyhash"}, "value": 0.006429, "n": 0}, {"scriptPubKey": {"reqSigs": 1, "hex": "a914c26e83ece7f65beff0e252ecd2fd5403e10ca99587", "addresses": ["3KR5QVtQB6sCqdUacdb3vb8QTkauyqsbut"], "asm": "OP_HASH160 c26e83ece7f65beff0e252ecd2fd5403e10ca995 OP_EQUAL", "type": "scripthash"}, "value": 0.1078621, "n": 1}], "hex": "010000000001017c4a31839056856d9f9ab98ff03a9b1b4d51ce050e8d446d8d40ae6bd208d163010000002322002061b7e0679c39feb972a76917fed8b59a2af28b216dde6dcf6b3205156948ce58ffffffff0254cf0900000000001976a914471a0b2664f131794b0fddf3e0692bee620e23b688aca295a4000000000017a914c26e83ece7f65beff0e252ecd2fd5403e10ca99587040047304402204fef6b7f76515961f8fd05c07b60497bda326f7f8e877690e9f8f5832ea5d49402203e76025ac8494fd002c385d90e5ee774b77e626561c2d0a54e70c0e90748c0c101483045022100a59d53eb920b6e38778073d462f0a1f324f79d659d0545ab688f5096139a85d4022051ba0d4b2c05f1f8c7e204e4bd1d27bbd3ebfc44c84ede280aff90916e833411014752210334016f8ee34d545e41a39e49929d1d9d91db6b3d60e6e69635ba210692b768a42102dd2332c0512dee4ea813748993f8056f254166d97719c8c2e4e8f542e54e1af152ae00000000", "vin": [{"txinwitness": ["", "304402204fef6b7f76515961f8fd05c07b60497bda326f7f8e877690e9f8f5832ea5d49402203e76025ac8494fd002c385d90e5ee774b77e626561c2d0a54e70c0e90748c0c101", "3045022100a59d53eb920b6e38778073d462f0a1f324f79d659d0545ab688f5096139a85d4022051ba0d4b2c05f1f8c7e204e4bd1d27bbd3ebfc44c84ede280aff90916e83341101", "52210334016f8ee34d545e41a39e49929d1d9d91db6b3d60e6e69635ba210692b768a42102dd2332c0512dee4ea813748993f8056f254166d97719c8c2e4e8f542e54e1af152ae"], "sequence": 4294967295, "scriptSig": {"hex": "22002061b7e0679c39feb972a76917fed8b59a2af28b216dde6dcf6b3205156948ce58", "asm": "002061b7e0679c39feb972a76917fed8b59a2af28b216dde6dcf6b3205156948ce58"}, "vout": 1, "txid": "63d108d26bae408d6d448d0e05ce514d1b9b3af08fb99a9f6d85569083314a7c"}], "txid": "84573f2528836ea17526e96770c21dbf07880a361ff9590d0fa460faa0bea4d4", "blocktime": 1537869901, "version": 1, "confirmations": 11524, "time": 1537869901, "locktime": 0, "vsize": 208, "size": 373}