{"hash": "6d413ab0abf9e483611d37008e01ab2ff5704dee2d55ab9dd2660f8c6a65621c", "blockhash": "0000000000000000000baef3f32e3676a92c3b2e5da21b426e4f302fc371ce76", "vout": [{"scriptPubKey": {"reqSigs": 1, "hex": "a91492f995f373fa2e9343ca5eddd9794a954ab7c9f587", "addresses": ["3F69a5Ae7udAPqjTeN3AVA8TudhDh3oa2q"], "asm": "OP_HASH160 92f995f373fa2e9343ca5eddd9794a954ab7c9f5 OP_EQUAL", "type": "scripthash"}, "value": 0.00244715, "n": 0}, {"scriptPubKey": {"reqSigs": 1, "hex": "a9140136c10502ae5684e49b302f1af10f145f74b6b787", "addresses": ["31oSC7GvQMTZoouyNLBEHVRDhXEFbVhSmh"], "asm": "OP_HASH160 0136c10502ae5684e49b302f1af10f145f74b6b7 OP_EQUAL", "type": "scripthash"}, "value": 0.04306013, "n": 1}], "hex": "01000000000101da59fe9509bb8f499caf87794499aae054bdf2dfb15dbfea282e2c5103342c4e0100000023220020efd02f10cc1074c68ec89b458572a71ce6bfc8a17595d8fde80232e47279444bffffffff02ebbb03000000000017a91492f995f373fa2e9343ca5eddd9794a954ab7c9f5875db441000000000017a9140136c10502ae5684e49b302f1af10f145f74b6b7870400483045022100e66df9f2729eb67615d74e996832cebaf5cc010daceb40b2178a4c7963edf34f02204e02bb2b548b0d211201c637f9ee69f2b5bd07a0bb0b64ceb27973c640c6572601473044022007aca9347d1fc6d1c6e035e07a5534d7174c09272def0b9c10a80e48050b4c7d02201b81deb309faba4ba3bc8c34651ef7bdd85a30fb70a68d2fcd4681e8703b92ea0147522103f985ea61f461801f3abc09ebed98ce7e20804639a64616f639f492883ea4e8d62103871fc2ca08e6950b38867e8e6a0e94ee625223d3aa0df5c65f414c6d784467e252ae00000000", "vin": [{"txinwitness": ["", "3045022100e66df9f2729eb67615d74e996832cebaf5cc010daceb40b2178a4c7963edf34f02204e02bb2b548b0d211201c637f9ee69f2b5bd07a0bb0b64ceb27973c640c6572601", "3044022007aca9347d1fc6d1c6e035e07a5534d7174c09272def0b9c10a80e48050b4c7d02201b81deb309faba4ba3bc8c34651ef7bdd85a30fb70a68d2fcd4681e8703b92ea01", "522103f985ea61f461801f3abc09ebed98ce7e20804639a64616f639f492883ea4e8d62103871fc2ca08e6950b38867e8e6a0e94ee625223d3aa0df5c65f414c6d784467e252ae"], "sequence": 4294967295, "scriptSig": {"hex": "220020efd02f10cc1074c68ec89b458572a71ce6bfc8a17595d8fde80232e47279444b", "asm": "0020efd02f10cc1074c68ec89b458572a71ce6bfc8a17595d8fde80232e47279444b"}, "vout": 1, "txid": "4e2c3403512c2e28eabf5db1dff2bd54e0aa99447987af9c498fbb0995fe59da"}], "txid": "84652393ef76a7b88891f289c43b1c8e400eedf032cb5653749fecd07fc2536f", "blocktime": 1537876114, "version": 1, "confirmations": 11460, "time": 1537876114, "locktime": 0, "vsize": 206, "size": 371}