{"hash": "84655aa05baa15127d00aeb26328d564260abec53e78b0fb902f93b46ab8682a", "blockhash": "0000000000000000000baef3f32e3676a92c3b2e5da21b426e4f302fc371ce76", "vout": [{"scriptPubKey": {"reqSigs": 1, "hex": "76a914b10bb7d2e32b49a3a99adc89e4fa14c648edcf2188ac", "addresses": ["1H98e95Cm8YN53FanshhUEwKdGoAKMQaY6"], "asm": "OP_DUP OP_HASH160 b10bb7d2e32b49a3a99adc89e4fa14c648edcf21 OP_EQUALVERIFY OP_CHECKSIG", "type": "pubkeyhash"}, "value": 0.11756772, "n": 0}, {"scriptPubKey": {"reqSigs": 1, "hex": "76a9144a0f1e2f2b0d7daeec5265f10bbbbe08ed725e8988ac", "addresses": ["17kb7c9ndg7ioSuzMWEHWECdEVUegNkcGc"], "asm": "OP_DUP OP_HASH160 4a0f1e2f2b0d7daeec5265f10bbbbe08ed725e89 OP_EQUALVERIFY OP_CHECKSIG", "type": "pubkeyhash"}, "value": 0.0470831, "n": 1}], "hex": "01000000019818654a4d096e11bdc2593f8941f1bd5caf575a55d573754d313a345ff45fed000000006b483045022100b35209d24dadd4547bc0df6e7230f19c2de1d2b3986b1809dac2e66510ac1fea0220139a82b6d7eed5ab2e3e5402934489dd00813053f33936122456c6d4e3453e7a01210363e1776495149c5a4e92acf453a3caa19000fc804e4ba2024b600ba25e09c943ffffffff02e464b300000000001976a914b10bb7d2e32b49a3a99adc89e4fa14c648edcf2188acd6d74700000000001976a9144a0f1e2f2b0d7daeec5265f10bbbbe08ed725e8988ac00000000", "vin": [{"sequence": 4294967295, "scriptSig": {"hex": "483045022100b35209d24dadd4547bc0df6e7230f19c2de1d2b3986b1809dac2e66510ac1fea0220139a82b6d7eed5ab2e3e5402934489dd00813053f33936122456c6d4e3453e7a01210363e1776495149c5a4e92acf453a3caa19000fc804e4ba2024b600ba25e09c943", "asm": "3045022100b35209d24dadd4547bc0df6e7230f19c2de1d2b3986b1809dac2e66510ac1fea0220139a82b6d7eed5ab2e3e5402934489dd00813053f33936122456c6d4e3453e7a[ALL] 0363e1776495149c5a4e92acf453a3caa19000fc804e4ba2024b600ba25e09c943"}, "vout": 0, "txid": "ed5ff45f343a314d7573d5555a57af5cbdf141893f59c2bd116e094d4a651898"}], "txid": "84655aa05baa15127d00aeb26328d564260abec53e78b0fb902f93b46ab8682a", "blocktime": 1537876114, "version": 1, "confirmations": 11459, "time": 1537876114, "locktime": 0, "vsize": 226, "size": 226}