{"hash": "847aedc431bbf42e89208a914482253843763b097a6ae7486f88c8c8fb12ab2d", "blockhash": "00000000000000000018f53835495a110e01622372bf6ae95dc86f2b0ab887b0", "vout": [{"scriptPubKey": {"reqSigs": 1, "hex": "76a914cdf7c839cc134c1905ca127094dfceab82ba7d1e88ac", "addresses": ["1Kn4MXiWmMtc7sN8nWvq1qUnUhSFb6vrSa"], "asm": "OP_DUP OP_HASH160 cdf7c839cc134c1905ca127094dfceab82ba7d1e OP_EQUALVERIFY OP_CHECKSIG", "type": "pubkeyhash"}, "value": 0.00094445, "n": 0}, {"scriptPubKey": {"reqSigs": 1, "hex": "76a914de747761438618a9fa321d99f9c9ffd8af3196b988ac", "addresses": ["1MHEXouQDvCKGZ7JoaftkErGynQVQ6Abch"], "asm": "OP_DUP OP_HASH160 de747761438618a9fa321d99f9c9ffd8af3196b9 OP_EQUALVERIFY OP_CHECKSIG", "type": "pubkeyhash"}, "value": 0.00164036, "n": 1}], "hex": "01000000012712fe6c580934228f621e3fe1e9012866f951ff37156a8045b398edae6dc673000000006a473044022033fddc4ab4fd3b9f80ea626ead7af50f54f70fafd587ee64ba9df3965085850002204bbb374cf3f14f07e252fd9b0bdf651b7ad98f958c1abb45f9a768ca770712a70121031c52865f7897d9c02328bb9958f03c953bccf81406b26c2ba598facc3028fbb0ffffffff02ed700100000000001976a914cdf7c839cc134c1905ca127094dfceab82ba7d1e88acc4800200000000001976a914de747761438618a9fa321d99f9c9ffd8af3196b988ac00000000", "vin": [{"sequence": 4294967295, "scriptSig": {"hex": "473044022033fddc4ab4fd3b9f80ea626ead7af50f54f70fafd587ee64ba9df3965085850002204bbb374cf3f14f07e252fd9b0bdf651b7ad98f958c1abb45f9a768ca770712a70121031c52865f7897d9c02328bb9958f03c953bccf81406b26c2ba598facc3028fbb0", "asm": "3044022033fddc4ab4fd3b9f80ea626ead7af50f54f70fafd587ee64ba9df3965085850002204bbb374cf3f14f07e252fd9b0bdf651b7ad98f958c1abb45f9a768ca770712a7[ALL] 031c52865f7897d9c02328bb9958f03c953bccf81406b26c2ba598facc3028fbb0"}, "vout": 0, "txid": "73c66daeed98b345806a1537ff51f9662801e9e13f1e628f223409586cfe1227"}], "txid": "847aedc431bbf42e89208a914482253843763b097a6ae7486f88c8c8fb12ab2d", "blocktime": 1537870928, "version": 1, "confirmations": 11512, "time": 1537870928, "locktime": 0, "vsize": 225, "size": 225}