{"hash": "847c2e1fc791eb4b779b68056f9aed06eca70fe40f757a35f202d37631fa54d0", "blockhash": "0000000000000000001f76057863aec43deb6fa401d9628bb513d65a8098bfab", "vout": [{"scriptPubKey": {"reqSigs": 1, "hex": "76a914eca0b9ae31435bc36be5d921f6d99e43d0526c3488ac", "addresses": ["1NaB1fRwvCfDd8buJsERgsmxEF4oqrJb3n"], "asm": "OP_DUP OP_HASH160 eca0b9ae31435bc36be5d921f6d99e43d0526c34 OP_EQUALVERIFY OP_CHECKSIG", "type": "pubkeyhash"}, "value": 0.00228018, "n": 0}, {"scriptPubKey": {"reqSigs": 1, "hex": "76a91482765701d4eaf862762834bc4749b9eeddd377fe88ac", "addresses": ["1CtpcLWcSxHcWUB9opdgaQe6DwdYVom9bK"], "asm": "OP_DUP OP_HASH160 82765701d4eaf862762834bc4749b9eeddd377fe OP_EQUALVERIFY OP_CHECKSIG", "type": "pubkeyhash"}, "value": 0.0031232, "n": 1}], "hex": "0100000001970cd56b6d0426e521f40e3fe35c664d96cbc637ea902ccea6a0544be6fe15e7000000006b483045022100e20fb3558b8131663747ec7d9226716a2c3de27c115ee7d93dfb7499703755bb0220293f3ff31737d0a4a18de43932674c05fc72b850e1752db6f8f62b0a0621befc01210388db32ecf868c07a05b1ed4e183f601c3262f442d27eb1419272bc951ee5a0cfffffffff02b27a0300000000001976a914eca0b9ae31435bc36be5d921f6d99e43d0526c3488ac00c40400000000001976a91482765701d4eaf862762834bc4749b9eeddd377fe88ac00000000", "vin": [{"sequence": 4294967295, "scriptSig": {"hex": "483045022100e20fb3558b8131663747ec7d9226716a2c3de27c115ee7d93dfb7499703755bb0220293f3ff31737d0a4a18de43932674c05fc72b850e1752db6f8f62b0a0621befc01210388db32ecf868c07a05b1ed4e183f601c3262f442d27eb1419272bc951ee5a0cf", "asm": "3045022100e20fb3558b8131663747ec7d9226716a2c3de27c115ee7d93dfb7499703755bb0220293f3ff31737d0a4a18de43932674c05fc72b850e1752db6f8f62b0a0621befc[ALL] 0388db32ecf868c07a05b1ed4e183f601c3262f442d27eb1419272bc951ee5a0cf"}, "vout": 0, "txid": "e715fee64b54a0a6ce2c90ea37c6cb964d665ce33f0ef421e526046d6bd50c97"}], "txid": "847c2e1fc791eb4b779b68056f9aed06eca70fe40f757a35f202d37631fa54d0", "blocktime": 1537873891, "version": 1, "confirmations": 11478, "time": 1537873891, "locktime": 0, "vsize": 226, "size": 226}