{"hash": "0ad5a83c7ab84932798039f5cec1708e2b5599811cdf09faab48a1da8469589f", "blockhash": "0000000000000000001cda96e906b7601b7a6fb1a3b62bca570a9e5d8f4b3de1", "vout": [{"scriptPubKey": {"reqSigs": 1, "hex": "0014096892f70241c7638ba2892075b7730d1f28caaf", "addresses": ["bc1qp95f9aczg8rk8zaz3ys8tdmnp50j3j40cpl838"], "asm": "0 096892f70241c7638ba2892075b7730d1f28caaf", "type": "witness_v0_keyhash"}, "value": 0.03776787, "n": 0}, {"scriptPubKey": {"reqSigs": 1, "hex": "a914ae133a5b3fe1ac3004a3b99de00d73476f4c17c487", "addresses": ["3HZSXuPDNhY2ivRR2AJBhx1RHs3R4s182m"], "asm": "OP_HASH160 ae133a5b3fe1ac3004a3b99de00d73476f4c17c4 OP_EQUAL", "type": "scripthash"}, "value": 0.03883042, "n": 1}], "hex": "010000000001014dd921c3a86bb39750f3d0fb75c21328d2ed83dc48da0b5c4ba3d9739296a8100000000000ffffffff0213a1390000000000160014096892f70241c7638ba2892075b7730d1f28caaf22403b000000000017a914ae133a5b3fe1ac3004a3b99de00d73476f4c17c4870247304402201cbdd4e975ecc98346061a3fa99168e798819d0946042765df2690c0623b73c402200f27eef04499c7bc76b16eff12437ef394c594342c56ec40eadfc9347354eaa4012102cd9c8ef174473d66fbeb4cb8dcff5b4fd5cc8f4d74812b2146e324853f1ae40200000000", "vin": [{"txinwitness": ["304402201cbdd4e975ecc98346061a3fa99168e798819d0946042765df2690c0623b73c402200f27eef04499c7bc76b16eff12437ef394c594342c56ec40eadfc9347354eaa401", "02cd9c8ef174473d66fbeb4cb8dcff5b4fd5cc8f4d74812b2146e324853f1ae402"], "sequence": 4294967295, "scriptSig": {"hex": "", "asm": ""}, "vout": 0, "txid": "10a8969273d9a34b5c0bda48dc83edd22813c275fbd0f35097b36ba8c321d94d"}], "txid": "847c316aa80c74ac40eae46e4742849f0daf4f10b0c273f33764a78b2e5a67f8", "blocktime": 1537873282, "version": 1, "confirmations": 11484, "time": 1537873282, "locktime": 0, "vsize": 142, "size": 223}