{"hash": "f8a29a0a9f2808eae49be7ff71e911881a1869db10e768b19884d0940a5f81f2", "blockhash": "0000000000000000001cda96e906b7601b7a6fb1a3b62bca570a9e5d8f4b3de1", "vout": [{"scriptPubKey": {"reqSigs": 1, "hex": "76a9147c2f6635b5e6598d10a73f802f876483ebb0ed9f88ac", "addresses": ["1CKda9R5aYUmJufhS5F9X18jng7pKxrfNJ"], "asm": "OP_DUP OP_HASH160 7c2f6635b5e6598d10a73f802f876483ebb0ed9f OP_EQUALVERIFY OP_CHECKSIG", "type": "pubkeyhash"}, "value": 0.0008712, "n": 0}, {"scriptPubKey": {"reqSigs": 1, "hex": "a914bfe3b9b006bd60d821de4768216fbcf3cb0629a487", "addresses": ["3KBdnpNRSUC6xH7oL58GWg3f1QzPQs9FWq"], "asm": "OP_HASH160 bfe3b9b006bd60d821de4768216fbcf3cb0629a4 OP_EQUAL", "type": "scripthash"}, "value": 0.01071953, "n": 1}], "hex": "0100000000010266c93fed0e31acf64f4d33d816b31acaca978cbd10289cdd0ce5f7ecd13997d60100000023220020c39d86306dbd54dc85e666ec19b6eadac2eca3f3512ba18580492016e49d5f13ffffffff9fe65b992d741a12a19a6088f6ee107ccd35103483c49d97e83ecb9cb1f7c6e401000000232200204ac72bc93353695ed44de9eabe5eab31fde46c3e5524f6f6c253b37df4627817ffffffff0250540100000000001976a9147c2f6635b5e6598d10a73f802f876483ebb0ed9f88ac515b10000000000017a914bfe3b9b006bd60d821de4768216fbcf3cb0629a487040047304402203efeec92d471bca953e58a3e6d6f699b7522d15fe9c92b452efec0e1c1e7dd1c022077a8c7dc6ba8974f4fa60dd609ed0dbad429656d739e902808a31973c19bc397014730440220732dd6f7ddf6559a3405550b2eacb2c73251fd93b1eec408d11fb580f7549d15022022a667597968eb24b824d561d64bdb4bf8cb83c7a37cb41790950d86db036d5001475221020319b262fe02e14ab54771039bbbf0877a20b9b83bb305c8722accaff4e4767d2103871fc2ca08e6950b38867e8e6a0e94ee625223d3aa0df5c65f414c6d784467e252ae040047304402200392b0f0c7d5a0f18598ac51a0e1ef59600cad82662e6d2c19f72fdddb0eb836022033fa9108841c81a26395a072a6430299b77c8e12d54fcbc0ca66bcee167a4b3e01473044022027dd7e63d547d337f5891859b72eaf1c40645744419d5a3662d67d35a3e15e93022073f6469be27610f9af0ae75b72accf8631e2a9db14258a18462b02cfa07ccf7d014752210383dd989bbcdccf0b79b07f5bbd82921af5ac4762329b0aa9346994805e5cd8fc2103871fc2ca08e6950b38867e8e6a0e94ee625223d3aa0df5c65f414c6d784467e252ae00000000", "vin": [{"txinwitness": ["", "304402203efeec92d471bca953e58a3e6d6f699b7522d15fe9c92b452efec0e1c1e7dd1c022077a8c7dc6ba8974f4fa60dd609ed0dbad429656d739e902808a31973c19bc39701", "30440220732dd6f7ddf6559a3405550b2eacb2c73251fd93b1eec408d11fb580f7549d15022022a667597968eb24b824d561d64bdb4bf8cb83c7a37cb41790950d86db036d5001", "5221020319b262fe02e14ab54771039bbbf0877a20b9b83bb305c8722accaff4e4767d2103871fc2ca08e6950b38867e8e6a0e94ee625223d3aa0df5c65f414c6d784467e252ae"], "sequence": 4294967295, "scriptSig": {"hex": "220020c39d86306dbd54dc85e666ec19b6eadac2eca3f3512ba18580492016e49d5f13", "asm": "0020c39d86306dbd54dc85e666ec19b6eadac2eca3f3512ba18580492016e49d5f13"}, "vout": 1, "txid": "d69739d1ecf7e50cdd9c2810bd8c97caca1ab316d8334d4ff6ac310eed3fc966"}, {"txinwitness": ["", "304402200392b0f0c7d5a0f18598ac51a0e1ef59600cad82662e6d2c19f72fdddb0eb836022033fa9108841c81a26395a072a6430299b77c8e12d54fcbc0ca66bcee167a4b3e01", "3044022027dd7e63d547d337f5891859b72eaf1c40645744419d5a3662d67d35a3e15e93022073f6469be27610f9af0ae75b72accf8631e2a9db14258a18462b02cfa07ccf7d01", "52210383dd989bbcdccf0b79b07f5bbd82921af5ac4762329b0aa9346994805e5cd8fc2103871fc2ca08e6950b38867e8e6a0e94ee625223d3aa0df5c65f414c6d784467e252ae"], "sequence": 4294967295, "scriptSig": {"hex": "2200204ac72bc93353695ed44de9eabe5eab31fde46c3e5524f6f6c253b37df4627817", "asm": "00204ac72bc93353695ed44de9eabe5eab31fde46c3e5524f6f6c253b37df4627817"}, "vout": 1, "txid": "e4c6f7b19ccb3ee8979dc483341035cd7c10eef688609aa1121a742d995be69f"}], "txid": "8481d05a9f711910dc03df630eb836ff2996b3f72c13e7659e31585de2f7686a", "blocktime": 1537873282, "version": 1, "confirmations": 11484, "time": 1537873282, "locktime": 0, "vsize": 338, "size": 666}