{"hash": "8482c6806c22a8fc73c20091fb7ab25d0c29a8304b6a89d4cdb0fb641f515260", "blockhash": "0000000000000000001f76057863aec43deb6fa401d9628bb513d65a8098bfab", "vout": [{"scriptPubKey": {"type": "nulldata", "hex": "6a4c50000077e6000161dc3a54468767839737f9e07af8e8e963c7cfd5b95b23cc0f42c2fc38c57f206ed8c891b25601c22469470d78a35baa175506124534b1881665c288b2720c27cdda35b5f050e1b42260", "asm": "OP_RETURN 000077e6000161dc3a54468767839737f9e07af8e8e963c7cfd5b95b23cc0f42c2fc38c57f206ed8c891b25601c22469470d78a35baa175506124534b1881665c288b2720c27cdda35b5f050e1b42260"}, "value": 0.0, "n": 0}, {"scriptPubKey": {"reqSigs": 1, "hex": "76a9146f9c0651b9f7e63af91482efb82c63576531751d88ac", "addresses": ["1BB8v5YSLb8yC9FK514iV6hpguz5jAotni"], "asm": "OP_DUP OP_HASH160 6f9c0651b9f7e63af91482efb82c63576531751d OP_EQUALVERIFY OP_CHECKSIG", "type": "pubkeyhash"}, "value": 0.0005205, "n": 1}], "hex": "0100000001c52b214f846ee6ec778680eabc19d94e73cb249976c5f612ec27ed309538a9d9000000006b483045022100d97f2e5bee8cd8845c0d82fef1af37416b8f90da60618f20cae08a21b544d7d5022020b6d2a1a97d4dc86f6f5fcb99f7fb1bb892567e6fb32aad3df512bd7ccf20e9012103e98f8bf6306a68c3a23515455a921a1360f6c9ce46345dc1f00b71f30c4e0ea2ffffffff020000000000000000536a4c50000077e6000161dc3a54468767839737f9e07af8e8e963c7cfd5b95b23cc0f42c2fc38c57f206ed8c891b25601c22469470d78a35baa175506124534b1881665c288b2720c27cdda35b5f050e1b4226052cb0000000000001976a9146f9c0651b9f7e63af91482efb82c63576531751d88ac00000000", "vin": [{"sequence": 4294967295, "scriptSig": {"hex": "483045022100d97f2e5bee8cd8845c0d82fef1af37416b8f90da60618f20cae08a21b544d7d5022020b6d2a1a97d4dc86f6f5fcb99f7fb1bb892567e6fb32aad3df512bd7ccf20e9012103e98f8bf6306a68c3a23515455a921a1360f6c9ce46345dc1f00b71f30c4e0ea2", "asm": "3045022100d97f2e5bee8cd8845c0d82fef1af37416b8f90da60618f20cae08a21b544d7d5022020b6d2a1a97d4dc86f6f5fcb99f7fb1bb892567e6fb32aad3df512bd7ccf20e9[ALL] 03e98f8bf6306a68c3a23515455a921a1360f6c9ce46345dc1f00b71f30c4e0ea2"}, "vout": 0, "txid": "d9a9389530ed27ec12f6c5769924cb734ed919bcea808677ece66e844f212bc5"}], "txid": "8482c6806c22a8fc73c20091fb7ab25d0c29a8304b6a89d4cdb0fb641f515260", "blocktime": 1537873891, "version": 1, "confirmations": 11476, "time": 1537873891, "locktime": 0, "vsize": 284, "size": 284}