{"hash": "8485bb0850f148edd1775efa88e90c2f16bc83ffd28a5f7725bad48ec2d3700a", "blockhash": "000000000000000000022b45ed06c6f4ccd3cf7fb5ba4856ebd2e58215665228", "vout": [{"scriptPubKey": {"reqSigs": 1, "hex": "76a914288190fbae4978eef1a0d87dc024992c0c26293188ac", "addresses": ["14hBF6pdpTGTskJAzEW2NmvgXT5nGqJGKd"], "asm": "OP_DUP OP_HASH160 288190fbae4978eef1a0d87dc024992c0c262931 OP_EQUALVERIFY OP_CHECKSIG", "type": "pubkeyhash"}, "value": 0.00997254, "n": 0}, {"scriptPubKey": {"reqSigs": 1, "hex": "76a9142c68b57be741e819943af49057c695bc77a0130f88ac", "addresses": ["153pAk9jK2uriXbQwfJwetgUrMi19j4SN7"], "asm": "OP_DUP OP_HASH160 2c68b57be741e819943af49057c695bc77a0130f OP_EQUALVERIFY OP_CHECKSIG", "type": "pubkeyhash"}, "value": 0.00957565, "n": 1}, {"scriptPubKey": {"reqSigs": 1, "hex": "76a914ced235a97d98d9ebb12fe768506e43d5cbb10ad488ac", "addresses": ["1Kra28y26D9GredmhMuteVMCvnavnCobjC"], "asm": "OP_DUP OP_HASH160 ced235a97d98d9ebb12fe768506e43d5cbb10ad4 OP_EQUALVERIFY OP_CHECKSIG", "type": "pubkeyhash"}, "value": 0.00996523, "n": 2}, {"scriptPubKey": {"reqSigs": 1, "hex": "76a9145dde9644368e2b9c538568d9ec230d4e16b4cebb88ac", "addresses": ["19ZLVTNKspfoQ8wRpTFLsNoBw5MkRJLBGZ"], "asm": "OP_DUP OP_HASH160 5dde9644368e2b9c538568d9ec230d4e16b4cebb OP_EQUALVERIFY OP_CHECKSIG", "type": "pubkeyhash"}, "value": 0.0178534, "n": 3}, {"scriptPubKey": {"reqSigs": 1, "hex": "76a9146d2f5f7ddc60e3b52a4229212868d5a3c0714b1988ac", "addresses": ["1AxKQSmTMSzq7e2W741V6tA3i7JeUD7apW"], "asm": "OP_DUP OP_HASH160 6d2f5f7ddc60e3b52a4229212868d5a3c0714b19 OP_EQUALVERIFY OP_CHECKSIG", "type": "pubkeyhash"}, "value": 0.01196605, "n": 4}, {"scriptPubKey": {"reqSigs": 1, "hex": "76a91487f87cb8db10ca115afcdc7e7c3cb60f98507b9788ac", "addresses": ["1DPwu6EEeTZGNR6vBpS6bBEkv6KAPukRvS"], "asm": "OP_DUP OP_HASH160 87f87cb8db10ca115afcdc7e7c3cb60f98507b97 OP_EQUALVERIFY OP_CHECKSIG", "type": "pubkeyhash"}, "value": 0.02393389, "n": 5}], "hex": "0200000004ffeebb9cb147fc181d59ea39b25f771ef322ae8a419ca85d575e309b5b2c4b88000000006b48304502210093ee839a9e6c219facf50086b4b73232ae02f067ffc3938e0020ed204eed918b02203e3b5b468438de3ca03734d847ca0780c850fe57876e70ab132109266e0a2fdb0121034e13a5c56b0b5fa9d7a524091ec123552e59bdbe90a0543329863d265c36c151feffffff1c61e98bcc836cce12586b5d6e0f6df0be603544c0ca3bb6b6137f6f4b738b32000000006a47304402200b0ce458ffd61fefa23ce5a03c6447945d30374c236141037981416b9b39dacf02203806f65b0153a40853b119bc4b12b19c5e80df33a3c905639d08a512c2072b59012102557edb451d40b9be9251c28d4511e5a8a45da1325707f641a10e270eb04ce0cafeffffff6afa654908859435ef60dabac123844bdfba72a8d65b1b4916bb2edb30b4be07010000006a47304402206e19520bc56c07adf7d21920325cad5c057bf864bcb40ddad7646f1991063f8d02200d571f8120b89226609ff8ce373689134a928b695af909776475d76d8e62f392012103405c8601ca60746ab516373636b20e76b477406fefec9949fb20d15b86b1e928feffffff817ad134a793e50e6510f93b3a1e77615a231685522d9232274379290dcaacfe000000006b483045022100967165aa841052404fd3b198e39c8cdf611a04d9295872240518ec844e67a403022052eb95bed6c5bde2386b549e0c8d7222218b69f2d5669c9350dbdc6415f31c98012103e47c8d62b21f5a9232bd9f8e2f5b793ce046f5bdc462a8fd932a54daae8a83e4feffffff0686370f00000000001976a914288190fbae4978eef1a0d87dc024992c0c26293188ac7d9c0e00000000001976a9142c68b57be741e819943af49057c695bc77a0130f88acab340f00000000001976a914ced235a97d98d9ebb12fe768506e43d5cbb10ad488acfc3d1b00000000001976a9145dde9644368e2b9c538568d9ec230d4e16b4cebb88ac3d421200000000001976a9146d2f5f7ddc60e3b52a4229212868d5a3c0714b1988ac2d852400000000001976a91487f87cb8db10ca115afcdc7e7c3cb60f98507b9788ac00000000", "vin": [{"sequence": 4294967294, "scriptSig": {"hex": "48304502210093ee839a9e6c219facf50086b4b73232ae02f067ffc3938e0020ed204eed918b02203e3b5b468438de3ca03734d847ca0780c850fe57876e70ab132109266e0a2fdb0121034e13a5c56b0b5fa9d7a524091ec123552e59bdbe90a0543329863d265c36c151", "asm": "304502210093ee839a9e6c219facf50086b4b73232ae02f067ffc3938e0020ed204eed918b02203e3b5b468438de3ca03734d847ca0780c850fe57876e70ab132109266e0a2fdb[ALL] 034e13a5c56b0b5fa9d7a524091ec123552e59bdbe90a0543329863d265c36c151"}, "vout": 0, "txid": "884b2c5b9b305e575da89c418aae22f31e775fb239ea591d18fc47b19cbbeeff"}, {"sequence": 4294967294, "scriptSig": {"hex": "47304402200b0ce458ffd61fefa23ce5a03c6447945d30374c236141037981416b9b39dacf02203806f65b0153a40853b119bc4b12b19c5e80df33a3c905639d08a512c2072b59012102557edb451d40b9be9251c28d4511e5a8a45da1325707f641a10e270eb04ce0ca", "asm": "304402200b0ce458ffd61fefa23ce5a03c6447945d30374c236141037981416b9b39dacf02203806f65b0153a40853b119bc4b12b19c5e80df33a3c905639d08a512c2072b59[ALL] 02557edb451d40b9be9251c28d4511e5a8a45da1325707f641a10e270eb04ce0ca"}, "vout": 0, "txid": "328b734b6f7f13b6b63bcac0443560bef06d0f6e5d6b5812ce6c83cc8be9611c"}, {"sequence": 4294967294, "scriptSig": {"hex": "47304402206e19520bc56c07adf7d21920325cad5c057bf864bcb40ddad7646f1991063f8d02200d571f8120b89226609ff8ce373689134a928b695af909776475d76d8e62f392012103405c8601ca60746ab516373636b20e76b477406fefec9949fb20d15b86b1e928", "asm": "304402206e19520bc56c07adf7d21920325cad5c057bf864bcb40ddad7646f1991063f8d02200d571f8120b89226609ff8ce373689134a928b695af909776475d76d8e62f392[ALL] 03405c8601ca60746ab516373636b20e76b477406fefec9949fb20d15b86b1e928"}, "vout": 1, "txid": "07beb430db2ebb16491b5bd6a872badf4b8423c1bada60ef359485084965fa6a"}, {"sequence": 4294967294, "scriptSig": {"hex": "483045022100967165aa841052404fd3b198e39c8cdf611a04d9295872240518ec844e67a403022052eb95bed6c5bde2386b549e0c8d7222218b69f2d5669c9350dbdc6415f31c98012103e47c8d62b21f5a9232bd9f8e2f5b793ce046f5bdc462a8fd932a54daae8a83e4", "asm": "3045022100967165aa841052404fd3b198e39c8cdf611a04d9295872240518ec844e67a403022052eb95bed6c5bde2386b549e0c8d7222218b69f2d5669c9350dbdc6415f31c98[ALL] 03e47c8d62b21f5a9232bd9f8e2f5b793ce046f5bdc462a8fd932a54daae8a83e4"}, "vout": 0, "txid": "feacca0d2979432732922d528516235a61771e3a3bf910650ee593a734d17a81"}], "txid": "8485bb0850f148edd1775efa88e90c2f16bc83ffd28a5f7725bad48ec2d3700a", "blocktime": 1537869901, "version": 2, "confirmations": 11522, "time": 1537869901, "locktime": 0, "vsize": 804, "size": 804}