{"hash": "848c86bfa4442548409f46961d214e6146c85af5d4451afc439188ef97bcc5ee", "blockhash": "0000000000000000001e0dab787dd257d1dbfcb92a98c2207d5e1078be1f4165", "vout": [{"scriptPubKey": {"reqSigs": 1, "hex": "a914fe8cb4928263825cc770e169f24c358beaa47a9b87", "addresses": ["3Qtx7eZtKPLQs4X3eoruEpTHW9xsPSqThj"], "asm": "OP_HASH160 fe8cb4928263825cc770e169f24c358beaa47a9b OP_EQUAL", "type": "scripthash"}, "value": 0.008309, "n": 0}, {"scriptPubKey": {"reqSigs": 1, "hex": "76a914a98bab423bbaabe29ea58cadc2442366dfcb720b88ac", "addresses": ["1GTUWnq6JqaWM2CTh38cMM6EXme1VpPeme"], "asm": "OP_DUP OP_HASH160 a98bab423bbaabe29ea58cadc2442366dfcb720b OP_EQUALVERIFY OP_CHECKSIG", "type": "pubkeyhash"}, "value": 0.0006949, "n": 1}], "hex": "0100000001be4a9107cd1ca00b8938270070fb60f749c50bf3b5373ec3b6aa42d20ede4a13000000006a4730440220381c888e369ba0664d90a4fb3fee7d6d7ad5bf2148649794d969534b45b71d0602203b19af7e9ff23c85d75aea8e382ed5af8b9af9d7b5704d290e2d8c16c61ea27b0121038507b260a5598a9cea3b52821a5c122b946813e85e2a560b836741e36c925f29ffffffff02b4ad0c000000000017a914fe8cb4928263825cc770e169f24c358beaa47a9b87720f0100000000001976a914a98bab423bbaabe29ea58cadc2442366dfcb720b88ac00000000", "vin": [{"sequence": 4294967295, "scriptSig": {"hex": "4730440220381c888e369ba0664d90a4fb3fee7d6d7ad5bf2148649794d969534b45b71d0602203b19af7e9ff23c85d75aea8e382ed5af8b9af9d7b5704d290e2d8c16c61ea27b0121038507b260a5598a9cea3b52821a5c122b946813e85e2a560b836741e36c925f29", "asm": "30440220381c888e369ba0664d90a4fb3fee7d6d7ad5bf2148649794d969534b45b71d0602203b19af7e9ff23c85d75aea8e382ed5af8b9af9d7b5704d290e2d8c16c61ea27b[ALL] 038507b260a5598a9cea3b52821a5c122b946813e85e2a560b836741e36c925f29"}, "vout": 0, "txid": "134ade0ed242aab6c33e37b5f30bc549f760fb70002738890ba01ccd07914abe"}], "txid": "848c86bfa4442548409f46961d214e6146c85af5d4451afc439188ef97bcc5ee", "blocktime": 1537872475, "version": 1, "confirmations": 11486, "time": 1537872475, "locktime": 0, "vsize": 223, "size": 223}