{"hash": "848e696dd51f2a3220e9f3bc71b6dddd7ca2ba6cdd666eba86f41bc1bb57e206", "blockhash": "0000000000000000001cda96e906b7601b7a6fb1a3b62bca570a9e5d8f4b3de1", "vout": [{"scriptPubKey": {"reqSigs": 1, "hex": "a914475bb5dcfe3b342f8fc187a99886b41c1587ad9587", "addresses": ["38CKmKBPMum9ve2tsU7KHX3GULTrTf1ctq"], "asm": "OP_HASH160 475bb5dcfe3b342f8fc187a99886b41c1587ad95 OP_EQUAL", "type": "scripthash"}, "value": 0.0025, "n": 0}, {"scriptPubKey": {"reqSigs": 1, "hex": "76a9145d1f41ac5d68a6798cb7b64e83a4b09db4fe28a988ac", "addresses": ["19VPHanMHCCnDH4kQjX4eDBLQpS5nckcip"], "asm": "OP_DUP OP_HASH160 5d1f41ac5d68a6798cb7b64e83a4b09db4fe28a9 OP_EQUALVERIFY OP_CHECKSIG", "type": "pubkeyhash"}, "value": 0.02512101, "n": 1}], "hex": "01000000014f257179091cee82e92c5b8e3196b1a539658781e2642dd5731b3bacf9434361010000006b483045022100d02290754961b577643a3b2025cc3c527abfb329fe8fb685df5ea9c5f78f5e9402200373f2fff643aae24935037b368dc5b81837e55a76368e8f25aa4cf15cbced8a01210309a7bf07900998e2e8049048c1ecb4317ffe37ca38fd88b6fbcff10456de7e93fdffffff0290d003000000000017a914475bb5dcfe3b342f8fc187a99886b41c1587ad9587e5542600000000001976a9145d1f41ac5d68a6798cb7b64e83a4b09db4fe28a988ac13490800", "vin": [{"sequence": 4294967293, "scriptSig": {"hex": "483045022100d02290754961b577643a3b2025cc3c527abfb329fe8fb685df5ea9c5f78f5e9402200373f2fff643aae24935037b368dc5b81837e55a76368e8f25aa4cf15cbced8a01210309a7bf07900998e2e8049048c1ecb4317ffe37ca38fd88b6fbcff10456de7e93", "asm": "3045022100d02290754961b577643a3b2025cc3c527abfb329fe8fb685df5ea9c5f78f5e9402200373f2fff643aae24935037b368dc5b81837e55a76368e8f25aa4cf15cbced8a[ALL] 0309a7bf07900998e2e8049048c1ecb4317ffe37ca38fd88b6fbcff10456de7e93"}, "vout": 1, "txid": "614343f9ac3b1b73d52d64e281876539a5b196318e5b2ce982ee1c097971254f"}], "txid": "848e696dd51f2a3220e9f3bc71b6dddd7ca2ba6cdd666eba86f41bc1bb57e206", "blocktime": 1537873282, "version": 1, "confirmations": 11484, "time": 1537873282, "locktime": 542995, "vsize": 224, "size": 224}