{"hash": "849c83120940637efc1e1c0526c0d9adf183b9976f745fea86bbf4250beae1e5", "blockhash": "0000000000000000001cda96e906b7601b7a6fb1a3b62bca570a9e5d8f4b3de1", "vout": [{"scriptPubKey": {"reqSigs": 1, "hex": "76a914d7e2e326312e50fcc2e69a8440967db3ad922c8388ac", "addresses": ["1LgW5egKHoBP8UDzca4TYmrMg2bkiPFz6K"], "asm": "OP_DUP OP_HASH160 d7e2e326312e50fcc2e69a8440967db3ad922c83 OP_EQUALVERIFY OP_CHECKSIG", "type": "pubkeyhash"}, "value": 0.07896232, "n": 0}, {"scriptPubKey": {"reqSigs": 1, "hex": "a9142e2741140519b8266cefdef34c06466c672d6bcb87", "addresses": ["35u42oG4v4kK4KXHEuMaciXqEQ4mSaew9J"], "asm": "OP_HASH160 2e2741140519b8266cefdef34c06466c672d6bcb OP_EQUAL", "type": "scripthash"}, "value": 0.19795595, "n": 1}], "hex": "01000000025974d16fed7dae0dea97d3f8c9db08bf5f4589f353e4e19a97cc60cad1fbfc5f010000006b483045022100e7e07ff86805845b54590f6a761c89be6ea23f473619416b7d83b1b7a9ccb4ae0220294dd1e81312cb9db990400dab78d29da3e7ec6107f44f87908bee22b02d669a0121039599735fff333c6d0b81f106cb612032dbc1889fd3e681456ab5149ed22789e9ffffffff044034a4ee864e9f6cd8b6e8620fea098aff99cc7b6dd7b418a786387443f26a000000006a4730440220509e8875e9c0518b75143ea5363c3744b6a1964a8d5059094a50d2307208700102206fb47b70bfcb482ec27d3541bbcacde3cc05510ca6e8633bf80eb1663ea1e1ac0121033ca4ad4eefe1496570291b925aef1e71af1eb73fd87d7ef96f54e3317453d26cffffffff02a87c7800000000001976a914d7e2e326312e50fcc2e69a8440967db3ad922c8388ac8b0e2e010000000017a9142e2741140519b8266cefdef34c06466c672d6bcb8700000000", "vin": [{"sequence": 4294967295, "scriptSig": {"hex": "483045022100e7e07ff86805845b54590f6a761c89be6ea23f473619416b7d83b1b7a9ccb4ae0220294dd1e81312cb9db990400dab78d29da3e7ec6107f44f87908bee22b02d669a0121039599735fff333c6d0b81f106cb612032dbc1889fd3e681456ab5149ed22789e9", "asm": "3045022100e7e07ff86805845b54590f6a761c89be6ea23f473619416b7d83b1b7a9ccb4ae0220294dd1e81312cb9db990400dab78d29da3e7ec6107f44f87908bee22b02d669a[ALL] 039599735fff333c6d0b81f106cb612032dbc1889fd3e681456ab5149ed22789e9"}, "vout": 1, "txid": "5ffcfbd1ca60cc979ae1e453f389455fbf08dbc9f8d397ea0dae7ded6fd17459"}, {"sequence": 4294967295, "scriptSig": {"hex": "4730440220509e8875e9c0518b75143ea5363c3744b6a1964a8d5059094a50d2307208700102206fb47b70bfcb482ec27d3541bbcacde3cc05510ca6e8633bf80eb1663ea1e1ac0121033ca4ad4eefe1496570291b925aef1e71af1eb73fd87d7ef96f54e3317453d26c", "asm": "30440220509e8875e9c0518b75143ea5363c3744b6a1964a8d5059094a50d2307208700102206fb47b70bfcb482ec27d3541bbcacde3cc05510ca6e8633bf80eb1663ea1e1ac[ALL] 033ca4ad4eefe1496570291b925aef1e71af1eb73fd87d7ef96f54e3317453d26c"}, "vout": 0, "txid": "6af243743886a718b4d76d7bcc99ff8a09ea0f62e8b6d86c9f4e86eea4344004"}], "txid": "849c83120940637efc1e1c0526c0d9adf183b9976f745fea86bbf4250beae1e5", "blocktime": 1537873282, "version": 1, "confirmations": 11484, "time": 1537873282, "locktime": 0, "vsize": 371, "size": 371}