{"hash": "1cd503ac3102f52195532359ebcde5a40875af83bd246401433e59d2e626aa4d", "blockhash": "00000000000000000017f5eb5941039fbcee6240d03bc1f2f8e35350df66a1d8", "vout": [{"scriptPubKey": {"reqSigs": 1, "hex": "001448bfe0986a81f70c2e66ede4066edc867029b90a", "addresses": ["bc1qfzl7pxr2s8msctnxahjqvmkusecznwg2w5zv5f"], "asm": "0 48bfe0986a81f70c2e66ede4066edc867029b90a", "type": "witness_v0_keyhash"}, "value": 0.00102073, "n": 0}, {"scriptPubKey": {"reqSigs": 1, "hex": "a914bd38cb58371d0b69971332f87f9a688bc54760e787", "addresses": ["3JwXfwMGcKLL2deG8eRHeV666bm7fECHkX"], "asm": "OP_HASH160 bd38cb58371d0b69971332f87f9a688bc54760e7 OP_EQUAL", "type": "scripthash"}, "value": 0.03071183, "n": 1}], "hex": "010000000001014050f5395125d589380846c47d0f2409667893cf4bb2ea3d3b52c0ad873cc0ea0000000017160014fb37bf2633fd0e09054304770d60df0c3aca9c76ffffffff02b98e01000000000016001448bfe0986a81f70c2e66ede4066edc867029b90acfdc2e000000000017a914bd38cb58371d0b69971332f87f9a688bc54760e78702483045022100da17aabc24e624c24977bb1ab73c7e0846d9ae865660426b70084a2e8d3690a6022030cb1a9941c971cee96b87ad7fc7fbbae47588770d1097f2b7729ab0c6550c64012102da1c2f4eebccd7138d238a34a8c0362a13808d8535ba1829394226be6b5a400500000000", "vin": [{"txinwitness": ["3045022100da17aabc24e624c24977bb1ab73c7e0846d9ae865660426b70084a2e8d3690a6022030cb1a9941c971cee96b87ad7fc7fbbae47588770d1097f2b7729ab0c6550c6401", "02da1c2f4eebccd7138d238a34a8c0362a13808d8535ba1829394226be6b5a4005"], "sequence": 4294967295, "scriptSig": {"hex": "160014fb37bf2633fd0e09054304770d60df0c3aca9c76", "asm": "0014fb37bf2633fd0e09054304770d60df0c3aca9c76"}, "vout": 0, "txid": "eac03c87adc0523b3deab24bcf93786609240f7dc446083889d5255139f55040"}], "txid": "849c482dd975449acd6485612acae519c17add350aa53be4b27d802ed5f8c89f", "blocktime": 1537874412, "version": 1, "confirmations": 11468, "time": 1537874412, "locktime": 0, "vsize": 165, "size": 247}