{"hash": "849f6cbe5530847d2e6f7978d6ed58f288810cb6194f6fb97f3d7ecdf716a473", "blockhash": "0000000000000000000e13cef7c366c0283d82e591d1acd082e914b08063cdf1", "vout": [{"scriptPubKey": {"reqSigs": 1, "hex": "76a914fdd3aa1e04f979e890945d644f4fb649b3ed7d8888ac", "addresses": ["1Q97XF2T9pdUrzH1CZm8vZjhkMjSnbx5As"], "asm": "OP_DUP OP_HASH160 fdd3aa1e04f979e890945d644f4fb649b3ed7d88 OP_EQUALVERIFY OP_CHECKSIG", "type": "pubkeyhash"}, "value": 0.00023279, "n": 0}, {"scriptPubKey": {"reqSigs": 1, "hex": "76a914ae4592ef45494f31c9ec8ffcd3c9ac05b658cb1f88ac", "addresses": ["1GtTvTovDd4pPq5W3hBBvWhBMDDKqA29Lo"], "asm": "OP_DUP OP_HASH160 ae4592ef45494f31c9ec8ffcd3c9ac05b658cb1f OP_EQUALVERIFY OP_CHECKSIG", "type": "pubkeyhash"}, "value": 0.031072, "n": 1}], "hex": "01000000044e841d296089c11f74e64f05bd45015d51070194f27fbf2e2954952b0e050472010000006a47304402203eb8c6d475933a46fcd4960181b38596a3f36f43382ec15d77587c31390071c402207ac875b42eb4d9500658c0ba23d56e2324a466598292a234ff70483871acb2b901210343e743f298ac8557d25601e638acc0333e8cddb5e8204e1fc6fc63da1be817bdffffffff9c262a87671368668add22115a993baa784d87d3f365f54949799e12f43cd69a010000006a473044022007534cbcfc2385559144c2130ed334e69933d64f07c29c920ba0063c62c3f261022044848b67c1d732a2e5c5d08ef820da4d2ac85846877a3d30ae1dc9df934df1ea012102fa79981dbabe9c384d7e9d2730e27b726d43b832f95e2cee3bf0f98e81d1c864ffffffffca40c8e1f8877682006b8d2dd9efb07b6fe8740fb39970455c1540ecac0f159f010000006a47304402204e27fd855369709656ee2cc17afdba872649bec3a8eee93b7b1881500f46ce2f022078001d42ded309956eb02c11747f20f12e47ea65cb80df8241dc7f8161a47cbb0121021fb88322bde7ff78e622d108f84f206303e676e81ca3ddcc72ddce0ba1cf2b26ffffffff3e7c5dc065bbb697ce95c47e0da3fe88bbd8c387c86a10db941f711cca7ab3d6000000006a473044022028b56b8efff2a4cd5f666860ee4c43cef86670cabec3769d717a593f5918c1f8022037a48f6c5913a1cc5891436f6a5b47d65e934d47454123a8bf55478f3f98a7b6012102198c62a03e47c6b94c51a2a113216a3188d95adb119c52d33d7e2aae9ac2ac07ffffffff02ef5a0000000000001976a914fdd3aa1e04f979e890945d644f4fb649b3ed7d8888ac80692f00000000001976a914ae4592ef45494f31c9ec8ffcd3c9ac05b658cb1f88ac00000000", "vin": [{"sequence": 4294967295, "scriptSig": {"hex": "47304402203eb8c6d475933a46fcd4960181b38596a3f36f43382ec15d77587c31390071c402207ac875b42eb4d9500658c0ba23d56e2324a466598292a234ff70483871acb2b901210343e743f298ac8557d25601e638acc0333e8cddb5e8204e1fc6fc63da1be817bd", "asm": "304402203eb8c6d475933a46fcd4960181b38596a3f36f43382ec15d77587c31390071c402207ac875b42eb4d9500658c0ba23d56e2324a466598292a234ff70483871acb2b9[ALL] 0343e743f298ac8557d25601e638acc0333e8cddb5e8204e1fc6fc63da1be817bd"}, "vout": 1, "txid": "7204050e2b9554292ebf7ff2940107515d0145bd054fe6741fc18960291d844e"}, {"sequence": 4294967295, "scriptSig": {"hex": "473044022007534cbcfc2385559144c2130ed334e69933d64f07c29c920ba0063c62c3f261022044848b67c1d732a2e5c5d08ef820da4d2ac85846877a3d30ae1dc9df934df1ea012102fa79981dbabe9c384d7e9d2730e27b726d43b832f95e2cee3bf0f98e81d1c864", "asm": "3044022007534cbcfc2385559144c2130ed334e69933d64f07c29c920ba0063c62c3f261022044848b67c1d732a2e5c5d08ef820da4d2ac85846877a3d30ae1dc9df934df1ea[ALL] 02fa79981dbabe9c384d7e9d2730e27b726d43b832f95e2cee3bf0f98e81d1c864"}, "vout": 1, "txid": "9ad63cf4129e794949f565f3d3874d78aa3b995a1122dd8a66681367872a269c"}, {"sequence": 4294967295, "scriptSig": {"hex": "47304402204e27fd855369709656ee2cc17afdba872649bec3a8eee93b7b1881500f46ce2f022078001d42ded309956eb02c11747f20f12e47ea65cb80df8241dc7f8161a47cbb0121021fb88322bde7ff78e622d108f84f206303e676e81ca3ddcc72ddce0ba1cf2b26", "asm": "304402204e27fd855369709656ee2cc17afdba872649bec3a8eee93b7b1881500f46ce2f022078001d42ded309956eb02c11747f20f12e47ea65cb80df8241dc7f8161a47cbb[ALL] 021fb88322bde7ff78e622d108f84f206303e676e81ca3ddcc72ddce0ba1cf2b26"}, "vout": 1, "txid": "9f150facec40155c457099b30f74e86f7bb0efd92d8d6b00827687f8e1c840ca"}, {"sequence": 4294967295, "scriptSig": {"hex": "473044022028b56b8efff2a4cd5f666860ee4c43cef86670cabec3769d717a593f5918c1f8022037a48f6c5913a1cc5891436f6a5b47d65e934d47454123a8bf55478f3f98a7b6012102198c62a03e47c6b94c51a2a113216a3188d95adb119c52d33d7e2aae9ac2ac07", "asm": "3044022028b56b8efff2a4cd5f666860ee4c43cef86670cabec3769d717a593f5918c1f8022037a48f6c5913a1cc5891436f6a5b47d65e934d47454123a8bf55478f3f98a7b6[ALL] 02198c62a03e47c6b94c51a2a113216a3188d95adb119c52d33d7e2aae9ac2ac07"}, "vout": 0, "txid": "d6b37aca1c711f94db106ac887c3d8bb88fea30d7ec495ce97b6bb65c05d7c3e"}], "txid": "849f6cbe5530847d2e6f7978d6ed58f288810cb6194f6fb97f3d7ecdf716a473", "blocktime": 1537871767, "version": 1, "confirmations": 11495, "time": 1537871767, "locktime": 0, "vsize": 666, "size": 666}