{"hash": "84a150158f548280b29c33e2b76e2933e95f308461a28e0abe6ab24d8b1c1f41", "blockhash": "00000000000000000018f53835495a110e01622372bf6ae95dc86f2b0ab887b0", "vout": [{"scriptPubKey": {"reqSigs": 1, "hex": "a914c0a7d1d05c43b05cf161e0415720765bbcb6daa587", "addresses": ["3KFghgee4t6UBpPJFP5oxKXff7Mkzpd8FY"], "asm": "OP_HASH160 c0a7d1d05c43b05cf161e0415720765bbcb6daa5 OP_EQUAL", "type": "scripthash"}, "value": 0.00764, "n": 0}, {"scriptPubKey": {"reqSigs": 1, "hex": "76a9147eef22e4bdfa1639ffd15b16623cdbc6c94428d288ac", "addresses": ["1CaAceq9JBN1Uo2kgbPQeAx8xanEcUJYkh"], "asm": "OP_DUP OP_HASH160 7eef22e4bdfa1639ffd15b16623cdbc6c94428d2 OP_EQUALVERIFY OP_CHECKSIG", "type": "pubkeyhash"}, "value": 0.08423429, "n": 1}], "hex": "0100000001e8024cd1baa083fd885388d1f557d1ad320d958e6289b69e6148d8f827a621cb220000006a47304402202367f967c3534ebeb4e76538270ff2d99a4a323bf8b5e4b8a360686cd4fd71d90220636f91d9fd243187c706f28b4dc7270e350ac054719d44a6888b416898cb7b46012103b25b2ecb10d9cafabf39af4b2306e15f522bb1d2489b248bbf5073cc99172b0effffffff0260a80b000000000017a914c0a7d1d05c43b05cf161e0415720765bbcb6daa58705888000000000001976a9147eef22e4bdfa1639ffd15b16623cdbc6c94428d288ac00000000", "vin": [{"sequence": 4294967295, "scriptSig": {"hex": "47304402202367f967c3534ebeb4e76538270ff2d99a4a323bf8b5e4b8a360686cd4fd71d90220636f91d9fd243187c706f28b4dc7270e350ac054719d44a6888b416898cb7b46012103b25b2ecb10d9cafabf39af4b2306e15f522bb1d2489b248bbf5073cc99172b0e", "asm": "304402202367f967c3534ebeb4e76538270ff2d99a4a323bf8b5e4b8a360686cd4fd71d90220636f91d9fd243187c706f28b4dc7270e350ac054719d44a6888b416898cb7b46[ALL] 03b25b2ecb10d9cafabf39af4b2306e15f522bb1d2489b248bbf5073cc99172b0e"}, "vout": 34, "txid": "cb21a627f8d848619eb689628e950d32add157f5d1885388fd83a0bad14c02e8"}], "txid": "84a150158f548280b29c33e2b76e2933e95f308461a28e0abe6ab24d8b1c1f41", "blocktime": 1537870928, "version": 1, "confirmations": 11514, "time": 1537870928, "locktime": 0, "vsize": 223, "size": 223}