{"hash": "7cc4f9226414e478de3ba325e358e92955f4884116bd94158efb73e2da76e962", "blockhash": "000000000000000000022b45ed06c6f4ccd3cf7fb5ba4856ebd2e58215665228", "vout": [{"scriptPubKey": {"reqSigs": 1, "hex": "a91431fd5f79f918645765fca0c88bef3243a78b105687", "addresses": ["36FLZc3QufS8JMNKF6yWStGJggx7kZVpXK"], "asm": "OP_HASH160 31fd5f79f918645765fca0c88bef3243a78b1056 OP_EQUAL", "type": "scripthash"}, "value": 0.0002, "n": 0}, {"scriptPubKey": {"reqSigs": 1, "hex": "a914cfedf6a328265c79f3a82cd829720cd2602b89e487", "addresses": ["3LeSsExQQydhVrotR3yBLCpSiBBwwtb6zR"], "asm": "OP_HASH160 cfedf6a328265c79f3a82cd829720cd2602b89e4 OP_EQUAL", "type": "scripthash"}, "value": 4.009e-05, "n": 1}], "hex": "01000000000102adff7bd2a70290e5729f30a98e8d465d3ba1068c9795fd799d3c74abcfbbfc9a0100000023220020a3da75947769636a7b04dafdc1983d46b1e734c32f9509ed1c366c9122434100ffffffff3a1aeeb25cdc29bca174ca7effd46cd89d879a296f88be6d8a14b6231f4a1ba4010000002322002067e530631889a71def0f3e04fd6891605ccc586ca2248433bbe609235debfadfffffffff02204e00000000000017a91431fd5f79f918645765fca0c88bef3243a78b105687a90f00000000000017a914cfedf6a328265c79f3a82cd829720cd2602b89e48704004830450221008a6aff97b2596bc5205c6a98318d53fa7d679495df7d5bc28f564a968a7c9f9f02205fcbc2fd4e12929e94c85105ac56fee2766792208f1e05476b03f7c9283bb519014730440220562e8c2d6be943bbb38561ac38435ef7849979997f2beace1633a48b0256311202207dc4538389df71d62a5e5a4102e81180b54e3f0ca9e2e7cf750766820a5818be0147522102237f5ac31422267f76ad1bfa4799a12ffefd43f6c12572552f3cf456778619792102726ff74b232948bf3b0b4302934f660ce5f3375e3c0ec0ccd022a4260517f25a52ae0400483045022100951f2447992fa82f6ea4abb43b5b071464cc6d2cb0df54c8a11c8e5fca8cabab02206319816f98048dc1987b321ab1e400452ce6fe396b05ea8b1864fbd959c67950014730440220276cb080c3c2c9c458f728b4b218c64ab1582232da56ed7b89d6f37fed02ea0702207f04728266817121e9cd2a7c44ee62492ba47a0d5adde2ef955c575fcfa2814201475221023b3cd4233d073e6d943a99b511f778aba13e6e7a5bc66a36d1614b3ee3b200e22102726ff74b232948bf3b0b4302934f660ce5f3375e3c0ec0ccd022a4260517f25a52ae00000000", "vin": [{"txinwitness": ["", "30450221008a6aff97b2596bc5205c6a98318d53fa7d679495df7d5bc28f564a968a7c9f9f02205fcbc2fd4e12929e94c85105ac56fee2766792208f1e05476b03f7c9283bb51901", "30440220562e8c2d6be943bbb38561ac38435ef7849979997f2beace1633a48b0256311202207dc4538389df71d62a5e5a4102e81180b54e3f0ca9e2e7cf750766820a5818be01", "522102237f5ac31422267f76ad1bfa4799a12ffefd43f6c12572552f3cf456778619792102726ff74b232948bf3b0b4302934f660ce5f3375e3c0ec0ccd022a4260517f25a52ae"], "sequence": 4294967295, "scriptSig": {"hex": "220020a3da75947769636a7b04dafdc1983d46b1e734c32f9509ed1c366c9122434100", "asm": "0020a3da75947769636a7b04dafdc1983d46b1e734c32f9509ed1c366c9122434100"}, "vout": 1, "txid": "9afcbbcfab743c9d79fd95978c06a13b5d468d8ea9309f72e59002a7d27bffad"}, {"txinwitness": ["", "3045022100951f2447992fa82f6ea4abb43b5b071464cc6d2cb0df54c8a11c8e5fca8cabab02206319816f98048dc1987b321ab1e400452ce6fe396b05ea8b1864fbd959c6795001", "30440220276cb080c3c2c9c458f728b4b218c64ab1582232da56ed7b89d6f37fed02ea0702207f04728266817121e9cd2a7c44ee62492ba47a0d5adde2ef955c575fcfa2814201", "5221023b3cd4233d073e6d943a99b511f778aba13e6e7a5bc66a36d1614b3ee3b200e22102726ff74b232948bf3b0b4302934f660ce5f3375e3c0ec0ccd022a4260517f25a52ae"], "sequence": 4294967295, "scriptSig": {"hex": "22002067e530631889a71def0f3e04fd6891605ccc586ca2248433bbe609235debfadf", "asm": "002067e530631889a71def0f3e04fd6891605ccc586ca2248433bbe609235debfadf"}, "vout": 1, "txid": "a41b4a1f23b6148a6dbe886f299a879dd86cd4ff7eca74a1bc29dc5cb2ee1a3a"}], "txid": "84a45afb2eb747e688e2048738e7b697d4215e05361b64c78cce9d31d2223657", "blocktime": 1537869901, "version": 1, "confirmations": 11524, "time": 1537869901, "locktime": 0, "vsize": 336, "size": 666}