{"hash": "84a7f0d38fbf08de90cf9246ba28d82e0599cb42db4aa5d70620860fddc8b91b", "blockhash": "0000000000000000000e13cef7c366c0283d82e591d1acd082e914b08063cdf1", "vout": [{"scriptPubKey": {"reqSigs": 1, "hex": "76a914b574ccc67b5d47325358fbe7f07a03db7abe6ebc88ac", "addresses": ["1HYTE81eAWG4tBcMAKWAQrbGUM1hMhQ6Xn"], "asm": "OP_DUP OP_HASH160 b574ccc67b5d47325358fbe7f07a03db7abe6ebc OP_EQUALVERIFY OP_CHECKSIG", "type": "pubkeyhash"}, "value": 0.01109452, "n": 0}, {"scriptPubKey": {"reqSigs": 1, "hex": "a914003785ef040144afb2350012e4dfe250c6396b9787", "addresses": ["31iASMwQUo73oDb8SGDaeadULq3iVuBhBk"], "asm": "OP_HASH160 003785ef040144afb2350012e4dfe250c6396b97 OP_EQUAL", "type": "scripthash"}, "value": 0.00936204, "n": 1}], "hex": "020000000204381b1c53966bbc01ecaeff4d582ccf20b3acdb426d6c0ee071cc697edc7fb7000000006a47304402201df5481144147da9ab7382daa0c9fcb472219368634fcc6668747003fccbbf31022025d5dd062c15a2038a506e2275296d9cd6b5810196f217ceaed547f20b5713a9012103ebd2dc30dc872afea0558f13187adb96d7b73b41c770a4654426fe2e4c1fa617feffffffdbdf7388d5e079d1f083a7528234c3cab4145bf4193f784ee3d2144ccdaa905d020000006b483045022100cb6dd671310cdd8aac58682f14954b06395a63b2776438c68016a2d164abba18022075c37b38d56eac6b902aa7bbad812400c1a8348697a511d7bba6a1ba49988e59012102dbfa4d3fdbd2918157b3877106100d75eb304db0fd7ca5d923da2e61088f6ebefeffffff02cced1000000000001976a914b574ccc67b5d47325358fbe7f07a03db7abe6ebc88ac0c490e000000000017a914003785ef040144afb2350012e4dfe250c6396b978710490800", "vin": [{"sequence": 4294967294, "scriptSig": {"hex": "47304402201df5481144147da9ab7382daa0c9fcb472219368634fcc6668747003fccbbf31022025d5dd062c15a2038a506e2275296d9cd6b5810196f217ceaed547f20b5713a9012103ebd2dc30dc872afea0558f13187adb96d7b73b41c770a4654426fe2e4c1fa617", "asm": "304402201df5481144147da9ab7382daa0c9fcb472219368634fcc6668747003fccbbf31022025d5dd062c15a2038a506e2275296d9cd6b5810196f217ceaed547f20b5713a9[ALL] 03ebd2dc30dc872afea0558f13187adb96d7b73b41c770a4654426fe2e4c1fa617"}, "vout": 0, "txid": "b77fdc7e69cc71e00e6c6d42dbacb320cf2c584dffaeec01bc6b96531c1b3804"}, {"sequence": 4294967294, "scriptSig": {"hex": "483045022100cb6dd671310cdd8aac58682f14954b06395a63b2776438c68016a2d164abba18022075c37b38d56eac6b902aa7bbad812400c1a8348697a511d7bba6a1ba49988e59012102dbfa4d3fdbd2918157b3877106100d75eb304db0fd7ca5d923da2e61088f6ebe", "asm": "3045022100cb6dd671310cdd8aac58682f14954b06395a63b2776438c68016a2d164abba18022075c37b38d56eac6b902aa7bbad812400c1a8348697a511d7bba6a1ba49988e59[ALL] 02dbfa4d3fdbd2918157b3877106100d75eb304db0fd7ca5d923da2e61088f6ebe"}, "vout": 2, "txid": "5d90aacd4c14d2e34e783f19f45b14b4cac3348252a783f0d179e0d58873dfdb"}], "txid": "84a7f0d38fbf08de90cf9246ba28d82e0599cb42db4aa5d70620860fddc8b91b", "blocktime": 1537871767, "version": 2, "confirmations": 11490, "time": 1537871767, "locktime": 542992, "vsize": 371, "size": 371}