{"hash": "84a70832c33f5ae7cde06d886b8bb9325f1b1d7d9f59b763cc7dfe54f767f405", "blockhash": "00000000000000000017f5eb5941039fbcee6240d03bc1f2f8e35350df66a1d8", "vout": [{"scriptPubKey": {"reqSigs": 1, "hex": "76a914377ee3afea528a5f02e520ed6ca1e66e79386b0c88ac", "addresses": ["164SAytwLaDAXuUJDJcL4REabBQUgqwV2N"], "asm": "OP_DUP OP_HASH160 377ee3afea528a5f02e520ed6ca1e66e79386b0c OP_EQUALVERIFY OP_CHECKSIG", "type": "pubkeyhash"}, "value": 0.0189268, "n": 0}, {"scriptPubKey": {"reqSigs": 1, "hex": "76a9141a7f9e63462eaaa195d614d2139815992d06a08188ac", "addresses": ["13R7T6FNHXsE273p3eNWnjCZm1hXJJRtKK"], "asm": "OP_DUP OP_HASH160 1a7f9e63462eaaa195d614d2139815992d06a081 OP_EQUALVERIFY OP_CHECKSIG", "type": "pubkeyhash"}, "value": 0.03389425, "n": 1}], "hex": "0100000001c5d26dfa3ddfce9a249517808fac54acd78ba048c48cdbbfc2ddcfda44fa0d76080000006b483045022100bbe3ce89d1248b11b15629264ae589931e77bf2aa860b44ad8f402bbf3bdf12502201cc09395dc1b2cad2d873f5c5092831665ce04033c1cf7ee0dee48208fac5a930121032aa605c85204b76952b243dd18334e56bb6cb34b0427ee8b976556ae89b634d6ffffffff0248e11c00000000001976a914377ee3afea528a5f02e520ed6ca1e66e79386b0c88acf1b73300000000001976a9141a7f9e63462eaaa195d614d2139815992d06a08188ac00000000", "vin": [{"sequence": 4294967295, "scriptSig": {"hex": "483045022100bbe3ce89d1248b11b15629264ae589931e77bf2aa860b44ad8f402bbf3bdf12502201cc09395dc1b2cad2d873f5c5092831665ce04033c1cf7ee0dee48208fac5a930121032aa605c85204b76952b243dd18334e56bb6cb34b0427ee8b976556ae89b634d6", "asm": "3045022100bbe3ce89d1248b11b15629264ae589931e77bf2aa860b44ad8f402bbf3bdf12502201cc09395dc1b2cad2d873f5c5092831665ce04033c1cf7ee0dee48208fac5a93[ALL] 032aa605c85204b76952b243dd18334e56bb6cb34b0427ee8b976556ae89b634d6"}, "vout": 8, "txid": "760dfa44dacfddc2bfdb8cc448a08bd7ac54ac8f801795249acedf3dfa6dd2c5"}], "txid": "84a70832c33f5ae7cde06d886b8bb9325f1b1d7d9f59b763cc7dfe54f767f405", "blocktime": 1537874412, "version": 1, "confirmations": 11467, "time": 1537874412, "locktime": 0, "vsize": 226, "size": 226}