{"hash": "84ad59953ab65e072220e90d1db11edb63209306db40ad7c9c833f0bab27d547", "blockhash": "0000000000000000000dcc0f55137456b1a82d3642486a52398922ac4d620174", "vout": [{"scriptPubKey": {"reqSigs": 1, "hex": "76a91484231c93545bca277c4c91eef1e83b042689562e88ac", "addresses": ["1D3gFvMjKuPqGHzWjWqktWqN8DmrHmcUc7"], "asm": "OP_DUP OP_HASH160 84231c93545bca277c4c91eef1e83b042689562e OP_EQUALVERIFY OP_CHECKSIG", "type": "pubkeyhash"}, "value": 0.50485009, "n": 0}, {"scriptPubKey": {"reqSigs": 1, "hex": "76a9140e3b90f4789600bf37bd3c05be2fd959d909299588ac", "addresses": ["12JFpRMRwVey3NQPh4rxFiDXZscguy9gcr"], "asm": "OP_DUP OP_HASH160 0e3b90f4789600bf37bd3c05be2fd959d9092995 OP_EQUALVERIFY OP_CHECKSIG", "type": "pubkeyhash"}, "value": 1.65633585, "n": 1}], "hex": "010000000b3dd70c1dbb78e2f79931026a73ec12793dd08ac3a74a555dafbb4c6e33f6cf0c010000006a47304402206fa5f29caddfc862e15b13f50dc711e6520e928a0aa78dc7ee4f0f49e12f1fa3022060d90bf1464901bd27e89daa33364f5d9fd18fc7251f463eb09ae7f4c093da2f012103984cf30406267ec5ccf0f334478d9e34ad69cc8832365c7497495a1adda67eecffffffffbd6c668eedf0bab9a5788ac31c920cfb0cbd15823d3b0f1afc00fff813205b1d000000006b48304502210086a285be2a0f06b91260790febf971963964ba6411b6fb99019a02453e9a94e302201c1601760340057225b4da673b3a7ac20806ee517ee74a50db6041a9d05c47d7012103f02d0f9156252e887b067a7f56aa202d4e3ffdf6d1f863f722412925c09e4a99ffffffff061bea6a7cf9f61d1f7adc753d1cf6a11eaf554dae4c34e97fc98108f8119f2f000000006b483045022100ad605688ba718f5dc3f0a336bdb908082c5f7499bb13a5641383f21531f2ca9e02201857be1e688e68dd4f87e78cd5fb288a8e881a25e92286cab6a9c8265a632e4d012103984cf30406267ec5ccf0f334478d9e34ad69cc8832365c7497495a1adda67eecffffffff1390c34f5e19deba595c1df65d6af0c750cdaf05cc996b15b117f20a77ad3c37000000006b483045022100ee8d1d79fab05784fa02cb1b01125abc335d32a53e6222c625f1c24d7b92d7e30220452d4241c09a71f790c7002c380578d3fcefa4bb3a3ac34101c1c63dbb0138d40121031004218a33ffb330266d1374539a5c6c841d27457d7976840ebc98445acf5543ffffffff80c033ee844923e20fbd07ecdf26c2a792d47af60e60d1a87f93a5b57da57d59000000006b483045022100e225249dad70d2e6a86b82160728b1785085f403c53ec178917b3339003964ad02202ec07332ffc94027347fedd3c884d1fc032a3c9421e44b1df123b0ab26121593012103984cf30406267ec5ccf0f334478d9e34ad69cc8832365c7497495a1adda67eecffffffff16993552a96dafc3791649b2f231e55c1be80067de8e6f824da6f9423616e78c000000006a473044022076d55a504f546847519520b90f3d0277ce970aab18ea068a7c0173716dd1333e02201aba906904f896cb7d326cf37edc4786ac0c402614fd5fb4a51b3baa7571c58d0121029a87a04bff1a3d2616b96931d65909a730ba5bf09c59f2a185fefe1a8b455e43fffffffff5c4980979f1e9d5281b84cd30100b670ec52fb1996058aab23ea18383430595000000006a473044022060cc53cf01715f98b5b6e4c6a030a1ae9bfb144618c6ab36f8e65cc88d606e2d022071aabb6be5832766aa584e75784515c8261161200ee623ba428ab61a2aec99fa012103984cf30406267ec5ccf0f334478d9e34ad69cc8832365c7497495a1adda67eecfffffffff0ad733e756dae8503ed0f47a260e75316e2e616379e8f7a0887496f18d2ecbb000000006a4730440220011b335f09a6c64538f2c77a1808c669ddc101e5e2d7a6c00ba626ccb26100bf02201368616436bf73a1a16cc9d7653a97af953e57ec9bef662efe8a88f86d052137012103bf049e5318c091dea8f380b78fd2538ad2a11bdb40a6ef86d7f10973aca7f21dffffffff9e9163cc7e9a8ce78204383f7146cca6829f1a3c93da06a76ff2004f7ebae6cd010000006a47304402201e0eacc3de123f3b34bf3cadba9d7b1653bf0dbd353a62f61da6b54d38a4288902202e4385d0591b7c2f5772cb67f84931cbc56c5413297c5143eecc784424b00eb7012103984cf30406267ec5ccf0f334478d9e34ad69cc8832365c7497495a1adda67eecffffffff554f091b81309cb75c7d190456be589a52ba7b9f632c90a90cef55b98230f2e7010000006a47304402203d93a13c40827fac248291d849d916b5c4332c46a67723870b311c0e9d06664e0220565bdbe75718e596721190b12b32934baa34525f79e4eb951beaab4017cf2731012103984cf30406267ec5ccf0f334478d9e34ad69cc8832365c7497495a1adda67eecffffffff04cbf19242a53e8af2d500cd15eefd89a47d225d9789f52dd011a728f51987ff0b0000006a473044022045dab86a6007a4ab4635da54c9a0b3688ae511353fb5ab6076b183dd46c48075022069838fd05fcc9630291cbc89931a1c20740226345a3c0c759645718a7121ada7012103984cf30406267ec5ccf0f334478d9e34ad69cc8832365c7497495a1adda67eecffffffff0211570203000000001976a91484231c93545bca277c4c91eef1e83b042689562e88ac315edf09000000001976a9140e3b90f4789600bf37bd3c05be2fd959d909299588ac00000000", "vin": [{"sequence": 4294967295, "scriptSig": {"hex": "47304402206fa5f29caddfc862e15b13f50dc711e6520e928a0aa78dc7ee4f0f49e12f1fa3022060d90bf1464901bd27e89daa33364f5d9fd18fc7251f463eb09ae7f4c093da2f012103984cf30406267ec5ccf0f334478d9e34ad69cc8832365c7497495a1adda67eec", "asm": "304402206fa5f29caddfc862e15b13f50dc711e6520e928a0aa78dc7ee4f0f49e12f1fa3022060d90bf1464901bd27e89daa33364f5d9fd18fc7251f463eb09ae7f4c093da2f[ALL] 03984cf30406267ec5ccf0f334478d9e34ad69cc8832365c7497495a1adda67eec"}, "vout": 1, "txid": "0ccff6336e4cbbaf5d554aa7c38ad03d7912ec736a023199f7e278bb1d0cd73d"}, {"sequence": 4294967295, "scriptSig": {"hex": "48304502210086a285be2a0f06b91260790febf971963964ba6411b6fb99019a02453e9a94e302201c1601760340057225b4da673b3a7ac20806ee517ee74a50db6041a9d05c47d7012103f02d0f9156252e887b067a7f56aa202d4e3ffdf6d1f863f722412925c09e4a99", "asm": "304502210086a285be2a0f06b91260790febf971963964ba6411b6fb99019a02453e9a94e302201c1601760340057225b4da673b3a7ac20806ee517ee74a50db6041a9d05c47d7[ALL] 03f02d0f9156252e887b067a7f56aa202d4e3ffdf6d1f863f722412925c09e4a99"}, "vout": 0, "txid": "1d5b2013f8ff00fc1a0f3b3d8215bd0cfb0c921cc38a78a5b9baf0ed8e666cbd"}, {"sequence": 4294967295, "scriptSig": {"hex": "483045022100ad605688ba718f5dc3f0a336bdb908082c5f7499bb13a5641383f21531f2ca9e02201857be1e688e68dd4f87e78cd5fb288a8e881a25e92286cab6a9c8265a632e4d012103984cf30406267ec5ccf0f334478d9e34ad69cc8832365c7497495a1adda67eec", "asm": "3045022100ad605688ba718f5dc3f0a336bdb908082c5f7499bb13a5641383f21531f2ca9e02201857be1e688e68dd4f87e78cd5fb288a8e881a25e92286cab6a9c8265a632e4d[ALL] 03984cf30406267ec5ccf0f334478d9e34ad69cc8832365c7497495a1adda67eec"}, "vout": 0, "txid": "2f9f11f80881c97fe9344cae4d55af1ea1f61c3d75dc7a1f1df6f97c6aea1b06"}, {"sequence": 4294967295, "scriptSig": {"hex": "483045022100ee8d1d79fab05784fa02cb1b01125abc335d32a53e6222c625f1c24d7b92d7e30220452d4241c09a71f790c7002c380578d3fcefa4bb3a3ac34101c1c63dbb0138d40121031004218a33ffb330266d1374539a5c6c841d27457d7976840ebc98445acf5543", "asm": "3045022100ee8d1d79fab05784fa02cb1b01125abc335d32a53e6222c625f1c24d7b92d7e30220452d4241c09a71f790c7002c380578d3fcefa4bb3a3ac34101c1c63dbb0138d4[ALL] 031004218a33ffb330266d1374539a5c6c841d27457d7976840ebc98445acf5543"}, "vout": 0, "txid": "373cad770af217b1156b99cc05afcd50c7f06a5df61d5c59bade195e4fc39013"}, {"sequence": 4294967295, "scriptSig": {"hex": "483045022100e225249dad70d2e6a86b82160728b1785085f403c53ec178917b3339003964ad02202ec07332ffc94027347fedd3c884d1fc032a3c9421e44b1df123b0ab26121593012103984cf30406267ec5ccf0f334478d9e34ad69cc8832365c7497495a1adda67eec", "asm": "3045022100e225249dad70d2e6a86b82160728b1785085f403c53ec178917b3339003964ad02202ec07332ffc94027347fedd3c884d1fc032a3c9421e44b1df123b0ab26121593[ALL] 03984cf30406267ec5ccf0f334478d9e34ad69cc8832365c7497495a1adda67eec"}, "vout": 0, "txid": "597da57db5a5937fa8d1600ef67ad492a7c226dfec07bd0fe2234984ee33c080"}, {"sequence": 4294967295, "scriptSig": {"hex": "473044022076d55a504f546847519520b90f3d0277ce970aab18ea068a7c0173716dd1333e02201aba906904f896cb7d326cf37edc4786ac0c402614fd5fb4a51b3baa7571c58d0121029a87a04bff1a3d2616b96931d65909a730ba5bf09c59f2a185fefe1a8b455e43", "asm": "3044022076d55a504f546847519520b90f3d0277ce970aab18ea068a7c0173716dd1333e02201aba906904f896cb7d326cf37edc4786ac0c402614fd5fb4a51b3baa7571c58d[ALL] 029a87a04bff1a3d2616b96931d65909a730ba5bf09c59f2a185fefe1a8b455e43"}, "vout": 0, "txid": "8ce7163642f9a64d826f8ede6700e81b5ce531f2b2491679c3af6da952359916"}, {"sequence": 4294967295, "scriptSig": {"hex": "473044022060cc53cf01715f98b5b6e4c6a030a1ae9bfb144618c6ab36f8e65cc88d606e2d022071aabb6be5832766aa584e75784515c8261161200ee623ba428ab61a2aec99fa012103984cf30406267ec5ccf0f334478d9e34ad69cc8832365c7497495a1adda67eec", "asm": "3044022060cc53cf01715f98b5b6e4c6a030a1ae9bfb144618c6ab36f8e65cc88d606e2d022071aabb6be5832766aa584e75784515c8261161200ee623ba428ab61a2aec99fa[ALL] 03984cf30406267ec5ccf0f334478d9e34ad69cc8832365c7497495a1adda67eec"}, "vout": 0, "txid": "9505438383a13eb2aa586099b12fc50e670b1030cd841b28d5e9f1790998c4f5"}, {"sequence": 4294967295, "scriptSig": {"hex": "4730440220011b335f09a6c64538f2c77a1808c669ddc101e5e2d7a6c00ba626ccb26100bf02201368616436bf73a1a16cc9d7653a97af953e57ec9bef662efe8a88f86d052137012103bf049e5318c091dea8f380b78fd2538ad2a11bdb40a6ef86d7f10973aca7f21d", "asm": "30440220011b335f09a6c64538f2c77a1808c669ddc101e5e2d7a6c00ba626ccb26100bf02201368616436bf73a1a16cc9d7653a97af953e57ec9bef662efe8a88f86d052137[ALL] 03bf049e5318c091dea8f380b78fd2538ad2a11bdb40a6ef86d7f10973aca7f21d"}, "vout": 0, "txid": "bbecd2186f4987087a8f9e3716e6e21653e760a2470fed0385ae6d753e73adf0"}, {"sequence": 4294967295, "scriptSig": {"hex": "47304402201e0eacc3de123f3b34bf3cadba9d7b1653bf0dbd353a62f61da6b54d38a4288902202e4385d0591b7c2f5772cb67f84931cbc56c5413297c5143eecc784424b00eb7012103984cf30406267ec5ccf0f334478d9e34ad69cc8832365c7497495a1adda67eec", "asm": "304402201e0eacc3de123f3b34bf3cadba9d7b1653bf0dbd353a62f61da6b54d38a4288902202e4385d0591b7c2f5772cb67f84931cbc56c5413297c5143eecc784424b00eb7[ALL] 03984cf30406267ec5ccf0f334478d9e34ad69cc8832365c7497495a1adda67eec"}, "vout": 1, "txid": "cde6ba7e4f00f26fa706da933c1a9f82a6cc46713f380482e78c9a7ecc63919e"}, {"sequence": 4294967295, "scriptSig": {"hex": "47304402203d93a13c40827fac248291d849d916b5c4332c46a67723870b311c0e9d06664e0220565bdbe75718e596721190b12b32934baa34525f79e4eb951beaab4017cf2731012103984cf30406267ec5ccf0f334478d9e34ad69cc8832365c7497495a1adda67eec", "asm": "304402203d93a13c40827fac248291d849d916b5c4332c46a67723870b311c0e9d06664e0220565bdbe75718e596721190b12b32934baa34525f79e4eb951beaab4017cf2731[ALL] 03984cf30406267ec5ccf0f334478d9e34ad69cc8832365c7497495a1adda67eec"}, "vout": 1, "txid": "e7f23082b955ef0ca9902c639f7bba529a58be5604197d5cb79c30811b094f55"}, {"sequence": 4294967295, "scriptSig": {"hex": "473044022045dab86a6007a4ab4635da54c9a0b3688ae511353fb5ab6076b183dd46c48075022069838fd05fcc9630291cbc89931a1c20740226345a3c0c759645718a7121ada7012103984cf30406267ec5ccf0f334478d9e34ad69cc8832365c7497495a1adda67eec", "asm": "3044022045dab86a6007a4ab4635da54c9a0b3688ae511353fb5ab6076b183dd46c48075022069838fd05fcc9630291cbc89931a1c20740226345a3c0c759645718a7121ada7[ALL] 03984cf30406267ec5ccf0f334478d9e34ad69cc8832365c7497495a1adda67eec"}, "vout": 11, "txid": "ff8719f528a711d02df589975d227da489fdee15cd00d5f28a3ea54292f1cb04"}], "txid": "84ad59953ab65e072220e90d1db11edb63209306db40ad7c9c833f0bab27d547", "blocktime": 1537870268, "version": 1, "confirmations": 11518, "time": 1537870268, "locktime": 0, "vsize": 1699, "size": 1699}