{"hash": "84be4293085c3cb89a056415cf49981b9d25129580f064aead9ba4754daf6615", "blockhash": "0000000000000000001f76057863aec43deb6fa401d9628bb513d65a8098bfab", "vout": [{"scriptPubKey": {"type": "nulldata", "hex": "6a4c50000077e00001b15f0a0b270be8f1c94f23bb7af8e8e963c7cfd5b95b23cc0f42c2fc38c5da02c0d93ca171c0d941a9a1deb0e2735baa169c0612408b743db2c7bc9a9526289ac0f6612cd74e33776ee4", "asm": "OP_RETURN 000077e00001b15f0a0b270be8f1c94f23bb7af8e8e963c7cfd5b95b23cc0f42c2fc38c5da02c0d93ca171c0d941a9a1deb0e2735baa169c0612408b743db2c7bc9a9526289ac0f6612cd74e33776ee4"}, "value": 0.0, "n": 0}, {"scriptPubKey": {"reqSigs": 1, "hex": "76a9148a1a7752d695eeb15c888f03b85287bb9bc8a6a888ac", "addresses": ["1DbDxNTh4XMV3gakuPuQsVgbEMrcb4AWCu"], "asm": "OP_DUP OP_HASH160 8a1a7752d695eeb15c888f03b85287bb9bc8a6a8 OP_EQUALVERIFY OP_CHECKSIG", "type": "pubkeyhash"}, "value": 0.00106764, "n": 1}], "hex": "0100000001ddea9eea845f153c3ce9ad65008b37f294526e355c09f15312f6e1770635dc3d010000006b48304502210085aeb08d1fedf3a767d99339c053b779e093f2ac8cbf0af4576f34172f441fd7022007358eed89e95a8a7b348a3cade0747780eb9adab9f1f8a3d5d109706ea09610012102751ca811e11b9c4757afbc21f1c9da308144160fc0ba7145392fa3e724d26dc2ffffffff020000000000000000536a4c50000077e00001b15f0a0b270be8f1c94f23bb7af8e8e963c7cfd5b95b23cc0f42c2fc38c5da02c0d93ca171c0d941a9a1deb0e2735baa169c0612408b743db2c7bc9a9526289ac0f6612cd74e33776ee40ca10100000000001976a9148a1a7752d695eeb15c888f03b85287bb9bc8a6a888ac00000000", "vin": [{"sequence": 4294967295, "scriptSig": {"hex": "48304502210085aeb08d1fedf3a767d99339c053b779e093f2ac8cbf0af4576f34172f441fd7022007358eed89e95a8a7b348a3cade0747780eb9adab9f1f8a3d5d109706ea09610012102751ca811e11b9c4757afbc21f1c9da308144160fc0ba7145392fa3e724d26dc2", "asm": "304502210085aeb08d1fedf3a767d99339c053b779e093f2ac8cbf0af4576f34172f441fd7022007358eed89e95a8a7b348a3cade0747780eb9adab9f1f8a3d5d109706ea09610[ALL] 02751ca811e11b9c4757afbc21f1c9da308144160fc0ba7145392fa3e724d26dc2"}, "vout": 1, "txid": "3ddc350677e1f61253f1095c356e5294f2378b0065ade93c3c155f84ea9eeadd"}], "txid": "84be4293085c3cb89a056415cf49981b9d25129580f064aead9ba4754daf6615", "blocktime": 1537873891, "version": 1, "confirmations": 11478, "time": 1537873891, "locktime": 0, "vsize": 284, "size": 284}