{"hash": "84c1653f32fb67acc066a8c9a5eace6b014c40f3079b7cea74721a2072649957", "blockhash": "00000000000000000004ffacab907a6b429b9a5745fa0b75af4234bf69dd7176", "vout": [{"scriptPubKey": {"reqSigs": 1, "hex": "76a91469d3cc5a2ac7aae023a2538f6b6fbf6159c66c6988ac", "addresses": ["1AeZg9GsyvsJegDw6FaKS2taWhq36w9T4V"], "asm": "OP_DUP OP_HASH160 69d3cc5a2ac7aae023a2538f6b6fbf6159c66c69 OP_EQUALVERIFY OP_CHECKSIG", "type": "pubkeyhash"}, "value": 0.01950226, "n": 0}, {"scriptPubKey": {"type": "nulldata", "hex": "6a146f6d6e69000000000000001f00000017309f6400", "asm": "OP_RETURN 6f6d6e69000000000000001f00000017309f6400"}, "value": 0.0, "n": 1}, {"scriptPubKey": {"reqSigs": 1, "hex": "76a91469d3cc5a2ac7aae023a2538f6b6fbf6159c66c6988ac", "addresses": ["1AeZg9GsyvsJegDw6FaKS2taWhq36w9T4V"], "asm": "OP_DUP OP_HASH160 69d3cc5a2ac7aae023a2538f6b6fbf6159c66c69 OP_EQUALVERIFY OP_CHECKSIG", "type": "pubkeyhash"}, "value": 5.46e-06, "n": 2}], "hex": "010000000274306f3c3164baf176e1c08bffadce0030f0399d4377e6da53a4932bb000108e020000006b48304502210090bec6bd6c2dd56e31a6f6ebef78c604da92492fe6cceb1153160d8a27b1029102203d9aa219acf42df13d850dadb6cee8eaeaf35bb76c66937f338919c84de563700121028933beb32c51cc79d8b0e13a35832ce4f1de3249752a96b57eddbc26887d6b74ffffffffa2fd0d80f9d05df239f52273bac9acfcba99acbe57e5599bdcad4ea55a4522df000000006b483045022100ae491933ea352beb84578ffc48393e0717131ab6cbdff64fc1aa68994881a9910220082696434f0fd0da6092920bf7c9fde4baeb3d8f809cfc116521ca61a047c7ab01210326a4358bff07ed795c1443ec56bee68e807664de3ef2694f6d4780428cece48cffffffff0312c21d00000000001976a91469d3cc5a2ac7aae023a2538f6b6fbf6159c66c6988ac0000000000000000166a146f6d6e69000000000000001f00000017309f640022020000000000001976a91469d3cc5a2ac7aae023a2538f6b6fbf6159c66c6988ac00000000", "vin": [{"sequence": 4294967295, "scriptSig": {"hex": "48304502210090bec6bd6c2dd56e31a6f6ebef78c604da92492fe6cceb1153160d8a27b1029102203d9aa219acf42df13d850dadb6cee8eaeaf35bb76c66937f338919c84de563700121028933beb32c51cc79d8b0e13a35832ce4f1de3249752a96b57eddbc26887d6b74", "asm": "304502210090bec6bd6c2dd56e31a6f6ebef78c604da92492fe6cceb1153160d8a27b1029102203d9aa219acf42df13d850dadb6cee8eaeaf35bb76c66937f338919c84de56370[ALL] 028933beb32c51cc79d8b0e13a35832ce4f1de3249752a96b57eddbc26887d6b74"}, "vout": 2, "txid": "8e1000b02b93a453dae677439d39f03000ceadff8bc0e176f1ba64313c6f3074"}, {"sequence": 4294967295, "scriptSig": {"hex": "483045022100ae491933ea352beb84578ffc48393e0717131ab6cbdff64fc1aa68994881a9910220082696434f0fd0da6092920bf7c9fde4baeb3d8f809cfc116521ca61a047c7ab01210326a4358bff07ed795c1443ec56bee68e807664de3ef2694f6d4780428cece48c", "asm": "3045022100ae491933ea352beb84578ffc48393e0717131ab6cbdff64fc1aa68994881a9910220082696434f0fd0da6092920bf7c9fde4baeb3d8f809cfc116521ca61a047c7ab[ALL] 0326a4358bff07ed795c1443ec56bee68e807664de3ef2694f6d4780428cece48c"}, "vout": 0, "txid": "df22455aa54eaddc9b59e557beac99bafcacc9ba7322f539f25dd0f9800dfda2"}], "txid": "84c1653f32fb67acc066a8c9a5eace6b014c40f3079b7cea74721a2072649957", "blocktime": 1537875543, "version": 1, "confirmations": 11464, "time": 1537875543, "locktime": 0, "vsize": 405, "size": 405}