{"hash": "84c2b191c5fd498ca8738c2284bd1b6dd61f6339f6d9de1743779c06cc18a676", "blockhash": "0000000000000000000baef3f32e3676a92c3b2e5da21b426e4f302fc371ce76", "vout": [{"scriptPubKey": {"reqSigs": 1, "hex": "a914d685ada484d205ae6819ae4625581471ddc80a6987", "addresses": ["3MFJfj4WGZXf2GgnhbrodQtpDHm942RgWg"], "asm": "OP_HASH160 d685ada484d205ae6819ae4625581471ddc80a69 OP_EQUAL", "type": "scripthash"}, "value": 0.0031946, "n": 0}, {"scriptPubKey": {"reqSigs": 1, "hex": "76a914bbffa7eeba836199758e18b70ad4eb24c99b9c5388ac", "addresses": ["1J93dANkiFhCuZUqkxDVvypVQYfXhMZbry"], "asm": "OP_DUP OP_HASH160 bbffa7eeba836199758e18b70ad4eb24c99b9c53 OP_EQUALVERIFY OP_CHECKSIG", "type": "pubkeyhash"}, "value": 0.01061998, "n": 1}], "hex": "0100000001c963d9101e7e617425a0882d4ac2bf47daeb4d74fff46292f267ffa96826a8ef010000006b483045022100a8052b848480c852fff0badc38e4a30e724eed31d2451bdac3741dd0e997c371022050e863087e8310a3f10b42a6a447fa17953899ec951c57469498defd5318ba28012102697f22cee2b5939106680c5805cb0ea7011271edddaae53d73cea627f417a3feffffffff02e4df04000000000017a914d685ada484d205ae6819ae4625581471ddc80a69876e341000000000001976a914bbffa7eeba836199758e18b70ad4eb24c99b9c5388ac00000000", "vin": [{"sequence": 4294967295, "scriptSig": {"hex": "483045022100a8052b848480c852fff0badc38e4a30e724eed31d2451bdac3741dd0e997c371022050e863087e8310a3f10b42a6a447fa17953899ec951c57469498defd5318ba28012102697f22cee2b5939106680c5805cb0ea7011271edddaae53d73cea627f417a3fe", "asm": "3045022100a8052b848480c852fff0badc38e4a30e724eed31d2451bdac3741dd0e997c371022050e863087e8310a3f10b42a6a447fa17953899ec951c57469498defd5318ba28[ALL] 02697f22cee2b5939106680c5805cb0ea7011271edddaae53d73cea627f417a3fe"}, "vout": 1, "txid": "efa82668a9ff67f29262f4ff744debda47bfc24a2d88a02574617e1e10d963c9"}], "txid": "84c2b191c5fd498ca8738c2284bd1b6dd61f6339f6d9de1743779c06cc18a676", "blocktime": 1537876114, "version": 1, "confirmations": 11460, "time": 1537876114, "locktime": 0, "vsize": 224, "size": 224}