{"hash": "97d5a943a6df5179b18d9bee747f4e14888a10eb0fe2935b674fb0b370820da5", "blockhash": "000000000000000000205f8b0775d31398ef75b89a5e8ec8d2c57b4dc0ac4c20", "vout": [{"scriptPubKey": {"reqSigs": 1, "hex": "a9147c78620e8f5af9d79ff9fd5fca99354cf600e31487", "addresses": ["3D39vh1UGtmUe2oNNw9JMKPZYZQfENmwRC"], "asm": "OP_HASH160 7c78620e8f5af9d79ff9fd5fca99354cf600e314 OP_EQUAL", "type": "scripthash"}, "value": 5.71772351, "n": 0}, {"scriptPubKey": {"reqSigs": 1, "hex": "a9142a631fc4d1539a776bdd2b2596155fd159bfc34e87", "addresses": ["35Z93s3W6nuxRa8fVPZvnsWqEXrxbdXK6N"], "asm": "OP_HASH160 2a631fc4d1539a776bdd2b2596155fd159bfc34e OP_EQUAL", "type": "scripthash"}, "value": 0.69721404, "n": 1}], "hex": "020000000001016d8c1d2e4698f8b28ff6c5a0ccc58c27e8c56c7ddf844585d659b39d59ca06a60100000017160014c43eac31e9f575cc01df4d608d1faf56582da747fdffffff02bf8d14220000000017a9147c78620e8f5af9d79ff9fd5fca99354cf600e314873cdd27040000000017a9142a631fc4d1539a776bdd2b2596155fd159bfc34e8702483045022100d11febe9f6fa729f163fdceb302dc6028bd910500bb8994853f5263bf1ee2ae402202bb6536a7dc3ecc963fdc80189c2b7bb53af793102fc3d5c8d3f14adf6124732012103e0345480f3590691d4551710f466ac3680d53dba66eaa70c2b822964ed3c6f4a0e490800", "vin": [{"txinwitness": ["3045022100d11febe9f6fa729f163fdceb302dc6028bd910500bb8994853f5263bf1ee2ae402202bb6536a7dc3ecc963fdc80189c2b7bb53af793102fc3d5c8d3f14adf612473201", "03e0345480f3590691d4551710f466ac3680d53dba66eaa70c2b822964ed3c6f4a"], "sequence": 4294967293, "scriptSig": {"hex": "160014c43eac31e9f575cc01df4d608d1faf56582da747", "asm": "0014c43eac31e9f575cc01df4d608d1faf56582da747"}, "vout": 1, "txid": "a606ca599db359d6854584df7d6cc5e8278cc5cca0c5f68fb2f898462e1d8c6d"}], "txid": "84c3b06796ca89a943a1774a59e34a52694fa9ce0c598805b239c0a8df093daa", "blocktime": 1537871175, "version": 2, "confirmations": 11511, "time": 1537871175, "locktime": 542990, "vsize": 166, "size": 248}