{"hash": "8178ac5ab00677ea3c83f88f958b6eec3aa7c6f5a0969210969d6c749d1f8628", "blockhash": "0000000000000000001f76057863aec43deb6fa401d9628bb513d65a8098bfab", "vout": [{"scriptPubKey": {"reqSigs": 1, "hex": "76a914f04d4a5ec5979458480c5503da6ddc6dc733600388ac", "addresses": ["1NubmH89EFCoNGpVUy29SokRngAZDzSoUu"], "asm": "OP_DUP OP_HASH160 f04d4a5ec5979458480c5503da6ddc6dc7336003 OP_EQUALVERIFY OP_CHECKSIG", "type": "pubkeyhash"}, "value": 0.0018256, "n": 0}, {"scriptPubKey": {"reqSigs": 1, "hex": "a914c4904ed09a7e8c4733efb5dccf532deed839aeec87", "addresses": ["3KcMEq3Uw4p1AcokuBmHw6WL7PuzW8Ax1U"], "asm": "OP_HASH160 c4904ed09a7e8c4733efb5dccf532deed839aeec OP_EQUAL", "type": "scripthash"}, "value": 0.01005842, "n": 1}], "hex": "02000000000102476713e49cb99c02dda451bda87fc481fc1402ed0ca32839f7d6efd197b73df7170000001716001449af6a6b05c79c526b04434b7b7b520a0a1af286fefffffffd730eb1da4dff3baa361a2a0ee363d01759950d142d7ccf36aa46fb0ff1bf7b0100000017160014233e05a294cf82b08e3df90d258de9a6fab29b05feffffff0220c90200000000001976a914f04d4a5ec5979458480c5503da6ddc6dc733600388ac12590f000000000017a914c4904ed09a7e8c4733efb5dccf532deed839aeec870247304402205e65b4801967b3ba2e76bbaaee204353671810fe9e3bcb4db6f138507d4539d00220070764af961827faf0fcc34044604ffd42fd95a893e329dcf572f1f2d7a357c7012103a662374eb6a4b4273099d48e4b52778e3fdaf4e6dd618724107b33bf6224298902473044022051de0ff3dfe3a32f85d0fc2c05ac503ea305d1f528b40678370ce5e35c7d43a102204e1a7a38dc8bf239b45036355ff38b1b29e52d7cfe2ff7d7d6568525685fc1340121039b66f3322986f68c94b80fad66a23fb007dc0decc8f400e375073221a814e4b314490800", "vin": [{"txinwitness": ["304402205e65b4801967b3ba2e76bbaaee204353671810fe9e3bcb4db6f138507d4539d00220070764af961827faf0fcc34044604ffd42fd95a893e329dcf572f1f2d7a357c701", "03a662374eb6a4b4273099d48e4b52778e3fdaf4e6dd618724107b33bf62242989"], "sequence": 4294967294, "scriptSig": {"hex": "16001449af6a6b05c79c526b04434b7b7b520a0a1af286", "asm": "001449af6a6b05c79c526b04434b7b7b520a0a1af286"}, "vout": 23, "txid": "f73db797d1efd6f73928a30ced0214fc81c47fa8bd51a4dd029cb99ce4136747"}, {"txinwitness": ["3044022051de0ff3dfe3a32f85d0fc2c05ac503ea305d1f528b40678370ce5e35c7d43a102204e1a7a38dc8bf239b45036355ff38b1b29e52d7cfe2ff7d7d6568525685fc13401", "039b66f3322986f68c94b80fad66a23fb007dc0decc8f400e375073221a814e4b3"], "sequence": 4294967294, "scriptSig": {"hex": "160014233e05a294cf82b08e3df90d258de9a6fab29b05", "asm": "0014233e05a294cf82b08e3df90d258de9a6fab29b05"}, "vout": 1, "txid": "7bbff10ffb46aa36cf7c2d140d955917d063e30e2a1a36aa3bff4ddab10e73fd"}], "txid": "84c6f969799c34076c6b684d5fae196168b67b9da8a4fd9b520981b26855e1bd", "blocktime": 1537873891, "version": 2, "confirmations": 11478, "time": 1537873891, "locktime": 542996, "vsize": 258, "size": 420}