{"hash": "84cbfe852eccbf3aef370d999b16e478a54d295f9dc0b4fdf5b8a2fb6b9584b8", "blockhash": "0000000000000000000dcc0f55137456b1a82d3642486a52398922ac4d620174", "vout": [{"scriptPubKey": {"reqSigs": 1, "hex": "76a914968b8ef43fd688e2a02110c72e603f570be1210688ac", "addresses": ["1Ej1YTsBZpPLNgpDu3qKrExtKcfeu2KWKs"], "asm": "OP_DUP OP_HASH160 968b8ef43fd688e2a02110c72e603f570be12106 OP_EQUALVERIFY OP_CHECKSIG", "type": "pubkeyhash"}, "value": 0.00956949, "n": 0}, {"scriptPubKey": {"reqSigs": 1, "hex": "a91445cd2ca033ce65d10bad65ea6d76b8685b8c2ca687", "addresses": ["3846LYNWAs8au8Z7xwyKGTRmdNvXp6vSXG"], "asm": "OP_HASH160 45cd2ca033ce65d10bad65ea6d76b8685b8c2ca6 OP_EQUAL", "type": "scripthash"}, "value": 0.03, "n": 1}], "hex": "0100000003c056696d78c4bd2bb787d8afeb4ec910089bf731af0113a12f75385943315b9d000000006a47304402203b0654b32b80948393d74c0b940189d9263018a242f01ef92fd992214894f1ce022016e50a1e8c5d1f6d433083b5e751270930ee9fc8c5d3d12e5c08604ad3a7f7b4012102a5f540f8d33f27effe323de4379f14d363eb144a9f2cc4cfee0949cd3df031ffffffffffd9be9e31bc8c6d6ee0f0dbb0ecb502c08fad2d03396fb7bb931c16a245fe1bad010000006a47304402205fa4c2e63ca1c3f8622b7ee51a40c545750c9012c266b3f1a4dacefc7ce3833c02207f5a57f155c51941d40ee96fb35ebdc19ca4fb5646ce0d4a6d08ebe8adeb6b90012102eb0b1411c752f5f1cf91a279bfd6c2fe8fc8aad71bb83e8c4cb08787db9ee5a8ffffffff4e72d7fa611f4dc034bd278fb1341917d7629e195f8232f7031ec596a7629cb5000000006b483045022100db1b74d11b4132552e8b4c6c226cc576ca2784e756f7faea562525abffd70df0022059bae460be1b2e410f35daf82e8c9223095501b79cedbe61a58c9b2f6149e0550121037963f6f2148a910e43b9b515c8d46fb8f8f7384f2fbbf1f235058d31ba3d5a51ffffffff02159a0e00000000001976a914968b8ef43fd688e2a02110c72e603f570be1210688acc0c62d000000000017a91445cd2ca033ce65d10bad65ea6d76b8685b8c2ca68700000000", "vin": [{"sequence": 4294967295, "scriptSig": {"hex": "47304402203b0654b32b80948393d74c0b940189d9263018a242f01ef92fd992214894f1ce022016e50a1e8c5d1f6d433083b5e751270930ee9fc8c5d3d12e5c08604ad3a7f7b4012102a5f540f8d33f27effe323de4379f14d363eb144a9f2cc4cfee0949cd3df031ff", "asm": "304402203b0654b32b80948393d74c0b940189d9263018a242f01ef92fd992214894f1ce022016e50a1e8c5d1f6d433083b5e751270930ee9fc8c5d3d12e5c08604ad3a7f7b4[ALL] 02a5f540f8d33f27effe323de4379f14d363eb144a9f2cc4cfee0949cd3df031ff"}, "vout": 0, "txid": "9d5b31435938752fa11301af31f79b0810c94eebafd887b72bbdc4786d6956c0"}, {"sequence": 4294967295, "scriptSig": {"hex": "47304402205fa4c2e63ca1c3f8622b7ee51a40c545750c9012c266b3f1a4dacefc7ce3833c02207f5a57f155c51941d40ee96fb35ebdc19ca4fb5646ce0d4a6d08ebe8adeb6b90012102eb0b1411c752f5f1cf91a279bfd6c2fe8fc8aad71bb83e8c4cb08787db9ee5a8", "asm": "304402205fa4c2e63ca1c3f8622b7ee51a40c545750c9012c266b3f1a4dacefc7ce3833c02207f5a57f155c51941d40ee96fb35ebdc19ca4fb5646ce0d4a6d08ebe8adeb6b90[ALL] 02eb0b1411c752f5f1cf91a279bfd6c2fe8fc8aad71bb83e8c4cb08787db9ee5a8"}, "vout": 1, "txid": "ad1bfe45a2161c93bbb76f39032dad8fc002b5ecb0dbf0e06e6d8cbc319ebed9"}, {"sequence": 4294967295, "scriptSig": {"hex": "483045022100db1b74d11b4132552e8b4c6c226cc576ca2784e756f7faea562525abffd70df0022059bae460be1b2e410f35daf82e8c9223095501b79cedbe61a58c9b2f6149e0550121037963f6f2148a910e43b9b515c8d46fb8f8f7384f2fbbf1f235058d31ba3d5a51", "asm": "3045022100db1b74d11b4132552e8b4c6c226cc576ca2784e756f7faea562525abffd70df0022059bae460be1b2e410f35daf82e8c9223095501b79cedbe61a58c9b2f6149e055[ALL] 037963f6f2148a910e43b9b515c8d46fb8f8f7384f2fbbf1f235058d31ba3d5a51"}, "vout": 0, "txid": "b59c62a796c51e03f732825f199e62d7171934b18f27bd34c04d1f61fad7724e"}], "txid": "84cbfe852eccbf3aef370d999b16e478a54d295f9dc0b4fdf5b8a2fb6b9584b8", "blocktime": 1537870268, "version": 1, "confirmations": 11518, "time": 1537870268, "locktime": 0, "vsize": 518, "size": 518}