{"hash": "84cefc0c0f355a0c9698bd44f5e8b4c3d769e7f187ec5d8a6a02abb45c56374d", "blockhash": "00000000000000000004ffacab907a6b429b9a5745fa0b75af4234bf69dd7176", "vout": [{"scriptPubKey": {"reqSigs": 1, "hex": "a9144b82f726c646c372701af0368ad63241fea3881887", "addresses": ["38aHVZxRCDtd2YkFD7V9WJXHgVRorymrQy"], "asm": "OP_HASH160 4b82f726c646c372701af0368ad63241fea38818 OP_EQUAL", "type": "scripthash"}, "value": 0.02999789, "n": 0}, {"scriptPubKey": {"reqSigs": 1, "hex": "76a914c583af1a676c34b47a87bfacd1cd308ff462c1bf88ac", "addresses": ["1K1MsMbVmkVnn1x4FbbxxLbtRaf17wi2KG"], "asm": "OP_DUP OP_HASH160 c583af1a676c34b47a87bfacd1cd308ff462c1bf OP_EQUALVERIFY OP_CHECKSIG", "type": "pubkeyhash"}, "value": 0.00109901, "n": 1}], "hex": "0100000006b9f15c1bb483951b549e8e333f69f9c0179646f2a488d4dc4a4a5f45f267161c010000006b483045022100c988c57f9e884a56cf73b3b93a5f68a2d8f379df381fba1e225f81865edbef5402201387753161f9dcbf86c13346f563114b7cf17c69fd2fbdd476c1f282149bfa55012102bede2c1a00438a5fe03100a1be594b3cc5800abeadcda101b1f9cfb868bc0abeffffffff6750655aa71ad2ec444b3b5e143a22ea89df40139a19f84bed8ed44a91375437190000006a47304402207fa0e3d84ff74b3814b438bf93795d6b97bfc22eea1f9f3af53cf636022205aa02206f0776273908e000f4838ce958ddea2945fce2af61430ebe07c2ea2c3e07a88801210248a9f23d5e99b5478a2c380fc94fe2fdd2ac62a77d2a5dfa425c53485f0eb7fbffffffff2d55eeb24fe830ad313cc492d9524cef071660ed111047ea3711a308e73ac297100000006b483045022100c10830ff6532db2c2c2257a40f9a32340bba0f535f88405bd64bebf6e1a2d23e022023b750dd64146c891abdbd57ae7bce6f69e2cce31bc770044a58a2b227f2a2fd0121025a569db5335434134c7a39b1a7377f6286b7711fccf15023b9e0a8714d74df9dffffffff2cd50d9a3c63f03ff255ef96c9ff90b0288a34666935efb1d457eb43426254e1070000006b483045022100b88c24c0d4bb91f6c45f1ec1793ff86760a85bf28a6df8c70c36f46bcf12fbdf02201566dbf1f3f8d88879923b5b35226f6f7b4386bb702f26cf259d4302fb521cbc01210248a9f23d5e99b5478a2c380fc94fe2fdd2ac62a77d2a5dfa425c53485f0eb7fbffffffff274c3e7ad70bc4d1b4a91a3e3649995760b388a1aa6b11a538852728cb789a45070000006b483045022100a181792542127298b9cadde5984f453e3af0b9015d8f2408ef4c7c16a021f61302202547f9e6bc9cb2a3434a385be5d64ddfe9cece853f25780a274b8ae9600c1d0b012102bede2c1a00438a5fe03100a1be594b3cc5800abeadcda101b1f9cfb868bc0abeffffffff4767ce1241b6d1f8d2ce86b17fab56164b269b04116c363fd2e6886431cf848b150000006b4830450221008649f65b6646436c6fe9e871f49148c645eff04284ac426677d065d63cb69d3002204162bc17a2d85e6e37f746962ade21012314930806d14be1675bc82316a0e67c0121025a569db5335434134c7a39b1a7377f6286b7711fccf15023b9e0a8714d74df9dffffffff02edc52d000000000017a9144b82f726c646c372701af0368ad63241fea38818874dad0100000000001976a914c583af1a676c34b47a87bfacd1cd308ff462c1bf88ac00000000", "vin": [{"sequence": 4294967295, "scriptSig": {"hex": "483045022100c988c57f9e884a56cf73b3b93a5f68a2d8f379df381fba1e225f81865edbef5402201387753161f9dcbf86c13346f563114b7cf17c69fd2fbdd476c1f282149bfa55012102bede2c1a00438a5fe03100a1be594b3cc5800abeadcda101b1f9cfb868bc0abe", "asm": "3045022100c988c57f9e884a56cf73b3b93a5f68a2d8f379df381fba1e225f81865edbef5402201387753161f9dcbf86c13346f563114b7cf17c69fd2fbdd476c1f282149bfa55[ALL] 02bede2c1a00438a5fe03100a1be594b3cc5800abeadcda101b1f9cfb868bc0abe"}, "vout": 1, "txid": "1c1667f2455f4a4adcd488a4f2469617c0f9693f338e9e541b9583b41b5cf1b9"}, {"sequence": 4294967295, "scriptSig": {"hex": "47304402207fa0e3d84ff74b3814b438bf93795d6b97bfc22eea1f9f3af53cf636022205aa02206f0776273908e000f4838ce958ddea2945fce2af61430ebe07c2ea2c3e07a88801210248a9f23d5e99b5478a2c380fc94fe2fdd2ac62a77d2a5dfa425c53485f0eb7fb", "asm": "304402207fa0e3d84ff74b3814b438bf93795d6b97bfc22eea1f9f3af53cf636022205aa02206f0776273908e000f4838ce958ddea2945fce2af61430ebe07c2ea2c3e07a888[ALL] 0248a9f23d5e99b5478a2c380fc94fe2fdd2ac62a77d2a5dfa425c53485f0eb7fb"}, "vout": 25, "txid": "375437914ad48eed4bf8199a1340df89ea223a145e3b4b44ecd21aa75a655067"}, {"sequence": 4294967295, "scriptSig": {"hex": "483045022100c10830ff6532db2c2c2257a40f9a32340bba0f535f88405bd64bebf6e1a2d23e022023b750dd64146c891abdbd57ae7bce6f69e2cce31bc770044a58a2b227f2a2fd0121025a569db5335434134c7a39b1a7377f6286b7711fccf15023b9e0a8714d74df9d", "asm": "3045022100c10830ff6532db2c2c2257a40f9a32340bba0f535f88405bd64bebf6e1a2d23e022023b750dd64146c891abdbd57ae7bce6f69e2cce31bc770044a58a2b227f2a2fd[ALL] 025a569db5335434134c7a39b1a7377f6286b7711fccf15023b9e0a8714d74df9d"}, "vout": 16, "txid": "97c23ae708a31137ea471011ed601607ef4c52d992c43c31ad30e84fb2ee552d"}, {"sequence": 4294967295, "scriptSig": {"hex": "483045022100b88c24c0d4bb91f6c45f1ec1793ff86760a85bf28a6df8c70c36f46bcf12fbdf02201566dbf1f3f8d88879923b5b35226f6f7b4386bb702f26cf259d4302fb521cbc01210248a9f23d5e99b5478a2c380fc94fe2fdd2ac62a77d2a5dfa425c53485f0eb7fb", "asm": "3045022100b88c24c0d4bb91f6c45f1ec1793ff86760a85bf28a6df8c70c36f46bcf12fbdf02201566dbf1f3f8d88879923b5b35226f6f7b4386bb702f26cf259d4302fb521cbc[ALL] 0248a9f23d5e99b5478a2c380fc94fe2fdd2ac62a77d2a5dfa425c53485f0eb7fb"}, "vout": 7, "txid": "e154624243eb57d4b1ef356966348a28b090ffc996ef55f23ff0633c9a0dd52c"}, {"sequence": 4294967295, "scriptSig": {"hex": "483045022100a181792542127298b9cadde5984f453e3af0b9015d8f2408ef4c7c16a021f61302202547f9e6bc9cb2a3434a385be5d64ddfe9cece853f25780a274b8ae9600c1d0b012102bede2c1a00438a5fe03100a1be594b3cc5800abeadcda101b1f9cfb868bc0abe", "asm": "3045022100a181792542127298b9cadde5984f453e3af0b9015d8f2408ef4c7c16a021f61302202547f9e6bc9cb2a3434a385be5d64ddfe9cece853f25780a274b8ae9600c1d0b[ALL] 02bede2c1a00438a5fe03100a1be594b3cc5800abeadcda101b1f9cfb868bc0abe"}, "vout": 7, "txid": "459a78cb28278538a5116baaa188b360579949363e1aa9b4d1c40bd77a3e4c27"}, {"sequence": 4294967295, "scriptSig": {"hex": "4830450221008649f65b6646436c6fe9e871f49148c645eff04284ac426677d065d63cb69d3002204162bc17a2d85e6e37f746962ade21012314930806d14be1675bc82316a0e67c0121025a569db5335434134c7a39b1a7377f6286b7711fccf15023b9e0a8714d74df9d", "asm": "30450221008649f65b6646436c6fe9e871f49148c645eff04284ac426677d065d63cb69d3002204162bc17a2d85e6e37f746962ade21012314930806d14be1675bc82316a0e67c[ALL] 025a569db5335434134c7a39b1a7377f6286b7711fccf15023b9e0a8714d74df9d"}, "vout": 21, "txid": "8b84cf316488e6d23f366c11049b264b1656ab7fb186ced2f8d1b64112ce6747"}], "txid": "84cefc0c0f355a0c9698bd44f5e8b4c3d769e7f187ec5d8a6a02abb45c56374d", "blocktime": 1537875543, "version": 1, "confirmations": 11464, "time": 1537875543, "locktime": 0, "vsize": 963, "size": 963}