{"hash": "84cf723966b1c5061f0dd904db628d667ed31adfe1e18b9772898ed984ff1658", "blockhash": "0000000000000000000dcc0f55137456b1a82d3642486a52398922ac4d620174", "vout": [{"scriptPubKey": {"reqSigs": 1, "hex": "76a9141e596aa955eaece8039559306f284eb5f4c6ee0e88ac", "addresses": ["13mUPXt4HYzgcfXD2cSBkN4XfmrdrHyKD7"], "asm": "OP_DUP OP_HASH160 1e596aa955eaece8039559306f284eb5f4c6ee0e OP_EQUALVERIFY OP_CHECKSIG", "type": "pubkeyhash"}, "value": 0.091792, "n": 0}, {"scriptPubKey": {"reqSigs": 1, "hex": "76a91405e74f15d322cbbbc4813495a06e03a6295bb07388ac", "addresses": ["1YDUawQZ8NNUY7fPWBCM9EG63SQeuSYuL"], "asm": "OP_DUP OP_HASH160 05e74f15d322cbbbc4813495a06e03a6295bb073 OP_EQUALVERIFY OP_CHECKSIG", "type": "pubkeyhash"}, "value": 0.02318156, "n": 1}], "hex": "01000000016e51f3ca7e749ab1ed0448b29629ef87f9179069e35c08b4d8f4f3b568280189010000006b48304502210093edba431822d907fdb601f29229123a57071e5cfefeb24d3d5cc3d3c6c4daae0220561c36755e5c87c8b4ed1936c9121062fbe156ace468a22fa26713f74d15d96e012102e7933c37fabae16bfd98a5dfc643729c98e76fc9e9d1b5976ebdecf9f97ee475ffffffff0240108c00000000001976a9141e596aa955eaece8039559306f284eb5f4c6ee0e88ac4c5f2300000000001976a91405e74f15d322cbbbc4813495a06e03a6295bb07388ac00000000", "vin": [{"sequence": 4294967295, "scriptSig": {"hex": "48304502210093edba431822d907fdb601f29229123a57071e5cfefeb24d3d5cc3d3c6c4daae0220561c36755e5c87c8b4ed1936c9121062fbe156ace468a22fa26713f74d15d96e012102e7933c37fabae16bfd98a5dfc643729c98e76fc9e9d1b5976ebdecf9f97ee475", "asm": "304502210093edba431822d907fdb601f29229123a57071e5cfefeb24d3d5cc3d3c6c4daae0220561c36755e5c87c8b4ed1936c9121062fbe156ace468a22fa26713f74d15d96e[ALL] 02e7933c37fabae16bfd98a5dfc643729c98e76fc9e9d1b5976ebdecf9f97ee475"}, "vout": 1, "txid": "89012868b5f3f4d8b4085ce3699017f987ef2996b24804edb19a747ecaf3516e"}], "txid": "84cf723966b1c5061f0dd904db628d667ed31adfe1e18b9772898ed984ff1658", "blocktime": 1537870268, "version": 1, "confirmations": 11518, "time": 1537870268, "locktime": 0, "vsize": 226, "size": 226}