{"hash": "84d3c0a9f188602902e66af19eb42132321be8a21d299d68de8c2d5ba8ffd462", "blockhash": "0000000000000000000dcc0f55137456b1a82d3642486a52398922ac4d620174", "vout": [{"scriptPubKey": {"reqSigs": 1, "hex": "a91491547d2a48b52c86adba4dd0546909690990662f87", "addresses": ["3EwT7kcJQxLbwXyFpRZ1MP8JPeF4deEsVH"], "asm": "OP_HASH160 91547d2a48b52c86adba4dd0546909690990662f OP_EQUAL", "type": "scripthash"}, "value": 0.00320497, "n": 0}, {"scriptPubKey": {"reqSigs": 1, "hex": "76a91496288c5cfcce1fec8aa434ca60940dfc4e9e4d2c88ac", "addresses": ["1Egxw7vhtV68wTA23U7K9wZMPxMiWUb6X1"], "asm": "OP_DUP OP_HASH160 96288c5cfcce1fec8aa434ca60940dfc4e9e4d2c OP_EQUALVERIFY OP_CHECKSIG", "type": "pubkeyhash"}, "value": 0.01377973, "n": 1}], "hex": "0100000001bde8eadbc2e63c917d32c246a2d5252f851aedd68b3b8ea159c174f93d69314b010000006b483045022100ebd29c13bc8e47043a9ecd0d0c22bc60f88bd7ce9a5f61679434c3e3692c46cb02205512e9736879470975d68b24558ebc122b8aa30d49c95d6384814cdb23bd64a50121038d9f8933d3b9a32592fbd8939f52c9d3a322ae9b4f98ee76890e641458cb97efffffffff02f1e304000000000017a91491547d2a48b52c86adba4dd0546909690990662f87b5061500000000001976a91496288c5cfcce1fec8aa434ca60940dfc4e9e4d2c88ac00000000", "vin": [{"sequence": 4294967295, "scriptSig": {"hex": "483045022100ebd29c13bc8e47043a9ecd0d0c22bc60f88bd7ce9a5f61679434c3e3692c46cb02205512e9736879470975d68b24558ebc122b8aa30d49c95d6384814cdb23bd64a50121038d9f8933d3b9a32592fbd8939f52c9d3a322ae9b4f98ee76890e641458cb97ef", "asm": "3045022100ebd29c13bc8e47043a9ecd0d0c22bc60f88bd7ce9a5f61679434c3e3692c46cb02205512e9736879470975d68b24558ebc122b8aa30d49c95d6384814cdb23bd64a5[ALL] 038d9f8933d3b9a32592fbd8939f52c9d3a322ae9b4f98ee76890e641458cb97ef"}, "vout": 1, "txid": "4b31693df974c159a18e3b8bd6ed1a852f25d5a246c2327d913ce6c2dbeae8bd"}], "txid": "84d3c0a9f188602902e66af19eb42132321be8a21d299d68de8c2d5ba8ffd462", "blocktime": 1537870268, "version": 1, "confirmations": 11516, "time": 1537870268, "locktime": 0, "vsize": 224, "size": 224}