{"hash": "87cb53b80300fa028699c93f55eae12a3b548a461de0c22aeecae1c4be415258", "blockhash": "0000000000000000000dcc0f55137456b1a82d3642486a52398922ac4d620174", "vout": [{"scriptPubKey": {"reqSigs": 1, "hex": "0014f514960b8f735c05322623c61599c990837472f9", "addresses": ["bc1q752fvzu0wdwq2v3xy0rptxwfjzphguhetl5auq"], "asm": "0 f514960b8f735c05322623c61599c990837472f9", "type": "witness_v0_keyhash"}, "value": 0.02694071, "n": 0}, {"scriptPubKey": {"reqSigs": 1, "hex": "76a9143a91f3b0ef33a1b929a15b5f8eeb2ff4d47cb86c88ac", "addresses": ["16Lh33WV9dJ9G2G3T3ihK1uLZ1DuhUL58L"], "asm": "OP_DUP OP_HASH160 3a91f3b0ef33a1b929a15b5f8eeb2ff4d47cb86c OP_EQUALVERIFY OP_CHECKSIG", "type": "pubkeyhash"}, "value": 0.03924341, "n": 1}], "hex": "010000000001012a60f9f96e4f4a69ba16cdf519c3be981faaa50510afa1b2ed17edf455f63c92000000001716001450e49287a381e31ac4d16d396a44ab6d093b44eaffffffff02b71b290000000000160014f514960b8f735c05322623c61599c990837472f975e13b00000000001976a9143a91f3b0ef33a1b929a15b5f8eeb2ff4d47cb86c88ac0247304402203410a01b634fb0a1dbd73f5a261361a754095f40badb5c9e79a34b0e45e5954a02207d0dd2cebc57d687c9e153ad5645d96c2e702a1f278d477d2b7fbe53d36ca9240121037b42f6e8f22488ee3ede9fae50091492b673578bfa485cadf40fbd783e6d3e3c00000000", "vin": [{"txinwitness": ["304402203410a01b634fb0a1dbd73f5a261361a754095f40badb5c9e79a34b0e45e5954a02207d0dd2cebc57d687c9e153ad5645d96c2e702a1f278d477d2b7fbe53d36ca92401", "037b42f6e8f22488ee3ede9fae50091492b673578bfa485cadf40fbd783e6d3e3c"], "sequence": 4294967295, "scriptSig": {"hex": "16001450e49287a381e31ac4d16d396a44ab6d093b44ea", "asm": "001450e49287a381e31ac4d16d396a44ab6d093b44ea"}, "vout": 0, "txid": "923cf655f4ed17edb2a1af1005a5aa1f98bec319f5cd16ba694a4f6ef9f9602a"}], "txid": "84d5746ad6784a51b871504ad05db2ad934972f90abab6c8be2189c53ca78cf2", "blocktime": 1537870268, "version": 1, "confirmations": 11518, "time": 1537870268, "locktime": 0, "vsize": 167, "size": 248}