{"hash": "84d535952cb954b82d0cac06e0b4bf645cbe9743a5ee178604bdea36f4047b4a", "blockhash": "00000000000000000004ffacab907a6b429b9a5745fa0b75af4234bf69dd7176", "vout": [{"scriptPubKey": {"reqSigs": 1, "hex": "76a914f4a92e7463a6218c178a40f647b9da4eb25c9ae388ac", "addresses": ["1PJeYjxzLNM6VztkBuDkvVPBvjtwvw4qdN"], "asm": "OP_DUP OP_HASH160 f4a92e7463a6218c178a40f647b9da4eb25c9ae3 OP_EQUALVERIFY OP_CHECKSIG", "type": "pubkeyhash"}, "value": 0.0156248, "n": 0}, {"scriptPubKey": {"reqSigs": 1, "hex": "76a9145196a9389a2c0b49ed4cc9ba27ed5cbb022f92c588ac", "addresses": ["18SQDefjw6Xzhy15j5MyyTwd6Va9dMLQgx"], "asm": "OP_DUP OP_HASH160 5196a9389a2c0b49ed4cc9ba27ed5cbb022f92c5 OP_EQUALVERIFY OP_CHECKSIG", "type": "pubkeyhash"}, "value": 0.09001248, "n": 1}], "hex": "01000000010a00a8029a0c2b730fc26ea5675a79e25733c3feeb12792ba186e8a8827d925a010000006a47304402204adf68aa12b1d815b0500639c9b4cd642b65e80d6c634436ecfee26b49ccf5a60220264d3b69d4aca1197d19634f005f4e03077c2fa9c3317abefd5395411f27c9070121031b0bfa314dfd16e5fa5fa7bd9a9d45e196d870970735a37879cd697503b6488bffffffff0270d71700000000001976a914f4a92e7463a6218c178a40f647b9da4eb25c9ae388ac20598900000000001976a9145196a9389a2c0b49ed4cc9ba27ed5cbb022f92c588ac00000000", "vin": [{"sequence": 4294967295, "scriptSig": {"hex": "47304402204adf68aa12b1d815b0500639c9b4cd642b65e80d6c634436ecfee26b49ccf5a60220264d3b69d4aca1197d19634f005f4e03077c2fa9c3317abefd5395411f27c9070121031b0bfa314dfd16e5fa5fa7bd9a9d45e196d870970735a37879cd697503b6488b", "asm": "304402204adf68aa12b1d815b0500639c9b4cd642b65e80d6c634436ecfee26b49ccf5a60220264d3b69d4aca1197d19634f005f4e03077c2fa9c3317abefd5395411f27c907[ALL] 031b0bfa314dfd16e5fa5fa7bd9a9d45e196d870970735a37879cd697503b6488b"}, "vout": 1, "txid": "5a927d82a8e886a12b7912ebfec33357e2795a67a56ec20f732b0c9a02a8000a"}], "txid": "84d535952cb954b82d0cac06e0b4bf645cbe9743a5ee178604bdea36f4047b4a", "blocktime": 1537875543, "version": 1, "confirmations": 11464, "time": 1537875543, "locktime": 0, "vsize": 225, "size": 225}