{"hash": "84d6fcbacf3a8787b191aacaf000f2d2cf0163142cc73f1129f9e76e00f76db5", "blockhash": "0000000000000000001f0ddff1eddb255c1121bcd4da4f1bc9a0da00cae72433", "vout": [{"scriptPubKey": {"type": "nulldata", "hex": "6a4c50000077ab0001de4825a21dd09bb4255e0444af6c953dd567cf27e7e3ef3236678a625097ab00a67cb3161ad038029740894688805baa103a0612e31d5a47cc754bbf23acfcfaac8058b692fe6808c31d", "asm": "OP_RETURN 000077ab0001de4825a21dd09bb4255e0444af6c953dd567cf27e7e3ef3236678a625097ab00a67cb3161ad038029740894688805baa103a0612e31d5a47cc754bbf23acfcfaac8058b692fe6808c31d"}, "value": 0.0, "n": 0}, {"scriptPubKey": {"reqSigs": 1, "hex": "76a9147c961545cc7bfb2cf3e53b9074c09ae9016caf3088ac", "addresses": ["1CMkak7X4DCeU74NZkWJUFNixSnqijynxa"], "asm": "OP_DUP OP_HASH160 7c961545cc7bfb2cf3e53b9074c09ae9016caf30 OP_EQUALVERIFY OP_CHECKSIG", "type": "pubkeyhash"}, "value": 0.00020575, "n": 1}], "hex": "0100000001d029384fbd0c8d3cfc2389bf685f9f7d93ca4e421dabbf8df71be631f179fb46000000006b483045022100eabce0a406b969e77c65c6f6da12b71d317257d46b81a78e5b55ef227fa45fb002203e550d35e019c221acf1434c8641dd4bb3f7f563505d746803faa1ea10fdacec0121028b71b1046be0a904f1b07c5a502409d4172912c827f872e31c4ddcb10164281fffffffff020000000000000000536a4c50000077ab0001de4825a21dd09bb4255e0444af6c953dd567cf27e7e3ef3236678a625097ab00a67cb3161ad038029740894688805baa103a0612e31d5a47cc754bbf23acfcfaac8058b692fe6808c31d5f500000000000001976a9147c961545cc7bfb2cf3e53b9074c09ae9016caf3088ac00000000", "vin": [{"sequence": 4294967295, "scriptSig": {"hex": "483045022100eabce0a406b969e77c65c6f6da12b71d317257d46b81a78e5b55ef227fa45fb002203e550d35e019c221acf1434c8641dd4bb3f7f563505d746803faa1ea10fdacec0121028b71b1046be0a904f1b07c5a502409d4172912c827f872e31c4ddcb10164281f", "asm": "3045022100eabce0a406b969e77c65c6f6da12b71d317257d46b81a78e5b55ef227fa45fb002203e550d35e019c221acf1434c8641dd4bb3f7f563505d746803faa1ea10fdacec[ALL] 028b71b1046be0a904f1b07c5a502409d4172912c827f872e31c4ddcb10164281f"}, "vout": 0, "txid": "46fb79f131e61bf78dbfab1d424eca937d9f5f68bf8923fc3c8d0cbd4f3829d0"}], "txid": "84d6fcbacf3a8787b191aacaf000f2d2cf0163142cc73f1129f9e76e00f76db5", "blocktime": 1537872018, "version": 1, "confirmations": 11489, "time": 1537872018, "locktime": 0, "vsize": 284, "size": 284}