{"hash": "84d9ec03d6a018a55c4c11aae052a307dde1ba093dd30965f2881992989f8ace", "blockhash": "00000000000000000018f53835495a110e01622372bf6ae95dc86f2b0ab887b0", "vout": [{"scriptPubKey": {"reqSigs": 1, "hex": "76a914bc94376ec1116745ba6a61202fbc33f6d6899e6d88ac", "addresses": ["1JC7bL7BLhci3K1k3eZG4GwCC5tUaRoJFc"], "asm": "OP_DUP OP_HASH160 bc94376ec1116745ba6a61202fbc33f6d6899e6d OP_EQUALVERIFY OP_CHECKSIG", "type": "pubkeyhash"}, "value": 0.23314163, "n": 0}, {"scriptPubKey": {"reqSigs": 1, "hex": "76a914f7b4f98fa8f5a61451f7f7b33ab1b36c4564c54d88ac", "addresses": ["1Pakhjdbxoc1pjGXjxPq77Zt5LQPToEuXE"], "asm": "OP_DUP OP_HASH160 f7b4f98fa8f5a61451f7f7b33ab1b36c4564c54d OP_EQUALVERIFY OP_CHECKSIG", "type": "pubkeyhash"}, "value": 0.031297, "n": 1}], "hex": "01000000010461ffe522d8418a290a672f8a09e3f1a3ad9b1c01ef8dd41ffb3a29d4d1a5c9010000006a47304402204c9bcfec9c29129e14d639589983ecf6b77e49aa24a0b2d0f361f17795ffeb930220786a9f3eac512913bd43176e032bf190931c2bfe36c8c32f15b5b0478459a2e6012102010c3a52c1b17f9df37dae48cc4e2528aa2b40617b17ff25c6db926e40c4396affffffff02f3be6301000000001976a914bc94376ec1116745ba6a61202fbc33f6d6899e6d88ac64c12f00000000001976a914f7b4f98fa8f5a61451f7f7b33ab1b36c4564c54d88ac00000000", "vin": [{"sequence": 4294967295, "scriptSig": {"hex": "47304402204c9bcfec9c29129e14d639589983ecf6b77e49aa24a0b2d0f361f17795ffeb930220786a9f3eac512913bd43176e032bf190931c2bfe36c8c32f15b5b0478459a2e6012102010c3a52c1b17f9df37dae48cc4e2528aa2b40617b17ff25c6db926e40c4396a", "asm": "304402204c9bcfec9c29129e14d639589983ecf6b77e49aa24a0b2d0f361f17795ffeb930220786a9f3eac512913bd43176e032bf190931c2bfe36c8c32f15b5b0478459a2e6[ALL] 02010c3a52c1b17f9df37dae48cc4e2528aa2b40617b17ff25c6db926e40c4396a"}, "vout": 1, "txid": "c9a5d1d4293afb1fd48def011c9bada3f1e3098a2f670a298a41d822e5ff6104"}], "txid": "84d9ec03d6a018a55c4c11aae052a307dde1ba093dd30965f2881992989f8ace", "blocktime": 1537870928, "version": 1, "confirmations": 11514, "time": 1537870928, "locktime": 0, "vsize": 225, "size": 225}