{"hash": "8e9405b019c3706b7cba0dd1113333bf694e17a01d3746d4d8081bab05a87e20", "blockhash": "00000000000000000018f53835495a110e01622372bf6ae95dc86f2b0ab887b0", "vout": [{"scriptPubKey": {"reqSigs": 1, "hex": "a914f713c055bb5c01dc2a50047e2aeb73bf73b777e187", "addresses": ["3QDSVGfHQtJxEwJiye5CZ9EuEjvMdmbWKc"], "asm": "OP_HASH160 f713c055bb5c01dc2a50047e2aeb73bf73b777e1 OP_EQUAL", "type": "scripthash"}, "value": 0.68746886, "n": 0}, {"scriptPubKey": {"reqSigs": 1, "hex": "a9148f73fc6ced5bffee874ebc4f186f1208e6ec42ee87", "addresses": ["3EmXVpu5XE4VLuSntcjqFcF8fxY9semACg"], "asm": "OP_HASH160 8f73fc6ced5bffee874ebc4f186f1208e6ec42ee OP_EQUAL", "type": "scripthash"}, "value": 0.41272474, "n": 1}], "hex": "01000000000102baed8b8a1cf0749692920f9a179bb37ff8376df0d9cc72dd00f495d3e953b8490100000017160014b75afac533067b1307fde52e4b6c89acb9bfe0e5ffffff00f60bd580e54ba6a9743b9cf49ea206cda215f9dda7e6ae1cc6521160946b27e70100000017160014c6aae0e6185cadff94f698a00296a572430c3a86ffffff000286fe18040000000017a914f713c055bb5c01dc2a50047e2aeb73bf73b777e1879ac475020000000017a9148f73fc6ced5bffee874ebc4f186f1208e6ec42ee87024830450221008c0a1ff67b83f3086475e3774ccc4321e0b38b8af94242fae6ec24a7402312ce022062d4b39e006929ebd33b13a933aa786c2240f4a8566ab67993e724b3b6723083012103ae6979b522b930cdff69db9dd09397679d42b9f2622de6c8b4ef9ae0e002d41902473044022033c62b72133908ae38863677a7d2716f4ce7423be910ae7e6393130b7d9c30e8022064b0d56d8b98a9dc84b9950e00561ea758a772fcead521d78f2e56df906caf60012103bfbb5474378e21bab215bbb5e5469ac928d5a0912e9458c6b463ed5e6bb64bc500000000", "vin": [{"txinwitness": ["30450221008c0a1ff67b83f3086475e3774ccc4321e0b38b8af94242fae6ec24a7402312ce022062d4b39e006929ebd33b13a933aa786c2240f4a8566ab67993e724b3b672308301", "03ae6979b522b930cdff69db9dd09397679d42b9f2622de6c8b4ef9ae0e002d419"], "sequence": 16777215, "scriptSig": {"hex": "160014b75afac533067b1307fde52e4b6c89acb9bfe0e5", "asm": "0014b75afac533067b1307fde52e4b6c89acb9bfe0e5"}, "vout": 1, "txid": "49b853e9d395f400dd72ccd9f06d37f87fb39b179a0f92929674f01c8a8bedba"}, {"txinwitness": ["3044022033c62b72133908ae38863677a7d2716f4ce7423be910ae7e6393130b7d9c30e8022064b0d56d8b98a9dc84b9950e00561ea758a772fcead521d78f2e56df906caf6001", "03bfbb5474378e21bab215bbb5e5469ac928d5a0912e9458c6b463ed5e6bb64bc5"], "sequence": 16777215, "scriptSig": {"hex": "160014c6aae0e6185cadff94f698a00296a572430c3a86", "asm": "0014c6aae0e6185cadff94f698a00296a572430c3a86"}, "vout": 1, "txid": "e7276b94601152c61caee6a7ddf915a2cd06a29ef49c3b74a9a64be580d50bf6"}], "txid": "84e3123420ea30d912d0c268f477876f9b672972da2a384e82ec87748ab4e01b", "blocktime": 1537870928, "version": 1, "confirmations": 11512, "time": 1537870928, "locktime": 0, "vsize": 257, "size": 419}