{"hash": "84e57edbf0231dae30685f99ba0e6f6c0f7c80c8ba5027f779611fe3ce52fa56", "blockhash": "0000000000000000001cda96e906b7601b7a6fb1a3b62bca570a9e5d8f4b3de1", "vout": [{"scriptPubKey": {"reqSigs": 1, "hex": "a914c119cb6412225ec56890971608640fabcedd321687", "addresses": ["3KJ3EoMUZNqz637EQK7XzuL1eH12MioGeE"], "asm": "OP_HASH160 c119cb6412225ec56890971608640fabcedd3216 OP_EQUAL", "type": "scripthash"}, "value": 0.00554587, "n": 0}], "hex": "0100000002c4d4617180ec1490a01b3bb1288dc89e1257c8b40e8e283e6f909041692d83540f0000006b483045022100c42e50771ac00694642251c0481e0c312ba9ee669779b82a81dd857ece62b61b02202644686a75a24a972186204b6f6804caed2024c11a154674c3cf782fc03693d4012102c2116d49916c255b3d2b03fa95e83a14e1ec8948913a682a8571fa48ec75f831ffffffff2cd50d9a3c63f03ff255ef96c9ff90b0288a34666935efb1d457eb43426254e10e0000006b483045022100c9ab79c41d37a0dab31c4766a9999fa55b1b877c51de66e85370c975ad0aa4490220646f18206e0459b4bd230d1b42ba90f89c95759bc735c206436c40cb00e4913d012102c2116d49916c255b3d2b03fa95e83a14e1ec8948913a682a8571fa48ec75f831ffffffff015b7608000000000017a914c119cb6412225ec56890971608640fabcedd32168700000000", "vin": [{"sequence": 4294967295, "scriptSig": {"hex": "483045022100c42e50771ac00694642251c0481e0c312ba9ee669779b82a81dd857ece62b61b02202644686a75a24a972186204b6f6804caed2024c11a154674c3cf782fc03693d4012102c2116d49916c255b3d2b03fa95e83a14e1ec8948913a682a8571fa48ec75f831", "asm": "3045022100c42e50771ac00694642251c0481e0c312ba9ee669779b82a81dd857ece62b61b02202644686a75a24a972186204b6f6804caed2024c11a154674c3cf782fc03693d4[ALL] 02c2116d49916c255b3d2b03fa95e83a14e1ec8948913a682a8571fa48ec75f831"}, "vout": 15, "txid": "54832d694190906f3e288e0eb4c857129ec88d28b13b1ba09014ec807161d4c4"}, {"sequence": 4294967295, "scriptSig": {"hex": "483045022100c9ab79c41d37a0dab31c4766a9999fa55b1b877c51de66e85370c975ad0aa4490220646f18206e0459b4bd230d1b42ba90f89c95759bc735c206436c40cb00e4913d012102c2116d49916c255b3d2b03fa95e83a14e1ec8948913a682a8571fa48ec75f831", "asm": "3045022100c9ab79c41d37a0dab31c4766a9999fa55b1b877c51de66e85370c975ad0aa4490220646f18206e0459b4bd230d1b42ba90f89c95759bc735c206436c40cb00e4913d[ALL] 02c2116d49916c255b3d2b03fa95e83a14e1ec8948913a682a8571fa48ec75f831"}, "vout": 14, "txid": "e154624243eb57d4b1ef356966348a28b090ffc996ef55f23ff0633c9a0dd52c"}], "txid": "84e57edbf0231dae30685f99ba0e6f6c0f7c80c8ba5027f779611fe3ce52fa56", "blocktime": 1537873282, "version": 1, "confirmations": 11484, "time": 1537873282, "locktime": 0, "vsize": 338, "size": 338}