{"hash": "84e81128056ec5183945dbe279c9a5990068482eac44d66c44d3cbb21b6a0891", "blockhash": "0000000000000000000e13cef7c366c0283d82e591d1acd082e914b08063cdf1", "vout": [{"scriptPubKey": {"reqSigs": 1, "hex": "a91468fa38390d25039b8e69af51c29443088fec7cb087", "addresses": ["3BG5x4KqnEsBfZd4JEwwAAkMHJ9YFNX7kc"], "asm": "OP_HASH160 68fa38390d25039b8e69af51c29443088fec7cb0 OP_EQUAL", "type": "scripthash"}, "value": 0.003, "n": 0}, {"scriptPubKey": {"reqSigs": 1, "hex": "76a9144b390e32891a2276f87e60e843839d485adc214688ac", "addresses": ["17rk2fs2h3z5B5XU5Qz3fNuqu2cDnTERy3"], "asm": "OP_DUP OP_HASH160 4b390e32891a2276f87e60e843839d485adc2146 OP_EQUALVERIFY OP_CHECKSIG", "type": "pubkeyhash"}, "value": 0.08247288, "n": 1}], "hex": "0100000001ae45d51d1e1b99597717b547930e8309e9cdc3b8320234a69138f791c31062fd010000006a473044022020896a6e765490ef46985e37bf52d4b3b19bb94743f303b050d61db3451a27a50220276e5344f83b75fe156185dbccda1bd92347b0e73e60ee0a06e263067d1aa9550121021f6b3227303b12cadfa6c55cace7cd3b499b9924b9e1ff81d4a056324dac8276ffffffff02e09304000000000017a91468fa38390d25039b8e69af51c29443088fec7cb087f8d77d00000000001976a9144b390e32891a2276f87e60e843839d485adc214688ac00000000", "vin": [{"sequence": 4294967295, "scriptSig": {"hex": "473044022020896a6e765490ef46985e37bf52d4b3b19bb94743f303b050d61db3451a27a50220276e5344f83b75fe156185dbccda1bd92347b0e73e60ee0a06e263067d1aa9550121021f6b3227303b12cadfa6c55cace7cd3b499b9924b9e1ff81d4a056324dac8276", "asm": "3044022020896a6e765490ef46985e37bf52d4b3b19bb94743f303b050d61db3451a27a50220276e5344f83b75fe156185dbccda1bd92347b0e73e60ee0a06e263067d1aa955[ALL] 021f6b3227303b12cadfa6c55cace7cd3b499b9924b9e1ff81d4a056324dac8276"}, "vout": 1, "txid": "fd6210c391f73891a6340232b8c3cde909830e9347b5177759991b1e1dd545ae"}], "txid": "84e81128056ec5183945dbe279c9a5990068482eac44d66c44d3cbb21b6a0891", "blocktime": 1537871767, "version": 1, "confirmations": 11495, "time": 1537871767, "locktime": 0, "vsize": 223, "size": 223}