{"hash": "84f4a974c2a6f7fead7bd8802965a3330042e88b40df05d49202407b062ec79e", "blockhash": "0000000000000000001f0ddff1eddb255c1121bcd4da4f1bc9a0da00cae72433", "vout": [{"scriptPubKey": {"reqSigs": 1, "hex": "76a91403f6a5e7293c879a4b42385eff786ee02ce7b8e088ac", "addresses": ["1MxVz1vinWybxpZKS5vFesdbsKMmMSYvo"], "asm": "OP_DUP OP_HASH160 03f6a5e7293c879a4b42385eff786ee02ce7b8e0 OP_EQUALVERIFY OP_CHECKSIG", "type": "pubkeyhash"}, "value": 0.0002, "n": 0}, {"scriptPubKey": {"reqSigs": 1, "hex": "76a914f1e4a0c23042cc8fe1b44295b2c87368fe1b1aba88ac", "addresses": ["1P41jafnXX9t3h7NEA2ZJwt9nvWF6VBojE"], "asm": "OP_DUP OP_HASH160 f1e4a0c23042cc8fe1b44295b2c87368fe1b1aba OP_EQUALVERIFY OP_CHECKSIG", "type": "pubkeyhash"}, "value": 0.66108752, "n": 1}, {"scriptPubKey": {"type": "nulldata", "hex": "6a254d4700080489c5df6d3074535262a75f23114fb9b427d3194469a3e772d2d6dd7ecf8002d2", "asm": "OP_RETURN 4d4700080489c5df6d3074535262a75f23114fb9b427d3194469a3e772d2d6dd7ecf8002d2"}, "value": 0.0, "n": 2}], "hex": "01000000011089009d2ada94a2d75c457d5a69dd55abe251f0423e1a7035c5f7a666958779010000006b483045022100924d33235896ce8dc7b4c4b50089695cfd7d72f75ae85439340f55b392a66c7b02203805b7e808b513709f39c58cdc2da7bd1ba0a477090cdabfcbe0f9e91023dfb30121033ff37f08b4aef829d4fd8d9c6e20176af681280342230d036803a3848f41baedffffffff03204e0000000000001976a91403f6a5e7293c879a4b42385eff786ee02ce7b8e088ac50bdf003000000001976a914f1e4a0c23042cc8fe1b44295b2c87368fe1b1aba88ac0000000000000000276a254d4700080489c5df6d3074535262a75f23114fb9b427d3194469a3e772d2d6dd7ecf8002d200000000", "vin": [{"sequence": 4294967295, "scriptSig": {"hex": "483045022100924d33235896ce8dc7b4c4b50089695cfd7d72f75ae85439340f55b392a66c7b02203805b7e808b513709f39c58cdc2da7bd1ba0a477090cdabfcbe0f9e91023dfb30121033ff37f08b4aef829d4fd8d9c6e20176af681280342230d036803a3848f41baed", "asm": "3045022100924d33235896ce8dc7b4c4b50089695cfd7d72f75ae85439340f55b392a66c7b02203805b7e808b513709f39c58cdc2da7bd1ba0a477090cdabfcbe0f9e91023dfb3[ALL] 033ff37f08b4aef829d4fd8d9c6e20176af681280342230d036803a3848f41baed"}, "vout": 1, "txid": "79879566a6f7c535701a3e42f051e2ab55dd695a7d455cd7a294da2a9d008910"}], "txid": "84f4a974c2a6f7fead7bd8802965a3330042e88b40df05d49202407b062ec79e", "blocktime": 1537872018, "version": 1, "confirmations": 11489, "time": 1537872018, "locktime": 0, "vsize": 274, "size": 274}