{"hash": "3b2139bb73b9b3cb08e1ae49537ee59ba31a579c29c290fa1d2a016b149c3f4c", "blockhash": "0000000000000000000e13cef7c366c0283d82e591d1acd082e914b08063cdf1", "vout": [{"scriptPubKey": {"reqSigs": 1, "hex": "76a91494e9b58dfdd32c506d11002b88faf805522dd06988ac", "addresses": ["1EaNynrjy27kQCepsZwB4xuLfQEdKcA5Md"], "asm": "OP_DUP OP_HASH160 94e9b58dfdd32c506d11002b88faf805522dd069 OP_EQUALVERIFY OP_CHECKSIG", "type": "pubkeyhash"}, "value": 0.26942306, "n": 0}, {"scriptPubKey": {"reqSigs": 1, "hex": "00144a9b8fd6af5a933339b43e3232a339b48fb78208", "addresses": ["bc1qf2dcl440t2fnxwd58cer9geekj8m0qsg7kcmq7"], "asm": "0 4a9b8fd6af5a933339b43e3232a339b48fb78208", "type": "witness_v0_keyhash"}, "value": 0.62745369, "n": 1}], "hex": "010000000001017724d554f3cf983998ad12046bed88da67737194d405993ec74cc43f863614120100000000ffffffff02621b9b01000000001976a91494e9b58dfdd32c506d11002b88faf805522dd06988ac196bbd03000000001600144a9b8fd6af5a933339b43e3232a339b48fb7820802473044022043160c5c3510235150a108a45d89bf2ee13e2bc5b6b24bec34a5b0ac6070125602203b4baffa10e45fe1f7184c6390ebfc673f7f59f6e4ab38b0c39ba7b25e5dbcb9012102732568401c5be116c9faf2186e073707e6a0273a0fba331dfe5ad656cee3f0ef00000000", "vin": [{"txinwitness": ["3044022043160c5c3510235150a108a45d89bf2ee13e2bc5b6b24bec34a5b0ac6070125602203b4baffa10e45fe1f7184c6390ebfc673f7f59f6e4ab38b0c39ba7b25e5dbcb901", "02732568401c5be116c9faf2186e073707e6a0273a0fba331dfe5ad656cee3f0ef"], "sequence": 4294967295, "scriptSig": {"hex": "", "asm": ""}, "vout": 1, "txid": "121436863fc44cc73e9905d494717367da88ed6b0412ad983998cff354d52477"}], "txid": "850084157d147a7306761f331df52ded56dbdb885dccbab194affc864f34006a", "blocktime": 1537871767, "version": 1, "confirmations": 11495, "time": 1537871767, "locktime": 0, "vsize": 144, "size": 225}