{"hash": "8500cb4262b4a2ff9b8a9bb5e61ad0cfc366994935bb0afc0a3f89bbed7040dc", "blockhash": "00000000000000000018f53835495a110e01622372bf6ae95dc86f2b0ab887b0", "vout": [{"scriptPubKey": {"reqSigs": 1, "hex": "76a914a7b8c68151ae6b451432cd1b1d5bd10ab4c93bd788ac", "addresses": ["1GHqCTTy1BGYnozP2pCXZh6AE5P1A9jbpA"], "asm": "OP_DUP OP_HASH160 a7b8c68151ae6b451432cd1b1d5bd10ab4c93bd7 OP_EQUALVERIFY OP_CHECKSIG", "type": "pubkeyhash"}, "value": 0.00121239, "n": 0}, {"scriptPubKey": {"reqSigs": 1, "hex": "a9148b24d2ec2c953b0f9356f1fe7b2e13d9718e1ae187", "addresses": ["3ENjxn7vXRffcuEQ8WgFSbdhs9XApFdvNv"], "asm": "OP_HASH160 8b24d2ec2c953b0f9356f1fe7b2e13d9718e1ae1 OP_EQUAL", "type": "scripthash"}, "value": 0.00085419, "n": 1}], "hex": "01000000015519221b3c44abf2d76cab99f7cef29684c5884b054fa4f9fa9594dfd8f99cd9000000006b483045022100dd01ebc517de3976a67376850c6da031f9f988cd1bf9cf2fd88996abc5d130250220747eb1ee0cd35f33d9983436fc84546d86ee4acca2014ec8dbccb2a625c46d40012103a01a291d9eeb4195c22a0daab5099bd29a37ba6678980cf63aee6365f6994d76ffffffff0297d90100000000001976a914a7b8c68151ae6b451432cd1b1d5bd10ab4c93bd788acab4d01000000000017a9148b24d2ec2c953b0f9356f1fe7b2e13d9718e1ae18700000000", "vin": [{"sequence": 4294967295, "scriptSig": {"hex": "483045022100dd01ebc517de3976a67376850c6da031f9f988cd1bf9cf2fd88996abc5d130250220747eb1ee0cd35f33d9983436fc84546d86ee4acca2014ec8dbccb2a625c46d40012103a01a291d9eeb4195c22a0daab5099bd29a37ba6678980cf63aee6365f6994d76", "asm": "3045022100dd01ebc517de3976a67376850c6da031f9f988cd1bf9cf2fd88996abc5d130250220747eb1ee0cd35f33d9983436fc84546d86ee4acca2014ec8dbccb2a625c46d40[ALL] 03a01a291d9eeb4195c22a0daab5099bd29a37ba6678980cf63aee6365f6994d76"}, "vout": 0, "txid": "d99cf9d8df9495faf9a44f054b88c58496f2cef799ab6cd7f2ab443c1b221955"}], "txid": "8500cb4262b4a2ff9b8a9bb5e61ad0cfc366994935bb0afc0a3f89bbed7040dc", "blocktime": 1537870928, "version": 1, "confirmations": 11512, "time": 1537870928, "locktime": 0, "vsize": 224, "size": 224}