{"hash": "76d6bae7caaae61142786779a4499170cf70b342432baad36a3f4234fb30a548", "blockhash": "0000000000000000000baef3f32e3676a92c3b2e5da21b426e4f302fc371ce76", "vout": [{"scriptPubKey": {"reqSigs": 1, "hex": "a914755994a596d0d56438fb1f9387c7ee29ebdccb8a87", "addresses": ["3CPWJAGsz5BLf79Cy5yLSaA5GmVQ6KmUxc"], "asm": "OP_HASH160 755994a596d0d56438fb1f9387c7ee29ebdccb8a OP_EQUAL", "type": "scripthash"}, "value": 0.01710497, "n": 0}, {"scriptPubKey": {"reqSigs": 1, "hex": "a9149cb626ded1b37226ed43aea96f03f8017ab5a2b387", "addresses": ["3FydYboVBaGyjYDgqVpxfNbjcbJRRskQsP"], "asm": "OP_HASH160 9cb626ded1b37226ed43aea96f03f8017ab5a2b3 OP_EQUAL", "type": "scripthash"}, "value": 0.17773895, "n": 1}], "hex": "01000000000101f12e125041ea43d520819e0102c849c210c001cbf6e24b358d03fb2b662c735d01000000232200204424e1c9e98c5f2e17061827f94f28251ee51763904fb5d3b6cfda83630b9909ffffffff02a1191a000000000017a914755994a596d0d56438fb1f9387c7ee29ebdccb8a8747350f010000000017a9149cb626ded1b37226ed43aea96f03f8017ab5a2b387040048304502210081b06cfdd0b790a57c4f04a39b2b4612509f455a23acb49517a92344d570175a022069f1214a40c617ceba86db5df5d0ec2e0f49cacc2acc1343189bd3ee52cdc29a01483045022100d33574cb1bc0e3dc29b2bac2accd0515867458508448eada141bee000fceccaa0220682247bebb48bb2e5489ce6e9de9a6a2e3d76a3735b0d1133a2dffa27b31ed450147522103493a03b75d216b5167b49d8c6894f3d51bf6c70d8cc3ba51090b3f39b180cdda2103f62b1d27158b53be9caeae920614d9c61c0d4e3ab8a2b8afbc8e020933c6e68352ae00000000", "vin": [{"txinwitness": ["", "304502210081b06cfdd0b790a57c4f04a39b2b4612509f455a23acb49517a92344d570175a022069f1214a40c617ceba86db5df5d0ec2e0f49cacc2acc1343189bd3ee52cdc29a01", "3045022100d33574cb1bc0e3dc29b2bac2accd0515867458508448eada141bee000fceccaa0220682247bebb48bb2e5489ce6e9de9a6a2e3d76a3735b0d1133a2dffa27b31ed4501", "522103493a03b75d216b5167b49d8c6894f3d51bf6c70d8cc3ba51090b3f39b180cdda2103f62b1d27158b53be9caeae920614d9c61c0d4e3ab8a2b8afbc8e020933c6e68352ae"], "sequence": 4294967295, "scriptSig": {"hex": "2200204424e1c9e98c5f2e17061827f94f28251ee51763904fb5d3b6cfda83630b9909", "asm": "00204424e1c9e98c5f2e17061827f94f28251ee51763904fb5d3b6cfda83630b9909"}, "vout": 1, "txid": "5d732c662bfb038d354be2f6cb01c010c249c802019e8120d543ea4150122ef1"}], "txid": "8507456458e8ba50e0d67b8c7cec357fc960e13217f6966417a6c5a1ea5d2804", "blocktime": 1537876114, "version": 1, "confirmations": 11460, "time": 1537876114, "locktime": 0, "vsize": 206, "size": 372}