{"hash": "85080bdd1cb6f3a4435138a354bb55b92357ade421ab66e73b0d288968ad249d", "blockhash": "0000000000000000001f76057863aec43deb6fa401d9628bb513d65a8098bfab", "vout": [{"scriptPubKey": {"reqSigs": 1, "hex": "76a914a56e1865b657060d4472ce342c718ec6bfa355bf88ac", "addresses": ["1G5iPD3jPZUhArgapJJvB9hs956tHbpRBv"], "asm": "OP_DUP OP_HASH160 a56e1865b657060d4472ce342c718ec6bfa355bf OP_EQUALVERIFY OP_CHECKSIG", "type": "pubkeyhash"}, "value": 0.4128823, "n": 0}, {"scriptPubKey": {"reqSigs": 1, "hex": "76a914be292baa18e2c26b7d3cb30ec00c4382268398fd88ac", "addresses": ["1JLUi2fet7XuiFvvNY9QPxi3A2JCSKVvrR"], "asm": "OP_DUP OP_HASH160 be292baa18e2c26b7d3cb30ec00c4382268398fd OP_EQUALVERIFY OP_CHECKSIG", "type": "pubkeyhash"}, "value": 0.94426589, "n": 1}], "hex": "01000000017b6306a89a0bfd8c12b58c88cabd16b726d4fd21928324be04c28a6c22143008040000006a473044022012aa9900e14d9750ab373f51bb73cca80aa16457f6c5e87b0de2c40f2cae02ee0220205add18f0aa319cb9b88fb30cc0c643779ed2b25116f74869f4cfa1ebc7a9110121023fd6c2bc6c2c14a4b959be9207ce69cbd41f84043e854883b05fc67a51ccfd78ffffffff0226027602000000001976a914a56e1865b657060d4472ce342c718ec6bfa355bf88acddd5a005000000001976a914be292baa18e2c26b7d3cb30ec00c4382268398fd88ac00000000", "vin": [{"sequence": 4294967295, "scriptSig": {"hex": "473044022012aa9900e14d9750ab373f51bb73cca80aa16457f6c5e87b0de2c40f2cae02ee0220205add18f0aa319cb9b88fb30cc0c643779ed2b25116f74869f4cfa1ebc7a9110121023fd6c2bc6c2c14a4b959be9207ce69cbd41f84043e854883b05fc67a51ccfd78", "asm": "3044022012aa9900e14d9750ab373f51bb73cca80aa16457f6c5e87b0de2c40f2cae02ee0220205add18f0aa319cb9b88fb30cc0c643779ed2b25116f74869f4cfa1ebc7a911[ALL] 023fd6c2bc6c2c14a4b959be9207ce69cbd41f84043e854883b05fc67a51ccfd78"}, "vout": 4, "txid": "083014226c8ac204be24839221fdd426b716bdca888cb5128cfd0b9aa806637b"}], "txid": "85080bdd1cb6f3a4435138a354bb55b92357ade421ab66e73b0d288968ad249d", "blocktime": 1537873891, "version": 1, "confirmations": 11478, "time": 1537873891, "locktime": 0, "vsize": 225, "size": 225}