{"hash": "d5f6dcd6a2d447e69e632ce8e4e558fc1662caa54c06187cadb98fab1d0511d6", "blockhash": "00000000000000000018f53835495a110e01622372bf6ae95dc86f2b0ab887b0", "vout": [{"scriptPubKey": {"reqSigs": 1, "hex": "76a914c746f448d0d3163863999d5dbd4e1cb83b1ed3df88ac", "addresses": ["1KAgUALcyBQ1rGzXE44Ts6PTXd8SDgaL3d"], "asm": "OP_DUP OP_HASH160 c746f448d0d3163863999d5dbd4e1cb83b1ed3df OP_EQUALVERIFY OP_CHECKSIG", "type": "pubkeyhash"}, "value": 0.00833495, "n": 0}, {"scriptPubKey": {"reqSigs": 1, "hex": "a91408d001e3551d3ce83bd32e12f5296206cc4dd5a687", "addresses": ["32VcWgdry8nUd42dA72Vq4YqN6M9eDA4rT"], "asm": "OP_HASH160 08d001e3551d3ce83bd32e12f5296206cc4dd5a6 OP_EQUAL", "type": "scripthash"}, "value": 0.2284002, "n": 1}], "hex": "01000000000103bc465742d3a1e0e60fb460e5332749fb7430c3ccd91f4c05f348285dd0d45dfe0000000023220020b1392f8f354abd394a2ec1636c84b6fde02e6e44fd0ce058dacbae36563ca409ffffffffbeac359103763d036dfef08dd8d83bce30039ac2beac28ecc741cd8ecf20cd6b0100000023220020c243915c4c69cd7921c47b6acc56e53971695b46466c574c8cad96da300bf6f9ffffffff95c161dd8869475523a97984193d0dd15dfed78a45484cf217eba9b49ac732a60100000023220020ca96902fcb665c94a3834ad4f51d6b18c7ec1284932199a2addfdde7a8d1a7bbffffffff02d7b70c00000000001976a914c746f448d0d3163863999d5dbd4e1cb83b1ed3df88acd4825c010000000017a91408d001e3551d3ce83bd32e12f5296206cc4dd5a68704004730440220234c62d39ebfc0d036930e9fe909c13e4b864ac024c5d097665dacb2ff911fd102205da0141b6d8ea74ea5c33c01e7768c96d18d89a53a3e97247881d1bfbc7d942d01483045022100c58ae571052d77528226bef8cb47d521325a347177a0fc1b14ad8a29a2869ecc0220758bd1110d6c63474646cf17293f97d1d7ce4472bb524b3c34a83c998a3dacc8014752210275ec0483d0b580c078280e1d0def483536ee84fc92c89e131b253635b15307f221035103ae7fde57e8b6bb3bb5f71f41a1a19d611723da7ff266c973839886408c4452ae0400483045022100be1678ffe0a8c55d71c238d4c49bc63c230f061022fa6e87972971314027e1ba02201d171e3c007959da0598878f55fa8807a468bc32ed3775cda295469a69a0bffd01483045022100ca6d110e221c4280338fb421050d07c061a123d57b5d1ed6ee3614d3fc35951b02202e0736d8f1190653b8e508313560ef8b4dda5de0b2aee2a2eb2912f1830633e70147522103e613cbc5f20f477f61bfdf93c28f4f3d467efb35344507460c9bf5da13b9148a21035103ae7fde57e8b6bb3bb5f71f41a1a19d611723da7ff266c973839886408c4452ae0400473044022018f5afc42dd60c0296b43d9560325875fc5ba14085a97cc35b339e64fffac4f802207b87e6fab7c4b73633d06b947e6f307f15df13c86da51dbeea65f3fc2e503f7f01473044022062101a0cfeeabb86e10e9d2fa2f282a8602663d2f60789606451ff6425b36cb802200e54d4e528a984566ed1ca7f3ffda498088130ea4e83ab10f52e4483ec566847014752210236155d50029dca74760e35f0eabb4424eb6d649bf250f7d17826d4bc70264eac21035103ae7fde57e8b6bb3bb5f71f41a1a19d611723da7ff266c973839886408c4452ae00000000", "vin": [{"txinwitness": ["", "30440220234c62d39ebfc0d036930e9fe909c13e4b864ac024c5d097665dacb2ff911fd102205da0141b6d8ea74ea5c33c01e7768c96d18d89a53a3e97247881d1bfbc7d942d01", "3045022100c58ae571052d77528226bef8cb47d521325a347177a0fc1b14ad8a29a2869ecc0220758bd1110d6c63474646cf17293f97d1d7ce4472bb524b3c34a83c998a3dacc801", "52210275ec0483d0b580c078280e1d0def483536ee84fc92c89e131b253635b15307f221035103ae7fde57e8b6bb3bb5f71f41a1a19d611723da7ff266c973839886408c4452ae"], "sequence": 4294967295, "scriptSig": {"hex": "220020b1392f8f354abd394a2ec1636c84b6fde02e6e44fd0ce058dacbae36563ca409", "asm": "0020b1392f8f354abd394a2ec1636c84b6fde02e6e44fd0ce058dacbae36563ca409"}, "vout": 0, "txid": "fe5dd4d05d2848f3054c1fd9ccc33074fb492733e560b40fe6e0a1d3425746bc"}, {"txinwitness": ["", "3045022100be1678ffe0a8c55d71c238d4c49bc63c230f061022fa6e87972971314027e1ba02201d171e3c007959da0598878f55fa8807a468bc32ed3775cda295469a69a0bffd01", "3045022100ca6d110e221c4280338fb421050d07c061a123d57b5d1ed6ee3614d3fc35951b02202e0736d8f1190653b8e508313560ef8b4dda5de0b2aee2a2eb2912f1830633e701", "522103e613cbc5f20f477f61bfdf93c28f4f3d467efb35344507460c9bf5da13b9148a21035103ae7fde57e8b6bb3bb5f71f41a1a19d611723da7ff266c973839886408c4452ae"], "sequence": 4294967295, "scriptSig": {"hex": "220020c243915c4c69cd7921c47b6acc56e53971695b46466c574c8cad96da300bf6f9", "asm": "0020c243915c4c69cd7921c47b6acc56e53971695b46466c574c8cad96da300bf6f9"}, "vout": 1, "txid": "6bcd20cf8ecd41c7ec28acbec29a0330ce3bd8d88df0fe6d033d76039135acbe"}, {"txinwitness": ["", "3044022018f5afc42dd60c0296b43d9560325875fc5ba14085a97cc35b339e64fffac4f802207b87e6fab7c4b73633d06b947e6f307f15df13c86da51dbeea65f3fc2e503f7f01", "3044022062101a0cfeeabb86e10e9d2fa2f282a8602663d2f60789606451ff6425b36cb802200e54d4e528a984566ed1ca7f3ffda498088130ea4e83ab10f52e4483ec56684701", "52210236155d50029dca74760e35f0eabb4424eb6d649bf250f7d17826d4bc70264eac21035103ae7fde57e8b6bb3bb5f71f41a1a19d611723da7ff266c973839886408c4452ae"], "sequence": 4294967295, "scriptSig": {"hex": "220020ca96902fcb665c94a3834ad4f51d6b18c7ec1284932199a2addfdde7a8d1a7bb", "asm": "0020ca96902fcb665c94a3834ad4f51d6b18c7ec1284932199a2addfdde7a8d1a7bb"}, "vout": 1, "txid": "a632c79ab4a9eb17f24c48458ad7fe5dd10d3d198479a92355476988dd61c195"}], "txid": "850b07e1502d2f114ad0bab08ad34dfe40300dafccdddc03d2dad564273f7745", "blocktime": 1537870928, "version": 1, "confirmations": 11514, "time": 1537870928, "locktime": 0, "vsize": 469, "size": 963}