{"hash": "850c4c246e168f5c3607974c54d1f1c04b562c4ae977ba911ef01227a5c2c5c1", "blockhash": "00000000000000000017f5eb5941039fbcee6240d03bc1f2f8e35350df66a1d8", "vout": [{"scriptPubKey": {"reqSigs": 1, "hex": "76a91402cbffbba5ed28cd3cad1dfb05005d7f0f407e7d88ac", "addresses": ["1FnjUpf8Uom4HuieaRUxjAFBQsaKEXcnK"], "asm": "OP_DUP OP_HASH160 02cbffbba5ed28cd3cad1dfb05005d7f0f407e7d OP_EQUALVERIFY OP_CHECKSIG", "type": "pubkeyhash"}, "value": 0.0147036, "n": 0}, {"scriptPubKey": {"type": "nulldata", "hex": "6a4c50000077ee0001ab0c9dba3ac280be113ad72cd19ed074892d00f8e87af8e8e963c7cfd5b9c5b4bc5aea6a81de856dad7fc7696b3f5baa17bb0613a7bfd3fe3d4fbc9a9526289ac0f6612cd74e33776ee4", "asm": "OP_RETURN 000077ee0001ab0c9dba3ac280be113ad72cd19ed074892d00f8e87af8e8e963c7cfd5b9c5b4bc5aea6a81de856dad7fc7696b3f5baa17bb0613a7bfd3fe3d4fbc9a9526289ac0f6612cd74e33776ee4"}, "value": 0.0, "n": 1}], "hex": "01000000014a10fef8cce10a2c1cd71c381468fc5533ebabd3dda469c582f36f1c17431b29000000006a47304402206feee90105921d1c21ef7555919e1010890b2eac435406b6568c2a70cbaba2b702203656062ec6d1ca9d52662a72f1ac0573becdddf7c007e436b3d703b1908c72ae01210272854b837d17e49bbf37a801ad54cdeb74bb900a3b3c00fc16f662adc09ee0feffffffff02986f1600000000001976a91402cbffbba5ed28cd3cad1dfb05005d7f0f407e7d88ac0000000000000000536a4c50000077ee0001ab0c9dba3ac280be113ad72cd19ed074892d00f8e87af8e8e963c7cfd5b9c5b4bc5aea6a81de856dad7fc7696b3f5baa17bb0613a7bfd3fe3d4fbc9a9526289ac0f6612cd74e33776ee400000000", "vin": [{"sequence": 4294967295, "scriptSig": {"hex": "47304402206feee90105921d1c21ef7555919e1010890b2eac435406b6568c2a70cbaba2b702203656062ec6d1ca9d52662a72f1ac0573becdddf7c007e436b3d703b1908c72ae01210272854b837d17e49bbf37a801ad54cdeb74bb900a3b3c00fc16f662adc09ee0fe", "asm": "304402206feee90105921d1c21ef7555919e1010890b2eac435406b6568c2a70cbaba2b702203656062ec6d1ca9d52662a72f1ac0573becdddf7c007e436b3d703b1908c72ae[ALL] 0272854b837d17e49bbf37a801ad54cdeb74bb900a3b3c00fc16f662adc09ee0fe"}, "vout": 0, "txid": "291b43171c6ff382c569a4ddd3abeb3355fc6814381cd71c2c0ae1ccf8fe104a"}], "txid": "850c4c246e168f5c3607974c54d1f1c04b562c4ae977ba911ef01227a5c2c5c1", "blocktime": 1537874412, "version": 1, "confirmations": 11467, "time": 1537874412, "locktime": 0, "vsize": 283, "size": 283}