{"hash": "c58104f708c4d535f88db2c98cd8706d7aa3681bec6069a9472d9a66b3d8f351", "blockhash": "0000000000000000001e0dab787dd257d1dbfcb92a98c2207d5e1078be1f4165", "vout": [{"scriptPubKey": {"reqSigs": 1, "hex": "a914eacc986054fc0ed1f28bc62d2407a7da64eb76f187", "addresses": ["3P6X8xUAGVBf2RsuDM4F7Dy8Fd1pNWU4Ca"], "asm": "OP_HASH160 eacc986054fc0ed1f28bc62d2407a7da64eb76f1 OP_EQUAL", "type": "scripthash"}, "value": 0.01000763, "n": 0}, {"scriptPubKey": {"reqSigs": 1, "hex": "a9142b2fdd48f49b706875f4fbd5bcc4b41580a26fb887", "addresses": ["35dNKU9c94hQBSEnAktmTDnXbsErXWbUqZ"], "asm": "OP_HASH160 2b2fdd48f49b706875f4fbd5bcc4b41580a26fb8 OP_EQUAL", "type": "scripthash"}, "value": 0.006, "n": 1}], "hex": "020000000001037f803f7e022f5381cb54a48f56fb174bb943e9639b68b1fe02838007b741ee9e7d0000006b483045022100e5452c4019796ee04ba0136b05bfb5d8d61d52ffcc67a18fd4aee28fda024bbe022049bd1c651d1acc3b3a745c547ca07880f40a5ed75cf9056c781c369595ef3adc012102e66c487a1d7f2ea79d387dfa367ad8fd664e5efb85a7bd6e995a22c44edb4b4cfdffffff7f803f7e022f5381cb54a48f56fb174bb943e9639b68b1fe02838007b741ee9e2001000017160014d953a30d1f7e0c46d769847571a57491d0deaaf7fdffffffd96666b4ccdb174ecf436361500fa2c3e8cad4e5850ae073b8db8c6573e10efe0000000017160014fec73992d9fc12131875dbdf2e33c297d9a19898fdffffff023b450f000000000017a914eacc986054fc0ed1f28bc62d2407a7da64eb76f187c02709000000000017a9142b2fdd48f49b706875f4fbd5bcc4b41580a26fb887000248304502210082dd6104ae134848764c11bd713f04e56479de2797bfd670ca33d4527cb3aeb802204efe04cf4c8505fce0b84b3066cb66bd493d001b41e4048604e2cfcd4fe7087401210245325030e528ec71f30dd407d9c40a7b1f66031cbb0d2605024ce73d7e5b11310247304402201ae555182b8ede72f480a9c7a688dc976250bea064a657063191100cc2eb4eaf02205f939fa852a93e8a09964128409e58720044dd0cc566e802f747552d95bb160e01210355aa6f174248adbacbfebe2c8ee5bf273926bf2094df73df9e2d6891c5438e1d12490800", "vin": [{"sequence": 4294967293, "scriptSig": {"hex": "483045022100e5452c4019796ee04ba0136b05bfb5d8d61d52ffcc67a18fd4aee28fda024bbe022049bd1c651d1acc3b3a745c547ca07880f40a5ed75cf9056c781c369595ef3adc012102e66c487a1d7f2ea79d387dfa367ad8fd664e5efb85a7bd6e995a22c44edb4b4c", "asm": "3045022100e5452c4019796ee04ba0136b05bfb5d8d61d52ffcc67a18fd4aee28fda024bbe022049bd1c651d1acc3b3a745c547ca07880f40a5ed75cf9056c781c369595ef3adc[ALL] 02e66c487a1d7f2ea79d387dfa367ad8fd664e5efb85a7bd6e995a22c44edb4b4c"}, "vout": 125, "txid": "9eee41b707808302feb1689b63e943b94b17fb568fa454cb81532f027e3f807f"}, {"txinwitness": ["304502210082dd6104ae134848764c11bd713f04e56479de2797bfd670ca33d4527cb3aeb802204efe04cf4c8505fce0b84b3066cb66bd493d001b41e4048604e2cfcd4fe7087401", "0245325030e528ec71f30dd407d9c40a7b1f66031cbb0d2605024ce73d7e5b1131"], "sequence": 4294967293, "scriptSig": {"hex": "160014d953a30d1f7e0c46d769847571a57491d0deaaf7", "asm": "0014d953a30d1f7e0c46d769847571a57491d0deaaf7"}, "vout": 288, "txid": "9eee41b707808302feb1689b63e943b94b17fb568fa454cb81532f027e3f807f"}, {"txinwitness": ["304402201ae555182b8ede72f480a9c7a688dc976250bea064a657063191100cc2eb4eaf02205f939fa852a93e8a09964128409e58720044dd0cc566e802f747552d95bb160e01", "0355aa6f174248adbacbfebe2c8ee5bf273926bf2094df73df9e2d6891c5438e1d"], "sequence": 4294967293, "scriptSig": {"hex": "160014fec73992d9fc12131875dbdf2e33c297d9a19898", "asm": "0014fec73992d9fc12131875dbdf2e33c297d9a19898"}, "vout": 0, "txid": "fe0ee173658cdbb873e00a85e5d4cae8c3a20f50616343cf4e17dbccb46666d9"}], "txid": "850e720bc5ada3a785183c24ba4d1a4abf166274c5f36fa24ffe2843250bdbee", "blocktime": 1537872475, "version": 2, "confirmations": 11487, "time": 1537872475, "locktime": 542994, "vsize": 405, "size": 568}