{"hash": "85156effe55a1ab5320b5678836216964ddc8e7ef05b74aba7d3beeae5f48cd1", "blockhash": "00000000000000000004ffacab907a6b429b9a5745fa0b75af4234bf69dd7176", "vout": [{"scriptPubKey": {"reqSigs": 1, "hex": "a914b94c64bac09bbc6711d240ff94d065bcede12fc587", "addresses": ["3JanSwi3TjSxvtZ6VJSvBpC8EWhJ8hjBUh"], "asm": "OP_HASH160 b94c64bac09bbc6711d240ff94d065bcede12fc5 OP_EQUAL", "type": "scripthash"}, "value": 0.001, "n": 0}, {"scriptPubKey": {"reqSigs": 1, "hex": "76a914e163d073e054266d0f5e025eebd6100b0c946b5b88ac", "addresses": ["1MYkcNyCtPmxivKoMy5v5VBkv6LuBrgrAy"], "asm": "OP_DUP OP_HASH160 e163d073e054266d0f5e025eebd6100b0c946b5b OP_EQUALVERIFY OP_CHECKSIG", "type": "pubkeyhash"}, "value": 0.0850032, "n": 1}], "hex": "0100000001eddb1c6cf456c37f11d9a10b7d1c50b374ca846f7fca4f6eec53d4d78eac7428010000006b483045022100ee95282ca40a8978659905019c2c780e43be142bf2e582f605af551721ceb976022075b53ca2cd31380d36df983680fcb7ad9a4d17c54d72aefc7a481599b286d9890121033387315522fd785dc6a3184e4f2acbd937f90409a105c06583c94e6554220085ffffffff02a08601000000000017a914b94c64bac09bbc6711d240ff94d065bcede12fc58760b48100000000001976a914e163d073e054266d0f5e025eebd6100b0c946b5b88ac00000000", "vin": [{"sequence": 4294967295, "scriptSig": {"hex": "483045022100ee95282ca40a8978659905019c2c780e43be142bf2e582f605af551721ceb976022075b53ca2cd31380d36df983680fcb7ad9a4d17c54d72aefc7a481599b286d9890121033387315522fd785dc6a3184e4f2acbd937f90409a105c06583c94e6554220085", "asm": "3045022100ee95282ca40a8978659905019c2c780e43be142bf2e582f605af551721ceb976022075b53ca2cd31380d36df983680fcb7ad9a4d17c54d72aefc7a481599b286d989[ALL] 033387315522fd785dc6a3184e4f2acbd937f90409a105c06583c94e6554220085"}, "vout": 1, "txid": "2874ac8ed7d453ec6e4fca7f6f84ca74b3501c7d0ba1d9117fc356f46c1cdbed"}], "txid": "85156effe55a1ab5320b5678836216964ddc8e7ef05b74aba7d3beeae5f48cd1", "blocktime": 1537875543, "version": 1, "confirmations": 11464, "time": 1537875543, "locktime": 0, "vsize": 224, "size": 224}