{"hash": "8517be02223d824715957949cf5910669ce9a40a36ab474ff840426ea1e4e501", "blockhash": "0000000000000000000e13cef7c366c0283d82e591d1acd082e914b08063cdf1", "vout": [{"scriptPubKey": {"reqSigs": 1, "hex": "a9145097953a877b79c3b1ada970ae5fba7759d0e2aa87", "addresses": ["3939a4E2DBqZvJqPGUHEwv8MVYMcsjNbwY"], "asm": "OP_HASH160 5097953a877b79c3b1ada970ae5fba7759d0e2aa OP_EQUAL", "type": "scripthash"}, "value": 0.0032, "n": 0}, {"scriptPubKey": {"reqSigs": 1, "hex": "a91449b2f3112f553f771b7ed3d74f784bd5a325620b87", "addresses": ["38QhdB7vXri76g81aMt6UbEsQNLhk7gTMv"], "asm": "OP_HASH160 49b2f3112f553f771b7ed3d74f784bd5a325620b OP_EQUAL", "type": "scripthash"}, "value": 0.02993729, "n": 1}], "hex": "0200000001b60e2200173c9918fed0dbcbb5f75f71943011f152a6d83f284ffee43c05288b01000000fc0047304402202de080e5af58a6ea97125e9fc0e0163d76d1bed07e7120a36599454a53787e9d02200c2420edddae47789d14f410570c8b6d22069eb997be6a977682faa340af39560147304402201e2f89f444224f2e19b44a432b978429ecf49ab2bab1f2340ea61d7d8f82900202202c19c4c4fbac2c417305cf0fce1a71a712db2ac578b99dbe236f7470c1f497c8014c69522102ffa5fa917a56716dbb4cfa98c8cc0b7587dc491dcacc994e67b064f345c4d725210332ecd4548709d37033f4546954ec0791ca185651172e381ed0c800686ab26eee2103c27c4bbb4817a8ee5e25ad9f67ee7b19222b46b4e0f5dc67e172efd286d48b6753aeffffffff0200e204000000000017a9145097953a877b79c3b1ada970ae5fba7759d0e2aa8741ae2d000000000017a91449b2f3112f553f771b7ed3d74f784bd5a325620b8700000000", "vin": [{"sequence": 4294967295, "scriptSig": {"hex": "0047304402202de080e5af58a6ea97125e9fc0e0163d76d1bed07e7120a36599454a53787e9d02200c2420edddae47789d14f410570c8b6d22069eb997be6a977682faa340af39560147304402201e2f89f444224f2e19b44a432b978429ecf49ab2bab1f2340ea61d7d8f82900202202c19c4c4fbac2c417305cf0fce1a71a712db2ac578b99dbe236f7470c1f497c8014c69522102ffa5fa917a56716dbb4cfa98c8cc0b7587dc491dcacc994e67b064f345c4d725210332ecd4548709d37033f4546954ec0791ca185651172e381ed0c800686ab26eee2103c27c4bbb4817a8ee5e25ad9f67ee7b19222b46b4e0f5dc67e172efd286d48b6753ae", "asm": "0 304402202de080e5af58a6ea97125e9fc0e0163d76d1bed07e7120a36599454a53787e9d02200c2420edddae47789d14f410570c8b6d22069eb997be6a977682faa340af3956[ALL] 304402201e2f89f444224f2e19b44a432b978429ecf49ab2bab1f2340ea61d7d8f82900202202c19c4c4fbac2c417305cf0fce1a71a712db2ac578b99dbe236f7470c1f497c8[ALL] 522102ffa5fa917a56716dbb4cfa98c8cc0b7587dc491dcacc994e67b064f345c4d725210332ecd4548709d37033f4546954ec0791ca185651172e381ed0c800686ab26eee2103c27c4bbb4817a8ee5e25ad9f67ee7b19222b46b4e0f5dc67e172efd286d48b6753ae"}, "vout": 1, "txid": "8b28053ce4fe4f283fd8a652f1113094715ff7b5cbdbd0fe18993c1700220eb6"}], "txid": "8517be02223d824715957949cf5910669ce9a40a36ab474ff840426ea1e4e501", "blocktime": 1537871767, "version": 2, "confirmations": 11495, "time": 1537871767, "locktime": 0, "vsize": 367, "size": 367}