{"hash": "16dae6312d90bf2bcbfc81177a1174cbe8c8fb8171f5b09004e261e17da49755", "blockhash": "0000000000000000000e13cef7c366c0283d82e591d1acd082e914b08063cdf1", "vout": [{"scriptPubKey": {"reqSigs": 1, "hex": "0014669ad77b9df33da255d858d34c6b514a0a29ef6d", "addresses": ["bc1qv6ddw7ua7v76y4wctrf5c663fg9znmmd8vn7g8"], "asm": "0 669ad77b9df33da255d858d34c6b514a0a29ef6d", "type": "witness_v0_keyhash"}, "value": 1.37627583, "n": 0}, {"scriptPubKey": {"reqSigs": 1, "hex": "76a9144c0e29b7fcc0f37c060fc54db0aed2968208806088ac", "addresses": ["17w9Ke4s7Y8d2t35Uur4CYHVQj2VtR7xu4"], "asm": "OP_DUP OP_HASH160 4c0e29b7fcc0f37c060fc54db0aed29682088060 OP_EQUALVERIFY OP_CHECKSIG", "type": "pubkeyhash"}, "value": 0.02051829, "n": 1}], "hex": "0100000000010194e224860b671fd72e62f4ec8a4622e650e3ef2fdfcf7914876aac747fbb194f0200000017160014d14e8a6b8997a5f225e8f404949942d259d2ceeeffffffff02bf07340800000000160014669ad77b9df33da255d858d34c6b514a0a29ef6df54e1f00000000001976a9144c0e29b7fcc0f37c060fc54db0aed2968208806088ac02473044022047631a676d991107e905d0f025ee1fcb4707c53927357d61bd15caf47390f89302203cd56edf855f91d4bfee114c90955a7d5169dbcf17a01fa670c8484139db2830012102f90ae86bcda725b3c1d02fc532357e7623d172c43fc8901f31c0b0a62d6ca2a100000000", "vin": [{"txinwitness": ["3044022047631a676d991107e905d0f025ee1fcb4707c53927357d61bd15caf47390f89302203cd56edf855f91d4bfee114c90955a7d5169dbcf17a01fa670c8484139db283001", "02f90ae86bcda725b3c1d02fc532357e7623d172c43fc8901f31c0b0a62d6ca2a1"], "sequence": 4294967295, "scriptSig": {"hex": "160014d14e8a6b8997a5f225e8f404949942d259d2ceee", "asm": "0014d14e8a6b8997a5f225e8f404949942d259d2ceee"}, "vout": 2, "txid": "4f19bb7f74ac6a871479cfdf2fefe350e622468aecf4622ed71f670b8624e294"}], "txid": "852128c371e1b1bd7fe7350ac9324df805a553a810e99051b53c380577f38ae2", "blocktime": 1537871767, "version": 1, "confirmations": 11495, "time": 1537871767, "locktime": 0, "vsize": 167, "size": 248}