{"hash": "fe91d9aaf7ecdabee2b9fb99fc7b0c19cb5d3e7170d5b479a4ed4396c2321e11", "blockhash": "0000000000000000001f76057863aec43deb6fa401d9628bb513d65a8098bfab", "vout": [{"scriptPubKey": {"reqSigs": 1, "hex": "a91449d7e96499e76d96ef877a2fcb98823c8bccba2187", "addresses": ["38RTuMXR3rjgmqC2TwiJHrCLzc9nbGoNw7"], "asm": "OP_HASH160 49d7e96499e76d96ef877a2fcb98823c8bccba21 OP_EQUAL", "type": "scripthash"}, "value": 0.00041574, "n": 0}], "hex": "0100000000010139999630a462dc1154512463aeb51e775b833377e899c63e1ebf5a8974f42b3e030000001716001426a37d53298c97fa12c173de0b6555dfb5d75998ffffffff0166a200000000000017a91449d7e96499e76d96ef877a2fcb98823c8bccba2187024730440220126d020ea99a372f9a18c1e84706d9f2414bd892209ab67f757dc8a1bb3dfc8902204afc75368435ceeefc9768d08c4490b578017b22dc36a75567740f6611bfde2f0121032c32d8782ab8223d50ca4eee3b65211f279bfe7e5e39f48a5212b4e7eb7d3fbe00000000", "vin": [{"txinwitness": ["30440220126d020ea99a372f9a18c1e84706d9f2414bd892209ab67f757dc8a1bb3dfc8902204afc75368435ceeefc9768d08c4490b578017b22dc36a75567740f6611bfde2f01", "032c32d8782ab8223d50ca4eee3b65211f279bfe7e5e39f48a5212b4e7eb7d3fbe"], "sequence": 4294967295, "scriptSig": {"hex": "16001426a37d53298c97fa12c173de0b6555dfb5d75998", "asm": "001426a37d53298c97fa12c173de0b6555dfb5d75998"}, "vout": 3, "txid": "3e2bf474895abf1e3ec699e87733835b771eb5ae6324515411dc62a430969939"}], "txid": "8526381c530076a0944323da8772cfb23a7cc7e5ac88b7b8c80d87b583555bfa", "blocktime": 1537873891, "version": 1, "confirmations": 11478, "time": 1537873891, "locktime": 0, "vsize": 134, "size": 215}