{"hash": "2c11690744128e4893c3ff89ed0d8a5b5ebf546a685fab2798f5e671deb69561", "blockhash": "0000000000000000001f0ddff1eddb255c1121bcd4da4f1bc9a0da00cae72433", "vout": [{"scriptPubKey": {"reqSigs": 1, "hex": "a914f3590758464fb6e0bd20bfc77971ff1e44e3d26487", "addresses": ["3PsimypPdRg7aKGvgQNh5LjAEcdYr6J1YB"], "asm": "OP_HASH160 f3590758464fb6e0bd20bfc77971ff1e44e3d264 OP_EQUAL", "type": "scripthash"}, "value": 0.01568018, "n": 0}, {"scriptPubKey": {"reqSigs": 1, "hex": "76a914fd81f815f81253ed3af17f749d3f9fdbed2aa20f88ac", "addresses": ["1Q7RewimcszJ45VxDCMxbx5Yqqdy8Cg2Dn"], "asm": "OP_DUP OP_HASH160 fd81f815f81253ed3af17f749d3f9fdbed2aa20f OP_EQUALVERIFY OP_CHECKSIG", "type": "pubkeyhash"}, "value": 0.01803221, "n": 1}, {"scriptPubKey": {"reqSigs": 1, "hex": "76a91475318a7212d1c1cb3fbb7bb7ad166b6455b0215588ac", "addresses": ["1BgfQbmjeptRbmDNhNPvgthQW14UAjTiy8"], "asm": "OP_DUP OP_HASH160 75318a7212d1c1cb3fbb7bb7ad166b6455b02155 OP_EQUALVERIFY OP_CHECKSIG", "type": "pubkeyhash"}, "value": 0.03575082, "n": 2}, {"scriptPubKey": {"reqSigs": 1, "hex": "a9145c7f5f85d5c4027bc32ea55a8d5a4aae14d526d887", "addresses": ["3A86gETMDQvv3ca3pmU8AzNFAJzQBZcajt"], "asm": "OP_HASH160 5c7f5f85d5c4027bc32ea55a8d5a4aae14d526d8 OP_EQUAL", "type": "scripthash"}, "value": 1.83723433, "n": 3}], "hex": "010000000001015c9b19d4208549b4801b5021cdc0c55ead601a008c8a676bb68ede21e391292d0500000017160014afebf3834fcbefe5f3624ef2506a9deb0afaa696ffffffff0412ed17000000000017a914f3590758464fb6e0bd20bfc77971ff1e44e3d26487d5831b00000000001976a914fd81f815f81253ed3af17f749d3f9fdbed2aa20f88ac2a8d3600000000001976a91475318a7212d1c1cb3fbb7bb7ad166b6455b0215588aca965f30a0000000017a9145c7f5f85d5c4027bc32ea55a8d5a4aae14d526d8870247304402207adb51e59fd3e4304a9f89227ad304fa59b531a48bd86b912cbddc4b1accb485022043e73be785a26513ddc192880d501d0837816242bc8a26b8f662fb021ac664920121036097d7ce026d13ea6673c19a5742203d96e7dadb45772279ecec5b80e3a2691700000000", "vin": [{"txinwitness": ["304402207adb51e59fd3e4304a9f89227ad304fa59b531a48bd86b912cbddc4b1accb485022043e73be785a26513ddc192880d501d0837816242bc8a26b8f662fb021ac6649201", "036097d7ce026d13ea6673c19a5742203d96e7dadb45772279ecec5b80e3a26917"], "sequence": 4294967295, "scriptSig": {"hex": "160014afebf3834fcbefe5f3624ef2506a9deb0afaa696", "asm": "0014afebf3834fcbefe5f3624ef2506a9deb0afaa696"}, "vout": 5, "txid": "2d2991e321de8eb66b678a8c001a60ad5ec5c0cd21501b80b4498520d4199b5c"}], "txid": "85284ab1b60489dfb40b57f109691c6a4a452b6c2c0f7c78a19a5b8aba8ee2b2", "blocktime": 1537872018, "version": 1, "confirmations": 11489, "time": 1537872018, "locktime": 0, "vsize": 234, "size": 315}