{"hash": "852ce75b30f9482c62c2f3796ff31695bcaefbadffa184c9cad1dca5bd6ec7b5", "blockhash": "00000000000000000004ffacab907a6b429b9a5745fa0b75af4234bf69dd7176", "vout": [{"scriptPubKey": {"reqSigs": 1, "hex": "a914e4f4df29d6d908f485e17511d5b52c90192c9a3487", "addresses": ["3NZdLGTW9AwrU1boKEYevhENxqC7Rt4fLM"], "asm": "OP_HASH160 e4f4df29d6d908f485e17511d5b52c90192c9a34 OP_EQUAL", "type": "scripthash"}, "value": 0.0073747, "n": 0}, {"scriptPubKey": {"reqSigs": 1, "hex": "76a91479254961c50561a7f356a66b01ca85225e736b1f88ac", "addresses": ["1C3ZRw8KFau9hU6SPa1vNAFph4eXjqf9yJ"], "asm": "OP_DUP OP_HASH160 79254961c50561a7f356a66b01ca85225e736b1f OP_EQUALVERIFY OP_CHECKSIG", "type": "pubkeyhash"}, "value": 0.07799172, "n": 1}], "hex": "0100000001d43635af8dcee184c53a1891b12f19dd6da3dbf5fb79ce696f5a57fe3127d9c5010000006b483045022100e2f9c13e2b00120cb3e3012a0966fcd13232b0df934c19a56d0cae56c7d3fdd502205781509356242d49b670381f9a819c57a037823ae967e80ec1dd10c2c1316520012103b2818e76ffb919a749f23de88e201f58dcbfa20d8aca4a63d3dc9c7f87ff1778ffffffff02be400b000000000017a914e4f4df29d6d908f485e17511d5b52c90192c9a348784017700000000001976a91479254961c50561a7f356a66b01ca85225e736b1f88ac00000000", "vin": [{"sequence": 4294967295, "scriptSig": {"hex": "483045022100e2f9c13e2b00120cb3e3012a0966fcd13232b0df934c19a56d0cae56c7d3fdd502205781509356242d49b670381f9a819c57a037823ae967e80ec1dd10c2c1316520012103b2818e76ffb919a749f23de88e201f58dcbfa20d8aca4a63d3dc9c7f87ff1778", "asm": "3045022100e2f9c13e2b00120cb3e3012a0966fcd13232b0df934c19a56d0cae56c7d3fdd502205781509356242d49b670381f9a819c57a037823ae967e80ec1dd10c2c1316520[ALL] 03b2818e76ffb919a749f23de88e201f58dcbfa20d8aca4a63d3dc9c7f87ff1778"}, "vout": 1, "txid": "c5d92731fe575a6f69ce79fbf5dba36ddd192fb191183ac584e1ce8daf3536d4"}], "txid": "852ce75b30f9482c62c2f3796ff31695bcaefbadffa184c9cad1dca5bd6ec7b5", "blocktime": 1537875543, "version": 1, "confirmations": 11464, "time": 1537875543, "locktime": 0, "vsize": 224, "size": 224}