{"hash": "85356d6b6067b897807383f8320a72845c5624858304f70d673d5b5446c76376", "blockhash": "00000000000000000024a2167bbff67b0be802c0b01cdd79e6331c2be6459f87", "vout": [{"scriptPubKey": {"reqSigs": 1, "hex": "76a914536f5773c4577644c6e74f4a8624948a9b37e1b188ac", "addresses": ["18cAU5DKGHAhZt8q9VCVpSPjvhnPxpfFvx"], "asm": "OP_DUP OP_HASH160 536f5773c4577644c6e74f4a8624948a9b37e1b1 OP_EQUALVERIFY OP_CHECKSIG", "type": "pubkeyhash"}, "value": 0.00043312, "n": 0}, {"scriptPubKey": {"reqSigs": 1, "hex": "76a914e8510a9bab4aa7899ee8c8590e5a5ef4c49e7d3388ac", "addresses": ["1NBNrN2Mo1z9mdcAjhvgr7uFXpX2eAT3Ea"], "asm": "OP_DUP OP_HASH160 e8510a9bab4aa7899ee8c8590e5a5ef4c49e7d33 OP_EQUALVERIFY OP_CHECKSIG", "type": "pubkeyhash"}, "value": 0.0067, "n": 1}], "hex": "01000000010e5ae7135da83cf6df31995ffa29a149d6c57e54d95ff1a42fe0ce52b5f82451010000006a47304402202182baaf1b8a707d7510f83944e1faa43c4a2342ccccad07161315f3a365045c022042e1281035ed3a4e3322688f3b22fc7d7db49452fecf2951e4724d51100a1e7201210245fb02262545c4e5cd3ecd00174b76722b907be9eb23d55f38a4e75d8d3680f7ffffffff0230a90000000000001976a914536f5773c4577644c6e74f4a8624948a9b37e1b188ac30390a00000000001976a914e8510a9bab4aa7899ee8c8590e5a5ef4c49e7d3388ac00000000", "vin": [{"sequence": 4294967295, "scriptSig": {"hex": "47304402202182baaf1b8a707d7510f83944e1faa43c4a2342ccccad07161315f3a365045c022042e1281035ed3a4e3322688f3b22fc7d7db49452fecf2951e4724d51100a1e7201210245fb02262545c4e5cd3ecd00174b76722b907be9eb23d55f38a4e75d8d3680f7", "asm": "304402202182baaf1b8a707d7510f83944e1faa43c4a2342ccccad07161315f3a365045c022042e1281035ed3a4e3322688f3b22fc7d7db49452fecf2951e4724d51100a1e72[ALL] 0245fb02262545c4e5cd3ecd00174b76722b907be9eb23d55f38a4e75d8d3680f7"}, "vout": 1, "txid": "5124f8b552cee02fa4f15fd9547ec5d649a129fa5f9931dff63ca85d13e75a0e"}], "txid": "85356d6b6067b897807383f8320a72845c5624858304f70d673d5b5446c76376", "blocktime": 1537870564, "version": 1, "confirmations": 11515, "time": 1537870564, "locktime": 0, "vsize": 225, "size": 225}