{"hash": "85368df41fb0885703053fa04eb52e7496fc621fa16134652426c7c6d430e6b6", "blockhash": "0000000000000000000dcc0f55137456b1a82d3642486a52398922ac4d620174", "vout": [{"scriptPubKey": {"reqSigs": 1, "hex": "76a9140c7d04d00b2385e4d60bba9b4915c694d96b54ed88ac", "addresses": ["1292sm77VwZ5A6zVHrqSZ3VPSRZ5YogJZe"], "asm": "OP_DUP OP_HASH160 0c7d04d00b2385e4d60bba9b4915c694d96b54ed OP_EQUALVERIFY OP_CHECKSIG", "type": "pubkeyhash"}, "value": 0.01420264, "n": 0}, {"scriptPubKey": {"type": "nulldata", "hex": "6a4c50000077760001289af6db5aa7155404994516bcbefa6b8351586b4e86aeaeacb577c031fc4be3474d14b6f32469216d99516ca4025baa09660614909024164bf4bc9a9526289ac0f6612cd74e33776ee4", "asm": "OP_RETURN 000077760001289af6db5aa7155404994516bcbefa6b8351586b4e86aeaeacb577c031fc4be3474d14b6f32469216d99516ca4025baa09660614909024164bf4bc9a9526289ac0f6612cd74e33776ee4"}, "value": 0.0, "n": 1}], "hex": "0100000001a694f64e7d89a6e4a6469e52c7ab3c154cfde9fc9da5b1efbe333260caf366b7010000006b483045022100df69f0c2f5efc3453c881e2da90701cd656db394cea748bf1c66dda23d700c7702204414d30cf131cc216885ece70dbdeefab66cb1ccc166eab5d32ede3251d81494012102b4c9d2d64214855fb0ce4696e22cc267cd5b9f951dc067a8fcb2698a1d3dec5effffffff02e8ab1500000000001976a9140c7d04d00b2385e4d60bba9b4915c694d96b54ed88ac0000000000000000536a4c50000077760001289af6db5aa7155404994516bcbefa6b8351586b4e86aeaeacb577c031fc4be3474d14b6f32469216d99516ca4025baa09660614909024164bf4bc9a9526289ac0f6612cd74e33776ee400000000", "vin": [{"sequence": 4294967295, "scriptSig": {"hex": "483045022100df69f0c2f5efc3453c881e2da90701cd656db394cea748bf1c66dda23d700c7702204414d30cf131cc216885ece70dbdeefab66cb1ccc166eab5d32ede3251d81494012102b4c9d2d64214855fb0ce4696e22cc267cd5b9f951dc067a8fcb2698a1d3dec5e", "asm": "3045022100df69f0c2f5efc3453c881e2da90701cd656db394cea748bf1c66dda23d700c7702204414d30cf131cc216885ece70dbdeefab66cb1ccc166eab5d32ede3251d81494[ALL] 02b4c9d2d64214855fb0ce4696e22cc267cd5b9f951dc067a8fcb2698a1d3dec5e"}, "vout": 1, "txid": "b766f3ca603233beefb1a59dfce9fd4c153cabc7529e46a6e4a6897d4ef694a6"}], "txid": "85368df41fb0885703053fa04eb52e7496fc621fa16134652426c7c6d430e6b6", "blocktime": 1537870268, "version": 1, "confirmations": 11518, "time": 1537870268, "locktime": 0, "vsize": 284, "size": 284}