{"hash": "853e0cca01f78fdc72eaaa03baf6fda76afbe7be97ba35988a6f7592b3fe2a35", "blockhash": "0000000000000000000e13cef7c366c0283d82e591d1acd082e914b08063cdf1", "vout": [{"scriptPubKey": {"reqSigs": 1, "hex": "76a91498c3c8127664fe89e1ed0fc237c6a0e496c5c0c588ac", "addresses": ["1EvkFJFsyJbZeu4WZJ7tdAqHZVZJMKsnBw"], "asm": "OP_DUP OP_HASH160 98c3c8127664fe89e1ed0fc237c6a0e496c5c0c5 OP_EQUALVERIFY OP_CHECKSIG", "type": "pubkeyhash"}, "value": 0.00485626, "n": 0}, {"scriptPubKey": {"reqSigs": 1, "hex": "76a9148e9cd792448fe916930a6f15346612006e35978d88ac", "addresses": ["1E14qpU2xjpY5RmP2yyxt83zDPcaSwQtZo"], "asm": "OP_DUP OP_HASH160 8e9cd792448fe916930a6f15346612006e35978d OP_EQUALVERIFY OP_CHECKSIG", "type": "pubkeyhash"}, "value": 0.0304199, "n": 1}], "hex": "01000000025ec7e01aecf4b44e2510d5cec9d57adf4b53de6757bf2e2f47fc39cc8cfe140d000000006a47304402210094b53ef6e3dec7bd14761fc9c95a237e6037bf57e4fc2acc423c88350c69509c021f58aaeb9554056642e0d6b0d6971b77146ed82443856d5931c53fe4d036db6d0121028ab1f092228c5a63401ef93f951860c539cb18fd933b9e199e2d7be2b8ee2eb7ffffffff2b5f94f19c7ac3b137d737f4d858e9aebbb587ec364c41216732a3561f974e5a010000006b483045022100a7ada2748794194ee2fa3278a332660a3b219a30bcdf44fda48a49646374911e022041ae84b1004c4d250389cc634333e51da89b6188e919db3916a0dc1e4abc7a39012102b24274fc9a89aa3c24225f507bd05ae66687194f236461445491f97351e77be3ffffffff02fa680700000000001976a91498c3c8127664fe89e1ed0fc237c6a0e496c5c0c588acc66a2e00000000001976a9148e9cd792448fe916930a6f15346612006e35978d88ac00000000", "vin": [{"sequence": 4294967295, "scriptSig": {"hex": "47304402210094b53ef6e3dec7bd14761fc9c95a237e6037bf57e4fc2acc423c88350c69509c021f58aaeb9554056642e0d6b0d6971b77146ed82443856d5931c53fe4d036db6d0121028ab1f092228c5a63401ef93f951860c539cb18fd933b9e199e2d7be2b8ee2eb7", "asm": "304402210094b53ef6e3dec7bd14761fc9c95a237e6037bf57e4fc2acc423c88350c69509c021f58aaeb9554056642e0d6b0d6971b77146ed82443856d5931c53fe4d036db6d[ALL] 028ab1f092228c5a63401ef93f951860c539cb18fd933b9e199e2d7be2b8ee2eb7"}, "vout": 0, "txid": "0d14fe8ccc39fc472f2ebf5767de534bdf7ad5c9ced510254eb4f4ec1ae0c75e"}, {"sequence": 4294967295, "scriptSig": {"hex": "483045022100a7ada2748794194ee2fa3278a332660a3b219a30bcdf44fda48a49646374911e022041ae84b1004c4d250389cc634333e51da89b6188e919db3916a0dc1e4abc7a39012102b24274fc9a89aa3c24225f507bd05ae66687194f236461445491f97351e77be3", "asm": "3045022100a7ada2748794194ee2fa3278a332660a3b219a30bcdf44fda48a49646374911e022041ae84b1004c4d250389cc634333e51da89b6188e919db3916a0dc1e4abc7a39[ALL] 02b24274fc9a89aa3c24225f507bd05ae66687194f236461445491f97351e77be3"}, "vout": 1, "txid": "5a4e971f56a3326721414c36ec87b5bbaee958d8f437d737b1c37a9cf1945f2b"}], "txid": "853e0cca01f78fdc72eaaa03baf6fda76afbe7be97ba35988a6f7592b3fe2a35", "blocktime": 1537871767, "version": 1, "confirmations": 11490, "time": 1537871767, "locktime": 0, "vsize": 373, "size": 373}