{"hash": "85444ceb0b9a067dfb0e0dd3372597feffbf0e3787c6d0912f6267f9379a1b70", "blockhash": "00000000000000000004ffacab907a6b429b9a5745fa0b75af4234bf69dd7176", "vout": [{"scriptPubKey": {"type": "nulldata", "hex": "6a146f6d6e69000000000000001f00000b1f84ce3c00", "asm": "OP_RETURN 6f6d6e69000000000000001f00000b1f84ce3c00"}, "value": 0.0, "n": 0}, {"scriptPubKey": {"reqSigs": 1, "hex": "76a914a25dec4d0011064ef106a983c39c7a540699f22088ac", "addresses": ["1FoWyxwPXuj4C6abqwhjDWdz6D4PZgYRjA"], "asm": "OP_DUP OP_HASH160 a25dec4d0011064ef106a983c39c7a540699f220 OP_EQUALVERIFY OP_CHECKSIG", "type": "pubkeyhash"}, "value": 0.01990392, "n": 1}, {"scriptPubKey": {"reqSigs": 1, "hex": "76a9143a444c123787cfffef84370a48161b29e517d1c788ac", "addresses": ["16K61Vk1g4m6mv327SVeFRvamut4MEB9rJ"], "asm": "OP_DUP OP_HASH160 3a444c123787cfffef84370a48161b29e517d1c7 OP_EQUALVERIFY OP_CHECKSIG", "type": "pubkeyhash"}, "value": 5.46e-06, "n": 2}], "hex": "0100000001131090e6bee345453abc5230d74388b7ae5629b359b6685f82c2a2197f90a211020000006a47304402204725b785f761439e365cba34bd2c87853f4ebbb53476138fdf3e741b6f5ab57e02206d1f37dd8dbfe1ec6c0b2df1aad828b522827a3e5fb456d7a10993a79087db51012103da5bac7b36d5aa38f531c6b9601e21bb598a4b6716ebed38b009a55dabde9440feffffff030000000000000000166a146f6d6e69000000000000001f00000b1f84ce3c00f85e1e00000000001976a914a25dec4d0011064ef106a983c39c7a540699f22088ac22020000000000001976a9143a444c123787cfffef84370a48161b29e517d1c788ac16490800", "vin": [{"sequence": 4294967294, "scriptSig": {"hex": "47304402204725b785f761439e365cba34bd2c87853f4ebbb53476138fdf3e741b6f5ab57e02206d1f37dd8dbfe1ec6c0b2df1aad828b522827a3e5fb456d7a10993a79087db51012103da5bac7b36d5aa38f531c6b9601e21bb598a4b6716ebed38b009a55dabde9440", "asm": "304402204725b785f761439e365cba34bd2c87853f4ebbb53476138fdf3e741b6f5ab57e02206d1f37dd8dbfe1ec6c0b2df1aad828b522827a3e5fb456d7a10993a79087db51[ALL] 03da5bac7b36d5aa38f531c6b9601e21bb598a4b6716ebed38b009a55dabde9440"}, "vout": 2, "txid": "11a2907f19a2c2825f68b659b32956aeb78843d73052bc3a4545e3bee6901013"}], "txid": "85444ceb0b9a067dfb0e0dd3372597feffbf0e3787c6d0912f6267f9379a1b70", "blocktime": 1537875543, "version": 1, "confirmations": 11464, "time": 1537875543, "locktime": 542998, "vsize": 256, "size": 256}