{"hash": "854adcaf6a8b7fca302c1d99b55df8d908fd943784423addf15811afcf3f4ed0", "blockhash": "0000000000000000000baef3f32e3676a92c3b2e5da21b426e4f302fc371ce76", "vout": [{"scriptPubKey": {"reqSigs": 1, "hex": "76a91467ef339f3b917f9472a5c79468a78c500fe3f98888ac", "addresses": ["1AUZ9nGPRGZ2G5C8qH3xFSV2aw48Yo9Sdi"], "asm": "OP_DUP OP_HASH160 67ef339f3b917f9472a5c79468a78c500fe3f988 OP_EQUALVERIFY OP_CHECKSIG", "type": "pubkeyhash"}, "value": 0.00630636, "n": 0}, {"scriptPubKey": {"type": "nulldata", "hex": "6a4c500000782a000153859a53cab2d46ba22edb7b27b7256b4774d339f6019d6ddc0f1b8ff117eae40cebdb6a3375ae57fb1ddc5e1e0c5baa1ea20614346d0f2803d91d100759d4ba30d2c37bb011d97e02cf", "asm": "OP_RETURN 0000782a000153859a53cab2d46ba22edb7b27b7256b4774d339f6019d6ddc0f1b8ff117eae40cebdb6a3375ae57fb1ddc5e1e0c5baa1ea20614346d0f2803d91d100759d4ba30d2c37bb011d97e02cf"}, "value": 0.0, "n": 1}], "hex": "010000000170433f641c49db512093f9196f2d09d681607e0b5d4ff51c18e45d3cd6fd9d6f000000006b483045022100c696189647b0d721de2f80e9fbc7c20b093c169814f5bb72f0ab5e4121cfa3ff02201a822fae86747f018d4232eb5454a51a3b1a44c69ac1a50eba50c2bcb0d4e4820121023eb3e4ecb8f91b57575d61ee19462d3961aea97d06ea4a20eef4dcbd6c24bf45ffffffff026c9f0900000000001976a91467ef339f3b917f9472a5c79468a78c500fe3f98888ac0000000000000000536a4c500000782a000153859a53cab2d46ba22edb7b27b7256b4774d339f6019d6ddc0f1b8ff117eae40cebdb6a3375ae57fb1ddc5e1e0c5baa1ea20614346d0f2803d91d100759d4ba30d2c37bb011d97e02cf00000000", "vin": [{"sequence": 4294967295, "scriptSig": {"hex": "483045022100c696189647b0d721de2f80e9fbc7c20b093c169814f5bb72f0ab5e4121cfa3ff02201a822fae86747f018d4232eb5454a51a3b1a44c69ac1a50eba50c2bcb0d4e4820121023eb3e4ecb8f91b57575d61ee19462d3961aea97d06ea4a20eef4dcbd6c24bf45", "asm": "3045022100c696189647b0d721de2f80e9fbc7c20b093c169814f5bb72f0ab5e4121cfa3ff02201a822fae86747f018d4232eb5454a51a3b1a44c69ac1a50eba50c2bcb0d4e482[ALL] 023eb3e4ecb8f91b57575d61ee19462d3961aea97d06ea4a20eef4dcbd6c24bf45"}, "vout": 0, "txid": "6f9dfdd63c5de4181cf54f5d0b7e6081d6092d6f19f9932051db491c643f4370"}], "txid": "854adcaf6a8b7fca302c1d99b55df8d908fd943784423addf15811afcf3f4ed0", "blocktime": 1537876114, "version": 1, "confirmations": 11462, "time": 1537876114, "locktime": 0, "vsize": 284, "size": 284}