{"hash": "f83c04106e66592ed1d4a0b20a81df8608e1ab8460a28581853f0db93025fa5e", "blockhash": "0000000000000000000e13cef7c366c0283d82e591d1acd082e914b08063cdf1", "vout": [{"scriptPubKey": {"reqSigs": 1, "hex": "a914086a455b089682c5c82bde9f89d4c34cf9ddb48587", "addresses": ["32TWdupALUF1iWw8Fgn3cEQSaz8vDDKZiJ"], "asm": "OP_HASH160 086a455b089682c5c82bde9f89d4c34cf9ddb485 OP_EQUAL", "type": "scripthash"}, "value": 0.00227423, "n": 0}, {"scriptPubKey": {"reqSigs": 1, "hex": "a9141282dbaf6d342f8f13cf18610ffcf4eb0faa652887", "addresses": ["33NtrBPwhfUoSay2QUTuVpGKnr1joLmL5z"], "asm": "OP_HASH160 1282dbaf6d342f8f13cf18610ffcf4eb0faa6528 OP_EQUAL", "type": "scripthash"}, "value": 0.00729664, "n": 1}], "hex": "010000000001010c0de19434b8218510e8ea43919e562a9ee55f2e5daa9ec3eb55b672da4cb302000000002322002005c952b79df6e6f93cdf47e8de3bf21336079a2a6aa736bf14abf261d14d1197ffffffff025f7803000000000017a914086a455b089682c5c82bde9f89d4c34cf9ddb4858740220b000000000017a9141282dbaf6d342f8f13cf18610ffcf4eb0faa6528870400483045022100e9fd3d657dbf68070b7943e09b0ed548d154705aff4c5db0a14d16a2180b1a71022045f8ecff8c5463a1b5db46385eb509f5bb85e44c76188c58dbcd2ef0b0e68bf001483045022100e49ee7bd3cb8a075533aacd7fa01f06456a325aa75b4376fd88a6b50f1bafaa602203e35a84b29f016340aef80c6cad1c33edd9380b85b60feb891e0b67b7653cf540147522102de448277e774fe2430ce2abcf4cc001567a86f7439428bab9d0d4e8294e41cb22102d8cbd56fe56ed46b7d86e915d643e8519cf5f3c693f8be00c1dd5ac66394422e52ae00000000", "vin": [{"txinwitness": ["", "3045022100e9fd3d657dbf68070b7943e09b0ed548d154705aff4c5db0a14d16a2180b1a71022045f8ecff8c5463a1b5db46385eb509f5bb85e44c76188c58dbcd2ef0b0e68bf001", "3045022100e49ee7bd3cb8a075533aacd7fa01f06456a325aa75b4376fd88a6b50f1bafaa602203e35a84b29f016340aef80c6cad1c33edd9380b85b60feb891e0b67b7653cf5401", "522102de448277e774fe2430ce2abcf4cc001567a86f7439428bab9d0d4e8294e41cb22102d8cbd56fe56ed46b7d86e915d643e8519cf5f3c693f8be00c1dd5ac66394422e52ae"], "sequence": 4294967295, "scriptSig": {"hex": "22002005c952b79df6e6f93cdf47e8de3bf21336079a2a6aa736bf14abf261d14d1197", "asm": "002005c952b79df6e6f93cdf47e8de3bf21336079a2a6aa736bf14abf261d14d1197"}, "vout": 0, "txid": "02b34cda72b655ebc39eaa5d2e5fe59e2a569e9143eae8108521b83494e10d0c"}], "txid": "85525ec9e221659efe3ef8f79d35377e8a70806219e07ef1a9acad53b333a891", "blocktime": 1537871767, "version": 1, "confirmations": 11495, "time": 1537871767, "locktime": 0, "vsize": 206, "size": 372}