{"hash": "8555a2f454d060275a373d8591cea0623d37e663e64bc6bdb102b68330b8aa7e", "blockhash": "0000000000000000001f0ddff1eddb255c1121bcd4da4f1bc9a0da00cae72433", "vout": [{"scriptPubKey": {"type": "nulldata", "hex": "6a146f6d6e69000000000000001f0000000490404400", "asm": "OP_RETURN 6f6d6e69000000000000001f0000000490404400"}, "value": 0.0, "n": 0}, {"scriptPubKey": {"reqSigs": 1, "hex": "76a914eb894abecac9634245af3c60ce1c75167c209a1588ac", "addresses": ["1NUQGJ355hXPtoZmAQVzGkDRCcBwG2EP8B"], "asm": "OP_DUP OP_HASH160 eb894abecac9634245af3c60ce1c75167c209a15 OP_EQUALVERIFY OP_CHECKSIG", "type": "pubkeyhash"}, "value": 5.46e-06, "n": 1}, {"scriptPubKey": {"reqSigs": 1, "hex": "76a914a25dec4d0011064ef106a983c39c7a540699f22088ac", "addresses": ["1FoWyxwPXuj4C6abqwhjDWdz6D4PZgYRjA"], "asm": "OP_DUP OP_HASH160 a25dec4d0011064ef106a983c39c7a540699f220 OP_EQUALVERIFY OP_CHECKSIG", "type": "pubkeyhash"}, "value": 0.01995188, "n": 2}], "hex": "0100000001a44813c76173a4fe9689194c29809e35be05f1741d9b5e1e9e8bd44070ac1fea720000006b483045022100c53726a3c1c0d502885d123fea7d6df5dedd8190afcb67c8a1ceb861bb147aaa02207d44895881d697451e711eaecbce56fa13f143cb30aa9fbd6324034d38d6332f012103da5bac7b36d5aa38f531c6b9601e21bb598a4b6716ebed38b009a55dabde9440feffffff030000000000000000166a146f6d6e69000000000000001f000000049040440022020000000000001976a914eb894abecac9634245af3c60ce1c75167c209a1588acb4711e00000000001976a914a25dec4d0011064ef106a983c39c7a540699f22088acc9480800", "vin": [{"sequence": 4294967294, "scriptSig": {"hex": "483045022100c53726a3c1c0d502885d123fea7d6df5dedd8190afcb67c8a1ceb861bb147aaa02207d44895881d697451e711eaecbce56fa13f143cb30aa9fbd6324034d38d6332f012103da5bac7b36d5aa38f531c6b9601e21bb598a4b6716ebed38b009a55dabde9440", "asm": "3045022100c53726a3c1c0d502885d123fea7d6df5dedd8190afcb67c8a1ceb861bb147aaa02207d44895881d697451e711eaecbce56fa13f143cb30aa9fbd6324034d38d6332f[ALL] 03da5bac7b36d5aa38f531c6b9601e21bb598a4b6716ebed38b009a55dabde9440"}, "vout": 114, "txid": "ea1fac7040d48b9e1e5e9b1d74f105be359e80294c198996fea47361c71348a4"}], "txid": "8555a2f454d060275a373d8591cea0623d37e663e64bc6bdb102b68330b8aa7e", "blocktime": 1537872018, "version": 1, "confirmations": 11489, "time": 1537872018, "locktime": 542921, "vsize": 257, "size": 257}