{"hash": "8556db1a00aaabfbd1eb53c83bbcf3cdda1c2ab63a17fa10c04ce54fbf9338b2", "blockhash": "0000000000000000001f76057863aec43deb6fa401d9628bb513d65a8098bfab", "vout": [{"scriptPubKey": {"reqSigs": 1, "hex": "76a9147b07f60e1f25951ef9adafaa1cf6e55a4014eb1b88ac", "addresses": ["1CDXekFhPS3AbSU2sVPKzSvRSck9kkWauR"], "asm": "OP_DUP OP_HASH160 7b07f60e1f25951ef9adafaa1cf6e55a4014eb1b OP_EQUALVERIFY OP_CHECKSIG", "type": "pubkeyhash"}, "value": 0.0005, "n": 0}, {"scriptPubKey": {"reqSigs": 1, "hex": "76a914da496345e1a0ba73c36cbb07167789ea66e8fca088ac", "addresses": ["1LuCDtinCE7rLc5jwFkogNQ2fW5A4zTa1u"], "asm": "OP_DUP OP_HASH160 da496345e1a0ba73c36cbb07167789ea66e8fca0 OP_EQUALVERIFY OP_CHECKSIG", "type": "pubkeyhash"}, "value": 0.01260091, "n": 1}], "hex": "01000000013b56df0d84d08009e822928597d60af0fbbb95ff80abb935f1e1551fc6afdf34010000006a4730440220227f6c8f3b8301fde368d2af4643deae8a30ed2bb4f0553d5e0e85f4b3b0a641022043d8e3fda8cb376a24d2d81f987a0d439c7bd6bf9f0ee218dee4284af2c9b4e40121030dd77622d2cc898743dd262adfff9a8bb43b848d332827d8fc117dabfe322870fdffffff0250c30000000000001976a9147b07f60e1f25951ef9adafaa1cf6e55a4014eb1b88ac3b3a1300000000001976a914da496345e1a0ba73c36cbb07167789ea66e8fca088ac14490800", "vin": [{"sequence": 4294967293, "scriptSig": {"hex": "4730440220227f6c8f3b8301fde368d2af4643deae8a30ed2bb4f0553d5e0e85f4b3b0a641022043d8e3fda8cb376a24d2d81f987a0d439c7bd6bf9f0ee218dee4284af2c9b4e40121030dd77622d2cc898743dd262adfff9a8bb43b848d332827d8fc117dabfe322870", "asm": "30440220227f6c8f3b8301fde368d2af4643deae8a30ed2bb4f0553d5e0e85f4b3b0a641022043d8e3fda8cb376a24d2d81f987a0d439c7bd6bf9f0ee218dee4284af2c9b4e4[ALL] 030dd77622d2cc898743dd262adfff9a8bb43b848d332827d8fc117dabfe322870"}, "vout": 1, "txid": "34dfafc61f55e1f135b9ab80ff95bbfbf00ad697859222e80980d0840ddf563b"}], "txid": "8556db1a00aaabfbd1eb53c83bbcf3cdda1c2ab63a17fa10c04ce54fbf9338b2", "blocktime": 1537873891, "version": 1, "confirmations": 11479, "time": 1537873891, "locktime": 542996, "vsize": 225, "size": 225}