{"hash": "8559779f6282d095d5a962bf90e9e34d294e32fce426e4daf4f582dad5569470", "blockhash": "0000000000000000000e13cef7c366c0283d82e591d1acd082e914b08063cdf1", "vout": [{"scriptPubKey": {"reqSigs": 1, "hex": "76a914a520c86a08366941cd90d22e11ac1c7eefa2db3788ac", "addresses": ["1G47mSr3oANXMafVrR8UC4pzV7FEAzo3r9"], "asm": "OP_DUP OP_HASH160 a520c86a08366941cd90d22e11ac1c7eefa2db37 OP_EQUALVERIFY OP_CHECKSIG", "type": "pubkeyhash"}, "value": 1.03733333, "n": 0}, {"scriptPubKey": {"reqSigs": 1, "hex": "76a914fb2d04613404d788b80b28f0e003cd06435582f088ac", "addresses": ["1Pu6XzbH5kwjH7i4eiaLMMDX4bCpkFGR3e"], "asm": "OP_DUP OP_HASH160 fb2d04613404d788b80b28f0e003cd06435582f0 OP_EQUALVERIFY OP_CHECKSIG", "type": "pubkeyhash"}, "value": 5.46e-06, "n": 1}, {"scriptPubKey": {"type": "nulldata", "hex": "6a146f6d6e69000000000000001f0000016ecd284a00", "asm": "OP_RETURN 6f6d6e69000000000000001f0000016ecd284a00"}, "value": 0.0, "n": 2}], "hex": "01000000017c4e56838eb13636474bd01f093c6a94b6e145c20c677563f8cc5bbab7886789020000006b483045022100ebb1756028cb4fee56fc61eae0d5f63486f91107359240e5edca7e8cae44b30e022058d8065a8d3ba19ed3b245698e5c677bcc025f142347228e9e9dba54d65c1395012103f3f44c9e80e2cedc1a2909631a3adea8866ee32187f74d0912387359b0ff36a2ffffffff0355d82e06000000001976a914a520c86a08366941cd90d22e11ac1c7eefa2db3788ac22020000000000001976a914fb2d04613404d788b80b28f0e003cd06435582f088ac0000000000000000166a146f6d6e69000000000000001f0000016ecd284a0000000000", "vin": [{"sequence": 4294967295, "scriptSig": {"hex": "483045022100ebb1756028cb4fee56fc61eae0d5f63486f91107359240e5edca7e8cae44b30e022058d8065a8d3ba19ed3b245698e5c677bcc025f142347228e9e9dba54d65c1395012103f3f44c9e80e2cedc1a2909631a3adea8866ee32187f74d0912387359b0ff36a2", "asm": "3045022100ebb1756028cb4fee56fc61eae0d5f63486f91107359240e5edca7e8cae44b30e022058d8065a8d3ba19ed3b245698e5c677bcc025f142347228e9e9dba54d65c1395[ALL] 03f3f44c9e80e2cedc1a2909631a3adea8866ee32187f74d0912387359b0ff36a2"}, "vout": 2, "txid": "896788b7ba5bccf86375670cc245e1b6946a3c091fd04b473636b18e83564e7c"}], "txid": "8559779f6282d095d5a962bf90e9e34d294e32fce426e4daf4f582dad5569470", "blocktime": 1537871767, "version": 1, "confirmations": 11491, "time": 1537871767, "locktime": 0, "vsize": 257, "size": 257}