{"hash": "edd9040cfddab6f15c1087776d5809926484f4d9f2ef8dd76e39c2b8ff68b2a8", "blockhash": "0000000000000000000e13cef7c366c0283d82e591d1acd082e914b08063cdf1", "vout": [{"scriptPubKey": {"reqSigs": 1, "hex": "76a9140a3195c50a139c1268b517078c4818eb7c3cee7288ac", "addresses": ["1vuA9XxA95fff3zonS6wemPTWBvQ16vN9"], "asm": "OP_DUP OP_HASH160 0a3195c50a139c1268b517078c4818eb7c3cee72 OP_EQUALVERIFY OP_CHECKSIG", "type": "pubkeyhash"}, "value": 0.00276533, "n": 0}, {"scriptPubKey": {"reqSigs": 1, "hex": "a9144917167a6f801fc573923f1147cdd2e2d7cc48cf87", "addresses": ["38MUuiVgRdWzC8Kftd3weuAD1BWmswYG71"], "asm": "OP_HASH160 4917167a6f801fc573923f1147cdd2e2d7cc48cf OP_EQUAL", "type": "scripthash"}, "value": 8.264e-05, "n": 1}], "hex": "02000000000101bf34756785a2065b9e0699a6d8e5f414d86e0ca5aaa726de9ad19818c62581e81200000017160014b8049b1648282bf54e28a97dd1f7731388704b97feffffff0235380400000000001976a9140a3195c50a139c1268b517078c4818eb7c3cee7288ac482000000000000017a9144917167a6f801fc573923f1147cdd2e2d7cc48cf8702483045022100e96897e9452e03deebbc5487b70fa8ba5b6211dba2c46b0585661f8604f588a002202b8532a3cef3c81c1412a072654efbc27922a1267533de9b08cf1f7c120681bc01210292a177a80bbda04ad8991292506192ac56eb566408998e910d0d0cd8b7b2ddfb10490800", "vin": [{"txinwitness": ["3045022100e96897e9452e03deebbc5487b70fa8ba5b6211dba2c46b0585661f8604f588a002202b8532a3cef3c81c1412a072654efbc27922a1267533de9b08cf1f7c120681bc01", "0292a177a80bbda04ad8991292506192ac56eb566408998e910d0d0cd8b7b2ddfb"], "sequence": 4294967294, "scriptSig": {"hex": "160014b8049b1648282bf54e28a97dd1f7731388704b97", "asm": "0014b8049b1648282bf54e28a97dd1f7731388704b97"}, "vout": 18, "txid": "e88125c61898d19ade26a7aaa50c6ed814f4e5d8a699069e5b06a285677534bf"}], "txid": "855e8bc3cd2d257c7132caa109b0a2f9123aabda2f32a62588fc22627016804c", "blocktime": 1537871767, "version": 2, "confirmations": 11495, "time": 1537871767, "locktime": 542992, "vsize": 168, "size": 250}