{"hash": "855ee7363e99791637c067e07614717af44762da4a33fddd092a7ae93d1b502a", "blockhash": "000000000000000000022b45ed06c6f4ccd3cf7fb5ba4856ebd2e58215665228", "vout": [{"scriptPubKey": {"reqSigs": 1, "hex": "76a9142f45460aab2d7837c65dbbfcf49f54b49e348e0d88ac", "addresses": ["15JwkEMFqAskaF3LfUnZYcGQagzqjEjsWr"], "asm": "OP_DUP OP_HASH160 2f45460aab2d7837c65dbbfcf49f54b49e348e0d OP_EQUALVERIFY OP_CHECKSIG", "type": "pubkeyhash"}, "value": 0.00320808, "n": 0}, {"scriptPubKey": {"reqSigs": 1, "hex": "a9142f02d152bafbf3033a3b94ef2a502bf7a648aecc87", "addresses": ["35yb4LNdECrct3b8Bmap36NbRRk4HQUpRg"], "asm": "OP_HASH160 2f02d152bafbf3033a3b94ef2a502bf7a648aecc OP_EQUAL", "type": "scripthash"}, "value": 0.007, "n": 1}], "hex": "01000000019c91b10deed024a1d04a23e2c116ba63770136df364603da2ae43f5a7dcd5bc6000000006a47304402204e9d419514d6a7ea46b5eb67a0175386529ff4df5eee3d92707dab3b8cfcec9c022014064908146a8b4b0ce783975b19d6f5aec13fbb9d74694a19fe32758a74361601210315500c2c5be471df77eb0446918a81df5307dc2328706086a413ae1b558e4ce6ffffffff0228e50400000000001976a9142f45460aab2d7837c65dbbfcf49f54b49e348e0d88ac60ae0a000000000017a9142f02d152bafbf3033a3b94ef2a502bf7a648aecc8700000000", "vin": [{"sequence": 4294967295, "scriptSig": {"hex": "47304402204e9d419514d6a7ea46b5eb67a0175386529ff4df5eee3d92707dab3b8cfcec9c022014064908146a8b4b0ce783975b19d6f5aec13fbb9d74694a19fe32758a74361601210315500c2c5be471df77eb0446918a81df5307dc2328706086a413ae1b558e4ce6", "asm": "304402204e9d419514d6a7ea46b5eb67a0175386529ff4df5eee3d92707dab3b8cfcec9c022014064908146a8b4b0ce783975b19d6f5aec13fbb9d74694a19fe32758a743616[ALL] 0315500c2c5be471df77eb0446918a81df5307dc2328706086a413ae1b558e4ce6"}, "vout": 0, "txid": "c65bcd7d5a3fe42ada034636df36017763ba16c1e2234ad0a124d0ee0db1919c"}], "txid": "855ee7363e99791637c067e07614717af44762da4a33fddd092a7ae93d1b502a", "blocktime": 1537869901, "version": 1, "confirmations": 11522, "time": 1537869901, "locktime": 0, "vsize": 223, "size": 223}