{"hash": "3bd3524a9213293c6d24eb2dec7396f8c225916eb0a9010bd557b6f26e09614c", "blockhash": "000000000000000000022b45ed06c6f4ccd3cf7fb5ba4856ebd2e58215665228", "vout": [{"scriptPubKey": {"reqSigs": 1, "hex": "a914a32670f4fb342fd13ad5058f7a289bc9ae89d5e587", "addresses": ["3GZg7koypcBdAmYkDR4UdYHZ83vn12XoC9"], "asm": "OP_HASH160 a32670f4fb342fd13ad5058f7a289bc9ae89d5e5 OP_EQUAL", "type": "scripthash"}, "value": 0.02676912, "n": 0}, {"scriptPubKey": {"reqSigs": 1, "hex": "a914c637f44fc8974a715d5fd7453bfe4ec24abfd3b187", "addresses": ["3Km6kJUL6mMQhjT3ZZDgjwJu5Urs3GLNGn"], "asm": "OP_HASH160 c637f44fc8974a715d5fd7453bfe4ec24abfd3b1 OP_EQUAL", "type": "scripthash"}, "value": 0.00918154, "n": 1}, {"scriptPubKey": {"reqSigs": 1, "hex": "a914f005769ef283cd3078ebc8568fa0833188076e6287", "addresses": ["3Pa8eBdmSEJkhFtpE7c6JzjPZufUjtijvC"], "asm": "OP_HASH160 f005769ef283cd3078ebc8568fa0833188076e62 OP_EQUAL", "type": "scripthash"}, "value": 0.00638271, "n": 2}], "hex": "01000000000101e21f6221e552bbe5e287c3004cb9b2e20d7d145eb21044b130fdbb54d04fb9930000000023220020478eae1a47734e81d20e13ce508a567c2382c95a58e170cdc0bc927911d71ffaffffffff03b0d828000000000017a914a32670f4fb342fd13ad5058f7a289bc9ae89d5e5878a020e000000000017a914c637f44fc8974a715d5fd7453bfe4ec24abfd3b1873fbd09000000000017a914f005769ef283cd3078ebc8568fa0833188076e62870400483045022100e8f464b4406f8bb4dc9e4f655faa21ede5eabdef623f2c85fc2c0eb8e7f13c0602202a64fd255e0ee1bb2eefc1b5ee7556d68eae7873e5fcb71cd099ecd371a868de01473044022050f117fe2d027dc1943ccc9722b08fb20abf1f4276c5faa10907d045cafef8950220755ee3a035bec1c4c2702550e69970835dc08ad342b6cd6417edf7c6d5544d360169522103d7ff2edbd9e7de6733edf51c696149f7124a28e0e28c28c2b8637b62bb4e175a2102c439d64c4365a29275487e754ef57238cdbaae4c9e48dd7376965dc2c61644b62103b787ab2c108f97782b25c35f08ed08c679fab8e627d9e5b89cdb93480e1bb98753ae00000000", "vin": [{"txinwitness": ["", "3045022100e8f464b4406f8bb4dc9e4f655faa21ede5eabdef623f2c85fc2c0eb8e7f13c0602202a64fd255e0ee1bb2eefc1b5ee7556d68eae7873e5fcb71cd099ecd371a868de01", "3044022050f117fe2d027dc1943ccc9722b08fb20abf1f4276c5faa10907d045cafef8950220755ee3a035bec1c4c2702550e69970835dc08ad342b6cd6417edf7c6d5544d3601", "522103d7ff2edbd9e7de6733edf51c696149f7124a28e0e28c28c2b8637b62bb4e175a2102c439d64c4365a29275487e754ef57238cdbaae4c9e48dd7376965dc2c61644b62103b787ab2c108f97782b25c35f08ed08c679fab8e627d9e5b89cdb93480e1bb98753ae"], "sequence": 4294967295, "scriptSig": {"hex": "220020478eae1a47734e81d20e13ce508a567c2382c95a58e170cdc0bc927911d71ffa", "asm": "0020478eae1a47734e81d20e13ce508a567c2382c95a58e170cdc0bc927911d71ffa"}, "vout": 0, "txid": "93b94fd054bbfd30b14410b25e147d0de2b2b94c00c387e2e5bb52e521621fe2"}], "txid": "855e37a37d98407756a517ec1cf86fb59771e8d50e5d5e88ee0a1b5db642929e", "blocktime": 1537869901, "version": 1, "confirmations": 11522, "time": 1537869901, "locktime": 0, "vsize": 246, "size": 437}