{"hash": "8562d0260eee561fc89a2c9713b9b5919580d6304070e9434e053fce3ff58c56", "blockhash": "0000000000000000001f76057863aec43deb6fa401d9628bb513d65a8098bfab", "vout": [{"scriptPubKey": {"type": "nulldata", "hex": "6a4c50000077d800010e0e7dff8cbfd771d8f827995b23cc0f42c2fc38c5e5bf9ae76da98a211a9b9a00f305af959bb1524a8c64273df45baa15970612b77f0da053e21d100759d4ba30d2c37bb011d97e02cf", "asm": "OP_RETURN 000077d800010e0e7dff8cbfd771d8f827995b23cc0f42c2fc38c5e5bf9ae76da98a211a9b9a00f305af959bb1524a8c64273df45baa15970612b77f0da053e21d100759d4ba30d2c37bb011d97e02cf"}, "value": 0.0, "n": 0}, {"scriptPubKey": {"reqSigs": 1, "hex": "76a914b0e33358c76bf8bd30c4f0286b9709c1d98103d288ac", "addresses": ["1H8J6wDUtCywQixSM2Kfz7agg6axoqtkZa"], "asm": "OP_DUP OP_HASH160 b0e33358c76bf8bd30c4f0286b9709c1d98103d2 OP_EQUALVERIFY OP_CHECKSIG", "type": "pubkeyhash"}, "value": 0.00636587, "n": 1}], "hex": "01000000018d6aa2169329fe599bb089fa0635287afceea03b4b7c0ce06d06e2584dd7afe1010000006a47304402207629267e5aa71347edc947fa94b3a30bbda8036d6f6d2ac062e126890672ed1d022043c64ab0681747c35389cd97c78d76814115e7ca297b7325913d0ce5bf34b3bb01210263c3e232fbd768231ab2c3e4bf81e8f575d51021ce8178d0ef091dc45fe196a2ffffffff020000000000000000536a4c50000077d800010e0e7dff8cbfd771d8f827995b23cc0f42c2fc38c5e5bf9ae76da98a211a9b9a00f305af959bb1524a8c64273df45baa15970612b77f0da053e21d100759d4ba30d2c37bb011d97e02cfabb60900000000001976a914b0e33358c76bf8bd30c4f0286b9709c1d98103d288ac00000000", "vin": [{"sequence": 4294967295, "scriptSig": {"hex": "47304402207629267e5aa71347edc947fa94b3a30bbda8036d6f6d2ac062e126890672ed1d022043c64ab0681747c35389cd97c78d76814115e7ca297b7325913d0ce5bf34b3bb01210263c3e232fbd768231ab2c3e4bf81e8f575d51021ce8178d0ef091dc45fe196a2", "asm": "304402207629267e5aa71347edc947fa94b3a30bbda8036d6f6d2ac062e126890672ed1d022043c64ab0681747c35389cd97c78d76814115e7ca297b7325913d0ce5bf34b3bb[ALL] 0263c3e232fbd768231ab2c3e4bf81e8f575d51021ce8178d0ef091dc45fe196a2"}, "vout": 1, "txid": "e1afd74d58e2066de00c7c4b3ba0eefc7a283506fa89b09b59fe299316a26a8d"}], "txid": "8562d0260eee561fc89a2c9713b9b5919580d6304070e9434e053fce3ff58c56", "blocktime": 1537873891, "version": 1, "confirmations": 11478, "time": 1537873891, "locktime": 0, "vsize": 283, "size": 283}