{"hash": "8567634393a79ce28580a846ae3a05697ffc6dfb1a5c84ff72979a3643832f5e", "blockhash": "0000000000000000001f76057863aec43deb6fa401d9628bb513d65a8098bfab", "vout": [{"scriptPubKey": {"reqSigs": 1, "hex": "76a9143b8d7aea1be9d90782fc65409cc8683f4c3167fc88ac", "addresses": ["16RtMXkDz4wkGsTDX6KB7DQM6MngL96pFF"], "asm": "OP_DUP OP_HASH160 3b8d7aea1be9d90782fc65409cc8683f4c3167fc OP_EQUALVERIFY OP_CHECKSIG", "type": "pubkeyhash"}, "value": 0.00998895, "n": 0}, {"scriptPubKey": {"reqSigs": 1, "hex": "76a9143a3dffaf6c7ad4ad626a0a6db46a3d5dcf8cafcf88ac", "addresses": ["16JxTspjdCdsBPkCj19ftmoC9eSkPRb9bE"], "asm": "OP_DUP OP_HASH160 3a3dffaf6c7ad4ad626a0a6db46a3d5dcf8cafcf OP_EQUALVERIFY OP_CHECKSIG", "type": "pubkeyhash"}, "value": 0.05918789, "n": 1}], "hex": "0200000003aa20de6143ab33aa0c4c37a7ca8348a61e398ca7c55de394a0b94a04ba3582e6030000006a473044022050b980f1e3e3b8df7c0d6fee5ebdbf9721dbe8a873d4182f99310a193e2cc37e02206b4a6c2defb59f295d81d0c58e557ba2c14a874707fd0d57e45618e21afddcc4012103a236bea22db735f9ec733e330c1fef2f31d41561211507ce4e9a66fee6145450feffffff8cbee04f2a708f85efc62287f186e1e63cc7644b7dbdc844bdbe50e8d4a423b5090000006b483045022100c1be59251117033e82dce5fb14f95115b702dcb01614c71cd1568ff37fd8149d0220543d95abb74fa8f09e8a999872c08f5c5ad0f8077788200a694445af7c175c560121037f36562a24a0de3972aa152b9a64cffa978c8ce70224cbd3467e627d848eaab3feffffff21140b7163ffb73c10d26dd86bd39c7b81416ca8933d1d873ed3c5d993980554000000006b483045022100cd52382527b47822671802c4d1228ec1b4b93db085b13bb7410121f99c9a20bf022038400dbdd6b6dc3cd92e1309e4357f0b7bde309cea3d09e2c6fb09f825c62733012103adbfe6a874eefbd56ff544d7a99820d27059f5f40141c03d6d21a9a047fedf7dfeffffff02ef3d0f00000000001976a9143b8d7aea1be9d90782fc65409cc8683f4c3167fc88ac45505a00000000001976a9143a3dffaf6c7ad4ad626a0a6db46a3d5dcf8cafcf88ac13490800", "vin": [{"sequence": 4294967294, "scriptSig": {"hex": "473044022050b980f1e3e3b8df7c0d6fee5ebdbf9721dbe8a873d4182f99310a193e2cc37e02206b4a6c2defb59f295d81d0c58e557ba2c14a874707fd0d57e45618e21afddcc4012103a236bea22db735f9ec733e330c1fef2f31d41561211507ce4e9a66fee6145450", "asm": "3044022050b980f1e3e3b8df7c0d6fee5ebdbf9721dbe8a873d4182f99310a193e2cc37e02206b4a6c2defb59f295d81d0c58e557ba2c14a874707fd0d57e45618e21afddcc4[ALL] 03a236bea22db735f9ec733e330c1fef2f31d41561211507ce4e9a66fee6145450"}, "vout": 3, "txid": "e68235ba044ab9a094e35dc5a78c391ea64883caa7374c0caa33ab4361de20aa"}, {"sequence": 4294967294, "scriptSig": {"hex": "483045022100c1be59251117033e82dce5fb14f95115b702dcb01614c71cd1568ff37fd8149d0220543d95abb74fa8f09e8a999872c08f5c5ad0f8077788200a694445af7c175c560121037f36562a24a0de3972aa152b9a64cffa978c8ce70224cbd3467e627d848eaab3", "asm": "3045022100c1be59251117033e82dce5fb14f95115b702dcb01614c71cd1568ff37fd8149d0220543d95abb74fa8f09e8a999872c08f5c5ad0f8077788200a694445af7c175c56[ALL] 037f36562a24a0de3972aa152b9a64cffa978c8ce70224cbd3467e627d848eaab3"}, "vout": 9, "txid": "b523a4d4e850bebd44c8bd7d4b64c73ce6e186f18722c6ef858f702a4fe0be8c"}, {"sequence": 4294967294, "scriptSig": {"hex": "483045022100cd52382527b47822671802c4d1228ec1b4b93db085b13bb7410121f99c9a20bf022038400dbdd6b6dc3cd92e1309e4357f0b7bde309cea3d09e2c6fb09f825c62733012103adbfe6a874eefbd56ff544d7a99820d27059f5f40141c03d6d21a9a047fedf7d", "asm": "3045022100cd52382527b47822671802c4d1228ec1b4b93db085b13bb7410121f99c9a20bf022038400dbdd6b6dc3cd92e1309e4357f0b7bde309cea3d09e2c6fb09f825c62733[ALL] 03adbfe6a874eefbd56ff544d7a99820d27059f5f40141c03d6d21a9a047fedf7d"}, "vout": 0, "txid": "54059893d9c5d33e871d3d93a86c41817b9cd36bd86dd2103cb7ff63710b1421"}], "txid": "8567634393a79ce28580a846ae3a05697ffc6dfb1a5c84ff72979a3643832f5e", "blocktime": 1537873891, "version": 2, "confirmations": 11478, "time": 1537873891, "locktime": 542995, "vsize": 521, "size": 521}