{"hash": "8569da1225920690db74e0f82be9dfcca6347181acfb35a9d9494b1f051afab0", "blockhash": "00000000000000000024a2167bbff67b0be802c0b01cdd79e6331c2be6459f87", "vout": [{"scriptPubKey": {"reqSigs": 1, "hex": "a9149e86026db0651e4e3835ceb786c5fd1a43d98aef87", "addresses": ["3G9DDzgSG7VpMusNXxAJjrfMVxaCWyzsWv"], "asm": "OP_HASH160 9e86026db0651e4e3835ceb786c5fd1a43d98aef OP_EQUAL", "type": "scripthash"}, "value": 0.02653912, "n": 0}], "hex": "0100000001a4b96d757fc04939073b082e144b4f94893f05bbf475ad11102ec04b14a728d00d0000006b483045022100889b01499016e5e89132432fc0f5154d92888631cc8f8e4e94f9762724607fee022077e3da2a8d376eddfe3d89bba9dbf8f9a974706253f9846805146a420b13eca90121021816cb0319204c4a795b256101931c6a5f23b2d030fcc2358d1cb9e2dba2218efdffffff01d87e28000000000017a9149e86026db0651e4e3835ceb786c5fd1a43d98aef870d490800", "vin": [{"sequence": 4294967293, "scriptSig": {"hex": "483045022100889b01499016e5e89132432fc0f5154d92888631cc8f8e4e94f9762724607fee022077e3da2a8d376eddfe3d89bba9dbf8f9a974706253f9846805146a420b13eca90121021816cb0319204c4a795b256101931c6a5f23b2d030fcc2358d1cb9e2dba2218e", "asm": "3045022100889b01499016e5e89132432fc0f5154d92888631cc8f8e4e94f9762724607fee022077e3da2a8d376eddfe3d89bba9dbf8f9a974706253f9846805146a420b13eca9[ALL] 021816cb0319204c4a795b256101931c6a5f23b2d030fcc2358d1cb9e2dba2218e"}, "vout": 13, "txid": "d028a7144bc02e1011ad75f4bb053f89944f4b142e083b073949c07f756db9a4"}], "txid": "8569da1225920690db74e0f82be9dfcca6347181acfb35a9d9494b1f051afab0", "blocktime": 1537870564, "version": 1, "confirmations": 11515, "time": 1537870564, "locktime": 542989, "vsize": 190, "size": 190}