{"hash": "856c041df7b79c1897af6f77a94351e3eb5c344cae26256b1156f346b664a65e", "blockhash": "00000000000000000004ffacab907a6b429b9a5745fa0b75af4234bf69dd7176", "vout": [{"scriptPubKey": {"reqSigs": 1, "hex": "76a91441297eaca3aebdbe3d7efe916fb4fe7e4e88849488ac", "addresses": ["16wYdadErDyHUCuUbcXUvgHsnba5Qvwv5S"], "asm": "OP_DUP OP_HASH160 41297eaca3aebdbe3d7efe916fb4fe7e4e888494 OP_EQUALVERIFY OP_CHECKSIG", "type": "pubkeyhash"}, "value": 0.07512781, "n": 0}, {"scriptPubKey": {"reqSigs": 1, "hex": "76a9141badb0f570920934ea547c47d0b83615b4fe67fa88ac", "addresses": ["13XMKTc5Su3XfjP7HnxefmqPXLgWZYachy"], "asm": "OP_DUP OP_HASH160 1badb0f570920934ea547c47d0b83615b4fe67fa OP_EQUALVERIFY OP_CHECKSIG", "type": "pubkeyhash"}, "value": 0.26, "n": 1}], "hex": "010000000151639bbbeea35d4fec0ed0a9b8995cba5dddb13de472c8e722ca5505cae942020b0000006b4830450221009ebe20adf5a9119582d09703e66cc47701b5faaa864140b167f86e1a7daa4b9c02204e14af59316cefcbea62d72d5bdc978886afaae7d18267eeea700ba4816d3351012103ccc8cf71e2a12102aa8fa390a7c1e118acdef1557b88b6cfeeb5f7bfcae9a538ffffffff02cda27200000000001976a91441297eaca3aebdbe3d7efe916fb4fe7e4e88849488ac80ba8c01000000001976a9141badb0f570920934ea547c47d0b83615b4fe67fa88ac00000000", "vin": [{"sequence": 4294967295, "scriptSig": {"hex": "4830450221009ebe20adf5a9119582d09703e66cc47701b5faaa864140b167f86e1a7daa4b9c02204e14af59316cefcbea62d72d5bdc978886afaae7d18267eeea700ba4816d3351012103ccc8cf71e2a12102aa8fa390a7c1e118acdef1557b88b6cfeeb5f7bfcae9a538", "asm": "30450221009ebe20adf5a9119582d09703e66cc47701b5faaa864140b167f86e1a7daa4b9c02204e14af59316cefcbea62d72d5bdc978886afaae7d18267eeea700ba4816d3351[ALL] 03ccc8cf71e2a12102aa8fa390a7c1e118acdef1557b88b6cfeeb5f7bfcae9a538"}, "vout": 11, "txid": "0242e9ca0555ca22e7c872e43db1dd5dba5c99b8a9d00eec4f5da3eebb9b6351"}], "txid": "856c041df7b79c1897af6f77a94351e3eb5c344cae26256b1156f346b664a65e", "blocktime": 1537875543, "version": 1, "confirmations": 11464, "time": 1537875543, "locktime": 0, "vsize": 226, "size": 226}