{"hash": "856e602003c73166d871a2b9df450e8f0175cdbd78e50e752f5c04271dc30204", "blockhash": "00000000000000000004ffacab907a6b429b9a5745fa0b75af4234bf69dd7176", "vout": [{"scriptPubKey": {"reqSigs": 1, "hex": "76a914a752b8ac3f39d9d57904c74926022275d1d8acba88ac", "addresses": ["1GFiwcqJ9QrcoXYeeCfmCCgxcY24F3jJvr"], "asm": "OP_DUP OP_HASH160 a752b8ac3f39d9d57904c74926022275d1d8acba OP_EQUALVERIFY OP_CHECKSIG", "type": "pubkeyhash"}, "value": 0.88, "n": 0}, {"scriptPubKey": {"reqSigs": 1, "hex": "76a91448bba5c6215624931b26c7fe24920ab8c518ff6988ac", "addresses": ["17daSnxnp4AuXM4s7DgceMw4vQvo9xrf6A"], "asm": "OP_DUP OP_HASH160 48bba5c6215624931b26c7fe24920ab8c518ff69 OP_EQUALVERIFY OP_CHECKSIG", "type": "pubkeyhash"}, "value": 0.79388, "n": 1}], "hex": "01000000025db346cc3dcafb35203301dc03e3ce67eb653e61008318b4abf7b2e181ecbb8a010000006a47304402207b9465c6174ff4662cc340f219e2d53c71d8a32df87934197dd0e60dfb222e8102202b4bc8b8b13ed81bb425b6732937b8e4d92a2f173443ea029928f084ae9be67f012102934a7ef9aaea2c6e5703c8c960213136521cc85c0c682e63dd7eb4b66584e09cffffffffd02df5bdf859f00d59d2d44c439b49c693b0f2110accc1f3a28532b93dae153c000000006b48304502210088045b2fe670d64ee8d7a9811e04381d5d2d62ee587b5c58d45d6ac883553e1e0220154096be54045ee207ae3b95521a5a35f8d3ee5a0fa7e52a8e24ce25dcd86efe01210229e846b3200560b17ad9b25e765e47c97a8a121d613082233a57e2b1ab6a58c3ffffffff0200c63e05000000001976a914a752b8ac3f39d9d57904c74926022275d1d8acba88ac605dbb04000000001976a91448bba5c6215624931b26c7fe24920ab8c518ff6988ac00000000", "vin": [{"sequence": 4294967295, "scriptSig": {"hex": "47304402207b9465c6174ff4662cc340f219e2d53c71d8a32df87934197dd0e60dfb222e8102202b4bc8b8b13ed81bb425b6732937b8e4d92a2f173443ea029928f084ae9be67f012102934a7ef9aaea2c6e5703c8c960213136521cc85c0c682e63dd7eb4b66584e09c", "asm": "304402207b9465c6174ff4662cc340f219e2d53c71d8a32df87934197dd0e60dfb222e8102202b4bc8b8b13ed81bb425b6732937b8e4d92a2f173443ea029928f084ae9be67f[ALL] 02934a7ef9aaea2c6e5703c8c960213136521cc85c0c682e63dd7eb4b66584e09c"}, "vout": 1, "txid": "8abbec81e1b2f7abb4188300613e65eb67cee303dc01332035fbca3dcc46b35d"}, {"sequence": 4294967295, "scriptSig": {"hex": "48304502210088045b2fe670d64ee8d7a9811e04381d5d2d62ee587b5c58d45d6ac883553e1e0220154096be54045ee207ae3b95521a5a35f8d3ee5a0fa7e52a8e24ce25dcd86efe01210229e846b3200560b17ad9b25e765e47c97a8a121d613082233a57e2b1ab6a58c3", "asm": "304502210088045b2fe670d64ee8d7a9811e04381d5d2d62ee587b5c58d45d6ac883553e1e0220154096be54045ee207ae3b95521a5a35f8d3ee5a0fa7e52a8e24ce25dcd86efe[ALL] 0229e846b3200560b17ad9b25e765e47c97a8a121d613082233a57e2b1ab6a58c3"}, "vout": 0, "txid": "3c15ae3db93285a2f3c1cc0a11f2b093c6499b434cd4d2590df059f8bdf52dd0"}], "txid": "856e602003c73166d871a2b9df450e8f0175cdbd78e50e752f5c04271dc30204", "blocktime": 1537875543, "version": 1, "confirmations": 11464, "time": 1537875543, "locktime": 0, "vsize": 373, "size": 373}