{"hash": "8577092e3554b98a07850c962891531e91aaf77b90edbae0068243077471f151", "blockhash": "0000000000000000001e0dab787dd257d1dbfcb92a98c2207d5e1078be1f4165", "vout": [{"scriptPubKey": {"reqSigs": 1, "hex": "a9146ebe56729ca48dd6eadf3376b0708abade88322d87", "addresses": ["3BnaGYEn3aNw3vWb9iHHeHSB7dGe2sBXFV"], "asm": "OP_HASH160 6ebe56729ca48dd6eadf3376b0708abade88322d OP_EQUAL", "type": "scripthash"}, "value": 0.04151337, "n": 0}, {"scriptPubKey": {"reqSigs": 1, "hex": "76a9146ba9afc59dcfe6e78668b8e8357e8ef5f294511c88ac", "addresses": ["1ApGaZNcww1cQN2voeRrRYXMstsizkqQAU"], "asm": "OP_DUP OP_HASH160 6ba9afc59dcfe6e78668b8e8357e8ef5f294511c OP_EQUALVERIFY OP_CHECKSIG", "type": "pubkeyhash"}, "value": 0.45847081, "n": 1}], "hex": "01000000010ca1287b12960697717664abf96f6dd57a17f7cd383b5870d105c016b3084d7b000000006a47304402202bc320cfab43dd65fe1aed5123ae16cac925ca9c333217ed4f16dc009ee14def022027701d71134195b5ff7355b79f296a8ee9b3054f1caae032c52c3e73214b5d67012103bb44d7b8da07d5e7baab61cc85629d1e1a62ed6bcac969a03ffb80bd2926d1c3ffffffff0229583f000000000017a9146ebe56729ca48dd6eadf3376b0708abade88322d872992bb02000000001976a9146ba9afc59dcfe6e78668b8e8357e8ef5f294511c88ac00000000", "vin": [{"sequence": 4294967295, "scriptSig": {"hex": "47304402202bc320cfab43dd65fe1aed5123ae16cac925ca9c333217ed4f16dc009ee14def022027701d71134195b5ff7355b79f296a8ee9b3054f1caae032c52c3e73214b5d67012103bb44d7b8da07d5e7baab61cc85629d1e1a62ed6bcac969a03ffb80bd2926d1c3", "asm": "304402202bc320cfab43dd65fe1aed5123ae16cac925ca9c333217ed4f16dc009ee14def022027701d71134195b5ff7355b79f296a8ee9b3054f1caae032c52c3e73214b5d67[ALL] 03bb44d7b8da07d5e7baab61cc85629d1e1a62ed6bcac969a03ffb80bd2926d1c3"}, "vout": 0, "txid": "7b4d08b316c005d170583b38cdf7177ad56d6ff9ab647671970696127b28a10c"}], "txid": "8577092e3554b98a07850c962891531e91aaf77b90edbae0068243077471f151", "blocktime": 1537872475, "version": 1, "confirmations": 11486, "time": 1537872475, "locktime": 0, "vsize": 223, "size": 223}