{"hash": "7a226824ce03792dcd24760dfed4d05edc37ad26ccfdb82ea35fe8892253d38f", "blockhash": "0000000000000000001f76057863aec43deb6fa401d9628bb513d65a8098bfab", "vout": [{"scriptPubKey": {"reqSigs": 1, "hex": "a91490e99e8d26d05ead3c05430c292a887bbff695f587", "addresses": ["3EuF6KjJawxTiUsea3Sc8hsLUGmVEf7Xg5"], "asm": "OP_HASH160 90e99e8d26d05ead3c05430c292a887bbff695f5 OP_EQUAL", "type": "scripthash"}, "value": 0.00138685, "n": 0}, {"scriptPubKey": {"type": "nulldata", "hex": "6a146f6d6e69000000000000001f0000000005f5e100", "asm": "OP_RETURN 6f6d6e69000000000000001f0000000005f5e100"}, "value": 0.0, "n": 1}, {"scriptPubKey": {"reqSigs": 1, "hex": "a91490e99e8d26d05ead3c05430c292a887bbff695f587", "addresses": ["3EuF6KjJawxTiUsea3Sc8hsLUGmVEf7Xg5"], "asm": "OP_HASH160 90e99e8d26d05ead3c05430c292a887bbff695f5 OP_EQUAL", "type": "scripthash"}, "value": 5.4e-06, "n": 2}], "hex": "01000000000102b0a76aa9f330cdf4e1481f1bc12e7e53e2ace0b814e6097aab68d5b943664a670000000017160014f6e1792e7852ebd5ae795c2a25d579acdfadec2dffffffffb0a76aa9f330cdf4e1481f1bc12e7e53e2ace0b814e6097aab68d5b943664a670200000017160014f6e1792e7852ebd5ae795c2a25d579acdfadec2dffffffff03bd1d02000000000017a91490e99e8d26d05ead3c05430c292a887bbff695f5870000000000000000166a146f6d6e69000000000000001f0000000005f5e1001c0200000000000017a91490e99e8d26d05ead3c05430c292a887bbff695f58702483045022100c7749ee37e1a0c29848a1b8e4a80a90e4d1c790e57c84cc9d2a8609485b8162702205d79d3ef1dac0348caf1a2d2612ef67c5d8e2237f0243ebf40c9a29b7a462eee012103f1cf988013a33e053d1e9bd54c4798c1a6dc362a5b2798b5344049fca40e2db002473044022062957ede24f7fbc58a8821d9500674b56ec01a0c029182cabcb4d451677e196e02201617f4c65b7ff39f88ac39f9d73b6787fdc6501da638d99a115832af8fcb1129012103f1cf988013a33e053d1e9bd54c4798c1a6dc362a5b2798b5344049fca40e2db000000000", "vin": [{"txinwitness": ["3045022100c7749ee37e1a0c29848a1b8e4a80a90e4d1c790e57c84cc9d2a8609485b8162702205d79d3ef1dac0348caf1a2d2612ef67c5d8e2237f0243ebf40c9a29b7a462eee01", "03f1cf988013a33e053d1e9bd54c4798c1a6dc362a5b2798b5344049fca40e2db0"], "sequence": 4294967295, "scriptSig": {"hex": "160014f6e1792e7852ebd5ae795c2a25d579acdfadec2d", "asm": "0014f6e1792e7852ebd5ae795c2a25d579acdfadec2d"}, "vout": 0, "txid": "674a6643b9d568ab7a09e614b8e0ace2537e2ec11b1f48e1f4cd30f3a96aa7b0"}, {"txinwitness": ["3044022062957ede24f7fbc58a8821d9500674b56ec01a0c029182cabcb4d451677e196e02201617f4c65b7ff39f88ac39f9d73b6787fdc6501da638d99a115832af8fcb112901", "03f1cf988013a33e053d1e9bd54c4798c1a6dc362a5b2798b5344049fca40e2db0"], "sequence": 4294967295, "scriptSig": {"hex": "160014f6e1792e7852ebd5ae795c2a25d579acdfadec2d", "asm": "0014f6e1792e7852ebd5ae795c2a25d579acdfadec2d"}, "vout": 2, "txid": "674a6643b9d568ab7a09e614b8e0ace2537e2ec11b1f48e1f4cd30f3a96aa7b0"}], "txid": "85823daeadf3a7f4bd840a7e3e7742deed724fbf5356b532985730b62e9e2477", "blocktime": 1537873891, "version": 1, "confirmations": 11478, "time": 1537873891, "locktime": 0, "vsize": 288, "size": 450}