{"hash": "8582315aa999d149046c14504f2e817375311438722a2005fdaa968139588e8f", "blockhash": "0000000000000000000e13cef7c366c0283d82e591d1acd082e914b08063cdf1", "vout": [{"scriptPubKey": {"reqSigs": 1, "hex": "a914b0a59969a6e00f074e505e4f8aab9e63595eeaba87", "addresses": ["3Ho3ELx81SUGYdzT9m73bHnSCtHgJdZhS1"], "asm": "OP_HASH160 b0a59969a6e00f074e505e4f8aab9e63595eeaba OP_EQUAL", "type": "scripthash"}, "value": 0.00422935, "n": 0}, {"scriptPubKey": {"reqSigs": 1, "hex": "76a914f7f6612bcac0b59721009ce16ef69a5b0344bc2d88ac", "addresses": ["1Pc748qLgH6X5QxSvXzAG5RjUJCYQYKVWS"], "asm": "OP_DUP OP_HASH160 f7f6612bcac0b59721009ce16ef69a5b0344bc2d OP_EQUALVERIFY OP_CHECKSIG", "type": "pubkeyhash"}, "value": 0.01498677, "n": 1}], "hex": "0100000001714b33fdc11bf420a4cb04ca7ac98fde5a1204d621c977545e58de0e7ba40f27010000006b483045022100c8ce96ca30a6104b4aad2a82472eecdfc0c3b6811c5b18a1c20be4c89a005bc202200e6fac3da7f461abbfbbd36e9b1e43d8f514cdc0c9af53db1b941705c93f55f9012103b2de63911f1602609099c524d73f89179cc5336b68c1265482e31953b3e4af68ffffffff02177406000000000017a914b0a59969a6e00f074e505e4f8aab9e63595eeaba8735de1600000000001976a914f7f6612bcac0b59721009ce16ef69a5b0344bc2d88ac00000000", "vin": [{"sequence": 4294967295, "scriptSig": {"hex": "483045022100c8ce96ca30a6104b4aad2a82472eecdfc0c3b6811c5b18a1c20be4c89a005bc202200e6fac3da7f461abbfbbd36e9b1e43d8f514cdc0c9af53db1b941705c93f55f9012103b2de63911f1602609099c524d73f89179cc5336b68c1265482e31953b3e4af68", "asm": "3045022100c8ce96ca30a6104b4aad2a82472eecdfc0c3b6811c5b18a1c20be4c89a005bc202200e6fac3da7f461abbfbbd36e9b1e43d8f514cdc0c9af53db1b941705c93f55f9[ALL] 03b2de63911f1602609099c524d73f89179cc5336b68c1265482e31953b3e4af68"}, "vout": 1, "txid": "270fa47b0ede585e5477c921d604125ade8fc97aca04cba420f41bc1fd334b71"}], "txid": "8582315aa999d149046c14504f2e817375311438722a2005fdaa968139588e8f", "blocktime": 1537871767, "version": 1, "confirmations": 11495, "time": 1537871767, "locktime": 0, "vsize": 224, "size": 224}