{"hash": "64a4c2745086706b78971bac8ea960216d993006e9e93fd00810ef58fba7cc92", "blockhash": "00000000000000000024a2167bbff67b0be802c0b01cdd79e6331c2be6459f87", "vout": [{"scriptPubKey": {"reqSigs": 1, "hex": "a914cdf39b14f7ad7e93bb362270d9160ca2c22d13b087", "addresses": ["3LTzGtv8cckQD2eFLjRoeqWqTbEyXaHdJM"], "asm": "OP_HASH160 cdf39b14f7ad7e93bb362270d9160ca2c22d13b0 OP_EQUAL", "type": "scripthash"}, "value": 0.01000406, "n": 0}, {"scriptPubKey": {"reqSigs": 1, "hex": "76a9142e1b944fe7ffbe969fc1df8d662fd7b5d6303c9b88ac", "addresses": ["15Co856cRnFRCKwSSzECoyT3ozVhuFoJZ6"], "asm": "OP_DUP OP_HASH160 2e1b944fe7ffbe969fc1df8d662fd7b5d6303c9b OP_EQUALVERIFY OP_CHECKSIG", "type": "pubkeyhash"}, "value": 0.0028616, "n": 1}], "hex": "020000000001037b1826cdd75090f9b0b53bebd6b819001191afd169badfe3b320992fa31d5d7b000000001716001484be2f5c2727c9465e871f263a68f8c8126eed4cfeffffffce45615fa87fc1aff6811fcfb9834cdf7237a426935147eb25e9ccb026cefbdb0000000017160014401ae0543b069f97077f2c861b8905ed37d520a6feffffffddb0b610cc078733ea8a76992452974b4f5464e2387715d6734ffffebf07520201000000171600140801bf67b90889356e13b7f32bbe55de61172e18feffffff02d6430f000000000017a914cdf39b14f7ad7e93bb362270d9160ca2c22d13b087d05d0400000000001976a9142e1b944fe7ffbe969fc1df8d662fd7b5d6303c9b88ac0247304402206800010ca5533a29ba0ee5002443fb0643288ba0140b4fb1533388598d2f68bc02207e9aafd8335a90efd48700fde68633f7eb7661accefe1840652d75926f581a2601210333e26ca72b637415f20c25cdb1d855b7fb81af152eeb58fa9b2b80fbdefb497d024730440220625c8efb1c18eb5097634d9c34238ea66ab615cf2f0126c1e44da15b3398b69b0220256856fd72fc34db9c6fdd93de230236c8de27f8066e77ed1bb2a8fe4d08953e01210245a501c8118e80410b1808c545f789ed2e62694033ebf33a12786307854ae18802483045022100c5e4d3b323e26986027ba810c7bf2dd253539b09230e6a9e8399007c1bfd435b022019e2659e4d3154071d710574a6f03ac721ca1a6f7b3c3599b940e689d0b840870121030b590527b08f8015829652c38568dbb84b01ed4ac52d599f574e779129767b280d490800", "vin": [{"txinwitness": ["304402206800010ca5533a29ba0ee5002443fb0643288ba0140b4fb1533388598d2f68bc02207e9aafd8335a90efd48700fde68633f7eb7661accefe1840652d75926f581a2601", "0333e26ca72b637415f20c25cdb1d855b7fb81af152eeb58fa9b2b80fbdefb497d"], "sequence": 4294967294, "scriptSig": {"hex": "16001484be2f5c2727c9465e871f263a68f8c8126eed4c", "asm": "001484be2f5c2727c9465e871f263a68f8c8126eed4c"}, "vout": 0, "txid": "7b5d1da32f9920b3e3dfba69d1af91110019b8d6eb3bb5b0f99050d7cd26187b"}, {"txinwitness": ["30440220625c8efb1c18eb5097634d9c34238ea66ab615cf2f0126c1e44da15b3398b69b0220256856fd72fc34db9c6fdd93de230236c8de27f8066e77ed1bb2a8fe4d08953e01", "0245a501c8118e80410b1808c545f789ed2e62694033ebf33a12786307854ae188"], "sequence": 4294967294, "scriptSig": {"hex": "160014401ae0543b069f97077f2c861b8905ed37d520a6", "asm": "0014401ae0543b069f97077f2c861b8905ed37d520a6"}, "vout": 0, "txid": "dbfbce26b0cce925eb47519326a43772df4c83b9cf1f81f6afc17fa85f6145ce"}, {"txinwitness": ["3045022100c5e4d3b323e26986027ba810c7bf2dd253539b09230e6a9e8399007c1bfd435b022019e2659e4d3154071d710574a6f03ac721ca1a6f7b3c3599b940e689d0b8408701", "030b590527b08f8015829652c38568dbb84b01ed4ac52d599f574e779129767b28"], "sequence": 4294967294, "scriptSig": {"hex": "1600140801bf67b90889356e13b7f32bbe55de61172e18", "asm": "00140801bf67b90889356e13b7f32bbe55de61172e18"}, "vout": 1, "txid": "025207bffeff4f73d6157738e264544f4b97522499768aea338707cc10b6b0dd"}], "txid": "858d7b59cff59a7b6ec695c212d12b3b39bc7351ff7f2dc82615722878ab262d", "blocktime": 1537870564, "version": 2, "confirmations": 11515, "time": 1537870564, "locktime": 542989, "vsize": 349, "size": 592}