{"hash": "25e26f19cee4cd5a0f0157a057d60c4a56827abd142552184fbf7fe3bb1e7634", "blockhash": "000000000000000000022b45ed06c6f4ccd3cf7fb5ba4856ebd2e58215665228", "vout": [{"scriptPubKey": {"reqSigs": 1, "hex": "76a91471d402c3e94bebf91c321bee0327587b996ca07f88ac", "addresses": ["1BNsLSqzieTZRCFdiHs9CxVF4ZinaPhxyt"], "asm": "OP_DUP OP_HASH160 71d402c3e94bebf91c321bee0327587b996ca07f OP_EQUALVERIFY OP_CHECKSIG", "type": "pubkeyhash"}, "value": 0.00537835, "n": 0}, {"scriptPubKey": {"reqSigs": 1, "hex": "a91408c364340a91e77e4376b26fdad3b5aedc5661f787", "addresses": ["32VMQ7Th4qGhbDYY68FZrfSF9hTbsPivgt"], "asm": "OP_HASH160 08c364340a91e77e4376b26fdad3b5aedc5661f7 OP_EQUAL", "type": "scripthash"}, "value": 0.08431302, "n": 1}], "hex": "010000000001022c67575b394618f3c223c2363af2c88834b00daa31162db052ad85b9ad0efb8e00000000232200201233b40fb963c0157c362027263f9e1db89e57cbd3bd5f1ce46fb792a274a001ffffffffff3c10e929ada72f32aed0894465937979e76690f46ef4e78f85ccb38eed023b010000002322002027561ef61439ff4994ea3793249bbb358319edb59fff63c1eeada48f299e81b5ffffffff02eb340800000000001976a91471d402c3e94bebf91c321bee0327587b996ca07f88acc6a680000000000017a91408c364340a91e77e4376b26fdad3b5aedc5661f7870400473044022025e66b0dd88748ae5b1fd3fc3f779e16e95cd576bf995f5800ab844c21dd74b10220501b6ce10226e5d4a836c07b0f44ed93685aad13a8231a11b23fc6f693231f560147304402204bcd0b494577cabc77912c26476ed3c6d2b7c464e24b4fcb30f79a1ff31ae854022054cef8ffcad30a0a65b0388bc65ba7fb8c5b811f715ebaf7d5eca7ee2a7c443e0147522102b2e0436d7b39a8bd98618e40c4a7127fbc36e5b93770447ee2b779fd2e561a582103871fc2ca08e6950b38867e8e6a0e94ee625223d3aa0df5c65f414c6d784467e252ae0400483045022100bbe9b2b62e19cd1bcc4a9f4ac2105bc7f0be846730cdf8532d58ea63d5cc1b7f0220309fd0fa0cdab94f9675200ff61cf78861a2d5e9de168380d0983db282217fa501483045022100eefe4f4a0486e14e0834fb2c0d6d21d80b7c5273f3034a705ed44070e98a6b7702207c6d67af09ce5302e3d2841a913634c3b972dbd8620e357ae365bc76208ee9f90147522102f484437eae67e7d1f9cf7235bd52510c99f379408a1f6fe737011d4bc259358a2103871fc2ca08e6950b38867e8e6a0e94ee625223d3aa0df5c65f414c6d784467e252ae00000000", "vin": [{"txinwitness": ["", "3044022025e66b0dd88748ae5b1fd3fc3f779e16e95cd576bf995f5800ab844c21dd74b10220501b6ce10226e5d4a836c07b0f44ed93685aad13a8231a11b23fc6f693231f5601", "304402204bcd0b494577cabc77912c26476ed3c6d2b7c464e24b4fcb30f79a1ff31ae854022054cef8ffcad30a0a65b0388bc65ba7fb8c5b811f715ebaf7d5eca7ee2a7c443e01", "522102b2e0436d7b39a8bd98618e40c4a7127fbc36e5b93770447ee2b779fd2e561a582103871fc2ca08e6950b38867e8e6a0e94ee625223d3aa0df5c65f414c6d784467e252ae"], "sequence": 4294967295, "scriptSig": {"hex": "2200201233b40fb963c0157c362027263f9e1db89e57cbd3bd5f1ce46fb792a274a001", "asm": "00201233b40fb963c0157c362027263f9e1db89e57cbd3bd5f1ce46fb792a274a001"}, "vout": 0, "txid": "8efb0eadb985ad52b02d1631aa0db03488c8f23a36c223c2f31846395b57672c"}, {"txinwitness": ["", "3045022100bbe9b2b62e19cd1bcc4a9f4ac2105bc7f0be846730cdf8532d58ea63d5cc1b7f0220309fd0fa0cdab94f9675200ff61cf78861a2d5e9de168380d0983db282217fa501", "3045022100eefe4f4a0486e14e0834fb2c0d6d21d80b7c5273f3034a705ed44070e98a6b7702207c6d67af09ce5302e3d2841a913634c3b972dbd8620e357ae365bc76208ee9f901", "522102f484437eae67e7d1f9cf7235bd52510c99f379408a1f6fe737011d4bc259358a2103871fc2ca08e6950b38867e8e6a0e94ee625223d3aa0df5c65f414c6d784467e252ae"], "sequence": 4294967295, "scriptSig": {"hex": "22002027561ef61439ff4994ea3793249bbb358319edb59fff63c1eeada48f299e81b5", "asm": "002027561ef61439ff4994ea3793249bbb358319edb59fff63c1eeada48f299e81b5"}, "vout": 1, "txid": "3b02ed8eb3cc858fe7f46ef49066e7797993654489d0ae322fa7ad29e9103cff"}], "txid": "8590640a0d8b6cc477c3604128b3be5ac9e793b211c1ae4bd20206e0dcd6e580", "blocktime": 1537869901, "version": 1, "confirmations": 11524, "time": 1537869901, "locktime": 0, "vsize": 338, "size": 668}