{"hash": "859728524f05d6a50e1328010a13bb61979a28b06bc362222c2a5f8795687618", "blockhash": "00000000000000000004ffacab907a6b429b9a5745fa0b75af4234bf69dd7176", "vout": [{"scriptPubKey": {"reqSigs": 1, "hex": "76a914442d692edfce3a793734ee668c7198990043277f88ac", "addresses": ["17DVMFLMt5TfSZuqUWrar3y43FT9Qu3dyo"], "asm": "OP_DUP OP_HASH160 442d692edfce3a793734ee668c7198990043277f OP_EQUALVERIFY OP_CHECKSIG", "type": "pubkeyhash"}, "value": 0.00246343, "n": 0}, {"scriptPubKey": {"reqSigs": 1, "hex": "76a9144072b7602a2a0d8bf6d7c731408330de4ecc99b588ac", "addresses": ["16smfuZP2JUrAZJ8sHcHqeWarsAQzxUoSu"], "asm": "OP_DUP OP_HASH160 4072b7602a2a0d8bf6d7c731408330de4ecc99b5 OP_EQUALVERIFY OP_CHECKSIG", "type": "pubkeyhash"}, "value": 0.0105, "n": 1}, {"scriptPubKey": {"reqSigs": 1, "hex": "76a914a4c04ad033b480838b5843f9a66fed4a8a3d680b88ac", "addresses": ["1G28BAEb8rmqcSaYqzwtoaNMV4xXped9Ws"], "asm": "OP_DUP OP_HASH160 a4c04ad033b480838b5843f9a66fed4a8a3d680b OP_EQUALVERIFY OP_CHECKSIG", "type": "pubkeyhash"}, "value": 0.0164, "n": 2}, {"scriptPubKey": {"reqSigs": 1, "hex": "76a914a7a5ced24f161909cf547aa54e3f2697617cb62c88ac", "addresses": ["1GHSUa5VgYvm61Lmf3PePejbqQ1ESAxmLo"], "asm": "OP_DUP OP_HASH160 a7a5ced24f161909cf547aa54e3f2697617cb62c OP_EQUALVERIFY OP_CHECKSIG", "type": "pubkeyhash"}, "value": 0.0183, "n": 3}, {"scriptPubKey": {"reqSigs": 1, "hex": "a9140262de9544888847367c56ba060ce42c10250f3b87", "addresses": ["31udiVrUxFocjuZN5MNY547YCByTPEYyWu"], "asm": "OP_HASH160 0262de9544888847367c56ba060ce42c10250f3b OP_EQUAL", "type": "scripthash"}, "value": 0.0245, "n": 4}, {"scriptPubKey": {"reqSigs": 1, "hex": "a9146449592375fc5e7eb9e3398111f7ceda4d70796687", "addresses": ["3AqHN3niyUN1eZc9P97BcnrHcvKe1EaomM"], "asm": "OP_HASH160 6449592375fc5e7eb9e3398111f7ceda4d707966 OP_EQUAL", "type": "scripthash"}, "value": 0.1995, "n": 5}, {"scriptPubKey": {"reqSigs": 1, "hex": "76a914b18476fa3354fac366592cc7877ec7eaaae39a4288ac", "addresses": ["1HBdHmTcprepU4SQYTQFc6mgZEAmqPasHB"], "asm": "OP_DUP OP_HASH160 b18476fa3354fac366592cc7877ec7eaaae39a42 OP_EQUALVERIFY OP_CHECKSIG", "type": "pubkeyhash"}, "value": 1.07405301, "n": 6}, {"scriptPubKey": {"reqSigs": 1, "hex": "76a914869512aab9799b44a7acc491bc2ce0cf0c16b98488ac", "addresses": ["1DGc8USkRZ8jwwANn3F5fAnXa1Wb19LrDv"], "asm": "OP_DUP OP_HASH160 869512aab9799b44a7acc491bc2ce0cf0c16b984 OP_EQUALVERIFY OP_CHECKSIG", "type": "pubkeyhash"}, "value": 32.875, "n": 7}, {"scriptPubKey": {"reqSigs": 1, "hex": "76a91443849383122ebb8a28268a89700c9f723663b5b888ac", "addresses": ["17A16QmavnUfCW11DAApiJxp7ARnxN5pGX"], "asm": "OP_DUP OP_HASH160 43849383122ebb8a28268a89700c9f723663b5b8 OP_EQUALVERIFY OP_CHECKSIG", "type": "pubkeyhash"}, "value": 89.41731522, "n": 8}], "hex": "0200000001c9bc84fa9acdb3393fcce629dbea975f239a1a7948f647a19f920e0b2bee7c9a080000008b4830450221009c9eaef36f0da6ae5835b058e3a278b8ba74baf66d6b2d75afc3baf96092a1d402200262bde041d56068c18f89fab85ebe902ca5f79d5a742baf2492d67b6450009f0141047146f0e0fcb3139947cf0beb870fe251930ca10d4545793d31033e801b5219abf56c11a3cf3406ca590e4c14b0dab749d20862b3adc4709153c280c2a78be10cffffffff0947c20300000000001976a914442d692edfce3a793734ee668c7198990043277f88ac90051000000000001976a9144072b7602a2a0d8bf6d7c731408330de4ecc99b588ac40061900000000001976a914a4c04ad033b480838b5843f9a66fed4a8a3d680b88ac70ec1b00000000001976a914a7a5ced24f161909cf547aa54e3f2697617cb62c88ac506225000000000017a9140262de9544888847367c56ba060ce42c10250f3b87b06930010000000017a9146449592375fc5e7eb9e3398111f7ceda4d70796687f5df6606000000001976a914b18476fa3354fac366592cc7877ec7eaaae39a4288ace044f3c3000000001976a914869512aab9799b44a7acc491bc2ce0cf0c16b98488acc2fef714020000001976a91443849383122ebb8a28268a89700c9f723663b5b888ac00000000", "vin": [{"sequence": 4294967295, "scriptSig": {"hex": "4830450221009c9eaef36f0da6ae5835b058e3a278b8ba74baf66d6b2d75afc3baf96092a1d402200262bde041d56068c18f89fab85ebe902ca5f79d5a742baf2492d67b6450009f0141047146f0e0fcb3139947cf0beb870fe251930ca10d4545793d31033e801b5219abf56c11a3cf3406ca590e4c14b0dab749d20862b3adc4709153c280c2a78be10c", "asm": "30450221009c9eaef36f0da6ae5835b058e3a278b8ba74baf66d6b2d75afc3baf96092a1d402200262bde041d56068c18f89fab85ebe902ca5f79d5a742baf2492d67b6450009f[ALL] 047146f0e0fcb3139947cf0beb870fe251930ca10d4545793d31033e801b5219abf56c11a3cf3406ca590e4c14b0dab749d20862b3adc4709153c280c2a78be10c"}, "vout": 8, "txid": "9a7cee2b0b0e929fa147f648791a9a235f97eadb29e6cc3f39b3cd9afa84bcc9"}], "txid": "859728524f05d6a50e1328010a13bb61979a28b06bc362222c2a5f8795687618", "blocktime": 1537875543, "version": 2, "confirmations": 11464, "time": 1537875543, "locktime": 0, "vsize": 492, "size": 492}