{"hash": "458501556cda1dbd20a43168b5ac7b9167962960a6078fe02f3190cfaf23af95", "blockhash": "0000000000000000000dcc0f55137456b1a82d3642486a52398922ac4d620174", "vout": [{"scriptPubKey": {"reqSigs": 1, "hex": "a9146f8a3aff51b04fec2a61549f18ccf334578a8c9787", "addresses": ["3BrnXFtfYcLx3oA2W3GHCKwnipujfaD2J9"], "asm": "OP_HASH160 6f8a3aff51b04fec2a61549f18ccf334578a8c97 OP_EQUAL", "type": "scripthash"}, "value": 0.00016483, "n": 0}, {"scriptPubKey": {"reqSigs": 1, "hex": "a914c9796dabe435ceeb41b6f29a1555de223a51cca187", "addresses": ["3L4KD6U9zc9X5oz1TKBjjkrjPRypvVmE52"], "asm": "OP_HASH160 c9796dabe435ceeb41b6f29a1555de223a51cca1 OP_EQUAL", "type": "scripthash"}, "value": 0.0032634, "n": 1}], "hex": "0100000000010146b64f9356f190fb8f95ee2999ffb2a2507536557e3fdad239e1c4471746597e01000000232200201a40b6a2a319fe0b6ee8d8f60e6b07d0ed99c073574fc19204afee9d25e52de8ffffffff02634000000000000017a9146f8a3aff51b04fec2a61549f18ccf334578a8c9787c4fa04000000000017a914c9796dabe435ceeb41b6f29a1555de223a51cca1870400483045022100ab791dd94e8dfa2cfc546cc81e360dd031d510a502e2a419225ec439db7a3a000220229ec6b291fcf05a0001e8a933d49ea4bcb3fe0ca897cd44146a8fd7a318aad901483045022100dddc700c6245502373b192453d50f7f9f56afdd6b27f7a5c492c823c291ae41a022045a3851e1db4d395496a3074d068d727d33f19b9e5d64d5d85bb4a694295b4e2016952210313def8536ec52d85535b2d1337cc529373c045bc9dfe88fe6ee3ba8de959e59721025a87b395608e126ab48a5f85b6c6cb61ad4e24156c7fb6c6f5bb3fc2a81b67d5210322b8e8d9125ea9038ebfd49a0054cf0c51629bdbf8ba88f3f41f54b9e766e29b53ae0d490800", "vin": [{"txinwitness": ["", "3045022100ab791dd94e8dfa2cfc546cc81e360dd031d510a502e2a419225ec439db7a3a000220229ec6b291fcf05a0001e8a933d49ea4bcb3fe0ca897cd44146a8fd7a318aad901", "3045022100dddc700c6245502373b192453d50f7f9f56afdd6b27f7a5c492c823c291ae41a022045a3851e1db4d395496a3074d068d727d33f19b9e5d64d5d85bb4a694295b4e201", "52210313def8536ec52d85535b2d1337cc529373c045bc9dfe88fe6ee3ba8de959e59721025a87b395608e126ab48a5f85b6c6cb61ad4e24156c7fb6c6f5bb3fc2a81b67d5210322b8e8d9125ea9038ebfd49a0054cf0c51629bdbf8ba88f3f41f54b9e766e29b53ae"], "sequence": 4294967295, "scriptSig": {"hex": "2200201a40b6a2a319fe0b6ee8d8f60e6b07d0ed99c073574fc19204afee9d25e52de8", "asm": "00201a40b6a2a319fe0b6ee8d8f60e6b07d0ed99c073574fc19204afee9d25e52de8"}, "vout": 1, "txid": "7e59461747c4e139d2da3f7e55367550a2b2ff9929ee958ffb90f156934fb646"}], "txid": "859d8bab75a5905d2043e62e3c34c1e8567f613be69406b073e47945aa870f42", "blocktime": 1537870268, "version": 1, "confirmations": 11518, "time": 1537870268, "locktime": 542989, "vsize": 214, "size": 406}