{"hash": "859fabd21cbbd8053ec0e5fd9ad93d26e000ac3ee8e2c312454637688372dc04", "blockhash": "00000000000000000017f5eb5941039fbcee6240d03bc1f2f8e35350df66a1d8", "vout": [{"scriptPubKey": {"reqSigs": 1, "hex": "76a914a97f8cfb09f23915e89f71fd959001e5da58d21388ac", "addresses": ["1GTDzoGZmiV4WvnwzwfxdGV2dob7dTQTQj"], "asm": "OP_DUP OP_HASH160 a97f8cfb09f23915e89f71fd959001e5da58d213 OP_EQUALVERIFY OP_CHECKSIG", "type": "pubkeyhash"}, "value": 0.00633761, "n": 0}, {"scriptPubKey": {"type": "nulldata", "hex": "6a4c50000077f800016fdf60cfe1aed5a74fc8f433d19ed074892d00f8e87af8e8e963c7cfd5b9979d7f90799e901e330ae05f3d60b6755baa18d70613e4f2c29aa45f1d100759d4ba30d2c37bb011d97e02cf", "asm": "OP_RETURN 000077f800016fdf60cfe1aed5a74fc8f433d19ed074892d00f8e87af8e8e963c7cfd5b9979d7f90799e901e330ae05f3d60b6755baa18d70613e4f2c29aa45f1d100759d4ba30d2c37bb011d97e02cf"}, "value": 0.0, "n": 1}], "hex": "010000000102d32fa39bd2f6125e7f704af4acba48aef6284aade01be003215c11e28db9a2010000006b483045022100cb3a39306dc3e8666e57af0d2e3f5e5a42d7a4115d2aec1cbda00d06c7687ee402207418c8736fc7c7c21a0a825d79ee946d9ad4a5289bc8e3a375ffffc7d121d7d50121024c2ea76b1dba5b9adc5b9df1e1c212a51d306e450a5292bddf9c8f372cc76e56ffffffff02a1ab0900000000001976a914a97f8cfb09f23915e89f71fd959001e5da58d21388ac0000000000000000536a4c50000077f800016fdf60cfe1aed5a74fc8f433d19ed074892d00f8e87af8e8e963c7cfd5b9979d7f90799e901e330ae05f3d60b6755baa18d70613e4f2c29aa45f1d100759d4ba30d2c37bb011d97e02cf00000000", "vin": [{"sequence": 4294967295, "scriptSig": {"hex": "483045022100cb3a39306dc3e8666e57af0d2e3f5e5a42d7a4115d2aec1cbda00d06c7687ee402207418c8736fc7c7c21a0a825d79ee946d9ad4a5289bc8e3a375ffffc7d121d7d50121024c2ea76b1dba5b9adc5b9df1e1c212a51d306e450a5292bddf9c8f372cc76e56", "asm": "3045022100cb3a39306dc3e8666e57af0d2e3f5e5a42d7a4115d2aec1cbda00d06c7687ee402207418c8736fc7c7c21a0a825d79ee946d9ad4a5289bc8e3a375ffffc7d121d7d5[ALL] 024c2ea76b1dba5b9adc5b9df1e1c212a51d306e450a5292bddf9c8f372cc76e56"}, "vout": 1, "txid": "a2b98de2115c2103e01be0ad4a28f6ae48baacf44a707f5e12f6d29ba32fd302"}], "txid": "859fabd21cbbd8053ec0e5fd9ad93d26e000ac3ee8e2c312454637688372dc04", "blocktime": 1537874412, "version": 1, "confirmations": 11467, "time": 1537874412, "locktime": 0, "vsize": 284, "size": 284}