{"hash": "85a5b338416df16a8da6331fa99b33c23a75abcf3a62a040a5e30760a15590fc", "blockhash": "00000000000000000018f53835495a110e01622372bf6ae95dc86f2b0ab887b0", "vout": [{"scriptPubKey": {"reqSigs": 1, "hex": "76a9146bf00ff4c471b67763a919ca8da28d71b836744a88ac", "addresses": ["1AqitMEaQAJQQDDGierTr1hTXbW42ekokf"], "asm": "OP_DUP OP_HASH160 6bf00ff4c471b67763a919ca8da28d71b836744a OP_EQUALVERIFY OP_CHECKSIG", "type": "pubkeyhash"}, "value": 0.01511435, "n": 0}, {"scriptPubKey": {"reqSigs": 1, "hex": "76a91473517dd724f7cc9d38159515c15f0397317fdb9b88ac", "addresses": ["1BWkLCEPaCmic7rTkuskzcW9iZPhAh23Ra"], "asm": "OP_DUP OP_HASH160 73517dd724f7cc9d38159515c15f0397317fdb9b OP_EQUALVERIFY OP_CHECKSIG", "type": "pubkeyhash"}, "value": 0.01564823, "n": 1}], "hex": "0100000001e7b699f8d7ec1f4a58a66604dab23f990b95db9dc08279e3c03f118fcc5429bd010000006b48304502210098b79cb0b559487943c781a7bb4c8350c3147be129948b2b1eee4c63a606b8e4022048afa9a975780cf7b88babc4fc10892d3faca667038a1f5faa896d29cfc2a9b601210303aac76811dd0871eff64945fea9f7d43f14c280487afcf226a570467292c838ffffffff020b101700000000001976a9146bf00ff4c471b67763a919ca8da28d71b836744a88ac97e01700000000001976a91473517dd724f7cc9d38159515c15f0397317fdb9b88ac00000000", "vin": [{"sequence": 4294967295, "scriptSig": {"hex": "48304502210098b79cb0b559487943c781a7bb4c8350c3147be129948b2b1eee4c63a606b8e4022048afa9a975780cf7b88babc4fc10892d3faca667038a1f5faa896d29cfc2a9b601210303aac76811dd0871eff64945fea9f7d43f14c280487afcf226a570467292c838", "asm": "304502210098b79cb0b559487943c781a7bb4c8350c3147be129948b2b1eee4c63a606b8e4022048afa9a975780cf7b88babc4fc10892d3faca667038a1f5faa896d29cfc2a9b6[ALL] 0303aac76811dd0871eff64945fea9f7d43f14c280487afcf226a570467292c838"}, "vout": 1, "txid": "bd2954cc8f113fc0e37982c09ddb950b993fb2da0466a6584a1fecd7f899b6e7"}], "txid": "85a5b338416df16a8da6331fa99b33c23a75abcf3a62a040a5e30760a15590fc", "blocktime": 1537870928, "version": 1, "confirmations": 11512, "time": 1537870928, "locktime": 0, "vsize": 226, "size": 226}