{"hash": "301676aa38a403a609de163b4fd9785815f1ed3c9009ecb25a1f106e02ad2436", "blockhash": "0000000000000000000baef3f32e3676a92c3b2e5da21b426e4f302fc371ce76", "vout": [{"scriptPubKey": {"reqSigs": 1, "hex": "a9148cf4a7472c3922933299c1eb727c9565a3adad2287", "addresses": ["3EYKcDcgpQBiLz6aLVVe5HQgVw3WdNoJfN"], "asm": "OP_HASH160 8cf4a7472c3922933299c1eb727c9565a3adad22 OP_EQUAL", "type": "scripthash"}, "value": 0.00046332, "n": 0}, {"scriptPubKey": {"reqSigs": 1, "hex": "a9141988a27e3c2df4ddee7fad5a2303d086179b2a3087", "addresses": ["3422VtS7UtCvXYxoXMVp6eZupR252z85oC"], "asm": "OP_HASH160 1988a27e3c2df4ddee7fad5a2303d086179b2a30 OP_EQUAL", "type": "scripthash"}, "value": 0.74799522, "n": 1}, {"scriptPubKey": {"reqSigs": 1, "hex": "a914926961caf8ba40a56de051e40f75cec8dce0665a87", "addresses": ["3F3Apcy8vMoebcaotCTZDE5b95dSt7BFTV"], "asm": "OP_HASH160 926961caf8ba40a56de051e40f75cec8dce0665a OP_EQUAL", "type": "scripthash"}, "value": 0.00044983, "n": 2}], "hex": "01000000000101c05476789c5c80ea0fb590ef9db83bab998b1e5ba45b851de1b7c2e766c1b508010000002322002065d416c48a8072e0ac51c2d111eb194f009caef0332446c1bf2097316cf07fa9ffffffff03fcb400000000000017a9148cf4a7472c3922933299c1eb727c9565a3adad2287a25975040000000017a9141988a27e3c2df4ddee7fad5a2303d086179b2a3087b7af00000000000017a914926961caf8ba40a56de051e40f75cec8dce0665a870400473044022034b6fc1abcac356d1617776a6cd0b0199a4e5abfa7531e709f352d042a91686f02206dd8632543258c41503e782da0a807dc087a03176ac359a42ecf08e47e28acaa01483045022100dcac87aa0f5e1abae0e33e51770103fc5c47a2234784553b4feae77396889a7b02201c4d1f3582894da2b84826ac4d196bc55505dc22b9bff5dc56f0557aa4454c8a0169522102f44abcf9e23c9a460da309ccca56c619c04eed3bde2c2cff5e7d78fbcd980b9c2103c9443cf3047bb6c2c82f1b0c44c36109cdc3d0d601d16d1189a1602bf8d1a0a02103bfe867059274412412e088af5572b92168c2ef495cfe6c9b7a753a009eb37c4853ae00000000", "vin": [{"txinwitness": ["", "3044022034b6fc1abcac356d1617776a6cd0b0199a4e5abfa7531e709f352d042a91686f02206dd8632543258c41503e782da0a807dc087a03176ac359a42ecf08e47e28acaa01", "3045022100dcac87aa0f5e1abae0e33e51770103fc5c47a2234784553b4feae77396889a7b02201c4d1f3582894da2b84826ac4d196bc55505dc22b9bff5dc56f0557aa4454c8a01", "522102f44abcf9e23c9a460da309ccca56c619c04eed3bde2c2cff5e7d78fbcd980b9c2103c9443cf3047bb6c2c82f1b0c44c36109cdc3d0d601d16d1189a1602bf8d1a0a02103bfe867059274412412e088af5572b92168c2ef495cfe6c9b7a753a009eb37c4853ae"], "sequence": 4294967295, "scriptSig": {"hex": "22002065d416c48a8072e0ac51c2d111eb194f009caef0332446c1bf2097316cf07fa9", "asm": "002065d416c48a8072e0ac51c2d111eb194f009caef0332446c1bf2097316cf07fa9"}, "vout": 1, "txid": "08b5c166e7c2b7e11d855ba45b1e8b99ab3bb89def90b50fea805c9c787654c0"}], "txid": "85a60ab3b14ed24159be6c2186cde12ee22f72b523eedb8155945e528cfc8d08", "blocktime": 1537876114, "version": 1, "confirmations": 11460, "time": 1537876114, "locktime": 0, "vsize": 246, "size": 437}