{"hash": "3ba5836745efb067a9254ba7bac2b5cafba4d151a0031536d7f1cc30c84a303e", "blockhash": "0000000000000000001cda96e906b7601b7a6fb1a3b62bca570a9e5d8f4b3de1", "vout": [{"scriptPubKey": {"reqSigs": 1, "hex": "a9148f21cc03a4fcc424cb92a45538a34a28aba5c26b87", "addresses": ["3Ejq3E9G8FgvwKScD4YpnLQt7LokP2ntdq"], "asm": "OP_HASH160 8f21cc03a4fcc424cb92a45538a34a28aba5c26b OP_EQUAL", "type": "scripthash"}, "value": 221.67269858, "n": 0}, {"scriptPubKey": {"reqSigs": 1, "hex": "a9148b985eb48b237f233ed5f28f9252fd7fe961c95487", "addresses": ["3ER8P4HGrXPsUbxmJKFDBmfkryxHK9gq28"], "asm": "OP_HASH160 8b985eb48b237f233ed5f28f9252fd7fe961c954 OP_EQUAL", "type": "scripthash"}, "value": 0.34710121, "n": 1}], "hex": "0200000000010177e4659363eaaf39ced84352b10259293a093c2a9ae4c6722b626591a8707e0c0100000017160014c4aa6a71c57b04b9e88a47b92ba1b0ec5700783afeffffff02e2b145290500000017a9148f21cc03a4fcc424cb92a45538a34a28aba5c26b8769a211020000000017a9148b985eb48b237f233ed5f28f9252fd7fe961c9548702473044022036529892da0b0e996c81559db2c92bd39af965a20b11815c57857d7ff618936c0220275b39105cbe13d2b43a16ddefee84a7fbded04ec0c8bfbe7b858f0432e4e7ee0121035fa507eb01bc19d372036dc0a99cd32aee491d9861df5d09470a0d2a56e6227f13490800", "vin": [{"txinwitness": ["3044022036529892da0b0e996c81559db2c92bd39af965a20b11815c57857d7ff618936c0220275b39105cbe13d2b43a16ddefee84a7fbded04ec0c8bfbe7b858f0432e4e7ee01", "035fa507eb01bc19d372036dc0a99cd32aee491d9861df5d09470a0d2a56e6227f"], "sequence": 4294967294, "scriptSig": {"hex": "160014c4aa6a71c57b04b9e88a47b92ba1b0ec5700783a", "asm": "0014c4aa6a71c57b04b9e88a47b92ba1b0ec5700783a"}, "vout": 1, "txid": "0c7e70a89165622b72c6e49a2a3c093a295902b15243d8ce39afea639365e477"}], "txid": "85ad47b9d3b6a8d7224cbd6eec5a8c13ebf7de3a976f27cc16026edc006da4be", "blocktime": 1537873282, "version": 2, "confirmations": 11480, "time": 1537873282, "locktime": 542995, "vsize": 166, "size": 247}