{"hash": "85ae7ca4fd6f74a8694cc167755b81588ecb19f76b72a82c78fcd1b8303ef13b", "blockhash": "00000000000000000017f5eb5941039fbcee6240d03bc1f2f8e35350df66a1d8", "vout": [{"scriptPubKey": {"reqSigs": 1, "hex": "a9148ea6d349ebe2bce4aafbd3975fdb1a77d82d1c5e87", "addresses": ["3EhHj1eXAfxnMoQthTB5KDAxd3ShzvcRsQ"], "asm": "OP_HASH160 8ea6d349ebe2bce4aafbd3975fdb1a77d82d1c5e OP_EQUAL", "type": "scripthash"}, "value": 0.00473584, "n": 0}, {"scriptPubKey": {"reqSigs": 1, "hex": "76a91411201c4ab13b750bbc2192b189a7b530706345d988ac", "addresses": ["12ZYxLehZVTjH4psfUaJB6GQQowmaWde5r"], "asm": "OP_DUP OP_HASH160 11201c4ab13b750bbc2192b189a7b530706345d9 OP_EQUALVERIFY OP_CHECKSIG", "type": "pubkeyhash"}, "value": 0.01795491, "n": 1}], "hex": "01000000014f23f206c45beefab7ba16fb053ece069cf463ff5d9ade8e22823fdafe1eed44010000006a473044022042910460b3e82ab966ca7f2f4d4a612bf9bbd48eb4bf5000cce36b76a09d80b302201d7ca0d2092a4413af8c4c83a9c55bf90bff9f09badbee9a3eb5b4caa4f18516012102e91ba38a24e601f2b9b7cf81b92d70e6336552f4194c9982ac3b1612407ce431ffffffff02f03907000000000017a9148ea6d349ebe2bce4aafbd3975fdb1a77d82d1c5e87a3651b00000000001976a91411201c4ab13b750bbc2192b189a7b530706345d988ac00000000", "vin": [{"sequence": 4294967295, "scriptSig": {"hex": "473044022042910460b3e82ab966ca7f2f4d4a612bf9bbd48eb4bf5000cce36b76a09d80b302201d7ca0d2092a4413af8c4c83a9c55bf90bff9f09badbee9a3eb5b4caa4f18516012102e91ba38a24e601f2b9b7cf81b92d70e6336552f4194c9982ac3b1612407ce431", "asm": "3044022042910460b3e82ab966ca7f2f4d4a612bf9bbd48eb4bf5000cce36b76a09d80b302201d7ca0d2092a4413af8c4c83a9c55bf90bff9f09badbee9a3eb5b4caa4f18516[ALL] 02e91ba38a24e601f2b9b7cf81b92d70e6336552f4194c9982ac3b1612407ce431"}, "vout": 1, "txid": "44ed1efeda3f82228ede9a5dff63f49c06ce3e05fb16bab7faee5bc406f2234f"}], "txid": "85ae7ca4fd6f74a8694cc167755b81588ecb19f76b72a82c78fcd1b8303ef13b", "blocktime": 1537874412, "version": 1, "confirmations": 11467, "time": 1537874412, "locktime": 0, "vsize": 223, "size": 223}