{"hash": "85aff5c289d4f5f02d9e5421f4ce052724ead54c3471eaa55e5678486b193f02", "blockhash": "0000000000000000001cda96e906b7601b7a6fb1a3b62bca570a9e5d8f4b3de1", "vout": [{"scriptPubKey": {"type": "nulldata", "hex": "6a146f6d6e69000000000000001f000000cf73bd0e00", "asm": "OP_RETURN 6f6d6e69000000000000001f000000cf73bd0e00"}, "value": 0.0, "n": 0}, {"scriptPubKey": {"reqSigs": 1, "hex": "76a914a25dec4d0011064ef106a983c39c7a540699f22088ac", "addresses": ["1FoWyxwPXuj4C6abqwhjDWdz6D4PZgYRjA"], "asm": "OP_DUP OP_HASH160 a25dec4d0011064ef106a983c39c7a540699f220 OP_EQUALVERIFY OP_CHECKSIG", "type": "pubkeyhash"}, "value": 0.01990376, "n": 1}, {"scriptPubKey": {"reqSigs": 1, "hex": "76a91447c37b6c494236a09e61891989998b7441dcac2c88ac", "addresses": ["17YT9xSTz2eCni6sVrCjcfMiDMvErWF5mB"], "asm": "OP_DUP OP_HASH160 47c37b6c494236a09e61891989998b7441dcac2c OP_EQUALVERIFY OP_CHECKSIG", "type": "pubkeyhash"}, "value": 5.46e-06, "n": 2}], "hex": "0100000001a3384455404c7a4ef11986303ecc681f6817693db1be749fe5e1641a6e646717020000006a47304402207c50ca16c6f2bbf372a1e713dbb642aeb4b99a5a6caf7251f75c43a0a7787cb302201cf798aad40a9a14b98108b84c751c94ec9eebcc461e07cc768d2ccf7573f24f012103da5bac7b36d5aa38f531c6b9601e21bb598a4b6716ebed38b009a55dabde9440feffffff030000000000000000166a146f6d6e69000000000000001f000000cf73bd0e00e85e1e00000000001976a914a25dec4d0011064ef106a983c39c7a540699f22088ac22020000000000001976a91447c37b6c494236a09e61891989998b7441dcac2c88ac13490800", "vin": [{"sequence": 4294967294, "scriptSig": {"hex": "47304402207c50ca16c6f2bbf372a1e713dbb642aeb4b99a5a6caf7251f75c43a0a7787cb302201cf798aad40a9a14b98108b84c751c94ec9eebcc461e07cc768d2ccf7573f24f012103da5bac7b36d5aa38f531c6b9601e21bb598a4b6716ebed38b009a55dabde9440", "asm": "304402207c50ca16c6f2bbf372a1e713dbb642aeb4b99a5a6caf7251f75c43a0a7787cb302201cf798aad40a9a14b98108b84c751c94ec9eebcc461e07cc768d2ccf7573f24f[ALL] 03da5bac7b36d5aa38f531c6b9601e21bb598a4b6716ebed38b009a55dabde9440"}, "vout": 2, "txid": "1767646e1a64e1e59f74beb13d6917681f68cc3e308619f14e7a4c40554438a3"}], "txid": "85aff5c289d4f5f02d9e5421f4ce052724ead54c3471eaa55e5678486b193f02", "blocktime": 1537873282, "version": 1, "confirmations": 11481, "time": 1537873282, "locktime": 542995, "vsize": 256, "size": 256}