{"hash": "85b1f719479247974c97cd0e26dc8f3676852c2384579af13188b5039c5edbca", "blockhash": "0000000000000000001cda96e906b7601b7a6fb1a3b62bca570a9e5d8f4b3de1", "vout": [{"scriptPubKey": {"reqSigs": 1, "hex": "76a914bfb286909cc58e9ad2b0845ecdda33de26adebfa88ac", "addresses": ["1JUbvpVX9hdAhb9zw2XM8jw7JxPFx6MZKv"], "asm": "OP_DUP OP_HASH160 bfb286909cc58e9ad2b0845ecdda33de26adebfa OP_EQUALVERIFY OP_CHECKSIG", "type": "pubkeyhash"}, "value": 0.00187346, "n": 0}, {"scriptPubKey": {"reqSigs": 1, "hex": "76a914242827971d6245060c9715de22c57eb1e1d3733e88ac", "addresses": ["14JBRuC8RkoQyzRFbVexfyG8D2UoFB2Jm7"], "asm": "OP_DUP OP_HASH160 242827971d6245060c9715de22c57eb1e1d3733e OP_EQUALVERIFY OP_CHECKSIG", "type": "pubkeyhash"}, "value": 0.14252938, "n": 1}], "hex": "010000000115354f04201bccab55922b88d09b551c7c870b4f81b48dba341fc91d5b226b91010000006a473044022030a592cb23dc30016cad5efb1147219bf292acee3b499a0c42def52b79bcd78d02205b13262cd1beba507079326722d62ca29ba9437ed9d2ec41454dc7fe14ba3da20121037f174e7e306b98014dd01708898e35421a26791f0726a2ffc5c4a1283cce7134ffffffff02d2db0200000000001976a914bfb286909cc58e9ad2b0845ecdda33de26adebfa88ac8a7bd900000000001976a914242827971d6245060c9715de22c57eb1e1d3733e88ac00000000", "vin": [{"sequence": 4294967295, "scriptSig": {"hex": "473044022030a592cb23dc30016cad5efb1147219bf292acee3b499a0c42def52b79bcd78d02205b13262cd1beba507079326722d62ca29ba9437ed9d2ec41454dc7fe14ba3da20121037f174e7e306b98014dd01708898e35421a26791f0726a2ffc5c4a1283cce7134", "asm": "3044022030a592cb23dc30016cad5efb1147219bf292acee3b499a0c42def52b79bcd78d02205b13262cd1beba507079326722d62ca29ba9437ed9d2ec41454dc7fe14ba3da2[ALL] 037f174e7e306b98014dd01708898e35421a26791f0726a2ffc5c4a1283cce7134"}, "vout": 1, "txid": "916b225b1dc91f34ba8db4814f0b877c1c559bd0882b9255abcc1b20044f3515"}], "txid": "85b1f719479247974c97cd0e26dc8f3676852c2384579af13188b5039c5edbca", "blocktime": 1537873282, "version": 1, "confirmations": 11484, "time": 1537873282, "locktime": 0, "vsize": 225, "size": 225}