{"hash": "85b177146936f654d466561413b0ffd7f5b84bc3fcb165850b864573d05c1730", "blockhash": "00000000000000000004ffacab907a6b429b9a5745fa0b75af4234bf69dd7176", "vout": [{"scriptPubKey": {"type": "nulldata", "hex": "6a146f6d6e69000000000000001f000000173dc3f420", "asm": "OP_RETURN 6f6d6e69000000000000001f000000173dc3f420"}, "value": 0.0, "n": 0}, {"scriptPubKey": {"reqSigs": 1, "hex": "76a9141e5937605900a7c092e8ef725b2ffea9945c364688ac", "addresses": ["13mU9cZPQ57sVpeDHSFUWF93wxDJxSyuNz"], "asm": "OP_DUP OP_HASH160 1e5937605900a7c092e8ef725b2ffea9945c3646 OP_EQUALVERIFY OP_CHECKSIG", "type": "pubkeyhash"}, "value": 0.13571471, "n": 1}, {"scriptPubKey": {"reqSigs": 1, "hex": "76a9147d2120e8af9f8c373b9760a13ea10ffc055b925088ac", "addresses": ["1CQd9nsQP53PQZeq2qu6zLZra2nQj1ccgZ"], "asm": "OP_DUP OP_HASH160 7d2120e8af9f8c373b9760a13ea10ffc055b9250 OP_EQUALVERIFY OP_CHECKSIG", "type": "pubkeyhash"}, "value": 5.46e-06, "n": 2}], "hex": "0100000001315596576de0f0d1a83b8f05350b0ca968fcdd938352a5f67ff204f34bbef8a7000000006b48304502210085abed549f2d3dc5cd2024a9c5b91f5e502ce03313ca0e2d3b08c21315f6b83402207e31ba9e4563e2e716c0abad2680630d7a5fa15ef77c27a286f361a63366e630012103602942a499329a1b4e7ad32e1851585747cccb2edad62787674686a8ab77097cfeffffff030000000000000000166a146f6d6e69000000000000001f000000173dc3f4208f15cf00000000001976a9141e5937605900a7c092e8ef725b2ffea9945c364688ac22020000000000001976a9147d2120e8af9f8c373b9760a13ea10ffc055b925088acd0480800", "vin": [{"sequence": 4294967294, "scriptSig": {"hex": "48304502210085abed549f2d3dc5cd2024a9c5b91f5e502ce03313ca0e2d3b08c21315f6b83402207e31ba9e4563e2e716c0abad2680630d7a5fa15ef77c27a286f361a63366e630012103602942a499329a1b4e7ad32e1851585747cccb2edad62787674686a8ab77097c", "asm": "304502210085abed549f2d3dc5cd2024a9c5b91f5e502ce03313ca0e2d3b08c21315f6b83402207e31ba9e4563e2e716c0abad2680630d7a5fa15ef77c27a286f361a63366e630[ALL] 03602942a499329a1b4e7ad32e1851585747cccb2edad62787674686a8ab77097c"}, "vout": 0, "txid": "a7f8be4bf304f27ff6a5528393ddfc68a90c0b35058f3ba8d1f0e06d57965531"}], "txid": "85b177146936f654d466561413b0ffd7f5b84bc3fcb165850b864573d05c1730", "blocktime": 1537875543, "version": 1, "confirmations": 11464, "time": 1537875543, "locktime": 542928, "vsize": 257, "size": 257}