{"hash": "53e5429a768fd6fc3fb5eb03fa981bd57241b7e37c957bb8cef96ad57b525fc8", "blockhash": "00000000000000000018f53835495a110e01622372bf6ae95dc86f2b0ab887b0", "vout": [{"scriptPubKey": {"reqSigs": 1, "hex": "76a914a0d15632b0026c72995e2ea07760cda73d23eade88ac", "addresses": ["1FfKtfRm9SiiFEvxJL1fPRMPqgLDWE8zPG"], "asm": "OP_DUP OP_HASH160 a0d15632b0026c72995e2ea07760cda73d23eade OP_EQUALVERIFY OP_CHECKSIG", "type": "pubkeyhash"}, "value": 0.00370066, "n": 0}, {"scriptPubKey": {"reqSigs": 1, "hex": "76a91490f73da61316c1ad374509d3fdb249171c8673eb88ac", "addresses": ["1EDWVDZcdxYH7E8yTK1fo4ZEwN9EtpjyTN"], "asm": "OP_DUP OP_HASH160 90f73da61316c1ad374509d3fdb249171c8673eb OP_EQUALVERIFY OP_CHECKSIG", "type": "pubkeyhash"}, "value": 0.01158964, "n": 1}, {"scriptPubKey": {"reqSigs": 1, "hex": "76a914ecc7972b7a5e03a0378daa1c48589a006feac17688ac", "addresses": ["1Naya4gjeGHVfiZ83EuhtxhqUYrnidzHeb"], "asm": "OP_DUP OP_HASH160 ecc7972b7a5e03a0378daa1c48589a006feac176 OP_EQUALVERIFY OP_CHECKSIG", "type": "pubkeyhash"}, "value": 0.53846715, "n": 2}, {"scriptPubKey": {"reqSigs": 1, "hex": "a91414d2de235df688798670a47544c06ba9989b961a87", "addresses": ["33b83j7YfsnHovftNPVTQPmmxQTeWJAa9X"], "asm": "OP_HASH160 14d2de235df688798670a47544c06ba9989b961a OP_EQUAL", "type": "scripthash"}, "value": 0.01330987, "n": 3}, {"scriptPubKey": {"reqSigs": 1, "hex": "a91491bb38805d28b5cd3401e99fd613575f9392cd1287", "addresses": ["3EyaBgWgjYekwBxoPJ6xq4XA44xXTuGNMA"], "asm": "OP_HASH160 91bb38805d28b5cd3401e99fd613575f9392cd12 OP_EQUAL", "type": "scripthash"}, "value": 0.02631117, "n": 4}, {"scriptPubKey": {"reqSigs": 1, "hex": "76a914c5e84246b63ca94b9eb8cdab490de9400d36f36c88ac", "addresses": ["1K3SMRSCbqPV6BiCDH5Dta1sBCrXRepFuj"], "asm": "OP_DUP OP_HASH160 c5e84246b63ca94b9eb8cdab490de9400d36f36c OP_EQUALVERIFY OP_CHECKSIG", "type": "pubkeyhash"}, "value": 0.043, "n": 5}, {"scriptPubKey": {"reqSigs": 1, "hex": "a914f82f4050f3c7786d64b5a441db67da8988ea2e9a87", "addresses": ["3QKJ7C33H2TPYotJ7FaYJzKR5VV9MzhwFg"], "asm": "OP_HASH160 f82f4050f3c7786d64b5a441db67da8988ea2e9a OP_EQUAL", "type": "scripthash"}, "value": 0.07125482, "n": 6}, {"scriptPubKey": {"reqSigs": 1, "hex": "76a914d90d7f365fd4df34b83c82ec3351d86a76d7061988ac", "addresses": ["1LnfoQmqsZXdq4ZSakgnGXWaFPKU37nUab"], "asm": "OP_DUP OP_HASH160 d90d7f365fd4df34b83c82ec3351d86a76d70619 OP_EQUALVERIFY OP_CHECKSIG", "type": "pubkeyhash"}, "value": 0.098, "n": 7}, {"scriptPubKey": {"reqSigs": 1, "hex": "a914baed1c79cc6325333d5013b44dc17e8256bf5b7187", "addresses": ["3JjPf13Rd8g6WAyvg8yiPnrsdjJt1NP4FC"], "asm": "OP_HASH160 baed1c79cc6325333d5013b44dc17e8256bf5b71 OP_EQUAL", "type": "scripthash"}, "value": 18.66323369, "n": 8}], "hex": "020000000001013cb28cee78f4ea359cd4f2f48c99e5cae3017a8b51ef624b68f2c41df9c3744c09000000171600140976ae89087e12920490628529bfe4a9107439b1ffffffff0992a50500000000001976a914a0d15632b0026c72995e2ea07760cda73d23eade88ac34af1100000000001976a91490f73da61316c1ad374509d3fdb249171c8673eb88acbba23503000000001976a914ecc7972b7a5e03a0378daa1c48589a006feac17688ac2b4f14000000000017a91414d2de235df688798670a47544c06ba9989b961a87cd2528000000000017a91491bb38805d28b5cd3401e99fd613575f9392cd1287e09c4100000000001976a914c5e84246b63ca94b9eb8cdab490de9400d36f36c88aceab96c000000000017a914f82f4050f3c7786d64b5a441db67da8988ea2e9a8740899500000000001976a914d90d7f365fd4df34b83c82ec3351d86a76d7061988aca9d53d6f0000000017a914baed1c79cc6325333d5013b44dc17e8256bf5b718702473044022071b308305f6f9105241baf6af849eb48b1cd53fa5e3a6b59c6e334a34b6bf3090220660f531a1189cff395564fd8555e5cbd773194fc0e0e2b731a5dc723797216bc01210248566d3b6acc09341b00ed637bb5b5c4195352e13edb3402acd7f6c00438e50800000000", "vin": [{"txinwitness": ["3044022071b308305f6f9105241baf6af849eb48b1cd53fa5e3a6b59c6e334a34b6bf3090220660f531a1189cff395564fd8555e5cbd773194fc0e0e2b731a5dc723797216bc01", "0248566d3b6acc09341b00ed637bb5b5c4195352e13edb3402acd7f6c00438e508"], "sequence": 4294967295, "scriptSig": {"hex": "1600140976ae89087e12920490628529bfe4a9107439b1", "asm": "00140976ae89087e12920490628529bfe4a9107439b1"}, "vout": 9, "txid": "4c74c3f91dc4f2684b62ef518b7a01e3cae5998cf4f2d49c35eaf478ee8cb23c"}], "txid": "85b2a3af61be992c023b0673514927d1283248b2204ad63faab0a863c955e955", "blocktime": 1537870928, "version": 2, "confirmations": 11512, "time": 1537870928, "locktime": 0, "vsize": 400, "size": 481}