{"hash": "a48a03a3f5e9a6c26178451f207c378de29450b915231e3a5870e4e7d66e7ea6", "blockhash": "0000000000000000000dcc0f55137456b1a82d3642486a52398922ac4d620174", "vout": [{"scriptPubKey": {"reqSigs": 1, "hex": "76a91495814e256ce2813bac17da34d4f0d635aaf85d7188ac", "addresses": ["1EdWasSLwEm5G8iP69PEBrEhbqns8G1dRf"], "asm": "OP_DUP OP_HASH160 95814e256ce2813bac17da34d4f0d635aaf85d71 OP_EQUALVERIFY OP_CHECKSIG", "type": "pubkeyhash"}, "value": 0.02141235, "n": 0}, {"scriptPubKey": {"reqSigs": 1, "hex": "76a914ba9be517ead004ae3558c856d0ca0c4ac0f59b4588ac", "addresses": ["1J1hSSyCMc4B7k5LCD3cAUE9bzpSjqnT3q"], "asm": "OP_DUP OP_HASH160 ba9be517ead004ae3558c856d0ca0c4ac0f59b45 OP_EQUALVERIFY OP_CHECKSIG", "type": "pubkeyhash"}, "value": 0.00877324, "n": 1}, {"scriptPubKey": {"reqSigs": 1, "hex": "76a914bc284ac4db664378d9e6e0fc7660e2be451046af88ac", "addresses": ["1J9tJc9TyoBFmPD97GALLGoUdPtJ1XjFeW"], "asm": "OP_DUP OP_HASH160 bc284ac4db664378d9e6e0fc7660e2be451046af OP_EQUALVERIFY OP_CHECKSIG", "type": "pubkeyhash"}, "value": 0.00538961, "n": 2}, {"scriptPubKey": {"reqSigs": 1, "hex": "76a914f1a660fb9e919f7a8f93f6ce27e9e5f85990d4ba88ac", "addresses": ["1P2jASGDRtGGNpYpgFPMRUFLTvDMBycxTz"], "asm": "OP_DUP OP_HASH160 f1a660fb9e919f7a8f93f6ce27e9e5f85990d4ba OP_EQUALVERIFY OP_CHECKSIG", "type": "pubkeyhash"}, "value": 0.01531921, "n": 3}, {"scriptPubKey": {"reqSigs": 1, "hex": "a914ce10e9fbd1b1d2ae0dd0b6999ac089052ecd3cae87", "addresses": ["3LUbPGPFnmxFeuKJWkMmZogNnx14SCEboU"], "asm": "OP_HASH160 ce10e9fbd1b1d2ae0dd0b6999ac089052ecd3cae OP_EQUAL", "type": "scripthash"}, "value": 0.00990854, "n": 4}, {"scriptPubKey": {"reqSigs": 1, "hex": "a914d7d828a1013c2efd088520f20d52c205e6c3806787", "addresses": ["3MNJ9ktcW91ajnW1ZvkQu2dw5yct53ukE9"], "asm": "OP_HASH160 d7d828a1013c2efd088520f20d52c205e6c38067 OP_EQUAL", "type": "scripthash"}, "value": 0.00515337, "n": 5}, {"scriptPubKey": {"reqSigs": 1, "hex": "76a9140dca39e457e1b94d9f035a9993061d5c8cae5b9e88ac", "addresses": ["12Fv3QvCZ7focBrZuMo6BffXqru2eMN6nU"], "asm": "OP_DUP OP_HASH160 0dca39e457e1b94d9f035a9993061d5c8cae5b9e OP_EQUALVERIFY OP_CHECKSIG", "type": "pubkeyhash"}, "value": 0.01522907, "n": 6}, {"scriptPubKey": {"reqSigs": 1, "hex": "76a91490ff740d4c3838237ba5f499e1e4141be88fdbef88ac", "addresses": ["1EDgKqFjw11KubGFKheh9VCGkDubipcU8j"], "asm": "OP_DUP OP_HASH160 90ff740d4c3838237ba5f499e1e4141be88fdbef OP_EQUALVERIFY OP_CHECKSIG", "type": "pubkeyhash"}, "value": 0.01566327, "n": 7}, {"scriptPubKey": {"reqSigs": 1, "hex": "76a914357449b62805870c268d78d5367cbd21b9fa4e1788ac", "addresses": ["15se7zgHQ4bUWbTRUKVscT3feVoh7F5uc4"], "asm": "OP_DUP OP_HASH160 357449b62805870c268d78d5367cbd21b9fa4e17 OP_EQUALVERIFY OP_CHECKSIG", "type": "pubkeyhash"}, "value": 0.03574262, "n": 8}, {"scriptPubKey": {"reqSigs": 1, "hex": "76a914a055b065b122b675e5b85d287e38dadf98d0b33688ac", "addresses": ["1FcmmUQgJ64MqPatxYPWrA2x67ELtsJFuQ"], "asm": "OP_DUP OP_HASH160 a055b065b122b675e5b85d287e38dadf98d0b336 OP_EQUALVERIFY OP_CHECKSIG", "type": "pubkeyhash"}, "value": 0.0092167, "n": 9}, {"scriptPubKey": {"reqSigs": 1, "hex": "76a914d4e11a90bba1cd7cc8fa5b992b647ed822eac9a388ac", "addresses": ["1LQbv9qAvfUwfZdSRd2LJUNbe2yz1YxZ7J"], "asm": "OP_DUP OP_HASH160 d4e11a90bba1cd7cc8fa5b992b647ed822eac9a3 OP_EQUALVERIFY OP_CHECKSIG", "type": "pubkeyhash"}, "value": 0.00384129, "n": 10}, {"scriptPubKey": {"reqSigs": 1, "hex": "a914fb04a08d4a42bf4547c330625393a4dd162e51e387", "addresses": ["3QaH5CBawHybH4tk4qdzzW7NgLURbykC3w"], "asm": "OP_HASH160 fb04a08d4a42bf4547c330625393a4dd162e51e3 OP_EQUAL", "type": "scripthash"}, "value": 0.00350896, "n": 11}, {"scriptPubKey": {"reqSigs": 1, "hex": "a9146132e8e0c640c8d76cb4b7f1dd2d58c18f3d941a87", "addresses": ["3AYxTRBxot5x69aa8RKGJNethy6LoQz54K"], "asm": "OP_HASH160 6132e8e0c640c8d76cb4b7f1dd2d58c18f3d941a OP_EQUAL", "type": "scripthash"}, "value": 0.00487132, "n": 12}, {"scriptPubKey": {"reqSigs": 1, "hex": "76a9141f4a0537a074931f453b545c730ed7ebb0694e1688ac", "addresses": ["13rScyRsokSJVRXPHwruzK762rPzDFWAT8"], "asm": "OP_DUP OP_HASH160 1f4a0537a074931f453b545c730ed7ebb0694e16 OP_EQUALVERIFY OP_CHECKSIG", "type": "pubkeyhash"}, "value": 0.00527525, "n": 13}, {"scriptPubKey": {"reqSigs": 1, "hex": "76a9140d2de192cef45d84fd1d7e7bfc7aeda5b945c33988ac", "addresses": ["12CgkNZWTGA6dv5nRM3p12XYqJHpm6WXCz"], "asm": "OP_DUP OP_HASH160 0d2de192cef45d84fd1d7e7bfc7aeda5b945c339 OP_EQUALVERIFY OP_CHECKSIG", "type": "pubkeyhash"}, "value": 0.00905357, "n": 14}, {"scriptPubKey": {"reqSigs": 1, "hex": "76a914ceab98db7284928744ef5715abefdc8215d832a788ac", "addresses": ["1KqmmHxwRG2ghkEzfYYZer8ZMNdMREmdyM"], "asm": "OP_DUP OP_HASH160 ceab98db7284928744ef5715abefdc8215d832a7 OP_EQUALVERIFY OP_CHECKSIG", "type": "pubkeyhash"}, "value": 0.00751863, "n": 15}, {"scriptPubKey": {"reqSigs": 1, "hex": "76a914fed0f339bba37da713501142f6775c21634310f388ac", "addresses": ["1QELwqH6p1MsX66piJsE1edD3u4Vwt61vm"], "asm": "OP_DUP OP_HASH160 fed0f339bba37da713501142f6775c21634310f3 OP_EQUALVERIFY OP_CHECKSIG", "type": "pubkeyhash"}, "value": 0.00905611, "n": 16}, {"scriptPubKey": {"reqSigs": 1, "hex": "76a914d081065ac9454d1f063f5131fd06992183e9992688ac", "addresses": ["1L1U7hkURL7KZp7YtLpQW29JddEH4PxttC"], "asm": "OP_DUP OP_HASH160 d081065ac9454d1f063f5131fd06992183e99926 OP_EQUALVERIFY OP_CHECKSIG", "type": "pubkeyhash"}, "value": 0.00802044, "n": 17}, {"scriptPubKey": {"reqSigs": 1, "hex": "76a91409d66957024873cd218d373f88537c0e5a68a60d88ac", "addresses": ["1u1wJFx2Hw8aFrm3w7Y4B948aMvRsato4"], "asm": "OP_DUP OP_HASH160 09d66957024873cd218d373f88537c0e5a68a60d OP_EQUALVERIFY OP_CHECKSIG", "type": "pubkeyhash"}, "value": 0.011588, "n": 18}, {"scriptPubKey": {"reqSigs": 1, "hex": "76a9147189ec767c85d8e6b861acbf9bef8d726e60dc5388ac", "addresses": ["1BMLanNmUCUA3fC938fBLuRQm6LG6Fm7PM"], "asm": "OP_DUP OP_HASH160 7189ec767c85d8e6b861acbf9bef8d726e60dc53 OP_EQUALVERIFY OP_CHECKSIG", "type": "pubkeyhash"}, "value": 0.00905767, "n": 19}, {"scriptPubKey": {"reqSigs": 1, "hex": "76a9140ae4df1c8ad70672b06961604dc6485bbe148e4488ac", "addresses": ["1zbwC5LNxfn9RHNSkFwXJXLkEps6D14As"], "asm": "OP_DUP OP_HASH160 0ae4df1c8ad70672b06961604dc6485bbe148e44 OP_EQUALVERIFY OP_CHECKSIG", "type": "pubkeyhash"}, "value": 0.00197543, "n": 20}], "hex": "02000000000115049b0340a0dcb9365cca10e4963e8cf337c361b3be53110feeb24c302ac117bf0000000017160014248f74b425fb86c7e178530f38d3a46ea1938a4dfeffffff0c30edd2bf349853c6f47a6a795a5c0a3f1ab1c92afc5f99266b57a35072711a000000001716001435cf7f4ea216d5875bf6c8f9907c287a283a36a7feffffff13259bba7aa553cbca5e7f2dba7d4c4a0a66766540e38488f6d596a5fe80f86600000000171600149700a22bdae5192f4f1e8706d4453ddccb1ead8ffeffffff1abf8ed18d47131968fbda295b0367892e6bdeafa4a0152f2b16b0aed1167f140100000017160014881fdba4c2fc78342ad32cde4c7bd2ed8ee495e4feffffff1ae83aefb672e74451f280991f86c5e343531728a3f5e4d6a88ec567d7bef0a90000000017160014aad602678db35a8da8b00dc2f07bfc920eebf998feffffff1e2d197afcff23648baa465631caebfe739581254c4998ee75cd56b7e3494ef1040000001716001495cb29257861cdf12eaac35dbb3d44a73a0dfd7efeffffff247d387eb9761b2f9ccf64042a1737a3cdae57e5b507a9a2ee907ae2713f42e4000000001716001427c1fac71f3ede92f44a1a3aff9eca8f8a212857feffffff26439e1f1479eec82181b98800db91c3552ce67c8dad197e8a6844a1cbff34a90000000017160014e9555633d584bd58ee35006da6007f10dbc83cdefeffffff291fb89396fe8cb74daa5d360cfac2e51694d0d810d11cf2fd27cf64bb82276901000000171600142c607df845ae93d2dc10d046d6870875b6a00852feffffff453cc4861393692766e7439154572b2d1471a7d7e9dc9bb312747995a6c873400100000017160014904f48039d5ca51f6539e72b50f77da0a50eb291feffffff5896dafd24182a80639b498faabc571c10439899039b909dcdb1ebd6240306a10000000017160014067ac2b5fc830952c8e31c117748ab03363e57defeffffff5f562e85e8146cfb877fdf47aa8c77ed2f9733af8686a0222d766ff8cb0befba06000000171600149dff57f2b3da010c1332a7d62e77859c1b805399feffffff62b5c4fa1b01d1128f59550da487bfb4224b16e80effead412146c7a56bfa2cc00000000171600146bc5363b3be0d2442074297323c15d79cb5aa89bfeffffff7e54718e996d96e48d55d2cb5ea39ee577b1edac741e2cedc218ab2bfbf029b50000000017160014bf7dd0d2e5ea25b0243ba36f0ccd11faece414dffeffffffa39a0878b3ba2a16b82881ec0599f3daa69aa97f4a2579d5a54706672e9ec3110100000017160014b226f973569ef5cf45ffe83ec226b268669d0626feffffffb3063dd53226f83d6fc48d5f57bcc4bf8120a3f39089b85d4a01ed293ad726280100000017160014f41f325c6f4fb4a22934c96794abde00d0915cb7feffffffba87cbaaa4dd0511c1d6be3c60084b365e244fde537a57a456a2e493b7dd93530400000017160014db2f28df3260f6849692b0c5c15a971a5bec9236feffffffc801686ab1a3289771f0e289f531107184376bcc8b5f5b190e5e4946988f648b01000000171600141a4b7b2b38058b2c248e8b068850f7689ff5bbd0feffffffca0eb88d06a78f8d9a548ed7cfd296edc8b04112e0aa19f4cb4b06e1ae99b79813000000171600149d11fdc2a47c1ddc1da7086e6cc9670711c7f180fefffffff292ab260904f809ba844bed8b3525ca311993de3b9806049977399bca42803f0100000017160014a7f7bbb4bdd8cceed17e4c0dd2c2afc960ceee05fefffffffef169619becd0172c7637f2a647442b898591a651d9cf163e88b70494e83f59000000001716001491237cb9e2484a1e57045fa60d616baa2c080ebdfeffffff1533ac2000000000001976a91495814e256ce2813bac17da34d4f0d635aaf85d7188ac0c630d00000000001976a914ba9be517ead004ae3558c856d0ca0c4ac0f59b4588ac51390800000000001976a914bc284ac4db664378d9e6e0fc7660e2be451046af88ac11601700000000001976a914f1a660fb9e919f7a8f93f6ce27e9e5f85990d4ba88ac861e0f000000000017a914ce10e9fbd1b1d2ae0dd0b6999ac089052ecd3cae8709dd07000000000017a914d7d828a1013c2efd088520f20d52c205e6c3806787db3c1700000000001976a9140dca39e457e1b94d9f035a9993061d5c8cae5b9e88ac77e61700000000001976a91490ff740d4c3838237ba5f499e1e4141be88fdbef88acf6893600000000001976a914357449b62805870c268d78d5367cbd21b9fa4e1788ac46100e00000000001976a914a055b065b122b675e5b85d287e38dadf98d0b33688ac81dc0500000000001976a914d4e11a90bba1cd7cc8fa5b992b647ed822eac9a388acb05a05000000000017a914fb04a08d4a42bf4547c330625393a4dd162e51e387dc6e07000000000017a9146132e8e0c640c8d76cb4b7f1dd2d58c18f3d941a87a50c0800000000001976a9141f4a0537a074931f453b545c730ed7ebb0694e1688ac8dd00d00000000001976a9140d2de192cef45d84fd1d7e7bfc7aeda5b945c33988acf7780b00000000001976a914ceab98db7284928744ef5715abefdc8215d832a788ac8bd10d00000000001976a914fed0f339bba37da713501142f6775c21634310f388acfc3c0c00000000001976a914d081065ac9454d1f063f5131fd06992183e9992688ac90ae1100000000001976a91409d66957024873cd218d373f88537c0e5a68a60d88ac27d20d00000000001976a9147189ec767c85d8e6b861acbf9bef8d726e60dc5388aca7030300000000001976a9140ae4df1c8ad70672b06961604dc6485bbe148e4488ac024730440220682f821307c0155705a4af280cc12332c70e6668361a7adbb3a81943f38dc33d022069c6b9b2f04382d506d800334dbda1d6bac2c9d81f5eb4bf0a0aede5ce95e3b40121024050dedbe75444f59d522b6a8d1c7aba31b7b54db30673a5639a46786d5539ee0247304402200943d4f01d9b5ba7cc4867753baf2835f2036031817c21ea7335f0bffa4d2362022054526ae383d2637792a45905785ae5346ef268349434bc2cd1abdb6d76882fff012102d53bc0c5869663851da51de45defe1584b03628f03dbcc8d4a9f766aa1ae693302483045022100e93d56e898171484e976a4647c00acd78ab2fd64718fa0dcbffccfc6049d496c0220734032548bb1cf76541d38553b22f4a7e2b78a86ab78824fbdf1f5e1e8db9adb012102c269ae1909637f0e9ac3fec40e5daf160622ff6a239f6ca1475f48f210f4dfe402483045022100e4ebf5ea9e14ccb4d2fc541d8a0f5b5a9fdb23332b7783f9a0340574450faa8302205475e5a972b41a6e03e243b9f0b633a2fadb6ec240fdb81481eded0f377160dc012103c7747f12e1cab2d66713db2571a9d8e71abbd4dc57709d0c72250dea2841ded002483045022100bc2fcccccc2d5b3c7556a5ea7c6490412e5b3f83fea19f38c6c9c31a4e0f2fb302206b5b6228f05a851679ad822c32a734d5249bdbef99094167689726177e80e9e1012103d51aa79cc541f317ed28b499786b656256d7ce667cac45360675eb54e100d65f02483045022100a6718cce4d4681785b158c73c93ef5dfea01b3d53716c470cfb7d0acbe11828602203b645163164bdcf60ea9a8a5cc32e83a645e37d2260a62f58fffa7b62c5384c3012103a7a78112828d6c8dc71b491ce50b1dceeed9478f6f91d42bf0c4275aa7ed7afd02473044022040eb313596715d0f4dbeeb00c688a9522ed5edca94109474cf86f8381080aeb0022014312f7efbbd131dfa74ceed682f389bc9acc495fc08e9441de3496d44457a090121033a95fa673167742273f97724d1632ff31fe1784b74df65a8736d15531ac411660248304502210083a2a389d6a2d14154ff194c38b8f57e210dff58a805793acfb1fbc6e1ab5167022065d08fc6f093a42e0e2efc57a74a95c71c600f377b7489c21022d9f3e36fa345012103bc2032329f2956d44f6ef909a6cee7289eb464c7b022fdddbf44387826fed3cc024730440220555125176fe62803a2092caef1bc81c66cdd2dade1925ed902136bb841f118e5022016cc2d151731a6b675634e824721f08d67912d7db7fef5513a124bee0a330356012102968b83685a0ee9be6587c2a00af20964832c4ceb34e14c37e2bf9e7f0a07db0102483045022100ae3f51182c37bde2e1614271c69569f35b42fe60ce08435c2f0db785b3fbce8902205ace576d96d0ba5048ef92a57cae903bb0323683ea934103413c0ccf8c6e2ba7012102aee855121b0131d74102343fdee7a4a7da42f284d782f76b644bbe6c41dead070248304502210081fbe5f48df67f68b98b838ae229ca876bebb47332661026ec300633da2a697d022046ef0f5d2f9adeedb374d19fa0f11c157eb86397331d70e52664f21af4d36cc0012102ac27c6513d108e87e6d1bb6494b22b1ca153cca635f4eb3967b8fbd9e06b7937024730440220636caca238565ed1a50ceea695c9f34e3e89638fbb194406e13ef1d6f57f027f02202358e98e5042d7d2038bc33aef52cb641812cbd95260b9ea9973157432f564770121030aff70b0184e59b8e3a0ee9a1d12cc69f5b42b8d6197193672a52b23e2d673ef024730440220616a116c208efda7a94680336db697c8faef970d8f8b337f2d7ba2e6f69f41bf022001d29689ed24954a03bf6d61d756deda64a4ba2de8b97d9877c3c8a12a44ccbd01210370f4c30ff1026cd73e2de1ee5337974bf2f3db6469831f0707bbda8c7cf76c3802473044022029eebd4593f6b69ebc8a697ad8225e7c996192f46b6ea09fdc2be280831abf73022007bc5e7b0137aeb8df33598f28d87f76c12daabb432e154030c60888b0fb886701210249a9b9aaf5de6d493ee916c01807fd48bc22095a8d5c735b1027f894e0a4a16502483045022100cd44d8b28ef01fd67c752b645e17934861b9c8791ab3978ddd26a196f6309ef90220614b95d0decc3bb1dd3e2e05bcd260e7331a54f0daa2b7118e3017021ba303a8012103b1760af03139f685da24d0722eed9bccafe6afe646ba14a442ee2aa44cfc319702483045022100e0b256ff1c270b47b720caa1e7c4e132d528e203c3c9d574547a278340417dd302205c9076b719612842371263ee879cd4a526561e859707f9324231d3d46e8fa09401210374070377a052c6a2a6035b51cc281338d14f6629c513ef52ac614a65c5196a65024730440220711f467705c88f144dc86b07d42494527fa1cffa1c3c4cfe3a5d2349be8be1570220603fd340ebfd58608a80639b7c86cb7bffaa7a8e10164fddf968dad5af3cdf0101210355de7a45acd95bb89b8c67d6a4aa722dd29b827b0fb3fefc98a1331a96c8a3cf02483045022100ff1d4346a8d54442231ec821b5ba66ab53852beb811a207697cdc8cf18c815d80220363a210caa75fc09ac93a71730d70c2970c593d3fe54cef41c982b1024d2f9030121022590190cf2148f3844bbfb2fcd52f1f8efe51459cf71d28835ef182d5a5059cc024730440220038d596c57b748730a1c28408499a45d6d7b0d26c5dda5893bdc7f182df7ea7a02205fb7f96b56d7204fc57f6551cde9cb71d8965c58ad37a8ddd0e03bf596f2df3b012102a64b691bbecfb66aef43ca6518cdd6da278373d37209bb1dfc2335121662ac6402483045022100f12b7736ee99dbb2012460587ccf6fe7f909f198dfd8ac374ada5ddd1bb04803022070768ec47d963bf577c8ea759bfeee5fdf0e69ac96c87a43a11190363a56b64f0121028294ae4d5cbca29f92cfce33fa6001c35bce6a4ee926f982cf058d3a26fb41df02483045022100fbcf63e8e0259111b1ba65e57a5816bc340e204e4021e1f1d536d68c7cd3d27d022073767822999a23ef2816cc7eaceb757ca6420eecdc23c3967f3082d32bd166ad012103c12aa6926c263736b9d4da55b68921574c53ed2c9a0df6c9f18ee2a6fe26eabd0c490800", "vin": [{"txinwitness": ["30440220682f821307c0155705a4af280cc12332c70e6668361a7adbb3a81943f38dc33d022069c6b9b2f04382d506d800334dbda1d6bac2c9d81f5eb4bf0a0aede5ce95e3b401", "024050dedbe75444f59d522b6a8d1c7aba31b7b54db30673a5639a46786d5539ee"], "sequence": 4294967294, "scriptSig": {"hex": "160014248f74b425fb86c7e178530f38d3a46ea1938a4d", "asm": "0014248f74b425fb86c7e178530f38d3a46ea1938a4d"}, "vout": 0, "txid": "bf17c12a304cb2ee0f1153beb361c337f38c3e96e410ca5c36b9dca040039b04"}, {"txinwitness": ["304402200943d4f01d9b5ba7cc4867753baf2835f2036031817c21ea7335f0bffa4d2362022054526ae383d2637792a45905785ae5346ef268349434bc2cd1abdb6d76882fff01", "02d53bc0c5869663851da51de45defe1584b03628f03dbcc8d4a9f766aa1ae6933"], "sequence": 4294967294, "scriptSig": {"hex": "16001435cf7f4ea216d5875bf6c8f9907c287a283a36a7", "asm": "001435cf7f4ea216d5875bf6c8f9907c287a283a36a7"}, "vout": 0, "txid": "1a717250a3576b26995ffc2ac9b11a3f0a5c5a796a7af4c6539834bfd2ed300c"}, {"txinwitness": ["3045022100e93d56e898171484e976a4647c00acd78ab2fd64718fa0dcbffccfc6049d496c0220734032548bb1cf76541d38553b22f4a7e2b78a86ab78824fbdf1f5e1e8db9adb01", "02c269ae1909637f0e9ac3fec40e5daf160622ff6a239f6ca1475f48f210f4dfe4"], "sequence": 4294967294, "scriptSig": {"hex": "1600149700a22bdae5192f4f1e8706d4453ddccb1ead8f", "asm": "00149700a22bdae5192f4f1e8706d4453ddccb1ead8f"}, "vout": 0, "txid": "66f880fea596d5f68884e3406576660a4a4c7dba2d7f5ecacb53a57aba9b2513"}, {"txinwitness": ["3045022100e4ebf5ea9e14ccb4d2fc541d8a0f5b5a9fdb23332b7783f9a0340574450faa8302205475e5a972b41a6e03e243b9f0b633a2fadb6ec240fdb81481eded0f377160dc01", "03c7747f12e1cab2d66713db2571a9d8e71abbd4dc57709d0c72250dea2841ded0"], "sequence": 4294967294, "scriptSig": {"hex": "160014881fdba4c2fc78342ad32cde4c7bd2ed8ee495e4", "asm": "0014881fdba4c2fc78342ad32cde4c7bd2ed8ee495e4"}, "vout": 1, "txid": "147f16d1aeb0162b2f15a0a4afde6b2e8967035b29dafb681913478dd18ebf1a"}, {"txinwitness": ["3045022100bc2fcccccc2d5b3c7556a5ea7c6490412e5b3f83fea19f38c6c9c31a4e0f2fb302206b5b6228f05a851679ad822c32a734d5249bdbef99094167689726177e80e9e101", "03d51aa79cc541f317ed28b499786b656256d7ce667cac45360675eb54e100d65f"], "sequence": 4294967294, "scriptSig": {"hex": "160014aad602678db35a8da8b00dc2f07bfc920eebf998", "asm": "0014aad602678db35a8da8b00dc2f07bfc920eebf998"}, "vout": 0, "txid": "a9f0bed767c58ea8d6e4f5a328175343e3c5861f9980f25144e772b6ef3ae81a"}, {"txinwitness": ["3045022100a6718cce4d4681785b158c73c93ef5dfea01b3d53716c470cfb7d0acbe11828602203b645163164bdcf60ea9a8a5cc32e83a645e37d2260a62f58fffa7b62c5384c301", "03a7a78112828d6c8dc71b491ce50b1dceeed9478f6f91d42bf0c4275aa7ed7afd"], "sequence": 4294967294, "scriptSig": {"hex": "16001495cb29257861cdf12eaac35dbb3d44a73a0dfd7e", "asm": "001495cb29257861cdf12eaac35dbb3d44a73a0dfd7e"}, "vout": 4, "txid": "f14e49e3b756cd75ee98494c25819573feebca315646aa8b6423fffc7a192d1e"}, {"txinwitness": ["3044022040eb313596715d0f4dbeeb00c688a9522ed5edca94109474cf86f8381080aeb0022014312f7efbbd131dfa74ceed682f389bc9acc495fc08e9441de3496d44457a0901", "033a95fa673167742273f97724d1632ff31fe1784b74df65a8736d15531ac41166"], "sequence": 4294967294, "scriptSig": {"hex": "16001427c1fac71f3ede92f44a1a3aff9eca8f8a212857", "asm": "001427c1fac71f3ede92f44a1a3aff9eca8f8a212857"}, "vout": 0, "txid": "e4423f71e27a90eea2a907b5e557aecda337172a0464cf9c2f1b76b97e387d24"}, {"txinwitness": ["304502210083a2a389d6a2d14154ff194c38b8f57e210dff58a805793acfb1fbc6e1ab5167022065d08fc6f093a42e0e2efc57a74a95c71c600f377b7489c21022d9f3e36fa34501", "03bc2032329f2956d44f6ef909a6cee7289eb464c7b022fdddbf44387826fed3cc"], "sequence": 4294967294, "scriptSig": {"hex": "160014e9555633d584bd58ee35006da6007f10dbc83cde", "asm": "0014e9555633d584bd58ee35006da6007f10dbc83cde"}, "vout": 0, "txid": "a934ffcba144688a7e19ad8d7ce62c55c391db0088b98121c8ee79141f9e4326"}, {"txinwitness": ["30440220555125176fe62803a2092caef1bc81c66cdd2dade1925ed902136bb841f118e5022016cc2d151731a6b675634e824721f08d67912d7db7fef5513a124bee0a33035601", "02968b83685a0ee9be6587c2a00af20964832c4ceb34e14c37e2bf9e7f0a07db01"], "sequence": 4294967294, "scriptSig": {"hex": "1600142c607df845ae93d2dc10d046d6870875b6a00852", "asm": "00142c607df845ae93d2dc10d046d6870875b6a00852"}, "vout": 1, "txid": "692782bb64cf27fdf21cd110d8d09416e5c2fa0c365daa4db78cfe9693b81f29"}, {"txinwitness": ["3045022100ae3f51182c37bde2e1614271c69569f35b42fe60ce08435c2f0db785b3fbce8902205ace576d96d0ba5048ef92a57cae903bb0323683ea934103413c0ccf8c6e2ba701", "02aee855121b0131d74102343fdee7a4a7da42f284d782f76b644bbe6c41dead07"], "sequence": 4294967294, "scriptSig": {"hex": "160014904f48039d5ca51f6539e72b50f77da0a50eb291", "asm": "0014904f48039d5ca51f6539e72b50f77da0a50eb291"}, "vout": 1, "txid": "4073c8a695797412b39bdce9d7a771142d2b57549143e7662769931386c43c45"}, {"txinwitness": ["304502210081fbe5f48df67f68b98b838ae229ca876bebb47332661026ec300633da2a697d022046ef0f5d2f9adeedb374d19fa0f11c157eb86397331d70e52664f21af4d36cc001", "02ac27c6513d108e87e6d1bb6494b22b1ca153cca635f4eb3967b8fbd9e06b7937"], "sequence": 4294967294, "scriptSig": {"hex": "160014067ac2b5fc830952c8e31c117748ab03363e57de", "asm": "0014067ac2b5fc830952c8e31c117748ab03363e57de"}, "vout": 0, "txid": "a1060324d6ebb1cd9d909b03999843101c57bcaa8f499b63802a1824fdda9658"}, {"txinwitness": ["30440220636caca238565ed1a50ceea695c9f34e3e89638fbb194406e13ef1d6f57f027f02202358e98e5042d7d2038bc33aef52cb641812cbd95260b9ea9973157432f5647701", "030aff70b0184e59b8e3a0ee9a1d12cc69f5b42b8d6197193672a52b23e2d673ef"], "sequence": 4294967294, "scriptSig": {"hex": "1600149dff57f2b3da010c1332a7d62e77859c1b805399", "asm": "00149dff57f2b3da010c1332a7d62e77859c1b805399"}, "vout": 6, "txid": "baef0bcbf86f762d22a08686af33972fed778caa47df7f87fb6c14e8852e565f"}, {"txinwitness": ["30440220616a116c208efda7a94680336db697c8faef970d8f8b337f2d7ba2e6f69f41bf022001d29689ed24954a03bf6d61d756deda64a4ba2de8b97d9877c3c8a12a44ccbd01", "0370f4c30ff1026cd73e2de1ee5337974bf2f3db6469831f0707bbda8c7cf76c38"], "sequence": 4294967294, "scriptSig": {"hex": "1600146bc5363b3be0d2442074297323c15d79cb5aa89b", "asm": "00146bc5363b3be0d2442074297323c15d79cb5aa89b"}, "vout": 0, "txid": "cca2bf567a6c1412d4eaff0ee8164b22b4bf87a40d55598f12d1011bfac4b562"}, {"txinwitness": ["3044022029eebd4593f6b69ebc8a697ad8225e7c996192f46b6ea09fdc2be280831abf73022007bc5e7b0137aeb8df33598f28d87f76c12daabb432e154030c60888b0fb886701", "0249a9b9aaf5de6d493ee916c01807fd48bc22095a8d5c735b1027f894e0a4a165"], "sequence": 4294967294, "scriptSig": {"hex": "160014bf7dd0d2e5ea25b0243ba36f0ccd11faece414df", "asm": "0014bf7dd0d2e5ea25b0243ba36f0ccd11faece414df"}, "vout": 0, "txid": "b529f0fb2bab18c2ed2c1e74acedb177e59ea35ecbd2558de4966d998e71547e"}, {"txinwitness": ["3045022100cd44d8b28ef01fd67c752b645e17934861b9c8791ab3978ddd26a196f6309ef90220614b95d0decc3bb1dd3e2e05bcd260e7331a54f0daa2b7118e3017021ba303a801", "03b1760af03139f685da24d0722eed9bccafe6afe646ba14a442ee2aa44cfc3197"], "sequence": 4294967294, "scriptSig": {"hex": "160014b226f973569ef5cf45ffe83ec226b268669d0626", "asm": "0014b226f973569ef5cf45ffe83ec226b268669d0626"}, "vout": 1, "txid": "11c39e2e670647a5d579254a7fa99aa6daf39905ec8128b8162abab378089aa3"}, {"txinwitness": ["3045022100e0b256ff1c270b47b720caa1e7c4e132d528e203c3c9d574547a278340417dd302205c9076b719612842371263ee879cd4a526561e859707f9324231d3d46e8fa09401", "0374070377a052c6a2a6035b51cc281338d14f6629c513ef52ac614a65c5196a65"], "sequence": 4294967294, "scriptSig": {"hex": "160014f41f325c6f4fb4a22934c96794abde00d0915cb7", "asm": "0014f41f325c6f4fb4a22934c96794abde00d0915cb7"}, "vout": 1, "txid": "2826d73a29ed014a5db88990f3a32081bfc4bc575f8dc46f3df82632d53d06b3"}, {"txinwitness": ["30440220711f467705c88f144dc86b07d42494527fa1cffa1c3c4cfe3a5d2349be8be1570220603fd340ebfd58608a80639b7c86cb7bffaa7a8e10164fddf968dad5af3cdf0101", "0355de7a45acd95bb89b8c67d6a4aa722dd29b827b0fb3fefc98a1331a96c8a3cf"], "sequence": 4294967294, "scriptSig": {"hex": "160014db2f28df3260f6849692b0c5c15a971a5bec9236", "asm": "0014db2f28df3260f6849692b0c5c15a971a5bec9236"}, "vout": 4, "txid": "5393ddb793e4a256a4577a53de4f245e364b08603cbed6c11105dda4aacb87ba"}, {"txinwitness": ["3045022100ff1d4346a8d54442231ec821b5ba66ab53852beb811a207697cdc8cf18c815d80220363a210caa75fc09ac93a71730d70c2970c593d3fe54cef41c982b1024d2f90301", "022590190cf2148f3844bbfb2fcd52f1f8efe51459cf71d28835ef182d5a5059cc"], "sequence": 4294967294, "scriptSig": {"hex": "1600141a4b7b2b38058b2c248e8b068850f7689ff5bbd0", "asm": "00141a4b7b2b38058b2c248e8b068850f7689ff5bbd0"}, "vout": 1, "txid": "8b648f9846495e0e195b5f8bcc6b3784711031f589e2f0719728a3b16a6801c8"}, {"txinwitness": ["30440220038d596c57b748730a1c28408499a45d6d7b0d26c5dda5893bdc7f182df7ea7a02205fb7f96b56d7204fc57f6551cde9cb71d8965c58ad37a8ddd0e03bf596f2df3b01", "02a64b691bbecfb66aef43ca6518cdd6da278373d37209bb1dfc2335121662ac64"], "sequence": 4294967294, "scriptSig": {"hex": "1600149d11fdc2a47c1ddc1da7086e6cc9670711c7f180", "asm": "00149d11fdc2a47c1ddc1da7086e6cc9670711c7f180"}, "vout": 19, "txid": "98b799aee1064bcbf419aae01241b0c8ed96d2cfd78e549a8d8fa7068db80eca"}, {"txinwitness": ["3045022100f12b7736ee99dbb2012460587ccf6fe7f909f198dfd8ac374ada5ddd1bb04803022070768ec47d963bf577c8ea759bfeee5fdf0e69ac96c87a43a11190363a56b64f01", "028294ae4d5cbca29f92cfce33fa6001c35bce6a4ee926f982cf058d3a26fb41df"], "sequence": 4294967294, "scriptSig": {"hex": "160014a7f7bbb4bdd8cceed17e4c0dd2c2afc960ceee05", "asm": "0014a7f7bbb4bdd8cceed17e4c0dd2c2afc960ceee05"}, "vout": 1, "txid": "3f8042ca9b3977990406983bde931931ca25358bed4b84ba09f8040926ab92f2"}, {"txinwitness": ["3045022100fbcf63e8e0259111b1ba65e57a5816bc340e204e4021e1f1d536d68c7cd3d27d022073767822999a23ef2816cc7eaceb757ca6420eecdc23c3967f3082d32bd166ad01", "03c12aa6926c263736b9d4da55b68921574c53ed2c9a0df6c9f18ee2a6fe26eabd"], "sequence": 4294967294, "scriptSig": {"hex": "16001491237cb9e2484a1e57045fa60d616baa2c080ebd", "asm": "001491237cb9e2484a1e57045fa60d616baa2c080ebd"}, "vout": 0, "txid": "593fe89404b7883e16cfd951a69185892b4447a6f237762c17d0ec9b6169f1fe"}], "txid": "85b2834def84531ae515fdf0ee79c6f4238923c9b5a2ed75a6c605ff8dbf7e82", "blocktime": 1537870268, "version": 2, "confirmations": 11518, "time": 1537870268, "locktime": 542988, "vsize": 2626, "size": 4321}