{"hash": "85b50dcb0837e06c35fa221cfcfba26a571611539a5bc37834a2cbf3151135f9", "blockhash": "00000000000000000004ffacab907a6b429b9a5745fa0b75af4234bf69dd7176", "vout": [{"scriptPubKey": {"reqSigs": 1, "hex": "76a914a1b8d6265c85ded4d80a4fce6f2ef14f3152b60f88ac", "addresses": ["1Fk7DYz5wEwPfZW2cKCWA9kMDLoR3SAcBF"], "asm": "OP_DUP OP_HASH160 a1b8d6265c85ded4d80a4fce6f2ef14f3152b60f OP_EQUALVERIFY OP_CHECKSIG", "type": "pubkeyhash"}, "value": 0.00267602, "n": 0}, {"scriptPubKey": {"reqSigs": 1, "hex": "76a9147352e841662828ff81ca697173513ed7399cd4d788ac", "addresses": ["1BWn2ZJzJmMv9k2HyR24TgKQS5PsJQL3WK"], "asm": "OP_DUP OP_HASH160 7352e841662828ff81ca697173513ed7399cd4d7 OP_EQUALVERIFY OP_CHECKSIG", "type": "pubkeyhash"}, "value": 0.17336764, "n": 1}], "hex": "0100000001c0e088b0f80b07008212c390fd042525045f358e60c56e1003f74a97d4001ed4010000006b483045022100f8e256cf839dc199f9a0e2c5b737db3f3a171c223c6233d55581227a518b1d340220051499fab4697acd8b03bb7a4dfc411b31415fbe090fd396178d34443ef22078012103740a8aa7eb016b3e58725c6d559d87b236b1ad054f44765423457f9661d3fda0ffffffff0252150400000000001976a914a1b8d6265c85ded4d80a4fce6f2ef14f3152b60f88acbc890801000000001976a9147352e841662828ff81ca697173513ed7399cd4d788ac00000000", "vin": [{"sequence": 4294967295, "scriptSig": {"hex": "483045022100f8e256cf839dc199f9a0e2c5b737db3f3a171c223c6233d55581227a518b1d340220051499fab4697acd8b03bb7a4dfc411b31415fbe090fd396178d34443ef22078012103740a8aa7eb016b3e58725c6d559d87b236b1ad054f44765423457f9661d3fda0", "asm": "3045022100f8e256cf839dc199f9a0e2c5b737db3f3a171c223c6233d55581227a518b1d340220051499fab4697acd8b03bb7a4dfc411b31415fbe090fd396178d34443ef22078[ALL] 03740a8aa7eb016b3e58725c6d559d87b236b1ad054f44765423457f9661d3fda0"}, "vout": 1, "txid": "d41e00d4974af703106ec5608e355f04252504fd90c3128200070bf8b088e0c0"}], "txid": "85b50dcb0837e06c35fa221cfcfba26a571611539a5bc37834a2cbf3151135f9", "blocktime": 1537875543, "version": 1, "confirmations": 11464, "time": 1537875543, "locktime": 0, "vsize": 226, "size": 226}