{"hash": "85c0cbe8e37b7be6646bd33aea80baceaed93d5e7b38395fdcfbdead799a6368", "blockhash": "0000000000000000001e0dab787dd257d1dbfcb92a98c2207d5e1078be1f4165", "vout": [{"scriptPubKey": {"reqSigs": 1, "hex": "76a9140cfbd87568fa8bdd860ec7d006d190606a5dcbf188ac", "addresses": ["12BeoqYY77bJGAM1GppjavVmKL7FRsvsv1"], "asm": "OP_DUP OP_HASH160 0cfbd87568fa8bdd860ec7d006d190606a5dcbf1 OP_EQUALVERIFY OP_CHECKSIG", "type": "pubkeyhash"}, "value": 0.00333394, "n": 0}, {"scriptPubKey": {"reqSigs": 1, "hex": "76a9148e6dc5100b7eec18de8865f1d3566b1c24d53cf988ac", "addresses": ["1Dz6TBJgevdeJR2yGZ58NtmrweUkY87eWW"], "asm": "OP_DUP OP_HASH160 8e6dc5100b7eec18de8865f1d3566b1c24d53cf9 OP_EQUALVERIFY OP_CHECKSIG", "type": "pubkeyhash"}, "value": 0.00226616, "n": 1}], "hex": "01000000018552e7322407688ed4afea36699614bc441e245a46dcd689dd22b8fa91e4b79d010000006a4730440220435e7b443a4f7f83f0e367c14638fe34c252597089304a81815a1e5dd230a90d0220512bb6536c9ba0737dcfdb5e8e63b8350c9e91c83f655060d623a5423647ce04012103d23b3a286b8d6e97b1bc591c275a249eef9d27b2a6acf008039d1add69a39e51ffffffff0252160500000000001976a9140cfbd87568fa8bdd860ec7d006d190606a5dcbf188ac38750300000000001976a9148e6dc5100b7eec18de8865f1d3566b1c24d53cf988ac00000000", "vin": [{"sequence": 4294967295, "scriptSig": {"hex": "4730440220435e7b443a4f7f83f0e367c14638fe34c252597089304a81815a1e5dd230a90d0220512bb6536c9ba0737dcfdb5e8e63b8350c9e91c83f655060d623a5423647ce04012103d23b3a286b8d6e97b1bc591c275a249eef9d27b2a6acf008039d1add69a39e51", "asm": "30440220435e7b443a4f7f83f0e367c14638fe34c252597089304a81815a1e5dd230a90d0220512bb6536c9ba0737dcfdb5e8e63b8350c9e91c83f655060d623a5423647ce04[ALL] 03d23b3a286b8d6e97b1bc591c275a249eef9d27b2a6acf008039d1add69a39e51"}, "vout": 1, "txid": "9db7e491fab822dd89d6dc465a241e44bc14966936eaafd48e68072432e75285"}], "txid": "85c0cbe8e37b7be6646bd33aea80baceaed93d5e7b38395fdcfbdead799a6368", "blocktime": 1537872475, "version": 1, "confirmations": 11486, "time": 1537872475, "locktime": 0, "vsize": 225, "size": 225}