{"hash": "85c3c86eb7d41b15daf8277edd1f70875337151748f64143fb13e6dd631e4df7", "blockhash": "0000000000000000001f76057863aec43deb6fa401d9628bb513d65a8098bfab", "vout": [{"scriptPubKey": {"reqSigs": 1, "hex": "76a914089fdcf5732e3b9916175c8fe171a8801af9d16d88ac", "addresses": ["1nbv26ofsAcSdckr18vydR6TKyp8fQtHj"], "asm": "OP_DUP OP_HASH160 089fdcf5732e3b9916175c8fe171a8801af9d16d OP_EQUALVERIFY OP_CHECKSIG", "type": "pubkeyhash"}, "value": 0.07096212, "n": 0}, {"scriptPubKey": {"reqSigs": 1, "hex": "76a9141facc36a18a3c1f8ee15dd62021bec2e366ea50f88ac", "addresses": ["13tUukj4nJ8DVZ9XNJKcUwpYqSg4iMYz3W"], "asm": "OP_DUP OP_HASH160 1facc36a18a3c1f8ee15dd62021bec2e366ea50f OP_EQUALVERIFY OP_CHECKSIG", "type": "pubkeyhash"}, "value": 0.0003, "n": 1}], "hex": "0200000001af001926082922a4c95376dc22ff7b66de7321d3832abe85c90dfc9c35709668010000006a473044022055fe44c0b2e46cdf62464e53456355f98aa0e6142f518272b1699fc2219d816c022069a43749d7b01c38bfc62242226a0fb2b6085e6b873b13dcfed775d2a805c65501210261d92566973466a67d2e70d0fa1f5930bfaa50a0f96dc7b4ed601913a6c97c8ffeffffff0294476c00000000001976a914089fdcf5732e3b9916175c8fe171a8801af9d16d88ac30750000000000001976a9141facc36a18a3c1f8ee15dd62021bec2e366ea50f88ac14490800", "vin": [{"sequence": 4294967294, "scriptSig": {"hex": "473044022055fe44c0b2e46cdf62464e53456355f98aa0e6142f518272b1699fc2219d816c022069a43749d7b01c38bfc62242226a0fb2b6085e6b873b13dcfed775d2a805c65501210261d92566973466a67d2e70d0fa1f5930bfaa50a0f96dc7b4ed601913a6c97c8f", "asm": "3044022055fe44c0b2e46cdf62464e53456355f98aa0e6142f518272b1699fc2219d816c022069a43749d7b01c38bfc62242226a0fb2b6085e6b873b13dcfed775d2a805c655[ALL] 0261d92566973466a67d2e70d0fa1f5930bfaa50a0f96dc7b4ed601913a6c97c8f"}, "vout": 1, "txid": "689670359cfc0dc985be2a83d32173de667bff22dc7653c9a4222908261900af"}], "txid": "85c3c86eb7d41b15daf8277edd1f70875337151748f64143fb13e6dd631e4df7", "blocktime": 1537873891, "version": 2, "confirmations": 11478, "time": 1537873891, "locktime": 542996, "vsize": 225, "size": 225}