{"hash": "85c584695b99a31cbc1fbfc0ab83a1dbd75d12b4fdc5c517bd5f222f70b80b6f", "blockhash": "000000000000000000022b45ed06c6f4ccd3cf7fb5ba4856ebd2e58215665228", "vout": [{"scriptPubKey": {"reqSigs": 1, "hex": "a91408224957377ddaf82b327706a9187ad496a71eea87", "addresses": ["32S2QLynVWPkN8zGFx3N5xLbnzqiPLXoYD"], "asm": "OP_HASH160 08224957377ddaf82b327706a9187ad496a71eea OP_EQUAL", "type": "scripthash"}, "value": 0.15, "n": 0}, {"scriptPubKey": {"reqSigs": 1, "hex": "76a914004aeb1de98de25846f0e9373582f2c857ce717688ac", "addresses": ["112YkRZSvACMQWFMb7N7QNV66bYUs7g7jd"], "asm": "OP_DUP OP_HASH160 004aeb1de98de25846f0e9373582f2c857ce7176 OP_EQUALVERIFY OP_CHECKSIG", "type": "pubkeyhash"}, "value": 0.11611867, "n": 1}], "hex": "01000000036a3623fde840bbb0d7e883526edb62b7f185bcbba0e007c9c5e2fb1092c9b1e5000000006a47304402201e95b60df970fb7bf6d7cb77fab134eb9a53c3a63b662e81410c9adef2a87a8202206e0fed5b4ba1c11b408fda52b63485101343fe778cd61843a747f1e618fdc798012103e9994e02197d32536a6055a5fa7208b0de8dcd14a0ee83ec05cf92ddecd0eb15ffffffff58ce55ca98a70c31c9e6b0db575ffe7c8ec298a8f5c74ec0b3624376ec7fb893000000006b483045022100d66896107d8702d563340d28f4bcd4b00b8838ccf04d798a9255acc818546dbd02201cacbea235a8df7c0407cc3532f2dca36391ce274141bb0bac7e4928f0dda32d01210301088c5cb4ec7e0fc8f93dccbb01058a5534d4d1439eaab56336397bc9766bbdffffffff0fbba6dc1df00ae1b398aca37ce4d6dcbcaec5d10edfc14f94523e67d8dba90e010000006b483045022100c0e81876004dd8446134b75b18ac34a26d419e636eadaf44dcbc00872eb184df02201865270ebcfcf18ed96452c6e0e84aa57f5a40653b300502a7135b95e568f550012103d7396e3a8d5371ef5829a0782a6627c76c5905777711394c0a50029a76108331ffffffff02c0e1e4000000000017a91408224957377ddaf82b327706a9187ad496a71eea87db2eb100000000001976a914004aeb1de98de25846f0e9373582f2c857ce717688ac00000000", "vin": [{"sequence": 4294967295, "scriptSig": {"hex": "47304402201e95b60df970fb7bf6d7cb77fab134eb9a53c3a63b662e81410c9adef2a87a8202206e0fed5b4ba1c11b408fda52b63485101343fe778cd61843a747f1e618fdc798012103e9994e02197d32536a6055a5fa7208b0de8dcd14a0ee83ec05cf92ddecd0eb15", "asm": "304402201e95b60df970fb7bf6d7cb77fab134eb9a53c3a63b662e81410c9adef2a87a8202206e0fed5b4ba1c11b408fda52b63485101343fe778cd61843a747f1e618fdc798[ALL] 03e9994e02197d32536a6055a5fa7208b0de8dcd14a0ee83ec05cf92ddecd0eb15"}, "vout": 0, "txid": "e5b1c99210fbe2c5c907e0a0bbbc85f1b762db6e5283e8d7b0bb40e8fd23366a"}, {"sequence": 4294967295, "scriptSig": {"hex": "483045022100d66896107d8702d563340d28f4bcd4b00b8838ccf04d798a9255acc818546dbd02201cacbea235a8df7c0407cc3532f2dca36391ce274141bb0bac7e4928f0dda32d01210301088c5cb4ec7e0fc8f93dccbb01058a5534d4d1439eaab56336397bc9766bbd", "asm": "3045022100d66896107d8702d563340d28f4bcd4b00b8838ccf04d798a9255acc818546dbd02201cacbea235a8df7c0407cc3532f2dca36391ce274141bb0bac7e4928f0dda32d[ALL] 0301088c5cb4ec7e0fc8f93dccbb01058a5534d4d1439eaab56336397bc9766bbd"}, "vout": 0, "txid": "93b87fec764362b3c04ec7f5a898c28e7cfe5f57dbb0e6c9310ca798ca55ce58"}, {"sequence": 4294967295, "scriptSig": {"hex": "483045022100c0e81876004dd8446134b75b18ac34a26d419e636eadaf44dcbc00872eb184df02201865270ebcfcf18ed96452c6e0e84aa57f5a40653b300502a7135b95e568f550012103d7396e3a8d5371ef5829a0782a6627c76c5905777711394c0a50029a76108331", "asm": "3045022100c0e81876004dd8446134b75b18ac34a26d419e636eadaf44dcbc00872eb184df02201865270ebcfcf18ed96452c6e0e84aa57f5a40653b300502a7135b95e568f550[ALL] 03d7396e3a8d5371ef5829a0782a6627c76c5905777711394c0a50029a76108331"}, "vout": 1, "txid": "0ea9dbd8673e52944fc1df0ed1c5aebcdcd6e47ca3ac98b3e10af01ddca6bb0f"}], "txid": "85c584695b99a31cbc1fbfc0ab83a1dbd75d12b4fdc5c517bd5f222f70b80b6f", "blocktime": 1537869901, "version": 1, "confirmations": 11522, "time": 1537869901, "locktime": 0, "vsize": 519, "size": 519}