{"hash": "85c6fe38e61e18dcd95e1996b00c2d13f52b5fae8b203b2afb00afb8f9a38921", "blockhash": "0000000000000000000e13cef7c366c0283d82e591d1acd082e914b08063cdf1", "vout": [{"scriptPubKey": {"reqSigs": 1, "hex": "76a914c22993ab54dedfaa7a3b72ed8dc2b510b2fb676088ac", "addresses": ["1Jhdu2Q6Wz6yEbFYHCsSdP1X5jHwVsCmLb"], "asm": "OP_DUP OP_HASH160 c22993ab54dedfaa7a3b72ed8dc2b510b2fb6760 OP_EQUALVERIFY OP_CHECKSIG", "type": "pubkeyhash"}, "value": 0.019, "n": 0}, {"scriptPubKey": {"reqSigs": 1, "hex": "76a91425c1ed89ee7a2e45f76e1cbb8f42dd7c2c0d473688ac", "addresses": ["14SeKSioRbFjAhRmVY6Bd8WetNSY8vHKq8"], "asm": "OP_DUP OP_HASH160 25c1ed89ee7a2e45f76e1cbb8f42dd7c2c0d4736 OP_EQUALVERIFY OP_CHECKSIG", "type": "pubkeyhash"}, "value": 0.32929754, "n": 1}], "hex": "0100000001733b97bd56a4c91595d19b024897f0e8ae278aca8ca88013eda5fc1fc95f8caf010000006a47304402205e5ae2a6fcdd9ab99f04c45006eaed3f8083702813ee45b90e249b42d3fd6a4802202542037544de36a0f34a9eb6c58f7650c2927c0b8f4381180a941cafa6b930130121036dc02cb3baa4a1fe95c17b877f8592f743891baa0ef529db3b0c18e0ae533b52ffffffff02e0fd1c00000000001976a914c22993ab54dedfaa7a3b72ed8dc2b510b2fb676088acda77f601000000001976a91425c1ed89ee7a2e45f76e1cbb8f42dd7c2c0d473688ac00000000", "vin": [{"sequence": 4294967295, "scriptSig": {"hex": "47304402205e5ae2a6fcdd9ab99f04c45006eaed3f8083702813ee45b90e249b42d3fd6a4802202542037544de36a0f34a9eb6c58f7650c2927c0b8f4381180a941cafa6b930130121036dc02cb3baa4a1fe95c17b877f8592f743891baa0ef529db3b0c18e0ae533b52", "asm": "304402205e5ae2a6fcdd9ab99f04c45006eaed3f8083702813ee45b90e249b42d3fd6a4802202542037544de36a0f34a9eb6c58f7650c2927c0b8f4381180a941cafa6b93013[ALL] 036dc02cb3baa4a1fe95c17b877f8592f743891baa0ef529db3b0c18e0ae533b52"}, "vout": 1, "txid": "af8c5fc91ffca5ed1380a88cca8a27aee8f09748029bd19515c9a456bd973b73"}], "txid": "85c6fe38e61e18dcd95e1996b00c2d13f52b5fae8b203b2afb00afb8f9a38921", "blocktime": 1537871767, "version": 1, "confirmations": 11495, "time": 1537871767, "locktime": 0, "vsize": 225, "size": 225}