{"hash": "85c91e57a4fc8f7a2490062c4340e28367c58ca7d3c3c6f19b11c9900bc5b491", "blockhash": "0000000000000000000dcc0f55137456b1a82d3642486a52398922ac4d620174", "vout": [{"scriptPubKey": {"reqSigs": 1, "hex": "76a914737b270afce1eba2544b5929773b0d0dde5ff36488ac", "addresses": ["1BXcEr8KBYi4oLunJRbQ3MGk3j9n7ij8tT"], "asm": "OP_DUP OP_HASH160 737b270afce1eba2544b5929773b0d0dde5ff364 OP_EQUALVERIFY OP_CHECKSIG", "type": "pubkeyhash"}, "value": 0.0002875, "n": 0}, {"scriptPubKey": {"type": "nulldata", "hex": "6a4c500000777400012aa17d2e0f5049a186e3222b86aeaeacb577c031fc3a016b46dc7dc7d096e02a39400554f6e38461c97c4f8427f65baa092c06144f1be050ace30117e706f8a4c9d02528a348b20ac714", "asm": "OP_RETURN 0000777400012aa17d2e0f5049a186e3222b86aeaeacb577c031fc3a016b46dc7dc7d096e02a39400554f6e38461c97c4f8427f65baa092c06144f1be050ace30117e706f8a4c9d02528a348b20ac714"}, "value": 0.0, "n": 1}], "hex": "0100000001f96f25156a0f7e7eb7e1def498322dc6ca0ba097f6e696cbf76f59978c86b355000000006a4730440220126b8a9f92c05ff146f504f40d8786b886de5b3665e95c2a7e395e2791ada2ff022013b92ef04978c39a902665f4a0a03a46be2fd3d3125ab3ce8e9f6dc7839ae207012102f1de2f6b1a1aaab48b2ec46f2a4d5876392b76c795264792590211119e209ecfffffffff024e700000000000001976a914737b270afce1eba2544b5929773b0d0dde5ff36488ac0000000000000000536a4c500000777400012aa17d2e0f5049a186e3222b86aeaeacb577c031fc3a016b46dc7dc7d096e02a39400554f6e38461c97c4f8427f65baa092c06144f1be050ace30117e706f8a4c9d02528a348b20ac71400000000", "vin": [{"sequence": 4294967295, "scriptSig": {"hex": "4730440220126b8a9f92c05ff146f504f40d8786b886de5b3665e95c2a7e395e2791ada2ff022013b92ef04978c39a902665f4a0a03a46be2fd3d3125ab3ce8e9f6dc7839ae207012102f1de2f6b1a1aaab48b2ec46f2a4d5876392b76c795264792590211119e209ecf", "asm": "30440220126b8a9f92c05ff146f504f40d8786b886de5b3665e95c2a7e395e2791ada2ff022013b92ef04978c39a902665f4a0a03a46be2fd3d3125ab3ce8e9f6dc7839ae207[ALL] 02f1de2f6b1a1aaab48b2ec46f2a4d5876392b76c795264792590211119e209ecf"}, "vout": 0, "txid": "55b3868c97596ff7cb96e6f697a00bcac62d3298f4dee1b77e7e0f6a15256ff9"}], "txid": "85c91e57a4fc8f7a2490062c4340e28367c58ca7d3c3c6f19b11c9900bc5b491", "blocktime": 1537870268, "version": 1, "confirmations": 11517, "time": 1537870268, "locktime": 0, "vsize": 283, "size": 283}