{"hash": "85c97bca210cba02530dd5f0a1bfd5711e3fd6892f9414974f776d02e9b09737", "blockhash": "0000000000000000001e0dab787dd257d1dbfcb92a98c2207d5e1078be1f4165", "vout": [{"scriptPubKey": {"reqSigs": 1, "hex": "a914076851e53317ed910aa43f69845ef395384c339b87", "addresses": ["32NBdAGJJVn6mPeWhvyxBLvRWHD5gPrUzD"], "asm": "OP_HASH160 076851e53317ed910aa43f69845ef395384c339b OP_EQUAL", "type": "scripthash"}, "value": 0.03199531, "n": 0}], "hex": "010000000197326b4c74a559595a5685f16a528a1190f9fea39bc98447dc0cff34a2af83dc1a0000006b483045022100b2399ba36e3286931a1d59c09baee0a6d2b3ccc24467b46788cfcb479f5b7c0c022031a5e5dcb860c2cbf1e1e7bf111d7bde6bdc4d8f190e18ddc828b69744415b6d012103fda5dae72394d06706a61630311190d060848992248fb4c2eb776a4aec09ce20ffffffff012bd230000000000017a914076851e53317ed910aa43f69845ef395384c339b8700000000", "vin": [{"sequence": 4294967295, "scriptSig": {"hex": "483045022100b2399ba36e3286931a1d59c09baee0a6d2b3ccc24467b46788cfcb479f5b7c0c022031a5e5dcb860c2cbf1e1e7bf111d7bde6bdc4d8f190e18ddc828b69744415b6d012103fda5dae72394d06706a61630311190d060848992248fb4c2eb776a4aec09ce20", "asm": "3045022100b2399ba36e3286931a1d59c09baee0a6d2b3ccc24467b46788cfcb479f5b7c0c022031a5e5dcb860c2cbf1e1e7bf111d7bde6bdc4d8f190e18ddc828b69744415b6d[ALL] 03fda5dae72394d06706a61630311190d060848992248fb4c2eb776a4aec09ce20"}, "vout": 26, "txid": "dc83afa234ff0cdc4784c99ba3fef990118a526af185565a5959a5744c6b3297"}], "txid": "85c97bca210cba02530dd5f0a1bfd5711e3fd6892f9414974f776d02e9b09737", "blocktime": 1537872475, "version": 1, "confirmations": 11487, "time": 1537872475, "locktime": 0, "vsize": 190, "size": 190}