{"hash": "85cafb9b002ef38e871e5f011969998ebfaed01b9d6e4c7d43fe3d9e0620fe46", "blockhash": "0000000000000000001cda96e906b7601b7a6fb1a3b62bca570a9e5d8f4b3de1", "vout": [{"scriptPubKey": {"reqSigs": 1, "hex": "76a914dd8ddf56f7b416ec0574eeee4c9ee240e511b94688ac", "addresses": ["1MCUHs4aCAxboLwCHVzS5GqYXW4Ja3UpGs"], "asm": "OP_DUP OP_HASH160 dd8ddf56f7b416ec0574eeee4c9ee240e511b946 OP_EQUALVERIFY OP_CHECKSIG", "type": "pubkeyhash"}, "value": 0.0019777, "n": 0}, {"scriptPubKey": {"reqSigs": 1, "hex": "76a9148ba6f43024f69f6d64f2161d924c3547196eab3488ac", "addresses": ["1DjQvpg5AQYwPhMmdK6aE3cWag4r8u7tDs"], "asm": "OP_DUP OP_HASH160 8ba6f43024f69f6d64f2161d924c3547196eab34 OP_EQUALVERIFY OP_CHECKSIG", "type": "pubkeyhash"}, "value": 0.00615263, "n": 1}], "hex": "0100000001e99885b782abbd1351af817367d5a4982f309e8c853e4f3eb0e36c8a821c524d010000006a473044022070101bfb8fc2a80e4860ffd3ddd5a33c6f91ab1a383a5b5e80af32344c6fb52e022017271a3aa8d8353a1a145feb2a859f6223e215e5953dc9ddacc4a9fd76d71076012103fa1179c4783491fdab1425bfa7f923374483df5aa651b93dc0cae33c5f8159a8ffffffff028a040300000000001976a914dd8ddf56f7b416ec0574eeee4c9ee240e511b94688ac5f630900000000001976a9148ba6f43024f69f6d64f2161d924c3547196eab3488ac00000000", "vin": [{"sequence": 4294967295, "scriptSig": {"hex": "473044022070101bfb8fc2a80e4860ffd3ddd5a33c6f91ab1a383a5b5e80af32344c6fb52e022017271a3aa8d8353a1a145feb2a859f6223e215e5953dc9ddacc4a9fd76d71076012103fa1179c4783491fdab1425bfa7f923374483df5aa651b93dc0cae33c5f8159a8", "asm": "3044022070101bfb8fc2a80e4860ffd3ddd5a33c6f91ab1a383a5b5e80af32344c6fb52e022017271a3aa8d8353a1a145feb2a859f6223e215e5953dc9ddacc4a9fd76d71076[ALL] 03fa1179c4783491fdab1425bfa7f923374483df5aa651b93dc0cae33c5f8159a8"}, "vout": 1, "txid": "4d521c828a6ce3b03e4f3e858c9e302f98a4d5677381af5113bdab82b78598e9"}], "txid": "85cafb9b002ef38e871e5f011969998ebfaed01b9d6e4c7d43fe3d9e0620fe46", "blocktime": 1537873282, "version": 1, "confirmations": 11482, "time": 1537873282, "locktime": 0, "vsize": 225, "size": 225}