{"hash": "85cbab23d1ba9e71cce1f17f1fb0e3b591b652ea3caec58e1459d8e95f36cf1a", "blockhash": "0000000000000000000e13cef7c366c0283d82e591d1acd082e914b08063cdf1", "vout": [{"scriptPubKey": {"type": "nulldata", "hex": "6a146f6d6e69000000000000001f00000100fa347592", "asm": "OP_RETURN 6f6d6e69000000000000001f00000100fa347592"}, "value": 0.0, "n": 0}, {"scriptPubKey": {"reqSigs": 1, "hex": "76a914a25dec4d0011064ef106a983c39c7a540699f22088ac", "addresses": ["1FoWyxwPXuj4C6abqwhjDWdz6D4PZgYRjA"], "asm": "OP_DUP OP_HASH160 a25dec4d0011064ef106a983c39c7a540699f220 OP_EQUALVERIFY OP_CHECKSIG", "type": "pubkeyhash"}, "value": 5.46e-06, "n": 1}, {"scriptPubKey": {"reqSigs": 1, "hex": "76a914dd50fc98f52a7c300e10d4b3aeb4ef4bb726fedd88ac", "addresses": ["1MBDMT5phq137nCyVyJZzo9qUTWJL2K12q"], "asm": "OP_DUP OP_HASH160 dd50fc98f52a7c300e10d4b3aeb4ef4bb726fedd OP_EQUALVERIFY OP_CHECKSIG", "type": "pubkeyhash"}, "value": 0.00499387, "n": 2}], "hex": "0100000002cb1b112d9ee1da83dc99568099613de03af83fcf26518a07b2e2639d9cd055c7000000006a4730440220415b8106a2b1c1fa63a2e9842ad40ff80f8174d6193c3fc46a03ad887996e6b80220610eaf2116f25707f9b2caddd39e323ab0cd2fac3c094d9beff57779efe613b30121031d9938254809030e0622dbc5ee0c4731d14298b66c453b30333de5312c3f8ddbfeffffff627c3169edcfef5303e14a204edf7ad1152c13269139a4a6414ac314e8a38bf5020000006b483045022100d9db1f4e0ccbbb408cc50b26ce6e01a5fd0e572ee5e722ce127ca2179872ca020220518d4be5eef0265e1fe80060f1f5f058df69f8307758bde69e2c28c6ec8bb5ab0121031d9938254809030e0622dbc5ee0c4731d14298b66c453b30333de5312c3f8ddbfeffffff030000000000000000166a146f6d6e69000000000000001f00000100fa34759222020000000000001976a914a25dec4d0011064ef106a983c39c7a540699f22088acbb9e0700000000001976a914dd50fc98f52a7c300e10d4b3aeb4ef4bb726fedd88ac00490800", "vin": [{"sequence": 4294967294, "scriptSig": {"hex": "4730440220415b8106a2b1c1fa63a2e9842ad40ff80f8174d6193c3fc46a03ad887996e6b80220610eaf2116f25707f9b2caddd39e323ab0cd2fac3c094d9beff57779efe613b30121031d9938254809030e0622dbc5ee0c4731d14298b66c453b30333de5312c3f8ddb", "asm": "30440220415b8106a2b1c1fa63a2e9842ad40ff80f8174d6193c3fc46a03ad887996e6b80220610eaf2116f25707f9b2caddd39e323ab0cd2fac3c094d9beff57779efe613b3[ALL] 031d9938254809030e0622dbc5ee0c4731d14298b66c453b30333de5312c3f8ddb"}, "vout": 0, "txid": "c755d09c9d63e2b2078a5126cf3ff83ae03d6199805699dc83dae19e2d111bcb"}, {"sequence": 4294967294, "scriptSig": {"hex": "483045022100d9db1f4e0ccbbb408cc50b26ce6e01a5fd0e572ee5e722ce127ca2179872ca020220518d4be5eef0265e1fe80060f1f5f058df69f8307758bde69e2c28c6ec8bb5ab0121031d9938254809030e0622dbc5ee0c4731d14298b66c453b30333de5312c3f8ddb", "asm": "3045022100d9db1f4e0ccbbb408cc50b26ce6e01a5fd0e572ee5e722ce127ca2179872ca020220518d4be5eef0265e1fe80060f1f5f058df69f8307758bde69e2c28c6ec8bb5ab[ALL] 031d9938254809030e0622dbc5ee0c4731d14298b66c453b30333de5312c3f8ddb"}, "vout": 2, "txid": "f58ba3e814c34a41a6a4399126132c15d17adf4e204ae10353efcfed69317c62"}], "txid": "85cbab23d1ba9e71cce1f17f1fb0e3b591b652ea3caec58e1459d8e95f36cf1a", "blocktime": 1537871767, "version": 1, "confirmations": 11495, "time": 1537871767, "locktime": 542976, "vsize": 404, "size": 404}