{"hash": "461ae945d8e47f09ef78a5a3de01dd9967878a8446449a10dfb1d7f65877ed2d", "blockhash": "0000000000000000000dcc0f55137456b1a82d3642486a52398922ac4d620174", "vout": [{"scriptPubKey": {"reqSigs": 1, "hex": "a9141ab6e7ae245312587774836a697443d86207a11e87", "addresses": ["348Gbzajr6ubWjW5uH3H4LdDgFRbYAmFfG"], "asm": "OP_HASH160 1ab6e7ae245312587774836a697443d86207a11e OP_EQUAL", "type": "scripthash"}, "value": 0.405908, "n": 0}, {"scriptPubKey": {"reqSigs": 1, "hex": "a91446f33870f62f2269c544af23a96ef926155f45fa87", "addresses": ["38AAbE6j7hZc4GqQnrKRUmjN8D1gFZycUg"], "asm": "OP_HASH160 46f33870f62f2269c544af23a96ef926155f45fa OP_EQUAL", "type": "scripthash"}, "value": 0.102628, "n": 1}], "hex": "01000000000103cf1b87e5937bf41deeb79c2254c6e76800959ca49cedf2054e8eda65c10d20f100000000232200208908e69107847a65d61eb0e0d669b8807147b88f99db5e083bd33f4c8a34ec7fffffffff629108fc385df14ce09226698435afbec67da631a26abe1c6b9d57946b864b5a01000000232200203368abc114ccdd7b817c933657b7c21b253e1292df7ec8cdaf1516e08d5f67b4ffffffff6d44ca4d8169b53a67b5fd505325a69011e070690935a25db4161600239dbb1a0000000023220020174f541dcb1ccb87efa7522614be5a7d01b8e6c83c757a1438fd80c518482ca8ffffffff02d05d6b020000000017a9141ab6e7ae245312587774836a697443d86207a11e8710999c000000000017a91446f33870f62f2269c544af23a96ef926155f45fa87040048304502210096ab38266b93b0a43cb0b1a707bfaa558a57aae16fa9116941c92eaa1fa818f90220325fd1b65364c40e4094e675b447627a40a63301f0a517f52bd76c16fdddf97a0147304402207b461e9e8fdd1b72295564eaf13e564f2a34c2b272222f930e807fc0180b5b810220483730c84bfc01aa3c314532fa906027899efeb912a03023f6af5440958a5bac0169522102ba66c670408ea061a4450045358db632fb1ced4d84caf833b59adedf03d56e6221026360c5f7c8f4a1bfd33f4a091ed9a69d838b4fc7cd942f6d0084779b1e6739c02103126f73b43aa695ab73612fd228aef0c5c1389f1b4dda1e6e5a8aa25f2638707353ae0400483045022100ded27d4aaee9413949bc7a87be8940ea421d5c6673c7167a5912e78eb1fe477f02201ee1c3bce047088b5ccafb28fc716dc92ab314b363b140c8d8a52bbb8ad54d9d01483045022100e3f3eaf4000a82bc896bbc6efbd889b8bfbd41701eee7561ac9ff2b0c2b84e1a022063a0937637cee245a7ae21cb28f9b981c3dc793d5e1dcb7cf64be7089c3381910169522103b0b59560ba7d7780d7953641d10787bb2c7d9815a50ae3ec465dd79fe9fcc670210278c385760fc5ef51ed2c4d9f7d39e34f5f20438cfdb39cb26da1640caf3d718e21021464ca08b1820776034410f27baf24e414770e72eb745c37243bc7d7417bb03a53ae04004730440220208c51a72fd396aa221303d236186ad96fedd6a57a70dbf09f6e5b8b4545088202205bfe2cd5a0bb74aa6c4f72ef4fb4fa16bb12a240999ac915185f9cce69ef2ca60147304402201b7e7f00e53bec4655e170c1f8d5ca6aa46100c34c2796f28dac1c8647138fde02206efeadd9127d1b9752ce2cd2f1691c4d1ed14082d459b4d2ce405f46c84bd10e01695221035d495ea8fca39fe16a9c756215c43fe7a0eb52d4b3ad3ada7c85747457fffbd52103127f50d466b7c126457dddaeb6ed84b70b76fe2f2d5298a9b48de0b78fae476a21038f6010b2fdb09a1f11c2e8ce275aec2ac5a2fd3d8eaffa04d4779bf16de7f60b53ae00000000", "vin": [{"txinwitness": ["", "304502210096ab38266b93b0a43cb0b1a707bfaa558a57aae16fa9116941c92eaa1fa818f90220325fd1b65364c40e4094e675b447627a40a63301f0a517f52bd76c16fdddf97a01", "304402207b461e9e8fdd1b72295564eaf13e564f2a34c2b272222f930e807fc0180b5b810220483730c84bfc01aa3c314532fa906027899efeb912a03023f6af5440958a5bac01", "522102ba66c670408ea061a4450045358db632fb1ced4d84caf833b59adedf03d56e6221026360c5f7c8f4a1bfd33f4a091ed9a69d838b4fc7cd942f6d0084779b1e6739c02103126f73b43aa695ab73612fd228aef0c5c1389f1b4dda1e6e5a8aa25f2638707353ae"], "sequence": 4294967295, "scriptSig": {"hex": "2200208908e69107847a65d61eb0e0d669b8807147b88f99db5e083bd33f4c8a34ec7f", "asm": "00208908e69107847a65d61eb0e0d669b8807147b88f99db5e083bd33f4c8a34ec7f"}, "vout": 0, "txid": "f1200dc165da8e4e05f2ed9ca49c950068e7c654229cb7ee1df47b93e5871bcf"}, {"txinwitness": ["", "3045022100ded27d4aaee9413949bc7a87be8940ea421d5c6673c7167a5912e78eb1fe477f02201ee1c3bce047088b5ccafb28fc716dc92ab314b363b140c8d8a52bbb8ad54d9d01", "3045022100e3f3eaf4000a82bc896bbc6efbd889b8bfbd41701eee7561ac9ff2b0c2b84e1a022063a0937637cee245a7ae21cb28f9b981c3dc793d5e1dcb7cf64be7089c33819101", "522103b0b59560ba7d7780d7953641d10787bb2c7d9815a50ae3ec465dd79fe9fcc670210278c385760fc5ef51ed2c4d9f7d39e34f5f20438cfdb39cb26da1640caf3d718e21021464ca08b1820776034410f27baf24e414770e72eb745c37243bc7d7417bb03a53ae"], "sequence": 4294967295, "scriptSig": {"hex": "2200203368abc114ccdd7b817c933657b7c21b253e1292df7ec8cdaf1516e08d5f67b4", "asm": "00203368abc114ccdd7b817c933657b7c21b253e1292df7ec8cdaf1516e08d5f67b4"}, "vout": 1, "txid": "5a4b866b94579d6b1cbe6aa231a67dc6beaf3584692692e04cf15d38fc089162"}, {"txinwitness": ["", "30440220208c51a72fd396aa221303d236186ad96fedd6a57a70dbf09f6e5b8b4545088202205bfe2cd5a0bb74aa6c4f72ef4fb4fa16bb12a240999ac915185f9cce69ef2ca601", "304402201b7e7f00e53bec4655e170c1f8d5ca6aa46100c34c2796f28dac1c8647138fde02206efeadd9127d1b9752ce2cd2f1691c4d1ed14082d459b4d2ce405f46c84bd10e01", "5221035d495ea8fca39fe16a9c756215c43fe7a0eb52d4b3ad3ada7c85747457fffbd52103127f50d466b7c126457dddaeb6ed84b70b76fe2f2d5298a9b48de0b78fae476a21038f6010b2fdb09a1f11c2e8ce275aec2ac5a2fd3d8eaffa04d4779bf16de7f60b53ae"], "sequence": 4294967295, "scriptSig": {"hex": "220020174f541dcb1ccb87efa7522614be5a7d01b8e6c83c757a1438fd80c518482ca8", "asm": "0020174f541dcb1ccb87efa7522614be5a7d01b8e6c83c757a1438fd80c518482ca8"}, "vout": 0, "txid": "1abb9d23001616b45da235096970e01190a6255350fdb5673ab569814dca446d"}], "txid": "85cd0093fe35511ab855d508355c12b25826c069081c79a2eeaa158f4a13000e", "blocktime": 1537870268, "version": 1, "confirmations": 11518, "time": 1537870268, "locktime": 0, "vsize": 493, "size": 1063}