{"hash": "85cfa4550d8a2f11f22490f7ea35d72178ed5da7860cb23e2e31b623e2cdc82b", "blockhash": "0000000000000000000baef3f32e3676a92c3b2e5da21b426e4f302fc371ce76", "vout": [{"scriptPubKey": {"reqSigs": 1, "hex": "76a914b553c080ecd27ca3bc5633cf53ad9bd52803b46e88ac", "addresses": ["1HXmdunGJMfWSg3HHnTRQjjJRsxpqyoCeq"], "asm": "OP_DUP OP_HASH160 b553c080ecd27ca3bc5633cf53ad9bd52803b46e OP_EQUALVERIFY OP_CHECKSIG", "type": "pubkeyhash"}, "value": 0.0011272, "n": 0}, {"scriptPubKey": {"type": "nulldata", "hex": "6a4c5000007824000162b613240aa35eef2c67b99f019d6ddc0f1b8ff117702940d64fa54d8eb2217dc4a4bc545d7f596347ecf581bbe05baa1e010613f1c9edb6d2e7bc9a9526289ac0f6612cd74e33776ee4", "asm": "OP_RETURN 00007824000162b613240aa35eef2c67b99f019d6ddc0f1b8ff117702940d64fa54d8eb2217dc4a4bc545d7f596347ecf581bbe05baa1e010613f1c9edb6d2e7bc9a9526289ac0f6612cd74e33776ee4"}, "value": 0.0, "n": 1}], "hex": "0100000001537f34cb9bf83e85a20bc57fcf9e592b3bda1e709d561d5184d5e3fb609ec369000000006b483045022100d12902ef583438b7d992907bf0714c49adcc7893c68fdf937d8251c870ef39c2022073f826ee146fd36efc7d2f02aab31b72e1ed558a6b304607b9c8382e1cbd25a7012102d75ba5f8f010d79705fedf57eb64ddbed79e3d51595cff932149d4c9f978d61fffffffff0250b80100000000001976a914b553c080ecd27ca3bc5633cf53ad9bd52803b46e88ac0000000000000000536a4c5000007824000162b613240aa35eef2c67b99f019d6ddc0f1b8ff117702940d64fa54d8eb2217dc4a4bc545d7f596347ecf581bbe05baa1e010613f1c9edb6d2e7bc9a9526289ac0f6612cd74e33776ee400000000", "vin": [{"sequence": 4294967295, "scriptSig": {"hex": "483045022100d12902ef583438b7d992907bf0714c49adcc7893c68fdf937d8251c870ef39c2022073f826ee146fd36efc7d2f02aab31b72e1ed558a6b304607b9c8382e1cbd25a7012102d75ba5f8f010d79705fedf57eb64ddbed79e3d51595cff932149d4c9f978d61f", "asm": "3045022100d12902ef583438b7d992907bf0714c49adcc7893c68fdf937d8251c870ef39c2022073f826ee146fd36efc7d2f02aab31b72e1ed558a6b304607b9c8382e1cbd25a7[ALL] 02d75ba5f8f010d79705fedf57eb64ddbed79e3d51595cff932149d4c9f978d61f"}, "vout": 0, "txid": "69c39e60fbe3d584511d569d701eda3b2b599ecf7fc50ba2853ef89bcb347f53"}], "txid": "85cfa4550d8a2f11f22490f7ea35d72178ed5da7860cb23e2e31b623e2cdc82b", "blocktime": 1537876114, "version": 1, "confirmations": 11461, "time": 1537876114, "locktime": 0, "vsize": 284, "size": 284}