{"hash": "85d195e224e8208a8a5fda976fa146a8bf5c5a785156c6317cd7ba2ab03896d2", "blockhash": "000000000000000000022b45ed06c6f4ccd3cf7fb5ba4856ebd2e58215665228", "vout": [{"scriptPubKey": {"reqSigs": 1, "hex": "a914b31e61755d37b88077eaae7c8446adde174618f887", "addresses": ["3J27GmZyMqmKMRUTDyhpVLYqnsEfHL9Cq1"], "asm": "OP_HASH160 b31e61755d37b88077eaae7c8446adde174618f8 OP_EQUAL", "type": "scripthash"}, "value": 0.00389775, "n": 0}, {"scriptPubKey": {"reqSigs": 1, "hex": "76a914de104dfdbe96aa8526a0d97d5bbd5b92d20658d488ac", "addresses": ["1MFAYTJcDzyZv5rRtX35a63tUaR6tNgShD"], "asm": "OP_DUP OP_HASH160 de104dfdbe96aa8526a0d97d5bbd5b92d20658d4 OP_EQUALVERIFY OP_CHECKSIG", "type": "pubkeyhash"}, "value": 0.00818074, "n": 1}], "hex": "010000000179a80862737d6a3343ae536bf8cc7509b315f733afa19630c8fb20f190519db2030000006a473044022051043c597eac4f80a2d6fab7d6638819dcf6ceb478fb66e166679480f42d3ba602200d82e64ff1ac7477dbf47492857d6d20fabe70952f04fd893cf86cfcb26a3f20012102b80ace8cbc516b098d0fb03ff26d1f92034bc3b7b7a38cc6f3e85d13b37f5a43ffffffff028ff205000000000017a914b31e61755d37b88077eaae7c8446adde174618f8879a7b0c00000000001976a914de104dfdbe96aa8526a0d97d5bbd5b92d20658d488ac00000000", "vin": [{"sequence": 4294967295, "scriptSig": {"hex": "473044022051043c597eac4f80a2d6fab7d6638819dcf6ceb478fb66e166679480f42d3ba602200d82e64ff1ac7477dbf47492857d6d20fabe70952f04fd893cf86cfcb26a3f20012102b80ace8cbc516b098d0fb03ff26d1f92034bc3b7b7a38cc6f3e85d13b37f5a43", "asm": "3044022051043c597eac4f80a2d6fab7d6638819dcf6ceb478fb66e166679480f42d3ba602200d82e64ff1ac7477dbf47492857d6d20fabe70952f04fd893cf86cfcb26a3f20[ALL] 02b80ace8cbc516b098d0fb03ff26d1f92034bc3b7b7a38cc6f3e85d13b37f5a43"}, "vout": 3, "txid": "b29d5190f120fbc83096a1af33f715b30975ccf86b53ae43336a7d736208a879"}], "txid": "85d195e224e8208a8a5fda976fa146a8bf5c5a785156c6317cd7ba2ab03896d2", "blocktime": 1537869901, "version": 1, "confirmations": 11523, "time": 1537869901, "locktime": 0, "vsize": 223, "size": 223}