{"hash": "372f1b192640758369dbecd61f495370c453b83ebae4aec3e43d37c57d4fdd3e", "blockhash": "0000000000000000001f0ddff1eddb255c1121bcd4da4f1bc9a0da00cae72433", "vout": [{"scriptPubKey": {"reqSigs": 1, "hex": "a91427af11d4858b9dedd5ffcb683f48e8213dc7785887", "addresses": ["35Jr15TKu76Xhh5YCeqqomyNUECGpMcvbQ"], "asm": "OP_HASH160 27af11d4858b9dedd5ffcb683f48e8213dc77858 OP_EQUAL", "type": "scripthash"}, "value": 0.01187117, "n": 0}, {"scriptPubKey": {"reqSigs": 1, "hex": "a914fe78018768d7d29d61c89f2ed1de4704ef7a1c1c87", "addresses": ["3QtXKRtBHULrj7beviXLZyK7HJ4GFTpir8"], "asm": "OP_HASH160 fe78018768d7d29d61c89f2ed1de4704ef7a1c1c OP_EQUAL", "type": "scripthash"}, "value": 0.015213, "n": 1}], "hex": "020000000001019d2b110e47d24d8d5c3f559866d83ea080ec3e74358aaf7d639a5351e98a77c70000000017160014a635b32d52493868e5ba5a4dd23389a5be840993fdffffff022d1d12000000000017a91427af11d4858b9dedd5ffcb683f48e8213dc7785887943617000000000017a914fe78018768d7d29d61c89f2ed1de4704ef7a1c1c8702483045022100f4f605aa1b11c88d564c70f507f8777902127c03f92f1c794abd6bd82f827336022068361ff5ffd236977d06cbb384053494abd47ab5de8e23a16feda38642d5dd69012103e723d50b0adf1d1d7a1d00b59d6b842b4d3f26e9dedc606a597bc759d549578300000000", "vin": [{"txinwitness": ["3045022100f4f605aa1b11c88d564c70f507f8777902127c03f92f1c794abd6bd82f827336022068361ff5ffd236977d06cbb384053494abd47ab5de8e23a16feda38642d5dd6901", "03e723d50b0adf1d1d7a1d00b59d6b842b4d3f26e9dedc606a597bc759d5495783"], "sequence": 4294967293, "scriptSig": {"hex": "160014a635b32d52493868e5ba5a4dd23389a5be840993", "asm": "0014a635b32d52493868e5ba5a4dd23389a5be840993"}, "vout": 0, "txid": "c7778ae951539a637daf8a35743eec80a03ed86698553f5c8d4dd2470e112b9d"}], "txid": "85dccc79c6f9ebfa2951a8b89420953af2b858833466c74a9ea8176c49f8d6c8", "blocktime": 1537872018, "version": 2, "confirmations": 11489, "time": 1537872018, "locktime": 0, "vsize": 166, "size": 248}