{"hash": "85e77cd4d09bccb40799445248a5971df7b71fd212d4caa4fc71ca7889e3fd90", "blockhash": "0000000000000000000e13cef7c366c0283d82e591d1acd082e914b08063cdf1", "vout": [{"scriptPubKey": {"reqSigs": 1, "hex": "76a91400b7809f816688092e667882d8e52aff916b97ac88ac", "addresses": ["114npyQv8c3hAaEDS1Un3mSdMtRJFB2oCD"], "asm": "OP_DUP OP_HASH160 00b7809f816688092e667882d8e52aff916b97ac OP_EQUALVERIFY OP_CHECKSIG", "type": "pubkeyhash"}, "value": 0.00267595, "n": 0}, {"scriptPubKey": {"reqSigs": 1, "hex": "a914fb65c656c682e554c0b4d38598eac2b0a32dd47c87", "addresses": ["3QcHT8MUwgx9b5Tvz7gvSoiBNHxTb8cFFk"], "asm": "OP_HASH160 fb65c656c682e554c0b4d38598eac2b0a32dd47c OP_EQUAL", "type": "scripthash"}, "value": 0.01719633, "n": 1}], "hex": "0100000001e06f01d44dfe9685df66b1369d40cb5da1dd1e7224d45d589b4315fbc9df0aed060000006a4730440220395b7ecb1a46ff9177d936c8c8a36684dc1b728978fec6dd7c3474d8ab6070f8022063408016349629273b0f5dc91b94e4604606c0c5ab543b622e9fd65366c76da101210216cf7074d548b73c20a89ea1deefd0fd14f2e68af8956541f8f36b58af95775fffffffff024b150400000000001976a91400b7809f816688092e667882d8e52aff916b97ac88ac513d1a000000000017a914fb65c656c682e554c0b4d38598eac2b0a32dd47c8700000000", "vin": [{"sequence": 4294967295, "scriptSig": {"hex": "4730440220395b7ecb1a46ff9177d936c8c8a36684dc1b728978fec6dd7c3474d8ab6070f8022063408016349629273b0f5dc91b94e4604606c0c5ab543b622e9fd65366c76da101210216cf7074d548b73c20a89ea1deefd0fd14f2e68af8956541f8f36b58af95775f", "asm": "30440220395b7ecb1a46ff9177d936c8c8a36684dc1b728978fec6dd7c3474d8ab6070f8022063408016349629273b0f5dc91b94e4604606c0c5ab543b622e9fd65366c76da1[ALL] 0216cf7074d548b73c20a89ea1deefd0fd14f2e68af8956541f8f36b58af95775f"}, "vout": 6, "txid": "ed0adfc9fb15439b585dd424721edda15dcb409d36b166df8596fe4dd4016fe0"}], "txid": "85e77cd4d09bccb40799445248a5971df7b71fd212d4caa4fc71ca7889e3fd90", "blocktime": 1537871767, "version": 1, "confirmations": 11493, "time": 1537871767, "locktime": 0, "vsize": 223, "size": 223}