{"hash": "85eaed32cc6fd1b44f15b3317b814da6e313ee45976394253798a816b3ecf691", "blockhash": "000000000000000000022b45ed06c6f4ccd3cf7fb5ba4856ebd2e58215665228", "vout": [{"scriptPubKey": {"reqSigs": 1, "hex": "76a9149c60942be48c9faa3708c09a0bff6925b516bfc388ac", "addresses": ["1FFr7LbWqihr1ESkZZwEuoFg3wmmr3TXzN"], "asm": "OP_DUP OP_HASH160 9c60942be48c9faa3708c09a0bff6925b516bfc3 OP_EQUALVERIFY OP_CHECKSIG", "type": "pubkeyhash"}, "value": 0.02336041, "n": 0}, {"scriptPubKey": {"reqSigs": 1, "hex": "76a914465445631134f9b45205038962044c8b00c0ca7c88ac", "addresses": ["17QsFgc58z4uPEYAL8iWZWV4cpLcvBQHtZ"], "asm": "OP_DUP OP_HASH160 465445631134f9b45205038962044c8b00c0ca7c OP_EQUALVERIFY OP_CHECKSIG", "type": "pubkeyhash"}, "value": 0.13265049, "n": 1}], "hex": "0100000001bf61646006a1d24f8372bf8ff0b806bfb4a08db8b9b24c24de7bb1b93c5cd3f1000000006b483045022100b515a939d79983d56b0b5d7d1da570edcad3758e71b352255bc0e0e3679dc81b02206d19e6c34f96d95acca62396d883e9c1da8f5ff235d88e2105bba21b41b4aad601210368317b7f8b11eb2ebdb5e9777d499d1f7866902d494211812b7563076c93ff8bffffffff0229a52300000000001976a9149c60942be48c9faa3708c09a0bff6925b516bfc388ac9968ca00000000001976a914465445631134f9b45205038962044c8b00c0ca7c88ac00000000", "vin": [{"sequence": 4294967295, "scriptSig": {"hex": "483045022100b515a939d79983d56b0b5d7d1da570edcad3758e71b352255bc0e0e3679dc81b02206d19e6c34f96d95acca62396d883e9c1da8f5ff235d88e2105bba21b41b4aad601210368317b7f8b11eb2ebdb5e9777d499d1f7866902d494211812b7563076c93ff8b", "asm": "3045022100b515a939d79983d56b0b5d7d1da570edcad3758e71b352255bc0e0e3679dc81b02206d19e6c34f96d95acca62396d883e9c1da8f5ff235d88e2105bba21b41b4aad6[ALL] 0368317b7f8b11eb2ebdb5e9777d499d1f7866902d494211812b7563076c93ff8b"}, "vout": 0, "txid": "f1d35c3cb9b17bde244cb2b9b88da0b4bf06b8f08fbf72834fd2a106606461bf"}], "txid": "85eaed32cc6fd1b44f15b3317b814da6e313ee45976394253798a816b3ecf691", "blocktime": 1537869901, "version": 1, "confirmations": 11524, "time": 1537869901, "locktime": 0, "vsize": 226, "size": 226}