{"hash": "85ef6323ab713ce5d1317307887c9147f762b2b4af19cd015f7d3ff4f316b78d", "blockhash": "0000000000000000000dcc0f55137456b1a82d3642486a52398922ac4d620174", "vout": [{"scriptPubKey": {"type": "nulldata", "hex": "6a146f6d6e69000000000000001f000000e8d4a51000", "asm": "OP_RETURN 6f6d6e69000000000000001f000000e8d4a51000"}, "value": 0.0, "n": 0}, {"scriptPubKey": {"reqSigs": 1, "hex": "76a914a25dec4d0011064ef106a983c39c7a540699f22088ac", "addresses": ["1FoWyxwPXuj4C6abqwhjDWdz6D4PZgYRjA"], "asm": "OP_DUP OP_HASH160 a25dec4d0011064ef106a983c39c7a540699f220 OP_EQUALVERIFY OP_CHECKSIG", "type": "pubkeyhash"}, "value": 0.01990392, "n": 1}, {"scriptPubKey": {"reqSigs": 1, "hex": "76a91474b47b121b88a45189e20710d5610c2b8b567d1f88ac", "addresses": ["1Be5bGusFvLheZrPiA4LFvHh58SvMzyYoo"], "asm": "OP_DUP OP_HASH160 74b47b121b88a45189e20710d5610c2b8b567d1f OP_EQUALVERIFY OP_CHECKSIG", "type": "pubkeyhash"}, "value": 5.46e-06, "n": 2}], "hex": "01000000013545bb572566f641f77748821b605c1d133f93765d999b56d99d614f43fc9eb6010000006a47304402203d1c1d4d17050551e089cc2b6fa4d32db290f1489a36d80b4c5b6509d121698a022066e936235abecf60f26df62476bb8790e26dfb2649232f41ba2c7cfb7366cc34012103da5bac7b36d5aa38f531c6b9601e21bb598a4b6716ebed38b009a55dabde9440feffffff030000000000000000166a146f6d6e69000000000000001f000000e8d4a51000f85e1e00000000001976a914a25dec4d0011064ef106a983c39c7a540699f22088ac22020000000000001976a91474b47b121b88a45189e20710d5610c2b8b567d1f88ac0b490800", "vin": [{"sequence": 4294967294, "scriptSig": {"hex": "47304402203d1c1d4d17050551e089cc2b6fa4d32db290f1489a36d80b4c5b6509d121698a022066e936235abecf60f26df62476bb8790e26dfb2649232f41ba2c7cfb7366cc34012103da5bac7b36d5aa38f531c6b9601e21bb598a4b6716ebed38b009a55dabde9440", "asm": "304402203d1c1d4d17050551e089cc2b6fa4d32db290f1489a36d80b4c5b6509d121698a022066e936235abecf60f26df62476bb8790e26dfb2649232f41ba2c7cfb7366cc34[ALL] 03da5bac7b36d5aa38f531c6b9601e21bb598a4b6716ebed38b009a55dabde9440"}, "vout": 1, "txid": "b69efc434f619dd9569b995d76933f131d5c601b824877f741f6662557bb4535"}], "txid": "85ef6323ab713ce5d1317307887c9147f762b2b4af19cd015f7d3ff4f316b78d", "blocktime": 1537870268, "version": 1, "confirmations": 11516, "time": 1537870268, "locktime": 542987, "vsize": 256, "size": 256}