{"hash": "85f142fb03f4054ea79a172dd4755cc2d921dc990c784d47b6de1a191309c59e", "blockhash": "0000000000000000001f76057863aec43deb6fa401d9628bb513d65a8098bfab", "vout": [{"scriptPubKey": {"type": "nulldata", "hex": "6a4c50000077e80001912da39f4f4c673455843b127af8e8e963c7cfd5b95b23cc0f42c2fc38c569abffa9752e2910119b4c67613794bd5baa177f0612a102324977df1d100759d4ba30d2c37bb011d97e02cf", "asm": "OP_RETURN 000077e80001912da39f4f4c673455843b127af8e8e963c7cfd5b95b23cc0f42c2fc38c569abffa9752e2910119b4c67613794bd5baa177f0612a102324977df1d100759d4ba30d2c37bb011d97e02cf"}, "value": 0.0, "n": 0}, {"scriptPubKey": {"reqSigs": 1, "hex": "76a9146715bced7943671effc9c1eea985ea02d69d7f3f88ac", "addresses": ["1AQ4e9BqTEqc3Has1vj9rVx92NQZZZquw7"], "asm": "OP_DUP OP_HASH160 6715bced7943671effc9c1eea985ea02d69d7f3f OP_EQUALVERIFY OP_CHECKSIG", "type": "pubkeyhash"}, "value": 0.00636999, "n": 1}], "hex": "01000000014e542ba9ebd8a8729904c6e998569b8cc641e24b8b2b8575795a5b1f86b6ee18010000006b483045022100c8450100394fc6d2eaf7636f5a6f645b8a8891b2ce60dcd4eebef30fa313fb050220448eb4f10e4cfe96cf5c1887e719f4b65da48ec9605a63221a1743845afbaee5012103d053e14e16ccad5fda33fc379e8e49e1d2735859fe0296124823387af7288e79ffffffff020000000000000000536a4c50000077e80001912da39f4f4c673455843b127af8e8e963c7cfd5b95b23cc0f42c2fc38c569abffa9752e2910119b4c67613794bd5baa177f0612a102324977df1d100759d4ba30d2c37bb011d97e02cf47b80900000000001976a9146715bced7943671effc9c1eea985ea02d69d7f3f88ac00000000", "vin": [{"sequence": 4294967295, "scriptSig": {"hex": "483045022100c8450100394fc6d2eaf7636f5a6f645b8a8891b2ce60dcd4eebef30fa313fb050220448eb4f10e4cfe96cf5c1887e719f4b65da48ec9605a63221a1743845afbaee5012103d053e14e16ccad5fda33fc379e8e49e1d2735859fe0296124823387af7288e79", "asm": "3045022100c8450100394fc6d2eaf7636f5a6f645b8a8891b2ce60dcd4eebef30fa313fb050220448eb4f10e4cfe96cf5c1887e719f4b65da48ec9605a63221a1743845afbaee5[ALL] 03d053e14e16ccad5fda33fc379e8e49e1d2735859fe0296124823387af7288e79"}, "vout": 1, "txid": "18eeb6861f5b5a7975852b8b4be241c68c9b5698e9c6049972a8d8eba92b544e"}], "txid": "85f142fb03f4054ea79a172dd4755cc2d921dc990c784d47b6de1a191309c59e", "blocktime": 1537873891, "version": 1, "confirmations": 11478, "time": 1537873891, "locktime": 0, "vsize": 284, "size": 284}