{"hash": "85faf8bf1ec60b60d0aa6b806eab05fa38b2b54dd8377c03d89c57263d37427d", "blockhash": "0000000000000000000dcc0f55137456b1a82d3642486a52398922ac4d620174", "vout": [{"scriptPubKey": {"reqSigs": 1, "hex": "76a91437541bf417265675e036626720804d49664b8f1888ac", "addresses": ["163YvZURAY6MVabN6TTGwNDMw47nbFdmZP"], "asm": "OP_DUP OP_HASH160 37541bf417265675e036626720804d49664b8f18 OP_EQUALVERIFY OP_CHECKSIG", "type": "pubkeyhash"}, "value": 0.00149105, "n": 0}, {"scriptPubKey": {"reqSigs": 1, "hex": "a914800f8ad08ac7b85456c9ac91c7e28f66e97c1e5087", "addresses": ["3DN92zVnwEprwKi7n5btMWwvKUiRrbRHLs"], "asm": "OP_HASH160 800f8ad08ac7b85456c9ac91c7e28f66e97c1e50 OP_EQUAL", "type": "scripthash"}, "value": 0.00950856, "n": 1}], "hex": "01000000032b6bad8e15c89d2dd25a85edaa1b4a87991cad70a043c696b03433d622725b22000000006a473044022052e26944ab3279fe0f4a93244d98be74c41ab9e5ba52dc20fac47e524d49ce5c022008a7c9ac36dae3cf9be3685ac35e840f8630ff168c9ee3cdaecbf446a4d36dbc012103d32f827d968d81be23dad894d7212e87e6a4bc41d2bdca66879b7ba6d8b64372ffffffff9f201193b440d45d4a9b9422c56a2f744179cf958b1cbda7edc50841c52eb665000000006a473044022071183fb0257b306209ec200d09604ada9f8f8ba2fe5b06119ae6a7ec71ff372902200773c45ab5f73b092fd47b0b6b08a85cc463e3e3245566eef54c7d3ac89771c7012102380823b6e3453d3b8e9f3cf5bf85c8a0093ab9869a3094f8954c4ee04c37def0ffffffff08a5504a7d9ebd571d7f082dcd60f5cb413a0763a66df88f48533a9122621da5000000006a473044022005597bf569aba96a9a2b58cebe063d1836c4bea8f82a6c26d9608cfbe30ed4e5022073a98ef2e1524a9062e70a62bbe1992684462b964891eeacdd008b56536f325c01210247a978b15de672203025bfc3a00831c6b89c7b305144351fe3df3623c6713faaffffffff0271460200000000001976a91437541bf417265675e036626720804d49664b8f1888ac48820e000000000017a914800f8ad08ac7b85456c9ac91c7e28f66e97c1e508700000000", "vin": [{"sequence": 4294967295, "scriptSig": {"hex": "473044022052e26944ab3279fe0f4a93244d98be74c41ab9e5ba52dc20fac47e524d49ce5c022008a7c9ac36dae3cf9be3685ac35e840f8630ff168c9ee3cdaecbf446a4d36dbc012103d32f827d968d81be23dad894d7212e87e6a4bc41d2bdca66879b7ba6d8b64372", "asm": "3044022052e26944ab3279fe0f4a93244d98be74c41ab9e5ba52dc20fac47e524d49ce5c022008a7c9ac36dae3cf9be3685ac35e840f8630ff168c9ee3cdaecbf446a4d36dbc[ALL] 03d32f827d968d81be23dad894d7212e87e6a4bc41d2bdca66879b7ba6d8b64372"}, "vout": 0, "txid": "225b7222d63334b096c643a070ad1c99874a1baaed855ad22d9dc8158ead6b2b"}, {"sequence": 4294967295, "scriptSig": {"hex": "473044022071183fb0257b306209ec200d09604ada9f8f8ba2fe5b06119ae6a7ec71ff372902200773c45ab5f73b092fd47b0b6b08a85cc463e3e3245566eef54c7d3ac89771c7012102380823b6e3453d3b8e9f3cf5bf85c8a0093ab9869a3094f8954c4ee04c37def0", "asm": "3044022071183fb0257b306209ec200d09604ada9f8f8ba2fe5b06119ae6a7ec71ff372902200773c45ab5f73b092fd47b0b6b08a85cc463e3e3245566eef54c7d3ac89771c7[ALL] 02380823b6e3453d3b8e9f3cf5bf85c8a0093ab9869a3094f8954c4ee04c37def0"}, "vout": 0, "txid": "65b62ec54108c5eda7bd1c8b95cf7941742f6ac522949b4a5dd440b49311209f"}, {"sequence": 4294967295, "scriptSig": {"hex": "473044022005597bf569aba96a9a2b58cebe063d1836c4bea8f82a6c26d9608cfbe30ed4e5022073a98ef2e1524a9062e70a62bbe1992684462b964891eeacdd008b56536f325c01210247a978b15de672203025bfc3a00831c6b89c7b305144351fe3df3623c6713faa", "asm": "3044022005597bf569aba96a9a2b58cebe063d1836c4bea8f82a6c26d9608cfbe30ed4e5022073a98ef2e1524a9062e70a62bbe1992684462b964891eeacdd008b56536f325c[ALL] 0247a978b15de672203025bfc3a00831c6b89c7b305144351fe3df3623c6713faa"}, "vout": 0, "txid": "a51d6222913a53488ff86da663073a41cbf560cd2d087f1d57bd9e7d4a50a508"}], "txid": "85faf8bf1ec60b60d0aa6b806eab05fa38b2b54dd8377c03d89c57263d37427d", "blocktime": 1537870268, "version": 1, "confirmations": 11518, "time": 1537870268, "locktime": 0, "vsize": 517, "size": 517}