{"hash": "48ec512c7b9f3b59eab1aaeaf8d4dd5474c53c123069676f7b63265aec2fcebe", "blockhash": "0000000000000000001f0ddff1eddb255c1121bcd4da4f1bc9a0da00cae72433", "vout": [{"scriptPubKey": {"reqSigs": 1, "hex": "a9146f2731f60a6e1f63573cef68f5119d2c99f7971487", "addresses": ["3BpjtAVPRHCzKmSDUjwEhP5UXBqi6W6Vb7"], "asm": "OP_HASH160 6f2731f60a6e1f63573cef68f5119d2c99f79714 OP_EQUAL", "type": "scripthash"}, "value": 0.00625958, "n": 0}, {"scriptPubKey": {"reqSigs": 1, "hex": "a914f5342287aaa57f5c05756dbd5ef14091cc70030f87", "addresses": ["3Q3XvwKWsx3ocmCXheK6pAo5ieooFx75hh"], "asm": "OP_HASH160 f5342287aaa57f5c05756dbd5ef14091cc70030f OP_EQUAL", "type": "scripthash"}, "value": 0.10487946, "n": 1}], "hex": "010000000001029c3de4aaf9ea2693fc203e4900ed15d96a40ec583ab25675e2be1d87cb4a753c0100000023220020b5afc8940ff0cfaa9ea8bc432325ad3bebb7d9d80d862f4a9d71599834a1ebedffffffffed782f4c4b0a7904bad1b881e06b9ca9f08a0488751238dc68f69e9fcf26f30201000000232200204fd7968ffe15cb453352a1e9ee2915eff8b6d6252d5a351f9092b82ca10eb12cffffffff02268d09000000000017a9146f2731f60a6e1f63573cef68f5119d2c99f79714878a08a0000000000017a914f5342287aaa57f5c05756dbd5ef14091cc70030f870400483045022100bcc38df484b53cf42b5076a057d8017c8de76db86cd5679dced41e328ac1b066022074154439f56d2ac9a4ab8487d21fcf6724d85f06c1ba0749055f523b443d887701483045022100d0893363e862dfb376823ff2ae80eb7d61e516f101a2ebb3f1ae3ebd341245b7022073a0ca0ac95facd82eda3601688a164cd6cdc46bc9a3fd3313d7a20a97a77e6101475221033f1a1e9827ea969509a10cae1794b1ae9f7e2087f09823b9ee1bd9d63f8e7fe82103871fc2ca08e6950b38867e8e6a0e94ee625223d3aa0df5c65f414c6d784467e252ae04004730440220640f81c9e17c3062ff186e137a726f5e5887bbffc72d8f4a0290c6dcc883dae902206abcc98843f3c40038f5c71d1f3464294ef35b84d7356f07cbc262222c767829014730440220719ae144721f4bf2760c5e61712cdff5e7b02a5d5d34f17929f156c95396217502202c7f96ce1e453b5aeea9b09753f430e17d4a1264784775653fcfaf52e63a125d0147522103b70e79262cbb7310fe069dea7c473b53276b75c67fb841ff66279f152a3fe0172103871fc2ca08e6950b38867e8e6a0e94ee625223d3aa0df5c65f414c6d784467e252ae00000000", "vin": [{"txinwitness": ["", "3045022100bcc38df484b53cf42b5076a057d8017c8de76db86cd5679dced41e328ac1b066022074154439f56d2ac9a4ab8487d21fcf6724d85f06c1ba0749055f523b443d887701", "3045022100d0893363e862dfb376823ff2ae80eb7d61e516f101a2ebb3f1ae3ebd341245b7022073a0ca0ac95facd82eda3601688a164cd6cdc46bc9a3fd3313d7a20a97a77e6101", "5221033f1a1e9827ea969509a10cae1794b1ae9f7e2087f09823b9ee1bd9d63f8e7fe82103871fc2ca08e6950b38867e8e6a0e94ee625223d3aa0df5c65f414c6d784467e252ae"], "sequence": 4294967295, "scriptSig": {"hex": "220020b5afc8940ff0cfaa9ea8bc432325ad3bebb7d9d80d862f4a9d71599834a1ebed", "asm": "0020b5afc8940ff0cfaa9ea8bc432325ad3bebb7d9d80d862f4a9d71599834a1ebed"}, "vout": 1, "txid": "3c754acb871dbee27556b23a58ec406ad915ed00493e20fc9326eaf9aae43d9c"}, {"txinwitness": ["", "30440220640f81c9e17c3062ff186e137a726f5e5887bbffc72d8f4a0290c6dcc883dae902206abcc98843f3c40038f5c71d1f3464294ef35b84d7356f07cbc262222c76782901", "30440220719ae144721f4bf2760c5e61712cdff5e7b02a5d5d34f17929f156c95396217502202c7f96ce1e453b5aeea9b09753f430e17d4a1264784775653fcfaf52e63a125d01", "522103b70e79262cbb7310fe069dea7c473b53276b75c67fb841ff66279f152a3fe0172103871fc2ca08e6950b38867e8e6a0e94ee625223d3aa0df5c65f414c6d784467e252ae"], "sequence": 4294967295, "scriptSig": {"hex": "2200204fd7968ffe15cb453352a1e9ee2915eff8b6d6252d5a351f9092b82ca10eb12c", "asm": "00204fd7968ffe15cb453352a1e9ee2915eff8b6d6252d5a351f9092b82ca10eb12c"}, "vout": 1, "txid": "02f326cf9f9ef668dc38127588048af0a99c6be081b8d1ba04790a4b4c2f78ed"}], "txid": "85fabd44ba98ab7b41d638c043c9fb8e70ae62ad62042a5379402ff0a9f750ce", "blocktime": 1537872018, "version": 1, "confirmations": 11489, "time": 1537872018, "locktime": 0, "vsize": 336, "size": 666}