{"hash": "85fbedf579082161d531832c0f279163c120587d216f468c9680bb1e03b3eeb5", "blockhash": "000000000000000000022b45ed06c6f4ccd3cf7fb5ba4856ebd2e58215665228", "vout": [{"scriptPubKey": {"type": "nulldata", "hex": "6a146f6d6e69000000000000001f000000315c2f4800", "asm": "OP_RETURN 6f6d6e69000000000000001f000000315c2f4800"}, "value": 0.0, "n": 0}, {"scriptPubKey": {"reqSigs": 1, "hex": "76a914493d88dbf3d3530e9b099d71686b9bc2da321e5288ac", "addresses": ["17gG3WB9AabE19KW6qA8Corm4pydq8erwM"], "asm": "OP_DUP OP_HASH160 493d88dbf3d3530e9b099d71686b9bc2da321e52 OP_EQUALVERIFY OP_CHECKSIG", "type": "pubkeyhash"}, "value": 0.00392146, "n": 1}, {"scriptPubKey": {"reqSigs": 1, "hex": "76a914a25dec4d0011064ef106a983c39c7a540699f22088ac", "addresses": ["1FoWyxwPXuj4C6abqwhjDWdz6D4PZgYRjA"], "asm": "OP_DUP OP_HASH160 a25dec4d0011064ef106a983c39c7a540699f220 OP_EQUALVERIFY OP_CHECKSIG", "type": "pubkeyhash"}, "value": 5.46e-06, "n": 2}], "hex": "010000000212acab8097840139ccd47d41e0512813cb34b237784222aee270d60dd0a34b81010000006a473044022041804016a754f3254ba8d02c28d65441230ccc0c3492f47f06bfcb56192653d5022031fb7e7b0a94a6ce741e9ce92054ba1bbb69fb54a4a0b6272f568719e101cb06012103be299ec03ed784f3aff599f5a1321bc9084d921378ca787a29270ec31fe703a9feffffff13b490f5453e5e12da941f6f407a0680b692abc81736e8046c9f828d1dd2ef45020000006a47304402206f18f7364b546248db90c09717643f934be15c9a63640738d410ebdb0c40a96b02204b27e4a8959677e0f5c7c37da38fec6898132e5fa108e408fc52a30282fb7639012103be299ec03ed784f3aff599f5a1321bc9084d921378ca787a29270ec31fe703a9feffffff030000000000000000166a146f6d6e69000000000000001f000000315c2f4800d2fb0500000000001976a914493d88dbf3d3530e9b099d71686b9bc2da321e5288ac22020000000000001976a914a25dec4d0011064ef106a983c39c7a540699f22088ac0b490800", "vin": [{"sequence": 4294967294, "scriptSig": {"hex": "473044022041804016a754f3254ba8d02c28d65441230ccc0c3492f47f06bfcb56192653d5022031fb7e7b0a94a6ce741e9ce92054ba1bbb69fb54a4a0b6272f568719e101cb06012103be299ec03ed784f3aff599f5a1321bc9084d921378ca787a29270ec31fe703a9", "asm": "3044022041804016a754f3254ba8d02c28d65441230ccc0c3492f47f06bfcb56192653d5022031fb7e7b0a94a6ce741e9ce92054ba1bbb69fb54a4a0b6272f568719e101cb06[ALL] 03be299ec03ed784f3aff599f5a1321bc9084d921378ca787a29270ec31fe703a9"}, "vout": 1, "txid": "814ba3d00dd670e2ae22427837b234cb132851e0417dd4cc3901849780abac12"}, {"sequence": 4294967294, "scriptSig": {"hex": "47304402206f18f7364b546248db90c09717643f934be15c9a63640738d410ebdb0c40a96b02204b27e4a8959677e0f5c7c37da38fec6898132e5fa108e408fc52a30282fb7639012103be299ec03ed784f3aff599f5a1321bc9084d921378ca787a29270ec31fe703a9", "asm": "304402206f18f7364b546248db90c09717643f934be15c9a63640738d410ebdb0c40a96b02204b27e4a8959677e0f5c7c37da38fec6898132e5fa108e408fc52a30282fb7639[ALL] 03be299ec03ed784f3aff599f5a1321bc9084d921378ca787a29270ec31fe703a9"}, "vout": 2, "txid": "45efd21d8d829f6c04e83617c8ab92b680067a406f1f94da125e3e45f590b413"}], "txid": "85fbedf579082161d531832c0f279163c120587d216f468c9680bb1e03b3eeb5", "blocktime": 1537869901, "version": 1, "confirmations": 11524, "time": 1537869901, "locktime": 542987, "vsize": 403, "size": 403}