{"hash": "85fdd438f78d6b709dce7bbde0605e4770f2d1a016663d8464e976b64524db8f", "blockhash": "0000000000000000000e13cef7c366c0283d82e591d1acd082e914b08063cdf1", "vout": [{"scriptPubKey": {"reqSigs": 1, "hex": "76a91467bd1aedbeac73b6fb0ef70ec9decbb431a7cccc88ac", "addresses": ["1ATX921rTaGdftSRCGT6qKKASpZzH7DXgZ"], "asm": "OP_DUP OP_HASH160 67bd1aedbeac73b6fb0ef70ec9decbb431a7cccc OP_EQUALVERIFY OP_CHECKSIG", "type": "pubkeyhash"}, "value": 0.00013923, "n": 0}, {"scriptPubKey": {"reqSigs": 1, "hex": "a91475486029e1c37cbf07d3ffe424bf4dedfd061acc87", "addresses": ["3CP9gjcPgbxMfBWy9yc81qQpBYiFbwnPKa"], "asm": "OP_HASH160 75486029e1c37cbf07d3ffe424bf4dedfd061acc OP_EQUAL", "type": "scripthash"}, "value": 0.00468625, "n": 1}], "hex": "0100000002d69cb6ae92f67f79cb4c0c9f29dd2ef92a6950fbad4ca478f25706231534ff350d0000006b483045022100e13d3ca05d259fd6c701203a70421d099442c583a492552fbd99e69428bea88302204c2fd804fd357a6348c3cf4357a41c434963ccf9cb7646452a908bae1d090b09012102d5dcf8cd97f9e6f053508929cef5ce2be38192edeaa8f15161c4b5fddc89f4fbffffffff2ffc705c3e87bfd9f7517684d68c92497dc628dbf932875ed391ecdf0f84bbf3000000006b483045022100e965f158158991432562a6d9a5e77253ba1095da72d932efbeeddbb9bf2ab1db02201f91d1ecf51846f3b73ac9dc05b5400e59500324bdd9483d83b3061763c0b7d40121025f4f686dd2edcb23beaf9ddd89c647941ff055b69de27501457b530bd920465affffffff0263360000000000001976a91467bd1aedbeac73b6fb0ef70ec9decbb431a7cccc88ac912607000000000017a91475486029e1c37cbf07d3ffe424bf4dedfd061acc8700000000", "vin": [{"sequence": 4294967295, "scriptSig": {"hex": "483045022100e13d3ca05d259fd6c701203a70421d099442c583a492552fbd99e69428bea88302204c2fd804fd357a6348c3cf4357a41c434963ccf9cb7646452a908bae1d090b09012102d5dcf8cd97f9e6f053508929cef5ce2be38192edeaa8f15161c4b5fddc89f4fb", "asm": "3045022100e13d3ca05d259fd6c701203a70421d099442c583a492552fbd99e69428bea88302204c2fd804fd357a6348c3cf4357a41c434963ccf9cb7646452a908bae1d090b09[ALL] 02d5dcf8cd97f9e6f053508929cef5ce2be38192edeaa8f15161c4b5fddc89f4fb"}, "vout": 13, "txid": "35ff3415230657f278a44cadfb50692af92edd299f0c4ccb797ff692aeb69cd6"}, {"sequence": 4294967295, "scriptSig": {"hex": "483045022100e965f158158991432562a6d9a5e77253ba1095da72d932efbeeddbb9bf2ab1db02201f91d1ecf51846f3b73ac9dc05b5400e59500324bdd9483d83b3061763c0b7d40121025f4f686dd2edcb23beaf9ddd89c647941ff055b69de27501457b530bd920465a", "asm": "3045022100e965f158158991432562a6d9a5e77253ba1095da72d932efbeeddbb9bf2ab1db02201f91d1ecf51846f3b73ac9dc05b5400e59500324bdd9483d83b3061763c0b7d4[ALL] 025f4f686dd2edcb23beaf9ddd89c647941ff055b69de27501457b530bd920465a"}, "vout": 0, "txid": "f3bb840fdfec91d35e8732f9db28c67d49928cd6847651f7d9bf873e5c70fc2f"}], "txid": "85fdd438f78d6b709dce7bbde0605e4770f2d1a016663d8464e976b64524db8f", "blocktime": 1537871767, "version": 1, "confirmations": 11495, "time": 1537871767, "locktime": 0, "vsize": 372, "size": 372}