{"hash": "62da4fd1f1134f25bf6abfb87d3b4203ca85647dda8b961ece2ef78aab6635ed", "blockhash": "0000000000000000001e0dab787dd257d1dbfcb92a98c2207d5e1078be1f4165", "vout": [{"scriptPubKey": {"reqSigs": 1, "hex": "a914d13d28be085e8fe55c5b803564063672e3ffd76787", "addresses": ["3LmNR3mVzcsnkjNdYdEG9AcWN3cvNvQtRV"], "asm": "OP_HASH160 d13d28be085e8fe55c5b803564063672e3ffd767 OP_EQUAL", "type": "scripthash"}, "value": 8.4e-05, "n": 0}, {"scriptPubKey": {"reqSigs": 1, "hex": "a9149a3e53c711f201b3f8c692296175b2c9f40f15a387", "addresses": ["3FkaefCENDg64pMWMXQrTvnu1zuYYCBKJD"], "asm": "OP_HASH160 9a3e53c711f201b3f8c692296175b2c9f40f15a3 OP_EQUAL", "type": "scripthash"}, "value": 0.01004178, "n": 1}], "hex": "0200000000010130c6cbe22c2ef7b5bd07f96c987e1da5e839a0004791e9d50ea1588a9ff8c2d700000000171600146acfe18dab48a2ec73d96300101c13d9da4e97c6feffffff02d02000000000000017a914d13d28be085e8fe55c5b803564063672e3ffd7678792520f000000000017a9149a3e53c711f201b3f8c692296175b2c9f40f15a38702473044022019ba92ed242705239594ff261ed515612fd0b8f1a74cfb6417a10fb99942b5930220416fcb24197d578d456c103c610390b3c34ebbd28f22b24d2af613657ae7517d012102cf926ac83549f454ab9c983c67914d5ce163e29493c3ef53fb743e442aa1badd12490800", "vin": [{"txinwitness": ["3044022019ba92ed242705239594ff261ed515612fd0b8f1a74cfb6417a10fb99942b5930220416fcb24197d578d456c103c610390b3c34ebbd28f22b24d2af613657ae7517d01", "02cf926ac83549f454ab9c983c67914d5ce163e29493c3ef53fb743e442aa1badd"], "sequence": 4294967294, "scriptSig": {"hex": "1600146acfe18dab48a2ec73d96300101c13d9da4e97c6", "asm": "00146acfe18dab48a2ec73d96300101c13d9da4e97c6"}, "vout": 0, "txid": "d7c2f89f8a58a10ed5e9914700a039e8a51d7e986cf907bdb5f72e2ce2cbc630"}], "txid": "85ffd8a952814d27c00cc3fff4c5b634f509510b841b2d7e7d8037153ebd4693", "blocktime": 1537872475, "version": 2, "confirmations": 11487, "time": 1537872475, "locktime": 542994, "vsize": 166, "size": 247}