{"hash": "2d735d6b491dda1bb0347357cf11927268883bd59001c4ba5a7daa58be5cff97", "blockhash": "00000000000000000018f53835495a110e01622372bf6ae95dc86f2b0ab887b0", "vout": [{"scriptPubKey": {"reqSigs": 1, "hex": "76a9140961987865ee4ccbf61186d94c41f7b4327f273788ac", "addresses": ["1rbzndctbRUJmdkLZGNt3ChmetXxjHF3K"], "asm": "OP_DUP OP_HASH160 0961987865ee4ccbf61186d94c41f7b4327f2737 OP_EQUALVERIFY OP_CHECKSIG", "type": "pubkeyhash"}, "value": 0.032, "n": 0}, {"scriptPubKey": {"reqSigs": 1, "hex": "a9141a834e414b22254354a5dcc0427023521eb4dabb87", "addresses": ["347CnowkoVhuQm8LS9CPr3hWiWL4bkeC94"], "asm": "OP_HASH160 1a834e414b22254354a5dcc0427023521eb4dabb OP_EQUAL", "type": "scripthash"}, "value": 0.03113377, "n": 1}], "hex": "010000000001016d0d624ed8a092a32bf703c505d8ceceaf2102bdb5796ac1106c30cd4a13b21801000000171600147c9c79ab73557734ff0e121a32d2189189344ee8ffffffff0200d43000000000001976a9140961987865ee4ccbf61186d94c41f7b4327f273788aca1812f000000000017a9141a834e414b22254354a5dcc0427023521eb4dabb87024730440220369cd6874574636969548ac484d9bbded902be590aba7065fc733e637525b004022018e09a5ee44d554b8a83f55dcbc7c8d58a914bed1ea4c5dcd265595e0b1f931401210289302f20100529dc7638ea67d7bc2548e2c4a3b4c32aa3e0b446e6e4e1ecfb2900000000", "vin": [{"txinwitness": ["30440220369cd6874574636969548ac484d9bbded902be590aba7065fc733e637525b004022018e09a5ee44d554b8a83f55dcbc7c8d58a914bed1ea4c5dcd265595e0b1f931401", "0289302f20100529dc7638ea67d7bc2548e2c4a3b4c32aa3e0b446e6e4e1ecfb29"], "sequence": 4294967295, "scriptSig": {"hex": "1600147c9c79ab73557734ff0e121a32d2189189344ee8", "asm": "00147c9c79ab73557734ff0e121a32d2189189344ee8"}, "vout": 1, "txid": "18b2134acd306c10c16a79b5bd0221afceced805c503f72ba392a0d84e620d6d"}], "txid": "8606f0ce67e4791bb3e6d686e883d12b46520ee130675ecd54804b992c4be7d2", "blocktime": 1537870928, "version": 1, "confirmations": 11512, "time": 1537870928, "locktime": 0, "vsize": 168, "size": 249}