{"hash": "e924aaad72384bd8519aaffbbf2a3661e7614344bddd83e9f6b81721f5341f55", "blockhash": "00000000000000000004ffacab907a6b429b9a5745fa0b75af4234bf69dd7176", "vout": [{"scriptPubKey": {"reqSigs": 1, "hex": "76a914c515aab24a3439d3e4a930e109cbc433fc329e6788ac", "addresses": ["1Jy65E48D4RWhSH5iuoNdxEYL53MgURUcV"], "asm": "OP_DUP OP_HASH160 c515aab24a3439d3e4a930e109cbc433fc329e67 OP_EQUALVERIFY OP_CHECKSIG", "type": "pubkeyhash"}, "value": 0.07216114, "n": 0}, {"scriptPubKey": {"reqSigs": 1, "hex": "a914c81259094097303732f722f0ab8810da50d2710f87", "addresses": ["3Kvu3ji2vTeRgaHpo2ZFojSCAQHaoY2YEk"], "asm": "OP_HASH160 c81259094097303732f722f0ab8810da50d2710f OP_EQUAL", "type": "scripthash"}, "value": 8.753e-05, "n": 1}], "hex": "02000000000101c3e71220e54131dc8f1258ad28166ca33d546035ced00ba1e8290bffea4e79b80000000017160014a0c46274eacd10204abfddb879860ec05ef79e73ffffffff02f21b6e00000000001976a914c515aab24a3439d3e4a930e109cbc433fc329e6788ac312200000000000017a914c81259094097303732f722f0ab8810da50d2710f8702473044022059c9ba78c9b00ac188d49d5c7f5d15b35f16f1d55903e4b443f2856adc45b310022027f3e4a65027d815cb174751f5492f71f58253ce474590b13c4c9cbb092e4a68012103405273333b920f4f95984a77dc2fc93375cfb9d47dc20902f9fb96f1dfe04c2100000000", "vin": [{"txinwitness": ["3044022059c9ba78c9b00ac188d49d5c7f5d15b35f16f1d55903e4b443f2856adc45b310022027f3e4a65027d815cb174751f5492f71f58253ce474590b13c4c9cbb092e4a6801", "03405273333b920f4f95984a77dc2fc93375cfb9d47dc20902f9fb96f1dfe04c21"], "sequence": 4294967295, "scriptSig": {"hex": "160014a0c46274eacd10204abfddb879860ec05ef79e73", "asm": "0014a0c46274eacd10204abfddb879860ec05ef79e73"}, "vout": 0, "txid": "b8794eeaff0b29e8a10bd0ce3560543da36c1628ad58128fdc3141e52012e7c3"}], "txid": "860e1301ee79cd4e4a7fd3c66a5da13235af401ca8eb9de7d360fa582b1d5554", "blocktime": 1537875543, "version": 2, "confirmations": 11464, "time": 1537875543, "locktime": 0, "vsize": 168, "size": 249}