{"hash": "86108a13b3d6b75de812906fdec4424acd6d5fc5b41528008bd6d3eaca438d0f", "blockhash": "00000000000000000004ffacab907a6b429b9a5745fa0b75af4234bf69dd7176", "vout": [{"scriptPubKey": {"reqSigs": 1, "hex": "76a91434b5af6292aeb9c69fc2ed1d67b9c99f55bfd7fe88ac", "addresses": ["15ohngGjD4i77WPjwXy6BvydK2QuWzCiY2"], "asm": "OP_DUP OP_HASH160 34b5af6292aeb9c69fc2ed1d67b9c99f55bfd7fe OP_EQUALVERIFY OP_CHECKSIG", "type": "pubkeyhash"}, "value": 0.00105, "n": 0}, {"scriptPubKey": {"reqSigs": 1, "hex": "76a9148b15e5c97ca2a5e6f42b51d48a327af4a37d012488ac", "addresses": ["1DgRA8w1e5eHAiFcQcoZAT35TotMpLrUem"], "asm": "OP_DUP OP_HASH160 8b15e5c97ca2a5e6f42b51d48a327af4a37d0124 OP_EQUALVERIFY OP_CHECKSIG", "type": "pubkeyhash"}, "value": 0.00232433, "n": 1}], "hex": "01000000012b73955e6f85fb1c22705ecf707312bfd6cd90908d1608d56e0b1f447d482c6c010000006b483045022100f192a4125c90f768d0931d0157a3657573b8fe300d1a7e473fc23a14d0d3b731022013582dac9919a048460efbc822644b9f2e45d61b3b074fb60100daf1d60c345a01210306026c3b601f2e7d8db67cf834f6e22ddf003e2afca5604bcbbbd4b904b4fdb4ffffffff02289a0100000000001976a91434b5af6292aeb9c69fc2ed1d67b9c99f55bfd7fe88acf18b0300000000001976a9148b15e5c97ca2a5e6f42b51d48a327af4a37d012488ac00000000", "vin": [{"sequence": 4294967295, "scriptSig": {"hex": "483045022100f192a4125c90f768d0931d0157a3657573b8fe300d1a7e473fc23a14d0d3b731022013582dac9919a048460efbc822644b9f2e45d61b3b074fb60100daf1d60c345a01210306026c3b601f2e7d8db67cf834f6e22ddf003e2afca5604bcbbbd4b904b4fdb4", "asm": "3045022100f192a4125c90f768d0931d0157a3657573b8fe300d1a7e473fc23a14d0d3b731022013582dac9919a048460efbc822644b9f2e45d61b3b074fb60100daf1d60c345a[ALL] 0306026c3b601f2e7d8db67cf834f6e22ddf003e2afca5604bcbbbd4b904b4fdb4"}, "vout": 1, "txid": "6c2c487d441f0b6ed508168d9090cdd6bf127370cf5e70221cfb856f5e95732b"}], "txid": "86108a13b3d6b75de812906fdec4424acd6d5fc5b41528008bd6d3eaca438d0f", "blocktime": 1537875543, "version": 1, "confirmations": 11464, "time": 1537875543, "locktime": 0, "vsize": 226, "size": 226}