{"hash": "86177d402e253bbff6fec596eb8c50960a435f7d477d521f1271933e4d449bce", "blockhash": "0000000000000000001cda96e906b7601b7a6fb1a3b62bca570a9e5d8f4b3de1", "vout": [{"scriptPubKey": {"reqSigs": 1, "hex": "a9141898abb8586500b291ba14fd997455ba526108ca87", "addresses": ["33w52u8NHJ5Vdf7XjTcVfQcdyc4JCpcMvf"], "asm": "OP_HASH160 1898abb8586500b291ba14fd997455ba526108ca OP_EQUAL", "type": "scripthash"}, "value": 0.0019565, "n": 0}], "hex": "0100000001e2f0d2b6309dec844c5bb5affd2254faf2695a8ceeeaf8c4a4d17e8929d7dbe3000000006946304302200a70642c3adc52499838ff922563087c5a9b42b6e858c36f7188337a76c798bd021f1286f2158ee46735f2d9916ee4dad7a9fb77dfc48fc1e580ca5d2072342c840121024170dcb67005519a0cbb0d8a2fcb2344cdea33fafa1be0a32e495c607d9617e4feffffff0142fc02000000000017a9141898abb8586500b291ba14fd997455ba526108ca8713490800", "vin": [{"sequence": 4294967294, "scriptSig": {"hex": "46304302200a70642c3adc52499838ff922563087c5a9b42b6e858c36f7188337a76c798bd021f1286f2158ee46735f2d9916ee4dad7a9fb77dfc48fc1e580ca5d2072342c840121024170dcb67005519a0cbb0d8a2fcb2344cdea33fafa1be0a32e495c607d9617e4", "asm": "304302200a70642c3adc52499838ff922563087c5a9b42b6e858c36f7188337a76c798bd021f1286f2158ee46735f2d9916ee4dad7a9fb77dfc48fc1e580ca5d2072342c84[ALL] 024170dcb67005519a0cbb0d8a2fcb2344cdea33fafa1be0a32e495c607d9617e4"}, "vout": 0, "txid": "e3dbd729897ed1a4c4f8eaee8c5a69f2fa5422fdafb55b4c84ec9d30b6d2f0e2"}], "txid": "86177d402e253bbff6fec596eb8c50960a435f7d477d521f1271933e4d449bce", "blocktime": 1537873282, "version": 1, "confirmations": 11485, "time": 1537873282, "locktime": 542995, "vsize": 188, "size": 188}