{"hash": "86227643a3a4b085335c5ecec895d7e3800f88fe1b84216a928af1a2e3186ef8", "blockhash": "0000000000000000000e13cef7c366c0283d82e591d1acd082e914b08063cdf1", "vout": [{"scriptPubKey": {"reqSigs": 1, "hex": "76a914d56c33092938b9de36a48689ab799c80e705196a88ac", "addresses": ["1LTUYgcyKyWFq8gPBKx44D72KzMPYmiwL5"], "asm": "OP_DUP OP_HASH160 d56c33092938b9de36a48689ab799c80e705196a OP_EQUALVERIFY OP_CHECKSIG", "type": "pubkeyhash"}, "value": 0.00781113, "n": 0}, {"scriptPubKey": {"reqSigs": 1, "hex": "76a91458bf2dd580f30bf1e63788514c947d23b2873e8c88ac", "addresses": ["196FVEYmwg7tcPcPKNJVniYcBfAaE3uJ3b"], "asm": "OP_DUP OP_HASH160 58bf2dd580f30bf1e63788514c947d23b2873e8c OP_EQUALVERIFY OP_CHECKSIG", "type": "pubkeyhash"}, "value": 0.01907525, "n": 1}], "hex": "01000000015277d13c59cbb9c4e26547df820dc517d50156292f7d653fa516b66a8a995acd010000006a47304402207e965185a27fdf18ffaa89372d646d4dfbf51416226e8a237fae7d751f0e494902206351a2ff16481bbf533dd0f215c3cf2f932705e1bc211a525a302c0b83e370480121031b4e61204202fa78f306ea09f13321abf81ad3635be7b552fa99e8ea0f7e67deffffffff0239eb0b00000000001976a914d56c33092938b9de36a48689ab799c80e705196a88ac451b1d00000000001976a91458bf2dd580f30bf1e63788514c947d23b2873e8c88ac00000000", "vin": [{"sequence": 4294967295, "scriptSig": {"hex": "47304402207e965185a27fdf18ffaa89372d646d4dfbf51416226e8a237fae7d751f0e494902206351a2ff16481bbf533dd0f215c3cf2f932705e1bc211a525a302c0b83e370480121031b4e61204202fa78f306ea09f13321abf81ad3635be7b552fa99e8ea0f7e67de", "asm": "304402207e965185a27fdf18ffaa89372d646d4dfbf51416226e8a237fae7d751f0e494902206351a2ff16481bbf533dd0f215c3cf2f932705e1bc211a525a302c0b83e37048[ALL] 031b4e61204202fa78f306ea09f13321abf81ad3635be7b552fa99e8ea0f7e67de"}, "vout": 1, "txid": "cd5a998a6ab616a53f657d2f295601d517c50d82df4765e2c4b9cb593cd17752"}], "txid": "86227643a3a4b085335c5ecec895d7e3800f88fe1b84216a928af1a2e3186ef8", "blocktime": 1537871767, "version": 1, "confirmations": 11493, "time": 1537871767, "locktime": 0, "vsize": 225, "size": 225}