{"hash": "8625cea657ca12bede6d0b05c17aaa172e1af97e9a835f73036b570198e5d091", "blockhash": "0000000000000000001f76057863aec43deb6fa401d9628bb513d65a8098bfab", "vout": [{"scriptPubKey": {"reqSigs": 1, "hex": "76a914b334d11d4881a1692bcb80ee76e1ab6d4e7379ad88ac", "addresses": ["1HLZE7nMvNVFivxTEDqBhknveMuYPJHn1g"], "asm": "OP_DUP OP_HASH160 b334d11d4881a1692bcb80ee76e1ab6d4e7379ad OP_EQUALVERIFY OP_CHECKSIG", "type": "pubkeyhash"}, "value": 0.00117935, "n": 0}], "hex": "0100000001d04d4912bdb3500e6c545ef7f19bdd185035fcf5be6ad290bbd1408eb1fc121a000000006a47304402206cf5ccf50ff773a3f2358606125a1ef34df7fa5ba6aa88b6536fff37156598aa02205212d171e8946c6daf32db61a984927ffed122bffb5c6a80ca30554a52233765012102e51ae4501babd6380f4f40e3cb61066430633e478eb1a0bb585fb4848ff69b69ffffffff01afcc0100000000001976a914b334d11d4881a1692bcb80ee76e1ab6d4e7379ad88ac00000000", "vin": [{"sequence": 4294967295, "scriptSig": {"hex": "47304402206cf5ccf50ff773a3f2358606125a1ef34df7fa5ba6aa88b6536fff37156598aa02205212d171e8946c6daf32db61a984927ffed122bffb5c6a80ca30554a52233765012102e51ae4501babd6380f4f40e3cb61066430633e478eb1a0bb585fb4848ff69b69", "asm": "304402206cf5ccf50ff773a3f2358606125a1ef34df7fa5ba6aa88b6536fff37156598aa02205212d171e8946c6daf32db61a984927ffed122bffb5c6a80ca30554a52233765[ALL] 02e51ae4501babd6380f4f40e3cb61066430633e478eb1a0bb585fb4848ff69b69"}, "vout": 0, "txid": "1a12fcb18e40d1bb90d26abef5fc355018dd9bf1f75e546c0e50b3bd12494dd0"}], "txid": "8625cea657ca12bede6d0b05c17aaa172e1af97e9a835f73036b570198e5d091", "blocktime": 1537873891, "version": 1, "confirmations": 11475, "time": 1537873891, "locktime": 0, "vsize": 191, "size": 191}