{"hash": "8e3c8a68eed9d4633fa7d4dde837bef3c52fe533a666272ce0e69545ae9d4708", "blockhash": "0000000000000000001f0ddff1eddb255c1121bcd4da4f1bc9a0da00cae72433", "vout": [{"scriptPubKey": {"reqSigs": 1, "hex": "a914bc6e2780a677dbb85fd29cdd2f8031f3c25fbc7487", "addresses": ["3JsLvGDx2VV8BVQTzoXTpxyzBVdw1Zt6S6"], "asm": "OP_HASH160 bc6e2780a677dbb85fd29cdd2f8031f3c25fbc74 OP_EQUAL", "type": "scripthash"}, "value": 0.00998445, "n": 0}, {"scriptPubKey": {"reqSigs": 1, "hex": "76a9142693c4e2167abd04825703e7a3367d6b12288aeb88ac", "addresses": ["14WyhTxppffkA8xV3PdhAcnBYW2wSPoUDP"], "asm": "OP_DUP OP_HASH160 2693c4e2167abd04825703e7a3367d6b12288aeb OP_EQUALVERIFY OP_CHECKSIG", "type": "pubkeyhash"}, "value": 0.0340498, "n": 1}], "hex": "02000000000101656ca785b963e8e2ffb8fb6c04ae9022676e858e6f0f7ac67c1b456fccdafd100e000000171600149483658ccfc02cb3a0125cd8dd4b7ef8aee8e80afeffffff022d3c0f000000000017a914bc6e2780a677dbb85fd29cdd2f8031f3c25fbc7487b4f43300000000001976a9142693c4e2167abd04825703e7a3367d6b12288aeb88ac0247304402206b9752e90b90578b088ea44a2ee139db5ac35f97c64c7bc7f693378ac953bdd70220764b35760c653a2abfe119bdbbc8d936b9c1d1f86c7ba0bbd2b7b9eab40f732501210264b3c5229f0d32fa25c9f50d23e3fad432ea23d2b01bc7b430c38f5799d2bf4611490800", "vin": [{"txinwitness": ["304402206b9752e90b90578b088ea44a2ee139db5ac35f97c64c7bc7f693378ac953bdd70220764b35760c653a2abfe119bdbbc8d936b9c1d1f86c7ba0bbd2b7b9eab40f732501", "0264b3c5229f0d32fa25c9f50d23e3fad432ea23d2b01bc7b430c38f5799d2bf46"], "sequence": 4294967294, "scriptSig": {"hex": "1600149483658ccfc02cb3a0125cd8dd4b7ef8aee8e80a", "asm": "00149483658ccfc02cb3a0125cd8dd4b7ef8aee8e80a"}, "vout": 14, "txid": "10fddacc6f451b7cc67a0f6f8e856e672290ae046cfbb8ffe2e863b985a76c65"}], "txid": "862978d67cfd476c2bd5c2f24fdfa78c0aaffc81f0855871417124363247e5e4", "blocktime": 1537872018, "version": 2, "confirmations": 11489, "time": 1537872018, "locktime": 542993, "vsize": 168, "size": 249}