{"hash": "b93f7c87a6126c9ef6a10fcb20424aa9bbb00da9a60347403f2bc037a4a088d0", "blockhash": "0000000000000000000e13cef7c366c0283d82e591d1acd082e914b08063cdf1", "vout": [{"scriptPubKey": {"reqSigs": 1, "hex": "a9148fabb1fbfa253e8087d1affb099e65ad9571455987", "addresses": ["3EngEa44MnxP8XWakr7fDvoSHkLf1TsY7e"], "asm": "OP_HASH160 8fabb1fbfa253e8087d1affb099e65ad95714559 OP_EQUAL", "type": "scripthash"}, "value": 16.75971305, "n": 0}, {"scriptPubKey": {"reqSigs": 1, "hex": "76a914917daf2e0f6d682d84d6bf0ea8c660be4acd7a3f88ac", "addresses": ["1EGHYWnBc16b7kub6p6TPh4Z8TFE2PYMMo"], "asm": "OP_DUP OP_HASH160 917daf2e0f6d682d84d6bf0ea8c660be4acd7a3f OP_EQUALVERIFY OP_CHECKSIG", "type": "pubkeyhash"}, "value": 0.00579, "n": 1}], "hex": "02000000000101329ecf91813d971695af71f8a1e11bc7c1788b8720d783e1144c9d6d6e9c9dd90100000017160014f3c2438355d2bd7e6da9d2e11c26ce8f507f295bfeffffff02e94ae5630000000017a9148fabb1fbfa253e8087d1affb099e65ad9571455987b8d50800000000001976a914917daf2e0f6d682d84d6bf0ea8c660be4acd7a3f88ac02483045022100f3adeee59e6d30b272b7feb4ab24ccf67c5b5027e4f2a1541e8be7d429057aa40220790c6f4db0697a2ab7d3a68ed94a95885a3e702c679049cf4bb267286427dfcd012102e94d564485f3eeec3daed23c7a7c01ea5574406739294f0383b1319e90555aa510490800", "vin": [{"txinwitness": ["3045022100f3adeee59e6d30b272b7feb4ab24ccf67c5b5027e4f2a1541e8be7d429057aa40220790c6f4db0697a2ab7d3a68ed94a95885a3e702c679049cf4bb267286427dfcd01", "02e94d564485f3eeec3daed23c7a7c01ea5574406739294f0383b1319e90555aa5"], "sequence": 4294967294, "scriptSig": {"hex": "160014f3c2438355d2bd7e6da9d2e11c26ce8f507f295b", "asm": "0014f3c2438355d2bd7e6da9d2e11c26ce8f507f295b"}, "vout": 1, "txid": "d99d9c6e6d9d4c14e183d720878b78c1c71be1a1f871af9516973d8191cf9e32"}], "txid": "862ae5eb4cd629b690666d5cbc67afe75bcef4fbd91b568f4c61a339f23be2e2", "blocktime": 1537871767, "version": 2, "confirmations": 11492, "time": 1537871767, "locktime": 542992, "vsize": 168, "size": 250}