{"hash": "862d03fe00f3d62889f90ae5660f673482819dc38e01f87dd031d541fba4073a", "blockhash": "0000000000000000000e13cef7c366c0283d82e591d1acd082e914b08063cdf1", "vout": [{"scriptPubKey": {"reqSigs": 1, "hex": "76a914b694e380f9d1cbad1b77cbb6dda5f9b0b7a1734688ac", "addresses": ["1HeQLt4qoroKNkSjwXujg29g3bA8usj5XL"], "asm": "OP_DUP OP_HASH160 b694e380f9d1cbad1b77cbb6dda5f9b0b7a17346 OP_EQUALVERIFY OP_CHECKSIG", "type": "pubkeyhash"}, "value": 0.00422672, "n": 0}, {"scriptPubKey": {"reqSigs": 1, "hex": "76a914e7fcf942e0205fbc394e65b3a93467143ca1a58488ac", "addresses": ["1N9e9ETYKy36uK9c7hrVz23buER2A5fZxD"], "asm": "OP_DUP OP_HASH160 e7fcf942e0205fbc394e65b3a93467143ca1a584 OP_EQUALVERIFY OP_CHECKSIG", "type": "pubkeyhash"}, "value": 0.0703035, "n": 1}], "hex": "0100000001c0f8e41e2c064ea0d6ee8e721b4a54135dc96f67e02eebfad31731966cae1bdd000000006a4730440220251069efe57f270b96e8245d5b700d2239f9b9b3ea34831cbc8905cc7155a7c902204a09f6f5fbe9e12e10ed4e0ce79fdf171c0241149e19bc0da7dc70401700fd8b012102668d87c88cfcf57159ce2a50b017ca328304676fd6879910c86f3b701087d421ffffffff0210730600000000001976a914b694e380f9d1cbad1b77cbb6dda5f9b0b7a1734688ac4e466b00000000001976a914e7fcf942e0205fbc394e65b3a93467143ca1a58488ac00000000", "vin": [{"sequence": 4294967295, "scriptSig": {"hex": "4730440220251069efe57f270b96e8245d5b700d2239f9b9b3ea34831cbc8905cc7155a7c902204a09f6f5fbe9e12e10ed4e0ce79fdf171c0241149e19bc0da7dc70401700fd8b012102668d87c88cfcf57159ce2a50b017ca328304676fd6879910c86f3b701087d421", "asm": "30440220251069efe57f270b96e8245d5b700d2239f9b9b3ea34831cbc8905cc7155a7c902204a09f6f5fbe9e12e10ed4e0ce79fdf171c0241149e19bc0da7dc70401700fd8b[ALL] 02668d87c88cfcf57159ce2a50b017ca328304676fd6879910c86f3b701087d421"}, "vout": 0, "txid": "dd1bae6c963117d3faeb2ee0676fc95d13544a1b728eeed6a04e062c1ee4f8c0"}], "txid": "862d03fe00f3d62889f90ae5660f673482819dc38e01f87dd031d541fba4073a", "blocktime": 1537871767, "version": 1, "confirmations": 11495, "time": 1537871767, "locktime": 0, "vsize": 225, "size": 225}