{"hash": "e6c894efe295f670a9ae98101d22a887a6fcb274ffc275b937fb7aaa021cb861", "blockhash": "000000000000000000022b45ed06c6f4ccd3cf7fb5ba4856ebd2e58215665228", "vout": [{"scriptPubKey": {"reqSigs": 1, "hex": "76a914e88467bd6ff38c7970ddabbbd071f52e672684a988ac", "addresses": ["1NCSPBXyFZngLnrX85jmiHKMfuDb51MTq6"], "asm": "OP_DUP OP_HASH160 e88467bd6ff38c7970ddabbbd071f52e672684a9 OP_EQUALVERIFY OP_CHECKSIG", "type": "pubkeyhash"}, "value": 3.1441, "n": 0}, {"scriptPubKey": {"reqSigs": 1, "hex": "0020701a8d401c84fb13e6baf169d59684e17abd9fa216c8cc5b9fc63d622ff8c58d", "addresses": ["bc1qwqdg6squsna38e46795at95yu9atm8azzmyvckulcc7kytlcckxswvvzej"], "asm": "0 701a8d401c84fb13e6baf169d59684e17abd9fa216c8cc5b9fc63d622ff8c58d", "type": "witness_v0_scripthash"}, "value": 0.0648817, "n": 1}], "hex": "01000000000101327854e561469e09e96c22d950e62a0ab34af6363f79bd41686e588da0581fd00100000000ffffffff021084bd12000000001976a914e88467bd6ff38c7970ddabbbd071f52e672684a988ac6a00630000000000220020701a8d401c84fb13e6baf169d59684e17abd9fa216c8cc5b9fc63d622ff8c58d040047304402204f6cac7c39c71a0b81b6bf4650eaa9db1e8d22d50b21f4e0d5b596fd230e16a20220258ad5acf618c5fc5c129edb56851ebf164f9315277551aa9f1395f5b14941b401473044022027874e0f93d4532c323664551be5e4cf9e8524eee894b895a8d366455d72486c0220227ad6fc9cac91e00980fa150d64a733a89af1b4180738b88ec19b22f263dd27016952210375e00eb72e29da82b89367947f29ef34afb75e8654f6ea368e0acdfd92976b7c2103a1b26313f430c4b15bb1fdce663207659d8cac749a0e53d70eff01874496feff2103c96d495bfdd5ba4145e3e046fee45e84a8a48ad05bd8dbb395c011a32cf9f88053ae00000000", "vin": [{"txinwitness": ["", "304402204f6cac7c39c71a0b81b6bf4650eaa9db1e8d22d50b21f4e0d5b596fd230e16a20220258ad5acf618c5fc5c129edb56851ebf164f9315277551aa9f1395f5b14941b401", "3044022027874e0f93d4532c323664551be5e4cf9e8524eee894b895a8d366455d72486c0220227ad6fc9cac91e00980fa150d64a733a89af1b4180738b88ec19b22f263dd2701", "52210375e00eb72e29da82b89367947f29ef34afb75e8654f6ea368e0acdfd92976b7c2103a1b26313f430c4b15bb1fdce663207659d8cac749a0e53d70eff01874496feff2103c96d495bfdd5ba4145e3e046fee45e84a8a48ad05bd8dbb395c011a32cf9f88053ae"], "sequence": 4294967295, "scriptSig": {"hex": "", "asm": ""}, "vout": 1, "txid": "d01f58a08d586e6841bd793f36f64ab30a2ae650d9226ce9099e4661e5547832"}], "txid": "863289a095977b689a08d7c92609edaffab616cb6f5aacfcee97122b338e85f3", "blocktime": 1537869901, "version": 1, "confirmations": 11522, "time": 1537869901, "locktime": 0, "vsize": 192, "size": 382}