{"hash": "77e5d23bc6f0237daeb32690cfdad912f5acee496c775d3b6f5c19fdcd9a98ec", "blockhash": "00000000000000000017f5eb5941039fbcee6240d03bc1f2f8e35350df66a1d8", "vout": [{"scriptPubKey": {"reqSigs": 1, "hex": "76a914a5fe73426632cc36625d6f410a5dc680cbc6749088ac", "addresses": ["1G8hKAWxALMMTUY6SnhgUrH1PatwsTUU7n"], "asm": "OP_DUP OP_HASH160 a5fe73426632cc36625d6f410a5dc680cbc67490 OP_EQUALVERIFY OP_CHECKSIG", "type": "pubkeyhash"}, "value": 0.00268, "n": 0}, {"scriptPubKey": {"reqSigs": 1, "hex": "a9149d39cd4d416c322048262893d635fb9a9522673c87", "addresses": ["3G2MFp2tgQzbiKhztwcqPLawH2z5AmX9EU"], "asm": "OP_HASH160 9d39cd4d416c322048262893d635fb9a9522673c OP_EQUAL", "type": "scripthash"}, "value": 0.0018541, "n": 1}], "hex": "01000000000101a8eccff76df568f5c28f3df16da19aa9d6431d08e38342ee5d1261b3cf35f0170100000023220020022225ef3da51443dcc2f1ec8986e5fd2d2d45b7d2f460b37c5b18ff15fcb259ffffffff02e0160400000000001976a914a5fe73426632cc36625d6f410a5dc680cbc6749088ac42d402000000000017a9149d39cd4d416c322048262893d635fb9a9522673c870400473044022021d1bb9b878ddca6e249a3bec902c9e5aa4c471080dcbfd8160e9a9d8497c72402204ee4ad121f53a7b14a7a430656f4fa6641b5061d68357f38b87a25ebae62dec301473044022000fdd87ccdc58f390d0e670765636b2af8278274136e7bb7b3ebeb306aa8d01e02204779026be0ca9ddce37bc4904c7f0520600d48b97bf829a3ebfde90a820e161b01475221025075d6ce9a4465ea0445788b0c16047fc9b558871082018dd3270fcbc20f6fd02102cef2f65e67dd388952b1159edda4643422fd1dedc86f72b80e60633b6aa83ecc52ae00000000", "vin": [{"txinwitness": ["", "3044022021d1bb9b878ddca6e249a3bec902c9e5aa4c471080dcbfd8160e9a9d8497c72402204ee4ad121f53a7b14a7a430656f4fa6641b5061d68357f38b87a25ebae62dec301", "3044022000fdd87ccdc58f390d0e670765636b2af8278274136e7bb7b3ebeb306aa8d01e02204779026be0ca9ddce37bc4904c7f0520600d48b97bf829a3ebfde90a820e161b01", "5221025075d6ce9a4465ea0445788b0c16047fc9b558871082018dd3270fcbc20f6fd02102cef2f65e67dd388952b1159edda4643422fd1dedc86f72b80e60633b6aa83ecc52ae"], "sequence": 4294967295, "scriptSig": {"hex": "220020022225ef3da51443dcc2f1ec8986e5fd2d2d45b7d2f460b37c5b18ff15fcb259", "asm": "0020022225ef3da51443dcc2f1ec8986e5fd2d2d45b7d2f460b37c5b18ff15fcb259"}, "vout": 1, "txid": "17f035cfb361125dee4283e3081d43d6a99aa16df13d8fc2f568f56df7cfeca8"}], "txid": "8638896c7980c4147de272fb7b640fdf2731d4aa932cfe35402c352490b8710e", "blocktime": 1537874412, "version": 1, "confirmations": 11467, "time": 1537874412, "locktime": 0, "vsize": 207, "size": 372}