{"hash": "d5b5bf2a7c5e001ac44394ff7bafeed613d602635d1e7066672ffef527dafeb5", "blockhash": "0000000000000000000e13cef7c366c0283d82e591d1acd082e914b08063cdf1", "vout": [{"scriptPubKey": {"reqSigs": 1, "hex": "a914d7855f1b3c127b724dec7521e598079a2dc73a5887", "addresses": ["3MLaybt7vyTRf287pGqUj7oaawErhExUke"], "asm": "OP_HASH160 d7855f1b3c127b724dec7521e598079a2dc73a58 OP_EQUAL", "type": "scripthash"}, "value": 0.31205963, "n": 0}, {"scriptPubKey": {"reqSigs": 1, "hex": "a9149e14f8e904cded928f1b9ef2fc0e8b474069825f87", "addresses": ["3G6sp2wdedQQ3Q1YmXchBX44u3WGfHUR1u"], "asm": "OP_HASH160 9e14f8e904cded928f1b9ef2fc0e8b474069825f OP_EQUAL", "type": "scripthash"}, "value": 1.005, "n": 1}], "hex": "0100000000010186e0fe0cdf5c078c66ae24dd5bda7522b93bebfec1fd8771e5075659055b311000000000171600141e1dfc520a0669149013e7e58c3e73a02b5b029effffffff024b2adc010000000017a914d7855f1b3c127b724dec7521e598079a2dc73a58872082fd050000000017a9149e14f8e904cded928f1b9ef2fc0e8b474069825f8702483045022100d767eb9757fd520c9389c40545210d15424d9d681cfdb4f4b6f2fb3ccc78da1e02203a6fefcb4aa2a65cf5dd41dfa47876fdec33215c8ce4abd355cf505ed65cd0a30121034d986bd1d8587adab1e887ccde6b1509e6a8b3a912682b0a860f03869d2fbb6a00000000", "vin": [{"txinwitness": ["3045022100d767eb9757fd520c9389c40545210d15424d9d681cfdb4f4b6f2fb3ccc78da1e02203a6fefcb4aa2a65cf5dd41dfa47876fdec33215c8ce4abd355cf505ed65cd0a301", "034d986bd1d8587adab1e887ccde6b1509e6a8b3a912682b0a860f03869d2fbb6a"], "sequence": 4294967295, "scriptSig": {"hex": "1600141e1dfc520a0669149013e7e58c3e73a02b5b029e", "asm": "00141e1dfc520a0669149013e7e58c3e73a02b5b029e"}, "vout": 0, "txid": "10315b05595607e57187fdc1feeb3bb92275da5bdd24ae668c075cdf0cfee086"}], "txid": "863cc6ba60cbe9bf3cb7d1ee215951815e510ce354b8f6282848e02ecc9822e6", "blocktime": 1537871767, "version": 1, "confirmations": 11493, "time": 1537871767, "locktime": 0, "vsize": 166, "size": 248}