{"hash": "863efee7d5f05f7b07dc42c0ad494dc8a9d80d2184171b5d716f5d2155a56075", "blockhash": "0000000000000000000e13cef7c366c0283d82e591d1acd082e914b08063cdf1", "vout": [{"scriptPubKey": {"reqSigs": 1, "hex": "a914e0fc457988e98858d06ffd962d945afd77b8bc6587", "addresses": ["3NCdVdtud6xuwkyQ1ghxyjds6NV1UHKwr9"], "asm": "OP_HASH160 e0fc457988e98858d06ffd962d945afd77b8bc65 OP_EQUAL", "type": "scripthash"}, "value": 0.00417796, "n": 0}], "hex": "01000000011990f19a9b203dc5d177212e2ec2c00a7aabe1f3ce5f779cdbad1f8c18ea02bd010000006a47304402203dfc2899aafef07fbce4057fb2fc7f0357977bc2316170318197faf26e80e0e20220548bddea7d4f0b2791c394b62c968bccf53fa8fc40f9801775ab45e47659850c012102610c1c620eab8a45143abc3c8d476d4ed35516b2b3955aa3e8e40285c5bdaf4fffffffff01046006000000000017a914e0fc457988e98858d06ffd962d945afd77b8bc658700000000", "vin": [{"sequence": 4294967295, "scriptSig": {"hex": "47304402203dfc2899aafef07fbce4057fb2fc7f0357977bc2316170318197faf26e80e0e20220548bddea7d4f0b2791c394b62c968bccf53fa8fc40f9801775ab45e47659850c012102610c1c620eab8a45143abc3c8d476d4ed35516b2b3955aa3e8e40285c5bdaf4f", "asm": "304402203dfc2899aafef07fbce4057fb2fc7f0357977bc2316170318197faf26e80e0e20220548bddea7d4f0b2791c394b62c968bccf53fa8fc40f9801775ab45e47659850c[ALL] 02610c1c620eab8a45143abc3c8d476d4ed35516b2b3955aa3e8e40285c5bdaf4f"}, "vout": 1, "txid": "bd02ea188c1faddb9c775fcef3e1ab7a0ac0c22e2e2177d1c53d209b9af19019"}], "txid": "863efee7d5f05f7b07dc42c0ad494dc8a9d80d2184171b5d716f5d2155a56075", "blocktime": 1537871767, "version": 1, "confirmations": 11492, "time": 1537871767, "locktime": 0, "vsize": 189, "size": 189}