{"hash": "21ab216fe459d09fd02159663c19c1d119886a6063bc7b8570f2f5c0c9b94e78", "blockhash": "000000000000000000022b45ed06c6f4ccd3cf7fb5ba4856ebd2e58215665228", "vout": [{"scriptPubKey": {"reqSigs": 1, "hex": "a914474832365331a1cff066c6b14040c433e9d086bb87", "addresses": ["38BvPSSwQMpR8dgc1jxG7sm19nLAdYQsde"], "asm": "OP_HASH160 474832365331a1cff066c6b14040c433e9d086bb OP_EQUAL", "type": "scripthash"}, "value": 0.0205, "n": 0}, {"scriptPubKey": {"reqSigs": 1, "hex": "a9141a11ccc6e6a1a35f3dbd4dee639a0f59a63dd37687", "addresses": ["344rpHpQrVU3gmBm3r59q2Dm5J3GYoQJhY"], "asm": "OP_HASH160 1a11ccc6e6a1a35f3dbd4dee639a0f59a63dd376 OP_EQUAL", "type": "scripthash"}, "value": 2.53702719, "n": 1}], "hex": "02000000000101050b6981fb23730b1183b0b424f2225218f2a21b61bb89f1936cec2ecc0baf4a000000001716001488a0648d92895547e6406d55f5992f87d2a04cd9feffffff02d0471f000000000017a914474832365331a1cff066c6b14040c433e9d086bb873f321f0f0000000017a9141a11ccc6e6a1a35f3dbd4dee639a0f59a63dd376870247304402204a4fe89c39b95c3ae071d20d98258be66b0bdde6d4084a95c2b320cb1162f3230220236fdfc7a0c349a1d78da18e2af3026051ad8c2d0f4e2eb90d9392c0d086e48301210376ff45691ee516916a8b08c985fe9ee931cc7b396052c8e8f42998f0d8347e5f0b490800", "vin": [{"txinwitness": ["304402204a4fe89c39b95c3ae071d20d98258be66b0bdde6d4084a95c2b320cb1162f3230220236fdfc7a0c349a1d78da18e2af3026051ad8c2d0f4e2eb90d9392c0d086e48301", "0376ff45691ee516916a8b08c985fe9ee931cc7b396052c8e8f42998f0d8347e5f"], "sequence": 4294967294, "scriptSig": {"hex": "16001488a0648d92895547e6406d55f5992f87d2a04cd9", "asm": "001488a0648d92895547e6406d55f5992f87d2a04cd9"}, "vout": 0, "txid": "4aaf0bcc2eec6c93f189bb611ba2f2185222f224b4b083110b7323fb81690b05"}], "txid": "8643205614e6bb44abd9b85da0acb2ab5695998c5816f75d7d747b576038daee", "blocktime": 1537869901, "version": 2, "confirmations": 11523, "time": 1537869901, "locktime": 542987, "vsize": 166, "size": 247}