{"hash": "5c32ef2ee8504b52ed94fb8e22f40a4ad320dd692ef4653d176bcf8f3d6e72e5", "blockhash": "0000000000000000000baef3f32e3676a92c3b2e5da21b426e4f302fc371ce76", "vout": [{"scriptPubKey": {"reqSigs": 1, "hex": "a914fde305ab4b902a7050977376236d953bfd15d29a87", "addresses": ["3QqSqrNSaLGc3txAKg51GzJKxUbq8cKrS7"], "asm": "OP_HASH160 fde305ab4b902a7050977376236d953bfd15d29a OP_EQUAL", "type": "scripthash"}, "value": 0.0020531, "n": 0}, {"scriptPubKey": {"reqSigs": 1, "hex": "76a91400ba35a5c9b125d5796f18726daa68c672c5613188ac", "addresses": ["114r54tn7eo2yJnVAA8pWff1uBzNifWTRy"], "asm": "OP_DUP OP_HASH160 00ba35a5c9b125d5796f18726daa68c672c56131 OP_EQUALVERIFY OP_CHECKSIG", "type": "pubkeyhash"}, "value": 0.002738, "n": 1}], "hex": "02000000000102a60390c459f9e90d28fff1fdd0519f5ec098e8fadb5fedc628c6b4948db56ef20000000017160014ce0c48ee5d0d8cb3d654f1b2c06523413b0db7abfdffffffb834e88d61bd3d6b9da55b3714f93a2a3626a6da6a0bebc53da71ffad12638ad0000000017160014c6e3cb35cf810ba7d01f84a01f4959aaf9f657e4fdffffff02fe2103000000000017a914fde305ab4b902a7050977376236d953bfd15d29a87882d0400000000001976a91400ba35a5c9b125d5796f18726daa68c672c5613188ac0247304402206295db6f826313fe2f06221400593638b00a69be36a210a190a1fc049976558a02204a12dde2a762b73684a6e7f774ad9fad5d9e744078fcc61fad9b51f52f1a44be012102383a58c3f9f175db8f1f706d648f7649f4b238fa08272101b20f5eb2cda26e9f024830450221009935b2d3a30bd776d70c570e889992414a39f420fbf83769f76f2793c10f1c6202207020fb5187727c052babe7087aad3d21570cd56bc433b327dfdff7a72044d0da012102b2ed90988e428aef5c307b3b085a30c21294cb32cb660e9fa6dbcbb48598470000000000", "vin": [{"txinwitness": ["304402206295db6f826313fe2f06221400593638b00a69be36a210a190a1fc049976558a02204a12dde2a762b73684a6e7f774ad9fad5d9e744078fcc61fad9b51f52f1a44be01", "02383a58c3f9f175db8f1f706d648f7649f4b238fa08272101b20f5eb2cda26e9f"], "sequence": 4294967293, "scriptSig": {"hex": "160014ce0c48ee5d0d8cb3d654f1b2c06523413b0db7ab", "asm": "0014ce0c48ee5d0d8cb3d654f1b2c06523413b0db7ab"}, "vout": 0, "txid": "f26eb58d94b4c628c6ed5fdbfae898c05e9f51d0fdf1ff280de9f959c49003a6"}, {"txinwitness": ["30450221009935b2d3a30bd776d70c570e889992414a39f420fbf83769f76f2793c10f1c6202207020fb5187727c052babe7087aad3d21570cd56bc433b327dfdff7a72044d0da01", "02b2ed90988e428aef5c307b3b085a30c21294cb32cb660e9fa6dbcbb485984700"], "sequence": 4294967293, "scriptSig": {"hex": "160014c6e3cb35cf810ba7d01f84a01f4959aaf9f657e4", "asm": "0014c6e3cb35cf810ba7d01f84a01f4959aaf9f657e4"}, "vout": 0, "txid": "ad3826d1fa1fa73dc5eb0b6adaa626362a3af914375ba59d6b3dbd618de834b8"}], "txid": "86453b674e5ace6a3e995a020d87c149aef4bac62eaa5a198ea00fdc313ad353", "blocktime": 1537876114, "version": 2, "confirmations": 11459, "time": 1537876114, "locktime": 0, "vsize": 259, "size": 421}