{"hash": "69c5bb3f96162e7cccb704cb91dfef205bad74fa9b254606e8b7f3ccb417219b", "blockhash": "0000000000000000000baef3f32e3676a92c3b2e5da21b426e4f302fc371ce76", "vout": [{"scriptPubKey": {"reqSigs": 1, "hex": "76a9146ddf22df09608c9660a1227914a6e465b450e8cf88ac", "addresses": ["1B1wxgmKDSoSSeqcUCv35nV6BMj7H8YDS6"], "asm": "OP_DUP OP_HASH160 6ddf22df09608c9660a1227914a6e465b450e8cf OP_EQUALVERIFY OP_CHECKSIG", "type": "pubkeyhash"}, "value": 0.03253424, "n": 0}, {"scriptPubKey": {"reqSigs": 1, "hex": "a914b85fbf60a6ba90609a7169fe5507d39563c63dd587", "addresses": ["3JVtxVrLZFMtMtiugWpi3tF6Cg2wiNTtMX"], "asm": "OP_HASH160 b85fbf60a6ba90609a7169fe5507d39563c63dd5 OP_EQUAL", "type": "scripthash"}, "value": 0.12729109, "n": 1}], "hex": "01000000000103536f384ea272fba1141943c36ac0b7e29a8f153d38c4d85e071e96e3c1b8bd9f0100000023220020d2b89f12706ab1c90815033f8cf45bc29f43af858f7044899b24b45ed3b24254ffffffff17f09016406c982b863d2db1f3c97f7c8737e78a7471de4f9c1a789764637c950100000023220020e7e38b700fad390b3d7b484f1a99bbfcd3de3153673ecf8b2bae34586f9aab89ffffffff24ca55efd7a7e5453e6ff1152453883e10a7cff7909603e2f8208cdcda01e613010000002322002073ce2809cc3eb88107c85ccecfc8905765b7c78a3dae54cc2017f905071e8b7bffffffff02b0a43100000000001976a9146ddf22df09608c9660a1227914a6e465b450e8cf88ac153bc2000000000017a914b85fbf60a6ba90609a7169fe5507d39563c63dd58704004730440220652c5dfcca3a0bc8414da8839cc77aa03e81f95235088d28a326fea4e9ade67b022011accc12c06cd38670ea742a953c83ba4ef4b8ca74ab3b69af1ba68db71b23750147304402201c18cd235af83aa1150490af38fc875963337f2ecd5d048798c4673631404284022010d3a92b7569198cef025264fece840f9fe0da054708d5205cedd971b6dc37d70147522103f1dd6d335f744932dbe696d64b6888dbddca194246b4667fb815247d2fc73a4f2103f62b1d27158b53be9caeae920614d9c61c0d4e3ab8a2b8afbc8e020933c6e68352ae0400473044022076f7337c4326b25ca85f0f724ca48cf0671008d335dfd12a8d4cb3042658dd9e022046a42658236ff34d19eec6084a77d89c2d881d43111080bfbb44c6387fcd128f014730440220164bcd045af33106514c81ddf24eb598399d2aa6004615f2bd48dbdc174983fe02207f0ec417e38a10b8ec54314354915a218ee2af0ef31427b5375a2ade4e7f506d014752210281ca69e4a21a710c5202f2c7fbf94a1c589ae0b565450a41ea0d66e08b6459232103f62b1d27158b53be9caeae920614d9c61c0d4e3ab8a2b8afbc8e020933c6e68352ae0400483045022100a7ed9daa1f63ef114a7735473fe74522ebe5364dac718ded5bd950002ffa39cf02203d82fba8735f8ab970abf0a943135c747203c65fed6faabbc63ae88256e4f99101483045022100c12006d185635eda5eac4b6cc517348e0dafcec27475caf34ec351064bd57cf3022046d5105964ff88041e7470703b24b2c1f65a236b1a86d65b386e5bea8f5b3a6b01475221026a42a9fca583a4a65496c8ddf67116f6af889f3675cd483bf11a335e536a651b2103f62b1d27158b53be9caeae920614d9c61c0d4e3ab8a2b8afbc8e020933c6e68352ae00000000", "vin": [{"txinwitness": ["", "30440220652c5dfcca3a0bc8414da8839cc77aa03e81f95235088d28a326fea4e9ade67b022011accc12c06cd38670ea742a953c83ba4ef4b8ca74ab3b69af1ba68db71b237501", "304402201c18cd235af83aa1150490af38fc875963337f2ecd5d048798c4673631404284022010d3a92b7569198cef025264fece840f9fe0da054708d5205cedd971b6dc37d701", "522103f1dd6d335f744932dbe696d64b6888dbddca194246b4667fb815247d2fc73a4f2103f62b1d27158b53be9caeae920614d9c61c0d4e3ab8a2b8afbc8e020933c6e68352ae"], "sequence": 4294967295, "scriptSig": {"hex": "220020d2b89f12706ab1c90815033f8cf45bc29f43af858f7044899b24b45ed3b24254", "asm": "0020d2b89f12706ab1c90815033f8cf45bc29f43af858f7044899b24b45ed3b24254"}, "vout": 1, "txid": "9fbdb8c1e3961e075ed8c4383d158f9ae2b7c06ac3431914a1fb72a24e386f53"}, {"txinwitness": ["", "3044022076f7337c4326b25ca85f0f724ca48cf0671008d335dfd12a8d4cb3042658dd9e022046a42658236ff34d19eec6084a77d89c2d881d43111080bfbb44c6387fcd128f01", "30440220164bcd045af33106514c81ddf24eb598399d2aa6004615f2bd48dbdc174983fe02207f0ec417e38a10b8ec54314354915a218ee2af0ef31427b5375a2ade4e7f506d01", "52210281ca69e4a21a710c5202f2c7fbf94a1c589ae0b565450a41ea0d66e08b6459232103f62b1d27158b53be9caeae920614d9c61c0d4e3ab8a2b8afbc8e020933c6e68352ae"], "sequence": 4294967295, "scriptSig": {"hex": "220020e7e38b700fad390b3d7b484f1a99bbfcd3de3153673ecf8b2bae34586f9aab89", "asm": "0020e7e38b700fad390b3d7b484f1a99bbfcd3de3153673ecf8b2bae34586f9aab89"}, "vout": 1, "txid": "957c636497781a9c4fde71748ae737877c7fc9f3b12d3d862b986c401690f017"}, {"txinwitness": ["", "3045022100a7ed9daa1f63ef114a7735473fe74522ebe5364dac718ded5bd950002ffa39cf02203d82fba8735f8ab970abf0a943135c747203c65fed6faabbc63ae88256e4f99101", "3045022100c12006d185635eda5eac4b6cc517348e0dafcec27475caf34ec351064bd57cf3022046d5105964ff88041e7470703b24b2c1f65a236b1a86d65b386e5bea8f5b3a6b01", "5221026a42a9fca583a4a65496c8ddf67116f6af889f3675cd483bf11a335e536a651b2103f62b1d27158b53be9caeae920614d9c61c0d4e3ab8a2b8afbc8e020933c6e68352ae"], "sequence": 4294967295, "scriptSig": {"hex": "22002073ce2809cc3eb88107c85ccecfc8905765b7c78a3dae54cc2017f905071e8b7b", "asm": "002073ce2809cc3eb88107c85ccecfc8905765b7c78a3dae54cc2017f905071e8b7b"}, "vout": 1, "txid": "13e601dadc8c20f8e2039690f7cfa7103e88532415f16f3e45e5a7d7ef55ca24"}], "txid": "8649263cb5ad6baad4b4f9046570b84dfefa91e4060627f25188d58356c8a47c", "blocktime": 1537876114, "version": 1, "confirmations": 11460, "time": 1537876114, "locktime": 0, "vsize": 469, "size": 962}