{"hash": "6f7910744f8e88e0a798a58b060c37aff249dd88292654fd992d397b35c3ded8", "blockhash": "0000000000000000000e13cef7c366c0283d82e591d1acd082e914b08063cdf1", "vout": [{"scriptPubKey": {"reqSigs": 1, "hex": "76a9148f8c51c7703803ba08ab1e55a5488d658dad347c88ac", "addresses": ["1E61iztLMN8yGsjorSzGpjjwnzsWrYnDLJ"], "asm": "OP_DUP OP_HASH160 8f8c51c7703803ba08ab1e55a5488d658dad347c OP_EQUALVERIFY OP_CHECKSIG", "type": "pubkeyhash"}, "value": 0.00298464, "n": 0}, {"scriptPubKey": {"reqSigs": 1, "hex": "a91426c0cb93b13db37eb26a87767068fe3be5f804e887", "addresses": ["35DvZUoeYcAgdXKxnESoMkyuMLQcdDhuSy"], "asm": "OP_HASH160 26c0cb93b13db37eb26a87767068fe3be5f804e8 OP_EQUAL", "type": "scripthash"}, "value": 0.0099992, "n": 1}], "hex": "02000000000102a41fdb02d0dd131bdd2b178dbda5706f02006102b4e48e121a4ad79b947470d70000000017160014d787c4c5e9fb8ff7bb4034188e1cd4a7dc8e023efeffffffa90ab7fcdbbc8985235f61ce86893aacd7daee4dd99024daced79562939214830100000017160014821afc91d37f5e66fca59af5bb6a1c6e42a6a8dbfeffffff02e08d0400000000001976a9148f8c51c7703803ba08ab1e55a5488d658dad347c88acf0410f000000000017a91426c0cb93b13db37eb26a87767068fe3be5f804e88702483045022100c1f64383bdc931c00b0a309de72071bbfda0703a558e2df34b749990b593834c022013ad716e6eacc11c07cf20b6f059c2824b6d01ae6dafd6d736f10ccc7db6ac02012103f288c588d134d950492757bd2000a7a77f1e3bbc987621737b8ca6eeff6fe9c00247304402205c8f96aed580abb98b7e3f66839e04f1e9d77b441b450a1c7cffc3f61bb9520c02207418608bdb007670fd1f07bd0bb47f997e3d3b3999e827a8b7ad37f62e29a8700121020c332754be4acf65817ec1b5d1ea813c62a6eabbbe3e22902a0e214cc25590790f490800", "vin": [{"txinwitness": ["3045022100c1f64383bdc931c00b0a309de72071bbfda0703a558e2df34b749990b593834c022013ad716e6eacc11c07cf20b6f059c2824b6d01ae6dafd6d736f10ccc7db6ac0201", "03f288c588d134d950492757bd2000a7a77f1e3bbc987621737b8ca6eeff6fe9c0"], "sequence": 4294967294, "scriptSig": {"hex": "160014d787c4c5e9fb8ff7bb4034188e1cd4a7dc8e023e", "asm": "0014d787c4c5e9fb8ff7bb4034188e1cd4a7dc8e023e"}, "vout": 0, "txid": "d77074949bd74a1a128ee4b4026100026f70a5bd8d172bdd1b13ddd002db1fa4"}, {"txinwitness": ["304402205c8f96aed580abb98b7e3f66839e04f1e9d77b441b450a1c7cffc3f61bb9520c02207418608bdb007670fd1f07bd0bb47f997e3d3b3999e827a8b7ad37f62e29a87001", "020c332754be4acf65817ec1b5d1ea813c62a6eabbbe3e22902a0e214cc2559079"], "sequence": 4294967294, "scriptSig": {"hex": "160014821afc91d37f5e66fca59af5bb6a1c6e42a6a8db", "asm": "0014821afc91d37f5e66fca59af5bb6a1c6e42a6a8db"}, "vout": 1, "txid": "831492936295d7ceda2490d94deedad7ac3a8986ce615f238589bcdbfcb70aa9"}], "txid": "864b0941fdc0a333ad742869beab8d41687ae10784808ffb1764f450798ad690", "blocktime": 1537871767, "version": 2, "confirmations": 11495, "time": 1537871767, "locktime": 542991, "vsize": 259, "size": 421}