{"hash": "864b26097b1819861a54b692092dbd10ccc2b3bc8a83c138ff561d0ce0af70d4", "blockhash": "0000000000000000000dcc0f55137456b1a82d3642486a52398922ac4d620174", "vout": [{"scriptPubKey": {"reqSigs": 1, "hex": "a914cbd431dfdc9af02aecac1bec79b96803e2c43aaf87", "addresses": ["3LGmJ3Gx91uRkgGzNwTxL5NMqf9EzSTjd7"], "asm": "OP_HASH160 cbd431dfdc9af02aecac1bec79b96803e2c43aaf OP_EQUAL", "type": "scripthash"}, "value": 0.0025, "n": 0}, {"scriptPubKey": {"reqSigs": 1, "hex": "76a914f61d3801c7befb10fe77e7300e56511be9a132d588ac", "addresses": ["1PSLEM6fakrB5XLQvoUVASYNqHZBXQM66d"], "asm": "OP_DUP OP_HASH160 f61d3801c7befb10fe77e7300e56511be9a132d5 OP_EQUALVERIFY OP_CHECKSIG", "type": "pubkeyhash"}, "value": 0.00578212, "n": 1}], "hex": "0100000001f162076ad6849b046f868c60365bc4a6d0bf07f835d5697b5047a7ffd2eb14a2000000006a47304402204cb089f5e03bc7fe51af323baa784af72dcfa71623f4ce80745d32745505ec45022048e85932adc704e8e1019527ea505b9c99a50167c12b1d2474f5358dd7c55c19012103b28b94787bb91d25dc724184852e5eeefef09905b1253fa705ec41afefb15eb2ffffffff0290d003000000000017a914cbd431dfdc9af02aecac1bec79b96803e2c43aaf87a4d20800000000001976a914f61d3801c7befb10fe77e7300e56511be9a132d588ac00000000", "vin": [{"sequence": 4294967295, "scriptSig": {"hex": "47304402204cb089f5e03bc7fe51af323baa784af72dcfa71623f4ce80745d32745505ec45022048e85932adc704e8e1019527ea505b9c99a50167c12b1d2474f5358dd7c55c19012103b28b94787bb91d25dc724184852e5eeefef09905b1253fa705ec41afefb15eb2", "asm": "304402204cb089f5e03bc7fe51af323baa784af72dcfa71623f4ce80745d32745505ec45022048e85932adc704e8e1019527ea505b9c99a50167c12b1d2474f5358dd7c55c19[ALL] 03b28b94787bb91d25dc724184852e5eeefef09905b1253fa705ec41afefb15eb2"}, "vout": 0, "txid": "a214ebd2ffa747507b69d535f807bfd0a6c45b36608c866f049b84d66a0762f1"}], "txid": "864b26097b1819861a54b692092dbd10ccc2b3bc8a83c138ff561d0ce0af70d4", "blocktime": 1537870268, "version": 1, "confirmations": 11516, "time": 1537870268, "locktime": 0, "vsize": 223, "size": 223}