{"hash": "864baf84e13442c4ab1db3f394f95d2736d4de0f196c3037153c60527e3ea0db", "blockhash": "00000000000000000004ffacab907a6b429b9a5745fa0b75af4234bf69dd7176", "vout": [{"scriptPubKey": {"reqSigs": 1, "hex": "76a9144556aff2579f72c26ef586eb7538224d60f9a8be88ac", "addresses": ["17KdUNkCqJbgsEz6qqeQwnzwCWy1B6X2oh"], "asm": "OP_DUP OP_HASH160 4556aff2579f72c26ef586eb7538224d60f9a8be OP_EQUALVERIFY OP_CHECKSIG", "type": "pubkeyhash"}, "value": 0.00836415, "n": 0}, {"scriptPubKey": {"reqSigs": 1, "hex": "a91466b344078189f5ef00333596caf7943b6c1397c287", "addresses": ["3B43biGmatKxHNB3PGNwoPi12BByZ5JkRz"], "asm": "OP_HASH160 66b344078189f5ef00333596caf7943b6c1397c2 OP_EQUAL", "type": "scripthash"}, "value": 0.00781411, "n": 1}], "hex": "0200000005309f9cc977fc89dfa3ee0be7a9218415e406d058c3277f1a91adfba05a9357f4450000006b483045022100abf99c18145b0cbd0dc18f2f66da64683e6b97bcb3302e5e2975d64f155fa6c0022009a75cce34249e484e25bcc8aa8082e4bc36d3c28790f1f41b2a59e4ddd4805d01210320649e286a5ab838664283232ca48eb14500d4caeba20c66eb5700d30d7db7d0feffffff8b32c5a6456d46c3e1a2efcb33815dfda955bbf44ebe5f830067340a9801f212250000006b483045022100eaee59e3532669d7bb68af0e23fa20a2914b413879666e6b0b06aada1d02cf83022020df8c396e112e8e416ad6da10826d802d28939997a2b57a0b0adea22b5fb4740121021e4eb1df6efd83af9fd6facc82602ec9cdff1c0fcecb3c505a1f890bef2aae3ffeffffff9546e41dcea1d17caea5ef2a94d5caa59d22e7a2fbbf5d9874bf53ca2349009d010000006a47304402202d78c32387afc923f4f8bc3f45a2cd4495e4d8eadebed37e3121295040e39dd6022037d652eeae7c139d5364d7a8a29e1ae1500038bf2c7185a87fafbdeb4854335c0121024c72e2dc0f104bdf770950e493a93894c75bbb5c335215cf4d2f20deb574f92efeffffff26ff63579763ff78e437596508463c4c435fddf623b4754215929102d7b23043000000006b4830450221009ade84c947691f7e76bf82c1c689962e1b8dd881d389e0f1bbc9b4902df3fbeb0220066786ad7c5ed6abe6fadc24ae44c2d885ee9962d7fead209a4a771a863990b2012102873955dabe7c6de3ea021e8c2a62a1ec2309850bcd4335b12ab80d0d73cc7b31feffffff93a4bc72e170f7c5c7c63df9a85d62b1fc56bc152b314f525d67a363c6117338010000006b483045022100fb750f61b811c95246507dae32aa687059d168bea5c2b6fdc65159ced1f52396022076a23526b6fad2c71d648951bdc9d6eac13ad5c0f03bd6a69a0c4c84fcfe83890121020d55376d71aec03ce596308443981e29cdf2bbdbd3f85083619313b858f49acffeffffff023fc30c00000000001976a9144556aff2579f72c26ef586eb7538224d60f9a8be88ac63ec0b000000000017a91466b344078189f5ef00333596caf7943b6c1397c28716490800", "vin": [{"sequence": 4294967294, "scriptSig": {"hex": "483045022100abf99c18145b0cbd0dc18f2f66da64683e6b97bcb3302e5e2975d64f155fa6c0022009a75cce34249e484e25bcc8aa8082e4bc36d3c28790f1f41b2a59e4ddd4805d01210320649e286a5ab838664283232ca48eb14500d4caeba20c66eb5700d30d7db7d0", "asm": "3045022100abf99c18145b0cbd0dc18f2f66da64683e6b97bcb3302e5e2975d64f155fa6c0022009a75cce34249e484e25bcc8aa8082e4bc36d3c28790f1f41b2a59e4ddd4805d[ALL] 0320649e286a5ab838664283232ca48eb14500d4caeba20c66eb5700d30d7db7d0"}, "vout": 69, "txid": "f457935aa0fbad911a7f27c358d006e4158421a9e70beea3df89fc77c99c9f30"}, {"sequence": 4294967294, "scriptSig": {"hex": "483045022100eaee59e3532669d7bb68af0e23fa20a2914b413879666e6b0b06aada1d02cf83022020df8c396e112e8e416ad6da10826d802d28939997a2b57a0b0adea22b5fb4740121021e4eb1df6efd83af9fd6facc82602ec9cdff1c0fcecb3c505a1f890bef2aae3f", "asm": "3045022100eaee59e3532669d7bb68af0e23fa20a2914b413879666e6b0b06aada1d02cf83022020df8c396e112e8e416ad6da10826d802d28939997a2b57a0b0adea22b5fb474[ALL] 021e4eb1df6efd83af9fd6facc82602ec9cdff1c0fcecb3c505a1f890bef2aae3f"}, "vout": 37, "txid": "12f201980a346700835fbe4ef4bb55a9fd5d8133cbefa2e1c3466d45a6c5328b"}, {"sequence": 4294967294, "scriptSig": {"hex": "47304402202d78c32387afc923f4f8bc3f45a2cd4495e4d8eadebed37e3121295040e39dd6022037d652eeae7c139d5364d7a8a29e1ae1500038bf2c7185a87fafbdeb4854335c0121024c72e2dc0f104bdf770950e493a93894c75bbb5c335215cf4d2f20deb574f92e", "asm": "304402202d78c32387afc923f4f8bc3f45a2cd4495e4d8eadebed37e3121295040e39dd6022037d652eeae7c139d5364d7a8a29e1ae1500038bf2c7185a87fafbdeb4854335c[ALL] 024c72e2dc0f104bdf770950e493a93894c75bbb5c335215cf4d2f20deb574f92e"}, "vout": 1, "txid": "9d004923ca53bf74985dbffba2e7229da5cad5942aefa5ae7cd1a1ce1de44695"}, {"sequence": 4294967294, "scriptSig": {"hex": "4830450221009ade84c947691f7e76bf82c1c689962e1b8dd881d389e0f1bbc9b4902df3fbeb0220066786ad7c5ed6abe6fadc24ae44c2d885ee9962d7fead209a4a771a863990b2012102873955dabe7c6de3ea021e8c2a62a1ec2309850bcd4335b12ab80d0d73cc7b31", "asm": "30450221009ade84c947691f7e76bf82c1c689962e1b8dd881d389e0f1bbc9b4902df3fbeb0220066786ad7c5ed6abe6fadc24ae44c2d885ee9962d7fead209a4a771a863990b2[ALL] 02873955dabe7c6de3ea021e8c2a62a1ec2309850bcd4335b12ab80d0d73cc7b31"}, "vout": 0, "txid": "4330b2d7029192154275b423f6dd5f434c3c4608655937e478ff63975763ff26"}, {"sequence": 4294967294, "scriptSig": {"hex": "483045022100fb750f61b811c95246507dae32aa687059d168bea5c2b6fdc65159ced1f52396022076a23526b6fad2c71d648951bdc9d6eac13ad5c0f03bd6a69a0c4c84fcfe83890121020d55376d71aec03ce596308443981e29cdf2bbdbd3f85083619313b858f49acf", "asm": "3045022100fb750f61b811c95246507dae32aa687059d168bea5c2b6fdc65159ced1f52396022076a23526b6fad2c71d648951bdc9d6eac13ad5c0f03bd6a69a0c4c84fcfe8389[ALL] 020d55376d71aec03ce596308443981e29cdf2bbdbd3f85083619313b858f49acf"}, "vout": 1, "txid": "387311c663a3675d524f312b15bc56fcb1625da8f93dc6c7c5f770e172bca493"}], "txid": "864baf84e13442c4ab1db3f394f95d2736d4de0f196c3037153c60527e3ea0db", "blocktime": 1537875543, "version": 2, "confirmations": 11464, "time": 1537875543, "locktime": 542998, "vsize": 815, "size": 815}