{"hash": "d00526bca5ae31aa0ad66a2ea08d7e1c5d4a545ac2d981c431203ad245bed3a5", "blockhash": "00000000000000000024a2167bbff67b0be802c0b01cdd79e6331c2be6459f87", "vout": [{"scriptPubKey": {"reqSigs": 1, "hex": "001464735249963cef38efc4cbbb68ba3d72d087606f", "addresses": ["bc1qv3e4yjvk8nhn3m7yewak3w3awtggwcr0csnjvn"], "asm": "0 64735249963cef38efc4cbbb68ba3d72d087606f", "type": "witness_v0_keyhash"}, "value": 1.387e-05, "n": 0}, {"scriptPubKey": {"reqSigs": 1, "hex": "a914429fa239ee249699876e8fe3dfb37d3cf1a7875e87", "addresses": ["37mHkkMKwSJDSMEM1Gb6FMsJqevUo7raip"], "asm": "OP_HASH160 429fa239ee249699876e8fe3dfb37d3cf1a7875e OP_EQUAL", "type": "scripthash"}, "value": 0.00108602, "n": 1}], "hex": "01000000000101f1b1fe8f2479d38af5268be826d31a32c35f7980350f18be9286e96d3bf0e97b0100000000ffffffff026b0500000000000016001464735249963cef38efc4cbbb68ba3d72d087606f3aa801000000000017a914429fa239ee249699876e8fe3dfb37d3cf1a7875e8702483045022100a10861c63956e5691e1ba9a8e2ffe21a1020943e4d159371a5c9b0a18cd8c4e1022051d71c8b08bf2188f57f6e77592c1d7a65582908d297679e7be6ed244c5bdb8b01210220fa4190df29432688ca1f3ecc4cca2070f8a6b7c3fed2a51ab939063721fc3100000000", "vin": [{"txinwitness": ["3045022100a10861c63956e5691e1ba9a8e2ffe21a1020943e4d159371a5c9b0a18cd8c4e1022051d71c8b08bf2188f57f6e77592c1d7a65582908d297679e7be6ed244c5bdb8b01", "0220fa4190df29432688ca1f3ecc4cca2070f8a6b7c3fed2a51ab939063721fc31"], "sequence": 4294967295, "scriptSig": {"hex": "", "asm": ""}, "vout": 1, "txid": "7be9f03b6de98692be180f3580795fc3321ad326e88b26f58ad379248ffeb1f1"}], "txid": "8650596f2c3903746bc4c57a3dcbe5d228b70a0d6ecb0f7bc5be7f1cd0f423fd", "blocktime": 1537870564, "version": 1, "confirmations": 11515, "time": 1537870564, "locktime": 0, "vsize": 142, "size": 224}