{"hash": "86500577d7abf31c0940ebd01cdcd8c80a3518ae95dfc5b7ff6f06c12bf11c4b", "blockhash": "0000000000000000001f76057863aec43deb6fa401d9628bb513d65a8098bfab", "vout": [{"scriptPubKey": {"reqSigs": 1, "hex": "a914a0ca153f77f53cd3767ae3a93645a87f9c959fbe87", "addresses": ["3GMC8D7LBt9zDxy9HBRmkhLrgpK2LGCm2X"], "asm": "OP_HASH160 a0ca153f77f53cd3767ae3a93645a87f9c959fbe OP_EQUAL", "type": "scripthash"}, "value": 0.00034, "n": 0}], "hex": "010000000101454c8a67e9005dc44116aeddfcc014a91c180e274f92331584cf6da823140d010000008a47304402203d3e408b3a483ee1bbae8b5a09eb34161c7d911874b5b5ef14404fd44af5f43a02202919a8ced0de0f517d68755303d19650af9406d8073022629fd4c826dbb9be7b01410402ecfaae2a4c864ec5714b50fde8f4d1d6122e6467b8fd26aecca7388509f6f4e8f485c1a74bf227c24d048765c1e290ed322cda8bdb190aa15696e28fe9d490ffffffff01d08400000000000017a914a0ca153f77f53cd3767ae3a93645a87f9c959fbe8700000000", "vin": [{"sequence": 4294967295, "scriptSig": {"hex": "47304402203d3e408b3a483ee1bbae8b5a09eb34161c7d911874b5b5ef14404fd44af5f43a02202919a8ced0de0f517d68755303d19650af9406d8073022629fd4c826dbb9be7b01410402ecfaae2a4c864ec5714b50fde8f4d1d6122e6467b8fd26aecca7388509f6f4e8f485c1a74bf227c24d048765c1e290ed322cda8bdb190aa15696e28fe9d490", "asm": "304402203d3e408b3a483ee1bbae8b5a09eb34161c7d911874b5b5ef14404fd44af5f43a02202919a8ced0de0f517d68755303d19650af9406d8073022629fd4c826dbb9be7b[ALL] 0402ecfaae2a4c864ec5714b50fde8f4d1d6122e6467b8fd26aecca7388509f6f4e8f485c1a74bf227c24d048765c1e290ed322cda8bdb190aa15696e28fe9d490"}, "vout": 1, "txid": "0d1423a86dcf841533924f270e181ca914c0fcddae1641c45d00e9678a4c4501"}], "txid": "86500577d7abf31c0940ebd01cdcd8c80a3518ae95dfc5b7ff6f06c12bf11c4b", "blocktime": 1537873891, "version": 1, "confirmations": 11475, "time": 1537873891, "locktime": 0, "vsize": 221, "size": 221}