{"hash": "8658e053094cb3afafd36760382009cfa3c11da28d8357c6fa37506d3fba7d71", "blockhash": "000000000000000000022b45ed06c6f4ccd3cf7fb5ba4856ebd2e58215665228", "vout": [{"scriptPubKey": {"reqSigs": 1, "hex": "76a914ba9f650c36153b50d4812eb584b656e6ad057e5388ac", "addresses": ["1J1mdcwJsKiN145PDrQKevWYnRMMdpfxcN"], "asm": "OP_DUP OP_HASH160 ba9f650c36153b50d4812eb584b656e6ad057e53 OP_EQUALVERIFY OP_CHECKSIG", "type": "pubkeyhash"}, "value": 0.30794622, "n": 0}, {"scriptPubKey": {"reqSigs": 1, "hex": "76a914095e55c4fa4b115ef8891231c33f6fb29f34554f88ac", "addresses": ["1rY6EuWBxexYfzdrYVzTYp52hJtPpS8ZJ"], "asm": "OP_DUP OP_HASH160 095e55c4fa4b115ef8891231c33f6fb29f34554f OP_EQUALVERIFY OP_CHECKSIG", "type": "pubkeyhash"}, "value": 8.74e-05, "n": 1}], "hex": "01000000027c1fc433be0565a40d3e6c3eff94501f0b9cc7017ed12947a5be6875b43e1d31000000006a473044022018662f39835c7eb19bade026917c8627f7b8392d1b2717c933ccc855774e68ce02202324bb4f5f5df976e4adeced6877cbefbf25b85c3ddaf16dd935ac1af63886810121038cb5d7e3b03b826bb9ed9dfcb1d16b196f53955f287c0e9f95b2de33dbe72745ffffffffd4489583c57409e99167f9fa96d044fed89779a1ea2eb6c590ca2851f204d7a9020000006a47304402202c28927280d9b7c6f225918f3eb87a87f6ebe1a083dd0ad3ba5cf44ed8d6c10c02200d816e165bcf02791982bf72f98ccf15a182847c86f6bb29f1f903639b1b817401210213a58be6d661cfe1d6689da4c1967a088d7d5b3d5127e16fa99fc1592a0d0facffffffff027ee3d501000000001976a914ba9f650c36153b50d4812eb584b656e6ad057e5388ac24220000000000001976a914095e55c4fa4b115ef8891231c33f6fb29f34554f88ac00000000", "vin": [{"sequence": 4294967295, "scriptSig": {"hex": "473044022018662f39835c7eb19bade026917c8627f7b8392d1b2717c933ccc855774e68ce02202324bb4f5f5df976e4adeced6877cbefbf25b85c3ddaf16dd935ac1af63886810121038cb5d7e3b03b826bb9ed9dfcb1d16b196f53955f287c0e9f95b2de33dbe72745", "asm": "3044022018662f39835c7eb19bade026917c8627f7b8392d1b2717c933ccc855774e68ce02202324bb4f5f5df976e4adeced6877cbefbf25b85c3ddaf16dd935ac1af6388681[ALL] 038cb5d7e3b03b826bb9ed9dfcb1d16b196f53955f287c0e9f95b2de33dbe72745"}, "vout": 0, "txid": "311d3eb47568bea54729d17e01c79c0b1f5094ff3e6c3e0da46505be33c41f7c"}, {"sequence": 4294967295, "scriptSig": {"hex": "47304402202c28927280d9b7c6f225918f3eb87a87f6ebe1a083dd0ad3ba5cf44ed8d6c10c02200d816e165bcf02791982bf72f98ccf15a182847c86f6bb29f1f903639b1b817401210213a58be6d661cfe1d6689da4c1967a088d7d5b3d5127e16fa99fc1592a0d0fac", "asm": "304402202c28927280d9b7c6f225918f3eb87a87f6ebe1a083dd0ad3ba5cf44ed8d6c10c02200d816e165bcf02791982bf72f98ccf15a182847c86f6bb29f1f903639b1b8174[ALL] 0213a58be6d661cfe1d6689da4c1967a088d7d5b3d5127e16fa99fc1592a0d0fac"}, "vout": 2, "txid": "a9d704f25128ca90c5b62eeaa17997d8fe44d096faf96791e90974c5839548d4"}], "txid": "8658e053094cb3afafd36760382009cfa3c11da28d8357c6fa37506d3fba7d71", "blocktime": 1537869901, "version": 1, "confirmations": 11523, "time": 1537869901, "locktime": 0, "vsize": 372, "size": 372}