{"hash": "0eef1f5237da23f93971ccb7d6cb93bef9630ad8092fbde31efa248955d722a3", "blockhash": "0000000000000000000dcc0f55137456b1a82d3642486a52398922ac4d620174", "vout": [{"scriptPubKey": {"reqSigs": 1, "hex": "001482e1d07c2dbd40e2275c6836660c7aefff0075d6", "addresses": ["bc1qstsaqlpdh4qwyf6udqmxvrr6allsqawk24wajl"], "asm": "0 82e1d07c2dbd40e2275c6836660c7aefff0075d6", "type": "witness_v0_keyhash"}, "value": 0.00402674, "n": 0}, {"scriptPubKey": {"reqSigs": 1, "hex": "0020f9fb13f1257bdfb8ab0388d9b52ef6d5e0402df8d644cbb12432151eae1282ba", "addresses": ["bc1ql8a38uf9000m32cr3rvm2thk6hsyqt0c6ezvhvfyxg23atsjs2aqt7ldt2"], "asm": "0 f9fb13f1257bdfb8ab0388d9b52ef6d5e0402df8d644cbb12432151eae1282ba", "type": "witness_v0_scripthash"}, "value": 0.01398189, "n": 1}], "hex": "010000000001012931f91cd5969839c940ee7927b5e71f9c19520e4270a81e50c4b69ef4e908420000000000ffffffff02f22406000000000016001482e1d07c2dbd40e2275c6836660c7aefff0075d6ad55150000000000220020f9fb13f1257bdfb8ab0388d9b52ef6d5e0402df8d644cbb12432151eae1282ba0247304402203023c3d620c47e6e9bddd3196092a564098fc49887f695d9557831c4c9657aa7022068047ed5de2201f9977202380f6cca36f88a8d90a5a86c2f6b57d6420ed6eae60121029b65a3cc5221d8ebbc16d88cd7051dd5b56ef1ac105c73330624784fbbddeb6000000000", "vin": [{"txinwitness": ["304402203023c3d620c47e6e9bddd3196092a564098fc49887f695d9557831c4c9657aa7022068047ed5de2201f9977202380f6cca36f88a8d90a5a86c2f6b57d6420ed6eae601", "029b65a3cc5221d8ebbc16d88cd7051dd5b56ef1ac105c73330624784fbbddeb60"], "sequence": 4294967295, "scriptSig": {"hex": "", "asm": ""}, "vout": 0, "txid": "4208e9f49eb6c4501ea870420e52199c1fe7b52779ee40c9399896d51cf93129"}], "txid": "865d77348aa0e1b3d2e47dec606774c325efae813bc7cd7769f92e62a7dcf79e", "blocktime": 1537870268, "version": 1, "confirmations": 11518, "time": 1537870268, "locktime": 0, "vsize": 153, "size": 234}