{"hash": "1fc5bbcd58960d48d17e9e4de713e061a934a56a90a5b315292f418e3358a6ea", "blockhash": "0000000000000000001f0ddff1eddb255c1121bcd4da4f1bc9a0da00cae72433", "vout": [{"scriptPubKey": {"reqSigs": 1, "hex": "a9143b3b9b5629aefa5af0b108b2d9e25f92c5e1c40387", "addresses": ["376DCQwqywYhofnLuWDnsyRx6zC5cMJQD2"], "asm": "OP_HASH160 3b3b9b5629aefa5af0b108b2d9e25f92c5e1c403 OP_EQUAL", "type": "scripthash"}, "value": 1.34561935, "n": 0}, {"scriptPubKey": {"reqSigs": 1, "hex": "76a914f55d47c113dace4d741a46e02672747fca6f798c88ac", "addresses": ["1PNNJE9LjpXZVmGNKZAhRtfUrRNJigFWbh"], "asm": "OP_DUP OP_HASH160 f55d47c113dace4d741a46e02672747fca6f798c OP_EQUALVERIFY OP_CHECKSIG", "type": "pubkeyhash"}, "value": 0.0075, "n": 1}], "hex": "020000000001017c0f026a3dd2b0b14a6d301bb1668c4bbf6cd175bd573049db8bc03dd3cc5e710000000017160014a100142117ee20ad13bc6a44498bf01655414627ffffffff028f4005080000000017a9143b3b9b5629aefa5af0b108b2d9e25f92c5e1c40387b0710b00000000001976a914f55d47c113dace4d741a46e02672747fca6f798c88ac0247304402206fced193ad7f8e53ad1b0de7361d0645df532e6ee77a6776a88f8737ad467fdf022075bd02a369486f74cbea760c2b5e8f356f49507347d31069b99b0fb80e02404c012103028e2eda89e75a4d82d538238a6c095ff58699aca24dddaba92ac87fe79e0b1500000000", "vin": [{"txinwitness": ["304402206fced193ad7f8e53ad1b0de7361d0645df532e6ee77a6776a88f8737ad467fdf022075bd02a369486f74cbea760c2b5e8f356f49507347d31069b99b0fb80e02404c01", "03028e2eda89e75a4d82d538238a6c095ff58699aca24dddaba92ac87fe79e0b15"], "sequence": 4294967295, "scriptSig": {"hex": "160014a100142117ee20ad13bc6a44498bf01655414627", "asm": "0014a100142117ee20ad13bc6a44498bf01655414627"}, "vout": 0, "txid": "715eccd33dc08bdb493057bd75d16cbf4b8c66b11b306d4ab1b0d23d6a020f7c"}], "txid": "86632771cbeb9917e67c7994ee94ec0127a026931aae80d9aeab61007c905769", "blocktime": 1537872018, "version": 2, "confirmations": 11489, "time": 1537872018, "locktime": 0, "vsize": 168, "size": 249}