{"hash": "866c5b11aaf12075a275d7740b5397d79c3f9bfbb3d81da5108c381ad3888ec8", "blockhash": "0000000000000000000baef3f32e3676a92c3b2e5da21b426e4f302fc371ce76", "vout": [{"scriptPubKey": {"type": "nulldata", "hex": "6a4c500000781a0001df7057ef6d3dfe1d072e502d019d6ddc0f1b8ff117702940d64fa54d8eb227026f8ee00e0da3470aa859b12bdaa45baa1cde0614814ff37bef711d100759d4ba30d2c37bb011d97e02cf", "asm": "OP_RETURN 0000781a0001df7057ef6d3dfe1d072e502d019d6ddc0f1b8ff117702940d64fa54d8eb227026f8ee00e0da3470aa859b12bdaa45baa1cde0614814ff37bef711d100759d4ba30d2c37bb011d97e02cf"}, "value": 0.0, "n": 0}, {"scriptPubKey": {"reqSigs": 1, "hex": "76a91481555408f4f244890b8c94b425693157787a945988ac", "addresses": ["1CnrPTYeJfYrjT1sWhfJ4d7ooDqsmouhjD"], "asm": "OP_DUP OP_HASH160 81555408f4f244890b8c94b425693157787a9459 OP_EQUALVERIFY OP_CHECKSIG", "type": "pubkeyhash"}, "value": 0.00628592, "n": 1}], "hex": "0100000001ab79ee93b56cee5fcf18bcb2ad0844a7b6fa71ba21cb465a785f12061452731f010000006a4730440220495f33883a0ad697f95144c6c90541f481edd058fae72ae2b47ffb28a41bff0202206193b99a3edbab7ba1f02a64265dadabadb0ab6a4b871bec3bde49b9041a6adf012102175c9ea44203f6bfbd36073faa9f422e9bbde098298182a7c25ad22672c3e8b5ffffffff020000000000000000536a4c500000781a0001df7057ef6d3dfe1d072e502d019d6ddc0f1b8ff117702940d64fa54d8eb227026f8ee00e0da3470aa859b12bdaa45baa1cde0614814ff37bef711d100759d4ba30d2c37bb011d97e02cf70970900000000001976a91481555408f4f244890b8c94b425693157787a945988ac00000000", "vin": [{"sequence": 4294967295, "scriptSig": {"hex": "4730440220495f33883a0ad697f95144c6c90541f481edd058fae72ae2b47ffb28a41bff0202206193b99a3edbab7ba1f02a64265dadabadb0ab6a4b871bec3bde49b9041a6adf012102175c9ea44203f6bfbd36073faa9f422e9bbde098298182a7c25ad22672c3e8b5", "asm": "30440220495f33883a0ad697f95144c6c90541f481edd058fae72ae2b47ffb28a41bff0202206193b99a3edbab7ba1f02a64265dadabadb0ab6a4b871bec3bde49b9041a6adf[ALL] 02175c9ea44203f6bfbd36073faa9f422e9bbde098298182a7c25ad22672c3e8b5"}, "vout": 1, "txid": "1f73521406125f785a46cb21ba71fab6a74408adb2bc18cf5fee6cb593ee79ab"}], "txid": "866c5b11aaf12075a275d7740b5397d79c3f9bfbb3d81da5108c381ad3888ec8", "blocktime": 1537876114, "version": 1, "confirmations": 11460, "time": 1537876114, "locktime": 0, "vsize": 283, "size": 283}