{"hash": "e1e6ce470520f73adebfe56d8627432ea3ab390dfff89f32199d7d601f374a21", "blockhash": "0000000000000000001f76057863aec43deb6fa401d9628bb513d65a8098bfab", "vout": [{"scriptPubKey": {"reqSigs": 1, "hex": "00147ebf88c52261eef537d8b2098783d97bea370443", "addresses": ["bc1q06lc33fzv8h02d7ckgyc0q7e004rwpzr54r9wz"], "asm": "0 7ebf88c52261eef537d8b2098783d97bea370443", "type": "witness_v0_keyhash"}, "value": 0.00013171, "n": 0}, {"scriptPubKey": {"reqSigs": 1, "hex": "a9147d5bbbe5610042b8b879771f8654071e8f356e2987", "addresses": ["3D7rHJxborXFAbijbE9ZrL8opkURgts2Bd"], "asm": "OP_HASH160 7d5bbbe5610042b8b879771f8654071e8f356e29 OP_EQUAL", "type": "scripthash"}, "value": 0.00512598, "n": 1}], "hex": "010000000001013ed4e901b45817d6a0e789735734471125b7e97a90b7c31faf0683021b8cee5d0000000000ffffffff0273330000000000001600147ebf88c52261eef537d8b2098783d97bea37044356d207000000000017a9147d5bbbe5610042b8b879771f8654071e8f356e298702473044022012c6fe733b01b68a37ea0abd3e379d2f5172bc2e9c04c6aff5d9ece7f1e4e6a7022008bbed5209dcb1936ee7983b4d494809e553e15aa736da8168dc7635908980cf012102858b3c04bc71660ae5c66a358030fbe29ce97bfe7b1757fc3c6d41c2b2cd185100000000", "vin": [{"txinwitness": ["3044022012c6fe733b01b68a37ea0abd3e379d2f5172bc2e9c04c6aff5d9ece7f1e4e6a7022008bbed5209dcb1936ee7983b4d494809e553e15aa736da8168dc7635908980cf01", "02858b3c04bc71660ae5c66a358030fbe29ce97bfe7b1757fc3c6d41c2b2cd1851"], "sequence": 4294967295, "scriptSig": {"hex": "", "asm": ""}, "vout": 0, "txid": "5dee8c1b028306af1fc3b7907ae9b725114734577389e7a0d61758b401e9d43e"}], "txid": "866e3564557dcabb179bd7637d1316dd056538f769ce1ee77d6193cde8a8983f", "blocktime": 1537873891, "version": 1, "confirmations": 11478, "time": 1537873891, "locktime": 0, "vsize": 142, "size": 223}