{"hash": "45a7080570220cd08c69e3bd540a613360cfa2f066cf4654baca2603cb7aac95", "blockhash": "000000000000000000022b45ed06c6f4ccd3cf7fb5ba4856ebd2e58215665228", "vout": [{"scriptPubKey": {"reqSigs": 1, "hex": "a91441dd662626e40739ab6718180d593d8e77e6e85b87", "addresses": ["37hH55xZodZoNduNfL1ys83YmFoRBs8etP"], "asm": "OP_HASH160 41dd662626e40739ab6718180d593d8e77e6e85b OP_EQUAL", "type": "scripthash"}, "value": 0.01032446, "n": 0}, {"scriptPubKey": {"reqSigs": 1, "hex": "a91484539f82229b44f8fa80ed182aec8960cbc6142b87", "addresses": ["3DkhJ6gamcDfDRqjg2DRtu8VcLh38wnT6y"], "asm": "OP_HASH160 84539f82229b44f8fa80ed182aec8960cbc6142b OP_EQUAL", "type": "scripthash"}, "value": 0.002, "n": 1}], "hex": "020000000001030f0a430ebee3f63aeed0c79f1f1d237fd85e52edb21774a15dc95dc14059935a0100000017160014169c13a9b7ba2c52b2879cc42b1ffde6c48dbab1feffffff684154a2c7884b191fc3c227a6859032a37979c3e4ff59337d3a37a36e6fb1860100000017160014cfb3de077a6607beaabe5d0460dced1355150944feffffffc2f534b0af9f5250325c153d1ab812841d281febf6f832a25106eba6f7f8e5250000000017160014e1d17cc7e8d63caac82403aac7057a22145871c2feffffff02fec00f000000000017a91441dd662626e40739ab6718180d593d8e77e6e85b87400d03000000000017a91484539f82229b44f8fa80ed182aec8960cbc6142b8702473044022075e17e7b771705bfe8541ca5b1d98b6b192a47d029c76235921f4d1e1703aad302201bb21fd7ca0e390e972b82a97b9e9c400583b6d9f33ecf7c0258d21b1306d5580121038af5b02a5c46acd8d82c6a1f565c999c1d73c7558a07189aead16cff3907c40802483045022100c673f673081444f3e49cdf18b64b567e92110d5b0ad66a56d97ba009ce7282ea0220450477a47761c5371bbe3d8adaed19b4102162a35ee9922490f387c62cbc3b87012102f77b226639e5912bd248ecc46715c986ea73dd190e9716020aa87a7c36885b1d024830450221008424c559a9e0b08413f17275123620272af69052b8a667ddbb22f9c3c87c5fab0220051efb0b4a8cc1a49b79d0651448a1e2186fc6b773ebabe38e669d8d73a3f52d012102c13b317dc7bc3ceb620aebbb3f8a4a14af76ae535f8bddd38228088829bb1c070b490800", "vin": [{"txinwitness": ["3044022075e17e7b771705bfe8541ca5b1d98b6b192a47d029c76235921f4d1e1703aad302201bb21fd7ca0e390e972b82a97b9e9c400583b6d9f33ecf7c0258d21b1306d55801", "038af5b02a5c46acd8d82c6a1f565c999c1d73c7558a07189aead16cff3907c408"], "sequence": 4294967294, "scriptSig": {"hex": "160014169c13a9b7ba2c52b2879cc42b1ffde6c48dbab1", "asm": "0014169c13a9b7ba2c52b2879cc42b1ffde6c48dbab1"}, "vout": 1, "txid": "5a935940c15dc95da17417b2ed525ed87f231d1f9fc7d0ee3af6e3be0e430a0f"}, {"txinwitness": ["3045022100c673f673081444f3e49cdf18b64b567e92110d5b0ad66a56d97ba009ce7282ea0220450477a47761c5371bbe3d8adaed19b4102162a35ee9922490f387c62cbc3b8701", "02f77b226639e5912bd248ecc46715c986ea73dd190e9716020aa87a7c36885b1d"], "sequence": 4294967294, "scriptSig": {"hex": "160014cfb3de077a6607beaabe5d0460dced1355150944", "asm": "0014cfb3de077a6607beaabe5d0460dced1355150944"}, "vout": 1, "txid": "86b16f6ea3373a7d3359ffe4c37979a3329085a627c2c31f194b88c7a2544168"}, {"txinwitness": ["30450221008424c559a9e0b08413f17275123620272af69052b8a667ddbb22f9c3c87c5fab0220051efb0b4a8cc1a49b79d0651448a1e2186fc6b773ebabe38e669d8d73a3f52d01", "02c13b317dc7bc3ceb620aebbb3f8a4a14af76ae535f8bddd38228088829bb1c07"], "sequence": 4294967294, "scriptSig": {"hex": "160014e1d17cc7e8d63caac82403aac7057a22145871c2", "asm": "0014e1d17cc7e8d63caac82403aac7057a22145871c2"}, "vout": 0, "txid": "25e5f8f7a6eb0651a232f8f6eb1f281d8412b81a3d155c3250529fafb034f5c2"}], "txid": "8676d6f8fdecfd9eb88f3faf710addf0d81a38c2edcfe752c85c33c1fdee29b5", "blocktime": 1537869901, "version": 2, "confirmations": 11522, "time": 1537869901, "locktime": 542987, "vsize": 348, "size": 591}