{"hash": "867b51ed595e1a2830303083fdbd68386b4bc3dbbee6be97f84c07df3d4302f2", "blockhash": "0000000000000000000e13cef7c366c0283d82e591d1acd082e914b08063cdf1", "vout": [{"scriptPubKey": {"reqSigs": 1, "hex": "a914fecd1d602e75b33d2a88eb9aeabb9064821a3a4a87", "addresses": ["3QvHGteWuj8HtZqv6xiyvqo5jYWAAK1GwH"], "asm": "OP_HASH160 fecd1d602e75b33d2a88eb9aeabb9064821a3a4a OP_EQUAL", "type": "scripthash"}, "value": 0.1134, "n": 0}, {"scriptPubKey": {"reqSigs": 1, "hex": "76a914d4f9229618d43ea2eb8163a90c3fae761091faf488ac", "addresses": ["1LR6hsx93Nr99ZUZfdctszZ1ezJfb6jUW6"], "asm": "OP_DUP OP_HASH160 d4f9229618d43ea2eb8163a90c3fae761091faf4 OP_EQUALVERIFY OP_CHECKSIG", "type": "pubkeyhash"}, "value": 0.0027652, "n": 1}], "hex": "0100000002afc34781fe5d7a683eb24af501e3766daef467b5779427ccdbf12fc2dd5f4c8b030000006b483045022100866d256af053ea308749560a12cbee6a2047e95a67b6ace9aa53a72ebf5d8c26022029f81fae010113adc2104a052489caf000dd5034757ab509a3d3459a011ddb6d012103b1e480ad1040821be8b02516185d4e4cc97817fa9fb0e8ce09ad001dccdcfbe0ffffffffabb92dc6ac9117a0437a88247e6103e38d1f6839e347d7f71239dac61d5377b7040000006a47304402201d73f24f50c954c4ebe69affdf905539a22c11f3b80a23a61100e14332e9362302206d7c8f0f63a2aaaa0cee976aab44310b9f35994cfe8b463a112fe95d5423454901210245591d9143b78c4e32209c4afef435339e1b2317449e9051dcca3a7bc5059c40ffffffff02e008ad000000000017a914fecd1d602e75b33d2a88eb9aeabb9064821a3a4a8728380400000000001976a914d4f9229618d43ea2eb8163a90c3fae761091faf488ac00000000", "vin": [{"sequence": 4294967295, "scriptSig": {"hex": "483045022100866d256af053ea308749560a12cbee6a2047e95a67b6ace9aa53a72ebf5d8c26022029f81fae010113adc2104a052489caf000dd5034757ab509a3d3459a011ddb6d012103b1e480ad1040821be8b02516185d4e4cc97817fa9fb0e8ce09ad001dccdcfbe0", "asm": "3045022100866d256af053ea308749560a12cbee6a2047e95a67b6ace9aa53a72ebf5d8c26022029f81fae010113adc2104a052489caf000dd5034757ab509a3d3459a011ddb6d[ALL] 03b1e480ad1040821be8b02516185d4e4cc97817fa9fb0e8ce09ad001dccdcfbe0"}, "vout": 3, "txid": "8b4c5fddc22ff1dbcc279477b567f4ae6d76e301f54ab23e687a5dfe8147c3af"}, {"sequence": 4294967295, "scriptSig": {"hex": "47304402201d73f24f50c954c4ebe69affdf905539a22c11f3b80a23a61100e14332e9362302206d7c8f0f63a2aaaa0cee976aab44310b9f35994cfe8b463a112fe95d5423454901210245591d9143b78c4e32209c4afef435339e1b2317449e9051dcca3a7bc5059c40", "asm": "304402201d73f24f50c954c4ebe69affdf905539a22c11f3b80a23a61100e14332e9362302206d7c8f0f63a2aaaa0cee976aab44310b9f35994cfe8b463a112fe95d54234549[ALL] 0245591d9143b78c4e32209c4afef435339e1b2317449e9051dcca3a7bc5059c40"}, "vout": 4, "txid": "b777531dc6da3912f7d747e339681f8de303617e24887a43a01791acc62db9ab"}], "txid": "867b51ed595e1a2830303083fdbd68386b4bc3dbbee6be97f84c07df3d4302f2", "blocktime": 1537871767, "version": 1, "confirmations": 11490, "time": 1537871767, "locktime": 0, "vsize": 371, "size": 371}