{"hash": "867d26cfa728f83ff87ba0c4996544ab4db39b52ff29d42cbfd8f595eb30f9fc", "blockhash": "0000000000000000001e0dab787dd257d1dbfcb92a98c2207d5e1078be1f4165", "vout": [{"scriptPubKey": {"reqSigs": 1, "hex": "76a9141d38f6729eb61a4a22ff1cc62a88d449f3b84f1788ac", "addresses": ["13fWqQCLnxYkmqtHJxGdeWkhvZtcpY7dhC"], "asm": "OP_DUP OP_HASH160 1d38f6729eb61a4a22ff1cc62a88d449f3b84f17 OP_EQUALVERIFY OP_CHECKSIG", "type": "pubkeyhash"}, "value": 6.764e-05, "n": 0}, {"scriptPubKey": {"reqSigs": 1, "hex": "76a914ee3ec22654e6bee74ad65f934456b7a2197d4d3588ac", "addresses": ["1Nij1Bm9KAV7bjVXzojuSpFNZVtN5B5Yzz"], "asm": "OP_DUP OP_HASH160 ee3ec22654e6bee74ad65f934456b7a2197d4d35 OP_EQUALVERIFY OP_CHECKSIG", "type": "pubkeyhash"}, "value": 0.0038, "n": 1}], "hex": "0100000003ee5c0d8156dea3a2720f7ef2b7af41d6f3f47e227ef1abd23707333f602f0824000000006a473044022021a6e37e9bcd3cb35c919bc07c8682c252b1d74c0ab58b546d4679ab2851c835022065088797a6ea05c223835585b08a6d08a9df4f711af5cc5c65ca5009eeac9d95012103a0bfafa01dbad95aff593ecc84a12ae9448e84721538a33c6e45db8213fd65d5fffffffff82f9532b2773bf572ae04ee1e76e00a056efc4adc4fa3bf95622878586c294b000000006a473044022061107bb264b24d63a7dc7d3a1b3f25d7502bc5a2523a16d6a50382380b5d9f1502204dac00c43c3a59c8c0cd66d6f27a298a370f3f17e95bc4c2ea2fd0dd8f263ebc0121024831d42c64477948a08c1d3039d93992a7014353c05f30958401575a811226b5ffffffff4b4c8b8e920e5d903ab104d5cd5a6ce3ce0d676fc71a55a3197fb5ed2d81008c000000006b4830450221009168e97ab880315f6a44241c180be9619362ba488485d8d449f8a04fb163fd0d022025d4eaab36f111984414e33cc26aa1c23de264c4d8e07a05d8419203419051b60121026e8675a139d4ee59637bd8488ea1d7195fff36cbd1bbdb6dd7c9c73e25d50138ffffffff026c1a0000000000001976a9141d38f6729eb61a4a22ff1cc62a88d449f3b84f1788ac60cc0500000000001976a914ee3ec22654e6bee74ad65f934456b7a2197d4d3588ac00000000", "vin": [{"sequence": 4294967295, "scriptSig": {"hex": "473044022021a6e37e9bcd3cb35c919bc07c8682c252b1d74c0ab58b546d4679ab2851c835022065088797a6ea05c223835585b08a6d08a9df4f711af5cc5c65ca5009eeac9d95012103a0bfafa01dbad95aff593ecc84a12ae9448e84721538a33c6e45db8213fd65d5", "asm": "3044022021a6e37e9bcd3cb35c919bc07c8682c252b1d74c0ab58b546d4679ab2851c835022065088797a6ea05c223835585b08a6d08a9df4f711af5cc5c65ca5009eeac9d95[ALL] 03a0bfafa01dbad95aff593ecc84a12ae9448e84721538a33c6e45db8213fd65d5"}, "vout": 0, "txid": "24082f603f330737d2abf17e227ef4f3d641afb7f27e0f72a2a3de56810d5cee"}, {"sequence": 4294967295, "scriptSig": {"hex": "473044022061107bb264b24d63a7dc7d3a1b3f25d7502bc5a2523a16d6a50382380b5d9f1502204dac00c43c3a59c8c0cd66d6f27a298a370f3f17e95bc4c2ea2fd0dd8f263ebc0121024831d42c64477948a08c1d3039d93992a7014353c05f30958401575a811226b5", "asm": "3044022061107bb264b24d63a7dc7d3a1b3f25d7502bc5a2523a16d6a50382380b5d9f1502204dac00c43c3a59c8c0cd66d6f27a298a370f3f17e95bc4c2ea2fd0dd8f263ebc[ALL] 024831d42c64477948a08c1d3039d93992a7014353c05f30958401575a811226b5"}, "vout": 0, "txid": "4b296c5878286295bfa34fdc4afc6e050ae0761eee04ae72f53b77b232952ff8"}, {"sequence": 4294967295, "scriptSig": {"hex": "4830450221009168e97ab880315f6a44241c180be9619362ba488485d8d449f8a04fb163fd0d022025d4eaab36f111984414e33cc26aa1c23de264c4d8e07a05d8419203419051b60121026e8675a139d4ee59637bd8488ea1d7195fff36cbd1bbdb6dd7c9c73e25d50138", "asm": "30450221009168e97ab880315f6a44241c180be9619362ba488485d8d449f8a04fb163fd0d022025d4eaab36f111984414e33cc26aa1c23de264c4d8e07a05d8419203419051b6[ALL] 026e8675a139d4ee59637bd8488ea1d7195fff36cbd1bbdb6dd7c9c73e25d50138"}, "vout": 0, "txid": "8c00812dedb57f19a3551ac76f670dcee36c5acdd504b13a905d0e928e8b4c4b"}], "txid": "867d26cfa728f83ff87ba0c4996544ab4db39b52ff29d42cbfd8f595eb30f9fc", "blocktime": 1537872475, "version": 1, "confirmations": 11487, "time": 1537872475, "locktime": 0, "vsize": 520, "size": 520}