{"hash": "6a7c127f02b4035e49269cbf6e16f98d14051d694a1aa5107aca36565fa819d3", "blockhash": "0000000000000000001cda96e906b7601b7a6fb1a3b62bca570a9e5d8f4b3de1", "vout": [{"scriptPubKey": {"reqSigs": 1, "hex": "a914c3220209959775b01ef9a3023e861cb61609192887", "addresses": ["3KUnRs8Pv6Uz53Pv7qDjp7avLrj5kYqgzs"], "asm": "OP_HASH160 c3220209959775b01ef9a3023e861cb616091928 OP_EQUAL", "type": "scripthash"}, "value": 13.01251742, "n": 0}, {"scriptPubKey": {"reqSigs": 1, "hex": "a914bbca80c7a294eee582c3c183c016c0aaa5fa0d8987", "addresses": ["3JoxsaGPnus8Dj4YtFC8DYbr7WMUHFFeSG"], "asm": "OP_HASH160 bbca80c7a294eee582c3c183c016c0aaa5fa0d89 OP_EQUAL", "type": "scripthash"}, "value": 0.01657323, "n": 1}, {"scriptPubKey": {"reqSigs": 1, "hex": "a91489417659e3794a69df71cc070fc00e8816107b3087", "addresses": ["3ECkvE2papuWzCaKvRCrKUyXpposJyfucM"], "asm": "OP_HASH160 89417659e3794a69df71cc070fc00e8816107b30 OP_EQUAL", "type": "scripthash"}, "value": 0.066, "n": 2}], "hex": "02000000000101cdbf6358d6c3b8929ee8e7d7c4d8a773305297d537f404b6743e7b30ec68bc6001000000171600142768cbd5accb7ac1fedd151ebd17523cba766a8afeffffff039e868f4d0000000017a914c3220209959775b01ef9a3023e861cb61609192887eb4919000000000017a914bbca80c7a294eee582c3c183c016c0aaa5fa0d898740b564000000000017a91489417659e3794a69df71cc070fc00e8816107b308702483045022100ad27578298e6a0cd534c1bbdaf10b93d78c4412b5a2261f63f74645addcb6def0220783471dd92ee1d8eb18c2231c54aa2b9cc22624c9026e31e1af8353a67bc68d9012102e8a36c6cd3dab059a949e4fc6b16b2901cc8f1f96a1d34b1a815866c08ea556a13490800", "vin": [{"txinwitness": ["3045022100ad27578298e6a0cd534c1bbdaf10b93d78c4412b5a2261f63f74645addcb6def0220783471dd92ee1d8eb18c2231c54aa2b9cc22624c9026e31e1af8353a67bc68d901", "02e8a36c6cd3dab059a949e4fc6b16b2901cc8f1f96a1d34b1a815866c08ea556a"], "sequence": 4294967294, "scriptSig": {"hex": "1600142768cbd5accb7ac1fedd151ebd17523cba766a8a", "asm": "00142768cbd5accb7ac1fedd151ebd17523cba766a8a"}, "vout": 1, "txid": "60bc68ec307b3e74b604f437d597523073a7d8c4d7e7e89e92b8c3d65863bfcd"}], "txid": "868f43d9035adefd0d81bd282b1c32bbcc5323bc625c35a31f309077fe208f40", "blocktime": 1537873282, "version": 2, "confirmations": 11481, "time": 1537873282, "locktime": 542995, "vsize": 198, "size": 280}