{"hash": "a8f39fd53f87e9617f06848040243a8a6eb62607b421c76a12fdda8b7abaf6a2", "blockhash": "0000000000000000001cda96e906b7601b7a6fb1a3b62bca570a9e5d8f4b3de1", "vout": [{"scriptPubKey": {"reqSigs": 1, "hex": "a914cd72e9202c958ca260e33152c0b18ab86f79903887", "addresses": ["3LRL6zzheWZEcdFcgHHh5t5zeFADXf1wUP"], "asm": "OP_HASH160 cd72e9202c958ca260e33152c0b18ab86f799038 OP_EQUAL", "type": "scripthash"}, "value": 0.0059446, "n": 0}, {"scriptPubKey": {"reqSigs": 1, "hex": "a914b0f85278ed1262ba5bd20f16e7a4d8aeedbf0e2d87", "addresses": ["3HpkL2oa5P4ak2RUWesNQxZczdwPekUAcz"], "asm": "OP_HASH160 b0f85278ed1262ba5bd20f16e7a4d8aeedbf0e2d OP_EQUAL", "type": "scripthash"}, "value": 0.04123922, "n": 1}], "hex": "010000000001017fe1c81857007dd9a2ab3982febcc60ea023d99ee0fc58ba3c7687d81cca88820400000023220020cd458d5b72141a997c72f8c1f12613459d2b858d968d5d706322fce1e139dfaeffffffff021c1209000000000017a914cd72e9202c958ca260e33152c0b18ab86f7990388712ed3e000000000017a914b0f85278ed1262ba5bd20f16e7a4d8aeedbf0e2d870400473044022059519fdd833e558036442751e5d5498fe7c1fc8c23eec3b01db94362b950d58402206bd0c9f379c3b1ca1253a1448c4a5eac68cc5eb7e684c969cdbdd376fbaea9cd01473044022075a0dbc0fe9d2db8ad6e25c720eaa1cc2e9f1e8bfec64eb8178d58f02617754a022043e5287c298b39418e53ed837374b95f5b64ff84574d60fd493f2b62b99756b80147522103862cd2d7a47e5f462155914ab010417d56a2d83e57b09344b12f693e1350b30f2102fe148860bf4c8d44d75e23a5c2725d8753409e0b3427bbe5a1cc1a3cb2b72ca652ae00000000", "vin": [{"txinwitness": ["", "3044022059519fdd833e558036442751e5d5498fe7c1fc8c23eec3b01db94362b950d58402206bd0c9f379c3b1ca1253a1448c4a5eac68cc5eb7e684c969cdbdd376fbaea9cd01", "3044022075a0dbc0fe9d2db8ad6e25c720eaa1cc2e9f1e8bfec64eb8178d58f02617754a022043e5287c298b39418e53ed837374b95f5b64ff84574d60fd493f2b62b99756b801", "522103862cd2d7a47e5f462155914ab010417d56a2d83e57b09344b12f693e1350b30f2102fe148860bf4c8d44d75e23a5c2725d8753409e0b3427bbe5a1cc1a3cb2b72ca652ae"], "sequence": 4294967295, "scriptSig": {"hex": "220020cd458d5b72141a997c72f8c1f12613459d2b858d968d5d706322fce1e139dfae", "asm": "0020cd458d5b72141a997c72f8c1f12613459d2b858d968d5d706322fce1e139dfae"}, "vout": 4, "txid": "8288ca1cd887763cba58fce09ed923a00ec6bcfe8239aba2d97d005718c8e17f"}], "txid": "8697cf0a98a18a713d765fa9c9de43e0fa67116460644668201de6860df72cfe", "blocktime": 1537873282, "version": 1, "confirmations": 11484, "time": 1537873282, "locktime": 0, "vsize": 205, "size": 370}