{"hash": "fcc939cead7645c3b260f9867a8ca07f4fba8db161abca156edf8be4122da183", "blockhash": "00000000000000000018f53835495a110e01622372bf6ae95dc86f2b0ab887b0", "vout": [{"scriptPubKey": {"reqSigs": 1, "hex": "a9141988a27e3c2df4ddee7fad5a2303d086179b2a3087", "addresses": ["3422VtS7UtCvXYxoXMVp6eZupR252z85oC"], "asm": "OP_HASH160 1988a27e3c2df4ddee7fad5a2303d086179b2a30 OP_EQUAL", "type": "scripthash"}, "value": 1.06459503, "n": 0}, {"scriptPubKey": {"reqSigs": 1, "hex": "76a914b86449fb352be1a985bd8bacbb6de05a0b66114488ac", "addresses": ["1HoyUVt52Z2uaKwz6C2vFSeAKHdd76bDKh"], "asm": "OP_DUP OP_HASH160 b86449fb352be1a985bd8bacbb6de05a0b661144 OP_EQUALVERIFY OP_CHECKSIG", "type": "pubkeyhash"}, "value": 0.00779666, "n": 1}, {"scriptPubKey": {"reqSigs": 1, "hex": "76a91455c5ad3866c1b359120ce0de328970d08f5bacab88ac", "addresses": ["18pXF7vq8ysUWP3VqNtmKR9iZtw8sWzq4k"], "asm": "OP_DUP OP_HASH160 55c5ad3866c1b359120ce0de328970d08f5bacab OP_EQUALVERIFY OP_CHECKSIG", "type": "pubkeyhash"}, "value": 0.00187472, "n": 2}], "hex": "010000000001015f72af20962c4ca973cc892939b485257b0fa3e7ce7338aefff56ce8d0d82dbe020000002322002065d416c48a8072e0ac51c2d111eb194f009caef0332446c1bf2097316cf07fa9ffffffff036f7158060000000017a9141988a27e3c2df4ddee7fad5a2303d086179b2a308792e50b00000000001976a914b86449fb352be1a985bd8bacbb6de05a0b66114488ac50dc0200000000001976a91455c5ad3866c1b359120ce0de328970d08f5bacab88ac0400483045022100cd4ec2c827cbc5731e6003eb5467feff09b3b99858ed5aac37b8e155099e3fa202206d55580931d14f428159693b9b59c03e63bb1316fb3fd3973371f3d978e35ca501483045022100ada078e8dcf87ff83e39bdfb61258757c34b5d800aea348869bf66d527fcb78d022053adf5016e934d900fc052fd73093acf7bdb16b51fb6a3865f68702a4c4aa6b30169522102f44abcf9e23c9a460da309ccca56c619c04eed3bde2c2cff5e7d78fbcd980b9c2103c9443cf3047bb6c2c82f1b0c44c36109cdc3d0d601d16d1189a1602bf8d1a0a02103bfe867059274412412e088af5572b92168c2ef495cfe6c9b7a753a009eb37c4853ae00000000", "vin": [{"txinwitness": ["", "3045022100cd4ec2c827cbc5731e6003eb5467feff09b3b99858ed5aac37b8e155099e3fa202206d55580931d14f428159693b9b59c03e63bb1316fb3fd3973371f3d978e35ca501", "3045022100ada078e8dcf87ff83e39bdfb61258757c34b5d800aea348869bf66d527fcb78d022053adf5016e934d900fc052fd73093acf7bdb16b51fb6a3865f68702a4c4aa6b301", "522102f44abcf9e23c9a460da309ccca56c619c04eed3bde2c2cff5e7d78fbcd980b9c2103c9443cf3047bb6c2c82f1b0c44c36109cdc3d0d601d16d1189a1602bf8d1a0a02103bfe867059274412412e088af5572b92168c2ef495cfe6c9b7a753a009eb37c4853ae"], "sequence": 4294967295, "scriptSig": {"hex": "22002065d416c48a8072e0ac51c2d111eb194f009caef0332446c1bf2097316cf07fa9", "asm": "002065d416c48a8072e0ac51c2d111eb194f009caef0332446c1bf2097316cf07fa9"}, "vout": 2, "txid": "be2dd8d0e86cf5ffae3873cee7a30f7b2585b4392989cc73a94c2c9620af725f"}], "txid": "86a3103d27d9d5e7b7df12ba4e112814f337696709a23cc428cb7b7d016ef24d", "blocktime": 1537870928, "version": 1, "confirmations": 11512, "time": 1537870928, "locktime": 0, "vsize": 250, "size": 442}