{"hash": "9a18820fb89276049188a7a2227d48609e3daf42f6407391ebf2a71637906819", "blockhash": "00000000000000000018f53835495a110e01622372bf6ae95dc86f2b0ab887b0", "vout": [{"scriptPubKey": {"reqSigs": 1, "hex": "a9146becda855297806622dc1baa15a6581c594022a687", "addresses": ["3BXfxwpgdAwnYNh48oEXMg31oFVn1CCsz6"], "asm": "OP_HASH160 6becda855297806622dc1baa15a6581c594022a6 OP_EQUAL", "type": "scripthash"}, "value": 0.01798924, "n": 0}, {"scriptPubKey": {"reqSigs": 1, "hex": "76a914ba8efe7a0594db69b05542ade49791711cf8788388ac", "addresses": ["1J1Rz5i897uaK512cg8x6pJ92YPvLLaBx3"], "asm": "OP_DUP OP_HASH160 ba8efe7a0594db69b05542ade49791711cf87883 OP_EQUALVERIFY OP_CHECKSIG", "type": "pubkeyhash"}, "value": 0.002, "n": 1}], "hex": "01000000000101c26c7e51f329fe681a5d712dace25ec3e060ffd881c8354fc8f684375c3db0c3a6010000232200202263ce9b9ade023b974b7f448c1f0c63d06dfa2ceb427e73e1001cd86130f5eaffffffff020c731b000000000017a9146becda855297806622dc1baa15a6581c594022a687400d0300000000001976a914ba8efe7a0594db69b05542ade49791711cf8788388ac0400483045022100e771fa7a7d70577beaac2601e7d5cedf2789bf70c3ef64c293fd0c52cf8e256b02204efd55d788646c6966619bba5093b086571f63a321acef31116518ef940a67980147304402203cb8dcdae92ae0d25e7e28038c746f7d096b46ef7cd311c4638dd2170b9d149002200c35856ea363e89ba14768aff07993ff1419a6c8e74bf6b9ffbbfcae38e78ec2016952210219c6412311671b9a98f078a0ab221f0b017dd3558296445c357b630b020eeede2103320b3dd053b87d3821160fa1dbdd209c3c2951d0c44ee40fbe010d156763a4122103466ebf73b817068f46347159f48de7956472db0b16bea30929234bdbe801676f53ae00000000", "vin": [{"txinwitness": ["", "3045022100e771fa7a7d70577beaac2601e7d5cedf2789bf70c3ef64c293fd0c52cf8e256b02204efd55d788646c6966619bba5093b086571f63a321acef31116518ef940a679801", "304402203cb8dcdae92ae0d25e7e28038c746f7d096b46ef7cd311c4638dd2170b9d149002200c35856ea363e89ba14768aff07993ff1419a6c8e74bf6b9ffbbfcae38e78ec201", "52210219c6412311671b9a98f078a0ab221f0b017dd3558296445c357b630b020eeede2103320b3dd053b87d3821160fa1dbdd209c3c2951d0c44ee40fbe010d156763a4122103466ebf73b817068f46347159f48de7956472db0b16bea30929234bdbe801676f53ae"], "sequence": 4294967295, "scriptSig": {"hex": "2200202263ce9b9ade023b974b7f448c1f0c63d06dfa2ceb427e73e1001cd86130f5ea", "asm": "00202263ce9b9ade023b974b7f448c1f0c63d06dfa2ceb427e73e1001cd86130f5ea"}, "vout": 422, "txid": "c3b03d5c3784f6c84f35c881d8ff60e0c35ee2ac2d715d1a68fe29f3517e6cc2"}], "txid": "86a44d5777d690d71ef0382e523dea31b307f657cf7c3aa050bb4357d4bc088c", "blocktime": 1537870928, "version": 1, "confirmations": 11512, "time": 1537870928, "locktime": 0, "vsize": 216, "size": 407}