{"hash": "2b8651462bb307114cebb69537a815cea0e9fa644e7a68cf586ea8aa406955bc", "blockhash": "00000000000000000017f5eb5941039fbcee6240d03bc1f2f8e35350df66a1d8", "vout": [{"scriptPubKey": {"reqSigs": 1, "hex": "a914eb4c23543430401596e595b0a12cf30c71fd84b287", "addresses": ["3P99vnVSxr61iSz1cFj9VkBJWi43XtLXt4"], "asm": "OP_HASH160 eb4c23543430401596e595b0a12cf30c71fd84b2 OP_EQUAL", "type": "scripthash"}, "value": 1.69972301, "n": 0}, {"scriptPubKey": {"reqSigs": 1, "hex": "a914a548d0ab235721fc0fb93a7e2f6011b68ba900c987", "addresses": ["3GkxeUhcJp33FYbYVnYtyUiyuZdQbPQsP8"], "asm": "OP_HASH160 a548d0ab235721fc0fb93a7e2f6011b68ba900c9 OP_EQUAL", "type": "scripthash"}, "value": 0.00373198, "n": 1}], "hex": "01000000000101ba945b958e8704beafbf632542f86576f36941191ddfa60c2e3de432abfca5960100000023220020c51616bc0a5a1b0a98ffe7a55bbb62734d0db6196a9ef6e7d65dc9b7585ac9cfffffffff024d92210a0000000017a914eb4c23543430401596e595b0a12cf30c71fd84b287ceb105000000000017a914a548d0ab235721fc0fb93a7e2f6011b68ba900c9870400483045022100bc8b47b2e26e03808d66c1558e7b8c1d7ef084a77e34865857abdebaf27e659702207cd03c80ffdcc11cf8556e9aec312d931d78305c00f16c09af8cb61d126339a20147304402203259e5d8ea5e8cd569e59333d199fb1696557b093b03ce3f5bc2e0fd92e287be02206d5da97aba08c8eece97ba59d8eeaf0a2099c3e37c674a57aa66daca1bc7e0100169522102566054896672d0beb0eeb61cc6893dd0ff245f616e5596e2fd0e16470e2a4c442103564d4e87497345aec49276f25d9dcdfb4ed2e3f03d10e6ddf25bcb4fe5182efe2103fe274c2bb637f381e711224ccb7d12b62dfc4461d8a95b08f215469a6a4dd97153ae00000000", "vin": [{"txinwitness": ["", "3045022100bc8b47b2e26e03808d66c1558e7b8c1d7ef084a77e34865857abdebaf27e659702207cd03c80ffdcc11cf8556e9aec312d931d78305c00f16c09af8cb61d126339a201", "304402203259e5d8ea5e8cd569e59333d199fb1696557b093b03ce3f5bc2e0fd92e287be02206d5da97aba08c8eece97ba59d8eeaf0a2099c3e37c674a57aa66daca1bc7e01001", "522102566054896672d0beb0eeb61cc6893dd0ff245f616e5596e2fd0e16470e2a4c442103564d4e87497345aec49276f25d9dcdfb4ed2e3f03d10e6ddf25bcb4fe5182efe2103fe274c2bb637f381e711224ccb7d12b62dfc4461d8a95b08f215469a6a4dd97153ae"], "sequence": 4294967295, "scriptSig": {"hex": "220020c51616bc0a5a1b0a98ffe7a55bbb62734d0db6196a9ef6e7d65dc9b7585ac9cf", "asm": "0020c51616bc0a5a1b0a98ffe7a55bbb62734d0db6196a9ef6e7d65dc9b7585ac9cf"}, "vout": 1, "txid": "96a5fcab32e43d2e0ca6df1d194169f37665f8422563bfafbe04878e955b94ba"}], "txid": "86ad234f9fba123be53a7bd03baa41622d33a7d4aeefedf748b354d3e6335c00", "blocktime": 1537874412, "version": 1, "confirmations": 11467, "time": 1537874412, "locktime": 0, "vsize": 214, "size": 405}