{"hash": "86b106d4f11362ba8a869737ed0d22c8e41e756f0602511092991ebe45ad46a7", "blockhash": "0000000000000000001f76057863aec43deb6fa401d9628bb513d65a8098bfab", "vout": [{"scriptPubKey": {"reqSigs": 1, "hex": "76a914a40d6717caa386a0b3eab1f0ec451ca43255b3d988ac", "addresses": ["1FxRshQJRnH6jZfiLmwjWA2dmK38MvA9TR"], "asm": "OP_DUP OP_HASH160 a40d6717caa386a0b3eab1f0ec451ca43255b3d9 OP_EQUALVERIFY OP_CHECKSIG", "type": "pubkeyhash"}, "value": 0.00807644, "n": 0}], "hex": "0100000001012a57fdf376435e6de47fcc39ca639cdd7380f90d58bc578c818303438ecbd7000000006a473044022007102b21f3ba888e1d15d8a103bffc470621dc128464e7485e924e164a4604130220119450d7691e64f5c8afc901c3e5515cdd15f4ccbc8a5b524661aee82a27642f0121023b40052ffabf68a6a971ba0708ca10479c8c4c376d0e741f135ff95217f7adf1ffffffff01dc520c00000000001976a914a40d6717caa386a0b3eab1f0ec451ca43255b3d988ac00000000", "vin": [{"sequence": 4294967295, "scriptSig": {"hex": "473044022007102b21f3ba888e1d15d8a103bffc470621dc128464e7485e924e164a4604130220119450d7691e64f5c8afc901c3e5515cdd15f4ccbc8a5b524661aee82a27642f0121023b40052ffabf68a6a971ba0708ca10479c8c4c376d0e741f135ff95217f7adf1", "asm": "3044022007102b21f3ba888e1d15d8a103bffc470621dc128464e7485e924e164a4604130220119450d7691e64f5c8afc901c3e5515cdd15f4ccbc8a5b524661aee82a27642f[ALL] 023b40052ffabf68a6a971ba0708ca10479c8c4c376d0e741f135ff95217f7adf1"}, "vout": 0, "txid": "d7cb8e430383818c57bc580df98073dd9c63ca39cc7fe46d5e4376f3fd572a01"}], "txid": "86b106d4f11362ba8a869737ed0d22c8e41e756f0602511092991ebe45ad46a7", "blocktime": 1537873891, "version": 1, "confirmations": 11478, "time": 1537873891, "locktime": 0, "vsize": 191, "size": 191}