{"hash": "86b240d8b8fe6b2f7606042b1a63ef39c1bad3cf0d3dc2b473d8b17eebad9473", "blockhash": "0000000000000000001cda96e906b7601b7a6fb1a3b62bca570a9e5d8f4b3de1", "vout": [{"scriptPubKey": {"reqSigs": 1, "hex": "a914a74172f66a3ff460e010eda17feed31e2183bd2c87", "addresses": ["3GwPB4UVbjeBrZM1k2UuZFiJXLceU671MV"], "asm": "OP_HASH160 a74172f66a3ff460e010eda17feed31e2183bd2c OP_EQUAL", "type": "scripthash"}, "value": 0.0061614, "n": 0}, {"scriptPubKey": {"reqSigs": 1, "hex": "76a914044d6b8bbfac5e6f30ca65b314d749a1ca2b19a088ac", "addresses": ["1PkT1bVdwPL5yeY4SnpQBSDMofhtijfy6"], "asm": "OP_DUP OP_HASH160 044d6b8bbfac5e6f30ca65b314d749a1ca2b19a0 OP_EQUALVERIFY OP_CHECKSIG", "type": "pubkeyhash"}, "value": 0.04927632, "n": 1}], "hex": "0100000001bc06245b4c5ed9e878c37b02729c239b1b95f7dfbdaef07279b0ca249f7c67e0010000006b483045022100a67945694a0f2254fe5695020b162a52d9203a99e8dac36bafb0ac30b00f6b1702200d749cebbd0067018a09ef87ade50159ac1132a47611cb803bddfd2177a337f1012102e8e032e8033a751bfa34478368f940e833919d2c0406f1ab0d2079690967b29cffffffff02cc6609000000000017a914a74172f66a3ff460e010eda17feed31e2183bd2c8790304b00000000001976a914044d6b8bbfac5e6f30ca65b314d749a1ca2b19a088ac00000000", "vin": [{"sequence": 4294967295, "scriptSig": {"hex": "483045022100a67945694a0f2254fe5695020b162a52d9203a99e8dac36bafb0ac30b00f6b1702200d749cebbd0067018a09ef87ade50159ac1132a47611cb803bddfd2177a337f1012102e8e032e8033a751bfa34478368f940e833919d2c0406f1ab0d2079690967b29c", "asm": "3045022100a67945694a0f2254fe5695020b162a52d9203a99e8dac36bafb0ac30b00f6b1702200d749cebbd0067018a09ef87ade50159ac1132a47611cb803bddfd2177a337f1[ALL] 02e8e032e8033a751bfa34478368f940e833919d2c0406f1ab0d2079690967b29c"}, "vout": 1, "txid": "e0677c9f24cab07972f0aebddff7951b9b239c72027bc378e8d95e4c5b2406bc"}], "txid": "86b240d8b8fe6b2f7606042b1a63ef39c1bad3cf0d3dc2b473d8b17eebad9473", "blocktime": 1537873282, "version": 1, "confirmations": 11484, "time": 1537873282, "locktime": 0, "vsize": 224, "size": 224}