{"hash": "86b4f49793e7211ba5513e1d811953c788a9f03882e154fc8a7ed10167382c57", "blockhash": "0000000000000000001f76057863aec43deb6fa401d9628bb513d65a8098bfab", "vout": [{"scriptPubKey": {"reqSigs": 1, "hex": "76a9145e6e7e8ee448c16076c1641b86df5cd701a46f5088ac", "addresses": ["19cJtKHmdcgDNkJcQCPE8TGsAAKJ8XqrYS"], "asm": "OP_DUP OP_HASH160 5e6e7e8ee448c16076c1641b86df5cd701a46f50 OP_EQUALVERIFY OP_CHECKSIG", "type": "pubkeyhash"}, "value": 0.00182292, "n": 0}, {"scriptPubKey": {"reqSigs": 1, "hex": "76a914a15071744c9e75004ad981a1ece43aeab725319388ac", "addresses": ["1FhxAB9Kvg6uN8e8wMcJzayHqkgusKF19t"], "asm": "OP_DUP OP_HASH160 a15071744c9e75004ad981a1ece43aeab7253193 OP_EQUALVERIFY OP_CHECKSIG", "type": "pubkeyhash"}, "value": 0.10737032, "n": 1}], "hex": "0100000005fe826fea3a1c1b4da0972a4adc101cbc609b3f73b56c2285217c3eab59c6a320010000006b483045022100d7078116110b94b9341a37cebf6297931411b2828c2ab9141137ea344ce06e8202202c48cc2057b0444d57caff83873b63ca9f27655d18edabe9088a3b06b66d7d52012102deb6d54cd063505e56b120d0604dbe1f8327856562b7c01a10e51d6cb630f9dffffffffff49d5854f15519501772e6b3db6abec84963b912047cc93395cbb70e47983f6a000000006a47304402204d8fc07a01a9ca9485efa534d48eaad02bc71e373bb268b569b58e7748592a7b0220461100b00d6444c185f1dfde9440f4b08cfec9cb7027bbfe3e6edd26b516d1770121027abe3320e24da2ba6261a2e78332c9936f3610500362fedfb45e989f75276d57ffffffffde0040685512abbbefe95096fd2d4d8f3b0ea8fdded475bdbb0d27977c066572000000006a47304402201406d4292d7204ae8ae9dba144913fcc0d205d8b61b14ddae962828ed05c7bf702204ce19a5585c88e93449d883661f303caa3e0c9195806b07cf8ef00a32b9998f30121031722d4ea14361748a918932bcceebef780a476ecde677267dd2a2e28a36c5e6bffffffffa273a17451c756f6e9dc856c7c517bcbb52c2d360c5211c42a8b4e1712e802762d0000006b483045022100ab836076f0777f97ea9f0788a20c6db7fc690919ec29c0429850d8a200dffa2202201651566154c0100b962d26e064f402547ed352ab129234bcf17539ea2aca1d52012102de6ff9e10968dbed47de15c5900251eb906baf0eb13fff9793883fd76749d9f2ffffffff2b625607b5b6f077fae5302bd6e229c5e0ec37e6742660d5d1dd1941b168457b000000006b483045022100800f6b0b7de92ce32fffd5afb0db537b5694d49cb1ac380db42e95f290fdf05102206203146a0a647124af5f52c8675e6b7370477d8e9156a8a1dbb3165d6febadb2012102f6902e891b0040f932b17edc36a1b296a3748530bbfb7cc178450228d593f27dffffffff0214c80200000000001976a9145e6e7e8ee448c16076c1641b86df5cd701a46f5088ac88d5a300000000001976a914a15071744c9e75004ad981a1ece43aeab725319388ac00000000", "vin": [{"sequence": 4294967295, "scriptSig": {"hex": "483045022100d7078116110b94b9341a37cebf6297931411b2828c2ab9141137ea344ce06e8202202c48cc2057b0444d57caff83873b63ca9f27655d18edabe9088a3b06b66d7d52012102deb6d54cd063505e56b120d0604dbe1f8327856562b7c01a10e51d6cb630f9df", "asm": "3045022100d7078116110b94b9341a37cebf6297931411b2828c2ab9141137ea344ce06e8202202c48cc2057b0444d57caff83873b63ca9f27655d18edabe9088a3b06b66d7d52[ALL] 02deb6d54cd063505e56b120d0604dbe1f8327856562b7c01a10e51d6cb630f9df"}, "vout": 1, "txid": "20a3c659ab3e7c2185226cb5733f9b60bc1c10dc4a2a97a04d1b1c3aea6f82fe"}, {"sequence": 4294967295, "scriptSig": {"hex": "47304402204d8fc07a01a9ca9485efa534d48eaad02bc71e373bb268b569b58e7748592a7b0220461100b00d6444c185f1dfde9440f4b08cfec9cb7027bbfe3e6edd26b516d1770121027abe3320e24da2ba6261a2e78332c9936f3610500362fedfb45e989f75276d57", "asm": "304402204d8fc07a01a9ca9485efa534d48eaad02bc71e373bb268b569b58e7748592a7b0220461100b00d6444c185f1dfde9440f4b08cfec9cb7027bbfe3e6edd26b516d177[ALL] 027abe3320e24da2ba6261a2e78332c9936f3610500362fedfb45e989f75276d57"}, "vout": 0, "txid": "6a3f98470eb7cb9533c97c0412b96349c8be6adbb3e67217501955f154589df4"}, {"sequence": 4294967295, "scriptSig": {"hex": "47304402201406d4292d7204ae8ae9dba144913fcc0d205d8b61b14ddae962828ed05c7bf702204ce19a5585c88e93449d883661f303caa3e0c9195806b07cf8ef00a32b9998f30121031722d4ea14361748a918932bcceebef780a476ecde677267dd2a2e28a36c5e6b", "asm": "304402201406d4292d7204ae8ae9dba144913fcc0d205d8b61b14ddae962828ed05c7bf702204ce19a5585c88e93449d883661f303caa3e0c9195806b07cf8ef00a32b9998f3[ALL] 031722d4ea14361748a918932bcceebef780a476ecde677267dd2a2e28a36c5e6b"}, "vout": 0, "txid": "7265067c97270dbbbd75d4defda80e3b8f4d2dfd9650e9efbbab1255684000de"}, {"sequence": 4294967295, "scriptSig": {"hex": "483045022100ab836076f0777f97ea9f0788a20c6db7fc690919ec29c0429850d8a200dffa2202201651566154c0100b962d26e064f402547ed352ab129234bcf17539ea2aca1d52012102de6ff9e10968dbed47de15c5900251eb906baf0eb13fff9793883fd76749d9f2", "asm": "3045022100ab836076f0777f97ea9f0788a20c6db7fc690919ec29c0429850d8a200dffa2202201651566154c0100b962d26e064f402547ed352ab129234bcf17539ea2aca1d52[ALL] 02de6ff9e10968dbed47de15c5900251eb906baf0eb13fff9793883fd76749d9f2"}, "vout": 45, "txid": "7602e812174e8b2ac411520c362d2cb5cb7b517c6c85dce9f656c75174a173a2"}, {"sequence": 4294967295, "scriptSig": {"hex": "483045022100800f6b0b7de92ce32fffd5afb0db537b5694d49cb1ac380db42e95f290fdf05102206203146a0a647124af5f52c8675e6b7370477d8e9156a8a1dbb3165d6febadb2012102f6902e891b0040f932b17edc36a1b296a3748530bbfb7cc178450228d593f27d", "asm": "3045022100800f6b0b7de92ce32fffd5afb0db537b5694d49cb1ac380db42e95f290fdf05102206203146a0a647124af5f52c8675e6b7370477d8e9156a8a1dbb3165d6febadb2[ALL] 02f6902e891b0040f932b17edc36a1b296a3748530bbfb7cc178450228d593f27d"}, "vout": 0, "txid": "7b4568b14119ddd1d5602674e637ece0c529e2d62b30e5fa77f0b6b50756622b"}], "txid": "86b4f49793e7211ba5513e1d811953c788a9f03882e154fc8a7ed10167382c57", "blocktime": 1537873891, "version": 1, "confirmations": 11478, "time": 1537873891, "locktime": 0, "vsize": 816, "size": 816}