{"hash": "b91b58d67cbbdd78fc9e5bc3d033bb7c0ab20e0b68bb52d8000b999168d570f7", "blockhash": "0000000000000000000baef3f32e3676a92c3b2e5da21b426e4f302fc371ce76", "vout": [{"scriptPubKey": {"reqSigs": 1, "hex": "76a914b572a322ba591441c078e71762390d3bc4fb9e8588ac", "addresses": ["1HYQdrhtEcNSdSDALXPXcsAjVtzT9RFAjt"], "asm": "OP_DUP OP_HASH160 b572a322ba591441c078e71762390d3bc4fb9e85 OP_EQUALVERIFY OP_CHECKSIG", "type": "pubkeyhash"}, "value": 0.5, "n": 0}, {"scriptPubKey": {"reqSigs": 1, "hex": "0020701a8d401c84fb13e6baf169d59684e17abd9fa216c8cc5b9fc63d622ff8c58d", "addresses": ["bc1qwqdg6squsna38e46795at95yu9atm8azzmyvckulcc7kytlcckxswvvzej"], "asm": "0 701a8d401c84fb13e6baf169d59684e17abd9fa216c8cc5b9fc63d622ff8c58d", "type": "witness_v0_scripthash"}, "value": 4.24985289, "n": 1}], "hex": "010000000001013328941ae1277e8162468b8b9309c090fd9f37f528c3ec3f0047a8d0d0ad88d00400000000ffffffff0280f0fa02000000001976a914b572a322ba591441c078e71762390d3bc4fb9e8588acc9c2541900000000220020701a8d401c84fb13e6baf169d59684e17abd9fa216c8cc5b9fc63d622ff8c58d04004830450221008914444e3cf50834c1379c735ba9819e8533adcfac31b80e2281f475cda1343502201e07c02db8411977e01fc581c2a29d8e8f966abfbeca6b256f44deeb69732d570147304402206f9c127b78d56692030a2751993a6e16934a909b6810db2d0f39f9aaf3defd60022035389d59eba0ad1fc46a8b67eba35674207ced163d641ae0305b692e79f234fd016952210375e00eb72e29da82b89367947f29ef34afb75e8654f6ea368e0acdfd92976b7c2103a1b26313f430c4b15bb1fdce663207659d8cac749a0e53d70eff01874496feff2103c96d495bfdd5ba4145e3e046fee45e84a8a48ad05bd8dbb395c011a32cf9f88053ae00000000", "vin": [{"txinwitness": ["", "30450221008914444e3cf50834c1379c735ba9819e8533adcfac31b80e2281f475cda1343502201e07c02db8411977e01fc581c2a29d8e8f966abfbeca6b256f44deeb69732d5701", "304402206f9c127b78d56692030a2751993a6e16934a909b6810db2d0f39f9aaf3defd60022035389d59eba0ad1fc46a8b67eba35674207ced163d641ae0305b692e79f234fd01", "52210375e00eb72e29da82b89367947f29ef34afb75e8654f6ea368e0acdfd92976b7c2103a1b26313f430c4b15bb1fdce663207659d8cac749a0e53d70eff01874496feff2103c96d495bfdd5ba4145e3e046fee45e84a8a48ad05bd8dbb395c011a32cf9f88053ae"], "sequence": 4294967295, "scriptSig": {"hex": "", "asm": ""}, "vout": 4, "txid": "d088add0d0a847003fecc328f5379ffd90c009938b8b4662817e27e11a942833"}], "txid": "86bdca7f33ab4a19646e3e8acf910398591c49685d2b461cb6eb775145040fd4", "blocktime": 1537876114, "version": 1, "confirmations": 11459, "time": 1537876114, "locktime": 0, "vsize": 192, "size": 383}