{"hash": "86c059345838fe906ab28317748eec7e805d0adc5653c77a9850e4adb3feb78e", "blockhash": "0000000000000000001cda96e906b7601b7a6fb1a3b62bca570a9e5d8f4b3de1", "vout": [{"scriptPubKey": {"reqSigs": 1, "hex": "76a91430267bc04d7ba8180d26434c6f7b61038535c09188ac", "addresses": ["15PbY5jSMjoEVXJ1DC6R6tV9EgZFN2yNyr"], "asm": "OP_DUP OP_HASH160 30267bc04d7ba8180d26434c6f7b61038535c091 OP_EQUALVERIFY OP_CHECKSIG", "type": "pubkeyhash"}, "value": 0.30785724, "n": 0}, {"scriptPubKey": {"reqSigs": 1, "hex": "76a9148ea09ea867d5fa7fa96012801ac400f51ad7d48e88ac", "addresses": ["1E19NJBjyuQAJqeCUYnzFEhLvHRDba1ZyR"], "asm": "OP_DUP OP_HASH160 8ea09ea867d5fa7fa96012801ac400f51ad7d48e OP_EQUALVERIFY OP_CHECKSIG", "type": "pubkeyhash"}, "value": 8.491e-05, "n": 1}], "hex": "0100000002145deecf6a9fec835fc375e7b5fa64ce100d4419fb18c0a6f1bce36e424f8a831b000000db00483045022100a1c56cfb9502c6b2235b0f900ae62eb49ab6a75a398980a30fd07356aa0fd5380220433d0c09bdd5f4f514b9f10a45617bb63e31d835f04d198bd827f5f2d39855dc01483045022100f593dfb159b4f3f18ebee39b27012e9ea9786a352c57004f987f950c1bd1309702203965efe81d8747c0b2a08a764bab6bedec1d513807bebd5978e4d1af523f1b340147522102907a54bed8ad74b3f35638c60114ca240a308cb986f3f2f306178869a8880b612102deab543a55fa8c2185f6984bbe0fd8b92b38a489ea8762345be399c4dde0d7c452aeffffffff8b138c226ace7209892ed8e792fcffa2099ac774f22173505fc3c593ecb76980020000006b483045022100a43762d91771e92c19e81aab63514baae80a8449481bc80e359ca5288343ac1b022078b551b38821f0f0c71b48c1418b098cb6daaf2623b5afa87aa560c129745973012102250c4f02882fe9e6a7039d76710df259e5a6f842789d850411b40cfb6fddc22bffffffff02bcc0d501000000001976a91430267bc04d7ba8180d26434c6f7b61038535c09188ac2b210000000000001976a9148ea09ea867d5fa7fa96012801ac400f51ad7d48e88ac00000000", "vin": [{"sequence": 4294967295, "scriptSig": {"hex": "00483045022100a1c56cfb9502c6b2235b0f900ae62eb49ab6a75a398980a30fd07356aa0fd5380220433d0c09bdd5f4f514b9f10a45617bb63e31d835f04d198bd827f5f2d39855dc01483045022100f593dfb159b4f3f18ebee39b27012e9ea9786a352c57004f987f950c1bd1309702203965efe81d8747c0b2a08a764bab6bedec1d513807bebd5978e4d1af523f1b340147522102907a54bed8ad74b3f35638c60114ca240a308cb986f3f2f306178869a8880b612102deab543a55fa8c2185f6984bbe0fd8b92b38a489ea8762345be399c4dde0d7c452ae", "asm": "0 3045022100a1c56cfb9502c6b2235b0f900ae62eb49ab6a75a398980a30fd07356aa0fd5380220433d0c09bdd5f4f514b9f10a45617bb63e31d835f04d198bd827f5f2d39855dc[ALL] 3045022100f593dfb159b4f3f18ebee39b27012e9ea9786a352c57004f987f950c1bd1309702203965efe81d8747c0b2a08a764bab6bedec1d513807bebd5978e4d1af523f1b34[ALL] 522102907a54bed8ad74b3f35638c60114ca240a308cb986f3f2f306178869a8880b612102deab543a55fa8c2185f6984bbe0fd8b92b38a489ea8762345be399c4dde0d7c452ae"}, "vout": 27, "txid": "838a4f426ee3bcf1a6c018fb19440d10ce64fab5e775c35f83ec9f6acfee5d14"}, {"sequence": 4294967295, "scriptSig": {"hex": "483045022100a43762d91771e92c19e81aab63514baae80a8449481bc80e359ca5288343ac1b022078b551b38821f0f0c71b48c1418b098cb6daaf2623b5afa87aa560c129745973012102250c4f02882fe9e6a7039d76710df259e5a6f842789d850411b40cfb6fddc22b", "asm": "3045022100a43762d91771e92c19e81aab63514baae80a8449481bc80e359ca5288343ac1b022078b551b38821f0f0c71b48c1418b098cb6daaf2623b5afa87aa560c129745973[ALL] 02250c4f02882fe9e6a7039d76710df259e5a6f842789d850411b40cfb6fddc22b"}, "vout": 2, "txid": "8069b7ec93c5c35f507321f274c79a09a2fffc92e7d82e890972ce6a228c138b"}], "txid": "86c059345838fe906ab28317748eec7e805d0adc5653c77a9850e4adb3feb78e", "blocktime": 1537873282, "version": 1, "confirmations": 11484, "time": 1537873282, "locktime": 0, "vsize": 486, "size": 486}