{"hash": "86c755a0c2f26d1f92827212c67266d6a8fdba613365f14cd28c4d5fff17893c", "blockhash": "00000000000000000018f53835495a110e01622372bf6ae95dc86f2b0ab887b0", "vout": [{"scriptPubKey": {"reqSigs": 1, "hex": "76a91459bf1baa084119bce3086db7d4d86c26e0b0c9d788ac", "addresses": ["19BY5Vea9uK4mJVcvaReLJoUG9Rie1HXAP"], "asm": "OP_DUP OP_HASH160 59bf1baa084119bce3086db7d4d86c26e0b0c9d7 OP_EQUALVERIFY OP_CHECKSIG", "type": "pubkeyhash"}, "value": 0.00071396, "n": 0}, {"scriptPubKey": {"reqSigs": 1, "hex": "76a91492fb5c6a48aea47143efe8e1c8597c5c6a30fbde88ac", "addresses": ["1EQAmsn6u5HoEYC9TvJFKPSJwScSVj77JW"], "asm": "OP_DUP OP_HASH160 92fb5c6a48aea47143efe8e1c8597c5c6a30fbde OP_EQUALVERIFY OP_CHECKSIG", "type": "pubkeyhash"}, "value": 0.0007808, "n": 1}], "hex": "010000000188420137886467cc14c3a7b7ce6e2dc58baa25ad2dbfd6e0469dba0023a0b059000000006b483045022100ba3c3c51a359d2cdc673818e57da4940aed8bd781d66fa68deab8ba6bc7c25d802201acc3ed8d08a8c12baa8c1d71de842c7f6bbe7290584d7022f87b20f38c4fbd8012103cb5ba7bc89c25f02928abc0f6eb959f210b4e2c4e37eddfd1d8215cc73f690f9fdffffff02e4160100000000001976a91459bf1baa084119bce3086db7d4d86c26e0b0c9d788ac00310100000000001976a91492fb5c6a48aea47143efe8e1c8597c5c6a30fbde88ac0e490800", "vin": [{"sequence": 4294967293, "scriptSig": {"hex": "483045022100ba3c3c51a359d2cdc673818e57da4940aed8bd781d66fa68deab8ba6bc7c25d802201acc3ed8d08a8c12baa8c1d71de842c7f6bbe7290584d7022f87b20f38c4fbd8012103cb5ba7bc89c25f02928abc0f6eb959f210b4e2c4e37eddfd1d8215cc73f690f9", "asm": "3045022100ba3c3c51a359d2cdc673818e57da4940aed8bd781d66fa68deab8ba6bc7c25d802201acc3ed8d08a8c12baa8c1d71de842c7f6bbe7290584d7022f87b20f38c4fbd8[ALL] 03cb5ba7bc89c25f02928abc0f6eb959f210b4e2c4e37eddfd1d8215cc73f690f9"}, "vout": 0, "txid": "59b0a02300ba9d46e0d6bf2dad25aa8bc52d6eceb7a7c314cc67648837014288"}], "txid": "86c755a0c2f26d1f92827212c67266d6a8fdba613365f14cd28c4d5fff17893c", "blocktime": 1537870928, "version": 1, "confirmations": 11514, "time": 1537870928, "locktime": 542990, "vsize": 226, "size": 226}