{"hash": "f4c9fa0fffae77656b888b31afbf7bf2cc7c2ee0c138b2a6cff89e218082ec5c", "blockhash": "0000000000000000001cda96e906b7601b7a6fb1a3b62bca570a9e5d8f4b3de1", "vout": [{"scriptPubKey": {"reqSigs": 1, "hex": "76a9149ec0f3e53bd37b18936c720c27e7765b5bf473f788ac", "addresses": ["1FUQuu9CFM9ThVvwhC6wJEhVvTxgCvhosi"], "asm": "OP_DUP OP_HASH160 9ec0f3e53bd37b18936c720c27e7765b5bf473f7 OP_EQUALVERIFY OP_CHECKSIG", "type": "pubkeyhash"}, "value": 0.0098, "n": 0}, {"scriptPubKey": {"reqSigs": 1, "hex": "a914f7a5c7e164b62d4723ffb81592a3a0ea3ccf607d87", "addresses": ["3QGTRaPx74Q1GRVfprF7URPkkwBxdA3sA2"], "asm": "OP_HASH160 f7a5c7e164b62d4723ffb81592a3a0ea3ccf607d OP_EQUAL", "type": "scripthash"}, "value": 0.02510781, "n": 1}], "hex": "01000000000102a5c22248e03695c6d21ec9d3b1f7ec697e7e659fa849e750fcf7721b5b4bd4320f000000171600144fdc6770e6369ead197dee7098ab4b3ec5ba97edffffffffd57306ef605c3fcee398345ecb282e951ddbc3f79e67de722f8d00ebef3043b50100000017160014567b90d24aa5d07241f8d18212116d17bfce299cffffffff0220f40e00000000001976a9149ec0f3e53bd37b18936c720c27e7765b5bf473f788acbd4f26000000000017a914f7a5c7e164b62d4723ffb81592a3a0ea3ccf607d8702473044022040db29a3a00411f9c833e3557f97e8ababec201655cb7533ab2b3e2600b0784e022078c06d78195ff481c4d62ce38b30b61933e996b783a739fdc1ae29eda9905d5701210345ed23b397f05f3368f59309064b16f9c1c75a2d2ddeb427d765df2a76361fc40247304402203abd60cb412e5f4dc576ab58b57552f96e9e5a61aaa4e40d096f4f0d66c1f85e02207f3c71517d106e55c8132b91909ae3b9b8f1cc7524c4280f1444c8861ae75c30012103a2c6293ae08e06d759b2a6371d040a479c4d45c3dd06b6ab4de67b08c58d9ca100000000", "vin": [{"txinwitness": ["3044022040db29a3a00411f9c833e3557f97e8ababec201655cb7533ab2b3e2600b0784e022078c06d78195ff481c4d62ce38b30b61933e996b783a739fdc1ae29eda9905d5701", "0345ed23b397f05f3368f59309064b16f9c1c75a2d2ddeb427d765df2a76361fc4"], "sequence": 4294967295, "scriptSig": {"hex": "1600144fdc6770e6369ead197dee7098ab4b3ec5ba97ed", "asm": "00144fdc6770e6369ead197dee7098ab4b3ec5ba97ed"}, "vout": 15, "txid": "32d44b5b1b72f7fc50e749a89f657e7e69ecf7b1d3c91ed2c69536e04822c2a5"}, {"txinwitness": ["304402203abd60cb412e5f4dc576ab58b57552f96e9e5a61aaa4e40d096f4f0d66c1f85e02207f3c71517d106e55c8132b91909ae3b9b8f1cc7524c4280f1444c8861ae75c3001", "03a2c6293ae08e06d759b2a6371d040a479c4d45c3dd06b6ab4de67b08c58d9ca1"], "sequence": 4294967295, "scriptSig": {"hex": "160014567b90d24aa5d07241f8d18212116d17bfce299c", "asm": "0014567b90d24aa5d07241f8d18212116d17bfce299c"}, "vout": 1, "txid": "b54330efeb008d2f72de679ef7c3db1d952e28cb5e3498e3ce3f5c60ef0673d5"}], "txid": "86cadb9d79f41d601de5efb4d0c36181a3f52a0b62f4213298d6d9a5614a6913", "blocktime": 1537873282, "version": 1, "confirmations": 11484, "time": 1537873282, "locktime": 0, "vsize": 258, "size": 420}