{"hash": "86ccb8f0840247e4438ff866051523af8925d2ff859336558e3b715e4ca84b61", "blockhash": "00000000000000000017f5eb5941039fbcee6240d03bc1f2f8e35350df66a1d8", "vout": [{"scriptPubKey": {"reqSigs": 1, "hex": "76a914509eaf60c89ca0a9b0af551ca65c2229f4f912cc88ac", "addresses": ["18MH9ykS12oy63aaPRdj5Gq4u7uJBZHZ7z"], "asm": "OP_DUP OP_HASH160 509eaf60c89ca0a9b0af551ca65c2229f4f912cc OP_EQUALVERIFY OP_CHECKSIG", "type": "pubkeyhash"}, "value": 0.00218578, "n": 0}, {"scriptPubKey": {"reqSigs": 1, "hex": "a914ed31e9682ce946a27ff2ddc24bc3f62e10b4660d87", "addresses": ["3PKBrwGWUCZkWrE2rWKx3Ai8KsBGCR5Ush"], "asm": "OP_HASH160 ed31e9682ce946a27ff2ddc24bc3f62e10b4660d OP_EQUAL", "type": "scripthash"}, "value": 0.0052235, "n": 1}], "hex": "0100000002353918ad68fad3e813005232f44d0d32d0d7e6ede76ccd1a8bd3e85ea39cd548010000006b483045022100c8cd8c24c6bc36692f3c56c185a30d45ddb290f4eebbc0760bc7ed1c309403120220525f4331af84e644f0439e39ae2bfe33d263296a50f03e695ec77fe79b70e62c012102bb98d6269e0718f0ad702ccd6ed31e999f13e06ae88fbf4e16cd5ce80ccc74f4ffffffffe7e7f9925b46843899e86418b6a397614858d89584989c61c03a4bb96bb0554e000000006b483045022100b9f5b773cd965a18e844ac62cc3559544d7603922f23068094906f83e2ad1fab022054bc0307a9febbdf9d4b8a0c99cced7b2e4f902655fc14a9781815b084ffb269012102776d24a504af0ebecb8b17db6b8e1cd86d6100b3f9618327f5e7d5eecc183a3effffffff02d2550300000000001976a914509eaf60c89ca0a9b0af551ca65c2229f4f912cc88ac6ef807000000000017a914ed31e9682ce946a27ff2ddc24bc3f62e10b4660d8700000000", "vin": [{"sequence": 4294967295, "scriptSig": {"hex": "483045022100c8cd8c24c6bc36692f3c56c185a30d45ddb290f4eebbc0760bc7ed1c309403120220525f4331af84e644f0439e39ae2bfe33d263296a50f03e695ec77fe79b70e62c012102bb98d6269e0718f0ad702ccd6ed31e999f13e06ae88fbf4e16cd5ce80ccc74f4", "asm": "3045022100c8cd8c24c6bc36692f3c56c185a30d45ddb290f4eebbc0760bc7ed1c309403120220525f4331af84e644f0439e39ae2bfe33d263296a50f03e695ec77fe79b70e62c[ALL] 02bb98d6269e0718f0ad702ccd6ed31e999f13e06ae88fbf4e16cd5ce80ccc74f4"}, "vout": 1, "txid": "48d59ca35ee8d38b1acd6ce7ede6d7d0320d4df432520013e8d3fa68ad183935"}, {"sequence": 4294967295, "scriptSig": {"hex": "483045022100b9f5b773cd965a18e844ac62cc3559544d7603922f23068094906f83e2ad1fab022054bc0307a9febbdf9d4b8a0c99cced7b2e4f902655fc14a9781815b084ffb269012102776d24a504af0ebecb8b17db6b8e1cd86d6100b3f9618327f5e7d5eecc183a3e", "asm": "3045022100b9f5b773cd965a18e844ac62cc3559544d7603922f23068094906f83e2ad1fab022054bc0307a9febbdf9d4b8a0c99cced7b2e4f902655fc14a9781815b084ffb269[ALL] 02776d24a504af0ebecb8b17db6b8e1cd86d6100b3f9618327f5e7d5eecc183a3e"}, "vout": 0, "txid": "4e55b06bb94b3ac0619c988495d858486197a3b61864e8993884465b92f9e7e7"}], "txid": "86ccb8f0840247e4438ff866051523af8925d2ff859336558e3b715e4ca84b61", "blocktime": 1537874412, "version": 1, "confirmations": 11467, "time": 1537874412, "locktime": 0, "vsize": 372, "size": 372}