{"hash": "86cdb91dc9aacaede7253c3ea34590b46c4e942a9c871e9002805b31887662ac", "blockhash": "00000000000000000004ffacab907a6b429b9a5745fa0b75af4234bf69dd7176", "vout": [{"scriptPubKey": {"reqSigs": 1, "hex": "a914101be891724964f99fd5256a669b4a0b82c339ae87", "addresses": ["33ACAj9WhwkRsWRsemFx8Auz4yhfZvYyhe"], "asm": "OP_HASH160 101be891724964f99fd5256a669b4a0b82c339ae OP_EQUAL", "type": "scripthash"}, "value": 0.001103, "n": 0}, {"scriptPubKey": {"reqSigs": 1, "hex": "76a914a87c8c0d4663a918de783089a12524ca786d868188ac", "addresses": ["1GMsiunopL5sZuTMaPbCjfwXdJEvC62KSG"], "asm": "OP_DUP OP_HASH160 a87c8c0d4663a918de783089a12524ca786d8681 OP_EQUALVERIFY OP_CHECKSIG", "type": "pubkeyhash"}, "value": 0.09829038, "n": 1}], "hex": "01000000013de6b1c734840ca76d226ea607359f38ea567d223e49d8e04b99774ccf22b01f010000006a47304402206553c4ba2e26f076b3b0971d7c266d869811e1fcae1cee61ba10816c4e8354c102202481b390561a0f228f96ec3a89cfc98c48d9a18b6f48c7deb0ad03470c84b8320121028a529b882ca97682e7f83cc2e44a1f6deb15c78dea47747c1d1b17aece1e91a8ffffffff02dcae01000000000017a914101be891724964f99fd5256a669b4a0b82c339ae87aefa9500000000001976a914a87c8c0d4663a918de783089a12524ca786d868188ac00000000", "vin": [{"sequence": 4294967295, "scriptSig": {"hex": "47304402206553c4ba2e26f076b3b0971d7c266d869811e1fcae1cee61ba10816c4e8354c102202481b390561a0f228f96ec3a89cfc98c48d9a18b6f48c7deb0ad03470c84b8320121028a529b882ca97682e7f83cc2e44a1f6deb15c78dea47747c1d1b17aece1e91a8", "asm": "304402206553c4ba2e26f076b3b0971d7c266d869811e1fcae1cee61ba10816c4e8354c102202481b390561a0f228f96ec3a89cfc98c48d9a18b6f48c7deb0ad03470c84b832[ALL] 028a529b882ca97682e7f83cc2e44a1f6deb15c78dea47747c1d1b17aece1e91a8"}, "vout": 1, "txid": "1fb022cf4c77994be0d8493e227d56ea389f3507a66e226da70c8434c7b1e63d"}], "txid": "86cdb91dc9aacaede7253c3ea34590b46c4e942a9c871e9002805b31887662ac", "blocktime": 1537875543, "version": 1, "confirmations": 11464, "time": 1537875543, "locktime": 0, "vsize": 223, "size": 223}