{"hash": "72ca4b5d536ada39dd47241d71488d6f38c13f941a86183baf387b040243de53", "blockhash": "000000000000000000022b45ed06c6f4ccd3cf7fb5ba4856ebd2e58215665228", "vout": [{"scriptPubKey": {"reqSigs": 1, "hex": "a914cfaabfe8c271f99a4364b5197ba50c6cddb7adb987", "addresses": ["3Ld4M9RPwEG3VeQbHcC1PsKUndQL7VYLZP"], "asm": "OP_HASH160 cfaabfe8c271f99a4364b5197ba50c6cddb7adb9 OP_EQUAL", "type": "scripthash"}, "value": 0.07732463, "n": 0}, {"scriptPubKey": {"reqSigs": 1, "hex": "a914e2e7e8ff8fb0bbbf4a2fa823c98097f6c3e0253787", "addresses": ["3NNnTJBijQ4rmoi99uD2yTMdEJGfsXreD1"], "asm": "OP_HASH160 e2e7e8ff8fb0bbbf4a2fa823c98097f6c3e02537 OP_EQUAL", "type": "scripthash"}, "value": 0.10917106, "n": 1}], "hex": "0100000000010276e9dd1c1507fab866790782624cbec54d337854144cf3d17fd2aadd41e7fc2f00000000232200209982e5c4aff620b782ac5be8a2941ae1b9db76c6ba4f2387da4acf81eae96e58ffffffffcbad7aa2706a6a2d261c64dd9776126ed01c71fe61910166252dbb1a06dabb031400000023220020ebd4338a7b049bb50be6ec68a29104c65d0c6363ee12b410435136ccf799655cffffffff02effc75000000000017a914cfaabfe8c271f99a4364b5197ba50c6cddb7adb987f294a6000000000017a914e2e7e8ff8fb0bbbf4a2fa823c98097f6c3e025378704004830450221008a38839370a70c0a8d247157256a1082069c61c06828c9caa64647e4bbb89f7c022052d54405c17e6612eda28b98b1d7fee49a1b46056dbdcfa8b6156311b54aeb910147304402203586af3defb5235653502574a111aac5007864b0dd0d66417d46eed699fc1f08022029addfff32a48439e1169889ef5368251170568149a3c886b0951c5b657452440147522102d747da6ba3b13890458a4bf6b40e457eb106b8bbad5ad83c24674edef873944821033e4af03ed09dbd8a417ba042650d5bd1db7f14f271a8f660974e3abf1fdfa4da52ae0400483045022100c829532da4e5de53b52539de0b94f1dfc43cdd488f29dcd1dbf08a48a0ae95e602200459c5e4d6fe7efd501841b7b6ea4f0cc5a20cb73a418d9345a695491e7aeff001483045022100d2fa5ac537e54a4ae403045d6ef8ed8aee0761a814703e99afafee2fd252895c02201584f7673611ff74fc81160d67f251a5544b4e8933b95bd6d0723050aed7e94a01475221030cb464f752f4eaed5ecede362e6522ff704c007777393231b77480a069cc937921033e4af03ed09dbd8a417ba042650d5bd1db7f14f271a8f660974e3abf1fdfa4da52ae00000000", "vin": [{"txinwitness": ["", "30450221008a38839370a70c0a8d247157256a1082069c61c06828c9caa64647e4bbb89f7c022052d54405c17e6612eda28b98b1d7fee49a1b46056dbdcfa8b6156311b54aeb9101", "304402203586af3defb5235653502574a111aac5007864b0dd0d66417d46eed699fc1f08022029addfff32a48439e1169889ef5368251170568149a3c886b0951c5b6574524401", "522102d747da6ba3b13890458a4bf6b40e457eb106b8bbad5ad83c24674edef873944821033e4af03ed09dbd8a417ba042650d5bd1db7f14f271a8f660974e3abf1fdfa4da52ae"], "sequence": 4294967295, "scriptSig": {"hex": "2200209982e5c4aff620b782ac5be8a2941ae1b9db76c6ba4f2387da4acf81eae96e58", "asm": "00209982e5c4aff620b782ac5be8a2941ae1b9db76c6ba4f2387da4acf81eae96e58"}, "vout": 0, "txid": "2ffce741ddaad27fd1f34c145478334dc5be4c6282077966b8fa07151cdde976"}, {"txinwitness": ["", "3045022100c829532da4e5de53b52539de0b94f1dfc43cdd488f29dcd1dbf08a48a0ae95e602200459c5e4d6fe7efd501841b7b6ea4f0cc5a20cb73a418d9345a695491e7aeff001", "3045022100d2fa5ac537e54a4ae403045d6ef8ed8aee0761a814703e99afafee2fd252895c02201584f7673611ff74fc81160d67f251a5544b4e8933b95bd6d0723050aed7e94a01", "5221030cb464f752f4eaed5ecede362e6522ff704c007777393231b77480a069cc937921033e4af03ed09dbd8a417ba042650d5bd1db7f14f271a8f660974e3abf1fdfa4da52ae"], "sequence": 4294967295, "scriptSig": {"hex": "220020ebd4338a7b049bb50be6ec68a29104c65d0c6363ee12b410435136ccf799655c", "asm": "0020ebd4338a7b049bb50be6ec68a29104c65d0c6363ee12b410435136ccf799655c"}, "vout": 20, "txid": "03bbda061abb2d2566019161fe711cd06e127697dd641c262d6a6a70a27aadcb"}], "txid": "86cd79a75db7ce93c65e1bf78cf87b693815e348cfb9a1ec33edd5569313c290", "blocktime": 1537869901, "version": 1, "confirmations": 11524, "time": 1537869901, "locktime": 0, "vsize": 337, "size": 667}