{"hash": "86d4c3a6ba6d1d1dec01c90897f7fccd544e344305e2f1cbf4e1d464770377e9", "blockhash": "0000000000000000001e0dab787dd257d1dbfcb92a98c2207d5e1078be1f4165", "vout": [{"scriptPubKey": {"type": "nulldata", "hex": "6a2e4927ea81d19fe3f76376f623c38f7dc458d1aaf85070e0222d41dea36e103c862c4330f3b8e8a1d47545d052fb91", "asm": "OP_RETURN 4927ea81d19fe3f76376f623c38f7dc458d1aaf85070e0222d41dea36e103c862c4330f3b8e8a1d47545d052fb91"}, "value": 0.0, "n": 0}, {"scriptPubKey": {"reqSigs": 1, "hex": "76a9149afca594e77fcbaf6dc16b190ae0426e151db54188ac", "addresses": ["1F8VikUQmEW6n8cHAwNjrNPUkuydM5Bt9m"], "asm": "OP_DUP OP_HASH160 9afca594e77fcbaf6dc16b190ae0426e151db541 OP_EQUALVERIFY OP_CHECKSIG", "type": "pubkeyhash"}, "value": 9.852e-05, "n": 1}], "hex": "01000000017a5b578496366f6d17ef77fbb9557b261313b74aa193c3de7d7e66671d20100f010000006a47304402202694251cccdb739b4330192c9fdd36e6c54a0c0f114b086759980c44769a9e5e02201570111fb1d32ab7b59ed458ff1dab381d0633418a67d112221fba458809f288012102f2881289557966f72764bfdd23bb097321a1a703f7734badf3abe8c862f4959bffffffff020000000000000000306a2e4927ea81d19fe3f76376f623c38f7dc458d1aaf85070e0222d41dea36e103c862c4330f3b8e8a1d47545d052fb917c260000000000001976a9149afca594e77fcbaf6dc16b190ae0426e151db54188ac00000000", "vin": [{"sequence": 4294967295, "scriptSig": {"hex": "47304402202694251cccdb739b4330192c9fdd36e6c54a0c0f114b086759980c44769a9e5e02201570111fb1d32ab7b59ed458ff1dab381d0633418a67d112221fba458809f288012102f2881289557966f72764bfdd23bb097321a1a703f7734badf3abe8c862f4959b", "asm": "304402202694251cccdb739b4330192c9fdd36e6c54a0c0f114b086759980c44769a9e5e02201570111fb1d32ab7b59ed458ff1dab381d0633418a67d112221fba458809f288[ALL] 02f2881289557966f72764bfdd23bb097321a1a703f7734badf3abe8c862f4959b"}, "vout": 1, "txid": "0f10201d67667e7ddec393a14ab71313267b55b9fb77ef176d6f369684575b7a"}], "txid": "86d4c3a6ba6d1d1dec01c90897f7fccd544e344305e2f1cbf4e1d464770377e9", "blocktime": 1537872475, "version": 1, "confirmations": 11487, "time": 1537872475, "locktime": 0, "vsize": 248, "size": 248}