{"hash": "86d614093e4f48d0d20db20f570374a6b2aad74d1c207b394568394c0f3cfa41", "blockhash": "0000000000000000000e13cef7c366c0283d82e591d1acd082e914b08063cdf1", "vout": [{"scriptPubKey": {"reqSigs": 1, "hex": "76a9144a0f1e2f2b0d7daeec5265f10bbbbe08ed725e8988ac", "addresses": ["17kb7c9ndg7ioSuzMWEHWECdEVUegNkcGc"], "asm": "OP_DUP OP_HASH160 4a0f1e2f2b0d7daeec5265f10bbbbe08ed725e89 OP_EQUALVERIFY OP_CHECKSIG", "type": "pubkeyhash"}, "value": 0.0014052, "n": 0}], "hex": "01000000017f803f7e022f5381cb54a48f56fb174bb943e9639b68b1fe02838007b741ee9e9c0300006b48304502210084b279ac7b142fff9b75b4e612760f564c4db1c68ac60453725b1776cf4963530220014d82acca2e973162328d375b6d847ae39bf2e87e4463821301c198afc0d3810121036b64402126fdca6ba39973f95ecd79f123a8190cb37f6c9bf973658349995f36ffffffff01e8240200000000001976a9144a0f1e2f2b0d7daeec5265f10bbbbe08ed725e8988ac00000000", "vin": [{"sequence": 4294967295, "scriptSig": {"hex": "48304502210084b279ac7b142fff9b75b4e612760f564c4db1c68ac60453725b1776cf4963530220014d82acca2e973162328d375b6d847ae39bf2e87e4463821301c198afc0d3810121036b64402126fdca6ba39973f95ecd79f123a8190cb37f6c9bf973658349995f36", "asm": "304502210084b279ac7b142fff9b75b4e612760f564c4db1c68ac60453725b1776cf4963530220014d82acca2e973162328d375b6d847ae39bf2e87e4463821301c198afc0d381[ALL] 036b64402126fdca6ba39973f95ecd79f123a8190cb37f6c9bf973658349995f36"}, "vout": 924, "txid": "9eee41b707808302feb1689b63e943b94b17fb568fa454cb81532f027e3f807f"}], "txid": "86d614093e4f48d0d20db20f570374a6b2aad74d1c207b394568394c0f3cfa41", "blocktime": 1537871767, "version": 1, "confirmations": 11491, "time": 1537871767, "locktime": 0, "vsize": 192, "size": 192}