{"hash": "b3666656e04f44c8ed83160645186ac7004c3b6efed5c7939b8aa828455ee9ca", "blockhash": "0000000000000000001f0ddff1eddb255c1121bcd4da4f1bc9a0da00cae72433", "vout": [{"scriptPubKey": {"reqSigs": 1, "hex": "a91489c3f433fc5abd66569ee0b92775b9182280209c87", "addresses": ["3EFTEwZHn4ndw8AZL3WJMAQpshqxH8jjvS"], "asm": "OP_HASH160 89c3f433fc5abd66569ee0b92775b9182280209c OP_EQUAL", "type": "scripthash"}, "value": 0.01522, "n": 0}, {"scriptPubKey": {"reqSigs": 1, "hex": "a914d353c8873a3ce0b05d1820ee4c64555deba3f4e787", "addresses": ["3LxQsPNvQsgsZWDHvpdHWBRFPbxhRSZ9ca"], "asm": "OP_HASH160 d353c8873a3ce0b05d1820ee4c64555deba3f4e7 OP_EQUAL", "type": "scripthash"}, "value": 0.01035608, "n": 1}], "hex": "0200000000010228cf06ac98937cea2224f184fdbb56eaae500c3b016c75964a266234e3fc2e16010000006b483045022100a705fd739c777db4dd000b264bebdd5e09cdafdadf70fc1ec289639b1227088002203fdb023526047d0e2a5f5ba7a284994fe1ad04dd46065e0db389277b42c3e9f501210251011a7c738e55d8fdedf5314094aa7663e3506b6cfdd1c142005130074d536efdfffffff2c26321d08be1e4e89afedd39e5b00b9cf45be4193571940ba942c9010f67520100000017160014aa9d77e404aadf18003fcc96ec86a40023a7110afdffffff02503917000000000017a91489c3f433fc5abd66569ee0b92775b9182280209c8758cd0f000000000017a914d353c8873a3ce0b05d1820ee4c64555deba3f4e787000247304402200cde264ec992b0e8bd1bbe664619aa572855d9822d3e11961c2813a14b5b0661022022740ccec4bebc7c46574822772546807661574f122962da07729fdb50e73454012102b40b11c0bd8d3a63aaa861dfa7f39f8905f436d5117287b0a6ea93f88555134100000000", "vin": [{"sequence": 4294967293, "scriptSig": {"hex": "483045022100a705fd739c777db4dd000b264bebdd5e09cdafdadf70fc1ec289639b1227088002203fdb023526047d0e2a5f5ba7a284994fe1ad04dd46065e0db389277b42c3e9f501210251011a7c738e55d8fdedf5314094aa7663e3506b6cfdd1c142005130074d536e", "asm": "3045022100a705fd739c777db4dd000b264bebdd5e09cdafdadf70fc1ec289639b1227088002203fdb023526047d0e2a5f5ba7a284994fe1ad04dd46065e0db389277b42c3e9f5[ALL] 0251011a7c738e55d8fdedf5314094aa7663e3506b6cfdd1c142005130074d536e"}, "vout": 1, "txid": "162efce33462264a96756c013b0c50aeea56bbfd84f12422ea7c9398ac06cf28"}, {"txinwitness": ["304402200cde264ec992b0e8bd1bbe664619aa572855d9822d3e11961c2813a14b5b0661022022740ccec4bebc7c46574822772546807661574f122962da07729fdb50e7345401", "02b40b11c0bd8d3a63aaa861dfa7f39f8905f436d5117287b0a6ea93f885551341"], "sequence": 4294967293, "scriptSig": {"hex": "160014aa9d77e404aadf18003fcc96ec86a40023a7110a", "asm": "0014aa9d77e404aadf18003fcc96ec86a40023a7110a"}, "vout": 1, "txid": "52670f01c942a90b94713519e45bf49c0bb0e539ddfe9ae8e4e18bd02163c2f2"}], "txid": "86d8ca15e9a6d8f0be4ce8645314e49a1008b5d6b9a09e5911a95509e591bb5e", "blocktime": 1537872018, "version": 2, "confirmations": 11489, "time": 1537872018, "locktime": 0, "vsize": 314, "size": 396}