{"hash": "84dbb4241120246746fa08cf99996215b4c93672e8cdfcdae00fca787852460f", "blockhash": "0000000000000000001f76057863aec43deb6fa401d9628bb513d65a8098bfab", "vout": [{"scriptPubKey": {"reqSigs": 1, "hex": "a9146a94ae73216bc74093c1358a6987c67d07a3d0f287", "addresses": ["3BQZfSoMonB4eaB8HZnfvh2EuP2K123XB1"], "asm": "OP_HASH160 6a94ae73216bc74093c1358a6987c67d07a3d0f2 OP_EQUAL", "type": "scripthash"}, "value": 0.01067906, "n": 0}, {"scriptPubKey": {"reqSigs": 1, "hex": "76a9142198a91e39c69f70d08fee4558e4e8b79194916c88ac", "addresses": ["144eBNp4amyW9FzVPKqXuE3btfXMJvhino"], "asm": "OP_DUP OP_HASH160 2198a91e39c69f70d08fee4558e4e8b79194916c OP_EQUALVERIFY OP_CHECKSIG", "type": "pubkeyhash"}, "value": 0.0024956, "n": 1}], "hex": "020000000001025537b8d6e2856dc04a285ad9a1de90685fb0c355faa4fef43c266c280997b4f200000000171600140a84d141c896ccd3bf7c9ec1adb56ae584769c89feffffffe0839ce6b510e35c0468343ac1d61a5d5a87d58fa6c0b347a24ea1cf10d90bc90000000017160014185d0fbdbeb6b0ee9fc0cd094c2cab1cd62ba360feffffff02824b10000000000017a9146a94ae73216bc74093c1358a6987c67d07a3d0f287d8ce0300000000001976a9142198a91e39c69f70d08fee4558e4e8b79194916c88ac0247304402204f4dde235de2aa291b49aa69875cf38e5b948c21f4e9b865e45f2087aae65830022043fa4cd9ff34c98487b0c64978536a93fc9f8530e11d78748653096f243eb5ab01210314a803b794025efe7ad8a953de218e4fd02373f560cd9acdb37cfe7df8d0b68f02483045022100b50a2c4fe8fa805eb28b157516396637f698f8e5c3a7963a0153a9153b7e70db02206c3d0bf1aae2303a11b0bf468b948744d50c86cf5aaf4d84d0c6fc96d673032c01210327ed41d56fd0d778f6d4fb5542017e3adee99cb704599683b268d96e3a753b8313490800", "vin": [{"txinwitness": ["304402204f4dde235de2aa291b49aa69875cf38e5b948c21f4e9b865e45f2087aae65830022043fa4cd9ff34c98487b0c64978536a93fc9f8530e11d78748653096f243eb5ab01", "0314a803b794025efe7ad8a953de218e4fd02373f560cd9acdb37cfe7df8d0b68f"], "sequence": 4294967294, "scriptSig": {"hex": "1600140a84d141c896ccd3bf7c9ec1adb56ae584769c89", "asm": "00140a84d141c896ccd3bf7c9ec1adb56ae584769c89"}, "vout": 0, "txid": "f2b49709286c263cf4fea4fa55c3b05f6890dea1d95a284ac06d85e2d6b83755"}, {"txinwitness": ["3045022100b50a2c4fe8fa805eb28b157516396637f698f8e5c3a7963a0153a9153b7e70db02206c3d0bf1aae2303a11b0bf468b948744d50c86cf5aaf4d84d0c6fc96d673032c01", "0327ed41d56fd0d778f6d4fb5542017e3adee99cb704599683b268d96e3a753b83"], "sequence": 4294967294, "scriptSig": {"hex": "160014185d0fbdbeb6b0ee9fc0cd094c2cab1cd62ba360", "asm": "0014185d0fbdbeb6b0ee9fc0cd094c2cab1cd62ba360"}, "vout": 0, "txid": "c90bd910cfa14ea247b3c0a68fd5875a5d1ad6c13a3468045ce310b5e69c83e0"}], "txid": "86d9702212dacf34c7c0bf71b5e1e54c63e88812e9a4d6e173f0057ec909914a", "blocktime": 1537873891, "version": 2, "confirmations": 11478, "time": 1537873891, "locktime": 542995, "vsize": 259, "size": 421}