{"hash": "86dd6ec6761a323c1bb9ad5ecfcbfbc8547c6b51af83b96eaaadd9a125abd20c", "blockhash": "0000000000000000000baef3f32e3676a92c3b2e5da21b426e4f302fc371ce76", "vout": [{"scriptPubKey": {"reqSigs": 1, "hex": "76a9141f889cd278d61e73b476be0a2c04e0567a154e0888ac", "addresses": ["13sjbxRrDUb6A7X964vE99rxrK7syGPXU5"], "asm": "OP_DUP OP_HASH160 1f889cd278d61e73b476be0a2c04e0567a154e08 OP_EQUALVERIFY OP_CHECKSIG", "type": "pubkeyhash"}, "value": 0.00119964, "n": 0}, {"scriptPubKey": {"type": "nulldata", "hex": "6a4c500000781400015db435de848d4898009fffa1702940d64fa54d8eb2d19ed074892d00f8e8966f861419e591b40a61c2bfa2d1b1055baa1bca06151c4efe29a49fbc9a9526289ac0f6612cd74e33776ee4", "asm": "OP_RETURN 0000781400015db435de848d4898009fffa1702940d64fa54d8eb2d19ed074892d00f8e8966f861419e591b40a61c2bfa2d1b1055baa1bca06151c4efe29a49fbc9a9526289ac0f6612cd74e33776ee4"}, "value": 0.0, "n": 1}], "hex": "01000000010e2c7cdff39eebe3826e2ea0cbfa507f2820c079c10ebb1998939d188a7dfb3b000000006a4730440220788c94c040aec2f286857dc8405dd6727cc9a1248bb0fb26272135ac65d6213c022008bad0136a8ff6157b058c198466d61ee1bfef5caa64e33f4739535e4feb5a9d012103cc22e4519a9b642f92ad8e53760bce7af4a61fffe08e5eff8aa306b020143e63ffffffff029cd40100000000001976a9141f889cd278d61e73b476be0a2c04e0567a154e0888ac0000000000000000536a4c500000781400015db435de848d4898009fffa1702940d64fa54d8eb2d19ed074892d00f8e8966f861419e591b40a61c2bfa2d1b1055baa1bca06151c4efe29a49fbc9a9526289ac0f6612cd74e33776ee400000000", "vin": [{"sequence": 4294967295, "scriptSig": {"hex": "4730440220788c94c040aec2f286857dc8405dd6727cc9a1248bb0fb26272135ac65d6213c022008bad0136a8ff6157b058c198466d61ee1bfef5caa64e33f4739535e4feb5a9d012103cc22e4519a9b642f92ad8e53760bce7af4a61fffe08e5eff8aa306b020143e63", "asm": "30440220788c94c040aec2f286857dc8405dd6727cc9a1248bb0fb26272135ac65d6213c022008bad0136a8ff6157b058c198466d61ee1bfef5caa64e33f4739535e4feb5a9d[ALL] 03cc22e4519a9b642f92ad8e53760bce7af4a61fffe08e5eff8aa306b020143e63"}, "vout": 0, "txid": "3bfb7d8a189d939819bb0ec179c020287f50facba02e6e82e3eb9ef3df7c2c0e"}], "txid": "86dd6ec6761a323c1bb9ad5ecfcbfbc8547c6b51af83b96eaaadd9a125abd20c", "blocktime": 1537876114, "version": 1, "confirmations": 11460, "time": 1537876114, "locktime": 0, "vsize": 283, "size": 283}