{"hash": "0e4e16a0f2f193e6195fc98aac1a47f86544ebca9a52b7c8697812f6f986388c", "blockhash": "00000000000000000017f5eb5941039fbcee6240d03bc1f2f8e35350df66a1d8", "vout": [{"scriptPubKey": {"reqSigs": 1, "hex": "76a91411fda9a14f7325a06f06d5778bd7c37a9028838588ac", "addresses": ["12e8N3q5YdA8JdZHChyrwDguac9zp6dKqp"], "asm": "OP_DUP OP_HASH160 11fda9a14f7325a06f06d5778bd7c37a90288385 OP_EQUALVERIFY OP_CHECKSIG", "type": "pubkeyhash"}, "value": 0.01174477, "n": 0}, {"scriptPubKey": {"reqSigs": 1, "hex": "a9148c1c249b938ab1edd22fd8263ecd3a421ca6740f87", "addresses": ["3ETrEovcX4WxNNaLW8GWguLsNEcyThb8fM"], "asm": "OP_HASH160 8c1c249b938ab1edd22fd8263ecd3a421ca6740f OP_EQUAL", "type": "scripthash"}, "value": 0.00999888, "n": 1}], "hex": "020000000001024f7636b7d53ef05089f40f77ee6d11f997e50e35e44e49b6069b4a39e3a1623700000000171600144e125eac83accf8b93c8fc9798c5174bf90e9386feffffffa4f866b593bc6b77ced9a323136ae43ee947073eec287a0e2f39fd27050ae06c0100000017160014f04286314ee924b89f9965197069de9bb90d6d2efeffffff02cdeb1100000000001976a91411fda9a14f7325a06f06d5778bd7c37a9028838588acd0410f000000000017a9148c1c249b938ab1edd22fd8263ecd3a421ca6740f87024730440220017662b766bcf041c9b468f101d18d30b785164fc0656d58419a9ec71caa32cd02206ffa9c19e0a9542a9c8a31fce267ebd89fa491c3e09fb73244118f818c0b00a8012102bd4d33e967c1e60feac95fb52b78df1551c28464b2132c3c8d01ec9237f8fc1b0247304402206107981af03426974493032887f4adcd7095b377abbe44b891eb3acb5c69237c02200f9074b84899658749bc85e51bbbc55624aed2064ed046fa41be23d03957967d012103e070406e0cfcbc2b6db117df0e7d1f664a40ad04420fcc7c253b507e1c25f45315490800", "vin": [{"txinwitness": ["30440220017662b766bcf041c9b468f101d18d30b785164fc0656d58419a9ec71caa32cd02206ffa9c19e0a9542a9c8a31fce267ebd89fa491c3e09fb73244118f818c0b00a801", "02bd4d33e967c1e60feac95fb52b78df1551c28464b2132c3c8d01ec9237f8fc1b"], "sequence": 4294967294, "scriptSig": {"hex": "1600144e125eac83accf8b93c8fc9798c5174bf90e9386", "asm": "00144e125eac83accf8b93c8fc9798c5174bf90e9386"}, "vout": 0, "txid": "3762a1e3394a9b06b6494ee4350ee597f9116dee770ff48950f03ed5b736764f"}, {"txinwitness": ["304402206107981af03426974493032887f4adcd7095b377abbe44b891eb3acb5c69237c02200f9074b84899658749bc85e51bbbc55624aed2064ed046fa41be23d03957967d01", "03e070406e0cfcbc2b6db117df0e7d1f664a40ad04420fcc7c253b507e1c25f453"], "sequence": 4294967294, "scriptSig": {"hex": "160014f04286314ee924b89f9965197069de9bb90d6d2e", "asm": "0014f04286314ee924b89f9965197069de9bb90d6d2e"}, "vout": 1, "txid": "6ce00a0527fd392f0e7a28ec3e0747e93ee46a1323a3d9ce776bbc93b566f8a4"}], "txid": "86debd593186ee70c70c1c60f4c95dbe74a8803a7b6aa1bbaffc11b86719243a", "blocktime": 1537874412, "version": 2, "confirmations": 11468, "time": 1537874412, "locktime": 542997, "vsize": 258, "size": 420}