{"hash": "5a057bcd9f3f072148561df3116119b4edaed6eee0ae918ec1e94071946cf406", "blockhash": "0000000000000000001f76057863aec43deb6fa401d9628bb513d65a8098bfab", "vout": [{"scriptPubKey": {"reqSigs": 1, "hex": "a9140214c3fc97c1e590af74eaa16b349dee061b211887", "addresses": ["31t29k9Vo7zapk5tx6ybrYivn8dmSZtd17"], "asm": "OP_HASH160 0214c3fc97c1e590af74eaa16b349dee061b2118 OP_EQUAL", "type": "scripthash"}, "value": 0.00097502, "n": 0}, {"scriptPubKey": {"reqSigs": 1, "hex": "76a9140a3195c50a139c1268b517078c4818eb7c3cee7288ac", "addresses": ["1vuA9XxA95fff3zonS6wemPTWBvQ16vN9"], "asm": "OP_DUP OP_HASH160 0a3195c50a139c1268b517078c4818eb7c3cee72 OP_EQUALVERIFY OP_CHECKSIG", "type": "pubkeyhash"}, "value": 0.00283111, "n": 1}], "hex": "0200000000010280f521c65b295e76e40de7c31328a358b7e59d3e0df7b8c84cdee23b3299b0f60d0000001716001474d370c13d732daae4dd52d6ec445cb436b65958feffffffb752da1b153d880722095d24fb7e6fd82207e2a157b5bfe86771f79f02d380a2030000001716001425b75fe334436430da134a28446157d1c8cfb786feffffff02de7c01000000000017a9140214c3fc97c1e590af74eaa16b349dee061b211887e7510400000000001976a9140a3195c50a139c1268b517078c4818eb7c3cee7288ac02483045022100ab126f3ffeab931b0ec7d1680adf9e8af8d47f9b882c21d51e8b1487c40c56e10220784aafb4869ee27e1a5cfb77254bd9e2edd9cc499a05a3e2af327187e495c485012102b9f7756ea6d291cf4bc9f5a0d14d680c05adfbe7a35d210d56d60a45488ebdab02483045022100fb6eaeaad0f3bbdcfc745ae8bac63e921c3741465595fb30ac9574158aa334df02201b347269cac297cd7779d2c955fa77ac5b3bf18a36a03311e74b378e5f15a9ca012103a04ccaa5bf60f670a1fbb741dc2cb3f41aa139fb6e6f95f1ad690a1dc538572414490800", "vin": [{"txinwitness": ["3045022100ab126f3ffeab931b0ec7d1680adf9e8af8d47f9b882c21d51e8b1487c40c56e10220784aafb4869ee27e1a5cfb77254bd9e2edd9cc499a05a3e2af327187e495c48501", "02b9f7756ea6d291cf4bc9f5a0d14d680c05adfbe7a35d210d56d60a45488ebdab"], "sequence": 4294967294, "scriptSig": {"hex": "16001474d370c13d732daae4dd52d6ec445cb436b65958", "asm": "001474d370c13d732daae4dd52d6ec445cb436b65958"}, "vout": 13, "txid": "f6b099323be2de4cc8b8f70d3e9de5b758a32813c3e70de4765e295bc621f580"}, {"txinwitness": ["3045022100fb6eaeaad0f3bbdcfc745ae8bac63e921c3741465595fb30ac9574158aa334df02201b347269cac297cd7779d2c955fa77ac5b3bf18a36a03311e74b378e5f15a9ca01", "03a04ccaa5bf60f670a1fbb741dc2cb3f41aa139fb6e6f95f1ad690a1dc5385724"], "sequence": 4294967294, "scriptSig": {"hex": "16001425b75fe334436430da134a28446157d1c8cfb786", "asm": "001425b75fe334436430da134a28446157d1c8cfb786"}, "vout": 3, "txid": "a280d3029ff77167e8bfb557a1e20722d86f7efb245d092207883d151bda52b7"}], "txid": "86df70d19c80d73412a117100cd4aaba34a9962eb1b32056391f66728d9780dd", "blocktime": 1537873891, "version": 2, "confirmations": 11478, "time": 1537873891, "locktime": 542996, "vsize": 259, "size": 422}