{"hash": "86e25a96649fb5e02fb2a2b0b36e04a8da4de3f20e68ed4d57d06e68368ded25", "blockhash": "00000000000000000017f5eb5941039fbcee6240d03bc1f2f8e35350df66a1d8", "vout": [{"scriptPubKey": {"reqSigs": 1, "hex": "76a9141bc882c031b35599ba8be9df6fd120c82cfce4ae88ac", "addresses": ["13XuSuo2aKsjvHvtRM9sYNZbdFDRsfoWEb"], "asm": "OP_DUP OP_HASH160 1bc882c031b35599ba8be9df6fd120c82cfce4ae OP_EQUALVERIFY OP_CHECKSIG", "type": "pubkeyhash"}, "value": 0.00950313, "n": 0}], "hex": "010000000336feb27567c27a96cb6f77d664f2c3405820315802f29302c9896a1eca6e5502010000006a47304402206688a42d08d7083962b3a91071b5219ba6b14ad6d22805d6b6a687e848c4062002202ca0ad4c2bbcd8a63d2915f57f7cf863f7de099efa843d27f12cc37197340b9c0121029f51a5a5c15ac4de10973d9996feb98fc64fb808ca4d068a5e8f4a4466db9247ffffffffc6ae8516910caf3be5cb1ca50c21ddd98f29f609aad82d4e4fa2be4f4f5f7c64000000006a473044022079f77b04fcc91997687cea48124fc373011564f565beddd150b7a310936dfe7302200ff9ec55b3b90ccfa4f2dc3defbe4aa896001dcee852451801128158d4398d9e012103fdd03f34641d4ac6101b75f7905ce45d55bb5289b774da75330684afe5e9659bffffffffb44c8e378269078c4e026ec787299d08c7e865b0865af87da49b62b223c9c36a000000006a47304402205c40892f9c34fb101480012e652eeb8b2307a0efef2e17035ecd1111d9003cc00220314b09a0c2b7af88984375b344c83466633b1deea21b9df59feb016fe33cb99c012103cc3e240fe66969e5d328eb04bb828a38852c61e464d7541dd76d5b4c0e384b96ffffffff0129800e00000000001976a9141bc882c031b35599ba8be9df6fd120c82cfce4ae88ac00000000", "vin": [{"sequence": 4294967295, "scriptSig": {"hex": "47304402206688a42d08d7083962b3a91071b5219ba6b14ad6d22805d6b6a687e848c4062002202ca0ad4c2bbcd8a63d2915f57f7cf863f7de099efa843d27f12cc37197340b9c0121029f51a5a5c15ac4de10973d9996feb98fc64fb808ca4d068a5e8f4a4466db9247", "asm": "304402206688a42d08d7083962b3a91071b5219ba6b14ad6d22805d6b6a687e848c4062002202ca0ad4c2bbcd8a63d2915f57f7cf863f7de099efa843d27f12cc37197340b9c[ALL] 029f51a5a5c15ac4de10973d9996feb98fc64fb808ca4d068a5e8f4a4466db9247"}, "vout": 1, "txid": "02556eca1e6a89c90293f2025831205840c3f264d6776fcb967ac26775b2fe36"}, {"sequence": 4294967295, "scriptSig": {"hex": "473044022079f77b04fcc91997687cea48124fc373011564f565beddd150b7a310936dfe7302200ff9ec55b3b90ccfa4f2dc3defbe4aa896001dcee852451801128158d4398d9e012103fdd03f34641d4ac6101b75f7905ce45d55bb5289b774da75330684afe5e9659b", "asm": "3044022079f77b04fcc91997687cea48124fc373011564f565beddd150b7a310936dfe7302200ff9ec55b3b90ccfa4f2dc3defbe4aa896001dcee852451801128158d4398d9e[ALL] 03fdd03f34641d4ac6101b75f7905ce45d55bb5289b774da75330684afe5e9659b"}, "vout": 0, "txid": "647c5f4f4fbea24f4e2dd8aa09f6298fd9dd210ca51ccbe53baf0c911685aec6"}, {"sequence": 4294967295, "scriptSig": {"hex": "47304402205c40892f9c34fb101480012e652eeb8b2307a0efef2e17035ecd1111d9003cc00220314b09a0c2b7af88984375b344c83466633b1deea21b9df59feb016fe33cb99c012103cc3e240fe66969e5d328eb04bb828a38852c61e464d7541dd76d5b4c0e384b96", "asm": "304402205c40892f9c34fb101480012e652eeb8b2307a0efef2e17035ecd1111d9003cc00220314b09a0c2b7af88984375b344c83466633b1deea21b9df59feb016fe33cb99c[ALL] 03cc3e240fe66969e5d328eb04bb828a38852c61e464d7541dd76d5b4c0e384b96"}, "vout": 0, "txid": "6ac3c923b2629ba47df85a86b065e8c7089d2987c76e024e8c076982378e4cb4"}], "txid": "86e25a96649fb5e02fb2a2b0b36e04a8da4de3f20e68ed4d57d06e68368ded25", "blocktime": 1537874412, "version": 1, "confirmations": 11467, "time": 1537874412, "locktime": 0, "vsize": 485, "size": 485}