{"hash": "b0a29c529fada716a7049780e683df07b65c003ea9fc72e16a00e4ebf467e3f3", "blockhash": "0000000000000000001f76057863aec43deb6fa401d9628bb513d65a8098bfab", "vout": [{"scriptPubKey": {"reqSigs": 1, "hex": "76a914909796d8a946ac42e081c57e379f0a65acb13b6c88ac", "addresses": ["1EBXuEGugxqmJuEFCAqd3X17wDL3DbsrEm"], "asm": "OP_DUP OP_HASH160 909796d8a946ac42e081c57e379f0a65acb13b6c OP_EQUALVERIFY OP_CHECKSIG", "type": "pubkeyhash"}, "value": 0.0062166, "n": 0}, {"scriptPubKey": {"reqSigs": 1, "hex": "a914cdbf38026b7a23c9179a3d1cd3359b757d63505f87", "addresses": ["3LSuWyypx7JARHnKPGzQ7NWoKX1hHUnbCv"], "asm": "OP_HASH160 cdbf38026b7a23c9179a3d1cd3359b757d63505f OP_EQUAL", "type": "scripthash"}, "value": 0.00999936, "n": 1}], "hex": "020000000001022d361bc7099473d62192ddf993e80c551a7f6e92ebc55827af9e82d49c6a5ec105000000171600143307f245d68862f726151f0ef029889d52b34e51fefffffffc1fdfffe1dfc6ceb2c382dadc1d4ceef23fd7a3e98d801ff52775def8cd13af00000000171600144a9c2f9375e082b920ce7e46f00ed3ae23d21bb9feffffff025c7c0900000000001976a914909796d8a946ac42e081c57e379f0a65acb13b6c88ac00420f000000000017a914cdbf38026b7a23c9179a3d1cd3359b757d63505f8702483045022100aadd1156d992af382b6c7166bb441ddeeb76af3574eff03d6e838c7976907af502200c19541a2a489f92412e18929b86560a9e905b390c89a5a07a471036edc051c2012102cbabd5fa216e4d7e9b30f609d2e77a19ce1b9707f31a6bdda5e46a2c49179c4602483045022100bc34f970b30cf07d3aaa0387684b4ad5cd4139f65744da8013d06362f0ed27e60220270537c1f515c1948b367e0aeae1c6c06c0aa8052caa25006ddece1f1d5178ef0121034df1de2ebf2dfdf7aa047e98b503ef3857f127172c76a75bc9069a5273eb980114490800", "vin": [{"txinwitness": ["3045022100aadd1156d992af382b6c7166bb441ddeeb76af3574eff03d6e838c7976907af502200c19541a2a489f92412e18929b86560a9e905b390c89a5a07a471036edc051c201", "02cbabd5fa216e4d7e9b30f609d2e77a19ce1b9707f31a6bdda5e46a2c49179c46"], "sequence": 4294967294, "scriptSig": {"hex": "1600143307f245d68862f726151f0ef029889d52b34e51", "asm": "00143307f245d68862f726151f0ef029889d52b34e51"}, "vout": 5, "txid": "c15e6a9cd4829eaf2758c5eb926e7f1a550ce893f9dd9221d6739409c71b362d"}, {"txinwitness": ["3045022100bc34f970b30cf07d3aaa0387684b4ad5cd4139f65744da8013d06362f0ed27e60220270537c1f515c1948b367e0aeae1c6c06c0aa8052caa25006ddece1f1d5178ef01", "034df1de2ebf2dfdf7aa047e98b503ef3857f127172c76a75bc9069a5273eb9801"], "sequence": 4294967294, "scriptSig": {"hex": "1600144a9c2f9375e082b920ce7e46f00ed3ae23d21bb9", "asm": "00144a9c2f9375e082b920ce7e46f00ed3ae23d21bb9"}, "vout": 0, "txid": "af13cdf8de7527f51f808de9a3d73ff2ee4c1ddcda82c3b2cec6dfe1ffdf1ffc"}], "txid": "86e3e198ce658cf64df8bd65a7e79ad59a1dbc5fdb18ed1c918670f9f988346e", "blocktime": 1537873891, "version": 2, "confirmations": 11478, "time": 1537873891, "locktime": 542996, "vsize": 259, "size": 422}