{"hash": "86e4c932cb5a838c1c7afcdade401384c159d0716d842678677f2692797f03a5", "blockhash": "00000000000000000017f5eb5941039fbcee6240d03bc1f2f8e35350df66a1d8", "vout": [{"scriptPubKey": {"reqSigs": 1, "hex": "76a9146a95ec843475aa904a1c962f2a4091b290f60d4888ac", "addresses": ["1AiaEEGHQmBzmvtqZ4Pr3Mn4zEYeVx2DDY"], "asm": "OP_DUP OP_HASH160 6a95ec843475aa904a1c962f2a4091b290f60d48 OP_EQUALVERIFY OP_CHECKSIG", "type": "pubkeyhash"}, "value": 0.00626921, "n": 0}, {"scriptPubKey": {"reqSigs": 1, "hex": "76a914c59d9a957cf00b19f063736389134bf1b7b028f588ac", "addresses": ["1K1tvJGBDTb9Z5JHReL7UqKGaDwfLL55Ce"], "asm": "OP_DUP OP_HASH160 c59d9a957cf00b19f063736389134bf1b7b028f5 OP_EQUALVERIFY OP_CHECKSIG", "type": "pubkeyhash"}, "value": 0.02077183, "n": 1}], "hex": "0100000001397bb2a2b4d540f81386c6500bcf5f0ce2b7cc65d52c7ce977ca2879c3b37c76010000006a4730440220778b94fc247c32fdebf316f04540efb9863f2f6c89801e6ad41ed15c9e28cde402205d331e2d09ee76525e1cc6d6f1474195dc5c5fbf3fa73b933e97b6ff654592ff0121037123fd5aa490105ecabcf5f35cfae8d4be428dd2f3711a294b8f4e6cc9257b6effffffff02e9900900000000001976a9146a95ec843475aa904a1c962f2a4091b290f60d4888acffb11f00000000001976a914c59d9a957cf00b19f063736389134bf1b7b028f588ac00000000", "vin": [{"sequence": 4294967295, "scriptSig": {"hex": "4730440220778b94fc247c32fdebf316f04540efb9863f2f6c89801e6ad41ed15c9e28cde402205d331e2d09ee76525e1cc6d6f1474195dc5c5fbf3fa73b933e97b6ff654592ff0121037123fd5aa490105ecabcf5f35cfae8d4be428dd2f3711a294b8f4e6cc9257b6e", "asm": "30440220778b94fc247c32fdebf316f04540efb9863f2f6c89801e6ad41ed15c9e28cde402205d331e2d09ee76525e1cc6d6f1474195dc5c5fbf3fa73b933e97b6ff654592ff[ALL] 037123fd5aa490105ecabcf5f35cfae8d4be428dd2f3711a294b8f4e6cc9257b6e"}, "vout": 1, "txid": "767cb3c37928ca77e97c2cd565ccb7e20c5fcf0b50c68613f840d5b4a2b27b39"}], "txid": "86e4c932cb5a838c1c7afcdade401384c159d0716d842678677f2692797f03a5", "blocktime": 1537874412, "version": 1, "confirmations": 11467, "time": 1537874412, "locktime": 0, "vsize": 225, "size": 225}