{"hash": "77b5f9da23ff5e3752b2f67bea5f953e35f8d968e941635eb3f9af6d9534f25a", "blockhash": "0000000000000000001cda96e906b7601b7a6fb1a3b62bca570a9e5d8f4b3de1", "vout": [{"scriptPubKey": {"reqSigs": 1, "hex": "a91446ba29c07cc359ae669a78d19acfab96ed593f0087", "addresses": ["388zEoxMJUzMuKxuuq58u6YzDpj989UoJb"], "asm": "OP_HASH160 46ba29c07cc359ae669a78d19acfab96ed593f00 OP_EQUAL", "type": "scripthash"}, "value": 0.00075718, "n": 0}, {"scriptPubKey": {"reqSigs": 1, "hex": "a9140136c10502ae5684e49b302f1af10f145f74b6b787", "addresses": ["31oSC7GvQMTZoouyNLBEHVRDhXEFbVhSmh"], "asm": "OP_HASH160 0136c10502ae5684e49b302f1af10f145f74b6b7 OP_EQUAL", "type": "scripthash"}, "value": 0.06962865, "n": 1}], "hex": "01000000000101c3c5e27aca7d570b9c2cf43b9fbd35a460c1cd7178a3d0bfa3e5893bc29796af0100000023220020efd02f10cc1074c68ec89b458572a71ce6bfc8a17595d8fde80232e47279444bffffffff02c62701000000000017a91446ba29c07cc359ae669a78d19acfab96ed593f0087b13e6a000000000017a9140136c10502ae5684e49b302f1af10f145f74b6b7870400473044022068ccb6c36b8aec18d2afe70e42f4f168414613a402efd8e0330f16e49cc3eb6f022055c9fc0bc8ac5ea749f244357ca13337ae188706f0798b6994e654833ab4eff501483045022100b32c0df83a921601140d0e928078a4d7d5c0d36fdff99cc7236d0621b6addbe5022018dc88ae5f7aa549f46641dc3923b2454434b06187b227927d43f6fda8487f060147522103f985ea61f461801f3abc09ebed98ce7e20804639a64616f639f492883ea4e8d62103871fc2ca08e6950b38867e8e6a0e94ee625223d3aa0df5c65f414c6d784467e252ae00000000", "vin": [{"txinwitness": ["", "3044022068ccb6c36b8aec18d2afe70e42f4f168414613a402efd8e0330f16e49cc3eb6f022055c9fc0bc8ac5ea749f244357ca13337ae188706f0798b6994e654833ab4eff501", "3045022100b32c0df83a921601140d0e928078a4d7d5c0d36fdff99cc7236d0621b6addbe5022018dc88ae5f7aa549f46641dc3923b2454434b06187b227927d43f6fda8487f0601", "522103f985ea61f461801f3abc09ebed98ce7e20804639a64616f639f492883ea4e8d62103871fc2ca08e6950b38867e8e6a0e94ee625223d3aa0df5c65f414c6d784467e252ae"], "sequence": 4294967295, "scriptSig": {"hex": "220020efd02f10cc1074c68ec89b458572a71ce6bfc8a17595d8fde80232e47279444b", "asm": "0020efd02f10cc1074c68ec89b458572a71ce6bfc8a17595d8fde80232e47279444b"}, "vout": 1, "txid": "af9697c23b89e5a3bfd0a37871cdc160a435bd9f3bf42c9c0b577dca7ae2c5c3"}], "txid": "86e940e20e57e96c350c34761d43c1ade3b1e1813ff2be0d500758e28c1e11f1", "blocktime": 1537873282, "version": 1, "confirmations": 11485, "time": 1537873282, "locktime": 0, "vsize": 206, "size": 371}