{"hash": "86eb04243db678b05545da19c96fa1b3344b530049cb1d1d73a8845ce8cd6f1a", "blockhash": "00000000000000000018f53835495a110e01622372bf6ae95dc86f2b0ab887b0", "vout": [{"scriptPubKey": {"reqSigs": 1, "hex": "76a914a080822b5057a1dd27e27ffd5dae5f04d1a9f4c588ac", "addresses": ["1Fdf4crQVy1JR2eK89khst58JaxoEfTtWv"], "asm": "OP_DUP OP_HASH160 a080822b5057a1dd27e27ffd5dae5f04d1a9f4c5 OP_EQUALVERIFY OP_CHECKSIG", "type": "pubkeyhash"}, "value": 0.00144251, "n": 0}, {"scriptPubKey": {"reqSigs": 1, "hex": "76a914fac6e60eaf7dd2afab8ba6d7b35a26568e61ead288ac", "addresses": ["1PrzCgNn8tVHdAeLdkW3yvckXQUNKTnBuB"], "asm": "OP_DUP OP_HASH160 fac6e60eaf7dd2afab8ba6d7b35a26568e61ead2 OP_EQUALVERIFY OP_CHECKSIG", "type": "pubkeyhash"}, "value": 2.65975723, "n": 1}], "hex": "010000002ede8afceab241960a08c9c8e2e8f2836d82642caccab1397c632baa91bb47fe00000000006a47304402203493cf492fd587b880ade14cf9a36df58281cbcb1ea7c1d89b27f76d9d04ea0402200d4085e3873b050cab69e3f588348a6701f27692a6cb9531fc1fe47e762268a1012103d2228ce67a9022e277d322af90b3de4544ca09abfabf078054c3ce678ceb420effffffff015babfde7917d02150d2a132ebd6e31c9319f4decc327c83b36cbc45654f40d010000006a47304402203c77b7ca7838d8fbb66501c51ba0cb642c5062cad243b16b03c3470455840de202200cd8dec62b6f4f63790a8fccf7e9f58aa3e3cfe35541718ff53cf65e0162b1d0012102d9eb218fd9459ea6637af70b2a28b732d48c47c50df6a05c9673741e9851de02ffffffffa6942c1f8338d8e97fc5183537b861676bb3a2060904998bd0d7dc2ebc28f91d060000006a47304402205a5c5fdc5e4b06158872ac738cb64fde66c366a931314c32569810f96d30dd3102203df5fa3002ed035b1788453005c28f155432cb3fa79fafe5489c74e4700239500121022692a37e911165d21d3e426f52a16b711d1036b21f8409d2fbacef9978c91ea6ffffffffadbf2d0d4deacd78e06cedd7de97003f2b037f0aab44949669ffe0b8515ca122010000006b483045022100e6a1ab21b4c6eaa2f80fef974c87c2a60149b42a8c81f20deaaf50a9379a2b81022012d01545a83ff7dd745ac6c8b86f669aaf3e984b834bc82df544454663331a5e012103b20d95257c4a0764e833e6075886390213df1726de7e92aec6c0096ca05f1fcbffffffff5eb9bb99fe1d13fb4ac9135590a2d1e9be38367959460f6c76191ea353313c2a000000006b483045022100ff9180c7f98c011b095977038d3672cb303ae93643c5537f824bff51ccb57e12022023fd1cf016769b886eb1b7e57c647701e2cdf5ae1a0ba5809fb34c23f5964c930121022c377a7aade56cc67c8960b7a7805c6789ec0b4d00418ec706f91daf19b992a4ffffffff696d6934c19e1c9694b9eca408017407e5e51192dcb9cd1bfd20febda330392c0a0000006a473044022011851beb98c06e513184661f11dd6a56724c6fd03674d966e96c8af84a733fe302203c6b5e4cf0be442ac01053484f461db85e64efdf801f0faba9970eb4f6983b5d012102b7ff29d41ffc7a0642836a122dbae91a39305a83d38247ee358a308a81bbf5afffffffff1b724c443912a12e8ebb22fcf8ab42869ddc228dfc3a2e31797fbd43553cce30000000006a47304402206f2ca9ba87c6fb6c224a4a1f5b6688c9806bcb54f3d029a539a226455b42cb250220641ae323fae7645edcd0a271625e94436ffb53ea1d755ab8b00dca174a4db25f012102b2112ff6e8338b5c1ca27958dc1525b54130a3cb52dc980f675fe525713131f9ffffffff6beea3eab3942bb934f9d8e73db9c96469610306790bd1fa96fc3cd32278a438080000006b483045022100998d54065b6f4ab43b80986246cfa40e0ef7372636a280485aed4a6a1d14eeb7022063e87f48371e7bc99565778dd36e182d39e15ad07eb8caba15d82f4326ac63ab012103f7d4b6d9151ec4838c4f61909e83c6ded0c82ea961b2fb939a5190ef8e7286bcffffffff2c7349ce1f8be7de8c24eb23ce75361b3d7d0efffa95bd41e8e9a3529e3fc138010000006b483045022100e1c854364365f09d5b6bbac4046897533239b38af941bd8ad55ee952233aec0c02206a365ef7c17f57727a1462a49f02c71721fdc6d5bbe61224dd026216731c006c0121025145ec4f9a6567ea50456209d9cc94bb182108ae7865c93de7ba84b9fb6460a8ffffffff84df2f01e5bc2957ffa4853df935fbfd5bc410d2ef4a78ec17912e3c0f0e5e3d000000006b483045022100aaa08462fd3d875fc4bfc6df72bc050f73563f0f9f871501d0c3a01845a7089d022016f473c79ba54a20d76d888c786de32e444f8381c3ef2aa525b7f47e2065179a01210281bce2445c36cbf96a311118cdcebe5b1b1002ee3c68f82581d853e4ef53652efffffffff1b6dab10c7a9de7f7b8c297f2260e37fd3fc7b51d1c5c8340d3e541f92c373f000000006b483045022100e36f933d0f6ac81fe2972ecb3db8d8b204776757488474e5daed1f113d850d0402201afe724b031e1b66ef90e96a3b3dc90da69012a0b6c9fff5ae401275382aec0001210296e20990e660876f97d30dea2bc258bc148b57e5863d6b7992b747f6562158f4ffffffff765d3f0aeef6441972556cc1ecf79353eb78943bf01a0bc88447d1e3aeb48b45000000006b483045022100b823b033fc02ba5044bafa968a0f226a347f9d20d64124fd8d91da71e9862e9102202126e24dd0f5d294b520b68410327d8e8674c42fa1f107280662b6765ce5cb7401210342a4bc86b3c52bf9d2df4a7edd91ae4a429d11e31372d054c906506354943a69ffffffff7c1b47440a113b002666f551c9b8cf2b66f3f1ecd9918b942f420520a3307f4a000000006a473044022021a15ec5bbc41934b943d7fe8ae6f6344220b315f35a90c9ae048dfbace846390220106846928dccfad12bcd79b25ccb6fb17aa961fdbe2a5e666a4713da7449245001210322f917cbbec9c4695df8cd58b1eb627afb50aa336f19e70420ec3046bc747353ffffffff93ba50561042c6d646e1f2428ab3cb275fd490b88dab2c8bcf90b1418ece5256000000006b483045022100931db2ed6eea9f875b13f5ec5a9892e6085a7555b6aa83083aa748673e6a8f20022062bc35cdc8f7bc8bf96ae4ba34d9f045ebdd202770a354b8350ee53f2eecc672012103bec1116fd41c85671efa872f030d3592b8badf1ed7b7422e6db0afc9fb365e67ffffffff80f6874a72dbf2b6097def2f6602443ec423cc5af8ee0b000ba02d9af856545a000000006a4730440220386da44ff5fedda60323297555695ef90f62fc8ace0585731f7203972ab0e552022064a05a3926519666ecf52ba67f0d4b08c03f225e72c9d5b210e662c6285fb86a0121037a85eb28ac531b9c6f3a76591d1df85a61060d2000157d10045bf040dd9b4453ffffffffbe444acb9d8e0400ad7f62d06b7cf0918aa8816a9faa5e1d98f627212ade535c010000006a473044022074c7ecc367f07228eebc63b9bb61a5241e7a94f2dbe7a1ee2ff2cf07878eded702207bbd874bc9787b423924e2558a84f4b65bb39d5e05eef3d1157b903e31fa80c6012103f4ca96efce3df720efc26b78c34872172fe00410ebf4e2638ad2000c9c5e17afffffffff4586e94ac21826d66f054a6e953d5bb965436ac6b594674005603b2f4bb4c75c000000006a4730440220785578b4e0659165027212a5f2272ae36c8138fbd327591915de7b059ac3bc180220369b4de97114f7aa49b21e989ad4001978927a4379c2b0d41713b108531671e70121029facb2796521994526ae856693ce823de7926ad701d218164d608c9bb2277460ffffffff4a9727d4403c3d022720f4e9896cd43dcbf086351ffcc602112d0497dd64c55e010000006b483045022100d76160cafcdae66defe9dda5a93e218eb8a16fcd486bbbf5dc766a294369f506022049dba2535f80c2581397ad6bb90b0dc089b5cbe5ec10c45c9bdd2b8ae8657154012102cac0a3302f3c53ecbaa4e6076123042bd6007d52a879ba6ee265a592b7556ad8ffffffff1cdc6431ab933cbc243850eaf21f50afd2f342a5c36819104ed607008aed8e63000000006a47304402202ea9d30f5455ab32c8628bf648c7595a0dc263783eac7208fa41f270a8e4c70102207fcc7d0f6592c37fa4da4de76042aa17546244a18d97da0cc3a0ae354623658d012103b797f9f6362f6f67e8139ac681bbc7b19450f40f63b6af3194f054125a031a9bffffffff96e83de7cf42c8ecabeee7580444ae68405c327ba4f3b00a5fa5639e3fee6e6d000000006b48304502210095c6c1dcfb4a2f31e636a7858b29bd0b1fe921dd86c1cffcfa34f590e00e050102201a9f13d20bd954949b2a4f157f63f72e81795b43d1979916d54afba628d117130121020d65687cdebfe931636d56e2db4f6206e00b6d50c2c36894d3a9a5d196113913ffffffff62c123573cf96267ef8a63f08e036c0cfb1bc020cddde99087550763a0258970000000006b48304502210086430a42445eeed6be370b4f6cabaec93beb244cb9fc21d222cf44b4d8a9b89a02207df899b3c21f865ae7bbf7be4e1dbb8fd5127e943fae6ece40e89d6bb1a8483c01210313e4be4a59cdeb8153787273b34a7eaa981ded6bc128985ca7307826b04174c0ffffffff0c1e4ad05921a97ab8e386228ca5dd588d261f465a10cbd745c4c5817ee95279000000006a47304402200c5a43822a6bb84dec57eabb29532c38f29f41babd68a6e556d524f52d159f4602207279f8717b1d56a8b224ee262d07264bb4997b115e55c7cde1204277e1c57057012103f4f26c71db51729a0fe4e1585d71ff4e8d773d8907216b7e865c7385d225ca69ffffffffef0306aa4e539df203b662396d020ca67e37b5e881602f840ce19f40cd90b285010000006b483045022100a3bdd3c86f5169633cdc9c0e7e159af24d809ceb5ba5c50ae953fad56af34e24022018ee16b9c97af92e35d9951c591556d5683c30c415500019a8192cea63b68ba1012102440a39a5ac93961764d986a76ee66dd95a5fdc1d103938e506a5143d9513ca36ffffffff3cfe294588dafc9341e12f409baaf0f29a3acd5daf4b2d6a827e54c441dae587000000006a473044022078db4e11cbb05c0597ab61cd2a7f400a7f2ec38c5cad5ccbc348fb6856c7962402206e68e3c51c181e9b4d3fdfcb1b9225b78c38cd0e9c37cd6dcec4a9edf93c1a3d012102677f78ce9546bbc99d2078371765a22874a2edfabe126d287d0f322726408c02ffffffff9403e2f027d314e812ec5ecb178d68f4f00163d3ba17250c1563dce82101f592100000006b4830450221009504d649fbe74f6b0e35ae5868e5d1132b19813a1c7fe03fc0dd5654097e5a9e02203fa0d511498b7180eb9a70be5471c7a25124839b4ec330f55d7cbd5fa4b201b901210270e71452daae051a0e7685d3d1bdd5489db4022defd2397bf3c12c1322d7257bffffffff2efea39c12a9882effe9c09f5bf092cfe3bbb2f3e95e4d7ad4c47e265556e093000000006a47304402206bc0340e5a67db5b7278cf0ab98a6699246a962d91a82a02dbffb541a83ffe44022057c852d90c97b51d5c4f7f33f16037cdc274e3d0dd29bd92aa3f71eff40f7d270121031c879491d2cb0867024e5f951db7595ee054a8876b176b0ec66eb2f18370a993ffffffff95b63e86c3629cab47351d58b5d780d389e18c1007fb2a7f216e4d8d84d8e999000000006a4730440220139ee3f4edb1b5bd06d25929d8bd3160dee26332387c1d15884c82a3306a812702207f9c6c7e090631f07fe5df98ed9479c089658fec0d5c40edee72692d8176a53a012102cfc1440636552e7a6bd3729922b73dcf69c706aa590c245f9079d3d8b01072d9ffffffffd3c983e49799832df1e776fa7c59ab32e796fa55a45c2f017183cdb7f1b010a0010000006b483045022100bbad0655b51f324bb80b6fd1223aaf692ef0bc600cc497124c47e8e2317eb85302207a17f997aae5df88b41572f02f727573b384e135a1a63f8b999cb4d3cbcc1640012103a6b3ecc97379438c9c9eb4a408d1feee7fe3bdde607005da3227dabe47d0906effffffff079546533c7adcb214ced3a148336fb850af15a018633630cfe33f9f8fdd8ca6000000006a47304402204f686a840bb9f6478c80c96c9b6dd837b45441633c5cda441574f3d31571f48202207dd1a39e69cfd83bf6b04ba2989bca182c56449825f685040b05088cc8d53117012103130f4b360ec1d260ae8c14caa6543330d3369d8bd13585c787073247c7e1d888ffffffff9d551fa5a07cfa84a49ffa85f28ecb72de0598eb091e3864b5357e4d93cf24a7000000006b483045022100affaff3c5fd7d2e0a903b3deb0f849e882b1748aab87dc4e45834df56c3058d002205c5b6c8e2d6f453b7d63c7f1187392662d6ac64340fb9b40eb66b677843c21480121033e14cff3b970cd291631a40bfa6fd524eda896fb50144d2c3aa78403fa887a1cffffffff13d306fa3e91d82f7e891a42d2d7025c0d7c1e38963c7e974a8d3da1377f1bbd000000006b483045022100af985c0e0fd89046b4e84bf297fdb340d1f4a1d3015768cd1ef935a0440a9525022059eab2cb810089838048997eb9baa8962838f3cb809cdabefa7c079d2384c36c012103327d4660a63e53a20bd1fc1201b3257ccd53f6a75ec11e0424b15b0640451c68ffffffff8607b28fb24d07ac64621afe7c35d0090f0ec0b82c748e05d6f32e9267d19bc2000000006a4730440220309c300ef0a5427b47271adf78843fedf09d1667a40cec9b8c7be79105ed32680220724d4096667eaa6515f72a823d41bd1ae47e584abcb40987a3a1ed3aa8f8b5f60121036a17e1c90622fa72167e4a124a3afb5f27ee06bf4e3d42073b732ed590d749e5ffffffffcc2e44a3a5c598191c177b66060eabf49c7fe3340b0b0bbe52e21137899636c5010000006b483045022100a60d9aed6398194697c2821c137dbf93f04c7e289c437542a512a1768468bd0702206f4b0b824b547885ad0319fdff1422af346ffea90f12bd5b5d5070f24c7b0d3b012103a48cac891b703fcc972b3e1bee4b20afd51bbefa392dee73d235ff383588c7b2ffffffff709fb259332f6919b8d2cf97f769297dc20bdf93631d6e50cbd370be27a3dec6010000006a47304402203e5ed8bd808613c64ba2632680c07659369b30754ae564d6df1948147844077102200ff2718a73fcdac1184d247b84a773288c826b6a0eb4be4417893bf53e15d484012102bf481a93143f41e8ae3cc6d6cf8e9d005ae6264b6bcd1cb6026753bdbc5e6458ffffffff319d249263b299b09e2b2701a088e536e8c66d62bbe797230aca3f1ed46c09c9010000006b483045022100dd5620950ca1c7434a76fde432a929e7dd900ca269d81cf7001ca9d07bb2f8a6022004619ea10f30abbed13321bec721a556cf39d7c47b9fb3601d9d33b8d8e518e50121025ea07ccd2dcea7e67428027680a0b03349bea392ad0bb9c62379d51bcafa09f6ffffffffd361c072c91cc376f00da77f539810ca3ee22af872a0660bc4c801d9cd50bcc9010000006b483045022100e5d63055f2ae4f37035a8f3f4fb8182bb5cfb39a340407f07ec2fa74f8da81e2022025fe1cd1ab60105770d8013297ec652ef8ba902d401b954158ef980804e910ed01210255af1a2b5131b9116af77c6a25804629dc4dea9dded8da696b8c30f73f313df5ffffffff4cb8e923eaa7844c96eda41984a57927650be96e34e38eba47e965ffa6fc56cf000000006b483045022100ee8c7bfd0288387ba60389b307553f3b269400bcfbf5313c1e3ddade2ec9136b0220154ea936a49cec3daf77dd46d0c141288d5aebec6ce20807317a4c5c8fd44c120121031250e7cbc6f56527d3e46552855ea7de55d8507c8289e8b7e16f649443ac7aafffffffff7557f8167a4f8501d7fe7145784b8e2fcbba57fffed66906e8b39eb7cd9db1d40f0000006b483045022100cd3eecc77b4d878b4397c3eb13ce7d7af3334cf6643e577a32516f806f121e3502200e7a49de31b19ba6df7223e6527340b8a7305beea6e0602692f43f0710c7ee24012103bb445b38d2fc2b42f68cffab7b5612e9df0fe77caa91a0161049a59672a8beb6ffffffff234444e156762ea829342648971aafc0698971c19915554cd72ea2798de13bd5000000006b483045022100d45408e26c46104121eddb5daa74639f28789dc3ad5914a8f9fb16a52d5558f602201e9212e737a3076238395a85dd92d57f3cf489bce0356a369f6ce22b020dd9c00121023b76759aaabbcbe2aec4fa3ea2301eef54089e61c0c7cba0065500470b82349cfffffffff718e9a639701708679d3bb7279e2c280b63656a179477770c8af4ae73945ed5000000006a47304402204f1c3de2a95b3bcb1191c7cfc21115e803cd743cbeaa35718b582b41a1f6b264022014e96daf78a38d41afcc702938bd5d287bcf4f36e64fb6eae4911968bbd4ac19012103f4ca96efce3df720efc26b78c34872172fe00410ebf4e2638ad2000c9c5e17afffffffff28c4ba1c92713054d87dde910d90adaf2873621233d4b279eb470cc43739fedc000000006b483045022100fd59231b19fce517cf96eff6aef35bc27f7c89349d1ab8d93091782ea9b840820220220a15b25ec6da5884cdc1fdfe1f5baf2d62dcd2c3b837e478579c8b87518898012103e2353e619c732a9451e33f76b08708bf05e407086e9d8cd7fca57e53a684161cffffffff65508b08726da7c33909dbb94e7ebd197ccb6701484065d292fad0a971b04de5000000006b483045022100f64197961895b925a553642469d230ec06800dd19d3b302a084b9094e7b778d202200cb966dc86bffb43450feb35ff42cc9dc84224687608a26898063d93adaa81ab012103dc42c4126dc985fe878473211edb1bcd5fd05a5606f887d74cd15aa35c315916ffffffffb6a3788505140cd91d08126663e7e9f96bf0510bc9b414cece254b67f91343e7010000006b483045022100b5a319cac952781c695a00b223dfe55e89721c0c22e812c59f0e6d4a83011fc3022026866235ee0e3983631b7d54e5ef0f285c5eba82c190cefc0a92024f45fe45fa012102ffa1ff2162fc99edafe53de13c1862b88b0376fdac1fbddab51ab4f469925b60ffffffff6dd46785aa6dcd07394f06de87488aea3109d4a94d8c78edef4f5442598521e9010000006b483045022100f6da5d76e2c8d63fb29c238917a008435d5af4f73ae6f46c6c2ff728e9c7f78102200e3fe3ed978214fe2ebd5b9faebdbc5b02fc00a78b123422b6bb5d7ce3bb5d7b012102c63029e7ff9bcb07bc6efd993169ef3060fcc43238103c73e726a352e461c7bdffffffffcc770ca975e3103de5480f1150c1a2725c0c73c31f0cf351abde92cd3855fcec010000006a473044022035f98b5e4dc6f7ae133c577d2756258b192cb4f138642ab53ed231408d5a0d9a02202d9093dd09590ee7535d96115ffa6725bc1fc1b06436fd45a49a00a417a3b8aa0121029c80e3aa024e2c685ea5d38f647e3f1d6710c579f5efce0eb4f58c9762620836ffffffff808aa2517558a98c0596ce41219483b73818f95a14c281b7a57d33e0eb9f50f6000000006b483045022100d8d9490c9243fcd160a10c730ba98ac1eb8de00d1127933419b72738e215713a0220198b9973b49cee13eaca6535e4269f86003cd5cba7a33a0cad6898ec628aaf1d01210296390d1a4ab1b7d5c0b75b40e152d615fc7f66881c7ae861ce5a654eb003acc1ffffffff027b330200000000001976a914a080822b5057a1dd27e27ffd5dae5f04d1a9f4c588acab77da0f000000001976a914fac6e60eaf7dd2afab8ba6d7b35a26568e61ead288ac00000000", "vin": [{"sequence": 4294967295, "scriptSig": {"hex": "47304402203493cf492fd587b880ade14cf9a36df58281cbcb1ea7c1d89b27f76d9d04ea0402200d4085e3873b050cab69e3f588348a6701f27692a6cb9531fc1fe47e762268a1012103d2228ce67a9022e277d322af90b3de4544ca09abfabf078054c3ce678ceb420e", "asm": "304402203493cf492fd587b880ade14cf9a36df58281cbcb1ea7c1d89b27f76d9d04ea0402200d4085e3873b050cab69e3f588348a6701f27692a6cb9531fc1fe47e762268a1[ALL] 03d2228ce67a9022e277d322af90b3de4544ca09abfabf078054c3ce678ceb420e"}, "vout": 0, "txid": "00fe47bb91aa2b637c39b1caac2c64826d83f2e8e2c8c9080a9641b2eafc8ade"}, {"sequence": 4294967295, "scriptSig": {"hex": "47304402203c77b7ca7838d8fbb66501c51ba0cb642c5062cad243b16b03c3470455840de202200cd8dec62b6f4f63790a8fccf7e9f58aa3e3cfe35541718ff53cf65e0162b1d0012102d9eb218fd9459ea6637af70b2a28b732d48c47c50df6a05c9673741e9851de02", "asm": "304402203c77b7ca7838d8fbb66501c51ba0cb642c5062cad243b16b03c3470455840de202200cd8dec62b6f4f63790a8fccf7e9f58aa3e3cfe35541718ff53cf65e0162b1d0[ALL] 02d9eb218fd9459ea6637af70b2a28b732d48c47c50df6a05c9673741e9851de02"}, "vout": 1, "txid": "0df45456c4cb363bc827c3ec4d9f31c9316ebd2e132a0d15027d91e7fdab5b01"}, {"sequence": 4294967295, "scriptSig": {"hex": "47304402205a5c5fdc5e4b06158872ac738cb64fde66c366a931314c32569810f96d30dd3102203df5fa3002ed035b1788453005c28f155432cb3fa79fafe5489c74e4700239500121022692a37e911165d21d3e426f52a16b711d1036b21f8409d2fbacef9978c91ea6", "asm": "304402205a5c5fdc5e4b06158872ac738cb64fde66c366a931314c32569810f96d30dd3102203df5fa3002ed035b1788453005c28f155432cb3fa79fafe5489c74e470023950[ALL] 022692a37e911165d21d3e426f52a16b711d1036b21f8409d2fbacef9978c91ea6"}, "vout": 6, "txid": "1df928bc2edcd7d08b99040906a2b36b6761b8373518c57fe9d838831f2c94a6"}, {"sequence": 4294967295, "scriptSig": {"hex": "483045022100e6a1ab21b4c6eaa2f80fef974c87c2a60149b42a8c81f20deaaf50a9379a2b81022012d01545a83ff7dd745ac6c8b86f669aaf3e984b834bc82df544454663331a5e012103b20d95257c4a0764e833e6075886390213df1726de7e92aec6c0096ca05f1fcb", "asm": "3045022100e6a1ab21b4c6eaa2f80fef974c87c2a60149b42a8c81f20deaaf50a9379a2b81022012d01545a83ff7dd745ac6c8b86f669aaf3e984b834bc82df544454663331a5e[ALL] 03b20d95257c4a0764e833e6075886390213df1726de7e92aec6c0096ca05f1fcb"}, "vout": 1, "txid": "22a15c51b8e0ff69969444ab0a7f032b3f0097ded7ed6ce078cdea4d0d2dbfad"}, {"sequence": 4294967295, "scriptSig": {"hex": "483045022100ff9180c7f98c011b095977038d3672cb303ae93643c5537f824bff51ccb57e12022023fd1cf016769b886eb1b7e57c647701e2cdf5ae1a0ba5809fb34c23f5964c930121022c377a7aade56cc67c8960b7a7805c6789ec0b4d00418ec706f91daf19b992a4", "asm": "3045022100ff9180c7f98c011b095977038d3672cb303ae93643c5537f824bff51ccb57e12022023fd1cf016769b886eb1b7e57c647701e2cdf5ae1a0ba5809fb34c23f5964c93[ALL] 022c377a7aade56cc67c8960b7a7805c6789ec0b4d00418ec706f91daf19b992a4"}, "vout": 0, "txid": "2a3c3153a31e19766c0f4659793638bee9d1a2905513c94afb131dfe99bbb95e"}, {"sequence": 4294967295, "scriptSig": {"hex": "473044022011851beb98c06e513184661f11dd6a56724c6fd03674d966e96c8af84a733fe302203c6b5e4cf0be442ac01053484f461db85e64efdf801f0faba9970eb4f6983b5d012102b7ff29d41ffc7a0642836a122dbae91a39305a83d38247ee358a308a81bbf5af", "asm": "3044022011851beb98c06e513184661f11dd6a56724c6fd03674d966e96c8af84a733fe302203c6b5e4cf0be442ac01053484f461db85e64efdf801f0faba9970eb4f6983b5d[ALL] 02b7ff29d41ffc7a0642836a122dbae91a39305a83d38247ee358a308a81bbf5af"}, "vout": 10, "txid": "2c3930a3bdfe20fd1bcdb9dc9211e5e507740108a4ecb994961c9ec134696d69"}, {"sequence": 4294967295, "scriptSig": {"hex": "47304402206f2ca9ba87c6fb6c224a4a1f5b6688c9806bcb54f3d029a539a226455b42cb250220641ae323fae7645edcd0a271625e94436ffb53ea1d755ab8b00dca174a4db25f012102b2112ff6e8338b5c1ca27958dc1525b54130a3cb52dc980f675fe525713131f9", "asm": "304402206f2ca9ba87c6fb6c224a4a1f5b6688c9806bcb54f3d029a539a226455b42cb250220641ae323fae7645edcd0a271625e94436ffb53ea1d755ab8b00dca174a4db25f[ALL] 02b2112ff6e8338b5c1ca27958dc1525b54130a3cb52dc980f675fe525713131f9"}, "vout": 0, "txid": "30ce3c5543bd7f79312e3afc8d22dc9d8642abf8fc22bb8e2ea11239444c721b"}, {"sequence": 4294967295, "scriptSig": {"hex": "483045022100998d54065b6f4ab43b80986246cfa40e0ef7372636a280485aed4a6a1d14eeb7022063e87f48371e7bc99565778dd36e182d39e15ad07eb8caba15d82f4326ac63ab012103f7d4b6d9151ec4838c4f61909e83c6ded0c82ea961b2fb939a5190ef8e7286bc", "asm": "3045022100998d54065b6f4ab43b80986246cfa40e0ef7372636a280485aed4a6a1d14eeb7022063e87f48371e7bc99565778dd36e182d39e15ad07eb8caba15d82f4326ac63ab[ALL] 03f7d4b6d9151ec4838c4f61909e83c6ded0c82ea961b2fb939a5190ef8e7286bc"}, "vout": 8, "txid": "38a47822d33cfc96fad10b790603616964c9b93de7d8f934b92b94b3eaa3ee6b"}, {"sequence": 4294967295, "scriptSig": {"hex": "483045022100e1c854364365f09d5b6bbac4046897533239b38af941bd8ad55ee952233aec0c02206a365ef7c17f57727a1462a49f02c71721fdc6d5bbe61224dd026216731c006c0121025145ec4f9a6567ea50456209d9cc94bb182108ae7865c93de7ba84b9fb6460a8", "asm": "3045022100e1c854364365f09d5b6bbac4046897533239b38af941bd8ad55ee952233aec0c02206a365ef7c17f57727a1462a49f02c71721fdc6d5bbe61224dd026216731c006c[ALL] 025145ec4f9a6567ea50456209d9cc94bb182108ae7865c93de7ba84b9fb6460a8"}, "vout": 1, "txid": "38c13f9e52a3e9e841bd95faff0e7d3d1b3675ce23eb248cdee78b1fce49732c"}, {"sequence": 4294967295, "scriptSig": {"hex": "483045022100aaa08462fd3d875fc4bfc6df72bc050f73563f0f9f871501d0c3a01845a7089d022016f473c79ba54a20d76d888c786de32e444f8381c3ef2aa525b7f47e2065179a01210281bce2445c36cbf96a311118cdcebe5b1b1002ee3c68f82581d853e4ef53652e", "asm": "3045022100aaa08462fd3d875fc4bfc6df72bc050f73563f0f9f871501d0c3a01845a7089d022016f473c79ba54a20d76d888c786de32e444f8381c3ef2aa525b7f47e2065179a[ALL] 0281bce2445c36cbf96a311118cdcebe5b1b1002ee3c68f82581d853e4ef53652e"}, "vout": 0, "txid": "3d5e0e0f3c2e9117ec784aefd210c45bfdfb35f93d85a4ff5729bce5012fdf84"}, {"sequence": 4294967295, "scriptSig": {"hex": "483045022100e36f933d0f6ac81fe2972ecb3db8d8b204776757488474e5daed1f113d850d0402201afe724b031e1b66ef90e96a3b3dc90da69012a0b6c9fff5ae401275382aec0001210296e20990e660876f97d30dea2bc258bc148b57e5863d6b7992b747f6562158f4", "asm": "3045022100e36f933d0f6ac81fe2972ecb3db8d8b204776757488474e5daed1f113d850d0402201afe724b031e1b66ef90e96a3b3dc90da69012a0b6c9fff5ae401275382aec00[ALL] 0296e20990e660876f97d30dea2bc258bc148b57e5863d6b7992b747f6562158f4"}, "vout": 0, "txid": "3f372cf941e5d340835c1c1db5c73ffd370e26f297c2b8f7e79d7a0cb1dab6f1"}, {"sequence": 4294967295, "scriptSig": {"hex": "483045022100b823b033fc02ba5044bafa968a0f226a347f9d20d64124fd8d91da71e9862e9102202126e24dd0f5d294b520b68410327d8e8674c42fa1f107280662b6765ce5cb7401210342a4bc86b3c52bf9d2df4a7edd91ae4a429d11e31372d054c906506354943a69", "asm": "3045022100b823b033fc02ba5044bafa968a0f226a347f9d20d64124fd8d91da71e9862e9102202126e24dd0f5d294b520b68410327d8e8674c42fa1f107280662b6765ce5cb74[ALL] 0342a4bc86b3c52bf9d2df4a7edd91ae4a429d11e31372d054c906506354943a69"}, "vout": 0, "txid": "458bb4aee3d14784c80b1af03b9478eb5393f7ecc16c55721944f6ee0a3f5d76"}, {"sequence": 4294967295, "scriptSig": {"hex": "473044022021a15ec5bbc41934b943d7fe8ae6f6344220b315f35a90c9ae048dfbace846390220106846928dccfad12bcd79b25ccb6fb17aa961fdbe2a5e666a4713da7449245001210322f917cbbec9c4695df8cd58b1eb627afb50aa336f19e70420ec3046bc747353", "asm": "3044022021a15ec5bbc41934b943d7fe8ae6f6344220b315f35a90c9ae048dfbace846390220106846928dccfad12bcd79b25ccb6fb17aa961fdbe2a5e666a4713da74492450[ALL] 0322f917cbbec9c4695df8cd58b1eb627afb50aa336f19e70420ec3046bc747353"}, "vout": 0, "txid": "4a7f30a32005422f948b91d9ecf1f3662bcfb8c951f56626003b110a44471b7c"}, {"sequence": 4294967295, "scriptSig": {"hex": "483045022100931db2ed6eea9f875b13f5ec5a9892e6085a7555b6aa83083aa748673e6a8f20022062bc35cdc8f7bc8bf96ae4ba34d9f045ebdd202770a354b8350ee53f2eecc672012103bec1116fd41c85671efa872f030d3592b8badf1ed7b7422e6db0afc9fb365e67", "asm": "3045022100931db2ed6eea9f875b13f5ec5a9892e6085a7555b6aa83083aa748673e6a8f20022062bc35cdc8f7bc8bf96ae4ba34d9f045ebdd202770a354b8350ee53f2eecc672[ALL] 03bec1116fd41c85671efa872f030d3592b8badf1ed7b7422e6db0afc9fb365e67"}, "vout": 0, "txid": "5652ce8e41b190cf8b2cab8db890d45f27cbb38a42f2e146d6c642105650ba93"}, {"sequence": 4294967295, "scriptSig": {"hex": "4730440220386da44ff5fedda60323297555695ef90f62fc8ace0585731f7203972ab0e552022064a05a3926519666ecf52ba67f0d4b08c03f225e72c9d5b210e662c6285fb86a0121037a85eb28ac531b9c6f3a76591d1df85a61060d2000157d10045bf040dd9b4453", "asm": "30440220386da44ff5fedda60323297555695ef90f62fc8ace0585731f7203972ab0e552022064a05a3926519666ecf52ba67f0d4b08c03f225e72c9d5b210e662c6285fb86a[ALL] 037a85eb28ac531b9c6f3a76591d1df85a61060d2000157d10045bf040dd9b4453"}, "vout": 0, "txid": "5a5456f89a2da00b000beef85acc23c43e4402662fef7d09b6f2db724a87f680"}, {"sequence": 4294967295, "scriptSig": {"hex": "473044022074c7ecc367f07228eebc63b9bb61a5241e7a94f2dbe7a1ee2ff2cf07878eded702207bbd874bc9787b423924e2558a84f4b65bb39d5e05eef3d1157b903e31fa80c6012103f4ca96efce3df720efc26b78c34872172fe00410ebf4e2638ad2000c9c5e17af", "asm": "3044022074c7ecc367f07228eebc63b9bb61a5241e7a94f2dbe7a1ee2ff2cf07878eded702207bbd874bc9787b423924e2558a84f4b65bb39d5e05eef3d1157b903e31fa80c6[ALL] 03f4ca96efce3df720efc26b78c34872172fe00410ebf4e2638ad2000c9c5e17af"}, "vout": 1, "txid": "5c53de2a2127f6981d5eaa9f6a81a88a91f07c6bd0627fad00048e9dcb4a44be"}, {"sequence": 4294967295, "scriptSig": {"hex": "4730440220785578b4e0659165027212a5f2272ae36c8138fbd327591915de7b059ac3bc180220369b4de97114f7aa49b21e989ad4001978927a4379c2b0d41713b108531671e70121029facb2796521994526ae856693ce823de7926ad701d218164d608c9bb2277460", "asm": "30440220785578b4e0659165027212a5f2272ae36c8138fbd327591915de7b059ac3bc180220369b4de97114f7aa49b21e989ad4001978927a4379c2b0d41713b108531671e7[ALL] 029facb2796521994526ae856693ce823de7926ad701d218164d608c9bb2277460"}, "vout": 0, "txid": "5cc7b44b2f3b6005406794b5c66a4365b95b3d956e4a056fd62618c24ae98645"}, {"sequence": 4294967295, "scriptSig": {"hex": "483045022100d76160cafcdae66defe9dda5a93e218eb8a16fcd486bbbf5dc766a294369f506022049dba2535f80c2581397ad6bb90b0dc089b5cbe5ec10c45c9bdd2b8ae8657154012102cac0a3302f3c53ecbaa4e6076123042bd6007d52a879ba6ee265a592b7556ad8", "asm": "3045022100d76160cafcdae66defe9dda5a93e218eb8a16fcd486bbbf5dc766a294369f506022049dba2535f80c2581397ad6bb90b0dc089b5cbe5ec10c45c9bdd2b8ae8657154[ALL] 02cac0a3302f3c53ecbaa4e6076123042bd6007d52a879ba6ee265a592b7556ad8"}, "vout": 1, "txid": "5ec564dd97042d1102c6fc1f3586f0cb3dd46c89e9f42027023d3c40d427974a"}, {"sequence": 4294967295, "scriptSig": {"hex": "47304402202ea9d30f5455ab32c8628bf648c7595a0dc263783eac7208fa41f270a8e4c70102207fcc7d0f6592c37fa4da4de76042aa17546244a18d97da0cc3a0ae354623658d012103b797f9f6362f6f67e8139ac681bbc7b19450f40f63b6af3194f054125a031a9b", "asm": "304402202ea9d30f5455ab32c8628bf648c7595a0dc263783eac7208fa41f270a8e4c70102207fcc7d0f6592c37fa4da4de76042aa17546244a18d97da0cc3a0ae354623658d[ALL] 03b797f9f6362f6f67e8139ac681bbc7b19450f40f63b6af3194f054125a031a9b"}, "vout": 0, "txid": "638eed8a0007d64e101968c3a542f3d2af501ff2ea503824bc3c93ab3164dc1c"}, {"sequence": 4294967295, "scriptSig": {"hex": "48304502210095c6c1dcfb4a2f31e636a7858b29bd0b1fe921dd86c1cffcfa34f590e00e050102201a9f13d20bd954949b2a4f157f63f72e81795b43d1979916d54afba628d117130121020d65687cdebfe931636d56e2db4f6206e00b6d50c2c36894d3a9a5d196113913", "asm": "304502210095c6c1dcfb4a2f31e636a7858b29bd0b1fe921dd86c1cffcfa34f590e00e050102201a9f13d20bd954949b2a4f157f63f72e81795b43d1979916d54afba628d11713[ALL] 020d65687cdebfe931636d56e2db4f6206e00b6d50c2c36894d3a9a5d196113913"}, "vout": 0, "txid": "6d6eee3f9e63a55f0ab0f3a47b325c4068ae440458e7eeabecc842cfe73de896"}, {"sequence": 4294967295, "scriptSig": {"hex": "48304502210086430a42445eeed6be370b4f6cabaec93beb244cb9fc21d222cf44b4d8a9b89a02207df899b3c21f865ae7bbf7be4e1dbb8fd5127e943fae6ece40e89d6bb1a8483c01210313e4be4a59cdeb8153787273b34a7eaa981ded6bc128985ca7307826b04174c0", "asm": "304502210086430a42445eeed6be370b4f6cabaec93beb244cb9fc21d222cf44b4d8a9b89a02207df899b3c21f865ae7bbf7be4e1dbb8fd5127e943fae6ece40e89d6bb1a8483c[ALL] 0313e4be4a59cdeb8153787273b34a7eaa981ded6bc128985ca7307826b04174c0"}, "vout": 0, "txid": "708925a06307558790e9ddcd20c01bfb0c6c038ef0638aef6762f93c5723c162"}, {"sequence": 4294967295, "scriptSig": {"hex": "47304402200c5a43822a6bb84dec57eabb29532c38f29f41babd68a6e556d524f52d159f4602207279f8717b1d56a8b224ee262d07264bb4997b115e55c7cde1204277e1c57057012103f4f26c71db51729a0fe4e1585d71ff4e8d773d8907216b7e865c7385d225ca69", "asm": "304402200c5a43822a6bb84dec57eabb29532c38f29f41babd68a6e556d524f52d159f4602207279f8717b1d56a8b224ee262d07264bb4997b115e55c7cde1204277e1c57057[ALL] 03f4f26c71db51729a0fe4e1585d71ff4e8d773d8907216b7e865c7385d225ca69"}, "vout": 0, "txid": "7952e97e81c5c445d7cb105a461f268d58dda58c2286e3b87aa92159d04a1e0c"}, {"sequence": 4294967295, "scriptSig": {"hex": "483045022100a3bdd3c86f5169633cdc9c0e7e159af24d809ceb5ba5c50ae953fad56af34e24022018ee16b9c97af92e35d9951c591556d5683c30c415500019a8192cea63b68ba1012102440a39a5ac93961764d986a76ee66dd95a5fdc1d103938e506a5143d9513ca36", "asm": "3045022100a3bdd3c86f5169633cdc9c0e7e159af24d809ceb5ba5c50ae953fad56af34e24022018ee16b9c97af92e35d9951c591556d5683c30c415500019a8192cea63b68ba1[ALL] 02440a39a5ac93961764d986a76ee66dd95a5fdc1d103938e506a5143d9513ca36"}, "vout": 1, "txid": "85b290cd409fe10c842f6081e8b5377ea60c026d3962b603f29d534eaa0603ef"}, {"sequence": 4294967295, "scriptSig": {"hex": "473044022078db4e11cbb05c0597ab61cd2a7f400a7f2ec38c5cad5ccbc348fb6856c7962402206e68e3c51c181e9b4d3fdfcb1b9225b78c38cd0e9c37cd6dcec4a9edf93c1a3d012102677f78ce9546bbc99d2078371765a22874a2edfabe126d287d0f322726408c02", "asm": "3044022078db4e11cbb05c0597ab61cd2a7f400a7f2ec38c5cad5ccbc348fb6856c7962402206e68e3c51c181e9b4d3fdfcb1b9225b78c38cd0e9c37cd6dcec4a9edf93c1a3d[ALL] 02677f78ce9546bbc99d2078371765a22874a2edfabe126d287d0f322726408c02"}, "vout": 0, "txid": "87e5da41c4547e826a2d4baf5dcd3a9af2f0aa9b402fe14193fcda884529fe3c"}, {"sequence": 4294967295, "scriptSig": {"hex": "4830450221009504d649fbe74f6b0e35ae5868e5d1132b19813a1c7fe03fc0dd5654097e5a9e02203fa0d511498b7180eb9a70be5471c7a25124839b4ec330f55d7cbd5fa4b201b901210270e71452daae051a0e7685d3d1bdd5489db4022defd2397bf3c12c1322d7257b", "asm": "30450221009504d649fbe74f6b0e35ae5868e5d1132b19813a1c7fe03fc0dd5654097e5a9e02203fa0d511498b7180eb9a70be5471c7a25124839b4ec330f55d7cbd5fa4b201b9[ALL] 0270e71452daae051a0e7685d3d1bdd5489db4022defd2397bf3c12c1322d7257b"}, "vout": 16, "txid": "92f50121e8dc63150c2517bad36301f0f4688d17cb5eec12e814d327f0e20394"}, {"sequence": 4294967295, "scriptSig": {"hex": "47304402206bc0340e5a67db5b7278cf0ab98a6699246a962d91a82a02dbffb541a83ffe44022057c852d90c97b51d5c4f7f33f16037cdc274e3d0dd29bd92aa3f71eff40f7d270121031c879491d2cb0867024e5f951db7595ee054a8876b176b0ec66eb2f18370a993", "asm": "304402206bc0340e5a67db5b7278cf0ab98a6699246a962d91a82a02dbffb541a83ffe44022057c852d90c97b51d5c4f7f33f16037cdc274e3d0dd29bd92aa3f71eff40f7d27[ALL] 031c879491d2cb0867024e5f951db7595ee054a8876b176b0ec66eb2f18370a993"}, "vout": 0, "txid": "93e05655267ec4d47a4d5ee9f3b2bbe3cf92f05b9fc0e9ff2e88a9129ca3fe2e"}, {"sequence": 4294967295, "scriptSig": {"hex": "4730440220139ee3f4edb1b5bd06d25929d8bd3160dee26332387c1d15884c82a3306a812702207f9c6c7e090631f07fe5df98ed9479c089658fec0d5c40edee72692d8176a53a012102cfc1440636552e7a6bd3729922b73dcf69c706aa590c245f9079d3d8b01072d9", "asm": "30440220139ee3f4edb1b5bd06d25929d8bd3160dee26332387c1d15884c82a3306a812702207f9c6c7e090631f07fe5df98ed9479c089658fec0d5c40edee72692d8176a53a[ALL] 02cfc1440636552e7a6bd3729922b73dcf69c706aa590c245f9079d3d8b01072d9"}, "vout": 0, "txid": "99e9d8848d4d6e217f2afb07108ce189d380d7b5581d3547ab9c62c3863eb695"}, {"sequence": 4294967295, "scriptSig": {"hex": "483045022100bbad0655b51f324bb80b6fd1223aaf692ef0bc600cc497124c47e8e2317eb85302207a17f997aae5df88b41572f02f727573b384e135a1a63f8b999cb4d3cbcc1640012103a6b3ecc97379438c9c9eb4a408d1feee7fe3bdde607005da3227dabe47d0906e", "asm": "3045022100bbad0655b51f324bb80b6fd1223aaf692ef0bc600cc497124c47e8e2317eb85302207a17f997aae5df88b41572f02f727573b384e135a1a63f8b999cb4d3cbcc1640[ALL] 03a6b3ecc97379438c9c9eb4a408d1feee7fe3bdde607005da3227dabe47d0906e"}, "vout": 1, "txid": "a010b0f1b7cd8371012f5ca455fa96e732ab597cfa76e7f12d839997e483c9d3"}, {"sequence": 4294967295, "scriptSig": {"hex": "47304402204f686a840bb9f6478c80c96c9b6dd837b45441633c5cda441574f3d31571f48202207dd1a39e69cfd83bf6b04ba2989bca182c56449825f685040b05088cc8d53117012103130f4b360ec1d260ae8c14caa6543330d3369d8bd13585c787073247c7e1d888", "asm": "304402204f686a840bb9f6478c80c96c9b6dd837b45441633c5cda441574f3d31571f48202207dd1a39e69cfd83bf6b04ba2989bca182c56449825f685040b05088cc8d53117[ALL] 03130f4b360ec1d260ae8c14caa6543330d3369d8bd13585c787073247c7e1d888"}, "vout": 0, "txid": "a68cdd8f9f3fe3cf30366318a015af50b86f3348a1d3ce14b2dc7a3c53469507"}, {"sequence": 4294967295, "scriptSig": {"hex": "483045022100affaff3c5fd7d2e0a903b3deb0f849e882b1748aab87dc4e45834df56c3058d002205c5b6c8e2d6f453b7d63c7f1187392662d6ac64340fb9b40eb66b677843c21480121033e14cff3b970cd291631a40bfa6fd524eda896fb50144d2c3aa78403fa887a1c", "asm": "3045022100affaff3c5fd7d2e0a903b3deb0f849e882b1748aab87dc4e45834df56c3058d002205c5b6c8e2d6f453b7d63c7f1187392662d6ac64340fb9b40eb66b677843c2148[ALL] 033e14cff3b970cd291631a40bfa6fd524eda896fb50144d2c3aa78403fa887a1c"}, "vout": 0, "txid": "a724cf934d7e35b564381e09eb9805de72cb8ef285fa9fa484fa7ca0a51f559d"}, {"sequence": 4294967295, "scriptSig": {"hex": "483045022100af985c0e0fd89046b4e84bf297fdb340d1f4a1d3015768cd1ef935a0440a9525022059eab2cb810089838048997eb9baa8962838f3cb809cdabefa7c079d2384c36c012103327d4660a63e53a20bd1fc1201b3257ccd53f6a75ec11e0424b15b0640451c68", "asm": "3045022100af985c0e0fd89046b4e84bf297fdb340d1f4a1d3015768cd1ef935a0440a9525022059eab2cb810089838048997eb9baa8962838f3cb809cdabefa7c079d2384c36c[ALL] 03327d4660a63e53a20bd1fc1201b3257ccd53f6a75ec11e0424b15b0640451c68"}, "vout": 0, "txid": "bd1b7f37a13d8d4a977e3c96381e7c0d5c02d7d2421a897e2fd8913efa06d313"}, {"sequence": 4294967295, "scriptSig": {"hex": "4730440220309c300ef0a5427b47271adf78843fedf09d1667a40cec9b8c7be79105ed32680220724d4096667eaa6515f72a823d41bd1ae47e584abcb40987a3a1ed3aa8f8b5f60121036a17e1c90622fa72167e4a124a3afb5f27ee06bf4e3d42073b732ed590d749e5", "asm": "30440220309c300ef0a5427b47271adf78843fedf09d1667a40cec9b8c7be79105ed32680220724d4096667eaa6515f72a823d41bd1ae47e584abcb40987a3a1ed3aa8f8b5f6[ALL] 036a17e1c90622fa72167e4a124a3afb5f27ee06bf4e3d42073b732ed590d749e5"}, "vout": 0, "txid": "c29bd167922ef3d6058e742cb8c00e0f09d0357cfe1a6264ac074db28fb20786"}, {"sequence": 4294967295, "scriptSig": {"hex": "483045022100a60d9aed6398194697c2821c137dbf93f04c7e289c437542a512a1768468bd0702206f4b0b824b547885ad0319fdff1422af346ffea90f12bd5b5d5070f24c7b0d3b012103a48cac891b703fcc972b3e1bee4b20afd51bbefa392dee73d235ff383588c7b2", "asm": "3045022100a60d9aed6398194697c2821c137dbf93f04c7e289c437542a512a1768468bd0702206f4b0b824b547885ad0319fdff1422af346ffea90f12bd5b5d5070f24c7b0d3b[ALL] 03a48cac891b703fcc972b3e1bee4b20afd51bbefa392dee73d235ff383588c7b2"}, "vout": 1, "txid": "c53696893711e252be0b0b0b34e37f9cf4ab0e06667b171c1998c5a5a3442ecc"}, {"sequence": 4294967295, "scriptSig": {"hex": "47304402203e5ed8bd808613c64ba2632680c07659369b30754ae564d6df1948147844077102200ff2718a73fcdac1184d247b84a773288c826b6a0eb4be4417893bf53e15d484012102bf481a93143f41e8ae3cc6d6cf8e9d005ae6264b6bcd1cb6026753bdbc5e6458", "asm": "304402203e5ed8bd808613c64ba2632680c07659369b30754ae564d6df1948147844077102200ff2718a73fcdac1184d247b84a773288c826b6a0eb4be4417893bf53e15d484[ALL] 02bf481a93143f41e8ae3cc6d6cf8e9d005ae6264b6bcd1cb6026753bdbc5e6458"}, "vout": 1, "txid": "c6dea327be70d3cb506e1d6393df0bc27d2969f797cfd2b819692f3359b29f70"}, {"sequence": 4294967295, "scriptSig": {"hex": "483045022100dd5620950ca1c7434a76fde432a929e7dd900ca269d81cf7001ca9d07bb2f8a6022004619ea10f30abbed13321bec721a556cf39d7c47b9fb3601d9d33b8d8e518e50121025ea07ccd2dcea7e67428027680a0b03349bea392ad0bb9c62379d51bcafa09f6", "asm": "3045022100dd5620950ca1c7434a76fde432a929e7dd900ca269d81cf7001ca9d07bb2f8a6022004619ea10f30abbed13321bec721a556cf39d7c47b9fb3601d9d33b8d8e518e5[ALL] 025ea07ccd2dcea7e67428027680a0b03349bea392ad0bb9c62379d51bcafa09f6"}, "vout": 1, "txid": "c9096cd41e3fca0a2397e7bb626dc6e836e588a001272b9eb099b26392249d31"}, {"sequence": 4294967295, "scriptSig": {"hex": "483045022100e5d63055f2ae4f37035a8f3f4fb8182bb5cfb39a340407f07ec2fa74f8da81e2022025fe1cd1ab60105770d8013297ec652ef8ba902d401b954158ef980804e910ed01210255af1a2b5131b9116af77c6a25804629dc4dea9dded8da696b8c30f73f313df5", "asm": "3045022100e5d63055f2ae4f37035a8f3f4fb8182bb5cfb39a340407f07ec2fa74f8da81e2022025fe1cd1ab60105770d8013297ec652ef8ba902d401b954158ef980804e910ed[ALL] 0255af1a2b5131b9116af77c6a25804629dc4dea9dded8da696b8c30f73f313df5"}, "vout": 1, "txid": "c9bc50cdd901c8c40b66a072f82ae23eca1098537fa70df076c31cc972c061d3"}, {"sequence": 4294967295, "scriptSig": {"hex": "483045022100ee8c7bfd0288387ba60389b307553f3b269400bcfbf5313c1e3ddade2ec9136b0220154ea936a49cec3daf77dd46d0c141288d5aebec6ce20807317a4c5c8fd44c120121031250e7cbc6f56527d3e46552855ea7de55d8507c8289e8b7e16f649443ac7aaf", "asm": "3045022100ee8c7bfd0288387ba60389b307553f3b269400bcfbf5313c1e3ddade2ec9136b0220154ea936a49cec3daf77dd46d0c141288d5aebec6ce20807317a4c5c8fd44c12[ALL] 031250e7cbc6f56527d3e46552855ea7de55d8507c8289e8b7e16f649443ac7aaf"}, "vout": 0, "txid": "cf56fca6ff65e947ba8ee3346ee90b652779a58419a4ed964c84a7ea23e9b84c"}, {"sequence": 4294967295, "scriptSig": {"hex": "483045022100cd3eecc77b4d878b4397c3eb13ce7d7af3334cf6643e577a32516f806f121e3502200e7a49de31b19ba6df7223e6527340b8a7305beea6e0602692f43f0710c7ee24012103bb445b38d2fc2b42f68cffab7b5612e9df0fe77caa91a0161049a59672a8beb6", "asm": "3045022100cd3eecc77b4d878b4397c3eb13ce7d7af3334cf6643e577a32516f806f121e3502200e7a49de31b19ba6df7223e6527340b8a7305beea6e0602692f43f0710c7ee24[ALL] 03bb445b38d2fc2b42f68cffab7b5612e9df0fe77caa91a0161049a59672a8beb6"}, "vout": 15, "txid": "d4b19dcdb79eb3e80669d6feff57bacb2f8e4b784571fed701854f7a16f85775"}, {"sequence": 4294967295, "scriptSig": {"hex": "483045022100d45408e26c46104121eddb5daa74639f28789dc3ad5914a8f9fb16a52d5558f602201e9212e737a3076238395a85dd92d57f3cf489bce0356a369f6ce22b020dd9c00121023b76759aaabbcbe2aec4fa3ea2301eef54089e61c0c7cba0065500470b82349c", "asm": "3045022100d45408e26c46104121eddb5daa74639f28789dc3ad5914a8f9fb16a52d5558f602201e9212e737a3076238395a85dd92d57f3cf489bce0356a369f6ce22b020dd9c0[ALL] 023b76759aaabbcbe2aec4fa3ea2301eef54089e61c0c7cba0065500470b82349c"}, "vout": 0, "txid": "d53be18d79a22ed74c551599c1718969c0af1a9748263429a82e7656e1444423"}, {"sequence": 4294967295, "scriptSig": {"hex": "47304402204f1c3de2a95b3bcb1191c7cfc21115e803cd743cbeaa35718b582b41a1f6b264022014e96daf78a38d41afcc702938bd5d287bcf4f36e64fb6eae4911968bbd4ac19012103f4ca96efce3df720efc26b78c34872172fe00410ebf4e2638ad2000c9c5e17af", "asm": "304402204f1c3de2a95b3bcb1191c7cfc21115e803cd743cbeaa35718b582b41a1f6b264022014e96daf78a38d41afcc702938bd5d287bcf4f36e64fb6eae4911968bbd4ac19[ALL] 03f4ca96efce3df720efc26b78c34872172fe00410ebf4e2638ad2000c9c5e17af"}, "vout": 0, "txid": "d55e9473aef48a0c777794176a65630b282c9e27b73b9d6708177039a6e918f7"}, {"sequence": 4294967295, "scriptSig": {"hex": "483045022100fd59231b19fce517cf96eff6aef35bc27f7c89349d1ab8d93091782ea9b840820220220a15b25ec6da5884cdc1fdfe1f5baf2d62dcd2c3b837e478579c8b87518898012103e2353e619c732a9451e33f76b08708bf05e407086e9d8cd7fca57e53a684161c", "asm": "3045022100fd59231b19fce517cf96eff6aef35bc27f7c89349d1ab8d93091782ea9b840820220220a15b25ec6da5884cdc1fdfe1f5baf2d62dcd2c3b837e478579c8b87518898[ALL] 03e2353e619c732a9451e33f76b08708bf05e407086e9d8cd7fca57e53a684161c"}, "vout": 0, "txid": "dcfe3937c40c47eb79b2d43312627328afad900d91de7dd8543071921cbac428"}, {"sequence": 4294967295, "scriptSig": {"hex": "483045022100f64197961895b925a553642469d230ec06800dd19d3b302a084b9094e7b778d202200cb966dc86bffb43450feb35ff42cc9dc84224687608a26898063d93adaa81ab012103dc42c4126dc985fe878473211edb1bcd5fd05a5606f887d74cd15aa35c315916", "asm": "3045022100f64197961895b925a553642469d230ec06800dd19d3b302a084b9094e7b778d202200cb966dc86bffb43450feb35ff42cc9dc84224687608a26898063d93adaa81ab[ALL] 03dc42c4126dc985fe878473211edb1bcd5fd05a5606f887d74cd15aa35c315916"}, "vout": 0, "txid": "e54db071a9d0fa92d26540480167cb7c19bd7e4eb9db0939c3a76d72088b5065"}, {"sequence": 4294967295, "scriptSig": {"hex": "483045022100b5a319cac952781c695a00b223dfe55e89721c0c22e812c59f0e6d4a83011fc3022026866235ee0e3983631b7d54e5ef0f285c5eba82c190cefc0a92024f45fe45fa012102ffa1ff2162fc99edafe53de13c1862b88b0376fdac1fbddab51ab4f469925b60", "asm": "3045022100b5a319cac952781c695a00b223dfe55e89721c0c22e812c59f0e6d4a83011fc3022026866235ee0e3983631b7d54e5ef0f285c5eba82c190cefc0a92024f45fe45fa[ALL] 02ffa1ff2162fc99edafe53de13c1862b88b0376fdac1fbddab51ab4f469925b60"}, "vout": 1, "txid": "e74313f9674b25cece14b4c90b51f06bf9e9e7636612081dd90c14058578a3b6"}, {"sequence": 4294967295, "scriptSig": {"hex": "483045022100f6da5d76e2c8d63fb29c238917a008435d5af4f73ae6f46c6c2ff728e9c7f78102200e3fe3ed978214fe2ebd5b9faebdbc5b02fc00a78b123422b6bb5d7ce3bb5d7b012102c63029e7ff9bcb07bc6efd993169ef3060fcc43238103c73e726a352e461c7bd", "asm": "3045022100f6da5d76e2c8d63fb29c238917a008435d5af4f73ae6f46c6c2ff728e9c7f78102200e3fe3ed978214fe2ebd5b9faebdbc5b02fc00a78b123422b6bb5d7ce3bb5d7b[ALL] 02c63029e7ff9bcb07bc6efd993169ef3060fcc43238103c73e726a352e461c7bd"}, "vout": 1, "txid": "e921855942544fefed788c4da9d40931ea8a4887de064f3907cd6daa8567d46d"}, {"sequence": 4294967295, "scriptSig": {"hex": "473044022035f98b5e4dc6f7ae133c577d2756258b192cb4f138642ab53ed231408d5a0d9a02202d9093dd09590ee7535d96115ffa6725bc1fc1b06436fd45a49a00a417a3b8aa0121029c80e3aa024e2c685ea5d38f647e3f1d6710c579f5efce0eb4f58c9762620836", "asm": "3044022035f98b5e4dc6f7ae133c577d2756258b192cb4f138642ab53ed231408d5a0d9a02202d9093dd09590ee7535d96115ffa6725bc1fc1b06436fd45a49a00a417a3b8aa[ALL] 029c80e3aa024e2c685ea5d38f647e3f1d6710c579f5efce0eb4f58c9762620836"}, "vout": 1, "txid": "ecfc5538cd92deab51f30c1fc3730c5c72a2c150110f48e53d10e375a90c77cc"}, {"sequence": 4294967295, "scriptSig": {"hex": "483045022100d8d9490c9243fcd160a10c730ba98ac1eb8de00d1127933419b72738e215713a0220198b9973b49cee13eaca6535e4269f86003cd5cba7a33a0cad6898ec628aaf1d01210296390d1a4ab1b7d5c0b75b40e152d615fc7f66881c7ae861ce5a654eb003acc1", "asm": "3045022100d8d9490c9243fcd160a10c730ba98ac1eb8de00d1127933419b72738e215713a0220198b9973b49cee13eaca6535e4269f86003cd5cba7a33a0cad6898ec628aaf1d[ALL] 0296390d1a4ab1b7d5c0b75b40e152d615fc7f66881c7ae861ce5a654eb003acc1"}, "vout": 0, "txid": "f6509febe0337da5b781c2145af91838b783942141ce96058ca9587551a28a80"}], "txid": "86eb04243db678b05545da19c96fa1b3344b530049cb1d1d73a8845ce8cd6f1a", "blocktime": 1537870928, "version": 1, "confirmations": 11512, "time": 1537870928, "locktime": 0, "vsize": 6867, "size": 6867}