{"hash": "86eef6c18f8e8d720338875f97ce9d44b89d11ca0cadf8523dfad097b68cb5c6", "blockhash": "0000000000000000001f76057863aec43deb6fa401d9628bb513d65a8098bfab", "vout": [{"scriptPubKey": {"reqSigs": 1, "hex": "76a914ca089f9f4b1a2b90dd45b0d1ef1722515e7dac1f88ac", "addresses": ["1KRFpvX3EBBisYJdxSkp1oNd9RYCmveqGm"], "asm": "OP_DUP OP_HASH160 ca089f9f4b1a2b90dd45b0d1ef1722515e7dac1f OP_EQUALVERIFY OP_CHECKSIG", "type": "pubkeyhash"}, "value": 9.575e-05, "n": 0}, {"scriptPubKey": {"type": "nulldata", "hex": "6a4c50000077da000176de278d66a6dcee7212292e7af8e8e963c7cfd5b95b23cc0f42c2fc38c56467b3cbf6c99e7d4156eca100db08db5baa15ae061307ddf866d28b4bbf23acfcfaac8058b692fe6808c31d", "asm": "OP_RETURN 000077da000176de278d66a6dcee7212292e7af8e8e963c7cfd5b95b23cc0f42c2fc38c56467b3cbf6c99e7d4156eca100db08db5baa15ae061307ddf866d28b4bbf23acfcfaac8058b692fe6808c31d"}, "value": 0.0, "n": 1}], "hex": "0100000001cbc2046259b5f4d0d4d6318fb74283b4300e48079e60cd29af4352326978c394010000006b483045022100abc919984284c61c6015806957b9cff87a7c89e51494d01843270b86ad7eea6402200fb1ee10ed25824d616011c43201917b809a723008ba5e20d20b6416b81b3b680121021dd94efdfbab2caeb633e5e3d22deba33e0bb63a2cbfbf36c05cb7109163572dffffffff0267250000000000001976a914ca089f9f4b1a2b90dd45b0d1ef1722515e7dac1f88ac0000000000000000536a4c50000077da000176de278d66a6dcee7212292e7af8e8e963c7cfd5b95b23cc0f42c2fc38c56467b3cbf6c99e7d4156eca100db08db5baa15ae061307ddf866d28b4bbf23acfcfaac8058b692fe6808c31d00000000", "vin": [{"sequence": 4294967295, "scriptSig": {"hex": "483045022100abc919984284c61c6015806957b9cff87a7c89e51494d01843270b86ad7eea6402200fb1ee10ed25824d616011c43201917b809a723008ba5e20d20b6416b81b3b680121021dd94efdfbab2caeb633e5e3d22deba33e0bb63a2cbfbf36c05cb7109163572d", "asm": "3045022100abc919984284c61c6015806957b9cff87a7c89e51494d01843270b86ad7eea6402200fb1ee10ed25824d616011c43201917b809a723008ba5e20d20b6416b81b3b68[ALL] 021dd94efdfbab2caeb633e5e3d22deba33e0bb63a2cbfbf36c05cb7109163572d"}, "vout": 1, "txid": "94c37869325243af29cd609e07480e30b48342b78f31d6d4d0f4b5596204c2cb"}], "txid": "86eef6c18f8e8d720338875f97ce9d44b89d11ca0cadf8523dfad097b68cb5c6", "blocktime": 1537873891, "version": 1, "confirmations": 11478, "time": 1537873891, "locktime": 0, "vsize": 284, "size": 284}