{"hash": "86f21c3cc77d7c1c740f1a54ba51e1f9c23a40795e923a0d2ceacb01365069eb", "blockhash": "00000000000000000018f53835495a110e01622372bf6ae95dc86f2b0ab887b0", "vout": [{"scriptPubKey": {"type": "nulldata", "hex": "6a4c50000077810001ff1c0bec365306f189a5c1f2bcbefa6b8351586b4e86aeaeacb577c031fca0890c5975127e9f5c77f48d6206b15c5baa0ad906143fe9098cd3021d100759d4ba30d2c37bb011d97e02cf", "asm": "OP_RETURN 000077810001ff1c0bec365306f189a5c1f2bcbefa6b8351586b4e86aeaeacb577c031fca0890c5975127e9f5c77f48d6206b15c5baa0ad906143fe9098cd3021d100759d4ba30d2c37bb011d97e02cf"}, "value": 0.0, "n": 0}, {"scriptPubKey": {"reqSigs": 1, "hex": "76a9140d6594ae61e75d41037df26b46aa4cfb733ec77888ac", "addresses": ["12DqUT8b8TUX2qH1tpE6G9M9qTGmKCCAPu"], "asm": "OP_DUP OP_HASH160 0d6594ae61e75d41037df26b46aa4cfb733ec778 OP_EQUALVERIFY OP_CHECKSIG", "type": "pubkeyhash"}, "value": 0.00648332, "n": 1}], "hex": "01000000016f546489eb2908e34de71fd0ec0317c51f6ff17e102a7aa558478d4fb2f96e71000000006b483045022100bd0c52d7cb36a2b1fb3b2bb212ef7a94bb24058089227ebf822fc3322215a90702205e765503ffd001ce7adf806ca84e85c526cd6674fe2c8edaa97b32aefe5ae074012102542cc94a930227955c99a6462c936a9aae676576986e8b15b4af0edb40a06175ffffffff020000000000000000536a4c50000077810001ff1c0bec365306f189a5c1f2bcbefa6b8351586b4e86aeaeacb577c031fca0890c5975127e9f5c77f48d6206b15c5baa0ad906143fe9098cd3021d100759d4ba30d2c37bb011d97e02cf8ce40900000000001976a9140d6594ae61e75d41037df26b46aa4cfb733ec77888ac00000000", "vin": [{"sequence": 4294967295, "scriptSig": {"hex": "483045022100bd0c52d7cb36a2b1fb3b2bb212ef7a94bb24058089227ebf822fc3322215a90702205e765503ffd001ce7adf806ca84e85c526cd6674fe2c8edaa97b32aefe5ae074012102542cc94a930227955c99a6462c936a9aae676576986e8b15b4af0edb40a06175", "asm": "3045022100bd0c52d7cb36a2b1fb3b2bb212ef7a94bb24058089227ebf822fc3322215a90702205e765503ffd001ce7adf806ca84e85c526cd6674fe2c8edaa97b32aefe5ae074[ALL] 02542cc94a930227955c99a6462c936a9aae676576986e8b15b4af0edb40a06175"}, "vout": 0, "txid": "716ef9b24f8d4758a57a2a107ef16f1fc51703ecd01fe74de30829eb8964546f"}], "txid": "86f21c3cc77d7c1c740f1a54ba51e1f9c23a40795e923a0d2ceacb01365069eb", "blocktime": 1537870928, "version": 1, "confirmations": 11513, "time": 1537870928, "locktime": 0, "vsize": 284, "size": 284}