{"hash": "86f2a347a0c1522892cc47b3eca85e0bbfe587a1a39170f4a20e2f602016f1bc", "blockhash": "00000000000000000024a2167bbff67b0be802c0b01cdd79e6331c2be6459f87", "vout": [{"scriptPubKey": {"reqSigs": 1, "hex": "a914dd865e257764c65f9901c3767abdedcc1889e2b087", "addresses": ["3MtLDySJpaoZ3qwJYZmWghaJxAy6mouDUm"], "asm": "OP_HASH160 dd865e257764c65f9901c3767abdedcc1889e2b0 OP_EQUAL", "type": "scripthash"}, "value": 0.00624851, "n": 0}, {"scriptPubKey": {"reqSigs": 1, "hex": "76a914324e5c1862bb88b22640cfa33936e6eb9831842d88ac", "addresses": ["15azf865LrTUwBRMy1hqMLEz7y1qH2GJNb"], "asm": "OP_DUP OP_HASH160 324e5c1862bb88b22640cfa33936e6eb9831842d OP_EQUALVERIFY OP_CHECKSIG", "type": "pubkeyhash"}, "value": 0.04984273, "n": 1}], "hex": "01000000014b056d15d4ddc0dcfaf7596c34e799c0dcd9ea7d03b6b08504c9b05d6ccde56e010000006b483045022100c5bbc098f44df3b3ff4716371d1b7abb7e8d6664c475bf0d833f2033f4c084fa022069aa017287266e63562c36ca0a5c236bc960e80bc2f7ca66f4258eaa34b83c8c01210312aaa6f0e2a71662bbd37c7beb83d4492d687de5be950f689f3d8ef1639c68a4ffffffff02d38809000000000017a914dd865e257764c65f9901c3767abdedcc1889e2b087d10d4c00000000001976a914324e5c1862bb88b22640cfa33936e6eb9831842d88ac00000000", "vin": [{"sequence": 4294967295, "scriptSig": {"hex": "483045022100c5bbc098f44df3b3ff4716371d1b7abb7e8d6664c475bf0d833f2033f4c084fa022069aa017287266e63562c36ca0a5c236bc960e80bc2f7ca66f4258eaa34b83c8c01210312aaa6f0e2a71662bbd37c7beb83d4492d687de5be950f689f3d8ef1639c68a4", "asm": "3045022100c5bbc098f44df3b3ff4716371d1b7abb7e8d6664c475bf0d833f2033f4c084fa022069aa017287266e63562c36ca0a5c236bc960e80bc2f7ca66f4258eaa34b83c8c[ALL] 0312aaa6f0e2a71662bbd37c7beb83d4492d687de5be950f689f3d8ef1639c68a4"}, "vout": 1, "txid": "6ee5cd6c5db0c90485b0b6037dead9dcc099e7346c59f7fadcc0ddd4156d054b"}], "txid": "86f2a347a0c1522892cc47b3eca85e0bbfe587a1a39170f4a20e2f602016f1bc", "blocktime": 1537870564, "version": 1, "confirmations": 11515, "time": 1537870564, "locktime": 0, "vsize": 224, "size": 224}