{"hash": "81fa871f04be2d29a2cddbe92cdce6593ce269f9e7179ef8ada6410d70f6e072", "blockhash": "0000000000000000000e13cef7c366c0283d82e591d1acd082e914b08063cdf1", "vout": [{"scriptPubKey": {"reqSigs": 1, "hex": "00147988a16272410696c758ba968bce636af3aa838c", "addresses": ["bc1q0xy2zcnjgyrfd36ch2tghnnrdte64quvxy30u8"], "asm": "0 7988a16272410696c758ba968bce636af3aa838c", "type": "witness_v0_keyhash"}, "value": 1.41705425, "n": 0}, {"scriptPubKey": {"reqSigs": 1, "hex": "76a91496aa9d28ad5acbdf33564fcc7987f6fbe99bdee788ac", "addresses": ["1EjekEhtQeUZqUG7twTz6vgFWiH42LJeVk"], "asm": "OP_DUP OP_HASH160 96aa9d28ad5acbdf33564fcc7987f6fbe99bdee7 OP_EQUALVERIFY OP_CHECKSIG", "type": "pubkeyhash"}, "value": 0.01509002, "n": 1}], "hex": "01000000000101d57d7ad373ef1642af65f2b78f1feb549dd2a93c7cace4642d8e068b9a0951900000000000ffffffff02d1407208000000001600147988a16272410696c758ba968bce636af3aa838c8a061700000000001976a91496aa9d28ad5acbdf33564fcc7987f6fbe99bdee788ac02473044022073d97051c8044f47542c86ee2692f966a2435d6091f229628de3337455ecfe9402200e28cd3fe85af0a1164c34b32533d6e25056b2ba0747e6dd3597ab34aaf68c9c012103396439459fd7b18f8589b4265a33274e17bf925dd0905c6d8b70e4eaf34955ca00000000", "vin": [{"txinwitness": ["3044022073d97051c8044f47542c86ee2692f966a2435d6091f229628de3337455ecfe9402200e28cd3fe85af0a1164c34b32533d6e25056b2ba0747e6dd3597ab34aaf68c9c01", "03396439459fd7b18f8589b4265a33274e17bf925dd0905c6d8b70e4eaf34955ca"], "sequence": 4294967295, "scriptSig": {"hex": "", "asm": ""}, "vout": 0, "txid": "9051099a8b068e2d64e4ac7c3ca9d29d54eb1f8fb7f265af4216ef73d37a7dd5"}], "txid": "86f6c0696a670e579a6f6a2e4fc881040223c0094dbd4f5fb29c72bc151517fc", "blocktime": 1537871767, "version": 1, "confirmations": 11495, "time": 1537871767, "locktime": 0, "vsize": 144, "size": 225}