{"hash": "86f9bb3d15737259d6d1c778e241807df169f2dbb215862db91d027e64cb28b5", "blockhash": "0000000000000000001cda96e906b7601b7a6fb1a3b62bca570a9e5d8f4b3de1", "vout": [{"scriptPubKey": {"reqSigs": 1, "hex": "0014758d81bda0159b4154877917d6e2697e9deaa023", "addresses": ["bc1qwkxcr0dqzkd5z4y80ytadcnf06w74gpr3em9r3"], "asm": "0 758d81bda0159b4154877917d6e2697e9deaa023", "type": "witness_v0_keyhash"}, "value": 0.00058, "n": 0}, {"scriptPubKey": {"reqSigs": 1, "hex": "76a91462f9a19bb360a0c3c690c954a73ac93b0defb7bb88ac", "addresses": ["1A2LGV8JrkBhHwfUaMMLy55eF2uQ2wYnWE"], "asm": "OP_DUP OP_HASH160 62f9a19bb360a0c3c690c954a73ac93b0defb7bb OP_EQUALVERIFY OP_CHECKSIG", "type": "pubkeyhash"}, "value": 0.010543, "n": 1}], "hex": "0100000001180e3266a6ce73539884c00bc232a4619ad9e66de0dfed4d464655530af29d93360000006a47304402200d2c3da9c891f838632984579a3c5bb6707a795e38debdb9c013df9db8d572af0220715cae4da3ea13917da7f48a6713939842149b2a40205c63a2c8ab4bdc7db5e80121036211b678f620f93ee576a85b3a9623a867c0e6a2e5804246b5e29da1173c8e62ffffffff0290e2000000000000160014758d81bda0159b4154877917d6e2697e9deaa0235c161000000000001976a91462f9a19bb360a0c3c690c954a73ac93b0defb7bb88ac00000000", "vin": [{"sequence": 4294967295, "scriptSig": {"hex": "47304402200d2c3da9c891f838632984579a3c5bb6707a795e38debdb9c013df9db8d572af0220715cae4da3ea13917da7f48a6713939842149b2a40205c63a2c8ab4bdc7db5e80121036211b678f620f93ee576a85b3a9623a867c0e6a2e5804246b5e29da1173c8e62", "asm": "304402200d2c3da9c891f838632984579a3c5bb6707a795e38debdb9c013df9db8d572af0220715cae4da3ea13917da7f48a6713939842149b2a40205c63a2c8ab4bdc7db5e8[ALL] 036211b678f620f93ee576a85b3a9623a867c0e6a2e5804246b5e29da1173c8e62"}, "vout": 54, "txid": "939df20a535546464deddfe06de6d99a61a432c20bc084985373cea666320e18"}], "txid": "86f9bb3d15737259d6d1c778e241807df169f2dbb215862db91d027e64cb28b5", "blocktime": 1537873282, "version": 1, "confirmations": 11484, "time": 1537873282, "locktime": 0, "vsize": 222, "size": 222}