{"hash": "1b0c3fb4f9c47c00f3aab1ed278770ab5c4744bc851ab44b61ebbb0d34ce9f6c", "blockhash": "00000000000000000017f5eb5941039fbcee6240d03bc1f2f8e35350df66a1d8", "vout": [{"scriptPubKey": {"reqSigs": 1, "hex": "76a914931c753cda525e0e3650c6c192a8ee3be5c0240b88ac", "addresses": ["1EQrRVaiis9TjxSpYrbDH4z9W9xmVzvAus"], "asm": "OP_DUP OP_HASH160 931c753cda525e0e3650c6c192a8ee3be5c0240b OP_EQUALVERIFY OP_CHECKSIG", "type": "pubkeyhash"}, "value": 0.0022745, "n": 0}, {"scriptPubKey": {"reqSigs": 1, "hex": "001459c974705786bd2ea0ec8ea7a7c711727249256b", "addresses": ["bc1qt8yhguzhs67jag8v36n603c3wfeyjftth4mxkc"], "asm": "0 59c974705786bd2ea0ec8ea7a7c711727249256b", "type": "witness_v0_keyhash"}, "value": 9.06e-06, "n": 1}], "hex": "01000000000101433d52562cde4a7c27541db6591dc3c01d18ea7a4806de6458acf2ce31b67eee2b00000017160014a5b634ee86a02e550bca984be84a8a246b0c5596ffffffff027a780300000000001976a914931c753cda525e0e3650c6c192a8ee3be5c0240b88ac8a0300000000000016001459c974705786bd2ea0ec8ea7a7c711727249256b0247304402207888560aa76414855821a66625a9bdf87d29d9a0830ac8ab1a9705c4c74e63d0022078c4bddc7d120dd0522a2731383316a1773d58fd1a0493210df09431f1d20b2b0121035c860daa395b20db309638bbf8c873dbb1e0ca386502b1ab8b947dc415f33c2c00000000", "vin": [{"txinwitness": ["304402207888560aa76414855821a66625a9bdf87d29d9a0830ac8ab1a9705c4c74e63d0022078c4bddc7d120dd0522a2731383316a1773d58fd1a0493210df09431f1d20b2b01", "035c860daa395b20db309638bbf8c873dbb1e0ca386502b1ab8b947dc415f33c2c"], "sequence": 4294967295, "scriptSig": {"hex": "160014a5b634ee86a02e550bca984be84a8a246b0c5596", "asm": "0014a5b634ee86a02e550bca984be84a8a246b0c5596"}, "vout": 43, "txid": "ee7eb631cef2ac5864de06487aea181dc0c31d59b61d54277c4ade2c56523d43"}], "txid": "8701ede4b0b8d9ac887608ce889bcd42cbef4b149141c0d2d927454633ff4d80", "blocktime": 1537874412, "version": 1, "confirmations": 11468, "time": 1537874412, "locktime": 0, "vsize": 167, "size": 248}