{"hash": "79ec402936a7ce9c88625911fbcb2c45cc3ca19d172f2475c31b38cde6e3d1c2", "blockhash": "0000000000000000000e13cef7c366c0283d82e591d1acd082e914b08063cdf1", "vout": [{"scriptPubKey": {"reqSigs": 1, "hex": "a91490e99e8d26d05ead3c05430c292a887bbff695f587", "addresses": ["3EuF6KjJawxTiUsea3Sc8hsLUGmVEf7Xg5"], "asm": "OP_HASH160 90e99e8d26d05ead3c05430c292a887bbff695f5 OP_EQUAL", "type": "scripthash"}, "value": 0.00148612, "n": 0}, {"scriptPubKey": {"type": "nulldata", "hex": "6a146f6d6e69000000000000001f0000000005f5e100", "asm": "OP_RETURN 6f6d6e69000000000000001f0000000005f5e100"}, "value": 0.0, "n": 1}, {"scriptPubKey": {"reqSigs": 1, "hex": "a9149c0115b5657ae8d307151311d50a3bd0f713230d87", "addresses": ["3FutdqpJfNtXATYmqsAJxcEYjg9GCZdi3A"], "asm": "OP_HASH160 9c0115b5657ae8d307151311d50a3bd0f713230d OP_EQUAL", "type": "scripthash"}, "value": 5.4e-06, "n": 2}], "hex": "010000000001013bf3da29e65c02cc2e4f6068d9bf5973601ce328f51049881c2b980cd18fea9c0100000017160014f6e1792e7852ebd5ae795c2a25d579acdfadec2dffffffff03844402000000000017a91490e99e8d26d05ead3c05430c292a887bbff695f5870000000000000000166a146f6d6e69000000000000001f0000000005f5e1001c0200000000000017a9149c0115b5657ae8d307151311d50a3bd0f713230d8702473044022030e08b798cdc3b4d8bf833aa365f90f43277385d21b9d85b1773a9891f3bacf802202ec321723cc9ee7857e74fa5337d55cb75e2c67cf8f6827c8bd6a48a4923a4d4012103f1cf988013a33e053d1e9bd54c4798c1a6dc362a5b2798b5344049fca40e2db000000000", "vin": [{"txinwitness": ["3044022030e08b798cdc3b4d8bf833aa365f90f43277385d21b9d85b1773a9891f3bacf802202ec321723cc9ee7857e74fa5337d55cb75e2c67cf8f6827c8bd6a48a4923a4d401", "03f1cf988013a33e053d1e9bd54c4798c1a6dc362a5b2798b5344049fca40e2db0"], "sequence": 4294967295, "scriptSig": {"hex": "160014f6e1792e7852ebd5ae795c2a25d579acdfadec2d", "asm": "0014f6e1792e7852ebd5ae795c2a25d579acdfadec2d"}, "vout": 1, "txid": "9cea8fd10c982b1c884910f528e31c607359bfd968604f2ecc025ce629daf33b"}], "txid": "8703b22469f0da30259aa0874f8886586ff05a1e734de8d7669b3913c16ecd83", "blocktime": 1537871767, "version": 1, "confirmations": 11493, "time": 1537871767, "locktime": 0, "vsize": 197, "size": 278}