{"hash": "87054018085e99e4c6d14496da3f08783b81229bcdc02dfb5229337105cc3286", "blockhash": "0000000000000000000baef3f32e3676a92c3b2e5da21b426e4f302fc371ce76", "vout": [{"scriptPubKey": {"reqSigs": 1, "hex": "76a9140f012e8a2ff929c8f1eecbcbbd730aecee94016288ac", "addresses": ["12NLYzReqnnYQA9Jd2jGbUVHjXAFkLVYfn"], "asm": "OP_DUP OP_HASH160 0f012e8a2ff929c8f1eecbcbbd730aecee940162 OP_EQUALVERIFY OP_CHECKSIG", "type": "pubkeyhash"}, "value": 0.00036685, "n": 0}, {"scriptPubKey": {"reqSigs": 1, "hex": "a91469f375ec026ac2e6aa7097bf9cb9bae22ba9e15087", "addresses": ["3BMEXdLKJ9vvv6v6TnYeXCTui1N8srMnW2"], "asm": "OP_HASH160 69f375ec026ac2e6aa7097bf9cb9bae22ba9e150 OP_EQUAL", "type": "scripthash"}, "value": 0.013, "n": 1}], "hex": "020000000121ea35f98cdc0a5d501b057283816a868e485fcf37d6478ca4f6946f655444cd000000006a47304402201addc77f6de388c2cd28a61d3c851d09bd8f5442465f034d7ae355308e52686202206e0829139035ac79783f87b2d3f13461f7542dc0825825abd5a0c10e4eb7cb6801210340d25d9c6f40d026ea6e86c6433f8450047fcc6d8468e7fb1165897fe13cc3affeffffff024d8f0000000000001976a9140f012e8a2ff929c8f1eecbcbbd730aecee94016288ac20d613000000000017a91469f375ec026ac2e6aa7097bf9cb9bae22ba9e1508717490800", "vin": [{"sequence": 4294967294, "scriptSig": {"hex": "47304402201addc77f6de388c2cd28a61d3c851d09bd8f5442465f034d7ae355308e52686202206e0829139035ac79783f87b2d3f13461f7542dc0825825abd5a0c10e4eb7cb6801210340d25d9c6f40d026ea6e86c6433f8450047fcc6d8468e7fb1165897fe13cc3af", "asm": "304402201addc77f6de388c2cd28a61d3c851d09bd8f5442465f034d7ae355308e52686202206e0829139035ac79783f87b2d3f13461f7542dc0825825abd5a0c10e4eb7cb68[ALL] 0340d25d9c6f40d026ea6e86c6433f8450047fcc6d8468e7fb1165897fe13cc3af"}, "vout": 0, "txid": "cd4454656f94f6a48c47d637cf5f488e866a818372051b505d0adc8cf935ea21"}], "txid": "87054018085e99e4c6d14496da3f08783b81229bcdc02dfb5229337105cc3286", "blocktime": 1537876114, "version": 2, "confirmations": 11460, "time": 1537876114, "locktime": 542999, "vsize": 223, "size": 223}