{"hash": "8707f3a99833d3d8eadbaf2f449e3f768713a7c55bb87396221086ac25c8efb5", "blockhash": "0000000000000000000e13cef7c366c0283d82e591d1acd082e914b08063cdf1", "vout": [{"scriptPubKey": {"reqSigs": 1, "hex": "76a914714d277f2b79a9cd259e989ae2c8510881c8b29188ac", "addresses": ["1BL5nT8RzpSG1pbqFaQvh327yDUrLvZbMT"], "asm": "OP_DUP OP_HASH160 714d277f2b79a9cd259e989ae2c8510881c8b291 OP_EQUALVERIFY OP_CHECKSIG", "type": "pubkeyhash"}, "value": 0.15622266, "n": 0}, {"scriptPubKey": {"reqSigs": 1, "hex": "76a914e9d08012f82460634874690aaabe3674bc8ce65588ac", "addresses": ["1NKJDYw7sM9Knz4c66FKjPFZPxX12jqMVz"], "asm": "OP_DUP OP_HASH160 e9d08012f82460634874690aaabe3674bc8ce655 OP_EQUALVERIFY OP_CHECKSIG", "type": "pubkeyhash"}, "value": 0.72738605, "n": 1}], "hex": "0100000001d59a607c0a5d89f6935aab750c2d673b7613f2e63b139c0be3a03b9956cd18b8010000006a47304402206e14d06e64589ce62b8c6dda7cde60536c959425bfebddd1b67b387afe78f5af02202bbe790aae7e97ef083583012f927ac85e39ffe73786892e10ddde7eb0513232012102cd980ba37e5631e46ee5ebff204bdc0edd15ac13db4a609eb715c0c933a8368affffffff027a60ee00000000001976a914714d277f2b79a9cd259e989ae2c8510881c8b29188ac2de75504000000001976a914e9d08012f82460634874690aaabe3674bc8ce65588ac00000000", "vin": [{"sequence": 4294967295, "scriptSig": {"hex": "47304402206e14d06e64589ce62b8c6dda7cde60536c959425bfebddd1b67b387afe78f5af02202bbe790aae7e97ef083583012f927ac85e39ffe73786892e10ddde7eb0513232012102cd980ba37e5631e46ee5ebff204bdc0edd15ac13db4a609eb715c0c933a8368a", "asm": "304402206e14d06e64589ce62b8c6dda7cde60536c959425bfebddd1b67b387afe78f5af02202bbe790aae7e97ef083583012f927ac85e39ffe73786892e10ddde7eb0513232[ALL] 02cd980ba37e5631e46ee5ebff204bdc0edd15ac13db4a609eb715c0c933a8368a"}, "vout": 1, "txid": "b818cd56993ba0e30b9c133be6f213763b672d0c75ab5a93f6895d0a7c609ad5"}], "txid": "8707f3a99833d3d8eadbaf2f449e3f768713a7c55bb87396221086ac25c8efb5", "blocktime": 1537871767, "version": 1, "confirmations": 11493, "time": 1537871767, "locktime": 0, "vsize": 225, "size": 225}