{"hash": "8708597e39aaf28e59c2ef99d7dd887ef3db8cbc451882bd8d837992bc1abf29", "blockhash": "000000000000000000022b45ed06c6f4ccd3cf7fb5ba4856ebd2e58215665228", "vout": [{"scriptPubKey": {"reqSigs": 1, "hex": "76a91439562626e4d3a19e5d6d7bf785f3d668a65e94e388ac", "addresses": ["16EAig69NDZAnPQX3MTtkBrKTQtYE5SdCR"], "asm": "OP_DUP OP_HASH160 39562626e4d3a19e5d6d7bf785f3d668a65e94e3 OP_EQUALVERIFY OP_CHECKSIG", "type": "pubkeyhash"}, "value": 0.02222988, "n": 0}, {"scriptPubKey": {"reqSigs": 1, "hex": "76a914eb78b2c90d98fa321744b720a1072e7a4aed6ab888ac", "addresses": ["1NU4PMLY5sKsgiSi4mSyRf5VS6FtvQesAk"], "asm": "OP_DUP OP_HASH160 eb78b2c90d98fa321744b720a1072e7a4aed6ab8 OP_EQUALVERIFY OP_CHECKSIG", "type": "pubkeyhash"}, "value": 0.001861, "n": 1}], "hex": "01000000015a3323070f414a42ef8733cd84ccd318fc6b3b3d8a1d90457497b81a37a53d51000000006b483045022100ec0dd98d241af3aa46ab4c574dc81480e5264bea547dacfe1dd10266a1d6b82002203e0a649cc1f3e42c6e6c306fd9527f00a6a490ffdb4165fb45f74768ce7de82b012102fc7c680d3029c313f95c6892c27a37432de36bbb18b494ca8c1c22dccd3e46f1ffffffff028ceb2100000000001976a91439562626e4d3a19e5d6d7bf785f3d668a65e94e388acf4d60200000000001976a914eb78b2c90d98fa321744b720a1072e7a4aed6ab888ac00000000", "vin": [{"sequence": 4294967295, "scriptSig": {"hex": "483045022100ec0dd98d241af3aa46ab4c574dc81480e5264bea547dacfe1dd10266a1d6b82002203e0a649cc1f3e42c6e6c306fd9527f00a6a490ffdb4165fb45f74768ce7de82b012102fc7c680d3029c313f95c6892c27a37432de36bbb18b494ca8c1c22dccd3e46f1", "asm": "3045022100ec0dd98d241af3aa46ab4c574dc81480e5264bea547dacfe1dd10266a1d6b82002203e0a649cc1f3e42c6e6c306fd9527f00a6a490ffdb4165fb45f74768ce7de82b[ALL] 02fc7c680d3029c313f95c6892c27a37432de36bbb18b494ca8c1c22dccd3e46f1"}, "vout": 0, "txid": "513da5371ab8977445901d8a3d3b6bfc18d3cc84cd3387ef424a410f0723335a"}], "txid": "8708597e39aaf28e59c2ef99d7dd887ef3db8cbc451882bd8d837992bc1abf29", "blocktime": 1537869901, "version": 1, "confirmations": 11524, "time": 1537869901, "locktime": 0, "vsize": 226, "size": 226}