{"hash": "870ad660755f29a25f97fe9942b10e06a26ff32739b412db0518510e20f84daf", "blockhash": "00000000000000000018f53835495a110e01622372bf6ae95dc86f2b0ab887b0", "vout": [{"scriptPubKey": {"reqSigs": 1, "hex": "a9141ea28c72af7fdb234fdc4ddbb2380dbee947775d87", "addresses": ["34UzvNiBVBmf1yrNLtjvQ87US5BvLCidiX"], "asm": "OP_HASH160 1ea28c72af7fdb234fdc4ddbb2380dbee947775d OP_EQUAL", "type": "scripthash"}, "value": 0.00011446, "n": 0}], "hex": "0100000001adff7bd2a70290e5729f30a98e8d465d3ba1068c9795fd799d3c74abcfbbfc9a000000006a473044022031f521d1c849fbb492f00ff3e3350eeb1b4060578409bdddf7024409b135f629022061e6491ee0d4f17f7921c26bc849cfe68a9f036aac1f7e73e7177d4e4f212a2501210213889cfb9ad4524098c38af37ec1b7324ae801469e6c098aa8087da2d3cc919affffffff01b62c00000000000017a9141ea28c72af7fdb234fdc4ddbb2380dbee947775d8700000000", "vin": [{"sequence": 4294967295, "scriptSig": {"hex": "473044022031f521d1c849fbb492f00ff3e3350eeb1b4060578409bdddf7024409b135f629022061e6491ee0d4f17f7921c26bc849cfe68a9f036aac1f7e73e7177d4e4f212a2501210213889cfb9ad4524098c38af37ec1b7324ae801469e6c098aa8087da2d3cc919a", "asm": "3044022031f521d1c849fbb492f00ff3e3350eeb1b4060578409bdddf7024409b135f629022061e6491ee0d4f17f7921c26bc849cfe68a9f036aac1f7e73e7177d4e4f212a25[ALL] 0213889cfb9ad4524098c38af37ec1b7324ae801469e6c098aa8087da2d3cc919a"}, "vout": 0, "txid": "9afcbbcfab743c9d79fd95978c06a13b5d468d8ea9309f72e59002a7d27bffad"}], "txid": "870ad660755f29a25f97fe9942b10e06a26ff32739b412db0518510e20f84daf", "blocktime": 1537870928, "version": 1, "confirmations": 11512, "time": 1537870928, "locktime": 0, "vsize": 189, "size": 189}