{"hash": "8514687968773fbe29e46ab1ff1ee5b2d56776470f8388b94d7a7f8e769f6b62", "blockhash": "0000000000000000000dcc0f55137456b1a82d3642486a52398922ac4d620174", "vout": [{"scriptPubKey": {"reqSigs": 1, "hex": "76a914ff0a31c5d809b8e52c4a9d66592d20634943e95488ac", "addresses": ["1QFXXEo4jDssKGQ3UpHskCQpwqwQHNULzk"], "asm": "OP_DUP OP_HASH160 ff0a31c5d809b8e52c4a9d66592d20634943e954 OP_EQUALVERIFY OP_CHECKSIG", "type": "pubkeyhash"}, "value": 0.081, "n": 0}, {"scriptPubKey": {"reqSigs": 1, "hex": "a9140473a9793f33b772a63fe0e902b36bd7766e43d487", "addresses": ["326ZBeYfoRB1LZD2ko2VsBTtbbnxYEyTP2"], "asm": "OP_HASH160 0473a9793f33b772a63fe0e902b36bd7766e43d4 OP_EQUAL", "type": "scripthash"}, "value": 1.92171789, "n": 1}], "hex": "02000000000101f2ef6b12ceb88adbc3492be8e3d2eddb24641559f2b11e9fcc77448cecbc21b50000000017160014f50e1a86a4822ca4b3ca499c165562a61b12db6dffffffff02a0987b00000000001976a914ff0a31c5d809b8e52c4a9d66592d20634943e95488ac0d4f740b0000000017a9140473a9793f33b772a63fe0e902b36bd7766e43d48702483045022100a699e3022b18e4c5a5c388a1863f080b9bfb3cc0c289fe6f6cdad5579616754a02200e2cbe98f1d24ee8bee9b092811f3e2c648fbfd34ea08ff921e874f72c26ec4d0121038c295cb76a17e692c56d4142191a60aef9e04a2c674aa6ee702d5491d33b969500000000", "vin": [{"txinwitness": ["3045022100a699e3022b18e4c5a5c388a1863f080b9bfb3cc0c289fe6f6cdad5579616754a02200e2cbe98f1d24ee8bee9b092811f3e2c648fbfd34ea08ff921e874f72c26ec4d01", "038c295cb76a17e692c56d4142191a60aef9e04a2c674aa6ee702d5491d33b9695"], "sequence": 4294967295, "scriptSig": {"hex": "160014f50e1a86a4822ca4b3ca499c165562a61b12db6d", "asm": "0014f50e1a86a4822ca4b3ca499c165562a61b12db6d"}, "vout": 0, "txid": "b521bcec8c4477cc9f1eb1f259156424dbedd2e3e82b49c3db8ab8ce126beff2"}], "txid": "870a6c9aafbdddd0c4a9df37d484b1a51937eb0f5541c552e0a6620eaf30c20a", "blocktime": 1537870268, "version": 2, "confirmations": 11517, "time": 1537870268, "locktime": 0, "vsize": 168, "size": 250}