{"hash": "870e26410a95a1a20711357b9b08d469b5630a9b2dd56a311fc289ada9b1c983", "blockhash": "0000000000000000001cda96e906b7601b7a6fb1a3b62bca570a9e5d8f4b3de1", "vout": [{"scriptPubKey": {"reqSigs": 1, "hex": "76a914aab3c49ec0c55cb77546a6d0c95e5ab058c24d0088ac", "addresses": ["1GZbE7ckgY89YTS4CQQ7sF3QKmyJEj4Qu2"], "asm": "OP_DUP OP_HASH160 aab3c49ec0c55cb77546a6d0c95e5ab058c24d00 OP_EQUALVERIFY OP_CHECKSIG", "type": "pubkeyhash"}, "value": 0.00640999, "n": 0}, {"scriptPubKey": {"type": "nulldata", "hex": "6a4c50000077c2000127bf8044c92b98c2e7e936e2e5bf9ae76da98a211aaf6c953dd567cf27e798c5eb9fa6bbd974d69c74e697ce49a45baa12ca061327b08babefea1d100759d4ba30d2c37bb011d97e02cf", "asm": "OP_RETURN 000077c2000127bf8044c92b98c2e7e936e2e5bf9ae76da98a211aaf6c953dd567cf27e798c5eb9fa6bbd974d69c74e697ce49a45baa12ca061327b08babefea1d100759d4ba30d2c37bb011d97e02cf"}, "value": 0.0, "n": 1}], "hex": "010000000198f07af1aec78eca5d57d938ee9cd42264b7d7bbf726f28f9e48abc53ceef7bd010000006b483045022100837c964bed8cbd6bcbb632c5de0be00df9d0952c9417c16a42e427ef55b8ccba0220425ced6ea2f695cec6d5cf2d9d70e12377e2e7c407d5cf355bff4c01bb5acd7b012102f415e5ea3b0d8d0e2041771ec86fa3757743c0856d6801b403ae327fefe9e42bffffffff02e7c70900000000001976a914aab3c49ec0c55cb77546a6d0c95e5ab058c24d0088ac0000000000000000536a4c50000077c2000127bf8044c92b98c2e7e936e2e5bf9ae76da98a211aaf6c953dd567cf27e798c5eb9fa6bbd974d69c74e697ce49a45baa12ca061327b08babefea1d100759d4ba30d2c37bb011d97e02cf00000000", "vin": [{"sequence": 4294967295, "scriptSig": {"hex": "483045022100837c964bed8cbd6bcbb632c5de0be00df9d0952c9417c16a42e427ef55b8ccba0220425ced6ea2f695cec6d5cf2d9d70e12377e2e7c407d5cf355bff4c01bb5acd7b012102f415e5ea3b0d8d0e2041771ec86fa3757743c0856d6801b403ae327fefe9e42b", "asm": "3045022100837c964bed8cbd6bcbb632c5de0be00df9d0952c9417c16a42e427ef55b8ccba0220425ced6ea2f695cec6d5cf2d9d70e12377e2e7c407d5cf355bff4c01bb5acd7b[ALL] 02f415e5ea3b0d8d0e2041771ec86fa3757743c0856d6801b403ae327fefe9e42b"}, "vout": 1, "txid": "bdf7ee3cc5ab489e8ff226f7bbd7b76422d49cee38d9575dca8ec7aef17af098"}], "txid": "870e26410a95a1a20711357b9b08d469b5630a9b2dd56a311fc289ada9b1c983", "blocktime": 1537873282, "version": 1, "confirmations": 11484, "time": 1537873282, "locktime": 0, "vsize": 284, "size": 284}