{"hash": "870f9aa0cb50e1d5a76999ad54b60759a2863375e1f15ec729d2c36283b6a41f", "blockhash": "0000000000000000001cda96e906b7601b7a6fb1a3b62bca570a9e5d8f4b3de1", "vout": [{"scriptPubKey": {"reqSigs": 1, "hex": "a9140493c35838aa651e51bc8da088157f085144a09887", "addresses": ["327De4wjvxNUczHorYhFTD5Wnw9nuppWN7"], "asm": "OP_HASH160 0493c35838aa651e51bc8da088157f085144a098 OP_EQUAL", "type": "scripthash"}, "value": 0.01998663, "n": 0}], "hex": "010000000176608efcc19923e9a0324c7f5b9cb046e1eaf7fdb80018a8f894c89505bb633d000000006a473044022058fb8478a003e7171b16a036749f4b096412ac70846aa72e7a2b2ae485e7eae402202dbdf2c771f3974af78b65d446f73564e0299703b33c769b5e005f2b377d5c2801210312ced34200a353b4816a52faf5261ac25cdf37fb4ec77b85c9ebf9a7933d6762ffffffff01477f1e000000000017a9140493c35838aa651e51bc8da088157f085144a0988700000000", "vin": [{"sequence": 4294967295, "scriptSig": {"hex": "473044022058fb8478a003e7171b16a036749f4b096412ac70846aa72e7a2b2ae485e7eae402202dbdf2c771f3974af78b65d446f73564e0299703b33c769b5e005f2b377d5c2801210312ced34200a353b4816a52faf5261ac25cdf37fb4ec77b85c9ebf9a7933d6762", "asm": "3044022058fb8478a003e7171b16a036749f4b096412ac70846aa72e7a2b2ae485e7eae402202dbdf2c771f3974af78b65d446f73564e0299703b33c769b5e005f2b377d5c28[ALL] 0312ced34200a353b4816a52faf5261ac25cdf37fb4ec77b85c9ebf9a7933d6762"}, "vout": 0, "txid": "3d63bb0595c894f8a81800b8fdf7eae146b09c5b7f4c32a0e92399c1fc8e6076"}], "txid": "870f9aa0cb50e1d5a76999ad54b60759a2863375e1f15ec729d2c36283b6a41f", "blocktime": 1537873282, "version": 1, "confirmations": 11482, "time": 1537873282, "locktime": 0, "vsize": 189, "size": 189}