{"hash": "87105e2a225ad90b5e78bef3099589ad814260368dfa64f62711861be25926ad", "blockhash": "0000000000000000001f0ddff1eddb255c1121bcd4da4f1bc9a0da00cae72433", "vout": [{"scriptPubKey": {"reqSigs": 1, "hex": "76a914c9566e76b4f3d4733290364ca203d761f162c34288ac", "addresses": ["1KMaMvaSXYNZ5x1YrjKoh6mFiNM9qbcM8P"], "asm": "OP_DUP OP_HASH160 c9566e76b4f3d4733290364ca203d761f162c342 OP_EQUALVERIFY OP_CHECKSIG", "type": "pubkeyhash"}, "value": 0.00642106, "n": 0}, {"scriptPubKey": {"type": "nulldata", "hex": "6a4c50000077a900013f28305dd15bb3407afe8d20af6c953dd567cf27e7e3ef3236678a6250975e4d5b8dfd28209081d9196931d189995baa10040612fa8b53ccfddc1d100759d4ba30d2c37bb011d97e02cf", "asm": "OP_RETURN 000077a900013f28305dd15bb3407afe8d20af6c953dd567cf27e7e3ef3236678a6250975e4d5b8dfd28209081d9196931d189995baa10040612fa8b53ccfddc1d100759d4ba30d2c37bb011d97e02cf"}, "value": 0.0, "n": 1}], "hex": "0100000001d307e8ec54409814cca5a71c597f6e74c1396c73f7a6a6a00043e87cbb736703010000006b483045022100da0ca9923a10036f3e9695dee93dbb06878e9c35ecade956a0c2a07f41c3e6c5022016637e6ab4498caa2460c5d3ea04c1cb8f09dd9bf8439b846ba5b0b6ee66ee13012102ad40f09335a1ca8a5a2747e731b81f10b828872348ef2021b6ae8d61cf51d42fffffffff023acc0900000000001976a914c9566e76b4f3d4733290364ca203d761f162c34288ac0000000000000000536a4c50000077a900013f28305dd15bb3407afe8d20af6c953dd567cf27e7e3ef3236678a6250975e4d5b8dfd28209081d9196931d189995baa10040612fa8b53ccfddc1d100759d4ba30d2c37bb011d97e02cf00000000", "vin": [{"sequence": 4294967295, "scriptSig": {"hex": "483045022100da0ca9923a10036f3e9695dee93dbb06878e9c35ecade956a0c2a07f41c3e6c5022016637e6ab4498caa2460c5d3ea04c1cb8f09dd9bf8439b846ba5b0b6ee66ee13012102ad40f09335a1ca8a5a2747e731b81f10b828872348ef2021b6ae8d61cf51d42f", "asm": "3045022100da0ca9923a10036f3e9695dee93dbb06878e9c35ecade956a0c2a07f41c3e6c5022016637e6ab4498caa2460c5d3ea04c1cb8f09dd9bf8439b846ba5b0b6ee66ee13[ALL] 02ad40f09335a1ca8a5a2747e731b81f10b828872348ef2021b6ae8d61cf51d42f"}, "vout": 1, "txid": "036773bb7ce84300a0a6a6f7736c39c1746e7f591ca7a5cc14984054ece807d3"}], "txid": "87105e2a225ad90b5e78bef3099589ad814260368dfa64f62711861be25926ad", "blocktime": 1537872018, "version": 1, "confirmations": 11489, "time": 1537872018, "locktime": 0, "vsize": 284, "size": 284}