{"hash": "871a28aa39902736e3f881c16fa5ef5cb3a09d8678250da144c78d05bbb5cac6", "blockhash": "0000000000000000000baef3f32e3676a92c3b2e5da21b426e4f302fc371ce76", "vout": [{"scriptPubKey": {"reqSigs": 1, "hex": "76a914b2ec86be148c591ca6d6ed268c22f6f5939d016388ac", "addresses": ["1HK4dHTyfs9tFbju9nA3w9WX4VFjDfYWZM"], "asm": "OP_DUP OP_HASH160 b2ec86be148c591ca6d6ed268c22f6f5939d0163 OP_EQUALVERIFY OP_CHECKSIG", "type": "pubkeyhash"}, "value": 0.86574627, "n": 0}, {"scriptPubKey": {"type": "nulldata", "hex": "6a146f6d6e69000000000000001f0000001b26af2cd1", "asm": "OP_RETURN 6f6d6e69000000000000001f0000001b26af2cd1"}, "value": 0.0, "n": 1}, {"scriptPubKey": {"reqSigs": 1, "hex": "76a91439f647e9dc077cd29d71a216e04f5de3f892035088ac", "addresses": ["16HUYqGCDr4moLEi6m9NhFZ3gY916zz6TZ"], "asm": "OP_DUP OP_HASH160 39f647e9dc077cd29d71a216e04f5de3f8920350 OP_EQUALVERIFY OP_CHECKSIG", "type": "pubkeyhash"}, "value": 5.46e-06, "n": 2}], "hex": "0100000003c73055a5f65beeefc6b19c01904d50b47c63928b15717dd3607103fef80ec0d2020000006b483045022100ba93d6a050e8fcbc015f53957dfc112b362e9025d90d6d404d0f7ca0eb6d42280220715eeb2dfcbf1726bedaaf304ecc276c757df4a308a3f39b9b1b0464fa75bbf90121034f70342fec21ecf2731e0123a7ad127fc00008891de3a97ea8fa7211d3a0a7bdfffffffff4f0ac9c2fc3e5134804c19281dbd76e1f31e3ac601427e4f2980a0043ed71d5020000006a473044022007733db06c27a016675701ef120a9c3ce212b74256cc53f5d519200891f6fae402203073f33f281aac7350204d1c78183b3eb5fcfea703e94119df9453e26cae93f50121034f70342fec21ecf2731e0123a7ad127fc00008891de3a97ea8fa7211d3a0a7bdffffffff1ac3d51a684523477995787c7af9ea56437b07fd1bcdb1e7ce69f080fbcc55a3000000006a47304402205ead00a266cea9cf89afeefa9676cfe1e36d947fc403c62666325ec5ddcd309702207fc9a206dd610fd1bed44f2187f8b0029df1ac7652676b75003d14d2975b91340121025a2fab6fb38dc2318cfc50415da4adac7ae54c79b243270068766c793fccb062ffffffff0323062905000000001976a914b2ec86be148c591ca6d6ed268c22f6f5939d016388ac0000000000000000166a146f6d6e69000000000000001f0000001b26af2cd122020000000000001976a91439f647e9dc077cd29d71a216e04f5de3f892035088ac00000000", "vin": [{"sequence": 4294967295, "scriptSig": {"hex": "483045022100ba93d6a050e8fcbc015f53957dfc112b362e9025d90d6d404d0f7ca0eb6d42280220715eeb2dfcbf1726bedaaf304ecc276c757df4a308a3f39b9b1b0464fa75bbf90121034f70342fec21ecf2731e0123a7ad127fc00008891de3a97ea8fa7211d3a0a7bd", "asm": "3045022100ba93d6a050e8fcbc015f53957dfc112b362e9025d90d6d404d0f7ca0eb6d42280220715eeb2dfcbf1726bedaaf304ecc276c757df4a308a3f39b9b1b0464fa75bbf9[ALL] 034f70342fec21ecf2731e0123a7ad127fc00008891de3a97ea8fa7211d3a0a7bd"}, "vout": 2, "txid": "d2c00ef8fe037160d37d71158b92637cb4504d90019cb1c6efee5bf6a55530c7"}, {"sequence": 4294967295, "scriptSig": {"hex": "473044022007733db06c27a016675701ef120a9c3ce212b74256cc53f5d519200891f6fae402203073f33f281aac7350204d1c78183b3eb5fcfea703e94119df9453e26cae93f50121034f70342fec21ecf2731e0123a7ad127fc00008891de3a97ea8fa7211d3a0a7bd", "asm": "3044022007733db06c27a016675701ef120a9c3ce212b74256cc53f5d519200891f6fae402203073f33f281aac7350204d1c78183b3eb5fcfea703e94119df9453e26cae93f5[ALL] 034f70342fec21ecf2731e0123a7ad127fc00008891de3a97ea8fa7211d3a0a7bd"}, "vout": 2, "txid": "d571ed43000a98f2e4271460ace3311f6ed7db8192c1044813e5c32f9cacf0f4"}, {"sequence": 4294967295, "scriptSig": {"hex": "47304402205ead00a266cea9cf89afeefa9676cfe1e36d947fc403c62666325ec5ddcd309702207fc9a206dd610fd1bed44f2187f8b0029df1ac7652676b75003d14d2975b91340121025a2fab6fb38dc2318cfc50415da4adac7ae54c79b243270068766c793fccb062", "asm": "304402205ead00a266cea9cf89afeefa9676cfe1e36d947fc403c62666325ec5ddcd309702207fc9a206dd610fd1bed44f2187f8b0029df1ac7652676b75003d14d2975b9134[ALL] 025a2fab6fb38dc2318cfc50415da4adac7ae54c79b243270068766c793fccb062"}, "vout": 0, "txid": "a355ccfb80f069cee7b1cd1bfd077b4356eaf97a7c789579472345681ad5c31a"}], "txid": "871a28aa39902736e3f881c16fa5ef5cb3a09d8678250da144c78d05bbb5cac6", "blocktime": 1537876114, "version": 1, "confirmations": 11459, "time": 1537876114, "locktime": 0, "vsize": 551, "size": 551}