{"hash": "871d18d4b12068a2dc2a9026aa6c0c8c42ca8fd3c3fdd5217d492e5b41f9c658", "blockhash": "0000000000000000001f76057863aec43deb6fa401d9628bb513d65a8098bfab", "vout": [{"scriptPubKey": {"reqSigs": 1, "hex": "76a914811804178fa85b52a1aa09fd963e4b206c9340eb88ac", "addresses": ["1CmawQYivMVFrHJkv3hBD6DGHgvbHNdKHg"], "asm": "OP_DUP OP_HASH160 811804178fa85b52a1aa09fd963e4b206c9340eb OP_EQUALVERIFY OP_CHECKSIG", "type": "pubkeyhash"}, "value": 0.03091814, "n": 0}, {"scriptPubKey": {"reqSigs": 1, "hex": "76a914375a61c91382e2cc1004897d2826459d2eb826d288ac", "addresses": ["163gSQDn1ieqFHAKEA5SVcxHSJdDF7mVSs"], "asm": "OP_DUP OP_HASH160 375a61c91382e2cc1004897d2826459d2eb826d2 OP_EQUALVERIFY OP_CHECKSIG", "type": "pubkeyhash"}, "value": 0.02414549, "n": 1}], "hex": "0200000001fcc9cef1f90ef9ed5293cd1f2d4670481a4c7304126be02162005fca131b34a2010000006b483045022100c29bfdcef6810e22e26f47406f1624bdccd8f74e07f3ba05db7e4ffeb62720350220029d7a5f17ea10ef9c46c150f35aaf6bb3dab65d2ee22270891be4c8044d4c11012103fb3048fe59edbadc8cd4fbc21933c9056ea50793cbdb83922ebad52ad7fe55a6feffffff02662d2f00000000001976a914811804178fa85b52a1aa09fd963e4b206c9340eb88acd5d72400000000001976a914375a61c91382e2cc1004897d2826459d2eb826d288ac13490800", "vin": [{"sequence": 4294967294, "scriptSig": {"hex": "483045022100c29bfdcef6810e22e26f47406f1624bdccd8f74e07f3ba05db7e4ffeb62720350220029d7a5f17ea10ef9c46c150f35aaf6bb3dab65d2ee22270891be4c8044d4c11012103fb3048fe59edbadc8cd4fbc21933c9056ea50793cbdb83922ebad52ad7fe55a6", "asm": "3045022100c29bfdcef6810e22e26f47406f1624bdccd8f74e07f3ba05db7e4ffeb62720350220029d7a5f17ea10ef9c46c150f35aaf6bb3dab65d2ee22270891be4c8044d4c11[ALL] 03fb3048fe59edbadc8cd4fbc21933c9056ea50793cbdb83922ebad52ad7fe55a6"}, "vout": 1, "txid": "a2341b13ca5f006221e06b1204734c1a4870462d1fcd9352edf90ef9f1cec9fc"}], "txid": "871d18d4b12068a2dc2a9026aa6c0c8c42ca8fd3c3fdd5217d492e5b41f9c658", "blocktime": 1537873891, "version": 2, "confirmations": 11478, "time": 1537873891, "locktime": 542995, "vsize": 226, "size": 226}