{"hash": "8724f9142486e80434a07e34d972d1b384d741934e6ec2697ba373ce7f0da077", "blockhash": "00000000000000000018f53835495a110e01622372bf6ae95dc86f2b0ab887b0", "vout": [{"scriptPubKey": {"reqSigs": 1, "hex": "a91422fffeb03a918d2ac0133b43d6300f2a20a7f08187", "addresses": ["34t5ZuG2K8UkWhEbEvZEBaQN42ftodKQ7N"], "asm": "OP_HASH160 22fffeb03a918d2ac0133b43d6300f2a20a7f081 OP_EQUAL", "type": "scripthash"}, "value": 0.3081, "n": 0}, {"scriptPubKey": {"reqSigs": 1, "hex": "76a914a1252619241c39a055d882ff4c80f18cc381a17a88ac", "addresses": ["1Fh4J2k46TzcXoHiydu8REy9fCnATUMvUo"], "asm": "OP_DUP OP_HASH160 a1252619241c39a055d882ff4c80f18cc381a17a OP_EQUALVERIFY OP_CHECKSIG", "type": "pubkeyhash"}, "value": 18.46347769, "n": 1}], "hex": "0100000001309b728a382d78836962ac5d4a11acb37877f74597a8f1376560cb2b5f4b180d010000006a47304402205610a11ced06960c64b2dd46ed8974ddaeedb14295d13b5b40d90ce112215afb02206ee071e20976e23cccfe26263f539629f36b09e15fca6842a2ec0d49b71fb66e012102b98fa81d4d193b6f2bcd1f0483ba86a1bb855a7c7356778169516774398d2e10ffffffff02901fd6010000000017a91422fffeb03a918d2ac0133b43d6300f2a20a7f08187f9070d6e000000001976a914a1252619241c39a055d882ff4c80f18cc381a17a88ac00000000", "vin": [{"sequence": 4294967295, "scriptSig": {"hex": "47304402205610a11ced06960c64b2dd46ed8974ddaeedb14295d13b5b40d90ce112215afb02206ee071e20976e23cccfe26263f539629f36b09e15fca6842a2ec0d49b71fb66e012102b98fa81d4d193b6f2bcd1f0483ba86a1bb855a7c7356778169516774398d2e10", "asm": "304402205610a11ced06960c64b2dd46ed8974ddaeedb14295d13b5b40d90ce112215afb02206ee071e20976e23cccfe26263f539629f36b09e15fca6842a2ec0d49b71fb66e[ALL] 02b98fa81d4d193b6f2bcd1f0483ba86a1bb855a7c7356778169516774398d2e10"}, "vout": 1, "txid": "0d184b5f2bcb606537f1a89745f77778b3ac114a5dac626983782d388a729b30"}], "txid": "8724f9142486e80434a07e34d972d1b384d741934e6ec2697ba373ce7f0da077", "blocktime": 1537870928, "version": 1, "confirmations": 11512, "time": 1537870928, "locktime": 0, "vsize": 223, "size": 223}