{"hash": "8727e985c3f237b31fa4d788fc8d1c2b8f65ce8e820dbe9f5b88174dc76b4e73", "blockhash": "00000000000000000018f53835495a110e01622372bf6ae95dc86f2b0ab887b0", "vout": [{"scriptPubKey": {"reqSigs": 1, "hex": "76a91438b29685f92d9717885dbd57b35eb965f7b6767a88ac", "addresses": ["16AnnFg8psanBncDzbr8yaGmGRwqV2A7E3"], "asm": "OP_DUP OP_HASH160 38b29685f92d9717885dbd57b35eb965f7b6767a OP_EQUALVERIFY OP_CHECKSIG", "type": "pubkeyhash"}, "value": 0.00499064, "n": 0}, {"scriptPubKey": {"type": "nulldata", "hex": "6a146f6d6e69000000000000001f0000027378fd49c0", "asm": "OP_RETURN 6f6d6e69000000000000001f0000027378fd49c0"}, "value": 0.0, "n": 1}, {"scriptPubKey": {"reqSigs": 1, "hex": "76a914a25dec4d0011064ef106a983c39c7a540699f22088ac", "addresses": ["1FoWyxwPXuj4C6abqwhjDWdz6D4PZgYRjA"], "asm": "OP_DUP OP_HASH160 a25dec4d0011064ef106a983c39c7a540699f220 OP_EQUALVERIFY OP_CHECKSIG", "type": "pubkeyhash"}, "value": 5.46e-06, "n": 2}], "hex": "01000000010d01a2029185c1752ddb6f4edd511a7d23d380cfcef6d7a0ca449357da1f4f33010000006b4830450221009b96f7d09f2389916ef7d8342dac42b967c066b37174056ada3401a8c91e7a1802203200cb111c997fac4f8fd2256e7d8e1e4ca35abf84372f2c127277a126e216fe012103e351127e1ba26aa2ec5f81c7e47e48df37e22312b310301ea6232f3e5a39ed95feffffff03789d0700000000001976a91438b29685f92d9717885dbd57b35eb965f7b6767a88ac0000000000000000166a146f6d6e69000000000000001f0000027378fd49c022020000000000001976a914a25dec4d0011064ef106a983c39c7a540699f22088ac0d490800", "vin": [{"sequence": 4294967294, "scriptSig": {"hex": "4830450221009b96f7d09f2389916ef7d8342dac42b967c066b37174056ada3401a8c91e7a1802203200cb111c997fac4f8fd2256e7d8e1e4ca35abf84372f2c127277a126e216fe012103e351127e1ba26aa2ec5f81c7e47e48df37e22312b310301ea6232f3e5a39ed95", "asm": "30450221009b96f7d09f2389916ef7d8342dac42b967c066b37174056ada3401a8c91e7a1802203200cb111c997fac4f8fd2256e7d8e1e4ca35abf84372f2c127277a126e216fe[ALL] 03e351127e1ba26aa2ec5f81c7e47e48df37e22312b310301ea6232f3e5a39ed95"}, "vout": 1, "txid": "334f1fda579344caa0d7f6cecf80d3237d1a51dd4e6fdb2d75c1859102a2010d"}], "txid": "8727e985c3f237b31fa4d788fc8d1c2b8f65ce8e820dbe9f5b88174dc76b4e73", "blocktime": 1537870928, "version": 1, "confirmations": 11514, "time": 1537870928, "locktime": 542989, "vsize": 257, "size": 257}