{"hash": "f2a481ca87bf84fb57a668fea6ad2fb4fb11f37ce6a15ad17b1d8c12093554b1", "blockhash": "0000000000000000000baef3f32e3676a92c3b2e5da21b426e4f302fc371ce76", "vout": [{"scriptPubKey": {"reqSigs": 1, "hex": "a914b2c6783c1a1990d61730ccf8e1484f91b45dc6e987", "addresses": ["3HzHxbyQW3KvbAUgtHttJKwWqnSTfE5djE"], "asm": "OP_HASH160 b2c6783c1a1990d61730ccf8e1484f91b45dc6e9 OP_EQUAL", "type": "scripthash"}, "value": 0.0024246, "n": 0}, {"scriptPubKey": {"reqSigs": 1, "hex": "a9145689ece62bc8ab756e045412517e8f320a1515fc87", "addresses": ["39abGGKxaMT74Jm3SkXJXxZn2AkPwbuo48"], "asm": "OP_HASH160 5689ece62bc8ab756e045412517e8f320a1515fc OP_EQUAL", "type": "scripthash"}, "value": 0.62232361, "n": 1}], "hex": "01000000000101aa07c9e7c853bab239d5683b4259a1682dd4803a1fcec93961ecd3e433716b280100000023220020d4aeaf58c13fa28022f54b5e0c0d7305c71b3f4328591db487c4c45642de5f8cffffffff021cb303000000000017a914b2c6783c1a1990d61730ccf8e1484f91b45dc6e9872997b5030000000017a9145689ece62bc8ab756e045412517e8f320a1515fc870400483045022100ecec286393c91a1707c1de16b9e36efb7428356e999bb6727af78f114cd59d1f02200cd9dbc850454b65acb136cee6657e65956064cb13778c4dbc7fc8e76ab403be01483045022100f37cef338740fd39268ba1a773a7c6ee51b3f4e9fbef021a9d68a602469d5e7e02200c9cfdea8d5e57eadf6e4bb618a6ea008b17bbb35f08d8c89669c9f026abedd801695221029b465ad74bb057ab502e0059106c5c2440868847c9d8074f54fbc624aaa107ff2102a87b4106a9e96b020f0af97165327fd6a927fccc4abd4730609f7a61c8b9a9ae21032fd8e1d81d60925f4a4b97854a981aa18d80e722bc8b9bec9ac8e827bf7846fe53ae00000000", "vin": [{"txinwitness": ["", "3045022100ecec286393c91a1707c1de16b9e36efb7428356e999bb6727af78f114cd59d1f02200cd9dbc850454b65acb136cee6657e65956064cb13778c4dbc7fc8e76ab403be01", "3045022100f37cef338740fd39268ba1a773a7c6ee51b3f4e9fbef021a9d68a602469d5e7e02200c9cfdea8d5e57eadf6e4bb618a6ea008b17bbb35f08d8c89669c9f026abedd801", "5221029b465ad74bb057ab502e0059106c5c2440868847c9d8074f54fbc624aaa107ff2102a87b4106a9e96b020f0af97165327fd6a927fccc4abd4730609f7a61c8b9a9ae21032fd8e1d81d60925f4a4b97854a981aa18d80e722bc8b9bec9ac8e827bf7846fe53ae"], "sequence": 4294967295, "scriptSig": {"hex": "220020d4aeaf58c13fa28022f54b5e0c0d7305c71b3f4328591db487c4c45642de5f8c", "asm": "0020d4aeaf58c13fa28022f54b5e0c0d7305c71b3f4328591db487c4c45642de5f8c"}, "vout": 1, "txid": "286b7133e4d3ec6139c9ce1f3a80d42d68a159423b68d539b2ba53c8e7c907aa"}], "txid": "87292d95948cb2f3a1d7f977d350a74ceb9cb2f385e82535446cd7c3f8911537", "blocktime": 1537876114, "version": 1, "confirmations": 11460, "time": 1537876114, "locktime": 0, "vsize": 214, "size": 406}