{"hash": "872f66559d17c3f8e4fffc03cfed7c9ed9ed64a55d879f59e8c7da3da2ac4201", "blockhash": "0000000000000000001cda96e906b7601b7a6fb1a3b62bca570a9e5d8f4b3de1", "vout": [{"scriptPubKey": {"reqSigs": 1, "hex": "a9147b181efdd1ca563baae4e6857d609510a1b7bceb87", "addresses": ["3Cusw6jApD8xBdAjsz14CQsnf9cXpVYgMz"], "asm": "OP_HASH160 7b181efdd1ca563baae4e6857d609510a1b7bceb OP_EQUAL", "type": "scripthash"}, "value": 0.00058993, "n": 0}, {"scriptPubKey": {"reqSigs": 1, "hex": "76a914922a5c47f41977db84fedd3f82ad6bf0fd117d9188ac", "addresses": ["1EKrQGLmt7wNZ4VJyBFSA2vbRSXN5mvzDn"], "asm": "OP_DUP OP_HASH160 922a5c47f41977db84fedd3f82ad6bf0fd117d91 OP_EQUALVERIFY OP_CHECKSIG", "type": "pubkeyhash"}, "value": 0.001, "n": 1}, {"scriptPubKey": {"reqSigs": 1, "hex": "76a914fe170e833800f4a88b2d4c8f377bb40089c2e0be88ac", "addresses": ["1QAWFjSpqiFaDD3fWGqt5eC27U3EWxhepB"], "asm": "OP_DUP OP_HASH160 fe170e833800f4a88b2d4c8f377bb40089c2e0be OP_EQUALVERIFY OP_CHECKSIG", "type": "pubkeyhash"}, "value": 0.018406, "n": 2}], "hex": "01000000011eda9e5d6d3f5fe12428a0bdf88959c0fe2dfb82ee6e17e16f4306fa9378e97f03000000fdfd0000483045022100cd27eb1c485447255fc06901f6e2d6e119bdae8c864b89b80fa34b94ddc2ffe602200cc146390637e64ade4cc317bba5b891af3652422f6e831fed5981f1a1ff2a700147304402201fb7fae2c8137e3f94b45416b303013a06f2bc411a7a8f44269eaa18a8ae1ef402207d62ecb7d81334051dc83d4092b36ca170a318903372ec03be522d6e198b5e5e014c6952210212f6e37430747a238768797e5de0ca9e4b7466fa4366c5562942e0adbe9df8002102ba83115a291d3fd3d9661b5b3b7f66d89cac21b251470974b1f389c5dcae6bdd2103df3a5f1724e1c3f5d268f79af9e62f40e4c8ebe299fb1a3d2e31d8ab9b764dfa53aefdffffff0371e600000000000017a9147b181efdd1ca563baae4e6857d609510a1b7bceb87a0860100000000001976a914922a5c47f41977db84fedd3f82ad6bf0fd117d9188acd8151c00000000001976a914fe170e833800f4a88b2d4c8f377bb40089c2e0be88ac12490800", "vin": [{"sequence": 4294967293, "scriptSig": {"hex": "00483045022100cd27eb1c485447255fc06901f6e2d6e119bdae8c864b89b80fa34b94ddc2ffe602200cc146390637e64ade4cc317bba5b891af3652422f6e831fed5981f1a1ff2a700147304402201fb7fae2c8137e3f94b45416b303013a06f2bc411a7a8f44269eaa18a8ae1ef402207d62ecb7d81334051dc83d4092b36ca170a318903372ec03be522d6e198b5e5e014c6952210212f6e37430747a238768797e5de0ca9e4b7466fa4366c5562942e0adbe9df8002102ba83115a291d3fd3d9661b5b3b7f66d89cac21b251470974b1f389c5dcae6bdd2103df3a5f1724e1c3f5d268f79af9e62f40e4c8ebe299fb1a3d2e31d8ab9b764dfa53ae", "asm": "0 3045022100cd27eb1c485447255fc06901f6e2d6e119bdae8c864b89b80fa34b94ddc2ffe602200cc146390637e64ade4cc317bba5b891af3652422f6e831fed5981f1a1ff2a70[ALL] 304402201fb7fae2c8137e3f94b45416b303013a06f2bc411a7a8f44269eaa18a8ae1ef402207d62ecb7d81334051dc83d4092b36ca170a318903372ec03be522d6e198b5e5e[ALL] 52210212f6e37430747a238768797e5de0ca9e4b7466fa4366c5562942e0adbe9df8002102ba83115a291d3fd3d9661b5b3b7f66d89cac21b251470974b1f389c5dcae6bdd2103df3a5f1724e1c3f5d268f79af9e62f40e4c8ebe299fb1a3d2e31d8ab9b764dfa53ae"}, "vout": 3, "txid": "7fe97893fa06436fe1176eee82fb2dfec05989f8bda02824e15f3f6d5d9eda1e"}], "txid": "872f66559d17c3f8e4fffc03cfed7c9ed9ed64a55d879f59e8c7da3da2ac4201", "blocktime": 1537873282, "version": 1, "confirmations": 11485, "time": 1537873282, "locktime": 542994, "vsize": 406, "size": 406}