{"hash": "5f242357c51d1cc2ade3e6c0cc11fd08a66b2940b2e19e24c9787859d37ac972", "blockhash": "0000000000000000001f76057863aec43deb6fa401d9628bb513d65a8098bfab", "vout": [{"scriptPubKey": {"reqSigs": 1, "hex": "a9142515c343e6cba41d8154c4119c926b04fb359f0d87", "addresses": ["3556zk7j24nv3Uav5GdVGxPeZSGcMoV3fR"], "asm": "OP_HASH160 2515c343e6cba41d8154c4119c926b04fb359f0d OP_EQUAL", "type": "scripthash"}, "value": 0.0100467, "n": 0}, {"scriptPubKey": {"reqSigs": 1, "hex": "a914ae0f8920650ed3ba6dc02f296351f7de6b992c6487", "addresses": ["3HZN7Mj99Xj6LJW8GXxeFbbQa3rq7RbHGn"], "asm": "OP_HASH160 ae0f8920650ed3ba6dc02f296351f7de6b992c64 OP_EQUAL", "type": "scripthash"}, "value": 0.5, "n": 1}], "hex": "020000000001023e15942beb9eda939322d56c700484b296b69ffb753f6f427eb8144dd8a2a4eb0100000017160014eb9c460f03530d833ad184da3968cfeec8b39bcefeffffff5b782ac3b6c1a5d37830ac284d5cac55d5042ffbe1d682ab1bf3ac3158ad67b101000000171600147940bbe4b8d8539a72209c1d2b02f5e5871c81a4feffffff027e540f000000000017a9142515c343e6cba41d8154c4119c926b04fb359f0d8780f0fa020000000017a914ae0f8920650ed3ba6dc02f296351f7de6b992c648702483045022100d4db9f1690c8ca900b269eab2f27dd7014dedc9e9d1c74a5d966d7cd2ce4bdd00220150b139b60a1697dd9a5a4ac50e62457b1298787780e8029c9c9363af779010d0121026bc67cfd387563e6a36500bc71c8e59f1904e211f264d6f02f59f90a0c9996e80247304402205096078b7d8ce7add5be1e0583ab06a130bd9d8398fc6f20bf09a062d624481e0220604ca387c8eaa3b50f89fef550b8a4f623a7409b0169ab0698e5b981aa4fc1e80121029bcce545146a21ea655142ac9652af316fe989e15abf7d6987eaae893248069014490800", "vin": [{"txinwitness": ["3045022100d4db9f1690c8ca900b269eab2f27dd7014dedc9e9d1c74a5d966d7cd2ce4bdd00220150b139b60a1697dd9a5a4ac50e62457b1298787780e8029c9c9363af779010d01", "026bc67cfd387563e6a36500bc71c8e59f1904e211f264d6f02f59f90a0c9996e8"], "sequence": 4294967294, "scriptSig": {"hex": "160014eb9c460f03530d833ad184da3968cfeec8b39bce", "asm": "0014eb9c460f03530d833ad184da3968cfeec8b39bce"}, "vout": 1, "txid": "eba4a2d84d14b87e426f3f75fb9fb696b28404706cd5229393da9eeb2b94153e"}, {"txinwitness": ["304402205096078b7d8ce7add5be1e0583ab06a130bd9d8398fc6f20bf09a062d624481e0220604ca387c8eaa3b50f89fef550b8a4f623a7409b0169ab0698e5b981aa4fc1e801", "029bcce545146a21ea655142ac9652af316fe989e15abf7d6987eaae8932480690"], "sequence": 4294967294, "scriptSig": {"hex": "1600147940bbe4b8d8539a72209c1d2b02f5e5871c81a4", "asm": "00147940bbe4b8d8539a72209c1d2b02f5e5871c81a4"}, "vout": 1, "txid": "b167ad5831acf31bab82d6e1fb2f04d555ac5c4d28ac3078d3a5c1b6c32a785b"}], "txid": "8730ed5ea545ae53d87f4e5d07e40a11b8822ad59ebfa969953ca194e08e73d6", "blocktime": 1537873891, "version": 2, "confirmations": 11479, "time": 1537873891, "locktime": 542996, "vsize": 257, "size": 419}