{"hash": "2d820c68ef07d23474de4c62c7d111c56cb71961a4479a3ba88a4b7f50ece255", "blockhash": "0000000000000000001f76057863aec43deb6fa401d9628bb513d65a8098bfab", "vout": [{"scriptPubKey": {"reqSigs": 1, "hex": "76a9140e51c777d6ba0cf258452ce9053e32d52845b8f688ac", "addresses": ["12JiRoXP5gPT9VooQa5tdPz4hcMR59X2wM"], "asm": "OP_DUP OP_HASH160 0e51c777d6ba0cf258452ce9053e32d52845b8f6 OP_EQUALVERIFY OP_CHECKSIG", "type": "pubkeyhash"}, "value": 1.109e-05, "n": 0}, {"scriptPubKey": {"reqSigs": 1, "hex": "a9141d7370ccde4590204155e4074f69743a8e4fac0287", "addresses": ["34Njp4ZKtmCDfqqps26wHBYQQGUo2pGkLi"], "asm": "OP_HASH160 1d7370ccde4590204155e4074f69743a8e4fac02 OP_EQUAL", "type": "scripthash"}, "value": 0.00047841, "n": 1}], "hex": "010000000001018754b972c74373c70b8754d564fa37919ab50aec294eee2ecfa0db7314eca6290000000023220020f63dfc12340f6360d0251c22746d6b56093e3243e96ca012a65484a5d9cf0ec0ffffffff0255040000000000001976a9140e51c777d6ba0cf258452ce9053e32d52845b8f688ace1ba00000000000017a9141d7370ccde4590204155e4074f69743a8e4fac02870400483045022100d700034f30791ebf07adff19d151e1d31169019a6808f8ae7f04076b251662b40220439970a3509d898793dc54c696b401f876a43c914850274b0b32501c871538a401483045022100b5906eece02c110d85c6c3882865d59ff9eeeccf0b2e2251908cb824cb96d8a1022071b3d58da3acd44cae3e1b29b3880c6ade4f6e62523fb8826edaaf1f09a4f9520147522102097067a6a0cc130a9a6f6577b47bf369b840a79de31cd7457187994266b1bb7c2103338f346cab6ba87fe940591a03ac234be06520c5ab386d4b6632e8eef0d0db7652ae00000000", "vin": [{"txinwitness": ["", "3045022100d700034f30791ebf07adff19d151e1d31169019a6808f8ae7f04076b251662b40220439970a3509d898793dc54c696b401f876a43c914850274b0b32501c871538a401", "3045022100b5906eece02c110d85c6c3882865d59ff9eeeccf0b2e2251908cb824cb96d8a1022071b3d58da3acd44cae3e1b29b3880c6ade4f6e62523fb8826edaaf1f09a4f95201", "522102097067a6a0cc130a9a6f6577b47bf369b840a79de31cd7457187994266b1bb7c2103338f346cab6ba87fe940591a03ac234be06520c5ab386d4b6632e8eef0d0db7652ae"], "sequence": 4294967295, "scriptSig": {"hex": "220020f63dfc12340f6360d0251c22746d6b56093e3243e96ca012a65484a5d9cf0ec0", "asm": "0020f63dfc12340f6360d0251c22746d6b56093e3243e96ca012a65484a5d9cf0ec0"}, "vout": 0, "txid": "29a6ec1473dba0cf2eee4e29ec0ab59a9137fa64d554870bc77343c772b95487"}], "txid": "8742fdba682608788651d9883c7599f4e56b760600f3660f66d663a9c031e3d6", "blocktime": 1537873891, "version": 1, "confirmations": 11478, "time": 1537873891, "locktime": 0, "vsize": 208, "size": 374}