{"hash": "8745be6871f71b830eeb444c59bdf046070250d5867bd57842385b142b52db65", "blockhash": "0000000000000000001f0ddff1eddb255c1121bcd4da4f1bc9a0da00cae72433", "vout": [{"scriptPubKey": {"reqSigs": 1, "hex": "a914f744d4b463a1e2a19be6378f6bbd7449c13a4ddc87", "addresses": ["3QETHNwUeAk2ZGcyx3LCpqiSdeMiRhsmdN"], "asm": "OP_HASH160 f744d4b463a1e2a19be6378f6bbd7449c13a4ddc OP_EQUAL", "type": "scripthash"}, "value": 0.00267116, "n": 0}], "hex": "01000000017e424a3e298ad62b4c0d0725d5bc0f2fb1c67ec39d7d2e2bd49309112e828fbf010000006b483045022100ee1dcede86286a666bf91d5481f1574060604d5cc3256476200900e55c0efd2b02205ac26cce140afa7aca000c940b17852d943f7fdd87f67f6bc67a23ea29260478012103d205b552642d5da407ec1549a76cc8abe174f655e47699c87f590435b4af94e6ffffffff016c1304000000000017a914f744d4b463a1e2a19be6378f6bbd7449c13a4ddc8700000000", "vin": [{"sequence": 4294967295, "scriptSig": {"hex": "483045022100ee1dcede86286a666bf91d5481f1574060604d5cc3256476200900e55c0efd2b02205ac26cce140afa7aca000c940b17852d943f7fdd87f67f6bc67a23ea29260478012103d205b552642d5da407ec1549a76cc8abe174f655e47699c87f590435b4af94e6", "asm": "3045022100ee1dcede86286a666bf91d5481f1574060604d5cc3256476200900e55c0efd2b02205ac26cce140afa7aca000c940b17852d943f7fdd87f67f6bc67a23ea29260478[ALL] 03d205b552642d5da407ec1549a76cc8abe174f655e47699c87f590435b4af94e6"}, "vout": 1, "txid": "bf8f822e110993d42b2e7d9dc37ec6b12f0fbcd525070d4c2bd68a293e4a427e"}], "txid": "8745be6871f71b830eeb444c59bdf046070250d5867bd57842385b142b52db65", "blocktime": 1537872018, "version": 1, "confirmations": 11489, "time": 1537872018, "locktime": 0, "vsize": 190, "size": 190}