{"hash": "fd852304263b1d4aa4ec1135d94e50688395523faad820f0650d5b30ac9ac772", "blockhash": "0000000000000000001f76057863aec43deb6fa401d9628bb513d65a8098bfab", "vout": [{"scriptPubKey": {"reqSigs": 1, "hex": "0014ac5dda4507a44f15978515fab0006e2bf8345564", "addresses": ["bc1q43wa53g85383t9u9zhatqqrw90urg4tyw9pkpu"], "asm": "0 ac5dda4507a44f15978515fab0006e2bf8345564", "type": "witness_v0_keyhash"}, "value": 0.6698054, "n": 0}, {"scriptPubKey": {"reqSigs": 1, "hex": "a9149beeac9e6830211a39b38b3ceec713db02b86c9d87", "addresses": ["3FuWaf7oKMvKFHHQ7iuETGfrnpRGAmXtgU"], "asm": "OP_HASH160 9beeac9e6830211a39b38b3ceec713db02b86c9d OP_EQUAL", "type": "scripthash"}, "value": 0.01753443, "n": 1}], "hex": "01000000000101ac23d45c7e9fe63f87262ae63d850df66304052077fccc6c85687ef00d48976f0100000000ffffffff02bc0afe0300000000160014ac5dda4507a44f15978515fab0006e2bf834556463c11a000000000017a9149beeac9e6830211a39b38b3ceec713db02b86c9d87024730440220022e1c612b24d5e3447f7d293271f59b60d7725a3faafe80f7f9962aaa135a05022060c5a316bd5332bff4632a82b7a984ea1fd39456b58604fdc6891d621ab39261012102eb38d75da7dc93516ca80e447dfd267c9cb2a41ee9d742e395be1668537ca85700000000", "vin": [{"txinwitness": ["30440220022e1c612b24d5e3447f7d293271f59b60d7725a3faafe80f7f9962aaa135a05022060c5a316bd5332bff4632a82b7a984ea1fd39456b58604fdc6891d621ab3926101", "02eb38d75da7dc93516ca80e447dfd267c9cb2a41ee9d742e395be1668537ca857"], "sequence": 4294967295, "scriptSig": {"hex": "", "asm": ""}, "vout": 1, "txid": "6f97480df07e68856cccfc7720050463f60d853de62a26873fe69f7e5cd423ac"}], "txid": "874823a1519946e95bc8c90cd2dbca57de3c0d29b5e27b4bf45d62161662fa38", "blocktime": 1537873891, "version": 1, "confirmations": 11478, "time": 1537873891, "locktime": 0, "vsize": 142, "size": 223}