{"hash": "6c61633e4b44b30caf405dbe168e4f7aec788d8ddb01fcaaafdadc0369e87eec", "blockhash": "0000000000000000001e0dab787dd257d1dbfcb92a98c2207d5e1078be1f4165", "vout": [{"scriptPubKey": {"reqSigs": 1, "hex": "a914acdf5300ea5a624a98d2437b0a2c8eeaab4fe9ae87", "addresses": ["3HT5gNtsFtx3Ciyj8LkNhkJXwnphQ4PbHB"], "asm": "OP_HASH160 acdf5300ea5a624a98d2437b0a2c8eeaab4fe9ae OP_EQUAL", "type": "scripthash"}, "value": 0.01357828, "n": 0}, {"scriptPubKey": {"reqSigs": 1, "hex": "76a914fae8a602c253166bcc79472e5e689e76594ad2cd88ac", "addresses": ["1Psgdf8Lc9F4hwTScGzanNTZkzbmtjbDTf"], "asm": "OP_DUP OP_HASH160 fae8a602c253166bcc79472e5e689e76594ad2cd OP_EQUALVERIFY OP_CHECKSIG", "type": "pubkeyhash"}, "value": 0.0122254, "n": 1}], "hex": "020000000001023d1435c05270e10a5ef345319dd5c7a2e4f623a2b2fd3c1dfd38e5107bba32d90000000017160014ab76447e4094ce437b26b22996ef3b155e6f29f0fdffffff3f6fecaf392ee67ad52e2e31604315137a27baa9b90afd336262e8c50f15f5b00100000017160014eee4aadf100abdd9cb19172358dfdcc40644a7b4fdffffff0204b814000000000017a914acdf5300ea5a624a98d2437b0a2c8eeaab4fe9ae878ca71200000000001976a914fae8a602c253166bcc79472e5e689e76594ad2cd88ac02473044022044d77326b8e5baa1bcdf46ab5156854df2d003325e4d8db81237d2bbfb25a18e02201017e2e2bb9d3e765d672e7d869fd9d79b0f88a6da28410afabf1c2fe2d862300121026cafdefeaa9bdb90052cab49af7c9134745a5ddbc2525e1fa9858c200990ffd402483045022100ce638770856c6bb8788d9c71ac29a661849aceb300b18994f60284253a21f4c50220361877a3152646f59d365eece713f05f445f6612aacf6ca6576311b7f872f9ba012103a8684e9c14a168defd9d1746ac668c708b8499351981727cde1efdf5947b473cbb480800", "vin": [{"txinwitness": ["3044022044d77326b8e5baa1bcdf46ab5156854df2d003325e4d8db81237d2bbfb25a18e02201017e2e2bb9d3e765d672e7d869fd9d79b0f88a6da28410afabf1c2fe2d8623001", "026cafdefeaa9bdb90052cab49af7c9134745a5ddbc2525e1fa9858c200990ffd4"], "sequence": 4294967293, "scriptSig": {"hex": "160014ab76447e4094ce437b26b22996ef3b155e6f29f0", "asm": "0014ab76447e4094ce437b26b22996ef3b155e6f29f0"}, "vout": 0, "txid": "d932ba7b10e538fd1d3cfdb2a223f6e4a2c7d59d3145f35e0ae17052c035143d"}, {"txinwitness": ["3045022100ce638770856c6bb8788d9c71ac29a661849aceb300b18994f60284253a21f4c50220361877a3152646f59d365eece713f05f445f6612aacf6ca6576311b7f872f9ba01", "03a8684e9c14a168defd9d1746ac668c708b8499351981727cde1efdf5947b473c"], "sequence": 4294967293, "scriptSig": {"hex": "160014eee4aadf100abdd9cb19172358dfdcc40644a7b4", "asm": "0014eee4aadf100abdd9cb19172358dfdcc40644a7b4"}, "vout": 1, "txid": "b0f5150fc5e8626233fd0ab9a9ba277a13154360312e2ed57ae62e39afec6f3f"}], "txid": "87496c6463c256979e76a94a6ad8784518a948afb832e05f9291cb7df5c67e50", "blocktime": 1537872475, "version": 2, "confirmations": 11486, "time": 1537872475, "locktime": 542907, "vsize": 259, "size": 421}