{"hash": "53f7fe9049776dbc619bca55b4e1d728badd995673c9f81771336cc9eb2224d5", "blockhash": "0000000000000000000baef3f32e3676a92c3b2e5da21b426e4f302fc371ce76", "vout": [{"scriptPubKey": {"reqSigs": 1, "hex": "a914d87024c5c9ee1ad785ae4376648b3afbbd439ce487", "addresses": ["3MRSDrbyjrn6BHrib88TxhvXWHv4y7meo5"], "asm": "OP_HASH160 d87024c5c9ee1ad785ae4376648b3afbbd439ce4 OP_EQUAL", "type": "scripthash"}, "value": 0.00020909, "n": 0}, {"scriptPubKey": {"reqSigs": 1, "hex": "a91408c364340a91e77e4376b26fdad3b5aedc5661f787", "addresses": ["32VMQ7Th4qGhbDYY68FZrfSF9hTbsPivgt"], "asm": "OP_HASH160 08c364340a91e77e4376b26fdad3b5aedc5661f7 OP_EQUAL", "type": "scripthash"}, "value": 0.02083979, "n": 1}], "hex": "0100000000010109d4225c8a6431d09ff604d53c2280bb851ef3e904690957484fb4cd52d692ee010000002322002027561ef61439ff4994ea3793249bbb358319edb59fff63c1eeada48f299e81b5ffffffff02ad5100000000000017a914d87024c5c9ee1ad785ae4376648b3afbbd439ce4878bcc1f000000000017a91408c364340a91e77e4376b26fdad3b5aedc5661f7870400473044022037b080d71a856a580b3b48900322144d587acaf997262630a1f2dce40a02370d02201f0f0c7b73b873dd5aa49d3bede59effcbbbcf37fd46aad273b7a13db992897501483045022100e4e294cb2ec6dc7606d9671c70b84bdcbfe62293d7f429146f47180929213d6f022033db0e0cd87ee8c3b1ee6ebbbf4b6bff9f4fd252d5fae7a7b8c7de47b9e6ce300147522102f484437eae67e7d1f9cf7235bd52510c99f379408a1f6fe737011d4bc259358a2103871fc2ca08e6950b38867e8e6a0e94ee625223d3aa0df5c65f414c6d784467e252ae00000000", "vin": [{"txinwitness": ["", "3044022037b080d71a856a580b3b48900322144d587acaf997262630a1f2dce40a02370d02201f0f0c7b73b873dd5aa49d3bede59effcbbbcf37fd46aad273b7a13db992897501", "3045022100e4e294cb2ec6dc7606d9671c70b84bdcbfe62293d7f429146f47180929213d6f022033db0e0cd87ee8c3b1ee6ebbbf4b6bff9f4fd252d5fae7a7b8c7de47b9e6ce3001", "522102f484437eae67e7d1f9cf7235bd52510c99f379408a1f6fe737011d4bc259358a2103871fc2ca08e6950b38867e8e6a0e94ee625223d3aa0df5c65f414c6d784467e252ae"], "sequence": 4294967295, "scriptSig": {"hex": "22002027561ef61439ff4994ea3793249bbb358319edb59fff63c1eeada48f299e81b5", "asm": "002027561ef61439ff4994ea3793249bbb358319edb59fff63c1eeada48f299e81b5"}, "vout": 1, "txid": "ee92d652cdb44f4857096904e9f31e85bb80223cd504f69fd031648a5c22d409"}], "txid": "87591a47734adefef099207bca94c07b26ad1b9921e465158481cd353d165210", "blocktime": 1537876114, "version": 1, "confirmations": 11460, "time": 1537876114, "locktime": 0, "vsize": 206, "size": 371}