{"hash": "8759eac0971058c6c31f84f413f6636768d6be0391cdcc962734b2d20659d45d", "blockhash": "00000000000000000004ffacab907a6b429b9a5745fa0b75af4234bf69dd7176", "vout": [{"scriptPubKey": {"reqSigs": 1, "hex": "76a91475da8fad7235aafb96824c77a6707922a123296788ac", "addresses": ["1Bk9tM2odDaJncBUG4gChNg1S7giwwmWuU"], "asm": "OP_DUP OP_HASH160 75da8fad7235aafb96824c77a6707922a1232967 OP_EQUALVERIFY OP_CHECKSIG", "type": "pubkeyhash"}, "value": 0.04443929, "n": 0}, {"scriptPubKey": {"reqSigs": 1, "hex": "76a9149ecf9782dab9c87424bf1ee6130882ee386f760788ac", "addresses": ["1FUiT3W8zPQtYafMFrVRJY9VV9Dc6KGNha"], "asm": "OP_DUP OP_HASH160 9ecf9782dab9c87424bf1ee6130882ee386f7607 OP_EQUALVERIFY OP_CHECKSIG", "type": "pubkeyhash"}, "value": 0.001103, "n": 1}], "hex": "01000000011ec9efe8b94773a37b09d2d6c798e04b742c354fe4b0c96a55d7aaa5c5bf1e7c000000006a47304402205fed2040a827867d9f741c1e3243695442fbaad9e3da5d3b8c6ddd3b90224d7502204271f4b7b4bde5ff6b3a486c2a912b31fb17172ded25029d166be352ab92120e012103bbcae30aeb4205874abe61b2fbd74dc414f584552f9ea7964b5e89ffd3656d85ffffffff0219cf4300000000001976a91475da8fad7235aafb96824c77a6707922a123296788acdcae0100000000001976a9149ecf9782dab9c87424bf1ee6130882ee386f760788ac00000000", "vin": [{"sequence": 4294967295, "scriptSig": {"hex": "47304402205fed2040a827867d9f741c1e3243695442fbaad9e3da5d3b8c6ddd3b90224d7502204271f4b7b4bde5ff6b3a486c2a912b31fb17172ded25029d166be352ab92120e012103bbcae30aeb4205874abe61b2fbd74dc414f584552f9ea7964b5e89ffd3656d85", "asm": "304402205fed2040a827867d9f741c1e3243695442fbaad9e3da5d3b8c6ddd3b90224d7502204271f4b7b4bde5ff6b3a486c2a912b31fb17172ded25029d166be352ab92120e[ALL] 03bbcae30aeb4205874abe61b2fbd74dc414f584552f9ea7964b5e89ffd3656d85"}, "vout": 0, "txid": "7c1ebfc5a5aad7556ac9b0e44f352c744be098c7d6d2097ba37347b9e8efc91e"}], "txid": "8759eac0971058c6c31f84f413f6636768d6be0391cdcc962734b2d20659d45d", "blocktime": 1537875543, "version": 1, "confirmations": 11464, "time": 1537875543, "locktime": 0, "vsize": 225, "size": 225}