{"hash": "875cd8b80218aa1a6d87263e683e10c824c5349025d772f107ee069fffdfa191", "blockhash": "0000000000000000000dcc0f55137456b1a82d3642486a52398922ac4d620174", "vout": [{"scriptPubKey": {"type": "nulldata", "hex": "6a146f6d6e69000000000000001f00000002457997fa", "asm": "OP_RETURN 6f6d6e69000000000000001f00000002457997fa"}, "value": 0.0, "n": 0}, {"scriptPubKey": {"reqSigs": 1, "hex": "76a91488d924f51033b74a895863a5fb57fd545529df7d88ac", "addresses": ["1DUb2YYbQA1jjaNYzVXLZ7ZioEhLXtbUru"], "asm": "OP_DUP OP_HASH160 88d924f51033b74a895863a5fb57fd545529df7d OP_EQUALVERIFY OP_CHECKSIG", "type": "pubkeyhash"}, "value": 5.46e-06, "n": 1}, {"scriptPubKey": {"reqSigs": 1, "hex": "76a9142df93b3f5d63348b1f181fb79b89bc5adf1539f688ac", "addresses": ["15C5yY6SqFQb9uksHBipTWfzvzZfi3dPGa"], "asm": "OP_DUP OP_HASH160 2df93b3f5d63348b1f181fb79b89bc5adf1539f6 OP_EQUALVERIFY OP_CHECKSIG", "type": "pubkeyhash"}, "value": 0.00495943, "n": 2}], "hex": "0100000001bf96820897bf946a4ee1759665ae8713f812b2946e3d690a16fa56aa4d3ffd8d000000006b483045022100d8228167039c7a34a780b3ab95e86f65393a1476217c92c0acab762e8fc6b3cc0220791614cc6120ba3a8e0fbd31bdd8b992eee224ab5515a3a085164ed15fc4654b0121025be37a291f7a568218242bd1231dce40e29ebd945cf110e4ba51cf4c2507a886feffffff030000000000000000166a146f6d6e69000000000000001f00000002457997fa22020000000000001976a91488d924f51033b74a895863a5fb57fd545529df7d88ac47910700000000001976a9142df93b3f5d63348b1f181fb79b89bc5adf1539f688ac0c490800", "vin": [{"sequence": 4294967294, "scriptSig": {"hex": "483045022100d8228167039c7a34a780b3ab95e86f65393a1476217c92c0acab762e8fc6b3cc0220791614cc6120ba3a8e0fbd31bdd8b992eee224ab5515a3a085164ed15fc4654b0121025be37a291f7a568218242bd1231dce40e29ebd945cf110e4ba51cf4c2507a886", "asm": "3045022100d8228167039c7a34a780b3ab95e86f65393a1476217c92c0acab762e8fc6b3cc0220791614cc6120ba3a8e0fbd31bdd8b992eee224ab5515a3a085164ed15fc4654b[ALL] 025be37a291f7a568218242bd1231dce40e29ebd945cf110e4ba51cf4c2507a886"}, "vout": 0, "txid": "8dfd3f4daa56fa160a693d6e94b212f81387ae659675e14e6a94bf97088296bf"}], "txid": "875cd8b80218aa1a6d87263e683e10c824c5349025d772f107ee069fffdfa191", "blocktime": 1537870268, "version": 1, "confirmations": 11516, "time": 1537870268, "locktime": 542988, "vsize": 257, "size": 257}