{"hash": "048ad078453b638d16ec469cc2b6f4887273b3d4f059603b3faf4c0491fdf65c", "blockhash": "0000000000000000001e0dab787dd257d1dbfcb92a98c2207d5e1078be1f4165", "vout": [{"scriptPubKey": {"reqSigs": 1, "hex": "a91425aad4470d806f38bf6a009fc4c39135fdb858ab87", "addresses": ["358Ba4cFEDNZs8XHs4Kdqv15GejjxtXtkF"], "asm": "OP_HASH160 25aad4470d806f38bf6a009fc4c39135fdb858ab OP_EQUAL", "type": "scripthash"}, "value": 0.142025, "n": 0}], "hex": "020000000001032e2632b9313cfe63bf33424bcb25702a96bed3b8818a40e1c64751fe992c2004010000001716001440bcb92931b6712309dbecb0b1ece8ba2f09d209feffffffc1f6403f902c57a408afa0fc2cff985cfea73e501deae6db012ecdee277c0b110600000017160014c0695058d566bfa49ee46e59b43f2c09cad8b63afefffffff415fc7c6051b18b500e8b9aa68ffb426ff8afc5dd06e2e01e9f033bfa2d7a5301000000171600146549abe6cb63675ba04d0d68a0f130f16f673dd0feffffff0184b6d8000000000017a91425aad4470d806f38bf6a009fc4c39135fdb858ab870247304402205c532d545e9793db8d4ed7627124e2b8aea51331dd3c8163f716071bbc00e64a022043a006308a0be9be13aee0de2124b34ea857dda483614869ad13676318d5fe7601210316fbcc630266bf0425c474ee979848465ea13da815ffec2c432abeac2e1877b602483045022100ce65070700e3759ed805178a3be6cfd4a1dd7793cf230d82776f7c7cb1cc71ec02204b85b04be152bd8cf2f747160ccf1bbbb5acbce99ca819ae3a2445bb873e69a1012102f7eb4480b0ee0bf6bf22d8e5a62fd460eac2b8dd4b829e5bd080d326f6d843b7024730440220522be9d159673487d8ba9589636069f6d809c73500f37ba53195a610440fb7e902200fd140ab633fd57190284a0143305cf9ced1d5a6ef0f1d8696824501b8125bbc0121031022445c9ab830115e0b2f25c5ca47ebf8255058969fa89d833925d82d2df8f812490800", "vin": [{"txinwitness": ["304402205c532d545e9793db8d4ed7627124e2b8aea51331dd3c8163f716071bbc00e64a022043a006308a0be9be13aee0de2124b34ea857dda483614869ad13676318d5fe7601", "0316fbcc630266bf0425c474ee979848465ea13da815ffec2c432abeac2e1877b6"], "sequence": 4294967294, "scriptSig": {"hex": "16001440bcb92931b6712309dbecb0b1ece8ba2f09d209", "asm": "001440bcb92931b6712309dbecb0b1ece8ba2f09d209"}, "vout": 1, "txid": "04202c99fe5147c6e1408a81b8d3be962a7025cb4b4233bf63fe3c31b932262e"}, {"txinwitness": ["3045022100ce65070700e3759ed805178a3be6cfd4a1dd7793cf230d82776f7c7cb1cc71ec02204b85b04be152bd8cf2f747160ccf1bbbb5acbce99ca819ae3a2445bb873e69a101", "02f7eb4480b0ee0bf6bf22d8e5a62fd460eac2b8dd4b829e5bd080d326f6d843b7"], "sequence": 4294967294, "scriptSig": {"hex": "160014c0695058d566bfa49ee46e59b43f2c09cad8b63a", "asm": "0014c0695058d566bfa49ee46e59b43f2c09cad8b63a"}, "vout": 6, "txid": "110b7c27eecd2e01dbe6ea1d503ea7fe5c98ff2cfca0af08a4572c903f40f6c1"}, {"txinwitness": ["30440220522be9d159673487d8ba9589636069f6d809c73500f37ba53195a610440fb7e902200fd140ab633fd57190284a0143305cf9ced1d5a6ef0f1d8696824501b8125bbc01", "031022445c9ab830115e0b2f25c5ca47ebf8255058969fa89d833925d82d2df8f8"], "sequence": 4294967294, "scriptSig": {"hex": "1600146549abe6cb63675ba04d0d68a0f130f16f673dd0", "asm": "00146549abe6cb63675ba04d0d68a0f130f16f673dd0"}, "vout": 1, "txid": "537a2dfa3b039f1ee0e206ddc5aff86f42fb8fa69a8b0e508bb151607cfc15f4"}], "txid": "875dda8df6873f62ed0d0ca7e81e3806b58ff52845a1f4785345784227c5e4d0", "blocktime": 1537872475, "version": 2, "confirmations": 11486, "time": 1537872475, "locktime": 542994, "vsize": 315, "size": 558}