{"hash": "531fe56e0153ca8110160a603fa68820446970cf30ba68b77a196c88abcd5a7d", "blockhash": "0000000000000000000baef3f32e3676a92c3b2e5da21b426e4f302fc371ce76", "vout": [{"scriptPubKey": {"reqSigs": 1, "hex": "a914737643a26377346b5cead45a1203c118f01d819487", "addresses": ["3CDXJk9PFcEDGufEx2PouMkQcEVJZ8a2XM"], "asm": "OP_HASH160 737643a26377346b5cead45a1203c118f01d8194 OP_EQUAL", "type": "scripthash"}, "value": 0.27487, "n": 0}, {"scriptPubKey": {"reqSigs": 1, "hex": "76a914dbb803cc226998a644e0e812a37d6cb3bdf7638388ac", "addresses": ["1M2mRay7buGsUV7d6CxN6YRmvN4xLYPsP7"], "asm": "OP_DUP OP_HASH160 dbb803cc226998a644e0e812a37d6cb3bdf76383 OP_EQUALVERIFY OP_CHECKSIG", "type": "pubkeyhash"}, "value": 0.5005, "n": 1}, {"scriptPubKey": {"reqSigs": 1, "hex": "a914549227e286d183a8663eb09a835755dea6484d5787", "addresses": ["39QBmjuSPgfofGjAicJZskhGMoEUMKXCaz"], "asm": "OP_HASH160 549227e286d183a8663eb09a835755dea6484d57 OP_EQUAL", "type": "scripthash"}, "value": 1.6248, "n": 2}, {"scriptPubKey": {"reqSigs": 1, "hex": "76a914420f3ca5c2e280798dcd7115f6c220cf6a76ad1088ac", "addresses": ["172HrLh1X5qN3AQTeDLH8pRxPKdPVaoCXt"], "asm": "OP_DUP OP_HASH160 420f3ca5c2e280798dcd7115f6c220cf6a76ad10 OP_EQUALVERIFY OP_CHECKSIG", "type": "pubkeyhash"}, "value": 0.7, "n": 3}, {"scriptPubKey": {"reqSigs": 1, "hex": "76a9144a16359e1d6baf1430358573e0bb87697d2c6e0088ac", "addresses": ["17kjcLQpJU1aeEy8gfuAjrEt747NVc2ZvL"], "asm": "OP_DUP OP_HASH160 4a16359e1d6baf1430358573e0bb87697d2c6e00 OP_EQUALVERIFY OP_CHECKSIG", "type": "pubkeyhash"}, "value": 0.04547, "n": 4}, {"scriptPubKey": {"reqSigs": 1, "hex": "a914814b5039f2b1d324491bb89aef74bf47cdbb3c1287", "addresses": ["3DUfK9yXeLkjbHkTmcfW3QjLkbo7tS3tjG"], "asm": "OP_HASH160 814b5039f2b1d324491bb89aef74bf47cdbb3c12 OP_EQUAL", "type": "scripthash"}, "value": 6.19824, "n": 5}, {"scriptPubKey": {"reqSigs": 1, "hex": "a914a7c0ad807db8f60c340c1cac30f609a208b7bfa587", "addresses": ["3Gz1b4eL4BZoqFsWEW2FQoy1SZtXL2JBcs"], "asm": "OP_HASH160 a7c0ad807db8f60c340c1cac30f609a208b7bfa5 OP_EQUAL", "type": "scripthash"}, "value": 0.9995, "n": 6}, {"scriptPubKey": {"reqSigs": 1, "hex": "a9140540104bc6c845b180c27a85e94a7f7fa71d677387", "addresses": ["32An3iw3Px2NLUkvJSK49b8L3pkC5opyaE"], "asm": "OP_HASH160 0540104bc6c845b180c27a85e94a7f7fa71d6773 OP_EQUAL", "type": "scripthash"}, "value": 0.1695, "n": 7}, {"scriptPubKey": {"reqSigs": 1, "hex": "a91469f376e1719249a6e8c733628f1f8e37cc6e9b9c87", "addresses": ["3BMEXtRfDygHaw7mPKBhNxAfkR2gZDiEZw"], "asm": "OP_HASH160 69f376e1719249a6e8c733628f1f8e37cc6e9b9c OP_EQUAL", "type": "scripthash"}, "value": 0.00622, "n": 8}, {"scriptPubKey": {"reqSigs": 1, "hex": "76a914c6b3e37efaf7ea7c80cdc60ba126197d0d3bd35f88ac", "addresses": ["1K7eHsC9pWHncWNLfHyFokueidHAN6GiKU"], "asm": "OP_DUP OP_HASH160 c6b3e37efaf7ea7c80cdc60ba126197d0d3bd35f OP_EQUALVERIFY OP_CHECKSIG", "type": "pubkeyhash"}, "value": 0.5005, "n": 9}, {"scriptPubKey": {"reqSigs": 1, "hex": "76a914c9312c04171b49ec84fc5c499f48c06fec61e50688ac", "addresses": ["1KLoj5sebq2kMsQe4wW7MnxkKyuxLkCAns"], "asm": "OP_DUP OP_HASH160 c9312c04171b49ec84fc5c499f48c06fec61e506 OP_EQUALVERIFY OP_CHECKSIG", "type": "pubkeyhash"}, "value": 1.33926812, "n": 10}, {"scriptPubKey": {"reqSigs": 1, "hex": "76a914c6c624aad18e4b77189ee2c3df82860c2388691788ac", "addresses": ["1K82ADVx7cEa2PRyLyrtPjnG1sjPy8AKvi"], "asm": "OP_DUP OP_HASH160 c6c624aad18e4b77189ee2c3df82860c23886917 OP_EQUALVERIFY OP_CHECKSIG", "type": "pubkeyhash"}, "value": 0.9995, "n": 11}, {"scriptPubKey": {"reqSigs": 1, "hex": "a914b078bf88960c2f6a8fe0dfa631f68600fa1e180187", "addresses": ["3Hn7W34fdkrXwKBeD3AfaGFAXMMudKBAQS"], "asm": "OP_HASH160 b078bf88960c2f6a8fe0dfa631f68600fa1e1801 OP_EQUAL", "type": "scripthash"}, "value": 0.0115, "n": 12}, {"scriptPubKey": {"reqSigs": 1, "hex": "a914f4935a32e2f01668f2d5175bdb7335dc5c0c2f5e87", "addresses": ["3PzDKa2znRYV3U58SihTUB2Zivb3V1fPvu"], "asm": "OP_HASH160 f4935a32e2f01668f2d5175bdb7335dc5c0c2f5e OP_EQUAL", "type": "scripthash"}, "value": 0.47744627, "n": 13}, {"scriptPubKey": {"reqSigs": 1, "hex": "a914ec61daf39cf634ca8546d7dd5ccaa6c736e42b0c87", "addresses": ["3PEtcvJLxZ5QWGQVmgcZrWWUc19C6hKPvd"], "asm": "OP_HASH160 ec61daf39cf634ca8546d7dd5ccaa6c736e42b0c OP_EQUAL", "type": "scripthash"}, "value": 3.43554105, "n": 14}], "hex": "0100000000010ac3630e75539e3b3c0e259703fe62250666d86edc6a7e3c9e7711c4581cee6d550a000000232200201832e683aaec0cd30f7b9912cd9658ecef8222a6361783bdd77a1d7d3541305bffffffffe216e3420803bece5c90a4d737348b988419ecc93cdc09157121978b2bd4fe4d0d000000232200209632c299de531d39d423b01a525e9de502c80ca39b97f7765646117b618f4ab0ffffffff5ac7301c3f18b306936ba01c9ee2ea28e3ab7eeda0c02f781873a11203403aab0d00000023220020453be93d4e627699d23d545b51afc211c74091c7d929a06cd3fb3ea4c65054b0ffffffff05408c81388191ae22e9237c0a1689c6ecda1c6f8a0868e4d5e5f2e8b35e9e780200000023220020444b4e515d9541893035c5ac9810c321004d47d811742ebdf777615e8b56f007ffffffff1ffb7cb1559e70d321936f32b11d58edf0d631511f8cf0291abe1890f62d928e0000000023220020e544f19734416ecdcd7b1518ce1819e9ea3b862e1f502321a030761f0dd78ce8ffffffffd8464fd0be342f9693093cf6c947cfe1b8f7b9dfea8a173264e9b9a39b4b6b2601000000232200201178e0466fd10e8b6f72d1f9cb7f994b6d4f7e55e27bf8f6147477f19c85af74ffffffffdacdab1efb41a8a63362962624f43e8ae3a8b85e97dede27026283f5bce90dc00000000023220020444b4e515d9541893035c5ac9810c321004d47d811742ebdf777615e8b56f007ffffffff21eb1d82f74f6130c8b7058a5506d883ae264d45bc8591278c9e9fceade3353b0000000023220020fc23bbd89c60639f350d801841e9c493e051ec531f5901172bf6206c85411575ffffffff89395704454974a90b3e1ab630887d47ef407de701ab7608847892e03da9d4980000000023220020d5e3b4d57d3b1cc02f514d8a01ae7a37b00e47e2daf78e051c6b73c42958493dffffffff58d87767ec463d746fb0a37fcb0d7ee90f1ae5d5c46faba5eff4afffaa0c8c7b0000000023220020c5c75eadd2007282585fbac6a6173098e8076e5f99d27afd023b924f9eadbabcffffffff0f186ba3010000000017a914737643a26377346b5cead45a1203c118f01d819487d0b3fb02000000001976a914dbb803cc226998a644e0e812a37d6cb3bdf7638388ac803faf090000000017a914549227e286d183a8663eb09a835755dea6484d5787801d2c04000000001976a914420f3ca5c2e280798dcd7115f6c220cf6a76ad1088acb8614500000000001976a9144a16359e1d6baf1430358573e0bb87697d2c6e0088ac80c3f1240000000017a914814b5039f2b1d324491bb89aef74bf47cdbb3c1287b01df5050000000017a914a7c0ad807db8f60c340c1cac30f609a208b7bfa587f0a202010000000017a9140540104bc6c845b180c27a85e94a7f7fa71d677387b07d09000000000017a91469f376e1719249a6e8c733628f1f8e37cc6e9b9c87d0b3fb02000000001976a914c6b3e37efaf7ea7c80cdc60ba126197d0d3bd35f88ac9c8ffb07000000001976a914c9312c04171b49ec84fc5c499f48c06fec61e50688acb01df505000000001976a914c6c624aad18e4b77189ee2c3df82860c2388691788ac308c11000000000017a914b078bf88960c2f6a8fe0dfa631f68600fa1e1801877386d8020000000017a914f4935a32e2f01668f2d5175bdb7335dc5c0c2f5e8739387a140000000017a914ec61daf39cf634ca8546d7dd5ccaa6c736e42b0c8704004830450221009682b4a08c6f1ae8188109808af046ce4cb6af014ce5a8d9cfe9007ebaf01edc02201c7ef7ebdeab0c45a97cc0a2e32be345b13dfd660a3bc80df4539dcfb179485b01483045022100cdf08f5a2c3d6abce5835382ba5eaf432fecef02ec968521aefa83bc34ee135402207fd082bbe625049c439853fba53ff9e30d734c88cb2ede1e62dffb782e3ae7fc01695221031bf1d215609ac345db6340e827c7dbce318e8e0b7270cbc93c88c43e680262b72103d7c450fbe2e32484e1abc06c5ea3ecdfcf822f80f9adff8f09503717dab1e3e12103c35258bfdf1311b2194c805c9e6c06aeffe05a4b643960129fdaaa03a41baa9e53ae0400483045022100874b3c4f9015c35c3b9f30a9699d4f508ec3c8fb39035bb547b13ecfbf267c9d0220509da3ec6511b384ecb7754f69412eee008c06d29cbc936c3ef56e1c16e0041701473044022073d90f4a10e901000104c282cddc5967e1b6297e028cc0898dd689af6245cb7802206c1452d6b8c4438f32cfed60648563cf6ef3c91c8ed401ab68578b004073fc4a016952210364047fddb4b10edfc100bd745172923e83bc0f9d9238e94609b9745a5fb2168a2103acec8ec3bac25067ea0291cbff2f2202e2e01643998378b001111ae5e1ff0cac210324ec4301a0f8c5409c0f4cc68ef01fa94548ea9cf38da4d956a95b3c8a6234cc53ae0400473044022002c4c1e2ebfab255e92c57efaf66ae11e058ad5bd31f36bc695f060c55ab574f0220785c5b8c5a889b6f5aef3752a0f06cd2976fde7c97fff8cc8c4eb11e107c276001483045022100c32764a1c30eaf1afc7892498c8fd25c85a46a0072fe0eeb04aa0e2238a6e2c902207714c40e36c3cd0a17883101bc581ee6e0a4ef5d3483a58dd31434ab6f5968cd0169522102f28ec962f7fc5c3a6bacfdf84ea978a1a7403c83b7efea4a09cac75be8feab3921022cb549c3237b16c887cce8307516d4537d849322b42ed10f8b95303117cab7f22103378072dec43d1feff67b42dbb2b23185126fb1628b1749dffb56c9b53515410a53ae04004830450221009a254531cf773bb77f155faf361c6f7debb07ae84c3237ea1e11a5ea886c6acf022046124c4e7e917970b03d3bcf1e1cfe60a2cc80320b48256d2fd583418b484578014830450221009cc65766cc0b6969de52a124dd0b7ffe03563dc9852f65caf04405aff249ffd7022079067c7a11d6ee60078c5c1bfaf99fea249436f1dbe0e24095db361a9ea400170169522102f961c47b2d60810d981c78214f9a40f5904a634c124ee1d918e8b6226b2774922103bd2197110c769768ec0a580c7e28353fe7e5927fd5ecd09c39463d4aebbd7ae5210242cde7c603b50241940accdd44c4dd1760dc541d2fc338ab20e73e9116b5858a53ae04004830450221008988b7424d2cbabbdb7108734ec830d0fe5c5c47a3327deb218ec2706f5b844802205c11dcb3ef25091ee48ea3ecb3de7bc20c67aa4f98f591675118154be13e136301483045022100def45fc41888834021d701776aea866a31bd83a04c988f0147a91e2dad93e469022029f9686c41023480d057d9078054eef339a41a81626b7e9912b238b256f0b5480169522103e0ee909556c8cea91c13201e097332965a907a04c48c4768d305643ce855f9112103f620c3d173c5fc67c9c1ddc03c1866fa5b86e74dbbba9c49dccdfcdb5ef44532210211ac1c9548dc7a6b94a9a217a1dda845bacdbdaa8f7979e89fd827020fcf66bf53ae04004730440220125dafa7757747274a571dcd31ac7f943d03a8bd422796b1a9c7e1451b7d069502200527d5042c1dc0f7a7ac02cf1cb2f86f7908e427b1ac8a25ef6b6e0c4c09a1880147304402205c7a4b7cd545e25ac797474b3969b1608bbf6ceca21a5de4383cfbb5df4d2a5b022046734fd3512662e307cdd86b72e79b8df6db4a9e991edcdcc9ab6f6361bc634401695221038192535e185996b35124db626abe26cadc1f9ad124f25857f1297135e32e6861210288da3107ef17cc5673caae6961ef0d3c82b76b00bd7798713700d0df367c5e902102a706e595c3cba1b2bb59292501c3774e140c164b7224afbb909597545e27542753ae0400483045022100df9fe0cb8671e87801d6849a4c2a12763d26f80e269f6c9ea7e57f7140d47f200220776a6ac12afe2540c25cf8dc6ec44fff9f0e941d1fb00b4923c38d17a5493dc60147304402204c290798bbfbeda74d3c2dfee56642ba219d04591e3b24ed937a576f90c0b5fd02201a3f3b9b3b85595e3eb9c70d6a20159f7d1464328b26050b3ae6b3a05861d2a20169522102f961c47b2d60810d981c78214f9a40f5904a634c124ee1d918e8b6226b2774922103bd2197110c769768ec0a580c7e28353fe7e5927fd5ecd09c39463d4aebbd7ae5210242cde7c603b50241940accdd44c4dd1760dc541d2fc338ab20e73e9116b5858a53ae0400473044022030e862784502299e318d2eaca989584f69a55ab12551eefc41d0d2cb76292a4f0220145e986bf0076d6e30264b5032c4ecffe72db326f8d9a7a85f95917871a8a3e4014830450221008d23be1a5611185bcffdef3ba7baae3d31fbc5a7bc72e7b5b65ba248b9b0b9cf02201a80e1ef685279266832551e44cfd7aa94cf64540cc2b40425e3b4ebfc0eb93d0169522102b458fe285f8c967801cf7372e075dd51d7291584ad1dc713b7390146605a455a2103e3fa5165da386e53d30664b1440b78517243f5067e91513ed24b93e2f983756c2102dbac7ebb3c4edbfa7610c82be64ba0fcf362166770c07a739a01ea1e7e4f90a653ae0400483045022100db7e9b9fc7fafc9fa95975571aa93600267bf960f92df023e1fff30d9d82f114022056c9d04742aba0c4f2fd160b51175b05daf41c69110b079d1c6ae79b3c555d5301483045022100bd7f2a937d1f15f9eb5e41e8af87dbc2e5f3d1175d32a019142e594d27cd2d8e02203b49f416c5befcfa1858d455c62eccbb49d0f237715fd8dcc465714ea0f5ade30169522103181a30f1ff12d07cd362f3ec23766c59f668c76668440b5290aa2de3541b9dab210317b8bfdcbb2b69dc554139056f68ccf74d875ca0be182cf6c3280b7198ac0b1d210217a1b8a3bcb03f434b0ef511f786f41596898865f4bdbfd2c2c694621af6b0e353ae0400483045022100b10c2cad07cda3bd6780c04c561175c2baeb54030fbc38d5887981052313bf3502206d42d27f830d5e05bdb6661ba3cf7c2e620a7c16beaaeec0e141c6067baff1c901483045022100ca728e1be139a67ff968a43e087c203656423345c5c000e5604e76f231dcf141022077fe80af0d1c57f1f8ea636ad7ab623dcd712211733303911374b9b6fbf5f26c0169522102376f263460fb2dd869492ed7589c426f83ec7d5b69a8f9efde437aacba32f6b52103c0105a2be9c2997bbeff0a94bf7e0e96bf1a743a3e5184d2713dfd4a5faafc862102aae0df4e713e3c4611ed056da488922c8571f5a3fa04ffd4d361afc84991417653ae00000000", "vin": [{"txinwitness": ["", "30450221009682b4a08c6f1ae8188109808af046ce4cb6af014ce5a8d9cfe9007ebaf01edc02201c7ef7ebdeab0c45a97cc0a2e32be345b13dfd660a3bc80df4539dcfb179485b01", "3045022100cdf08f5a2c3d6abce5835382ba5eaf432fecef02ec968521aefa83bc34ee135402207fd082bbe625049c439853fba53ff9e30d734c88cb2ede1e62dffb782e3ae7fc01", "5221031bf1d215609ac345db6340e827c7dbce318e8e0b7270cbc93c88c43e680262b72103d7c450fbe2e32484e1abc06c5ea3ecdfcf822f80f9adff8f09503717dab1e3e12103c35258bfdf1311b2194c805c9e6c06aeffe05a4b643960129fdaaa03a41baa9e53ae"], "sequence": 4294967295, "scriptSig": {"hex": "2200201832e683aaec0cd30f7b9912cd9658ecef8222a6361783bdd77a1d7d3541305b", "asm": "00201832e683aaec0cd30f7b9912cd9658ecef8222a6361783bdd77a1d7d3541305b"}, "vout": 10, "txid": "556dee1c58c411779e3c7e6adc6ed866062562fe0397250e3c3b9e53750e63c3"}, {"txinwitness": ["", "3045022100874b3c4f9015c35c3b9f30a9699d4f508ec3c8fb39035bb547b13ecfbf267c9d0220509da3ec6511b384ecb7754f69412eee008c06d29cbc936c3ef56e1c16e0041701", "3044022073d90f4a10e901000104c282cddc5967e1b6297e028cc0898dd689af6245cb7802206c1452d6b8c4438f32cfed60648563cf6ef3c91c8ed401ab68578b004073fc4a01", "52210364047fddb4b10edfc100bd745172923e83bc0f9d9238e94609b9745a5fb2168a2103acec8ec3bac25067ea0291cbff2f2202e2e01643998378b001111ae5e1ff0cac210324ec4301a0f8c5409c0f4cc68ef01fa94548ea9cf38da4d956a95b3c8a6234cc53ae"], "sequence": 4294967295, "scriptSig": {"hex": "2200209632c299de531d39d423b01a525e9de502c80ca39b97f7765646117b618f4ab0", "asm": "00209632c299de531d39d423b01a525e9de502c80ca39b97f7765646117b618f4ab0"}, "vout": 13, "txid": "4dfed42b8b9721711509dc3cc9ec1984988b3437d7a4905ccebe030842e316e2"}, {"txinwitness": ["", "3044022002c4c1e2ebfab255e92c57efaf66ae11e058ad5bd31f36bc695f060c55ab574f0220785c5b8c5a889b6f5aef3752a0f06cd2976fde7c97fff8cc8c4eb11e107c276001", "3045022100c32764a1c30eaf1afc7892498c8fd25c85a46a0072fe0eeb04aa0e2238a6e2c902207714c40e36c3cd0a17883101bc581ee6e0a4ef5d3483a58dd31434ab6f5968cd01", "522102f28ec962f7fc5c3a6bacfdf84ea978a1a7403c83b7efea4a09cac75be8feab3921022cb549c3237b16c887cce8307516d4537d849322b42ed10f8b95303117cab7f22103378072dec43d1feff67b42dbb2b23185126fb1628b1749dffb56c9b53515410a53ae"], "sequence": 4294967295, "scriptSig": {"hex": "220020453be93d4e627699d23d545b51afc211c74091c7d929a06cd3fb3ea4c65054b0", "asm": "0020453be93d4e627699d23d545b51afc211c74091c7d929a06cd3fb3ea4c65054b0"}, "vout": 13, "txid": "ab3a400312a17318782fc0a0ed7eabe328eae29e1ca06b9306b3183f1c30c75a"}, {"txinwitness": ["", "30450221009a254531cf773bb77f155faf361c6f7debb07ae84c3237ea1e11a5ea886c6acf022046124c4e7e917970b03d3bcf1e1cfe60a2cc80320b48256d2fd583418b48457801", "30450221009cc65766cc0b6969de52a124dd0b7ffe03563dc9852f65caf04405aff249ffd7022079067c7a11d6ee60078c5c1bfaf99fea249436f1dbe0e24095db361a9ea4001701", "522102f961c47b2d60810d981c78214f9a40f5904a634c124ee1d918e8b6226b2774922103bd2197110c769768ec0a580c7e28353fe7e5927fd5ecd09c39463d4aebbd7ae5210242cde7c603b50241940accdd44c4dd1760dc541d2fc338ab20e73e9116b5858a53ae"], "sequence": 4294967295, "scriptSig": {"hex": "220020444b4e515d9541893035c5ac9810c321004d47d811742ebdf777615e8b56f007", "asm": "0020444b4e515d9541893035c5ac9810c321004d47d811742ebdf777615e8b56f007"}, "vout": 2, "txid": "789e5eb3e8f2e5d5e468088a6f1cdaecc689160a7c23e922ae918138818c4005"}, {"txinwitness": ["", "30450221008988b7424d2cbabbdb7108734ec830d0fe5c5c47a3327deb218ec2706f5b844802205c11dcb3ef25091ee48ea3ecb3de7bc20c67aa4f98f591675118154be13e136301", "3045022100def45fc41888834021d701776aea866a31bd83a04c988f0147a91e2dad93e469022029f9686c41023480d057d9078054eef339a41a81626b7e9912b238b256f0b54801", "522103e0ee909556c8cea91c13201e097332965a907a04c48c4768d305643ce855f9112103f620c3d173c5fc67c9c1ddc03c1866fa5b86e74dbbba9c49dccdfcdb5ef44532210211ac1c9548dc7a6b94a9a217a1dda845bacdbdaa8f7979e89fd827020fcf66bf53ae"], "sequence": 4294967295, "scriptSig": {"hex": "220020e544f19734416ecdcd7b1518ce1819e9ea3b862e1f502321a030761f0dd78ce8", "asm": "0020e544f19734416ecdcd7b1518ce1819e9ea3b862e1f502321a030761f0dd78ce8"}, "vout": 0, "txid": "8e922df69018be1a29f08c1f5131d6f0ed581db1326f9321d3709e55b17cfb1f"}, {"txinwitness": ["", "30440220125dafa7757747274a571dcd31ac7f943d03a8bd422796b1a9c7e1451b7d069502200527d5042c1dc0f7a7ac02cf1cb2f86f7908e427b1ac8a25ef6b6e0c4c09a18801", "304402205c7a4b7cd545e25ac797474b3969b1608bbf6ceca21a5de4383cfbb5df4d2a5b022046734fd3512662e307cdd86b72e79b8df6db4a9e991edcdcc9ab6f6361bc634401", "5221038192535e185996b35124db626abe26cadc1f9ad124f25857f1297135e32e6861210288da3107ef17cc5673caae6961ef0d3c82b76b00bd7798713700d0df367c5e902102a706e595c3cba1b2bb59292501c3774e140c164b7224afbb909597545e27542753ae"], "sequence": 4294967295, "scriptSig": {"hex": "2200201178e0466fd10e8b6f72d1f9cb7f994b6d4f7e55e27bf8f6147477f19c85af74", "asm": "00201178e0466fd10e8b6f72d1f9cb7f994b6d4f7e55e27bf8f6147477f19c85af74"}, "vout": 1, "txid": "266b4b9ba3b9e96432178aeadfb9f7b8e1cf47c9f63c0993962f34bed04f46d8"}, {"txinwitness": ["", "3045022100df9fe0cb8671e87801d6849a4c2a12763d26f80e269f6c9ea7e57f7140d47f200220776a6ac12afe2540c25cf8dc6ec44fff9f0e941d1fb00b4923c38d17a5493dc601", "304402204c290798bbfbeda74d3c2dfee56642ba219d04591e3b24ed937a576f90c0b5fd02201a3f3b9b3b85595e3eb9c70d6a20159f7d1464328b26050b3ae6b3a05861d2a201", "522102f961c47b2d60810d981c78214f9a40f5904a634c124ee1d918e8b6226b2774922103bd2197110c769768ec0a580c7e28353fe7e5927fd5ecd09c39463d4aebbd7ae5210242cde7c603b50241940accdd44c4dd1760dc541d2fc338ab20e73e9116b5858a53ae"], "sequence": 4294967295, "scriptSig": {"hex": "220020444b4e515d9541893035c5ac9810c321004d47d811742ebdf777615e8b56f007", "asm": "0020444b4e515d9541893035c5ac9810c321004d47d811742ebdf777615e8b56f007"}, "vout": 0, "txid": "c00de9bcf583620227dede975eb8a8e38a3ef42426966233a6a841fb1eabcdda"}, {"txinwitness": ["", "3044022030e862784502299e318d2eaca989584f69a55ab12551eefc41d0d2cb76292a4f0220145e986bf0076d6e30264b5032c4ecffe72db326f8d9a7a85f95917871a8a3e401", "30450221008d23be1a5611185bcffdef3ba7baae3d31fbc5a7bc72e7b5b65ba248b9b0b9cf02201a80e1ef685279266832551e44cfd7aa94cf64540cc2b40425e3b4ebfc0eb93d01", "522102b458fe285f8c967801cf7372e075dd51d7291584ad1dc713b7390146605a455a2103e3fa5165da386e53d30664b1440b78517243f5067e91513ed24b93e2f983756c2102dbac7ebb3c4edbfa7610c82be64ba0fcf362166770c07a739a01ea1e7e4f90a653ae"], "sequence": 4294967295, "scriptSig": {"hex": "220020fc23bbd89c60639f350d801841e9c493e051ec531f5901172bf6206c85411575", "asm": "0020fc23bbd89c60639f350d801841e9c493e051ec531f5901172bf6206c85411575"}, "vout": 0, "txid": "3b35e3adce9f9e8c279185bc454d26ae83d806558a05b7c830614ff7821deb21"}, {"txinwitness": ["", "3045022100db7e9b9fc7fafc9fa95975571aa93600267bf960f92df023e1fff30d9d82f114022056c9d04742aba0c4f2fd160b51175b05daf41c69110b079d1c6ae79b3c555d5301", "3045022100bd7f2a937d1f15f9eb5e41e8af87dbc2e5f3d1175d32a019142e594d27cd2d8e02203b49f416c5befcfa1858d455c62eccbb49d0f237715fd8dcc465714ea0f5ade301", "522103181a30f1ff12d07cd362f3ec23766c59f668c76668440b5290aa2de3541b9dab210317b8bfdcbb2b69dc554139056f68ccf74d875ca0be182cf6c3280b7198ac0b1d210217a1b8a3bcb03f434b0ef511f786f41596898865f4bdbfd2c2c694621af6b0e353ae"], "sequence": 4294967295, "scriptSig": {"hex": "220020d5e3b4d57d3b1cc02f514d8a01ae7a37b00e47e2daf78e051c6b73c42958493d", "asm": "0020d5e3b4d57d3b1cc02f514d8a01ae7a37b00e47e2daf78e051c6b73c42958493d"}, "vout": 0, "txid": "98d4a93de09278840876ab01e77d40ef477d8830b61a3e0ba974494504573989"}, {"txinwitness": ["", "3045022100b10c2cad07cda3bd6780c04c561175c2baeb54030fbc38d5887981052313bf3502206d42d27f830d5e05bdb6661ba3cf7c2e620a7c16beaaeec0e141c6067baff1c901", "3045022100ca728e1be139a67ff968a43e087c203656423345c5c000e5604e76f231dcf141022077fe80af0d1c57f1f8ea636ad7ab623dcd712211733303911374b9b6fbf5f26c01", "522102376f263460fb2dd869492ed7589c426f83ec7d5b69a8f9efde437aacba32f6b52103c0105a2be9c2997bbeff0a94bf7e0e96bf1a743a3e5184d2713dfd4a5faafc862102aae0df4e713e3c4611ed056da488922c8571f5a3fa04ffd4d361afc84991417653ae"], "sequence": 4294967295, "scriptSig": {"hex": "220020c5c75eadd2007282585fbac6a6173098e8076e5f99d27afd023b924f9eadbabc", "asm": "0020c5c75eadd2007282585fbac6a6173098e8076e5f99d27afd023b924f9eadbabc"}, "vout": 0, "txid": "7b8c0caaffaff4efa5ab6fc4d5e51a0fe97e0dcb7fa3b06f743d46ec6777d858"}], "txid": "875f6f9bbb29b43b0e8879688db453b0d3614f5fcec030816a6e4676ab0fc420", "blocktime": 1537876114, "version": 1, "confirmations": 11459, "time": 1537876114, "locktime": 0, "vsize": 1896, "size": 3798}