{"hash": "875fc37e3e1318a43e7d46fba2e9367b24eebea27d6884a0f71e03102141698b", "blockhash": "000000000000000000022b45ed06c6f4ccd3cf7fb5ba4856ebd2e58215665228", "vout": [{"scriptPubKey": {"reqSigs": 1, "hex": "76a9148bea60839ea6ac5246d3f43ada3155db27cae02988ac", "addresses": ["1DkohTwSsAUfUnfsYgnLZ7oY1DTHSgLtvU"], "asm": "OP_DUP OP_HASH160 8bea60839ea6ac5246d3f43ada3155db27cae029 OP_EQUALVERIFY OP_CHECKSIG", "type": "pubkeyhash"}, "value": 0.03, "n": 0}, {"scriptPubKey": {"reqSigs": 1, "hex": "76a9148ffe2019483b025465fe97d4e97f220494e2006588ac", "addresses": ["1E8N4Ne7Qnp5HobgvEe7Gj8RGtuuepWKW8"], "asm": "OP_DUP OP_HASH160 8ffe2019483b025465fe97d4e97f220494e20065 OP_EQUALVERIFY OP_CHECKSIG", "type": "pubkeyhash"}, "value": 0.09113191, "n": 1}], "hex": "010000000134a710603bdc61ae246f094ad7b36d7f8c9ab8865451fb2ad37274cab8df0376010000008b483045022100a968c5e686d89589945a436e61dc8557f7fbbf2b716887cbedbb34c89ed8e7b602205ba9135d2ef43d1f9ebaa23adc9f6f81b03c37c96b028bb67f9a2ad663bb596e014104ec3cb23bd15cdf4dae7b6b569fbf7298f6899fbf10b79dde8de54fd80c15189eab2009f20ac6d7b513ea0b4c54c7ae095ad3869e91d06a950ac78aa2e7c6628effffffff02c0c62d00000000001976a9148bea60839ea6ac5246d3f43ada3155db27cae02988ac670e8b00000000001976a9148ffe2019483b025465fe97d4e97f220494e2006588ac00000000", "vin": [{"sequence": 4294967295, "scriptSig": {"hex": "483045022100a968c5e686d89589945a436e61dc8557f7fbbf2b716887cbedbb34c89ed8e7b602205ba9135d2ef43d1f9ebaa23adc9f6f81b03c37c96b028bb67f9a2ad663bb596e014104ec3cb23bd15cdf4dae7b6b569fbf7298f6899fbf10b79dde8de54fd80c15189eab2009f20ac6d7b513ea0b4c54c7ae095ad3869e91d06a950ac78aa2e7c6628e", "asm": "3045022100a968c5e686d89589945a436e61dc8557f7fbbf2b716887cbedbb34c89ed8e7b602205ba9135d2ef43d1f9ebaa23adc9f6f81b03c37c96b028bb67f9a2ad663bb596e[ALL] 04ec3cb23bd15cdf4dae7b6b569fbf7298f6899fbf10b79dde8de54fd80c15189eab2009f20ac6d7b513ea0b4c54c7ae095ad3869e91d06a950ac78aa2e7c6628e"}, "vout": 1, "txid": "7603dfb8ca7472d32afb515486b89a8c7f6db3d74a096f24ae61dc3b6010a734"}], "txid": "875fc37e3e1318a43e7d46fba2e9367b24eebea27d6884a0f71e03102141698b", "blocktime": 1537869901, "version": 1, "confirmations": 11522, "time": 1537869901, "locktime": 0, "vsize": 258, "size": 258}