{"hash": "875fa192dac6859e72406fcc29b7d67b60f2621c4121fbf9f561ebf1dbed2ea4", "blockhash": "0000000000000000000e13cef7c366c0283d82e591d1acd082e914b08063cdf1", "vout": [{"scriptPubKey": {"reqSigs": 1, "hex": "76a9140612a2925aab39c6aaa539b08d4b8503c4a35e6a88ac", "addresses": ["1Z7NwKupuGfDxrvc8W9vubCTrJaUWSED5"], "asm": "OP_DUP OP_HASH160 0612a2925aab39c6aaa539b08d4b8503c4a35e6a OP_EQUALVERIFY OP_CHECKSIG", "type": "pubkeyhash"}, "value": 0.0007786, "n": 0}, {"scriptPubKey": {"type": "nulldata", "hex": "6a4c500000779a0001a3eae3b0becebaeb43a6d0dee3ef3236678a625097bcbefa6b8351586b4e3c83708725b77c440fb8e241072320e55baa0d600615410116d382ffbc9a9526289ac0f6612cd74e33776ee4", "asm": "OP_RETURN 0000779a0001a3eae3b0becebaeb43a6d0dee3ef3236678a625097bcbefa6b8351586b4e3c83708725b77c440fb8e241072320e55baa0d600615410116d382ffbc9a9526289ac0f6612cd74e33776ee4"}, "value": 0.0, "n": 1}], "hex": "01000000017c33c7ba434362acabd53ed076367a700d31d17bfe88b2387d9815818adeb254000000006a47304402205d6736b55a9520b8a2be722b0c7a4772b593b4858c31d36da4a24b9e5b22619702203a4dfbd8c9af2f5ee7a6f1fe7de1199356b78b14b2ce08115191a9d62deaf9c00121025ed01fe4237b7688312c27668234c160a8caddef3dfe5e91c3ef94e6142a3bddffffffff0224300100000000001976a9140612a2925aab39c6aaa539b08d4b8503c4a35e6a88ac0000000000000000536a4c500000779a0001a3eae3b0becebaeb43a6d0dee3ef3236678a625097bcbefa6b8351586b4e3c83708725b77c440fb8e241072320e55baa0d600615410116d382ffbc9a9526289ac0f6612cd74e33776ee400000000", "vin": [{"sequence": 4294967295, "scriptSig": {"hex": "47304402205d6736b55a9520b8a2be722b0c7a4772b593b4858c31d36da4a24b9e5b22619702203a4dfbd8c9af2f5ee7a6f1fe7de1199356b78b14b2ce08115191a9d62deaf9c00121025ed01fe4237b7688312c27668234c160a8caddef3dfe5e91c3ef94e6142a3bdd", "asm": "304402205d6736b55a9520b8a2be722b0c7a4772b593b4858c31d36da4a24b9e5b22619702203a4dfbd8c9af2f5ee7a6f1fe7de1199356b78b14b2ce08115191a9d62deaf9c0[ALL] 025ed01fe4237b7688312c27668234c160a8caddef3dfe5e91c3ef94e6142a3bdd"}, "vout": 0, "txid": "54b2de8a8115987d38b288fe7bd1310d707a3676d03ed5abac624343bac7337c"}], "txid": "875fa192dac6859e72406fcc29b7d67b60f2621c4121fbf9f561ebf1dbed2ea4", "blocktime": 1537871767, "version": 1, "confirmations": 11493, "time": 1537871767, "locktime": 0, "vsize": 283, "size": 283}