{"hash": "44f34dc8e4b9570ef336cf4185df6b68db1fa966724816e974a96fd1d361d000", "blockhash": "0000000000000000001f0ddff1eddb255c1121bcd4da4f1bc9a0da00cae72433", "vout": [{"scriptPubKey": {"reqSigs": 1, "hex": "a914efb2bea80c48b3723c5b94c8494e8a83a3773c8987", "addresses": ["3PYRYo2H3CQoM96QvFprYY88rUJvGTsTsw"], "asm": "OP_HASH160 efb2bea80c48b3723c5b94c8494e8a83a3773c89 OP_EQUAL", "type": "scripthash"}, "value": 0.02176288, "n": 0}, {"scriptPubKey": {"reqSigs": 1, "hex": "a91434ae19e56a0a0945cb009b73a8c3665937c2966387", "addresses": ["36VZdHA6c2GyUBsVP9xaW2jpV3KnR5hD5x"], "asm": "OP_HASH160 34ae19e56a0a0945cb009b73a8c3665937c29663 OP_EQUAL", "type": "scripthash"}, "value": 0.01007708, "n": 1}], "hex": "0200000000010419cb0cc85298809b9d4ef2c710dc96411e4b158038003609bca0d6163909a611130000006a473044022027e7e70be5e0bcf0b496c45c90835c13c56b7334cf5883fbe744dee6689f049d0220140bc26ae118f050ec6c3917b859be37f78a6961bfd7ea9b040971df6c3b3f2e01210344707738718d0caa96338346fc647a9a8232e5b37fcb6975fe68b44efffc975bfdffffff1eb06774660877e5976dbeddb0206799acf6f2724248dd6157e97bf79bfc07020100000017160014d1382eb5499140964ed2b0d3c2a45c9d35cdd72ffdffffff4537089653b1bd09105e8c6606446d3731a9988d4cd7fdaf728b80de771cd7a00100000017160014179907645fcfaedd63f98a92cf40a94f7ad1ee7afdfffffffc6adee86c6e55672479a4a34523f8da791ce4e67190eba951087876a56b562e01000000171600144cebc098beab3ddef180fba36dbd44f5da2805f8fdffffff02203521000000000017a914efb2bea80c48b3723c5b94c8494e8a83a3773c89875c600f000000000017a91434ae19e56a0a0945cb009b73a8c3665937c296638700024830450221008407ab98a63b0fd2b0b579a0da50b92ceeb82c1a810bc0300d3e9db71295260d0220442a9e432acd158773396776a618e243473ff73316bff53c5299b81d2f6affb6012102fe5ed4cc646a98bef1402852bffed53899b0b5040845f2ea194bf8ac990149ba02483045022100ffb310c597c28d48412ce59c38aba3ea0a82beb7eeac3b595809b08c0ef6439002205e8f2519d9945216257166bbc3d2f955c323c42568201ef4c4fbda4091ba6d9c012103736c119adb685d226d5d6450af2b8578eeb5f923bde1729776ddb3d36d496d9d02483045022100a6c53647c62416e98c4f4e0343ff95162c32f8624680c2c15256b789d5b6c42d022071c07179fba22aa38d025f3217678ee8244646c961669d8d1a445682db785386012103f0196ac3966be90238941386fd37fc13c07566cf9614054ccdf0d74d391cb5e210490800", "vin": [{"sequence": 4294967293, "scriptSig": {"hex": "473044022027e7e70be5e0bcf0b496c45c90835c13c56b7334cf5883fbe744dee6689f049d0220140bc26ae118f050ec6c3917b859be37f78a6961bfd7ea9b040971df6c3b3f2e01210344707738718d0caa96338346fc647a9a8232e5b37fcb6975fe68b44efffc975b", "asm": "3044022027e7e70be5e0bcf0b496c45c90835c13c56b7334cf5883fbe744dee6689f049d0220140bc26ae118f050ec6c3917b859be37f78a6961bfd7ea9b040971df6c3b3f2e[ALL] 0344707738718d0caa96338346fc647a9a8232e5b37fcb6975fe68b44efffc975b"}, "vout": 19, "txid": "11a6093916d6a0bc0936003880154b1e4196dc10c7f24e9d9b809852c80ccb19"}, {"txinwitness": ["30450221008407ab98a63b0fd2b0b579a0da50b92ceeb82c1a810bc0300d3e9db71295260d0220442a9e432acd158773396776a618e243473ff73316bff53c5299b81d2f6affb601", "02fe5ed4cc646a98bef1402852bffed53899b0b5040845f2ea194bf8ac990149ba"], "sequence": 4294967293, "scriptSig": {"hex": "160014d1382eb5499140964ed2b0d3c2a45c9d35cdd72f", "asm": "0014d1382eb5499140964ed2b0d3c2a45c9d35cdd72f"}, "vout": 1, "txid": "0207fc9bf77be95761dd484272f2f6ac996720b0ddbe6d97e57708667467b01e"}, {"txinwitness": ["3045022100ffb310c597c28d48412ce59c38aba3ea0a82beb7eeac3b595809b08c0ef6439002205e8f2519d9945216257166bbc3d2f955c323c42568201ef4c4fbda4091ba6d9c01", "03736c119adb685d226d5d6450af2b8578eeb5f923bde1729776ddb3d36d496d9d"], "sequence": 4294967293, "scriptSig": {"hex": "160014179907645fcfaedd63f98a92cf40a94f7ad1ee7a", "asm": "0014179907645fcfaedd63f98a92cf40a94f7ad1ee7a"}, "vout": 1, "txid": "a0d71c77de808b72affdd74c8d98a931376d4406668c5e1009bdb15396083745"}, {"txinwitness": ["3045022100a6c53647c62416e98c4f4e0343ff95162c32f8624680c2c15256b789d5b6c42d022071c07179fba22aa38d025f3217678ee8244646c961669d8d1a445682db78538601", "03f0196ac3966be90238941386fd37fc13c07566cf9614054ccdf0d74d391cb5e2"], "sequence": 4294967293, "scriptSig": {"hex": "1600144cebc098beab3ddef180fba36dbd44f5da2805f8", "asm": "00144cebc098beab3ddef180fba36dbd44f5da2805f8"}, "vout": 1, "txid": "2e566ba576780851a9eb9071e6e41c79daf82345a3a4792467556e6ce8de6afc"}], "txid": "87648042303af909c107f880bbce5ebe51b6d4311511a8761fbb7c0194dd074a", "blocktime": 1537872018, "version": 2, "confirmations": 11489, "time": 1537872018, "locktime": 542992, "vsize": 495, "size": 740}