{"hash": "877ad97d2513decb80cd784a14a8352dcfa6fb0ab3119ca22ddfb78dda9f70a7", "blockhash": "00000000000000000017f5eb5941039fbcee6240d03bc1f2f8e35350df66a1d8", "vout": [{"scriptPubKey": {"reqSigs": 1, "hex": "76a9140c597b21dd5236d56dc5fcaa7f4fcf8e985213cf88ac", "addresses": ["128JJYtdpVqcURFs5TAVAwNituwG1PX4Ny"], "asm": "OP_DUP OP_HASH160 0c597b21dd5236d56dc5fcaa7f4fcf8e985213cf OP_EQUALVERIFY OP_CHECKSIG", "type": "pubkeyhash"}, "value": 0.00014846, "n": 0}, {"scriptPubKey": {"reqSigs": 1, "hex": "76a9143c7381d4caa29b522be63ace8dfc6cde7d22b73a88ac", "addresses": ["16Wdv65SWxvDeiZCBUprPAFTrwt5WAqYJS"], "asm": "OP_DUP OP_HASH160 3c7381d4caa29b522be63ace8dfc6cde7d22b73a OP_EQUALVERIFY OP_CHECKSIG", "type": "pubkeyhash"}, "value": 0.02188223, "n": 1}], "hex": "0100000001da246c3bb04592978bd0d9c35308a27f134b3cea7a9e1dc5efa7716d094a0ec5040000006a473044022005451aea9fd1bcd0e8d313956dd864bf76bec42983c7a4652f32f003ff4ef6fc02204244efd5179908c040e5da7ad78fe61acd12e467d3862fcb491ce521d0d1bec2012102a99e1891dee8232912a397cea6bf2ab83010c93c18f4ec52ca4db41b8c99502cffffffff02fe390000000000001976a9140c597b21dd5236d56dc5fcaa7f4fcf8e985213cf88acbf632100000000001976a9143c7381d4caa29b522be63ace8dfc6cde7d22b73a88ac00000000", "vin": [{"sequence": 4294967295, "scriptSig": {"hex": "473044022005451aea9fd1bcd0e8d313956dd864bf76bec42983c7a4652f32f003ff4ef6fc02204244efd5179908c040e5da7ad78fe61acd12e467d3862fcb491ce521d0d1bec2012102a99e1891dee8232912a397cea6bf2ab83010c93c18f4ec52ca4db41b8c99502c", "asm": "3044022005451aea9fd1bcd0e8d313956dd864bf76bec42983c7a4652f32f003ff4ef6fc02204244efd5179908c040e5da7ad78fe61acd12e467d3862fcb491ce521d0d1bec2[ALL] 02a99e1891dee8232912a397cea6bf2ab83010c93c18f4ec52ca4db41b8c99502c"}, "vout": 4, "txid": "c50e4a096d71a7efc51d9e7aea3c4b137fa20853c3d9d08b979245b03b6c24da"}], "txid": "877ad97d2513decb80cd784a14a8352dcfa6fb0ab3119ca22ddfb78dda9f70a7", "blocktime": 1537874412, "version": 1, "confirmations": 11468, "time": 1537874412, "locktime": 0, "vsize": 225, "size": 225}