{"hash": "877b8f32b6075be1f7501be8ce5eeeae5414406b6fbc5c8af86620d98878b5f9", "blockhash": "0000000000000000000dcc0f55137456b1a82d3642486a52398922ac4d620174", "vout": [{"scriptPubKey": {"reqSigs": 1, "hex": "a9143e6f15908582f42917ec31e39bf8722fc9d5db3f87", "addresses": ["37P8thrtDXb6Di5E7f4FL3bpzum3fhUvT7"], "asm": "OP_HASH160 3e6f15908582f42917ec31e39bf8722fc9d5db3f OP_EQUAL", "type": "scripthash"}, "value": 0.0002, "n": 0}, {"scriptPubKey": {"reqSigs": 1, "hex": "76a91446a88565d95d01e8439329e6ba46819de4183d4188ac", "addresses": ["17ScBUkP1ygh4EEGiEd2zvjtpNPiUstDbX"], "asm": "OP_DUP OP_HASH160 46a88565d95d01e8439329e6ba46819de4183d41 OP_EQUALVERIFY OP_CHECKSIG", "type": "pubkeyhash"}, "value": 0.00469141, "n": 1}], "hex": "0100000001035a27cda51ce69933c0bd959097474c155710bb3574baa89a2ea5273629c77e010000006a47304402204d03c8b8c620d80c41dfdfe25807b5da4e01e12f0c8da6619e15337fed3c72ec022071a433affd02f0db907cd268aa0d9d0c6aa0ca634921c88d3401938bca328ec5012103293e5f340e4f998434b966f55fd3749a8d7dd75b7e704ce43126d8a29cd777b6ffffffff02204e00000000000017a9143e6f15908582f42917ec31e39bf8722fc9d5db3f8795280700000000001976a91446a88565d95d01e8439329e6ba46819de4183d4188ac00000000", "vin": [{"sequence": 4294967295, "scriptSig": {"hex": "47304402204d03c8b8c620d80c41dfdfe25807b5da4e01e12f0c8da6619e15337fed3c72ec022071a433affd02f0db907cd268aa0d9d0c6aa0ca634921c88d3401938bca328ec5012103293e5f340e4f998434b966f55fd3749a8d7dd75b7e704ce43126d8a29cd777b6", "asm": "304402204d03c8b8c620d80c41dfdfe25807b5da4e01e12f0c8da6619e15337fed3c72ec022071a433affd02f0db907cd268aa0d9d0c6aa0ca634921c88d3401938bca328ec5[ALL] 03293e5f340e4f998434b966f55fd3749a8d7dd75b7e704ce43126d8a29cd777b6"}, "vout": 1, "txid": "7ec7293627a52e9aa8ba7435bb1057154c47979095bdc03399e61ca5cd275a03"}], "txid": "877b8f32b6075be1f7501be8ce5eeeae5414406b6fbc5c8af86620d98878b5f9", "blocktime": 1537870268, "version": 1, "confirmations": 11516, "time": 1537870268, "locktime": 0, "vsize": 223, "size": 223}