{"hash": "df9c6c3155f0b697735297c8d0b5b22522463ca3a89d8ca99ddc0433c8d63c99", "blockhash": "0000000000000000000dcc0f55137456b1a82d3642486a52398922ac4d620174", "vout": [{"scriptPubKey": {"reqSigs": 1, "hex": "a91485505e9e21a32e9514105d01ab83633dae949eca87", "addresses": ["3Dqv5EaZkBfETuT3f9VKmSkKm6M4cMp4Ju"], "asm": "OP_HASH160 85505e9e21a32e9514105d01ab83633dae949eca OP_EQUAL", "type": "scripthash"}, "value": 0.03125686, "n": 0}, {"scriptPubKey": {"reqSigs": 1, "hex": "0014b738b4ac0a86ee2ffc0b35c2904f48e06996c1bd", "addresses": ["bc1qkuutftq2smhzllqtxhpfqn6gup5edsdau2rqgq"], "asm": "0 b738b4ac0a86ee2ffc0b35c2904f48e06996c1bd", "type": "witness_v0_keyhash"}, "value": 0.00034281, "n": 1}], "hex": "0100000000010115f7e8dafd28604b4fdb715d4fda39c9070630d2e25a1e4863a5b991ad197cba000000001716001403ebe10b75c89b33d3d0f3adea5ea0e661beb899ffffffff02b6b12f000000000017a91485505e9e21a32e9514105d01ab83633dae949eca87e985000000000000160014b738b4ac0a86ee2ffc0b35c2904f48e06996c1bd02483045022100ea05de46fa2b93f5bf2ea3055644318e4cb5aecc9f9b2835f5e898467b185e8a022034975815de90c25d0fa6c4ded3724cebdd9e5d61b2121d0224ddb3842938df08012102e2d20b9338956c42606218a7e176a8d92d7d2115f4634d11cd5c50b2c5b7550d00000000", "vin": [{"txinwitness": ["3045022100ea05de46fa2b93f5bf2ea3055644318e4cb5aecc9f9b2835f5e898467b185e8a022034975815de90c25d0fa6c4ded3724cebdd9e5d61b2121d0224ddb3842938df0801", "02e2d20b9338956c42606218a7e176a8d92d7d2115f4634d11cd5c50b2c5b7550d"], "sequence": 4294967295, "scriptSig": {"hex": "16001403ebe10b75c89b33d3d0f3adea5ea0e661beb899", "asm": "001403ebe10b75c89b33d3d0f3adea5ea0e661beb899"}, "vout": 0, "txid": "ba7c19ad91b9a563481e5ae2d2300607c939da4f5d71db4f4b6028fddae8f715"}], "txid": "878538eb13197ac0098feb28f0a62620afa76913da01ab2df47af580c8d44f3e", "blocktime": 1537870268, "version": 1, "confirmations": 11518, "time": 1537870268, "locktime": 0, "vsize": 165, "size": 247}