{"hash": "8785c1333f847aeb1d31b9d103ea109da67cfbc4bc4f3ef57d21b1e9d6551030", "blockhash": "0000000000000000001cda96e906b7601b7a6fb1a3b62bca570a9e5d8f4b3de1", "vout": [{"scriptPubKey": {"reqSigs": 1, "hex": "76a91493192f2fd252a40c2c172692f2402cb8ed84213d88ac", "addresses": ["1EQnW37viVv4NHoCJHEHCfNEMwoxgcwcfa"], "asm": "OP_DUP OP_HASH160 93192f2fd252a40c2c172692f2402cb8ed84213d OP_EQUALVERIFY OP_CHECKSIG", "type": "pubkeyhash"}, "value": 0.00030021, "n": 0}, {"scriptPubKey": {"reqSigs": 1, "hex": "a9145a41fd6742479d61b923e917856b53f58287d7f987", "addresses": ["39vFns5BGkUPgBojG8WH2rd81pFE7D7dpM"], "asm": "OP_HASH160 5a41fd6742479d61b923e917856b53f58287d7f9 OP_EQUAL", "type": "scripthash"}, "value": 0.05620828, "n": 1}], "hex": "0100000002afb7afd03896eed9d3f8378f50aa6a67140e03dbd62d59dae03a6f2b2c77f819010000006a473044022004d8d13b2930ff6552c9c45c90466d551944ba76778a9af9574b10352d9fdb76022009edad61176f1d9b28b41ea0c76760cbf65f3ec801d6db16327833e92d352f7f012103c818e931be5536c8239ce6f1560cb65d5b6eca8dc33038f229d200f472db1625ffffffff555dda44a16736f6d5870be421cab6a9f62a0f932ff0a87c61e1dd14d863043f000000006b483045022100ae2d2691901ee094824a629abd53bf1a1c967aab7eac531b7395058d610bd4ab022075b585ec73f5104badde823a996ba2fc4a59e0bab171316d9e161d9cc0f76a38012102ee5fc467e84c56812dff193bf90b52a6798918a050c3c47b729cb5244c186349ffffffff0245750000000000001976a91493192f2fd252a40c2c172692f2402cb8ed84213d88ac5cc455000000000017a9145a41fd6742479d61b923e917856b53f58287d7f98700000000", "vin": [{"sequence": 4294967295, "scriptSig": {"hex": "473044022004d8d13b2930ff6552c9c45c90466d551944ba76778a9af9574b10352d9fdb76022009edad61176f1d9b28b41ea0c76760cbf65f3ec801d6db16327833e92d352f7f012103c818e931be5536c8239ce6f1560cb65d5b6eca8dc33038f229d200f472db1625", "asm": "3044022004d8d13b2930ff6552c9c45c90466d551944ba76778a9af9574b10352d9fdb76022009edad61176f1d9b28b41ea0c76760cbf65f3ec801d6db16327833e92d352f7f[ALL] 03c818e931be5536c8239ce6f1560cb65d5b6eca8dc33038f229d200f472db1625"}, "vout": 1, "txid": "19f8772c2b6f3ae0da592dd6db030e14676aaa508f37f8d3d9ee9638d0afb7af"}, {"sequence": 4294967295, "scriptSig": {"hex": "483045022100ae2d2691901ee094824a629abd53bf1a1c967aab7eac531b7395058d610bd4ab022075b585ec73f5104badde823a996ba2fc4a59e0bab171316d9e161d9cc0f76a38012102ee5fc467e84c56812dff193bf90b52a6798918a050c3c47b729cb5244c186349", "asm": "3045022100ae2d2691901ee094824a629abd53bf1a1c967aab7eac531b7395058d610bd4ab022075b585ec73f5104badde823a996ba2fc4a59e0bab171316d9e161d9cc0f76a38[ALL] 02ee5fc467e84c56812dff193bf90b52a6798918a050c3c47b729cb5244c186349"}, "vout": 0, "txid": "3f0463d814dde1617ca8f02f930f2af6a9b6ca21e40b87d5f63667a144da5d55"}], "txid": "8785c1333f847aeb1d31b9d103ea109da67cfbc4bc4f3ef57d21b1e9d6551030", "blocktime": 1537873282, "version": 1, "confirmations": 11484, "time": 1537873282, "locktime": 0, "vsize": 371, "size": 371}