{"hash": "878684fca10b9525ed93c886c95f44d548034c5dccc5bbcdc4f291dc385a38f4", "blockhash": "0000000000000000001f0ddff1eddb255c1121bcd4da4f1bc9a0da00cae72433", "vout": [{"scriptPubKey": {"reqSigs": 1, "hex": "0014ce96c0c2a6a13fcc323349c8483077c8bb7f78f5", "addresses": ["bc1qe6tvps4x5ylucv3nf8yysvrhezah7784scda80"], "asm": "0 ce96c0c2a6a13fcc323349c8483077c8bb7f78f5", "type": "witness_v0_keyhash"}, "value": 0.00214977, "n": 0}, {"scriptPubKey": {"reqSigs": 1, "hex": "76a91461e70eae5c8ceb254d6a571abc1c4def79da584388ac", "addresses": ["19vfLkhutoCpVwsHs5EE4fLSYgLv8pih3g"], "asm": "OP_DUP OP_HASH160 61e70eae5c8ceb254d6a571abc1c4def79da5843 OP_EQUALVERIFY OP_CHECKSIG", "type": "pubkeyhash"}, "value": 0.01638, "n": 1}], "hex": "01000000017cb217c6c365006d74932651ebe727e725a82e0079a821fe3a67032f72bfaf9d5c0000006a4730440220397d12ee5c51ca0ae4a554097e52f9986de6c0f6cdfd4419f7a8e4578925a720022001b4b462193d1da54c03244df1f9b9ad645101c013c45024a4c4c609259f8059012102c2c5e83bf699f4b016fa2ff25226d8a1221cf25937407bdcd08e41517ba94ed9ffffffff02c147030000000000160014ce96c0c2a6a13fcc323349c8483077c8bb7f78f570fe1800000000001976a91461e70eae5c8ceb254d6a571abc1c4def79da584388ac00000000", "vin": [{"sequence": 4294967295, "scriptSig": {"hex": "4730440220397d12ee5c51ca0ae4a554097e52f9986de6c0f6cdfd4419f7a8e4578925a720022001b4b462193d1da54c03244df1f9b9ad645101c013c45024a4c4c609259f8059012102c2c5e83bf699f4b016fa2ff25226d8a1221cf25937407bdcd08e41517ba94ed9", "asm": "30440220397d12ee5c51ca0ae4a554097e52f9986de6c0f6cdfd4419f7a8e4578925a720022001b4b462193d1da54c03244df1f9b9ad645101c013c45024a4c4c609259f8059[ALL] 02c2c5e83bf699f4b016fa2ff25226d8a1221cf25937407bdcd08e41517ba94ed9"}, "vout": 92, "txid": "9dafbf722f03673afe21a879002ea825e727e7eb512693746d0065c3c617b27c"}], "txid": "878684fca10b9525ed93c886c95f44d548034c5dccc5bbcdc4f291dc385a38f4", "blocktime": 1537872018, "version": 1, "confirmations": 11489, "time": 1537872018, "locktime": 0, "vsize": 222, "size": 222}