{"hash": "378584d13d3a7bc6192621fe33e55fdb5b45c1bba1027e8cbbad67f4e43da15d", "blockhash": "0000000000000000001e0dab787dd257d1dbfcb92a98c2207d5e1078be1f4165", "vout": [{"scriptPubKey": {"reqSigs": 1, "hex": "76a91443dd8bcffe1fbff82dffc6d091b7b40ea595649c88ac", "addresses": ["17Bqg9cV6ALfYJ547DTMNhjMSuCUfzxRiR"], "asm": "OP_DUP OP_HASH160 43dd8bcffe1fbff82dffc6d091b7b40ea595649c OP_EQUALVERIFY OP_CHECKSIG", "type": "pubkeyhash"}, "value": 0.00212409, "n": 0}, {"scriptPubKey": {"reqSigs": 1, "hex": "a9147d29daf9848ade739d2112ccc21bee8c1f66aac987", "addresses": ["3D6pXgfNPRudwzA99jyyUgcUvFEk4iAbuN"], "asm": "OP_HASH160 7d29daf9848ade739d2112ccc21bee8c1f66aac9 OP_EQUAL", "type": "scripthash"}, "value": 0.03176847, "n": 1}], "hex": "01000000000101d9d307f4a399c60c584285866ef5dce5e7d67f2fccd9e5a7c719b5906b9f38a20100000023220020727a0f2ec1d37a5d8ab349dc88b0da60743235e20c10b6835e3081d744a2eb9fffffffff02b93d0300000000001976a91443dd8bcffe1fbff82dffc6d091b7b40ea595649c88ac8f7930000000000017a9147d29daf9848ade739d2112ccc21bee8c1f66aac9870400483045022100a51f1cb15601ab3944dc5bac81a1f72c7dcf972d7d357e3bd9739f79bde0eb4902206835ad1995cb70d6ab394eb55b4c53be532c6d769537e9d1f8631365eda728a801483045022100a8e431eb629d4a900bba4e65a3040a2ce16f503b4e870214646db546a118c9c6022074c0207be9c89a3bfe42266672786cc30be9d2c1b760e265e33ef2ece34ddcec014752210250481b9038e2d4cbe91a53fe5b66edcc21a5a76952db6e00f56518f6ecf92d462103982481ffd6c2aa1ba6b45c0874cb14e2ebcbfe494f93697c3d40857517fc280b52ae00000000", "vin": [{"txinwitness": ["", "3045022100a51f1cb15601ab3944dc5bac81a1f72c7dcf972d7d357e3bd9739f79bde0eb4902206835ad1995cb70d6ab394eb55b4c53be532c6d769537e9d1f8631365eda728a801", "3045022100a8e431eb629d4a900bba4e65a3040a2ce16f503b4e870214646db546a118c9c6022074c0207be9c89a3bfe42266672786cc30be9d2c1b760e265e33ef2ece34ddcec01", "52210250481b9038e2d4cbe91a53fe5b66edcc21a5a76952db6e00f56518f6ecf92d462103982481ffd6c2aa1ba6b45c0874cb14e2ebcbfe494f93697c3d40857517fc280b52ae"], "sequence": 4294967295, "scriptSig": {"hex": "220020727a0f2ec1d37a5d8ab349dc88b0da60743235e20c10b6835e3081d744a2eb9f", "asm": "0020727a0f2ec1d37a5d8ab349dc88b0da60743235e20c10b6835e3081d744a2eb9f"}, "vout": 1, "txid": "a2389f6b90b519c7a7e5d9cc2f7fd6e7e5dcf56e868542580cc699a3f407d3d9"}], "txid": "879666ced3353d895c1375cd147dfc383662c8ada5a4fe6a6cdbe9ef375ab226", "blocktime": 1537872475, "version": 1, "confirmations": 11487, "time": 1537872475, "locktime": 0, "vsize": 208, "size": 374}