{"hash": "8798321bc285623746ed6c1abbd1ca9c4871d8de366f1e6b30dc0a49a6083a69", "blockhash": "00000000000000000018f53835495a110e01622372bf6ae95dc86f2b0ab887b0", "vout": [{"scriptPubKey": {"reqSigs": 1, "hex": "76a91438e6024e1f45ac6fb246a972cf44eed91917f10288ac", "addresses": ["16BrP3oWzxxa4FqeYd7NuRNPCfHGZN1c2g"], "asm": "OP_DUP OP_HASH160 38e6024e1f45ac6fb246a972cf44eed91917f102 OP_EQUALVERIFY OP_CHECKSIG", "type": "pubkeyhash"}, "value": 5.46e-06, "n": 0}, {"scriptPubKey": {"type": "nulldata", "hex": "6a146f6d6e69000000000000001f0000000011e21830", "asm": "OP_RETURN 6f6d6e69000000000000001f0000000011e21830"}, "value": 0.0, "n": 1}, {"scriptPubKey": {"reqSigs": 1, "hex": "76a914548b6f93a7c63fce52b7bc1ac75adeca79b17dd488ac", "addresses": ["18i2oHbtyCfx52iJB5fA3gKB9XYr81uSpK"], "asm": "OP_DUP OP_HASH160 548b6f93a7c63fce52b7bc1ac75adeca79b17dd4 OP_EQUALVERIFY OP_CHECKSIG", "type": "pubkeyhash"}, "value": 0.00157816, "n": 2}], "hex": "010000000162519ee55fe57ea7e009550cdb863aa92babda2866bf2fc0c9f2f146f620d0fe020000006a47304402205760ed0783ca19f4c8052a4d89b8d2d43e1cd3b81023b2890d016bd9a06cb48b022017faead5b100f68f2ca7be10a7193d59cb4766e71b0d4802503ec7df4bf9f87f01210341cc38f427d5b4f412202a130608069a5ff454f5a2dcdb29e52d57883e14ffa8ffffffff0322020000000000001976a91438e6024e1f45ac6fb246a972cf44eed91917f10288ac0000000000000000166a146f6d6e69000000000000001f0000000011e2183078680200000000001976a914548b6f93a7c63fce52b7bc1ac75adeca79b17dd488ac00000000", "vin": [{"sequence": 4294967295, "scriptSig": {"hex": "47304402205760ed0783ca19f4c8052a4d89b8d2d43e1cd3b81023b2890d016bd9a06cb48b022017faead5b100f68f2ca7be10a7193d59cb4766e71b0d4802503ec7df4bf9f87f01210341cc38f427d5b4f412202a130608069a5ff454f5a2dcdb29e52d57883e14ffa8", "asm": "304402205760ed0783ca19f4c8052a4d89b8d2d43e1cd3b81023b2890d016bd9a06cb48b022017faead5b100f68f2ca7be10a7193d59cb4766e71b0d4802503ec7df4bf9f87f[ALL] 0341cc38f427d5b4f412202a130608069a5ff454f5a2dcdb29e52d57883e14ffa8"}, "vout": 2, "txid": "fed020f646f1f2c9c02fbf6628daab2ba93a86db0c5509e0a77ee55fe59e5162"}], "txid": "8798321bc285623746ed6c1abbd1ca9c4871d8de366f1e6b30dc0a49a6083a69", "blocktime": 1537870928, "version": 1, "confirmations": 11512, "time": 1537870928, "locktime": 0, "vsize": 256, "size": 256}