{"hash": "1946b960c7f71e01aad18905a547e61044e2ca59629c41c89b7525d2750fef1f", "blockhash": "0000000000000000001e0dab787dd257d1dbfcb92a98c2207d5e1078be1f4165", "vout": [{"scriptPubKey": {"reqSigs": 1, "hex": "a9145cfbbb7c7e9cbc41dca6f8bddfd417f3cfa5cc8887", "addresses": ["3AAfes3sh9Ne4Y58c8JHNMEAVJz18DzeDi"], "asm": "OP_HASH160 5cfbbb7c7e9cbc41dca6f8bddfd417f3cfa5cc88 OP_EQUAL", "type": "scripthash"}, "value": 0.009, "n": 0}, {"scriptPubKey": {"reqSigs": 1, "hex": "001442287e99e268f7d67195efa1e6c6fa43f3383d0c", "addresses": ["bc1qgg58ax0zdrmavuv4a7s7d3h6g0ens0gvsytull"], "asm": "0 42287e99e268f7d67195efa1e6c6fa43f3383d0c", "type": "witness_v0_keyhash"}, "value": 0.00068391, "n": 1}], "hex": "01000000000101dd196917c75e2e7f940f2d7a30fd2d8920e3472d46e2123ba4ef7ce7a64e08c00100000000ffffffff02a0bb0d000000000017a9145cfbbb7c7e9cbc41dca6f8bddfd417f3cfa5cc8887270b01000000000016001442287e99e268f7d67195efa1e6c6fa43f3383d0c0248304502210082e8e386306d24d794dd415e80a4c3f9b7b52c880b534f85eba611a1d83e182102202d1830e89a0298f0c9aaa1eeb9df86fde25d069102a1b1e058a4b1f0705d1d3201210275c68c2c8018b5b1622248e64c114ec9bc292d28d7f38a29314a9eb49fea898b00000000", "vin": [{"txinwitness": ["304502210082e8e386306d24d794dd415e80a4c3f9b7b52c880b534f85eba611a1d83e182102202d1830e89a0298f0c9aaa1eeb9df86fde25d069102a1b1e058a4b1f0705d1d3201", "0275c68c2c8018b5b1622248e64c114ec9bc292d28d7f38a29314a9eb49fea898b"], "sequence": 4294967295, "scriptSig": {"hex": "", "asm": ""}, "vout": 1, "txid": "c0084ea6e77cefa43b12e2462d47e320892dfd307a2d0f947f2e5ec7176919dd"}], "txid": "87992331d36ff2b6a4d1db92bc1dabaa0e76a0a621913adef6e665ba4288d0f4", "blocktime": 1537872475, "version": 1, "confirmations": 11486, "time": 1537872475, "locktime": 0, "vsize": 142, "size": 224}