{"hash": "879f8afa90eea9bf2893d6aec89ee54c80c9db85dbedbf3fedae9b92db901edd", "blockhash": "0000000000000000001f76057863aec43deb6fa401d9628bb513d65a8098bfab", "vout": [{"scriptPubKey": {"reqSigs": 1, "hex": "76a9143d50bd587ea7556aa025b57f1860d1ab6253d57988ac", "addresses": ["16bCwbCS3vTBg7Wk3shEiyGGAyWH8fi1De"], "asm": "OP_DUP OP_HASH160 3d50bd587ea7556aa025b57f1860d1ab6253d579 OP_EQUALVERIFY OP_CHECKSIG", "type": "pubkeyhash"}, "value": 0.0212632, "n": 0}, {"scriptPubKey": {"reqSigs": 1, "hex": "76a914356208f7f836a4fec459e26d0c33fde5461c4d0e88ac", "addresses": ["15sGFm7ZLzPCH58zmtTkPowWCkEhmWJzZB"], "asm": "OP_DUP OP_HASH160 356208f7f836a4fec459e26d0c33fde5461c4d0e OP_EQUALVERIFY OP_CHECKSIG", "type": "pubkeyhash"}, "value": 0.51483457, "n": 1}], "hex": "0100000005d4ef9adf99ef557396acd0dbc50645098113d86a39241c7ea5f4b554c11ee718010000006a4730440220340595e0013adb5c15261772c6fd75b2014ae004440f4f3e68c7961e26b5c0d2022038a20d66c949215c60f492736e724d3385446cb0ef15e9de20ad0a25a0e4b427012102499a068e48d2c75c733088935603f4ad3a1f2d76eb81a087ff929842844293e5ffffffffe9ba80bced246eb973bb824c316d02ab9087f6ef4fe886ecf3b91b0081c9e152010000006b483045022100ea1a1d629d7ac7cee37fd9ca140bda8bbf64051ce65b958235d90a88f7d3120502205d6984139ddc038ddae693dfa07bc1d7ed7f57cbc5455a5f8efb8a37c27e29ea012102499a068e48d2c75c733088935603f4ad3a1f2d76eb81a087ff929842844293e5ffffffff259e86d71e697a500e38c2842bdc1ea9b7bdda23c74dafb094bd1935b3a37ef0000000006a473044022059128690d16e209ebe13f0c5da298a957f772e8bad33ea8ce513461f36ff741a02204cc538d2a3968735f65caa64363acd32476e4646447cbd8fbe899b5845da1dfa012102499a068e48d2c75c733088935603f4ad3a1f2d76eb81a087ff929842844293e5ffffffffdef6f3bbbe5f63664b56934fff07f9e9fd622a697a1c3e36fd6184864f43e5f1010000006a473044022047db414be73394c964fe7b5819275b6cdf0cc9e7520c6ac2613680f89f6505940220404a5f65ad07d619124a2bb0a46b8a031ca0bb4dfb14c3ef97fb89ce18dda520012102499a068e48d2c75c733088935603f4ad3a1f2d76eb81a087ff929842844293e5ffffffff309f9cc977fc89dfa3ee0be7a9218415e406d058c3277f1a91adfba05a9357f48c0000006b483045022100939df90608a09793f1ecf850674ea56380f313f41dc8966a3e24eab7b17a555002207da4a2c8c55a80e92da90364cbfb49507232ba1383a292868954c19ab5620ff10121036b6edc35fe1f4ca62d3c775ba04df3ccc0af1d419cef5790b744b52c2aa2b213ffffffff02f0712000000000001976a9143d50bd587ea7556aa025b57f1860d1ab6253d57988ac41931103000000001976a914356208f7f836a4fec459e26d0c33fde5461c4d0e88ac00000000", "vin": [{"sequence": 4294967295, "scriptSig": {"hex": "4730440220340595e0013adb5c15261772c6fd75b2014ae004440f4f3e68c7961e26b5c0d2022038a20d66c949215c60f492736e724d3385446cb0ef15e9de20ad0a25a0e4b427012102499a068e48d2c75c733088935603f4ad3a1f2d76eb81a087ff929842844293e5", "asm": "30440220340595e0013adb5c15261772c6fd75b2014ae004440f4f3e68c7961e26b5c0d2022038a20d66c949215c60f492736e724d3385446cb0ef15e9de20ad0a25a0e4b427[ALL] 02499a068e48d2c75c733088935603f4ad3a1f2d76eb81a087ff929842844293e5"}, "vout": 1, "txid": "18e71ec154b5f4a57e1c24396ad81381094506c5dbd0ac967355ef99df9aefd4"}, {"sequence": 4294967295, "scriptSig": {"hex": "483045022100ea1a1d629d7ac7cee37fd9ca140bda8bbf64051ce65b958235d90a88f7d3120502205d6984139ddc038ddae693dfa07bc1d7ed7f57cbc5455a5f8efb8a37c27e29ea012102499a068e48d2c75c733088935603f4ad3a1f2d76eb81a087ff929842844293e5", "asm": "3045022100ea1a1d629d7ac7cee37fd9ca140bda8bbf64051ce65b958235d90a88f7d3120502205d6984139ddc038ddae693dfa07bc1d7ed7f57cbc5455a5f8efb8a37c27e29ea[ALL] 02499a068e48d2c75c733088935603f4ad3a1f2d76eb81a087ff929842844293e5"}, "vout": 1, "txid": "52e1c981001bb9f3ec86e84feff68790ab026d314c82bb73b96e24edbc80bae9"}, {"sequence": 4294967295, "scriptSig": {"hex": "473044022059128690d16e209ebe13f0c5da298a957f772e8bad33ea8ce513461f36ff741a02204cc538d2a3968735f65caa64363acd32476e4646447cbd8fbe899b5845da1dfa012102499a068e48d2c75c733088935603f4ad3a1f2d76eb81a087ff929842844293e5", "asm": "3044022059128690d16e209ebe13f0c5da298a957f772e8bad33ea8ce513461f36ff741a02204cc538d2a3968735f65caa64363acd32476e4646447cbd8fbe899b5845da1dfa[ALL] 02499a068e48d2c75c733088935603f4ad3a1f2d76eb81a087ff929842844293e5"}, "vout": 0, "txid": "f07ea3b33519bd94b0af4dc723dabdb7a91edc2b84c2380e507a691ed7869e25"}, {"sequence": 4294967295, "scriptSig": {"hex": "473044022047db414be73394c964fe7b5819275b6cdf0cc9e7520c6ac2613680f89f6505940220404a5f65ad07d619124a2bb0a46b8a031ca0bb4dfb14c3ef97fb89ce18dda520012102499a068e48d2c75c733088935603f4ad3a1f2d76eb81a087ff929842844293e5", "asm": "3044022047db414be73394c964fe7b5819275b6cdf0cc9e7520c6ac2613680f89f6505940220404a5f65ad07d619124a2bb0a46b8a031ca0bb4dfb14c3ef97fb89ce18dda520[ALL] 02499a068e48d2c75c733088935603f4ad3a1f2d76eb81a087ff929842844293e5"}, "vout": 1, "txid": "f1e5434f868461fd363e1c7a692a62fde9f907ff4f93564b66635fbebbf3f6de"}, {"sequence": 4294967295, "scriptSig": {"hex": "483045022100939df90608a09793f1ecf850674ea56380f313f41dc8966a3e24eab7b17a555002207da4a2c8c55a80e92da90364cbfb49507232ba1383a292868954c19ab5620ff10121036b6edc35fe1f4ca62d3c775ba04df3ccc0af1d419cef5790b744b52c2aa2b213", "asm": "3045022100939df90608a09793f1ecf850674ea56380f313f41dc8966a3e24eab7b17a555002207da4a2c8c55a80e92da90364cbfb49507232ba1383a292868954c19ab5620ff1[ALL] 036b6edc35fe1f4ca62d3c775ba04df3ccc0af1d419cef5790b744b52c2aa2b213"}, "vout": 140, "txid": "f457935aa0fbad911a7f27c358d006e4158421a9e70beea3df89fc77c99c9f30"}], "txid": "879f8afa90eea9bf2893d6aec89ee54c80c9db85dbedbf3fedae9b92db901edd", "blocktime": 1537873891, "version": 1, "confirmations": 11478, "time": 1537873891, "locktime": 0, "vsize": 815, "size": 815}