{"hash": "87a1c1064d59740eb66a76ef59f00269b9a56c2e09e66c65ee688b0d72439799", "blockhash": "0000000000000000000e13cef7c366c0283d82e591d1acd082e914b08063cdf1", "vout": [{"scriptPubKey": {"reqSigs": 1, "hex": "a914db68e6cd8656a9bc602e018036af01840836341587", "addresses": ["3Mh9aF69W9YBCB8fWjBDa86dKdbAsKVkJP"], "asm": "OP_HASH160 db68e6cd8656a9bc602e018036af018408363415 OP_EQUAL", "type": "scripthash"}, "value": 0.0018346, "n": 0}, {"scriptPubKey": {"reqSigs": 1, "hex": "a914062b5509e2eca513bf4761665571b9bc56aa676187", "addresses": ["32FdtU52duxkwGGSRJ5NuLqYUi2qJfqot1"], "asm": "OP_HASH160 062b5509e2eca513bf4761665571b9bc56aa6761 OP_EQUAL", "type": "scripthash"}, "value": 0.1198576, "n": 1}], "hex": "0100000001ac636d0e4aefd1393b305b1495fd6a24a2975c071302a3d8e678993d128af53701000000db00483045022100ffc5a01f40b23ccde09386c88296929b7fa7bcd0f8369cc67c4a87b137270690022038fc0657d8e015664a7bac5a7b78d656ae878d83f6d1556c9fe7a74a683cf5fd01483045022100c23c702ef6a8e406d8b18561cc0bf5c86973beaedda43e0d5e33a853775f96fc02200d641ae8c0cf62c9c5d1376dff5828e679684e6dab46d02899bb120b6d1e37320147522103abc8a801f5fbb4fd5f6510ba530d534b0efb584b4298cea1e6e2d45cd1000aef2102a29577404fa42d6d12e0d867249d4ee805afecc9e10879ed668da9958dc7b65052aeffffffff02a4cc02000000000017a914db68e6cd8656a9bc602e018036af0184083634158760e3b6000000000017a914062b5509e2eca513bf4761665571b9bc56aa67618700000000", "vin": [{"sequence": 4294967295, "scriptSig": {"hex": "00483045022100ffc5a01f40b23ccde09386c88296929b7fa7bcd0f8369cc67c4a87b137270690022038fc0657d8e015664a7bac5a7b78d656ae878d83f6d1556c9fe7a74a683cf5fd01483045022100c23c702ef6a8e406d8b18561cc0bf5c86973beaedda43e0d5e33a853775f96fc02200d641ae8c0cf62c9c5d1376dff5828e679684e6dab46d02899bb120b6d1e37320147522103abc8a801f5fbb4fd5f6510ba530d534b0efb584b4298cea1e6e2d45cd1000aef2102a29577404fa42d6d12e0d867249d4ee805afecc9e10879ed668da9958dc7b65052ae", "asm": "0 3045022100ffc5a01f40b23ccde09386c88296929b7fa7bcd0f8369cc67c4a87b137270690022038fc0657d8e015664a7bac5a7b78d656ae878d83f6d1556c9fe7a74a683cf5fd[ALL] 3045022100c23c702ef6a8e406d8b18561cc0bf5c86973beaedda43e0d5e33a853775f96fc02200d641ae8c0cf62c9c5d1376dff5828e679684e6dab46d02899bb120b6d1e3732[ALL] 522103abc8a801f5fbb4fd5f6510ba530d534b0efb584b4298cea1e6e2d45cd1000aef2102a29577404fa42d6d12e0d867249d4ee805afecc9e10879ed668da9958dc7b65052ae"}, "vout": 1, "txid": "37f58a123d9978e6d8a30213075c97a2246afd95145b303b39d1ef4a0e6d63ac"}], "txid": "87a1c1064d59740eb66a76ef59f00269b9a56c2e09e66c65ee688b0d72439799", "blocktime": 1537871767, "version": 1, "confirmations": 11495, "time": 1537871767, "locktime": 0, "vsize": 334, "size": 334}