{"hash": "87a4a66dd68e80b87e71e637b8f1792b5f96ddf0a252c54f0d99f05bbf59634d", "blockhash": "0000000000000000000e13cef7c366c0283d82e591d1acd082e914b08063cdf1", "vout": [{"scriptPubKey": {"reqSigs": 1, "hex": "76a9148c3015c215b2834d8bd97a454e81fdedd451f70a88ac", "addresses": ["1DnFCrtU2doLBVNpsjUfimzLbSiVUV5shc"], "asm": "OP_DUP OP_HASH160 8c3015c215b2834d8bd97a454e81fdedd451f70a OP_EQUALVERIFY OP_CHECKSIG", "type": "pubkeyhash"}, "value": 0.0004952, "n": 0}, {"scriptPubKey": {"reqSigs": 1, "hex": "76a914cd2f2f2fccbd1e48b11c1e73ff8eb8bd8bdabdc088ac", "addresses": ["1Khv3kUFhRQVeVp1v24U6t6CTo8pgS6pNk"], "asm": "OP_DUP OP_HASH160 cd2f2f2fccbd1e48b11c1e73ff8eb8bd8bdabdc0 OP_EQUALVERIFY OP_CHECKSIG", "type": "pubkeyhash"}, "value": 0.03209152, "n": 1}], "hex": "01000000019966aa3b6220df7b640cfa818c318881adb1853712e8f0110510321567be6c53010000006a473044022056acfabadcff8c4db86af661532a7d2689fecbbba3f585637549f7403a5ba8b1022006de8deccb80872b11c1f3d1808c6c6a5f8f31e3de1d78e4eaa360a70ca4579f012103e8e204db37d1073c781a2ed3e0087d4b7c3588df3554527d589c783581afaf1cffffffff0270c10000000000001976a9148c3015c215b2834d8bd97a454e81fdedd451f70a88acc0f73000000000001976a914cd2f2f2fccbd1e48b11c1e73ff8eb8bd8bdabdc088ac00000000", "vin": [{"sequence": 4294967295, "scriptSig": {"hex": "473044022056acfabadcff8c4db86af661532a7d2689fecbbba3f585637549f7403a5ba8b1022006de8deccb80872b11c1f3d1808c6c6a5f8f31e3de1d78e4eaa360a70ca4579f012103e8e204db37d1073c781a2ed3e0087d4b7c3588df3554527d589c783581afaf1c", "asm": "3044022056acfabadcff8c4db86af661532a7d2689fecbbba3f585637549f7403a5ba8b1022006de8deccb80872b11c1f3d1808c6c6a5f8f31e3de1d78e4eaa360a70ca4579f[ALL] 03e8e204db37d1073c781a2ed3e0087d4b7c3588df3554527d589c783581afaf1c"}, "vout": 1, "txid": "536cbe671532100511f0e8123785b1ad8188318c81fa0c647bdf20623baa6699"}], "txid": "87a4a66dd68e80b87e71e637b8f1792b5f96ddf0a252c54f0d99f05bbf59634d", "blocktime": 1537871767, "version": 1, "confirmations": 11495, "time": 1537871767, "locktime": 0, "vsize": 225, "size": 225}