{"hash": "87a5da0ddfb3211c79446a9eea0357a27f6420160a63b3bacda5b424e7b06e2b", "blockhash": "0000000000000000000dcc0f55137456b1a82d3642486a52398922ac4d620174", "vout": [{"scriptPubKey": {"reqSigs": 1, "hex": "a914a1e3436b68a88532be19e7ed89a612f875c79b2287", "addresses": ["3GSzxxq2cjxbJ5kbegp6okoNvEWmQXSXoY"], "asm": "OP_HASH160 a1e3436b68a88532be19e7ed89a612f875c79b22 OP_EQUAL", "type": "scripthash"}, "value": 0.06, "n": 0}, {"scriptPubKey": {"reqSigs": 1, "hex": "76a91414e81e4e752158fb8e4b1cd0d8c122d947cd423588ac", "addresses": ["12uYahsfU3geazerooUnYQhL2SPi5vb8Jo"], "asm": "OP_DUP OP_HASH160 14e81e4e752158fb8e4b1cd0d8c122d947cd4235 OP_EQUALVERIFY OP_CHECKSIG", "type": "pubkeyhash"}, "value": 0.04481278, "n": 1}], "hex": "0100000001daee5a9a631528c534dd1f0d5d4c053ee066df492bcc4f55cc04e898d05c5b9a040000006a47304402204c9b48e18d4a5b89819fe968ef4317d963d351ce96c6d33db6c2859369d611e2022062202a1b400905b657d48f47cf103b83e4bf1968d9f44cf5b0004f2bfce4a7d201210382b7316efddea5052743c3c897a549a8267f26390b62152b0ed1af4e6ccacf9affffffff02808d5b000000000017a914a1e3436b68a88532be19e7ed89a612f875c79b2287fe604400000000001976a91414e81e4e752158fb8e4b1cd0d8c122d947cd423588ac00000000", "vin": [{"sequence": 4294967295, "scriptSig": {"hex": "47304402204c9b48e18d4a5b89819fe968ef4317d963d351ce96c6d33db6c2859369d611e2022062202a1b400905b657d48f47cf103b83e4bf1968d9f44cf5b0004f2bfce4a7d201210382b7316efddea5052743c3c897a549a8267f26390b62152b0ed1af4e6ccacf9a", "asm": "304402204c9b48e18d4a5b89819fe968ef4317d963d351ce96c6d33db6c2859369d611e2022062202a1b400905b657d48f47cf103b83e4bf1968d9f44cf5b0004f2bfce4a7d2[ALL] 0382b7316efddea5052743c3c897a549a8267f26390b62152b0ed1af4e6ccacf9a"}, "vout": 4, "txid": "9a5b5cd098e804cc554fcc2b49df66e03e054c5d0d1fdd34c52815639a5aeeda"}], "txid": "87a5da0ddfb3211c79446a9eea0357a27f6420160a63b3bacda5b424e7b06e2b", "blocktime": 1537870268, "version": 1, "confirmations": 11516, "time": 1537870268, "locktime": 0, "vsize": 223, "size": 223}