{"hash": "28ca3607c624bee52d18b35fb073370f6243d9e77703aff3c36bbee9f5fb0329", "blockhash": "0000000000000000001f76057863aec43deb6fa401d9628bb513d65a8098bfab", "vout": [{"scriptPubKey": {"reqSigs": 1, "hex": "a914a8487ebbdb69227762f429c5c61ad97565361a9787", "addresses": ["3H2pHpH1MdmyXHzA9JS2rgfCoPs7LrmrQu"], "asm": "OP_HASH160 a8487ebbdb69227762f429c5c61ad97565361a97 OP_EQUAL", "type": "scripthash"}, "value": 1.96850599, "n": 0}, {"scriptPubKey": {"reqSigs": 1, "hex": "76a9142c51196eb43b89ba5492df7cad09252c61d090fa88ac", "addresses": ["153KtKfhEMzDp1RXmmccaMkyCz5fXEA444"], "asm": "OP_DUP OP_HASH160 2c51196eb43b89ba5492df7cad09252c61d090fa OP_EQUALVERIFY OP_CHECKSIG", "type": "pubkeyhash"}, "value": 0.144421, "n": 1}, {"scriptPubKey": {"reqSigs": 1, "hex": "76a914e201a502f62fff0d75575f8848df6cdf30aae7d788ac", "addresses": ["1Mc1gd1Y8qdShadG2eRFSQMnnM5NVZQadQ"], "asm": "OP_DUP OP_HASH160 e201a502f62fff0d75575f8848df6cdf30aae7d7 OP_EQUALVERIFY OP_CHECKSIG", "type": "pubkeyhash"}, "value": 0.08527, "n": 2}], "hex": "02000000000101dd477b81b328d8bc907575c44df632097cf7e0fc15536da908eb26f5f89a838706000000171600148b0434629e4140466c998a14348a8a3fdde34d13feffffff03a7b3bb0b0000000017a914a8487ebbdb69227762f429c5c61ad97565361a9787745edc00000000001976a9142c51196eb43b89ba5492df7cad09252c61d090fa88ac981c8200000000001976a914e201a502f62fff0d75575f8848df6cdf30aae7d788ac0247304402204b7e7774ae5e29e4d66434415702e1a094a8f786c08535a0396d3df4faa7fdea02205291b5fa3da53a876ddfc4c21a4473ef24ae2db3fc4c63ac9ae8bd0f49e23e56012102118297ae2981b3c2bdec31a7afadc85fe44b1da4490234ba722baca0c04c8dfb14490800", "vin": [{"txinwitness": ["304402204b7e7774ae5e29e4d66434415702e1a094a8f786c08535a0396d3df4faa7fdea02205291b5fa3da53a876ddfc4c21a4473ef24ae2db3fc4c63ac9ae8bd0f49e23e5601", "02118297ae2981b3c2bdec31a7afadc85fe44b1da4490234ba722baca0c04c8dfb"], "sequence": 4294967294, "scriptSig": {"hex": "1600148b0434629e4140466c998a14348a8a3fdde34d13", "asm": "00148b0434629e4140466c998a14348a8a3fdde34d13"}, "vout": 6, "txid": "87839af8f526eb08a96d5315fce0f77c0932f64dc4757590bcd828b3817b47dd"}], "txid": "87ae12ef64710c0c6d8cf2e87200a4ed1d43955c092c07268c729a0cb1ded379", "blocktime": 1537873891, "version": 2, "confirmations": 11475, "time": 1537873891, "locktime": 542996, "vsize": 202, "size": 283}