{"hash": "4c5941eee84a542500a6a177c52c92ce1442d7e10a757c2166ced9ee13908e97", "blockhash": "00000000000000000017f5eb5941039fbcee6240d03bc1f2f8e35350df66a1d8", "vout": [{"scriptPubKey": {"reqSigs": 1, "hex": "76a914c96c822e126cc08f54ee7ae41e808c70469fcaca88ac", "addresses": ["1KN2oryufKjzRSnPQi7jZWDMKdJ8X6fMSe"], "asm": "OP_DUP OP_HASH160 c96c822e126cc08f54ee7ae41e808c70469fcaca OP_EQUALVERIFY OP_CHECKSIG", "type": "pubkeyhash"}, "value": 0.0090102, "n": 0}, {"scriptPubKey": {"reqSigs": 1, "hex": "a9149649ad6d2730bb28020a268d9d80df10a9f74ad487", "addresses": ["3FPfYWwfMfKMGY7fuPHvz2b73RhTNGzsm3"], "asm": "OP_HASH160 9649ad6d2730bb28020a268d9d80df10a9f74ad4 OP_EQUAL", "type": "scripthash"}, "value": 13.79592912, "n": 1}], "hex": "010000000001019a6e541d3473d6e34a63b698fba31231ccafa22860a6a6370628bd399e423e8d01000000232200207768efcc1e5eb3d28410fac3f45831004c860cc24cddd940a616b34324823fceffffffff029cbf0d00000000001976a914c96c822e126cc08f54ee7ae41e808c70469fcaca88acd0ea3a520000000017a9149649ad6d2730bb28020a268d9d80df10a9f74ad4870400483045022100f16cdd5e4495a2bd4ac545fb67ff7764e3b0d1b35b5c4a38d9ca330b9d518f62022078f44afdb77423b580254daee167d765d15d9e20a3d2eabdc4ec75e50ceeaa1801483045022100fb9edcb7907490553efcafc880d7fdbc573b3ac118af4a0dd1075da4f0de901002207d935cb53588f7a02ab2835be261d81cb485ced8edd02d0fc3bd14898b07f1df0147522102529d5d1f6733ab45d9d50e07db42c7f6b967ae321c38b726c2247f149959b8262103d0c936a5988dd8421c63240496b723b0ec42400c38b9350e32c2eb4f47d8796952ae00000000", "vin": [{"txinwitness": ["", "3045022100f16cdd5e4495a2bd4ac545fb67ff7764e3b0d1b35b5c4a38d9ca330b9d518f62022078f44afdb77423b580254daee167d765d15d9e20a3d2eabdc4ec75e50ceeaa1801", "3045022100fb9edcb7907490553efcafc880d7fdbc573b3ac118af4a0dd1075da4f0de901002207d935cb53588f7a02ab2835be261d81cb485ced8edd02d0fc3bd14898b07f1df01", "522102529d5d1f6733ab45d9d50e07db42c7f6b967ae321c38b726c2247f149959b8262103d0c936a5988dd8421c63240496b723b0ec42400c38b9350e32c2eb4f47d8796952ae"], "sequence": 4294967295, "scriptSig": {"hex": "2200207768efcc1e5eb3d28410fac3f45831004c860cc24cddd940a616b34324823fce", "asm": "00207768efcc1e5eb3d28410fac3f45831004c860cc24cddd940a616b34324823fce"}, "vout": 1, "txid": "8d3e429e39bd280637a6a66028a2afcc3112a3fb98b6634ae3d673341d546e9a"}], "txid": "87b067529c4ce34fa4abea3c813c489c35a0a24c213bc5ee46bcbd1401979ad7", "blocktime": 1537874412, "version": 1, "confirmations": 11468, "time": 1537874412, "locktime": 0, "vsize": 208, "size": 374}