{"hash": "87b971f74714a5e5fcadf26252c82813d95ef1fe7ed76b3e8b8fc82257c3b58e", "blockhash": "000000000000000000022b45ed06c6f4ccd3cf7fb5ba4856ebd2e58215665228", "vout": [{"scriptPubKey": {"reqSigs": 1, "hex": "a9147ea17b7e0c20b91e9cf562512bcefe0eb5977a9187", "addresses": ["3DEaWhzv6rNnAJvyXnHPhE3AH9Wk7ykKkH"], "asm": "OP_HASH160 7ea17b7e0c20b91e9cf562512bcefe0eb5977a91 OP_EQUAL", "type": "scripthash"}, "value": 0.0003, "n": 0}], "hex": "0100000001803353197c27d07f46f139e899f69fd758b3e17db2f22d62ddcdbfb45e060f98010000006a473044022068e18b93966c29e5441aaf9ae6184c2164baf0afe02195f9b2472756f54b4bed0220768cf43297bdde96de20e7d7d6ed363c1a8f0e11e11df0ffa85af2243f51e4de012102ef15351590eacd5abc05617a4ce85813f695027640094e50a90dc1791256bcd3ffffffff01307500000000000017a9147ea17b7e0c20b91e9cf562512bcefe0eb5977a918700000000", "vin": [{"sequence": 4294967295, "scriptSig": {"hex": "473044022068e18b93966c29e5441aaf9ae6184c2164baf0afe02195f9b2472756f54b4bed0220768cf43297bdde96de20e7d7d6ed363c1a8f0e11e11df0ffa85af2243f51e4de012102ef15351590eacd5abc05617a4ce85813f695027640094e50a90dc1791256bcd3", "asm": "3044022068e18b93966c29e5441aaf9ae6184c2164baf0afe02195f9b2472756f54b4bed0220768cf43297bdde96de20e7d7d6ed363c1a8f0e11e11df0ffa85af2243f51e4de[ALL] 02ef15351590eacd5abc05617a4ce85813f695027640094e50a90dc1791256bcd3"}, "vout": 1, "txid": "980f065eb4bfcddd622df2b27de1b358d79ff699e839f1467fd0277c19533380"}], "txid": "87b971f74714a5e5fcadf26252c82813d95ef1fe7ed76b3e8b8fc82257c3b58e", "blocktime": 1537869901, "version": 1, "confirmations": 11522, "time": 1537869901, "locktime": 0, "vsize": 189, "size": 189}