{"hash": "87c3e13e67d5557e6e9d6882daa89e11f8c429c63588e0491717ab6ed75132ce", "blockhash": "000000000000000000022b45ed06c6f4ccd3cf7fb5ba4856ebd2e58215665228", "vout": [{"scriptPubKey": {"reqSigs": 1, "hex": "76a9141f86087387ac1098891a7647b3ef16331112a66488ac", "addresses": ["13sgWiyfHF8jEyRhrJKBDgP1kxgWBsTMw9"], "asm": "OP_DUP OP_HASH160 1f86087387ac1098891a7647b3ef16331112a664 OP_EQUALVERIFY OP_CHECKSIG", "type": "pubkeyhash"}, "value": 0.00132526, "n": 0}, {"scriptPubKey": {"reqSigs": 1, "hex": "76a9148c1a2c005bfd78ab74783e4d467d07fe4eef24cb88ac", "addresses": ["1DmnxK1AfTLcctq5WCkxrDupUk8fWwpU2C"], "asm": "OP_DUP OP_HASH160 8c1a2c005bfd78ab74783e4d467d07fe4eef24cb OP_EQUALVERIFY OP_CHECKSIG", "type": "pubkeyhash"}, "value": 0.00179391, "n": 1}], "hex": "0200000001892414fff87c5d0010e9313a699e5375b0f82bfb459c81f6686c90349fd9b4c8010000006b483045022100f21be24358bb26275486aa88395184cfff91ed880bbc3f6e4281942b808ad984022025d8a1d8d73b84682c0d26c8151cfd3d6aa84217d8ebd0f4284f2a784ec5346501210244638d3e4a42640b222f262546080bc823344744dd16e9001eed3daeab834e9affffffff02ae050200000000001976a9141f86087387ac1098891a7647b3ef16331112a66488acbfbc0200000000001976a9148c1a2c005bfd78ab74783e4d467d07fe4eef24cb88ac00000000", "vin": [{"sequence": 4294967295, "scriptSig": {"hex": "483045022100f21be24358bb26275486aa88395184cfff91ed880bbc3f6e4281942b808ad984022025d8a1d8d73b84682c0d26c8151cfd3d6aa84217d8ebd0f4284f2a784ec5346501210244638d3e4a42640b222f262546080bc823344744dd16e9001eed3daeab834e9a", "asm": "3045022100f21be24358bb26275486aa88395184cfff91ed880bbc3f6e4281942b808ad984022025d8a1d8d73b84682c0d26c8151cfd3d6aa84217d8ebd0f4284f2a784ec53465[ALL] 0244638d3e4a42640b222f262546080bc823344744dd16e9001eed3daeab834e9a"}, "vout": 1, "txid": "c8b4d99f34906c68f6819c45fb2bf8b075539e693a31e910005d7cf8ff142489"}], "txid": "87c3e13e67d5557e6e9d6882daa89e11f8c429c63588e0491717ab6ed75132ce", "blocktime": 1537869901, "version": 2, "confirmations": 11522, "time": 1537869901, "locktime": 0, "vsize": 226, "size": 226}