{"hash": "87c67de1fb8d8c087d29d914dbe216b6e4634d02235633155aa475f8c99aad95", "blockhash": "00000000000000000004ffacab907a6b429b9a5745fa0b75af4234bf69dd7176", "vout": [{"scriptPubKey": {"reqSigs": 1, "hex": "76a914dc1f4ac2be96aa90cfa6cecd33be93b74ff6299a88ac", "addresses": ["1M4u9QrjWdtF67yxhBakUuSAgWNT8TNa6s"], "asm": "OP_DUP OP_HASH160 dc1f4ac2be96aa90cfa6cecd33be93b74ff6299a OP_EQUALVERIFY OP_CHECKSIG", "type": "pubkeyhash"}, "value": 0.01141536, "n": 0}, {"scriptPubKey": {"reqSigs": 1, "hex": "76a914d22a812985d6cd8e770b7f6f9b2d78fae9c3c1b188ac", "addresses": ["1LAFpYzYtUYGTqJQNWxE1DgU8W81t6WLmG"], "asm": "OP_DUP OP_HASH160 d22a812985d6cd8e770b7f6f9b2d78fae9c3c1b1 OP_EQUALVERIFY OP_CHECKSIG", "type": "pubkeyhash"}, "value": 0.0011447, "n": 1}], "hex": "0200000002aa5d4059e9517e4665f23ca8556ba7462ca8bb1dbb8444397f248b80caa82e01000000006a47304402205da22e6408117fd1251e9e76125f420f168b0eacccaf466b10b64446fae4f3920220579e417a53e07242693a69387ba783d7ae1d3254ca7311c18826805354bfc613012103e835bd1c399fbd7207eead45f2351dfc53b332f60616f35bd81806d30b0ea912feffffffc0ffe871618f097d6ab6a25e524768eda604752123a3d4d5c350203265c051694a0100006b483045022100f1a49d7c0e068b6edd6a1031e27df95753f40fcc7e9c6b4654f893372b32cd7402201bd4ea11e7982619dcfe2b3a7be824e2550f2ede09b209549d9bfde57db8a04c0121020a3b431031cfeb71fbc28629e78968ed697ae8506e0795b5475f6fd8caa0084cfeffffff02206b1100000000001976a914dc1f4ac2be96aa90cfa6cecd33be93b74ff6299a88ac26bf0100000000001976a914d22a812985d6cd8e770b7f6f9b2d78fae9c3c1b188ac16490800", "vin": [{"sequence": 4294967294, "scriptSig": {"hex": "47304402205da22e6408117fd1251e9e76125f420f168b0eacccaf466b10b64446fae4f3920220579e417a53e07242693a69387ba783d7ae1d3254ca7311c18826805354bfc613012103e835bd1c399fbd7207eead45f2351dfc53b332f60616f35bd81806d30b0ea912", "asm": "304402205da22e6408117fd1251e9e76125f420f168b0eacccaf466b10b64446fae4f3920220579e417a53e07242693a69387ba783d7ae1d3254ca7311c18826805354bfc613[ALL] 03e835bd1c399fbd7207eead45f2351dfc53b332f60616f35bd81806d30b0ea912"}, "vout": 0, "txid": "012ea8ca808b247f394484bb1dbba82c46a76b55a83cf265467e51e959405daa"}, {"sequence": 4294967294, "scriptSig": {"hex": "483045022100f1a49d7c0e068b6edd6a1031e27df95753f40fcc7e9c6b4654f893372b32cd7402201bd4ea11e7982619dcfe2b3a7be824e2550f2ede09b209549d9bfde57db8a04c0121020a3b431031cfeb71fbc28629e78968ed697ae8506e0795b5475f6fd8caa0084c", "asm": "3045022100f1a49d7c0e068b6edd6a1031e27df95753f40fcc7e9c6b4654f893372b32cd7402201bd4ea11e7982619dcfe2b3a7be824e2550f2ede09b209549d9bfde57db8a04c[ALL] 020a3b431031cfeb71fbc28629e78968ed697ae8506e0795b5475f6fd8caa0084c"}, "vout": 330, "txid": "6951c065322050c3d5d4a323217504a6ed6847525ea2b66a7d098f6171e8ffc0"}], "txid": "87c67de1fb8d8c087d29d914dbe216b6e4634d02235633155aa475f8c99aad95", "blocktime": 1537875543, "version": 2, "confirmations": 11464, "time": 1537875543, "locktime": 542998, "vsize": 373, "size": 373}