{"hash": "87c934df9d3d435517fc6802a48be5a039e982240250fff40ad36b097010b75c", "blockhash": "0000000000000000000baef3f32e3676a92c3b2e5da21b426e4f302fc371ce76", "vout": [{"scriptPubKey": {"reqSigs": 1, "hex": "76a9143ea28cec8e2571d3e28898c30c1e858861d0b62588ac", "addresses": ["16iBd6kYx9VQPjCTsFEC4UpdgeqoPuDxbE"], "asm": "OP_DUP OP_HASH160 3ea28cec8e2571d3e28898c30c1e858861d0b625 OP_EQUALVERIFY OP_CHECKSIG", "type": "pubkeyhash"}, "value": 0.00305984, "n": 0}, {"scriptPubKey": {"reqSigs": 1, "hex": "76a914b6363358942088db54e4f7a444e885431980515e88ac", "addresses": ["1HcSuqRDfrDQeWddSMBvGckKFpqfGrBdRJ"], "asm": "OP_DUP OP_HASH160 b6363358942088db54e4f7a444e885431980515e OP_EQUALVERIFY OP_CHECKSIG", "type": "pubkeyhash"}, "value": 0.00308018, "n": 1}], "hex": "0100000001e4ac95d625aae658dff9c54b0855274cd7dd299921b4525e8f514112427fd48f010000006b483045022100b146a4a2331f89c152b7fea71bd1b68585918d4dc59e9c79477bce8205929a03022006c87b6a5fb1804235f1006b72ea1ff252e75e1af2e17cee6c5ba716179753f3012102c8e4652ef2a570d16d8ede3f86c7e9e2104159e9f917f5dabd0e3d53c0432a0effffffff0240ab0400000000001976a9143ea28cec8e2571d3e28898c30c1e858861d0b62588ac32b30400000000001976a914b6363358942088db54e4f7a444e885431980515e88ac00000000", "vin": [{"sequence": 4294967295, "scriptSig": {"hex": "483045022100b146a4a2331f89c152b7fea71bd1b68585918d4dc59e9c79477bce8205929a03022006c87b6a5fb1804235f1006b72ea1ff252e75e1af2e17cee6c5ba716179753f3012102c8e4652ef2a570d16d8ede3f86c7e9e2104159e9f917f5dabd0e3d53c0432a0e", "asm": "3045022100b146a4a2331f89c152b7fea71bd1b68585918d4dc59e9c79477bce8205929a03022006c87b6a5fb1804235f1006b72ea1ff252e75e1af2e17cee6c5ba716179753f3[ALL] 02c8e4652ef2a570d16d8ede3f86c7e9e2104159e9f917f5dabd0e3d53c0432a0e"}, "vout": 1, "txid": "8fd47f421241518f5e52b4219929ddd74c2755084bc5f9df58e6aa25d695ace4"}], "txid": "87c934df9d3d435517fc6802a48be5a039e982240250fff40ad36b097010b75c", "blocktime": 1537876114, "version": 1, "confirmations": 11460, "time": 1537876114, "locktime": 0, "vsize": 226, "size": 226}