{"hash": "87cb2c6406cbb5d6bcae8fe7c709a998f1fd5a9cea04e244d3e9fa6e188b1458", "blockhash": "0000000000000000000baef3f32e3676a92c3b2e5da21b426e4f302fc371ce76", "vout": [{"scriptPubKey": {"reqSigs": 1, "hex": "76a9142cbe1a545ee26dd67753bc3da6c35a26f4f1662888ac", "addresses": ["155aU23vg9P8WafntPTWU2LigZU4dEpkzz"], "asm": "OP_DUP OP_HASH160 2cbe1a545ee26dd67753bc3da6c35a26f4f16628 OP_EQUALVERIFY OP_CHECKSIG", "type": "pubkeyhash"}, "value": 0.02624983, "n": 0}], "hex": "010000000255989dc6303071938b6816435ccc19feec15ff213e0673e03e3ae89dbc3b342b030000006b483045022100c91c414e151da555f0d8fb854f266cd7b5941b43c32cb5f81ceb096e7e8e0626022009418cf850ebf6dc938b2bfc38e7235262520281cf97fd75ceab8800b3015c9601210360d429320f3380cb616e3d19a59213140d8eb626209146d886556ec463ba7d30ffffffff249b327435fa4f43b605fa060ae2af3aaf0c23d9dccb11af4b990a1fc39d9f2f000000006b483045022100f91cdda606a013cf0b109154c6c31495ee8e41876e47c1e9437ba2fb3298a88e02202ff9d3d45df45ed4e077c07022a90dd2d5a2aaeb23858720858e7bc1fb63ceff012102e97206183f559ae27a25347fe4408b8231d83ce07a392770275ae427c5469d5effffffff01d70d2800000000001976a9142cbe1a545ee26dd67753bc3da6c35a26f4f1662888ac00000000", "vin": [{"sequence": 4294967295, "scriptSig": {"hex": "483045022100c91c414e151da555f0d8fb854f266cd7b5941b43c32cb5f81ceb096e7e8e0626022009418cf850ebf6dc938b2bfc38e7235262520281cf97fd75ceab8800b3015c9601210360d429320f3380cb616e3d19a59213140d8eb626209146d886556ec463ba7d30", "asm": "3045022100c91c414e151da555f0d8fb854f266cd7b5941b43c32cb5f81ceb096e7e8e0626022009418cf850ebf6dc938b2bfc38e7235262520281cf97fd75ceab8800b3015c96[ALL] 0360d429320f3380cb616e3d19a59213140d8eb626209146d886556ec463ba7d30"}, "vout": 3, "txid": "2b343bbc9de83a3ee073063e21ff15ecfe19cc5c4316688b93713030c69d9855"}, {"sequence": 4294967295, "scriptSig": {"hex": "483045022100f91cdda606a013cf0b109154c6c31495ee8e41876e47c1e9437ba2fb3298a88e02202ff9d3d45df45ed4e077c07022a90dd2d5a2aaeb23858720858e7bc1fb63ceff012102e97206183f559ae27a25347fe4408b8231d83ce07a392770275ae427c5469d5e", "asm": "3045022100f91cdda606a013cf0b109154c6c31495ee8e41876e47c1e9437ba2fb3298a88e02202ff9d3d45df45ed4e077c07022a90dd2d5a2aaeb23858720858e7bc1fb63ceff[ALL] 02e97206183f559ae27a25347fe4408b8231d83ce07a392770275ae427c5469d5e"}, "vout": 0, "txid": "2f9f9dc31f0a994baf11cbdcd9230caf3aafe20a06fa05b6434ffa3574329b24"}], "txid": "87cb2c6406cbb5d6bcae8fe7c709a998f1fd5a9cea04e244d3e9fa6e188b1458", "blocktime": 1537876114, "version": 1, "confirmations": 11460, "time": 1537876114, "locktime": 0, "vsize": 340, "size": 340}