{"hash": "87cead2f66a2baae496405c4ac6576f13ca381b89ba6fda4954aa3808893a67f", "blockhash": "0000000000000000000e13cef7c366c0283d82e591d1acd082e914b08063cdf1", "vout": [{"scriptPubKey": {"reqSigs": 1, "hex": "a914dfc02e13227bf2da85853515c90fe492375c0fca87", "addresses": ["3N66qDmi2f8T7DPSiHx9foqsencGU94eK4"], "asm": "OP_HASH160 dfc02e13227bf2da85853515c90fe492375c0fca OP_EQUAL", "type": "scripthash"}, "value": 0.0030978, "n": 0}, {"scriptPubKey": {"reqSigs": 1, "hex": "76a9148a00124de9519a85a900a76f31048b8bdc84f6bc88ac", "addresses": ["1DagLSZAtizG9AzPLADw4PbSvfUdPXZiz8"], "asm": "OP_DUP OP_HASH160 8a00124de9519a85a900a76f31048b8bdc84f6bc OP_EQUALVERIFY OP_CHECKSIG", "type": "pubkeyhash"}, "value": 0.01245124, "n": 1}], "hex": "010000000173342ea55abc0b58a16b886528e6fb3a196e5b60616c5423cf375c689d52e6f4010000006b483045022100b87392ff6cc3ab3fa558319916a78ad178c43b0f4030d13a6176d7a988540fe602207f7db863d20e6f1808a913b47997baf75e8a7b8cb11fac669ace57c2314097aa012103660cd00725cb23c4643235391057048d8358f026e70b6472618a48946861c70effffffff0214ba04000000000017a914dfc02e13227bf2da85853515c90fe492375c0fca87c4ff1200000000001976a9148a00124de9519a85a900a76f31048b8bdc84f6bc88ac00000000", "vin": [{"sequence": 4294967295, "scriptSig": {"hex": "483045022100b87392ff6cc3ab3fa558319916a78ad178c43b0f4030d13a6176d7a988540fe602207f7db863d20e6f1808a913b47997baf75e8a7b8cb11fac669ace57c2314097aa012103660cd00725cb23c4643235391057048d8358f026e70b6472618a48946861c70e", "asm": "3045022100b87392ff6cc3ab3fa558319916a78ad178c43b0f4030d13a6176d7a988540fe602207f7db863d20e6f1808a913b47997baf75e8a7b8cb11fac669ace57c2314097aa[ALL] 03660cd00725cb23c4643235391057048d8358f026e70b6472618a48946861c70e"}, "vout": 1, "txid": "f4e6529d685c37cf23546c61605b6e193afbe62865886ba1580bbc5aa52e3473"}], "txid": "87cead2f66a2baae496405c4ac6576f13ca381b89ba6fda4954aa3808893a67f", "blocktime": 1537871767, "version": 1, "confirmations": 11493, "time": 1537871767, "locktime": 0, "vsize": 224, "size": 224}