{"hash": "87d1dc4a7d57f0c3128f93f2a963054d2e12938d8cf735cec546b2a7fa373916", "blockhash": "0000000000000000001f0ddff1eddb255c1121bcd4da4f1bc9a0da00cae72433", "vout": [{"scriptPubKey": {"reqSigs": 1, "hex": "76a914c4548d5ace0845c1e3a096818287a3624ed45d5d88ac", "addresses": ["1Ju6jPQXjReWDURy8jP8LfPiwvVrsYjmbg"], "asm": "OP_DUP OP_HASH160 c4548d5ace0845c1e3a096818287a3624ed45d5d OP_EQUALVERIFY OP_CHECKSIG", "type": "pubkeyhash"}, "value": 0.01878, "n": 0}], "hex": "010000000268da76301dd529e1fee7ff028abbcfd96ec59a1d06ed28cabb031021a50dde1d0b0000006b483045022100ab54b110aa08bb58c8d813adb02954046777a830d840ae0da4713880d654ffe102204f56785f7e783d8aaab184f267b86f6b99dbe04ef17532bcdb1cf9b4af67d2df012102ed4adeacb164657fcad9b045e9c48d005965a3ddaa31781d25c6e4382f560991ffffffffc51bb796c2eb1040c46876daf0088bd73bb87b528228c8b48c5623abbd998395000000006a47304402204b24011f54b7d1b7ecb3fb3e4b76283b787b23abf964b600e809a90f4da9b1c4022047c72d9a6b9a084df0e5d65804b50299366a7746f36ba49d2e5866c8e5155235012103f09e6dbb65a442bb355f1dd00a8e511343a5a400882684f68c8502a22bbe9891ffffffff01f0a71c00000000001976a914c4548d5ace0845c1e3a096818287a3624ed45d5d88ac00000000", "vin": [{"sequence": 4294967295, "scriptSig": {"hex": "483045022100ab54b110aa08bb58c8d813adb02954046777a830d840ae0da4713880d654ffe102204f56785f7e783d8aaab184f267b86f6b99dbe04ef17532bcdb1cf9b4af67d2df012102ed4adeacb164657fcad9b045e9c48d005965a3ddaa31781d25c6e4382f560991", "asm": "3045022100ab54b110aa08bb58c8d813adb02954046777a830d840ae0da4713880d654ffe102204f56785f7e783d8aaab184f267b86f6b99dbe04ef17532bcdb1cf9b4af67d2df[ALL] 02ed4adeacb164657fcad9b045e9c48d005965a3ddaa31781d25c6e4382f560991"}, "vout": 11, "txid": "1dde0da5211003bbca28ed061d9ac56ed9cfbb8a02ffe7fee129d51d3076da68"}, {"sequence": 4294967295, "scriptSig": {"hex": "47304402204b24011f54b7d1b7ecb3fb3e4b76283b787b23abf964b600e809a90f4da9b1c4022047c72d9a6b9a084df0e5d65804b50299366a7746f36ba49d2e5866c8e5155235012103f09e6dbb65a442bb355f1dd00a8e511343a5a400882684f68c8502a22bbe9891", "asm": "304402204b24011f54b7d1b7ecb3fb3e4b76283b787b23abf964b600e809a90f4da9b1c4022047c72d9a6b9a084df0e5d65804b50299366a7746f36ba49d2e5866c8e5155235[ALL] 03f09e6dbb65a442bb355f1dd00a8e511343a5a400882684f68c8502a22bbe9891"}, "vout": 0, "txid": "958399bdab23568cb4c82882527bb83bd78b08f0da7668c44010ebc296b71bc5"}], "txid": "87d1dc4a7d57f0c3128f93f2a963054d2e12938d8cf735cec546b2a7fa373916", "blocktime": 1537872018, "version": 1, "confirmations": 11489, "time": 1537872018, "locktime": 0, "vsize": 339, "size": 339}