{"hash": "87d2c69a28f7f5841df397e2f695df1057e261410e303e584a455fd686bef4fd", "blockhash": "00000000000000000018f53835495a110e01622372bf6ae95dc86f2b0ab887b0", "vout": [{"scriptPubKey": {"reqSigs": 1, "hex": "a9147136823ff54ecf40673bae15b04fdd28f4d91de887", "addresses": ["3C1daZJ3a1h1AKCdcg9tiTV5FpBtB9yscq"], "asm": "OP_HASH160 7136823ff54ecf40673bae15b04fdd28f4d91de8 OP_EQUAL", "type": "scripthash"}, "value": 0.0495, "n": 0}, {"scriptPubKey": {"reqSigs": 1, "hex": "76a9143f6e8e0478a7bfe9555cc35c7e195d4262ffb29188ac", "addresses": ["16nQ1Zjg7CVzi67uWm877cKCmfSgZ4xvZo"], "asm": "OP_DUP OP_HASH160 3f6e8e0478a7bfe9555cc35c7e195d4262ffb291 OP_EQUALVERIFY OP_CHECKSIG", "type": "pubkeyhash"}, "value": 0.12038362, "n": 1}], "hex": "020000000124bff99a2bd4a48aeb9a39dc73c98b2a0d14b4b5b1b483e221ad8fc058473a47000000006a473044022019e06d00c8986ab2af1a0389a076353902f13edaebefdbe3b1cdea0d0bfae1b80220620d614ba55188ecd9996f679ea7dd232df95969037c5463ce980defa2518af50121021aebf5928f5a8bd74c26821f20e07c4b541c90a55425c3b9ff1fd64f4ad4d1eafeffffff02f0874b000000000017a9147136823ff54ecf40673bae15b04fdd28f4d91de887dab0b700000000001976a9143f6e8e0478a7bfe9555cc35c7e195d4262ffb29188ac0e490800", "vin": [{"sequence": 4294967294, "scriptSig": {"hex": "473044022019e06d00c8986ab2af1a0389a076353902f13edaebefdbe3b1cdea0d0bfae1b80220620d614ba55188ecd9996f679ea7dd232df95969037c5463ce980defa2518af50121021aebf5928f5a8bd74c26821f20e07c4b541c90a55425c3b9ff1fd64f4ad4d1ea", "asm": "3044022019e06d00c8986ab2af1a0389a076353902f13edaebefdbe3b1cdea0d0bfae1b80220620d614ba55188ecd9996f679ea7dd232df95969037c5463ce980defa2518af5[ALL] 021aebf5928f5a8bd74c26821f20e07c4b541c90a55425c3b9ff1fd64f4ad4d1ea"}, "vout": 0, "txid": "473a4758c08fad21e283b4b1b5b4140d2a8bc973dc399aeb8aa4d42b9af9bf24"}], "txid": "87d2c69a28f7f5841df397e2f695df1057e261410e303e584a455fd686bef4fd", "blocktime": 1537870928, "version": 2, "confirmations": 11514, "time": 1537870928, "locktime": 542990, "vsize": 223, "size": 223}