{"hash": "87d71b9f8354faad402ae3120a33b958e01efb26533bd36286dcac7ca51f3173", "blockhash": "00000000000000000018f53835495a110e01622372bf6ae95dc86f2b0ab887b0", "vout": [{"scriptPubKey": {"reqSigs": 1, "hex": "a914270f6bd83532cb120efd65b6f9e8848ca0a9e0fc87", "addresses": ["35FYkWk3fLQHFgfJ5eYVZRX7ju4Py2DC8r"], "asm": "OP_HASH160 270f6bd83532cb120efd65b6f9e8848ca0a9e0fc OP_EQUAL", "type": "scripthash"}, "value": 0.00235, "n": 0}, {"scriptPubKey": {"reqSigs": 1, "hex": "76a9145e1e21dd5773feba7eb739c508c037be7270674588ac", "addresses": ["19aecfGg49wvTBFkd5dib1YY2iqBdprG9G"], "asm": "OP_DUP OP_HASH160 5e1e21dd5773feba7eb739c508c037be72706745 OP_EQUALVERIFY OP_CHECKSIG", "type": "pubkeyhash"}, "value": 0.00963813, "n": 1}], "hex": "0100000001e7e5c6d2224f9b00157f1ad8f5d18927142ba70f48d38503d118fbe52ac4bb61000000006a47304402200b7543f5fdae9934e46b69a34dc3d26520fa2bffca7935a7a3989c165dd6b4230220697f7d444b28c7191fa9f02b6f28e7f4b855fc660755e4293eff1336501f0c260121025f4b0aaa1e5a214847b40a4fdd81f75196984817b96a9f967ca9f7c7abc1c31efdffffff02f89503000000000017a914270f6bd83532cb120efd65b6f9e8848ca0a9e0fc87e5b40e00000000001976a9145e1e21dd5773feba7eb739c508c037be7270674588ac0e490800", "vin": [{"sequence": 4294967293, "scriptSig": {"hex": "47304402200b7543f5fdae9934e46b69a34dc3d26520fa2bffca7935a7a3989c165dd6b4230220697f7d444b28c7191fa9f02b6f28e7f4b855fc660755e4293eff1336501f0c260121025f4b0aaa1e5a214847b40a4fdd81f75196984817b96a9f967ca9f7c7abc1c31e", "asm": "304402200b7543f5fdae9934e46b69a34dc3d26520fa2bffca7935a7a3989c165dd6b4230220697f7d444b28c7191fa9f02b6f28e7f4b855fc660755e4293eff1336501f0c26[ALL] 025f4b0aaa1e5a214847b40a4fdd81f75196984817b96a9f967ca9f7c7abc1c31e"}, "vout": 0, "txid": "61bbc42ae5fb18d10385d3480fa72b142789d1f5d81a7f15009b4f22d2c6e5e7"}], "txid": "87d71b9f8354faad402ae3120a33b958e01efb26533bd36286dcac7ca51f3173", "blocktime": 1537870928, "version": 1, "confirmations": 11512, "time": 1537870928, "locktime": 542990, "vsize": 223, "size": 223}