{"hash": "2a05bec7e4feb8c122c77a088e85f58c14934409c0df1794925f54932fc7f0b3", "blockhash": "0000000000000000001cda96e906b7601b7a6fb1a3b62bca570a9e5d8f4b3de1", "vout": [{"scriptPubKey": {"reqSigs": 1, "hex": "a914014715d3c79f7b2ccdcb71a5960b016ba5f09bb887", "addresses": ["31omkpsgjF6KELoWn4taTjVqqtxmzeyjgN"], "asm": "OP_HASH160 014715d3c79f7b2ccdcb71a5960b016ba5f09bb8 OP_EQUAL", "type": "scripthash"}, "value": 0.040872, "n": 0}, {"scriptPubKey": {"reqSigs": 1, "hex": "001452585ed459cd08a8538781795c962f06d474b47c", "addresses": ["bc1q2fv9a4zee5y2s5u8s9u4e930qm28fdruwqzf0v"], "asm": "0 52585ed459cd08a8538781795c962f06d474b47c", "type": "witness_v0_keyhash"}, "value": 0.03398217, "n": 1}], "hex": "01000000000101d05b673667a3f7fbc64ee016fdbdc9ada76de11941a652d667e2179d00a49bfd6400000017160014947d547703e6028597f254be3775050ccc41f1a3ffffffff02a05d3e000000000017a914014715d3c79f7b2ccdcb71a5960b016ba5f09bb88749da33000000000016001452585ed459cd08a8538781795c962f06d474b47c02483045022100edc077fa855f71cb17daf18647dfefe0c40bb95b9207fade628fb15ab77c192a02207ff0efb3015c748eb087c7b617433501151506c5244a56a56b0e77aae5b9dc9201210203353c9c83d1d351c067af4f07685cbdb012d06a30388234ea6ea25d9230d58600000000", "vin": [{"txinwitness": ["3045022100edc077fa855f71cb17daf18647dfefe0c40bb95b9207fade628fb15ab77c192a02207ff0efb3015c748eb087c7b617433501151506c5244a56a56b0e77aae5b9dc9201", "0203353c9c83d1d351c067af4f07685cbdb012d06a30388234ea6ea25d9230d586"], "sequence": 4294967295, "scriptSig": {"hex": "160014947d547703e6028597f254be3775050ccc41f1a3", "asm": "0014947d547703e6028597f254be3775050ccc41f1a3"}, "vout": 100, "txid": "fd9ba4009d17e267d652a64119e16da7adc9bdfd16e04ec6fbf7a36736675bd0"}], "txid": "87e0cfb751e05363bc5dc6e2622f64976c0684e9f85905086f6c7d55be78d4df", "blocktime": 1537873282, "version": 1, "confirmations": 11484, "time": 1537873282, "locktime": 0, "vsize": 165, "size": 247}