{"hash": "87f08939e83b4951c364564650f43b738c3f9f192433772faa11a777d8cb6494", "blockhash": "0000000000000000001cda96e906b7601b7a6fb1a3b62bca570a9e5d8f4b3de1", "vout": [{"scriptPubKey": {"reqSigs": 1, "hex": "76a914bdc03ace076aa3ff993171d2f0431a439f5362a488ac", "addresses": ["1JJJzcPMLkEZD8H73iLG1A4XkNUYr5RQta"], "asm": "OP_DUP OP_HASH160 bdc03ace076aa3ff993171d2f0431a439f5362a4 OP_EQUALVERIFY OP_CHECKSIG", "type": "pubkeyhash"}, "value": 0.00528488, "n": 0}, {"scriptPubKey": {"reqSigs": 1, "hex": "a914b0384ede304c7037d447c9969c06972a85b72bdc87", "addresses": ["3HknJfDdXMcMajyg2WDGPTVrFbXcBUAwii"], "asm": "OP_HASH160 b0384ede304c7037d447c9969c06972a85b72bdc OP_EQUAL", "type": "scripthash"}, "value": 0.01, "n": 1}], "hex": "0100000001c3b994806b79362ec42be54ef34be942ed66b9ed040805818fa00382b93fea10010000006a473044022071655804b35346b2fd84f272593f89264cf9777aa8b04dee490d5edbb7be3f2902204696ef10b5fca33a4243ffaad3b3c8efd95c5a21dd8ef702321d888157ad22bc01210345e63371b90a63ed071945f04ca7231d0d51f690b09a0d9202071f0255b297b8ffffffff0268100800000000001976a914bdc03ace076aa3ff993171d2f0431a439f5362a488ac40420f000000000017a914b0384ede304c7037d447c9969c06972a85b72bdc8700000000", "vin": [{"sequence": 4294967295, "scriptSig": {"hex": "473044022071655804b35346b2fd84f272593f89264cf9777aa8b04dee490d5edbb7be3f2902204696ef10b5fca33a4243ffaad3b3c8efd95c5a21dd8ef702321d888157ad22bc01210345e63371b90a63ed071945f04ca7231d0d51f690b09a0d9202071f0255b297b8", "asm": "3044022071655804b35346b2fd84f272593f89264cf9777aa8b04dee490d5edbb7be3f2902204696ef10b5fca33a4243ffaad3b3c8efd95c5a21dd8ef702321d888157ad22bc[ALL] 0345e63371b90a63ed071945f04ca7231d0d51f690b09a0d9202071f0255b297b8"}, "vout": 1, "txid": "10ea3fb98203a08f81050804edb966ed42e94bf34ee52bc42e36796b8094b9c3"}], "txid": "87f08939e83b4951c364564650f43b738c3f9f192433772faa11a777d8cb6494", "blocktime": 1537873282, "version": 1, "confirmations": 11485, "time": 1537873282, "locktime": 0, "vsize": 223, "size": 223}