{"hash": "87f22f962152ea15784b5b8e2ff2d43d16ad827cc54e209fb9a2ec580e2d6bf2", "blockhash": "0000000000000000001cda96e906b7601b7a6fb1a3b62bca570a9e5d8f4b3de1", "vout": [{"scriptPubKey": {"reqSigs": 1, "hex": "76a9143d712e4c52ad2adf40e6106f70731c0f3e4046d988ac", "addresses": ["16bsoeRCKUQiHGbuV1zRcv2Nu5gVgpnZsM"], "asm": "OP_DUP OP_HASH160 3d712e4c52ad2adf40e6106f70731c0f3e4046d9 OP_EQUALVERIFY OP_CHECKSIG", "type": "pubkeyhash"}, "value": 0.00299433, "n": 0}, {"scriptPubKey": {"reqSigs": 1, "hex": "a914d188496a69b1c9bb5092f78558dfe23497063a2587", "addresses": ["3LnvR1QULK9LRv8iDvEcndk7a6GevL7YFA"], "asm": "OP_HASH160 d188496a69b1c9bb5092f78558dfe23497063a25 OP_EQUAL", "type": "scripthash"}, "value": 0.009, "n": 1}], "hex": "0100000001ee3b5ba717d12bcbcad7ca6947a4db34226ccccf576554cb858634ac60ab7ad6000000006b483045022100def752f70a3baddbd427a82906dd93e3b7f1377491a3ef9f89434c815a3fc4e902206d1f800cac3e89d21abed2ac5e1ca8825e78bbbf4f105d93f9bd7bb576259401012103dafb29b1983b7f7d7efc5c550c9cfd3e012e70cf197b54d5e28bbad568a37793ffffffff02a9910400000000001976a9143d712e4c52ad2adf40e6106f70731c0f3e4046d988aca0bb0d000000000017a914d188496a69b1c9bb5092f78558dfe23497063a258700000000", "vin": [{"sequence": 4294967295, "scriptSig": {"hex": "483045022100def752f70a3baddbd427a82906dd93e3b7f1377491a3ef9f89434c815a3fc4e902206d1f800cac3e89d21abed2ac5e1ca8825e78bbbf4f105d93f9bd7bb576259401012103dafb29b1983b7f7d7efc5c550c9cfd3e012e70cf197b54d5e28bbad568a37793", "asm": "3045022100def752f70a3baddbd427a82906dd93e3b7f1377491a3ef9f89434c815a3fc4e902206d1f800cac3e89d21abed2ac5e1ca8825e78bbbf4f105d93f9bd7bb576259401[ALL] 03dafb29b1983b7f7d7efc5c550c9cfd3e012e70cf197b54d5e28bbad568a37793"}, "vout": 0, "txid": "d67aab60ac348685cb546557cfcc6c2234dba44769cad7cacb2bd117a75b3bee"}], "txid": "87f22f962152ea15784b5b8e2ff2d43d16ad827cc54e209fb9a2ec580e2d6bf2", "blocktime": 1537873282, "version": 1, "confirmations": 11485, "time": 1537873282, "locktime": 0, "vsize": 224, "size": 224}