{"hash": "87f3e12091effc677f5e1a24d170a9f635e919bb6f351ce1c11f674cca0467cb", "blockhash": "00000000000000000017f5eb5941039fbcee6240d03bc1f2f8e35350df66a1d8", "vout": [{"scriptPubKey": {"type": "nulldata", "hex": "6a4c50000077f40001fc28e6b5ad2529de39b27bfad19ed074892d00f8e87af8e8e963c7cfd5b9e4473a4344f48ffff1016eb0571f15905baa18a406131478cd4004751d100759d4ba30d2c37bb011d97e02cf", "asm": "OP_RETURN 000077f40001fc28e6b5ad2529de39b27bfad19ed074892d00f8e87af8e8e963c7cfd5b9e4473a4344f48ffff1016eb0571f15905baa18a406131478cd4004751d100759d4ba30d2c37bb011d97e02cf"}, "value": 0.0, "n": 0}, {"scriptPubKey": {"reqSigs": 1, "hex": "76a9140fd6b929d7dfd23afd422fa6cc8c785b7c61c57688ac", "addresses": ["12SkN7auEYQtxQgj4ACTGacUcQ74uTLxrN"], "asm": "OP_DUP OP_HASH160 0fd6b929d7dfd23afd422fa6cc8c785b7c61c576 OP_EQUALVERIFY OP_CHECKSIG", "type": "pubkeyhash"}, "value": 0.00634784, "n": 1}], "hex": "0100000001266454e8cb135d09aa3c276ada4adc23eaedde5a89bbb1daa6271d4533ffb594010000006a47304402205e6a49fe08d0c7bdd67a700583e25e8c2394fecb25fa6b81e1ae3771b04fe73802203fa7ac670b995f4f32aaf6f6b7ccc6f44f5ed8ce4881c8a1d0738011a55aa004012103206b1c5757233601b882cad551a0d7c33f6a05f0fb9a7f4df28207b69a887f70ffffffff020000000000000000536a4c50000077f40001fc28e6b5ad2529de39b27bfad19ed074892d00f8e87af8e8e963c7cfd5b9e4473a4344f48ffff1016eb0571f15905baa18a406131478cd4004751d100759d4ba30d2c37bb011d97e02cfa0af0900000000001976a9140fd6b929d7dfd23afd422fa6cc8c785b7c61c57688ac00000000", "vin": [{"sequence": 4294967295, "scriptSig": {"hex": "47304402205e6a49fe08d0c7bdd67a700583e25e8c2394fecb25fa6b81e1ae3771b04fe73802203fa7ac670b995f4f32aaf6f6b7ccc6f44f5ed8ce4881c8a1d0738011a55aa004012103206b1c5757233601b882cad551a0d7c33f6a05f0fb9a7f4df28207b69a887f70", "asm": "304402205e6a49fe08d0c7bdd67a700583e25e8c2394fecb25fa6b81e1ae3771b04fe73802203fa7ac670b995f4f32aaf6f6b7ccc6f44f5ed8ce4881c8a1d0738011a55aa004[ALL] 03206b1c5757233601b882cad551a0d7c33f6a05f0fb9a7f4df28207b69a887f70"}, "vout": 1, "txid": "94b5ff33451d27a6dab1bb895adeedea23dc4ada6a273caa095d13cbe8546426"}], "txid": "87f3e12091effc677f5e1a24d170a9f635e919bb6f351ce1c11f674cca0467cb", "blocktime": 1537874412, "version": 1, "confirmations": 11467, "time": 1537874412, "locktime": 0, "vsize": 283, "size": 283}