{"hash": "87fae8feec02272556962f10829ca392c8068dddcd5c9acbfd7ab53dbb6f3bd6", "blockhash": "0000000000000000001f0ddff1eddb255c1121bcd4da4f1bc9a0da00cae72433", "vout": [{"scriptPubKey": {"reqSigs": 1, "hex": "a914430a93fe389abccec43916f1fdfffae52752325887", "addresses": ["37oVsNjVLkp2jrG2QqKc1Pm3cuJ1XTA4Zh"], "asm": "OP_HASH160 430a93fe389abccec43916f1fdfffae527523258 OP_EQUAL", "type": "scripthash"}, "value": 5.46e-06, "n": 0}, {"scriptPubKey": {"reqSigs": 1, "hex": "a9143f4eecba122ad73039d481c8d37f99cb4f887cd887", "addresses": ["37Tm3Qz8Zw2VJrheUUhArDAoq58S6YrS3g"], "asm": "OP_HASH160 3f4eecba122ad73039d481c8d37f99cb4f887cd8 OP_EQUAL", "type": "scripthash"}, "value": 0.99966902, "n": 1}, {"scriptPubKey": {"type": "nulldata", "hex": "6a146f6d6e69000000000000001f000000d114f89400", "asm": "OP_RETURN 6f6d6e69000000000000001f000000d114f89400"}, "value": 0.0, "n": 2}], "hex": "0100000001389646f56e8cea3561d6e2a37b6fc339982f977c4c581c1498284ff3c555387501000000fdfd000047304402201d23c5588e6ad35d29970d1179ffe1ca34161a6f958e446b660f941bd8c6ba9002202066f55f75c108d7957094737f292718a70cbfa2736aa8c86828a8e7034a4dec01483045022100fb2e271627fd2095ed910b9f0c0111fafd8b8758858cda93e8ff79997a60c10c0220194db887c83aff823ee52e2b394c2c35d773cdcc9db8cd7fa7f9df647f59e110014c6952210246ccf4de0c54cc7f3354cdd993c2c50cf965fd82238b89659fbd73a1b4bf05a121024fc59f72272a897fe43803374969f396058152fe4765a8d15216f94624257b1b21022593bc69ecbf3bbcc3c58082267cb49dadaf4ca8dbf1b2297338a9d628c4297653aeffffffff03220200000000000017a914430a93fe389abccec43916f1fdfffae52752325887b65ff5050000000017a9143f4eecba122ad73039d481c8d37f99cb4f887cd8870000000000000000166a146f6d6e69000000000000001f000000d114f8940000000000", "vin": [{"sequence": 4294967295, "scriptSig": {"hex": "0047304402201d23c5588e6ad35d29970d1179ffe1ca34161a6f958e446b660f941bd8c6ba9002202066f55f75c108d7957094737f292718a70cbfa2736aa8c86828a8e7034a4dec01483045022100fb2e271627fd2095ed910b9f0c0111fafd8b8758858cda93e8ff79997a60c10c0220194db887c83aff823ee52e2b394c2c35d773cdcc9db8cd7fa7f9df647f59e110014c6952210246ccf4de0c54cc7f3354cdd993c2c50cf965fd82238b89659fbd73a1b4bf05a121024fc59f72272a897fe43803374969f396058152fe4765a8d15216f94624257b1b21022593bc69ecbf3bbcc3c58082267cb49dadaf4ca8dbf1b2297338a9d628c4297653ae", "asm": "0 304402201d23c5588e6ad35d29970d1179ffe1ca34161a6f958e446b660f941bd8c6ba9002202066f55f75c108d7957094737f292718a70cbfa2736aa8c86828a8e7034a4dec[ALL] 3045022100fb2e271627fd2095ed910b9f0c0111fafd8b8758858cda93e8ff79997a60c10c0220194db887c83aff823ee52e2b394c2c35d773cdcc9db8cd7fa7f9df647f59e110[ALL] 52210246ccf4de0c54cc7f3354cdd993c2c50cf965fd82238b89659fbd73a1b4bf05a121024fc59f72272a897fe43803374969f396058152fe4765a8d15216f94624257b1b21022593bc69ecbf3bbcc3c58082267cb49dadaf4ca8dbf1b2297338a9d628c4297653ae"}, "vout": 1, "txid": "753855c5f34f2898141c584c7c972f9839c36f7ba3e2d66135ea8c6ef5469638"}], "txid": "87fae8feec02272556962f10829ca392c8068dddcd5c9acbfd7ab53dbb6f3bd6", "blocktime": 1537872018, "version": 1, "confirmations": 11489, "time": 1537872018, "locktime": 0, "vsize": 401, "size": 401}