{"hash": "87fd143e0f8d72df1ee8ee06ff630c155c399e954f9f645eab486294c594ea42", "blockhash": "0000000000000000000e13cef7c366c0283d82e591d1acd082e914b08063cdf1", "vout": [{"scriptPubKey": {"reqSigs": 1, "hex": "a9147a87c34f6b905ce24beda9a6a82681e20bb5741687", "addresses": ["3CrtzvN1SmQhySAutuTR76nUdtuiYVV9tA"], "asm": "OP_HASH160 7a87c34f6b905ce24beda9a6a82681e20bb57416 OP_EQUAL", "type": "scripthash"}, "value": 0.01478445, "n": 0}], "hex": "01000000016a4692342f06583810d6ff3cdf3f5ce16bbf83f720b02e32434121cde3b545fe000000006b483045022100e64db75017b828a5fd59af856db0b60f4f8dd99c6c3eae4975b2a122793a290902204176001b7a37f2a3872f78e99e7f33575e37ee2e2e1681ffd66f3e94a62d66f101210217ee4e2221d473fd01464570ffef937006f92550d1d38ae8a901329ca47b9d39ffffffff012d8f16000000000017a9147a87c34f6b905ce24beda9a6a82681e20bb574168700000000", "vin": [{"sequence": 4294967295, "scriptSig": {"hex": "483045022100e64db75017b828a5fd59af856db0b60f4f8dd99c6c3eae4975b2a122793a290902204176001b7a37f2a3872f78e99e7f33575e37ee2e2e1681ffd66f3e94a62d66f101210217ee4e2221d473fd01464570ffef937006f92550d1d38ae8a901329ca47b9d39", "asm": "3045022100e64db75017b828a5fd59af856db0b60f4f8dd99c6c3eae4975b2a122793a290902204176001b7a37f2a3872f78e99e7f33575e37ee2e2e1681ffd66f3e94a62d66f1[ALL] 0217ee4e2221d473fd01464570ffef937006f92550d1d38ae8a901329ca47b9d39"}, "vout": 0, "txid": "fe45b5e3cd214143322eb020f783bf6be15c3fdf3cffd6103858062f3492466a"}], "txid": "87fd143e0f8d72df1ee8ee06ff630c155c399e954f9f645eab486294c594ea42", "blocktime": 1537871767, "version": 1, "confirmations": 11491, "time": 1537871767, "locktime": 0, "vsize": 190, "size": 190}