{"hash": "87ffb8dca27bf5570451d3fdaa1903a084ae260a45c9d7a0959429b867bf416b", "blockhash": "0000000000000000001cda96e906b7601b7a6fb1a3b62bca570a9e5d8f4b3de1", "vout": [{"scriptPubKey": {"reqSigs": 1, "hex": "76a9147331fb82f60c399a0934fba3239852d9a537ae3288ac", "addresses": ["1BW6auPLh7CBx2gtAAVknr91a4Kv2MYJEr"], "asm": "OP_DUP OP_HASH160 7331fb82f60c399a0934fba3239852d9a537ae32 OP_EQUALVERIFY OP_CHECKSIG", "type": "pubkeyhash"}, "value": 0.004763, "n": 0}, {"scriptPubKey": {"reqSigs": 1, "hex": "76a9146f13c31095be67e6d2df7f667a87bae75b7116e588ac", "addresses": ["1B8KgNz8EkAxUzZopJoRaPHRhnSwsfUELZ"], "asm": "OP_DUP OP_HASH160 6f13c31095be67e6d2df7f667a87bae75b7116e5 OP_EQUALVERIFY OP_CHECKSIG", "type": "pubkeyhash"}, "value": 0.03670271, "n": 1}], "hex": "010000000177e85bfa80cda95607674348b6f186fd5d1c8901bb5efc8cd27e7503883e9a4b010000006a473044022050df557bd60086ed46512522515b29ebbd6e8d38a30d679db32621d532f210e402202e76f8888fc09fa4338234f354bfb000751aa9d9d9abf3fef84db34c8e04509d0121031c26bd78051691832e32a30c8ef1a088bcbad58c28865e42f859c198051cf2f1ffffffff028c440700000000001976a9147331fb82f60c399a0934fba3239852d9a537ae3288acff003800000000001976a9146f13c31095be67e6d2df7f667a87bae75b7116e588ac00000000", "vin": [{"sequence": 4294967295, "scriptSig": {"hex": "473044022050df557bd60086ed46512522515b29ebbd6e8d38a30d679db32621d532f210e402202e76f8888fc09fa4338234f354bfb000751aa9d9d9abf3fef84db34c8e04509d0121031c26bd78051691832e32a30c8ef1a088bcbad58c28865e42f859c198051cf2f1", "asm": "3044022050df557bd60086ed46512522515b29ebbd6e8d38a30d679db32621d532f210e402202e76f8888fc09fa4338234f354bfb000751aa9d9d9abf3fef84db34c8e04509d[ALL] 031c26bd78051691832e32a30c8ef1a088bcbad58c28865e42f859c198051cf2f1"}, "vout": 1, "txid": "4b9a3e8803757ed28cfc5ebb01891c5dfd86f1b64843670756a9cd80fa5be877"}], "txid": "87ffb8dca27bf5570451d3fdaa1903a084ae260a45c9d7a0959429b867bf416b", "blocktime": 1537873282, "version": 1, "confirmations": 11484, "time": 1537873282, "locktime": 0, "vsize": 225, "size": 225}