{"hash": "88009215f64b0dfb935137d2777593bd2dcbeb138abc315c99985a9ade22bc0e", "blockhash": "0000000000000000001e0dab787dd257d1dbfcb92a98c2207d5e1078be1f4165", "vout": [{"scriptPubKey": {"reqSigs": 1, "hex": "a914f912d89433ac6b90509f63a6a9ef49d91916c10a87", "addresses": ["3QPzkkeYHNLBkubCcw1EL9eN8QLuoptcAr"], "asm": "OP_HASH160 f912d89433ac6b90509f63a6a9ef49d91916c10a OP_EQUAL", "type": "scripthash"}, "value": 0.01464654, "n": 0}, {"scriptPubKey": {"reqSigs": 1, "hex": "76a914bf488596b65ed64c5b7991812fcf313f4d1ca02488ac", "addresses": ["1JSQwYbaYaF5MMuvhzJjTAcyRJn1YAycSk"], "asm": "OP_DUP OP_HASH160 bf488596b65ed64c5b7991812fcf313f4d1ca024 OP_EQUALVERIFY OP_CHECKSIG", "type": "pubkeyhash"}, "value": 0.04363613, "n": 1}], "hex": "01000000015290e21d43f1c242c1f2bf20ca789b5a375e92ad4cfcd211f0fc47510b85bcfc010000006a473044022073a9af30ad43afa5f62fca1a1e571b0db5c08478d9ef8e9412fe06d2b6604bfe02207723ef0fa4ef47a7b35f1a24d17dc7ddb58361d962b87d95ba101fc14fede6c10121028d73382365f408e1255dd43f35e06357ab6d4112ee280b7e4538a02f113e808efdffffff024e5916000000000017a914f912d89433ac6b90509f63a6a9ef49d91916c10a875d954200000000001976a914bf488596b65ed64c5b7991812fcf313f4d1ca02488ac12490800", "vin": [{"sequence": 4294967293, "scriptSig": {"hex": "473044022073a9af30ad43afa5f62fca1a1e571b0db5c08478d9ef8e9412fe06d2b6604bfe02207723ef0fa4ef47a7b35f1a24d17dc7ddb58361d962b87d95ba101fc14fede6c10121028d73382365f408e1255dd43f35e06357ab6d4112ee280b7e4538a02f113e808e", "asm": "3044022073a9af30ad43afa5f62fca1a1e571b0db5c08478d9ef8e9412fe06d2b6604bfe02207723ef0fa4ef47a7b35f1a24d17dc7ddb58361d962b87d95ba101fc14fede6c1[ALL] 028d73382365f408e1255dd43f35e06357ab6d4112ee280b7e4538a02f113e808e"}, "vout": 1, "txid": "fcbc850b5147fcf011d2fc4cad925e375a9b78ca20bff2c142c2f1431de29052"}], "txid": "88009215f64b0dfb935137d2777593bd2dcbeb138abc315c99985a9ade22bc0e", "blocktime": 1537872475, "version": 1, "confirmations": 11486, "time": 1537872475, "locktime": 542994, "vsize": 223, "size": 223}