{"hash": "88014729c9d96051680d8f0c190ca21bb485f8bde3f17f39ff95e1a9bbbecbac", "blockhash": "0000000000000000001e0dab787dd257d1dbfcb92a98c2207d5e1078be1f4165", "vout": [{"scriptPubKey": {"reqSigs": 1, "hex": "76a914ee38e1e9fafd91408945a20034e3bbbf1d0a150688ac", "addresses": ["1NibxvKr6PkzLRPduCCxjRi7igu6ypCQv3"], "asm": "OP_DUP OP_HASH160 ee38e1e9fafd91408945a20034e3bbbf1d0a1506 OP_EQUALVERIFY OP_CHECKSIG", "type": "pubkeyhash"}, "value": 0.00435141, "n": 0}, {"scriptPubKey": {"reqSigs": 1, "hex": "a9148b7a07acca2d4c7a121fd33d330f1fe42867bbc787", "addresses": ["3EQW2zwmqu9yvdsHoCwvx8LhsSUDH4DswP"], "asm": "OP_HASH160 8b7a07acca2d4c7a121fd33d330f1fe42867bbc7 OP_EQUAL", "type": "scripthash"}, "value": 0.005, "n": 1}], "hex": "01000000017cc0a246ff29a8c9aa825d4865f666cbfacb50ab3749813cba62910af2d3f2e7010000006b483045022100cad395a66123b5dc7377ee778d4b0685597a0991fc582d68c8ca51f8b682f76d02204743853affc47e4be9955179655424f225c0814de1729647b0ddee0721f250170121029fb9e9115186ef447c534da8785171117b1eda8f0fe81ee2bdbd71e20c0b6fa2ffffffff02c5a30600000000001976a914ee38e1e9fafd91408945a20034e3bbbf1d0a150688ac20a107000000000017a9148b7a07acca2d4c7a121fd33d330f1fe42867bbc78700000000", "vin": [{"sequence": 4294967295, "scriptSig": {"hex": "483045022100cad395a66123b5dc7377ee778d4b0685597a0991fc582d68c8ca51f8b682f76d02204743853affc47e4be9955179655424f225c0814de1729647b0ddee0721f250170121029fb9e9115186ef447c534da8785171117b1eda8f0fe81ee2bdbd71e20c0b6fa2", "asm": "3045022100cad395a66123b5dc7377ee778d4b0685597a0991fc582d68c8ca51f8b682f76d02204743853affc47e4be9955179655424f225c0814de1729647b0ddee0721f25017[ALL] 029fb9e9115186ef447c534da8785171117b1eda8f0fe81ee2bdbd71e20c0b6fa2"}, "vout": 1, "txid": "e7f2d3f20a9162ba3c814937ab50cbfacb66f665485d82aac9a829ff46a2c07c"}], "txid": "88014729c9d96051680d8f0c190ca21bb485f8bde3f17f39ff95e1a9bbbecbac", "blocktime": 1537872475, "version": 1, "confirmations": 11486, "time": 1537872475, "locktime": 0, "vsize": 224, "size": 224}