{"hash": "77f1c7565c93d237a19484f038d258c3b0559cc7786f74b16e40db0b642bcb8e", "blockhash": "00000000000000000017f5eb5941039fbcee6240d03bc1f2f8e35350df66a1d8", "vout": [{"scriptPubKey": {"reqSigs": 1, "hex": "76a9149e95ab32f2a1491c409ea64d8851d9eaec503c0088ac", "addresses": ["1FTX4UcG2YPucpQ1nFvfHGfwpnNN5RuJB7"], "asm": "OP_DUP OP_HASH160 9e95ab32f2a1491c409ea64d8851d9eaec503c00 OP_EQUALVERIFY OP_CHECKSIG", "type": "pubkeyhash"}, "value": 0.00165, "n": 0}, {"scriptPubKey": {"reqSigs": 1, "hex": "a9145c322f78ef0757a726357da1cd14855b955f82c287", "addresses": ["3A6WD8w6jArWj1WtcKuDqEHYVtVrAKag8P"], "asm": "OP_HASH160 5c322f78ef0757a726357da1cd14855b955f82c2 OP_EQUAL", "type": "scripthash"}, "value": 0.00439329, "n": 1}], "hex": "0100000000010118a88c3505102f433e8313f4fe107df23fed7a56471e6b5e47457d2c9ffdc854000000001716001466dfcd9afea76073ddf7a2972b8fc46f8a5704f4ffffffff0288840200000000001976a9149e95ab32f2a1491c409ea64d8851d9eaec503c0088ac21b406000000000017a9145c322f78ef0757a726357da1cd14855b955f82c2870247304402201240b6ac30be585a2d423f91e9d0eaa854c89d47e16b4ddb3b271b440ce5994a022015d3ecfb1b1bd77a6cb18b89277d9818e401c04843db778b657cfa9d0891d3fe012102cfd3c2a1c04b4eb810bf6393db46b437413a49efd603d0e022f9d10ddf69283200000000", "vin": [{"txinwitness": ["304402201240b6ac30be585a2d423f91e9d0eaa854c89d47e16b4ddb3b271b440ce5994a022015d3ecfb1b1bd77a6cb18b89277d9818e401c04843db778b657cfa9d0891d3fe01", "02cfd3c2a1c04b4eb810bf6393db46b437413a49efd603d0e022f9d10ddf692832"], "sequence": 4294967295, "scriptSig": {"hex": "16001466dfcd9afea76073ddf7a2972b8fc46f8a5704f4", "asm": "001466dfcd9afea76073ddf7a2972b8fc46f8a5704f4"}, "vout": 0, "txid": "54c8fd9f2c7d45475e6b1e47567aed3ff27d10fef413833e432f1005358ca818"}], "txid": "880de450d2b49bbbec6320f6c0d5561281e8c7a9875e69e88b5f934c646a5d86", "blocktime": 1537874412, "version": 1, "confirmations": 11468, "time": 1537874412, "locktime": 0, "vsize": 168, "size": 249}