{"hash": "dc1535a60c8f73be118b79da5d7f6328af0078c683d74b64551bf213d0df1c9d", "blockhash": "0000000000000000000baef3f32e3676a92c3b2e5da21b426e4f302fc371ce76", "vout": [{"scriptPubKey": {"reqSigs": 1, "hex": "a914e7f6008f3f326e93da7121860fd7c9fb06a1b1c687", "addresses": ["3NqWiPTpivKDN1AwKpV9EhjzZZwTDwSwLv"], "asm": "OP_HASH160 e7f6008f3f326e93da7121860fd7c9fb06a1b1c6 OP_EQUAL", "type": "scripthash"}, "value": 1.01e-05, "n": 0}, {"scriptPubKey": {"reqSigs": 1, "hex": "a9141d7370ccde4590204155e4074f69743a8e4fac0287", "addresses": ["34Njp4ZKtmCDfqqps26wHBYQQGUo2pGkLi"], "asm": "OP_HASH160 1d7370ccde4590204155e4074f69743a8e4fac02 OP_EQUAL", "type": "scripthash"}, "value": 0.00046007, "n": 1}], "hex": "01000000000101d6e331c0a963d6660f66f30006766be5f499753c88d9518678082668bafd42870100000023220020f63dfc12340f6360d0251c22746d6b56093e3243e96ca012a65484a5d9cf0ec0ffffffff02f20300000000000017a914e7f6008f3f326e93da7121860fd7c9fb06a1b1c687b7b300000000000017a9141d7370ccde4590204155e4074f69743a8e4fac02870400473044022033a22f582d32a6f06f266187c281094e779558c0e2fe43fdc523d1e54ec0742802201cee5189e7ed46456ba9308e9a4fe1232a02445274e569a7a69f77ee4d26792301473044022019ef293310bb35a1d7b132e82a81167a8eaf51b4f87aa11734e52a633b254443022040ff41793a4ecc9cf9edb130e69955eee25d7f5b5aa2f35a84757eab9fcaad9d0147522102097067a6a0cc130a9a6f6577b47bf369b840a79de31cd7457187994266b1bb7c2103338f346cab6ba87fe940591a03ac234be06520c5ab386d4b6632e8eef0d0db7652ae00000000", "vin": [{"txinwitness": ["", "3044022033a22f582d32a6f06f266187c281094e779558c0e2fe43fdc523d1e54ec0742802201cee5189e7ed46456ba9308e9a4fe1232a02445274e569a7a69f77ee4d26792301", "3044022019ef293310bb35a1d7b132e82a81167a8eaf51b4f87aa11734e52a633b254443022040ff41793a4ecc9cf9edb130e69955eee25d7f5b5aa2f35a84757eab9fcaad9d01", "522102097067a6a0cc130a9a6f6577b47bf369b840a79de31cd7457187994266b1bb7c2103338f346cab6ba87fe940591a03ac234be06520c5ab386d4b6632e8eef0d0db7652ae"], "sequence": 4294967295, "scriptSig": {"hex": "220020f63dfc12340f6360d0251c22746d6b56093e3243e96ca012a65484a5d9cf0ec0", "asm": "0020f63dfc12340f6360d0251c22746d6b56093e3243e96ca012a65484a5d9cf0ec0"}, "vout": 1, "txid": "8742fdba682608788651d9883c7599f4e56b760600f3660f66d663a9c031e3d6"}], "txid": "8810e080b0b03e2e8149cdcddbc87be5482fbd38163d0dababa7b2d165e76ba2", "blocktime": 1537876114, "version": 1, "confirmations": 11460, "time": 1537876114, "locktime": 0, "vsize": 205, "size": 370}