{"hash": "342554f4e186f6de3bf495053398b608d53ac58a2a1d99ffed26f604bb6f2f94", "blockhash": "0000000000000000000baef3f32e3676a92c3b2e5da21b426e4f302fc371ce76", "vout": [{"scriptPubKey": {"reqSigs": 1, "hex": "a9143d8c9a58977b023f4784748c112fec040436c24487", "addresses": ["37JTaWNM1a496rFTLEPWYwYcxkuUVQGktc"], "asm": "OP_HASH160 3d8c9a58977b023f4784748c112fec040436c244 OP_EQUAL", "type": "scripthash"}, "value": 0.01675, "n": 0}, {"scriptPubKey": {"reqSigs": 1, "hex": "a9149fedd0435a5346d19e10dbf067501f04f6a02d3687", "addresses": ["3GGeFcpTvbKcU9so2Fz4C8o4V2C9Du9Ngp"], "asm": "OP_HASH160 9fedd0435a5346d19e10dbf067501f04f6a02d36 OP_EQUAL", "type": "scripthash"}, "value": 4.6215179, "n": 1}], "hex": "010000000001011dac09b9b313611dcfad02e21207169db0a403e7e8b9c4d9c2b989e99bcf44a30100000023220020bdce0b87be1099509aee666bf280d91936d77265b9626a3811efa68c794ec6d9ffffffff02f88e19000000000017a9143d8c9a58977b023f4784748c112fec040436c244876ee08b1b0000000017a9149fedd0435a5346d19e10dbf067501f04f6a02d36870400483045022100d4f9b210a2f145a635e0992dd3824d50093d0a9fc5798747ba1fde292bf4d32b02206ccd939f4586673ee779072902e6bf60171a4ac4109667c417dd61266516dc8d014830450221008dde465f1e42aac645d7cf6ac8294df38e6b804035c90dbcefbfa967c6dbd70e022072149459029d528547f78f6448a56e512007738c9fda0952f42603f449106c5a0147522103eb143395e1f431f678a743f1647f1b19b73b3255e6eb16378dc614c75af6729821022a8a912ad76544ca20f666a2071879d22db3f19b68028bfb6e15e148dbbe91a252ae00000000", "vin": [{"txinwitness": ["", "3045022100d4f9b210a2f145a635e0992dd3824d50093d0a9fc5798747ba1fde292bf4d32b02206ccd939f4586673ee779072902e6bf60171a4ac4109667c417dd61266516dc8d01", "30450221008dde465f1e42aac645d7cf6ac8294df38e6b804035c90dbcefbfa967c6dbd70e022072149459029d528547f78f6448a56e512007738c9fda0952f42603f449106c5a01", "522103eb143395e1f431f678a743f1647f1b19b73b3255e6eb16378dc614c75af6729821022a8a912ad76544ca20f666a2071879d22db3f19b68028bfb6e15e148dbbe91a252ae"], "sequence": 4294967295, "scriptSig": {"hex": "220020bdce0b87be1099509aee666bf280d91936d77265b9626a3811efa68c794ec6d9", "asm": "0020bdce0b87be1099509aee666bf280d91936d77265b9626a3811efa68c794ec6d9"}, "vout": 1, "txid": "a344cf9be989b9c2d9c4b9e8e703a4b09d160712e202adcf1d6113b3b909ac1d"}], "txid": "881d92c339f525756bb5018f203ceaaf380bf01d51315fc69225bac57bd25601", "blocktime": 1537876114, "version": 1, "confirmations": 11460, "time": 1537876114, "locktime": 0, "vsize": 206, "size": 372}