{"hash": "88219fb4fb3b33905a057b47f854445e7d328100eb488a93156f621dccf33441", "blockhash": "00000000000000000017f5eb5941039fbcee6240d03bc1f2f8e35350df66a1d8", "vout": [{"scriptPubKey": {"type": "nulldata", "hex": "6a146f6d6e69000000000000001f00000d8188f99400", "asm": "OP_RETURN 6f6d6e69000000000000001f00000d8188f99400"}, "value": 0.0, "n": 0}, {"scriptPubKey": {"reqSigs": 1, "hex": "76a9148b427e2348c0b685d16027b3f25c766d9c7d72d488ac", "addresses": ["1DhLafHJKNbU1yRzU3fiVKcLk6U86d2VLk"], "asm": "OP_DUP OP_HASH160 8b427e2348c0b685d16027b3f25c766d9c7d72d4 OP_EQUALVERIFY OP_CHECKSIG", "type": "pubkeyhash"}, "value": 5.46e-06, "n": 1}, {"scriptPubKey": {"reqSigs": 1, "hex": "76a914a25dec4d0011064ef106a983c39c7a540699f22088ac", "addresses": ["1FoWyxwPXuj4C6abqwhjDWdz6D4PZgYRjA"], "asm": "OP_DUP OP_HASH160 a25dec4d0011064ef106a983c39c7a540699f220 OP_EQUALVERIFY OP_CHECKSIG", "type": "pubkeyhash"}, "value": 0.01995188, "n": 2}], "hex": "0100000001a44813c76173a4fe9689194c29809e35be05f1741d9b5e1e9e8bd44070ac1fea880000006b483045022100a84e6f5191c833778f6977b7cb0fe3c982afb006d274c29fffe56a8aa1410064022074c1eb651ea9e8bf8c569978a6184115314a36dab9cfc620d5719ce4a68ae919012103da5bac7b36d5aa38f531c6b9601e21bb598a4b6716ebed38b009a55dabde9440feffffff030000000000000000166a146f6d6e69000000000000001f00000d8188f9940022020000000000001976a9148b427e2348c0b685d16027b3f25c766d9c7d72d488acb4711e00000000001976a914a25dec4d0011064ef106a983c39c7a540699f22088ac15490800", "vin": [{"sequence": 4294967294, "scriptSig": {"hex": "483045022100a84e6f5191c833778f6977b7cb0fe3c982afb006d274c29fffe56a8aa1410064022074c1eb651ea9e8bf8c569978a6184115314a36dab9cfc620d5719ce4a68ae919012103da5bac7b36d5aa38f531c6b9601e21bb598a4b6716ebed38b009a55dabde9440", "asm": "3045022100a84e6f5191c833778f6977b7cb0fe3c982afb006d274c29fffe56a8aa1410064022074c1eb651ea9e8bf8c569978a6184115314a36dab9cfc620d5719ce4a68ae919[ALL] 03da5bac7b36d5aa38f531c6b9601e21bb598a4b6716ebed38b009a55dabde9440"}, "vout": 136, "txid": "ea1fac7040d48b9e1e5e9b1d74f105be359e80294c198996fea47361c71348a4"}], "txid": "88219fb4fb3b33905a057b47f854445e7d328100eb488a93156f621dccf33441", "blocktime": 1537874412, "version": 1, "confirmations": 11467, "time": 1537874412, "locktime": 542997, "vsize": 257, "size": 257}