{"hash": "8823510ebea705e1c85dc11e2891ffa61290c372f4b77caaf1575cb5814790a3", "blockhash": "0000000000000000001f0ddff1eddb255c1121bcd4da4f1bc9a0da00cae72433", "vout": [{"scriptPubKey": {"reqSigs": 1, "hex": "a91460ed21807dff26e1e56e2ed5047617146927aa2087", "addresses": ["3AXWs6orVWLdSpgZfSfCzgLwvAZzkCPmA1"], "asm": "OP_HASH160 60ed21807dff26e1e56e2ed5047617146927aa20 OP_EQUAL", "type": "scripthash"}, "value": 0.0070364, "n": 0}, {"scriptPubKey": {"reqSigs": 1, "hex": "76a9146ba26520fa5ce8ca5a21392967b2cd7f119d74fb88ac", "addresses": ["1Ap7qvyjxmsTBsuxzUEoB85Sgp3jFiN5sr"], "asm": "OP_DUP OP_HASH160 6ba26520fa5ce8ca5a21392967b2cd7f119d74fb OP_EQUALVERIFY OP_CHECKSIG", "type": "pubkeyhash"}, "value": 0.00077027, "n": 1}, {"scriptPubKey": {"reqSigs": 1, "hex": "76a914ee3b98527bba828f6a36fa8cb667b014cb4b0b6188ac", "addresses": ["1NifDPb3H3L7WrJp3VdCBrVAy5QhgHFRhF"], "asm": "OP_DUP OP_HASH160 ee3b98527bba828f6a36fa8cb667b014cb4b0b61 OP_EQUALVERIFY OP_CHECKSIG", "type": "pubkeyhash"}, "value": 8.199e-05, "n": 2}], "hex": "01000000028e33cdfbae7bc71fa48260757ba3973a309b8105be8f8f44ac69fd19db38cde100000000da00483045022100a89d39814db1b68b814d0e501e93f08d95884cef112867e8b3c08dc588ecd4b8022022d58fe97c4d653b53531dd3924515b3c7ff64cee37534cd23191b2ab875a72801473044022055147fc50bbbdad7cf2ee8ac782455c27cbe1710cb0481b9818a8c4b996eaa5402200e496570bb15364508466d3cda016264de02c7f2031733930d5ea306f14e7c8c014752210265e5d279e3e1c97a9cc966dec2d2d83f4eed03adc263a01c7d32247d21c529762102907a54bed8ad74b3f35638c60114ca240a308cb986f3f2f306178869a8880b6152aeffffffff5bdfd0ccf635c7ee03be993c9985c30e45fd889fcd70aeb22a15d7446af4dc9d010000006a473044022005ccea16505189e3f8e6d4a5bd3e4927f0ccde5e5626590e6e493248b679bb3c02202e7abfe799c6f0a5a9da5ce56f59218fc2a9b4ef37a67804188cd546a4797653012103707f1388bc0779beb98cf92e5ce2fb1dfe4e32a960148bc6a211d3bbdd569f3effffffff0398bc0a000000000017a91460ed21807dff26e1e56e2ed5047617146927aa2087e32c0100000000001976a9146ba26520fa5ce8ca5a21392967b2cd7f119d74fb88ac07200000000000001976a914ee3b98527bba828f6a36fa8cb667b014cb4b0b6188ac00000000", "vin": [{"sequence": 4294967295, "scriptSig": {"hex": "00483045022100a89d39814db1b68b814d0e501e93f08d95884cef112867e8b3c08dc588ecd4b8022022d58fe97c4d653b53531dd3924515b3c7ff64cee37534cd23191b2ab875a72801473044022055147fc50bbbdad7cf2ee8ac782455c27cbe1710cb0481b9818a8c4b996eaa5402200e496570bb15364508466d3cda016264de02c7f2031733930d5ea306f14e7c8c014752210265e5d279e3e1c97a9cc966dec2d2d83f4eed03adc263a01c7d32247d21c529762102907a54bed8ad74b3f35638c60114ca240a308cb986f3f2f306178869a8880b6152ae", "asm": "0 3045022100a89d39814db1b68b814d0e501e93f08d95884cef112867e8b3c08dc588ecd4b8022022d58fe97c4d653b53531dd3924515b3c7ff64cee37534cd23191b2ab875a728[ALL] 3044022055147fc50bbbdad7cf2ee8ac782455c27cbe1710cb0481b9818a8c4b996eaa5402200e496570bb15364508466d3cda016264de02c7f2031733930d5ea306f14e7c8c[ALL] 52210265e5d279e3e1c97a9cc966dec2d2d83f4eed03adc263a01c7d32247d21c529762102907a54bed8ad74b3f35638c60114ca240a308cb986f3f2f306178869a8880b6152ae"}, "vout": 0, "txid": "e1cd38db19fd69ac448f8fbe05819b303a97a37b756082a41fc77baefbcd338e"}, {"sequence": 4294967295, "scriptSig": {"hex": "473044022005ccea16505189e3f8e6d4a5bd3e4927f0ccde5e5626590e6e493248b679bb3c02202e7abfe799c6f0a5a9da5ce56f59218fc2a9b4ef37a67804188cd546a4797653012103707f1388bc0779beb98cf92e5ce2fb1dfe4e32a960148bc6a211d3bbdd569f3e", "asm": "3044022005ccea16505189e3f8e6d4a5bd3e4927f0ccde5e5626590e6e493248b679bb3c02202e7abfe799c6f0a5a9da5ce56f59218fc2a9b4ef37a67804188cd546a4797653[ALL] 03707f1388bc0779beb98cf92e5ce2fb1dfe4e32a960148bc6a211d3bbdd569f3e"}, "vout": 1, "txid": "9ddcf46a44d7152ab2ae70cd9f88fd450ec385993c99be03eec735f6ccd0df5b"}], "txid": "8823510ebea705e1c85dc11e2891ffa61290c372f4b77caaf1575cb5814790a3", "blocktime": 1537872018, "version": 1, "confirmations": 11489, "time": 1537872018, "locktime": 0, "vsize": 516, "size": 516}