{"hash": "882715dcf0502b6ba6288c774ae02c1cc0ab294eaecf956b77fea4436f0e15cc", "blockhash": "0000000000000000001cda96e906b7601b7a6fb1a3b62bca570a9e5d8f4b3de1", "vout": [{"scriptPubKey": {"reqSigs": 1, "hex": "76a914d36bbcaf6b2fd9ba1caa723667bdb2624e7d3e4e88ac", "addresses": ["1LGteBK8M7UMUbESijYTNcbVhMyRXosm1p"], "asm": "OP_DUP OP_HASH160 d36bbcaf6b2fd9ba1caa723667bdb2624e7d3e4e OP_EQUALVERIFY OP_CHECKSIG", "type": "pubkeyhash"}, "value": 0.00015169, "n": 0}, {"scriptPubKey": {"type": "nulldata", "hex": "6a4c50000077c2000127bf8044c92b98c2e7e936e2e5bf9ae76da98a211aaf6c953dd567cf27e798c5eb9fa6bbd974d69c74e697ce49a45baa12ca061327b08babefea4bbf23acfcfaac8058b692fe6808c31d", "asm": "OP_RETURN 000077c2000127bf8044c92b98c2e7e936e2e5bf9ae76da98a211aaf6c953dd567cf27e798c5eb9fa6bbd974d69c74e697ce49a45baa12ca061327b08babefea4bbf23acfcfaac8058b692fe6808c31d"}, "value": 0.0, "n": 1}], "hex": "01000000018f920c1771c4f8345fbb90b6eb2250cff90ef916e0766a1ae169fe4eacb900a4010000006b483045022100dd737db1e59c153172f226b4464e9c644f754079ec5b48cdb1e7315cb80727fb0220045ee6d544219443d15e2c33090a6159e1d9ccd7ff45e01f93db98fdf985fd9f01210285fd1ea733e121acf145bb143ce6f6cd289042461cdc8e7636cbc853f25e483cffffffff02413b0000000000001976a914d36bbcaf6b2fd9ba1caa723667bdb2624e7d3e4e88ac0000000000000000536a4c50000077c2000127bf8044c92b98c2e7e936e2e5bf9ae76da98a211aaf6c953dd567cf27e798c5eb9fa6bbd974d69c74e697ce49a45baa12ca061327b08babefea4bbf23acfcfaac8058b692fe6808c31d00000000", "vin": [{"sequence": 4294967295, "scriptSig": {"hex": "483045022100dd737db1e59c153172f226b4464e9c644f754079ec5b48cdb1e7315cb80727fb0220045ee6d544219443d15e2c33090a6159e1d9ccd7ff45e01f93db98fdf985fd9f01210285fd1ea733e121acf145bb143ce6f6cd289042461cdc8e7636cbc853f25e483c", "asm": "3045022100dd737db1e59c153172f226b4464e9c644f754079ec5b48cdb1e7315cb80727fb0220045ee6d544219443d15e2c33090a6159e1d9ccd7ff45e01f93db98fdf985fd9f[ALL] 0285fd1ea733e121acf145bb143ce6f6cd289042461cdc8e7636cbc853f25e483c"}, "vout": 1, "txid": "a400b9ac4efe69e11a6a76e016f90ef9cf5022ebb690bb5f34f8c471170c928f"}], "txid": "882715dcf0502b6ba6288c774ae02c1cc0ab294eaecf956b77fea4436f0e15cc", "blocktime": 1537873282, "version": 1, "confirmations": 11484, "time": 1537873282, "locktime": 0, "vsize": 284, "size": 284}