{"hash": "d9c7387b8354e621d1f6797483840defc67bfb07aa4ff624ea0a546a27dce712", "blockhash": "00000000000000000024a2167bbff67b0be802c0b01cdd79e6331c2be6459f87", "vout": [{"scriptPubKey": {"reqSigs": 1, "hex": "a914096d6c4d3b85eaee8de9c7c3f592acf3787da56187", "addresses": ["32Ys67kkR3SpKPSSinsRYkzYvXZPd7tCWz"], "asm": "OP_HASH160 096d6c4d3b85eaee8de9c7c3f592acf3787da561 OP_EQUAL", "type": "scripthash"}, "value": 0.01418768, "n": 0}, {"scriptPubKey": {"reqSigs": 1, "hex": "001410d2743772d2b217a9c7b2c1fbd6277468f88047", "addresses": ["bc1qzrf8gdmj62ep02w8ktqlh438w3503qz8zcapkc"], "asm": "0 10d2743772d2b217a9c7b2c1fbd6277468f88047", "type": "witness_v0_keyhash"}, "value": 0.00038017, "n": 1}], "hex": "010000000001014f370b87fd7d275feb478173a98af9a012b82c161f3629727f713c02b2f048820000000000ffffffff0210a615000000000017a914096d6c4d3b85eaee8de9c7c3f592acf3787da56187819400000000000016001410d2743772d2b217a9c7b2c1fbd6277468f880470247304402205c020e8728fac7bae3e36a9470ab8fb14af7e6fc1e027145c987ce30053d1a8e022024e749aee91dd27c19524c39202c4c9e1d9e7f879c71b873627e4fec72ee6dff01210328d64a7140d8ed451fbd9330ed16063c72f3305e3205f4f5b0199a9d4cb9f11200000000", "vin": [{"txinwitness": ["304402205c020e8728fac7bae3e36a9470ab8fb14af7e6fc1e027145c987ce30053d1a8e022024e749aee91dd27c19524c39202c4c9e1d9e7f879c71b873627e4fec72ee6dff01", "0328d64a7140d8ed451fbd9330ed16063c72f3305e3205f4f5b0199a9d4cb9f112"], "sequence": 4294967295, "scriptSig": {"hex": "", "asm": ""}, "vout": 0, "txid": "8248f0b2023c717f7229361f162cb812a0f98aa9738147eb5f277dfd870b374f"}], "txid": "882c2877badb1bb02069b8b74db177fc9d7e9e652cabf9d26e90581e5ff75706", "blocktime": 1537870564, "version": 1, "confirmations": 11515, "time": 1537870564, "locktime": 0, "vsize": 142, "size": 223}