{"hash": "882f8d29c53ac50ee5fde9aaea569d844fda48844a0c97e05ebcee8d81f58c3e", "blockhash": "00000000000000000018f53835495a110e01622372bf6ae95dc86f2b0ab887b0", "vout": [{"scriptPubKey": {"type": "nulldata", "hex": "6a146f6d6e69000000000000001f000000d9b0d1e950", "asm": "OP_RETURN 6f6d6e69000000000000001f000000d9b0d1e950"}, "value": 0.0, "n": 0}, {"scriptPubKey": {"reqSigs": 1, "hex": "76a91455b06ecd9077d4c4f88738bcb72dec414c55852888ac", "addresses": ["18p5o5EyRJaWiP8euLXqXcfqCBfNtaMjNF"], "asm": "OP_DUP OP_HASH160 55b06ecd9077d4c4f88738bcb72dec414c558528 OP_EQUALVERIFY OP_CHECKSIG", "type": "pubkeyhash"}, "value": 0.00499066, "n": 1}, {"scriptPubKey": {"reqSigs": 1, "hex": "76a914a25dec4d0011064ef106a983c39c7a540699f22088ac", "addresses": ["1FoWyxwPXuj4C6abqwhjDWdz6D4PZgYRjA"], "asm": "OP_DUP OP_HASH160 a25dec4d0011064ef106a983c39c7a540699f220 OP_EQUALVERIFY OP_CHECKSIG", "type": "pubkeyhash"}, "value": 5.46e-06, "n": 2}], "hex": "01000000010d01a2029185c1752ddb6f4edd511a7d23d380cfcef6d7a0ca449357da1f4f33030000006a47304402207192886947572c780134ea46fcb3ff8bc5042fbf4429612d2401dffadd6fb4b202207a6855cabc27c89d1cdcb1ebc6cb727f24fad7378ede383499366d400e99ac44012103eec36713c678ff86337cf635f21fcdd11a5b658d5e355384abc30bec15c784e0feffffff030000000000000000166a146f6d6e69000000000000001f000000d9b0d1e9507a9d0700000000001976a91455b06ecd9077d4c4f88738bcb72dec414c55852888ac22020000000000001976a914a25dec4d0011064ef106a983c39c7a540699f22088acb6480800", "vin": [{"sequence": 4294967294, "scriptSig": {"hex": "47304402207192886947572c780134ea46fcb3ff8bc5042fbf4429612d2401dffadd6fb4b202207a6855cabc27c89d1cdcb1ebc6cb727f24fad7378ede383499366d400e99ac44012103eec36713c678ff86337cf635f21fcdd11a5b658d5e355384abc30bec15c784e0", "asm": "304402207192886947572c780134ea46fcb3ff8bc5042fbf4429612d2401dffadd6fb4b202207a6855cabc27c89d1cdcb1ebc6cb727f24fad7378ede383499366d400e99ac44[ALL] 03eec36713c678ff86337cf635f21fcdd11a5b658d5e355384abc30bec15c784e0"}, "vout": 3, "txid": "334f1fda579344caa0d7f6cecf80d3237d1a51dd4e6fdb2d75c1859102a2010d"}], "txid": "882f8d29c53ac50ee5fde9aaea569d844fda48844a0c97e05ebcee8d81f58c3e", "blocktime": 1537870928, "version": 1, "confirmations": 11514, "time": 1537870928, "locktime": 542902, "vsize": 256, "size": 256}