{"hash": "9b70cebfbd9b6be011b46967c790672339ad6c6cfdb0fe5295bd8a59419cde84", "blockhash": "0000000000000000001cda96e906b7601b7a6fb1a3b62bca570a9e5d8f4b3de1", "vout": [{"scriptPubKey": {"reqSigs": 1, "hex": "a914cd86c24c4b3507fe7da296c0fe466b0bdf98ea5687", "addresses": ["3LRjt5zNMbzAUYps3LzEBN2Va34b2qCZGU"], "asm": "OP_HASH160 cd86c24c4b3507fe7da296c0fe466b0bdf98ea56 OP_EQUAL", "type": "scripthash"}, "value": 0.0105, "n": 0}, {"scriptPubKey": {"reqSigs": 1, "hex": "76a91462722716f7d14fc5ffdc41a1c928c2408873d06788ac", "addresses": ["19yXyGXHUzc8jEYYDxjrUjbLpwGafU5ZvE"], "asm": "OP_DUP OP_HASH160 62722716f7d14fc5ffdc41a1c928c2408873d067 OP_EQUALVERIFY OP_CHECKSIG", "type": "pubkeyhash"}, "value": 0.0085, "n": 1}, {"scriptPubKey": {"reqSigs": 1, "hex": "a9143ce4d1e203899391bed0d516487c767d762a222b87", "addresses": ["37EzajdZcyXh1nLyiSvfurbvq6hnfVbgi8"], "asm": "OP_HASH160 3ce4d1e203899391bed0d516487c767d762a222b OP_EQUAL", "type": "scripthash"}, "value": 0.22070859, "n": 2}], "hex": "020000000001014696eea570814772fc2b84c82f3f5219c2c97939bd6c65f47b7c1d908970a7db0100000017160014b0fe1dbf92b5498a67d3b3a2fe208327e032ea0cfeffffff03900510000000000017a914cd86c24c4b3507fe7da296c0fe466b0bdf98ea568750f80c00000000001976a91462722716f7d14fc5ffdc41a1c928c2408873d06788ac4bc650010000000017a9143ce4d1e203899391bed0d516487c767d762a222b8702473044022039f4d85e0747e8b9ffe9f383979f53c1716fb6145320de0cbc9688ec80b5cb1002202b490913e8b3622f62ba9fa6a562949cb22571abdf9d896079c93383b3d21c0f01210342252c6ea2667f29e0c357fab3069f1e27a5a0278f95c8187ed59bb5285f9f5213490800", "vin": [{"txinwitness": ["3044022039f4d85e0747e8b9ffe9f383979f53c1716fb6145320de0cbc9688ec80b5cb1002202b490913e8b3622f62ba9fa6a562949cb22571abdf9d896079c93383b3d21c0f01", "0342252c6ea2667f29e0c357fab3069f1e27a5a0278f95c8187ed59bb5285f9f52"], "sequence": 4294967294, "scriptSig": {"hex": "160014b0fe1dbf92b5498a67d3b3a2fe208327e032ea0c", "asm": "0014b0fe1dbf92b5498a67d3b3a2fe208327e032ea0c"}, "vout": 1, "txid": "dba77089901d7c7bf4656cbd3979c9c219523f2fc8842bfc72478170a5ee9646"}], "txid": "8835223ea1b8e1fd94e01ac95088901f3b2370675ed7affe14585e053acfafe6", "blocktime": 1537873282, "version": 2, "confirmations": 11480, "time": 1537873282, "locktime": 542995, "vsize": 200, "size": 281}