{"hash": "8837d80777acb72fc0b5c4fce90db25db6f2b9809a740da9f282884baa958139", "blockhash": "0000000000000000000baef3f32e3676a92c3b2e5da21b426e4f302fc371ce76", "vout": [{"scriptPubKey": {"reqSigs": 1, "hex": "a9146bbefe493662b0c6903c593f558ca1c25c2bf66187", "addresses": ["3BWj2WweW5kcoBsX4fYkr2yU6m62B1sWQs"], "asm": "OP_HASH160 6bbefe493662b0c6903c593f558ca1c25c2bf661 OP_EQUAL", "type": "scripthash"}, "value": 0.0595, "n": 0}, {"scriptPubKey": {"reqSigs": 1, "hex": "a914398b6aa7f34c064615cc5e31dd14696fbeec192c87", "addresses": ["36wHTKE1ifRU1aZJXfrJSgq3qTSLkyosqh"], "asm": "OP_HASH160 398b6aa7f34c064615cc5e31dd14696fbeec192c OP_EQUAL", "type": "scripthash"}, "value": 0.1565, "n": 1}, {"scriptPubKey": {"reqSigs": 1, "hex": "76a914d90968a9758a93b0bebc108edbd4f881e468fd5688ac", "addresses": ["1LnauN9QpQKSPPf5ij4EGkzfRdyM1i8pTE"], "asm": "OP_DUP OP_HASH160 d90968a9758a93b0bebc108edbd4f881e468fd56 OP_EQUALVERIFY OP_CHECKSIG", "type": "pubkeyhash"}, "value": 0.23958787, "n": 2}, {"scriptPubKey": {"reqSigs": 1, "hex": "76a914c32d9bd34ff9017a9496cc184d0a807bc5abe22188ac", "addresses": ["1Jo1QMZVLCKadVaqABtzpYhZkqGDifjtiG"], "asm": "OP_DUP OP_HASH160 c32d9bd34ff9017a9496cc184d0a807bc5abe221 OP_EQUALVERIFY OP_CHECKSIG", "type": "pubkeyhash"}, "value": 0.07770634, "n": 3}, {"scriptPubKey": {"reqSigs": 1, "hex": "76a9142a7c35cb2591c5a8fe380d2dac29ab21b63a0d6888ac", "addresses": ["14seBL2fLVXCkrV7dBM2a1kLyUCQRzzbpk"], "asm": "OP_DUP OP_HASH160 2a7c35cb2591c5a8fe380d2dac29ab21b63a0d68 OP_EQUALVERIFY OP_CHECKSIG", "type": "pubkeyhash"}, "value": 0.01469298, "n": 4}, {"scriptPubKey": {"reqSigs": 1, "hex": "a914ee1a772d6723c86a36d09fa1e008c75c3a0f9ad787", "addresses": ["3PPzT4GNWdXRsUKESs8Tt4accsvnjd3JTc"], "asm": "OP_HASH160 ee1a772d6723c86a36d09fa1e008c75c3a0f9ad7 OP_EQUAL", "type": "scripthash"}, "value": 0.01007243, "n": 5}, {"scriptPubKey": {"reqSigs": 1, "hex": "a91406bfeb31e40e1d044bbf86a5212f48bc70f2744787", "addresses": ["32JhtSaiE6vqasQeZ7oBj2w4VkEf7gUMpU"], "asm": "OP_HASH160 06bfeb31e40e1d044bbf86a5212f48bc70f27447 OP_EQUAL", "type": "scripthash"}, "value": 0.34325, "n": 6}, {"scriptPubKey": {"reqSigs": 1, "hex": "76a914560257cc8d4419398c2795fa0932dadf16c3306e88ac", "addresses": ["18qmvHnoB9ZWiAGaqJrsVoLVHL7Dhf4hGy"], "asm": "OP_DUP OP_HASH160 560257cc8d4419398c2795fa0932dadf16c3306e OP_EQUALVERIFY OP_CHECKSIG", "type": "pubkeyhash"}, "value": 0.4, "n": 7}, {"scriptPubKey": {"reqSigs": 1, "hex": "a914d8b57cd623cd3b36c6e751b09beea38ac8f4a16a87", "addresses": ["3MSsHxj4EG9TMNwYE3bvhaLV6SVDhqhWRd"], "asm": "OP_HASH160 d8b57cd623cd3b36c6e751b09beea38ac8f4a16a OP_EQUAL", "type": "scripthash"}, "value": 0.01544005, "n": 8}, {"scriptPubKey": {"reqSigs": 1, "hex": "a91430c9d93e7fe7bf2bff550de60152a29f9d77c8d287", "addresses": ["368zASQiPYgtmidrF9YDQfv7Y6omE68iUn"], "asm": "OP_HASH160 30c9d93e7fe7bf2bff550de60152a29f9d77c8d2 OP_EQUAL", "type": "scripthash"}, "value": 1.0101928, "n": 9}, {"scriptPubKey": {"reqSigs": 1, "hex": "a914942200671e9fd5add3f7b5cc84bc61ad9d9ab06487", "addresses": ["3FCGfQU1ihPLkuYTn3UKxKGMPwbZ1MeMGL"], "asm": "OP_HASH160 942200671e9fd5add3f7b5cc84bc61ad9d9ab064 OP_EQUAL", "type": "scripthash"}, "value": 0.00383998, "n": 10}, {"scriptPubKey": {"reqSigs": 1, "hex": "a9149989d62b8c01c9496c2ff129f7e3e690314520a187", "addresses": ["3FgrRwz3uMphVQb2Vhwf8oRTTLQ6P2Qqdm"], "asm": "OP_HASH160 9989d62b8c01c9496c2ff129f7e3e690314520a1 OP_EQUAL", "type": "scripthash"}, "value": 0.0125, "n": 11}, {"scriptPubKey": {"reqSigs": 1, "hex": "76a914fc3f92faa108f8ea804f933054a940fde6b8e09688ac", "addresses": ["1PzmSYtHm4kmX1VHgprEUtEf2haoqjcHTu"], "asm": "OP_DUP OP_HASH160 fc3f92faa108f8ea804f933054a940fde6b8e096 OP_EQUALVERIFY OP_CHECKSIG", "type": "pubkeyhash"}, "value": 0.2445, "n": 12}, {"scriptPubKey": {"reqSigs": 1, "hex": "76a91492bc72a09a475f981115214e87d67db8ff0c2c0588ac", "addresses": ["1ENsQb4uSeMX3u7f6SX4pYxq9iEKiWE7g2"], "asm": "OP_DUP OP_HASH160 92bc72a09a475f981115214e87d67db8ff0c2c05 OP_EQUALVERIFY OP_CHECKSIG", "type": "pubkeyhash"}, "value": 0.0235, "n": 13}, {"scriptPubKey": {"reqSigs": 1, "hex": "76a914c63133722bb0def4fda75ca141f169b6f421270e88ac", "addresses": ["1K4wjXTV8b3LGoUJLZrtwChiG3sLhUsjAa"], "asm": "OP_DUP OP_HASH160 c63133722bb0def4fda75ca141f169b6f421270e OP_EQUALVERIFY OP_CHECKSIG", "type": "pubkeyhash"}, "value": 0.00485197, "n": 14}, {"scriptPubKey": {"reqSigs": 1, "hex": "a9147e1340a39d6c5204de4529fc3faeb5e4e05c92d587", "addresses": ["3DBe8QEDy1rCAHtzNUz6LwbZ9yVHGHDQzi"], "asm": "OP_HASH160 7e1340a39d6c5204de4529fc3faeb5e4e05c92d5 OP_EQUAL", "type": "scripthash"}, "value": 0.00619253, "n": 15}, {"scriptPubKey": {"reqSigs": 1, "hex": "a9148286c880e8743569c8605203ed97be0454d0c43587", "addresses": ["3DbBEPDN1xjfvM2VSRxNi9eea38eUXMV8d"], "asm": "OP_HASH160 8286c880e8743569c8605203ed97be0454d0c435 OP_EQUAL", "type": "scripthash"}, "value": 0.1229823, "n": 16}, {"scriptPubKey": {"reqSigs": 1, "hex": "a91469f3748834b303789685d624f9e256f05cf59e9387", "addresses": ["3BMEXFTLd3YrdzCzQHBtdbFkKn9jjDeQi4"], "asm": "OP_HASH160 69f3748834b303789685d624f9e256f05cf59e93 OP_EQUAL", "type": "scripthash"}, "value": 0.3495, "n": 17}, {"scriptPubKey": {"reqSigs": 1, "hex": "a914f6bcc179990d4fd4feb98a9cdd8f02f93cbb31f687", "addresses": ["3QBeGiP6GHCoFBAyzNMLRjmASkijjkENRP"], "asm": "OP_HASH160 f6bcc179990d4fd4feb98a9cdd8f02f93cbb31f6 OP_EQUAL", "type": "scripthash"}, "value": 0.085, "n": 18}, {"scriptPubKey": {"reqSigs": 1, "hex": "76a914e71debe251bb26c7e757d9ae265da6e5d00f31b988ac", "addresses": ["1N52wHoVR79PMDishab2XmRHsbekCdGquK"], "asm": "OP_DUP OP_HASH160 e71debe251bb26c7e757d9ae265da6e5d00f31b9 OP_EQUALVERIFY OP_CHECKSIG", "type": "pubkeyhash"}, "value": 0.09412993, "n": 19}], "hex": "01000000018331974ac5c5005cf01170379cd57d00045d162f277c5d446c338743a0c1f5e1000000006b483045022100d7a1e56dcccd99137b07510e309ebaaf1aa017b9ba2bd456ea50da7144913bb202206b967e7214aee248cf11c2940e8417416973edba2535334d475cec1e2a350563012103e803cbad711801a6481076fb7300b4b502de91fd3f5c9f61c2d70c60c763273effffffff1430ca5a000000000017a9146bbefe493662b0c6903c593f558ca1c25c2bf66187d0ccee000000000017a914398b6aa7f34c064615cc5e31dd14696fbeec192c8703956d01000000001976a914d90968a9758a93b0bebc108edbd4f881e468fd5688ac0a927600000000001976a914c32d9bd34ff9017a9496cc184d0a807bc5abe22188ac726b1600000000001976a9142a7c35cb2591c5a8fe380d2dac29ab21b63a0d6888ac8b5e0f000000000017a914ee1a772d6723c86a36d09fa1e008c75c3a0f9ad78708c20b020000000017a91406bfeb31e40e1d044bbf86a5212f48bc70f2744787005a6202000000001976a914560257cc8d4419398c2795fa0932dadf16c3306e88ac458f17000000000017a914d8b57cd623cd3b36c6e751b09beea38ac8f4a16a87906e05060000000017a91430c9d93e7fe7bf2bff550de60152a29f9d77c8d287fedb05000000000017a914942200671e9fd5add3f7b5cc84bc61ad9d9ab06487d01213000000000017a9149989d62b8c01c9496c2ff129f7e3e690314520a187d0137501000000001976a914fc3f92faa108f8ea804f933054a940fde6b8e09688acb0db2300000000001976a91492bc72a09a475f981115214e87d67db8ff0c2c0588ac4d670700000000001976a914c63133722bb0def4fda75ca141f169b6f421270e88acf57209000000000017a9147e1340a39d6c5204de4529fc3faeb5e4e05c92d587f6a7bb000000000017a9148286c880e8743569c8605203ed97be0454d0c43587704b15020000000017a91469f3748834b303789685d624f9e256f05cf59e938720b381000000000017a914f6bcc179990d4fd4feb98a9cdd8f02f93cbb31f68781a18f00000000001976a914e71debe251bb26c7e757d9ae265da6e5d00f31b988ac00000000", "vin": [{"sequence": 4294967295, "scriptSig": {"hex": "483045022100d7a1e56dcccd99137b07510e309ebaaf1aa017b9ba2bd456ea50da7144913bb202206b967e7214aee248cf11c2940e8417416973edba2535334d475cec1e2a350563012103e803cbad711801a6481076fb7300b4b502de91fd3f5c9f61c2d70c60c763273e", "asm": "3045022100d7a1e56dcccd99137b07510e309ebaaf1aa017b9ba2bd456ea50da7144913bb202206b967e7214aee248cf11c2940e8417416973edba2535334d475cec1e2a350563[ALL] 03e803cbad711801a6481076fb7300b4b502de91fd3f5c9f61c2d70c60c763273e"}, "vout": 0, "txid": "e1f5c1a04387336c445d7c272f165d04007dd59c377011f05c00c5c54a973183"}], "txid": "8837d80777acb72fc0b5c4fce90db25db6f2b9809a740da9f282884baa958139", "blocktime": 1537876114, "version": 1, "confirmations": 11459, "time": 1537876114, "locktime": 0, "vsize": 814, "size": 814}