{"hash": "eaf29149ee1e679ce0e94a57c260b3b90d2b618e4ccc1ddae6731c1c1a75f17b", "blockhash": "0000000000000000000e13cef7c366c0283d82e591d1acd082e914b08063cdf1", "vout": [{"scriptPubKey": {"reqSigs": 1, "hex": "a914b54c0ac04aaef61e2dcf0f1063862f02227b9db187", "addresses": ["3JDdKkn8drBy2gz4ptH8ULM4KQbTfMJPq2"], "asm": "OP_HASH160 b54c0ac04aaef61e2dcf0f1063862f02227b9db1 OP_EQUAL", "type": "scripthash"}, "value": 0.9999916, "n": 0}, {"scriptPubKey": {"reqSigs": 1, "hex": "76a914cbc3bf1e567e547c092d6888911255abf679bf2288ac", "addresses": ["1KaQfekBqpUYUQwUyJC3rTBCpCgGfs8Jn9"], "asm": "OP_DUP OP_HASH160 cbc3bf1e567e547c092d6888911255abf679bf22 OP_EQUALVERIFY OP_CHECKSIG", "type": "pubkeyhash"}, "value": 3.0, "n": 1}], "hex": "01000000000101aa8935d1fc3cf4654a2f25830fbac210761e042962375ade452a89129d63d6ae0000000017160014faf568853999eb6e5227a9b78e8a816aa3e4bc21fdffffff02b8ddf5050000000017a914b54c0ac04aaef61e2dcf0f1063862f02227b9db18700a3e111000000001976a914cbc3bf1e567e547c092d6888911255abf679bf2288ac0247304402204a0addb92b2f285ae225e6eae5acdf2b5c8bcb21c774dbe1041deabf5073356202204eddf30366668e49d3e886164d963a2699ddc07d18244c739616fb02b9bd2a56012103550b4ee10460965f9f2bb2dd71479719006ac1170c0b545175a2f0e97da03e2910490800", "vin": [{"txinwitness": ["304402204a0addb92b2f285ae225e6eae5acdf2b5c8bcb21c774dbe1041deabf5073356202204eddf30366668e49d3e886164d963a2699ddc07d18244c739616fb02b9bd2a5601", "03550b4ee10460965f9f2bb2dd71479719006ac1170c0b545175a2f0e97da03e29"], "sequence": 4294967293, "scriptSig": {"hex": "160014faf568853999eb6e5227a9b78e8a816aa3e4bc21", "asm": "0014faf568853999eb6e5227a9b78e8a816aa3e4bc21"}, "vout": 0, "txid": "aed6639d12892a45de5a376229041e7610c2ba0f83252f4a65f43cfcd13589aa"}], "txid": "88380c30096638d6b61d01a104cf816eb902238124cc5f0a927344968102c033", "blocktime": 1537871767, "version": 1, "confirmations": 11493, "time": 1537871767, "locktime": 542992, "vsize": 168, "size": 249}