{"hash": "8839d6d95db6384ed3695e3f1d68e2b511c5a5387c6f79478ea360c946c21a70", "blockhash": "0000000000000000000e13cef7c366c0283d82e591d1acd082e914b08063cdf1", "vout": [{"scriptPubKey": {"reqSigs": 1, "hex": "a914962b6714cb503ca1c3a45cb32ffbbd7216328f5287", "addresses": ["3FP3GzG8pWF2yNhv3BPzqYeWtcw8F2JG7D"], "asm": "OP_HASH160 962b6714cb503ca1c3a45cb32ffbbd7216328f52 OP_EQUAL", "type": "scripthash"}, "value": 0.15396088, "n": 0}, {"scriptPubKey": {"reqSigs": 1, "hex": "76a9147e6fd1c45f360370c56631b9c5048a8aae6b29ae88ac", "addresses": ["1CXY6X6hP11o7FnFLZC8uP6Nag6Z6QHkzT"], "asm": "OP_DUP OP_HASH160 7e6fd1c45f360370c56631b9c5048a8aae6b29ae OP_EQUALVERIFY OP_CHECKSIG", "type": "pubkeyhash"}, "value": 0.00205782, "n": 1}], "hex": "010000000144a1121abac5be7acf9cc83c870b7cc7d8d30ef5bd0360ce399d3994e092784a1e000000d900483045022100b387b67fc01972e7974f4a5a30328b32b3e453be023fe4fb33019266f528162502205404e4e7718ceb855a1ceead45ec703a4cb5098b3ff77a6f472a3a8f85a6bf0d01463043022048151d2cef4190935e5d9114bafba271162fd3d63f2d48e308c7425baf77316f021f0d923f9eab3e756934b3cf6b0041580c257020ad2ebd458da5af1a3aa09fa8014752210241b468848ef7a5a7afb6b5f255723ed81898fb374152fe1bcd8c17bb4d7a04d82102907a54bed8ad74b3f35638c60114ca240a308cb986f3f2f306178869a8880b6152aeffffffff02f8ecea000000000017a914962b6714cb503ca1c3a45cb32ffbbd7216328f5287d6230300000000001976a9147e6fd1c45f360370c56631b9c5048a8aae6b29ae88ac00000000", "vin": [{"sequence": 4294967295, "scriptSig": {"hex": "00483045022100b387b67fc01972e7974f4a5a30328b32b3e453be023fe4fb33019266f528162502205404e4e7718ceb855a1ceead45ec703a4cb5098b3ff77a6f472a3a8f85a6bf0d01463043022048151d2cef4190935e5d9114bafba271162fd3d63f2d48e308c7425baf77316f021f0d923f9eab3e756934b3cf6b0041580c257020ad2ebd458da5af1a3aa09fa8014752210241b468848ef7a5a7afb6b5f255723ed81898fb374152fe1bcd8c17bb4d7a04d82102907a54bed8ad74b3f35638c60114ca240a308cb986f3f2f306178869a8880b6152ae", "asm": "0 3045022100b387b67fc01972e7974f4a5a30328b32b3e453be023fe4fb33019266f528162502205404e4e7718ceb855a1ceead45ec703a4cb5098b3ff77a6f472a3a8f85a6bf0d[ALL] 3043022048151d2cef4190935e5d9114bafba271162fd3d63f2d48e308c7425baf77316f021f0d923f9eab3e756934b3cf6b0041580c257020ad2ebd458da5af1a3aa09fa8[ALL] 52210241b468848ef7a5a7afb6b5f255723ed81898fb374152fe1bcd8c17bb4d7a04d82102907a54bed8ad74b3f35638c60114ca240a308cb986f3f2f306178869a8880b6152ae"}, "vout": 30, "txid": "4a7892e094399d39ce6003bdf50ed3d8c77c0b873cc89ccf7abec5ba1a12a144"}], "txid": "8839d6d95db6384ed3695e3f1d68e2b511c5a5387c6f79478ea360c946c21a70", "blocktime": 1537871767, "version": 1, "confirmations": 11495, "time": 1537871767, "locktime": 0, "vsize": 334, "size": 334}