{"hash": "883abf8a853236e0d4504d42b9739ce8b18f665353957a71ad82af49d94cbb2a", "blockhash": "00000000000000000024a2167bbff67b0be802c0b01cdd79e6331c2be6459f87", "vout": [{"scriptPubKey": {"reqSigs": 1, "hex": "a91442ba91c9f22668a8f1538e58a069f5ab039528f887", "addresses": ["37mr2HBar5wkk3XSdUax5RcDCTqoV9SEK9"], "asm": "OP_HASH160 42ba91c9f22668a8f1538e58a069f5ab039528f8 OP_EQUAL", "type": "scripthash"}, "value": 0.0380026, "n": 0}, {"scriptPubKey": {"reqSigs": 1, "hex": "76a9142f3d5cf1f3546ef683729d0ebda69b4ab5cf27cd88ac", "addresses": ["15JnGbcAqBA8MdeEGv9rwbwB7Jsj2TgZho"], "asm": "OP_DUP OP_HASH160 2f3d5cf1f3546ef683729d0ebda69b4ab5cf27cd OP_EQUALVERIFY OP_CHECKSIG", "type": "pubkeyhash"}, "value": 0.00043568, "n": 1}], "hex": "0100000003e31e15107c5a7c02b698ff2792cc7c523a6a06e7e00f1eb64215f6c39891e9f701000000da004730440220380e0249100b78124f87b59e1d6546a4c96616883a991a461e6f3af58d1e4b81022068378fb3a98213245624e4bee8e247f2aae82642b7281ecd9bba6480ce87e9980148304502210097d30f91ec933e06dab034480b919777ceb67fe0fbc7d616c3a66279a5be2d6302205c06fabbe3c2d8d46551f556050241e722de77df95b0cd4d2aeb02d9eabc306e0147522102907a54bed8ad74b3f35638c60114ca240a308cb986f3f2f306178869a8880b612102cde38c0383f7d40ab912af9f6e63a155472873f11f747d7fdc808c8886f622e752aeffffffff3369ec85411fa5e499f958468fd3e77adf9d6a9b9813125f604fd19aa9efe77701000000da00483045022100f0c2396588003b376e9e7aca6d51c68257825e268a4aa2681d32fb4addfc910e02202e866dd78e916f91e7d3f93915c233b8af37a896256b20152e36d08b7ea5a9d10147304402200ccdbed3e73dafa549844e82ae24c300f2243e531c56b41e9f1c1e9e3ac9132d02201dd4617689c40d52c4780716ddab333c293c0e347232f1f888028dcec9c615180147522102907a54bed8ad74b3f35638c60114ca240a308cb986f3f2f306178869a8880b612102e9f90e6957eb837c36b18d8985f028fca275e93d2982957c42e372094319cbc652aeffffffff47b7f710ccea3ba6950fbc698c31193a0d324fdfca44099b55d00266192ba93a01000000db00483045022100e239fca65280acd2129d941ca4920a82d597a2349a303dd3397d324507e6bbb50220174082e35edc95932ae0a487dbf3800b811751e1d97d6fbc03daf45bc7d31f8801483045022100cfd6c3decaaeb0304a9fe7bc06a6a7788967a35dcde224f4f4fe9c3c4e3e933f02202183c49d5a7cdfa55994f1eae3c07cb5b37d438ae4d6033fa0a0df31d5b354330147522102907a54bed8ad74b3f35638c60114ca240a308cb986f3f2f306178869a8880b612103e201a978a34ae5efbe9cb13b92a2f1caa0dc56354511aabe1fcc079c422af6bd52aeffffffff02c4fc39000000000017a91442ba91c9f22668a8f1538e58a069f5ab039528f88730aa0000000000001976a9142f3d5cf1f3546ef683729d0ebda69b4ab5cf27cd88ac00000000", "vin": [{"sequence": 4294967295, "scriptSig": {"hex": "004730440220380e0249100b78124f87b59e1d6546a4c96616883a991a461e6f3af58d1e4b81022068378fb3a98213245624e4bee8e247f2aae82642b7281ecd9bba6480ce87e9980148304502210097d30f91ec933e06dab034480b919777ceb67fe0fbc7d616c3a66279a5be2d6302205c06fabbe3c2d8d46551f556050241e722de77df95b0cd4d2aeb02d9eabc306e0147522102907a54bed8ad74b3f35638c60114ca240a308cb986f3f2f306178869a8880b612102cde38c0383f7d40ab912af9f6e63a155472873f11f747d7fdc808c8886f622e752ae", "asm": "0 30440220380e0249100b78124f87b59e1d6546a4c96616883a991a461e6f3af58d1e4b81022068378fb3a98213245624e4bee8e247f2aae82642b7281ecd9bba6480ce87e998[ALL] 304502210097d30f91ec933e06dab034480b919777ceb67fe0fbc7d616c3a66279a5be2d6302205c06fabbe3c2d8d46551f556050241e722de77df95b0cd4d2aeb02d9eabc306e[ALL] 522102907a54bed8ad74b3f35638c60114ca240a308cb986f3f2f306178869a8880b612102cde38c0383f7d40ab912af9f6e63a155472873f11f747d7fdc808c8886f622e752ae"}, "vout": 1, "txid": "f7e99198c3f61542b61e0fe0e7066a3a527ccc9227ff98b6027c5a7c10151ee3"}, {"sequence": 4294967295, "scriptSig": {"hex": "00483045022100f0c2396588003b376e9e7aca6d51c68257825e268a4aa2681d32fb4addfc910e02202e866dd78e916f91e7d3f93915c233b8af37a896256b20152e36d08b7ea5a9d10147304402200ccdbed3e73dafa549844e82ae24c300f2243e531c56b41e9f1c1e9e3ac9132d02201dd4617689c40d52c4780716ddab333c293c0e347232f1f888028dcec9c615180147522102907a54bed8ad74b3f35638c60114ca240a308cb986f3f2f306178869a8880b612102e9f90e6957eb837c36b18d8985f028fca275e93d2982957c42e372094319cbc652ae", "asm": "0 3045022100f0c2396588003b376e9e7aca6d51c68257825e268a4aa2681d32fb4addfc910e02202e866dd78e916f91e7d3f93915c233b8af37a896256b20152e36d08b7ea5a9d1[ALL] 304402200ccdbed3e73dafa549844e82ae24c300f2243e531c56b41e9f1c1e9e3ac9132d02201dd4617689c40d52c4780716ddab333c293c0e347232f1f888028dcec9c61518[ALL] 522102907a54bed8ad74b3f35638c60114ca240a308cb986f3f2f306178869a8880b612102e9f90e6957eb837c36b18d8985f028fca275e93d2982957c42e372094319cbc652ae"}, "vout": 1, "txid": "77e7efa99ad14f605f1213989b6a9ddf7ae7d38f4658f999e4a51f4185ec6933"}, {"sequence": 4294967295, "scriptSig": {"hex": "00483045022100e239fca65280acd2129d941ca4920a82d597a2349a303dd3397d324507e6bbb50220174082e35edc95932ae0a487dbf3800b811751e1d97d6fbc03daf45bc7d31f8801483045022100cfd6c3decaaeb0304a9fe7bc06a6a7788967a35dcde224f4f4fe9c3c4e3e933f02202183c49d5a7cdfa55994f1eae3c07cb5b37d438ae4d6033fa0a0df31d5b354330147522102907a54bed8ad74b3f35638c60114ca240a308cb986f3f2f306178869a8880b612103e201a978a34ae5efbe9cb13b92a2f1caa0dc56354511aabe1fcc079c422af6bd52ae", "asm": "0 3045022100e239fca65280acd2129d941ca4920a82d597a2349a303dd3397d324507e6bbb50220174082e35edc95932ae0a487dbf3800b811751e1d97d6fbc03daf45bc7d31f88[ALL] 3045022100cfd6c3decaaeb0304a9fe7bc06a6a7788967a35dcde224f4f4fe9c3c4e3e933f02202183c49d5a7cdfa55994f1eae3c07cb5b37d438ae4d6033fa0a0df31d5b35433[ALL] 522102907a54bed8ad74b3f35638c60114ca240a308cb986f3f2f306178869a8880b612103e201a978a34ae5efbe9cb13b92a2f1caa0dc56354511aabe1fcc079c422af6bd52ae"}, "vout": 1, "txid": "3aa92b196602d0559b0944cadf4f320d3a19318c69bc0f95a63beacc10f7b747"}], "txid": "883abf8a853236e0d4504d42b9739ce8b18f665353957a71ad82af49d94cbb2a", "blocktime": 1537870564, "version": 1, "confirmations": 11515, "time": 1537870564, "locktime": 0, "vsize": 854, "size": 854}