{"hash": "883c303823984a1bd51b1fa6b068144fecf19bd06545a152adc6af47233177f1", "blockhash": "0000000000000000000baef3f32e3676a92c3b2e5da21b426e4f302fc371ce76", "vout": [{"scriptPubKey": {"reqSigs": 1, "hex": "a914fccbed75eb8ed34d82517a4466723d067e39c6e787", "addresses": ["3QjgW2DKKSRVJCrtAkpBMd2SMgKhswh8EN"], "asm": "OP_HASH160 fccbed75eb8ed34d82517a4466723d067e39c6e7 OP_EQUAL", "type": "scripthash"}, "value": 0.00199085, "n": 0}, {"scriptPubKey": {"reqSigs": 1, "hex": "76a9149aa514fbdc15dd19909ae57b52eae01b4168c99d88ac", "addresses": ["1F6gpe1c4KDH1yJeqyXBUjYhK7Rnf4pBwR"], "asm": "OP_DUP OP_HASH160 9aa514fbdc15dd19909ae57b52eae01b4168c99d OP_EQUALVERIFY OP_CHECKSIG", "type": "pubkeyhash"}, "value": 0.02059408, "n": 1}], "hex": "0100000001de762f9a3de216bb3a4217e972cd2fadca520d3dddbcb7f66a71ac23df65920f010000006a473044022021ff0cbd84d449b21451c950c418661b56a401e7c0a5f206eedbd2e8285a1a2c0220683772b676ce0897a57011accf7526dfafe372d5f3ab72c30270a9e2fc3ea808012103aa0b42c1a38039e7c2715ab2882fb6a9337f38aed56741933557583cc863c3b9ffffffff02ad0903000000000017a914fccbed75eb8ed34d82517a4466723d067e39c6e787906c1f00000000001976a9149aa514fbdc15dd19909ae57b52eae01b4168c99d88ac00000000", "vin": [{"sequence": 4294967295, "scriptSig": {"hex": "473044022021ff0cbd84d449b21451c950c418661b56a401e7c0a5f206eedbd2e8285a1a2c0220683772b676ce0897a57011accf7526dfafe372d5f3ab72c30270a9e2fc3ea808012103aa0b42c1a38039e7c2715ab2882fb6a9337f38aed56741933557583cc863c3b9", "asm": "3044022021ff0cbd84d449b21451c950c418661b56a401e7c0a5f206eedbd2e8285a1a2c0220683772b676ce0897a57011accf7526dfafe372d5f3ab72c30270a9e2fc3ea808[ALL] 03aa0b42c1a38039e7c2715ab2882fb6a9337f38aed56741933557583cc863c3b9"}, "vout": 1, "txid": "0f9265df23ac716af6b7bcdd3d0d52caad2fcd72e917423abb16e23d9a2f76de"}], "txid": "883c303823984a1bd51b1fa6b068144fecf19bd06545a152adc6af47233177f1", "blocktime": 1537876114, "version": 1, "confirmations": 11460, "time": 1537876114, "locktime": 0, "vsize": 223, "size": 223}