{"hash": "460eb1abacfbc971e7e22ea4e14bc6364c07ddc2ddcd2a8f1d3a13f0a31a455e", "blockhash": "0000000000000000001cda96e906b7601b7a6fb1a3b62bca570a9e5d8f4b3de1", "vout": [{"scriptPubKey": {"reqSigs": 1, "hex": "a914d2ab275533cbf0d10e87d90767fd1f4ca23c546087", "addresses": ["3LtvrnsrVff86pzfKMDPyc1guebjfsepTQ"], "asm": "OP_HASH160 d2ab275533cbf0d10e87d90767fd1f4ca23c5460 OP_EQUAL", "type": "scripthash"}, "value": 0.00933, "n": 0}, {"scriptPubKey": {"reqSigs": 1, "hex": "a9146f389b88c9aecb540c34aec868a906fa7192135687", "addresses": ["3Bq6jztTZ1f6cbVBLYhGvq2TuKoy4deah9"], "asm": "OP_HASH160 6f389b88c9aecb540c34aec868a906fa71921356 OP_EQUAL", "type": "scripthash"}, "value": 0.13359755, "n": 1}], "hex": "0100000000010178f20a01b8ef1d73abd1546b6c6f9eebc73fe96f7b44541cbe2ce1be57a4acd60100000023220020d7edf55e579987bd910ad7a629d5359f3dcf7e423c823b230079c3c97cc68aa2ffffffff02883c0e000000000017a914d2ab275533cbf0d10e87d90767fd1f4ca23c5460878bdacb000000000017a9146f389b88c9aecb540c34aec868a906fa7192135687040047304402202bc6da9833a94d9edd8e83abbfd9851f001d1821b92e4ac050165bb0918b4961022018832d124a08272bc6abf7cd8af54c44ebb44f8640326e06316a2f1c3bce83510147304402207c72e9694f7bb02ab678455e9a109e38b08dc8c9d6e6d403a2a7b028f0291e4202200434a874a12c534f1d9a4f1c1c9f9c90a8b757c1aeec32dd449d0556267f78a90169522103ce4f0a6c1f13bd86f86bd9ad64aef1e4905c8c0199dc5712961ef00b0570a5d6210268c29af13977b40eda98f862839a747b7bd5d3b505b56de9a6c9769ddaf242ca2103affdddeb28a9a0b7f5fb50e55b52dec9d6fe06749f10b772b0037b10b76a134353ae14490800", "vin": [{"txinwitness": ["", "304402202bc6da9833a94d9edd8e83abbfd9851f001d1821b92e4ac050165bb0918b4961022018832d124a08272bc6abf7cd8af54c44ebb44f8640326e06316a2f1c3bce835101", "304402207c72e9694f7bb02ab678455e9a109e38b08dc8c9d6e6d403a2a7b028f0291e4202200434a874a12c534f1d9a4f1c1c9f9c90a8b757c1aeec32dd449d0556267f78a901", "522103ce4f0a6c1f13bd86f86bd9ad64aef1e4905c8c0199dc5712961ef00b0570a5d6210268c29af13977b40eda98f862839a747b7bd5d3b505b56de9a6c9769ddaf242ca2103affdddeb28a9a0b7f5fb50e55b52dec9d6fe06749f10b772b0037b10b76a134353ae"], "sequence": 4294967295, "scriptSig": {"hex": "220020d7edf55e579987bd910ad7a629d5359f3dcf7e423c823b230079c3c97cc68aa2", "asm": "0020d7edf55e579987bd910ad7a629d5359f3dcf7e423c823b230079c3c97cc68aa2"}, "vout": 1, "txid": "d6aca457bee12cbe1c54447b6fe93fc7eb9e6f6c6b54d1ab731defb8010af278"}], "txid": "883ecb8089ddd0b7196c43bd67abe4276911749a6a92c4c1706d6fb52ff3a8b8", "blocktime": 1537873282, "version": 1, "confirmations": 11481, "time": 1537873282, "locktime": 542996, "vsize": 214, "size": 404}