{"hash": "10c0c4bef834197ddc7c2ab08852c9273112ebfe181fad12cf1da0e4e2c23cec", "blockhash": "0000000000000000001cda96e906b7601b7a6fb1a3b62bca570a9e5d8f4b3de1", "vout": [{"scriptPubKey": {"reqSigs": 1, "hex": "a914850eacf8721b4b55fb6a3d49e7ba73c03b23661887", "addresses": ["3DpZNjtnUpjtA1kiKJvji7f8UxCqGNbZAk"], "asm": "OP_HASH160 850eacf8721b4b55fb6a3d49e7ba73c03b236618 OP_EQUAL", "type": "scripthash"}, "value": 0.01047647, "n": 0}, {"scriptPubKey": {"reqSigs": 1, "hex": "a914c62e621a86a8c424f51f3667fbe28ec40800258787", "addresses": ["3KkuHHh93cKeHHmjhu7bfdvYnd7jmiuXZy"], "asm": "OP_HASH160 c62e621a86a8c424f51f3667fbe28ec408002587 OP_EQUAL", "type": "scripthash"}, "value": 0.00023433, "n": 1}], "hex": "020000000001018791e9990353bdca25623fd3bdc17e5dfeba015d201e39df43cc3e49ed2154110100000017160014d48bb2ca3998d8cfe89b01bc9d514e72ef1a2156feffffff025ffc0f000000000017a914850eacf8721b4b55fb6a3d49e7ba73c03b23661887895b00000000000017a914c62e621a86a8c424f51f3667fbe28ec4080025878702483045022100ccacd26e5852fffbe2eff270f1f3035c8c623c8116c82c3ecc1c9ff8d43bfd840220173d5fd85d38c3538b4f19a5c08a9732f64cf034f43135f0be7b6cc00330b33401210208ddef9328cf61b2f8957963afce5d6da7cd884c5585df53eb1744ca8958845b13490800", "vin": [{"txinwitness": ["3045022100ccacd26e5852fffbe2eff270f1f3035c8c623c8116c82c3ecc1c9ff8d43bfd840220173d5fd85d38c3538b4f19a5c08a9732f64cf034f43135f0be7b6cc00330b33401", "0208ddef9328cf61b2f8957963afce5d6da7cd884c5585df53eb1744ca8958845b"], "sequence": 4294967294, "scriptSig": {"hex": "160014d48bb2ca3998d8cfe89b01bc9d514e72ef1a2156", "asm": "0014d48bb2ca3998d8cfe89b01bc9d514e72ef1a2156"}, "vout": 1, "txid": "115421ed493ecc43df391e205d01bafe5d7ec1bdd33f6225cabd530399e99187"}], "txid": "884495ef4b68a1556f01bdd2740fb9ff8d285559779a94f835b88e8de7152a50", "blocktime": 1537873282, "version": 2, "confirmations": 11485, "time": 1537873282, "locktime": 542995, "vsize": 166, "size": 248}