{"hash": "8847dbed13a34a2fa41b9ffe89f9ee8fcac8600b4da70608981bc2e577ac3f7a", "blockhash": "00000000000000000018f53835495a110e01622372bf6ae95dc86f2b0ab887b0", "vout": [{"scriptPubKey": {"reqSigs": 1, "hex": "76a914b26c33eb707982cddc4f4ee8ea8db40d7c4f890a88ac", "addresses": ["1HGQuD7t8XYRspi5Mn2JeTjfmHbh6S9mbw"], "asm": "OP_DUP OP_HASH160 b26c33eb707982cddc4f4ee8ea8db40d7c4f890a OP_EQUALVERIFY OP_CHECKSIG", "type": "pubkeyhash"}, "value": 0.00380194, "n": 0}, {"scriptPubKey": {"reqSigs": 1, "hex": "76a914f489bc77c9556de753f2f0e3e43f82dcc7ce0b3b88ac", "addresses": ["1PHzstNirfDNzDyrcrHxGiffHvHUCe6o9n"], "asm": "OP_DUP OP_HASH160 f489bc77c9556de753f2f0e3e43f82dcc7ce0b3b OP_EQUALVERIFY OP_CHECKSIG", "type": "pubkeyhash"}, "value": 0.00719368, "n": 1}], "hex": "0100000004ad3caf946879ffdc38838718b581bc37687858449f77a4b3ad5cbbd8c20caa162f0000006a47304402204ba205d45c27213c28b14b83e6aeb93dd9e8de6ee0f12735a6b266fc3ef990d702203546bc5771e93ee4ea183ecc24c4730f5f221850635db4faa72e7f05ed69ceb6012103565f3761a7006cfa0ae0065cc07de234c7447c93eef3479a6499c8ae376d5922ffffffff8f06e695c500aa07b38a5fc47d77ff0e3ed32e1fcddc34046225f9ed34d191f02b0000006a4730440220777d44e147b76d1f3aca681cef3e00056a5adffa6badc37828811eab32b64b2a022044debbac452e02b377d592be283432e938a95051f7afedc06def53468f69ef4b012103565f3761a7006cfa0ae0065cc07de234c7447c93eef3479a6499c8ae376d5922ffffffff04df1f1dabaf75df51b78e588ab32487ea4c018b656b04dd99cc3b93e9b596d0b10100006a47304402203e3e0b51bb633fa5c30198f6fff1108a3bc66e9eca681c08ff6020360086840002207b1e3a0a7db7eb042dcd8a176a5a0fc9595231efebda3ed46308a2741f787bfb012103565f3761a7006cfa0ae0065cc07de234c7447c93eef3479a6499c8ae376d5922ffffffff94d724a5af18662354e650951dc1140d658fdcb1617c24133fc83d7ec4354d2c1f0000006a47304402204c71e26d46ac1634f804ac5d81ca04b00dc5bc0f578f298d1426fb0fe8a616bd02207a526bd2bce461b9073828ba1891673934356634ed9166f9d2fb29db6dc8a298012103a571990bfe083eb1d9ec7a4ddacfa4099ec68b8c7c3f99aabd2754c748e96a29ffffffff0222cd0500000000001976a914b26c33eb707982cddc4f4ee8ea8db40d7c4f890a88ac08fa0a00000000001976a914f489bc77c9556de753f2f0e3e43f82dcc7ce0b3b88ac00000000", "vin": [{"sequence": 4294967295, "scriptSig": {"hex": "47304402204ba205d45c27213c28b14b83e6aeb93dd9e8de6ee0f12735a6b266fc3ef990d702203546bc5771e93ee4ea183ecc24c4730f5f221850635db4faa72e7f05ed69ceb6012103565f3761a7006cfa0ae0065cc07de234c7447c93eef3479a6499c8ae376d5922", "asm": "304402204ba205d45c27213c28b14b83e6aeb93dd9e8de6ee0f12735a6b266fc3ef990d702203546bc5771e93ee4ea183ecc24c4730f5f221850635db4faa72e7f05ed69ceb6[ALL] 03565f3761a7006cfa0ae0065cc07de234c7447c93eef3479a6499c8ae376d5922"}, "vout": 47, "txid": "16aa0cc2d8bb5cadb3a4779f4458786837bc81b518878338dcff796894af3cad"}, {"sequence": 4294967295, "scriptSig": {"hex": "4730440220777d44e147b76d1f3aca681cef3e00056a5adffa6badc37828811eab32b64b2a022044debbac452e02b377d592be283432e938a95051f7afedc06def53468f69ef4b012103565f3761a7006cfa0ae0065cc07de234c7447c93eef3479a6499c8ae376d5922", "asm": "30440220777d44e147b76d1f3aca681cef3e00056a5adffa6badc37828811eab32b64b2a022044debbac452e02b377d592be283432e938a95051f7afedc06def53468f69ef4b[ALL] 03565f3761a7006cfa0ae0065cc07de234c7447c93eef3479a6499c8ae376d5922"}, "vout": 43, "txid": "f091d134edf925620434dccd1f2ed33e0eff777dc45f8ab307aa00c595e6068f"}, {"sequence": 4294967295, "scriptSig": {"hex": "47304402203e3e0b51bb633fa5c30198f6fff1108a3bc66e9eca681c08ff6020360086840002207b1e3a0a7db7eb042dcd8a176a5a0fc9595231efebda3ed46308a2741f787bfb012103565f3761a7006cfa0ae0065cc07de234c7447c93eef3479a6499c8ae376d5922", "asm": "304402203e3e0b51bb633fa5c30198f6fff1108a3bc66e9eca681c08ff6020360086840002207b1e3a0a7db7eb042dcd8a176a5a0fc9595231efebda3ed46308a2741f787bfb[ALL] 03565f3761a7006cfa0ae0065cc07de234c7447c93eef3479a6499c8ae376d5922"}, "vout": 433, "txid": "d096b5e9933bcc99dd046b658b014cea8724b38a588eb751df75afab1d1fdf04"}, {"sequence": 4294967295, "scriptSig": {"hex": "47304402204c71e26d46ac1634f804ac5d81ca04b00dc5bc0f578f298d1426fb0fe8a616bd02207a526bd2bce461b9073828ba1891673934356634ed9166f9d2fb29db6dc8a298012103a571990bfe083eb1d9ec7a4ddacfa4099ec68b8c7c3f99aabd2754c748e96a29", "asm": "304402204c71e26d46ac1634f804ac5d81ca04b00dc5bc0f578f298d1426fb0fe8a616bd02207a526bd2bce461b9073828ba1891673934356634ed9166f9d2fb29db6dc8a298[ALL] 03a571990bfe083eb1d9ec7a4ddacfa4099ec68b8c7c3f99aabd2754c748e96a29"}, "vout": 31, "txid": "2c4d35c47e3dc83f13247c61b1dc8f650d14c11d9550e654236618afa524d794"}], "txid": "8847dbed13a34a2fa41b9ffe89f9ee8fcac8600b4da70608981bc2e577ac3f7a", "blocktime": 1537870928, "version": 1, "confirmations": 11512, "time": 1537870928, "locktime": 0, "vsize": 666, "size": 666}