{"hash": "75b25ce90991d1dbf1472e4381bd336eb12b6b56f3dfe69c91a67cf3fe805a2d", "blockhash": "00000000000000000018f53835495a110e01622372bf6ae95dc86f2b0ab887b0", "vout": [{"scriptPubKey": {"reqSigs": 1, "hex": "76a91482d99e105fd368c9c502039477abd670a19d422288ac", "addresses": ["1CvsYGEKHvLuAPjJfZSdEHHcggAzH5wCcT"], "asm": "OP_DUP OP_HASH160 82d99e105fd368c9c502039477abd670a19d4222 OP_EQUALVERIFY OP_CHECKSIG", "type": "pubkeyhash"}, "value": 0.00145859, "n": 0}, {"scriptPubKey": {"reqSigs": 1, "hex": "a91498fe97c7ef08fcc4c8ae6256dd3d462769db4e5587", "addresses": ["3Fdyd8HUXd8FHS86JpvF5zs9cV9pBcLz2g"], "asm": "OP_HASH160 98fe97c7ef08fcc4c8ae6256dd3d462769db4e55 OP_EQUAL", "type": "scripthash"}, "value": 3.924e-05, "n": 1}], "hex": "01000000000101bae286123bf6151ae84a1668ec5c844691f27cf8dc7679f437a0cbebfb79452f0000000017160014a9566bd40112ef09c74b540b3418f55afb019d23ffffffff02c3390200000000001976a91482d99e105fd368c9c502039477abd670a19d422288ac540f00000000000017a91498fe97c7ef08fcc4c8ae6256dd3d462769db4e558702483045022100acdaaf248459d534b34ab7dfeee1efdcd55d8abf3fb69809130944aa7d786a14022042a63b876af0675b1f6a1d6dd018c183fd31ede3d1bbbe47897e81f828dab2f1012102a2938a583fff3bd5225fad7be96872aaadc73cd98e8628c4b1ee0092d23dc61000000000", "vin": [{"txinwitness": ["3045022100acdaaf248459d534b34ab7dfeee1efdcd55d8abf3fb69809130944aa7d786a14022042a63b876af0675b1f6a1d6dd018c183fd31ede3d1bbbe47897e81f828dab2f101", "02a2938a583fff3bd5225fad7be96872aaadc73cd98e8628c4b1ee0092d23dc610"], "sequence": 4294967295, "scriptSig": {"hex": "160014a9566bd40112ef09c74b540b3418f55afb019d23", "asm": "0014a9566bd40112ef09c74b540b3418f55afb019d23"}, "vout": 0, "txid": "2f4579fbebcba037f47976dcf87cf29146845cec68164ae81a15f63b1286e2ba"}], "txid": "8848806da8a5ae410ed4aba19baccc8ae685b8c15e938f828dc380d8d1ff04b8", "blocktime": 1537870928, "version": 1, "confirmations": 11512, "time": 1537870928, "locktime": 0, "vsize": 168, "size": 250}