{"hash": "885b2857d1915660c063c9297d47ef0c4d985b529e15f2594c8e599bf3c8bb65", "blockhash": "0000000000000000000baef3f32e3676a92c3b2e5da21b426e4f302fc371ce76", "vout": [{"scriptPubKey": {"type": "nulldata", "hex": "6a4c50000078000001f88600651fb77b8e6189ffbad19ed074892d00f8e87af8e8e963c7cfd5b9f991beae7f275407d7b31575f78965d75baa19f9061349277ae2cc7b1d100759d4ba30d2c37bb011d97e02cf", "asm": "OP_RETURN 000078000001f88600651fb77b8e6189ffbad19ed074892d00f8e87af8e8e963c7cfd5b9f991beae7f275407d7b31575f78965d75baa19f9061349277ae2cc7b1d100759d4ba30d2c37bb011d97e02cf"}, "value": 0.0, "n": 0}, {"scriptPubKey": {"reqSigs": 1, "hex": "76a914e9acdf05a07cb69d234bf173f9fe87d8fad33bfd88ac", "addresses": ["1NJZXzodPGTrrmLLmbeY1egrg6fwZrYGNf"], "asm": "OP_DUP OP_HASH160 e9acdf05a07cb69d234bf173f9fe87d8fad33bfd OP_EQUALVERIFY OP_CHECKSIG", "type": "pubkeyhash"}, "value": 0.00632204, "n": 1}], "hex": "0100000001a03cd5d13a73e7a74519a8e38fa38976b89a099f04565835159a80f1498efa0a000000006a47304402205ade1fa31a4f3287eac7ba5c7a324fb169289d3dc9f7a1c18380a0a9a8d2f00202201d2f7b13b234a24bc58577b218927c2ea184ca00b17732e628488ffb169ab18b01210321bb5ec10b39e25581c75cc36dd829511179f7afd30b3b363ddc57fd266324aeffffffff020000000000000000536a4c50000078000001f88600651fb77b8e6189ffbad19ed074892d00f8e87af8e8e963c7cfd5b9f991beae7f275407d7b31575f78965d75baa19f9061349277ae2cc7b1d100759d4ba30d2c37bb011d97e02cf8ca50900000000001976a914e9acdf05a07cb69d234bf173f9fe87d8fad33bfd88ac00000000", "vin": [{"sequence": 4294967295, "scriptSig": {"hex": "47304402205ade1fa31a4f3287eac7ba5c7a324fb169289d3dc9f7a1c18380a0a9a8d2f00202201d2f7b13b234a24bc58577b218927c2ea184ca00b17732e628488ffb169ab18b01210321bb5ec10b39e25581c75cc36dd829511179f7afd30b3b363ddc57fd266324ae", "asm": "304402205ade1fa31a4f3287eac7ba5c7a324fb169289d3dc9f7a1c18380a0a9a8d2f00202201d2f7b13b234a24bc58577b218927c2ea184ca00b17732e628488ffb169ab18b[ALL] 0321bb5ec10b39e25581c75cc36dd829511179f7afd30b3b363ddc57fd266324ae"}, "vout": 0, "txid": "0afa8e49f1809a15355856049f099ab87689a38fe3a81945a7e7733ad1d53ca0"}], "txid": "885b2857d1915660c063c9297d47ef0c4d985b529e15f2594c8e599bf3c8bb65", "blocktime": 1537876114, "version": 1, "confirmations": 11460, "time": 1537876114, "locktime": 0, "vsize": 283, "size": 283}