{"hash": "885b2d60cec08925fc4f291b4058619e7075b81801c4279565f7892058e52a72", "blockhash": "000000000000000000022b45ed06c6f4ccd3cf7fb5ba4856ebd2e58215665228", "vout": [{"scriptPubKey": {"reqSigs": 1, "hex": "76a91441598e1e22a620a9c7cd530c65b42d3b9280f26288ac", "addresses": ["16xYCsSfrC6peUTJAfCD7SGqUSgQ7xLSJc"], "asm": "OP_DUP OP_HASH160 41598e1e22a620a9c7cd530c65b42d3b9280f262 OP_EQUALVERIFY OP_CHECKSIG", "type": "pubkeyhash"}, "value": 0.00475826, "n": 0}, {"scriptPubKey": {"reqSigs": 1, "hex": "76a9149645f5e1dcb900a818cfad02b14a897907462bfb88ac", "addresses": ["1EhaAiQ7VV4LUimZ24okxgBGgS7NUSpuz4"], "asm": "OP_DUP OP_HASH160 9645f5e1dcb900a818cfad02b14a897907462bfb OP_EQUALVERIFY OP_CHECKSIG", "type": "pubkeyhash"}, "value": 0.1, "n": 1}], "hex": "0100000004c13cee80b3095a9834aa034c1c4683c2289147d6f102a92c1eb6e25629aa827f010000006a4730440220017d0bcdd86b991a7ebd8b159bd626c4f7f35f51ff1e09fd39aa678e2fda673402205334ba8288117c8b1ea9921504b2aae6b8735aa96714615e136d001d22966bc3012103bbba6fc05b209f737c9d2dbc7782c10f7c139b625f3d740ea24751341ccece78ffffffff04fb031a36b66f5eb7811f7a31b08c9c7bbbbeac89d792b54094e4458a227fb4560800006b483045022100fcbe0d089453ca5a66ea3fcefe9162a6c54827d8b3b83e856b3ceb80b73018150220751d94c896dfcc822d3195de0094028633698b60d0f92d2ae01b9eabdb25b5c1012103bbba6fc05b209f737c9d2dbc7782c10f7c139b625f3d740ea24751341ccece78ffffffff1ca673b1ba1dd2de513cf47b41da20d66c18dc7fe6b3c30e23d955e1c428bcd6880800006b483045022100e23071abb2731a8816087b19fc8a6e1f4565013ad60224cf6aa7774326e98d6d0220311b9652da5a8efbf0559a7a2bbf9faa743fbc74c13bc1cbf021629fb292519f012103bbba6fc05b209f737c9d2dbc7782c10f7c139b625f3d740ea24751341ccece78ffffffff153c7647f52b98c614cbd629777eab807239470b44dcfb3e165cbbfe916b5ceb8f0800006a47304402205f0491dccbfb0a76cd38cb11e67b28c54cd644535b3526efd5517d61b0d2a04e022006c8ff6c5dbaa5103d9ad0ce0d5f4b8c85cb6de021c76c67270a4a25d38e70e7012103bbba6fc05b209f737c9d2dbc7782c10f7c139b625f3d740ea24751341ccece78ffffffff02b2420700000000001976a91441598e1e22a620a9c7cd530c65b42d3b9280f26288ac80969800000000001976a9149645f5e1dcb900a818cfad02b14a897907462bfb88ac00000000", "vin": [{"sequence": 4294967295, "scriptSig": {"hex": "4730440220017d0bcdd86b991a7ebd8b159bd626c4f7f35f51ff1e09fd39aa678e2fda673402205334ba8288117c8b1ea9921504b2aae6b8735aa96714615e136d001d22966bc3012103bbba6fc05b209f737c9d2dbc7782c10f7c139b625f3d740ea24751341ccece78", "asm": "30440220017d0bcdd86b991a7ebd8b159bd626c4f7f35f51ff1e09fd39aa678e2fda673402205334ba8288117c8b1ea9921504b2aae6b8735aa96714615e136d001d22966bc3[ALL] 03bbba6fc05b209f737c9d2dbc7782c10f7c139b625f3d740ea24751341ccece78"}, "vout": 1, "txid": "7f82aa2956e2b61e2ca902f1d6479128c283461c4c03aa34985a09b380ee3cc1"}, {"sequence": 4294967295, "scriptSig": {"hex": "483045022100fcbe0d089453ca5a66ea3fcefe9162a6c54827d8b3b83e856b3ceb80b73018150220751d94c896dfcc822d3195de0094028633698b60d0f92d2ae01b9eabdb25b5c1012103bbba6fc05b209f737c9d2dbc7782c10f7c139b625f3d740ea24751341ccece78", "asm": "3045022100fcbe0d089453ca5a66ea3fcefe9162a6c54827d8b3b83e856b3ceb80b73018150220751d94c896dfcc822d3195de0094028633698b60d0f92d2ae01b9eabdb25b5c1[ALL] 03bbba6fc05b209f737c9d2dbc7782c10f7c139b625f3d740ea24751341ccece78"}, "vout": 2134, "txid": "b47f228a45e49440b592d789acbebb7b9c8cb0317a1f81b75e6fb6361a03fb04"}, {"sequence": 4294967295, "scriptSig": {"hex": "483045022100e23071abb2731a8816087b19fc8a6e1f4565013ad60224cf6aa7774326e98d6d0220311b9652da5a8efbf0559a7a2bbf9faa743fbc74c13bc1cbf021629fb292519f012103bbba6fc05b209f737c9d2dbc7782c10f7c139b625f3d740ea24751341ccece78", "asm": "3045022100e23071abb2731a8816087b19fc8a6e1f4565013ad60224cf6aa7774326e98d6d0220311b9652da5a8efbf0559a7a2bbf9faa743fbc74c13bc1cbf021629fb292519f[ALL] 03bbba6fc05b209f737c9d2dbc7782c10f7c139b625f3d740ea24751341ccece78"}, "vout": 2184, "txid": "d6bc28c4e155d9230ec3b3e67fdc186cd620da417bf43c51ded21dbab173a61c"}, {"sequence": 4294967295, "scriptSig": {"hex": "47304402205f0491dccbfb0a76cd38cb11e67b28c54cd644535b3526efd5517d61b0d2a04e022006c8ff6c5dbaa5103d9ad0ce0d5f4b8c85cb6de021c76c67270a4a25d38e70e7012103bbba6fc05b209f737c9d2dbc7782c10f7c139b625f3d740ea24751341ccece78", "asm": "304402205f0491dccbfb0a76cd38cb11e67b28c54cd644535b3526efd5517d61b0d2a04e022006c8ff6c5dbaa5103d9ad0ce0d5f4b8c85cb6de021c76c67270a4a25d38e70e7[ALL] 03bbba6fc05b209f737c9d2dbc7782c10f7c139b625f3d740ea24751341ccece78"}, "vout": 2191, "txid": "eb5c6b91febb5c163efbdc440b47397280ab7e7729d6cb14c6982bf547763c15"}], "txid": "885b2d60cec08925fc4f291b4058619e7075b81801c4279565f7892058e52a72", "blocktime": 1537869901, "version": 1, "confirmations": 11524, "time": 1537869901, "locktime": 0, "vsize": 668, "size": 668}