{"hash": "885d2398e12b3186f7980ce5966b3f75d53c9d7709540a6457066b456fec410d", "blockhash": "00000000000000000018f53835495a110e01622372bf6ae95dc86f2b0ab887b0", "vout": [{"scriptPubKey": {"reqSigs": 1, "hex": "76a914c83dc634fcff8c1fbb48b8c8cfb518bc8ff94ca688ac", "addresses": ["1KFn9Wve4fzRMDxB4SoABZKrBjNTUBgXTE"], "asm": "OP_DUP OP_HASH160 c83dc634fcff8c1fbb48b8c8cfb518bc8ff94ca6 OP_EQUALVERIFY OP_CHECKSIG", "type": "pubkeyhash"}, "value": 0.00835997, "n": 0}, {"scriptPubKey": {"reqSigs": 1, "hex": "a91469ca5303bf179b9362db5cc7d6913cd1914f1e2387", "addresses": ["3BLPFRVX3zkAy3QfmqZjNf1wbRSFFnxG8y"], "asm": "OP_HASH160 69ca5303bf179b9362db5cc7d6913cd1914f1e23 OP_EQUAL", "type": "scripthash"}, "value": 0.1012012, "n": 1}], "hex": "0200000005309f9cc977fc89dfa3ee0be7a9218415e406d058c3277f1a91adfba05a9357f4160000006b48304502210084f59d7901079eb385b74b3ecf2173e0917a212fe60b56e554a6a839d15e6cac0220200b9cbe81905267750d979465edcc8739a0c559e199d582f4a20b0b84a6f06f012103ffec1773a02e84f6343cca93edd84266f9398bff9c7c5840191d5987c9c9d770feffffff5d500b81072d828b3e8679e89099ca64f4286111edd7f47f90bb2e06f9fd459c120100006b483045022100a2f840ee653174984056d0361918010eebbe350fc544fabd8355013e0ec56ea302204ec97cbf0b06e37d4861484111fc96c70cf22cd46c156cf39a33bb97702402bc0121032fe3f99bcce50366158bbb51f13d52772e6b2b9cbf18d40bccb39abd08af8d0bfeffffff5d500b81072d828b3e8679e89099ca64f4286111edd7f47f90bb2e06f9fd459c320100006b483045022100ec121c39fcbec0ff86058e53faa3c05471c5ff35b672d024618b497ddc79a357022012f6a2352a9799aa87683b6621a76bcd8f707c04f421c65adee21696986bafa6012103525e5c7f26f77ed965541f92ab534cd46e18ea273339892c51c051c73426b596feffffffc0ffe871618f097d6ab6a25e524768eda604752123a3d4d5c350203265c05169f80000006a47304402205207a574169a0401f56eb420666958740332e378796aace97a24b9a840c810a5022054829a0aa3a4d3a395b75a967e0ef62bca17bf76647c32664361c4f34fe0365201210243e06aa10d69ab6e5068d9b70b096fb4e09195f6a5c7404299863551cc792f0cfeffffffed24bf93b3a1fa87bd0a915faf7bd6d898c4cd9634f8c96ab41bf327cc33f0f6430100006a47304402207a776bcbf9a3478ffb47660d78bb095984142805f96e30071c07c71fe98144bc022061ecb953700cde09fd089be6d66ba2c6ceb804a997d8a657ad80cf97a872118101210391a464785c5d435b5246a0d88ca7ba833b416c3c7dfb2ce617a9d1c7ef4491d4feffffff029dc10c00000000001976a914c83dc634fcff8c1fbb48b8c8cfb518bc8ff94ca688acb86b9a000000000017a91469ca5303bf179b9362db5cc7d6913cd1914f1e238708490800", "vin": [{"sequence": 4294967294, "scriptSig": {"hex": "48304502210084f59d7901079eb385b74b3ecf2173e0917a212fe60b56e554a6a839d15e6cac0220200b9cbe81905267750d979465edcc8739a0c559e199d582f4a20b0b84a6f06f012103ffec1773a02e84f6343cca93edd84266f9398bff9c7c5840191d5987c9c9d770", "asm": "304502210084f59d7901079eb385b74b3ecf2173e0917a212fe60b56e554a6a839d15e6cac0220200b9cbe81905267750d979465edcc8739a0c559e199d582f4a20b0b84a6f06f[ALL] 03ffec1773a02e84f6343cca93edd84266f9398bff9c7c5840191d5987c9c9d770"}, "vout": 22, "txid": "f457935aa0fbad911a7f27c358d006e4158421a9e70beea3df89fc77c99c9f30"}, {"sequence": 4294967294, "scriptSig": {"hex": "483045022100a2f840ee653174984056d0361918010eebbe350fc544fabd8355013e0ec56ea302204ec97cbf0b06e37d4861484111fc96c70cf22cd46c156cf39a33bb97702402bc0121032fe3f99bcce50366158bbb51f13d52772e6b2b9cbf18d40bccb39abd08af8d0b", "asm": "3045022100a2f840ee653174984056d0361918010eebbe350fc544fabd8355013e0ec56ea302204ec97cbf0b06e37d4861484111fc96c70cf22cd46c156cf39a33bb97702402bc[ALL] 032fe3f99bcce50366158bbb51f13d52772e6b2b9cbf18d40bccb39abd08af8d0b"}, "vout": 274, "txid": "9c45fdf9062ebb907ff4d7ed116128f464ca9990e879863e8b822d07810b505d"}, {"sequence": 4294967294, "scriptSig": {"hex": "483045022100ec121c39fcbec0ff86058e53faa3c05471c5ff35b672d024618b497ddc79a357022012f6a2352a9799aa87683b6621a76bcd8f707c04f421c65adee21696986bafa6012103525e5c7f26f77ed965541f92ab534cd46e18ea273339892c51c051c73426b596", "asm": "3045022100ec121c39fcbec0ff86058e53faa3c05471c5ff35b672d024618b497ddc79a357022012f6a2352a9799aa87683b6621a76bcd8f707c04f421c65adee21696986bafa6[ALL] 03525e5c7f26f77ed965541f92ab534cd46e18ea273339892c51c051c73426b596"}, "vout": 306, "txid": "9c45fdf9062ebb907ff4d7ed116128f464ca9990e879863e8b822d07810b505d"}, {"sequence": 4294967294, "scriptSig": {"hex": "47304402205207a574169a0401f56eb420666958740332e378796aace97a24b9a840c810a5022054829a0aa3a4d3a395b75a967e0ef62bca17bf76647c32664361c4f34fe0365201210243e06aa10d69ab6e5068d9b70b096fb4e09195f6a5c7404299863551cc792f0c", "asm": "304402205207a574169a0401f56eb420666958740332e378796aace97a24b9a840c810a5022054829a0aa3a4d3a395b75a967e0ef62bca17bf76647c32664361c4f34fe03652[ALL] 0243e06aa10d69ab6e5068d9b70b096fb4e09195f6a5c7404299863551cc792f0c"}, "vout": 248, "txid": "6951c065322050c3d5d4a323217504a6ed6847525ea2b66a7d098f6171e8ffc0"}, {"sequence": 4294967294, "scriptSig": {"hex": "47304402207a776bcbf9a3478ffb47660d78bb095984142805f96e30071c07c71fe98144bc022061ecb953700cde09fd089be6d66ba2c6ceb804a997d8a657ad80cf97a872118101210391a464785c5d435b5246a0d88ca7ba833b416c3c7dfb2ce617a9d1c7ef4491d4", "asm": "304402207a776bcbf9a3478ffb47660d78bb095984142805f96e30071c07c71fe98144bc022061ecb953700cde09fd089be6d66ba2c6ceb804a997d8a657ad80cf97a8721181[ALL] 0391a464785c5d435b5246a0d88ca7ba833b416c3c7dfb2ce617a9d1c7ef4491d4"}, "vout": 323, "txid": "f6f033cc27f31bb46ac9f83496cdc498d8d67baf5f910abd87faa1b393bf24ed"}], "txid": "885d2398e12b3186f7980ce5966b3f75d53c9d7709540a6457066b456fec410d", "blocktime": 1537870928, "version": 2, "confirmations": 11512, "time": 1537870928, "locktime": 542984, "vsize": 814, "size": 814}