{"hash": "d63e99aaef36e61aa6b1a625f4be7b91a232551a60c480b832cc3ffb1b7df1da", "blockhash": "0000000000000000000baef3f32e3676a92c3b2e5da21b426e4f302fc371ce76", "vout": [{"scriptPubKey": {"reqSigs": 1, "hex": "a9149a32acd951cb7c2e06ab2095e46cb5db7bb1899b87", "addresses": ["3FkLh4QsnX34d8RcoEigF3eBzezWiFRmkd"], "asm": "OP_HASH160 9a32acd951cb7c2e06ab2095e46cb5db7bb1899b OP_EQUAL", "type": "scripthash"}, "value": 0.01008491, "n": 0}, {"scriptPubKey": {"reqSigs": 1, "hex": "a91472caa1a5f9b59c369bcfd16839e5b17167a240e687", "addresses": ["3C9yhVU3abadRNismcPzKCUu7GHzFtNfoL"], "asm": "OP_HASH160 72caa1a5f9b59c369bcfd16839e5b17167a240e6 OP_EQUAL", "type": "scripthash"}, "value": 0.0032296, "n": 1}], "hex": "02000000000102862b64db3b01971da9fe046a0798061d4fd7ba49be57520df9ddaad0f174adaa0100000017160014ac6d23e3587659b9f5df55002d7c5c8ad729a18bfeffffffeff8d33c535ef842a8a3ee7ca94ae9e93cd4aa43e13a77ec62ecb5c7744049110000000017160014ce244e15d33791415fc045dc0d01724eec5b6806feffffff026b630f000000000017a9149a32acd951cb7c2e06ab2095e46cb5db7bb1899b8790ed04000000000017a91472caa1a5f9b59c369bcfd16839e5b17167a240e687024730440220277de90cfc82ec7f91712a05b43293f994a8a3e6c2672bbcf2bafbd19bdfaea102200dcab20b0d078b5fe2b7187d0b4c37604d221f51729a96a05b1cde7af2ee26ca012103b078d59ac2122f326d3b8502ae7314d4f7b02434b0df071a99d7223013de19ff024830450221009555f4ed6a6e8b3ac5c06139bf544449c0e1f609580fbc7a79d9a2c747cb947002202254182d59517e8b26e645442a0e9e2bfc0ef8f77737e2af236c07953e1d4de20121026d54cd7845da8c4d3bc3c218da33ccbf42d3342000cb650301807019896d74bc17490800", "vin": [{"txinwitness": ["30440220277de90cfc82ec7f91712a05b43293f994a8a3e6c2672bbcf2bafbd19bdfaea102200dcab20b0d078b5fe2b7187d0b4c37604d221f51729a96a05b1cde7af2ee26ca01", "03b078d59ac2122f326d3b8502ae7314d4f7b02434b0df071a99d7223013de19ff"], "sequence": 4294967294, "scriptSig": {"hex": "160014ac6d23e3587659b9f5df55002d7c5c8ad729a18b", "asm": "0014ac6d23e3587659b9f5df55002d7c5c8ad729a18b"}, "vout": 1, "txid": "aaad74f1d0aaddf90d5257be49bad74f1d0698076a04fea91d97013bdb642b86"}, {"txinwitness": ["30450221009555f4ed6a6e8b3ac5c06139bf544449c0e1f609580fbc7a79d9a2c747cb947002202254182d59517e8b26e645442a0e9e2bfc0ef8f77737e2af236c07953e1d4de201", "026d54cd7845da8c4d3bc3c218da33ccbf42d3342000cb650301807019896d74bc"], "sequence": 4294967294, "scriptSig": {"hex": "160014ce244e15d33791415fc045dc0d01724eec5b6806", "asm": "0014ce244e15d33791415fc045dc0d01724eec5b6806"}, "vout": 0, "txid": "11494074c7b5ec62ec773ae143aad43ce9e94aa97ceea3a842f85e533cd3f8ef"}], "txid": "885fe30b3a163f68bc42177f488672a4903931a26e9fb9624f37633edd800d9b", "blocktime": 1537876114, "version": 2, "confirmations": 11462, "time": 1537876114, "locktime": 542999, "vsize": 257, "size": 419}