{"hash": "886133e6fe3f52ac164b60a2d8c4a5ec768c0a06da0a6c635e9d7eec4a93e72c", "blockhash": "000000000000000000022b45ed06c6f4ccd3cf7fb5ba4856ebd2e58215665228", "vout": [{"scriptPubKey": {"reqSigs": 1, "hex": "76a914b58978cf246f21545503830c172a1abcc24d013288ac", "addresses": ["1HYszSMTnWF1sKs1kLHgqMPWEqsJ4CVJUy"], "asm": "OP_DUP OP_HASH160 b58978cf246f21545503830c172a1abcc24d0132 OP_EQUALVERIFY OP_CHECKSIG", "type": "pubkeyhash"}, "value": 0.94663108, "n": 0}, {"scriptPubKey": {"reqSigs": 1, "hex": "76a9147170c1b8ff52dfa6b27ff72040f809e59fe1131388ac", "addresses": ["1BLpS9oPkquqMVm1ntvjVuGEFBmXMTi9D3"], "asm": "OP_DUP OP_HASH160 7170c1b8ff52dfa6b27ff72040f809e59fe11313 OP_EQUALVERIFY OP_CHECKSIG", "type": "pubkeyhash"}, "value": 0.27886644, "n": 1}], "hex": "01000000046b31a4f3fd5ec46cfc71fa103d3c945cd5e205bb2c95f712c1e985bb78ac2b94000000006b483045022100c6d2df5bd45bda788b6f59cca6e64837bee79f5909319d051b23bebcd50d405202200ac24bbc4cf61ca057aba76a359f8312bcf0578ae8f7f77200ada42b21ab0188012103264db0efb89877251e5ae2d48172ca694235d771937a4a7d7cf13b1a67c25ebcfffffffff7126fd9c283908e339507a9c0620643250623661da1017e20257d823966f2b4000000006b483045022100e7dd427fc88e6b480cf1b422d1ac1359041684ccea68f1386fe6405625bdca41022016fd7dd3c533d3b52b1d8882b2250736698b5f92113000ac7b4fe59feced3d70012103635fc5f6fc5730d967ba0be878c23ff5c7c065584431509793ebeb3fb48e6349ffffffffc5e2d8b87755cc06d929a347594658ac4875a4f51323708320f8fe540894f1b0010000006b483045022100c5517891ffcb5bc38ed8ae60673b0782f40d3d0b393a0b31f443bb1b4ea36fa402205fda03ae6470da1942a3d1e020bb4a45e3d5dee4a1d40345efa9313e47beb79b01210272038672097c36398ba6c0ebfcf0eb7b755034ecf5096a12141e300eecfc4caeffffffffa6d51825010e2f3a511af4f89c9846a5e7656647e43565e756c30eb1ac51369e010000006a4730440220261b88a344fb093f6ee07cc4cd1e8726d86d0562d8209e3e9078d58f73d2bae80220533ad90ed925939d75bc361b85b71b24d1f884329439239bf65ed8b9034501dc0121028c0806d6cfd1f6b45013c4cb39d9a30497611292955269d43506930e901a6541ffffffff02c471a405000000001976a914b58978cf246f21545503830c172a1abcc24d013288ac3484a901000000001976a9147170c1b8ff52dfa6b27ff72040f809e59fe1131388ac00000000", "vin": [{"sequence": 4294967295, "scriptSig": {"hex": "483045022100c6d2df5bd45bda788b6f59cca6e64837bee79f5909319d051b23bebcd50d405202200ac24bbc4cf61ca057aba76a359f8312bcf0578ae8f7f77200ada42b21ab0188012103264db0efb89877251e5ae2d48172ca694235d771937a4a7d7cf13b1a67c25ebc", "asm": "3045022100c6d2df5bd45bda788b6f59cca6e64837bee79f5909319d051b23bebcd50d405202200ac24bbc4cf61ca057aba76a359f8312bcf0578ae8f7f77200ada42b21ab0188[ALL] 03264db0efb89877251e5ae2d48172ca694235d771937a4a7d7cf13b1a67c25ebc"}, "vout": 0, "txid": "942bac78bb85e9c112f7952cbb05e2d55c943c3d10fa71fc6cc45efdf3a4316b"}, {"sequence": 4294967295, "scriptSig": {"hex": "483045022100e7dd427fc88e6b480cf1b422d1ac1359041684ccea68f1386fe6405625bdca41022016fd7dd3c533d3b52b1d8882b2250736698b5f92113000ac7b4fe59feced3d70012103635fc5f6fc5730d967ba0be878c23ff5c7c065584431509793ebeb3fb48e6349", "asm": "3045022100e7dd427fc88e6b480cf1b422d1ac1359041684ccea68f1386fe6405625bdca41022016fd7dd3c533d3b52b1d8882b2250736698b5f92113000ac7b4fe59feced3d70[ALL] 03635fc5f6fc5730d967ba0be878c23ff5c7c065584431509793ebeb3fb48e6349"}, "vout": 0, "txid": "b4f26639827d25207e01a11d66230625430662c0a90795338e9083c2d96f12f7"}, {"sequence": 4294967295, "scriptSig": {"hex": "483045022100c5517891ffcb5bc38ed8ae60673b0782f40d3d0b393a0b31f443bb1b4ea36fa402205fda03ae6470da1942a3d1e020bb4a45e3d5dee4a1d40345efa9313e47beb79b01210272038672097c36398ba6c0ebfcf0eb7b755034ecf5096a12141e300eecfc4cae", "asm": "3045022100c5517891ffcb5bc38ed8ae60673b0782f40d3d0b393a0b31f443bb1b4ea36fa402205fda03ae6470da1942a3d1e020bb4a45e3d5dee4a1d40345efa9313e47beb79b[ALL] 0272038672097c36398ba6c0ebfcf0eb7b755034ecf5096a12141e300eecfc4cae"}, "vout": 1, "txid": "b0f1940854fef82083702313f5a47548ac58465947a329d906cc5577b8d8e2c5"}, {"sequence": 4294967295, "scriptSig": {"hex": "4730440220261b88a344fb093f6ee07cc4cd1e8726d86d0562d8209e3e9078d58f73d2bae80220533ad90ed925939d75bc361b85b71b24d1f884329439239bf65ed8b9034501dc0121028c0806d6cfd1f6b45013c4cb39d9a30497611292955269d43506930e901a6541", "asm": "30440220261b88a344fb093f6ee07cc4cd1e8726d86d0562d8209e3e9078d58f73d2bae80220533ad90ed925939d75bc361b85b71b24d1f884329439239bf65ed8b9034501dc[ALL] 028c0806d6cfd1f6b45013c4cb39d9a30497611292955269d43506930e901a6541"}, "vout": 1, "txid": "9e3651acb10ec356e76535e4476665e7a546989cf8f41a513a2f0e012518d5a6"}], "txid": "886133e6fe3f52ac164b60a2d8c4a5ec768c0a06da0a6c635e9d7eec4a93e72c", "blocktime": 1537869901, "version": 1, "confirmations": 11522, "time": 1537869901, "locktime": 0, "vsize": 669, "size": 669}