{"hash": "a2c429eba8fd06ae46bf404107f2ac079efe61f8348735ca3cce42fe565ad37f", "blockhash": "0000000000000000000baef3f32e3676a92c3b2e5da21b426e4f302fc371ce76", "vout": [{"scriptPubKey": {"reqSigs": 1, "hex": "76a914efe777d4713fde111587aea39c3b429696304bf688ac", "addresses": ["1NsVnXrcaqbdhnC6PsdskSCDFsk2bb4YsX"], "asm": "OP_DUP OP_HASH160 efe777d4713fde111587aea39c3b429696304bf6 OP_EQUALVERIFY OP_CHECKSIG", "type": "pubkeyhash"}, "value": 0.012805, "n": 0}, {"scriptPubKey": {"reqSigs": 1, "hex": "a914dee0a1cc9f055700143e0f4ecee53180ab3530dc87", "addresses": ["3N1V2qWA5hpScEmS72pMooYRmXUiLmwPQQ"], "asm": "OP_HASH160 dee0a1cc9f055700143e0f4ecee53180ab3530dc OP_EQUAL", "type": "scripthash"}, "value": 0.32032458, "n": 1}], "hex": "02000000000101c6415ba27190059ba7df6e4776697ebfb292019a91171fa506fa60796807ff190100000017160014cb5dbe423de4d42b6425c6921084c6197a5d2937ffffffff02f4891300000000001976a914efe777d4713fde111587aea39c3b429696304bf688accac6e8010000000017a914dee0a1cc9f055700143e0f4ecee53180ab3530dc87024830450221008d47ef6ff208845556060c58deb2f308af7ec8865006ca93842d7cd56ba8ebd702202cc181553f3964a39cdde34cf36051535b51d8e5b9419bdc6065919f502e4926012102acecad485eda786cbe0422823b7594aea6854abb5ec85e267f1c4b87f3f758f700000000", "vin": [{"txinwitness": ["30450221008d47ef6ff208845556060c58deb2f308af7ec8865006ca93842d7cd56ba8ebd702202cc181553f3964a39cdde34cf36051535b51d8e5b9419bdc6065919f502e492601", "02acecad485eda786cbe0422823b7594aea6854abb5ec85e267f1c4b87f3f758f7"], "sequence": 4294967295, "scriptSig": {"hex": "160014cb5dbe423de4d42b6425c6921084c6197a5d2937", "asm": "0014cb5dbe423de4d42b6425c6921084c6197a5d2937"}, "vout": 1, "txid": "19ff07687960fa06a51f17919a0192b2bf7e6976476edfa79b059071a25b41c6"}], "txid": "886d3e3fb4e91ee986588076df863ac495f325d7650de1f95249a95905292778", "blocktime": 1537876114, "version": 2, "confirmations": 11459, "time": 1537876114, "locktime": 0, "vsize": 168, "size": 250}