{"hash": "886fc187738b2c6f659a3e7e463f9f08bcce2250171dcc01aa9483b8d60dad8a", "blockhash": "000000000000000000022b45ed06c6f4ccd3cf7fb5ba4856ebd2e58215665228", "vout": [{"scriptPubKey": {"type": "nulldata", "hex": "6a146f6d6e69000000000000001f0000001f62b4c400", "asm": "OP_RETURN 6f6d6e69000000000000001f0000001f62b4c400"}, "value": 0.0, "n": 0}, {"scriptPubKey": {"reqSigs": 1, "hex": "76a914d1763339f9e597c84b288eca0188ea67aa6b011988ac", "addresses": ["1L6XpnDygG2VySVEVmaqHtYTYwJAHhvRYZ"], "asm": "OP_DUP OP_HASH160 d1763339f9e597c84b288eca0188ea67aa6b0119 OP_EQUALVERIFY OP_CHECKSIG", "type": "pubkeyhash"}, "value": 5.46e-06, "n": 1}, {"scriptPubKey": {"reqSigs": 1, "hex": "76a914284b1f894ca72430de8f19952125b6016a9dc7c688ac", "addresses": ["14g42KnXkRFfR8cUtS5tReprjeNvGQKW9v"], "asm": "OP_DUP OP_HASH160 284b1f894ca72430de8f19952125b6016a9dc7c6 OP_EQUALVERIFY OP_CHECKSIG", "type": "pubkeyhash"}, "value": 0.14501293, "n": 2}], "hex": "01000000015d0147f310000f79f96807ece9e7ea1004537d83f7c54849a801ff9e417553cb010000006a47304402200a9bacabcce9ab67c788ee9e70e3e4dedf4993b6f75b97052cd0e10573d42c1b02203e600388bac49833140258b498b2aaa13c2a10cdd32237e9592fae5f7fb2a36c01210392260b2475e9dec1855e89404d00787579055270f3f1619ec29bd64ed6a6dd7dfeffffff030000000000000000166a146f6d6e69000000000000001f0000001f62b4c40022020000000000001976a914d1763339f9e597c84b288eca0188ea67aa6b011988acad45dd00000000001976a914284b1f894ca72430de8f19952125b6016a9dc7c688ac0b490800", "vin": [{"sequence": 4294967294, "scriptSig": {"hex": "47304402200a9bacabcce9ab67c788ee9e70e3e4dedf4993b6f75b97052cd0e10573d42c1b02203e600388bac49833140258b498b2aaa13c2a10cdd32237e9592fae5f7fb2a36c01210392260b2475e9dec1855e89404d00787579055270f3f1619ec29bd64ed6a6dd7d", "asm": "304402200a9bacabcce9ab67c788ee9e70e3e4dedf4993b6f75b97052cd0e10573d42c1b02203e600388bac49833140258b498b2aaa13c2a10cdd32237e9592fae5f7fb2a36c[ALL] 0392260b2475e9dec1855e89404d00787579055270f3f1619ec29bd64ed6a6dd7d"}, "vout": 1, "txid": "cb5375419eff01a84948c5f7837d530410eae7e9ec0768f9790f0010f347015d"}], "txid": "886fc187738b2c6f659a3e7e463f9f08bcce2250171dcc01aa9483b8d60dad8a", "blocktime": 1537869901, "version": 1, "confirmations": 11522, "time": 1537869901, "locktime": 542987, "vsize": 256, "size": 256}