{"hash": "8876646a3b8172725f5d2f3cbcc256bcfa02a942ca5500e6727ab13946020665", "blockhash": "0000000000000000001e0dab787dd257d1dbfcb92a98c2207d5e1078be1f4165", "vout": [{"scriptPubKey": {"type": "nulldata", "hex": "6a4c50000077b5000169c45d1b9ff72dde81139766e5bf9ae76da98a211aaf6c953dd567cf27e762a72429287098ad3e5c664ef7cc9cd85baa11ae0611f9ac11a4f2e71d100759d4ba30d2c37bb011d97e02cf", "asm": "OP_RETURN 000077b5000169c45d1b9ff72dde81139766e5bf9ae76da98a211aaf6c953dd567cf27e762a72429287098ad3e5c664ef7cc9cd85baa11ae0611f9ac11a4f2e71d100759d4ba30d2c37bb011d97e02cf"}, "value": 0.0, "n": 0}, {"scriptPubKey": {"reqSigs": 1, "hex": "76a91496d7081a8414f9618e345c6903de18446241c46a88ac", "addresses": ["1EkZxSHCxhDwSJtQBUNYUjM5WkuSB6Btnw"], "asm": "OP_DUP OP_HASH160 96d7081a8414f9618e345c6903de18446241c46a OP_EQUALVERIFY OP_CHECKSIG", "type": "pubkeyhash"}, "value": 0.00640761, "n": 1}], "hex": "01000000017dd90f55cb7277b39780a0900f4f6bfbd7ecd1ebe487579166c3945b4bf87e7d010000006b483045022100839590eff7ae1e9dd976efb0810368b0dbf613f1287b243ec0ceebed7f67f82102202b313833c8bdbe7f411d80dec0717155d7e901b399024432c1e4533846c8116a012103d0188c3e4963d72460ae00cc9b0ae402203247501c3c301ee4350b5b6d6f7cc0ffffffff020000000000000000536a4c50000077b5000169c45d1b9ff72dde81139766e5bf9ae76da98a211aaf6c953dd567cf27e762a72429287098ad3e5c664ef7cc9cd85baa11ae0611f9ac11a4f2e71d100759d4ba30d2c37bb011d97e02cff9c60900000000001976a91496d7081a8414f9618e345c6903de18446241c46a88ac00000000", "vin": [{"sequence": 4294967295, "scriptSig": {"hex": "483045022100839590eff7ae1e9dd976efb0810368b0dbf613f1287b243ec0ceebed7f67f82102202b313833c8bdbe7f411d80dec0717155d7e901b399024432c1e4533846c8116a012103d0188c3e4963d72460ae00cc9b0ae402203247501c3c301ee4350b5b6d6f7cc0", "asm": "3045022100839590eff7ae1e9dd976efb0810368b0dbf613f1287b243ec0ceebed7f67f82102202b313833c8bdbe7f411d80dec0717155d7e901b399024432c1e4533846c8116a[ALL] 03d0188c3e4963d72460ae00cc9b0ae402203247501c3c301ee4350b5b6d6f7cc0"}, "vout": 1, "txid": "7d7ef84b5b94c366915787e4ebd1ecd7fb6b4f0f90a08097b37772cb550fd97d"}], "txid": "8876646a3b8172725f5d2f3cbcc256bcfa02a942ca5500e6727ab13946020665", "blocktime": 1537872475, "version": 1, "confirmations": 11486, "time": 1537872475, "locktime": 0, "vsize": 284, "size": 284}