{"hash": "1d3f6efd30b86e4fac503f523581afdf58766c6753ba5495728b973f8d07a9d2", "blockhash": "00000000000000000017f5eb5941039fbcee6240d03bc1f2f8e35350df66a1d8", "vout": [{"scriptPubKey": {"reqSigs": 1, "hex": "a914f05dcb73793193ce8bf5de3601728fd103859bcb87", "addresses": ["3PbxTZ9w65TtBGqtWx4UWxVJqT7avj4EpW"], "asm": "OP_HASH160 f05dcb73793193ce8bf5de3601728fd103859bcb OP_EQUAL", "type": "scripthash"}, "value": 0.00225771, "n": 0}, {"scriptPubKey": {"reqSigs": 1, "hex": "a9148bd34e530356fc5cca61683d2487fb2572a905af87", "addresses": ["3ESLz19FD8gJkQUsn6QiWrazpUsxBGNt5P"], "asm": "OP_HASH160 8bd34e530356fc5cca61683d2487fb2572a905af OP_EQUAL", "type": "scripthash"}, "value": 0.01818635, "n": 1}], "hex": "0200000000010191b00c7f00d9020d1ae3858a946906fb8630ab27e7d19caa65d69efef8d50f8b01000000171600141a527390a36ac10d158101db23444c08c3b968d8feffffff02eb7103000000000017a914f05dcb73793193ce8bf5de3601728fd103859bcb870bc01b000000000017a9148bd34e530356fc5cca61683d2487fb2572a905af870247304402206b6d0c66203ab363727639e19383b06a9993d8d1643f4bd2ed1704ecb965e95402203ddd821ad8acb40ab32663cb8b5114ea6e655b17abd29f098a86ad0d530d1750012102239a604031ded9844bae2e0944382188be04bb59fa7379e44113987e978aa5c415490800", "vin": [{"txinwitness": ["304402206b6d0c66203ab363727639e19383b06a9993d8d1643f4bd2ed1704ecb965e95402203ddd821ad8acb40ab32663cb8b5114ea6e655b17abd29f098a86ad0d530d175001", "02239a604031ded9844bae2e0944382188be04bb59fa7379e44113987e978aa5c4"], "sequence": 4294967294, "scriptSig": {"hex": "1600141a527390a36ac10d158101db23444c08c3b968d8", "asm": "00141a527390a36ac10d158101db23444c08c3b968d8"}, "vout": 1, "txid": "8b0fd5f8fe9ed665aa9cd1e727ab3086fb0669948a85e31a0d02d9007f0cb091"}], "txid": "887a7c8965d203ed0d7bd41e2e93ad7a201adea02845f485c6c1a648e6f09124", "blocktime": 1537874412, "version": 2, "confirmations": 11467, "time": 1537874412, "locktime": 542997, "vsize": 166, "size": 247}