{"hash": "7fb786bc74b6093826500f36d7b2f9df42fd1acbecd3c14e91f61626c9a7791e", "blockhash": "0000000000000000001e0dab787dd257d1dbfcb92a98c2207d5e1078be1f4165", "vout": [{"scriptPubKey": {"reqSigs": 1, "hex": "a914dd90daf5ed9254d94f88f0c7c3e585889b99729187", "addresses": ["3MtYnfMGTjVvGHeCcz36fHXhWyPMpTE5aT"], "asm": "OP_HASH160 dd90daf5ed9254d94f88f0c7c3e585889b997291 OP_EQUAL", "type": "scripthash"}, "value": 0.1317, "n": 0}, {"scriptPubKey": {"reqSigs": 1, "hex": "a91460ae512a2d1bb3e456aac5b113c413e6e5f32d9e87", "addresses": ["3AWDcijmqdgb4Hxpra3p2k8nfm76UFCDed"], "asm": "OP_HASH160 60ae512a2d1bb3e456aac5b113c413e6e5f32d9e OP_EQUAL", "type": "scripthash"}, "value": 22.05667888, "n": 1}], "hex": "01000000000101037ae24d886f89c684e76dd655fa15228293ba84786e1f11d1a8f151e38269080100000017160014adeb4ecc580aa3143dfb7179e633d7d3e1d9d09bffffffff0250f5c8000000000017a914dd90daf5ed9254d94f88f0c7c3e585889b9972918730d277830000000017a91460ae512a2d1bb3e456aac5b113c413e6e5f32d9e8702483045022100f63c56ad907ed3e290d17d8d4112c40b4f05ae5d365cd7ff90872748822fbbd3022019623ddaf83c01681beb702960d7cfd2a184154f85d0810a8f679b12f9ea796c012103612df0f0fda9a758ddc4c031e703e2e89bb41722edc472aff18da42d04324e8700000000", "vin": [{"txinwitness": ["3045022100f63c56ad907ed3e290d17d8d4112c40b4f05ae5d365cd7ff90872748822fbbd3022019623ddaf83c01681beb702960d7cfd2a184154f85d0810a8f679b12f9ea796c01", "03612df0f0fda9a758ddc4c031e703e2e89bb41722edc472aff18da42d04324e87"], "sequence": 4294967295, "scriptSig": {"hex": "160014adeb4ecc580aa3143dfb7179e633d7d3e1d9d09b", "asm": "0014adeb4ecc580aa3143dfb7179e633d7d3e1d9d09b"}, "vout": 1, "txid": "086982e351f1a8d1111f6e7884ba93822215fa55d66de784c6896f884de27a03"}], "txid": "887c2f172a6775b87c888d4fe38fe4dba64fe4cec11bc4ca6f4873a7f6ad3f37", "blocktime": 1537872475, "version": 1, "confirmations": 11486, "time": 1537872475, "locktime": 0, "vsize": 166, "size": 248}