{"hash": "cdcdf15a6a590194e013dfbde0df0c1a728e3fc3559b38fb02dc32c1a74bf505", "blockhash": "0000000000000000001f0ddff1eddb255c1121bcd4da4f1bc9a0da00cae72433", "vout": [{"scriptPubKey": {"reqSigs": 1, "hex": "001416650dc7d6f2f2c284af73d09fbef25dc94bd035", "addresses": ["bc1qzejsm37k7tev9p90w0gfl0hjthy5h5p40ec4ye"], "asm": "0 16650dc7d6f2f2c284af73d09fbef25dc94bd035", "type": "witness_v0_keyhash"}, "value": 1.252e-05, "n": 0}, {"scriptPubKey": {"reqSigs": 1, "hex": "76a9146ec232b736699aaee0057973989d89cb9a02cd1d88ac", "addresses": ["1B6dyDuK9iGHaW5mLbMq6kwkJZZUsqiTBJ"], "asm": "OP_DUP OP_HASH160 6ec232b736699aaee0057973989d89cb9a02cd1d OP_EQUALVERIFY OP_CHECKSIG", "type": "pubkeyhash"}, "value": 0.0028733, "n": 1}], "hex": "0100000000010115ed9975d8150fe4324f10dfa94cc866b2874f688d5c00bbb3ec31e6b4ab4f310100000017160014727c6c2cfe1b5118787ee545f1f8eab218783b83ffffffff02e40400000000000016001416650dc7d6f2f2c284af73d09fbef25dc94bd03562620400000000001976a9146ec232b736699aaee0057973989d89cb9a02cd1d88ac02483045022100ce3c8ed3ed281e640d66c32e389ea9fdfa9a69cdaf92f3e7ce324d08251a67770220520f744d7abfe5eb44836edd0ae0953156aa93e9872dd3551f7df4801d2bd30d012103d60bd529e18bb09b37c70ade3b379fc580669c85927ff9e64b41faddeee8e7f400000000", "vin": [{"txinwitness": ["3045022100ce3c8ed3ed281e640d66c32e389ea9fdfa9a69cdaf92f3e7ce324d08251a67770220520f744d7abfe5eb44836edd0ae0953156aa93e9872dd3551f7df4801d2bd30d01", "03d60bd529e18bb09b37c70ade3b379fc580669c85927ff9e64b41faddeee8e7f4"], "sequence": 4294967295, "scriptSig": {"hex": "160014727c6c2cfe1b5118787ee545f1f8eab218783b83", "asm": "0014727c6c2cfe1b5118787ee545f1f8eab218783b83"}, "vout": 1, "txid": "314fabb4e631ecb3bb005c8d684f87b266c84ca9df104f32e40f15d87599ed15"}], "txid": "8881f5f0361911a6906639cba59e97a54c4cdf3e4e6a00dd5f736519981a9938", "blocktime": 1537872018, "version": 1, "confirmations": 11489, "time": 1537872018, "locktime": 0, "vsize": 167, "size": 249}