{"hash": "307e3711f138c94ab4ea389f76440fed28b81828da92ac420150c17ae5a82685", "blockhash": "0000000000000000000e13cef7c366c0283d82e591d1acd082e914b08063cdf1", "vout": [{"scriptPubKey": {"reqSigs": 1, "hex": "76a914172b8c59ce8b677f881d5653d8a6758836e83ef688ac", "addresses": ["137WiCSVGUq7aZZKDkXhgFLwJEvHmy3P3M"], "asm": "OP_DUP OP_HASH160 172b8c59ce8b677f881d5653d8a6758836e83ef6 OP_EQUALVERIFY OP_CHECKSIG", "type": "pubkeyhash"}, "value": 0.02, "n": 0}, {"scriptPubKey": {"reqSigs": 1, "hex": "a914dee0a1cc9f055700143e0f4ecee53180ab3530dc87", "addresses": ["3N1V2qWA5hpScEmS72pMooYRmXUiLmwPQQ"], "asm": "OP_HASH160 dee0a1cc9f055700143e0f4ecee53180ab3530dc OP_EQUAL", "type": "scripthash"}, "value": 0.81318666, "n": 1}], "hex": "02000000000101b8796056b0bc40e6380eed8322f57bae4ca9ef0541d88b1a0b8400b3427706cd0100000017160014cb5dbe423de4d42b6425c6921084c6197a5d2937ffffffff0280841e00000000001976a914172b8c59ce8b677f881d5653d8a6758836e83ef688ac0ad3d8040000000017a914dee0a1cc9f055700143e0f4ecee53180ab3530dc870247304402206ba20c3e8af8372fbd3fa0a98a1b1bab6882e3f934bd0bf2321892c077e2dac3022022594299d665ac8c62742f745c819376507e09f3a530aef8d679845e5065d4e6012102acecad485eda786cbe0422823b7594aea6854abb5ec85e267f1c4b87f3f758f700000000", "vin": [{"txinwitness": ["304402206ba20c3e8af8372fbd3fa0a98a1b1bab6882e3f934bd0bf2321892c077e2dac3022022594299d665ac8c62742f745c819376507e09f3a530aef8d679845e5065d4e601", "02acecad485eda786cbe0422823b7594aea6854abb5ec85e267f1c4b87f3f758f7"], "sequence": 4294967295, "scriptSig": {"hex": "160014cb5dbe423de4d42b6425c6921084c6197a5d2937", "asm": "0014cb5dbe423de4d42b6425c6921084c6197a5d2937"}, "vout": 1, "txid": "cd067742b300840b1a8bd84105efa94cae7bf52283ed0e38e640bcb0566079b8"}], "txid": "888247ecbbb84679480070d443ca7c93222d2e4db8da9da5a661d620ed63aa15", "blocktime": 1537871767, "version": 2, "confirmations": 11490, "time": 1537871767, "locktime": 0, "vsize": 168, "size": 249}