{"hash": "ceb473323db61eabc566588253793465b5b34fbbee433a9de0a0718644d42df8", "blockhash": "0000000000000000001e0dab787dd257d1dbfcb92a98c2207d5e1078be1f4165", "vout": [{"scriptPubKey": {"reqSigs": 1, "hex": "a9146586e0913b562aa516890038db0b5698138e0cd087", "addresses": ["3AwqkMN1hCbxpyyJdp8GkAdFh8r1gEVDcP"], "asm": "OP_HASH160 6586e0913b562aa516890038db0b5698138e0cd0 OP_EQUAL", "type": "scripthash"}, "value": 0.02073901, "n": 0}, {"scriptPubKey": {"reqSigs": 1, "hex": "a9140a6bce360745b16633392e2c704648db498d36f187", "addresses": ["32e7pvLHQu4oztMEbHnBqxGXsAMXz8aBVA"], "asm": "OP_HASH160 0a6bce360745b16633392e2c704648db498d36f1 OP_EQUAL", "type": "scripthash"}, "value": 0.04782, "n": 1}], "hex": "020000000001017aaa87a52575748cdbf7bb4690868a6b03ef5975c2a932f326dc163c87367f7201000000171600148ab5d4b2459a12f4a50ba53f7115cad0c63b31aefeffffff022da51f000000000017a9146586e0913b562aa516890038db0b5698138e0cd087b0f748000000000017a9140a6bce360745b16633392e2c704648db498d36f1870247304402206b43bd3c85e83b606a1e4a3037351550f69b31b4ca2448858c7490827c12b3ac0220698eb45377e7c21c23ae5ae5659a343ecc61627f617f77789ddfc28aeec47d8f012102430860826751439d27e609245886b820fa568f2924a87b1d11c2be6c6334af6912490800", "vin": [{"txinwitness": ["304402206b43bd3c85e83b606a1e4a3037351550f69b31b4ca2448858c7490827c12b3ac0220698eb45377e7c21c23ae5ae5659a343ecc61627f617f77789ddfc28aeec47d8f01", "02430860826751439d27e609245886b820fa568f2924a87b1d11c2be6c6334af69"], "sequence": 4294967294, "scriptSig": {"hex": "1600148ab5d4b2459a12f4a50ba53f7115cad0c63b31ae", "asm": "00148ab5d4b2459a12f4a50ba53f7115cad0c63b31ae"}, "vout": 1, "txid": "727f36873c16dc26f332a9c27559ef036b8a869046bbf7db8c747525a587aa7a"}], "txid": "8882404748d451f613f5e89b81ef81c9b98ff8b2702b1a48657861ada5e7385e", "blocktime": 1537872475, "version": 2, "confirmations": 11486, "time": 1537872475, "locktime": 542994, "vsize": 166, "size": 247}