{"hash": "888b45b2859c4c58388676872356a4deda700224d522b67e1dcdc9792fc10726", "blockhash": "0000000000000000000e13cef7c366c0283d82e591d1acd082e914b08063cdf1", "vout": [{"scriptPubKey": {"reqSigs": 1, "hex": "a914185d81a63129381a18310acd6dba60cef1bfb7a487", "addresses": ["33urA68GHJuHTbAYb7RDMC7AEVU54MdQz4"], "asm": "OP_HASH160 185d81a63129381a18310acd6dba60cef1bfb7a4 OP_EQUAL", "type": "scripthash"}, "value": 0.38209607, "n": 0}], "hex": "01000000014074db420c083dab31a4bec82771fd383e3d28e9568b66b8449060311bd985e1030000006b483045022100c2e9267f7cdab4b95b73748c2a3dafa8282406bb502e7626cb3a7db559235e1102202e36d9ae5e4eab84ccf153c89b86fc946a7c27455a9f0b0c0b53d75c20006466012102c7f6e498b333c7ab0408b757c39112845dab950056f0ba96cf1498caecf81fb2ffffffff01470847020000000017a914185d81a63129381a18310acd6dba60cef1bfb7a48700000000", "vin": [{"sequence": 4294967295, "scriptSig": {"hex": "483045022100c2e9267f7cdab4b95b73748c2a3dafa8282406bb502e7626cb3a7db559235e1102202e36d9ae5e4eab84ccf153c89b86fc946a7c27455a9f0b0c0b53d75c20006466012102c7f6e498b333c7ab0408b757c39112845dab950056f0ba96cf1498caecf81fb2", "asm": "3045022100c2e9267f7cdab4b95b73748c2a3dafa8282406bb502e7626cb3a7db559235e1102202e36d9ae5e4eab84ccf153c89b86fc946a7c27455a9f0b0c0b53d75c20006466[ALL] 02c7f6e498b333c7ab0408b757c39112845dab950056f0ba96cf1498caecf81fb2"}, "vout": 3, "txid": "e185d91b31609044b8668b56e9283d3e38fd7127c8bea431ab3d080c42db7440"}], "txid": "888b45b2859c4c58388676872356a4deda700224d522b67e1dcdc9792fc10726", "blocktime": 1537871767, "version": 1, "confirmations": 11495, "time": 1537871767, "locktime": 0, "vsize": 190, "size": 190}