{"hash": "8899b38602d79a6467fa7d20566faa670c376539626840f88321067cc0764a8a", "blockhash": "0000000000000000001cda96e906b7601b7a6fb1a3b62bca570a9e5d8f4b3de1", "vout": [{"scriptPubKey": {"type": "nulldata", "hex": "6a4c50000077d100018db13301a1b9b350ec67fd425b23cc0f42c2fc38c5e5bf9ae76da98a211a3cc616770e89ddbb7fc9a7f4c6f763565baa14480613be1a3ec7129ebc9a9526289ac0f6612cd74e33776ee4", "asm": "OP_RETURN 000077d100018db13301a1b9b350ec67fd425b23cc0f42c2fc38c5e5bf9ae76da98a211a3cc616770e89ddbb7fc9a7f4c6f763565baa14480613be1a3ec7129ebc9a9526289ac0f6612cd74e33776ee4"}, "value": 0.0, "n": 0}, {"scriptPubKey": {"reqSigs": 1, "hex": "76a914efa2714f57fe39babadf4bc444994dfb6fe2c69388ac", "addresses": ["1Nr56ZPLdHGj9gbkxFjYAe8KGegzj3yruj"], "asm": "OP_DUP OP_HASH160 efa2714f57fe39babadf4bc444994dfb6fe2c693 OP_EQUALVERIFY OP_CHECKSIG", "type": "pubkeyhash"}, "value": 0.0012868, "n": 1}], "hex": "010000000102167ceef95c00051c417509f8f44be1b7fd45278d48ecb195d94ee0a1aebb2a000000006b48304502210082cbfbbf43477327ddd09bc52abe839eb35fc2e48ee6f63abc25fd181ae94b1f02205e6161fca92f4e755324e431e58c20abb107734ba2741e1645d8dc4983ce6757012103620b0557d0004962639d800feee9e1c77b89955b4ad45eaf9bc5d07c33ee9c3bffffffff020000000000000000536a4c50000077d100018db13301a1b9b350ec67fd425b23cc0f42c2fc38c5e5bf9ae76da98a211a3cc616770e89ddbb7fc9a7f4c6f763565baa14480613be1a3ec7129ebc9a9526289ac0f6612cd74e33776ee4a8f60100000000001976a914efa2714f57fe39babadf4bc444994dfb6fe2c69388ac00000000", "vin": [{"sequence": 4294967295, "scriptSig": {"hex": "48304502210082cbfbbf43477327ddd09bc52abe839eb35fc2e48ee6f63abc25fd181ae94b1f02205e6161fca92f4e755324e431e58c20abb107734ba2741e1645d8dc4983ce6757012103620b0557d0004962639d800feee9e1c77b89955b4ad45eaf9bc5d07c33ee9c3b", "asm": "304502210082cbfbbf43477327ddd09bc52abe839eb35fc2e48ee6f63abc25fd181ae94b1f02205e6161fca92f4e755324e431e58c20abb107734ba2741e1645d8dc4983ce6757[ALL] 03620b0557d0004962639d800feee9e1c77b89955b4ad45eaf9bc5d07c33ee9c3b"}, "vout": 0, "txid": "2abbaea1e04ed995b1ec488d2745fdb7e14bf4f80975411c05005cf9ee7c1602"}], "txid": "8899b38602d79a6467fa7d20566faa670c376539626840f88321067cc0764a8a", "blocktime": 1537873282, "version": 1, "confirmations": 11484, "time": 1537873282, "locktime": 0, "vsize": 284, "size": 284}