{"hash": "b0d8256413e37ed18604088a49fd3b6f6bc22a118d590e584cbd100cee275d52", "blockhash": "0000000000000000000baef3f32e3676a92c3b2e5da21b426e4f302fc371ce76", "vout": [{"scriptPubKey": {"reqSigs": 1, "hex": "a914d210ef1fa09c8e1f30d83acbc798d2f9366d735a87", "addresses": ["3Lqk7RoNPkJ5pNC3ZRLvy7vB2PKmCyGkE2"], "asm": "OP_HASH160 d210ef1fa09c8e1f30d83acbc798d2f9366d735a OP_EQUAL", "type": "scripthash"}, "value": 0.06279435, "n": 0}, {"scriptPubKey": {"reqSigs": 1, "hex": "a9141988a27e3c2df4ddee7fad5a2303d086179b2a3087", "addresses": ["3422VtS7UtCvXYxoXMVp6eZupR252z85oC"], "asm": "OP_HASH160 1988a27e3c2df4ddee7fad5a2303d086179b2a30 OP_EQUAL", "type": "scripthash"}, "value": 1.32391662, "n": 1}], "hex": "01000000000101ba93efa52425a5eb06ff090da7954c99916f606cc4eb1496cf440ce1d985930703000000232200202035e78a6b34d583ad0a874b80ee41a0507b92cf0b671656108f594c7f75ca90ffffffff020bd15f000000000017a914d210ef1fa09c8e1f30d83acbc798d2f9366d735a87ee22e4070000000017a9141988a27e3c2df4ddee7fad5a2303d086179b2a308704004830450221008bb1442ed6c1091d1b5d66017378daef92255527cafb91984819cce0f48406e202205361f907a89e216913fc6d81dae510f76b967c5ceff24035939a77de3ff179f00147304402206b951d338a8b5f72845087b5f47a97d7bcaca8f8b9bc2d8876d0c395a50143d902202cfe179f2e7362a3552a4974dcdba8495c317a1689d1e1b2b5e71d0410f8218c01695221029103d1dfbbee9ea5249ee0b03ca59e08291ce34a7467513edf8ea767b5aa26382103dce07bea5905a1c3e70f86c1f74f0e98e7cf3b6f5d02226a4c531c9e930c613b210268d8878afaf4b55118519d8520fe0db27f9596a812d4378f4bf4a96a5333694653ae00000000", "vin": [{"txinwitness": ["", "30450221008bb1442ed6c1091d1b5d66017378daef92255527cafb91984819cce0f48406e202205361f907a89e216913fc6d81dae510f76b967c5ceff24035939a77de3ff179f001", "304402206b951d338a8b5f72845087b5f47a97d7bcaca8f8b9bc2d8876d0c395a50143d902202cfe179f2e7362a3552a4974dcdba8495c317a1689d1e1b2b5e71d0410f8218c01", "5221029103d1dfbbee9ea5249ee0b03ca59e08291ce34a7467513edf8ea767b5aa26382103dce07bea5905a1c3e70f86c1f74f0e98e7cf3b6f5d02226a4c531c9e930c613b210268d8878afaf4b55118519d8520fe0db27f9596a812d4378f4bf4a96a5333694653ae"], "sequence": 4294967295, "scriptSig": {"hex": "2200202035e78a6b34d583ad0a874b80ee41a0507b92cf0b671656108f594c7f75ca90", "asm": "00202035e78a6b34d583ad0a874b80ee41a0507b92cf0b671656108f594c7f75ca90"}, "vout": 3, "txid": "079385d9e10c44cf9614ebc46c606f91994c95a70d09ff06eba52524a5ef93ba"}], "txid": "889cf893b2aa01fb8ff53f01b0fa1cc7746180349d1ebd0e3d9635622b014ff4", "blocktime": 1537876114, "version": 1, "confirmations": 11460, "time": 1537876114, "locktime": 0, "vsize": 214, "size": 405}