{"hash": "88a459cf083cbdbdfb82d6e990a8600de7a2159750873279f8621f5e77d4b9ea", "blockhash": "0000000000000000001cda96e906b7601b7a6fb1a3b62bca570a9e5d8f4b3de1", "vout": [{"scriptPubKey": {"reqSigs": 1, "hex": "76a914944250cc7e35b34490327215488ed33b2d997e8588ac", "addresses": ["1EWvT5hR9PXTxLtzJjYqK4ruJfmc81XSwr"], "asm": "OP_DUP OP_HASH160 944250cc7e35b34490327215488ed33b2d997e85 OP_EQUALVERIFY OP_CHECKSIG", "type": "pubkeyhash"}, "value": 0.01400884, "n": 0}, {"scriptPubKey": {"type": "nulldata", "hex": "6a4c50000077bd0001e114dccca371221793029e86e5bf9ae76da98a211aaf6c953dd567cf27e7aabbd76bd997c85d7b94def4bd7c07605baa1258061338e3eb59029dbc9a9526289ac0f6612cd74e33776ee4", "asm": "OP_RETURN 000077bd0001e114dccca371221793029e86e5bf9ae76da98a211aaf6c953dd567cf27e7aabbd76bd997c85d7b94def4bd7c07605baa1258061338e3eb59029dbc9a9526289ac0f6612cd74e33776ee4"}, "value": 0.0, "n": 1}], "hex": "01000000017537dfafc2739add590fd68e1706b925fed0e03bc2a7a4b0dbf48516893ffcc6000000006b48304502210084908eb09cf196594c0677f112678ce091be306f8ca832fec29c06bdb192a79d02200f361795189c08f32a42a89c087eb273f41c03c5c562a2e09d692c840221d7f001210237ffda355f9f0000b3ec6d5676310261a08a9a3d42dbc4ebb38df6b4a8febe45ffffffff0234601500000000001976a914944250cc7e35b34490327215488ed33b2d997e8588ac0000000000000000536a4c50000077bd0001e114dccca371221793029e86e5bf9ae76da98a211aaf6c953dd567cf27e7aabbd76bd997c85d7b94def4bd7c07605baa1258061338e3eb59029dbc9a9526289ac0f6612cd74e33776ee400000000", "vin": [{"sequence": 4294967295, "scriptSig": {"hex": "48304502210084908eb09cf196594c0677f112678ce091be306f8ca832fec29c06bdb192a79d02200f361795189c08f32a42a89c087eb273f41c03c5c562a2e09d692c840221d7f001210237ffda355f9f0000b3ec6d5676310261a08a9a3d42dbc4ebb38df6b4a8febe45", "asm": "304502210084908eb09cf196594c0677f112678ce091be306f8ca832fec29c06bdb192a79d02200f361795189c08f32a42a89c087eb273f41c03c5c562a2e09d692c840221d7f0[ALL] 0237ffda355f9f0000b3ec6d5676310261a08a9a3d42dbc4ebb38df6b4a8febe45"}, "vout": 0, "txid": "c6fc3f891685f4dbb0a4a7c23be0d0fe25b906178ed60f59dd9a73c2afdf3775"}], "txid": "88a459cf083cbdbdfb82d6e990a8600de7a2159750873279f8621f5e77d4b9ea", "blocktime": 1537873282, "version": 1, "confirmations": 11484, "time": 1537873282, "locktime": 0, "vsize": 284, "size": 284}