{"hash": "88b907a916e304d2afffe82dc3c4bfa2e0f9b351bc1797e1cf095651f2024187", "blockhash": "00000000000000000024a2167bbff67b0be802c0b01cdd79e6331c2be6459f87", "vout": [{"scriptPubKey": {"reqSigs": 1, "hex": "76a914579c7ea13126c38bcc5f34b48dac752470f6fa4288ac", "addresses": ["18zFG8RRk6BfeCcUbpuRccKzBFE8p95xch"], "asm": "OP_DUP OP_HASH160 579c7ea13126c38bcc5f34b48dac752470f6fa42 OP_EQUALVERIFY OP_CHECKSIG", "type": "pubkeyhash"}, "value": 0.009, "n": 0}, {"scriptPubKey": {"reqSigs": 1, "hex": "76a914cabe5e7d9a272cb2ff9224a6a0eb5157484029f988ac", "addresses": ["1KV1Ypxxd5QWCk3CyzoNRVHnxsVMBsHhcG"], "asm": "OP_DUP OP_HASH160 cabe5e7d9a272cb2ff9224a6a0eb5157484029f9 OP_EQUALVERIFY OP_CHECKSIG", "type": "pubkeyhash"}, "value": 0.14865821, "n": 1}], "hex": "0100000001c6dd9d7e633708663cedd1bfa164d17d7af83bba33bdf936b7ace644a9297f7c010000006b483045022100b1224a8e7364e6a0dc7af11b7678ad6850c98ecef62d5e266e87f0646c4e877b02204476be2a217e0e4373a39dab3a8fb393a01af8973ac96f822f3b967024049ef70121038fd70af3b5343c08d5a7c9e1fe6319b5ed72e4916b7842a181be5b63b5af43dcffffffff02a0bb0d00000000001976a914579c7ea13126c38bcc5f34b48dac752470f6fa4288ac9dd5e200000000001976a914cabe5e7d9a272cb2ff9224a6a0eb5157484029f988ac00000000", "vin": [{"sequence": 4294967295, "scriptSig": {"hex": "483045022100b1224a8e7364e6a0dc7af11b7678ad6850c98ecef62d5e266e87f0646c4e877b02204476be2a217e0e4373a39dab3a8fb393a01af8973ac96f822f3b967024049ef70121038fd70af3b5343c08d5a7c9e1fe6319b5ed72e4916b7842a181be5b63b5af43dc", "asm": "3045022100b1224a8e7364e6a0dc7af11b7678ad6850c98ecef62d5e266e87f0646c4e877b02204476be2a217e0e4373a39dab3a8fb393a01af8973ac96f822f3b967024049ef7[ALL] 038fd70af3b5343c08d5a7c9e1fe6319b5ed72e4916b7842a181be5b63b5af43dc"}, "vout": 1, "txid": "7c7f29a944e6acb736f9bd33ba3bf87a7dd164a1bfd1ed3c660837637e9dddc6"}], "txid": "88b907a916e304d2afffe82dc3c4bfa2e0f9b351bc1797e1cf095651f2024187", "blocktime": 1537870564, "version": 1, "confirmations": 11515, "time": 1537870564, "locktime": 0, "vsize": 226, "size": 226}