{"hash": "88bc820bf2dbaaf98188dbae0cb89a470e30bbef8589b9a8925f2dc7ac9c2795", "blockhash": "000000000000000000022b45ed06c6f4ccd3cf7fb5ba4856ebd2e58215665228", "vout": [{"scriptPubKey": {"reqSigs": 1, "hex": "a91417a0f187d66d2a2bdf1f0e0929b4a1372ce6a7cb87", "addresses": ["33qxGWETC8wYcGoe5oaZSpuBXVhFSBLbfc"], "asm": "OP_HASH160 17a0f187d66d2a2bdf1f0e0929b4a1372ce6a7cb OP_EQUAL", "type": "scripthash"}, "value": 0.49759767, "n": 0}, {"scriptPubKey": {"reqSigs": 1, "hex": "76a914ca7f708876119075ec0c99d7502174d8d75ea3aa88ac", "addresses": ["1KTiAQcf2Bz3TeTYcoSxSekLCFdqfmgDqr"], "asm": "OP_DUP OP_HASH160 ca7f708876119075ec0c99d7502174d8d75ea3aa OP_EQUALVERIFY OP_CHECKSIG", "type": "pubkeyhash"}, "value": 0.6545332, "n": 1}], "hex": "0100000001d31deb291987d9a0fea3c51f9fae8c165282e0a25634fa0b1bc3bf78188f42cf000000006b483045022100de9c28e3574f87bd8ccef6aeb927cfbe56a98cdb008ff1dfe785fb41379e1d280220697eeaa5cfbd71c2f0f3beb415e6a24fdc84bb782024a0313789a1345e1db5be012102c756551f75f2b66efe9b10e5b2f85f2cd76e86a9cd0bfcd35d27146e41a1dd5bffffffff021746f7020000000017a91417a0f187d66d2a2bdf1f0e0929b4a1372ce6a7cb8708bde603000000001976a914ca7f708876119075ec0c99d7502174d8d75ea3aa88ac00000000", "vin": [{"sequence": 4294967295, "scriptSig": {"hex": "483045022100de9c28e3574f87bd8ccef6aeb927cfbe56a98cdb008ff1dfe785fb41379e1d280220697eeaa5cfbd71c2f0f3beb415e6a24fdc84bb782024a0313789a1345e1db5be012102c756551f75f2b66efe9b10e5b2f85f2cd76e86a9cd0bfcd35d27146e41a1dd5b", "asm": "3045022100de9c28e3574f87bd8ccef6aeb927cfbe56a98cdb008ff1dfe785fb41379e1d280220697eeaa5cfbd71c2f0f3beb415e6a24fdc84bb782024a0313789a1345e1db5be[ALL] 02c756551f75f2b66efe9b10e5b2f85f2cd76e86a9cd0bfcd35d27146e41a1dd5b"}, "vout": 0, "txid": "cf428f1878bfc31b0bfa3456a2e08252168cae9f1fc5a3fea0d9871929eb1dd3"}], "txid": "88bc820bf2dbaaf98188dbae0cb89a470e30bbef8589b9a8925f2dc7ac9c2795", "blocktime": 1537869901, "version": 1, "confirmations": 11522, "time": 1537869901, "locktime": 0, "vsize": 224, "size": 224}