{"hash": "88bd75898f33048de946ad1b97fc6730522fb4e95208220b1eb7ef2d869ddbec", "blockhash": "0000000000000000001cda96e906b7601b7a6fb1a3b62bca570a9e5d8f4b3de1", "vout": [{"scriptPubKey": {"reqSigs": 1, "hex": "a9145ad7827824a4791f005270bc698336302c133aa187", "addresses": ["39yLugTmSVVmExLvgSi8gDhFyqfWVhTKpg"], "asm": "OP_HASH160 5ad7827824a4791f005270bc698336302c133aa1 OP_EQUAL", "type": "scripthash"}, "value": 0.00499649, "n": 0}, {"scriptPubKey": {"reqSigs": 1, "hex": "76a914675a17606003f0c633368f909a94ec063f14629688ac", "addresses": ["1ARUXQwdVMzWoedZZWyfXftomw2sNGBevG"], "asm": "OP_DUP OP_HASH160 675a17606003f0c633368f909a94ec063f146296 OP_EQUALVERIFY OP_CHECKSIG", "type": "pubkeyhash"}, "value": 0.0368055, "n": 1}], "hex": "0100000001ed8450b64b7e29d2d17ef0a431badfa5d300e1fae581dea1d510e051f6918d59010000006b483045022100961b7050f0eae269b9118d886d22bd4014ee27521ce1a394f78fc56fd1a8d00602201e20af3e4464687bdedebfd4f6731b9f118e270486c766fefb0f54e621f7c98f0121020b26a8d10d2d312a32a8280f0efe6af7fcf70041133dadd6dca147f8cbd23b5bfeffffff02c19f07000000000017a9145ad7827824a4791f005270bc698336302c133aa18726293800000000001976a914675a17606003f0c633368f909a94ec063f14629688ac13490800", "vin": [{"sequence": 4294967294, "scriptSig": {"hex": "483045022100961b7050f0eae269b9118d886d22bd4014ee27521ce1a394f78fc56fd1a8d00602201e20af3e4464687bdedebfd4f6731b9f118e270486c766fefb0f54e621f7c98f0121020b26a8d10d2d312a32a8280f0efe6af7fcf70041133dadd6dca147f8cbd23b5b", "asm": "3045022100961b7050f0eae269b9118d886d22bd4014ee27521ce1a394f78fc56fd1a8d00602201e20af3e4464687bdedebfd4f6731b9f118e270486c766fefb0f54e621f7c98f[ALL] 020b26a8d10d2d312a32a8280f0efe6af7fcf70041133dadd6dca147f8cbd23b5b"}, "vout": 1, "txid": "598d91f651e010d5a1de81e5fae100d3a5dfba31a4f07ed1d2297e4bb65084ed"}], "txid": "88bd75898f33048de946ad1b97fc6730522fb4e95208220b1eb7ef2d869ddbec", "blocktime": 1537873282, "version": 1, "confirmations": 11484, "time": 1537873282, "locktime": 542995, "vsize": 224, "size": 224}