{"hash": "88be0a08b72494b2d575a0402bfe40dcfa030544e6561e1d971bc34accc228bf", "blockhash": "00000000000000000018f53835495a110e01622372bf6ae95dc86f2b0ab887b0", "vout": [{"scriptPubKey": {"reqSigs": 1, "hex": "76a91484c540d043d2b713d123eb868d03572b1dca7d1788ac", "addresses": ["1D72ViLUVY389TKmX4NekXp95kJvXxJnFz"], "asm": "OP_DUP OP_HASH160 84c540d043d2b713d123eb868d03572b1dca7d17 OP_EQUALVERIFY OP_CHECKSIG", "type": "pubkeyhash"}, "value": 0.00183428, "n": 0}, {"scriptPubKey": {"reqSigs": 1, "hex": "76a914f4622abb37b74d60f5a45c3bec92e65bfb7206a188ac", "addresses": ["1PHBUZhSUeEkpwRGdRKV5SAxca1tPMEyDd"], "asm": "OP_DUP OP_HASH160 f4622abb37b74d60f5a45c3bec92e65bfb7206a1 OP_EQUALVERIFY OP_CHECKSIG", "type": "pubkeyhash"}, "value": 0.00556746, "n": 1}], "hex": "01000000021b2a95014474a536eebaedd9afdb6ca247779c61cdf205798d1071270947ad02000000006a47304402205fef034c8e3cca84e8b8c45a377902f9bac0eac7d19594c7b99b784aaacf1068022067cbce549c0fde356b8c045003c762649f83cc03130bbd60166743bd9dbf7bfc012102c681c3e4c32a70d4117c00567ef36e8485c34595536838e1b8617cbaf82885e8ffffffff28ed785e0466428d85930bb3e8fd2e80270d0c15b39b0cab9b2e9d4667a8cc58010000006b483045022100a2aecfb155361b7a9178db5c60f948b78b006634db973df0311dc61b01aaaf1802206974e5f79e821e899428452e507f6960f109f29ba36a9d2450b77fa389af8c7f0121029630e66c654f2edab5aca5f747600eaf3689ad1b2a70b06fb5b7505c604519d4ffffffff0284cc0200000000001976a91484c540d043d2b713d123eb868d03572b1dca7d1788acca7e0800000000001976a914f4622abb37b74d60f5a45c3bec92e65bfb7206a188ac00000000", "vin": [{"sequence": 4294967295, "scriptSig": {"hex": "47304402205fef034c8e3cca84e8b8c45a377902f9bac0eac7d19594c7b99b784aaacf1068022067cbce549c0fde356b8c045003c762649f83cc03130bbd60166743bd9dbf7bfc012102c681c3e4c32a70d4117c00567ef36e8485c34595536838e1b8617cbaf82885e8", "asm": "304402205fef034c8e3cca84e8b8c45a377902f9bac0eac7d19594c7b99b784aaacf1068022067cbce549c0fde356b8c045003c762649f83cc03130bbd60166743bd9dbf7bfc[ALL] 02c681c3e4c32a70d4117c00567ef36e8485c34595536838e1b8617cbaf82885e8"}, "vout": 0, "txid": "02ad47092771108d7905f2cd619c7747a26cdbafd9edbaee36a5744401952a1b"}, {"sequence": 4294967295, "scriptSig": {"hex": "483045022100a2aecfb155361b7a9178db5c60f948b78b006634db973df0311dc61b01aaaf1802206974e5f79e821e899428452e507f6960f109f29ba36a9d2450b77fa389af8c7f0121029630e66c654f2edab5aca5f747600eaf3689ad1b2a70b06fb5b7505c604519d4", "asm": "3045022100a2aecfb155361b7a9178db5c60f948b78b006634db973df0311dc61b01aaaf1802206974e5f79e821e899428452e507f6960f109f29ba36a9d2450b77fa389af8c7f[ALL] 029630e66c654f2edab5aca5f747600eaf3689ad1b2a70b06fb5b7505c604519d4"}, "vout": 1, "txid": "58cca867469d2e9bab0c9bb3150c0d27802efde8b30b93858d4266045e78ed28"}], "txid": "88be0a08b72494b2d575a0402bfe40dcfa030544e6561e1d971bc34accc228bf", "blocktime": 1537870928, "version": 1, "confirmations": 11512, "time": 1537870928, "locktime": 0, "vsize": 373, "size": 373}