{"hash": "88c6863a1cfb1861e7638190bc1a255e992583fe585e14b011fec5efa15fbf1a", "blockhash": "0000000000000000001cda96e906b7601b7a6fb1a3b62bca570a9e5d8f4b3de1", "vout": [{"scriptPubKey": {"reqSigs": 1, "hex": "a914069f0e454d6276756fcfd802ab0b7d11839f36eb87", "addresses": ["32J2X5gtiZerMDg5k438bQbLrP9o8op8ft"], "asm": "OP_HASH160 069f0e454d6276756fcfd802ab0b7d11839f36eb OP_EQUAL", "type": "scripthash"}, "value": 0.0012, "n": 0}, {"scriptPubKey": {"reqSigs": 1, "hex": "76a914e349bc52d6b8100b58d3fce45135a91c5c128a1d88ac", "addresses": ["1MiningDkXkhKaXBTMKXfLemnk1YY5rbkT"], "asm": "OP_DUP OP_HASH160 e349bc52d6b8100b58d3fce45135a91c5c128a1d OP_EQUALVERIFY OP_CHECKSIG", "type": "pubkeyhash"}, "value": 0.05970822, "n": 1}], "hex": "02000000014d4e93bc63b18b678fdfdae5879b14fd8592f89e304c887a4be327af0d104133010000008a47304402203adbf208a02b1cc72f233feda4250ef15b80eb09b62ce7403fc87f951a4bde950220091ca37a223ccfa407484c0f907c7aef1debde5e34ccd6f58136c64a51a24de2014104ae414abde7876c34e01694b38b2341d10b9b4c8db18a66262bd8df26bcb57893885c9fe8b79aa25330d5f05bb5aa9ab636a908a72e27956572b44190b22809beffffffff02c0d401000000000017a914069f0e454d6276756fcfd802ab0b7d11839f36eb87861b5b00000000001976a914e349bc52d6b8100b58d3fce45135a91c5c128a1d88ac00000000", "vin": [{"sequence": 4294967295, "scriptSig": {"hex": "47304402203adbf208a02b1cc72f233feda4250ef15b80eb09b62ce7403fc87f951a4bde950220091ca37a223ccfa407484c0f907c7aef1debde5e34ccd6f58136c64a51a24de2014104ae414abde7876c34e01694b38b2341d10b9b4c8db18a66262bd8df26bcb57893885c9fe8b79aa25330d5f05bb5aa9ab636a908a72e27956572b44190b22809be", "asm": "304402203adbf208a02b1cc72f233feda4250ef15b80eb09b62ce7403fc87f951a4bde950220091ca37a223ccfa407484c0f907c7aef1debde5e34ccd6f58136c64a51a24de2[ALL] 04ae414abde7876c34e01694b38b2341d10b9b4c8db18a66262bd8df26bcb57893885c9fe8b79aa25330d5f05bb5aa9ab636a908a72e27956572b44190b22809be"}, "vout": 1, "txid": "3341100daf27e34b7a884c309ef89285fd149b87e5dadf8f678bb163bc934e4d"}], "txid": "88c6863a1cfb1861e7638190bc1a255e992583fe585e14b011fec5efa15fbf1a", "blocktime": 1537873282, "version": 2, "confirmations": 11484, "time": 1537873282, "locktime": 0, "vsize": 255, "size": 255}