{"hash": "88c934fa2d69fa8466cce9e56e693531fa8df3a37b1b85951551b6b1706a65fb", "blockhash": "0000000000000000001e0dab787dd257d1dbfcb92a98c2207d5e1078be1f4165", "vout": [{"scriptPubKey": {"reqSigs": 1, "hex": "a914793bc508c5b388a30fbf4cf92c147954ca4a1af387", "addresses": ["3Ck3HdAdsn2tTwK9KizYdMoVoNvnTJwbM4"], "asm": "OP_HASH160 793bc508c5b388a30fbf4cf92c147954ca4a1af3 OP_EQUAL", "type": "scripthash"}, "value": 0.05624288, "n": 0}, {"scriptPubKey": {"reqSigs": 1, "hex": "76a914a1b621e434489a1b6a636c6c30606e858424c6d288ac", "addresses": ["1Fk3yfZhwWSQL4uvPCgffuzm6UdrxLvWBa"], "asm": "OP_DUP OP_HASH160 a1b621e434489a1b6a636c6c30606e858424c6d2 OP_EQUALVERIFY OP_CHECKSIG", "type": "pubkeyhash"}, "value": 0.25625145, "n": 1}], "hex": "01000000012f93ecb03dd6b4fea882d18d87866ee47662324ff8c4bb65d3c1b97a17a8bcbe010000006a47304402201d5fc2889c254337f4aa2b6f8d7d3017c324aa663a3343a634f7f5c387be0f5602202968e86492e6f6e66d330a897dd5363c086d889dd8d4d36bcaeeddba32f6fe73012102491aa3611af636f823bfffcfd52adad0ddb3edb844a492b27439bee951fb6a1bffffffff02e0d155000000000017a914793bc508c5b388a30fbf4cf92c147954ca4a1af38739028701000000001976a914a1b621e434489a1b6a636c6c30606e858424c6d288ac00000000", "vin": [{"sequence": 4294967295, "scriptSig": {"hex": "47304402201d5fc2889c254337f4aa2b6f8d7d3017c324aa663a3343a634f7f5c387be0f5602202968e86492e6f6e66d330a897dd5363c086d889dd8d4d36bcaeeddba32f6fe73012102491aa3611af636f823bfffcfd52adad0ddb3edb844a492b27439bee951fb6a1b", "asm": "304402201d5fc2889c254337f4aa2b6f8d7d3017c324aa663a3343a634f7f5c387be0f5602202968e86492e6f6e66d330a897dd5363c086d889dd8d4d36bcaeeddba32f6fe73[ALL] 02491aa3611af636f823bfffcfd52adad0ddb3edb844a492b27439bee951fb6a1b"}, "vout": 1, "txid": "bebca8177ab9c1d365bbc4f84f326276e46e86878dd182a8feb4d63db0ec932f"}], "txid": "88c934fa2d69fa8466cce9e56e693531fa8df3a37b1b85951551b6b1706a65fb", "blocktime": 1537872475, "version": 1, "confirmations": 11487, "time": 1537872475, "locktime": 0, "vsize": 223, "size": 223}