{"hash": "88ca5cf5c194aa15c0a23ba7abb02d692d6f3a6977253c3763e29a24cef79719", "blockhash": "000000000000000000205f8b0775d31398ef75b89a5e8ec8d2c57b4dc0ac4c20", "vout": [{"scriptPubKey": {"reqSigs": 1, "hex": "76a914885f0c76109c236930f6066ac7f7e97949b935ee88ac", "addresses": ["1DS4mBqG5Ps5i1fyGmai43bcf4k7Wr8K9M"], "asm": "OP_DUP OP_HASH160 885f0c76109c236930f6066ac7f7e97949b935ee OP_EQUALVERIFY OP_CHECKSIG", "type": "pubkeyhash"}, "value": 0.00053384, "n": 0}, {"scriptPubKey": {"reqSigs": 1, "hex": "76a9147b44976a38818179d177dc6d8d7ac0b7544dabd288ac", "addresses": ["1CEnHQzWsXhPDkHEyiENtuGSfutMqinwBS"], "asm": "OP_DUP OP_HASH160 7b44976a38818179d177dc6d8d7ac0b7544dabd2 OP_EQUALVERIFY OP_CHECKSIG", "type": "pubkeyhash"}, "value": 0.0858, "n": 1}], "hex": "0100000003569d6d1f6cefe4124d051c583f8cceb304e1b048e2c4173d8fea78bba6fad372070000006b483045022100cb71b69b2c5cbb7c71864d839edb7ee8f253556b0184e38d386e2682be27d97302201988bd7dcf6129be4799861786ff4f22c9720e125e8336d22236f7fe0673611e0121029acdd748d08a635b46a11c7780fe64a232703277a5cf8eefceb597ca6034c505ffffffff6376544d6364bab3b227968b42147cffa3d2c8e6edb505d73103a0fe2241fc17010000006b483045022100d2c64e9cc1dae6eb5b3df7758652701c39d81955ab3a6cf800db0b7ecafa851202202a7df9d02c7f79dcb31213d9149b59b93d45b88e2b585d4020e0b2cbb79ad3170121029acdd748d08a635b46a11c7780fe64a232703277a5cf8eefceb597ca6034c505ffffffff301d909f1e2fdd3a9e393e5d30cb7593514b051838f9f189742fe4dd4f8b3f46000000006b483045022100b14c215cbf7c19c906793341d2dba949b2678a481aa7191f1becf3b316ab666002206a898d563707d0bcd9a0e073881045a0d3ce8525897c78efc2514428f3ec334d0121029acdd748d08a635b46a11c7780fe64a232703277a5cf8eefceb597ca6034c505ffffffff0288d00000000000001976a914885f0c76109c236930f6066ac7f7e97949b935ee88aca0eb8200000000001976a9147b44976a38818179d177dc6d8d7ac0b7544dabd288ac00000000", "vin": [{"sequence": 4294967295, "scriptSig": {"hex": "483045022100cb71b69b2c5cbb7c71864d839edb7ee8f253556b0184e38d386e2682be27d97302201988bd7dcf6129be4799861786ff4f22c9720e125e8336d22236f7fe0673611e0121029acdd748d08a635b46a11c7780fe64a232703277a5cf8eefceb597ca6034c505", "asm": "3045022100cb71b69b2c5cbb7c71864d839edb7ee8f253556b0184e38d386e2682be27d97302201988bd7dcf6129be4799861786ff4f22c9720e125e8336d22236f7fe0673611e[ALL] 029acdd748d08a635b46a11c7780fe64a232703277a5cf8eefceb597ca6034c505"}, "vout": 7, "txid": "72d3faa6bb78ea8f3d17c4e248b0e104b3ce8c3f581c054d12e4ef6c1f6d9d56"}, {"sequence": 4294967295, "scriptSig": {"hex": "483045022100d2c64e9cc1dae6eb5b3df7758652701c39d81955ab3a6cf800db0b7ecafa851202202a7df9d02c7f79dcb31213d9149b59b93d45b88e2b585d4020e0b2cbb79ad3170121029acdd748d08a635b46a11c7780fe64a232703277a5cf8eefceb597ca6034c505", "asm": "3045022100d2c64e9cc1dae6eb5b3df7758652701c39d81955ab3a6cf800db0b7ecafa851202202a7df9d02c7f79dcb31213d9149b59b93d45b88e2b585d4020e0b2cbb79ad317[ALL] 029acdd748d08a635b46a11c7780fe64a232703277a5cf8eefceb597ca6034c505"}, "vout": 1, "txid": "17fc4122fea00331d705b5ede6c8d2a3ff7c14428b9627b2b3ba64634d547663"}, {"sequence": 4294967295, "scriptSig": {"hex": "483045022100b14c215cbf7c19c906793341d2dba949b2678a481aa7191f1becf3b316ab666002206a898d563707d0bcd9a0e073881045a0d3ce8525897c78efc2514428f3ec334d0121029acdd748d08a635b46a11c7780fe64a232703277a5cf8eefceb597ca6034c505", "asm": "3045022100b14c215cbf7c19c906793341d2dba949b2678a481aa7191f1becf3b316ab666002206a898d563707d0bcd9a0e073881045a0d3ce8525897c78efc2514428f3ec334d[ALL] 029acdd748d08a635b46a11c7780fe64a232703277a5cf8eefceb597ca6034c505"}, "vout": 0, "txid": "463f8b4fdde42f7489f1f93818054b519375cb305d3e399e3add2f1e9f901d30"}], "txid": "88ca5cf5c194aa15c0a23ba7abb02d692d6f3a6977253c3763e29a24cef79719", "blocktime": 1537871175, "version": 1, "confirmations": 11511, "time": 1537871175, "locktime": 0, "vsize": 522, "size": 522}