{"hash": "063b09e9e82e4fb55c49b0939408ab6c0219a240f0726ffe347fdacef5e47e4f", "blockhash": "0000000000000000000e13cef7c366c0283d82e591d1acd082e914b08063cdf1", "vout": [{"scriptPubKey": {"reqSigs": 1, "hex": "a9144ab8fce84f929a98684585193d81bdc7a7bb3cc887", "addresses": ["38W7Xvcdpt4djhTrohmmbcLFQbhVjvM1kc"], "asm": "OP_HASH160 4ab8fce84f929a98684585193d81bdc7a7bb3cc8 OP_EQUAL", "type": "scripthash"}, "value": 0.00572078, "n": 0}, {"scriptPubKey": {"reqSigs": 1, "hex": "a914149573488aef43c25a9dd7d864aaab6be96cb31187", "addresses": ["33ZrUNUQde4CEdidV38PZoW1o5YFLYxXTt"], "asm": "OP_HASH160 149573488aef43c25a9dd7d864aaab6be96cb311 OP_EQUAL", "type": "scripthash"}, "value": 0.00978812, "n": 1}, {"scriptPubKey": {"reqSigs": 1, "hex": "a914e51e319255885e0695f932aee5d704bda2dc6f2b87", "addresses": ["3NaUqN3tikGCNVrzYLns3m7jwwqxgwA2Fy"], "asm": "OP_HASH160 e51e319255885e0695f932aee5d704bda2dc6f2b OP_EQUAL", "type": "scripthash"}, "value": 0.01461549, "n": 2}, {"scriptPubKey": {"reqSigs": 1, "hex": "0014f8deec6c25b7df0eb242722be459841cbaa13cea", "addresses": ["bc1qlr0wcmp9kl0savjzwg47gkvyrja2z0828dddm4"], "asm": "0 f8deec6c25b7df0eb242722be459841cbaa13cea", "type": "witness_v0_keyhash"}, "value": 0.04522178, "n": 3}, {"scriptPubKey": {"reqSigs": 1, "hex": "a91479c98df30602289cb868221056358147c18095df87", "addresses": ["3Cny91Li9wQoe6sp7NLNYEEVmTZVXidji9"], "asm": "OP_HASH160 79c98df30602289cb868221056358147c18095df OP_EQUAL", "type": "scripthash"}, "value": 0.06035483, "n": 4}], "hex": "010000000001017799d6ef6c9b320ff2de58c90c84be9d13bef4c4cd88ad84dedf8d06bbb5ffa004000000171600141d46b17fb94f8b5828db3c50d250acf6f8549ad1ffffffff05aeba08000000000017a9144ab8fce84f929a98684585193d81bdc7a7bb3cc8877cef0e000000000017a914149573488aef43c25a9dd7d864aaab6be96cb311872d4d16000000000017a914e51e319255885e0695f932aee5d704bda2dc6f2b87c200450000000000160014f8deec6c25b7df0eb242722be459841cbaa13cea1b185c000000000017a91479c98df30602289cb868221056358147c18095df8702483045022100e46d28df393d3c018718ad23f1a95f28db478fd6261a6bb5d6c7ab4916ce337002204acc26a8aba520f19348b9bbeb4c52d66d2ef8e19fcc90b00e5bc1780cbd3c20012103130c78bb1646de93816e99756c99440bea27e832a009a97b8986372b7bc3ef8600000000", "vin": [{"txinwitness": ["3045022100e46d28df393d3c018718ad23f1a95f28db478fd6261a6bb5d6c7ab4916ce337002204acc26a8aba520f19348b9bbeb4c52d66d2ef8e19fcc90b00e5bc1780cbd3c2001", "03130c78bb1646de93816e99756c99440bea27e832a009a97b8986372b7bc3ef86"], "sequence": 4294967295, "scriptSig": {"hex": "1600141d46b17fb94f8b5828db3c50d250acf6f8549ad1", "asm": "00141d46b17fb94f8b5828db3c50d250acf6f8549ad1"}, "vout": 4, "txid": "a0ffb5bb068ddfde84ad88cdc4f4be139dbe840cc958def20f329b6cefd69977"}], "txid": "88cb8f1858b87aa70ef96e1e8c7a868a851476377c58082f1cd8184c0e020216", "blocktime": 1537871767, "version": 1, "confirmations": 11491, "time": 1537871767, "locktime": 0, "vsize": 261, "size": 343}