{"hash": "1256f43e46e93893bbc357fc42b5905bccf3851e161beb87bd3055f769538056", "blockhash": "0000000000000000000dcc0f55137456b1a82d3642486a52398922ac4d620174", "vout": [{"scriptPubKey": {"reqSigs": 1, "hex": "a9148868600b6854310d819fd0692bccc9d268e37bf087", "addresses": ["3E8GrkGuJaZ8MyKZ8Qj7Mw4UZ6n5jTca2s"], "asm": "OP_HASH160 8868600b6854310d819fd0692bccc9d268e37bf0 OP_EQUAL", "type": "scripthash"}, "value": 0.01007794, "n": 0}, {"scriptPubKey": {"reqSigs": 1, "hex": "76a914e2e935237afbbfe00bd99aaa81246024105058c788ac", "addresses": ["1Mgo5uCE8xnPyzaSukNvFp2KYQNQKmaVky"], "asm": "OP_DUP OP_HASH160 e2e935237afbbfe00bd99aaa81246024105058c7 OP_EQUALVERIFY OP_CHECKSIG", "type": "pubkeyhash"}, "value": 0.002516, "n": 1}], "hex": "02000000000102da81f30efcbbedaa7822e738ebaed25f53b00b31d518784210d27dad7306a4180100000017160014c338d20b6d82780310c0f49c6711af1444edbae6feffffffe944f21511441d528b9979b66dc83b0c6d9bb36cca3f880b97b190c9527b56060000000017160014660a9bd530c7597c554cc20be9eda224c2181f4bfeffffff02b2600f000000000017a9148868600b6854310d819fd0692bccc9d268e37bf087d0d60300000000001976a914e2e935237afbbfe00bd99aaa81246024105058c788ac0247304402207860830b8179ae66a419fbcefe4b9bf15c48d32a01cd18039e31fcd0a0fa826b022058a34aa527033c05fd66799ddcf75e86aac57c6e32ec55bc2a60a17d795f955001210293d5df13a13df857b82ce61a6945f2a9b4454ab07bf71cadba7c28c258436ab0024730440220727d6f5b89f0190adaa8ac4524f2947d726201b6617e1d1bee57dab754e1960e02203387fb29e055f3c4cd40a08910f34c50d98037d493b8652080db1429975a12030121021cf1b5233729c892f2d1db4c471b4e5d062a0a5677818334679b4117cac213ed0c490800", "vin": [{"txinwitness": ["304402207860830b8179ae66a419fbcefe4b9bf15c48d32a01cd18039e31fcd0a0fa826b022058a34aa527033c05fd66799ddcf75e86aac57c6e32ec55bc2a60a17d795f955001", "0293d5df13a13df857b82ce61a6945f2a9b4454ab07bf71cadba7c28c258436ab0"], "sequence": 4294967294, "scriptSig": {"hex": "160014c338d20b6d82780310c0f49c6711af1444edbae6", "asm": "0014c338d20b6d82780310c0f49c6711af1444edbae6"}, "vout": 1, "txid": "18a40673ad7dd210427818d5310bb0535fd2aeeb38e72278aaedbbfc0ef381da"}, {"txinwitness": ["30440220727d6f5b89f0190adaa8ac4524f2947d726201b6617e1d1bee57dab754e1960e02203387fb29e055f3c4cd40a08910f34c50d98037d493b8652080db1429975a120301", "021cf1b5233729c892f2d1db4c471b4e5d062a0a5677818334679b4117cac213ed"], "sequence": 4294967294, "scriptSig": {"hex": "160014660a9bd530c7597c554cc20be9eda224c2181f4b", "asm": "0014660a9bd530c7597c554cc20be9eda224c2181f4b"}, "vout": 0, "txid": "06567b52c990b1970b883fca6cb39b6d0c3bc86db679998b521d441115f244e9"}], "txid": "88ccd50a1ecf6a42bc32d797d519c3c7782b1f8509661e4504f4205a9b31324b", "blocktime": 1537870268, "version": 2, "confirmations": 11519, "time": 1537870268, "locktime": 542988, "vsize": 258, "size": 420}