{"hash": "f54a99dbda9090e9c0f5da003de723efc39a0c1dba94d2208a2251c58a2f2c83", "blockhash": "0000000000000000000dcc0f55137456b1a82d3642486a52398922ac4d620174", "vout": [{"scriptPubKey": {"reqSigs": 1, "hex": "76a91447a422e8466daa073bfaf0048aef5ee9d6de691988ac", "addresses": ["17Xoc1oxSQxMJmHpc5HSTYar9snnwNnsez"], "asm": "OP_DUP OP_HASH160 47a422e8466daa073bfaf0048aef5ee9d6de6919 OP_EQUALVERIFY OP_CHECKSIG", "type": "pubkeyhash"}, "value": 0.43, "n": 0}, {"scriptPubKey": {"reqSigs": 1, "hex": "a914654ff18c09599d5ca03f8a7c0337b2854f52652687", "addresses": ["3AvhwVZxyqsZoqmnLDoY2xcMG1Hgb9hHoK"], "asm": "OP_HASH160 654ff18c09599d5ca03f8a7c0337b2854f526526 OP_EQUAL", "type": "scripthash"}, "value": 11.56997984, "n": 1}], "hex": "020000000001016c95ac21df0f746c486c54f4bbefe1272e38541eaf4c398246cf2bef4fcd48d4000000001716001459359f1216966fe88faf743efde5346a8704c97efeffffff02c0209002000000001976a91447a422e8466daa073bfaf0048aef5ee9d6de691988ac6063f6440000000017a914654ff18c09599d5ca03f8a7c0337b2854f526526870247304402207824fee0e0e55da45b0ed7bf3d11337a191419fbfaf2711bd88aec0fd06faef902202ca07bdbb410b026096bae963440ac6654ab907bf92e789422627cece2d331e3012102ad285a3a5cd99d36b94cfa382d7b033f21e8465d0a1ff41d66a64aaf365d3fd60c490800", "vin": [{"txinwitness": ["304402207824fee0e0e55da45b0ed7bf3d11337a191419fbfaf2711bd88aec0fd06faef902202ca07bdbb410b026096bae963440ac6654ab907bf92e789422627cece2d331e301", "02ad285a3a5cd99d36b94cfa382d7b033f21e8465d0a1ff41d66a64aaf365d3fd6"], "sequence": 4294967294, "scriptSig": {"hex": "16001459359f1216966fe88faf743efde5346a8704c97e", "asm": "001459359f1216966fe88faf743efde5346a8704c97e"}, "vout": 0, "txid": "d448cd4fef2bcf4682394caf1e54382e27e1efbbf4546c486c740fdf21ac956c"}], "txid": "88ceb837d90ca681a9fb15ce3d86956110ca1b366da2728a25ca1ae0f59693d3", "blocktime": 1537870268, "version": 2, "confirmations": 11516, "time": 1537870268, "locktime": 542988, "vsize": 168, "size": 249}