{"hash": "88d23eb43ba9edcacaecf543c7957770b4f461d86262811c713e6a0b7805d35b", "blockhash": "00000000000000000004ffacab907a6b429b9a5745fa0b75af4234bf69dd7176", "vout": [{"scriptPubKey": {"reqSigs": 1, "hex": "76a9144221a77d3661dceb23cadb8b9d4b53b645ada44888ac", "addresses": ["172fuzxxaiQWPBZYckyfSyzjmCtLZL1PTv"], "asm": "OP_DUP OP_HASH160 4221a77d3661dceb23cadb8b9d4b53b645ada448 OP_EQUALVERIFY OP_CHECKSIG", "type": "pubkeyhash"}, "value": 0.02627, "n": 0}, {"scriptPubKey": {"reqSigs": 1, "hex": "76a9140b07cf73cf33d7b703e0e8963335fc1ff7b31bd988ac", "addresses": ["121KnnSmLarEQV91VNREUM8ZsH9Nd74uTd"], "asm": "OP_DUP OP_HASH160 0b07cf73cf33d7b703e0e8963335fc1ff7b31bd9 OP_EQUALVERIFY OP_CHECKSIG", "type": "pubkeyhash"}, "value": 0.020243, "n": 1}], "hex": "020000000315a13f0f55cba68d73f92b7948c665becb1c81d0713a4e79b51cf9047192a1ba010000006a47304402206a2dc7f513aff2ff87d64e46f104a5e6072c731da4a060e4e64cf65f675e6ec802204297c1f4854b9838cf5ef7748977d968a3d3d4611e33745b42d9b6983d7d2b6801210208acd7c710e93d2b69975109586595f0cfb05e3387ce3fd7ce3a3a1680b996adfeffffff741c9f2b1a5a2e137ef93e65c1ee0b590ab2ac934eb223dc99f7b28db373039f010000006b483045022100ab0887dcbdc3d926c87c0b511d641a27168baffe7502699599f8cc31705e63340220142cea4251a107304be41032548eb0fa5b4f3c2eb9e7923a09de880b515032d5012102a0f4df8a02f9a667c6191d77be666cbd27fa9b242ceb5cd2367bbd402d4dee1bfeffffffb08c5453f61fa93a1efa3f25bec7dedf907cb693777e58daca35e80cfee273fb000000006b483045022100d85d72dfd0ed30fbaa78d9c21bcb00221ff6ae8121d22eb4eb4c95eed188d802022047bc7d66b8122fad563f5ad0b38f9b53fc4e1adbc0d1b83b46c636be20a315bb012103e6687b9e7fe0c0904e434acd291209416c378182e33f6ee56e526691665e3433feffffff02b8152800000000001976a9144221a77d3661dceb23cadb8b9d4b53b645ada44888ac6ce31e00000000001976a9140b07cf73cf33d7b703e0e8963335fc1ff7b31bd988ac16490800", "vin": [{"sequence": 4294967294, "scriptSig": {"hex": "47304402206a2dc7f513aff2ff87d64e46f104a5e6072c731da4a060e4e64cf65f675e6ec802204297c1f4854b9838cf5ef7748977d968a3d3d4611e33745b42d9b6983d7d2b6801210208acd7c710e93d2b69975109586595f0cfb05e3387ce3fd7ce3a3a1680b996ad", "asm": "304402206a2dc7f513aff2ff87d64e46f104a5e6072c731da4a060e4e64cf65f675e6ec802204297c1f4854b9838cf5ef7748977d968a3d3d4611e33745b42d9b6983d7d2b68[ALL] 0208acd7c710e93d2b69975109586595f0cfb05e3387ce3fd7ce3a3a1680b996ad"}, "vout": 1, "txid": "baa1927104f91cb5794e3a71d0811ccbbe65c648792bf9738da6cb550f3fa115"}, {"sequence": 4294967294, "scriptSig": {"hex": "483045022100ab0887dcbdc3d926c87c0b511d641a27168baffe7502699599f8cc31705e63340220142cea4251a107304be41032548eb0fa5b4f3c2eb9e7923a09de880b515032d5012102a0f4df8a02f9a667c6191d77be666cbd27fa9b242ceb5cd2367bbd402d4dee1b", "asm": "3045022100ab0887dcbdc3d926c87c0b511d641a27168baffe7502699599f8cc31705e63340220142cea4251a107304be41032548eb0fa5b4f3c2eb9e7923a09de880b515032d5[ALL] 02a0f4df8a02f9a667c6191d77be666cbd27fa9b242ceb5cd2367bbd402d4dee1b"}, "vout": 1, "txid": "9f0373b38db2f799dc23b24e93acb20a590beec1653ef97e132e5a1a2b9f1c74"}, {"sequence": 4294967294, "scriptSig": {"hex": "483045022100d85d72dfd0ed30fbaa78d9c21bcb00221ff6ae8121d22eb4eb4c95eed188d802022047bc7d66b8122fad563f5ad0b38f9b53fc4e1adbc0d1b83b46c636be20a315bb012103e6687b9e7fe0c0904e434acd291209416c378182e33f6ee56e526691665e3433", "asm": "3045022100d85d72dfd0ed30fbaa78d9c21bcb00221ff6ae8121d22eb4eb4c95eed188d802022047bc7d66b8122fad563f5ad0b38f9b53fc4e1adbc0d1b83b46c636be20a315bb[ALL] 03e6687b9e7fe0c0904e434acd291209416c378182e33f6ee56e526691665e3433"}, "vout": 0, "txid": "fb73e2fe0ce835cada587e7793b67c90dfdec7be253ffa1e3aa91ff653548cb0"}], "txid": "88d23eb43ba9edcacaecf543c7957770b4f461d86262811c713e6a0b7805d35b", "blocktime": 1537875543, "version": 2, "confirmations": 11464, "time": 1537875543, "locktime": 542998, "vsize": 521, "size": 521}