{"hash": "47d161e44bbfe1b5cd4eeb9d850c5e2c50dbc945c0389bf964d9c32f5b431de4", "blockhash": "00000000000000000017f5eb5941039fbcee6240d03bc1f2f8e35350df66a1d8", "vout": [{"scriptPubKey": {"reqSigs": 1, "hex": "0014aa3db9aee0df0d358908db700f2e4d0fc1765980", "addresses": ["bc1q4g7mnthqmuxntzggmdcq7tjdplqhvkvq2yavl6"], "asm": "0 aa3db9aee0df0d358908db700f2e4d0fc1765980", "type": "witness_v0_keyhash"}, "value": 0.00012898, "n": 0}, {"scriptPubKey": {"reqSigs": 1, "hex": "a9144075a7cbc79d41987da8f8033017b1c3ca37e9f287", "addresses": ["37Zr7fXf7of2bSNCJ8Ps9hsKNKF5fre6aF"], "asm": "OP_HASH160 4075a7cbc79d41987da8f8033017b1c3ca37e9f2 OP_EQUAL", "type": "scripthash"}, "value": 0.00156177, "n": 1}], "hex": "01000000000101cf351ca7f788c2d5926ea2ba40a6fdbffed895be4933f26b2fc8de62987bad710000000017160014d799be1f197997764facae68c06a99ae1b98992fffffffff026232000000000000160014aa3db9aee0df0d358908db700f2e4d0fc1765980116202000000000017a9144075a7cbc79d41987da8f8033017b1c3ca37e9f28702473044022008324b36d7add2ba55365d4e07586d0c5416fb69fa5931cc5e871b1fce76113402200559d9dbe4cee717b25b5c90fb94c25f66e7de38580582886f5f92cd98f8959501210328179e2b6f0f34164a87dd2a3484cb162d3542c1776a37b88dfbcf17bf0eab4500000000", "vin": [{"txinwitness": ["3044022008324b36d7add2ba55365d4e07586d0c5416fb69fa5931cc5e871b1fce76113402200559d9dbe4cee717b25b5c90fb94c25f66e7de38580582886f5f92cd98f8959501", "0328179e2b6f0f34164a87dd2a3484cb162d3542c1776a37b88dfbcf17bf0eab45"], "sequence": 4294967295, "scriptSig": {"hex": "160014d799be1f197997764facae68c06a99ae1b98992f", "asm": "0014d799be1f197997764facae68c06a99ae1b98992f"}, "vout": 0, "txid": "71ad7b9862dec82f6bf23349be95d8febffda640baa26e92d5c288f7a71c35cf"}], "txid": "88d6efcdd2f5a9f6d5960a5815bf2baf717ff4d8cc68851507f100a97d28bf6f", "blocktime": 1537874412, "version": 1, "confirmations": 11468, "time": 1537874412, "locktime": 0, "vsize": 165, "size": 246}