{"hash": "f5dcc6f23e4958ee24c22f215bdc6beaf2bba69078f6caf24636c623c27cf2d1", "blockhash": "0000000000000000001f0ddff1eddb255c1121bcd4da4f1bc9a0da00cae72433", "vout": [{"scriptPubKey": {"reqSigs": 1, "hex": "a914ebb092202a7efcd0758956f29f58a19e12022f1387", "addresses": ["3PBEEyhaLh69dXksm4DekWKrwzYHeJeKK3"], "asm": "OP_HASH160 ebb092202a7efcd0758956f29f58a19e12022f13 OP_EQUAL", "type": "scripthash"}, "value": 0.06709744, "n": 0}, {"scriptPubKey": {"reqSigs": 1, "hex": "0014fde7518277e7cf1c7f20d14940bc14b81ad4f5c9", "addresses": ["bc1qlhn4rqnhul83cleq69y5p0q5hqddfawfzvghsh"], "asm": "0 fde7518277e7cf1c7f20d14940bc14b81ad4f5c9", "type": "witness_v0_keyhash"}, "value": 0.00075675, "n": 1}], "hex": "0100000000010140fe12f25f6c458e7ee1108c5ef8590eaf128629fd97b2917f3b7669bee9702a0400000017160014b9418b4d78fd160245a2c4a20baaeb7c385f32f5ffffffff02f06166000000000017a914ebb092202a7efcd0758956f29f58a19e12022f13879b27010000000000160014fde7518277e7cf1c7f20d14940bc14b81ad4f5c902483045022100ee8ccbeea506caae2b4ca9fa08e629827f7c77140ec37a99d65c7988a53a1d720220284c32ebdcb81bafd5985e1a0f72665fb8e3bcd4ac0b06dd9cdf7a929b2a131a0121022fdc15002988c2dc19420f8bc9add56c8fd31daf4a7b546b6a58a12dbf9ab72700000000", "vin": [{"txinwitness": ["3045022100ee8ccbeea506caae2b4ca9fa08e629827f7c77140ec37a99d65c7988a53a1d720220284c32ebdcb81bafd5985e1a0f72665fb8e3bcd4ac0b06dd9cdf7a929b2a131a01", "022fdc15002988c2dc19420f8bc9add56c8fd31daf4a7b546b6a58a12dbf9ab727"], "sequence": 4294967295, "scriptSig": {"hex": "160014b9418b4d78fd160245a2c4a20baaeb7c385f32f5", "asm": "0014b9418b4d78fd160245a2c4a20baaeb7c385f32f5"}, "vout": 4, "txid": "2a70e9be69763b7f91b297fd298612af0e59f85e8c10e17e8e456c5ff212fe40"}], "txid": "88dbb586b85e2b189f2baf6376abaf0d62f6e86ccdc41a26cfc27889d8e44f9d", "blocktime": 1537872018, "version": 1, "confirmations": 11489, "time": 1537872018, "locktime": 0, "vsize": 165, "size": 247}