{"hash": "88e012b0f24e4168d18f51b8d3f5732d6695cd2c7776811030d2d9f114e17a1b", "blockhash": "0000000000000000000dcc0f55137456b1a82d3642486a52398922ac4d620174", "vout": [{"scriptPubKey": {"reqSigs": 1, "hex": "76a914674a4d984a1f58cfa74beb17fad205958260c91988ac", "addresses": ["1AR9cRsQTYZiGPNpWt5FRHURYfg3Fd55wU"], "asm": "OP_DUP OP_HASH160 674a4d984a1f58cfa74beb17fad205958260c919 OP_EQUALVERIFY OP_CHECKSIG", "type": "pubkeyhash"}, "value": 0.00027382, "n": 0}, {"scriptPubKey": {"reqSigs": 1, "hex": "76a9147965a72c59ae7b5857cfc06c0d49358fa914d96988ac", "addresses": ["1C4tYBrdN5FvsGAx7gQTrccx7ErSs5r2mT"], "asm": "OP_DUP OP_HASH160 7965a72c59ae7b5857cfc06c0d49358fa914d969 OP_EQUALVERIFY OP_CHECKSIG", "type": "pubkeyhash"}, "value": 0.00048487, "n": 1}], "hex": "01000000016733227fd4c0be0ca39b2c54477e84b10cd3ab289f100da6105b635fa77341cf000000006b483045022100987881dae5dbc12126293a6e6a5dc80d2b2d95a635cd63d15090cdab048f3ff3022056479c569984a5435ae90602a94a3cd6e808e4b25b88f25341482161683d0e48012103bf23099337821ae1496c88d76fa182021c21e2791f5f8e3d672e72c4d29ffd07ffffffff02f66a0000000000001976a914674a4d984a1f58cfa74beb17fad205958260c91988ac67bd0000000000001976a9147965a72c59ae7b5857cfc06c0d49358fa914d96988ac00000000", "vin": [{"sequence": 4294967295, "scriptSig": {"hex": "483045022100987881dae5dbc12126293a6e6a5dc80d2b2d95a635cd63d15090cdab048f3ff3022056479c569984a5435ae90602a94a3cd6e808e4b25b88f25341482161683d0e48012103bf23099337821ae1496c88d76fa182021c21e2791f5f8e3d672e72c4d29ffd07", "asm": "3045022100987881dae5dbc12126293a6e6a5dc80d2b2d95a635cd63d15090cdab048f3ff3022056479c569984a5435ae90602a94a3cd6e808e4b25b88f25341482161683d0e48[ALL] 03bf23099337821ae1496c88d76fa182021c21e2791f5f8e3d672e72c4d29ffd07"}, "vout": 0, "txid": "cf4173a75f635b10a60d109f28abd30cb1847e47542c9ba30cbec0d47f223367"}], "txid": "88e012b0f24e4168d18f51b8d3f5732d6695cd2c7776811030d2d9f114e17a1b", "blocktime": 1537870268, "version": 1, "confirmations": 11518, "time": 1537870268, "locktime": 0, "vsize": 226, "size": 226}