{"hash": "88e539e3a383cd252ac97ee7c2abb9de2e31de770ff21f5de5453f52f0bea024", "blockhash": "0000000000000000001cda96e906b7601b7a6fb1a3b62bca570a9e5d8f4b3de1", "vout": [{"scriptPubKey": {"reqSigs": 1, "hex": "76a9142104990affcf8ab1a5f80bcdb7882168d819d14c88ac", "addresses": ["141aonz44LYKCU3CcwVQDmECx7DihHSEB7"], "asm": "OP_DUP OP_HASH160 2104990affcf8ab1a5f80bcdb7882168d819d14c OP_EQUALVERIFY OP_CHECKSIG", "type": "pubkeyhash"}, "value": 0.00014575, "n": 0}, {"scriptPubKey": {"type": "nulldata", "hex": "6a4c50000077c500011ac8685b23cc0f42c2fc38c5e5bf9ae76da98a211aaf6c953dd567cf27e7dd8adcd0cd4bfb78da54f1f70f6253cd5baa134c06136d4758d12efc4bbf23acfcfaac8058b692fe6808c31d", "asm": "OP_RETURN 000077c500011ac8685b23cc0f42c2fc38c5e5bf9ae76da98a211aaf6c953dd567cf27e7dd8adcd0cd4bfb78da54f1f70f6253cd5baa134c06136d4758d12efc4bbf23acfcfaac8058b692fe6808c31d"}, "value": 0.0, "n": 1}], "hex": "0100000001b49ccd421d833242126d64cb7096c00680ab3e5c9dcbf76852a7986bbe89edf1010000006a47304402203ff6ee00414a5e9224b4b21799ee951e5bad5b3a6f5e26d488aea7e66394312502204e0c4f6e11a3824eb0547380195ec82d09fc942513465ade4eba05b06f84d10b012103e1483372bb33e05ecb4f00be08d70f1c9af2510929a0434bc19df6b9b34e2f60ffffffff02ef380000000000001976a9142104990affcf8ab1a5f80bcdb7882168d819d14c88ac0000000000000000536a4c50000077c500011ac8685b23cc0f42c2fc38c5e5bf9ae76da98a211aaf6c953dd567cf27e7dd8adcd0cd4bfb78da54f1f70f6253cd5baa134c06136d4758d12efc4bbf23acfcfaac8058b692fe6808c31d00000000", "vin": [{"sequence": 4294967295, "scriptSig": {"hex": "47304402203ff6ee00414a5e9224b4b21799ee951e5bad5b3a6f5e26d488aea7e66394312502204e0c4f6e11a3824eb0547380195ec82d09fc942513465ade4eba05b06f84d10b012103e1483372bb33e05ecb4f00be08d70f1c9af2510929a0434bc19df6b9b34e2f60", "asm": "304402203ff6ee00414a5e9224b4b21799ee951e5bad5b3a6f5e26d488aea7e66394312502204e0c4f6e11a3824eb0547380195ec82d09fc942513465ade4eba05b06f84d10b[ALL] 03e1483372bb33e05ecb4f00be08d70f1c9af2510929a0434bc19df6b9b34e2f60"}, "vout": 1, "txid": "f1ed89be6b98a75268f7cb9d5c3eab8006c09670cb646d124232831d42cd9cb4"}], "txid": "88e539e3a383cd252ac97ee7c2abb9de2e31de770ff21f5de5453f52f0bea024", "blocktime": 1537873282, "version": 1, "confirmations": 11484, "time": 1537873282, "locktime": 0, "vsize": 283, "size": 283}