{"hash": "88e727698f609591b7321e7d4014eb9513332e8aabae7f5f172f7afefe1d6c5c", "blockhash": "000000000000000000022b45ed06c6f4ccd3cf7fb5ba4856ebd2e58215665228", "vout": [{"scriptPubKey": {"reqSigs": 1, "hex": "a91465b54e30025730d35b0888cf1e0e632f343b220d87", "addresses": ["3AxoNEsoqnKM9jmstohz2EdVqQoHwJ6Xoy"], "asm": "OP_HASH160 65b54e30025730d35b0888cf1e0e632f343b220d OP_EQUAL", "type": "scripthash"}, "value": 0.004847, "n": 0}, {"scriptPubKey": {"reqSigs": 1, "hex": "76a91465fca33bbc04010d077318d10ea94e88d1fae85288ac", "addresses": ["1AJFtwpW7tDr59hKpxCWvx6rb2RnyA49GH"], "asm": "OP_DUP OP_HASH160 65fca33bbc04010d077318d10ea94e88d1fae852 OP_EQUALVERIFY OP_CHECKSIG", "type": "pubkeyhash"}, "value": 0.01568536, "n": 1}], "hex": "01000000014ec843e2c1d0a68441488deae068df0cc10c8ed29984b8fa20293f873065da6f010000006b4830450221009c45230d1e6ba03742fbfbff6c31ead4ab0a2a0b217e2db8bd7985a5d919329e02205702ce6c452e3feef66e0ed17647bbe96a490bee6ea5720faf78474ace5041060121039fdc7e0c5d10af58239c500829f0d32bde9f3f4b73894db419607570fcfa1456ffffffff025c6507000000000017a91465b54e30025730d35b0888cf1e0e632f343b220d8718ef1700000000001976a91465fca33bbc04010d077318d10ea94e88d1fae85288ac00000000", "vin": [{"sequence": 4294967295, "scriptSig": {"hex": "4830450221009c45230d1e6ba03742fbfbff6c31ead4ab0a2a0b217e2db8bd7985a5d919329e02205702ce6c452e3feef66e0ed17647bbe96a490bee6ea5720faf78474ace5041060121039fdc7e0c5d10af58239c500829f0d32bde9f3f4b73894db419607570fcfa1456", "asm": "30450221009c45230d1e6ba03742fbfbff6c31ead4ab0a2a0b217e2db8bd7985a5d919329e02205702ce6c452e3feef66e0ed17647bbe96a490bee6ea5720faf78474ace504106[ALL] 039fdc7e0c5d10af58239c500829f0d32bde9f3f4b73894db419607570fcfa1456"}, "vout": 1, "txid": "6fda6530873f2920fab88499d28e0cc10cdf68e0ea8d484184a6d0c1e243c84e"}], "txid": "88e727698f609591b7321e7d4014eb9513332e8aabae7f5f172f7afefe1d6c5c", "blocktime": 1537869901, "version": 1, "confirmations": 11524, "time": 1537869901, "locktime": 0, "vsize": 224, "size": 224}