{"hash": "88e8cb81b088983cc8560a5c69349a1c2742b4df7a3b8196c0a053027efef867", "blockhash": "00000000000000000004ffacab907a6b429b9a5745fa0b75af4234bf69dd7176", "vout": [{"scriptPubKey": {"reqSigs": 1, "hex": "76a91482643d01874931f2da08e73fe860aecd2ba47c9c88ac", "addresses": ["1CtSvcp7wDKomJfEeReUUnSjXsZNZQoKgd"], "asm": "OP_DUP OP_HASH160 82643d01874931f2da08e73fe860aecd2ba47c9c OP_EQUALVERIFY OP_CHECKSIG", "type": "pubkeyhash"}, "value": 0.00395459, "n": 0}, {"scriptPubKey": {"reqSigs": 1, "hex": "76a914e7a6e50a9d42645fcc9fcd947d43bd777536595f88ac", "addresses": ["1N7s2Mr2xVTvsi4gpMgugagNxKEniqWbth"], "asm": "OP_DUP OP_HASH160 e7a6e50a9d42645fcc9fcd947d43bd777536595f OP_EQUALVERIFY OP_CHECKSIG", "type": "pubkeyhash"}, "value": 0.01430655, "n": 1}, {"scriptPubKey": {"reqSigs": 1, "hex": "76a9140a66b0c11308e1b30415ad1162389c679891927788ac", "addresses": ["1wzmyas7jmPCxJdnkDGEDveDSiYMS9MFn"], "asm": "OP_DUP OP_HASH160 0a66b0c11308e1b30415ad1162389c6798919277 OP_EQUALVERIFY OP_CHECKSIG", "type": "pubkeyhash"}, "value": 6.43734027, "n": 2}], "hex": "0100000001ecf03b581d0e6e0100acfb0dfcfc61753726a39e6b0771e1298a7a027c288eee010000006a473044022033c448873e0f8e44c00f552cf56dfb99b9de51d74fbe8b5d5610ab99bcff4dc8022016a01c62548e3d9821178ff108527fff21a8612a53f351fab8ad7a4ad99c5073012102d26817135d374de5821e3d712a9f591820fc444110c828e1f19075d75c1a4ef9feffffff03c3080600000000001976a91482643d01874931f2da08e73fe860aecd2ba47c9c88ac7fd41500000000001976a914e7a6e50a9d42645fcc9fcd947d43bd777536595f88ac0b9a5e26000000001976a9140a66b0c11308e1b30415ad1162389c679891927788ac00000000", "vin": [{"sequence": 4294967294, "scriptSig": {"hex": "473044022033c448873e0f8e44c00f552cf56dfb99b9de51d74fbe8b5d5610ab99bcff4dc8022016a01c62548e3d9821178ff108527fff21a8612a53f351fab8ad7a4ad99c5073012102d26817135d374de5821e3d712a9f591820fc444110c828e1f19075d75c1a4ef9", "asm": "3044022033c448873e0f8e44c00f552cf56dfb99b9de51d74fbe8b5d5610ab99bcff4dc8022016a01c62548e3d9821178ff108527fff21a8612a53f351fab8ad7a4ad99c5073[ALL] 02d26817135d374de5821e3d712a9f591820fc444110c828e1f19075d75c1a4ef9"}, "vout": 1, "txid": "ee8e287c027a8a29e171076b9ea326377561fcfc0dfbac00016e0e1d583bf0ec"}], "txid": "88e8cb81b088983cc8560a5c69349a1c2742b4df7a3b8196c0a053027efef867", "blocktime": 1537875543, "version": 1, "confirmations": 11464, "time": 1537875543, "locktime": 0, "vsize": 259, "size": 259}