{"hash": "42c7d3da72ffeb3bc475022c8f2436324f476f70df608e835a6418e14dd6ab80", "blockhash": "0000000000000000000e13cef7c366c0283d82e591d1acd082e914b08063cdf1", "vout": [{"scriptPubKey": {"reqSigs": 1, "hex": "a9145c0b569e25d72872b4d462fe503c164dfb4a065e87", "addresses": ["3A5hfzdyUN35peWSJDXMCaSwEYWFsFhRc2"], "asm": "OP_HASH160 5c0b569e25d72872b4d462fe503c164dfb4a065e OP_EQUAL", "type": "scripthash"}, "value": 0.0177578, "n": 0}, {"scriptPubKey": {"reqSigs": 1, "hex": "a9144da918c71e896865d6a99a0028a9d1655d92969187", "addresses": ["38meXN9sdJVFfKw7MCVYakUZ4GC8rMSNcL"], "asm": "OP_HASH160 4da918c71e896865d6a99a0028a9d1655d929691 OP_EQUAL", "type": "scripthash"}, "value": 0.00998538, "n": 1}], "hex": "02000000000101cc2a654eba7c8096a3651466fbdc848584e9f93160ab2914e19dfbe88854d3e401000000171600141d4d2fa70c246e3009fb38384080f36cc17d1298feffffff02a4181b000000000017a9145c0b569e25d72872b4d462fe503c164dfb4a065e878a3c0f000000000017a9144da918c71e896865d6a99a0028a9d1655d9296918702483045022100af941f8949c8d4cdc5fb281d356aa3a123bb0d476974e4b79a5c81bae021c81e022017958fdeacb0945cac680c4610f916f74d8611895f3f1149b632250e62d48ea30121021eff0e2d2da33d0749233a26f0c72049a29f46d77fd70e31119475f7db712debb8480800", "vin": [{"txinwitness": ["3045022100af941f8949c8d4cdc5fb281d356aa3a123bb0d476974e4b79a5c81bae021c81e022017958fdeacb0945cac680c4610f916f74d8611895f3f1149b632250e62d48ea301", "021eff0e2d2da33d0749233a26f0c72049a29f46d77fd70e31119475f7db712deb"], "sequence": 4294967294, "scriptSig": {"hex": "1600141d4d2fa70c246e3009fb38384080f36cc17d1298", "asm": "00141d4d2fa70c246e3009fb38384080f36cc17d1298"}, "vout": 1, "txid": "e4d35488e8fb9de11429ab6031f9e9848584dcfb661465a396807cba4e652acc"}], "txid": "88e8e739d9e10cd0d295edb6faaa9eb27432aed706fc16e8ecbd64cae39de2f5", "blocktime": 1537871767, "version": 2, "confirmations": 11491, "time": 1537871767, "locktime": 542904, "vsize": 166, "size": 248}