{"hash": "88ee526b078d2e3f0feb3669fb675d26f36c7f9b5bd222837bccf0740aaeb8ec", "blockhash": "00000000000000000017f5eb5941039fbcee6240d03bc1f2f8e35350df66a1d8", "vout": [{"scriptPubKey": {"type": "nulldata", "hex": "6a4c50000077fd000111e85041433989018c4eec9bd19ed074892d00f8e87af8e8e963c7cfd5b9c612cb83320704831df896aeb96185b45baa19830613cebbf6251a09bc9a9526289ac0f6612cd74e33776ee4", "asm": "OP_RETURN 000077fd000111e85041433989018c4eec9bd19ed074892d00f8e87af8e8e963c7cfd5b9c612cb83320704831df896aeb96185b45baa19830613cebbf6251a09bc9a9526289ac0f6612cd74e33776ee4"}, "value": 0.0, "n": 0}, {"scriptPubKey": {"reqSigs": 1, "hex": "76a9144029ea867a7c839271b8dfb1a0977843efe0cd6688ac", "addresses": ["16rGTfGhNiWeYkjghLfG28AWTBiWBZSUmm"], "asm": "OP_DUP OP_HASH160 4029ea867a7c839271b8dfb1a0977843efe0cd66 OP_EQUALVERIFY OP_CHECKSIG", "type": "pubkeyhash"}, "value": 0.0007672, "n": 1}], "hex": "0100000001a35ce5eefb6d304715cf3fad7e3545f03772ab86d29b26255a552a1754613b49010000006b483045022100fbeac6f0b7f732ad0f4fd91e9dcbb262331bc34128639f54eb191ee521aa284c0220424648b8ac80da5dd2bd138b57d689fec38b6526a52ac68e5f4b778a087fd3ed0121025b53dad1737b05ea7aa31c623a27b3da792c9fd04d67ebe6548c9cbffd471734ffffffff020000000000000000536a4c50000077fd000111e85041433989018c4eec9bd19ed074892d00f8e87af8e8e963c7cfd5b9c612cb83320704831df896aeb96185b45baa19830613cebbf6251a09bc9a9526289ac0f6612cd74e33776ee4b02b0100000000001976a9144029ea867a7c839271b8dfb1a0977843efe0cd6688ac00000000", "vin": [{"sequence": 4294967295, "scriptSig": {"hex": "483045022100fbeac6f0b7f732ad0f4fd91e9dcbb262331bc34128639f54eb191ee521aa284c0220424648b8ac80da5dd2bd138b57d689fec38b6526a52ac68e5f4b778a087fd3ed0121025b53dad1737b05ea7aa31c623a27b3da792c9fd04d67ebe6548c9cbffd471734", "asm": "3045022100fbeac6f0b7f732ad0f4fd91e9dcbb262331bc34128639f54eb191ee521aa284c0220424648b8ac80da5dd2bd138b57d689fec38b6526a52ac68e5f4b778a087fd3ed[ALL] 025b53dad1737b05ea7aa31c623a27b3da792c9fd04d67ebe6548c9cbffd471734"}, "vout": 1, "txid": "493b6154172a555a25269bd286ab7237f045357ead3fcf1547306dfbeee55ca3"}], "txid": "88ee526b078d2e3f0feb3669fb675d26f36c7f9b5bd222837bccf0740aaeb8ec", "blocktime": 1537874412, "version": 1, "confirmations": 11467, "time": 1537874412, "locktime": 0, "vsize": 284, "size": 284}