{"hash": "e811e6a9cf6afd14d2003bd8588365e6ff4524bad1986866531a4b3e86b097a3", "blockhash": "00000000000000000018f53835495a110e01622372bf6ae95dc86f2b0ab887b0", "vout": [{"scriptPubKey": {"reqSigs": 1, "hex": "a9145d29edd9f078280c5ade2787d79fcc88ddde4b2587", "addresses": ["3ABczfn6ANzCdN6W5AJ1RRiuPeCmMv5jWZ"], "asm": "OP_HASH160 5d29edd9f078280c5ade2787d79fcc88ddde4b25 OP_EQUAL", "type": "scripthash"}, "value": 0.046519, "n": 0}, {"scriptPubKey": {"reqSigs": 1, "hex": "a9149fedd0435a5346d19e10dbf067501f04f6a02d3687", "addresses": ["3GGeFcpTvbKcU9so2Fz4C8o4V2C9Du9Ngp"], "asm": "OP_HASH160 9fedd0435a5346d19e10dbf067501f04f6a02d36 OP_EQUAL", "type": "scripthash"}, "value": 7.20846276, "n": 1}], "hex": "010000000001011f969c92710e2341a5378241031f1e8b91219131e096b6a22b4a8f1aa660117d0100000023220020bdce0b87be1099509aee666bf280d91936d77265b9626a3811efa68c794ec6d9ffffffff027cfb46000000000017a9145d29edd9f078280c5ade2787d79fcc88ddde4b2587c43df72a0000000017a9149fedd0435a5346d19e10dbf067501f04f6a02d368704004730440220399302755142a3e2de64e9c748bfe3053c5580b4b23beb392372bd9613b5a41d022078ede428266db214d29fe53e56ff2e951a72932e3f1819b65a674f7aead5186c01473044022020693a312aef1cc5e2876fba5b188e279a0d762ff2dbfae9f45ba71f9d8b92b8022035b49a033a8e286c33e75451d69109897f12c65caab15b8529f5f6996db37c7a0147522103eb143395e1f431f678a743f1647f1b19b73b3255e6eb16378dc614c75af6729821022a8a912ad76544ca20f666a2071879d22db3f19b68028bfb6e15e148dbbe91a252ae00000000", "vin": [{"txinwitness": ["", "30440220399302755142a3e2de64e9c748bfe3053c5580b4b23beb392372bd9613b5a41d022078ede428266db214d29fe53e56ff2e951a72932e3f1819b65a674f7aead5186c01", "3044022020693a312aef1cc5e2876fba5b188e279a0d762ff2dbfae9f45ba71f9d8b92b8022035b49a033a8e286c33e75451d69109897f12c65caab15b8529f5f6996db37c7a01", "522103eb143395e1f431f678a743f1647f1b19b73b3255e6eb16378dc614c75af6729821022a8a912ad76544ca20f666a2071879d22db3f19b68028bfb6e15e148dbbe91a252ae"], "sequence": 4294967295, "scriptSig": {"hex": "220020bdce0b87be1099509aee666bf280d91936d77265b9626a3811efa68c794ec6d9", "asm": "0020bdce0b87be1099509aee666bf280d91936d77265b9626a3811efa68c794ec6d9"}, "vout": 1, "txid": "7d1160a61a8f4a2ba2b696e0319121918b1e1f03418237a541230e71929c961f"}], "txid": "88ef8a02fb16c7d68ef91818e439b76f635b48aad082b15ff56ef8f952905558", "blocktime": 1537870928, "version": 1, "confirmations": 11514, "time": 1537870928, "locktime": 0, "vsize": 205, "size": 370}