{"hash": "88f598591e21a70d3716632c1f1fffb5a2de7737816b2016d9365b429b14e3ee", "blockhash": "000000000000000000022b45ed06c6f4ccd3cf7fb5ba4856ebd2e58215665228", "vout": [{"scriptPubKey": {"reqSigs": 1, "hex": "76a914eec9606fd2b193533820860e8eaf781eaf3fe19088ac", "addresses": ["1Nmb4ZAJ4GzG4ceJ1fga8vQkWyqpj72YbL"], "asm": "OP_DUP OP_HASH160 eec9606fd2b193533820860e8eaf781eaf3fe190 OP_EQUALVERIFY OP_CHECKSIG", "type": "pubkeyhash"}, "value": 0.14144492, "n": 0}, {"scriptPubKey": {"reqSigs": 1, "hex": "76a9147ffbdc0bc1bf73c281305220acffbe14505e417988ac", "addresses": ["1CfiXsXM3Xr1fEcVVzmuGQ9whkiV8BS7bV"], "asm": "OP_DUP OP_HASH160 7ffbdc0bc1bf73c281305220acffbe14505e4179 OP_EQUALVERIFY OP_CHECKSIG", "type": "pubkeyhash"}, "value": 0.9, "n": 1}], "hex": "0100000003aad74079d7126dcd6891583563c59860f9b7dff63fe23bd058d960cdf50eae2c010000006a47304402202bb23a88aaa24d845136a4f2cba83203e8b01b15d28003e4177d3227f46297300220064327eff9ed1c08d1a5232df362855af5c803403b60c33347df9a61a16d3d0b012102db777f300079e57f12b8ec4172637810d646380fbbf2ea1f9faa682d12b567e7ffffffff7eb92290ffed1648f30ab906be0c17a0d47ecb5cb091f3cad3eb5e682eea5823010000006b483045022100fa429dfe6d0ecbcb9e010d2f77d7135693fe1512f2668adaa3585a3df9f7f53202201aec49f8a743a0dd2206458fe20734838b296cd4f7e637b878b2fda80e261cb70121024e9a77f28a6668ad64f8dcf795aeb7f9623443b93e5984e7117a84d0b958ff04ffffffff14deb92187be8bd8618a2d927861d1875f009c621ed6924c0934be521585e4a3010000006a47304402205eb9461c14e16a2a890306bc37b8b258e6cefe823c61c7248772c9987452cc9e0220640a7a269d2af29ff5026fab3f91848a3cbcbc3bc50d28dbeb32fb222c007323012103a36a75afbf461bebfda2d2dd69420192534d0945074d9ac80f32e785fe2650b0ffffffff02ecd3d700000000001976a914eec9606fd2b193533820860e8eaf781eaf3fe19088ac804a5d05000000001976a9147ffbdc0bc1bf73c281305220acffbe14505e417988ac00000000", "vin": [{"sequence": 4294967295, "scriptSig": {"hex": "47304402202bb23a88aaa24d845136a4f2cba83203e8b01b15d28003e4177d3227f46297300220064327eff9ed1c08d1a5232df362855af5c803403b60c33347df9a61a16d3d0b012102db777f300079e57f12b8ec4172637810d646380fbbf2ea1f9faa682d12b567e7", "asm": "304402202bb23a88aaa24d845136a4f2cba83203e8b01b15d28003e4177d3227f46297300220064327eff9ed1c08d1a5232df362855af5c803403b60c33347df9a61a16d3d0b[ALL] 02db777f300079e57f12b8ec4172637810d646380fbbf2ea1f9faa682d12b567e7"}, "vout": 1, "txid": "2cae0ef5cd60d958d03be23ff6dfb7f96098c56335589168cd6d12d77940d7aa"}, {"sequence": 4294967295, "scriptSig": {"hex": "483045022100fa429dfe6d0ecbcb9e010d2f77d7135693fe1512f2668adaa3585a3df9f7f53202201aec49f8a743a0dd2206458fe20734838b296cd4f7e637b878b2fda80e261cb70121024e9a77f28a6668ad64f8dcf795aeb7f9623443b93e5984e7117a84d0b958ff04", "asm": "3045022100fa429dfe6d0ecbcb9e010d2f77d7135693fe1512f2668adaa3585a3df9f7f53202201aec49f8a743a0dd2206458fe20734838b296cd4f7e637b878b2fda80e261cb7[ALL] 024e9a77f28a6668ad64f8dcf795aeb7f9623443b93e5984e7117a84d0b958ff04"}, "vout": 1, "txid": "2358ea2e685eebd3caf391b05ccb7ed4a0170cbe06b90af34816edff9022b97e"}, {"sequence": 4294967295, "scriptSig": {"hex": "47304402205eb9461c14e16a2a890306bc37b8b258e6cefe823c61c7248772c9987452cc9e0220640a7a269d2af29ff5026fab3f91848a3cbcbc3bc50d28dbeb32fb222c007323012103a36a75afbf461bebfda2d2dd69420192534d0945074d9ac80f32e785fe2650b0", "asm": "304402205eb9461c14e16a2a890306bc37b8b258e6cefe823c61c7248772c9987452cc9e0220640a7a269d2af29ff5026fab3f91848a3cbcbc3bc50d28dbeb32fb222c007323[ALL] 03a36a75afbf461bebfda2d2dd69420192534d0945074d9ac80f32e785fe2650b0"}, "vout": 1, "txid": "a3e4851552be34094c92d61e629c005f87d16178922d8a61d88bbe8721b9de14"}], "txid": "88f598591e21a70d3716632c1f1fffb5a2de7737816b2016d9365b429b14e3ee", "blocktime": 1537869901, "version": 1, "confirmations": 11522, "time": 1537869901, "locktime": 0, "vsize": 520, "size": 520}