{"hash": "88fa0c04d3af66206e400139e424988c6c609c505f40c8c8bf99f32b18d58b7f", "blockhash": "0000000000000000000e13cef7c366c0283d82e591d1acd082e914b08063cdf1", "vout": [{"scriptPubKey": {"reqSigs": 1, "hex": "76a9144f3e44fce25c0d2069a3f0d11b867d5f9f8c7dbf88ac", "addresses": ["18DzyiRWF62EyHt1SDCGD8nS9QrL5RwmKW"], "asm": "OP_DUP OP_HASH160 4f3e44fce25c0d2069a3f0d11b867d5f9f8c7dbf OP_EQUALVERIFY OP_CHECKSIG", "type": "pubkeyhash"}, "value": 0.01412284, "n": 0}, {"scriptPubKey": {"type": "nulldata", "hex": "6a4c500000779300017408c2422a3447f127938381e3ef3236678a625097bcbefa6b8351586b4e5e8873b762a885c851f2c443d8dabebe5baa0cd1061501fa992e3d73bc9a9526289ac0f6612cd74e33776ee4", "asm": "OP_RETURN 0000779300017408c2422a3447f127938381e3ef3236678a625097bcbefa6b8351586b4e5e8873b762a885c851f2c443d8dabebe5baa0cd1061501fa992e3d73bc9a9526289ac0f6612cd74e33776ee4"}, "value": 0.0, "n": 1}], "hex": "01000000013c0aee210de28d253464ba9d6f5afcaf21965cb3f3249b9ef8a6194bb0133b68010000006a473044022008813a0bf833efdb3504d41976259c04140f58c895bc4ac9aa5bbfec7540d74d02205cb80f34d6ae0809075e2b3bb6d072a9a66d0f3225728061e7293f075511fada012102d4343ad65671c5414d8bd3347a8dfeb9f60756fb51a96fad474c2c25a7d8d745ffffffff02bc8c1500000000001976a9144f3e44fce25c0d2069a3f0d11b867d5f9f8c7dbf88ac0000000000000000536a4c500000779300017408c2422a3447f127938381e3ef3236678a625097bcbefa6b8351586b4e5e8873b762a885c851f2c443d8dabebe5baa0cd1061501fa992e3d73bc9a9526289ac0f6612cd74e33776ee400000000", "vin": [{"sequence": 4294967295, "scriptSig": {"hex": "473044022008813a0bf833efdb3504d41976259c04140f58c895bc4ac9aa5bbfec7540d74d02205cb80f34d6ae0809075e2b3bb6d072a9a66d0f3225728061e7293f075511fada012102d4343ad65671c5414d8bd3347a8dfeb9f60756fb51a96fad474c2c25a7d8d745", "asm": "3044022008813a0bf833efdb3504d41976259c04140f58c895bc4ac9aa5bbfec7540d74d02205cb80f34d6ae0809075e2b3bb6d072a9a66d0f3225728061e7293f075511fada[ALL] 02d4343ad65671c5414d8bd3347a8dfeb9f60756fb51a96fad474c2c25a7d8d745"}, "vout": 1, "txid": "683b13b04b19a6f89e9b24f3b35c9621affc5a6f9dba6434258de20d21ee0a3c"}], "txid": "88fa0c04d3af66206e400139e424988c6c609c505f40c8c8bf99f32b18d58b7f", "blocktime": 1537871767, "version": 1, "confirmations": 11493, "time": 1537871767, "locktime": 0, "vsize": 283, "size": 283}