{"hash": "88fc063b6def958fd75e1d03ac0ac6e780c6bde72cb2a89deda916ca4b9067d4", "blockhash": "00000000000000000004ffacab907a6b429b9a5745fa0b75af4234bf69dd7176", "vout": [{"scriptPubKey": {"reqSigs": 1, "hex": "a91418760ab3572f01978ec337d94d9304b824c5a43987", "addresses": ["33vMYqRRw16QeEPie5hz4vt7YGB9xQksLB"], "asm": "OP_HASH160 18760ab3572f01978ec337d94d9304b824c5a439 OP_EQUAL", "type": "scripthash"}, "value": 0.0029773, "n": 0}, {"scriptPubKey": {"reqSigs": 1, "hex": "76a914e0bc9abe000807e1ea27b2529bf6a2c3f2355d4188ac", "addresses": ["1MVJJSPaqAcgT2bUhxYNhvgpYnMv6tufRG"], "asm": "OP_DUP OP_HASH160 e0bc9abe000807e1ea27b2529bf6a2c3f2355d41 OP_EQUALVERIFY OP_CHECKSIG", "type": "pubkeyhash"}, "value": 0.0994253, "n": 1}], "hex": "0100000001a08a8a0e7232077205dcabbb2a67fa3a3d4d6b3aa8bded16eef643aaf8b9d3c9010000006a47304402202d7a16f16ea5d058b49ed74ed54db53e6505e13e42683191c353607e6364cf1702205590cb899c291a22d8d340f8a177e8da78b2fc73f1f2c5408fbc922ec080730f012103c75ccb28ab0d1380f36d82463569bd1c517830ac00a5bb079d9b3318691e50b9ffffffff02028b04000000000017a91418760ab3572f01978ec337d94d9304b824c5a4398702b69700000000001976a914e0bc9abe000807e1ea27b2529bf6a2c3f2355d4188ac00000000", "vin": [{"sequence": 4294967295, "scriptSig": {"hex": "47304402202d7a16f16ea5d058b49ed74ed54db53e6505e13e42683191c353607e6364cf1702205590cb899c291a22d8d340f8a177e8da78b2fc73f1f2c5408fbc922ec080730f012103c75ccb28ab0d1380f36d82463569bd1c517830ac00a5bb079d9b3318691e50b9", "asm": "304402202d7a16f16ea5d058b49ed74ed54db53e6505e13e42683191c353607e6364cf1702205590cb899c291a22d8d340f8a177e8da78b2fc73f1f2c5408fbc922ec080730f[ALL] 03c75ccb28ab0d1380f36d82463569bd1c517830ac00a5bb079d9b3318691e50b9"}, "vout": 1, "txid": "c9d3b9f8aa43f6ee16edbda83a6b4d3d3afa672abbabdc05720732720e8a8aa0"}], "txid": "88fc063b6def958fd75e1d03ac0ac6e780c6bde72cb2a89deda916ca4b9067d4", "blocktime": 1537875543, "version": 1, "confirmations": 11464, "time": 1537875543, "locktime": 0, "vsize": 223, "size": 223}