{"hash": "88ff5e3eea3734f86214d52d433695ca7184e980b03d98926b99be0ab8316e38", "blockhash": "0000000000000000000baef3f32e3676a92c3b2e5da21b426e4f302fc371ce76", "vout": [{"scriptPubKey": {"reqSigs": 1, "hex": "76a9142a0c8d0c5b6b54300497fd6db1e617fbe0dc51c288ac", "addresses": ["14qLR7ayYTRpnM1TVVEkMdDJ1SY46PC2RJ"], "asm": "OP_DUP OP_HASH160 2a0c8d0c5b6b54300497fd6db1e617fbe0dc51c2 OP_EQUALVERIFY OP_CHECKSIG", "type": "pubkeyhash"}, "value": 0.0219392, "n": 0}, {"scriptPubKey": {"type": "nulldata", "hex": "6a4c500000782c0001fcfeadaa728f5215ef12a2dc27b7256b4774d339f6019d6ddc0f1b8ff1172c36cb050dad65be226da76cb408f2565baa1f120614ffc1f48162ddbc9a9526289ac0f6612cd74e33776ee4", "asm": "OP_RETURN 0000782c0001fcfeadaa728f5215ef12a2dc27b7256b4774d339f6019d6ddc0f1b8ff1172c36cb050dad65be226da76cb408f2565baa1f120614ffc1f48162ddbc9a9526289ac0f6612cd74e33776ee4"}, "value": 0.0, "n": 1}], "hex": "010000000126c58e0e0492e56798a2cf84739a28cca15e981622ee210d7c5f7f3c403e7723010000006a47304402207ec3d872743aa310dac89e35b5c7b5a933f0067e00975b2357676be43658c2360220417672af7de0b6260f00952c519135ddee3edbdcc92bd40dd8b6fb00ef25b87c012102497b6411e530659c876a16d6713940af93d90dedf65f6578bf51c798f87fed43ffffffff02007a2100000000001976a9142a0c8d0c5b6b54300497fd6db1e617fbe0dc51c288ac0000000000000000536a4c500000782c0001fcfeadaa728f5215ef12a2dc27b7256b4774d339f6019d6ddc0f1b8ff1172c36cb050dad65be226da76cb408f2565baa1f120614ffc1f48162ddbc9a9526289ac0f6612cd74e33776ee400000000", "vin": [{"sequence": 4294967295, "scriptSig": {"hex": "47304402207ec3d872743aa310dac89e35b5c7b5a933f0067e00975b2357676be43658c2360220417672af7de0b6260f00952c519135ddee3edbdcc92bd40dd8b6fb00ef25b87c012102497b6411e530659c876a16d6713940af93d90dedf65f6578bf51c798f87fed43", "asm": "304402207ec3d872743aa310dac89e35b5c7b5a933f0067e00975b2357676be43658c2360220417672af7de0b6260f00952c519135ddee3edbdcc92bd40dd8b6fb00ef25b87c[ALL] 02497b6411e530659c876a16d6713940af93d90dedf65f6578bf51c798f87fed43"}, "vout": 1, "txid": "23773e403c7f5f7c0d21ee2216985ea1cc289a7384cfa29867e592040e8ec526"}], "txid": "88ff5e3eea3734f86214d52d433695ca7184e980b03d98926b99be0ab8316e38", "blocktime": 1537876114, "version": 1, "confirmations": 11460, "time": 1537876114, "locktime": 0, "vsize": 283, "size": 283}