{"hash": "3fe03ae05a8ca0959992993227adb165969dcff7905b1956fd2c40d84e1812cd", "blockhash": "00000000000000000017f5eb5941039fbcee6240d03bc1f2f8e35350df66a1d8", "vout": [{"scriptPubKey": {"reqSigs": 1, "hex": "a9140e2a63f3ea23ad757bd8eec0b5a182e23d0f86d887", "addresses": ["32yvAZwngRu5RKqyyKPiGVFCxuYQcoto6N"], "asm": "OP_HASH160 0e2a63f3ea23ad757bd8eec0b5a182e23d0f86d8 OP_EQUAL", "type": "scripthash"}, "value": 0.00470922, "n": 0}, {"scriptPubKey": {"reqSigs": 1, "hex": "a914eace577a810107c522c6d8f0ef886816edaff6c787", "addresses": ["3P6ZEJgQafJZ94qVzrSbEU8ssxBXBJCkD8"], "asm": "OP_HASH160 eace577a810107c522c6d8f0ef886816edaff6c7 OP_EQUAL", "type": "scripthash"}, "value": 0.01126817, "n": 1}], "hex": "020000000001020f7d4c2f07c174d28db15d705ea5f8c9e508ed647646f6ee1a76b04712253c2c0000000017160014563c45072e782f3530650d92509a91d8cbf2f9f7feffffffebdc70ddc9230e83ad5fcff82553db3bf996f938a5e819714f4806c245086c8d010000001716001423e87016510d8c00b12e1521348163bc248f256dfeffffff028a2f07000000000017a9140e2a63f3ea23ad757bd8eec0b5a182e23d0f86d887a13111000000000017a914eace577a810107c522c6d8f0ef886816edaff6c78702483045022100feaf72be5c6ca3dc97ffcbfd24d75cbed98e53b90004341a95a790656b8308d3022009773ece0b33a68ec1ffe34f9389817e8ebbad27f62ee174bc8b4e4283b169450121036fceaaa575cf7b40ae8968fbda3193da64915d57e6d5a8d1914f79f333ba94d202483045022100cd8dfb03dbd63fc176e3736c0b6bdc0b841124ade965c073ec0dc291c7e609090220294859b1691886dbf06fac9980dedd0b968b459240fa449c1eecad18a8da7463012102616f8773ef9ca63ffdb347f92bbedae451c7e8135b63cec8b687054b45f1f99b15490800", "vin": [{"txinwitness": ["3045022100feaf72be5c6ca3dc97ffcbfd24d75cbed98e53b90004341a95a790656b8308d3022009773ece0b33a68ec1ffe34f9389817e8ebbad27f62ee174bc8b4e4283b1694501", "036fceaaa575cf7b40ae8968fbda3193da64915d57e6d5a8d1914f79f333ba94d2"], "sequence": 4294967294, "scriptSig": {"hex": "160014563c45072e782f3530650d92509a91d8cbf2f9f7", "asm": "0014563c45072e782f3530650d92509a91d8cbf2f9f7"}, "vout": 0, "txid": "2c3c251247b0761aeef6467664ed08e5c9f8a55e705db18dd274c1072f4c7d0f"}, {"txinwitness": ["3045022100cd8dfb03dbd63fc176e3736c0b6bdc0b841124ade965c073ec0dc291c7e609090220294859b1691886dbf06fac9980dedd0b968b459240fa449c1eecad18a8da746301", "02616f8773ef9ca63ffdb347f92bbedae451c7e8135b63cec8b687054b45f1f99b"], "sequence": 4294967294, "scriptSig": {"hex": "16001423e87016510d8c00b12e1521348163bc248f256d", "asm": "001423e87016510d8c00b12e1521348163bc248f256d"}, "vout": 1, "txid": "8d6c0845c206484f7119e8a538f996f93bdb5325f8cf5fad830e23c9dd70dceb"}], "txid": "890143015441fc4203bd23ce9aa56ddd849b398e014362d9594e5736eaf325ec", "blocktime": 1537874412, "version": 2, "confirmations": 11466, "time": 1537874412, "locktime": 542997, "vsize": 257, "size": 420}