{"hash": "6366085f639a18fee3e399628dc7989193bf0f984be17863d6b0da11aab58ddd", "blockhash": "00000000000000000024a2167bbff67b0be802c0b01cdd79e6331c2be6459f87", "vout": [{"scriptPubKey": {"reqSigs": 1, "hex": "76a9148f8c51c7703803ba08ab1e55a5488d658dad347c88ac", "addresses": ["1E61iztLMN8yGsjorSzGpjjwnzsWrYnDLJ"], "asm": "OP_DUP OP_HASH160 8f8c51c7703803ba08ab1e55a5488d658dad347c OP_EQUALVERIFY OP_CHECKSIG", "type": "pubkeyhash"}, "value": 0.00239682, "n": 0}, {"scriptPubKey": {"reqSigs": 1, "hex": "a9146add8a798414342a801953b8e4c3a6f53d4a504587", "addresses": ["3BS4woxryt6xaX5n1ebD7X6ucDKQnZQ5WC"], "asm": "OP_HASH160 6add8a798414342a801953b8e4c3a6f53d4a5045 OP_EQUAL", "type": "scripthash"}, "value": 0.01616197, "n": 1}], "hex": "02000000000102174bd38c13ace427a40fe0ef043277e75aad24b4014ae825a0a5a5862c26403301000000171600143566d8b74cb609eed4ba40df460bdc6010d0b510fefffffffc8814d2380316ac1d29da07eff4e6805e9d9b4e069f9f28a07c66146e5875e6010000001716001447c0294cddd7f0c94e318390bb560657bb378e14feffffff0242a80300000000001976a9148f8c51c7703803ba08ab1e55a5488d658dad347c88ac45a918000000000017a9146add8a798414342a801953b8e4c3a6f53d4a50458702473044022067038deb2c824dc1c0baef77eebdbb5632ed51779a185e7c38f3e8abaa71b82d022006bcf19f6f02c8c66cb3f61b10d3fa2d3ec710fbdb694c41d23c026e4111a566012102f3f6f2bf9c2d0024bd874d11364ca267f011ee19d6e9b485a5e00529df73d75102473044022047f39c7b2da90b85e87e9d9d3c0af72f69a9e912bd463ecebea9649e4dac677e02200a7ac1331de5077e7b2bf47d7d1bec10157977dd950ab24fa7de5a4f2eb8c30f01210222f093ada91b61bccd27d234d08953f15f1de449fadf41d5e72af21181b0cdd80d490800", "vin": [{"txinwitness": ["3044022067038deb2c824dc1c0baef77eebdbb5632ed51779a185e7c38f3e8abaa71b82d022006bcf19f6f02c8c66cb3f61b10d3fa2d3ec710fbdb694c41d23c026e4111a56601", "02f3f6f2bf9c2d0024bd874d11364ca267f011ee19d6e9b485a5e00529df73d751"], "sequence": 4294967294, "scriptSig": {"hex": "1600143566d8b74cb609eed4ba40df460bdc6010d0b510", "asm": "00143566d8b74cb609eed4ba40df460bdc6010d0b510"}, "vout": 1, "txid": "3340262c86a5a5a025e84a01b424ad5ae7773204efe00fa427e4ac138cd34b17"}, {"txinwitness": ["3044022047f39c7b2da90b85e87e9d9d3c0af72f69a9e912bd463ecebea9649e4dac677e02200a7ac1331de5077e7b2bf47d7d1bec10157977dd950ab24fa7de5a4f2eb8c30f01", "0222f093ada91b61bccd27d234d08953f15f1de449fadf41d5e72af21181b0cdd8"], "sequence": 4294967294, "scriptSig": {"hex": "16001447c0294cddd7f0c94e318390bb560657bb378e14", "asm": "001447c0294cddd7f0c94e318390bb560657bb378e14"}, "vout": 1, "txid": "e675586e14667ca0289f9f064e9b9d5e80e6f4ef07da291dac160338d21488fc"}], "txid": "89077654f408887a6013a19708a98b0df081193133046dfd450c1be14452446f", "blocktime": 1537870564, "version": 2, "confirmations": 11515, "time": 1537870564, "locktime": 542989, "vsize": 258, "size": 420}