{"hash": "e5033a32cc5959bfea0b071ba42832018c9770b60bd67d65322521e99825dd1e", "blockhash": "0000000000000000000e13cef7c366c0283d82e591d1acd082e914b08063cdf1", "vout": [{"scriptPubKey": {"reqSigs": 1, "hex": "a91470177a336f202066bf60f84525c71ff97b08300187", "addresses": ["3BuhjGEVxAukCuEw7axCCNGnXBtmvHJ7Bi"], "asm": "OP_HASH160 70177a336f202066bf60f84525c71ff97b083001 OP_EQUAL", "type": "scripthash"}, "value": 0.001164, "n": 0}, {"scriptPubKey": {"reqSigs": 1, "hex": "a914623bc71aae031839add7304b814c43bfc2e9051487", "addresses": ["3AeRkmrFg14XjcZxLiKsxWCsmmwrcjXezc"], "asm": "OP_HASH160 623bc71aae031839add7304b814c43bfc2e90514 OP_EQUAL", "type": "scripthash"}, "value": 0.09949304, "n": 1}], "hex": "0100000000010134fb4c98d4b4fc7c91dfbe142ec1c26f080cdd5c39c13e9fc5db9e98fd54967f01000000232200208b29cdff4436c9fd09e2bb3722ba65a440fbfc66964301c4902832d27a4f2b12ffffffff02b0c601000000000017a91470177a336f202066bf60f84525c71ff97b0830018778d097000000000017a914623bc71aae031839add7304b814c43bfc2e90514870400473044022016756c66f730c3063e6ef3f8c2b3f61e4444fba9e4ea4d684425b6ee7790c025022019e338b122e01f1e8b1a3100e186419069e5bf92ee580964cdc83546aabe98ca014830450221008c286cdffa595657464268dc328fb3b88d8a69eda6976de759c2e74aa8e3d0b002204eef23feb696a8779d3319f8b865d8f4c0c07155687adcd1aafd10159b89051d01475221036b4dd4bc8657eba03286a3a3f74fb599cc514153059dbb023dfb32b0268d8daf21032f41ceae151fd1826ff863e0017da5158aa4c8f6dc701d11b13794695089210b52ae00000000", "vin": [{"txinwitness": ["", "3044022016756c66f730c3063e6ef3f8c2b3f61e4444fba9e4ea4d684425b6ee7790c025022019e338b122e01f1e8b1a3100e186419069e5bf92ee580964cdc83546aabe98ca01", "30450221008c286cdffa595657464268dc328fb3b88d8a69eda6976de759c2e74aa8e3d0b002204eef23feb696a8779d3319f8b865d8f4c0c07155687adcd1aafd10159b89051d01", "5221036b4dd4bc8657eba03286a3a3f74fb599cc514153059dbb023dfb32b0268d8daf21032f41ceae151fd1826ff863e0017da5158aa4c8f6dc701d11b13794695089210b52ae"], "sequence": 4294967295, "scriptSig": {"hex": "2200208b29cdff4436c9fd09e2bb3722ba65a440fbfc66964301c4902832d27a4f2b12", "asm": "00208b29cdff4436c9fd09e2bb3722ba65a440fbfc66964301c4902832d27a4f2b12"}, "vout": 1, "txid": "7f9654fd989edbc59f3ec1395cdd0c086fc2c12e14bedf917cfcb4d4984cfb34"}], "txid": "890b9e28922c9267ec9baea30b3fd6ec3050e5d54318a0d4e3e8df0e0c4a7cb7", "blocktime": 1537871767, "version": 1, "confirmations": 11495, "time": 1537871767, "locktime": 0, "vsize": 206, "size": 371}