{"hash": "890ddf33e026c529fcc4744678b9ba38fb51915abf1046a70b60869687ca2daf", "blockhash": "0000000000000000000e13cef7c366c0283d82e591d1acd082e914b08063cdf1", "vout": [{"scriptPubKey": {"reqSigs": 1, "hex": "76a91497396627658db8a0f00783f5591794542f0264b188ac", "addresses": ["1Enbo83n943FM8xsC3iGKsjakijJ6KvygZ"], "asm": "OP_DUP OP_HASH160 97396627658db8a0f00783f5591794542f0264b1 OP_EQUALVERIFY OP_CHECKSIG", "type": "pubkeyhash"}, "value": 1.001e-05, "n": 0}, {"scriptPubKey": {"reqSigs": 1, "hex": "76a914732a20a7b057060d0377e41e0664cd450ad6591688ac", "addresses": ["1BVwB8omrprPN9tozBo54tRC8VbRoK1jwZ"], "asm": "OP_DUP OP_HASH160 732a20a7b057060d0377e41e0664cd450ad65916 OP_EQUALVERIFY OP_CHECKSIG", "type": "pubkeyhash"}, "value": 0.00496174, "n": 1}], "hex": "0100000001da32f9f5804c8c27a0e260b7fe1ec8f5c1a435af6f8c20c7cde3ddc262b7037a010000006b483045022100bfed9ea4be529776dd8e260b912c583eea8bd4d1998fb8007f1cea9ca4710ee702205050a7ded02c55c606eeb9c76e4fb04cbd5e09678801743deeaf079ce1e6bec90121025c3439da521fdd68691f77d85971a679235a23e070ad0c20712314b0917ea6ceffffffff02e9030000000000001976a91497396627658db8a0f00783f5591794542f0264b188ac2e920700000000001976a914732a20a7b057060d0377e41e0664cd450ad6591688ac00000000", "vin": [{"sequence": 4294967295, "scriptSig": {"hex": "483045022100bfed9ea4be529776dd8e260b912c583eea8bd4d1998fb8007f1cea9ca4710ee702205050a7ded02c55c606eeb9c76e4fb04cbd5e09678801743deeaf079ce1e6bec90121025c3439da521fdd68691f77d85971a679235a23e070ad0c20712314b0917ea6ce", "asm": "3045022100bfed9ea4be529776dd8e260b912c583eea8bd4d1998fb8007f1cea9ca4710ee702205050a7ded02c55c606eeb9c76e4fb04cbd5e09678801743deeaf079ce1e6bec9[ALL] 025c3439da521fdd68691f77d85971a679235a23e070ad0c20712314b0917ea6ce"}, "vout": 1, "txid": "7a03b762c2dde3cdc7208c6faf35a4c1f5c81efeb760e2a0278c4c80f5f932da"}], "txid": "890ddf33e026c529fcc4744678b9ba38fb51915abf1046a70b60869687ca2daf", "blocktime": 1537871767, "version": 1, "confirmations": 11491, "time": 1537871767, "locktime": 0, "vsize": 226, "size": 226}