{"hash": "8913ff464b0ffae5fb5fcfa6506636e0aab16f87b1397038a9fdd797b0a5a330", "blockhash": "0000000000000000001e0dab787dd257d1dbfcb92a98c2207d5e1078be1f4165", "vout": [{"scriptPubKey": {"reqSigs": 1, "hex": "76a91497a035977bc9f041ebef5e739669f004fbab7f1388ac", "addresses": ["1EpixWPT6GUg1bunrfaxAeAALVR35TFfbR"], "asm": "OP_DUP OP_HASH160 97a035977bc9f041ebef5e739669f004fbab7f13 OP_EQUALVERIFY OP_CHECKSIG", "type": "pubkeyhash"}, "value": 0.00156213, "n": 0}, {"scriptPubKey": {"reqSigs": 1, "hex": "76a9141d8e7fe7c8c65820e5c1a9727567455a3869d9f788ac", "addresses": ["13hHJcSMjQS8RvgJMdLbDAJGdTTF3FGQUX"], "asm": "OP_DUP OP_HASH160 1d8e7fe7c8c65820e5c1a9727567455a3869d9f7 OP_EQUALVERIFY OP_CHECKSIG", "type": "pubkeyhash"}, "value": 0.69576193, "n": 1}], "hex": "0100000001fe73581a824e0426579403d8b7a5c8c76dbb1fc74c6da994347e9b83aefe46f2010000006a47304402202561040c86b40e3352bb85ba00822bc1faa803910c1fbe67b397d9865d91096202203977ea5a2f639003f5c7df624857328324e866fe9a47303e92b0977ddf332e19012103c1dc23f8130fe77ff9ba13582d39ea6fd65bc74f9630942633ef3db21cab8403ffffffff0235620200000000001976a91497a035977bc9f041ebef5e739669f004fbab7f1388ac01a62504000000001976a9141d8e7fe7c8c65820e5c1a9727567455a3869d9f788ac00000000", "vin": [{"sequence": 4294967295, "scriptSig": {"hex": "47304402202561040c86b40e3352bb85ba00822bc1faa803910c1fbe67b397d9865d91096202203977ea5a2f639003f5c7df624857328324e866fe9a47303e92b0977ddf332e19012103c1dc23f8130fe77ff9ba13582d39ea6fd65bc74f9630942633ef3db21cab8403", "asm": "304402202561040c86b40e3352bb85ba00822bc1faa803910c1fbe67b397d9865d91096202203977ea5a2f639003f5c7df624857328324e866fe9a47303e92b0977ddf332e19[ALL] 03c1dc23f8130fe77ff9ba13582d39ea6fd65bc74f9630942633ef3db21cab8403"}, "vout": 1, "txid": "f246feae839b7e3494a96d4cc71fbb6dc7c8a5b7d803945726044e821a5873fe"}], "txid": "8913ff464b0ffae5fb5fcfa6506636e0aab16f87b1397038a9fdd797b0a5a330", "blocktime": 1537872475, "version": 1, "confirmations": 11487, "time": 1537872475, "locktime": 0, "vsize": 225, "size": 225}