{"hash": "891696036694bddcbbc0f5c0be73ff037414dc9f3756a9d95080416ed4a50a13", "blockhash": "00000000000000000004ffacab907a6b429b9a5745fa0b75af4234bf69dd7176", "vout": [{"scriptPubKey": {"reqSigs": 1, "hex": "76a91411b9c76415bd1ea71d746c585438b11354bd64e888ac", "addresses": ["12cj3QPv96mmcMXRS9x11xbH8iTkzNgPWz"], "asm": "OP_DUP OP_HASH160 11b9c76415bd1ea71d746c585438b11354bd64e8 OP_EQUALVERIFY OP_CHECKSIG", "type": "pubkeyhash"}, "value": 0.00162918, "n": 0}, {"scriptPubKey": {"reqSigs": 1, "hex": "76a91497d8d97629147565fa9e12ce198d4af130888d8688ac", "addresses": ["1Eqtovzkza7Yt3Nfm7Urcb9jHWrPLb1zho"], "asm": "OP_DUP OP_HASH160 97d8d97629147565fa9e12ce198d4af130888d86 OP_EQUALVERIFY OP_CHECKSIG", "type": "pubkeyhash"}, "value": 0.10014089, "n": 1}], "hex": "0100000001b8ad09af327f947d61fce2e04b820e9266ed498d2e2bd2e80c8c225daf196fde000000006b483045022100cb44b3daeae41f3ee6057421a59a7818d17ee1d85c4c1acaed3b2ae8a832fd94022017149f74e21f63a4a9c7e3dd939a06c9bec987322df467e034bd8b6302808175012102b7c31c7f8433cfdfd383c459e62a655451d3c7c7ab516f5b1313c9dca5330ef4ffffffff02667c0200000000001976a91411b9c76415bd1ea71d746c585438b11354bd64e888ac89cd9800000000001976a91497d8d97629147565fa9e12ce198d4af130888d8688ac00000000", "vin": [{"sequence": 4294967295, "scriptSig": {"hex": "483045022100cb44b3daeae41f3ee6057421a59a7818d17ee1d85c4c1acaed3b2ae8a832fd94022017149f74e21f63a4a9c7e3dd939a06c9bec987322df467e034bd8b6302808175012102b7c31c7f8433cfdfd383c459e62a655451d3c7c7ab516f5b1313c9dca5330ef4", "asm": "3045022100cb44b3daeae41f3ee6057421a59a7818d17ee1d85c4c1acaed3b2ae8a832fd94022017149f74e21f63a4a9c7e3dd939a06c9bec987322df467e034bd8b6302808175[ALL] 02b7c31c7f8433cfdfd383c459e62a655451d3c7c7ab516f5b1313c9dca5330ef4"}, "vout": 0, "txid": "de6f19af5d228c0ce8d22b2e8d49ed66920e824be0e2fc617d947f32af09adb8"}], "txid": "891696036694bddcbbc0f5c0be73ff037414dc9f3756a9d95080416ed4a50a13", "blocktime": 1537875543, "version": 1, "confirmations": 11464, "time": 1537875543, "locktime": 0, "vsize": 226, "size": 226}