{"hash": "446ff4e5581429556ecd623dbc3404d3396e8fcb07e45f1a253db71b16ff5d29", "blockhash": "0000000000000000001cda96e906b7601b7a6fb1a3b62bca570a9e5d8f4b3de1", "vout": [{"scriptPubKey": {"reqSigs": 1, "hex": "76a91425482e39f3e27ac8beca1b32f2133d317733a9d588ac", "addresses": ["14Q8UHvXvHmVd94jXbcqemF7NkYdqmU5uT"], "asm": "OP_DUP OP_HASH160 25482e39f3e27ac8beca1b32f2133d317733a9d5 OP_EQUALVERIFY OP_CHECKSIG", "type": "pubkeyhash"}, "value": 0.00026989, "n": 0}, {"scriptPubKey": {"reqSigs": 1, "hex": "a914f5342287aaa57f5c05756dbd5ef14091cc70030f87", "addresses": ["3Q3XvwKWsx3ocmCXheK6pAo5ieooFx75hh"], "asm": "OP_HASH160 f5342287aaa57f5c05756dbd5ef14091cc70030f OP_EQUAL", "type": "scripthash"}, "value": 0.08937612, "n": 1}], "hex": "01000000000101d2710015f8462a6d8a39b3a142e65bfce5d68aa6b3fd7f29ed0498af4d87493b01000000232200204fd7968ffe15cb453352a1e9ee2915eff8b6d6252d5a351f9092b82ca10eb12cffffffff026d690000000000001976a91425482e39f3e27ac8beca1b32f2133d317733a9d588ac8c6088000000000017a914f5342287aaa57f5c05756dbd5ef14091cc70030f8704004730440220183ec1d688d4ddcf2867ee92f349146fbe4390b9612b190fec5922877168c775022074e8fc96c9a15922b1abfef05ce75c57e9c72a13b33aa0117c5ad614a57e00ba014830450221008c8f237752176b8cbc27a1f4111f766a3928e29c25ef82e1e2cbccb82b6baacd02200376616b4f3857cdba02db6132659c863290fc3073c73ef002064da7b5f4dd7f0147522103b70e79262cbb7310fe069dea7c473b53276b75c67fb841ff66279f152a3fe0172103871fc2ca08e6950b38867e8e6a0e94ee625223d3aa0df5c65f414c6d784467e252ae00000000", "vin": [{"txinwitness": ["", "30440220183ec1d688d4ddcf2867ee92f349146fbe4390b9612b190fec5922877168c775022074e8fc96c9a15922b1abfef05ce75c57e9c72a13b33aa0117c5ad614a57e00ba01", "30450221008c8f237752176b8cbc27a1f4111f766a3928e29c25ef82e1e2cbccb82b6baacd02200376616b4f3857cdba02db6132659c863290fc3073c73ef002064da7b5f4dd7f01", "522103b70e79262cbb7310fe069dea7c473b53276b75c67fb841ff66279f152a3fe0172103871fc2ca08e6950b38867e8e6a0e94ee625223d3aa0df5c65f414c6d784467e252ae"], "sequence": 4294967295, "scriptSig": {"hex": "2200204fd7968ffe15cb453352a1e9ee2915eff8b6d6252d5a351f9092b82ca10eb12c", "asm": "00204fd7968ffe15cb453352a1e9ee2915eff8b6d6252d5a351f9092b82ca10eb12c"}, "vout": 1, "txid": "3b49874daf9804ed297ffdb3a68ad6e5fc5be642a1b3398a6d2a46f8150071d2"}], "txid": "8918d60b7971c31e670964f965acb3a5af4dd80d36184eedd3feaa01099b1c88", "blocktime": 1537873282, "version": 1, "confirmations": 11484, "time": 1537873282, "locktime": 0, "vsize": 208, "size": 373}