{"hash": "27cf4d68a0934e3b30c19bd8e4a5dd54c2eea6df972ee22ebaf44d6ae8d8d322", "blockhash": "00000000000000000024a2167bbff67b0be802c0b01cdd79e6331c2be6459f87", "vout": [{"scriptPubKey": {"reqSigs": 1, "hex": "76a9143d3c57dddc00b2c3dcdce4d3169c4f46da79bdd888ac", "addresses": ["16anWRX1X5akZ4GqSbuRqf4G9wCVZKTK9U"], "asm": "OP_DUP OP_HASH160 3d3c57dddc00b2c3dcdce4d3169c4f46da79bdd8 OP_EQUALVERIFY OP_CHECKSIG", "type": "pubkeyhash"}, "value": 3.0, "n": 0}, {"scriptPubKey": {"reqSigs": 1, "hex": "a914961c9028dac7c43bd8148deaa3e27956f83e6a3887", "addresses": ["3FNjVvFWSrgWSSBWcjKVa8rvTjg94oMU4H"], "asm": "OP_HASH160 961c9028dac7c43bd8148deaa3e27956f83e6a38 OP_EQUAL", "type": "scripthash"}, "value": 0.00483471, "n": 1}], "hex": "0100000000010235a81ea08120b6d0be4a36496758f83d8feb6f6f3fabd07a925e3738bdcb1dab01000000171600149e51b1760664ead67b483ca2e9d582460138a6f7ffffffff5e824c3eae36c571cd25e4cd4710a319e9c3edfc0424275f67226a08f2a6fac30000000017160014fc5e7fd85ef9e87e383633e1181a5bb905623d62ffffffff0200a3e111000000001976a9143d3c57dddc00b2c3dcdce4d3169c4f46da79bdd888ac8f6007000000000017a914961c9028dac7c43bd8148deaa3e27956f83e6a388702483045022100e80cbb1a1124cf42a0dbfa3e0835dd506e42367a4beb46ac25759999c4cfe5590220799ec694e897d386adb66b1f55e66e234b1da316d67fcc1a9c651937d5103313012103d2f0d15ebd2d44169bcc11c071043b3f12c7dba0ddd2193a306f0745147fed030247304402201f115ce58b0af3371889bfed17b3d5e392dc11430c8f644f88d0db9616ec99cb02200f70ff53af063fdf51943d9e7e49462d1fb36c791fb29536c4bc3240b1579279012102abce57773cbd5d86140afd7397bcd272a6af0e4c1986903c62a42877a2c7ceee00000000", "vin": [{"txinwitness": ["3045022100e80cbb1a1124cf42a0dbfa3e0835dd506e42367a4beb46ac25759999c4cfe5590220799ec694e897d386adb66b1f55e66e234b1da316d67fcc1a9c651937d510331301", "03d2f0d15ebd2d44169bcc11c071043b3f12c7dba0ddd2193a306f0745147fed03"], "sequence": 4294967295, "scriptSig": {"hex": "1600149e51b1760664ead67b483ca2e9d582460138a6f7", "asm": "00149e51b1760664ead67b483ca2e9d582460138a6f7"}, "vout": 1, "txid": "ab1dcbbd38375e927ad0ab3f6f6feb8f3df8586749364abed0b62081a01ea835"}, {"txinwitness": ["304402201f115ce58b0af3371889bfed17b3d5e392dc11430c8f644f88d0db9616ec99cb02200f70ff53af063fdf51943d9e7e49462d1fb36c791fb29536c4bc3240b157927901", "02abce57773cbd5d86140afd7397bcd272a6af0e4c1986903c62a42877a2c7ceee"], "sequence": 4294967295, "scriptSig": {"hex": "160014fc5e7fd85ef9e87e383633e1181a5bb905623d62", "asm": "0014fc5e7fd85ef9e87e383633e1181a5bb905623d62"}, "vout": 0, "txid": "c3faa6f2086a22675f272404fcedc3e919a31047cde425cd71c536ae3e4c825e"}], "txid": "8922830aba23e59c9375777041c34f35885b3361b554d091873d14a4a82c4f50", "blocktime": 1537870564, "version": 1, "confirmations": 11515, "time": 1537870564, "locktime": 0, "vsize": 259, "size": 421}