{"hash": "f69dda64c83f29e9bc6e7aa795b382cb6664d8220cda76eebd7e8fc164e39500", "blockhash": "000000000000000000022b45ed06c6f4ccd3cf7fb5ba4856ebd2e58215665228", "vout": [{"scriptPubKey": {"reqSigs": 1, "hex": "a9142cdefecdad8258902efda0a21bd60fc173be6bba87", "addresses": ["35nGnyHFFcUfYcPuwTW7TyoVSa5dKSNC1V"], "asm": "OP_HASH160 2cdefecdad8258902efda0a21bd60fc173be6bba OP_EQUAL", "type": "scripthash"}, "value": 0.281, "n": 0}, {"scriptPubKey": {"reqSigs": 1, "hex": "76a91427663b64ca7c0d8fb8a477866d207c64a0a2fc5388ac", "addresses": ["14bKpgmpxmJqdEC3kXJazpWHEN5DqqjPto"], "asm": "OP_DUP OP_HASH160 27663b64ca7c0d8fb8a477866d207c64a0a2fc53 OP_EQUALVERIFY OP_CHECKSIG", "type": "pubkeyhash"}, "value": 1.3216, "n": 1}], "hex": "010000000001055bb2918a26ae18a11ebf6cf32088f2a3600cd0c15cc8ed911fa7a1ef690734be010000002322002066eaf5f824bd65d12bc459dc054cf6cde4485086a296c21b635b181d65a3313affffffff43c18a220baab5e4697a57ba35189f9b03ba2678f6426025cf4f6a54c2c9d3620200000023220020894cea20e3aed34722c41dca66c68a49b2182b8394d8e309a7bae38f0253f576ffffffff5bb2918a26ae18a11ebf6cf32088f2a3600cd0c15cc8ed911fa7a1ef690734be00000000232200207ddcad361f4444f8af527b2f63bb4fb47a729c47461ca463c4f7426898473c2effffffff43c18a220baab5e4697a57ba35189f9b03ba2678f6426025cf4f6a54c2c9d362010000002322002048c37cb3c9bbfdbd17595617f6a956d6a3bf6f3edf94d676cf27e4f68f8d8c45fffffffff1342a1f65b4aaeb40761bed6f75b929df9c9d67d1c9a61af7f7a7c9f299d14901000000232200207b0de5da4d396de2f959c3ca721c684a472b539a534c4bd61e3b22f4c01c5965ffffffff02a0c5ac010000000017a9142cdefecdad8258902efda0a21bd60fc173be6bba87009ae007000000001976a91427663b64ca7c0d8fb8a477866d207c64a0a2fc5388ac0400483045022100bb6a4635739b50c539784c03e307f2066bd4d4f2ab0e778541eddaf78f40493d022052249f7586d7628105fda9fb09a822f82e4aef2e9738f2e7d12200897df9138f0147304402207fa64b1cd4b9ae00aca540c6c550d1295016c7c8c6b00c37b4157bfcbca380fd02200eee3d64041b9d6edca6212e0a8dc3de34545c7dea4ff14298ae3ea7e0d3a786016952210375b4717086e2825930e968f8d52d9c7704fb10fc5167d54893e0d27aac351e882103ca3212fb3fa54f4b632d15dab0cda91c50bd84185bf6b4f2c2e0b9081aad1d172102010038d47c208f6c23ced7f5583ddabf2493ea92d47ee588e54e6419633f0e6653ae0400483045022100f1c0476ec59c5e1a4478d93d0fc00f7321fd40149d86777d2e1b3b24246d4aa50220432b6092a992b353623ed0556c9c0e15c672fe965d56b0453d29832b3fc4507501473044022036019b8a47f14ab967f190c0de1f26130a385d08ff2a064fdf1277e9ffc4239e022068728c09bd4d7b2795ae83b792b4831a9682c76b894e60541eb6e8f05461bbb3016952210291d02ab07da49badebf5ee6c82085ec71bac56cb264dc6bc83c635622a5e476d210297a9eeabfa4aac377d673e99aaa9932050e3c9839f852bdf13a3f6f06d5fcddb2103cef350f453d6d02a160738704ff95fe676f32b2739bc9460fba159d20ae98d7253ae0400483045022100d42570e2fdcba4768bfea9017a344b297f4ac98ab958141df445d119c2370e6902204be1bfbf402cfc8c418eeb9fc7e157a069274fc8b5f78cfe467b0b2b0379307d0147304402203a0c98873d8ad8ec1f14dd22c9f3bd7dbc6ceb726c8a750ce4e65027830704be022054d191096da1a396146a0820f6f8c2defeeaeb597970acc49be62dd2728d2cd70169522103c2b0ec119b7826e9bf53302ce2a2cc2b1229abc2e2868a1f142790d259720b562102f351fd99627c62dd1ef182e29fe5c4afa90dfaf02a4f2692dd792d805913ad88210392579a6a08c44fad3c8870a2335093dc56aa22cbdc0f057412a3730d8424a7ec53ae040047304402200c978a7a3195eb60118ace3831388ddd4d4002abb8e5e802d63d4d6dd650545002202b7ad9294b1ac4a134e0047793f8d9bc535ffbcf0c83485cc10ea7095d163db801483045022100b064bdbd20fc205aad159cd43740b00a6424ee75e4e0a5a51bc485904bee7ad80220247351e9855c1c8320ca98c21ec7a793925c2f34197703302216c0c5a77b6b830169522103619af948d845dcf68a329bdb6df1885ce164bd02c74415ca8f6d81644e3258912103a0d3705b515e9e82836075e860633d43d175650d9b7259099c6ca1bb83a379262103a1f41c1d356a81374d0bbcd841be8df260c5ad901572ed661bbcfe4782f9ba2153ae040047304402207d861690f3dc70cf862020095282ec8630be41eda2a6bde5b9d55bfe4bbcf2ac0220657e78dddec0ce626c460860e7c91d424502b0e7d5e441ffda1f5fcf498a7b29014830450221008a7e71fd6161b9446f0f4211dfdd2ddeff30d54cf0f053828092a82ea69f934202201c1a6e462bf4871d82b8218d589ac1378296cb7c08fbc0dc5ed5cba2446236e001695221021977626ad1e6188a0a41a727fb65a395b49ff65c3590c4b611a5aa76bc72911a210380b63183334c30b68783916b8c331d7ddaa2871a1419706edac89a8e749eaaa721037c119360545267c3557a61e1ecfd064bee124822b29e12e139d682bfad16318353ae00000000", "vin": [{"txinwitness": ["", "3045022100bb6a4635739b50c539784c03e307f2066bd4d4f2ab0e778541eddaf78f40493d022052249f7586d7628105fda9fb09a822f82e4aef2e9738f2e7d12200897df9138f01", "304402207fa64b1cd4b9ae00aca540c6c550d1295016c7c8c6b00c37b4157bfcbca380fd02200eee3d64041b9d6edca6212e0a8dc3de34545c7dea4ff14298ae3ea7e0d3a78601", "52210375b4717086e2825930e968f8d52d9c7704fb10fc5167d54893e0d27aac351e882103ca3212fb3fa54f4b632d15dab0cda91c50bd84185bf6b4f2c2e0b9081aad1d172102010038d47c208f6c23ced7f5583ddabf2493ea92d47ee588e54e6419633f0e6653ae"], "sequence": 4294967295, "scriptSig": {"hex": "22002066eaf5f824bd65d12bc459dc054cf6cde4485086a296c21b635b181d65a3313a", "asm": "002066eaf5f824bd65d12bc459dc054cf6cde4485086a296c21b635b181d65a3313a"}, "vout": 1, "txid": "be340769efa1a71f91edc85cc1d00c60a3f28820f36cbf1ea118ae268a91b25b"}, {"txinwitness": ["", "3045022100f1c0476ec59c5e1a4478d93d0fc00f7321fd40149d86777d2e1b3b24246d4aa50220432b6092a992b353623ed0556c9c0e15c672fe965d56b0453d29832b3fc4507501", "3044022036019b8a47f14ab967f190c0de1f26130a385d08ff2a064fdf1277e9ffc4239e022068728c09bd4d7b2795ae83b792b4831a9682c76b894e60541eb6e8f05461bbb301", "52210291d02ab07da49badebf5ee6c82085ec71bac56cb264dc6bc83c635622a5e476d210297a9eeabfa4aac377d673e99aaa9932050e3c9839f852bdf13a3f6f06d5fcddb2103cef350f453d6d02a160738704ff95fe676f32b2739bc9460fba159d20ae98d7253ae"], "sequence": 4294967295, "scriptSig": {"hex": "220020894cea20e3aed34722c41dca66c68a49b2182b8394d8e309a7bae38f0253f576", "asm": "0020894cea20e3aed34722c41dca66c68a49b2182b8394d8e309a7bae38f0253f576"}, "vout": 2, "txid": "62d3c9c2546a4fcf256042f67826ba039b9f1835ba577a69e4b5aa0b228ac143"}, {"txinwitness": ["", "3045022100d42570e2fdcba4768bfea9017a344b297f4ac98ab958141df445d119c2370e6902204be1bfbf402cfc8c418eeb9fc7e157a069274fc8b5f78cfe467b0b2b0379307d01", "304402203a0c98873d8ad8ec1f14dd22c9f3bd7dbc6ceb726c8a750ce4e65027830704be022054d191096da1a396146a0820f6f8c2defeeaeb597970acc49be62dd2728d2cd701", "522103c2b0ec119b7826e9bf53302ce2a2cc2b1229abc2e2868a1f142790d259720b562102f351fd99627c62dd1ef182e29fe5c4afa90dfaf02a4f2692dd792d805913ad88210392579a6a08c44fad3c8870a2335093dc56aa22cbdc0f057412a3730d8424a7ec53ae"], "sequence": 4294967295, "scriptSig": {"hex": "2200207ddcad361f4444f8af527b2f63bb4fb47a729c47461ca463c4f7426898473c2e", "asm": "00207ddcad361f4444f8af527b2f63bb4fb47a729c47461ca463c4f7426898473c2e"}, "vout": 0, "txid": "be340769efa1a71f91edc85cc1d00c60a3f28820f36cbf1ea118ae268a91b25b"}, {"txinwitness": ["", "304402200c978a7a3195eb60118ace3831388ddd4d4002abb8e5e802d63d4d6dd650545002202b7ad9294b1ac4a134e0047793f8d9bc535ffbcf0c83485cc10ea7095d163db801", "3045022100b064bdbd20fc205aad159cd43740b00a6424ee75e4e0a5a51bc485904bee7ad80220247351e9855c1c8320ca98c21ec7a793925c2f34197703302216c0c5a77b6b8301", "522103619af948d845dcf68a329bdb6df1885ce164bd02c74415ca8f6d81644e3258912103a0d3705b515e9e82836075e860633d43d175650d9b7259099c6ca1bb83a379262103a1f41c1d356a81374d0bbcd841be8df260c5ad901572ed661bbcfe4782f9ba2153ae"], "sequence": 4294967295, "scriptSig": {"hex": "22002048c37cb3c9bbfdbd17595617f6a956d6a3bf6f3edf94d676cf27e4f68f8d8c45", "asm": "002048c37cb3c9bbfdbd17595617f6a956d6a3bf6f3edf94d676cf27e4f68f8d8c45"}, "vout": 1, "txid": "62d3c9c2546a4fcf256042f67826ba039b9f1835ba577a69e4b5aa0b228ac143"}, {"txinwitness": ["", "304402207d861690f3dc70cf862020095282ec8630be41eda2a6bde5b9d55bfe4bbcf2ac0220657e78dddec0ce626c460860e7c91d424502b0e7d5e441ffda1f5fcf498a7b2901", "30450221008a7e71fd6161b9446f0f4211dfdd2ddeff30d54cf0f053828092a82ea69f934202201c1a6e462bf4871d82b8218d589ac1378296cb7c08fbc0dc5ed5cba2446236e001", "5221021977626ad1e6188a0a41a727fb65a395b49ff65c3590c4b611a5aa76bc72911a210380b63183334c30b68783916b8c331d7ddaa2871a1419706edac89a8e749eaaa721037c119360545267c3557a61e1ecfd064bee124822b29e12e139d682bfad16318353ae"], "sequence": 4294967295, "scriptSig": {"hex": "2200207b0de5da4d396de2f959c3ca721c684a472b539a534c4bd61e3b22f4c01c5965", "asm": "00207b0de5da4d396de2f959c3ca721c684a472b539a534c4bd61e3b22f4c01c5965"}, "vout": 1, "txid": "49d199f2c9a7f7f71aa6c9d1679d9cdf29b9756fed1b7640ebaab4651f2a34f1"}], "txid": "892a0e69e99749efacc1417355b171fb84f03eff615cf12197baa77e245f4b5b", "blocktime": 1537869901, "version": 1, "confirmations": 11522, "time": 1537869901, "locktime": 0, "vsize": 773, "size": 1723}