{"hash": "2d1436e20389ad20859d5d27bf51e19d288091038ff1c6f4fd5ba06bff7084c0", "blockhash": "0000000000000000000baef3f32e3676a92c3b2e5da21b426e4f302fc371ce76", "vout": [{"scriptPubKey": {"reqSigs": 1, "hex": "76a9142de493a61c1ca5a783e07d6801319f081d07ce8d88ac", "addresses": ["15BfERa4TEqnnnP9b2qCs1QXML4ZrYAnDX"], "asm": "OP_DUP OP_HASH160 2de493a61c1ca5a783e07d6801319f081d07ce8d OP_EQUALVERIFY OP_CHECKSIG", "type": "pubkeyhash"}, "value": 0.0305037, "n": 0}, {"scriptPubKey": {"reqSigs": 1, "hex": "a914ba4ee3d14dac75d554bb55779c56b4a0bc8bfe3587", "addresses": ["3Jg87bFokDNDVVqUinZdcWxexUzi62J2qN"], "asm": "OP_HASH160 ba4ee3d14dac75d554bb55779c56b4a0bc8bfe35 OP_EQUAL", "type": "scripthash"}, "value": 0.30024327, "n": 1}], "hex": "0100000000010160fb6b606ffb6e86804f1c32fca8594acb42d6887516440cdd4583ad5522ff3301000000171600143e87e3ec4093aff62b411f07bd82370b999b78e1ffffffff02828b2e00000000001976a9142de493a61c1ca5a783e07d6801319f081d07ce8d88ac8722ca010000000017a914ba4ee3d14dac75d554bb55779c56b4a0bc8bfe358702483045022100ed00954f5110e34cb518aeea1328a35acf17b957c963028039dde969e2e8f8d80220464c6988f86d14351cee2f3bcc63c48846b6ae8105f0c77ddf3bd33cd5fb9f510121036f12472451507ea6534c3e1fdff93b51bdf3e4de2b7155e006aad955994ae32e00000000", "vin": [{"txinwitness": ["3045022100ed00954f5110e34cb518aeea1328a35acf17b957c963028039dde969e2e8f8d80220464c6988f86d14351cee2f3bcc63c48846b6ae8105f0c77ddf3bd33cd5fb9f5101", "036f12472451507ea6534c3e1fdff93b51bdf3e4de2b7155e006aad955994ae32e"], "sequence": 4294967295, "scriptSig": {"hex": "1600143e87e3ec4093aff62b411f07bd82370b999b78e1", "asm": "00143e87e3ec4093aff62b411f07bd82370b999b78e1"}, "vout": 1, "txid": "33ff2255ad8345dd0c44167588d642cb4a59a8fc321c4f80866efb6f606bfb60"}], "txid": "8932432f8cfbf2f3f433c608239d7a4bc073b0a7bf41228fbf95f737227815c7", "blocktime": 1537876114, "version": 1, "confirmations": 11460, "time": 1537876114, "locktime": 0, "vsize": 168, "size": 250}