{"hash": "893e4611c03bed8c2a1f729f7476506dfb9466bfb74e2f24f066ae9b2f0ab6d8", "blockhash": "00000000000000000017f5eb5941039fbcee6240d03bc1f2f8e35350df66a1d8", "vout": [{"scriptPubKey": {"reqSigs": 1, "hex": "a9140e28b948a11d0a114808034ee7fe6768df1c936487", "addresses": ["32ytAmPZ1oGjwZKvHW2o6kgp1paDM6DQr6"], "asm": "OP_HASH160 0e28b948a11d0a114808034ee7fe6768df1c9364 OP_EQUAL", "type": "scripthash"}, "value": 0.00396915, "n": 0}, {"scriptPubKey": {"reqSigs": 1, "hex": "a914720c6da9ab6d731f6e2aa0cbdf9f2453e09a45b187", "addresses": ["3C63qx6UyCSji9GDTPFu3JFTSnLKtZo91r"], "asm": "OP_HASH160 720c6da9ab6d731f6e2aa0cbdf9f2453e09a45b1 OP_EQUAL", "type": "scripthash"}, "value": 0.01415872, "n": 1}], "hex": "01000000013a65f1772496fccd22407f1b82e363b5c5af8b161fd6849c94b666c66a83f4ed01000000da00483045022100e9184cc639da2d5e99d924dc58d20b0eada1ca70788dcc139c57c05c647c096202205a7efbdc6d5c8d7939e431068fba4ce6d1300c7e032770547e6216d0565d85f60147304402201dc90561df55e2d1f6ad239818fa998b3e59ab61031e213cc0047f20587480f00220753f30a74613d75d85372987b7e4c7299d841778b4e19fd95e9e90d2054eae7b0147522103f2d250ed5140d655fe49f9b9f857ff223c9290b9bbe8b68a50d522cf45e633702102045f2de7b3abee8ca375163a8879a6719ef3e6d7ffc88aa3008e11b5b89eb7ee52aeffffffff02730e06000000000017a9140e28b948a11d0a114808034ee7fe6768df1c936487c09a15000000000017a914720c6da9ab6d731f6e2aa0cbdf9f2453e09a45b18700000000", "vin": [{"sequence": 4294967295, "scriptSig": {"hex": "00483045022100e9184cc639da2d5e99d924dc58d20b0eada1ca70788dcc139c57c05c647c096202205a7efbdc6d5c8d7939e431068fba4ce6d1300c7e032770547e6216d0565d85f60147304402201dc90561df55e2d1f6ad239818fa998b3e59ab61031e213cc0047f20587480f00220753f30a74613d75d85372987b7e4c7299d841778b4e19fd95e9e90d2054eae7b0147522103f2d250ed5140d655fe49f9b9f857ff223c9290b9bbe8b68a50d522cf45e633702102045f2de7b3abee8ca375163a8879a6719ef3e6d7ffc88aa3008e11b5b89eb7ee52ae", "asm": "0 3045022100e9184cc639da2d5e99d924dc58d20b0eada1ca70788dcc139c57c05c647c096202205a7efbdc6d5c8d7939e431068fba4ce6d1300c7e032770547e6216d0565d85f6[ALL] 304402201dc90561df55e2d1f6ad239818fa998b3e59ab61031e213cc0047f20587480f00220753f30a74613d75d85372987b7e4c7299d841778b4e19fd95e9e90d2054eae7b[ALL] 522103f2d250ed5140d655fe49f9b9f857ff223c9290b9bbe8b68a50d522cf45e633702102045f2de7b3abee8ca375163a8879a6719ef3e6d7ffc88aa3008e11b5b89eb7ee52ae"}, "vout": 1, "txid": "edf4836ac666b6949c84d61f168bafc5b563e3821b7f4022cdfc962477f1653a"}], "txid": "893e4611c03bed8c2a1f729f7476506dfb9466bfb74e2f24f066ae9b2f0ab6d8", "blocktime": 1537874412, "version": 1, "confirmations": 11467, "time": 1537874412, "locktime": 0, "vsize": 333, "size": 333}