{"hash": "8941512affa5601226431ab427b916cdd48cbb7fd267e9fa3219484ef9ff6cfd", "blockhash": "00000000000000000017f5eb5941039fbcee6240d03bc1f2f8e35350df66a1d8", "vout": [{"scriptPubKey": {"reqSigs": 1, "hex": "76a914e2baaaa40dbc04e18cdc1b90e88e5e98a5d8fa2588ac", "addresses": ["1MfqLB6UJkzLGY4i9vWx8b6kYLEqnkaUYo"], "asm": "OP_DUP OP_HASH160 e2baaaa40dbc04e18cdc1b90e88e5e98a5d8fa25 OP_EQUALVERIFY OP_CHECKSIG", "type": "pubkeyhash"}, "value": 0.00367849, "n": 0}, {"scriptPubKey": {"reqSigs": 1, "hex": "76a9141683037fa2a06a663644b59486b052513582618688ac", "addresses": ["1342pD9PcAddcoj4rLydDLTHKeJ6KmCQ7T"], "asm": "OP_DUP OP_HASH160 1683037fa2a06a663644b59486b0525135826186 OP_EQUALVERIFY OP_CHECKSIG", "type": "pubkeyhash"}, "value": 0.05821869, "n": 1}], "hex": "0100000001d1f6a482d383b3868630f45c69f712174f8a37c867b5a1147c422d5aa2ea90a4010000006b483045022100a509c2bd264d9eaa0aaa72b2321ce5197886efdf5e5d996777d72f89d26b0f5702201f69b5a65bb6e307834002570246866630e995a783a65bd9bbb9e0ca727c2c90012103512c2116dfb785e44f979ab68fc189dc75a2551151f16b4c7e0ba023201349f6fdffffff02e99c0500000000001976a914e2baaaa40dbc04e18cdc1b90e88e5e98a5d8fa2588acadd55800000000001976a9141683037fa2a06a663644b59486b052513582618688ac15490800", "vin": [{"sequence": 4294967293, "scriptSig": {"hex": "483045022100a509c2bd264d9eaa0aaa72b2321ce5197886efdf5e5d996777d72f89d26b0f5702201f69b5a65bb6e307834002570246866630e995a783a65bd9bbb9e0ca727c2c90012103512c2116dfb785e44f979ab68fc189dc75a2551151f16b4c7e0ba023201349f6", "asm": "3045022100a509c2bd264d9eaa0aaa72b2321ce5197886efdf5e5d996777d72f89d26b0f5702201f69b5a65bb6e307834002570246866630e995a783a65bd9bbb9e0ca727c2c90[ALL] 03512c2116dfb785e44f979ab68fc189dc75a2551151f16b4c7e0ba023201349f6"}, "vout": 1, "txid": "a490eaa25a2d427c14a1b567c8378a4f1712f7695cf4308686b383d382a4f6d1"}], "txid": "8941512affa5601226431ab427b916cdd48cbb7fd267e9fa3219484ef9ff6cfd", "blocktime": 1537874412, "version": 1, "confirmations": 11467, "time": 1537874412, "locktime": 542997, "vsize": 226, "size": 226}