{"hash": "7fc5242167f0d700a80b4b3e251428ff9234e74ba240f56a1cefe06e492494ce", "blockhash": "0000000000000000000e13cef7c366c0283d82e591d1acd082e914b08063cdf1", "vout": [{"scriptPubKey": {"reqSigs": 1, "hex": "76a914e4a9e04b333eff2f89f17b76e54a024049e2067788ac", "addresses": ["1Mr4ZwTkLQtBZAzuktcGfbZgkizg5kMGDx"], "asm": "OP_DUP OP_HASH160 e4a9e04b333eff2f89f17b76e54a024049e20677 OP_EQUALVERIFY OP_CHECKSIG", "type": "pubkeyhash"}, "value": 0.3, "n": 0}, {"scriptPubKey": {"reqSigs": 1, "hex": "a9146c2b43777b4f06b79f98808351754b615e2c089a87", "addresses": ["3BYxjGKoxinuiN2jDWFz6NwfF86RW1gE19"], "asm": "OP_HASH160 6c2b43777b4f06b79f98808351754b615e2c089a OP_EQUAL", "type": "scripthash"}, "value": 0.0149, "n": 1}, {"scriptPubKey": {"reqSigs": 1, "hex": "a914e29c07032945d8794bd86a33006cf46cadef8a9587", "addresses": ["3NMDYsTDZHU8hpnD9Z3ekTm9VfZn2ia1qx"], "asm": "OP_HASH160 e29c07032945d8794bd86a33006cf46cadef8a95 OP_EQUAL", "type": "scripthash"}, "value": 0.00821537, "n": 2}], "hex": "01000000000109e83766b38c2bb049f5e202bad6a66490aada6f4664fe5bdc6c14df51c22d203a0100000017160014a5bc9d3d79f110ed1e9fbe5a5d5f75d3c5a83299ffffffff7a013edde22acc040e40118926dcc47c4a6044e5c03473978cf55e341c3140cf01000000171600146556675dd6003fe6916a65420e1d8d98dd07d47cffffffff1ab5eec7431dcc31ebfe012dbd0ec525e810fe16b7ed9f184ee652c58d17bbc80000000017160014017da44b64f4d5fdb040e312bfe921644a7301b9ffffffff36dbca535de63f9eedba09e8227b57da2622d75da36a6e0110b457cfb427f99c01000000171600141a17604151e1735b7aa33a7a615d8a08403d7d56ffffffff7d4646bac5b0103b1cd8dbccd4d39c9cbf9eb37379d9370206d81e4a21e997b9020000001716001483d83f632293d90bd263d2b83eb9b63e8d62c652ffffffff53952de7c5562c35a691dbdc2b4b72a24256b826dced50c6dd23eb5782cd200b0100000017160014c6aacd4f506020cd7b85d8fea22d45cc67aac528ffffffffd16e609d744892cad7e31c50bb5389c1242ff34c199e8f65515598d7fe6a33ca010000001716001492e0434818222b221b307f068572ff0b5a84ffbdffffffff78ce680d3d101b1ec6c81fe8ffb3991388804a86558f58e834b46b089495656a0200000017160014f5a9f22cb240114104977864a9eb4d0cacc3c892ffffffff40d7f164c3cb9adc3dae9ea4815193c3fabfc5bd71595a218e979bf9daa4ed080100000017160014b3af822fe0afba4beefcad5e98ae17b8e3e0cc72ffffffff0380c3c901000000001976a914e4a9e04b333eff2f89f17b76e54a024049e2067788ac50bc16000000000017a9146c2b43777b4f06b79f98808351754b615e2c089a8721890c000000000017a914e29c07032945d8794bd86a33006cf46cadef8a9587024730440220303852f6d61b2b8a815a0d8e9481146c84f6169d75d36b24a2c336c5f3e680bb02202868cff3dd08df90051d42963ea3ad6746acc36c9382abcf351c209e77e879ea0121038a4e3dbb12927727cc83e00d424d40467c18f115953d4bfdd072cd15ba976a1702473044022023862835e7f636961ac00cbf4f50de0816ffcb8eabbcbd306a9f32ce0177a8c802206532aa5d0bd8f63c761c4c1619f6ee032a113c56a09394e4cdf47a65af026537012103b1f531a91e9bf5bfb4b3f4b4c36ed11ae8bcfb63da73cab8fc96ddf3fa9a21a20247304402204b239ca891ff56974ca02969e1510f0982ff8791b859b1cb050afd43a69843ed0220614256bd1a875822047260422ac624cc8f786eac96ee27c22ef49c9626826f6f0121039fea1f51dd96be7c2b10688aa4b2e1ff675f0490495b577fe9594ff147c8a57a02483045022100996f39366502469936ff494b7c545b70b6aa3dd031e49f253d0b16f3c81f7f7f02200231513a28009452df35fa213b8706cf72fca0174a38c7ca1e0141b2ff4d7618012102d687222f2a7a4050cc841001c502b0bfdc4c95ffcf4f4671a2e085fffc42da2602483045022100dac8159e66c2b547861735304c79ddf404b0e00779158bedc976d1f2befdd7d7022001bb312afa74639e56e87c106a291c2b27233e51c8bee752474645977c20620301210244822b2e77c5fe87f4f3ae75ed2e2c52201953af88d6efac7a04d7c864426c5302483045022100b32bf2ee02ddb1da3f961f6868772e7066bee6db1cb424502921c6aaea24742102200d3d4a3b97c36cb080344f54f9bf674c2fff921aee7c79fb04a9a729119f4a6201210328c0a9947d97b40c62d1f1cad7591b6f98c849098947862bc46a9c13430c2da902483045022100ecdb0abaa0867042da80161a6379632261285fd6bb0fbcda1f367ffe1e822be802206102d47db649d91118095e40f02b9d7dcac479c526069e00d8c88ab3aeaaf1d30121033711f645434e6270a86fdbe2fc360c88221c2b57225afd299a966bed37dfeef402483045022100fddca34db2edff7c34f770a259c646d1a3f9a3d366d6c61566fbce19cec6084b02204209773b6ced79074f336e481b74281529ea675d6120984691a2c0e8931f4a60012103181fdb255b5182dd0ba93e7ff66dd23fe68d0c244cab6ed0c15e1630bda8d63302483045022100a6da642126cd7aff4c84a2e5f3654e059dba3e8def08f3953df61b4cb351b8af02206e5f61bdad357fb1050ff72bdac5bb4b1b16e4082dd8f874a19462d22b1267ce012102a236e4ec058f33b9d3b330b20d7520f2987c054afbb8bfd91ab4c9388a0f5eb900000000", "vin": [{"txinwitness": ["30440220303852f6d61b2b8a815a0d8e9481146c84f6169d75d36b24a2c336c5f3e680bb02202868cff3dd08df90051d42963ea3ad6746acc36c9382abcf351c209e77e879ea01", "038a4e3dbb12927727cc83e00d424d40467c18f115953d4bfdd072cd15ba976a17"], "sequence": 4294967295, "scriptSig": {"hex": "160014a5bc9d3d79f110ed1e9fbe5a5d5f75d3c5a83299", "asm": "0014a5bc9d3d79f110ed1e9fbe5a5d5f75d3c5a83299"}, "vout": 1, "txid": "3a202dc251df146cdc5bfe64466fdaaa9064a6d6ba02e2f549b02b8cb36637e8"}, {"txinwitness": ["3044022023862835e7f636961ac00cbf4f50de0816ffcb8eabbcbd306a9f32ce0177a8c802206532aa5d0bd8f63c761c4c1619f6ee032a113c56a09394e4cdf47a65af02653701", "03b1f531a91e9bf5bfb4b3f4b4c36ed11ae8bcfb63da73cab8fc96ddf3fa9a21a2"], "sequence": 4294967295, "scriptSig": {"hex": "1600146556675dd6003fe6916a65420e1d8d98dd07d47c", "asm": "00146556675dd6003fe6916a65420e1d8d98dd07d47c"}, "vout": 1, "txid": "cf40311c345ef58c977334c0e544604a7cc4dc268911400e04cc2ae2dd3e017a"}, {"txinwitness": ["304402204b239ca891ff56974ca02969e1510f0982ff8791b859b1cb050afd43a69843ed0220614256bd1a875822047260422ac624cc8f786eac96ee27c22ef49c9626826f6f01", "039fea1f51dd96be7c2b10688aa4b2e1ff675f0490495b577fe9594ff147c8a57a"], "sequence": 4294967295, "scriptSig": {"hex": "160014017da44b64f4d5fdb040e312bfe921644a7301b9", "asm": "0014017da44b64f4d5fdb040e312bfe921644a7301b9"}, "vout": 0, "txid": "c8bb178dc552e64e189fedb716fe10e825c50ebd2d01feeb31cc1d43c7eeb51a"}, {"txinwitness": ["3045022100996f39366502469936ff494b7c545b70b6aa3dd031e49f253d0b16f3c81f7f7f02200231513a28009452df35fa213b8706cf72fca0174a38c7ca1e0141b2ff4d761801", "02d687222f2a7a4050cc841001c502b0bfdc4c95ffcf4f4671a2e085fffc42da26"], "sequence": 4294967295, "scriptSig": {"hex": "1600141a17604151e1735b7aa33a7a615d8a08403d7d56", "asm": "00141a17604151e1735b7aa33a7a615d8a08403d7d56"}, "vout": 1, "txid": "9cf927b4cf57b410016e6aa35dd72226da577b22e809baed9e3fe65d53cadb36"}, {"txinwitness": ["3045022100dac8159e66c2b547861735304c79ddf404b0e00779158bedc976d1f2befdd7d7022001bb312afa74639e56e87c106a291c2b27233e51c8bee752474645977c20620301", "0244822b2e77c5fe87f4f3ae75ed2e2c52201953af88d6efac7a04d7c864426c53"], "sequence": 4294967295, "scriptSig": {"hex": "16001483d83f632293d90bd263d2b83eb9b63e8d62c652", "asm": "001483d83f632293d90bd263d2b83eb9b63e8d62c652"}, "vout": 2, "txid": "b997e9214a1ed8060237d97973b39ebf9c9cd3d4ccdbd81c3b10b0c5ba46467d"}, {"txinwitness": ["3045022100b32bf2ee02ddb1da3f961f6868772e7066bee6db1cb424502921c6aaea24742102200d3d4a3b97c36cb080344f54f9bf674c2fff921aee7c79fb04a9a729119f4a6201", "0328c0a9947d97b40c62d1f1cad7591b6f98c849098947862bc46a9c13430c2da9"], "sequence": 4294967295, "scriptSig": {"hex": "160014c6aacd4f506020cd7b85d8fea22d45cc67aac528", "asm": "0014c6aacd4f506020cd7b85d8fea22d45cc67aac528"}, "vout": 1, "txid": "0b20cd8257eb23ddc650eddc26b85642a2724b2bdcdb91a6352c56c5e72d9553"}, {"txinwitness": ["3045022100ecdb0abaa0867042da80161a6379632261285fd6bb0fbcda1f367ffe1e822be802206102d47db649d91118095e40f02b9d7dcac479c526069e00d8c88ab3aeaaf1d301", "033711f645434e6270a86fdbe2fc360c88221c2b57225afd299a966bed37dfeef4"], "sequence": 4294967295, "scriptSig": {"hex": "16001492e0434818222b221b307f068572ff0b5a84ffbd", "asm": "001492e0434818222b221b307f068572ff0b5a84ffbd"}, "vout": 1, "txid": "ca336afed7985551658f9e194cf32f24c18953bb501ce3d7ca9248749d606ed1"}, {"txinwitness": ["3045022100fddca34db2edff7c34f770a259c646d1a3f9a3d366d6c61566fbce19cec6084b02204209773b6ced79074f336e481b74281529ea675d6120984691a2c0e8931f4a6001", "03181fdb255b5182dd0ba93e7ff66dd23fe68d0c244cab6ed0c15e1630bda8d633"], "sequence": 4294967295, "scriptSig": {"hex": "160014f5a9f22cb240114104977864a9eb4d0cacc3c892", "asm": "0014f5a9f22cb240114104977864a9eb4d0cacc3c892"}, "vout": 2, "txid": "6a659594086bb434e8588f55864a80881399b3ffe81fc8c61e1b103d0d68ce78"}, {"txinwitness": ["3045022100a6da642126cd7aff4c84a2e5f3654e059dba3e8def08f3953df61b4cb351b8af02206e5f61bdad357fb1050ff72bdac5bb4b1b16e4082dd8f874a19462d22b1267ce01", "02a236e4ec058f33b9d3b330b20d7520f2987c054afbb8bfd91ab4c9388a0f5eb9"], "sequence": 4294967295, "scriptSig": {"hex": "160014b3af822fe0afba4beefcad5e98ae17b8e3e0cc72", "asm": "0014b3af822fe0afba4beefcad5e98ae17b8e3e0cc72"}, "vout": 1, "txid": "08eda4daf99b978e215a5971bdc5bffac3935181a49eae3ddc9acbc364f1d740"}], "txid": "89441d115ad1aae005a0745ad7d6c96cee419b400e5a50fe6dace81b1cc4b19b", "blocktime": 1537871767, "version": 1, "confirmations": 11493, "time": 1537871767, "locktime": 0, "vsize": 927, "size": 1655}