{"hash": "08af5401b622e02a68dc5a76459c45cc559ab53c540a5e751316fefcf526e6ca", "blockhash": "00000000000000000017f5eb5941039fbcee6240d03bc1f2f8e35350df66a1d8", "vout": [{"scriptPubKey": {"reqSigs": 1, "hex": "a914f55054fa256da4665c6d27be97a92a6e0af899a887", "addresses": ["3Q47i6x2wsBUqTf6fJkUV44GqzgjHd4M7u"], "asm": "OP_HASH160 f55054fa256da4665c6d27be97a92a6e0af899a8 OP_EQUAL", "type": "scripthash"}, "value": 0.046965, "n": 0}, {"scriptPubKey": {"reqSigs": 1, "hex": "a914ea645e5e20987adfaa9d5fa4a915d008965f102387", "addresses": ["3P4NHAbib3uvj6QNYmPWqEJMZnx4HzszTp"], "asm": "OP_HASH160 ea645e5e20987adfaa9d5fa4a915d008965f1023 OP_EQUAL", "type": "scripthash"}, "value": 0.01000445, "n": 1}], "hex": "020000000001054e461c1f84820ac999c62eaca1eecc54aaeb4e1ca8026fdec1c97ef99872d91900000000171600146433abea2aa8da153dc9db07210a1d5dfd483e78ffffffff56e8770f26f931e2dc97b294d067020e3c397085e8a0f102eb91defb3e2d825f0200000017160014f9cf761b4c9fe05c2d4049f4f84d13348880593cffffffff25ffffb8eb1623286e195498c5614732dc87f97d7d0042977314827314203a080000000017160014b1901bb3febc5fa02d2e70301e84d4407d01fa89ffffffff320ae08edfcdd6da2d6870770fa3442da0ab25e0b6289205baa43e3dfbf5285e1800000017160014d9fb2e8ab262616afdbb7feb8ef2304521cfcd71fffffffff7414dc205319123a50a87371924bf052e3757264ebc4ca9c7638b0da275c11a00000000171600145d3b83ad13c7f928c247fb8f5aabdc925f17ab0effffffff02b4a947000000000017a914f55054fa256da4665c6d27be97a92a6e0af899a887fd430f000000000017a914ea645e5e20987adfaa9d5fa4a915d008965f1023870247304402200ecd74436f8b7a70f3a9860546cbb7552010a8e6812422232fda4f54facfe9e10220618dcd505d1f3ff2aa5b565401737516bc609e6a0c8a1c1e525a5eabd51a7416012103574f9e8c3322d4419ce0b15f1e3ff332445055a2bae03e2d8b5292a5d3e4dcd202483045022100817bf85c0a57218974d853ebaec70177cfb29738cf71256a6fd293fc9f59cab902201319890d061fb985655966fe6d85a9f25c8bf78a2df247267bf160f665f6df560121030b60c754d07ff3fc87b67ff90201e1650a4970e6c4d539edb5f99ca58386d4250247304402202934e964c64697224de62703d39dbd343b64b8e7480e2a6749e12d4438068d7902200d788a897e984bcb826fe08087d03adc05e6aeef9be1779b988f3df2b8f1ba8e01210352db4796c178cbc680bb820e850504fa3b572447576b28e98a5a297c7aac2de7024830450221008cacce461b498c9e86ef581d6f722d1038b61d93eab6afe3687ace75593bb622022071df6b0a9f8035f6ccea7ac1b42fd33b94e10f6e9787f70062854ab3a6dde846012102190976be669b47e3b1b69275c57c039678485e342c2ceecb0f0314e42e1ad8bb02483045022100faaa54e205daa0b6d96b7025e0d80a8becb307ad7ea7d0c1154755129080960802207429378f133483a913cff4b50e380b7eb6da9773048fd7cb5fc74b5487aebbe50121038e3582f8a14ea739eb6f81ee66a63d6f993f0b9755beb4ee75f999ade879187600000000", "vin": [{"txinwitness": ["304402200ecd74436f8b7a70f3a9860546cbb7552010a8e6812422232fda4f54facfe9e10220618dcd505d1f3ff2aa5b565401737516bc609e6a0c8a1c1e525a5eabd51a741601", "03574f9e8c3322d4419ce0b15f1e3ff332445055a2bae03e2d8b5292a5d3e4dcd2"], "sequence": 4294967295, "scriptSig": {"hex": "1600146433abea2aa8da153dc9db07210a1d5dfd483e78", "asm": "00146433abea2aa8da153dc9db07210a1d5dfd483e78"}, "vout": 0, "txid": "19d97298f97ec9c1de6f02a81c4eebaa54cceea1ac2ec699c90a82841f1c464e"}, {"txinwitness": ["3045022100817bf85c0a57218974d853ebaec70177cfb29738cf71256a6fd293fc9f59cab902201319890d061fb985655966fe6d85a9f25c8bf78a2df247267bf160f665f6df5601", "030b60c754d07ff3fc87b67ff90201e1650a4970e6c4d539edb5f99ca58386d425"], "sequence": 4294967295, "scriptSig": {"hex": "160014f9cf761b4c9fe05c2d4049f4f84d13348880593c", "asm": "0014f9cf761b4c9fe05c2d4049f4f84d13348880593c"}, "vout": 2, "txid": "5f822d3efbde91eb02f1a0e88570393c0e0267d094b297dce231f9260f77e856"}, {"txinwitness": ["304402202934e964c64697224de62703d39dbd343b64b8e7480e2a6749e12d4438068d7902200d788a897e984bcb826fe08087d03adc05e6aeef9be1779b988f3df2b8f1ba8e01", "0352db4796c178cbc680bb820e850504fa3b572447576b28e98a5a297c7aac2de7"], "sequence": 4294967295, "scriptSig": {"hex": "160014b1901bb3febc5fa02d2e70301e84d4407d01fa89", "asm": "0014b1901bb3febc5fa02d2e70301e84d4407d01fa89"}, "vout": 0, "txid": "083a2014738214739742007d7df987dc324761c59854196e282316ebb8ffff25"}, {"txinwitness": ["30450221008cacce461b498c9e86ef581d6f722d1038b61d93eab6afe3687ace75593bb622022071df6b0a9f8035f6ccea7ac1b42fd33b94e10f6e9787f70062854ab3a6dde84601", "02190976be669b47e3b1b69275c57c039678485e342c2ceecb0f0314e42e1ad8bb"], "sequence": 4294967295, "scriptSig": {"hex": "160014d9fb2e8ab262616afdbb7feb8ef2304521cfcd71", "asm": "0014d9fb2e8ab262616afdbb7feb8ef2304521cfcd71"}, "vout": 24, "txid": "5e28f5fb3d3ea4ba059228b6e025aba02d44a30f7770682ddad6cddf8ee00a32"}, {"txinwitness": ["3045022100faaa54e205daa0b6d96b7025e0d80a8becb307ad7ea7d0c1154755129080960802207429378f133483a913cff4b50e380b7eb6da9773048fd7cb5fc74b5487aebbe501", "038e3582f8a14ea739eb6f81ee66a63d6f993f0b9755beb4ee75f999ade8791876"], "sequence": 4294967295, "scriptSig": {"hex": "1600145d3b83ad13c7f928c247fb8f5aabdc925f17ab0e", "asm": "00145d3b83ad13c7f928c247fb8f5aabdc925f17ab0e"}, "vout": 0, "txid": "1ac175a20d8b63c7a94cbc4e2657372e05bf241937870aa523913105c24d41f7"}], "txid": "89479b1bd85b9ee959ef66a9577d4cb319320738694889ac5c8047fbeeed730e", "blocktime": 1537874412, "version": 2, "confirmations": 11468, "time": 1537874412, "locktime": 0, "vsize": 529, "size": 934}