{"hash": "8947871daefb3c3b046cd8a7e910c6b03625c0f367c7ea8b23d69ae153f639f8", "blockhash": "0000000000000000001cda96e906b7601b7a6fb1a3b62bca570a9e5d8f4b3de1", "vout": [{"scriptPubKey": {"reqSigs": 1, "hex": "76a914df56c7a1cbe85b248a6439ee337efd1b1cfb923888ac", "addresses": ["1MMueM2UbSBZ854Gbah4MbhUSHu7mdNunR"], "asm": "OP_DUP OP_HASH160 df56c7a1cbe85b248a6439ee337efd1b1cfb9238 OP_EQUALVERIFY OP_CHECKSIG", "type": "pubkeyhash"}, "value": 0.12935777, "n": 0}, {"scriptPubKey": {"reqSigs": 1, "hex": "a9142c8800df09935d1ed3737b14d1dc60d2ee123fa887", "addresses": ["35kUafc5UBfHBPzHmbJSd8hTVvwJGr1QM8"], "asm": "OP_HASH160 2c8800df09935d1ed3737b14d1dc60d2ee123fa8 OP_EQUAL", "type": "scripthash"}, "value": 0.00473151, "n": 1}], "hex": "010000000131c755ab8267b38f6b87545be187601dd956fcf93da08511cabc672e214cdd08010000006a4730440220013b89b1bc9c97e3fb93aba27ee38ae039555e7cf74a5d0a07b0c8cea48c619c022050e8bb1aae26067433c9580c8268c1d3d009f17b70ade9f3a7c1fb319f85add10121032cee148973685c5f2cfd17797de9ad51fd7ceede66b87ca8e3eb3d8171a397ceffffffff026162c500000000001976a914df56c7a1cbe85b248a6439ee337efd1b1cfb923888ac3f3807000000000017a9142c8800df09935d1ed3737b14d1dc60d2ee123fa88700000000", "vin": [{"sequence": 4294967295, "scriptSig": {"hex": "4730440220013b89b1bc9c97e3fb93aba27ee38ae039555e7cf74a5d0a07b0c8cea48c619c022050e8bb1aae26067433c9580c8268c1d3d009f17b70ade9f3a7c1fb319f85add10121032cee148973685c5f2cfd17797de9ad51fd7ceede66b87ca8e3eb3d8171a397ce", "asm": "30440220013b89b1bc9c97e3fb93aba27ee38ae039555e7cf74a5d0a07b0c8cea48c619c022050e8bb1aae26067433c9580c8268c1d3d009f17b70ade9f3a7c1fb319f85add1[ALL] 032cee148973685c5f2cfd17797de9ad51fd7ceede66b87ca8e3eb3d8171a397ce"}, "vout": 1, "txid": "08dd4c212e67bcca1185a03df9fc56d91d6087e15b54876b8fb36782ab55c731"}], "txid": "8947871daefb3c3b046cd8a7e910c6b03625c0f367c7ea8b23d69ae153f639f8", "blocktime": 1537873282, "version": 1, "confirmations": 11484, "time": 1537873282, "locktime": 0, "vsize": 223, "size": 223}