{"hash": "549fa160663d167cda7b0fc91ad083f3f2a93156dc859ea15f01a0e1bcf1a20f", "blockhash": "0000000000000000001f0ddff1eddb255c1121bcd4da4f1bc9a0da00cae72433", "vout": [{"scriptPubKey": {"reqSigs": 1, "hex": "a91457f800a4ba3acd9d68559849303712199664e0be87", "addresses": ["39i9okSLyFqDGxozbxEabf6FC6aLxnpCnv"], "asm": "OP_HASH160 57f800a4ba3acd9d68559849303712199664e0be OP_EQUAL", "type": "scripthash"}, "value": 0.00468675, "n": 0}, {"scriptPubKey": {"reqSigs": 1, "hex": "a914fadb463869f8c3a4256e94436ae0bd0b4f5a5f8687", "addresses": ["3QZRXwrxHVeAVdQi7bXaRmWj1ShnttRH2q"], "asm": "OP_HASH160 fadb463869f8c3a4256e94436ae0bd0b4f5a5f86 OP_EQUAL", "type": "scripthash"}, "value": 0.01073467, "n": 1}], "hex": "01000000000102bb85dd6aaac955c09f46b21caa1c07117063f8b5f3547b1448e0868fcc30d1620000000023220020f80d53306b776f3f7cc459027ecdbcbc35164adf04820023d0014c2717fe9d85ffffffff7d5a970260db2cf09fbcd6810d1917ccff8b621b91a5076313b7dcae8724ea810000000023220020863e8aba8094b686359d36c0bb27e4e430f41086959b04a36d8e0c2cfa7f528dffffffff02c32607000000000017a91457f800a4ba3acd9d68559849303712199664e0be873b6110000000000017a914fadb463869f8c3a4256e94436ae0bd0b4f5a5f868704004830450221009543bf88839ac848589a6cae4366e441d358d9a97c7bd5500ae0040bdd89e73e02204208aed515aa982cfbaae994feb1cd092ee8a4c5785251f19adc95d7a8abaec9014730440220396eff71b68673442de1390e66117c8980d109086c7872daafdabd9827609015022054b0331ab9f43286603470df65248aa6436f85e65afff0f53cafa7b35a565d71016952210303633f05a5ac21d3ab4871b572bda62c65c07ee28b135ff10f1f9166f2836f982102ac66146bdb75f7bb0eae4ac6d3a421de30076c34b23fd8367899302f1f78cf7e210313bde10e5710712941a3e95b0aab3144b78747d09ef156183c86e358f740213a53ae0400483045022100dadb8a36a2986888c466caff068b30eb502289506e816264dcd97da9057673e102205331e99040017ac121a8685eb42a904675cc748880d5c90e3443f89fbc54e80501483045022100926e6c2d4c7c1966faea5d762bead0d7851d54cc5640ac36e3479a5c33da5a630220640d4b7c3f1b343139c18646f5cbb8bfdc000d4786225cde25bf92239e5a51b1016952210202092af666bf75bf34efbdab09d2b4a6dc16d8c551864501c1497ea568dba9f02102079c2eddcd7dddd56148e8233bf901773d00dfab1daf9c30dd573c7bc7f356c12102a938fb48f407bbd9c2bfba1ce46eed09fbff8206950cffb0e96209646f8cb6f453ae12490800", "vin": [{"txinwitness": ["", "30450221009543bf88839ac848589a6cae4366e441d358d9a97c7bd5500ae0040bdd89e73e02204208aed515aa982cfbaae994feb1cd092ee8a4c5785251f19adc95d7a8abaec901", "30440220396eff71b68673442de1390e66117c8980d109086c7872daafdabd9827609015022054b0331ab9f43286603470df65248aa6436f85e65afff0f53cafa7b35a565d7101", "52210303633f05a5ac21d3ab4871b572bda62c65c07ee28b135ff10f1f9166f2836f982102ac66146bdb75f7bb0eae4ac6d3a421de30076c34b23fd8367899302f1f78cf7e210313bde10e5710712941a3e95b0aab3144b78747d09ef156183c86e358f740213a53ae"], "sequence": 4294967295, "scriptSig": {"hex": "220020f80d53306b776f3f7cc459027ecdbcbc35164adf04820023d0014c2717fe9d85", "asm": "0020f80d53306b776f3f7cc459027ecdbcbc35164adf04820023d0014c2717fe9d85"}, "vout": 0, "txid": "62d130cc8f86e048147b54f3b5f8637011071caa1cb2469fc055c9aa6add85bb"}, {"txinwitness": ["", "3045022100dadb8a36a2986888c466caff068b30eb502289506e816264dcd97da9057673e102205331e99040017ac121a8685eb42a904675cc748880d5c90e3443f89fbc54e80501", "3045022100926e6c2d4c7c1966faea5d762bead0d7851d54cc5640ac36e3479a5c33da5a630220640d4b7c3f1b343139c18646f5cbb8bfdc000d4786225cde25bf92239e5a51b101", "52210202092af666bf75bf34efbdab09d2b4a6dc16d8c551864501c1497ea568dba9f02102079c2eddcd7dddd56148e8233bf901773d00dfab1daf9c30dd573c7bc7f356c12102a938fb48f407bbd9c2bfba1ce46eed09fbff8206950cffb0e96209646f8cb6f453ae"], "sequence": 4294967295, "scriptSig": {"hex": "220020863e8aba8094b686359d36c0bb27e4e430f41086959b04a36d8e0c2cfa7f528d", "asm": "0020863e8aba8094b686359d36c0bb27e4e430f41086959b04a36d8e0c2cfa7f528d"}, "vout": 0, "txid": "81ea2487aedcb7136307a5911b628bffcc17190d81d6bc9ff02cdb6002975a7d"}], "txid": "89498d7e4e7bee1f64c232bdbaa673689b934455ff236ab9b0ad75b1c758ffd4", "blocktime": 1537872018, "version": 1, "confirmations": 11489, "time": 1537872018, "locktime": 542994, "vsize": 354, "size": 735}