{"hash": "5740b80cf5f38f8df35a1b0bac1677e6fa265d8bced294c7f4d3dceae753f417", "blockhash": "0000000000000000001f76057863aec43deb6fa401d9628bb513d65a8098bfab", "vout": [{"scriptPubKey": {"reqSigs": 1, "hex": "a9144ea82ced8ce27700727062bc7a47d9d7c993450287", "addresses": ["38rv6YZyGQLrYvT5Hp57tXStnNPUvEHrKo"], "asm": "OP_HASH160 4ea82ced8ce27700727062bc7a47d9d7c9934502 OP_EQUAL", "type": "scripthash"}, "value": 1.05, "n": 0}, {"scriptPubKey": {"reqSigs": 1, "hex": "a9142f1e60660c00c660a656c82773740e268187e78487", "addresses": ["35zA5AEQJdTywxN4HncW4ZQhfhJcG2Ph9y"], "asm": "OP_HASH160 2f1e60660c00c660a656c82773740e268187e784 OP_EQUAL", "type": "scripthash"}, "value": 2.36809332, "n": 1}], "hex": "01000000000101090b17f3f5a7ee95145ef31b0ecc8bc484a4b0918ad1995286ad6f032d500c96010000001716001425227a899f36b89c3cb765ecf708b999cb5aa2ccffffffff02402c42060000000017a9144ea82ced8ce27700727062bc7a47d9d7c993450287746c1d0e0000000017a9142f1e60660c00c660a656c82773740e268187e7848702483045022100b1df467c2f5fc14c8cc4813a1c3997ac14fe88e67fcb2884c2e2070526fa5924022049be2b33be46a89dae1292bd4c55e0750148a3cd7c0e38b69c54a8478089300c012102d9d4a761edc5fd36dee0ad8b98a64bad0dabfa71d8dfc720268d67ffbf5b2ee300000000", "vin": [{"txinwitness": ["3045022100b1df467c2f5fc14c8cc4813a1c3997ac14fe88e67fcb2884c2e2070526fa5924022049be2b33be46a89dae1292bd4c55e0750148a3cd7c0e38b69c54a8478089300c01", "02d9d4a761edc5fd36dee0ad8b98a64bad0dabfa71d8dfc720268d67ffbf5b2ee3"], "sequence": 4294967295, "scriptSig": {"hex": "16001425227a899f36b89c3cb765ecf708b999cb5aa2cc", "asm": "001425227a899f36b89c3cb765ecf708b999cb5aa2cc"}, "vout": 1, "txid": "960c502d036fad865299d18a91b0a484c48bcc0e1bf35e1495eea7f5f3170b09"}], "txid": "894e8ba4bd4a55fe2d7abe1c7d0a98792e37e5ea22ca23d38dc982e7afdb6976", "blocktime": 1537873891, "version": 1, "confirmations": 11478, "time": 1537873891, "locktime": 0, "vsize": 166, "size": 248}