{"hash": "7e05b6f04081a47edc84d3c1a100b66f849d108afc705a06de3a00e9313cae19", "blockhash": "00000000000000000024a2167bbff67b0be802c0b01cdd79e6331c2be6459f87", "vout": [{"scriptPubKey": {"reqSigs": 1, "hex": "a91434087ca4b540bd308f027d51d0ad5381c548a35587", "addresses": ["36S9ECTEFbh1jhEV1d8t3EPMHn53wvFHoi"], "asm": "OP_HASH160 34087ca4b540bd308f027d51d0ad5381c548a355 OP_EQUAL", "type": "scripthash"}, "value": 0.01, "n": 0}, {"scriptPubKey": {"reqSigs": 1, "hex": "00149bd8e57ca49fd33c89d2dcaeda60230926a1285a", "addresses": ["bc1qn0vw2l9ynlfnezwjmjhd5cprpyn2z2z6ay2zur"], "asm": "0 9bd8e57ca49fd33c89d2dcaeda60230926a1285a", "type": "witness_v0_keyhash"}, "value": 0.00027206, "n": 1}], "hex": "0100000000010115eeb62b52304731aafcc31fd762b9e41e0834b294dee4fbfc495b74e7f2d24a0000000000ffffffff0240420f000000000017a91434087ca4b540bd308f027d51d0ad5381c548a35587466a0000000000001600149bd8e57ca49fd33c89d2dcaeda60230926a1285a0247304402207c48b7927ea7ddf7d6a60fcb982866bb692d3cc4573786827103c9a65df3f95a022043f59ab65409d4b47c0110b47cbc83360d83e387b44abe97f154137e3fd8a0e1012103cbe5d9fee8c541f629b4cb64141279dc3372b3f69722f69fd4959bafb094208400000000", "vin": [{"txinwitness": ["304402207c48b7927ea7ddf7d6a60fcb982866bb692d3cc4573786827103c9a65df3f95a022043f59ab65409d4b47c0110b47cbc83360d83e387b44abe97f154137e3fd8a0e101", "03cbe5d9fee8c541f629b4cb64141279dc3372b3f69722f69fd4959bafb0942084"], "sequence": 4294967295, "scriptSig": {"hex": "", "asm": ""}, "vout": 0, "txid": "4ad2f2e7745b49fcfbe4de94b234081ee4b962d71fc3fcaa314730522bb6ee15"}], "txid": "89596299bb6068ad62abd5fa9227f5832474e7e0767a46e3246e0169ac0c9dae", "blocktime": 1537870564, "version": 1, "confirmations": 11515, "time": 1537870564, "locktime": 0, "vsize": 142, "size": 223}