{"hash": "108e381e71cfab683d97e7c5818df21c5d95134553514f0d5fe393a79d13e9fc", "blockhash": "0000000000000000001cda96e906b7601b7a6fb1a3b62bca570a9e5d8f4b3de1", "vout": [{"scriptPubKey": {"reqSigs": 1, "hex": "76a9141bc4f1095ebbc2f79969b7b268adc4578c7b663f88ac", "addresses": ["13XqAvFfnMLaa6UHRfSDmMREyQoYTEkqDy"], "asm": "OP_DUP OP_HASH160 1bc4f1095ebbc2f79969b7b268adc4578c7b663f OP_EQUALVERIFY OP_CHECKSIG", "type": "pubkeyhash"}, "value": 0.055, "n": 0}, {"scriptPubKey": {"reqSigs": 1, "hex": "a91469f375e153515930472fb1a7bcb6922f2cb9628387", "addresses": ["3BMEXcgDEWta5req9sUAfQ4KZoTk7Jeoi5"], "asm": "OP_HASH160 69f375e153515930472fb1a7bcb6922f2cb96283 OP_EQUAL", "type": "scripthash"}, "value": 0.0711, "n": 1}, {"scriptPubKey": {"reqSigs": 1, "hex": "a914d94c12d93a2a9ae1b4e4e792b769f3caeaa728ff87", "addresses": ["3MVygrni6LEzZUGh2WLY7e6BAHi1Z7xt3S"], "asm": "OP_HASH160 d94c12d93a2a9ae1b4e4e792b769f3caeaa728ff OP_EQUAL", "type": "scripthash"}, "value": 0.042, "n": 2}, {"scriptPubKey": {"reqSigs": 1, "hex": "76a9147ae8f68ee077b459dd86beb7cc499501b4d8278b88ac", "addresses": ["1CCtWxwZEyQxR84TqWw2aAt8cuKU6NB9V4"], "asm": "OP_DUP OP_HASH160 7ae8f68ee077b459dd86beb7cc499501b4d8278b OP_EQUALVERIFY OP_CHECKSIG", "type": "pubkeyhash"}, "value": 0.25, "n": 3}, {"scriptPubKey": {"reqSigs": 1, "hex": "0020701a8d401c84fb13e6baf169d59684e17abd9fa216c8cc5b9fc63d622ff8c58d", "addresses": ["bc1qwqdg6squsna38e46795at95yu9atm8azzmyvckulcc7kytlcckxswvvzej"], "asm": "0 701a8d401c84fb13e6baf169d59684e17abd9fa216c8cc5b9fc63d622ff8c58d", "type": "witness_v0_scripthash"}, "value": 1.377185, "n": 4}], "hex": "01000000000101302653fa67059ec36155907e79995f26c1e98bf0a9a64ccbee1205a0a9c07f6c0100000000ffffffff0560ec5300000000001976a9141bc4f1095ebbc2f79969b7b268adc4578c7b663f88ac707d6c000000000017a91469f375e153515930472fb1a7bcb6922f2cb9628387401640000000000017a914d94c12d93a2a9ae1b4e4e792b769f3caeaa728ff8740787d01000000001976a9147ae8f68ee077b459dd86beb7cc499501b4d8278b88ace46a350800000000220020701a8d401c84fb13e6baf169d59684e17abd9fa216c8cc5b9fc63d622ff8c58d040047304402204f07d5f9165cb4f72d8eebd42c34c88fffaed4eadefb4caa6c1045b7a7010ec1022052f05a67a8aa0437414c6bc97a760871f0f90ebb57f43545668ee74a59b4922501483045022100dca0f00435a800ee098990a0f890cbaf2c6ccc22a2dbd70c405e6ebef2820a2502206fbeecdc0dd8a15732d9147592dc99f061104d7fe9fbf4343d3a52b6d6b6ad96016952210375e00eb72e29da82b89367947f29ef34afb75e8654f6ea368e0acdfd92976b7c2103a1b26313f430c4b15bb1fdce663207659d8cac749a0e53d70eff01874496feff2103c96d495bfdd5ba4145e3e046fee45e84a8a48ad05bd8dbb395c011a32cf9f88053ae00000000", "vin": [{"txinwitness": ["", "304402204f07d5f9165cb4f72d8eebd42c34c88fffaed4eadefb4caa6c1045b7a7010ec1022052f05a67a8aa0437414c6bc97a760871f0f90ebb57f43545668ee74a59b4922501", "3045022100dca0f00435a800ee098990a0f890cbaf2c6ccc22a2dbd70c405e6ebef2820a2502206fbeecdc0dd8a15732d9147592dc99f061104d7fe9fbf4343d3a52b6d6b6ad9601", "52210375e00eb72e29da82b89367947f29ef34afb75e8654f6ea368e0acdfd92976b7c2103a1b26313f430c4b15bb1fdce663207659d8cac749a0e53d70eff01874496feff2103c96d495bfdd5ba4145e3e046fee45e84a8a48ad05bd8dbb395c011a32cf9f88053ae"], "sequence": 4294967295, "scriptSig": {"hex": "", "asm": ""}, "vout": 1, "txid": "6c7fc0a9a00512eecb4ca6a9f08be9c1265f99797e905561c39e0567fa532630"}], "txid": "895affad5c0c4fdc7cdd6c17eb37ad1065fb540c00ad088df6daca946b4b7096", "blocktime": 1537873282, "version": 1, "confirmations": 11480, "time": 1537873282, "locktime": 0, "vsize": 290, "size": 481}