{"hash": "895a21c25e2d465a38336ab2ea4eeaf8ddfdc476297ab7b48d899dda923120fa", "blockhash": "000000000000000000022b45ed06c6f4ccd3cf7fb5ba4856ebd2e58215665228", "vout": [{"scriptPubKey": {"reqSigs": 1, "hex": "76a9149db912c2476a7fbdb63d211e9f3989b6863a67ad88ac", "addresses": ["1FNxoEaVg9qMrLQTtazD2WzrXQFPzbfo8A"], "asm": "OP_DUP OP_HASH160 9db912c2476a7fbdb63d211e9f3989b6863a67ad OP_EQUALVERIFY OP_CHECKSIG", "type": "pubkeyhash"}, "value": 8.97152469, "n": 0}, {"scriptPubKey": {"reqSigs": 1, "hex": "76a9147868f438c3d9500edaf61db309472add55f596fc88ac", "addresses": ["1ByfpMM6ER6yZzJJirMxRxnWHdede5r79b"], "asm": "OP_DUP OP_HASH160 7868f438c3d9500edaf61db309472add55f596fc OP_EQUALVERIFY OP_CHECKSIG", "type": "pubkeyhash"}, "value": 0.00992139, "n": 1}], "hex": "010000000115c83e7b1a29f13863a4b878f2256394ab8fc19c06750b4d17da0025f3300a8e010000006b48304502210092a873ee0e2a6a3cfdbdc862b838e2ddf0853216b2f68a526449515a52b642df02204f28ef14616463934460fc5cc6d9bad42a16f79e9c48982ebbdde72604771f86012103b034c576996d58b9eb24c0f6a0ba5480594afb731297a767dcd6787e1c368456ffffffff02d5757935000000001976a9149db912c2476a7fbdb63d211e9f3989b6863a67ad88ac8b230f00000000001976a9147868f438c3d9500edaf61db309472add55f596fc88ac00000000", "vin": [{"sequence": 4294967295, "scriptSig": {"hex": "48304502210092a873ee0e2a6a3cfdbdc862b838e2ddf0853216b2f68a526449515a52b642df02204f28ef14616463934460fc5cc6d9bad42a16f79e9c48982ebbdde72604771f86012103b034c576996d58b9eb24c0f6a0ba5480594afb731297a767dcd6787e1c368456", "asm": "304502210092a873ee0e2a6a3cfdbdc862b838e2ddf0853216b2f68a526449515a52b642df02204f28ef14616463934460fc5cc6d9bad42a16f79e9c48982ebbdde72604771f86[ALL] 03b034c576996d58b9eb24c0f6a0ba5480594afb731297a767dcd6787e1c368456"}, "vout": 1, "txid": "8e0a30f32500da174d0b75069cc18fab946325f278b8a46338f1291a7b3ec815"}], "txid": "895a21c25e2d465a38336ab2ea4eeaf8ddfdc476297ab7b48d899dda923120fa", "blocktime": 1537869901, "version": 1, "confirmations": 11522, "time": 1537869901, "locktime": 0, "vsize": 226, "size": 226}