{"hash": "8961cc306a8029313ba491345927faf1391694339a9b5408aef95391c39436d2", "blockhash": "00000000000000000004ffacab907a6b429b9a5745fa0b75af4234bf69dd7176", "vout": [{"scriptPubKey": {"reqSigs": 1, "hex": "76a914a5934a3850f4a3d74fa44a2891556af6245f4d4d88ac", "addresses": ["1G6UwY3Qmz5F1oUqtBFMUGQLxdVEeRdaaX"], "asm": "OP_DUP OP_HASH160 a5934a3850f4a3d74fa44a2891556af6245f4d4d OP_EQUALVERIFY OP_CHECKSIG", "type": "pubkeyhash"}, "value": 0.02444955, "n": 0}, {"scriptPubKey": {"reqSigs": 1, "hex": "a9142a584de9827ca8e11da52e65aaff2a340869954a87", "addresses": ["35Yv66QbX9ANCbATHpb8pJ9yNtNkfYujYj"], "asm": "OP_HASH160 2a584de9827ca8e11da52e65aaff2a340869954a OP_EQUAL", "type": "scripthash"}, "value": 0.16, "n": 1}], "hex": "0100000003374cd228db810b39e54621588f38337c9603b02acfdb9fd1f4f0327f8c99243d2b0000006b483045022100c2a276a4413e2d1bf55a8e5c18e42fe9bef3b29ae905a3695221e02d5d6503240220189e63cb20b2ba9b0087065d3d00734e25b33f81689e354c925de6f3be2b42d80121021be3a2aea6242337226823e31ad9340e31aca1b63c73efc170b201ebad0b023fffffffffc409d2e22be59a356c1108bd1d764812486acd07291b8f9c86adba7e87188651000000006b483045022100cca834d118c62fd925d58f3522f691409e43d24c195ec7f58ea5111bfc468d2f022047bd16b5eafaea40f0932ccb793485db2714fa7ae47c562d2d1656c894d7784e0121021be3a2aea6242337226823e31ad9340e31aca1b63c73efc170b201ebad0b023fffffffff2dc3ab56cd4963b3b8da87f20f30c20d5a8e9894533b88766ce3422810817bc2020000006a47304402205b28c1fdf0384a3b99d72c355ca419536600cb9463d9784ee2eed8a5ccd59db20220560f494a36c1e6353ac75973e1607c15368369913c2e099986ea2f2c2869c66e0121021be3a2aea6242337226823e31ad9340e31aca1b63c73efc170b201ebad0b023fffffffff029b4e2500000000001976a914a5934a3850f4a3d74fa44a2891556af6245f4d4d88ac0024f4000000000017a9142a584de9827ca8e11da52e65aaff2a340869954a8700000000", "vin": [{"sequence": 4294967295, "scriptSig": {"hex": "483045022100c2a276a4413e2d1bf55a8e5c18e42fe9bef3b29ae905a3695221e02d5d6503240220189e63cb20b2ba9b0087065d3d00734e25b33f81689e354c925de6f3be2b42d80121021be3a2aea6242337226823e31ad9340e31aca1b63c73efc170b201ebad0b023f", "asm": "3045022100c2a276a4413e2d1bf55a8e5c18e42fe9bef3b29ae905a3695221e02d5d6503240220189e63cb20b2ba9b0087065d3d00734e25b33f81689e354c925de6f3be2b42d8[ALL] 021be3a2aea6242337226823e31ad9340e31aca1b63c73efc170b201ebad0b023f"}, "vout": 43, "txid": "3d24998c7f32f0f4d19fdbcf2ab003967c33388f582146e5390b81db28d24c37"}, {"sequence": 4294967295, "scriptSig": {"hex": "483045022100cca834d118c62fd925d58f3522f691409e43d24c195ec7f58ea5111bfc468d2f022047bd16b5eafaea40f0932ccb793485db2714fa7ae47c562d2d1656c894d7784e0121021be3a2aea6242337226823e31ad9340e31aca1b63c73efc170b201ebad0b023f", "asm": "3045022100cca834d118c62fd925d58f3522f691409e43d24c195ec7f58ea5111bfc468d2f022047bd16b5eafaea40f0932ccb793485db2714fa7ae47c562d2d1656c894d7784e[ALL] 021be3a2aea6242337226823e31ad9340e31aca1b63c73efc170b201ebad0b023f"}, "vout": 0, "txid": "518618877ebaad869c8f1b2907cd6a481248761dbd08116c359ae52be2d209c4"}, {"sequence": 4294967295, "scriptSig": {"hex": "47304402205b28c1fdf0384a3b99d72c355ca419536600cb9463d9784ee2eed8a5ccd59db20220560f494a36c1e6353ac75973e1607c15368369913c2e099986ea2f2c2869c66e0121021be3a2aea6242337226823e31ad9340e31aca1b63c73efc170b201ebad0b023f", "asm": "304402205b28c1fdf0384a3b99d72c355ca419536600cb9463d9784ee2eed8a5ccd59db20220560f494a36c1e6353ac75973e1607c15368369913c2e099986ea2f2c2869c66e[ALL] 021be3a2aea6242337226823e31ad9340e31aca1b63c73efc170b201ebad0b023f"}, "vout": 2, "txid": "c27b81102842e36c76883b5394988e5a0dc2300ff287dab8b36349cd56abc32d"}], "txid": "8961cc306a8029313ba491345927faf1391694339a9b5408aef95391c39436d2", "blocktime": 1537875543, "version": 1, "confirmations": 11464, "time": 1537875543, "locktime": 0, "vsize": 519, "size": 519}