{"hash": "47a369cc99973775e090ccd32b6d9482512d0e86de6e2534c41d848d5d299156", "blockhash": "0000000000000000001e0dab787dd257d1dbfcb92a98c2207d5e1078be1f4165", "vout": [{"scriptPubKey": {"reqSigs": 1, "hex": "a914caff16d00b79b829c305e83956ea278093c2552e87", "addresses": ["3LCN1CJfNxTCeKoPJMdWPGGfgvN9v4WsZ3"], "asm": "OP_HASH160 caff16d00b79b829c305e83956ea278093c2552e OP_EQUAL", "type": "scripthash"}, "value": 0.01564354, "n": 0}, {"scriptPubKey": {"reqSigs": 1, "hex": "a914cbfc49af56158cc3a379c0066290e22c699136b587", "addresses": ["3LHbKkXEHdBYBg8RnopYCcgu7PyyZYyK9a"], "asm": "OP_HASH160 cbfc49af56158cc3a379c0066290e22c699136b5 OP_EQUAL", "type": "scripthash"}, "value": 0.01002641, "n": 1}], "hex": "020000000001042abade5af783c0151286b1e3bad3122ad3fab9a0bba7d37c7a490799fdf8d64a01000000171600142eb9a22bbfe243f4b08f19f0272205868f20052afeffffffe80fe32e16689d1d88bdd2ecca87ab72af95e1d50da698492197da3672378e7b1500000017160014db84aa376711fea0e8486c5603121e44180d4e6dfeffffffea129613ed8e2ccb6bba7fc5180f84963fc620a6eed8d078a9b78e3cb61100c9010000001716001402ea2f0509265dc4bd037b3d9326048dc8ebf0ddfeffffffedd6817c2ace431b30576489f4eee29a18c40fd20c2280aa18d2f0ea1a469e460000000017160014b2472db6a038730d49aad03477f520f859720cdbfeffffff02c2de17000000000017a914caff16d00b79b829c305e83956ea278093c2552e87914c0f000000000017a914cbfc49af56158cc3a379c0066290e22c699136b5870247304402203a0d29a0f359c5c6e5cff7cac874a5d31cd05b052f6ad1faa919aa72eb80a31302206ef23e934b76e19514be8c62f3feeb0ee25b4434b1192f355328733e172c0b580121028e7118f37a96759acb2a236aa07d20272a36cb07831f9a8dcee9748d7cb0b06e02473044022071ab3bb8d9b8e628d1651df7fd8fa9bba9a0b019c8fa99794485585ae321f7e3022006b182e4075ba4fd317a2a9d9f8fd2cb52c4ffb37eae4ebad387f128b0fc5342012103a4cc1d2865110d7a613be168705c891929e9c4f3f243c40bc48df08f04dac1dd024730440220616be1a637e414187c7f3b8cef24e95a4686beb9976945efc6289f298c23e4c7022017896e8c7856ba92077cdd8e942bd0fe1d95bae935693879b159b5c4038b6d180121029b3c14ff2296b1d4f8503c35a9dc00714175bb4f7846d33ce7ef81ce5686b93c02473044022055f1a81df4461dce72b2db0af3c20102720eb18a3259da0e6938c0dedaadcf2e022025255b810eb3e44fab16274195a90c0124de568f300d6e0752a2e785b728b19f01210252f12deae35e4ec87695f7b25b5e996f50abfc25301f6717068f0b61dd17eb3d00000000", "vin": [{"txinwitness": ["304402203a0d29a0f359c5c6e5cff7cac874a5d31cd05b052f6ad1faa919aa72eb80a31302206ef23e934b76e19514be8c62f3feeb0ee25b4434b1192f355328733e172c0b5801", "028e7118f37a96759acb2a236aa07d20272a36cb07831f9a8dcee9748d7cb0b06e"], "sequence": 4294967294, "scriptSig": {"hex": "1600142eb9a22bbfe243f4b08f19f0272205868f20052a", "asm": "00142eb9a22bbfe243f4b08f19f0272205868f20052a"}, "vout": 1, "txid": "4ad6f8fd9907497a7cd3a7bba0b9fad32a12d3bae3b1861215c083f75adeba2a"}, {"txinwitness": ["3044022071ab3bb8d9b8e628d1651df7fd8fa9bba9a0b019c8fa99794485585ae321f7e3022006b182e4075ba4fd317a2a9d9f8fd2cb52c4ffb37eae4ebad387f128b0fc534201", "03a4cc1d2865110d7a613be168705c891929e9c4f3f243c40bc48df08f04dac1dd"], "sequence": 4294967294, "scriptSig": {"hex": "160014db84aa376711fea0e8486c5603121e44180d4e6d", "asm": "0014db84aa376711fea0e8486c5603121e44180d4e6d"}, "vout": 21, "txid": "7b8e377236da97214998a60dd5e195af72ab87caecd2bd881d9d68162ee30fe8"}, {"txinwitness": ["30440220616be1a637e414187c7f3b8cef24e95a4686beb9976945efc6289f298c23e4c7022017896e8c7856ba92077cdd8e942bd0fe1d95bae935693879b159b5c4038b6d1801", "029b3c14ff2296b1d4f8503c35a9dc00714175bb4f7846d33ce7ef81ce5686b93c"], "sequence": 4294967294, "scriptSig": {"hex": "16001402ea2f0509265dc4bd037b3d9326048dc8ebf0dd", "asm": "001402ea2f0509265dc4bd037b3d9326048dc8ebf0dd"}, "vout": 1, "txid": "c90011b63c8eb7a978d0d8eea620c63f96840f18c57fba6bcb2c8eed139612ea"}, {"txinwitness": ["3044022055f1a81df4461dce72b2db0af3c20102720eb18a3259da0e6938c0dedaadcf2e022025255b810eb3e44fab16274195a90c0124de568f300d6e0752a2e785b728b19f01", "0252f12deae35e4ec87695f7b25b5e996f50abfc25301f6717068f0b61dd17eb3d"], "sequence": 4294967294, "scriptSig": {"hex": "160014b2472db6a038730d49aad03477f520f859720cdb", "asm": "0014b2472db6a038730d49aad03477f520f859720cdb"}, "vout": 0, "txid": "469e461aeaf0d218aa80220cd20fc4189ae2eef4896457301b43ce2a7c81d6ed"}], "txid": "89623e223df628d0d144171771fa953beeb342583bf3a8a97fdb891836e5bd8d", "blocktime": 1537872475, "version": 2, "confirmations": 11487, "time": 1537872475, "locktime": 0, "vsize": 438, "size": 760}