{"hash": "896788b7ba5bccf86375670cc245e1b6946a3c091fd04b473636b18e83564e7c", "blockhash": "0000000000000000000e13cef7c366c0283d82e591d1acd082e914b08063cdf1", "vout": [{"scriptPubKey": {"reqSigs": 1, "hex": "76a914064db2d84d395a6d4ec7bf5dbd2fef87a483184488ac", "addresses": ["1aL8kE3hGqe2wZSeWYggU3cGdoNGghQUN"], "asm": "OP_DUP OP_HASH160 064db2d84d395a6d4ec7bf5dbd2fef87a4831844 OP_EQUALVERIFY OP_CHECKSIG", "type": "pubkeyhash"}, "value": 5.46e-06, "n": 0}, {"scriptPubKey": {"type": "nulldata", "hex": "6a146f6d6e69000000000000001f00002460fe2fb600", "asm": "OP_RETURN 6f6d6e69000000000000001f00002460fe2fb600"}, "value": 0.0, "n": 1}, {"scriptPubKey": {"reqSigs": 1, "hex": "76a914a520c86a08366941cd90d22e11ac1c7eefa2db3788ac", "addresses": ["1G47mSr3oANXMafVrR8UC4pzV7FEAzo3r9"], "asm": "OP_DUP OP_HASH160 a520c86a08366941cd90d22e11ac1c7eefa2db37 OP_EQUALVERIFY OP_CHECKSIG", "type": "pubkeyhash"}, "value": 1.03735658, "n": 2}], "hex": "01000000014e82cef7e88a61672054b97bcbc8c0001929a2be4512583d170c0db30b286e05010000006b483045022100c54510b284417ca116bcbb1f633b5b9154079eaf97f22d50ec32203bed5f0bb902202f12a10dd91e56197dbbd9b43d71f6a756abab8d3c4499c16d09d77bbbd03980012103f3f44c9e80e2cedc1a2909631a3adea8866ee32187f74d0912387359b0ff36a2ffffffff0322020000000000001976a914064db2d84d395a6d4ec7bf5dbd2fef87a483184488ac0000000000000000166a146f6d6e69000000000000001f00002460fe2fb6006ae12e06000000001976a914a520c86a08366941cd90d22e11ac1c7eefa2db3788ac00000000", "vin": [{"sequence": 4294967295, "scriptSig": {"hex": "483045022100c54510b284417ca116bcbb1f633b5b9154079eaf97f22d50ec32203bed5f0bb902202f12a10dd91e56197dbbd9b43d71f6a756abab8d3c4499c16d09d77bbbd03980012103f3f44c9e80e2cedc1a2909631a3adea8866ee32187f74d0912387359b0ff36a2", "asm": "3045022100c54510b284417ca116bcbb1f633b5b9154079eaf97f22d50ec32203bed5f0bb902202f12a10dd91e56197dbbd9b43d71f6a756abab8d3c4499c16d09d77bbbd03980[ALL] 03f3f44c9e80e2cedc1a2909631a3adea8866ee32187f74d0912387359b0ff36a2"}, "vout": 1, "txid": "056e280bb30d0c173d581245bea2291900c0c8cb7bb9542067618ae8f7ce824e"}], "txid": "896788b7ba5bccf86375670cc245e1b6946a3c091fd04b473636b18e83564e7c", "blocktime": 1537871767, "version": 1, "confirmations": 11491, "time": 1537871767, "locktime": 0, "vsize": 257, "size": 257}