{"hash": "8967b65ecac930f248628f1390f401b004cb7de8ca01c332120b88e5c9298aa9", "blockhash": "0000000000000000001f76057863aec43deb6fa401d9628bb513d65a8098bfab", "vout": [{"scriptPubKey": {"reqSigs": 1, "hex": "a9144cb72ca03d4bc711788be6fd73dcf8d03741d0a087", "addresses": ["38geiJDsSTbYvH8qHdbfx1zU35CwkwAYrm"], "asm": "OP_HASH160 4cb72ca03d4bc711788be6fd73dcf8d03741d0a0 OP_EQUAL", "type": "scripthash"}, "value": 0.0025806, "n": 0}, {"scriptPubKey": {"reqSigs": 1, "hex": "a914062b5509e2eca513bf4761665571b9bc56aa676187", "addresses": ["32FdtU52duxkwGGSRJ5NuLqYUi2qJfqot1"], "asm": "OP_HASH160 062b5509e2eca513bf4761665571b9bc56aa6761 OP_EQUAL", "type": "scripthash"}, "value": 0.11288474, "n": 1}], "hex": "010000000161c02b1e08ab8131b91f270813dbede7ac636747e2fd7f24288d8115b34a0ca901000000d9004730440220388a3e64e47fac32188b490cecb5b72dfc2b780feb84167c3429897520c24b3d02203b3b52477d28ae025e26cc200d3b170748fde43ddc919ee4e6a709d58cbb114501473044022062b85c58d3035b11715edfe7d240a65a217394358e09f8a52ad9e705edcc76b102205ca4c6fa4b4a3f1bf63c6d9da0c9b008183a8a73b40719fab7002f562c9cdfab0147522103abc8a801f5fbb4fd5f6510ba530d534b0efb584b4298cea1e6e2d45cd1000aef2102a29577404fa42d6d12e0d867249d4ee805afecc9e10879ed668da9958dc7b65052aeffffffff020cf003000000000017a9144cb72ca03d4bc711788be6fd73dcf8d03741d0a0879a3fac000000000017a914062b5509e2eca513bf4761665571b9bc56aa67618700000000", "vin": [{"sequence": 4294967295, "scriptSig": {"hex": "004730440220388a3e64e47fac32188b490cecb5b72dfc2b780feb84167c3429897520c24b3d02203b3b52477d28ae025e26cc200d3b170748fde43ddc919ee4e6a709d58cbb114501473044022062b85c58d3035b11715edfe7d240a65a217394358e09f8a52ad9e705edcc76b102205ca4c6fa4b4a3f1bf63c6d9da0c9b008183a8a73b40719fab7002f562c9cdfab0147522103abc8a801f5fbb4fd5f6510ba530d534b0efb584b4298cea1e6e2d45cd1000aef2102a29577404fa42d6d12e0d867249d4ee805afecc9e10879ed668da9958dc7b65052ae", "asm": "0 30440220388a3e64e47fac32188b490cecb5b72dfc2b780feb84167c3429897520c24b3d02203b3b52477d28ae025e26cc200d3b170748fde43ddc919ee4e6a709d58cbb1145[ALL] 3044022062b85c58d3035b11715edfe7d240a65a217394358e09f8a52ad9e705edcc76b102205ca4c6fa4b4a3f1bf63c6d9da0c9b008183a8a73b40719fab7002f562c9cdfab[ALL] 522103abc8a801f5fbb4fd5f6510ba530d534b0efb584b4298cea1e6e2d45cd1000aef2102a29577404fa42d6d12e0d867249d4ee805afecc9e10879ed668da9958dc7b65052ae"}, "vout": 1, "txid": "a90c4ab315818d28247ffde2476763ace7eddb1308271fb93181ab081e2bc061"}], "txid": "8967b65ecac930f248628f1390f401b004cb7de8ca01c332120b88e5c9298aa9", "blocktime": 1537873891, "version": 1, "confirmations": 11478, "time": 1537873891, "locktime": 0, "vsize": 332, "size": 332}