{"hash": "896903f74e3daf29a2bcdb5ee030378c65a30eb9a406f6a9f12fd3b440e3b355", "blockhash": "000000000000000000022b45ed06c6f4ccd3cf7fb5ba4856ebd2e58215665228", "vout": [{"scriptPubKey": {"reqSigs": 1, "hex": "76a914a5942aeed18fc4ccbc5afb6da505e5d6fc0c4b6988ac", "addresses": ["1G6VzXSGmnMcWTVR8MEBMMKhSGBVbgB9Co"], "asm": "OP_DUP OP_HASH160 a5942aeed18fc4ccbc5afb6da505e5d6fc0c4b69 OP_EQUALVERIFY OP_CHECKSIG", "type": "pubkeyhash"}, "value": 0.02998921, "n": 0}], "hex": "0100000002fba36d4af119a92e9390335b394252cbde01a124b3f11369de9819162e8b277400000000fdfe0000483045022100afd6ab837234083c3f87ee4b9ef6a50667dc2350cc664c3f0d31fcf2a807f7f9022078005315e0e4d597a09b295293865249ea7611ff43318a677adf0a7fb30eb8d101483045022100b418820c78a3c0da81dbf335da52918433aee56be76e3d9ec27a3a5944b751820220674bb8be4d832cd8be84d226c38f4ac441698f1b9638c8e00fb7efad2da5f3f0014c695221032a8c5af8e6a96028c7fe36d2205427bb4b4b93c8aa31aa90fc0e1cb388eb81a52103df4378b7f32964b0f7254d72d5f01a0eb444b4bd6368000c688850ee7c82a5292103fa69c7753abefd606fb9b340d75dc1f1f8a6685a91a8a6dc050adc3d83740d7253aefdffffff17791767e0bc3b4ce25a3b567cc2261340fc203ff8b6489f4ada622cf463d1bf03000000fdfd000047304402203d3c47076ecab33e915638848521cd655fc20efab5950866a04b854e49dda13f02202615ecabc1ccf64f11cc06726a54cae83c3d37dac7ccd05e95f9ecd47bf40aba01483045022100961a394f22d23b793eebf21c96a419cc97f7ee238ff730bbde60f62047d4a8f5022021e895dac0da1952ca2d8cb14a351be35ee1818d3dc4f3bcee5b227446d86075014c69522102e2d85a4fc208063f1b8219474ac193b406c77ebbff8c10e1268790054bcbfddd210304eac3ad3c2a356116db3e8407ee2d753a49447870e3f38e5f72c90f716a9bfb21037c257706bcaeefd6437825086429b40d154b400f0cef5e08dca5f48c1126976653aefdffffff0189c22d00000000001976a914a5942aeed18fc4ccbc5afb6da505e5d6fc0c4b6988ac0b490800", "vin": [{"sequence": 4294967293, "scriptSig": {"hex": "00483045022100afd6ab837234083c3f87ee4b9ef6a50667dc2350cc664c3f0d31fcf2a807f7f9022078005315e0e4d597a09b295293865249ea7611ff43318a677adf0a7fb30eb8d101483045022100b418820c78a3c0da81dbf335da52918433aee56be76e3d9ec27a3a5944b751820220674bb8be4d832cd8be84d226c38f4ac441698f1b9638c8e00fb7efad2da5f3f0014c695221032a8c5af8e6a96028c7fe36d2205427bb4b4b93c8aa31aa90fc0e1cb388eb81a52103df4378b7f32964b0f7254d72d5f01a0eb444b4bd6368000c688850ee7c82a5292103fa69c7753abefd606fb9b340d75dc1f1f8a6685a91a8a6dc050adc3d83740d7253ae", "asm": "0 3045022100afd6ab837234083c3f87ee4b9ef6a50667dc2350cc664c3f0d31fcf2a807f7f9022078005315e0e4d597a09b295293865249ea7611ff43318a677adf0a7fb30eb8d1[ALL] 3045022100b418820c78a3c0da81dbf335da52918433aee56be76e3d9ec27a3a5944b751820220674bb8be4d832cd8be84d226c38f4ac441698f1b9638c8e00fb7efad2da5f3f0[ALL] 5221032a8c5af8e6a96028c7fe36d2205427bb4b4b93c8aa31aa90fc0e1cb388eb81a52103df4378b7f32964b0f7254d72d5f01a0eb444b4bd6368000c688850ee7c82a5292103fa69c7753abefd606fb9b340d75dc1f1f8a6685a91a8a6dc050adc3d83740d7253ae"}, "vout": 0, "txid": "74278b2e161998de6913f1b324a101decb5242395b3390932ea919f14a6da3fb"}, {"sequence": 4294967293, "scriptSig": {"hex": "0047304402203d3c47076ecab33e915638848521cd655fc20efab5950866a04b854e49dda13f02202615ecabc1ccf64f11cc06726a54cae83c3d37dac7ccd05e95f9ecd47bf40aba01483045022100961a394f22d23b793eebf21c96a419cc97f7ee238ff730bbde60f62047d4a8f5022021e895dac0da1952ca2d8cb14a351be35ee1818d3dc4f3bcee5b227446d86075014c69522102e2d85a4fc208063f1b8219474ac193b406c77ebbff8c10e1268790054bcbfddd210304eac3ad3c2a356116db3e8407ee2d753a49447870e3f38e5f72c90f716a9bfb21037c257706bcaeefd6437825086429b40d154b400f0cef5e08dca5f48c1126976653ae", "asm": "0 304402203d3c47076ecab33e915638848521cd655fc20efab5950866a04b854e49dda13f02202615ecabc1ccf64f11cc06726a54cae83c3d37dac7ccd05e95f9ecd47bf40aba[ALL] 3045022100961a394f22d23b793eebf21c96a419cc97f7ee238ff730bbde60f62047d4a8f5022021e895dac0da1952ca2d8cb14a351be35ee1818d3dc4f3bcee5b227446d86075[ALL] 522102e2d85a4fc208063f1b8219474ac193b406c77ebbff8c10e1268790054bcbfddd210304eac3ad3c2a356116db3e8407ee2d753a49447870e3f38e5f72c90f716a9bfb21037c257706bcaeefd6437825086429b40d154b400f0cef5e08dca5f48c1126976653ae"}, "vout": 3, "txid": "bfd163f42c62da4a9f48b6f83f20fc401326c27c563b5ae24c3bbce067177917"}], "txid": "896903f74e3daf29a2bcdb5ee030378c65a30eb9a406f6a9f12fd3b440e3b355", "blocktime": 1537869901, "version": 1, "confirmations": 11524, "time": 1537869901, "locktime": 542987, "vsize": 637, "size": 637}