{"hash": "4bbb27094a861d40faf2d9da0f8227599ba8c0070a95c1fd0b14f86049f26281", "blockhash": "0000000000000000000dcc0f55137456b1a82d3642486a52398922ac4d620174", "vout": [{"scriptPubKey": {"reqSigs": 1, "hex": "a91416282a9c046a6a200283410d39221c2b839de6ff87", "addresses": ["33iAuaSgtVSqwWCCKCJgTG6sSsTxzr1vPh"], "asm": "OP_HASH160 16282a9c046a6a200283410d39221c2b839de6ff OP_EQUAL", "type": "scripthash"}, "value": 0.00935865, "n": 0}], "hex": "02000000000101457d90f449633845503842609f4960ae06dad39e5612eec05b55700fbe03b0df0000000017160014630633c01571752b5210348c7235d856dc5481dcfeffffff01b9470e000000000017a91416282a9c046a6a200283410d39221c2b839de6ff8702483045022100c927c746ab5a13b5e1f0d5606de6aa370b5b5bf07db3bf979bca5e1aa14350a9022073e2cd9fd1a4c030dcce993c7294afb3167d24a594d178951230be94be0a8a26012103f35a116cd0c5f8ef819ffe5ff92eb0c343191dee0409fee01d1d978b4d9ad9ffb8480800", "vin": [{"txinwitness": ["3045022100c927c746ab5a13b5e1f0d5606de6aa370b5b5bf07db3bf979bca5e1aa14350a9022073e2cd9fd1a4c030dcce993c7294afb3167d24a594d178951230be94be0a8a2601", "03f35a116cd0c5f8ef819ffe5ff92eb0c343191dee0409fee01d1d978b4d9ad9ff"], "sequence": 4294967294, "scriptSig": {"hex": "160014630633c01571752b5210348c7235d856dc5481dc", "asm": "0014630633c01571752b5210348c7235d856dc5481dc"}, "vout": 0, "txid": "dfb003be0f70555bc0ee12569ed3da06ae60499f6042385045386349f4907d45"}], "txid": "89698c1edfc4774b053368194c9c7e23759de2dc61d9612e325efd59cbf4791a", "blocktime": 1537870268, "version": 2, "confirmations": 11518, "time": 1537870268, "locktime": 542904, "vsize": 134, "size": 216}