{"hash": "896abe30acc086648e1811d01938650801d8f9b84e0f9676c2a67626f95ff3cf", "blockhash": "0000000000000000000e13cef7c366c0283d82e591d1acd082e914b08063cdf1", "vout": [{"scriptPubKey": {"reqSigs": 1, "hex": "76a91498f09b3a287fe38e5e69a90c9f3182f78732d85c88ac", "addresses": ["1EwfwnJ3tAd66hEBJQSRKygeFrxavsCjo2"], "asm": "OP_DUP OP_HASH160 98f09b3a287fe38e5e69a90c9f3182f78732d85c OP_EQUALVERIFY OP_CHECKSIG", "type": "pubkeyhash"}, "value": 0.025882, "n": 0}, {"scriptPubKey": {"reqSigs": 1, "hex": "a9145f13e07994d188bf4e5b4e7abbbbfbb62c87b79887", "addresses": ["3AMjvqRjDGx4bcFmnPGEKQbXUtTopdE7zp"], "asm": "OP_HASH160 5f13e07994d188bf4e5b4e7abbbbfbb62c87b798 OP_EQUAL", "type": "scripthash"}, "value": 0.1541, "n": 1}], "hex": "01000000012350060516c9c775f78bd78a4f04eb8675a2630238fdd274970eb712a3c3aa4a1e0000006a47304402201d34e39bcfc48ff53c7a3e26108faed0b5fb49356f9aab6dbb43cab561d7a5f002207a4a125421cc2ec759606ebd1090fe9d83c31821781bd984487dba7ca129ffce0121030066d855c4745849fa84e7bd56f995048fdaaf62c4cb0f6f1db9af2631e76abbffffffff02287e2700000000001976a91498f09b3a287fe38e5e69a90c9f3182f78732d85c88ac5023eb000000000017a9145f13e07994d188bf4e5b4e7abbbbfbb62c87b7988700000000", "vin": [{"sequence": 4294967295, "scriptSig": {"hex": "47304402201d34e39bcfc48ff53c7a3e26108faed0b5fb49356f9aab6dbb43cab561d7a5f002207a4a125421cc2ec759606ebd1090fe9d83c31821781bd984487dba7ca129ffce0121030066d855c4745849fa84e7bd56f995048fdaaf62c4cb0f6f1db9af2631e76abb", "asm": "304402201d34e39bcfc48ff53c7a3e26108faed0b5fb49356f9aab6dbb43cab561d7a5f002207a4a125421cc2ec759606ebd1090fe9d83c31821781bd984487dba7ca129ffce[ALL] 030066d855c4745849fa84e7bd56f995048fdaaf62c4cb0f6f1db9af2631e76abb"}, "vout": 30, "txid": "4aaac3a312b70e9774d2fd380263a27586eb044f8ad78bf775c7c91605065023"}], "txid": "896abe30acc086648e1811d01938650801d8f9b84e0f9676c2a67626f95ff3cf", "blocktime": 1537871767, "version": 1, "confirmations": 11493, "time": 1537871767, "locktime": 0, "vsize": 223, "size": 223}