{"hash": "896ec1e10035eb7be7812005bd83205aae97cc1e9abed90d5f37908e2b17e611", "blockhash": "0000000000000000001cda96e906b7601b7a6fb1a3b62bca570a9e5d8f4b3de1", "vout": [{"scriptPubKey": {"type": "nulldata", "hex": "6a4c50000077c4000198821ccaf0374b3a05f819d1e5bf9ae76da98a211aaf6c953dd567cf27e7178290483b5de464d458b0b2bf01bb335baa12f606131900bbc367914bbf23acfcfaac8058b692fe6808c31d", "asm": "OP_RETURN 000077c4000198821ccaf0374b3a05f819d1e5bf9ae76da98a211aaf6c953dd567cf27e7178290483b5de464d458b0b2bf01bb335baa12f606131900bbc367914bbf23acfcfaac8058b692fe6808c31d"}, "value": 0.0, "n": 0}, {"scriptPubKey": {"reqSigs": 1, "hex": "76a9146b9b1810b2fde5ff4767c4362604f66a3382aced88ac", "addresses": ["1Aoy6eUufobT4cBcNVuMRU8q9p7vmt9pMi"], "asm": "OP_DUP OP_HASH160 6b9b1810b2fde5ff4767c4362604f66a3382aced OP_EQUALVERIFY OP_CHECKSIG", "type": "pubkeyhash"}, "value": 0.00014169, "n": 1}], "hex": "0100000001cc150e6f43a4fe776b95cfae4e29abc01c2ce04a778c28a66b2b50f0dc152788000000006a473044022056aaac4b217a3c90d14c0389b1bba588f1a544333d4fcccc234625f695ae8933022031ee802a4bf173a9dd5348fc64c169d30b5ffe4d207f7713e3a6b6f99a72689901210280cfdb7fec84afe532717bf33cfa1f104dba54dcb701c0ed731954a0e613bb5cffffffff020000000000000000536a4c50000077c4000198821ccaf0374b3a05f819d1e5bf9ae76da98a211aaf6c953dd567cf27e7178290483b5de464d458b0b2bf01bb335baa12f606131900bbc367914bbf23acfcfaac8058b692fe6808c31d59370000000000001976a9146b9b1810b2fde5ff4767c4362604f66a3382aced88ac00000000", "vin": [{"sequence": 4294967295, "scriptSig": {"hex": "473044022056aaac4b217a3c90d14c0389b1bba588f1a544333d4fcccc234625f695ae8933022031ee802a4bf173a9dd5348fc64c169d30b5ffe4d207f7713e3a6b6f99a72689901210280cfdb7fec84afe532717bf33cfa1f104dba54dcb701c0ed731954a0e613bb5c", "asm": "3044022056aaac4b217a3c90d14c0389b1bba588f1a544333d4fcccc234625f695ae8933022031ee802a4bf173a9dd5348fc64c169d30b5ffe4d207f7713e3a6b6f99a726899[ALL] 0280cfdb7fec84afe532717bf33cfa1f104dba54dcb701c0ed731954a0e613bb5c"}, "vout": 0, "txid": "882715dcf0502b6ba6288c774ae02c1cc0ab294eaecf956b77fea4436f0e15cc"}], "txid": "896ec1e10035eb7be7812005bd83205aae97cc1e9abed90d5f37908e2b17e611", "blocktime": 1537873282, "version": 1, "confirmations": 11484, "time": 1537873282, "locktime": 0, "vsize": 283, "size": 283}