{"hash": "9f02a8e352ff8b3f83bbad09bdc655dd14d4910fc0f018c41368916b4e713edd", "blockhash": "00000000000000000017f5eb5941039fbcee6240d03bc1f2f8e35350df66a1d8", "vout": [{"scriptPubKey": {"reqSigs": 1, "hex": "a914c8948f84ab8bc2187580e4fb86ecf2a0a06e11cf87", "addresses": ["3Kyb35jwJ7YCiAF7JRfW5VZdpyywKap5YB"], "asm": "OP_HASH160 c8948f84ab8bc2187580e4fb86ecf2a0a06e11cf OP_EQUAL", "type": "scripthash"}, "value": 4.063e-05, "n": 0}, {"scriptPubKey": {"reqSigs": 1, "hex": "a91449d7e96499e76d96ef877a2fcb98823c8bccba2187", "addresses": ["38RTuMXR3rjgmqC2TwiJHrCLzc9nbGoNw7"], "asm": "OP_HASH160 49d7e96499e76d96ef877a2fcb98823c8bccba21 OP_EQUAL", "type": "scripthash"}, "value": 0.00133704, "n": 1}], "hex": "01000000000101c99f7b1c47a6f1d4d5501739c0de55ae70c21c801e9df2a36d6ed40185b36f7e00000000232200202a9a1aa43dd52fca361d638a9bb1c7c7a7b32bed598a04104268b8ecbdbfe96fffffffff02df0f00000000000017a914c8948f84ab8bc2187580e4fb86ecf2a0a06e11cf87480a02000000000017a91449d7e96499e76d96ef877a2fcb98823c8bccba2187040047304402204d93c750a2dda1f114d61a2ddafec893a70bfea9ff00c7915452abb3a2419467022062b0a7ace9b1a1881a61201d6fda68765e968f7b47a91f6f2e1838c04233b5c4014830450221008b8ddc2e3fe9ff99fce52112af6797b18c134843d71ac39b160fbc13f66acb4402204d36da3ece98ecb6b9641c16bb4bd5fbde0ba306839f50ca9883e1f19356d8780147522103ea39afa13bfc0b16775c1ffdd58dbb69a77441d8211cfd208f16ac7437c451312103338f346cab6ba87fe940591a03ac234be06520c5ab386d4b6632e8eef0d0db7652ae00000000", "vin": [{"txinwitness": ["", "304402204d93c750a2dda1f114d61a2ddafec893a70bfea9ff00c7915452abb3a2419467022062b0a7ace9b1a1881a61201d6fda68765e968f7b47a91f6f2e1838c04233b5c401", "30450221008b8ddc2e3fe9ff99fce52112af6797b18c134843d71ac39b160fbc13f66acb4402204d36da3ece98ecb6b9641c16bb4bd5fbde0ba306839f50ca9883e1f19356d87801", "522103ea39afa13bfc0b16775c1ffdd58dbb69a77441d8211cfd208f16ac7437c451312103338f346cab6ba87fe940591a03ac234be06520c5ab386d4b6632e8eef0d0db7652ae"], "sequence": 4294967295, "scriptSig": {"hex": "2200202a9a1aa43dd52fca361d638a9bb1c7c7a7b32bed598a04104268b8ecbdbfe96f", "asm": "00202a9a1aa43dd52fca361d638a9bb1c7c7a7b32bed598a04104268b8ecbdbfe96f"}, "vout": 0, "txid": "7e6fb38501d46e6da3f29d1e801cc270ae55dec0391750d5d4f1a6471c7b9fc9"}], "txid": "8970ee66a74b224f4efdfa983dd042eb3c8e531fce500339298392ffaba1e135", "blocktime": 1537874412, "version": 1, "confirmations": 11468, "time": 1537874412, "locktime": 0, "vsize": 206, "size": 371}