{"hash": "897554998e4fc71ba31e57c833d90fd2e2aa6a473e35bc71dc57b55b92ca50f5", "blockhash": "0000000000000000000e13cef7c366c0283d82e591d1acd082e914b08063cdf1", "vout": [{"scriptPubKey": {"reqSigs": 1, "hex": "76a914022a1309984e98f91fe4a9572db9bb86ebe2cf7188ac", "addresses": ["1CSkmBhktrujiMRk77N5MBzcyhEfzuBCo"], "asm": "OP_DUP OP_HASH160 022a1309984e98f91fe4a9572db9bb86ebe2cf71 OP_EQUALVERIFY OP_CHECKSIG", "type": "pubkeyhash"}, "value": 1.32, "n": 0}, {"scriptPubKey": {"reqSigs": 1, "hex": "76a9145fdd4d5e7859bc63dbdf6502f2929946bde6e62288ac", "addresses": ["19jtJaAqzW49qWHtRkQJK6E6fbty9itcDk"], "asm": "OP_DUP OP_HASH160 5fdd4d5e7859bc63dbdf6502f2929946bde6e622 OP_EQUALVERIFY OP_CHECKSIG", "type": "pubkeyhash"}, "value": 2.78996158, "n": 1}], "hex": "0100000001e51bf08f9958ec63414a4f33b98d267ec1ed35a4ab2ea5d1407d6b7da5941dfb010000006a47304402203c0bf9409f3c79cda61838c9b1a5d65e209620d2096739dd270dfe417a2a7a870220305bf93ea71d3e0cd58ba21ffac7300cf021333303795aea9787d67d14e2a708012102b38201d05db2d2848d8cf0d3776d0719101fe527e2f13a81e8fd29274df0cd3effffffff020029de07000000001976a914022a1309984e98f91fe4a9572db9bb86ebe2cf7188acbe24a110000000001976a9145fdd4d5e7859bc63dbdf6502f2929946bde6e62288ac00000000", "vin": [{"sequence": 4294967295, "scriptSig": {"hex": "47304402203c0bf9409f3c79cda61838c9b1a5d65e209620d2096739dd270dfe417a2a7a870220305bf93ea71d3e0cd58ba21ffac7300cf021333303795aea9787d67d14e2a708012102b38201d05db2d2848d8cf0d3776d0719101fe527e2f13a81e8fd29274df0cd3e", "asm": "304402203c0bf9409f3c79cda61838c9b1a5d65e209620d2096739dd270dfe417a2a7a870220305bf93ea71d3e0cd58ba21ffac7300cf021333303795aea9787d67d14e2a708[ALL] 02b38201d05db2d2848d8cf0d3776d0719101fe527e2f13a81e8fd29274df0cd3e"}, "vout": 1, "txid": "fb1d94a57d6b7d40d1a52eaba435edc17e268db9334f4a4163ec58998ff01be5"}], "txid": "897554998e4fc71ba31e57c833d90fd2e2aa6a473e35bc71dc57b55b92ca50f5", "blocktime": 1537871767, "version": 1, "confirmations": 11495, "time": 1537871767, "locktime": 0, "vsize": 225, "size": 225}