{"hash": "6b39d3dbb89fb216110c5e66c28b8a80c80ce5156a23e9847abd0b95d37a7e06", "blockhash": "0000000000000000000e13cef7c366c0283d82e591d1acd082e914b08063cdf1", "vout": [{"scriptPubKey": {"reqSigs": 1, "hex": "00145aa7059ff5181c2a0e143813328a0501aa4cd14e", "addresses": ["bc1qt2nst8l4rqwz5rs58qfn9zs9qx4ye52wznr9pc"], "asm": "0 5aa7059ff5181c2a0e143813328a0501aa4cd14e", "type": "witness_v0_keyhash"}, "value": 1.80976206, "n": 0}, {"scriptPubKey": {"reqSigs": 1, "hex": "76a91462f9a19bb360a0c3c690c954a73ac93b0defb7bb88ac", "addresses": ["1A2LGV8JrkBhHwfUaMMLy55eF2uQ2wYnWE"], "asm": "OP_DUP OP_HASH160 62f9a19bb360a0c3c690c954a73ac93b0defb7bb OP_EQUALVERIFY OP_CHECKSIG", "type": "pubkeyhash"}, "value": 0.010552, "n": 1}], "hex": "01000000000101bac5fb3b5900c6322c1fd707195ad9430191e07a7d75594ce0baa90fb57622f20000000000ffffffff024e7ac90a000000001600145aa7059ff5181c2a0e143813328a0501aa4cd14ee0191000000000001976a91462f9a19bb360a0c3c690c954a73ac93b0defb7bb88ac0248304502210089e0f4b1a15e2b325eea3b3d81c6af42b13e6637f8ff71c3d3b148684f8dd248022041a66475c5da40b0159281cf6a83c325b3bc01ab9fc997dedb67e961cf05e9500121039732711581736cda1f72c4ae9b525137cb084e6cb293f1464e42ecf4be50a87a00000000", "vin": [{"txinwitness": ["304502210089e0f4b1a15e2b325eea3b3d81c6af42b13e6637f8ff71c3d3b148684f8dd248022041a66475c5da40b0159281cf6a83c325b3bc01ab9fc997dedb67e961cf05e95001", "039732711581736cda1f72c4ae9b525137cb084e6cb293f1464e42ecf4be50a87a"], "sequence": 4294967295, "scriptSig": {"hex": "", "asm": ""}, "vout": 0, "txid": "f22276b50fa9bae04c59757d7ae0910143d95a1907d71f2c32c600593bfbc5ba"}], "txid": "89856a21bb1acb01e9abc648fbc1a05d08eba3a8c972e4794a661f4ddc9f1c04", "blocktime": 1537871767, "version": 1, "confirmations": 11495, "time": 1537871767, "locktime": 0, "vsize": 144, "size": 226}