{"hash": "898ddbcb5d8393e3f01d2887b0a2e30d01b5680e85d7ed6caa8523689683f794", "blockhash": "0000000000000000001f76057863aec43deb6fa401d9628bb513d65a8098bfab", "vout": [{"scriptPubKey": {"reqSigs": 1, "hex": "a914dd9dc6a441b75c3a3cf7d52601fba93d55728ce687", "addresses": ["3MtpGQL5k6tYHku7eJBRa35C5DZGaJGvFy"], "asm": "OP_HASH160 dd9dc6a441b75c3a3cf7d52601fba93d55728ce6 OP_EQUAL", "type": "scripthash"}, "value": 1.15049, "n": 0}, {"scriptPubKey": {"reqSigs": 1, "hex": "a914e370231feecbfc25e2e2423a5a79bf79bfdca59887", "addresses": ["3NRbeX3vD5VaVE4TDU9ivCDsEf7NPPte6J"], "asm": "OP_HASH160 e370231feecbfc25e2e2423a5a79bf79bfdca598 OP_EQUAL", "type": "scripthash"}, "value": 10.29266654, "n": 1}], "hex": "010000000186b3691209097b176c2edf970eccb8ebfd58ef658de7bcb810bbc393ec567fb301000000da00473044022054f1b8d0f6403b7d44597696d8dfe371f0000cc24ab8b88f7ed83e7b117ad49d02204ef3c5ac29657bfb79ae78cd7b30a8e32329a9a1727d6aa3f74639e0a715af1601483045022100f32c19215a49fe6d938dc3dfc60693b642bdb0a9ef6139d390560695bc4be7bf022033f715eac81ec492832d579198c92170ef91f55449df1bd334d7d82b711d2efa014752210327881b6abce6535553a3ce21fad12a7d74fd237ce7c4cd270a267162344e3082210256141f8eb687f5a68c5cc65054652dc25116fa285e44d72b44368827ffe77d9a52aeffffffff022882db060000000017a914dd9dc6a441b75c3a3cf7d52601fba93d55728ce687de5c593d0000000017a914e370231feecbfc25e2e2423a5a79bf79bfdca5988700000000", "vin": [{"sequence": 4294967295, "scriptSig": {"hex": "00473044022054f1b8d0f6403b7d44597696d8dfe371f0000cc24ab8b88f7ed83e7b117ad49d02204ef3c5ac29657bfb79ae78cd7b30a8e32329a9a1727d6aa3f74639e0a715af1601483045022100f32c19215a49fe6d938dc3dfc60693b642bdb0a9ef6139d390560695bc4be7bf022033f715eac81ec492832d579198c92170ef91f55449df1bd334d7d82b711d2efa014752210327881b6abce6535553a3ce21fad12a7d74fd237ce7c4cd270a267162344e3082210256141f8eb687f5a68c5cc65054652dc25116fa285e44d72b44368827ffe77d9a52ae", "asm": "0 3044022054f1b8d0f6403b7d44597696d8dfe371f0000cc24ab8b88f7ed83e7b117ad49d02204ef3c5ac29657bfb79ae78cd7b30a8e32329a9a1727d6aa3f74639e0a715af16[ALL] 3045022100f32c19215a49fe6d938dc3dfc60693b642bdb0a9ef6139d390560695bc4be7bf022033f715eac81ec492832d579198c92170ef91f55449df1bd334d7d82b711d2efa[ALL] 52210327881b6abce6535553a3ce21fad12a7d74fd237ce7c4cd270a267162344e3082210256141f8eb687f5a68c5cc65054652dc25116fa285e44d72b44368827ffe77d9a52ae"}, "vout": 1, "txid": "b37f56ec93c3bb10b8bce78d65ef58fdebb8cc0e97df2e6c177b09091269b386"}], "txid": "898ddbcb5d8393e3f01d2887b0a2e30d01b5680e85d7ed6caa8523689683f794", "blocktime": 1537873891, "version": 1, "confirmations": 11478, "time": 1537873891, "locktime": 0, "vsize": 333, "size": 333}