{"hash": "898d3bf65469638019782e331043ad2bdfa1848bd1ade314ed657b91d5bbafb3", "blockhash": "0000000000000000001e0dab787dd257d1dbfcb92a98c2207d5e1078be1f4165", "vout": [{"scriptPubKey": {"reqSigs": 1, "hex": "a9144fa8fe119b34f51b614503061d0a0b73145f9f6387", "addresses": ["38xDkVxSxPZPtTwhnYXKdcBzXvBTGD9eQu"], "asm": "OP_HASH160 4fa8fe119b34f51b614503061d0a0b73145f9f63 OP_EQUAL", "type": "scripthash"}, "value": 0.0079177, "n": 0}, {"scriptPubKey": {"reqSigs": 1, "hex": "76a914c328f240ac5fc2009ea92c95010f6d0126a342c388ac", "addresses": ["1JnupQXjCBW7CyaZqcRmaCYevt6eW6YxoW"], "asm": "OP_DUP OP_HASH160 c328f240ac5fc2009ea92c95010f6d0126a342c3 OP_EQUALVERIFY OP_CHECKSIG", "type": "pubkeyhash"}, "value": 0.01767481, "n": 1}], "hex": "01000000019483a650c7e9e04b1490e5bbfbd998bf3d633871dc43d7fc14447f29632f257d010000006b48304502210090437ec9dd496eaac2305b3cc09a39869aac11d06d04ed1582482a476a94b4c302207b7d288e8daf84d34946a7db2c01c256d8103b76464cdfe22adf87d157a9d12f0121039ea06db42a5bf0ea003fba35eddc321236ffeecd0c38856fa01c29e8d5c2fadcffffffff02da140c000000000017a9144fa8fe119b34f51b614503061d0a0b73145f9f638739f81a00000000001976a914c328f240ac5fc2009ea92c95010f6d0126a342c388ac00000000", "vin": [{"sequence": 4294967295, "scriptSig": {"hex": "48304502210090437ec9dd496eaac2305b3cc09a39869aac11d06d04ed1582482a476a94b4c302207b7d288e8daf84d34946a7db2c01c256d8103b76464cdfe22adf87d157a9d12f0121039ea06db42a5bf0ea003fba35eddc321236ffeecd0c38856fa01c29e8d5c2fadc", "asm": "304502210090437ec9dd496eaac2305b3cc09a39869aac11d06d04ed1582482a476a94b4c302207b7d288e8daf84d34946a7db2c01c256d8103b76464cdfe22adf87d157a9d12f[ALL] 039ea06db42a5bf0ea003fba35eddc321236ffeecd0c38856fa01c29e8d5c2fadc"}, "vout": 1, "txid": "7d252f63297f4414fcd743dc7138633dbf98d9fbbbe590144be0e9c750a68394"}], "txid": "898d3bf65469638019782e331043ad2bdfa1848bd1ade314ed657b91d5bbafb3", "blocktime": 1537872475, "version": 1, "confirmations": 11487, "time": 1537872475, "locktime": 0, "vsize": 224, "size": 224}