{"hash": "8992f2e6f66888e6be50df4d72c6f26004ba51502fc47f4ef91332dbee9c349f", "blockhash": "0000000000000000001cda96e906b7601b7a6fb1a3b62bca570a9e5d8f4b3de1", "vout": [{"scriptPubKey": {"reqSigs": 1, "hex": "76a9149283b27e38e8686821933187b48deadc9052f7b788ac", "addresses": ["1EMhRVXPKbk7pPkoeizK5jTqr1GAYyU1Qb"], "asm": "OP_DUP OP_HASH160 9283b27e38e8686821933187b48deadc9052f7b7 OP_EQUALVERIFY OP_CHECKSIG", "type": "pubkeyhash"}, "value": 0.01362781, "n": 0}, {"scriptPubKey": {"reqSigs": 1, "hex": "001435988501dbf0fcd32f2aadafd3ef38c94d6daee9", "addresses": ["bc1qxkvg2qwm7r7dxte24kha8mece9xkmthfg56tya"], "asm": "0 35988501dbf0fcd32f2aadafd3ef38c94d6daee9", "type": "witness_v0_keyhash"}, "value": 0.0102614, "n": 1}], "hex": "0100000001a6c96bc03a703e5ca0a6c194b6344a2470467d0494c5fdc0d5c132f649c3cc31000000006a47304402205c54c4bdc8b60de3b14d9664e1a34232d058e90200b2d3f6d0595cf01aafddd802202e2a5dd8e48b83bb646132ea1d142b8fd0575e2f82104cc668600abcbb08358101210205159120a30cbb03d2de6bc88574bc53783b9583b51372689b6007fd5e5ebb68ffffffff025dcb1400000000001976a9149283b27e38e8686821933187b48deadc9052f7b788ac5ca80f000000000016001435988501dbf0fcd32f2aadafd3ef38c94d6daee900000000", "vin": [{"sequence": 4294967295, "scriptSig": {"hex": "47304402205c54c4bdc8b60de3b14d9664e1a34232d058e90200b2d3f6d0595cf01aafddd802202e2a5dd8e48b83bb646132ea1d142b8fd0575e2f82104cc668600abcbb08358101210205159120a30cbb03d2de6bc88574bc53783b9583b51372689b6007fd5e5ebb68", "asm": "304402205c54c4bdc8b60de3b14d9664e1a34232d058e90200b2d3f6d0595cf01aafddd802202e2a5dd8e48b83bb646132ea1d142b8fd0575e2f82104cc668600abcbb083581[ALL] 0205159120a30cbb03d2de6bc88574bc53783b9583b51372689b6007fd5e5ebb68"}, "vout": 0, "txid": "31ccc349f632c1d5c0fdc594047d4670244a34b694c1a6a05c3e703ac06bc9a6"}], "txid": "8992f2e6f66888e6be50df4d72c6f26004ba51502fc47f4ef91332dbee9c349f", "blocktime": 1537873282, "version": 1, "confirmations": 11484, "time": 1537873282, "locktime": 0, "vsize": 222, "size": 222}