{"hash": "899468f9c24ab82dda08014bb0d3b16a53ef33d2e7c16623d970d79adad8f98e", "blockhash": "0000000000000000001cda96e906b7601b7a6fb1a3b62bca570a9e5d8f4b3de1", "vout": [{"scriptPubKey": {"reqSigs": 1, "hex": "76a9142d73c0428f6f2529715cba4297dc7fc89b88759a88ac", "addresses": ["159L59vpXijhTu3TbEgQBLiTH3k14Jg4Ku"], "asm": "OP_DUP OP_HASH160 2d73c0428f6f2529715cba4297dc7fc89b88759a OP_EQUALVERIFY OP_CHECKSIG", "type": "pubkeyhash"}, "value": 0.07, "n": 0}, {"scriptPubKey": {"reqSigs": 1, "hex": "76a914a121c764e14b045d88b098e8be0b79b1fe67fff188ac", "addresses": ["1FgzFtCCGiiqvqVsA3Jg1KSeYJbrtewgh6"], "asm": "OP_DUP OP_HASH160 a121c764e14b045d88b098e8be0b79b1fe67fff1 OP_EQUALVERIFY OP_CHECKSIG", "type": "pubkeyhash"}, "value": 1.56293359, "n": 1}], "hex": "01000000012fb576e5b4573f5ec0c858b9b83a49817df97405280baaa17edf3063b953280d010000006a473044022060aaee20fc926eadf7dca6dc9455cbcad65f7b7849510ffc735cc3567d79929102200eb82c8ba780e9b276ce73320244f10c2f7b712b4f955656f0581130e6686b7b0121033669710a1f6b510a89b4fb0537d4f55a2f735b60aa2bd87353284a93ab64fc2affffffff02c0cf6a00000000001976a9142d73c0428f6f2529715cba4297dc7fc89b88759a88acefd85009000000001976a914a121c764e14b045d88b098e8be0b79b1fe67fff188ac00000000", "vin": [{"sequence": 4294967295, "scriptSig": {"hex": "473044022060aaee20fc926eadf7dca6dc9455cbcad65f7b7849510ffc735cc3567d79929102200eb82c8ba780e9b276ce73320244f10c2f7b712b4f955656f0581130e6686b7b0121033669710a1f6b510a89b4fb0537d4f55a2f735b60aa2bd87353284a93ab64fc2a", "asm": "3044022060aaee20fc926eadf7dca6dc9455cbcad65f7b7849510ffc735cc3567d79929102200eb82c8ba780e9b276ce73320244f10c2f7b712b4f955656f0581130e6686b7b[ALL] 033669710a1f6b510a89b4fb0537d4f55a2f735b60aa2bd87353284a93ab64fc2a"}, "vout": 1, "txid": "0d2853b96330df7ea1aa0b280574f97d81493ab8b958c8c05e3f57b4e576b52f"}], "txid": "899468f9c24ab82dda08014bb0d3b16a53ef33d2e7c16623d970d79adad8f98e", "blocktime": 1537873282, "version": 1, "confirmations": 11482, "time": 1537873282, "locktime": 0, "vsize": 225, "size": 225}