{"hash": "899464fff985660f78b44a148a9c55706a2ffecb64100e1c5449c821425c0dc5", "blockhash": "000000000000000000022b45ed06c6f4ccd3cf7fb5ba4856ebd2e58215665228", "vout": [{"scriptPubKey": {"reqSigs": 1, "hex": "76a914700a2af96ac8bb7d665ecd1618737bdc0bb5826988ac", "addresses": ["1BDQrxjQd4t6ySLN5xKkq1ULa7KMEV37fu"], "asm": "OP_DUP OP_HASH160 700a2af96ac8bb7d665ecd1618737bdc0bb58269 OP_EQUALVERIFY OP_CHECKSIG", "type": "pubkeyhash"}, "value": 0.00996724, "n": 0}, {"scriptPubKey": {"reqSigs": 1, "hex": "a914b58a939ed3a0a1d97f646de3d38497527d721ed387", "addresses": ["3JEvEjp81CosUDQxWsN6cBHHFpMeieJ65J"], "asm": "OP_HASH160 b58a939ed3a0a1d97f646de3d38497527d721ed3 OP_EQUAL", "type": "scripthash"}, "value": 0.06522709, "n": 1}], "hex": "01000000017e167c7b9bbceeeadf0b4f3dad0e7328e49276851006fb16136d3949b0d05528000000006b483045022100c0cba2f534c2d4dd353d8f3e4201a3da6a279c29182af15e97f3f293a83afe620220599b8b54f437199879abe0124c993bbbea09033f9c0f4ca6e0b49538fa5ad93d01210254db2e862fb5e8d2eb2356121fb4f7ca0681e2d79046f9def1935e8169ed24bbffffffff0274350f00000000001976a914700a2af96ac8bb7d665ecd1618737bdc0bb5826988ac558763000000000017a914b58a939ed3a0a1d97f646de3d38497527d721ed38700000000", "vin": [{"sequence": 4294967295, "scriptSig": {"hex": "483045022100c0cba2f534c2d4dd353d8f3e4201a3da6a279c29182af15e97f3f293a83afe620220599b8b54f437199879abe0124c993bbbea09033f9c0f4ca6e0b49538fa5ad93d01210254db2e862fb5e8d2eb2356121fb4f7ca0681e2d79046f9def1935e8169ed24bb", "asm": "3045022100c0cba2f534c2d4dd353d8f3e4201a3da6a279c29182af15e97f3f293a83afe620220599b8b54f437199879abe0124c993bbbea09033f9c0f4ca6e0b49538fa5ad93d[ALL] 0254db2e862fb5e8d2eb2356121fb4f7ca0681e2d79046f9def1935e8169ed24bb"}, "vout": 0, "txid": "2855d0b049396d1316fb0610857692e428730ead3d4f0bdfeaeebc9b7b7c167e"}], "txid": "899464fff985660f78b44a148a9c55706a2ffecb64100e1c5449c821425c0dc5", "blocktime": 1537869901, "version": 1, "confirmations": 11524, "time": 1537869901, "locktime": 0, "vsize": 224, "size": 224}