{"hash": "6e18e61d1353482508c02b9efb1afbadd0da0bba01b3bfb143f5c43a9c2454fb", "blockhash": "0000000000000000001f76057863aec43deb6fa401d9628bb513d65a8098bfab", "vout": [{"scriptPubKey": {"reqSigs": 1, "hex": "a9141ed4b47f7768f9c942cca7e65fc5d864998cb41587", "addresses": ["34W31JhiGocgr7EcteVVKPqS6SD7aCCj2v"], "asm": "OP_HASH160 1ed4b47f7768f9c942cca7e65fc5d864998cb415 OP_EQUAL", "type": "scripthash"}, "value": 0.01002417, "n": 0}, {"scriptPubKey": {"reqSigs": 1, "hex": "a9145d5f0122cf8b614d048083cf0bc6821436de2de787", "addresses": ["3ACiaQcpxQEKFrW55daeGhkqkaewdML8Uh"], "asm": "OP_HASH160 5d5f0122cf8b614d048083cf0bc6821436de2de7 OP_EQUAL", "type": "scripthash"}, "value": 0.00997, "n": 1}], "hex": "020000000001018f4d3379a782fef51e2c574860f295611420978e99d264650ecb178765b28884330000001716001476da8d24c7d99570ce887e47d26ecbbca9602423fdffffff02b14b0f000000000017a9141ed4b47f7768f9c942cca7e65fc5d864998cb4158788360f000000000017a9145d5f0122cf8b614d048083cf0bc6821436de2de78702473044022070702df64851944206f8c7f40948eda9abda208c97cb264d413d0e040b38790d022034c35e0051a93a0839691beecd22e04c375ae07921c4a807057358c22f661c8801210303ca5b495fab653acb19918c6cf5b6b31d6aa556b5588fb6993f29c0ee6e98c300000000", "vin": [{"txinwitness": ["3044022070702df64851944206f8c7f40948eda9abda208c97cb264d413d0e040b38790d022034c35e0051a93a0839691beecd22e04c375ae07921c4a807057358c22f661c8801", "0303ca5b495fab653acb19918c6cf5b6b31d6aa556b5588fb6993f29c0ee6e98c3"], "sequence": 4294967293, "scriptSig": {"hex": "16001476da8d24c7d99570ce887e47d26ecbbca9602423", "asm": "001476da8d24c7d99570ce887e47d26ecbbca9602423"}, "vout": 51, "txid": "8488b2658717cb0e6564d2998e9720146195f26048572c1ef5fe82a779334d8f"}], "txid": "8995ef8cd4b200117a50dfe9072da8ba842e199096ff61adc74660bc779feb69", "blocktime": 1537873891, "version": 2, "confirmations": 11478, "time": 1537873891, "locktime": 0, "vsize": 166, "size": 247}