{"hash": "8997134b63b0a810db9fda3c07225dc1a74128260f632a385a8f7a6baef1ee1b", "blockhash": "00000000000000000018f53835495a110e01622372bf6ae95dc86f2b0ab887b0", "vout": [{"scriptPubKey": {"reqSigs": 1, "hex": "a914c3eba8cd3b1e57a89d86ce89ff47ac47f1ec796087", "addresses": ["3KYwzrLwRxAUmWNc8rJnr5Wcg7rycM5NQ5"], "asm": "OP_HASH160 c3eba8cd3b1e57a89d86ce89ff47ac47f1ec7960 OP_EQUAL", "type": "scripthash"}, "value": 0.00382779, "n": 0}, {"scriptPubKey": {"reqSigs": 1, "hex": "76a9141f92dddcf956574a0776963bcc02e0fb48e2169b88ac", "addresses": ["13swtRQDG61GpZyQX4i8sVCAahrXtv1yhX"], "asm": "OP_DUP OP_HASH160 1f92dddcf956574a0776963bcc02e0fb48e2169b OP_EQUALVERIFY OP_CHECKSIG", "type": "pubkeyhash"}, "value": 0.00769892, "n": 1}], "hex": "0100000001b45fd70a2f6bc3feffef8dd15704560628b835adf029655fae92ba8d7763846f010000006b483045022100dc34126328236fa3238d2977189b33ef7fe982137100b21ccb4892ab8ad3d37a0220130d275233a32b7466df0f5ecde2b5b079a7b3368bacccebebbff656ad4d5af9012102b1b3c3a756563323e2c353022152a2069c9fb3794f472a58c4a97b1d2f422007ffffffff023bd705000000000017a914c3eba8cd3b1e57a89d86ce89ff47ac47f1ec79608764bf0b00000000001976a9141f92dddcf956574a0776963bcc02e0fb48e2169b88ac00000000", "vin": [{"sequence": 4294967295, "scriptSig": {"hex": "483045022100dc34126328236fa3238d2977189b33ef7fe982137100b21ccb4892ab8ad3d37a0220130d275233a32b7466df0f5ecde2b5b079a7b3368bacccebebbff656ad4d5af9012102b1b3c3a756563323e2c353022152a2069c9fb3794f472a58c4a97b1d2f422007", "asm": "3045022100dc34126328236fa3238d2977189b33ef7fe982137100b21ccb4892ab8ad3d37a0220130d275233a32b7466df0f5ecde2b5b079a7b3368bacccebebbff656ad4d5af9[ALL] 02b1b3c3a756563323e2c353022152a2069c9fb3794f472a58c4a97b1d2f422007"}, "vout": 1, "txid": "6f8463778dba92ae5f6529f0ad35b82806560457d18deffffec36b2f0ad75fb4"}], "txid": "8997134b63b0a810db9fda3c07225dc1a74128260f632a385a8f7a6baef1ee1b", "blocktime": 1537870928, "version": 1, "confirmations": 11512, "time": 1537870928, "locktime": 0, "vsize": 224, "size": 224}