{"hash": "4db6523588c28b7b0f86c810a0a6d2e9d56cd7e5b9ba2fdc1f1b14de8b52d0cb", "blockhash": "0000000000000000000e13cef7c366c0283d82e591d1acd082e914b08063cdf1", "vout": [{"scriptPubKey": {"reqSigs": 1, "hex": "a914c19e4595380bddb995fa78a04a3433a68d812a1b87", "addresses": ["3KLmwV5wZZ74jrLeszXEBnR4ZBZNzM3hgH"], "asm": "OP_HASH160 c19e4595380bddb995fa78a04a3433a68d812a1b OP_EQUAL", "type": "scripthash"}, "value": 0.0071248, "n": 0}, {"scriptPubKey": {"reqSigs": 1, "hex": "a914f5342287aaa57f5c05756dbd5ef14091cc70030f87", "addresses": ["3Q3XvwKWsx3ocmCXheK6pAo5ieooFx75hh"], "asm": "OP_HASH160 f5342287aaa57f5c05756dbd5ef14091cc70030f OP_EQUAL", "type": "scripthash"}, "value": 0.11391799, "n": 1}], "hex": "01000000000103163876b4f5b283212d291de049db6d0527770f93fcc75f6bf15af21c476ebbcb0100000023220020b58b29a5c7a4beb628a03f2da5849859aaa374ee7a2998f1dadeb6ca3fd7e9a0ffffffffc468e8302f032e9c0f07de2778dcb0809161c2a89951f28886c116bb76dfb2d5010000002322002034d286ccab95ac2830f1056ba57f00e0448d1d5ecf2fff624cf6f42fa30a8290ffffffff8c0329d32ce4ca333a6c5f06962705e856b798b34ab76930ce1ec9792607fcca01000000232200204fd7968ffe15cb453352a1e9ee2915eff8b6d6252d5a351f9092b82ca10eb12cffffffff0220df0a000000000017a914c19e4595380bddb995fa78a04a3433a68d812a1b8737d3ad000000000017a914f5342287aaa57f5c05756dbd5ef14091cc70030f870400473044022010dfaca64975229c047113163228f2a05306f0bcecb7e6ed2d0e42673f680f200220791c68e58a0ca4f221a1d85a7f2efb793a83c820acf1f9596862ab93f4fefd7301483045022100ce6d1382f5710f683ac1a706b962b9cbf41d5fac13a1fe6bbf201ad3f6f4dcb10220350c4a8741e3220458e35d131926b00afe0d08d672396969b00e99f766d45dd00147522102ae69da8d7e68d58540f59af96793d6c611a658a3a5ca15ed11521fad83e95c272103871fc2ca08e6950b38867e8e6a0e94ee625223d3aa0df5c65f414c6d784467e252ae0400483045022100de1fbdb5fc3397151624cfcb1c7d0c1326d4766e9cd8b269770d1b646ad2875302206191d3cc3a1ee4a4b0b35cbf79e73e5f3c8239761f7a8cbc4db8a0cea5e1ebc80147304402200d14f7412514221f436bde45bf566ff98a948a912fd9c5b75fc96376f79c1e9902207bf32ee9379cd16826b785298203d09f84ee8cf81f11ab57c92d45fa209fb804014752210348e3cf19d1b9cafc84385efb67f6683c8f43574f31fab2ae0219a9b9d14edd212103871fc2ca08e6950b38867e8e6a0e94ee625223d3aa0df5c65f414c6d784467e252ae0400483045022100bdbd87eaabac7838e36ce278a42a7664e93d5dd416b76c0818b3337f98db8fcb022008d3b1aa9187ca87a1d75d0fd596726f3a43322b6e744c740f11e16784649d7201483045022100f3e28c58513a7e725900aba37fdeb40b2558a0c782f2489362cdf06e0507bc740220495106dbf673462f61599e70c0aa887586c67fda21f281e3521d9b98872fcde60147522103b70e79262cbb7310fe069dea7c473b53276b75c67fb841ff66279f152a3fe0172103871fc2ca08e6950b38867e8e6a0e94ee625223d3aa0df5c65f414c6d784467e252ae00000000", "vin": [{"txinwitness": ["", "3044022010dfaca64975229c047113163228f2a05306f0bcecb7e6ed2d0e42673f680f200220791c68e58a0ca4f221a1d85a7f2efb793a83c820acf1f9596862ab93f4fefd7301", "3045022100ce6d1382f5710f683ac1a706b962b9cbf41d5fac13a1fe6bbf201ad3f6f4dcb10220350c4a8741e3220458e35d131926b00afe0d08d672396969b00e99f766d45dd001", "522102ae69da8d7e68d58540f59af96793d6c611a658a3a5ca15ed11521fad83e95c272103871fc2ca08e6950b38867e8e6a0e94ee625223d3aa0df5c65f414c6d784467e252ae"], "sequence": 4294967295, "scriptSig": {"hex": "220020b58b29a5c7a4beb628a03f2da5849859aaa374ee7a2998f1dadeb6ca3fd7e9a0", "asm": "0020b58b29a5c7a4beb628a03f2da5849859aaa374ee7a2998f1dadeb6ca3fd7e9a0"}, "vout": 1, "txid": "cbbb6e471cf25af16b5fc7fc930f7727056ddb49e01d292d2183b2f5b4763816"}, {"txinwitness": ["", "3045022100de1fbdb5fc3397151624cfcb1c7d0c1326d4766e9cd8b269770d1b646ad2875302206191d3cc3a1ee4a4b0b35cbf79e73e5f3c8239761f7a8cbc4db8a0cea5e1ebc801", "304402200d14f7412514221f436bde45bf566ff98a948a912fd9c5b75fc96376f79c1e9902207bf32ee9379cd16826b785298203d09f84ee8cf81f11ab57c92d45fa209fb80401", "52210348e3cf19d1b9cafc84385efb67f6683c8f43574f31fab2ae0219a9b9d14edd212103871fc2ca08e6950b38867e8e6a0e94ee625223d3aa0df5c65f414c6d784467e252ae"], "sequence": 4294967295, "scriptSig": {"hex": "22002034d286ccab95ac2830f1056ba57f00e0448d1d5ecf2fff624cf6f42fa30a8290", "asm": "002034d286ccab95ac2830f1056ba57f00e0448d1d5ecf2fff624cf6f42fa30a8290"}, "vout": 1, "txid": "d5b2df76bb16c18688f25199a8c2619180b0dc7827de070f9c2e032f30e868c4"}, {"txinwitness": ["", "3045022100bdbd87eaabac7838e36ce278a42a7664e93d5dd416b76c0818b3337f98db8fcb022008d3b1aa9187ca87a1d75d0fd596726f3a43322b6e744c740f11e16784649d7201", "3045022100f3e28c58513a7e725900aba37fdeb40b2558a0c782f2489362cdf06e0507bc740220495106dbf673462f61599e70c0aa887586c67fda21f281e3521d9b98872fcde601", "522103b70e79262cbb7310fe069dea7c473b53276b75c67fb841ff66279f152a3fe0172103871fc2ca08e6950b38867e8e6a0e94ee625223d3aa0df5c65f414c6d784467e252ae"], "sequence": 4294967295, "scriptSig": {"hex": "2200204fd7968ffe15cb453352a1e9ee2915eff8b6d6252d5a351f9092b82ca10eb12c", "asm": "00204fd7968ffe15cb453352a1e9ee2915eff8b6d6252d5a351f9092b82ca10eb12c"}, "vout": 1, "txid": "cafc072679c91ece3069b74ab398b756e8052796065f6c3a33cae42cd329038c"}], "txid": "8998183d8d66360d5d0de5c9ae2b9157f89f8a72e1496265e1e1b4083e811746", "blocktime": 1537871767, "version": 1, "confirmations": 11495, "time": 1537871767, "locktime": 0, "vsize": 467, "size": 962}