{"hash": "bf242017e1d3b5c95620751fe944497c05ae1fa5c8b9f2a7065e26970f6fc461", "blockhash": "000000000000000000022b45ed06c6f4ccd3cf7fb5ba4856ebd2e58215665228", "vout": [{"scriptPubKey": {"reqSigs": 1, "hex": "76a9148d3ea1a917d300e0b527fa1e7ad4fc2222d9f33288ac", "addresses": ["1DsqJm5puCeVDWDfNDptpGHkVQrtG5a3aQ"], "asm": "OP_DUP OP_HASH160 8d3ea1a917d300e0b527fa1e7ad4fc2222d9f332 OP_EQUALVERIFY OP_CHECKSIG", "type": "pubkeyhash"}, "value": 0.0032926, "n": 0}, {"scriptPubKey": {"reqSigs": 1, "hex": "a914651ae0d21a7f392598cee0ab3b53e29c330ed90287", "addresses": ["3AucNT15ASrUU1HPn5ZfjcNFGw8Z7vMLwr"], "asm": "OP_HASH160 651ae0d21a7f392598cee0ab3b53e29c330ed902 OP_EQUAL", "type": "scripthash"}, "value": 0.01000413, "n": 1}], "hex": "020000000001021666ba0bd1ae95269f5a0d9cb8ebf310a125b961c6e4d2249c9efbb3dc68cda506000000171600148d729c89d67053a54a270c3a6c97c02867c11bc7feffffffa20134be1695b099b3da8ac870d8a5b10df3bae7a1d367345c6f6bb0ca1ca941010000001716001497446ddb80133ba5c6fa57b7509a308f7a0ee5cbfeffffff022c060500000000001976a9148d3ea1a917d300e0b527fa1e7ad4fc2222d9f33288acdd430f000000000017a914651ae0d21a7f392598cee0ab3b53e29c330ed9028702473044022026cddff2229311a7529f1d3a3382075fa7cb562f9614b4205fe969731c306b9d022076f85217b7d0d48e62b33a5be582eccadc66c3cdef93195d9c3ab96d1e59d0a301210354d7bfdcdf4314499f933f16a5df8d65ad7dbe6d34a1db5b29752d14e2b8509502473044022043349a24746fdb0004271f1cb5f742353ac9cbf3070201adb922cec1e7a4911a022008a3a0a3406a82a36a2accc5e45ea7b4b813c8507905b8854f634be928e5d0b20121027f5b07e1b2b1db068ee168cc7ea2edac608c3e2fdb380e766b5305237dedaa1a0b490800", "vin": [{"txinwitness": ["3044022026cddff2229311a7529f1d3a3382075fa7cb562f9614b4205fe969731c306b9d022076f85217b7d0d48e62b33a5be582eccadc66c3cdef93195d9c3ab96d1e59d0a301", "0354d7bfdcdf4314499f933f16a5df8d65ad7dbe6d34a1db5b29752d14e2b85095"], "sequence": 4294967294, "scriptSig": {"hex": "1600148d729c89d67053a54a270c3a6c97c02867c11bc7", "asm": "00148d729c89d67053a54a270c3a6c97c02867c11bc7"}, "vout": 6, "txid": "a5cd68dcb3fb9e9c24d2e4c661b925a110f3ebb89c0d5a9f2695aed10bba6616"}, {"txinwitness": ["3044022043349a24746fdb0004271f1cb5f742353ac9cbf3070201adb922cec1e7a4911a022008a3a0a3406a82a36a2accc5e45ea7b4b813c8507905b8854f634be928e5d0b201", "027f5b07e1b2b1db068ee168cc7ea2edac608c3e2fdb380e766b5305237dedaa1a"], "sequence": 4294967294, "scriptSig": {"hex": "16001497446ddb80133ba5c6fa57b7509a308f7a0ee5cb", "asm": "001497446ddb80133ba5c6fa57b7509a308f7a0ee5cb"}, "vout": 1, "txid": "41a91ccab06b6f5c3467d3a1e7baf30db1a5d870c88adab399b09516be3401a2"}], "txid": "89a5047b9b161eaa7fc38665be578f76c25f45846086fb72c79002418d05f0f2", "blocktime": 1537869901, "version": 2, "confirmations": 11524, "time": 1537869901, "locktime": 542987, "vsize": 258, "size": 420}