{"hash": "63a335bbcfc60755c53e308af326af8d996d534f70a6d79821ad8a95bdccd6b8", "blockhash": "0000000000000000001e0dab787dd257d1dbfcb92a98c2207d5e1078be1f4165", "vout": [{"scriptPubKey": {"reqSigs": 1, "hex": "76a9143f74e6807689807de1fc4274483fc8b90afdb5e588ac", "addresses": ["16nXcU79CtwED4UmSjwNrX3BqLMCXSbHN8"], "asm": "OP_DUP OP_HASH160 3f74e6807689807de1fc4274483fc8b90afdb5e5 OP_EQUALVERIFY OP_CHECKSIG", "type": "pubkeyhash"}, "value": 0.00689408, "n": 0}, {"scriptPubKey": {"reqSigs": 1, "hex": "76a9144257dee30875051a5962a920dae2de7342a9660f88ac", "addresses": ["173ns2CimgCJ12VGywCxahFkurGd9k997a"], "asm": "OP_DUP OP_HASH160 4257dee30875051a5962a920dae2de7342a9660f OP_EQUALVERIFY OP_CHECKSIG", "type": "pubkeyhash"}, "value": 0.0085492, "n": 1}, {"scriptPubKey": {"reqSigs": 1, "hex": "76a91427b48cf3180cc9885b88646c2d0708cdda2f892c88ac", "addresses": ["14cweMeHZgntQRKtsR3qwVnmmgQbrHvmBS"], "asm": "OP_DUP OP_HASH160 27b48cf3180cc9885b88646c2d0708cdda2f892c OP_EQUALVERIFY OP_CHECKSIG", "type": "pubkeyhash"}, "value": 0.01031322, "n": 2}, {"scriptPubKey": {"reqSigs": 1, "hex": "76a914b4df59303ffdf56573a13687c61e106c54d5d50b88ac", "addresses": ["1HVNC3mwpK72VxJuvh5JfSTG7bMK3yJvPN"], "asm": "OP_DUP OP_HASH160 b4df59303ffdf56573a13687c61e106c54d5d50b OP_EQUALVERIFY OP_CHECKSIG", "type": "pubkeyhash"}, "value": 0.00518917, "n": 3}, {"scriptPubKey": {"reqSigs": 1, "hex": "76a914897bfabb404dde505554a115021deb6080efc05b88ac", "addresses": ["1DXx6XGZgfWpmUif3uV1DVBa8UtNe3SK2n"], "asm": "OP_DUP OP_HASH160 897bfabb404dde505554a115021deb6080efc05b OP_EQUALVERIFY OP_CHECKSIG", "type": "pubkeyhash"}, "value": 0.00914861, "n": 4}, {"scriptPubKey": {"reqSigs": 1, "hex": "76a914d3ebb7c0365442ee56bae739a295a21b38a8d52688ac", "addresses": ["1LKXxSCYhcEjssnhW5otZnUfiQXtyz8Ljc"], "asm": "OP_DUP OP_HASH160 d3ebb7c0365442ee56bae739a295a21b38a8d526 OP_EQUALVERIFY OP_CHECKSIG", "type": "pubkeyhash"}, "value": 0.0024865, "n": 5}, {"scriptPubKey": {"reqSigs": 1, "hex": "76a9149a104025e625c9e9cdf1bd1cb0b318d6b50d0adf88ac", "addresses": ["1F3cXeorXNUAhCB3mL54aJSEpZSt5xduQ6"], "asm": "OP_DUP OP_HASH160 9a104025e625c9e9cdf1bd1cb0b318d6b50d0adf OP_EQUALVERIFY OP_CHECKSIG", "type": "pubkeyhash"}, "value": 0.0029367, "n": 6}, {"scriptPubKey": {"reqSigs": 1, "hex": "76a914108dd3c7054d5ff90d95d938955699b359d5780688ac", "addresses": ["12WXiQBoFChCyjkRQNbwscrR4Z2UZsjPc7"], "asm": "OP_DUP OP_HASH160 108dd3c7054d5ff90d95d938955699b359d57806 OP_EQUALVERIFY OP_CHECKSIG", "type": "pubkeyhash"}, "value": 0.00490917, "n": 7}, {"scriptPubKey": {"reqSigs": 1, "hex": "76a914bd75a39570e4661c7a59f408ad45e4e509fd577f88ac", "addresses": ["1JGmdxW17HcFjoLCGruYe2zoZYGQ9jg1vV"], "asm": "OP_DUP OP_HASH160 bd75a39570e4661c7a59f408ad45e4e509fd577f OP_EQUALVERIFY OP_CHECKSIG", "type": "pubkeyhash"}, "value": 0.00317937, "n": 8}, {"scriptPubKey": {"reqSigs": 1, "hex": "76a914f89a6dacbf5e8dd03575c55e8aaee4a343fa1ccc88ac", "addresses": ["1PfVaT1g6jfNBfJFs1x45St7K6XktYbQZS"], "asm": "OP_DUP OP_HASH160 f89a6dacbf5e8dd03575c55e8aaee4a343fa1ccc OP_EQUALVERIFY OP_CHECKSIG", "type": "pubkeyhash"}, "value": 0.00357449, "n": 9}, {"scriptPubKey": {"reqSigs": 1, "hex": "76a9147a7ebe5780f4adec7c2e28284a8779723d1559cd88ac", "addresses": ["1CAhGhTuWLME9MiU2bVvhyJ1imjWFC5Kbb"], "asm": "OP_DUP OP_HASH160 7a7ebe5780f4adec7c2e28284a8779723d1559cd OP_EQUALVERIFY OP_CHECKSIG", "type": "pubkeyhash"}, "value": 0.00416405, "n": 10}, {"scriptPubKey": {"reqSigs": 1, "hex": "a914eea7081e8865d42df096bf99c6ea03df48be40d887", "addresses": ["3PStqmQfnKhNrnAxMcjDCh1hkhM5XsUz5P"], "asm": "OP_HASH160 eea7081e8865d42df096bf99c6ea03df48be40d8 OP_EQUAL", "type": "scripthash"}, "value": 0.01915478, "n": 11}, {"scriptPubKey": {"reqSigs": 1, "hex": "76a914df44ff92a6bc421304731b940eb5f84f5436681288ac", "addresses": ["1MMYLsFEa18hAG4eN2L24rFPMGjWCxVKQj"], "asm": "OP_DUP OP_HASH160 df44ff92a6bc421304731b940eb5f84f54366812 OP_EQUALVERIFY OP_CHECKSIG", "type": "pubkeyhash"}, "value": 0.00494028, "n": 12}, {"scriptPubKey": {"reqSigs": 1, "hex": "a914501465eca1a7f9adb2860baa9b7698e394e50e0487", "addresses": ["38zSRBGqPfn4rwF8jKwm81NQUrbWZKNKYh"], "asm": "OP_HASH160 501465eca1a7f9adb2860baa9b7698e394e50e04 OP_EQUAL", "type": "scripthash"}, "value": 0.00993629, "n": 13}, {"scriptPubKey": {"reqSigs": 1, "hex": "76a91429dc23b9d8548f0e2f0aa2bcdefe014388e6902c88ac", "addresses": ["14pLRRuenJbR2qkkH1xDoZQX6XETAMTw73"], "asm": "OP_DUP OP_HASH160 29dc23b9d8548f0e2f0aa2bcdefe014388e6902c OP_EQUALVERIFY OP_CHECKSIG", "type": "pubkeyhash"}, "value": 0.00495332, "n": 14}, {"scriptPubKey": {"reqSigs": 1, "hex": "76a91433c16faf0237458853c2ea66a69bf46cdab2d46988ac", "addresses": ["15ifByJ8KS3ho1DgJjRWgUyrCri4T2MeR4"], "asm": "OP_DUP OP_HASH160 33c16faf0237458853c2ea66a69bf46cdab2d469 OP_EQUALVERIFY OP_CHECKSIG", "type": "pubkeyhash"}, "value": 0.0024887, "n": 15}, {"scriptPubKey": {"reqSigs": 1, "hex": "76a91405fea3c4569081697e7a7303eabe63d36253c4b288ac", "addresses": ["1YhRdvrTu6DvhH6gtSoBbojzj32aXCikE"], "asm": "OP_DUP OP_HASH160 05fea3c4569081697e7a7303eabe63d36253c4b2 OP_EQUALVERIFY OP_CHECKSIG", "type": "pubkeyhash"}, "value": 0.00372382, "n": 16}, {"scriptPubKey": {"reqSigs": 1, "hex": "76a91436d04070c83964101ea0bf873b039b80f84e0a8088ac", "addresses": ["15zpxweAJ13GaxWSyaDQuKfHhgKdRbwWpc"], "asm": "OP_DUP OP_HASH160 36d04070c83964101ea0bf873b039b80f84e0a80 OP_EQUALVERIFY OP_CHECKSIG", "type": "pubkeyhash"}, "value": 0.01909548, "n": 17}, {"scriptPubKey": {"reqSigs": 1, "hex": "76a914b5861bde00a39dbb7768342bd8402daaf596d6d788ac", "addresses": ["1HYoxmYXoesHk5yDHLP8u9uqhYp8ApsPa4"], "asm": "OP_DUP OP_HASH160 b5861bde00a39dbb7768342bd8402daaf596d6d7 OP_EQUALVERIFY OP_CHECKSIG", "type": "pubkeyhash"}, "value": 0.02149312, "n": 18}, {"scriptPubKey": {"reqSigs": 1, "hex": "76a91497ca29bb5b1145e662f4a797740f2784ffff8c4588ac", "addresses": ["1EqbDVwQmzyPr9wt2bLNDu8jFQfBxMUMoV"], "asm": "OP_DUP OP_HASH160 97ca29bb5b1145e662f4a797740f2784ffff8c45 OP_EQUALVERIFY OP_CHECKSIG", "type": "pubkeyhash"}, "value": 0.00450472, "n": 19}, {"scriptPubKey": {"reqSigs": 1, "hex": "76a9146ad83244756a336fe2595848cc288cd46d1060ac88ac", "addresses": ["1AjwcvNm5udF5XZxopa6tKayBmQ3pZNjxp"], "asm": "OP_DUP OP_HASH160 6ad83244756a336fe2595848cc288cd46d1060ac OP_EQUALVERIFY OP_CHECKSIG", "type": "pubkeyhash"}, "value": 0.010657, "n": 20}], "hex": "0200000000010c148c111abee505f7c18c268e85b27bc4679b77083e650b576d34d2bf16a658260100000017160014ab45eb713022aa7b3b2e5d64cfc3ce1a132873a6feffffff4f249169b514b39b0316f3d5f425127f572418df2f76375934e0f99811406f6a000000001716001441d04345359b537ecf3435b29c35613274d68f25feffffff6626ecd8c6b4c451b86a2e17009d8232800d412d73d31c1a1e68fdb58d5790090000000017160014b94e5915a20d4bba4976959719798ec07f8a48cafeffffff6c5dbff5b442e96021fa5e2b26d1a6e85abedf8d5c2a84fb2d68c02c6acd59e418000000171600144054171e9c1613d2d1952debd4165a33e4f6fb17feffffff7f803f7e022f5381cb54a48f56fb174bb943e9639b68b1fe02838007b741ee9e9b01000017160014d00225a712bd5fc6907e6865b0c003bcad116dfefeffffff7f803f7e022f5381cb54a48f56fb174bb943e9639b68b1fe02838007b741ee9eb8030000171600148f5975805cdd0b2a19da82a6d0f65dd02ce923eafeffffff7f803f7e022f5381cb54a48f56fb174bb943e9639b68b1fe02838007b741ee9ec60300001716001430fd22b1b48f17e31f59f3cbe5c2fecc04a2a8cbfeffffff90873977180738e88c17a7660cf62dfe9dcd5e7447cca45e12febf5bc10a2cf80000000017160014ff29d64f5b6d9c68a59cd52ea496ae774232c4c2feffffffb0c8b93b0aba5697169edc4e6329af7aae900d16b18f4b5e224d18de4acc4357010000001716001493a6e23a59ccd21ff16fb9c07eecbde006ab9558feffffffc0b24a5b90042f2851d61db8c3d85e129e50f392cb1b59dc68fa2372e8c328d900000000171600147270921a45afeddc804de32f08ad1dcf712df308feffffffc7abca03c0dc796281abc931d69a18d124cd8dfd87ec02348e746e9067e5f7f70100000017160014e415807327cb1f6e17ec3ebcb72fde521a44281ffeffffffcf841838acb9f4d9528b728f124084c6613aff3ff35011cec1969883055a597a1800000017160014e925bf026ae2db22043f2d9d2bf1033fed3c1a44feffffff1500850a00000000001976a9143f74e6807689807de1fc4274483fc8b90afdb5e588ac880b0d00000000001976a9144257dee30875051a5962a920dae2de7342a9660f88ac9abc0f00000000001976a91427b48cf3180cc9885b88646c2d0708cdda2f892c88ac05eb0700000000001976a914b4df59303ffdf56573a13687c61e106c54d5d50b88acadf50d00000000001976a914897bfabb404dde505554a115021deb6080efc05b88ac4acb0300000000001976a914d3ebb7c0365442ee56bae739a295a21b38a8d52688ac267b0400000000001976a9149a104025e625c9e9cdf1bd1cb0b318d6b50d0adf88aca57d0700000000001976a914108dd3c7054d5ff90d95d938955699b359d5780688acf1d90400000000001976a914bd75a39570e4661c7a59f408ad45e4e509fd577f88ac49740500000000001976a914f89a6dacbf5e8dd03575c55e8aaee4a343fa1ccc88ac955a0600000000001976a9147a7ebe5780f4adec7c2e28284a8779723d1559cd88ac563a1d000000000017a914eea7081e8865d42df096bf99c6ea03df48be40d887cc890700000000001976a914df44ff92a6bc421304731b940eb5f84f5436681288ac5d290f000000000017a914501465eca1a7f9adb2860baa9b7698e394e50e0487e48e0700000000001976a91429dc23b9d8548f0e2f0aa2bcdefe014388e6902c88ac26cc0300000000001976a91433c16faf0237458853c2ea66a69bf46cdab2d46988ac9eae0500000000001976a91405fea3c4569081697e7a7303eabe63d36253c4b288ac2c231d00000000001976a91436d04070c83964101ea0bf873b039b80f84e0a8088acc0cb2000000000001976a914b5861bde00a39dbb7768342bd8402daaf596d6d788aca8df0600000000001976a91497ca29bb5b1145e662f4a797740f2784ffff8c4588ace4421000000000001976a9146ad83244756a336fe2595848cc288cd46d1060ac88ac02483045022100e86ab8d20b6a188d7236689f4278f5114417284690936a601cd21de02a58c0070220097bb6350971f7ec51a2587038a941d37d729e434b242db71800dc2ab90d9501012102be7021a17e7eac38eeb873277b0136c4dcf769c64133c670769f6e44145e4f2902473044022054e133ba1fb6a8e135355af7849471b1cd94f08f765d49e48243ef48d41ec56e02207915dfa1ac18008ff9df29a7560c0058ed486fca6a41f91a8f6ac620bfab1ea5012102d84f037a0611df2beb1fe3047665a1817e0f68b17b968a5b7ff26a58ae22033e02473044022002b5e4fe9234d90c6d71a12779b1f2cdb52e78896b37fb182d4f6d07d5abc5ec022032b6579df72cbb5ec90001e9ab542174b21f0caa84cc3c08a5d8f098288665fb01210264c103d75bc3765c62d69cfe1c7fa262144375627e5dfa75b809ac1c23dc087d02483045022100fea469e71cd8b0b972f8fb09e7aeaa2ec85fb52e54df2748357aa93b12683f6a02200b7aa9e70b9793cbe95f67a5dd6262b61b4ad5125da5a5ca70639ba396f1ef370121036992d1a2e02cf324b9ed6f58bcd2ae399817c71ee8a858fac6e4cc9daa31f1070247304402203bb0bfb152960be1908ec3290bc879972b58d32d1f70c2439da83d5168c21f0f022011e883d9bdd2a108224c16f995cea4b783a2d6a54a510212608af2973b7a422b012103efd352edcb0682537687eed38174e636b9ceec23cfab58c0946ef419016db7d60247304402200e0e93dfc378d10b6632467e375d1e8c26d13b1b926518318627c7e07c9afc2e02202f65dd5031981a7df2bf5f837d87f6505e4ccd7609ca0bebbb33a37683376d0d012103cf97f275841e17dc50ba7e3de5843ded047afffaeab289577ba9fe20b1f38c300248304502210084f9767ca8f1ffc78b41606be5d7bf3b3c7802167307add99a9d0fd753ead35a02206ce710182615642acb33eda6326e1e895fb131406790cb4b903a64383a530bfd012102bbe6b48c52439b3cfc3ae807efa1a924c94e16605d57ac76e3d546db356b73b90248304502210089afb1b05d5083ba680fa85ec15a86661596b1b2037a0a1b0700a5a71aff9bf702200651a616e9be5bbd2f874d0cb76721ecef6fcf5c5bcbc6a736b52c270bea47a00121020dc0776ed940e9ca0be110ee9f2f1e2387efd42c811c4cdf31eda735360ec2e502483045022100dd1a8a56b208233bd4f2aab6933dd645b467f0798a044ca90d6ee64c995b9fd90220654027054de3e45fa33fa9e4c5799ca8667daabe046eca9574d07a0042410363012103a7f5c5db9c176fdc9ccbfb6b565e0797aac58ddfa3f9b5dc8264e80a472b1620024830450221008f1593fc4aafb86731e85fb188efbd79be942e4545c11add8447fe2a772884940220339ec714c59be1bd1e5d69852531c7cad0fc6695f4be745644506d4fbd00ed460121030cc4805f6fc9a39bcdc8ebb9f872185fb7ce61ca187921820c3af51a45adf474024830450221009d837b3d47928752e4419d3ebcc4677d52c5d2976f8a7ac70b0cc5b8c8d5e75d02206ff00ca13b86772387ace5753823cb04b372335e9b66a06335ba99794010d6d70121030e8103e3fdd06eda8fda1b189f9843b62c77f94517a9fafcc1b610e235b29d4902483045022100f846ad4c8e8d46c8b62652c03705fc3039b81e9bb27387386894f0485dd7fde0022074d5c4cf7dba91e1942ea5713525b4db7a42d9f028bb0304c37f219e5d1e6080012102be045ee8c69c56fc5c95a6446eca95c1dcc7bba48caa523be389e67cdf09af6212490800", "vin": [{"txinwitness": ["3045022100e86ab8d20b6a188d7236689f4278f5114417284690936a601cd21de02a58c0070220097bb6350971f7ec51a2587038a941d37d729e434b242db71800dc2ab90d950101", "02be7021a17e7eac38eeb873277b0136c4dcf769c64133c670769f6e44145e4f29"], "sequence": 4294967294, "scriptSig": {"hex": "160014ab45eb713022aa7b3b2e5d64cfc3ce1a132873a6", "asm": "0014ab45eb713022aa7b3b2e5d64cfc3ce1a132873a6"}, "vout": 1, "txid": "2658a616bfd2346d570b653e08779b67c47bb2858e268cc1f705e5be1a118c14"}, {"txinwitness": ["3044022054e133ba1fb6a8e135355af7849471b1cd94f08f765d49e48243ef48d41ec56e02207915dfa1ac18008ff9df29a7560c0058ed486fca6a41f91a8f6ac620bfab1ea501", "02d84f037a0611df2beb1fe3047665a1817e0f68b17b968a5b7ff26a58ae22033e"], "sequence": 4294967294, "scriptSig": {"hex": "16001441d04345359b537ecf3435b29c35613274d68f25", "asm": "001441d04345359b537ecf3435b29c35613274d68f25"}, "vout": 0, "txid": "6a6f401198f9e0345937762fdf1824577f1225f4d5f316039bb314b56991244f"}, {"txinwitness": ["3044022002b5e4fe9234d90c6d71a12779b1f2cdb52e78896b37fb182d4f6d07d5abc5ec022032b6579df72cbb5ec90001e9ab542174b21f0caa84cc3c08a5d8f098288665fb01", "0264c103d75bc3765c62d69cfe1c7fa262144375627e5dfa75b809ac1c23dc087d"], "sequence": 4294967294, "scriptSig": {"hex": "160014b94e5915a20d4bba4976959719798ec07f8a48ca", "asm": "0014b94e5915a20d4bba4976959719798ec07f8a48ca"}, "vout": 0, "txid": "0990578db5fd681e1a1cd3732d410d8032829d00172e6ab851c4b4c6d8ec2666"}, {"txinwitness": ["3045022100fea469e71cd8b0b972f8fb09e7aeaa2ec85fb52e54df2748357aa93b12683f6a02200b7aa9e70b9793cbe95f67a5dd6262b61b4ad5125da5a5ca70639ba396f1ef3701", "036992d1a2e02cf324b9ed6f58bcd2ae399817c71ee8a858fac6e4cc9daa31f107"], "sequence": 4294967294, "scriptSig": {"hex": "1600144054171e9c1613d2d1952debd4165a33e4f6fb17", "asm": "00144054171e9c1613d2d1952debd4165a33e4f6fb17"}, "vout": 24, "txid": "e459cd6a2cc0682dfb842a5c8ddfbe5ae8a6d1262b5efa2160e942b4f5bf5d6c"}, {"txinwitness": ["304402203bb0bfb152960be1908ec3290bc879972b58d32d1f70c2439da83d5168c21f0f022011e883d9bdd2a108224c16f995cea4b783a2d6a54a510212608af2973b7a422b01", "03efd352edcb0682537687eed38174e636b9ceec23cfab58c0946ef419016db7d6"], "sequence": 4294967294, "scriptSig": {"hex": "160014d00225a712bd5fc6907e6865b0c003bcad116dfe", "asm": "0014d00225a712bd5fc6907e6865b0c003bcad116dfe"}, "vout": 411, "txid": "9eee41b707808302feb1689b63e943b94b17fb568fa454cb81532f027e3f807f"}, {"txinwitness": ["304402200e0e93dfc378d10b6632467e375d1e8c26d13b1b926518318627c7e07c9afc2e02202f65dd5031981a7df2bf5f837d87f6505e4ccd7609ca0bebbb33a37683376d0d01", "03cf97f275841e17dc50ba7e3de5843ded047afffaeab289577ba9fe20b1f38c30"], "sequence": 4294967294, "scriptSig": {"hex": "1600148f5975805cdd0b2a19da82a6d0f65dd02ce923ea", "asm": "00148f5975805cdd0b2a19da82a6d0f65dd02ce923ea"}, "vout": 952, "txid": "9eee41b707808302feb1689b63e943b94b17fb568fa454cb81532f027e3f807f"}, {"txinwitness": ["304502210084f9767ca8f1ffc78b41606be5d7bf3b3c7802167307add99a9d0fd753ead35a02206ce710182615642acb33eda6326e1e895fb131406790cb4b903a64383a530bfd01", "02bbe6b48c52439b3cfc3ae807efa1a924c94e16605d57ac76e3d546db356b73b9"], "sequence": 4294967294, "scriptSig": {"hex": "16001430fd22b1b48f17e31f59f3cbe5c2fecc04a2a8cb", "asm": "001430fd22b1b48f17e31f59f3cbe5c2fecc04a2a8cb"}, "vout": 966, "txid": "9eee41b707808302feb1689b63e943b94b17fb568fa454cb81532f027e3f807f"}, {"txinwitness": ["304502210089afb1b05d5083ba680fa85ec15a86661596b1b2037a0a1b0700a5a71aff9bf702200651a616e9be5bbd2f874d0cb76721ecef6fcf5c5bcbc6a736b52c270bea47a001", "020dc0776ed940e9ca0be110ee9f2f1e2387efd42c811c4cdf31eda735360ec2e5"], "sequence": 4294967294, "scriptSig": {"hex": "160014ff29d64f5b6d9c68a59cd52ea496ae774232c4c2", "asm": "0014ff29d64f5b6d9c68a59cd52ea496ae774232c4c2"}, "vout": 0, "txid": "f82c0ac15bbffe125ea4cc47745ecd9dfe2df60c66a7178ce838071877398790"}, {"txinwitness": ["3045022100dd1a8a56b208233bd4f2aab6933dd645b467f0798a044ca90d6ee64c995b9fd90220654027054de3e45fa33fa9e4c5799ca8667daabe046eca9574d07a004241036301", "03a7f5c5db9c176fdc9ccbfb6b565e0797aac58ddfa3f9b5dc8264e80a472b1620"], "sequence": 4294967294, "scriptSig": {"hex": "16001493a6e23a59ccd21ff16fb9c07eecbde006ab9558", "asm": "001493a6e23a59ccd21ff16fb9c07eecbde006ab9558"}, "vout": 1, "txid": "5743cc4ade184d225e4b8fb1160d90ae7aaf29634edc9e169756ba0a3bb9c8b0"}, {"txinwitness": ["30450221008f1593fc4aafb86731e85fb188efbd79be942e4545c11add8447fe2a772884940220339ec714c59be1bd1e5d69852531c7cad0fc6695f4be745644506d4fbd00ed4601", "030cc4805f6fc9a39bcdc8ebb9f872185fb7ce61ca187921820c3af51a45adf474"], "sequence": 4294967294, "scriptSig": {"hex": "1600147270921a45afeddc804de32f08ad1dcf712df308", "asm": "00147270921a45afeddc804de32f08ad1dcf712df308"}, "vout": 0, "txid": "d928c3e87223fa68dc591bcb92f3509e125ed8c3b81dd651282f04905b4ab2c0"}, {"txinwitness": ["30450221009d837b3d47928752e4419d3ebcc4677d52c5d2976f8a7ac70b0cc5b8c8d5e75d02206ff00ca13b86772387ace5753823cb04b372335e9b66a06335ba99794010d6d701", "030e8103e3fdd06eda8fda1b189f9843b62c77f94517a9fafcc1b610e235b29d49"], "sequence": 4294967294, "scriptSig": {"hex": "160014e415807327cb1f6e17ec3ebcb72fde521a44281f", "asm": "0014e415807327cb1f6e17ec3ebcb72fde521a44281f"}, "vout": 1, "txid": "f7f7e567906e748e3402ec87fd8dcd24d1189ad631c9ab816279dcc003caabc7"}, {"txinwitness": ["3045022100f846ad4c8e8d46c8b62652c03705fc3039b81e9bb27387386894f0485dd7fde0022074d5c4cf7dba91e1942ea5713525b4db7a42d9f028bb0304c37f219e5d1e608001", "02be045ee8c69c56fc5c95a6446eca95c1dcc7bba48caa523be389e67cdf09af62"], "sequence": 4294967294, "scriptSig": {"hex": "160014e925bf026ae2db22043f2d9d2bf1033fed3c1a44", "asm": "0014e925bf026ae2db22043f2d9d2bf1033fed3c1a44"}, "vout": 24, "txid": "7a595a05839896c1ce1150f33fff3a61c68440128f728b52d9f4b9ac381884cf"}], "txid": "89acefe46855232e1c68355d1e1bfb5182ea2120fd32c68771bd42a7da848cdc", "blocktime": 1537872475, "version": 2, "confirmations": 11487, "time": 1537872475, "locktime": 542994, "vsize": 1812, "size": 2782}