{"hash": "89b33e9706294ee18f2978685c75457016dc82753f99a5cdf7019dc5eee807a5", "blockhash": "00000000000000000024a2167bbff67b0be802c0b01cdd79e6331c2be6459f87", "vout": [{"scriptPubKey": {"reqSigs": 1, "hex": "76a91406a4d9f809bc1c15655e4d61f0278590a7acb04b88ac", "addresses": ["1c8YELQgwmfMC9BjjMdJUaosnoAkAjPvU"], "asm": "OP_DUP OP_HASH160 06a4d9f809bc1c15655e4d61f0278590a7acb04b OP_EQUALVERIFY OP_CHECKSIG", "type": "pubkeyhash"}, "value": 0.111726, "n": 0}, {"scriptPubKey": {"reqSigs": 1, "hex": "a914a47e892d7494315df60e04acccf085e028c99fd387", "addresses": ["3GgnKsMJgKEqPn7Vd3tDgDWK7dAsM8QqL5"], "asm": "OP_HASH160 a47e892d7494315df60e04acccf085e028c99fd3 OP_EQUAL", "type": "scripthash"}, "value": 0.142386, "n": 1}], "hex": "01000000019cca0e4d40c17f662d105f064387aedace56636469ae34fa2c2cad236e779c6d010000006b483045022100be1f39da013eeeb387a0c67ad82db316bc58baeed9b8e1756ee73228e47088b902204fd3853696ea8537d257c6d5bf638520fc750a5efdaaa9230ab4e27d90d15427012102308a7221bd00fc8cc3d16b1e91bcac8ff18d138f5dbcf1b436c3a35ecfa4f4a8feffffff02f87aaa00000000001976a91406a4d9f809bc1c15655e4d61f0278590a7acb04b88ac8843d9000000000017a914a47e892d7494315df60e04acccf085e028c99fd3870d490800", "vin": [{"sequence": 4294967294, "scriptSig": {"hex": "483045022100be1f39da013eeeb387a0c67ad82db316bc58baeed9b8e1756ee73228e47088b902204fd3853696ea8537d257c6d5bf638520fc750a5efdaaa9230ab4e27d90d15427012102308a7221bd00fc8cc3d16b1e91bcac8ff18d138f5dbcf1b436c3a35ecfa4f4a8", "asm": "3045022100be1f39da013eeeb387a0c67ad82db316bc58baeed9b8e1756ee73228e47088b902204fd3853696ea8537d257c6d5bf638520fc750a5efdaaa9230ab4e27d90d15427[ALL] 02308a7221bd00fc8cc3d16b1e91bcac8ff18d138f5dbcf1b436c3a35ecfa4f4a8"}, "vout": 1, "txid": "6d9c776e23ad2c2cfa34ae69646356cedaae8743065f102d667fc1404d0eca9c"}], "txid": "89b33e9706294ee18f2978685c75457016dc82753f99a5cdf7019dc5eee807a5", "blocktime": 1537870564, "version": 1, "confirmations": 11515, "time": 1537870564, "locktime": 542989, "vsize": 224, "size": 224}