{"hash": "b786833197e1c612b430e9c0c240d2ab33336907ba1f6bd2176ffa0215f0b4b7", "blockhash": "0000000000000000000e13cef7c366c0283d82e591d1acd082e914b08063cdf1", "vout": [{"scriptPubKey": {"reqSigs": 1, "hex": "76a914a9fe6a270995b7a90c7b76306e07a17d2f93509588ac", "addresses": ["1GVqyTfPwJju6kphWzMCGxDkzACUPEAk1a"], "asm": "OP_DUP OP_HASH160 a9fe6a270995b7a90c7b76306e07a17d2f935095 OP_EQUALVERIFY OP_CHECKSIG", "type": "pubkeyhash"}, "value": 0.0037226, "n": 0}, {"scriptPubKey": {"reqSigs": 1, "hex": "a914a3f5d0501e26a1bda998eef2fbc9eecb686f94e787", "addresses": ["3GdxYFPoWHeoNGSqUeBVCMFDwmE7AtQT6h"], "asm": "OP_HASH160 a3f5d0501e26a1bda998eef2fbc9eecb686f94e7 OP_EQUAL", "type": "scripthash"}, "value": 0.01003045, "n": 1}], "hex": "0200000000010215b2b45ec494fc5612a8a01d694f1b74846eb49d11a7eb32d998761ef162f89400000000171600142f9a4d191985b471f87f3c01e10edde901f64410feffffffb6d7d786aa52488c8ccee11d4c7033bf4b66e602f22c243916ccc18b37fca4930800000017160014020b054717d48bea70a9bd7f666a5ab1a2166beefeffffff0224ae0500000000001976a914a9fe6a270995b7a90c7b76306e07a17d2f93509588ac254e0f000000000017a914a3f5d0501e26a1bda998eef2fbc9eecb686f94e78702483045022100c3cb7fe5aa4507da94e8e8513ad1b510377d42cf248182e32fd4f37be082ce960220764601070166f1fddb304be3e43abdb0b1a99a052f4e84a2b84eb9ed492f27500121026048a3a56ed323dec1904b13eb8e802b001f1e45a4e89802acd7c97ec4a704230247304402207c39da7ec8b198b61a9206fb6a5991136df963e67edb834678fe929204a3c2f90220069f6b9de420fc12904f03bcc57a49f19f2d875b506da1721aa6ae2c6591902701210334c19b2a09b8cf1b3f3c8c18325b61960dd3fc440d6cbdb629970762447b100c0f490800", "vin": [{"txinwitness": ["3045022100c3cb7fe5aa4507da94e8e8513ad1b510377d42cf248182e32fd4f37be082ce960220764601070166f1fddb304be3e43abdb0b1a99a052f4e84a2b84eb9ed492f275001", "026048a3a56ed323dec1904b13eb8e802b001f1e45a4e89802acd7c97ec4a70423"], "sequence": 4294967294, "scriptSig": {"hex": "1600142f9a4d191985b471f87f3c01e10edde901f64410", "asm": "00142f9a4d191985b471f87f3c01e10edde901f64410"}, "vout": 0, "txid": "94f862f11e7698d932eba7119db46e84741b4f691da0a81256fc94c45eb4b215"}, {"txinwitness": ["304402207c39da7ec8b198b61a9206fb6a5991136df963e67edb834678fe929204a3c2f90220069f6b9de420fc12904f03bcc57a49f19f2d875b506da1721aa6ae2c6591902701", "0334c19b2a09b8cf1b3f3c8c18325b61960dd3fc440d6cbdb629970762447b100c"], "sequence": 4294967294, "scriptSig": {"hex": "160014020b054717d48bea70a9bd7f666a5ab1a2166bee", "asm": "0014020b054717d48bea70a9bd7f666a5ab1a2166bee"}, "vout": 8, "txid": "93a4fc378bc1cc1639242cf202e6664bbf33704c1de1ce8c8c4852aa86d7d7b6"}], "txid": "89b5b80897f3901e28793c3f355d7cba0a15b6c45462984c3ca21f9e72ced669", "blocktime": 1537871767, "version": 2, "confirmations": 11495, "time": 1537871767, "locktime": 542991, "vsize": 259, "size": 421}