{"hash": "89b8f95d0adcc7313a74f9e0ffb1ffda66ef6d8d79c3b2354e99e22dc8dd9802", "blockhash": "0000000000000000000e13cef7c366c0283d82e591d1acd082e914b08063cdf1", "vout": [{"scriptPubKey": {"reqSigs": 1, "hex": "a91433801c2a8e5e355e58ecbef3cc6072b84d7c2c3b87", "addresses": ["36PKrZspKonwcT3iqNEBUP22bXinPWzCMK"], "asm": "OP_HASH160 33801c2a8e5e355e58ecbef3cc6072b84d7c2c3b OP_EQUAL", "type": "scripthash"}, "value": 0.0055203, "n": 0}, {"scriptPubKey": {"reqSigs": 1, "hex": "a914062b5509e2eca513bf4761665571b9bc56aa676187", "addresses": ["32FdtU52duxkwGGSRJ5NuLqYUi2qJfqot1"], "asm": "OP_HASH160 062b5509e2eca513bf4761665571b9bc56aa6761 OP_EQUAL", "type": "scripthash"}, "value": 0.49805396, "n": 1}], "hex": "010000000155aa8b673a5db19552d37fd88b45c72e5e39e4a111b6ad82c1e0d2d242233aaa01000000da0047304402201fbc2173e1d58f46fe53c405510e9bfd67ed41199a49c55a29f09ce26fdba359022039c4c7e1ed56c7070855e680ea92dc88dd8b6e47acaf00fedcfe4c1f15b83f1a01483045022100eb2c9abe93345cd4aac5041c580bf23b81d1147b537a1de1fdc5301a73cc1ab802206a254fcaff949e4a3d1799e2f9cedcc25fe6b4276a5ac49d4197a5601eec33ef0147522103abc8a801f5fbb4fd5f6510ba530d534b0efb584b4298cea1e6e2d45cd1000aef2102a29577404fa42d6d12e0d867249d4ee805afecc9e10879ed668da9958dc7b65052aeffffffff025e6c08000000000017a91433801c2a8e5e355e58ecbef3cc6072b84d7c2c3b8754f8f7020000000017a914062b5509e2eca513bf4761665571b9bc56aa67618700000000", "vin": [{"sequence": 4294967295, "scriptSig": {"hex": "0047304402201fbc2173e1d58f46fe53c405510e9bfd67ed41199a49c55a29f09ce26fdba359022039c4c7e1ed56c7070855e680ea92dc88dd8b6e47acaf00fedcfe4c1f15b83f1a01483045022100eb2c9abe93345cd4aac5041c580bf23b81d1147b537a1de1fdc5301a73cc1ab802206a254fcaff949e4a3d1799e2f9cedcc25fe6b4276a5ac49d4197a5601eec33ef0147522103abc8a801f5fbb4fd5f6510ba530d534b0efb584b4298cea1e6e2d45cd1000aef2102a29577404fa42d6d12e0d867249d4ee805afecc9e10879ed668da9958dc7b65052ae", "asm": "0 304402201fbc2173e1d58f46fe53c405510e9bfd67ed41199a49c55a29f09ce26fdba359022039c4c7e1ed56c7070855e680ea92dc88dd8b6e47acaf00fedcfe4c1f15b83f1a[ALL] 3045022100eb2c9abe93345cd4aac5041c580bf23b81d1147b537a1de1fdc5301a73cc1ab802206a254fcaff949e4a3d1799e2f9cedcc25fe6b4276a5ac49d4197a5601eec33ef[ALL] 522103abc8a801f5fbb4fd5f6510ba530d534b0efb584b4298cea1e6e2d45cd1000aef2102a29577404fa42d6d12e0d867249d4ee805afecc9e10879ed668da9958dc7b65052ae"}, "vout": 1, "txid": "aa3a2342d2d2e0c182adb611a1e4395e2ec7458bd87fd35295b15d3a678baa55"}], "txid": "89b8f95d0adcc7313a74f9e0ffb1ffda66ef6d8d79c3b2354e99e22dc8dd9802", "blocktime": 1537871767, "version": 1, "confirmations": 11495, "time": 1537871767, "locktime": 0, "vsize": 333, "size": 333}