{"hash": "89b9c58493c53efaa60a5a33403f5d64b242efd62d806a148a9b2268ef7d1bac", "blockhash": "0000000000000000001e0dab787dd257d1dbfcb92a98c2207d5e1078be1f4165", "vout": [{"scriptPubKey": {"reqSigs": 1, "hex": "76a914c60d3034fa64fd417384bef863b770497ee5752588ac", "addresses": ["1K4CbKgj73DCmVu5cHtn3swb59UTSLvMZ4"], "asm": "OP_DUP OP_HASH160 c60d3034fa64fd417384bef863b770497ee57525 OP_EQUALVERIFY OP_CHECKSIG", "type": "pubkeyhash"}, "value": 0.00017575, "n": 0}, {"scriptPubKey": {"type": "nulldata", "hex": "6a4c50000077b80001d8782b4521fa6c105ee2d4e1e5bf9ae76da98a211aaf6c953dd567cf27e7687699f44b3929a18b4d3e54c8cd77e05baa11ea061244bbaf03be304bbf23acfcfaac8058b692fe6808c31d", "asm": "OP_RETURN 000077b80001d8782b4521fa6c105ee2d4e1e5bf9ae76da98a211aaf6c953dd567cf27e7687699f44b3929a18b4d3e54c8cd77e05baa11ea061244bbaf03be304bbf23acfcfaac8058b692fe6808c31d"}, "value": 0.0, "n": 1}], "hex": "0100000001e309db74376ad2a3ad1ea0e0861353c8c4b85beffd2965ba79e239e02541582c000000006a4730440220496fec8c432d1987f31271717a45a597481f57d2af238142a450ba2f3cab439502205dd2cb4a3b45d3efc4740017d3ebb721bd2c7a3e48e34c7c50a178b28f899de90121037a12514ac763545ce3b17f38590b8d351f8d325cbe29e4bf29420960601cdbebffffffff02a7440000000000001976a914c60d3034fa64fd417384bef863b770497ee5752588ac0000000000000000536a4c50000077b80001d8782b4521fa6c105ee2d4e1e5bf9ae76da98a211aaf6c953dd567cf27e7687699f44b3929a18b4d3e54c8cd77e05baa11ea061244bbaf03be304bbf23acfcfaac8058b692fe6808c31d00000000", "vin": [{"sequence": 4294967295, "scriptSig": {"hex": "4730440220496fec8c432d1987f31271717a45a597481f57d2af238142a450ba2f3cab439502205dd2cb4a3b45d3efc4740017d3ebb721bd2c7a3e48e34c7c50a178b28f899de90121037a12514ac763545ce3b17f38590b8d351f8d325cbe29e4bf29420960601cdbeb", "asm": "30440220496fec8c432d1987f31271717a45a597481f57d2af238142a450ba2f3cab439502205dd2cb4a3b45d3efc4740017d3ebb721bd2c7a3e48e34c7c50a178b28f899de9[ALL] 037a12514ac763545ce3b17f38590b8d351f8d325cbe29e4bf29420960601cdbeb"}, "vout": 0, "txid": "2c584125e039e279ba6529fdef5bb8c4c8531386e0a01eada3d26a3774db09e3"}], "txid": "89b9c58493c53efaa60a5a33403f5d64b242efd62d806a148a9b2268ef7d1bac", "blocktime": 1537872475, "version": 1, "confirmations": 11486, "time": 1537872475, "locktime": 0, "vsize": 283, "size": 283}