{"hash": "755e71b12607e560b9e218660d3b6e2e46e21278e8d4232326013b1e3368c4cc", "blockhash": "0000000000000000001cda96e906b7601b7a6fb1a3b62bca570a9e5d8f4b3de1", "vout": [{"scriptPubKey": {"reqSigs": 1, "hex": "0014d6ee881e8da6d29b06962cf865a2ca460719f08c", "addresses": ["bc1q6mhgs85d5mffkp5k9nuxtgk2gcr3nuyvfkztq3"], "asm": "0 d6ee881e8da6d29b06962cf865a2ca460719f08c", "type": "witness_v0_keyhash"}, "value": 0.54120035, "n": 0}, {"scriptPubKey": {"reqSigs": 1, "hex": "76a9147d16e2910749cc3388d6080882b9c6fc609240d488ac", "addresses": ["1CQQt4NwkKz5XxJXWTbPevDxBwkMvweei3"], "asm": "OP_DUP OP_HASH160 7d16e2910749cc3388d6080882b9c6fc609240d4 OP_EQUALVERIFY OP_CHECKSIG", "type": "pubkeyhash"}, "value": 0.02718144, "n": 1}], "hex": "010000000001012c0b322cf024f14d8ff9ca34a78cd5bd7c4ee1f9f8444d247d1e19139afbce520100000000ffffffff0263ce390300000000160014d6ee881e8da6d29b06962cf865a2ca460719f08cc0792900000000001976a9147d16e2910749cc3388d6080882b9c6fc609240d488ac024830450221008789f8c6a1a45eae920f90efa2a46155b11a82ebeb57a1146b3362584cb3ccd302207a8ec768be70dc129f3282705f2998a16dd0c59a924812b7fd2d14afd1f047a7012103ee5031c9dfa9e0f26ea3432b759a9c8f70d8bd969c579f4b94f91187f6f3d53800000000", "vin": [{"txinwitness": ["30450221008789f8c6a1a45eae920f90efa2a46155b11a82ebeb57a1146b3362584cb3ccd302207a8ec768be70dc129f3282705f2998a16dd0c59a924812b7fd2d14afd1f047a701", "03ee5031c9dfa9e0f26ea3432b759a9c8f70d8bd969c579f4b94f91187f6f3d538"], "sequence": 4294967295, "scriptSig": {"hex": "", "asm": ""}, "vout": 1, "txid": "52cefb9a13191e7d244d44f8f9e14e7cbdd58ca734caf98f4df124f02c320b2c"}], "txid": "89ba996b5b4b9d2e8566f7e7dbe6b6d7b777c26be0342ec8419e59027af8dda6", "blocktime": 1537873282, "version": 1, "confirmations": 11484, "time": 1537873282, "locktime": 0, "vsize": 144, "size": 226}