{"hash": "89c26b74617c757f79c0527c17948f79df4ec0375bfe71e053cfb4f4f37fef30", "blockhash": "0000000000000000000dcc0f55137456b1a82d3642486a52398922ac4d620174", "vout": [{"scriptPubKey": {"reqSigs": 1, "hex": "76a9143789ef7ad6d0b7ab7d4d926da8b2622e737ce0e288ac", "addresses": ["164fQUYxKML67R5HQDtNt66M2bAHxAkwQv"], "asm": "OP_DUP OP_HASH160 3789ef7ad6d0b7ab7d4d926da8b2622e737ce0e2 OP_EQUALVERIFY OP_CHECKSIG", "type": "pubkeyhash"}, "value": 0.02539225, "n": 0}, {"scriptPubKey": {"reqSigs": 1, "hex": "76a9143fa6083709a9ca6b666e8e6ff65366f1ca1f9bab88ac", "addresses": ["16oYUCSEtvcM7ffEWZjNeY6XdCkTqJsY7Z"], "asm": "OP_DUP OP_HASH160 3fa6083709a9ca6b666e8e6ff65366f1ca1f9bab OP_EQUALVERIFY OP_CHECKSIG", "type": "pubkeyhash"}, "value": 11.09078055, "n": 1}], "hex": "0200000001162652d602507f850c63f7eb2398adde1b1ef338a2a917203c10de504947d0c3010000006b483045022100b5476f350c41ffe453a309e98948882cd1c08940bdea259f67d1b8faca3025f402203cc6fdee9987e2505fca18a1e5591136d5edf185c3bd877f822d3a72e16a91d401210340d1ebf8e801be6636f7a70db62d074b93e0e12d73283989c9071d0651aedba6ffffffff02d9be2600000000001976a9143789ef7ad6d0b7ab7d4d926da8b2622e737ce0e288ac27301b42000000001976a9143fa6083709a9ca6b666e8e6ff65366f1ca1f9bab88ac00000000", "vin": [{"sequence": 4294967295, "scriptSig": {"hex": "483045022100b5476f350c41ffe453a309e98948882cd1c08940bdea259f67d1b8faca3025f402203cc6fdee9987e2505fca18a1e5591136d5edf185c3bd877f822d3a72e16a91d401210340d1ebf8e801be6636f7a70db62d074b93e0e12d73283989c9071d0651aedba6", "asm": "3045022100b5476f350c41ffe453a309e98948882cd1c08940bdea259f67d1b8faca3025f402203cc6fdee9987e2505fca18a1e5591136d5edf185c3bd877f822d3a72e16a91d4[ALL] 0340d1ebf8e801be6636f7a70db62d074b93e0e12d73283989c9071d0651aedba6"}, "vout": 1, "txid": "c3d0474950de103c2017a9a238f31e1bdead9823ebf7630c857f5002d6522616"}], "txid": "89c26b74617c757f79c0527c17948f79df4ec0375bfe71e053cfb4f4f37fef30", "blocktime": 1537870268, "version": 2, "confirmations": 11518, "time": 1537870268, "locktime": 0, "vsize": 226, "size": 226}