{"hash": "89c33a8b5f5b8d494abb08b6007c7ba3f0058a41b5b0ded8481ae34126d5d532", "blockhash": "00000000000000000018f53835495a110e01622372bf6ae95dc86f2b0ab887b0", "vout": [{"scriptPubKey": {"type": "nulldata", "hex": "6a4c50000077810001ff1c0bec365306f189a5c1f2bcbefa6b8351586b4e86aeaeacb577c031fca0890c5975127e9f5c77f48d6206b15c5baa0ad906143fe9098cd302bc9a9526289ac0f6612cd74e33776ee4", "asm": "OP_RETURN 000077810001ff1c0bec365306f189a5c1f2bcbefa6b8351586b4e86aeaeacb577c031fca0890c5975127e9f5c77f48d6206b15c5baa0ad906143fe9098cd302bc9a9526289ac0f6612cd74e33776ee4"}, "value": 0.0, "n": 0}, {"scriptPubKey": {"reqSigs": 1, "hex": "76a914a0be228879501a968347c92f04167b572856739288ac", "addresses": ["1FevtVpoLRzTRYanPBrRHmj49acHQSJ9Ku"], "asm": "OP_DUP OP_HASH160 a0be228879501a968347c92f04167b5728567392 OP_EQUALVERIFY OP_CHECKSIG", "type": "pubkeyhash"}, "value": 0.0148062, "n": 1}], "hex": "01000000015455cdd37431803eb3aa356033ce950808edebb283dc11038ccc3ce4daafd7f3010000006a47304402205bed66c320368e8be68eb6b26c7b7320a66a2249b033698408166c5d92e6bf4b02205cfdc150edb1ba9988a822299ca5d44589b6a54246fe1d123e8283d26ce297530121026e795f094f053a05699f38dab61a1183c929af6b72f39f982751ca5bd0ad2da5ffffffff020000000000000000536a4c50000077810001ff1c0bec365306f189a5c1f2bcbefa6b8351586b4e86aeaeacb577c031fca0890c5975127e9f5c77f48d6206b15c5baa0ad906143fe9098cd302bc9a9526289ac0f6612cd74e33776ee4ac971600000000001976a914a0be228879501a968347c92f04167b572856739288ac00000000", "vin": [{"sequence": 4294967295, "scriptSig": {"hex": "47304402205bed66c320368e8be68eb6b26c7b7320a66a2249b033698408166c5d92e6bf4b02205cfdc150edb1ba9988a822299ca5d44589b6a54246fe1d123e8283d26ce297530121026e795f094f053a05699f38dab61a1183c929af6b72f39f982751ca5bd0ad2da5", "asm": "304402205bed66c320368e8be68eb6b26c7b7320a66a2249b033698408166c5d92e6bf4b02205cfdc150edb1ba9988a822299ca5d44589b6a54246fe1d123e8283d26ce29753[ALL] 026e795f094f053a05699f38dab61a1183c929af6b72f39f982751ca5bd0ad2da5"}, "vout": 1, "txid": "f3d7afdae43ccc8c0311dc83b2ebed080895ce336035aab33e803174d3cd5554"}], "txid": "89c33a8b5f5b8d494abb08b6007c7ba3f0058a41b5b0ded8481ae34126d5d532", "blocktime": 1537870928, "version": 1, "confirmations": 11512, "time": 1537870928, "locktime": 0, "vsize": 283, "size": 283}