{"hash": "89c77c7a5e8ef794d26f1d7c16c3491a19f40bbc176e86f526cb9cccc781cfdd", "blockhash": "00000000000000000017f5eb5941039fbcee6240d03bc1f2f8e35350df66a1d8", "vout": [{"scriptPubKey": {"type": "nulldata", "hex": "6a4c50000077ef00012cb2bc3ed45b681581ade26cd19ed074892d00f8e87af8e8e963c7cfd5b99529522677c7572b56c310f930b169925baa18000613e36e32f8169cbc9a9526289ac0f6612cd74e33776ee4", "asm": "OP_RETURN 000077ef00012cb2bc3ed45b681581ade26cd19ed074892d00f8e87af8e8e963c7cfd5b99529522677c7572b56c310f930b169925baa18000613e36e32f8169cbc9a9526289ac0f6612cd74e33776ee4"}, "value": 0.0, "n": 0}, {"scriptPubKey": {"reqSigs": 1, "hex": "76a9143871784a78253370f14c455f6ff74d44965dbfef88ac", "addresses": ["169SmmZy6ewsF1ZWRagdaunk1GAMnhUZxW"], "asm": "OP_DUP OP_HASH160 3871784a78253370f14c455f6ff74d44965dbfef OP_EQUALVERIFY OP_CHECKSIG", "type": "pubkeyhash"}, "value": 0.0146808, "n": 1}], "hex": "01000000014aa438bd879c9de453c6eafd5b2be09abd0cff3b2239ed004c4687e9dcc18329010000006b483045022100fb1e3a73ff9e422f389d3aaed6e3810e0437aacf1792ac2c7f81cb01db0c413a02201b76a2fe18ae0a3f037f1e20f19236135dbf482eda812379f3d95d14c6c8ef9a012102a406d64c8ee53b009ae5cbb09e98414d587c8deb7b73b03f472dd09b6c08b829ffffffff020000000000000000536a4c50000077ef00012cb2bc3ed45b681581ade26cd19ed074892d00f8e87af8e8e963c7cfd5b99529522677c7572b56c310f930b169925baa18000613e36e32f8169cbc9a9526289ac0f6612cd74e33776ee4b0661600000000001976a9143871784a78253370f14c455f6ff74d44965dbfef88ac00000000", "vin": [{"sequence": 4294967295, "scriptSig": {"hex": "483045022100fb1e3a73ff9e422f389d3aaed6e3810e0437aacf1792ac2c7f81cb01db0c413a02201b76a2fe18ae0a3f037f1e20f19236135dbf482eda812379f3d95d14c6c8ef9a012102a406d64c8ee53b009ae5cbb09e98414d587c8deb7b73b03f472dd09b6c08b829", "asm": "3045022100fb1e3a73ff9e422f389d3aaed6e3810e0437aacf1792ac2c7f81cb01db0c413a02201b76a2fe18ae0a3f037f1e20f19236135dbf482eda812379f3d95d14c6c8ef9a[ALL] 02a406d64c8ee53b009ae5cbb09e98414d587c8deb7b73b03f472dd09b6c08b829"}, "vout": 1, "txid": "2983c1dce987464c00ed39223bff0cbd9ae02b5bfdeac653e49d9c87bd38a44a"}], "txid": "89c77c7a5e8ef794d26f1d7c16c3491a19f40bbc176e86f526cb9cccc781cfdd", "blocktime": 1537874412, "version": 1, "confirmations": 11467, "time": 1537874412, "locktime": 0, "vsize": 284, "size": 284}