{"hash": "feb1916efa8384c68409b5574140db24a56b13db7a81aec678c45b840614636a", "blockhash": "00000000000000000017f5eb5941039fbcee6240d03bc1f2f8e35350df66a1d8", "vout": [{"scriptPubKey": {"reqSigs": 1, "hex": "a914637b2908bd3b5195a7941c4a1bbd2ee25e7585be87", "addresses": ["3Am2Mrwi1FZoFUT4U2JudaxBPkm22xRWQk"], "asm": "OP_HASH160 637b2908bd3b5195a7941c4a1bbd2ee25e7585be OP_EQUAL", "type": "scripthash"}, "value": 0.18115, "n": 0}, {"scriptPubKey": {"reqSigs": 1, "hex": "a9141bc0969838bd25f9bde59325057b05b5016944cd87", "addresses": ["34DkszNu1iqoJ18C7NXUbBmzcFMdnv7sYy"], "asm": "OP_HASH160 1bc0969838bd25f9bde59325057b05b5016944cd OP_EQUAL", "type": "scripthash"}, "value": 0.0099942, "n": 1}], "hex": "02000000000102c2119c02099dc112fd332f3f12767db351cd3976eb1807a03d04e3dcec29f7f400000000171600144e6fce821866c418580386fb4c968708e77f9203fdffffffc8f07e6ad59e96f45c157d1e4dccd8233f982f7f4d170bbf19b7a236b2fcdb9201000000171600147f9c15e0438bbe2273fa480e32dc2e6804ed549dfdffffff02b86914010000000017a914637b2908bd3b5195a7941c4a1bbd2ee25e7585be87fc3f0f000000000017a9141bc0969838bd25f9bde59325057b05b5016944cd8702483045022100fb27d0a328a7eb95017fe575dd7a179482a4b55a6f60c5a794ad32ff22c3f17302204142b70129a55e254afae9d6bec1a5afdd9a716ddb67b0cb2e8b463400e4b63101210218bf34019aa636382b6a72217aa937bea925342080e17abf5044e3eb012f16fc02483045022100c191f687e9f85c3e7cf07f2ab87e70c89b7b7ff1859a04084b0683da1e38f2f4022026a5fa9a7944849558e1408d5eaadf0a210cd79361fef045f22834c73bd79b7001210270ee278ba0f4f5c4bfd2eabc719ce2effb1fb6323ce3ce815c9be958fe17556c00000000", "vin": [{"txinwitness": ["3045022100fb27d0a328a7eb95017fe575dd7a179482a4b55a6f60c5a794ad32ff22c3f17302204142b70129a55e254afae9d6bec1a5afdd9a716ddb67b0cb2e8b463400e4b63101", "0218bf34019aa636382b6a72217aa937bea925342080e17abf5044e3eb012f16fc"], "sequence": 4294967293, "scriptSig": {"hex": "1600144e6fce821866c418580386fb4c968708e77f9203", "asm": "00144e6fce821866c418580386fb4c968708e77f9203"}, "vout": 0, "txid": "f4f729ecdce3043da00718eb7639cd51b37d76123f2f33fd12c19d09029c11c2"}, {"txinwitness": ["3045022100c191f687e9f85c3e7cf07f2ab87e70c89b7b7ff1859a04084b0683da1e38f2f4022026a5fa9a7944849558e1408d5eaadf0a210cd79361fef045f22834c73bd79b7001", "0270ee278ba0f4f5c4bfd2eabc719ce2effb1fb6323ce3ce815c9be958fe17556c"], "sequence": 4294967293, "scriptSig": {"hex": "1600147f9c15e0438bbe2273fa480e32dc2e6804ed549d", "asm": "00147f9c15e0438bbe2273fa480e32dc2e6804ed549d"}, "vout": 1, "txid": "92dbfcb236a2b719bf0b174d7f2f983f23d8cc4d1e7d155cf4969ed56a7ef0c8"}], "txid": "89c8690453ee52d441deb9b09ff5651dbe90bb948587b2a236ce7940b4b89aee", "blocktime": 1537874412, "version": 2, "confirmations": 11468, "time": 1537874412, "locktime": 0, "vsize": 257, "size": 420}