{"hash": "89ce286701361885bab5087731c0d8e8a0831c8215c2d3525add08b509f63118", "blockhash": "0000000000000000000e13cef7c366c0283d82e591d1acd082e914b08063cdf1", "vout": [{"scriptPubKey": {"reqSigs": 1, "hex": "a914006b3cdd20ef5d6af023e0b11457ae66a7e48dad87", "addresses": ["31jEPZ3Bgf9hRR7dLw1c7Lv3gRASAzJY7r"], "asm": "OP_HASH160 006b3cdd20ef5d6af023e0b11457ae66a7e48dad OP_EQUAL", "type": "scripthash"}, "value": 0.0055, "n": 0}, {"scriptPubKey": {"reqSigs": 1, "hex": "76a9146425792d14afcbea4fa72bd99a4145e3f955b97388ac", "addresses": ["1A8XTsr1ZV5CHgKg3REcDSvGEvxTTwhsU9"], "asm": "OP_DUP OP_HASH160 6425792d14afcbea4fa72bd99a4145e3f955b973 OP_EQUALVERIFY OP_CHECKSIG", "type": "pubkeyhash"}, "value": 0.00626109, "n": 1}], "hex": "01000000025e5f6e03cf1a749652037fb29347acd56e756f2ac29794afbcde9a46d0f25e52010000006b483045022100c6b4228e90d3bafccbf330d3d95a554f1abf3aad0e7ad0dde44c8c3eb7ee7ae902206b183a74b6f891a89717a30d7855696ae5c854ceee6006910717809df2662c0a012103940cb7773910890d51c6726e8d4162312bfc511da9d89b9fbfd664d63f400613fffffffffe8a0499f67bf7e14adc76722bffe7edfad8d161cca4d7f96a5f3e571645f753000000006b483045022100815eca95f3c892897e751177abd7d0ca7c428586deb45f43e0ed68b9dceb7f6b02203a6ce76ec9e2cc77464b2694b52e8db2b0e7849948f1d029943f376627e7f26f012103566a664e0a9a3c2a416a9168da98a70ec138483fcad2fa538ec5bf4da0ff45f3ffffffff02706408000000000017a914006b3cdd20ef5d6af023e0b11457ae66a7e48dad87bd8d0900000000001976a9146425792d14afcbea4fa72bd99a4145e3f955b97388ac00000000", "vin": [{"sequence": 4294967295, "scriptSig": {"hex": "483045022100c6b4228e90d3bafccbf330d3d95a554f1abf3aad0e7ad0dde44c8c3eb7ee7ae902206b183a74b6f891a89717a30d7855696ae5c854ceee6006910717809df2662c0a012103940cb7773910890d51c6726e8d4162312bfc511da9d89b9fbfd664d63f400613", "asm": "3045022100c6b4228e90d3bafccbf330d3d95a554f1abf3aad0e7ad0dde44c8c3eb7ee7ae902206b183a74b6f891a89717a30d7855696ae5c854ceee6006910717809df2662c0a[ALL] 03940cb7773910890d51c6726e8d4162312bfc511da9d89b9fbfd664d63f400613"}, "vout": 1, "txid": "525ef2d0469adebcaf9497c22a6f756ed5ac4793b27f035296741acf036e5f5e"}, {"sequence": 4294967295, "scriptSig": {"hex": "483045022100815eca95f3c892897e751177abd7d0ca7c428586deb45f43e0ed68b9dceb7f6b02203a6ce76ec9e2cc77464b2694b52e8db2b0e7849948f1d029943f376627e7f26f012103566a664e0a9a3c2a416a9168da98a70ec138483fcad2fa538ec5bf4da0ff45f3", "asm": "3045022100815eca95f3c892897e751177abd7d0ca7c428586deb45f43e0ed68b9dceb7f6b02203a6ce76ec9e2cc77464b2694b52e8db2b0e7849948f1d029943f376627e7f26f[ALL] 03566a664e0a9a3c2a416a9168da98a70ec138483fcad2fa538ec5bf4da0ff45f3"}, "vout": 0, "txid": "53f74516573e5f6af9d7a4cc61d1d8faede7ff2b7276dc4ae1f77bf699048afe"}], "txid": "89ce286701361885bab5087731c0d8e8a0831c8215c2d3525add08b509f63118", "blocktime": 1537871767, "version": 1, "confirmations": 11491, "time": 1537871767, "locktime": 0, "vsize": 372, "size": 372}