{"hash": "b5ae20033bdf4037a6cc87f87e847025bc47b5ee0ff6b54de06d7e1808e1a48f", "blockhash": "0000000000000000000baef3f32e3676a92c3b2e5da21b426e4f302fc371ce76", "vout": [{"scriptPubKey": {"reqSigs": 1, "hex": "76a914eede797728bdf1a81b3f173d7b8c336c061090cb88ac", "addresses": ["1Nn2LTHJ6kEW2ZVeEHEW6PyuhuRZf5E5MK"], "asm": "OP_DUP OP_HASH160 eede797728bdf1a81b3f173d7b8c336c061090cb OP_EQUALVERIFY OP_CHECKSIG", "type": "pubkeyhash"}, "value": 0.00030874, "n": 0}, {"scriptPubKey": {"reqSigs": 1, "hex": "a91408c364340a91e77e4376b26fdad3b5aedc5661f787", "addresses": ["32VMQ7Th4qGhbDYY68FZrfSF9hTbsPivgt"], "asm": "OP_HASH160 08c364340a91e77e4376b26fdad3b5aedc5661f7 OP_EQUAL", "type": "scripthash"}, "value": 0.0231797, "n": 1}], "hex": "01000000000101de8dfe5eddd1f2e3d7fccb74e427011866b2fa4449ee566377cb4e1082ac1ab5010000002322002027561ef61439ff4994ea3793249bbb358319edb59fff63c1eeada48f299e81b5ffffffff029a780000000000001976a914eede797728bdf1a81b3f173d7b8c336c061090cb88ac925e23000000000017a91408c364340a91e77e4376b26fdad3b5aedc5661f787040047304402206c19e69470533f026c3994796833b3bea54a01f67c82bf7fef8d4764f87b6aa802206e9f8ebe1f8fa488e97f30658179d1abfa760ab7b95e85b5d35092721cb25bdd01483045022100fca2d6840e4c5a255da851d66a1205df733d5badedd712acfdc25002cb6ef6a702201f2bad83ab4a0e92ab10b7572f2278b29e9be451d4e961a9e99be8b1c55341eb0147522102f484437eae67e7d1f9cf7235bd52510c99f379408a1f6fe737011d4bc259358a2103871fc2ca08e6950b38867e8e6a0e94ee625223d3aa0df5c65f414c6d784467e252ae00000000", "vin": [{"txinwitness": ["", "304402206c19e69470533f026c3994796833b3bea54a01f67c82bf7fef8d4764f87b6aa802206e9f8ebe1f8fa488e97f30658179d1abfa760ab7b95e85b5d35092721cb25bdd01", "3045022100fca2d6840e4c5a255da851d66a1205df733d5badedd712acfdc25002cb6ef6a702201f2bad83ab4a0e92ab10b7572f2278b29e9be451d4e961a9e99be8b1c55341eb01", "522102f484437eae67e7d1f9cf7235bd52510c99f379408a1f6fe737011d4bc259358a2103871fc2ca08e6950b38867e8e6a0e94ee625223d3aa0df5c65f414c6d784467e252ae"], "sequence": 4294967295, "scriptSig": {"hex": "22002027561ef61439ff4994ea3793249bbb358319edb59fff63c1eeada48f299e81b5", "asm": "002027561ef61439ff4994ea3793249bbb358319edb59fff63c1eeada48f299e81b5"}, "vout": 1, "txid": "b51aac82104ecb776356ee4944fab266180127e474cbfcd7e3f2d1dd5efe8dde"}], "txid": "89d1c67085b155e92bcd5be9bab8e4e0be24514fb9d0f13bc3d661a172732618", "blocktime": 1537876114, "version": 1, "confirmations": 11460, "time": 1537876114, "locktime": 0, "vsize": 208, "size": 373}