{"hash": "89d2c2aaa776eec87a92be372fa8f62c64db0e3bdb7a628510e68aacdb6633d4", "blockhash": "0000000000000000001cda96e906b7601b7a6fb1a3b62bca570a9e5d8f4b3de1", "vout": [{"scriptPubKey": {"reqSigs": 1, "hex": "a914eb6cd4a315a1e1ea4c6b9083034b575675f827eb87", "addresses": ["3P9q6JneyRhJu74DDMmtV8KR26ZseQ2PNr"], "asm": "OP_HASH160 eb6cd4a315a1e1ea4c6b9083034b575675f827eb OP_EQUAL", "type": "scripthash"}, "value": 0.00821027, "n": 0}], "hex": "01000000011f56de0485e23e2652d23bc099f1b42dfe1739d96dca5dbe9823f24a59d5b72d010000006a47304402204db5abe1974a3c1ebd313aee65b2d43e81b63840929431548f85782818a6fc5e02203ea5dcbd4e4cd00d0e6266dc0ef0a7cabcea8cdd5ab5a6bb171dfaa95f632d810121026b46df5c0e45d487a086a47aa7d07fbc424e5b2a8a7ff2947d0be0f03763e143ffffffff0123870c000000000017a914eb6cd4a315a1e1ea4c6b9083034b575675f827eb8700000000", "vin": [{"sequence": 4294967295, "scriptSig": {"hex": "47304402204db5abe1974a3c1ebd313aee65b2d43e81b63840929431548f85782818a6fc5e02203ea5dcbd4e4cd00d0e6266dc0ef0a7cabcea8cdd5ab5a6bb171dfaa95f632d810121026b46df5c0e45d487a086a47aa7d07fbc424e5b2a8a7ff2947d0be0f03763e143", "asm": "304402204db5abe1974a3c1ebd313aee65b2d43e81b63840929431548f85782818a6fc5e02203ea5dcbd4e4cd00d0e6266dc0ef0a7cabcea8cdd5ab5a6bb171dfaa95f632d81[ALL] 026b46df5c0e45d487a086a47aa7d07fbc424e5b2a8a7ff2947d0be0f03763e143"}, "vout": 1, "txid": "2db7d5594af22398be5dca6dd93917fe2db4f199c03bd252263ee28504de561f"}], "txid": "89d2c2aaa776eec87a92be372fa8f62c64db0e3bdb7a628510e68aacdb6633d4", "blocktime": 1537873282, "version": 1, "confirmations": 11484, "time": 1537873282, "locktime": 0, "vsize": 189, "size": 189}