{"hash": "4280b6790c8cfd083609818824cbcac2a8bec726e102cdeedce940bf205da2bc", "blockhash": "0000000000000000001f76057863aec43deb6fa401d9628bb513d65a8098bfab", "vout": [{"scriptPubKey": {"reqSigs": 1, "hex": "76a9142e1b944fe7ffbe969fc1df8d662fd7b5d6303c9b88ac", "addresses": ["15Co856cRnFRCKwSSzECoyT3ozVhuFoJZ6"], "asm": "OP_DUP OP_HASH160 2e1b944fe7ffbe969fc1df8d662fd7b5d6303c9b OP_EQUALVERIFY OP_CHECKSIG", "type": "pubkeyhash"}, "value": 0.0025636, "n": 0}, {"scriptPubKey": {"reqSigs": 1, "hex": "a914db0988b0010ced5ef85493cdd988dc4b5bcffa6387", "addresses": ["3MfBKz2gWBanb9tTcKcpTLRodBE1zjY9KP"], "asm": "OP_HASH160 db0988b0010ced5ef85493cdd988dc4b5bcffa63 OP_EQUAL", "type": "scripthash"}, "value": 0.01015529, "n": 1}], "hex": "020000000001023c71d59b3e86c8eb7e3dceb0691618afadcfcc280284e3fee2c5deaa8566c58a00000000171600141721affa64d4b167135a0aecef9f878755bd8ae4feffffff5ebbdd1ecfb36ad95116ab350aafcfba746aaf480505127c59e09a635673ba6a0000000017160014f19c6ab0b269a03e5d0d33079ecbb706201d6c79feffffff0268e90300000000001976a9142e1b944fe7ffbe969fc1df8d662fd7b5d6303c9b88ace97e0f000000000017a914db0988b0010ced5ef85493cdd988dc4b5bcffa638702483045022100c58a78d3988ebc0e5d4d06488d8feb64d6feee2903f9f4efed759e3e8aa5dbb50220732f426922e6f250a797cb33d36a51d2fd8f1016f4f52a573541a2c2f076ef1a0121022764056c6ee7a3051fb316fe0c3bb3456d2c803389e998bcb96db3f4a1c781cb02483045022100875eb665504a7c5d44627d83da9a31b42d01968a1da13830d5243117057f6b6e022006acb65721b5008738ac9eedee4cd12c19520c49f44d087464426c551b956be60121022f4240c6563d3916bc5849bec3963c95ad19ab65f516baac8a331f694799835b14490800", "vin": [{"txinwitness": ["3045022100c58a78d3988ebc0e5d4d06488d8feb64d6feee2903f9f4efed759e3e8aa5dbb50220732f426922e6f250a797cb33d36a51d2fd8f1016f4f52a573541a2c2f076ef1a01", "022764056c6ee7a3051fb316fe0c3bb3456d2c803389e998bcb96db3f4a1c781cb"], "sequence": 4294967294, "scriptSig": {"hex": "1600141721affa64d4b167135a0aecef9f878755bd8ae4", "asm": "00141721affa64d4b167135a0aecef9f878755bd8ae4"}, "vout": 0, "txid": "8ac56685aadec5e2fee3840228cccfadaf181669b0ce3d7eebc8863e9bd5713c"}, {"txinwitness": ["3045022100875eb665504a7c5d44627d83da9a31b42d01968a1da13830d5243117057f6b6e022006acb65721b5008738ac9eedee4cd12c19520c49f44d087464426c551b956be601", "022f4240c6563d3916bc5849bec3963c95ad19ab65f516baac8a331f694799835b"], "sequence": 4294967294, "scriptSig": {"hex": "160014f19c6ab0b269a03e5d0d33079ecbb706201d6c79", "asm": "0014f19c6ab0b269a03e5d0d33079ecbb706201d6c79"}, "vout": 0, "txid": "6aba7356639ae0597c12050548af6a74bacfaf0a35ab1651d96ab3cf1eddbb5e"}], "txid": "89d609ab96f331af9fb88947835f4910cc0509e2b9c7434d3b254da8e929d7f3", "blocktime": 1537873891, "version": 2, "confirmations": 11478, "time": 1537873891, "locktime": 542996, "vsize": 259, "size": 422}