{"hash": "89d9ca6aa56e36ffa067db6b3715fa19c2ec5e39ae45d6ed0653011b6ddeccaf", "blockhash": "0000000000000000000dcc0f55137456b1a82d3642486a52398922ac4d620174", "vout": [{"scriptPubKey": {"type": "nulldata", "hex": "6a146f6d6e69000000000000001f00000f952ac43835", "asm": "OP_RETURN 6f6d6e69000000000000001f00000f952ac43835"}, "value": 0.0, "n": 0}, {"scriptPubKey": {"reqSigs": 1, "hex": "76a9142f856ac236824a386a8a92e3852262ffdbdfe06c88ac", "addresses": ["15LGazdA4qhK6UpK51EtYtK8V2FNvpnwDr"], "asm": "OP_DUP OP_HASH160 2f856ac236824a386a8a92e3852262ffdbdfe06c OP_EQUALVERIFY OP_CHECKSIG", "type": "pubkeyhash"}, "value": 5.46e-06, "n": 1}, {"scriptPubKey": {"reqSigs": 1, "hex": "76a914a25dec4d0011064ef106a983c39c7a540699f22088ac", "addresses": ["1FoWyxwPXuj4C6abqwhjDWdz6D4PZgYRjA"], "asm": "OP_DUP OP_HASH160 a25dec4d0011064ef106a983c39c7a540699f220 OP_EQUALVERIFY OP_CHECKSIG", "type": "pubkeyhash"}, "value": 0.01971199, "n": 2}], "hex": "0100000001113573319fb93ea0d980eda62b6b45be5be4c4dbe832ae29ebd98aa625c9a921010000006b483045022100e3b91f418cf0d29da277b7e8402d584b0e2ede8d807cf9178115273199773f1f02205497a8034267f9ee5863a94f4773fe279b09afe43416ca00e944d2bd165de3ec012103da5bac7b36d5aa38f531c6b9601e21bb598a4b6716ebed38b009a55dabde9440feffffff030000000000000000166a146f6d6e69000000000000001f00000f952ac4383522020000000000001976a9142f856ac236824a386a8a92e3852262ffdbdfe06c88acff131e00000000001976a914a25dec4d0011064ef106a983c39c7a540699f22088ac0c490800", "vin": [{"sequence": 4294967294, "scriptSig": {"hex": "483045022100e3b91f418cf0d29da277b7e8402d584b0e2ede8d807cf9178115273199773f1f02205497a8034267f9ee5863a94f4773fe279b09afe43416ca00e944d2bd165de3ec012103da5bac7b36d5aa38f531c6b9601e21bb598a4b6716ebed38b009a55dabde9440", "asm": "3045022100e3b91f418cf0d29da277b7e8402d584b0e2ede8d807cf9178115273199773f1f02205497a8034267f9ee5863a94f4773fe279b09afe43416ca00e944d2bd165de3ec[ALL] 03da5bac7b36d5aa38f531c6b9601e21bb598a4b6716ebed38b009a55dabde9440"}, "vout": 1, "txid": "21a9c925a68ad9eb29ae32e8dbc4e45bbe456b2ba6ed80d9a03eb99f31733511"}], "txid": "89d9ca6aa56e36ffa067db6b3715fa19c2ec5e39ae45d6ed0653011b6ddeccaf", "blocktime": 1537870268, "version": 1, "confirmations": 11516, "time": 1537870268, "locktime": 542988, "vsize": 257, "size": 257}