{"hash": "89ddd68088a2885bbedc4a5526d6492a1b12cb35cafde5e9e7d52b77be60293b", "blockhash": "0000000000000000001cda96e906b7601b7a6fb1a3b62bca570a9e5d8f4b3de1", "vout": [{"scriptPubKey": {"reqSigs": 1, "hex": "76a91497972a5c224d3b884f93cc0515d1b9779643186788ac", "addresses": ["1EpY88P8P7fgfsSn1v4c7dnxLVetZp9fWe"], "asm": "OP_DUP OP_HASH160 97972a5c224d3b884f93cc0515d1b97796431867 OP_EQUALVERIFY OP_CHECKSIG", "type": "pubkeyhash"}, "value": 0.00248694, "n": 0}], "hex": "010000000145eee7ccf5bbcf2c8b32c7c03a44b3fbb677e1590e7cb53cb04365b8e45724f9000000006b48304502210088ee54f5a73fdcf17df2b6978332699660613903707b078ae3dca0376cc7533102203ef48896f0f70d7c388a5e67b96af85bcbf8a6ecf732b59878672f1816bdc0ad01210227b658b50738bb77b8cb22e7289ef8357db399a2a4c51563269c898f8d67e9f6ffffffff0176cb0300000000001976a91497972a5c224d3b884f93cc0515d1b9779643186788ac00000000", "vin": [{"sequence": 4294967295, "scriptSig": {"hex": "48304502210088ee54f5a73fdcf17df2b6978332699660613903707b078ae3dca0376cc7533102203ef48896f0f70d7c388a5e67b96af85bcbf8a6ecf732b59878672f1816bdc0ad01210227b658b50738bb77b8cb22e7289ef8357db399a2a4c51563269c898f8d67e9f6", "asm": "304502210088ee54f5a73fdcf17df2b6978332699660613903707b078ae3dca0376cc7533102203ef48896f0f70d7c388a5e67b96af85bcbf8a6ecf732b59878672f1816bdc0ad[ALL] 0227b658b50738bb77b8cb22e7289ef8357db399a2a4c51563269c898f8d67e9f6"}, "vout": 0, "txid": "f92457e4b86543b03cb57c0e59e177b6fbb3443ac0c7328b2ccfbbf5cce7ee45"}], "txid": "89ddd68088a2885bbedc4a5526d6492a1b12cb35cafde5e9e7d52b77be60293b", "blocktime": 1537873282, "version": 1, "confirmations": 11484, "time": 1537873282, "locktime": 0, "vsize": 192, "size": 192}