{"hash": "89de22a467959051e1936705f02dfdfe76ba0e6a849de909556b23040feead15", "blockhash": "0000000000000000001f76057863aec43deb6fa401d9628bb513d65a8098bfab", "vout": [{"scriptPubKey": {"reqSigs": 1, "hex": "76a9140dbe1e3d235cf03575211a1e0a382c587012fdb888ac", "addresses": ["12FfY8gL7T7EgsHKrt5r9vULUAVnAHGaWQ"], "asm": "OP_DUP OP_HASH160 0dbe1e3d235cf03575211a1e0a382c587012fdb8 OP_EQUALVERIFY OP_CHECKSIG", "type": "pubkeyhash"}, "value": 0.06483859, "n": 0}, {"scriptPubKey": {"reqSigs": 1, "hex": "76a9149df7e539cf740372a075d7f407430abc4f4cc8a888ac", "addresses": ["1FQG4CB6HFTbJ83bEdacgtsze3v9ftp3zx"], "asm": "OP_DUP OP_HASH160 9df7e539cf740372a075d7f407430abc4f4cc8a8 OP_EQUALVERIFY OP_CHECKSIG", "type": "pubkeyhash"}, "value": 0.02736086, "n": 1}], "hex": "010000000145856c23ba003c732761cef5e29bbbad958b04da746f9a7d1aa4979f6b919675000000006b483045022100b7df999bd70612c12cb4a5facc4420a4ad2701d18c30d42b134de896ce851d1602202881b8ab84a3a011fe74a8655d92509bb4bb933042f283fb560563a29fa4889b0121025ec20c12e05a640b777229ff819f4c29f8c4064d29597839652d2f43135be723ffffffff0293ef6200000000001976a9140dbe1e3d235cf03575211a1e0a382c587012fdb888acd6bf2900000000001976a9149df7e539cf740372a075d7f407430abc4f4cc8a888ac00000000", "vin": [{"sequence": 4294967295, "scriptSig": {"hex": "483045022100b7df999bd70612c12cb4a5facc4420a4ad2701d18c30d42b134de896ce851d1602202881b8ab84a3a011fe74a8655d92509bb4bb933042f283fb560563a29fa4889b0121025ec20c12e05a640b777229ff819f4c29f8c4064d29597839652d2f43135be723", "asm": "3045022100b7df999bd70612c12cb4a5facc4420a4ad2701d18c30d42b134de896ce851d1602202881b8ab84a3a011fe74a8655d92509bb4bb933042f283fb560563a29fa4889b[ALL] 025ec20c12e05a640b777229ff819f4c29f8c4064d29597839652d2f43135be723"}, "vout": 0, "txid": "7596916b9f97a41a7d9a6f74da048b95adbb9be2f5ce6127733c00ba236c8545"}], "txid": "89de22a467959051e1936705f02dfdfe76ba0e6a849de909556b23040feead15", "blocktime": 1537873891, "version": 1, "confirmations": 11478, "time": 1537873891, "locktime": 0, "vsize": 226, "size": 226}