{"hash": "2401d727682897d68d4f0e9ffdae2d9004ce655fa62cccca286cf66f03353fcb", "blockhash": "00000000000000000004ffacab907a6b429b9a5745fa0b75af4234bf69dd7176", "vout": [{"scriptPubKey": {"reqSigs": 1, "hex": "a914098027763c215c422967b4445dc16d2464fea28487", "addresses": ["32ZFXaPgXyxbC8RQ9QJaC7HTATNQgiQVoM"], "asm": "OP_HASH160 098027763c215c422967b4445dc16d2464fea284 OP_EQUAL", "type": "scripthash"}, "value": 0.20150388, "n": 0}, {"scriptPubKey": {"reqSigs": 1, "hex": "76a914d4819554473e79f55d1f4e4fb2c3b87a17f4d45788ac", "addresses": ["1LNdVGwLkqvcSGvZ2eEsGhbpSo4thuaey3"], "asm": "OP_DUP OP_HASH160 d4819554473e79f55d1f4e4fb2c3b87a17f4d457 OP_EQUALVERIFY OP_CHECKSIG", "type": "pubkeyhash"}, "value": 0.00914, "n": 1}], "hex": "020000000001011bc8e9e8b9a0c3edbba2525bea34f30a653d805743d056902b87f58ed9ba67fe0000000017160014d99787e52b784ce68dc673403bb06b408d140853fdffffff02747833010000000017a914098027763c215c422967b4445dc16d2464fea2848750f20d00000000001976a914d4819554473e79f55d1f4e4fb2c3b87a17f4d45788ac02483045022100bf503d28e083fe9e4e9fbf5aa2f79aef2a805a0c49140a3c0cf5922855280d98022023278ddba2e5f2ea1b87f96681c799e2bc7b5a6cdd8313c05a4dc5da59d41ff50121029688b929d2ed3611b94a45fddac9830fb399d5de729a427f2f084d6964aa79fd16490800", "vin": [{"txinwitness": ["3045022100bf503d28e083fe9e4e9fbf5aa2f79aef2a805a0c49140a3c0cf5922855280d98022023278ddba2e5f2ea1b87f96681c799e2bc7b5a6cdd8313c05a4dc5da59d41ff501", "029688b929d2ed3611b94a45fddac9830fb399d5de729a427f2f084d6964aa79fd"], "sequence": 4294967293, "scriptSig": {"hex": "160014d99787e52b784ce68dc673403bb06b408d140853", "asm": "0014d99787e52b784ce68dc673403bb06b408d140853"}, "vout": 0, "txid": "fe67bad98ef5872b9056d04357803d650af334ea5b52a2bbedc3a0b9e8e9c81b"}], "txid": "89f4f1b7c0b7b39596b57f04d9c80d56b0b00c21bcc091487fe0e036aa702b24", "blocktime": 1537875543, "version": 2, "confirmations": 11464, "time": 1537875543, "locktime": 542998, "vsize": 168, "size": 250}