{"hash": "44f598fc93e92f2d40ccb40510e2dd533562b95ebd4ae3226c6211c6b54af200", "blockhash": "0000000000000000000dcc0f55137456b1a82d3642486a52398922ac4d620174", "vout": [{"scriptPubKey": {"reqSigs": 1, "hex": "a91401c11544416cc27207cb075b40b3f99721d6fe6f87", "addresses": ["31rHuP9ZKhPTBchiKQAfWXA5Lgcri8CQUb"], "asm": "OP_HASH160 01c11544416cc27207cb075b40b3f99721d6fe6f OP_EQUAL", "type": "scripthash"}, "value": 0.16399765, "n": 0}, {"scriptPubKey": {"reqSigs": 1, "hex": "a91467cada5ffc808bfeed21f770912a1d80e7124f3787", "addresses": ["3B9pXn4TGDtyxHyrDec12mMQV2ejm5k7yk"], "asm": "OP_HASH160 67cada5ffc808bfeed21f770912a1d80e7124f37 OP_EQUAL", "type": "scripthash"}, "value": 0.01014278, "n": 1}], "hex": "02000000000105047ddd85f170584d2efa843ede69836d583f05b5975d030dbf3aeedee96d7c070000000017160014cc598b7cf615c9b9fc554a31f2c43c8ddc1a60c2feffffff6e4f70d4cb926dd8c93faa91cb006ab0daa55fc0ce7c67f9ac4d5518fffeb67e000000001716001420552ebc7579c21a2a8cb5e2807be57f2314e431feffffff73aa6ac281204eb773dd5f3a04eca6f6c704b676e97275d26519cd05ccc8f3cf01000000171600140c9abcbd2ed0b7ac8c798bfdc6514db62dbd7564feffffff91a198c03105da43cafbd272cdd905f3c3235670bd1133bdc524385bcf5b4db41b000000171600142c61ef1349d1ccd2c5f2ea5ed4fa7c145a458a3dfeffffffed24bf93b3a1fa87bd0a915faf7bd6d898c4cd9634f8c96ab41bf327cc33f0f6f90000001716001480d11568517e906b2076f3cbe9d9b684748f2a49feffffff02953dfa000000000017a91401c11544416cc27207cb075b40b3f99721d6fe6f87067a0f000000000017a91467cada5ffc808bfeed21f770912a1d80e7124f378702483045022100a4d5a0370db7a90f3f34f7770972d9be1492024b6d8f4f316af42024d3ac637a022057235d52fd7be87695abc3c1bf81b1cb5d472d9a27d0b0d4191aecb5e3e2078d0121020216cb97ed1b3d4d6def279a84d3ef5f1308ab90b3bfd41ec5184ed9ea3433360247304402205d62ecf517862d92f17e69b00547dc947d0478a4229050dceb761c60ae22cc620220008a00f970fc1db706f8e7b8bb7e3fe40e720e43273085813e8aa5201f2682050121022812dccbf59ebe63c787f52b2d569b4989e6a5e6c6f6addc65cda6dd0cb205570246304302200202b3ceae4ea337d28c12a34711fefc9364aa3e23c6744bf58aab58e8524ca9021f2f395aa5f184296024848a7302c70eb466ccfd7f47cc3ee147040ca1c8dfe80121021355b9a8fb3454b3e338898f741c04ed8076cbd37f72c4d5927eca05a25b32db0247304402203d1d79e9df242c30a56ba677f9109421f33bc72723efba28cd2c3b51ff846e16022055bcb44b8133124116847f1be588cfe1448e5bd1289327e676d368d595fbf658012102d6515ffd7db1617a0e3f87134be3f05fcb424416ce663f926b61a527709cd54502483045022100d75d7beb891a002f3b5bbac368ad545c8349b2987f4d695495c98c68a38fd26f02202203fcdced1df78370bf5b36f5341ebc0a02ae5ec65bdfff3120683dff2c352d012102077adc7cb39b108205fdde3b6751be6dd71bea72fb571250066ee366f31f59640b490800", "vin": [{"txinwitness": ["3045022100a4d5a0370db7a90f3f34f7770972d9be1492024b6d8f4f316af42024d3ac637a022057235d52fd7be87695abc3c1bf81b1cb5d472d9a27d0b0d4191aecb5e3e2078d01", "020216cb97ed1b3d4d6def279a84d3ef5f1308ab90b3bfd41ec5184ed9ea343336"], "sequence": 4294967294, "scriptSig": {"hex": "160014cc598b7cf615c9b9fc554a31f2c43c8ddc1a60c2", "asm": "0014cc598b7cf615c9b9fc554a31f2c43c8ddc1a60c2"}, "vout": 0, "txid": "077c6de9deee3abf0d035d97b5053f586d8369de3e84fa2e4d5870f185dd7d04"}, {"txinwitness": ["304402205d62ecf517862d92f17e69b00547dc947d0478a4229050dceb761c60ae22cc620220008a00f970fc1db706f8e7b8bb7e3fe40e720e43273085813e8aa5201f26820501", "022812dccbf59ebe63c787f52b2d569b4989e6a5e6c6f6addc65cda6dd0cb20557"], "sequence": 4294967294, "scriptSig": {"hex": "16001420552ebc7579c21a2a8cb5e2807be57f2314e431", "asm": "001420552ebc7579c21a2a8cb5e2807be57f2314e431"}, "vout": 0, "txid": "7eb6feff18554dacf9677ccec05fa5dab06a00cb91aa3fc9d86d92cbd4704f6e"}, {"txinwitness": ["304302200202b3ceae4ea337d28c12a34711fefc9364aa3e23c6744bf58aab58e8524ca9021f2f395aa5f184296024848a7302c70eb466ccfd7f47cc3ee147040ca1c8dfe801", "021355b9a8fb3454b3e338898f741c04ed8076cbd37f72c4d5927eca05a25b32db"], "sequence": 4294967294, "scriptSig": {"hex": "1600140c9abcbd2ed0b7ac8c798bfdc6514db62dbd7564", "asm": "00140c9abcbd2ed0b7ac8c798bfdc6514db62dbd7564"}, "vout": 1, "txid": "cff3c8cc05cd1965d27572e976b604c7f6a6ec043a5fdd73b74e2081c26aaa73"}, {"txinwitness": ["304402203d1d79e9df242c30a56ba677f9109421f33bc72723efba28cd2c3b51ff846e16022055bcb44b8133124116847f1be588cfe1448e5bd1289327e676d368d595fbf65801", "02d6515ffd7db1617a0e3f87134be3f05fcb424416ce663f926b61a527709cd545"], "sequence": 4294967294, "scriptSig": {"hex": "1600142c61ef1349d1ccd2c5f2ea5ed4fa7c145a458a3d", "asm": "00142c61ef1349d1ccd2c5f2ea5ed4fa7c145a458a3d"}, "vout": 27, "txid": "b44d5bcf5b3824c5bd3311bd705623c3f305d9cd72d2fbca43da0531c098a191"}, {"txinwitness": ["3045022100d75d7beb891a002f3b5bbac368ad545c8349b2987f4d695495c98c68a38fd26f02202203fcdced1df78370bf5b36f5341ebc0a02ae5ec65bdfff3120683dff2c352d01", "02077adc7cb39b108205fdde3b6751be6dd71bea72fb571250066ee366f31f5964"], "sequence": 4294967294, "scriptSig": {"hex": "16001480d11568517e906b2076f3cbe9d9b684748f2a49", "asm": "001480d11568517e906b2076f3cbe9d9b684748f2a49"}, "vout": 249, "txid": "f6f033cc27f31bb46ac9f83496cdc498d8d67baf5f910abd87faa1b393bf24ed"}], "txid": "89f5aba39c17a20686e94a62ab55f01587509eac07bdf3cb0a6b03a57b2d0c09", "blocktime": 1537870268, "version": 2, "confirmations": 11518, "time": 1537870268, "locktime": 542987, "vsize": 529, "size": 932}