{"hash": "1f66f9e37f46780b3dd747f6b69f28ae9fcbd7eb53b9adcb9c6bbb62cc3214f7", "blockhash": "00000000000000000017f5eb5941039fbcee6240d03bc1f2f8e35350df66a1d8", "vout": [{"scriptPubKey": {"reqSigs": 1, "hex": "76a914ac371191a5d52d575c33d6dc755e0ea26c348fab88ac", "addresses": ["1GhbCEMVbfCGQqDNppWF25scQyzzrheTaa"], "asm": "OP_DUP OP_HASH160 ac371191a5d52d575c33d6dc755e0ea26c348fab OP_EQUALVERIFY OP_CHECKSIG", "type": "pubkeyhash"}, "value": 0.01827856, "n": 0}, {"scriptPubKey": {"reqSigs": 1, "hex": "a9149ecde968e2d41972fa65ff9f3ea7b9ef83ee6bf187", "addresses": ["3GAhMrQWbt89csvGdw1BZMAmsL1UQHeDoR"], "asm": "OP_HASH160 9ecde968e2d41972fa65ff9f3ea7b9ef83ee6bf1 OP_EQUAL", "type": "scripthash"}, "value": 0.03318479, "n": 1}], "hex": "010000000001011ea0b41040ed2bb3df06489b6da0a32ab5311398ea04ea8808e1a316730e4836010000001716001411bf475ed7fc3ed9017b0713ca9d3500b4e58196ffffffff0210e41b00000000001976a914ac371191a5d52d575c33d6dc755e0ea26c348fab88accfa232000000000017a9149ecde968e2d41972fa65ff9f3ea7b9ef83ee6bf187024830450221009c7fcc3fc117e9cc8b1414c867244603cc41035d3a33eb5956eadfc76109da83022033633a76a83bfe32f693b2f880cfcaf218f2170ed9423aa8b2db344c231fd300012102cec4b3c327da22653c86973ad89854d538e48300707d714c461e33b5732cb88700000000", "vin": [{"txinwitness": ["30450221009c7fcc3fc117e9cc8b1414c867244603cc41035d3a33eb5956eadfc76109da83022033633a76a83bfe32f693b2f880cfcaf218f2170ed9423aa8b2db344c231fd30001", "02cec4b3c327da22653c86973ad89854d538e48300707d714c461e33b5732cb887"], "sequence": 4294967295, "scriptSig": {"hex": "16001411bf475ed7fc3ed9017b0713ca9d3500b4e58196", "asm": "001411bf475ed7fc3ed9017b0713ca9d3500b4e58196"}, "vout": 1, "txid": "36480e7316a3e10888ea04ea981331b52aa3a06d9b4806dfb32bed4010b4a01e"}], "txid": "89faeff0caf94ea9e886b25dbe6fe15df536a75af88e2029f4f00db619e3d84b", "blocktime": 1537874412, "version": 1, "confirmations": 11468, "time": 1537874412, "locktime": 0, "vsize": 168, "size": 250}