{"hash": "88e98dc3741cac84fe84ad35754962a169f3e452bd04db0e10eb5d32b34a333b", "blockhash": "000000000000000000022b45ed06c6f4ccd3cf7fb5ba4856ebd2e58215665228", "vout": [{"scriptPubKey": {"reqSigs": 1, "hex": "76a914d285d96eaf65737f1f4d43f3125882ff9ed5e54688ac", "addresses": ["1LC9FJPy7D7wMhkG5VVQVQJMsQfEo72DQW"], "asm": "OP_DUP OP_HASH160 d285d96eaf65737f1f4d43f3125882ff9ed5e546 OP_EQUALVERIFY OP_CHECKSIG", "type": "pubkeyhash"}, "value": 0.22978205, "n": 0}, {"scriptPubKey": {"reqSigs": 1, "hex": "a9140f2667b5aa52bfc3921d0d92a0610794de69103c87", "addresses": ["33584rZvqyNfUTDiWwtSyABijndUVms5Xa"], "asm": "OP_HASH160 0f2667b5aa52bfc3921d0d92a0610794de69103c OP_EQUAL", "type": "scripthash"}, "value": 0.0231621, "n": 1}], "hex": "01000000000105fce9c7b1574c18dde16ebac8577a1308b11a4a461078a07bd629b920cfff7b9d0100000023220020d014e74327db5c66fdd5ad263bede3a6c5536d1403eb76c0ccc851e2b084d39dffffffffb6335708e8d43599e087e746d28a3acd499758aa5aa4652a481491fe149aab2f0100000023220020bc6f004e6f7de02e07c801d2537d554f3ab005603a5a6bbc97fa3ed7a88508ecfffffffffb42225d76ada5738ec58ec6da057c6790b75d4ae23904ccbc8e903a13b743180000000023220020fab0db33b3a7c65e805f3f05fbd5080603b7d7922d171c33686c43d67ab7bab0ffffffff1850f75bae30c5998fd19af1f2c107a8f59963c0710afa32acb75d9c77a5fd4100000000232200206464067308ba7335c26ac01c9daba64c89e40eaadf3ce10c755a726932734dc0ffffffffa3841f10f55c25738107d026784cf660e525eb654d427cb6b389f3311f10174e0100000023220020382741c56cf940b31405df8a7a3ef8f4bf2022df46ed4a4481fecea727369910ffffffff029d9e5e01000000001976a914d285d96eaf65737f1f4d43f3125882ff9ed5e54688acb25723000000000017a9140f2667b5aa52bfc3921d0d92a0610794de69103c87040047304402202fc961e45d7ba18bf6a15953fd59ebe2002f4287448e170ce84733c195a30ca5022016a1f56964e9efd7cc4d5d742d9bf1b95b91970898bc140a0a7fc4cd6ed457f801483045022100afd443616c0950407cc08b12d90746c273cd0b5a7f73ad9747524d473c30415e02203959b7b21bbbb0507af82072436a81f05a68a4e346b32d0fab92f08d0ac0ac890147522103f6fcb3a3af754e02b9c2199076d625b8b1ce1756c047af503580e79daeb11cf721038407424ead2b88063db2d589e50c34e1572f6b82eb9e266dec536939ee0db9eb52ae040047304402206b2ef66516f2b695bad8571e6d09ecb83563cc7bc6133df407ef8da2e624c1870220242e85845f2a78ab64efbc90bb39aa0b07683f863b1bf3df22a7a255c6f0d1c201473044022036269d82d277c8734b4e6082865d386466bdd6678ea81b4774da666c496368ba022073b6a1bbbc362514257a604b18274b0db6812add21784f593553853f6369a7b00147522103ee80f2e6a99080bc8e3261b9c72fe3f4c574dad228fc3ec114302f311f37026c21038407424ead2b88063db2d589e50c34e1572f6b82eb9e266dec536939ee0db9eb52ae04004830450221009935289e4c48557219e4b7e6e52f51cd3b52238d52d43f7dfb366d13d3261cae022065bd39ccd61bc11bc7886f65a628c75b0ad85b55a5343203ac922745a7823adb01473044022078967e467383f4a97b0cce527e798d05ff034aab16624e28082823dae3ab7c7602204e396cf109d05ceb16e9a56cdd0bb3327425b6829e42cb0ce58e3e7d25732bf1014752210226bf71d0d3f9d4e0bafd67dbe9a362599408528767204326c3efa648907b204e21038407424ead2b88063db2d589e50c34e1572f6b82eb9e266dec536939ee0db9eb52ae0400483045022100d617b51e6b0faaa6e79a73d9bdb285ff9eecd8afcbe49ff95cfd944c0f3fe64802204ceb3c4cb6f8bcc337ea478dfafe16770828e3cf26b8c55d1f6d5351fe78f6580147304402203e6f36f93b8e2883134d8c2ef3dfcba739b11440b0adc3f9d0b58609b222301502204d8d3b26ef59d289a31d1ccbf2efd9cdb1e6b369555d2d78235d4cdd0f4e7667014752210329a95de23c95d7ac816e724e5321ced060ee03dcd3037fa92ccbcee3c25f02c421038407424ead2b88063db2d589e50c34e1572f6b82eb9e266dec536939ee0db9eb52ae040047304402201dfc6a67a1c303f2a478734fd7ff7cacc383f0862f71f453f7e5d766edd7644d022076e3e1a83c2cbc9d81cd3051966417a3be07f4ae2f3349e2d7676537abe961300147304402204afaf0f9f7a41e8cc97eb44c0bb0f891c7ea9ee1b5d4020e822757d7e56b0dd502201a3062133a579b2a501ad66458f64841d52450f3caf649c49d4acde2388fb6f80147522102f39790332e9debafb271ff999bbd567d4c8a308b5e5400f5508bd71b9100dc3321038407424ead2b88063db2d589e50c34e1572f6b82eb9e266dec536939ee0db9eb52ae00000000", "vin": [{"txinwitness": ["", "304402202fc961e45d7ba18bf6a15953fd59ebe2002f4287448e170ce84733c195a30ca5022016a1f56964e9efd7cc4d5d742d9bf1b95b91970898bc140a0a7fc4cd6ed457f801", "3045022100afd443616c0950407cc08b12d90746c273cd0b5a7f73ad9747524d473c30415e02203959b7b21bbbb0507af82072436a81f05a68a4e346b32d0fab92f08d0ac0ac8901", "522103f6fcb3a3af754e02b9c2199076d625b8b1ce1756c047af503580e79daeb11cf721038407424ead2b88063db2d589e50c34e1572f6b82eb9e266dec536939ee0db9eb52ae"], "sequence": 4294967295, "scriptSig": {"hex": "220020d014e74327db5c66fdd5ad263bede3a6c5536d1403eb76c0ccc851e2b084d39d", "asm": "0020d014e74327db5c66fdd5ad263bede3a6c5536d1403eb76c0ccc851e2b084d39d"}, "vout": 1, "txid": "9d7bffcf20b929d67ba07810464a1ab108137a57c8ba6ee1dd184c57b1c7e9fc"}, {"txinwitness": ["", "304402206b2ef66516f2b695bad8571e6d09ecb83563cc7bc6133df407ef8da2e624c1870220242e85845f2a78ab64efbc90bb39aa0b07683f863b1bf3df22a7a255c6f0d1c201", "3044022036269d82d277c8734b4e6082865d386466bdd6678ea81b4774da666c496368ba022073b6a1bbbc362514257a604b18274b0db6812add21784f593553853f6369a7b001", "522103ee80f2e6a99080bc8e3261b9c72fe3f4c574dad228fc3ec114302f311f37026c21038407424ead2b88063db2d589e50c34e1572f6b82eb9e266dec536939ee0db9eb52ae"], "sequence": 4294967295, "scriptSig": {"hex": "220020bc6f004e6f7de02e07c801d2537d554f3ab005603a5a6bbc97fa3ed7a88508ec", "asm": "0020bc6f004e6f7de02e07c801d2537d554f3ab005603a5a6bbc97fa3ed7a88508ec"}, "vout": 1, "txid": "2fab9a14fe9114482a65a45aaa589749cd3a8ad246e787e09935d4e8085733b6"}, {"txinwitness": ["", "30450221009935289e4c48557219e4b7e6e52f51cd3b52238d52d43f7dfb366d13d3261cae022065bd39ccd61bc11bc7886f65a628c75b0ad85b55a5343203ac922745a7823adb01", "3044022078967e467383f4a97b0cce527e798d05ff034aab16624e28082823dae3ab7c7602204e396cf109d05ceb16e9a56cdd0bb3327425b6829e42cb0ce58e3e7d25732bf101", "52210226bf71d0d3f9d4e0bafd67dbe9a362599408528767204326c3efa648907b204e21038407424ead2b88063db2d589e50c34e1572f6b82eb9e266dec536939ee0db9eb52ae"], "sequence": 4294967295, "scriptSig": {"hex": "220020fab0db33b3a7c65e805f3f05fbd5080603b7d7922d171c33686c43d67ab7bab0", "asm": "0020fab0db33b3a7c65e805f3f05fbd5080603b7d7922d171c33686c43d67ab7bab0"}, "vout": 0, "txid": "1843b7133a908ebccc0439e24a5db790677c05dac68ec58e73a5ad765d2242fb"}, {"txinwitness": ["", "3045022100d617b51e6b0faaa6e79a73d9bdb285ff9eecd8afcbe49ff95cfd944c0f3fe64802204ceb3c4cb6f8bcc337ea478dfafe16770828e3cf26b8c55d1f6d5351fe78f65801", "304402203e6f36f93b8e2883134d8c2ef3dfcba739b11440b0adc3f9d0b58609b222301502204d8d3b26ef59d289a31d1ccbf2efd9cdb1e6b369555d2d78235d4cdd0f4e766701", "52210329a95de23c95d7ac816e724e5321ced060ee03dcd3037fa92ccbcee3c25f02c421038407424ead2b88063db2d589e50c34e1572f6b82eb9e266dec536939ee0db9eb52ae"], "sequence": 4294967295, "scriptSig": {"hex": "2200206464067308ba7335c26ac01c9daba64c89e40eaadf3ce10c755a726932734dc0", "asm": "00206464067308ba7335c26ac01c9daba64c89e40eaadf3ce10c755a726932734dc0"}, "vout": 0, "txid": "41fda5779c5db7ac32fa0a71c06399f5a807c1f2f19ad18f99c530ae5bf75018"}, {"txinwitness": ["", "304402201dfc6a67a1c303f2a478734fd7ff7cacc383f0862f71f453f7e5d766edd7644d022076e3e1a83c2cbc9d81cd3051966417a3be07f4ae2f3349e2d7676537abe9613001", "304402204afaf0f9f7a41e8cc97eb44c0bb0f891c7ea9ee1b5d4020e822757d7e56b0dd502201a3062133a579b2a501ad66458f64841d52450f3caf649c49d4acde2388fb6f801", "522102f39790332e9debafb271ff999bbd567d4c8a308b5e5400f5508bd71b9100dc3321038407424ead2b88063db2d589e50c34e1572f6b82eb9e266dec536939ee0db9eb52ae"], "sequence": 4294967295, "scriptSig": {"hex": "220020382741c56cf940b31405df8a7a3ef8f4bf2022df46ed4a4481fecea727369910", "asm": "0020382741c56cf940b31405df8a7a3ef8f4bf2022df46ed4a4481fecea727369910"}, "vout": 1, "txid": "4e17101f31f389b3b67c424d65eb25e560f64c7826d0078173255cf5101f84a3"}], "txid": "89fbe651eb6b78cba10eb52b73a597b610ba9abce5c84f72cc20e67b905a37c2", "blocktime": 1537869901, "version": 1, "confirmations": 11522, "time": 1537869901, "locktime": 0, "vsize": 730, "size": 1551}