{"hash": "8a05557a7bbb3baac7ce07de2d8b7ff66ff7357afb3c86d113ff7534653ef463", "blockhash": "00000000000000000004ffacab907a6b429b9a5745fa0b75af4234bf69dd7176", "vout": [{"scriptPubKey": {"reqSigs": 1, "hex": "76a91431bf20d391866ecdc2f943af6cf865629e8dc17b88ac", "addresses": ["15Y35Ds9HWKSwLLdfihVbCzjDCHn3Fib4n"], "asm": "OP_DUP OP_HASH160 31bf20d391866ecdc2f943af6cf865629e8dc17b OP_EQUALVERIFY OP_CHECKSIG", "type": "pubkeyhash"}, "value": 0.00796085, "n": 0}, {"scriptPubKey": {"reqSigs": 1, "hex": "a9141bcce66b8b46426a8dc70947aa035a6cab56e29d87", "addresses": ["34E1dRuVmLFmUPKNdAzGAj5UzPr6imrbcq"], "asm": "OP_HASH160 1bcce66b8b46426a8dc70947aa035a6cab56e29d OP_EQUAL", "type": "scripthash"}, "value": 0.048453, "n": 1}], "hex": "01000000025c313618befb7dfa790def731e66494b72b15c2831834abc4b799fb52c9642d5000000006b483045022100ee7f73fd33ccbb5ea2de2060eba0d2f43481d44699fe2e2c8c762c0947ec30e50220738203e9da25dca30f4b9dff55fd7526c1c0c6ebcf6ab8400b0b121ed25708c00121031084371e40033c2bc6af227c924a3ffee01bdf5da4a5dc7e6f0ca9e01d0ab7b4ffffffff75332690ab13289691a244441674e08e22dd9737bd9b21e632e38cb7badb898c010000006b483045022100a1ef28b8063bd294b8f311a6d2295a9cf5c28b1964150f1ce5cc25d0943ec96a0220272c6247bde424995bbcbfed1002b5c474f5605f359e3b966c8d462e8ca0855901210334103d1498598b8e0b939c4bc96473390f768c34bae6b91b973ddcbcf6ddaf84ffffffff02b5250c00000000001976a91431bf20d391866ecdc2f943af6cf865629e8dc17b88acf4ee49000000000017a9141bcce66b8b46426a8dc70947aa035a6cab56e29d8700000000", "vin": [{"sequence": 4294967295, "scriptSig": {"hex": "483045022100ee7f73fd33ccbb5ea2de2060eba0d2f43481d44699fe2e2c8c762c0947ec30e50220738203e9da25dca30f4b9dff55fd7526c1c0c6ebcf6ab8400b0b121ed25708c00121031084371e40033c2bc6af227c924a3ffee01bdf5da4a5dc7e6f0ca9e01d0ab7b4", "asm": "3045022100ee7f73fd33ccbb5ea2de2060eba0d2f43481d44699fe2e2c8c762c0947ec30e50220738203e9da25dca30f4b9dff55fd7526c1c0c6ebcf6ab8400b0b121ed25708c0[ALL] 031084371e40033c2bc6af227c924a3ffee01bdf5da4a5dc7e6f0ca9e01d0ab7b4"}, "vout": 0, "txid": "d542962cb59f794bbc4a8331285cb1724b49661e73ef0d79fa7dfbbe1836315c"}, {"sequence": 4294967295, "scriptSig": {"hex": "483045022100a1ef28b8063bd294b8f311a6d2295a9cf5c28b1964150f1ce5cc25d0943ec96a0220272c6247bde424995bbcbfed1002b5c474f5605f359e3b966c8d462e8ca0855901210334103d1498598b8e0b939c4bc96473390f768c34bae6b91b973ddcbcf6ddaf84", "asm": "3045022100a1ef28b8063bd294b8f311a6d2295a9cf5c28b1964150f1ce5cc25d0943ec96a0220272c6247bde424995bbcbfed1002b5c474f5605f359e3b966c8d462e8ca08559[ALL] 0334103d1498598b8e0b939c4bc96473390f768c34bae6b91b973ddcbcf6ddaf84"}, "vout": 1, "txid": "8c89dbbab78ce332e6219bbd3797dd228ee074164444a291962813ab90263375"}], "txid": "8a05557a7bbb3baac7ce07de2d8b7ff66ff7357afb3c86d113ff7534653ef463", "blocktime": 1537875543, "version": 1, "confirmations": 11464, "time": 1537875543, "locktime": 0, "vsize": 372, "size": 372}