{"hash": "8a0ac0f68c6d7ba3264b0bc37efd03bf86f29b6865c09c0a1198aa064ab79fd0", "blockhash": "00000000000000000018f53835495a110e01622372bf6ae95dc86f2b0ab887b0", "vout": [{"scriptPubKey": {"reqSigs": 1, "hex": "a914972616bb68af15684f8edaae7af00b59441af43a87", "addresses": ["3FUDaxzSXWrLsrWxWDq68JiGUwEh2D3Dqk"], "asm": "OP_HASH160 972616bb68af15684f8edaae7af00b59441af43a OP_EQUAL", "type": "scripthash"}, "value": 1.0, "n": 0}, {"scriptPubKey": {"reqSigs": 1, "hex": "76a91418abbfce136fcc1cee1118485d63a125dd844ac088ac", "addresses": ["13FSxx7VpMoYUmfhJ4Vni4boNk7wTtRDmS"], "asm": "OP_DUP OP_HASH160 18abbfce136fcc1cee1118485d63a125dd844ac0 OP_EQUALVERIFY OP_CHECKSIG", "type": "pubkeyhash"}, "value": 1.29259043, "n": 1}], "hex": "0100000002c302b2a627b396f5c825a6fd074acef2f7d24435845a4e17633c64d9cf0704cc000000006a47304402204ed5e80505455166a24a3cbff16ca69e1c7d7f08acad84b870069c549cb76038022027ff29a811cbad6180e69f6f0069c4ce05f72f2e0faa45843d957a3c6e6c78890121031222b2b70a19521fd9bf2adaa797ca2006bd970157f61bd1d763af55142a8105ffffff00af4badb108a708da47bc264d10f14640c2f930869949912c1648fb19acd92ce5010000006a473044022076442d9ffedc41886338ab3702eaefe7153cb209664cf787e4a3bd9620e463f702203afc25386794e2043ab6e92bc8df8d69ffba4d31a4a0e0de628823c31620e08b0121031222b2b70a19521fd9bf2adaa797ca2006bd970157f61bd1d763af55142a8105ffffff000200e1f5050000000017a914972616bb68af15684f8edaae7af00b59441af43a872356b407000000001976a91418abbfce136fcc1cee1118485d63a125dd844ac088ac00000000", "vin": [{"sequence": 16777215, "scriptSig": {"hex": "47304402204ed5e80505455166a24a3cbff16ca69e1c7d7f08acad84b870069c549cb76038022027ff29a811cbad6180e69f6f0069c4ce05f72f2e0faa45843d957a3c6e6c78890121031222b2b70a19521fd9bf2adaa797ca2006bd970157f61bd1d763af55142a8105", "asm": "304402204ed5e80505455166a24a3cbff16ca69e1c7d7f08acad84b870069c549cb76038022027ff29a811cbad6180e69f6f0069c4ce05f72f2e0faa45843d957a3c6e6c7889[ALL] 031222b2b70a19521fd9bf2adaa797ca2006bd970157f61bd1d763af55142a8105"}, "vout": 0, "txid": "cc0407cfd9643c63174e5a843544d2f7f2ce4a07fda625c8f596b327a6b202c3"}, {"sequence": 16777215, "scriptSig": {"hex": "473044022076442d9ffedc41886338ab3702eaefe7153cb209664cf787e4a3bd9620e463f702203afc25386794e2043ab6e92bc8df8d69ffba4d31a4a0e0de628823c31620e08b0121031222b2b70a19521fd9bf2adaa797ca2006bd970157f61bd1d763af55142a8105", "asm": "3044022076442d9ffedc41886338ab3702eaefe7153cb209664cf787e4a3bd9620e463f702203afc25386794e2043ab6e92bc8df8d69ffba4d31a4a0e0de628823c31620e08b[ALL] 031222b2b70a19521fd9bf2adaa797ca2006bd970157f61bd1d763af55142a8105"}, "vout": 1, "txid": "e52cd9ac19fb48162c9149998630f9c24046f1104d26bc47da08a708b1ad4baf"}], "txid": "8a0ac0f68c6d7ba3264b0bc37efd03bf86f29b6865c09c0a1198aa064ab79fd0", "blocktime": 1537870928, "version": 1, "confirmations": 11512, "time": 1537870928, "locktime": 0, "vsize": 370, "size": 370}