{"hash": "8a1c250ffbf55cfcef6404bfebbada8c13dc881393e5778e51190488b9ce05f5", "blockhash": "00000000000000000004ffacab907a6b429b9a5745fa0b75af4234bf69dd7176", "vout": [{"scriptPubKey": {"reqSigs": 1, "hex": "76a914d9df01abc70aaf08e2bb51141b686b5e150c9e6688ac", "addresses": ["1LrznPkuvSYCf1hndepwgM8Hm8sTLLtRDv"], "asm": "OP_DUP OP_HASH160 d9df01abc70aaf08e2bb51141b686b5e150c9e66 OP_EQUALVERIFY OP_CHECKSIG", "type": "pubkeyhash"}, "value": 6e-06, "n": 0}, {"scriptPubKey": {"reqSigs": 1, "hex": "76a914222b19c9648f97548ab76ffa5979d9c32c2d538b88ac", "addresses": ["147fcDNtdgZvBqXCJZVfxKErFXR4fjQPrH"], "asm": "OP_DUP OP_HASH160 222b19c9648f97548ab76ffa5979d9c32c2d538b OP_EQUALVERIFY OP_CHECKSIG", "type": "pubkeyhash"}, "value": 0.0888, "n": 1}], "hex": "010000000f089d8a30968787f41a1f4ec8e7a0e84bab7bffbf4831d1352d646a622283ab1d000000006b483045022100d407c35b5e0a1c067fb0d1b6afcdbff0e721fb81bab9c3f93b9ead8d5cf81c1302207d0eb8a86431e5fbcda057ff73947dbaa9ad8e51bcd96f5a011dd0670a1b3c2601210308d50f0106f67863b441ea008b5fc8a4339f897c9ccfaf822978366bc421e9c8feffffff6499ba2a58a1b0af411f15ef091706b2f4f1b2c64252ec130c8b144d2a1df81e000000006b483045022100ee75a51ee5b25c12a0a11106043c6264d1735e00651bd8eedc43857ef2ef86820220580070ab5d8027b958954bf6500676fd44cdd8bd8b7952f3fad5f594f15bd1da01210308d50f0106f67863b441ea008b5fc8a4339f897c9ccfaf822978366bc421e9c8feffffffabaa2c7bbe5bdafc83cb90d8eb16d15f2c32cfcd90f584323d0341874954b52b000000006b483045022100ac7777fbe8c915680b5591edd8cf43298252510a8c5d44746f4badbb02f3d7e50220504c8221988aad74c3661421afe412d90e89d18a38c5c5969139973000cad2fb01210308d50f0106f67863b441ea008b5fc8a4339f897c9ccfaf822978366bc421e9c8feffffff37cfcfe09da32dfe615d9e3185a24a56cc94053b1c2fe0ad67ed35a8e4caaa51000000006b483045022100d13f15d44611b989373597ec270f727c38b540182d2a8699b1caf1afaef822cd0220698626c542af72989c8a0a0ef2700dacac5abb2465bb4e146952aefcbae6517101210308d50f0106f67863b441ea008b5fc8a4339f897c9ccfaf822978366bc421e9c8feffffff4ffca0a4f5dd21a3e71f854105a3bfe58be97c42893b06eb4512514ad9f9de61030000006b483045022100ba57c4061c11020644dba5fabcbec1eb08b163fbeaaa479c8293a0a6a1b95fde0220474abd69f102a7d93cf1841a19175a47feada1a33ba2a9202e8b513b415a8f9b01210308d50f0106f67863b441ea008b5fc8a4339f897c9ccfaf822978366bc421e9c8feffffff2948e170ebeb0e1799c0f9b5fffaeb584ed73e2ebe40e2b41e8d660af1829f68030000006b48304502210082087971a129fd23613a9c2c3b320a54b85bbe25b2c0583902c303919a280896022037bb50e650ae5244dc9f9e2fb6bd33d0c948d6e2e6b1be5a2c5643370567c14a01210308d50f0106f67863b441ea008b5fc8a4339f897c9ccfaf822978366bc421e9c8feffffff38f1c2856936bdfa375dd34fe4033eb339fb3a825e5fa3fc152f1fcf3ae82775000000006a4730440220690dcfa14e58c3cf6f53c1adacfcc4b196c26c304497a77ccf3e302b4946b816022025170baba5bc36a3b739000fb3f19d184aeaea1620a762d41553dfcdcc846af801210308d50f0106f67863b441ea008b5fc8a4339f897c9ccfaf822978366bc421e9c8feffffffe18e8a1823962feeb96a8fe7f7fdb15a332307eeb167eb6ec3bff51d3698607f000000006a473044022069ae7e125fd4722e397a80968aef43eda5ae81d52eafbb8f964e35a72521e6bb022021847733dd2957ff2d678b6f25b9082eaca812f36458ce6e64a07a99ddd3aa5701210308d50f0106f67863b441ea008b5fc8a4339f897c9ccfaf822978366bc421e9c8feffffff44eb4ad5a0428998381866a6b85a9c209ce14f966643e9a262bbfe0074603183040000006b483045022100be2e4419cec0373e983f4c88075fb15f85aecff832daabbed9eb94ef781aeb9a02204511c30d1e238688a1f9639aa2351c3017842239c7d51aefebc082daaac63ac201210308d50f0106f67863b441ea008b5fc8a4339f897c9ccfaf822978366bc421e9c8feffffffa2c6f125b2025dd8fd2aba2dc57eb8068fb0e6bc858ebc921965657848cd0084000000006b483045022100d55280becf26a126c0aedd3cdd85c4d49b5324e0e03102de0c93d67861fd7f3c022064b115bc67bc0a4d73befabd6927cc5f4020eaa584eb69f2491a9df4c2b465bf01210308d50f0106f67863b441ea008b5fc8a4339f897c9ccfaf822978366bc421e9c8feffffff4c490871bf58535d355419ef027550618ce90f7c50ad9781e0cb4b5c885db28d000000006b483045022100e361dfeac620602520405bd20f9cfc4fcbe409a8402ceb5bc9880c006a648708022016f28a71d9bb28679dc147bd60b3d81e759ccb047fc9baa15354796d079fae7301210308d50f0106f67863b441ea008b5fc8a4339f897c9ccfaf822978366bc421e9c8feffffff02553b5b4e665f938ed463bac64156a210ca9db12a9f8e620384358b2aba3aa6000000006a4730440220397b576a28eb766ce05ca9818d940fd3e966a3726b05eec3d90b4fd24d1751e4022072f0fb929647f1d96609d1c03dea1e28c25722d8f4394205b5c2f25076eab0de01210308d50f0106f67863b441ea008b5fc8a4339f897c9ccfaf822978366bc421e9c8feffffff7d351bb2a6159d56f6f4808af465dfbd7f7ffa8f48ae1a84c1318f3e8a1352ac060000006a473044022018f2310ec800f11e3dc891620291a04adffd3216d30ded2b88e22253840642e1022045cb99da1a958a5320442b98c40d9826e97466dfab7c76119cc5cbd5cec1a87b01210308d50f0106f67863b441ea008b5fc8a4339f897c9ccfaf822978366bc421e9c8feffffff6eb59d93ac3da1bf848874c1948ecff16ff0c7474a57c31c8dfa5e670fc6dfb7010000006b483045022100bab1bd5699186f5896e2d90e5ebc855a41625b2d5dfaaa6902a1e1312db40e0c02204c3e314baaf1b7cf45828e9c4f0b0545cc74ccf40dcf03a9f898a7dc1c8c6c0701210308d50f0106f67863b441ea008b5fc8a4339f897c9ccfaf822978366bc421e9c8feffffff73f97a17d3eeaf0c9f970a749ad7e30e8da86fca8095de935eca79151d7a7adb1b0000006a473044022046a78234e91cb6956edc6cedf3536ff203978ccf58da12ba3822467dddecda2e022053e3f9df94246e43ecfa9550fdae1a0986097d9c68aea9cdfb775187c2c7d1a501210308d50f0106f67863b441ea008b5fc8a4339f897c9ccfaf822978366bc421e9c8feffffff0258020000000000001976a914d9df01abc70aaf08e2bb51141b686b5e150c9e6688ac807f8700000000001976a914222b19c9648f97548ab76ffa5979d9c32c2d538b88ac00000000", "vin": [{"sequence": 4294967294, "scriptSig": {"hex": "483045022100d407c35b5e0a1c067fb0d1b6afcdbff0e721fb81bab9c3f93b9ead8d5cf81c1302207d0eb8a86431e5fbcda057ff73947dbaa9ad8e51bcd96f5a011dd0670a1b3c2601210308d50f0106f67863b441ea008b5fc8a4339f897c9ccfaf822978366bc421e9c8", "asm": "3045022100d407c35b5e0a1c067fb0d1b6afcdbff0e721fb81bab9c3f93b9ead8d5cf81c1302207d0eb8a86431e5fbcda057ff73947dbaa9ad8e51bcd96f5a011dd0670a1b3c26[ALL] 0308d50f0106f67863b441ea008b5fc8a4339f897c9ccfaf822978366bc421e9c8"}, "vout": 0, "txid": "1dab8322626a642d35d13148bfff7bab4be8a0e7c84e1f1af4878796308a9d08"}, {"sequence": 4294967294, "scriptSig": {"hex": "483045022100ee75a51ee5b25c12a0a11106043c6264d1735e00651bd8eedc43857ef2ef86820220580070ab5d8027b958954bf6500676fd44cdd8bd8b7952f3fad5f594f15bd1da01210308d50f0106f67863b441ea008b5fc8a4339f897c9ccfaf822978366bc421e9c8", "asm": "3045022100ee75a51ee5b25c12a0a11106043c6264d1735e00651bd8eedc43857ef2ef86820220580070ab5d8027b958954bf6500676fd44cdd8bd8b7952f3fad5f594f15bd1da[ALL] 0308d50f0106f67863b441ea008b5fc8a4339f897c9ccfaf822978366bc421e9c8"}, "vout": 0, "txid": "1ef81d2a4d148b0c13ec5242c6b2f1f4b2061709ef151f41afb0a1582aba9964"}, {"sequence": 4294967294, "scriptSig": {"hex": "483045022100ac7777fbe8c915680b5591edd8cf43298252510a8c5d44746f4badbb02f3d7e50220504c8221988aad74c3661421afe412d90e89d18a38c5c5969139973000cad2fb01210308d50f0106f67863b441ea008b5fc8a4339f897c9ccfaf822978366bc421e9c8", "asm": "3045022100ac7777fbe8c915680b5591edd8cf43298252510a8c5d44746f4badbb02f3d7e50220504c8221988aad74c3661421afe412d90e89d18a38c5c5969139973000cad2fb[ALL] 0308d50f0106f67863b441ea008b5fc8a4339f897c9ccfaf822978366bc421e9c8"}, "vout": 0, "txid": "2bb554498741033d3284f590cdcf322c5fd116ebd890cb83fcda5bbe7b2caaab"}, {"sequence": 4294967294, "scriptSig": {"hex": "483045022100d13f15d44611b989373597ec270f727c38b540182d2a8699b1caf1afaef822cd0220698626c542af72989c8a0a0ef2700dacac5abb2465bb4e146952aefcbae6517101210308d50f0106f67863b441ea008b5fc8a4339f897c9ccfaf822978366bc421e9c8", "asm": "3045022100d13f15d44611b989373597ec270f727c38b540182d2a8699b1caf1afaef822cd0220698626c542af72989c8a0a0ef2700dacac5abb2465bb4e146952aefcbae65171[ALL] 0308d50f0106f67863b441ea008b5fc8a4339f897c9ccfaf822978366bc421e9c8"}, "vout": 0, "txid": "51aacae4a835ed67ade02f1c3b0594cc564aa285319e5d61fe2da39de0cfcf37"}, {"sequence": 4294967294, "scriptSig": {"hex": "483045022100ba57c4061c11020644dba5fabcbec1eb08b163fbeaaa479c8293a0a6a1b95fde0220474abd69f102a7d93cf1841a19175a47feada1a33ba2a9202e8b513b415a8f9b01210308d50f0106f67863b441ea008b5fc8a4339f897c9ccfaf822978366bc421e9c8", "asm": "3045022100ba57c4061c11020644dba5fabcbec1eb08b163fbeaaa479c8293a0a6a1b95fde0220474abd69f102a7d93cf1841a19175a47feada1a33ba2a9202e8b513b415a8f9b[ALL] 0308d50f0106f67863b441ea008b5fc8a4339f897c9ccfaf822978366bc421e9c8"}, "vout": 3, "txid": "61def9d94a511245eb063b89427ce98be5bfa30541851fe7a321ddf5a4a0fc4f"}, {"sequence": 4294967294, "scriptSig": {"hex": "48304502210082087971a129fd23613a9c2c3b320a54b85bbe25b2c0583902c303919a280896022037bb50e650ae5244dc9f9e2fb6bd33d0c948d6e2e6b1be5a2c5643370567c14a01210308d50f0106f67863b441ea008b5fc8a4339f897c9ccfaf822978366bc421e9c8", "asm": "304502210082087971a129fd23613a9c2c3b320a54b85bbe25b2c0583902c303919a280896022037bb50e650ae5244dc9f9e2fb6bd33d0c948d6e2e6b1be5a2c5643370567c14a[ALL] 0308d50f0106f67863b441ea008b5fc8a4339f897c9ccfaf822978366bc421e9c8"}, "vout": 3, "txid": "689f82f10a668d1eb4e240be2e3ed74e58ebfaffb5f9c099170eebeb70e14829"}, {"sequence": 4294967294, "scriptSig": {"hex": "4730440220690dcfa14e58c3cf6f53c1adacfcc4b196c26c304497a77ccf3e302b4946b816022025170baba5bc36a3b739000fb3f19d184aeaea1620a762d41553dfcdcc846af801210308d50f0106f67863b441ea008b5fc8a4339f897c9ccfaf822978366bc421e9c8", "asm": "30440220690dcfa14e58c3cf6f53c1adacfcc4b196c26c304497a77ccf3e302b4946b816022025170baba5bc36a3b739000fb3f19d184aeaea1620a762d41553dfcdcc846af8[ALL] 0308d50f0106f67863b441ea008b5fc8a4339f897c9ccfaf822978366bc421e9c8"}, "vout": 0, "txid": "7527e83acf1f2f15fca35f5e823afb39b33e03e44fd35d37fabd366985c2f138"}, {"sequence": 4294967294, "scriptSig": {"hex": "473044022069ae7e125fd4722e397a80968aef43eda5ae81d52eafbb8f964e35a72521e6bb022021847733dd2957ff2d678b6f25b9082eaca812f36458ce6e64a07a99ddd3aa5701210308d50f0106f67863b441ea008b5fc8a4339f897c9ccfaf822978366bc421e9c8", "asm": "3044022069ae7e125fd4722e397a80968aef43eda5ae81d52eafbb8f964e35a72521e6bb022021847733dd2957ff2d678b6f25b9082eaca812f36458ce6e64a07a99ddd3aa57[ALL] 0308d50f0106f67863b441ea008b5fc8a4339f897c9ccfaf822978366bc421e9c8"}, "vout": 0, "txid": "7f6098361df5bfc36eeb67b1ee0723335ab1fdf7e78f6ab9ee2f9623188a8ee1"}, {"sequence": 4294967294, "scriptSig": {"hex": "483045022100be2e4419cec0373e983f4c88075fb15f85aecff832daabbed9eb94ef781aeb9a02204511c30d1e238688a1f9639aa2351c3017842239c7d51aefebc082daaac63ac201210308d50f0106f67863b441ea008b5fc8a4339f897c9ccfaf822978366bc421e9c8", "asm": "3045022100be2e4419cec0373e983f4c88075fb15f85aecff832daabbed9eb94ef781aeb9a02204511c30d1e238688a1f9639aa2351c3017842239c7d51aefebc082daaac63ac2[ALL] 0308d50f0106f67863b441ea008b5fc8a4339f897c9ccfaf822978366bc421e9c8"}, "vout": 4, "txid": "8331607400febb62a2e94366964fe19c209c5ab8a6661838988942a0d54aeb44"}, {"sequence": 4294967294, "scriptSig": {"hex": "483045022100d55280becf26a126c0aedd3cdd85c4d49b5324e0e03102de0c93d67861fd7f3c022064b115bc67bc0a4d73befabd6927cc5f4020eaa584eb69f2491a9df4c2b465bf01210308d50f0106f67863b441ea008b5fc8a4339f897c9ccfaf822978366bc421e9c8", "asm": "3045022100d55280becf26a126c0aedd3cdd85c4d49b5324e0e03102de0c93d67861fd7f3c022064b115bc67bc0a4d73befabd6927cc5f4020eaa584eb69f2491a9df4c2b465bf[ALL] 0308d50f0106f67863b441ea008b5fc8a4339f897c9ccfaf822978366bc421e9c8"}, "vout": 0, "txid": "8400cd487865651992bc8e85bce6b08f06b87ec52dba2afdd85d02b225f1c6a2"}, {"sequence": 4294967294, "scriptSig": {"hex": "483045022100e361dfeac620602520405bd20f9cfc4fcbe409a8402ceb5bc9880c006a648708022016f28a71d9bb28679dc147bd60b3d81e759ccb047fc9baa15354796d079fae7301210308d50f0106f67863b441ea008b5fc8a4339f897c9ccfaf822978366bc421e9c8", "asm": "3045022100e361dfeac620602520405bd20f9cfc4fcbe409a8402ceb5bc9880c006a648708022016f28a71d9bb28679dc147bd60b3d81e759ccb047fc9baa15354796d079fae73[ALL] 0308d50f0106f67863b441ea008b5fc8a4339f897c9ccfaf822978366bc421e9c8"}, "vout": 0, "txid": "8db25d885c4bcbe08197ad507c0fe98c61507502ef1954355d5358bf7108494c"}, {"sequence": 4294967294, "scriptSig": {"hex": "4730440220397b576a28eb766ce05ca9818d940fd3e966a3726b05eec3d90b4fd24d1751e4022072f0fb929647f1d96609d1c03dea1e28c25722d8f4394205b5c2f25076eab0de01210308d50f0106f67863b441ea008b5fc8a4339f897c9ccfaf822978366bc421e9c8", "asm": "30440220397b576a28eb766ce05ca9818d940fd3e966a3726b05eec3d90b4fd24d1751e4022072f0fb929647f1d96609d1c03dea1e28c25722d8f4394205b5c2f25076eab0de[ALL] 0308d50f0106f67863b441ea008b5fc8a4339f897c9ccfaf822978366bc421e9c8"}, "vout": 0, "txid": "a63aba2a8b358403628e9f2ab19dca10a25641c6ba63d48e935f664e5b3b5502"}, {"sequence": 4294967294, "scriptSig": {"hex": "473044022018f2310ec800f11e3dc891620291a04adffd3216d30ded2b88e22253840642e1022045cb99da1a958a5320442b98c40d9826e97466dfab7c76119cc5cbd5cec1a87b01210308d50f0106f67863b441ea008b5fc8a4339f897c9ccfaf822978366bc421e9c8", "asm": "3044022018f2310ec800f11e3dc891620291a04adffd3216d30ded2b88e22253840642e1022045cb99da1a958a5320442b98c40d9826e97466dfab7c76119cc5cbd5cec1a87b[ALL] 0308d50f0106f67863b441ea008b5fc8a4339f897c9ccfaf822978366bc421e9c8"}, "vout": 6, "txid": "ac52138a3e8f31c1841aae488ffa7f7fbddf65f48a80f4f6569d15a6b21b357d"}, {"sequence": 4294967294, "scriptSig": {"hex": "483045022100bab1bd5699186f5896e2d90e5ebc855a41625b2d5dfaaa6902a1e1312db40e0c02204c3e314baaf1b7cf45828e9c4f0b0545cc74ccf40dcf03a9f898a7dc1c8c6c0701210308d50f0106f67863b441ea008b5fc8a4339f897c9ccfaf822978366bc421e9c8", "asm": "3045022100bab1bd5699186f5896e2d90e5ebc855a41625b2d5dfaaa6902a1e1312db40e0c02204c3e314baaf1b7cf45828e9c4f0b0545cc74ccf40dcf03a9f898a7dc1c8c6c07[ALL] 0308d50f0106f67863b441ea008b5fc8a4339f897c9ccfaf822978366bc421e9c8"}, "vout": 1, "txid": "b7dfc60f675efa8d1cc3574a47c7f06ff1cf8e94c1748884bfa13dac939db56e"}, {"sequence": 4294967294, "scriptSig": {"hex": "473044022046a78234e91cb6956edc6cedf3536ff203978ccf58da12ba3822467dddecda2e022053e3f9df94246e43ecfa9550fdae1a0986097d9c68aea9cdfb775187c2c7d1a501210308d50f0106f67863b441ea008b5fc8a4339f897c9ccfaf822978366bc421e9c8", "asm": "3044022046a78234e91cb6956edc6cedf3536ff203978ccf58da12ba3822467dddecda2e022053e3f9df94246e43ecfa9550fdae1a0986097d9c68aea9cdfb775187c2c7d1a5[ALL] 0308d50f0106f67863b441ea008b5fc8a4339f897c9ccfaf822978366bc421e9c8"}, "vout": 27, "txid": "db7a7a1d1579ca5e93de9580ca6fa88d0ee3d79a740a979f0cafeed3177af973"}], "txid": "8a1c250ffbf55cfcef6404bfebbada8c13dc881393e5778e51190488b9ce05f5", "blocktime": 1537875543, "version": 1, "confirmations": 11464, "time": 1537875543, "locktime": 0, "vsize": 2293, "size": 2293}