{"hash": "8a1f1fd33c6e657389efcf8a4fd213824470f00f9687bebb1eb40ad393817807", "blockhash": "0000000000000000000baef3f32e3676a92c3b2e5da21b426e4f302fc371ce76", "vout": [{"scriptPubKey": {"reqSigs": 1, "hex": "76a914ca8110aca3bfa8023f48562d7c335034cd55d22088ac", "addresses": ["1KTk7MSmNN8tVM3W5ZE2yd6PxYa7Tttv9L"], "asm": "OP_DUP OP_HASH160 ca8110aca3bfa8023f48562d7c335034cd55d220 OP_EQUALVERIFY OP_CHECKSIG", "type": "pubkeyhash"}, "value": 0.002328, "n": 0}, {"scriptPubKey": {"reqSigs": 1, "hex": "76a914be5986b009f53d138597e7cb67d86a3e01ac09b788ac", "addresses": ["1JMUdqFWrW1JDBbi3B5yBEkfFgDFnS8YXH"], "asm": "OP_DUP OP_HASH160 be5986b009f53d138597e7cb67d86a3e01ac09b7 OP_EQUALVERIFY OP_CHECKSIG", "type": "pubkeyhash"}, "value": 0.00620974, "n": 1}], "hex": "010000000127ad5d0843c72edea01e18ef9716046e4d3875f774bcf213975c637990d784da010000006a47304402202f112ca3a025bba036d26a506f823bd034f7fb87d80984aacd0a3c6f7983d3d80220556f6ece97c52f177b91815456f4028c9a7573aee635bb719574fb03453743b9012102dd1ef17ee4798e19ac1fabf660fc8def541b668a70f401f08494f5093e25c1e2ffffffff02608d0300000000001976a914ca8110aca3bfa8023f48562d7c335034cd55d22088acae790900000000001976a914be5986b009f53d138597e7cb67d86a3e01ac09b788ac00000000", "vin": [{"sequence": 4294967295, "scriptSig": {"hex": "47304402202f112ca3a025bba036d26a506f823bd034f7fb87d80984aacd0a3c6f7983d3d80220556f6ece97c52f177b91815456f4028c9a7573aee635bb719574fb03453743b9012102dd1ef17ee4798e19ac1fabf660fc8def541b668a70f401f08494f5093e25c1e2", "asm": "304402202f112ca3a025bba036d26a506f823bd034f7fb87d80984aacd0a3c6f7983d3d80220556f6ece97c52f177b91815456f4028c9a7573aee635bb719574fb03453743b9[ALL] 02dd1ef17ee4798e19ac1fabf660fc8def541b668a70f401f08494f5093e25c1e2"}, "vout": 1, "txid": "da84d79079635c9713f2bc74f775384d6e041697ef181ea0de2ec743085dad27"}], "txid": "8a1f1fd33c6e657389efcf8a4fd213824470f00f9687bebb1eb40ad393817807", "blocktime": 1537876114, "version": 1, "confirmations": 11460, "time": 1537876114, "locktime": 0, "vsize": 225, "size": 225}