{"hash": "8a28b15ed2ce0bf16a96df85efb9d014d3286316d1bb4f525822b52312e40b9e", "blockhash": "0000000000000000000e13cef7c366c0283d82e591d1acd082e914b08063cdf1", "vout": [{"scriptPubKey": {"reqSigs": 1, "hex": "a914334c6a9d7eab8d16112e442d107fbedc675c228787", "addresses": ["36NFvqTJis2kN4fsEBegbFtTNiZaaP78aY"], "asm": "OP_HASH160 334c6a9d7eab8d16112e442d107fbedc675c2287 OP_EQUAL", "type": "scripthash"}, "value": 0.0688842, "n": 0}, {"scriptPubKey": {"reqSigs": 1, "hex": "76a91495b7373a31588d796462056750c211fa20c1456388ac", "addresses": ["1EedAdpxBKH8dXpdUiMkbqrzJxzCUj3nyZ"], "asm": "OP_DUP OP_HASH160 95b7373a31588d796462056750c211fa20c14563 OP_EQUALVERIFY OP_CHECKSIG", "type": "pubkeyhash"}, "value": 0.43109998, "n": 1}], "hex": "0100000001f031e725d6569ceac557db3acee318d5f8bc30b19f1da69a6f1570a16886f665010000006b4830450221008ea79eba665ec69195074400a28c3c4158df32cd49efc67bc56910ecc11afa7202202aa70b0b791ae97b6e3dfb90e7e8be72b8631e666a59a21be6eb830b064edcab0121020e643cb72c151d58433505fee9c5fac1254e6617de4b62b6115f8ee0501c7479ffffffff02e41b69000000000017a914334c6a9d7eab8d16112e442d107fbedc675c2287876ece9102000000001976a91495b7373a31588d796462056750c211fa20c1456388ac00000000", "vin": [{"sequence": 4294967295, "scriptSig": {"hex": "4830450221008ea79eba665ec69195074400a28c3c4158df32cd49efc67bc56910ecc11afa7202202aa70b0b791ae97b6e3dfb90e7e8be72b8631e666a59a21be6eb830b064edcab0121020e643cb72c151d58433505fee9c5fac1254e6617de4b62b6115f8ee0501c7479", "asm": "30450221008ea79eba665ec69195074400a28c3c4158df32cd49efc67bc56910ecc11afa7202202aa70b0b791ae97b6e3dfb90e7e8be72b8631e666a59a21be6eb830b064edcab[ALL] 020e643cb72c151d58433505fee9c5fac1254e6617de4b62b6115f8ee0501c7479"}, "vout": 1, "txid": "65f68668a170156f9aa61d9fb130bcf8d518e3ce3adb57c5ea9c56d625e731f0"}], "txid": "8a28b15ed2ce0bf16a96df85efb9d014d3286316d1bb4f525822b52312e40b9e", "blocktime": 1537871767, "version": 1, "confirmations": 11491, "time": 1537871767, "locktime": 0, "vsize": 224, "size": 224}