{"hash": "8a2b348cd1f0b3c1d06e00ef7d67dab4017e9ba5eda243cff1d609e4fbb7574c", "blockhash": "0000000000000000001f76057863aec43deb6fa401d9628bb513d65a8098bfab", "vout": [{"scriptPubKey": {"reqSigs": 1, "hex": "76a914f6209870e4f4e182e9ae3c6709921dac8ccd410b88ac", "addresses": ["1PSQGxsxw6fLBHkgtVQFTHVAAcCcZfajQs"], "asm": "OP_DUP OP_HASH160 f6209870e4f4e182e9ae3c6709921dac8ccd410b OP_EQUALVERIFY OP_CHECKSIG", "type": "pubkeyhash"}, "value": 0.015, "n": 0}, {"scriptPubKey": {"reqSigs": 1, "hex": "76a914d26cfe8c0182bd4a3bcae2803d79c189117cfd4b88ac", "addresses": ["1LBdULt5tkoVbP4KrVqZ5KWLfij5jGjewm"], "asm": "OP_DUP OP_HASH160 d26cfe8c0182bd4a3bcae2803d79c189117cfd4b OP_EQUALVERIFY OP_CHECKSIG", "type": "pubkeyhash"}, "value": 0.01832655, "n": 1}], "hex": "010000000120c4d9ee3d3f715bcc06e567de5febdbd72f2ada0f68c063c808ad96ce626f17000000006a473044022019ae58970c5d750f7626b3d3168723ec133a83de9cf286d8fec9281f76936db402206c7d619f39589bc2de3e8addccf8226377a0d8293e0cbd16e86cdfdf16c44ffb012103cd83fcf73bf15df98f47c163af0f36447c8cbaed366e9cd5ed62f53b26970d2cffffffff0260e31600000000001976a914f6209870e4f4e182e9ae3c6709921dac8ccd410b88accff61b00000000001976a914d26cfe8c0182bd4a3bcae2803d79c189117cfd4b88ac00000000", "vin": [{"sequence": 4294967295, "scriptSig": {"hex": "473044022019ae58970c5d750f7626b3d3168723ec133a83de9cf286d8fec9281f76936db402206c7d619f39589bc2de3e8addccf8226377a0d8293e0cbd16e86cdfdf16c44ffb012103cd83fcf73bf15df98f47c163af0f36447c8cbaed366e9cd5ed62f53b26970d2c", "asm": "3044022019ae58970c5d750f7626b3d3168723ec133a83de9cf286d8fec9281f76936db402206c7d619f39589bc2de3e8addccf8226377a0d8293e0cbd16e86cdfdf16c44ffb[ALL] 03cd83fcf73bf15df98f47c163af0f36447c8cbaed366e9cd5ed62f53b26970d2c"}, "vout": 0, "txid": "176f62ce96ad08c863c0680fda2a2fd7dbeb5fde67e506cc5b713f3deed9c420"}], "txid": "8a2b348cd1f0b3c1d06e00ef7d67dab4017e9ba5eda243cff1d609e4fbb7574c", "blocktime": 1537873891, "version": 1, "confirmations": 11478, "time": 1537873891, "locktime": 0, "vsize": 225, "size": 225}