{"hash": "8a2e1789ea042b846eab8b4faccfb835c2e87eac3ca20f1ea2b0e03d87572df9", "blockhash": "0000000000000000000baef3f32e3676a92c3b2e5da21b426e4f302fc371ce76", "vout": [{"scriptPubKey": {"type": "nulldata", "hex": "6a4c500000782700018d8b1d5f4f3c1708444e592a019d6ddc0f1b8ff117702940d64fa54d8eb2bba44fa802f47a01c3b765711c2818865baa1e7a06138f99627baed11d100759d4ba30d2c37bb011d97e02cf", "asm": "OP_RETURN 0000782700018d8b1d5f4f3c1708444e592a019d6ddc0f1b8ff117702940d64fa54d8eb2bba44fa802f47a01c3b765711c2818865baa1e7a06138f99627baed11d100759d4ba30d2c37bb011d97e02cf"}, "value": 0.0, "n": 0}, {"scriptPubKey": {"reqSigs": 1, "hex": "76a914f4ef35f02a1cc47086867c2eacf3a297139bfcd688ac", "addresses": ["1PL6STWreDoi9Zq8zGoLyVef5AEDJAbZ1Z"], "asm": "OP_DUP OP_HASH160 f4ef35f02a1cc47086867c2eacf3a297139bfcd6 OP_EQUALVERIFY OP_CHECKSIG", "type": "pubkeyhash"}, "value": 0.005788, "n": 1}], "hex": "0100000001fb24354d4780843bbcbb994e9fa29275cd489a77073066affa99753d852eb2c8010000006b483045022100af79ca4597b611ff150df99868833f27fcc3453d5abc9afeb689dd229f87b63202202e8d4733d5b86b33b2f76e335bef1bd58c238aa9bda2d2148dfe9bac5b921d18012102789b8ef3f1a29c1be2768c644d6b0238c791f5652236b56e37c838c08d21a879ffffffff020000000000000000536a4c500000782700018d8b1d5f4f3c1708444e592a019d6ddc0f1b8ff117702940d64fa54d8eb2bba44fa802f47a01c3b765711c2818865baa1e7a06138f99627baed11d100759d4ba30d2c37bb011d97e02cff0d40800000000001976a914f4ef35f02a1cc47086867c2eacf3a297139bfcd688ac00000000", "vin": [{"sequence": 4294967295, "scriptSig": {"hex": "483045022100af79ca4597b611ff150df99868833f27fcc3453d5abc9afeb689dd229f87b63202202e8d4733d5b86b33b2f76e335bef1bd58c238aa9bda2d2148dfe9bac5b921d18012102789b8ef3f1a29c1be2768c644d6b0238c791f5652236b56e37c838c08d21a879", "asm": "3045022100af79ca4597b611ff150df99868833f27fcc3453d5abc9afeb689dd229f87b63202202e8d4733d5b86b33b2f76e335bef1bd58c238aa9bda2d2148dfe9bac5b921d18[ALL] 02789b8ef3f1a29c1be2768c644d6b0238c791f5652236b56e37c838c08d21a879"}, "vout": 1, "txid": "c8b22e853d7599faaf663007779a48cd7592a29f4e99bbbc3b8480474d3524fb"}], "txid": "8a2e1789ea042b846eab8b4faccfb835c2e87eac3ca20f1ea2b0e03d87572df9", "blocktime": 1537876114, "version": 1, "confirmations": 11460, "time": 1537876114, "locktime": 0, "vsize": 284, "size": 284}