{"hash": "5776d1d79c6a18b993b28ae8647fc4c5cc75abbb314a81b4afd9ffa2927c686f", "blockhash": "0000000000000000001f0ddff1eddb255c1121bcd4da4f1bc9a0da00cae72433", "vout": [{"scriptPubKey": {"reqSigs": 1, "hex": "76a91474bd75a03ab2fefbabd69e900f0970bf44519b8588ac", "addresses": ["1BeGM8PwmEALuabScwqn27LPmT4BanN9Um"], "asm": "OP_DUP OP_HASH160 74bd75a03ab2fefbabd69e900f0970bf44519b85 OP_EQUALVERIFY OP_CHECKSIG", "type": "pubkeyhash"}, "value": 0.00214631, "n": 0}, {"scriptPubKey": {"reqSigs": 1, "hex": "a9140b2b9183535f4e6c375c7a17faeee7032d16ba4687", "addresses": ["32i5YqgL2hQ6ZahxGYKq8cVRgGZBExvc3N"], "asm": "OP_HASH160 0b2b9183535f4e6c375c7a17faeee7032d16ba46 OP_EQUAL", "type": "scripthash"}, "value": 0.01782135, "n": 1}], "hex": "0200000000010242a68b7ba4c10859157b6297c8ba33664456292588f3a9f99a1fcbd072bfd5220000000017160014d6ba082cf65141a4761f02701c341b66d6bd3099feffffffe75016a3f99ffd59bce79017e5fd886397f2bba7f9c09e35bed243b10b8808b1000000001716001497f764ca3e9dba99ae48dae43835222eedf7857afeffffff0267460300000000001976a91474bd75a03ab2fefbabd69e900f0970bf44519b8588ac77311b000000000017a9140b2b9183535f4e6c375c7a17faeee7032d16ba468702483045022100ffdb72e103baf03b550682495467f1ad747e2eedd499d3f67bcb2d2e198c85240220440491746aabe5d2fbe91910892dc443db55b2229c098ad67dc17c3c95af9fa0012102140e55a502b1746f9bac988face95b984d0480fc59b207777cd041417f0a6acd02483045022100c940a5829cbb3335bd3d5ff11b0183af5e1a563b24d9ebf0182d5f25d48cf80f02207c46135f4d55a336ed8534ee98981ff8ac3b479f3a911152ba2307e99fdc937f012102e0e3468b0b940b64158366111142596114c52895e84c972d0fed9bd9ff63397c11490800", "vin": [{"txinwitness": ["3045022100ffdb72e103baf03b550682495467f1ad747e2eedd499d3f67bcb2d2e198c85240220440491746aabe5d2fbe91910892dc443db55b2229c098ad67dc17c3c95af9fa001", "02140e55a502b1746f9bac988face95b984d0480fc59b207777cd041417f0a6acd"], "sequence": 4294967294, "scriptSig": {"hex": "160014d6ba082cf65141a4761f02701c341b66d6bd3099", "asm": "0014d6ba082cf65141a4761f02701c341b66d6bd3099"}, "vout": 0, "txid": "22d5bf72d0cb1f9af9a9f388252956446633bac897627b155908c1a47b8ba642"}, {"txinwitness": ["3045022100c940a5829cbb3335bd3d5ff11b0183af5e1a563b24d9ebf0182d5f25d48cf80f02207c46135f4d55a336ed8534ee98981ff8ac3b479f3a911152ba2307e99fdc937f01", "02e0e3468b0b940b64158366111142596114c52895e84c972d0fed9bd9ff63397c"], "sequence": 4294967294, "scriptSig": {"hex": "16001497f764ca3e9dba99ae48dae43835222eedf7857a", "asm": "001497f764ca3e9dba99ae48dae43835222eedf7857a"}, "vout": 0, "txid": "b108880bb143d2be359ec0f9a7bbf2976388fde51790e7bc59fd9ff9a31650e7"}], "txid": "8a39663e1bdbe2967e27c912ed62a93555e8b2cf79734f19b398cb6d3db26e8b", "blocktime": 1537872018, "version": 2, "confirmations": 11489, "time": 1537872018, "locktime": 542993, "vsize": 259, "size": 422}