{"hash": "6c314d4196b0feaee8dba4ca6220921404d7708695da8df0c31ff25da29db50e", "blockhash": "0000000000000000000e13cef7c366c0283d82e591d1acd082e914b08063cdf1", "vout": [{"scriptPubKey": {"reqSigs": 1, "hex": "a9140082e6f05e26417e4dce47910b6e9637e87e41eb87", "addresses": ["31jijnH8mYxgLfoHrUg8VtUgrY9UxSqz2m"], "asm": "OP_HASH160 0082e6f05e26417e4dce47910b6e9637e87e41eb OP_EQUAL", "type": "scripthash"}, "value": 0.1415, "n": 0}, {"scriptPubKey": {"reqSigs": 1, "hex": "a91437acaf2efdc9c87e9f7c6c70e6ca09b970625bc287", "addresses": ["36mPxQmo9YwYZskcCYLYqqa7nnxXGs7s4G"], "asm": "OP_HASH160 37acaf2efdc9c87e9f7c6c70e6ca09b970625bc2 OP_EQUAL", "type": "scripthash"}, "value": 0.01016818, "n": 1}], "hex": "0200000000010419f6abebf192c4dd2d08698389c5a12d13e35786c806072933a6cc15bf7e658c000000001716001467054cf38272927505e696f960dd71afd19ddaeffeffffff2b77005c191d35146b381581ca3fd9be37836c7b6c72440765cf77dd5d33a7eb000000001716001467054cf38272927505e696f960dd71afd19ddaeffeffffff424652f4d8b6a8243ed3bd2aa26b1e552402a4fbefc091ad225c47120bdf761700000000171600148d91a646abc8434ee4d57ea3972b740d270a4061fefffffff1f02da42ff8afce75b2f4e74b9b239026608d6e595418e13aadc6218d61c84b0d000000171600140353c8ee001b6512524e024bb2ec11a019ff5d76feffffff0270e9d7000000000017a9140082e6f05e26417e4dce47910b6e9637e87e41eb87f2830f000000000017a91437acaf2efdc9c87e9f7c6c70e6ca09b970625bc2870247304402207f003cab663b2a85812440a6d56f72ca1d04807732b48beccb85f1758733f9260220281d5bb175e0ad3f239adcf37aadfe8054277df1e2226958743e3b6a0d29b511012102f5e32c099170b1613bac56dcea5f3a0251fb5755129543e8e4d9b9f3ecfe4fc302483045022100b352fe84bcfc49dc355a200e21f7bbacce0db83b16b806bff5c290b0e61bc4fe02202de8f2d1c121a9fe21b94c54987dd9b65cf06bff517ee22fb72ce2a1376e5149012102f5e32c099170b1613bac56dcea5f3a0251fb5755129543e8e4d9b9f3ecfe4fc3024730440220495d7857c736320ab623065d891483de78488aadb0c5759e0e6ba19c350f285102207da8b4fbe501103187a531c29a04ad27398dda89543c7d1daec5a4dd2928be5d012102c8f36e80b6db318c21dc0f590f2e0b31260fdc1bf0aa39d3b8f8cf39886a486802483045022100a9b080b36009af5a19482fb9221832ccd40793cbdff80126f24986bbb27560dc02200264845a6e4052805639eb2df38df3fdfff51e480dda72791720e2706d7bb2fa01210388e0375bc890f7899375bb79f4edd4f9d56168b2523b01aff76edafcaf9ccd3b10490800", "vin": [{"txinwitness": ["304402207f003cab663b2a85812440a6d56f72ca1d04807732b48beccb85f1758733f9260220281d5bb175e0ad3f239adcf37aadfe8054277df1e2226958743e3b6a0d29b51101", "02f5e32c099170b1613bac56dcea5f3a0251fb5755129543e8e4d9b9f3ecfe4fc3"], "sequence": 4294967294, "scriptSig": {"hex": "16001467054cf38272927505e696f960dd71afd19ddaef", "asm": "001467054cf38272927505e696f960dd71afd19ddaef"}, "vout": 0, "txid": "8c657ebf15cca633290706c88657e3132da1c5898369082dddc492f1ebabf619"}, {"txinwitness": ["3045022100b352fe84bcfc49dc355a200e21f7bbacce0db83b16b806bff5c290b0e61bc4fe02202de8f2d1c121a9fe21b94c54987dd9b65cf06bff517ee22fb72ce2a1376e514901", "02f5e32c099170b1613bac56dcea5f3a0251fb5755129543e8e4d9b9f3ecfe4fc3"], "sequence": 4294967294, "scriptSig": {"hex": "16001467054cf38272927505e696f960dd71afd19ddaef", "asm": "001467054cf38272927505e696f960dd71afd19ddaef"}, "vout": 0, "txid": "eba7335ddd77cf650744726c7b6c8337bed93fca8115386b14351d195c00772b"}, {"txinwitness": ["30440220495d7857c736320ab623065d891483de78488aadb0c5759e0e6ba19c350f285102207da8b4fbe501103187a531c29a04ad27398dda89543c7d1daec5a4dd2928be5d01", "02c8f36e80b6db318c21dc0f590f2e0b31260fdc1bf0aa39d3b8f8cf39886a4868"], "sequence": 4294967294, "scriptSig": {"hex": "1600148d91a646abc8434ee4d57ea3972b740d270a4061", "asm": "00148d91a646abc8434ee4d57ea3972b740d270a4061"}, "vout": 0, "txid": "1776df0b12475c22ad91c0effba40224551e6ba22abdd33e24a8b6d8f4524642"}, {"txinwitness": ["3045022100a9b080b36009af5a19482fb9221832ccd40793cbdff80126f24986bbb27560dc02200264845a6e4052805639eb2df38df3fdfff51e480dda72791720e2706d7bb2fa01", "0388e0375bc890f7899375bb79f4edd4f9d56168b2523b01aff76edafcaf9ccd3b"], "sequence": 4294967294, "scriptSig": {"hex": "1600140353c8ee001b6512524e024bb2ec11a019ff5d76", "asm": "00140353c8ee001b6512524e024bb2ec11a019ff5d76"}, "vout": 13, "txid": "4bc8618d21c6ad3ae11854596e8d602690239b4be7f4b275ceaff82fa42df0f1"}], "txid": "8a3aca38a1408a9cb37bfde2d456861e720a854688b690829fb553680f5337da", "blocktime": 1537871767, "version": 2, "confirmations": 11495, "time": 1537871767, "locktime": 542992, "vsize": 438, "size": 762}