{"hash": "8a3c2daacc8c536eaa832a19ac13ee8b3dcb07f09363d234be1e4bca17810a7b", "blockhash": "0000000000000000000dcc0f55137456b1a82d3642486a52398922ac4d620174", "vout": [{"scriptPubKey": {"reqSigs": 1, "hex": "a9143e37d6e20e730a2ca481a6b2d6dfe98c8c7749c387", "addresses": ["37MziE42jEqmCnQbMq9k8pmbgsjGFB7J2w"], "asm": "OP_HASH160 3e37d6e20e730a2ca481a6b2d6dfe98c8c7749c3 OP_EQUAL", "type": "scripthash"}, "value": 0.0077868, "n": 0}, {"scriptPubKey": {"reqSigs": 1, "hex": "76a91411b7adc80ace9e08c59ebb514e88feb0142ee01f88ac", "addresses": ["12cgXVS64R4S3KMkxmccL8nzGMHZ264PnW"], "asm": "OP_DUP OP_HASH160 11b7adc80ace9e08c59ebb514e88feb0142ee01f OP_EQUALVERIFY OP_CHECKSIG", "type": "pubkeyhash"}, "value": 0.0351021, "n": 1}], "hex": "0100000001807c021ee11c15505fc527d5e578258ec7f15ce2f472321bd41eccd6fd8ad965000000006b48304502210081c53d71c4cdea9565dd36a1b93bdb13be7409b6a2c5a206fd3462d0727a95f902201cc03f826e26e764b36b9feb4ef2bf9366b4d3f4a57632f6e2012a008211c4410121031ff5892446a750a83260b8b69f433c3909cc3671b1cc6847928027f0d3a41618ffffffff02b8e10b000000000017a9143e37d6e20e730a2ca481a6b2d6dfe98c8c7749c387c28f3500000000001976a91411b7adc80ace9e08c59ebb514e88feb0142ee01f88ac00000000", "vin": [{"sequence": 4294967295, "scriptSig": {"hex": "48304502210081c53d71c4cdea9565dd36a1b93bdb13be7409b6a2c5a206fd3462d0727a95f902201cc03f826e26e764b36b9feb4ef2bf9366b4d3f4a57632f6e2012a008211c4410121031ff5892446a750a83260b8b69f433c3909cc3671b1cc6847928027f0d3a41618", "asm": "304502210081c53d71c4cdea9565dd36a1b93bdb13be7409b6a2c5a206fd3462d0727a95f902201cc03f826e26e764b36b9feb4ef2bf9366b4d3f4a57632f6e2012a008211c441[ALL] 031ff5892446a750a83260b8b69f433c3909cc3671b1cc6847928027f0d3a41618"}, "vout": 0, "txid": "65d98afdd6cc1ed41b3272f4e25cf1c78e2578e5d527c55f50151ce11e027c80"}], "txid": "8a3c2daacc8c536eaa832a19ac13ee8b3dcb07f09363d234be1e4bca17810a7b", "blocktime": 1537870268, "version": 1, "confirmations": 11517, "time": 1537870268, "locktime": 0, "vsize": 224, "size": 224}