{"hash": "8a410345b5c418d04ea41a7f6fcc5979f6cc71b93e0733699d24eecae35ad973", "blockhash": "0000000000000000001cda96e906b7601b7a6fb1a3b62bca570a9e5d8f4b3de1", "vout": [{"scriptPubKey": {"reqSigs": 1, "hex": "76a914a520c86a08366941cd90d22e11ac1c7eefa2db3788ac", "addresses": ["1G47mSr3oANXMafVrR8UC4pzV7FEAzo3r9"], "asm": "OP_DUP OP_HASH160 a520c86a08366941cd90d22e11ac1c7eefa2db37 OP_EQUALVERIFY OP_CHECKSIG", "type": "pubkeyhash"}, "value": 0.60166094, "n": 0}, {"scriptPubKey": {"reqSigs": 1, "hex": "76a9145270bd4d73850bc60e42677df88991980dfd86f888ac", "addresses": ["18WuU1JsvhWhfzYvZyv7PNb62r5xEn2muV"], "asm": "OP_DUP OP_HASH160 5270bd4d73850bc60e42677df88991980dfd86f8 OP_EQUALVERIFY OP_CHECKSIG", "type": "pubkeyhash"}, "value": 0.517, "n": 1}], "hex": "0100000001ab0e1d5354819b9350355ab80af481da95c208e9eaaf0f30e9ce5badb3681d07020000006b483045022100d2938cdccc09cc7dfac0cb1a0c871e65b9fe7c3578e88ffdb8f740d4a56ef1b602207835d9c6b818d1cbec840bc8fe437242d4b9901110c027d4e77e4c0eda6a26e8012103f3f44c9e80e2cedc1a2909631a3adea8866ee32187f74d0912387359b0ff36a2ffffffff02ce0f9603000000001976a914a520c86a08366941cd90d22e11ac1c7eefa2db3788ac20e11403000000001976a9145270bd4d73850bc60e42677df88991980dfd86f888ac00000000", "vin": [{"sequence": 4294967295, "scriptSig": {"hex": "483045022100d2938cdccc09cc7dfac0cb1a0c871e65b9fe7c3578e88ffdb8f740d4a56ef1b602207835d9c6b818d1cbec840bc8fe437242d4b9901110c027d4e77e4c0eda6a26e8012103f3f44c9e80e2cedc1a2909631a3adea8866ee32187f74d0912387359b0ff36a2", "asm": "3045022100d2938cdccc09cc7dfac0cb1a0c871e65b9fe7c3578e88ffdb8f740d4a56ef1b602207835d9c6b818d1cbec840bc8fe437242d4b9901110c027d4e77e4c0eda6a26e8[ALL] 03f3f44c9e80e2cedc1a2909631a3adea8866ee32187f74d0912387359b0ff36a2"}, "vout": 2, "txid": "071d68b3ad5bcee9300fafeae908c295da81f40ab85a3550939b8154531d0eab"}], "txid": "8a410345b5c418d04ea41a7f6fcc5979f6cc71b93e0733699d24eecae35ad973", "blocktime": 1537873282, "version": 1, "confirmations": 11482, "time": 1537873282, "locktime": 0, "vsize": 226, "size": 226}