{"hash": "8a457a308449583b65c6fe4cbf9f926234b618a3832d78203eff6e25a2052a68", "blockhash": "0000000000000000001f76057863aec43deb6fa401d9628bb513d65a8098bfab", "vout": [{"scriptPubKey": {"reqSigs": 1, "hex": "76a914a0e6436833af47b8ff48ae19b09db1350e092c0188ac", "addresses": ["1FfkxfkHYThStHm2g8bp5s7RFABHA7gCPt"], "asm": "OP_DUP OP_HASH160 a0e6436833af47b8ff48ae19b09db1350e092c01 OP_EQUALVERIFY OP_CHECKSIG", "type": "pubkeyhash"}, "value": 9.9e-05, "n": 0}, {"scriptPubKey": {"reqSigs": 1, "hex": "76a914674c7001c46410fc0b6e8d8568d813ba8dffa18e88ac", "addresses": ["1ARCAjQ8fgYZmHxdAm13PPeNBE3KJKAjCQ"], "asm": "OP_DUP OP_HASH160 674c7001c46410fc0b6e8d8568d813ba8dffa18e OP_EQUALVERIFY OP_CHECKSIG", "type": "pubkeyhash"}, "value": 0.06471794, "n": 1}], "hex": "01000000026a12e7d8fc8823c8d08b36b0a2e48e5b0cd2f20480638e6d673d56611298a7ad000000006a47304402204c43f6c61adf1a0db58f77b617ce0378a552ca248825187487ca57c025472acc02204485b8f418db8f828288d9386065b11c86eade509e8c5ca4da18396c3e0e82f80121026b2454cbb7cfb4f8eb4454aaf7a8cd91c267a45fe2f9c4a3f44a3aa15ff4f92bffffffff36b9ce12fcfa8b1fb287412728c54ab488b067d93d1e721fc768224232deafa5010000006a473044022001f8e4dd7f902f5a67c8835e87671c63f8688604099f20b0839840c25323e8ee0220687583fdd1ae124c919a57acbc52b4703cfe79e3f9e73e2284e97510082a26c9012103d42ec57a42380e164e2f42a4afdf5f801d503a60bc96a233a4143d39580381bfffffffff02ac260000000000001976a914a0e6436833af47b8ff48ae19b09db1350e092c0188ac72c06200000000001976a914674c7001c46410fc0b6e8d8568d813ba8dffa18e88ac00000000", "vin": [{"sequence": 4294967295, "scriptSig": {"hex": "47304402204c43f6c61adf1a0db58f77b617ce0378a552ca248825187487ca57c025472acc02204485b8f418db8f828288d9386065b11c86eade509e8c5ca4da18396c3e0e82f80121026b2454cbb7cfb4f8eb4454aaf7a8cd91c267a45fe2f9c4a3f44a3aa15ff4f92b", "asm": "304402204c43f6c61adf1a0db58f77b617ce0378a552ca248825187487ca57c025472acc02204485b8f418db8f828288d9386065b11c86eade509e8c5ca4da18396c3e0e82f8[ALL] 026b2454cbb7cfb4f8eb4454aaf7a8cd91c267a45fe2f9c4a3f44a3aa15ff4f92b"}, "vout": 0, "txid": "ada7981261563d676d8e638004f2d20c5b8ee4a2b0368bd0c82388fcd8e7126a"}, {"sequence": 4294967295, "scriptSig": {"hex": "473044022001f8e4dd7f902f5a67c8835e87671c63f8688604099f20b0839840c25323e8ee0220687583fdd1ae124c919a57acbc52b4703cfe79e3f9e73e2284e97510082a26c9012103d42ec57a42380e164e2f42a4afdf5f801d503a60bc96a233a4143d39580381bf", "asm": "3044022001f8e4dd7f902f5a67c8835e87671c63f8688604099f20b0839840c25323e8ee0220687583fdd1ae124c919a57acbc52b4703cfe79e3f9e73e2284e97510082a26c9[ALL] 03d42ec57a42380e164e2f42a4afdf5f801d503a60bc96a233a4143d39580381bf"}, "vout": 1, "txid": "a5afde32422268c71f721e3dd967b088b44ac528274187b21f8bfafc12ceb936"}], "txid": "8a457a308449583b65c6fe4cbf9f926234b618a3832d78203eff6e25a2052a68", "blocktime": 1537873891, "version": 1, "confirmations": 11478, "time": 1537873891, "locktime": 0, "vsize": 372, "size": 372}