{"hash": "8a4ad7c6d98b81fd480220878d37f0a15e3869bc2ea25f35784898e4fbf12490", "blockhash": "000000000000000000022b45ed06c6f4ccd3cf7fb5ba4856ebd2e58215665228", "vout": [{"scriptPubKey": {"reqSigs": 1, "hex": "76a91441479c963489eae2c325aa7fdd86ba9efab8f2f688ac", "addresses": ["16xAi8pZDasgCKzyg9ti6NpZ1kuQmJiRLW"], "asm": "OP_DUP OP_HASH160 41479c963489eae2c325aa7fdd86ba9efab8f2f6 OP_EQUALVERIFY OP_CHECKSIG", "type": "pubkeyhash"}, "value": 0.01248431, "n": 0}, {"scriptPubKey": {"reqSigs": 1, "hex": "76a91419d632f789e083a8e5816354750b04af22ff46a788ac", "addresses": ["13McVcM6X2syTL2EMvrcbKHEUNG9dooFVy"], "asm": "OP_DUP OP_HASH160 19d632f789e083a8e5816354750b04af22ff46a7 OP_EQUALVERIFY OP_CHECKSIG", "type": "pubkeyhash"}, "value": 0.01627257, "n": 1}, {"scriptPubKey": {"reqSigs": 1, "hex": "a9142fec5db6874c6976c6f2ac96a0d3565f4e2fbdac87", "addresses": ["364QqZYo9Wp22Ab94AenUoZYvGquJXzYJU"], "asm": "OP_HASH160 2fec5db6874c6976c6f2ac96a0d3565f4e2fbdac OP_EQUAL", "type": "scripthash"}, "value": 0.0185, "n": 2}, {"scriptPubKey": {"reqSigs": 1, "hex": "a91469f37407789e4690dde150e51c5aaa1a90c6052c87", "addresses": ["3BMEX7YCscXuh5ka5Pqnhj4tnQAUXpwfXv"], "asm": "OP_HASH160 69f37407789e4690dde150e51c5aaa1a90c6052c OP_EQUAL", "type": "scripthash"}, "value": 0.03022085, "n": 3}, {"scriptPubKey": {"reqSigs": 1, "hex": "a9144c219e40459b5c8333805503013f86e5e3c26ce487", "addresses": ["38dZYxHzPS1KC1DczWUsGrYocAvHfUxEV1"], "asm": "OP_HASH160 4c219e40459b5c8333805503013f86e5e3c26ce4 OP_EQUAL", "type": "scripthash"}, "value": 1.7645, "n": 4}, {"scriptPubKey": {"reqSigs": 1, "hex": "76a91443849383122ebb8a28268a89700c9f723663b5b888ac", "addresses": ["17A16QmavnUfCW11DAApiJxp7ARnxN5pGX"], "asm": "OP_DUP OP_HASH160 43849383122ebb8a28268a89700c9f723663b5b8 OP_EQUALVERIFY OP_CHECKSIG", "type": "pubkeyhash"}, "value": 4.18414146, "n": 5}], "hex": "0200000001e79dcf65d784d79b4ffd9c218aa1bcdcb73786bdb92d681b8dfe3766b71afedb000000006b483045022100d1f77f190de9c7c02c7b924011aa08d35ffc6c283a822b5914d7de54ed0f24bc02200d71c5cdb0ad672a5a3740d54459434ef0c97c340e8c8de09b3c663535ae5085012103a0c53fcc4704ba78331a896c3bd684328b44890b25f91cfb853ab0bb301c7875ffffffff06af0c1300000000001976a91441479c963489eae2c325aa7fdd86ba9efab8f2f688ac79d41800000000001976a91419d632f789e083a8e5816354750b04af22ff46a788ac903a1c000000000017a9142fec5db6874c6976c6f2ac96a0d3565f4e2fbdac87051d2e000000000017a91469f37407789e4690dde150e51c5aaa1a90c6052c87d069840a0000000017a9144c219e40459b5c8333805503013f86e5e3c26ce487427ef018000000001976a91443849383122ebb8a28268a89700c9f723663b5b888ac00000000", "vin": [{"sequence": 4294967295, "scriptSig": {"hex": "483045022100d1f77f190de9c7c02c7b924011aa08d35ffc6c283a822b5914d7de54ed0f24bc02200d71c5cdb0ad672a5a3740d54459434ef0c97c340e8c8de09b3c663535ae5085012103a0c53fcc4704ba78331a896c3bd684328b44890b25f91cfb853ab0bb301c7875", "asm": "3045022100d1f77f190de9c7c02c7b924011aa08d35ffc6c283a822b5914d7de54ed0f24bc02200d71c5cdb0ad672a5a3740d54459434ef0c97c340e8c8de09b3c663535ae5085[ALL] 03a0c53fcc4704ba78331a896c3bd684328b44890b25f91cfb853ab0bb301c7875"}, "vout": 0, "txid": "dbfe1ab76637fe8d1b682db9bd8637b7dcbca18a219cfd4f9bd784d765cf9de7"}], "txid": "8a4ad7c6d98b81fd480220878d37f0a15e3869bc2ea25f35784898e4fbf12490", "blocktime": 1537869901, "version": 2, "confirmations": 11522, "time": 1537869901, "locktime": 0, "vsize": 356, "size": 356}