{"hash": "92de056549ece553ce9441d6329154a5f44e858cc34a19f8be34ea6dd36a44f7", "blockhash": "0000000000000000000e13cef7c366c0283d82e591d1acd082e914b08063cdf1", "vout": [{"scriptPubKey": {"reqSigs": 1, "hex": "00144ed9411a141b3135ac485379c0e56f3590340825", "addresses": ["bc1qfmv5zxs5rvcnttzg2duupet0xkgrgzp9jhm0v3"], "asm": "0 4ed9411a141b3135ac485379c0e56f3590340825", "type": "witness_v0_keyhash"}, "value": 0.01, "n": 0}, {"scriptPubKey": {"reqSigs": 1, "hex": "a9140de60ed9d29ef7c8f20579fc970c7657ae4d3f0a87", "addresses": ["32xWJkMsHfmQ42yFJYDiXFS17C9RenqRoJ"], "asm": "OP_HASH160 0de60ed9d29ef7c8f20579fc970c7657ae4d3f0a OP_EQUAL", "type": "scripthash"}, "value": 0.0943712, "n": 1}], "hex": "010000000001012ef4ff2f1ec545b82d433dc0494e5aefa2494c32f5ed8f6e09971c7d673fc2b00100000023220020d98f34b1e89c21024bec93b198e50e167e3383dc0bb71ba6f36707f6ab0f35f9ffffffff0240420f00000000001600144ed9411a141b3135ac485379c0e56f3590340825c0ff8f000000000017a9140de60ed9d29ef7c8f20579fc970c7657ae4d3f0a8704004830450221008b7081912acd27436ec7cd29c2827e449fc2c7d217c35277e73dd70044e57ec602205861c469324cdb37bbd0d7e06474cf5b4300b59c22dab9964dcbb712f2b30f4501483045022100b725ba7643357771dd26fc8fe93ad9f8ae158460ff906af9818740aba79a3f3c0220518701344751ed5d4ef1497221e8b1359dca27615c505c0cee62a1d0f2aff8fa0147522102dc23be3a45982c708852a35de0d2826583bc72c45d52fa4356a49d4d6283330421038f2c7ecee34c843be9d886e50ce79e5dc40a1694c0417d60b35340f292ff73fc52ae00000000", "vin": [{"txinwitness": ["", "30450221008b7081912acd27436ec7cd29c2827e449fc2c7d217c35277e73dd70044e57ec602205861c469324cdb37bbd0d7e06474cf5b4300b59c22dab9964dcbb712f2b30f4501", "3045022100b725ba7643357771dd26fc8fe93ad9f8ae158460ff906af9818740aba79a3f3c0220518701344751ed5d4ef1497221e8b1359dca27615c505c0cee62a1d0f2aff8fa01", "522102dc23be3a45982c708852a35de0d2826583bc72c45d52fa4356a49d4d6283330421038f2c7ecee34c843be9d886e50ce79e5dc40a1694c0417d60b35340f292ff73fc52ae"], "sequence": 4294967295, "scriptSig": {"hex": "220020d98f34b1e89c21024bec93b198e50e167e3383dc0bb71ba6f36707f6ab0f35f9", "asm": "0020d98f34b1e89c21024bec93b198e50e167e3383dc0bb71ba6f36707f6ab0f35f9"}, "vout": 1, "txid": "b0c23f677d1c97096e8fedf5324c49a2ef5a4e49c03d432db845c51e2ffff42e"}], "txid": "8a4d98c0ee965e6f54c71b9b02781b230f8f42299c4e9610cc5e68a411545e37", "blocktime": 1537871767, "version": 1, "confirmations": 11495, "time": 1537871767, "locktime": 0, "vsize": 205, "size": 371}