{"hash": "d755ec946f1f81c01ea552390af168817d428bb48d03ccef639fecd436a28a55", "blockhash": "0000000000000000000e13cef7c366c0283d82e591d1acd082e914b08063cdf1", "vout": [{"scriptPubKey": {"reqSigs": 1, "hex": "76a914c0475152d05b9b375f38282ba59f5b32b27ca66088ac", "addresses": ["1JXgB54XuB31uvfHKfS4VumGiNntua88Hw"], "asm": "OP_DUP OP_HASH160 c0475152d05b9b375f38282ba59f5b32b27ca660 OP_EQUALVERIFY OP_CHECKSIG", "type": "pubkeyhash"}, "value": 0.00017642, "n": 0}, {"scriptPubKey": {"reqSigs": 1, "hex": "a914a5cb6d8c4286a5de7fe0921dde3267adc77ff9ed87", "addresses": ["3Gof7cexUxQWMSB5e4adGtarBJDNNv4Vjy"], "asm": "OP_HASH160 a5cb6d8c4286a5de7fe0921dde3267adc77ff9ed OP_EQUAL", "type": "scripthash"}, "value": 0.00868395, "n": 1}], "hex": "01000000000101b789ff9ba1099e7c31b344ba26fb69ca88a16d912f6a3146227818203116baf30100000023220020b3338f9571dda5ad799834148ea1ed19d1123924bdbb356e0c8c610b69cfd906ffffffff02ea440000000000001976a914c0475152d05b9b375f38282ba59f5b32b27ca66088ac2b400d000000000017a914a5cb6d8c4286a5de7fe0921dde3267adc77ff9ed87040047304402204df3dde167f32a2043e6b732626ba0f4ca9968aff6d12b72b15022846f38ca47022025b388b9cb4107266405ab51d150e1fbc34d2575190c2732062c0795a932c6100147304402201b6a46633f5d4cff24edda86a540f9b484c701b2b618e26f1c7ede17b992222c02201adc74a29feb8c34ee1677b0aa4d2f79369d0e0c365fd4f49fbcf0d273226d9801475221030c187397a5b8dfedda9f5fedc3a23f7c20923351690c4b0247f9bce94499c4202103871fc2ca08e6950b38867e8e6a0e94ee625223d3aa0df5c65f414c6d784467e252ae00000000", "vin": [{"txinwitness": ["", "304402204df3dde167f32a2043e6b732626ba0f4ca9968aff6d12b72b15022846f38ca47022025b388b9cb4107266405ab51d150e1fbc34d2575190c2732062c0795a932c61001", "304402201b6a46633f5d4cff24edda86a540f9b484c701b2b618e26f1c7ede17b992222c02201adc74a29feb8c34ee1677b0aa4d2f79369d0e0c365fd4f49fbcf0d273226d9801", "5221030c187397a5b8dfedda9f5fedc3a23f7c20923351690c4b0247f9bce94499c4202103871fc2ca08e6950b38867e8e6a0e94ee625223d3aa0df5c65f414c6d784467e252ae"], "sequence": 4294967295, "scriptSig": {"hex": "220020b3338f9571dda5ad799834148ea1ed19d1123924bdbb356e0c8c610b69cfd906", "asm": "0020b3338f9571dda5ad799834148ea1ed19d1123924bdbb356e0c8c610b69cfd906"}, "vout": 1, "txid": "f3ba16312018782246316a2f916da188ca69fb26ba44b3317c9e09a19bff89b7"}], "txid": "8a4d1769428e80e289ebb30074c58b0ed445539714b75cfa94b74e3c7f6a4e22", "blocktime": 1537871767, "version": 1, "confirmations": 11495, "time": 1537871767, "locktime": 0, "vsize": 207, "size": 372}