{"hash": "27ef61cfa1273270161d1b20965b86e777b3c5499ad507accd4a2591abcfa4ea", "blockhash": "00000000000000000017f5eb5941039fbcee6240d03bc1f2f8e35350df66a1d8", "vout": [{"scriptPubKey": {"reqSigs": 1, "hex": "76a9147c154ed1dc59609e3d26abb2df2ea3d587cd8c4188ac", "addresses": ["1CK6KHY6MHgYvmRQ4PAafKYDrg1ejbH1cE"], "asm": "OP_DUP OP_HASH160 7c154ed1dc59609e3d26abb2df2ea3d587cd8c41 OP_EQUALVERIFY OP_CHECKSIG", "type": "pubkeyhash"}, "value": 12.6030432, "n": 0}, {"scriptPubKey": {"type": "nulldata", "hex": "6a4c2952534b424c4f434b3a09f5edc49b1a0a9c470710f70db36cfc67ce61f2bbeb456f23866476cfea22aa", "asm": "OP_RETURN 52534b424c4f434b3a09f5edc49b1a0a9c470710f70db36cfc67ce61f2bbeb456f23866476cfea22aa"}, "value": 0.0, "n": 1}, {"scriptPubKey": {"type": "nulldata", "hex": "6a24aa21a9ed206f0843cd1377d5ce9efb1998dbfdd154186b5529101e56f3082ee7d24fbf6b", "asm": "OP_RETURN aa21a9ed206f0843cd1377d5ce9efb1998dbfdd154186b5529101e56f3082ee7d24fbf6b"}, "value": 0.0, "n": 2}], "hex": "010000000001010000000000000000000000000000000000000000000000000000000000000000ffffffff4503164908fabe6d6d03a04e7aa371bb481b5bf106587a8b29e11410417bf251391ce285eded3774d30100000000000000646605006774d9092d0000345c062f736c7573682f0000000003c0b71e4b000000001976a9147c154ed1dc59609e3d26abb2df2ea3d587cd8c4188ac00000000000000002c6a4c2952534b424c4f434b3a09f5edc49b1a0a9c470710f70db36cfc67ce61f2bbeb456f23866476cfea22aa0000000000000000266a24aa21a9ed206f0843cd1377d5ce9efb1998dbfdd154186b5529101e56f3082ee7d24fbf6b0120000000000000000000000000000000000000000000000000000000000000000000000000", "vin": [{"coinbase": "03164908fabe6d6d03a04e7aa371bb481b5bf106587a8b29e11410417bf251391ce285eded3774d30100000000000000646605006774d9092d0000345c062f736c7573682f", "sequence": 0}], "txid": "8a4f9c1dd19ee878a0181f5a211ef77095379c583f26206da1da6ea11ddf4404", "blocktime": 1537874412, "version": 1, "confirmations": 11466, "time": 1537874412, "locktime": 0, "vsize": 263, "size": 290}