{"hash": "8a535985ba52c4de13245284a4b77085a5fd4ff7217b3ce7c75ab2c06b2c6eab", "blockhash": "00000000000000000018f53835495a110e01622372bf6ae95dc86f2b0ab887b0", "vout": [{"scriptPubKey": {"reqSigs": 1, "hex": "76a914cf068431c6b06741a80a8f4cf2ff23a9d49aa63888ac", "addresses": ["1KsegUZgHdbpk63hn7NVC5Ty1MjKCSawNe"], "asm": "OP_DUP OP_HASH160 cf068431c6b06741a80a8f4cf2ff23a9d49aa638 OP_EQUALVERIFY OP_CHECKSIG", "type": "pubkeyhash"}, "value": 0.001569, "n": 0}, {"scriptPubKey": {"reqSigs": 1, "hex": "76a9146c566051d31fc3ceea69dac3f92afed16e41cef788ac", "addresses": ["1AsqTFBznXCzyT364agLwwcu2DsDjPc8GT"], "asm": "OP_DUP OP_HASH160 6c566051d31fc3ceea69dac3f92afed16e41cef7 OP_EQUALVERIFY OP_CHECKSIG", "type": "pubkeyhash"}, "value": 0.0844768, "n": 1}], "hex": "01000000013c7d73a944260bc0247850904dca3675818b01fb7174b66c26e916813fb1dcb2010000006b4830450221009c41381704dc51e56a46d732bb739387b92910c7bfc2292863a6a5fb22b5112f022002abe0aa460dafba14afd90522943d95b3790adecda28a00b1e8a079ee87e825012102a81c66e44e197b67130d73991380770c23c4ba0cb28ddfc4252188726a91ad37ffffffff02e4640200000000001976a914cf068431c6b06741a80a8f4cf2ff23a9d49aa63888acc0e68000000000001976a9146c566051d31fc3ceea69dac3f92afed16e41cef788ac00000000", "vin": [{"sequence": 4294967295, "scriptSig": {"hex": "4830450221009c41381704dc51e56a46d732bb739387b92910c7bfc2292863a6a5fb22b5112f022002abe0aa460dafba14afd90522943d95b3790adecda28a00b1e8a079ee87e825012102a81c66e44e197b67130d73991380770c23c4ba0cb28ddfc4252188726a91ad37", "asm": "30450221009c41381704dc51e56a46d732bb739387b92910c7bfc2292863a6a5fb22b5112f022002abe0aa460dafba14afd90522943d95b3790adecda28a00b1e8a079ee87e825[ALL] 02a81c66e44e197b67130d73991380770c23c4ba0cb28ddfc4252188726a91ad37"}, "vout": 1, "txid": "b2dcb13f8116e9266cb67471fb018b817536ca4d90507824c00b2644a9737d3c"}], "txid": "8a535985ba52c4de13245284a4b77085a5fd4ff7217b3ce7c75ab2c06b2c6eab", "blocktime": 1537870928, "version": 1, "confirmations": 11514, "time": 1537870928, "locktime": 0, "vsize": 226, "size": 226}