{"hash": "8a5635225b5e84040f2da738beb0eebf214c587e6531ea39499e3823d2f825a7", "blockhash": "00000000000000000024a2167bbff67b0be802c0b01cdd79e6331c2be6459f87", "vout": [{"scriptPubKey": {"reqSigs": 1, "hex": "76a914902caa84dd3a8071c424d273c722ee2a6a78ffd588ac", "addresses": ["1E9Kp5X6D4yVNpteUbhHi3Pn6Ar2QxNMbp"], "asm": "OP_DUP OP_HASH160 902caa84dd3a8071c424d273c722ee2a6a78ffd5 OP_EQUALVERIFY OP_CHECKSIG", "type": "pubkeyhash"}, "value": 0.00027739, "n": 0}, {"scriptPubKey": {"reqSigs": 1, "hex": "76a9142720c515abb2a98e48314a5001d31165bc85553988ac", "addresses": ["14ZtcNY5r9M7izuFYVCFQ4F6ES4vcpQj24"], "asm": "OP_DUP OP_HASH160 2720c515abb2a98e48314a5001d31165bc855539 OP_EQUALVERIFY OP_CHECKSIG", "type": "pubkeyhash"}, "value": 0.0050135, "n": 1}], "hex": "0100000002b4426eeae921673bca23e5cd141827d70f2ab6822f034b4c38c690b3ffe0520b010000006a47304402204da238926052fad74ca853e0c049fd6c4be15fe94772427478e046a8763947bc022021d2ace89d6cf7b0e43c33637c42842b3b9747526c2f2e7b1adff1d543a38f42012102deea58d26142f72f057048f3fcf6bad6da47db6f77ff62b416016ebb266a6e7efffffffffe2580fb31596ca59448c0a5e60d6e1a84645e44b9d6da3441e7b319bf8635e3000000006b483045022100dd86e289f4337a7f3a8935e97e055be538dcb8364db7f13a9ffdf463812e247302203924033910945aab2d26179e0989750255d18fde9cbbbd08d303a0b83c2801010121028ffd56766e8d1c7dd5705a5d8f889c546cc7fa75df721c17cd1260c24cfcebe4ffffffff025b6c0000000000001976a914902caa84dd3a8071c424d273c722ee2a6a78ffd588ac66a60700000000001976a9142720c515abb2a98e48314a5001d31165bc85553988ac00000000", "vin": [{"sequence": 4294967295, "scriptSig": {"hex": "47304402204da238926052fad74ca853e0c049fd6c4be15fe94772427478e046a8763947bc022021d2ace89d6cf7b0e43c33637c42842b3b9747526c2f2e7b1adff1d543a38f42012102deea58d26142f72f057048f3fcf6bad6da47db6f77ff62b416016ebb266a6e7e", "asm": "304402204da238926052fad74ca853e0c049fd6c4be15fe94772427478e046a8763947bc022021d2ace89d6cf7b0e43c33637c42842b3b9747526c2f2e7b1adff1d543a38f42[ALL] 02deea58d26142f72f057048f3fcf6bad6da47db6f77ff62b416016ebb266a6e7e"}, "vout": 1, "txid": "0b52e0ffb390c6384c4b032f82b62a0fd7271814cde523ca3b6721e9ea6e42b4"}, {"sequence": 4294967295, "scriptSig": {"hex": "483045022100dd86e289f4337a7f3a8935e97e055be538dcb8364db7f13a9ffdf463812e247302203924033910945aab2d26179e0989750255d18fde9cbbbd08d303a0b83c2801010121028ffd56766e8d1c7dd5705a5d8f889c546cc7fa75df721c17cd1260c24cfcebe4", "asm": "3045022100dd86e289f4337a7f3a8935e97e055be538dcb8364db7f13a9ffdf463812e247302203924033910945aab2d26179e0989750255d18fde9cbbbd08d303a0b83c280101[ALL] 028ffd56766e8d1c7dd5705a5d8f889c546cc7fa75df721c17cd1260c24cfcebe4"}, "vout": 0, "txid": "e33586bf19b3e74134dad6b9445e64841a6e0de6a5c04894a56c5931fb8025fe"}], "txid": "8a5635225b5e84040f2da738beb0eebf214c587e6531ea39499e3823d2f825a7", "blocktime": 1537870564, "version": 1, "confirmations": 11515, "time": 1537870564, "locktime": 0, "vsize": 373, "size": 373}