{"hash": "8a57686bee41f47a3e48b4734007bf99aaf584d472dbd1341f40454b47dbbe45", "blockhash": "00000000000000000018f53835495a110e01622372bf6ae95dc86f2b0ab887b0", "vout": [{"scriptPubKey": {"reqSigs": 1, "hex": "76a91447595d04493bf00e10477ef09f4324cccba6236388ac", "addresses": ["17WG2hG5YWzGyKML4L4g7k9V76yy7KNtDg"], "asm": "OP_DUP OP_HASH160 47595d04493bf00e10477ef09f4324cccba62363 OP_EQUALVERIFY OP_CHECKSIG", "type": "pubkeyhash"}, "value": 0.0072757, "n": 0}, {"scriptPubKey": {"reqSigs": 1, "hex": "a9148b37af30d3125d5dd6ce2a822d44fcd84c0d2b1587", "addresses": ["3EP8ZDwLp1KqXb2yxWkkj8hcuppGb3U7hx"], "asm": "OP_HASH160 8b37af30d3125d5dd6ce2a822d44fcd84c0d2b15 OP_EQUAL", "type": "scripthash"}, "value": 0.039299, "n": 1}], "hex": "0100000002fca525f84ed587d22b4a8a657c612a749ed12e4f6802cbac2e93009f942e2389010000006a4730440220554d48ff75c7abc715fa34f93fdde9725a1bf7d76f41ecf1e8a974b7758969e902200457324bfca5accae49ec8f53fa1aa8aaebf827d8642122c815c82d5a7873f6b012103022f89dbe762d4bc48cdbdfd7cee44f33a377394a791680412edb4a3b60e3a28feffffffa435a3426f319459941aec00b43059e7da25d3ab6529d0b57c9272ab50064c9f000000006a47304402205c6bd3566cffaaaf30bea60538db9734f88d0438f93d9fddebde411f89c4e6db022063085c9ebb3f62b3daaf83f118ffc10ecb4b9fd1b18406012e269141a9a4bce00121029d5cbabb598add338129eb74a35d31fda5300d7a324c15043be6dd1cdf51b8a4feffffff02121a0b00000000001976a91447595d04493bf00e10477ef09f4324cccba6236388ac2cf73b000000000017a9148b37af30d3125d5dd6ce2a822d44fcd84c0d2b15870e490800", "vin": [{"sequence": 4294967294, "scriptSig": {"hex": "4730440220554d48ff75c7abc715fa34f93fdde9725a1bf7d76f41ecf1e8a974b7758969e902200457324bfca5accae49ec8f53fa1aa8aaebf827d8642122c815c82d5a7873f6b012103022f89dbe762d4bc48cdbdfd7cee44f33a377394a791680412edb4a3b60e3a28", "asm": "30440220554d48ff75c7abc715fa34f93fdde9725a1bf7d76f41ecf1e8a974b7758969e902200457324bfca5accae49ec8f53fa1aa8aaebf827d8642122c815c82d5a7873f6b[ALL] 03022f89dbe762d4bc48cdbdfd7cee44f33a377394a791680412edb4a3b60e3a28"}, "vout": 1, "txid": "89232e949f00932eaccb02684f2ed19e742a617c658a4a2bd287d54ef825a5fc"}, {"sequence": 4294967294, "scriptSig": {"hex": "47304402205c6bd3566cffaaaf30bea60538db9734f88d0438f93d9fddebde411f89c4e6db022063085c9ebb3f62b3daaf83f118ffc10ecb4b9fd1b18406012e269141a9a4bce00121029d5cbabb598add338129eb74a35d31fda5300d7a324c15043be6dd1cdf51b8a4", "asm": "304402205c6bd3566cffaaaf30bea60538db9734f88d0438f93d9fddebde411f89c4e6db022063085c9ebb3f62b3daaf83f118ffc10ecb4b9fd1b18406012e269141a9a4bce0[ALL] 029d5cbabb598add338129eb74a35d31fda5300d7a324c15043be6dd1cdf51b8a4"}, "vout": 0, "txid": "9f4c0650ab72927cb5d02965abd325dae75930b400ec1a945994316f42a335a4"}], "txid": "8a57686bee41f47a3e48b4734007bf99aaf584d472dbd1341f40454b47dbbe45", "blocktime": 1537870928, "version": 1, "confirmations": 11514, "time": 1537870928, "locktime": 542990, "vsize": 370, "size": 370}