{"hash": "35b0bdb2481d7e4ca0aaa5456dd2bf9531a9dd65c4aa6699a5fed15f470f4788", "blockhash": "0000000000000000001cda96e906b7601b7a6fb1a3b62bca570a9e5d8f4b3de1", "vout": [{"scriptPubKey": {"reqSigs": 1, "hex": "a91457b6da63571da9c6fef8b855f1a970fabf7a8a6f87", "addresses": ["39gom62yv5PSjV3RyEWvnaU1X7vzCRERpr"], "asm": "OP_HASH160 57b6da63571da9c6fef8b855f1a970fabf7a8a6f OP_EQUAL", "type": "scripthash"}, "value": 0.02563772, "n": 0}, {"scriptPubKey": {"reqSigs": 1, "hex": "a914acca1b918d812bae3877bd7399343c84a8e569f887", "addresses": ["3HSeGE84C4gMa8MQg6yXU8pcqVAyPZfjN5"], "asm": "OP_HASH160 acca1b918d812bae3877bd7399343c84a8e569f8 OP_EQUAL", "type": "scripthash"}, "value": 0.01046053, "n": 1}], "hex": "020000000001023dfe8779abc13ba62029d8c877dce42dbcf4ed0369f9526ab8e9d96ee1558c6a000000001716001456b36d0fb23fbe4d10731a5ae40d92654b3c7121feffffffca28ebc19f28582d89703a2bb41395aa50b4d2af061cfdff86a575e219e472650000000017160014a6b180c5b4a6c3a171c7b6fffed40328d84aa760feffffff02bc1e27000000000017a91457b6da63571da9c6fef8b855f1a970fabf7a8a6f8725f60f000000000017a914acca1b918d812bae3877bd7399343c84a8e569f88702473044022025f395ef69c764f0d5432f5f2e7a1e6da441b24bad06d732aa6b0e552821eee602201336111e0580fe447c2fbc5d297a98d6ea7b3532191bd5212480631d3d800b82012102cd7410aa3980e5827b35e1e225781c59f2b839e179d06c05c23654139021644602473044022076f50e7e77e2fb58e2b1dfeedb0e708a94e2d0c74c16427e3baa48759de8c10e022069589afa9871ddf3d93ed572232ce13a40596bdfeb64ef69df2606433d7bfcd60121030f807a4963a486a878dab2368fcea3735612c066a746fc56ee84e6f63d9cecf613490800", "vin": [{"txinwitness": ["3044022025f395ef69c764f0d5432f5f2e7a1e6da441b24bad06d732aa6b0e552821eee602201336111e0580fe447c2fbc5d297a98d6ea7b3532191bd5212480631d3d800b8201", "02cd7410aa3980e5827b35e1e225781c59f2b839e179d06c05c236541390216446"], "sequence": 4294967294, "scriptSig": {"hex": "16001456b36d0fb23fbe4d10731a5ae40d92654b3c7121", "asm": "001456b36d0fb23fbe4d10731a5ae40d92654b3c7121"}, "vout": 0, "txid": "6a8c55e16ed9e9b86a52f96903edf4bc2de4dc77c8d82920a63bc1ab7987fe3d"}, {"txinwitness": ["3044022076f50e7e77e2fb58e2b1dfeedb0e708a94e2d0c74c16427e3baa48759de8c10e022069589afa9871ddf3d93ed572232ce13a40596bdfeb64ef69df2606433d7bfcd601", "030f807a4963a486a878dab2368fcea3735612c066a746fc56ee84e6f63d9cecf6"], "sequence": 4294967294, "scriptSig": {"hex": "160014a6b180c5b4a6c3a171c7b6fffed40328d84aa760", "asm": "0014a6b180c5b4a6c3a171c7b6fffed40328d84aa760"}, "vout": 0, "txid": "6572e419e275a586fffd1c06afd2b450aa9513b42b3a70892d58289fc1eb28ca"}], "txid": "8a5d32020d0db5d266a6c8cbdec56632f3d2bb9b7a6cb40a695e56b649c05334", "blocktime": 1537873282, "version": 2, "confirmations": 11485, "time": 1537873282, "locktime": 542995, "vsize": 256, "size": 418}