{"hash": "ee445d1669aba0f3e1054e8fce31fce9f5dc8958d2cffc75255dd53b906da149", "blockhash": "0000000000000000001f76057863aec43deb6fa401d9628bb513d65a8098bfab", "vout": [{"scriptPubKey": {"reqSigs": 1, "hex": "a9147d237bf09784b87105e331386d339441d254144d87", "addresses": ["3D6gu1B6iqwLS8NWK2g9zj4t4x3p1ZTXnE"], "asm": "OP_HASH160 7d237bf09784b87105e331386d339441d254144d OP_EQUAL", "type": "scripthash"}, "value": 0.01013346, "n": 0}, {"scriptPubKey": {"reqSigs": 1, "hex": "76a914bbaec083b5e6b2619a44122d11954d363152fd0488ac", "addresses": ["1J7NhraWXwxB5EzsPgHjvHxXqAAYgWV397"], "asm": "OP_DUP OP_HASH160 bbaec083b5e6b2619a44122d11954d363152fd04 OP_EQUALVERIFY OP_CHECKSIG", "type": "pubkeyhash"}, "value": 0.0048116, "n": 1}], "hex": "020000000001025a896ca181cce6db8ab1f961aad7ce2f3535d5ad1add89f6e7304a5cafb004490000000017160014226902c327b742786f274d22e2154588c04bbe9efeffffffa4c48da45359b961064e65c2a58092f24c79bebda11b3375b3fc4a90c5508d5a00000000171600149ee4e84bc9a3cd68441a46833dd2f0d559d3b6e3feffffff0262760f000000000017a9147d237bf09784b87105e331386d339441d254144d8788570700000000001976a914bbaec083b5e6b2619a44122d11954d363152fd0488ac024830450221009f81555e931a2861a062d89650f986252399331ce29d9b154b25f1f9f284cbcd02203512ce2c7c8eee21f352d1805a6f5a214ca35029a079b98089542106f25a6d8501210350b7c18b5bba3e2940fa2fc78516ba4aec557c41ed35445b1d49b0a1ad44a7d3024730440220342668d2c7922d5892a34c831a2f71432f20908fef147861592734aa9dd684cc022004bda65a79949d3b4da13ad8ffae65f3fe00d6e1f40c49c6b7ecfb849fe8a679012102668ceda2bf3af9423c85938372fabdb1bf6648544f36d515e583696f4827af8613490800", "vin": [{"txinwitness": ["30450221009f81555e931a2861a062d89650f986252399331ce29d9b154b25f1f9f284cbcd02203512ce2c7c8eee21f352d1805a6f5a214ca35029a079b98089542106f25a6d8501", "0350b7c18b5bba3e2940fa2fc78516ba4aec557c41ed35445b1d49b0a1ad44a7d3"], "sequence": 4294967294, "scriptSig": {"hex": "160014226902c327b742786f274d22e2154588c04bbe9e", "asm": "0014226902c327b742786f274d22e2154588c04bbe9e"}, "vout": 0, "txid": "4904b0af5c4a30e7f689dd1aadd535352fced7aa61f9b18adbe6cc81a16c895a"}, {"txinwitness": ["30440220342668d2c7922d5892a34c831a2f71432f20908fef147861592734aa9dd684cc022004bda65a79949d3b4da13ad8ffae65f3fe00d6e1f40c49c6b7ecfb849fe8a67901", "02668ceda2bf3af9423c85938372fabdb1bf6648544f36d515e583696f4827af86"], "sequence": 4294967294, "scriptSig": {"hex": "1600149ee4e84bc9a3cd68441a46833dd2f0d559d3b6e3", "asm": "00149ee4e84bc9a3cd68441a46833dd2f0d559d3b6e3"}, "vout": 0, "txid": "5a8d50c5904afcb375331ba1bdbe794cf29280a5c2654e0661b95953a48dc4a4"}], "txid": "8a5d4c59f04f29c51adf9d07b47f2292783efe6694273aaa50874ae86145f5e0", "blocktime": 1537873891, "version": 2, "confirmations": 11478, "time": 1537873891, "locktime": 542995, "vsize": 259, "size": 421}