{"hash": "8a5f668b9b75ad07212085208ff56426542c36ecc6e6bc854e0726b9e582c07c", "blockhash": "0000000000000000001f76057863aec43deb6fa401d9628bb513d65a8098bfab", "vout": [{"scriptPubKey": {"reqSigs": 1, "hex": "76a9142de6defdb4602c743fdfe232f27007ffd33e331a88ac", "addresses": ["15BhyqR6nvj4XwQj1BgpLqjpHf6nDKpUBc"], "asm": "OP_DUP OP_HASH160 2de6defdb4602c743fdfe232f27007ffd33e331a OP_EQUALVERIFY OP_CHECKSIG", "type": "pubkeyhash"}, "value": 0.17222245, "n": 0}, {"scriptPubKey": {"reqSigs": 1, "hex": "76a9147a2f1b6b059bed59096ee79b60243fa511437d9188ac", "addresses": ["1C93sToakzy4NfNv5RDswiQM2Vo5pE5Ndv"], "asm": "OP_DUP OP_HASH160 7a2f1b6b059bed59096ee79b60243fa511437d91 OP_EQUALVERIFY OP_CHECKSIG", "type": "pubkeyhash"}, "value": 2.80696675, "n": 1}], "hex": "0100000002128f6d69dac3f95d0a1bb5cb1fa3d1a01476f3dac1a6bf09c33245fac5d35656010000006a473044022022120b1cd1e7ceb0e7b96b303fc13ebcd473acdd0640e1806808ce7991e9b4c502205146929175643b39c7b87e5478299b030ab5c47bcaa9fdde0ea8bec80f7f2323012102197ca53c616580e15d8e5cedd7ac4c8051d3182f37487a48c60c37305d56e292ffffffffe58e12b2a8a69bbe69d60b3b09c8ca005d6cf751e00e3e69b1673e917419badc030000006a473044022059e848917e0ec4f66662e2498f657ef77469d5c1fdea3a7de4d0c3db2d716df602207a882391d1f8f1d59d1e65d3d10ab70f49e0c8e1f2525fd4fe58ebb8938ba17f0121037f6b2f5011dc7babad866c999fdd0256e4730207f912c6e3f6884a739d1a6112ffffffff0265ca0601000000001976a9142de6defdb4602c743fdfe232f27007ffd33e331a88ac6317bb10000000001976a9147a2f1b6b059bed59096ee79b60243fa511437d9188ac00000000", "vin": [{"sequence": 4294967295, "scriptSig": {"hex": "473044022022120b1cd1e7ceb0e7b96b303fc13ebcd473acdd0640e1806808ce7991e9b4c502205146929175643b39c7b87e5478299b030ab5c47bcaa9fdde0ea8bec80f7f2323012102197ca53c616580e15d8e5cedd7ac4c8051d3182f37487a48c60c37305d56e292", "asm": "3044022022120b1cd1e7ceb0e7b96b303fc13ebcd473acdd0640e1806808ce7991e9b4c502205146929175643b39c7b87e5478299b030ab5c47bcaa9fdde0ea8bec80f7f2323[ALL] 02197ca53c616580e15d8e5cedd7ac4c8051d3182f37487a48c60c37305d56e292"}, "vout": 1, "txid": "5656d3c5fa4532c309bfa6c1daf37614a0d1a31fcbb51b0a5df9c3da696d8f12"}, {"sequence": 4294967295, "scriptSig": {"hex": "473044022059e848917e0ec4f66662e2498f657ef77469d5c1fdea3a7de4d0c3db2d716df602207a882391d1f8f1d59d1e65d3d10ab70f49e0c8e1f2525fd4fe58ebb8938ba17f0121037f6b2f5011dc7babad866c999fdd0256e4730207f912c6e3f6884a739d1a6112", "asm": "3044022059e848917e0ec4f66662e2498f657ef77469d5c1fdea3a7de4d0c3db2d716df602207a882391d1f8f1d59d1e65d3d10ab70f49e0c8e1f2525fd4fe58ebb8938ba17f[ALL] 037f6b2f5011dc7babad866c999fdd0256e4730207f912c6e3f6884a739d1a6112"}, "vout": 3, "txid": "dcba1974913e67b1693e0ee051f76c5d00cac8093b0bd669be9ba6a8b2128ee5"}], "txid": "8a5f668b9b75ad07212085208ff56426542c36ecc6e6bc854e0726b9e582c07c", "blocktime": 1537873891, "version": 1, "confirmations": 11475, "time": 1537873891, "locktime": 0, "vsize": 372, "size": 372}