{"hash": "0d5e7d1382041655f3c0902dc9df0d29bfe1aa1cf881df97e61715b89695fa3f", "blockhash": "0000000000000000000e13cef7c366c0283d82e591d1acd082e914b08063cdf1", "vout": [{"scriptPubKey": {"reqSigs": 1, "hex": "a914321b5d658b6b8f449c8b51f0a1679c9cb9243d3887", "addresses": ["36FxVUd2kWytSHMnjRFj4Gwqwrrkr7sAiX"], "asm": "OP_HASH160 321b5d658b6b8f449c8b51f0a1679c9cb9243d38 OP_EQUAL", "type": "scripthash"}, "value": 0.1, "n": 0}, {"scriptPubKey": {"reqSigs": 1, "hex": "a9140c54f418c67f6428670a594c0ae6ef9b6dc644fb87", "addresses": ["32pDoX2nzS1udBKLoPVsWNzuuZ9ucvsZot"], "asm": "OP_HASH160 0c54f418c67f6428670a594c0ae6ef9b6dc644fb OP_EQUAL", "type": "scripthash"}, "value": 0.67004014, "n": 1}], "hex": "01000000000101cbd95b6906f9a2ce2fbcb3212cbee51bfb719d3087d2ec584248006a4c2e268f01000000232200209e9da6891fa95d32e450594cd220706e7ae21de4b263650083984ffd27c02864ffffffff02809698000000000017a914321b5d658b6b8f449c8b51f0a1679c9cb9243d38876e66fe030000000017a9140c54f418c67f6428670a594c0ae6ef9b6dc644fb87040047304402205e748c20d3c99beecf231f9af57a526339dd2c2695a1ebe7c5face3483d6994b02205f981c5fa25a4e422d7db686489b063b62290159b9942f47537fc164495c54b20147304402205f5bbdf9350ab74567d90df915f8e301e5910052c629278693358c7fbab1931702205ce42471e9cacccb0ca0a9a00b9f19faf316d7fc6bfbcd053a2198219506aab1014752210248e0a896ac9c991f101c01d620d5c4c1cbd328bc1fe3e9bc1c16537b8779371b2103d9d2be3f5a20e2bda8a215b3765d46030eae17d676a304cec3e22e5fcb12136f52ae00000000", "vin": [{"txinwitness": ["", "304402205e748c20d3c99beecf231f9af57a526339dd2c2695a1ebe7c5face3483d6994b02205f981c5fa25a4e422d7db686489b063b62290159b9942f47537fc164495c54b201", "304402205f5bbdf9350ab74567d90df915f8e301e5910052c629278693358c7fbab1931702205ce42471e9cacccb0ca0a9a00b9f19faf316d7fc6bfbcd053a2198219506aab101", "52210248e0a896ac9c991f101c01d620d5c4c1cbd328bc1fe3e9bc1c16537b8779371b2103d9d2be3f5a20e2bda8a215b3765d46030eae17d676a304cec3e22e5fcb12136f52ae"], "sequence": 4294967295, "scriptSig": {"hex": "2200209e9da6891fa95d32e450594cd220706e7ae21de4b263650083984ffd27c02864", "asm": "00209e9da6891fa95d32e450594cd220706e7ae21de4b263650083984ffd27c02864"}, "vout": 1, "txid": "8f262e4c6a00484258ecd287309d71fb1be5be2c21b3bc2fcea2f906695bd9cb"}], "txid": "8a5fb24483cae12278ecd738bf1a130cbb0e2232cbd05c8afc90f1b5fa53b927", "blocktime": 1537871767, "version": 1, "confirmations": 11495, "time": 1537871767, "locktime": 0, "vsize": 205, "size": 370}