{"hash": "8a65a6fefefe64d814027d4eb5412d4db8f7ea233607a35ea3ef3ac95ed758bf", "blockhash": "0000000000000000001cda96e906b7601b7a6fb1a3b62bca570a9e5d8f4b3de1", "vout": [{"scriptPubKey": {"reqSigs": 1, "hex": "76a9146f5939bc33528fd2ab07730ad1c76e616eeb51ff88ac", "addresses": ["1B9ktnukhkr6WogNuUimvurQXAMihsh7mh"], "asm": "OP_DUP OP_HASH160 6f5939bc33528fd2ab07730ad1c76e616eeb51ff OP_EQUALVERIFY OP_CHECKSIG", "type": "pubkeyhash"}, "value": 1.02455393, "n": 0}, {"scriptPubKey": {"reqSigs": 1, "hex": "76a9141df32144063c2c0d05ef2f4d84aa139fdb7bcb9b88ac", "addresses": ["13jMrXcPKxKcJFcQQwHAXx518RupP6zm3j"], "asm": "OP_DUP OP_HASH160 1df32144063c2c0d05ef2f4d84aa139fdb7bcb9b OP_EQUALVERIFY OP_CHECKSIG", "type": "pubkeyhash"}, "value": 1.1, "n": 1}], "hex": "0100000002461e76d430ce6b6a54a4217e307f0c213a1ca57f7c891e3d4fb81b5c6da9608e010000006b4830450221009264ba28537b312c7092bb048c7bc3b485e1c6adf2147a29130f722c439aed5f0220546236692cdbad6782df2794c37190f69dc741afe530353a1ae67154979227ac0121024cabd81149e5ce16e023812ea45ac5c07cfb5f93ae4e748526ad610bc05c522dffffffff46552cae1f5179351f7017ccaa478d42edb0b0fa221294e5b371b0749b23dd23010000006b4830450221008e0ca5675ceca65f400f65e92e4541c93ba4e3114947060e8f7816447b32aac3022024fb0b13afa7576c33ffa4579b9553305e703788046c84b21956a788320e6a08012103329f0ca8a194cb76bee9a0250313339953a957f263625ca33d493736eadcd123ffffffff0261581b06000000001976a9146f5939bc33528fd2ab07730ad1c76e616eeb51ff88ac80778e06000000001976a9141df32144063c2c0d05ef2f4d84aa139fdb7bcb9b88ac00000000", "vin": [{"sequence": 4294967295, "scriptSig": {"hex": "4830450221009264ba28537b312c7092bb048c7bc3b485e1c6adf2147a29130f722c439aed5f0220546236692cdbad6782df2794c37190f69dc741afe530353a1ae67154979227ac0121024cabd81149e5ce16e023812ea45ac5c07cfb5f93ae4e748526ad610bc05c522d", "asm": "30450221009264ba28537b312c7092bb048c7bc3b485e1c6adf2147a29130f722c439aed5f0220546236692cdbad6782df2794c37190f69dc741afe530353a1ae67154979227ac[ALL] 024cabd81149e5ce16e023812ea45ac5c07cfb5f93ae4e748526ad610bc05c522d"}, "vout": 1, "txid": "8e60a96d5c1bb84f3d1e897c7fa51c3a210c7f307e21a4546a6bce30d4761e46"}, {"sequence": 4294967295, "scriptSig": {"hex": "4830450221008e0ca5675ceca65f400f65e92e4541c93ba4e3114947060e8f7816447b32aac3022024fb0b13afa7576c33ffa4579b9553305e703788046c84b21956a788320e6a08012103329f0ca8a194cb76bee9a0250313339953a957f263625ca33d493736eadcd123", "asm": "30450221008e0ca5675ceca65f400f65e92e4541c93ba4e3114947060e8f7816447b32aac3022024fb0b13afa7576c33ffa4579b9553305e703788046c84b21956a788320e6a08[ALL] 03329f0ca8a194cb76bee9a0250313339953a957f263625ca33d493736eadcd123"}, "vout": 1, "txid": "23dd239b74b071b3e5941222fab0b0ed428d47aacc17701f3579511fae2c5546"}], "txid": "8a65a6fefefe64d814027d4eb5412d4db8f7ea233607a35ea3ef3ac95ed758bf", "blocktime": 1537873282, "version": 1, "confirmations": 11481, "time": 1537873282, "locktime": 0, "vsize": 374, "size": 374}