{"hash": "8a655c3d45779cdab7e178ea1dc9ca01503d66eecd3bd0eb649f78e3226cc4ed", "blockhash": "0000000000000000001f76057863aec43deb6fa401d9628bb513d65a8098bfab", "vout": [{"scriptPubKey": {"reqSigs": 1, "hex": "76a91440daa67f7d895d5b9c812433620b0b17e913a61788ac", "addresses": ["16uvBNagmB6BJCqe2ySFag6Sr5eYZMJFX5"], "asm": "OP_DUP OP_HASH160 40daa67f7d895d5b9c812433620b0b17e913a617 OP_EQUALVERIFY OP_CHECKSIG", "type": "pubkeyhash"}, "value": 0.00161472, "n": 0}, {"scriptPubKey": {"reqSigs": 1, "hex": "76a914648db1d7266e8ccb94b82b82c81ca7d707c13fed88ac", "addresses": ["1AAgKJZ6EY6dCR2iwKaFEYoN8a11uNn6Pv"], "asm": "OP_DUP OP_HASH160 648db1d7266e8ccb94b82b82c81ca7d707c13fed OP_EQUALVERIFY OP_CHECKSIG", "type": "pubkeyhash"}, "value": 5.46e-06, "n": 1}, {"scriptPubKey": {"type": "nulldata", "hex": "6a146f6d6e69000000000000001f0000001ba9082400", "asm": "OP_RETURN 6f6d6e69000000000000001f0000001ba9082400"}, "value": 0.0, "n": 2}], "hex": "01000000029f432ebe988096e79e8c116139422a6e5b750ad2b42e9df871a2702a73edb669020000006a47304402200df26e07a3239f75580a7d2482a3ee72b657531d4294e9415cec5b71ae1d7473022028d79981398bcb5ae169716138ffa4d1ab703ecd0888d4cacd6ed1a2795ee7e30121038a14607d389d426dab2a7e37582859fa771b78bb10c5c7a753da934d00633db4ffffffff87e14846e68b91059b59cd390d25f5d49ff8545fecc2861bacfe10e2da8abc17000000006b4830450221009403dcf04cff0f91e20962ba76aaab22bfef49db7f189fa4140510e6e2647544022002cd780f4a233868576bc4af94a3b56c63845a87b651ddf51c0fb63fdebd70280121038a14607d389d426dab2a7e37582859fa771b78bb10c5c7a753da934d00633db4ffffffff03c0760200000000001976a91440daa67f7d895d5b9c812433620b0b17e913a61788ac22020000000000001976a914648db1d7266e8ccb94b82b82c81ca7d707c13fed88ac0000000000000000166a146f6d6e69000000000000001f0000001ba908240000000000", "vin": [{"sequence": 4294967295, "scriptSig": {"hex": "47304402200df26e07a3239f75580a7d2482a3ee72b657531d4294e9415cec5b71ae1d7473022028d79981398bcb5ae169716138ffa4d1ab703ecd0888d4cacd6ed1a2795ee7e30121038a14607d389d426dab2a7e37582859fa771b78bb10c5c7a753da934d00633db4", "asm": "304402200df26e07a3239f75580a7d2482a3ee72b657531d4294e9415cec5b71ae1d7473022028d79981398bcb5ae169716138ffa4d1ab703ecd0888d4cacd6ed1a2795ee7e3[ALL] 038a14607d389d426dab2a7e37582859fa771b78bb10c5c7a753da934d00633db4"}, "vout": 2, "txid": "69b6ed732a70a271f89d2eb4d20a755b6e2a423961118c9ee7968098be2e439f"}, {"sequence": 4294967295, "scriptSig": {"hex": "4830450221009403dcf04cff0f91e20962ba76aaab22bfef49db7f189fa4140510e6e2647544022002cd780f4a233868576bc4af94a3b56c63845a87b651ddf51c0fb63fdebd70280121038a14607d389d426dab2a7e37582859fa771b78bb10c5c7a753da934d00633db4", "asm": "30450221009403dcf04cff0f91e20962ba76aaab22bfef49db7f189fa4140510e6e2647544022002cd780f4a233868576bc4af94a3b56c63845a87b651ddf51c0fb63fdebd7028[ALL] 038a14607d389d426dab2a7e37582859fa771b78bb10c5c7a753da934d00633db4"}, "vout": 0, "txid": "17bc8adae210feac1b86c2ec5f54f89fd4f5250d39cd599b05918be64648e187"}], "txid": "8a655c3d45779cdab7e178ea1dc9ca01503d66eecd3bd0eb649f78e3226cc4ed", "blocktime": 1537873891, "version": 1, "confirmations": 11475, "time": 1537873891, "locktime": 0, "vsize": 404, "size": 404}