{"hash": "8a6b349591c09f300c52a3bea3269de392f2cbdd7037f1ccc85106b9d366cf93", "blockhash": "0000000000000000001cda96e906b7601b7a6fb1a3b62bca570a9e5d8f4b3de1", "vout": [{"scriptPubKey": {"reqSigs": 1, "hex": "76a914edd905ce01ce97e857329145e42e318d0c4a507588ac", "addresses": ["1Ngd8TtYYE9FqkvENFQse94UDUaAPC8SVK"], "asm": "OP_DUP OP_HASH160 edd905ce01ce97e857329145e42e318d0c4a5075 OP_EQUALVERIFY OP_CHECKSIG", "type": "pubkeyhash"}, "value": 0.02302313, "n": 0}, {"scriptPubKey": {"reqSigs": 1, "hex": "76a91429a3f315f93b8afd509dc56698cfd78d4f8a777688ac", "addresses": ["14oB7HE8s5qCRgEMYN4ESttNzmj7hQkA2B"], "asm": "OP_DUP OP_HASH160 29a3f315f93b8afd509dc56698cfd78d4f8a7776 OP_EQUALVERIFY OP_CHECKSIG", "type": "pubkeyhash"}, "value": 0.00998773, "n": 1}], "hex": "0200000003ce42e36fe4bec4c2aa20a65230f8e72d9c30f996b6419a716e78c53f30491177000000006a47304402203d3474856d6a5ddf3b48326f1af83f93c84e3c901ad3206b70080bfefa55f44f02200b84f134bb6ceff928ad8f192d6cad209b1d2a6781d507b5c50a33163848e5f9012103ea1e2156fd269d03ffefa9a3e3aa84cb931fb85e13281601c3e15323eeca92e2feffffff6e33178c5b2c379e7a3626fc2ab98e4775562093592103fff9dd78d647d82c89000000006a4730440220561a65d7ca316df4dda6544b9ed69b2018e39cd601b2f5c9d0c74a3162bffd9802202f06918da4fc72c48260603ee50f24cc194abbf5c7e58d98650a4ff6a47f6a240121022fe602e6897194028fce4a5d2495336507587a26fdb8bbbbe5a4da91bf2de76ffeffffff9dee7174625394faf9e306325d90064b23ece8e710127a1666598e2c2fa19fd0010000006b483045022100e90a8f21eaf13b915a88569fa60e6475af75b89328cc6b5e6ca5b9f6ac743307022029ebf44cc5378bb239a86c706542d18911b633db95824fa94a513418c882d8ca0121032794a4455f1e56e899818d0b7e9cd2da2468945329decd4b0a3f588f34e171bcfeffffff0269212300000000001976a914edd905ce01ce97e857329145e42e318d0c4a507588ac753d0f00000000001976a91429a3f315f93b8afd509dc56698cfd78d4f8a777688ac13490800", "vin": [{"sequence": 4294967294, "scriptSig": {"hex": "47304402203d3474856d6a5ddf3b48326f1af83f93c84e3c901ad3206b70080bfefa55f44f02200b84f134bb6ceff928ad8f192d6cad209b1d2a6781d507b5c50a33163848e5f9012103ea1e2156fd269d03ffefa9a3e3aa84cb931fb85e13281601c3e15323eeca92e2", "asm": "304402203d3474856d6a5ddf3b48326f1af83f93c84e3c901ad3206b70080bfefa55f44f02200b84f134bb6ceff928ad8f192d6cad209b1d2a6781d507b5c50a33163848e5f9[ALL] 03ea1e2156fd269d03ffefa9a3e3aa84cb931fb85e13281601c3e15323eeca92e2"}, "vout": 0, "txid": "771149303fc5786e719a41b696f9309c2de7f83052a620aac2c4bee46fe342ce"}, {"sequence": 4294967294, "scriptSig": {"hex": "4730440220561a65d7ca316df4dda6544b9ed69b2018e39cd601b2f5c9d0c74a3162bffd9802202f06918da4fc72c48260603ee50f24cc194abbf5c7e58d98650a4ff6a47f6a240121022fe602e6897194028fce4a5d2495336507587a26fdb8bbbbe5a4da91bf2de76f", "asm": "30440220561a65d7ca316df4dda6544b9ed69b2018e39cd601b2f5c9d0c74a3162bffd9802202f06918da4fc72c48260603ee50f24cc194abbf5c7e58d98650a4ff6a47f6a24[ALL] 022fe602e6897194028fce4a5d2495336507587a26fdb8bbbbe5a4da91bf2de76f"}, "vout": 0, "txid": "892cd847d678ddf9ff03215993205675478eb92afc26367a9e372c5b8c17336e"}, {"sequence": 4294967294, "scriptSig": {"hex": "483045022100e90a8f21eaf13b915a88569fa60e6475af75b89328cc6b5e6ca5b9f6ac743307022029ebf44cc5378bb239a86c706542d18911b633db95824fa94a513418c882d8ca0121032794a4455f1e56e899818d0b7e9cd2da2468945329decd4b0a3f588f34e171bc", "asm": "3045022100e90a8f21eaf13b915a88569fa60e6475af75b89328cc6b5e6ca5b9f6ac743307022029ebf44cc5378bb239a86c706542d18911b633db95824fa94a513418c882d8ca[ALL] 032794a4455f1e56e899818d0b7e9cd2da2468945329decd4b0a3f588f34e171bc"}, "vout": 1, "txid": "d09fa12f2c8e5966167a1210e7e8ec234b06905d3206e3f9fa9453627471ee9d"}], "txid": "8a6b349591c09f300c52a3bea3269de392f2cbdd7037f1ccc85106b9d366cf93", "blocktime": 1537873282, "version": 2, "confirmations": 11484, "time": 1537873282, "locktime": 542995, "vsize": 520, "size": 520}