{"hash": "8a6d9335614b17666cc51f76bf762bb04dbc0caf47016038da3b68b9ecf85442", "blockhash": "0000000000000000001f0ddff1eddb255c1121bcd4da4f1bc9a0da00cae72433", "vout": [{"scriptPubKey": {"reqSigs": 1, "hex": "76a914ebc44610d37aa15ab14a564e53bf8a3abab83e0188ac", "addresses": ["1NVcvR6kh6H6ipFWRpogfGBEZji6U1jTjJ"], "asm": "OP_DUP OP_HASH160 ebc44610d37aa15ab14a564e53bf8a3abab83e01 OP_EQUALVERIFY OP_CHECKSIG", "type": "pubkeyhash"}, "value": 0.00056564, "n": 0}, {"scriptPubKey": {"reqSigs": 1, "hex": "76a9141766428de936f8c56bd7f9401d1c7b38ae7cb55888ac", "addresses": ["138j3ZUb6dH5G4smawtLAUNHp71SnXhG1C"], "asm": "OP_DUP OP_HASH160 1766428de936f8c56bd7f9401d1c7b38ae7cb558 OP_EQUALVERIFY OP_CHECKSIG", "type": "pubkeyhash"}, "value": 0.7809, "n": 1}], "hex": "010000000d4d73229dbce54b821d1bad1a453fe5b7e4c37de5d429dcd6b5f1d721c827733a110000006a473044022035ea8db712e2b9363a1fa6f388a05ff0ff6c1b347d91fa89bf17d3f50a15a20902203074b0de4c1253ae70473239a6b6164540a4bddf5a519a424c8b87bf3e1f0270012103865e76c8121e940abb6f5277fc9c8c4d9961f3abd5223d02c4af58ac26fc2df2ffffffff4937b550ff7e62fb8cab42be9b6f5a830232be08e48a96960c686fb9f730b94e040000006a47304402202f09a829bb506dffea3cfeceb8d1fc224882d7d70369d581e60f91117f91381902205c51d123283ea06b8cd2c0c94a8a6ccbbb26fed70efed43c5bc4051052f119ef012103865e76c8121e940abb6f5277fc9c8c4d9961f3abd5223d02c4af58ac26fc2df2ffffffff818188177eab522b9ced413b94a8b349b101fcb84bd286db73e758bce1e4875c010000006b483045022100d0f843625d105cce35f2aa9a91d0d5d37b1b1fcc27b7c1f9278653aefd3f364a0220467ff07f46df236821919f5586a7a3a7b5d2694eb2407454737a97623cab69f6012102843ee0eed12ca59bbaf292501aebf95ecfbdb1f3f10b8bd83408442454b7f073ffffffffeb353a76258fe1bf431f2da822de09e1d9ca66e7da7585f5b2f45fd8d1ae0965000000006b483045022100f470e3af4ea79fb35c598a2479eee05623053c9780289c671701bc59bbdb125602203f1edc416313cd1489cd6a16e23a0fa5586a8b793e009252a6977eb0680b12e9012103865e76c8121e940abb6f5277fc9c8c4d9961f3abd5223d02c4af58ac26fc2df2ffffffffbc7bfce78189137b74374b0249e095fff93f654abc7dab70305f15ca075afa68000000006b483045022100f088ce9f69429ad09e6595d26d7b5a63b7d6d734dd5b83d14dfe9a3a1f2c229d02203c3b26ac0d521ebf2bb8f1a58174c57afff51789438ad61ceab8331743427c9a012103eb4a0d4595642ced7ace973f1569fb0fb10ac8b252d126b09e5a84f9893cc99affffffff3f53f84dd4803bdfa2b2def3c1634fb4963fd52fbf7e045c81c5b7fe10ac3f78010000006b483045022100cd60e8f4e378bc823bd80256b018ec51e5d5e31e2de105e03becaaf869b6e6730220579d4f1a6b40b51e108e7e46ed79e8c5f43596cbf63ea327c4a67f332459501801210219e060fd8501ab0e71020e563bc940720202249471eb94a74a5c387c6a07a1e9ffffffff1d5ba065223e4b72e415fc25ccdfbb08df8da179cf0d64783d69231ef88bb778000000006b4830450221009899b71f48fb5b8cdeb45c78ae8af506c60390e96d706daadcc9aa8684f10c5b0220766c112c3c31d5ac98b3c99c291d8e45100b9c5cd979defe1db2d0475a1f91db012102c0bca4a5013b432e6b73fb84cd11e4a580a3e5296c1b4ff51cc6bdef4c296855ffffffffa9cef98e1a8a3b4163cebb924561682528cda8e6e6049bfa74d22f0b7e788c8d050000006b483045022100e08bb40857d9f6f8196b33b4ebe4cd8b2d482bef98e27adc15659775a86945c302201ffdb1283037c16f2f51984de2bbdbf3053525e6fb59ac2747134f962ae80fce012103865e76c8121e940abb6f5277fc9c8c4d9961f3abd5223d02c4af58ac26fc2df2ffffffff9474b4a358ac461e4afdd68258abae108844b615b53b73d47f38223ac8ed2991010000006a473044022037f67fc5d764e5cef765c0addb78f0b939872527ea5726d39706f92505795fb602204b5f18258a7ab1f281511e884e78e068a40b8dd0526c8dc13e933ed19dfb12e2012103f0445a6b2b5959605343ddec8a03a38381059b1ce6c55c7cda7d2ed058a68f93ffffffffbc7875773c89f99a5e704e93d3fadb050f3826072e7b15050e0c6ef8fc77f8ac010000006a4730440220629e2b1f23a39634f52d7e0567add418a7ff115d032ba190669150abec039ad60220500927bbbf3decdc4aeccc8ef0ae667a09412dada596d08a06e474f0188af51c012103c64086bc928c40e878d39ab3cf9d010fb8af2caa49822416a9f5e6729e552834ffffffff93ae8a36db726c34f216173c6f26e46500a9b6a549903e53f1967d453ef2e9ba040000006a47304402205056d1dfe1129d6db29a85e58237f5d02b8d8eae68f55c2f2eece9cdbd48a0fb0220268d578f2f8706a14e645ae18c5f1aa110bfdc5594472652743fe0fec04b1ce3012103865e76c8121e940abb6f5277fc9c8c4d9961f3abd5223d02c4af58ac26fc2df2ffffffff30d431cb09474ea24d29d59b44fada6a47c6e7901f3bb37194be9cbe6fbd20c9010000006a47304402203c48928be2237d6b5ca29f0d12a4509e23d2f48068f458a415c831a459cc61bb02204b223f1e18cd374c0668fc76777fe7dfdfd2af73e78440b162aee8dbc866798f012103a6b09fd9615a86bfdd28bb01ef914a309da5020b403278a8fa96d0aa79eee18bffffffff96aac264005ff6cb2bf697151556cd82f732d70e1c326a58e4b4f1f6c879c8e8120000006a47304402202507a98d32c6d73e80163588f84f0e343d03d0261ca2ef1a40bd8fdbe36dff0c02202b471d51eb3752eb392c64071b4f199eb36d4403199a632ea6063fe95ae0884f012103865e76c8121e940abb6f5277fc9c8c4d9961f3abd5223d02c4af58ac26fc2df2ffffffff02f4dc0000000000001976a914ebc44610d37aa15ab14a564e53bf8a3abab83e0188ac108fa704000000001976a9141766428de936f8c56bd7f9401d1c7b38ae7cb55888ac00000000", "vin": [{"sequence": 4294967295, "scriptSig": {"hex": "473044022035ea8db712e2b9363a1fa6f388a05ff0ff6c1b347d91fa89bf17d3f50a15a20902203074b0de4c1253ae70473239a6b6164540a4bddf5a519a424c8b87bf3e1f0270012103865e76c8121e940abb6f5277fc9c8c4d9961f3abd5223d02c4af58ac26fc2df2", "asm": "3044022035ea8db712e2b9363a1fa6f388a05ff0ff6c1b347d91fa89bf17d3f50a15a20902203074b0de4c1253ae70473239a6b6164540a4bddf5a519a424c8b87bf3e1f0270[ALL] 03865e76c8121e940abb6f5277fc9c8c4d9961f3abd5223d02c4af58ac26fc2df2"}, "vout": 17, "txid": "3a7327c821d7f1b5d6dc29d4e57dc3e4b7e53f451aad1b1d824be5bc9d22734d"}, {"sequence": 4294967295, "scriptSig": {"hex": "47304402202f09a829bb506dffea3cfeceb8d1fc224882d7d70369d581e60f91117f91381902205c51d123283ea06b8cd2c0c94a8a6ccbbb26fed70efed43c5bc4051052f119ef012103865e76c8121e940abb6f5277fc9c8c4d9961f3abd5223d02c4af58ac26fc2df2", "asm": "304402202f09a829bb506dffea3cfeceb8d1fc224882d7d70369d581e60f91117f91381902205c51d123283ea06b8cd2c0c94a8a6ccbbb26fed70efed43c5bc4051052f119ef[ALL] 03865e76c8121e940abb6f5277fc9c8c4d9961f3abd5223d02c4af58ac26fc2df2"}, "vout": 4, "txid": "4eb930f7b96f680c96968ae408be3202835a6f9bbe42ab8cfb627eff50b53749"}, {"sequence": 4294967295, "scriptSig": {"hex": "483045022100d0f843625d105cce35f2aa9a91d0d5d37b1b1fcc27b7c1f9278653aefd3f364a0220467ff07f46df236821919f5586a7a3a7b5d2694eb2407454737a97623cab69f6012102843ee0eed12ca59bbaf292501aebf95ecfbdb1f3f10b8bd83408442454b7f073", "asm": "3045022100d0f843625d105cce35f2aa9a91d0d5d37b1b1fcc27b7c1f9278653aefd3f364a0220467ff07f46df236821919f5586a7a3a7b5d2694eb2407454737a97623cab69f6[ALL] 02843ee0eed12ca59bbaf292501aebf95ecfbdb1f3f10b8bd83408442454b7f073"}, "vout": 1, "txid": "5c87e4e1bc58e773db86d24bb8fc01b149b3a8943b41ed9c2b52ab7e17888181"}, {"sequence": 4294967295, "scriptSig": {"hex": "483045022100f470e3af4ea79fb35c598a2479eee05623053c9780289c671701bc59bbdb125602203f1edc416313cd1489cd6a16e23a0fa5586a8b793e009252a6977eb0680b12e9012103865e76c8121e940abb6f5277fc9c8c4d9961f3abd5223d02c4af58ac26fc2df2", "asm": "3045022100f470e3af4ea79fb35c598a2479eee05623053c9780289c671701bc59bbdb125602203f1edc416313cd1489cd6a16e23a0fa5586a8b793e009252a6977eb0680b12e9[ALL] 03865e76c8121e940abb6f5277fc9c8c4d9961f3abd5223d02c4af58ac26fc2df2"}, "vout": 0, "txid": "6509aed1d85ff4b2f58575dae766cad9e109de22a82d1f43bfe18f25763a35eb"}, {"sequence": 4294967295, "scriptSig": {"hex": "483045022100f088ce9f69429ad09e6595d26d7b5a63b7d6d734dd5b83d14dfe9a3a1f2c229d02203c3b26ac0d521ebf2bb8f1a58174c57afff51789438ad61ceab8331743427c9a012103eb4a0d4595642ced7ace973f1569fb0fb10ac8b252d126b09e5a84f9893cc99a", "asm": "3045022100f088ce9f69429ad09e6595d26d7b5a63b7d6d734dd5b83d14dfe9a3a1f2c229d02203c3b26ac0d521ebf2bb8f1a58174c57afff51789438ad61ceab8331743427c9a[ALL] 03eb4a0d4595642ced7ace973f1569fb0fb10ac8b252d126b09e5a84f9893cc99a"}, "vout": 0, "txid": "68fa5a07ca155f3070ab7dbc4a653ff9ff95e049024b37747b138981e7fc7bbc"}, {"sequence": 4294967295, "scriptSig": {"hex": "483045022100cd60e8f4e378bc823bd80256b018ec51e5d5e31e2de105e03becaaf869b6e6730220579d4f1a6b40b51e108e7e46ed79e8c5f43596cbf63ea327c4a67f332459501801210219e060fd8501ab0e71020e563bc940720202249471eb94a74a5c387c6a07a1e9", "asm": "3045022100cd60e8f4e378bc823bd80256b018ec51e5d5e31e2de105e03becaaf869b6e6730220579d4f1a6b40b51e108e7e46ed79e8c5f43596cbf63ea327c4a67f3324595018[ALL] 0219e060fd8501ab0e71020e563bc940720202249471eb94a74a5c387c6a07a1e9"}, "vout": 1, "txid": "783fac10feb7c5815c047ebf2fd53f96b44f63c1f3deb2a2df3b80d44df8533f"}, {"sequence": 4294967295, "scriptSig": {"hex": "4830450221009899b71f48fb5b8cdeb45c78ae8af506c60390e96d706daadcc9aa8684f10c5b0220766c112c3c31d5ac98b3c99c291d8e45100b9c5cd979defe1db2d0475a1f91db012102c0bca4a5013b432e6b73fb84cd11e4a580a3e5296c1b4ff51cc6bdef4c296855", "asm": "30450221009899b71f48fb5b8cdeb45c78ae8af506c60390e96d706daadcc9aa8684f10c5b0220766c112c3c31d5ac98b3c99c291d8e45100b9c5cd979defe1db2d0475a1f91db[ALL] 02c0bca4a5013b432e6b73fb84cd11e4a580a3e5296c1b4ff51cc6bdef4c296855"}, "vout": 0, "txid": "78b78bf81e23693d78640dcf79a18ddf08bbdfcc25fc15e4724b3e2265a05b1d"}, {"sequence": 4294967295, "scriptSig": {"hex": "483045022100e08bb40857d9f6f8196b33b4ebe4cd8b2d482bef98e27adc15659775a86945c302201ffdb1283037c16f2f51984de2bbdbf3053525e6fb59ac2747134f962ae80fce012103865e76c8121e940abb6f5277fc9c8c4d9961f3abd5223d02c4af58ac26fc2df2", "asm": "3045022100e08bb40857d9f6f8196b33b4ebe4cd8b2d482bef98e27adc15659775a86945c302201ffdb1283037c16f2f51984de2bbdbf3053525e6fb59ac2747134f962ae80fce[ALL] 03865e76c8121e940abb6f5277fc9c8c4d9961f3abd5223d02c4af58ac26fc2df2"}, "vout": 5, "txid": "8d8c787e0b2fd274fa9b04e6e6a8cd282568614592bbce63413b8a1a8ef9cea9"}, {"sequence": 4294967295, "scriptSig": {"hex": "473044022037f67fc5d764e5cef765c0addb78f0b939872527ea5726d39706f92505795fb602204b5f18258a7ab1f281511e884e78e068a40b8dd0526c8dc13e933ed19dfb12e2012103f0445a6b2b5959605343ddec8a03a38381059b1ce6c55c7cda7d2ed058a68f93", "asm": "3044022037f67fc5d764e5cef765c0addb78f0b939872527ea5726d39706f92505795fb602204b5f18258a7ab1f281511e884e78e068a40b8dd0526c8dc13e933ed19dfb12e2[ALL] 03f0445a6b2b5959605343ddec8a03a38381059b1ce6c55c7cda7d2ed058a68f93"}, "vout": 1, "txid": "9129edc83a22387fd4733bb515b6448810aeab5882d6fd4a1e46ac58a3b47494"}, {"sequence": 4294967295, "scriptSig": {"hex": "4730440220629e2b1f23a39634f52d7e0567add418a7ff115d032ba190669150abec039ad60220500927bbbf3decdc4aeccc8ef0ae667a09412dada596d08a06e474f0188af51c012103c64086bc928c40e878d39ab3cf9d010fb8af2caa49822416a9f5e6729e552834", "asm": "30440220629e2b1f23a39634f52d7e0567add418a7ff115d032ba190669150abec039ad60220500927bbbf3decdc4aeccc8ef0ae667a09412dada596d08a06e474f0188af51c[ALL] 03c64086bc928c40e878d39ab3cf9d010fb8af2caa49822416a9f5e6729e552834"}, "vout": 1, "txid": "acf877fcf86e0c0e05157b2e0726380f05dbfad3934e705e9af9893c777578bc"}, {"sequence": 4294967295, "scriptSig": {"hex": "47304402205056d1dfe1129d6db29a85e58237f5d02b8d8eae68f55c2f2eece9cdbd48a0fb0220268d578f2f8706a14e645ae18c5f1aa110bfdc5594472652743fe0fec04b1ce3012103865e76c8121e940abb6f5277fc9c8c4d9961f3abd5223d02c4af58ac26fc2df2", "asm": "304402205056d1dfe1129d6db29a85e58237f5d02b8d8eae68f55c2f2eece9cdbd48a0fb0220268d578f2f8706a14e645ae18c5f1aa110bfdc5594472652743fe0fec04b1ce3[ALL] 03865e76c8121e940abb6f5277fc9c8c4d9961f3abd5223d02c4af58ac26fc2df2"}, "vout": 4, "txid": "bae9f23e457d96f1533e9049a5b6a90065e4266f3c1716f2346c72db368aae93"}, {"sequence": 4294967295, "scriptSig": {"hex": "47304402203c48928be2237d6b5ca29f0d12a4509e23d2f48068f458a415c831a459cc61bb02204b223f1e18cd374c0668fc76777fe7dfdfd2af73e78440b162aee8dbc866798f012103a6b09fd9615a86bfdd28bb01ef914a309da5020b403278a8fa96d0aa79eee18b", "asm": "304402203c48928be2237d6b5ca29f0d12a4509e23d2f48068f458a415c831a459cc61bb02204b223f1e18cd374c0668fc76777fe7dfdfd2af73e78440b162aee8dbc866798f[ALL] 03a6b09fd9615a86bfdd28bb01ef914a309da5020b403278a8fa96d0aa79eee18b"}, "vout": 1, "txid": "c920bd6fbe9cbe9471b33b1f90e7c6476adafa449bd5294da24e4709cb31d430"}, {"sequence": 4294967295, "scriptSig": {"hex": "47304402202507a98d32c6d73e80163588f84f0e343d03d0261ca2ef1a40bd8fdbe36dff0c02202b471d51eb3752eb392c64071b4f199eb36d4403199a632ea6063fe95ae0884f012103865e76c8121e940abb6f5277fc9c8c4d9961f3abd5223d02c4af58ac26fc2df2", "asm": "304402202507a98d32c6d73e80163588f84f0e343d03d0261ca2ef1a40bd8fdbe36dff0c02202b471d51eb3752eb392c64071b4f199eb36d4403199a632ea6063fe95ae0884f[ALL] 03865e76c8121e940abb6f5277fc9c8c4d9961f3abd5223d02c4af58ac26fc2df2"}, "vout": 18, "txid": "e8c879c8f6f1b4e4586a321c0ed732f782cd56151597f62bcbf65f0064c2aa96"}], "txid": "8a6d9335614b17666cc51f76bf762bb04dbc0caf47016038da3b68b9ecf85442", "blocktime": 1537872018, "version": 1, "confirmations": 11489, "time": 1537872018, "locktime": 0, "vsize": 1995, "size": 1995}