{"hash": "8a74b645b96cd247dd68b5d9230e134e8d77ab525436c262232ed154bdcc6cea", "blockhash": "0000000000000000000baef3f32e3676a92c3b2e5da21b426e4f302fc371ce76", "vout": [{"scriptPubKey": {"reqSigs": 1, "hex": "76a914f3d878251f7c1f86ec71356f0a37390d6f5dd91888ac", "addresses": ["1PELXAfNJ65rEUd6MuB2sGif3T1skc1Snd"], "asm": "OP_DUP OP_HASH160 f3d878251f7c1f86ec71356f0a37390d6f5dd918 OP_EQUALVERIFY OP_CHECKSIG", "type": "pubkeyhash"}, "value": 0.0001257, "n": 0}, {"scriptPubKey": {"reqSigs": 1, "hex": "76a91436e6b4bff34d5988d9d64d326e2a9be15f85929a88ac", "addresses": ["161Hs6bbM29sgaxQfAdDBG5gua73bgF1Cf"], "asm": "OP_DUP OP_HASH160 36e6b4bff34d5988d9d64d326e2a9be15f85929a OP_EQUALVERIFY OP_CHECKSIG", "type": "pubkeyhash"}, "value": 0.056906, "n": 1}], "hex": "01000000018f118342bcfe4782775c68853a440ccd217e7d528fa0186acfb86544d242d7d8000000006b4830450221009d198ec84d6cc2b25868aa9164d2b2bd29a3050709c684fb7222af65cd67a86b022017ccde956bff6497221c05a47a190a782c95f32dbc5600e3976d910d0875390c012103c71ceeeb32d734d02c6769df90df774bd74d5c31cd9a11785d5ebf0d72c449cdfdffffff021a310000000000001976a914f3d878251f7c1f86ec71356f0a37390d6f5dd91888ace8d45600000000001976a91436e6b4bff34d5988d9d64d326e2a9be15f85929a88ac17490800", "vin": [{"sequence": 4294967293, "scriptSig": {"hex": "4830450221009d198ec84d6cc2b25868aa9164d2b2bd29a3050709c684fb7222af65cd67a86b022017ccde956bff6497221c05a47a190a782c95f32dbc5600e3976d910d0875390c012103c71ceeeb32d734d02c6769df90df774bd74d5c31cd9a11785d5ebf0d72c449cd", "asm": "30450221009d198ec84d6cc2b25868aa9164d2b2bd29a3050709c684fb7222af65cd67a86b022017ccde956bff6497221c05a47a190a782c95f32dbc5600e3976d910d0875390c[ALL] 03c71ceeeb32d734d02c6769df90df774bd74d5c31cd9a11785d5ebf0d72c449cd"}, "vout": 0, "txid": "d8d742d24465b8cf6a18a08f527d7e21cd0c443a85685c778247febc4283118f"}], "txid": "8a74b645b96cd247dd68b5d9230e134e8d77ab525436c262232ed154bdcc6cea", "blocktime": 1537876114, "version": 1, "confirmations": 11460, "time": 1537876114, "locktime": 542999, "vsize": 226, "size": 226}