{"hash": "3802434291a3991dfe647720cbb659c4633eefefdd070dca009868f793aaada2", "blockhash": "000000000000000000022b45ed06c6f4ccd3cf7fb5ba4856ebd2e58215665228", "vout": [{"scriptPubKey": {"reqSigs": 1, "hex": "a914a9252f45d5b3a610418605b3a70c8903d7b7f34287", "addresses": ["3H7Nfbfg7h9CJbpmnn3jxvGSFv8dxEoskk"], "asm": "OP_HASH160 a9252f45d5b3a610418605b3a70c8903d7b7f342 OP_EQUAL", "type": "scripthash"}, "value": 0.0005, "n": 0}, {"scriptPubKey": {"reqSigs": 1, "hex": "a91424c57d6491c1e5746c9f4814ad7a71794a56daf287", "addresses": ["353SqHLxbsWjomBsb3GzAMTehrpAq8WG19"], "asm": "OP_HASH160 24c57d6491c1e5746c9f4814ad7a71794a56daf2 OP_EQUAL", "type": "scripthash"}, "value": 0.01012083, "n": 1}], "hex": "0200000000010131d660bf0d0ee5f66712f0934758a9527ff06aafd84939cd79c485cb0eb9a78b000000001716001498709a3118c4e2167c1d7c95441ddbb2bbe5725afeffffff0250c300000000000017a914a9252f45d5b3a610418605b3a70c8903d7b7f3428773710f000000000017a91424c57d6491c1e5746c9f4814ad7a71794a56daf28702483045022100b46958f6adaba3255550b0ee28d8ebcc53fa8d77f470b37947cfb05bca9b3b7b02207f9668d37ae0d3b462ea1d71ba9f71a303f073c3eba9db0388261e65ab0308400121030f6202b03fc7adaa91124154a9ef27ca198eca3300cbd05663c5b3d542ef49470b490800", "vin": [{"txinwitness": ["3045022100b46958f6adaba3255550b0ee28d8ebcc53fa8d77f470b37947cfb05bca9b3b7b02207f9668d37ae0d3b462ea1d71ba9f71a303f073c3eba9db0388261e65ab03084001", "030f6202b03fc7adaa91124154a9ef27ca198eca3300cbd05663c5b3d542ef4947"], "sequence": 4294967294, "scriptSig": {"hex": "16001498709a3118c4e2167c1d7c95441ddbb2bbe5725a", "asm": "001498709a3118c4e2167c1d7c95441ddbb2bbe5725a"}, "vout": 0, "txid": "8ba7b90ecb85c479cd3949d8af6af07f52a9584793f01267f6e50e0dbf60d631"}], "txid": "8a7bef30db5ac8576a4068a88698b4c616965e52631d897e78b37869aba653cf", "blocktime": 1537869901, "version": 2, "confirmations": 11522, "time": 1537869901, "locktime": 542987, "vsize": 166, "size": 248}