{"hash": "8a822bc721b204b68132c939290be1614423f5ed49a9d8f8b87c672ae4de74f7", "blockhash": "00000000000000000024a2167bbff67b0be802c0b01cdd79e6331c2be6459f87", "vout": [{"scriptPubKey": {"reqSigs": 1, "hex": "a914f490da67689d7d6db64f237789f2f4b2aa9ced8b87", "addresses": ["3PzAKvVGqULjBr41WcqMWkDmrs6QWt79Za"], "asm": "OP_HASH160 f490da67689d7d6db64f237789f2f4b2aa9ced8b OP_EQUAL", "type": "scripthash"}, "value": 0.34928914, "n": 0}], "hex": "0100000001c9e749c10a5af7e8882539ef55296706ce5adc2e1c4d9e62b7cd73e5a3640e5c010000006b48304502210099ab19aeb59cb1c0f161cab09f6845dd3845a520d16e7e55b6b17b31dbb335a9022060c7c30b87b9b8cbec22a4ae523e24b9b2c260dbb27ce519b94999a6164a20a60121026185d7e51afb08117be29f80fd469f35ce57a1d4a0c29ce00532bc893cd3ef91ffffffff0112f914020000000017a914f490da67689d7d6db64f237789f2f4b2aa9ced8b8700000000", "vin": [{"sequence": 4294967295, "scriptSig": {"hex": "48304502210099ab19aeb59cb1c0f161cab09f6845dd3845a520d16e7e55b6b17b31dbb335a9022060c7c30b87b9b8cbec22a4ae523e24b9b2c260dbb27ce519b94999a6164a20a60121026185d7e51afb08117be29f80fd469f35ce57a1d4a0c29ce00532bc893cd3ef91", "asm": "304502210099ab19aeb59cb1c0f161cab09f6845dd3845a520d16e7e55b6b17b31dbb335a9022060c7c30b87b9b8cbec22a4ae523e24b9b2c260dbb27ce519b94999a6164a20a6[ALL] 026185d7e51afb08117be29f80fd469f35ce57a1d4a0c29ce00532bc893cd3ef91"}, "vout": 1, "txid": "5c0e64a3e573cdb7629e4d1c2edc5ace06672955ef392588e8f75a0ac149e7c9"}], "txid": "8a822bc721b204b68132c939290be1614423f5ed49a9d8f8b87c672ae4de74f7", "blocktime": 1537870564, "version": 1, "confirmations": 11515, "time": 1537870564, "locktime": 0, "vsize": 190, "size": 190}