{"hash": "3351bf61ffb279c86971856ac7ab644beaf1671fdc175db703caa68ef4823da2", "blockhash": "0000000000000000001cda96e906b7601b7a6fb1a3b62bca570a9e5d8f4b3de1", "vout": [{"scriptPubKey": {"reqSigs": 1, "hex": "a914de1df3f840008f75d828f5d3189791bf8500ced187", "addresses": ["3MwTpJSW7Xv8hNL8rVnsxtjR6X91dfrdEb"], "asm": "OP_HASH160 de1df3f840008f75d828f5d3189791bf8500ced1 OP_EQUAL", "type": "scripthash"}, "value": 5.57452099, "n": 0}, {"scriptPubKey": {"reqSigs": 1, "hex": "76a914f1d1e12718f1c603ea5efd8523833cbcc47c756888ac", "addresses": ["1P3dGv3r7WBPR1JTXPXK3h8xiLAs4vJa3z"], "asm": "OP_DUP OP_HASH160 f1d1e12718f1c603ea5efd8523833cbcc47c7568 OP_EQUALVERIFY OP_CHECKSIG", "type": "pubkeyhash"}, "value": 0.01, "n": 1}], "hex": "02000000000101b19da078d7097d91c157ecfccb44860dd76e1377c38b1035248460969ac5448c0000000017160014234bb318357dd734e2bf703f4ec43687832caa80feffffff02430b3a210000000017a914de1df3f840008f75d828f5d3189791bf8500ced18740420f00000000001976a914f1d1e12718f1c603ea5efd8523833cbcc47c756888ac02473044022006c36ee6650ac10e0bf82282d0b58391e4f2658db31bf57a314f74b74d3e3ecd0220782ebead72a9f4736deac1d45151ab2178d4007f40646e69b5282207396e30f7012103a6996762ef73891f8d31c492a7a5abdf1b09178e01285d4020427b06fdddd58513490800", "vin": [{"txinwitness": ["3044022006c36ee6650ac10e0bf82282d0b58391e4f2658db31bf57a314f74b74d3e3ecd0220782ebead72a9f4736deac1d45151ab2178d4007f40646e69b5282207396e30f701", "03a6996762ef73891f8d31c492a7a5abdf1b09178e01285d4020427b06fdddd585"], "sequence": 4294967294, "scriptSig": {"hex": "160014234bb318357dd734e2bf703f4ec43687832caa80", "asm": "0014234bb318357dd734e2bf703f4ec43687832caa80"}, "vout": 0, "txid": "8c44c59a9660842435108bc377136ed70d8644cbfcec57c1917d09d778a09db1"}], "txid": "8a85448ce0610600713077ae469f1d2472d3941361e70736ef5b63e1f3faa605", "blocktime": 1537873282, "version": 2, "confirmations": 11485, "time": 1537873282, "locktime": 542995, "vsize": 168, "size": 249}