{"hash": "0e41b094cbd81b354459014ae7bddf09f090385d357239e9b5ad7689c8041a8a", "blockhash": "00000000000000000024a2167bbff67b0be802c0b01cdd79e6331c2be6459f87", "vout": [{"scriptPubKey": {"reqSigs": 1, "hex": "76a9148a9c6381c79e4c45b09827c1a580faadd3e8336a88ac", "addresses": ["1DdubYtsSKdmvyaya9mtkRMVtCoBCiU2gZ"], "asm": "OP_DUP OP_HASH160 8a9c6381c79e4c45b09827c1a580faadd3e8336a OP_EQUALVERIFY OP_CHECKSIG", "type": "pubkeyhash"}, "value": 0.00748604, "n": 0}, {"scriptPubKey": {"reqSigs": 1, "hex": "a914a772e23730a50f75a010be8071e59d338cf1130a87", "addresses": ["3GxQPqRY12NzrVjYLk49NGAtF3MXqH1BSP"], "asm": "OP_HASH160 a772e23730a50f75a010be8071e59d338cf1130a OP_EQUAL", "type": "scripthash"}, "value": 0.09817972, "n": 1}], "hex": "01000000000101e7735a11d55026c93d1d70f4381c3e9090e17bdb2e7a25b45cb505d8c6c6c6fc0100000023220020a979d66f945b26cd33b529b808e399cd4f1d2215471884b53a0598f1e79623ebffffffff023c6c0b00000000001976a9148a9c6381c79e4c45b09827c1a580faadd3e8336a88ac74cf95000000000017a914a772e23730a50f75a010be8071e59d338cf1130a870400483045022100f397cd1f4a1f76929c416bd68ed20306f6969535dd1f847684d8ecfd82afe590022016853386d4991169003c59f13bbd053b043f790007cde92b0a82257b5bc0fd4c0147304402206c9d788875a020a19b795b14b2787927cba5ddc67fa0f26dd7623c7a680e660f022020c9782f8cf19871dfd0b6d8d646daa61ec0e98136599b0c7f80b14ef07a21f50147522103b45553bea2c01b57a1f68d0f8905cdd7b3e4cb1d9f5b8cbabaef4738804191e3210336f016b4e92ff8920f38bd5ba0e900da84d78ffcf59fe889515e852b01938abf52ae00000000", "vin": [{"txinwitness": ["", "3045022100f397cd1f4a1f76929c416bd68ed20306f6969535dd1f847684d8ecfd82afe590022016853386d4991169003c59f13bbd053b043f790007cde92b0a82257b5bc0fd4c01", "304402206c9d788875a020a19b795b14b2787927cba5ddc67fa0f26dd7623c7a680e660f022020c9782f8cf19871dfd0b6d8d646daa61ec0e98136599b0c7f80b14ef07a21f501", "522103b45553bea2c01b57a1f68d0f8905cdd7b3e4cb1d9f5b8cbabaef4738804191e3210336f016b4e92ff8920f38bd5ba0e900da84d78ffcf59fe889515e852b01938abf52ae"], "sequence": 4294967295, "scriptSig": {"hex": "220020a979d66f945b26cd33b529b808e399cd4f1d2215471884b53a0598f1e79623eb", "asm": "0020a979d66f945b26cd33b529b808e399cd4f1d2215471884b53a0598f1e79623eb"}, "vout": 1, "txid": "fcc6c6c6d805b55cb4257a2edb7be190903e1c38f4701d3dc92650d5115a73e7"}], "txid": "8a87d689ed9d68c7522b59f9c1ea1ff3a46aae809585553086d35a52f12cb34b", "blocktime": 1537870564, "version": 1, "confirmations": 11515, "time": 1537870564, "locktime": 0, "vsize": 208, "size": 373}