{"hash": "8a9987d6333177dd4cf01f26e6f3c2d9dcd9f6f68d00eeb744a4f50c2eb28e3f", "blockhash": "0000000000000000000dcc0f55137456b1a82d3642486a52398922ac4d620174", "vout": [{"scriptPubKey": {"type": "nulldata", "hex": "6a4c50000077760001289af6db5aa7155404994516bcbefa6b8351586b4e86aeaeacb577c031fc4be3474d14b6f32469216d99516ca4025baa09660614909024164bf4bc9a9526289ac0f6612cd74e33776ee4", "asm": "OP_RETURN 000077760001289af6db5aa7155404994516bcbefa6b8351586b4e86aeaeacb577c031fc4be3474d14b6f32469216d99516ca4025baa09660614909024164bf4bc9a9526289ac0f6612cd74e33776ee4"}, "value": 0.0, "n": 0}, {"scriptPubKey": {"reqSigs": 1, "hex": "76a914d9bca1fca22191435d9280f4b5e60a2ba5cea83388ac", "addresses": ["1LrHc4YvsxbD8W9pctPKyUkAinF3gcuMFG"], "asm": "OP_DUP OP_HASH160 d9bca1fca22191435d9280f4b5e60a2ba5cea833 OP_EQUALVERIFY OP_CHECKSIG", "type": "pubkeyhash"}, "value": 0.00130704, "n": 1}], "hex": "01000000013f490acc05d7b3d455261c802437efaada1f54ad367e00841bfc6e23e2491510010000006b483045022100dab1b4cc2296336a2487f9c7c1211a47501ef54052854c1ec6b3df15cf73740302206a602949230e8385b0d311ce18a178605c4da241ab732856e78e0b1b5b22d719012103bfaae7d082a94861384cd7d3c45dd905fff7f4b875d3e02874e6ede81917ed14ffffffff020000000000000000536a4c50000077760001289af6db5aa7155404994516bcbefa6b8351586b4e86aeaeacb577c031fc4be3474d14b6f32469216d99516ca4025baa09660614909024164bf4bc9a9526289ac0f6612cd74e33776ee490fe0100000000001976a914d9bca1fca22191435d9280f4b5e60a2ba5cea83388ac00000000", "vin": [{"sequence": 4294967295, "scriptSig": {"hex": "483045022100dab1b4cc2296336a2487f9c7c1211a47501ef54052854c1ec6b3df15cf73740302206a602949230e8385b0d311ce18a178605c4da241ab732856e78e0b1b5b22d719012103bfaae7d082a94861384cd7d3c45dd905fff7f4b875d3e02874e6ede81917ed14", "asm": "3045022100dab1b4cc2296336a2487f9c7c1211a47501ef54052854c1ec6b3df15cf73740302206a602949230e8385b0d311ce18a178605c4da241ab732856e78e0b1b5b22d719[ALL] 03bfaae7d082a94861384cd7d3c45dd905fff7f4b875d3e02874e6ede81917ed14"}, "vout": 1, "txid": "101549e2236efc1b84007e36ad541fdaaaef3724801c2655d4b3d705cc0a493f"}], "txid": "8a9987d6333177dd4cf01f26e6f3c2d9dcd9f6f68d00eeb744a4f50c2eb28e3f", "blocktime": 1537870268, "version": 1, "confirmations": 11518, "time": 1537870268, "locktime": 0, "vsize": 284, "size": 284}