{"hash": "8a9fcf6ff19fa90ec0e30596536147a865edb42722cde2bc5e0071b829eaebdf", "blockhash": "00000000000000000024a2167bbff67b0be802c0b01cdd79e6331c2be6459f87", "vout": [{"scriptPubKey": {"reqSigs": 1, "hex": "76a9149adbe49185c1fa180c0b060766db87dfeb0a211888ac", "addresses": ["1F7pUxx3Yi8z6py1jBuqvbjR2ubym172ZF"], "asm": "OP_DUP OP_HASH160 9adbe49185c1fa180c0b060766db87dfeb0a2118 OP_EQUALVERIFY OP_CHECKSIG", "type": "pubkeyhash"}, "value": 0.0377505, "n": 0}, {"scriptPubKey": {"reqSigs": 1, "hex": "76a9143f6affe2201077215fe9002af036c6e523b845d288ac", "addresses": ["16nKkYYwktsqMg2puk7SVqfTqnqt1upGm9"], "asm": "OP_DUP OP_HASH160 3f6affe2201077215fe9002af036c6e523b845d2 OP_EQUALVERIFY OP_CHECKSIG", "type": "pubkeyhash"}, "value": 0.06444377, "n": 1}], "hex": "010000000157591813bf6ac7cf0c93a3ff5886ceab4ef7f1e10970b41ca374f738344c51a7000000006a47304402206f2ece85cbe10d69d473b7f2a778f4d62d626a65efd9ae15486da632e54fb62b022005952ba1cc300a15a4b9bb2cb4774b2d28d606fc91b1c6e78ee6c8d29e6ca46c0121028c3b3d2784bd9fe4bb3d7a4958887f63c43c042b2d2a39bddb9d10aaa160aec9ffffffff024a9a3900000000001976a9149adbe49185c1fa180c0b060766db87dfeb0a211888ac59556200000000001976a9143f6affe2201077215fe9002af036c6e523b845d288ac00000000", "vin": [{"sequence": 4294967295, "scriptSig": {"hex": "47304402206f2ece85cbe10d69d473b7f2a778f4d62d626a65efd9ae15486da632e54fb62b022005952ba1cc300a15a4b9bb2cb4774b2d28d606fc91b1c6e78ee6c8d29e6ca46c0121028c3b3d2784bd9fe4bb3d7a4958887f63c43c042b2d2a39bddb9d10aaa160aec9", "asm": "304402206f2ece85cbe10d69d473b7f2a778f4d62d626a65efd9ae15486da632e54fb62b022005952ba1cc300a15a4b9bb2cb4774b2d28d606fc91b1c6e78ee6c8d29e6ca46c[ALL] 028c3b3d2784bd9fe4bb3d7a4958887f63c43c042b2d2a39bddb9d10aaa160aec9"}, "vout": 0, "txid": "a7514c3438f774a31cb47009e1f1f74eabce8658ffa3930ccfc76abf13185957"}], "txid": "8a9fcf6ff19fa90ec0e30596536147a865edb42722cde2bc5e0071b829eaebdf", "blocktime": 1537870564, "version": 1, "confirmations": 11515, "time": 1537870564, "locktime": 0, "vsize": 225, "size": 225}