{"hash": "c7a3a560973335738bd12a5e0d90155fb48aec4f63d059e37003b21e301be212", "blockhash": "0000000000000000001cda96e906b7601b7a6fb1a3b62bca570a9e5d8f4b3de1", "vout": [{"scriptPubKey": {"reqSigs": 1, "hex": "0014631ef97993b9d8e09be40e53750733666aec8b33", "addresses": ["bc1qvv00j7vnh8vwpxlypefh2penve4wezenh27gf6"], "asm": "0 631ef97993b9d8e09be40e53750733666aec8b33", "type": "witness_v0_keyhash"}, "value": 1.337e-05, "n": 0}, {"scriptPubKey": {"reqSigs": 1, "hex": "a91469f3766c917e3d267832984290ba7c9d4b32b4a287", "addresses": ["3BMEXmEpgNrEYYVsC7JUFpmUhaxeLMVxg3"], "asm": "OP_HASH160 69f3766c917e3d267832984290ba7c9d4b32b4a2 OP_EQUAL", "type": "scripthash"}, "value": 0.00130852, "n": 1}], "hex": "0100000000010117a4d1ad5fc9396aa055aae7e3e18231998467294d472b8cdd0e2b4bbc5bae630100000000ffffffff023905000000000000160014631ef97993b9d8e09be40e53750733666aec8b3324ff01000000000017a91469f3766c917e3d267832984290ba7c9d4b32b4a2870247304402204be508a2a97d2fe43b0cc211b81326856a9bff00770fefe837e291b8f8e8636502202892fb37ea0e22899973bada65f24f4abb349dd528cf943f5f7ea372aaf96a2e0121034405935066a6bc914544311c5f569900aa8872cbe1bc97042f916169f58ff9cb00000000", "vin": [{"txinwitness": ["304402204be508a2a97d2fe43b0cc211b81326856a9bff00770fefe837e291b8f8e8636502202892fb37ea0e22899973bada65f24f4abb349dd528cf943f5f7ea372aaf96a2e01", "034405935066a6bc914544311c5f569900aa8872cbe1bc97042f916169f58ff9cb"], "sequence": 4294967295, "scriptSig": {"hex": "", "asm": ""}, "vout": 1, "txid": "63ae5bbc4b2b0edd8c2b474d296784993182e1e3e7aa55a06a39c95fadd1a417"}], "txid": "8aa3ee5d2506fbad8095f88cce0a184dbfdc34af8aa1aa164b7f5cf6d10eafcf", "blocktime": 1537873282, "version": 1, "confirmations": 11484, "time": 1537873282, "locktime": 0, "vsize": 142, "size": 223}