{"hash": "8aa66f9d451478ccb820e96caecd33e62b73070dae0d7b3524b6783ffdeed657", "blockhash": "0000000000000000000dcc0f55137456b1a82d3642486a52398922ac4d620174", "vout": [{"scriptPubKey": {"reqSigs": 1, "hex": "76a914947fe5d5756185ef02d45bb9866619da29cd601488ac", "addresses": ["1EYCDtLEiGXhU9xqytHygTwMxLnxm2wocT"], "asm": "OP_DUP OP_HASH160 947fe5d5756185ef02d45bb9866619da29cd6014 OP_EQUALVERIFY OP_CHECKSIG", "type": "pubkeyhash"}, "value": 0.0046626, "n": 0}, {"scriptPubKey": {"reqSigs": 1, "hex": "76a9141238a54780096ca971daf6ff6f9e4efe3a5237dc88ac", "addresses": ["12fM2G4uRwDWfviQd8Jjtc1GViv53pz3A3"], "asm": "OP_DUP OP_HASH160 1238a54780096ca971daf6ff6f9e4efe3a5237dc OP_EQUALVERIFY OP_CHECKSIG", "type": "pubkeyhash"}, "value": 0.03252221, "n": 1}], "hex": "0100000001eb353a76258fe1bf431f2da822de09e1d9ca66e7da7585f5b2f45fd8d1ae0965070000006a4730440220240731d0536e6a06746dee1a75cbc5d9bd76db33b2986948c6c594f7156d04e3022007ad84dd8dce767ae75088fd080ab443eee6fbd54bb3f816736b0d05ca084763012102a017def1582b0312717cf4317091897838db9f963a237a7958c50171725cf827ffffffff02541d0700000000001976a914947fe5d5756185ef02d45bb9866619da29cd601488acfd9f3100000000001976a9141238a54780096ca971daf6ff6f9e4efe3a5237dc88ac00000000", "vin": [{"sequence": 4294967295, "scriptSig": {"hex": "4730440220240731d0536e6a06746dee1a75cbc5d9bd76db33b2986948c6c594f7156d04e3022007ad84dd8dce767ae75088fd080ab443eee6fbd54bb3f816736b0d05ca084763012102a017def1582b0312717cf4317091897838db9f963a237a7958c50171725cf827", "asm": "30440220240731d0536e6a06746dee1a75cbc5d9bd76db33b2986948c6c594f7156d04e3022007ad84dd8dce767ae75088fd080ab443eee6fbd54bb3f816736b0d05ca084763[ALL] 02a017def1582b0312717cf4317091897838db9f963a237a7958c50171725cf827"}, "vout": 7, "txid": "6509aed1d85ff4b2f58575dae766cad9e109de22a82d1f43bfe18f25763a35eb"}], "txid": "8aa66f9d451478ccb820e96caecd33e62b73070dae0d7b3524b6783ffdeed657", "blocktime": 1537870268, "version": 1, "confirmations": 11518, "time": 1537870268, "locktime": 0, "vsize": 225, "size": 225}