{"hash": "8aa8084102defaf007a8a8e1071e4f4371b5be19517386a8943616ab8b95a03f", "blockhash": "0000000000000000001e0dab787dd257d1dbfcb92a98c2207d5e1078be1f4165", "vout": [{"scriptPubKey": {"reqSigs": 1, "hex": "76a9147635bd0ad208e26bdda1c3b94313191cf8bb58b188ac", "addresses": ["1Bn37T2Rrm9gZ1sW2ia5Vcw6xWxpoCNMMX"], "asm": "OP_DUP OP_HASH160 7635bd0ad208e26bdda1c3b94313191cf8bb58b1 OP_EQUALVERIFY OP_CHECKSIG", "type": "pubkeyhash"}, "value": 0.03136, "n": 0}, {"scriptPubKey": {"reqSigs": 1, "hex": "76a914ca0986cb0c1c8d283328740f6a5bc8567a85abb688ac", "addresses": ["1KRGufaEsVHsxjWcTJCwmG2LvSkyL23fVQ"], "asm": "OP_DUP OP_HASH160 ca0986cb0c1c8d283328740f6a5bc8567a85abb6 OP_EQUALVERIFY OP_CHECKSIG", "type": "pubkeyhash"}, "value": 0.2411522, "n": 1}], "hex": "0100000001b5eb174e7d43e2957275f82251ec42d6b2c7cae2c55870fcf984a13320799636010000006a47304402200eef79d1df9166d4be08c3e0931b0f72e60f03edc855f47148b8a6219c09abca022034ae7723b0a5eaf5b22ea8d0a246d152862eb9b5d1abb8093ecfa050ba913f4b012102d2256b39430b82d39d8dbecf6de05b88750642806d350819fcceecd7ebf3f51cffffffff0200da2f00000000001976a9147635bd0ad208e26bdda1c3b94313191cf8bb58b188ac14f86f01000000001976a914ca0986cb0c1c8d283328740f6a5bc8567a85abb688ac00000000", "vin": [{"sequence": 4294967295, "scriptSig": {"hex": "47304402200eef79d1df9166d4be08c3e0931b0f72e60f03edc855f47148b8a6219c09abca022034ae7723b0a5eaf5b22ea8d0a246d152862eb9b5d1abb8093ecfa050ba913f4b012102d2256b39430b82d39d8dbecf6de05b88750642806d350819fcceecd7ebf3f51c", "asm": "304402200eef79d1df9166d4be08c3e0931b0f72e60f03edc855f47148b8a6219c09abca022034ae7723b0a5eaf5b22ea8d0a246d152862eb9b5d1abb8093ecfa050ba913f4b[ALL] 02d2256b39430b82d39d8dbecf6de05b88750642806d350819fcceecd7ebf3f51c"}, "vout": 1, "txid": "3696792033a184f9fc7058c5e2cac7b2d642ec5122f8757295e2437d4e17ebb5"}], "txid": "8aa8084102defaf007a8a8e1071e4f4371b5be19517386a8943616ab8b95a03f", "blocktime": 1537872475, "version": 1, "confirmations": 11487, "time": 1537872475, "locktime": 0, "vsize": 225, "size": 225}