{"hash": "8aab92b4abe06eab855599748280fd93fb609f89ec91153bf825711be08648da", "blockhash": "00000000000000000018f53835495a110e01622372bf6ae95dc86f2b0ab887b0", "vout": [{"scriptPubKey": {"reqSigs": 1, "hex": "76a914a06a4cd791a9588e82be021e70320cca9a3184f188ac", "addresses": ["1FdCTZML4TTsV4tttUb8qPHNjbY57RkQV4"], "asm": "OP_DUP OP_HASH160 a06a4cd791a9588e82be021e70320cca9a3184f1 OP_EQUALVERIFY OP_CHECKSIG", "type": "pubkeyhash"}, "value": 0.00086457, "n": 0}, {"scriptPubKey": {"reqSigs": 1, "hex": "a91482342bf48d69d4408dbb79fbeae67c140c1a11fe87", "addresses": ["3DZUGSBahdN1dRQHMMfFPD6PGd7oUNTYJ6"], "asm": "OP_HASH160 82342bf48d69d4408dbb79fbeae67c140c1a11fe OP_EQUAL", "type": "scripthash"}, "value": 0.00098169, "n": 1}, {"scriptPubKey": {"reqSigs": 1, "hex": "76a914047d2bf147832e73c91d9727edd965b860a80bed88ac", "addresses": ["1Qjer59VPVnzc1zK6gapXUoWE8qpbKy5B"], "asm": "OP_DUP OP_HASH160 047d2bf147832e73c91d9727edd965b860a80bed OP_EQUALVERIFY OP_CHECKSIG", "type": "pubkeyhash"}, "value": 9.485e-05, "n": 2}], "hex": "0100000002813c710c41f4abb84bd7601cc4b705360ce6b01670020f37a1171ebe7fced25c000000006b483045022100931a3842b1690454a6c15036fc773e500d1667e8310de2f079b266808a2dab8202201eacc43fced381414761b058573ff3645c67bac6c27a2babd8323a39128d696f012103c6744df47dad8b282cae266163424f849108a767e265a5eca5888617b8650408ffffffffec15b9083f2a1dd07b22afdbb238c878b0a776f2ae6cf9449349bfe3dd9bbc83010000006b48304502210081901ce7caa3c42c59ed1ee55679649bdbc50e76bde5d12e9d4a814b9087a27d02200d9c4fddb5a08dd226dca6b5d731886d1c95c93fc4daa9d2830c1d958acc475701210215bac1696ddcf2e7203a0cc6a91c3b27d424ae6b7d5562f529bd0916de46b3fdffffffff03b9510100000000001976a914a06a4cd791a9588e82be021e70320cca9a3184f188ac797f01000000000017a91482342bf48d69d4408dbb79fbeae67c140c1a11fe870d250000000000001976a914047d2bf147832e73c91d9727edd965b860a80bed88ac00000000", "vin": [{"sequence": 4294967295, "scriptSig": {"hex": "483045022100931a3842b1690454a6c15036fc773e500d1667e8310de2f079b266808a2dab8202201eacc43fced381414761b058573ff3645c67bac6c27a2babd8323a39128d696f012103c6744df47dad8b282cae266163424f849108a767e265a5eca5888617b8650408", "asm": "3045022100931a3842b1690454a6c15036fc773e500d1667e8310de2f079b266808a2dab8202201eacc43fced381414761b058573ff3645c67bac6c27a2babd8323a39128d696f[ALL] 03c6744df47dad8b282cae266163424f849108a767e265a5eca5888617b8650408"}, "vout": 0, "txid": "5cd2ce7fbe1e17a1370f027016b0e60c3605b7c41c60d74bb8abf4410c713c81"}, {"sequence": 4294967295, "scriptSig": {"hex": "48304502210081901ce7caa3c42c59ed1ee55679649bdbc50e76bde5d12e9d4a814b9087a27d02200d9c4fddb5a08dd226dca6b5d731886d1c95c93fc4daa9d2830c1d958acc475701210215bac1696ddcf2e7203a0cc6a91c3b27d424ae6b7d5562f529bd0916de46b3fd", "asm": "304502210081901ce7caa3c42c59ed1ee55679649bdbc50e76bde5d12e9d4a814b9087a27d02200d9c4fddb5a08dd226dca6b5d731886d1c95c93fc4daa9d2830c1d958acc4757[ALL] 0215bac1696ddcf2e7203a0cc6a91c3b27d424ae6b7d5562f529bd0916de46b3fd"}, "vout": 1, "txid": "83bc9bdde3bf499344f96caef276a7b078c838b2dbaf227bd01d2a3f08b915ec"}], "txid": "8aab92b4abe06eab855599748280fd93fb609f89ec91153bf825711be08648da", "blocktime": 1537870928, "version": 1, "confirmations": 11512, "time": 1537870928, "locktime": 0, "vsize": 406, "size": 406}