{"hash": "695d476ae85f1d4c56aa6f396e1fc4a552fae242b4692b27af08f48640ccc0a8", "blockhash": "00000000000000000017f5eb5941039fbcee6240d03bc1f2f8e35350df66a1d8", "vout": [{"scriptPubKey": {"reqSigs": 1, "hex": "a914d4ecd03fcdcbfca8306a89e557cc14f2f0cfad3687", "addresses": ["3M6rsJNpU8TWtfyWpTXYSHF8LvjTTgHYaT"], "asm": "OP_HASH160 d4ecd03fcdcbfca8306a89e557cc14f2f0cfad36 OP_EQUAL", "type": "scripthash"}, "value": 0.0103946, "n": 0}, {"scriptPubKey": {"reqSigs": 1, "hex": "a914f72a12a7286f93d3afd4ff9ba3ba5d42945cc18487", "addresses": ["3QDuECXrzV7S3Yf52NGpN6hd8QJcGUAtQM"], "asm": "OP_HASH160 f72a12a7286f93d3afd4ff9ba3ba5d42945cc184 OP_EQUAL", "type": "scripthash"}, "value": 0.1094488, "n": 1}], "hex": "0200000000010238dfd426312ab346ca2744a815a870815c6d58dfd786a78ade096c0331ac5d6200000000171600144cf17c147ad19906d994766926aa6efc253a0025feffffffb081efe3ffd17be94c6bbcc7dd9a8405564a7a0e16c3e20d0cc37b3987551fe50500000017160014bc1c0765dfd92229cd08b260a8ba068d25a32635feffffff0264dc0f000000000017a914d4ecd03fcdcbfca8306a89e557cc14f2f0cfad36877001a7000000000017a914f72a12a7286f93d3afd4ff9ba3ba5d42945cc18487024730440220521d2b4ceac464655bbc2c8aaec6288102435e618d4063fe7905fd7696255a450220379476b8c31dd8c1e91fe2cb7cb00b8b7121260d839c9f639ce7b15e5b198a62012103373df2ea518127640d041937fe67ab3f90a7851040c11c8a27811348ea4b3457024730440220009b93527221132406cbaab8b316ded7685cb905b0d8db2bd417fd221528a1910220116be27b803f870a765fdc0888664e99cd9209f9b8a006d10b071de13cae0ccb0121038a3e9597fa55f59a2bef4cb23377f2420cf1e7480cd212016cca6db15c85d00c15490800", "vin": [{"txinwitness": ["30440220521d2b4ceac464655bbc2c8aaec6288102435e618d4063fe7905fd7696255a450220379476b8c31dd8c1e91fe2cb7cb00b8b7121260d839c9f639ce7b15e5b198a6201", "03373df2ea518127640d041937fe67ab3f90a7851040c11c8a27811348ea4b3457"], "sequence": 4294967294, "scriptSig": {"hex": "1600144cf17c147ad19906d994766926aa6efc253a0025", "asm": "00144cf17c147ad19906d994766926aa6efc253a0025"}, "vout": 0, "txid": "625dac31036c09de8aa786d7df586d5c8170a815a84427ca46b32a3126d4df38"}, {"txinwitness": ["30440220009b93527221132406cbaab8b316ded7685cb905b0d8db2bd417fd221528a1910220116be27b803f870a765fdc0888664e99cd9209f9b8a006d10b071de13cae0ccb01", "038a3e9597fa55f59a2bef4cb23377f2420cf1e7480cd212016cca6db15c85d00c"], "sequence": 4294967294, "scriptSig": {"hex": "160014bc1c0765dfd92229cd08b260a8ba068d25a32635", "asm": "0014bc1c0765dfd92229cd08b260a8ba068d25a32635"}, "vout": 5, "txid": "e51f5587397bc30c0de2c3160e7a4a5605849addc7bc6b4ce97bd1ffe3ef81b0"}], "txid": "8ab071c003af1109e44174a7a9fe256d06bdbaf39ade0a452ac304597d5e92bd", "blocktime": 1537874412, "version": 2, "confirmations": 11466, "time": 1537874412, "locktime": 542997, "vsize": 256, "size": 418}