{"hash": "8ab0536c6d10fdef46dfe4d2be12841636c240e6d73d475a1ef3aca2c5df2a97", "blockhash": "00000000000000000004ffacab907a6b429b9a5745fa0b75af4234bf69dd7176", "vout": [{"scriptPubKey": {"reqSigs": 1, "hex": "a914a4c2fd4d96227b0230c1b9511bf50dca4da4bded87", "addresses": ["3GiCL7JbDAePwVLFwPqHYBRHArnywYQZAY"], "asm": "OP_HASH160 a4c2fd4d96227b0230c1b9511bf50dca4da4bded OP_EQUAL", "type": "scripthash"}, "value": 0.03127531, "n": 0}, {"scriptPubKey": {"reqSigs": 1, "hex": "76a9145ecb7c8d9a522bf60271d679ca0efae57fbc767088ac", "addresses": ["19eEHXRAJhhzDAuqANem27Khqu6FEfWfox"], "asm": "OP_DUP OP_HASH160 5ecb7c8d9a522bf60271d679ca0efae57fbc7670 OP_EQUALVERIFY OP_CHECKSIG", "type": "pubkeyhash"}, "value": 0.0328127, "n": 1}], "hex": "01000000016a9318fa754817106eaa11e77e4befc2eadd2e736d3561836241cf73bee44693000000006a473044022049453a8823d52dfb66f9d78cde1251f1a8505309deaa9569e7345f0e6739c97c02203e63e364f9f5f3d7b242e3e5b117a1be9594b8c38ef1114d3cb3a2f4b0762d82012102ede583c0c278857b6153fff09c59ef9199940ff1450055f743b61d03b630cdf1ffffffff02ebb82f000000000017a914a4c2fd4d96227b0230c1b9511bf50dca4da4bded8776113200000000001976a9145ecb7c8d9a522bf60271d679ca0efae57fbc767088ac00000000", "vin": [{"sequence": 4294967295, "scriptSig": {"hex": "473044022049453a8823d52dfb66f9d78cde1251f1a8505309deaa9569e7345f0e6739c97c02203e63e364f9f5f3d7b242e3e5b117a1be9594b8c38ef1114d3cb3a2f4b0762d82012102ede583c0c278857b6153fff09c59ef9199940ff1450055f743b61d03b630cdf1", "asm": "3044022049453a8823d52dfb66f9d78cde1251f1a8505309deaa9569e7345f0e6739c97c02203e63e364f9f5f3d7b242e3e5b117a1be9594b8c38ef1114d3cb3a2f4b0762d82[ALL] 02ede583c0c278857b6153fff09c59ef9199940ff1450055f743b61d03b630cdf1"}, "vout": 0, "txid": "9346e4be73cf41628361356d732eddeac2ef4b7ee711aa6e10174875fa18936a"}], "txid": "8ab0536c6d10fdef46dfe4d2be12841636c240e6d73d475a1ef3aca2c5df2a97", "blocktime": 1537875543, "version": 1, "confirmations": 11464, "time": 1537875543, "locktime": 0, "vsize": 223, "size": 223}