{"hash": "8ab88f54a5bc2b2e9ed33c21c57369d0054d987c9c869cccf0df8ead6cfbe9f3", "blockhash": "0000000000000000001cda96e906b7601b7a6fb1a3b62bca570a9e5d8f4b3de1", "vout": [{"scriptPubKey": {"reqSigs": 1, "hex": "76a91458c2db971dba50b0204e635370f609001485ac2888ac", "addresses": ["196KtqXMdeXKdc8bd11LvPAbT8ayM2qqUE"], "asm": "OP_DUP OP_HASH160 58c2db971dba50b0204e635370f609001485ac28 OP_EQUALVERIFY OP_CHECKSIG", "type": "pubkeyhash"}, "value": 0.77, "n": 0}, {"scriptPubKey": {"reqSigs": 1, "hex": "76a9144da33368a85728eab1bbc4d07b6dfc91e728f54e88ac", "addresses": ["185WYARM7swB4PzXcj14wyW1xF7dYFYkfS"], "asm": "OP_DUP OP_HASH160 4da33368a85728eab1bbc4d07b6dfc91e728f54e OP_EQUALVERIFY OP_CHECKSIG", "type": "pubkeyhash"}, "value": 0.13393858, "n": 1}], "hex": "010000000326f04dbf334d9250c5003b9bc37ad92c3baece78f232ae4c40deba8d64316f1c780000006b4830450221008bed0cca36cd8073c164754dd85ddb9f13b7eb5e3ebeb72f3482dfcae25e27ba022020827322cc5b1dfbbbc6e00819d86b67f0a70d187ceaf1442e002b25dc5f14f10121031b62f23701824ba1feae00a32c2135d289bda4717e74bf4c5883a0216b555a91ffffffff7b92f11ebecd52fec6135939d98876273210ae526660ef092d693fa5f067cb25570000006a473044022066aec610cb269a5e30cf320eb2725107c08dedbba9f661f44bd2c2f18f7a9e5402206c2fca0f4213cece1218fad024445b18fd3c81b4ee11af8fb180008d9b08354b0121031b62f23701824ba1feae00a32c2135d289bda4717e74bf4c5883a0216b555a91ffffffffca02383c023a50fdd510440f95a751b28e2cf747407d33b009ba7048e24a98fe140100006b483045022100ac3f42c77979ebed2eed8640b4054f3fdcc4e07ba401b7be47eefde4d9e3ecc0022004f98d03b633b2b6f1217daedba6d440874b15094cf6514272a125c712d45f4a0121031b62f23701824ba1feae00a32c2135d289bda4717e74bf4c5883a0216b555a91ffffffff0240ed9604000000001976a91458c2db971dba50b0204e635370f609001485ac2888acc25fcc00000000001976a9144da33368a85728eab1bbc4d07b6dfc91e728f54e88ac00000000", "vin": [{"sequence": 4294967295, "scriptSig": {"hex": "4830450221008bed0cca36cd8073c164754dd85ddb9f13b7eb5e3ebeb72f3482dfcae25e27ba022020827322cc5b1dfbbbc6e00819d86b67f0a70d187ceaf1442e002b25dc5f14f10121031b62f23701824ba1feae00a32c2135d289bda4717e74bf4c5883a0216b555a91", "asm": "30450221008bed0cca36cd8073c164754dd85ddb9f13b7eb5e3ebeb72f3482dfcae25e27ba022020827322cc5b1dfbbbc6e00819d86b67f0a70d187ceaf1442e002b25dc5f14f1[ALL] 031b62f23701824ba1feae00a32c2135d289bda4717e74bf4c5883a0216b555a91"}, "vout": 120, "txid": "1c6f31648dbade404cae32f278ceae3b2cd97ac39b3b00c550924d33bf4df026"}, {"sequence": 4294967295, "scriptSig": {"hex": "473044022066aec610cb269a5e30cf320eb2725107c08dedbba9f661f44bd2c2f18f7a9e5402206c2fca0f4213cece1218fad024445b18fd3c81b4ee11af8fb180008d9b08354b0121031b62f23701824ba1feae00a32c2135d289bda4717e74bf4c5883a0216b555a91", "asm": "3044022066aec610cb269a5e30cf320eb2725107c08dedbba9f661f44bd2c2f18f7a9e5402206c2fca0f4213cece1218fad024445b18fd3c81b4ee11af8fb180008d9b08354b[ALL] 031b62f23701824ba1feae00a32c2135d289bda4717e74bf4c5883a0216b555a91"}, "vout": 87, "txid": "25cb67f0a53f692d09ef606652ae1032277688d9395913c6fe52cdbe1ef1927b"}, {"sequence": 4294967295, "scriptSig": {"hex": "483045022100ac3f42c77979ebed2eed8640b4054f3fdcc4e07ba401b7be47eefde4d9e3ecc0022004f98d03b633b2b6f1217daedba6d440874b15094cf6514272a125c712d45f4a0121031b62f23701824ba1feae00a32c2135d289bda4717e74bf4c5883a0216b555a91", "asm": "3045022100ac3f42c77979ebed2eed8640b4054f3fdcc4e07ba401b7be47eefde4d9e3ecc0022004f98d03b633b2b6f1217daedba6d440874b15094cf6514272a125c712d45f4a[ALL] 031b62f23701824ba1feae00a32c2135d289bda4717e74bf4c5883a0216b555a91"}, "vout": 276, "txid": "fe984ae24870ba09b0337d4047f72c8eb251a7950f4410d5fd503a023c3802ca"}], "txid": "8ab88f54a5bc2b2e9ed33c21c57369d0054d987c9c869cccf0df8ead6cfbe9f3", "blocktime": 1537873282, "version": 1, "confirmations": 11481, "time": 1537873282, "locktime": 0, "vsize": 521, "size": 521}