{"hash": "8abbec81e1b2f7abb4188300613e65eb67cee303dc01332035fbca3dcc46b35d", "blockhash": "00000000000000000004ffacab907a6b429b9a5745fa0b75af4234bf69dd7176", "vout": [{"scriptPubKey": {"reqSigs": 1, "hex": "76a9148ca523f5bcb9e1fc2ff3c7aefc97ccf4f6cf2bf588ac", "addresses": ["1DpfS1ziuXpSjSL2C6hZ432jBo8fqi6Wzj"], "asm": "OP_DUP OP_HASH160 8ca523f5bcb9e1fc2ff3c7aefc97ccf4f6cf2bf5 OP_EQUALVERIFY OP_CHECKSIG", "type": "pubkeyhash"}, "value": 1.3, "n": 0}, {"scriptPubKey": {"reqSigs": 1, "hex": "76a914258c1cb4e946dd874176dc4123430d8258e46aea88ac", "addresses": ["14RXrG4BpwYjJV58Wpptcmj95dgaMHwtYj"], "asm": "OP_DUP OP_HASH160 258c1cb4e946dd874176dc4123430d8258e46aea OP_EQUALVERIFY OP_CHECKSIG", "type": "pubkeyhash"}, "value": 0.77392, "n": 1}], "hex": "0100000004eb42f983df78eabdc896cd6a6349e76a31a1c9e0129b4c756304770efba8bdc2010000006b483045022100b96d88db5bd51568eb2d063d8159ce88b3feb05929a643760bf65de31e95e823022032371f2f0dc94679fbaf1f791758d3c616cc4e3e555f2e8cb5c02937b332436001210295ca86740db935393f63304e9da7d19e39f0576b114496add1a84e366fec422fffffffff7feec1efd8c0e25f84288b9cace5b8202596e1f8266b097d11598354ae7c9ac8010000006b483045022100b4eaa8a27e5d5f0bc654259de0d6657b7cc24f708edbebca2cc17943932f60cf02206b419513470023e17e19e7eb8f338d8e0927578bb5994b5e2c9e5681a3e3b219012103ce32bbb7768227e821b2a04dd1ded847f97fd6ce03cda06c5e37534b06693505ffffffff8794de2c45150a48fd078252f88d8953f1e1e854f2fa4ac48abfc0b8bb2d9895010000006a4730440220737d5de56e46a026237d4e2341bf68421639b51c6778c4c51afb70a99d02354602204ab07e9c8a912d7cc7583251e686d76d0593bf5a2f041c8c8b1ee2343000aa050121031f2d9448d41662ae8c1d447fda6bbc4e5039f4847d4f06578b9d859ce9cdc14fffffffffaaa78db340d071851ed466a237f24f486e93456e808ab5d38c0428efefd1f2af000000006b483045022100c9e7749b66e2d08d1581af8ad7b3149822df44abbdc7587a0524e00af013ef810220546f18ea8357c1b0a71d5622124b33afa3c9e410c1d7080a6e52624cd138bf65012103a171bd9c1fd7c4a37f7a1b2d543131c7c1e9d5aeaffd3199d8e21f0a87bfceb4ffffffff0280a4bf07000000001976a9148ca523f5bcb9e1fc2ff3c7aefc97ccf4f6cf2bf588ac80e89c04000000001976a914258c1cb4e946dd874176dc4123430d8258e46aea88ac00000000", "vin": [{"sequence": 4294967295, "scriptSig": {"hex": "483045022100b96d88db5bd51568eb2d063d8159ce88b3feb05929a643760bf65de31e95e823022032371f2f0dc94679fbaf1f791758d3c616cc4e3e555f2e8cb5c02937b332436001210295ca86740db935393f63304e9da7d19e39f0576b114496add1a84e366fec422f", "asm": "3045022100b96d88db5bd51568eb2d063d8159ce88b3feb05929a643760bf65de31e95e823022032371f2f0dc94679fbaf1f791758d3c616cc4e3e555f2e8cb5c02937b3324360[ALL] 0295ca86740db935393f63304e9da7d19e39f0576b114496add1a84e366fec422f"}, "vout": 1, "txid": "c2bda8fb0e770463754c9b12e0c9a1316ae749636acd96c8bdea78df83f942eb"}, {"sequence": 4294967295, "scriptSig": {"hex": "483045022100b4eaa8a27e5d5f0bc654259de0d6657b7cc24f708edbebca2cc17943932f60cf02206b419513470023e17e19e7eb8f338d8e0927578bb5994b5e2c9e5681a3e3b219012103ce32bbb7768227e821b2a04dd1ded847f97fd6ce03cda06c5e37534b06693505", "asm": "3045022100b4eaa8a27e5d5f0bc654259de0d6657b7cc24f708edbebca2cc17943932f60cf02206b419513470023e17e19e7eb8f338d8e0927578bb5994b5e2c9e5681a3e3b219[ALL] 03ce32bbb7768227e821b2a04dd1ded847f97fd6ce03cda06c5e37534b06693505"}, "vout": 1, "txid": "c89a7cae548359117d096b26f8e1962520b8e5ac9c8b28845fe2c0d8efc1ee7f"}, {"sequence": 4294967295, "scriptSig": {"hex": "4730440220737d5de56e46a026237d4e2341bf68421639b51c6778c4c51afb70a99d02354602204ab07e9c8a912d7cc7583251e686d76d0593bf5a2f041c8c8b1ee2343000aa050121031f2d9448d41662ae8c1d447fda6bbc4e5039f4847d4f06578b9d859ce9cdc14f", "asm": "30440220737d5de56e46a026237d4e2341bf68421639b51c6778c4c51afb70a99d02354602204ab07e9c8a912d7cc7583251e686d76d0593bf5a2f041c8c8b1ee2343000aa05[ALL] 031f2d9448d41662ae8c1d447fda6bbc4e5039f4847d4f06578b9d859ce9cdc14f"}, "vout": 1, "txid": "95982dbbb8c0bf8ac44afaf254e8e1f153898df8528207fd480a15452cde9487"}, {"sequence": 4294967295, "scriptSig": {"hex": "483045022100c9e7749b66e2d08d1581af8ad7b3149822df44abbdc7587a0524e00af013ef810220546f18ea8357c1b0a71d5622124b33afa3c9e410c1d7080a6e52624cd138bf65012103a171bd9c1fd7c4a37f7a1b2d543131c7c1e9d5aeaffd3199d8e21f0a87bfceb4", "asm": "3045022100c9e7749b66e2d08d1581af8ad7b3149822df44abbdc7587a0524e00af013ef810220546f18ea8357c1b0a71d5622124b33afa3c9e410c1d7080a6e52624cd138bf65[ALL] 03a171bd9c1fd7c4a37f7a1b2d543131c7c1e9d5aeaffd3199d8e21f0a87bfceb4"}, "vout": 0, "txid": "aff2d1efef28048cd3b58a806e45936e484ff237a266d41e8571d040b38da7aa"}], "txid": "8abbec81e1b2f7abb4188300613e65eb67cee303dc01332035fbca3dcc46b35d", "blocktime": 1537875543, "version": 1, "confirmations": 11464, "time": 1537875543, "locktime": 0, "vsize": 669, "size": 669}