{"hash": "8ac07b25b899b22218e245d83cdeb6618b4bfdaac34f429ee8308642e2f720f7", "blockhash": "0000000000000000001e0dab787dd257d1dbfcb92a98c2207d5e1078be1f4165", "vout": [{"scriptPubKey": {"reqSigs": 1, "hex": "76a914161744db278d63ee71fddbc6e8668646589743b088ac", "addresses": ["131ojyeDigXBVbFLY5NpyuWVfXXdDR3wQy"], "asm": "OP_DUP OP_HASH160 161744db278d63ee71fddbc6e8668646589743b0 OP_EQUALVERIFY OP_CHECKSIG", "type": "pubkeyhash"}, "value": 8.824e-05, "n": 0}, {"scriptPubKey": {"reqSigs": 1, "hex": "a914c7ee881681c693f07631e3572640248e9da5157287", "addresses": ["3KvA9Bc86S2gqzr5Raejg2bSVfPNJFUjT9"], "asm": "OP_HASH160 c7ee881681c693f07631e3572640248e9da51572 OP_EQUAL", "type": "scripthash"}, "value": 0.09, "n": 1}], "hex": "0100000001bea9cb09bcfb07b2c47a5510910ffad0ab6a96d2dc7b8d123c53768ea9766297000000006b483045022100f7900ec2512210fa1466e04fc21d9ed4b8e24c7e7911dec6c5147f70e0807b9e0220124268d2783950f25c3839f8301a06c4c1b42a3e07867035316ee40aff2e950d012103dd98aee40d9ed34706d49399cb43a12b794b6a666fa9b4ec2d08677d03b7fb54ffffffff0278220000000000001976a914161744db278d63ee71fddbc6e8668646589743b088ac405489000000000017a914c7ee881681c693f07631e3572640248e9da515728700000000", "vin": [{"sequence": 4294967295, "scriptSig": {"hex": "483045022100f7900ec2512210fa1466e04fc21d9ed4b8e24c7e7911dec6c5147f70e0807b9e0220124268d2783950f25c3839f8301a06c4c1b42a3e07867035316ee40aff2e950d012103dd98aee40d9ed34706d49399cb43a12b794b6a666fa9b4ec2d08677d03b7fb54", "asm": "3045022100f7900ec2512210fa1466e04fc21d9ed4b8e24c7e7911dec6c5147f70e0807b9e0220124268d2783950f25c3839f8301a06c4c1b42a3e07867035316ee40aff2e950d[ALL] 03dd98aee40d9ed34706d49399cb43a12b794b6a666fa9b4ec2d08677d03b7fb54"}, "vout": 0, "txid": "976276a98e76533c128d7bdcd2966aabd0fa0f9110557ac4b207fbbc09cba9be"}], "txid": "8ac07b25b899b22218e245d83cdeb6618b4bfdaac34f429ee8308642e2f720f7", "blocktime": 1537872475, "version": 1, "confirmations": 11486, "time": 1537872475, "locktime": 0, "vsize": 224, "size": 224}