{"hash": "0b54afea66193059dfb777b529f243c40bd78d490da9223a413e11026c6f10f0", "blockhash": "0000000000000000000baef3f32e3676a92c3b2e5da21b426e4f302fc371ce76", "vout": [{"scriptPubKey": {"reqSigs": 1, "hex": "a9145cb0c111d186b4ba2fb018adff741360a75dbf1187", "addresses": ["3A97qHeFS3zVYPZzsX8Q2nQdTqDGLVoMsE"], "asm": "OP_HASH160 5cb0c111d186b4ba2fb018adff741360a75dbf11 OP_EQUAL", "type": "scripthash"}, "value": 0.00023427, "n": 0}, {"scriptPubKey": {"reqSigs": 1, "hex": "a9149d9a18fab5f7f69f43283a9cac13e4fe20a035f087", "addresses": ["3G4LcYm1imtGNtZTVBaennLQvLtVeTHyuV"], "asm": "OP_HASH160 9d9a18fab5f7f69f43283a9cac13e4fe20a035f0 OP_EQUAL", "type": "scripthash"}, "value": 0.00058157, "n": 1}], "hex": "0100000000010127631eaeba0c0fe0b20123ae770689a0e976d8ac93b1800d9847eef773b246e80100000023220020c3964200ddbb4e600e115db6744137acf9c5b5180748db0dab55922fc334e804ffffffff02835b00000000000017a9145cb0c111d186b4ba2fb018adff741360a75dbf11872de300000000000017a9149d9a18fab5f7f69f43283a9cac13e4fe20a035f0870400483045022100e48107a96ca39aebcdbf1581dd59858140f759c4c4088ff249f5f829181dbf650220493b470f3f991aed0d2e6686851f6236627084a5ff57e2d05b6eaf666675f6f001473044022016b41f893eb1afed33ed74092ca32afe1418a984fdabd89e99114eee49f809a3022031f6a998a2c1a344646a76017310cf693329f156ccd37570e539b8afc01575e101475221027d90ea13cc3a124e627d9d5322f164d434224b8aeb00f9f70ede6ef87b3f275e21029c8006ed371347b9b242eb59b1d04b30a7692604a2e5ed7e14dcbe0d4057c94d52ae00000000", "vin": [{"txinwitness": ["", "3045022100e48107a96ca39aebcdbf1581dd59858140f759c4c4088ff249f5f829181dbf650220493b470f3f991aed0d2e6686851f6236627084a5ff57e2d05b6eaf666675f6f001", "3044022016b41f893eb1afed33ed74092ca32afe1418a984fdabd89e99114eee49f809a3022031f6a998a2c1a344646a76017310cf693329f156ccd37570e539b8afc01575e101", "5221027d90ea13cc3a124e627d9d5322f164d434224b8aeb00f9f70ede6ef87b3f275e21029c8006ed371347b9b242eb59b1d04b30a7692604a2e5ed7e14dcbe0d4057c94d52ae"], "sequence": 4294967295, "scriptSig": {"hex": "220020c3964200ddbb4e600e115db6744137acf9c5b5180748db0dab55922fc334e804", "asm": "0020c3964200ddbb4e600e115db6744137acf9c5b5180748db0dab55922fc334e804"}, "vout": 1, "txid": "e846b273f7ee47980d80b193acd876e9a0890677ae2301b2e00f0cbaae1e6327"}], "txid": "8ac25be9c977ad1a1ba4d32efc6d8757f50ee0e7bed57542e08e749b8b6af3a3", "blocktime": 1537876114, "version": 1, "confirmations": 11459, "time": 1537876114, "locktime": 0, "vsize": 206, "size": 371}