{"hash": "8ac3f32e26c8213711d713ccd109f7cd186a78b191010640da008990880ea90a", "blockhash": "0000000000000000000dcc0f55137456b1a82d3642486a52398922ac4d620174", "vout": [{"scriptPubKey": {"reqSigs": 1, "hex": "a914be3b680fb60447751492b54b6595fb0d111953ee87", "addresses": ["3K2sUdJpKN9Rg8Z5EwHaPwm4VjfE62XoMp"], "asm": "OP_HASH160 be3b680fb60447751492b54b6595fb0d111953ee OP_EQUAL", "type": "scripthash"}, "value": 0.00975, "n": 0}], "hex": "0100000002db5679715640bd46b38e282e5756a236b2d105a7725f8b5115ed82252407cc0f130000006b4830450221008a924b73a64a4d51d5f74b47dc951745c369a801e595a0bcce00146f7b5d8d0c0220088fc97182b5527e1410868800b40dfd027a9de0c45d818cc9fa89c0c11a0710012102cec4adc134b1fca2454b92256ec7d2b5089c0ad20b5210e4561c516c0f39791dfeffffffa6058f4cc5fafc8d6b9903be4dc92a94fceab59f35522ab7b7a576562dd6b26e1b0000006a47304402202e34fdf6eb6d5808cf208f57316fab89bf023a0e37808ea63109d3246de3b57002205a5de4aefeb300c0123505bbb1c20fdbfee2dcfe36b661136b480501f1e51b56012103fd862246a3fcc20085dafebb89281a7fc16a91ee431b2e949fecd356b0bd8db0feffffff0198e00e000000000017a914be3b680fb60447751492b54b6595fb0d111953ee870c490800", "vin": [{"sequence": 4294967294, "scriptSig": {"hex": "4830450221008a924b73a64a4d51d5f74b47dc951745c369a801e595a0bcce00146f7b5d8d0c0220088fc97182b5527e1410868800b40dfd027a9de0c45d818cc9fa89c0c11a0710012102cec4adc134b1fca2454b92256ec7d2b5089c0ad20b5210e4561c516c0f39791d", "asm": "30450221008a924b73a64a4d51d5f74b47dc951745c369a801e595a0bcce00146f7b5d8d0c0220088fc97182b5527e1410868800b40dfd027a9de0c45d818cc9fa89c0c11a0710[ALL] 02cec4adc134b1fca2454b92256ec7d2b5089c0ad20b5210e4561c516c0f39791d"}, "vout": 19, "txid": "0fcc07242582ed15518b5f72a705d1b236a256572e288eb346bd4056717956db"}, {"sequence": 4294967294, "scriptSig": {"hex": "47304402202e34fdf6eb6d5808cf208f57316fab89bf023a0e37808ea63109d3246de3b57002205a5de4aefeb300c0123505bbb1c20fdbfee2dcfe36b661136b480501f1e51b56012103fd862246a3fcc20085dafebb89281a7fc16a91ee431b2e949fecd356b0bd8db0", "asm": "304402202e34fdf6eb6d5808cf208f57316fab89bf023a0e37808ea63109d3246de3b57002205a5de4aefeb300c0123505bbb1c20fdbfee2dcfe36b661136b480501f1e51b56[ALL] 03fd862246a3fcc20085dafebb89281a7fc16a91ee431b2e949fecd356b0bd8db0"}, "vout": 27, "txid": "6eb2d62d5676a5b7b72a52359fb5eafc942ac94dbe03996b8dfcfac54c8f05a6"}], "txid": "8ac3f32e26c8213711d713ccd109f7cd186a78b191010640da008990880ea90a", "blocktime": 1537870268, "version": 1, "confirmations": 11516, "time": 1537870268, "locktime": 542988, "vsize": 337, "size": 337}