{"hash": "8ac56685aadec5e2fee3840228cccfadaf181669b0ce3d7eebc8863e9bd5713c", "blockhash": "00000000000000000018f53835495a110e01622372bf6ae95dc86f2b0ab887b0", "vout": [{"scriptPubKey": {"reqSigs": 1, "hex": "a914ce9016bc01eb38d21b6f9ff94eb0eedb0c9df65687", "addresses": ["3LXDjXViATKEznkgPGmCbPnqufChYzpKwp"], "asm": "OP_HASH160 ce9016bc01eb38d21b6f9ff94eb0eedb0c9df656 OP_EQUAL", "type": "scripthash"}, "value": 0.0027286, "n": 0}, {"scriptPubKey": {"reqSigs": 1, "hex": "76a914e833da06f5a3469e9ed4bed825d29f8dcca563c288ac", "addresses": ["1NAmtDrzfRrixkFtgTaxKdkTW9L7VheGNT"], "asm": "OP_DUP OP_HASH160 e833da06f5a3469e9ed4bed825d29f8dcca563c2 OP_EQUALVERIFY OP_CHECKSIG", "type": "pubkeyhash"}, "value": 0.10713284, "n": 1}], "hex": "0100000001bc79745e71c9e93241436f736d20f86215eb807f09520dc847e81dee93299a30010000006a47304402203a510ccc594d77980a37cd9644924b275136d9795aff78abb9b8e0943f6b73880220600832eea3fc9f35bcba166dcec5e8a316d9cd72747aba4acc89951142b3e03e012102be8aaa59fa45dfaa00eb5a97d98a6d2333cace0695c980eb453848abb06d2155ffffffff02dc2904000000000017a914ce9016bc01eb38d21b6f9ff94eb0eedb0c9df65687c478a300000000001976a914e833da06f5a3469e9ed4bed825d29f8dcca563c288ac00000000", "vin": [{"sequence": 4294967295, "scriptSig": {"hex": "47304402203a510ccc594d77980a37cd9644924b275136d9795aff78abb9b8e0943f6b73880220600832eea3fc9f35bcba166dcec5e8a316d9cd72747aba4acc89951142b3e03e012102be8aaa59fa45dfaa00eb5a97d98a6d2333cace0695c980eb453848abb06d2155", "asm": "304402203a510ccc594d77980a37cd9644924b275136d9795aff78abb9b8e0943f6b73880220600832eea3fc9f35bcba166dcec5e8a316d9cd72747aba4acc89951142b3e03e[ALL] 02be8aaa59fa45dfaa00eb5a97d98a6d2333cace0695c980eb453848abb06d2155"}, "vout": 1, "txid": "309a2993ee1de847c80d52097f80eb1562f8206d736f434132e9c9715e7479bc"}], "txid": "8ac56685aadec5e2fee3840228cccfadaf181669b0ce3d7eebc8863e9bd5713c", "blocktime": 1537870928, "version": 1, "confirmations": 11512, "time": 1537870928, "locktime": 0, "vsize": 223, "size": 223}