{"hash": "8aca0006c1e9b9bc2766a0ec31f536fd32d7ed4ac31f043f306777a0269c1437", "blockhash": "00000000000000000004ffacab907a6b429b9a5745fa0b75af4234bf69dd7176", "vout": [{"scriptPubKey": {"reqSigs": 1, "hex": "76a914d243e6abb9a60fbff430b421d2df4b7d59ec186088ac", "addresses": ["1LAnF8h3qMGx3TSwNUHVneBZUEpwE4gu3D"], "asm": "OP_DUP OP_HASH160 d243e6abb9a60fbff430b421d2df4b7d59ec1860 OP_EQUALVERIFY OP_CHECKSIG", "type": "pubkeyhash"}, "value": 0.00077314, "n": 0}, {"scriptPubKey": {"reqSigs": 1, "hex": "a914e0a2c0a2ccc4b790e2b5f63ede133329a6e781ef87", "addresses": ["3NAnFkimVHGFh1m87c8fzErtPsR68J3shp"], "asm": "OP_HASH160 e0a2c0a2ccc4b790e2b5f63ede133329a6e781ef OP_EQUAL", "type": "scripthash"}, "value": 5.46e-06, "n": 1}, {"scriptPubKey": {"type": "nulldata", "hex": "6a146f6d6e69000000000000001f000000780631c300", "asm": "OP_RETURN 6f6d6e69000000000000001f000000780631c300"}, "value": 0.0, "n": 2}], "hex": "0100000001a9e74ee6ce8aeae9d54ef02d9ce3cc891ff0f7a1fc3962eb960fb52213f92893000000006a47304402207a6426e5eeb0501293884ff59083222450e7fb3be8d6716bdf1ab7ede124df2702201ab547a3458e772fd2275ee4fe42fa11d76dc500d458db0820a5db7b59647d8601210271977291b74f1f5f5c42157e8aae804664eaaeccfd097918450d37f28fb94d77ffffffff03022e0100000000001976a914d243e6abb9a60fbff430b421d2df4b7d59ec186088ac220200000000000017a914e0a2c0a2ccc4b790e2b5f63ede133329a6e781ef870000000000000000166a146f6d6e69000000000000001f000000780631c30000000000", "vin": [{"sequence": 4294967295, "scriptSig": {"hex": "47304402207a6426e5eeb0501293884ff59083222450e7fb3be8d6716bdf1ab7ede124df2702201ab547a3458e772fd2275ee4fe42fa11d76dc500d458db0820a5db7b59647d8601210271977291b74f1f5f5c42157e8aae804664eaaeccfd097918450d37f28fb94d77", "asm": "304402207a6426e5eeb0501293884ff59083222450e7fb3be8d6716bdf1ab7ede124df2702201ab547a3458e772fd2275ee4fe42fa11d76dc500d458db0820a5db7b59647d86[ALL] 0271977291b74f1f5f5c42157e8aae804664eaaeccfd097918450d37f28fb94d77"}, "vout": 0, "txid": "9328f91322b50f96eb6239fca1f7f01f89cce39c2df04ed5e9ea8acee64ee7a9"}], "txid": "8aca0006c1e9b9bc2766a0ec31f536fd32d7ed4ac31f043f306777a0269c1437", "blocktime": 1537875543, "version": 1, "confirmations": 11464, "time": 1537875543, "locktime": 0, "vsize": 254, "size": 254}