{"hash": "8acbfa9f8d34ca0c5fd041363b296204a4c57e3670b0d2e808896452543a64f4", "blockhash": "0000000000000000001f76057863aec43deb6fa401d9628bb513d65a8098bfab", "vout": [{"scriptPubKey": {"reqSigs": 1, "hex": "a91437f1074db3dd6a2db30b1faa32b81a51c637548587", "addresses": ["36noq3sGj4QTXsRCBAaF4mFwqNbaRk4cG8"], "asm": "OP_HASH160 37f1074db3dd6a2db30b1faa32b81a51c6375485 OP_EQUAL", "type": "scripthash"}, "value": 0.03645213, "n": 0}, {"scriptPubKey": {"reqSigs": 1, "hex": "76a914de2324f7b07a7eca80af1e65f4600461c8d1d6cd88ac", "addresses": ["1MFZ7TpTPrquwqbsL3kMw3KBdTxTQBPzY1"], "asm": "OP_DUP OP_HASH160 de2324f7b07a7eca80af1e65f4600461c8d1d6cd OP_EQUALVERIFY OP_CHECKSIG", "type": "pubkeyhash"}, "value": 0.00153598, "n": 1}], "hex": "01000000016685360a5e7e277d477b85f4f073fe9a570fd18db4748ae0438ff5bd6970b77800000000da00473044022037afc6da7837bed35c8a866694b3addd5c63280758ca21b9e83c143255b05ca602206e36ae1e9cb262653a6acb9c95a1431d8ea83a7dc543dc5804166c00eb35255401483045022100f1a32322eebc49a9f9163d5de63fc4f0a6ed4777482556336e20b61d635fad0302205f6829bd900f4f6a9fd62b89bb294e02a620d8cf863c3b554db0824ba7db12640147522102907a54bed8ad74b3f35638c60114ca240a308cb986f3f2f306178869a8880b61210345734e716e32f94bf841ab999efcfdfeaaa118aa9e486de523651ac6479e8d3052aeffffffff021d9f37000000000017a91437f1074db3dd6a2db30b1faa32b81a51c637548587fe570200000000001976a914de2324f7b07a7eca80af1e65f4600461c8d1d6cd88ac00000000", "vin": [{"sequence": 4294967295, "scriptSig": {"hex": "00473044022037afc6da7837bed35c8a866694b3addd5c63280758ca21b9e83c143255b05ca602206e36ae1e9cb262653a6acb9c95a1431d8ea83a7dc543dc5804166c00eb35255401483045022100f1a32322eebc49a9f9163d5de63fc4f0a6ed4777482556336e20b61d635fad0302205f6829bd900f4f6a9fd62b89bb294e02a620d8cf863c3b554db0824ba7db12640147522102907a54bed8ad74b3f35638c60114ca240a308cb986f3f2f306178869a8880b61210345734e716e32f94bf841ab999efcfdfeaaa118aa9e486de523651ac6479e8d3052ae", "asm": "0 3044022037afc6da7837bed35c8a866694b3addd5c63280758ca21b9e83c143255b05ca602206e36ae1e9cb262653a6acb9c95a1431d8ea83a7dc543dc5804166c00eb352554[ALL] 3045022100f1a32322eebc49a9f9163d5de63fc4f0a6ed4777482556336e20b61d635fad0302205f6829bd900f4f6a9fd62b89bb294e02a620d8cf863c3b554db0824ba7db1264[ALL] 522102907a54bed8ad74b3f35638c60114ca240a308cb986f3f2f306178869a8880b61210345734e716e32f94bf841ab999efcfdfeaaa118aa9e486de523651ac6479e8d3052ae"}, "vout": 0, "txid": "78b77069bdf58f43e08a74b48dd10f579afe73f0f4857b477d277e5e0a368566"}], "txid": "8acbfa9f8d34ca0c5fd041363b296204a4c57e3670b0d2e808896452543a64f4", "blocktime": 1537873891, "version": 1, "confirmations": 11478, "time": 1537873891, "locktime": 0, "vsize": 335, "size": 335}