{"hash": "b89f2a77888a497364d1c097afb50a87e79d03b100d055cb46dc96fa7508819d", "blockhash": "0000000000000000001f0ddff1eddb255c1121bcd4da4f1bc9a0da00cae72433", "vout": [{"scriptPubKey": {"reqSigs": 1, "hex": "a914d5398525d2e244b1db3303f251a80bdd82d2f59287", "addresses": ["3M8SkyG83YFMQRYZBNC6T4J2w55JhKF38B"], "asm": "OP_HASH160 d5398525d2e244b1db3303f251a80bdd82d2f592 OP_EQUAL", "type": "scripthash"}, "value": 0.00999654, "n": 0}, {"scriptPubKey": {"reqSigs": 1, "hex": "76a914574354c720cf3b720c8ee30cecbe6314e249170388ac", "addresses": ["18xQSwYqZXJWWQqE3kvgivPfAJyxZBJ5d3"], "asm": "OP_DUP OP_HASH160 574354c720cf3b720c8ee30cecbe6314e2491703 OP_EQUALVERIFY OP_CHECKSIG", "type": "pubkeyhash"}, "value": 0.0103546, "n": 1}], "hex": "020000000001024ceeb5d67e6442e837b7377cad1291645534f45d680c9d8ccab889b72c796b2401000000171600143e57170228671fe29b15719ad8a4909d6e603ce5feffffff9a13ac53fa3835c593995b9ba665af297bf8d5fd627470b02c3a19764b557a0b0100000017160014afdfdb8c5cf170520909b1b0a8c625b976b75a6efeffffff02e6400f000000000017a914d5398525d2e244b1db3303f251a80bdd82d2f59287c4cc0f00000000001976a914574354c720cf3b720c8ee30cecbe6314e249170388ac02473044022029bd7d1e3de52c943dd995458bfb3c7fbbf914e8d0a36a8e2685e7015551a39f0220354767a3e0b7f8cda924a32cdfaf95f21607a856e05402fbb3ded02fbb40de750121024907af33496c40ca0adf10096bc6792681677d6ef12188fc7782467e3231087402483045022100d14b2947b09136363cc843c6fc06c8442082faabbd65336695a229b8c3091a5b022041207720f7a7a23bfd0bb2bc39b68b281aaa066397551271d4d56badd03244700121024cd034d8ce5c81008905fe8ec6960cb4c22d691a005c94eac40a3a1a49a011a6d6480800", "vin": [{"txinwitness": ["3044022029bd7d1e3de52c943dd995458bfb3c7fbbf914e8d0a36a8e2685e7015551a39f0220354767a3e0b7f8cda924a32cdfaf95f21607a856e05402fbb3ded02fbb40de7501", "024907af33496c40ca0adf10096bc6792681677d6ef12188fc7782467e32310874"], "sequence": 4294967294, "scriptSig": {"hex": "1600143e57170228671fe29b15719ad8a4909d6e603ce5", "asm": "00143e57170228671fe29b15719ad8a4909d6e603ce5"}, "vout": 1, "txid": "246b792cb789b8ca8c9d0c685df43455649112ad7c37b737e842647ed6b5ee4c"}, {"txinwitness": ["3045022100d14b2947b09136363cc843c6fc06c8442082faabbd65336695a229b8c3091a5b022041207720f7a7a23bfd0bb2bc39b68b281aaa066397551271d4d56badd032447001", "024cd034d8ce5c81008905fe8ec6960cb4c22d691a005c94eac40a3a1a49a011a6"], "sequence": 4294967294, "scriptSig": {"hex": "160014afdfdb8c5cf170520909b1b0a8c625b976b75a6e", "asm": "0014afdfdb8c5cf170520909b1b0a8c625b976b75a6e"}, "vout": 1, "txid": "0b7a554b76193a2cb0707462fdd5f87b29af65a69b5b9993c53538fa53ac139a"}], "txid": "8ad2301a1e2a2701082a840404045212d284951414e3581427b7aee7697db6f4", "blocktime": 1537872018, "version": 2, "confirmations": 11489, "time": 1537872018, "locktime": 542934, "vsize": 259, "size": 421}