{"hash": "8ad3359c6421d1f7b69465045d817bf3c5a4554adc65faf31ac62240fa85bee7", "blockhash": "0000000000000000001cda96e906b7601b7a6fb1a3b62bca570a9e5d8f4b3de1", "vout": [{"scriptPubKey": {"type": "nulldata", "hex": "6a146f6d6e69000000000000001f000002ba6a43c980", "asm": "OP_RETURN 6f6d6e69000000000000001f000002ba6a43c980"}, "value": 0.0, "n": 0}, {"scriptPubKey": {"reqSigs": 1, "hex": "76a91413a8c5c5786d5db87e80bd99b9ff14f9d70d52bd88ac", "addresses": ["12nx2Afvcgx4yv5hKxGkUY7J4FGTCJG1Gn"], "asm": "OP_DUP OP_HASH160 13a8c5c5786d5db87e80bd99b9ff14f9d70d52bd OP_EQUALVERIFY OP_CHECKSIG", "type": "pubkeyhash"}, "value": 0.0074811, "n": 1}, {"scriptPubKey": {"reqSigs": 1, "hex": "76a914cb71a5b80cfc05f2920248186c8d6a4a8f49ee8e88ac", "addresses": ["1KYiKJEfdJtap9QX2v9BXJMpz2SfU4pgZw"], "asm": "OP_DUP OP_HASH160 cb71a5b80cfc05f2920248186c8d6a4a8f49ee8e OP_EQUALVERIFY OP_CHECKSIG", "type": "pubkeyhash"}, "value": 5.46e-06, "n": 2}], "hex": "01000000019701c2f56d45e65e0c91e4d82e8f02024a6c99961709336d967a54a35e23cbac000000006a473044022038f3ccd884cc0c879a62842e96d45bd38bc7f288ce5619c7c255bf123e0c18bb022044a5b833000cc17bc48a47ccf65a67389e9c2cd25fd5b3c2730ee32a44d283f2012102d69711c16dca8a5faa030e6d1b0750e24651652d6c431ef641f2885db04847a1feffffff030000000000000000166a146f6d6e69000000000000001f000002ba6a43c9804e6a0b00000000001976a91413a8c5c5786d5db87e80bd99b9ff14f9d70d52bd88ac22020000000000001976a914cb71a5b80cfc05f2920248186c8d6a4a8f49ee8e88ac13490800", "vin": [{"sequence": 4294967294, "scriptSig": {"hex": "473044022038f3ccd884cc0c879a62842e96d45bd38bc7f288ce5619c7c255bf123e0c18bb022044a5b833000cc17bc48a47ccf65a67389e9c2cd25fd5b3c2730ee32a44d283f2012102d69711c16dca8a5faa030e6d1b0750e24651652d6c431ef641f2885db04847a1", "asm": "3044022038f3ccd884cc0c879a62842e96d45bd38bc7f288ce5619c7c255bf123e0c18bb022044a5b833000cc17bc48a47ccf65a67389e9c2cd25fd5b3c2730ee32a44d283f2[ALL] 02d69711c16dca8a5faa030e6d1b0750e24651652d6c431ef641f2885db04847a1"}, "vout": 0, "txid": "accb235ea3547a966d33091796996c4a02028f2ed8e4910c5ee6456df5c20197"}], "txid": "8ad3359c6421d1f7b69465045d817bf3c5a4554adc65faf31ac62240fa85bee7", "blocktime": 1537873282, "version": 1, "confirmations": 11480, "time": 1537873282, "locktime": 542995, "vsize": 256, "size": 256}