{"hash": "dedfac0dd9a072943e345df8f449e13b4854c08dfaa61abcaa97a2a8ce0b14f9", "blockhash": "0000000000000000001cda96e906b7601b7a6fb1a3b62bca570a9e5d8f4b3de1", "vout": [{"scriptPubKey": {"reqSigs": 1, "hex": "a9142afb7c8684a7137d6fe2de8c78d05fd0a8c4743b87", "addresses": ["35cHaBd4zmGqk2Y1epaLVMc4WHCCwtHXwZ"], "asm": "OP_HASH160 2afb7c8684a7137d6fe2de8c78d05fd0a8c4743b OP_EQUAL", "type": "scripthash"}, "value": 0.02543061, "n": 0}, {"scriptPubKey": {"reqSigs": 1, "hex": "0014b831a79343d981d91f9acb6432b0a935a720119a", "addresses": ["bc1qhqc60y6rmxqaj8u6edjr9v9fxknjqyv6qakrm3"], "asm": "0 b831a79343d981d91f9acb6432b0a935a720119a", "type": "witness_v0_keyhash"}, "value": 0.00038698, "n": 1}], "hex": "010000000001013b2d01f52cbd147ef3ab858cddec8c69914c2588a2987b9f46f04b46032172bf01000000171600140b3b7945572e2bd18e4a2a0123d072adc8158588ffffffff02d5cd26000000000017a9142afb7c8684a7137d6fe2de8c78d05fd0a8c4743b872a97000000000000160014b831a79343d981d91f9acb6432b0a935a720119a0247304402203a55236abda009d267da8d403bdbbec6eb8af23c77d6e265bc6a59b31264f36e022028178017695c189347e92812475ecf3561ef24b7384c86c6f2a947a29945fdd40121031fde2a73dc2e0b8cff62e40a3a650bccc88f5bbec7c7806f616de070a71be7ce00000000", "vin": [{"txinwitness": ["304402203a55236abda009d267da8d403bdbbec6eb8af23c77d6e265bc6a59b31264f36e022028178017695c189347e92812475ecf3561ef24b7384c86c6f2a947a29945fdd401", "031fde2a73dc2e0b8cff62e40a3a650bccc88f5bbec7c7806f616de070a71be7ce"], "sequence": 4294967295, "scriptSig": {"hex": "1600140b3b7945572e2bd18e4a2a0123d072adc8158588", "asm": "00140b3b7945572e2bd18e4a2a0123d072adc8158588"}, "vout": 1, "txid": "bf722103464bf0469f7b98a288254c91698cecdd8c85abf37e14bd2cf5012d3b"}], "txid": "8ade5fa7708303a54c30af0e182a4ca847219ca998e8531619f0994b7d665064", "blocktime": 1537873282, "version": 1, "confirmations": 11484, "time": 1537873282, "locktime": 0, "vsize": 165, "size": 246}