{"hash": "8adffc1e778fa30cad3bd59b058978d46d4c26227ac31702225ac87495ab1a75", "blockhash": "0000000000000000001f76057863aec43deb6fa401d9628bb513d65a8098bfab", "vout": [{"scriptPubKey": {"reqSigs": 1, "hex": "76a914c2b346ec4cbbd9d796bac6b7f7986dd077af99a888ac", "addresses": ["1JkUrbwbCDT727ekVchzHoHuJdTTKHnG5y"], "asm": "OP_DUP OP_HASH160 c2b346ec4cbbd9d796bac6b7f7986dd077af99a8 OP_EQUALVERIFY OP_CHECKSIG", "type": "pubkeyhash"}, "value": 0.02809356, "n": 0}, {"scriptPubKey": {"reqSigs": 1, "hex": "76a9142a9d7aa32634cb13926688bf21a40462326d3e0488ac", "addresses": ["14tL2toq6t2YjoFF6uMQMPfJ3DuUDLpnh8"], "asm": "OP_DUP OP_HASH160 2a9d7aa32634cb13926688bf21a40462326d3e04 OP_EQUALVERIFY OP_CHECKSIG", "type": "pubkeyhash"}, "value": 0.00488168, "n": 1}, {"scriptPubKey": {"reqSigs": 1, "hex": "76a9144151afb8a54ca31a5c3383176e1d0a9cb47d9e1788ac", "addresses": ["16xNn9955EJ7CRrBAdgRkhEH323oC4uSdx"], "asm": "OP_DUP OP_HASH160 4151afb8a54ca31a5c3383176e1d0a9cb47d9e17 OP_EQUALVERIFY OP_CHECKSIG", "type": "pubkeyhash"}, "value": 8.842e-05, "n": 2}], "hex": "01000000027d45c336ced007e89cfc2a6b3910399279693f08c61d7c73a050df7e91744e0c000000006b483045022100c961f3bffb7715929140406e4823a5fafc76715c378c83c77129d0349db9ea1902204e75d55a07b820262c50503b1c81a5f36cc3eefa96e271cdb65920a892bd308c012103d0e13b2a16c12149242576232bea5f8063f2f3c6ccbf7d55405b01cce4ec3adaffffffff9d586b77bb3cbdcb697d64ceee43b3384fc96b0b13f0fdb5ccd0fa8f25939a39010000006a473044022007c215d6537f26fae845e91009cc57d4bd552713ead6b86b20cc8097644cfacc02204aaffeaf32e7208d052c7fbb32888124b150749de0202e5a3a681a52bfc73e5f012103741c7bae995bd184596153b643f268409401b0c79abc07b173214983f70ae87dffffffff030cde2a00000000001976a914c2b346ec4cbbd9d796bac6b7f7986dd077af99a888ace8720700000000001976a9142a9d7aa32634cb13926688bf21a40462326d3e0488ac8a220000000000001976a9144151afb8a54ca31a5c3383176e1d0a9cb47d9e1788ac00000000", "vin": [{"sequence": 4294967295, "scriptSig": {"hex": "483045022100c961f3bffb7715929140406e4823a5fafc76715c378c83c77129d0349db9ea1902204e75d55a07b820262c50503b1c81a5f36cc3eefa96e271cdb65920a892bd308c012103d0e13b2a16c12149242576232bea5f8063f2f3c6ccbf7d55405b01cce4ec3ada", "asm": "3045022100c961f3bffb7715929140406e4823a5fafc76715c378c83c77129d0349db9ea1902204e75d55a07b820262c50503b1c81a5f36cc3eefa96e271cdb65920a892bd308c[ALL] 03d0e13b2a16c12149242576232bea5f8063f2f3c6ccbf7d55405b01cce4ec3ada"}, "vout": 0, "txid": "0c4e74917edf50a0737c1dc6083f6979923910396b2afc9ce807d0ce36c3457d"}, {"sequence": 4294967295, "scriptSig": {"hex": "473044022007c215d6537f26fae845e91009cc57d4bd552713ead6b86b20cc8097644cfacc02204aaffeaf32e7208d052c7fbb32888124b150749de0202e5a3a681a52bfc73e5f012103741c7bae995bd184596153b643f268409401b0c79abc07b173214983f70ae87d", "asm": "3044022007c215d6537f26fae845e91009cc57d4bd552713ead6b86b20cc8097644cfacc02204aaffeaf32e7208d052c7fbb32888124b150749de0202e5a3a681a52bfc73e5f[ALL] 03741c7bae995bd184596153b643f268409401b0c79abc07b173214983f70ae87d"}, "vout": 1, "txid": "399a93258ffad0ccb5fdf0130b6bc94f38b343eece647d69cbbd3cbb776b589d"}], "txid": "8adffc1e778fa30cad3bd59b058978d46d4c26227ac31702225ac87495ab1a75", "blocktime": 1537873891, "version": 1, "confirmations": 11478, "time": 1537873891, "locktime": 0, "vsize": 407, "size": 407}