{"hash": "8ae3e1342b58509848b88ff6f13e96a7ac465725a237cbbe8fdb1e755e8dc0e7", "blockhash": "00000000000000000018f53835495a110e01622372bf6ae95dc86f2b0ab887b0", "vout": [{"scriptPubKey": {"reqSigs": 1, "hex": "76a91446338e50c4e6f7ac5b0d23ad0f093bb92fbe67da88ac", "addresses": ["17QC4bamptjuDWqaJieia1jTevNgEcSSd3"], "asm": "OP_DUP OP_HASH160 46338e50c4e6f7ac5b0d23ad0f093bb92fbe67da OP_EQUALVERIFY OP_CHECKSIG", "type": "pubkeyhash"}, "value": 0.00022825, "n": 0}, {"scriptPubKey": {"reqSigs": 1, "hex": "76a9142a14acb99b6c55a8c6d25f9fca850b38ad8913d288ac", "addresses": ["14qW9ZXEtw6y4i6Qg5ofYZ8V6SbbqaQivJ"], "asm": "OP_DUP OP_HASH160 2a14acb99b6c55a8c6d25f9fca850b38ad8913d2 OP_EQUALVERIFY OP_CHECKSIG", "type": "pubkeyhash"}, "value": 0.04217418, "n": 1}], "hex": "01000000010fb866fb6d245ed2af085c91b70500b3faaff1402ed82a7696b08ea50c1e9343090000006b483045022100a11715f24ec9d19f4d115c8bfb234b8916b06128dca9057f9c57ec93816fbc4402204b95ba6ab9c9f0db3a0e108b910239f96eb2c0f6db34cfee181e0a253e2d97f0012102ce179bf519804de20e9f1478ceebdab8da173f3f7441f3846ecd6147f77181fbffffffff0229590000000000001976a91446338e50c4e6f7ac5b0d23ad0f093bb92fbe67da88ac4a5a4000000000001976a9142a14acb99b6c55a8c6d25f9fca850b38ad8913d288ac00000000", "vin": [{"sequence": 4294967295, "scriptSig": {"hex": "483045022100a11715f24ec9d19f4d115c8bfb234b8916b06128dca9057f9c57ec93816fbc4402204b95ba6ab9c9f0db3a0e108b910239f96eb2c0f6db34cfee181e0a253e2d97f0012102ce179bf519804de20e9f1478ceebdab8da173f3f7441f3846ecd6147f77181fb", "asm": "3045022100a11715f24ec9d19f4d115c8bfb234b8916b06128dca9057f9c57ec93816fbc4402204b95ba6ab9c9f0db3a0e108b910239f96eb2c0f6db34cfee181e0a253e2d97f0[ALL] 02ce179bf519804de20e9f1478ceebdab8da173f3f7441f3846ecd6147f77181fb"}, "vout": 9, "txid": "43931e0ca58eb096762ad82e40f1affab30005b7915c08afd25e246dfb66b80f"}], "txid": "8ae3e1342b58509848b88ff6f13e96a7ac465725a237cbbe8fdb1e755e8dc0e7", "blocktime": 1537870928, "version": 1, "confirmations": 11514, "time": 1537870928, "locktime": 0, "vsize": 226, "size": 226}