{"hash": "41657411f9f1962cf9db315bc04ea9299d7e9391d120ad42a27aa661b1e9bcfb", "blockhash": "0000000000000000000e13cef7c366c0283d82e591d1acd082e914b08063cdf1", "vout": [{"scriptPubKey": {"reqSigs": 1, "hex": "0014c6dab79d2a094fc4cb46627b3c66bff04020829f", "addresses": ["bc1qcmdt08f2p98ufj6xvfance4l7pqzpq5lclg07l"], "asm": "0 c6dab79d2a094fc4cb46627b3c66bff04020829f", "type": "witness_v0_keyhash"}, "value": 0.00599804, "n": 0}], "hex": "02000000000101b6efa4c691c5ea9990a715d1b4bf0af265b10235fff62e3a311753abe751d9b10000000000ffffffff01fc26090000000000160014c6dab79d2a094fc4cb46627b3c66bff04020829f040047304402207a2ecc54520ca65ad79e09a4801fb2dcad6195e9ae4783be09f501e8a777d7f302200f45b0092bbc8b4409c6b5573ec1edb8782a120a711297ad0188483b4e9890e201483045022100cf810db7615aac688adb6eddb2515bcb0056983fb3e1a0d589a58f3b90fb41b90220589909ac5b385a3ff5919983268b024d2dd2a2c82031274ace7b46af22fcd8ad0147522102ff1d53258b2f6d8a99cf32058eb6036151b3331398ee64b359cb72752edbaf7c2103e26025a586c695ae0806e0dd12385645abfd152f972f07012667afefd037610e52ae00000000", "vin": [{"txinwitness": ["", "304402207a2ecc54520ca65ad79e09a4801fb2dcad6195e9ae4783be09f501e8a777d7f302200f45b0092bbc8b4409c6b5573ec1edb8782a120a711297ad0188483b4e9890e201", "3045022100cf810db7615aac688adb6eddb2515bcb0056983fb3e1a0d589a58f3b90fb41b90220589909ac5b385a3ff5919983268b024d2dd2a2c82031274ace7b46af22fcd8ad01", "522102ff1d53258b2f6d8a99cf32058eb6036151b3331398ee64b359cb72752edbaf7c2103e26025a586c695ae0806e0dd12385645abfd152f972f07012667afefd037610e52ae"], "sequence": 4294967295, "scriptSig": {"hex": "", "asm": ""}, "vout": 0, "txid": "b1d951e7ab5317313a2ef6ff3502b165f20abfb4d115a79099eac591c6a4efb6"}], "txid": "8ae63497e231e2091d2d0417218f1a659c28c74a0745c768014922c96cf187c2", "blocktime": 1537871767, "version": 2, "confirmations": 11495, "time": 1537871767, "locktime": 0, "vsize": 138, "size": 303}