{"hash": "8e14dcac90718553fc376f299e8e304e247ced6631b9c90f796026111b9622a1", "blockhash": "00000000000000000004ffacab907a6b429b9a5745fa0b75af4234bf69dd7176", "vout": [{"scriptPubKey": {"reqSigs": 1, "hex": "a91413902fa490ec2a4b7e04bfcd6670f31fd520d2b787", "addresses": ["33UTVR1PoR8HavPWz55HauQeaevLKphjt8"], "asm": "OP_HASH160 13902fa490ec2a4b7e04bfcd6670f31fd520d2b7 OP_EQUAL", "type": "scripthash"}, "value": 0.151, "n": 0}, {"scriptPubKey": {"reqSigs": 1, "hex": "a9143855519d015ffc2200eec2fe39dcdb707f38afb787", "addresses": ["36psyLhqm1GFytCRjP8h7syyFCCQKdyGcn"], "asm": "OP_HASH160 3855519d015ffc2200eec2fe39dcdb707f38afb7 OP_EQUAL", "type": "scripthash"}, "value": 0.22446363, "n": 1}], "hex": "020000000001017d624c38be29a660819d473117e4ac52fb3968621f5bc518816ab1e77b3d1ad301000000171600144b3a5dd1d39a19f429b8b1def52f0faf42b38598feffffff026068e6000000000017a91413902fa490ec2a4b7e04bfcd6670f31fd520d2b7871b8156010000000017a9143855519d015ffc2200eec2fe39dcdb707f38afb7870247304402201c1ee23f10ddb6fc468be33a0fffde70979547ddfbfd492a5e62c6f3285a2bf902202b23092f6fd9ceb11a52962cef9b2618775bda407e6a87650ce31f04d51a28df01210260820271257cd70a832d3c3206771672671f3a6add242946d5ddf61100efb1fe16490800", "vin": [{"txinwitness": ["304402201c1ee23f10ddb6fc468be33a0fffde70979547ddfbfd492a5e62c6f3285a2bf902202b23092f6fd9ceb11a52962cef9b2618775bda407e6a87650ce31f04d51a28df01", "0260820271257cd70a832d3c3206771672671f3a6add242946d5ddf61100efb1fe"], "sequence": 4294967294, "scriptSig": {"hex": "1600144b3a5dd1d39a19f429b8b1def52f0faf42b38598", "asm": "00144b3a5dd1d39a19f429b8b1def52f0faf42b38598"}, "vout": 1, "txid": "d31a3d7be7b16a8118c55b1f626839fb52ace41731479d8160a629be384c627d"}], "txid": "8ae6f3a86fe79f3c1269e27c3b0d9ebcb4c31aa84a327d38249e161572504362", "blocktime": 1537875543, "version": 2, "confirmations": 11464, "time": 1537875543, "locktime": 542998, "vsize": 166, "size": 247}