{"hash": "8ae7a8348ceec056e8e837c503f3e1b016bbae1d8a17b8f8915d6b84e7cc8f17", "blockhash": "00000000000000000017f5eb5941039fbcee6240d03bc1f2f8e35350df66a1d8", "vout": [{"scriptPubKey": {"type": "nulldata", "hex": "6a4c50000077f20001596859dfde0f563f482be460d19ed074892d00f8e87af8e8e963c7cfd5b93b2237ed0cfe80dc76cc27ea3ab239d65baa1846061386fb9eb5023f1d100759d4ba30d2c37bb011d97e02cf", "asm": "OP_RETURN 000077f20001596859dfde0f563f482be460d19ed074892d00f8e87af8e8e963c7cfd5b93b2237ed0cfe80dc76cc27ea3ab239d65baa1846061386fb9eb5023f1d100759d4ba30d2c37bb011d97e02cf"}, "value": 0.0, "n": 0}, {"scriptPubKey": {"reqSigs": 1, "hex": "76a9144a6d1df606ef9b610741128025272e8e4d02424788ac", "addresses": ["17nXinErNkPWBZKNnyczFoFshY5AH7Post"], "asm": "OP_DUP OP_HASH160 4a6d1df606ef9b610741128025272e8e4d024247 OP_EQUALVERIFY OP_CHECKSIG", "type": "pubkeyhash"}, "value": 0.00640145, "n": 1}], "hex": "0100000001e152eadad909837fe0636e4c305abe90b5dde81b2aac2815f197c75a656784b9000000006b483045022100acc5aebc010aec8174e4d5527a172123ea1af6bf1132663c6685a4217dc41f3d022021429bc1b3bbe2d99a129f769dc66ac4535e8007b062a59780a31c20241c635701210362aa67fda359fb33e710ed8f74a903e7a4a16b98ca72c46ebdd207cc89c6f8cbffffffff020000000000000000536a4c50000077f20001596859dfde0f563f482be460d19ed074892d00f8e87af8e8e963c7cfd5b93b2237ed0cfe80dc76cc27ea3ab239d65baa1846061386fb9eb5023f1d100759d4ba30d2c37bb011d97e02cf91c40900000000001976a9144a6d1df606ef9b610741128025272e8e4d02424788ac00000000", "vin": [{"sequence": 4294967295, "scriptSig": {"hex": "483045022100acc5aebc010aec8174e4d5527a172123ea1af6bf1132663c6685a4217dc41f3d022021429bc1b3bbe2d99a129f769dc66ac4535e8007b062a59780a31c20241c635701210362aa67fda359fb33e710ed8f74a903e7a4a16b98ca72c46ebdd207cc89c6f8cb", "asm": "3045022100acc5aebc010aec8174e4d5527a172123ea1af6bf1132663c6685a4217dc41f3d022021429bc1b3bbe2d99a129f769dc66ac4535e8007b062a59780a31c20241c6357[ALL] 0362aa67fda359fb33e710ed8f74a903e7a4a16b98ca72c46ebdd207cc89c6f8cb"}, "vout": 0, "txid": "b98467655ac797f11528ac2a1be8ddb590be5a304c6e63e07f8309d9daea52e1"}], "txid": "8ae7a8348ceec056e8e837c503f3e1b016bbae1d8a17b8f8915d6b84e7cc8f17", "blocktime": 1537874412, "version": 1, "confirmations": 11467, "time": 1537874412, "locktime": 0, "vsize": 284, "size": 284}