{"hash": "448b12bc7d37d8d339932da6f3f3a34dd499cf0cfc19bbc4642ed0945b16d5f0", "blockhash": "0000000000000000000e13cef7c366c0283d82e591d1acd082e914b08063cdf1", "vout": [{"scriptPubKey": {"reqSigs": 1, "hex": "a9140c8a010d2d91cb96569a7a0faeb1f548a2c4e7c187", "addresses": ["32qKMYE7WdDMrLcjpfF3FrDr39rsC6KRXM"], "asm": "OP_HASH160 0c8a010d2d91cb96569a7a0faeb1f548a2c4e7c1 OP_EQUAL", "type": "scripthash"}, "value": 0.015189, "n": 0}, {"scriptPubKey": {"reqSigs": 1, "hex": "001447517028fb117130268c0661137f0438b310f327", "addresses": ["bc1qgaghq28mz9cnqf5vqes3xlcy8ze3pue85x3f6k"], "asm": "0 47517028fb117130268c0661137f0438b310f327", "type": "witness_v0_keyhash"}, "value": 1.46411336, "n": 1}], "hex": "010000000001010cafe1548086b88704411f8281202fabc5cdb26f9ef184359e2d7fd627aca1d7000000001716001427cfc711b156f7731c2a087159cba4b99ecc9994ffffffff02342d17000000000017a9140c8a010d2d91cb96569a7a0faeb1f548a2c4e7c187480fba080000000016001447517028fb117130268c0661137f0438b310f327024630430220125ec36c2cf3df4ecf564a23ebae3d08ee7cf899d2fcbe889a8f557c67ef77ef021f4e35f12c80e683cf2562fbcdfce2f8a97791bad45424964c0db9a8d35d95ba01210362f83e261de3de6e9e43f731c33c6630d782ce29b75a98fd084f7abb165fccd600000000", "vin": [{"txinwitness": ["30430220125ec36c2cf3df4ecf564a23ebae3d08ee7cf899d2fcbe889a8f557c67ef77ef021f4e35f12c80e683cf2562fbcdfce2f8a97791bad45424964c0db9a8d35d95ba01", "0362f83e261de3de6e9e43f731c33c6630d782ce29b75a98fd084f7abb165fccd6"], "sequence": 4294967295, "scriptSig": {"hex": "16001427cfc711b156f7731c2a087159cba4b99ecc9994", "asm": "001427cfc711b156f7731c2a087159cba4b99ecc9994"}, "vout": 0, "txid": "d7a1ac27d67f2d9e3584f19e6fb2cdc5ab2f2081821f410487b8868054e1af0c"}], "txid": "8ae83b8cec2f08e57a49c0d8ac922c77b1df992565d1cc55e942018894dedde4", "blocktime": 1537871767, "version": 1, "confirmations": 11495, "time": 1537871767, "locktime": 0, "vsize": 164, "size": 245}