{"hash": "b3831d22f34dc76fe3feeb6d151b42da2c767d55e79788bdab9db5ccad21d4f5", "blockhash": "000000000000000000022b45ed06c6f4ccd3cf7fb5ba4856ebd2e58215665228", "vout": [{"scriptPubKey": {"reqSigs": 1, "hex": "a914907d617c05fd2bc4a2bdb91a947bcaa7e90b105587", "addresses": ["3Es1Rn5HXGwib371oTNBuaEKczWETqYech"], "asm": "OP_HASH160 907d617c05fd2bc4a2bdb91a947bcaa7e90b1055 OP_EQUAL", "type": "scripthash"}, "value": 0.01000048, "n": 0}, {"scriptPubKey": {"reqSigs": 1, "hex": "76a9148d3ea1a917d300e0b527fa1e7ad4fc2222d9f33288ac", "addresses": ["1DsqJm5puCeVDWDfNDptpGHkVQrtG5a3aQ"], "asm": "OP_DUP OP_HASH160 8d3ea1a917d300e0b527fa1e7ad4fc2222d9f332 OP_EQUALVERIFY OP_CHECKSIG", "type": "pubkeyhash"}, "value": 0.0031796, "n": 1}], "hex": "0200000000010215379073ceb52145801c4831d4cacd02a4ac6431f90f7e74d40cd04c3c0bb61500000000171600146dfbef1097b4fb10bd90d9268c34df24e080a57ffeffffff5a9fa119022fac680fcaff2e807898ee529268eb56b660dff534c35fb83aed96010000001716001406ec6dd37435566da4a1e57942cc991740809d64feffffff0270420f000000000017a914907d617c05fd2bc4a2bdb91a947bcaa7e90b10558708da0400000000001976a9148d3ea1a917d300e0b527fa1e7ad4fc2222d9f33288ac02483045022100eacba08874492857c645c8fe2f2729fb6d3f1ce7abb3faaaedd4d55d3052e910022050fd5d094e277b63fdb4adfd5cab3ac057c5f19ac1b9a032b994e4b907409e6b0121033bc69569fb6dc0aa48e8682cfa888c05e19a7633a0ec8203b41a5a7ebb5c2bd802483045022100c5f653a529403cfdc4a34778be3e750064f55ea3e5db31183a267c5b9b0e7f5102200168b1782ded664841d9af90d75e2d53b790fb66db32a21d941829bebf3314000121034491de37edcdb559e163ac9987e304eee786f364dd33bcf2f0ab1a53f06dcefb0b490800", "vin": [{"txinwitness": ["3045022100eacba08874492857c645c8fe2f2729fb6d3f1ce7abb3faaaedd4d55d3052e910022050fd5d094e277b63fdb4adfd5cab3ac057c5f19ac1b9a032b994e4b907409e6b01", "033bc69569fb6dc0aa48e8682cfa888c05e19a7633a0ec8203b41a5a7ebb5c2bd8"], "sequence": 4294967294, "scriptSig": {"hex": "1600146dfbef1097b4fb10bd90d9268c34df24e080a57f", "asm": "00146dfbef1097b4fb10bd90d9268c34df24e080a57f"}, "vout": 0, "txid": "15b60b3c4cd00cd4747e0ff93164aca402cdcad431481c804521b5ce73903715"}, {"txinwitness": ["3045022100c5f653a529403cfdc4a34778be3e750064f55ea3e5db31183a267c5b9b0e7f5102200168b1782ded664841d9af90d75e2d53b790fb66db32a21d941829bebf33140001", "034491de37edcdb559e163ac9987e304eee786f364dd33bcf2f0ab1a53f06dcefb"], "sequence": 4294967294, "scriptSig": {"hex": "16001406ec6dd37435566da4a1e57942cc991740809d64", "asm": "001406ec6dd37435566da4a1e57942cc991740809d64"}, "vout": 1, "txid": "96ed3ab85fc334f5df60b656eb689252ee9878802effca0f68ac2f0219a19f5a"}], "txid": "8af8307861ed87ae11042b2b1a1b79226e082c5491a9e47282aa5e8a0f75fa04", "blocktime": 1537869901, "version": 2, "confirmations": 11524, "time": 1537869901, "locktime": 542987, "vsize": 259, "size": 422}