{"hash": "8af80e8121af20e0346de5b9ee9b1400806b89234a2c4b719c1cebf8aff3e7dd", "blockhash": "00000000000000000017f5eb5941039fbcee6240d03bc1f2f8e35350df66a1d8", "vout": [{"scriptPubKey": {"reqSigs": 1, "hex": "76a914b2c3cc45329f7cf17206caa99891d6290ed1582588ac", "addresses": ["1HJDqRdBxpiiRr1T86JW1vxca56KBMxPxp"], "asm": "OP_DUP OP_HASH160 b2c3cc45329f7cf17206caa99891d6290ed15825 OP_EQUALVERIFY OP_CHECKSIG", "type": "pubkeyhash"}, "value": 0.008296, "n": 0}, {"scriptPubKey": {"reqSigs": 1, "hex": "76a914d5c9fd11da74a071a1ef9bb70869b067aa58967d88ac", "addresses": ["1LVQuGhPoMmjJrb5uSKYyKdMLqrFNh1nnU"], "asm": "OP_DUP OP_HASH160 d5c9fd11da74a071a1ef9bb70869b067aa58967d OP_EQUALVERIFY OP_CHECKSIG", "type": "pubkeyhash"}, "value": 0.00026098, "n": 1}], "hex": "0100000002368c7e027d4ac5b6ce1fcb25bf66af7f732f740313a1928a64e3b5362d1f0bb8000000006b483045022100dff9423d7dfd3eb222333f267c515e64ff2faa1c1e1b978f9de11ddebd6f271402201ea6bac7d0e6446ac9ab305173c6f8f1cc8c5c9fda4578f716067f72655ac2e001210383569e2c414136a5dadd77efaf35842c7ba2b2a8bbd08717d2e816a4a9d9b7e8ffffffffa041a6c8d64f3d74d1156f7ff954fb4785fbd12526faa70530d6dc44d621ca4d010000006b4830450221009890230bf406b87fc10828d74ad7ba9a2bcc4ca18c732bb5c85edc51dab55fc802207bff5b9a150e69f677202c1258d7058293b491f1fb273b7c10dffd1d69d5728201210206e307e39d4b4e833d484dcde0b5bcaa528aae3b01d442ca7c16add05b839fa5ffffffff02a0a80c00000000001976a914b2c3cc45329f7cf17206caa99891d6290ed1582588acf2650000000000001976a914d5c9fd11da74a071a1ef9bb70869b067aa58967d88ac00000000", "vin": [{"sequence": 4294967295, "scriptSig": {"hex": "483045022100dff9423d7dfd3eb222333f267c515e64ff2faa1c1e1b978f9de11ddebd6f271402201ea6bac7d0e6446ac9ab305173c6f8f1cc8c5c9fda4578f716067f72655ac2e001210383569e2c414136a5dadd77efaf35842c7ba2b2a8bbd08717d2e816a4a9d9b7e8", "asm": "3045022100dff9423d7dfd3eb222333f267c515e64ff2faa1c1e1b978f9de11ddebd6f271402201ea6bac7d0e6446ac9ab305173c6f8f1cc8c5c9fda4578f716067f72655ac2e0[ALL] 0383569e2c414136a5dadd77efaf35842c7ba2b2a8bbd08717d2e816a4a9d9b7e8"}, "vout": 0, "txid": "b80b1f2d36b5e3648a92a11303742f737faf66bf25cb1fceb6c54a7d027e8c36"}, {"sequence": 4294967295, "scriptSig": {"hex": "4830450221009890230bf406b87fc10828d74ad7ba9a2bcc4ca18c732bb5c85edc51dab55fc802207bff5b9a150e69f677202c1258d7058293b491f1fb273b7c10dffd1d69d5728201210206e307e39d4b4e833d484dcde0b5bcaa528aae3b01d442ca7c16add05b839fa5", "asm": "30450221009890230bf406b87fc10828d74ad7ba9a2bcc4ca18c732bb5c85edc51dab55fc802207bff5b9a150e69f677202c1258d7058293b491f1fb273b7c10dffd1d69d57282[ALL] 0206e307e39d4b4e833d484dcde0b5bcaa528aae3b01d442ca7c16add05b839fa5"}, "vout": 1, "txid": "4dca21d644dcd63005a7fa2625d1fb8547fb54f97f6f15d1743d4fd6c8a641a0"}], "txid": "8af80e8121af20e0346de5b9ee9b1400806b89234a2c4b719c1cebf8aff3e7dd", "blocktime": 1537874412, "version": 1, "confirmations": 11468, "time": 1537874412, "locktime": 0, "vsize": 374, "size": 374}