{"hash": "8afb798ced70ba6f14e5a750b6d51ab36aebde08ba679a8f37e8125e6939da90", "blockhash": "0000000000000000001f76057863aec43deb6fa401d9628bb513d65a8098bfab", "vout": [{"scriptPubKey": {"reqSigs": 1, "hex": "76a914bb77ace88a4c6e19bb01680fe6078a04cdb9abd488ac", "addresses": ["1J6Ej4rcjXBqvWmvbd46nXbUpjQoCB4kso"], "asm": "OP_DUP OP_HASH160 bb77ace88a4c6e19bb01680fe6078a04cdb9abd4 OP_EQUALVERIFY OP_CHECKSIG", "type": "pubkeyhash"}, "value": 1.72e-05, "n": 0}], "hex": "0100000001e9ce2c98776f54fd4b8297b247fb5daff35c85647939b281c5896e8abd62b499000000006b483045022100885f47a5ab17243467cf904d37fbee2005864aec8d4f2d60b213acccbcfa34ce02205742911dad484cdd0b15debe1aa5bc6ec437b2ad4aa670276df3dc803c5e3ca0012102cb3b95276d1ab7832a6611dbb07b028f2ddf973bf5f2ce51ce0d1bdb2cdcecc6ffffffff01b8060000000000001976a914bb77ace88a4c6e19bb01680fe6078a04cdb9abd488ac00000000", "vin": [{"sequence": 4294967295, "scriptSig": {"hex": "483045022100885f47a5ab17243467cf904d37fbee2005864aec8d4f2d60b213acccbcfa34ce02205742911dad484cdd0b15debe1aa5bc6ec437b2ad4aa670276df3dc803c5e3ca0012102cb3b95276d1ab7832a6611dbb07b028f2ddf973bf5f2ce51ce0d1bdb2cdcecc6", "asm": "3045022100885f47a5ab17243467cf904d37fbee2005864aec8d4f2d60b213acccbcfa34ce02205742911dad484cdd0b15debe1aa5bc6ec437b2ad4aa670276df3dc803c5e3ca0[ALL] 02cb3b95276d1ab7832a6611dbb07b028f2ddf973bf5f2ce51ce0d1bdb2cdcecc6"}, "vout": 0, "txid": "99b462bd8a6e89c581b2397964855cf3af5dfb47b297824bfd546f77982ccee9"}], "txid": "8afb798ced70ba6f14e5a750b6d51ab36aebde08ba679a8f37e8125e6939da90", "blocktime": 1537873891, "version": 1, "confirmations": 11478, "time": 1537873891, "locktime": 0, "vsize": 192, "size": 192}