{"hash": "d86b18307423ba18ceb1d1149127bb1a71657674b902c4c4fa83f5dd2215bb1b", "blockhash": "00000000000000000018f53835495a110e01622372bf6ae95dc86f2b0ab887b0", "vout": [{"scriptPubKey": {"reqSigs": 1, "hex": "76a914bb564fcbf09c4a5646075e450cf0f7ab4447ed9488ac", "addresses": ["1J5Ykv49ujRpWNzqYPeRuJT2mCsjzmXpsZ"], "asm": "OP_DUP OP_HASH160 bb564fcbf09c4a5646075e450cf0f7ab4447ed94 OP_EQUALVERIFY OP_CHECKSIG", "type": "pubkeyhash"}, "value": 0.0127879, "n": 0}, {"scriptPubKey": {"reqSigs": 1, "hex": "76a914cdc8c1dd6c4aec0195f23c0b961873d668f96a8588ac", "addresses": ["1Km62BnUJG1RVjC9nfw4PwWMRtXDu8MGbR"], "asm": "OP_DUP OP_HASH160 cdc8c1dd6c4aec0195f23c0b961873d668f96a85 OP_EQUALVERIFY OP_CHECKSIG", "type": "pubkeyhash"}, "value": 0.00973359, "n": 1}, {"scriptPubKey": {"reqSigs": 1, "hex": "a91462dfa725dadbbd9aa3b7c21f93cdb43bd4ab008a87", "addresses": ["3Ahp529MNTsg63FQwhEkpwc37kCeRRbQuh"], "asm": "OP_HASH160 62dfa725dadbbd9aa3b7c21f93cdb43bd4ab008a OP_EQUAL", "type": "scripthash"}, "value": 0.00788477, "n": 2}, {"scriptPubKey": {"reqSigs": 1, "hex": "76a914f32237dcb68d2b11a175e6722f4443edccdc134988ac", "addresses": ["1PAaC8zbpoDkSMtU311N8vYxgooatiPhsu"], "asm": "OP_DUP OP_HASH160 f32237dcb68d2b11a175e6722f4443edccdc1349 OP_EQUALVERIFY OP_CHECKSIG", "type": "pubkeyhash"}, "value": 0.00049577, "n": 3}, {"scriptPubKey": {"reqSigs": 1, "hex": "76a9146cd49dc429df53aa4fc5d522459a2a157fa3c31788ac", "addresses": ["1AvSgZDSEM33c9ytgH2zHS3YML2rtV1yMF"], "asm": "OP_DUP OP_HASH160 6cd49dc429df53aa4fc5d522459a2a157fa3c317 OP_EQUALVERIFY OP_CHECKSIG", "type": "pubkeyhash"}, "value": 0.295, "n": 4}], "hex": "020000000001077019195e7b67ad06a220f02b7c0d00522e1b2c1cb16cceeaa81f3ca385b46f08010000001716001450f57985ec0aa7d2c8ef30a65ef9e005a8e3ccc1feffffff757233dcf78a8403ef7a2c4c1ef6a4a49d3b11e62a311e986cfc4aafe63a7c58000000006a4730440220094a9b4feed08ca673a061a2ed441aba961368c37c67bc4e40dfb895e1fb89810220306deb3d7da7867ce4792f9699f11c88ef30978acb721d7f0ae0f537c44c2a2001210305657c87bc48f972ca3f55fcb2957cf02c99cae07f77a10db36e11d5f1559034feffffff8c9c4de8e0001b6473d6731b0b54c806d7a9b82f9c2d5418b12fe32adfeb8665010000006b483045022100fbbd65e910958948562842a2c18deb87a733bc8b4609fa6f177e744b6f4a60cf022072900a8588d583aa716363e92441cf3b5728ac6970811eb86c8223a35879b3c0012102a8fd7e89c38c6b21a4c941aafe60471184e9de16fe483ec2b2e8d8b0e4d33d47feffffffa2905ce3fbddccfbc7a2f2f69225aa02a5955366c0806468b66b135f3ebd890a0100000017160014e85872f10edce37b094c2e895d68f1950998d413feffffffad12b30780514cf1fe5bed2e0f0155868cc745ea0ec5e501037cabf853e67c8d0000000017160014695dc07e09a39d772c3996d1aabc0912d0b10e8ffeffffffc7127f5fdbd201827103b7f9b50ad98c67a3c90a2f1ce2d01b0787bb1ab29ef30000000017160014a69e29324647f757f25eb022425220d2a44b54c2feffffffea8dfb0a22cdc734b8ee74a235fbf327e2f35b9ea85b5cdca01ae37cf65dfd60010000006b483045022100bc37a5c45b1bffb4d8fb0c3886334dc55b92b052ea67e14137035b4835d75ed1022032b3f22b3334e54e04760ceaf96150f0f913ffc351daac5350f3256455f1501d012103edb36f43d4081a291032b32b5c3ef0b59637980dfb2eede4dd9432d4f3eba8befeffffff0546831300000000001976a914bb564fcbf09c4a5646075e450cf0f7ab4447ed9488ac2fda0e00000000001976a914cdc8c1dd6c4aec0195f23c0b961873d668f96a8588acfd070c000000000017a91462dfa725dadbbd9aa3b7c21f93cdb43bd4ab008a87a9c10000000000001976a914f32237dcb68d2b11a175e6722f4443edccdc134988ac6022c201000000001976a9146cd49dc429df53aa4fc5d522459a2a157fa3c31788ac024730440220411090fc84055555b26bffa5fcb51e1d5a5a1233ff9ba9d70103a7228eda10fa0220222fd325b26ed5cccfa860b20cca8203e734026e443cbf90e4d8570e8106af66012103e7016ac1fa908fa4fc77a9e1092f6de1661b8434347eeebf28730fcbb57187f1000002473044022060d455b0b332a22d91603607cfb0d4f389b302730206d8a36a28128023068b9002206633545e6b253e48d1b12205d6bb083d965b179a27e1de1dad77cec9b91f0b7c0121029b871663f546199eb4d1e29bec76e8fe391c3c58a2bd7d9bec1682216cbfed8e02483045022100e0ea496ef76249f2c5b0c537e128d74b0225a4c6cb97e5f5517bf1599af25dee0220372da2741674469317b4f52cc7b82c437d8241fe6b212fbdb7efca5398ffea630121035cc2cc04afd3952ef69a1add2a180b921e58827d167745ebbfbff4fb0ebddfa50247304402200f5928879cb891bbe75a62d8ffc13335a1832d08cf2263bdad815a429047890102203d162eb1020be311721ec0bed5245913231ce2288883c9814ca5bd1a5777991a01210244d40a4ba95a68eb045ed00b627e363620708228ffc82ec54ce5ef9343d5d2a6000e490800", "vin": [{"txinwitness": ["30440220411090fc84055555b26bffa5fcb51e1d5a5a1233ff9ba9d70103a7228eda10fa0220222fd325b26ed5cccfa860b20cca8203e734026e443cbf90e4d8570e8106af6601", "03e7016ac1fa908fa4fc77a9e1092f6de1661b8434347eeebf28730fcbb57187f1"], "sequence": 4294967294, "scriptSig": {"hex": "16001450f57985ec0aa7d2c8ef30a65ef9e005a8e3ccc1", "asm": "001450f57985ec0aa7d2c8ef30a65ef9e005a8e3ccc1"}, "vout": 1, "txid": "086fb485a33c1fa8eace6cb11c2c1b2e52000d7c2bf020a206ad677b5e191970"}, {"sequence": 4294967294, "scriptSig": {"hex": "4730440220094a9b4feed08ca673a061a2ed441aba961368c37c67bc4e40dfb895e1fb89810220306deb3d7da7867ce4792f9699f11c88ef30978acb721d7f0ae0f537c44c2a2001210305657c87bc48f972ca3f55fcb2957cf02c99cae07f77a10db36e11d5f1559034", "asm": "30440220094a9b4feed08ca673a061a2ed441aba961368c37c67bc4e40dfb895e1fb89810220306deb3d7da7867ce4792f9699f11c88ef30978acb721d7f0ae0f537c44c2a20[ALL] 0305657c87bc48f972ca3f55fcb2957cf02c99cae07f77a10db36e11d5f1559034"}, "vout": 0, "txid": "587c3ae6af4afc6c981e312ae6113b9da4a4f61e4c2c7aef03848af7dc337275"}, {"sequence": 4294967294, "scriptSig": {"hex": "483045022100fbbd65e910958948562842a2c18deb87a733bc8b4609fa6f177e744b6f4a60cf022072900a8588d583aa716363e92441cf3b5728ac6970811eb86c8223a35879b3c0012102a8fd7e89c38c6b21a4c941aafe60471184e9de16fe483ec2b2e8d8b0e4d33d47", "asm": "3045022100fbbd65e910958948562842a2c18deb87a733bc8b4609fa6f177e744b6f4a60cf022072900a8588d583aa716363e92441cf3b5728ac6970811eb86c8223a35879b3c0[ALL] 02a8fd7e89c38c6b21a4c941aafe60471184e9de16fe483ec2b2e8d8b0e4d33d47"}, "vout": 1, "txid": "6586ebdf2ae32fb118542d9c2fb8a9d706c8540b1b73d673641b00e0e84d9c8c"}, {"txinwitness": ["3044022060d455b0b332a22d91603607cfb0d4f389b302730206d8a36a28128023068b9002206633545e6b253e48d1b12205d6bb083d965b179a27e1de1dad77cec9b91f0b7c01", "029b871663f546199eb4d1e29bec76e8fe391c3c58a2bd7d9bec1682216cbfed8e"], "sequence": 4294967294, "scriptSig": {"hex": "160014e85872f10edce37b094c2e895d68f1950998d413", "asm": "0014e85872f10edce37b094c2e895d68f1950998d413"}, "vout": 1, "txid": "0a89bd3e5f136bb6686480c0665395a502aa2592f6f2a2c7fbccddfbe35c90a2"}, {"txinwitness": ["3045022100e0ea496ef76249f2c5b0c537e128d74b0225a4c6cb97e5f5517bf1599af25dee0220372da2741674469317b4f52cc7b82c437d8241fe6b212fbdb7efca5398ffea6301", "035cc2cc04afd3952ef69a1add2a180b921e58827d167745ebbfbff4fb0ebddfa5"], "sequence": 4294967294, "scriptSig": {"hex": "160014695dc07e09a39d772c3996d1aabc0912d0b10e8f", "asm": "0014695dc07e09a39d772c3996d1aabc0912d0b10e8f"}, "vout": 0, "txid": "8d7ce653f8ab7c0301e5c50eea45c78c8655010f2eed5bfef14c518007b312ad"}, {"txinwitness": ["304402200f5928879cb891bbe75a62d8ffc13335a1832d08cf2263bdad815a429047890102203d162eb1020be311721ec0bed5245913231ce2288883c9814ca5bd1a5777991a01", "0244d40a4ba95a68eb045ed00b627e363620708228ffc82ec54ce5ef9343d5d2a6"], "sequence": 4294967294, "scriptSig": {"hex": "160014a69e29324647f757f25eb022425220d2a44b54c2", "asm": "0014a69e29324647f757f25eb022425220d2a44b54c2"}, "vout": 0, "txid": "f39eb21abb87071bd0e21c2f0ac9a3678cd90ab5f9b703718201d2db5f7f12c7"}, {"sequence": 4294967294, "scriptSig": {"hex": "483045022100bc37a5c45b1bffb4d8fb0c3886334dc55b92b052ea67e14137035b4835d75ed1022032b3f22b3334e54e04760ceaf96150f0f913ffc351daac5350f3256455f1501d012103edb36f43d4081a291032b32b5c3ef0b59637980dfb2eede4dd9432d4f3eba8be", "asm": "3045022100bc37a5c45b1bffb4d8fb0c3886334dc55b92b052ea67e14137035b4835d75ed1022032b3f22b3334e54e04760ceaf96150f0f913ffc351daac5350f3256455f1501d[ALL] 03edb36f43d4081a291032b32b5c3ef0b59637980dfb2eede4dd9432d4f3eba8be"}, "vout": 1, "txid": "60fd5df67ce31aa0dc5c5ba89e5bf3e227f3fb35a274eeb834c7cd220afb8dea"}], "txid": "8aff4ffb846f785eb60220d79c96f15df3cd136eee2e9087d795da69b9c625d2", "blocktime": 1537870928, "version": 2, "confirmations": 11512, "time": 1537870928, "locktime": 542990, "vsize": 986, "size": 1311}