{"hash": "8afff17cfdc55f4ce570620937611a2d2b3c761a10cf8425df66257bc528b4da", "blockhash": "0000000000000000001cda96e906b7601b7a6fb1a3b62bca570a9e5d8f4b3de1", "vout": [{"scriptPubKey": {"reqSigs": 1, "hex": "76a9149d6d6469bd438241c365e3130bb0005f6e95bd9b88ac", "addresses": ["1FMQ8pkm3jhnSZDUNht3U3qqaQ1f8DQUnn"], "asm": "OP_DUP OP_HASH160 9d6d6469bd438241c365e3130bb0005f6e95bd9b OP_EQUALVERIFY OP_CHECKSIG", "type": "pubkeyhash"}, "value": 0.01869798, "n": 0}, {"scriptPubKey": {"reqSigs": 1, "hex": "76a91495fb6f687a992086942e7924fac657d7d738b20088ac", "addresses": ["1Eg2tc987ffx1enWnLLM9ju8o7LZZ42s4M"], "asm": "OP_DUP OP_HASH160 95fb6f687a992086942e7924fac657d7d738b200 OP_EQUALVERIFY OP_CHECKSIG", "type": "pubkeyhash"}, "value": 0.066, "n": 1}], "hex": "010000000135fc2a86ecd29cc466e5dd479ab5ab9f867fc435b70218fc822a6464b39ee886080000006a4730440220014cb1625e8906a01db42efb8a78d3c2f0ab26d07d264f853fe149b28d8f482702200b9b0139a5fbecf813b873ffeb0b7f5fa14ae318c436e4769d387e835a34af46012103829097f0382e2d3d976562cf2423cbdd49f8e2d65365d7d9c2d55be0073e8ae1ffffffff02e6871c00000000001976a9149d6d6469bd438241c365e3130bb0005f6e95bd9b88ac40b56400000000001976a91495fb6f687a992086942e7924fac657d7d738b20088ac00000000", "vin": [{"sequence": 4294967295, "scriptSig": {"hex": "4730440220014cb1625e8906a01db42efb8a78d3c2f0ab26d07d264f853fe149b28d8f482702200b9b0139a5fbecf813b873ffeb0b7f5fa14ae318c436e4769d387e835a34af46012103829097f0382e2d3d976562cf2423cbdd49f8e2d65365d7d9c2d55be0073e8ae1", "asm": "30440220014cb1625e8906a01db42efb8a78d3c2f0ab26d07d264f853fe149b28d8f482702200b9b0139a5fbecf813b873ffeb0b7f5fa14ae318c436e4769d387e835a34af46[ALL] 03829097f0382e2d3d976562cf2423cbdd49f8e2d65365d7d9c2d55be0073e8ae1"}, "vout": 8, "txid": "86e89eb364642a82fc1802b735c47f869fabb59a47dde566c49cd2ec862afc35"}], "txid": "8afff17cfdc55f4ce570620937611a2d2b3c761a10cf8425df66257bc528b4da", "blocktime": 1537873282, "version": 1, "confirmations": 11484, "time": 1537873282, "locktime": 0, "vsize": 225, "size": 225}