{"hash": "9c03332bac1f10801b0e237117eac2e5f3518de95b5dea2a04ca04b2703a0915", "blockhash": "0000000000000000001cda96e906b7601b7a6fb1a3b62bca570a9e5d8f4b3de1", "vout": [{"scriptPubKey": {"reqSigs": 1, "hex": "a9140496cc873ba2c58635da67f9cc0d1ad6adeede0f87", "addresses": ["327HH1F6owxb5YFoQZQ6cXfEbTjLpp1e13"], "asm": "OP_HASH160 0496cc873ba2c58635da67f9cc0d1ad6adeede0f OP_EQUAL", "type": "scripthash"}, "value": 0.00433701, "n": 0}, {"scriptPubKey": {"reqSigs": 1, "hex": "76a9147b066d9316ffe16a1470acb4eac3351c7c65093188ac", "addresses": ["1CDVpDtTpxdNRP5s9jgooaWSdDrcaN3hXt"], "asm": "OP_DUP OP_HASH160 7b066d9316ffe16a1470acb4eac3351c7c650931 OP_EQUALVERIFY OP_CHECKSIG", "type": "pubkeyhash"}, "value": 0.01745, "n": 1}], "hex": "01000000000102a8aadcf7f56354fad3784014a2012fec70372d41e0ff36c030f515794ab5d70e05000000171600145d67c8b64551cdde6d118392514c977fd149de78ffffffff78ec2724234b36bb661783c27813e58781841bd93038e91a53bbc66e0c94f8d50000000017160014d0d41324868d1c8ca619788f48b6adc972e60323ffffffff02259e06000000000017a9140496cc873ba2c58635da67f9cc0d1ad6adeede0f8768a01a00000000001976a9147b066d9316ffe16a1470acb4eac3351c7c65093188ac02483045022100aef085cb8a228e7f583adf10669f8fa52d34020f483aa5078882d5825968bca202206d414b1654dc5e71526c10ce91e0e7e46698e2bc8f1e6a8b6f8b88a7f09e15b3012102732ae9b17ad453eefab11766737146de87b8b1a67309780dc4694be5c5316e040247304402207c04ab0b0ecfac8239df7a9f84006d8a48550d260a1e351b8f8500908a971d0502207e771a4529e450f86adc536bfde91c6454468762f96475de2284f3da55ee4cb10121028d007ee6cd99313931240e860f9872266574ba41e8ba3d9f4af5cae0f3eda61d00000000", "vin": [{"txinwitness": ["3045022100aef085cb8a228e7f583adf10669f8fa52d34020f483aa5078882d5825968bca202206d414b1654dc5e71526c10ce91e0e7e46698e2bc8f1e6a8b6f8b88a7f09e15b301", "02732ae9b17ad453eefab11766737146de87b8b1a67309780dc4694be5c5316e04"], "sequence": 4294967295, "scriptSig": {"hex": "1600145d67c8b64551cdde6d118392514c977fd149de78", "asm": "00145d67c8b64551cdde6d118392514c977fd149de78"}, "vout": 5, "txid": "0ed7b54a7915f530c036ffe0412d3770ec2f01a2144078d3fa5463f5f7dcaaa8"}, {"txinwitness": ["304402207c04ab0b0ecfac8239df7a9f84006d8a48550d260a1e351b8f8500908a971d0502207e771a4529e450f86adc536bfde91c6454468762f96475de2284f3da55ee4cb101", "028d007ee6cd99313931240e860f9872266574ba41e8ba3d9f4af5cae0f3eda61d"], "sequence": 4294967295, "scriptSig": {"hex": "160014d0d41324868d1c8ca619788f48b6adc972e60323", "asm": "0014d0d41324868d1c8ca619788f48b6adc972e60323"}, "vout": 0, "txid": "d5f8940c6ec6bb531ae93830d91b848187e51378c2831766bb364b232427ec78"}], "txid": "8b02c204c8e57da571e96992e947d73ef04305efb81851e6eb41188f5af1d82a", "blocktime": 1537873282, "version": 1, "confirmations": 11484, "time": 1537873282, "locktime": 0, "vsize": 259, "size": 421}