{"hash": "8b02cea11d5c393ecfe4148afd26f8f583d1cc71394c4084413d5eb94acc64fc", "blockhash": "0000000000000000000e13cef7c366c0283d82e591d1acd082e914b08063cdf1", "vout": [{"scriptPubKey": {"reqSigs": 1, "hex": "76a914784cca07998e1e102b5eae0408fed51c7b10cb1688ac", "addresses": ["1By65RfjJWdA4aTbPwcBqDL5NhY8PKYjuX"], "asm": "OP_DUP OP_HASH160 784cca07998e1e102b5eae0408fed51c7b10cb16 OP_EQUALVERIFY OP_CHECKSIG", "type": "pubkeyhash"}, "value": 0.00643341, "n": 0}, {"scriptPubKey": {"type": "nulldata", "hex": "6a4c5000007797000144fd5e8b98484afb498bd9f9e3ef3236678a625097bcbefa6b8351586b4e5cbc6b76b6c6463e17086ba364ac9d375baa0d1d0614b7d3d1638a7a1d100759d4ba30d2c37bb011d97e02cf", "asm": "OP_RETURN 00007797000144fd5e8b98484afb498bd9f9e3ef3236678a625097bcbefa6b8351586b4e5cbc6b76b6c6463e17086ba364ac9d375baa0d1d0614b7d3d1638a7a1d100759d4ba30d2c37bb011d97e02cf"}, "value": 0.0, "n": 1}], "hex": "01000000018fcc02afe3080d2ce7a4c1f9b0cb2fec48efc561f899e9ed06ab62b344fbf9ef000000006b483045022100faa28533355ad90be31df4a51f4ba92ff2f14bd04443804f9e03dfddee57ce00022041b51a8d3ffa6df32515f05206f1ba73ffdad5b2fe8dea1d55ec0703968abbdb01210242f7de0ae540cc88929d1b63c8a947e46333c28db2244a4ecdcbc1241b9c4e70ffffffff020dd10900000000001976a914784cca07998e1e102b5eae0408fed51c7b10cb1688ac0000000000000000536a4c5000007797000144fd5e8b98484afb498bd9f9e3ef3236678a625097bcbefa6b8351586b4e5cbc6b76b6c6463e17086ba364ac9d375baa0d1d0614b7d3d1638a7a1d100759d4ba30d2c37bb011d97e02cf00000000", "vin": [{"sequence": 4294967295, "scriptSig": {"hex": "483045022100faa28533355ad90be31df4a51f4ba92ff2f14bd04443804f9e03dfddee57ce00022041b51a8d3ffa6df32515f05206f1ba73ffdad5b2fe8dea1d55ec0703968abbdb01210242f7de0ae540cc88929d1b63c8a947e46333c28db2244a4ecdcbc1241b9c4e70", "asm": "3045022100faa28533355ad90be31df4a51f4ba92ff2f14bd04443804f9e03dfddee57ce00022041b51a8d3ffa6df32515f05206f1ba73ffdad5b2fe8dea1d55ec0703968abbdb[ALL] 0242f7de0ae540cc88929d1b63c8a947e46333c28db2244a4ecdcbc1241b9c4e70"}, "vout": 0, "txid": "eff9fb44b362ab06ede999f861c5ef48ec2fcbb0f9c1a4e72c0d08e3af02cc8f"}], "txid": "8b02cea11d5c393ecfe4148afd26f8f583d1cc71394c4084413d5eb94acc64fc", "blocktime": 1537871767, "version": 1, "confirmations": 11495, "time": 1537871767, "locktime": 0, "vsize": 284, "size": 284}