{"hash": "8b033f00184d272d44111a5ac59c3edbda51fec74a8c7c9908d3277c67e4f7e7", "blockhash": "000000000000000000022b45ed06c6f4ccd3cf7fb5ba4856ebd2e58215665228", "vout": [{"scriptPubKey": {"reqSigs": 1, "hex": "76a914cf5922719e9904dd771244421e64ff2f627feb6988ac", "addresses": ["1KuMetNdZD2aNWXqWvbFD6uPwhnLxwY5Ak"], "asm": "OP_DUP OP_HASH160 cf5922719e9904dd771244421e64ff2f627feb69 OP_EQUALVERIFY OP_CHECKSIG", "type": "pubkeyhash"}, "value": 8.855e-05, "n": 0}, {"scriptPubKey": {"reqSigs": 1, "hex": "a91457a6b59c577cb3b83fdad062facfaad67e5f73e487", "addresses": ["39gURQXDAv6GWvvDRoKJeynJnW9eCmLLqd"], "asm": "OP_HASH160 57a6b59c577cb3b83fdad062facfaad67e5f73e4 OP_EQUAL", "type": "scripthash"}, "value": 0.0509, "n": 1}], "hex": "01000000012f3931a5043e4a3bc9750542979366789fd22abb9a409fe6ef4f41d052a3f45d010000006b483045022100ce8c711bf00cd45313d6e6bb108b5e35e70aa1153b80fbdc06406439f7e871e602202f47bbd507bc04f54fee153cfd486f98e02687cfa38477386aedf5556fd4418d0121021eb1fbfd8d2528e9695a7d4e45e04adebd6796392ce418747e35937e66bf4a85ffffffff0297220000000000001976a914cf5922719e9904dd771244421e64ff2f627feb6988acd0aa4d000000000017a91457a6b59c577cb3b83fdad062facfaad67e5f73e48700000000", "vin": [{"sequence": 4294967295, "scriptSig": {"hex": "483045022100ce8c711bf00cd45313d6e6bb108b5e35e70aa1153b80fbdc06406439f7e871e602202f47bbd507bc04f54fee153cfd486f98e02687cfa38477386aedf5556fd4418d0121021eb1fbfd8d2528e9695a7d4e45e04adebd6796392ce418747e35937e66bf4a85", "asm": "3045022100ce8c711bf00cd45313d6e6bb108b5e35e70aa1153b80fbdc06406439f7e871e602202f47bbd507bc04f54fee153cfd486f98e02687cfa38477386aedf5556fd4418d[ALL] 021eb1fbfd8d2528e9695a7d4e45e04adebd6796392ce418747e35937e66bf4a85"}, "vout": 1, "txid": "5df4a352d0414fefe69f409abb2ad29f78669397420575c93b4a3e04a531392f"}], "txid": "8b033f00184d272d44111a5ac59c3edbda51fec74a8c7c9908d3277c67e4f7e7", "blocktime": 1537869901, "version": 1, "confirmations": 11523, "time": 1537869901, "locktime": 0, "vsize": 224, "size": 224}