{"hash": "8b04cef33840e8aff7154afd24b1ee3145a5277a4bf59a39f6fdc2a5ac04d783", "blockhash": "0000000000000000001e0dab787dd257d1dbfcb92a98c2207d5e1078be1f4165", "vout": [{"scriptPubKey": {"reqSigs": 1, "hex": "76a9143c70ca68e675a89868b18f8ee777e02feb71d84688ac", "addresses": ["16WafLs8sFWouwhXs9uys6Ki9WgNpSN48z"], "asm": "OP_DUP OP_HASH160 3c70ca68e675a89868b18f8ee777e02feb71d846 OP_EQUALVERIFY OP_CHECKSIG", "type": "pubkeyhash"}, "value": 0.14466557, "n": 0}], "hex": "0100000003383f148ccee9c7addc0b48885ab1eb018a3deb0bc0e7b023e5be27bda0aa9629000000006a473044022033bad77695ecf01ce116452ae36cc4bfd7d6d043eb9091f1fd3c55cb5eaa8a4602202709315fa7745602f56ebfc2e00b70059205a4e0ab493120a6ced91a106b7c6b0121037ec9a75d704baa395657b6950b2d326981b177648f64808ada2f30156c0529beffffffff252059c620873b411d960cdd1168649a882f1a294be21f286b341fad3af87740000000006a47304402200f886e15a9db08f545b45723346d9f64c23048087f714b144b9244403b93f37d022070552cc2851892c98f12c7611ab10ef2dc71fe5f4bed142e91ca9121467d2dc7012102b72895b3b25d394b80c04dfc994c15256d4bc6a42681517c9c7ef835ccf206e3ffffffffbf5dfaefe729a288a9dd0e4248de0c27de0df2ba9c5ff55f8a32249b2bf9b586000000006b483045022100b1514b84800c68d9d700cf0ba5122c9cc1a89bf5923548c5e0bdce7352932cc3022068f282d4759ad02d3392d85f35a76104c2ca676b1b860b3ddaab43f219a7a9d5012103aeb86bdec41d87f5bb17004a0c4d8211841915e6f5487e94545be6846f77bc0affffffff01fdbddc00000000001976a9143c70ca68e675a89868b18f8ee777e02feb71d84688ac00000000", "vin": [{"sequence": 4294967295, "scriptSig": {"hex": "473044022033bad77695ecf01ce116452ae36cc4bfd7d6d043eb9091f1fd3c55cb5eaa8a4602202709315fa7745602f56ebfc2e00b70059205a4e0ab493120a6ced91a106b7c6b0121037ec9a75d704baa395657b6950b2d326981b177648f64808ada2f30156c0529be", "asm": "3044022033bad77695ecf01ce116452ae36cc4bfd7d6d043eb9091f1fd3c55cb5eaa8a4602202709315fa7745602f56ebfc2e00b70059205a4e0ab493120a6ced91a106b7c6b[ALL] 037ec9a75d704baa395657b6950b2d326981b177648f64808ada2f30156c0529be"}, "vout": 0, "txid": "2996aaa0bd27bee523b0e7c00beb3d8a01ebb15a88480bdcadc7e9ce8c143f38"}, {"sequence": 4294967295, "scriptSig": {"hex": "47304402200f886e15a9db08f545b45723346d9f64c23048087f714b144b9244403b93f37d022070552cc2851892c98f12c7611ab10ef2dc71fe5f4bed142e91ca9121467d2dc7012102b72895b3b25d394b80c04dfc994c15256d4bc6a42681517c9c7ef835ccf206e3", "asm": "304402200f886e15a9db08f545b45723346d9f64c23048087f714b144b9244403b93f37d022070552cc2851892c98f12c7611ab10ef2dc71fe5f4bed142e91ca9121467d2dc7[ALL] 02b72895b3b25d394b80c04dfc994c15256d4bc6a42681517c9c7ef835ccf206e3"}, "vout": 0, "txid": "4077f83aad1f346b281fe24b291a2f889a646811dd0c961d413b8720c6592025"}, {"sequence": 4294967295, "scriptSig": {"hex": "483045022100b1514b84800c68d9d700cf0ba5122c9cc1a89bf5923548c5e0bdce7352932cc3022068f282d4759ad02d3392d85f35a76104c2ca676b1b860b3ddaab43f219a7a9d5012103aeb86bdec41d87f5bb17004a0c4d8211841915e6f5487e94545be6846f77bc0a", "asm": "3045022100b1514b84800c68d9d700cf0ba5122c9cc1a89bf5923548c5e0bdce7352932cc3022068f282d4759ad02d3392d85f35a76104c2ca676b1b860b3ddaab43f219a7a9d5[ALL] 03aeb86bdec41d87f5bb17004a0c4d8211841915e6f5487e94545be6846f77bc0a"}, "vout": 0, "txid": "86b5f92b9b24328a5ff55f9cbaf20dde270cde48420edda988a229e7effa5dbf"}], "txid": "8b04cef33840e8aff7154afd24b1ee3145a5277a4bf59a39f6fdc2a5ac04d783", "blocktime": 1537872475, "version": 1, "confirmations": 11486, "time": 1537872475, "locktime": 0, "vsize": 486, "size": 486}