{"hash": "96ef8d29a1618a21fbd324ecaad8710773ee64273eda583b37d00a76d0bb1c72", "blockhash": "0000000000000000001f76057863aec43deb6fa401d9628bb513d65a8098bfab", "vout": [{"scriptPubKey": {"reqSigs": 1, "hex": "76a91474cfe006df9385daaaa9dec1b8549f467bdf318188ac", "addresses": ["1BeeQfjZpQN7eYouHSEvwc88LY3QCLsf5a"], "asm": "OP_DUP OP_HASH160 74cfe006df9385daaaa9dec1b8549f467bdf3181 OP_EQUALVERIFY OP_CHECKSIG", "type": "pubkeyhash"}, "value": 0.21475991, "n": 0}, {"scriptPubKey": {"reqSigs": 1, "hex": "00140219af676042eb4dbece71307bb5d8c0cde1d4f7", "addresses": ["bc1qqgv67emqgt45m0kwwyc8hdwccrx7r48hhfp7yu"], "asm": "0 0219af676042eb4dbece71307bb5d8c0cde1d4f7", "type": "witness_v0_keyhash"}, "value": 0.00123421, "n": 1}], "hex": "01000000000101432da305c4979700454262b6f5de7d17d1e521aeb2a4cc47de36843ddc876c210500000017160014206e38c83550e7702d1ca51d00875d3c220ab344ffffffff0297b24701000000001976a91474cfe006df9385daaaa9dec1b8549f467bdf318188ac1de20100000000001600140219af676042eb4dbece71307bb5d8c0cde1d4f702473044022054ddc9aacd332bb077dcdb99dff86b9443281c9c8721b1470502221585c3a0e102201cc57ff0dbf384d72d72be8982a3ab7704f5976439bc6db72f62c8d9c5a9a75d0121039da437873fe6aa3b403791bb658e8745be33d52ab2d759a0664a4eef661d3dc800000000", "vin": [{"txinwitness": ["3044022054ddc9aacd332bb077dcdb99dff86b9443281c9c8721b1470502221585c3a0e102201cc57ff0dbf384d72d72be8982a3ab7704f5976439bc6db72f62c8d9c5a9a75d01", "039da437873fe6aa3b403791bb658e8745be33d52ab2d759a0664a4eef661d3dc8"], "sequence": 4294967295, "scriptSig": {"hex": "160014206e38c83550e7702d1ca51d00875d3c220ab344", "asm": "0014206e38c83550e7702d1ca51d00875d3c220ab344"}, "vout": 5, "txid": "216c87dc3d8436de47cca4b2ae21e5d1177ddef5b6624245009797c405a32d43"}], "txid": "8b05bfabbce3b4547e0ccb5a9cca026294866e1fb7f647f974533594b767ce81", "blocktime": 1537873891, "version": 1, "confirmations": 11478, "time": 1537873891, "locktime": 0, "vsize": 167, "size": 248}