{"hash": "8b0647c2d7382f66eb3e24668daf40a935d599ea177ab83df8f7329fd3bb1291", "blockhash": "0000000000000000001f76057863aec43deb6fa401d9628bb513d65a8098bfab", "vout": [{"scriptPubKey": {"reqSigs": 1, "hex": "76a914197d414fe1fcdd7bc0af0ffcebc9b8786b756fd888ac", "addresses": ["13Kmwg7n7jAPuSMqTXTFYxZmLTRD59598c"], "asm": "OP_DUP OP_HASH160 197d414fe1fcdd7bc0af0ffcebc9b8786b756fd8 OP_EQUALVERIFY OP_CHECKSIG", "type": "pubkeyhash"}, "value": 0.0015612, "n": 0}, {"scriptPubKey": {"reqSigs": 1, "hex": "76a91427c5bd35be3c125b0abaadd884e1957786494c5388ac", "addresses": ["14dJEdqAnp18ejd3XkLVk6XxgKfBMg8AgN"], "asm": "OP_DUP OP_HASH160 27c5bd35be3c125b0abaadd884e1957786494c53 OP_EQUALVERIFY OP_CHECKSIG", "type": "pubkeyhash"}, "value": 0.00196102, "n": 1}], "hex": "01000000017c282b48e0d174268d243af24fc3278da80a6b9c7d96befa9dbdc7ac24220282000000006a473044022023a4c9bde73d877e7d32f0504d98c9745ef12dc2cd3b0174cd1e4fe0368e590a022059f5b5e40af318ee0a056f117274bd0fdae1567380aecfeadeb5161ba36711890121035abc23a8bdaccce694db0d5e2e0435446e583a4045f003898a29f0864c87cb18ffffffff02d8610200000000001976a914197d414fe1fcdd7bc0af0ffcebc9b8786b756fd888ac06fe0200000000001976a91427c5bd35be3c125b0abaadd884e1957786494c5388ac00000000", "vin": [{"sequence": 4294967295, "scriptSig": {"hex": "473044022023a4c9bde73d877e7d32f0504d98c9745ef12dc2cd3b0174cd1e4fe0368e590a022059f5b5e40af318ee0a056f117274bd0fdae1567380aecfeadeb5161ba36711890121035abc23a8bdaccce694db0d5e2e0435446e583a4045f003898a29f0864c87cb18", "asm": "3044022023a4c9bde73d877e7d32f0504d98c9745ef12dc2cd3b0174cd1e4fe0368e590a022059f5b5e40af318ee0a056f117274bd0fdae1567380aecfeadeb5161ba3671189[ALL] 035abc23a8bdaccce694db0d5e2e0435446e583a4045f003898a29f0864c87cb18"}, "vout": 0, "txid": "82022224acc7bd9dfabe967d9c6b0aa88d27c34ff23a248d2674d1e0482b287c"}], "txid": "8b0647c2d7382f66eb3e24668daf40a935d599ea177ab83df8f7329fd3bb1291", "blocktime": 1537873891, "version": 1, "confirmations": 11478, "time": 1537873891, "locktime": 0, "vsize": 225, "size": 225}