{"hash": "8b0cc4b0473fc37c0381c9f6b8b519a312106b8f1ee9966a4d3e655a5c351d04", "blockhash": "00000000000000000018f53835495a110e01622372bf6ae95dc86f2b0ab887b0", "vout": [{"scriptPubKey": {"reqSigs": 1, "hex": "76a91404804e0773fa686554b392f4e01180294d07601f88ac", "addresses": ["1QoQYPb5JiKyeK2jj47Rv9YTRGn6FVFCX"], "asm": "OP_DUP OP_HASH160 04804e0773fa686554b392f4e01180294d07601f OP_EQUALVERIFY OP_CHECKSIG", "type": "pubkeyhash"}, "value": 0.01991, "n": 0}], "hex": "01000000012a84676126c12631f06dbe7bc69a30cdb5c21bb505b7e070cfac4ecc80025a1a000000006a47304402205d2d01441fdd9dd388a0314ff9402610439246d36c97a5dcdc51ba4da32bd7b702207fef124e3893c6b63302e237f2d5234821bfad2b954d2cbae6efc249a337be51012103cb66d152d76225baf7419ab48fad4660bf91e04e3a9ec121a647da556f44e6ccffffffff0158611e00000000001976a91404804e0773fa686554b392f4e01180294d07601f88ac00000000", "vin": [{"sequence": 4294967295, "scriptSig": {"hex": "47304402205d2d01441fdd9dd388a0314ff9402610439246d36c97a5dcdc51ba4da32bd7b702207fef124e3893c6b63302e237f2d5234821bfad2b954d2cbae6efc249a337be51012103cb66d152d76225baf7419ab48fad4660bf91e04e3a9ec121a647da556f44e6cc", "asm": "304402205d2d01441fdd9dd388a0314ff9402610439246d36c97a5dcdc51ba4da32bd7b702207fef124e3893c6b63302e237f2d5234821bfad2b954d2cbae6efc249a337be51[ALL] 03cb66d152d76225baf7419ab48fad4660bf91e04e3a9ec121a647da556f44e6cc"}, "vout": 0, "txid": "1a5a0280cc4eaccf70e0b705b51bc2b5cd309ac67bbe6df03126c1266167842a"}], "txid": "8b0cc4b0473fc37c0381c9f6b8b519a312106b8f1ee9966a4d3e655a5c351d04", "blocktime": 1537870928, "version": 1, "confirmations": 11512, "time": 1537870928, "locktime": 0, "vsize": 191, "size": 191}