{"hash": "99ea36dc5510c5e8e2ca151abd48341b6a23d68e6133a34ec396317c08f1a066", "blockhash": "0000000000000000001f76057863aec43deb6fa401d9628bb513d65a8098bfab", "vout": [{"scriptPubKey": {"reqSigs": 1, "hex": "a9143964fd34042d430cd8d620026545efe7272e07a287", "addresses": ["36vVRKdZRLjymurR8DHYAcxDhkJmAW5gnS"], "asm": "OP_HASH160 3964fd34042d430cd8d620026545efe7272e07a2 OP_EQUAL", "type": "scripthash"}, "value": 0.00078885, "n": 0}, {"scriptPubKey": {"reqSigs": 1, "hex": "a914cc41432ef1d993b8dc16df39e7ac014f5164743c87", "addresses": ["3LK1xC1aUZjJf3JMwXqwKJqBSqzQELoHGP"], "asm": "OP_HASH160 cc41432ef1d993b8dc16df39e7ac014f5164743c OP_EQUAL", "type": "scripthash"}, "value": 0.02045663, "n": 1}], "hex": "0200000000010177d47db192842ac30c10eff825cfb565222abc3431982a8a9dd19acf2a1b4cc10000000017160014fdedcfb811d0b4cd0eaf093d72026140d82aa1e2feffffff02253401000000000017a9143964fd34042d430cd8d620026545efe7272e07a287df361f000000000017a914cc41432ef1d993b8dc16df39e7ac014f5164743c8702483045022100b73a12200055013b7511e24151a66cc8e3f24d855bd9d01bbd5d8c1648ce3c5802201d3a2f43435b5fec0ca00be7eebd0753c0898b0194ad5b36e401fd0a4b5a3547012103045c1d8c6fe798622df2e98f2c9c3f3802cdfd33c3e7550266cf01d906bd4d9114490800", "vin": [{"txinwitness": ["3045022100b73a12200055013b7511e24151a66cc8e3f24d855bd9d01bbd5d8c1648ce3c5802201d3a2f43435b5fec0ca00be7eebd0753c0898b0194ad5b36e401fd0a4b5a354701", "03045c1d8c6fe798622df2e98f2c9c3f3802cdfd33c3e7550266cf01d906bd4d91"], "sequence": 4294967294, "scriptSig": {"hex": "160014fdedcfb811d0b4cd0eaf093d72026140d82aa1e2", "asm": "0014fdedcfb811d0b4cd0eaf093d72026140d82aa1e2"}, "vout": 0, "txid": "c14c1b2acf9ad19d8a2a983134bc2a2265b5cf25f8ef100cc32a8492b17dd477"}], "txid": "8b0fd5f8fe9ed665aa9cd1e727ab3086fb0669948a85e31a0d02d9007f0cb091", "blocktime": 1537873891, "version": 2, "confirmations": 11475, "time": 1537873891, "locktime": 542996, "vsize": 166, "size": 248}