{"hash": "8b0fabd8f99d1bc2898b43008109de8887caa2b0187384144664d92b477ee4aa", "blockhash": "0000000000000000000e13cef7c366c0283d82e591d1acd082e914b08063cdf1", "vout": [{"scriptPubKey": {"reqSigs": 1, "hex": "a91468960fb037fa03c2436371999969015491468f8787", "addresses": ["3BE1xwAzmJv62SoPvNDr9CxwwxtuZXkzCS"], "asm": "OP_HASH160 68960fb037fa03c2436371999969015491468f87 OP_EQUAL", "type": "scripthash"}, "value": 0.00063117, "n": 0}, {"scriptPubKey": {"reqSigs": 1, "hex": "76a914a93c39ad8a3494acaff4c496ec11d553e9b962e888ac", "addresses": ["1GRqLwvAwRL7jqVfr3HPsa86fpmN5QVE7f"], "asm": "OP_DUP OP_HASH160 a93c39ad8a3494acaff4c496ec11d553e9b962e8 OP_EQUALVERIFY OP_CHECKSIG", "type": "pubkeyhash"}, "value": 0.0530296, "n": 1}], "hex": "01000000018de13b0778271278139ad845fb6a35dc7ce364e38f7e1e78b0b4241f992ab3aa010000006a4730440220096e56a340b77ca995d00b12bebf38238ff1a765b116eba673d0d4e82fde1e0602202a8f80c3357a00b7757a15dc657980232036e8220182a87a0eb367590d92c8900121039ac727e5f5fb8c24dc8fb1f4f7289c7044a2bf2d7239d2681f9422e929dc5cdeffffffff028df600000000000017a91468960fb037fa03c2436371999969015491468f8787b0ea5000000000001976a914a93c39ad8a3494acaff4c496ec11d553e9b962e888ac00000000", "vin": [{"sequence": 4294967295, "scriptSig": {"hex": "4730440220096e56a340b77ca995d00b12bebf38238ff1a765b116eba673d0d4e82fde1e0602202a8f80c3357a00b7757a15dc657980232036e8220182a87a0eb367590d92c8900121039ac727e5f5fb8c24dc8fb1f4f7289c7044a2bf2d7239d2681f9422e929dc5cde", "asm": "30440220096e56a340b77ca995d00b12bebf38238ff1a765b116eba673d0d4e82fde1e0602202a8f80c3357a00b7757a15dc657980232036e8220182a87a0eb367590d92c890[ALL] 039ac727e5f5fb8c24dc8fb1f4f7289c7044a2bf2d7239d2681f9422e929dc5cde"}, "vout": 1, "txid": "aab32a991f24b4b0781e7e8fe364e37cdc356afb45d89a1378122778073be18d"}], "txid": "8b0fabd8f99d1bc2898b43008109de8887caa2b0187384144664d92b477ee4aa", "blocktime": 1537871767, "version": 1, "confirmations": 11495, "time": 1537871767, "locktime": 0, "vsize": 223, "size": 223}