{"hash": "bf1d54e8ae5da08ba134fede6fb8555cbadd547396b0368e8772da76ad4702dc", "blockhash": "00000000000000000018f53835495a110e01622372bf6ae95dc86f2b0ab887b0", "vout": [{"scriptPubKey": {"reqSigs": 1, "hex": "76a914aaccd15cac2820be9680bef86b1a45b29f4de7f888ac", "addresses": ["1Ga7Ebxs6GyX5iy8KdMW4oN6dxZT4dVpuB"], "asm": "OP_DUP OP_HASH160 aaccd15cac2820be9680bef86b1a45b29f4de7f8 OP_EQUALVERIFY OP_CHECKSIG", "type": "pubkeyhash"}, "value": 1.26, "n": 0}, {"scriptPubKey": {"reqSigs": 1, "hex": "76a9140c51308bbc17235fffd9d8149f7cf27bcf94306d88ac", "addresses": ["1288NTUgdz4kJkdPSbmCNzBAK7GsjsjDhX"], "asm": "OP_DUP OP_HASH160 0c51308bbc17235fffd9d8149f7cf27bcf94306d OP_EQUALVERIFY OP_CHECKSIG", "type": "pubkeyhash"}, "value": 4.9997, "n": 1}, {"scriptPubKey": {"reqSigs": 1, "hex": "76a9141848ff36c7d1e34bb3c486299bf853bbad0a6aba88ac", "addresses": ["13DQfX8f9Yb9Y83yFwW8ozNHuaHWAYafSv"], "asm": "OP_DUP OP_HASH160 1848ff36c7d1e34bb3c486299bf853bbad0a6aba OP_EQUALVERIFY OP_CHECKSIG", "type": "pubkeyhash"}, "value": 2.4998, "n": 2}, {"scriptPubKey": {"reqSigs": 1, "hex": "a9147ad63b89128bf17ff09fd8c0c573b10bded2854587", "addresses": ["3CtX15xbeKuQbUJnoefP49TXciA5JBidq2"], "asm": "OP_HASH160 7ad63b89128bf17ff09fd8c0c573b10bded28545 OP_EQUAL", "type": "scripthash"}, "value": 41.57190914, "n": 3}], "hex": "0100000000010faaedede73cd8c4862ad2e461b6e77f11a30142257f96c7b0e2c607153ec395910100000017160014203aa42f3edfdaf9ed4dee7910167d5c380cf192ffffffffeb353a76258fe1bf431f2da822de09e1d9ca66e7da7585f5b2f45fd8d1ae0965040000001716001450291ef7becff6511f315bb244135ce21e2f0739ffffffff37df87b1165ca6bc3d631bc5a7050fce902261b2be1d465bd1b675143a282fce0200000017160014000b814f2c1a19852357ed615a08ec572a781ed1ffffffff49e1fe40ba819c75c7a1e07c6ae43d6f8e28d57751d2473126d5f033ed4c78a1000000001716001419a6e5dce5863446420b6c981a8df119210eaafaffffffff9d2d8be4a13d3bb96e950331a2f0639dea73df2058054c106361b063167989e20200000017160014dd207cbe960f99ec9d014a099be26520d0dd7c46ffffffff35d8a062639e9ac89b79edd8ad53ca9e1ce5ba08a598f16c4b7ac71c6c4b019e09000000171600147646f0030c66d3335d64b54c847aa16016c969acffffffff7d98ff5c6000352d9c54fcc2352458847a4a67ccb8b9e9718e41eb5b0847b0ad0100000017160014da518306c56322878be1ba50ce2d716bf2e15198ffffffff2254f24364e049934519362f2697cabfe48b6bbc62441afc4fb4149cfe869deb050000001716001412279a4c39e7ccf2e8303b141830604a799e25d3ffffffffee4630a609fbc65c52fc2ccae4593fcbabd33fb3ee029a2220b6cf0be109d3860200000017160014e3746d6204295c1f7c9ed969beec30e8dd8abfb8ffffffffee4630a609fbc65c52fc2ccae4593fcbabd33fb3ee029a2220b6cf0be109d386060000001716001471162ec6a3d2b675aebabc7a836d0d6964fa3c13ffffffffee4630a609fbc65c52fc2ccae4593fcbabd33fb3ee029a2220b6cf0be109d386070000001716001451677baef6635853514eae988d05a4f76ec9afbfffffffff452270c6eadb886087cacf8a1036ef320bd734d131db0ee8576a875f155e9e390200000017160014000b814f2c1a19852357ed615a08ec572a781ed1ffffffff8c657c8e30ea7eda4d4a22c09dbbc204ba8e59a110513ece7b79b203561ddad5140000001716001423a928fff63d5306e505afdb4ed61fe983eb7ab5ffffffff726b637c57831e76e7b84a6822813e34d6d257f79baf3d011229112d992f18ae00000000171600143b3d266999ad9d8c0b3c1f04c1d62442f0bf6a1bffffffffd4807781d0152fc0e0cf7371cde235977270ceebc0a508b11bd22745eccdc1700800000017160014dd207cbe960f99ec9d014a099be26520d0dd7c46ffffffff04809b8207000000001976a914aaccd15cac2820be9680bef86b1a45b29f4de7f888acd0efcc1d000000001976a9140c51308bbc17235fffd9d8149f7cf27bcf94306d88ac6064e60e000000001976a9141848ff36c7d1e34bb3c486299bf853bbad0a6aba88ac02b3c9f70000000017a9147ad63b89128bf17ff09fd8c0c573b10bded285458702483045022100b23a34259f90e6fa2220e4d53d017beb1503f37bf07d182578129e58d529ee53022023e215a3bf760d13869be838ad5c1b20a3055379f91a6c3f15e6477b95f1cb06012102a4702066510e865c8496dbf7bb7f52023cc559dab2cfdf940e3b3dd9c03adc1c02473044022018d2308b45fc78bff0d81da85479066e9bc00333cac6ef5154700e855e8021b60220471d68a51f03b3966b261533788186423b1f551ee1ec3c91ffe2f4d1febbdb12012102f60f453cb260d62aed128491bb7521d8e56b74e5aaa45be22a1d6ec3da73dc3e024730440220172997083799acff68ced43455e65121a63b5429f1aa430e9a6ed5314b8467f802207c86f878f9759d9988009b03bcfacd357dba533b0b5ed54f845ba3ae82904c5a012102aad79950b2c2af3689e8644c89e9d10dff06c2d8926200496b92e9f7ccb0304c02463043021f19be92863081efcc277d0aef1b90c1405395b05837b000b12fb877be2e69d002202fc3a61512f578a6300e38183ca108f52814dc92abbd5b2b2b6a1295020230fc012102a2cd117a0345e096e3d9eed04369dd23c5364b9b352d448eb622c59ed9b239c702483045022100950ed14da5a5bf6e8d9d9dfe7002beca9245bf745f1a5caa9d05f9b91c12042502200bfb1b4001086d3055dea8fafe7c0f2e1f9553ae9e3c92217fcd0d0e39f06ee0012103b870c24003518d67df75086ef1bc89c22c911dacb7e1dfdd9099cfc7d4d3d9c102483045022100e636934d181d4f3319aba819564fa06dce5f166d92b673cde98d78889c72e2d40220476834d01f4af0b71335e1981fb47d4b480765d3b7930dbd15f13bcc9d4218dd0121030ef5639cd79dd7b6e75b3bb6ffcf46abb5d548b37fe309e9eac7b5c31cf69391024830450221009ca4734b7a4257ba4b875fd4f3df2612ab1217ed851b1592561e807a4ac6806702200b1dd70d662f76cecd9e885d0a65b2bcbc96a141d98e826a37b4a6298cf593c5012102a7d96d512b77d198d91c0d1d3c6a85f6bba9ee6c9f50c2f32df9dcef47a2227e024730440220102a5a56bd9eb6b3e7673b19db6ac75ee45fab6ec4e7db3e53158226f733200102206b5506542fb6ba07d1d3b1e8337053c3f06c78e38c256c7aea767fb3a512cd8f01210379db2944d0c68781830be13bc17d3695cb59f7fcf340aa58c908cc2f517f163a024730440220249f2b159fad69e40e3ee7057041976f468deccb35e4ee7a43001ad8e80b7add02202ede67263060009a1c621a65fcba18247fdd4f9c0b39a5f1af4633c958bcad6e0121038e03d6005005260e930f2c29a0c3330f048740f924516226ee80fc33ed05d51f0247304402203e638dee26848b9c237e457dcca4a0c3bb76d989a330518e2dec8b91bd90d9cd02206b659bc7fbcd5a03e1cf4dd3aa265063091f476954bc6b6b7527f622ed857d8701210272b0f67359f6431942c2a58466c439ee8344617dfa291ad3aa6bcf699ca956a702483045022100c07e7f55475bbb80ffd9b285463d0577cca055e5d26e93a1d23a9240cbe1938802205a34aa0d231b1afb39d9c8713ae888a1b49d6ae27baa24537dd4bb6b99364afc0121037e48b2deaf29e8dc983ce1517f23c5315126df0e0d48d7e73e1f320d243739cf02483045022100b98351ea96c5b491bc95e41a4b54bfa011d6ab1dfe3b39b79f2dd9fd008db274022027489e04d9412a2ddb9db2efdfe9260f68550fefee950b53e2ea3e2f7383c393012102aad79950b2c2af3689e8644c89e9d10dff06c2d8926200496b92e9f7ccb0304c02473044022037b58d89a925d26e18914727cec3fac34e533b74c9e7c20196c9ed8d664248ef022054ed59286d5548f43ec58390846ccc343f1ea2e10dfcb1e6e90af8c4be747ed00121034aaad129cd8d57a6557fd8d08ad68cd453222c5b3e9bfc19d6a4412b0aef09f3024730440220189761526aab5004bae543c4325a37024c413c585ce532c4b37c5d005c77018d022027a69d707346d590fbb62a277ecdb6a4237e074fda731fdc3f1c62faf00681c101210357f12ae1200de23d8f9f659e2751554cca62e88af1bd136ae18af526bed06b1a0247304402204789a0eda0c243c548ffa7140fc2e73c4803be03175cdb7c58d3a371f7e5654e0220672edda0d8ff7b5ef6721d1dc9948ca21426de6ae716adb1a5d266e8a3795e31012103b870c24003518d67df75086ef1bc89c22c911dacb7e1dfdd9099cfc7d4d3d9c100000000", "vin": [{"txinwitness": ["3045022100b23a34259f90e6fa2220e4d53d017beb1503f37bf07d182578129e58d529ee53022023e215a3bf760d13869be838ad5c1b20a3055379f91a6c3f15e6477b95f1cb0601", "02a4702066510e865c8496dbf7bb7f52023cc559dab2cfdf940e3b3dd9c03adc1c"], "sequence": 4294967295, "scriptSig": {"hex": "160014203aa42f3edfdaf9ed4dee7910167d5c380cf192", "asm": "0014203aa42f3edfdaf9ed4dee7910167d5c380cf192"}, "vout": 1, "txid": "9195c33e1507c6e2b0c7967f254201a3117fe7b661e4d22a86c4d83ce7ededaa"}, {"txinwitness": ["3044022018d2308b45fc78bff0d81da85479066e9bc00333cac6ef5154700e855e8021b60220471d68a51f03b3966b261533788186423b1f551ee1ec3c91ffe2f4d1febbdb1201", "02f60f453cb260d62aed128491bb7521d8e56b74e5aaa45be22a1d6ec3da73dc3e"], "sequence": 4294967295, "scriptSig": {"hex": "16001450291ef7becff6511f315bb244135ce21e2f0739", "asm": "001450291ef7becff6511f315bb244135ce21e2f0739"}, "vout": 4, "txid": "6509aed1d85ff4b2f58575dae766cad9e109de22a82d1f43bfe18f25763a35eb"}, {"txinwitness": ["30440220172997083799acff68ced43455e65121a63b5429f1aa430e9a6ed5314b8467f802207c86f878f9759d9988009b03bcfacd357dba533b0b5ed54f845ba3ae82904c5a01", "02aad79950b2c2af3689e8644c89e9d10dff06c2d8926200496b92e9f7ccb0304c"], "sequence": 4294967295, "scriptSig": {"hex": "160014000b814f2c1a19852357ed615a08ec572a781ed1", "asm": "0014000b814f2c1a19852357ed615a08ec572a781ed1"}, "vout": 2, "txid": "ce2f283a1475b6d15b461dbeb2612290ce0f05a7c51b633dbca65c16b187df37"}, {"txinwitness": ["3043021f19be92863081efcc277d0aef1b90c1405395b05837b000b12fb877be2e69d002202fc3a61512f578a6300e38183ca108f52814dc92abbd5b2b2b6a1295020230fc01", "02a2cd117a0345e096e3d9eed04369dd23c5364b9b352d448eb622c59ed9b239c7"], "sequence": 4294967295, "scriptSig": {"hex": "16001419a6e5dce5863446420b6c981a8df119210eaafa", "asm": "001419a6e5dce5863446420b6c981a8df119210eaafa"}, "vout": 0, "txid": "a1784ced33f0d5263147d25177d5288e6f3de46a7ce0a1c7759c81ba40fee149"}, {"txinwitness": ["3045022100950ed14da5a5bf6e8d9d9dfe7002beca9245bf745f1a5caa9d05f9b91c12042502200bfb1b4001086d3055dea8fafe7c0f2e1f9553ae9e3c92217fcd0d0e39f06ee001", "03b870c24003518d67df75086ef1bc89c22c911dacb7e1dfdd9099cfc7d4d3d9c1"], "sequence": 4294967295, "scriptSig": {"hex": "160014dd207cbe960f99ec9d014a099be26520d0dd7c46", "asm": "0014dd207cbe960f99ec9d014a099be26520d0dd7c46"}, "vout": 2, "txid": "e289791663b06163104c055820df73ea9d63f0a23103956eb93b3da1e48b2d9d"}, {"txinwitness": ["3045022100e636934d181d4f3319aba819564fa06dce5f166d92b673cde98d78889c72e2d40220476834d01f4af0b71335e1981fb47d4b480765d3b7930dbd15f13bcc9d4218dd01", "030ef5639cd79dd7b6e75b3bb6ffcf46abb5d548b37fe309e9eac7b5c31cf69391"], "sequence": 4294967295, "scriptSig": {"hex": "1600147646f0030c66d3335d64b54c847aa16016c969ac", "asm": "00147646f0030c66d3335d64b54c847aa16016c969ac"}, "vout": 9, "txid": "9e014b6c1cc77a4b6cf198a508bae51c9eca53add8ed799bc89a9e6362a0d835"}, {"txinwitness": ["30450221009ca4734b7a4257ba4b875fd4f3df2612ab1217ed851b1592561e807a4ac6806702200b1dd70d662f76cecd9e885d0a65b2bcbc96a141d98e826a37b4a6298cf593c501", "02a7d96d512b77d198d91c0d1d3c6a85f6bba9ee6c9f50c2f32df9dcef47a2227e"], "sequence": 4294967295, "scriptSig": {"hex": "160014da518306c56322878be1ba50ce2d716bf2e15198", "asm": "0014da518306c56322878be1ba50ce2d716bf2e15198"}, "vout": 1, "txid": "adb047085beb418e71e9b9b8cc674a7a84582435c2fc549c2d3500605cff987d"}, {"txinwitness": ["30440220102a5a56bd9eb6b3e7673b19db6ac75ee45fab6ec4e7db3e53158226f733200102206b5506542fb6ba07d1d3b1e8337053c3f06c78e38c256c7aea767fb3a512cd8f01", "0379db2944d0c68781830be13bc17d3695cb59f7fcf340aa58c908cc2f517f163a"], "sequence": 4294967295, "scriptSig": {"hex": "16001412279a4c39e7ccf2e8303b141830604a799e25d3", "asm": "001412279a4c39e7ccf2e8303b141830604a799e25d3"}, "vout": 5, "txid": "eb9d86fe9c14b44ffc1a4462bc6b8be4bfca97262f3619459349e06443f25422"}, {"txinwitness": ["30440220249f2b159fad69e40e3ee7057041976f468deccb35e4ee7a43001ad8e80b7add02202ede67263060009a1c621a65fcba18247fdd4f9c0b39a5f1af4633c958bcad6e01", "038e03d6005005260e930f2c29a0c3330f048740f924516226ee80fc33ed05d51f"], "sequence": 4294967295, "scriptSig": {"hex": "160014e3746d6204295c1f7c9ed969beec30e8dd8abfb8", "asm": "0014e3746d6204295c1f7c9ed969beec30e8dd8abfb8"}, "vout": 2, "txid": "86d309e10bcfb620229a02eeb33fd3abcb3f59e4ca2cfc525cc6fb09a63046ee"}, {"txinwitness": ["304402203e638dee26848b9c237e457dcca4a0c3bb76d989a330518e2dec8b91bd90d9cd02206b659bc7fbcd5a03e1cf4dd3aa265063091f476954bc6b6b7527f622ed857d8701", "0272b0f67359f6431942c2a58466c439ee8344617dfa291ad3aa6bcf699ca956a7"], "sequence": 4294967295, "scriptSig": {"hex": "16001471162ec6a3d2b675aebabc7a836d0d6964fa3c13", "asm": "001471162ec6a3d2b675aebabc7a836d0d6964fa3c13"}, "vout": 6, "txid": "86d309e10bcfb620229a02eeb33fd3abcb3f59e4ca2cfc525cc6fb09a63046ee"}, {"txinwitness": ["3045022100c07e7f55475bbb80ffd9b285463d0577cca055e5d26e93a1d23a9240cbe1938802205a34aa0d231b1afb39d9c8713ae888a1b49d6ae27baa24537dd4bb6b99364afc01", "037e48b2deaf29e8dc983ce1517f23c5315126df0e0d48d7e73e1f320d243739cf"], "sequence": 4294967295, "scriptSig": {"hex": "16001451677baef6635853514eae988d05a4f76ec9afbf", "asm": "001451677baef6635853514eae988d05a4f76ec9afbf"}, "vout": 7, "txid": "86d309e10bcfb620229a02eeb33fd3abcb3f59e4ca2cfc525cc6fb09a63046ee"}, {"txinwitness": ["3045022100b98351ea96c5b491bc95e41a4b54bfa011d6ab1dfe3b39b79f2dd9fd008db274022027489e04d9412a2ddb9db2efdfe9260f68550fefee950b53e2ea3e2f7383c39301", "02aad79950b2c2af3689e8644c89e9d10dff06c2d8926200496b92e9f7ccb0304c"], "sequence": 4294967295, "scriptSig": {"hex": "160014000b814f2c1a19852357ed615a08ec572a781ed1", "asm": "0014000b814f2c1a19852357ed615a08ec572a781ed1"}, "vout": 2, "txid": "399e5e155f876a57e80edb31d134d70b32ef36108acfca876088dbeac6702245"}, {"txinwitness": ["3044022037b58d89a925d26e18914727cec3fac34e533b74c9e7c20196c9ed8d664248ef022054ed59286d5548f43ec58390846ccc343f1ea2e10dfcb1e6e90af8c4be747ed001", "034aaad129cd8d57a6557fd8d08ad68cd453222c5b3e9bfc19d6a4412b0aef09f3"], "sequence": 4294967295, "scriptSig": {"hex": "16001423a928fff63d5306e505afdb4ed61fe983eb7ab5", "asm": "001423a928fff63d5306e505afdb4ed61fe983eb7ab5"}, "vout": 20, "txid": "d5da1d5603b2797bce3e5110a1598eba04c2bb9dc0224a4dda7eea308e7c658c"}, {"txinwitness": ["30440220189761526aab5004bae543c4325a37024c413c585ce532c4b37c5d005c77018d022027a69d707346d590fbb62a277ecdb6a4237e074fda731fdc3f1c62faf00681c101", "0357f12ae1200de23d8f9f659e2751554cca62e88af1bd136ae18af526bed06b1a"], "sequence": 4294967295, "scriptSig": {"hex": "1600143b3d266999ad9d8c0b3c1f04c1d62442f0bf6a1b", "asm": "00143b3d266999ad9d8c0b3c1f04c1d62442f0bf6a1b"}, "vout": 0, "txid": "ae182f992d112912013daf9bf757d2d6343e8122684ab8e7761e83577c636b72"}, {"txinwitness": ["304402204789a0eda0c243c548ffa7140fc2e73c4803be03175cdb7c58d3a371f7e5654e0220672edda0d8ff7b5ef6721d1dc9948ca21426de6ae716adb1a5d266e8a3795e3101", "03b870c24003518d67df75086ef1bc89c22c911dacb7e1dfdd9099cfc7d4d3d9c1"], "sequence": 4294967295, "scriptSig": {"hex": "160014dd207cbe960f99ec9d014a099be26520d0dd7c46", "asm": "0014dd207cbe960f99ec9d014a099be26520d0dd7c46"}, "vout": 8, "txid": "70c1cdec4527d21bb108a5c0ebce70729735e2cd7173cfe0c02f15d0817780d4"}], "txid": "8b16f11fd8cc29a1390f3699c011f68fa7b8fb9ed9926348a3591d57594a0a52", "blocktime": 1537870928, "version": 1, "confirmations": 11512, "time": 1537870928, "locktime": 0, "vsize": 1507, "size": 2716}