{"hash": "8b16d7e71f52d96473c4694e0c1f991ebfb1be32fa7f6da88b7463095ebcbbcb", "blockhash": "00000000000000000018f53835495a110e01622372bf6ae95dc86f2b0ab887b0", "vout": [{"scriptPubKey": {"reqSigs": 1, "hex": "a914df80c010b84279e1393fc352a0b4ed84e6fb795587", "addresses": ["3N4nr3eetfXErJkSWfPsAhcCrD28gwEnYG"], "asm": "OP_HASH160 df80c010b84279e1393fc352a0b4ed84e6fb7955 OP_EQUAL", "type": "scripthash"}, "value": 0.04606834, "n": 0}, {"scriptPubKey": {"reqSigs": 1, "hex": "76a9144a04ff69be1172fcf969053a483e51075139447888ac", "addresses": ["17kNzSeh3pLCcdpWALqhRMVxY8pmNELhqG"], "asm": "OP_DUP OP_HASH160 4a04ff69be1172fcf969053a483e510751394478 OP_EQUALVERIFY OP_CHECKSIG", "type": "pubkeyhash"}, "value": 0.22459561, "n": 1}], "hex": "0200000001f00d7d88d9a5c060a2619ca4b0cc0366fe7aa1f168f78ef3268834a584a0c68b010000006a4730440220042310134983640ee452e49b1b3c19b059bd3bb610b5956133f11682c32af76e02200f0e541da65a34114977df330ff30d8e17eb8dcca8a2318b92447b00e0fbbab701210308a574d5eb731eac41455fa99b3e2a6e36f184147b584a5f9b14b5df38e30799ffffffff02724b46000000000017a914df80c010b84279e1393fc352a0b4ed84e6fb795587a9b45601000000001976a9144a04ff69be1172fcf969053a483e51075139447888ac00000000", "vin": [{"sequence": 4294967295, "scriptSig": {"hex": "4730440220042310134983640ee452e49b1b3c19b059bd3bb610b5956133f11682c32af76e02200f0e541da65a34114977df330ff30d8e17eb8dcca8a2318b92447b00e0fbbab701210308a574d5eb731eac41455fa99b3e2a6e36f184147b584a5f9b14b5df38e30799", "asm": "30440220042310134983640ee452e49b1b3c19b059bd3bb610b5956133f11682c32af76e02200f0e541da65a34114977df330ff30d8e17eb8dcca8a2318b92447b00e0fbbab7[ALL] 0308a574d5eb731eac41455fa99b3e2a6e36f184147b584a5f9b14b5df38e30799"}, "vout": 1, "txid": "8bc6a084a5348826f38ef768f1a17afe6603ccb0a49c61a260c0a5d9887d0df0"}], "txid": "8b16d7e71f52d96473c4694e0c1f991ebfb1be32fa7f6da88b7463095ebcbbcb", "blocktime": 1537870928, "version": 2, "confirmations": 11512, "time": 1537870928, "locktime": 0, "vsize": 223, "size": 223}