{"hash": "8b16f69eb4e539ed3235b3690fd9cbfe175e9d1f09add04f0afe1d9ce8c5ea9a", "blockhash": "0000000000000000000e13cef7c366c0283d82e591d1acd082e914b08063cdf1", "vout": [{"scriptPubKey": {"reqSigs": 1, "hex": "a9149cfc4eb06608b9920539e44fb78e392341357cbe87", "addresses": ["3G15b6NEAXEAK6CaGrZF7dUxJ6ezTQGSAK"], "asm": "OP_HASH160 9cfc4eb06608b9920539e44fb78e392341357cbe OP_EQUAL", "type": "scripthash"}, "value": 0.006666, "n": 0}, {"scriptPubKey": {"reqSigs": 1, "hex": "76a91447a02045aa95c5ac522b9243e4fb4ecaddad436688ac", "addresses": ["17XioNggoEKd5yHeqfKJAwx9uG7bRwHYTE"], "asm": "OP_DUP OP_HASH160 47a02045aa95c5ac522b9243e4fb4ecaddad4366 OP_EQUALVERIFY OP_CHECKSIG", "type": "pubkeyhash"}, "value": 0.24826198, "n": 1}], "hex": "0100000001b28971fe49e6f12a003a510b1685403d3f76573532e6462f1fe5150e4fb18d0a010000006a47304402202da7f59fa8881d5a44bd9d01cc6cf0132150fbb86622d6ff7ecf17050b95a49b02203cacd7e5cf5673af3d50a1ab92f1e2ccf145de31f22e6ae11aaa5b26e5f7d3d2012102558213d78e497e1f03c3f94bdac1892e2c20f258dfae4841c1977f79695e650dffffffff02e82b0a000000000017a9149cfc4eb06608b9920539e44fb78e392341357cbe8756d17a01000000001976a91447a02045aa95c5ac522b9243e4fb4ecaddad436688ac00000000", "vin": [{"sequence": 4294967295, "scriptSig": {"hex": "47304402202da7f59fa8881d5a44bd9d01cc6cf0132150fbb86622d6ff7ecf17050b95a49b02203cacd7e5cf5673af3d50a1ab92f1e2ccf145de31f22e6ae11aaa5b26e5f7d3d2012102558213d78e497e1f03c3f94bdac1892e2c20f258dfae4841c1977f79695e650d", "asm": "304402202da7f59fa8881d5a44bd9d01cc6cf0132150fbb86622d6ff7ecf17050b95a49b02203cacd7e5cf5673af3d50a1ab92f1e2ccf145de31f22e6ae11aaa5b26e5f7d3d2[ALL] 02558213d78e497e1f03c3f94bdac1892e2c20f258dfae4841c1977f79695e650d"}, "vout": 1, "txid": "0a8db14f0e15e51f2f46e6323557763f3d4085160b513a002af1e649fe7189b2"}], "txid": "8b16f69eb4e539ed3235b3690fd9cbfe175e9d1f09add04f0afe1d9ce8c5ea9a", "blocktime": 1537871767, "version": 1, "confirmations": 11495, "time": 1537871767, "locktime": 0, "vsize": 223, "size": 223}