{"hash": "8b1aaabfe862b6395db6993e27f83924fce5039114c68b536866f0b0de6c9eeb", "blockhash": "0000000000000000001cda96e906b7601b7a6fb1a3b62bca570a9e5d8f4b3de1", "vout": [{"scriptPubKey": {"reqSigs": 1, "hex": "a91496cd90897247489217b0d352e8d8defd952db1d887", "addresses": ["3FSPYCNj9msNXWUwej1f1b87K8w7QvzeEu"], "asm": "OP_HASH160 96cd90897247489217b0d352e8d8defd952db1d8 OP_EQUAL", "type": "scripthash"}, "value": 0.2131, "n": 0}, {"scriptPubKey": {"reqSigs": 1, "hex": "76a914d5ba2eb2d52670fbe9522748bf642da754eb0d6f88ac", "addresses": ["1LV5y3NkVkmdWnF6xRCEXrAnUkRgge4KSq"], "asm": "OP_DUP OP_HASH160 d5ba2eb2d52670fbe9522748bf642da754eb0d6f OP_EQUALVERIFY OP_CHECKSIG", "type": "pubkeyhash"}, "value": 9.24588596, "n": 1}], "hex": "010000000113f58201c1c6e1267ffe192e89f120e30b17bd226c57b030c0fee1ebda6d1f61010000006a47304402200c0478573ae8cc23e6d664712fe7441048f2e981341e62aabb22b686574d96d70220067eecefb2e04e6fa00f9b714bf371db06e5153296d60efed8f73feed2151078012102c19ebc0e7fe714e24c55adaeebc7dbab2dc9a208b511bd1b6e83db85506d4d19ffffffff02302a45010000000017a91496cd90897247489217b0d352e8d8defd952db1d887341a1c37000000001976a914d5ba2eb2d52670fbe9522748bf642da754eb0d6f88ac00000000", "vin": [{"sequence": 4294967295, "scriptSig": {"hex": "47304402200c0478573ae8cc23e6d664712fe7441048f2e981341e62aabb22b686574d96d70220067eecefb2e04e6fa00f9b714bf371db06e5153296d60efed8f73feed2151078012102c19ebc0e7fe714e24c55adaeebc7dbab2dc9a208b511bd1b6e83db85506d4d19", "asm": "304402200c0478573ae8cc23e6d664712fe7441048f2e981341e62aabb22b686574d96d70220067eecefb2e04e6fa00f9b714bf371db06e5153296d60efed8f73feed2151078[ALL] 02c19ebc0e7fe714e24c55adaeebc7dbab2dc9a208b511bd1b6e83db85506d4d19"}, "vout": 1, "txid": "611f6ddaebe1fec030b0576c22bd170be320f1892e19fe7f26e1c6c10182f513"}], "txid": "8b1aaabfe862b6395db6993e27f83924fce5039114c68b536866f0b0de6c9eeb", "blocktime": 1537873282, "version": 1, "confirmations": 11484, "time": 1537873282, "locktime": 0, "vsize": 223, "size": 223}