{"hash": "8b28ba0e4022da2ff3e34a83923a12d730c6a49b9f516066bae838f89a27c4b6", "blockhash": "00000000000000000017f5eb5941039fbcee6240d03bc1f2f8e35350df66a1d8", "vout": [{"scriptPubKey": {"reqSigs": 1, "hex": "a914cc5d5ac25d09f64ea956690ff8bc2f966872a30c87", "addresses": ["3LKbc4drYGLLR5FkjAFeQunLEohfYBZV4G"], "asm": "OP_HASH160 cc5d5ac25d09f64ea956690ff8bc2f966872a30c OP_EQUAL", "type": "scripthash"}, "value": 0.03908797, "n": 0}, {"scriptPubKey": {"reqSigs": 1, "hex": "76a914460339fb6833095c14a393ac1e042cf71bdb898e88ac", "addresses": ["17PCAcJqwsvtWDAMnMFvJhJwZpP5F61kGx"], "asm": "OP_DUP OP_HASH160 460339fb6833095c14a393ac1e042cf71bdb898e OP_EQUALVERIFY OP_CHECKSIG", "type": "pubkeyhash"}, "value": 0.10837575, "n": 1}], "hex": "0100000001dac2f61c73cace43be72c6f6f6e545ab89ced3809de47b035270f2c0082e7fa2000000006a4730440220117ea3103a5a2f94caa8cfdd7d7c7640901beded4e39f0781ae7afbe3afe7488022056855e7ee3e7b33a18e04b43926b75b3b7dbdf72912f1999bd7fc408f76702fd0121029560a0b35e5df3701659424cc8e5f35135e804f0b8cde1b32409df4585799650ffffffff02bda43b000000000017a914cc5d5ac25d09f64ea956690ff8bc2f966872a30c87475ea500000000001976a914460339fb6833095c14a393ac1e042cf71bdb898e88ac00000000", "vin": [{"sequence": 4294967295, "scriptSig": {"hex": "4730440220117ea3103a5a2f94caa8cfdd7d7c7640901beded4e39f0781ae7afbe3afe7488022056855e7ee3e7b33a18e04b43926b75b3b7dbdf72912f1999bd7fc408f76702fd0121029560a0b35e5df3701659424cc8e5f35135e804f0b8cde1b32409df4585799650", "asm": "30440220117ea3103a5a2f94caa8cfdd7d7c7640901beded4e39f0781ae7afbe3afe7488022056855e7ee3e7b33a18e04b43926b75b3b7dbdf72912f1999bd7fc408f76702fd[ALL] 029560a0b35e5df3701659424cc8e5f35135e804f0b8cde1b32409df4585799650"}, "vout": 0, "txid": "a27f2e08c0f27052037be49d80d3ce89ab45e5f6f6c672be43ceca731cf6c2da"}], "txid": "8b28ba0e4022da2ff3e34a83923a12d730c6a49b9f516066bae838f89a27c4b6", "blocktime": 1537874412, "version": 1, "confirmations": 11467, "time": 1537874412, "locktime": 0, "vsize": 223, "size": 223}