{"hash": "8b2d151d04660310c4c3b1ac9eb019ac833136b474c799768492c01c652ee020", "blockhash": "0000000000000000001e0dab787dd257d1dbfcb92a98c2207d5e1078be1f4165", "vout": [{"scriptPubKey": {"reqSigs": 1, "hex": "a9149920d123d22a8072862bfccdbfd25d868f1585ae87", "addresses": ["3Fegd4BWYSoMcVYQmQitHR6CYkGaqJrkdg"], "asm": "OP_HASH160 9920d123d22a8072862bfccdbfd25d868f1585ae OP_EQUAL", "type": "scripthash"}, "value": 0.00808213, "n": 0}, {"scriptPubKey": {"reqSigs": 1, "hex": "76a9141452c1b68055b3fd14b2c3a8dcb0b9e044d08f4f88ac", "addresses": ["12rTesbRxZtqT8BL9jBGLy2hLcHwtXBLkC"], "asm": "OP_DUP OP_HASH160 1452c1b68055b3fd14b2c3a8dcb0b9e044d08f4f OP_EQUALVERIFY OP_CHECKSIG", "type": "pubkeyhash"}, "value": 0.00010545, "n": 1}], "hex": "010000000479768e9f20b74830bc1b8f527475a82335ef2f28f6b570c734194e432409e31801000000db00483045022100d8b2129763293315345450bede0f021ca0c467113a591e12f1dc49910e40ba8e0220614ba4887f3ed57340f0db97d37fcb2d99d99ffdff494ece4849f3ea7972a63101483045022100ceae6e3fe4d3784ba2d3d67d4675b73b2a7c4d0c2388a5d09ec2a6d2d3fc94c0022037e1eed3cc76971b27cdca59475beab9a73b2e98566a50b1485f54963974fa3f0147522102907a54bed8ad74b3f35638c60114ca240a308cb986f3f2f306178869a8880b612103697efcbf1252214bbf402d76e93993d2aa08423377800795a703997e812562b852aeffffffff498ef0bd4f10d5e9db8727f0eb3cd2f8a1467490dfd132408cc0cce627609fa800000000db00483045022100faf3cb6c6c38d4e2ae8d61cc58cd842df064d02a0971e273ba4541765d7ab782022043da4a8fb8d651c94184e33212e4e82a7ff530c048c6da0232328d9997e2474401483045022100a2ab443da55e4809e10f520eddedc2a05001bd212a67f0e0477e61f00ab00df2022030387fb92689e4904ae4aef8f4faf8817106951d96387a167b02265a5edd81240147522102907a54bed8ad74b3f35638c60114ca240a308cb986f3f2f306178869a8880b612102e8a91510e0f0c17f47c51db5ab91d01481775f4d7d66acca32e760c241873d8a52aeffffffff8ce253af4a2dc507ef629d2087726fa6762f87f813e1b6656bfacb08457c3de901000000da0048304502210080556ce6e7a645a19fb4b97322c033b57d5a806d202902d469a9cdc0d7cfe2a8022040035bab613721455dabac4aceae2d62939ccb31c456737fc055f93a0cdf257c01473044022005c49c488852cca42acbd6b2e7d329a8c84ad456580aeca526d7e3f0a6f5351102207a271202dac0b20aacfcda0e8e7c0aa0febf45337f21aaf827d55b4c032f5fc00147522102907a54bed8ad74b3f35638c60114ca240a308cb986f3f2f306178869a8880b61210367da8c0f5edbf8727e1a610f23560c6e116eb819d8d50be7f49c8412a650e38d52aeffffffff29c46ebbda8e1398623f11156c2bb6fea537abf795b7af79264b0b305f4c5da8020000006b4830450221008156d561584570690b5b728cd6747a13112f4e9ba514fb91f569007b2e5c73b502202db245827ffb5e358381b63097c62c16e1da3b7917eb7a87cbdcb589f80b8d8f01210273fea08d5f4d568c19764b0ab74fe99422eb06225171fa47203b0d9eb570a5f0ffffffff0215550c000000000017a9149920d123d22a8072862bfccdbfd25d868f1585ae8731290000000000001976a9141452c1b68055b3fd14b2c3a8dcb0b9e044d08f4f88ac00000000", "vin": [{"sequence": 4294967295, "scriptSig": {"hex": "00483045022100d8b2129763293315345450bede0f021ca0c467113a591e12f1dc49910e40ba8e0220614ba4887f3ed57340f0db97d37fcb2d99d99ffdff494ece4849f3ea7972a63101483045022100ceae6e3fe4d3784ba2d3d67d4675b73b2a7c4d0c2388a5d09ec2a6d2d3fc94c0022037e1eed3cc76971b27cdca59475beab9a73b2e98566a50b1485f54963974fa3f0147522102907a54bed8ad74b3f35638c60114ca240a308cb986f3f2f306178869a8880b612103697efcbf1252214bbf402d76e93993d2aa08423377800795a703997e812562b852ae", "asm": "0 3045022100d8b2129763293315345450bede0f021ca0c467113a591e12f1dc49910e40ba8e0220614ba4887f3ed57340f0db97d37fcb2d99d99ffdff494ece4849f3ea7972a631[ALL] 3045022100ceae6e3fe4d3784ba2d3d67d4675b73b2a7c4d0c2388a5d09ec2a6d2d3fc94c0022037e1eed3cc76971b27cdca59475beab9a73b2e98566a50b1485f54963974fa3f[ALL] 522102907a54bed8ad74b3f35638c60114ca240a308cb986f3f2f306178869a8880b612103697efcbf1252214bbf402d76e93993d2aa08423377800795a703997e812562b852ae"}, "vout": 1, "txid": "18e30924434e1934c770b5f6282fef3523a87574528f1bbc3048b7209f8e7679"}, {"sequence": 4294967295, "scriptSig": {"hex": "00483045022100faf3cb6c6c38d4e2ae8d61cc58cd842df064d02a0971e273ba4541765d7ab782022043da4a8fb8d651c94184e33212e4e82a7ff530c048c6da0232328d9997e2474401483045022100a2ab443da55e4809e10f520eddedc2a05001bd212a67f0e0477e61f00ab00df2022030387fb92689e4904ae4aef8f4faf8817106951d96387a167b02265a5edd81240147522102907a54bed8ad74b3f35638c60114ca240a308cb986f3f2f306178869a8880b612102e8a91510e0f0c17f47c51db5ab91d01481775f4d7d66acca32e760c241873d8a52ae", "asm": "0 3045022100faf3cb6c6c38d4e2ae8d61cc58cd842df064d02a0971e273ba4541765d7ab782022043da4a8fb8d651c94184e33212e4e82a7ff530c048c6da0232328d9997e24744[ALL] 3045022100a2ab443da55e4809e10f520eddedc2a05001bd212a67f0e0477e61f00ab00df2022030387fb92689e4904ae4aef8f4faf8817106951d96387a167b02265a5edd8124[ALL] 522102907a54bed8ad74b3f35638c60114ca240a308cb986f3f2f306178869a8880b612102e8a91510e0f0c17f47c51db5ab91d01481775f4d7d66acca32e760c241873d8a52ae"}, "vout": 0, "txid": "a89f6027e6ccc08c4032d1df907446a1f8d23cebf02787dbe9d5104fbdf08e49"}, {"sequence": 4294967295, "scriptSig": {"hex": "0048304502210080556ce6e7a645a19fb4b97322c033b57d5a806d202902d469a9cdc0d7cfe2a8022040035bab613721455dabac4aceae2d62939ccb31c456737fc055f93a0cdf257c01473044022005c49c488852cca42acbd6b2e7d329a8c84ad456580aeca526d7e3f0a6f5351102207a271202dac0b20aacfcda0e8e7c0aa0febf45337f21aaf827d55b4c032f5fc00147522102907a54bed8ad74b3f35638c60114ca240a308cb986f3f2f306178869a8880b61210367da8c0f5edbf8727e1a610f23560c6e116eb819d8d50be7f49c8412a650e38d52ae", "asm": "0 304502210080556ce6e7a645a19fb4b97322c033b57d5a806d202902d469a9cdc0d7cfe2a8022040035bab613721455dabac4aceae2d62939ccb31c456737fc055f93a0cdf257c[ALL] 3044022005c49c488852cca42acbd6b2e7d329a8c84ad456580aeca526d7e3f0a6f5351102207a271202dac0b20aacfcda0e8e7c0aa0febf45337f21aaf827d55b4c032f5fc0[ALL] 522102907a54bed8ad74b3f35638c60114ca240a308cb986f3f2f306178869a8880b61210367da8c0f5edbf8727e1a610f23560c6e116eb819d8d50be7f49c8412a650e38d52ae"}, "vout": 1, "txid": "e93d7c4508cbfa6b65b6e113f8872f76a66f7287209d62ef07c52d4aaf53e28c"}, {"sequence": 4294967295, "scriptSig": {"hex": "4830450221008156d561584570690b5b728cd6747a13112f4e9ba514fb91f569007b2e5c73b502202db245827ffb5e358381b63097c62c16e1da3b7917eb7a87cbdcb589f80b8d8f01210273fea08d5f4d568c19764b0ab74fe99422eb06225171fa47203b0d9eb570a5f0", "asm": "30450221008156d561584570690b5b728cd6747a13112f4e9ba514fb91f569007b2e5c73b502202db245827ffb5e358381b63097c62c16e1da3b7917eb7a87cbdcb589f80b8d8f[ALL] 0273fea08d5f4d568c19764b0ab74fe99422eb06225171fa47203b0d9eb570a5f0"}, "vout": 2, "txid": "a85d4c5f300b4b2679afb795f7ab37a5feb62b6c15113f6298138edabb6ec429"}], "txid": "8b2d151d04660310c4c3b1ac9eb019ac833136b474c799768492c01c652ee020", "blocktime": 1537872475, "version": 1, "confirmations": 11486, "time": 1537872475, "locktime": 0, "vsize": 1003, "size": 1003}