{"hash": "8b2fb66b2e35bc26617f9bf4027319355c52019de430bc550c839a91306a7a58", "blockhash": "00000000000000000017f5eb5941039fbcee6240d03bc1f2f8e35350df66a1d8", "vout": [{"scriptPubKey": {"reqSigs": 1, "hex": "76a914b6ad3dd3ed13c8bba50dd3c964798dc17cc9ec1588ac", "addresses": ["1HeuWwnhsbZUC2NGRtB4ohxeAZqBaNW6hc"], "asm": "OP_DUP OP_HASH160 b6ad3dd3ed13c8bba50dd3c964798dc17cc9ec15 OP_EQUALVERIFY OP_CHECKSIG", "type": "pubkeyhash"}, "value": 0.003482, "n": 0}, {"scriptPubKey": {"reqSigs": 1, "hex": "76a9144b39241429ca265e331f257b21a0929f3b93f6be88ac", "addresses": ["17rk8cKHvqw9PMKUE3et7qK7zJj3NafLBg"], "asm": "OP_DUP OP_HASH160 4b39241429ca265e331f257b21a0929f3b93f6be OP_EQUALVERIFY OP_CHECKSIG", "type": "pubkeyhash"}, "value": 1.0, "n": 1}], "hex": "0100000002a5f3bb4aa133b3a72f4febfbd16489d572ddd5afe15e2d5ad5249a05bcd0a648000000006b483045022100ee81c3719de87fc32630199f3218361c64e27f4f11e8fb239743e39d612fcca6022059232c95f6314165ea277833630a9aa13794aa0ddf9dd413cbed5c8eeb98fd53012102a4399a486a15ca19e86840c8be19fbf94c9c616d3711b132d7e4e46c138f54eeffffffff30a4b0ba6cf717d5e1e44e2b44b2e90c749d21fd96fccfb122a92fb98959c5b8010000006b483045022100fc6d0f8544971121cdce0cd10c5afd8b1f2a5b377e90f5fb0a2467393db6dc1f0220641b9a0cf225f70cce7d33bd5e75854cb0a6b23afa8bd10aef861e8354119999012102a3a079e4664c82cd0d97d768a44edda949c9b1dfafe9082170cff7b745513e72ffffffff0228500500000000001976a914b6ad3dd3ed13c8bba50dd3c964798dc17cc9ec1588ac00e1f505000000001976a9144b39241429ca265e331f257b21a0929f3b93f6be88ac00000000", "vin": [{"sequence": 4294967295, "scriptSig": {"hex": "483045022100ee81c3719de87fc32630199f3218361c64e27f4f11e8fb239743e39d612fcca6022059232c95f6314165ea277833630a9aa13794aa0ddf9dd413cbed5c8eeb98fd53012102a4399a486a15ca19e86840c8be19fbf94c9c616d3711b132d7e4e46c138f54ee", "asm": "3045022100ee81c3719de87fc32630199f3218361c64e27f4f11e8fb239743e39d612fcca6022059232c95f6314165ea277833630a9aa13794aa0ddf9dd413cbed5c8eeb98fd53[ALL] 02a4399a486a15ca19e86840c8be19fbf94c9c616d3711b132d7e4e46c138f54ee"}, "vout": 0, "txid": "48a6d0bc059a24d55a2d5ee1afd5dd72d58964d1fbeb4f2fa7b333a14abbf3a5"}, {"sequence": 4294967295, "scriptSig": {"hex": "483045022100fc6d0f8544971121cdce0cd10c5afd8b1f2a5b377e90f5fb0a2467393db6dc1f0220641b9a0cf225f70cce7d33bd5e75854cb0a6b23afa8bd10aef861e8354119999012102a3a079e4664c82cd0d97d768a44edda949c9b1dfafe9082170cff7b745513e72", "asm": "3045022100fc6d0f8544971121cdce0cd10c5afd8b1f2a5b377e90f5fb0a2467393db6dc1f0220641b9a0cf225f70cce7d33bd5e75854cb0a6b23afa8bd10aef861e8354119999[ALL] 02a3a079e4664c82cd0d97d768a44edda949c9b1dfafe9082170cff7b745513e72"}, "vout": 1, "txid": "b8c55989b92fa922b1cffc96fd219d740ce9b2442b4ee4e1d517f76cbab0a430"}], "txid": "8b2fb66b2e35bc26617f9bf4027319355c52019de430bc550c839a91306a7a58", "blocktime": 1537874412, "version": 1, "confirmations": 11468, "time": 1537874412, "locktime": 0, "vsize": 374, "size": 374}