{"hash": "8b305c723cfe2af70c5e51cfb038527d6f6b77c5f5876fcb95e0234c13e8d397", "blockhash": "00000000000000000018f53835495a110e01622372bf6ae95dc86f2b0ab887b0", "vout": [{"scriptPubKey": {"reqSigs": 1, "hex": "76a914f3686a52f920b313b611848d23ef23ec1e177d0188ac", "addresses": ["1PC2HX6whC7CRcDndwXwDr1JVJMZExPUib"], "asm": "OP_DUP OP_HASH160 f3686a52f920b313b611848d23ef23ec1e177d01 OP_EQUALVERIFY OP_CHECKSIG", "type": "pubkeyhash"}, "value": 5.46e-06, "n": 0}, {"scriptPubKey": {"type": "nulldata", "hex": "6a146f6d6e69000000000000001f000000037e11d600", "asm": "OP_RETURN 6f6d6e69000000000000001f000000037e11d600"}, "value": 0.0, "n": 1}, {"scriptPubKey": {"reqSigs": 1, "hex": "76a914eb894abecac9634245af3c60ce1c75167c209a1588ac", "addresses": ["1NUQGJ355hXPtoZmAQVzGkDRCcBwG2EP8B"], "asm": "OP_DUP OP_HASH160 eb894abecac9634245af3c60ce1c75167c209a15 OP_EQUALVERIFY OP_CHECKSIG", "type": "pubkeyhash"}, "value": 0.00456006, "n": 2}], "hex": "0100000001d52cfe0193b5aa8fc308bc5e83356e0bebcfddac3c43541784e1a562e7b9565b020000006b483045022100d8f307a9464c266b794bdfc784d55a33f47c1a7f3e0e66c2d6b582fb84492233022010b4fbde9968b3b8f293339fc4b8207b3b53169f33e23294b52048d11c16f9d5012102050ab9b48aa059ce2c6ee8065aa2c0efb0d7f53d8289f576add95ecbe7846faeffffffff0322020000000000001976a914f3686a52f920b313b611848d23ef23ec1e177d0188ac0000000000000000166a146f6d6e69000000000000001f000000037e11d60046f50600000000001976a914eb894abecac9634245af3c60ce1c75167c209a1588ac00000000", "vin": [{"sequence": 4294967295, "scriptSig": {"hex": "483045022100d8f307a9464c266b794bdfc784d55a33f47c1a7f3e0e66c2d6b582fb84492233022010b4fbde9968b3b8f293339fc4b8207b3b53169f33e23294b52048d11c16f9d5012102050ab9b48aa059ce2c6ee8065aa2c0efb0d7f53d8289f576add95ecbe7846fae", "asm": "3045022100d8f307a9464c266b794bdfc784d55a33f47c1a7f3e0e66c2d6b582fb84492233022010b4fbde9968b3b8f293339fc4b8207b3b53169f33e23294b52048d11c16f9d5[ALL] 02050ab9b48aa059ce2c6ee8065aa2c0efb0d7f53d8289f576add95ecbe7846fae"}, "vout": 2, "txid": "5b56b9e762a5e1841754433cacddcfeb0b6e35835ebc08c38faab59301fe2cd5"}], "txid": "8b305c723cfe2af70c5e51cfb038527d6f6b77c5f5876fcb95e0234c13e8d397", "blocktime": 1537870928, "version": 1, "confirmations": 11512, "time": 1537870928, "locktime": 0, "vsize": 257, "size": 257}