{"hash": "8b33ffdeaafac9dcbecf1a4a79dd194ec198e5aca366caf47d86c81677977bc5", "blockhash": "0000000000000000000baef3f32e3676a92c3b2e5da21b426e4f302fc371ce76", "vout": [{"scriptPubKey": {"reqSigs": 1, "hex": "a91437e143a62dab0d135358ce1bc233ec8a2b165bed87", "addresses": ["36nUwjFLWxgH54GHuhvKsVDLsifR4e2DgE"], "asm": "OP_HASH160 37e143a62dab0d135358ce1bc233ec8a2b165bed OP_EQUAL", "type": "scripthash"}, "value": 0.0279295, "n": 0}], "hex": "0100000001f6101fd9b3cd77f6d8349d2e0e0e5d113c7ba39283d207f525ce17b4cf06477d000000006a47304402203e781e86760f4651c795da002fb397ddcacf41709bdede7ba7f3addee6b781980220134bd1ce949f3defc78c5012e0a7d022c13d1bd0b60b60e734456f057604ef1f012103b1c7ba3b35f38ed9214c10b31779461ec68f7f11dba817f3a437a6328f7ec330feffffff01f69d2a000000000017a91437e143a62dab0d135358ce1bc233ec8a2b165bed8716490800", "vin": [{"sequence": 4294967294, "scriptSig": {"hex": "47304402203e781e86760f4651c795da002fb397ddcacf41709bdede7ba7f3addee6b781980220134bd1ce949f3defc78c5012e0a7d022c13d1bd0b60b60e734456f057604ef1f012103b1c7ba3b35f38ed9214c10b31779461ec68f7f11dba817f3a437a6328f7ec330", "asm": "304402203e781e86760f4651c795da002fb397ddcacf41709bdede7ba7f3addee6b781980220134bd1ce949f3defc78c5012e0a7d022c13d1bd0b60b60e734456f057604ef1f[ALL] 03b1c7ba3b35f38ed9214c10b31779461ec68f7f11dba817f3a437a6328f7ec330"}, "vout": 0, "txid": "7d4706cfb417ce25f507d28392a37b3c115d0e0e2e9d34d8f677cdb3d91f10f6"}], "txid": "8b33ffdeaafac9dcbecf1a4a79dd194ec198e5aca366caf47d86c81677977bc5", "blocktime": 1537876114, "version": 1, "confirmations": 11460, "time": 1537876114, "locktime": 542998, "vsize": 189, "size": 189}