{"hash": "8b3dbf05edc214b74a4029c9373c4e9d9bd6ec1247e56745581877260f765b67", "blockhash": "0000000000000000001cda96e906b7601b7a6fb1a3b62bca570a9e5d8f4b3de1", "vout": [{"scriptPubKey": {"reqSigs": 1, "hex": "76a9145501874cfef369e3da400f992e7db3b3e523ca9d88ac", "addresses": ["18kUGWX1ZpQBasayrCjynfXkEskn1qyHkA"], "asm": "OP_DUP OP_HASH160 5501874cfef369e3da400f992e7db3b3e523ca9d OP_EQUALVERIFY OP_CHECKSIG", "type": "pubkeyhash"}, "value": 0.20592675, "n": 0}, {"scriptPubKey": {"reqSigs": 1, "hex": "76a914062bf537c185aed3158060f3bfd84bb7f677a4e988ac", "addresses": ["1ZdiQ6SgkJgLvAXDttkhdFosAGc1MP2PQ"], "asm": "OP_DUP OP_HASH160 062bf537c185aed3158060f3bfd84bb7f677a4e9 OP_EQUALVERIFY OP_CHECKSIG", "type": "pubkeyhash"}, "value": 0.217084, "n": 1}], "hex": "01000000017091a45dca8e5ebf256549b0bee29e2a2701c8e8318d5c235519be139c1b6248010000006a473044022028177bf414fb9d553ecb1b13c0dac2dea39224dc799bc129d0d59c9d7386d92002206bf56afe09200986c1e9667a1ed056faefeb3be56115cc72539804f06dbf07ac0121029898a78115dbdcd442c5fd4c7644294b29e78e827dab10c60fef0036016530efffffffff0223383a01000000001976a9145501874cfef369e3da400f992e7db3b3e523ca9d88ac703e4b01000000001976a914062bf537c185aed3158060f3bfd84bb7f677a4e988ac00000000", "vin": [{"sequence": 4294967295, "scriptSig": {"hex": "473044022028177bf414fb9d553ecb1b13c0dac2dea39224dc799bc129d0d59c9d7386d92002206bf56afe09200986c1e9667a1ed056faefeb3be56115cc72539804f06dbf07ac0121029898a78115dbdcd442c5fd4c7644294b29e78e827dab10c60fef0036016530ef", "asm": "3044022028177bf414fb9d553ecb1b13c0dac2dea39224dc799bc129d0d59c9d7386d92002206bf56afe09200986c1e9667a1ed056faefeb3be56115cc72539804f06dbf07ac[ALL] 029898a78115dbdcd442c5fd4c7644294b29e78e827dab10c60fef0036016530ef"}, "vout": 1, "txid": "48621b9c13be1955235c8d31e8c801272a9ee2beb0496525bf5e8eca5da49170"}], "txid": "8b3dbf05edc214b74a4029c9373c4e9d9bd6ec1247e56745581877260f765b67", "blocktime": 1537873282, "version": 1, "confirmations": 11480, "time": 1537873282, "locktime": 0, "vsize": 225, "size": 225}