{"hash": "8b3e634afe7bbad8e7d81f4ed366601ffaffc00847c9c378dedc5d90afff8ef1", "blockhash": "0000000000000000000e13cef7c366c0283d82e591d1acd082e914b08063cdf1", "vout": [{"scriptPubKey": {"reqSigs": 1, "hex": "76a9149615a38647aed81e50e1d07bd5abc09bc2ec863c88ac", "addresses": ["1EgaHGE42uqtKMB8MEwLqxNNARX27rhpdt"], "asm": "OP_DUP OP_HASH160 9615a38647aed81e50e1d07bd5abc09bc2ec863c OP_EQUALVERIFY OP_CHECKSIG", "type": "pubkeyhash"}, "value": 0.00103533, "n": 0}, {"scriptPubKey": {"reqSigs": 1, "hex": "a914da4810b42c52fe19c0dca29e64edd26c4b1f00cd87", "addresses": ["3MbBZYWYowpTvz9ovZm8SjyVK4Pwtkfqqh"], "asm": "OP_HASH160 da4810b42c52fe19c0dca29e64edd26c4b1f00cd OP_EQUAL", "type": "scripthash"}, "value": 0.00459055, "n": 1}], "hex": "0100000003bba2579ec4bab4fc2576ce1ed49333f13ed0dda10196a2302abcffcb541437420f0000006a4730440220045d3bebc4afe1daccc81846b1b2d54d410750d9d2a96a3d70acba15fd86962b022011fc57fe7ab5c9fead4bb1bcea18d3d463566cfd2998a8ec3ff88111d8d12f1d01210361573ff057c1910d7b09dd1ee7f4f10805654a8f065533755ddc6c61dc8c8509ffffffff0dd94ddead3511881511c8e538cfbbdd7f57c59ad975534096f62b5d5f519d650c0000006a47304402205efeb00bcce3894b84c9bf3546825f6914913aaa9da4fb85b94b577aaa66818302205652cc42d39131b4090cccff84b31d1e11a73cd28eeaab1723a88a07dc1d5a7301210361573ff057c1910d7b09dd1ee7f4f10805654a8f065533755ddc6c61dc8c8509ffffffff40a519161efd21091bb87fe2b61b9d84e4e1cc43d8f53e73438d7d5b6f184785010000006b483045022100a9e75b3829e492d8a6ad0c783a483a82447414e545c19384efa4b28aa04073a2022027f674509015a5fe0c0f0d3fc21648a0f79982660eea5a266d5c358dc0ed5c6201210361573ff057c1910d7b09dd1ee7f4f10805654a8f065533755ddc6c61dc8c8509ffffffff026d940100000000001976a9149615a38647aed81e50e1d07bd5abc09bc2ec863c88ac2f0107000000000017a914da4810b42c52fe19c0dca29e64edd26c4b1f00cd8700000000", "vin": [{"sequence": 4294967295, "scriptSig": {"hex": "4730440220045d3bebc4afe1daccc81846b1b2d54d410750d9d2a96a3d70acba15fd86962b022011fc57fe7ab5c9fead4bb1bcea18d3d463566cfd2998a8ec3ff88111d8d12f1d01210361573ff057c1910d7b09dd1ee7f4f10805654a8f065533755ddc6c61dc8c8509", "asm": "30440220045d3bebc4afe1daccc81846b1b2d54d410750d9d2a96a3d70acba15fd86962b022011fc57fe7ab5c9fead4bb1bcea18d3d463566cfd2998a8ec3ff88111d8d12f1d[ALL] 0361573ff057c1910d7b09dd1ee7f4f10805654a8f065533755ddc6c61dc8c8509"}, "vout": 15, "txid": "42371454cbffbc2a30a29601a1ddd03ef13393d41ece7625fcb4bac49e57a2bb"}, {"sequence": 4294967295, "scriptSig": {"hex": "47304402205efeb00bcce3894b84c9bf3546825f6914913aaa9da4fb85b94b577aaa66818302205652cc42d39131b4090cccff84b31d1e11a73cd28eeaab1723a88a07dc1d5a7301210361573ff057c1910d7b09dd1ee7f4f10805654a8f065533755ddc6c61dc8c8509", "asm": "304402205efeb00bcce3894b84c9bf3546825f6914913aaa9da4fb85b94b577aaa66818302205652cc42d39131b4090cccff84b31d1e11a73cd28eeaab1723a88a07dc1d5a73[ALL] 0361573ff057c1910d7b09dd1ee7f4f10805654a8f065533755ddc6c61dc8c8509"}, "vout": 12, "txid": "659d515f5d2bf696405375d99ac5577fddbbcf38e5c81115881135adde4dd90d"}, {"sequence": 4294967295, "scriptSig": {"hex": "483045022100a9e75b3829e492d8a6ad0c783a483a82447414e545c19384efa4b28aa04073a2022027f674509015a5fe0c0f0d3fc21648a0f79982660eea5a266d5c358dc0ed5c6201210361573ff057c1910d7b09dd1ee7f4f10805654a8f065533755ddc6c61dc8c8509", "asm": "3045022100a9e75b3829e492d8a6ad0c783a483a82447414e545c19384efa4b28aa04073a2022027f674509015a5fe0c0f0d3fc21648a0f79982660eea5a266d5c358dc0ed5c62[ALL] 0361573ff057c1910d7b09dd1ee7f4f10805654a8f065533755ddc6c61dc8c8509"}, "vout": 1, "txid": "8547186f5b7d8d43733ef5d843cce1e4849d1bb6e27fb81b0921fd1e1619a540"}], "txid": "8b3e634afe7bbad8e7d81f4ed366601ffaffc00847c9c378dedc5d90afff8ef1", "blocktime": 1537871767, "version": 1, "confirmations": 11495, "time": 1537871767, "locktime": 0, "vsize": 518, "size": 518}