{"hash": "c8b20480476d55f1bfecf85b01bd1e335233c1e221128863a12b8ffea1b7a07d", "blockhash": "000000000000000000022b45ed06c6f4ccd3cf7fb5ba4856ebd2e58215665228", "vout": [{"scriptPubKey": {"reqSigs": 1, "hex": "76a914ce378078c5393d828a67235fc9158a4250b4359b88ac", "addresses": ["1KoNgrTX9bgKVGQe1F29GtXahT52Pi1S9y"], "asm": "OP_DUP OP_HASH160 ce378078c5393d828a67235fc9158a4250b4359b OP_EQUALVERIFY OP_CHECKSIG", "type": "pubkeyhash"}, "value": 0.00030284, "n": 0}, {"scriptPubKey": {"reqSigs": 1, "hex": "a91491e43fb9ab997ef2c289c9ab9c6d61a920b90ead87", "addresses": ["3EzRLNZnBBCNunuLRG3ECrHbCMih4k5gDY"], "asm": "OP_HASH160 91e43fb9ab997ef2c289c9ab9c6d61a920b90ead OP_EQUAL", "type": "scripthash"}, "value": 0.00044974, "n": 1}], "hex": "01000000000102bb903ca0cfd337501528ed02f8168be1df52e05c84cbd742aa8ccbbb940662780100000023220020dffffb7c71fc32aa81b07b24cbc45b7419bb39586d995ac536776bfbacf98ab7ffffffff30411b142e4cfdaae86ce418bdf773d676048a6277a40d5e0677948fff5110a101000000232200208a61b953a41eff08dbb4e6ee13f6d8ecee4712374dfbdace6291752eec3e8ad9ffffffff024c760000000000001976a914ce378078c5393d828a67235fc9158a4250b4359b88acaeaf00000000000017a91491e43fb9ab997ef2c289c9ab9c6d61a920b90ead8704004730440220212bfcfaab23a1e4eab17fc44f1a88c1846e1d33b6e52dfcad7d16d150e23dce0220548f65dee23c9005bf3cd096d74aaa02badc7765eddcb184d63935bff35acebc01473044022070169efad16eb522cb94c7c8eed08f7d4857638e194eff5f65c6015433bcff5f0220728ca35e9ad5dc48a882e286f550f6ede4f80da5450aab5b5b415809293b786d014752210375746fcfc87512fece9df5fd9ea4cbd55fd95fba981bfd9d966dddb5d1b93b642102726ff74b232948bf3b0b4302934f660ce5f3375e3c0ec0ccd022a4260517f25a52ae0400483045022100946c9eb83adc66b65a29e4d702e70adea1560363a264a6ebad887d17dec00c7602202ba32e6afdf42114104074975767adfc8f4196674355cb74b54002e387498b8501483045022100d415462a7818da1682075fa33608557b779ad083b499495e71b426bc04c74a2102207aa6eeca9ccd9960e5d1f076a09a48bad074edfddacaf9162470615808b9e45a01475221029e983bcd97e621cfde7fce507900e6ffb9d7032fbdc1670d3d5deeb835cb14b22102726ff74b232948bf3b0b4302934f660ce5f3375e3c0ec0ccd022a4260517f25a52ae00000000", "vin": [{"txinwitness": ["", "30440220212bfcfaab23a1e4eab17fc44f1a88c1846e1d33b6e52dfcad7d16d150e23dce0220548f65dee23c9005bf3cd096d74aaa02badc7765eddcb184d63935bff35acebc01", "3044022070169efad16eb522cb94c7c8eed08f7d4857638e194eff5f65c6015433bcff5f0220728ca35e9ad5dc48a882e286f550f6ede4f80da5450aab5b5b415809293b786d01", "52210375746fcfc87512fece9df5fd9ea4cbd55fd95fba981bfd9d966dddb5d1b93b642102726ff74b232948bf3b0b4302934f660ce5f3375e3c0ec0ccd022a4260517f25a52ae"], "sequence": 4294967295, "scriptSig": {"hex": "220020dffffb7c71fc32aa81b07b24cbc45b7419bb39586d995ac536776bfbacf98ab7", "asm": "0020dffffb7c71fc32aa81b07b24cbc45b7419bb39586d995ac536776bfbacf98ab7"}, "vout": 1, "txid": "78620694bbcb8caa42d7cb845ce052dfe18b16f802ed28155037d3cfa03c90bb"}, {"txinwitness": ["", "3045022100946c9eb83adc66b65a29e4d702e70adea1560363a264a6ebad887d17dec00c7602202ba32e6afdf42114104074975767adfc8f4196674355cb74b54002e387498b8501", "3045022100d415462a7818da1682075fa33608557b779ad083b499495e71b426bc04c74a2102207aa6eeca9ccd9960e5d1f076a09a48bad074edfddacaf9162470615808b9e45a01", "5221029e983bcd97e621cfde7fce507900e6ffb9d7032fbdc1670d3d5deeb835cb14b22102726ff74b232948bf3b0b4302934f660ce5f3375e3c0ec0ccd022a4260517f25a52ae"], "sequence": 4294967295, "scriptSig": {"hex": "2200208a61b953a41eff08dbb4e6ee13f6d8ecee4712374dfbdace6291752eec3e8ad9", "asm": "00208a61b953a41eff08dbb4e6ee13f6d8ecee4712374dfbdace6291752eec3e8ad9"}, "vout": 1, "txid": "a11051ff8f9477065e0da477628a0476d673f7bd18e46ce8aafd4c2e141b4130"}], "txid": "8b4e02748bf092eda5dc4748a8ae0c6f6cb834599ac111a4fb831611b2f1b345", "blocktime": 1537869901, "version": 1, "confirmations": 11524, "time": 1537869901, "locktime": 0, "vsize": 338, "size": 668}