{"hash": "8b5537a4b01a88b329c959ec126bbc52090ec0f86faaa9dd738291dad70f626e", "blockhash": "0000000000000000001f0ddff1eddb255c1121bcd4da4f1bc9a0da00cae72433", "vout": [{"scriptPubKey": {"reqSigs": 1, "hex": "76a9145cdff49d59918b7a15213b7f941929bf065e83ee88ac", "addresses": ["19U5TMNEhLexBnraWb242RJEar3CykquZK"], "asm": "OP_DUP OP_HASH160 5cdff49d59918b7a15213b7f941929bf065e83ee OP_EQUALVERIFY OP_CHECKSIG", "type": "pubkeyhash"}, "value": 0.00780921, "n": 0}, {"scriptPubKey": {"reqSigs": 1, "hex": "76a9140c7d7dc9dc2263214bbdbe58a8366156b376ffc088ac", "addresses": ["1293SbVHGk8WqXvPbfgoCqorb2Kpmcgrxf"], "asm": "OP_DUP OP_HASH160 0c7d7dc9dc2263214bbdbe58a8366156b376ffc0 OP_EQUALVERIFY OP_CHECKSIG", "type": "pubkeyhash"}, "value": 0.02118899, "n": 1}], "hex": "010000000130aaea5082acca67a443628220b1cb498d6bb63da58c4a28ae377f2e2a2214fd000000006b483045022100a4d694635950d66c4c2396b2961b745e727e7826cbcf8e91f45d6255cb7d686f02200f6e95839bda004a845c0688d30258bfb88331d951a50302e30744362d942ef00121030be21c9a841efe4e479a12d08efa4b5155317617e4ec98ab95b812ed53d4ec3effffffff0279ea0b00000000001976a9145cdff49d59918b7a15213b7f941929bf065e83ee88acf3542000000000001976a9140c7d7dc9dc2263214bbdbe58a8366156b376ffc088ac00000000", "vin": [{"sequence": 4294967295, "scriptSig": {"hex": "483045022100a4d694635950d66c4c2396b2961b745e727e7826cbcf8e91f45d6255cb7d686f02200f6e95839bda004a845c0688d30258bfb88331d951a50302e30744362d942ef00121030be21c9a841efe4e479a12d08efa4b5155317617e4ec98ab95b812ed53d4ec3e", "asm": "3045022100a4d694635950d66c4c2396b2961b745e727e7826cbcf8e91f45d6255cb7d686f02200f6e95839bda004a845c0688d30258bfb88331d951a50302e30744362d942ef0[ALL] 030be21c9a841efe4e479a12d08efa4b5155317617e4ec98ab95b812ed53d4ec3e"}, "vout": 0, "txid": "fd14222a2e7f37ae284a8ca53db66b8d49cbb120826243a467caac8250eaaa30"}], "txid": "8b5537a4b01a88b329c959ec126bbc52090ec0f86faaa9dd738291dad70f626e", "blocktime": 1537872018, "version": 1, "confirmations": 11489, "time": 1537872018, "locktime": 0, "vsize": 226, "size": 226}