{"hash": "8b581e5b3aced03cf0dee58f1e374da8cdd592608f61352559522a9aed112195", "blockhash": "00000000000000000017f5eb5941039fbcee6240d03bc1f2f8e35350df66a1d8", "vout": [{"scriptPubKey": {"reqSigs": 1, "hex": "76a914057cb534001edd20dbbb69d6af0052b221e92e0488ac", "addresses": ["1W1mp2FsLCz7zHMEwTbHUSzZyCEP9ogRW"], "asm": "OP_DUP OP_HASH160 057cb534001edd20dbbb69d6af0052b221e92e04 OP_EQUALVERIFY OP_CHECKSIG", "type": "pubkeyhash"}, "value": 0.02940693, "n": 0}, {"scriptPubKey": {"reqSigs": 1, "hex": "76a9142dbe678239dd7d3aef4d57b6099597833f9c8abc88ac", "addresses": ["15AsWA7qZiqpGpyYxvZkouSVLdMCrMp8Zf"], "asm": "OP_DUP OP_HASH160 2dbe678239dd7d3aef4d57b6099597833f9c8abc OP_EQUALVERIFY OP_CHECKSIG", "type": "pubkeyhash"}, "value": 2.27775658, "n": 1}], "hex": "0100000001d2bfaf4b17daa23a09c5c60ecf19910c9f50a5f154b44e84e62a77b40d283127010000006a47304402206eaaa25e067bc7641ea711e1f2c3a7555c52dc739afbbd7f3bbb6f06ae5bfe980220502b284eee8dfa6628a94668d29161a117f5fce5902d96e108f162c826be6ab0012102c1459a465a68333deace9798499ab887819402bc034ed85351272030f3391fdfffffffff0215df2c00000000001976a914057cb534001edd20dbbb69d6af0052b221e92e0488acaa94930d000000001976a9142dbe678239dd7d3aef4d57b6099597833f9c8abc88ac00000000", "vin": [{"sequence": 4294967295, "scriptSig": {"hex": "47304402206eaaa25e067bc7641ea711e1f2c3a7555c52dc739afbbd7f3bbb6f06ae5bfe980220502b284eee8dfa6628a94668d29161a117f5fce5902d96e108f162c826be6ab0012102c1459a465a68333deace9798499ab887819402bc034ed85351272030f3391fdf", "asm": "304402206eaaa25e067bc7641ea711e1f2c3a7555c52dc739afbbd7f3bbb6f06ae5bfe980220502b284eee8dfa6628a94668d29161a117f5fce5902d96e108f162c826be6ab0[ALL] 02c1459a465a68333deace9798499ab887819402bc034ed85351272030f3391fdf"}, "vout": 1, "txid": "2731280db4772ae6844eb454f1a5509f0c9119cf0ec6c5093aa2da174bafbfd2"}], "txid": "8b581e5b3aced03cf0dee58f1e374da8cdd592608f61352559522a9aed112195", "blocktime": 1537874412, "version": 1, "confirmations": 11467, "time": 1537874412, "locktime": 0, "vsize": 225, "size": 225}