{"hash": "8b6279a41182d37196956f37ffa1eee18217f693f573ee2b0694bef8c14abfce", "blockhash": "00000000000000000017f5eb5941039fbcee6240d03bc1f2f8e35350df66a1d8", "vout": [{"scriptPubKey": {"reqSigs": 1, "hex": "76a914917e3e419d316c1e9bc628c5aab35ffa64e5f53088ac", "addresses": ["1EGJDM4jLC7YERu7SKKoakkYSgxKiwEqEH"], "asm": "OP_DUP OP_HASH160 917e3e419d316c1e9bc628c5aab35ffa64e5f530 OP_EQUALVERIFY OP_CHECKSIG", "type": "pubkeyhash"}, "value": 0.00897694, "n": 0}], "hex": "01000000011616718eaefca6ba1247ad767cee235e828171fa25986544050da82c22df04fe020000006b483045022100a151bdf728e96516d43a30509e69167d38ee76c20761b3dabc3a492c95af3c1302205e859ae65300d3f005adb762e541431c8f5dad38d6fb3f4bed9bd27a43013f10012103b684614b578590ce11c13d44063a9da856c82c41d93cffbc811f8130f4615440ffffffff019eb20d00000000001976a914917e3e419d316c1e9bc628c5aab35ffa64e5f53088ac00000000", "vin": [{"sequence": 4294967295, "scriptSig": {"hex": "483045022100a151bdf728e96516d43a30509e69167d38ee76c20761b3dabc3a492c95af3c1302205e859ae65300d3f005adb762e541431c8f5dad38d6fb3f4bed9bd27a43013f10012103b684614b578590ce11c13d44063a9da856c82c41d93cffbc811f8130f4615440", "asm": "3045022100a151bdf728e96516d43a30509e69167d38ee76c20761b3dabc3a492c95af3c1302205e859ae65300d3f005adb762e541431c8f5dad38d6fb3f4bed9bd27a43013f10[ALL] 03b684614b578590ce11c13d44063a9da856c82c41d93cffbc811f8130f4615440"}, "vout": 2, "txid": "fe04df222ca80d0544659825fa7181825e23ee7c76ad4712baa6fcae8e711616"}], "txid": "8b6279a41182d37196956f37ffa1eee18217f693f573ee2b0694bef8c14abfce", "blocktime": 1537874412, "version": 1, "confirmations": 11467, "time": 1537874412, "locktime": 0, "vsize": 192, "size": 192}