{"hash": "91bff917e701963024bd353800f13eb97b7d2a319a5dcf5c5d59e3973ace4688", "blockhash": "0000000000000000000baef3f32e3676a92c3b2e5da21b426e4f302fc371ce76", "vout": [{"scriptPubKey": {"reqSigs": 1, "hex": "a91473526abcaa73f1ff18ac04349af2d42865816ed987", "addresses": ["3CCnN2uhuRk8S65csPYtwAZf56F2Zzgkd4"], "asm": "OP_HASH160 73526abcaa73f1ff18ac04349af2d42865816ed9 OP_EQUAL", "type": "scripthash"}, "value": 0.0234609, "n": 0}], "hex": "0200000000010132803aedb0230c89276290338dabff8b0451bb77335f89144771d14d408517e200000000171600140d273d038994b3cb08bd936c650c42a7ec76dbabffffffff016acc23000000000017a91473526abcaa73f1ff18ac04349af2d42865816ed98702483045022100eb597137d71c5d6552e2ce7a52fb4921d8bb10ac79a521211d888b588f4127d202202015fdf0ee12257dd0e59da274bab27f0f5ca6323442ad413c970950e594c42a012102a9476b2fdbcbcc3817e35f83dbab68d5f95b4b99649bdfc4f0e5cc656faf9bd400000000", "vin": [{"txinwitness": ["3045022100eb597137d71c5d6552e2ce7a52fb4921d8bb10ac79a521211d888b588f4127d202202015fdf0ee12257dd0e59da274bab27f0f5ca6323442ad413c970950e594c42a01", "02a9476b2fdbcbcc3817e35f83dbab68d5f95b4b99649bdfc4f0e5cc656faf9bd4"], "sequence": 4294967295, "scriptSig": {"hex": "1600140d273d038994b3cb08bd936c650c42a7ec76dbab", "asm": "00140d273d038994b3cb08bd936c650c42a7ec76dbab"}, "vout": 0, "txid": "e21785404dd1714714895f3377bb51048bffab8d33906227890c23b0ed3a8032"}], "txid": "8b661382d0d51cb83b3852d100d0d469eb6ebba770fdeba694fb8c3442148e44", "blocktime": 1537876114, "version": 2, "confirmations": 11459, "time": 1537876114, "locktime": 0, "vsize": 134, "size": 216}