{"hash": "6aeb5efdb3eb9cd001cec7f57aa7c1b03355f493a85786c33949d8fbaac94d3a", "blockhash": "00000000000000000018f53835495a110e01622372bf6ae95dc86f2b0ab887b0", "vout": [{"scriptPubKey": {"reqSigs": 1, "hex": "a914cc7a6ebfa62f38d82fb8eab30b5434afdbd4765d87", "addresses": ["3LLCSSiRFC1UESrdkzw8mqCpMajQxUFG8R"], "asm": "OP_HASH160 cc7a6ebfa62f38d82fb8eab30b5434afdbd4765d OP_EQUAL", "type": "scripthash"}, "value": 0.040385, "n": 0}, {"scriptPubKey": {"reqSigs": 1, "hex": "a914da4c39126ff72c34c078ed99f71a62224789b92c87", "addresses": ["3MbGYRd5ZRq3ZzUKUaNEHznYxvsm1sEAPz"], "asm": "OP_HASH160 da4c39126ff72c34c078ed99f71a62224789b92c OP_EQUAL", "type": "scripthash"}, "value": 0.01003247, "n": 1}], "hex": "020000000001064ae2e58d8ac11c8e8ec20fd35e6e6ce052579133624c7a4b979d71be03cc78a40000000017160014304a3a60b7b59bfe2607ce376234ea75ecc40164fdffffff653b916db8d634def59375791854fcba5d34836e027b8457343f119570d6f33400000000171600147256be614bd830ade965d11b94f6fdd4f7360e0efdffffff8458adec9fc70c159b904c7e20cf96666d87d3effadd9fa1953de1d6db0b9bab0000000017160014d98e08b27263c15f93b69d22f26e6fe2e59fae3cfdffffff94a022bb381604fd6914c961cbada76c10999f4e4a3d9377fb67ba5a87ac4a8f01000000171600145ea14102cc210ab9355590254cc25d60acfe9d17fdffffffd1b41ff0931b6aea5d532484a487efcebe8b383f39d066495a779b3e90fcb31700000000171600142749f0c64c54c8a965580bcb8393ffcaebbfbcb0fdfffffff4bad26ec583ff4265984c96eca4685af6f194c934d7b1224579d87e79db29bd050000006a47304402202fd4b24a2218e010d76e14fe5c025a86411c3f542ba4c9f9157cf253e12e2d1c0220218aebf4bf36a99c826bdb6f32202ca1820a5adbd170858bf24665ea703e5e48012102b7fdfebb4ef7c8f0fae68e9676f19df457b2a538d08f3d04a6cc1871b06fde1ffdffffff02649f3d000000000017a914cc7a6ebfa62f38d82fb8eab30b5434afdbd4765d87ef4e0f000000000017a914da4c39126ff72c34c078ed99f71a62224789b92c8702483045022100f3d026f327c0918948f7b1be18b59e2fe2088affcc472b0793ccc07dfb3e2b930220622a727f70308e305bc25904757a345ea3386cd678a86547e07258805a17a0c10121026913a369740099850efc42474d72eacd99a048aa433e6b6be7be2bbef84c4b8c024830450221008f21553d592a14e6a022855ec9b14e2f16a0fc92cfa0163658b19950a615b35e022063a78a8570ad6032115ca935504af8a358ce17cc9949495a0fd5193f827198e3012103f30b290b9c39aa5b31431e2ad63559c8904e0def7ee4c97a97a7451828720ed902473044022052bafbf5585b1aff64c9ed8d70225b85af7d3f6f25988b1ac6a70e3fad3fa83d02200c329376d0d00d172f2e150edb73ddf46f783fc815b58c5d66f8d5bd822b87550121026c9595d146ab5e7bc4b1913178407ff08eaeb3debe91203a3268a11540a523a70247304402202bffbd25041d050b21ba6e2abeeb30cf94ce85c3a7d11218c4e2c6ecad66528102204aace95621b9cddd606455177bdb8d5b7849c542d79545c174f7bbbeb5313f6d01210295e2add17704b3c6b6434471ed9f34c6905e52f30b1bbd3e7221683a61f0168b0248304502210082b85d648a5f078ebcd9e43f86572462449ace11139fef9dadcc99e135fb63f10220076b9333cb669b50d1f17d7ae3c0e4b90199b1ade46c3d4e9159ab2c4c99d340012102ee6ff5236366cb28bc59a5d46347b5e8006c1c3bc8a7b817afaeec4f6d9c0d84000c490800", "vin": [{"txinwitness": ["3045022100f3d026f327c0918948f7b1be18b59e2fe2088affcc472b0793ccc07dfb3e2b930220622a727f70308e305bc25904757a345ea3386cd678a86547e07258805a17a0c101", "026913a369740099850efc42474d72eacd99a048aa433e6b6be7be2bbef84c4b8c"], "sequence": 4294967293, "scriptSig": {"hex": "160014304a3a60b7b59bfe2607ce376234ea75ecc40164", "asm": "0014304a3a60b7b59bfe2607ce376234ea75ecc40164"}, "vout": 0, "txid": "a478cc03be719d974b7a4c6233915752e06c6e5ed30fc28e8e1cc18a8de5e24a"}, {"txinwitness": ["30450221008f21553d592a14e6a022855ec9b14e2f16a0fc92cfa0163658b19950a615b35e022063a78a8570ad6032115ca935504af8a358ce17cc9949495a0fd5193f827198e301", "03f30b290b9c39aa5b31431e2ad63559c8904e0def7ee4c97a97a7451828720ed9"], "sequence": 4294967293, "scriptSig": {"hex": "1600147256be614bd830ade965d11b94f6fdd4f7360e0e", "asm": "00147256be614bd830ade965d11b94f6fdd4f7360e0e"}, "vout": 0, "txid": "34f3d67095113f3457847b026e83345dbafc5418797593f5de34d6b86d913b65"}, {"txinwitness": ["3044022052bafbf5585b1aff64c9ed8d70225b85af7d3f6f25988b1ac6a70e3fad3fa83d02200c329376d0d00d172f2e150edb73ddf46f783fc815b58c5d66f8d5bd822b875501", "026c9595d146ab5e7bc4b1913178407ff08eaeb3debe91203a3268a11540a523a7"], "sequence": 4294967293, "scriptSig": {"hex": "160014d98e08b27263c15f93b69d22f26e6fe2e59fae3c", "asm": "0014d98e08b27263c15f93b69d22f26e6fe2e59fae3c"}, "vout": 0, "txid": "ab9b0bdbd6e13d95a19fddfaefd3876d6696cf207e4c909b150cc79fecad5884"}, {"txinwitness": ["304402202bffbd25041d050b21ba6e2abeeb30cf94ce85c3a7d11218c4e2c6ecad66528102204aace95621b9cddd606455177bdb8d5b7849c542d79545c174f7bbbeb5313f6d01", "0295e2add17704b3c6b6434471ed9f34c6905e52f30b1bbd3e7221683a61f0168b"], "sequence": 4294967293, "scriptSig": {"hex": "1600145ea14102cc210ab9355590254cc25d60acfe9d17", "asm": "00145ea14102cc210ab9355590254cc25d60acfe9d17"}, "vout": 1, "txid": "8f4aac875aba67fb77933d4a4e9f99106ca7adcb61c91469fd041638bb22a094"}, {"txinwitness": ["304502210082b85d648a5f078ebcd9e43f86572462449ace11139fef9dadcc99e135fb63f10220076b9333cb669b50d1f17d7ae3c0e4b90199b1ade46c3d4e9159ab2c4c99d34001", "02ee6ff5236366cb28bc59a5d46347b5e8006c1c3bc8a7b817afaeec4f6d9c0d84"], "sequence": 4294967293, "scriptSig": {"hex": "1600142749f0c64c54c8a965580bcb8393ffcaebbfbcb0", "asm": "00142749f0c64c54c8a965580bcb8393ffcaebbfbcb0"}, "vout": 0, "txid": "17b3fc903e9b775a4966d0393f388bbeceef87a48424535dea6a1b93f01fb4d1"}, {"sequence": 4294967293, "scriptSig": {"hex": "47304402202fd4b24a2218e010d76e14fe5c025a86411c3f542ba4c9f9157cf253e12e2d1c0220218aebf4bf36a99c826bdb6f32202ca1820a5adbd170858bf24665ea703e5e48012102b7fdfebb4ef7c8f0fae68e9676f19df457b2a538d08f3d04a6cc1871b06fde1f", "asm": "304402202fd4b24a2218e010d76e14fe5c025a86411c3f542ba4c9f9157cf253e12e2d1c0220218aebf4bf36a99c826bdb6f32202ca1820a5adbd170858bf24665ea703e5e48[ALL] 02b7fdfebb4ef7c8f0fae68e9676f19df457b2a538d08f3d04a6cc1871b06fde1f"}, "vout": 5, "txid": "bd29db797ed8794522b1d734c994f1f65a68a4ec964c986542ff83c56ed2baf4"}], "txid": "8b70feddd6cbedd7d96239f4d315735c9b292c10751ebe30b813796dbb170286", "blocktime": 1537870928, "version": 2, "confirmations": 11514, "time": 1537870928, "locktime": 542988, "vsize": 677, "size": 1082}