{"hash": "ebd64cad905cc16f3a67bf8ecd79e97a2bf6718fc6fee6ee5dcf70fe15dbc44a", "blockhash": "00000000000000000004ffacab907a6b429b9a5745fa0b75af4234bf69dd7176", "vout": [{"scriptPubKey": {"reqSigs": 1, "hex": "a914f22779c080ba0fc43a88dd9f244309d64b89b55c87", "addresses": ["3PmQjn8xWs9CceGtdvSaYDgzBC6tNVdFjQ"], "asm": "OP_HASH160 f22779c080ba0fc43a88dd9f244309d64b89b55c OP_EQUAL", "type": "scripthash"}, "value": 0.08141738, "n": 0}, {"scriptPubKey": {"reqSigs": 1, "hex": "76a914dae1174494e4e431589f9a09917c30885a2c7a2588ac", "addresses": ["1LxKxQgQKBAPoUC52VnA892tnfH4CMt4ki"], "asm": "OP_DUP OP_HASH160 dae1174494e4e431589f9a09917c30885a2c7a25 OP_EQUALVERIFY OP_CHECKSIG", "type": "pubkeyhash"}, "value": 0.08539766, "n": 1}, {"scriptPubKey": {"reqSigs": 1, "hex": "76a9140f8dcec56c0521d2864f1970f7033b5fcb00339088ac", "addresses": ["12RF1rFePbS4Q5uS874EEKYhhAE7kCbHky"], "asm": "OP_DUP OP_HASH160 0f8dcec56c0521d2864f1970f7033b5fcb003390 OP_EQUALVERIFY OP_CHECKSIG", "type": "pubkeyhash"}, "value": 0.03445963, "n": 2}, {"scriptPubKey": {"reqSigs": 1, "hex": "76a914895062aa6d647a9358a04e27eee03dda364a44c988ac", "addresses": ["1DX3sZKMYaV4VhiinBVB5WS8KA4cCd524A"], "asm": "OP_DUP OP_HASH160 895062aa6d647a9358a04e27eee03dda364a44c9 OP_EQUALVERIFY OP_CHECKSIG", "type": "pubkeyhash"}, "value": 0.03888468, "n": 3}, {"scriptPubKey": {"reqSigs": 1, "hex": "76a914de1289fd9a459a18a5b935706ca71981c6a7bc4d88ac", "addresses": ["1MFDDhdLQPhntkRFkyDvicbXqnTzATCDca"], "asm": "OP_DUP OP_HASH160 de1289fd9a459a18a5b935706ca71981c6a7bc4d OP_EQUALVERIFY OP_CHECKSIG", "type": "pubkeyhash"}, "value": 0.06844032, "n": 4}, {"scriptPubKey": {"reqSigs": 1, "hex": "a9143e45b098ab65b332730a89f958428152774e86c887", "addresses": ["37NHJa6jKX56GHTJupHGiZGUsPnvAUtpAa"], "asm": "OP_HASH160 3e45b098ab65b332730a89f958428152774e86c8 OP_EQUAL", "type": "scripthash"}, "value": 0.27469576, "n": 5}, {"scriptPubKey": {"reqSigs": 1, "hex": "76a9141f2f06fb299d04a4354252218a8afcdc694dbedc88ac", "addresses": ["13qtHTcCycbHTjrbb2Gw1fhZseh4fz4idE"], "asm": "OP_DUP OP_HASH160 1f2f06fb299d04a4354252218a8afcdc694dbedc OP_EQUALVERIFY OP_CHECKSIG", "type": "pubkeyhash"}, "value": 0.85656, "n": 6}, {"scriptPubKey": {"reqSigs": 1, "hex": "76a9144815a9ecdcd83c6e4e659fa9f7ec3a94a4474e8588ac", "addresses": ["17a9c39JnrLVBjQaEtjWJdTfwWYJM3L96d"], "asm": "OP_DUP OP_HASH160 4815a9ecdcd83c6e4e659fa9f7ec3a94a4474e85 OP_EQUALVERIFY OP_CHECKSIG", "type": "pubkeyhash"}, "value": 1.071, "n": 7}, {"scriptPubKey": {"reqSigs": 1, "hex": "a914baed1c79cc6325333d5013b44dc17e8256bf5b7187", "addresses": ["3JjPf13Rd8g6WAyvg8yiPnrsdjJt1NP4FC"], "asm": "OP_HASH160 baed1c79cc6325333d5013b44dc17e8256bf5b71 OP_EQUAL", "type": "scripthash"}, "value": 86.82301765, "n": 8}], "hex": "020000000001018129617e916491a9f111484b8663a0689024eb555cb9e7d02febb8b1dfd055d809000000171600140976ae89087e12920490628529bfe4a9107439b1ffffffff09aa3b7c000000000017a914f22779c080ba0fc43a88dd9f244309d64b89b55c87764e8200000000001976a914dae1174494e4e431589f9a09917c30885a2c7a2588accb943400000000001976a9140f8dcec56c0521d2864f1970f7033b5fcb00339088ac54553b00000000001976a914895062aa6d647a9358a04e27eee03dda364a44c988ac806e6800000000001976a914de1289fd9a459a18a5b935706ca71981c6a7bc4d88ac0827a3010000000017a9143e45b098ab65b332730a89f958428152774e86c887c0011b05000000001976a9141f2f06fb299d04a4354252218a8afcdc694dbedc88ac60376206000000001976a9144815a9ecdcd83c6e4e659fa9f7ec3a94a4474e8588ac456981050200000017a914baed1c79cc6325333d5013b44dc17e8256bf5b71870247304402207dc4b7428556a95bcc2644342bd8829f2b754710e67cf26af75bf4540e3ef8a502205976a4afde96e00bb744b63699e49b07d7c4f068a151baabbbf84722aea6852e01210248566d3b6acc09341b00ed637bb5b5c4195352e13edb3402acd7f6c00438e50800000000", "vin": [{"txinwitness": ["304402207dc4b7428556a95bcc2644342bd8829f2b754710e67cf26af75bf4540e3ef8a502205976a4afde96e00bb744b63699e49b07d7c4f068a151baabbbf84722aea6852e01", "0248566d3b6acc09341b00ed637bb5b5c4195352e13edb3402acd7f6c00438e508"], "sequence": 4294967295, "scriptSig": {"hex": "1600140976ae89087e12920490628529bfe4a9107439b1", "asm": "00140976ae89087e12920490628529bfe4a9107439b1"}, "vout": 9, "txid": "d855d0dfb1b8eb2fd0e7b95c55eb249068a063864b4811f1a99164917e612981"}], "txid": "8b71e9dcd5650cfbd6b8084e03413db25de172b9565c778c348298e28b755bc0", "blocktime": 1537875543, "version": 2, "confirmations": 11464, "time": 1537875543, "locktime": 0, "vsize": 402, "size": 483}