{"hash": "a52ad997368508f9a7d21d1529e11891dc61836304ec8f2f63718474ca804445", "blockhash": "0000000000000000000e13cef7c366c0283d82e591d1acd082e914b08063cdf1", "vout": [{"scriptPubKey": {"reqSigs": 1, "hex": "a914459d91d70fc386be99bc87562e67ad4aadb93f8c87", "addresses": ["3837JuxbtnxmXMNRdW7oxAuBdbNpdjiGcY"], "asm": "OP_HASH160 459d91d70fc386be99bc87562e67ad4aadb93f8c OP_EQUAL", "type": "scripthash"}, "value": 0.10152475, "n": 0}, {"scriptPubKey": {"reqSigs": 1, "hex": "76a9149a9f9a647bc55437f21e8c1aa8401b61958d759a88ac", "addresses": ["1F6aFxePB2FiZCRZUsQtCt9wPGh5WGsGqZ"], "asm": "OP_DUP OP_HASH160 9a9f9a647bc55437f21e8c1aa8401b61958d759a OP_EQUALVERIFY OP_CHECKSIG", "type": "pubkeyhash"}, "value": 0.199924, "n": 1}], "hex": "01000000000102427604b524391e285a31485567941ddd07f4e12214f620abbd0ef701ce4888bf0100000017160014c12562e423225c554b0cdf7acc10a4695d4de2dbfdffffff5f3ff5ac5c246778baa2f69a9eb62ce02878b1b64b7aa4f5c057b4fff7dff1fe0000000017160014c12562e423225c554b0cdf7acc10a4695d4de2dbfdffffff021bea9a000000000017a914459d91d70fc386be99bc87562e67ad4aadb93f8c87500f3101000000001976a9149a9f9a647bc55437f21e8c1aa8401b61958d759a88ac02483045022100c6209d87ff32f6beb83a8ab9ee8986ac107e9ce67c497fee3b612cc13c232672022059cdc950fb4b25d88a4b8bc057c2d483bf2908b6791a8f9cb6b1912c2af9dc74012102fd7c4567057ae9f48d8ab3c758c2a62be17a7a41975409075c623bbe6198e999024730440220438ee41a4c5c1e37b442584be5d077b62307c75e58ac0dd37be3298c246cd19d02206234d3e8d3c4131bdc9e01d5325a2e8e23b949030b0a703decfffe15269cb081012102fd7c4567057ae9f48d8ab3c758c2a62be17a7a41975409075c623bbe6198e99910490800", "vin": [{"txinwitness": ["3045022100c6209d87ff32f6beb83a8ab9ee8986ac107e9ce67c497fee3b612cc13c232672022059cdc950fb4b25d88a4b8bc057c2d483bf2908b6791a8f9cb6b1912c2af9dc7401", "02fd7c4567057ae9f48d8ab3c758c2a62be17a7a41975409075c623bbe6198e999"], "sequence": 4294967293, "scriptSig": {"hex": "160014c12562e423225c554b0cdf7acc10a4695d4de2db", "asm": "0014c12562e423225c554b0cdf7acc10a4695d4de2db"}, "vout": 1, "txid": "bf8848ce01f70ebdab20f61422e1f407dd1d94675548315a281e3924b5047642"}, {"txinwitness": ["30440220438ee41a4c5c1e37b442584be5d077b62307c75e58ac0dd37be3298c246cd19d02206234d3e8d3c4131bdc9e01d5325a2e8e23b949030b0a703decfffe15269cb08101", "02fd7c4567057ae9f48d8ab3c758c2a62be17a7a41975409075c623bbe6198e999"], "sequence": 4294967293, "scriptSig": {"hex": "160014c12562e423225c554b0cdf7acc10a4695d4de2db", "asm": "0014c12562e423225c554b0cdf7acc10a4695d4de2db"}, "vout": 0, "txid": "fef1dff7ffb457c0f5a47a4bb6b17828e02cb69e9af6a2ba7867245cacf53f5f"}], "txid": "8b7489f00d407a8ab8f855009738aac2589e8ef40b044c2dae314b8d6f4eb642", "blocktime": 1537871767, "version": 1, "confirmations": 11493, "time": 1537871767, "locktime": 542992, "vsize": 259, "size": 421}