{"hash": "676e2034ea613a8b473afb9e57437ffa1a215db76498269cd1d85e50bb18ce1f", "blockhash": "0000000000000000000e13cef7c366c0283d82e591d1acd082e914b08063cdf1", "vout": [{"scriptPubKey": {"reqSigs": 1, "hex": "a914b7fb546363431641b0ce81df7b702dcf0680bd2d87", "addresses": ["3JTpfLaUzKAhrfgFhBaDWBSiXzjPa96PTU"], "asm": "OP_HASH160 b7fb546363431641b0ce81df7b702dcf0680bd2d OP_EQUAL", "type": "scripthash"}, "value": 0.0094, "n": 0}, {"scriptPubKey": {"reqSigs": 1, "hex": "a9141988a27e3c2df4ddee7fad5a2303d086179b2a3087", "addresses": ["3422VtS7UtCvXYxoXMVp6eZupR252z85oC"], "asm": "OP_HASH160 1988a27e3c2df4ddee7fad5a2303d086179b2a30 OP_EQUAL", "type": "scripthash"}, "value": 2.70929133, "n": 1}, {"scriptPubKey": {"reqSigs": 1, "hex": "76a91436be183f8447ebcaf628714cc29acb081cfb6c5e88ac", "addresses": ["15zTDNYfxoxbDtD5EYwFBE3sT9vbGb1K4r"], "asm": "OP_DUP OP_HASH160 36be183f8447ebcaf628714cc29acb081cfb6c5e OP_EQUALVERIFY OP_CHECKSIG", "type": "pubkeyhash"}, "value": 0.08291138, "n": 2}, {"scriptPubKey": {"reqSigs": 1, "hex": "76a9147c5bd26fb58203910f2da79c1c66e78c47a7a08d88ac", "addresses": ["1CLYnhAnTRm49rwEEub7DctmJS3dcBRBrG"], "asm": "OP_DUP OP_HASH160 7c5bd26fb58203910f2da79c1c66e78c47a7a08d OP_EQUALVERIFY OP_CHECKSIG", "type": "pubkeyhash"}, "value": 0.11, "n": 3}], "hex": "010000000001015fb27f0917ee5162ca40322d38f105575a70836d04bb68a86e115260f945774301000000232200202035e78a6b34d583ad0a874b80ee41a0507b92cf0b671656108f594c7f75ca90ffffffff04e0570e000000000017a914b7fb546363431641b0ce81df7b702dcf0680bd2d87ed0c26100000000017a9141988a27e3c2df4ddee7fad5a2303d086179b2a308742837e00000000001976a91436be183f8447ebcaf628714cc29acb081cfb6c5e88acc0d8a700000000001976a9147c5bd26fb58203910f2da79c1c66e78c47a7a08d88ac0400483045022100d1dfafb55959deabcb14bc148d0cfb1961478fcd6dcb4a96ea3219682f6d2e3c02202a93e8656b1296ab674e858fce038ea7f87a5dd2faeed3088f8f881e206e2a780147304402200ba705915c8d33ed8193f2609afafdf0e43a76edd36ace10b18231212811fb9d02204555747e0c410d51686aa256bf7cb964572bfee7edc40b21f610461f3d46d98e01695221029103d1dfbbee9ea5249ee0b03ca59e08291ce34a7467513edf8ea767b5aa26382103dce07bea5905a1c3e70f86c1f74f0e98e7cf3b6f5d02226a4c531c9e930c613b210268d8878afaf4b55118519d8520fe0db27f9596a812d4378f4bf4a96a5333694653ae00000000", "vin": [{"txinwitness": ["", "3045022100d1dfafb55959deabcb14bc148d0cfb1961478fcd6dcb4a96ea3219682f6d2e3c02202a93e8656b1296ab674e858fce038ea7f87a5dd2faeed3088f8f881e206e2a7801", "304402200ba705915c8d33ed8193f2609afafdf0e43a76edd36ace10b18231212811fb9d02204555747e0c410d51686aa256bf7cb964572bfee7edc40b21f610461f3d46d98e01", "5221029103d1dfbbee9ea5249ee0b03ca59e08291ce34a7467513edf8ea767b5aa26382103dce07bea5905a1c3e70f86c1f74f0e98e7cf3b6f5d02226a4c531c9e930c613b210268d8878afaf4b55118519d8520fe0db27f9596a812d4378f4bf4a96a5333694653ae"], "sequence": 4294967295, "scriptSig": {"hex": "2200202035e78a6b34d583ad0a874b80ee41a0507b92cf0b671656108f594c7f75ca90", "asm": "00202035e78a6b34d583ad0a874b80ee41a0507b92cf0b671656108f594c7f75ca90"}, "vout": 1, "txid": "437745f96052116ea868bb046d83705a5705f1382d3240ca6251ee17097fb25f"}], "txid": "8b8155a5fc378fdbebda71e67f29c01c211dc79a3b2ff6e4c79012bcb03325cf", "blocktime": 1537871767, "version": 1, "confirmations": 11491, "time": 1537871767, "locktime": 0, "vsize": 282, "size": 473}