{"hash": "8b82a29b4417274d42303ee1e10e1f335609dd372f3b95f5282f7377a1972ff0", "blockhash": "0000000000000000001cda96e906b7601b7a6fb1a3b62bca570a9e5d8f4b3de1", "vout": [{"scriptPubKey": {"reqSigs": 1, "hex": "a914f0f502cfa7f61cb43c220516ae6e334cab6ec5e787", "addresses": ["3Pf5cF8dgRYZgovMZv9pMqbgHRPReBa3pf"], "asm": "OP_HASH160 f0f502cfa7f61cb43c220516ae6e334cab6ec5e7 OP_EQUAL", "type": "scripthash"}, "value": 0.00032456, "n": 0}], "hex": "0100000001406ee85f6f54af51b8e292da25ce5c0582959e3c3e0622721ca698cd768e6171000000006b483045022100c47079f82844277d417f6ba71fff26d1fc9b159668c15443e5d0b2aa2187e0bf0220597ca5d973769845739dd12248553424ec20f2bb31b5a3845f4484cb803d23150121033de6d6a718b3b206d25ec0abd6208341eb56aa8375f964eada16d50f49a58d1dffffffff01c87e00000000000017a914f0f502cfa7f61cb43c220516ae6e334cab6ec5e78700000000", "vin": [{"sequence": 4294967295, "scriptSig": {"hex": "483045022100c47079f82844277d417f6ba71fff26d1fc9b159668c15443e5d0b2aa2187e0bf0220597ca5d973769845739dd12248553424ec20f2bb31b5a3845f4484cb803d23150121033de6d6a718b3b206d25ec0abd6208341eb56aa8375f964eada16d50f49a58d1d", "asm": "3045022100c47079f82844277d417f6ba71fff26d1fc9b159668c15443e5d0b2aa2187e0bf0220597ca5d973769845739dd12248553424ec20f2bb31b5a3845f4484cb803d2315[ALL] 033de6d6a718b3b206d25ec0abd6208341eb56aa8375f964eada16d50f49a58d1d"}, "vout": 0, "txid": "71618e76cd98a61c7222063e3c9e9582055cce25da92e2b851af546f5fe86e40"}], "txid": "8b82a29b4417274d42303ee1e10e1f335609dd372f3b95f5282f7377a1972ff0", "blocktime": 1537873282, "version": 1, "confirmations": 11484, "time": 1537873282, "locktime": 0, "vsize": 190, "size": 190}