{"hash": "0f6df44fddcb01cb649297c5c9419406c01e9f1f66e438ca7ba8c1bf3f519d72", "blockhash": "0000000000000000000e13cef7c366c0283d82e591d1acd082e914b08063cdf1", "vout": [{"scriptPubKey": {"reqSigs": 1, "hex": "76a9149a1b8f9b1fa2d2297863adb1cb11c71df455684888ac", "addresses": ["1F3r5We2zwNiSzG6GQUTTWnnPMCz2HJbJu"], "asm": "OP_DUP OP_HASH160 9a1b8f9b1fa2d2297863adb1cb11c71df4556848 OP_EQUALVERIFY OP_CHECKSIG", "type": "pubkeyhash"}, "value": 3.262e-05, "n": 0}, {"scriptPubKey": {"reqSigs": 1, "hex": "a914e8db75c900cf08f06518e96d167331f2a4abfb3387", "addresses": ["3NvFbQMAkkqEFj4i1sYPPLkSWzxTFUchjA"], "asm": "OP_HASH160 e8db75c900cf08f06518e96d167331f2a4abfb33 OP_EQUAL", "type": "scripthash"}, "value": 0.00049142, "n": 1}], "hex": "01000000000102709b5d2ba696988acfc70d45138ce8db36377bd577fff2024c7dee099093566b0100000023220020941cfaff8837763dc1f69ff82b6d6553fdea17a41cfc29a04403293eedd8ccc7fffffffff7435cf3692e6a845e02b4a6e035fbd8ceb5c72aae2d8dd4e92cc13f29b8c1610000000023220020941cfaff8837763dc1f69ff82b6d6553fdea17a41cfc29a04403293eedd8ccc7ffffffff02be0c0000000000001976a9149a1b8f9b1fa2d2297863adb1cb11c71df455684888acf6bf00000000000017a914e8db75c900cf08f06518e96d167331f2a4abfb33870400483045022100d54e1a42b0fd1754c2fe79588eb8bf2043e77d3f78d6f8e06110c002e88ef97402201400a0368ee5070c92d831ad39c5d20bafade221634f90d58bf8082c3088d18601473044022051741201f47c6a17b356a3bdef0fd27dee2829d2f23c1299139ae3ce0321153002204dc4a6442b5b942ebcc2bc5ccf7dd5c3eb76aed29531865acc57487d9391b6000147522102531db3a5883f29bab4241dd0cd726936667bcda445d89bdd22244e828b6993342103148c80a5bdfddb05ff5bcffc397c8ca748d8b435ec6a175bc9d7bfc7fc6f853752ae040047304402205d01a5bd62b9236073a8c8527824dcde6f684f00b4a3ed59d0fdbc4396862d140220520cb4635ab838ea54b8745f1a1b81cfb4d24fd2cd01d1e691ce078e96ac099a0148304502210096a4d8c95a3aac807d94d3337a0341a3e50e277a64dac240893800ff535cd67b02206f5d22b2a800f025e0bc87695da3f3e3eddca4512d09c6bbb34c525ec9bd0e660147522102531db3a5883f29bab4241dd0cd726936667bcda445d89bdd22244e828b6993342103148c80a5bdfddb05ff5bcffc397c8ca748d8b435ec6a175bc9d7bfc7fc6f853752ae00000000", "vin": [{"txinwitness": ["", "3045022100d54e1a42b0fd1754c2fe79588eb8bf2043e77d3f78d6f8e06110c002e88ef97402201400a0368ee5070c92d831ad39c5d20bafade221634f90d58bf8082c3088d18601", "3044022051741201f47c6a17b356a3bdef0fd27dee2829d2f23c1299139ae3ce0321153002204dc4a6442b5b942ebcc2bc5ccf7dd5c3eb76aed29531865acc57487d9391b60001", "522102531db3a5883f29bab4241dd0cd726936667bcda445d89bdd22244e828b6993342103148c80a5bdfddb05ff5bcffc397c8ca748d8b435ec6a175bc9d7bfc7fc6f853752ae"], "sequence": 4294967295, "scriptSig": {"hex": "220020941cfaff8837763dc1f69ff82b6d6553fdea17a41cfc29a04403293eedd8ccc7", "asm": "0020941cfaff8837763dc1f69ff82b6d6553fdea17a41cfc29a04403293eedd8ccc7"}, "vout": 1, "txid": "6b56939009ee7d4c02f2ff77d57b3736dbe88c13450dc7cf8a9896a62b5d9b70"}, {"txinwitness": ["", "304402205d01a5bd62b9236073a8c8527824dcde6f684f00b4a3ed59d0fdbc4396862d140220520cb4635ab838ea54b8745f1a1b81cfb4d24fd2cd01d1e691ce078e96ac099a01", "304502210096a4d8c95a3aac807d94d3337a0341a3e50e277a64dac240893800ff535cd67b02206f5d22b2a800f025e0bc87695da3f3e3eddca4512d09c6bbb34c525ec9bd0e6601", "522102531db3a5883f29bab4241dd0cd726936667bcda445d89bdd22244e828b6993342103148c80a5bdfddb05ff5bcffc397c8ca748d8b435ec6a175bc9d7bfc7fc6f853752ae"], "sequence": 4294967295, "scriptSig": {"hex": "220020941cfaff8837763dc1f69ff82b6d6553fdea17a41cfc29a04403293eedd8ccc7", "asm": "0020941cfaff8837763dc1f69ff82b6d6553fdea17a41cfc29a04403293eedd8ccc7"}, "vout": 0, "txid": "61c1b8293fc12ce9d48d2dae2ac7b5ced8fb35e0a6b4025e846a2e69f35c43f7"}], "txid": "8b86f5a264be57539fbba82472a1fe00fa090cc74a42d0432978f7881d8c576c", "blocktime": 1537871767, "version": 1, "confirmations": 11495, "time": 1537871767, "locktime": 0, "vsize": 338, "size": 668}