{"hash": "8b860204a923537f34fcf9c523eb8fbf2814747983f02a40ff865023d5a72594", "blockhash": "0000000000000000001e0dab787dd257d1dbfcb92a98c2207d5e1078be1f4165", "vout": [{"scriptPubKey": {"reqSigs": 1, "hex": "76a91434784b7873bb727c80dff7402b0b43653881f8dc88ac", "addresses": ["15nSFCtDmfd9kXeZGtdsHbknnfSf3aaZN4"], "asm": "OP_DUP OP_HASH160 34784b7873bb727c80dff7402b0b43653881f8dc OP_EQUALVERIFY OP_CHECKSIG", "type": "pubkeyhash"}, "value": 0.000696, "n": 0}, {"scriptPubKey": {"reqSigs": 1, "hex": "a9147f772a659f0399135dd815bc443d0642f7a19da387", "addresses": ["3DJzVgHcsDX96CB6gj95nvmBy4KLiY2rbx"], "asm": "OP_HASH160 7f772a659f0399135dd815bc443d0642f7a19da3 OP_EQUAL", "type": "scripthash"}, "value": 0.163, "n": 1}], "hex": "0100000001cd04a94fe4c3542811cbc4a0b23440eabc66e08a7f5a78d6723bc34f343362db000000006b4830450221008ff6f57d94b609a5bbf9da1b780233ce6d386f9a689e1a80d1d1d1498cbf451902203bcb6c435b0e21696a17331d5745137dcd56c7edbd350b363360835de39a26f30121020c2dc27e9d51ac99ba7e7ead456c172db372a1e08a74484f57cff1214d3441ccffffffff02e00f0100000000001976a91434784b7873bb727c80dff7402b0b43653881f8dc88ace0b7f8000000000017a9147f772a659f0399135dd815bc443d0642f7a19da38700000000", "vin": [{"sequence": 4294967295, "scriptSig": {"hex": "4830450221008ff6f57d94b609a5bbf9da1b780233ce6d386f9a689e1a80d1d1d1498cbf451902203bcb6c435b0e21696a17331d5745137dcd56c7edbd350b363360835de39a26f30121020c2dc27e9d51ac99ba7e7ead456c172db372a1e08a74484f57cff1214d3441cc", "asm": "30450221008ff6f57d94b609a5bbf9da1b780233ce6d386f9a689e1a80d1d1d1498cbf451902203bcb6c435b0e21696a17331d5745137dcd56c7edbd350b363360835de39a26f3[ALL] 020c2dc27e9d51ac99ba7e7ead456c172db372a1e08a74484f57cff1214d3441cc"}, "vout": 0, "txid": "db6233344fc33b72d6785a7f8ae066bcea4034b2a0c4cb112854c3e44fa904cd"}], "txid": "8b860204a923537f34fcf9c523eb8fbf2814747983f02a40ff865023d5a72594", "blocktime": 1537872475, "version": 1, "confirmations": 11487, "time": 1537872475, "locktime": 0, "vsize": 224, "size": 224}