{"hash": "8b8d315774c6f9977041da364df74a54d7df5730172312f49d0867f0aefd0d2e", "blockhash": "00000000000000000018f53835495a110e01622372bf6ae95dc86f2b0ab887b0", "vout": [{"scriptPubKey": {"reqSigs": 1, "hex": "a914a79c8546601999e6427c0720852b6d888625709287", "addresses": ["3GyGGpcZM8qKLAwBwqxRpeTteMEWMKiT5D"], "asm": "OP_HASH160 a79c8546601999e6427c0720852b6d8886257092 OP_EQUAL", "type": "scripthash"}, "value": 0.00308464, "n": 0}, {"scriptPubKey": {"reqSigs": 1, "hex": "76a914fd199694ab723543022217d170b96e16e4f92c7c88ac", "addresses": ["1Q5GcS71Cah9YiFWxiFeLdYyk83dXEisvN"], "asm": "OP_DUP OP_HASH160 fd199694ab723543022217d170b96e16e4f92c7c OP_EQUALVERIFY OP_CHECKSIG", "type": "pubkeyhash"}, "value": 0.11687874, "n": 1}], "hex": "0100000001e8d9870be56ca16bd941311ebfc3d116b2e9acdea27e625890f43044f10970d3010000006a47304402203467c18244f09763da2d378209ea4efad88002e2699467fd261c872e6849da6a02206be07c0f8aee77cdd63f9a76494f79366846f0e699c3b1dcd29390fb4bc275920121028f514f994239b4dbebb94f19ab13082d4629bed62110e157e9435c87d1b52473ffffffff02f0b404000000000017a914a79c8546601999e6427c0720852b6d888625709287c257b200000000001976a914fd199694ab723543022217d170b96e16e4f92c7c88ac00000000", "vin": [{"sequence": 4294967295, "scriptSig": {"hex": "47304402203467c18244f09763da2d378209ea4efad88002e2699467fd261c872e6849da6a02206be07c0f8aee77cdd63f9a76494f79366846f0e699c3b1dcd29390fb4bc275920121028f514f994239b4dbebb94f19ab13082d4629bed62110e157e9435c87d1b52473", "asm": "304402203467c18244f09763da2d378209ea4efad88002e2699467fd261c872e6849da6a02206be07c0f8aee77cdd63f9a76494f79366846f0e699c3b1dcd29390fb4bc27592[ALL] 028f514f994239b4dbebb94f19ab13082d4629bed62110e157e9435c87d1b52473"}, "vout": 1, "txid": "d37009f14430f49058627ea2deace9b216d1c3bf1e3141d96ba16ce50b87d9e8"}], "txid": "8b8d315774c6f9977041da364df74a54d7df5730172312f49d0867f0aefd0d2e", "blocktime": 1537870928, "version": 1, "confirmations": 11512, "time": 1537870928, "locktime": 0, "vsize": 223, "size": 223}