{"hash": "8b9095f3e2cf9535e34a09fcc449db77bbf3447073f252094ea12103eb195c1c", "blockhash": "0000000000000000001f0ddff1eddb255c1121bcd4da4f1bc9a0da00cae72433", "vout": [{"scriptPubKey": {"type": "nulldata", "hex": "6a146f6d6e69000000000000001f0000000436d81500", "asm": "OP_RETURN 6f6d6e69000000000000001f0000000436d81500"}, "value": 0.0, "n": 0}, {"scriptPubKey": {"reqSigs": 1, "hex": "76a91470de8b28c4a44f649e3738875190124974b3ad1a88ac", "addresses": ["1BHoH5vBc27qnH9cgfmHMhh9Z7rtkFXvaj"], "asm": "OP_DUP OP_HASH160 70de8b28c4a44f649e3738875190124974b3ad1a OP_EQUALVERIFY OP_CHECKSIG", "type": "pubkeyhash"}, "value": 5.46e-06, "n": 1}, {"scriptPubKey": {"reqSigs": 1, "hex": "76a914628a073fe8ce7a239e56a9158ebd5d291a8bc0d988ac", "addresses": ["19z2aBA5FYQm9bK1Q5UW5u7bJWHbZZ4Z5E"], "asm": "OP_DUP OP_HASH160 628a073fe8ce7a239e56a9158ebd5d291a8bc0d9 OP_EQUALVERIFY OP_CHECKSIG", "type": "pubkeyhash"}, "value": 0.03999595, "n": 2}], "hex": "010000000235645f63918eebfe52719723bda897e7442746acf210e1ecbbe36aad22df0b1b000000006b483045022100be02bca1c72c0fa4127e9593936158bb7ea78e14553a4d2c664f1644a48f5b5502204b9a3e2e09a3c5c5a3c6f774f5bf27677357bed863dbf68422633946df6dcf73012103e4addb7809d20e3cf85c913ea93969a52c57a5fdfcb1fedcb25002cf9b21d816feffffff0274e2a84a6c3d753fa85a2776c7e1931638b2ff98de1efbeab54bbaa0c705cb020000006a47304402207116e9fa0bb94b3c9c96db2bcc8dbd8f0d522b2e41a5b6255dca1251f610fc8902202d6f019ecd13a8f45b57494655e9af7f12c64b39f0bff97f0dbfa89fd605fcae012103e4addb7809d20e3cf85c913ea93969a52c57a5fdfcb1fedcb25002cf9b21d816feffffff030000000000000000166a146f6d6e69000000000000001f0000000436d8150022020000000000001976a91470de8b28c4a44f649e3738875190124974b3ad1a88ac6b073d00000000001976a914628a073fe8ce7a239e56a9158ebd5d291a8bc0d988ac11490800", "vin": [{"sequence": 4294967294, "scriptSig": {"hex": "483045022100be02bca1c72c0fa4127e9593936158bb7ea78e14553a4d2c664f1644a48f5b5502204b9a3e2e09a3c5c5a3c6f774f5bf27677357bed863dbf68422633946df6dcf73012103e4addb7809d20e3cf85c913ea93969a52c57a5fdfcb1fedcb25002cf9b21d816", "asm": "3045022100be02bca1c72c0fa4127e9593936158bb7ea78e14553a4d2c664f1644a48f5b5502204b9a3e2e09a3c5c5a3c6f774f5bf27677357bed863dbf68422633946df6dcf73[ALL] 03e4addb7809d20e3cf85c913ea93969a52c57a5fdfcb1fedcb25002cf9b21d816"}, "vout": 0, "txid": "1b0bdf22ad6ae3bbece110f2ac462744e797a8bd23977152feeb8e91635f6435"}, {"sequence": 4294967294, "scriptSig": {"hex": "47304402207116e9fa0bb94b3c9c96db2bcc8dbd8f0d522b2e41a5b6255dca1251f610fc8902202d6f019ecd13a8f45b57494655e9af7f12c64b39f0bff97f0dbfa89fd605fcae012103e4addb7809d20e3cf85c913ea93969a52c57a5fdfcb1fedcb25002cf9b21d816", "asm": "304402207116e9fa0bb94b3c9c96db2bcc8dbd8f0d522b2e41a5b6255dca1251f610fc8902202d6f019ecd13a8f45b57494655e9af7f12c64b39f0bff97f0dbfa89fd605fcae[ALL] 03e4addb7809d20e3cf85c913ea93969a52c57a5fdfcb1fedcb25002cf9b21d816"}, "vout": 2, "txid": "cb05c7a0ba4bb5eafb1ede98ffb2381693e1c776275aa83f753d6c4aa8e27402"}], "txid": "8b9095f3e2cf9535e34a09fcc449db77bbf3447073f252094ea12103eb195c1c", "blocktime": 1537872018, "version": 1, "confirmations": 11489, "time": 1537872018, "locktime": 542993, "vsize": 404, "size": 404}