{"hash": "9d53c8934f2e349db25da3c2691ee7d13e730156c4d33e7b671e13b8e57d7e51", "blockhash": "000000000000000000022b45ed06c6f4ccd3cf7fb5ba4856ebd2e58215665228", "vout": [{"scriptPubKey": {"reqSigs": 1, "hex": "a9140ec0659e67335e9ecbc6dad345bb0806f49da11687", "addresses": ["3331sCmWbYFF8pb4DCWJgYzbMcs2sSU888"], "asm": "OP_HASH160 0ec0659e67335e9ecbc6dad345bb0806f49da116 OP_EQUAL", "type": "scripthash"}, "value": 0.001065, "n": 0}], "hex": "02000000000101dbcd57a19cad2c726e763a8946ec0b1d8a8eacc34cc2ac27fda2ed8a600fc8ba0700000017160014f69d5878ed545393db0141d987b32372e37f7fdbffffffff0104a001000000000017a9140ec0659e67335e9ecbc6dad345bb0806f49da1168702473044022027c26816f9e426217981f1a663a8e8c13ecf38543c5978e1358eeb53c6f4dc71022056c68785794e1a757a8cd8fb7d464c78792cc5f092c975760b1b6776ed63c1cd0121029000be2a97a38ba21a82aa30c9cda7d4bc4a7e1db6ced94dbb6b2a0045f91ef800000000", "vin": [{"txinwitness": ["3044022027c26816f9e426217981f1a663a8e8c13ecf38543c5978e1358eeb53c6f4dc71022056c68785794e1a757a8cd8fb7d464c78792cc5f092c975760b1b6776ed63c1cd01", "029000be2a97a38ba21a82aa30c9cda7d4bc4a7e1db6ced94dbb6b2a0045f91ef8"], "sequence": 4294967295, "scriptSig": {"hex": "160014f69d5878ed545393db0141d987b32372e37f7fdb", "asm": "0014f69d5878ed545393db0141d987b32372e37f7fdb"}, "vout": 7, "txid": "bac80f608aeda2fd27acc24cc3ac8e8a1d0bec46893a766e722cad9ca157cddb"}], "txid": "8b930c34ae54b74aa21fa9acef9100b6d0a6832fd542a15df2ccc8cb72625706", "blocktime": 1537869901, "version": 2, "confirmations": 11523, "time": 1537869901, "locktime": 0, "vsize": 134, "size": 215}