{"hash": "76249b9b8bb6d2a17a66c70d8b65cd7e774d266435c95ccc0d497b281fa9bd72", "blockhash": "0000000000000000001f76057863aec43deb6fa401d9628bb513d65a8098bfab", "vout": [{"scriptPubKey": {"reqSigs": 1, "hex": "a914627ec3f3466077598bc2fdbee630e26675abe6c187", "addresses": ["3Afp1ADRE6ky3uegZh8qL2Ym3gK5odhwwc"], "asm": "OP_HASH160 627ec3f3466077598bc2fdbee630e26675abe6c1 OP_EQUAL", "type": "scripthash"}, "value": 0.01006304, "n": 0}, {"scriptPubKey": {"reqSigs": 1, "hex": "76a914bbaec083b5e6b2619a44122d11954d363152fd0488ac", "addresses": ["1J7NhraWXwxB5EzsPgHjvHxXqAAYgWV397"], "asm": "OP_DUP OP_HASH160 bbaec083b5e6b2619a44122d11954d363152fd04 OP_EQUALVERIFY OP_CHECKSIG", "type": "pubkeyhash"}, "value": 0.0031106, "n": 1}], "hex": "02000000000102638e11e042ff7cbe155dba968fe61ad68e40c8089bacdfe23447a7836cefb7ad0000000017160014cb9a37f06318130df5dbd111facdae06f88f86eafeffffff87411bbf370b413f6c573b6a07490daaa2401274364cbe6a13cc73716a3e0ae90800000017160014117f7761d1906fda64e7c7a6b24f9cc657cba5b6feffffff02e05a0f000000000017a914627ec3f3466077598bc2fdbee630e26675abe6c18714bf0400000000001976a914bbaec083b5e6b2619a44122d11954d363152fd0488ac024830450221008f482824ee4584ef14f111d4688b6a5c5afbea549d21248c11e82e9f3dd305030220648422dc0213519dcf9294afd67dcead57f05db6630bda5a5b815af2c7d569b1012102d5e8c5128db2c1bcb15c120c9bfabee3d427f16a430a9379060dce1ec11d1e0802483045022100f2e23cb605f998bcd2fb8afef33ad5cac5541859ec4c2781ac4240e0b0c0336102203e5348c2da8965681c7345cec25291fd4ba553b9a9649a5528c1585a8c54d3000121026e57e85c6f77acb74ad8bebe68e2cf0c50da84bdeac851480fd3959d268a7c2613490800", "vin": [{"txinwitness": ["30450221008f482824ee4584ef14f111d4688b6a5c5afbea549d21248c11e82e9f3dd305030220648422dc0213519dcf9294afd67dcead57f05db6630bda5a5b815af2c7d569b101", "02d5e8c5128db2c1bcb15c120c9bfabee3d427f16a430a9379060dce1ec11d1e08"], "sequence": 4294967294, "scriptSig": {"hex": "160014cb9a37f06318130df5dbd111facdae06f88f86ea", "asm": "0014cb9a37f06318130df5dbd111facdae06f88f86ea"}, "vout": 0, "txid": "adb7ef6c83a74734e2dfac9b08c8408ed61ae68f96ba5d15be7cff42e0118e63"}, {"txinwitness": ["3045022100f2e23cb605f998bcd2fb8afef33ad5cac5541859ec4c2781ac4240e0b0c0336102203e5348c2da8965681c7345cec25291fd4ba553b9a9649a5528c1585a8c54d30001", "026e57e85c6f77acb74ad8bebe68e2cf0c50da84bdeac851480fd3959d268a7c26"], "sequence": 4294967294, "scriptSig": {"hex": "160014117f7761d1906fda64e7c7a6b24f9cc657cba5b6", "asm": "0014117f7761d1906fda64e7c7a6b24f9cc657cba5b6"}, "vout": 8, "txid": "e90a3e6a7173cc136abe4c36741240a2aa0d49076a3b576c3f410b37bf1b4187"}], "txid": "8b9d274a03cc474a537669a224bfdab11e2b8a33353e19a0e3de0f8b157f9e31", "blocktime": 1537873891, "version": 2, "confirmations": 11478, "time": 1537873891, "locktime": 542995, "vsize": 259, "size": 422}