{"hash": "8b9e4e25379690c675c308e343a854028960b4ff98c4d2ca6018ebadc0071e20", "blockhash": "0000000000000000001f0ddff1eddb255c1121bcd4da4f1bc9a0da00cae72433", "vout": [{"scriptPubKey": {"reqSigs": 1, "hex": "76a9143790dcfcd5e581aa30711f74681f185822e1b28d88ac", "addresses": ["164ohppogLKgKMimzkqQb1yMXEXJBNXpvf"], "asm": "OP_DUP OP_HASH160 3790dcfcd5e581aa30711f74681f185822e1b28d OP_EQUALVERIFY OP_CHECKSIG", "type": "pubkeyhash"}, "value": 0.0544802, "n": 0}, {"scriptPubKey": {"reqSigs": 1, "hex": "76a914fb5d7e1954d191ecda37dcb5dd57f751fac5923488ac", "addresses": ["1Pv6c8PScRKAYdp9hcrVe1zbyPRDFbkecd"], "asm": "OP_DUP OP_HASH160 fb5d7e1954d191ecda37dcb5dd57f751fac59234 OP_EQUALVERIFY OP_CHECKSIG", "type": "pubkeyhash"}, "value": 0.06691804, "n": 1}, {"scriptPubKey": {"reqSigs": 1, "hex": "76a914ee7cb174b212ddfc30362f6888de7ecf0199599288ac", "addresses": ["1Nk1CVRsVUpRx8pdxY4ZP5eAVZQfC2Ko7N"], "asm": "OP_DUP OP_HASH160 ee7cb174b212ddfc30362f6888de7ecf01995992 OP_EQUALVERIFY OP_CHECKSIG", "type": "pubkeyhash"}, "value": 0.07121196, "n": 2}], "hex": "01000000014e96f643aa31ad30e9ccd093d86de9e966ee21c944273588dc9e36f288363b9e010000006a47304402203f33dc59d11d66e5ce1a9f189f3cc5e0da33c3188feca0a74d43668d226666a502203773c7915f11f2c9a976a92fcd24686193caa2be1003e8f17e458589f77494f5012102f0fa5d422ad29c28c5bd8ba105952bc80c62ffd0edfb0e3aaa7d4d3239f17296fdffffff0354215300000000001976a9143790dcfcd5e581aa30711f74681f185822e1b28d88acdc1b6600000000001976a914fb5d7e1954d191ecda37dcb5dd57f751fac5923488ac2ca96c00000000001976a914ee7cb174b212ddfc30362f6888de7ecf0199599288ac11490800", "vin": [{"sequence": 4294967293, "scriptSig": {"hex": "47304402203f33dc59d11d66e5ce1a9f189f3cc5e0da33c3188feca0a74d43668d226666a502203773c7915f11f2c9a976a92fcd24686193caa2be1003e8f17e458589f77494f5012102f0fa5d422ad29c28c5bd8ba105952bc80c62ffd0edfb0e3aaa7d4d3239f17296", "asm": "304402203f33dc59d11d66e5ce1a9f189f3cc5e0da33c3188feca0a74d43668d226666a502203773c7915f11f2c9a976a92fcd24686193caa2be1003e8f17e458589f77494f5[ALL] 02f0fa5d422ad29c28c5bd8ba105952bc80c62ffd0edfb0e3aaa7d4d3239f17296"}, "vout": 1, "txid": "9e3b3688f2369edc88352744c921ee66e9e96dd893d0cce930ad31aa43f6964e"}], "txid": "8b9e4e25379690c675c308e343a854028960b4ff98c4d2ca6018ebadc0071e20", "blocktime": 1537872018, "version": 1, "confirmations": 11489, "time": 1537872018, "locktime": 542993, "vsize": 259, "size": 259}