{"hash": "8ba8e161b1a68a894f79de1d9947578a1abb89e7c764fbdd345c7819efdfcd4d", "blockhash": "00000000000000000024a2167bbff67b0be802c0b01cdd79e6331c2be6459f87", "vout": [{"scriptPubKey": {"reqSigs": 1, "hex": "a91487f9be3daae02eceb9bfffc65148318438cbf2d287", "addresses": ["3E5zKu1u9B6vFRU8z6zmm4FrUpRADv5ahn"], "asm": "OP_HASH160 87f9be3daae02eceb9bfffc65148318438cbf2d2 OP_EQUAL", "type": "scripthash"}, "value": 0.86998663, "n": 0}], "hex": "01000000015334d0d975f0b889007ade8e39faa7cd9fd197c34b0a1a6e933d93a5d57bca32000000006b483045022100d4dcda0343db6146382437bf7249b1f1d31c947e4dc9326d3268774b1e5c48f102202d9a89c00fe5b5e042520a0c859ace9fbbb77eb9aaad8e012814cbf9514950280121027a22eddcfe59bd0057ef1dd1024ee46dbc757e0720f1f52438cd1717779a4484ffffffff01877e2f050000000017a91487f9be3daae02eceb9bfffc65148318438cbf2d28700000000", "vin": [{"sequence": 4294967295, "scriptSig": {"hex": "483045022100d4dcda0343db6146382437bf7249b1f1d31c947e4dc9326d3268774b1e5c48f102202d9a89c00fe5b5e042520a0c859ace9fbbb77eb9aaad8e012814cbf9514950280121027a22eddcfe59bd0057ef1dd1024ee46dbc757e0720f1f52438cd1717779a4484", "asm": "3045022100d4dcda0343db6146382437bf7249b1f1d31c947e4dc9326d3268774b1e5c48f102202d9a89c00fe5b5e042520a0c859ace9fbbb77eb9aaad8e012814cbf951495028[ALL] 027a22eddcfe59bd0057ef1dd1024ee46dbc757e0720f1f52438cd1717779a4484"}, "vout": 0, "txid": "32ca7bd5a5933d936e1a0a4bc397d19fcda7fa398ede7a0089b8f075d9d03453"}], "txid": "8ba8e161b1a68a894f79de1d9947578a1abb89e7c764fbdd345c7819efdfcd4d", "blocktime": 1537870564, "version": 1, "confirmations": 11515, "time": 1537870564, "locktime": 0, "vsize": 190, "size": 190}