{"hash": "8bba235e4735dd008ab6f9409e85408300ab0c6a3a515c37a9327a9b305da8df", "blockhash": "0000000000000000001f76057863aec43deb6fa401d9628bb513d65a8098bfab", "vout": [{"scriptPubKey": {"reqSigs": 1, "hex": "a9149b506d46ae1d4930090e40dfcbdd4c2d6f1f01e087", "addresses": ["3FrF1S748LUDKBJ2ouMV2dCBBtZj8cv1Td"], "asm": "OP_HASH160 9b506d46ae1d4930090e40dfcbdd4c2d6f1f01e0 OP_EQUAL", "type": "scripthash"}, "value": 0.00064, "n": 0}, {"scriptPubKey": {"reqSigs": 1, "hex": "76a914e349bc52d6b8100b58d3fce45135a91c5c128a1d88ac", "addresses": ["1MiningDkXkhKaXBTMKXfLemnk1YY5rbkT"], "asm": "OP_DUP OP_HASH160 e349bc52d6b8100b58d3fce45135a91c5c128a1d OP_EQUALVERIFY OP_CHECKSIG", "type": "pubkeyhash"}, "value": 0.08186161, "n": 1}], "hex": "0200000001fa92a9a25b3b12e1a3a96f9a36e23321f4addaf5a7007e4a950f966e5638aaa7010000008b48304502210091e102bc571dfff701a1fbc62e9f89729316952d4dff2f9c4184b374a9b57d2502201772900f86b6f7681bba784907ccb5164b30b0c25b1acec53ffe2ec8b86eed53014104ae414abde7876c34e01694b38b2341d10b9b4c8db18a66262bd8df26bcb57893885c9fe8b79aa25330d5f05bb5aa9ab636a908a72e27956572b44190b22809beffffffff0200fa00000000000017a9149b506d46ae1d4930090e40dfcbdd4c2d6f1f01e08731e97c00000000001976a914e349bc52d6b8100b58d3fce45135a91c5c128a1d88ac00000000", "vin": [{"sequence": 4294967295, "scriptSig": {"hex": "48304502210091e102bc571dfff701a1fbc62e9f89729316952d4dff2f9c4184b374a9b57d2502201772900f86b6f7681bba784907ccb5164b30b0c25b1acec53ffe2ec8b86eed53014104ae414abde7876c34e01694b38b2341d10b9b4c8db18a66262bd8df26bcb57893885c9fe8b79aa25330d5f05bb5aa9ab636a908a72e27956572b44190b22809be", "asm": "304502210091e102bc571dfff701a1fbc62e9f89729316952d4dff2f9c4184b374a9b57d2502201772900f86b6f7681bba784907ccb5164b30b0c25b1acec53ffe2ec8b86eed53[ALL] 04ae414abde7876c34e01694b38b2341d10b9b4c8db18a66262bd8df26bcb57893885c9fe8b79aa25330d5f05bb5aa9ab636a908a72e27956572b44190b22809be"}, "vout": 1, "txid": "a7aa38566e960f954a7e00a7f5daadf42133e2369a6fa9a3e1123b5ba2a992fa"}], "txid": "8bba235e4735dd008ab6f9409e85408300ab0c6a3a515c37a9327a9b305da8df", "blocktime": 1537873891, "version": 2, "confirmations": 11478, "time": 1537873891, "locktime": 0, "vsize": 256, "size": 256}