{"hash": "a1523634af17fc16c269f50a68bbdbc900b1cab62ff2558ec6413f37027f0e32", "blockhash": "0000000000000000000e13cef7c366c0283d82e591d1acd082e914b08063cdf1", "vout": [{"scriptPubKey": {"reqSigs": 1, "hex": "a914875836e39fef6897e8db1474712d472e0b0a87b987", "addresses": ["3E2epgiXQi9pEDt11dEbyyFDi8xsvMaDZs"], "asm": "OP_HASH160 875836e39fef6897e8db1474712d472e0b0a87b9 OP_EQUAL", "type": "scripthash"}, "value": 0.00091736, "n": 0}, {"scriptPubKey": {"reqSigs": 1, "hex": "a9149b0827b87364666edbead5a4c42bbd1a5b236a1387", "addresses": ["3FpkRuc5pxWZoRpT8oh4vBprJ756qkaYJA"], "asm": "OP_HASH160 9b0827b87364666edbead5a4c42bbd1a5b236a13 OP_EQUAL", "type": "scripthash"}, "value": 11.56510259, "n": 1}], "hex": "02000000000101e5132bc455a1e59ee45fcb44f0f410078b926d30b9b33572c7d5844e16fba3130100000017160014d4f784611c4abc93ec8b4fe12b7a5bc4313ad857feffffff02586601000000000017a914875836e39fef6897e8db1474712d472e0b0a87b98733f2ee440000000017a9149b0827b87364666edbead5a4c42bbd1a5b236a138702473044022077a2944aeb07d4543f0fd98ca263b4d07b74da6f4888ab273106a13730a6477a022069ce9806370e481cc335eebd9b9bbbcc220c001a043e9eeb648ca314aa02c1ab0121033cbad3a33c0ee155194f19f00fcc3a35cf608214e32ce05d4675233bd90fb126de480800", "vin": [{"txinwitness": ["3044022077a2944aeb07d4543f0fd98ca263b4d07b74da6f4888ab273106a13730a6477a022069ce9806370e481cc335eebd9b9bbbcc220c001a043e9eeb648ca314aa02c1ab01", "033cbad3a33c0ee155194f19f00fcc3a35cf608214e32ce05d4675233bd90fb126"], "sequence": 4294967294, "scriptSig": {"hex": "160014d4f784611c4abc93ec8b4fe12b7a5bc4313ad857", "asm": "0014d4f784611c4abc93ec8b4fe12b7a5bc4313ad857"}, "vout": 1, "txid": "13a3fb164e84d5c77235b3b9306d928b0710f4f044cb5fe49ee5a155c42b13e5"}], "txid": "8bbd3ac2e50458aaf178ee157ccc6de8f4aa24ed368286eefde4599db8db0e03", "blocktime": 1537871767, "version": 2, "confirmations": 11492, "time": 1537871767, "locktime": 542942, "vsize": 166, "size": 247}