{"hash": "8bbe116ebf2f3524a5ebb4331ba0785fca4b2a4de4cfc0e17ef678af1b9a29e1", "blockhash": "0000000000000000001f76057863aec43deb6fa401d9628bb513d65a8098bfab", "vout": [{"scriptPubKey": {"reqSigs": 1, "hex": "a9143b2bac969837c75b1e73225e8816b3ea1dcd067487", "addresses": ["375t7Px1febaX944A66FdZV1q5Zaq6ygib"], "asm": "OP_HASH160 3b2bac969837c75b1e73225e8816b3ea1dcd0674 OP_EQUAL", "type": "scripthash"}, "value": 0.0082273, "n": 0}, {"scriptPubKey": {"reqSigs": 1, "hex": "76a914283307cece40eeaa9a5a3b2af384837e7447f86b88ac", "addresses": ["14fZALQAQn62E9DyEJBu88aeafobxkcAeo"], "asm": "OP_DUP OP_HASH160 283307cece40eeaa9a5a3b2af384837e7447f86b OP_EQUALVERIFY OP_CHECKSIG", "type": "pubkeyhash"}, "value": 0.00925316, "n": 1}], "hex": "0200000002d6703f5ebb80cd3dcb891a61a451ae2ff8e8155779a6f154c1c9eb0e3ce0a5df010000006b4830450221009ee691038c969dbdc1c43d2235a90259c633cf7d44f9a881e1927408be55883b02205e59314de863a46a04f86170c1bf85320c33bb0a45f3088fd1206e4a351fedd001210204d4482230dfa88971ee48ea0ad25930a0f7ef0c5e83abe55476c894a5dc3caefeffffffc78c1d706b62fddab30c8e3c3c048dd3875be1af78894b4c54295254b0939408010000006b483045022100c00734b1fac9ae56073a1239983aba11776c4d9ea8e225b83b856983b269551b022026afc5bda9d72b727d50801599610db785bc64dc41ff3f8c0c0bf2041685d10d012103675265397679a969fac44eee9c00605b74c6c842b49e95dca78b5f3fc69b35c8feffffff02ca8d0c000000000017a9143b2bac969837c75b1e73225e8816b3ea1dcd067487841e0e00000000001976a914283307cece40eeaa9a5a3b2af384837e7447f86b88ac14490800", "vin": [{"sequence": 4294967294, "scriptSig": {"hex": "4830450221009ee691038c969dbdc1c43d2235a90259c633cf7d44f9a881e1927408be55883b02205e59314de863a46a04f86170c1bf85320c33bb0a45f3088fd1206e4a351fedd001210204d4482230dfa88971ee48ea0ad25930a0f7ef0c5e83abe55476c894a5dc3cae", "asm": "30450221009ee691038c969dbdc1c43d2235a90259c633cf7d44f9a881e1927408be55883b02205e59314de863a46a04f86170c1bf85320c33bb0a45f3088fd1206e4a351fedd0[ALL] 0204d4482230dfa88971ee48ea0ad25930a0f7ef0c5e83abe55476c894a5dc3cae"}, "vout": 1, "txid": "dfa5e03c0eebc9c154f1a6795715e8f82fae51a4611a89cb3dcd80bb5e3f70d6"}, {"sequence": 4294967294, "scriptSig": {"hex": "483045022100c00734b1fac9ae56073a1239983aba11776c4d9ea8e225b83b856983b269551b022026afc5bda9d72b727d50801599610db785bc64dc41ff3f8c0c0bf2041685d10d012103675265397679a969fac44eee9c00605b74c6c842b49e95dca78b5f3fc69b35c8", "asm": "3045022100c00734b1fac9ae56073a1239983aba11776c4d9ea8e225b83b856983b269551b022026afc5bda9d72b727d50801599610db785bc64dc41ff3f8c0c0bf2041685d10d[ALL] 03675265397679a969fac44eee9c00605b74c6c842b49e95dca78b5f3fc69b35c8"}, "vout": 1, "txid": "089493b0545229544c4b8978afe15b87d38d043c3c8e0cb3dafd626b701d8cc7"}], "txid": "8bbe116ebf2f3524a5ebb4331ba0785fca4b2a4de4cfc0e17ef678af1b9a29e1", "blocktime": 1537873891, "version": 2, "confirmations": 11474, "time": 1537873891, "locktime": 542996, "vsize": 372, "size": 372}