{"hash": "8bc3aa65bdfa6010c63922c982910c0f6bd7f165cb01aa191c7dff6ccfb7ecf5", "blockhash": "0000000000000000000baef3f32e3676a92c3b2e5da21b426e4f302fc371ce76", "vout": [{"scriptPubKey": {"reqSigs": 1, "hex": "a914a4e8027c92e6717d0b2cd48bad5e83ecdea1583487", "addresses": ["3GixgKbZJARxShjgs9z2B5jLLQHeXfFmFM"], "asm": "OP_HASH160 a4e8027c92e6717d0b2cd48bad5e83ecdea15834 OP_EQUAL", "type": "scripthash"}, "value": 0.001586, "n": 0}, {"scriptPubKey": {"reqSigs": 1, "hex": "76a9148f27e8d015d6d3e055b7c97f5a5d955b75dcdc2388ac", "addresses": ["1E3wSPTcWD6P4GTYmctzbHmWDt8TyXVDV2"], "asm": "OP_DUP OP_HASH160 8f27e8d015d6d3e055b7c97f5a5d955b75dcdc23 OP_EQUALVERIFY OP_CHECKSIG", "type": "pubkeyhash"}, "value": 0.01053724, "n": 1}], "hex": "0100000001f144185a6ee14e4ce259a8f911cb93d8104d9ae204ac2913dddca00fbd79920e010000006b483045022100906a6401f3a83095901e3bb7ce2af5695e9ddde407853158e7bd459f080a760d0220442bc4f7f5c2cc2e52870fb877bfee893b150ea036f09ad19fe2a7fc899b5e590121032ddfdfb0dfedbd98329f7554405c5e2f28dc20cb6d07878998a1960e344bbd0cffffffff02886b02000000000017a914a4e8027c92e6717d0b2cd48bad5e83ecdea15834871c141000000000001976a9148f27e8d015d6d3e055b7c97f5a5d955b75dcdc2388ac00000000", "vin": [{"sequence": 4294967295, "scriptSig": {"hex": "483045022100906a6401f3a83095901e3bb7ce2af5695e9ddde407853158e7bd459f080a760d0220442bc4f7f5c2cc2e52870fb877bfee893b150ea036f09ad19fe2a7fc899b5e590121032ddfdfb0dfedbd98329f7554405c5e2f28dc20cb6d07878998a1960e344bbd0c", "asm": "3045022100906a6401f3a83095901e3bb7ce2af5695e9ddde407853158e7bd459f080a760d0220442bc4f7f5c2cc2e52870fb877bfee893b150ea036f09ad19fe2a7fc899b5e59[ALL] 032ddfdfb0dfedbd98329f7554405c5e2f28dc20cb6d07878998a1960e344bbd0c"}, "vout": 1, "txid": "0e9279bd0fa0dcdd1329ac04e29a4d10d893cb11f9a859e24c4ee16e5a1844f1"}], "txid": "8bc3aa65bdfa6010c63922c982910c0f6bd7f165cb01aa191c7dff6ccfb7ecf5", "blocktime": 1537876114, "version": 1, "confirmations": 11460, "time": 1537876114, "locktime": 0, "vsize": 224, "size": 224}