{"hash": "8bca1e433e920a1486665b7d8ba560346462900d60776cb06f8efaaea1de1e5b", "blockhash": "00000000000000000024a2167bbff67b0be802c0b01cdd79e6331c2be6459f87", "vout": [{"scriptPubKey": {"reqSigs": 1, "hex": "76a914c7adf3430dbd3396f3094d690fe7af870bacedd188ac", "addresses": ["1KCorT3G7zCdkm6KGpr6uLZq9jz43KoncE"], "asm": "OP_DUP OP_HASH160 c7adf3430dbd3396f3094d690fe7af870bacedd1 OP_EQUALVERIFY OP_CHECKSIG", "type": "pubkeyhash"}, "value": 0.16465406, "n": 0}, {"scriptPubKey": {"reqSigs": 1, "hex": "76a9144a0f1e2f2b0d7daeec5265f10bbbbe08ed725e8988ac", "addresses": ["17kb7c9ndg7ioSuzMWEHWECdEVUegNkcGc"], "asm": "OP_DUP OP_HASH160 4a0f1e2f2b0d7daeec5265f10bbbbe08ed725e89 OP_EQUALVERIFY OP_CHECKSIG", "type": "pubkeyhash"}, "value": 0.0452989, "n": 1}], "hex": "0100000001bc8c15eb59e07da5bf2154beab7f051d8b94e997e3c65b2f33c16a8ff0c5469c000000006a473044022031ed6eb2d1d90fc0dab75b443e906e2c99ac0e24a0495b3574d3595d80626a1a0220300c72de7ca60c935f47f425fd1714cd1cc80e6aeeaf0113845ad2d7ee5d62f001210363e1776495149c5a4e92acf453a3caa19000fc804e4ba2024b600ba25e09c943ffffffff02fe3dfb00000000001976a914c7adf3430dbd3396f3094d690fe7af870bacedd188ace21e4500000000001976a9144a0f1e2f2b0d7daeec5265f10bbbbe08ed725e8988ac00000000", "vin": [{"sequence": 4294967295, "scriptSig": {"hex": "473044022031ed6eb2d1d90fc0dab75b443e906e2c99ac0e24a0495b3574d3595d80626a1a0220300c72de7ca60c935f47f425fd1714cd1cc80e6aeeaf0113845ad2d7ee5d62f001210363e1776495149c5a4e92acf453a3caa19000fc804e4ba2024b600ba25e09c943", "asm": "3044022031ed6eb2d1d90fc0dab75b443e906e2c99ac0e24a0495b3574d3595d80626a1a0220300c72de7ca60c935f47f425fd1714cd1cc80e6aeeaf0113845ad2d7ee5d62f0[ALL] 0363e1776495149c5a4e92acf453a3caa19000fc804e4ba2024b600ba25e09c943"}, "vout": 0, "txid": "9c46c5f08f6ac1332f5bc6e397e9948b1d057fabbe5421bfa57de059eb158cbc"}], "txid": "8bca1e433e920a1486665b7d8ba560346462900d60776cb06f8efaaea1de1e5b", "blocktime": 1537870564, "version": 1, "confirmations": 11515, "time": 1537870564, "locktime": 0, "vsize": 225, "size": 225}