{"hash": "d74a38889666c1a5354d35714d07e778011dbc724bd94f22610793e41b3cde61", "blockhash": "0000000000000000001cda96e906b7601b7a6fb1a3b62bca570a9e5d8f4b3de1", "vout": [{"scriptPubKey": {"reqSigs": 1, "hex": "a9149353abdf76e1ceb8f0cdc3c56d09de98063d966f87", "addresses": ["3F81VLDXQrmYpFCNgEcnbAYiUYukJ77DEi"], "asm": "OP_HASH160 9353abdf76e1ceb8f0cdc3c56d09de98063d966f OP_EQUAL", "type": "scripthash"}, "value": 0.004874, "n": 0}, {"scriptPubKey": {"reqSigs": 1, "hex": "a9143a6fd7572382f5ed26e1d168eb7b0013e109d00487", "addresses": ["37216Xk88pkd5CLeyFCPP9TE9yaq7yD5Kc"], "asm": "OP_HASH160 3a6fd7572382f5ed26e1d168eb7b0013e109d004 OP_EQUAL", "type": "scripthash"}, "value": 0.1951042, "n": 1}], "hex": "010000000001011f969c92710e2341a5378241031f1e8b91219131e096b6a22b4a8f1aa660117d00000000232200206a78796f2d1ebbd75443b11872d6bbe16763300eab1e04d68bce100836fce52bffffffff02e86f07000000000017a9149353abdf76e1ceb8f0cdc3c56d09de98063d966f8794b429010000000017a9143a6fd7572382f5ed26e1d168eb7b0013e109d004870400483045022100bfa3fe23c91006d64ee69d2db12ada85412bbedbecb7417903d997941353ba9a02207f0661c4ed59bbc5cf78a02c14a9b7b5c9ff1cb8ae66e9aed238fb095713b87c0147304402207782b980216b900077cea56d15877bd7a6697d58aa2467c4c92060137fa204710220422c55aa8476cdeeaab159768f15c9e25fbca1233b1ce05586378dfffe8ab8ae0169522103f4108d88a65d42a005516dfc712f634e108b821a2f39aa5ad2aba2a82f4702a52103884a6ed67c8af199a33a3d68a341f18a623a4be02c98b5c645193efbbb1bab3521022a40b78f324bb59d98145a2b100e3ec19bd45a0dab9e25e7cfddae85770ff93553ae14490800", "vin": [{"txinwitness": ["", "3045022100bfa3fe23c91006d64ee69d2db12ada85412bbedbecb7417903d997941353ba9a02207f0661c4ed59bbc5cf78a02c14a9b7b5c9ff1cb8ae66e9aed238fb095713b87c01", "304402207782b980216b900077cea56d15877bd7a6697d58aa2467c4c92060137fa204710220422c55aa8476cdeeaab159768f15c9e25fbca1233b1ce05586378dfffe8ab8ae01", "522103f4108d88a65d42a005516dfc712f634e108b821a2f39aa5ad2aba2a82f4702a52103884a6ed67c8af199a33a3d68a341f18a623a4be02c98b5c645193efbbb1bab3521022a40b78f324bb59d98145a2b100e3ec19bd45a0dab9e25e7cfddae85770ff93553ae"], "sequence": 4294967295, "scriptSig": {"hex": "2200206a78796f2d1ebbd75443b11872d6bbe16763300eab1e04d68bce100836fce52b", "asm": "00206a78796f2d1ebbd75443b11872d6bbe16763300eab1e04d68bce100836fce52b"}, "vout": 0, "txid": "7d1160a61a8f4a2ba2b696e0319121918b1e1f03418237a541230e71929c961f"}], "txid": "8bcbd54a86e9d8142f2cd9bb3dc88d4c0a98aa307a88b722428843893cf99fa2", "blocktime": 1537873282, "version": 1, "confirmations": 11481, "time": 1537873282, "locktime": 542996, "vsize": 214, "size": 405}