{"hash": "8bcc450be0873f2ca7ca5738236b2606d1fd672ec5f76aae5e6ab196c89f57b7", "blockhash": "0000000000000000000e13cef7c366c0283d82e591d1acd082e914b08063cdf1", "vout": [{"scriptPubKey": {"reqSigs": 1, "hex": "76a914fcf3d5f2d857aef20d67f57afafbc9e8728adab388ac", "addresses": ["1Q4VPM2VJyBgz5xMPat7nzDqqjTsJExefL"], "asm": "OP_DUP OP_HASH160 fcf3d5f2d857aef20d67f57afafbc9e8728adab3 OP_EQUALVERIFY OP_CHECKSIG", "type": "pubkeyhash"}, "value": 0.00318034, "n": 0}, {"scriptPubKey": {"reqSigs": 1, "hex": "76a914bdcd1a60519b0c3d31472f4e4ab69948146c1d8588ac", "addresses": ["1JJaR4jr2k1wM3T7vyx3mshdFdDP24i5Sz"], "asm": "OP_DUP OP_HASH160 bdcd1a60519b0c3d31472f4e4ab69948146c1d85 OP_EQUALVERIFY OP_CHECKSIG", "type": "pubkeyhash"}, "value": 0.00027913, "n": 1}], "hex": "0200000001269fa794c739cc11b59af25df2a57d9af2257a6e2f409a6f9635a966aa0963af030000006a47304402203fc4e7c9005bc7cbdbdec3a1637972d461a43b41198d22a2347057e9d8ee5d45022034defbf947e8c86ac77ec226a6e2d1ed65c7c9ec5c54927255617c7e7d5729d40121028b85aa22f833a99c9dd319e17fbe51e54b1751cb4acb4f42a838b947ce79daa6ffffffff0252da0400000000001976a914fcf3d5f2d857aef20d67f57afafbc9e8728adab388ac096d0000000000001976a914bdcd1a60519b0c3d31472f4e4ab69948146c1d8588ac00000000", "vin": [{"sequence": 4294967295, "scriptSig": {"hex": "47304402203fc4e7c9005bc7cbdbdec3a1637972d461a43b41198d22a2347057e9d8ee5d45022034defbf947e8c86ac77ec226a6e2d1ed65c7c9ec5c54927255617c7e7d5729d40121028b85aa22f833a99c9dd319e17fbe51e54b1751cb4acb4f42a838b947ce79daa6", "asm": "304402203fc4e7c9005bc7cbdbdec3a1637972d461a43b41198d22a2347057e9d8ee5d45022034defbf947e8c86ac77ec226a6e2d1ed65c7c9ec5c54927255617c7e7d5729d4[ALL] 028b85aa22f833a99c9dd319e17fbe51e54b1751cb4acb4f42a838b947ce79daa6"}, "vout": 3, "txid": "af6309aa66a935966f9a402f6e7a25f29a7da5f25df29ab511cc39c794a79f26"}], "txid": "8bcc450be0873f2ca7ca5738236b2606d1fd672ec5f76aae5e6ab196c89f57b7", "blocktime": 1537871767, "version": 2, "confirmations": 11490, "time": 1537871767, "locktime": 0, "vsize": 225, "size": 225}