{"hash": "8bce091c3066ffb53e0d69240ce866330b4a655589226858c5e9f6418bf376b1", "blockhash": "0000000000000000001e0dab787dd257d1dbfcb92a98c2207d5e1078be1f4165", "vout": [{"scriptPubKey": {"reqSigs": 1, "hex": "76a9146511d09316da9edcae96e0543c8fcc811fb3c26188ac", "addresses": ["1ADQbAa77gCd2icyztvK9bTtjustfKnNqX"], "asm": "OP_DUP OP_HASH160 6511d09316da9edcae96e0543c8fcc811fb3c261 OP_EQUALVERIFY OP_CHECKSIG", "type": "pubkeyhash"}, "value": 0.531987, "n": 0}, {"scriptPubKey": {"reqSigs": 1, "hex": "76a9146fdbf0eee8f3b6da14a2ebe5d2b793738b131e0d88ac", "addresses": ["1BCTV5An4uhLUDkVLpMa1zroqnvXZZQxPm"], "asm": "OP_DUP OP_HASH160 6fdbf0eee8f3b6da14a2ebe5d2b793738b131e0d OP_EQUALVERIFY OP_CHECKSIG", "type": "pubkeyhash"}, "value": 0.02264427, "n": 1}], "hex": "0100000002ba0b24ebc49a8b09e449f03e87ccea90f2fc8ad87dc9293d1234e027609e9ad3030000006b483045022100a9df09bba910e2378d3d688f5360389fc751bd6337624d159e8567f60850c65c02201d0b9772069f9a2b9d17b242595ebb4fd408bcf238509059d9b50450fabd1873012103a73d4e98fdc0676d020dd0fa8bd7524f470f59c1354aba13c9fd67172f97df67fffffffff00eff50e9f7371ab8920fdda53ec14061f59a02e926a1c0e83ccd9cf471d9e8010000006b483045022100c14223dd524625c9f81a6b577dba6901952ca261e4d8a6f785da29679f966f110220126e250913af737b7216043d98a899316521ff3d4e9c23ab53cfd9a13965f688012103248342f4199270d1217685453b06a286c85947d8305ec09ccabc882a76c842dbffffffff026cbf2b03000000001976a9146511d09316da9edcae96e0543c8fcc811fb3c26188ac6b8d2200000000001976a9146fdbf0eee8f3b6da14a2ebe5d2b793738b131e0d88ac00000000", "vin": [{"sequence": 4294967295, "scriptSig": {"hex": "483045022100a9df09bba910e2378d3d688f5360389fc751bd6337624d159e8567f60850c65c02201d0b9772069f9a2b9d17b242595ebb4fd408bcf238509059d9b50450fabd1873012103a73d4e98fdc0676d020dd0fa8bd7524f470f59c1354aba13c9fd67172f97df67", "asm": "3045022100a9df09bba910e2378d3d688f5360389fc751bd6337624d159e8567f60850c65c02201d0b9772069f9a2b9d17b242595ebb4fd408bcf238509059d9b50450fabd1873[ALL] 03a73d4e98fdc0676d020dd0fa8bd7524f470f59c1354aba13c9fd67172f97df67"}, "vout": 3, "txid": "d39a9e6027e034123d29c97dd88afcf290eacc873ef049e4098b9ac4eb240bba"}, {"sequence": 4294967295, "scriptSig": {"hex": "483045022100c14223dd524625c9f81a6b577dba6901952ca261e4d8a6f785da29679f966f110220126e250913af737b7216043d98a899316521ff3d4e9c23ab53cfd9a13965f688012103248342f4199270d1217685453b06a286c85947d8305ec09ccabc882a76c842db", "asm": "3045022100c14223dd524625c9f81a6b577dba6901952ca261e4d8a6f785da29679f966f110220126e250913af737b7216043d98a899316521ff3d4e9c23ab53cfd9a13965f688[ALL] 03248342f4199270d1217685453b06a286c85947d8305ec09ccabc882a76c842db"}, "vout": 1, "txid": "e8d971f49ccd3ce8c0a126e9029af56140c13ea5dd0f92b81a37f7e950ff0ef0"}], "txid": "8bce091c3066ffb53e0d69240ce866330b4a655589226858c5e9f6418bf376b1", "blocktime": 1537872475, "version": 1, "confirmations": 11486, "time": 1537872475, "locktime": 0, "vsize": 374, "size": 374}