{"hash": "8bcf275a15088b3db3d0e2ddd43243bbbbb63622ee436bc7e50c49bcb9e1b6a0", "blockhash": "0000000000000000001e0dab787dd257d1dbfcb92a98c2207d5e1078be1f4165", "vout": [{"scriptPubKey": {"reqSigs": 1, "hex": "a9149bbd6962cd8c2ad45e18eb71faa1151921397bce87", "addresses": ["3FtVZq8NXFwNPnAQSmDawYXLDbbrgWP6CR"], "asm": "OP_HASH160 9bbd6962cd8c2ad45e18eb71faa1151921397bce OP_EQUAL", "type": "scripthash"}, "value": 0.00188061, "n": 0}, {"scriptPubKey": {"reqSigs": 1, "hex": "76a91422182d8c9910e416fd17399126a71add7c6fddfe88ac", "addresses": ["147GwSB4bHJp2JPXmuUfhwYr2hajTKFX39"], "asm": "OP_DUP OP_HASH160 22182d8c9910e416fd17399126a71add7c6fddfe OP_EQUALVERIFY OP_CHECKSIG", "type": "pubkeyhash"}, "value": 0.00025022, "n": 1}], "hex": "0100000001f343f260d5c9cb8969f7e3e71bd05657c0d200241b873f76f1bac309fbc0eb1d010000006a47304402203c9de1f732da167fdadb3aa7bce65c68ba9fbc77923007e0760c4b037bee98270220686c3b3c45d01323ecaf64cd698322c833913b2246b2a41d656882b8cf51952e0121034fbea4b03e0e48c1c42f6344a7f2a289991a2bf8bcb4df66c158fb86fe155302ffffffff029dde02000000000017a9149bbd6962cd8c2ad45e18eb71faa1151921397bce87be610000000000001976a91422182d8c9910e416fd17399126a71add7c6fddfe88ac00000000", "vin": [{"sequence": 4294967295, "scriptSig": {"hex": "47304402203c9de1f732da167fdadb3aa7bce65c68ba9fbc77923007e0760c4b037bee98270220686c3b3c45d01323ecaf64cd698322c833913b2246b2a41d656882b8cf51952e0121034fbea4b03e0e48c1c42f6344a7f2a289991a2bf8bcb4df66c158fb86fe155302", "asm": "304402203c9de1f732da167fdadb3aa7bce65c68ba9fbc77923007e0760c4b037bee98270220686c3b3c45d01323ecaf64cd698322c833913b2246b2a41d656882b8cf51952e[ALL] 034fbea4b03e0e48c1c42f6344a7f2a289991a2bf8bcb4df66c158fb86fe155302"}, "vout": 1, "txid": "1debc0fb09c3baf1763f871b2400d2c05756d01be7e3f76989cbc9d560f243f3"}], "txid": "8bcf275a15088b3db3d0e2ddd43243bbbbb63622ee436bc7e50c49bcb9e1b6a0", "blocktime": 1537872475, "version": 1, "confirmations": 11486, "time": 1537872475, "locktime": 0, "vsize": 223, "size": 223}