{"hash": "30cd0e6490a5554923d5bb6e3926e4a1f5b5b1262adf7ead2f0c02152d39188a", "blockhash": "00000000000000000017f5eb5941039fbcee6240d03bc1f2f8e35350df66a1d8", "vout": [{"scriptPubKey": {"reqSigs": 1, "hex": "0014e27980e0b8826485d829e256c89812e527734a0d", "addresses": ["bc1qufucpc9csfjgtkpfuftv3xqju5nhxjsdqw22me"], "asm": "0 e27980e0b8826485d829e256c89812e527734a0d", "type": "witness_v0_keyhash"}, "value": 0.27559655, "n": 0}, {"scriptPubKey": {"reqSigs": 1, "hex": "76a91483573f732d499d0bbe58f2bfb4b7126382f99f6788ac", "addresses": ["1CyU3DaBynrouR4Xjq87jkMU9AfHt7o72J"], "asm": "OP_DUP OP_HASH160 83573f732d499d0bbe58f2bfb4b7126382f99f67 OP_EQUALVERIFY OP_CHECKSIG", "type": "pubkeyhash"}, "value": 0.26029637, "n": 1}], "hex": "01000000000101d257c515b46ba3142761a597be2f4c56c5432fef266074db6e38f520b795e49f0100000000ffffffff02e786a40100000000160014e27980e0b8826485d829e256c89812e527734a0d452e8d01000000001976a91483573f732d499d0bbe58f2bfb4b7126382f99f6788ac02483045022100a37b7ec2b5e2bbff19128730263393b36d3183eb82437b3a0260df948183fda002201d0c96e64bb26ba0dd15729da02f8b883821cdf7c57e44358e275f52e27d3bad0121030816d6d2d4ccb079832a044c6fef1a32651471330f14956ca51f5a920571b22400000000", "vin": [{"txinwitness": ["3045022100a37b7ec2b5e2bbff19128730263393b36d3183eb82437b3a0260df948183fda002201d0c96e64bb26ba0dd15729da02f8b883821cdf7c57e44358e275f52e27d3bad01", "030816d6d2d4ccb079832a044c6fef1a32651471330f14956ca51f5a920571b224"], "sequence": 4294967295, "scriptSig": {"hex": "", "asm": ""}, "vout": 1, "txid": "9fe495b720f5386edb746026ef2f43c5564c2fbe97a5612714a36bb415c557d2"}], "txid": "8bd3c952ad036262475bc9411d79a888fe65ca3e9261b46280245354076b1178", "blocktime": 1537874412, "version": 1, "confirmations": 11467, "time": 1537874412, "locktime": 0, "vsize": 144, "size": 226}