{"hash": "ee8d0ed9126c20fa21b0f9c75af5d36deb5afe6d98718b3f867d9c598a09f56a", "blockhash": "0000000000000000000baef3f32e3676a92c3b2e5da21b426e4f302fc371ce76", "vout": [{"scriptPubKey": {"reqSigs": 1, "hex": "a9142991a1f5b5a3bd5d1ce7b30f0788d4630be4906c87", "addresses": ["35Up69Fdcgn5V84W7VpUUteGhq5Gc2eXzF"], "asm": "OP_HASH160 2991a1f5b5a3bd5d1ce7b30f0788d4630be4906c OP_EQUAL", "type": "scripthash"}, "value": 0.00108, "n": 0}, {"scriptPubKey": {"reqSigs": 1, "hex": "a9149649ad6d2730bb28020a268d9d80df10a9f74ad487", "addresses": ["3FPfYWwfMfKMGY7fuPHvz2b73RhTNGzsm3"], "asm": "OP_HASH160 9649ad6d2730bb28020a268d9d80df10a9f74ad4 OP_EQUAL", "type": "scripthash"}, "value": 13.73688776, "n": 1}], "hex": "010000000001010e57276de7ee2181f85348f3449af197ea607a18eddec91673cd43b721c1c73e01000000232200207768efcc1e5eb3d28410fac3f45831004c860cc24cddd940a616b34324823fceffffffff02e0a501000000000017a9142991a1f5b5a3bd5d1ce7b30f0788d4630be4906c87c8d3e0510000000017a9149649ad6d2730bb28020a268d9d80df10a9f74ad4870400483045022100f73469c9e0e9c13747f9f5a3d71e4d7da638dc1ace75a05349eb1be270de905c0220312c21eede1341a37ad370297cccf74b49c28ddb3a7fbddc865fff7b00410c1601483045022100b728dd55409132adbaa33fdbc8e7fde6619bd344e48e01cfb1174212c512187a02202d5dfd9476b342f6974b4e62982949356f6019b335921247d28dd0255fc747530147522102529d5d1f6733ab45d9d50e07db42c7f6b967ae321c38b726c2247f149959b8262103d0c936a5988dd8421c63240496b723b0ec42400c38b9350e32c2eb4f47d8796952ae00000000", "vin": [{"txinwitness": ["", "3045022100f73469c9e0e9c13747f9f5a3d71e4d7da638dc1ace75a05349eb1be270de905c0220312c21eede1341a37ad370297cccf74b49c28ddb3a7fbddc865fff7b00410c1601", "3045022100b728dd55409132adbaa33fdbc8e7fde6619bd344e48e01cfb1174212c512187a02202d5dfd9476b342f6974b4e62982949356f6019b335921247d28dd0255fc7475301", "522102529d5d1f6733ab45d9d50e07db42c7f6b967ae321c38b726c2247f149959b8262103d0c936a5988dd8421c63240496b723b0ec42400c38b9350e32c2eb4f47d8796952ae"], "sequence": 4294967295, "scriptSig": {"hex": "2200207768efcc1e5eb3d28410fac3f45831004c860cc24cddd940a616b34324823fce", "asm": "00207768efcc1e5eb3d28410fac3f45831004c860cc24cddd940a616b34324823fce"}, "vout": 1, "txid": "3ec7c121b743cd7316c9deed187a60ea97f19a44f34853f88121eee76d27570e"}], "txid": "8bdaa8bc471c211426b30f5b3b8498cd96da4fb94437733fb5d57a17a165baf4", "blocktime": 1537876114, "version": 1, "confirmations": 11462, "time": 1537876114, "locktime": 0, "vsize": 206, "size": 372}