{"hash": "8bdc491ac1c1f67c591874d911932a3c7b4d25aca375119c8a7c41a011506ff0", "blockhash": "00000000000000000017f5eb5941039fbcee6240d03bc1f2f8e35350df66a1d8", "vout": [{"scriptPubKey": {"type": "nulldata", "hex": "6a146f6d6e69000000000000001f00000000f4610900", "asm": "OP_RETURN 6f6d6e69000000000000001f00000000f4610900"}, "value": 0.0, "n": 0}, {"scriptPubKey": {"reqSigs": 1, "hex": "76a914c8e7d6f91caa886f9c5591b987734e4e9900be7288ac", "addresses": ["1KKHssfYT8euLYUWsAuN8zgzPoXJdurtGM"], "asm": "OP_DUP OP_HASH160 c8e7d6f91caa886f9c5591b987734e4e9900be72 OP_EQUALVERIFY OP_CHECKSIG", "type": "pubkeyhash"}, "value": 0.29327422, "n": 1}], "hex": "0100000002e4c149951ee42ddbe7b170d82420a3b7402e820910fb28fc79817ea2281b63c8020000006b483045022100f31616966a60a6d8b10b9050451c2d1f6f59bef5e5ee0a255e920c0f0062a85902206408e94e4ede0b4b4dd8ef56835eeaff118b545ad552bd593b82ef8ede73ee060121032ed246d82953c4f3e87945c52ccb8777d9c88052fbe56329a2b78621a4bbd83effffffff43c95779b5430440285cbd368aef570d873066d2dc66864abd9d1b2a50c8725e010000006b483045022100c17bd21aea963adb1a7e31cb7d314d21d319c31c5ba76d38b9fdba9d33da64fd02203ed8a3a2e5895d4d8b674751057529a5ada438ccaa84c58163513001cada5d59012103add9d401adcde9cd842e66677e0fc7ae925155ca5e5b62e4ae7908bceb189be7ffffffff020000000000000000166a146f6d6e69000000000000001f00000000f46109003e80bf01000000001976a914c8e7d6f91caa886f9c5591b987734e4e9900be7288ac00000000", "vin": [{"sequence": 4294967295, "scriptSig": {"hex": "483045022100f31616966a60a6d8b10b9050451c2d1f6f59bef5e5ee0a255e920c0f0062a85902206408e94e4ede0b4b4dd8ef56835eeaff118b545ad552bd593b82ef8ede73ee060121032ed246d82953c4f3e87945c52ccb8777d9c88052fbe56329a2b78621a4bbd83e", "asm": "3045022100f31616966a60a6d8b10b9050451c2d1f6f59bef5e5ee0a255e920c0f0062a85902206408e94e4ede0b4b4dd8ef56835eeaff118b545ad552bd593b82ef8ede73ee06[ALL] 032ed246d82953c4f3e87945c52ccb8777d9c88052fbe56329a2b78621a4bbd83e"}, "vout": 2, "txid": "c8631b28a27e8179fc28fb1009822e40b7a32024d870b1e7db2de41e9549c1e4"}, {"sequence": 4294967295, "scriptSig": {"hex": "483045022100c17bd21aea963adb1a7e31cb7d314d21d319c31c5ba76d38b9fdba9d33da64fd02203ed8a3a2e5895d4d8b674751057529a5ada438ccaa84c58163513001cada5d59012103add9d401adcde9cd842e66677e0fc7ae925155ca5e5b62e4ae7908bceb189be7", "asm": "3045022100c17bd21aea963adb1a7e31cb7d314d21d319c31c5ba76d38b9fdba9d33da64fd02203ed8a3a2e5895d4d8b674751057529a5ada438ccaa84c58163513001cada5d59[ALL] 03add9d401adcde9cd842e66677e0fc7ae925155ca5e5b62e4ae7908bceb189be7"}, "vout": 1, "txid": "5e72c8502a1b9dbd4a8666dcd26630870d57ef8a36bd5c28400443b57957c943"}], "txid": "8bdc491ac1c1f67c591874d911932a3c7b4d25aca375119c8a7c41a011506ff0", "blocktime": 1537874412, "version": 1, "confirmations": 11467, "time": 1537874412, "locktime": 0, "vsize": 371, "size": 371}