{"hash": "8be2aa94c05c267b744a2c1c9438be59011dc8fc109bcdc2f219786adc10d9f7", "blockhash": "00000000000000000004ffacab907a6b429b9a5745fa0b75af4234bf69dd7176", "vout": [{"scriptPubKey": {"reqSigs": 1, "hex": "a91469f376d2ffc1254504104d4e8318fd6bfe7015f487", "addresses": ["3BMEXsY9FSj9DTaJFCMLJuEnWnfQ9z2kPn"], "asm": "OP_HASH160 69f376d2ffc1254504104d4e8318fd6bfe7015f4 OP_EQUAL", "type": "scripthash"}, "value": 0.00218845, "n": 0}, {"scriptPubKey": {"reqSigs": 1, "hex": "76a914d2f8060014e0ca4cfa4998e05a83d29a3b3af07488ac", "addresses": ["1LEW2FnuhjoJ46va3RLetKeJsdyzQsfBSh"], "asm": "OP_DUP OP_HASH160 d2f8060014e0ca4cfa4998e05a83d29a3b3af074 OP_EQUALVERIFY OP_CHECKSIG", "type": "pubkeyhash"}, "value": 0.01714244, "n": 1}], "hex": "010000000194d651f552148c94bffb71535e01353b1fe04b4e1b2c02a3b7e027b86a916a25010000006b483045022100ca492f7bb7f489d488e43fb0ef1b593896ec3ddd6d2c1b89cb5dfda1784339cc022027f4721c2157eb1cb3bb00a93445df833b72bb77762cf2607317dc6e663082bd01210366dc3752489292bccdcdf9d962d73344998f0b787bc430487354566d9c17eaaaffffffff02dd5603000000000017a91469f376d2ffc1254504104d4e8318fd6bfe7015f48744281a00000000001976a914d2f8060014e0ca4cfa4998e05a83d29a3b3af07488ac00000000", "vin": [{"sequence": 4294967295, "scriptSig": {"hex": "483045022100ca492f7bb7f489d488e43fb0ef1b593896ec3ddd6d2c1b89cb5dfda1784339cc022027f4721c2157eb1cb3bb00a93445df833b72bb77762cf2607317dc6e663082bd01210366dc3752489292bccdcdf9d962d73344998f0b787bc430487354566d9c17eaaa", "asm": "3045022100ca492f7bb7f489d488e43fb0ef1b593896ec3ddd6d2c1b89cb5dfda1784339cc022027f4721c2157eb1cb3bb00a93445df833b72bb77762cf2607317dc6e663082bd[ALL] 0366dc3752489292bccdcdf9d962d73344998f0b787bc430487354566d9c17eaaa"}, "vout": 1, "txid": "256a916ab827e0b7a3022c1b4e4be01f3b35015e5371fbbf948c1452f551d694"}], "txid": "8be2aa94c05c267b744a2c1c9438be59011dc8fc109bcdc2f219786adc10d9f7", "blocktime": 1537875543, "version": 1, "confirmations": 11464, "time": 1537875543, "locktime": 0, "vsize": 224, "size": 224}