{"hash": "8be2e897d107c2be97246536949020c9cf4ff3bd8b51986faf50a379ef7b4540", "blockhash": "0000000000000000001f0ddff1eddb255c1121bcd4da4f1bc9a0da00cae72433", "vout": [{"scriptPubKey": {"reqSigs": 1, "hex": "76a9144133c35e000081bd0990134de4ecb063b3f9ad8488ac", "addresses": ["16wkw35nWb7nSUUtnEm3fgDjELEWE2dFmm"], "asm": "OP_DUP OP_HASH160 4133c35e000081bd0990134de4ecb063b3f9ad84 OP_EQUALVERIFY OP_CHECKSIG", "type": "pubkeyhash"}, "value": 0.05292702, "n": 0}, {"scriptPubKey": {"reqSigs": 1, "hex": "76a9141ff11700da3e9e1a1337e69d9017c6848075547288ac", "addresses": ["13utmAVYs1wpYcU6SeQwCr553t65ozrgBg"], "asm": "OP_DUP OP_HASH160 1ff11700da3e9e1a1337e69d9017c68480755472 OP_EQUALVERIFY OP_CHECKSIG", "type": "pubkeyhash"}, "value": 2.3, "n": 1}], "hex": "0100000005cbad7aa2706a6a2d261c64dd9776126ed01c71fe61910166252dbb1a06dabb030f0000006a473044022058271b4361400b11c191dcf04f70adb15c18f3bb8bc9027124c989df2ceff1310220282e093b25f6f4626fb4a7094b46b107d58e5c062b75baec791d3af43fa4e15f01210309bb16ab89b9974217013998b44ac153c832aab08ebc1806c4799f930a7b0344fdfffffffd953af87599f9cb187eed9dc39991be743dac80babb253b9047d2ac216ee743000000006b483045022100ac27dbf83812b7b3e7d660e6717fbb47637c1a1589001779bee93367ec108f1a02207105e437672507dfbaa671971d3479faa2acfe3afb28fbb88babec58ac29aaf4012102f0b421d74bdfda815c610112f17efba97630d89e8693df4740ddb81146e6c9a6fdffffff4f07988e6a3338f02ee7d2b0085a64297bef79928ecf1f9de2ce1cd7bc50c652010000006b4830450221009fe7d9493d03d0fa06791cfd0c786ac63228b7ed290571e91e7536944892eb3e022025e31e260f1922f5e63114f0fca468a0b7911f4616a64163a5e45d66d0561ab901210309bb16ab89b9974217013998b44ac153c832aab08ebc1806c4799f930a7b0344fdffffff0dfca77176d78b201a2bcc64646833667ae7968a5e1ad566321fae03a203bb81000000006a4730440220502dd2e818c074923bde02247d2586daf06d55088baecb3da27b15aa4a3cbe6a0220495e11c1210427509ccd2cb1b450ee29bc30c4ae8d0a2bac43ce2f1510f2ff190121030301d221ad1be29d342686788dac8b9139c68f8c855db75d8e1def1893253366fdffffff9229c98478c0f94933a6117b647c2765338f9f97e71423050a3024d37286b2a1420000006b483045022100fa0f14e3bb737327065b284205c2e1ed18860b52618ab6370f59dc78c72c4ebf0220292a45c387a71563e4f75857d43b06df26ac13ca244a3e133edb8948ebb3c4d501210309bb16ab89b9974217013998b44ac153c832aab08ebc1806c4799f930a7b0344fdffffff029ec25000000000001976a9144133c35e000081bd0990134de4ecb063b3f9ad8488ac8085b50d000000001976a9141ff11700da3e9e1a1337e69d9017c6848075547288ac10490800", "vin": [{"sequence": 4294967293, "scriptSig": {"hex": "473044022058271b4361400b11c191dcf04f70adb15c18f3bb8bc9027124c989df2ceff1310220282e093b25f6f4626fb4a7094b46b107d58e5c062b75baec791d3af43fa4e15f01210309bb16ab89b9974217013998b44ac153c832aab08ebc1806c4799f930a7b0344", "asm": "3044022058271b4361400b11c191dcf04f70adb15c18f3bb8bc9027124c989df2ceff1310220282e093b25f6f4626fb4a7094b46b107d58e5c062b75baec791d3af43fa4e15f[ALL] 0309bb16ab89b9974217013998b44ac153c832aab08ebc1806c4799f930a7b0344"}, "vout": 15, "txid": "03bbda061abb2d2566019161fe711cd06e127697dd641c262d6a6a70a27aadcb"}, {"sequence": 4294967293, "scriptSig": {"hex": "483045022100ac27dbf83812b7b3e7d660e6717fbb47637c1a1589001779bee93367ec108f1a02207105e437672507dfbaa671971d3479faa2acfe3afb28fbb88babec58ac29aaf4012102f0b421d74bdfda815c610112f17efba97630d89e8693df4740ddb81146e6c9a6", "asm": "3045022100ac27dbf83812b7b3e7d660e6717fbb47637c1a1589001779bee93367ec108f1a02207105e437672507dfbaa671971d3479faa2acfe3afb28fbb88babec58ac29aaf4[ALL] 02f0b421d74bdfda815c610112f17efba97630d89e8693df4740ddb81146e6c9a6"}, "vout": 0, "txid": "43e76e21acd247903b25bbba80ac3d74be9199c39ded7e18cbf99975f83a95fd"}, {"sequence": 4294967293, "scriptSig": {"hex": "4830450221009fe7d9493d03d0fa06791cfd0c786ac63228b7ed290571e91e7536944892eb3e022025e31e260f1922f5e63114f0fca468a0b7911f4616a64163a5e45d66d0561ab901210309bb16ab89b9974217013998b44ac153c832aab08ebc1806c4799f930a7b0344", "asm": "30450221009fe7d9493d03d0fa06791cfd0c786ac63228b7ed290571e91e7536944892eb3e022025e31e260f1922f5e63114f0fca468a0b7911f4616a64163a5e45d66d0561ab9[ALL] 0309bb16ab89b9974217013998b44ac153c832aab08ebc1806c4799f930a7b0344"}, "vout": 1, "txid": "52c650bcd71ccee29d1fcf8e9279ef7b29645a08b0d2e72ef038336a8e98074f"}, {"sequence": 4294967293, "scriptSig": {"hex": "4730440220502dd2e818c074923bde02247d2586daf06d55088baecb3da27b15aa4a3cbe6a0220495e11c1210427509ccd2cb1b450ee29bc30c4ae8d0a2bac43ce2f1510f2ff190121030301d221ad1be29d342686788dac8b9139c68f8c855db75d8e1def1893253366", "asm": "30440220502dd2e818c074923bde02247d2586daf06d55088baecb3da27b15aa4a3cbe6a0220495e11c1210427509ccd2cb1b450ee29bc30c4ae8d0a2bac43ce2f1510f2ff19[ALL] 030301d221ad1be29d342686788dac8b9139c68f8c855db75d8e1def1893253366"}, "vout": 0, "txid": "81bb03a203ae1f3266d51a5e8a96e77a6633686464cc2b1a208bd77671a7fc0d"}, {"sequence": 4294967293, "scriptSig": {"hex": "483045022100fa0f14e3bb737327065b284205c2e1ed18860b52618ab6370f59dc78c72c4ebf0220292a45c387a71563e4f75857d43b06df26ac13ca244a3e133edb8948ebb3c4d501210309bb16ab89b9974217013998b44ac153c832aab08ebc1806c4799f930a7b0344", "asm": "3045022100fa0f14e3bb737327065b284205c2e1ed18860b52618ab6370f59dc78c72c4ebf0220292a45c387a71563e4f75857d43b06df26ac13ca244a3e133edb8948ebb3c4d5[ALL] 0309bb16ab89b9974217013998b44ac153c832aab08ebc1806c4799f930a7b0344"}, "vout": 66, "txid": "a1b28672d324300a052314e7979f8f3365277c647b11a63349f9c07884c92992"}], "txid": "8be2e897d107c2be97246536949020c9cf4ff3bd8b51986faf50a379ef7b4540", "blocktime": 1537872018, "version": 1, "confirmations": 11489, "time": 1537872018, "locktime": 542992, "vsize": 816, "size": 816}