{"hash": "b980fd95bf4de101a54c558a7c9b1c83ecd841c72c5d64defec1c2e1bd33c51c", "blockhash": "0000000000000000001f0ddff1eddb255c1121bcd4da4f1bc9a0da00cae72433", "vout": [{"scriptPubKey": {"reqSigs": 1, "hex": "a91468efa1cf8eb5246474c914c961fb25cac9ba34d587", "addresses": ["3BFsGRTRe1RgRQqpDvaJ9D43PFXxuLcipu"], "asm": "OP_HASH160 68efa1cf8eb5246474c914c961fb25cac9ba34d5 OP_EQUAL", "type": "scripthash"}, "value": 0.00077319, "n": 0}, {"scriptPubKey": {"reqSigs": 1, "hex": "a914d239ef45773492ffb90e384a203647aceae4d65f87", "addresses": ["3LrbECTqtRx7g6xKysGL3EvMuSffEbgDWH"], "asm": "OP_HASH160 d239ef45773492ffb90e384a203647aceae4d65f OP_EQUAL", "type": "scripthash"}, "value": 0.00055, "n": 1}], "hex": "01000000000101e6bc4e864c6a6d5ff2c7a653f0907e196c56a5ccdffd44d351c8c0ff4f774a9f01000000232200203a8348f5ae437ba09d357b2d15e8a875b7fce575ce991deb3cc2352417782404ffffffff02072e01000000000017a91468efa1cf8eb5246474c914c961fb25cac9ba34d587d8d600000000000017a914d239ef45773492ffb90e384a203647aceae4d65f87040048304502210099342e28c07a466227f912a8981724c22d750b1becbc98a33f3cd9620f9550c20220661a4bf77f5743bbe1fe57aa2154bcbc36f4a9828cd61ebb8ac59ecff88f64060147304402200f974580e976143150d077b6855b3ab23940876855f1a43af1ae8a0e5811cbe70220361189b849a8ae272fd0a1a116bfc8ce0f97c79299f2a97174f9dd96b2d12b6f01695221025f75f6f1a4cd8286af026834081fc69aa1117f5da249fa38b0b4f2b29e3d4f2e21029df954f85fc6a48d6176b9d321711a5a5dd3c67be0e199075a6d78a6d680dc3a2102ab68d034a32086bf58ab0c08d4ecfda958c8b2c6f9f46b8a89ff798fa2b63fb853ae12490800", "vin": [{"txinwitness": ["", "304502210099342e28c07a466227f912a8981724c22d750b1becbc98a33f3cd9620f9550c20220661a4bf77f5743bbe1fe57aa2154bcbc36f4a9828cd61ebb8ac59ecff88f640601", "304402200f974580e976143150d077b6855b3ab23940876855f1a43af1ae8a0e5811cbe70220361189b849a8ae272fd0a1a116bfc8ce0f97c79299f2a97174f9dd96b2d12b6f01", "5221025f75f6f1a4cd8286af026834081fc69aa1117f5da249fa38b0b4f2b29e3d4f2e21029df954f85fc6a48d6176b9d321711a5a5dd3c67be0e199075a6d78a6d680dc3a2102ab68d034a32086bf58ab0c08d4ecfda958c8b2c6f9f46b8a89ff798fa2b63fb853ae"], "sequence": 4294967295, "scriptSig": {"hex": "2200203a8348f5ae437ba09d357b2d15e8a875b7fce575ce991deb3cc2352417782404", "asm": "00203a8348f5ae437ba09d357b2d15e8a875b7fce575ce991deb3cc2352417782404"}, "vout": 1, "txid": "9f4a774fffc0c851d344fddfcca5566c197e90f053a6c7f25f6d6a4c864ebce6"}], "txid": "8bf13aa74d2c07e59d3aa39820c54003f575ceb38a0aace875cf7e9f9a0c046d", "blocktime": 1537872018, "version": 1, "confirmations": 11489, "time": 1537872018, "locktime": 542994, "vsize": 214, "size": 405}