{"hash": "8bf71d25a9bb9d048fcc7a13c4dc77accf9513b1c4260a343486044bc173dab8", "blockhash": "00000000000000000018f53835495a110e01622372bf6ae95dc86f2b0ab887b0", "vout": [{"scriptPubKey": {"reqSigs": 1, "hex": "76a914d243e6abb9a60fbff430b421d2df4b7d59ec186088ac", "addresses": ["1LAnF8h3qMGx3TSwNUHVneBZUEpwE4gu3D"], "asm": "OP_DUP OP_HASH160 d243e6abb9a60fbff430b421d2df4b7d59ec1860 OP_EQUALVERIFY OP_CHECKSIG", "type": "pubkeyhash"}, "value": 0.00076972, "n": 0}, {"scriptPubKey": {"reqSigs": 1, "hex": "76a9143851f34d13937b673a7d24a1950bb5b21ce94af388ac", "addresses": ["168o1kqNquEJeR9vosUB5fw4eAwcVAgh8P"], "asm": "OP_DUP OP_HASH160 3851f34d13937b673a7d24a1950bb5b21ce94af3 OP_EQUALVERIFY OP_CHECKSIG", "type": "pubkeyhash"}, "value": 5.46e-06, "n": 1}, {"scriptPubKey": {"type": "nulldata", "hex": "6a146f6d6e69000000000000001f0000001221ba93d8", "asm": "OP_RETURN 6f6d6e69000000000000001f0000001221ba93d8"}, "value": 0.0, "n": 2}], "hex": "0100000002df8c6d8cba6975c9832f26141ceda9098ba7c488318ec3fc3693ffd8fd0f4761010000006a473044022060bbd580521472703f5f0c37cb5b9baa6c3a44a6b8767d6c1465b3edcc1b61f2022033fffd7a8088fe135763cb8572ffeae26b7ecae2472f46b0e5682884e58ac37401210239dee09686f0158c91c819d7d408b1845744f802e098dff669e45844c190a872ffffffff86a67d27342fca1a20a250fbc8ceb3e35c09c0cd1f5a23e2f10c192771d85044000000006a47304402204c53b1d3d8b20a1ca6c9f4d52b04d030ef3a4102341da804d0d4f29ee6810cd0022036f2c551c173878130d1bbb28863c7d3d625f0e52e3093c927f1a7f97fc2632901210271977291b74f1f5f5c42157e8aae804664eaaeccfd097918450d37f28fb94d77ffffffff03ac2c0100000000001976a914d243e6abb9a60fbff430b421d2df4b7d59ec186088ac22020000000000001976a9143851f34d13937b673a7d24a1950bb5b21ce94af388ac0000000000000000166a146f6d6e69000000000000001f0000001221ba93d800000000", "vin": [{"sequence": 4294967295, "scriptSig": {"hex": "473044022060bbd580521472703f5f0c37cb5b9baa6c3a44a6b8767d6c1465b3edcc1b61f2022033fffd7a8088fe135763cb8572ffeae26b7ecae2472f46b0e5682884e58ac37401210239dee09686f0158c91c819d7d408b1845744f802e098dff669e45844c190a872", "asm": "3044022060bbd580521472703f5f0c37cb5b9baa6c3a44a6b8767d6c1465b3edcc1b61f2022033fffd7a8088fe135763cb8572ffeae26b7ecae2472f46b0e5682884e58ac374[ALL] 0239dee09686f0158c91c819d7d408b1845744f802e098dff669e45844c190a872"}, "vout": 1, "txid": "61470ffdd8ff9336fcc38e3188c4a78b09a9ed1c14262f83c97569ba8c6d8cdf"}, {"sequence": 4294967295, "scriptSig": {"hex": "47304402204c53b1d3d8b20a1ca6c9f4d52b04d030ef3a4102341da804d0d4f29ee6810cd0022036f2c551c173878130d1bbb28863c7d3d625f0e52e3093c927f1a7f97fc2632901210271977291b74f1f5f5c42157e8aae804664eaaeccfd097918450d37f28fb94d77", "asm": "304402204c53b1d3d8b20a1ca6c9f4d52b04d030ef3a4102341da804d0d4f29ee6810cd0022036f2c551c173878130d1bbb28863c7d3d625f0e52e3093c927f1a7f97fc26329[ALL] 0271977291b74f1f5f5c42157e8aae804664eaaeccfd097918450d37f28fb94d77"}, "vout": 0, "txid": "4450d87127190cf1e2235a1fcdc0095ce3b3cec8fb50a2201aca2f34277da686"}], "txid": "8bf71d25a9bb9d048fcc7a13c4dc77accf9513b1c4260a343486044bc173dab8", "blocktime": 1537870928, "version": 1, "confirmations": 11512, "time": 1537870928, "locktime": 0, "vsize": 403, "size": 403}