{"hash": "8c00812dedb57f19a3551ac76f670dcee36c5acdd504b13a905d0e928e8b4c4b", "blockhash": "00000000000000000024a2167bbff67b0be802c0b01cdd79e6331c2be6459f87", "vout": [{"scriptPubKey": {"reqSigs": 1, "hex": "76a91444686e9cbf051a0e68cda1327d5e57ab408f0dd588ac", "addresses": ["17Ei47XbSAwXfyQLzRtybGfAqpANEG8cnM"], "asm": "OP_DUP OP_HASH160 44686e9cbf051a0e68cda1327d5e57ab408f0dd5 OP_EQUALVERIFY OP_CHECKSIG", "type": "pubkeyhash"}, "value": 0.000806, "n": 0}, {"scriptPubKey": {"reqSigs": 1, "hex": "76a914e349bc52d6b8100b58d3fce45135a91c5c128a1d88ac", "addresses": ["1MiningDkXkhKaXBTMKXfLemnk1YY5rbkT"], "asm": "OP_DUP OP_HASH160 e349bc52d6b8100b58d3fce45135a91c5c128a1d OP_EQUALVERIFY OP_CHECKSIG", "type": "pubkeyhash"}, "value": 0.50535943, "n": 1}], "hex": "0200000001acb980df2dbafbcba3173a32562548ba4101a65d9e1265ad3caab9a9fabe0645010000008b483045022100dae64c2b5f4680bddf04f3b8d2702f077e88a5ce892494262f5881f9d6ad345102207db492ac1597393653314a393a3295220b3be51e5d4ff287f1ec67a69550e357014104ae414abde7876c34e01694b38b2341d10b9b4c8db18a66262bd8df26bcb57893885c9fe8b79aa25330d5f05bb5aa9ab636a908a72e27956572b44190b22809beffffffff02d83a0100000000001976a91444686e9cbf051a0e68cda1327d5e57ab408f0dd588ac071e0303000000001976a914e349bc52d6b8100b58d3fce45135a91c5c128a1d88ac00000000", "vin": [{"sequence": 4294967295, "scriptSig": {"hex": "483045022100dae64c2b5f4680bddf04f3b8d2702f077e88a5ce892494262f5881f9d6ad345102207db492ac1597393653314a393a3295220b3be51e5d4ff287f1ec67a69550e357014104ae414abde7876c34e01694b38b2341d10b9b4c8db18a66262bd8df26bcb57893885c9fe8b79aa25330d5f05bb5aa9ab636a908a72e27956572b44190b22809be", "asm": "3045022100dae64c2b5f4680bddf04f3b8d2702f077e88a5ce892494262f5881f9d6ad345102207db492ac1597393653314a393a3295220b3be51e5d4ff287f1ec67a69550e357[ALL] 04ae414abde7876c34e01694b38b2341d10b9b4c8db18a66262bd8df26bcb57893885c9fe8b79aa25330d5f05bb5aa9ab636a908a72e27956572b44190b22809be"}, "vout": 1, "txid": "4506befaa9b9aa3cad65129e5da60141ba482556323a17a3cbfbba2ddf80b9ac"}], "txid": "8c00812dedb57f19a3551ac76f670dcee36c5acdd504b13a905d0e928e8b4c4b", "blocktime": 1537870564, "version": 2, "confirmations": 11515, "time": 1537870564, "locktime": 0, "vsize": 258, "size": 258}