{"hash": "31f5af0cc1ae1f2c30deb6bd7802dcaa84a12de66541b26a39405e20785b10ab", "blockhash": "00000000000000000004ffacab907a6b429b9a5745fa0b75af4234bf69dd7176", "vout": [{"scriptPubKey": {"reqSigs": 1, "hex": "a914786db4d61dfbb91263f363ba486fa5b8b146d95b87", "addresses": ["3CfnS6b7X268tpSRL4A64fDTWzFCSoAHAN"], "asm": "OP_HASH160 786db4d61dfbb91263f363ba486fa5b8b146d95b OP_EQUAL", "type": "scripthash"}, "value": 0.010505, "n": 0}, {"scriptPubKey": {"reqSigs": 1, "hex": "a914aab69397d215ca9ebee9d09ce114462174da67bc87", "addresses": ["3HFfWo4coaL61D31gmu68H7YGEwrEEXnFo"], "asm": "OP_HASH160 aab69397d215ca9ebee9d09ce114462174da67bc OP_EQUAL", "type": "scripthash"}, "value": 0.00078303, "n": 1}], "hex": "0200000000010100620ae0927654bb37d9a4d9c2d800a2792a805b019d7eadc78ba8b8fe4736c30100000017160014b1ed21e7bf2c44c36ecc9352961ce8563ec13c72ffffffff02840710000000000017a914786db4d61dfbb91263f363ba486fa5b8b146d95b87df3101000000000017a914aab69397d215ca9ebee9d09ce114462174da67bc870247304402206892e43b64f0f0c5a767cc8628ca1563e06fea381dfe7f3a7c8a213fdf64303e02203097b284aab0254b6d25aca4fdf0c9ed35eed438d301584a5888cc6dd175ebe70121036fc2b96b1f974bd90b71acb79e9060bcb01c6cdd78d348149f2d3efcee36ca8400000000", "vin": [{"txinwitness": ["304402206892e43b64f0f0c5a767cc8628ca1563e06fea381dfe7f3a7c8a213fdf64303e02203097b284aab0254b6d25aca4fdf0c9ed35eed438d301584a5888cc6dd175ebe701", "036fc2b96b1f974bd90b71acb79e9060bcb01c6cdd78d348149f2d3efcee36ca84"], "sequence": 4294967295, "scriptSig": {"hex": "160014b1ed21e7bf2c44c36ecc9352961ce8563ec13c72", "asm": "0014b1ed21e7bf2c44c36ecc9352961ce8563ec13c72"}, "vout": 1, "txid": "c33647feb8a88bc7ad7e9d015b802a79a200d8c2d9a4d937bb547692e00a6200"}], "txid": "8c039da21fc6ad74efa875838a0dd0d292f295aa0c6f34dc6bcba9eea4222e59", "blocktime": 1537875543, "version": 2, "confirmations": 11464, "time": 1537875543, "locktime": 0, "vsize": 166, "size": 247}