{"hash": "8c0445b253cc1d433b97920ac884b6fe3440a6339ff6dde86704486ccaaf057f", "blockhash": "00000000000000000017f5eb5941039fbcee6240d03bc1f2f8e35350df66a1d8", "vout": [{"scriptPubKey": {"reqSigs": 1, "hex": "76a914a1cb423d78041e3ff4b7887dc83989c7863ae67288ac", "addresses": ["1FkVHYv6KRsiUJV6G2uNpuu5GKo7MHhECa"], "asm": "OP_DUP OP_HASH160 a1cb423d78041e3ff4b7887dc83989c7863ae672 OP_EQUALVERIFY OP_CHECKSIG", "type": "pubkeyhash"}, "value": 0.00469075, "n": 0}, {"scriptPubKey": {"reqSigs": 1, "hex": "76a914c4e2f17362d019bb9fd554ea3ace487588d7011588ac", "addresses": ["1Jx3JtQy8mCE6GBpasgR5Cwt4VHQATZ3mK"], "asm": "OP_DUP OP_HASH160 c4e2f17362d019bb9fd554ea3ace487588d70115 OP_EQUALVERIFY OP_CHECKSIG", "type": "pubkeyhash"}, "value": 0.0418086, "n": 1}], "hex": "01000000016c692fea322fb90effddacf6c9b0d76ea429e35bcb5a848c2152264f0e38e197010000006b48304502210087f3c5333cf07ec6d0ad4a1122c8d4a2243a67b8d01636c3bf401232d7f5cf0602207f1f91a4b3134ea86d5d23a01f031c6d506bf40de326bfcee041a5fcc4ab582a012103514a3824d2963ae1978d6908375af6cbb15d779a3065bf7eb6707c5ee0785db3ffffffff0253280700000000001976a914a1cb423d78041e3ff4b7887dc83989c7863ae67288ac7ccb3f00000000001976a914c4e2f17362d019bb9fd554ea3ace487588d7011588ac00000000", "vin": [{"sequence": 4294967295, "scriptSig": {"hex": "48304502210087f3c5333cf07ec6d0ad4a1122c8d4a2243a67b8d01636c3bf401232d7f5cf0602207f1f91a4b3134ea86d5d23a01f031c6d506bf40de326bfcee041a5fcc4ab582a012103514a3824d2963ae1978d6908375af6cbb15d779a3065bf7eb6707c5ee0785db3", "asm": "304502210087f3c5333cf07ec6d0ad4a1122c8d4a2243a67b8d01636c3bf401232d7f5cf0602207f1f91a4b3134ea86d5d23a01f031c6d506bf40de326bfcee041a5fcc4ab582a[ALL] 03514a3824d2963ae1978d6908375af6cbb15d779a3065bf7eb6707c5ee0785db3"}, "vout": 1, "txid": "97e1380e4f2652218c845acb5be329a46ed7b0c9f6acddff0eb92f32ea2f696c"}], "txid": "8c0445b253cc1d433b97920ac884b6fe3440a6339ff6dde86704486ccaaf057f", "blocktime": 1537874412, "version": 1, "confirmations": 11468, "time": 1537874412, "locktime": 0, "vsize": 226, "size": 226}