{"hash": "8c1144030514d88f8e8523a297bedacfd9c559854311f0250ba42d79b9b8477e", "blockhash": "0000000000000000001f0ddff1eddb255c1121bcd4da4f1bc9a0da00cae72433", "vout": [{"scriptPubKey": {"reqSigs": 1, "hex": "76a914753d0f13218a2002a3aa124073b3427c99cb4b0488ac", "addresses": ["1BguCtcfAmUrWNGNTgMH9kTTaydScgYrQP"], "asm": "OP_DUP OP_HASH160 753d0f13218a2002a3aa124073b3427c99cb4b04 OP_EQUALVERIFY OP_CHECKSIG", "type": "pubkeyhash"}, "value": 0.00407356, "n": 0}], "hex": "0100000001067ffcdcd636bde78773c6056b4d925dd2d6daceab6821bcb7ba746954724015000000006b4830450221009cba521891f0a2fab8e977f8c5339ca70d96b93ce732097b559b13d01397d27002205df04c90043a2209f3dcf0617def1aebc215a2417ebe50b00017b1a7d5319db40121026eeb455c0d5beaaa748478c4b3e5330975976b6a789cc55cc0c1b2831e5c3881fdffffff013c370600000000001976a914753d0f13218a2002a3aa124073b3427c99cb4b0488ac10490800", "vin": [{"sequence": 4294967293, "scriptSig": {"hex": "4830450221009cba521891f0a2fab8e977f8c5339ca70d96b93ce732097b559b13d01397d27002205df04c90043a2209f3dcf0617def1aebc215a2417ebe50b00017b1a7d5319db40121026eeb455c0d5beaaa748478c4b3e5330975976b6a789cc55cc0c1b2831e5c3881", "asm": "30450221009cba521891f0a2fab8e977f8c5339ca70d96b93ce732097b559b13d01397d27002205df04c90043a2209f3dcf0617def1aebc215a2417ebe50b00017b1a7d5319db4[ALL] 026eeb455c0d5beaaa748478c4b3e5330975976b6a789cc55cc0c1b2831e5c3881"}, "vout": 0, "txid": "154072546974bab7bc2168abcedad6d25d924d6b05c67387e7bd36d6dcfc7f06"}], "txid": "8c1144030514d88f8e8523a297bedacfd9c559854311f0250ba42d79b9b8477e", "blocktime": 1537872018, "version": 1, "confirmations": 11489, "time": 1537872018, "locktime": 542992, "vsize": 192, "size": 192}