{"hash": "8c124ff9c6b789473fe51ff991dd08fd621dccf74c255256fab1292af7d72dde", "blockhash": "0000000000000000001e0dab787dd257d1dbfcb92a98c2207d5e1078be1f4165", "vout": [{"scriptPubKey": {"reqSigs": 1, "hex": "76a91458febd2d544323fbec476b574f86c268308a46e088ac", "addresses": ["197ZdTQKs7ftFontgB3rpSD5NrbgyTC3ZD"], "asm": "OP_DUP OP_HASH160 58febd2d544323fbec476b574f86c268308a46e0 OP_EQUALVERIFY OP_CHECKSIG", "type": "pubkeyhash"}, "value": 0.02419804, "n": 0}], "hex": "0100000001056909b41184d0ec3db3f740975a5c88c1ce4ac3ca303d2fdd515992f784ac37030000008b483045022100c9bd17e66cb73b6aae59a7d13d7aa96c2b4af91fbfb8796bdc666553f176def902206191ad0a1122392a2b5e4f7ed70a984e3aad8731ffcb5d5f54db83e05163491f014104c8da60b17b08b166816f1fbe89f4a0969f7ac57408e1760206861f0ee05eb713bed7382e842dd73861aaf2c2e4cbe4347cf304825272a3ac76a5689c66e264a1ffffffff015cec2400000000001976a91458febd2d544323fbec476b574f86c268308a46e088ac00000000", "vin": [{"sequence": 4294967295, "scriptSig": {"hex": "483045022100c9bd17e66cb73b6aae59a7d13d7aa96c2b4af91fbfb8796bdc666553f176def902206191ad0a1122392a2b5e4f7ed70a984e3aad8731ffcb5d5f54db83e05163491f014104c8da60b17b08b166816f1fbe89f4a0969f7ac57408e1760206861f0ee05eb713bed7382e842dd73861aaf2c2e4cbe4347cf304825272a3ac76a5689c66e264a1", "asm": "3045022100c9bd17e66cb73b6aae59a7d13d7aa96c2b4af91fbfb8796bdc666553f176def902206191ad0a1122392a2b5e4f7ed70a984e3aad8731ffcb5d5f54db83e05163491f[ALL] 04c8da60b17b08b166816f1fbe89f4a0969f7ac57408e1760206861f0ee05eb713bed7382e842dd73861aaf2c2e4cbe4347cf304825272a3ac76a5689c66e264a1"}, "vout": 3, "txid": "37ac84f7925951dd2f3d30cac34acec1885c5a9740f7b33decd08411b4096905"}], "txid": "8c124ff9c6b789473fe51ff991dd08fd621dccf74c255256fab1292af7d72dde", "blocktime": 1537872475, "version": 1, "confirmations": 11486, "time": 1537872475, "locktime": 0, "vsize": 224, "size": 224}