{"hash": "8c17ecab23a1dc3d99d571d3a22ff941a80ef938c2c5a29b501c5050c796e58e", "blockhash": "0000000000000000000dcc0f55137456b1a82d3642486a52398922ac4d620174", "vout": [{"scriptPubKey": {"reqSigs": 1, "hex": "76a914b3932eea523ef8641327b0360ca333719620acbe88ac", "addresses": ["1HNWGoyy4HTvpAiCRDKx7AYnj7Vc2XtLQG"], "asm": "OP_DUP OP_HASH160 b3932eea523ef8641327b0360ca333719620acbe OP_EQUALVERIFY OP_CHECKSIG", "type": "pubkeyhash"}, "value": 5.46e-06, "n": 0}, {"scriptPubKey": {"reqSigs": 1, "hex": "a9143f4eecba122ad73039d481c8d37f99cb4f887cd887", "addresses": ["37Tm3Qz8Zw2VJrheUUhArDAoq58S6YrS3g"], "asm": "OP_HASH160 3f4eecba122ad73039d481c8d37f99cb4f887cd8 OP_EQUAL", "type": "scripthash"}, "value": 0.99997454, "n": 1}, {"scriptPubKey": {"type": "nulldata", "hex": "6a146f6d6e69000000000000001f00000005c631f800", "asm": "OP_RETURN 6f6d6e69000000000000001f00000005c631f800"}, "value": 0.0, "n": 2}], "hex": "0100000001d73f6f5020889b5bcb2fc097cc2deec8839f91aef20e66072f5440428116f7e300000000fdfd00004730440221009d72c08113a4f73602e26b6dfda251098cd8557804376f3341ef146e80237117021f21d1655220b8bd35fcc8439b3d1d921d7a61f6003b6fe4cab03bbb00a8b2b10148304502210097732a54935057d8e4fb6198b70b16c9de80c4afecb70139280344d3a4d6617902203b49e5e75c2e7f022d35d4e27ae3849bde79f670680bdd18e26d306dffeb6ee9014c6952210246ccf4de0c54cc7f3354cdd993c2c50cf965fd82238b89659fbd73a1b4bf05a121024fc59f72272a897fe43803374969f396058152fe4765a8d15216f94624257b1b21022593bc69ecbf3bbcc3c58082267cb49dadaf4ca8dbf1b2297338a9d628c4297653aeffffffff0322020000000000001976a914b3932eea523ef8641327b0360ca333719620acbe88ac0ed7f5050000000017a9143f4eecba122ad73039d481c8d37f99cb4f887cd8870000000000000000166a146f6d6e69000000000000001f00000005c631f80000000000", "vin": [{"sequence": 4294967295, "scriptSig": {"hex": "004730440221009d72c08113a4f73602e26b6dfda251098cd8557804376f3341ef146e80237117021f21d1655220b8bd35fcc8439b3d1d921d7a61f6003b6fe4cab03bbb00a8b2b10148304502210097732a54935057d8e4fb6198b70b16c9de80c4afecb70139280344d3a4d6617902203b49e5e75c2e7f022d35d4e27ae3849bde79f670680bdd18e26d306dffeb6ee9014c6952210246ccf4de0c54cc7f3354cdd993c2c50cf965fd82238b89659fbd73a1b4bf05a121024fc59f72272a897fe43803374969f396058152fe4765a8d15216f94624257b1b21022593bc69ecbf3bbcc3c58082267cb49dadaf4ca8dbf1b2297338a9d628c4297653ae", "asm": "0 30440221009d72c08113a4f73602e26b6dfda251098cd8557804376f3341ef146e80237117021f21d1655220b8bd35fcc8439b3d1d921d7a61f6003b6fe4cab03bbb00a8b2b1[ALL] 304502210097732a54935057d8e4fb6198b70b16c9de80c4afecb70139280344d3a4d6617902203b49e5e75c2e7f022d35d4e27ae3849bde79f670680bdd18e26d306dffeb6ee9[ALL] 52210246ccf4de0c54cc7f3354cdd993c2c50cf965fd82238b89659fbd73a1b4bf05a121024fc59f72272a897fe43803374969f396058152fe4765a8d15216f94624257b1b21022593bc69ecbf3bbcc3c58082267cb49dadaf4ca8dbf1b2297338a9d628c4297653ae"}, "vout": 0, "txid": "e3f716814240542f07660ef2ae919f83c8ee2dcc97c02fcb5b9b8820506f3fd7"}], "txid": "8c17ecab23a1dc3d99d571d3a22ff941a80ef938c2c5a29b501c5050c796e58e", "blocktime": 1537870268, "version": 1, "confirmations": 11517, "time": 1537870268, "locktime": 0, "vsize": 403, "size": 403}