{"hash": "d8cfd1fd1bb3c8781c92aa86a07aad264fd3e0410330eb62c0e2b428f81566e0", "blockhash": "0000000000000000000dcc0f55137456b1a82d3642486a52398922ac4d620174", "vout": [{"scriptPubKey": {"reqSigs": 1, "hex": "76a914cbb92c5142543b7ea5169287713b66da43e4982e88ac", "addresses": ["1KaBzzihzUEmFu8FncvU9zj4uHP4qLtjV2"], "asm": "OP_DUP OP_HASH160 cbb92c5142543b7ea5169287713b66da43e4982e OP_EQUALVERIFY OP_CHECKSIG", "type": "pubkeyhash"}, "value": 0.0129978, "n": 0}, {"scriptPubKey": {"reqSigs": 1, "hex": "a914884d2b54460a05445706ff852eca7cf40d6ce3ee87", "addresses": ["3E7iGSrHuEd7Vsk1YLqp6r9LWA8b22bXgr"], "asm": "OP_HASH160 884d2b54460a05445706ff852eca7cf40d6ce3ee OP_EQUAL", "type": "scripthash"}, "value": 0.34481984, "n": 1}], "hex": "0100000000010147d66927594b81a5d3644b5129370e22d03a84d8b5e128a25a6fab83467648f80100000023220020efd0a1da1ebf7a6fc9e25e830b688d75bbd4b30f6abb842acd20655bb7f6d145ffffffff0244d51300000000001976a914cbb92c5142543b7ea5169287713b66da43e4982e88ac40270e020000000017a914884d2b54460a05445706ff852eca7cf40d6ce3ee870400483045022100b3cb991e4eebc18cb42ce280f203438d743d7011d510694ed0e206a2f991b10102206bd8d29c86f0a39dbe515b927705b634a16efd20fd9e2e68c593d2e1de64a19801483045022100e9f561edf447f2ff4927d276a34532b7e093d47c27ac6a6241becffa4e7ef1fb02201a2f96188a7dfebf80fa7fe11e6d49024fd03877d023ee19da78fc4b19647da40147522103eae7da39b361d39b27b08b89096fb486539d196254470498e57f293c8e614c7c210378143ae674b77ed33bdc93abdea3b13cf5e13e849f5a8bdf86fffdecb26f230a52ae00000000", "vin": [{"txinwitness": ["", "3045022100b3cb991e4eebc18cb42ce280f203438d743d7011d510694ed0e206a2f991b10102206bd8d29c86f0a39dbe515b927705b634a16efd20fd9e2e68c593d2e1de64a19801", "3045022100e9f561edf447f2ff4927d276a34532b7e093d47c27ac6a6241becffa4e7ef1fb02201a2f96188a7dfebf80fa7fe11e6d49024fd03877d023ee19da78fc4b19647da401", "522103eae7da39b361d39b27b08b89096fb486539d196254470498e57f293c8e614c7c210378143ae674b77ed33bdc93abdea3b13cf5e13e849f5a8bdf86fffdecb26f230a52ae"], "sequence": 4294967295, "scriptSig": {"hex": "220020efd0a1da1ebf7a6fc9e25e830b688d75bbd4b30f6abb842acd20655bb7f6d145", "asm": "0020efd0a1da1ebf7a6fc9e25e830b688d75bbd4b30f6abb842acd20655bb7f6d145"}, "vout": 1, "txid": "f848764683ab6f5aa228e1b5d8843ad0220e3729514b64d3a5814b592769d647"}], "txid": "8c18131eb2ecb7740c4dca6ecfeacc23f52f9946e865a007be57d5b3c20bb7b5", "blocktime": 1537870268, "version": 1, "confirmations": 11518, "time": 1537870268, "locktime": 0, "vsize": 208, "size": 374}