{"hash": "3f68e5ae2b89891a591e7b791b11563878dc8dfa31648801dc5eafbef05b7143", "blockhash": "0000000000000000000e13cef7c366c0283d82e591d1acd082e914b08063cdf1", "vout": [{"scriptPubKey": {"reqSigs": 1, "hex": "76a914a65ec2d8a77e745ae1b3741130ace7e0fcafacf788ac", "addresses": ["1GAggxnSF6sz54cZxWebQjHusPBWkewZLY"], "asm": "OP_DUP OP_HASH160 a65ec2d8a77e745ae1b3741130ace7e0fcafacf7 OP_EQUALVERIFY OP_CHECKSIG", "type": "pubkeyhash"}, "value": 0.09286334, "n": 0}, {"scriptPubKey": {"reqSigs": 1, "hex": "76a914982dfd47d65ac8e519f6206063c1981faad7586788ac", "addresses": ["1EseoZG1JXmq9dPbxc9XoJxfRgfS56psDA"], "asm": "OP_DUP OP_HASH160 982dfd47d65ac8e519f6206063c1981faad75867 OP_EQUALVERIFY OP_CHECKSIG", "type": "pubkeyhash"}, "value": 0.0222, "n": 1}, {"scriptPubKey": {"reqSigs": 1, "hex": "a914658ecc7d56dce1443eef8ff77f7c3f988f8beb8d87", "addresses": ["3Ax1Ekb5HBShPK77Md3QRbhv9aiTtsqSNx"], "asm": "OP_HASH160 658ecc7d56dce1443eef8ff77f7c3f988f8beb8d OP_EQUAL", "type": "scripthash"}, "value": 0.03000035, "n": 2}], "hex": "0100000000010286755098b2ebccebe56517d71eac0701b8279c914dcd0b400d3abaea76159a580000000023220020e25c6a58dac2a921ad1b145d4c81b378b4e988a3049678bd7f0791ee1843addf000000000a32a49c30bdfdd27d704973fbb26d1ceec10458ff52125fff9826b0d1d368b3010000002322002055a60901f1ff0ac564d27047c9add274ff98df739d0282cf143fa530a708d42e0000000003beb28d00000000001976a914a65ec2d8a77e745ae1b3741130ace7e0fcafacf788ace0df2100000000001976a914982dfd47d65ac8e519f6206063c1981faad7586788ace3c62d000000000017a914658ecc7d56dce1443eef8ff77f7c3f988f8beb8d870400483045022100e3c840f58ff9c6dc902d4aff0f076670b7cb2c32bfe02d586782035ed797982e02207948fe39cd4169c88a5d0955f2dea9e8317d1dff0088310352dca75b903b2b0d01473044022072478e2a22c300ae85a283976d0344274970aed2a853b155dbc3d0f52deb84e202207abccfa56c384da0f9d82a767bf34aace41d735b3619153229cb99c2528b863201475221025c2c4f204f7a12eb90bcdc93dc7a0cdf556d3d99ea1d607f5e0282405ccd17de2103f48a081ee8db0cd69c1c35f889845a1c9ee5f89bddd49d17547895f1355fd3e752ae0400483045022100a7c309d1d54c0e30c614b6a7004321b85193c5370000c48f6f7e5776873500a7022045aff8ac6f670965d372d50f945dde846655eabb8a66cb206655bbfdf50bebd301483045022100a1d6a8bf70bbebcae368755cc9706cd23fd06ab86ceeed5fa78d2ccffb574f6c022035d64355da2e9ebd7259b92f73ddc9e9e850ca33d3dc188fa8b43099a119610801475221020ad49689f6312c5126b5c4fc051a05cd0db6084a8024bb08f9e5a8eb2fb8d6452103a4ad7e181e69b569cf3b96444ca5ff1dd94f831ac18eaf2a51e05cf824bcbcb352ae00000000", "vin": [{"txinwitness": ["", "3045022100e3c840f58ff9c6dc902d4aff0f076670b7cb2c32bfe02d586782035ed797982e02207948fe39cd4169c88a5d0955f2dea9e8317d1dff0088310352dca75b903b2b0d01", "3044022072478e2a22c300ae85a283976d0344274970aed2a853b155dbc3d0f52deb84e202207abccfa56c384da0f9d82a767bf34aace41d735b3619153229cb99c2528b863201", "5221025c2c4f204f7a12eb90bcdc93dc7a0cdf556d3d99ea1d607f5e0282405ccd17de2103f48a081ee8db0cd69c1c35f889845a1c9ee5f89bddd49d17547895f1355fd3e752ae"], "sequence": 0, "scriptSig": {"hex": "220020e25c6a58dac2a921ad1b145d4c81b378b4e988a3049678bd7f0791ee1843addf", "asm": "0020e25c6a58dac2a921ad1b145d4c81b378b4e988a3049678bd7f0791ee1843addf"}, "vout": 0, "txid": "589a1576eaba3a0d400bcd4d919c27b80107ac1ed71765e5ebccebb298507586"}, {"txinwitness": ["", "3045022100a7c309d1d54c0e30c614b6a7004321b85193c5370000c48f6f7e5776873500a7022045aff8ac6f670965d372d50f945dde846655eabb8a66cb206655bbfdf50bebd301", "3045022100a1d6a8bf70bbebcae368755cc9706cd23fd06ab86ceeed5fa78d2ccffb574f6c022035d64355da2e9ebd7259b92f73ddc9e9e850ca33d3dc188fa8b43099a119610801", "5221020ad49689f6312c5126b5c4fc051a05cd0db6084a8024bb08f9e5a8eb2fb8d6452103a4ad7e181e69b569cf3b96444ca5ff1dd94f831ac18eaf2a51e05cf824bcbcb352ae"], "sequence": 0, "scriptSig": {"hex": "22002055a60901f1ff0ac564d27047c9add274ff98df739d0282cf143fa530a708d42e", "asm": "002055a60901f1ff0ac564d27047c9add274ff98df739d0282cf143fa530a708d42e"}, "vout": 1, "txid": "b368d3d1b02698ff5f1252ff5804c1ee1c6db2fb7349707dd2fdbd309ca4320a"}], "txid": "8c1a783ede213b874229a6dc0a292ee6a72caf498af62eff3d4e88733ba15b39", "blocktime": 1537871767, "version": 1, "confirmations": 11490, "time": 1537871767, "locktime": 0, "vsize": 373, "size": 703}