{"hash": "8c1bd36f54f937ce8bfdc7bcc2deb00ed9363506309366509de402074c5efb12", "blockhash": "0000000000000000001f76057863aec43deb6fa401d9628bb513d65a8098bfab", "vout": [{"scriptPubKey": {"reqSigs": 1, "hex": "76a914f4b481b09d6ffda04fe0460796f81ea1890e2f9388ac", "addresses": ["1PJt7dFzM97Q6Tx36UTjWULcoZXp9X5s4W"], "asm": "OP_DUP OP_HASH160 f4b481b09d6ffda04fe0460796f81ea1890e2f93 OP_EQUALVERIFY OP_CHECKSIG", "type": "pubkeyhash"}, "value": 0.07488201, "n": 0}, {"scriptPubKey": {"reqSigs": 1, "hex": "a9144128f8455b277e3950e830525effd29b47a901cd87", "addresses": ["37dYveMkUuqrtw1kzo7sfAE6aAXKNjRbpb"], "asm": "OP_HASH160 4128f8455b277e3950e830525effd29b47a901cd OP_EQUAL", "type": "scripthash"}, "value": 0.15, "n": 1}], "hex": "0100000002b4d4ae648dee0fd2190a16742005362db110ad737945faab89867469c1b22a10300000006b48304502210094edbc5e21c3fe32c3aec61584d79a4aec8be6be857765a0298fc35f9917fb57022041ad02fdd1de4f072bd1fdb83c51082c6f66b8f69f08675da52dcc237f6ac199012103b3ad29a43faafcee2c062aa9616a29586aed8d1967ab1d3d1f7e4ce14293fe3bfeffffff1cf0355ff01fa0ac569d2b3fed9bb3f3f923492b3db895e06ccf81e82dddb473010000006b483045022100eff0675e519fabe477593836d696de45f9d0669031a57aad73310300fdce64e202202586e90f9761398808d3a5340d7b9d6daaadcd71ab9730b55f2ebcf34f98da40012103b3ad29a43faafcee2c062aa9616a29586aed8d1967ab1d3d1f7e4ce14293fe3bfeffffff02c9427200000000001976a914f4b481b09d6ffda04fe0460796f81ea1890e2f9388acc0e1e4000000000017a9144128f8455b277e3950e830525effd29b47a901cd8713490800", "vin": [{"sequence": 4294967294, "scriptSig": {"hex": "48304502210094edbc5e21c3fe32c3aec61584d79a4aec8be6be857765a0298fc35f9917fb57022041ad02fdd1de4f072bd1fdb83c51082c6f66b8f69f08675da52dcc237f6ac199012103b3ad29a43faafcee2c062aa9616a29586aed8d1967ab1d3d1f7e4ce14293fe3b", "asm": "304502210094edbc5e21c3fe32c3aec61584d79a4aec8be6be857765a0298fc35f9917fb57022041ad02fdd1de4f072bd1fdb83c51082c6f66b8f69f08675da52dcc237f6ac199[ALL] 03b3ad29a43faafcee2c062aa9616a29586aed8d1967ab1d3d1f7e4ce14293fe3b"}, "vout": 48, "txid": "102ab2c169748689abfa457973ad10b12d36052074160a19d20fee8d64aed4b4"}, {"sequence": 4294967294, "scriptSig": {"hex": "483045022100eff0675e519fabe477593836d696de45f9d0669031a57aad73310300fdce64e202202586e90f9761398808d3a5340d7b9d6daaadcd71ab9730b55f2ebcf34f98da40012103b3ad29a43faafcee2c062aa9616a29586aed8d1967ab1d3d1f7e4ce14293fe3b", "asm": "3045022100eff0675e519fabe477593836d696de45f9d0669031a57aad73310300fdce64e202202586e90f9761398808d3a5340d7b9d6daaadcd71ab9730b55f2ebcf34f98da40[ALL] 03b3ad29a43faafcee2c062aa9616a29586aed8d1967ab1d3d1f7e4ce14293fe3b"}, "vout": 1, "txid": "73b4dd2de881cf6ce095b83d2b4923f9f3b39bed3f2b9d56aca01ff05f35f01c"}], "txid": "8c1bd36f54f937ce8bfdc7bcc2deb00ed9363506309366509de402074c5efb12", "blocktime": 1537873891, "version": 1, "confirmations": 11474, "time": 1537873891, "locktime": 542995, "vsize": 372, "size": 372}