{"hash": "d505da5d80bad3b8f3c4d2652ddf598e7739fd5ef7c8a59ececa3d4ac91a9a1b", "blockhash": "0000000000000000000dcc0f55137456b1a82d3642486a52398922ac4d620174", "vout": [{"scriptPubKey": {"reqSigs": 1, "hex": "a91443ebed644f12db86ba220b101fb132812dc567fb87", "addresses": ["37t9puvvjQMBBtCQhp5G1TrECzYunFqSTD"], "asm": "OP_HASH160 43ebed644f12db86ba220b101fb132812dc567fb OP_EQUAL", "type": "scripthash"}, "value": 0.09059494, "n": 0}, {"scriptPubKey": {"reqSigs": 1, "hex": "a914ec2bb2208d16a7efa2c2a71ce79fc409ba3026d087", "addresses": ["3PDmjrUNXSEUCjHeJvK51NBSu4ehV6cFpk"], "asm": "OP_HASH160 ec2bb2208d16a7efa2c2a71ce79fc409ba3026d0 OP_EQUAL", "type": "scripthash"}, "value": 0.01973964, "n": 1}], "hex": "02000000000102b6dc177922f350ba3c93d3912c7afc2bfa25ea1ef47e270ee496789d35395f030b000000171600143837897354393843b28502bf4b3bd7d32b7bb012ffffffff4b10cc645a1af092f7861d7867189228ba1ca16e0f138508186d9e4d70922c010100000017160014ae84b0bcf0e2bd59373b1547d7d4ba941102f557ffffffff02a63c8a000000000017a91443ebed644f12db86ba220b101fb132812dc567fb87cc1e1e000000000017a914ec2bb2208d16a7efa2c2a71ce79fc409ba3026d0870247304402207e76eb9c09bf8a6b178ca75f42c43078abfa1064196dbe4247c6737805d5e53402201472df1bdadf2c5209b93bf9dec3118bcc72bb85c29d7ad4c760d4acff6ec5eb0121028dfe3a1b850d0219a2ae5bf414cfcf5c285f555bdf4f3747a549fcf6f07fb02f024730440220737327093c466f52aaed046cca79f77a221ca3b8cf670cb6f01b7f40649927440220115e90e50f22ac573b43cc981dddd428a121e83472ea4f2ac240229c81d69e60012102eb7f602362f826d35e971cd58c14a31127799887d7553eecf301b8af90bcaabf00000000", "vin": [{"txinwitness": ["304402207e76eb9c09bf8a6b178ca75f42c43078abfa1064196dbe4247c6737805d5e53402201472df1bdadf2c5209b93bf9dec3118bcc72bb85c29d7ad4c760d4acff6ec5eb01", "028dfe3a1b850d0219a2ae5bf414cfcf5c285f555bdf4f3747a549fcf6f07fb02f"], "sequence": 4294967295, "scriptSig": {"hex": "1600143837897354393843b28502bf4b3bd7d32b7bb012", "asm": "00143837897354393843b28502bf4b3bd7d32b7bb012"}, "vout": 11, "txid": "035f39359d7896e40e277ef41eea25fa2bfc7a2c91d3933cba50f3227917dcb6"}, {"txinwitness": ["30440220737327093c466f52aaed046cca79f77a221ca3b8cf670cb6f01b7f40649927440220115e90e50f22ac573b43cc981dddd428a121e83472ea4f2ac240229c81d69e6001", "02eb7f602362f826d35e971cd58c14a31127799887d7553eecf301b8af90bcaabf"], "sequence": 4294967295, "scriptSig": {"hex": "160014ae84b0bcf0e2bd59373b1547d7d4ba941102f557", "asm": "0014ae84b0bcf0e2bd59373b1547d7d4ba941102f557"}, "vout": 1, "txid": "012c92704d9e6d180885130f6ea11cba28921867781d86f792f01a5a64cc104b"}], "txid": "8c1c5043d1c0f3e5e1a32b1db82da8008999880ce39812f226e83a77ed1be6d9", "blocktime": 1537870268, "version": 2, "confirmations": 11516, "time": 1537870268, "locktime": 0, "vsize": 256, "size": 418}