{"hash": "8c2bf1bcad6a9bb8c2ac1335b0e95d847aecf7e8829e03e1733257abfb30e9c1", "blockhash": "00000000000000000024a2167bbff67b0be802c0b01cdd79e6331c2be6459f87", "vout": [{"scriptPubKey": {"reqSigs": 1, "hex": "a91461fc616ca7e4b8f98befa024787c2b31ad96c34e87", "addresses": ["3Ad7orrPpW1s3YnogaCQUj9nq5qeAAy3Jp"], "asm": "OP_HASH160 61fc616ca7e4b8f98befa024787c2b31ad96c34e OP_EQUAL", "type": "scripthash"}, "value": 0.00055928, "n": 0}, {"scriptPubKey": {"reqSigs": 1, "hex": "a91432adc233ba545365e7223180e8ef7692b6645ddd87", "addresses": ["36Jys6SRcaC3rxh1LwiQLUnpJeCGVRJGhT"], "asm": "OP_HASH160 32adc233ba545365e7223180e8ef7692b6645ddd OP_EQUAL", "type": "scripthash"}, "value": 0.161214, "n": 1}], "hex": "010000000252c168c32fc327899d38dbf00e37de4e0dff56243545091097d778af21cf808300000000fc004730440220787ae0eadd3e1dd26e6a16d5abcbe8144854919401348ed76d90390e7ce138db02206d333b3caa97fb500a5f61c2b9691e40f21af170bd58c1f86bd1c54d08a23ece01473044022035fa56898b9437f9bd72fddb6085d1be0d1d590bad7d05cf71d42d8bd0dc562f02200b05ab07ae5bec53c1c100cf916f038c1932ce0a51493f052ef4541def7a0eea014c69522102912eb766b1714a004b2855703cb430383e50d8b4015de6cdebb4ec714cfc85ef21032acee482b007b404b06e1b1aebe463532bc803121158bbd31bdb12c1438704de2103f24c8b6c57fbc52d9ff017c7f9f59a393be13f9a47a00b5724be8d3ef895f47053aeffffffff51b3a18e069d93f2c154d4415eb0f80830058aa7a098b465a35f4a3ab740d67d00000000fdfd0000483045022100881e01d2543090e96c78e7a175306a8a6c98fac2f7fd069f6aa77c62ab671d6d022056cae38cb0448b5ad8617f3a1e6be19e394d89ac2c31b45c5fb9ffce37feaaa6014730440220636e0780a52860aadf769dd06cd395e88a47ffd5089d9251cd1120b3e078dbab02201062b89ff1886223787a50af2d718ff744832b81c8b3a113bb0d0dbe77363c40014c69522102912eb766b1714a004b2855703cb430383e50d8b4015de6cdebb4ec714cfc85ef21032acee482b007b404b06e1b1aebe463532bc803121158bbd31bdb12c1438704de2103f24c8b6c57fbc52d9ff017c7f9f59a393be13f9a47a00b5724be8d3ef895f47053aeffffffff0278da00000000000017a91461fc616ca7e4b8f98befa024787c2b31ad96c34e8738fef5000000000017a91432adc233ba545365e7223180e8ef7692b6645ddd8700000000", "vin": [{"sequence": 4294967295, "scriptSig": {"hex": "004730440220787ae0eadd3e1dd26e6a16d5abcbe8144854919401348ed76d90390e7ce138db02206d333b3caa97fb500a5f61c2b9691e40f21af170bd58c1f86bd1c54d08a23ece01473044022035fa56898b9437f9bd72fddb6085d1be0d1d590bad7d05cf71d42d8bd0dc562f02200b05ab07ae5bec53c1c100cf916f038c1932ce0a51493f052ef4541def7a0eea014c69522102912eb766b1714a004b2855703cb430383e50d8b4015de6cdebb4ec714cfc85ef21032acee482b007b404b06e1b1aebe463532bc803121158bbd31bdb12c1438704de2103f24c8b6c57fbc52d9ff017c7f9f59a393be13f9a47a00b5724be8d3ef895f47053ae", "asm": "0 30440220787ae0eadd3e1dd26e6a16d5abcbe8144854919401348ed76d90390e7ce138db02206d333b3caa97fb500a5f61c2b9691e40f21af170bd58c1f86bd1c54d08a23ece[ALL] 3044022035fa56898b9437f9bd72fddb6085d1be0d1d590bad7d05cf71d42d8bd0dc562f02200b05ab07ae5bec53c1c100cf916f038c1932ce0a51493f052ef4541def7a0eea[ALL] 522102912eb766b1714a004b2855703cb430383e50d8b4015de6cdebb4ec714cfc85ef21032acee482b007b404b06e1b1aebe463532bc803121158bbd31bdb12c1438704de2103f24c8b6c57fbc52d9ff017c7f9f59a393be13f9a47a00b5724be8d3ef895f47053ae"}, "vout": 0, "txid": "8380cf21af78d797100945352456ff0d4ede370ef0db389d8927c32fc368c152"}, {"sequence": 4294967295, "scriptSig": {"hex": "00483045022100881e01d2543090e96c78e7a175306a8a6c98fac2f7fd069f6aa77c62ab671d6d022056cae38cb0448b5ad8617f3a1e6be19e394d89ac2c31b45c5fb9ffce37feaaa6014730440220636e0780a52860aadf769dd06cd395e88a47ffd5089d9251cd1120b3e078dbab02201062b89ff1886223787a50af2d718ff744832b81c8b3a113bb0d0dbe77363c40014c69522102912eb766b1714a004b2855703cb430383e50d8b4015de6cdebb4ec714cfc85ef21032acee482b007b404b06e1b1aebe463532bc803121158bbd31bdb12c1438704de2103f24c8b6c57fbc52d9ff017c7f9f59a393be13f9a47a00b5724be8d3ef895f47053ae", "asm": "0 3045022100881e01d2543090e96c78e7a175306a8a6c98fac2f7fd069f6aa77c62ab671d6d022056cae38cb0448b5ad8617f3a1e6be19e394d89ac2c31b45c5fb9ffce37feaaa6[ALL] 30440220636e0780a52860aadf769dd06cd395e88a47ffd5089d9251cd1120b3e078dbab02201062b89ff1886223787a50af2d718ff744832b81c8b3a113bb0d0dbe77363c40[ALL] 522102912eb766b1714a004b2855703cb430383e50d8b4015de6cdebb4ec714cfc85ef21032acee482b007b404b06e1b1aebe463532bc803121158bbd31bdb12c1438704de2103f24c8b6c57fbc52d9ff017c7f9f59a393be13f9a47a00b5724be8d3ef895f47053ae"}, "vout": 0, "txid": "7dd640b73a4a5fa365b498a0a78a053008f8b05e41d454c1f2939d068ea1b351"}], "txid": "8c2bf1bcad6a9bb8c2ac1335b0e95d847aecf7e8829e03e1733257abfb30e9c1", "blocktime": 1537870564, "version": 1, "confirmations": 11515, "time": 1537870564, "locktime": 0, "vsize": 663, "size": 663}