{"hash": "8c2d0dff4a48fa70b51edf13ad67e1c87602d790b9cd69186136418094a7b146", "blockhash": "00000000000000000018f53835495a110e01622372bf6ae95dc86f2b0ab887b0", "vout": [{"scriptPubKey": {"reqSigs": 1, "hex": "76a914676ca5d2beaa220ffad3130196ade21e7d4d028e88ac", "addresses": ["1ARrkji2hHbr72Y7w5ZChAexjVK9n7pqnt"], "asm": "OP_DUP OP_HASH160 676ca5d2beaa220ffad3130196ade21e7d4d028e OP_EQUALVERIFY OP_CHECKSIG", "type": "pubkeyhash"}, "value": 0.0008128, "n": 0}, {"scriptPubKey": {"type": "nulldata", "hex": "6a4c500000778600012f061448616686459b63732dbcbefa6b8351586b4e86aeaeacb577c031fc8103ac2eb340c5c4766774c5a44536ff5baa0b59061431619b2703debc9a9526289ac0f6612cd74e33776ee4", "asm": "OP_RETURN 0000778600012f061448616686459b63732dbcbefa6b8351586b4e86aeaeacb577c031fc8103ac2eb340c5c4766774c5a44536ff5baa0b59061431619b2703debc9a9526289ac0f6612cd74e33776ee4"}, "value": 0.0, "n": 1}], "hex": "0100000001e5cff65e2f2bac878a3d1f4fd6f29fe42596635a6f539fbc24be86a71474fbde000000006b4830450221009d75731854e7160558e8a25b1964122158713a8176098b72efd989d720a40cca022004f73f7aef5a852e3f9bbd3db27b657c16db0572aa2f9e87f451a6e188630af00121021a0469232e2d70521ca554eb2389aa74695bb7c5e8aa36ef979aeaafb8951850ffffffff02803d0100000000001976a914676ca5d2beaa220ffad3130196ade21e7d4d028e88ac0000000000000000536a4c500000778600012f061448616686459b63732dbcbefa6b8351586b4e86aeaeacb577c031fc8103ac2eb340c5c4766774c5a44536ff5baa0b59061431619b2703debc9a9526289ac0f6612cd74e33776ee400000000", "vin": [{"sequence": 4294967295, "scriptSig": {"hex": "4830450221009d75731854e7160558e8a25b1964122158713a8176098b72efd989d720a40cca022004f73f7aef5a852e3f9bbd3db27b657c16db0572aa2f9e87f451a6e188630af00121021a0469232e2d70521ca554eb2389aa74695bb7c5e8aa36ef979aeaafb8951850", "asm": "30450221009d75731854e7160558e8a25b1964122158713a8176098b72efd989d720a40cca022004f73f7aef5a852e3f9bbd3db27b657c16db0572aa2f9e87f451a6e188630af0[ALL] 021a0469232e2d70521ca554eb2389aa74695bb7c5e8aa36ef979aeaafb8951850"}, "vout": 0, "txid": "defb7414a786be24bc9f536f5a639625e49ff2d64f1f3d8a87ac2b2f5ef6cfe5"}], "txid": "8c2d0dff4a48fa70b51edf13ad67e1c87602d790b9cd69186136418094a7b146", "blocktime": 1537870928, "version": 1, "confirmations": 11512, "time": 1537870928, "locktime": 0, "vsize": 284, "size": 284}