{"hash": "89f7962171cd620f2469e75713c08d14515456bf54d569bab49b391db6a354d9", "blockhash": "00000000000000000017f5eb5941039fbcee6240d03bc1f2f8e35350df66a1d8", "vout": [{"scriptPubKey": {"reqSigs": 1, "hex": "a914b7cbdc3af64d125433b13bbbc3b7fbd5f9aa0d1f87", "addresses": ["3JSqo7GgP4Q9tRFb3h56Csb8XJ5dXSfuAZ"], "asm": "OP_HASH160 b7cbdc3af64d125433b13bbbc3b7fbd5f9aa0d1f OP_EQUAL", "type": "scripthash"}, "value": 0.04938382, "n": 0}, {"scriptPubKey": {"reqSigs": 1, "hex": "76a9141f4f68c5d994219c7c5b035c5db064e80f6ec80b88ac", "addresses": ["13rZ5QAqn6tx2QSKmmydRYvBbQqVbDBUMN"], "asm": "OP_DUP OP_HASH160 1f4f68c5d994219c7c5b035c5db064e80f6ec80b OP_EQUALVERIFY OP_CHECKSIG", "type": "pubkeyhash"}, "value": 0.00102358, "n": 1}], "hex": "020000000001015549e63af00324934a2ffab5396cd8c9b8d05dc4d54b00691ded0ffa628cdab401000000171600146ae9ac27c7926e31deafe9597c24c8b7ae83151afeffffff028e5a4b000000000017a914b7cbdc3af64d125433b13bbbc3b7fbd5f9aa0d1f87d68f0100000000001976a9141f4f68c5d994219c7c5b035c5db064e80f6ec80b88ac0247304402206573ad6cd8aab2350e73ec0021d5a5eb7a8fb7fee7ed885f28c981f92b3503fb022049e3b8f6b33239f1d70712ba70ebe0a836d8508659b9b11a60f5dbabc3076401012102634ce7e5660baf24ed5b6f7a156aff8608356276ef165563f9d4f5b5fa7a457a15490800", "vin": [{"txinwitness": ["304402206573ad6cd8aab2350e73ec0021d5a5eb7a8fb7fee7ed885f28c981f92b3503fb022049e3b8f6b33239f1d70712ba70ebe0a836d8508659b9b11a60f5dbabc307640101", "02634ce7e5660baf24ed5b6f7a156aff8608356276ef165563f9d4f5b5fa7a457a"], "sequence": 4294967294, "scriptSig": {"hex": "1600146ae9ac27c7926e31deafe9597c24c8b7ae83151a", "asm": "00146ae9ac27c7926e31deafe9597c24c8b7ae83151a"}, "vout": 1, "txid": "b4da8c62fa0fed1d69004bd5c45dd0b8c9d86c39b5fa2f4a932403f03ae64955"}], "txid": "8c2e4ff248e7677b2d91338e9f2b243b13b80777f38e0813e7f37840486c6e61", "blocktime": 1537874412, "version": 2, "confirmations": 11467, "time": 1537874412, "locktime": 542997, "vsize": 168, "size": 249}