{"hash": "7501f7d7db4e2c8976403930a3816f45d7d12b654413f163ec2adbf3c2f0e839", "blockhash": "0000000000000000001f0ddff1eddb255c1121bcd4da4f1bc9a0da00cae72433", "vout": [{"scriptPubKey": {"reqSigs": 1, "hex": "a9147b453933ba30c5779efae724e79c2d7f8e35717987", "addresses": ["3CvoxsJvGoQv7MguC8LqC76V5QjTwiWg3A"], "asm": "OP_HASH160 7b453933ba30c5779efae724e79c2d7f8e357179 OP_EQUAL", "type": "scripthash"}, "value": 0.04843909, "n": 0}, {"scriptPubKey": {"reqSigs": 1, "hex": "a914ebb2f7c6589645a4f943162aa7aaf77ab2bcb51a87", "addresses": ["3PBH7XfaoGD9Sm32htoUvBQwsSB62f9aT2"], "asm": "OP_HASH160 ebb2f7c6589645a4f943162aa7aaf77ab2bcb51a OP_EQUAL", "type": "scripthash"}, "value": 0.0219, "n": 1}], "hex": "0100000000010158cda99ca60c8b00acb33ce9dd7c77f32cbf16f81fe8fb783aac299e0a750bd50000000023220020e897d54b79d8fdfe461cacb3517d57b859837cd314ff0790c01d4733f9e33d43ffffffff0285e949000000000017a9147b453933ba30c5779efae724e79c2d7f8e35717987b06a21000000000017a914ebb2f7c6589645a4f943162aa7aaf77ab2bcb51a870400483045022100b67cf7526d6f631a0e33dc04c453f9ce5178701584eb986fbcf67996004468f1022054a70b5269f813d2612a3b05d230d04fe412038a6efbccec8b173566d56a03f201483045022100f716b20b20ec5828844337784968edefa02d6b6cefd935d8148ccb11c1b42f4902200ac8117f78decae633c876efd17284928e6c6da391d1161f9f7d5b8885fea52c0169522102efdaa407872c16a4ef8a1a149b0bec46840e54fa82e31b3ef77af7a292a645002102799b9a2a4fc7e63b9876806ec8fe2bcd385d8eb5b7da6fb4d23e1852bd6794fd21034e1046278c9149015591c758fb775e4e437b046c9e1ce07ff417eb80e0ec487053ae00000000", "vin": [{"txinwitness": ["", "3045022100b67cf7526d6f631a0e33dc04c453f9ce5178701584eb986fbcf67996004468f1022054a70b5269f813d2612a3b05d230d04fe412038a6efbccec8b173566d56a03f201", "3045022100f716b20b20ec5828844337784968edefa02d6b6cefd935d8148ccb11c1b42f4902200ac8117f78decae633c876efd17284928e6c6da391d1161f9f7d5b8885fea52c01", "522102efdaa407872c16a4ef8a1a149b0bec46840e54fa82e31b3ef77af7a292a645002102799b9a2a4fc7e63b9876806ec8fe2bcd385d8eb5b7da6fb4d23e1852bd6794fd21034e1046278c9149015591c758fb775e4e437b046c9e1ce07ff417eb80e0ec487053ae"], "sequence": 4294967295, "scriptSig": {"hex": "220020e897d54b79d8fdfe461cacb3517d57b859837cd314ff0790c01d4733f9e33d43", "asm": "0020e897d54b79d8fdfe461cacb3517d57b859837cd314ff0790c01d4733f9e33d43"}, "vout": 0, "txid": "d50b750a9e29ac3a78fbe81ff816bf2cf3777cdde93cb3ac008b0ca69ca9cd58"}], "txid": "8c2f57b34266ec704b2cac3116325be442d4e48b6bbf080127b65710ceae1e8d", "blocktime": 1537872018, "version": 1, "confirmations": 11489, "time": 1537872018, "locktime": 0, "vsize": 214, "size": 406}