{"hash": "8c335689b481eadb31c4ac7b2aa71090c980e1569c7a7c2c8b49657e345f5477", "blockhash": "0000000000000000000baef3f32e3676a92c3b2e5da21b426e4f302fc371ce76", "vout": [{"scriptPubKey": {"reqSigs": 1, "hex": "76a914b83abaac267b2bff16efb161f96dfc76b1ffdb9788ac", "addresses": ["1Ho7gsbnANmYJGNFvXjNbfp4Sh9q3nTf1T"], "asm": "OP_DUP OP_HASH160 b83abaac267b2bff16efb161f96dfc76b1ffdb97 OP_EQUALVERIFY OP_CHECKSIG", "type": "pubkeyhash"}, "value": 0.00255572, "n": 0}, {"scriptPubKey": {"reqSigs": 1, "hex": "a91459f38a1efe44c59c231d022d126f6b0a0588de3987", "addresses": ["39tdp3HbuShDsa4TWMwxSym7k7swCr7X6G"], "asm": "OP_HASH160 59f38a1efe44c59c231d022d126f6b0a0588de39 OP_EQUAL", "type": "scripthash"}, "value": 0.00642339, "n": 1}], "hex": "010000000171c17bd7cf467716f0ed92105e2c4b106c0236f11cfc6f5a4ce8cb54a51f9a79010000006a4730440220690fc53f9a1fb30775e0e8b08b13eb111dbeaf4686f7ca75cd0fad4c0d5dba46022047b92e507268f109455140302827176c5bd47625a01cc46e5160b6dacaea8ead0121027e906c4054d46b7ec8edebd43d71816735033eeac34c093fd8bb3b22f96e5a34ffffffff0254e60300000000001976a914b83abaac267b2bff16efb161f96dfc76b1ffdb9788ac23cd09000000000017a91459f38a1efe44c59c231d022d126f6b0a0588de398700000000", "vin": [{"sequence": 4294967295, "scriptSig": {"hex": "4730440220690fc53f9a1fb30775e0e8b08b13eb111dbeaf4686f7ca75cd0fad4c0d5dba46022047b92e507268f109455140302827176c5bd47625a01cc46e5160b6dacaea8ead0121027e906c4054d46b7ec8edebd43d71816735033eeac34c093fd8bb3b22f96e5a34", "asm": "30440220690fc53f9a1fb30775e0e8b08b13eb111dbeaf4686f7ca75cd0fad4c0d5dba46022047b92e507268f109455140302827176c5bd47625a01cc46e5160b6dacaea8ead[ALL] 027e906c4054d46b7ec8edebd43d71816735033eeac34c093fd8bb3b22f96e5a34"}, "vout": 1, "txid": "799a1fa554cbe84c5a6ffc1cf136026c104b2c5e1092edf0167746cfd77bc171"}], "txid": "8c335689b481eadb31c4ac7b2aa71090c980e1569c7a7c2c8b49657e345f5477", "blocktime": 1537876114, "version": 1, "confirmations": 11460, "time": 1537876114, "locktime": 0, "vsize": 223, "size": 223}