{"hash": "8c359e472214b1455012915326e724d524f625b5e989c35668a8a8af026bdbf7", "blockhash": "0000000000000000001cda96e906b7601b7a6fb1a3b62bca570a9e5d8f4b3de1", "vout": [{"scriptPubKey": {"reqSigs": 1, "hex": "a9144924628a8d683072bed6b81251c32ab41522dee987", "addresses": ["38MkqchpD6vrqE3MTDfvDZeZidR94RungR"], "asm": "OP_HASH160 4924628a8d683072bed6b81251c32ab41522dee9 OP_EQUAL", "type": "scripthash"}, "value": 0.0702374, "n": 0}], "hex": "0100000013860ee6a7a680afa8c45c9ae6ebf5406c538a52ee71ef259a29574b2f8b75f5080f0000006b483045022100a66d1365989d2133178296561410dc8587271346ea02b082c03a209f4e063ce4022023945af9f36380ca2722f162c004fb491c22de553f8e63e6966c98a84a09412e012103a4a49b7d7921ba6dc1023d05a284ccff414e306200b110b6a388e4a52626b05bffffffffca05a99d4d6c2e54b41d3738b71a44ffa5348bd2fddf7b62895fd3dfdb25e20c000000006b483045022100980e59e03d9549953b589a677d90bdda195a59cf5671a1476066c2a3aede27690220059eafdd229edbb25a107905f703fc6fbd663d7a556ca0c89cb0bf54ea8fbd150121020d9628a291f6c56b1a6ef54504a739238a9288fc1d7208eebb6f0253d960e7d3fffffffff815d111e499bf9021a14dfa539d395ac70e568e96f53bc0ffb817515f05091a050000006b483045022100bb4ac093e27c924ec6398514d9223077ff4edf4d832a2f456c226ef7a0c1defc022038b7ebf1f4e078049f364e5dae1131f8c36d02d8c37338e8dc043ee4ebf4b4db012102348826bf5158e7b801034982c2f4be0e62936d43a43e1621e9bf45418f28af28ffffffffe8f690932300f9378dcd73b6be53d2eaaef583ddeb055540568beb3aca2f461e0c0000006a47304402203512a52ba95168eae030595cbd39641861d128295e5c9a6b48dfd11e4aff37e2022052cb5bdc120ebfd9cd537b1f7f0a5531abf299808b86d39c6cece216f359e15601210281b464d42308a7d336eb01c64448067ac0699e26e380801f6bdc08bdf1fe041cffffffffd3a13172855d279d2b2680f5f8af4852a24acf28226224364072811789c2fa35000000006a47304402204d48d0072532cc55ea70913e0637eeb90af5452fca30a7bf4cab2c07f8e599f60220118b5f71b47a8f31f4318e0de9e5c8c7c4bd14cd0df31bd9c14069c1adb4b4e4012102348826bf5158e7b801034982c2f4be0e62936d43a43e1621e9bf45418f28af28ffffffff0cffafffddf67f523397701ac924b34ace17b669d322e66bf77d7cf45f13a03a000000006a473044022044e367212d388a1db08a839683d974b032b3cd7d8eccc51ab171c95997042d7f022025d46e11a7fde7b53e60a13265d467261f7a94c1fb73439704e024e23e4366f30121020d9628a291f6c56b1a6ef54504a739238a9288fc1d7208eebb6f0253d960e7d3ffffffff6bcac2d5d3d5f84ee0635c82c110dbb394ea6142ce7dc854afdfc1731ba13046000000006a473044022036c593787710d3cd4981648b62554ac8661a7a9787a5df676ec7ff5b4f0aaab7022023e9a7299e4b5b499e71903e88fbed6506317220a29eb8806562eb7aceab393d0121020d9628a291f6c56b1a6ef54504a739238a9288fc1d7208eebb6f0253d960e7d3ffffffff34a982688740c34bc80f28939c5d35940c169329b4a101cba3e73a675c2699460e0000006b483045022100c9282113cef632490aae2cb65d8627a8046d925e2064c9d69ef775500648a21402201e2461b4fc3f96d47838614f9a7c0ec13a9bb3f3b3f7acef6dde016b1405eb2701210234a180d7a14004b4f3b73ec37a04fffc198e81280543effe09f21315e5026a72ffffffff008d2d2160a80157fc0421143a4b8d15ced2e34bf8d93739f2706256e16f725c100000006b483045022100924b4f7b2cf2d9f686615d6f6f10626187c0d5898724ad023a1422b45130a5300220522056d47a2972cca2133fe2970898e6a4b7bba377fc7e16b40133bd51b94e57012103602d7af30222162f81e3f9c97bb1157a168606de0065cb42e7cd4fc254f77020ffffffff30d7abf43dfff111e63c05bc18d0fb73106682ad45475213907b98f81aada567050000006b483045022100c97639ea4c948079c36e4809fc824552a1e74123bf7b0dc8e5e93511821c0285022069e3e9971a886b21cc39d0c645441f9f971d23e444d34c33c78832a5800baceb0121034e7bc79f9b7de983475516226c8ed5bef561fccc9e9097c02f99141e775db2e5ffffffffda2db05d211a3ca4c28e096a8bb13ff9793b357394d68149a170e1c773c0986a030000006b483045022100d50979be5f3797b5675859369df35b1aa9d805447f44429f514893ea8ca01ed9022006420625931b653f03dcc1ef5763edd67dec2afdcf14a30c5cb0894fb2addc190121037c3a7cdc4dd4fa71a03c84f6276264fde6e35bd60ee663943f1004d0c97eb385ffffffff870b3857bbe96cef99265a0840256db6933f8bdcabacf3ec52e404ef8606eb6c080000006b48304502210097e86220c24c050d952b12cf569b92521a356c99e6f2805a1ef83cd0271c829002204adee0403a2e700b8694a3eda0baac8b28f5676d17f2dd3fce0d06efc2691c660121025d8bd7c635e50e6890feb535f659cfac3f5015c55d7bac424bf32d0445aed9daffffffffcff567083db55760b71450c207459714a3ee1ea3738d01e411520051235bb9ab090000006b483045022100eb8c983f1dcd30bf050bfee4e6634b06a69f4e716366f9c07304162990a8c372022045a3bfbff3eb35dbae9e61bb9099b28feb1b53281f1c8e54f55c3ac7f289df9e0121037c3a7cdc4dd4fa71a03c84f6276264fde6e35bd60ee663943f1004d0c97eb385ffffffffb84e3695ded55bec9de6e407a95d0047e73122f46542280fd10d052ca8f08bb8030000006b483045022100cc97a7fd1a0f8a34e177d06111f177d28a8d043299eac3382215d1b05a44e8bc022034818ef65f1916a4ca41939ac6b7cb7349ab1796e190159ec607d3be563b65560121037c3a7cdc4dd4fa71a03c84f6276264fde6e35bd60ee663943f1004d0c97eb385fffffffff8286986d23a11e1b31c89f7ba53ed1b513bd9a55935bfccb5467ca2fb16eccb0d0000006b483045022100e7152bf16ed78cdb8c38ce313686269dc2606e6d53b4fe5da608bf423e6bd91402202a7d747d1272b432f8283d64e607de6392483d80cd32e4a5b95a555b320bdfe50121020d9628a291f6c56b1a6ef54504a739238a9288fc1d7208eebb6f0253d960e7d3ffffffffd37e1816c41697f7bfea8fcb1bde1594c10597ca10189c68bf3dc6e6ef8976cd140000006a47304402205ee2450015cf080fa35e6528ced0cb0d1f9ca600a5d0518d3c1a5b5c53c007c8022034b241503e0467347f4a54e07dbc3676ef55a19371236bbcf7cf24b6cc0bbc3c0121025d8bd7c635e50e6890feb535f659cfac3f5015c55d7bac424bf32d0445aed9daffffffff957b158a9859443a815af7260fd8f870c9709ce59d8a577f001430cb2d9a2bd10b0000006a47304402206f0e708c7e451334c31845e2f8af200d4a9caf5b0a10cfcede2b0744c1d59636022000bf2ea1e56bb58d508fbabe5719268ee58a7c349a4734da78e0573f3da3ba7d012103602d7af30222162f81e3f9c97bb1157a168606de0065cb42e7cd4fc254f77020fffffffff64040ab6c80cc709b803a995d9a7b52aa789695e1b8d11b2ff2906e25819fda010000006b4830450221008bdfe6de6b5bce2715a440d1af49883adf9580454e30d3aa3391b054db0ead2702207c669a21879c2b45c200ce3ef234e548008b682dc97c05f699100bc1bbe04558012103a4a49b7d7921ba6dc1023d05a284ccff414e306200b110b6a388e4a52626b05bffffffff14bfb0897a22d2164d1b88876520ac7f7d8081618e4b801d3b16b908bfafcdef030000006a47304402206b3c207e13f2b9758806d16196eaec32db72318a256020a1e101e480501a898c022019964346460175b518a68c11022044d896a760c8e6538cc7a1a090ff3d85b9f60121037c3a7cdc4dd4fa71a03c84f6276264fde6e35bd60ee663943f1004d0c97eb385ffffffff017c2c6b000000000017a9144924628a8d683072bed6b81251c32ab41522dee98700000000", "vin": [{"sequence": 4294967295, "scriptSig": {"hex": "483045022100a66d1365989d2133178296561410dc8587271346ea02b082c03a209f4e063ce4022023945af9f36380ca2722f162c004fb491c22de553f8e63e6966c98a84a09412e012103a4a49b7d7921ba6dc1023d05a284ccff414e306200b110b6a388e4a52626b05b", "asm": "3045022100a66d1365989d2133178296561410dc8587271346ea02b082c03a209f4e063ce4022023945af9f36380ca2722f162c004fb491c22de553f8e63e6966c98a84a09412e[ALL] 03a4a49b7d7921ba6dc1023d05a284ccff414e306200b110b6a388e4a52626b05b"}, "vout": 15, "txid": "08f5758b2f4b57299a25ef71ee528a536c40f5ebe69a5cc4a8af80a6a7e60e86"}, {"sequence": 4294967295, "scriptSig": {"hex": "483045022100980e59e03d9549953b589a677d90bdda195a59cf5671a1476066c2a3aede27690220059eafdd229edbb25a107905f703fc6fbd663d7a556ca0c89cb0bf54ea8fbd150121020d9628a291f6c56b1a6ef54504a739238a9288fc1d7208eebb6f0253d960e7d3", "asm": "3045022100980e59e03d9549953b589a677d90bdda195a59cf5671a1476066c2a3aede27690220059eafdd229edbb25a107905f703fc6fbd663d7a556ca0c89cb0bf54ea8fbd15[ALL] 020d9628a291f6c56b1a6ef54504a739238a9288fc1d7208eebb6f0253d960e7d3"}, "vout": 0, "txid": "0ce225dbdfd35f89627bdffdd28b34a5ff441ab738371db4542e6c4d9da905ca"}, {"sequence": 4294967295, "scriptSig": {"hex": "483045022100bb4ac093e27c924ec6398514d9223077ff4edf4d832a2f456c226ef7a0c1defc022038b7ebf1f4e078049f364e5dae1131f8c36d02d8c37338e8dc043ee4ebf4b4db012102348826bf5158e7b801034982c2f4be0e62936d43a43e1621e9bf45418f28af28", "asm": "3045022100bb4ac093e27c924ec6398514d9223077ff4edf4d832a2f456c226ef7a0c1defc022038b7ebf1f4e078049f364e5dae1131f8c36d02d8c37338e8dc043ee4ebf4b4db[ALL] 02348826bf5158e7b801034982c2f4be0e62936d43a43e1621e9bf45418f28af28"}, "vout": 5, "txid": "1a09055f5117b8ffc03bf5968e560ec75a399d53fa4da12190bf99e411d115f8"}, {"sequence": 4294967295, "scriptSig": {"hex": "47304402203512a52ba95168eae030595cbd39641861d128295e5c9a6b48dfd11e4aff37e2022052cb5bdc120ebfd9cd537b1f7f0a5531abf299808b86d39c6cece216f359e15601210281b464d42308a7d336eb01c64448067ac0699e26e380801f6bdc08bdf1fe041c", "asm": "304402203512a52ba95168eae030595cbd39641861d128295e5c9a6b48dfd11e4aff37e2022052cb5bdc120ebfd9cd537b1f7f0a5531abf299808b86d39c6cece216f359e156[ALL] 0281b464d42308a7d336eb01c64448067ac0699e26e380801f6bdc08bdf1fe041c"}, "vout": 12, "txid": "1e462fca3aeb8b56405505ebdd83f5aeead253beb673cd8d37f900239390f6e8"}, {"sequence": 4294967295, "scriptSig": {"hex": "47304402204d48d0072532cc55ea70913e0637eeb90af5452fca30a7bf4cab2c07f8e599f60220118b5f71b47a8f31f4318e0de9e5c8c7c4bd14cd0df31bd9c14069c1adb4b4e4012102348826bf5158e7b801034982c2f4be0e62936d43a43e1621e9bf45418f28af28", "asm": "304402204d48d0072532cc55ea70913e0637eeb90af5452fca30a7bf4cab2c07f8e599f60220118b5f71b47a8f31f4318e0de9e5c8c7c4bd14cd0df31bd9c14069c1adb4b4e4[ALL] 02348826bf5158e7b801034982c2f4be0e62936d43a43e1621e9bf45418f28af28"}, "vout": 0, "txid": "35fac289178172403624622228cf4aa25248aff8f580262b9d275d857231a1d3"}, {"sequence": 4294967295, "scriptSig": {"hex": "473044022044e367212d388a1db08a839683d974b032b3cd7d8eccc51ab171c95997042d7f022025d46e11a7fde7b53e60a13265d467261f7a94c1fb73439704e024e23e4366f30121020d9628a291f6c56b1a6ef54504a739238a9288fc1d7208eebb6f0253d960e7d3", "asm": "3044022044e367212d388a1db08a839683d974b032b3cd7d8eccc51ab171c95997042d7f022025d46e11a7fde7b53e60a13265d467261f7a94c1fb73439704e024e23e4366f3[ALL] 020d9628a291f6c56b1a6ef54504a739238a9288fc1d7208eebb6f0253d960e7d3"}, "vout": 0, "txid": "3aa0135ff47c7df76be622d369b617ce4ab324c91a709733527ff6ddffafff0c"}, {"sequence": 4294967295, "scriptSig": {"hex": "473044022036c593787710d3cd4981648b62554ac8661a7a9787a5df676ec7ff5b4f0aaab7022023e9a7299e4b5b499e71903e88fbed6506317220a29eb8806562eb7aceab393d0121020d9628a291f6c56b1a6ef54504a739238a9288fc1d7208eebb6f0253d960e7d3", "asm": "3044022036c593787710d3cd4981648b62554ac8661a7a9787a5df676ec7ff5b4f0aaab7022023e9a7299e4b5b499e71903e88fbed6506317220a29eb8806562eb7aceab393d[ALL] 020d9628a291f6c56b1a6ef54504a739238a9288fc1d7208eebb6f0253d960e7d3"}, "vout": 0, "txid": "4630a11b73c1dfaf54c87dce4261ea94b3db10c1825c63e04ef8d5d3d5c2ca6b"}, {"sequence": 4294967295, "scriptSig": {"hex": "483045022100c9282113cef632490aae2cb65d8627a8046d925e2064c9d69ef775500648a21402201e2461b4fc3f96d47838614f9a7c0ec13a9bb3f3b3f7acef6dde016b1405eb2701210234a180d7a14004b4f3b73ec37a04fffc198e81280543effe09f21315e5026a72", "asm": "3045022100c9282113cef632490aae2cb65d8627a8046d925e2064c9d69ef775500648a21402201e2461b4fc3f96d47838614f9a7c0ec13a9bb3f3b3f7acef6dde016b1405eb27[ALL] 0234a180d7a14004b4f3b73ec37a04fffc198e81280543effe09f21315e5026a72"}, "vout": 14, "txid": "4699265c673ae7a3cb01a1b42993160c94355d9c93280fc84bc340876882a934"}, {"sequence": 4294967295, "scriptSig": {"hex": "483045022100924b4f7b2cf2d9f686615d6f6f10626187c0d5898724ad023a1422b45130a5300220522056d47a2972cca2133fe2970898e6a4b7bba377fc7e16b40133bd51b94e57012103602d7af30222162f81e3f9c97bb1157a168606de0065cb42e7cd4fc254f77020", "asm": "3045022100924b4f7b2cf2d9f686615d6f6f10626187c0d5898724ad023a1422b45130a5300220522056d47a2972cca2133fe2970898e6a4b7bba377fc7e16b40133bd51b94e57[ALL] 03602d7af30222162f81e3f9c97bb1157a168606de0065cb42e7cd4fc254f77020"}, "vout": 16, "txid": "5c726fe1566270f23937d9f84be3d2ce158d4b3a142104fc5701a860212d8d00"}, {"sequence": 4294967295, "scriptSig": {"hex": "483045022100c97639ea4c948079c36e4809fc824552a1e74123bf7b0dc8e5e93511821c0285022069e3e9971a886b21cc39d0c645441f9f971d23e444d34c33c78832a5800baceb0121034e7bc79f9b7de983475516226c8ed5bef561fccc9e9097c02f99141e775db2e5", "asm": "3045022100c97639ea4c948079c36e4809fc824552a1e74123bf7b0dc8e5e93511821c0285022069e3e9971a886b21cc39d0c645441f9f971d23e444d34c33c78832a5800baceb[ALL] 034e7bc79f9b7de983475516226c8ed5bef561fccc9e9097c02f99141e775db2e5"}, "vout": 5, "txid": "67a5ad1af8987b9013524745ad82661073fbd018bc053ce611f1ff3df4abd730"}, {"sequence": 4294967295, "scriptSig": {"hex": "483045022100d50979be5f3797b5675859369df35b1aa9d805447f44429f514893ea8ca01ed9022006420625931b653f03dcc1ef5763edd67dec2afdcf14a30c5cb0894fb2addc190121037c3a7cdc4dd4fa71a03c84f6276264fde6e35bd60ee663943f1004d0c97eb385", "asm": "3045022100d50979be5f3797b5675859369df35b1aa9d805447f44429f514893ea8ca01ed9022006420625931b653f03dcc1ef5763edd67dec2afdcf14a30c5cb0894fb2addc19[ALL] 037c3a7cdc4dd4fa71a03c84f6276264fde6e35bd60ee663943f1004d0c97eb385"}, "vout": 3, "txid": "6a98c073c7e170a14981d69473353b79f93fb18b6a098ec2a43c1a215db02dda"}, {"sequence": 4294967295, "scriptSig": {"hex": "48304502210097e86220c24c050d952b12cf569b92521a356c99e6f2805a1ef83cd0271c829002204adee0403a2e700b8694a3eda0baac8b28f5676d17f2dd3fce0d06efc2691c660121025d8bd7c635e50e6890feb535f659cfac3f5015c55d7bac424bf32d0445aed9da", "asm": "304502210097e86220c24c050d952b12cf569b92521a356c99e6f2805a1ef83cd0271c829002204adee0403a2e700b8694a3eda0baac8b28f5676d17f2dd3fce0d06efc2691c66[ALL] 025d8bd7c635e50e6890feb535f659cfac3f5015c55d7bac424bf32d0445aed9da"}, "vout": 8, "txid": "6ceb0686ef04e452ecf3acabdc8b3f93b66d2540085a2699ef6ce9bb57380b87"}, {"sequence": 4294967295, "scriptSig": {"hex": "483045022100eb8c983f1dcd30bf050bfee4e6634b06a69f4e716366f9c07304162990a8c372022045a3bfbff3eb35dbae9e61bb9099b28feb1b53281f1c8e54f55c3ac7f289df9e0121037c3a7cdc4dd4fa71a03c84f6276264fde6e35bd60ee663943f1004d0c97eb385", "asm": "3045022100eb8c983f1dcd30bf050bfee4e6634b06a69f4e716366f9c07304162990a8c372022045a3bfbff3eb35dbae9e61bb9099b28feb1b53281f1c8e54f55c3ac7f289df9e[ALL] 037c3a7cdc4dd4fa71a03c84f6276264fde6e35bd60ee663943f1004d0c97eb385"}, "vout": 9, "txid": "abb95b2351005211e4018d73a31eeea314974507c25014b76057b53d0867f5cf"}, {"sequence": 4294967295, "scriptSig": {"hex": "483045022100cc97a7fd1a0f8a34e177d06111f177d28a8d043299eac3382215d1b05a44e8bc022034818ef65f1916a4ca41939ac6b7cb7349ab1796e190159ec607d3be563b65560121037c3a7cdc4dd4fa71a03c84f6276264fde6e35bd60ee663943f1004d0c97eb385", "asm": "3045022100cc97a7fd1a0f8a34e177d06111f177d28a8d043299eac3382215d1b05a44e8bc022034818ef65f1916a4ca41939ac6b7cb7349ab1796e190159ec607d3be563b6556[ALL] 037c3a7cdc4dd4fa71a03c84f6276264fde6e35bd60ee663943f1004d0c97eb385"}, "vout": 3, "txid": "b88bf0a82c050dd10f284265f42231e747005da907e4e69dec5bd5de95364eb8"}, {"sequence": 4294967295, "scriptSig": {"hex": "483045022100e7152bf16ed78cdb8c38ce313686269dc2606e6d53b4fe5da608bf423e6bd91402202a7d747d1272b432f8283d64e607de6392483d80cd32e4a5b95a555b320bdfe50121020d9628a291f6c56b1a6ef54504a739238a9288fc1d7208eebb6f0253d960e7d3", "asm": "3045022100e7152bf16ed78cdb8c38ce313686269dc2606e6d53b4fe5da608bf423e6bd91402202a7d747d1272b432f8283d64e607de6392483d80cd32e4a5b95a555b320bdfe5[ALL] 020d9628a291f6c56b1a6ef54504a739238a9288fc1d7208eebb6f0253d960e7d3"}, "vout": 13, "txid": "cbec16fba27c46b5ccbf3559a5d93b511bed53baf7891cb3e1113ad2866928f8"}, {"sequence": 4294967295, "scriptSig": {"hex": "47304402205ee2450015cf080fa35e6528ced0cb0d1f9ca600a5d0518d3c1a5b5c53c007c8022034b241503e0467347f4a54e07dbc3676ef55a19371236bbcf7cf24b6cc0bbc3c0121025d8bd7c635e50e6890feb535f659cfac3f5015c55d7bac424bf32d0445aed9da", "asm": "304402205ee2450015cf080fa35e6528ced0cb0d1f9ca600a5d0518d3c1a5b5c53c007c8022034b241503e0467347f4a54e07dbc3676ef55a19371236bbcf7cf24b6cc0bbc3c[ALL] 025d8bd7c635e50e6890feb535f659cfac3f5015c55d7bac424bf32d0445aed9da"}, "vout": 20, "txid": "cd7689efe6c63dbf689c1810ca9705c19415de1bcb8feabff79716c416187ed3"}, {"sequence": 4294967295, "scriptSig": {"hex": "47304402206f0e708c7e451334c31845e2f8af200d4a9caf5b0a10cfcede2b0744c1d59636022000bf2ea1e56bb58d508fbabe5719268ee58a7c349a4734da78e0573f3da3ba7d012103602d7af30222162f81e3f9c97bb1157a168606de0065cb42e7cd4fc254f77020", "asm": "304402206f0e708c7e451334c31845e2f8af200d4a9caf5b0a10cfcede2b0744c1d59636022000bf2ea1e56bb58d508fbabe5719268ee58a7c349a4734da78e0573f3da3ba7d[ALL] 03602d7af30222162f81e3f9c97bb1157a168606de0065cb42e7cd4fc254f77020"}, "vout": 11, "txid": "d12b9a2dcb3014007f578a9de59c70c970f8d80f26f75a813a4459988a157b95"}, {"sequence": 4294967295, "scriptSig": {"hex": "4830450221008bdfe6de6b5bce2715a440d1af49883adf9580454e30d3aa3391b054db0ead2702207c669a21879c2b45c200ce3ef234e548008b682dc97c05f699100bc1bbe04558012103a4a49b7d7921ba6dc1023d05a284ccff414e306200b110b6a388e4a52626b05b", "asm": "30450221008bdfe6de6b5bce2715a440d1af49883adf9580454e30d3aa3391b054db0ead2702207c669a21879c2b45c200ce3ef234e548008b682dc97c05f699100bc1bbe04558[ALL] 03a4a49b7d7921ba6dc1023d05a284ccff414e306200b110b6a388e4a52626b05b"}, "vout": 1, "txid": "da9f81256e90f22f1bd1b8e1959678aa527b9a5d993a809b70cc806cab4040f6"}, {"sequence": 4294967295, "scriptSig": {"hex": "47304402206b3c207e13f2b9758806d16196eaec32db72318a256020a1e101e480501a898c022019964346460175b518a68c11022044d896a760c8e6538cc7a1a090ff3d85b9f60121037c3a7cdc4dd4fa71a03c84f6276264fde6e35bd60ee663943f1004d0c97eb385", "asm": "304402206b3c207e13f2b9758806d16196eaec32db72318a256020a1e101e480501a898c022019964346460175b518a68c11022044d896a760c8e6538cc7a1a090ff3d85b9f6[ALL] 037c3a7cdc4dd4fa71a03c84f6276264fde6e35bd60ee663943f1004d0c97eb385"}, "vout": 3, "txid": "efcdafbf08b9163b1d804b8e6181807d7fac206587881b4d16d2227a89b0bf14"}], "txid": "8c359e472214b1455012915326e724d524f625b5e989c35668a8a8af026bdbf7", "blocktime": 1537873282, "version": 1, "confirmations": 11484, "time": 1537873282, "locktime": 0, "vsize": 2847, "size": 2847}