{"hash": "8c36d06aed5c626116b50d18bf85f00eeced9d10cfb9a8ab926a968c4fea0f77", "blockhash": "00000000000000000024a2167bbff67b0be802c0b01cdd79e6331c2be6459f87", "vout": [{"scriptPubKey": {"reqSigs": 1, "hex": "76a914e6e4c626972bc13df6b529141fb437858462389388ac", "addresses": ["1N3rUcuN1PtktLRHT8Df274evR6VZaBnmn"], "asm": "OP_DUP OP_HASH160 e6e4c626972bc13df6b529141fb4378584623893 OP_EQUALVERIFY OP_CHECKSIG", "type": "pubkeyhash"}, "value": 9.2e-06, "n": 0}, {"scriptPubKey": {"reqSigs": 1, "hex": "a914e54b5e883ab7f51e0e277f0682e3b789011abf8587", "addresses": ["3NbQxDnr3UabDQH5hZsmMM4HouK8SPck2D"], "asm": "OP_HASH160 e54b5e883ab7f51e0e277f0682e3b789011abf85 OP_EQUAL", "type": "scripthash"}, "value": 0.007678, "n": 1}], "hex": "01000000018947924c77a1b8d6328adab158b028022fc47a2a6a1273f1f6fa2ce811d36ca1010000008a4730440220143836fe3ca3208ab244a997edd3ed67a21a139926710463b4c04054af6062ce02200baff37b6cd64b2301ea04920af307fa364dce3ff1e570d7624d809c62d010c60141046f3ebd99ab80702bf588848c8577ee5f09d0497eb9c893610515b61e6bf8e700a8ec90a99adcddac6a6dbda882cbfbe3ec9a4770513700b85f15f140c331073bfdffffff0298030000000000001976a914e6e4c626972bc13df6b529141fb437858462389388ac38b70b000000000017a914e54b5e883ab7f51e0e277f0682e3b789011abf85870d490800", "vin": [{"sequence": 4294967293, "scriptSig": {"hex": "4730440220143836fe3ca3208ab244a997edd3ed67a21a139926710463b4c04054af6062ce02200baff37b6cd64b2301ea04920af307fa364dce3ff1e570d7624d809c62d010c60141046f3ebd99ab80702bf588848c8577ee5f09d0497eb9c893610515b61e6bf8e700a8ec90a99adcddac6a6dbda882cbfbe3ec9a4770513700b85f15f140c331073b", "asm": "30440220143836fe3ca3208ab244a997edd3ed67a21a139926710463b4c04054af6062ce02200baff37b6cd64b2301ea04920af307fa364dce3ff1e570d7624d809c62d010c6[ALL] 046f3ebd99ab80702bf588848c8577ee5f09d0497eb9c893610515b61e6bf8e700a8ec90a99adcddac6a6dbda882cbfbe3ec9a4770513700b85f15f140c331073b"}, "vout": 1, "txid": "a16cd311e82cfaf6f173126a2a7ac42f0228b058b1da8a32d6b8a1774c924789"}], "txid": "8c36d06aed5c626116b50d18bf85f00eeced9d10cfb9a8ab926a968c4fea0f77", "blocktime": 1537870564, "version": 1, "confirmations": 11515, "time": 1537870564, "locktime": 542989, "vsize": 255, "size": 255}