{"hash": "8c3a744ca96afb9c8b9141642f91747510ab9e1d36c192988741d606d842a649", "blockhash": "00000000000000000004ffacab907a6b429b9a5745fa0b75af4234bf69dd7176", "vout": [{"scriptPubKey": {"reqSigs": 1, "hex": "a9142de9da83fb8ce31589ac3765c5e55d768c6856ae87", "addresses": ["35snUcBmKVw3TaG69yq58nwJnLVc4gudXF"], "asm": "OP_HASH160 2de9da83fb8ce31589ac3765c5e55d768c6856ae OP_EQUAL", "type": "scripthash"}, "value": 0.00957034, "n": 0}, {"scriptPubKey": {"reqSigs": 1, "hex": "76a9140c09b88bd4599d1f596610c09f22a584347ccd9e88ac", "addresses": ["126ekiompNyUwSswswNtUk5RAq52REVtkx"], "asm": "OP_DUP OP_HASH160 0c09b88bd4599d1f596610c09f22a584347ccd9e OP_EQUALVERIFY OP_CHECKSIG", "type": "pubkeyhash"}, "value": 0.01774508, "n": 1}, {"scriptPubKey": {"reqSigs": 1, "hex": "a914e204b2b4be235998a37c6b25d71f6353552c150387", "addresses": ["3NJ6GKoqQ5WwrhWctpic9jQctmRC5xGUJH"], "asm": "OP_HASH160 e204b2b4be235998a37c6b25d71f6353552c1503 OP_EQUAL", "type": "scripthash"}, "value": 0.00343103, "n": 2}], "hex": "02000000035f19478bd57a07d388717e69b4fc0a6242e2f6465bbd300cf97f7f6886f0c79e000000006b483045022100ed3f0abdc55f40d209868067889d0d39d980775891f8a9299c7412da2390132f0220128947f6ecb6ca9b87346ebe5b6bd876c406b83b0fd4f6a92ac7aa72b76efe1e012103716126552a82d5b7ac72db68f4adb0768dc0fa8b27224b52a221899797f85111feffffff7967012deb17b9c9b6fa1e9ad3267b51c4925d2bba1f572b19894b613b616d2e000000006b483045022100f89142e8213b48d6337e759cfae82b63ceb49b6096a7fd151bbb1926c0bf720502204412aed935d59620c2eece1a55884b21adc331f8283a7d2a32734134a49203200121030f9a4340035c3d8e560a8a5fd08daaf81a653b2d3dd8a17b7d9d010a3d738371feffffffc05ef08da7b24aaece211f838fe2c23a6f9670ea3b1d790d6990e1b8b491d700010000006a4730440220440e2477b97e38e51b2159ba06c30ce2652122cdb7c3c953513d551c66341f520220288990dab51d604ac0e606241176f748de22b4eea28dfee413443a25989c2623012102eca907ebbb47ea3ac52889b7bb91da6973f27bed5394c96ca64c28ac206e1515feffffff036a9a0e000000000017a9142de9da83fb8ce31589ac3765c5e55d768c6856ae87ac131b00000000001976a9140c09b88bd4599d1f596610c09f22a584347ccd9e88ac3f3c05000000000017a914e204b2b4be235998a37c6b25d71f6353552c15038716490800", "vin": [{"sequence": 4294967294, "scriptSig": {"hex": "483045022100ed3f0abdc55f40d209868067889d0d39d980775891f8a9299c7412da2390132f0220128947f6ecb6ca9b87346ebe5b6bd876c406b83b0fd4f6a92ac7aa72b76efe1e012103716126552a82d5b7ac72db68f4adb0768dc0fa8b27224b52a221899797f85111", "asm": "3045022100ed3f0abdc55f40d209868067889d0d39d980775891f8a9299c7412da2390132f0220128947f6ecb6ca9b87346ebe5b6bd876c406b83b0fd4f6a92ac7aa72b76efe1e[ALL] 03716126552a82d5b7ac72db68f4adb0768dc0fa8b27224b52a221899797f85111"}, "vout": 0, "txid": "9ec7f086687f7ff90c30bd5b46f6e242620afcb4697e7188d3077ad58b47195f"}, {"sequence": 4294967294, "scriptSig": {"hex": "483045022100f89142e8213b48d6337e759cfae82b63ceb49b6096a7fd151bbb1926c0bf720502204412aed935d59620c2eece1a55884b21adc331f8283a7d2a32734134a49203200121030f9a4340035c3d8e560a8a5fd08daaf81a653b2d3dd8a17b7d9d010a3d738371", "asm": "3045022100f89142e8213b48d6337e759cfae82b63ceb49b6096a7fd151bbb1926c0bf720502204412aed935d59620c2eece1a55884b21adc331f8283a7d2a32734134a4920320[ALL] 030f9a4340035c3d8e560a8a5fd08daaf81a653b2d3dd8a17b7d9d010a3d738371"}, "vout": 0, "txid": "2e6d613b614b89192b571fba2b5d92c4517b26d39a1efab6c9b917eb2d016779"}, {"sequence": 4294967294, "scriptSig": {"hex": "4730440220440e2477b97e38e51b2159ba06c30ce2652122cdb7c3c953513d551c66341f520220288990dab51d604ac0e606241176f748de22b4eea28dfee413443a25989c2623012102eca907ebbb47ea3ac52889b7bb91da6973f27bed5394c96ca64c28ac206e1515", "asm": "30440220440e2477b97e38e51b2159ba06c30ce2652122cdb7c3c953513d551c66341f520220288990dab51d604ac0e606241176f748de22b4eea28dfee413443a25989c2623[ALL] 02eca907ebbb47ea3ac52889b7bb91da6973f27bed5394c96ca64c28ac206e1515"}, "vout": 1, "txid": "00d791b4b8e190690d791d3bea70966f3ac2e28f831f21ceae4ab2a78df05ec0"}], "txid": "8c3a744ca96afb9c8b9141642f91747510ab9e1d36c192988741d606d842a649", "blocktime": 1537875543, "version": 2, "confirmations": 11464, "time": 1537875543, "locktime": 542998, "vsize": 551, "size": 551}