{"hash": "8c3ca7408d686c9ef63403da7654c26cf749b2a55ffdb8ea771ef37a0b1b6c1b", "blockhash": "0000000000000000001e0dab787dd257d1dbfcb92a98c2207d5e1078be1f4165", "vout": [{"scriptPubKey": {"reqSigs": 1, "hex": "a914e9c23663e613e8d878e9c3adccf27575294bb2ba87", "addresses": ["3P122Mkn4DyDg49d9KxYp8cprtXH2WtahH"], "asm": "OP_HASH160 e9c23663e613e8d878e9c3adccf27575294bb2ba OP_EQUAL", "type": "scripthash"}, "value": 0.01578428, "n": 0}, {"scriptPubKey": {"reqSigs": 1, "hex": "76a9148ab4f3f66a7d614ff6574723b820f825dae9d26988ac", "addresses": ["1DeR2JkK7bcjRGhCqhhXyNZrE8xAvH5Tfv"], "asm": "OP_DUP OP_HASH160 8ab4f3f66a7d614ff6574723b820f825dae9d269 OP_EQUALVERIFY OP_CHECKSIG", "type": "pubkeyhash"}, "value": 0.00547527, "n": 1}], "hex": "01000000011559a0527c140f2d789da102ff14ca2d3af9d8bc4f61b6e150aa974d57d75edd00000000fdfd00004730440220230d328fca9036d5c418aa96fc91821d07072914b61053e1b484cf66e007aa3802206e4e24712573baf9a58360004a534a84ca66befa14db2c6302e0585fa0b1465801483045022100f68f2f1e155d5c7fdbf24b33898c8b35c66f2477ed549cd074eb00c772622bed0220597a505c5add8ec8b6e2b8bf9435d62a73cf2fc1b5fe07f64e49239830546191014c695221021c07e34830db983185bd2a0ee7f38d9d3248792f50bdeedc4822da67354574112102c869105c5c8c630f3ea3a03d2701ef997bab4dc1f5c20cc8656496df03081a2c2102f91e3f0f78e9c12589c6edadf142a022fdf10d80769cc52d0d1598bc5680570353aeffffffff02bc1518000000000017a914e9c23663e613e8d878e9c3adccf27575294bb2ba87c75a0800000000001976a9148ab4f3f66a7d614ff6574723b820f825dae9d26988ac00000000", "vin": [{"sequence": 4294967295, "scriptSig": {"hex": "004730440220230d328fca9036d5c418aa96fc91821d07072914b61053e1b484cf66e007aa3802206e4e24712573baf9a58360004a534a84ca66befa14db2c6302e0585fa0b1465801483045022100f68f2f1e155d5c7fdbf24b33898c8b35c66f2477ed549cd074eb00c772622bed0220597a505c5add8ec8b6e2b8bf9435d62a73cf2fc1b5fe07f64e49239830546191014c695221021c07e34830db983185bd2a0ee7f38d9d3248792f50bdeedc4822da67354574112102c869105c5c8c630f3ea3a03d2701ef997bab4dc1f5c20cc8656496df03081a2c2102f91e3f0f78e9c12589c6edadf142a022fdf10d80769cc52d0d1598bc5680570353ae", "asm": "0 30440220230d328fca9036d5c418aa96fc91821d07072914b61053e1b484cf66e007aa3802206e4e24712573baf9a58360004a534a84ca66befa14db2c6302e0585fa0b14658[ALL] 3045022100f68f2f1e155d5c7fdbf24b33898c8b35c66f2477ed549cd074eb00c772622bed0220597a505c5add8ec8b6e2b8bf9435d62a73cf2fc1b5fe07f64e49239830546191[ALL] 5221021c07e34830db983185bd2a0ee7f38d9d3248792f50bdeedc4822da67354574112102c869105c5c8c630f3ea3a03d2701ef997bab4dc1f5c20cc8656496df03081a2c2102f91e3f0f78e9c12589c6edadf142a022fdf10d80769cc52d0d1598bc5680570353ae"}, "vout": 0, "txid": "dd5ed7574d97aa50e1b6614fbcd8f93a2dca14ff02a19d782d0f147c52a05915"}], "txid": "8c3ca7408d686c9ef63403da7654c26cf749b2a55ffdb8ea771ef37a0b1b6c1b", "blocktime": 1537872475, "version": 1, "confirmations": 11486, "time": 1537872475, "locktime": 0, "vsize": 372, "size": 372}