{"hash": "8c3dc8c601cd47d288a32ca141e4b7cc6682d666125d5966db4508d902abda50", "blockhash": "00000000000000000004ffacab907a6b429b9a5745fa0b75af4234bf69dd7176", "vout": [{"scriptPubKey": {"reqSigs": 1, "hex": "a914d5ccaef70965c5d4228b1ad98244c02e6c3079d787", "addresses": ["3MBV44QZv55D5NCxYti4ij6nuDgExt8JqF"], "asm": "OP_HASH160 d5ccaef70965c5d4228b1ad98244c02e6c3079d7 OP_EQUAL", "type": "scripthash"}, "value": 1.399, "n": 0}, {"scriptPubKey": {"reqSigs": 1, "hex": "76a914aa6f9cd7dd009968cbc7812aaee3e05370afabbc88ac", "addresses": ["1GYBabXmo2S2WBNp1VJbM8XUkmLnzY7FEb"], "asm": "OP_DUP OP_HASH160 aa6f9cd7dd009968cbc7812aaee3e05370afabbc OP_EQUALVERIFY OP_CHECKSIG", "type": "pubkeyhash"}, "value": 1.380552, "n": 1}], "hex": "0200000001661655f87371dce2c19e1cc7613596f8c3032afb4200980e1c942af80c01ba1c000000006b48304502210093602dc5f380d58fbd82f64584b98264cadb833eeb157074aa0f733a284ce1ba02200f0284748634b6a6cf493f3e52357bbf6ef3c00b2690ea88e694cd5b975d1216012103e3ada7c3fd4f3a59060a21c474b6d8ab4e80ecc4ea4fa882c00bc0e1cfa91fe3feffffff0260b456080000000017a914d5ccaef70965c5d4228b1ad98244c02e6c3079d787208e3a08000000001976a914aa6f9cd7dd009968cbc7812aaee3e05370afabbc88acef480800", "vin": [{"sequence": 4294967294, "scriptSig": {"hex": "48304502210093602dc5f380d58fbd82f64584b98264cadb833eeb157074aa0f733a284ce1ba02200f0284748634b6a6cf493f3e52357bbf6ef3c00b2690ea88e694cd5b975d1216012103e3ada7c3fd4f3a59060a21c474b6d8ab4e80ecc4ea4fa882c00bc0e1cfa91fe3", "asm": "304502210093602dc5f380d58fbd82f64584b98264cadb833eeb157074aa0f733a284ce1ba02200f0284748634b6a6cf493f3e52357bbf6ef3c00b2690ea88e694cd5b975d1216[ALL] 03e3ada7c3fd4f3a59060a21c474b6d8ab4e80ecc4ea4fa882c00bc0e1cfa91fe3"}, "vout": 0, "txid": "1cba010cf82a941c0e980042fb2a03c3f8963561c71c9ec1e2dc7173f8551666"}], "txid": "8c3dc8c601cd47d288a32ca141e4b7cc6682d666125d5966db4508d902abda50", "blocktime": 1537875543, "version": 2, "confirmations": 11464, "time": 1537875543, "locktime": 542959, "vsize": 224, "size": 224}