{"hash": "1a54cd99f14d41cb0b8d94cdceed3357d3055ea7731cc7158abd14d6d609f00e", "blockhash": "0000000000000000001f76057863aec43deb6fa401d9628bb513d65a8098bfab", "vout": [{"scriptPubKey": {"reqSigs": 1, "hex": "76a9144928b86efe7c454d132c51a2934f4b523bb5da3188ac", "addresses": ["17fq7JxeYrLNrD1rWTm6pbwhZyTGxGL5LY"], "asm": "OP_DUP OP_HASH160 4928b86efe7c454d132c51a2934f4b523bb5da31 OP_EQUALVERIFY OP_CHECKSIG", "type": "pubkeyhash"}, "value": 0.00703, "n": 0}, {"scriptPubKey": {"reqSigs": 1, "hex": "a914660d3dc21dbaf27899ba0b611886ad2d5f55bc0b87", "addresses": ["3Azci8PQC7ojczkkwkJfzVuCJaLkuoPrjK"], "asm": "OP_HASH160 660d3dc21dbaf27899ba0b611886ad2d5f55bc0b OP_EQUAL", "type": "scripthash"}, "value": 0.00999484, "n": 1}], "hex": "0200000000010233c5c75bd2c46174a8775b689724a4a7958a12f458666ecfe600f8353e2ab71e0e0000001716001430d28893b56eec692a5ba6feeebb6e6d6f3b158bfeffffffc497185d6f49fe3fc3bbc204ad3dcc02faef5212ef5800a57b4e644bd2d8983501000000171600148b823da3613ae0f779523daa512870995c913aa9feffffff0218ba0a00000000001976a9144928b86efe7c454d132c51a2934f4b523bb5da3188ac3c400f000000000017a914660d3dc21dbaf27899ba0b611886ad2d5f55bc0b8702483045022100fe1821b6368ad6baa961d1665696d815dab71217e6d55f09163ddc410ef3c8d0022034ed8921038c8eca2939f4f817319a0582a864b14229c00ef5bf1a1af7b6977c012103bfc4e68aa9bd62417e27d8a15d33a8c5de9efb895d9ee3eb307ae146f1cc40a40247304402205bad95ea1973d36b248ed5c31e003f2de22539f950000e00000ad5d70c32e56202202ae0d463db8854a07833421c7d9c5e2a3dec4284d5e3cfbabcd982e48e3e6b1f012102be0a3db3d91f73f33278f53754b18bcc0a708658c72706d844aecfb31544961b14490800", "vin": [{"txinwitness": ["3045022100fe1821b6368ad6baa961d1665696d815dab71217e6d55f09163ddc410ef3c8d0022034ed8921038c8eca2939f4f817319a0582a864b14229c00ef5bf1a1af7b6977c01", "03bfc4e68aa9bd62417e27d8a15d33a8c5de9efb895d9ee3eb307ae146f1cc40a4"], "sequence": 4294967294, "scriptSig": {"hex": "16001430d28893b56eec692a5ba6feeebb6e6d6f3b158b", "asm": "001430d28893b56eec692a5ba6feeebb6e6d6f3b158b"}, "vout": 14, "txid": "1eb72a3e35f800e6cf6e6658f4128a95a7a42497685b77a87461c4d25bc7c533"}, {"txinwitness": ["304402205bad95ea1973d36b248ed5c31e003f2de22539f950000e00000ad5d70c32e56202202ae0d463db8854a07833421c7d9c5e2a3dec4284d5e3cfbabcd982e48e3e6b1f01", "02be0a3db3d91f73f33278f53754b18bcc0a708658c72706d844aecfb31544961b"], "sequence": 4294967294, "scriptSig": {"hex": "1600148b823da3613ae0f779523daa512870995c913aa9", "asm": "00148b823da3613ae0f779523daa512870995c913aa9"}, "vout": 1, "txid": "3598d8d24b644e7ba50058ef1252effa02cc3dad04c2bbc33ffe496f5d1897c4"}], "txid": "8c3f6295c6bd4593a7b1815825cae9671a14a8385cd4f3f8198ea4ab0f4d155e", "blocktime": 1537873891, "version": 2, "confirmations": 11478, "time": 1537873891, "locktime": 542996, "vsize": 259, "size": 421}