{"hash": "1d2f592c33babe8f5a944327a1d1e2024f9e77cd4b05ae40eca388dd167928fe", "blockhash": "0000000000000000001cda96e906b7601b7a6fb1a3b62bca570a9e5d8f4b3de1", "vout": [{"scriptPubKey": {"reqSigs": 1, "hex": "a914156b84f0c70718c5d7219175f2a8aee995b24db187", "addresses": ["33eGv9Jr9uoW7RWtvVDFi5yHXiKvoSaBaM"], "asm": "OP_HASH160 156b84f0c70718c5d7219175f2a8aee995b24db1 OP_EQUAL", "type": "scripthash"}, "value": 5.58452268, "n": 0}, {"scriptPubKey": {"reqSigs": 1, "hex": "a91472223261ea8fa5569b7b118bba1e603a6cde433487", "addresses": ["3C6VvSwzRPukv6yTu74CFpruatuvfdsRk5"], "asm": "OP_HASH160 72223261ea8fa5569b7b118bba1e603a6cde4334 OP_EQUAL", "type": "scripthash"}, "value": 0.00811211, "n": 1}], "hex": "02000000000101866693d48abfb0a7633d086ffa516ce3848ca71f8a3f1a80a9bd95a1733bf1ff0100000017160014cfbb916352dad492f24621927102bb7b2240780cfeffffff022c4e49210000000017a914156b84f0c70718c5d7219175f2a8aee995b24db187cb600c000000000017a91472223261ea8fa5569b7b118bba1e603a6cde4334870247304402207b7fc5c0e433103abff29bb573ab2c46c890aaa2246c67ae9b2a204fe3ce0d14022050ee1f2ceba76f8629aa36ca7fb6a2912c587556f2fddbf1edb4d952e6c2e706012102685050536d31a956fb2470db4b60c8f8b49eeb87bb20860afd4589ecad1a2b5313490800", "vin": [{"txinwitness": ["304402207b7fc5c0e433103abff29bb573ab2c46c890aaa2246c67ae9b2a204fe3ce0d14022050ee1f2ceba76f8629aa36ca7fb6a2912c587556f2fddbf1edb4d952e6c2e70601", "02685050536d31a956fb2470db4b60c8f8b49eeb87bb20860afd4589ecad1a2b53"], "sequence": 4294967294, "scriptSig": {"hex": "160014cfbb916352dad492f24621927102bb7b2240780c", "asm": "0014cfbb916352dad492f24621927102bb7b2240780c"}, "vout": 1, "txid": "fff13b73a195bda9801a3f8a1fa78c84e36c51fa6f083d63a7b0bf8ad4936686"}], "txid": "8c44c59a9660842435108bc377136ed70d8644cbfcec57c1917d09d778a09db1", "blocktime": 1537873282, "version": 2, "confirmations": 11485, "time": 1537873282, "locktime": 542995, "vsize": 166, "size": 247}