{"hash": "8c47c881c0041ef679f33be925699b673e4f729f61d03931b431a7f93a4817a1", "blockhash": "0000000000000000000dcc0f55137456b1a82d3642486a52398922ac4d620174", "vout": [{"scriptPubKey": {"reqSigs": 1, "hex": "76a914618dd5f82e4702b7ddc8e59ff5acfb0fc38b2a7a88ac", "addresses": ["19tpTXuuEJxaJJuND1xztAq5vnUw9xp97J"], "asm": "OP_DUP OP_HASH160 618dd5f82e4702b7ddc8e59ff5acfb0fc38b2a7a OP_EQUALVERIFY OP_CHECKSIG", "type": "pubkeyhash"}, "value": 2.73e-05, "n": 0}, {"scriptPubKey": {"reqSigs": 1, "hex": "76a914ab2a9d50d30937548f24999a134f7b21dbb99a2a88ac", "addresses": ["1Gc3biG5hsHAoj4ZNAtnT4sCBbtF9sKEEL"], "asm": "OP_DUP OP_HASH160 ab2a9d50d30937548f24999a134f7b21dbb99a2a OP_EQUALVERIFY OP_CHECKSIG", "type": "pubkeyhash"}, "value": 0.00591337, "n": 1}, {"scriptPubKey": {"type": "nulldata", "hex": "6a146f6d6e69000000000000001f00000032088fb63a", "asm": "OP_RETURN 6f6d6e69000000000000001f00000032088fb63a"}, "value": 0.0, "n": 2}], "hex": "0100000001e42e9c59e1edd65eb55824d84248a0e3c4f43b270a4a185c7b54d9101f9fad4c010000006a47304402206cf1e42c70374fadb7a31008f1e72da0c925f1fe4b14df537f1e27fe17de1f0d0220698658dcb3ab0a4491a984646063c74c08b58fd92322e4a09105dcd3fccac83b01210390424deb98da6c45c0af5063423f08c91c8161cac684e32e1a05023933e974b9ffffffff03aa0a0000000000001976a914618dd5f82e4702b7ddc8e59ff5acfb0fc38b2a7a88ace9050900000000001976a914ab2a9d50d30937548f24999a134f7b21dbb99a2a88ac0000000000000000166a146f6d6e69000000000000001f00000032088fb63a00000000", "vin": [{"sequence": 4294967295, "scriptSig": {"hex": "47304402206cf1e42c70374fadb7a31008f1e72da0c925f1fe4b14df537f1e27fe17de1f0d0220698658dcb3ab0a4491a984646063c74c08b58fd92322e4a09105dcd3fccac83b01210390424deb98da6c45c0af5063423f08c91c8161cac684e32e1a05023933e974b9", "asm": "304402206cf1e42c70374fadb7a31008f1e72da0c925f1fe4b14df537f1e27fe17de1f0d0220698658dcb3ab0a4491a984646063c74c08b58fd92322e4a09105dcd3fccac83b[ALL] 0390424deb98da6c45c0af5063423f08c91c8161cac684e32e1a05023933e974b9"}, "vout": 1, "txid": "4cad9f1f10d9547b5c184a0a273bf4c4e3a04842d82458b55ed6ede1599c2ee4"}], "txid": "8c47c881c0041ef679f33be925699b673e4f729f61d03931b431a7f93a4817a1", "blocktime": 1537870268, "version": 1, "confirmations": 11518, "time": 1537870268, "locktime": 0, "vsize": 256, "size": 256}