{"hash": "00c8a5741fd7cdf1a5e35c295e21df1dd2c162cc0602760635340372f083e5ba", "blockhash": "00000000000000000024a2167bbff67b0be802c0b01cdd79e6331c2be6459f87", "vout": [{"scriptPubKey": {"reqSigs": 1, "hex": "a91439bb42a651513b4427fd656dca3abbd3f144c79287", "addresses": ["36xGmZANX4dFaHCEKJdA2A5zK6bZXYaktk"], "asm": "OP_HASH160 39bb42a651513b4427fd656dca3abbd3f144c792 OP_EQUAL", "type": "scripthash"}, "value": 1.0, "n": 0}, {"scriptPubKey": {"reqSigs": 1, "hex": "a914e320a4a0ca3f308e1fbe5f7574fa8b83187c4a8587", "addresses": ["3NPxRApWgUCLTcBUYnztrzEEaC32Nb2Jdz"], "asm": "OP_HASH160 e320a4a0ca3f308e1fbe5f7574fa8b83187c4a85 OP_EQUAL", "type": "scripthash"}, "value": 0.00364, "n": 1}], "hex": "0200000000010a0c721a9d2872a63d90164a85b6afd2508100f85ddf3626eff855d4249c8d886d0600000017160014adb8f520c9aec09a1685dcf6debcd1236dfcae7efeffffff1d6307acdb5e9bd478dda148550c643cba91e977a31364530304cd15503629be0000000017160014bfb77106d7bae68aa8c80425724b09fb0bbd7344feffffff34a8a097826bc3709a8ef70bae079afc2a7ff0a560b192598e2aa08f4a6df9f100000000171600142a29086e9ef5c8564b8592e7bff1de3a52760856feffffff369d284c5f2624ebfd53af78da01248702976b58c395a0b5a595357913b1f16b04000000171600144919cc531759da6f662f4fa36d3c58114056c4e4feffffff4d140649c5544b67b2293218e7ec27351d28877c085e3284d567b7bbc79c5fa20500000017160014ba572e13aa6981c9c5a2fb673c18f9b64475b522feffffff593514198b4f2b0fce58262846b6807fe87e79341c434571b672d4ddf771a760000000001716001442bb1b32895d818c005867d0eeab583a36e6d47ffeffffff7bbfb4e879484b870aa02cee1aaa38bbf00ecb3ba483574384a877c9b5aade840300000017160014a55aee6f601d8799483e451c062a20d66c847ae1feffffffd72e494162e3accdb2c6903905457a053dc41b10e42a3c91384a62af37c8695e0900000017160014a5547ea34c4d2e0931d21404885ffa47448371a9feffffffee3adf575e1acbea39c1f1ac43e75377a08231fe0e9c08a7f56716d598427de80200000017160014a270d9db513b05d2d53c568ccaed55d1de7012f9fefffffff26a7f53e4ecc3c1e67674bfb68f2f1fb1faaa6a74ad7f0c4c83a0fafbb1f9cc4c000000171600149db9dad04138599d336c413246ee3fce45349ec7feffffff0200e1f5050000000017a91439bb42a651513b4427fd656dca3abbd3f144c79287e08d05000000000017a914e320a4a0ca3f308e1fbe5f7574fa8b83187c4a858702483045022100e01673c8716a0b4669a8094a0e112d70c26db21f189e1bb6786eb80da06b50ec02206dc3f9340354ce85f28d58a3e0baaaab1293a4f342f54126b9d42ab3b4cba38d012103c62cce0784c2a452d55ddfdd002a4acee678fded756d1890bd467e18aa2978e6024730440220299b8a50100146d19a2b23c2147646ff276bfc97a2bbbb593ea26a7b4afcdb5c02202065a02be81ae01df9f7ea3a2c4234330157b279bc48b20dff348dc1cc422b2c012103b0fe47225605fa34d62891dfd4d45ae976ef4d283ddabb81e37eea3df2013e3a02483045022100c1c5981147b9306b370baf8c0d3db481755fa7c819481186f293826aa348ff4a022044233cc5b12ef787582359fd773f48f9d813c6e58a1df503fafbc169e8483a48012103bad1c26a515e1ceee55683ceb326d565151da92ce99a46b2a471fce2e7d82e1802483045022100f99f2e898476e079390ab4213ff23517d37465e13a024656c01a54f1b4309fd802204c016243f6bd0036f9e89fd4c8f02bd6f509378db2710b27b6079ee7848ea264012102988c8a28fc24db2f9e1c1ae8bcd30e1971a81f6db34a0a00605e8f20c64025e6024830450221009f9c29841e429182f38d71ad2acbbc02d6ec1404ef88ed764343ece4f25900bd02207b2504005fbe994849e0f72614523f18d1da9988d9e15752f154dafd840f609b012102c155ff7201ce3c0f8672d9ba5a15ebdc1dde5d570a15d1adbaec6c9ca9481cbf02483045022100c3ce6c434ab72033b71c5e5c21cf99d8e75fced921d638900b6b18262c2e7da002204c6c1405051e91ad6b6eea844881282c092c1a9b671b59563314d7094bdb579701210287e90cfe34ec76a4faafb16be4708116dfcfaf98e5fcf939e15753cf96766fcd024830450221009d69dd46cd8b4ce487cac5b3d5ecba3ed932310a49e257eaaedbd61e4bf39894022001521feffe3bff7a5d7c8788cd51e5668c361c02289de0e3853d1b2b5e28567b0121034940e168e3b7af0ca7629177831e8fd167676bd87b40512fdeb6d52c6e6267ed024730440220366496b6ae0c9f88b6779c63f00dc740fd94a5a44bfb22d2d5929ec2550ba43302203c7d7dffabf557201e73580b105804f7e603a8af51ab27a5336d56cadbc991aa012102b25048b73822c5aab7025a4bee826a032b78d5ed02ccb9a071253fabf5f1827d02473044022023529416e82682795aa6517ad8a5cd50d85768a31ca036685ed0964b39702e6b02203558c8cb92b8c1b33daf6a22f54fa5075ed6935c329eca5108f9124bec811323012102fd7da058bac639bb3e6bb0ac70769734cfcea7a32864b5528d900c94cbf5ed9502483045022100bd3a7da8a991c6c087b68bfed925615f6c9a944804dd8b30ac02db1dd4e478800220160c229e6acb0216da7c8fb66b2b5a5b3e0bd4484ac8f0c953987153fdae1c0e01210280214642efab3911a9be8976a4f7b5702059844a291e8bc41779ae1334550c900d490800", "vin": [{"txinwitness": ["3045022100e01673c8716a0b4669a8094a0e112d70c26db21f189e1bb6786eb80da06b50ec02206dc3f9340354ce85f28d58a3e0baaaab1293a4f342f54126b9d42ab3b4cba38d01", "03c62cce0784c2a452d55ddfdd002a4acee678fded756d1890bd467e18aa2978e6"], "sequence": 4294967294, "scriptSig": {"hex": "160014adb8f520c9aec09a1685dcf6debcd1236dfcae7e", "asm": "0014adb8f520c9aec09a1685dcf6debcd1236dfcae7e"}, "vout": 6, "txid": "6d888d9c24d455f8ef2636df5df8008150d2afb6854a16903da672289d1a720c"}, {"txinwitness": ["30440220299b8a50100146d19a2b23c2147646ff276bfc97a2bbbb593ea26a7b4afcdb5c02202065a02be81ae01df9f7ea3a2c4234330157b279bc48b20dff348dc1cc422b2c01", "03b0fe47225605fa34d62891dfd4d45ae976ef4d283ddabb81e37eea3df2013e3a"], "sequence": 4294967294, "scriptSig": {"hex": "160014bfb77106d7bae68aa8c80425724b09fb0bbd7344", "asm": "0014bfb77106d7bae68aa8c80425724b09fb0bbd7344"}, "vout": 0, "txid": "be29365015cd0403536413a377e991ba3c640c5548a1dd78d49b5edbac07631d"}, {"txinwitness": ["3045022100c1c5981147b9306b370baf8c0d3db481755fa7c819481186f293826aa348ff4a022044233cc5b12ef787582359fd773f48f9d813c6e58a1df503fafbc169e8483a4801", "03bad1c26a515e1ceee55683ceb326d565151da92ce99a46b2a471fce2e7d82e18"], "sequence": 4294967294, "scriptSig": {"hex": "1600142a29086e9ef5c8564b8592e7bff1de3a52760856", "asm": "00142a29086e9ef5c8564b8592e7bff1de3a52760856"}, "vout": 0, "txid": "f1f96d4a8fa02a8e5992b160a5f07f2afc9a07ae0bf78e9a70c36b8297a0a834"}, {"txinwitness": ["3045022100f99f2e898476e079390ab4213ff23517d37465e13a024656c01a54f1b4309fd802204c016243f6bd0036f9e89fd4c8f02bd6f509378db2710b27b6079ee7848ea26401", "02988c8a28fc24db2f9e1c1ae8bcd30e1971a81f6db34a0a00605e8f20c64025e6"], "sequence": 4294967294, "scriptSig": {"hex": "1600144919cc531759da6f662f4fa36d3c58114056c4e4", "asm": "00144919cc531759da6f662f4fa36d3c58114056c4e4"}, "vout": 4, "txid": "6bf1b113793595a5b5a095c3586b9702872401da78af53fdeb24265f4c289d36"}, {"txinwitness": ["30450221009f9c29841e429182f38d71ad2acbbc02d6ec1404ef88ed764343ece4f25900bd02207b2504005fbe994849e0f72614523f18d1da9988d9e15752f154dafd840f609b01", "02c155ff7201ce3c0f8672d9ba5a15ebdc1dde5d570a15d1adbaec6c9ca9481cbf"], "sequence": 4294967294, "scriptSig": {"hex": "160014ba572e13aa6981c9c5a2fb673c18f9b64475b522", "asm": "0014ba572e13aa6981c9c5a2fb673c18f9b64475b522"}, "vout": 5, "txid": "a25f9cc7bbb767d584325e087c87281d3527ece7183229b2674b54c54906144d"}, {"txinwitness": ["3045022100c3ce6c434ab72033b71c5e5c21cf99d8e75fced921d638900b6b18262c2e7da002204c6c1405051e91ad6b6eea844881282c092c1a9b671b59563314d7094bdb579701", "0287e90cfe34ec76a4faafb16be4708116dfcfaf98e5fcf939e15753cf96766fcd"], "sequence": 4294967294, "scriptSig": {"hex": "16001442bb1b32895d818c005867d0eeab583a36e6d47f", "asm": "001442bb1b32895d818c005867d0eeab583a36e6d47f"}, "vout": 0, "txid": "60a771f7ddd472b67145431c34797ee87f80b646282658ce0f2b4f8b19143559"}, {"txinwitness": ["30450221009d69dd46cd8b4ce487cac5b3d5ecba3ed932310a49e257eaaedbd61e4bf39894022001521feffe3bff7a5d7c8788cd51e5668c361c02289de0e3853d1b2b5e28567b01", "034940e168e3b7af0ca7629177831e8fd167676bd87b40512fdeb6d52c6e6267ed"], "sequence": 4294967294, "scriptSig": {"hex": "160014a55aee6f601d8799483e451c062a20d66c847ae1", "asm": "0014a55aee6f601d8799483e451c062a20d66c847ae1"}, "vout": 3, "txid": "84deaab5c977a884435783a43bcb0ef0bb38aa1aee2ca00a874b4879e8b4bf7b"}, {"txinwitness": ["30440220366496b6ae0c9f88b6779c63f00dc740fd94a5a44bfb22d2d5929ec2550ba43302203c7d7dffabf557201e73580b105804f7e603a8af51ab27a5336d56cadbc991aa01", "02b25048b73822c5aab7025a4bee826a032b78d5ed02ccb9a071253fabf5f1827d"], "sequence": 4294967294, "scriptSig": {"hex": "160014a5547ea34c4d2e0931d21404885ffa47448371a9", "asm": "0014a5547ea34c4d2e0931d21404885ffa47448371a9"}, "vout": 9, "txid": "5e69c837af624a38913c2ae4101bc43d057a45053990c6b2cdace36241492ed7"}, {"txinwitness": ["3044022023529416e82682795aa6517ad8a5cd50d85768a31ca036685ed0964b39702e6b02203558c8cb92b8c1b33daf6a22f54fa5075ed6935c329eca5108f9124bec81132301", "02fd7da058bac639bb3e6bb0ac70769734cfcea7a32864b5528d900c94cbf5ed95"], "sequence": 4294967294, "scriptSig": {"hex": "160014a270d9db513b05d2d53c568ccaed55d1de7012f9", "asm": "0014a270d9db513b05d2d53c568ccaed55d1de7012f9"}, "vout": 2, "txid": "e87d4298d51667f5a7089c0efe3182a07753e743acf1c139eacb1a5e57df3aee"}, {"txinwitness": ["3045022100bd3a7da8a991c6c087b68bfed925615f6c9a944804dd8b30ac02db1dd4e478800220160c229e6acb0216da7c8fb66b2b5a5b3e0bd4484ac8f0c953987153fdae1c0e01", "0280214642efab3911a9be8976a4f7b5702059844a291e8bc41779ae1334550c90"], "sequence": 4294967294, "scriptSig": {"hex": "1600149db9dad04138599d336c413246ee3fce45349ec7", "asm": "00149db9dad04138599d336c413246ee3fce45349ec7"}, "vout": 76, "txid": "ccf9b1fbfaa0834c0c7fad746aaafab11f2f8fb6bf7476e6c1c3ece4537f6af2"}], "txid": "8c478d89857136c6c89e10f313d6aa5344b452319c0fe02a17380d2be59e8fcd", "blocktime": 1537870564, "version": 2, "confirmations": 11515, "time": 1537870564, "locktime": 542989, "vsize": 984, "size": 1793}