{"hash": "dd2702d60b45d1a3c23894970bd1cda534c079de5bfaacfd4728f642c2fec5bb", "blockhash": "0000000000000000001cda96e906b7601b7a6fb1a3b62bca570a9e5d8f4b3de1", "vout": [{"scriptPubKey": {"reqSigs": 1, "hex": "a914843dff4a5155040824b5529c77566aec0ccbd6ab87", "addresses": ["3DkFPWS5U4Ai3Sz4CufGoysqjGVTdncrQD"], "asm": "OP_HASH160 843dff4a5155040824b5529c77566aec0ccbd6ab OP_EQUAL", "type": "scripthash"}, "value": 0.00327971, "n": 0}, {"scriptPubKey": {"reqSigs": 1, "hex": "0014add8f66f4f679ac96f188a7f13bdf98c89614970", "addresses": ["bc1q4hv0vm60v7dvjmcc3fl3800e3jykzjtsnegt6a"], "asm": "0 add8f66f4f679ac96f188a7f13bdf98c89614970", "type": "witness_v0_keyhash"}, "value": 6.78e-05, "n": 1}], "hex": "0100000000010151371a1c650e8cc3f8b0acaa1801c2eec08b7abdb8e96663b5a3c76dfdf83bec060000001716001420d43be74e140eb201f3e767520d9596268b746bffffffff02230105000000000017a914843dff4a5155040824b5529c77566aec0ccbd6ab877c1a000000000000160014add8f66f4f679ac96f188a7f13bdf98c89614970024730440220607046eeca611ec6fecdbb0f43c18d125890b3f9bddfc59d9336567cbdb0ff0c022046febbbd5a90fa5cd6f05213ad748204ecce2cd31572174ea3ac6542ac58dc2401210207c0f95be69ce678639f799009397e3567493ffb25c4bb4945eb41364e1967ad00000000", "vin": [{"txinwitness": ["30440220607046eeca611ec6fecdbb0f43c18d125890b3f9bddfc59d9336567cbdb0ff0c022046febbbd5a90fa5cd6f05213ad748204ecce2cd31572174ea3ac6542ac58dc2401", "0207c0f95be69ce678639f799009397e3567493ffb25c4bb4945eb41364e1967ad"], "sequence": 4294967295, "scriptSig": {"hex": "16001420d43be74e140eb201f3e767520d9596268b746b", "asm": "001420d43be74e140eb201f3e767520d9596268b746b"}, "vout": 6, "txid": "ec3bf8fd6dc7a3b56366e9b8bd7a8bc0eec20118aaacb0f8c38c0e651c1a3751"}], "txid": "8c4d498b2155432e84574be0f66998305e2ad8e32e6c5b01fbf980f72d25d610", "blocktime": 1537873282, "version": 1, "confirmations": 11484, "time": 1537873282, "locktime": 0, "vsize": 165, "size": 246}