{"hash": "8c51ab532c5e39236325a53f23aa09ab10c90e2b8204360592b292b826946c9f", "blockhash": "0000000000000000000baef3f32e3676a92c3b2e5da21b426e4f302fc371ce76", "vout": [{"scriptPubKey": {"reqSigs": 1, "hex": "21020e46e79a2a8d12b9b5d12c7a91adb4e454edfae43c0a0cb805427d2ac7613fd9ac", "addresses": ["1P3rU1Nk1pmc2BiWC8dEy9bZa1ZbMp5jfg"], "asm": "020e46e79a2a8d12b9b5d12c7a91adb4e454edfae43c0a0cb805427d2ac7613fd9 OP_CHECKSIG", "type": "pubkey"}, "value": 0.000988, "n": 0}, {"scriptPubKey": {"type": "nulldata", "hex": "6a28b0620016f781b651382fe22cbe73ac9b0056ee8e4f856c6dbe4434f38fc03f0d2ea40f004b4d4400", "asm": "OP_RETURN b0620016f781b651382fe22cbe73ac9b0056ee8e4f856c6dbe4434f38fc03f0d2ea40f004b4d4400"}, "value": 0.0, "n": 1}], "hex": "010000000d13ab623e6b9e88958043e3fc91f74736675c8e99c4c74f26bec2449d46a3d9920100000049483045022100c57b3aca977cb3eb6fd941af6c4965ec23e6b731d58786ce93cbfeebfb8b30ca02204192459477ef5e5b1d1c7bdd162da0edd51470d07f543999f1ddaeab9f4dc9bc01ffffffff158f0fbca9c44d22481e8f4c1c2947142ee574b4ce4ee5d4a60e7d342041b3ed1800000049483045022100cb17790169a1946456b7112e678088035d36e7bb5faf147a514b66aff83c8b760220347239c63c0459d6ce1e585845612f6caac37be6af759405984ec4437fcc59ef01ffffffff92b188482274b1df1ba33210f6da51934a625aa74d5feb5768051415b84b6ed5040000004847304402206a14bbd07d14781c3b57daa353e6ae38f77ce1b1e93f853e5a53b6ad669a067502204f8c8a90b05aa29cf4649d9594be725528d86ffe3f55ebd75f5b0852e8b47fc801ffffffff2822415869c914762c4631b441c3922380be0839f4080e0609a3152baae1bea30100000049483045022100e0e481b074e7a4cfe74a649ce888f762f61ecf7f2572c7b7514e14ab90862b000220401526871c658d2799ec4c8cac6b1b3d4aabe900a2068afe35d426c624416fe101ffffffff498eae303b35ef11995b30171a43a13fdd18d273ee1e95d383793de5732283ed0500000049483045022100928fd5790677c6705c23795c0fbac89d244c8c8a01577a33dd8ac1629b1ce2d50220670c221329a04fa180dbda52682b0ee8be825472b0a8877d9289eb9aaf77d23b01ffffffff5a7e3c03deca886386a234890454696204f11791d07720d444e0307986ed30f706000000484730440220480b6560b4757240375cac70358bc8d5bcb364d3aa952c8bc1a2a6b703d5789102205f0872f0cf9e8b04605769d1fa935c3f96f5c7400083ad72b64c714f8d41aada01ffffffff97b5c979660ad1b7c495f067f67f026d4fe31fd39e0dce566178367ca84801cc0a00000048473044022054263f35842e86b013a0a56a561266d8951be278b79bb47b85e4b6ce51b7f131022062adb93668edd95b1249c2fb65afa2f2c9b602bb7659cdce81bded543490d0d201ffffffff25f40dc8bd7150b2956af353071e1c25bda6dea66a7f6393cee58c41ec6641400d00000049483045022100c798056ae9dfa54fb50d78d9a1b1fc6f422d89683fc23ddb6984a7ef29517c6702206ad4ce310b6b756577ff99ba10e92b5f19f6c9378d819ac01f4738d87cc304b201ffffffffb07e6323422333629bcdf84b6b4367aa44fc5db2187160b4656fb656fb1c8dbd0200000049483045022100b9c408fa9a5ae7d57f233c2a5b02e1528e86b20b2caa4be835c818090eefa769022003bdccbf6fbb0a49b9c83f95965b1cdb64dda303e307290f5c0ddfd79fb9e29601ffffffff44b2fc16cae5f2ee204d44a821df289d95237c9de61209f0e2767e27d05b8445020000004847304402201073ba2de3a609f12a3bf7079126675ca63df2bfc4bd87ee5a95803d1a715a1902200146701c34abd9b0d1e2c74fdc25fdaba14996035fefa4e2e0581781a83b966101ffffffff48e6fdfeed5dffee44b681598b8ed9064e1118f63e4a881dbdd284e1225d992a0800000049483045022100f7bd3df73ecb41ce640862f5de9482a29391d313a787cee838f5caf197e60cf1022002cab32e84386b4d482a9ed263286f80b4a8c9c9b06c7462defca0f340eb401d01ffffffff704cf182546917c3e578d780f0272c21db73358d2ce1ce67b82c841ec351f9930800000049483045022100a19fd54d7e3e8ede97d5fe3e024d2aaa9e63842a297ccfd5199c30af2b5fd1d802207eb8ee37f8d5a5d5469f2d16145bafceff9694744eed23d67b651456e556879301ffffffff36415d47c1d5f975af09df59394e141f95d4be238f411ddc8439c7dfbc6b29f01800000049483045022100af02ef8d382c88c6263d0986bdf1440808cd414204906bc2dd402567fd18993c022059633d7e8e6f179fbb6183dd99a7dd6f4712c5c492fe88b2b71d5b594d6514d601ffffffff02f0810100000000002321020e46e79a2a8d12b9b5d12c7a91adb4e454edfae43c0a0cb805427d2ac7613fd9ac00000000000000002a6a28b0620016f781b651382fe22cbe73ac9b0056ee8e4f856c6dbe4434f38fc03f0d2ea40f004b4d440000000000", "vin": [{"sequence": 4294967295, "scriptSig": {"hex": "483045022100c57b3aca977cb3eb6fd941af6c4965ec23e6b731d58786ce93cbfeebfb8b30ca02204192459477ef5e5b1d1c7bdd162da0edd51470d07f543999f1ddaeab9f4dc9bc01", "asm": "3045022100c57b3aca977cb3eb6fd941af6c4965ec23e6b731d58786ce93cbfeebfb8b30ca02204192459477ef5e5b1d1c7bdd162da0edd51470d07f543999f1ddaeab9f4dc9bc[ALL]"}, "vout": 1, "txid": "92d9a3469d44c2be264fc7c4998e5c673647f791fce3438095889e6b3e62ab13"}, {"sequence": 4294967295, "scriptSig": {"hex": "483045022100cb17790169a1946456b7112e678088035d36e7bb5faf147a514b66aff83c8b760220347239c63c0459d6ce1e585845612f6caac37be6af759405984ec4437fcc59ef01", "asm": "3045022100cb17790169a1946456b7112e678088035d36e7bb5faf147a514b66aff83c8b760220347239c63c0459d6ce1e585845612f6caac37be6af759405984ec4437fcc59ef[ALL]"}, "vout": 24, "txid": "edb34120347d0ea6d4e54eceb474e52e1447291c4c8f1e48224dc4a9bc0f8f15"}, {"sequence": 4294967295, "scriptSig": {"hex": "47304402206a14bbd07d14781c3b57daa353e6ae38f77ce1b1e93f853e5a53b6ad669a067502204f8c8a90b05aa29cf4649d9594be725528d86ffe3f55ebd75f5b0852e8b47fc801", "asm": "304402206a14bbd07d14781c3b57daa353e6ae38f77ce1b1e93f853e5a53b6ad669a067502204f8c8a90b05aa29cf4649d9594be725528d86ffe3f55ebd75f5b0852e8b47fc8[ALL]"}, "vout": 4, "txid": "d56e4bb81514056857eb5f4da75a624a9351daf61032a31bdfb174224888b192"}, {"sequence": 4294967295, "scriptSig": {"hex": "483045022100e0e481b074e7a4cfe74a649ce888f762f61ecf7f2572c7b7514e14ab90862b000220401526871c658d2799ec4c8cac6b1b3d4aabe900a2068afe35d426c624416fe101", "asm": "3045022100e0e481b074e7a4cfe74a649ce888f762f61ecf7f2572c7b7514e14ab90862b000220401526871c658d2799ec4c8cac6b1b3d4aabe900a2068afe35d426c624416fe1[ALL]"}, "vout": 1, "txid": "a3bee1aa2b15a309060e08f43908be802392c341b431462c7614c96958412228"}, {"sequence": 4294967295, "scriptSig": {"hex": "483045022100928fd5790677c6705c23795c0fbac89d244c8c8a01577a33dd8ac1629b1ce2d50220670c221329a04fa180dbda52682b0ee8be825472b0a8877d9289eb9aaf77d23b01", "asm": "3045022100928fd5790677c6705c23795c0fbac89d244c8c8a01577a33dd8ac1629b1ce2d50220670c221329a04fa180dbda52682b0ee8be825472b0a8877d9289eb9aaf77d23b[ALL]"}, "vout": 5, "txid": "ed832273e53d7983d3951eee73d218dd3fa1431a17305b9911ef353b30ae8e49"}, {"sequence": 4294967295, "scriptSig": {"hex": "4730440220480b6560b4757240375cac70358bc8d5bcb364d3aa952c8bc1a2a6b703d5789102205f0872f0cf9e8b04605769d1fa935c3f96f5c7400083ad72b64c714f8d41aada01", "asm": "30440220480b6560b4757240375cac70358bc8d5bcb364d3aa952c8bc1a2a6b703d5789102205f0872f0cf9e8b04605769d1fa935c3f96f5c7400083ad72b64c714f8d41aada[ALL]"}, "vout": 6, "txid": "f730ed867930e044d42077d09117f104626954048934a2866388cade033c7e5a"}, {"sequence": 4294967295, "scriptSig": {"hex": "473044022054263f35842e86b013a0a56a561266d8951be278b79bb47b85e4b6ce51b7f131022062adb93668edd95b1249c2fb65afa2f2c9b602bb7659cdce81bded543490d0d201", "asm": "3044022054263f35842e86b013a0a56a561266d8951be278b79bb47b85e4b6ce51b7f131022062adb93668edd95b1249c2fb65afa2f2c9b602bb7659cdce81bded543490d0d2[ALL]"}, "vout": 10, "txid": "cc0148a87c36786156ce0d9ed31fe34f6d027ff667f095c4b7d10a6679c9b597"}, {"sequence": 4294967295, "scriptSig": {"hex": "483045022100c798056ae9dfa54fb50d78d9a1b1fc6f422d89683fc23ddb6984a7ef29517c6702206ad4ce310b6b756577ff99ba10e92b5f19f6c9378d819ac01f4738d87cc304b201", "asm": "3045022100c798056ae9dfa54fb50d78d9a1b1fc6f422d89683fc23ddb6984a7ef29517c6702206ad4ce310b6b756577ff99ba10e92b5f19f6c9378d819ac01f4738d87cc304b2[ALL]"}, "vout": 13, "txid": "404166ec418ce5ce93637f6aa6dea6bd251c1e0753f36a95b25071bdc80df425"}, {"sequence": 4294967295, "scriptSig": {"hex": "483045022100b9c408fa9a5ae7d57f233c2a5b02e1528e86b20b2caa4be835c818090eefa769022003bdccbf6fbb0a49b9c83f95965b1cdb64dda303e307290f5c0ddfd79fb9e29601", "asm": "3045022100b9c408fa9a5ae7d57f233c2a5b02e1528e86b20b2caa4be835c818090eefa769022003bdccbf6fbb0a49b9c83f95965b1cdb64dda303e307290f5c0ddfd79fb9e296[ALL]"}, "vout": 2, "txid": "bd8d1cfb56b66f65b4607118b25dfc44aa67436b4bf8cd9b6233234223637eb0"}, {"sequence": 4294967295, "scriptSig": {"hex": "47304402201073ba2de3a609f12a3bf7079126675ca63df2bfc4bd87ee5a95803d1a715a1902200146701c34abd9b0d1e2c74fdc25fdaba14996035fefa4e2e0581781a83b966101", "asm": "304402201073ba2de3a609f12a3bf7079126675ca63df2bfc4bd87ee5a95803d1a715a1902200146701c34abd9b0d1e2c74fdc25fdaba14996035fefa4e2e0581781a83b9661[ALL]"}, "vout": 2, "txid": "45845bd0277e76e2f00912e69d7c23959d28df21a8444d20eef2e5ca16fcb244"}, {"sequence": 4294967295, "scriptSig": {"hex": "483045022100f7bd3df73ecb41ce640862f5de9482a29391d313a787cee838f5caf197e60cf1022002cab32e84386b4d482a9ed263286f80b4a8c9c9b06c7462defca0f340eb401d01", "asm": "3045022100f7bd3df73ecb41ce640862f5de9482a29391d313a787cee838f5caf197e60cf1022002cab32e84386b4d482a9ed263286f80b4a8c9c9b06c7462defca0f340eb401d[ALL]"}, "vout": 8, "txid": "2a995d22e184d2bd1d884a3ef618114e06d98e8b5981b644eeff5dedfefde648"}, {"sequence": 4294967295, "scriptSig": {"hex": "483045022100a19fd54d7e3e8ede97d5fe3e024d2aaa9e63842a297ccfd5199c30af2b5fd1d802207eb8ee37f8d5a5d5469f2d16145bafceff9694744eed23d67b651456e556879301", "asm": "3045022100a19fd54d7e3e8ede97d5fe3e024d2aaa9e63842a297ccfd5199c30af2b5fd1d802207eb8ee37f8d5a5d5469f2d16145bafceff9694744eed23d67b651456e5568793[ALL]"}, "vout": 8, "txid": "93f951c31e842cb867cee12c8d3573db212c27f080d778e5c317695482f14c70"}, {"sequence": 4294967295, "scriptSig": {"hex": "483045022100af02ef8d382c88c6263d0986bdf1440808cd414204906bc2dd402567fd18993c022059633d7e8e6f179fbb6183dd99a7dd6f4712c5c492fe88b2b71d5b594d6514d601", "asm": "3045022100af02ef8d382c88c6263d0986bdf1440808cd414204906bc2dd402567fd18993c022059633d7e8e6f179fbb6183dd99a7dd6f4712c5c492fe88b2b71d5b594d6514d6[ALL]"}, "vout": 24, "txid": "f0296bbcdfc73984dc1d418f23bed4951f144e3959df09af75f9d5c1475d4136"}], "txid": "8c51ab532c5e39236325a53f23aa09ab10c90e2b8204360592b292b826946c9f", "blocktime": 1537876114, "version": 1, "confirmations": 11459, "time": 1537876114, "locktime": 0, "vsize": 1583, "size": 1583}