{"hash": "8c52712850e0c2d2ff746d2d347333af0d159d1d213ac3aeb2b9c1076dc977fd", "blockhash": "00000000000000000004ffacab907a6b429b9a5745fa0b75af4234bf69dd7176", "vout": [{"scriptPubKey": {"reqSigs": 1, "hex": "a914268992a7ade0446a25c6fc802d9c23b9960a52cc87", "addresses": ["35CnQZfSeDUZ8i6MgEqEPzJGcGZ9TtFjnk"], "asm": "OP_HASH160 268992a7ade0446a25c6fc802d9c23b9960a52cc OP_EQUAL", "type": "scripthash"}, "value": 0.16850704, "n": 0}], "hex": "01000000074ad26316bd01d0fc428c1fac70250d080cc641a9d2b1f810205c7736fee38d0f010000006b483045022100b9197f69c8ae107ff9215198df02e2397b25f38897c63cc15d2e33dc7bf163a002202df9a7009433ea24fa5c0573addefc35f65ea1db6d513509d9f44679a9a7240101210358b7d4c7518cdcb95ab92f105d2acdce374747da15bc88b7c2ef577618b9a334feffffffce2814accec72fafa6529a54916c211538ecbc84a383a91d8c1b01c2af7e3e14000000006a4730440220073a42320a18d99070982f10e5197c3eb8d47dd8fcbddca8efebca7a95ececf602200fc45c3bf0778e52613a65267dbb44ab0e3370d64d76d402ea20693b19fe28820121031b85a0b27ad5a549dffd56f84f2d6dd0d64d6f3fddc322a360a2c89e0112559cfeffffff3133a57593bb68af2d0cce53f95e3a1c94b48395f39dfcfd1f5d13f9ea36877d000000006a4730440221008113223078f0bb62bd7e350b62ccca64a8d7b37409907f10ab360fbd51e26d03021f656486a99c98472d7afe3be33e896fd42056679fa1d065751aa5f07b4fabac012103ba3270aa335c9159b09cebbe585b2c86f5aad8cd252aae020321008c32efd361feffffff27017eb1579f06c7e6f0fbcaf12c8b7ce7c064b58407fc3cafc5ca26cba65aab010000006b4830450221008bd7c8b01920e723ace7e764a4b4afee6fe9d1ec1ee01cd6d3c3ff4d12e608e0022007ae897a3b786f363f94a38248374bdfe803810c821bfd598bd79f248de67cda0121034f4f17834531a9240c070eb6ef96566f3670c62150cd9bd8a33fb833db21413dfeffffff572907090657d8f63c576fa26f97891b7afdade698e2306cf4fc3580589621bc010000006b483045022100b5330a51ee56b539800d2b79e51725a64d0586457a615134e95954e25d1f88f402207628da969c1badb4c6e630383651f41e76813f39212808e1a297330a47dd77b20121024a79dc2a172e1907bb96dc2150ee5a091e90c8328f638122d13582a442659531feffffffee0ba5137d6af1fe8caba6e8ea39d4e6915e639a642700c2b26bc54cb99858d5000000006b483045022100fbc57973941051ab35288687efafa4fd20e525e0e31036223e51be3c1b0bcbe302201188e3de91c79bdfe0765a10f92d24bdf53d26054e5910abba1c8a61272a9a7b012102243b3c80ee5b816613986b19e6ed8d777444c25f74ad87da31099aed1cd16dd9feffffff871f68d03a4c28461b8a2fbdb33d024e29734885f5edecb74b02ee4f74bca9fe000000006b483045022100aadb0b804e38254bedd7903a33c110c86ffe562b169be1163c6da4169d32af23022037223e2a4ac5443ed37e61c65b175e80539b3dae8147cdb42f01a7aa3de63f84012103e0c7aff00b70d34148bcb49d501c194b099d2c02aafa77ce30cea764e7fdbd70feffffff01101f01010000000017a914268992a7ade0446a25c6fc802d9c23b9960a52cc8716490800", "vin": [{"sequence": 4294967294, "scriptSig": {"hex": "483045022100b9197f69c8ae107ff9215198df02e2397b25f38897c63cc15d2e33dc7bf163a002202df9a7009433ea24fa5c0573addefc35f65ea1db6d513509d9f44679a9a7240101210358b7d4c7518cdcb95ab92f105d2acdce374747da15bc88b7c2ef577618b9a334", "asm": "3045022100b9197f69c8ae107ff9215198df02e2397b25f38897c63cc15d2e33dc7bf163a002202df9a7009433ea24fa5c0573addefc35f65ea1db6d513509d9f44679a9a72401[ALL] 0358b7d4c7518cdcb95ab92f105d2acdce374747da15bc88b7c2ef577618b9a334"}, "vout": 1, "txid": "0f8de3fe36775c2010f8b1d2a941c60c080d2570ac1f8c42fcd001bd1663d24a"}, {"sequence": 4294967294, "scriptSig": {"hex": "4730440220073a42320a18d99070982f10e5197c3eb8d47dd8fcbddca8efebca7a95ececf602200fc45c3bf0778e52613a65267dbb44ab0e3370d64d76d402ea20693b19fe28820121031b85a0b27ad5a549dffd56f84f2d6dd0d64d6f3fddc322a360a2c89e0112559c", "asm": "30440220073a42320a18d99070982f10e5197c3eb8d47dd8fcbddca8efebca7a95ececf602200fc45c3bf0778e52613a65267dbb44ab0e3370d64d76d402ea20693b19fe2882[ALL] 031b85a0b27ad5a549dffd56f84f2d6dd0d64d6f3fddc322a360a2c89e0112559c"}, "vout": 0, "txid": "143e7eafc2011b8c1da983a384bcec3815216c91549a52a6af2fc7ceac1428ce"}, {"sequence": 4294967294, "scriptSig": {"hex": "4730440221008113223078f0bb62bd7e350b62ccca64a8d7b37409907f10ab360fbd51e26d03021f656486a99c98472d7afe3be33e896fd42056679fa1d065751aa5f07b4fabac012103ba3270aa335c9159b09cebbe585b2c86f5aad8cd252aae020321008c32efd361", "asm": "30440221008113223078f0bb62bd7e350b62ccca64a8d7b37409907f10ab360fbd51e26d03021f656486a99c98472d7afe3be33e896fd42056679fa1d065751aa5f07b4fabac[ALL] 03ba3270aa335c9159b09cebbe585b2c86f5aad8cd252aae020321008c32efd361"}, "vout": 0, "txid": "7d8736eaf9135d1ffdfc9df39583b4941c3a5ef953ce0c2daf68bb9375a53331"}, {"sequence": 4294967294, "scriptSig": {"hex": "4830450221008bd7c8b01920e723ace7e764a4b4afee6fe9d1ec1ee01cd6d3c3ff4d12e608e0022007ae897a3b786f363f94a38248374bdfe803810c821bfd598bd79f248de67cda0121034f4f17834531a9240c070eb6ef96566f3670c62150cd9bd8a33fb833db21413d", "asm": "30450221008bd7c8b01920e723ace7e764a4b4afee6fe9d1ec1ee01cd6d3c3ff4d12e608e0022007ae897a3b786f363f94a38248374bdfe803810c821bfd598bd79f248de67cda[ALL] 034f4f17834531a9240c070eb6ef96566f3670c62150cd9bd8a33fb833db21413d"}, "vout": 1, "txid": "ab5aa6cb26cac5af3cfc0784b564c0e77c8b2cf1cafbf0e6c7069f57b17e0127"}, {"sequence": 4294967294, "scriptSig": {"hex": "483045022100b5330a51ee56b539800d2b79e51725a64d0586457a615134e95954e25d1f88f402207628da969c1badb4c6e630383651f41e76813f39212808e1a297330a47dd77b20121024a79dc2a172e1907bb96dc2150ee5a091e90c8328f638122d13582a442659531", "asm": "3045022100b5330a51ee56b539800d2b79e51725a64d0586457a615134e95954e25d1f88f402207628da969c1badb4c6e630383651f41e76813f39212808e1a297330a47dd77b2[ALL] 024a79dc2a172e1907bb96dc2150ee5a091e90c8328f638122d13582a442659531"}, "vout": 1, "txid": "bc2196588035fcf46c30e298e6adfd7a1b89976fa26f573cf6d8570609072957"}, {"sequence": 4294967294, "scriptSig": {"hex": "483045022100fbc57973941051ab35288687efafa4fd20e525e0e31036223e51be3c1b0bcbe302201188e3de91c79bdfe0765a10f92d24bdf53d26054e5910abba1c8a61272a9a7b012102243b3c80ee5b816613986b19e6ed8d777444c25f74ad87da31099aed1cd16dd9", "asm": "3045022100fbc57973941051ab35288687efafa4fd20e525e0e31036223e51be3c1b0bcbe302201188e3de91c79bdfe0765a10f92d24bdf53d26054e5910abba1c8a61272a9a7b[ALL] 02243b3c80ee5b816613986b19e6ed8d777444c25f74ad87da31099aed1cd16dd9"}, "vout": 0, "txid": "d55898b94cc56bb2c20027649a635e91e6d439eae8a6ab8cfef16a7d13a50bee"}, {"sequence": 4294967294, "scriptSig": {"hex": "483045022100aadb0b804e38254bedd7903a33c110c86ffe562b169be1163c6da4169d32af23022037223e2a4ac5443ed37e61c65b175e80539b3dae8147cdb42f01a7aa3de63f84012103e0c7aff00b70d34148bcb49d501c194b099d2c02aafa77ce30cea764e7fdbd70", "asm": "3045022100aadb0b804e38254bedd7903a33c110c86ffe562b169be1163c6da4169d32af23022037223e2a4ac5443ed37e61c65b175e80539b3dae8147cdb42f01a7aa3de63f84[ALL] 03e0c7aff00b70d34148bcb49d501c194b099d2c02aafa77ce30cea764e7fdbd70"}, "vout": 0, "txid": "fea9bc744fee024bb7ecedf5854873294e023db3bd2f8a1b46284c3ad0681f87"}], "txid": "8c52712850e0c2d2ff746d2d347333af0d159d1d213ac3aeb2b9c1076dc977fd", "blocktime": 1537875543, "version": 1, "confirmations": 11464, "time": 1537875543, "locktime": 542998, "vsize": 1076, "size": 1076}