{"hash": "aae19eb3d5645ae434986a444b5575273d26a976a0802aacdac2861beb062a97", "blockhash": "00000000000000000017f5eb5941039fbcee6240d03bc1f2f8e35350df66a1d8", "vout": [{"scriptPubKey": {"reqSigs": 1, "hex": "76a914dd2a9312405d690ebd6c7ee6beba9451fbaf357788ac", "addresses": ["1MARLXJXQyqD52naWJb1saM2HTgvt5bpSC"], "asm": "OP_DUP OP_HASH160 dd2a9312405d690ebd6c7ee6beba9451fbaf3577 OP_EQUALVERIFY OP_CHECKSIG", "type": "pubkeyhash"}, "value": 0.03033, "n": 0}, {"scriptPubKey": {"reqSigs": 1, "hex": "a914bfb74a674a3f09811f4be8436f4a05ef128b366987", "addresses": ["3KAiZSV5J7aYtTCjCG72KzBhG4r1Ruyd5r"], "asm": "OP_HASH160 bfb74a674a3f09811f4be8436f4a05ef128b3669 OP_EQUAL", "type": "scripthash"}, "value": 0.01232251, "n": 1}], "hex": "01000000000101bbe2a57ba6593946cd30e7509f251fd187025f5ae2ae355c4c5f1f8dc96e5f100000000023220020e7c03c1d66af295176172f3039cf9e5ef13c86c802805697faaf69ce72141682ffffffff02a8472e00000000001976a914dd2a9312405d690ebd6c7ee6beba9451fbaf357788ac7bcd12000000000017a914bfb74a674a3f09811f4be8436f4a05ef128b3669870400483045022100dea1fb543f139fa0a0b18e762e2bec5eff4c27d5f2c537def0f3315e2fc2ce48022050279ef1583a00773cabf5912bc6eec4b280b479888c9e3df64d33f4587f0b8601483045022100b4a62bc391b0942c56965e241c19bbafc19df9a993a5c392215a108170071cea0220449a0bf6927fdccb0ec3cb49433e3ad0951ec898d3e6ecc50bcb0bc58a99f0c10147522102a5a9a5f8193df27c06da03bae9c3a5341fae5a774e4bbef08e097a8fcd06228e2102a6fa9c8ff2baca070653cc35bf13fbcd4a2b96715926f24d5a44b736d40cbc5652ae00000000", "vin": [{"txinwitness": ["", "3045022100dea1fb543f139fa0a0b18e762e2bec5eff4c27d5f2c537def0f3315e2fc2ce48022050279ef1583a00773cabf5912bc6eec4b280b479888c9e3df64d33f4587f0b8601", "3045022100b4a62bc391b0942c56965e241c19bbafc19df9a993a5c392215a108170071cea0220449a0bf6927fdccb0ec3cb49433e3ad0951ec898d3e6ecc50bcb0bc58a99f0c101", "522102a5a9a5f8193df27c06da03bae9c3a5341fae5a774e4bbef08e097a8fcd06228e2102a6fa9c8ff2baca070653cc35bf13fbcd4a2b96715926f24d5a44b736d40cbc5652ae"], "sequence": 4294967295, "scriptSig": {"hex": "220020e7c03c1d66af295176172f3039cf9e5ef13c86c802805697faaf69ce72141682", "asm": "0020e7c03c1d66af295176172f3039cf9e5ef13c86c802805697faaf69ce72141682"}, "vout": 0, "txid": "105f6ec98d1f5f4c5c35aee25a5f0287d11f259f50e730cd463959a67ba5e2bb"}], "txid": "8c5544edf93cbf5ba454d6f1e9f5513fd0b0acdc60d55b0303ed81f2dcf6b2e6", "blocktime": 1537874412, "version": 1, "confirmations": 11468, "time": 1537874412, "locktime": 0, "vsize": 208, "size": 374}