{"hash": "8c553bff0f427878ab8e12f31a691badd0d406932c47905e9ffe86353abc66db", "blockhash": "0000000000000000001e0dab787dd257d1dbfcb92a98c2207d5e1078be1f4165", "vout": [{"scriptPubKey": {"reqSigs": 1, "hex": "a91457456facd78a892cf5a7c441f96f4157b99d8e5587", "addresses": ["39eTtkGtANNaRowu6MEup63Mrn5EsNAPwV"], "asm": "OP_HASH160 57456facd78a892cf5a7c441f96f4157b99d8e55 OP_EQUAL", "type": "scripthash"}, "value": 0.00623341, "n": 0}, {"scriptPubKey": {"reqSigs": 1, "hex": "76a914dea985ce5b89727ced4f24319c7916d08868c7c688ac", "addresses": ["1MJL6EGCB8Etzu1VvFmF4rm1ZL3yYYS8TF"], "asm": "OP_DUP OP_HASH160 dea985ce5b89727ced4f24319c7916d08868c7c6 OP_EQUALVERIFY OP_CHECKSIG", "type": "pubkeyhash"}, "value": 0.00238346, "n": 1}], "hex": "0200000001b52220bf683bf9903dae68a60b44b64a56659ffc91b45e7cca153121295c9893020000006a473044022038679f4f8b824799a654e82c96231a8f33ad67ceaf3f509daf55662b4f5f09fe022068538dbdae53454e1af006ee8052f235412992588e8f23be5a79f83e1300cf7a012103c5d04d3e126713c77f8aea60d3df278dd47af1bc5b1c2879b180a946bd6e80edffffffff02ed8209000000000017a91457456facd78a892cf5a7c441f96f4157b99d8e55870aa30300000000001976a914dea985ce5b89727ced4f24319c7916d08868c7c688ac00000000", "vin": [{"sequence": 4294967295, "scriptSig": {"hex": "473044022038679f4f8b824799a654e82c96231a8f33ad67ceaf3f509daf55662b4f5f09fe022068538dbdae53454e1af006ee8052f235412992588e8f23be5a79f83e1300cf7a012103c5d04d3e126713c77f8aea60d3df278dd47af1bc5b1c2879b180a946bd6e80ed", "asm": "3044022038679f4f8b824799a654e82c96231a8f33ad67ceaf3f509daf55662b4f5f09fe022068538dbdae53454e1af006ee8052f235412992588e8f23be5a79f83e1300cf7a[ALL] 03c5d04d3e126713c77f8aea60d3df278dd47af1bc5b1c2879b180a946bd6e80ed"}, "vout": 2, "txid": "93985c29213115ca7c5eb491fc9f65564ab6440ba668ae3d90f93b68bf2022b5"}], "txid": "8c553bff0f427878ab8e12f31a691badd0d406932c47905e9ffe86353abc66db", "blocktime": 1537872475, "version": 2, "confirmations": 11486, "time": 1537872475, "locktime": 0, "vsize": 223, "size": 223}