{"hash": "6d0ad2d849bef893631151bea0353dac7052fdab3b005201bf70bfa12cff4109", "blockhash": "0000000000000000000baef3f32e3676a92c3b2e5da21b426e4f302fc371ce76", "vout": [{"scriptPubKey": {"reqSigs": 1, "hex": "a91430897cc6c9d69f6a2c2f1c651d51f22219f1a4f687", "addresses": ["367f4YWz1VCFaqBqwbTrzwi2b1h2U3w1AF"], "asm": "OP_HASH160 30897cc6c9d69f6a2c2f1c651d51f22219f1a4f6 OP_EQUAL", "type": "scripthash"}, "value": 17.88126817, "n": 0}, {"scriptPubKey": {"reqSigs": 1, "hex": "a91469f375fb0352e848d04a590a41bf9d653c42bdbe87", "addresses": ["3BMEXeFptmBrMhiB5toZ9LsYgiLUP7iEzy"], "asm": "OP_HASH160 69f375fb0352e848d04a590a41bf9d653c42bdbe OP_EQUAL", "type": "scripthash"}, "value": 0.09556687, "n": 1}], "hex": "01000000000101c0c36aab01e677b44182016be6ffe39f9e70c184d6b7ddec65ffa75e3ccbb25c0000000023220020bcf9f822194145acea0f3235f4107b5bf1a91b6b9f8489f63bf79ec29b360913ffffffff0261a6946a0000000017a91430897cc6c9d69f6a2c2f1c651d51f22219f1a4f687cfd291000000000017a91469f375fb0352e848d04a590a41bf9d653c42bdbe8704004730440220766fe876ed62c9cf93579e3c7d21964df6e615f73b0d6ac66440a70dbe279d250220344e5d3ee401e43dc488fba60cca237c64ae4daaa4a85263476c93f2ad07db470147304402204d5c6de422657f9e4eca8dea2fb483ad90b46347abb10fb99e13ee7346ce4fc102206c3afe53811546c2bf1d7dd0fa9fedac4a430486961f8e22cf5f94fd5cd423a501695221026c8f72b9e63db63907115e65d4da86eaae595b22fdc85ec75301bb4adbf203582103806535be3e3920e5eedee92de5714188fd6a784f2bf7b04f87de0b9c3ae1ecdb21024b23bfdce2afcae7e28c42f7f79aa100f22931712c52d7414a526ba494d44a2553ae00000000", "vin": [{"txinwitness": ["", "30440220766fe876ed62c9cf93579e3c7d21964df6e615f73b0d6ac66440a70dbe279d250220344e5d3ee401e43dc488fba60cca237c64ae4daaa4a85263476c93f2ad07db4701", "304402204d5c6de422657f9e4eca8dea2fb483ad90b46347abb10fb99e13ee7346ce4fc102206c3afe53811546c2bf1d7dd0fa9fedac4a430486961f8e22cf5f94fd5cd423a501", "5221026c8f72b9e63db63907115e65d4da86eaae595b22fdc85ec75301bb4adbf203582103806535be3e3920e5eedee92de5714188fd6a784f2bf7b04f87de0b9c3ae1ecdb21024b23bfdce2afcae7e28c42f7f79aa100f22931712c52d7414a526ba494d44a2553ae"], "sequence": 4294967295, "scriptSig": {"hex": "220020bcf9f822194145acea0f3235f4107b5bf1a91b6b9f8489f63bf79ec29b360913", "asm": "0020bcf9f822194145acea0f3235f4107b5bf1a91b6b9f8489f63bf79ec29b360913"}, "vout": 0, "txid": "5cb2cb3c5ea7ff65ecddb7d684c1709e9fe3ffe66b018241b477e601ab6ac3c0"}], "txid": "8c5648799a44dbef256633dba5fe4da3705b6a836b38f1061f4315469f2380ce", "blocktime": 1537876114, "version": 1, "confirmations": 11460, "time": 1537876114, "locktime": 0, "vsize": 214, "size": 404}