{"hash": "8c61df111c94ed7f853da504b4bcd8f0ff4b9a69d87ef1ccc3d6c58fa3c80ca1", "blockhash": "0000000000000000001cda96e906b7601b7a6fb1a3b62bca570a9e5d8f4b3de1", "vout": [{"scriptPubKey": {"reqSigs": 1, "hex": "76a9144a0f1e2f2b0d7daeec5265f10bbbbe08ed725e8988ac", "addresses": ["17kb7c9ndg7ioSuzMWEHWECdEVUegNkcGc"], "asm": "OP_DUP OP_HASH160 4a0f1e2f2b0d7daeec5265f10bbbbe08ed725e89 OP_EQUALVERIFY OP_CHECKSIG", "type": "pubkeyhash"}, "value": 0.01270032, "n": 0}], "hex": "0100000001ac41959401adbb60996b338d69de5719001882a018c1b46892eea0b9082870e11e0000006b483045022100905d4470dcfd8771a4a9161d6c391a75db66774aaab4a51c6c6f4591730fa3f502202ff01fb4078a1fb3c678d4f3587b37dbe46b6b91d00f46474f423b38e767607d012102488571131a6a0218df50f99eab0767b25038d6985ef5b4eab349bec8917364d2ffffffff0110611300000000001976a9144a0f1e2f2b0d7daeec5265f10bbbbe08ed725e8988ac00000000", "vin": [{"sequence": 4294967295, "scriptSig": {"hex": "483045022100905d4470dcfd8771a4a9161d6c391a75db66774aaab4a51c6c6f4591730fa3f502202ff01fb4078a1fb3c678d4f3587b37dbe46b6b91d00f46474f423b38e767607d012102488571131a6a0218df50f99eab0767b25038d6985ef5b4eab349bec8917364d2", "asm": "3045022100905d4470dcfd8771a4a9161d6c391a75db66774aaab4a51c6c6f4591730fa3f502202ff01fb4078a1fb3c678d4f3587b37dbe46b6b91d00f46474f423b38e767607d[ALL] 02488571131a6a0218df50f99eab0767b25038d6985ef5b4eab349bec8917364d2"}, "vout": 30, "txid": "e1702808b9a0ee9268b4c118a08218001957de698d336b9960bbad01949541ac"}], "txid": "8c61df111c94ed7f853da504b4bcd8f0ff4b9a69d87ef1ccc3d6c58fa3c80ca1", "blocktime": 1537873282, "version": 1, "confirmations": 11482, "time": 1537873282, "locktime": 0, "vsize": 192, "size": 192}