{"hash": "8c669a24c5331c9921e70daf45da86063451d3886b18434c032b4c546caf27c6", "blockhash": "0000000000000000001f76057863aec43deb6fa401d9628bb513d65a8098bfab", "vout": [{"scriptPubKey": {"reqSigs": 1, "hex": "76a914abee7c0c82d35c3c6919b73abdce276c53b6907988ac", "addresses": ["1Gg6F14pcLBcLQFE7DpC38jv48Na4M7s6c"], "asm": "OP_DUP OP_HASH160 abee7c0c82d35c3c6919b73abdce276c53b69079 OP_EQUALVERIFY OP_CHECKSIG", "type": "pubkeyhash"}, "value": 0.004697, "n": 0}, {"scriptPubKey": {"reqSigs": 1, "hex": "76a9143a079a919cbdecb20d5636450abe532ec7e4953888ac", "addresses": ["16HqJSta22eerDoHuVvWb1mTx1Qfy2WGu6"], "asm": "OP_DUP OP_HASH160 3a079a919cbdecb20d5636450abe532ec7e49538 OP_EQUALVERIFY OP_CHECKSIG", "type": "pubkeyhash"}, "value": 0.45977838, "n": 1}], "hex": "010000000183b81af6267503e195de2bdc5e7f727607803b4892af177ce2a479373c518c07000000006a4730440220484bbd2a6039286130cdda26e0f4246235b7885af03dd85d76d38ba780a2011302202354a94e413a70d9851075afc9747bcf10172c67a33482c510a35f9516003b7d0121031637ed782aa0033c0373dc0b33584d2183f915b30b342522f8d3a88bffd392fffdffffff02c42a0700000000001976a914abee7c0c82d35c3c6919b73abdce276c53b6907988acee90bd02000000001976a9143a079a919cbdecb20d5636450abe532ec7e4953888ac14490800", "vin": [{"sequence": 4294967293, "scriptSig": {"hex": "4730440220484bbd2a6039286130cdda26e0f4246235b7885af03dd85d76d38ba780a2011302202354a94e413a70d9851075afc9747bcf10172c67a33482c510a35f9516003b7d0121031637ed782aa0033c0373dc0b33584d2183f915b30b342522f8d3a88bffd392ff", "asm": "30440220484bbd2a6039286130cdda26e0f4246235b7885af03dd85d76d38ba780a2011302202354a94e413a70d9851075afc9747bcf10172c67a33482c510a35f9516003b7d[ALL] 031637ed782aa0033c0373dc0b33584d2183f915b30b342522f8d3a88bffd392ff"}, "vout": 0, "txid": "078c513c3779a4e27c17af92483b800776727f5edc2bde95e1037526f61ab883"}], "txid": "8c669a24c5331c9921e70daf45da86063451d3886b18434c032b4c546caf27c6", "blocktime": 1537873891, "version": 1, "confirmations": 11477, "time": 1537873891, "locktime": 542996, "vsize": 225, "size": 225}