{"hash": "8c6b351db34854ec9a76e9d341f1c6f6e548734ac1dbff3174eb0d6ab729082d", "blockhash": "0000000000000000000e13cef7c366c0283d82e591d1acd082e914b08063cdf1", "vout": [{"scriptPubKey": {"reqSigs": 1, "hex": "76a914cf9c7d899cc7542607125dec559ac70ac687c73d88ac", "addresses": ["1KvkLrNQbyuJiJZJptfvtahsXN44GPeueS"], "asm": "OP_DUP OP_HASH160 cf9c7d899cc7542607125dec559ac70ac687c73d OP_EQUALVERIFY OP_CHECKSIG", "type": "pubkeyhash"}, "value": 0.03151705, "n": 0}, {"scriptPubKey": {"reqSigs": 1, "hex": "76a9149eeca5d9bd9a486e1bfc4a1c1b8d1d31f332025488ac", "addresses": ["1FVKFte6yVr9gkDiG8LhjhrGR8hY5xfyRH"], "asm": "OP_DUP OP_HASH160 9eeca5d9bd9a486e1bfc4a1c1b8d1d31f3320254 OP_EQUALVERIFY OP_CHECKSIG", "type": "pubkeyhash"}, "value": 0.00061848, "n": 1}], "hex": "01000000032203869d36ce1cae4e095bded8a34f926c9a614a3b892ffeac640fc989843674000000006a47304402205a72f8b50ae9915c19cf120044a3b054ff3607c3e054e6a5814932464ba640c9022040e46a19230318685357135ef8d2ecb20fae69cc951105f91dc1d9ece689333001210344eeaa3187f52d235484a6b433d69d6afcddae4efda8479db0a6df214db30ad1ffffffff37996eaa32dc212ed164ed268d90daf531196c73d484d45cce770b0179066248000000006a473044022069598c8310c45a3d3a33d657028a18a7cad908ff96bceefc0c2d8ba4f4ba6d06022019fc7f607e50af68f6e758c3a150889ae7144d65c9437f729b641a088196c35001210334cd2ba248184d2194b7eabcb88f3a232b4cf762781f964e0c960b6669aa53c7ffffffffa0b145c5a5c46fa0ff0f5682124c6a06d17bdf8e8ac1fd5438ad4d9550976f96000000006a473044022027de66c7d7dd3dac57681dbb594eec48a481cfa0a0ef767e24c26a2573d1834f022038f182430ef033db9a020cb3775e128b3afa128d48b6df2e31b84d9cd8e6ca430121023d763e493e3acc526c4810bf44e4cb77aa5e85f15748fd908c9f7808a751af06ffffffff0259173000000000001976a914cf9c7d899cc7542607125dec559ac70ac687c73d88ac98f10000000000001976a9149eeca5d9bd9a486e1bfc4a1c1b8d1d31f332025488ac00000000", "vin": [{"sequence": 4294967295, "scriptSig": {"hex": "47304402205a72f8b50ae9915c19cf120044a3b054ff3607c3e054e6a5814932464ba640c9022040e46a19230318685357135ef8d2ecb20fae69cc951105f91dc1d9ece689333001210344eeaa3187f52d235484a6b433d69d6afcddae4efda8479db0a6df214db30ad1", "asm": "304402205a72f8b50ae9915c19cf120044a3b054ff3607c3e054e6a5814932464ba640c9022040e46a19230318685357135ef8d2ecb20fae69cc951105f91dc1d9ece6893330[ALL] 0344eeaa3187f52d235484a6b433d69d6afcddae4efda8479db0a6df214db30ad1"}, "vout": 0, "txid": "74368489c90f64acfe2f893b4a619a6c924fa3d8de5b094eae1cce369d860322"}, {"sequence": 4294967295, "scriptSig": {"hex": "473044022069598c8310c45a3d3a33d657028a18a7cad908ff96bceefc0c2d8ba4f4ba6d06022019fc7f607e50af68f6e758c3a150889ae7144d65c9437f729b641a088196c35001210334cd2ba248184d2194b7eabcb88f3a232b4cf762781f964e0c960b6669aa53c7", "asm": "3044022069598c8310c45a3d3a33d657028a18a7cad908ff96bceefc0c2d8ba4f4ba6d06022019fc7f607e50af68f6e758c3a150889ae7144d65c9437f729b641a088196c350[ALL] 0334cd2ba248184d2194b7eabcb88f3a232b4cf762781f964e0c960b6669aa53c7"}, "vout": 0, "txid": "48620679010b77ce5cd484d4736c1931f5da908d26ed64d12e21dc32aa6e9937"}, {"sequence": 4294967295, "scriptSig": {"hex": "473044022027de66c7d7dd3dac57681dbb594eec48a481cfa0a0ef767e24c26a2573d1834f022038f182430ef033db9a020cb3775e128b3afa128d48b6df2e31b84d9cd8e6ca430121023d763e493e3acc526c4810bf44e4cb77aa5e85f15748fd908c9f7808a751af06", "asm": "3044022027de66c7d7dd3dac57681dbb594eec48a481cfa0a0ef767e24c26a2573d1834f022038f182430ef033db9a020cb3775e128b3afa128d48b6df2e31b84d9cd8e6ca43[ALL] 023d763e493e3acc526c4810bf44e4cb77aa5e85f15748fd908c9f7808a751af06"}, "vout": 0, "txid": "966f9750954dad3854fdc18a8edf7bd1066a4c1282560fffa06fc4a5c545b1a0"}], "txid": "8c6b351db34854ec9a76e9d341f1c6f6e548734ac1dbff3174eb0d6ab729082d", "blocktime": 1537871767, "version": 1, "confirmations": 11491, "time": 1537871767, "locktime": 0, "vsize": 519, "size": 519}