{"hash": "8c75682d00d93a5166ab01354d763ace017da013fc4045991f85bf8e966c86d3", "blockhash": "0000000000000000000e13cef7c366c0283d82e591d1acd082e914b08063cdf1", "vout": [{"scriptPubKey": {"reqSigs": 1, "hex": "76a91400ebb6cb41fbc39025b729dd273f8883701e270188ac", "addresses": ["115sNhWv47xdFkUGWqFp4fjnv9X4a3iYAV"], "asm": "OP_DUP OP_HASH160 00ebb6cb41fbc39025b729dd273f8883701e2701 OP_EQUALVERIFY OP_CHECKSIG", "type": "pubkeyhash"}, "value": 0.00147658, "n": 0}, {"scriptPubKey": {"reqSigs": 1, "hex": "76a9147d3ed64e6df07dfa0c8415319cd4d32766aa25e188ac", "addresses": ["1CREjyooe3csVXCQxtoQbZFpe2PLFcQ4ag"], "asm": "OP_DUP OP_HASH160 7d3ed64e6df07dfa0c8415319cd4d32766aa25e1 OP_EQUALVERIFY OP_CHECKSIG", "type": "pubkeyhash"}, "value": 0.03500001, "n": 1}], "hex": "0100000002fa2bbdc60484a3cc74ce61f322d31c269630d09e72f28fb7fd245a00da9db3a3010000006a47304402203036f3c75c013d90ca24ea668378d2182a6a78d1f4a0550622ab18f658a1a9cc0220435eee5e176ac728f0de1589428f5c5c9fcc5a93e584cd16fdbee900679e738301210266a45ea74365143a15221ebef691acd8c91040ec0796f341c38cc587c84a5839ffffffff9ae4a11c9dcf796b7f5ed0beb6156fbe56439362e33917258852e67ffd4a24fe000000006a47304402204926c2377b2c61ab159aca9b2b979011c520b2edf16c9455d20b16fd82952de702206c90ef59de5795c2c7e697f58859142dcd819e09b0902178b3458c05fed8d5370121037dd3b959e7b01c6c697626bab54f8308517a49977b83f276c5a386f26437e925ffffffff02ca400200000000001976a91400ebb6cb41fbc39025b729dd273f8883701e270188ace1673500000000001976a9147d3ed64e6df07dfa0c8415319cd4d32766aa25e188ac00000000", "vin": [{"sequence": 4294967295, "scriptSig": {"hex": "47304402203036f3c75c013d90ca24ea668378d2182a6a78d1f4a0550622ab18f658a1a9cc0220435eee5e176ac728f0de1589428f5c5c9fcc5a93e584cd16fdbee900679e738301210266a45ea74365143a15221ebef691acd8c91040ec0796f341c38cc587c84a5839", "asm": "304402203036f3c75c013d90ca24ea668378d2182a6a78d1f4a0550622ab18f658a1a9cc0220435eee5e176ac728f0de1589428f5c5c9fcc5a93e584cd16fdbee900679e7383[ALL] 0266a45ea74365143a15221ebef691acd8c91040ec0796f341c38cc587c84a5839"}, "vout": 1, "txid": "a3b39dda005a24fdb78ff2729ed03096261cd322f361ce74cca38404c6bd2bfa"}, {"sequence": 4294967295, "scriptSig": {"hex": "47304402204926c2377b2c61ab159aca9b2b979011c520b2edf16c9455d20b16fd82952de702206c90ef59de5795c2c7e697f58859142dcd819e09b0902178b3458c05fed8d5370121037dd3b959e7b01c6c697626bab54f8308517a49977b83f276c5a386f26437e925", "asm": "304402204926c2377b2c61ab159aca9b2b979011c520b2edf16c9455d20b16fd82952de702206c90ef59de5795c2c7e697f58859142dcd819e09b0902178b3458c05fed8d537[ALL] 037dd3b959e7b01c6c697626bab54f8308517a49977b83f276c5a386f26437e925"}, "vout": 0, "txid": "fe244afd7fe65288251739e362934356be6f15b6bed05e7f6b79cf9d1ca1e49a"}], "txid": "8c75682d00d93a5166ab01354d763ace017da013fc4045991f85bf8e966c86d3", "blocktime": 1537871767, "version": 1, "confirmations": 11495, "time": 1537871767, "locktime": 0, "vsize": 372, "size": 372}