{"hash": "c82276bd55701139d3d70e0c89a75ff2e0dd5a031c6881babaee182e6dbe57ba", "blockhash": "000000000000000000022b45ed06c6f4ccd3cf7fb5ba4856ebd2e58215665228", "vout": [{"scriptPubKey": {"reqSigs": 1, "hex": "a914477b67139bafa2c5697c56656c8010ad24bbfdd087", "addresses": ["38CyjL5ERmMjHcichooj8hYK12M5oiPqf4"], "asm": "OP_HASH160 477b67139bafa2c5697c56656c8010ad24bbfdd0 OP_EQUAL", "type": "scripthash"}, "value": 0.00468389, "n": 0}, {"scriptPubKey": {"reqSigs": 1, "hex": "a9143121e85b6695f30a179ffb7c4f3d57c7b538cb4e87", "addresses": ["36AoetT9En43pzfQbLWbJGNh8qRgKpLGxF"], "asm": "OP_HASH160 3121e85b6695f30a179ffb7c4f3d57c7b538cb4e OP_EQUAL", "type": "scripthash"}, "value": 0.01601628, "n": 1}], "hex": "0200000000010194b51783d086ea446050dab8e8683dcc6019613534ced15434ba962491de58940200000017160014cd5d4f102b01556aba4bc3a0b558912cc7c6f597feffffff02a52507000000000017a914477b67139bafa2c5697c56656c8010ad24bbfdd0875c7018000000000017a9143121e85b6695f30a179ffb7c4f3d57c7b538cb4e8702483045022100ec0036e90e38e16f0ac73f0d56b11e83865a8e713ac63a1580741ae640e667e702200a50a3e8ea7d937a29de8898ac1cd2c6b0de7f5bbd60d17456c6adbea4cec433012103416f93c04df37086cc7c51794a3ccf8c90216edfb5e2c9337073bc3b8d80ecf20b490800", "vin": [{"txinwitness": ["3045022100ec0036e90e38e16f0ac73f0d56b11e83865a8e713ac63a1580741ae640e667e702200a50a3e8ea7d937a29de8898ac1cd2c6b0de7f5bbd60d17456c6adbea4cec43301", "03416f93c04df37086cc7c51794a3ccf8c90216edfb5e2c9337073bc3b8d80ecf2"], "sequence": 4294967294, "scriptSig": {"hex": "160014cd5d4f102b01556aba4bc3a0b558912cc7c6f597", "asm": "0014cd5d4f102b01556aba4bc3a0b558912cc7c6f597"}, "vout": 2, "txid": "9458de912496ba3454d1ce3435611960cc3d68e8b8da506044ea86d08317b594"}], "txid": "8c7a10c7921316d6826f8ee46bdf81f37007b06880b5f60cffd8f6c724969916", "blocktime": 1537869901, "version": 2, "confirmations": 11522, "time": 1537869901, "locktime": 542987, "vsize": 166, "size": 248}