{"hash": "33a16832edf7b4496aba892e5ca4601605c713805f7423d0ee97a4c2e61b2845", "blockhash": "0000000000000000000e13cef7c366c0283d82e591d1acd082e914b08063cdf1", "vout": [{"scriptPubKey": {"reqSigs": 1, "hex": "76a914923314275e5a629c982e12ea2874f8e59f8f5faa88ac", "addresses": ["1EL2r28136vouMfbc5uY2UK4KANrQphm37"], "asm": "OP_DUP OP_HASH160 923314275e5a629c982e12ea2874f8e59f8f5faa OP_EQUALVERIFY OP_CHECKSIG", "type": "pubkeyhash"}, "value": 0.00565999, "n": 0}, {"scriptPubKey": {"reqSigs": 1, "hex": "a914ea645e5e20987adfaa9d5fa4a915d008965f102387", "addresses": ["3P4NHAbib3uvj6QNYmPWqEJMZnx4HzszTp"], "asm": "OP_HASH160 ea645e5e20987adfaa9d5fa4a915d008965f1023 OP_EQUAL", "type": "scripthash"}, "value": 0.01640125, "n": 1}], "hex": "020000000001027d1d9ca5159021b46007586b20e2e7edc1d72b5ad30ed303e9c294bff8da8d0f1200000017160014264fed0775f0b3c1df28df5451d51991e87671cafffffffff82d7c3d9475eb1ee7b32dc16c967240fa4f8f89f004959c2d6de81ac2c80691100000001716001450ff2eb293012dddbe16d31db63c9f25ba6fa559ffffffff02efa20800000000001976a914923314275e5a629c982e12ea2874f8e59f8f5faa88acbd0619000000000017a914ea645e5e20987adfaa9d5fa4a915d008965f10238702473044022054742f068131cd78b00773cfef411463bb9e11719f8d4ce6a54b08eefd9a51f50220235e38770af4f60790b76e0b6c981ae01478969d4eccf7a832d2477acaaaf05f012103d665dbb9ca50d7cb04e3dd07bc75e2f9595a108be7a91150691e88af8a54a33a0248304502210094fdafaee30562551e2a1fd69f312f2cc192797dfd7325a068a4fb0a42698f6d02201a4843beabacbfc8693dcd79bf05c6d54512486dfe6bf18539c1e6dfaea0d9710121032be8c1997b09d96dfd39a3f168b1a5b935f34e35aef34233aa24326683512c6700000000", "vin": [{"txinwitness": ["3044022054742f068131cd78b00773cfef411463bb9e11719f8d4ce6a54b08eefd9a51f50220235e38770af4f60790b76e0b6c981ae01478969d4eccf7a832d2477acaaaf05f01", "03d665dbb9ca50d7cb04e3dd07bc75e2f9595a108be7a91150691e88af8a54a33a"], "sequence": 4294967295, "scriptSig": {"hex": "160014264fed0775f0b3c1df28df5451d51991e87671ca", "asm": "0014264fed0775f0b3c1df28df5451d51991e87671ca"}, "vout": 18, "txid": "0f8ddaf8bf94c2e903d30ed35a2bd7c1ede7e2206b580760b4219015a59c1d7d"}, {"txinwitness": ["304502210094fdafaee30562551e2a1fd69f312f2cc192797dfd7325a068a4fb0a42698f6d02201a4843beabacbfc8693dcd79bf05c6d54512486dfe6bf18539c1e6dfaea0d97101", "032be8c1997b09d96dfd39a3f168b1a5b935f34e35aef34233aa24326683512c67"], "sequence": 4294967295, "scriptSig": {"hex": "16001450ff2eb293012dddbe16d31db63c9f25ba6fa559", "asm": "001450ff2eb293012dddbe16d31db63c9f25ba6fa559"}, "vout": 16, "txid": "9106c8c21ae86d2d9c9504f0898f4ffa4072966cc12db3e71eeb75943d7c2df8"}], "txid": "8c899f788f1dbc81c1916b18ae1ca6c0037148b7b84ac5c1a9bf0e602d2bafa9", "blocktime": 1537871767, "version": 2, "confirmations": 11491, "time": 1537871767, "locktime": 0, "vsize": 259, "size": 421}