{"hash": "8c9225a4495bc89afd604cbda54b7ff8397402925bdab10cb9d947cf6938d53a", "blockhash": "0000000000000000000e13cef7c366c0283d82e591d1acd082e914b08063cdf1", "vout": [{"scriptPubKey": {"reqSigs": 1, "hex": "76a914b9f8bb9ef6442f52b6499bda43c74e59c9a1ad1f88ac", "addresses": ["1HxKykgSUsnDmukTH6Gk47oeDmqkESTDot"], "asm": "OP_DUP OP_HASH160 b9f8bb9ef6442f52b6499bda43c74e59c9a1ad1f OP_EQUALVERIFY OP_CHECKSIG", "type": "pubkeyhash"}, "value": 0.01262467, "n": 0}], "hex": "01000000011c1029c1cef3d8a3ce61329577e887a01821d862e1e7f1ff0ab504e37e3592fc010000006b48304502210096f83cf6923f6fbeb922e038b810f4c2d5d11f73d200029d518899db91a8e4f002207f9a63869bfffc5a1374aacd2276c4a86084fb1f550081a8c270e5bf44716bd201210268bc3732b1aaf5a224c39079054f26c7382d5bffef11a8c7bacca52da58d795afdffffff0183431300000000001976a914b9f8bb9ef6442f52b6499bda43c74e59c9a1ad1f88ac0f490800", "vin": [{"sequence": 4294967293, "scriptSig": {"hex": "48304502210096f83cf6923f6fbeb922e038b810f4c2d5d11f73d200029d518899db91a8e4f002207f9a63869bfffc5a1374aacd2276c4a86084fb1f550081a8c270e5bf44716bd201210268bc3732b1aaf5a224c39079054f26c7382d5bffef11a8c7bacca52da58d795a", "asm": "304502210096f83cf6923f6fbeb922e038b810f4c2d5d11f73d200029d518899db91a8e4f002207f9a63869bfffc5a1374aacd2276c4a86084fb1f550081a8c270e5bf44716bd2[ALL] 0268bc3732b1aaf5a224c39079054f26c7382d5bffef11a8c7bacca52da58d795a"}, "vout": 1, "txid": "fc92357ee304b50afff1e7e162d82118a087e877953261cea3d8f3cec129101c"}], "txid": "8c9225a4495bc89afd604cbda54b7ff8397402925bdab10cb9d947cf6938d53a", "blocktime": 1537871767, "version": 1, "confirmations": 11493, "time": 1537871767, "locktime": 542991, "vsize": 192, "size": 192}