{"hash": "d3eacc17ada63b46cfb3c6c67343a128c3d9b6446cbe6d847a9d457f96c2ef4d", "blockhash": "000000000000000000022b45ed06c6f4ccd3cf7fb5ba4856ebd2e58215665228", "vout": [{"scriptPubKey": {"reqSigs": 1, "hex": "76a91443987943bb8b5f61de300fa7114d567cefae3e1d88ac", "addresses": ["17AQvuoMChjqxFEU2RcQUn9gwiKR2XnmTL"], "asm": "OP_DUP OP_HASH160 43987943bb8b5f61de300fa7114d567cefae3e1d OP_EQUALVERIFY OP_CHECKSIG", "type": "pubkeyhash"}, "value": 0.00838882, "n": 0}, {"scriptPubKey": {"reqSigs": 1, "hex": "a914e98697bd99627c30672c3e86d936a0767ff42fc087", "addresses": ["3NynbubDgpk6Qi4E3DoASHWV4QGMHh2Zah"], "asm": "OP_HASH160 e98697bd99627c30672c3e86d936a0767ff42fc0 OP_EQUAL", "type": "scripthash"}, "value": 5.76894766, "n": 1}], "hex": "02000000000101ab2008ee6bc399f2a6b822fbd7c3b004cbe6eff70939a169e176ab672d26bb8f000000001716001436e420fb8fb357b384fa7495a839d5e412165664feffffff02e2cc0c00000000001976a91443987943bb8b5f61de300fa7114d567cefae3e1d88ac2eb762220000000017a914e98697bd99627c30672c3e86d936a0767ff42fc08702483045022100c72bbcd0174b92d9fe34eed32e8a579cd9365fbdac61c08b3ca3813a057cee450220671e28e626bf3728eb1c1c914b7ecf47ab4fedd169eaa30d4ddbcf5206a30f6b0121030e7f7f1bee66cf1b8e0d058ef62702b74ae9ab00d974584aaf74a68bf699c0110b490800", "vin": [{"txinwitness": ["3045022100c72bbcd0174b92d9fe34eed32e8a579cd9365fbdac61c08b3ca3813a057cee450220671e28e626bf3728eb1c1c914b7ecf47ab4fedd169eaa30d4ddbcf5206a30f6b01", "030e7f7f1bee66cf1b8e0d058ef62702b74ae9ab00d974584aaf74a68bf699c011"], "sequence": 4294967294, "scriptSig": {"hex": "16001436e420fb8fb357b384fa7495a839d5e412165664", "asm": "001436e420fb8fb357b384fa7495a839d5e412165664"}, "vout": 0, "txid": "8fbb262d67ab76e169a13909f7efe6cb04b0c3d7fb22b8a6f299c36bee0820ab"}], "txid": "8c9420a9b327b37175ad2950b42b31c1d47e36acf7a0b192208c0a604adf3f65", "blocktime": 1537869901, "version": 2, "confirmations": 11524, "time": 1537869901, "locktime": 542987, "vsize": 168, "size": 250}