{"hash": "0fea4dcd73535c9db0485281a395676d04f5d1eef56557356e33b26efc3e70ba", "blockhash": "00000000000000000018f53835495a110e01622372bf6ae95dc86f2b0ab887b0", "vout": [{"scriptPubKey": {"reqSigs": 1, "hex": "a9144201f3a0b5f0abafefb6bb802e0fc8aceca0f7ea87", "addresses": ["37i2ross4Mv4QFXtihv49A8csYDarVgU6H"], "asm": "OP_HASH160 4201f3a0b5f0abafefb6bb802e0fc8aceca0f7ea OP_EQUAL", "type": "scripthash"}, "value": 0.00118947, "n": 0}, {"scriptPubKey": {"reqSigs": 1, "hex": "00148c719deaaa44f3b73e9cd0c8cbc19a6e1273fa77", "addresses": ["bc1q33cem642gnemw05u6ryvhsv6dcf887nh7vc9km"], "asm": "0 8c719deaaa44f3b73e9cd0c8cbc19a6e1273fa77", "type": "witness_v0_keyhash"}, "value": 1.272e-05, "n": 1}], "hex": "0100000000010131510b8ac0f9b9df7b593dc1000bcbb7c5dcd2300ceb3644a65b977ca5aad7270000000017160014d7a870c9941ffd4fc47ca8ddd30e178d27142949ffffffff02a3d001000000000017a9144201f3a0b5f0abafefb6bb802e0fc8aceca0f7ea87f8040000000000001600148c719deaaa44f3b73e9cd0c8cbc19a6e1273fa7702473044022012165c9036e2241b74bd0c62b358d495140485bc3c929f50443e6bbcf69a64e80220442fa30f942cd34b6e0297141d97a004bc0f8e16d5562f08efcacdadc697ea2f0121024f7a46ab66e70b976703923b537875d228901c2d3326d011ce3e709cf750a64d00000000", "vin": [{"txinwitness": ["3044022012165c9036e2241b74bd0c62b358d495140485bc3c929f50443e6bbcf69a64e80220442fa30f942cd34b6e0297141d97a004bc0f8e16d5562f08efcacdadc697ea2f01", "024f7a46ab66e70b976703923b537875d228901c2d3326d011ce3e709cf750a64d"], "sequence": 4294967295, "scriptSig": {"hex": "160014d7a870c9941ffd4fc47ca8ddd30e178d27142949", "asm": "0014d7a870c9941ffd4fc47ca8ddd30e178d27142949"}, "vout": 0, "txid": "27d7aaa57c975ba64436eb0c30d2dcc5b7cb0b00c13d597bdfb9f9c08a0b5131"}], "txid": "8c96ad326a642a85fadccbf06f7af6b991663d2527fad3750bd1334137b87be8", "blocktime": 1537870928, "version": 1, "confirmations": 11512, "time": 1537870928, "locktime": 0, "vsize": 165, "size": 246}