{"hash": "8ca1c2e86cd488264a2de14768ae3b0c863abf7fb23bbf7135fab8b6664d3005", "blockhash": "0000000000000000000baef3f32e3676a92c3b2e5da21b426e4f302fc371ce76", "vout": [{"scriptPubKey": {"reqSigs": 1, "hex": "76a9145ee1099062fa0aeeda500b6bc627b028dc38016588ac", "addresses": ["19eg6uK1quThtrSRPENqQQUPot5GJA3K2X"], "asm": "OP_DUP OP_HASH160 5ee1099062fa0aeeda500b6bc627b028dc380165 OP_EQUALVERIFY OP_CHECKSIG", "type": "pubkeyhash"}, "value": 5.46e-06, "n": 0}, {"scriptPubKey": {"reqSigs": 1, "hex": "76a9140a6b825daa1b89f8e100ed8eec6d79b592500f4988ac", "addresses": ["1x6YnuBVeeE65dQRZztRWgUPwyBjHCA5g"], "asm": "OP_DUP OP_HASH160 0a6b825daa1b89f8e100ed8eec6d79b592500f49 OP_EQUALVERIFY OP_CHECKSIG", "type": "pubkeyhash"}, "value": 0.44186884, "n": 1}, {"scriptPubKey": {"type": "nulldata", "hex": "6a146f6d6e69000000000000001f00000145f680b000", "asm": "OP_RETURN 6f6d6e69000000000000001f00000145f680b000"}, "value": 0.0, "n": 2}], "hex": "010000000180a1b9bd45551056f7f272727b121c1a130afb814a583807931336c0f0580cd9000000006b483045022100adce68c5f1415be1c5abccb49673843e6a48fc3313a7954a9d8c458a9ed4124b0220143aaa853919b919247a73a3bef43dc9c101fd2491dfed085a5881beacbdc3f5012103fe02b06a6bfd9b5a83e0417430a3235a39a0b4c7973591ca27ac58f6474d9120ffffffff0322020000000000001976a9145ee1099062fa0aeeda500b6bc627b028dc38016588ac043da202000000001976a9140a6b825daa1b89f8e100ed8eec6d79b592500f4988ac0000000000000000166a146f6d6e69000000000000001f00000145f680b00000000000", "vin": [{"sequence": 4294967295, "scriptSig": {"hex": "483045022100adce68c5f1415be1c5abccb49673843e6a48fc3313a7954a9d8c458a9ed4124b0220143aaa853919b919247a73a3bef43dc9c101fd2491dfed085a5881beacbdc3f5012103fe02b06a6bfd9b5a83e0417430a3235a39a0b4c7973591ca27ac58f6474d9120", "asm": "3045022100adce68c5f1415be1c5abccb49673843e6a48fc3313a7954a9d8c458a9ed4124b0220143aaa853919b919247a73a3bef43dc9c101fd2491dfed085a5881beacbdc3f5[ALL] 03fe02b06a6bfd9b5a83e0417430a3235a39a0b4c7973591ca27ac58f6474d9120"}, "vout": 0, "txid": "d90c58f0c03613930738584a81fb0a131a1c127b7272f2f756105545bdb9a180"}], "txid": "8ca1c2e86cd488264a2de14768ae3b0c863abf7fb23bbf7135fab8b6664d3005", "blocktime": 1537876114, "version": 1, "confirmations": 11459, "time": 1537876114, "locktime": 0, "vsize": 257, "size": 257}