{"hash": "8ca56d7c93fae7db1a6d17ee9441a165e319de679098440ae9353c0165317b5b", "blockhash": "0000000000000000001e0dab787dd257d1dbfcb92a98c2207d5e1078be1f4165", "vout": [{"scriptPubKey": {"reqSigs": 1, "hex": "76a914c28d830d92357873baac03c2e21eb49efff7df6e88ac", "addresses": ["1JjhcdtnDaAeY34P4k8C1WEYEebdzqUwS5"], "asm": "OP_DUP OP_HASH160 c28d830d92357873baac03c2e21eb49efff7df6e OP_EQUALVERIFY OP_CHECKSIG", "type": "pubkeyhash"}, "value": 0.00025876, "n": 0}], "hex": "0100000004fdebffa23ce76ccd799f8111e3d9619929bc053de07054bea0c7e9a3616452a7320100006b483045022100e67babd8d594b459dde0a1e26b77fda7012f42dbd7291263175a1b9635d57ac1022060476a9d69024eac8bec04d11a3eadb52ca59c68e9c5ec0e0669c52dbcbe4261012103f7721a178806236514c80895f641461ee7386caa1218301226b6a41b95448a84ffffffffb475dcf22607700acdb245bd2741c15c3eff8cc6c4e2050d0ce59ad629d2eec4cb0100006a47304402207cac031c8e437bab44aeb450afc449dbc424d395b3863ddf5628cbdeab67a384022014a115b0827847bbf69642be88b2d9c19d029adfbc99e46b5857cf290825f1e8012103f7721a178806236514c80895f641461ee7386caa1218301226b6a41b95448a84ffffffff1f75dc2f6e7f27fdd9424a375bdcd65a634292e8106e80fa7e15ee9a04572dcc6b0500006a47304402201f796c426ef755224bb1685cb7fd44bca03aacd59db7ed7babe428bc50d378ee02202be577c4d8bfb763f6923a5d726dca6cab65932a1ffe95a9a133d76f3e710b8f012103f7721a178806236514c80895f641461ee7386caa1218301226b6a41b95448a84ffffffffb2fab9c11e1bdd858ed017f29794c31dd89d5114ed19cec77dff6d833024b3fea50400006a47304402207b0dfa170dbb3c514c8d223b986c2d73e259f4c1cf4a716ad5e102e19a8656b602206b1fb5d394dd4bcd59108947cc2ad72d145934674ee3f6cc0e4bfb81f1673b6a012103f7721a178806236514c80895f641461ee7386caa1218301226b6a41b95448a84ffffffff0114650000000000001976a914c28d830d92357873baac03c2e21eb49efff7df6e88ac00000000", "vin": [{"sequence": 4294967295, "scriptSig": {"hex": "483045022100e67babd8d594b459dde0a1e26b77fda7012f42dbd7291263175a1b9635d57ac1022060476a9d69024eac8bec04d11a3eadb52ca59c68e9c5ec0e0669c52dbcbe4261012103f7721a178806236514c80895f641461ee7386caa1218301226b6a41b95448a84", "asm": "3045022100e67babd8d594b459dde0a1e26b77fda7012f42dbd7291263175a1b9635d57ac1022060476a9d69024eac8bec04d11a3eadb52ca59c68e9c5ec0e0669c52dbcbe4261[ALL] 03f7721a178806236514c80895f641461ee7386caa1218301226b6a41b95448a84"}, "vout": 306, "txid": "a7526461a3e9c7a0be5470e03d05bc299961d9e311819f79cd6ce73ca2ffebfd"}, {"sequence": 4294967295, "scriptSig": {"hex": "47304402207cac031c8e437bab44aeb450afc449dbc424d395b3863ddf5628cbdeab67a384022014a115b0827847bbf69642be88b2d9c19d029adfbc99e46b5857cf290825f1e8012103f7721a178806236514c80895f641461ee7386caa1218301226b6a41b95448a84", "asm": "304402207cac031c8e437bab44aeb450afc449dbc424d395b3863ddf5628cbdeab67a384022014a115b0827847bbf69642be88b2d9c19d029adfbc99e46b5857cf290825f1e8[ALL] 03f7721a178806236514c80895f641461ee7386caa1218301226b6a41b95448a84"}, "vout": 459, "txid": "c4eed229d69ae50c0d05e2c4c68cff3e5cc14127bd45b2cd0a700726f2dc75b4"}, {"sequence": 4294967295, "scriptSig": {"hex": "47304402201f796c426ef755224bb1685cb7fd44bca03aacd59db7ed7babe428bc50d378ee02202be577c4d8bfb763f6923a5d726dca6cab65932a1ffe95a9a133d76f3e710b8f012103f7721a178806236514c80895f641461ee7386caa1218301226b6a41b95448a84", "asm": "304402201f796c426ef755224bb1685cb7fd44bca03aacd59db7ed7babe428bc50d378ee02202be577c4d8bfb763f6923a5d726dca6cab65932a1ffe95a9a133d76f3e710b8f[ALL] 03f7721a178806236514c80895f641461ee7386caa1218301226b6a41b95448a84"}, "vout": 1387, "txid": "cc2d57049aee157efa806e10e89242635ad6dc5b374a42d9fd277f6e2fdc751f"}, {"sequence": 4294967295, "scriptSig": {"hex": "47304402207b0dfa170dbb3c514c8d223b986c2d73e259f4c1cf4a716ad5e102e19a8656b602206b1fb5d394dd4bcd59108947cc2ad72d145934674ee3f6cc0e4bfb81f1673b6a012103f7721a178806236514c80895f641461ee7386caa1218301226b6a41b95448a84", "asm": "304402207b0dfa170dbb3c514c8d223b986c2d73e259f4c1cf4a716ad5e102e19a8656b602206b1fb5d394dd4bcd59108947cc2ad72d145934674ee3f6cc0e4bfb81f1673b6a[ALL] 03f7721a178806236514c80895f641461ee7386caa1218301226b6a41b95448a84"}, "vout": 1189, "txid": "feb32430836dff7dc7ce19ed14519dd81dc39497f217d08e85dd1b1ec1b9fab2"}], "txid": "8ca56d7c93fae7db1a6d17ee9441a165e319de679098440ae9353c0165317b5b", "blocktime": 1537872475, "version": 1, "confirmations": 11487, "time": 1537872475, "locktime": 0, "vsize": 633, "size": 633}