{"hash": "8caaf23ae49285bd22c7dfe87dead85066b5cd7cedffb29a224d73f7ae48ba49", "blockhash": "00000000000000000004ffacab907a6b429b9a5745fa0b75af4234bf69dd7176", "vout": [{"scriptPubKey": {"reqSigs": 1, "hex": "a91469f37612767d01f3fe512a76ae436952f961fc6987", "addresses": ["3BMEXfhTg7XWosnfd66QSj9DQ5G1h3ntGq"], "asm": "OP_HASH160 69f37612767d01f3fe512a76ae436952f961fc69 OP_EQUAL", "type": "scripthash"}, "value": 0.1171649, "n": 0}], "hex": "0100000001fa958b85e50110e6602c175ed6a0ac12d1e0610b1fd7d61a683cde811fd9361e000000006b483045022100d0085117aa53e78dfb5c59a1eb7548a70429437dc3aea3c203321b0e4465724702202f7799a636eea2074133f226ebeb5116dd12156749ce223e4318c671f440fa0c01210370d6f3f3b9de9e561aaccd24440137bae9446aff33ee00931ebec24217cc8d3effffffff018ac7b2000000000017a91469f37612767d01f3fe512a76ae436952f961fc698700000000", "vin": [{"sequence": 4294967295, "scriptSig": {"hex": "483045022100d0085117aa53e78dfb5c59a1eb7548a70429437dc3aea3c203321b0e4465724702202f7799a636eea2074133f226ebeb5116dd12156749ce223e4318c671f440fa0c01210370d6f3f3b9de9e561aaccd24440137bae9446aff33ee00931ebec24217cc8d3e", "asm": "3045022100d0085117aa53e78dfb5c59a1eb7548a70429437dc3aea3c203321b0e4465724702202f7799a636eea2074133f226ebeb5116dd12156749ce223e4318c671f440fa0c[ALL] 0370d6f3f3b9de9e561aaccd24440137bae9446aff33ee00931ebec24217cc8d3e"}, "vout": 0, "txid": "1e36d91f81de3c681ad6d71f0b61e0d112aca0d65e172c60e61001e5858b95fa"}], "txid": "8caaf23ae49285bd22c7dfe87dead85066b5cd7cedffb29a224d73f7ae48ba49", "blocktime": 1537875543, "version": 1, "confirmations": 11464, "time": 1537875543, "locktime": 0, "vsize": 190, "size": 190}