{"hash": "8cb050ae1e099eaf580ed5fd7a6d238e40b8b7ca90498fbe9d4fa5405ca97f82", "blockhash": "00000000000000000024a2167bbff67b0be802c0b01cdd79e6331c2be6459f87", "vout": [{"scriptPubKey": {"reqSigs": 1, "hex": "76a914d04d7a5692e303b1ba8c6e37e6600690cd43819c88ac", "addresses": ["1KzQNAC2CYE6pgLfXFTZTwLmxhYrNVyhbx"], "asm": "OP_DUP OP_HASH160 d04d7a5692e303b1ba8c6e37e6600690cd43819c OP_EQUALVERIFY OP_CHECKSIG", "type": "pubkeyhash"}, "value": 0.00645756, "n": 0}, {"scriptPubKey": {"type": "nulldata", "hex": "6a4c500000777c0001b5e35f1de28bd9246c8a4ea5bcbefa6b8351586b4e86aeaeacb577c031fc188e23a49bea01f4b5f926be4d26c66a5baa0a0d0614ac97a78d2db71d100759d4ba30d2c37bb011d97e02cf", "asm": "OP_RETURN 0000777c0001b5e35f1de28bd9246c8a4ea5bcbefa6b8351586b4e86aeaeacb577c031fc188e23a49bea01f4b5f926be4d26c66a5baa0a0d0614ac97a78d2db71d100759d4ba30d2c37bb011d97e02cf"}, "value": 0.0, "n": 1}], "hex": "010000000146ef3fe20b807341bcec13fc9e8021848fe68f1ea65c7b461a6fc77eac0e3669010000006b4830450221008cc92b339197c1c15bd6cca5dc2cd5e8c887ae15129185096062dcf7aac86f26022059585b99e16bed182071110abd5bbd11038a2075c19e882ce6bb0cdd76b4bbb3012103c51a4ff637a184c7ef96656c6b8a2f4f8fedcd1c20ca7af8323f0d31d067788effffffff027cda0900000000001976a914d04d7a5692e303b1ba8c6e37e6600690cd43819c88ac0000000000000000536a4c500000777c0001b5e35f1de28bd9246c8a4ea5bcbefa6b8351586b4e86aeaeacb577c031fc188e23a49bea01f4b5f926be4d26c66a5baa0a0d0614ac97a78d2db71d100759d4ba30d2c37bb011d97e02cf00000000", "vin": [{"sequence": 4294967295, "scriptSig": {"hex": "4830450221008cc92b339197c1c15bd6cca5dc2cd5e8c887ae15129185096062dcf7aac86f26022059585b99e16bed182071110abd5bbd11038a2075c19e882ce6bb0cdd76b4bbb3012103c51a4ff637a184c7ef96656c6b8a2f4f8fedcd1c20ca7af8323f0d31d067788e", "asm": "30450221008cc92b339197c1c15bd6cca5dc2cd5e8c887ae15129185096062dcf7aac86f26022059585b99e16bed182071110abd5bbd11038a2075c19e882ce6bb0cdd76b4bbb3[ALL] 03c51a4ff637a184c7ef96656c6b8a2f4f8fedcd1c20ca7af8323f0d31d067788e"}, "vout": 1, "txid": "69360eac7ec76f1a467b5ca61e8fe68f8421809efc13ecbc4173800be23fef46"}], "txid": "8cb050ae1e099eaf580ed5fd7a6d238e40b8b7ca90498fbe9d4fa5405ca97f82", "blocktime": 1537870564, "version": 1, "confirmations": 11515, "time": 1537870564, "locktime": 0, "vsize": 284, "size": 284}