{"hash": "2aade48d34495bf52b768538f800fc2e1552dab27ac66038fb73672c059a1680", "blockhash": "0000000000000000001cda96e906b7601b7a6fb1a3b62bca570a9e5d8f4b3de1", "vout": [{"scriptPubKey": {"reqSigs": 1, "hex": "76a9149a1b8f9b1fa2d2297863adb1cb11c71df455684888ac", "addresses": ["1F3r5We2zwNiSzG6GQUTTWnnPMCz2HJbJu"], "asm": "OP_DUP OP_HASH160 9a1b8f9b1fa2d2297863adb1cb11c71df4556848 OP_EQUALVERIFY OP_CHECKSIG", "type": "pubkeyhash"}, "value": 2.705e-05, "n": 0}, {"scriptPubKey": {"reqSigs": 1, "hex": "a914e8db75c900cf08f06518e96d167331f2a4abfb3387", "addresses": ["3NvFbQMAkkqEFj4i1sYPPLkSWzxTFUchjA"], "asm": "OP_HASH160 e8db75c900cf08f06518e96d167331f2a4abfb33 OP_EQUAL", "type": "scripthash"}, "value": 4.963e-05, "n": 1}], "hex": "01000000000101aa099ceed9b6d774f7a0eb237cdf8abc1381fb598c51bd3a377dc8bcb3b9e4640100000023220020941cfaff8837763dc1f69ff82b6d6553fdea17a41cfc29a04403293eedd8ccc7ffffffff02910a0000000000001976a9149a1b8f9b1fa2d2297863adb1cb11c71df455684888ac631300000000000017a914e8db75c900cf08f06518e96d167331f2a4abfb33870400483045022100b02fe743aed059a4a611be5fd04e3a392927206e906af3252d159e64b17d6b7f02201393b6959b6f7ebbe10606c6884657b7e405aa90d439d9638163d2ec994fc27501483045022100d4decc9bc0a9854341aef963c83571277bb5f09c903c3bd260aadb4feccfcc9402206cb98dfae63e5d5228b87c0964621a11c30000aeaf0567cb02924c77aeb950180147522102531db3a5883f29bab4241dd0cd726936667bcda445d89bdd22244e828b6993342103148c80a5bdfddb05ff5bcffc397c8ca748d8b435ec6a175bc9d7bfc7fc6f853752ae00000000", "vin": [{"txinwitness": ["", "3045022100b02fe743aed059a4a611be5fd04e3a392927206e906af3252d159e64b17d6b7f02201393b6959b6f7ebbe10606c6884657b7e405aa90d439d9638163d2ec994fc27501", "3045022100d4decc9bc0a9854341aef963c83571277bb5f09c903c3bd260aadb4feccfcc9402206cb98dfae63e5d5228b87c0964621a11c30000aeaf0567cb02924c77aeb9501801", "522102531db3a5883f29bab4241dd0cd726936667bcda445d89bdd22244e828b6993342103148c80a5bdfddb05ff5bcffc397c8ca748d8b435ec6a175bc9d7bfc7fc6f853752ae"], "sequence": 4294967295, "scriptSig": {"hex": "220020941cfaff8837763dc1f69ff82b6d6553fdea17a41cfc29a04403293eedd8ccc7", "asm": "0020941cfaff8837763dc1f69ff82b6d6553fdea17a41cfc29a04403293eedd8ccc7"}, "vout": 1, "txid": "64e4b9b3bcc87d373abd518c59fb8113bc8adf7c23eba0f774d7b6d9ee9c09aa"}], "txid": "8cb25c1ac3435231d095cb9252c882241bf07d95b1669ea799b24730ae3a0deb", "blocktime": 1537873282, "version": 1, "confirmations": 11485, "time": 1537873282, "locktime": 0, "vsize": 208, "size": 374}