{"hash": "8cb5a8c8fe8a95373d327150de1eb88d966bd0851ee9c8c52a0bcced0dbca97e", "blockhash": "0000000000000000000baef3f32e3676a92c3b2e5da21b426e4f302fc371ce76", "vout": [{"scriptPubKey": {"reqSigs": 1, "hex": "76a914a13138172b74dbf74507ee2e9ca44526cf3bbb0388ac", "addresses": ["1FhJkguKCcsoduJvgeCg5HHr3yjp9iKdJ3"], "asm": "OP_DUP OP_HASH160 a13138172b74dbf74507ee2e9ca44526cf3bbb03 OP_EQUALVERIFY OP_CHECKSIG", "type": "pubkeyhash"}, "value": 0.0018, "n": 0}, {"scriptPubKey": {"reqSigs": 1, "hex": "76a914298514adf301d8b9b31bd34cba25b841461084c388ac", "addresses": ["14nY8Uph2qoGzh5xsYntRDqfgJn5eAoB6g"], "asm": "OP_DUP OP_HASH160 298514adf301d8b9b31bd34cba25b841461084c3 OP_EQUALVERIFY OP_CHECKSIG", "type": "pubkeyhash"}, "value": 0.00475658, "n": 1}], "hex": "0100000001092884be4c72e8d022455f5cdd80a08766efbea148323f25c515c9cf5759464b010000006b483045022100bf4ab26ebfef2782d38ae6be5408b07028c4577f4a4325dc8236368628dda5f5022070ed9fcfb6742a6dcb55f2f41d1f7f6876c7ce5a1b4e0c15d83c234da156f254012102b1c2332c98cd4e22fab8c28c4bd814768c01822013c4f05185dd14a58f1eada0ffffffff0220bf0200000000001976a914a13138172b74dbf74507ee2e9ca44526cf3bbb0388ac0a420700000000001976a914298514adf301d8b9b31bd34cba25b841461084c388ac00000000", "vin": [{"sequence": 4294967295, "scriptSig": {"hex": "483045022100bf4ab26ebfef2782d38ae6be5408b07028c4577f4a4325dc8236368628dda5f5022070ed9fcfb6742a6dcb55f2f41d1f7f6876c7ce5a1b4e0c15d83c234da156f254012102b1c2332c98cd4e22fab8c28c4bd814768c01822013c4f05185dd14a58f1eada0", "asm": "3045022100bf4ab26ebfef2782d38ae6be5408b07028c4577f4a4325dc8236368628dda5f5022070ed9fcfb6742a6dcb55f2f41d1f7f6876c7ce5a1b4e0c15d83c234da156f254[ALL] 02b1c2332c98cd4e22fab8c28c4bd814768c01822013c4f05185dd14a58f1eada0"}, "vout": 1, "txid": "4b465957cfc915c5253f3248a1beef6687a080dd5c5f4522d0e8724cbe842809"}], "txid": "8cb5a8c8fe8a95373d327150de1eb88d966bd0851ee9c8c52a0bcced0dbca97e", "blocktime": 1537876114, "version": 1, "confirmations": 11460, "time": 1537876114, "locktime": 0, "vsize": 226, "size": 226}