{"hash": "8cbad90276b66cd7203da4748f96bbf35d436a272609713e468e90e80db508a3", "blockhash": "0000000000000000001cda96e906b7601b7a6fb1a3b62bca570a9e5d8f4b3de1", "vout": [{"scriptPubKey": {"reqSigs": 1, "hex": "76a91426ae41a13905454c12319b32a609e94632a351d988ac", "addresses": ["14XXRqP55W2CiQZ9RCcZAd1cuG5kvMx73K"], "asm": "OP_DUP OP_HASH160 26ae41a13905454c12319b32a609e94632a351d9 OP_EQUALVERIFY OP_CHECKSIG", "type": "pubkeyhash"}, "value": 0.002209, "n": 0}, {"scriptPubKey": {"reqSigs": 1, "hex": "76a9141b2a5ad62c29becce733bbd66d7bbe92692f244f88ac", "addresses": ["13Udz3bAGbBQBNgGwbJQH4aRTjGbjzesmh"], "asm": "OP_DUP OP_HASH160 1b2a5ad62c29becce733bbd66d7bbe92692f244f OP_EQUALVERIFY OP_CHECKSIG", "type": "pubkeyhash"}, "value": 0.234011, "n": 1}], "hex": "01000000014125521c732e7aa2aee8ad56c94d84d6da1a504a01b94728a866f3e06d6c6888010000006a4730440220144dbd100514fdab8dcb07ed3002b439fcdaf2ca5cfa061db9e28738ded205cb022074f37ccfafe994658459a742e855fdde25a578b89a9ca2b0f103e13ff95168890121022893574765733e494919d94c90c8462c261a2ede0148dac2933700dd36656379feffffff02e45e0300000000001976a91426ae41a13905454c12319b32a609e94632a351d988ac8c126501000000001976a9141b2a5ad62c29becce733bbd66d7bbe92692f244f88ac13490800", "vin": [{"sequence": 4294967294, "scriptSig": {"hex": "4730440220144dbd100514fdab8dcb07ed3002b439fcdaf2ca5cfa061db9e28738ded205cb022074f37ccfafe994658459a742e855fdde25a578b89a9ca2b0f103e13ff95168890121022893574765733e494919d94c90c8462c261a2ede0148dac2933700dd36656379", "asm": "30440220144dbd100514fdab8dcb07ed3002b439fcdaf2ca5cfa061db9e28738ded205cb022074f37ccfafe994658459a742e855fdde25a578b89a9ca2b0f103e13ff9516889[ALL] 022893574765733e494919d94c90c8462c261a2ede0148dac2933700dd36656379"}, "vout": 1, "txid": "88686c6de0f366a82847b9014a501adad6844dc956ade8aea27a2e731c522541"}], "txid": "8cbad90276b66cd7203da4748f96bbf35d436a272609713e468e90e80db508a3", "blocktime": 1537873282, "version": 1, "confirmations": 11480, "time": 1537873282, "locktime": 542995, "vsize": 225, "size": 225}