{"hash": "8cbda12edd41e6d838b7747562c7f8100d9f63a0020c646e32a2b70453ffc04c", "blockhash": "00000000000000000017f5eb5941039fbcee6240d03bc1f2f8e35350df66a1d8", "vout": [{"scriptPubKey": {"reqSigs": 1, "hex": "76a91410599b19cc18e2ecc990852f8eb1398092c2614b88ac", "addresses": ["12VT9zdz8syezUmDp1SkTwjecVyMNMuUCH"], "asm": "OP_DUP OP_HASH160 10599b19cc18e2ecc990852f8eb1398092c2614b OP_EQUALVERIFY OP_CHECKSIG", "type": "pubkeyhash"}, "value": 0.0287774, "n": 0}], "hex": "0100000001fb8409241c3ce3c17c01b5c1f804d60adc50e227be7195c073e6822b656cc85e050000006b4830450221008153e3f84f6e3c4231f3a647f65d9844a4dac6cdc3a59ef23035f8781deda2d502205748e388d7be903cd5cd3685143fda98e9d441935c86359f4b7da069ec4cd1e70121022e9c0fb17d771a65019a727e1815f5918ab359bbe2e478c15ff27a88edec225dffffffff012ce92b00000000001976a91410599b19cc18e2ecc990852f8eb1398092c2614b88ac00000000", "vin": [{"sequence": 4294967295, "scriptSig": {"hex": "4830450221008153e3f84f6e3c4231f3a647f65d9844a4dac6cdc3a59ef23035f8781deda2d502205748e388d7be903cd5cd3685143fda98e9d441935c86359f4b7da069ec4cd1e70121022e9c0fb17d771a65019a727e1815f5918ab359bbe2e478c15ff27a88edec225d", "asm": "30450221008153e3f84f6e3c4231f3a647f65d9844a4dac6cdc3a59ef23035f8781deda2d502205748e388d7be903cd5cd3685143fda98e9d441935c86359f4b7da069ec4cd1e7[ALL] 022e9c0fb17d771a65019a727e1815f5918ab359bbe2e478c15ff27a88edec225d"}, "vout": 5, "txid": "5ec86c652b82e673c09571be27e250dc0ad604f8c1b5017cc1e33c1c240984fb"}], "txid": "8cbda12edd41e6d838b7747562c7f8100d9f63a0020c646e32a2b70453ffc04c", "blocktime": 1537874412, "version": 1, "confirmations": 11467, "time": 1537874412, "locktime": 0, "vsize": 192, "size": 192}