{"hash": "a00539403560cb72ad55ce173f67de4010c8a334413ee3f97d94fbca21ba1c2d", "blockhash": "0000000000000000000e13cef7c366c0283d82e591d1acd082e914b08063cdf1", "vout": [{"scriptPubKey": {"reqSigs": 1, "hex": "76a914658bc2e4001cfacc64a3e041943e921b3086737588ac", "addresses": ["1AFvgAG4FN8fhtp3ZtSF8hsmKvPTDiB4RV"], "asm": "OP_DUP OP_HASH160 658bc2e4001cfacc64a3e041943e921b30867375 OP_EQUALVERIFY OP_CHECKSIG", "type": "pubkeyhash"}, "value": 3.269e-05, "n": 0}, {"scriptPubKey": {"reqSigs": 1, "hex": "a914e8db75c900cf08f06518e96d167331f2a4abfb3387", "addresses": ["3NvFbQMAkkqEFj4i1sYPPLkSWzxTFUchjA"], "asm": "OP_HASH160 e8db75c900cf08f06518e96d167331f2a4abfb33 OP_EQUAL", "type": "scripthash"}, "value": 0.00045681, "n": 1}], "hex": "0100000000010145363a9fcf14158683a21beb3dcc5a664422edd0fbad6b90dbd582fa063f5c7e0000000023220020941cfaff8837763dc1f69ff82b6d6553fdea17a41cfc29a04403293eedd8ccc7ffffffff02c50c0000000000001976a914658bc2e4001cfacc64a3e041943e921b3086737588ac71b200000000000017a914e8db75c900cf08f06518e96d167331f2a4abfb33870400483045022100a5851ace5693723c93da2efef549893e6c6c2f03977955881b19164e3ef530f7022068b052f7294029f3cc9d5539a945d1e19286c60fd50182d685ffea4f9b1b17a901473044022077e5828e86b6ef3b024920fd9f52f97e1c16cf714a7e9c88acf1e4cf4d85f4a20220198aab8f5c18d37725058217294ecf777f7fe5c9ec0fbbb196aa93b59b99b0ba0147522102531db3a5883f29bab4241dd0cd726936667bcda445d89bdd22244e828b6993342103148c80a5bdfddb05ff5bcffc397c8ca748d8b435ec6a175bc9d7bfc7fc6f853752ae00000000", "vin": [{"txinwitness": ["", "3045022100a5851ace5693723c93da2efef549893e6c6c2f03977955881b19164e3ef530f7022068b052f7294029f3cc9d5539a945d1e19286c60fd50182d685ffea4f9b1b17a901", "3044022077e5828e86b6ef3b024920fd9f52f97e1c16cf714a7e9c88acf1e4cf4d85f4a20220198aab8f5c18d37725058217294ecf777f7fe5c9ec0fbbb196aa93b59b99b0ba01", "522102531db3a5883f29bab4241dd0cd726936667bcda445d89bdd22244e828b6993342103148c80a5bdfddb05ff5bcffc397c8ca748d8b435ec6a175bc9d7bfc7fc6f853752ae"], "sequence": 4294967295, "scriptSig": {"hex": "220020941cfaff8837763dc1f69ff82b6d6553fdea17a41cfc29a04403293eedd8ccc7", "asm": "0020941cfaff8837763dc1f69ff82b6d6553fdea17a41cfc29a04403293eedd8ccc7"}, "vout": 0, "txid": "7e5c3f06fa82d5db906badfbd0ed2244665acc3deb1ba283861514cf9f3a3645"}], "txid": "8cbfbf4fbbcd37ef67af90034e82f535c9eb732f49e9dbb9c790b48ed3fb7399", "blocktime": 1537871767, "version": 1, "confirmations": 11495, "time": 1537871767, "locktime": 0, "vsize": 208, "size": 373}