{"hash": "2ab74229015c9d8a2331dace6fbea6afaba39939a5ac199971eef9c67d16535e", "blockhash": "0000000000000000000e13cef7c366c0283d82e591d1acd082e914b08063cdf1", "vout": [{"scriptPubKey": {"reqSigs": 1, "hex": "a914497e17a162a3b6c5cf4e8a8077ab272b014cc01c87", "addresses": ["38PcJbRqeN7a4pq58UJic9vuZFZCKhhsoK"], "asm": "OP_HASH160 497e17a162a3b6c5cf4e8a8077ab272b014cc01c OP_EQUAL", "type": "scripthash"}, "value": 0.00043949, "n": 0}, {"scriptPubKey": {"reqSigs": 1, "hex": "a91455774c7ad9f032f7d6a07720280f596c7438efe487", "addresses": ["39UvGsWuVuW1yzMTdjyoFpzWr8CsTBSJ4t"], "asm": "OP_HASH160 55774c7ad9f032f7d6a07720280f596c7438efe4 OP_EQUAL", "type": "scripthash"}, "value": 0.21843815, "n": 1}, {"scriptPubKey": {"reqSigs": 1, "hex": "76a91480c1ac9afd701d4174601484c5a8f27b88993a3088ac", "addresses": ["1CjoWH2odAN65v7CaNS67k3QhMemDfHyk6"], "asm": "OP_DUP OP_HASH160 80c1ac9afd701d4174601484c5a8f27b88993a30 OP_EQUALVERIFY OP_CHECKSIG", "type": "pubkeyhash"}, "value": 0.1757963, "n": 2}], "hex": "01000000000102d180318fa0439dbd8823ff4f5d78f1b30815f536734bb1cabeb0b995bbaaeb6501000000232200206b7380c6164c04749caf1d681104adf0adf9decdf6f4153351ff5ecff79c3a6effffffffbda541124c7db229f347b6b020e418445d94008f31d666951a64ade309d94e6b010000002322002027c75c4d01333f5aa445d6231396615ea46dfa9023bd732ef8fd9f0802b4e7c5ffffffff03adab00000000000017a914497e17a162a3b6c5cf4e8a8077ab272b014cc01c87674f4d010000000017a91455774c7ad9f032f7d6a07720280f596c7438efe4876e3e0c01000000001976a91480c1ac9afd701d4174601484c5a8f27b88993a3088ac0400473044022021ddeeb12c2ff126968f1b00fc01e7de188f45e2a3753ccbe899121a7ef94e0a02207bbdf42c84e1a12023b8b54f7a87b5252260a2982ef5773d1fc5b398ff7f741e01483045022100863a8335e4e6a8d60a3bf4f7fa4e2404b37618063b71530128bdef75f1f2e165022077b4b200e31f5615ed78707c64fd6d8feb187b399779d77ce7211a29c148ff300169522103b8a27d57ebc4dc3228b696800654930f345a1f44e620c94e46f42c991e28370d21033084e2760d876758938960fb4ef2764f03a3126f17c580894c8edd81381c50d82103a7d00f18dc4936fb1f6120f6c5143304371ca2df9a65563eee31b3ac24a97f2053ae0400483045022100f01059f0c44386c0955453c56d6284fa42654d4989fe66553e6a2b4563a8c6ab02203c493782f3b18fcac0e9c3b56bfb92c44a13fabb6ad556c5aa3c9ac3de62aab301483045022100878f3aab57696b031e63bb48b48a5b7952f509ea57ca11d97aed058d23ff990e022047adbc6eb157debac0e01c1b11d406b5b0ce4a60b76cc0701cb5c14bf6866e360169522102cf390595ffa19ee96e06b46ad74d553330c7022922e4c4388b8246518776b6f62102ed421d45165cd2e0a5865de98c26963d253464aa60fff658449eeac014c20a932103eb673969bbf314ab528d35baca6fdb8e7b379d8a7155e11183de1487e889161453ae00000000", "vin": [{"txinwitness": ["", "3044022021ddeeb12c2ff126968f1b00fc01e7de188f45e2a3753ccbe899121a7ef94e0a02207bbdf42c84e1a12023b8b54f7a87b5252260a2982ef5773d1fc5b398ff7f741e01", "3045022100863a8335e4e6a8d60a3bf4f7fa4e2404b37618063b71530128bdef75f1f2e165022077b4b200e31f5615ed78707c64fd6d8feb187b399779d77ce7211a29c148ff3001", "522103b8a27d57ebc4dc3228b696800654930f345a1f44e620c94e46f42c991e28370d21033084e2760d876758938960fb4ef2764f03a3126f17c580894c8edd81381c50d82103a7d00f18dc4936fb1f6120f6c5143304371ca2df9a65563eee31b3ac24a97f2053ae"], "sequence": 4294967295, "scriptSig": {"hex": "2200206b7380c6164c04749caf1d681104adf0adf9decdf6f4153351ff5ecff79c3a6e", "asm": "00206b7380c6164c04749caf1d681104adf0adf9decdf6f4153351ff5ecff79c3a6e"}, "vout": 1, "txid": "65ebaabb95b9b0becab14b7336f51508b3f1785d4fff2388bd9d43a08f3180d1"}, {"txinwitness": ["", "3045022100f01059f0c44386c0955453c56d6284fa42654d4989fe66553e6a2b4563a8c6ab02203c493782f3b18fcac0e9c3b56bfb92c44a13fabb6ad556c5aa3c9ac3de62aab301", "3045022100878f3aab57696b031e63bb48b48a5b7952f509ea57ca11d97aed058d23ff990e022047adbc6eb157debac0e01c1b11d406b5b0ce4a60b76cc0701cb5c14bf6866e3601", "522102cf390595ffa19ee96e06b46ad74d553330c7022922e4c4388b8246518776b6f62102ed421d45165cd2e0a5865de98c26963d253464aa60fff658449eeac014c20a932103eb673969bbf314ab528d35baca6fdb8e7b379d8a7155e11183de1487e889161453ae"], "sequence": 4294967295, "scriptSig": {"hex": "22002027c75c4d01333f5aa445d6231396615ea46dfa9023bd732ef8fd9f0802b4e7c5", "asm": "002027c75c4d01333f5aa445d6231396615ea46dfa9023bd732ef8fd9f0802b4e7c5"}, "vout": 1, "txid": "6b4ed909e3ad641a9566d6318f00945d4418e420b0b647f329b27d4c1241a5bd"}], "txid": "8cc8452b2c8d9fd188d745ab37c2fdaed07a013b8eec4721ee683a16f4150c59", "blocktime": 1537871767, "version": 1, "confirmations": 11495, "time": 1537871767, "locktime": 0, "vsize": 388, "size": 769}