{"hash": "b8c19c5902c9f31261b3badd84d11eaf08d778a3af5c70bb2037afba9582350d", "blockhash": "0000000000000000000dcc0f55137456b1a82d3642486a52398922ac4d620174", "vout": [{"scriptPubKey": {"reqSigs": 1, "hex": "76a914658bc2e4001cfacc64a3e041943e921b3086737588ac", "addresses": ["1AFvgAG4FN8fhtp3ZtSF8hsmKvPTDiB4RV"], "asm": "OP_DUP OP_HASH160 658bc2e4001cfacc64a3e041943e921b30867375 OP_EQUALVERIFY OP_CHECKSIG", "type": "pubkeyhash"}, "value": 3.429e-05, "n": 0}, {"scriptPubKey": {"reqSigs": 1, "hex": "a914e8db75c900cf08f06518e96d167331f2a4abfb3387", "addresses": ["3NvFbQMAkkqEFj4i1sYPPLkSWzxTFUchjA"], "asm": "OP_HASH160 e8db75c900cf08f06518e96d167331f2a4abfb33 OP_EQUAL", "type": "scripthash"}, "value": 0.00045521, "n": 1}], "hex": "010000000001015b6cfbc001b4d4d9179471286ae73ba6d3e6896e8a6fb9e04dc8e2c3a571f0d10000000023220020941cfaff8837763dc1f69ff82b6d6553fdea17a41cfc29a04403293eedd8ccc7ffffffff02650d0000000000001976a914658bc2e4001cfacc64a3e041943e921b3086737588acd1b100000000000017a914e8db75c900cf08f06518e96d167331f2a4abfb33870400473044022030ed2e4f19d9a29d5d400918162ae74bf4444dc685ded8cffd631a85c6d0996002205e24e86faa0746bae11fc0c5c2a6be8ae0215523f307f0eb06dd13db022c6647014730440220262c423d1dfe6248d67449eeff7407a13f0f0e21c4578d0f25c20f31b3861c5602205f7582a27e09558528bf3ca0344aae86530ced5c5ce40dd5cd83c40f449555290147522102531db3a5883f29bab4241dd0cd726936667bcda445d89bdd22244e828b6993342103148c80a5bdfddb05ff5bcffc397c8ca748d8b435ec6a175bc9d7bfc7fc6f853752ae00000000", "vin": [{"txinwitness": ["", "3044022030ed2e4f19d9a29d5d400918162ae74bf4444dc685ded8cffd631a85c6d0996002205e24e86faa0746bae11fc0c5c2a6be8ae0215523f307f0eb06dd13db022c664701", "30440220262c423d1dfe6248d67449eeff7407a13f0f0e21c4578d0f25c20f31b3861c5602205f7582a27e09558528bf3ca0344aae86530ced5c5ce40dd5cd83c40f4495552901", "522102531db3a5883f29bab4241dd0cd726936667bcda445d89bdd22244e828b6993342103148c80a5bdfddb05ff5bcffc397c8ca748d8b435ec6a175bc9d7bfc7fc6f853752ae"], "sequence": 4294967295, "scriptSig": {"hex": "220020941cfaff8837763dc1f69ff82b6d6553fdea17a41cfc29a04403293eedd8ccc7", "asm": "0020941cfaff8837763dc1f69ff82b6d6553fdea17a41cfc29a04403293eedd8ccc7"}, "vout": 0, "txid": "d1f071a5c3e2c84de0b96f8a6e89e6d3a63be76a28719417d9d4b401c0fb6c5b"}], "txid": "8ccae11595d1d34c08a74af7f4d92c428f23b59798e0d7117a1381852fe776b5", "blocktime": 1537870268, "version": 1, "confirmations": 11518, "time": 1537870268, "locktime": 0, "vsize": 207, "size": 372}