{"hash": "8ccb3505aee1ccf6654f76825ff5e34da4c071bcab4a153658aa744f5f252878", "blockhash": "0000000000000000000baef3f32e3676a92c3b2e5da21b426e4f302fc371ce76", "vout": [{"scriptPubKey": {"reqSigs": 1, "hex": "76a914924366aeadc01cc517ffd061536dc28fd9987b7c88ac", "addresses": ["1ELNQ7qrQNSbHFCh7Zf1dSzkVxcX5EgsUS"], "asm": "OP_DUP OP_HASH160 924366aeadc01cc517ffd061536dc28fd9987b7c OP_EQUALVERIFY OP_CHECKSIG", "type": "pubkeyhash"}, "value": 0.00631654, "n": 0}, {"scriptPubKey": {"type": "nulldata", "hex": "6a4c50000078080001990d277908cce9c0333419ac702940d64fa54d8eb2d19ed074892d00f8e85f129d8a3a213c51dc8285590798f4745baa1ade0613b2d236377c001d100759d4ba30d2c37bb011d97e02cf", "asm": "OP_RETURN 000078080001990d277908cce9c0333419ac702940d64fa54d8eb2d19ed074892d00f8e85f129d8a3a213c51dc8285590798f4745baa1ade0613b2d236377c001d100759d4ba30d2c37bb011d97e02cf"}, "value": 0.0, "n": 1}], "hex": "01000000013f77ec3b18742aa764f7474b29c212105752c2678708c141e9defdf1f6779c6d010000006b483045022100bd470271dbc327add09fb9f3f5c72ed15d36a8e3e208597d0d290e07333771be02207cfa18d336dd936ba58aa1d83de207a97486b6a61178c77c52a1abe776acd728012102744a7fecf7eaf7deccd9fe21c8b4a9bd761029aff489573393a68a95ef7b8330ffffffff0266a30900000000001976a914924366aeadc01cc517ffd061536dc28fd9987b7c88ac0000000000000000536a4c50000078080001990d277908cce9c0333419ac702940d64fa54d8eb2d19ed074892d00f8e85f129d8a3a213c51dc8285590798f4745baa1ade0613b2d236377c001d100759d4ba30d2c37bb011d97e02cf00000000", "vin": [{"sequence": 4294967295, "scriptSig": {"hex": "483045022100bd470271dbc327add09fb9f3f5c72ed15d36a8e3e208597d0d290e07333771be02207cfa18d336dd936ba58aa1d83de207a97486b6a61178c77c52a1abe776acd728012102744a7fecf7eaf7deccd9fe21c8b4a9bd761029aff489573393a68a95ef7b8330", "asm": "3045022100bd470271dbc327add09fb9f3f5c72ed15d36a8e3e208597d0d290e07333771be02207cfa18d336dd936ba58aa1d83de207a97486b6a61178c77c52a1abe776acd728[ALL] 02744a7fecf7eaf7deccd9fe21c8b4a9bd761029aff489573393a68a95ef7b8330"}, "vout": 1, "txid": "6d9c77f6f1fddee941c1088767c252571012c2294b47f764a72a74183bec773f"}], "txid": "8ccb3505aee1ccf6654f76825ff5e34da4c071bcab4a153658aa744f5f252878", "blocktime": 1537876114, "version": 1, "confirmations": 11460, "time": 1537876114, "locktime": 0, "vsize": 284, "size": 284}