{"hash": "8cce533c32ddff3b1edd60ac542e4467af93d6217fe3bf92b0e800a96082e511", "blockhash": "0000000000000000001e0dab787dd257d1dbfcb92a98c2207d5e1078be1f4165", "vout": [{"scriptPubKey": {"reqSigs": 1, "hex": "a914e01e2ffecd50a4423204614daa074589929cda1d87", "addresses": ["3N83Syc6xQiKEQvF8eDEcsfQY7ZpXmfSoK"], "asm": "OP_HASH160 e01e2ffecd50a4423204614daa074589929cda1d OP_EQUAL", "type": "scripthash"}, "value": 0.00014994, "n": 0}, {"scriptPubKey": {"reqSigs": 1, "hex": "76a9145f356e0a4828cd2386d7772d749d9f58bd62720288ac", "addresses": ["19gRCbV6qYuq53WU5aXZJTsekvL6d2x8sd"], "asm": "OP_DUP OP_HASH160 5f356e0a4828cd2386d7772d749d9f58bd627202 OP_EQUALVERIFY OP_CHECKSIG", "type": "pubkeyhash"}, "value": 0.00063171, "n": 1}], "hex": "0100000001372e706fd72358d6b2690467a1701734678afd68000895eb77490e933efc3ed0030000006b4830450221008f690620b4fd5a94b3fc9dc6f098b3f5ae28b2d1222a5434d7eb0fd62820532a022024c079364043e01bb2e879293c764f2e110a72c3a4dab5a4ce145e02c539e455012103b09857a4dd82029f70720605c10fa56878cc2b858b2752c27138f52e4148d2bcffffffff02923a00000000000017a914e01e2ffecd50a4423204614daa074589929cda1d87c3f60000000000001976a9145f356e0a4828cd2386d7772d749d9f58bd62720288ac00000000", "vin": [{"sequence": 4294967295, "scriptSig": {"hex": "4830450221008f690620b4fd5a94b3fc9dc6f098b3f5ae28b2d1222a5434d7eb0fd62820532a022024c079364043e01bb2e879293c764f2e110a72c3a4dab5a4ce145e02c539e455012103b09857a4dd82029f70720605c10fa56878cc2b858b2752c27138f52e4148d2bc", "asm": "30450221008f690620b4fd5a94b3fc9dc6f098b3f5ae28b2d1222a5434d7eb0fd62820532a022024c079364043e01bb2e879293c764f2e110a72c3a4dab5a4ce145e02c539e455[ALL] 03b09857a4dd82029f70720605c10fa56878cc2b858b2752c27138f52e4148d2bc"}, "vout": 3, "txid": "d03efc3e930e4977eb95080068fd8a67341770a1670469b2d65823d76f702e37"}], "txid": "8cce533c32ddff3b1edd60ac542e4467af93d6217fe3bf92b0e800a96082e511", "blocktime": 1537872475, "version": 1, "confirmations": 11486, "time": 1537872475, "locktime": 0, "vsize": 224, "size": 224}