{"hash": "8cd0c708f095f4375cce967c15e6da93732c9ed89f4d55afa3b8b9fcba0c9f2e", "blockhash": "0000000000000000000dcc0f55137456b1a82d3642486a52398922ac4d620174", "vout": [{"scriptPubKey": {"reqSigs": 1, "hex": "76a91415b22c6c72d62628c992b8bdefc59f22d59fe46388ac", "addresses": ["12yidk4AWmF3FHXtGWbFps4SAw5CeCYeWm"], "asm": "OP_DUP OP_HASH160 15b22c6c72d62628c992b8bdefc59f22d59fe463 OP_EQUALVERIFY OP_CHECKSIG", "type": "pubkeyhash"}, "value": 0.00474775, "n": 0}, {"scriptPubKey": {"reqSigs": 1, "hex": "a91469f3767204ad59befccb2dd6cdfaecc861d072bb87", "addresses": ["3BMEXmaG3KEg3BDoCga53NnciGVSaHp69Y"], "asm": "OP_HASH160 69f3767204ad59befccb2dd6cdfaecc861d072bb OP_EQUAL", "type": "scripthash"}, "value": 0.1, "n": 1}], "hex": "010000000236e9ba531c8ee3e2ab6e851eb40571c9d911ec3bea4952d30b7079e78a28df2e000000006b48304502210091d8b9ba8c1f955bc9f1c2d463760691ee91373380481ef380aebe7aa875b07c0220120169282733d4802b9ff626c864db26ec423d2b0c7b652480a5f7028b6a06cb0121029b5c5dff9a9e40f75b08c971bc4efb56f4b7005a1f157328231c750a2f95706dffffffff1a31160f1a6e041c6a79d12c066dd3b5dd9ae895a75d5d87c8c420c327f3cd41000000006a473044022071e459ea90970545ddab6d1035ef60188f47ca2696b55ec9e38fe99558b728ab02205b50a2e05c269d44d84a848c1319e1f3d49d90702781ba60d9b512693093cefc012103b17aa45ffa4be54ee5e642d168e03977ebae77113bd52beeb9b3f9849ba2ea35ffffffff02973e0700000000001976a91415b22c6c72d62628c992b8bdefc59f22d59fe46388ac809698000000000017a91469f3767204ad59befccb2dd6cdfaecc861d072bb8700000000", "vin": [{"sequence": 4294967295, "scriptSig": {"hex": "48304502210091d8b9ba8c1f955bc9f1c2d463760691ee91373380481ef380aebe7aa875b07c0220120169282733d4802b9ff626c864db26ec423d2b0c7b652480a5f7028b6a06cb0121029b5c5dff9a9e40f75b08c971bc4efb56f4b7005a1f157328231c750a2f95706d", "asm": "304502210091d8b9ba8c1f955bc9f1c2d463760691ee91373380481ef380aebe7aa875b07c0220120169282733d4802b9ff626c864db26ec423d2b0c7b652480a5f7028b6a06cb[ALL] 029b5c5dff9a9e40f75b08c971bc4efb56f4b7005a1f157328231c750a2f95706d"}, "vout": 0, "txid": "2edf288ae779700bd35249ea3bec11d9c97105b41e856eabe2e38e1c53bae936"}, {"sequence": 4294967295, "scriptSig": {"hex": "473044022071e459ea90970545ddab6d1035ef60188f47ca2696b55ec9e38fe99558b728ab02205b50a2e05c269d44d84a848c1319e1f3d49d90702781ba60d9b512693093cefc012103b17aa45ffa4be54ee5e642d168e03977ebae77113bd52beeb9b3f9849ba2ea35", "asm": "3044022071e459ea90970545ddab6d1035ef60188f47ca2696b55ec9e38fe99558b728ab02205b50a2e05c269d44d84a848c1319e1f3d49d90702781ba60d9b512693093cefc[ALL] 03b17aa45ffa4be54ee5e642d168e03977ebae77113bd52beeb9b3f9849ba2ea35"}, "vout": 0, "txid": "41cdf327c320c4c8875d5da795e89addb5d36d062cd1796a1c046e1a0f16311a"}], "txid": "8cd0c708f095f4375cce967c15e6da93732c9ed89f4d55afa3b8b9fcba0c9f2e", "blocktime": 1537870268, "version": 1, "confirmations": 11518, "time": 1537870268, "locktime": 0, "vsize": 371, "size": 371}