{"hash": "8cd13cf0b7c1d9157a7d876fc31fc3d715abffc43da12de0039d2090d46c4d3a", "blockhash": "0000000000000000000baef3f32e3676a92c3b2e5da21b426e4f302fc371ce76", "vout": [{"scriptPubKey": {"reqSigs": 1, "hex": "76a914b66ca6ef0fca89e1931c3adf9d1471b23d514d3d88ac", "addresses": ["1Hda9CA8jeShYhRE4VbXGz85R8U2fUzeTU"], "asm": "OP_DUP OP_HASH160 b66ca6ef0fca89e1931c3adf9d1471b23d514d3d OP_EQUALVERIFY OP_CHECKSIG", "type": "pubkeyhash"}, "value": 0.00380377, "n": 0}, {"scriptPubKey": {"reqSigs": 1, "hex": "76a91475902ad9f291d7b2ecebeb8b0853803f5fd3781f88ac", "addresses": ["1BicmNTKjUDFLr2eJurcrxeJ4PnvyJ9rC4"], "asm": "OP_DUP OP_HASH160 75902ad9f291d7b2ecebeb8b0853803f5fd3781f OP_EQUALVERIFY OP_CHECKSIG", "type": "pubkeyhash"}, "value": 0.00253462, "n": 1}, {"scriptPubKey": {"reqSigs": 1, "hex": "76a914781ec401493bfaf339f8f6315a133a6ad2815a3588ac", "addresses": ["1Bx8wewSWJT9e7rWwPy9QdQ8kPuDAEoYnD"], "asm": "OP_DUP OP_HASH160 781ec401493bfaf339f8f6315a133a6ad2815a35 OP_EQUALVERIFY OP_CHECKSIG", "type": "pubkeyhash"}, "value": 0.0947835, "n": 2}, {"scriptPubKey": {"reqSigs": 1, "hex": "76a91497ff688ceb32872d49ff3eed0847fa41806d242488ac", "addresses": ["1Erh145ogur1xkXuVcZ3hLn6NZZV2Yx5dT"], "asm": "OP_DUP OP_HASH160 97ff688ceb32872d49ff3eed0847fa41806d2424 OP_EQUALVERIFY OP_CHECKSIG", "type": "pubkeyhash"}, "value": 0.0361789, "n": 3}, {"scriptPubKey": {"reqSigs": 1, "hex": "76a9140db5a9b180ffd7717bc79b139224783eada4862e88ac", "addresses": ["12FVQekh9RApdYrTxPvV1YbSxkkY6n12KQ"], "asm": "OP_DUP OP_HASH160 0db5a9b180ffd7717bc79b139224783eada4862e OP_EQUALVERIFY OP_CHECKSIG", "type": "pubkeyhash"}, "value": 0.0069, "n": 4}, {"scriptPubKey": {"reqSigs": 1, "hex": "a91428b2a3cf363cc54ff6e73dab87bd87c9e01835e687", "addresses": ["35QCxLJ3jGu9C6VYQrsQiyYmV8PuBAMaWn"], "asm": "OP_HASH160 28b2a3cf363cc54ff6e73dab87bd87c9e01835e6 OP_EQUAL", "type": "scripthash"}, "value": 0.20399778, "n": 5}], "hex": "020000000e94987e7eabd0f877f4ec54e6eccb94cef32ed1d829cbb7372c39f16b4df6e1dc000000006a47304402205b3f8be1cf9b1ea79e04ba2319d8db5a9e186dc2a04023c6e1702046aeed768f022020eb9f0721b52bfdb9555884aecc13e3f6f7e75487f4b64048488bacf5f0b3500121025c984e6015364d90edfc055542c5b7b9f2f73007a874e5f7b65bd4f060b58017fffffffff72902d19d41518fbcd077bb9551685ac14983c9a9d42fc14662023f15e02e9b000000006b483045022100f24566ab50c02e1e5f61ccd779fe2173bb46da68c58e1f9a8cd893d092c442fc02205b151090f6b6db2f8b9ab563f6785751aa42c74ab95ee436107ad196a3351402012102f8633b2d18e04aff780acb41b149be6077529f8a7499637ff3df8624f6a4296bffffffff1180f5999fa3fea2b0c8657cb0c8578e563be7922bea814ca65140da982db8f0000000006b483045022100b264540718d82bef0483bdd82df668ae9312e7a97d036f13c96e2185304626b6022021bc7cb9f6d6aca5c43f99cbbf1a80eb23380c7568ff3a86a26126b79a1fd9a001210323b1c9a9f4cf1e20d3f4a301f5e8ab4192eed1d0dde1859b28e74bb21501f06bffffffff4536cc96733f8152c0f203b542155ed45d4725b36f73df65ea26e56b57af602d000000006a47304402206bec9b7f7e8557a656a0dc2d3c8a84cbb9103e10ba93a6da7fe8af26cb8157bf022050be990f99c0b1f8f278a7715eb481e0e64359cc0e73f6beb162e6709e0a9d66012102341f4505351fcda8828efce5f118152b6254309a5bd46c28b8146e16d05bd0b6ffffffff59f1da212009ff2d376a296e99361e3aff76f2e89f17fea0f5c3bb1398548ffe010000006b483045022100c55986f6a3272d9de0e08b7dcb096b7017ebacb44baa4d784f073f4b08cfdb3402204ab7c13a0874d556f4f90c3c65385302f60ffb531332ad7b59a45b05e2c468950121035dbdb7073d34434a3710b5b432b658de46071d0ed3d12338a7b2b99a490d1184ffffffffad4ef7ea8552ea6a547246b3b6f1195963c36837e39591dd0139ba2e263abc4b000000006a47304402201e6932dd3ce20151cb538035865721be609140f042beddaab60773e353ac3274022073f1fa4949a7847771d7549f5bf5d3d99911d413201f0e3aa3d320db1d96853e012103de4dd5b831860dd161a4b41a3b9ca4d6efc7c737e9c9de845700e87780471c0affffffff639fdee06e7488fd1de32f5f6d22abbf08f0fe17427027ce22a7535523470669000000006a4730440220765913b157f8ea10cd969224975e1e77d7e41311b20ace3e2229e6fecb87f84d022045d4d9d0403a569bef362f267361ed3ea632aa0e7c8363cd1e80ecb89bf6125f0121026ed3adfe76a8576b17556c23c923b32862fccfe1868c648e6ee79cf4aa55ebacffffffff2fb4b174ce201b93e1a5c7a3bbc478614f62bc3afe5a6c1a7e8f588fe83013fe020000006b483045022100eb83af9b48e0b704a60a09530db1e0fdf0c89ed962f8659eb14fda4353f7b4d3022065e80859d440e3b59f2a5f0def950b939ff891fafcc4ed6023c834369db4aab4012103108a8a037bc4a70c648fffd6000c117b29bd285f57ef2f839da29bbfe7b3ad10ffffffff8a3f670cca738690499c8ca754cdff18a0f8c92b28365af58febd1a901f6907c030000006a47304402205abd777f4d08f513fd0773a2a2eaa42bc15c6b94b675b62eb4cd455837fa4263022068e4595e2f0178e6331611925a6adce052e7a9086f45dd429dd7bf17b5cc6a710121032b4e0930d887b802bd94e2d6397f731cd717979aec35464ea1b1ae19b88f3da2ffffffff6438e773d3a98cfe7965443c2af359c39cb0a8836a416637af38cf1e1d0f59c41c000000fdfe0000483045022100c01c47264dab18dd34389f3fa5e3d61f8aeff1cd53f7b1943cb7f51412e51ac102206aa62bc083807e3eabeae158b22dbb0b1819d0f67531cbffb2447779c404423f01483045022100a25d5064fac0dfa4ee89633eb19ab481a8fa1a4ea8ba660dddbf6283072413660220574933eccdf84bf801a3a5e3297d73961ee2c97b87a3cdd097f42eb31ad405d3014c69522103e728abd7e10f84b4e551db1716b5d514899c1789d6739b254fc00a14f7f7a8a72103a877dc92f64399b2d4bd64fc6b7597ab82cdf2584364d2a2fc146cf745523ca021026a5dc8968a940b12f505aba21c7d2ec6daf7f6d6a4ecd2debacdde6fda0a10d553aeffffffff83c42f8d8577b0608fcc35913dedb77af6a45951d090c46625a76e0076ade3b6010000006a473044022050fdb0886ae834e3663aed7ff16f4be91ce4a35e88bdd6e1d5be90bbc5b35e0902200cdd55b25addc2ccfa9fdd4c3d4999f6f366d494e717f131467bd57fa0fab083012103bb0f4708fe2eb8f1b8743c70978bca9a7a4d5f46ef65a80010af2357d6727209ffffffffcd7a37bac2317d11b0481f64303fa33b59f5debd3cf7e5d6928bce83e2c51f0c060000006b483045022100ae5aea147b6ed503e21c42d1bb75a04c0cc482f0615bfe19eec5b2d5257eee050220124f15d5e7cebc8088408df46eacee2b3f53d4d8f47ef3d5afe97ea36aeb09990121023fdd60fa3600e58e83472d28515700473039dfc15b0eb77cb70c185aeab1cbf0ffffffff83c42f8d8577b0608fcc35913dedb77af6a45951d090c46625a76e0076ade3b6030000006a473044022006dbeab7fb8163b0a524eb51c56066afaa3c675194f7ce25bff4694764efff5002201d3b739d67cd5df4bb505b7342f47f0b52eb7c0635fc925ab004e3a511ed3a42012102a402b000eb4d6c7f30819b79b5079f02c036935109ade6d0618e66a6cdeb9d8affffffffba1c1a767771c572bba4527a9c9107f25e8b824385f21ecb57aacb7dd6bdc673050000006a473044022011687e6807979510704d94700f335e0ec3f8b993c006d5e66e13c0f6f5c321ff02200df52abe02fc4b276b75c40ad784ae2779e096718c6e7898649c12f8cca3f3ca0121031b80bcfebd1ce0291ba2b93ceefa91f04d6c0618b4fac7d99a4378bda80e4686ffffffff06d9cd0500000000001976a914b66ca6ef0fca89e1931c3adf9d1471b23d514d3d88ac16de0300000000001976a91475902ad9f291d7b2ecebeb8b0853803f5fd3781f88accea09000000000001976a914781ec401493bfaf339f8f6315a133a6ad2815a3588ac62343700000000001976a91497ff688ceb32872d49ff3eed0847fa41806d242488ac50870a00000000001976a9140db5a9b180ffd7717bc79b139224783eada4862e88aca24637010000000017a91428b2a3cf363cc54ff6e73dab87bd87c9e01835e68700000000", "vin": [{"sequence": 4294967295, "scriptSig": {"hex": "47304402205b3f8be1cf9b1ea79e04ba2319d8db5a9e186dc2a04023c6e1702046aeed768f022020eb9f0721b52bfdb9555884aecc13e3f6f7e75487f4b64048488bacf5f0b3500121025c984e6015364d90edfc055542c5b7b9f2f73007a874e5f7b65bd4f060b58017", "asm": "304402205b3f8be1cf9b1ea79e04ba2319d8db5a9e186dc2a04023c6e1702046aeed768f022020eb9f0721b52bfdb9555884aecc13e3f6f7e75487f4b64048488bacf5f0b350[ALL] 025c984e6015364d90edfc055542c5b7b9f2f73007a874e5f7b65bd4f060b58017"}, "vout": 0, "txid": "dce1f64d6bf1392c37b7cb29d8d12ef3ce94cbece654ecf477f8d0ab7e7e9894"}, {"sequence": 4294967295, "scriptSig": {"hex": "483045022100f24566ab50c02e1e5f61ccd779fe2173bb46da68c58e1f9a8cd893d092c442fc02205b151090f6b6db2f8b9ab563f6785751aa42c74ab95ee436107ad196a3351402012102f8633b2d18e04aff780acb41b149be6077529f8a7499637ff3df8624f6a4296b", "asm": "3045022100f24566ab50c02e1e5f61ccd779fe2173bb46da68c58e1f9a8cd893d092c442fc02205b151090f6b6db2f8b9ab563f6785751aa42c74ab95ee436107ad196a3351402[ALL] 02f8633b2d18e04aff780acb41b149be6077529f8a7499637ff3df8624f6a4296b"}, "vout": 0, "txid": "9b2ee0153f026246c12fd4a9c98349c15a685195bb77d0bc8f51419dd10229f7"}, {"sequence": 4294967295, "scriptSig": {"hex": "483045022100b264540718d82bef0483bdd82df668ae9312e7a97d036f13c96e2185304626b6022021bc7cb9f6d6aca5c43f99cbbf1a80eb23380c7568ff3a86a26126b79a1fd9a001210323b1c9a9f4cf1e20d3f4a301f5e8ab4192eed1d0dde1859b28e74bb21501f06b", "asm": "3045022100b264540718d82bef0483bdd82df668ae9312e7a97d036f13c96e2185304626b6022021bc7cb9f6d6aca5c43f99cbbf1a80eb23380c7568ff3a86a26126b79a1fd9a0[ALL] 0323b1c9a9f4cf1e20d3f4a301f5e8ab4192eed1d0dde1859b28e74bb21501f06b"}, "vout": 0, "txid": "f0b82d98da4051a64c81ea2b92e73b568e57c8b07c65c8b0a2fea39f99f58011"}, {"sequence": 4294967295, "scriptSig": {"hex": "47304402206bec9b7f7e8557a656a0dc2d3c8a84cbb9103e10ba93a6da7fe8af26cb8157bf022050be990f99c0b1f8f278a7715eb481e0e64359cc0e73f6beb162e6709e0a9d66012102341f4505351fcda8828efce5f118152b6254309a5bd46c28b8146e16d05bd0b6", "asm": "304402206bec9b7f7e8557a656a0dc2d3c8a84cbb9103e10ba93a6da7fe8af26cb8157bf022050be990f99c0b1f8f278a7715eb481e0e64359cc0e73f6beb162e6709e0a9d66[ALL] 02341f4505351fcda8828efce5f118152b6254309a5bd46c28b8146e16d05bd0b6"}, "vout": 0, "txid": "2d60af576be526ea65df736fb325475dd45e1542b503f2c052813f7396cc3645"}, {"sequence": 4294967295, "scriptSig": {"hex": "483045022100c55986f6a3272d9de0e08b7dcb096b7017ebacb44baa4d784f073f4b08cfdb3402204ab7c13a0874d556f4f90c3c65385302f60ffb531332ad7b59a45b05e2c468950121035dbdb7073d34434a3710b5b432b658de46071d0ed3d12338a7b2b99a490d1184", "asm": "3045022100c55986f6a3272d9de0e08b7dcb096b7017ebacb44baa4d784f073f4b08cfdb3402204ab7c13a0874d556f4f90c3c65385302f60ffb531332ad7b59a45b05e2c46895[ALL] 035dbdb7073d34434a3710b5b432b658de46071d0ed3d12338a7b2b99a490d1184"}, "vout": 1, "txid": "fe8f549813bbc3f5a0fe179fe8f276ff3a1e36996e296a372dff092021daf159"}, {"sequence": 4294967295, "scriptSig": {"hex": "47304402201e6932dd3ce20151cb538035865721be609140f042beddaab60773e353ac3274022073f1fa4949a7847771d7549f5bf5d3d99911d413201f0e3aa3d320db1d96853e012103de4dd5b831860dd161a4b41a3b9ca4d6efc7c737e9c9de845700e87780471c0a", "asm": "304402201e6932dd3ce20151cb538035865721be609140f042beddaab60773e353ac3274022073f1fa4949a7847771d7549f5bf5d3d99911d413201f0e3aa3d320db1d96853e[ALL] 03de4dd5b831860dd161a4b41a3b9ca4d6efc7c737e9c9de845700e87780471c0a"}, "vout": 0, "txid": "4bbc3a262eba3901dd9195e33768c3635919f1b6b34672546aea5285eaf74ead"}, {"sequence": 4294967295, "scriptSig": {"hex": "4730440220765913b157f8ea10cd969224975e1e77d7e41311b20ace3e2229e6fecb87f84d022045d4d9d0403a569bef362f267361ed3ea632aa0e7c8363cd1e80ecb89bf6125f0121026ed3adfe76a8576b17556c23c923b32862fccfe1868c648e6ee79cf4aa55ebac", "asm": "30440220765913b157f8ea10cd969224975e1e77d7e41311b20ace3e2229e6fecb87f84d022045d4d9d0403a569bef362f267361ed3ea632aa0e7c8363cd1e80ecb89bf6125f[ALL] 026ed3adfe76a8576b17556c23c923b32862fccfe1868c648e6ee79cf4aa55ebac"}, "vout": 0, "txid": "690647235553a722ce27704217fef008bfab226d5f2fe31dfd88746ee0de9f63"}, {"sequence": 4294967295, "scriptSig": {"hex": "483045022100eb83af9b48e0b704a60a09530db1e0fdf0c89ed962f8659eb14fda4353f7b4d3022065e80859d440e3b59f2a5f0def950b939ff891fafcc4ed6023c834369db4aab4012103108a8a037bc4a70c648fffd6000c117b29bd285f57ef2f839da29bbfe7b3ad10", "asm": "3045022100eb83af9b48e0b704a60a09530db1e0fdf0c89ed962f8659eb14fda4353f7b4d3022065e80859d440e3b59f2a5f0def950b939ff891fafcc4ed6023c834369db4aab4[ALL] 03108a8a037bc4a70c648fffd6000c117b29bd285f57ef2f839da29bbfe7b3ad10"}, "vout": 2, "txid": "fe1330e88f588f7e1a6c5afe3abc624f6178c4bba3c7a5e1931b20ce74b1b42f"}, {"sequence": 4294967295, "scriptSig": {"hex": "47304402205abd777f4d08f513fd0773a2a2eaa42bc15c6b94b675b62eb4cd455837fa4263022068e4595e2f0178e6331611925a6adce052e7a9086f45dd429dd7bf17b5cc6a710121032b4e0930d887b802bd94e2d6397f731cd717979aec35464ea1b1ae19b88f3da2", "asm": "304402205abd777f4d08f513fd0773a2a2eaa42bc15c6b94b675b62eb4cd455837fa4263022068e4595e2f0178e6331611925a6adce052e7a9086f45dd429dd7bf17b5cc6a71[ALL] 032b4e0930d887b802bd94e2d6397f731cd717979aec35464ea1b1ae19b88f3da2"}, "vout": 3, "txid": "7c90f601a9d1eb8ff55a36282bc9f8a018ffcd54a78c9c49908673ca0c673f8a"}, {"sequence": 4294967295, "scriptSig": {"hex": "00483045022100c01c47264dab18dd34389f3fa5e3d61f8aeff1cd53f7b1943cb7f51412e51ac102206aa62bc083807e3eabeae158b22dbb0b1819d0f67531cbffb2447779c404423f01483045022100a25d5064fac0dfa4ee89633eb19ab481a8fa1a4ea8ba660dddbf6283072413660220574933eccdf84bf801a3a5e3297d73961ee2c97b87a3cdd097f42eb31ad405d3014c69522103e728abd7e10f84b4e551db1716b5d514899c1789d6739b254fc00a14f7f7a8a72103a877dc92f64399b2d4bd64fc6b7597ab82cdf2584364d2a2fc146cf745523ca021026a5dc8968a940b12f505aba21c7d2ec6daf7f6d6a4ecd2debacdde6fda0a10d553ae", "asm": "0 3045022100c01c47264dab18dd34389f3fa5e3d61f8aeff1cd53f7b1943cb7f51412e51ac102206aa62bc083807e3eabeae158b22dbb0b1819d0f67531cbffb2447779c404423f[ALL] 3045022100a25d5064fac0dfa4ee89633eb19ab481a8fa1a4ea8ba660dddbf6283072413660220574933eccdf84bf801a3a5e3297d73961ee2c97b87a3cdd097f42eb31ad405d3[ALL] 522103e728abd7e10f84b4e551db1716b5d514899c1789d6739b254fc00a14f7f7a8a72103a877dc92f64399b2d4bd64fc6b7597ab82cdf2584364d2a2fc146cf745523ca021026a5dc8968a940b12f505aba21c7d2ec6daf7f6d6a4ecd2debacdde6fda0a10d553ae"}, "vout": 28, "txid": "c4590f1d1ecf38af3766416a83a8b09cc359f32a3c446579fe8ca9d373e73864"}, {"sequence": 4294967295, "scriptSig": {"hex": "473044022050fdb0886ae834e3663aed7ff16f4be91ce4a35e88bdd6e1d5be90bbc5b35e0902200cdd55b25addc2ccfa9fdd4c3d4999f6f366d494e717f131467bd57fa0fab083012103bb0f4708fe2eb8f1b8743c70978bca9a7a4d5f46ef65a80010af2357d6727209", "asm": "3044022050fdb0886ae834e3663aed7ff16f4be91ce4a35e88bdd6e1d5be90bbc5b35e0902200cdd55b25addc2ccfa9fdd4c3d4999f6f366d494e717f131467bd57fa0fab083[ALL] 03bb0f4708fe2eb8f1b8743c70978bca9a7a4d5f46ef65a80010af2357d6727209"}, "vout": 1, "txid": "b6e3ad76006ea72566c490d05159a4f67ab7ed3d9135cc8f60b077858d2fc483"}, {"sequence": 4294967295, "scriptSig": {"hex": "483045022100ae5aea147b6ed503e21c42d1bb75a04c0cc482f0615bfe19eec5b2d5257eee050220124f15d5e7cebc8088408df46eacee2b3f53d4d8f47ef3d5afe97ea36aeb09990121023fdd60fa3600e58e83472d28515700473039dfc15b0eb77cb70c185aeab1cbf0", "asm": "3045022100ae5aea147b6ed503e21c42d1bb75a04c0cc482f0615bfe19eec5b2d5257eee050220124f15d5e7cebc8088408df46eacee2b3f53d4d8f47ef3d5afe97ea36aeb0999[ALL] 023fdd60fa3600e58e83472d28515700473039dfc15b0eb77cb70c185aeab1cbf0"}, "vout": 6, "txid": "0c1fc5e283ce8b92d6e5f73cbddef5593ba33f30641f48b0117d31c2ba377acd"}, {"sequence": 4294967295, "scriptSig": {"hex": "473044022006dbeab7fb8163b0a524eb51c56066afaa3c675194f7ce25bff4694764efff5002201d3b739d67cd5df4bb505b7342f47f0b52eb7c0635fc925ab004e3a511ed3a42012102a402b000eb4d6c7f30819b79b5079f02c036935109ade6d0618e66a6cdeb9d8a", "asm": "3044022006dbeab7fb8163b0a524eb51c56066afaa3c675194f7ce25bff4694764efff5002201d3b739d67cd5df4bb505b7342f47f0b52eb7c0635fc925ab004e3a511ed3a42[ALL] 02a402b000eb4d6c7f30819b79b5079f02c036935109ade6d0618e66a6cdeb9d8a"}, "vout": 3, "txid": "b6e3ad76006ea72566c490d05159a4f67ab7ed3d9135cc8f60b077858d2fc483"}, {"sequence": 4294967295, "scriptSig": {"hex": "473044022011687e6807979510704d94700f335e0ec3f8b993c006d5e66e13c0f6f5c321ff02200df52abe02fc4b276b75c40ad784ae2779e096718c6e7898649c12f8cca3f3ca0121031b80bcfebd1ce0291ba2b93ceefa91f04d6c0618b4fac7d99a4378bda80e4686", "asm": "3044022011687e6807979510704d94700f335e0ec3f8b993c006d5e66e13c0f6f5c321ff02200df52abe02fc4b276b75c40ad784ae2779e096718c6e7898649c12f8cca3f3ca[ALL] 031b80bcfebd1ce0291ba2b93ceefa91f04d6c0618b4fac7d99a4378bda80e4686"}, "vout": 5, "txid": "73c6bdd67dcbaa57cb1ef28543828b5ef207919c7a52a4bb72c57177761a1cba"}], "txid": "8cd13cf0b7c1d9157a7d876fc31fc3d715abffc43da12de0039d2090d46c4d3a", "blocktime": 1537876114, "version": 2, "confirmations": 11460, "time": 1537876114, "locktime": 0, "vsize": 2425, "size": 2425}