{"hash": "90b643a2a2cf4c87b0a2e4e53a1711a742addde6feaee248877935cc2740f034", "blockhash": "0000000000000000000dcc0f55137456b1a82d3642486a52398922ac4d620174", "vout": [{"scriptPubKey": {"reqSigs": 1, "hex": "a91463db19f447dadb34def49daf215085f43c262da587", "addresses": ["3Ao1HxyqVgYgdwKCGoJsr2a8KfEYjdk1r5"], "asm": "OP_HASH160 63db19f447dadb34def49daf215085f43c262da5 OP_EQUAL", "type": "scripthash"}, "value": 0.00207638, "n": 0}, {"scriptPubKey": {"reqSigs": 1, "hex": "0014ccf91468b14c332b9e68c6f3647c98f7e61e7a2f", "addresses": ["bc1qenu3g693fsejh8ngcmekglyc7lnpu73030gz72"], "asm": "0 ccf91468b14c332b9e68c6f3647c98f7e61e7a2f", "type": "witness_v0_keyhash"}, "value": 1.211e-05, "n": 1}], "hex": "01000000000101e90a6aba2a481799c9f04332443c8e8671559f3bc17c1c007fa7a41bbc5f92c60100000000ffffffff02162b03000000000017a91463db19f447dadb34def49daf215085f43c262da587bb04000000000000160014ccf91468b14c332b9e68c6f3647c98f7e61e7a2f02473044022045e353aaa60c739c306db2c4fbece12eee37a49dd20acf244a3308fdc415a83e022079351d773e5ec50c93e10f61471d0ed0148399c7483a64718760490702273fe401210391136eb7e46dfff565148e0c89ccc0388304f94542b79756ac5eb0d9d4095ffe00000000", "vin": [{"txinwitness": ["3044022045e353aaa60c739c306db2c4fbece12eee37a49dd20acf244a3308fdc415a83e022079351d773e5ec50c93e10f61471d0ed0148399c7483a64718760490702273fe401", "0391136eb7e46dfff565148e0c89ccc0388304f94542b79756ac5eb0d9d4095ffe"], "sequence": 4294967295, "scriptSig": {"hex": "", "asm": ""}, "vout": 1, "txid": "c6925fbc1ba4a77f001c7cc13b9f5571868e3c443243f0c99917482aba6a0ae9"}], "txid": "8cd4283b92ac9e2a2b09a87bc1b489ae656b9f3b5b02a8177d2769e734450bc2", "blocktime": 1537870268, "version": 1, "confirmations": 11518, "time": 1537870268, "locktime": 0, "vsize": 142, "size": 223}