{"hash": "d051d86b52f0b30351cbb6bb00d91c14f060d59c4c16fbe28ea3fff882131565", "blockhash": "0000000000000000000e13cef7c366c0283d82e591d1acd082e914b08063cdf1", "vout": [{"scriptPubKey": {"reqSigs": 1, "hex": "a914ff979d1a93c1d0e869a81ed79ef8817ba632b0d387", "addresses": ["3QzTrmGqzMHuMX3Rz76tjCyiNSYuoXzJEK"], "asm": "OP_HASH160 ff979d1a93c1d0e869a81ed79ef8817ba632b0d3 OP_EQUAL", "type": "scripthash"}, "value": 0.12011363, "n": 0}, {"scriptPubKey": {"reqSigs": 1, "hex": "76a91468444de6141b8a20991ba4fcd7d17068565a86e388ac", "addresses": ["1AWK6pKFaduRF6MZTCaa3hrjaz8ro4mfyv"], "asm": "OP_DUP OP_HASH160 68444de6141b8a20991ba4fcd7d17068565a86e3 OP_EQUALVERIFY OP_CHECKSIG", "type": "pubkeyhash"}, "value": 0.49211793, "n": 1}], "hex": "01000000000104e7d10d6daa6e04850903f509eec089e56f76e4792dd2ca1f05f1fb05064f420c0000000023220020d795917940f8ba219f6bc2df72b74442321827d42055af87843b0343b6ee9071ffffffff8e0bbbe9ab14a39507258c51e2bb2d14ae13b4b4c1dec565e34c64a83d3a5144000000002322002029647b8eb1c82edc474b7d174d6239c68850404184b415949a7f5d790c5cb493ffffffffdaacbf8dfdcb12a1a4a5237d24a37efea8b68405ff166c4d87cc1d4b8b905d460000000023220020a424c047803b44d6ba7c0665faf12a30943d926ea162d6fb04ae48c408610bf1fffffffff50811384566305907b6b1571ab1f479c7fe3e1d670ff064a14ea084bc86713f0100000023220020697978ee5c3ade27bae6fa08301da2a44d1c856d93946771d0f93c2a72e3a209ffffffff026347b7000000000017a914ff979d1a93c1d0e869a81ed79ef8817ba632b0d38791e9ee02000000001976a91468444de6141b8a20991ba4fcd7d17068565a86e388ac04004730440220494306eceacf1734a092cb1d98b1d17f7790e1ac6b7183c2e9c8c987195c21f702202bc2a64538d49ff26ffd585868eb3d6983ca065f60375f5567db3c2f643e2a3301483045022100eb1279f14fe4dc713bba4f3696d96e137340f8ed2d7d2381dbf773be2187d5280220042d441a2d66a66d3d2e0fe4bd0b3f1d74134d6ac073fa266b915be827fe03670169522103c43a3e192c4c3d42f20981041f7b6f6ca0e878ca6262362cffa7ddb92c8cde872102b2b8cda9fce4b805881e5922289b704a594cfa8a4f3758fda34c3edd11fa1bbc210384cc30884fe325ff010d04df0dee41ed93c4b886a6f7ec7ea9c322ddc53bd12053ae0400483045022100c7266c9d4c327745dd5cfe9994aadc1d7d736ba26255056d4f6aee46b7b21ba802205e926655cf41bebff7a551b672ce9692b02a62d62e7e841ccae0ae9f433a7d35014730440220022807d8cc4ab695204c25521db85d7fceeca454beb03bbc3a8f677d78345b8802203088e1c84fd2299fa33ff8c676769226ceeab21181a56dd8350d64d04125645b016952210346aa045cd6b66472e88251a9be91a83946edd003914a26f6b92df429b880a0122103eaaf5579ac2bfcfb0f65cb20d5d7708c1ae8ed91605ec4991421b94c2e703c3b21028a808d3112878f5d18f5a65db77bf75769bef7ca65b52c9496bb6bad47cdeba553ae0400483045022100c2c18af40be764a428adfbde07a3f36ef3977ec0929c846e526284dc7630ee3b02207e87edf64d317b25ee622f842584d5b752402e6a3ec91b5125ecca300325111701483045022100cab46efde3a84879dd3ad82b288743b00a960b81d8fe5a34f705f04d92eaee2402200a294d9f241db9a4f93e2498e0b98b472b2856023ecd605eb85ddca0770ab98b016952210235e5f1dec49a07c655bae1b46e0682daa2d4650c676e26c0a2811fc7ee69f7af210241c331f88c18646d3dbb2089f6dbf716b2b99c608a511fcd752d71a6d86431a921029ccd682a877ea71b398dedad4ea43eb86683ed2ab28abbc34012bd838fb9bb7c53ae0400473044022067a91b2c39ef066d3bfe4ff7e1eb540b99916542271c12b48fd946efb3fee6e502207d203eee93caaeb3d9f54323bbbe785cbfb4d98186042138d3754cd62ce06ad30147304402204742e9e553663688f24c7e9b5a3f31fa5373e7beb381faf7634393c506daabe102207903b9e1c584c49e7da8ad47d0c0a5f4801f55388e8564997956d62b06fd267d01695221024cdabed5dddcb88c46fbe15f61f051943c283b52a674c27059036d79cb1f4dbb2102f9e6b02dc63a23b8d362d98be9b4e55e29e03dca68e3dafc87688f4760af99d32103670593310a5924e92460b13608bd481c202c910a0d17f1a9ade5b134fd8eb9a253ae00000000", "vin": [{"txinwitness": ["", "30440220494306eceacf1734a092cb1d98b1d17f7790e1ac6b7183c2e9c8c987195c21f702202bc2a64538d49ff26ffd585868eb3d6983ca065f60375f5567db3c2f643e2a3301", "3045022100eb1279f14fe4dc713bba4f3696d96e137340f8ed2d7d2381dbf773be2187d5280220042d441a2d66a66d3d2e0fe4bd0b3f1d74134d6ac073fa266b915be827fe036701", "522103c43a3e192c4c3d42f20981041f7b6f6ca0e878ca6262362cffa7ddb92c8cde872102b2b8cda9fce4b805881e5922289b704a594cfa8a4f3758fda34c3edd11fa1bbc210384cc30884fe325ff010d04df0dee41ed93c4b886a6f7ec7ea9c322ddc53bd12053ae"], "sequence": 4294967295, "scriptSig": {"hex": "220020d795917940f8ba219f6bc2df72b74442321827d42055af87843b0343b6ee9071", "asm": "0020d795917940f8ba219f6bc2df72b74442321827d42055af87843b0343b6ee9071"}, "vout": 0, "txid": "0c424f0605fbf1051fcad22d79e4766fe589c0ee09f5030985046eaa6d0dd1e7"}, {"txinwitness": ["", "3045022100c7266c9d4c327745dd5cfe9994aadc1d7d736ba26255056d4f6aee46b7b21ba802205e926655cf41bebff7a551b672ce9692b02a62d62e7e841ccae0ae9f433a7d3501", "30440220022807d8cc4ab695204c25521db85d7fceeca454beb03bbc3a8f677d78345b8802203088e1c84fd2299fa33ff8c676769226ceeab21181a56dd8350d64d04125645b01", "52210346aa045cd6b66472e88251a9be91a83946edd003914a26f6b92df429b880a0122103eaaf5579ac2bfcfb0f65cb20d5d7708c1ae8ed91605ec4991421b94c2e703c3b21028a808d3112878f5d18f5a65db77bf75769bef7ca65b52c9496bb6bad47cdeba553ae"], "sequence": 4294967295, "scriptSig": {"hex": "22002029647b8eb1c82edc474b7d174d6239c68850404184b415949a7f5d790c5cb493", "asm": "002029647b8eb1c82edc474b7d174d6239c68850404184b415949a7f5d790c5cb493"}, "vout": 0, "txid": "44513a3da8644ce365c5dec1b4b413ae142dbbe2518c250795a314abe9bb0b8e"}, {"txinwitness": ["", "3045022100c2c18af40be764a428adfbde07a3f36ef3977ec0929c846e526284dc7630ee3b02207e87edf64d317b25ee622f842584d5b752402e6a3ec91b5125ecca300325111701", "3045022100cab46efde3a84879dd3ad82b288743b00a960b81d8fe5a34f705f04d92eaee2402200a294d9f241db9a4f93e2498e0b98b472b2856023ecd605eb85ddca0770ab98b01", "52210235e5f1dec49a07c655bae1b46e0682daa2d4650c676e26c0a2811fc7ee69f7af210241c331f88c18646d3dbb2089f6dbf716b2b99c608a511fcd752d71a6d86431a921029ccd682a877ea71b398dedad4ea43eb86683ed2ab28abbc34012bd838fb9bb7c53ae"], "sequence": 4294967295, "scriptSig": {"hex": "220020a424c047803b44d6ba7c0665faf12a30943d926ea162d6fb04ae48c408610bf1", "asm": "0020a424c047803b44d6ba7c0665faf12a30943d926ea162d6fb04ae48c408610bf1"}, "vout": 0, "txid": "465d908b4b1dcc874d6c16ff0584b6a8fe7ea3247d23a5a4a112cbfd8dbfacda"}, {"txinwitness": ["", "3044022067a91b2c39ef066d3bfe4ff7e1eb540b99916542271c12b48fd946efb3fee6e502207d203eee93caaeb3d9f54323bbbe785cbfb4d98186042138d3754cd62ce06ad301", "304402204742e9e553663688f24c7e9b5a3f31fa5373e7beb381faf7634393c506daabe102207903b9e1c584c49e7da8ad47d0c0a5f4801f55388e8564997956d62b06fd267d01", "5221024cdabed5dddcb88c46fbe15f61f051943c283b52a674c27059036d79cb1f4dbb2102f9e6b02dc63a23b8d362d98be9b4e55e29e03dca68e3dafc87688f4760af99d32103670593310a5924e92460b13608bd481c202c910a0d17f1a9ade5b134fd8eb9a253ae"], "sequence": 4294967295, "scriptSig": {"hex": "220020697978ee5c3ade27bae6fa08301da2a44d1c856d93946771d0f93c2a72e3a209", "asm": "0020697978ee5c3ade27bae6fa08301da2a44d1c856d93946771d0f93c2a72e3a209"}, "vout": 1, "txid": "3f7186bc84a04ea164f00f671d3efec779f4b11a57b1b60759306645381108f5"}], "txid": "8cd9b1e71f629c29ca4681662fc76cc69e3e1fcb47067318e93ce94eb7b7aa99", "blocktime": 1537871767, "version": 1, "confirmations": 11495, "time": 1537871767, "locktime": 0, "vsize": 634, "size": 1394}