{"hash": "c6f2e448619b3e84693d9a17ad513160a655b805ce14ebc8a8ee17826bdbc132", "blockhash": "0000000000000000001cda96e906b7601b7a6fb1a3b62bca570a9e5d8f4b3de1", "vout": [{"scriptPubKey": {"reqSigs": 1, "hex": "a914891dd19c0743abdfc72b9567e29affa812a2bb8287", "addresses": ["3EC2DfphRKKvVWVa6yn7dCqKbPqyc7ibQx"], "asm": "OP_HASH160 891dd19c0743abdfc72b9567e29affa812a2bb82 OP_EQUAL", "type": "scripthash"}, "value": 0.32525273, "n": 0}, {"scriptPubKey": {"reqSigs": 1, "hex": "0014c9229b8e87236a136b14559b95263accee981914", "addresses": ["bc1qey3fhr58yd4px6c52kde2f36enhfsxg5fgwwxn"], "asm": "0 c9229b8e87236a136b14559b95263accee981914", "type": "witness_v0_keyhash"}, "value": 0.13165545, "n": 1}], "hex": "01000000000101429c955c62b1d6f1b817b4bc5c6fbc271f187d937e34358593905774edd7612a0000000000ffffffff02d94bf0010000000017a914891dd19c0743abdfc72b9567e29affa812a2bb8287e9e3c80000000000160014c9229b8e87236a136b14559b95263accee98191402483045022100ff8e2abf76fd33e660640df8ffadb8b8028a1c7e3b949dea195b692de4832e5402206eb0cde426daa2aca1579d5ff58f42bc22a8a5347a7a930c649556bad0a8ccea0121030da84203f78208a4fd341c214ab297c2ffc58dd0f7496d1f286d045a0a2004cb00000000", "vin": [{"txinwitness": ["3045022100ff8e2abf76fd33e660640df8ffadb8b8028a1c7e3b949dea195b692de4832e5402206eb0cde426daa2aca1579d5ff58f42bc22a8a5347a7a930c649556bad0a8ccea01", "030da84203f78208a4fd341c214ab297c2ffc58dd0f7496d1f286d045a0a2004cb"], "sequence": 4294967295, "scriptSig": {"hex": "", "asm": ""}, "vout": 0, "txid": "2a61d7ed745790938535347e937d181f27bc6f5cbcb417b8f1d6b1625c959c42"}], "txid": "8ce001672b8270b0e1375810e601d59b8eab615adc851aecd46c56e393970cad", "blocktime": 1537873282, "version": 1, "confirmations": 11484, "time": 1537873282, "locktime": 0, "vsize": 142, "size": 224}