{"hash": "82cd59567fbc08212605d052a0718c25c13d2c6f836c6470a23362714e079b7a", "blockhash": "000000000000000000205f8b0775d31398ef75b89a5e8ec8d2c57b4dc0ac4c20", "vout": [{"scriptPubKey": {"reqSigs": 1, "hex": "00144c22b501a43cb8ebc125d8701e1bc39018f0c6ae", "addresses": ["bc1qfs3t2qdy8juwhsf9mpcpux7rjqv0p34wh8ydz6"], "asm": "0 4c22b501a43cb8ebc125d8701e1bc39018f0c6ae", "type": "witness_v0_keyhash"}, "value": 0.01708035, "n": 0}, {"scriptPubKey": {"reqSigs": 1, "hex": "a914c7e8e9be8d25760a8d78cd7ded8638018151ab0f87", "addresses": ["3Kv3QoS8eRCZ4DLeWHxzeUyes2zBWFQNiN"], "asm": "OP_HASH160 c7e8e9be8d25760a8d78cd7ded8638018151ab0f OP_EQUAL", "type": "scripthash"}, "value": 100.24820919, "n": 1}], "hex": "01000000000101938b8a764db91cea24bc1e21a803dcb8d0f54822a2840da1899868fa524e41600100000017160014b4747673a18ca1afcefae465031c4d138a3862f7ffffffff0203101a00000000001600144c22b501a43cb8ebc125d8701e1bc39018f0c6aeb7a086550200000017a914c7e8e9be8d25760a8d78cd7ded8638018151ab0f870247304402202fd40d371bd004da11ceb202f0f6fc11f93380cab42b18ce7d636155fc4f1996022060257d9c0b75d012c18958b71bfd2f994812d1a14c58c37942992f7a4b76c63d0121029cb2db8818452fa55e131cf99d6aadab4a68ab283ac874bcbaee9e6fcd4a65b500000000", "vin": [{"txinwitness": ["304402202fd40d371bd004da11ceb202f0f6fc11f93380cab42b18ce7d636155fc4f1996022060257d9c0b75d012c18958b71bfd2f994812d1a14c58c37942992f7a4b76c63d01", "029cb2db8818452fa55e131cf99d6aadab4a68ab283ac874bcbaee9e6fcd4a65b5"], "sequence": 4294967295, "scriptSig": {"hex": "160014b4747673a18ca1afcefae465031c4d138a3862f7", "asm": "0014b4747673a18ca1afcefae465031c4d138a3862f7"}, "vout": 1, "txid": "60414e52fa689889a10d84a22248f5d0b8dc03a8211ebc24ea1cb94d768a8b93"}], "txid": "8ce4a7a77664adc3fe2d19b7d389d9b2ddac1df144f9a526a41dd8fd960ebaba", "blocktime": 1537871175, "version": 1, "confirmations": 11511, "time": 1537871175, "locktime": 0, "vsize": 165, "size": 246}