{"hash": "8ce7699b38e57d57968247d7ce2904a5ffd9928943202430365ce272d569cf02", "blockhash": "0000000000000000001f0ddff1eddb255c1121bcd4da4f1bc9a0da00cae72433", "vout": [{"scriptPubKey": {"reqSigs": 1, "hex": "76a91497396627658db8a0f00783f5591794542f0264b188ac", "addresses": ["1Enbo83n943FM8xsC3iGKsjakijJ6KvygZ"], "asm": "OP_DUP OP_HASH160 97396627658db8a0f00783f5591794542f0264b1 OP_EQUALVERIFY OP_CHECKSIG", "type": "pubkeyhash"}, "value": 1.001e-05, "n": 0}, {"scriptPubKey": {"reqSigs": 1, "hex": "76a9143c2d3cd0ff0706d8610f649e7aa26ab8001c6b6888ac", "addresses": ["16VBjfuqCRUtzj1dEo99BXC8XjNnn9JhpG"], "asm": "OP_DUP OP_HASH160 3c2d3cd0ff0706d8610f649e7aa26ab8001c6b68 OP_EQUALVERIFY OP_CHECKSIG", "type": "pubkeyhash"}, "value": 0.00492913, "n": 1}], "hex": "0100000001af2dca879686600ba74610bf5a9151fb38bab9784674c4fc29c526e033df0d89010000006a4730440220750c36438b44edf5804b9cd8b443dce630ac5e5594e770cbf0c61c1bd598ba2b02204477f3100c87625ad028b403f15e890a14bd12a65c1f4a2d8f6e706391bf3e340121026a8a4930d5bf44021076bff2bc3f84af2253bfb7cbfd03fb1208766bb9dab641ffffffff02e9030000000000001976a91497396627658db8a0f00783f5591794542f0264b188ac71850700000000001976a9143c2d3cd0ff0706d8610f649e7aa26ab8001c6b6888ac00000000", "vin": [{"sequence": 4294967295, "scriptSig": {"hex": "4730440220750c36438b44edf5804b9cd8b443dce630ac5e5594e770cbf0c61c1bd598ba2b02204477f3100c87625ad028b403f15e890a14bd12a65c1f4a2d8f6e706391bf3e340121026a8a4930d5bf44021076bff2bc3f84af2253bfb7cbfd03fb1208766bb9dab641", "asm": "30440220750c36438b44edf5804b9cd8b443dce630ac5e5594e770cbf0c61c1bd598ba2b02204477f3100c87625ad028b403f15e890a14bd12a65c1f4a2d8f6e706391bf3e34[ALL] 026a8a4930d5bf44021076bff2bc3f84af2253bfb7cbfd03fb1208766bb9dab641"}, "vout": 1, "txid": "890ddf33e026c529fcc4744678b9ba38fb51915abf1046a70b60869687ca2daf"}], "txid": "8ce7699b38e57d57968247d7ce2904a5ffd9928943202430365ce272d569cf02", "blocktime": 1537872018, "version": 1, "confirmations": 11489, "time": 1537872018, "locktime": 0, "vsize": 225, "size": 225}