{"hash": "ccce3c1f3e91a7401ea8b2fba60b5ccb8ea6748367b2c8a31dca5fd99562db93", "blockhash": "00000000000000000018f53835495a110e01622372bf6ae95dc86f2b0ab887b0", "vout": [{"scriptPubKey": {"reqSigs": 1, "hex": "a914aa4d2d1e089f612e084f7f82c904947bfa70e63b87", "addresses": ["3HDVFTHhE4XygPHWMbPFbj29TdqFaGzjZE"], "asm": "OP_HASH160 aa4d2d1e089f612e084f7f82c904947bfa70e63b OP_EQUAL", "type": "scripthash"}, "value": 0.01222724, "n": 0}, {"scriptPubKey": {"reqSigs": 1, "hex": "76a9147955c0a3f34af8ab3afbc2673071ae21bd20fca688ac", "addresses": ["1C4ZVQBmP4wnTRZ6o9JTBaCJFke79Mt25H"], "asm": "OP_DUP OP_HASH160 7955c0a3f34af8ab3afbc2673071ae21bd20fca6 OP_EQUALVERIFY OP_CHECKSIG", "type": "pubkeyhash"}, "value": 0.1015869, "n": 1}], "hex": "0200000000010205ac445881702737fc6a2b2188acbdc23bb48c121f167eb5d3e8920c3b4af10a0000000017160014309bd3812102443c4056aeff3706a0d56a336968fdffffff378b806332343e0f66956a12d0ac16a8055273010128daaea9748cec010b952700000000171600149aed0be40406d9a6f21501daa4aea141e181961dfdffffff0244a812000000000017a914aa4d2d1e089f612e084f7f82c904947bfa70e63b8762029b00000000001976a9147955c0a3f34af8ab3afbc2673071ae21bd20fca688ac02483045022100f3f926e1a4f32498a6dc79e0931911c0f636be1664310ce936a4671ff65f0c8e0220073cb61c9078f4685ed459a1a18e8468c3a24dee6a46504e5f737d125a2d8884012103e6dd0639c4c680d84cbb2fd1cd116f71ce76a8b5b34011e63c8572cec8cfef6b0247304402206847d925c531797e9248af8e4e649a9a5e000ad8986e855d16189284a37b045f022031ffb5d29efec8f0327a8417b396d0c1a24b7cbddee8807e7185ccd32c1e373e012102f19832816e30d4e13e0e90d117b6b8d2c63e0eb2f3618b1b4d4314f06c480f6f0d490800", "vin": [{"txinwitness": ["3045022100f3f926e1a4f32498a6dc79e0931911c0f636be1664310ce936a4671ff65f0c8e0220073cb61c9078f4685ed459a1a18e8468c3a24dee6a46504e5f737d125a2d888401", "03e6dd0639c4c680d84cbb2fd1cd116f71ce76a8b5b34011e63c8572cec8cfef6b"], "sequence": 4294967293, "scriptSig": {"hex": "160014309bd3812102443c4056aeff3706a0d56a336968", "asm": "0014309bd3812102443c4056aeff3706a0d56a336968"}, "vout": 0, "txid": "0af14a3b0c92e8d3b57e161f128cb43bc2bdac88212b6afc372770815844ac05"}, {"txinwitness": ["304402206847d925c531797e9248af8e4e649a9a5e000ad8986e855d16189284a37b045f022031ffb5d29efec8f0327a8417b396d0c1a24b7cbddee8807e7185ccd32c1e373e01", "02f19832816e30d4e13e0e90d117b6b8d2c63e0eb2f3618b1b4d4314f06c480f6f"], "sequence": 4294967293, "scriptSig": {"hex": "1600149aed0be40406d9a6f21501daa4aea141e181961d", "asm": "00149aed0be40406d9a6f21501daa4aea141e181961d"}, "vout": 0, "txid": "27950b01ec8c74a9aeda280101735205a816acd0126a95660f3e343263808b37"}], "txid": "8ce80f95a8bda6347bcb47dab4c8d8ae337cc7037e139e15f0d8e902629c426a", "blocktime": 1537870928, "version": 2, "confirmations": 11514, "time": 1537870928, "locktime": 542989, "vsize": 259, "size": 421}