{"hash": "9b2cbf8a9deea3c1600e06a1854e6c4115c6bf327d3b3bcd01b02951133105c1", "blockhash": "0000000000000000001f76057863aec43deb6fa401d9628bb513d65a8098bfab", "vout": [{"scriptPubKey": {"reqSigs": 1, "hex": "a914bbd96a57544d2c8d77ae1fa970bbcbef78b981ac87", "addresses": ["3JpGjhhXrn4Lyi9nhBy5HJ4N4VQB4dS1W2"], "asm": "OP_HASH160 bbd96a57544d2c8d77ae1fa970bbcbef78b981ac OP_EQUAL", "type": "scripthash"}, "value": 0.00012201, "n": 0}, {"scriptPubKey": {"reqSigs": 1, "hex": "a9140136c10502ae5684e49b302f1af10f145f74b6b787", "addresses": ["31oSC7GvQMTZoouyNLBEHVRDhXEFbVhSmh"], "asm": "OP_HASH160 0136c10502ae5684e49b302f1af10f145f74b6b7 OP_EQUAL", "type": "scripthash"}, "value": 0.05856753, "n": 1}], "hex": "01000000000101df749978a21c7def3c5d0fe93de0c892258e28006d7354b9b95da9bc92af4ca10100000023220020efd02f10cc1074c68ec89b458572a71ce6bfc8a17595d8fde80232e47279444bffffffff02a92f00000000000017a914bbd96a57544d2c8d77ae1fa970bbcbef78b981ac87f15d59000000000017a9140136c10502ae5684e49b302f1af10f145f74b6b787040047304402203676227c8360a2a5b5b4c91265a3c99a58da7cc4c66e2d5be525275db5e41bee022056b96e07ee513be653d7e0dad8e63a7929eadee3819496651baecc701fb1f3af0147304402204c7ad4f4aaea31e90f46692f14250fa074b8e7ab7acb834f3a371afbec9dd5cf02207366d9be15420d094cc07d209c1c6fa1df674f587c9aeec0535887744659a6520147522103f985ea61f461801f3abc09ebed98ce7e20804639a64616f639f492883ea4e8d62103871fc2ca08e6950b38867e8e6a0e94ee625223d3aa0df5c65f414c6d784467e252ae00000000", "vin": [{"txinwitness": ["", "304402203676227c8360a2a5b5b4c91265a3c99a58da7cc4c66e2d5be525275db5e41bee022056b96e07ee513be653d7e0dad8e63a7929eadee3819496651baecc701fb1f3af01", "304402204c7ad4f4aaea31e90f46692f14250fa074b8e7ab7acb834f3a371afbec9dd5cf02207366d9be15420d094cc07d209c1c6fa1df674f587c9aeec0535887744659a65201", "522103f985ea61f461801f3abc09ebed98ce7e20804639a64616f639f492883ea4e8d62103871fc2ca08e6950b38867e8e6a0e94ee625223d3aa0df5c65f414c6d784467e252ae"], "sequence": 4294967295, "scriptSig": {"hex": "220020efd02f10cc1074c68ec89b458572a71ce6bfc8a17595d8fde80232e47279444b", "asm": "0020efd02f10cc1074c68ec89b458572a71ce6bfc8a17595d8fde80232e47279444b"}, "vout": 1, "txid": "a14caf92bca95db9b954736d00288e2592c8e03de90f5d3cef7d1ca2789974df"}], "txid": "8cef415fd4e8ddf24280c2b50e0e3e068f7a9abfcb61b7c4ed9e269c534f8142", "blocktime": 1537873891, "version": 1, "confirmations": 11478, "time": 1537873891, "locktime": 0, "vsize": 205, "size": 370}