{"hash": "8cf5365f7dbe571c593562c1c166c86d3fed5db3953026b45bbfdb88db46c7f0", "blockhash": "00000000000000000017f5eb5941039fbcee6240d03bc1f2f8e35350df66a1d8", "vout": [{"scriptPubKey": {"reqSigs": 1, "hex": "76a914cbd63b5533a0d45b79e30722a2d49fb8e4d17e3788ac", "addresses": ["1Kanp2VszcmAS75avoe78TyJVnPEaZhtgZ"], "asm": "OP_DUP OP_HASH160 cbd63b5533a0d45b79e30722a2d49fb8e4d17e37 OP_EQUALVERIFY OP_CHECKSIG", "type": "pubkeyhash"}, "value": 0.008034, "n": 0}, {"scriptPubKey": {"reqSigs": 1, "hex": "a91475d63d299f61a8dfad2f629476603d1e7869db6887", "addresses": ["3CS5dZwe7v1CXHxXTkEkQXdntqnSja6UyF"], "asm": "OP_HASH160 75d63d299f61a8dfad2f629476603d1e7869db68 OP_EQUAL", "type": "scripthash"}, "value": 0.01095349, "n": 1}], "hex": "010000000344d41791fca45a5a037015b74dad86b2cdc0bdf843226749fc8121dcc8b6f584010000006a47304402206b3f9940a8b970abed7b780dc3dd1b2f4678a618a77f8504c6e538912b94ecbf022053185331ea6304fa9fc3ffd07904b580abf587bf99baab0d4ee05e8f82f4450c012102e13e350db1c292a54139395f58d340874d4721fb9a5234b9900f35bdcec040d9ffffffff211858cbcd5fd86546ded204f71acbf4fee0ffa8d722e13cb5bdd297e80e1e3a170000006b483045022100d8965f8be4613bc9950d93ff7c1c531e94cedfd0f848577f90b0721d3d9b4534022062156b36abc5bafa27eaa95791fb2ac37a0bdfe99fe8f6b206d476267c06131d012102de58531208d9ddb610028755f461d1c3a49a60a7e577813a6a46a90a74dfdd88ffffffff64770c72a17c4fae278a88dda3184f118d2a6b47eb24f24ff60c0a2234f04812110000006a47304402202653d72da25f56235f43d4075f1d2d91ee8d075119f6dd431ee3bf7e94310ad2022075787a2cb4d3954331cf74ebd6ed5d10fef072bd6b8ef893f0d417b545d1a76b012102de58531208d9ddb610028755f461d1c3a49a60a7e577813a6a46a90a74dfdd88ffffffff0248420c00000000001976a914cbd63b5533a0d45b79e30722a2d49fb8e4d17e3788acb5b610000000000017a91475d63d299f61a8dfad2f629476603d1e7869db688700000000", "vin": [{"sequence": 4294967295, "scriptSig": {"hex": "47304402206b3f9940a8b970abed7b780dc3dd1b2f4678a618a77f8504c6e538912b94ecbf022053185331ea6304fa9fc3ffd07904b580abf587bf99baab0d4ee05e8f82f4450c012102e13e350db1c292a54139395f58d340874d4721fb9a5234b9900f35bdcec040d9", "asm": "304402206b3f9940a8b970abed7b780dc3dd1b2f4678a618a77f8504c6e538912b94ecbf022053185331ea6304fa9fc3ffd07904b580abf587bf99baab0d4ee05e8f82f4450c[ALL] 02e13e350db1c292a54139395f58d340874d4721fb9a5234b9900f35bdcec040d9"}, "vout": 1, "txid": "84f5b6c8dc2181fc49672243f8bdc0cdb286ad4db71570035a5aa4fc9117d444"}, {"sequence": 4294967295, "scriptSig": {"hex": "483045022100d8965f8be4613bc9950d93ff7c1c531e94cedfd0f848577f90b0721d3d9b4534022062156b36abc5bafa27eaa95791fb2ac37a0bdfe99fe8f6b206d476267c06131d012102de58531208d9ddb610028755f461d1c3a49a60a7e577813a6a46a90a74dfdd88", "asm": "3045022100d8965f8be4613bc9950d93ff7c1c531e94cedfd0f848577f90b0721d3d9b4534022062156b36abc5bafa27eaa95791fb2ac37a0bdfe99fe8f6b206d476267c06131d[ALL] 02de58531208d9ddb610028755f461d1c3a49a60a7e577813a6a46a90a74dfdd88"}, "vout": 23, "txid": "3a1e0ee897d2bdb53ce122d7a8ffe0fef4cb1af704d2de4665d85fcdcb581821"}, {"sequence": 4294967295, "scriptSig": {"hex": "47304402202653d72da25f56235f43d4075f1d2d91ee8d075119f6dd431ee3bf7e94310ad2022075787a2cb4d3954331cf74ebd6ed5d10fef072bd6b8ef893f0d417b545d1a76b012102de58531208d9ddb610028755f461d1c3a49a60a7e577813a6a46a90a74dfdd88", "asm": "304402202653d72da25f56235f43d4075f1d2d91ee8d075119f6dd431ee3bf7e94310ad2022075787a2cb4d3954331cf74ebd6ed5d10fef072bd6b8ef893f0d417b545d1a76b[ALL] 02de58531208d9ddb610028755f461d1c3a49a60a7e577813a6a46a90a74dfdd88"}, "vout": 17, "txid": "1248f034220a0cf64ff224eb476b2a8d114f18a3dd888a27ae4f7ca1720c7764"}], "txid": "8cf5365f7dbe571c593562c1c166c86d3fed5db3953026b45bbfdb88db46c7f0", "blocktime": 1537874412, "version": 1, "confirmations": 11468, "time": 1537874412, "locktime": 0, "vsize": 518, "size": 518}