{"hash": "a33504bb938fe0dab3fd9ba473b15c9270dcfa0a9ef04445e7ee467e4608c668", "blockhash": "000000000000000000022b45ed06c6f4ccd3cf7fb5ba4856ebd2e58215665228", "vout": [{"scriptPubKey": {"reqSigs": 1, "hex": "a914e67b4d7ddec9f5d0885b7a3a0d5f90ad1027c28d87", "addresses": ["3Nhh3tP1ftYdNWNp3b3uDUdRpUUXGmi7jV"], "asm": "OP_HASH160 e67b4d7ddec9f5d0885b7a3a0d5f90ad1027c28d OP_EQUAL", "type": "scripthash"}, "value": 0.0002988, "n": 0}, {"scriptPubKey": {"reqSigs": 1, "hex": "a9140608354ae2f5ead93d570d98d071aa38de073f1b87", "addresses": ["32Eup1TPADYTAa46wq48c7qmg7AuFwigeM"], "asm": "OP_HASH160 0608354ae2f5ead93d570d98d071aa38de073f1b OP_EQUAL", "type": "scripthash"}, "value": 0.001326, "n": 1}, {"scriptPubKey": {"reqSigs": 1, "hex": "76a914530c78e1613b717796b4285090ff6e8e0ef63e6488ac", "addresses": ["18a82WHBZWqrcn3yWD4Rna5JGYoH1ebVft"], "asm": "OP_DUP OP_HASH160 530c78e1613b717796b4285090ff6e8e0ef63e64 OP_EQUALVERIFY OP_CHECKSIG", "type": "pubkeyhash"}, "value": 0.0118398, "n": 2}, {"scriptPubKey": {"reqSigs": 1, "hex": "76a914565119e34cd720ec3b61f6f7c8ecaaccbf80fb6f88ac", "addresses": ["18sQGW8sXpnpt7JN9xMNCFtEwpx8aaCuMB"], "asm": "OP_DUP OP_HASH160 565119e34cd720ec3b61f6f7c8ecaaccbf80fb6f OP_EQUALVERIFY OP_CHECKSIG", "type": "pubkeyhash"}, "value": 0.0273493, "n": 3}], "hex": "01000000000103da09bddb6d382a6e37f018faf0ef54b9837217c868dce9c23050262fc0161fc101000000171600143ba1dbc5e6dc64b501287ee8f4e4b411a5ba0b0bffffffff888d1a81bd40502db8de2d9553c218dd8b069d11fb9d755e7c883383925107e9010000001716001431022a08b018c44ba5f38dde9381513f33c6737afffffffff0335c27bfb7b913cf21752e98550f24c20e46ef12abcba7df875febee96f29f0100000017160014964b8337fc889f57292c8143b796fc0396030d49ffffffff04b87400000000000017a914e67b4d7ddec9f5d0885b7a3a0d5f90ad1027c28d87f80502000000000017a9140608354ae2f5ead93d570d98d071aa38de073f1b87ec101200000000001976a914530c78e1613b717796b4285090ff6e8e0ef63e6488ac52bb2900000000001976a914565119e34cd720ec3b61f6f7c8ecaaccbf80fb6f88ac024730440220186935933927e4417fe64bcea4f458c3106d901bc3e3a7358ca96f736ebd8e2d02204093f3d0ab99a55f740f8a914a9e6ccbb34ba019ddf19fe59b4849f2932f5a2d012103c8e3e1acc5b863b9b53f28e7928f4d07e64006f30b355c8e9c91adefe6ef7f5202473044022049445e41655d9c2bc04055b03600f431fc2e3e90e0515a661e15c25ec3fda16c022001762569f093bb0dd21cbbc3cf08c8d9991f53d8ef533d7d46590394715ad53801210319c13d84f88e5d1c61fec51586d80117eb0c03bf4929a081ca93f54ae0f7448d024730440220648e85077df228a08bc7a0c3ca50e5180d48866eff9086404e211031b83b2ec302202096351dd316a122bf83c95d5c0b67ca9cc1b05c50abb9da6dba9f5021c04da2012102271729fd2603ca7b9791670bf62b012cf3bb4dee8ebffc03354dd8c6a85ac32200000000", "vin": [{"txinwitness": ["30440220186935933927e4417fe64bcea4f458c3106d901bc3e3a7358ca96f736ebd8e2d02204093f3d0ab99a55f740f8a914a9e6ccbb34ba019ddf19fe59b4849f2932f5a2d01", "03c8e3e1acc5b863b9b53f28e7928f4d07e64006f30b355c8e9c91adefe6ef7f52"], "sequence": 4294967295, "scriptSig": {"hex": "1600143ba1dbc5e6dc64b501287ee8f4e4b411a5ba0b0b", "asm": "00143ba1dbc5e6dc64b501287ee8f4e4b411a5ba0b0b"}, "vout": 1, "txid": "c11f16c02f265030c2e9dc68c8177283b954eff0fa18f0376e2a386ddbbd09da"}, {"txinwitness": ["3044022049445e41655d9c2bc04055b03600f431fc2e3e90e0515a661e15c25ec3fda16c022001762569f093bb0dd21cbbc3cf08c8d9991f53d8ef533d7d46590394715ad53801", "0319c13d84f88e5d1c61fec51586d80117eb0c03bf4929a081ca93f54ae0f7448d"], "sequence": 4294967295, "scriptSig": {"hex": "16001431022a08b018c44ba5f38dde9381513f33c6737a", "asm": "001431022a08b018c44ba5f38dde9381513f33c6737a"}, "vout": 1, "txid": "e90751928333887c5e759dfb119d068bdd18c253952ddeb82d5040bd811a8d88"}, {"txinwitness": ["30440220648e85077df228a08bc7a0c3ca50e5180d48866eff9086404e211031b83b2ec302202096351dd316a122bf83c95d5c0b67ca9cc1b05c50abb9da6dba9f5021c04da201", "02271729fd2603ca7b9791670bf62b012cf3bb4dee8ebffc03354dd8c6a85ac322"], "sequence": 4294967295, "scriptSig": {"hex": "160014964b8337fc889f57292c8143b796fc0396030d49", "asm": "0014964b8337fc889f57292c8143b796fc0396030d49"}, "vout": 1, "txid": "9ff296eeeb5f87dfa7cbab12ef460ec2240f55982e7521cf13b9b7bf275c33f0"}], "txid": "8cfa717667979666846438e24fc1c203e17825c5cfeaa45cada243cdc7be8e5e", "blocktime": 1537869901, "version": 1, "confirmations": 11522, "time": 1537869901, "locktime": 0, "vsize": 415, "size": 657}