{"hash": "0f43ac719a7c63f96ed805718274f8f23cecb4940f330f890112e4068b559980", "blockhash": "00000000000000000024a2167bbff67b0be802c0b01cdd79e6331c2be6459f87", "vout": [{"scriptPubKey": {"reqSigs": 1, "hex": "a9141988a27e3c2df4ddee7fad5a2303d086179b2a3087", "addresses": ["3422VtS7UtCvXYxoXMVp6eZupR252z85oC"], "asm": "OP_HASH160 1988a27e3c2df4ddee7fad5a2303d086179b2a30 OP_EQUAL", "type": "scripthash"}, "value": 0.92923566, "n": 0}, {"scriptPubKey": {"reqSigs": 1, "hex": "76a914934c30c7a66d111c8c58bdd1871d549b843dc30f88ac", "addresses": ["1ERqc1e9k713hZfuh3UhY1TspHYFohnKCV"], "asm": "OP_DUP OP_HASH160 934c30c7a66d111c8c58bdd1871d549b843dc30f OP_EQUALVERIFY OP_CHECKSIG", "type": "pubkeyhash"}, "value": 0.0156178, "n": 1}, {"scriptPubKey": {"reqSigs": 1, "hex": "76a914dffec94e168d086956a59e560aefb751b403278088ac", "addresses": ["1MRNueMM7GCgsKDA9ELrtkvHpizF2bpTnr"], "asm": "OP_DUP OP_HASH160 dffec94e168d086956a59e560aefb751b4032780 OP_EQUALVERIFY OP_CHECKSIG", "type": "pubkeyhash"}, "value": 0.0069, "n": 2}], "hex": "01000000000101b19e4209b565c0474c7f5cd7b61924c52ea1706ecf50141a7785421e020ff6a3030000002322002065d416c48a8072e0ac51c2d111eb194f009caef0332446c1bf2097316cf07fa9ffffffff03aee689050000000017a9141988a27e3c2df4ddee7fad5a2303d086179b2a3087b4d41700000000001976a914934c30c7a66d111c8c58bdd1871d549b843dc30f88ac50870a00000000001976a914dffec94e168d086956a59e560aefb751b403278088ac0400483045022100b5341d37b9f93cb77ff88dce4d9b12e97db168a353bd561c34d36ccc24e4c65902201c9ac0e1e87965d4a1671de9cb32bfeeabbeaff6fafc4c04a0ab82b0d65e55f101483045022100e989877d3f1cfb6fb196d6e793be32ea785f69c1afc204ab5e352bb452d04a4902202d5575b7186e9ec510873c68aaf1d650423edc5c2573138edbd0adec3e6360490169522102f44abcf9e23c9a460da309ccca56c619c04eed3bde2c2cff5e7d78fbcd980b9c2103c9443cf3047bb6c2c82f1b0c44c36109cdc3d0d601d16d1189a1602bf8d1a0a02103bfe867059274412412e088af5572b92168c2ef495cfe6c9b7a753a009eb37c4853ae00000000", "vin": [{"txinwitness": ["", "3045022100b5341d37b9f93cb77ff88dce4d9b12e97db168a353bd561c34d36ccc24e4c65902201c9ac0e1e87965d4a1671de9cb32bfeeabbeaff6fafc4c04a0ab82b0d65e55f101", "3045022100e989877d3f1cfb6fb196d6e793be32ea785f69c1afc204ab5e352bb452d04a4902202d5575b7186e9ec510873c68aaf1d650423edc5c2573138edbd0adec3e63604901", "522102f44abcf9e23c9a460da309ccca56c619c04eed3bde2c2cff5e7d78fbcd980b9c2103c9443cf3047bb6c2c82f1b0c44c36109cdc3d0d601d16d1189a1602bf8d1a0a02103bfe867059274412412e088af5572b92168c2ef495cfe6c9b7a753a009eb37c4853ae"], "sequence": 4294967295, "scriptSig": {"hex": "22002065d416c48a8072e0ac51c2d111eb194f009caef0332446c1bf2097316cf07fa9", "asm": "002065d416c48a8072e0ac51c2d111eb194f009caef0332446c1bf2097316cf07fa9"}, "vout": 3, "txid": "a3f60f021e4285771a1450cf6e70a12ec52419b6d75c7f4c47c065b509429eb1"}], "txid": "8cfa20bdb388c7c61ab0b48323997268cabe50b24f974f412360e2d312d0168e", "blocktime": 1537870564, "version": 1, "confirmations": 11515, "time": 1537870564, "locktime": 0, "vsize": 250, "size": 442}