{"hash": "8cfbaeb18f03ed93c0bab556d3b645c3647b84133eaa6fb154d0d1b67559aace", "blockhash": "00000000000000000018f53835495a110e01622372bf6ae95dc86f2b0ab887b0", "vout": [{"scriptPubKey": {"reqSigs": 1, "hex": "76a9145210362572285f198f3264ab528524ba14d587b288ac", "addresses": ["18Uuq8H7Ln9aEueAwGhnPdNdRkEUFcGHnQ"], "asm": "OP_DUP OP_HASH160 5210362572285f198f3264ab528524ba14d587b2 OP_EQUALVERIFY OP_CHECKSIG", "type": "pubkeyhash"}, "value": 0.02942202, "n": 0}, {"scriptPubKey": {"reqSigs": 1, "hex": "76a91423e480698f1b7caee05ab9de7d8c86c5c2d3d66388ac", "addresses": ["14GnPHVRYXFRAQaaBoBKqJt4A1g6xT3Xi4"], "asm": "OP_DUP OP_HASH160 23e480698f1b7caee05ab9de7d8c86c5c2d3d663 OP_EQUALVERIFY OP_CHECKSIG", "type": "pubkeyhash"}, "value": 0.0426996, "n": 1}], "hex": "0100000001e36cf5a296e559761fdea3cbff4b297c543baf55cb236ab6e7167e16e51fe2ec010000006a4730440220182ecb487af3346d32dac58220da3e87854fc55b2d171839c8a9c198330a6f84022000ba60d018596890682e4e13235ff40a6daab37aecc3f9bef21c8b63a435f931012103a768433a98dfd1c4d6d348dd9f8c031f90b828405067776ada7183a1ff081930ffffffff02fae42c00000000001976a9145210362572285f198f3264ab528524ba14d587b288ac88274100000000001976a91423e480698f1b7caee05ab9de7d8c86c5c2d3d66388ac00000000", "vin": [{"sequence": 4294967295, "scriptSig": {"hex": "4730440220182ecb487af3346d32dac58220da3e87854fc55b2d171839c8a9c198330a6f84022000ba60d018596890682e4e13235ff40a6daab37aecc3f9bef21c8b63a435f931012103a768433a98dfd1c4d6d348dd9f8c031f90b828405067776ada7183a1ff081930", "asm": "30440220182ecb487af3346d32dac58220da3e87854fc55b2d171839c8a9c198330a6f84022000ba60d018596890682e4e13235ff40a6daab37aecc3f9bef21c8b63a435f931[ALL] 03a768433a98dfd1c4d6d348dd9f8c031f90b828405067776ada7183a1ff081930"}, "vout": 1, "txid": "ece21fe5167e16e7b66a23cb55af3b547c294bffcba3de1f7659e596a2f56ce3"}], "txid": "8cfbaeb18f03ed93c0bab556d3b645c3647b84133eaa6fb154d0d1b67559aace", "blocktime": 1537870928, "version": 1, "confirmations": 11514, "time": 1537870928, "locktime": 0, "vsize": 225, "size": 225}