{"hash": "556349d9d1e62fbeda556cb4ef4e60b8f56f5530e7e2379616b43ec146c6023b", "blockhash": "00000000000000000017f5eb5941039fbcee6240d03bc1f2f8e35350df66a1d8", "vout": [{"scriptPubKey": {"reqSigs": 1, "hex": "a914bde1266576788d7af4f0a5ae836531c7c973006387", "addresses": ["3K11MVfJfQHGBEKNQ41cZKFK7fQL2HBoH3"], "asm": "OP_HASH160 bde1266576788d7af4f0a5ae836531c7c9730063 OP_EQUAL", "type": "scripthash"}, "value": 0.01251091, "n": 0}, {"scriptPubKey": {"reqSigs": 1, "hex": "a914839e06f394cadbca2903ee776230752b1456166e87", "addresses": ["3DgwkbL7xpvmbiViPxbfD2vGY9kqKyQLPz"], "asm": "OP_HASH160 839e06f394cadbca2903ee776230752b1456166e OP_EQUAL", "type": "scripthash"}, "value": 0.00247, "n": 1}], "hex": "020000000001016cd1457fd1a5eb9de933d77081e10ce29ef4f338c0c9a8cba0f209e12745127901000000171600149d086394c42cd159cfb5dd273a33c9965f75333cfeffffff02131713000000000017a914bde1266576788d7af4f0a5ae836531c7c973006387d8c403000000000017a914839e06f394cadbca2903ee776230752b1456166e870247304402200c654fe5a0013b0ff357c5027e288fe9aa13c2e27aaf80de32edeb1bb179e979022055dbd12727cbf6289fa16564ffdec1d4d972878f8d72a18b8e6354c989f37dfd012102dc1dc6da0fbe7805ab78271c2c1d2fdb4787a3d82f00cf6cfcdde352c6c7e14d15490800", "vin": [{"txinwitness": ["304402200c654fe5a0013b0ff357c5027e288fe9aa13c2e27aaf80de32edeb1bb179e979022055dbd12727cbf6289fa16564ffdec1d4d972878f8d72a18b8e6354c989f37dfd01", "02dc1dc6da0fbe7805ab78271c2c1d2fdb4787a3d82f00cf6cfcdde352c6c7e14d"], "sequence": 4294967294, "scriptSig": {"hex": "1600149d086394c42cd159cfb5dd273a33c9965f75333c", "asm": "00149d086394c42cd159cfb5dd273a33c9965f75333c"}, "vout": 1, "txid": "79124527e109f2a0cba8c9c038f3f49ee20ce18170d733e99deba5d17f45d16c"}], "txid": "8cfc8cd608edef0201e45ded66f94c941b001a1d0011d308b2e689e695f89939", "blocktime": 1537874412, "version": 2, "confirmations": 11467, "time": 1537874412, "locktime": 542997, "vsize": 166, "size": 247}