{"hash": "8d03255927fc69dc9abe4b0a68da52f783a04748a268c4ac994660a2e05fcb3d", "blockhash": "00000000000000000017f5eb5941039fbcee6240d03bc1f2f8e35350df66a1d8", "vout": [{"scriptPubKey": {"reqSigs": 1, "hex": "76a914189417c7c2ff1f199fc582f54d47d48282a6016e88ac", "addresses": ["13ExdH9hSEXGPVAcUtLaEp4qeKVpKtYNJv"], "asm": "OP_DUP OP_HASH160 189417c7c2ff1f199fc582f54d47d48282a6016e OP_EQUALVERIFY OP_CHECKSIG", "type": "pubkeyhash"}, "value": 0.00243408, "n": 0}, {"scriptPubKey": {"reqSigs": 1, "hex": "76a9147d062f9d43eae2f359ad8f96d69cd304a8e6b6c388ac", "addresses": ["1CQ4snmjmPVT1siGNKGrXMRLGwebbinLCM"], "asm": "OP_DUP OP_HASH160 7d062f9d43eae2f359ad8f96d69cd304a8e6b6c3 OP_EQUALVERIFY OP_CHECKSIG", "type": "pubkeyhash"}, "value": 2.661e-05, "n": 1}], "hex": "0100000001e6819f1ad5571aedeafb4fde55fb1f2e5b68fd428e31071ee7f5cf2c1c39e311110000006b483045022100ced9e88110f734ff43deb3c35a82f86d30f606260a77c96cda573c4bb3dbba21022044321a720c9d07a2e7ee4cf7dfcb483e89c5ecd5028d3281aba99030d3abd1e40121029d10f71b2e3f4c1e39d15b6c6e88f5469ff472405ce02793e4a203aed3a74286ffffffff02d0b60300000000001976a914189417c7c2ff1f199fc582f54d47d48282a6016e88ac650a0000000000001976a9147d062f9d43eae2f359ad8f96d69cd304a8e6b6c388ac00000000", "vin": [{"sequence": 4294967295, "scriptSig": {"hex": "483045022100ced9e88110f734ff43deb3c35a82f86d30f606260a77c96cda573c4bb3dbba21022044321a720c9d07a2e7ee4cf7dfcb483e89c5ecd5028d3281aba99030d3abd1e40121029d10f71b2e3f4c1e39d15b6c6e88f5469ff472405ce02793e4a203aed3a74286", "asm": "3045022100ced9e88110f734ff43deb3c35a82f86d30f606260a77c96cda573c4bb3dbba21022044321a720c9d07a2e7ee4cf7dfcb483e89c5ecd5028d3281aba99030d3abd1e4[ALL] 029d10f71b2e3f4c1e39d15b6c6e88f5469ff472405ce02793e4a203aed3a74286"}, "vout": 17, "txid": "11e3391c2ccff5e71e07318e42fd685b2e1ffb55de4ffbeaed1a57d51a9f81e6"}], "txid": "8d03255927fc69dc9abe4b0a68da52f783a04748a268c4ac994660a2e05fcb3d", "blocktime": 1537874412, "version": 1, "confirmations": 11466, "time": 1537874412, "locktime": 0, "vsize": 226, "size": 226}