{"hash": "8e867584e003d19b852f1c98a113278ba9e2327f0c83baacce984b460c46475b", "blockhash": "0000000000000000001f0ddff1eddb255c1121bcd4da4f1bc9a0da00cae72433", "vout": [{"scriptPubKey": {"reqSigs": 1, "hex": "a914ae48839f7143b3d98e1268399373378c2e19bd2087", "addresses": ["3HaYNHzhoEMdUYYEZUqGdfHkBLNFhgr7Tj"], "asm": "OP_HASH160 ae48839f7143b3d98e1268399373378c2e19bd20 OP_EQUAL", "type": "scripthash"}, "value": 0.00241721, "n": 0}, {"scriptPubKey": {"reqSigs": 1, "hex": "a914934b7380d85dcebfe686f946ae6ab7b1463c810e87", "addresses": ["3F7qeBa2pnLJCGKUCNQQhKf9WkUogdwXTe"], "asm": "OP_HASH160 934b7380d85dcebfe686f946ae6ab7b1463c810e OP_EQUAL", "type": "scripthash"}, "value": 0.46, "n": 1}], "hex": "01000000000101ff2c674df2e3e98637a24521729bafc1c499fdfdbf0017541767d9371d1efde0010000001716001478a8d821b513aa4dbcf77858f9cc7e2c3f889fc8fdffffff0239b003000000000017a914ae48839f7143b3d98e1268399373378c2e19bd208780e7bd020000000017a914934b7380d85dcebfe686f946ae6ab7b1463c810e8702483045022100efda54f211aae190b2a26609e661fa962038eec243f9fb730793ef052460c25002205764c82b37de5cb4111266bb0b7c56ea126ab4684c22585489a7a7cbf605cac40121022c9f16a37359783dcc550c8c8163f8e7c96cf35d7d733181d775813fd335ece611490800", "vin": [{"txinwitness": ["3045022100efda54f211aae190b2a26609e661fa962038eec243f9fb730793ef052460c25002205764c82b37de5cb4111266bb0b7c56ea126ab4684c22585489a7a7cbf605cac401", "022c9f16a37359783dcc550c8c8163f8e7c96cf35d7d733181d775813fd335ece6"], "sequence": 4294967293, "scriptSig": {"hex": "16001478a8d821b513aa4dbcf77858f9cc7e2c3f889fc8", "asm": "001478a8d821b513aa4dbcf77858f9cc7e2c3f889fc8"}, "vout": 1, "txid": "e0fd1e1d37d96717541700bffdfd99c4c1af9b722145a23786e9e3f24d672cff"}], "txid": "8d041ed033dbefbf6908ec60e676a5ebe6bd510f249a5610310c0f1ec436bdbb", "blocktime": 1537872018, "version": 1, "confirmations": 11489, "time": 1537872018, "locktime": 542993, "vsize": 166, "size": 248}