{"hash": "8d06428c0764dc59c646c93e5c576b522e14392b1085eb678262d9ca6cd91ef3", "blockhash": "00000000000000000004ffacab907a6b429b9a5745fa0b75af4234bf69dd7176", "vout": [{"scriptPubKey": {"reqSigs": 1, "hex": "76a91403fe29d2eafcb1767b2f9027e14c15c48e190ab988ac", "addresses": ["1N7WA4y8AJ8duyD2MBEJKUemSFrSwrXiM"], "asm": "OP_DUP OP_HASH160 03fe29d2eafcb1767b2f9027e14c15c48e190ab9 OP_EQUALVERIFY OP_CHECKSIG", "type": "pubkeyhash"}, "value": 0.00774652, "n": 0}], "hex": "0100000001dedbec40ae13db4b3c07362047eb9d9a4fa0929e17d395cc5fd46a5ec3e2c5c7000000006a47304402202b35e9d6de939f0e0d4da2aa862e856cd1faee32689f18abd79c2827604be94d02204baae68f69f475adf99dfa641d1c0b8c16690d7f2b3e1e099e2a3a84290e1357012102b0fa318b40bf5f4f9ad62d880d02e2846b7aec8a9af15fb29c172bdd7768ab87ffffffff01fcd10b00000000001976a91403fe29d2eafcb1767b2f9027e14c15c48e190ab988ac00000000", "vin": [{"sequence": 4294967295, "scriptSig": {"hex": "47304402202b35e9d6de939f0e0d4da2aa862e856cd1faee32689f18abd79c2827604be94d02204baae68f69f475adf99dfa641d1c0b8c16690d7f2b3e1e099e2a3a84290e1357012102b0fa318b40bf5f4f9ad62d880d02e2846b7aec8a9af15fb29c172bdd7768ab87", "asm": "304402202b35e9d6de939f0e0d4da2aa862e856cd1faee32689f18abd79c2827604be94d02204baae68f69f475adf99dfa641d1c0b8c16690d7f2b3e1e099e2a3a84290e1357[ALL] 02b0fa318b40bf5f4f9ad62d880d02e2846b7aec8a9af15fb29c172bdd7768ab87"}, "vout": 0, "txid": "c7c5e2c35e6ad45fcc95d3179e92a04f9a9deb472036073c4bdb13ae40ecdbde"}], "txid": "8d06428c0764dc59c646c93e5c576b522e14392b1085eb678262d9ca6cd91ef3", "blocktime": 1537875543, "version": 1, "confirmations": 11464, "time": 1537875543, "locktime": 0, "vsize": 191, "size": 191}