{"hash": "064ca57e980a04969240c546b924cd833a622757bfa446432c0940708ff8cb63", "blockhash": "00000000000000000004ffacab907a6b429b9a5745fa0b75af4234bf69dd7176", "vout": [{"scriptPubKey": {"reqSigs": 1, "hex": "a914a9b2d9ba794258729e3b73721aa02a9c9811cf2787", "addresses": ["3HAJNiMV4JY1MVLFzf8ZXvugA4m1ePRSBt"], "asm": "OP_HASH160 a9b2d9ba794258729e3b73721aa02a9c9811cf27 OP_EQUAL", "type": "scripthash"}, "value": 0.007029, "n": 0}, {"scriptPubKey": {"reqSigs": 1, "hex": "00142f2e5008ddd1460f33f375e60ed61121c0301659", "addresses": ["bc1q9uh9qzxa69rq7vlnwhnqa4s3y8qrq9jewy6qf6"], "asm": "0 2f2e5008ddd1460f33f375e60ed61121c0301659", "type": "witness_v0_keyhash"}, "value": 0.11845662, "n": 1}], "hex": "010000000001011f21f97d70e9cab8ae685d470699a068083c2dd85c16d787e9e32fab5a10fb190100000000ffffffff02b4b90a000000000017a914a9b2d9ba794258729e3b73721aa02a9c9811cf27871ec0b400000000001600142f2e5008ddd1460f33f375e60ed61121c030165902473044022047751830f4622ac7631430259b6d041dd4afd368910b6a2191717a0188de1614022030d9dd9c64feaec40f0099d532408a0d19d7749a483253007a033fdd0e7921d1012102dd8d0d2acd5cb885b943f5f7bdb40cb7474492c186e489de778b93c2af090f3700000000", "vin": [{"txinwitness": ["3044022047751830f4622ac7631430259b6d041dd4afd368910b6a2191717a0188de1614022030d9dd9c64feaec40f0099d532408a0d19d7749a483253007a033fdd0e7921d101", "02dd8d0d2acd5cb885b943f5f7bdb40cb7474492c186e489de778b93c2af090f37"], "sequence": 4294967295, "scriptSig": {"hex": "", "asm": ""}, "vout": 1, "txid": "19fb105aab2fe3e987d7165cd82d3c0868a09906475d68aeb8cae9707df9211f"}], "txid": "8d109fa09c5b2690498506431a58dc650aabf8763acc0beb7d5bd6020955076b", "blocktime": 1537875543, "version": 1, "confirmations": 11464, "time": 1537875543, "locktime": 0, "vsize": 142, "size": 223}