{"hash": "99d5bf0ba38c8430ca962907952d468f9f9baada458653633892fa3d645b2c17", "blockhash": "0000000000000000001cda96e906b7601b7a6fb1a3b62bca570a9e5d8f4b3de1", "vout": [{"scriptPubKey": {"reqSigs": 1, "hex": "a914ae65f07233770312c6ef18a58afb403093a0b2e387", "addresses": ["3Hb9cnUxv2yzpYc6SWawET7haEEkqf2mBN"], "asm": "OP_HASH160 ae65f07233770312c6ef18a58afb403093a0b2e3 OP_EQUAL", "type": "scripthash"}, "value": 0.0099973, "n": 0}, {"scriptPubKey": {"reqSigs": 1, "hex": "76a9144491e8e533d87be9d6b44f08447764706a7f3ec188ac", "addresses": ["17FZk2pnPWd8THfT7oUS2APsPKXqqyB9h4"], "asm": "OP_DUP OP_HASH160 4491e8e533d87be9d6b44f08447764706a7f3ec1 OP_EQUALVERIFY OP_CHECKSIG", "type": "pubkeyhash"}, "value": 0.0025756, "n": 1}], "hex": "02000000000102343faa24f98ffb793e5a1475e2e85607929536c652583b62488b5fc4527a10c80700000017160014df09be264047511aea3df7935a96afb9f6ab261bfeffffffa497e28f0e96b61ac653a942694816670cd3bd528c6df6baa3cfcb72bc02e9620100000017160014aa81e629225089f1b2164751c830858c11859581feffffff0232410f000000000017a914ae65f07233770312c6ef18a58afb403093a0b2e38718ee0300000000001976a9144491e8e533d87be9d6b44f08447764706a7f3ec188ac02483045022100ef26e5837603657decbfd81bf01b42e132fb7974e5bc30c723d4720863ba5c9902202aa3529e5396e2e4118c3b34d82acbb47f1fed644f41f101531032e60494059f0121035ea8fa955cc11b61a2e79812944c8816687cbbc299c337007fbf84de645bd782024830450221009e9ae116353d1eb76a6201f3b860efce9eb6077be3a1fc71d50c10dfcfb6b07a02205086519eca6cf70da592b87b1e2680d0962b4ac5f88843730f6fa0d808286c5d012103f8ff01ab4fe13a0db43e6ea6dfde1efdd5669617e478783e159eada7306cdaeb13490800", "vin": [{"txinwitness": ["3045022100ef26e5837603657decbfd81bf01b42e132fb7974e5bc30c723d4720863ba5c9902202aa3529e5396e2e4118c3b34d82acbb47f1fed644f41f101531032e60494059f01", "035ea8fa955cc11b61a2e79812944c8816687cbbc299c337007fbf84de645bd782"], "sequence": 4294967294, "scriptSig": {"hex": "160014df09be264047511aea3df7935a96afb9f6ab261b", "asm": "0014df09be264047511aea3df7935a96afb9f6ab261b"}, "vout": 7, "txid": "c8107a52c45f8b48623b5852c63695920756e8e275145a3e79fb8ff924aa3f34"}, {"txinwitness": ["30450221009e9ae116353d1eb76a6201f3b860efce9eb6077be3a1fc71d50c10dfcfb6b07a02205086519eca6cf70da592b87b1e2680d0962b4ac5f88843730f6fa0d808286c5d01", "03f8ff01ab4fe13a0db43e6ea6dfde1efdd5669617e478783e159eada7306cdaeb"], "sequence": 4294967294, "scriptSig": {"hex": "160014aa81e629225089f1b2164751c830858c11859581", "asm": "0014aa81e629225089f1b2164751c830858c11859581"}, "vout": 1, "txid": "62e902bc72cbcfa3baf66d8c52bdd30c6716486942a953c61ab6960e8fe297a4"}], "txid": "8d1161a6703bd167ef0f8ec048c81a2c4926533f2c4180de8d7a964c28cef174", "blocktime": 1537873282, "version": 2, "confirmations": 11485, "time": 1537873282, "locktime": 542995, "vsize": 259, "size": 422}