{"hash": "8d182f7103c1ab3eaee8d2c47f63a4f2f0feba163eac719c17b5de9140b5bf46", "blockhash": "00000000000000000004ffacab907a6b429b9a5745fa0b75af4234bf69dd7176", "vout": [{"scriptPubKey": {"reqSigs": 1, "hex": "76a914febf2b50abcefd31e966b63de8c3b18fa01122a788ac", "addresses": ["1QDyePqgcwepVPFZSps5oELwFrwYvKZdgu"], "asm": "OP_DUP OP_HASH160 febf2b50abcefd31e966b63de8c3b18fa01122a7 OP_EQUALVERIFY OP_CHECKSIG", "type": "pubkeyhash"}, "value": 0.00067115, "n": 0}, {"scriptPubKey": {"reqSigs": 1, "hex": "a914e3ce804cc15a113999e5b690a6bc29d577af585487", "addresses": ["3NTYh3Q7YD28DSGxsVtyFBAMkCCte1m8Gv"], "asm": "OP_HASH160 e3ce804cc15a113999e5b690a6bc29d577af5854 OP_EQUAL", "type": "scripthash"}, "value": 0.288, "n": 1}], "hex": "01000000030b5159b52c3f5dafe5636a3bbb7b9a0c41e10bcaf802c934c8afcf2402a0808e010000006a47304402203955e03ffc42ee2d60b3cca8e56035b2b33dcd18c63a5f511ebcca1afc8560af022057fcf376ee1f4a2ec1417df1c448d65c1806a3bec3f52e4e58eac8530efa7a9c01210369ac8a7150711cb2c5e82915df10a51711195a7a5771f6382ab2a82be665300affffffff9eff4fd8d8381274904ed1e4dbcfc920ba43b4170820bfa88be858dab948014e010000006a473044022026d1b25e69c72fef81b0119f3962f60d2aabd25e97549aedc4b7290019fd6d3a02202d8c50c1b9849a67ff663a71e93d50a1dd33583721483ce937c0cc3293286d4b012103ca9a23fff8b4f22169835715b90b58eb713a766d3ef541d5496028cdee16efbcffffffff684a4085897ae328a4c0adf3686c66c93ab6735c4d6551a1e618cf88bca96072030000006a47304402201375be352b567ee843e9a9d07b1403e2f95cf2a9b096a1ba9804b7544d366420022074b9ad7019acb569f4be14dbfb293ad195004b226cee95e826cdbabc30855db5012103ca9a23fff8b4f22169835715b90b58eb713a766d3ef541d5496028cdee16efbcffffffff022b060100000000001976a914febf2b50abcefd31e966b63de8c3b18fa01122a788ac0074b7010000000017a914e3ce804cc15a113999e5b690a6bc29d577af58548700000000", "vin": [{"sequence": 4294967295, "scriptSig": {"hex": "47304402203955e03ffc42ee2d60b3cca8e56035b2b33dcd18c63a5f511ebcca1afc8560af022057fcf376ee1f4a2ec1417df1c448d65c1806a3bec3f52e4e58eac8530efa7a9c01210369ac8a7150711cb2c5e82915df10a51711195a7a5771f6382ab2a82be665300a", "asm": "304402203955e03ffc42ee2d60b3cca8e56035b2b33dcd18c63a5f511ebcca1afc8560af022057fcf376ee1f4a2ec1417df1c448d65c1806a3bec3f52e4e58eac8530efa7a9c[ALL] 0369ac8a7150711cb2c5e82915df10a51711195a7a5771f6382ab2a82be665300a"}, "vout": 1, "txid": "8e80a00224cfafc834c902f8ca0be1410c9a7bbb3b6a63e5af5d3f2cb559510b"}, {"sequence": 4294967295, "scriptSig": {"hex": "473044022026d1b25e69c72fef81b0119f3962f60d2aabd25e97549aedc4b7290019fd6d3a02202d8c50c1b9849a67ff663a71e93d50a1dd33583721483ce937c0cc3293286d4b012103ca9a23fff8b4f22169835715b90b58eb713a766d3ef541d5496028cdee16efbc", "asm": "3044022026d1b25e69c72fef81b0119f3962f60d2aabd25e97549aedc4b7290019fd6d3a02202d8c50c1b9849a67ff663a71e93d50a1dd33583721483ce937c0cc3293286d4b[ALL] 03ca9a23fff8b4f22169835715b90b58eb713a766d3ef541d5496028cdee16efbc"}, "vout": 1, "txid": "4e0148b9da58e88ba8bf200817b443ba20c9cfdbe4d14e90741238d8d84fff9e"}, {"sequence": 4294967295, "scriptSig": {"hex": "47304402201375be352b567ee843e9a9d07b1403e2f95cf2a9b096a1ba9804b7544d366420022074b9ad7019acb569f4be14dbfb293ad195004b226cee95e826cdbabc30855db5012103ca9a23fff8b4f22169835715b90b58eb713a766d3ef541d5496028cdee16efbc", "asm": "304402201375be352b567ee843e9a9d07b1403e2f95cf2a9b096a1ba9804b7544d366420022074b9ad7019acb569f4be14dbfb293ad195004b226cee95e826cdbabc30855db5[ALL] 03ca9a23fff8b4f22169835715b90b58eb713a766d3ef541d5496028cdee16efbc"}, "vout": 3, "txid": "7260a9bc88cf18e6a151654d5c73b63ac9666c68f3adc0a428e37a8985404a68"}], "txid": "8d182f7103c1ab3eaee8d2c47f63a4f2f0feba163eac719c17b5de9140b5bf46", "blocktime": 1537875543, "version": 1, "confirmations": 11464, "time": 1537875543, "locktime": 0, "vsize": 517, "size": 517}