{"hash": "708584ca01e1e0204c47ba55f0a1acdf033eeaee2b3f1bbcc1a287b728fe245e", "blockhash": "0000000000000000000dcc0f55137456b1a82d3642486a52398922ac4d620174", "vout": [{"scriptPubKey": {"reqSigs": 1, "hex": "a91426ac9cc508b840d161399c8dfb2ad3e6220a0a9d87", "addresses": ["35DWP9m2BnKKJGpQL6q11sbaLUKHyZypKU"], "asm": "OP_HASH160 26ac9cc508b840d161399c8dfb2ad3e6220a0a9d OP_EQUAL", "type": "scripthash"}, "value": 0.33153476, "n": 0}, {"scriptPubKey": {"reqSigs": 1, "hex": "a9147366352ed7a8fa7526b5624ed27a9d1faed8332e87", "addresses": ["3CDC585qG3Xf3ksPkabtPsojvGXLPMYjxf"], "asm": "OP_HASH160 7366352ed7a8fa7526b5624ed27a9d1faed8332e OP_EQUAL", "type": "scripthash"}, "value": 0.00156, "n": 1}], "hex": "01000000000101460b10060de0d12bb0bc5d0a74c1dc9c1490319e6eb17fec336652fc3f68eec700000000232200209d00f54a5dcf7256d5f92a4578ebb4a4fc01ef09b66e032efadebb26a454096cffffffff02c4e1f9010000000017a91426ac9cc508b840d161399c8dfb2ad3e6220a0a9d87606102000000000017a9147366352ed7a8fa7526b5624ed27a9d1faed8332e870400473044022069999b475b9022ece91f689ebd694039d0e7fc42be56323a80c26e5a6beccde302203542fcf4123b7dac17489f254cd466c6b92d2305276d65c4fab94816515994470147304402206a431895b7f0847ba00fa51ac333fb2de69175e309d0b4fafb4b815dba9110fe02202ec562a70efbcf56e162d12dbe7a2f513763379b4a8cc26505853a871d7af7ef01695221033819d29d6375b2d8f00e360f55810aba1ca4a83c6f604736ba6b781dd218409b2102635454a8181a4a43b6f3501fc88d901b671fafd172140eac881aa896c48862932103385e290727eaf9f4474291f767130faee400cb88b2ef2308b7ccc3e4df23000353ae00000000", "vin": [{"txinwitness": ["", "3044022069999b475b9022ece91f689ebd694039d0e7fc42be56323a80c26e5a6beccde302203542fcf4123b7dac17489f254cd466c6b92d2305276d65c4fab948165159944701", "304402206a431895b7f0847ba00fa51ac333fb2de69175e309d0b4fafb4b815dba9110fe02202ec562a70efbcf56e162d12dbe7a2f513763379b4a8cc26505853a871d7af7ef01", "5221033819d29d6375b2d8f00e360f55810aba1ca4a83c6f604736ba6b781dd218409b2102635454a8181a4a43b6f3501fc88d901b671fafd172140eac881aa896c48862932103385e290727eaf9f4474291f767130faee400cb88b2ef2308b7ccc3e4df23000353ae"], "sequence": 4294967295, "scriptSig": {"hex": "2200209d00f54a5dcf7256d5f92a4578ebb4a4fc01ef09b66e032efadebb26a454096c", "asm": "00209d00f54a5dcf7256d5f92a4578ebb4a4fc01ef09b66e032efadebb26a454096c"}, "vout": 0, "txid": "c7ee683ffc526633ec7fb16e9e3190149cdcc1740a5dbcb02bd1e00d06100b46"}], "txid": "8d1b7dc796b4d9cc728e5c89cd175d246ff927cce7ea7567b0a5695aa2a5560d", "blocktime": 1537870268, "version": 1, "confirmations": 11518, "time": 1537870268, "locktime": 0, "vsize": 214, "size": 404}