{"hash": "ee5ee36515a1fe97e0b248104137e6e23a0780d6fe3073a43aaec18fa2982043", "blockhash": "0000000000000000001cda96e906b7601b7a6fb1a3b62bca570a9e5d8f4b3de1", "vout": [{"scriptPubKey": {"reqSigs": 1, "hex": "76a9149a1b8f9b1fa2d2297863adb1cb11c71df455684888ac", "addresses": ["1F3r5We2zwNiSzG6GQUTTWnnPMCz2HJbJu"], "asm": "OP_DUP OP_HASH160 9a1b8f9b1fa2d2297863adb1cb11c71df4556848 OP_EQUALVERIFY OP_CHECKSIG", "type": "pubkeyhash"}, "value": 2.719e-05, "n": 0}, {"scriptPubKey": {"reqSigs": 1, "hex": "a914e8db75c900cf08f06518e96d167331f2a4abfb3387", "addresses": ["3NvFbQMAkkqEFj4i1sYPPLkSWzxTFUchjA"], "asm": "OP_HASH160 e8db75c900cf08f06518e96d167331f2a4abfb33 OP_EQUAL", "type": "scripthash"}, "value": 0.00017957, "n": 1}], "hex": "010000000001022b4b058332823f4b1a4de89fdd5d2c8f1e67311b54f19a8ed6e1efc8f45fb1200100000023220020941cfaff8837763dc1f69ff82b6d6553fdea17a41cfc29a04403293eedd8ccc7ffffffffd7b93864885683fb49ab18d51eb095e0410bfb6c54bf2c81d02585b3a51f75200100000023220020941cfaff8837763dc1f69ff82b6d6553fdea17a41cfc29a04403293eedd8ccc7ffffffff029f0a0000000000001976a9149a1b8f9b1fa2d2297863adb1cb11c71df455684888ac254600000000000017a914e8db75c900cf08f06518e96d167331f2a4abfb33870400483045022100a42f84c7659ee480dbd6d6f8a9d0579f5b2aeb9423e522ece3171dc8c4473baa02200e8e520ec7838597eea50bbf7d169693fc17a0544c7816dd796c9ea95881483a01473044022068d4c2f8cc394f74f7218a52a9cfd02289b74cdaf7a37fb4021da46235dfed2e02200729089deb46baefcea85d75a7033bfcf003ee4edcb185cfeb9d2f437c035ddd0147522102531db3a5883f29bab4241dd0cd726936667bcda445d89bdd22244e828b6993342103148c80a5bdfddb05ff5bcffc397c8ca748d8b435ec6a175bc9d7bfc7fc6f853752ae0400483045022100b093402a571dd99afa032ae03ec3fd88ced1ed1b15229b62cc9b5d33e45f8ac002206565402f024dac2f62fd61e0dfef0cb6f3e8608ab0c948fd54535975be35c3c501473044022035605cca0656f8c500f401a1aa27cb521c894a34124c4d29a58268e9377dc077022051ae36e3cbe78aff0124dfe34577665555b7b5711f336a098cf5c5ca74b004c50147522102531db3a5883f29bab4241dd0cd726936667bcda445d89bdd22244e828b6993342103148c80a5bdfddb05ff5bcffc397c8ca748d8b435ec6a175bc9d7bfc7fc6f853752ae00000000", "vin": [{"txinwitness": ["", "3045022100a42f84c7659ee480dbd6d6f8a9d0579f5b2aeb9423e522ece3171dc8c4473baa02200e8e520ec7838597eea50bbf7d169693fc17a0544c7816dd796c9ea95881483a01", "3044022068d4c2f8cc394f74f7218a52a9cfd02289b74cdaf7a37fb4021da46235dfed2e02200729089deb46baefcea85d75a7033bfcf003ee4edcb185cfeb9d2f437c035ddd01", "522102531db3a5883f29bab4241dd0cd726936667bcda445d89bdd22244e828b6993342103148c80a5bdfddb05ff5bcffc397c8ca748d8b435ec6a175bc9d7bfc7fc6f853752ae"], "sequence": 4294967295, "scriptSig": {"hex": "220020941cfaff8837763dc1f69ff82b6d6553fdea17a41cfc29a04403293eedd8ccc7", "asm": "0020941cfaff8837763dc1f69ff82b6d6553fdea17a41cfc29a04403293eedd8ccc7"}, "vout": 1, "txid": "20b15ff4c8efe1d68e9af1541b31671e8f2c5ddd9fe84d1a4b3f823283054b2b"}, {"txinwitness": ["", "3045022100b093402a571dd99afa032ae03ec3fd88ced1ed1b15229b62cc9b5d33e45f8ac002206565402f024dac2f62fd61e0dfef0cb6f3e8608ab0c948fd54535975be35c3c501", "3044022035605cca0656f8c500f401a1aa27cb521c894a34124c4d29a58268e9377dc077022051ae36e3cbe78aff0124dfe34577665555b7b5711f336a098cf5c5ca74b004c501", "522102531db3a5883f29bab4241dd0cd726936667bcda445d89bdd22244e828b6993342103148c80a5bdfddb05ff5bcffc397c8ca748d8b435ec6a175bc9d7bfc7fc6f853752ae"], "sequence": 4294967295, "scriptSig": {"hex": "220020941cfaff8837763dc1f69ff82b6d6553fdea17a41cfc29a04403293eedd8ccc7", "asm": "0020941cfaff8837763dc1f69ff82b6d6553fdea17a41cfc29a04403293eedd8ccc7"}, "vout": 1, "txid": "20751fa5b38525d0812cbf546cfb0b41e095b01ed518ab49fb8356886438b9d7"}], "txid": "8d215ecdb998035b1715d20521444f42a20ca6cca07d63efc7eae1f84b438bd5", "blocktime": 1537873282, "version": 1, "confirmations": 11484, "time": 1537873282, "locktime": 0, "vsize": 338, "size": 668}