{"hash": "e1c147292f79195cab129967ce2006a664e50b06fb20dee31ce1fb95309a2b64", "blockhash": "00000000000000000004ffacab907a6b429b9a5745fa0b75af4234bf69dd7176", "vout": [{"scriptPubKey": {"reqSigs": 1, "hex": "a9149e16f0afd854d00acd064ee60e20d7f176cdc9d087", "addresses": ["3G6vAmK9KYzV1VktUPQYpFRqpmXB39Ki8p"], "asm": "OP_HASH160 9e16f0afd854d00acd064ee60e20d7f176cdc9d0 OP_EQUAL", "type": "scripthash"}, "value": 0.00300825, "n": 0}, {"scriptPubKey": {"reqSigs": 1, "hex": "a9141988a27e3c2df4ddee7fad5a2303d086179b2a3087", "addresses": ["3422VtS7UtCvXYxoXMVp6eZupR252z85oC"], "asm": "OP_HASH160 1988a27e3c2df4ddee7fad5a2303d086179b2a30 OP_EQUAL", "type": "scripthash"}, "value": 2.61503674, "n": 1}], "hex": "010000000001019f883e8aedc41188f2dbf945eb9d41ac2b9529b3230c671a814c6c26c7257bf901000000232200202035e78a6b34d583ad0a874b80ee41a0507b92cf0b671656108f594c7f75ca90ffffffff02199704000000000017a9149e16f0afd854d00acd064ee60e20d7f176cdc9d087ba3a960f0000000017a9141988a27e3c2df4ddee7fad5a2303d086179b2a30870400483045022100cf0b84462f3a1899281cd29cfe95b6e36e747e760250e41e429f1799c8fe94fb02206675e27ba4b17504b4d97fcf868f17f6c66f969ad2ced771bb7d15a50182d928014830450221008da6c852a6e335a4c0c59998848fd7c7e62031397fbab426fe5d6518b2d052a1022048dfbcfb67a4425d82d191b4d1b055f3ccd521174fd6deb4fc358e5dab21cf9401695221029103d1dfbbee9ea5249ee0b03ca59e08291ce34a7467513edf8ea767b5aa26382103dce07bea5905a1c3e70f86c1f74f0e98e7cf3b6f5d02226a4c531c9e930c613b210268d8878afaf4b55118519d8520fe0db27f9596a812d4378f4bf4a96a5333694653ae00000000", "vin": [{"txinwitness": ["", "3045022100cf0b84462f3a1899281cd29cfe95b6e36e747e760250e41e429f1799c8fe94fb02206675e27ba4b17504b4d97fcf868f17f6c66f969ad2ced771bb7d15a50182d92801", "30450221008da6c852a6e335a4c0c59998848fd7c7e62031397fbab426fe5d6518b2d052a1022048dfbcfb67a4425d82d191b4d1b055f3ccd521174fd6deb4fc358e5dab21cf9401", "5221029103d1dfbbee9ea5249ee0b03ca59e08291ce34a7467513edf8ea767b5aa26382103dce07bea5905a1c3e70f86c1f74f0e98e7cf3b6f5d02226a4c531c9e930c613b210268d8878afaf4b55118519d8520fe0db27f9596a812d4378f4bf4a96a5333694653ae"], "sequence": 4294967295, "scriptSig": {"hex": "2200202035e78a6b34d583ad0a874b80ee41a0507b92cf0b671656108f594c7f75ca90", "asm": "00202035e78a6b34d583ad0a874b80ee41a0507b92cf0b671656108f594c7f75ca90"}, "vout": 1, "txid": "f97b25c7266c4c811a670c23b329952bac419deb45f9dbf28811c4ed8a3e889f"}], "txid": "8d25c5f6c8b0f2dc00bea2bf295e91e8dea7d0d3800672220776df3fbd4bc102", "blocktime": 1537875543, "version": 1, "confirmations": 11464, "time": 1537875543, "locktime": 0, "vsize": 214, "size": 406}