{"hash": "8d297598874065759c227be911ca076b639a0c45264048afe7a8e3b491045754", "blockhash": "0000000000000000000dcc0f55137456b1a82d3642486a52398922ac4d620174", "vout": [{"scriptPubKey": {"reqSigs": 1, "hex": "76a91454d17e5503651262d3730ed56c2724b505cb0ba788ac", "addresses": ["18jUiyd7ngtbUAFjhwDh48EmAx2AeDE3SL"], "asm": "OP_DUP OP_HASH160 54d17e5503651262d3730ed56c2724b505cb0ba7 OP_EQUALVERIFY OP_CHECKSIG", "type": "pubkeyhash"}, "value": 0.19080488, "n": 0}, {"scriptPubKey": {"reqSigs": 1, "hex": "76a914eecb0cbdbd8978b11e02b2319602504bf0967a4b88ac", "addresses": ["1Nmd4oTaxETg8f5VcrGjDoVkRv5P8M8jZS"], "asm": "OP_DUP OP_HASH160 eecb0cbdbd8978b11e02b2319602504bf0967a4b OP_EQUALVERIFY OP_CHECKSIG", "type": "pubkeyhash"}, "value": 0.45901287, "n": 1}], "hex": "0100000005d9e2abfbedf8e421f59b97f10ddb281595d99f395f49cb89ab70efdae7ea551c000000006b483045022100f8375a5efbca51ee36b60922ed9a821eed1ac75f067190bd8ee6f084a9456d1502204b49ea7371c4bb13b78876ce4529e0ece11c0d90dd6e6b0e964dc03a850a8b3b0121025615b9ac73d49d15f6d2e80ce68f6b8a4b9fc80e109b10b160eab5defdce9e97ffffffffac08065f011e5e86260af97c959e952b17858129b18f7082b074733d46a56943000000006a473044022065342e7652c4fcc4576be58882e2c47cf0b2498b177f9a3ec0dd09697752f27a0220181c2d209775fa8d85159adf18d0135e938dbd597f1c1c673603a203499bea22012103219633ba60942053b5fca0bb6db37c2cc23c909a1141946ab210f34ef94efc93ffffffffb6885bd09a2ce4df67bb54b2fa67a48079ee53ffcd603cfcbe9a7967a2f41f5e000000006a4730440220315d6167e58a952434f5aa6f58fb0aa62ce2dc005b6be0026d9768d8e8c37e82022050fc612063a7fa923aac1e85ae652c6e4cc8e9eac5f8a759799d9c3b7f18ad17012103c9af94627e62a384e85a99d2aebda9fa4de0e250a06ef76abc36173a12576bfbffffffff6d60f8a8c20985d6d6f0b15c2e95401d607ff0cfc2ae57b05463af9fdec4c594000000006a4730440220233d04f48153c6e0926174d8ad38c9515007f60669fca1cdd107a02d8457975b022073a32aa2e6d7e508b93dffb6e192895632386bc23cc92caad311c8341185b9d401210208ca1747279fb63dcaba72ed4fa6487ec6da0d67cd851a1f0669c4e61b044befffffffff1c0da9aed0b6d093e7f06a6ce9fe8b596e0d4a78b2cfdcc2a73b1a1ce6ec96f2000000006b483045022100ba17aaf777ca871ea7cb7ac54dbfbea39b3cf245661d97d90a6fc1ee94fe7edc02200d55b436e818611a49c52d18da9f7fd12f4a77e89474344c19c0fea484261e8a01210264caa8ae23f90ae30cc6c9b6cdc9b0ba546b9499a6210aa17cd60100df45f877ffffffff0228252301000000001976a91454d17e5503651262d3730ed56c2724b505cb0ba788ace765bc02000000001976a914eecb0cbdbd8978b11e02b2319602504bf0967a4b88ac00000000", "vin": [{"sequence": 4294967295, "scriptSig": {"hex": "483045022100f8375a5efbca51ee36b60922ed9a821eed1ac75f067190bd8ee6f084a9456d1502204b49ea7371c4bb13b78876ce4529e0ece11c0d90dd6e6b0e964dc03a850a8b3b0121025615b9ac73d49d15f6d2e80ce68f6b8a4b9fc80e109b10b160eab5defdce9e97", "asm": "3045022100f8375a5efbca51ee36b60922ed9a821eed1ac75f067190bd8ee6f084a9456d1502204b49ea7371c4bb13b78876ce4529e0ece11c0d90dd6e6b0e964dc03a850a8b3b[ALL] 025615b9ac73d49d15f6d2e80ce68f6b8a4b9fc80e109b10b160eab5defdce9e97"}, "vout": 0, "txid": "1c55eae7daef70ab89cb495f399fd9951528db0df1979bf521e4f8edfbabe2d9"}, {"sequence": 4294967295, "scriptSig": {"hex": "473044022065342e7652c4fcc4576be58882e2c47cf0b2498b177f9a3ec0dd09697752f27a0220181c2d209775fa8d85159adf18d0135e938dbd597f1c1c673603a203499bea22012103219633ba60942053b5fca0bb6db37c2cc23c909a1141946ab210f34ef94efc93", "asm": "3044022065342e7652c4fcc4576be58882e2c47cf0b2498b177f9a3ec0dd09697752f27a0220181c2d209775fa8d85159adf18d0135e938dbd597f1c1c673603a203499bea22[ALL] 03219633ba60942053b5fca0bb6db37c2cc23c909a1141946ab210f34ef94efc93"}, "vout": 0, "txid": "4369a5463d7374b082708fb1298185172b959e957cf90a26865e1e015f0608ac"}, {"sequence": 4294967295, "scriptSig": {"hex": "4730440220315d6167e58a952434f5aa6f58fb0aa62ce2dc005b6be0026d9768d8e8c37e82022050fc612063a7fa923aac1e85ae652c6e4cc8e9eac5f8a759799d9c3b7f18ad17012103c9af94627e62a384e85a99d2aebda9fa4de0e250a06ef76abc36173a12576bfb", "asm": "30440220315d6167e58a952434f5aa6f58fb0aa62ce2dc005b6be0026d9768d8e8c37e82022050fc612063a7fa923aac1e85ae652c6e4cc8e9eac5f8a759799d9c3b7f18ad17[ALL] 03c9af94627e62a384e85a99d2aebda9fa4de0e250a06ef76abc36173a12576bfb"}, "vout": 0, "txid": "5e1ff4a267799abefc3c60cdff53ee7980a467fab254bb67dfe42c9ad05b88b6"}, {"sequence": 4294967295, "scriptSig": {"hex": "4730440220233d04f48153c6e0926174d8ad38c9515007f60669fca1cdd107a02d8457975b022073a32aa2e6d7e508b93dffb6e192895632386bc23cc92caad311c8341185b9d401210208ca1747279fb63dcaba72ed4fa6487ec6da0d67cd851a1f0669c4e61b044bef", "asm": "30440220233d04f48153c6e0926174d8ad38c9515007f60669fca1cdd107a02d8457975b022073a32aa2e6d7e508b93dffb6e192895632386bc23cc92caad311c8341185b9d4[ALL] 0208ca1747279fb63dcaba72ed4fa6487ec6da0d67cd851a1f0669c4e61b044bef"}, "vout": 0, "txid": "94c5c4de9faf6354b057aec2cff07f601d40952e5cb1f0d6d68509c2a8f8606d"}, {"sequence": 4294967295, "scriptSig": {"hex": "483045022100ba17aaf777ca871ea7cb7ac54dbfbea39b3cf245661d97d90a6fc1ee94fe7edc02200d55b436e818611a49c52d18da9f7fd12f4a77e89474344c19c0fea484261e8a01210264caa8ae23f90ae30cc6c9b6cdc9b0ba546b9499a6210aa17cd60100df45f877", "asm": "3045022100ba17aaf777ca871ea7cb7ac54dbfbea39b3cf245661d97d90a6fc1ee94fe7edc02200d55b436e818611a49c52d18da9f7fd12f4a77e89474344c19c0fea484261e8a[ALL] 0264caa8ae23f90ae30cc6c9b6cdc9b0ba546b9499a6210aa17cd60100df45f877"}, "vout": 0, "txid": "f296ece61c1a3ba7c2dccfb2784a0d6e598bfee96c6af0e793d0b6d0aea90d1c"}], "txid": "8d297598874065759c227be911ca076b639a0c45264048afe7a8e3b491045754", "blocktime": 1537870268, "version": 1, "confirmations": 11516, "time": 1537870268, "locktime": 0, "vsize": 815, "size": 815}