{"hash": "8d2a3f458781b64d7f067fd717a1d7c90b9f0dd544c2f1373a355e7e9ccd73b6", "blockhash": "0000000000000000000e13cef7c366c0283d82e591d1acd082e914b08063cdf1", "vout": [{"scriptPubKey": {"reqSigs": 1, "hex": "a91469f375cd8679eb9aa40ffb16a687684c676848a587", "addresses": ["3BMEXbTbRJkzqG9GTS7u6t4yeQK2FjYc39"], "asm": "OP_HASH160 69f375cd8679eb9aa40ffb16a687684c676848a5 OP_EQUAL", "type": "scripthash"}, "value": 0.00753105, "n": 0}, {"scriptPubKey": {"reqSigs": 1, "hex": "76a91454bd7321306e6c097cff545f14469036e79feb4f88ac", "addresses": ["18j4iK4e88mbeekTY7Fo4QTmSbMPoHvzAE"], "asm": "OP_DUP OP_HASH160 54bd7321306e6c097cff545f14469036e79feb4f OP_EQUALVERIFY OP_CHECKSIG", "type": "pubkeyhash"}, "value": 0.67004562, "n": 1}], "hex": "0100000001b6c4459abc93e3d302e86e530fca3ca802832d48082e7bcaaa99139b99ff8c08010000006b483045022100c13eef85d6078f0b034adf37bdb5029bd73d819ad9258030411c754268dabbf402202466f0f946ba29339a56269dbd4f908a8a3553100114ef5f97761d3c66ce4285012103ba5f65c2d28eebf0ff20a125bf1d7c59fcea770ad9ca0b37f4f99dbb532ad767ffffffff02d17d0b000000000017a91469f375cd8679eb9aa40ffb16a687684c676848a5879268fe03000000001976a91454bd7321306e6c097cff545f14469036e79feb4f88ac00000000", "vin": [{"sequence": 4294967295, "scriptSig": {"hex": "483045022100c13eef85d6078f0b034adf37bdb5029bd73d819ad9258030411c754268dabbf402202466f0f946ba29339a56269dbd4f908a8a3553100114ef5f97761d3c66ce4285012103ba5f65c2d28eebf0ff20a125bf1d7c59fcea770ad9ca0b37f4f99dbb532ad767", "asm": "3045022100c13eef85d6078f0b034adf37bdb5029bd73d819ad9258030411c754268dabbf402202466f0f946ba29339a56269dbd4f908a8a3553100114ef5f97761d3c66ce4285[ALL] 03ba5f65c2d28eebf0ff20a125bf1d7c59fcea770ad9ca0b37f4f99dbb532ad767"}, "vout": 1, "txid": "088cff999b1399aaca7b2e08482d8302a83cca0f536ee802d3e393bc9a45c4b6"}], "txid": "8d2a3f458781b64d7f067fd717a1d7c90b9f0dd544c2f1373a355e7e9ccd73b6", "blocktime": 1537871767, "version": 1, "confirmations": 11490, "time": 1537871767, "locktime": 0, "vsize": 224, "size": 224}