{"hash": "b77390986581371012bfef8a456933b88d3c465182b4b1ee834e859ad650c8a5", "blockhash": "0000000000000000000e13cef7c366c0283d82e591d1acd082e914b08063cdf1", "vout": [{"scriptPubKey": {"reqSigs": 1, "hex": "76a91491c68223ff20bb3c6b5044bad444f6f8c174dcd888ac", "addresses": ["1EHnnRFnGM7ALuWkfrfRiFNPhh8oJcRruG"], "asm": "OP_DUP OP_HASH160 91c68223ff20bb3c6b5044bad444f6f8c174dcd8 OP_EQUALVERIFY OP_CHECKSIG", "type": "pubkeyhash"}, "value": 0.1129, "n": 0}, {"scriptPubKey": {"reqSigs": 1, "hex": "a91474ed9bbc227e05ff668a9c271ad9b071cdaa977c87", "addresses": ["3CMGx7WAnmAmBgE4j4SU2e4tdGT77acNjp"], "asm": "OP_HASH160 74ed9bbc227e05ff668a9c271ad9b071cdaa977c OP_EQUAL", "type": "scripthash"}, "value": 0.09491, "n": 1}, {"scriptPubKey": {"reqSigs": 1, "hex": "a9146c0c7999cb20d9746a02d7b85e8ed4dd36cec30f87", "addresses": ["3BYKr3GGu3P9aTVdmtJ812RK6y1AC3kZXX"], "asm": "OP_HASH160 6c0c7999cb20d9746a02d7b85e8ed4dd36cec30f OP_EQUAL", "type": "scripthash"}, "value": 0.0038712, "n": 2}, {"scriptPubKey": {"reqSigs": 1, "hex": "a914bdbe3792b3168f684fb7a19d7bb15c4b292674aa87", "addresses": ["3JzHWKBUfurCUW7VzPj7KrPQngsAz1H7KQ"], "asm": "OP_HASH160 bdbe3792b3168f684fb7a19d7bb15c4b292674aa OP_EQUAL", "type": "scripthash"}, "value": 4.77217843, "n": 3}, {"scriptPubKey": {"reqSigs": 1, "hex": "76a914c5ebe7621dee1deaa6444242ea8c419c1831e01588ac", "addresses": ["1K3WigFngGNc1RpXnzfNxLLJcQgSgr8iSP"], "asm": "OP_DUP OP_HASH160 c5ebe7621dee1deaa6444242ea8c419c1831e015 OP_EQUALVERIFY OP_CHECKSIG", "type": "pubkeyhash"}, "value": 0.01612167, "n": 4}], "hex": "020000000001018b7d2e1e8897d3c5af093d2a4796de6db03683d97f2abe872beea1737cb2427400000000171600142014d6c790f2c137203c9c2c36f6f186d08326fffeffffff059045ac00000000001976a91491c68223ff20bb3c6b5044bad444f6f8c174dcd888ac38d290000000000017a91474ed9bbc227e05ff668a9c271ad9b071cdaa977c8730e805000000000017a9146c0c7999cb20d9746a02d7b85e8ed4dd36cec30f8733c4711c0000000017a914bdbe3792b3168f684fb7a19d7bb15c4b292674aa8787991800000000001976a914c5ebe7621dee1deaa6444242ea8c419c1831e01588ac024830450221009845c03f8d911c3e71c0e27e03ff883c665df5ea882ef4ebb0799474e47b7cc3022067d293f132d705bcee9a57642a699e1616a6d984648dcbc09b59487e653a722f01210352e3c0e10a3b87eb1092c6c9574df9e0a5da05545dab809c3bf6275c6e49fb0210490800", "vin": [{"txinwitness": ["30450221009845c03f8d911c3e71c0e27e03ff883c665df5ea882ef4ebb0799474e47b7cc3022067d293f132d705bcee9a57642a699e1616a6d984648dcbc09b59487e653a722f01", "0352e3c0e10a3b87eb1092c6c9574df9e0a5da05545dab809c3bf6275c6e49fb02"], "sequence": 4294967294, "scriptSig": {"hex": "1600142014d6c790f2c137203c9c2c36f6f186d08326ff", "asm": "00142014d6c790f2c137203c9c2c36f6f186d08326ff"}, "vout": 0, "txid": "7442b27c73a1ee2b87be2a7fd98336b06dde96472a3d09afc5d397881e2e7d8b"}], "txid": "8d30710b845bf571e1024dc820f7dfaffe3990eb0849b78ad3819b76072bf26e", "blocktime": 1537871767, "version": 2, "confirmations": 11491, "time": 1537871767, "locktime": 542992, "vsize": 266, "size": 348}