{"hash": "8d38c3fb74d33b6f838b807bc658e101ee9997386834a3e8815f5b8559b5a5c1", "blockhash": "00000000000000000018f53835495a110e01622372bf6ae95dc86f2b0ab887b0", "vout": [{"scriptPubKey": {"reqSigs": 1, "hex": "76a914b33daf0b91c390bdddf47bdbccf121c9ef6a3f6388ac", "addresses": ["1HLjrCfdyQzDVZ27WrSSWNUni7EzFxgdtA"], "asm": "OP_DUP OP_HASH160 b33daf0b91c390bdddf47bdbccf121c9ef6a3f63 OP_EQUALVERIFY OP_CHECKSIG", "type": "pubkeyhash"}, "value": 0.00253262, "n": 0}, {"scriptPubKey": {"reqSigs": 1, "hex": "76a91425bf0c0ab618f5bec6835fec523a877bddd22f5f88ac", "addresses": ["14SasHASZmzYL8GUjHrhVKep5KSS2HgxH2"], "asm": "OP_DUP OP_HASH160 25bf0c0ab618f5bec6835fec523a877bddd22f5f OP_EQUALVERIFY OP_CHECKSIG", "type": "pubkeyhash"}, "value": 0.05690201, "n": 1}], "hex": "010000000187d4e3556ee1ff3f7b73a02c721d8cf84aa50d3d188d873c19d2a3c78b95c271010000006b483045022100e1896d70133d3aa94381a7776f4fa7deefdab72e34a6019bef4d3bd47a704b0402204a4878928ca7355707692cb2574bc39ac29e0702c01b1133af116ac6495df0690121035b8df470314f98819b01518db90224004b058ca9b1dea061a4212904c146ce31ffffffff024edd0300000000001976a914b33daf0b91c390bdddf47bdbccf121c9ef6a3f6388ac59d35600000000001976a91425bf0c0ab618f5bec6835fec523a877bddd22f5f88ac00000000", "vin": [{"sequence": 4294967295, "scriptSig": {"hex": "483045022100e1896d70133d3aa94381a7776f4fa7deefdab72e34a6019bef4d3bd47a704b0402204a4878928ca7355707692cb2574bc39ac29e0702c01b1133af116ac6495df0690121035b8df470314f98819b01518db90224004b058ca9b1dea061a4212904c146ce31", "asm": "3045022100e1896d70133d3aa94381a7776f4fa7deefdab72e34a6019bef4d3bd47a704b0402204a4878928ca7355707692cb2574bc39ac29e0702c01b1133af116ac6495df069[ALL] 035b8df470314f98819b01518db90224004b058ca9b1dea061a4212904c146ce31"}, "vout": 1, "txid": "71c2958bc7a3d2193c878d183d0da54af88c1d722ca0737b3fffe16e55e3d487"}], "txid": "8d38c3fb74d33b6f838b807bc658e101ee9997386834a3e8815f5b8559b5a5c1", "blocktime": 1537870928, "version": 1, "confirmations": 11512, "time": 1537870928, "locktime": 0, "vsize": 226, "size": 226}