{"hash": "8d3bdc3f9e039a26b198a2038b6a8979e71c151090fe532792a7ac08d06f925a", "blockhash": "0000000000000000000dcc0f55137456b1a82d3642486a52398922ac4d620174", "vout": [{"scriptPubKey": {"reqSigs": 1, "hex": "76a914373e409a5d338eee74846f6bb39e5a7dc704bb9e88ac", "addresses": ["1636jvNQRJq8L6dLDnd5t3xgPhVmmAdGnG"], "asm": "OP_DUP OP_HASH160 373e409a5d338eee74846f6bb39e5a7dc704bb9e OP_EQUALVERIFY OP_CHECKSIG", "type": "pubkeyhash"}, "value": 0.0010636, "n": 0}, {"scriptPubKey": {"type": "nulldata", "hex": "6a4c50000077780001218fe0c131c9cb554ebcc0f7bcbefa6b8351586b4e86aeaeacb577c031fc46b318260ec39ad45be181608e5683a85baa099c06143e7c6f71c449bc9a9526289ac0f6612cd74e33776ee4", "asm": "OP_RETURN 000077780001218fe0c131c9cb554ebcc0f7bcbefa6b8351586b4e86aeaeacb577c031fc46b318260ec39ad45be181608e5683a85baa099c06143e7c6f71c449bc9a9526289ac0f6612cd74e33776ee4"}, "value": 0.0, "n": 1}], "hex": "0100000001a133d42350272f216778faf1f2d57ec62912578c74791c645068f4ffabee96ac000000006b483045022100dc0622dbe1eddc6e4ec29209cf78c6c2f2c308335c083ec96618036a7124810602206e08fec78fda7ab2a33d0766066a955e80c1a3deced14f5381575b4adc8dbca1012103d65e379217e3b075e7607a68be778a0c19c59eb7d275383621fa91290022757dffffffff02789f0100000000001976a914373e409a5d338eee74846f6bb39e5a7dc704bb9e88ac0000000000000000536a4c50000077780001218fe0c131c9cb554ebcc0f7bcbefa6b8351586b4e86aeaeacb577c031fc46b318260ec39ad45be181608e5683a85baa099c06143e7c6f71c449bc9a9526289ac0f6612cd74e33776ee400000000", "vin": [{"sequence": 4294967295, "scriptSig": {"hex": "483045022100dc0622dbe1eddc6e4ec29209cf78c6c2f2c308335c083ec96618036a7124810602206e08fec78fda7ab2a33d0766066a955e80c1a3deced14f5381575b4adc8dbca1012103d65e379217e3b075e7607a68be778a0c19c59eb7d275383621fa91290022757d", "asm": "3045022100dc0622dbe1eddc6e4ec29209cf78c6c2f2c308335c083ec96618036a7124810602206e08fec78fda7ab2a33d0766066a955e80c1a3deced14f5381575b4adc8dbca1[ALL] 03d65e379217e3b075e7607a68be778a0c19c59eb7d275383621fa91290022757d"}, "vout": 0, "txid": "ac96eeabfff46850641c79748c571229c67ed5f2f1fa7867212f275023d433a1"}], "txid": "8d3bdc3f9e039a26b198a2038b6a8979e71c151090fe532792a7ac08d06f925a", "blocktime": 1537870268, "version": 1, "confirmations": 11518, "time": 1537870268, "locktime": 0, "vsize": 284, "size": 284}