{"hash": "48b20c198c81d22e4d3754eee4e7235d2ed93385dd5dce76b95279c131c89586", "blockhash": "0000000000000000000dcc0f55137456b1a82d3642486a52398922ac4d620174", "vout": [{"scriptPubKey": {"reqSigs": 1, "hex": "a91459149082cd9f219ea6de866ccaef3bf571b5717387", "addresses": ["39p2hToQBYDAydWDdbECqtqpfULnTw6m4e"], "asm": "OP_HASH160 59149082cd9f219ea6de866ccaef3bf571b57173 OP_EQUAL", "type": "scripthash"}, "value": 0.28854352, "n": 0}, {"scriptPubKey": {"reqSigs": 1, "hex": "a914206e3bdfde9d4f50c8b82e35a0c7a0111015d1f687", "addresses": ["34eVbsEYjSU3wgFJbnb4BrWD9wg3s4pN6A"], "asm": "OP_HASH160 206e3bdfde9d4f50c8b82e35a0c7a0111015d1f6 OP_EQUAL", "type": "scripthash"}, "value": 0.00999699, "n": 1}], "hex": "0200000000010317098a2e84139ea1000fe926b8409368ece59e92f1c3d7267ed8f7ea9acbab0a0100000017160014a9b88b1dccb1dbcdd0f7ed627a00db4be86713f1feffffff17fb6ae21a39001c2c1d810781492e611b68d39f445f162568cc5d68b2bf24420000000017160014e3fddd0824814b8a92d69d7fe8ebc4c643f4341cfeffffff44128fb085b3fe9296ff4a7672ffc462b40bf629a82ab604c77195e3a170a40200000000171600140a958800f64530ee03c3c8e66abf3e0d3aadec2efeffffff025048b8010000000017a91459149082cd9f219ea6de866ccaef3bf571b571738713410f000000000017a914206e3bdfde9d4f50c8b82e35a0c7a0111015d1f68702483045022100f0837fbf3d402210368286f664470cbbe797fecee1f1b5b642d57c6402a4cca9022041889d44da505a272624b1bc0677cc961283b4a96304475cc31f39a104f1caf70121038c7a5f746eca315dea1cc92558130f1b19a94efd46a37b7129208b8551f8a5c002483045022100a6ccd75cd6a35101d7d179510199d37b699e0cb829436635732db15b65a7dc4a02201b224d7eb51cf5c7210480417bc290112ef175aa0f3c789fafbc23839f47f475012102bf8285b035b6a300d08c4b6000fca31789fc8d0b8ea1b3e74493a5ce2eb6b8190247304402204fec349f4d80c91d4528c7eecf50f116abc64c554797e0a098fba429c91b44c102206e16e5f75350bac30fed064a12194e5d634b96d277ae22936d12372cc516ca1801210398dfaf46d26c891d6f7d3cb4338eadc1df679c29a7c15957951ce4cbf4de90990c490800", "vin": [{"txinwitness": ["3045022100f0837fbf3d402210368286f664470cbbe797fecee1f1b5b642d57c6402a4cca9022041889d44da505a272624b1bc0677cc961283b4a96304475cc31f39a104f1caf701", "038c7a5f746eca315dea1cc92558130f1b19a94efd46a37b7129208b8551f8a5c0"], "sequence": 4294967294, "scriptSig": {"hex": "160014a9b88b1dccb1dbcdd0f7ed627a00db4be86713f1", "asm": "0014a9b88b1dccb1dbcdd0f7ed627a00db4be86713f1"}, "vout": 1, "txid": "0aabcb9aeaf7d87e26d7c3f1929ee5ec689340b826e90f00a19e13842e8a0917"}, {"txinwitness": ["3045022100a6ccd75cd6a35101d7d179510199d37b699e0cb829436635732db15b65a7dc4a02201b224d7eb51cf5c7210480417bc290112ef175aa0f3c789fafbc23839f47f47501", "02bf8285b035b6a300d08c4b6000fca31789fc8d0b8ea1b3e74493a5ce2eb6b819"], "sequence": 4294967294, "scriptSig": {"hex": "160014e3fddd0824814b8a92d69d7fe8ebc4c643f4341c", "asm": "0014e3fddd0824814b8a92d69d7fe8ebc4c643f4341c"}, "vout": 0, "txid": "4224bfb2685dcc6825165f449fd3681b612e498107811d2c1c00391ae26afb17"}, {"txinwitness": ["304402204fec349f4d80c91d4528c7eecf50f116abc64c554797e0a098fba429c91b44c102206e16e5f75350bac30fed064a12194e5d634b96d277ae22936d12372cc516ca1801", "0398dfaf46d26c891d6f7d3cb4338eadc1df679c29a7c15957951ce4cbf4de9099"], "sequence": 4294967294, "scriptSig": {"hex": "1600140a958800f64530ee03c3c8e66abf3e0d3aadec2e", "asm": "00140a958800f64530ee03c3c8e66abf3e0d3aadec2e"}, "vout": 0, "txid": "02a470a1e39571c704b62aa829f60bb462c4ff72764aff9692feb385b08f1244"}], "txid": "8d3d2289b705c47041625ebe1ae82edd02178b8ff1db9688e4f137572cf2b374", "blocktime": 1537870268, "version": 2, "confirmations": 11519, "time": 1537870268, "locktime": 542988, "vsize": 348, "size": 591}