{"hash": "8d3e635545926b4045afd0787f3d056c3c209e9ce4799b0224ba674b15db5be4", "blockhash": "0000000000000000000e13cef7c366c0283d82e591d1acd082e914b08063cdf1", "vout": [{"scriptPubKey": {"reqSigs": 1, "hex": "76a914f5a6824bc9d49c4dc9ac88cbf6c3fb807d6f593e88ac", "addresses": ["1PPt2FBHdki6QsU4hcs4quJ8BZtU7eXtq1"], "asm": "OP_DUP OP_HASH160 f5a6824bc9d49c4dc9ac88cbf6c3fb807d6f593e OP_EQUALVERIFY OP_CHECKSIG", "type": "pubkeyhash"}, "value": 0.3, "n": 0}, {"scriptPubKey": {"reqSigs": 1, "hex": "76a914266f6b2dbb4571e30715ffca2637b2f2f3faf2d488ac", "addresses": ["14WE9o4n3AaY9xMDXFFPsfQZMSwCGHjZqU"], "asm": "OP_DUP OP_HASH160 266f6b2dbb4571e30715ffca2637b2f2f3faf2d4 OP_EQUALVERIFY OP_CHECKSIG", "type": "pubkeyhash"}, "value": 1.28478281, "n": 1}], "hex": "0100000001360bd7009210a91b5099940fb5eaa918b9e8d7e57c876253fcaacbd778e088c4010000006a473044022027d5398957e1a0df9d2ef8f6189edc37f99ed94cd156264ebe918aa23ef3ed7b02200688e36307bef6a2b3b099d23a1b6739ee931daff82621c2f5fb3b2750a9161501210280728b2d4f7a15268daf7158862070272efc3ab0655be8d84f0914691c855caeffffffff0280c3c901000000001976a914f5a6824bc9d49c4dc9ac88cbf6c3fb807d6f593e88ac496ca807000000001976a914266f6b2dbb4571e30715ffca2637b2f2f3faf2d488ac00000000", "vin": [{"sequence": 4294967295, "scriptSig": {"hex": "473044022027d5398957e1a0df9d2ef8f6189edc37f99ed94cd156264ebe918aa23ef3ed7b02200688e36307bef6a2b3b099d23a1b6739ee931daff82621c2f5fb3b2750a9161501210280728b2d4f7a15268daf7158862070272efc3ab0655be8d84f0914691c855cae", "asm": "3044022027d5398957e1a0df9d2ef8f6189edc37f99ed94cd156264ebe918aa23ef3ed7b02200688e36307bef6a2b3b099d23a1b6739ee931daff82621c2f5fb3b2750a91615[ALL] 0280728b2d4f7a15268daf7158862070272efc3ab0655be8d84f0914691c855cae"}, "vout": 1, "txid": "c488e078d7cbaafc5362877ce5d7e8b918a9eab50f9499501ba9109200d70b36"}], "txid": "8d3e635545926b4045afd0787f3d056c3c209e9ce4799b0224ba674b15db5be4", "blocktime": 1537871767, "version": 1, "confirmations": 11495, "time": 1537871767, "locktime": 0, "vsize": 225, "size": 225}