{"hash": "639e528a1064b096c224f5cbb13cf79f8269178cd581e8a6115f3fad5aa97284", "blockhash": "00000000000000000017f5eb5941039fbcee6240d03bc1f2f8e35350df66a1d8", "vout": [{"scriptPubKey": {"reqSigs": 1, "hex": "76a91478a114c05886abca46ed73b8c8c97dd433dab15888ac", "addresses": ["1Bzq48RHHgdnD7K2dxTmEKqpxLFogGLfQF"], "asm": "OP_DUP OP_HASH160 78a114c05886abca46ed73b8c8c97dd433dab158 OP_EQUALVERIFY OP_CHECKSIG", "type": "pubkeyhash"}, "value": 0.0017643, "n": 0}, {"scriptPubKey": {"reqSigs": 1, "hex": "a9149649ad6d2730bb28020a268d9d80df10a9f74ad487", "addresses": ["3FPfYWwfMfKMGY7fuPHvz2b73RhTNGzsm3"], "asm": "OP_HASH160 9649ad6d2730bb28020a268d9d80df10a9f74ad4 OP_EQUAL", "type": "scripthash"}, "value": 13.80494556, "n": 1}], "hex": "010000000001015e3ad63f77081d37bf8f0342c9d7871f15660bbb48dc0ffeb60a1151dee4e70b01000000232200207768efcc1e5eb3d28410fac3f45831004c860cc24cddd940a616b34324823fceffffffff022eb10200000000001976a91478a114c05886abca46ed73b8c8c97dd433dab15888acdcac48520000000017a9149649ad6d2730bb28020a268d9d80df10a9f74ad4870400473044022018f3d580159b26087d7095c07a5fcdf6a76f969f988fe085bbde8b9b3bdd918c022033bbb5d4f444a621f83fe33bc2a4cf85adffaa6e45ce7866f6d1d8936c369c6001473044022063b171d4783713bcf8d9db1fd98e483d122db2f2a4e8a09851e972f5b6bde5ac02206f4608d89652f238738c17649a1e61dac09eac88b699c0cac60e9014c9251e6d0147522102529d5d1f6733ab45d9d50e07db42c7f6b967ae321c38b726c2247f149959b8262103d0c936a5988dd8421c63240496b723b0ec42400c38b9350e32c2eb4f47d8796952ae00000000", "vin": [{"txinwitness": ["", "3044022018f3d580159b26087d7095c07a5fcdf6a76f969f988fe085bbde8b9b3bdd918c022033bbb5d4f444a621f83fe33bc2a4cf85adffaa6e45ce7866f6d1d8936c369c6001", "3044022063b171d4783713bcf8d9db1fd98e483d122db2f2a4e8a09851e972f5b6bde5ac02206f4608d89652f238738c17649a1e61dac09eac88b699c0cac60e9014c9251e6d01", "522102529d5d1f6733ab45d9d50e07db42c7f6b967ae321c38b726c2247f149959b8262103d0c936a5988dd8421c63240496b723b0ec42400c38b9350e32c2eb4f47d8796952ae"], "sequence": 4294967295, "scriptSig": {"hex": "2200207768efcc1e5eb3d28410fac3f45831004c860cc24cddd940a616b34324823fce", "asm": "00207768efcc1e5eb3d28410fac3f45831004c860cc24cddd940a616b34324823fce"}, "vout": 1, "txid": "0be7e4de51110ab6fe0fdc48bb0b66151f87d7c942038fbf371d08773fd63a5e"}], "txid": "8d3e429e39bd280637a6a66028a2afcc3112a3fb98b6634ae3d673341d546e9a", "blocktime": 1537874412, "version": 1, "confirmations": 11468, "time": 1537874412, "locktime": 0, "vsize": 207, "size": 372}