{"hash": "8d3f291e15491b38bcf3daa68c2465ef09f9a31b084a829165cd00563ae5465c", "blockhash": "000000000000000000022b45ed06c6f4ccd3cf7fb5ba4856ebd2e58215665228", "vout": [{"scriptPubKey": {"reqSigs": 1, "hex": "a914f057ccdfa6f695e4028cf5842780d19db44ef40e87", "addresses": ["3PbqH45shK99EGd6DhEjaKa44kNts8eo2Y"], "asm": "OP_HASH160 f057ccdfa6f695e4028cf5842780d19db44ef40e OP_EQUAL", "type": "scripthash"}, "value": 0.004, "n": 0}, {"scriptPubKey": {"reqSigs": 1, "hex": "76a9147699e72f033e987bc9b84bb3d74547fb9bc5d24488ac", "addresses": ["1Bp771UPiif9timGtTL4hBuHjKyHXe71XM"], "asm": "OP_DUP OP_HASH160 7699e72f033e987bc9b84bb3d74547fb9bc5d244 OP_EQUALVERIFY OP_CHECKSIG", "type": "pubkeyhash"}, "value": 0.00549171, "n": 1}], "hex": "010000000175b97860597a72cffa6ec13eb64d1c08184e6f809daa23d14ef986f8c98a2f12010000006b483045022100ce8e10d266b6bbc35eea5bb1fab73687663c1eed10f28359a0fc0205e5c3249602205be876c7457ada68fdf5e402063ea62de0cc018de1c2cc91f2ad230c13ce66470121029f4a74cd854ef8f221ccc09f084728798e74eba7e293188de7de5f63337abffdfeffffff02801a06000000000017a914f057ccdfa6f695e4028cf5842780d19db44ef40e8733610800000000001976a9147699e72f033e987bc9b84bb3d74547fb9bc5d24488ac0b490800", "vin": [{"sequence": 4294967294, "scriptSig": {"hex": "483045022100ce8e10d266b6bbc35eea5bb1fab73687663c1eed10f28359a0fc0205e5c3249602205be876c7457ada68fdf5e402063ea62de0cc018de1c2cc91f2ad230c13ce66470121029f4a74cd854ef8f221ccc09f084728798e74eba7e293188de7de5f63337abffd", "asm": "3045022100ce8e10d266b6bbc35eea5bb1fab73687663c1eed10f28359a0fc0205e5c3249602205be876c7457ada68fdf5e402063ea62de0cc018de1c2cc91f2ad230c13ce6647[ALL] 029f4a74cd854ef8f221ccc09f084728798e74eba7e293188de7de5f63337abffd"}, "vout": 1, "txid": "122f8ac9f886f94ed123aa9d806f4e18081c4db63ec16efacf727a596078b975"}], "txid": "8d3f291e15491b38bcf3daa68c2465ef09f9a31b084a829165cd00563ae5465c", "blocktime": 1537869901, "version": 1, "confirmations": 11524, "time": 1537869901, "locktime": 542987, "vsize": 224, "size": 224}