{"hash": "8d400405de54b9aba9b0b1080edadc0eb48c1f023a705534f1d085f98695d6a1", "blockhash": "00000000000000000018f53835495a110e01622372bf6ae95dc86f2b0ab887b0", "vout": [{"scriptPubKey": {"reqSigs": 1, "hex": "76a9146105ceee114b4cf4df565804cb8f8c628338639088ac", "addresses": ["19r1WBFSprrA5jebaXNGAGM3A8zn1H4ZKG"], "asm": "OP_DUP OP_HASH160 6105ceee114b4cf4df565804cb8f8c6283386390 OP_EQUALVERIFY OP_CHECKSIG", "type": "pubkeyhash"}, "value": 0.00030169, "n": 0}, {"scriptPubKey": {"type": "nulldata", "hex": "6a4c50000077880001b8a47c9880c65efa6e67733fbcbefa6b8351586b4e86aeaeacb577c031fc802d33e46e26b0999c6db454cec3cc255baa0bc006141f93731ddc684bbf23acfcfaac8058b692fe6808c31d", "asm": "OP_RETURN 000077880001b8a47c9880c65efa6e67733fbcbefa6b8351586b4e86aeaeacb577c031fc802d33e46e26b0999c6db454cec3cc255baa0bc006141f93731ddc684bbf23acfcfaac8058b692fe6808c31d"}, "value": 0.0, "n": 1}], "hex": "0100000001a97c2766f18d61632d5c038d1c4d5b6e2999dc77e3b3428a7ecdfe8883ce890b000000006b483045022100e11f086cd3dad9e95c2e9ae15543e6f79a8919ef6fcd66bde32f4c5eacf1a7cb02205b2b44c60f2cf8967dd363a58dd61fe022c718fb07c7559544e1d87c2abdcc320121022a42913f1cfa6e7224b0ec4a9dfaffd839628c0e3df949c9279fb8fd1163e734ffffffff02d9750000000000001976a9146105ceee114b4cf4df565804cb8f8c628338639088ac0000000000000000536a4c50000077880001b8a47c9880c65efa6e67733fbcbefa6b8351586b4e86aeaeacb577c031fc802d33e46e26b0999c6db454cec3cc255baa0bc006141f93731ddc684bbf23acfcfaac8058b692fe6808c31d00000000", "vin": [{"sequence": 4294967295, "scriptSig": {"hex": "483045022100e11f086cd3dad9e95c2e9ae15543e6f79a8919ef6fcd66bde32f4c5eacf1a7cb02205b2b44c60f2cf8967dd363a58dd61fe022c718fb07c7559544e1d87c2abdcc320121022a42913f1cfa6e7224b0ec4a9dfaffd839628c0e3df949c9279fb8fd1163e734", "asm": "3045022100e11f086cd3dad9e95c2e9ae15543e6f79a8919ef6fcd66bde32f4c5eacf1a7cb02205b2b44c60f2cf8967dd363a58dd61fe022c718fb07c7559544e1d87c2abdcc32[ALL] 022a42913f1cfa6e7224b0ec4a9dfaffd839628c0e3df949c9279fb8fd1163e734"}, "vout": 0, "txid": "0b89ce8388fecd7e8a42b3e377dc99296e5b4d1c8d035c2d63618df166277ca9"}], "txid": "8d400405de54b9aba9b0b1080edadc0eb48c1f023a705534f1d085f98695d6a1", "blocktime": 1537870928, "version": 1, "confirmations": 11512, "time": 1537870928, "locktime": 0, "vsize": 284, "size": 284}