{"hash": "ca77a887344ce790693879bcaa3482247814f197baeaa6d424af836d5c0de975", "blockhash": "00000000000000000018f53835495a110e01622372bf6ae95dc86f2b0ab887b0", "vout": [{"scriptPubKey": {"reqSigs": 1, "hex": "001406a76154782a87727bc2e8f638c5bbfcabbb4675", "addresses": ["bc1qq6nkz4rc92rhy77zarmr33dmlj4mk3n4c72874"], "asm": "0 06a76154782a87727bc2e8f638c5bbfcabbb4675", "type": "witness_v0_keyhash"}, "value": 8.691e-05, "n": 0}, {"scriptPubKey": {"reqSigs": 1, "hex": "76a914e805c79fadc1bb6fea0c5fe50f5c75030b83eb1988ac", "addresses": ["1N9ph6GYxsHJjvQZj39KhsPayVZXVjL8Sj"], "asm": "OP_DUP OP_HASH160 e805c79fadc1bb6fea0c5fe50f5c75030b83eb19 OP_EQUALVERIFY OP_CHECKSIG", "type": "pubkeyhash"}, "value": 0.00315629, "n": 1}], "hex": "0100000000010177e2854fe9acf498ac9d8b363bd8c8da4367d5186d1c6984964c9a1736cedcfc0000000000ffffffff02f32100000000000016001406a76154782a87727bc2e8f638c5bbfcabbb4675edd00400000000001976a914e805c79fadc1bb6fea0c5fe50f5c75030b83eb1988ac024830450221008b26f311aafec4e9d4217a24b5578a7bc82ea77587a2e88412114d1d7186eadf022048d32cecac7432b107b84979c76cc7e9f8ea62edc91f1f0e5fc62bc3a6c1c3c301210322d87295825a717b5d0e77cd397a8ea869da0aa0e3472173e7f030ced2cb353100000000", "vin": [{"txinwitness": ["30450221008b26f311aafec4e9d4217a24b5578a7bc82ea77587a2e88412114d1d7186eadf022048d32cecac7432b107b84979c76cc7e9f8ea62edc91f1f0e5fc62bc3a6c1c3c301", "0322d87295825a717b5d0e77cd397a8ea869da0aa0e3472173e7f030ced2cb3531"], "sequence": 4294967295, "scriptSig": {"hex": "", "asm": ""}, "vout": 0, "txid": "fcdcce36179a4c9684691c6d18d56743dac8d83b368b9dac98f4ace94f85e277"}], "txid": "8d44b93e2f4d14f8a903221041dc72fa7efa6e314f2d75a88d8f5116a8049eeb", "blocktime": 1537870928, "version": 1, "confirmations": 11514, "time": 1537870928, "locktime": 0, "vsize": 144, "size": 226}