{"hash": "8d4510ee0b19df90e36ae4f4bf3d63239e646742ce1b8b341dad536c5a092c07", "blockhash": "000000000000000000022b45ed06c6f4ccd3cf7fb5ba4856ebd2e58215665228", "vout": [{"scriptPubKey": {"reqSigs": 1, "hex": "76a914d243e6abb9a60fbff430b421d2df4b7d59ec186088ac", "addresses": ["1LAnF8h3qMGx3TSwNUHVneBZUEpwE4gu3D"], "asm": "OP_DUP OP_HASH160 d243e6abb9a60fbff430b421d2df4b7d59ec1860 OP_EQUALVERIFY OP_CHECKSIG", "type": "pubkeyhash"}, "value": 0.00076972, "n": 0}, {"scriptPubKey": {"reqSigs": 1, "hex": "76a9143851f34d13937b673a7d24a1950bb5b21ce94af388ac", "addresses": ["168o1kqNquEJeR9vosUB5fw4eAwcVAgh8P"], "asm": "OP_DUP OP_HASH160 3851f34d13937b673a7d24a1950bb5b21ce94af3 OP_EQUALVERIFY OP_CHECKSIG", "type": "pubkeyhash"}, "value": 5.46e-06, "n": 1}, {"scriptPubKey": {"type": "nulldata", "hex": "6a146f6d6e69000000000000001f0000002299400e00", "asm": "OP_RETURN 6f6d6e69000000000000001f0000002299400e00"}, "value": 0.0, "n": 2}], "hex": "0100000002758e5caab9aa9a180a052ab30fe85b624734d536d76b0668191a3522df85daab020000006a47304402202ec532fee5591eae7e8cffd6e69458ead42eaaf48a6beca6de17e43ced6967f70220220b07b0477b23aab8c0b825d400e9a161e27b8c7e80305494ac06d14ff7e603012102b1a2087f5d3170b3d4d542c54115533afd1baeec238dfb6203289b94f6f9af55fffffffffec4a72dd100e5c8175643bfbb2048294e1147a50545e77c4f2e0f98f439d8bf000000006a473044022040b400f3a76658e836b5d7d146094f1f02cfdbfabd9d7b7940c15ed8ce1769c80220221b608dd77d33006bd33dae7c5ff8e2f978c546cdd7d214656c258e253be79001210271977291b74f1f5f5c42157e8aae804664eaaeccfd097918450d37f28fb94d77ffffffff03ac2c0100000000001976a914d243e6abb9a60fbff430b421d2df4b7d59ec186088ac22020000000000001976a9143851f34d13937b673a7d24a1950bb5b21ce94af388ac0000000000000000166a146f6d6e69000000000000001f0000002299400e0000000000", "vin": [{"sequence": 4294967295, "scriptSig": {"hex": "47304402202ec532fee5591eae7e8cffd6e69458ead42eaaf48a6beca6de17e43ced6967f70220220b07b0477b23aab8c0b825d400e9a161e27b8c7e80305494ac06d14ff7e603012102b1a2087f5d3170b3d4d542c54115533afd1baeec238dfb6203289b94f6f9af55", "asm": "304402202ec532fee5591eae7e8cffd6e69458ead42eaaf48a6beca6de17e43ced6967f70220220b07b0477b23aab8c0b825d400e9a161e27b8c7e80305494ac06d14ff7e603[ALL] 02b1a2087f5d3170b3d4d542c54115533afd1baeec238dfb6203289b94f6f9af55"}, "vout": 2, "txid": "abda85df22351a1968066bd736d53447625be80fb32a050a189aaab9aa5c8e75"}, {"sequence": 4294967295, "scriptSig": {"hex": "473044022040b400f3a76658e836b5d7d146094f1f02cfdbfabd9d7b7940c15ed8ce1769c80220221b608dd77d33006bd33dae7c5ff8e2f978c546cdd7d214656c258e253be79001210271977291b74f1f5f5c42157e8aae804664eaaeccfd097918450d37f28fb94d77", "asm": "3044022040b400f3a76658e836b5d7d146094f1f02cfdbfabd9d7b7940c15ed8ce1769c80220221b608dd77d33006bd33dae7c5ff8e2f978c546cdd7d214656c258e253be790[ALL] 0271977291b74f1f5f5c42157e8aae804664eaaeccfd097918450d37f28fb94d77"}, "vout": 0, "txid": "bfd839f4980f2e4f7ce74505a547114e294820bbbf435617c8e500d12da7c4fe"}], "txid": "8d4510ee0b19df90e36ae4f4bf3d63239e646742ce1b8b341dad536c5a092c07", "blocktime": 1537869901, "version": 1, "confirmations": 11522, "time": 1537869901, "locktime": 0, "vsize": 403, "size": 403}