{"hash": "8d5013a8904681a9d98f471955a9e1b985200b8e8c79611af61302493df2366d", "blockhash": "00000000000000000017f5eb5941039fbcee6240d03bc1f2f8e35350df66a1d8", "vout": [{"scriptPubKey": {"reqSigs": 1, "hex": "76a9146a95ec843475aa904a1c962f2a4091b290f60d4888ac", "addresses": ["1AiaEEGHQmBzmvtqZ4Pr3Mn4zEYeVx2DDY"], "asm": "OP_DUP OP_HASH160 6a95ec843475aa904a1c962f2a4091b290f60d48 OP_EQUALVERIFY OP_CHECKSIG", "type": "pubkeyhash"}, "value": 0.00863302, "n": 0}, {"scriptPubKey": {"reqSigs": 1, "hex": "76a914a9bf219d4bc0f2d45ceb797ffa9b6d0a4930678c88ac", "addresses": ["1GUYATQiAMwWGZcURFmvgtijjWgG1YBHqL"], "asm": "OP_DUP OP_HASH160 a9bf219d4bc0f2d45ceb797ffa9b6d0a4930678c OP_EQUALVERIFY OP_CHECKSIG", "type": "pubkeyhash"}, "value": 0.02119699, "n": 1}], "hex": "010000000182956e09e2fa9009f40832c93baf730476d37a511f6290cab852de4d5321004f000000006b483045022100bc9d3f52b4f9ced445f4f3c84da811b9aa3d15b406bef0c749b6bd3a9dcde1dd022059abf6d15d47a4400d82a462263610841f285239bd2a78345cd5591b2783954a0121030536c1db41bdfddf436a3a4835f321876c2b61b3903b8e3ddf3529a895aaca5bffffffff02462c0d00000000001976a9146a95ec843475aa904a1c962f2a4091b290f60d4888ac13582000000000001976a914a9bf219d4bc0f2d45ceb797ffa9b6d0a4930678c88ac00000000", "vin": [{"sequence": 4294967295, "scriptSig": {"hex": "483045022100bc9d3f52b4f9ced445f4f3c84da811b9aa3d15b406bef0c749b6bd3a9dcde1dd022059abf6d15d47a4400d82a462263610841f285239bd2a78345cd5591b2783954a0121030536c1db41bdfddf436a3a4835f321876c2b61b3903b8e3ddf3529a895aaca5b", "asm": "3045022100bc9d3f52b4f9ced445f4f3c84da811b9aa3d15b406bef0c749b6bd3a9dcde1dd022059abf6d15d47a4400d82a462263610841f285239bd2a78345cd5591b2783954a[ALL] 030536c1db41bdfddf436a3a4835f321876c2b61b3903b8e3ddf3529a895aaca5b"}, "vout": 0, "txid": "4f0021534dde52b8ca90621f517ad3760473af3bc93208f40990fae2096e9582"}], "txid": "8d5013a8904681a9d98f471955a9e1b985200b8e8c79611af61302493df2366d", "blocktime": 1537874412, "version": 1, "confirmations": 11467, "time": 1537874412, "locktime": 0, "vsize": 226, "size": 226}