{"hash": "6066bba67e882533d1e24b64b52763154e7e1bed9d60c925d162a1d14e63e3fa", "blockhash": "00000000000000000018f53835495a110e01622372bf6ae95dc86f2b0ab887b0", "vout": [{"scriptPubKey": {"reqSigs": 1, "hex": "0014a51268d8b5abdf125bd422603dfcdcb873e92b0f", "addresses": ["bc1q55fx3k944003yk75yfsrmlxuhpe7j2c09csyee"], "asm": "0 a51268d8b5abdf125bd422603dfcdcb873e92b0f", "type": "witness_v0_keyhash"}, "value": 0.05806142, "n": 0}], "hex": "02000000000101fb3d607d330f16ae91fd3c2062c2f234d5211e6da411599eb66f98fbbef0bdc90000000000b9020000013e98580000000000160014a51268d8b5abdf125bd422603dfcdcb873e92b0f03483045022100e303a1414b3f52ac0712a02f7a6b2acc83289811d287f747fcf5915c95f92a5602200b5fe8dcd3c2331eb18a648daa0767f4d64e3e818f8293a8d1930db6aba976f401004d63210289562d43036858ef09b0d59e5621caecfc88cc067dfe0276d95afc7eb8a283206702b902b27521037e2f7d5919442e61e464b72ffd1421c150a2f4f1b4639a22456cd292b584339068ac00000000", "vin": [{"txinwitness": ["3045022100e303a1414b3f52ac0712a02f7a6b2acc83289811d287f747fcf5915c95f92a5602200b5fe8dcd3c2331eb18a648daa0767f4d64e3e818f8293a8d1930db6aba976f401", "", "63210289562d43036858ef09b0d59e5621caecfc88cc067dfe0276d95afc7eb8a283206702b902b27521037e2f7d5919442e61e464b72ffd1421c150a2f4f1b4639a22456cd292b584339068ac"], "sequence": 697, "scriptSig": {"hex": "", "asm": ""}, "vout": 0, "txid": "c9bdf0befb986fb69e5911a46d1e21d534f2c262203cfd91ae160f337d603dfb"}], "txid": "8d5fba3849456f65302c0b57bf93491d7bd1b80d680029ef0f1e7c3dce8f767e", "blocktime": 1537870928, "version": 2, "confirmations": 11514, "time": 1537870928, "locktime": 0, "vsize": 121, "size": 237}