{"hash": "f421353ee3772abc59ed739b7d11938ddc5f76d54dd331a205ad7145bbfba9f5", "blockhash": "00000000000000000017f5eb5941039fbcee6240d03bc1f2f8e35350df66a1d8", "vout": [{"scriptPubKey": {"reqSigs": 1, "hex": "a91429a44afef64cf1aba6c552dfdd478bf850dad60987", "addresses": ["35VCSgarFJ85ugrVhrMwRdLtfHP34PCepv"], "asm": "OP_HASH160 29a44afef64cf1aba6c552dfdd478bf850dad609 OP_EQUAL", "type": "scripthash"}, "value": 0.0018236, "n": 0}, {"scriptPubKey": {"reqSigs": 1, "hex": "a9144704a841e33c3ebc18cd50fa82349650875fd52087", "addresses": ["38AXUkmihHH3sm4kJMc8gFCL2W56XtTG9h"], "asm": "OP_HASH160 4704a841e33c3ebc18cd50fa82349650875fd520 OP_EQUAL", "type": "scripthash"}, "value": 0.01073477, "n": 1}], "hex": "020000000001024426c376c8d7e5f525aee810990e7e43883ef951dd1f5d2785fbd1c9fdee56f100000000171600149067d5af87a0d8c30a8d8b237e0c319c13761d7cfeffffff63a59247bf448697908e8e400ab2611c02668bc25d1853e0fbc8d12952864eca0500000017160014b46df68ee97638fbf44b3e0af59d9271d5da8c1bfeffffff0258c802000000000017a91429a44afef64cf1aba6c552dfdd478bf850dad60987456110000000000017a9144704a841e33c3ebc18cd50fa82349650875fd520870247304402204e248c517877c4f9c5e9f041f4ef2de0903862cb1ded7c21415d8d86d81cbf0102204fe6b356aabfa32a303e865ccf7430f1f2af74e49d6d5284dde4590015880535012103f42d63431b7986dbb6c92e278212c3334683d6e72c1e94a1df9bb568213cdc59024730440220211e82ca601f3791f29bf87b98874be0d7da3e189213af81a4219a3c8ee7959702205b36e4970a38c818124f6f4d5d1eff3025b6919371cfa93fe92ec0437a7fcc5b01210393e137854a1f4454c37986d24f4af478e1e1d4549deb30dcf933ed0468f37e8815490800", "vin": [{"txinwitness": ["304402204e248c517877c4f9c5e9f041f4ef2de0903862cb1ded7c21415d8d86d81cbf0102204fe6b356aabfa32a303e865ccf7430f1f2af74e49d6d5284dde459001588053501", "03f42d63431b7986dbb6c92e278212c3334683d6e72c1e94a1df9bb568213cdc59"], "sequence": 4294967294, "scriptSig": {"hex": "1600149067d5af87a0d8c30a8d8b237e0c319c13761d7c", "asm": "00149067d5af87a0d8c30a8d8b237e0c319c13761d7c"}, "vout": 0, "txid": "f156eefdc9d1fb85275d1fdd51f93e88437e0e9910e8ae25f5e5d7c876c32644"}, {"txinwitness": ["30440220211e82ca601f3791f29bf87b98874be0d7da3e189213af81a4219a3c8ee7959702205b36e4970a38c818124f6f4d5d1eff3025b6919371cfa93fe92ec0437a7fcc5b01", "0393e137854a1f4454c37986d24f4af478e1e1d4549deb30dcf933ed0468f37e88"], "sequence": 4294967294, "scriptSig": {"hex": "160014b46df68ee97638fbf44b3e0af59d9271d5da8c1b", "asm": "0014b46df68ee97638fbf44b3e0af59d9271d5da8c1b"}, "vout": 5, "txid": "ca4e865229d1c8fbe053185dc28b66021c61b20a408e8e90978644bf4792a563"}], "txid": "8d604b239af6adb6a46faaab9b22a4c23fa30485cd08260d522f9c60727d677f", "blocktime": 1537874412, "version": 2, "confirmations": 11468, "time": 1537874412, "locktime": 542997, "vsize": 256, "size": 418}