{"hash": "267aa319b086f9a8bfa027a1877cc7b58a220885294850b64b71c36f45632fd6", "blockhash": "00000000000000000024a2167bbff67b0be802c0b01cdd79e6331c2be6459f87", "vout": [{"scriptPubKey": {"reqSigs": 1, "hex": "76a914eb3257daa592b3f5165eb06509ca4f9f3829e8ae88ac", "addresses": ["1NSc6zAdG2NGbjPLQwAjAuqjHSoq5KECT7"], "asm": "OP_DUP OP_HASH160 eb3257daa592b3f5165eb06509ca4f9f3829e8ae OP_EQUALVERIFY OP_CHECKSIG", "type": "pubkeyhash"}, "value": 1.99, "n": 0}, {"scriptPubKey": {"reqSigs": 1, "hex": "a914aa431460f87c0b1be89aafb3145e2eaa5c2a05f787", "addresses": ["3HDH9vkao1xgD7ydZhXQ2FeBt9rGqKWy6D"], "asm": "OP_HASH160 aa431460f87c0b1be89aafb3145e2eaa5c2a05f7 OP_EQUAL", "type": "scripthash"}, "value": 0.023836, "n": 1}], "hex": "0200000000010235ebc53519ea8917917222b8db9e0f78abb83b2fd115b7881cd5faec7f85930a01000000171600148054393e22ae60bde0e9a9471b9fc8b8ca6edf05feffffff3e071983f57a9bba5f9953a7b4d40b95b98f29dae8d279691f339d76a92f266f010000006a47304402200f54dc396baa25dde57a5e9404d5a706c45f04816eca8f347fae763e4d7cdbda02207fea65a69107ef0e2c612ef81810fd4337015db580a754f513d0902c9496cf8c0121030ccb5a35c5245927d49f69570cb664d5e5fea11f255ef4ca15eb10a585fbeebffeffffff02c07fdc0b000000001976a914eb3257daa592b3f5165eb06509ca4f9f3829e8ae88acf05e24000000000017a914aa431460f87c0b1be89aafb3145e2eaa5c2a05f78702483045022100f269d965a35ac8af263cf5505734589dba287bb0e165e4504f26a5589f005fcc02200835fc7553bf4c4cf91bb982160d754772b09d1d18969367d8db89ca33f7f19f0121023ef48e4e54478cd73baa6b380a2232727b3a3239a781795d45c7f4c29a9ab2b7000c490800", "vin": [{"txinwitness": ["3045022100f269d965a35ac8af263cf5505734589dba287bb0e165e4504f26a5589f005fcc02200835fc7553bf4c4cf91bb982160d754772b09d1d18969367d8db89ca33f7f19f01", "023ef48e4e54478cd73baa6b380a2232727b3a3239a781795d45c7f4c29a9ab2b7"], "sequence": 4294967294, "scriptSig": {"hex": "1600148054393e22ae60bde0e9a9471b9fc8b8ca6edf05", "asm": "00148054393e22ae60bde0e9a9471b9fc8b8ca6edf05"}, "vout": 1, "txid": "0a93857fecfad51c88b715d12f3bb8ab780f9edbb82272911789ea1935c5eb35"}, {"sequence": 4294967294, "scriptSig": {"hex": "47304402200f54dc396baa25dde57a5e9404d5a706c45f04816eca8f347fae763e4d7cdbda02207fea65a69107ef0e2c612ef81810fd4337015db580a754f513d0902c9496cf8c0121030ccb5a35c5245927d49f69570cb664d5e5fea11f255ef4ca15eb10a585fbeebf", "asm": "304402200f54dc396baa25dde57a5e9404d5a706c45f04816eca8f347fae763e4d7cdbda02207fea65a69107ef0e2c612ef81810fd4337015db580a754f513d0902c9496cf8c[ALL] 030ccb5a35c5245927d49f69570cb664d5e5fea11f255ef4ca15eb10a585fbeebf"}, "vout": 1, "txid": "6f262fa9769d331f6979d2e8da298fb9950bd4b4a753995fba9b7af58319073e"}], "txid": "8d6254f93d04a11510a2eef99387f0a9cb8a24996e285e8e53fe8b34df66e8f1", "blocktime": 1537870564, "version": 2, "confirmations": 11515, "time": 1537870564, "locktime": 542988, "vsize": 315, "size": 398}