{"hash": "8d67556f80a5969230d5ac4c6868e983be0b75595d5961907599e9d5f2d83392", "blockhash": "0000000000000000000e13cef7c366c0283d82e591d1acd082e914b08063cdf1", "vout": [{"scriptPubKey": {"type": "nulldata", "hex": "6a146f6d6e69000000000000001f000000050775d800", "asm": "OP_RETURN 6f6d6e69000000000000001f000000050775d800"}, "value": 0.0, "n": 0}, {"scriptPubKey": {"reqSigs": 1, "hex": "76a914c5f548c50f818dedf3159953a402e4ebc70bdb4588ac", "addresses": ["1K3hxSVcZhZRqaGS4EzqL5j5Cq2c6ZQoUC"], "asm": "OP_DUP OP_HASH160 c5f548c50f818dedf3159953a402e4ebc70bdb45 OP_EQUALVERIFY OP_CHECKSIG", "type": "pubkeyhash"}, "value": 0.02865184, "n": 1}, {"scriptPubKey": {"reqSigs": 1, "hex": "a9146b37f47ae7a47a2d9947671abb972d56c2aefb9087", "addresses": ["3BTwFteE8pG1TDAM1TxesgebUSVzTB2HW1"], "asm": "OP_HASH160 6b37f47ae7a47a2d9947671abb972d56c2aefb90 OP_EQUAL", "type": "scripthash"}, "value": 5.4e-06, "n": 2}], "hex": "0100000001572d15db48d1af8da8857a9bc0b70537c48b4243d95052d14f6e95a869526551000000006a47304402207da10663cbe295aac9837572adf0bbf3453d11f2a8451bc036879e3468d00d62022042ecd2d6b9cac2eba0b7c5a4a53a593ac31c8e309ac2eda5ff8d8912d628b94b01210398451d6f7d0495097af5d0577c54177003f2fec8ad63c798d45d1d6c757ac59efeffffff030000000000000000166a146f6d6e69000000000000001f000000050775d80020b82b00000000001976a914c5f548c50f818dedf3159953a402e4ebc70bdb4588ac1c0200000000000017a9146b37f47ae7a47a2d9947671abb972d56c2aefb908710490800", "vin": [{"sequence": 4294967294, "scriptSig": {"hex": "47304402207da10663cbe295aac9837572adf0bbf3453d11f2a8451bc036879e3468d00d62022042ecd2d6b9cac2eba0b7c5a4a53a593ac31c8e309ac2eda5ff8d8912d628b94b01210398451d6f7d0495097af5d0577c54177003f2fec8ad63c798d45d1d6c757ac59e", "asm": "304402207da10663cbe295aac9837572adf0bbf3453d11f2a8451bc036879e3468d00d62022042ecd2d6b9cac2eba0b7c5a4a53a593ac31c8e309ac2eda5ff8d8912d628b94b[ALL] 0398451d6f7d0495097af5d0577c54177003f2fec8ad63c798d45d1d6c757ac59e"}, "vout": 0, "txid": "51655269a8956e4fd15250d943428bc43705b7c09b7a85a88dafd148db152d57"}], "txid": "8d67556f80a5969230d5ac4c6868e983be0b75595d5961907599e9d5f2d83392", "blocktime": 1537871767, "version": 1, "confirmations": 11495, "time": 1537871767, "locktime": 542992, "vsize": 254, "size": 254}