{"hash": "d9bfa2b58b62964b387b90fe2ee20710d286539d9087cebb1f698d570e41af7c", "blockhash": "0000000000000000001f76057863aec43deb6fa401d9628bb513d65a8098bfab", "vout": [{"scriptPubKey": {"reqSigs": 1, "hex": "a9140b4af073ab3bcdd491289566dd734a6e9492aecb87", "addresses": ["32ij8XRNAuNwDLccVFA2hzqBxjCqAg7Hzc"], "asm": "OP_HASH160 0b4af073ab3bcdd491289566dd734a6e9492aecb OP_EQUAL", "type": "scripthash"}, "value": 0.04835609, "n": 0}, {"scriptPubKey": {"reqSigs": 1, "hex": "a914e51954280ebd6fd46198d12d9a2586980c369dc187", "addresses": ["3NaP1LvhZENajZqDfk3ggUbzdckqUMSQw9"], "asm": "OP_HASH160 e51954280ebd6fd46198d12d9a2586980c369dc1 OP_EQUAL", "type": "scripthash"}, "value": 0.00844845, "n": 1}], "hex": "020000000001031995df23152696d9ddaeaa286f804ea64948360740ccb11b396ab8b39e9f72f20100000017160014a224d9e817e7d009dde5e0d30b0c2eb9b64192ecfeffffffa5db520fc7efb432684ae0c06d9e157fc86ffd8648ea5ed4dd18682cb0b4084201000000171600148d6bf2e779a671c7c6613296825a4f519c599c80feffffffeb3eb16dfb06cbe4c113379079d6fb573045a040a7b3ae60a178af1e32ff8314010000001716001454ee094afd3ac4e3e9ffc077ab42b3d02076d0d1feffffff0219c949000000000017a9140b4af073ab3bcdd491289566dd734a6e9492aecb872de40c000000000017a914e51954280ebd6fd46198d12d9a2586980c369dc187024830450221008a119d5d7ff68b6240db697edb36ba34f074a46e36a79fb40b968ceef6e6bacb022022dc8421afa3bd79833f865f38680255b538c5d0bdee91a891da36cab3a56184012102962474bb49be73780770b7366e9da1a200111fa032fed1741ce2de8a4b7141e7024730440220260d26437d8de7e5da33368e67315e4a83783fcdc83fb406933b3bc2f8b6e2570220167009ba30297c0bfd2993b11cda5b8bdb9b493773459cfdb5f5846fa7d9d48b0121039f0149eeae9044fb31455a8315ecafa48350c2df56594b5b65d6c091ceb6e575024730440220640ec8ab0d3936b333d16d2a140d7c4a777ddafa4a00650fb1b13cc812e49a8302202abe50e0a30ef09537fa4547b194c64be7084f4218798a1dafee9f313a36ff5301210309bc8b1f8756ec0088250aed1b8e3c309fbae61fc2866638ab8b617d41396ae4ea480800", "vin": [{"txinwitness": ["30450221008a119d5d7ff68b6240db697edb36ba34f074a46e36a79fb40b968ceef6e6bacb022022dc8421afa3bd79833f865f38680255b538c5d0bdee91a891da36cab3a5618401", "02962474bb49be73780770b7366e9da1a200111fa032fed1741ce2de8a4b7141e7"], "sequence": 4294967294, "scriptSig": {"hex": "160014a224d9e817e7d009dde5e0d30b0c2eb9b64192ec", "asm": "0014a224d9e817e7d009dde5e0d30b0c2eb9b64192ec"}, "vout": 1, "txid": "f2729f9eb3b86a391bb1cc4007364849a64e806f28aaaeddd996261523df9519"}, {"txinwitness": ["30440220260d26437d8de7e5da33368e67315e4a83783fcdc83fb406933b3bc2f8b6e2570220167009ba30297c0bfd2993b11cda5b8bdb9b493773459cfdb5f5846fa7d9d48b01", "039f0149eeae9044fb31455a8315ecafa48350c2df56594b5b65d6c091ceb6e575"], "sequence": 4294967294, "scriptSig": {"hex": "1600148d6bf2e779a671c7c6613296825a4f519c599c80", "asm": "00148d6bf2e779a671c7c6613296825a4f519c599c80"}, "vout": 1, "txid": "4208b4b02c6818ddd45eea4886fd6fc87f159e6dc0e04a6832b4efc70f52dba5"}, {"txinwitness": ["30440220640ec8ab0d3936b333d16d2a140d7c4a777ddafa4a00650fb1b13cc812e49a8302202abe50e0a30ef09537fa4547b194c64be7084f4218798a1dafee9f313a36ff5301", "0309bc8b1f8756ec0088250aed1b8e3c309fbae61fc2866638ab8b617d41396ae4"], "sequence": 4294967294, "scriptSig": {"hex": "16001454ee094afd3ac4e3e9ffc077ab42b3d02076d0d1", "asm": "001454ee094afd3ac4e3e9ffc077ab42b3d02076d0d1"}, "vout": 1, "txid": "1483ff321eaf78a160aeb3a740a0453057fbd679903713c1e4cb06fb6db13eeb"}], "txid": "8d6c0845c206484f7119e8a538f996f93bdb5325f8cf5fad830e23c9dd70dceb", "blocktime": 1537873891, "version": 2, "confirmations": 11474, "time": 1537873891, "locktime": 542954, "vsize": 347, "size": 590}