{"hash": "8d6e7bfe582c979826b19865edb924cb72826a65d9b870e4b44233058a2ad04e", "blockhash": "0000000000000000000baef3f32e3676a92c3b2e5da21b426e4f302fc371ce76", "vout": [{"scriptPubKey": {"reqSigs": 1, "hex": "a914aef689eef421a2be0848c543c8dea98bab82ee1c87", "addresses": ["3He8qjniFVXrAbJUoxa1kRzjmzFmmJy2Az"], "asm": "OP_HASH160 aef689eef421a2be0848c543c8dea98bab82ee1c OP_EQUAL", "type": "scripthash"}, "value": 0.00050701, "n": 0}, {"scriptPubKey": {"reqSigs": 1, "hex": "76a914ff22c82cd526f186feea70323352d9659abadea288ac", "addresses": ["1QG2ycFzazQkeV5FCYCXVygXHDfaAJX6K6"], "asm": "OP_DUP OP_HASH160 ff22c82cd526f186feea70323352d9659abadea2 OP_EQUALVERIFY OP_CHECKSIG", "type": "pubkeyhash"}, "value": 0.00147265, "n": 1}], "hex": "010000000128bb3d6efb3498aecb5b7c077d1ee169e84a1327100b65083a35cdabe94392ca010000006a47304402207faa61a41c6df4b0bb01c701987ab5c502b4d3b706e51e5eb34f59ce2937c40c022015f493ceae94ececff3182f5d84454745471619cb09ff9fe4f412530ea39a1a70121032f6f78ab95c2c7f945e5feba4058553285dbea68c239e90f725669cd9a8f402cffffffff020dc600000000000017a914aef689eef421a2be0848c543c8dea98bab82ee1c87413f0200000000001976a914ff22c82cd526f186feea70323352d9659abadea288ac00000000", "vin": [{"sequence": 4294967295, "scriptSig": {"hex": "47304402207faa61a41c6df4b0bb01c701987ab5c502b4d3b706e51e5eb34f59ce2937c40c022015f493ceae94ececff3182f5d84454745471619cb09ff9fe4f412530ea39a1a70121032f6f78ab95c2c7f945e5feba4058553285dbea68c239e90f725669cd9a8f402c", "asm": "304402207faa61a41c6df4b0bb01c701987ab5c502b4d3b706e51e5eb34f59ce2937c40c022015f493ceae94ececff3182f5d84454745471619cb09ff9fe4f412530ea39a1a7[ALL] 032f6f78ab95c2c7f945e5feba4058553285dbea68c239e90f725669cd9a8f402c"}, "vout": 1, "txid": "ca9243e9abcd353a08650b1027134ae869e11e7d077c5bcbae9834fb6e3dbb28"}], "txid": "8d6e7bfe582c979826b19865edb924cb72826a65d9b870e4b44233058a2ad04e", "blocktime": 1537876114, "version": 1, "confirmations": 11460, "time": 1537876114, "locktime": 0, "vsize": 223, "size": 223}