{"hash": "4e39f768b09aa9cf6fc04439555f6523058fe0a880304d00f63bdb10c2f71a9e", "blockhash": "0000000000000000001f0ddff1eddb255c1121bcd4da4f1bc9a0da00cae72433", "vout": [{"scriptPubKey": {"reqSigs": 1, "hex": "76a9140dfa18026f859fc1addbcd4faff811c2caa462af88ac", "addresses": ["12GuPKFsCJBDPMgKMH197KEmiJACQ8bGA6"], "asm": "OP_DUP OP_HASH160 0dfa18026f859fc1addbcd4faff811c2caa462af OP_EQUALVERIFY OP_CHECKSIG", "type": "pubkeyhash"}, "value": 0.00203, "n": 0}, {"scriptPubKey": {"reqSigs": 1, "hex": "a914d2b724213cde0aa39cab65c7547e66ea43ecf47587", "addresses": ["3LuBDhPFgG4FNeMLSh2vSGvv7hcj2CjAsE"], "asm": "OP_HASH160 d2b724213cde0aa39cab65c7547e66ea43ecf475 OP_EQUAL", "type": "scripthash"}, "value": 1.496e-05, "n": 1}], "hex": "020000000001012a3e2e15fe75724ae724232d90ac4c579fbba157861290a7acea01d99041a4fe030000001716001440b4c0fdf8d26d0253b408b6846f3a5db671cdc2feffffff02f8180300000000001976a9140dfa18026f859fc1addbcd4faff811c2caa462af88acd80500000000000017a914d2b724213cde0aa39cab65c7547e66ea43ecf4758702473044022026b41d07129c206be7db3f9b4319cfceacf285f0aa5424e9e8ceb2b03e75e93d02206cb8043d5b15ce74404584fdfb13b0a93a9702c146d1d0647ff7b1e6767ee97f0121037e64eadba49d8184d6aafc111b6972835661b1d0981b2da53c7a9ec7e306251811490800", "vin": [{"txinwitness": ["3044022026b41d07129c206be7db3f9b4319cfceacf285f0aa5424e9e8ceb2b03e75e93d02206cb8043d5b15ce74404584fdfb13b0a93a9702c146d1d0647ff7b1e6767ee97f01", "037e64eadba49d8184d6aafc111b6972835661b1d0981b2da53c7a9ec7e3062518"], "sequence": 4294967294, "scriptSig": {"hex": "16001440b4c0fdf8d26d0253b408b6846f3a5db671cdc2", "asm": "001440b4c0fdf8d26d0253b408b6846f3a5db671cdc2"}, "vout": 3, "txid": "fea44190d901eaaca790128657a1bb9f574cac902d2324e74a7275fe152e3e2a"}], "txid": "8d7406c8e6672625fb3fb56ca0a43a62081286b6cc48c102034ef8a0f3279cca", "blocktime": 1537872018, "version": 2, "confirmations": 11489, "time": 1537872018, "locktime": 542993, "vsize": 168, "size": 249}