{"hash": "8d7b66573424df96080cabc5d6a5be934630662aa2c2e2d0f0ecf4bf3c3e6dfe", "blockhash": "0000000000000000001cda96e906b7601b7a6fb1a3b62bca570a9e5d8f4b3de1", "vout": [{"scriptPubKey": {"reqSigs": 1, "hex": "76a914fc9a45762d5093aae460cd43325959ae9c11e61c88ac", "addresses": ["1Q2e6JVFeuTmahtZK5fbEa5q6FLvNx1UY5"], "asm": "OP_DUP OP_HASH160 fc9a45762d5093aae460cd43325959ae9c11e61c OP_EQUALVERIFY OP_CHECKSIG", "type": "pubkeyhash"}, "value": 0.00010421, "n": 0}, {"scriptPubKey": {"reqSigs": 1, "hex": "a9146ce1b3eaa72a2636ad3d0f78cbeba2a02b7145fa87", "addresses": ["3BcjHNEN6cw3iXHoWvYheXFsqj6qRMQkeE"], "asm": "OP_HASH160 6ce1b3eaa72a2636ad3d0f78cbeba2a02b7145fa OP_EQUAL", "type": "scripthash"}, "value": 0.0007804, "n": 1}], "hex": "010000000193996efb31318d7cfd2e178b8889203b290a730aa08cf7b59cc8ebafa5acb1df000000006b483045022100880bcd8ee5d8d6fed1a167e2caa2e8108b887b1a79815f81a882e4a308575fa2022074ee510a993c7a866b1153b29e13cfe31cea19922f5def0f0f13dd0966202e400121037d565f01ea88a8102b0eef4d0b2b18aed793fb86a3537d785e52e79feb7caee1ffffffff02b5280000000000001976a914fc9a45762d5093aae460cd43325959ae9c11e61c88acd83001000000000017a9146ce1b3eaa72a2636ad3d0f78cbeba2a02b7145fa8700000000", "vin": [{"sequence": 4294967295, "scriptSig": {"hex": "483045022100880bcd8ee5d8d6fed1a167e2caa2e8108b887b1a79815f81a882e4a308575fa2022074ee510a993c7a866b1153b29e13cfe31cea19922f5def0f0f13dd0966202e400121037d565f01ea88a8102b0eef4d0b2b18aed793fb86a3537d785e52e79feb7caee1", "asm": "3045022100880bcd8ee5d8d6fed1a167e2caa2e8108b887b1a79815f81a882e4a308575fa2022074ee510a993c7a866b1153b29e13cfe31cea19922f5def0f0f13dd0966202e40[ALL] 037d565f01ea88a8102b0eef4d0b2b18aed793fb86a3537d785e52e79feb7caee1"}, "vout": 0, "txid": "dfb1aca5afebc89cb5f78ca00a730a293b2089888b172efd7c8d3131fb6e9993"}], "txid": "8d7b66573424df96080cabc5d6a5be934630662aa2c2e2d0f0ecf4bf3c3e6dfe", "blocktime": 1537873282, "version": 1, "confirmations": 11485, "time": 1537873282, "locktime": 0, "vsize": 224, "size": 224}