{"hash": "8d7d5243c422b7ea7ff4eccf745319c9a18a846702b23d80f6c5588bd00a9725", "blockhash": "000000000000000000022b45ed06c6f4ccd3cf7fb5ba4856ebd2e58215665228", "vout": [{"scriptPubKey": {"type": "nulldata", "hex": "6a146f6d6e69000000000000001f0000007dd6767740", "asm": "OP_RETURN 6f6d6e69000000000000001f0000007dd6767740"}, "value": 0.0, "n": 0}, {"scriptPubKey": {"reqSigs": 1, "hex": "76a9144ffd1c5d0df7d17f277dbe61caa644d25a0db42e88ac", "addresses": ["18HwbbraNQBD9jS7ePm7SmMjRtVtuDfCVT"], "asm": "OP_DUP OP_HASH160 4ffd1c5d0df7d17f277dbe61caa644d25a0db42e OP_EQUALVERIFY OP_CHECKSIG", "type": "pubkeyhash"}, "value": 0.0044438, "n": 1}, {"scriptPubKey": {"reqSigs": 1, "hex": "76a914a25dec4d0011064ef106a983c39c7a540699f22088ac", "addresses": ["1FoWyxwPXuj4C6abqwhjDWdz6D4PZgYRjA"], "asm": "OP_DUP OP_HASH160 a25dec4d0011064ef106a983c39c7a540699f220 OP_EQUALVERIFY OP_CHECKSIG", "type": "pubkeyhash"}, "value": 5.46e-06, "n": 2}], "hex": "01000000074c97e85afba713e148ce8ba85ae92d31cc5a2a73b2ca6787814338e04abdc95d020000006a4730440220022d49cf0a9a7f19859b77a466f3b6f9f584791ea18acf99554d48f4a4a855f3022012a2e0cab539c8ab123f32cbd6064083795c15dbaf8ebf2e9c62e29db5095251012103e68ba80f308dcd813df3b0ff52ddb92a667fdeb5d391b2726a0c0c27a3f7a017feffffff4d689a228def83f916e4fcf00e10308052bb0144af03c73342f4564bdc727b59020000006a47304402205e2cf8c83d70b447cd75bdf783921323a5b52a61f34ff1cb52cf119a79fa5d19022001927e602991da9e6aba45099ba8030bf85e4f763b01ee329c592d515f0cc27d012103e68ba80f308dcd813df3b0ff52ddb92a667fdeb5d391b2726a0c0c27a3f7a017feffffff5471a7b7c446c13a2b9dbd6a8e31358f845f86a696927aec71a97c82f6aab0fe020000006a473044022019fdf11c6ffd4158e3162fff5f39d16be39fc297657225e1d135d59de64ccc63022035ca445460edc80524701c24830bbd2de0e1f1613762aa4778ad71ce3fb71534012103e68ba80f308dcd813df3b0ff52ddb92a667fdeb5d391b2726a0c0c27a3f7a017feffffff624ed3897d9c692abeadbfd03f75428d1822fca33502cfa9b18f7627a5e19027020000006b483045022100e844b2327015171d02d6ea94338b58a8d55ebfda7c9b2f09826d82a3d70dfd7702204f6d94929b8f980175c2b7bb26c267771348d7d5e804b08d882bab16124198bc012103e68ba80f308dcd813df3b0ff52ddb92a667fdeb5d391b2726a0c0c27a3f7a017feffffff6409ccfda60367cadf89478e360a5507142777a4bd850a3b6ae207a90020c0e4020000006a4730440220115dd428b930b84349e297eaf7ca20516adf29a52174146294b618d7112712a502201feee6e99d7299058b257b9a4bec7686e7764bd52af7bc5e074319eaf287d05f012103e68ba80f308dcd813df3b0ff52ddb92a667fdeb5d391b2726a0c0c27a3f7a017feffffff889e47476251ddb19684dc973745d4b5340e36dfcc9435a44bc2acdddf69462f020000006b483045022100d43dff360748cec681d93927dcc1a5255fc53c02c5622205aac54f18fd9cbbc0022070018f8d3313ff1ce444330608078b02ccc41202f771846644dac195c8fc47ef012103e68ba80f308dcd813df3b0ff52ddb92a667fdeb5d391b2726a0c0c27a3f7a017feffffff034c720fd69a4b1dda35e48f297bd8d69b58c2bbfcc8eb9d6872aad29fba2917010000006a47304402204340849b887c24cfc86baf5b90ee7ba7640a1d4d1fcca32cf46cd8d80b993f63022078442b6ae7e89a03fced687013bc724e8c0ddf8224f3c82bb8bbf65f9ea77689012103e68ba80f308dcd813df3b0ff52ddb92a667fdeb5d391b2726a0c0c27a3f7a017feffffff030000000000000000166a146f6d6e69000000000000001f0000007dd6767740dcc70600000000001976a9144ffd1c5d0df7d17f277dbe61caa644d25a0db42e88ac22020000000000001976a914a25dec4d0011064ef106a983c39c7a540699f22088ac0b490800", "vin": [{"sequence": 4294967294, "scriptSig": {"hex": "4730440220022d49cf0a9a7f19859b77a466f3b6f9f584791ea18acf99554d48f4a4a855f3022012a2e0cab539c8ab123f32cbd6064083795c15dbaf8ebf2e9c62e29db5095251012103e68ba80f308dcd813df3b0ff52ddb92a667fdeb5d391b2726a0c0c27a3f7a017", "asm": "30440220022d49cf0a9a7f19859b77a466f3b6f9f584791ea18acf99554d48f4a4a855f3022012a2e0cab539c8ab123f32cbd6064083795c15dbaf8ebf2e9c62e29db5095251[ALL] 03e68ba80f308dcd813df3b0ff52ddb92a667fdeb5d391b2726a0c0c27a3f7a017"}, "vout": 2, "txid": "5dc9bd4ae03843818767cab2732a5acc312de95aa88bce48e113a7fb5ae8974c"}, {"sequence": 4294967294, "scriptSig": {"hex": "47304402205e2cf8c83d70b447cd75bdf783921323a5b52a61f34ff1cb52cf119a79fa5d19022001927e602991da9e6aba45099ba8030bf85e4f763b01ee329c592d515f0cc27d012103e68ba80f308dcd813df3b0ff52ddb92a667fdeb5d391b2726a0c0c27a3f7a017", "asm": "304402205e2cf8c83d70b447cd75bdf783921323a5b52a61f34ff1cb52cf119a79fa5d19022001927e602991da9e6aba45099ba8030bf85e4f763b01ee329c592d515f0cc27d[ALL] 03e68ba80f308dcd813df3b0ff52ddb92a667fdeb5d391b2726a0c0c27a3f7a017"}, "vout": 2, "txid": "597b72dc4b56f44233c703af4401bb528030100ef0fce416f983ef8d229a684d"}, {"sequence": 4294967294, "scriptSig": {"hex": "473044022019fdf11c6ffd4158e3162fff5f39d16be39fc297657225e1d135d59de64ccc63022035ca445460edc80524701c24830bbd2de0e1f1613762aa4778ad71ce3fb71534012103e68ba80f308dcd813df3b0ff52ddb92a667fdeb5d391b2726a0c0c27a3f7a017", "asm": "3044022019fdf11c6ffd4158e3162fff5f39d16be39fc297657225e1d135d59de64ccc63022035ca445460edc80524701c24830bbd2de0e1f1613762aa4778ad71ce3fb71534[ALL] 03e68ba80f308dcd813df3b0ff52ddb92a667fdeb5d391b2726a0c0c27a3f7a017"}, "vout": 2, "txid": "feb0aaf6827ca971ec7a9296a6865f848f35318e6abd9d2b3ac146c4b7a77154"}, {"sequence": 4294967294, "scriptSig": {"hex": "483045022100e844b2327015171d02d6ea94338b58a8d55ebfda7c9b2f09826d82a3d70dfd7702204f6d94929b8f980175c2b7bb26c267771348d7d5e804b08d882bab16124198bc012103e68ba80f308dcd813df3b0ff52ddb92a667fdeb5d391b2726a0c0c27a3f7a017", "asm": "3045022100e844b2327015171d02d6ea94338b58a8d55ebfda7c9b2f09826d82a3d70dfd7702204f6d94929b8f980175c2b7bb26c267771348d7d5e804b08d882bab16124198bc[ALL] 03e68ba80f308dcd813df3b0ff52ddb92a667fdeb5d391b2726a0c0c27a3f7a017"}, "vout": 2, "txid": "2790e1a527768fb1a9cf0235a3fc22188d42753fd0bfadbe2a699c7d89d34e62"}, {"sequence": 4294967294, "scriptSig": {"hex": "4730440220115dd428b930b84349e297eaf7ca20516adf29a52174146294b618d7112712a502201feee6e99d7299058b257b9a4bec7686e7764bd52af7bc5e074319eaf287d05f012103e68ba80f308dcd813df3b0ff52ddb92a667fdeb5d391b2726a0c0c27a3f7a017", "asm": "30440220115dd428b930b84349e297eaf7ca20516adf29a52174146294b618d7112712a502201feee6e99d7299058b257b9a4bec7686e7764bd52af7bc5e074319eaf287d05f[ALL] 03e68ba80f308dcd813df3b0ff52ddb92a667fdeb5d391b2726a0c0c27a3f7a017"}, "vout": 2, "txid": "e4c02000a907e26a3b0a85bda477271407550a368e4789dfca6703a6fdcc0964"}, {"sequence": 4294967294, "scriptSig": {"hex": "483045022100d43dff360748cec681d93927dcc1a5255fc53c02c5622205aac54f18fd9cbbc0022070018f8d3313ff1ce444330608078b02ccc41202f771846644dac195c8fc47ef012103e68ba80f308dcd813df3b0ff52ddb92a667fdeb5d391b2726a0c0c27a3f7a017", "asm": "3045022100d43dff360748cec681d93927dcc1a5255fc53c02c5622205aac54f18fd9cbbc0022070018f8d3313ff1ce444330608078b02ccc41202f771846644dac195c8fc47ef[ALL] 03e68ba80f308dcd813df3b0ff52ddb92a667fdeb5d391b2726a0c0c27a3f7a017"}, "vout": 2, "txid": "2f4669dfddacc24ba43594ccdf360e34b5d4453797dc8496b1dd516247479e88"}, {"sequence": 4294967294, "scriptSig": {"hex": "47304402204340849b887c24cfc86baf5b90ee7ba7640a1d4d1fcca32cf46cd8d80b993f63022078442b6ae7e89a03fced687013bc724e8c0ddf8224f3c82bb8bbf65f9ea77689012103e68ba80f308dcd813df3b0ff52ddb92a667fdeb5d391b2726a0c0c27a3f7a017", "asm": "304402204340849b887c24cfc86baf5b90ee7ba7640a1d4d1fcca32cf46cd8d80b993f63022078442b6ae7e89a03fced687013bc724e8c0ddf8224f3c82bb8bbf65f9ea77689[ALL] 03e68ba80f308dcd813df3b0ff52ddb92a667fdeb5d391b2726a0c0c27a3f7a017"}, "vout": 1, "txid": "1729ba9fd2aa72689debc8fcbbc2589bd6d87b298fe435da1d4b9ad60f724c03"}], "txid": "8d7d5243c422b7ea7ff4eccf745319c9a18a846702b23d80f6c5588bd00a9725", "blocktime": 1537869901, "version": 1, "confirmations": 11524, "time": 1537869901, "locktime": 542987, "vsize": 1140, "size": 1140}