{"hash": "8d7fcbe3ea28869ce8e008159db7cf4911152e11c9acc295978d67bcc8d32d4a", "blockhash": "0000000000000000000dcc0f55137456b1a82d3642486a52398922ac4d620174", "vout": [{"scriptPubKey": {"type": "nulldata", "hex": "6a4c500000776c0001ab806348ac0458a304e2218a86aeaeacb577c031fc3a016b46dc7dc7d096c53662e1a68b38bd2bb20a9e62968ad45baa0878061399fb5ed936ab1d100759d4ba30d2c37bb011d97e02cf", "asm": "OP_RETURN 0000776c0001ab806348ac0458a304e2218a86aeaeacb577c031fc3a016b46dc7dc7d096c53662e1a68b38bd2bb20a9e62968ad45baa0878061399fb5ed936ab1d100759d4ba30d2c37bb011d97e02cf"}, "value": 0.0, "n": 0}, {"scriptPubKey": {"reqSigs": 1, "hex": "76a9148f7bd2b9d0287c749a20b455382ea7a6237b8a0588ac", "addresses": ["1E5fxpGGvbuLoT3WrSJ5vE3HRMQwitM8td"], "asm": "OP_DUP OP_HASH160 8f7bd2b9d0287c749a20b455382ea7a6237b8a05 OP_EQUALVERIFY OP_CHECKSIG", "type": "pubkeyhash"}, "value": 0.00649999, "n": 1}], "hex": "0100000001661239b5a49159330f626bcc02e4c6ccc7d03c57c5aaecdd5cc899782e5cf166010000006b48304502210088b94225a7504c92f7ffa601aee73b07220f1be0cd0f87c851da7bb4e06f046802203cf0ada5e9e84643f1802a558a8911462a25631a41e6ce1d81e3b7518fc7b1f801210213303f569b8202c510243e7a52214b28325be074b7921cea3c1e03a1e68c2d39ffffffff020000000000000000536a4c500000776c0001ab806348ac0458a304e2218a86aeaeacb577c031fc3a016b46dc7dc7d096c53662e1a68b38bd2bb20a9e62968ad45baa0878061399fb5ed936ab1d100759d4ba30d2c37bb011d97e02cf0feb0900000000001976a9148f7bd2b9d0287c749a20b455382ea7a6237b8a0588ac00000000", "vin": [{"sequence": 4294967295, "scriptSig": {"hex": "48304502210088b94225a7504c92f7ffa601aee73b07220f1be0cd0f87c851da7bb4e06f046802203cf0ada5e9e84643f1802a558a8911462a25631a41e6ce1d81e3b7518fc7b1f801210213303f569b8202c510243e7a52214b28325be074b7921cea3c1e03a1e68c2d39", "asm": "304502210088b94225a7504c92f7ffa601aee73b07220f1be0cd0f87c851da7bb4e06f046802203cf0ada5e9e84643f1802a558a8911462a25631a41e6ce1d81e3b7518fc7b1f8[ALL] 0213303f569b8202c510243e7a52214b28325be074b7921cea3c1e03a1e68c2d39"}, "vout": 1, "txid": "66f15c2e7899c85cddecaac5573cd0c7ccc6e402cc6b620f335991a4b5391266"}], "txid": "8d7fcbe3ea28869ce8e008159db7cf4911152e11c9acc295978d67bcc8d32d4a", "blocktime": 1537870268, "version": 1, "confirmations": 11518, "time": 1537870268, "locktime": 0, "vsize": 284, "size": 284}