{"hash": "fba4c005b4b81833ac4806b35c0b478fbcd1fedce75ebe178fa7428e42e347d7", "blockhash": "0000000000000000001e0dab787dd257d1dbfcb92a98c2207d5e1078be1f4165", "vout": [{"scriptPubKey": {"reqSigs": 1, "hex": "a9143da1d500690f8701e5fcedc78c3ef032640b744787", "addresses": ["37Ju1Xqb4QWX1GsJDQB9QWTboDwzMxfnrc"], "asm": "OP_HASH160 3da1d500690f8701e5fcedc78c3ef032640b7447 OP_EQUAL", "type": "scripthash"}, "value": 0.1556856, "n": 0}, {"scriptPubKey": {"reqSigs": 1, "hex": "a914f9989ca1299d9441b9701ab93fddcbc251a78d9787", "addresses": ["3QSkzxxjNo9ofvgQ7YtmQ9NnAZz8MZ5Kqc"], "asm": "OP_HASH160 f9989ca1299d9441b9701ab93fddcbc251a78d97 OP_EQUAL", "type": "scripthash"}, "value": 0.29843941, "n": 1}], "hex": "02000000000101e90b21c123ffa0c99215a71943346be33a34987b7a216706d1901342af11909e01000000171600145f50ce55bb4dd1994161357be5666953b26d5323feffffff02b08eed000000000017a9143da1d500690f8701e5fcedc78c3ef032640b744787e561c7010000000017a914f9989ca1299d9441b9701ab93fddcbc251a78d97870247304402204fdce55b410c4c8f96127bc7358f3bb104ae8fe794d933cc5dcf8c8d23b1b195022010407a1a837b634a78e33b00b104cab38477928b225f99c9a95f7eef83516835012102e8f4e0570129e440628ff691e5ba5c19d1772c4dc927cf9d4ef5ae51e28712cbb7480800", "vin": [{"txinwitness": ["304402204fdce55b410c4c8f96127bc7358f3bb104ae8fe794d933cc5dcf8c8d23b1b195022010407a1a837b634a78e33b00b104cab38477928b225f99c9a95f7eef8351683501", "02e8f4e0570129e440628ff691e5ba5c19d1772c4dc927cf9d4ef5ae51e28712cb"], "sequence": 4294967294, "scriptSig": {"hex": "1600145f50ce55bb4dd1994161357be5666953b26d5323", "asm": "00145f50ce55bb4dd1994161357be5666953b26d5323"}, "vout": 1, "txid": "9e9011af421390d10667217a7b98343ae36b344319a71592c9a0ff23c1210be9"}], "txid": "8d8871b71ad9931525d3b2f399f90fc1a3fafa99859e30f7d2b4c0f08ce96b27", "blocktime": 1537872475, "version": 2, "confirmations": 11487, "time": 1537872475, "locktime": 542903, "vsize": 166, "size": 247}