{"hash": "8d8a744031d5663dbff7eb11946351787d6b3656c99a6572c9309058862dfd52", "blockhash": "0000000000000000001f76057863aec43deb6fa401d9628bb513d65a8098bfab", "vout": [{"scriptPubKey": {"reqSigs": 1, "hex": "76a914385724dbf310d53dbfa59e894d703621d595ee6e88ac", "addresses": ["168uEcXL1oXyP8WscxhMoHB7NeBXPW4R9S"], "asm": "OP_DUP OP_HASH160 385724dbf310d53dbfa59e894d703621d595ee6e OP_EQUALVERIFY OP_CHECKSIG", "type": "pubkeyhash"}, "value": 0.00734128, "n": 0}, {"scriptPubKey": {"reqSigs": 1, "hex": "76a9147d9fdd173deba09e6608f73e0f1a45938f34a7b888ac", "addresses": ["1CTEyVwUZbNtRQS5wbPP4ydbqjJCEWUiwH"], "asm": "OP_DUP OP_HASH160 7d9fdd173deba09e6608f73e0f1a45938f34a7b8 OP_EQUALVERIFY OP_CHECKSIG", "type": "pubkeyhash"}, "value": 0.59904308, "n": 1}, {"scriptPubKey": {"reqSigs": 1, "hex": "76a9148d348cb21ecf183409bb5d4fa8a4fbc5f2d7c49688ac", "addresses": ["1DsdEFxHbEPYwgxTppvZ1zVBMumjPyhoR8"], "asm": "OP_DUP OP_HASH160 8d348cb21ecf183409bb5d4fa8a4fbc5f2d7c496 OP_EQUALVERIFY OP_CHECKSIG", "type": "pubkeyhash"}, "value": 0.00861668, "n": 2}, {"scriptPubKey": {"reqSigs": 1, "hex": "76a914809103afc2b91a3cb027b44e74aa435aeb56413688ac", "addresses": ["1CioDLE8pYViwRz25Hmjxz3PqiuCQjB4Cy"], "asm": "OP_DUP OP_HASH160 809103afc2b91a3cb027b44e74aa435aeb564136 OP_EQUALVERIFY OP_CHECKSIG", "type": "pubkeyhash"}, "value": 0.00998406, "n": 3}, {"scriptPubKey": {"reqSigs": 1, "hex": "76a914d11cb16af7c97ba458d0763c85bf2875ea4bce8688ac", "addresses": ["1L4gbikUW64Tb1C4MgfwertiHAEsebQ1PM"], "asm": "OP_DUP OP_HASH160 d11cb16af7c97ba458d0763c85bf2875ea4bce86 OP_EQUALVERIFY OP_CHECKSIG", "type": "pubkeyhash"}, "value": 0.99839179, "n": 4}, {"scriptPubKey": {"reqSigs": 1, "hex": "76a91482793a6bb35ce930995e3794d765b8208d71d37088ac", "addresses": ["1Ctt52EsiVrPdkpBXNn9BrdYTkBhZMPCDL"], "asm": "OP_DUP OP_HASH160 82793a6bb35ce930995e3794d765b8208d71d370 OP_EQUALVERIFY OP_CHECKSIG", "type": "pubkeyhash"}, "value": 0.09686967, "n": 5}, {"scriptPubKey": {"reqSigs": 1, "hex": "76a91478f09a6a86ef360e4ff53b741f5c967def439d7c88ac", "addresses": ["1C2UKRVNUH8yqtpfRQiEDci5B95yrcXDUp"], "asm": "OP_DUP OP_HASH160 78f09a6a86ef360e4ff53b741f5c967def439d7c OP_EQUALVERIFY OP_CHECKSIG", "type": "pubkeyhash"}, "value": 0.00810007, "n": 6}, {"scriptPubKey": {"reqSigs": 1, "hex": "76a9147941d1ac5141791e2bd6400982b256a78f8cfe1a88ac", "addresses": ["1C49cQ6hxQhsr6dpBEWPEjmTAR6jQqQtFz"], "asm": "OP_DUP OP_HASH160 7941d1ac5141791e2bd6400982b256a78f8cfe1a OP_EQUALVERIFY OP_CHECKSIG", "type": "pubkeyhash"}, "value": 0.0649337, "n": 7}, {"scriptPubKey": {"reqSigs": 1, "hex": "76a914fa35403a6fcfee535c0ce00fefb996d07c51716288ac", "addresses": ["1Poyitsqbn2cYLiytxZ2gdyaYLxg3Jox5B"], "asm": "OP_DUP OP_HASH160 fa35403a6fcfee535c0ce00fefb996d07c517162 OP_EQUALVERIFY OP_CHECKSIG", "type": "pubkeyhash"}, "value": 0.01064373, "n": 8}, {"scriptPubKey": {"reqSigs": 1, "hex": "76a914572af660a62346c14e52cf2a0c4e3ccdd3bc9b9188ac", "addresses": ["18wuFmfDc2fAwX58PkaxZWqqoMBQnYm1oQ"], "asm": "OP_DUP OP_HASH160 572af660a62346c14e52cf2a0c4e3ccdd3bc9b91 OP_EQUALVERIFY OP_CHECKSIG", "type": "pubkeyhash"}, "value": 0.23087848, "n": 9}, {"scriptPubKey": {"reqSigs": 1, "hex": "76a914dc75813fc7b827e0754a8856053474173606674388ac", "addresses": ["1M6gRavRvL436XS95VSyoasnH4oWJg25g3"], "asm": "OP_DUP OP_HASH160 dc75813fc7b827e0754a88560534741736066743 OP_EQUALVERIFY OP_CHECKSIG", "type": "pubkeyhash"}, "value": 0.03103044, "n": 10}], "hex": "010000000d3940d3536619d22bff399d04eab2ebf8d9e48aca821143439b7680378382806b000000006b483045022100c009659911aa48e484bc959640c99047b576903154211ef181fff22b45b40953022042ef930ca96f157f252f623dc76e930c930afc0856524d9e8e9979547e6450160121036877028795658fdb16b3fec7aadacb58a187571f47e4d65caaa56b57fcbeee31ffffffff6c96f47709feaf1e7d39a97b05488f3c487cdc4efda72eda65a7d06ff034b4e1000000006b483045022100fb25e2ef9566e887fb3ee8bcfdc9125c56971f219c0539f4f15c8bee59758daf022032782ab7000a945c67b41daa921b0b4160f462fd92cc55ba06f523206e7d2efe01210367386f220f60d3aba693223ad6ca6324c89a59134329e3fbc7874916d8760756ffffffff26f51fd81ca9fe3bf6718dbcb499095131fa20ddec8a7ad5a1b12673c949e568010000006b483045022100e12858b59bf420ab85fc8dbf3a3edb61e76a9cb63c542c734b0f602b3e62e85b02203fa9b34abe071d410d7d784b83751c0f814f26d2d766acbb3fa969c1cb30837a012102d6937bcd7a93653d277c98c3da13cfa5cecbb7a3bdcff4f798076de196bb86bbfffffffffa684400fd959639fc91556654b6f010ff8e6b413fc124a3e12f61f9212cd2b4000000006b483045022100d2f772cf885efab3010b594a565ad1a607acb344742280c8bb8af93ea80a295702205853a9fa15c62c9d9131eba055802b9f7bba5d929a02e5b2457ef095070e02d2012103b2a954fd27397af81c095001b555030686a07336fd4a67fe81a2f8f0439818b5ffffffffeb1083ad8c977bfd808302469a9749b0284822b40f924de5ec9adbf1db457e3e040000006a4730440220745f5da4a4f81753f1f71fbdf34a760ed23505b98dcc776b6eee6ef8c6d0b956022021122dcd9fed279933a0f278866d443eb91866cc7802c800226b7b2089eeb16b012102b07ae79957a0983c05b6d71ccf46d7bc16af70747379994c3b938856d87d16f2ffffffff017e0eeba75b742d88426618e8af766264ebd27e2f271e9c836550489fc80071000000006b483045022100c8ae0d7c2d98e41d28ba61ba94fcac8991e679e5817355452b92d3c6f3fa7f0402205b60429d0f4923e3856dcc254cdfe4249f6c12d44d15bd260318df093371dc5b0121039d46c4c757332a9efa9869f610ba8ffcd3c7a697115a274d6aec06159a3933ddffffffff35d8a062639e9ac89b79edd8ad53ca9e1ce5ba08a598f16c4b7ac71c6c4b019e080000006b4830450221008da8351f27acad93e3848325bda9a68d32beb856817be31b4713a4a676683dda02204c5a04f45c2383ae871c5a04820588c36c446f2d11aa57213c9a20ec604669060121032991743bea19caa54390e05103fe02f2db9e40395750cdc638d1aaa7361ef268ffffffffa74fe7429df0d343bb868288d7e5699ff6021a35021acbb4373d32c8b7b86abd000000006a473044022060027f1b090c990d1d19ea97e29f47b52cd9afbd3f820310bd93f498df324b6c0220229024a48da484320e00814fb79816609f264ef5adacccd91dce29c90f67cef1012102729cf653daef737af0aa26f48d7aff30ec368f577a6948f662e99bfaa5b255f4ffffffff5e988dea1123c2c8ec4422584b6c3284a610cfb47b4a10a66057e351a32b4ee8000000006b483045022100b7b5dd6cb2a6b2e87514294cfdc920a6cb748ce87f9ff33359b05e763314f8d7022010fa2bf85fd5023526a9cbd6226a963d33aaf0d515170cc6120b2c12da7600910121024c9bab8c0158d882a5ef3d9ef0a5c4eb8bd64e98d3a37bd6708c4e4a4a62f71fffffffffc5c010308d2ca1756f852ecf37808c0bc0dbe77ba505477087df125a7c0e7681010000006b483045022100e1b633f17714e22a5d56a0f0a7951f246bf4ece85e3ba277340a9d4906d912fd02205c795f3c6163a493c6eb5345550c7fc4da9c046eb2d228dd2b86aa4b82fdde080121037cd29dc7221d40ec5902bc1f8f9ed216643105c2b9d9a253c80c32ec537afcc4ffffffff59f513b05a9cc15fce723cd045c6b962bd03f631a590309976b841cc900ca43d000000006b483045022100a2762a54f79d1124705687be46fb355d6dbcee3fa10669ce5e7a98bd276485d802205e826a038da0644e5f84eef88eb9bc51330561e41830278e7c3505b490e86c06012102d37d4e9ba3d28b34cd6cdb322125580c5a352acbaab0469fe25862e78fc9197cffffffff925d050f82e44a7db4e3b8538461a916c6dcb80f7a345ac3797aecda44c04deb130000006a47304402203688a452e27f22c06039b2bd8515e62d85cca086525675e88a8247cbbbf36135022058a0169c58e711708eb0f5f555eafb2cc990c6c046f03027dbd62acfa1c4e77a01210355a22d410bbe381c1af65429447508e78d946bb47a8d4e55abe05328e6860b23ffffffffed24bf93b3a1fa87bd0a915faf7bd6d898c4cd9634f8c96ab41bf327cc33f0f6200100006b483045022100e1623ba7fcaa696622549fed1195d640c0f2466104b7ce2b32c8a53c492b6175022064b43397b55111fe98049b27588163766b64750e5c552274e1a8fadc0da60e020121039beb337ef69a06addb4b015194e389551fd1f9aa072fdcc4520d101ac387a350ffffffff0bb0330b00000000001976a914385724dbf310d53dbfa59e894d703621d595ee6e88ac34119203000000001976a9147d9fdd173deba09e6608f73e0f1a45938f34a7b888ace4250d00000000001976a9148d348cb21ecf183409bb5d4fa8a4fbc5f2d7c49688ac063c0f00000000001976a914809103afc2b91a3cb027b44e74aa435aeb56413688accb6cf305000000001976a914d11cb16af7c97ba458d0763c85bf2875ea4bce8688acb7cf9300000000001976a91482793a6bb35ce930995e3794d765b8208d71d37088ac175c0c00000000001976a91478f09a6a86ef360e4ff53b741f5c967def439d7c88acba146300000000001976a9147941d1ac5141791e2bd6400982b256a78f8cfe1a88acb53d1000000000001976a914fa35403a6fcfee535c0ce00fefb996d07c51716288ace84a6001000000001976a914572af660a62346c14e52cf2a0c4e3ccdd3bc9b9188ac44592f00000000001976a914dc75813fc7b827e0754a8856053474173606674388ac00000000", "vin": [{"sequence": 4294967295, "scriptSig": {"hex": "483045022100c009659911aa48e484bc959640c99047b576903154211ef181fff22b45b40953022042ef930ca96f157f252f623dc76e930c930afc0856524d9e8e9979547e6450160121036877028795658fdb16b3fec7aadacb58a187571f47e4d65caaa56b57fcbeee31", "asm": "3045022100c009659911aa48e484bc959640c99047b576903154211ef181fff22b45b40953022042ef930ca96f157f252f623dc76e930c930afc0856524d9e8e9979547e645016[ALL] 036877028795658fdb16b3fec7aadacb58a187571f47e4d65caaa56b57fcbeee31"}, "vout": 0, "txid": "6b8082833780769b43431182ca8ae4d9f8ebb2ea049d39ff2bd2196653d34039"}, {"sequence": 4294967295, "scriptSig": {"hex": "483045022100fb25e2ef9566e887fb3ee8bcfdc9125c56971f219c0539f4f15c8bee59758daf022032782ab7000a945c67b41daa921b0b4160f462fd92cc55ba06f523206e7d2efe01210367386f220f60d3aba693223ad6ca6324c89a59134329e3fbc7874916d8760756", "asm": "3045022100fb25e2ef9566e887fb3ee8bcfdc9125c56971f219c0539f4f15c8bee59758daf022032782ab7000a945c67b41daa921b0b4160f462fd92cc55ba06f523206e7d2efe[ALL] 0367386f220f60d3aba693223ad6ca6324c89a59134329e3fbc7874916d8760756"}, "vout": 0, "txid": "e1b434f06fd0a765da2ea7fd4edc7c483c8f48057ba9397d1eaffe0977f4966c"}, {"sequence": 4294967295, "scriptSig": {"hex": "483045022100e12858b59bf420ab85fc8dbf3a3edb61e76a9cb63c542c734b0f602b3e62e85b02203fa9b34abe071d410d7d784b83751c0f814f26d2d766acbb3fa969c1cb30837a012102d6937bcd7a93653d277c98c3da13cfa5cecbb7a3bdcff4f798076de196bb86bb", "asm": "3045022100e12858b59bf420ab85fc8dbf3a3edb61e76a9cb63c542c734b0f602b3e62e85b02203fa9b34abe071d410d7d784b83751c0f814f26d2d766acbb3fa969c1cb30837a[ALL] 02d6937bcd7a93653d277c98c3da13cfa5cecbb7a3bdcff4f798076de196bb86bb"}, "vout": 1, "txid": "68e549c97326b1a1d57a8aecdd20fa31510999b4bc8d71f63bfea91cd81ff526"}, {"sequence": 4294967295, "scriptSig": {"hex": "483045022100d2f772cf885efab3010b594a565ad1a607acb344742280c8bb8af93ea80a295702205853a9fa15c62c9d9131eba055802b9f7bba5d929a02e5b2457ef095070e02d2012103b2a954fd27397af81c095001b555030686a07336fd4a67fe81a2f8f0439818b5", "asm": "3045022100d2f772cf885efab3010b594a565ad1a607acb344742280c8bb8af93ea80a295702205853a9fa15c62c9d9131eba055802b9f7bba5d929a02e5b2457ef095070e02d2[ALL] 03b2a954fd27397af81c095001b555030686a07336fd4a67fe81a2f8f0439818b5"}, "vout": 0, "txid": "b4d22c21f9612fe1a324c13f416b8eff10f0b654665591fc399695fd004468fa"}, {"sequence": 4294967295, "scriptSig": {"hex": "4730440220745f5da4a4f81753f1f71fbdf34a760ed23505b98dcc776b6eee6ef8c6d0b956022021122dcd9fed279933a0f278866d443eb91866cc7802c800226b7b2089eeb16b012102b07ae79957a0983c05b6d71ccf46d7bc16af70747379994c3b938856d87d16f2", "asm": "30440220745f5da4a4f81753f1f71fbdf34a760ed23505b98dcc776b6eee6ef8c6d0b956022021122dcd9fed279933a0f278866d443eb91866cc7802c800226b7b2089eeb16b[ALL] 02b07ae79957a0983c05b6d71ccf46d7bc16af70747379994c3b938856d87d16f2"}, "vout": 4, "txid": "3e7e45dbf1db9aece54d920fb4224828b049979a46028380fd7b978cad8310eb"}, {"sequence": 4294967295, "scriptSig": {"hex": "483045022100c8ae0d7c2d98e41d28ba61ba94fcac8991e679e5817355452b92d3c6f3fa7f0402205b60429d0f4923e3856dcc254cdfe4249f6c12d44d15bd260318df093371dc5b0121039d46c4c757332a9efa9869f610ba8ffcd3c7a697115a274d6aec06159a3933dd", "asm": "3045022100c8ae0d7c2d98e41d28ba61ba94fcac8991e679e5817355452b92d3c6f3fa7f0402205b60429d0f4923e3856dcc254cdfe4249f6c12d44d15bd260318df093371dc5b[ALL] 039d46c4c757332a9efa9869f610ba8ffcd3c7a697115a274d6aec06159a3933dd"}, "vout": 0, "txid": "7100c89f485065839c1e272f7ed2eb646276afe8186642882d745ba7eb0e7e01"}, {"sequence": 4294967295, "scriptSig": {"hex": "4830450221008da8351f27acad93e3848325bda9a68d32beb856817be31b4713a4a676683dda02204c5a04f45c2383ae871c5a04820588c36c446f2d11aa57213c9a20ec604669060121032991743bea19caa54390e05103fe02f2db9e40395750cdc638d1aaa7361ef268", "asm": "30450221008da8351f27acad93e3848325bda9a68d32beb856817be31b4713a4a676683dda02204c5a04f45c2383ae871c5a04820588c36c446f2d11aa57213c9a20ec60466906[ALL] 032991743bea19caa54390e05103fe02f2db9e40395750cdc638d1aaa7361ef268"}, "vout": 8, "txid": "9e014b6c1cc77a4b6cf198a508bae51c9eca53add8ed799bc89a9e6362a0d835"}, {"sequence": 4294967295, "scriptSig": {"hex": "473044022060027f1b090c990d1d19ea97e29f47b52cd9afbd3f820310bd93f498df324b6c0220229024a48da484320e00814fb79816609f264ef5adacccd91dce29c90f67cef1012102729cf653daef737af0aa26f48d7aff30ec368f577a6948f662e99bfaa5b255f4", "asm": "3044022060027f1b090c990d1d19ea97e29f47b52cd9afbd3f820310bd93f498df324b6c0220229024a48da484320e00814fb79816609f264ef5adacccd91dce29c90f67cef1[ALL] 02729cf653daef737af0aa26f48d7aff30ec368f577a6948f662e99bfaa5b255f4"}, "vout": 0, "txid": "bd6ab8b7c8323d37b4cb1a02351a02f69f69e5d7888286bb43d3f09d42e74fa7"}, {"sequence": 4294967295, "scriptSig": {"hex": "483045022100b7b5dd6cb2a6b2e87514294cfdc920a6cb748ce87f9ff33359b05e763314f8d7022010fa2bf85fd5023526a9cbd6226a963d33aaf0d515170cc6120b2c12da7600910121024c9bab8c0158d882a5ef3d9ef0a5c4eb8bd64e98d3a37bd6708c4e4a4a62f71f", "asm": "3045022100b7b5dd6cb2a6b2e87514294cfdc920a6cb748ce87f9ff33359b05e763314f8d7022010fa2bf85fd5023526a9cbd6226a963d33aaf0d515170cc6120b2c12da760091[ALL] 024c9bab8c0158d882a5ef3d9ef0a5c4eb8bd64e98d3a37bd6708c4e4a4a62f71f"}, "vout": 0, "txid": "e84e2ba351e35760a6104a7bb4cf10a684326c4b582244ecc8c22311ea8d985e"}, {"sequence": 4294967295, "scriptSig": {"hex": "483045022100e1b633f17714e22a5d56a0f0a7951f246bf4ece85e3ba277340a9d4906d912fd02205c795f3c6163a493c6eb5345550c7fc4da9c046eb2d228dd2b86aa4b82fdde080121037cd29dc7221d40ec5902bc1f8f9ed216643105c2b9d9a253c80c32ec537afcc4", "asm": "3045022100e1b633f17714e22a5d56a0f0a7951f246bf4ece85e3ba277340a9d4906d912fd02205c795f3c6163a493c6eb5345550c7fc4da9c046eb2d228dd2b86aa4b82fdde08[ALL] 037cd29dc7221d40ec5902bc1f8f9ed216643105c2b9d9a253c80c32ec537afcc4"}, "vout": 1, "txid": "81760e7c5a12df87704705a57be7dbc00b8c8037cf2e856f75a12c8d3010c0c5"}, {"sequence": 4294967295, "scriptSig": {"hex": "483045022100a2762a54f79d1124705687be46fb355d6dbcee3fa10669ce5e7a98bd276485d802205e826a038da0644e5f84eef88eb9bc51330561e41830278e7c3505b490e86c06012102d37d4e9ba3d28b34cd6cdb322125580c5a352acbaab0469fe25862e78fc9197c", "asm": "3045022100a2762a54f79d1124705687be46fb355d6dbcee3fa10669ce5e7a98bd276485d802205e826a038da0644e5f84eef88eb9bc51330561e41830278e7c3505b490e86c06[ALL] 02d37d4e9ba3d28b34cd6cdb322125580c5a352acbaab0469fe25862e78fc9197c"}, "vout": 0, "txid": "3da40c90cc41b876993090a531f603bd62b9c645d03c72ce5fc19c5ab013f559"}, {"sequence": 4294967295, "scriptSig": {"hex": "47304402203688a452e27f22c06039b2bd8515e62d85cca086525675e88a8247cbbbf36135022058a0169c58e711708eb0f5f555eafb2cc990c6c046f03027dbd62acfa1c4e77a01210355a22d410bbe381c1af65429447508e78d946bb47a8d4e55abe05328e6860b23", "asm": "304402203688a452e27f22c06039b2bd8515e62d85cca086525675e88a8247cbbbf36135022058a0169c58e711708eb0f5f555eafb2cc990c6c046f03027dbd62acfa1c4e77a[ALL] 0355a22d410bbe381c1af65429447508e78d946bb47a8d4e55abe05328e6860b23"}, "vout": 19, "txid": "eb4dc044daec7a79c35a347a0fb8dcc616a9618453b8e3b47d4ae4820f055d92"}, {"sequence": 4294967295, "scriptSig": {"hex": "483045022100e1623ba7fcaa696622549fed1195d640c0f2466104b7ce2b32c8a53c492b6175022064b43397b55111fe98049b27588163766b64750e5c552274e1a8fadc0da60e020121039beb337ef69a06addb4b015194e389551fd1f9aa072fdcc4520d101ac387a350", "asm": "3045022100e1623ba7fcaa696622549fed1195d640c0f2466104b7ce2b32c8a53c492b6175022064b43397b55111fe98049b27588163766b64750e5c552274e1a8fadc0da60e02[ALL] 039beb337ef69a06addb4b015194e389551fd1f9aa072fdcc4520d101ac387a350"}, "vout": 288, "txid": "f6f033cc27f31bb46ac9f83496cdc498d8d67baf5f910abd87faa1b393bf24ed"}], "txid": "8d8a744031d5663dbff7eb11946351787d6b3656c99a6572c9309058862dfd52", "blocktime": 1537873891, "version": 1, "confirmations": 11474, "time": 1537873891, "locktime": 0, "vsize": 2305, "size": 2305}