{"hash": "a1dd1223c8bb4b6987719244efc688cfe8f3a6ed45d25727d593730ed9cb91c7", "blockhash": "00000000000000000017f5eb5941039fbcee6240d03bc1f2f8e35350df66a1d8", "vout": [{"scriptPubKey": {"reqSigs": 1, "hex": "76a9145cdb11449f1dd98239b7afdd2489db61314935a388ac", "addresses": ["19TybisUF7us5zBHRTuFptf6oGsfmQHrDo"], "asm": "OP_DUP OP_HASH160 5cdb11449f1dd98239b7afdd2489db61314935a3 OP_EQUALVERIFY OP_CHECKSIG", "type": "pubkeyhash"}, "value": 0.01171875, "n": 0}, {"scriptPubKey": {"reqSigs": 1, "hex": "0014ed55b5f51a8c5c61c037ab195c85cdf00fab32ea", "addresses": ["bc1qa42mtag633wxrsph4vv4epwd7q86kvh2rkd833"], "asm": "0 ed55b5f51a8c5c61c037ab195c85cdf00fab32ea", "type": "witness_v0_keyhash"}, "value": 0.17681659, "n": 1}], "hex": "01000000000101151713271f5e43c957b604052d4631708b70025ce4d35cc174cd7bb58a8923980100000000ffffffff02a3e11100000000001976a9145cdb11449f1dd98239b7afdd2489db61314935a388acfbcc0d0100000000160014ed55b5f51a8c5c61c037ab195c85cdf00fab32ea02483045022100844c5b7334913b97472e13776f42217f5c266e9ba0e29acee0e67276ed31ae24022052dad4fa6de506e861523cb6674c51dabe0ee4e2d81de7aa844e54d2b6889e4e01210226a38e11aaa5dfe5b07e760ed9f9988e8b418688a8e539e49f94f8fddba9c1f600000000", "vin": [{"txinwitness": ["3045022100844c5b7334913b97472e13776f42217f5c266e9ba0e29acee0e67276ed31ae24022052dad4fa6de506e861523cb6674c51dabe0ee4e2d81de7aa844e54d2b6889e4e01", "0226a38e11aaa5dfe5b07e760ed9f9988e8b418688a8e539e49f94f8fddba9c1f6"], "sequence": 4294967295, "scriptSig": {"hex": "", "asm": ""}, "vout": 1, "txid": "9823898ab57bcd74c15cd3e45c02708b7031462d0504b657c9435e1f27131715"}], "txid": "8d927bdcb9e75b2af5dc5df7340e3e312fba6813d31c6046bf2c136bb7d4a976", "blocktime": 1537874412, "version": 1, "confirmations": 11467, "time": 1537874412, "locktime": 0, "vsize": 144, "size": 226}