{"hash": "8d952991a4a86996f12b2fd83107da988df21c3f5610639075f32d047d41ea87", "blockhash": "0000000000000000001f0ddff1eddb255c1121bcd4da4f1bc9a0da00cae72433", "vout": [{"scriptPubKey": {"reqSigs": 1, "hex": "76a914147c3c938b43e99393a04fa64d3b1ee72219e57e88ac", "addresses": ["12sKLx2Z8MGkyzgUtzig9kCQJLaoD4gRjD"], "asm": "OP_DUP OP_HASH160 147c3c938b43e99393a04fa64d3b1ee72219e57e OP_EQUALVERIFY OP_CHECKSIG", "type": "pubkeyhash"}, "value": 0.02657005, "n": 0}, {"scriptPubKey": {"reqSigs": 1, "hex": "76a914a66f5f35cf879d87f782ca5be04a5a1aace1f17d88ac", "addresses": ["1GB2b6ov64Tqen5z2W73TcFExH9iqRWCQQ"], "asm": "OP_DUP OP_HASH160 a66f5f35cf879d87f782ca5be04a5a1aace1f17d OP_EQUALVERIFY OP_CHECKSIG", "type": "pubkeyhash"}, "value": 2.27507191, "n": 1}], "hex": "0100000001b0a8f1ea623df7941d1897f8943c0510d215ca25a518349d2387e176f6e9e909010000006a47304402204e0df1cd929327745f7ac2a964c08e150388caa7eb88f7f6293ec9c5f2d7dfc3022066b8d169d167dbdfba37412d1033cd5a129e736babd51be030b54d3b1e5d0d1e0121023feb5cb7052c34a88b7afe8e6ceadcd0cc951a7fad8e03bb311ea09ccb055397ffffffff02ed8a2800000000001976a914147c3c938b43e99393a04fa64d3b1ee72219e57e88acf77b8f0d000000001976a914a66f5f35cf879d87f782ca5be04a5a1aace1f17d88ac00000000", "vin": [{"sequence": 4294967295, "scriptSig": {"hex": "47304402204e0df1cd929327745f7ac2a964c08e150388caa7eb88f7f6293ec9c5f2d7dfc3022066b8d169d167dbdfba37412d1033cd5a129e736babd51be030b54d3b1e5d0d1e0121023feb5cb7052c34a88b7afe8e6ceadcd0cc951a7fad8e03bb311ea09ccb055397", "asm": "304402204e0df1cd929327745f7ac2a964c08e150388caa7eb88f7f6293ec9c5f2d7dfc3022066b8d169d167dbdfba37412d1033cd5a129e736babd51be030b54d3b1e5d0d1e[ALL] 023feb5cb7052c34a88b7afe8e6ceadcd0cc951a7fad8e03bb311ea09ccb055397"}, "vout": 1, "txid": "09e9e9f676e187239d3418a525ca15d210053c94f897181d94f73d62eaf1a8b0"}], "txid": "8d952991a4a86996f12b2fd83107da988df21c3f5610639075f32d047d41ea87", "blocktime": 1537872018, "version": 1, "confirmations": 11489, "time": 1537872018, "locktime": 0, "vsize": 225, "size": 225}