{"hash": "e1f445f7b45046b9bba170260c4d37eb7e9bf54bec7f5f51615a75b00f103dc7", "blockhash": "0000000000000000000e13cef7c366c0283d82e591d1acd082e914b08063cdf1", "vout": [{"scriptPubKey": {"reqSigs": 1, "hex": "76a914b1ee2ef33568367b7a75f6c321945b1a0eb895db88ac", "addresses": ["1HDowE9SBH6rRpB8WdrEh74xqZx6uBFn2e"], "asm": "OP_DUP OP_HASH160 b1ee2ef33568367b7a75f6c321945b1a0eb895db OP_EQUALVERIFY OP_CHECKSIG", "type": "pubkeyhash"}, "value": 0.0024106, "n": 0}, {"scriptPubKey": {"reqSigs": 1, "hex": "a914ffd4b0ed3b7c4024d5c2d743944593281c0d7a2e87", "addresses": ["3R1j2VsXoBaVK7fAgK1skz1dBLo5WfnL6M"], "asm": "OP_HASH160 ffd4b0ed3b7c4024d5c2d743944593281c0d7a2e OP_EQUAL", "type": "scripthash"}, "value": 0.0099948, "n": 1}], "hex": "02000000000102e8024cd1baa083fd885388d1f557d1ad320d958e6289b69e6148d8f827a621cb19000000171600147ac5ec2d1eb8a71bd9289dd9e1f2fa32f47fa1e6feffffffed2400b2dbcf736152ae847556e4d6bf0d0e7a509c0083f598ea68a8723a3eee010000001716001404a7ba645a39b7362234c3d785030e2e7bce64bffeffffff02a4ad0300000000001976a914b1ee2ef33568367b7a75f6c321945b1a0eb895db88ac38400f000000000017a914ffd4b0ed3b7c4024d5c2d743944593281c0d7a2e870247304402207f60566ad023e3b2daf5d5a122f991bf1c431cda183deae736f8fb461ac9e19802206e762ccd6594f0179533d6d5675c93f7205b2822d2c8992aa32de741f9c2010d012102eda822f71db51688e623734ac2a7f93fd04821eb2c6574b098bdae7e8f0798d102483045022100a409c715dfe1faa01e875c449ae9fc4a917c687bcb9424d829509d30172cd8af0220656767ccf28386aefad07199443dd5a27418e2fac59d8068be5a45d28b07f0620121023db67171e07ff59ea45d4636c61380473d41fa83cd2416b26fcec0125bc3810710490800", "vin": [{"txinwitness": ["304402207f60566ad023e3b2daf5d5a122f991bf1c431cda183deae736f8fb461ac9e19802206e762ccd6594f0179533d6d5675c93f7205b2822d2c8992aa32de741f9c2010d01", "02eda822f71db51688e623734ac2a7f93fd04821eb2c6574b098bdae7e8f0798d1"], "sequence": 4294967294, "scriptSig": {"hex": "1600147ac5ec2d1eb8a71bd9289dd9e1f2fa32f47fa1e6", "asm": "00147ac5ec2d1eb8a71bd9289dd9e1f2fa32f47fa1e6"}, "vout": 25, "txid": "cb21a627f8d848619eb689628e950d32add157f5d1885388fd83a0bad14c02e8"}, {"txinwitness": ["3045022100a409c715dfe1faa01e875c449ae9fc4a917c687bcb9424d829509d30172cd8af0220656767ccf28386aefad07199443dd5a27418e2fac59d8068be5a45d28b07f06201", "023db67171e07ff59ea45d4636c61380473d41fa83cd2416b26fcec0125bc38107"], "sequence": 4294967294, "scriptSig": {"hex": "16001404a7ba645a39b7362234c3d785030e2e7bce64bf", "asm": "001404a7ba645a39b7362234c3d785030e2e7bce64bf"}, "vout": 1, "txid": "ee3e3a72a868ea98f583009c507a0e0dbfd6e4567584ae526173cfdbb20024ed"}], "txid": "8d97514c36185fe513324c0e62b90d646c744b0c78cd28fc8bcfff666a4e5572", "blocktime": 1537871767, "version": 2, "confirmations": 11495, "time": 1537871767, "locktime": 542992, "vsize": 259, "size": 421}