{"hash": "8d9b119ea284d438aba86569b44f2264938205098801aec63705b94a87ac3c4f", "blockhash": "0000000000000000000e13cef7c366c0283d82e591d1acd082e914b08063cdf1", "vout": [{"scriptPubKey": {"reqSigs": 1, "hex": "76a914a8ab6330f93a7ff822a28b1f8e94fcb535a5669c88ac", "addresses": ["1GNqqSNTv7hDFM6jrvwAVL982Z1Th5Xt1P"], "asm": "OP_DUP OP_HASH160 a8ab6330f93a7ff822a28b1f8e94fcb535a5669c OP_EQUALVERIFY OP_CHECKSIG", "type": "pubkeyhash"}, "value": 0.4999188, "n": 0}, {"scriptPubKey": {"reqSigs": 1, "hex": "a914b68f04f13befcba0060f12620b54d70ad3650eb787", "addresses": ["3JLJEcUdGPsngQ4Ewz69R5FotgZ3FnjKEi"], "asm": "OP_HASH160 b68f04f13befcba0060f12620b54d70ad3650eb7 OP_EQUAL", "type": "scripthash"}, "value": 3.6, "n": 1}], "hex": "01000000022b9d1dab99cf3a78a740ea4a9c85e379852a8a726ea1188dc40590af7955851a010000006b483045022100e33393b13dbe804568d5a5c67992a760d546e841a26fdfca6d6e696220cc484d02201950659f5a0cc14b2bdc62516051002185e575f567c0ff18e2dd3a0d7a4203b8012102adfeb9a78ea60ad38a698246dce3abab76d985d7a71d850fe15c06d892c4b51dffffffff94e224860b671fd72e62f4ec8a4622e650e3ef2fdfcf7914876aac747fbb194f010000006a4730440220639b3e1b0ae3c86a2dfe46eb04bdf8227de35489bc03e3fda10c994e673498f702203561057f9e3d386b6fcd43c39e6b55cc92c0290bb9246255b7f1073e8a153ca0012102879155fbc00ddfb8b176c88f57ae181d734058e40e6b1db0fe745b068bc28f9affffffff02c8d0fa02000000001976a914a8ab6330f93a7ff822a28b1f8e94fcb535a5669c88ac002a75150000000017a914b68f04f13befcba0060f12620b54d70ad3650eb78700000000", "vin": [{"sequence": 4294967295, "scriptSig": {"hex": "483045022100e33393b13dbe804568d5a5c67992a760d546e841a26fdfca6d6e696220cc484d02201950659f5a0cc14b2bdc62516051002185e575f567c0ff18e2dd3a0d7a4203b8012102adfeb9a78ea60ad38a698246dce3abab76d985d7a71d850fe15c06d892c4b51d", "asm": "3045022100e33393b13dbe804568d5a5c67992a760d546e841a26fdfca6d6e696220cc484d02201950659f5a0cc14b2bdc62516051002185e575f567c0ff18e2dd3a0d7a4203b8[ALL] 02adfeb9a78ea60ad38a698246dce3abab76d985d7a71d850fe15c06d892c4b51d"}, "vout": 1, "txid": "1a855579af9005c48d18a16e728a2a8579e3859c4aea40a7783acf99ab1d9d2b"}, {"sequence": 4294967295, "scriptSig": {"hex": "4730440220639b3e1b0ae3c86a2dfe46eb04bdf8227de35489bc03e3fda10c994e673498f702203561057f9e3d386b6fcd43c39e6b55cc92c0290bb9246255b7f1073e8a153ca0012102879155fbc00ddfb8b176c88f57ae181d734058e40e6b1db0fe745b068bc28f9a", "asm": "30440220639b3e1b0ae3c86a2dfe46eb04bdf8227de35489bc03e3fda10c994e673498f702203561057f9e3d386b6fcd43c39e6b55cc92c0290bb9246255b7f1073e8a153ca0[ALL] 02879155fbc00ddfb8b176c88f57ae181d734058e40e6b1db0fe745b068bc28f9a"}, "vout": 1, "txid": "4f19bb7f74ac6a871479cfdf2fefe350e622468aecf4622ed71f670b8624e294"}], "txid": "8d9b119ea284d438aba86569b44f2264938205098801aec63705b94a87ac3c4f", "blocktime": 1537871767, "version": 1, "confirmations": 11492, "time": 1537871767, "locktime": 0, "vsize": 371, "size": 371}