{"hash": "8d9cb2881a3f93ffb1a1b80119e59c754d5cfb7f1e085664975481197a2b7b4a", "blockhash": "0000000000000000000e13cef7c366c0283d82e591d1acd082e914b08063cdf1", "vout": [{"scriptPubKey": {"reqSigs": 1, "hex": "a9146fd884318f3663cba8825610068aedb008ff393b87", "addresses": ["3BtQJfAZvtEypHN418Nmob5eMqXaYvQMLz"], "asm": "OP_HASH160 6fd884318f3663cba8825610068aedb008ff393b OP_EQUAL", "type": "scripthash"}, "value": 0.00637126, "n": 0}, {"scriptPubKey": {"reqSigs": 1, "hex": "76a9146586ced214191eaee684bf8787713d2671eff5aa88ac", "addresses": ["1AFpjzWNNtmMamjbbSSNLiVdktzrYMspCQ"], "asm": "OP_DUP OP_HASH160 6586ced214191eaee684bf8787713d2671eff5aa OP_EQUALVERIFY OP_CHECKSIG", "type": "pubkeyhash"}, "value": 0.0580433, "n": 1}], "hex": "02000000012abe6857fd36d32d43ace840cad93a2aee9aa346f63df97905229d63ab6f63c6000000006a473044022042a94afc001ec82f1ddc3c4ed419cedc542588ad30cc5438c2b96377167c63aa022033d0154bdbccb79a570fd2d392521069ddbac8bd9d43a1d1f6480154b409bf610121021305cfcad768262ddb6962901a9adab6a4bfd16f56f3cfaa7f45eb1ba905899bffffffff02c6b809000000000017a9146fd884318f3663cba8825610068aedb008ff393b872a915800000000001976a9146586ced214191eaee684bf8787713d2671eff5aa88ac00000000", "vin": [{"sequence": 4294967295, "scriptSig": {"hex": "473044022042a94afc001ec82f1ddc3c4ed419cedc542588ad30cc5438c2b96377167c63aa022033d0154bdbccb79a570fd2d392521069ddbac8bd9d43a1d1f6480154b409bf610121021305cfcad768262ddb6962901a9adab6a4bfd16f56f3cfaa7f45eb1ba905899b", "asm": "3044022042a94afc001ec82f1ddc3c4ed419cedc542588ad30cc5438c2b96377167c63aa022033d0154bdbccb79a570fd2d392521069ddbac8bd9d43a1d1f6480154b409bf61[ALL] 021305cfcad768262ddb6962901a9adab6a4bfd16f56f3cfaa7f45eb1ba905899b"}, "vout": 0, "txid": "c6636fab639d220579f93df646a39aee2a3ad9ca40e8ac432dd336fd5768be2a"}], "txid": "8d9cb2881a3f93ffb1a1b80119e59c754d5cfb7f1e085664975481197a2b7b4a", "blocktime": 1537871767, "version": 2, "confirmations": 11493, "time": 1537871767, "locktime": 0, "vsize": 223, "size": 223}