{"hash": "8d9d1747eb5c69a16d5316359fa3075465f2efe262b46274a21f7a30df0122e5", "blockhash": "0000000000000000001f76057863aec43deb6fa401d9628bb513d65a8098bfab", "vout": [{"scriptPubKey": {"type": "nulldata", "hex": "6a4c50000077dd0001df7f9b25c367783ad17e05127af8e8e963c7cfd5b95b23cc0f42c2fc38c574de08ad8eb88e5b1ec203ef39f6eff25baa161e06130a5f4f340673bc9a9526289ac0f6612cd74e33776ee4", "asm": "OP_RETURN 000077dd0001df7f9b25c367783ad17e05127af8e8e963c7cfd5b95b23cc0f42c2fc38c574de08ad8eb88e5b1ec203ef39f6eff25baa161e06130a5f4f340673bc9a9526289ac0f6612cd74e33776ee4"}, "value": 0.0, "n": 0}, {"scriptPubKey": {"reqSigs": 1, "hex": "76a914ccb446a0a8bd96b5700d4cbb1aa2078a1756472088ac", "addresses": ["1KfNovToxGN4Rh12o3iVVmeGwbmrJusZHV"], "asm": "OP_DUP OP_HASH160 ccb446a0a8bd96b5700d4cbb1aa2078a17564720 OP_EQUALVERIFY OP_CHECKSIG", "type": "pubkeyhash"}, "value": 0.0221558, "n": 1}], "hex": "0100000001baf9f563daf7baf6488bf9a04e3424a23fc595ce6db06a22f1c2516e56be7c02010000006a47304402200ba3c3afd42688e7fc17cf4d287c79904c1895c726a5ec70e40ecedeededf1de022055ad73e3dc8734962270b9bde179b1f8306cbb5d0e15f7f5726a1d815f22909a01210219956bcaf0f2df6c9260da77879966b099819ac8c9d7fe27df04e4228927acfdffffffff020000000000000000536a4c50000077dd0001df7f9b25c367783ad17e05127af8e8e963c7cfd5b95b23cc0f42c2fc38c574de08ad8eb88e5b1ec203ef39f6eff25baa161e06130a5f4f340673bc9a9526289ac0f6612cd74e33776ee49cce2100000000001976a914ccb446a0a8bd96b5700d4cbb1aa2078a1756472088ac00000000", "vin": [{"sequence": 4294967295, "scriptSig": {"hex": "47304402200ba3c3afd42688e7fc17cf4d287c79904c1895c726a5ec70e40ecedeededf1de022055ad73e3dc8734962270b9bde179b1f8306cbb5d0e15f7f5726a1d815f22909a01210219956bcaf0f2df6c9260da77879966b099819ac8c9d7fe27df04e4228927acfd", "asm": "304402200ba3c3afd42688e7fc17cf4d287c79904c1895c726a5ec70e40ecedeededf1de022055ad73e3dc8734962270b9bde179b1f8306cbb5d0e15f7f5726a1d815f22909a[ALL] 0219956bcaf0f2df6c9260da77879966b099819ac8c9d7fe27df04e4228927acfd"}, "vout": 1, "txid": "027cbe566e51c2f1226ab06dce95c53fa224344ea0f98b48f6baf7da63f5f9ba"}], "txid": "8d9d1747eb5c69a16d5316359fa3075465f2efe262b46274a21f7a30df0122e5", "blocktime": 1537873891, "version": 1, "confirmations": 11478, "time": 1537873891, "locktime": 0, "vsize": 283, "size": 283}