{"hash": "8da24db6e73b17ef42559e1f3ae9c6b70d89f45adddedea24e32c9224ab8d116", "blockhash": "00000000000000000024a2167bbff67b0be802c0b01cdd79e6331c2be6459f87", "vout": [{"scriptPubKey": {"type": "nulldata", "hex": "6a146f6d6e69000000000000001f000000294c136a80", "asm": "OP_RETURN 6f6d6e69000000000000001f000000294c136a80"}, "value": 0.0, "n": 0}, {"scriptPubKey": {"reqSigs": 1, "hex": "76a914a25dec4d0011064ef106a983c39c7a540699f22088ac", "addresses": ["1FoWyxwPXuj4C6abqwhjDWdz6D4PZgYRjA"], "asm": "OP_DUP OP_HASH160 a25dec4d0011064ef106a983c39c7a540699f220 OP_EQUALVERIFY OP_CHECKSIG", "type": "pubkeyhash"}, "value": 0.01990392, "n": 1}, {"scriptPubKey": {"reqSigs": 1, "hex": "76a91447ff50f0e73ff36e2f74229f639305ce41e3e46f88ac", "addresses": ["17ZgqJLMqjCA7mWmzccHkdsU9PwPd9vuKE"], "asm": "OP_DUP OP_HASH160 47ff50f0e73ff36e2f74229f639305ce41e3e46f OP_EQUALVERIFY OP_CHECKSIG", "type": "pubkeyhash"}, "value": 5.46e-06, "n": 2}], "hex": "01000000013f631a247a119f08b4f6ad70b9c1a6020c0a26f4905f806a734ec161a6919f2d010000006a473044022062b4f0def6dc624808f564ec37e548746d510bfd6b54c17841d0dc300ce65ae302207d033dbc2154ddedd266cbb7c2fce246d9b2a924b011c2943c2c9d36af09ad5b012103da5bac7b36d5aa38f531c6b9601e21bb598a4b6716ebed38b009a55dabde9440feffffff030000000000000000166a146f6d6e69000000000000001f000000294c136a80f85e1e00000000001976a914a25dec4d0011064ef106a983c39c7a540699f22088ac22020000000000001976a91447ff50f0e73ff36e2f74229f639305ce41e3e46f88ac0d490800", "vin": [{"sequence": 4294967294, "scriptSig": {"hex": "473044022062b4f0def6dc624808f564ec37e548746d510bfd6b54c17841d0dc300ce65ae302207d033dbc2154ddedd266cbb7c2fce246d9b2a924b011c2943c2c9d36af09ad5b012103da5bac7b36d5aa38f531c6b9601e21bb598a4b6716ebed38b009a55dabde9440", "asm": "3044022062b4f0def6dc624808f564ec37e548746d510bfd6b54c17841d0dc300ce65ae302207d033dbc2154ddedd266cbb7c2fce246d9b2a924b011c2943c2c9d36af09ad5b[ALL] 03da5bac7b36d5aa38f531c6b9601e21bb598a4b6716ebed38b009a55dabde9440"}, "vout": 1, "txid": "2d9f91a661c14e736a805f90f4260a0c02a6c1b970adf6b4089f117a241a633f"}], "txid": "8da24db6e73b17ef42559e1f3ae9c6b70d89f45adddedea24e32c9224ab8d116", "blocktime": 1537870564, "version": 1, "confirmations": 11515, "time": 1537870564, "locktime": 542989, "vsize": 256, "size": 256}