{"hash": "8da97966ba4e7eb7a622495f087347c60d3e55908fc7a3afea28fe01b22aea6a", "blockhash": "00000000000000000018f53835495a110e01622372bf6ae95dc86f2b0ab887b0", "vout": [{"scriptPubKey": {"reqSigs": 1, "hex": "76a914ae480082ac8af6a2f12eea0309c4c4cc6564ea3888ac", "addresses": ["1GtWqAZAvxRSZR2WFRfamiarcSNnqBYV7n"], "asm": "OP_DUP OP_HASH160 ae480082ac8af6a2f12eea0309c4c4cc6564ea38 OP_EQUALVERIFY OP_CHECKSIG", "type": "pubkeyhash"}, "value": 0.0001166, "n": 0}, {"scriptPubKey": {"reqSigs": 1, "hex": "76a91407a1ec45955ca13890bd9d0779831224305a1a5c88ac", "addresses": ["1hMhwrKVpy8zwxcSZGjxUYgh4HtfUovXc"], "asm": "OP_DUP OP_HASH160 07a1ec45955ca13890bd9d0779831224305a1a5c OP_EQUALVERIFY OP_CHECKSIG", "type": "pubkeyhash"}, "value": 0.01562332, "n": 1}], "hex": "0100000003e41dd5e5c433e0cbc57400b07267dde356bbe24fbb9569ff90be1d1020278119000000006b483045022100e809e36428bfc7fee5e6622da01c52a7537195294df53fe5b1b13aeab37bbf63022060ab94a11afc1ac92297d1b4635bdc4273a92ee17afb0d1f71857d784c6e50fd0121025f202f83b54e3e04f9e35df96dda1bc79c05108083224c94559c25de4ef0bc89ffffffffe6686475dbcdcf0b3c0ec91339766e831294ef9a7184076a4981cb1824972fc7000000006a47304402202726f63c74106c2ea8a9751815af36bc948d64f38b51ebe09cfc6aa7a12223b1022003915eabe3038d32bd7a05320a0ec7ec77373913aecde1fc75cd6ec02c0928d1012102844e1160b05c2a8eacfde6b58b8bfe5c144d1b44d2b6020a1b0811dd67fb6189ffffffffecf2e609b589f85c19d9f11c03e766c12edf600cbdb3492196aaa6efbddb5ae1000000006a473044022024bd32884e67ebbf4bf370760a78546d6d1631dcff678417ac4fa9e97d3a51400220643ff2ba783c346f21476233baf55fdd19eefb47c414db10e473b706c6383a41012103afa9a585719675410ddab059c95a5dbd411cc99f2b8864fb7e08ccf62c6035f7ffffffff028c2d0000000000001976a914ae480082ac8af6a2f12eea0309c4c4cc6564ea3888acdcd61700000000001976a91407a1ec45955ca13890bd9d0779831224305a1a5c88ac00000000", "vin": [{"sequence": 4294967295, "scriptSig": {"hex": "483045022100e809e36428bfc7fee5e6622da01c52a7537195294df53fe5b1b13aeab37bbf63022060ab94a11afc1ac92297d1b4635bdc4273a92ee17afb0d1f71857d784c6e50fd0121025f202f83b54e3e04f9e35df96dda1bc79c05108083224c94559c25de4ef0bc89", "asm": "3045022100e809e36428bfc7fee5e6622da01c52a7537195294df53fe5b1b13aeab37bbf63022060ab94a11afc1ac92297d1b4635bdc4273a92ee17afb0d1f71857d784c6e50fd[ALL] 025f202f83b54e3e04f9e35df96dda1bc79c05108083224c94559c25de4ef0bc89"}, "vout": 0, "txid": "19812720101dbe90ff6995bb4fe2bb56e3dd6772b00074c5cbe033c4e5d51de4"}, {"sequence": 4294967295, "scriptSig": {"hex": "47304402202726f63c74106c2ea8a9751815af36bc948d64f38b51ebe09cfc6aa7a12223b1022003915eabe3038d32bd7a05320a0ec7ec77373913aecde1fc75cd6ec02c0928d1012102844e1160b05c2a8eacfde6b58b8bfe5c144d1b44d2b6020a1b0811dd67fb6189", "asm": "304402202726f63c74106c2ea8a9751815af36bc948d64f38b51ebe09cfc6aa7a12223b1022003915eabe3038d32bd7a05320a0ec7ec77373913aecde1fc75cd6ec02c0928d1[ALL] 02844e1160b05c2a8eacfde6b58b8bfe5c144d1b44d2b6020a1b0811dd67fb6189"}, "vout": 0, "txid": "c72f972418cb81496a0784719aef9412836e763913c90e3c0bcfcddb756468e6"}, {"sequence": 4294967295, "scriptSig": {"hex": "473044022024bd32884e67ebbf4bf370760a78546d6d1631dcff678417ac4fa9e97d3a51400220643ff2ba783c346f21476233baf55fdd19eefb47c414db10e473b706c6383a41012103afa9a585719675410ddab059c95a5dbd411cc99f2b8864fb7e08ccf62c6035f7", "asm": "3044022024bd32884e67ebbf4bf370760a78546d6d1631dcff678417ac4fa9e97d3a51400220643ff2ba783c346f21476233baf55fdd19eefb47c414db10e473b706c6383a41[ALL] 03afa9a585719675410ddab059c95a5dbd411cc99f2b8864fb7e08ccf62c6035f7"}, "vout": 0, "txid": "e15adbbdefa6aa962149b3bd0c60df2ec166e7031cf1d9195cf889b509e6f2ec"}], "txid": "8da97966ba4e7eb7a622495f087347c60d3e55908fc7a3afea28fe01b22aea6a", "blocktime": 1537870928, "version": 1, "confirmations": 11514, "time": 1537870928, "locktime": 0, "vsize": 520, "size": 520}