{"hash": "8dacdf99f078dabd32c61d3b2612b8b7eabc050f19a1c336f47af966730ea934", "blockhash": "0000000000000000001f76057863aec43deb6fa401d9628bb513d65a8098bfab", "vout": [{"scriptPubKey": {"reqSigs": 1, "hex": "a9143b43c6046bd4025db914a8e750071b068bd5718087", "addresses": ["376Nyr6zuxQa9o1fFNMje99hW3q9ioQQcb"], "asm": "OP_HASH160 3b43c6046bd4025db914a8e750071b068bd57180 OP_EQUAL", "type": "scripthash"}, "value": 0.01817, "n": 0}, {"scriptPubKey": {"reqSigs": 1, "hex": "76a9141aa6d90f72e96513a7e5513f6a52d783e684916188ac", "addresses": ["13RvSnNs3HVFArfWZbzsPJ1NGpQU9bNur8"], "asm": "OP_DUP OP_HASH160 1aa6d90f72e96513a7e5513f6a52d783e6849161 OP_EQUALVERIFY OP_CHECKSIG", "type": "pubkeyhash"}, "value": 0.10447517, "n": 1}], "hex": "0100000002946a48f6b467ea65ce86b06b357b45c86f674cbd9c7c48acb124f649794b2555000000006b483045022100fd59b4108308dcdf5e2726387876316396d3282a458fc124690d34a6e802201702207f51de6e393d0cd8715f8183f1460fa7614a409b9ce7851a8e1659b6877570ad012103dddf0602a8a572332a66631cf09a11f87b4b2677ab17ae65ec9250b2388aa1c7ffffffffa042d205e209a01e2eab3ac2cc9df100de1fefdbfd5279adac715da114eef1df000000006b483045022100a449c362bde52e355ed6db29176c7a56630a07e1143179829673b30316e85b73022061e0b09f36db2aa63d17878568d6dbe38d795bb03049eb820cf44992b06ef69e01210326868e8ec8e8b1e854fb3c78195fbe985d07f6949fb38737e9477af6fe6e3c31ffffffff02a8b91b000000000017a9143b43c6046bd4025db914a8e750071b068bd57180879d6a9f00000000001976a9141aa6d90f72e96513a7e5513f6a52d783e684916188ac00000000", "vin": [{"sequence": 4294967295, "scriptSig": {"hex": "483045022100fd59b4108308dcdf5e2726387876316396d3282a458fc124690d34a6e802201702207f51de6e393d0cd8715f8183f1460fa7614a409b9ce7851a8e1659b6877570ad012103dddf0602a8a572332a66631cf09a11f87b4b2677ab17ae65ec9250b2388aa1c7", "asm": "3045022100fd59b4108308dcdf5e2726387876316396d3282a458fc124690d34a6e802201702207f51de6e393d0cd8715f8183f1460fa7614a409b9ce7851a8e1659b6877570ad[ALL] 03dddf0602a8a572332a66631cf09a11f87b4b2677ab17ae65ec9250b2388aa1c7"}, "vout": 0, "txid": "55254b7949f624b1ac487c9cbd4c676fc8457b356bb086ce65ea67b4f6486a94"}, {"sequence": 4294967295, "scriptSig": {"hex": "483045022100a449c362bde52e355ed6db29176c7a56630a07e1143179829673b30316e85b73022061e0b09f36db2aa63d17878568d6dbe38d795bb03049eb820cf44992b06ef69e01210326868e8ec8e8b1e854fb3c78195fbe985d07f6949fb38737e9477af6fe6e3c31", "asm": "3045022100a449c362bde52e355ed6db29176c7a56630a07e1143179829673b30316e85b73022061e0b09f36db2aa63d17878568d6dbe38d795bb03049eb820cf44992b06ef69e[ALL] 0326868e8ec8e8b1e854fb3c78195fbe985d07f6949fb38737e9477af6fe6e3c31"}, "vout": 0, "txid": "dff1ee14a15d71acad7952fddbef1fde00f19dccc23aab2e1ea009e205d242a0"}], "txid": "8dacdf99f078dabd32c61d3b2612b8b7eabc050f19a1c336f47af966730ea934", "blocktime": 1537873891, "version": 1, "confirmations": 11475, "time": 1537873891, "locktime": 0, "vsize": 372, "size": 372}