{"hash": "f8bde9320c25f48b8ef0cfa0cc25d9baf3535984816ab5a4474842ecaaae7bb5", "blockhash": "0000000000000000001f76057863aec43deb6fa401d9628bb513d65a8098bfab", "vout": [{"scriptPubKey": {"reqSigs": 1, "hex": "a91410454f412238c514dc201fc304230f9e3333d92187", "addresses": ["33B3mKxLs2h7S74YHmM7u4N7Y1mx6bUr2V"], "asm": "OP_HASH160 10454f412238c514dc201fc304230f9e3333d921 OP_EQUAL", "type": "scripthash"}, "value": 0.00999664, "n": 0}, {"scriptPubKey": {"reqSigs": 1, "hex": "76a914d89880ebf4e86b9d4b89595b953312baaa9566c588ac", "addresses": ["1LkFea8pYwUe553XTrDEyL2AW5xX6Hm1Rz"], "asm": "OP_DUP OP_HASH160 d89880ebf4e86b9d4b89595b953312baaa9566c5 OP_EQUALVERIFY OP_CHECKSIG", "type": "pubkeyhash"}, "value": 0.004744, "n": 1}], "hex": "02000000000101e138e1d19284ebefd3207bab5b1a25dba96bda507dd9f0237b145ff83d8b2d7f0a0000001716001454e0d17ccc6d48fd96a1575e305465a423a5fdf3feffffff02f0400f000000000017a91410454f412238c514dc201fc304230f9e3333d92187203d0700000000001976a914d89880ebf4e86b9d4b89595b953312baaa9566c588ac02483045022100dc13891bb099973271ff7805b861eda5b42e3f272058f89f78baf7a0f90d410602202329d6c34b71e1568ff49f545e82466114ffe6958b4f969e246474d5bbe103a3012103fcbf0d44f846a6cc92ee553b5c0b2bae1c18a6892c5104d425593e1b16f846eb14490800", "vin": [{"txinwitness": ["3045022100dc13891bb099973271ff7805b861eda5b42e3f272058f89f78baf7a0f90d410602202329d6c34b71e1568ff49f545e82466114ffe6958b4f969e246474d5bbe103a301", "03fcbf0d44f846a6cc92ee553b5c0b2bae1c18a6892c5104d425593e1b16f846eb"], "sequence": 4294967294, "scriptSig": {"hex": "16001454e0d17ccc6d48fd96a1575e305465a423a5fdf3", "asm": "001454e0d17ccc6d48fd96a1575e305465a423a5fdf3"}, "vout": 10, "txid": "7f2d8b3df85f147b23f0d97d50da6ba9db251a5bab7b20d3efeb8492d1e138e1"}], "txid": "8db0fe698b4e4dfe8acc1e69ab12aab1ef94205b4634164e8bab846891db54e9", "blocktime": 1537873891, "version": 2, "confirmations": 11475, "time": 1537873891, "locktime": 542996, "vsize": 168, "size": 250}