{"hash": "8db178f92cad92369d8c73299f28a1c1e40d5cb078548e5030198ed330250c6a", "blockhash": "0000000000000000000dcc0f55137456b1a82d3642486a52398922ac4d620174", "vout": [{"scriptPubKey": {"reqSigs": 1, "hex": "76a9142c13060b777f363efc832af6fd21fc89113fc8a888ac", "addresses": ["1523XE1ZeWGpEZeqPffRaNc3UuLoHCKsQY"], "asm": "OP_DUP OP_HASH160 2c13060b777f363efc832af6fd21fc89113fc8a8 OP_EQUALVERIFY OP_CHECKSIG", "type": "pubkeyhash"}, "value": 0.019831, "n": 0}, {"scriptPubKey": {"reqSigs": 1, "hex": "76a914f4e1d79076e09778f2a72c7d8c06cbaa065aa5bb88ac", "addresses": ["1PKpRb4QeCUXiTH4wwyJn3JwAmSiapboNL"], "asm": "OP_DUP OP_HASH160 f4e1d79076e09778f2a72c7d8c06cbaa065aa5bb OP_EQUALVERIFY OP_CHECKSIG", "type": "pubkeyhash"}, "value": 0.347988, "n": 1}], "hex": "0100000001a894ceed42286c8119e189b3baec3f57a0e35dc04badd360ebc77cd41d346e6f010000006b483045022100e81bacd60e830cae8cca7d8e6153ea60c5af2ab2eee9f364dcb127ca162311b202200668f43a30a7897143c80820a94108fb06ed31f06395560b137ad518888be751012102b3432519f1ce85d0fec4349a11ad2fff855ad90de8231757f75b255d98c71ac8feffffff027c421e00000000001976a9142c13060b777f363efc832af6fd21fc89113fc8a888acd0fc1202000000001976a914f4e1d79076e09778f2a72c7d8c06cbaa065aa5bb88ac0c490800", "vin": [{"sequence": 4294967294, "scriptSig": {"hex": "483045022100e81bacd60e830cae8cca7d8e6153ea60c5af2ab2eee9f364dcb127ca162311b202200668f43a30a7897143c80820a94108fb06ed31f06395560b137ad518888be751012102b3432519f1ce85d0fec4349a11ad2fff855ad90de8231757f75b255d98c71ac8", "asm": "3045022100e81bacd60e830cae8cca7d8e6153ea60c5af2ab2eee9f364dcb127ca162311b202200668f43a30a7897143c80820a94108fb06ed31f06395560b137ad518888be751[ALL] 02b3432519f1ce85d0fec4349a11ad2fff855ad90de8231757f75b255d98c71ac8"}, "vout": 1, "txid": "6f6e341dd47cc7eb60d3ad4bc05de3a0573fecbab389e119816c2842edce94a8"}], "txid": "8db178f92cad92369d8c73299f28a1c1e40d5cb078548e5030198ed330250c6a", "blocktime": 1537870268, "version": 1, "confirmations": 11516, "time": 1537870268, "locktime": 542988, "vsize": 226, "size": 226}