{"hash": "8db3b3ac79a0ab8656ef4843d6cbd46aa1a287798a7acfeaa235c4dfcfed2ab2", "blockhash": "0000000000000000001cda96e906b7601b7a6fb1a3b62bca570a9e5d8f4b3de1", "vout": [{"scriptPubKey": {"reqSigs": 1, "hex": "76a9141a8d74aeb7c3e41ee1b1ab09c7e2bbf77f42087d88ac", "addresses": ["13RQ2WUmSTP19WYNLGG8DD9CYLHLjrBMYK"], "asm": "OP_DUP OP_HASH160 1a8d74aeb7c3e41ee1b1ab09c7e2bbf77f42087d OP_EQUALVERIFY OP_CHECKSIG", "type": "pubkeyhash"}, "value": 0.00177975, "n": 0}, {"scriptPubKey": {"reqSigs": 1, "hex": "a914c85ac01ceca84684845efcf4e93cc1d291617ab887", "addresses": ["3KxPnMtoqmZZ4GwBS7VDuzLZi6ke5ZEyV4"], "asm": "OP_HASH160 c85ac01ceca84684845efcf4e93cc1d291617ab8 OP_EQUAL", "type": "scripthash"}, "value": 0.0078059, "n": 1}], "hex": "0100000002453a0f6ba3074993885b6b24c11549fd2285dfe7f72de135af8bb5a4b0952037000000006a4730440220582ee9634e6e74b610fc857367fd4c6cd9a0f5f7a6f21e50a32de1d12deef61302205d8966df6e04ce3b3898afeff9f45716f7afe3d69570ba7713fff3fd4525b10601210249bc68767c36c7848f083fb733a472886872718838a6669455eb328a39297de7ffffffff4d8a115447a8544f2023c3ad3334e359e4e7bf6bb06ac0447891054f64f18e7a050000006b4830450221009a0caab6789aab8df45c03769e11123f899fc0a7d63721ee024411a74e2672ea02205446c48e05fe670ddac234fb19168b1d1fa81408c38afa08508b6c4687e2eb1101210335dae5463c74ad880312384ef91a565a75d58f5d0fe8358366f42d83fcb5eca2ffffffff0237b70200000000001976a9141a8d74aeb7c3e41ee1b1ab09c7e2bbf77f42087d88ac2ee90b000000000017a914c85ac01ceca84684845efcf4e93cc1d291617ab88700000000", "vin": [{"sequence": 4294967295, "scriptSig": {"hex": "4730440220582ee9634e6e74b610fc857367fd4c6cd9a0f5f7a6f21e50a32de1d12deef61302205d8966df6e04ce3b3898afeff9f45716f7afe3d69570ba7713fff3fd4525b10601210249bc68767c36c7848f083fb733a472886872718838a6669455eb328a39297de7", "asm": "30440220582ee9634e6e74b610fc857367fd4c6cd9a0f5f7a6f21e50a32de1d12deef61302205d8966df6e04ce3b3898afeff9f45716f7afe3d69570ba7713fff3fd4525b106[ALL] 0249bc68767c36c7848f083fb733a472886872718838a6669455eb328a39297de7"}, "vout": 0, "txid": "372095b0a4b58baf35e12df7e7df8522fd4915c1246b5b88934907a36b0f3a45"}, {"sequence": 4294967295, "scriptSig": {"hex": "4830450221009a0caab6789aab8df45c03769e11123f899fc0a7d63721ee024411a74e2672ea02205446c48e05fe670ddac234fb19168b1d1fa81408c38afa08508b6c4687e2eb1101210335dae5463c74ad880312384ef91a565a75d58f5d0fe8358366f42d83fcb5eca2", "asm": "30450221009a0caab6789aab8df45c03769e11123f899fc0a7d63721ee024411a74e2672ea02205446c48e05fe670ddac234fb19168b1d1fa81408c38afa08508b6c4687e2eb11[ALL] 0335dae5463c74ad880312384ef91a565a75d58f5d0fe8358366f42d83fcb5eca2"}, "vout": 5, "txid": "7a8ef1644f05917844c06ab06bbfe7e459e33433adc323204f54a84754118a4d"}], "txid": "8db3b3ac79a0ab8656ef4843d6cbd46aa1a287798a7acfeaa235c4dfcfed2ab2", "blocktime": 1537873282, "version": 1, "confirmations": 11484, "time": 1537873282, "locktime": 0, "vsize": 371, "size": 371}