{"hash": "6e63959105d83f3fd1931214cdc8b86aebd9791d8c87b4af43addbb433c0eb48", "blockhash": "0000000000000000001e0dab787dd257d1dbfcb92a98c2207d5e1078be1f4165", "vout": [{"scriptPubKey": {"reqSigs": 1, "hex": "a91410980cc8dd5101ab9cdcf29d39b4cd42c436db2087", "addresses": ["33CktEBWUkzE2PLaiC4xpq39qYycYzfZnW"], "asm": "OP_HASH160 10980cc8dd5101ab9cdcf29d39b4cd42c436db20 OP_EQUAL", "type": "scripthash"}, "value": 0.01023408, "n": 0}, {"scriptPubKey": {"reqSigs": 1, "hex": "76a914f30685557dfae185f383f80c27beee3fb7f0d65d88ac", "addresses": ["1PA11h3WxdyVPAkat7T7hPGyQjP6uQagWL"], "asm": "OP_DUP OP_HASH160 f30685557dfae185f383f80c27beee3fb7f0d65d OP_EQUALVERIFY OP_CHECKSIG", "type": "pubkeyhash"}, "value": 0.04503654, "n": 1}], "hex": "020000000001044109d8d6171877ca6c3fb6fd98528d3183857f4aae3a4edba86e452c8bd0e1d001000000171600148d72dea02fb0971e806f276977f79846f80011b1feffffffacb0020dbc45d58d6b94ce7f0e9bb0425081c01b930230995cac99abdafb3651010000001716001449294124e18e8ed8e29c5578c6d2c8cb5917285ffeffffffdbe57c748f6dfb7c8257dcf29c537db487a3e4f12343c39626dd850c93bcd5d7000000006a47304402202eb82113b3a1bce0d50e660bb65df8db2629feebd896702d31deccbec6f4033102206d6ae6bc1cc206ae097581a75106c06e5e83f5cded0b497d96b88337b22795510121037341dd947fbb9d8e057e232ffa4aaf190bf0ab9b95c5fc224015c7d278db4864feffffffeaf59e5e6dd0b5850d05d4e6b1994572f1d93e693a5ebb6e0689b52f44b1ef000000000017160014defb2149eca5cf2130df3658d732d474905685d9feffffff02b09d0f000000000017a91410980cc8dd5101ab9cdcf29d39b4cd42c436db208766b84400000000001976a914f30685557dfae185f383f80c27beee3fb7f0d65d88ac02473044022014cbeeaaad78b1b571eed1dbf02190f6eae4d1a3f55a07ec59036f332db325be02206e80cdef67ae6f40eadbe8ebb0aa382d2e465f3bcc46c283ecd1749ba1d7557e012103330ee499770c26e907c8a902ddbaae38dba291e8fb2017df0480b20df01c1a9c0247304402205ef62f208ec183a5f42c8649948b6444e506963dac6383cf0e961ef6cc019d50022015bcf7fd51917837ee6e4c34640ab80b1e31b410a5ffebb67cb755bcd673890f012103eb09fc8cfaa76a5536559f2d04ae3946ef480deacd3ff9320559f25042e0e5c20002483045022100c469f6c5f1ef5b39fb72f22b781164bc99bfec84f27c6197eb9a674dcb1df8e702205d6573a9685f99b15c2067e57e23d0447fac9d3f8ac1f6c62dc5498edd842f43012103a0465184cce1a47ab630289a4d774eb61130cfd41e1033a4ad0ed75cf3b942f312490800", "vin": [{"txinwitness": ["3044022014cbeeaaad78b1b571eed1dbf02190f6eae4d1a3f55a07ec59036f332db325be02206e80cdef67ae6f40eadbe8ebb0aa382d2e465f3bcc46c283ecd1749ba1d7557e01", "03330ee499770c26e907c8a902ddbaae38dba291e8fb2017df0480b20df01c1a9c"], "sequence": 4294967294, "scriptSig": {"hex": "1600148d72dea02fb0971e806f276977f79846f80011b1", "asm": "00148d72dea02fb0971e806f276977f79846f80011b1"}, "vout": 1, "txid": "d0e1d08b2c456ea8db4e3aae4a7f8583318d5298fdb63f6cca771817d6d80941"}, {"txinwitness": ["304402205ef62f208ec183a5f42c8649948b6444e506963dac6383cf0e961ef6cc019d50022015bcf7fd51917837ee6e4c34640ab80b1e31b410a5ffebb67cb755bcd673890f01", "03eb09fc8cfaa76a5536559f2d04ae3946ef480deacd3ff9320559f25042e0e5c2"], "sequence": 4294967294, "scriptSig": {"hex": "16001449294124e18e8ed8e29c5578c6d2c8cb5917285f", "asm": "001449294124e18e8ed8e29c5578c6d2c8cb5917285f"}, "vout": 1, "txid": "5136fbdaab99ac5c993002931bc0815042b09b0e7fce946b8dd545bc0d02b0ac"}, {"sequence": 4294967294, "scriptSig": {"hex": "47304402202eb82113b3a1bce0d50e660bb65df8db2629feebd896702d31deccbec6f4033102206d6ae6bc1cc206ae097581a75106c06e5e83f5cded0b497d96b88337b22795510121037341dd947fbb9d8e057e232ffa4aaf190bf0ab9b95c5fc224015c7d278db4864", "asm": "304402202eb82113b3a1bce0d50e660bb65df8db2629feebd896702d31deccbec6f4033102206d6ae6bc1cc206ae097581a75106c06e5e83f5cded0b497d96b88337b2279551[ALL] 037341dd947fbb9d8e057e232ffa4aaf190bf0ab9b95c5fc224015c7d278db4864"}, "vout": 0, "txid": "d7d5bc930c85dd2696c34323f1e4a387b47d539cf2dc57827cfb6d8f747ce5db"}, {"txinwitness": ["3045022100c469f6c5f1ef5b39fb72f22b781164bc99bfec84f27c6197eb9a674dcb1df8e702205d6573a9685f99b15c2067e57e23d0447fac9d3f8ac1f6c62dc5498edd842f4301", "03a0465184cce1a47ab630289a4d774eb61130cfd41e1033a4ad0ed75cf3b942f3"], "sequence": 4294967294, "scriptSig": {"hex": "160014defb2149eca5cf2130df3658d732d474905685d9", "asm": "0014defb2149eca5cf2130df3658d732d474905685d9"}, "vout": 0, "txid": "00efb1442fb589066ebb5e3a693ed9f1724599b1e6d4050d85b5d06d5e9ef5ea"}], "txid": "8db38dc8c6160f005024651391a7f45e4c5af95b0532f2ce3495ee41bedd0381", "blocktime": 1537872475, "version": 2, "confirmations": 11487, "time": 1537872475, "locktime": 542994, "vsize": 497, "size": 740}