{"hash": "8db334276619afa828ea986eb199848e32ec78a87dd9f3ea2c90d4b20e5bac4d", "blockhash": "0000000000000000001cda96e906b7601b7a6fb1a3b62bca570a9e5d8f4b3de1", "vout": [{"scriptPubKey": {"reqSigs": 1, "hex": "a9140c0fe51df98f8a1672ad74d713b8fe660f4fe8ca87", "addresses": ["32no5FPX9apuxJG6LmgZdq9ppNKzfePBTc"], "asm": "OP_HASH160 0c0fe51df98f8a1672ad74d713b8fe660f4fe8ca OP_EQUAL", "type": "scripthash"}, "value": 0.01665032, "n": 0}], "hex": "0100000001de65fcf8ad0b9bef1a2665cb762fd8ed715b289c7a25245019386291a516ec7d010000006a47304402204fc5ec54454b221d23a318eaaa59932aebd101a5b1638eb5e79e96db3921edab02200b439c2d148646d89e0500eb3e0bf276b2a0890593f9dd83b2705b445bea41e80121036c8be1c0ab7ca5390fdb7da88545c07f713aa9e6c49be796123cd77bdd71be67ffffffff01086819000000000017a9140c0fe51df98f8a1672ad74d713b8fe660f4fe8ca8700000000", "vin": [{"sequence": 4294967295, "scriptSig": {"hex": "47304402204fc5ec54454b221d23a318eaaa59932aebd101a5b1638eb5e79e96db3921edab02200b439c2d148646d89e0500eb3e0bf276b2a0890593f9dd83b2705b445bea41e80121036c8be1c0ab7ca5390fdb7da88545c07f713aa9e6c49be796123cd77bdd71be67", "asm": "304402204fc5ec54454b221d23a318eaaa59932aebd101a5b1638eb5e79e96db3921edab02200b439c2d148646d89e0500eb3e0bf276b2a0890593f9dd83b2705b445bea41e8[ALL] 036c8be1c0ab7ca5390fdb7da88545c07f713aa9e6c49be796123cd77bdd71be67"}, "vout": 1, "txid": "7dec16a5916238195024257a9c285b71edd82f76cb65261aef9b0badf8fc65de"}], "txid": "8db334276619afa828ea986eb199848e32ec78a87dd9f3ea2c90d4b20e5bac4d", "blocktime": 1537873282, "version": 1, "confirmations": 11484, "time": 1537873282, "locktime": 0, "vsize": 189, "size": 189}