{"hash": "62cdd3672db1545517bc89bfc407471defd753cdd240a8c4bbfb36efacf09746", "blockhash": "000000000000000000022b45ed06c6f4ccd3cf7fb5ba4856ebd2e58215665228", "vout": [{"scriptPubKey": {"reqSigs": 1, "hex": "76a9142cc2b87a28c8a097f48fcc1d468ced6e7d39958d88ac", "addresses": ["155fzsEBHy9Ri2bMQ8uuuR3tv1YzcDywd4"], "asm": "OP_DUP OP_HASH160 2cc2b87a28c8a097f48fcc1d468ced6e7d39958d OP_EQUALVERIFY OP_CHECKSIG", "type": "pubkeyhash"}, "value": 12.59339582, "n": 0}, {"scriptPubKey": {"type": "nulldata", "hex": "6a24aa21a9ed919651eb37517be0006202db4fc8da599eed941ca6ba5e26f0005bafc7002097", "asm": "OP_RETURN aa21a9ed919651eb37517be0006202db4fc8da599eed941ca6ba5e26f0005bafc7002097"}, "value": 0.0, "n": 1}], "hex": "010000000001010000000000000000000000000000000000000000000000000000000000000000ffffffff2e030c490800042b08aa5b04fb06f4000ca789615c5492a65b30240000112f426974436c7562204e6574776f726b2fffffffff023eff0f4b000000001976a9142cc2b87a28c8a097f48fcc1d468ced6e7d39958d88ac0000000000000000266a24aa21a9ed919651eb37517be0006202db4fc8da599eed941ca6ba5e26f0005bafc70020970120000000000000000000000000000000000000000000000000000000000000000000000000", "vin": [{"coinbase": "030c490800042b08aa5b04fb06f4000ca789615c5492a65b30240000112f426974436c7562204e6574776f726b2f", "sequence": 4294967295}], "txid": "8db60e3790545277950667d05436ff30ebf4020a736c76793797f4d7edd30df8", "blocktime": 1537869901, "version": 1, "confirmations": 11522, "time": 1537869901, "locktime": 0, "vsize": 187, "size": 214}