{"hash": "8dc00857c506a5eb970701182dcad80a11eafb88a13785983613cf56a668dbcf", "blockhash": "00000000000000000017f5eb5941039fbcee6240d03bc1f2f8e35350df66a1d8", "vout": [{"scriptPubKey": {"reqSigs": 1, "hex": "76a914752d9ed55d018e80b935bc58c8185c94a79d15f388ac", "addresses": ["1BgaiD57hW2mQW5z1ChtBYS4wak3ThBysB"], "asm": "OP_DUP OP_HASH160 752d9ed55d018e80b935bc58c8185c94a79d15f3 OP_EQUALVERIFY OP_CHECKSIG", "type": "pubkeyhash"}, "value": 0.01599057, "n": 0}], "hex": "0200000001180cb6ca63d0acb53eb497980f2fc8c742e03e6177f40bac75fb5194851090e1010000006a4730440220609bbd9a665c8226a7ec0925fbdfea82810ed6b38c25a3b34af3d03d008e31c2022055e234c65c6959d616972de5383a52f144fd1fa9a986b177c079b7a7e91ca24c012102604dd065691e054c8e7328b9a20e6a8afe275925ed4156d42324c9114c508e70feffffff0151661800000000001976a914752d9ed55d018e80b935bc58c8185c94a79d15f388ac15490800", "vin": [{"sequence": 4294967294, "scriptSig": {"hex": "4730440220609bbd9a665c8226a7ec0925fbdfea82810ed6b38c25a3b34af3d03d008e31c2022055e234c65c6959d616972de5383a52f144fd1fa9a986b177c079b7a7e91ca24c012102604dd065691e054c8e7328b9a20e6a8afe275925ed4156d42324c9114c508e70", "asm": "30440220609bbd9a665c8226a7ec0925fbdfea82810ed6b38c25a3b34af3d03d008e31c2022055e234c65c6959d616972de5383a52f144fd1fa9a986b177c079b7a7e91ca24c[ALL] 02604dd065691e054c8e7328b9a20e6a8afe275925ed4156d42324c9114c508e70"}, "vout": 1, "txid": "e19010859451fb75ac0bf477613ee042c7c82f0f9897b43eb5acd063cab60c18"}], "txid": "8dc00857c506a5eb970701182dcad80a11eafb88a13785983613cf56a668dbcf", "blocktime": 1537874412, "version": 2, "confirmations": 11467, "time": 1537874412, "locktime": 542997, "vsize": 191, "size": 191}