{"hash": "a5e16a7726fdf88c5d885b25ee1c5cb1727897100b3aecf816d2eecf2c7448c0", "blockhash": "0000000000000000001f76057863aec43deb6fa401d9628bb513d65a8098bfab", "vout": [{"scriptPubKey": {"reqSigs": 1, "hex": "76a9149a1b8f9b1fa2d2297863adb1cb11c71df455684888ac", "addresses": ["1F3r5We2zwNiSzG6GQUTTWnnPMCz2HJbJu"], "asm": "OP_DUP OP_HASH160 9a1b8f9b1fa2d2297863adb1cb11c71df4556848 OP_EQUALVERIFY OP_CHECKSIG", "type": "pubkeyhash"}, "value": 2.699e-05, "n": 0}, {"scriptPubKey": {"reqSigs": 1, "hex": "a9148ddb66c3371910a0ef8f38021cc4094e61e69f3a87", "addresses": ["3Ed62sPENkraPwpovPty9YMFGJ8FtTyv63"], "asm": "OP_HASH160 8ddb66c3371910a0ef8f38021cc4094e61e69f3a OP_EQUAL", "type": "scripthash"}, "value": 0.00043401, "n": 1}], "hex": "0100000000010147b15a574b04722f6462d55663a14bde57b7762d18f0d3c208ade638b0cdf9ed0100000023220020fdd23d707f55451c4e006c77b5e8df35a185a8e99f9bda70bf0ded7913bb1eb3ffffffff028b0a0000000000001976a9149a1b8f9b1fa2d2297863adb1cb11c71df455684888ac89a900000000000017a9148ddb66c3371910a0ef8f38021cc4094e61e69f3a870400483045022100f36cf75cb30f69d6f79dff878a278ab8cfd9ef43ae29bfa4caae0b42c5632d840220108997ba9c94545068d5acf6e4dff02a1fc3569e348cbb922173cb094494171d014730440220196777150647c94a793ce5a58bda9ae091c22f43370c89cff7095b7784446a160220136fd8ec939038803a297ff5c7a0d69c51730eeca9125e71397359869fe3532a014752210286c104577b978160849865bc23f9a6df9b53d41c8ffb486754b97b2a474a181c2103148c80a5bdfddb05ff5bcffc397c8ca748d8b435ec6a175bc9d7bfc7fc6f853752ae00000000", "vin": [{"txinwitness": ["", "3045022100f36cf75cb30f69d6f79dff878a278ab8cfd9ef43ae29bfa4caae0b42c5632d840220108997ba9c94545068d5acf6e4dff02a1fc3569e348cbb922173cb094494171d01", "30440220196777150647c94a793ce5a58bda9ae091c22f43370c89cff7095b7784446a160220136fd8ec939038803a297ff5c7a0d69c51730eeca9125e71397359869fe3532a01", "52210286c104577b978160849865bc23f9a6df9b53d41c8ffb486754b97b2a474a181c2103148c80a5bdfddb05ff5bcffc397c8ca748d8b435ec6a175bc9d7bfc7fc6f853752ae"], "sequence": 4294967295, "scriptSig": {"hex": "220020fdd23d707f55451c4e006c77b5e8df35a185a8e99f9bda70bf0ded7913bb1eb3", "asm": "0020fdd23d707f55451c4e006c77b5e8df35a185a8e99f9bda70bf0ded7913bb1eb3"}, "vout": 1, "txid": "edf9cdb038e6ad08c2d3f0182d76b757de4ba16356d562642f72044b575ab147"}], "txid": "8dc15e4eee82b635649d53211d10394455d9c851e871cf47eae0c047757de36a", "blocktime": 1537873891, "version": 1, "confirmations": 11478, "time": 1537873891, "locktime": 0, "vsize": 208, "size": 373}