{"hash": "eb560bb2ad3c44a79f4d8c1b603f613bd7ae302661091beccab21d0c1fc80db0", "blockhash": "00000000000000000017f5eb5941039fbcee6240d03bc1f2f8e35350df66a1d8", "vout": [{"scriptPubKey": {"reqSigs": 1, "hex": "002058c8797f181e000075cb9a18a9662013b795012e86acc04d56a2d229e7b8d7c4", "addresses": ["bc1qtry8jlccrcqqqawtngv2je3qzwme2qfws6kvqn2k5tfzneac6lzqpgummp"], "asm": "0 58c8797f181e000075cb9a18a9662013b795012e86acc04d56a2d229e7b8d7c4", "type": "witness_v0_scripthash"}, "value": 0.00129574, "n": 0}], "hex": "01000000000101c96e5d69b15a697d275e6a67ef06eaed01615175b627cdb76235e0d32e20efc400000000171600140c2d7a8f4360f7db4d7f1a061a9901685a75184bffffffff0126fa01000000000022002058c8797f181e000075cb9a18a9662013b795012e86acc04d56a2d229e7b8d7c4024830450221008927d8a675593831b86b44327418fe04a554825bbaec2de63d010b60b8a2fc81022071bb9e0123ca254f5d3bd1e5f12732c7e2c8e7fd836fe8ec81024fc082ac68a601210262bbfa97307f046e3543b3b44310de2bb7b049f1db726968ec7091ee3414ff5100000000", "vin": [{"txinwitness": ["30450221008927d8a675593831b86b44327418fe04a554825bbaec2de63d010b60b8a2fc81022071bb9e0123ca254f5d3bd1e5f12732c7e2c8e7fd836fe8ec81024fc082ac68a601", "0262bbfa97307f046e3543b3b44310de2bb7b049f1db726968ec7091ee3414ff51"], "sequence": 4294967295, "scriptSig": {"hex": "1600140c2d7a8f4360f7db4d7f1a061a9901685a75184b", "asm": "00140c2d7a8f4360f7db4d7f1a061a9901685a75184b"}, "vout": 0, "txid": "c4ef202ed3e03562b7cd27b675516101edea06ef676a5e277d695ab1695d6ec9"}], "txid": "8dc7d80bf3b24fca7b3cf97bc60fd40def9290842ca7cb2ba5d2fbe8b741815f", "blocktime": 1537874412, "version": 1, "confirmations": 11468, "time": 1537874412, "locktime": 0, "vsize": 145, "size": 227}