{"hash": "8dd9e3ac575670a1c2cc57e38acb4556e140cac76b30c41b572d0119d64d4c88", "blockhash": "0000000000000000000e13cef7c366c0283d82e591d1acd082e914b08063cdf1", "vout": [{"scriptPubKey": {"reqSigs": 1, "hex": "76a914e86c432deeb3fb852a66d843992b1f4a160a5ca988ac", "addresses": ["1NBwTi9aQbmbescb7Z2qcGVfEoSS9qSZHB"], "asm": "OP_DUP OP_HASH160 e86c432deeb3fb852a66d843992b1f4a160a5ca9 OP_EQUALVERIFY OP_CHECKSIG", "type": "pubkeyhash"}, "value": 0.00044231, "n": 0}, {"scriptPubKey": {"reqSigs": 1, "hex": "a914e038fa39eb1c57b2b3cb7f68d5c5ddca16cc066f87", "addresses": ["3N8bYNmaexhwq4Z88kQTWoVr3PkWJsofC7"], "asm": "OP_HASH160 e038fa39eb1c57b2b3cb7f68d5c5ddca16cc066f OP_EQUAL", "type": "scripthash"}, "value": 0.00781154, "n": 1}], "hex": "0100000002c61135b53d00ca44a19192baaba00d5d680d1327eb03afa3d7154fdd5405482a030000006b48304502210092a2cdfd339fae5a123dc94a840e3c6e6fe196d7f605be15ceba90d37140863b02204fbf8efae59cbb910ec2ae65130919829977f8aa971b7cf1362c2c487038351e012102580c6a3fef1619f83cb1f283df3c23b2614e8770625ed234e01bb60355acff2dffffffffe8d5a338aa863acd2614c61406ee95a06515a9f7ea330699110f16186a3edf3c010000006a473044022000c0e4d62553c0a2f20d36be9a1126034a7a14176ba6367999aa419e075604a802206bdaea7dbe3fc34ba4cf303611542f3700352c0fa866c921b749ec18a31d1d92012103dd7bd005d8c4902cd7a61301c27e28dcfd4c227eebf4a8b1fdebff1132a94286ffffffff02c7ac0000000000001976a914e86c432deeb3fb852a66d843992b1f4a160a5ca988ac62eb0b000000000017a914e038fa39eb1c57b2b3cb7f68d5c5ddca16cc066f8700000000", "vin": [{"sequence": 4294967295, "scriptSig": {"hex": "48304502210092a2cdfd339fae5a123dc94a840e3c6e6fe196d7f605be15ceba90d37140863b02204fbf8efae59cbb910ec2ae65130919829977f8aa971b7cf1362c2c487038351e012102580c6a3fef1619f83cb1f283df3c23b2614e8770625ed234e01bb60355acff2d", "asm": "304502210092a2cdfd339fae5a123dc94a840e3c6e6fe196d7f605be15ceba90d37140863b02204fbf8efae59cbb910ec2ae65130919829977f8aa971b7cf1362c2c487038351e[ALL] 02580c6a3fef1619f83cb1f283df3c23b2614e8770625ed234e01bb60355acff2d"}, "vout": 3, "txid": "2a480554dd4f15d7a3af03eb27130d685d0da0abba9291a144ca003db53511c6"}, {"sequence": 4294967295, "scriptSig": {"hex": "473044022000c0e4d62553c0a2f20d36be9a1126034a7a14176ba6367999aa419e075604a802206bdaea7dbe3fc34ba4cf303611542f3700352c0fa866c921b749ec18a31d1d92012103dd7bd005d8c4902cd7a61301c27e28dcfd4c227eebf4a8b1fdebff1132a94286", "asm": "3044022000c0e4d62553c0a2f20d36be9a1126034a7a14176ba6367999aa419e075604a802206bdaea7dbe3fc34ba4cf303611542f3700352c0fa866c921b749ec18a31d1d92[ALL] 03dd7bd005d8c4902cd7a61301c27e28dcfd4c227eebf4a8b1fdebff1132a94286"}, "vout": 1, "txid": "3cdf3e6a18160f11990633eaf7a91565a095ee0614c61426cd3a86aa38a3d5e8"}], "txid": "8dd9e3ac575670a1c2cc57e38acb4556e140cac76b30c41b572d0119d64d4c88", "blocktime": 1537871767, "version": 1, "confirmations": 11495, "time": 1537871767, "locktime": 0, "vsize": 371, "size": 371}