{"hash": "8dddf6933051ede8d3080b82b01781e160124aaaa63471d740b8c4b3089a1831", "blockhash": "00000000000000000004ffacab907a6b429b9a5745fa0b75af4234bf69dd7176", "vout": [{"scriptPubKey": {"reqSigs": 1, "hex": "a9149be13f4b7fe59bcd5fd441ce750a26c9372aa8cb87", "addresses": ["3FuEVjKaRcNNhZtkg87UtVrYJkZ9tkvC6g"], "asm": "OP_HASH160 9be13f4b7fe59bcd5fd441ce750a26c9372aa8cb OP_EQUAL", "type": "scripthash"}, "value": 0.00172021, "n": 0}, {"scriptPubKey": {"reqSigs": 1, "hex": "76a9144a04ff69be1172fcf969053a483e51075139447888ac", "addresses": ["17kNzSeh3pLCcdpWALqhRMVxY8pmNELhqG"], "asm": "OP_DUP OP_HASH160 4a04ff69be1172fcf969053a483e510751394478 OP_EQUALVERIFY OP_CHECKSIG", "type": "pubkeyhash"}, "value": 0.22286048, "n": 1}], "hex": "0200000001cbbbbc5e0963748ba86d7ffa32beb1bf1e991f0c4e69c47364d9521fe7d7168b010000006a47304402206d0f8027539e243423d70bfefe1b2fd68f76950db0e83c22b9db6321dd03084d022045be9fa9382535e8d38306948cc41655d81ea277c276220a402455cf0bf2c29a01210308a574d5eb731eac41455fa99b3e2a6e36f184147b584a5f9b14b5df38e30799ffffffff02f59f02000000000017a9149be13f4b7fe59bcd5fd441ce750a26c9372aa8cb87e00e5401000000001976a9144a04ff69be1172fcf969053a483e51075139447888ac00000000", "vin": [{"sequence": 4294967295, "scriptSig": {"hex": "47304402206d0f8027539e243423d70bfefe1b2fd68f76950db0e83c22b9db6321dd03084d022045be9fa9382535e8d38306948cc41655d81ea277c276220a402455cf0bf2c29a01210308a574d5eb731eac41455fa99b3e2a6e36f184147b584a5f9b14b5df38e30799", "asm": "304402206d0f8027539e243423d70bfefe1b2fd68f76950db0e83c22b9db6321dd03084d022045be9fa9382535e8d38306948cc41655d81ea277c276220a402455cf0bf2c29a[ALL] 0308a574d5eb731eac41455fa99b3e2a6e36f184147b584a5f9b14b5df38e30799"}, "vout": 1, "txid": "8b16d7e71f52d96473c4694e0c1f991ebfb1be32fa7f6da88b7463095ebcbbcb"}], "txid": "8dddf6933051ede8d3080b82b01781e160124aaaa63471d740b8c4b3089a1831", "blocktime": 1537875543, "version": 2, "confirmations": 11464, "time": 1537875543, "locktime": 0, "vsize": 223, "size": 223}