{"hash": "fe6fcc3d536b9bcd374bb32f4ff567498fc219214a4456580cbac90c300fe79e", "blockhash": "0000000000000000001cda96e906b7601b7a6fb1a3b62bca570a9e5d8f4b3de1", "vout": [{"scriptPubKey": {"reqSigs": 1, "hex": "a91494fbb5bb90080671770402a432fe22913e4054dd87", "addresses": ["3FGmU3YRsXGPbKyPGgaTBkq4aam4zHnUCE"], "asm": "OP_HASH160 94fbb5bb90080671770402a432fe22913e4054dd OP_EQUAL", "type": "scripthash"}, "value": 0.05344997, "n": 0}, {"scriptPubKey": {"reqSigs": 1, "hex": "a914f3872d99d67b25b0651d298a2c868df614d7a07d87", "addresses": ["3Ptg4Vvr3VxnKeVzeqdfyaR439p92CxtWd"], "asm": "OP_HASH160 f3872d99d67b25b0651d298a2c868df614d7a07d OP_EQUAL", "type": "scripthash"}, "value": 0.00137235, "n": 1}], "hex": "01000000000101b165776427fc7da5e32e2405d5751648930145d1eea45b200691bd5af7092d1b00000000171600147eac77e0c6f1cedcb45cc08bc893c843d46675c1ffffffff02e58e51000000000017a91494fbb5bb90080671770402a432fe22913e4054dd87131802000000000017a914f3872d99d67b25b0651d298a2c868df614d7a07d8702473044022075a68a89da5a13e4985e4de49586c9e148afd03794f1129fa6addcc4d163db3302204d8d2b4b80c082f99375d6f9142a626a8fd9b1c06c689b9895b1deb1f412926001210268b4ed6b0f09373fc2bbdc6e7ff589c29a2a26d913700db37222c4d843e2076a00000000", "vin": [{"txinwitness": ["3044022075a68a89da5a13e4985e4de49586c9e148afd03794f1129fa6addcc4d163db3302204d8d2b4b80c082f99375d6f9142a626a8fd9b1c06c689b9895b1deb1f412926001", "0268b4ed6b0f09373fc2bbdc6e7ff589c29a2a26d913700db37222c4d843e2076a"], "sequence": 4294967295, "scriptSig": {"hex": "1600147eac77e0c6f1cedcb45cc08bc893c843d46675c1", "asm": "00147eac77e0c6f1cedcb45cc08bc893c843d46675c1"}, "vout": 0, "txid": "1b2d09f75abd9106205ba4eed1450193481675d505242ee3a57dfc27647765b1"}], "txid": "8de123a17bfe458fa25e9c550379352d92614d0090360a4648d2cdca1ca4dc08", "blocktime": 1537873282, "version": 1, "confirmations": 11480, "time": 1537873282, "locktime": 0, "vsize": 166, "size": 247}