{"hash": "8de39055134122c54c66da91f4b41960ae8e3ac5419472b102ec0ab89f0deff7", "blockhash": "0000000000000000001f76057863aec43deb6fa401d9628bb513d65a8098bfab", "vout": [{"scriptPubKey": {"reqSigs": 1, "hex": "76a914189417c7c2ff1f199fc582f54d47d48282a6016e88ac", "addresses": ["13ExdH9hSEXGPVAcUtLaEp4qeKVpKtYNJv"], "asm": "OP_DUP OP_HASH160 189417c7c2ff1f199fc582f54d47d48282a6016e OP_EQUALVERIFY OP_CHECKSIG", "type": "pubkeyhash"}, "value": 0.00290026, "n": 0}, {"scriptPubKey": {"reqSigs": 1, "hex": "76a9147d062f9d43eae2f359ad8f96d69cd304a8e6b6c388ac", "addresses": ["1CQ4snmjmPVT1siGNKGrXMRLGwebbinLCM"], "asm": "OP_DUP OP_HASH160 7d062f9d43eae2f359ad8f96d69cd304a8e6b6c3 OP_EQUALVERIFY OP_CHECKSIG", "type": "pubkeyhash"}, "value": 3.132e-05, "n": 1}], "hex": "0100000001140c38cf7229d849616a0385fd576447dc5bf53386e30fab447f3e4612afcbf20d0000006a4730440220181e947e39b559d363f3a30f7c6a6dd3a95f7ad19e21965de2c3560c7d2880e0022060a4ca7f06b867090ab6b2ef6526f64c8c56b24c6b187c5b214641b82fb9847e012103f91ac0ef306b4c029e7b1f5ffca39e9ecf91aebb02189e6b626ede65ab02f63cffffffff02ea6c0400000000001976a914189417c7c2ff1f199fc582f54d47d48282a6016e88ac3c0c0000000000001976a9147d062f9d43eae2f359ad8f96d69cd304a8e6b6c388ac00000000", "vin": [{"sequence": 4294967295, "scriptSig": {"hex": "4730440220181e947e39b559d363f3a30f7c6a6dd3a95f7ad19e21965de2c3560c7d2880e0022060a4ca7f06b867090ab6b2ef6526f64c8c56b24c6b187c5b214641b82fb9847e012103f91ac0ef306b4c029e7b1f5ffca39e9ecf91aebb02189e6b626ede65ab02f63c", "asm": "30440220181e947e39b559d363f3a30f7c6a6dd3a95f7ad19e21965de2c3560c7d2880e0022060a4ca7f06b867090ab6b2ef6526f64c8c56b24c6b187c5b214641b82fb9847e[ALL] 03f91ac0ef306b4c029e7b1f5ffca39e9ecf91aebb02189e6b626ede65ab02f63c"}, "vout": 13, "txid": "f2cbaf12463e7f44ab0fe38633f55bdc476457fd85036a6149d82972cf380c14"}], "txid": "8de39055134122c54c66da91f4b41960ae8e3ac5419472b102ec0ab89f0deff7", "blocktime": 1537873891, "version": 1, "confirmations": 11474, "time": 1537873891, "locktime": 0, "vsize": 225, "size": 225}