{"hash": "c2b1abd5a8fcb014a1ddbbd67c0616d3e87a99e332b9f5164a59c6397f4908c2", "blockhash": "0000000000000000001cda96e906b7601b7a6fb1a3b62bca570a9e5d8f4b3de1", "vout": [{"scriptPubKey": {"reqSigs": 1, "hex": "a914e8db75c900cf08f06518e96d167331f2a4abfb3387", "addresses": ["3NvFbQMAkkqEFj4i1sYPPLkSWzxTFUchjA"], "asm": "OP_HASH160 e8db75c900cf08f06518e96d167331f2a4abfb33 OP_EQUAL", "type": "scripthash"}, "value": 0.00049574, "n": 0}], "hex": "01000000000101dca7d51c96fb7b027a63d77f0d7873abb0b6769bf2df326ec643cd12578a5e6f00000000171600142b3871b709c9f46f65caae0f41433d6a9f1c0112ffffffff01a6c100000000000017a914e8db75c900cf08f06518e96d167331f2a4abfb338702483045022100ca4697313c9a07cbe451b3d9f9086b7ba27e84396d2554e6aa5ba5bb40c87c0202201e60ac49b2082a6bb3c31e32661f0b7a0a1826a7562798e83f2706cecca03b9f01210293ee6dc89244c68b5aa2f9845945fa3e566e83a15ccf64eb33a53d7c9981dafb00000000", "vin": [{"txinwitness": ["3045022100ca4697313c9a07cbe451b3d9f9086b7ba27e84396d2554e6aa5ba5bb40c87c0202201e60ac49b2082a6bb3c31e32661f0b7a0a1826a7562798e83f2706cecca03b9f01", "0293ee6dc89244c68b5aa2f9845945fa3e566e83a15ccf64eb33a53d7c9981dafb"], "sequence": 4294967295, "scriptSig": {"hex": "1600142b3871b709c9f46f65caae0f41433d6a9f1c0112", "asm": "00142b3871b709c9f46f65caae0f41433d6a9f1c0112"}, "vout": 0, "txid": "6f5e8a5712cd43c66e32dff29b76b6b0ab73780d7fd7637a027bfb961cd5a7dc"}], "txid": "8de836734475489ae998d6d5e52baca93a1bc071f1f91406f970ecad81e4a096", "blocktime": 1537873282, "version": 1, "confirmations": 11485, "time": 1537873282, "locktime": 0, "vsize": 134, "size": 216}