{"hash": "8de98b64bc773f9dd4d803541a73cb16e29d841f4fd1e9f59d845c4c93688d83", "blockhash": "0000000000000000001f76057863aec43deb6fa401d9628bb513d65a8098bfab", "vout": [{"scriptPubKey": {"reqSigs": 1, "hex": "76a914751262d6ee90f67bfc4a002889976f0984163eca88ac", "addresses": ["1Bg25w534bYGpWyzSRo4piy84PM3qwvqhE"], "asm": "OP_DUP OP_HASH160 751262d6ee90f67bfc4a002889976f0984163eca OP_EQUALVERIFY OP_CHECKSIG", "type": "pubkeyhash"}, "value": 0.09187936, "n": 0}, {"scriptPubKey": {"reqSigs": 1, "hex": "76a914d702a37c411e6e672740d0511dff58fa0570339c88ac", "addresses": ["1LbsSaWQCeCjKtT1FKqBMcn16uWTXBA5Rp"], "asm": "OP_DUP OP_HASH160 d702a37c411e6e672740d0511dff58fa0570339c OP_EQUALVERIFY OP_CHECKSIG", "type": "pubkeyhash"}, "value": 0.50806672, "n": 1}], "hex": "0100000001bb046878c2bee8ce853c7e559b81c7154b9e72bd5d4cfdec278e9d6a4f89180a010000006a47304402202810abab088211bb1ff63172f0748fe27202b2e1405eb2ea81ed6187a86da68a02201cf63ddb9ee958800c94373824dede67cba3a782920a262c5401db780f658b2401210201f8b5df906c1cf3fa50fa159cd48ba5e00e4764273fc7199050629d1ce7220ffeffffff0260328c00000000001976a914751262d6ee90f67bfc4a002889976f0984163eca88ac903f0703000000001976a914d702a37c411e6e672740d0511dff58fa0570339c88ac00000000", "vin": [{"sequence": 4294967294, "scriptSig": {"hex": "47304402202810abab088211bb1ff63172f0748fe27202b2e1405eb2ea81ed6187a86da68a02201cf63ddb9ee958800c94373824dede67cba3a782920a262c5401db780f658b2401210201f8b5df906c1cf3fa50fa159cd48ba5e00e4764273fc7199050629d1ce7220f", "asm": "304402202810abab088211bb1ff63172f0748fe27202b2e1405eb2ea81ed6187a86da68a02201cf63ddb9ee958800c94373824dede67cba3a782920a262c5401db780f658b24[ALL] 0201f8b5df906c1cf3fa50fa159cd48ba5e00e4764273fc7199050629d1ce7220f"}, "vout": 1, "txid": "0a18894f6a9d8e27ecfd4c5dbd729e4b15c7819b557e3c85cee8bec2786804bb"}], "txid": "8de98b64bc773f9dd4d803541a73cb16e29d841f4fd1e9f59d845c4c93688d83", "blocktime": 1537873891, "version": 1, "confirmations": 11477, "time": 1537873891, "locktime": 0, "vsize": 225, "size": 225}