{"hash": "8df16dfea495e16ad16170821f3b5aaf2c630d42b4dc62a3cbbeadc5eb764828", "blockhash": "00000000000000000017f5eb5941039fbcee6240d03bc1f2f8e35350df66a1d8", "vout": [{"scriptPubKey": {"reqSigs": 1, "hex": "76a914882cc4f54c2ea08d18892bb11ab27fc43e466e7188ac", "addresses": ["1DR2XiiEjs91cTtp1LxyqEKm5ihNABmRZ7"], "asm": "OP_DUP OP_HASH160 882cc4f54c2ea08d18892bb11ab27fc43e466e71 OP_EQUALVERIFY OP_CHECKSIG", "type": "pubkeyhash"}, "value": 0.110775, "n": 0}, {"scriptPubKey": {"type": "nulldata", "hex": "6a146f6d6e69000000000000001f0000000038074300", "asm": "OP_RETURN 6f6d6e69000000000000001f0000000038074300"}, "value": 0.0, "n": 1}, {"scriptPubKey": {"reqSigs": 1, "hex": "76a9143c4f86bb2d18c19f0afde122b645b9867df787d688ac", "addresses": ["16Vtp6RnFtc89PHhoiWBVeEf7VyNHn3gQA"], "asm": "OP_DUP OP_HASH160 3c4f86bb2d18c19f0afde122b645b9867df787d6 OP_EQUALVERIFY OP_CHECKSIG", "type": "pubkeyhash"}, "value": 5.46e-06, "n": 2}], "hex": "0100000001e70536d57d6cd2d14feb052d016e3ccc4052896254edd57711620383699fb869000000006a47304402203689c2ca3ffff6755e8682509c4c41185998eaa471735b59d94a23f9f18f42d002201ba810c9d342b77185e0917f986f727bf435834ced845723fac6a5741616b13a012102d7800c61a710c2c233322b2fbdcbbd492c162678a6cf6e859c3b7322e14189eefeffffff037c07a900000000001976a914882cc4f54c2ea08d18892bb11ab27fc43e466e7188ac0000000000000000166a146f6d6e69000000000000001f000000003807430022020000000000001976a9143c4f86bb2d18c19f0afde122b645b9867df787d688acbc480800", "vin": [{"sequence": 4294967294, "scriptSig": {"hex": "47304402203689c2ca3ffff6755e8682509c4c41185998eaa471735b59d94a23f9f18f42d002201ba810c9d342b77185e0917f986f727bf435834ced845723fac6a5741616b13a012102d7800c61a710c2c233322b2fbdcbbd492c162678a6cf6e859c3b7322e14189ee", "asm": "304402203689c2ca3ffff6755e8682509c4c41185998eaa471735b59d94a23f9f18f42d002201ba810c9d342b77185e0917f986f727bf435834ced845723fac6a5741616b13a[ALL] 02d7800c61a710c2c233322b2fbdcbbd492c162678a6cf6e859c3b7322e14189ee"}, "vout": 0, "txid": "69b89f698303621177d5ed5462895240cc3c6e012d05eb4fd1d26c7dd53605e7"}], "txid": "8df16dfea495e16ad16170821f3b5aaf2c630d42b4dc62a3cbbeadc5eb764828", "blocktime": 1537874412, "version": 1, "confirmations": 11466, "time": 1537874412, "locktime": 542908, "vsize": 256, "size": 256}