{"hash": "ad3b678e3b1f6c568e64d61af0838037416ce19038ccc577c9f3f0e709b6225f", "blockhash": "0000000000000000000e13cef7c366c0283d82e591d1acd082e914b08063cdf1", "vout": [{"scriptPubKey": {"reqSigs": 1, "hex": "0014b209c7586cb87ca8abcfec45ea927d6af083b293", "addresses": ["bc1qkgyuwkrvhp723270a3z74ynadtcg8v5nt3dflr"], "asm": "0 b209c7586cb87ca8abcfec45ea927d6af083b293", "type": "witness_v0_keyhash"}, "value": 0.00428268, "n": 0}, {"scriptPubKey": {"reqSigs": 1, "hex": "0020851078d0bc8e5d3cb77762f7f71c648e014701441c599a05774f39b5e33766ad", "addresses": ["bc1qs5g8359u3ewnedmhvtmlw8ry3cq5wq2yr3ve5pthfuumtcehv6kszmqz6z"], "asm": "0 851078d0bc8e5d3cb77762f7f71c648e014701441c599a05774f39b5e33766ad", "type": "witness_v0_scripthash"}, "value": 0.01539556, "n": 1}], "hex": "01000000000103c6a7939330b48e65b8000367fb9a888ec7b518cfa2b9275987954b9b189ea32d0000000000ffffffff7fd60e95d39149efa5d3ae470fa8fdaa0c63c08969ccd7a3be4d3e76d38be3dc0000000000ffffffffdb36138d4deee52cf9a7cf30f6b20c22298b3a52ffb2d06cea8ce734725bb6fa0000000000ffffffff02ec88060000000000160014b209c7586cb87ca8abcfec45ea927d6af083b293e47d170000000000220020851078d0bc8e5d3cb77762f7f71c648e014701441c599a05774f39b5e33766ad0247304402207a44f8fa54d1cd0f83936f93e0dea2041cc86dd6196f16ad12043c2f40e72120022022f4524fe3c24f459b11babead5f6f5ab3c5cfb5850c20ceb1205b61acc6a33f012102d2cc51b50e06d4b3666027e3db36a27330873e9a18aa8222d5386837d29ebeb602473044022049eef016ad7d12216185bfa0eb19c6e380829e038d61e00810911bf11dc61cff02202a4e9628d4550466e3f27f150f2a085a444cda7d633b195726bcd2ab57cd1715012102c4bb5f23ea93444eb8bebcbe169c7104be7b81c2d7780af51a88d779bccdc2e10247304402205e18f824faf01570d389c7cc1d086cf41e6850b7a6e6c936b583c0b40688c17d022028204032f934b06588b126291a425418078daa7d8e7a22ac6131dff75ed79d30012102f0efaf0b27f0a5f767e45f3a2d186db30e675d3d260a1c915d83b8673f0633c800000000", "vin": [{"txinwitness": ["304402207a44f8fa54d1cd0f83936f93e0dea2041cc86dd6196f16ad12043c2f40e72120022022f4524fe3c24f459b11babead5f6f5ab3c5cfb5850c20ceb1205b61acc6a33f01", "02d2cc51b50e06d4b3666027e3db36a27330873e9a18aa8222d5386837d29ebeb6"], "sequence": 4294967295, "scriptSig": {"hex": "", "asm": ""}, "vout": 0, "txid": "2da39e189b4b95875927b9a2cf18b5c78e889afb670300b8658eb4309393a7c6"}, {"txinwitness": ["3044022049eef016ad7d12216185bfa0eb19c6e380829e038d61e00810911bf11dc61cff02202a4e9628d4550466e3f27f150f2a085a444cda7d633b195726bcd2ab57cd171501", "02c4bb5f23ea93444eb8bebcbe169c7104be7b81c2d7780af51a88d779bccdc2e1"], "sequence": 4294967295, "scriptSig": {"hex": "", "asm": ""}, "vout": 0, "txid": "dce38bd3763e4dbea3d7cc6989c0630caafda80f47aed3a5ef4991d3950ed67f"}, {"txinwitness": ["304402205e18f824faf01570d389c7cc1d086cf41e6850b7a6e6c936b583c0b40688c17d022028204032f934b06588b126291a425418078daa7d8e7a22ac6131dff75ed79d3001", "02f0efaf0b27f0a5f767e45f3a2d186db30e675d3d260a1c915d83b8673f0633c8"], "sequence": 4294967295, "scriptSig": {"hex": "", "asm": ""}, "vout": 0, "txid": "fab65b7234e78cea6cd0b2ff523a8b29220cb2f630cfa7f92ce5ee4d8d1336db"}], "txid": "8df16045dfc21be699cc863075f7a0640c01b5839c4f2a7342701981f9e4397e", "blocktime": 1537871767, "version": 1, "confirmations": 11495, "time": 1537871767, "locktime": 0, "vsize": 288, "size": 530}