{"hash": "8df32dc1a90d015ef35e8d02f51a4f9c5676c98df55ddcdf1314d0a02914d218", "blockhash": "0000000000000000000dcc0f55137456b1a82d3642486a52398922ac4d620174", "vout": [{"scriptPubKey": {"reqSigs": 1, "hex": "76a914f8b81aa3989eec16aa64e1a6aef5f9de2d419b3a88ac", "addresses": ["1Pg78MCMa9vJvdqLQb2ia7SrQoBrAQ38ue"], "asm": "OP_DUP OP_HASH160 f8b81aa3989eec16aa64e1a6aef5f9de2d419b3a OP_EQUALVERIFY OP_CHECKSIG", "type": "pubkeyhash"}, "value": 0.00154164, "n": 0}, {"scriptPubKey": {"type": "nulldata", "hex": "6a4c50000077760001289af6db5aa7155404994516bcbefa6b8351586b4e86aeaeacb577c031fc4be3474d14b6f32469216d99516ca4025baa09660614909024164bf4bc9a9526289ac0f6612cd74e33776ee4", "asm": "OP_RETURN 000077760001289af6db5aa7155404994516bcbefa6b8351586b4e86aeaeacb577c031fc4be3474d14b6f32469216d99516ca4025baa09660614909024164bf4bc9a9526289ac0f6612cd74e33776ee4"}, "value": 0.0, "n": 1}], "hex": "0100000001512a9cde6512317d0ab85e60cb9b3f6e7754c30a33a4dcd65c200200b93d9b7d010000006b48304502210081bd06cfd92b2f7c7b453e2de9ffc281c632e310a913739810099395432f772b02200dfb9747782cfce36b7cbbd5092fdadd2aa4bdee99c6ec6b62d444322f6fe6ec01210378065b6af1217adae3c3837f64f0031220c1660c1d117dbbe68ff1a56d4442c6ffffffff02345a0200000000001976a914f8b81aa3989eec16aa64e1a6aef5f9de2d419b3a88ac0000000000000000536a4c50000077760001289af6db5aa7155404994516bcbefa6b8351586b4e86aeaeacb577c031fc4be3474d14b6f32469216d99516ca4025baa09660614909024164bf4bc9a9526289ac0f6612cd74e33776ee400000000", "vin": [{"sequence": 4294967295, "scriptSig": {"hex": "48304502210081bd06cfd92b2f7c7b453e2de9ffc281c632e310a913739810099395432f772b02200dfb9747782cfce36b7cbbd5092fdadd2aa4bdee99c6ec6b62d444322f6fe6ec01210378065b6af1217adae3c3837f64f0031220c1660c1d117dbbe68ff1a56d4442c6", "asm": "304502210081bd06cfd92b2f7c7b453e2de9ffc281c632e310a913739810099395432f772b02200dfb9747782cfce36b7cbbd5092fdadd2aa4bdee99c6ec6b62d444322f6fe6ec[ALL] 0378065b6af1217adae3c3837f64f0031220c1660c1d117dbbe68ff1a56d4442c6"}, "vout": 1, "txid": "7d9b3db90002205cd6dca4330ac354776e3f9bcb605eb80a7d311265de9c2a51"}], "txid": "8df32dc1a90d015ef35e8d02f51a4f9c5676c98df55ddcdf1314d0a02914d218", "blocktime": 1537870268, "version": 1, "confirmations": 11518, "time": 1537870268, "locktime": 0, "vsize": 284, "size": 284}