{"hash": "8df67851b0052d8b9af8360c1cd7ebda7c9fc18b35364c10c7044e1471552357", "blockhash": "000000000000000000022b45ed06c6f4ccd3cf7fb5ba4856ebd2e58215665228", "vout": [{"scriptPubKey": {"reqSigs": 1, "hex": "a914363277fdaf653bcaa8d9a3dba2d85b9d2726514287", "addresses": ["36dasXiQk4UTuGugqPVeguxf3PfYymUtLT"], "asm": "OP_HASH160 363277fdaf653bcaa8d9a3dba2d85b9d27265142 OP_EQUAL", "type": "scripthash"}, "value": 0.02281, "n": 0}, {"scriptPubKey": {"reqSigs": 1, "hex": "a914e370231feecbfc25e2e2423a5a79bf79bfdca59887", "addresses": ["3NRbeX3vD5VaVE4TDU9ivCDsEf7NPPte6J"], "asm": "OP_HASH160 e370231feecbfc25e2e2423a5a79bf79bfdca598 OP_EQUAL", "type": "scripthash"}, "value": 0.77833876, "n": 1}], "hex": "0100000001965b712e06818138fb6626cc12ee12b663460a3094f2326de2d7814939cfe0c701000000d9004730440220365a0fa916f61dfcd1c7aaa54676ba5dded3ff840e7aa8ffc956aa331f2ead6e02200efd3084f044dcc1c2c5d7fef7269166dc644744c2f038847d60a53a078075d1014730440220590cafb3c9c863f2906293ac8587105fef850a3c9cc438b63dacf36304fc2fb40220294355ae764822dcc55ab17b10cffce7a1d53d15cbd742af24272ddb63dc3fa8014752210327881b6abce6535553a3ce21fad12a7d74fd237ce7c4cd270a267162344e3082210256141f8eb687f5a68c5cc65054652dc25116fa285e44d72b44368827ffe77d9a52aeffffffff0228ce22000000000017a914363277fdaf653bcaa8d9a3dba2d85b9d272651428794a6a3040000000017a914e370231feecbfc25e2e2423a5a79bf79bfdca5988700000000", "vin": [{"sequence": 4294967295, "scriptSig": {"hex": "004730440220365a0fa916f61dfcd1c7aaa54676ba5dded3ff840e7aa8ffc956aa331f2ead6e02200efd3084f044dcc1c2c5d7fef7269166dc644744c2f038847d60a53a078075d1014730440220590cafb3c9c863f2906293ac8587105fef850a3c9cc438b63dacf36304fc2fb40220294355ae764822dcc55ab17b10cffce7a1d53d15cbd742af24272ddb63dc3fa8014752210327881b6abce6535553a3ce21fad12a7d74fd237ce7c4cd270a267162344e3082210256141f8eb687f5a68c5cc65054652dc25116fa285e44d72b44368827ffe77d9a52ae", "asm": "0 30440220365a0fa916f61dfcd1c7aaa54676ba5dded3ff840e7aa8ffc956aa331f2ead6e02200efd3084f044dcc1c2c5d7fef7269166dc644744c2f038847d60a53a078075d1[ALL] 30440220590cafb3c9c863f2906293ac8587105fef850a3c9cc438b63dacf36304fc2fb40220294355ae764822dcc55ab17b10cffce7a1d53d15cbd742af24272ddb63dc3fa8[ALL] 52210327881b6abce6535553a3ce21fad12a7d74fd237ce7c4cd270a267162344e3082210256141f8eb687f5a68c5cc65054652dc25116fa285e44d72b44368827ffe77d9a52ae"}, "vout": 1, "txid": "c7e0cf394981d7e26d32f294300a4663b612ee12cc2666fb388181062e715b96"}], "txid": "8df67851b0052d8b9af8360c1cd7ebda7c9fc18b35364c10c7044e1471552357", "blocktime": 1537869901, "version": 1, "confirmations": 11523, "time": 1537869901, "locktime": 0, "vsize": 332, "size": 332}