{"hash": "8df6311ff96da0c46c17e76a23284eab6ad78a9e90893d997f7ce6b4081984bc", "blockhash": "00000000000000000018f53835495a110e01622372bf6ae95dc86f2b0ab887b0", "vout": [{"scriptPubKey": {"reqSigs": 1, "hex": "76a91471b57cc563224132e8c2e40bbb764126612aacc788ac", "addresses": ["1BNEmeDALj5dGyMZCjRzTGbtHs1X1qR64r"], "asm": "OP_DUP OP_HASH160 71b57cc563224132e8c2e40bbb764126612aacc7 OP_EQUALVERIFY OP_CHECKSIG", "type": "pubkeyhash"}, "value": 0.00458292, "n": 0}, {"scriptPubKey": {"reqSigs": 1, "hex": "76a914a27fc1e9907ef09ddf10b778716a926886cd2c7a88ac", "addresses": ["1FpDWpdS19ezkQKSokG1Dq5xm6tTedA9ns"], "asm": "OP_DUP OP_HASH160 a27fc1e9907ef09ddf10b778716a926886cd2c7a OP_EQUALVERIFY OP_CHECKSIG", "type": "pubkeyhash"}, "value": 0.00312917, "n": 1}], "hex": "0100000001897af4b26f44ab604fb7dd5a99486d20b3ea85c42e98d149a3d5a36dffd711e7000000006a4730440220588ca937f7dfaa1dbe455cac4957325116f42d467b62d6856bb12a5e9a3630630220139534d0d79204afef9981f535d42ae2043bb324b7068d2bffab1bdec915d555012103ffe541a566a31ec68f751711f01b20d1572c18a488670f99bc380eb2d039970fffffffff0234fe0600000000001976a91471b57cc563224132e8c2e40bbb764126612aacc788ac55c60400000000001976a914a27fc1e9907ef09ddf10b778716a926886cd2c7a88ac00000000", "vin": [{"sequence": 4294967295, "scriptSig": {"hex": "4730440220588ca937f7dfaa1dbe455cac4957325116f42d467b62d6856bb12a5e9a3630630220139534d0d79204afef9981f535d42ae2043bb324b7068d2bffab1bdec915d555012103ffe541a566a31ec68f751711f01b20d1572c18a488670f99bc380eb2d039970f", "asm": "30440220588ca937f7dfaa1dbe455cac4957325116f42d467b62d6856bb12a5e9a3630630220139534d0d79204afef9981f535d42ae2043bb324b7068d2bffab1bdec915d555[ALL] 03ffe541a566a31ec68f751711f01b20d1572c18a488670f99bc380eb2d039970f"}, "vout": 0, "txid": "e711d7ff6da3d5a349d1982ec485eab3206d48995addb74f60ab446fb2f47a89"}], "txid": "8df6311ff96da0c46c17e76a23284eab6ad78a9e90893d997f7ce6b4081984bc", "blocktime": 1537870928, "version": 1, "confirmations": 11514, "time": 1537870928, "locktime": 0, "vsize": 225, "size": 225}