{"hash": "326f7adaafdc63f4e8ea54eb1c3f18600b791c9d6501d52a7cb4d7458051daf0", "blockhash": "00000000000000000024a2167bbff67b0be802c0b01cdd79e6331c2be6459f87", "vout": [{"scriptPubKey": {"reqSigs": 1, "hex": "a914d4d2a4f8b7093b643bda95bf2e8c4823da832a8287", "addresses": ["3M6KX3RskuUt8Hb3ykQSfR9kgFNHs2diyK"], "asm": "OP_HASH160 d4d2a4f8b7093b643bda95bf2e8c4823da832a82 OP_EQUAL", "type": "scripthash"}, "value": 0.00773094, "n": 0}, {"scriptPubKey": {"reqSigs": 1, "hex": "a91482c5d99ccfbf3d50841cda097937e570771e63dc87", "addresses": ["3DcUnLur1Fy6Jgy7L6Ze9bfeABZYQTstR5"], "asm": "OP_HASH160 82c5d99ccfbf3d50841cda097937e570771e63dc OP_EQUAL", "type": "scripthash"}, "value": 0.01684956, "n": 1}, {"scriptPubKey": {"reqSigs": 1, "hex": "76a91491cff567ff2cbd435a8c9790f3f3a611f41d63fa88ac", "addresses": ["1EHz72wj4cK5Trz772BULJFNhyqh8Bnq6c"], "asm": "OP_DUP OP_HASH160 91cff567ff2cbd435a8c9790f3f3a611f41d63fa OP_EQUALVERIFY OP_CHECKSIG", "type": "pubkeyhash"}, "value": 0.00554071, "n": 2}, {"scriptPubKey": {"reqSigs": 1, "hex": "a914d58fc5e2e0b5189b59644a4d1a9c30d50182b93287", "addresses": ["3MAE5vgQaSWt3Shdvht6Sg921fG32kA7Z9"], "asm": "OP_HASH160 d58fc5e2e0b5189b59644a4d1a9c30d50182b932 OP_EQUAL", "type": "scripthash"}, "value": 0.87901712, "n": 3}], "hex": "020000000001015f45a6071fdcf6604e9ac78615faf7cc3a085bf004033cbd903fc7d06648cc240100000017160014169368eb9f039fc88a7562e119c24dbfe3f55f65feffffff04e6cb0b000000000017a914d4d2a4f8b7093b643bda95bf2e8c4823da832a8287dcb519000000000017a91482c5d99ccfbf3d50841cda097937e570771e63dc8757740800000000001976a91491cff567ff2cbd435a8c9790f3f3a611f41d63fa88ac10463d050000000017a914d58fc5e2e0b5189b59644a4d1a9c30d50182b9328702483045022100b841da4ace93da0dc44060af9527881f353f525a2126a2674c80ac7b09eac97102203230161c26577b66b9809b389c74d45c517fcf692ad80318593f9ea6b0f8def1012102417488944e817a0d17042a9fc1b45413b08309519561363566de67e67cd65b0a0d490800", "vin": [{"txinwitness": ["3045022100b841da4ace93da0dc44060af9527881f353f525a2126a2674c80ac7b09eac97102203230161c26577b66b9809b389c74d45c517fcf692ad80318593f9ea6b0f8def101", "02417488944e817a0d17042a9fc1b45413b08309519561363566de67e67cd65b0a"], "sequence": 4294967294, "scriptSig": {"hex": "160014169368eb9f039fc88a7562e119c24dbfe3f55f65", "asm": "0014169368eb9f039fc88a7562e119c24dbfe3f55f65"}, "vout": 1, "txid": "24cc4866d0c73f90bd3c0304f05b083accf7fa1586c79a4e60f6dc1f07a6455f"}], "txid": "8df84d51e742197b91e705062a4b7af7c7bc33d0c4a019d1fea45633b2f96eaf", "blocktime": 1537870564, "version": 2, "confirmations": 11515, "time": 1537870564, "locktime": 542989, "vsize": 232, "size": 314}