{"hash": "8dfd3f4daa56fa160a693d6e94b212f81387ae659675e14e6a94bf97088296bf", "blockhash": "0000000000000000000dcc0f55137456b1a82d3642486a52398922ac4d620174", "vout": [{"scriptPubKey": {"reqSigs": 1, "hex": "76a9142df93b3f5d63348b1f181fb79b89bc5adf1539f688ac", "addresses": ["15C5yY6SqFQb9uksHBipTWfzvzZfi3dPGa"], "asm": "OP_DUP OP_HASH160 2df93b3f5d63348b1f181fb79b89bc5adf1539f6 OP_EQUALVERIFY OP_CHECKSIG", "type": "pubkeyhash"}, "value": 0.005, "n": 0}, {"scriptPubKey": {"reqSigs": 1, "hex": "76a91488d924f51033b74a895863a5fb57fd545529df7d88ac", "addresses": ["1DUb2YYbQA1jjaNYzVXLZ7ZioEhLXtbUru"], "asm": "OP_DUP OP_HASH160 88d924f51033b74a895863a5fb57fd545529df7d OP_EQUALVERIFY OP_CHECKSIG", "type": "pubkeyhash"}, "value": 0.44290126, "n": 1}], "hex": "010000000bf7bd2659a8acfe60ab991512abe55387994953a1819be9fcdb7339917a0aaf9b010000006a47304402203e18d31a79bfffd6251151a2934a2602936a0db4dd3fef0bf4588348ebf337e30220216cc94c3ddddb0baf4fe5d10ecdb3e57266081bfe11409dcd5a6126105185390121030888863fcb4cdf5b7d33b40e613af35df8f39d576e7972238b0d396cd3fcc3f2ffffffff23a0023f6f558035f60c6f337fbfe9a9b2c363c1533c2c3402a32550af2b2a27020000006a4730440220110affe42255ea9cce8cce3f6085c32cb6c11f7ec50cd59f9a9dd035153e28dc02205277ca6e99c21d30d24d05f8970df14b2030c18aa656b77ab7aed5b110cccac3012102ee412d72e9df31bc6b68df1db57363a6dfdcd505690f819339f9fc201a570cffffffffff56b128e4e589ed44956f0faa8a7bdde06747fdfa30115a7fbce0eaf3e693091b020000006a47304402203e2f2d9c2e5db2c23b3dc49f04d96017ae15fb3dbb915bf44b9b8068c79e87a2022068d8528a32c4089ee914c96e56e80da922be0aa4fe60056928db8a7360d04b0e0121030888863fcb4cdf5b7d33b40e613af35df8f39d576e7972238b0d396cd3fcc3f2ffffffff57838c33327ab66152dd5f09429af0926be179a77f6b110ffde355fd20f93661010000006b483045022100ac9616ebf7e04638db455600004e863de9d33648aaf90c5a012d213ec860052102201bd863201a2fd3e36f0efa857d17cfcfb40220ad12ad0bad262999444c5f9674012102ddab958e790dbe9c07ff31836143f02c2f99d784c5229ec795386ab34ffc7012ffffffff79369a3dd9f95a32a3233ab45ff6bb84a46c2186ae14c2a9819d34a38559aad4020000006a47304402200de9deff9055c42cae5687308df77034cb73038f8d9a20eb3cbf97c8ea112a9602202f26481deb4b6db7cc966c1242c9506d46e02f30d85fc277d28b20b14d9939f90121030888863fcb4cdf5b7d33b40e613af35df8f39d576e7972238b0d396cd3fcc3f2ffffffffc35466bf23f198546ed1a214d63c32c66c6d5f92dbfac9703e50898bc26e42f5020000006a473044022031c390c57afa7c14c38806f3e3bd0517a71712a6ec2b47c554bfd6148937869802203806bb2a10334d9f8b5e8ee6b62cf2121b50aa25e3d6d759c08282ec3345d2c9012103fe085f4019b078f3fc4ce4885effb556ff4757841864ac95b7cf1e2e0f276f8affffffffd480a58849b9c779181bbb1f5193948db4822fe64ab4ca53df015712d5c95aa2010000006a473044022067997020e21185df8510e158b4082d86d77830a83895070bf9670399476f4440022051c4ccd71f9bd392c7c8dabd6a18abe0af9eb9139d2c0eab140fe13b41de070f0121025be37a291f7a568218242bd1231dce40e29ebd945cf110e4ba51cf4c2507a886ffffffffd6d8e23019cb7879660e112c2bad7a118f90a119e9a2524d2605db23aa8555f8020000006a47304402204c809de8d506831c0f4bc13081304dfcd6874bc7a77cf18d325cfe60dddf23390220708a7541b4b24aa504293e2e71ab377b8ee431317ff21478a1b729abd88555970121030888863fcb4cdf5b7d33b40e613af35df8f39d576e7972238b0d396cd3fcc3f2ffffffffddc8187d16646525acf421711c3bb071f12c0693f5e00df159484273048a1b2c010000006a47304402204e84b6ce0a4fec1348b15cfef8abb9bd08959636c57e11f93cf9776d1d6dada302203a3c2fb512c9c996987f045099f8cd8a8affb373edfaf6065e974bc824c106830121030888863fcb4cdf5b7d33b40e613af35df8f39d576e7972238b0d396cd3fcc3f2ffffffffe64f75e4bcb5ba912b9282baaa169338c4b61cdecca62148c8b3c34cc54ddd69010000006a47304402205d2b8bf9929dfa674b4c75d8dae22e6d11b747fb3fb49a2446cb6e24225cb50b02202d686a73290f8f1f54e103075139d5ddba690b36479a0d76bbe5d076d5ffcbb50121030888863fcb4cdf5b7d33b40e613af35df8f39d576e7972238b0d396cd3fcc3f2ffffffff56b128e4e589ed44956f0faa8a7bdde06747fdfa30115a7fbce0eaf3e693091b010000006b4830450221008d4c22c2149e0a52f845ff2a83991eedbad21ace3eb90f1e2dba09bcfc095039022009aa350b9cb981d2e76cdfe12f93ce98377aa73346b61f323ec8365adcf8bc80012102ddab958e790dbe9c07ff31836143f02c2f99d784c5229ec795386ab34ffc7012ffffffff0220a10700000000001976a9142df93b3f5d63348b1f181fb79b89bc5adf1539f688ac4ed0a302000000001976a91488d924f51033b74a895863a5fb57fd545529df7d88ac00000000", "vin": [{"sequence": 4294967295, "scriptSig": {"hex": "47304402203e18d31a79bfffd6251151a2934a2602936a0db4dd3fef0bf4588348ebf337e30220216cc94c3ddddb0baf4fe5d10ecdb3e57266081bfe11409dcd5a6126105185390121030888863fcb4cdf5b7d33b40e613af35df8f39d576e7972238b0d396cd3fcc3f2", "asm": "304402203e18d31a79bfffd6251151a2934a2602936a0db4dd3fef0bf4588348ebf337e30220216cc94c3ddddb0baf4fe5d10ecdb3e57266081bfe11409dcd5a612610518539[ALL] 030888863fcb4cdf5b7d33b40e613af35df8f39d576e7972238b0d396cd3fcc3f2"}, "vout": 1, "txid": "9baf0a7a913973dbfce99b81a15349998753e5ab121599ab60feaca85926bdf7"}, {"sequence": 4294967295, "scriptSig": {"hex": "4730440220110affe42255ea9cce8cce3f6085c32cb6c11f7ec50cd59f9a9dd035153e28dc02205277ca6e99c21d30d24d05f8970df14b2030c18aa656b77ab7aed5b110cccac3012102ee412d72e9df31bc6b68df1db57363a6dfdcd505690f819339f9fc201a570cff", "asm": "30440220110affe42255ea9cce8cce3f6085c32cb6c11f7ec50cd59f9a9dd035153e28dc02205277ca6e99c21d30d24d05f8970df14b2030c18aa656b77ab7aed5b110cccac3[ALL] 02ee412d72e9df31bc6b68df1db57363a6dfdcd505690f819339f9fc201a570cff"}, "vout": 2, "txid": "272a2baf5025a302342c3c53c163c3b2a9e9bf7f336f0cf63580556f3f02a023"}, {"sequence": 4294967295, "scriptSig": {"hex": "47304402203e2f2d9c2e5db2c23b3dc49f04d96017ae15fb3dbb915bf44b9b8068c79e87a2022068d8528a32c4089ee914c96e56e80da922be0aa4fe60056928db8a7360d04b0e0121030888863fcb4cdf5b7d33b40e613af35df8f39d576e7972238b0d396cd3fcc3f2", "asm": "304402203e2f2d9c2e5db2c23b3dc49f04d96017ae15fb3dbb915bf44b9b8068c79e87a2022068d8528a32c4089ee914c96e56e80da922be0aa4fe60056928db8a7360d04b0e[ALL] 030888863fcb4cdf5b7d33b40e613af35df8f39d576e7972238b0d396cd3fcc3f2"}, "vout": 2, "txid": "1b0993e6f3eae0bc7f5a1130fafd4767e0dd7b8aaa0f6f9544ed89e5e428b156"}, {"sequence": 4294967295, "scriptSig": {"hex": "483045022100ac9616ebf7e04638db455600004e863de9d33648aaf90c5a012d213ec860052102201bd863201a2fd3e36f0efa857d17cfcfb40220ad12ad0bad262999444c5f9674012102ddab958e790dbe9c07ff31836143f02c2f99d784c5229ec795386ab34ffc7012", "asm": "3045022100ac9616ebf7e04638db455600004e863de9d33648aaf90c5a012d213ec860052102201bd863201a2fd3e36f0efa857d17cfcfb40220ad12ad0bad262999444c5f9674[ALL] 02ddab958e790dbe9c07ff31836143f02c2f99d784c5229ec795386ab34ffc7012"}, "vout": 1, "txid": "6136f920fd55e3fd0f116b7fa779e16b92f09a42095fdd5261b67a32338c8357"}, {"sequence": 4294967295, "scriptSig": {"hex": "47304402200de9deff9055c42cae5687308df77034cb73038f8d9a20eb3cbf97c8ea112a9602202f26481deb4b6db7cc966c1242c9506d46e02f30d85fc277d28b20b14d9939f90121030888863fcb4cdf5b7d33b40e613af35df8f39d576e7972238b0d396cd3fcc3f2", "asm": "304402200de9deff9055c42cae5687308df77034cb73038f8d9a20eb3cbf97c8ea112a9602202f26481deb4b6db7cc966c1242c9506d46e02f30d85fc277d28b20b14d9939f9[ALL] 030888863fcb4cdf5b7d33b40e613af35df8f39d576e7972238b0d396cd3fcc3f2"}, "vout": 2, "txid": "d4aa5985a3349d81a9c214ae86216ca484bbf65fb43a23a3325af9d93d9a3679"}, {"sequence": 4294967295, "scriptSig": {"hex": "473044022031c390c57afa7c14c38806f3e3bd0517a71712a6ec2b47c554bfd6148937869802203806bb2a10334d9f8b5e8ee6b62cf2121b50aa25e3d6d759c08282ec3345d2c9012103fe085f4019b078f3fc4ce4885effb556ff4757841864ac95b7cf1e2e0f276f8a", "asm": "3044022031c390c57afa7c14c38806f3e3bd0517a71712a6ec2b47c554bfd6148937869802203806bb2a10334d9f8b5e8ee6b62cf2121b50aa25e3d6d759c08282ec3345d2c9[ALL] 03fe085f4019b078f3fc4ce4885effb556ff4757841864ac95b7cf1e2e0f276f8a"}, "vout": 2, "txid": "f5426ec28b89503e70c9fadb925f6d6cc6323cd614a2d16e5498f123bf6654c3"}, {"sequence": 4294967295, "scriptSig": {"hex": "473044022067997020e21185df8510e158b4082d86d77830a83895070bf9670399476f4440022051c4ccd71f9bd392c7c8dabd6a18abe0af9eb9139d2c0eab140fe13b41de070f0121025be37a291f7a568218242bd1231dce40e29ebd945cf110e4ba51cf4c2507a886", "asm": "3044022067997020e21185df8510e158b4082d86d77830a83895070bf9670399476f4440022051c4ccd71f9bd392c7c8dabd6a18abe0af9eb9139d2c0eab140fe13b41de070f[ALL] 025be37a291f7a568218242bd1231dce40e29ebd945cf110e4ba51cf4c2507a886"}, "vout": 1, "txid": "a25ac9d5125701df53cab44ae62f82b48d9493511fbb1b1879c7b94988a580d4"}, {"sequence": 4294967295, "scriptSig": {"hex": "47304402204c809de8d506831c0f4bc13081304dfcd6874bc7a77cf18d325cfe60dddf23390220708a7541b4b24aa504293e2e71ab377b8ee431317ff21478a1b729abd88555970121030888863fcb4cdf5b7d33b40e613af35df8f39d576e7972238b0d396cd3fcc3f2", "asm": "304402204c809de8d506831c0f4bc13081304dfcd6874bc7a77cf18d325cfe60dddf23390220708a7541b4b24aa504293e2e71ab377b8ee431317ff21478a1b729abd8855597[ALL] 030888863fcb4cdf5b7d33b40e613af35df8f39d576e7972238b0d396cd3fcc3f2"}, "vout": 2, "txid": "f85585aa23db05264d52a2e919a1908f117aad2b2c110e667978cb1930e2d8d6"}, {"sequence": 4294967295, "scriptSig": {"hex": "47304402204e84b6ce0a4fec1348b15cfef8abb9bd08959636c57e11f93cf9776d1d6dada302203a3c2fb512c9c996987f045099f8cd8a8affb373edfaf6065e974bc824c106830121030888863fcb4cdf5b7d33b40e613af35df8f39d576e7972238b0d396cd3fcc3f2", "asm": "304402204e84b6ce0a4fec1348b15cfef8abb9bd08959636c57e11f93cf9776d1d6dada302203a3c2fb512c9c996987f045099f8cd8a8affb373edfaf6065e974bc824c10683[ALL] 030888863fcb4cdf5b7d33b40e613af35df8f39d576e7972238b0d396cd3fcc3f2"}, "vout": 1, "txid": "2c1b8a0473424859f10de0f593062cf171b03b1c7121f4ac256564167d18c8dd"}, {"sequence": 4294967295, "scriptSig": {"hex": "47304402205d2b8bf9929dfa674b4c75d8dae22e6d11b747fb3fb49a2446cb6e24225cb50b02202d686a73290f8f1f54e103075139d5ddba690b36479a0d76bbe5d076d5ffcbb50121030888863fcb4cdf5b7d33b40e613af35df8f39d576e7972238b0d396cd3fcc3f2", "asm": "304402205d2b8bf9929dfa674b4c75d8dae22e6d11b747fb3fb49a2446cb6e24225cb50b02202d686a73290f8f1f54e103075139d5ddba690b36479a0d76bbe5d076d5ffcbb5[ALL] 030888863fcb4cdf5b7d33b40e613af35df8f39d576e7972238b0d396cd3fcc3f2"}, "vout": 1, "txid": "69dd4dc54cc3b3c84821a6ccde1cb6c4389316aaba82922b91bab5bce4754fe6"}, {"sequence": 4294967295, "scriptSig": {"hex": "4830450221008d4c22c2149e0a52f845ff2a83991eedbad21ace3eb90f1e2dba09bcfc095039022009aa350b9cb981d2e76cdfe12f93ce98377aa73346b61f323ec8365adcf8bc80012102ddab958e790dbe9c07ff31836143f02c2f99d784c5229ec795386ab34ffc7012", "asm": "30450221008d4c22c2149e0a52f845ff2a83991eedbad21ace3eb90f1e2dba09bcfc095039022009aa350b9cb981d2e76cdfe12f93ce98377aa73346b61f323ec8365adcf8bc80[ALL] 02ddab958e790dbe9c07ff31836143f02c2f99d784c5229ec795386ab34ffc7012"}, "vout": 1, "txid": "1b0993e6f3eae0bc7f5a1130fafd4767e0dd7b8aaa0f6f9544ed89e5e428b156"}], "txid": "8dfd3f4daa56fa160a693d6e94b212f81387ae659675e14e6a94bf97088296bf", "blocktime": 1537870268, "version": 1, "confirmations": 11516, "time": 1537870268, "locktime": 0, "vsize": 1697, "size": 1697}