{"hash": "8dfef199e74c16ab5e380d28c3ec569b8756e8246a0dca02e0160c56622ade56", "blockhash": "0000000000000000000e13cef7c366c0283d82e591d1acd082e914b08063cdf1", "vout": [{"scriptPubKey": {"reqSigs": 1, "hex": "a91426875ef5de6dfc02d0c65f135ec8b4f5e31074d787", "addresses": ["35Cjma5Hbnu8Y8xHSQsuBH6L4EN8Z45M2A"], "asm": "OP_HASH160 26875ef5de6dfc02d0c65f135ec8b4f5e31074d7 OP_EQUAL", "type": "scripthash"}, "value": 0.00776672, "n": 0}, {"scriptPubKey": {"reqSigs": 1, "hex": "76a914fbdc156b1593029c0ceed865a0662bbff650342388ac", "addresses": ["1PxiFqB4Rtw8wy8jMzML36rzAT6sRMyxMR"], "asm": "OP_DUP OP_HASH160 fbdc156b1593029c0ceed865a0662bbff6503423 OP_EQUALVERIFY OP_CHECKSIG", "type": "pubkeyhash"}, "value": 0.0940496, "n": 1}], "hex": "0100000001bc623d94b52177b8ea03bda6e45320f55b79e217af722d5aedd39f62e44327f4010000006b483045022100fe1293b9bdfd6d2ea87c7712c012338ed7dc43b4b70fb02fd1663f4860aba498022036222d18958b637a4492125b7348682b682fb4d5efeff696f20a6f6faa5150c4012103c4ef8028471b3a9665c2e9f921adbbbe636348050d862eff5a175d40fc74fa6dffffffff02e0d90b000000000017a91426875ef5de6dfc02d0c65f135ec8b4f5e31074d78720828f00000000001976a914fbdc156b1593029c0ceed865a0662bbff650342388ac00000000", "vin": [{"sequence": 4294967295, "scriptSig": {"hex": "483045022100fe1293b9bdfd6d2ea87c7712c012338ed7dc43b4b70fb02fd1663f4860aba498022036222d18958b637a4492125b7348682b682fb4d5efeff696f20a6f6faa5150c4012103c4ef8028471b3a9665c2e9f921adbbbe636348050d862eff5a175d40fc74fa6d", "asm": "3045022100fe1293b9bdfd6d2ea87c7712c012338ed7dc43b4b70fb02fd1663f4860aba498022036222d18958b637a4492125b7348682b682fb4d5efeff696f20a6f6faa5150c4[ALL] 03c4ef8028471b3a9665c2e9f921adbbbe636348050d862eff5a175d40fc74fa6d"}, "vout": 1, "txid": "f42743e4629fd3ed5a2d72af17e2795bf52053e4a6bd03eab87721b5943d62bc"}], "txid": "8dfef199e74c16ab5e380d28c3ec569b8756e8246a0dca02e0160c56622ade56", "blocktime": 1537871767, "version": 1, "confirmations": 11495, "time": 1537871767, "locktime": 0, "vsize": 224, "size": 224}