{"hash": "8e038b16766b2d80ace3e4c7e784602b13c64e3a6df554dca58ce4fe4338e3de", "blockhash": "0000000000000000000e13cef7c366c0283d82e591d1acd082e914b08063cdf1", "vout": [{"scriptPubKey": {"reqSigs": 1, "hex": "76a914744e073cfae18673cbe41e5e2415763d35e327d988ac", "addresses": ["1BbxrkcHNnSdkgfC1LTPNWd38tXrFKnNvv"], "asm": "OP_DUP OP_HASH160 744e073cfae18673cbe41e5e2415763d35e327d9 OP_EQUALVERIFY OP_CHECKSIG", "type": "pubkeyhash"}, "value": 0.1005, "n": 0}, {"scriptPubKey": {"reqSigs": 1, "hex": "76a9145380d148782139d9c5b374bf873143960adde26b88ac", "addresses": ["18cXQKY3T19g7BrKVpmE7VVzoRWXjrfvqW"], "asm": "OP_DUP OP_HASH160 5380d148782139d9c5b374bf873143960adde26b OP_EQUALVERIFY OP_CHECKSIG", "type": "pubkeyhash"}, "value": 0.01344827, "n": 1}], "hex": "0100000002c317a7ef2cf8c8ae14f392565962fa3dc757fd28175e01f8b662136c273c8108010000006a473044022074aa1b6bf311b57879e89b2a4c35bd63eea22018a45909786b864becde8c0e2f02207c1a440b664e86337428213cd1221f7db827df9ff77a3aafce16b5d4ef6ed6850121024104cfe1514b37f1b1b72d2d1a328178e0c8166e77c2d3afe0009b099fc24071ffffffffb4ceb4e9e3fb0125b378fb1df5042b96e62c117f23e77e2812bf0cda9db01000010000006a47304402205eaba2f9cefb6dec6cb29738dfef5bcdc843bd3d6fe1fa7240843cb0f99d68a402205616c9347431fcd5f5403eee66e41e9ff5ea222fa97b0a6aae750a84dfb7f9b701210320bc12db0cc898284fe7cf1f934dcb141aa6a507d4ee0c92eb6d88903aaee594ffffffff02d0599900000000001976a914744e073cfae18673cbe41e5e2415763d35e327d988ac3b851400000000001976a9145380d148782139d9c5b374bf873143960adde26b88ac00000000", "vin": [{"sequence": 4294967295, "scriptSig": {"hex": "473044022074aa1b6bf311b57879e89b2a4c35bd63eea22018a45909786b864becde8c0e2f02207c1a440b664e86337428213cd1221f7db827df9ff77a3aafce16b5d4ef6ed6850121024104cfe1514b37f1b1b72d2d1a328178e0c8166e77c2d3afe0009b099fc24071", "asm": "3044022074aa1b6bf311b57879e89b2a4c35bd63eea22018a45909786b864becde8c0e2f02207c1a440b664e86337428213cd1221f7db827df9ff77a3aafce16b5d4ef6ed685[ALL] 024104cfe1514b37f1b1b72d2d1a328178e0c8166e77c2d3afe0009b099fc24071"}, "vout": 1, "txid": "08813c276c1362b6f8015e1728fd57c73dfa62595692f314aec8f82cefa717c3"}, {"sequence": 4294967295, "scriptSig": {"hex": "47304402205eaba2f9cefb6dec6cb29738dfef5bcdc843bd3d6fe1fa7240843cb0f99d68a402205616c9347431fcd5f5403eee66e41e9ff5ea222fa97b0a6aae750a84dfb7f9b701210320bc12db0cc898284fe7cf1f934dcb141aa6a507d4ee0c92eb6d88903aaee594", "asm": "304402205eaba2f9cefb6dec6cb29738dfef5bcdc843bd3d6fe1fa7240843cb0f99d68a402205616c9347431fcd5f5403eee66e41e9ff5ea222fa97b0a6aae750a84dfb7f9b7[ALL] 0320bc12db0cc898284fe7cf1f934dcb141aa6a507d4ee0c92eb6d88903aaee594"}, "vout": 1, "txid": "0010b09dda0cbf12287ee7237f112ce6962b04f51dfb78b32501fbe3e9b4ceb4"}], "txid": "8e038b16766b2d80ace3e4c7e784602b13c64e3a6df554dca58ce4fe4338e3de", "blocktime": 1537871767, "version": 1, "confirmations": 11490, "time": 1537871767, "locktime": 0, "vsize": 372, "size": 372}