{"hash": "bc4814e4392520a92d4831d8d0fe9d8e807579b4f82321be7e21ad76258ebd83", "blockhash": "0000000000000000000e13cef7c366c0283d82e591d1acd082e914b08063cdf1", "vout": [{"scriptPubKey": {"reqSigs": 1, "hex": "76a914443e86420926d2d7f31987c9fef29696a8d8296988ac", "addresses": ["17DqrKWNaWc8N7NixMzyNsmnEVpDcFZrTA"], "asm": "OP_DUP OP_HASH160 443e86420926d2d7f31987c9fef29696a8d82969 OP_EQUALVERIFY OP_CHECKSIG", "type": "pubkeyhash"}, "value": 0.0321514, "n": 0}, {"scriptPubKey": {"reqSigs": 1, "hex": "76a914071bc70770b322c3bf1fa21818c9578b4732b41488ac", "addresses": ["1eb1MZ8oUKRCxSnTU7KWNUGFhpACmniEg"], "asm": "OP_DUP OP_HASH160 071bc70770b322c3bf1fa21818c9578b4732b414 OP_EQUALVERIFY OP_CHECKSIG", "type": "pubkeyhash"}, "value": 0.03214352, "n": 1}, {"scriptPubKey": {"reqSigs": 1, "hex": "a914b264ff4baf28d4f04d8cb4a16a1ccfeabe1361b287", "addresses": ["3HxHC6qSqD9kHXvZx45jZn6wrPq5xmYneP"], "asm": "OP_HASH160 b264ff4baf28d4f04d8cb4a16a1ccfeabe1361b2 OP_EQUAL", "type": "scripthash"}, "value": 4.8095613, "n": 2}], "hex": "020000000001017b0a149cdf95c8ef257d8de8df8da312ae6bf80f69b7d3252fb26fcde95bac280100000017160014c7aae872a5137b395a1508e15d41efdc7abafce9feffffff03240f3100000000001976a914443e86420926d2d7f31987c9fef29696a8d8296988ac100c3100000000001976a914071bc70770b322c3bf1fa21818c9578b4732b41488ace2ceaa1c0000000017a914b264ff4baf28d4f04d8cb4a16a1ccfeabe1361b28702473044022002acb3b9504bd0f409b92b2827e684328c74dfae94200b0bc76c32e5d478658802200211a67cca7586e0a51b44baa39cf305612b7ef57eb04e1282d582eada6f1c7b01210285c601c1b15375217f3ec8e9462c20eb831f6d124181ad35b786c2a8678a863010490800", "vin": [{"txinwitness": ["3044022002acb3b9504bd0f409b92b2827e684328c74dfae94200b0bc76c32e5d478658802200211a67cca7586e0a51b44baa39cf305612b7ef57eb04e1282d582eada6f1c7b01", "0285c601c1b15375217f3ec8e9462c20eb831f6d124181ad35b786c2a8678a8630"], "sequence": 4294967294, "scriptSig": {"hex": "160014c7aae872a5137b395a1508e15d41efdc7abafce9", "asm": "0014c7aae872a5137b395a1508e15d41efdc7abafce9"}, "vout": 1, "txid": "28ac5be9cd6fb22f25d3b7690ff86bae12a38ddfe88d7d25efc895df9c140a7b"}], "txid": "8e0476c60b6611e4eb03a9ea293cf086521912023881fdc0024bd1d9422ee2e7", "blocktime": 1537871767, "version": 2, "confirmations": 11492, "time": 1537871767, "locktime": 542992, "vsize": 202, "size": 283}