{"hash": "8e0891fe96c919fc2bde1a83413f153396944a162aca63c635309a485b104c9f", "blockhash": "0000000000000000001cda96e906b7601b7a6fb1a3b62bca570a9e5d8f4b3de1", "vout": [{"scriptPubKey": {"reqSigs": 1, "hex": "76a914c34fbb5742c1054a022f2ed9184ebb8476a153f188ac", "addresses": ["1JoiHGdi8piizAaTczBvNK4fTXafTKBvX2"], "asm": "OP_DUP OP_HASH160 c34fbb5742c1054a022f2ed9184ebb8476a153f1 OP_EQUALVERIFY OP_CHECKSIG", "type": "pubkeyhash"}, "value": 0.0013857, "n": 0}, {"scriptPubKey": {"reqSigs": 1, "hex": "76a91411b744b62de87538b72757d0d14c25d030823d6f88ac", "addresses": ["12cg2ySaoNrHLTNxwwwkEZaivnNrHHawHX"], "asm": "OP_DUP OP_HASH160 11b744b62de87538b72757d0d14c25d030823d6f OP_EQUALVERIFY OP_CHECKSIG", "type": "pubkeyhash"}, "value": 0.01170851, "n": 1}], "hex": "0100000001a5f0123a0eaed7feac031b6ec955a841ff18953db6868ed0208e0415336e1cb4000000006a4730440220768e3687f85f44e5f149c6731d0b199be4df7e317c07406bd376287122c6694302205bc117ea52853569269dee1263078fc77b5174c7ad520365277480fb9ea6669001210208dbcd5732293432f4e0fed7af66d9e4caa57e68edc48775150755db4d618af0ffffffff024a1d0200000000001976a914c34fbb5742c1054a022f2ed9184ebb8476a153f188aca3dd1100000000001976a91411b744b62de87538b72757d0d14c25d030823d6f88ac00000000", "vin": [{"sequence": 4294967295, "scriptSig": {"hex": "4730440220768e3687f85f44e5f149c6731d0b199be4df7e317c07406bd376287122c6694302205bc117ea52853569269dee1263078fc77b5174c7ad520365277480fb9ea6669001210208dbcd5732293432f4e0fed7af66d9e4caa57e68edc48775150755db4d618af0", "asm": "30440220768e3687f85f44e5f149c6731d0b199be4df7e317c07406bd376287122c6694302205bc117ea52853569269dee1263078fc77b5174c7ad520365277480fb9ea66690[ALL] 0208dbcd5732293432f4e0fed7af66d9e4caa57e68edc48775150755db4d618af0"}, "vout": 0, "txid": "b41c6e3315048e20d08e86b63d9518ff41a855c96e1b03acfed7ae0e3a12f0a5"}], "txid": "8e0891fe96c919fc2bde1a83413f153396944a162aca63c635309a485b104c9f", "blocktime": 1537873282, "version": 1, "confirmations": 11485, "time": 1537873282, "locktime": 0, "vsize": 225, "size": 225}