{"hash": "8e0bdb416668fea81afc561641357909f2ccda48d829dd292a1a3a135df01930", "blockhash": "00000000000000000017f5eb5941039fbcee6240d03bc1f2f8e35350df66a1d8", "vout": [{"scriptPubKey": {"reqSigs": 1, "hex": "76a914e9eb1fc1e2ac6246f8ef7c9bbb65ef2f2c8bea7588ac", "addresses": ["1NKr7QKTCx1qHQpkhdx5vvyuAzdH8uETeL"], "asm": "OP_DUP OP_HASH160 e9eb1fc1e2ac6246f8ef7c9bbb65ef2f2c8bea75 OP_EQUALVERIFY OP_CHECKSIG", "type": "pubkeyhash"}, "value": 0.00061261, "n": 0}, {"scriptPubKey": {"reqSigs": 1, "hex": "76a914e7fcf942e0205fbc394e65b3a93467143ca1a58488ac", "addresses": ["1N9e9ETYKy36uK9c7hrVz23buER2A5fZxD"], "asm": "OP_DUP OP_HASH160 e7fcf942e0205fbc394e65b3a93467143ca1a584 OP_EQUALVERIFY OP_CHECKSIG", "type": "pubkeyhash"}, "value": 0.0046905, "n": 1}], "hex": "010000000162b1c37be820838cf20de171ae18187101dbd4aa889200f64d1f5666779817d0010000006a47304402201a0c3aff615553f127f3666a9985bfb019a1f22fe127200eef77a6ad4d1b56590220245f6ba77c4abc402d061fbfdab518dd4b1bfcfafaaf853105cda19ac81053a3012102a4bf81619f1e0f98043652ff6e61f5bfc7694a6024e5a4a3af065596e56a5325ffffffff024def0000000000001976a914e9eb1fc1e2ac6246f8ef7c9bbb65ef2f2c8bea7588ac3a280700000000001976a914e7fcf942e0205fbc394e65b3a93467143ca1a58488ac00000000", "vin": [{"sequence": 4294967295, "scriptSig": {"hex": "47304402201a0c3aff615553f127f3666a9985bfb019a1f22fe127200eef77a6ad4d1b56590220245f6ba77c4abc402d061fbfdab518dd4b1bfcfafaaf853105cda19ac81053a3012102a4bf81619f1e0f98043652ff6e61f5bfc7694a6024e5a4a3af065596e56a5325", "asm": "304402201a0c3aff615553f127f3666a9985bfb019a1f22fe127200eef77a6ad4d1b56590220245f6ba77c4abc402d061fbfdab518dd4b1bfcfafaaf853105cda19ac81053a3[ALL] 02a4bf81619f1e0f98043652ff6e61f5bfc7694a6024e5a4a3af065596e56a5325"}, "vout": 1, "txid": "d017987766561f4df6009288aad4db01711818ae71e10df28c8320e87bc3b162"}], "txid": "8e0bdb416668fea81afc561641357909f2ccda48d829dd292a1a3a135df01930", "blocktime": 1537874412, "version": 1, "confirmations": 11467, "time": 1537874412, "locktime": 0, "vsize": 225, "size": 225}