{"hash": "8e0dfcf2daea87015540e4363c79154ba3e12fc08c8f29c7ddf2771fb7ed6b5a", "blockhash": "0000000000000000000e13cef7c366c0283d82e591d1acd082e914b08063cdf1", "vout": [{"scriptPubKey": {"reqSigs": 1, "hex": "76a91481dbaf533487122f65895a1d51fcc90c2765b15488ac", "addresses": ["1CqdLieSTGRU2UkvCKAyKNTjCv4vEFWJHB"], "asm": "OP_DUP OP_HASH160 81dbaf533487122f65895a1d51fcc90c2765b154 OP_EQUALVERIFY OP_CHECKSIG", "type": "pubkeyhash"}, "value": 0.01562307, "n": 0}, {"scriptPubKey": {"reqSigs": 1, "hex": "76a91421b7691b1a4bf9f3dd890851285d680e33abc2f888ac", "addresses": ["145H1vNZr4ua6yZPP5yoYra7BqGzmPyzBR"], "asm": "OP_DUP OP_HASH160 21b7691b1a4bf9f3dd890851285d680e33abc2f8 OP_EQUALVERIFY OP_CHECKSIG", "type": "pubkeyhash"}, "value": 0.078276, "n": 1}], "hex": "0100000001b91c4c9742b17f35c37e7da640e673edd85a9bee7679126e2a8a38ac421a207c010000006b483045022100be63fb042c31ecc821e83df9d638a5f899e5f7acad1383d62b67e7ecbfcfa9310220347f1bb83c5149a20420a4b74359930738d10f40c228beb72c2704f788047296012103eedaa6e7a5c67b3e83f237775c6289386e4801fd681039067f28c8ac81ae21fdffffffff02c3d61700000000001976a91481dbaf533487122f65895a1d51fcc90c2765b15488ac90707700000000001976a91421b7691b1a4bf9f3dd890851285d680e33abc2f888ac00000000", "vin": [{"sequence": 4294967295, "scriptSig": {"hex": "483045022100be63fb042c31ecc821e83df9d638a5f899e5f7acad1383d62b67e7ecbfcfa9310220347f1bb83c5149a20420a4b74359930738d10f40c228beb72c2704f788047296012103eedaa6e7a5c67b3e83f237775c6289386e4801fd681039067f28c8ac81ae21fd", "asm": "3045022100be63fb042c31ecc821e83df9d638a5f899e5f7acad1383d62b67e7ecbfcfa9310220347f1bb83c5149a20420a4b74359930738d10f40c228beb72c2704f788047296[ALL] 03eedaa6e7a5c67b3e83f237775c6289386e4801fd681039067f28c8ac81ae21fd"}, "vout": 1, "txid": "7c201a42ac388a2a6e127976ee9b5ad8ed73e640a67d7ec3357fb142974c1cb9"}], "txid": "8e0dfcf2daea87015540e4363c79154ba3e12fc08c8f29c7ddf2771fb7ed6b5a", "blocktime": 1537871767, "version": 1, "confirmations": 11495, "time": 1537871767, "locktime": 0, "vsize": 226, "size": 226}