{"hash": "8a0a35a8869c2dc0b2af92e1c740bc07faa24c0e71b3e15621c19ae3835bb738", "blockhash": "00000000000000000017f5eb5941039fbcee6240d03bc1f2f8e35350df66a1d8", "vout": [{"scriptPubKey": {"reqSigs": 1, "hex": "76a9143312a6d65a0b77859918f4feaa07b6f51c29901888ac", "addresses": ["15f3oj9paJrLe6z5MBAXwymzoewpK2Tp7B"], "asm": "OP_DUP OP_HASH160 3312a6d65a0b77859918f4feaa07b6f51c299018 OP_EQUALVERIFY OP_CHECKSIG", "type": "pubkeyhash"}, "value": 0.00343804, "n": 0}, {"scriptPubKey": {"reqSigs": 1, "hex": "a914cfaabfe8c271f99a4364b5197ba50c6cddb7adb987", "addresses": ["3Ld4M9RPwEG3VeQbHcC1PsKUndQL7VYLZP"], "asm": "OP_HASH160 cfaabfe8c271f99a4364b5197ba50c6cddb7adb9 OP_EQUAL", "type": "scripthash"}, "value": 0.09870057, "n": 1}], "hex": "01000000000101474e2b73a072b9e0265ef4d2d543ad7ebc50b47e42ea3bb64ddb0d59ac1241c801000000232200202f7b4024602241b47d3306a6733d9889e4b6761d9f1cb82a18aa8b9ac4506e51ffffffff02fc3e0500000000001976a9143312a6d65a0b77859918f4feaa07b6f51c29901888ace99a96000000000017a914cfaabfe8c271f99a4364b5197ba50c6cddb7adb987040047304402206e4d7ea23ead66dfb0a9c0c97a9cfb3dc6509e53da64e1ede490f4bb6cc49ab102201a2a11b8a6f6e725334fe478c5f1214ca6b4359ef82bebca8d0c55a50b103625014730440220165f9256c730872809c78ee212191397ea991e4dcc996a9e3233285747e5ccb602202f202d462a9b04b34487fd302df882f4bdb9c2757947c9c5f80e158fe6d6171e0147522102973cd851fecff3a20f08377b072729f303801eee1b7678668338adcaec770ec221033e4af03ed09dbd8a417ba042650d5bd1db7f14f271a8f660974e3abf1fdfa4da52ae00000000", "vin": [{"txinwitness": ["", "304402206e4d7ea23ead66dfb0a9c0c97a9cfb3dc6509e53da64e1ede490f4bb6cc49ab102201a2a11b8a6f6e725334fe478c5f1214ca6b4359ef82bebca8d0c55a50b10362501", "30440220165f9256c730872809c78ee212191397ea991e4dcc996a9e3233285747e5ccb602202f202d462a9b04b34487fd302df882f4bdb9c2757947c9c5f80e158fe6d6171e01", "522102973cd851fecff3a20f08377b072729f303801eee1b7678668338adcaec770ec221033e4af03ed09dbd8a417ba042650d5bd1db7f14f271a8f660974e3abf1fdfa4da52ae"], "sequence": 4294967295, "scriptSig": {"hex": "2200202f7b4024602241b47d3306a6733d9889e4b6761d9f1cb82a18aa8b9ac4506e51", "asm": "00202f7b4024602241b47d3306a6733d9889e4b6761d9f1cb82a18aa8b9ac4506e51"}, "vout": 1, "txid": "c84112ac590ddb4db63bea427eb450bc7ead43d5d2f45e26e0b972a0732b4e47"}], "txid": "8e0ee73ee452693916e7bc936f39b2cdfa6336f4cab512311f8dec97858d89e2", "blocktime": 1537874412, "version": 1, "confirmations": 11467, "time": 1537874412, "locktime": 0, "vsize": 207, "size": 372}