{"hash": "d34a7c2e5d6f3fb45de94c44c0375c5768074c1957ad5bf88625008b6f19d5ae", "blockhash": "00000000000000000017f5eb5941039fbcee6240d03bc1f2f8e35350df66a1d8", "vout": [{"scriptPubKey": {"reqSigs": 1, "hex": "0014eb7f2762b664616cb207138e55c4a9fea37b073b", "addresses": ["bc1qadljwc4kv3skevs8zw89t39fl63hkpemmvfunf"], "asm": "0 eb7f2762b664616cb207138e55c4a9fea37b073b", "type": "witness_v0_keyhash"}, "value": 0.33156835, "n": 0}, {"scriptPubKey": {"reqSigs": 1, "hex": "76a91497b6741892222e507d55aac9da40f4dffcefea1688ac", "addresses": ["1EqBc4MUrsGNr5xRv2Lj6mDzCYioTEjvNf"], "asm": "OP_DUP OP_HASH160 97b6741892222e507d55aac9da40f4dffcefea16 OP_EQUALVERIFY OP_CHECKSIG", "type": "pubkeyhash"}, "value": 0.17554506, "n": 1}], "hex": "01000000000101b33d2bc5b62d815f9a082aeba663f7914aeb0fec6a09757d18d2b6613c5e37cd0000000000ffffffff02e3eef90100000000160014eb7f2762b664616cb207138e55c4a9fea37b073b4adc0b01000000001976a91497b6741892222e507d55aac9da40f4dffcefea1688ac02483045022100d7b17a99754fd4e517ca5c9f40ca6d8eb4e82a2a7d182dc01f4a06dc38dc4b6e02207296ee60e555601f258796ca1ef4b5b28c57e32acab26c2db83c9d3349d753f50121022d91c084cc383e94de2c2dab27e7049382640874fefcfb47b91eb533ddf7fcf000000000", "vin": [{"txinwitness": ["3045022100d7b17a99754fd4e517ca5c9f40ca6d8eb4e82a2a7d182dc01f4a06dc38dc4b6e02207296ee60e555601f258796ca1ef4b5b28c57e32acab26c2db83c9d3349d753f501", "022d91c084cc383e94de2c2dab27e7049382640874fefcfb47b91eb533ddf7fcf0"], "sequence": 4294967295, "scriptSig": {"hex": "", "asm": ""}, "vout": 0, "txid": "cd375e3c61b6d2187d75096aec0feb4a91f763a6eb2a089a5f812db6c52b3db3"}], "txid": "8e0fd5f766c19e90df5f7b19de3e7bf72c8a5ed8e6df882c1da355d356c27d9d", "blocktime": 1537874412, "version": 1, "confirmations": 11467, "time": 1537874412, "locktime": 0, "vsize": 144, "size": 226}