{"hash": "d55ed32cf4a20c0d66bab782265654677b6489388be27798f8b298104676b7ad", "blockhash": "00000000000000000017f5eb5941039fbcee6240d03bc1f2f8e35350df66a1d8", "vout": [{"scriptPubKey": {"reqSigs": 1, "hex": "a91410592c47824012d64bdb4ef4eccb01136a870ccd87", "addresses": ["33BTZTbW1eCnAvDErjtoec6YoKv5USFavD"], "asm": "OP_HASH160 10592c47824012d64bdb4ef4eccb01136a870ccd OP_EQUAL", "type": "scripthash"}, "value": 0.05135962, "n": 0}, {"scriptPubKey": {"reqSigs": 1, "hex": "76a914bb2fa60589f0f1c04feb2ec51e447706cd0f02ea88ac", "addresses": ["1J4kSYsz1amjJ3NuW83WQqqwhyEz2hnnNg"], "asm": "OP_DUP OP_HASH160 bb2fa60589f0f1c04feb2ec51e447706cd0f02ea OP_EQUALVERIFY OP_CHECKSIG", "type": "pubkeyhash"}, "value": 0.0066, "n": 1}], "hex": "02000000000101519adedb3d126c3d7f0393abe98ec6fabd6712fcb45982da962c1a20350febba00000000171600146e14210e46cf3784bf6d7771b0d8b0b677ff6280feffffff025a5e4e000000000017a91410592c47824012d64bdb4ef4eccb01136a870ccd8720120a00000000001976a914bb2fa60589f0f1c04feb2ec51e447706cd0f02ea88ac024730440220745a09f7bcb4ffad4dc60541e11921287db93aa6767828cd5dfad23d74558707022043dcfec4fbe08069a7232269a2a18f80cbcb57d9c241dad4bfa1d5eeba0f3f20012102750dc16100b821388f31b01217c9815eb42766acf59a58bdd52b347e6247281c15490800", "vin": [{"txinwitness": ["30440220745a09f7bcb4ffad4dc60541e11921287db93aa6767828cd5dfad23d74558707022043dcfec4fbe08069a7232269a2a18f80cbcb57d9c241dad4bfa1d5eeba0f3f2001", "02750dc16100b821388f31b01217c9815eb42766acf59a58bdd52b347e6247281c"], "sequence": 4294967294, "scriptSig": {"hex": "1600146e14210e46cf3784bf6d7771b0d8b0b677ff6280", "asm": "00146e14210e46cf3784bf6d7771b0d8b0b677ff6280"}, "vout": 0, "txid": "baeb0f35201a2c96da8259b4fc1267bdfac68ee9ab93037f3d6c123ddbde9a51"}], "txid": "8e0f17be385d209a1887e0bee96a3a7bfe162af89f1807ca1e7a27d8b9e44a90", "blocktime": 1537874412, "version": 2, "confirmations": 11468, "time": 1537874412, "locktime": 542997, "vsize": 168, "size": 249}