{"hash": "8e1000b02b93a453dae677439d39f03000ceadff8bc0e176f1ba64313c6f3074", "blockhash": "00000000000000000017f5eb5941039fbcee6240d03bc1f2f8e35350df66a1d8", "vout": [{"scriptPubKey": {"reqSigs": 1, "hex": "76a914fdfdb043be8fa563a8797718f86dcdf2648e1a6588ac", "addresses": ["1Q9ys83Vu95jMPvumCopn4xVMeaZZjv5ob"], "asm": "OP_DUP OP_HASH160 fdfdb043be8fa563a8797718f86dcdf2648e1a65 OP_EQUALVERIFY OP_CHECKSIG", "type": "pubkeyhash"}, "value": 0.0015177, "n": 0}, {"scriptPubKey": {"type": "nulldata", "hex": "6a146f6d6e69000000000000001f00000017309f6400", "asm": "OP_RETURN 6f6d6e69000000000000001f00000017309f6400"}, "value": 0.0, "n": 1}, {"scriptPubKey": {"reqSigs": 1, "hex": "76a91415040dbbec374bfeeead298473993d72b719fc5888ac", "addresses": ["12v83gVWmdjScT1PCCCiyzMYueJHBKfTjA"], "asm": "OP_DUP OP_HASH160 15040dbbec374bfeeead298473993d72b719fc58 OP_EQUALVERIFY OP_CHECKSIG", "type": "pubkeyhash"}, "value": 5.46e-06, "n": 2}], "hex": "0100000002b6cbcb486b786839d2b73eb5f561491a69300ed18eb50b9983eef4404328806c000000006a473044022067055afa440b0da8fdea0b8d5168dc2fe78f8cd3b0668c9b665c17b7bb4dce6e022018ddb8fc3fa0fc5427cc2281784a23970dd474625784cc297b48614774d273cf012102553f81e1f1f1454ff5b1c2939a810145401301f7b45a5d205930b072bbf4d35affffffffe907e84d7b41d6cf24fce53769b24af2208cb0096703fb11aa9b4d3b4a86f45b000000006a47304402204282748bfcb795e2a774083b47ca5d449ea946fa6c7bb058de59372bd3f0572d0220295c535becbd55295d5e1ce474e4253db103a1a8d861d748ec28c922e538eee6012102553f81e1f1f1454ff5b1c2939a810145401301f7b45a5d205930b072bbf4d35affffffff03da500200000000001976a914fdfdb043be8fa563a8797718f86dcdf2648e1a6588ac0000000000000000166a146f6d6e69000000000000001f00000017309f640022020000000000001976a91415040dbbec374bfeeead298473993d72b719fc5888ac00000000", "vin": [{"sequence": 4294967295, "scriptSig": {"hex": "473044022067055afa440b0da8fdea0b8d5168dc2fe78f8cd3b0668c9b665c17b7bb4dce6e022018ddb8fc3fa0fc5427cc2281784a23970dd474625784cc297b48614774d273cf012102553f81e1f1f1454ff5b1c2939a810145401301f7b45a5d205930b072bbf4d35a", "asm": "3044022067055afa440b0da8fdea0b8d5168dc2fe78f8cd3b0668c9b665c17b7bb4dce6e022018ddb8fc3fa0fc5427cc2281784a23970dd474625784cc297b48614774d273cf[ALL] 02553f81e1f1f1454ff5b1c2939a810145401301f7b45a5d205930b072bbf4d35a"}, "vout": 0, "txid": "6c80284340f4ee83990bb58ed10e30691a4961f5b53eb7d23968786b48cbcbb6"}, {"sequence": 4294967295, "scriptSig": {"hex": "47304402204282748bfcb795e2a774083b47ca5d449ea946fa6c7bb058de59372bd3f0572d0220295c535becbd55295d5e1ce474e4253db103a1a8d861d748ec28c922e538eee6012102553f81e1f1f1454ff5b1c2939a810145401301f7b45a5d205930b072bbf4d35a", "asm": "304402204282748bfcb795e2a774083b47ca5d449ea946fa6c7bb058de59372bd3f0572d0220295c535becbd55295d5e1ce474e4253db103a1a8d861d748ec28c922e538eee6[ALL] 02553f81e1f1f1454ff5b1c2939a810145401301f7b45a5d205930b072bbf4d35a"}, "vout": 0, "txid": "5bf4864a3b4d9baa11fb036709b08c20f24ab26937e5fc24cfd6417b4de807e9"}], "txid": "8e1000b02b93a453dae677439d39f03000ceadff8bc0e176f1ba64313c6f3074", "blocktime": 1537874412, "version": 1, "confirmations": 11467, "time": 1537874412, "locktime": 0, "vsize": 403, "size": 403}