{"hash": "8e14e2145b8584ac81ee3f5c1ce34a3f258b370ed9d5450bc83d2835b7b34900", "blockhash": "0000000000000000001cda96e906b7601b7a6fb1a3b62bca570a9e5d8f4b3de1", "vout": [{"scriptPubKey": {"reqSigs": 1, "hex": "a9145c25ef93e2a1b82f9b56dabd47d591f0124fc33287", "addresses": ["3A6FY2BhvmZ3auzQyVbW1MrYeJLjNjdrGk"], "asm": "OP_HASH160 5c25ef93e2a1b82f9b56dabd47d591f0124fc332 OP_EQUAL", "type": "scripthash"}, "value": 0.00019, "n": 0}, {"scriptPubKey": {"reqSigs": 1, "hex": "76a914aec9fcd9af4434ef248c2168f8dde78f8e197b8188ac", "addresses": ["1GwCYjKgcto1stwiAPLwWPAvx5Ngz9EpET"], "asm": "OP_DUP OP_HASH160 aec9fcd9af4434ef248c2168f8dde78f8e197b81 OP_EQUALVERIFY OP_CHECKSIG", "type": "pubkeyhash"}, "value": 0.00178496, "n": 1}], "hex": "010000000196b0e37cd400de2406273a315645b49b234dd067b41827f45f30d984dd4d50ce010000006b483045022100ac8459802cfe1aaa53a2debe3fe5951ecc84bfd8ec169d11407c892d6bcdc1ce022005c4515b8390a5f39e4598d0f8c006037c0ffd653c7ac63ac0256309287e236101210225d70ea8d6b4202d8e5bb479a7b1793b106df5228a292f7a2ab0b180c1253261ffffffff02384a00000000000017a9145c25ef93e2a1b82f9b56dabd47d591f0124fc3328740b90200000000001976a914aec9fcd9af4434ef248c2168f8dde78f8e197b8188ac00000000", "vin": [{"sequence": 4294967295, "scriptSig": {"hex": "483045022100ac8459802cfe1aaa53a2debe3fe5951ecc84bfd8ec169d11407c892d6bcdc1ce022005c4515b8390a5f39e4598d0f8c006037c0ffd653c7ac63ac0256309287e236101210225d70ea8d6b4202d8e5bb479a7b1793b106df5228a292f7a2ab0b180c1253261", "asm": "3045022100ac8459802cfe1aaa53a2debe3fe5951ecc84bfd8ec169d11407c892d6bcdc1ce022005c4515b8390a5f39e4598d0f8c006037c0ffd653c7ac63ac0256309287e2361[ALL] 0225d70ea8d6b4202d8e5bb479a7b1793b106df5228a292f7a2ab0b180c1253261"}, "vout": 1, "txid": "ce504ddd84d9305ff42718b467d04d239bb44556313a270624de00d47ce3b096"}], "txid": "8e14e2145b8584ac81ee3f5c1ce34a3f258b370ed9d5450bc83d2835b7b34900", "blocktime": 1537873282, "version": 1, "confirmations": 11484, "time": 1537873282, "locktime": 0, "vsize": 224, "size": 224}