{"hash": "8e16124179da9fa8cd33af3b55d0782b1e0e8a01c4064a59a4e6e9fa93d3655b", "blockhash": "0000000000000000000dcc0f55137456b1a82d3642486a52398922ac4d620174", "vout": [{"scriptPubKey": {"reqSigs": 1, "hex": "76a9140abc597b27f7fb31c6536092a4068904fd7fc91e88ac", "addresses": ["1ymPg4W3G1j7MnaGU3W5Xzyq8nQWbTJ9V"], "asm": "OP_DUP OP_HASH160 0abc597b27f7fb31c6536092a4068904fd7fc91e OP_EQUALVERIFY OP_CHECKSIG", "type": "pubkeyhash"}, "value": 0.00646587, "n": 0}, {"scriptPubKey": {"type": "nulldata", "hex": "6a4c50000077780001218fe0c131c9cb554ebcc0f7bcbefa6b8351586b4e86aeaeacb577c031fc46b318260ec39ad45be181608e5683a85baa099c06143e7c6f71c4491d100759d4ba30d2c37bb011d97e02cf", "asm": "OP_RETURN 000077780001218fe0c131c9cb554ebcc0f7bcbefa6b8351586b4e86aeaeacb577c031fc46b318260ec39ad45be181608e5683a85baa099c06143e7c6f71c4491d100759d4ba30d2c37bb011d97e02cf"}, "value": 0.0, "n": 1}], "hex": "0100000001997462142fabc7df0a92e9de5f1ef20270ce424b849f705b958f54a475cf215f000000006a47304402202d3e2dcd1f07617ad4cf9b7e1622d617d9e4eb6bb3e3fc82dfc6302d9468d9d902202821ed7c4939dad3360da1ffa7e0cd6e29af2848d079a3b3c5d0b2952aa3de28012102b7b6332dd53d3e6f4a2bca3f135f66c484f0f29b4feed138b67e32ae1e0d51e1ffffffff02bbdd0900000000001976a9140abc597b27f7fb31c6536092a4068904fd7fc91e88ac0000000000000000536a4c50000077780001218fe0c131c9cb554ebcc0f7bcbefa6b8351586b4e86aeaeacb577c031fc46b318260ec39ad45be181608e5683a85baa099c06143e7c6f71c4491d100759d4ba30d2c37bb011d97e02cf00000000", "vin": [{"sequence": 4294967295, "scriptSig": {"hex": "47304402202d3e2dcd1f07617ad4cf9b7e1622d617d9e4eb6bb3e3fc82dfc6302d9468d9d902202821ed7c4939dad3360da1ffa7e0cd6e29af2848d079a3b3c5d0b2952aa3de28012102b7b6332dd53d3e6f4a2bca3f135f66c484f0f29b4feed138b67e32ae1e0d51e1", "asm": "304402202d3e2dcd1f07617ad4cf9b7e1622d617d9e4eb6bb3e3fc82dfc6302d9468d9d902202821ed7c4939dad3360da1ffa7e0cd6e29af2848d079a3b3c5d0b2952aa3de28[ALL] 02b7b6332dd53d3e6f4a2bca3f135f66c484f0f29b4feed138b67e32ae1e0d51e1"}, "vout": 0, "txid": "5f21cf75a4548f955b709f844b42ce7002f21e5fdee9920adfc7ab2f14627499"}], "txid": "8e16124179da9fa8cd33af3b55d0782b1e0e8a01c4064a59a4e6e9fa93d3655b", "blocktime": 1537870268, "version": 1, "confirmations": 11518, "time": 1537870268, "locktime": 0, "vsize": 283, "size": 283}