{"hash": "e02f76e3f463bd091cd9bae90473de9002fd154190b0756433382dbec6b70687", "blockhash": "0000000000000000000e13cef7c366c0283d82e591d1acd082e914b08063cdf1", "vout": [{"scriptPubKey": {"reqSigs": 1, "hex": "76a9146135256e281b761f89aa8575fe7fbab3740b444c88ac", "addresses": ["19rzDGizmsJVWsnzNNq6XEHsfe9k1j9ev1"], "asm": "OP_DUP OP_HASH160 6135256e281b761f89aa8575fe7fbab3740b444c OP_EQUALVERIFY OP_CHECKSIG", "type": "pubkeyhash"}, "value": 0.001579, "n": 0}, {"scriptPubKey": {"reqSigs": 1, "hex": "a91451c59d224e2c948268c9832578b22218c688b2b887", "addresses": ["399PPXgmaPP1ZUVeqKtvnfQtwz1HQkonnC"], "asm": "OP_HASH160 51c59d224e2c948268c9832578b22218c688b2b8 OP_EQUAL", "type": "scripthash"}, "value": 0.100625, "n": 1}], "hex": "01000000000101096398d6b3c21315a4a1a95ca3826c82e94733d8b5242cf4fcc45bed2c12aa010000000023220020487345bb8cbbff32d51aec8acbfa4af5bd1e4f67058461c709e087b1ddf6a958ffffffff02cc680200000000001976a9146135256e281b761f89aa8575fe7fbab3740b444c88aca48a99000000000017a91451c59d224e2c948268c9832578b22218c688b2b88704004730440220779b309a22c5fe652d81ac2242555dc34dd848ba6d9693c2b4fb715a545e495f02207aed82fe2155dba3757fe8d521e7fdc9e56a53cd6b37d00b9960eb41bafdbe7c0147304402200a0334e7a389b9e51dd2c03f14c7a3ef10dc236e229c80e39f3b640acfa8271102206ef2328bd2aadad66644ce8d01cd168fdf1946ea513a5c96350705d8fc3eccf901695221028287ae91f1d304cbabe9bc9705e2a5511ece0ee579145f6529adf03ed54b8c212103c491bfb94fc3e9bea5405685d86c1ae4c935fcae812d845dd22f100f433509d921022d37d64ec5b5fabc47590e46816e6a6757c1163c3250e88e7a635b2874d27c8053ae00000000", "vin": [{"txinwitness": ["", "30440220779b309a22c5fe652d81ac2242555dc34dd848ba6d9693c2b4fb715a545e495f02207aed82fe2155dba3757fe8d521e7fdc9e56a53cd6b37d00b9960eb41bafdbe7c01", "304402200a0334e7a389b9e51dd2c03f14c7a3ef10dc236e229c80e39f3b640acfa8271102206ef2328bd2aadad66644ce8d01cd168fdf1946ea513a5c96350705d8fc3eccf901", "5221028287ae91f1d304cbabe9bc9705e2a5511ece0ee579145f6529adf03ed54b8c212103c491bfb94fc3e9bea5405685d86c1ae4c935fcae812d845dd22f100f433509d921022d37d64ec5b5fabc47590e46816e6a6757c1163c3250e88e7a635b2874d27c8053ae"], "sequence": 4294967295, "scriptSig": {"hex": "220020487345bb8cbbff32d51aec8acbfa4af5bd1e4f67058461c709e087b1ddf6a958", "asm": "0020487345bb8cbbff32d51aec8acbfa4af5bd1e4f67058461c709e087b1ddf6a958"}, "vout": 0, "txid": "01aa122ced5bc4fcf42c24b5d83347e9826c82a35ca9a1a41513c2b3d6986309"}], "txid": "8e18ba814753b33223e67dde722851015b103d2e3941cc7bed6fdbb92eb44e73", "blocktime": 1537871767, "version": 1, "confirmations": 11495, "time": 1537871767, "locktime": 0, "vsize": 216, "size": 406}