{"hash": "8e22ca634e935fc372d15c34705ec62de3d70c6bec48ad7f65b090dfaf90dd6e", "blockhash": "0000000000000000000e13cef7c366c0283d82e591d1acd082e914b08063cdf1", "vout": [{"scriptPubKey": {"reqSigs": 1, "hex": "a9143e6f15908582f42917ec31e39bf8722fc9d5db3f87", "addresses": ["37P8thrtDXb6Di5E7f4FL3bpzum3fhUvT7"], "asm": "OP_HASH160 3e6f15908582f42917ec31e39bf8722fc9d5db3f OP_EQUAL", "type": "scripthash"}, "value": 0.0002, "n": 0}, {"scriptPubKey": {"reqSigs": 1, "hex": "76a9141bd99f87dbf5c1bab319ffaa366b9b32d05814b488ac", "addresses": ["13YFwuKnG9qDZAzyve8xztGAgPxwZYwb5X"], "asm": "OP_DUP OP_HASH160 1bd99f87dbf5c1bab319ffaa366b9b32d05814b4 OP_EQUALVERIFY OP_CHECKSIG", "type": "pubkeyhash"}, "value": 0.01016448, "n": 1}], "hex": "0100000001e6799abd4f9d6f2b4273bb0865aa5c514704d2ffc3dfffeaefe72f6d730c1b9e010000006a47304402200cec4b667eca3fdfa65809d18c8b4030ee971a874515d3e4f4ec2452b74cfca402204f29f02a2f5d20e5c8d4bfda7319f69705052efb9143b4453cdb1bb42b19c8460121031b4f89a4917d60fe2708e1cb098f69c34497cfa89cfb4b58a90ccc1d40c8fdd9ffffffff02204e00000000000017a9143e6f15908582f42917ec31e39bf8722fc9d5db3f8780820f00000000001976a9141bd99f87dbf5c1bab319ffaa366b9b32d05814b488ac00000000", "vin": [{"sequence": 4294967295, "scriptSig": {"hex": "47304402200cec4b667eca3fdfa65809d18c8b4030ee971a874515d3e4f4ec2452b74cfca402204f29f02a2f5d20e5c8d4bfda7319f69705052efb9143b4453cdb1bb42b19c8460121031b4f89a4917d60fe2708e1cb098f69c34497cfa89cfb4b58a90ccc1d40c8fdd9", "asm": "304402200cec4b667eca3fdfa65809d18c8b4030ee971a874515d3e4f4ec2452b74cfca402204f29f02a2f5d20e5c8d4bfda7319f69705052efb9143b4453cdb1bb42b19c846[ALL] 031b4f89a4917d60fe2708e1cb098f69c34497cfa89cfb4b58a90ccc1d40c8fdd9"}, "vout": 1, "txid": "9e1b0c736d2fe7efeaffdfc3ffd20447515caa6508bb73422b6f9d4fbd9a79e6"}], "txid": "8e22ca634e935fc372d15c34705ec62de3d70c6bec48ad7f65b090dfaf90dd6e", "blocktime": 1537871767, "version": 1, "confirmations": 11490, "time": 1537871767, "locktime": 0, "vsize": 223, "size": 223}