{"hash": "8e2667e8b984e36439bdf1692ecf3bfba5071d5a9db9d98f2cbd7f615c7632e3", "blockhash": "00000000000000000018f53835495a110e01622372bf6ae95dc86f2b0ab887b0", "vout": [{"scriptPubKey": {"reqSigs": 1, "hex": "76a914f3f7510273d5b095568f2146090a512f608209b188ac", "addresses": ["1PEyUTq2KqzBVryx3QDn33THnQ5kLUaqfn"], "asm": "OP_DUP OP_HASH160 f3f7510273d5b095568f2146090a512f608209b1 OP_EQUALVERIFY OP_CHECKSIG", "type": "pubkeyhash"}, "value": 0.01593036, "n": 0}, {"scriptPubKey": {"reqSigs": 1, "hex": "76a91481172d4959350cb0618093b58cd011b0cee6df1e88ac", "addresses": ["1CmZw77Zi3tYqfrhrR7bwHJffzQJjXyCgg"], "asm": "OP_DUP OP_HASH160 81172d4959350cb0618093b58cd011b0cee6df1e OP_EQUALVERIFY OP_CHECKSIG", "type": "pubkeyhash"}, "value": 0.25551082, "n": 1}], "hex": "01000000019da718ad4f8fb552ef7f52d0eda826e3bc243c6cb11f63ac61ef13b9bef25f89000000006b483045022100f16efbf726940c782db4a0676de9b9d2dcd4f41a1773abaebd640c05a0734afe02202b240c8b199ffa4862ad1de0a8fbaf9320656106962ee8e3f0c7e942aec3760e012103c2c1056f24243cf110fe63045dadd34508db1194a9b662529ecf386002bbbf9effffffff02cc4e1800000000001976a914f3f7510273d5b095568f2146090a512f608209b188aceae08501000000001976a91481172d4959350cb0618093b58cd011b0cee6df1e88ac00000000", "vin": [{"sequence": 4294967295, "scriptSig": {"hex": "483045022100f16efbf726940c782db4a0676de9b9d2dcd4f41a1773abaebd640c05a0734afe02202b240c8b199ffa4862ad1de0a8fbaf9320656106962ee8e3f0c7e942aec3760e012103c2c1056f24243cf110fe63045dadd34508db1194a9b662529ecf386002bbbf9e", "asm": "3045022100f16efbf726940c782db4a0676de9b9d2dcd4f41a1773abaebd640c05a0734afe02202b240c8b199ffa4862ad1de0a8fbaf9320656106962ee8e3f0c7e942aec3760e[ALL] 03c2c1056f24243cf110fe63045dadd34508db1194a9b662529ecf386002bbbf9e"}, "vout": 0, "txid": "895ff2beb913ef61ac631fb16c3c24bce326a8edd0527fef52b58f4fad18a79d"}], "txid": "8e2667e8b984e36439bdf1692ecf3bfba5071d5a9db9d98f2cbd7f615c7632e3", "blocktime": 1537870928, "version": 1, "confirmations": 11512, "time": 1537870928, "locktime": 0, "vsize": 226, "size": 226}