{"hash": "52aee080b2ff35b37961b44f3f4eb58c78fb051fc3abc805078b6212b1fb914f", "blockhash": "0000000000000000000dcc0f55137456b1a82d3642486a52398922ac4d620174", "vout": [{"scriptPubKey": {"reqSigs": 1, "hex": "a914f006d3c7a9f2fef3fd0e9a88e7927b1f32983fef87", "addresses": ["3PaAGx3H2ymv5oXpESQ3NFavsHHd9TVUmL"], "asm": "OP_HASH160 f006d3c7a9f2fef3fd0e9a88e7927b1f32983fef OP_EQUAL", "type": "scripthash"}, "value": 1.1995, "n": 0}, {"scriptPubKey": {"reqSigs": 1, "hex": "a9143a7cea0d6392b4f5ac49e1df6f383fc6f76cb7bd87", "addresses": ["372Gks9EHqPspUb8yUdGa8skMa3bWwPoci"], "asm": "OP_HASH160 3a7cea0d6392b4f5ac49e1df6f383fc6f76cb7bd OP_EQUAL", "type": "scripthash"}, "value": 18.0758137, "n": 1}, {"scriptPubKey": {"reqSigs": 1, "hex": "a91451dafbba4d9e5a144298a190cd703761179e33f087", "addresses": ["399pzJtYa2cfPzRa8KzqDPkdv7seRFNL62"], "asm": "OP_HASH160 51dafbba4d9e5a144298a190cd703761179e33f0 OP_EQUAL", "type": "scripthash"}, "value": 0.00208333, "n": 2}], "hex": "020000000001011cbec81fc4b0c01e8aea57a23c8a400d06ac7a350b3f12b6ca4a62bbb0c8aee300000000171600141585891cbe66ca2a4b539f517fdcd0534d8219d6feffffff03b04a26070000000017a914f006d3c7a9f2fef3fd0e9a88e7927b1f32983fef87ba80bd6b0000000017a9143a7cea0d6392b4f5ac49e1df6f383fc6f76cb7bd87cd2d03000000000017a91451dafbba4d9e5a144298a190cd703761179e33f0870247304402201f2f9bc0fdbfa5ddd1ee62b5bc9a7c7d822a2d87bbd0d0343b067606a7eeb35502204d7b34c6cfcebadb698a2dce1c2a2d3aa2b2c4a238ff6493476dd92d46a1d67c012102eafabf98fc7a9af06c018759527f2bce1e1fd271caa1bdffaf38bcee3018e9e00c490800", "vin": [{"txinwitness": ["304402201f2f9bc0fdbfa5ddd1ee62b5bc9a7c7d822a2d87bbd0d0343b067606a7eeb35502204d7b34c6cfcebadb698a2dce1c2a2d3aa2b2c4a238ff6493476dd92d46a1d67c01", "02eafabf98fc7a9af06c018759527f2bce1e1fd271caa1bdffaf38bcee3018e9e0"], "sequence": 4294967294, "scriptSig": {"hex": "1600141585891cbe66ca2a4b539f517fdcd0534d8219d6", "asm": "00141585891cbe66ca2a4b539f517fdcd0534d8219d6"}, "vout": 0, "txid": "e3aec8b0bb624acab6123f0b357aac060d408a3ca257ea8a1ec0b0c41fc8be1c"}], "txid": "8e2ac3e955a224fc211bf471c8a15b954eeb09fdf26657bb66653e5815b72dce", "blocktime": 1537870268, "version": 2, "confirmations": 11516, "time": 1537870268, "locktime": 542988, "vsize": 198, "size": 279}