{"hash": "8e32edfabc12c8422b85154d5a7d23baf3bae249a76ae0557d66d9f1256b2152", "blockhash": "0000000000000000001f0ddff1eddb255c1121bcd4da4f1bc9a0da00cae72433", "vout": [{"scriptPubKey": {"type": "nulldata", "hex": "6a4c50000077a70001bce166cdd5c3a8a548e45712af6c953dd567cf27e7e3ef3236678a62509738897a2b0c6b1d23b3efafcc8f3883695baa0f96061395acacf5c719bc9a9526289ac0f6612cd74e33776ee4", "asm": "OP_RETURN 000077a70001bce166cdd5c3a8a548e45712af6c953dd567cf27e7e3ef3236678a62509738897a2b0c6b1d23b3efafcc8f3883695baa0f96061395acacf5c719bc9a9526289ac0f6612cd74e33776ee4"}, "value": 0.0, "n": 0}, {"scriptPubKey": {"reqSigs": 1, "hex": "76a91470c7a439c6ebb736b2c16dddb5e4514a4d0db62488ac", "addresses": ["1BHKqpZhuAW7LtUrT9Cw7EZdiFkd1jY54h"], "asm": "OP_DUP OP_HASH160 70c7a439c6ebb736b2c16dddb5e4514a4d0db624 OP_EQUALVERIFY OP_CHECKSIG", "type": "pubkeyhash"}, "value": 0.00119304, "n": 1}], "hex": "0100000001511f42ad5d121a68c267440e649174c9dbe02ab033aa16382017b1eda87ea73d010000006a47304402207125217cd075d4487b9579fbad05b67c6389d51e5037365a045aeb54d521c89f02204deef84d730fe3b808060cb01fb8af35b8d63ab67c8d8ab9e048b3d52dfee8e90121025bacb448e524cd80cac078bfbc8cda8b1a986bbe0de1987b36300743957e0b27ffffffff020000000000000000536a4c50000077a70001bce166cdd5c3a8a548e45712af6c953dd567cf27e7e3ef3236678a62509738897a2b0c6b1d23b3efafcc8f3883695baa0f96061395acacf5c719bc9a9526289ac0f6612cd74e33776ee408d20100000000001976a91470c7a439c6ebb736b2c16dddb5e4514a4d0db62488ac00000000", "vin": [{"sequence": 4294967295, "scriptSig": {"hex": "47304402207125217cd075d4487b9579fbad05b67c6389d51e5037365a045aeb54d521c89f02204deef84d730fe3b808060cb01fb8af35b8d63ab67c8d8ab9e048b3d52dfee8e90121025bacb448e524cd80cac078bfbc8cda8b1a986bbe0de1987b36300743957e0b27", "asm": "304402207125217cd075d4487b9579fbad05b67c6389d51e5037365a045aeb54d521c89f02204deef84d730fe3b808060cb01fb8af35b8d63ab67c8d8ab9e048b3d52dfee8e9[ALL] 025bacb448e524cd80cac078bfbc8cda8b1a986bbe0de1987b36300743957e0b27"}, "vout": 1, "txid": "3da77ea8edb117203816aa33b02ae0dbc97491640e4467c2681a125dad421f51"}], "txid": "8e32edfabc12c8422b85154d5a7d23baf3bae249a76ae0557d66d9f1256b2152", "blocktime": 1537872018, "version": 1, "confirmations": 11489, "time": 1537872018, "locktime": 0, "vsize": 283, "size": 283}