{"hash": "8e3281f6548213f0d1ff7f77bf8cfaed3427b1657bf60567c0ddccd2f1c77372", "blockhash": "0000000000000000000e13cef7c366c0283d82e591d1acd082e914b08063cdf1", "vout": [{"scriptPubKey": {"reqSigs": 1, "hex": "a91490e36ab7a6d427dbb263ccca22206e008d9d21dd87", "addresses": ["3Eu7fNJbBesPxuB2Hn7TdgNVSNcBdtgqhg"], "asm": "OP_HASH160 90e36ab7a6d427dbb263ccca22206e008d9d21dd OP_EQUAL", "type": "scripthash"}, "value": 0.002, "n": 0}, {"scriptPubKey": {"reqSigs": 1, "hex": "76a91400d99f4abbb34b6a68a68699be695d35d065f04b88ac", "addresses": ["115VhfACdKxxThakDbZboVEgSr9FMGEZUX"], "asm": "OP_DUP OP_HASH160 00d99f4abbb34b6a68a68699be695d35d065f04b OP_EQUALVERIFY OP_CHECKSIG", "type": "pubkeyhash"}, "value": 0.04038474, "n": 1}], "hex": "0100000001dacc0bb8f3d16c2575e8db03ede8d5063c9df7c96c156f6e26f8848d00a28d57010000006b48304502210087cb9393bdc41b31b32c3e912f05bf180c356d1f758460337b9549819e20b4b60220519bc70c8c6fa703f1c2d65154dad63ef51ab98ee62432e542be361f205db96901210377c63400bcb9585a757be7b99cc53ab1ae44c0a90c22bac1052814921361b0c4ffffffff02400d03000000000017a91490e36ab7a6d427dbb263ccca22206e008d9d21dd874a9f3d00000000001976a91400d99f4abbb34b6a68a68699be695d35d065f04b88ac00000000", "vin": [{"sequence": 4294967295, "scriptSig": {"hex": "48304502210087cb9393bdc41b31b32c3e912f05bf180c356d1f758460337b9549819e20b4b60220519bc70c8c6fa703f1c2d65154dad63ef51ab98ee62432e542be361f205db96901210377c63400bcb9585a757be7b99cc53ab1ae44c0a90c22bac1052814921361b0c4", "asm": "304502210087cb9393bdc41b31b32c3e912f05bf180c356d1f758460337b9549819e20b4b60220519bc70c8c6fa703f1c2d65154dad63ef51ab98ee62432e542be361f205db969[ALL] 0377c63400bcb9585a757be7b99cc53ab1ae44c0a90c22bac1052814921361b0c4"}, "vout": 1, "txid": "578da2008d84f8266e6f156cc9f79d3c06d5e8ed03dbe875256cd1f3b80bccda"}], "txid": "8e3281f6548213f0d1ff7f77bf8cfaed3427b1657bf60567c0ddccd2f1c77372", "blocktime": 1537871767, "version": 1, "confirmations": 11492, "time": 1537871767, "locktime": 0, "vsize": 224, "size": 224}