{"hash": "8e34f35da49589fa6485d4c3ec4c06ada6e60425ff5a227ec3002394b09d48cc", "blockhash": "00000000000000000018f53835495a110e01622372bf6ae95dc86f2b0ab887b0", "vout": [{"scriptPubKey": {"reqSigs": 1, "hex": "a914daa6c303d7bce21d9944736e68585e931711bd1e87", "addresses": ["3Md91B4HpafXizyHuFbvXgrmY4a6ceGNQU"], "asm": "OP_HASH160 daa6c303d7bce21d9944736e68585e931711bd1e OP_EQUAL", "type": "scripthash"}, "value": 0.0048, "n": 0}, {"scriptPubKey": {"reqSigs": 1, "hex": "76a91460e6ade75c0d0f2345cb88755153bb1dce4e591d88ac", "addresses": ["19qNDJ8J8NqKYUT8B6opGCfkYsTEFYUpo1"], "asm": "OP_DUP OP_HASH160 60e6ade75c0d0f2345cb88755153bb1dce4e591d OP_EQUALVERIFY OP_CHECKSIG", "type": "pubkeyhash"}, "value": 0.11399141, "n": 1}], "hex": "010000000142519d4632a7c7273f2af045824aee54ab39c2fff86392d74a9ccf17740754f4010000006a47304402200239a0929f3242815271ce29fc831a5297810cb72961d5a6d01e08165a48d81d022026ed88749ca823ee85c7f9d545c4828794e71083ff4496cde48517372cfe296f0121032a9ea43bc4e6ed0bf6012de8eddafa7a664cfc394c608b3a05fc3002c9fd4be4ffffffff02005307000000000017a914daa6c303d7bce21d9944736e68585e931711bd1e87e5efad00000000001976a91460e6ade75c0d0f2345cb88755153bb1dce4e591d88ac00000000", "vin": [{"sequence": 4294967295, "scriptSig": {"hex": "47304402200239a0929f3242815271ce29fc831a5297810cb72961d5a6d01e08165a48d81d022026ed88749ca823ee85c7f9d545c4828794e71083ff4496cde48517372cfe296f0121032a9ea43bc4e6ed0bf6012de8eddafa7a664cfc394c608b3a05fc3002c9fd4be4", "asm": "304402200239a0929f3242815271ce29fc831a5297810cb72961d5a6d01e08165a48d81d022026ed88749ca823ee85c7f9d545c4828794e71083ff4496cde48517372cfe296f[ALL] 032a9ea43bc4e6ed0bf6012de8eddafa7a664cfc394c608b3a05fc3002c9fd4be4"}, "vout": 1, "txid": "f454077417cf9c4ad79263f8ffc239ab54ee4a8245f02a3f27c7a732469d5142"}], "txid": "8e34f35da49589fa6485d4c3ec4c06ada6e60425ff5a227ec3002394b09d48cc", "blocktime": 1537870928, "version": 1, "confirmations": 11512, "time": 1537870928, "locktime": 0, "vsize": 223, "size": 223}