{"hash": "0b673c74046a2bdbf3f019689bfc68708c7eb0818226e919cb20e81f39918121", "blockhash": "0000000000000000001f76057863aec43deb6fa401d9628bb513d65a8098bfab", "vout": [{"scriptPubKey": {"reqSigs": 1, "hex": "a9141f1938755a720d53c595301976ff8db53422be0887", "addresses": ["34XT5qvkysYmV5WdM7dLfXNFUDEHTjWAe9"], "asm": "OP_HASH160 1f1938755a720d53c595301976ff8db53422be08 OP_EQUAL", "type": "scripthash"}, "value": 0.0196026, "n": 0}, {"scriptPubKey": {"reqSigs": 1, "hex": "00141c00ba4f879a0c90765db9e340f05a474542ea38", "addresses": ["bc1qrsqt5nu8ngxfqajah835puz6gaz5963cw7d7uz"], "asm": "0 1c00ba4f879a0c90765db9e340f05a474542ea38", "type": "witness_v0_keyhash"}, "value": 0.7976917, "n": 1}], "hex": "01000000000101f08becc92d058d7aa06db9f0825317758785c32842721217e3c5f6f94b81d9e70000000000ffffffff0244e91d000000000017a9141f1938755a720d53c595301976ff8db53422be0887522ec104000000001600141c00ba4f879a0c90765db9e340f05a474542ea3802483045022100f867c046f5cfb1df54dbf8bfa859acecec27677bedfc812675e44844e4cea27f022029c2782fade2d4ded648299993f088e57ac581aed899d43af7e700fb892547f40121026bc64590ac4c7a3e91165cd8a4f5ee24a95aa53c4d9353a3221d6de3eb4ccb0200000000", "vin": [{"txinwitness": ["3045022100f867c046f5cfb1df54dbf8bfa859acecec27677bedfc812675e44844e4cea27f022029c2782fade2d4ded648299993f088e57ac581aed899d43af7e700fb892547f401", "026bc64590ac4c7a3e91165cd8a4f5ee24a95aa53c4d9353a3221d6de3eb4ccb02"], "sequence": 4294967295, "scriptSig": {"hex": "", "asm": ""}, "vout": 0, "txid": "e7d9814bf9f6c5e31712724228c3858775175382f0b96da07a8d052dc9ec8bf0"}], "txid": "8e3e6e1564444f6b0d2634e1c260303d4de5d43b057bf7c0a038816cc5bcb630", "blocktime": 1537873891, "version": 1, "confirmations": 11478, "time": 1537873891, "locktime": 0, "vsize": 142, "size": 224}