{"hash": "8e4bf16515fbcadcd699a19816fd49ffbbba6b846529de626df99b89d072e0d6", "blockhash": "00000000000000000024a2167bbff67b0be802c0b01cdd79e6331c2be6459f87", "vout": [{"scriptPubKey": {"reqSigs": 1, "hex": "76a914ad8e687071e372e65e207f33db993964ad083c8b88ac", "addresses": ["1GpgVsCqy8iWgby5JNtTZZvnZHpFg4HTHi"], "asm": "OP_DUP OP_HASH160 ad8e687071e372e65e207f33db993964ad083c8b OP_EQUALVERIFY OP_CHECKSIG", "type": "pubkeyhash"}, "value": 0.01824, "n": 0}, {"scriptPubKey": {"reqSigs": 1, "hex": "a914e370231feecbfc25e2e2423a5a79bf79bfdca59887", "addresses": ["3NRbeX3vD5VaVE4TDU9ivCDsEf7NPPte6J"], "asm": "OP_HASH160 e370231feecbfc25e2e2423a5a79bf79bfdca598 OP_EQUAL", "type": "scripthash"}, "value": 0.74939866, "n": 1}], "hex": "01000000017d8dd08603c5fa8c03766551af8eb8d24ee4a56ba7fa4008ffde56f9715ec36d01000000da0047304402202990b9bf2a0f8103d1e0890c4c93551d50cd15b1b19dc9725c7bd7263c0eb60402203014a844e98fe7492354467f98cdc9402d8cddafe6ab49b2510308ec7f3305d901483045022100b683603ccf0b6f9aa7cdd2e3cdb32c4b3e76a886a7cfc9600f5c7596b9f41f11022008c05515cd02bbcc514aeb855fc422926e39b5471d2e3620b4da1b72a0d043e0014752210327881b6abce6535553a3ce21fad12a7d74fd237ce7c4cd270a267162344e3082210256141f8eb687f5a68c5cc65054652dc25116fa285e44d72b44368827ffe77d9a52aeffffffff0200d51b00000000001976a914ad8e687071e372e65e207f33db993964ad083c8b88acda7d77040000000017a914e370231feecbfc25e2e2423a5a79bf79bfdca5988700000000", "vin": [{"sequence": 4294967295, "scriptSig": {"hex": "0047304402202990b9bf2a0f8103d1e0890c4c93551d50cd15b1b19dc9725c7bd7263c0eb60402203014a844e98fe7492354467f98cdc9402d8cddafe6ab49b2510308ec7f3305d901483045022100b683603ccf0b6f9aa7cdd2e3cdb32c4b3e76a886a7cfc9600f5c7596b9f41f11022008c05515cd02bbcc514aeb855fc422926e39b5471d2e3620b4da1b72a0d043e0014752210327881b6abce6535553a3ce21fad12a7d74fd237ce7c4cd270a267162344e3082210256141f8eb687f5a68c5cc65054652dc25116fa285e44d72b44368827ffe77d9a52ae", "asm": "0 304402202990b9bf2a0f8103d1e0890c4c93551d50cd15b1b19dc9725c7bd7263c0eb60402203014a844e98fe7492354467f98cdc9402d8cddafe6ab49b2510308ec7f3305d9[ALL] 3045022100b683603ccf0b6f9aa7cdd2e3cdb32c4b3e76a886a7cfc9600f5c7596b9f41f11022008c05515cd02bbcc514aeb855fc422926e39b5471d2e3620b4da1b72a0d043e0[ALL] 52210327881b6abce6535553a3ce21fad12a7d74fd237ce7c4cd270a267162344e3082210256141f8eb687f5a68c5cc65054652dc25116fa285e44d72b44368827ffe77d9a52ae"}, "vout": 1, "txid": "6dc35e71f956deff0840faa76ba5e44ed2b88eaf516576038cfac50386d08d7d"}], "txid": "8e4bf16515fbcadcd699a19816fd49ffbbba6b846529de626df99b89d072e0d6", "blocktime": 1537870564, "version": 1, "confirmations": 11515, "time": 1537870564, "locktime": 0, "vsize": 335, "size": 335}