{"hash": "3da0b8e7646571cc7c5a872c96e2493c91c3155b2a8c3474c143adfa08520c0b", "blockhash": "00000000000000000004ffacab907a6b429b9a5745fa0b75af4234bf69dd7176", "vout": [{"scriptPubKey": {"reqSigs": 1, "hex": "a914ee70d39d0938c9ee5e789262c4d5b21bef3bd02487", "addresses": ["3PRmuXhHCYUbZdtiLUSCayBursCmzByHD9"], "asm": "OP_HASH160 ee70d39d0938c9ee5e789262c4d5b21bef3bd024 OP_EQUAL", "type": "scripthash"}, "value": 0.01000015, "n": 0}, {"scriptPubKey": {"reqSigs": 1, "hex": "76a914cb436e89d42d9168d5e8bc7cc1decb5785ad6a5788ac", "addresses": ["1KXkxBhjqgn8wJYBirUY5BUCuUyW1WMq7b"], "asm": "OP_DUP OP_HASH160 cb436e89d42d9168d5e8bc7cc1decb5785ad6a57 OP_EQUALVERIFY OP_CHECKSIG", "type": "pubkeyhash"}, "value": 0.0368182, "n": 1}], "hex": "020000000001061113ffb2738d8120ef673c45b86b5fa815c3b5aedd17eb8e8a34b8940a731e98800800006a473044022059233bff819c85d6d946eaaffdc2e2c11276b9d4111f6667b8e1c01331834d5702200b1fc4e0582844f391200bdd2c64199b50e140f055c4921c33901b7a1ee366a10121034c42c14ae49fcacb46c14e0712d48862c9caf3bb037115aa3b06913c40e0181ffeffffff6d54338dcf611245e57b0e4703d14a0a723df76d6ee520b711e3272d18224372010000006a4730440220481b3e27fc18f2ae100af7e19d0d3a2e32ed5659e76a938cd75f18ca984b88bf02202548c283a24c175863fc6ce327807b1c2f5faaf31c75a1bf3a575d37f19ed280012102bf76d013bb0548bc9488d880161473ee2e4ee4d13e01c6c77bcdfdf341ed83b4feffffff72aba4628fb7ade60452b72bcf3c61ebd1eb935cd458244fefc6a7204d5d1558a20800006b4830450221008afb8d2a922cd6b9890bbbbea5a52b6a67200aba6248b17d90b8d2a9f4db07a30220695fa64c3e5e3a9fc29a384a970301047754fd4aee5a7ebfbfee4fbc647dc1120121034c42c14ae49fcacb46c14e0712d48862c9caf3bb037115aa3b06913c40e0181ffeffffff7f762360bbd95a921b5ae246da66a18e0ab5a3206c95cc0b284b62719b78d4996c0800006b483045022100fe448ec6cd081b16260bf951ff32fa60a2c24e3bda48b1ffd3ad68b77482d15e02206c60f9fd37f1e51d003abbd41d48ec178f9440b9cccd6babb3209a1eb86206e50121034c42c14ae49fcacb46c14e0712d48862c9caf3bb037115aa3b06913c40e0181ffeffffffeb166e91bab54e0fdab7fdefc5c77d75ce2f6b23ed42e41ca90d3d61adbfe9f2440400006a47304402201078ce69026923f405bc029960d89277da2a37958b16b4cf13a254b6a17f8930022064617722ccde6a2f8cda2ba38db955cba9f87649efc93195db53b3873bddb3fa0121038dffe1de44706e2e047cca69f80bf9deec1e10affc819629de0856e08d807a98fefffffff4a097beab3b5aa7578bea2b94e3342f564e27959256f3d4be981ea9d906b9630100000017160014e142e4f6e0c8b76a8d2b3f4e819f60ce60a298f6feffffff024f420f000000000017a914ee70d39d0938c9ee5e789262c4d5b21bef3bd024871c2e3800000000001976a914cb436e89d42d9168d5e8bc7cc1decb5785ad6a5788ac0000000000024830450221009e64dcff8aa26d74f7e1c3d4b6ce15e26464e595b83c4b3921ee6106cdf4a56c022005f21fc0d3fcc7e315c51e5a6744c18fdb1eaed1300d5c187cd9e0802cbc07e30121026f321eb37066e54168a461f56de2f7e50547e2b372a8fafced7d435e2120400316490800", "vin": [{"sequence": 4294967294, "scriptSig": {"hex": "473044022059233bff819c85d6d946eaaffdc2e2c11276b9d4111f6667b8e1c01331834d5702200b1fc4e0582844f391200bdd2c64199b50e140f055c4921c33901b7a1ee366a10121034c42c14ae49fcacb46c14e0712d48862c9caf3bb037115aa3b06913c40e0181f", "asm": "3044022059233bff819c85d6d946eaaffdc2e2c11276b9d4111f6667b8e1c01331834d5702200b1fc4e0582844f391200bdd2c64199b50e140f055c4921c33901b7a1ee366a1[ALL] 034c42c14ae49fcacb46c14e0712d48862c9caf3bb037115aa3b06913c40e0181f"}, "vout": 2176, "txid": "981e730a94b8348a8eeb17ddaeb5c315a85f6bb8453c67ef20818d73b2ff1311"}, {"sequence": 4294967294, "scriptSig": {"hex": "4730440220481b3e27fc18f2ae100af7e19d0d3a2e32ed5659e76a938cd75f18ca984b88bf02202548c283a24c175863fc6ce327807b1c2f5faaf31c75a1bf3a575d37f19ed280012102bf76d013bb0548bc9488d880161473ee2e4ee4d13e01c6c77bcdfdf341ed83b4", "asm": "30440220481b3e27fc18f2ae100af7e19d0d3a2e32ed5659e76a938cd75f18ca984b88bf02202548c283a24c175863fc6ce327807b1c2f5faaf31c75a1bf3a575d37f19ed280[ALL] 02bf76d013bb0548bc9488d880161473ee2e4ee4d13e01c6c77bcdfdf341ed83b4"}, "vout": 1, "txid": "724322182d27e311b720e56e6df73d720a4ad103470e7be5451261cf8d33546d"}, {"sequence": 4294967294, "scriptSig": {"hex": "4830450221008afb8d2a922cd6b9890bbbbea5a52b6a67200aba6248b17d90b8d2a9f4db07a30220695fa64c3e5e3a9fc29a384a970301047754fd4aee5a7ebfbfee4fbc647dc1120121034c42c14ae49fcacb46c14e0712d48862c9caf3bb037115aa3b06913c40e0181f", "asm": "30450221008afb8d2a922cd6b9890bbbbea5a52b6a67200aba6248b17d90b8d2a9f4db07a30220695fa64c3e5e3a9fc29a384a970301047754fd4aee5a7ebfbfee4fbc647dc112[ALL] 034c42c14ae49fcacb46c14e0712d48862c9caf3bb037115aa3b06913c40e0181f"}, "vout": 2210, "txid": "58155d4d20a7c6ef4f2458d45c93ebd1eb613ccf2bb75204e6adb78f62a4ab72"}, {"sequence": 4294967294, "scriptSig": {"hex": "483045022100fe448ec6cd081b16260bf951ff32fa60a2c24e3bda48b1ffd3ad68b77482d15e02206c60f9fd37f1e51d003abbd41d48ec178f9440b9cccd6babb3209a1eb86206e50121034c42c14ae49fcacb46c14e0712d48862c9caf3bb037115aa3b06913c40e0181f", "asm": "3045022100fe448ec6cd081b16260bf951ff32fa60a2c24e3bda48b1ffd3ad68b77482d15e02206c60f9fd37f1e51d003abbd41d48ec178f9440b9cccd6babb3209a1eb86206e5[ALL] 034c42c14ae49fcacb46c14e0712d48862c9caf3bb037115aa3b06913c40e0181f"}, "vout": 2156, "txid": "99d4789b71624b280bcc956c20a3b50a8ea166da46e25a1b925ad9bb6023767f"}, {"sequence": 4294967294, "scriptSig": {"hex": "47304402201078ce69026923f405bc029960d89277da2a37958b16b4cf13a254b6a17f8930022064617722ccde6a2f8cda2ba38db955cba9f87649efc93195db53b3873bddb3fa0121038dffe1de44706e2e047cca69f80bf9deec1e10affc819629de0856e08d807a98", "asm": "304402201078ce69026923f405bc029960d89277da2a37958b16b4cf13a254b6a17f8930022064617722ccde6a2f8cda2ba38db955cba9f87649efc93195db53b3873bddb3fa[ALL] 038dffe1de44706e2e047cca69f80bf9deec1e10affc819629de0856e08d807a98"}, "vout": 1092, "txid": "f2e9bfad613d0da91ce442ed236b2fce757dc7c5effdb7da0f4eb5ba916e16eb"}, {"txinwitness": ["30450221009e64dcff8aa26d74f7e1c3d4b6ce15e26464e595b83c4b3921ee6106cdf4a56c022005f21fc0d3fcc7e315c51e5a6744c18fdb1eaed1300d5c187cd9e0802cbc07e301", "026f321eb37066e54168a461f56de2f7e50547e2b372a8fafced7d435e21204003"], "sequence": 4294967294, "scriptSig": {"hex": "160014e142e4f6e0c8b76a8d2b3f4e819f60ce60a298f6", "asm": "0014e142e4f6e0c8b76a8d2b3f4e819f60ce60a298f6"}, "vout": 1, "txid": "63b906d9a91e98bed4f3569295274e562f34e3942bea8b57a75a3babbe97a0f4"}], "txid": "8e5048857106befdc9611ecd8da7b695990e0f6dc7cae2e2ba419379ccd44c37", "blocktime": 1537875543, "version": 2, "confirmations": 11464, "time": 1537875543, "locktime": 542998, "vsize": 906, "size": 992}