{"hash": "8e5549fe5f633f9b3e625152d2b62995df6ed1c111e009e09e89baee0b832de1", "blockhash": "00000000000000000017f5eb5941039fbcee6240d03bc1f2f8e35350df66a1d8", "vout": [{"scriptPubKey": {"reqSigs": 1, "hex": "a9145333a1a3fcac9d896ddad4fea8f84e7ef3bc52fe87", "addresses": ["39GwrsvePZ9NUufzqqw6KtV9YpfobFPh1E"], "asm": "OP_HASH160 5333a1a3fcac9d896ddad4fea8f84e7ef3bc52fe OP_EQUAL", "type": "scripthash"}, "value": 0.00735, "n": 0}, {"scriptPubKey": {"reqSigs": 1, "hex": "76a914eb1d68433cb379cdeb628b4fb92dd61269b7d6e388ac", "addresses": ["1NSB2LLuPRJaLfNdLXzc1mt88Raa2kRixr"], "asm": "OP_DUP OP_HASH160 eb1d68433cb379cdeb628b4fb92dd61269b7d6e3 OP_EQUALVERIFY OP_CHECKSIG", "type": "pubkeyhash"}, "value": 0.13967424, "n": 1}], "hex": "0100000001713384e50f88d5648b4b27426323ae72c45d57b5d240f152e551eed6011ba258010000006b483045022100ecec7e602e34bdd5b79d5ea18f270de87b691473a823ebedffe598f12e0e6276022046d3c9fa7f2a9c1ae0316dd4ac7954dffc2ae6e1db6ef300bd4a229c97463436012103d7f2a360d1bb5de9cde4990de97a52964ab908616de5a09a81967c3d8c3cb683ffffffff0218370b000000000017a9145333a1a3fcac9d896ddad4fea8f84e7ef3bc52fe874020d500000000001976a914eb1d68433cb379cdeb628b4fb92dd61269b7d6e388ac00000000", "vin": [{"sequence": 4294967295, "scriptSig": {"hex": "483045022100ecec7e602e34bdd5b79d5ea18f270de87b691473a823ebedffe598f12e0e6276022046d3c9fa7f2a9c1ae0316dd4ac7954dffc2ae6e1db6ef300bd4a229c97463436012103d7f2a360d1bb5de9cde4990de97a52964ab908616de5a09a81967c3d8c3cb683", "asm": "3045022100ecec7e602e34bdd5b79d5ea18f270de87b691473a823ebedffe598f12e0e6276022046d3c9fa7f2a9c1ae0316dd4ac7954dffc2ae6e1db6ef300bd4a229c97463436[ALL] 03d7f2a360d1bb5de9cde4990de97a52964ab908616de5a09a81967c3d8c3cb683"}, "vout": 1, "txid": "58a21b01d6ee51e552f140d2b5575dc472ae236342274b8b64d5880fe5843371"}], "txid": "8e5549fe5f633f9b3e625152d2b62995df6ed1c111e009e09e89baee0b832de1", "blocktime": 1537874412, "version": 1, "confirmations": 11467, "time": 1537874412, "locktime": 0, "vsize": 224, "size": 224}