{"hash": "cf81ae2d5bb809fc017a300c077df30722f3d6be5591e52b885c4d363f0286b7", "blockhash": "0000000000000000001cda96e906b7601b7a6fb1a3b62bca570a9e5d8f4b3de1", "vout": [{"scriptPubKey": {"reqSigs": 1, "hex": "76a914c6d990b4b8d66ff238cdc7c7504fa052a465aa7d88ac", "addresses": ["1K8RRgXganZd1FnYZjXU2a77DnmYQf6X6e"], "asm": "OP_DUP OP_HASH160 c6d990b4b8d66ff238cdc7c7504fa052a465aa7d OP_EQUALVERIFY OP_CHECKSIG", "type": "pubkeyhash"}, "value": 0.00960976, "n": 0}, {"scriptPubKey": {"reqSigs": 1, "hex": "a9148354759b2f3782b1c44fa97b52f8ac849b8770b387", "addresses": ["3DfRd1rJXodMhzNoucTv8RtV5nFy2hKNfg"], "asm": "OP_HASH160 8354759b2f3782b1c44fa97b52f8ac849b8770b3 OP_EQUAL", "type": "scripthash"}, "value": 0.01035279, "n": 1}], "hex": "020000000001024bdf4c4c54292dd758202ede1db8b876b17a3119f38d7588209b4cb42c6284e201000000171600142286df73e3abe0d9152c112295424f66ca873960feffffffbe23f550a3d7ebed13d5008c5d5e32dea0215d80771a5f45310580281fb4168001000000171600140f15ca8889ffb5139c160de8cb776fe689fc6a01feffffff02d0a90e00000000001976a914c6d990b4b8d66ff238cdc7c7504fa052a465aa7d88ac0fcc0f000000000017a9148354759b2f3782b1c44fa97b52f8ac849b8770b38702483045022100d33c027fcee6eadb44632406e10831c505cc3179291b2309a5dd36b701d51eda0220223ad6bd1907ed0d7691c4a4b5287ba8ece9ac666452389b6a79bb1a4d73d663012103d1845cfcbf8ae31303b9ba2027b58b2e3416dc4f3c257c491c88459672cb990a024730440220052b722ba1a853c720cabad1318f775a9ed97bdd0fe32b0c0c01756c22961ff602206493960e0c21ca9a78a50312e416c029007832fe282f59f6e8037708f7cbc9b30121034d177da152e9d910170482928601ad2aa153d9d920b8d0f2278a8ee4f574961b13490800", "vin": [{"txinwitness": ["3045022100d33c027fcee6eadb44632406e10831c505cc3179291b2309a5dd36b701d51eda0220223ad6bd1907ed0d7691c4a4b5287ba8ece9ac666452389b6a79bb1a4d73d66301", "03d1845cfcbf8ae31303b9ba2027b58b2e3416dc4f3c257c491c88459672cb990a"], "sequence": 4294967294, "scriptSig": {"hex": "1600142286df73e3abe0d9152c112295424f66ca873960", "asm": "00142286df73e3abe0d9152c112295424f66ca873960"}, "vout": 1, "txid": "e284622cb44c9b2088758df319317ab176b8b81dde2e2058d72d29544c4cdf4b"}, {"txinwitness": ["30440220052b722ba1a853c720cabad1318f775a9ed97bdd0fe32b0c0c01756c22961ff602206493960e0c21ca9a78a50312e416c029007832fe282f59f6e8037708f7cbc9b301", "034d177da152e9d910170482928601ad2aa153d9d920b8d0f2278a8ee4f574961b"], "sequence": 4294967294, "scriptSig": {"hex": "1600140f15ca8889ffb5139c160de8cb776fe689fc6a01", "asm": "00140f15ca8889ffb5139c160de8cb776fe689fc6a01"}, "vout": 1, "txid": "8016b41f28800531455f1a77805d21a0de325e5d8c00d513edebd7a350f523be"}], "txid": "8e65a1d1b6b9b2362f47aa8a485c5508a173dd4980d708409b9808ab35fdf777", "blocktime": 1537873282, "version": 2, "confirmations": 11485, "time": 1537873282, "locktime": 542995, "vsize": 259, "size": 421}