{"hash": "8e66357fe6f0c61085c7d4127f1743e9e119730ca447f2575c327f0893f06dcc", "blockhash": "0000000000000000001f0ddff1eddb255c1121bcd4da4f1bc9a0da00cae72433", "vout": [{"scriptPubKey": {"reqSigs": 1, "hex": "0014bceac22899fc2dd54f11936a7cb8a3a86034904f", "addresses": ["bc1qhn4vy2yelska2nc3jd48ew9r4psrfyz0jr5fwg"], "asm": "0 bceac22899fc2dd54f11936a7cb8a3a86034904f", "type": "witness_v0_keyhash"}, "value": 5.919e-05, "n": 0}, {"scriptPubKey": {"reqSigs": 1, "hex": "a9148f498e7a9cdc1df9cef9a6610fd3d71124f81d3787", "addresses": ["3EkefmtcnYF5f28ZxiLgmSMPQ3Yq9pFLEK"], "asm": "OP_HASH160 8f498e7a9cdc1df9cef9a6610fd3d71124f81d37 OP_EQUAL", "type": "scripthash"}, "value": 0.009, "n": 1}], "hex": "01000000019f0905014e62c4213e65d1aa4d9f6cc911ecba4fbb47f0356a60ee216ff865611e0000006a47304402204df35faaa4502bd91912571667f049c694601483cf5ab1477653bb386a35294d02200d488806c35442d81c4c60047db9be0eb63573d2352babf14815d15380237818012102fcb0f20db1788307812a3855cea534ebbe561a9aa52e075046aa89c5123af8d8ffffffff021f17000000000000160014bceac22899fc2dd54f11936a7cb8a3a86034904fa0bb0d000000000017a9148f498e7a9cdc1df9cef9a6610fd3d71124f81d378700000000", "vin": [{"sequence": 4294967295, "scriptSig": {"hex": "47304402204df35faaa4502bd91912571667f049c694601483cf5ab1477653bb386a35294d02200d488806c35442d81c4c60047db9be0eb63573d2352babf14815d15380237818012102fcb0f20db1788307812a3855cea534ebbe561a9aa52e075046aa89c5123af8d8", "asm": "304402204df35faaa4502bd91912571667f049c694601483cf5ab1477653bb386a35294d02200d488806c35442d81c4c60047db9be0eb63573d2352babf14815d15380237818[ALL] 02fcb0f20db1788307812a3855cea534ebbe561a9aa52e075046aa89c5123af8d8"}, "vout": 30, "txid": "6165f86f21ee606a35f047bb4fbaec11c96c9f4daad1653e21c4624e0105099f"}], "txid": "8e66357fe6f0c61085c7d4127f1743e9e119730ca447f2575c327f0893f06dcc", "blocktime": 1537872018, "version": 1, "confirmations": 11489, "time": 1537872018, "locktime": 0, "vsize": 220, "size": 220}