{"hash": "d0f4bfec9da4f6e04092e20b525f27c4457d0ec3cce00ed5a6810234301867dc", "blockhash": "00000000000000000018f53835495a110e01622372bf6ae95dc86f2b0ab887b0", "vout": [{"scriptPubKey": {"reqSigs": 1, "hex": "0014328f1357a04ba793aa465c92390069dca74f5cf5", "addresses": ["bc1qx283x4aqfwne82jxtjfrjqrfmjn57h84raxm28"], "asm": "0 328f1357a04ba793aa465c92390069dca74f5cf5", "type": "witness_v0_keyhash"}, "value": 0.00500149, "n": 0}, {"scriptPubKey": {"reqSigs": 1, "hex": "a9145e0c3da28e38f358ccba49bcfdc601577d82f0da87", "addresses": ["3AGJ75XUtXKmhpRXfbCjhXwQ1U9jozrqp4"], "asm": "OP_HASH160 5e0c3da28e38f358ccba49bcfdc601577d82f0da OP_EQUAL", "type": "scripthash"}, "value": 0.00500315, "n": 1}], "hex": "01000000000101ddbdd4e16fea2d548ef7459e81188aba6979ae6d57ed9de338986ac47ac28aa80100000017160014f0d7ad22c3a524315c90412f999b93a6e0e10b7bffffffff02b5a1070000000000160014328f1357a04ba793aa465c92390069dca74f5cf55ba207000000000017a9145e0c3da28e38f358ccba49bcfdc601577d82f0da870247304402202325a8b4ebcaadf47da5a595706df51c8b8714f2a120f7503b931bb871cb3b3d02205ed71782b8cc6873839ed0eba1f763be508f49abe5e09fac35e34cd2d77f6fb3012103e758ba1e062944bf40c5f7cc1d264ea578d2026a04f535087c13146dfab27c8400000000", "vin": [{"txinwitness": ["304402202325a8b4ebcaadf47da5a595706df51c8b8714f2a120f7503b931bb871cb3b3d02205ed71782b8cc6873839ed0eba1f763be508f49abe5e09fac35e34cd2d77f6fb301", "03e758ba1e062944bf40c5f7cc1d264ea578d2026a04f535087c13146dfab27c84"], "sequence": 4294967295, "scriptSig": {"hex": "160014f0d7ad22c3a524315c90412f999b93a6e0e10b7b", "asm": "0014f0d7ad22c3a524315c90412f999b93a6e0e10b7b"}, "vout": 1, "txid": "a88ac27ac46a9838e39ded576dae7969ba8a18819e45f78e542dea6fe1d4bddd"}], "txid": "8e6f2be203e6fcfda113261fc7d2d5fb788d0eb4941f16756870300866b2552f", "blocktime": 1537870928, "version": 1, "confirmations": 11514, "time": 1537870928, "locktime": 0, "vsize": 165, "size": 246}