{"hash": "8e723b5663afb3bbe218194169125415895ecfb0a1393ae9cdc3ff512c68c958", "blockhash": "0000000000000000001cda96e906b7601b7a6fb1a3b62bca570a9e5d8f4b3de1", "vout": [{"scriptPubKey": {"reqSigs": 1, "hex": "76a9146c9d65adfa71fe65a71e1a90677cbb7c862cec4888ac", "addresses": ["1AuJXsDrFR7PEprvugEGtq5P9shSN7JS1T"], "asm": "OP_DUP OP_HASH160 6c9d65adfa71fe65a71e1a90677cbb7c862cec48 OP_EQUALVERIFY OP_CHECKSIG", "type": "pubkeyhash"}, "value": 5.46e-06, "n": 0}, {"scriptPubKey": {"type": "nulldata", "hex": "6a146f6d6e69000000000000001f0000001c97734c00", "asm": "OP_RETURN 6f6d6e69000000000000001f0000001c97734c00"}, "value": 0.0, "n": 1}, {"scriptPubKey": {"reqSigs": 1, "hex": "76a914a520c86a08366941cd90d22e11ac1c7eefa2db3788ac", "addresses": ["1G47mSr3oANXMafVrR8UC4pzV7FEAzo3r9"], "asm": "OP_DUP OP_HASH160 a520c86a08366941cd90d22e11ac1c7eefa2db37 OP_EQUALVERIFY OP_CHECKSIG", "type": "pubkeyhash"}, "value": 0.68056414, "n": 2}], "hex": "01000000015998fc5514d57ac6d0e065d2f517830df2ae1a1a3550702ee14a106b8928c020020000006a47304402205c57b0a79e74a1e6e583015e84233d262872d36ce2de865ab8a9e82ff0bf725402207f6b2c9c1988cbd667fab1e73caf250d87b5e6b189061e26ab8675e95ae95674012103f3f44c9e80e2cedc1a2909631a3adea8866ee32187f74d0912387359b0ff36a2ffffffff0322020000000000001976a9146c9d65adfa71fe65a71e1a90677cbb7c862cec4888ac0000000000000000166a146f6d6e69000000000000001f0000001c97734c005e750e04000000001976a914a520c86a08366941cd90d22e11ac1c7eefa2db3788ac00000000", "vin": [{"sequence": 4294967295, "scriptSig": {"hex": "47304402205c57b0a79e74a1e6e583015e84233d262872d36ce2de865ab8a9e82ff0bf725402207f6b2c9c1988cbd667fab1e73caf250d87b5e6b189061e26ab8675e95ae95674012103f3f44c9e80e2cedc1a2909631a3adea8866ee32187f74d0912387359b0ff36a2", "asm": "304402205c57b0a79e74a1e6e583015e84233d262872d36ce2de865ab8a9e82ff0bf725402207f6b2c9c1988cbd667fab1e73caf250d87b5e6b189061e26ab8675e95ae95674[ALL] 03f3f44c9e80e2cedc1a2909631a3adea8866ee32187f74d0912387359b0ff36a2"}, "vout": 2, "txid": "20c028896b104ae12e7050351a1aaef20d8317f5d265e0d0c67ad51455fc9859"}], "txid": "8e723b5663afb3bbe218194169125415895ecfb0a1393ae9cdc3ff512c68c958", "blocktime": 1537873282, "version": 1, "confirmations": 11482, "time": 1537873282, "locktime": 0, "vsize": 256, "size": 256}