{"hash": "8e73704afba0ea23afd43c6853e1e1c273f8663f1890971117da2baa1748fb72", "blockhash": "0000000000000000000baef3f32e3676a92c3b2e5da21b426e4f302fc371ce76", "vout": [{"scriptPubKey": {"reqSigs": 1, "hex": "76a914f0886d2d2410eadb172771e523d87df82b22133e88ac", "addresses": ["1Nvpc7mJjfSYCy68Vk28Ewq59xoRqciwxP"], "asm": "OP_DUP OP_HASH160 f0886d2d2410eadb172771e523d87df82b22133e OP_EQUALVERIFY OP_CHECKSIG", "type": "pubkeyhash"}, "value": 0.00628616, "n": 0}, {"scriptPubKey": {"type": "nulldata", "hex": "6a4c50000078280001b7d718a1ed20d6560cda168f019d6ddc0f1b8ff117702940d64fa54d8eb2d5d1a0011579c7157c8eb53bf24801745baa1e860613b965dcc703ad1d100759d4ba30d2c37bb011d97e02cf", "asm": "OP_RETURN 000078280001b7d718a1ed20d6560cda168f019d6ddc0f1b8ff117702940d64fa54d8eb2d5d1a0011579c7157c8eb53bf24801745baa1e860613b965dcc703ad1d100759d4ba30d2c37bb011d97e02cf"}, "value": 0.0, "n": 1}], "hex": "010000000167209fecdd0d4e7c316c94f9aef32130fd9266a091745c9e1491dfc7edc36c29010000006a4730440220161761dcd401e8afc85836f5952de0e2628719a4a59f186c29b20133196938280220749c2b26658c17558f4cbadf88298b4cb314690c815835ed17261153daafd0b7012103d4c421b6e70f6bce3f895e05eb58239f8dcce07d178d9918ed17ea73ed002adfffffffff0288970900000000001976a914f0886d2d2410eadb172771e523d87df82b22133e88ac0000000000000000536a4c50000078280001b7d718a1ed20d6560cda168f019d6ddc0f1b8ff117702940d64fa54d8eb2d5d1a0011579c7157c8eb53bf24801745baa1e860613b965dcc703ad1d100759d4ba30d2c37bb011d97e02cf00000000", "vin": [{"sequence": 4294967295, "scriptSig": {"hex": "4730440220161761dcd401e8afc85836f5952de0e2628719a4a59f186c29b20133196938280220749c2b26658c17558f4cbadf88298b4cb314690c815835ed17261153daafd0b7012103d4c421b6e70f6bce3f895e05eb58239f8dcce07d178d9918ed17ea73ed002adf", "asm": "30440220161761dcd401e8afc85836f5952de0e2628719a4a59f186c29b20133196938280220749c2b26658c17558f4cbadf88298b4cb314690c815835ed17261153daafd0b7[ALL] 03d4c421b6e70f6bce3f895e05eb58239f8dcce07d178d9918ed17ea73ed002adf"}, "vout": 1, "txid": "296cc3edc7df91149e5c7491a06692fd3021f3aef9946c317c4e0dddec9f2067"}], "txid": "8e73704afba0ea23afd43c6853e1e1c273f8663f1890971117da2baa1748fb72", "blocktime": 1537876114, "version": 1, "confirmations": 11463, "time": 1537876114, "locktime": 0, "vsize": 283, "size": 283}