{"hash": "8e76ecefeecd56472ffacf5302f352df6eb991151a1725478c7d87c96b2e7459", "blockhash": "0000000000000000000dcc0f55137456b1a82d3642486a52398922ac4d620174", "vout": [{"scriptPubKey": {"reqSigs": 1, "hex": "76a914c2208023736df4c4ffd963ff0ea86379352a67a688ac", "addresses": ["1JhT2PkcRCiUzJrDGr5PsoeSYVtHkgG8qr"], "asm": "OP_DUP OP_HASH160 c2208023736df4c4ffd963ff0ea86379352a67a6 OP_EQUALVERIFY OP_CHECKSIG", "type": "pubkeyhash"}, "value": 0.05184149, "n": 0}, {"scriptPubKey": {"reqSigs": 1, "hex": "76a9140071cb0c840ab2a33699729b4d96c1eb3ad59bdb88ac", "addresses": ["113MKVGSQDLW2366GaWtpS7MHP9pxA8mLH"], "asm": "OP_DUP OP_HASH160 0071cb0c840ab2a33699729b4d96c1eb3ad59bdb OP_EQUALVERIFY OP_CHECKSIG", "type": "pubkeyhash"}, "value": 2.7, "n": 1}], "hex": "01000000061b307e77b298dd172084f3d8b4292f415dcdc4d1238768ddc5dd6b68652f242c000000006b483045022100e315596a371d80b15eb5e2731b7b5e958e4e2e3ae6d69afb35cd0ef561e5dbd102204a26c6a7e44ecb4824e976f6d65c6812bf3fb8e2cfce94d60d82134f14ba078e012102c4ca0c8c52c772b86e26e71577f2e56d23f9171b5e6dfa15e96601f1297244e1ffffffff00f0c2f168a58a943023a40694e70640d37662854959c02741554e978799682c000000006b48304502210095341d15878e59af501fc55ffd2a82c034742975b352e86492e16eb0c58fe06e02207d0f35f571fd6f72d7cc06389bd49f67edc789ad3e2218d7d81bc54a61f9be43012103cc4e789d2db59a6276ba52d5733b9a8995941366fe5661dc8af9d7970ff1fa68ffffffff1c25394687f971f5089676c10c28f648247be6c81fa59be7ab0f4ef9a890018c000000006a47304402207fb084563409e6ab99f841a96bd99c5fd1bb3d581b18fea95b67182139376a1902200cb4918e63e2ec6aaa44efd2339b64003a4bb550fe497a759e5f256c12a5be43012102c4ca0c8c52c772b86e26e71577f2e56d23f9171b5e6dfa15e96601f1297244e1ffffffffd81aab7c036e0f20fa4dd7dc6dc6a2bfe999af5c5d7ac82cf9da486fcdf20dc6010000006a473044022063e002cb14fff0e3bbda6dfa429cdf23348c6d9bd2b16a45dee2024961c571d80220053a5294432b69797d834dedf5dc1df8a7758c5a2ff1fd9f590e6afc3f1c97e3012102c4ca0c8c52c772b86e26e71577f2e56d23f9171b5e6dfa15e96601f1297244e1ffffffff48eb59ae2a22512cf5bd5629f0505da3b8fc428968e91ef31b97782013fb67fe000000006b483045022100b9cc2c16ebe968342a1ab9f3f89e90aad9b84b41ecf89d1dea242280984c539502207c02fa73525a3d436047646b4cf6d7a0f1846f7eb140a3c48ec95ea7b7e879ef012102c4ca0c8c52c772b86e26e71577f2e56d23f9171b5e6dfa15e96601f1297244e1ffffffff05c05eae78f21863702728d2a9212c81d42a08135e5e087ada2630b0d97dbcfe010000006b4830450221009a0a082553338434198b70442b6bda4760bb591cfcfeae15a3efe6b12ac8b4ba02206eed0125f7e6b984eb6a799872a781a8ed09afaf33e91ca07fddca65d95a86e3012102c4ca0c8c52c772b86e26e71577f2e56d23f9171b5e6dfa15e96601f1297244e1ffffffff02951a4f00000000001976a914c2208023736df4c4ffd963ff0ea86379352a67a688ac80df1710000000001976a9140071cb0c840ab2a33699729b4d96c1eb3ad59bdb88ac00000000", "vin": [{"sequence": 4294967295, "scriptSig": {"hex": "483045022100e315596a371d80b15eb5e2731b7b5e958e4e2e3ae6d69afb35cd0ef561e5dbd102204a26c6a7e44ecb4824e976f6d65c6812bf3fb8e2cfce94d60d82134f14ba078e012102c4ca0c8c52c772b86e26e71577f2e56d23f9171b5e6dfa15e96601f1297244e1", "asm": "3045022100e315596a371d80b15eb5e2731b7b5e958e4e2e3ae6d69afb35cd0ef561e5dbd102204a26c6a7e44ecb4824e976f6d65c6812bf3fb8e2cfce94d60d82134f14ba078e[ALL] 02c4ca0c8c52c772b86e26e71577f2e56d23f9171b5e6dfa15e96601f1297244e1"}, "vout": 0, "txid": "2c242f65686bddc5dd688723d1c4cd5d412f29b4d8f3842017dd98b2777e301b"}, {"sequence": 4294967295, "scriptSig": {"hex": "48304502210095341d15878e59af501fc55ffd2a82c034742975b352e86492e16eb0c58fe06e02207d0f35f571fd6f72d7cc06389bd49f67edc789ad3e2218d7d81bc54a61f9be43012103cc4e789d2db59a6276ba52d5733b9a8995941366fe5661dc8af9d7970ff1fa68", "asm": "304502210095341d15878e59af501fc55ffd2a82c034742975b352e86492e16eb0c58fe06e02207d0f35f571fd6f72d7cc06389bd49f67edc789ad3e2218d7d81bc54a61f9be43[ALL] 03cc4e789d2db59a6276ba52d5733b9a8995941366fe5661dc8af9d7970ff1fa68"}, "vout": 0, "txid": "2c689987974e554127c05949856276d34006e79406a42330948aa568f1c2f000"}, {"sequence": 4294967295, "scriptSig": {"hex": "47304402207fb084563409e6ab99f841a96bd99c5fd1bb3d581b18fea95b67182139376a1902200cb4918e63e2ec6aaa44efd2339b64003a4bb550fe497a759e5f256c12a5be43012102c4ca0c8c52c772b86e26e71577f2e56d23f9171b5e6dfa15e96601f1297244e1", "asm": "304402207fb084563409e6ab99f841a96bd99c5fd1bb3d581b18fea95b67182139376a1902200cb4918e63e2ec6aaa44efd2339b64003a4bb550fe497a759e5f256c12a5be43[ALL] 02c4ca0c8c52c772b86e26e71577f2e56d23f9171b5e6dfa15e96601f1297244e1"}, "vout": 0, "txid": "8c0190a8f94e0fabe79ba51fc8e67b2448f6280cc1769608f571f9874639251c"}, {"sequence": 4294967295, "scriptSig": {"hex": "473044022063e002cb14fff0e3bbda6dfa429cdf23348c6d9bd2b16a45dee2024961c571d80220053a5294432b69797d834dedf5dc1df8a7758c5a2ff1fd9f590e6afc3f1c97e3012102c4ca0c8c52c772b86e26e71577f2e56d23f9171b5e6dfa15e96601f1297244e1", "asm": "3044022063e002cb14fff0e3bbda6dfa429cdf23348c6d9bd2b16a45dee2024961c571d80220053a5294432b69797d834dedf5dc1df8a7758c5a2ff1fd9f590e6afc3f1c97e3[ALL] 02c4ca0c8c52c772b86e26e71577f2e56d23f9171b5e6dfa15e96601f1297244e1"}, "vout": 1, "txid": "c60df2cd6f48daf92cc87a5d5caf99e9bfa2c66ddcd74dfa200f6e037cab1ad8"}, {"sequence": 4294967295, "scriptSig": {"hex": "483045022100b9cc2c16ebe968342a1ab9f3f89e90aad9b84b41ecf89d1dea242280984c539502207c02fa73525a3d436047646b4cf6d7a0f1846f7eb140a3c48ec95ea7b7e879ef012102c4ca0c8c52c772b86e26e71577f2e56d23f9171b5e6dfa15e96601f1297244e1", "asm": "3045022100b9cc2c16ebe968342a1ab9f3f89e90aad9b84b41ecf89d1dea242280984c539502207c02fa73525a3d436047646b4cf6d7a0f1846f7eb140a3c48ec95ea7b7e879ef[ALL] 02c4ca0c8c52c772b86e26e71577f2e56d23f9171b5e6dfa15e96601f1297244e1"}, "vout": 0, "txid": "fe67fb132078971bf31ee9688942fcb8a35d50f02956bdf52c51222aae59eb48"}, {"sequence": 4294967295, "scriptSig": {"hex": "4830450221009a0a082553338434198b70442b6bda4760bb591cfcfeae15a3efe6b12ac8b4ba02206eed0125f7e6b984eb6a799872a781a8ed09afaf33e91ca07fddca65d95a86e3012102c4ca0c8c52c772b86e26e71577f2e56d23f9171b5e6dfa15e96601f1297244e1", "asm": "30450221009a0a082553338434198b70442b6bda4760bb591cfcfeae15a3efe6b12ac8b4ba02206eed0125f7e6b984eb6a799872a781a8ed09afaf33e91ca07fddca65d95a86e3[ALL] 02c4ca0c8c52c772b86e26e71577f2e56d23f9171b5e6dfa15e96601f1297244e1"}, "vout": 1, "txid": "febc7dd9b03026da7a085e5e13082ad4812c21a9d22827706318f278ae5ec005"}], "txid": "8e76ecefeecd56472ffacf5302f352df6eb991151a1725478c7d87c96b2e7459", "blocktime": 1537870268, "version": 1, "confirmations": 11518, "time": 1537870268, "locktime": 0, "vsize": 964, "size": 964}