{"hash": "8e8342b0ee15fd7512dc3d73ab60b9f927be3d174fd7555cc8c89e87db1860ce", "blockhash": "0000000000000000000e13cef7c366c0283d82e591d1acd082e914b08063cdf1", "vout": [{"scriptPubKey": {"reqSigs": 1, "hex": "76a914e8cea30989bd15530f819b766684b00dc7ba7cfa88ac", "addresses": ["1NDyJtNTjmwk5xPNhjgAMu4HDHigtobu1s"], "asm": "OP_DUP OP_HASH160 e8cea30989bd15530f819b766684b00dc7ba7cfa OP_EQUALVERIFY OP_CHECKSIG", "type": "pubkeyhash"}, "value": 53.93678638, "n": 0}, {"scriptPubKey": {"reqSigs": 1, "hex": "76a9143835407b624c77567d7195d8accd64511feaee4588ac", "addresses": ["168CdkPsZMBm1TsAUy8i3VtfKpUykNevD7"], "asm": "OP_DUP OP_HASH160 3835407b624c77567d7195d8accd64511feaee45 OP_EQUALVERIFY OP_CHECKSIG", "type": "pubkeyhash"}, "value": 0.009066, "n": 1}], "hex": "0200000006483261ae1585c956c8c67e44cfe4b32b96424c0de20c1228ae389c1dce9da679090000006b483045022100e92f1093029e4e49ca633a55452fdaa3695e29db53922f324f4e5a91402e4e3e022048c594e391316e5125db7186034be0dcac7fc4f611eacbd79248e2f2ee9871c1012103821559641c5eb85d97e268b0249ac6a7b4c89e73258b6ebc8e9fc6fe552f9e3cfeffffff5fac39f75d58594b9ffc98c2eb4d88dbeec4f507f192d646f80df4b53e62cb9d060000006b483045022100971099932a62c3b7e8a9b554bbbf5a720820beb4c33e768904958aaffee883f6022013366a7cb14ee80922ca2b878f923358669e592c8b279dbc8b4f1ff181833498012103ee515d04e0c0da6f7d76580744b0213226aff8ecf796a1a4b9fd1614cd232459feffffffaa31143b8dad139fb37ddde7040c497df4441b819b44b2774bf445d59e7efca8010000006a4730440220794a8f1f8e7e6b79b5fca83ec7a3b620086f416c60a84726234431b24753509902201a4f4a189572275faa2899025a8e4b075158e2fb4a7dea4bf813e579499b6ae50121023ef6d9fccb4897243755e1c497c1b29622a453522a037f805f12d60f5047e650feffffffb2c01a6f5ca3daf42c811113515ae35bffa7b39ce28a601e20082e5d80e80875000000006b483045022100a78cdae54e1c5d900c4a8f711cb89ff0ac354e5fa4b29c8b08c39dfa44c7d69202207d16ca582e0751de345d8c1be8b040056efb8222142c40453123e6c070ef0f85012103f9ecb4673d57204d9e94dcaa6d4d45e4b0ebd8efa5e6cf82c58f0637cceb671cfeffffffea2b2474561df65f3b3427677f4922695bf8ec899ffe23a4e06eaed2761c2f4c350000006b48304502210092f4c70168934c280af689692aca94412a222b76b954fd624e950eca761f976b02202e7fa98ab520c440baaf17fef9b2a576496fe40c17556ad4d37b35eeed2a502c012102105969b8bb8cd974a88f16dc8b11b0a56c3a8d51d7848a912328d4367548674dfeffffffed163874d63aa09b95f27d4e345b877a1996df289e64d5019b2851d4a5e7c57c000000006a47304402205c0729880c1917dbf9694c28d578eac3b0f6adb9f2be725c5f7180d3fade88930220086f120fbe4fb48093ef6e8a2783592a827ed5cf81fc47b6da4d9fce92364cb1012103598bcfd242fede2d555d2b275d0c37dd72f2e9b2049ddd3d9c81e79a887f457dfeffffff022e017d41010000001976a914e8cea30989bd15530f819b766684b00dc7ba7cfa88ac68d50d00000000001976a9143835407b624c77567d7195d8accd64511feaee4588ac10490800", "vin": [{"sequence": 4294967294, "scriptSig": {"hex": "483045022100e92f1093029e4e49ca633a55452fdaa3695e29db53922f324f4e5a91402e4e3e022048c594e391316e5125db7186034be0dcac7fc4f611eacbd79248e2f2ee9871c1012103821559641c5eb85d97e268b0249ac6a7b4c89e73258b6ebc8e9fc6fe552f9e3c", "asm": "3045022100e92f1093029e4e49ca633a55452fdaa3695e29db53922f324f4e5a91402e4e3e022048c594e391316e5125db7186034be0dcac7fc4f611eacbd79248e2f2ee9871c1[ALL] 03821559641c5eb85d97e268b0249ac6a7b4c89e73258b6ebc8e9fc6fe552f9e3c"}, "vout": 9, "txid": "79a69dce1d9c38ae28120ce20d4c42962bb3e4cf447ec6c856c98515ae613248"}, {"sequence": 4294967294, "scriptSig": {"hex": "483045022100971099932a62c3b7e8a9b554bbbf5a720820beb4c33e768904958aaffee883f6022013366a7cb14ee80922ca2b878f923358669e592c8b279dbc8b4f1ff181833498012103ee515d04e0c0da6f7d76580744b0213226aff8ecf796a1a4b9fd1614cd232459", "asm": "3045022100971099932a62c3b7e8a9b554bbbf5a720820beb4c33e768904958aaffee883f6022013366a7cb14ee80922ca2b878f923358669e592c8b279dbc8b4f1ff181833498[ALL] 03ee515d04e0c0da6f7d76580744b0213226aff8ecf796a1a4b9fd1614cd232459"}, "vout": 6, "txid": "9dcb623eb5f40df846d692f107f5c4eedb884debc298fc9f4b59585df739ac5f"}, {"sequence": 4294967294, "scriptSig": {"hex": "4730440220794a8f1f8e7e6b79b5fca83ec7a3b620086f416c60a84726234431b24753509902201a4f4a189572275faa2899025a8e4b075158e2fb4a7dea4bf813e579499b6ae50121023ef6d9fccb4897243755e1c497c1b29622a453522a037f805f12d60f5047e650", "asm": "30440220794a8f1f8e7e6b79b5fca83ec7a3b620086f416c60a84726234431b24753509902201a4f4a189572275faa2899025a8e4b075158e2fb4a7dea4bf813e579499b6ae5[ALL] 023ef6d9fccb4897243755e1c497c1b29622a453522a037f805f12d60f5047e650"}, "vout": 1, "txid": "a8fc7e9ed545f44b77b2449b811b44f47d490c04e7dd7db39f13ad8d3b1431aa"}, {"sequence": 4294967294, "scriptSig": {"hex": "483045022100a78cdae54e1c5d900c4a8f711cb89ff0ac354e5fa4b29c8b08c39dfa44c7d69202207d16ca582e0751de345d8c1be8b040056efb8222142c40453123e6c070ef0f85012103f9ecb4673d57204d9e94dcaa6d4d45e4b0ebd8efa5e6cf82c58f0637cceb671c", "asm": "3045022100a78cdae54e1c5d900c4a8f711cb89ff0ac354e5fa4b29c8b08c39dfa44c7d69202207d16ca582e0751de345d8c1be8b040056efb8222142c40453123e6c070ef0f85[ALL] 03f9ecb4673d57204d9e94dcaa6d4d45e4b0ebd8efa5e6cf82c58f0637cceb671c"}, "vout": 0, "txid": "7508e8805d2e08201e608ae29cb3a7ff5be35a511311812cf4daa35c6f1ac0b2"}, {"sequence": 4294967294, "scriptSig": {"hex": "48304502210092f4c70168934c280af689692aca94412a222b76b954fd624e950eca761f976b02202e7fa98ab520c440baaf17fef9b2a576496fe40c17556ad4d37b35eeed2a502c012102105969b8bb8cd974a88f16dc8b11b0a56c3a8d51d7848a912328d4367548674d", "asm": "304502210092f4c70168934c280af689692aca94412a222b76b954fd624e950eca761f976b02202e7fa98ab520c440baaf17fef9b2a576496fe40c17556ad4d37b35eeed2a502c[ALL] 02105969b8bb8cd974a88f16dc8b11b0a56c3a8d51d7848a912328d4367548674d"}, "vout": 53, "txid": "4c2f1c76d2ae6ee0a423fe9f89ecf85b6922497f6727343b5ff61d5674242bea"}, {"sequence": 4294967294, "scriptSig": {"hex": "47304402205c0729880c1917dbf9694c28d578eac3b0f6adb9f2be725c5f7180d3fade88930220086f120fbe4fb48093ef6e8a2783592a827ed5cf81fc47b6da4d9fce92364cb1012103598bcfd242fede2d555d2b275d0c37dd72f2e9b2049ddd3d9c81e79a887f457d", "asm": "304402205c0729880c1917dbf9694c28d578eac3b0f6adb9f2be725c5f7180d3fade88930220086f120fbe4fb48093ef6e8a2783592a827ed5cf81fc47b6da4d9fce92364cb1[ALL] 03598bcfd242fede2d555d2b275d0c37dd72f2e9b2049ddd3d9c81e79a887f457d"}, "vout": 0, "txid": "7cc5e7a5d451289b01d5649e28df96197a875b344e7df2959ba03ad6743816ed"}], "txid": "8e8342b0ee15fd7512dc3d73ab60b9f927be3d174fd7555cc8c89e87db1860ce", "blocktime": 1537871767, "version": 2, "confirmations": 11490, "time": 1537871767, "locktime": 542992, "vsize": 964, "size": 964}