{"hash": "611d39d43699e541957d578280ddcd08d64aea6882bb0f5e7265fddd24cba2e0", "blockhash": "0000000000000000001e0dab787dd257d1dbfcb92a98c2207d5e1078be1f4165", "vout": [{"scriptPubKey": {"reqSigs": 1, "hex": "76a9141da3b3c20f49fb2668c6c1de2034a1807f05d79388ac", "addresses": ["13hihnpNLQPTTLwtRCyfGnMQJ1HuH9Hjis"], "asm": "OP_DUP OP_HASH160 1da3b3c20f49fb2668c6c1de2034a1807f05d793 OP_EQUALVERIFY OP_CHECKSIG", "type": "pubkeyhash"}, "value": 0.0121242, "n": 0}, {"scriptPubKey": {"reqSigs": 1, "hex": "a9143ac5d9b0b1d9e387efd8b5d324e75ea675a4268187", "addresses": ["373n8Z3tzFrc31EmXbHb8WHT1jL8kLeGwv"], "asm": "OP_HASH160 3ac5d9b0b1d9e387efd8b5d324e75ea675a42681 OP_EQUAL", "type": "scripthash"}, "value": 0.03893567, "n": 1}], "hex": "0200000000010113d5c4630db145e2cf560ad7f088373f4b900aa2689d537acc301a2e7b426f1a010000001716001454dbb614b0bee9f20bd7b5717c6ad8e863a081e8fdffffff0204801200000000001976a9141da3b3c20f49fb2668c6c1de2034a1807f05d79388ac3f693b000000000017a9143ac5d9b0b1d9e387efd8b5d324e75ea675a426818702483045022100d40537b23bf3bef7e90e0024400e61a6db50a19ea0ae7fcf494d21bee9cbc043022072b0da3ec1c75e1b883572b4d2f582f5ccd51d0407ceb35c408e6548ca8eaa54012103cd54cd744a9cc16eca1a20797ac42e72854ba81a5eaceaa214092cc398fe145c12490800", "vin": [{"txinwitness": ["3045022100d40537b23bf3bef7e90e0024400e61a6db50a19ea0ae7fcf494d21bee9cbc043022072b0da3ec1c75e1b883572b4d2f582f5ccd51d0407ceb35c408e6548ca8eaa5401", "03cd54cd744a9cc16eca1a20797ac42e72854ba81a5eaceaa214092cc398fe145c"], "sequence": 4294967293, "scriptSig": {"hex": "16001454dbb614b0bee9f20bd7b5717c6ad8e863a081e8", "asm": "001454dbb614b0bee9f20bd7b5717c6ad8e863a081e8"}, "vout": 1, "txid": "1a6f427b2e1a30cc7a539d68a20a904b3f3788f0d70a56cfe245b10d63c4d513"}], "txid": "8e84b3f0a501abd59550fc40dc18aa034e1b50cdee85c2a72f718dd63ab39e69", "blocktime": 1537872475, "version": 2, "confirmations": 11486, "time": 1537872475, "locktime": 542994, "vsize": 168, "size": 250}