{"hash": "8ea55f61ab1a463b38daf3556d11788cc524b154d8e0484720e530873727bcb6", "blockhash": "000000000000000000022b45ed06c6f4ccd3cf7fb5ba4856ebd2e58215665228", "vout": [{"scriptPubKey": {"type": "nulldata", "hex": "6a4c500000775f0001f76f0f71b697c2d4765c059d3a016b46dc7dc7d0968d120d670c1906f999d5071489fc5a0da764ec84b34e3d7cba5baa077e06125119424c35b71d100759d4ba30d2c37bb011d97e02cf", "asm": "OP_RETURN 0000775f0001f76f0f71b697c2d4765c059d3a016b46dc7dc7d0968d120d670c1906f999d5071489fc5a0da764ec84b34e3d7cba5baa077e06125119424c35b71d100759d4ba30d2c37bb011d97e02cf"}, "value": 0.0, "n": 0}, {"scriptPubKey": {"reqSigs": 1, "hex": "76a9145c47e0a2e03a3a58f627c980fa025ae9de5f7d7e88ac", "addresses": ["19QwGnT8Xd7DeMsx67dJQngFjbQbaLaDK7"], "asm": "OP_DUP OP_HASH160 5c47e0a2e03a3a58f627c980fa025ae9de5f7d7e OP_EQUALVERIFY OP_CHECKSIG", "type": "pubkeyhash"}, "value": 0.00608725, "n": 1}], "hex": "0100000001e8f211cefd91e417ffd542d2e9ae58194873f8955e9459326eb92da096047147010000006a473044022068495017c67e27403bf57e9188870e7b6b7c27792767588fe6cd85cbe1641ac002205270847af111e7f0ec6963c5c3b10ddbc159eb555b11446b99b12c3c12c37e9e012102f834e7bde642bfb952e3c01059bf5361a1df82347aad805ada2b579e4f79cc6affffffff020000000000000000536a4c500000775f0001f76f0f71b697c2d4765c059d3a016b46dc7dc7d0968d120d670c1906f999d5071489fc5a0da764ec84b34e3d7cba5baa077e06125119424c35b71d100759d4ba30d2c37bb011d97e02cfd5490900000000001976a9145c47e0a2e03a3a58f627c980fa025ae9de5f7d7e88ac00000000", "vin": [{"sequence": 4294967295, "scriptSig": {"hex": "473044022068495017c67e27403bf57e9188870e7b6b7c27792767588fe6cd85cbe1641ac002205270847af111e7f0ec6963c5c3b10ddbc159eb555b11446b99b12c3c12c37e9e012102f834e7bde642bfb952e3c01059bf5361a1df82347aad805ada2b579e4f79cc6a", "asm": "3044022068495017c67e27403bf57e9188870e7b6b7c27792767588fe6cd85cbe1641ac002205270847af111e7f0ec6963c5c3b10ddbc159eb555b11446b99b12c3c12c37e9e[ALL] 02f834e7bde642bfb952e3c01059bf5361a1df82347aad805ada2b579e4f79cc6a"}, "vout": 1, "txid": "47710496a02db96e3259945e95f873481958aee9d242d5ff17e491fdce11f2e8"}], "txid": "8ea55f61ab1a463b38daf3556d11788cc524b154d8e0484720e530873727bcb6", "blocktime": 1537869901, "version": 1, "confirmations": 11522, "time": 1537869901, "locktime": 0, "vsize": 283, "size": 283}