{"hash": "8eaa05236f44c3d8ec4e4eea2ad7a6fab9e89c4ab1002a7f040d5bb229433e57", "blockhash": "000000000000000000022b45ed06c6f4ccd3cf7fb5ba4856ebd2e58215665228", "vout": [{"scriptPubKey": {"reqSigs": 1, "hex": "76a9149e146a351c23569ef70e8435e2c4984432c7b04b88ac", "addresses": ["1FQrDm3mFTvGxrMryuqANVnAsEq1VcFzqP"], "asm": "OP_DUP OP_HASH160 9e146a351c23569ef70e8435e2c4984432c7b04b OP_EQUALVERIFY OP_CHECKSIG", "type": "pubkeyhash"}, "value": 0.01, "n": 0}, {"scriptPubKey": {"reqSigs": 1, "hex": "76a914ef21f9197068e68179bb97f0568d7e1fc570e25488ac", "addresses": ["1NoRCLVEUwdFnZzW2h9MsCypTroPQESUJN"], "asm": "OP_DUP OP_HASH160 ef21f9197068e68179bb97f0568d7e1fc570e254 OP_EQUALVERIFY OP_CHECKSIG", "type": "pubkeyhash"}, "value": 0.3378874, "n": 1}], "hex": "0100000001409c53590d626f46f30396e17aaac83a6f5829abc41ed99ec878cc4f9be1159e000000006a47304402205a0caa32eedb8f37b8d28e375f3dddaa944dfff8cdb03f9d52de0fa25beea76302205ecf21acdf6bcd07fad1599ecd0b5f074346ef5aa50f82d392209e1c083d2f7d012103848612901a94693999ff468cade3a769744645db864ba4bc816d66b818ee452fffffffff0240420f00000000001976a9149e146a351c23569ef70e8435e2c4984432c7b04b88ac44930302000000001976a914ef21f9197068e68179bb97f0568d7e1fc570e25488ac00000000", "vin": [{"sequence": 4294967295, "scriptSig": {"hex": "47304402205a0caa32eedb8f37b8d28e375f3dddaa944dfff8cdb03f9d52de0fa25beea76302205ecf21acdf6bcd07fad1599ecd0b5f074346ef5aa50f82d392209e1c083d2f7d012103848612901a94693999ff468cade3a769744645db864ba4bc816d66b818ee452f", "asm": "304402205a0caa32eedb8f37b8d28e375f3dddaa944dfff8cdb03f9d52de0fa25beea76302205ecf21acdf6bcd07fad1599ecd0b5f074346ef5aa50f82d392209e1c083d2f7d[ALL] 03848612901a94693999ff468cade3a769744645db864ba4bc816d66b818ee452f"}, "vout": 0, "txid": "9e15e19b4fcc78c89ed91ec4ab29586f3ac8aa7ae19603f3466f620d59539c40"}], "txid": "8eaa05236f44c3d8ec4e4eea2ad7a6fab9e89c4ab1002a7f040d5bb229433e57", "blocktime": 1537869901, "version": 1, "confirmations": 11522, "time": 1537869901, "locktime": 0, "vsize": 225, "size": 225}