{"hash": "8ead87891e8726d3d464e898ad7cd3a60123fc05c59dffd867c46725ae94a191", "blockhash": "00000000000000000018f53835495a110e01622372bf6ae95dc86f2b0ab887b0", "vout": [{"scriptPubKey": {"reqSigs": 1, "hex": "76a9147d34b2197b1d8105a7a9e6ca95d2d395f4e6892788ac", "addresses": ["1CR2bLjpzVSGekMVQTQHsdGpoas5nZ9gB9"], "asm": "OP_DUP OP_HASH160 7d34b2197b1d8105a7a9e6ca95d2d395f4e68927 OP_EQUALVERIFY OP_CHECKSIG", "type": "pubkeyhash"}, "value": 0.00887272, "n": 0}, {"scriptPubKey": {"reqSigs": 1, "hex": "76a9144738e89e3f0c77413ebc8ec06c25e7bfec58d75b88ac", "addresses": ["17Vb9hnu7P1kDMhmZyns8EC6hkLWDkDoXB"], "asm": "OP_DUP OP_HASH160 4738e89e3f0c77413ebc8ec06c25e7bfec58d75b OP_EQUALVERIFY OP_CHECKSIG", "type": "pubkeyhash"}, "value": 0.00224594, "n": 1}], "hex": "0100000004d426c5b7a95e3667a82705def49d966b53ba0cea40873f02113bef2e7f1f052c010000006a47304402207c6ab1aa98bcb59708d43855ab8aafc7d97d37e3cff429fda660b8820d0d038d0220594b7c83891aa811166ffeb6a4be458e380cbce0ba6f8754d1b0deb1da7bbd750121030e89008a4d006a3cdc54a06171a1c54af28867a28cfba533f592a08d76fbffb7ffffffff51a62d7bdea00ec90045bb934e4dd1873c108afd0f40db1fd6a7bf53a5f0f906010000006a4730440220548e80555c6d077dce101e11cdd80844bf70d1da64dab58023f2bac12015991202205e78c293a314b04ed6fecf38399d832f1263a08cb9c6740395dff578b62cd94a01210377f1dd70dd2a7b3bc52145624485133bacc0ec21b49d4ac00f96ae42e9630f6effffffffca0a4e8b3f5af95fb126dac023262898aadabfc0003f5fe5329bd5383a18b9f9010000006b483045022100c1642bc98805b17fb953fe2ba0812fa19df888aeaad3fa46697de449db3de39f0220323109238808e765075b9ee3aacdeb7fb08a01d311b27ee63e6696f467d989e9012103897b52365c7c9c2297ae09ae4c130e64fe708a9a669e811f96d3aa16502038abffffffff557b4459c0bdb07b8bf60c376e67e929aae26c252622d57b35ecb4baaf36666f010000006b483045022100d44e8d4fbb256fb04f583095bd660637bb159e6b7e782d916002b2149cbfd2b602203166eba12bcece576d6d99fdcc88bef17c10fd36c2b139a038e7aaded22366c001210349a1a1ea9dbc95ff226ca4f96487525a7e9457d601f318f536316064c3d63d7effffffff02e8890d00000000001976a9147d34b2197b1d8105a7a9e6ca95d2d395f4e6892788ac526d0300000000001976a9144738e89e3f0c77413ebc8ec06c25e7bfec58d75b88ac00000000", "vin": [{"sequence": 4294967295, "scriptSig": {"hex": "47304402207c6ab1aa98bcb59708d43855ab8aafc7d97d37e3cff429fda660b8820d0d038d0220594b7c83891aa811166ffeb6a4be458e380cbce0ba6f8754d1b0deb1da7bbd750121030e89008a4d006a3cdc54a06171a1c54af28867a28cfba533f592a08d76fbffb7", "asm": "304402207c6ab1aa98bcb59708d43855ab8aafc7d97d37e3cff429fda660b8820d0d038d0220594b7c83891aa811166ffeb6a4be458e380cbce0ba6f8754d1b0deb1da7bbd75[ALL] 030e89008a4d006a3cdc54a06171a1c54af28867a28cfba533f592a08d76fbffb7"}, "vout": 1, "txid": "2c051f7f2eef3b11023f8740ea0cba536b969df4de0527a867365ea9b7c526d4"}, {"sequence": 4294967295, "scriptSig": {"hex": "4730440220548e80555c6d077dce101e11cdd80844bf70d1da64dab58023f2bac12015991202205e78c293a314b04ed6fecf38399d832f1263a08cb9c6740395dff578b62cd94a01210377f1dd70dd2a7b3bc52145624485133bacc0ec21b49d4ac00f96ae42e9630f6e", "asm": "30440220548e80555c6d077dce101e11cdd80844bf70d1da64dab58023f2bac12015991202205e78c293a314b04ed6fecf38399d832f1263a08cb9c6740395dff578b62cd94a[ALL] 0377f1dd70dd2a7b3bc52145624485133bacc0ec21b49d4ac00f96ae42e9630f6e"}, "vout": 1, "txid": "06f9f0a553bfa7d61fdb400ffd8a103c87d14d4e93bb4500c90ea0de7b2da651"}, {"sequence": 4294967295, "scriptSig": {"hex": "483045022100c1642bc98805b17fb953fe2ba0812fa19df888aeaad3fa46697de449db3de39f0220323109238808e765075b9ee3aacdeb7fb08a01d311b27ee63e6696f467d989e9012103897b52365c7c9c2297ae09ae4c130e64fe708a9a669e811f96d3aa16502038ab", "asm": "3045022100c1642bc98805b17fb953fe2ba0812fa19df888aeaad3fa46697de449db3de39f0220323109238808e765075b9ee3aacdeb7fb08a01d311b27ee63e6696f467d989e9[ALL] 03897b52365c7c9c2297ae09ae4c130e64fe708a9a669e811f96d3aa16502038ab"}, "vout": 1, "txid": "f9b9183a38d59b32e55f3f00c0bfdaaa98282623c0da26b15ff95a3f8b4e0aca"}, {"sequence": 4294967295, "scriptSig": {"hex": "483045022100d44e8d4fbb256fb04f583095bd660637bb159e6b7e782d916002b2149cbfd2b602203166eba12bcece576d6d99fdcc88bef17c10fd36c2b139a038e7aaded22366c001210349a1a1ea9dbc95ff226ca4f96487525a7e9457d601f318f536316064c3d63d7e", "asm": "3045022100d44e8d4fbb256fb04f583095bd660637bb159e6b7e782d916002b2149cbfd2b602203166eba12bcece576d6d99fdcc88bef17c10fd36c2b139a038e7aaded22366c0[ALL] 0349a1a1ea9dbc95ff226ca4f96487525a7e9457d601f318f536316064c3d63d7e"}, "vout": 1, "txid": "6f6636afbab4ec357bd52226256ce2aa29e9676e370cf68b7bb0bdc059447b55"}], "txid": "8ead87891e8726d3d464e898ad7cd3a60123fc05c59dffd867c46725ae94a191", "blocktime": 1537870928, "version": 1, "confirmations": 11512, "time": 1537870928, "locktime": 0, "vsize": 668, "size": 668}