{"hash": "8eb090b9eaa2254ba7df0e49c457f4fbdb66751042b41efa838499ab569f2744", "blockhash": "0000000000000000000e13cef7c366c0283d82e591d1acd082e914b08063cdf1", "vout": [{"scriptPubKey": {"reqSigs": 1, "hex": "76a9141422fd573b538b053950f73d7a2e066dd3583fd188ac", "addresses": ["12qURxY15JjvLZSL8qLnY6B8JHJe8w91qV"], "asm": "OP_DUP OP_HASH160 1422fd573b538b053950f73d7a2e066dd3583fd1 OP_EQUALVERIFY OP_CHECKSIG", "type": "pubkeyhash"}, "value": 0.001435, "n": 0}, {"scriptPubKey": {"type": "nulldata", "hex": "6a4c5000007797000144fd5e8b98484afb498bd9f9e3ef3236678a625097bcbefa6b8351586b4e5cbc6b76b6c6463e17086ba364ac9d375baa0d1d0614b7d3d1638a7abc9a9526289ac0f6612cd74e33776ee4", "asm": "OP_RETURN 00007797000144fd5e8b98484afb498bd9f9e3ef3236678a625097bcbefa6b8351586b4e5cbc6b76b6c6463e17086ba364ac9d375baa0d1d0614b7d3d1638a7abc9a9526289ac0f6612cd74e33776ee4"}, "value": 0.0, "n": 1}], "hex": "0100000001ca81fd87ccfc956b229c603ab4a3b1a93c1ea73aa023abf50c994bca75a356e4010000006a47304402200a20dabfd9e817dd79abb83e784030d21629c0e7efeb0ca1a1fafe72fcab64fe0220404dd932ee2bbf6106d1f0d20af1fc9293ec96deecc4a956c04f81de42d83b2d012102d902ed163f4e01cd75a254e300541db92d8cc8c2e21c2286e559f1aaa6992214ffffffff028c300200000000001976a9141422fd573b538b053950f73d7a2e066dd3583fd188ac0000000000000000536a4c5000007797000144fd5e8b98484afb498bd9f9e3ef3236678a625097bcbefa6b8351586b4e5cbc6b76b6c6463e17086ba364ac9d375baa0d1d0614b7d3d1638a7abc9a9526289ac0f6612cd74e33776ee400000000", "vin": [{"sequence": 4294967295, "scriptSig": {"hex": "47304402200a20dabfd9e817dd79abb83e784030d21629c0e7efeb0ca1a1fafe72fcab64fe0220404dd932ee2bbf6106d1f0d20af1fc9293ec96deecc4a956c04f81de42d83b2d012102d902ed163f4e01cd75a254e300541db92d8cc8c2e21c2286e559f1aaa6992214", "asm": "304402200a20dabfd9e817dd79abb83e784030d21629c0e7efeb0ca1a1fafe72fcab64fe0220404dd932ee2bbf6106d1f0d20af1fc9293ec96deecc4a956c04f81de42d83b2d[ALL] 02d902ed163f4e01cd75a254e300541db92d8cc8c2e21c2286e559f1aaa6992214"}, "vout": 1, "txid": "e456a375ca4b990cf5ab23a03aa71e3ca9b1a3b43a609c226b95fccc87fd81ca"}], "txid": "8eb090b9eaa2254ba7df0e49c457f4fbdb66751042b41efa838499ab569f2744", "blocktime": 1537871767, "version": 1, "confirmations": 11493, "time": 1537871767, "locktime": 0, "vsize": 283, "size": 283}