{"hash": "ab2462c0d2a1c100139aa555ea811110fccf0c33e6893bfb867d3e60f23e0110", "blockhash": "000000000000000000022b45ed06c6f4ccd3cf7fb5ba4856ebd2e58215665228", "vout": [{"scriptPubKey": {"reqSigs": 1, "hex": "a9149f0baefb0b7727eea8dc00e01a6a51d7583dcc6087", "addresses": ["3GByMq5umiqwyuyAqJiZX9cHrdYyhyP3QN"], "asm": "OP_HASH160 9f0baefb0b7727eea8dc00e01a6a51d7583dcc60 OP_EQUAL", "type": "scripthash"}, "value": 0.01740139, "n": 0}, {"scriptPubKey": {"reqSigs": 1, "hex": "a9149e8e2c0543c84bfb9d9c25703ec08fe3c1e2d07387", "addresses": ["3G9P18hfa3V6W68kk62NpoGc3HVZx2hSB9"], "asm": "OP_HASH160 9e8e2c0543c84bfb9d9c25703ec08fe3c1e2d073 OP_EQUAL", "type": "scripthash"}, "value": 7.26e-05, "n": 1}], "hex": "020000000001012a0f940fcdf63d2a3a10a33c57dc9a02cc4f43e28b47beb9963aa339de7df5430100000017160014f46a9a6dd16a3a77b7dd64afc21cef4d9ac5f36bfeffffff026b8d1a000000000017a9149f0baefb0b7727eea8dc00e01a6a51d7583dcc60875c1c00000000000017a9149e8e2c0543c84bfb9d9c25703ec08fe3c1e2d07387024730440220721f2306f178be99642daabfeeb7b39ad9e5596f9ec54f9b6225f18ce1215b5e0220209ba6494eaf3aed51f8768abcdd2f1cbb1d2d6e7dae1f8d0bd106d31c9e85a90121024097914b8e1f52ee26477812098600cd55f44d257b92f218e9abb3018ddf37b50b490800", "vin": [{"txinwitness": ["30440220721f2306f178be99642daabfeeb7b39ad9e5596f9ec54f9b6225f18ce1215b5e0220209ba6494eaf3aed51f8768abcdd2f1cbb1d2d6e7dae1f8d0bd106d31c9e85a901", "024097914b8e1f52ee26477812098600cd55f44d257b92f218e9abb3018ddf37b5"], "sequence": 4294967294, "scriptSig": {"hex": "160014f46a9a6dd16a3a77b7dd64afc21cef4d9ac5f36b", "asm": "0014f46a9a6dd16a3a77b7dd64afc21cef4d9ac5f36b"}, "vout": 1, "txid": "43f57dde39a33a96b9be478be2434fcc029adc573ca3103a2a3df6cd0f940f2a"}], "txid": "8eb10913077448191557e23387b3b3e326a0eb82bb3fe43bd614f34a9b4d398b", "blocktime": 1537869901, "version": 2, "confirmations": 11524, "time": 1537869901, "locktime": 542987, "vsize": 166, "size": 247}