{"hash": "8eb2ac705ba4fbf3b16bac050b4820652eeda306e718a75c0be405a1bf51d75c", "blockhash": "0000000000000000000e13cef7c366c0283d82e591d1acd082e914b08063cdf1", "vout": [{"scriptPubKey": {"type": "nulldata", "hex": "6a146f6d6e69000000000000001f00002461261f1980", "asm": "OP_RETURN 6f6d6e69000000000000001f00002461261f1980"}, "value": 0.0, "n": 0}, {"scriptPubKey": {"reqSigs": 1, "hex": "76a914a25dec4d0011064ef106a983c39c7a540699f22088ac", "addresses": ["1FoWyxwPXuj4C6abqwhjDWdz6D4PZgYRjA"], "asm": "OP_DUP OP_HASH160 a25dec4d0011064ef106a983c39c7a540699f220 OP_EQUALVERIFY OP_CHECKSIG", "type": "pubkeyhash"}, "value": 0.01971238, "n": 1}, {"scriptPubKey": {"reqSigs": 1, "hex": "76a91490a22efa9fcab2274025c676126e5b0000da4e1f88ac", "addresses": ["1EBkbLEGCgPR6TX6jmMwgvheMsCx8c2Q6S"], "asm": "OP_DUP OP_HASH160 90a22efa9fcab2274025c676126e5b0000da4e1f OP_EQUALVERIFY OP_CHECKSIG", "type": "pubkeyhash"}, "value": 5.46e-06, "n": 2}], "hex": "01000000019867472b647686df741c8b25d8a55cb7cbfff21ceabfe40f23ead769ca30e424010000006b483045022100a6cf912148189505a69bdb54eed4dd93c96a9faed71751b1131fed97c7291a7402207644ad8edaf40f97897d7cc06a418dfa5a70f0edfe3db382d2deb21596d94e80012103da5bac7b36d5aa38f531c6b9601e21bb598a4b6716ebed38b009a55dabde9440feffffff030000000000000000166a146f6d6e69000000000000001f00002461261f198026141e00000000001976a914a25dec4d0011064ef106a983c39c7a540699f22088ac22020000000000001976a91490a22efa9fcab2274025c676126e5b0000da4e1f88ac10490800", "vin": [{"sequence": 4294967294, "scriptSig": {"hex": "483045022100a6cf912148189505a69bdb54eed4dd93c96a9faed71751b1131fed97c7291a7402207644ad8edaf40f97897d7cc06a418dfa5a70f0edfe3db382d2deb21596d94e80012103da5bac7b36d5aa38f531c6b9601e21bb598a4b6716ebed38b009a55dabde9440", "asm": "3045022100a6cf912148189505a69bdb54eed4dd93c96a9faed71751b1131fed97c7291a7402207644ad8edaf40f97897d7cc06a418dfa5a70f0edfe3db382d2deb21596d94e80[ALL] 03da5bac7b36d5aa38f531c6b9601e21bb598a4b6716ebed38b009a55dabde9440"}, "vout": 1, "txid": "24e430ca69d7ea230fe4bfea1cf2ffcbb75ca5d8258b1c74df8676642b476798"}], "txid": "8eb2ac705ba4fbf3b16bac050b4820652eeda306e718a75c0be405a1bf51d75c", "blocktime": 1537871767, "version": 1, "confirmations": 11490, "time": 1537871767, "locktime": 542992, "vsize": 257, "size": 257}