{"hash": "b57509654dc184b02e0f75d6377d3d2da70286ffb27149f2b04e34a587119fad", "blockhash": "0000000000000000000e13cef7c366c0283d82e591d1acd082e914b08063cdf1", "vout": [{"scriptPubKey": {"reqSigs": 1, "hex": "a914e3b79f23576e6df3c3a9f749d787652acfcafc4b87", "addresses": ["3NT5HLuRw353FtY9FU15oc4UBMbTCvsyyz"], "asm": "OP_HASH160 e3b79f23576e6df3c3a9f749d787652acfcafc4b OP_EQUAL", "type": "scripthash"}, "value": 0.0892, "n": 0}, {"scriptPubKey": {"reqSigs": 1, "hex": "a91433f64d872e871fad31c1199a2e90ce683dd7129587", "addresses": ["36RmSkNxJJ1oTzeXQpsqU2Bj3xJv2EbgKz"], "asm": "OP_HASH160 33f64d872e871fad31c1199a2e90ce683dd71295 OP_EQUAL", "type": "scripthash"}, "value": 0.01002078, "n": 1}], "hex": "020000000001064e2084678066e76f9f97ebdfc1cab08785fd03fec262641f23c93048ee6561ec0100000017160014d8630acd04cae6e56609e27f4be7fe2c3eca5c5cfeffffff9229c98478c0f94933a6117b647c2765338f9f97e71423050a3024d37286b2a10200000017160014471121b213163116a692aef014000234d1bb80aafeffffffa96875037255fb703dfdfcd25cff663fa4c35dd77617e465feda17e0bf6cc20b00000000171600142cbd86a0190b27a248b8f8236c54e66bc68b986cfeffffffc9c22269965a7c6bda1caa6502f348d2710a74834ca5b6ff44248ae492b215d900000000171600149d411989447952ab692e2fc4c27fa03374cb9a2cfeffffffceb4e57051ea916f9808dfc433536abfbf5bad499e99a2e20ba956c8fd0e27f3010000006b483045022100c66f6f793eb681f2f5d99c515895f741b95da74f650db6aefff6592453d90c3f022029d8975e60685d7a321012a7f997406d8222422d3f7ff017aa8b180507aea8df012103a5cca3a7b928f74bb921dd642fa8932025204e513c94b229447880902831e604feffffffe404f8ae05663cb14fbda698e75e0f0b07dde394900d7d4d6af43391f24cb48e010000006b483045022100a0ef7967123c72825adffd662becf554cbebaf4fe215367d5960bb3fffa2951b022060aafd855f9689137293a47756a060149a3628df8fd03b48634be0c1f4824f6401210214fe97ef55fd99dafe29e61fca814c85a99e9c74a01e5b03b3cc1f7efa81790dfeffffff02c01b88000000000017a914e3b79f23576e6df3c3a9f749d787652acfcafc4b875e4a0f000000000017a91433f64d872e871fad31c1199a2e90ce683dd712958702483045022100c0048bc0c2d13be9d87daf466984ed3b05fc54ddf9de82493b2cd3ab71ca9a91022051264b083066b4c56f405ed0149b8d8231789d1c274e4906c47d1dc555c56255012103283a86a83733cbbfa433ef1c0e56a30bc0fbd1272098f0e788542af794e3c75d02483045022100daa920200de6a2684e8a571ca47c334eb02db1d859f92588809db4649ec1bbc402200867c938f61400afed9fcfbcbfc6fbf5bbe3a66f779427826793bf1013bd751701210396cf15f6aeff29667c3cb88a7f0ab6ad5ad4ce48d878cdb4188b73e63aa278e202483045022100c5f7764bbd0e7efbdf27fc7375f7e1be5ddf55c97fa51e169d321ea08cd18166022010de4bd47d54ac875e0028c964fe29f7ba2fafaf038bcc405057a756d0778e2a0121022190abeefd10c1cee1e0d33f4a890ebed71000088a1baf270df29a7364201b3d0247304402205ba73800301452f5675f91c9a4ab694599b6cf2420bbc0beee44a1710056097f02206d4d2549fb5e5e33927b266238cbde00905bb3c267e4c51bb48395a10b721e77012102e77d9a596cd0779fc7ac8ae20783c555511fda2a02b36fc180210c4ea02ede1b000010490800", "vin": [{"txinwitness": ["3045022100c0048bc0c2d13be9d87daf466984ed3b05fc54ddf9de82493b2cd3ab71ca9a91022051264b083066b4c56f405ed0149b8d8231789d1c274e4906c47d1dc555c5625501", "03283a86a83733cbbfa433ef1c0e56a30bc0fbd1272098f0e788542af794e3c75d"], "sequence": 4294967294, "scriptSig": {"hex": "160014d8630acd04cae6e56609e27f4be7fe2c3eca5c5c", "asm": "0014d8630acd04cae6e56609e27f4be7fe2c3eca5c5c"}, "vout": 1, "txid": "ec6165ee4830c9231f6462c2fe03fd8587b0cac1dfeb979f6fe766806784204e"}, {"txinwitness": ["3045022100daa920200de6a2684e8a571ca47c334eb02db1d859f92588809db4649ec1bbc402200867c938f61400afed9fcfbcbfc6fbf5bbe3a66f779427826793bf1013bd751701", "0396cf15f6aeff29667c3cb88a7f0ab6ad5ad4ce48d878cdb4188b73e63aa278e2"], "sequence": 4294967294, "scriptSig": {"hex": "160014471121b213163116a692aef014000234d1bb80aa", "asm": "0014471121b213163116a692aef014000234d1bb80aa"}, "vout": 2, "txid": "a1b28672d324300a052314e7979f8f3365277c647b11a63349f9c07884c92992"}, {"txinwitness": ["3045022100c5f7764bbd0e7efbdf27fc7375f7e1be5ddf55c97fa51e169d321ea08cd18166022010de4bd47d54ac875e0028c964fe29f7ba2fafaf038bcc405057a756d0778e2a01", "022190abeefd10c1cee1e0d33f4a890ebed71000088a1baf270df29a7364201b3d"], "sequence": 4294967294, "scriptSig": {"hex": "1600142cbd86a0190b27a248b8f8236c54e66bc68b986c", "asm": "00142cbd86a0190b27a248b8f8236c54e66bc68b986c"}, "vout": 0, "txid": "0bc26cbfe017dafe65e41776d75dc3a43f66ff5cd2fcfd3d70fb5572037568a9"}, {"txinwitness": ["304402205ba73800301452f5675f91c9a4ab694599b6cf2420bbc0beee44a1710056097f02206d4d2549fb5e5e33927b266238cbde00905bb3c267e4c51bb48395a10b721e7701", "02e77d9a596cd0779fc7ac8ae20783c555511fda2a02b36fc180210c4ea02ede1b"], "sequence": 4294967294, "scriptSig": {"hex": "1600149d411989447952ab692e2fc4c27fa03374cb9a2c", "asm": "00149d411989447952ab692e2fc4c27fa03374cb9a2c"}, "vout": 0, "txid": "d915b292e48a2444ffb6a54c83740a71d248f30265aa1cda6b7c5a966922c2c9"}, {"sequence": 4294967294, "scriptSig": {"hex": "483045022100c66f6f793eb681f2f5d99c515895f741b95da74f650db6aefff6592453d90c3f022029d8975e60685d7a321012a7f997406d8222422d3f7ff017aa8b180507aea8df012103a5cca3a7b928f74bb921dd642fa8932025204e513c94b229447880902831e604", "asm": "3045022100c66f6f793eb681f2f5d99c515895f741b95da74f650db6aefff6592453d90c3f022029d8975e60685d7a321012a7f997406d8222422d3f7ff017aa8b180507aea8df[ALL] 03a5cca3a7b928f74bb921dd642fa8932025204e513c94b229447880902831e604"}, "vout": 1, "txid": "f3270efdc856a90be2a2999e49ad5bbfbf6a5333c4df08986f91ea5170e5b4ce"}, {"sequence": 4294967294, "scriptSig": {"hex": "483045022100a0ef7967123c72825adffd662becf554cbebaf4fe215367d5960bb3fffa2951b022060aafd855f9689137293a47756a060149a3628df8fd03b48634be0c1f4824f6401210214fe97ef55fd99dafe29e61fca814c85a99e9c74a01e5b03b3cc1f7efa81790d", "asm": "3045022100a0ef7967123c72825adffd662becf554cbebaf4fe215367d5960bb3fffa2951b022060aafd855f9689137293a47756a060149a3628df8fd03b48634be0c1f4824f64[ALL] 0214fe97ef55fd99dafe29e61fca814c85a99e9c74a01e5b03b3cc1f7efa81790d"}, "vout": 1, "txid": "8eb44cf29133f46a4d7d0d9094e3dd070b0f5ee798a6bd4fb13c6605aef804e4"}], "txid": "8eb26af98b701cc78ce93762ca1ae1df78bbc5d2bd929ca733b31d7dc5a6217d", "blocktime": 1537871767, "version": 2, "confirmations": 11495, "time": 1537871767, "locktime": 542992, "vsize": 735, "size": 1061}