{"hash": "8ebbfce84167308902617052c0e0e70d8901311cb51ac6182bf876b4405679e2", "blockhash": "0000000000000000001e0dab787dd257d1dbfcb92a98c2207d5e1078be1f4165", "vout": [{"scriptPubKey": {"reqSigs": 1, "hex": "a91415c016937ee689b3f3d623a8d4ceee20893b632287", "addresses": ["33g2E6NjCtUGYY6aT9JYUdB4SunxitBwms"], "asm": "OP_HASH160 15c016937ee689b3f3d623a8d4ceee20893b6322 OP_EQUAL", "type": "scripthash"}, "value": 0.01506599, "n": 0}, {"scriptPubKey": {"reqSigs": 1, "hex": "76a9146586ced214191eaee684bf8787713d2671eff5aa88ac", "addresses": ["1AFpjzWNNtmMamjbbSSNLiVdktzrYMspCQ"], "asm": "OP_DUP OP_HASH160 6586ced214191eaee684bf8787713d2671eff5aa OP_EQUALVERIFY OP_CHECKSIG", "type": "pubkeyhash"}, "value": 0.29778604, "n": 1}], "hex": "02000000012bb6bd1ee4e7aa50dabc154fac011e1810d61bdf85d23968e614294d5b0c1e38010000006a4730440220689ead238600383b0106f3b2169a4d2dc772087ccd05b4ba1ffebc5fe56b2f40022027fccf0ba3f467b93aec9e58e32bbaf9de19f2fd8e5f312f10c7963f54b1dae801210210dac65f236a05432a1dbd2f909aa1c6e1870304203e734e8d07db9b57443d46ffffffff0227fd16000000000017a91415c016937ee689b3f3d623a8d4ceee20893b632287ac62c601000000001976a9146586ced214191eaee684bf8787713d2671eff5aa88ac00000000", "vin": [{"sequence": 4294967295, "scriptSig": {"hex": "4730440220689ead238600383b0106f3b2169a4d2dc772087ccd05b4ba1ffebc5fe56b2f40022027fccf0ba3f467b93aec9e58e32bbaf9de19f2fd8e5f312f10c7963f54b1dae801210210dac65f236a05432a1dbd2f909aa1c6e1870304203e734e8d07db9b57443d46", "asm": "30440220689ead238600383b0106f3b2169a4d2dc772087ccd05b4ba1ffebc5fe56b2f40022027fccf0ba3f467b93aec9e58e32bbaf9de19f2fd8e5f312f10c7963f54b1dae8[ALL] 0210dac65f236a05432a1dbd2f909aa1c6e1870304203e734e8d07db9b57443d46"}, "vout": 1, "txid": "381e0c5b4d2914e66839d285df1bd610181e01ac4f15bcda50aae7e41ebdb62b"}], "txid": "8ebbfce84167308902617052c0e0e70d8901311cb51ac6182bf876b4405679e2", "blocktime": 1537872475, "version": 2, "confirmations": 11486, "time": 1537872475, "locktime": 0, "vsize": 223, "size": 223}