{"hash": "8ebc64e52a63c219fa0913601115b927306bae036feb7b0224c24d770463f86d", "blockhash": "0000000000000000000e13cef7c366c0283d82e591d1acd082e914b08063cdf1", "vout": [{"scriptPubKey": {"reqSigs": 1, "hex": "76a914d243e6abb9a60fbff430b421d2df4b7d59ec186088ac", "addresses": ["1LAnF8h3qMGx3TSwNUHVneBZUEpwE4gu3D"], "asm": "OP_DUP OP_HASH160 d243e6abb9a60fbff430b421d2df4b7d59ec1860 OP_EQUALVERIFY OP_CHECKSIG", "type": "pubkeyhash"}, "value": 0.00076972, "n": 0}, {"scriptPubKey": {"reqSigs": 1, "hex": "76a9143851f34d13937b673a7d24a1950bb5b21ce94af388ac", "addresses": ["168o1kqNquEJeR9vosUB5fw4eAwcVAgh8P"], "asm": "OP_DUP OP_HASH160 3851f34d13937b673a7d24a1950bb5b21ce94af3 OP_EQUALVERIFY OP_CHECKSIG", "type": "pubkeyhash"}, "value": 5.46e-06, "n": 1}, {"scriptPubKey": {"type": "nulldata", "hex": "6a146f6d6e69000000000000001f0000035d438a9f00", "asm": "OP_RETURN 6f6d6e69000000000000001f0000035d438a9f00"}, "value": 0.0, "n": 2}], "hex": "01000000023721abd7b181a7828ed03afe38b0eca05fd7e4b277afbcfbee98810400a070fb020000006b4830450221008dc0b07f5cfcc0e7ce62fb56132986058ecde424403dba8ee9f743e1c634b19202202b9c90f2c6e090cfc2cf11128a1050ae5d5345b40a3f7415b6284aef3ff4cd8301210273072744e0166d1859392c9b24768d5902d0876ff9be26a40fb6ec687abd0eceffffffff62354c2c7eec573cd3e7ebdb7ccdabae571464f69178c6a95a63315477bb6f9f000000006a47304402206d5a13f36196a2cff22ae933a4731fe6d623fb53fa4034c70b6d5c5f219f3cba02207402136d4c838f267612561790d80d461fae80bc708f2b70fb5cc9450914c7ad01210271977291b74f1f5f5c42157e8aae804664eaaeccfd097918450d37f28fb94d77ffffffff03ac2c0100000000001976a914d243e6abb9a60fbff430b421d2df4b7d59ec186088ac22020000000000001976a9143851f34d13937b673a7d24a1950bb5b21ce94af388ac0000000000000000166a146f6d6e69000000000000001f0000035d438a9f0000000000", "vin": [{"sequence": 4294967295, "scriptSig": {"hex": "4830450221008dc0b07f5cfcc0e7ce62fb56132986058ecde424403dba8ee9f743e1c634b19202202b9c90f2c6e090cfc2cf11128a1050ae5d5345b40a3f7415b6284aef3ff4cd8301210273072744e0166d1859392c9b24768d5902d0876ff9be26a40fb6ec687abd0ece", "asm": "30450221008dc0b07f5cfcc0e7ce62fb56132986058ecde424403dba8ee9f743e1c634b19202202b9c90f2c6e090cfc2cf11128a1050ae5d5345b40a3f7415b6284aef3ff4cd83[ALL] 0273072744e0166d1859392c9b24768d5902d0876ff9be26a40fb6ec687abd0ece"}, "vout": 2, "txid": "fb70a000048198eefbbcaf77b2e4d75fa0ecb038fe3ad08e82a781b1d7ab2137"}, {"sequence": 4294967295, "scriptSig": {"hex": "47304402206d5a13f36196a2cff22ae933a4731fe6d623fb53fa4034c70b6d5c5f219f3cba02207402136d4c838f267612561790d80d461fae80bc708f2b70fb5cc9450914c7ad01210271977291b74f1f5f5c42157e8aae804664eaaeccfd097918450d37f28fb94d77", "asm": "304402206d5a13f36196a2cff22ae933a4731fe6d623fb53fa4034c70b6d5c5f219f3cba02207402136d4c838f267612561790d80d461fae80bc708f2b70fb5cc9450914c7ad[ALL] 0271977291b74f1f5f5c42157e8aae804664eaaeccfd097918450d37f28fb94d77"}, "vout": 0, "txid": "9f6fbb775431635aa9c67891f6641457aeabcd7cdbebe7d33c57ec7e2c4c3562"}], "txid": "8ebc64e52a63c219fa0913601115b927306bae036feb7b0224c24d770463f86d", "blocktime": 1537871767, "version": 1, "confirmations": 11491, "time": 1537871767, "locktime": 0, "vsize": 404, "size": 404}