{"hash": "8ec9e298afe57ae263f184a74a597e044dd8c753f65c2f50d2af381288dfc709", "blockhash": "00000000000000000024a2167bbff67b0be802c0b01cdd79e6331c2be6459f87", "vout": [{"scriptPubKey": {"reqSigs": 1, "hex": "76a91461b9263a70ce92badac8df205127ff600d04e1a688ac", "addresses": ["19uiM1VWNSab5wvokrC4PqT4BP5gy9LGpG"], "asm": "OP_DUP OP_HASH160 61b9263a70ce92badac8df205127ff600d04e1a6 OP_EQUALVERIFY OP_CHECKSIG", "type": "pubkeyhash"}, "value": 0.08507023, "n": 0}, {"scriptPubKey": {"reqSigs": 1, "hex": "76a91452936f03afd7352c62f791e8ececb121965e809f88ac", "addresses": ["18Xd2bnLYkBKKTzAYGkxvfwdSc1vdQQ4X3"], "asm": "OP_DUP OP_HASH160 52936f03afd7352c62f791e8ececb121965e809f OP_EQUALVERIFY OP_CHECKSIG", "type": "pubkeyhash"}, "value": 0.04886641, "n": 1}], "hex": "01000000038171cfaf4e213e8630f937408d90281670f10b44c35296410707d86aca1e7ce4000000006a473044022014f09213e78687af3068d0fe200b9aa1f372222fc722ac6df724c44473da07d5022003e5bc9b5e35b02580279e4a246162596208d3c45609864ec711319600081d54012103f22801334df35f64316ed41160d1cd04837e57c546963acc2d01dc5adc00776cffffffffcbec91d6c5e7b653400050d427da8dbde84815c7b925ab3b620dc33e54bc7729010000006a47304402206bd9ede405b33b66c74b3e61ca70689ceb8b9bba6a59edd276f7ff77a777cd7a022052b3f52c4747d4794f2ec39a31fdec6d506b27abeb2af95f27428b9096eb2f090121020f0dc32c57f52207f63f2142b66fa6b3f5bd3f7bd4f92adda3c4c58d2d5d2e54ffffffff7c74109f50d18d2fc8105ff4a4a22938754f6a3dbd7f021407b29ff077b68efa010000006b483045022100c7f62145bf0d3b8a537ff13d2355375ec13ad3a9a1540d6be48bcb574e0c34c102207a5987d2801b577fdf45e64ecf1b6d355500655b630202f816f8d37990902c6c012103573c7753ac626b2496cb687c78bf44b77701886f5db27215bdb04c59db4a9455ffffffff028fce8100000000001976a91461b9263a70ce92badac8df205127ff600d04e1a688ac71904a00000000001976a91452936f03afd7352c62f791e8ececb121965e809f88ac00000000", "vin": [{"sequence": 4294967295, "scriptSig": {"hex": "473044022014f09213e78687af3068d0fe200b9aa1f372222fc722ac6df724c44473da07d5022003e5bc9b5e35b02580279e4a246162596208d3c45609864ec711319600081d54012103f22801334df35f64316ed41160d1cd04837e57c546963acc2d01dc5adc00776c", "asm": "3044022014f09213e78687af3068d0fe200b9aa1f372222fc722ac6df724c44473da07d5022003e5bc9b5e35b02580279e4a246162596208d3c45609864ec711319600081d54[ALL] 03f22801334df35f64316ed41160d1cd04837e57c546963acc2d01dc5adc00776c"}, "vout": 0, "txid": "e47c1eca6ad80707419652c3440bf1701628908d4037f930863e214eafcf7181"}, {"sequence": 4294967295, "scriptSig": {"hex": "47304402206bd9ede405b33b66c74b3e61ca70689ceb8b9bba6a59edd276f7ff77a777cd7a022052b3f52c4747d4794f2ec39a31fdec6d506b27abeb2af95f27428b9096eb2f090121020f0dc32c57f52207f63f2142b66fa6b3f5bd3f7bd4f92adda3c4c58d2d5d2e54", "asm": "304402206bd9ede405b33b66c74b3e61ca70689ceb8b9bba6a59edd276f7ff77a777cd7a022052b3f52c4747d4794f2ec39a31fdec6d506b27abeb2af95f27428b9096eb2f09[ALL] 020f0dc32c57f52207f63f2142b66fa6b3f5bd3f7bd4f92adda3c4c58d2d5d2e54"}, "vout": 1, "txid": "2977bc543ec30d623bab25b9c71548e8bd8dda27d450004053b6e7c5d691eccb"}, {"sequence": 4294967295, "scriptSig": {"hex": "483045022100c7f62145bf0d3b8a537ff13d2355375ec13ad3a9a1540d6be48bcb574e0c34c102207a5987d2801b577fdf45e64ecf1b6d355500655b630202f816f8d37990902c6c012103573c7753ac626b2496cb687c78bf44b77701886f5db27215bdb04c59db4a9455", "asm": "3045022100c7f62145bf0d3b8a537ff13d2355375ec13ad3a9a1540d6be48bcb574e0c34c102207a5987d2801b577fdf45e64ecf1b6d355500655b630202f816f8d37990902c6c[ALL] 03573c7753ac626b2496cb687c78bf44b77701886f5db27215bdb04c59db4a9455"}, "vout": 1, "txid": "fa8eb677f09fb20714027fbd3d6a4f753829a2a4f45f10c82f8dd1509f10747c"}], "txid": "8ec9e298afe57ae263f184a74a597e044dd8c753f65c2f50d2af381288dfc709", "blocktime": 1537870564, "version": 1, "confirmations": 11515, "time": 1537870564, "locktime": 0, "vsize": 520, "size": 520}