{"hash": "8ecb999e8b10ed42fafd03a181076583652075b0fd3cf5fbffa3dffedf47e294", "blockhash": "0000000000000000001cda96e906b7601b7a6fb1a3b62bca570a9e5d8f4b3de1", "vout": [{"scriptPubKey": {"reqSigs": 1, "hex": "76a914161d8b59d502cc2aa69f25ecf8c8deacc69ce69888ac", "addresses": ["131wFzpnbtLEYBDLAu3Z8tPd6inyr6jsJ9"], "asm": "OP_DUP OP_HASH160 161d8b59d502cc2aa69f25ecf8c8deacc69ce698 OP_EQUALVERIFY OP_CHECKSIG", "type": "pubkeyhash"}, "value": 0.00078099, "n": 0}, {"scriptPubKey": {"reqSigs": 1, "hex": "76a914da09ab063ee081b70625444b3e96ef61a057b5e288ac", "addresses": ["1LsstZwQmMwfyfdUZo3kk4xNzvYNSEGWgk"], "asm": "OP_DUP OP_HASH160 da09ab063ee081b70625444b3e96ef61a057b5e2 OP_EQUALVERIFY OP_CHECKSIG", "type": "pubkeyhash"}, "value": 0.0153192, "n": 1}], "hex": "0100000001ada407aab7e143d7df08517e02a4742a381de0cee9ea8c1eaa30648f47ba8275010000006a47304402207ae86837d2dd96cf092b3229e4dc0b26d3ba82994e7128d7f672505c9857fa5e02206c12d9eba8e26d317680494f2b02cbca70afc712ae4d9abd497d39250333b16c012103ad6637289ae5494a795d5f7f2d5e440359496bd14bfbe71c0a15111eb1585916ffffffff0213310100000000001976a914161d8b59d502cc2aa69f25ecf8c8deacc69ce69888ac10601700000000001976a914da09ab063ee081b70625444b3e96ef61a057b5e288ac00000000", "vin": [{"sequence": 4294967295, "scriptSig": {"hex": "47304402207ae86837d2dd96cf092b3229e4dc0b26d3ba82994e7128d7f672505c9857fa5e02206c12d9eba8e26d317680494f2b02cbca70afc712ae4d9abd497d39250333b16c012103ad6637289ae5494a795d5f7f2d5e440359496bd14bfbe71c0a15111eb1585916", "asm": "304402207ae86837d2dd96cf092b3229e4dc0b26d3ba82994e7128d7f672505c9857fa5e02206c12d9eba8e26d317680494f2b02cbca70afc712ae4d9abd497d39250333b16c[ALL] 03ad6637289ae5494a795d5f7f2d5e440359496bd14bfbe71c0a15111eb1585916"}, "vout": 1, "txid": "7582ba478f6430aa1e8ceae9cee01d382a74a4027e5108dfd743e1b7aa07a4ad"}], "txid": "8ecb999e8b10ed42fafd03a181076583652075b0fd3cf5fbffa3dffedf47e294", "blocktime": 1537873282, "version": 1, "confirmations": 11483, "time": 1537873282, "locktime": 0, "vsize": 225, "size": 225}