{"hash": "82ccc14f7c74a4e73025af4ba7fac56ea7130638a28d4541a868d7838acb6df5", "blockhash": "000000000000000000022b45ed06c6f4ccd3cf7fb5ba4856ebd2e58215665228", "vout": [{"scriptPubKey": {"reqSigs": 1, "hex": "a914b463f2b14d32182e30ffb37c0e95d7dd4f07bf2287", "addresses": ["3J8qHanLUhnUvm2HrtqikfkirVqcRWB5Zt"], "asm": "OP_HASH160 b463f2b14d32182e30ffb37c0e95d7dd4f07bf22 OP_EQUAL", "type": "scripthash"}, "value": 0.009, "n": 0}, {"scriptPubKey": {"reqSigs": 1, "hex": "0014f1cefa7a7d2532e5f5514dad2b6472dc35f57964", "addresses": ["bc1q788057nay5ewta23fkkjkerjms6l27tyfsse63"], "asm": "0 f1cefa7a7d2532e5f5514dad2b6472dc35f57964", "type": "witness_v0_keyhash"}, "value": 1.32793339, "n": 1}], "hex": "02000000000101834a98c313be08108c95ed237d54583ce0fb7b649dd679af2215d27c549433840000000000feffffff02a0bb0d000000000017a914b463f2b14d32182e30ffb37c0e95d7dd4f07bf2287fb43ea0700000000160014f1cefa7a7d2532e5f5514dad2b6472dc35f5796402483045022100cd5d0a64cb0221b11a072810b023746eb9889c6e39d30279e2cee62abca220d20220034a6cb304f829ea8242f853d827548f6e89eeb838468a6708c3b42d898ff434012102dd3e97d858c77268c8463cfcb02e3042daf7aeb277014edc959d2cd5be785aaf00000000", "vin": [{"txinwitness": ["3045022100cd5d0a64cb0221b11a072810b023746eb9889c6e39d30279e2cee62abca220d20220034a6cb304f829ea8242f853d827548f6e89eeb838468a6708c3b42d898ff43401", "02dd3e97d858c77268c8463cfcb02e3042daf7aeb277014edc959d2cd5be785aaf"], "sequence": 4294967294, "scriptSig": {"hex": "", "asm": ""}, "vout": 0, "txid": "843394547cd21522af79d69d647bfbe03c58547d23ed958c1008be13c3984a83"}], "txid": "8ed2fc97e1df0a840dfad85ac0b953ba71cd9763d47320bf124c49d2fe0f0315", "blocktime": 1537869901, "version": 2, "confirmations": 11524, "time": 1537869901, "locktime": 0, "vsize": 142, "size": 224}