{"hash": "8ed502863902d0797b10e09e5a37662aa9b19aea7f1dd3111768c84b5d1b07fe", "blockhash": "000000000000000000022b45ed06c6f4ccd3cf7fb5ba4856ebd2e58215665228", "vout": [{"scriptPubKey": {"reqSigs": 1, "hex": "76a9144f82212d8b3ced0f1cecf7a9c1218bb78aecb7a588ac", "addresses": ["18FQGidh4SjCPrw2XWeHwjGbWiLgcYeBG3"], "asm": "OP_DUP OP_HASH160 4f82212d8b3ced0f1cecf7a9c1218bb78aecb7a5 OP_EQUALVERIFY OP_CHECKSIG", "type": "pubkeyhash"}, "value": 0.00499699, "n": 0}, {"scriptPubKey": {"reqSigs": 1, "hex": "76a91447771864aefcfce37135bca320cc088fbd60201f88ac", "addresses": ["17WseWKaDkdYN7AKTJujaazK6YxBJjeZr2"], "asm": "OP_DUP OP_HASH160 47771864aefcfce37135bca320cc088fbd60201f OP_EQUALVERIFY OP_CHECKSIG", "type": "pubkeyhash"}, "value": 0.69988733, "n": 1}], "hex": "0100000001e2e4a209267a60ca7bf02a52a062fc02be32de9704beca5dc948923addf86631010000006a47304402201e7323753f14b94770bd3c40f7019136cd7c00d892c6eb065455aceea1f998e4022057d0daebfcfbe50390a7a09fb61fe87d6953f597064ecef12d4c9897c8e326ea01210351fce95d2a67a937cc55df7ced0124390fc15148916cbb922a4f97d56cf08f49ffffffff02f39f0700000000001976a9144f82212d8b3ced0f1cecf7a9c1218bb78aecb7a588ac7df12b04000000001976a91447771864aefcfce37135bca320cc088fbd60201f88ac00000000", "vin": [{"sequence": 4294967295, "scriptSig": {"hex": "47304402201e7323753f14b94770bd3c40f7019136cd7c00d892c6eb065455aceea1f998e4022057d0daebfcfbe50390a7a09fb61fe87d6953f597064ecef12d4c9897c8e326ea01210351fce95d2a67a937cc55df7ced0124390fc15148916cbb922a4f97d56cf08f49", "asm": "304402201e7323753f14b94770bd3c40f7019136cd7c00d892c6eb065455aceea1f998e4022057d0daebfcfbe50390a7a09fb61fe87d6953f597064ecef12d4c9897c8e326ea[ALL] 0351fce95d2a67a937cc55df7ced0124390fc15148916cbb922a4f97d56cf08f49"}, "vout": 1, "txid": "3166f8dd3a9248c95dcabe0497de32be02fc62a0522af07bca607a2609a2e4e2"}], "txid": "8ed502863902d0797b10e09e5a37662aa9b19aea7f1dd3111768c84b5d1b07fe", "blocktime": 1537869901, "version": 1, "confirmations": 11524, "time": 1537869901, "locktime": 0, "vsize": 225, "size": 225}