{"hash": "db0b006fc5d72fc7191eb921d06d042e105b335cd6baa6db7fc934f27f86f03e", "blockhash": "0000000000000000001cda96e906b7601b7a6fb1a3b62bca570a9e5d8f4b3de1", "vout": [{"scriptPubKey": {"reqSigs": 1, "hex": "a91459fe2cc8080597e4325fa8be67d264b2c4b11ec587", "addresses": ["39trYzxyBcBLfsBEQbscURcyZtAxmWC9ue"], "asm": "OP_HASH160 59fe2cc8080597e4325fa8be67d264b2c4b11ec5 OP_EQUAL", "type": "scripthash"}, "value": 40.24570171, "n": 0}, {"scriptPubKey": {"reqSigs": 1, "hex": "a91469f375e9509bb40835febcb0f10e0c20f362740787", "addresses": ["3BMEXdAhuTK6Seo9Y1mgM7tUytPWQuwWmg"], "asm": "OP_HASH160 69f375e9509bb40835febcb0f10e0c20f3627407 OP_EQUAL", "type": "scripthash"}, "value": 0.00597945, "n": 1}], "hex": "0200000000010195676a44d675ec475bd55606233b291ec015d05c355f79f7eee544081f49ee0c000000001716001468878cc0d8b8166043e19c1671a48fee02546f92feffffff023b11e2ef0000000017a91459fe2cc8080597e4325fa8be67d264b2c4b11ec587b91f09000000000017a91469f375e9509bb40835febcb0f10e0c20f36274078702483045022100b6e296cee8901b07452db7d14c053cdf0e324c62fae13c9fc26dc99eebbb688a0220754a39cb4fdcbae04181893f57f913376be813296284bcbaeb10b07bbda0caef0121031ef75da045ce7ce4f1744e2c4caec15b9ae2e7fdea6833f86d42eb2b4d2a236a13490800", "vin": [{"txinwitness": ["3045022100b6e296cee8901b07452db7d14c053cdf0e324c62fae13c9fc26dc99eebbb688a0220754a39cb4fdcbae04181893f57f913376be813296284bcbaeb10b07bbda0caef01", "031ef75da045ce7ce4f1744e2c4caec15b9ae2e7fdea6833f86d42eb2b4d2a236a"], "sequence": 4294967294, "scriptSig": {"hex": "16001468878cc0d8b8166043e19c1671a48fee02546f92", "asm": "001468878cc0d8b8166043e19c1671a48fee02546f92"}, "vout": 0, "txid": "0cee491f0844e5eef7795f355cd015c01e293b230656d55b47ec75d6446a6795"}], "txid": "8ed73637be115bddf538f67af9038e715b60061f4745d900089b5612a0c1ad48", "blocktime": 1537873282, "version": 2, "confirmations": 11480, "time": 1537873282, "locktime": 542995, "vsize": 166, "size": 248}