{"hash": "8ee0018c5ef10edaabe640381d16555d6cc162dd0df84f8513d65d6f2fa12bc8", "blockhash": "0000000000000000000baef3f32e3676a92c3b2e5da21b426e4f302fc371ce76", "vout": [{"scriptPubKey": {"type": "nulldata", "hex": "6a146f6d6e69000000000000001f000000a50d363b2c", "asm": "OP_RETURN 6f6d6e69000000000000001f000000a50d363b2c"}, "value": 0.0, "n": 0}, {"scriptPubKey": {"reqSigs": 1, "hex": "76a91436f86bf26281b15c0ce3cdd0aa82158bfb8bd0ab88ac", "addresses": ["161f5zwEwyqmLY8kTyJMpUuyBZXjdupru7"], "asm": "OP_DUP OP_HASH160 36f86bf26281b15c0ce3cdd0aa82158bfb8bd0ab OP_EQUALVERIFY OP_CHECKSIG", "type": "pubkeyhash"}, "value": 5.46e-06, "n": 1}, {"scriptPubKey": {"reqSigs": 1, "hex": "76a914882cc4f54c2ea08d18892bb11ab27fc43e466e7188ac", "addresses": ["1DR2XiiEjs91cTtp1LxyqEKm5ihNABmRZ7"], "asm": "OP_DUP OP_HASH160 882cc4f54c2ea08d18892bb11ab27fc43e466e71 OP_EQUALVERIFY OP_CHECKSIG", "type": "pubkeyhash"}, "value": 0.11014182, "n": 2}], "hex": "010000000126eaa4e60eff266b35d73a999395659fb04865a8b62d11e2073f1dcdc66af0be010000006a473044022059e4419c267b7ed2ea04c064403a0ad4f16cfc0d234871cc0f92293babe089f0022028524961d2aa737e2716b0f95c62cfeba91240428a83d51663d1aa743247a3e5012102d7800c61a710c2c233322b2fbdcbbd492c162678a6cf6e859c3b7322e14189eefeffffff030000000000000000166a146f6d6e69000000000000001f000000a50d363b2c22020000000000001976a91436f86bf26281b15c0ce3cdd0aa82158bfb8bd0ab88ac2610a800000000001976a914882cc4f54c2ea08d18892bb11ab27fc43e466e7188ac17490800", "vin": [{"sequence": 4294967294, "scriptSig": {"hex": "473044022059e4419c267b7ed2ea04c064403a0ad4f16cfc0d234871cc0f92293babe089f0022028524961d2aa737e2716b0f95c62cfeba91240428a83d51663d1aa743247a3e5012102d7800c61a710c2c233322b2fbdcbbd492c162678a6cf6e859c3b7322e14189ee", "asm": "3044022059e4419c267b7ed2ea04c064403a0ad4f16cfc0d234871cc0f92293babe089f0022028524961d2aa737e2716b0f95c62cfeba91240428a83d51663d1aa743247a3e5[ALL] 02d7800c61a710c2c233322b2fbdcbbd492c162678a6cf6e859c3b7322e14189ee"}, "vout": 1, "txid": "bef06ac6cd1d3f07e2112db6a86548b09f659593993ad7356b26ff0ee6a4ea26"}], "txid": "8ee0018c5ef10edaabe640381d16555d6cc162dd0df84f8513d65d6f2fa12bc8", "blocktime": 1537876114, "version": 1, "confirmations": 11459, "time": 1537876114, "locktime": 542999, "vsize": 256, "size": 256}