{"hash": "48727ce709170debb605f4c46c0f39d632284a4daf2a7de2a8d13019cf8dd848", "blockhash": "00000000000000000017f5eb5941039fbcee6240d03bc1f2f8e35350df66a1d8", "vout": [{"scriptPubKey": {"reqSigs": 1, "hex": "a9144bf9999d8a88b836a8d2c0b55c130f1332c60bee87", "addresses": ["38cjcStoBC1uRWxDgw3fxWMoQbDQZnb8F5"], "asm": "OP_HASH160 4bf9999d8a88b836a8d2c0b55c130f1332c60bee OP_EQUAL", "type": "scripthash"}, "value": 0.00585674, "n": 0}, {"scriptPubKey": {"reqSigs": 1, "hex": "76a9142516b1d1fb889b2a02e85e6b9f081bad84f537e588ac", "addresses": ["14P7BwvMdDkDDD7id31ECEJrLW26dhKaBx"], "asm": "OP_DUP OP_HASH160 2516b1d1fb889b2a02e85e6b9f081bad84f537e5 OP_EQUALVERIFY OP_CHECKSIG", "type": "pubkeyhash"}, "value": 0.03888438, "n": 1}], "hex": "0100000000010299aafa4db99267d2747daac67f767921b534e314661912dd7c4cbe70429c83510100000017160014103ee59f79c9fa257795610f68c0f863957dd376ffffffffe6b2cebad0011422540b2642f6383250985a53ad4012b7b37489a5d4ccc560940100000017160014220a0a8680ab862dfc632cde750669f4f4719e75ffffffff02caef08000000000017a9144bf9999d8a88b836a8d2c0b55c130f1332c60bee8736553b00000000001976a9142516b1d1fb889b2a02e85e6b9f081bad84f537e588ac02483045022100ffd472d8d7f1bcd1dd1f1d6c5051c39d58da89bba2c50d11d8b9f08b0d4a9ec9022013120ed156b5eebbcfc2e191ec273ef110dca19659b11ced405dabfab1d2896a012102c97647ac0e30500605d6566a8a10da49f9f332c5f77f93811b12b2ff1a945f4f02473044022037c357253d88afc3d87a7b29956fff51ad4d56559179e6e57b0f65ea7e31fc76022023ada4b656853025cdd488125ed602e899e3d98159a25bcedc0c7d4708e0d38b0121036d609cde455d6b3162f46ce661ce14e1a9d80b956659b7cf341226fed9e5380f00000000", "vin": [{"txinwitness": ["3045022100ffd472d8d7f1bcd1dd1f1d6c5051c39d58da89bba2c50d11d8b9f08b0d4a9ec9022013120ed156b5eebbcfc2e191ec273ef110dca19659b11ced405dabfab1d2896a01", "02c97647ac0e30500605d6566a8a10da49f9f332c5f77f93811b12b2ff1a945f4f"], "sequence": 4294967295, "scriptSig": {"hex": "160014103ee59f79c9fa257795610f68c0f863957dd376", "asm": "0014103ee59f79c9fa257795610f68c0f863957dd376"}, "vout": 1, "txid": "51839c4270be4c7cdd12196614e334b52179767fc6aa7d74d26792b94dfaaa99"}, {"txinwitness": ["3044022037c357253d88afc3d87a7b29956fff51ad4d56559179e6e57b0f65ea7e31fc76022023ada4b656853025cdd488125ed602e899e3d98159a25bcedc0c7d4708e0d38b01", "036d609cde455d6b3162f46ce661ce14e1a9d80b956659b7cf341226fed9e5380f"], "sequence": 4294967295, "scriptSig": {"hex": "160014220a0a8680ab862dfc632cde750669f4f4719e75", "asm": "0014220a0a8680ab862dfc632cde750669f4f4719e75"}, "vout": 1, "txid": "9460c5ccd4a58974b3b71240ad535a98503238f642260b54221401d0baceb2e6"}], "txid": "8ee3adeb8dccf2bf9334d379e5e74caddbfcaedb9749cf8b38189c4adeb4b44c", "blocktime": 1537874412, "version": 1, "confirmations": 11467, "time": 1537874412, "locktime": 0, "vsize": 259, "size": 421}