{"hash": "42b27889113408264bff435cda9aab91c53ce203620526d5a484d84b9ef45edf", "blockhash": "0000000000000000000baef3f32e3676a92c3b2e5da21b426e4f302fc371ce76", "vout": [{"scriptPubKey": {"reqSigs": 1, "hex": "0014f16ed443a15f80630802e3937a25081075506041", "addresses": ["bc1q79hdgsapt7qxxzqzuwfh5fggzp64qczpmemz5x"], "asm": "0 f16ed443a15f80630802e3937a25081075506041", "type": "witness_v0_keyhash"}, "value": 0.02969773, "n": 0}, {"scriptPubKey": {"reqSigs": 1, "hex": "001422d8ba5fab7fdacdd9e410c6a3d7fd4a9c4f0a82", "addresses": ["bc1qytvt5hat0ldvmk0yzrr284laf2wy7z5zwk6m0z"], "asm": "0 22d8ba5fab7fdacdd9e410c6a3d7fd4a9c4f0a82", "type": "witness_v0_keyhash"}, "value": 9.97029227, "n": 1}], "hex": "0200000000010183850ba61df02e07126b26278717d5603db975664130efd752db0e6cb2384329010000001716001409edf4a79e104a949f62aae431ace36072022ef2ffffffff02ad502d0000000000160014f16ed443a15f80630802e3937a250810755060416b756d3b0000000016001422d8ba5fab7fdacdd9e410c6a3d7fd4a9c4f0a82024730440220564ed647fdac2eb2630dfe16bb132b0614190b4149d7e5a24129f4b02141ddad022057d766a2d8a07c7628c1940b29045c9627193a87748071a8fe31a04116e36f6a0121021c6ac876c9f9e8681cf99bdf961b25aa889be523e5127aab32b733a060c5490100000000", "vin": [{"txinwitness": ["30440220564ed647fdac2eb2630dfe16bb132b0614190b4149d7e5a24129f4b02141ddad022057d766a2d8a07c7628c1940b29045c9627193a87748071a8fe31a04116e36f6a01", "021c6ac876c9f9e8681cf99bdf961b25aa889be523e5127aab32b733a060c54901"], "sequence": 4294967295, "scriptSig": {"hex": "16001409edf4a79e104a949f62aae431ace36072022ef2", "asm": "001409edf4a79e104a949f62aae431ace36072022ef2"}, "vout": 1, "txid": "294338b26c0edb52d7ef30416675b93d60d5178727266b12072ef01da60b8583"}], "txid": "8ee73dcf25e33cc74767cf80b255f78fec3ad20dbe35a348b8df684291537a82", "blocktime": 1537876114, "version": 2, "confirmations": 11460, "time": 1537876114, "locktime": 0, "vsize": 164, "size": 245}