{"hash": "8ef2e78953079241c9cfd0b3329f99933cbb91c980a5959915f7b758c7b811ce", "blockhash": "0000000000000000001cda96e906b7601b7a6fb1a3b62bca570a9e5d8f4b3de1", "vout": [{"scriptPubKey": {"reqSigs": 1, "hex": "76a914d380e72c93091ebdec330e8a5a79c69467251a1488ac", "addresses": ["1LHKzpHnWmcdms35MxS2svVYeKcxa9LpFB"], "asm": "OP_DUP OP_HASH160 d380e72c93091ebdec330e8a5a79c69467251a14 OP_EQUALVERIFY OP_CHECKSIG", "type": "pubkeyhash"}, "value": 0.01, "n": 0}, {"scriptPubKey": {"reqSigs": 1, "hex": "76a91415906136a0f6638f8a08e4e4b424c6c8bf893c3d88ac", "addresses": ["12y29i6pwYMXJGjKmT5nwMKquL2eTUx87F"], "asm": "OP_DUP OP_HASH160 15906136a0f6638f8a08e4e4b424c6c8bf893c3d OP_EQUALVERIFY OP_CHECKSIG", "type": "pubkeyhash"}, "value": 0.02948418, "n": 1}], "hex": "01000000019563a9ad15d9366cb7c45f3c517f2440439f730699f4b5aadac2c9f148af357e010000006b483045022100eb3e7fa421fc74f32cfb5a15ed2582379c5a556759c109190a9e5f8d5fbcf59a022044a2d8e47faf8644d7a140782cb6787a9bd5b5f8618ed16982c14573ddd328a00121025aee7c71e2fdea680b9c87d14cdbb4f785fc535d926aff48cc62602bb63ee676ffffffff0240420f00000000001976a914d380e72c93091ebdec330e8a5a79c69467251a1488ac42fd2c00000000001976a91415906136a0f6638f8a08e4e4b424c6c8bf893c3d88ac00000000", "vin": [{"sequence": 4294967295, "scriptSig": {"hex": "483045022100eb3e7fa421fc74f32cfb5a15ed2582379c5a556759c109190a9e5f8d5fbcf59a022044a2d8e47faf8644d7a140782cb6787a9bd5b5f8618ed16982c14573ddd328a00121025aee7c71e2fdea680b9c87d14cdbb4f785fc535d926aff48cc62602bb63ee676", "asm": "3045022100eb3e7fa421fc74f32cfb5a15ed2582379c5a556759c109190a9e5f8d5fbcf59a022044a2d8e47faf8644d7a140782cb6787a9bd5b5f8618ed16982c14573ddd328a0[ALL] 025aee7c71e2fdea680b9c87d14cdbb4f785fc535d926aff48cc62602bb63ee676"}, "vout": 1, "txid": "7e35af48f1c9c2daaab5f49906739f4340247f513c5fc4b76c36d915ada96395"}], "txid": "8ef2e78953079241c9cfd0b3329f99933cbb91c980a5959915f7b758c7b811ce", "blocktime": 1537873282, "version": 1, "confirmations": 11485, "time": 1537873282, "locktime": 0, "vsize": 226, "size": 226}