{"hash": "8ef437cde6ecc158e8328e205cf713881b1779546d278ab74649914ff6ac40e9", "blockhash": "0000000000000000001e0dab787dd257d1dbfcb92a98c2207d5e1078be1f4165", "vout": [{"scriptPubKey": {"reqSigs": 1, "hex": "76a914ed6ba05e6680e871b41a95de730e99cd9b9d571a88ac", "addresses": ["1NeN5Uqggkj7XWXND9wavzHTgKUYoNsDdV"], "asm": "OP_DUP OP_HASH160 ed6ba05e6680e871b41a95de730e99cd9b9d571a OP_EQUALVERIFY OP_CHECKSIG", "type": "pubkeyhash"}, "value": 0.00365172, "n": 0}, {"scriptPubKey": {"reqSigs": 1, "hex": "76a9145ea2158b6ff8b2d51c3865e904b7e310117babca88ac", "addresses": ["19dNgqYAunxz9DFhArQmNYVbo57JMGNT4q"], "asm": "OP_DUP OP_HASH160 5ea2158b6ff8b2d51c3865e904b7e310117babca OP_EQUALVERIFY OP_CHECKSIG", "type": "pubkeyhash"}, "value": 0.04, "n": 1}], "hex": "01000000021f0f03f51689a881f8d88f558ea81a8eafe601c27edc3cafd01a9ac77d6db22d000000006b483045022100cbb2bdcb48fe71f2cbd2c982f2241fd65c7ec2b2928e62ac380c3ba6b197563402202ac0589d97a97919ac2a544b4785d96fef0b78b28f52da66d9db0def7e6395fb01210326dd0ae00cb0c27e6b1a45fded58f8362656d8ccf4df427463aa1f4df80da453ffffffffd0a2d84b26b921d8a9f44568772582cd4ae761305f1383f1fe83e7ebd2a71e3f000000006a4730440220187d3b79a186e6a683f072fd46906b0efefbdaa25a2a1cf7ab188430a346037f022073194aeaf9d0999ced31d72581135c67ad7c73b0ce321b31951e04c2a680fa5101210282634133baab97838cb03549828471fcd74615fc13d6922df915cd8704ac9ddaffffffff0274920500000000001976a914ed6ba05e6680e871b41a95de730e99cd9b9d571a88ac00093d00000000001976a9145ea2158b6ff8b2d51c3865e904b7e310117babca88ac00000000", "vin": [{"sequence": 4294967295, "scriptSig": {"hex": "483045022100cbb2bdcb48fe71f2cbd2c982f2241fd65c7ec2b2928e62ac380c3ba6b197563402202ac0589d97a97919ac2a544b4785d96fef0b78b28f52da66d9db0def7e6395fb01210326dd0ae00cb0c27e6b1a45fded58f8362656d8ccf4df427463aa1f4df80da453", "asm": "3045022100cbb2bdcb48fe71f2cbd2c982f2241fd65c7ec2b2928e62ac380c3ba6b197563402202ac0589d97a97919ac2a544b4785d96fef0b78b28f52da66d9db0def7e6395fb[ALL] 0326dd0ae00cb0c27e6b1a45fded58f8362656d8ccf4df427463aa1f4df80da453"}, "vout": 0, "txid": "2db26d7dc79a1ad0af3cdc7ec201e6af8e1aa88e558fd8f881a88916f5030f1f"}, {"sequence": 4294967295, "scriptSig": {"hex": "4730440220187d3b79a186e6a683f072fd46906b0efefbdaa25a2a1cf7ab188430a346037f022073194aeaf9d0999ced31d72581135c67ad7c73b0ce321b31951e04c2a680fa5101210282634133baab97838cb03549828471fcd74615fc13d6922df915cd8704ac9dda", "asm": "30440220187d3b79a186e6a683f072fd46906b0efefbdaa25a2a1cf7ab188430a346037f022073194aeaf9d0999ced31d72581135c67ad7c73b0ce321b31951e04c2a680fa51[ALL] 0282634133baab97838cb03549828471fcd74615fc13d6922df915cd8704ac9dda"}, "vout": 0, "txid": "3f1ea7d2ebe783fef183135f3061e74acd8225776845f4a9d821b9264bd8a2d0"}], "txid": "8ef437cde6ecc158e8328e205cf713881b1779546d278ab74649914ff6ac40e9", "blocktime": 1537872475, "version": 1, "confirmations": 11487, "time": 1537872475, "locktime": 0, "vsize": 373, "size": 373}