{"hash": "8ef44f562f536f8bbb364b01a29d8e567345c448b995bf24a546e7f67c99da46", "blockhash": "0000000000000000000baef3f32e3676a92c3b2e5da21b426e4f302fc371ce76", "vout": [{"scriptPubKey": {"reqSigs": 1, "hex": "76a9145fb50f6ec219317a7b035480bef7ea1c60a9dcd888ac", "addresses": ["19j46Wkabe4wJkaJFF9YGGAtgFuUCLNpRZ"], "asm": "OP_DUP OP_HASH160 5fb50f6ec219317a7b035480bef7ea1c60a9dcd8 OP_EQUALVERIFY OP_CHECKSIG", "type": "pubkeyhash"}, "value": 0.00102177, "n": 0}, {"scriptPubKey": {"reqSigs": 1, "hex": "76a914e163d073e054266d0f5e025eebd6100b0c946b5b88ac", "addresses": ["1MYkcNyCtPmxivKoMy5v5VBkv6LuBrgrAy"], "asm": "OP_DUP OP_HASH160 e163d073e054266d0f5e025eebd6100b0c946b5b OP_EQUALVERIFY OP_CHECKSIG", "type": "pubkeyhash"}, "value": 0.05362937, "n": 1}], "hex": "0100000001141a28b32c436caa31ace236be2f5bb027ea45f37f2fc1400d4a71b17412f641010000006a473044022052c03d1bb604ece4294f30cad2ab1dff37819b75f726c61a3a6214ecada933240220363ab56f33c1ce0f5f2886f5669ada207c760cab5a26eab398bcf29d4b8604390121033387315522fd785dc6a3184e4f2acbd937f90409a105c06583c94e6554220085ffffffff02218f0100000000001976a9145fb50f6ec219317a7b035480bef7ea1c60a9dcd888acf9d45100000000001976a914e163d073e054266d0f5e025eebd6100b0c946b5b88ac00000000", "vin": [{"sequence": 4294967295, "scriptSig": {"hex": "473044022052c03d1bb604ece4294f30cad2ab1dff37819b75f726c61a3a6214ecada933240220363ab56f33c1ce0f5f2886f5669ada207c760cab5a26eab398bcf29d4b8604390121033387315522fd785dc6a3184e4f2acbd937f90409a105c06583c94e6554220085", "asm": "3044022052c03d1bb604ece4294f30cad2ab1dff37819b75f726c61a3a6214ecada933240220363ab56f33c1ce0f5f2886f5669ada207c760cab5a26eab398bcf29d4b860439[ALL] 033387315522fd785dc6a3184e4f2acbd937f90409a105c06583c94e6554220085"}, "vout": 1, "txid": "41f61274b1714a0d40c12f7ff345ea27b05b2fbe36e2ac31aa6c432cb3281a14"}], "txid": "8ef44f562f536f8bbb364b01a29d8e567345c448b995bf24a546e7f67c99da46", "blocktime": 1537876114, "version": 1, "confirmations": 11459, "time": 1537876114, "locktime": 0, "vsize": 225, "size": 225}