{"hash": "8ef98ffe06f945b93fc207f22ef0e17f1a5df83825ffa304052524cd68f48777", "blockhash": "0000000000000000000e13cef7c366c0283d82e591d1acd082e914b08063cdf1", "vout": [{"scriptPubKey": {"reqSigs": 1, "hex": "76a914eb6bd8428866be8001a580b8df888ff1da58c51588ac", "addresses": ["1NTnzGR9jG7KqJiXHMKRvWHySQCtYXe6Po"], "asm": "OP_DUP OP_HASH160 eb6bd8428866be8001a580b8df888ff1da58c515 OP_EQUALVERIFY OP_CHECKSIG", "type": "pubkeyhash"}, "value": 0.00642132, "n": 0}, {"scriptPubKey": {"reqSigs": 1, "hex": "76a914fab44186239bbbfe59d1239ade5dd169fe8d6f4188ac", "addresses": ["1PrbsMvhXnjpeR5gFTGZNb4r7MrjJkPSum"], "asm": "OP_DUP OP_HASH160 fab44186239bbbfe59d1239ade5dd169fe8d6f41 OP_EQUALVERIFY OP_CHECKSIG", "type": "pubkeyhash"}, "value": 0.24320542, "n": 1}], "hex": "01000000066d7d24d599c959b7d917c4d2883a4c32b235201b2a8220df62fc37918abd655e060000006b483045022100c0727be1389f70d11c31ffb2ebcf20d7a55741915afd620a61afc1bc9f2d47c102207261869ed24213ca78a45e98649a90ffef99cbd8d32587d500164f9944db4d85012102c1a1f6f266d8452eb92a8d9e4f8ad1d9b317d5810e48252ddabc856013d8bf8bffffffffd9bc86b4d548bf1b2186c5184ad30195135912979f127ea83b9f4abb5f555464010000006b483045022100b419e7077adea03bdded5d821bd5e2a557d51288995f33f515351c81b08c0bf202202cd05e6d172c27693df9f62ea1498a53ee7d7447ee376409db57be84511cb7b9012103c5f28ea004095bad9ef004481d08765364ebe87910c6a951b685400818272446ffffffffb104dae64337ea90bee74c5588552c82a3b0e1e9b6d57b06d42bf5737f1ce085010000006a473044022048c49a0b23acaf8e6fe1b34d5b8dfdf169a78f83ee202d1a8a206ca54dc435bf022019e6e759521caebc360a67b6050467c29777875a5e28023c04eaebf881bbd817012102f821f2b19c4ac1394b693d0f70cfca844f0d70e37d9b731a61706d5d8b5aa68cffffffff504c48996cb18d5a3402aa82b91108de230ad05f7b47518b9eaf7109578e14c7100000006b483045022100f91e61efbacedfff08f1ce5313c93c5046d2ff984eb799f8caa0da2659ff3caa0220509acea55e885428b173d7aae1a3f303995c35cee2a7b7169cb99b81855be1b00121026ae5adecc7929cfbc1d6603f9857ec61d9e6f32d492849c1a8f4d22fde354e6effffffffbd33fb61f5d6d300a947539305dd976e2f7caa80e8be015d455c12ae042f75ca010000006a47304402206f70b49392b844fab613583b2a073a4a9dc87647bd64ade34242ee96102f9c86022065e9e72899e2120eaaf3d34d56a3ff6e58f9e91fe8debe02e1e9418e3ff36f180121035071fac666c0906057321dd3358ab292ba21e5ed51ed2045244942316910a399ffffffffed6291c08cddef579935651d33f3a9c58d55aa8af0a5d7e6cdebc7973457adf4040000006a473044022017fbae7e435c196f6521dfcd3ca448667b68a1460ae504396a8239819f670f000220258cb93f0e87898ca53a655c29e12cc404921d245fb0f6f26162ef1c1833009a012102ee5a43eef24648779e17d4fb889e32c49d8560b4f08a4164bdad70c4abe27cbfffffffff0254cc0900000000001976a914eb6bd8428866be8001a580b8df888ff1da58c51588ac1e1a7301000000001976a914fab44186239bbbfe59d1239ade5dd169fe8d6f4188ac00000000", "vin": [{"sequence": 4294967295, "scriptSig": {"hex": "483045022100c0727be1389f70d11c31ffb2ebcf20d7a55741915afd620a61afc1bc9f2d47c102207261869ed24213ca78a45e98649a90ffef99cbd8d32587d500164f9944db4d85012102c1a1f6f266d8452eb92a8d9e4f8ad1d9b317d5810e48252ddabc856013d8bf8b", "asm": "3045022100c0727be1389f70d11c31ffb2ebcf20d7a55741915afd620a61afc1bc9f2d47c102207261869ed24213ca78a45e98649a90ffef99cbd8d32587d500164f9944db4d85[ALL] 02c1a1f6f266d8452eb92a8d9e4f8ad1d9b317d5810e48252ddabc856013d8bf8b"}, "vout": 6, "txid": "5e65bd8a9137fc62df20822a1b2035b2324c3a88d2c417d9b759c999d5247d6d"}, {"sequence": 4294967295, "scriptSig": {"hex": "483045022100b419e7077adea03bdded5d821bd5e2a557d51288995f33f515351c81b08c0bf202202cd05e6d172c27693df9f62ea1498a53ee7d7447ee376409db57be84511cb7b9012103c5f28ea004095bad9ef004481d08765364ebe87910c6a951b685400818272446", "asm": "3045022100b419e7077adea03bdded5d821bd5e2a557d51288995f33f515351c81b08c0bf202202cd05e6d172c27693df9f62ea1498a53ee7d7447ee376409db57be84511cb7b9[ALL] 03c5f28ea004095bad9ef004481d08765364ebe87910c6a951b685400818272446"}, "vout": 1, "txid": "6454555fbb4a9f3ba87e129f971259139501d34a18c586211bbf48d5b486bcd9"}, {"sequence": 4294967295, "scriptSig": {"hex": "473044022048c49a0b23acaf8e6fe1b34d5b8dfdf169a78f83ee202d1a8a206ca54dc435bf022019e6e759521caebc360a67b6050467c29777875a5e28023c04eaebf881bbd817012102f821f2b19c4ac1394b693d0f70cfca844f0d70e37d9b731a61706d5d8b5aa68c", "asm": "3044022048c49a0b23acaf8e6fe1b34d5b8dfdf169a78f83ee202d1a8a206ca54dc435bf022019e6e759521caebc360a67b6050467c29777875a5e28023c04eaebf881bbd817[ALL] 02f821f2b19c4ac1394b693d0f70cfca844f0d70e37d9b731a61706d5d8b5aa68c"}, "vout": 1, "txid": "85e01c7f73f52bd4067bd5b6e9e1b0a3822c5588554ce7be90ea3743e6da04b1"}, {"sequence": 4294967295, "scriptSig": {"hex": "483045022100f91e61efbacedfff08f1ce5313c93c5046d2ff984eb799f8caa0da2659ff3caa0220509acea55e885428b173d7aae1a3f303995c35cee2a7b7169cb99b81855be1b00121026ae5adecc7929cfbc1d6603f9857ec61d9e6f32d492849c1a8f4d22fde354e6e", "asm": "3045022100f91e61efbacedfff08f1ce5313c93c5046d2ff984eb799f8caa0da2659ff3caa0220509acea55e885428b173d7aae1a3f303995c35cee2a7b7169cb99b81855be1b0[ALL] 026ae5adecc7929cfbc1d6603f9857ec61d9e6f32d492849c1a8f4d22fde354e6e"}, "vout": 16, "txid": "c7148e570971af9e8b51477b5fd00a23de0811b982aa02345a8db16c99484c50"}, {"sequence": 4294967295, "scriptSig": {"hex": "47304402206f70b49392b844fab613583b2a073a4a9dc87647bd64ade34242ee96102f9c86022065e9e72899e2120eaaf3d34d56a3ff6e58f9e91fe8debe02e1e9418e3ff36f180121035071fac666c0906057321dd3358ab292ba21e5ed51ed2045244942316910a399", "asm": "304402206f70b49392b844fab613583b2a073a4a9dc87647bd64ade34242ee96102f9c86022065e9e72899e2120eaaf3d34d56a3ff6e58f9e91fe8debe02e1e9418e3ff36f18[ALL] 035071fac666c0906057321dd3358ab292ba21e5ed51ed2045244942316910a399"}, "vout": 1, "txid": "ca752f04ae125c455d01bee880aa7c2f6e97dd05935347a900d3d6f561fb33bd"}, {"sequence": 4294967295, "scriptSig": {"hex": "473044022017fbae7e435c196f6521dfcd3ca448667b68a1460ae504396a8239819f670f000220258cb93f0e87898ca53a655c29e12cc404921d245fb0f6f26162ef1c1833009a012102ee5a43eef24648779e17d4fb889e32c49d8560b4f08a4164bdad70c4abe27cbf", "asm": "3044022017fbae7e435c196f6521dfcd3ca448667b68a1460ae504396a8239819f670f000220258cb93f0e87898ca53a655c29e12cc404921d245fb0f6f26162ef1c1833009a[ALL] 02ee5a43eef24648779e17d4fb889e32c49d8560b4f08a4164bdad70c4abe27cbf"}, "vout": 4, "txid": "f4ad573497c7ebcde6d7a5f08aaa558dc5a9f3331d65359957efdd8cc09162ed"}], "txid": "8ef98ffe06f945b93fc207f22ef0e17f1a5df83825ffa304052524cd68f48777", "blocktime": 1537871767, "version": 1, "confirmations": 11493, "time": 1537871767, "locktime": 0, "vsize": 963, "size": 963}