{"hash": "154bc7a503ac7083af47959640836a2bc34182683f12bbb6bcae4a7003299db2", "blockhash": "0000000000000000001cda96e906b7601b7a6fb1a3b62bca570a9e5d8f4b3de1", "vout": [{"scriptPubKey": {"reqSigs": 1, "hex": "a9147840cf2990c066b3c4146bc451422f630d93330887", "addresses": ["3Cereb2dYBibxkadKiPaGrtykkXheK7Kj1"], "asm": "OP_HASH160 7840cf2990c066b3c4146bc451422f630d933308 OP_EQUAL", "type": "scripthash"}, "value": 0.000156, "n": 0}, {"scriptPubKey": {"reqSigs": 1, "hex": "001498b0688ae37567ea41f6abce648f084a6f2b8b9d", "addresses": ["bc1qnzcx3zhrw4n75s0k408xfrcgffhjhzuammv72m"], "asm": "0 98b0688ae37567ea41f6abce648f084a6f2b8b9d", "type": "witness_v0_keyhash"}, "value": 1.487e-05, "n": 1}], "hex": "01000000000101d2bb4f7ac80604972086c164fb991c3c4f2904a66f61ab0433afe1c883b767700000000017160014d193b0b5db57a72245a861cf274f3d5d76d5eee2ffffffff02f03c00000000000017a9147840cf2990c066b3c4146bc451422f630d93330887cf0500000000000016001498b0688ae37567ea41f6abce648f084a6f2b8b9d02483045022100d9345d181a6b319290325c8863fbf72aae30d45ab4c1ff4e5faefa0afab3f5f40220097d8ad373c7e036152d7da34ef0d196516cc74119abd5e999493935eb92aa74012102ae66c0d1151c2e22980a7bc8c07ff55f44f4cbd94bdbc4f70dc1485d1bf66cfe00000000", "vin": [{"txinwitness": ["3045022100d9345d181a6b319290325c8863fbf72aae30d45ab4c1ff4e5faefa0afab3f5f40220097d8ad373c7e036152d7da34ef0d196516cc74119abd5e999493935eb92aa7401", "02ae66c0d1151c2e22980a7bc8c07ff55f44f4cbd94bdbc4f70dc1485d1bf66cfe"], "sequence": 4294967295, "scriptSig": {"hex": "160014d193b0b5db57a72245a861cf274f3d5d76d5eee2", "asm": "0014d193b0b5db57a72245a861cf274f3d5d76d5eee2"}, "vout": 0, "txid": "7067b783c8e1af3304ab616fa604294f3c1c99fb64c18620970406c87a4fbbd2"}], "txid": "8f00b5f454f252904c9f3dc8423a6e2553c933e42efde693ecf3c160d1c92a37", "blocktime": 1537873282, "version": 1, "confirmations": 11484, "time": 1537873282, "locktime": 0, "vsize": 165, "size": 247}