{"hash": "aa5a9b684e74014e654948970148860f9a13e24a608f5c6cc7c1f3ff47b0dfc2", "blockhash": "0000000000000000001cda96e906b7601b7a6fb1a3b62bca570a9e5d8f4b3de1", "vout": [{"scriptPubKey": {"reqSigs": 1, "hex": "76a9146da27d4f6b44a4c1a25304ec0ac95d378d6d57e988ac", "addresses": ["1AzhJsteYk9ErEChd914jU7PauXyzcWy5W"], "asm": "OP_DUP OP_HASH160 6da27d4f6b44a4c1a25304ec0ac95d378d6d57e9 OP_EQUALVERIFY OP_CHECKSIG", "type": "pubkeyhash"}, "value": 0.02173863, "n": 0}, {"scriptPubKey": {"reqSigs": 1, "hex": "a914bb794879fee68cc916dc06e0aa3d8627a745cc5b87", "addresses": ["3JnHaKBmhDsffyuofVKbBfY7tBVDKAMhpm"], "asm": "OP_HASH160 bb794879fee68cc916dc06e0aa3d8627a745cc5b OP_EQUAL", "type": "scripthash"}, "value": 0.31459349, "n": 1}], "hex": "0100000000010166baef270f0e77a0dba5f8211ba9177763e41356773e608c2a072b18a73387ad00000000232200202eda5237bf7a7d14789be5bd1b32a206ba0aa6308e7d4cdc78b032bbf630c896ffffffff02a72b2100000000001976a9146da27d4f6b44a4c1a25304ec0ac95d378d6d57e988ac1508e0010000000017a914bb794879fee68cc916dc06e0aa3d8627a745cc5b870400483045022100a91ccc355422a7b02dc748e94e92ad8282afde4528e9113a113902f3bebec89f0220761cdf4c730a08e90836e4a97e913e8174f443a1c286160ad057dde8df26d14101473044022008a4c674785e4e748638c3276ffc967aa22a0a7b55db9e7f0848e6cab9d13d7302202d57638755564cb55752cc62dd612e650b8fc8ccc3ec9378220793529d56ff8101695221036b8a2a79d77dd10992ae6a2103e0c7740df02af874b74948d40ee433f017d6bd21021efff9ce8c2bb70cd691ba7ee0c46f39c1c2dfc1c096dc060d1449bb9ae7d17c21023d2e74626eadc53917a3ce43fdbb99ec179d097e2a249672c8710437f3a1831e53ae14490800", "vin": [{"txinwitness": ["", "3045022100a91ccc355422a7b02dc748e94e92ad8282afde4528e9113a113902f3bebec89f0220761cdf4c730a08e90836e4a97e913e8174f443a1c286160ad057dde8df26d14101", "3044022008a4c674785e4e748638c3276ffc967aa22a0a7b55db9e7f0848e6cab9d13d7302202d57638755564cb55752cc62dd612e650b8fc8ccc3ec9378220793529d56ff8101", "5221036b8a2a79d77dd10992ae6a2103e0c7740df02af874b74948d40ee433f017d6bd21021efff9ce8c2bb70cd691ba7ee0c46f39c1c2dfc1c096dc060d1449bb9ae7d17c21023d2e74626eadc53917a3ce43fdbb99ec179d097e2a249672c8710437f3a1831e53ae"], "sequence": 4294967295, "scriptSig": {"hex": "2200202eda5237bf7a7d14789be5bd1b32a206ba0aa6308e7d4cdc78b032bbf630c896", "asm": "00202eda5237bf7a7d14789be5bd1b32a206ba0aa6308e7d4cdc78b032bbf630c896"}, "vout": 0, "txid": "ad8733a7182b072a8c603e775613e4637717a91b21f8a5dba0770e0f27efba66"}], "txid": "8f01195f31c9257be83dae23d6886d074ad7de8719c22babfd1937f647a84f4b", "blocktime": 1537873282, "version": 1, "confirmations": 11484, "time": 1537873282, "locktime": 542996, "vsize": 216, "size": 407}