{"hash": "9aa1b0b308aff6d870bd5e2eea1a189c19ed7e451caedfae1fa2e7c5514f92ef", "blockhash": "00000000000000000017f5eb5941039fbcee6240d03bc1f2f8e35350df66a1d8", "vout": [{"scriptPubKey": {"reqSigs": 1, "hex": "76a9149a1b8f9b1fa2d2297863adb1cb11c71df455684888ac", "addresses": ["1F3r5We2zwNiSzG6GQUTTWnnPMCz2HJbJu"], "asm": "OP_DUP OP_HASH160 9a1b8f9b1fa2d2297863adb1cb11c71df4556848 OP_EQUALVERIFY OP_CHECKSIG", "type": "pubkeyhash"}, "value": 2.627e-05, "n": 0}, {"scriptPubKey": {"reqSigs": 1, "hex": "a914e8db75c900cf08f06518e96d167331f2a4abfb3387", "addresses": ["3NvFbQMAkkqEFj4i1sYPPLkSWzxTFUchjA"], "asm": "OP_HASH160 e8db75c900cf08f06518e96d167331f2a4abfb33 OP_EQUAL", "type": "scripthash"}, "value": 2.816e-05, "n": 1}], "hex": "01000000000102cf05df3e283e87e054adac458b4929f756a7706eb30b42759d351b3ca6a9a8210100000023220020941cfaff8837763dc1f69ff82b6d6553fdea17a41cfc29a04403293eedd8ccc7ffffffff71162d85642745e8e4f2b013120fd22e240fa181e4cb1dda49697a733b22149b0100000023220020941cfaff8837763dc1f69ff82b6d6553fdea17a41cfc29a04403293eedd8ccc7ffffffff02430a0000000000001976a9149a1b8f9b1fa2d2297863adb1cb11c71df455684888ac000b00000000000017a914e8db75c900cf08f06518e96d167331f2a4abfb3387040048304502210080ab03596232f9d8eed18b9f5992fe5ac6383ac01e34dd1cd1f50e68c8e1660a02202959c9367a6adf72a9e936baf581611998720ce7617fb030596a9b7ba1c1308c0147304402202961ca3cec6b722757d01943fe5bf186dd6adcf0046ce829670e3688a97d3b2902202b5a04c22a943ce83df59662f5624b22f758c3b515c95b7c6bc59f0488c3650d0147522102531db3a5883f29bab4241dd0cd726936667bcda445d89bdd22244e828b6993342103148c80a5bdfddb05ff5bcffc397c8ca748d8b435ec6a175bc9d7bfc7fc6f853752ae04004830450221009c4f5919b787fd60811b847dfccd56b887166286e6bb203bf094ddc20c6e536602204d6a35cc67c7ecd3853749bc32035951ac7b7f481f671984302f93f8284dde5301483045022100f179a111585f21d3adfb4ae0564609a6ffaff8e5401d076cf2f79700ce6003f102204577ddabd03d62023bbb7de0c4d95826a0f4c2482c184af4631e7214f89c6b570147522102531db3a5883f29bab4241dd0cd726936667bcda445d89bdd22244e828b6993342103148c80a5bdfddb05ff5bcffc397c8ca748d8b435ec6a175bc9d7bfc7fc6f853752ae00000000", "vin": [{"txinwitness": ["", "304502210080ab03596232f9d8eed18b9f5992fe5ac6383ac01e34dd1cd1f50e68c8e1660a02202959c9367a6adf72a9e936baf581611998720ce7617fb030596a9b7ba1c1308c01", "304402202961ca3cec6b722757d01943fe5bf186dd6adcf0046ce829670e3688a97d3b2902202b5a04c22a943ce83df59662f5624b22f758c3b515c95b7c6bc59f0488c3650d01", "522102531db3a5883f29bab4241dd0cd726936667bcda445d89bdd22244e828b6993342103148c80a5bdfddb05ff5bcffc397c8ca748d8b435ec6a175bc9d7bfc7fc6f853752ae"], "sequence": 4294967295, "scriptSig": {"hex": "220020941cfaff8837763dc1f69ff82b6d6553fdea17a41cfc29a04403293eedd8ccc7", "asm": "0020941cfaff8837763dc1f69ff82b6d6553fdea17a41cfc29a04403293eedd8ccc7"}, "vout": 1, "txid": "21a8a9a63c1b359d75420bb36e70a756f729498b45acad54e0873e283edf05cf"}, {"txinwitness": ["", "30450221009c4f5919b787fd60811b847dfccd56b887166286e6bb203bf094ddc20c6e536602204d6a35cc67c7ecd3853749bc32035951ac7b7f481f671984302f93f8284dde5301", "3045022100f179a111585f21d3adfb4ae0564609a6ffaff8e5401d076cf2f79700ce6003f102204577ddabd03d62023bbb7de0c4d95826a0f4c2482c184af4631e7214f89c6b5701", "522102531db3a5883f29bab4241dd0cd726936667bcda445d89bdd22244e828b6993342103148c80a5bdfddb05ff5bcffc397c8ca748d8b435ec6a175bc9d7bfc7fc6f853752ae"], "sequence": 4294967295, "scriptSig": {"hex": "220020941cfaff8837763dc1f69ff82b6d6553fdea17a41cfc29a04403293eedd8ccc7", "asm": "0020941cfaff8837763dc1f69ff82b6d6553fdea17a41cfc29a04403293eedd8ccc7"}, "vout": 1, "txid": "9b14223b737a6949da1dcbe481a10f242ed20f1213b0f2e4e8452764852d1671"}], "txid": "8f0272747fd94b3005adf5008a4c80f0c3ae9bbc8bf4df29554211a0245862cf", "blocktime": 1537874412, "version": 1, "confirmations": 11468, "time": 1537874412, "locktime": 0, "vsize": 339, "size": 669}