{"hash": "86ed61f4dd85f7b7a67723e6dec3254f29f9a3a8254dcf5ad61fedf419c22b1e", "blockhash": "0000000000000000000baef3f32e3676a92c3b2e5da21b426e4f302fc371ce76", "vout": [{"scriptPubKey": {"reqSigs": 1, "hex": "76a91465882a01ef5a331c6f3712d1707550af42a5da6e88ac", "addresses": ["1AFrNDsHqPc7mccRdYqGCMmtFrM6B1yXy8"], "asm": "OP_DUP OP_HASH160 65882a01ef5a331c6f3712d1707550af42a5da6e OP_EQUALVERIFY OP_CHECKSIG", "type": "pubkeyhash"}, "value": 0.5198, "n": 0}, {"scriptPubKey": {"reqSigs": 1, "hex": "76a9141c029c46152800528a955a7a1299d9e071ba914a88ac", "addresses": ["13Z73kPdcAu7HHL5LRiBhg67UEu3dvEhfQ"], "asm": "OP_DUP OP_HASH160 1c029c46152800528a955a7a1299d9e071ba914a OP_EQUALVERIFY OP_CHECKSIG", "type": "pubkeyhash"}, "value": 0.015, "n": 1}, {"scriptPubKey": {"reqSigs": 1, "hex": "76a9141c029c46152800528a955a7a1299d9e071ba914a88ac", "addresses": ["13Z73kPdcAu7HHL5LRiBhg67UEu3dvEhfQ"], "asm": "OP_DUP OP_HASH160 1c029c46152800528a955a7a1299d9e071ba914a OP_EQUALVERIFY OP_CHECKSIG", "type": "pubkeyhash"}, "value": 0.15, "n": 2}, {"scriptPubKey": {"reqSigs": 1, "hex": "a91407e4021ca440e9c34ed07f5584e5976eaf16893187", "addresses": ["32QjoBFHrPpDwcvPTadEyYaPseQWzL8Fq9"], "asm": "OP_HASH160 07e4021ca440e9c34ed07f5584e5976eaf168931 OP_EQUAL", "type": "scripthash"}, "value": 18.42215896, "n": 3}], "hex": "01000000000101d6657760d020eb50e7b23bb42f38ac5475effa7e2ba4e1f637c47df25a0727b90200000017160014000b814f2c1a19852357ed615a08ec572a781ed1ffffffff04e0261903000000001976a91465882a01ef5a331c6f3712d1707550af42a5da6e88ac60e31600000000001976a9141c029c46152800528a955a7a1299d9e071ba914a88acc0e1e400000000001976a9141c029c46152800528a955a7a1299d9e071ba914a88acd8fbcd6d0000000017a91407e4021ca440e9c34ed07f5584e5976eaf168931870247304402201bada472f7b6a61d5da318799a930fd81a00859008cf531f4e4a562681d2ef0502201ee3b403214ba1c3a57b69e25ff59ef31ece1827b84b8934a03540488c6efbf5012102aad79950b2c2af3689e8644c89e9d10dff06c2d8926200496b92e9f7ccb0304c00000000", "vin": [{"txinwitness": ["304402201bada472f7b6a61d5da318799a930fd81a00859008cf531f4e4a562681d2ef0502201ee3b403214ba1c3a57b69e25ff59ef31ece1827b84b8934a03540488c6efbf501", "02aad79950b2c2af3689e8644c89e9d10dff06c2d8926200496b92e9f7ccb0304c"], "sequence": 4294967295, "scriptSig": {"hex": "160014000b814f2c1a19852357ed615a08ec572a781ed1", "asm": "0014000b814f2c1a19852357ed615a08ec572a781ed1"}, "vout": 2, "txid": "b927075af27dc437f6e1a42b7efaef7554ac382fb43bb2e750eb20d0607765d6"}], "txid": "8f0460e6399ae699891fa098303a6ded4452b92df91784576d7af51a211fbac2", "blocktime": 1537876114, "version": 1, "confirmations": 11460, "time": 1537876114, "locktime": 0, "vsize": 236, "size": 317}