{"hash": "a7fd36b85545fc8f600a8521ccbb5464a2f978e027e7afdeeeead84224eadad9", "blockhash": "0000000000000000001f76057863aec43deb6fa401d9628bb513d65a8098bfab", "vout": [{"scriptPubKey": {"reqSigs": 1, "hex": "a91474ed9bbc227e05ff668a9c271ad9b071cdaa977c87", "addresses": ["3CMGx7WAnmAmBgE4j4SU2e4tdGT77acNjp"], "asm": "OP_HASH160 74ed9bbc227e05ff668a9c271ad9b071cdaa977c OP_EQUAL", "type": "scripthash"}, "value": 0.037914, "n": 0}, {"scriptPubKey": {"reqSigs": 1, "hex": "a9148f051453c6a74996da07478babf61ff54f4595e587", "addresses": ["3EjEdu5FsKDwXNKzMuUwwTJXxB2YtKbYr5"], "asm": "OP_HASH160 8f051453c6a74996da07478babf61ff54f4595e5 OP_EQUAL", "type": "scripthash"}, "value": 0.10797166, "n": 1}, {"scriptPubKey": {"reqSigs": 1, "hex": "a914624a53a3af25920e7e986eb55b118666d3f14f2787", "addresses": ["3AejBet4FrzYdV6sUYYPFx3kT7EPXpUDe4"], "asm": "OP_HASH160 624a53a3af25920e7e986eb55b118666d3f14f27 OP_EQUAL", "type": "scripthash"}, "value": 0.26084742, "n": 2}], "hex": "0200000000010173eca11cb5da83772546b28f2670aab34db22d3bf299c1a7b129d4acb77a1d470000000017160014b7d8c154a687bf205cd7c20be9ac8aa8afbe903cfeffffff0328da39000000000017a91474ed9bbc227e05ff668a9c271ad9b071cdaa977c876ec0a4000000000017a9148f051453c6a74996da07478babf61ff54f4595e58786058e010000000017a914624a53a3af25920e7e986eb55b118666d3f14f27870247304402203a608f76c14467d321b868251261d0a307ae7b130fd8f21c3b7e945388a1fdc5022015f5f316cb771ac5c3ee454e9505402173d2d4a537101a59b4e52a0a8d443d2801210217985b8febde4d0adc811a5f2932c110e4c1f1e783f771beac172d6b0547ad8c14490800", "vin": [{"txinwitness": ["304402203a608f76c14467d321b868251261d0a307ae7b130fd8f21c3b7e945388a1fdc5022015f5f316cb771ac5c3ee454e9505402173d2d4a537101a59b4e52a0a8d443d2801", "0217985b8febde4d0adc811a5f2932c110e4c1f1e783f771beac172d6b0547ad8c"], "sequence": 4294967294, "scriptSig": {"hex": "160014b7d8c154a687bf205cd7c20be9ac8aa8afbe903c", "asm": "0014b7d8c154a687bf205cd7c20be9ac8aa8afbe903c"}, "vout": 0, "txid": "471d7ab7acd429b1a7c199f23b2db24db3aa70268fb246257783dab51ca1ec73"}], "txid": "8f04c78c06bb78efee8bdb2420551ebcf55d92d99db8dfc9fe24b64ccedc7572", "blocktime": 1537873891, "version": 2, "confirmations": 11475, "time": 1537873891, "locktime": 542996, "vsize": 198, "size": 279}