{"hash": "8f0854aca536a40a0f5b40c71c0d603b414978db3a2b9fd26793f8fb65b0f98c", "blockhash": "0000000000000000001f0ddff1eddb255c1121bcd4da4f1bc9a0da00cae72433", "vout": [{"scriptPubKey": {"reqSigs": 1, "hex": "76a914824dc0a6c410e641a6efa8994f166e7c75c4213488ac", "addresses": ["1CsyzHD8A2ojm327FjiHg1pPoo3qjANryw"], "asm": "OP_DUP OP_HASH160 824dc0a6c410e641a6efa8994f166e7c75c42134 OP_EQUALVERIFY OP_CHECKSIG", "type": "pubkeyhash"}, "value": 0.0103, "n": 0}, {"scriptPubKey": {"reqSigs": 1, "hex": "a914e370231feecbfc25e2e2423a5a79bf79bfdca59887", "addresses": ["3NRbeX3vD5VaVE4TDU9ivCDsEf7NPPte6J"], "asm": "OP_HASH160 e370231feecbfc25e2e2423a5a79bf79bfdca598 OP_EQUAL", "type": "scripthash"}, "value": 0.54488832, "n": 1}], "hex": "010000000187fe0aa817e0ab862d01eec401ca10161dae134a152c94a180dd7bcf561733b501000000da004730440220019ef4834337d1ea5a456c9ba2f5c8102babb60ab0705202a67df2c569a226f70220068c78a3d0c895cb4aa1a9dbe6080bbb0c0497270ebb56e77e676068de10de7101483045022100c6f38365c0ec2a0a6f0e1127d46bc7b56c2044e312b262313f88ce8bbe3902fe02203753f1a8402714e2ca3ac1cbb7f159e70d2294d8a40b7258a113f3a149ec1134014752210327881b6abce6535553a3ce21fad12a7d74fd237ce7c4cd270a267162344e3082210256141f8eb687f5a68c5cc65054652dc25116fa285e44d72b44368827ffe77d9a52aeffffffff0270b70f00000000001976a914824dc0a6c410e641a6efa8994f166e7c75c4213488ac006f3f030000000017a914e370231feecbfc25e2e2423a5a79bf79bfdca5988700000000", "vin": [{"sequence": 4294967295, "scriptSig": {"hex": "004730440220019ef4834337d1ea5a456c9ba2f5c8102babb60ab0705202a67df2c569a226f70220068c78a3d0c895cb4aa1a9dbe6080bbb0c0497270ebb56e77e676068de10de7101483045022100c6f38365c0ec2a0a6f0e1127d46bc7b56c2044e312b262313f88ce8bbe3902fe02203753f1a8402714e2ca3ac1cbb7f159e70d2294d8a40b7258a113f3a149ec1134014752210327881b6abce6535553a3ce21fad12a7d74fd237ce7c4cd270a267162344e3082210256141f8eb687f5a68c5cc65054652dc25116fa285e44d72b44368827ffe77d9a52ae", "asm": "0 30440220019ef4834337d1ea5a456c9ba2f5c8102babb60ab0705202a67df2c569a226f70220068c78a3d0c895cb4aa1a9dbe6080bbb0c0497270ebb56e77e676068de10de71[ALL] 3045022100c6f38365c0ec2a0a6f0e1127d46bc7b56c2044e312b262313f88ce8bbe3902fe02203753f1a8402714e2ca3ac1cbb7f159e70d2294d8a40b7258a113f3a149ec1134[ALL] 52210327881b6abce6535553a3ce21fad12a7d74fd237ce7c4cd270a267162344e3082210256141f8eb687f5a68c5cc65054652dc25116fa285e44d72b44368827ffe77d9a52ae"}, "vout": 1, "txid": "b5331756cf7bdd80a1942c154a13ae1d1610ca01c4ee012d86abe017a80afe87"}], "txid": "8f0854aca536a40a0f5b40c71c0d603b414978db3a2b9fd26793f8fb65b0f98c", "blocktime": 1537872018, "version": 1, "confirmations": 11489, "time": 1537872018, "locktime": 0, "vsize": 335, "size": 335}