{"hash": "fd7d8d62ea634d48ac44c66e4d59232fdc4a32ba705d4624f9b4045edf1bd204", "blockhash": "00000000000000000017f5eb5941039fbcee6240d03bc1f2f8e35350df66a1d8", "vout": [{"scriptPubKey": {"reqSigs": 1, "hex": "a914a3b788a8d5315ac211dfe81524075c43b33ac52987", "addresses": ["3GcfvxybQfhgtjeb59zjnk7r3c4GEErEWC"], "asm": "OP_HASH160 a3b788a8d5315ac211dfe81524075c43b33ac529 OP_EQUAL", "type": "scripthash"}, "value": 1.12050377, "n": 0}, {"scriptPubKey": {"reqSigs": 1, "hex": "a914d20227209ba3f65e5a7f760d51e1806ab44b28ec87", "addresses": ["3LqSQQk6P11EJY5cBbg9C18BJL7y1H1hFn"], "asm": "OP_HASH160 d20227209ba3f65e5a7f760d51e1806ab44b28ec OP_EQUAL", "type": "scripthash"}, "value": 0.33882, "n": 1}], "hex": "020000000001019b9416f74b218f744cfa3e220dd7454e09b93e59e2591ebdae6c7417d35fb990010000001716001437d690c47d03ec52b1e52c18d9e0335a67f40387feffffff02c9c0ad060000000017a914a3b788a8d5315ac211dfe81524075c43b33ac5298790ff04020000000017a914d20227209ba3f65e5a7f760d51e1806ab44b28ec87024730440220056c1b429b5cc7deccad577f4db01a6d8fb38953d8c518a73853ca79c3ec932b02205180fa773a91b4d51712c4abf14298e488adf5f72b99b100d5de9072cf2399fc012103ea73d6e2f2f74f5b455125184fd990209bc978635d32e7aa984188dcb7e4aed815490800", "vin": [{"txinwitness": ["30440220056c1b429b5cc7deccad577f4db01a6d8fb38953d8c518a73853ca79c3ec932b02205180fa773a91b4d51712c4abf14298e488adf5f72b99b100d5de9072cf2399fc01", "03ea73d6e2f2f74f5b455125184fd990209bc978635d32e7aa984188dcb7e4aed8"], "sequence": 4294967294, "scriptSig": {"hex": "16001437d690c47d03ec52b1e52c18d9e0335a67f40387", "asm": "001437d690c47d03ec52b1e52c18d9e0335a67f40387"}, "vout": 1, "txid": "90b95fd317746caebd1e59e2593eb9094e45d70d223efa4c748f214bf716949b"}], "txid": "8f0abe4dd3cd10851a9a6727aa09b83999930b65e92228296fa8b9ccee75aa12", "blocktime": 1537874412, "version": 2, "confirmations": 11468, "time": 1537874412, "locktime": 542997, "vsize": 166, "size": 247}