{"hash": "8f0ea41ecc5794e6019d30f73e6f22fb89dbebcae4864d98c40aef5dd3be89f2", "blockhash": "0000000000000000000dcc0f55137456b1a82d3642486a52398922ac4d620174", "vout": [{"scriptPubKey": {"reqSigs": 1, "hex": "a914c74298d061e77a379a2c122ae6f017fffb9259df87", "addresses": ["3KrcAxGqj2X2HeyvYfVRDrEz2FA31oaKDE"], "asm": "OP_HASH160 c74298d061e77a379a2c122ae6f017fffb9259df OP_EQUAL", "type": "scripthash"}, "value": 0.0756281, "n": 0}, {"scriptPubKey": {"reqSigs": 1, "hex": "76a9144dbd55ace697e66ea6d7a3684dcb33f5eb7bb1bb88ac", "addresses": ["1863qyWuGS4ChLntCDWwJDkHSQxUAAZf83"], "asm": "OP_DUP OP_HASH160 4dbd55ace697e66ea6d7a3684dcb33f5eb7bb1bb OP_EQUALVERIFY OP_CHECKSIG", "type": "pubkeyhash"}, "value": 0.01052942, "n": 1}], "hex": "0100000001e1151493759d12114570f6490e80894d250609f45ab1967782b03b7a7a1f288d01000000db00483045022100b165ea45168878b35dcf1c5941082a65ee3b5b6b14eb62947538cc9da0820f56022015460c8e680ff7a597e1743f049507599b2542926e8574742fc0f3ec1a4f9fa101483045022100a26915a3ad0ae9c8298800c517b3dd1745e80ad9b200908e2947182c7901ae5402205df8614c8d8ddb59baf40772df3e2e2f297c54d5d70bb044ad5120e936dcf2810147522102485fd9df4f608c9a0d4868f0513988f6fad4e21843cf7845deec46e8c547b5c02102907a54bed8ad74b3f35638c60114ca240a308cb986f3f2f306178869a8880b6152aeffffffff023a6673000000000017a914c74298d061e77a379a2c122ae6f017fffb9259df870e111000000000001976a9144dbd55ace697e66ea6d7a3684dcb33f5eb7bb1bb88ac00000000", "vin": [{"sequence": 4294967295, "scriptSig": {"hex": "00483045022100b165ea45168878b35dcf1c5941082a65ee3b5b6b14eb62947538cc9da0820f56022015460c8e680ff7a597e1743f049507599b2542926e8574742fc0f3ec1a4f9fa101483045022100a26915a3ad0ae9c8298800c517b3dd1745e80ad9b200908e2947182c7901ae5402205df8614c8d8ddb59baf40772df3e2e2f297c54d5d70bb044ad5120e936dcf2810147522102485fd9df4f608c9a0d4868f0513988f6fad4e21843cf7845deec46e8c547b5c02102907a54bed8ad74b3f35638c60114ca240a308cb986f3f2f306178869a8880b6152ae", "asm": "0 3045022100b165ea45168878b35dcf1c5941082a65ee3b5b6b14eb62947538cc9da0820f56022015460c8e680ff7a597e1743f049507599b2542926e8574742fc0f3ec1a4f9fa1[ALL] 3045022100a26915a3ad0ae9c8298800c517b3dd1745e80ad9b200908e2947182c7901ae5402205df8614c8d8ddb59baf40772df3e2e2f297c54d5d70bb044ad5120e936dcf281[ALL] 522102485fd9df4f608c9a0d4868f0513988f6fad4e21843cf7845deec46e8c547b5c02102907a54bed8ad74b3f35638c60114ca240a308cb986f3f2f306178869a8880b6152ae"}, "vout": 1, "txid": "8d281f7a7a3bb0827796b15af40906254d89800e49f6704511129d75931415e1"}], "txid": "8f0ea41ecc5794e6019d30f73e6f22fb89dbebcae4864d98c40aef5dd3be89f2", "blocktime": 1537870268, "version": 1, "confirmations": 11518, "time": 1537870268, "locktime": 0, "vsize": 336, "size": 336}