{"hash": "8f0e39f809f897de74b65326cba6d5e668d21161929ff79ad12d0f68e0ca5905", "blockhash": "00000000000000000018f53835495a110e01622372bf6ae95dc86f2b0ab887b0", "vout": [{"scriptPubKey": {"reqSigs": 1, "hex": "76a9140102bb9eb380f8c87670cada4dc05a66ea1abef888ac", "addresses": ["16Lx5RwexE5tvexYtbbE3FWmfAneyNXE9"], "asm": "OP_DUP OP_HASH160 0102bb9eb380f8c87670cada4dc05a66ea1abef8 OP_EQUALVERIFY OP_CHECKSIG", "type": "pubkeyhash"}, "value": 0.00082187, "n": 0}, {"scriptPubKey": {"reqSigs": 1, "hex": "a914699280865590778b763564088ec41665e33fae8687", "addresses": ["3BKENpufvFX9ciuT19VDEyAdS5gDGjVBxx"], "asm": "OP_HASH160 699280865590778b763564088ec41665e33fae86 OP_EQUAL", "type": "scripthash"}, "value": 0.006777, "n": 1}], "hex": "010000000160fab8a97c79f25a68eeea97ca99be991aec5fb3f65db6daa3050206c93d1be8000000006b483045022100d5e2e0b7e1be97879a17f5243aa354a9b8f47f5ca244ddbfb6d4f32299634b4f02202090248e4e4012e3cc3baa406041e66609ef558e6fc31edaae4c58892c0d6aef012102d2b5ed7771713924aba56d154cdf2001177f0841117554575808eca5084774ddffffffff020b410100000000001976a9140102bb9eb380f8c87670cada4dc05a66ea1abef888ac44570a000000000017a914699280865590778b763564088ec41665e33fae868700000000", "vin": [{"sequence": 4294967295, "scriptSig": {"hex": "483045022100d5e2e0b7e1be97879a17f5243aa354a9b8f47f5ca244ddbfb6d4f32299634b4f02202090248e4e4012e3cc3baa406041e66609ef558e6fc31edaae4c58892c0d6aef012102d2b5ed7771713924aba56d154cdf2001177f0841117554575808eca5084774dd", "asm": "3045022100d5e2e0b7e1be97879a17f5243aa354a9b8f47f5ca244ddbfb6d4f32299634b4f02202090248e4e4012e3cc3baa406041e66609ef558e6fc31edaae4c58892c0d6aef[ALL] 02d2b5ed7771713924aba56d154cdf2001177f0841117554575808eca5084774dd"}, "vout": 0, "txid": "e81b3dc9060205a3dab65df6b35fec1a99be99ca97eaee685af2797ca9b8fa60"}], "txid": "8f0e39f809f897de74b65326cba6d5e668d21161929ff79ad12d0f68e0ca5905", "blocktime": 1537870928, "version": 1, "confirmations": 11512, "time": 1537870928, "locktime": 0, "vsize": 224, "size": 224}