{"hash": "9b49c7dac1ea917a3947aa83b9bd2c9c2d4260e140454a180a3d039fed69088c", "blockhash": "0000000000000000000e13cef7c366c0283d82e591d1acd082e914b08063cdf1", "vout": [{"scriptPubKey": {"reqSigs": 1, "hex": "a914f2bc766aba689088aa5a2c0c791cf6a5bef9295687", "addresses": ["3PpVDaKnqeM82K4kaboEEeEpfjybExNcT1"], "asm": "OP_HASH160 f2bc766aba689088aa5a2c0c791cf6a5bef92956 OP_EQUAL", "type": "scripthash"}, "value": 0.009, "n": 0}, {"scriptPubKey": {"reqSigs": 1, "hex": "76a9141d861f67e3b71cc78d7c2efc6ba0808a79cbf35488ac", "addresses": ["13h7Ga584F1CAbCwexFvW8zRCHvPm48cvh"], "asm": "OP_DUP OP_HASH160 1d861f67e3b71cc78d7c2efc6ba0808a79cbf354 OP_EQUALVERIFY OP_CHECKSIG", "type": "pubkeyhash"}, "value": 0.003, "n": 1}, {"scriptPubKey": {"reqSigs": 1, "hex": "76a9148109e3b19cae856823d21d55492ad3886f74bfd888ac", "addresses": ["1CmJ1snpcVt4j2znbYnJ76VRFSNXpk6cQt"], "asm": "OP_DUP OP_HASH160 8109e3b19cae856823d21d55492ad3886f74bfd8 OP_EQUALVERIFY OP_CHECKSIG", "type": "pubkeyhash"}, "value": 0.0234, "n": 2}, {"scriptPubKey": {"reqSigs": 1, "hex": "a914984edbee34e05276960e0f27b5e19384d89d0f1687", "addresses": ["3FaM6vot3ppJeFsCP6RTGoJjKiBr2UsK5o"], "asm": "OP_HASH160 984edbee34e05276960e0f27b5e19384d89d0f16 OP_EQUAL", "type": "scripthash"}, "value": 185.17517676, "n": 3}, {"scriptPubKey": {"reqSigs": 1, "hex": "a91416fcd59dddbd63acd238a85ea5f36b840590ff9b87", "addresses": ["33nZg1UBGMEBJrcWG66h44cAdVPipX4Sjk"], "asm": "OP_HASH160 16fcd59dddbd63acd238a85ea5f36b840590ff9b OP_EQUAL", "type": "scripthash"}, "value": 9.523, "n": 4}, {"scriptPubKey": {"reqSigs": 1, "hex": "a914a0a4567ac36697185b2218949b704a8d953ff16487", "addresses": ["3GLQudNU47sd2JWF2E1kGFmi3FoAFNwxy3"], "asm": "OP_HASH160 a0a4567ac36697185b2218949b704a8d953ff164 OP_EQUAL", "type": "scripthash"}, "value": 0.139, "n": 5}, {"scriptPubKey": {"reqSigs": 1, "hex": "76a91489d1c441bcdc80a5cb30a9517c859a19c98f659e88ac", "addresses": ["1DZis844iWMR5vkb486toZvRnXYcELZqqD"], "asm": "OP_DUP OP_HASH160 89d1c441bcdc80a5cb30a9517c859a19c98f659e OP_EQUALVERIFY OP_CHECKSIG", "type": "pubkeyhash"}, "value": 0.0693, "n": 6}, {"scriptPubKey": {"reqSigs": 1, "hex": "76a9142706b342b4aba0d114cdff44a35073e789d2434888ac", "addresses": ["14ZMP2GxskQXWLTEPfUc4huQWAPwVdtmcE"], "asm": "OP_DUP OP_HASH160 2706b342b4aba0d114cdff44a35073e789d24348 OP_EQUALVERIFY OP_CHECKSIG", "type": "pubkeyhash"}, "value": 3.5, "n": 7}, {"scriptPubKey": {"reqSigs": 1, "hex": "a91469f3760f53cd7ce1e1a3af6474ae743ae779d31d87", "addresses": ["3BMEXfWH5Jt3YNYyBaRBvxVeTcyPw6t1QH"], "asm": "OP_HASH160 69f3760f53cd7ce1e1a3af6474ae743ae779d31d OP_EQUAL", "type": "scripthash"}, "value": 2.0199, "n": 8}, {"scriptPubKey": {"reqSigs": 1, "hex": "a91469f376f5850b999b6fc33decaffd8186ddaef27787", "addresses": ["3BMEXufG7TP6kMC2SW7Q25X8wDjjLrPQiJ"], "asm": "OP_HASH160 69f376f5850b999b6fc33decaffd8186ddaef277 OP_EQUAL", "type": "scripthash"}, "value": 0.00454773, "n": 9}], "hex": "01000000000101f35f1325fca0379fc8b3ca402b2e69ea849d270a6e67a11c92351fa1318f8037050000002322002076965669678c62d7b555a1e9c50a93f4d2e3773da959404f61fa050d80b89c47ffffffff0aa0bb0d000000000017a914f2bc766aba689088aa5a2c0c791cf6a5bef9295687e0930400000000001976a9141d861f67e3b71cc78d7c2efc6ba0808a79cbf35488aca0b42300000000001976a9148109e3b19cae856823d21d55492ad3886f74bfd888ac6ce5ba4f0400000017a914984edbee34e05276960e0f27b5e19384d89d0f1687e0f1c2380000000017a91416fcd59dddbd63acd238a85ea5f36b840590ff9b87e018d4000000000017a914a0a4567ac36697185b2218949b704a8d953ff1648750be6900000000001976a91489d1c441bcdc80a5cb30a9517c859a19c98f659e88ac8093dc14000000001976a9142706b342b4aba0d114cdff44a35073e789d2434888ac701f0a0c0000000017a91469f3760f53cd7ce1e1a3af6474ae743ae779d31d8775f006000000000017a91469f376f5850b999b6fc33decaffd8186ddaef277870400483045022100a84f6672f371942d96fc1ef913b0d6399111e950b777308d5c507622d2152b12022068d395cdc8bbf2edee9f382893b39251182162ea70c4fcff8b7a88f2126762fc01473044022075be816c3c2355e2286b44a32a88b28120261995a769bb6b6314b00f4a2838f402202c42371d12b560a7cbfa1827bd5c4a323c72168fe325f2caadb7f43f644bb60d016952210271fad2e2d730fe77e41291a8e01ea9f335e182ec60b6f8f09b4e0d8bbcabf92d21025ba979f9d5a7130f9ed6f2cea111fdd8444d9640e69002d8a827c3c9ca3b600e2102ef782d85312c27d95739fc23a1eccddebec779d2cfafadf3655af3f6d10c597253ae00000000", "vin": [{"txinwitness": ["", "3045022100a84f6672f371942d96fc1ef913b0d6399111e950b777308d5c507622d2152b12022068d395cdc8bbf2edee9f382893b39251182162ea70c4fcff8b7a88f2126762fc01", "3044022075be816c3c2355e2286b44a32a88b28120261995a769bb6b6314b00f4a2838f402202c42371d12b560a7cbfa1827bd5c4a323c72168fe325f2caadb7f43f644bb60d01", "52210271fad2e2d730fe77e41291a8e01ea9f335e182ec60b6f8f09b4e0d8bbcabf92d21025ba979f9d5a7130f9ed6f2cea111fdd8444d9640e69002d8a827c3c9ca3b600e2102ef782d85312c27d95739fc23a1eccddebec779d2cfafadf3655af3f6d10c597253ae"], "sequence": 4294967295, "scriptSig": {"hex": "22002076965669678c62d7b555a1e9c50a93f4d2e3773da959404f61fa050d80b89c47", "asm": "002076965669678c62d7b555a1e9c50a93f4d2e3773da959404f61fa050d80b89c47"}, "vout": 5, "txid": "37808f31a11f35921ca1676e0a279d84ea692e2b40cab3c89f37a0fc25135ff3"}], "txid": "8f12e3125cdfb540510e5e5ad2bab0dee361c3531406402e5c03279399035926", "blocktime": 1537871767, "version": 1, "confirmations": 11493, "time": 1537871767, "locktime": 0, "vsize": 478, "size": 669}