{"hash": "8f1218c594d9cad60c995d91f3881a8b19c5a8f48a56877ef0e5fb735195155c", "blockhash": "0000000000000000000e13cef7c366c0283d82e591d1acd082e914b08063cdf1", "vout": [{"scriptPubKey": {"reqSigs": 1, "hex": "76a914437e262a0df6887ca85d5bd8ff3b0ce8159eeab688ac", "addresses": ["179sPqyJHdjN48EdPe1iSP9GhpFtD4QNYs"], "asm": "OP_DUP OP_HASH160 437e262a0df6887ca85d5bd8ff3b0ce8159eeab6 OP_EQUALVERIFY OP_CHECKSIG", "type": "pubkeyhash"}, "value": 1.68869169, "n": 0}, {"scriptPubKey": {"reqSigs": 1, "hex": "76a914a308c9dbf17ad774f11b97769d2ed097196344ed88ac", "addresses": ["1Fs3fuV5jutFWDirkCYhFi3oCV52j6PdMN"], "asm": "OP_DUP OP_HASH160 a308c9dbf17ad774f11b97769d2ed097196344ed OP_EQUALVERIFY OP_CHECKSIG", "type": "pubkeyhash"}, "value": 0.25289646, "n": 1}], "hex": "01000000010c51680912a338fa05b54daae7e5d580bca4ad22aaa88dd3124291ff982ee3fb010000006b483045022100e1e2a37eba733040d11e539920d305044d828cb4e5806dcffe44c4e3889ea81702204686b69d5d2dc2ac2f2a8757a5b784bf7930f2b86e840173021cd536b42ad4ca012102e0fb683219ecdf678dc7420ae1084e159a3d3d637881e70ae5f9008f5326d796ffffffff0231bd100a000000001976a914437e262a0df6887ca85d5bd8ff3b0ce8159eeab688acaee38101000000001976a914a308c9dbf17ad774f11b97769d2ed097196344ed88ac00000000", "vin": [{"sequence": 4294967295, "scriptSig": {"hex": "483045022100e1e2a37eba733040d11e539920d305044d828cb4e5806dcffe44c4e3889ea81702204686b69d5d2dc2ac2f2a8757a5b784bf7930f2b86e840173021cd536b42ad4ca012102e0fb683219ecdf678dc7420ae1084e159a3d3d637881e70ae5f9008f5326d796", "asm": "3045022100e1e2a37eba733040d11e539920d305044d828cb4e5806dcffe44c4e3889ea81702204686b69d5d2dc2ac2f2a8757a5b784bf7930f2b86e840173021cd536b42ad4ca[ALL] 02e0fb683219ecdf678dc7420ae1084e159a3d3d637881e70ae5f9008f5326d796"}, "vout": 1, "txid": "fbe32e98ff914212d38da8aa22ada4bc80d5e5e7aa4db505fa38a3120968510c"}], "txid": "8f1218c594d9cad60c995d91f3881a8b19c5a8f48a56877ef0e5fb735195155c", "blocktime": 1537871767, "version": 1, "confirmations": 11493, "time": 1537871767, "locktime": 0, "vsize": 226, "size": 226}