{"hash": "7e56e64c79c598370638e7f15ebd25e6e83fc5d898eecf4f878cef14899b3ee6", "blockhash": "0000000000000000001cda96e906b7601b7a6fb1a3b62bca570a9e5d8f4b3de1", "vout": [{"scriptPubKey": {"reqSigs": 1, "hex": "76a9149a1b8f9b1fa2d2297863adb1cb11c71df455684888ac", "addresses": ["1F3r5We2zwNiSzG6GQUTTWnnPMCz2HJbJu"], "asm": "OP_DUP OP_HASH160 9a1b8f9b1fa2d2297863adb1cb11c71df4556848 OP_EQUALVERIFY OP_CHECKSIG", "type": "pubkeyhash"}, "value": 2.707e-05, "n": 0}, {"scriptPubKey": {"reqSigs": 1, "hex": "a914e8db75c900cf08f06518e96d167331f2a4abfb3387", "addresses": ["3NvFbQMAkkqEFj4i1sYPPLkSWzxTFUchjA"], "asm": "OP_HASH160 e8db75c900cf08f06518e96d167331f2a4abfb33 OP_EQUAL", "type": "scripthash"}, "value": 0.00299791, "n": 1}], "hex": "010000000001012641cd56bb6722c067e540c8949afd56703f35ed42c3fcf4a375ff4932a54ede0100000023220020941cfaff8837763dc1f69ff82b6d6553fdea17a41cfc29a04403293eedd8ccc7ffffffff02930a0000000000001976a9149a1b8f9b1fa2d2297863adb1cb11c71df455684888ac0f9304000000000017a914e8db75c900cf08f06518e96d167331f2a4abfb33870400483045022100997988f3c605e1f1bc5b2c74105d59255a5bfce4d92e7738d34eeddb4990b59e022010bb964e659d9078b31c26afd2c2b81684c0236ffd725dd2bd7932638ce371f70147304402202454dae6a316ef1dba84a3949e1ef9ab7ad8d9c8931059b2f849772c32af5ca40220422dd7b5f352ad7b6153ebf6c5fb74c2967666d61176c38e3fb5259c9a399c3f0147522102531db3a5883f29bab4241dd0cd726936667bcda445d89bdd22244e828b6993342103148c80a5bdfddb05ff5bcffc397c8ca748d8b435ec6a175bc9d7bfc7fc6f853752ae00000000", "vin": [{"txinwitness": ["", "3045022100997988f3c605e1f1bc5b2c74105d59255a5bfce4d92e7738d34eeddb4990b59e022010bb964e659d9078b31c26afd2c2b81684c0236ffd725dd2bd7932638ce371f701", "304402202454dae6a316ef1dba84a3949e1ef9ab7ad8d9c8931059b2f849772c32af5ca40220422dd7b5f352ad7b6153ebf6c5fb74c2967666d61176c38e3fb5259c9a399c3f01", "522102531db3a5883f29bab4241dd0cd726936667bcda445d89bdd22244e828b6993342103148c80a5bdfddb05ff5bcffc397c8ca748d8b435ec6a175bc9d7bfc7fc6f853752ae"], "sequence": 4294967295, "scriptSig": {"hex": "220020941cfaff8837763dc1f69ff82b6d6553fdea17a41cfc29a04403293eedd8ccc7", "asm": "0020941cfaff8837763dc1f69ff82b6d6553fdea17a41cfc29a04403293eedd8ccc7"}, "vout": 1, "txid": "de4ea53249ff75a3f4fcc342ed353f7056fd9a94c840e567c02267bb56cd4126"}], "txid": "8f14cff2e8d872c5ac64edd0cf006c895ac116f262f9aa5783b2c9dc4ab6b584", "blocktime": 1537873282, "version": 1, "confirmations": 11485, "time": 1537873282, "locktime": 0, "vsize": 208, "size": 373}