{"hash": "4eaccf59f54d96d2c55e949ca868ab2203a863b1b496c04ffc867ca375e0b4df", "blockhash": "0000000000000000001f76057863aec43deb6fa401d9628bb513d65a8098bfab", "vout": [{"scriptPubKey": {"reqSigs": 1, "hex": "a9144ddcaaa90b8dd620556409575dc680b306a4ea1887", "addresses": ["38niJW4Cg2eFbKFVREEe6nhqBhj5V8KYNf"], "asm": "OP_HASH160 4ddcaaa90b8dd620556409575dc680b306a4ea18 OP_EQUAL", "type": "scripthash"}, "value": 7.804e-05, "n": 0}, {"scriptPubKey": {"reqSigs": 1, "hex": "a9146bd30ca1f4fb6fb8ff9ad07a58f983c4d05a441687", "addresses": ["3BX942zt5HeSkfkVnfrCkfFRbAZN6DJGKn"], "asm": "OP_HASH160 6bd30ca1f4fb6fb8ff9ad07a58f983c4d05a4416 OP_EQUAL", "type": "scripthash"}, "value": 0.01543048, "n": 1}], "hex": "0100000000010135ce6f1e6b29bd0f7e9e0fc5d271617ca8954abb765385f1bf9419f56a90b1ca01000000232200202d5470dfb768980f1e374cf51f22f9cf3c1bba51f62cf9d9b9e06d1cb26f63a3ffffffff027c1e00000000000017a9144ddcaaa90b8dd620556409575dc680b306a4ea1887888b17000000000017a9146bd30ca1f4fb6fb8ff9ad07a58f983c4d05a4416870400473044022029a602368f0ea44a56b6e1f6ed1e2fe7d2cb6f2d8f0ab2c9983c9c9cd17bf278022033061293470f94477da7877f955654f5865741ecb19d4fa524b09d3b50ff96b301483045022100a9a89ad6194f4c8a01863ef3c103c388b30ab73850060fb4289ca13b3631ca5b02206b89881aaa7099668656c9a772cadfde366819a63da75ddfc7cda4c99977a1a50147522102ba2bce4978fa8dc53549d5c8df72ef73743b112560a675933310be15fbfbb98821030580d373ab00643a581abb399b43fa66d7b6fc29624eb75b2d5ec8d99faa163f52ae00000000", "vin": [{"txinwitness": ["", "3044022029a602368f0ea44a56b6e1f6ed1e2fe7d2cb6f2d8f0ab2c9983c9c9cd17bf278022033061293470f94477da7877f955654f5865741ecb19d4fa524b09d3b50ff96b301", "3045022100a9a89ad6194f4c8a01863ef3c103c388b30ab73850060fb4289ca13b3631ca5b02206b89881aaa7099668656c9a772cadfde366819a63da75ddfc7cda4c99977a1a501", "522102ba2bce4978fa8dc53549d5c8df72ef73743b112560a675933310be15fbfbb98821030580d373ab00643a581abb399b43fa66d7b6fc29624eb75b2d5ec8d99faa163f52ae"], "sequence": 4294967295, "scriptSig": {"hex": "2200202d5470dfb768980f1e374cf51f22f9cf3c1bba51f62cf9d9b9e06d1cb26f63a3", "asm": "00202d5470dfb768980f1e374cf51f22f9cf3c1bba51f62cf9d9b9e06d1cb26f63a3"}, "vout": 1, "txid": "cab1906af51994bff1855376bb4a95a87c6171d2c50f9e7e0fbd296b1e6fce35"}], "txid": "8f16faddfeb2c7eece00525b937b2505050d0d849ab267be5b4ff1fb65a13334", "blocktime": 1537873891, "version": 1, "confirmations": 11478, "time": 1537873891, "locktime": 0, "vsize": 206, "size": 371}