{"hash": "8f17b59b65b9bf155933eed7a07c29d7433fb54e4edb8af4b7555f9792f915aa", "blockhash": "0000000000000000001e0dab787dd257d1dbfcb92a98c2207d5e1078be1f4165", "vout": [{"scriptPubKey": {"reqSigs": 1, "hex": "a914dd865e257764c65f9901c3767abdedcc1889e2b087", "addresses": ["3MtLDySJpaoZ3qwJYZmWghaJxAy6mouDUm"], "asm": "OP_HASH160 dd865e257764c65f9901c3767abdedcc1889e2b0 OP_EQUAL", "type": "scripthash"}, "value": 0.00390719, "n": 0}, {"scriptPubKey": {"reqSigs": 1, "hex": "76a914e08c8e3b19357600c62ca35fdf8a9ff0a5e8447888ac", "addresses": ["1MUJjwj9y2mhzM3JnNnwpFdQpSKNb5rtwY"], "asm": "OP_DUP OP_HASH160 e08c8e3b19357600c62ca35fdf8a9ff0a5e84478 OP_EQUALVERIFY OP_CHECKSIG", "type": "pubkeyhash"}, "value": 0.04435965, "n": 1}], "hex": "0100000001b5256c321b098fd994fd9e65541c68e841962ea7c89720e7de9c625f07f70fe4000000006a473044022024a22a16a1012cef8df7250282aee13a0df1bee79f891dfee62d7de474284196022070d3a0b30075666f0403bc581122f4a9e3aea959a16b1ea024a3cd959fa1371b012103d12c1eab5cc411d44765f46a79836de2e7c33eea6b599df3d9af8e024bbe7f79ffffffff023ff605000000000017a914dd865e257764c65f9901c3767abdedcc1889e2b087fdaf4300000000001976a914e08c8e3b19357600c62ca35fdf8a9ff0a5e8447888ac00000000", "vin": [{"sequence": 4294967295, "scriptSig": {"hex": "473044022024a22a16a1012cef8df7250282aee13a0df1bee79f891dfee62d7de474284196022070d3a0b30075666f0403bc581122f4a9e3aea959a16b1ea024a3cd959fa1371b012103d12c1eab5cc411d44765f46a79836de2e7c33eea6b599df3d9af8e024bbe7f79", "asm": "3044022024a22a16a1012cef8df7250282aee13a0df1bee79f891dfee62d7de474284196022070d3a0b30075666f0403bc581122f4a9e3aea959a16b1ea024a3cd959fa1371b[ALL] 03d12c1eab5cc411d44765f46a79836de2e7c33eea6b599df3d9af8e024bbe7f79"}, "vout": 0, "txid": "e40ff7075f629cdee72097c8a72e9641e8681c54659efd94d98f091b326c25b5"}], "txid": "8f17b59b65b9bf155933eed7a07c29d7433fb54e4edb8af4b7555f9792f915aa", "blocktime": 1537872475, "version": 1, "confirmations": 11487, "time": 1537872475, "locktime": 0, "vsize": 223, "size": 223}