{"hash": "8f1ab1944fb0f2b17afbdf948c6ce5e656eb884ca8d96890d21a864eae445070", "blockhash": "0000000000000000000e13cef7c366c0283d82e591d1acd082e914b08063cdf1", "vout": [{"scriptPubKey": {"reqSigs": 1, "hex": "76a9144b3b740abd5f43ea1d349ba1cb1ed935c5baa9fd88ac", "addresses": ["17rnuGuT2F1fHcgCs312bkqGYb1h6J5F2J"], "asm": "OP_DUP OP_HASH160 4b3b740abd5f43ea1d349ba1cb1ed935c5baa9fd OP_EQUALVERIFY OP_CHECKSIG", "type": "pubkeyhash"}, "value": 0.000733, "n": 0}, {"scriptPubKey": {"type": "nulldata", "hex": "6a4c50000077a50001cbb205e5d82553f51ee4a0c3af6c953dd567cf27e7e3ef3236678a6250971726b13df038a3ece4a19bad472bfa265baa0efa0614574a5cb5650dbc9a9526289ac0f6612cd74e33776ee4", "asm": "OP_RETURN 000077a50001cbb205e5d82553f51ee4a0c3af6c953dd567cf27e7e3ef3236678a6250971726b13df038a3ece4a19bad472bfa265baa0efa0614574a5cb5650dbc9a9526289ac0f6612cd74e33776ee4"}, "value": 0.0, "n": 1}], "hex": "01000000017ea59b6e42f1dea6c95c769295ac1e25403f8b43f38e4dcf1becff765e4576ff010000006a4730440220119e057176da0fa89c9e65f2871b93eed755950f01b057f26109d9ee8251446c022000cdd305c888a4e3008ae33cf5a31979226b00ad8477ce7864e10990cfa714720121028be1a1c87b370c2c83ea649face8cc748da4d61eb617b5b8a9f92409ac450ecbffffffff02541e0100000000001976a9144b3b740abd5f43ea1d349ba1cb1ed935c5baa9fd88ac0000000000000000536a4c50000077a50001cbb205e5d82553f51ee4a0c3af6c953dd567cf27e7e3ef3236678a6250971726b13df038a3ece4a19bad472bfa265baa0efa0614574a5cb5650dbc9a9526289ac0f6612cd74e33776ee400000000", "vin": [{"sequence": 4294967295, "scriptSig": {"hex": "4730440220119e057176da0fa89c9e65f2871b93eed755950f01b057f26109d9ee8251446c022000cdd305c888a4e3008ae33cf5a31979226b00ad8477ce7864e10990cfa714720121028be1a1c87b370c2c83ea649face8cc748da4d61eb617b5b8a9f92409ac450ecb", "asm": "30440220119e057176da0fa89c9e65f2871b93eed755950f01b057f26109d9ee8251446c022000cdd305c888a4e3008ae33cf5a31979226b00ad8477ce7864e10990cfa71472[ALL] 028be1a1c87b370c2c83ea649face8cc748da4d61eb617b5b8a9f92409ac450ecb"}, "vout": 1, "txid": "ff76455e76ffec1bcf4d8ef3438b3f40251eac9592765cc9a6def1426e9ba57e"}], "txid": "8f1ab1944fb0f2b17afbdf948c6ce5e656eb884ca8d96890d21a864eae445070", "blocktime": 1537871767, "version": 1, "confirmations": 11493, "time": 1537871767, "locktime": 0, "vsize": 283, "size": 283}