{"hash": "8f208e5400d323d6d26e8a88fc975b1b1b15da20930bad33a50170463f0ccb72", "blockhash": "0000000000000000001f76057863aec43deb6fa401d9628bb513d65a8098bfab", "vout": [{"scriptPubKey": {"reqSigs": 1, "hex": "a914872d80f0b81ffbd9cda4e0f774a97ad204259a8c87", "addresses": ["3E1mf6G3CKjSYsGeHQtHhUpAwDgEenodog"], "asm": "OP_HASH160 872d80f0b81ffbd9cda4e0f774a97ad204259a8c OP_EQUAL", "type": "scripthash"}, "value": 0.01561689, "n": 0}, {"scriptPubKey": {"reqSigs": 1, "hex": "76a9141f8ccd987c3d4721783c8563df8036313623ec9288ac", "addresses": ["13spd7rcc5VjQGusWr7w93fj4QJu7i2cD6"], "asm": "OP_DUP OP_HASH160 1f8ccd987c3d4721783c8563df8036313623ec92 OP_EQUALVERIFY OP_CHECKSIG", "type": "pubkeyhash"}, "value": 0.07447722, "n": 1}], "hex": "01000000013dee928ce5dafd7cedad8f94cc5c2893bffa4a4e2f348de5ad1a966bda367b3f010000006a47304402200be28fccacbd62d5cbe7b538c2ba55a0f0fd53893325458c1b8a9ff51c92f65402202d59515d3ca6757d03bea156db3e8490ef77662c8621b9be2a70f901285d08ad012102d2ce3a6d77fdb89fdec8aa6274a25f177d85606bd265378a4e70568c0e23160effffffff0259d417000000000017a914872d80f0b81ffbd9cda4e0f774a97ad204259a8c87aaa47100000000001976a9141f8ccd987c3d4721783c8563df8036313623ec9288ac00000000", "vin": [{"sequence": 4294967295, "scriptSig": {"hex": "47304402200be28fccacbd62d5cbe7b538c2ba55a0f0fd53893325458c1b8a9ff51c92f65402202d59515d3ca6757d03bea156db3e8490ef77662c8621b9be2a70f901285d08ad012102d2ce3a6d77fdb89fdec8aa6274a25f177d85606bd265378a4e70568c0e23160e", "asm": "304402200be28fccacbd62d5cbe7b538c2ba55a0f0fd53893325458c1b8a9ff51c92f65402202d59515d3ca6757d03bea156db3e8490ef77662c8621b9be2a70f901285d08ad[ALL] 02d2ce3a6d77fdb89fdec8aa6274a25f177d85606bd265378a4e70568c0e23160e"}, "vout": 1, "txid": "3f7b36da6b961aade58d342f4e4afabf93285ccc948faded7cfddae58c92ee3d"}], "txid": "8f208e5400d323d6d26e8a88fc975b1b1b15da20930bad33a50170463f0ccb72", "blocktime": 1537873891, "version": 1, "confirmations": 11478, "time": 1537873891, "locktime": 0, "vsize": 223, "size": 223}