{"hash": "8f21e8d0956b943d2e3bc475102dba049ac5ef4b85080b655dfe860d3199642d", "blockhash": "00000000000000000004ffacab907a6b429b9a5745fa0b75af4234bf69dd7176", "vout": [{"scriptPubKey": {"reqSigs": 1, "hex": "a9146eb34892ccd051f137b47e1e0f85755406948a1c87", "addresses": ["3BnM2UpD8S9mvpxReWevDV3swgrBRBuazb"], "asm": "OP_HASH160 6eb34892ccd051f137b47e1e0f85755406948a1c OP_EQUAL", "type": "scripthash"}, "value": 0.01450842, "n": 0}], "hex": "01000000033cc4d1f2648be73bf9b231c614bce317e1b4f01f1d084b78cf0f2a4494ce89f0010000006a47304402203dbe5780f728b60a3b3379ccfca0893ae27673670c3030782b83f1ec2dc5816102204584503959c94381eb865244094b3cb0a514a9be4dbe3206a7f5f8f0df452e39012102c91cbb3697d395337ac10f9d684e79c69c834f4419505713c0ef37bad973b184ffffffffea5e52f748ff8220c91866ab26fc86d1790f93c771dd4b6444df112162d083d5000000006b483045022100e925d05e8d9eb97cd4dbf36868ffebf4dd2c4893582851060abcbdbf0a521085022076955d16866040624a27e9659f226b675525086edd1658cdad5d3219b96fe61e012103ebfc157c3c78f0b8085d827d5781f5e8a8765f69171440f58220284a07ff1502ffffffffa7e8273ee6815fd27875def92d3f23318038605bcf44f42378116259be0c5fce070000006b483045022100ce3f2b5271558ba94495f85ab5ba7693c22c6dfe0365563c2f8a5c5b91b0265602202b8d0f5485587b1b38248184e18495b6ff2949f88e150c4577020aee7d78b05c012102d3e92f79861dfd06f0f8b4b16d4b6f46807904d539b3383cba855e9bdf7a4572ffffffff015a2316000000000017a9146eb34892ccd051f137b47e1e0f85755406948a1c8700000000", "vin": [{"sequence": 4294967295, "scriptSig": {"hex": "47304402203dbe5780f728b60a3b3379ccfca0893ae27673670c3030782b83f1ec2dc5816102204584503959c94381eb865244094b3cb0a514a9be4dbe3206a7f5f8f0df452e39012102c91cbb3697d395337ac10f9d684e79c69c834f4419505713c0ef37bad973b184", "asm": "304402203dbe5780f728b60a3b3379ccfca0893ae27673670c3030782b83f1ec2dc5816102204584503959c94381eb865244094b3cb0a514a9be4dbe3206a7f5f8f0df452e39[ALL] 02c91cbb3697d395337ac10f9d684e79c69c834f4419505713c0ef37bad973b184"}, "vout": 1, "txid": "f089ce94442a0fcf784b081d1ff0b4e117e3bc14c631b2f93be78b64f2d1c43c"}, {"sequence": 4294967295, "scriptSig": {"hex": "483045022100e925d05e8d9eb97cd4dbf36868ffebf4dd2c4893582851060abcbdbf0a521085022076955d16866040624a27e9659f226b675525086edd1658cdad5d3219b96fe61e012103ebfc157c3c78f0b8085d827d5781f5e8a8765f69171440f58220284a07ff1502", "asm": "3045022100e925d05e8d9eb97cd4dbf36868ffebf4dd2c4893582851060abcbdbf0a521085022076955d16866040624a27e9659f226b675525086edd1658cdad5d3219b96fe61e[ALL] 03ebfc157c3c78f0b8085d827d5781f5e8a8765f69171440f58220284a07ff1502"}, "vout": 0, "txid": "d583d0622111df44644bdd71c7930f79d186fc26ab6618c92082ff48f7525eea"}, {"sequence": 4294967295, "scriptSig": {"hex": "483045022100ce3f2b5271558ba94495f85ab5ba7693c22c6dfe0365563c2f8a5c5b91b0265602202b8d0f5485587b1b38248184e18495b6ff2949f88e150c4577020aee7d78b05c012102d3e92f79861dfd06f0f8b4b16d4b6f46807904d539b3383cba855e9bdf7a4572", "asm": "3045022100ce3f2b5271558ba94495f85ab5ba7693c22c6dfe0365563c2f8a5c5b91b0265602202b8d0f5485587b1b38248184e18495b6ff2949f88e150c4577020aee7d78b05c[ALL] 02d3e92f79861dfd06f0f8b4b16d4b6f46807904d539b3383cba855e9bdf7a4572"}, "vout": 7, "txid": "ce5f0cbe5962117823f444cf5b60388031233f2df9de7578d25f81e63e27e8a7"}], "txid": "8f21e8d0956b943d2e3bc475102dba049ac5ef4b85080b655dfe860d3199642d", "blocktime": 1537875543, "version": 1, "confirmations": 11464, "time": 1537875543, "locktime": 0, "vsize": 485, "size": 485}