{"hash": "8f23eeeb27c4e7285e0d86fae444d182900d1248f3bff20d72076886c1145689", "blockhash": "0000000000000000000dcc0f55137456b1a82d3642486a52398922ac4d620174", "vout": [{"scriptPubKey": {"reqSigs": 1, "hex": "a9147883475e9b0ca53cd41794bad632ddc8d46689f387", "addresses": ["3CgEGyQxcoXwqFBkJFY8stTbTmQSmnhnKn"], "asm": "OP_HASH160 7883475e9b0ca53cd41794bad632ddc8d46689f3 OP_EQUAL", "type": "scripthash"}, "value": 0.00482076, "n": 0}, {"scriptPubKey": {"reqSigs": 1, "hex": "76a91455e33c66838854669af0291da5bd736ab32a99b988ac", "addresses": ["18q8ewFp16mMuSkqLkDtBZz9pTMEUfoCT9"], "asm": "OP_DUP OP_HASH160 55e33c66838854669af0291da5bd736ab32a99b9 OP_EQUALVERIFY OP_CHECKSIG", "type": "pubkeyhash"}, "value": 0.12450889, "n": 1}], "hex": "01000000013b661e62e118bd266ed40d7b9b7ec768846befe8ecf799faa7c61d40db5530c4010000006b483045022100820f96d058f13fe9a24dcca3797086037abfbe3ca7f039044364b9713a4b7d1c022065115cd7ad05b397f6afa6d140620a0c959f93fb259fdf9bb24d3b7d4e14b207012103476ee0b6c6204310fb2f4d69264eec8c7b6fbec8bb2cd4b75ffb5c49d656f727ffffffff021c5b07000000000017a9147883475e9b0ca53cd41794bad632ddc8d46689f38749fcbd00000000001976a91455e33c66838854669af0291da5bd736ab32a99b988ac00000000", "vin": [{"sequence": 4294967295, "scriptSig": {"hex": "483045022100820f96d058f13fe9a24dcca3797086037abfbe3ca7f039044364b9713a4b7d1c022065115cd7ad05b397f6afa6d140620a0c959f93fb259fdf9bb24d3b7d4e14b207012103476ee0b6c6204310fb2f4d69264eec8c7b6fbec8bb2cd4b75ffb5c49d656f727", "asm": "3045022100820f96d058f13fe9a24dcca3797086037abfbe3ca7f039044364b9713a4b7d1c022065115cd7ad05b397f6afa6d140620a0c959f93fb259fdf9bb24d3b7d4e14b207[ALL] 03476ee0b6c6204310fb2f4d69264eec8c7b6fbec8bb2cd4b75ffb5c49d656f727"}, "vout": 1, "txid": "c43055db401dc6a7fa99f7ece8ef6b8468c77e9b7b0dd46e26bd18e1621e663b"}], "txid": "8f23eeeb27c4e7285e0d86fae444d182900d1248f3bff20d72076886c1145689", "blocktime": 1537870268, "version": 1, "confirmations": 11517, "time": 1537870268, "locktime": 0, "vsize": 224, "size": 224}