{"hash": "86025ce89619497ca49e77e8d88cf1ff80dfee47afa0f401b8897d60375d49b7", "blockhash": "000000000000000000022b45ed06c6f4ccd3cf7fb5ba4856ebd2e58215665228", "vout": [{"scriptPubKey": {"reqSigs": 1, "hex": "a914a15e15a37551454801113c61e1f68731a6ef1aa687", "addresses": ["3GQFRY2xVYS4tgDtS8pAF8ThShV1Hz1isR"], "asm": "OP_HASH160 a15e15a37551454801113c61e1f68731a6ef1aa6 OP_EQUAL", "type": "scripthash"}, "value": 0.00025875, "n": 0}, {"scriptPubKey": {"reqSigs": 1, "hex": "a9144b8ec4cafe7319fe1b180097d13f80abcfcd7dcb87", "addresses": ["38aXdg9ZY4fWKhbd8UBP8x7YrhZ43LNeAF"], "asm": "OP_HASH160 4b8ec4cafe7319fe1b180097d13f80abcfcd7dcb OP_EQUAL", "type": "scripthash"}, "value": 0.40473502, "n": 1}], "hex": "01000000000101b8ed4a21cf83503b8e583facbb927bcbd33d00196baff8b6ce0dc99f7f378a140100000023220020ebbdfcaa42723c51f4eaad63b5efb3abe6f6b2b68b95c77d60db368d99353104ffffffff02136500000000000017a914a15e15a37551454801113c61e1f68731a6ef1aa6879e9369020000000017a9144b8ec4cafe7319fe1b180097d13f80abcfcd7dcb8704004730440220477f3431a9a36adad4be38c180210fcceac874243213498755ec4073c6fe7f1f022016b41e8a00c126fc06241f046ccb43cb9fe95d3f467dc27f2b057d6a3c530d79014730440220312a3ab9407a7442d37e829a2f6f55bc0be42bc80ef525e0df8e127b2c5c467e02205e9dd58c69c438289e5077eae9c6956b1cb60e773f7cb95c020c2fb8bbde382f01475221030f48e4c604f793abe343d3a022216b64c95169e8cd839c35df8a50c05d703e802103871fc2ca08e6950b38867e8e6a0e94ee625223d3aa0df5c65f414c6d784467e252ae00000000", "vin": [{"txinwitness": ["", "30440220477f3431a9a36adad4be38c180210fcceac874243213498755ec4073c6fe7f1f022016b41e8a00c126fc06241f046ccb43cb9fe95d3f467dc27f2b057d6a3c530d7901", "30440220312a3ab9407a7442d37e829a2f6f55bc0be42bc80ef525e0df8e127b2c5c467e02205e9dd58c69c438289e5077eae9c6956b1cb60e773f7cb95c020c2fb8bbde382f01", "5221030f48e4c604f793abe343d3a022216b64c95169e8cd839c35df8a50c05d703e802103871fc2ca08e6950b38867e8e6a0e94ee625223d3aa0df5c65f414c6d784467e252ae"], "sequence": 4294967295, "scriptSig": {"hex": "220020ebbdfcaa42723c51f4eaad63b5efb3abe6f6b2b68b95c77d60db368d99353104", "asm": "0020ebbdfcaa42723c51f4eaad63b5efb3abe6f6b2b68b95c77d60db368d99353104"}, "vout": 1, "txid": "148a377f9fc90dceb6f8af6b19003dd3cb7b92bbac3f588e3b5083cf214aedb8"}], "txid": "8f275d4646cacf1eac7531c7b17161eac83580ada2fb3d9d966d4431f740a275", "blocktime": 1537869901, "version": 1, "confirmations": 11523, "time": 1537869901, "locktime": 0, "vsize": 205, "size": 370}