{"hash": "aa094cf0886dbaf80554b905200a0f739f172503b425efa08cc9d36fa36d041c", "blockhash": "0000000000000000000e13cef7c366c0283d82e591d1acd082e914b08063cdf1", "vout": [{"scriptPubKey": {"reqSigs": 1, "hex": "a9144909b2a96b411669918a6917f2060eb1effaf69d87", "addresses": ["38MCsNMxLJDCioLVKgK2uGTmFfiNbza5RQ"], "asm": "OP_HASH160 4909b2a96b411669918a6917f2060eb1effaf69d OP_EQUAL", "type": "scripthash"}, "value": 0.002, "n": 0}, {"scriptPubKey": {"reqSigs": 1, "hex": "0014936b169a2a18aac7e8840fbd4b176bbd3e25e5a3", "addresses": ["bc1qjd43dx32rz4v06yyp775k9mth5lztedr8fh985"], "asm": "0 936b169a2a18aac7e8840fbd4b176bbd3e25e5a3", "type": "witness_v0_keyhash"}, "value": 2.099e-05, "n": 1}], "hex": "010000000001013a28b5cdf19f454b9ae65f08459f3e35a2616a90919e458c5380d4ff24a2b8bf0000000000ffffffff02400d03000000000017a9144909b2a96b411669918a6917f2060eb1effaf69d873308000000000000160014936b169a2a18aac7e8840fbd4b176bbd3e25e5a3024730440220314a62ee4dfca3de560c96a2cef80fc17573f10fa4f88f463df8c8204d86a74b02205137a6298fc15f7be39e7f89edf5dad5f90f1ac308a1075f03f9646791af1f460121027ba674693f6105fef079446168d4ed2bf31d89bc639d016536ec40893a10896200000000", "vin": [{"txinwitness": ["30440220314a62ee4dfca3de560c96a2cef80fc17573f10fa4f88f463df8c8204d86a74b02205137a6298fc15f7be39e7f89edf5dad5f90f1ac308a1075f03f9646791af1f4601", "027ba674693f6105fef079446168d4ed2bf31d89bc639d016536ec40893a108962"], "sequence": 4294967295, "scriptSig": {"hex": "", "asm": ""}, "vout": 0, "txid": "bfb8a224ffd480538c459e91906a61a2353e9f45085fe69a4b459ff1cdb5283a"}], "txid": "8f277cf833a531d9740cb0a5caf191f2542095fb09080f7a7134b2f72193ea62", "blocktime": 1537871767, "version": 1, "confirmations": 11495, "time": 1537871767, "locktime": 0, "vsize": 142, "size": 223}