{"hash": "8f2a28504618c9292d7555759f56b2b58882ec0dd9a3db260eef1e46e4d04164", "blockhash": "00000000000000000004ffacab907a6b429b9a5745fa0b75af4234bf69dd7176", "vout": [{"scriptPubKey": {"reqSigs": 1, "hex": "76a914e28baa6ae2c39ded39a934443677ce6577e1311288ac", "addresses": ["1Mes2Vn9oDpRBznyHCozbSqkQXmcgTwXyt"], "asm": "OP_DUP OP_HASH160 e28baa6ae2c39ded39a934443677ce6577e13112 OP_EQUALVERIFY OP_CHECKSIG", "type": "pubkeyhash"}, "value": 0.00375756, "n": 0}, {"scriptPubKey": {"reqSigs": 1, "hex": "76a91404804e0773fa686554b392f4e01180294d07601f88ac", "addresses": ["1QoQYPb5JiKyeK2jj47Rv9YTRGn6FVFCX"], "asm": "OP_DUP OP_HASH160 04804e0773fa686554b392f4e01180294d07601f OP_EQUALVERIFY OP_CHECKSIG", "type": "pubkeyhash"}, "value": 0.01848524, "n": 1}], "hex": "0100000001a62774b6e940ad6b75c7ea426c9287c7d0c160ad54c34a996978d72df6a2951e010000006a473044022009c759c91a56fc587d5d3a6dfea05d56b2b6294d62729cd5c2348e7e0ce354e0022077b5a79effe5491bbcad215930187715a4eab8306adeeeabb485ca35f71c7fbf012102355ec030075ff36cd91b814894ce05a2ca712f97366a0713ffb58ca01059bb88ffffffff02ccbb0500000000001976a914e28baa6ae2c39ded39a934443677ce6577e1311288accc341c00000000001976a91404804e0773fa686554b392f4e01180294d07601f88ac00000000", "vin": [{"sequence": 4294967295, "scriptSig": {"hex": "473044022009c759c91a56fc587d5d3a6dfea05d56b2b6294d62729cd5c2348e7e0ce354e0022077b5a79effe5491bbcad215930187715a4eab8306adeeeabb485ca35f71c7fbf012102355ec030075ff36cd91b814894ce05a2ca712f97366a0713ffb58ca01059bb88", "asm": "3044022009c759c91a56fc587d5d3a6dfea05d56b2b6294d62729cd5c2348e7e0ce354e0022077b5a79effe5491bbcad215930187715a4eab8306adeeeabb485ca35f71c7fbf[ALL] 02355ec030075ff36cd91b814894ce05a2ca712f97366a0713ffb58ca01059bb88"}, "vout": 1, "txid": "1e95a2f62dd77869994ac354ad60c1d0c787926c42eac7756bad40e9b67427a6"}], "txid": "8f2a28504618c9292d7555759f56b2b58882ec0dd9a3db260eef1e46e4d04164", "blocktime": 1537875543, "version": 1, "confirmations": 11464, "time": 1537875543, "locktime": 0, "vsize": 225, "size": 225}