{"hash": "222c7b1eb621379436cfddb1d427bdc1a6e35906e66b78c50b24df8c86a41040", "blockhash": "0000000000000000000e13cef7c366c0283d82e591d1acd082e914b08063cdf1", "vout": [{"scriptPubKey": {"reqSigs": 1, "hex": "a91469f375f6e97018f3bee7a2a7694c79e72e3a9a1e87", "addresses": ["3BMEXe1CYd8KgBxzX42rF7soHW3TeAEtiK"], "asm": "OP_HASH160 69f375f6e97018f3bee7a2a7694c79e72e3a9a1e OP_EQUAL", "type": "scripthash"}, "value": 0.01469209, "n": 0}, {"scriptPubKey": {"reqSigs": 1, "hex": "76a914fa80823461218f3ae558310576f4d11efe9d1ee388ac", "addresses": ["1PqXstmKJLjwbondCcoFepuPy3a2KXRGWu"], "asm": "OP_DUP OP_HASH160 fa80823461218f3ae558310576f4d11efe9d1ee3 OP_EQUALVERIFY OP_CHECKSIG", "type": "pubkeyhash"}, "value": 0.05486366, "n": 1}, {"scriptPubKey": {"reqSigs": 1, "hex": "a914b5aa90b5a80b5fbd1b8f84d002fe9093ed26f48587", "addresses": ["3JFaZM8dRvc21zu2NR3DwercCDD9Zp43ZE"], "asm": "OP_HASH160 b5aa90b5a80b5fbd1b8f84d002fe9093ed26f485 OP_EQUAL", "type": "scripthash"}, "value": 0.229, "n": 2}, {"scriptPubKey": {"reqSigs": 1, "hex": "76a914ea39519994fdeadd66c5e3891948c6613618642888ac", "addresses": ["1NMTnTxpQ2W22xqghbQXbAYfqtJ9w9zX8Z"], "asm": "OP_DUP OP_HASH160 ea39519994fdeadd66c5e3891948c66136186428 OP_EQUALVERIFY OP_CHECKSIG", "type": "pubkeyhash"}, "value": 0.04, "n": 3}, {"scriptPubKey": {"reqSigs": 1, "hex": "0020701a8d401c84fb13e6baf169d59684e17abd9fa216c8cc5b9fc63d622ff8c58d", "addresses": ["bc1qwqdg6squsna38e46795at95yu9atm8azzmyvckulcc7kytlcckxswvvzej"], "asm": "0 701a8d401c84fb13e6baf169d59684e17abd9fa216c8cc5b9fc63d622ff8c58d", "type": "witness_v0_scripthash"}, "value": 0.08878422, "n": 4}], "hex": "0100000000010102a2b8c3765983dcfc399760144ff7490c634820cc7a7522ae9db7d8c14f1b340100000000ffffffff05196b16000000000017a91469f375f6e97018f3bee7a2a7694c79e72e3a9a1e871eb75300000000001976a914fa80823461218f3ae558310576f4d11efe9d1ee388ac206d5d010000000017a914b5aa90b5a80b5fbd1b8f84d002fe9093ed26f4858700093d00000000001976a914ea39519994fdeadd66c5e3891948c6613618642888ac5679870000000000220020701a8d401c84fb13e6baf169d59684e17abd9fa216c8cc5b9fc63d622ff8c58d040047304402200aa6bf3288f39d0e384767a6fa1d2a011ca046c78b7b55b28e2d534558271bb0022047a7e97df63304f3f987098cd578e6219ae17e46dc346eef99761a92a79761c201473044022033c1288d2c441f43d6412584b32fd20e003936dbaafbdd92cf34a1326ea63401022056e013bc1898b823f6529dabb03ce7625704137467392354c7b073fd35dc403f016952210375e00eb72e29da82b89367947f29ef34afb75e8654f6ea368e0acdfd92976b7c2103a1b26313f430c4b15bb1fdce663207659d8cac749a0e53d70eff01874496feff2103c96d495bfdd5ba4145e3e046fee45e84a8a48ad05bd8dbb395c011a32cf9f88053ae00000000", "vin": [{"txinwitness": ["", "304402200aa6bf3288f39d0e384767a6fa1d2a011ca046c78b7b55b28e2d534558271bb0022047a7e97df63304f3f987098cd578e6219ae17e46dc346eef99761a92a79761c201", "3044022033c1288d2c441f43d6412584b32fd20e003936dbaafbdd92cf34a1326ea63401022056e013bc1898b823f6529dabb03ce7625704137467392354c7b073fd35dc403f01", "52210375e00eb72e29da82b89367947f29ef34afb75e8654f6ea368e0acdfd92976b7c2103a1b26313f430c4b15bb1fdce663207659d8cac749a0e53d70eff01874496feff2103c96d495bfdd5ba4145e3e046fee45e84a8a48ad05bd8dbb395c011a32cf9f88053ae"], "sequence": 4294967295, "scriptSig": {"hex": "", "asm": ""}, "vout": 1, "txid": "341b4fc1d8b79dae22757acc2048630c49f74f14609739fcdc835976c3b8a202"}], "txid": "8f3113376f6c33b7a073caef84cd4d2dc9d7749e5d004908a9a165205e988952", "blocktime": 1537871767, "version": 1, "confirmations": 11490, "time": 1537871767, "locktime": 0, "vsize": 290, "size": 480}