{"hash": "8f32dd503be639feb1c7846e6d6c333d6a93f2a435e1fd1d2f5fc273643d2c3b", "blockhash": "00000000000000000004ffacab907a6b429b9a5745fa0b75af4234bf69dd7176", "vout": [{"scriptPubKey": {"reqSigs": 1, "hex": "a914d751180d0b7a2a2cc07f2bf6e61c37b4dc35c4cb87", "addresses": ["3MKWMHz6y6pjAhSDtvvLQj34eAERbdiS2u"], "asm": "OP_HASH160 d751180d0b7a2a2cc07f2bf6e61c37b4dc35c4cb OP_EQUAL", "type": "scripthash"}, "value": 0.001, "n": 0}, {"scriptPubKey": {"reqSigs": 1, "hex": "76a9140e5fb070d36e52e6c8bc3c4ae2f169b52db5badd88ac", "addresses": ["12K16HnCpPf6eSx8hJDaM9CDuQhn6NDpWr"], "asm": "OP_DUP OP_HASH160 0e5fb070d36e52e6c8bc3c4ae2f169b52db5badd OP_EQUALVERIFY OP_CHECKSIG", "type": "pubkeyhash"}, "value": 0.314226, "n": 1}], "hex": "010000000143f327a1db79362d1ca8192473b38b174305de27483468c499b7acd793817006000000006a473044022030fab25570b2341de32fda994812b3f12c8cfe2a5c81591a7c69e2e8fa36d7c902206b070bc863e89447078fdd1ba232c87395f347fd80439e4299c420a148d16daa012103d7eabda3eaba33edcfd52f715bd5cdd216a97d8400d9c89f5314e77b9a1244f8feffffff02a08601000000000017a914d751180d0b7a2a2cc07f2bf6e61c37b4dc35c4cb878878df01000000001976a9140e5fb070d36e52e6c8bc3c4ae2f169b52db5badd88ac16490800", "vin": [{"sequence": 4294967294, "scriptSig": {"hex": "473044022030fab25570b2341de32fda994812b3f12c8cfe2a5c81591a7c69e2e8fa36d7c902206b070bc863e89447078fdd1ba232c87395f347fd80439e4299c420a148d16daa012103d7eabda3eaba33edcfd52f715bd5cdd216a97d8400d9c89f5314e77b9a1244f8", "asm": "3044022030fab25570b2341de32fda994812b3f12c8cfe2a5c81591a7c69e2e8fa36d7c902206b070bc863e89447078fdd1ba232c87395f347fd80439e4299c420a148d16daa[ALL] 03d7eabda3eaba33edcfd52f715bd5cdd216a97d8400d9c89f5314e77b9a1244f8"}, "vout": 0, "txid": "06708193d7acb799c468344827de0543178bb3732419a81c2d3679dba127f343"}], "txid": "8f32dd503be639feb1c7846e6d6c333d6a93f2a435e1fd1d2f5fc273643d2c3b", "blocktime": 1537875543, "version": 1, "confirmations": 11464, "time": 1537875543, "locktime": 542998, "vsize": 223, "size": 223}