{"hash": "8f38bfa3224cecff7f5050369f32c85c00c7f3b5be75f25f166edbfea06a57a2", "blockhash": "000000000000000000022b45ed06c6f4ccd3cf7fb5ba4856ebd2e58215665228", "vout": [{"scriptPubKey": {"reqSigs": 1, "hex": "76a914bccf804f2a4c2732156ca9af4ababa2d1b9c228688ac", "addresses": ["1JDLcW3hfsKeTs2cxv4wUNbvMe2i8D3FBc"], "asm": "OP_DUP OP_HASH160 bccf804f2a4c2732156ca9af4ababa2d1b9c2286 OP_EQUALVERIFY OP_CHECKSIG", "type": "pubkeyhash"}, "value": 0.0148632, "n": 0}, {"scriptPubKey": {"type": "nulldata", "hex": "6a4c500000775c00010f99ba3cf20259cb5014fffa3a016b46dc7dc7d0968d120d670c1906f999e00b6b3cf12aaa55f96e175ab0a415755baa06fe06128d3ff5472e16bc9a9526289ac0f6612cd74e33776ee4", "asm": "OP_RETURN 0000775c00010f99ba3cf20259cb5014fffa3a016b46dc7dc7d0968d120d670c1906f999e00b6b3cf12aaa55f96e175ab0a415755baa06fe06128d3ff5472e16bc9a9526289ac0f6612cd74e33776ee4"}, "value": 0.0, "n": 1}], "hex": "0100000001905246f2df64f988fe9fcb42f5659286c30763ec5e51137901e068ba4fb79dad010000006b483045022100e9a089d05740f41c18b0fa57da5809389c11144c382700df5a8713f6fbd651e5022052ff132845e2c7a3845f20b619060e3f8754fd08b956da9276f28f8fdfc102b50121025d726063240d2aaf9b2f3054bbf41ba6dc759d14e153c02d4a983660630021e8ffffffff02f0ad1600000000001976a914bccf804f2a4c2732156ca9af4ababa2d1b9c228688ac0000000000000000536a4c500000775c00010f99ba3cf20259cb5014fffa3a016b46dc7dc7d0968d120d670c1906f999e00b6b3cf12aaa55f96e175ab0a415755baa06fe06128d3ff5472e16bc9a9526289ac0f6612cd74e33776ee400000000", "vin": [{"sequence": 4294967295, "scriptSig": {"hex": "483045022100e9a089d05740f41c18b0fa57da5809389c11144c382700df5a8713f6fbd651e5022052ff132845e2c7a3845f20b619060e3f8754fd08b956da9276f28f8fdfc102b50121025d726063240d2aaf9b2f3054bbf41ba6dc759d14e153c02d4a983660630021e8", "asm": "3045022100e9a089d05740f41c18b0fa57da5809389c11144c382700df5a8713f6fbd651e5022052ff132845e2c7a3845f20b619060e3f8754fd08b956da9276f28f8fdfc102b5[ALL] 025d726063240d2aaf9b2f3054bbf41ba6dc759d14e153c02d4a983660630021e8"}, "vout": 1, "txid": "ad9db74fba68e0017913515eec6307c3869265f542cb9ffe88f964dff2465290"}], "txid": "8f38bfa3224cecff7f5050369f32c85c00c7f3b5be75f25f166edbfea06a57a2", "blocktime": 1537869901, "version": 1, "confirmations": 11523, "time": 1537869901, "locktime": 0, "vsize": 284, "size": 284}