{"hash": "e87ee4979396a54d52cc3bcfa3f5c94d3c4e94ab5b9ab2132c91d1e037b99b59", "blockhash": "0000000000000000001cda96e906b7601b7a6fb1a3b62bca570a9e5d8f4b3de1", "vout": [{"scriptPubKey": {"reqSigs": 1, "hex": "76a9149a1b8f9b1fa2d2297863adb1cb11c71df455684888ac", "addresses": ["1F3r5We2zwNiSzG6GQUTTWnnPMCz2HJbJu"], "asm": "OP_DUP OP_HASH160 9a1b8f9b1fa2d2297863adb1cb11c71df4556848 OP_EQUALVERIFY OP_CHECKSIG", "type": "pubkeyhash"}, "value": 2.701e-05, "n": 0}, {"scriptPubKey": {"reqSigs": 1, "hex": "a914e8db75c900cf08f06518e96d167331f2a4abfb3387", "addresses": ["3NvFbQMAkkqEFj4i1sYPPLkSWzxTFUchjA"], "asm": "OP_HASH160 e8db75c900cf08f06518e96d167331f2a4abfb33 OP_EQUAL", "type": "scripthash"}, "value": 0.00045113, "n": 1}], "hex": "01000000000101e75dd3fa63e50f4acd4a93cbc9be30e5d00e78627569fb6bbf0c4830e5fe42320000000023220020941cfaff8837763dc1f69ff82b6d6553fdea17a41cfc29a04403293eedd8ccc7ffffffff028d0a0000000000001976a9149a1b8f9b1fa2d2297863adb1cb11c71df455684888ac39b000000000000017a914e8db75c900cf08f06518e96d167331f2a4abfb3387040047304402200fbb5e118b365633cfc8739740125a1efa8bc1e215915920815e7cf810c39174022012c28af47c7e5566fefc93bdd1a1eb54093f3b3a176630bd6c8e94b816654afe01483045022100c6b64fc1b7b5f64bbbf51c1840dc760fdcef5faf0b665797d320a1c794c8c77102207886b4e30ce0be7f3d061ad0aa89cf7226285fdb2d85ac3e6bf877af2606981d0147522102531db3a5883f29bab4241dd0cd726936667bcda445d89bdd22244e828b6993342103148c80a5bdfddb05ff5bcffc397c8ca748d8b435ec6a175bc9d7bfc7fc6f853752ae00000000", "vin": [{"txinwitness": ["", "304402200fbb5e118b365633cfc8739740125a1efa8bc1e215915920815e7cf810c39174022012c28af47c7e5566fefc93bdd1a1eb54093f3b3a176630bd6c8e94b816654afe01", "3045022100c6b64fc1b7b5f64bbbf51c1840dc760fdcef5faf0b665797d320a1c794c8c77102207886b4e30ce0be7f3d061ad0aa89cf7226285fdb2d85ac3e6bf877af2606981d01", "522102531db3a5883f29bab4241dd0cd726936667bcda445d89bdd22244e828b6993342103148c80a5bdfddb05ff5bcffc397c8ca748d8b435ec6a175bc9d7bfc7fc6f853752ae"], "sequence": 4294967295, "scriptSig": {"hex": "220020941cfaff8837763dc1f69ff82b6d6553fdea17a41cfc29a04403293eedd8ccc7", "asm": "0020941cfaff8837763dc1f69ff82b6d6553fdea17a41cfc29a04403293eedd8ccc7"}, "vout": 0, "txid": "3242fee530480cbf6bfb697562780ed0e530bec9cb934acd4a0fe563fad35de7"}], "txid": "8f44a49d3e599286f8f6d678664ba0ac7cf3e5e6196883add5ea927b65e69e37", "blocktime": 1537873282, "version": 1, "confirmations": 11484, "time": 1537873282, "locktime": 0, "vsize": 208, "size": 373}