{"hash": "8f4a866778b7a24233b7aa241fb0ce806fbfd980c0dd4de646e5083dc80a579a", "blockhash": "00000000000000000024a2167bbff67b0be802c0b01cdd79e6331c2be6459f87", "vout": [{"scriptPubKey": {"reqSigs": 1, "hex": "76a914008ea75b6f9bb1c5d42c7d12330ed20088b04fdf88ac", "addresses": ["113wtkpfKEWiJjbQZ7qAydn64Hyn9u9yB1"], "asm": "OP_DUP OP_HASH160 008ea75b6f9bb1c5d42c7d12330ed20088b04fdf OP_EQUALVERIFY OP_CHECKSIG", "type": "pubkeyhash"}, "value": 2.119e-05, "n": 0}, {"scriptPubKey": {"reqSigs": 1, "hex": "76a91499532f5293dd25dbeff024e99fb9a6371c87f49688ac", "addresses": ["1Eyi38qDKvxfxa58MXBwtCFsAP7Wkc373o"], "asm": "OP_DUP OP_HASH160 99532f5293dd25dbeff024e99fb9a6371c87f496 OP_EQUALVERIFY OP_CHECKSIG", "type": "pubkeyhash"}, "value": 0.01356846, "n": 1}], "hex": "0100000001e2d774eb891d2e9a58dd2f93d82c7efd4222bafc7e16b1fc951582608f6867f2010000006a47304402204b4d0701d8cdb933bc63052e18c8dad0fe14e3362ebec27ee8781b52c434998102205da2a1a9548c9810f106c31a2a51c5f9861545902bae9fb68aae667b523248750121038a27ef6de20e198c818122a0bbffb3ba10c5ea7cc6f59ed18b3949ef7e721605ffffffff0247080000000000001976a914008ea75b6f9bb1c5d42c7d12330ed20088b04fdf88ac2eb41400000000001976a91499532f5293dd25dbeff024e99fb9a6371c87f49688ac00000000", "vin": [{"sequence": 4294967295, "scriptSig": {"hex": "47304402204b4d0701d8cdb933bc63052e18c8dad0fe14e3362ebec27ee8781b52c434998102205da2a1a9548c9810f106c31a2a51c5f9861545902bae9fb68aae667b523248750121038a27ef6de20e198c818122a0bbffb3ba10c5ea7cc6f59ed18b3949ef7e721605", "asm": "304402204b4d0701d8cdb933bc63052e18c8dad0fe14e3362ebec27ee8781b52c434998102205da2a1a9548c9810f106c31a2a51c5f9861545902bae9fb68aae667b52324875[ALL] 038a27ef6de20e198c818122a0bbffb3ba10c5ea7cc6f59ed18b3949ef7e721605"}, "vout": 1, "txid": "f267688f60821595fcb1167efcba2242fd7e2cd8932fdd589a2e1d89eb74d7e2"}], "txid": "8f4a866778b7a24233b7aa241fb0ce806fbfd980c0dd4de646e5083dc80a579a", "blocktime": 1537870564, "version": 1, "confirmations": 11515, "time": 1537870564, "locktime": 0, "vsize": 225, "size": 225}