{"hash": "ad9f14f6a0c0c760fef9be2886db87b7f8182be0b6628fbad6cd41df1f8d7f6e", "blockhash": "000000000000000000022b45ed06c6f4ccd3cf7fb5ba4856ebd2e58215665228", "vout": [{"scriptPubKey": {"reqSigs": 1, "hex": "a9140c8e78056201b60b761e527559cf2c7fad4a1ebc87", "addresses": ["32qQhkfkXUHbW3dQZ73AeK4a8WVjNswy71"], "asm": "OP_HASH160 0c8e78056201b60b761e527559cf2c7fad4a1ebc OP_EQUAL", "type": "scripthash"}, "value": 0.21614193, "n": 0}, {"scriptPubKey": {"reqSigs": 1, "hex": "00141d6508719a150d0a30e18710cb524c730d3e969d", "addresses": ["bc1qr4jssuv6z5xs5v8psugvk5jvwvxna95akx5kre"], "asm": "0 1d6508719a150d0a30e18710cb524c730d3e969d", "type": "witness_v0_keyhash"}, "value": 0.01522089, "n": 1}], "hex": "01000000000101c27c6f7ed259233f83ccd106bbd7d055014965fabc59a98bec6a3b3346b9055f0100000000ffffffff0271ce49010000000017a9140c8e78056201b60b761e527559cf2c7fad4a1ebc87a9391700000000001600141d6508719a150d0a30e18710cb524c730d3e969d02483045022100c68a23e383b0b17b67b17d79aae8f9a588f783f8e5d92167996ed73ca87120e2022057d136eafbde5722512899f1b7c72898f15484842d4b949f46784c997df05b53012102ec9bf37be50d130efed69df2a0d6f476fdea1c00d0a49aaf0dfe4f6d3185bf9500000000", "vin": [{"txinwitness": ["3045022100c68a23e383b0b17b67b17d79aae8f9a588f783f8e5d92167996ed73ca87120e2022057d136eafbde5722512899f1b7c72898f15484842d4b949f46784c997df05b5301", "02ec9bf37be50d130efed69df2a0d6f476fdea1c00d0a49aaf0dfe4f6d3185bf95"], "sequence": 4294967295, "scriptSig": {"hex": "", "asm": ""}, "vout": 1, "txid": "5f05b946333b6aec8ba959bcfa65490155d0d7bb06d1cc833f2359d27e6f7cc2"}], "txid": "8f4d83f48f6e77e8fd0c7a4139ad178b4243d4da9e7e812fefec14070b6cfd5c", "blocktime": 1537869901, "version": 1, "confirmations": 11523, "time": 1537869901, "locktime": 0, "vsize": 142, "size": 224}