{"hash": "42ca84b32c7eca5d321d5aac4860de695b000db3b5978dd7bd89f49c05ce1866", "blockhash": "00000000000000000024a2167bbff67b0be802c0b01cdd79e6331c2be6459f87", "vout": [{"scriptPubKey": {"reqSigs": 1, "hex": "0014a7a5430dc3c772037c813211ff85c629c014727a", "addresses": ["bc1q57j5xrwrcaeqxlypxggllpwx98qpgun6nj3w9n"], "asm": "0 a7a5430dc3c772037c813211ff85c629c014727a", "type": "witness_v0_keyhash"}, "value": 0.04105459, "n": 0}, {"scriptPubKey": {"reqSigs": 1, "hex": "76a914dad14222f510f8fcc73579ec41787da3b02262de88ac", "addresses": ["1LwzzLwYWVqKiMN7AjDCnF7pEJZwq6fKf7"], "asm": "OP_DUP OP_HASH160 dad14222f510f8fcc73579ec41787da3b02262de OP_EQUALVERIFY OP_CHECKSIG", "type": "pubkeyhash"}, "value": 0.1150912, "n": 1}], "hex": "01000000000101e133d884c585fd25c54abd1bab0903e0b45101ee9087f936abc9bae9dcd1f97500000000171600148a41a3ad1b2c2907287be6ebdc06b5ace72e4a51ffffffff02f3a43e0000000000160014a7a5430dc3c772037c813211ff85c629c014727a809daf00000000001976a914dad14222f510f8fcc73579ec41787da3b02262de88ac02483045022100f6516d9b3cf3d7806a997f7c408214f18e36a034597cde5783766c65655e9f4b02207e6632c6a57184e3953d4e43fd6b744db59c9fb249c97d7b45be8b612eb4e919012102c3f732551996da58a6ce51753ab3832ea41d7b229e80774403842795c8c9b67500000000", "vin": [{"txinwitness": ["3045022100f6516d9b3cf3d7806a997f7c408214f18e36a034597cde5783766c65655e9f4b02207e6632c6a57184e3953d4e43fd6b744db59c9fb249c97d7b45be8b612eb4e91901", "02c3f732551996da58a6ce51753ab3832ea41d7b229e80774403842795c8c9b675"], "sequence": 4294967295, "scriptSig": {"hex": "1600148a41a3ad1b2c2907287be6ebdc06b5ace72e4a51", "asm": "00148a41a3ad1b2c2907287be6ebdc06b5ace72e4a51"}, "vout": 0, "txid": "75f9d1dce9bac9ab36f98790ee0151b4e00309ab1bbd4ac525fd85c584d833e1"}], "txid": "8f52e0120659c53e7513405b2b87265bd4311bb0d18d0b22c630db74bd6ca2c9", "blocktime": 1537870564, "version": 1, "confirmations": 11515, "time": 1537870564, "locktime": 0, "vsize": 167, "size": 249}