{"hash": "8f536afa075828a220d968d0231e440cc38cfc1ea629f7ee2e1ed555756bb379", "blockhash": "0000000000000000001cda96e906b7601b7a6fb1a3b62bca570a9e5d8f4b3de1", "vout": [{"scriptPubKey": {"reqSigs": 1, "hex": "76a914b5e3ca47ad56b8916a1ef8e0762ce8ea10c8531f88ac", "addresses": ["1HakBrp6Yu2ac5nk2VMtSLRyQWyCCxoqBJ"], "asm": "OP_DUP OP_HASH160 b5e3ca47ad56b8916a1ef8e0762ce8ea10c8531f OP_EQUALVERIFY OP_CHECKSIG", "type": "pubkeyhash"}, "value": 0.05, "n": 0}, {"scriptPubKey": {"reqSigs": 1, "hex": "76a9144400f1fbb78b6b311d1391778b41ec63353f32bb88ac", "addresses": ["17Ca5iqmAfKxDMqotUHZH8nSo2YFWhTfpc"], "asm": "OP_DUP OP_HASH160 4400f1fbb78b6b311d1391778b41ec63353f32bb OP_EQUALVERIFY OP_CHECKSIG", "type": "pubkeyhash"}, "value": 0.251192, "n": 1}], "hex": "0100000001c76c79cf58bdb4fed6a31c3512f7d06a677c5a3bd9a9a45d1c9b07ae98d664ac010000006b48304502210092670028a7927e351e5cc296862292f9380f4d0548aecb2031624f4b72482e7d0220068a23481dd5f6c7537a91b68a3c799d45c8872908f88e954541a58a25c8876a01210366ddd14e50fbd1a13bf676786187ef2044397ee49d14160c70c305bfeb874857feffffff02404b4c00000000001976a914b5e3ca47ad56b8916a1ef8e0762ce8ea10c8531f88ace0497f01000000001976a9144400f1fbb78b6b311d1391778b41ec63353f32bb88ac13490800", "vin": [{"sequence": 4294967294, "scriptSig": {"hex": "48304502210092670028a7927e351e5cc296862292f9380f4d0548aecb2031624f4b72482e7d0220068a23481dd5f6c7537a91b68a3c799d45c8872908f88e954541a58a25c8876a01210366ddd14e50fbd1a13bf676786187ef2044397ee49d14160c70c305bfeb874857", "asm": "304502210092670028a7927e351e5cc296862292f9380f4d0548aecb2031624f4b72482e7d0220068a23481dd5f6c7537a91b68a3c799d45c8872908f88e954541a58a25c8876a[ALL] 0366ddd14e50fbd1a13bf676786187ef2044397ee49d14160c70c305bfeb874857"}, "vout": 1, "txid": "ac64d698ae079b1c5da4a9d93b5a7c676ad0f712351ca3d6feb4bd58cf796cc7"}], "txid": "8f536afa075828a220d968d0231e440cc38cfc1ea629f7ee2e1ed555756bb379", "blocktime": 1537873282, "version": 1, "confirmations": 11484, "time": 1537873282, "locktime": 542995, "vsize": 226, "size": 226}