{"hash": "8f5b981d68549fe0210a5d482c9fce71f482fa15f31a5ae4ccc89ac5b3175b0a", "blockhash": "0000000000000000001cda96e906b7601b7a6fb1a3b62bca570a9e5d8f4b3de1", "vout": [{"scriptPubKey": {"reqSigs": 1, "hex": "76a9149876128e0e955ac3811708ec2f8af9b64a88b9b288ac", "addresses": ["1Eu99yishVzGAQc15Uvop4bLbdzzCPPNsC"], "asm": "OP_DUP OP_HASH160 9876128e0e955ac3811708ec2f8af9b64a88b9b2 OP_EQUALVERIFY OP_CHECKSIG", "type": "pubkeyhash"}, "value": 0.0027, "n": 0}, {"scriptPubKey": {"reqSigs": 1, "hex": "a9144bd2770cb2a614658bdb6725ec98766eee4bb45587", "addresses": ["38bvjJFRCsHGPPK6YiisZ43vLPBPmBtqxc"], "asm": "OP_HASH160 4bd2770cb2a614658bdb6725ec98766eee4bb455 OP_EQUAL", "type": "scripthash"}, "value": 0.47088079, "n": 1}], "hex": "0200000001b081416f21545688cd97d0f84a425030ac44ef540f8420ab7bdb457c4d04951502000000fdfd0000483045022100a6d3ffb09418432b45476a42643c51351ca93b84a58549309fe8856c4f11016f02201a471b7d047d8ebf81a11bcac03901258cd3abdf8e9b063a46447cc253bf46c70147304402205ede00e01eba4b1e7efd368a4900582fd87f45564419df4919e0553cf414c88b022070abb0464ffb218e536a8e0bd94fa87ebd3f65cf72d49aa07beb782d61ac0abb014c6952210241f2ead0d51a35f3e7d7a15e67993cba1b675d82e52ae95156288b89110f1dc22102a1575b121b5b7d09c9ad07a8cda96845166e8ec3060a686369515f8bdc6c336021029f1ac766ce48b63362402e17d9575b9b5d2b6b62a68edd9d376a2021412a41fa53ae0000000002b01e0400000000001976a9149876128e0e955ac3811708ec2f8af9b64a88b9b288accf81ce020000000017a9144bd2770cb2a614658bdb6725ec98766eee4bb4558700000000", "vin": [{"sequence": 0, "scriptSig": {"hex": "00483045022100a6d3ffb09418432b45476a42643c51351ca93b84a58549309fe8856c4f11016f02201a471b7d047d8ebf81a11bcac03901258cd3abdf8e9b063a46447cc253bf46c70147304402205ede00e01eba4b1e7efd368a4900582fd87f45564419df4919e0553cf414c88b022070abb0464ffb218e536a8e0bd94fa87ebd3f65cf72d49aa07beb782d61ac0abb014c6952210241f2ead0d51a35f3e7d7a15e67993cba1b675d82e52ae95156288b89110f1dc22102a1575b121b5b7d09c9ad07a8cda96845166e8ec3060a686369515f8bdc6c336021029f1ac766ce48b63362402e17d9575b9b5d2b6b62a68edd9d376a2021412a41fa53ae", "asm": "0 3045022100a6d3ffb09418432b45476a42643c51351ca93b84a58549309fe8856c4f11016f02201a471b7d047d8ebf81a11bcac03901258cd3abdf8e9b063a46447cc253bf46c7[ALL] 304402205ede00e01eba4b1e7efd368a4900582fd87f45564419df4919e0553cf414c88b022070abb0464ffb218e536a8e0bd94fa87ebd3f65cf72d49aa07beb782d61ac0abb[ALL] 52210241f2ead0d51a35f3e7d7a15e67993cba1b675d82e52ae95156288b89110f1dc22102a1575b121b5b7d09c9ad07a8cda96845166e8ec3060a686369515f8bdc6c336021029f1ac766ce48b63362402e17d9575b9b5d2b6b62a68edd9d376a2021412a41fa53ae"}, "vout": 2, "txid": "1595044d7c45db7bab20840f54ef44ac3050424af8d097cd885654216f4181b0"}], "txid": "8f5b981d68549fe0210a5d482c9fce71f482fa15f31a5ae4ccc89ac5b3175b0a", "blocktime": 1537873282, "version": 2, "confirmations": 11481, "time": 1537873282, "locktime": 0, "vsize": 372, "size": 372}