{"hash": "bea9c3c85177330e4bb07269e7579bead524c2965fbfe898f592f610732711be", "blockhash": "000000000000000000022b45ed06c6f4ccd3cf7fb5ba4856ebd2e58215665228", "vout": [{"scriptPubKey": {"reqSigs": 1, "hex": "a9146c9fc7c23ee04aabfbf7c54760c2a4d7a360400287", "addresses": ["3BbNJzUpTz9dpJrhimxU5unV1fiHuuqGib"], "asm": "OP_HASH160 6c9fc7c23ee04aabfbf7c54760c2a4d7a3604002 OP_EQUAL", "type": "scripthash"}, "value": 4e-05, "n": 0}, {"scriptPubKey": {"reqSigs": 1, "hex": "a914e8db75c900cf08f06518e96d167331f2a4abfb3387", "addresses": ["3NvFbQMAkkqEFj4i1sYPPLkSWzxTFUchjA"], "asm": "OP_HASH160 e8db75c900cf08f06518e96d167331f2a4abfb33 OP_EQUAL", "type": "scripthash"}, "value": 0.00778575, "n": 1}], "hex": "01000000000101d83ffe365eca67354135b92fb86406da577635e3fb8608b71c14dcdf9707df980100000023220020941cfaff8837763dc1f69ff82b6d6553fdea17a41cfc29a04403293eedd8ccc7ffffffff02a00f00000000000017a9146c9fc7c23ee04aabfbf7c54760c2a4d7a3604002874fe10b000000000017a914e8db75c900cf08f06518e96d167331f2a4abfb3387040047304402201f873f994c22bb189ba4480352188b7310b17c38e602ffeeb652e4d5769e8aad02200d852631ad60acc50d697b4224a2cc8698147f276c7c5eb8a0466dab14e3c59501473044022034ea56062a92914cf6322a714275c75f0f146e612693680f4cbe5d69be08621102205b582b18c58eb507d7fdbee2a1e4e0dbf757e0a4e853ac830708bd0a3130255f0147522102531db3a5883f29bab4241dd0cd726936667bcda445d89bdd22244e828b6993342103148c80a5bdfddb05ff5bcffc397c8ca748d8b435ec6a175bc9d7bfc7fc6f853752ae00000000", "vin": [{"txinwitness": ["", "304402201f873f994c22bb189ba4480352188b7310b17c38e602ffeeb652e4d5769e8aad02200d852631ad60acc50d697b4224a2cc8698147f276c7c5eb8a0466dab14e3c59501", "3044022034ea56062a92914cf6322a714275c75f0f146e612693680f4cbe5d69be08621102205b582b18c58eb507d7fdbee2a1e4e0dbf757e0a4e853ac830708bd0a3130255f01", "522102531db3a5883f29bab4241dd0cd726936667bcda445d89bdd22244e828b6993342103148c80a5bdfddb05ff5bcffc397c8ca748d8b435ec6a175bc9d7bfc7fc6f853752ae"], "sequence": 4294967295, "scriptSig": {"hex": "220020941cfaff8837763dc1f69ff82b6d6553fdea17a41cfc29a04403293eedd8ccc7", "asm": "0020941cfaff8837763dc1f69ff82b6d6553fdea17a41cfc29a04403293eedd8ccc7"}, "vout": 1, "txid": "98df0797dfdc141cb70886fbe3357657da0664b82fb935413567ca5e36fe3fd8"}], "txid": "8f5bac1f3108647265a4e8692a676b4cdc0776042cfa31fbab7a52928bfa99f7", "blocktime": 1537869901, "version": 1, "confirmations": 11524, "time": 1537869901, "locktime": 0, "vsize": 205, "size": 370}