{"hash": "8f60c193173c95b11da8d598cd30fb065fe806a8ef8bccd714f994e174087dad", "blockhash": "0000000000000000001f76057863aec43deb6fa401d9628bb513d65a8098bfab", "vout": [{"scriptPubKey": {"reqSigs": 1, "hex": "a914ad5256615e4bfbbb426eaebad6dff75fda5725f587", "addresses": ["3HVTTdmycN1hykCyvq1WYfHLk8uNNEkPtY"], "asm": "OP_HASH160 ad5256615e4bfbbb426eaebad6dff75fda5725f5 OP_EQUAL", "type": "scripthash"}, "value": 0.0156323, "n": 0}, {"scriptPubKey": {"reqSigs": 1, "hex": "76a914ac491eac2c745c07827f659ae87017d4c89ab27a88ac", "addresses": ["1GhxpT2ANuY23KDKhky8FQQsZyTtqCm188"], "asm": "OP_DUP OP_HASH160 ac491eac2c745c07827f659ae87017d4c89ab27a OP_EQUALVERIFY OP_CHECKSIG", "type": "pubkeyhash"}, "value": 0.03252946, "n": 1}], "hex": "01000000018732eb48f36f40e2973b70d9d71ba1face2483e44682f2fb8957b5b80a212f95010000006b48304502210081001b8e81516533e2f290ea44d595c7910ba0290c2c16dd43bb9c0b311c40a502202b4c7c91f0789f152aeab9f5f7a5f76c56b2248c817e36adf98b1e4ab30c9ef50121035f77365013adc62bc95c5b09275638660b7b8de253cd597e016ed3d9eba99ccffdffffff025eda17000000000017a914ad5256615e4bfbbb426eaebad6dff75fda5725f587d2a23100000000001976a914ac491eac2c745c07827f659ae87017d4c89ab27a88ac14490800", "vin": [{"sequence": 4294967293, "scriptSig": {"hex": "48304502210081001b8e81516533e2f290ea44d595c7910ba0290c2c16dd43bb9c0b311c40a502202b4c7c91f0789f152aeab9f5f7a5f76c56b2248c817e36adf98b1e4ab30c9ef50121035f77365013adc62bc95c5b09275638660b7b8de253cd597e016ed3d9eba99ccf", "asm": "304502210081001b8e81516533e2f290ea44d595c7910ba0290c2c16dd43bb9c0b311c40a502202b4c7c91f0789f152aeab9f5f7a5f76c56b2248c817e36adf98b1e4ab30c9ef5[ALL] 035f77365013adc62bc95c5b09275638660b7b8de253cd597e016ed3d9eba99ccf"}, "vout": 1, "txid": "952f210ab8b55789fbf28246e48324cefaa11bd7d9703b97e2406ff348eb3287"}], "txid": "8f60c193173c95b11da8d598cd30fb065fe806a8ef8bccd714f994e174087dad", "blocktime": 1537873891, "version": 1, "confirmations": 11477, "time": 1537873891, "locktime": 542996, "vsize": 224, "size": 224}