{"hash": "8f66b6e303a09217acff6d2123cfc4e8550a840785645dfc1a23e549eafc1aa1", "blockhash": "00000000000000000018f53835495a110e01622372bf6ae95dc86f2b0ab887b0", "vout": [{"scriptPubKey": {"reqSigs": 1, "hex": "76a9144a9bc72945605c29985452d94a9c0c3c2fbcf9d088ac", "addresses": ["17oVcqej6AX9b6g9RrjmHpjU72KYtVtoSa"], "asm": "OP_DUP OP_HASH160 4a9bc72945605c29985452d94a9c0c3c2fbcf9d0 OP_EQUALVERIFY OP_CHECKSIG", "type": "pubkeyhash"}, "value": 4.322e-05, "n": 0}, {"scriptPubKey": {"reqSigs": 1, "hex": "76a914e6456661e37c75dc8f31b9b59de3b6a3813649a888ac", "addresses": ["1MzZZ7YHegi1f4P64wwzLtTDgmMYwdtCq3"], "asm": "OP_DUP OP_HASH160 e6456661e37c75dc8f31b9b59de3b6a3813649a8 OP_EQUALVERIFY OP_CHECKSIG", "type": "pubkeyhash"}, "value": 2.19995, "n": 1}], "hex": "0100000001c67e40a1bd7313ec97d24f2bd0fd15c07cc8013221b1b99ce2fcd81383638401010000006b48304502210086ebbc2e13bc6da0f43ef696d32e4d6c2e2aaf91a25f0bfe1856628492849968022039e32074527b48f1c975f05d7a2923ddb75c10a6164379ca0337753227a76fd501210359ee1b2bc355b6f49ba4286998d080bce6a3af6831bb8f04af75339320bbb852ffffffff02e2100000000000001976a9144a9bc72945605c29985452d94a9c0c3c2fbcf9d088ac78db1c0d000000001976a914e6456661e37c75dc8f31b9b59de3b6a3813649a888ac00000000", "vin": [{"sequence": 4294967295, "scriptSig": {"hex": "48304502210086ebbc2e13bc6da0f43ef696d32e4d6c2e2aaf91a25f0bfe1856628492849968022039e32074527b48f1c975f05d7a2923ddb75c10a6164379ca0337753227a76fd501210359ee1b2bc355b6f49ba4286998d080bce6a3af6831bb8f04af75339320bbb852", "asm": "304502210086ebbc2e13bc6da0f43ef696d32e4d6c2e2aaf91a25f0bfe1856628492849968022039e32074527b48f1c975f05d7a2923ddb75c10a6164379ca0337753227a76fd5[ALL] 0359ee1b2bc355b6f49ba4286998d080bce6a3af6831bb8f04af75339320bbb852"}, "vout": 1, "txid": "0184638313d8fce29cb9b1213201c87cc015fdd02b4fd297ec1373bda1407ec6"}], "txid": "8f66b6e303a09217acff6d2123cfc4e8550a840785645dfc1a23e549eafc1aa1", "blocktime": 1537870928, "version": 1, "confirmations": 11514, "time": 1537870928, "locktime": 0, "vsize": 226, "size": 226}