{"hash": "4417363b86f88f2b03851170c63b6f4c5dbbad1a1cb46fa551f79f42bc7e5cd5", "blockhash": "0000000000000000001e0dab787dd257d1dbfcb92a98c2207d5e1078be1f4165", "vout": [{"scriptPubKey": {"reqSigs": 1, "hex": "76a9149a1b8f9b1fa2d2297863adb1cb11c71df455684888ac", "addresses": ["1F3r5We2zwNiSzG6GQUTTWnnPMCz2HJbJu"], "asm": "OP_DUP OP_HASH160 9a1b8f9b1fa2d2297863adb1cb11c71df4556848 OP_EQUALVERIFY OP_CHECKSIG", "type": "pubkeyhash"}, "value": 2.726e-05, "n": 0}, {"scriptPubKey": {"reqSigs": 1, "hex": "a914e8db75c900cf08f06518e96d167331f2a4abfb3387", "addresses": ["3NvFbQMAkkqEFj4i1sYPPLkSWzxTFUchjA"], "asm": "OP_HASH160 e8db75c900cf08f06518e96d167331f2a4abfb33 OP_EQUAL", "type": "scripthash"}, "value": 0.00021954, "n": 1}], "hex": "01000000000102a9f30b3db08b2fb42fa101ddf8901ed9adc7e4605fda8dcd492ff7392fdb522f0100000023220020941cfaff8837763dc1f69ff82b6d6553fdea17a41cfc29a04403293eedd8ccc7ffffffff2f7cbc75ae9dbe8e720effd516e0c424cfa7a22c35426e13d7940f13abe845f10100000023220020941cfaff8837763dc1f69ff82b6d6553fdea17a41cfc29a04403293eedd8ccc7ffffffff02a60a0000000000001976a9149a1b8f9b1fa2d2297863adb1cb11c71df455684888acc25500000000000017a914e8db75c900cf08f06518e96d167331f2a4abfb33870400473044022002a32099fb04f7fb82a9d9dca615975acab17c5d4ff676e45c9890622615f82a022037d2c41ba50cdede8a1c47c29a7f07cdbc650ce6bf9ccad9897711ccac8efce00147304402203026d94feb449e43bdf0ae779ae8f25b0cc2dfda400ca63ff2f704f4e1f764b7022065f8f2a0e9e3cad084ff27690831a3032f8b3785dac9d5e536e0787bde6598260147522102531db3a5883f29bab4241dd0cd726936667bcda445d89bdd22244e828b6993342103148c80a5bdfddb05ff5bcffc397c8ca748d8b435ec6a175bc9d7bfc7fc6f853752ae0400483045022100d437d94eea2bd39ce501c9d1aa7558ead745e00b3febb9413809552dc710dca102203936f4b549c3ba6aa9264a37499604e2796951ed99e52b70688ef4504da0a255014730440220640dcb2258b3199fb75c7ed9bc1802b8d04f7b239e1f88661d7c34c6a62b294e02201a48394d7e7acc492f9728ee45fa682f4ef0c8d165059c989239bf074a30f9a20147522102531db3a5883f29bab4241dd0cd726936667bcda445d89bdd22244e828b6993342103148c80a5bdfddb05ff5bcffc397c8ca748d8b435ec6a175bc9d7bfc7fc6f853752ae00000000", "vin": [{"txinwitness": ["", "3044022002a32099fb04f7fb82a9d9dca615975acab17c5d4ff676e45c9890622615f82a022037d2c41ba50cdede8a1c47c29a7f07cdbc650ce6bf9ccad9897711ccac8efce001", "304402203026d94feb449e43bdf0ae779ae8f25b0cc2dfda400ca63ff2f704f4e1f764b7022065f8f2a0e9e3cad084ff27690831a3032f8b3785dac9d5e536e0787bde65982601", "522102531db3a5883f29bab4241dd0cd726936667bcda445d89bdd22244e828b6993342103148c80a5bdfddb05ff5bcffc397c8ca748d8b435ec6a175bc9d7bfc7fc6f853752ae"], "sequence": 4294967295, "scriptSig": {"hex": "220020941cfaff8837763dc1f69ff82b6d6553fdea17a41cfc29a04403293eedd8ccc7", "asm": "0020941cfaff8837763dc1f69ff82b6d6553fdea17a41cfc29a04403293eedd8ccc7"}, "vout": 1, "txid": "2f52db2f39f72f49cd8dda5f60e4c7add91e90f8dd01a12fb42f8bb03d0bf3a9"}, {"txinwitness": ["", "3045022100d437d94eea2bd39ce501c9d1aa7558ead745e00b3febb9413809552dc710dca102203936f4b549c3ba6aa9264a37499604e2796951ed99e52b70688ef4504da0a25501", "30440220640dcb2258b3199fb75c7ed9bc1802b8d04f7b239e1f88661d7c34c6a62b294e02201a48394d7e7acc492f9728ee45fa682f4ef0c8d165059c989239bf074a30f9a201", "522102531db3a5883f29bab4241dd0cd726936667bcda445d89bdd22244e828b6993342103148c80a5bdfddb05ff5bcffc397c8ca748d8b435ec6a175bc9d7bfc7fc6f853752ae"], "sequence": 4294967295, "scriptSig": {"hex": "220020941cfaff8837763dc1f69ff82b6d6553fdea17a41cfc29a04403293eedd8ccc7", "asm": "0020941cfaff8837763dc1f69ff82b6d6553fdea17a41cfc29a04403293eedd8ccc7"}, "vout": 1, "txid": "f145e8ab130f94d7136e42352ca2a7cf24c4e016d5ff0e728ebe9dae75bc7c2f"}], "txid": "8f6df9826508694225e93776de17b67795bf91cf2409854d7002070dcf18d9e6", "blocktime": 1537872475, "version": 1, "confirmations": 11487, "time": 1537872475, "locktime": 0, "vsize": 338, "size": 667}