{"hash": "964f267fc607cc7f00633a9c6d76eef67766e62bc12ae896573bf7a249180abf", "blockhash": "0000000000000000000baef3f32e3676a92c3b2e5da21b426e4f302fc371ce76", "vout": [{"scriptPubKey": {"reqSigs": 1, "hex": "a914cb42a2a67e6ddafe871233c66ac13fc4350c35ba87", "addresses": ["3LDkvPcysN3P5NjFbmnZDnuGkWgk86HdrX"], "asm": "OP_HASH160 cb42a2a67e6ddafe871233c66ac13fc4350c35ba OP_EQUAL", "type": "scripthash"}, "value": 0.04983934, "n": 0}, {"scriptPubKey": {"reqSigs": 1, "hex": "a91469f376528a8c0b2ba3cc5b04b65d66fcd7c1730687", "addresses": ["3BMEXjdzmayGdsc1WKaZxsSCKkyhQcsaQh"], "asm": "OP_HASH160 69f376528a8c0b2ba3cc5b04b65d66fcd7c17306 OP_EQUAL", "type": "scripthash"}, "value": 0.15, "n": 1}], "hex": "01000000000102e62ccf25d3e86daa388e523f0634975599e93bb45a6fee12edf592e700b59752000000001716001400e8bf36fcd262a1d02c74aabd3261e767ab4f0dffffffff8e62358df22d5061463f0e42b3882a0c2b9e2a0d0ce838d31c6b625c259cfbd40000000017160014e2fac75d5f86e1f61d31ad652bfe6cc80fc8cf32ffffffff027e0c4c000000000017a914cb42a2a67e6ddafe871233c66ac13fc4350c35ba87c0e1e4000000000017a91469f376528a8c0b2ba3cc5b04b65d66fcd7c173068702473044022054fa2ddc135efb094c2c14190fb6a62ea30570fc30fcd0fda20bcb4d0d06055302205c1586bb47d496a6026e6b6e7f89cdd2ae4208917134c9dbbcfd4551e1f67d980121022bdade2ffd923df804c4f39d48862ff5ff83870066ed25b2b21aebd07c4fa07d024730440220129d3c1c0e333feadc0bb6db96c6b47f9a758162bf3413dbaa39f73a37f42dad02202779fa7e14c0b867d4185209f3151953b5ab1b31840bca22e819c2d9f3f0f4be012103fd3ab55d04e067c3594938e5392fad032f56998dc0aec0a5e8c354e641225e8700000000", "vin": [{"txinwitness": ["3044022054fa2ddc135efb094c2c14190fb6a62ea30570fc30fcd0fda20bcb4d0d06055302205c1586bb47d496a6026e6b6e7f89cdd2ae4208917134c9dbbcfd4551e1f67d9801", "022bdade2ffd923df804c4f39d48862ff5ff83870066ed25b2b21aebd07c4fa07d"], "sequence": 4294967295, "scriptSig": {"hex": "16001400e8bf36fcd262a1d02c74aabd3261e767ab4f0d", "asm": "001400e8bf36fcd262a1d02c74aabd3261e767ab4f0d"}, "vout": 0, "txid": "5297b500e792f5ed12ee6f5ab43be999559734063f528e38aa6de8d325cf2ce6"}, {"txinwitness": ["30440220129d3c1c0e333feadc0bb6db96c6b47f9a758162bf3413dbaa39f73a37f42dad02202779fa7e14c0b867d4185209f3151953b5ab1b31840bca22e819c2d9f3f0f4be01", "03fd3ab55d04e067c3594938e5392fad032f56998dc0aec0a5e8c354e641225e87"], "sequence": 4294967295, "scriptSig": {"hex": "160014e2fac75d5f86e1f61d31ad652bfe6cc80fc8cf32", "asm": "0014e2fac75d5f86e1f61d31ad652bfe6cc80fc8cf32"}, "vout": 0, "txid": "d4fb9c255c626b1cd338e80c0d2a9e2b0c2a88b3420e3f4661502df28d35628e"}], "txid": "8f773ac1072f1cfc6bdb3713334ccd5300d07f02ac642455dd72dd732ca0793b", "blocktime": 1537876114, "version": 1, "confirmations": 11460, "time": 1537876114, "locktime": 0, "vsize": 256, "size": 418}