{"hash": "8f7aaac6408b4f06b326d4341b0181eac4a793f6b2799bf0516a2798c7126738", "blockhash": "00000000000000000024a2167bbff67b0be802c0b01cdd79e6331c2be6459f87", "vout": [{"scriptPubKey": {"reqSigs": 1, "hex": "76a914d243e6abb9a60fbff430b421d2df4b7d59ec186088ac", "addresses": ["1LAnF8h3qMGx3TSwNUHVneBZUEpwE4gu3D"], "asm": "OP_DUP OP_HASH160 d243e6abb9a60fbff430b421d2df4b7d59ec1860 OP_EQUALVERIFY OP_CHECKSIG", "type": "pubkeyhash"}, "value": 0.00076972, "n": 0}, {"scriptPubKey": {"reqSigs": 1, "hex": "76a9143851f34d13937b673a7d24a1950bb5b21ce94af388ac", "addresses": ["168o1kqNquEJeR9vosUB5fw4eAwcVAgh8P"], "asm": "OP_DUP OP_HASH160 3851f34d13937b673a7d24a1950bb5b21ce94af3 OP_EQUALVERIFY OP_CHECKSIG", "type": "pubkeyhash"}, "value": 5.46e-06, "n": 1}, {"scriptPubKey": {"type": "nulldata", "hex": "6a146f6d6e69000000000000001f00000756c7c29500", "asm": "OP_RETURN 6f6d6e69000000000000001f00000756c7c29500"}, "value": 0.0, "n": 2}], "hex": "01000000028b6367c0022665bd28a3b8654bd9bb1f7b6644f7238949727fd5fb5f1b7b2527020000006b483045022100bbfd1713964d3c6c9dbbb43ac9ee44f83678adcbbadb6d2a487d53aa3a5f4f25022046c23558823045d2153bf0d6d978ccf5a21dd69f0feb2ec0e4dc143ceb01da21012102bb5e316dc9677d22dacf0ff386b8e5797c94f584a9b37575b04e1e9d31e788b2ffffffff63648d870fc2aa53b28cde74cba05c827933ae193ae0dee54c0452ec4f73d25c000000006b483045022100ecdbf6ba03a537de23ac30ff4d0e204fd0479c4f127a59bcfb33bdca45836ba70220215e3a9032bf6c30871eb5ba0ba28eb153aa3c3a61e85f51bceae35fee56925a01210271977291b74f1f5f5c42157e8aae804664eaaeccfd097918450d37f28fb94d77ffffffff03ac2c0100000000001976a914d243e6abb9a60fbff430b421d2df4b7d59ec186088ac22020000000000001976a9143851f34d13937b673a7d24a1950bb5b21ce94af388ac0000000000000000166a146f6d6e69000000000000001f00000756c7c2950000000000", "vin": [{"sequence": 4294967295, "scriptSig": {"hex": "483045022100bbfd1713964d3c6c9dbbb43ac9ee44f83678adcbbadb6d2a487d53aa3a5f4f25022046c23558823045d2153bf0d6d978ccf5a21dd69f0feb2ec0e4dc143ceb01da21012102bb5e316dc9677d22dacf0ff386b8e5797c94f584a9b37575b04e1e9d31e788b2", "asm": "3045022100bbfd1713964d3c6c9dbbb43ac9ee44f83678adcbbadb6d2a487d53aa3a5f4f25022046c23558823045d2153bf0d6d978ccf5a21dd69f0feb2ec0e4dc143ceb01da21[ALL] 02bb5e316dc9677d22dacf0ff386b8e5797c94f584a9b37575b04e1e9d31e788b2"}, "vout": 2, "txid": "27257b1b5ffbd57f72498923f744667b1fbbd94b65b8a328bd652602c067638b"}, {"sequence": 4294967295, "scriptSig": {"hex": "483045022100ecdbf6ba03a537de23ac30ff4d0e204fd0479c4f127a59bcfb33bdca45836ba70220215e3a9032bf6c30871eb5ba0ba28eb153aa3c3a61e85f51bceae35fee56925a01210271977291b74f1f5f5c42157e8aae804664eaaeccfd097918450d37f28fb94d77", "asm": "3045022100ecdbf6ba03a537de23ac30ff4d0e204fd0479c4f127a59bcfb33bdca45836ba70220215e3a9032bf6c30871eb5ba0ba28eb153aa3c3a61e85f51bceae35fee56925a[ALL] 0271977291b74f1f5f5c42157e8aae804664eaaeccfd097918450d37f28fb94d77"}, "vout": 0, "txid": "5cd2734fec52044ce5dee03a19ae3379825ca0cb74de8cb253aac20f878d6463"}], "txid": "8f7aaac6408b4f06b326d4341b0181eac4a793f6b2799bf0516a2798c7126738", "blocktime": 1537870564, "version": 1, "confirmations": 11515, "time": 1537870564, "locktime": 0, "vsize": 405, "size": 405}