{"hash": "38123dbbb87fca5962359572e6dc2e5dc76002497792fe8bc1b1bd5940e048b0", "blockhash": "00000000000000000018f53835495a110e01622372bf6ae95dc86f2b0ab887b0", "vout": [{"scriptPubKey": {"reqSigs": 1, "hex": "a914bcd664274035b177b7bcf9f74de4b0e8edc0836787", "addresses": ["3JuVnmgmLZmnZKNqcqcdD9q5aggpNNWwMm"], "asm": "OP_HASH160 bcd664274035b177b7bcf9f74de4b0e8edc08367 OP_EQUAL", "type": "scripthash"}, "value": 0.05860709, "n": 0}, {"scriptPubKey": {"reqSigs": 1, "hex": "a914aef8ed28b0ddef18335f16d07a7ddd58d124244a87", "addresses": ["3HeBhdbuQNSHQGbBzK1xNnCaxoyhohY3Nu"], "asm": "OP_HASH160 aef8ed28b0ddef18335f16d07a7ddd58d124244a OP_EQUAL", "type": "scripthash"}, "value": 0.00999239, "n": 1}], "hex": "02000000000107109eead51844ed385457dc0a291ffbe8e4d0128832105a700ce17473437258170100000017160014be256ae3d5eed37788b9f037853bca95f02112f4feffffff309f9cc977fc89dfa3ee0be7a9218415e406d058c3277f1a91adfba05a9357f4120000001716001471b366c5261d3605ea4bfb75e4b6aaad73cdeceffeffffff3c50f617dae49955899b5a4a752fb6a957c7671815c1e6528428214faf3a7d1d01000000171600147539d96349c80d4754372988cd76dcac49059882feffffff5682435901401760bdfbb8e33b05f2ae4d95e91b04376db1ef1f7052108eaf540100000017160014576601e1176cb689f54bd4c4798165eb8c374c39feffffffd2c5fcb9bf5a207b43fb708ad17825be329ab87e6ca81fa7bb8528e68667ec020100000017160014bad76a8e80a7efdaebb6e6eba0d6b548198aa54cfeffffffed24bf93b3a1fa87bd0a915faf7bd6d898c4cd9634f8c96ab41bf327cc33f0f6430000006b483045022100ffdeacb70253074955223804bb6eb8c8f91c1982f08d6a85f0b9b470a0de17db02202de144e3a1e12c023902ffd17d65d50a1c24c494d77237084c914e5aa1ff7a1c012102f56ed1bb364d3068f89ae7299686f4e4e07a3318a81c53d2bd25fcc52acaaf3efefffffff40343786f853f023144d3574cff5706e371629690b98e75721b005941ad724b110000001716001463187ff6bde84a82c60534d16950a574b17476f6feffffff02656d59000000000017a914bcd664274035b177b7bcf9f74de4b0e8edc0836787473f0f000000000017a914aef8ed28b0ddef18335f16d07a7ddd58d124244a87024830450221008124fffbef56531083166f967b0b726d618746a5a62f053d902482d7b4e9b37a022014bd77c60453b7f3e7de0fcb4b3c5f121f4a638a2aa6da5c72f0b340d39fac5001210267c6f467e03d926f9d83159ce7950c60649f87c22918f3aa69beac85982b25b50247304402203b13a7e1788db378d6e4e207b7a0bccfbc0a0302829125f950ce5e5da8ad8e2d022073255bc4cb7429e226c6cfe96d4dd69afd35e85d3a16126bdaf3b4d32c2b54fe012102c21f3ca3e5f7d301ac3012664c925bfb3d36c3b5bea68b732c7dc4ab4b9fe27302473044022072d2cdb8d6e46c1135482670d9503aaf2dd76e3f68356f56ace2dcd2132c158f02205536778e01fe35abebc37afc2131f8e79e3767c2d5dbb05fa99012eb7aebf564012102ab669265cd13399b9e0226aaaae9ae2a75ab04659049383e23ba02ae0218b54102483045022100bdc35285a4982b4e8706d91c014c191389b7ad519cad4c586059585598bc69970220126fa37345122d047207eb48fb55246dc9d491fbc23dcd3fae039d8d3810d5150121027bf4538009d738097df940246abe2650a2ffadd99dcde75e1eee6aee6409422802483045022100c2b68bef7715bf7ea2c4acc97af0726c9d9ff136469d6051fffd05fb728f4b8102202ce9c7809efdcdeadbbabf0eb71686ed7e9b31dfbeda4d5dc563c4cf7dfeea5101210326f0bdb8bc930c9d63071c662a09187e36738f214cb02372fb03bb51e77e454b00024730440220322ae861db8a310a59b60f1532911a1648f2b777afe804ab829ba0de45041134022027db8b949c202f04f13614b4bcbdeb05d9aea271425ea7b7d57a11bc4c247d19012102de93d5eaa8fdfc6b9b6008d1be6f33f00d5ea92fed41ea9dc119400d597b59bc0e490800", "vin": [{"txinwitness": ["30450221008124fffbef56531083166f967b0b726d618746a5a62f053d902482d7b4e9b37a022014bd77c60453b7f3e7de0fcb4b3c5f121f4a638a2aa6da5c72f0b340d39fac5001", "0267c6f467e03d926f9d83159ce7950c60649f87c22918f3aa69beac85982b25b5"], "sequence": 4294967294, "scriptSig": {"hex": "160014be256ae3d5eed37788b9f037853bca95f02112f4", "asm": "0014be256ae3d5eed37788b9f037853bca95f02112f4"}, "vout": 1, "txid": "175872437374e10c705a10328812d0e4e8fb1f290adc575438ed4418d5ea9e10"}, {"txinwitness": ["304402203b13a7e1788db378d6e4e207b7a0bccfbc0a0302829125f950ce5e5da8ad8e2d022073255bc4cb7429e226c6cfe96d4dd69afd35e85d3a16126bdaf3b4d32c2b54fe01", "02c21f3ca3e5f7d301ac3012664c925bfb3d36c3b5bea68b732c7dc4ab4b9fe273"], "sequence": 4294967294, "scriptSig": {"hex": "16001471b366c5261d3605ea4bfb75e4b6aaad73cdecef", "asm": "001471b366c5261d3605ea4bfb75e4b6aaad73cdecef"}, "vout": 18, "txid": "f457935aa0fbad911a7f27c358d006e4158421a9e70beea3df89fc77c99c9f30"}, {"txinwitness": ["3044022072d2cdb8d6e46c1135482670d9503aaf2dd76e3f68356f56ace2dcd2132c158f02205536778e01fe35abebc37afc2131f8e79e3767c2d5dbb05fa99012eb7aebf56401", "02ab669265cd13399b9e0226aaaae9ae2a75ab04659049383e23ba02ae0218b541"], "sequence": 4294967294, "scriptSig": {"hex": "1600147539d96349c80d4754372988cd76dcac49059882", "asm": "00147539d96349c80d4754372988cd76dcac49059882"}, "vout": 1, "txid": "1d7d3aaf4f21288452e6c1151867c757a9b62f754a5a9b895599e4da17f6503c"}, {"txinwitness": ["3045022100bdc35285a4982b4e8706d91c014c191389b7ad519cad4c586059585598bc69970220126fa37345122d047207eb48fb55246dc9d491fbc23dcd3fae039d8d3810d51501", "027bf4538009d738097df940246abe2650a2ffadd99dcde75e1eee6aee64094228"], "sequence": 4294967294, "scriptSig": {"hex": "160014576601e1176cb689f54bd4c4798165eb8c374c39", "asm": "0014576601e1176cb689f54bd4c4798165eb8c374c39"}, "vout": 1, "txid": "54af8e1052701fefb16d37041be9954daef2053be3b8fbbd6017400159438256"}, {"txinwitness": ["3045022100c2b68bef7715bf7ea2c4acc97af0726c9d9ff136469d6051fffd05fb728f4b8102202ce9c7809efdcdeadbbabf0eb71686ed7e9b31dfbeda4d5dc563c4cf7dfeea5101", "0326f0bdb8bc930c9d63071c662a09187e36738f214cb02372fb03bb51e77e454b"], "sequence": 4294967294, "scriptSig": {"hex": "160014bad76a8e80a7efdaebb6e6eba0d6b548198aa54c", "asm": "0014bad76a8e80a7efdaebb6e6eba0d6b548198aa54c"}, "vout": 1, "txid": "02ec6786e62885bba71fa86c7eb89a32be2578d18a70fb437b205abfb9fcc5d2"}, {"sequence": 4294967294, "scriptSig": {"hex": "483045022100ffdeacb70253074955223804bb6eb8c8f91c1982f08d6a85f0b9b470a0de17db02202de144e3a1e12c023902ffd17d65d50a1c24c494d77237084c914e5aa1ff7a1c012102f56ed1bb364d3068f89ae7299686f4e4e07a3318a81c53d2bd25fcc52acaaf3e", "asm": "3045022100ffdeacb70253074955223804bb6eb8c8f91c1982f08d6a85f0b9b470a0de17db02202de144e3a1e12c023902ffd17d65d50a1c24c494d77237084c914e5aa1ff7a1c[ALL] 02f56ed1bb364d3068f89ae7299686f4e4e07a3318a81c53d2bd25fcc52acaaf3e"}, "vout": 67, "txid": "f6f033cc27f31bb46ac9f83496cdc498d8d67baf5f910abd87faa1b393bf24ed"}, {"txinwitness": ["30440220322ae861db8a310a59b60f1532911a1648f2b777afe804ab829ba0de45041134022027db8b949c202f04f13614b4bcbdeb05d9aea271425ea7b7d57a11bc4c247d1901", "02de93d5eaa8fdfc6b9b6008d1be6f33f00d5ea92fed41ea9dc119400d597b59bc"], "sequence": 4294967294, "scriptSig": {"hex": "16001463187ff6bde84a82c60534d16950a574b17476f6", "asm": "001463187ff6bde84a82c60534d16950a574b17476f6"}, "vout": 17, "txid": "4b72ad4159001b72758eb990966271e30657ff4c57d34431023f856f784303f4"}], "txid": "8f8271f26e9ec53d8a4a91e286508e1d23a2ea698f6938101ec9ab6c726514c0", "blocktime": 1537870928, "version": 2, "confirmations": 11514, "time": 1537870928, "locktime": 542990, "vsize": 768, "size": 1254}