{"hash": "8f85a4c91c9838a5174cb4bd95f5a957938f1aaa8db4af00d281c847595debd6", "blockhash": "0000000000000000001f76057863aec43deb6fa401d9628bb513d65a8098bfab", "vout": [{"scriptPubKey": {"reqSigs": 1, "hex": "76a91430db92dbc37c0a29de6c74c3e6835d6b025c2d4588ac", "addresses": ["15TLUTJz3UeNiyrtXCK567Xt5MKJGA7x1q"], "asm": "OP_DUP OP_HASH160 30db92dbc37c0a29de6c74c3e6835d6b025c2d45 OP_EQUALVERIFY OP_CHECKSIG", "type": "pubkeyhash"}, "value": 0.00023, "n": 0}], "hex": "0100000002e7764afb238f902231348ea1036dac561614780ef2ecbf8f71e3ca11a3c2df80010000006a473044022042fcc415ee4a2e5abca6f851bb483949f7357ab2fd1a553784233d8c963d68bb022036c7690663bc337d3a2b7f59df0b1ee555a3bb90332b017da60a8ba7e3d0212701210324e0d78e50137e73a345a7bb0811b196e0f847994ccdbe89d7470cfcbbf513c8ffffffffc61b6e8fdbbff74a1a3f3f41cafb1ca5ad35cfde5bd812b872873565df484f35010000006b483045022100f41a908c7ed973c4611d022da5d52ead2f9c56691d65daee6e4e1f03958817260220391ede5d9fd718707adef8ff85083a46ce9476538b42e1d66c1ec2c93dc925e40121039743be7ebb2cec2526783198e49024f5cd048d3f4e37f54cb4f47e540cc17aa1ffffffff01d8590000000000001976a91430db92dbc37c0a29de6c74c3e6835d6b025c2d4588ac00000000", "vin": [{"sequence": 4294967295, "scriptSig": {"hex": "473044022042fcc415ee4a2e5abca6f851bb483949f7357ab2fd1a553784233d8c963d68bb022036c7690663bc337d3a2b7f59df0b1ee555a3bb90332b017da60a8ba7e3d0212701210324e0d78e50137e73a345a7bb0811b196e0f847994ccdbe89d7470cfcbbf513c8", "asm": "3044022042fcc415ee4a2e5abca6f851bb483949f7357ab2fd1a553784233d8c963d68bb022036c7690663bc337d3a2b7f59df0b1ee555a3bb90332b017da60a8ba7e3d02127[ALL] 0324e0d78e50137e73a345a7bb0811b196e0f847994ccdbe89d7470cfcbbf513c8"}, "vout": 1, "txid": "80dfc2a311cae3718fbfecf20e78141656ac6d03a18e343122908f23fb4a76e7"}, {"sequence": 4294967295, "scriptSig": {"hex": "483045022100f41a908c7ed973c4611d022da5d52ead2f9c56691d65daee6e4e1f03958817260220391ede5d9fd718707adef8ff85083a46ce9476538b42e1d66c1ec2c93dc925e40121039743be7ebb2cec2526783198e49024f5cd048d3f4e37f54cb4f47e540cc17aa1", "asm": "3045022100f41a908c7ed973c4611d022da5d52ead2f9c56691d65daee6e4e1f03958817260220391ede5d9fd718707adef8ff85083a46ce9476538b42e1d66c1ec2c93dc925e4[ALL] 039743be7ebb2cec2526783198e49024f5cd048d3f4e37f54cb4f47e540cc17aa1"}, "vout": 1, "txid": "354f48df65358772b812d85bdecf35ada51cfbca413f3f1a4af7bfdb8f6e1bc6"}], "txid": "8f85a4c91c9838a5174cb4bd95f5a957938f1aaa8db4af00d281c847595debd6", "blocktime": 1537873891, "version": 1, "confirmations": 11474, "time": 1537873891, "locktime": 0, "vsize": 339, "size": 339}