{"hash": "8f8986f8363a0928f0990a4aebe5c6ff715e18031a5e42cf57402f60ef9d69f0", "blockhash": "000000000000000000022b45ed06c6f4ccd3cf7fb5ba4856ebd2e58215665228", "vout": [{"scriptPubKey": {"reqSigs": 1, "hex": "76a914b7edbaa983d3b14f7df8f13c6625271008fe4c5788ac", "addresses": ["1HmXSpKRQYmgvZApkrBdpqbPZ1eWDjkxZL"], "asm": "OP_DUP OP_HASH160 b7edbaa983d3b14f7df8f13c6625271008fe4c57 OP_EQUALVERIFY OP_CHECKSIG", "type": "pubkeyhash"}, "value": 0.053091, "n": 0}, {"scriptPubKey": {"reqSigs": 1, "hex": "76a91452e2b198a85e57ae8db70bd1bf927bcab8cd5fc788ac", "addresses": ["18ZFygqzhD9zbbXr2kSkRuxX6nYTtn8bhh"], "asm": "OP_DUP OP_HASH160 52e2b198a85e57ae8db70bd1bf927bcab8cd5fc7 OP_EQUALVERIFY OP_CHECKSIG", "type": "pubkeyhash"}, "value": 1.20375035, "n": 1}], "hex": "0100000001e339401610f8489c313304026080cb8a040d45e2bf4ad221839c5a668e5bb2e9010000006b4830450221008a7b1cf8cab9f6205c799eaf718b297d485e92eb8d786521017fb0290100e6a60220174c27baa2bb7b384b51354ae0ee273016a73d78816eaae20e7a76a571fe72ca012102052e91b05c8eb12b023bb3d050f1f9372a82d750e650d7293c6e75efb412ba30ffffffff02ac025100000000001976a914b7edbaa983d3b14f7df8f13c6625271008fe4c5788acfbc62c07000000001976a91452e2b198a85e57ae8db70bd1bf927bcab8cd5fc788ac00000000", "vin": [{"sequence": 4294967295, "scriptSig": {"hex": "4830450221008a7b1cf8cab9f6205c799eaf718b297d485e92eb8d786521017fb0290100e6a60220174c27baa2bb7b384b51354ae0ee273016a73d78816eaae20e7a76a571fe72ca012102052e91b05c8eb12b023bb3d050f1f9372a82d750e650d7293c6e75efb412ba30", "asm": "30450221008a7b1cf8cab9f6205c799eaf718b297d485e92eb8d786521017fb0290100e6a60220174c27baa2bb7b384b51354ae0ee273016a73d78816eaae20e7a76a571fe72ca[ALL] 02052e91b05c8eb12b023bb3d050f1f9372a82d750e650d7293c6e75efb412ba30"}, "vout": 1, "txid": "e9b25b8e665a9c8321d24abfe2450d048acb8060020433319c48f810164039e3"}], "txid": "8f8986f8363a0928f0990a4aebe5c6ff715e18031a5e42cf57402f60ef9d69f0", "blocktime": 1537869901, "version": 1, "confirmations": 11522, "time": 1537869901, "locktime": 0, "vsize": 226, "size": 226}