{"hash": "8f8d4ee48a7a7fabc88e4cb8e4e3a5ab57455bcc51c60c07a7acbbb036b9d5cd", "blockhash": "0000000000000000001cda96e906b7601b7a6fb1a3b62bca570a9e5d8f4b3de1", "vout": [{"scriptPubKey": {"type": "nulldata", "hex": "6a4c50000077c80001624eaac1c35f8ee7303417685b23cc0f42c2fc38c5e5bf9ae76da98a211a39811c1665291878898fab1d3ea6421b5baa13a10612c5e3025f34a7bc9a9526289ac0f6612cd74e33776ee4", "asm": "OP_RETURN 000077c80001624eaac1c35f8ee7303417685b23cc0f42c2fc38c5e5bf9ae76da98a211a39811c1665291878898fab1d3ea6421b5baa13a10612c5e3025f34a7bc9a9526289ac0f6612cd74e33776ee4"}, "value": 0.0, "n": 0}, {"scriptPubKey": {"reqSigs": 1, "hex": "76a914ae40c1fa6c1796a891146362c90ca9a083d645a388ac", "addresses": ["1GtN9porVGqYNwALLKgKmps1WD6XEkc2hQ"], "asm": "OP_DUP OP_HASH160 ae40c1fa6c1796a891146362c90ca9a083d645a3 OP_EQUALVERIFY OP_CHECKSIG", "type": "pubkeyhash"}, "value": 0.0013096, "n": 1}], "hex": "01000000017725db3629d7ff0b83a39f8838e8e105efdd22713dcacd4361307cd10ed33242000000006b483045022100b771c79f4986383c74dfd5c9b44d3f5e17f459252158fc9fd0d9ba8399bbddac022003119bdba7e268c42c19bac3106fd91e7c086c1a3387b78f01e260a96179be1e012102ec4aa26d59dec5efd62212591ccaf989ad7fc58f5a2ff2cdb7b70c9d98e4a748ffffffff020000000000000000536a4c50000077c80001624eaac1c35f8ee7303417685b23cc0f42c2fc38c5e5bf9ae76da98a211a39811c1665291878898fab1d3ea6421b5baa13a10612c5e3025f34a7bc9a9526289ac0f6612cd74e33776ee490ff0100000000001976a914ae40c1fa6c1796a891146362c90ca9a083d645a388ac00000000", "vin": [{"sequence": 4294967295, "scriptSig": {"hex": "483045022100b771c79f4986383c74dfd5c9b44d3f5e17f459252158fc9fd0d9ba8399bbddac022003119bdba7e268c42c19bac3106fd91e7c086c1a3387b78f01e260a96179be1e012102ec4aa26d59dec5efd62212591ccaf989ad7fc58f5a2ff2cdb7b70c9d98e4a748", "asm": "3045022100b771c79f4986383c74dfd5c9b44d3f5e17f459252158fc9fd0d9ba8399bbddac022003119bdba7e268c42c19bac3106fd91e7c086c1a3387b78f01e260a96179be1e[ALL] 02ec4aa26d59dec5efd62212591ccaf989ad7fc58f5a2ff2cdb7b70c9d98e4a748"}, "vout": 0, "txid": "4232d30ed17c306143cdca3d7122ddef05e1e838889fa3830bffd72936db2577"}], "txid": "8f8d4ee48a7a7fabc88e4cb8e4e3a5ab57455bcc51c60c07a7acbbb036b9d5cd", "blocktime": 1537873282, "version": 1, "confirmations": 11484, "time": 1537873282, "locktime": 0, "vsize": 284, "size": 284}