{"hash": "8f9dada4e42bb7092370bd2b7b3d0c2302d3860b82d197881c478a07bcaf2346", "blockhash": "0000000000000000001e0dab787dd257d1dbfcb92a98c2207d5e1078be1f4165", "vout": [{"scriptPubKey": {"reqSigs": 1, "hex": "a91496d3706173ec1440d9ec37d707a6e3b3e5774fa587", "addresses": ["3FSWaMe9HkC39FFXcxhE9ihihb9yHYmkr5"], "asm": "OP_HASH160 96d3706173ec1440d9ec37d707a6e3b3e5774fa5 OP_EQUAL", "type": "scripthash"}, "value": 0.0140665, "n": 0}, {"scriptPubKey": {"reqSigs": 1, "hex": "76a914531550a7c395bf043e6383c94e01ec9402334abc88ac", "addresses": ["18aJcvFzKXDuiGjv6asdazuRWpU7uLA6eK"], "asm": "OP_DUP OP_HASH160 531550a7c395bf043e6383c94e01ec9402334abc OP_EQUALVERIFY OP_CHECKSIG", "type": "pubkeyhash"}, "value": 2.11403739, "n": 1}], "hex": "01000000019095568fbecf5f9143a9925d36677947f4bbd82c11b2cc2c5da6eb947cddeefc010000006a4730440220722b183d7bda7a63886851d3870d195f91412281b5163d6aa14d20c1517d0f9d022067c5125ad5c202f7ec472dcb2820a24339e4f5163dc1250de87957d8e679ebeb01210210d89b1bcad1ebe13e52bedd069188c9e8adcbca0bd2661389bb3fa166af8ff1ffffffff02ba7615000000000017a91496d3706173ec1440d9ec37d707a6e3b3e5774fa587dbc3990c000000001976a914531550a7c395bf043e6383c94e01ec9402334abc88ac00000000", "vin": [{"sequence": 4294967295, "scriptSig": {"hex": "4730440220722b183d7bda7a63886851d3870d195f91412281b5163d6aa14d20c1517d0f9d022067c5125ad5c202f7ec472dcb2820a24339e4f5163dc1250de87957d8e679ebeb01210210d89b1bcad1ebe13e52bedd069188c9e8adcbca0bd2661389bb3fa166af8ff1", "asm": "30440220722b183d7bda7a63886851d3870d195f91412281b5163d6aa14d20c1517d0f9d022067c5125ad5c202f7ec472dcb2820a24339e4f5163dc1250de87957d8e679ebeb[ALL] 0210d89b1bcad1ebe13e52bedd069188c9e8adcbca0bd2661389bb3fa166af8ff1"}, "vout": 1, "txid": "fceedd7c94eba65d2cccb2112cd8bbf4477967365d92a943915fcfbe8f569590"}], "txid": "8f9dada4e42bb7092370bd2b7b3d0c2302d3860b82d197881c478a07bcaf2346", "blocktime": 1537872475, "version": 1, "confirmations": 11487, "time": 1537872475, "locktime": 0, "vsize": 223, "size": 223}