{"hash": "8f9f03e1512da226a20365bcf27c985a20b5706bb1e4fcce7b933b7886f0e4a9", "blockhash": "0000000000000000000dcc0f55137456b1a82d3642486a52398922ac4d620174", "vout": [{"scriptPubKey": {"reqSigs": 1, "hex": "76a914aa46206e211653d5b1862636f0637ed43c232e8688ac", "addresses": ["1GXKt6hr1P7J1fTa4M2QUofxZqTMJSReJ2"], "asm": "OP_DUP OP_HASH160 aa46206e211653d5b1862636f0637ed43c232e86 OP_EQUALVERIFY OP_CHECKSIG", "type": "pubkeyhash"}, "value": 0.0148404, "n": 0}, {"scriptPubKey": {"type": "nulldata", "hex": "6a4c500000776d000121ddf512e147afdd739e12c986aeaeacb577c031fc3a016b46dc7dc7d096a8db51c8fa9c1a99480b4f2b1b5892065baa08b30613ca0b1d1fe2a9bc9a9526289ac0f6612cd74e33776ee4", "asm": "OP_RETURN 0000776d000121ddf512e147afdd739e12c986aeaeacb577c031fc3a016b46dc7dc7d096a8db51c8fa9c1a99480b4f2b1b5892065baa08b30613ca0b1d1fe2a9bc9a9526289ac0f6612cd74e33776ee4"}, "value": 0.0, "n": 1}], "hex": "010000000188b84c02f576a84c30ff46180f3d6a59b002a642a1d3dbf0ac4073dd5a62c51c000000006b483045022100f0c5aa4186729f4b9cde128a1f0879727925c17f594e6b7c7ee719dd039a525002203877c2d444803446f3922cc7101de6155b2c8202a57bb1e162966666699154f301210297a7c01cf3415baf2b7b03a7a4e27c7b75829dd5c2a6048855befea8272ce6bcffffffff0208a51600000000001976a914aa46206e211653d5b1862636f0637ed43c232e8688ac0000000000000000536a4c500000776d000121ddf512e147afdd739e12c986aeaeacb577c031fc3a016b46dc7dc7d096a8db51c8fa9c1a99480b4f2b1b5892065baa08b30613ca0b1d1fe2a9bc9a9526289ac0f6612cd74e33776ee400000000", "vin": [{"sequence": 4294967295, "scriptSig": {"hex": "483045022100f0c5aa4186729f4b9cde128a1f0879727925c17f594e6b7c7ee719dd039a525002203877c2d444803446f3922cc7101de6155b2c8202a57bb1e162966666699154f301210297a7c01cf3415baf2b7b03a7a4e27c7b75829dd5c2a6048855befea8272ce6bc", "asm": "3045022100f0c5aa4186729f4b9cde128a1f0879727925c17f594e6b7c7ee719dd039a525002203877c2d444803446f3922cc7101de6155b2c8202a57bb1e162966666699154f3[ALL] 0297a7c01cf3415baf2b7b03a7a4e27c7b75829dd5c2a6048855befea8272ce6bc"}, "vout": 0, "txid": "1cc5625add7340acf0dbd3a142a602b0596a3d0f1846ff304ca876f5024cb888"}], "txid": "8f9f03e1512da226a20365bcf27c985a20b5706bb1e4fcce7b933b7886f0e4a9", "blocktime": 1537870268, "version": 1, "confirmations": 11518, "time": 1537870268, "locktime": 0, "vsize": 284, "size": 284}