{"hash": "8fa184a1f700d2d76d6b86d0b18719f799a073d78fb23a047c73206264302ec7", "blockhash": "000000000000000000022b45ed06c6f4ccd3cf7fb5ba4856ebd2e58215665228", "vout": [{"scriptPubKey": {"reqSigs": 1, "hex": "76a914e8cea30989bd15530f819b766684b00dc7ba7cfa88ac", "addresses": ["1NDyJtNTjmwk5xPNhjgAMu4HDHigtobu1s"], "asm": "OP_DUP OP_HASH160 e8cea30989bd15530f819b766684b00dc7ba7cfa OP_EQUALVERIFY OP_CHECKSIG", "type": "pubkeyhash"}, "value": 42.5703063, "n": 0}, {"scriptPubKey": {"reqSigs": 1, "hex": "76a914af8460abc2a5a94de88404616c643f350db4efe088ac", "addresses": ["1H13qL4e4h85KNfbwtfekv2xKT5hc8WavG"], "asm": "OP_DUP OP_HASH160 af8460abc2a5a94de88404616c643f350db4efe0 OP_EQUALVERIFY OP_CHECKSIG", "type": "pubkeyhash"}, "value": 0.00888985, "n": 1}], "hex": "02000000070ab946375d37b1dd71aedcbed035f3f56a5d5be98b780039fbbc58e363c84e3b040000006b483045022100a81af0d985734f91bca4fc5ff2249902205edff9dfd56affcaed3f7a24c421d80220504442f1c214d6ca07bcf45a8a7ce07e2b23196c2e7fce44026b8e4ee7abb9f101210273a0b8ea0164f3a5b1aa6cda77afe7dc891ef72e1a399dc383cac7ccf28084fffeffffff2750163223eb145c8cb21a62de0f87d44c5f9c3def1f36a0f30c6178c2bca1facd0200006b483045022100a3fe6564f2885fc8fa84a31254de3cdfd25f090b1fa1765db1b6c9f2ecd7b75f02205d498ca9d51fbe9c0e702bd49830c5d08865f7c3579cf8603f3126bed60b8771012102707c6cc94cfd914f1672e0278a2b1e63be3e6d1aed7244fc0b0bbd3451d0f034feffffff4a1f65fc8d572f40671c67cf3f6650bba3dbc0a93003841784fd0423358084a0010000006a4730440220510a29572c07deef46e7e6f922982992f5e7c07b7d39f831037fed0ceb41fed30220297301749957684e4dc81ff3f6969559235028f83c3a6b323c5d7b21049f09e9012102a9c05f56738cdbeb32dc6a5af9e6c784b72dcaec8c31ad8cf23f106e52cbbb70feffffff55e975699c82b60db37a0c40fb472b3ef893213e63678ed584471556685b20fc000000006b483045022100b7e866274e20eea8f6557f03192c45b9aea63e12ecbc29dad36c374152a56f4802204ef391a1558e6116bdf58ee97d009086f23de9bcf5e82bd18033d3b105cce3ea0121020336fac39ee5f683195187b3e96c79b8cb79c9f67f1ee30c09f6960a1a1a541efeffffff61a337e6e4da7a14936bf7c1c6267040e799c10e090768144a2491fd487d2ad8010000006a4730440220275fc8a594e8e34b4128972c1b0eb3ce83550031d1cf85793a4a190a1c6e3ddd022045803fb9621be1233ded96efeed04767c44ce5c3af8d7614dbc62f9411760ce10121035115a10a44b1c0b0722a7e99906fc451ab86ae3913a70251c5570c846abcc1a0feffffff724097c4dd5ec9c75419b6b031401c5ec8e88cf9e4592a88f8f7da3a79d7cd09010000006b483045022100e7e9792abb0a45e30544974f0dd90879995eda6b949514212cad88b308810bde02201a0139672d841db670c56ab0694e88ab6ed6934ccbfe35018e8e99f79b5b3e9f0121030474debe2179c5a4e0787edc990cb3140fdb1b721dc2931598efac4267ce9f1dfeffffff7e1d747423644e224ef802aa7612cd589fbdca72d2e2b0e3541b610bbeb0a4d1000000006a473044022043f18e6f68dafd8b725732919b03ceb8963738dc75aade970561a2536ca7cfb6022033acbf0b81d20ae8c31b6fb2c8f3de7f756d9742c44d0a95dea8353e765eee33012103fd9fca2a9ef1a1da27c287ace491af297b3a8b14adca373e891ab23140f19abbfeffffff02e621bdfd000000001976a914e8cea30989bd15530f819b766684b00dc7ba7cfa88ac99900d00000000001976a914af8460abc2a5a94de88404616c643f350db4efe088ac0b490800", "vin": [{"sequence": 4294967294, "scriptSig": {"hex": "483045022100a81af0d985734f91bca4fc5ff2249902205edff9dfd56affcaed3f7a24c421d80220504442f1c214d6ca07bcf45a8a7ce07e2b23196c2e7fce44026b8e4ee7abb9f101210273a0b8ea0164f3a5b1aa6cda77afe7dc891ef72e1a399dc383cac7ccf28084ff", "asm": "3045022100a81af0d985734f91bca4fc5ff2249902205edff9dfd56affcaed3f7a24c421d80220504442f1c214d6ca07bcf45a8a7ce07e2b23196c2e7fce44026b8e4ee7abb9f1[ALL] 0273a0b8ea0164f3a5b1aa6cda77afe7dc891ef72e1a399dc383cac7ccf28084ff"}, "vout": 4, "txid": "3b4ec863e358bcfb3900788be95b5d6af5f335d0bedcae71ddb1375d3746b90a"}, {"sequence": 4294967294, "scriptSig": {"hex": "483045022100a3fe6564f2885fc8fa84a31254de3cdfd25f090b1fa1765db1b6c9f2ecd7b75f02205d498ca9d51fbe9c0e702bd49830c5d08865f7c3579cf8603f3126bed60b8771012102707c6cc94cfd914f1672e0278a2b1e63be3e6d1aed7244fc0b0bbd3451d0f034", "asm": "3045022100a3fe6564f2885fc8fa84a31254de3cdfd25f090b1fa1765db1b6c9f2ecd7b75f02205d498ca9d51fbe9c0e702bd49830c5d08865f7c3579cf8603f3126bed60b8771[ALL] 02707c6cc94cfd914f1672e0278a2b1e63be3e6d1aed7244fc0b0bbd3451d0f034"}, "vout": 717, "txid": "faa1bcc278610cf3a0361fef3d9c5f4cd4870fde621ab28c5c14eb2332165027"}, {"sequence": 4294967294, "scriptSig": {"hex": "4730440220510a29572c07deef46e7e6f922982992f5e7c07b7d39f831037fed0ceb41fed30220297301749957684e4dc81ff3f6969559235028f83c3a6b323c5d7b21049f09e9012102a9c05f56738cdbeb32dc6a5af9e6c784b72dcaec8c31ad8cf23f106e52cbbb70", "asm": "30440220510a29572c07deef46e7e6f922982992f5e7c07b7d39f831037fed0ceb41fed30220297301749957684e4dc81ff3f6969559235028f83c3a6b323c5d7b21049f09e9[ALL] 02a9c05f56738cdbeb32dc6a5af9e6c784b72dcaec8c31ad8cf23f106e52cbbb70"}, "vout": 1, "txid": "a08480352304fd8417840330a9c0dba3bb50663fcf671c67402f578dfc651f4a"}, {"sequence": 4294967294, "scriptSig": {"hex": "483045022100b7e866274e20eea8f6557f03192c45b9aea63e12ecbc29dad36c374152a56f4802204ef391a1558e6116bdf58ee97d009086f23de9bcf5e82bd18033d3b105cce3ea0121020336fac39ee5f683195187b3e96c79b8cb79c9f67f1ee30c09f6960a1a1a541e", "asm": "3045022100b7e866274e20eea8f6557f03192c45b9aea63e12ecbc29dad36c374152a56f4802204ef391a1558e6116bdf58ee97d009086f23de9bcf5e82bd18033d3b105cce3ea[ALL] 020336fac39ee5f683195187b3e96c79b8cb79c9f67f1ee30c09f6960a1a1a541e"}, "vout": 0, "txid": "fc205b6856154784d58e67633e2193f83e2b47fb400c7ab30db6829c6975e955"}, {"sequence": 4294967294, "scriptSig": {"hex": "4730440220275fc8a594e8e34b4128972c1b0eb3ce83550031d1cf85793a4a190a1c6e3ddd022045803fb9621be1233ded96efeed04767c44ce5c3af8d7614dbc62f9411760ce10121035115a10a44b1c0b0722a7e99906fc451ab86ae3913a70251c5570c846abcc1a0", "asm": "30440220275fc8a594e8e34b4128972c1b0eb3ce83550031d1cf85793a4a190a1c6e3ddd022045803fb9621be1233ded96efeed04767c44ce5c3af8d7614dbc62f9411760ce1[ALL] 035115a10a44b1c0b0722a7e99906fc451ab86ae3913a70251c5570c846abcc1a0"}, "vout": 1, "txid": "d82a7d48fd91244a146807090ec199e7407026c6c1f76b93147adae4e637a361"}, {"sequence": 4294967294, "scriptSig": {"hex": "483045022100e7e9792abb0a45e30544974f0dd90879995eda6b949514212cad88b308810bde02201a0139672d841db670c56ab0694e88ab6ed6934ccbfe35018e8e99f79b5b3e9f0121030474debe2179c5a4e0787edc990cb3140fdb1b721dc2931598efac4267ce9f1d", "asm": "3045022100e7e9792abb0a45e30544974f0dd90879995eda6b949514212cad88b308810bde02201a0139672d841db670c56ab0694e88ab6ed6934ccbfe35018e8e99f79b5b3e9f[ALL] 030474debe2179c5a4e0787edc990cb3140fdb1b721dc2931598efac4267ce9f1d"}, "vout": 1, "txid": "09cdd7793adaf7f8882a59e4f98ce8c85e1c4031b0b61954c7c95eddc4974072"}, {"sequence": 4294967294, "scriptSig": {"hex": "473044022043f18e6f68dafd8b725732919b03ceb8963738dc75aade970561a2536ca7cfb6022033acbf0b81d20ae8c31b6fb2c8f3de7f756d9742c44d0a95dea8353e765eee33012103fd9fca2a9ef1a1da27c287ace491af297b3a8b14adca373e891ab23140f19abb", "asm": "3044022043f18e6f68dafd8b725732919b03ceb8963738dc75aade970561a2536ca7cfb6022033acbf0b81d20ae8c31b6fb2c8f3de7f756d9742c44d0a95dea8353e765eee33[ALL] 03fd9fca2a9ef1a1da27c287ace491af297b3a8b14adca373e891ab23140f19abb"}, "vout": 0, "txid": "d1a4b0be0b611b54e3b0e2d272cabd9f58cd1276aa02f84e224e642374741d7e"}], "txid": "8fa184a1f700d2d76d6b86d0b18719f799a073d78fb23a047c73206264302ec7", "blocktime": 1537869901, "version": 2, "confirmations": 11522, "time": 1537869901, "locktime": 542987, "vsize": 1111, "size": 1111}