{"hash": "2ec2f2dba6ef4215f0fec222c9342b6dcb6404d38c4cb63bf9f635df3953919e", "blockhash": "00000000000000000018f53835495a110e01622372bf6ae95dc86f2b0ab887b0", "vout": [{"scriptPubKey": {"reqSigs": 1, "hex": "76a914fefcda49f6e37defda693deb597886cd224b65a788ac", "addresses": ["1QFFYEoJRkhNceFUosDxGW8QaNvwv94xRB"], "asm": "OP_DUP OP_HASH160 fefcda49f6e37defda693deb597886cd224b65a7 OP_EQUALVERIFY OP_CHECKSIG", "type": "pubkeyhash"}, "value": 0.00016073, "n": 0}, {"scriptPubKey": {"reqSigs": 1, "hex": "a914e8db75c900cf08f06518e96d167331f2a4abfb3387", "addresses": ["3NvFbQMAkkqEFj4i1sYPPLkSWzxTFUchjA"], "asm": "OP_HASH160 e8db75c900cf08f06518e96d167331f2a4abfb33 OP_EQUAL", "type": "scripthash"}, "value": 0.00082877, "n": 1}], "hex": "01000000000101a5a717696ca757ecc604ee6647026cb4a41c89fe5fa8656325948de59685d6830000000023220020941cfaff8837763dc1f69ff82b6d6553fdea17a41cfc29a04403293eedd8ccc7ffffffff02c93e0000000000001976a914fefcda49f6e37defda693deb597886cd224b65a788acbd4301000000000017a914e8db75c900cf08f06518e96d167331f2a4abfb3387040048304502210099e9cd0ee52cb744ddd296925eb0456644f9f9f9c9a263d0c376ce700b09b75602205d83f468d062976b73811bfe71f7fa5e90ed757edd3a36ddaaf6d6abaffcb75401483045022100ee2bff5cda8a71769725450fc16d451c6a9a00845ab5a642398bfebc7c872bde0220385dcda70bf16fb7f15db042e1ea1d088c07204a5459f034282bedbd31ed0d4a0147522102531db3a5883f29bab4241dd0cd726936667bcda445d89bdd22244e828b6993342103148c80a5bdfddb05ff5bcffc397c8ca748d8b435ec6a175bc9d7bfc7fc6f853752ae00000000", "vin": [{"txinwitness": ["", "304502210099e9cd0ee52cb744ddd296925eb0456644f9f9f9c9a263d0c376ce700b09b75602205d83f468d062976b73811bfe71f7fa5e90ed757edd3a36ddaaf6d6abaffcb75401", "3045022100ee2bff5cda8a71769725450fc16d451c6a9a00845ab5a642398bfebc7c872bde0220385dcda70bf16fb7f15db042e1ea1d088c07204a5459f034282bedbd31ed0d4a01", "522102531db3a5883f29bab4241dd0cd726936667bcda445d89bdd22244e828b6993342103148c80a5bdfddb05ff5bcffc397c8ca748d8b435ec6a175bc9d7bfc7fc6f853752ae"], "sequence": 4294967295, "scriptSig": {"hex": "220020941cfaff8837763dc1f69ff82b6d6553fdea17a41cfc29a04403293eedd8ccc7", "asm": "0020941cfaff8837763dc1f69ff82b6d6553fdea17a41cfc29a04403293eedd8ccc7"}, "vout": 0, "txid": "83d68596e58d94256365a85ffe891ca4b46c024766ee04c6ec57a76c6917a7a5"}], "txid": "8fa4c205588cd5c2b1836ca60019dde7886d3fd481da4c283c31d52a4392b598", "blocktime": 1537870928, "version": 1, "confirmations": 11514, "time": 1537870928, "locktime": 0, "vsize": 208, "size": 374}