{"hash": "8fa5cc4c52ce69292371ce2ca16bff81cee7461426de7e648f4d6f3463521e7e", "blockhash": "00000000000000000017f5eb5941039fbcee6240d03bc1f2f8e35350df66a1d8", "vout": [{"scriptPubKey": {"reqSigs": 1, "hex": "76a9143c108b6f113b8f63c202545f6aeb7b95687a723788ac", "addresses": ["16UbN45xcBgheBKSWygy4XEGnkVFTmM2kv"], "asm": "OP_DUP OP_HASH160 3c108b6f113b8f63c202545f6aeb7b95687a7237 OP_EQUALVERIFY OP_CHECKSIG", "type": "pubkeyhash"}, "value": 0.0015, "n": 0}, {"scriptPubKey": {"reqSigs": 1, "hex": "76a914947056b048e6e65aea55babedfe8e123d80083b788ac", "addresses": ["1EXsapJaokknub2pg1WfLTr3N79L2siveJ"], "asm": "OP_DUP OP_HASH160 947056b048e6e65aea55babedfe8e123d80083b7 OP_EQUALVERIFY OP_CHECKSIG", "type": "pubkeyhash"}, "value": 0.0114661, "n": 1}], "hex": "0100000001075fb555ca440f4f761b5abf03f139e0deb98fea9e5a73c9c736eddb8d08134c010000006a47304402202dc175f90eb9cedda1dad07a3e477dbac70daa591cc7f9105fc397652224a88b02201d560dec0ccefd496d5b78734635be3a09a05ccde2c744407ef9b3fdb1b5e70e012102340e9c3b568af857b863b66635f14d90e4699947a524df62f57e18c4b5e3ebf3ffffffff02f0490200000000001976a9143c108b6f113b8f63c202545f6aeb7b95687a723788acf27e1100000000001976a914947056b048e6e65aea55babedfe8e123d80083b788ac00000000", "vin": [{"sequence": 4294967295, "scriptSig": {"hex": "47304402202dc175f90eb9cedda1dad07a3e477dbac70daa591cc7f9105fc397652224a88b02201d560dec0ccefd496d5b78734635be3a09a05ccde2c744407ef9b3fdb1b5e70e012102340e9c3b568af857b863b66635f14d90e4699947a524df62f57e18c4b5e3ebf3", "asm": "304402202dc175f90eb9cedda1dad07a3e477dbac70daa591cc7f9105fc397652224a88b02201d560dec0ccefd496d5b78734635be3a09a05ccde2c744407ef9b3fdb1b5e70e[ALL] 02340e9c3b568af857b863b66635f14d90e4699947a524df62f57e18c4b5e3ebf3"}, "vout": 1, "txid": "4c13088ddbed36c7c9735a9eea8fb9dee039f103bf5a1b764f0f44ca55b55f07"}], "txid": "8fa5cc4c52ce69292371ce2ca16bff81cee7461426de7e648f4d6f3463521e7e", "blocktime": 1537874412, "version": 1, "confirmations": 11467, "time": 1537874412, "locktime": 0, "vsize": 225, "size": 225}