{"hash": "40106d95064610dd49dd51e5ce54e5e67da3d75f2a30a604ae513245c2d07b51", "blockhash": "0000000000000000001e0dab787dd257d1dbfcb92a98c2207d5e1078be1f4165", "vout": [{"scriptPubKey": {"reqSigs": 1, "hex": "76a91488b0dcab773f2b305bd5b1106dee5dbca8675a9a88ac", "addresses": ["1DTkmgBV3nvGFZiK665wp9XggUJkVNg7hB"], "asm": "OP_DUP OP_HASH160 88b0dcab773f2b305bd5b1106dee5dbca8675a9a OP_EQUALVERIFY OP_CHECKSIG", "type": "pubkeyhash"}, "value": 0.003, "n": 0}, {"scriptPubKey": {"reqSigs": 1, "hex": "a9141988a27e3c2df4ddee7fad5a2303d086179b2a3087", "addresses": ["3422VtS7UtCvXYxoXMVp6eZupR252z85oC"], "asm": "OP_HASH160 1988a27e3c2df4ddee7fad5a2303d086179b2a30 OP_EQUAL", "type": "scripthash"}, "value": 1.36893145, "n": 1}], "hex": "01000000000101b8ae1e2b336dde02af8acd515e8454fa176ec96dfe5b12f72a7879ce58894362010000002322002065d416c48a8072e0ac51c2d111eb194f009caef0332446c1bf2097316cf07fa9ffffffff02e0930400000000001976a91488b0dcab773f2b305bd5b1106dee5dbca8675a9a88acd9d228080000000017a9141988a27e3c2df4ddee7fad5a2303d086179b2a308704004730440220213af929189146566b8a9e2bafbfd710439ae4c3ec6cbc85e95144ff973cd795022063ae958769c628a6fa382db66a0353bb151ba9fcae0cdf0e74d65a405cd215bf014730440220104d9c3d4ec0a9d0946f329278f0601651d66825b0ba394a90aa9c14ff4b9b0902206408e8d0348e8ea1a0efdae34aa8497b4e16e6e7c2db3fbc2d473738f1025f430169522102f44abcf9e23c9a460da309ccca56c619c04eed3bde2c2cff5e7d78fbcd980b9c2103c9443cf3047bb6c2c82f1b0c44c36109cdc3d0d601d16d1189a1602bf8d1a0a02103bfe867059274412412e088af5572b92168c2ef495cfe6c9b7a753a009eb37c4853ae00000000", "vin": [{"txinwitness": ["", "30440220213af929189146566b8a9e2bafbfd710439ae4c3ec6cbc85e95144ff973cd795022063ae958769c628a6fa382db66a0353bb151ba9fcae0cdf0e74d65a405cd215bf01", "30440220104d9c3d4ec0a9d0946f329278f0601651d66825b0ba394a90aa9c14ff4b9b0902206408e8d0348e8ea1a0efdae34aa8497b4e16e6e7c2db3fbc2d473738f1025f4301", "522102f44abcf9e23c9a460da309ccca56c619c04eed3bde2c2cff5e7d78fbcd980b9c2103c9443cf3047bb6c2c82f1b0c44c36109cdc3d0d601d16d1189a1602bf8d1a0a02103bfe867059274412412e088af5572b92168c2ef495cfe6c9b7a753a009eb37c4853ae"], "sequence": 4294967295, "scriptSig": {"hex": "22002065d416c48a8072e0ac51c2d111eb194f009caef0332446c1bf2097316cf07fa9", "asm": "002065d416c48a8072e0ac51c2d111eb194f009caef0332446c1bf2097316cf07fa9"}, "vout": 1, "txid": "62438958ce79782af7125bfe6dc96e17fa54845e51cd8aaf02de6d332b1eaeb8"}], "txid": "8fafa720630e7cf78ef38df060e988720a846f61437ebbabb53b5c2347bfc67d", "blocktime": 1537872475, "version": 1, "confirmations": 11486, "time": 1537872475, "locktime": 0, "vsize": 216, "size": 406}