{"hash": "8fb3df8af7036e35bbb9ca1d675009d1f93cd443e8a5e172d1884de3af816f9f", "blockhash": "0000000000000000001cda96e906b7601b7a6fb1a3b62bca570a9e5d8f4b3de1", "vout": [{"scriptPubKey": {"reqSigs": 1, "hex": "76a9140a52c11cdce8317ee6d07b43abd03d240f65895a88ac", "addresses": ["1watntJXG3H6asiPpE1xT1vaH2Woq8g66"], "asm": "OP_DUP OP_HASH160 0a52c11cdce8317ee6d07b43abd03d240f65895a OP_EQUALVERIFY OP_CHECKSIG", "type": "pubkeyhash"}, "value": 0.15987925, "n": 0}, {"scriptPubKey": {"reqSigs": 1, "hex": "76a914a2a91292a0a04654251c568f7017a77389e8058c88ac", "addresses": ["1Fq51Si3uQnvwHKTqNpeLW7kSAxqNSMtxL"], "asm": "OP_DUP OP_HASH160 a2a91292a0a04654251c568f7017a77389e8058c OP_EQUALVERIFY OP_CHECKSIG", "type": "pubkeyhash"}, "value": 0.1639365, "n": 1}], "hex": "01000000010245729a80b481b30c354a869e7f2caee9e98004d2fde48141a61e9ae6b5d616010000006a47304402202d4059092aa236e5cc6c0d0543ab42987764e3df4c90a238da580ac596084fa202203aae8457a4449657cde6a047b2000fe72d10515b3b928fb0ec6c4ab1212b57c70121038ba8dbde69d1c3203b1ea5faf2aa977febd6c41fbc02e4f5c9c40edcdfd06734ffffffff02d5f4f300000000001976a9140a52c11cdce8317ee6d07b43abd03d240f65895a88acb225fa00000000001976a914a2a91292a0a04654251c568f7017a77389e8058c88ac00000000", "vin": [{"sequence": 4294967295, "scriptSig": {"hex": "47304402202d4059092aa236e5cc6c0d0543ab42987764e3df4c90a238da580ac596084fa202203aae8457a4449657cde6a047b2000fe72d10515b3b928fb0ec6c4ab1212b57c70121038ba8dbde69d1c3203b1ea5faf2aa977febd6c41fbc02e4f5c9c40edcdfd06734", "asm": "304402202d4059092aa236e5cc6c0d0543ab42987764e3df4c90a238da580ac596084fa202203aae8457a4449657cde6a047b2000fe72d10515b3b928fb0ec6c4ab1212b57c7[ALL] 038ba8dbde69d1c3203b1ea5faf2aa977febd6c41fbc02e4f5c9c40edcdfd06734"}, "vout": 1, "txid": "16d6b5e69a1ea64181e4fdd20480e9e9ae2c7f9e864a350cb381b4809a724502"}], "txid": "8fb3df8af7036e35bbb9ca1d675009d1f93cd443e8a5e172d1884de3af816f9f", "blocktime": 1537873282, "version": 1, "confirmations": 11484, "time": 1537873282, "locktime": 0, "vsize": 225, "size": 225}