{"hash": "50f5206b3fbb7802144fdd6141afe3b886a21d41838eed2558480178fdcd2436", "blockhash": "000000000000000000022b45ed06c6f4ccd3cf7fb5ba4856ebd2e58215665228", "vout": [{"scriptPubKey": {"reqSigs": 1, "hex": "76a9145765d151ed725076ca70edb9a867a436b6c7233a88ac", "addresses": ["18y7m72yCMavcJEG7DPQstZkUSUV5vt2hB"], "asm": "OP_DUP OP_HASH160 5765d151ed725076ca70edb9a867a436b6c7233a OP_EQUALVERIFY OP_CHECKSIG", "type": "pubkeyhash"}, "value": 0.0026686, "n": 0}, {"scriptPubKey": {"reqSigs": 1, "hex": "a9141dc1b461d6763690672ecd5501af0854a7538ab387", "addresses": ["34QMZwTBtRKBM5EP3rrfbZp2NcHHCPtqYd"], "asm": "OP_HASH160 1dc1b461d6763690672ecd5501af0854a7538ab3 OP_EQUAL", "type": "scripthash"}, "value": 0.00999937, "n": 1}], "hex": "0200000000010293858eb767ba76b9a18d1843f3fc0dfb2af76f94c253491e7370a26e6a245f060100000017160014b6c7a03217e31e07b570d0d23e5579843709db1ffeffffffc89621f7a3943b043fbaf647e873c49f8fd63eb4e9f981207714b360c9416a6800000000171600146d0a3bbc8d89060f3a25ba70a5510621585b6ba0feffffff026c120400000000001976a9145765d151ed725076ca70edb9a867a436b6c7233a88ac01420f000000000017a9141dc1b461d6763690672ecd5501af0854a7538ab38702483045022100dbd0b5af3de13131733e07e89d01d254be719792b4a51ed15021d2aa56ac1c5602206577af8610b0f31df7e928df947b3236a187d57ed26d3cae06d503a398f0b57c0121027d6c5169d59f5b57564bf0497f2458ad0a1338f2083f9e5a1c5d9eb3fb02bb7d024830450221009df1d9ffbab24e823267c4e2664aa71168b213006576be597b4d4779cdd720030220124a1d7296baaf87e44e1da94a759beb6997285f193da0a112b171919f2192c8012102faef262f0a2317e149e4cc7a41bf9439bdb638ad1cf5a733f2373e23e395cd1d0b490800", "vin": [{"txinwitness": ["3045022100dbd0b5af3de13131733e07e89d01d254be719792b4a51ed15021d2aa56ac1c5602206577af8610b0f31df7e928df947b3236a187d57ed26d3cae06d503a398f0b57c01", "027d6c5169d59f5b57564bf0497f2458ad0a1338f2083f9e5a1c5d9eb3fb02bb7d"], "sequence": 4294967294, "scriptSig": {"hex": "160014b6c7a03217e31e07b570d0d23e5579843709db1f", "asm": "0014b6c7a03217e31e07b570d0d23e5579843709db1f"}, "vout": 1, "txid": "065f246a6ea270731e4953c2946ff72afb0dfcf343188da1b976ba67b78e8593"}, {"txinwitness": ["30450221009df1d9ffbab24e823267c4e2664aa71168b213006576be597b4d4779cdd720030220124a1d7296baaf87e44e1da94a759beb6997285f193da0a112b171919f2192c801", "02faef262f0a2317e149e4cc7a41bf9439bdb638ad1cf5a733f2373e23e395cd1d"], "sequence": 4294967294, "scriptSig": {"hex": "1600146d0a3bbc8d89060f3a25ba70a5510621585b6ba0", "asm": "00146d0a3bbc8d89060f3a25ba70a5510621585b6ba0"}, "vout": 0, "txid": "686a41c960b314772081f9e9b43ed68f9fc473e847f6ba3f043b94a3f72196c8"}], "txid": "8fb861a44d8bec745633d113fb8985fd1b6dca90736b733a3b7502459552bf2e", "blocktime": 1537869901, "version": 2, "confirmations": 11524, "time": 1537869901, "locktime": 542987, "vsize": 259, "size": 422}