{"hash": "281d404a27684647f3c84d1540fade846c6266d7e88da01ed97f9203d4bce03a", "blockhash": "0000000000000000000baef3f32e3676a92c3b2e5da21b426e4f302fc371ce76", "vout": [{"scriptPubKey": {"reqSigs": 1, "hex": "76a9140f7457900db175ae216f36bbb599bcf7bac704d788ac", "addresses": ["12QiWTvhKY7tajvFnfCYq7ySP6oVdZcT4A"], "asm": "OP_DUP OP_HASH160 0f7457900db175ae216f36bbb599bcf7bac704d7 OP_EQUALVERIFY OP_CHECKSIG", "type": "pubkeyhash"}, "value": 0.026336, "n": 0}, {"scriptPubKey": {"reqSigs": 1, "hex": "a9144d293bcdc8b44f39bc0c92eb41ca5b5ef1480d4687", "addresses": ["38j1MGxv8M2EzE5QVWzavCTicpwByECqCv"], "asm": "OP_HASH160 4d293bcdc8b44f39bc0c92eb41ca5b5ef1480d46 OP_EQUAL", "type": "scripthash"}, "value": 8.62027091, "n": 1}], "hex": "02000000000101aa82d0c7f723f317abb5a519667414dad8c1548898e926f4673beec1ffdbf95d01000000171600143ff816c3a02e013cd7ea4b2c204674768da8a76dffffffff02802f2800000000001976a9140f7457900db175ae216f36bbb599bcf7bac704d788ac537d61330000000017a9144d293bcdc8b44f39bc0c92eb41ca5b5ef1480d468702473044022008d0611ab8d3a426067190da7337012e06e168be5cf31572f2ee5b1cd6ccbf490220239bce2de60f6418e12b39092040f347db08d76c52f52dca1a9a359f39cd59b101210306f6e5c3dfeb94059c2c436c189768eff8f584c499fad5bb8e2f7ab65449bdeb00000000", "vin": [{"txinwitness": ["3044022008d0611ab8d3a426067190da7337012e06e168be5cf31572f2ee5b1cd6ccbf490220239bce2de60f6418e12b39092040f347db08d76c52f52dca1a9a359f39cd59b101", "0306f6e5c3dfeb94059c2c436c189768eff8f584c499fad5bb8e2f7ab65449bdeb"], "sequence": 4294967295, "scriptSig": {"hex": "1600143ff816c3a02e013cd7ea4b2c204674768da8a76d", "asm": "00143ff816c3a02e013cd7ea4b2c204674768da8a76d"}, "vout": 1, "txid": "5df9dbffc1ee3b67f426e9988854c1d8da14746619a5b5ab17f323f7c7d082aa"}], "txid": "8fbabc1ef2018c26d9391a303aa5ac9282131df65773323828448d28d4316d97", "blocktime": 1537876114, "version": 2, "confirmations": 11459, "time": 1537876114, "locktime": 0, "vsize": 168, "size": 249}