{"hash": "0bfc242249f755cba6ec671bef2e83961260b586f69806b491b6b045d08e21bd", "blockhash": "000000000000000000022b45ed06c6f4ccd3cf7fb5ba4856ebd2e58215665228", "vout": [{"scriptPubKey": {"reqSigs": 1, "hex": "a914571ad25b46b7a3bc317cca14d12d4f5c5419032987", "addresses": ["39daqqYTP41yXBp3jSmaJ5cybgSWcmzJKs"], "asm": "OP_HASH160 571ad25b46b7a3bc317cca14d12d4f5c54190329 OP_EQUAL", "type": "scripthash"}, "value": 5.77733817, "n": 0}, {"scriptPubKey": {"reqSigs": 1, "hex": "a91435e38dcbedf856000b23da906134f3e1e5fadcee87", "addresses": ["36bxLS2wx7SNjcFQhwR7dvhUsNQL25fsfL"], "asm": "OP_HASH160 35e38dcbedf856000b23da906134f3e1e5fadcee OP_EQUAL", "type": "scripthash"}, "value": 0.01, "n": 1}], "hex": "0200000000010194ef56c6c41b50a901015e1baef9229634ee0d5f0db86e07d93dd73622462518010000001716001403ed3f69e9dc831782e2de1f7a9d1956a88903eefeffffff02b9846f220000000017a914571ad25b46b7a3bc317cca14d12d4f5c541903298740420f000000000017a91435e38dcbedf856000b23da906134f3e1e5fadcee8702473044022068ca428d3edf982df88105b1507786794948dc788b49ec6060e581a3e1b5d2a602205823b89c85ee4bfbeb63544c72e4fd9ccec67b3b74842a530901f030f7f75494012103ab421ca6f5128fdd09174ca3271fef1ac2b3e94cec9a259b72c095b9243cd03c0b490800", "vin": [{"txinwitness": ["3044022068ca428d3edf982df88105b1507786794948dc788b49ec6060e581a3e1b5d2a602205823b89c85ee4bfbeb63544c72e4fd9ccec67b3b74842a530901f030f7f7549401", "03ab421ca6f5128fdd09174ca3271fef1ac2b3e94cec9a259b72c095b9243cd03c"], "sequence": 4294967294, "scriptSig": {"hex": "16001403ed3f69e9dc831782e2de1f7a9d1956a88903ee", "asm": "001403ed3f69e9dc831782e2de1f7a9d1956a88903ee"}, "vout": 1, "txid": "1825462236d73dd9076eb80d5f0dee349622f9ae1b5e0101a9501bc4c656ef94"}], "txid": "8fbb262d67ab76e169a13909f7efe6cb04b0c3d7fb22b8a6f299c36bee0820ab", "blocktime": 1537869901, "version": 2, "confirmations": 11524, "time": 1537869901, "locktime": 542987, "vsize": 166, "size": 247}