{"hash": "8fbc66ee0a5607c5a145ee091aaf83feeef04c30888d993cc9ef7853e69d7f0a", "blockhash": "0000000000000000000e13cef7c366c0283d82e591d1acd082e914b08063cdf1", "vout": [{"scriptPubKey": {"reqSigs": 1, "hex": "76a9146da3b505175601ce3cd5bc829b261bdd21dfc8d388ac", "addresses": ["1AzimUmsBrt6Lg4xC2mkP6iSpTsaHzcLaK"], "asm": "OP_DUP OP_HASH160 6da3b505175601ce3cd5bc829b261bdd21dfc8d3 OP_EQUALVERIFY OP_CHECKSIG", "type": "pubkeyhash"}, "value": 0.000372, "n": 0}, {"scriptPubKey": {"reqSigs": 1, "hex": "76a914bce17591e323b918fbd3d941356bc53ef242470088ac", "addresses": ["1JDi8FP6GFkcGWSG3kRR9SC249Gun4X6wU"], "asm": "OP_DUP OP_HASH160 bce17591e323b918fbd3d941356bc53ef2424700 OP_EQUALVERIFY OP_CHECKSIG", "type": "pubkeyhash"}, "value": 6.727e-05, "n": 1}], "hex": "0100000001991238b6f9634f0576398934d634a15423166a5433c80d2e0431412036d9fc43010000006a47304402205aeae59793c768d123e4890a329db5090aa90209a671117265aa4f33f41b9d5f02204e0c810459372b6aa4c6a1471f656b87f5323d6e89f5ac104de655793ceb878d01210220ebd9d1bee137a8c363bf6112860fa6c57451bf8e9d44a6a9881e8f0bfc7bc0ffffffff0250910000000000001976a9146da3b505175601ce3cd5bc829b261bdd21dfc8d388ac471a0000000000001976a914bce17591e323b918fbd3d941356bc53ef242470088ac00000000", "vin": [{"sequence": 4294967295, "scriptSig": {"hex": "47304402205aeae59793c768d123e4890a329db5090aa90209a671117265aa4f33f41b9d5f02204e0c810459372b6aa4c6a1471f656b87f5323d6e89f5ac104de655793ceb878d01210220ebd9d1bee137a8c363bf6112860fa6c57451bf8e9d44a6a9881e8f0bfc7bc0", "asm": "304402205aeae59793c768d123e4890a329db5090aa90209a671117265aa4f33f41b9d5f02204e0c810459372b6aa4c6a1471f656b87f5323d6e89f5ac104de655793ceb878d[ALL] 0220ebd9d1bee137a8c363bf6112860fa6c57451bf8e9d44a6a9881e8f0bfc7bc0"}, "vout": 1, "txid": "43fcd936204131042e0dc833546a162354a134d634893976054f63f9b6381299"}], "txid": "8fbc66ee0a5607c5a145ee091aaf83feeef04c30888d993cc9ef7853e69d7f0a", "blocktime": 1537871767, "version": 1, "confirmations": 11495, "time": 1537871767, "locktime": 0, "vsize": 225, "size": 225}