{"hash": "8fc0ed97f241ce8e899c9ec6fee8e83ffe3f4bdce3091d1fa9062308b0f04a6f", "blockhash": "0000000000000000000dcc0f55137456b1a82d3642486a52398922ac4d620174", "vout": [{"scriptPubKey": {"reqSigs": 1, "hex": "76a914cc590e2710f8d3eaf5a22421b90bff0c9450c37e88ac", "addresses": ["1KdVXoaFWf1qds4zoXEeSq9C61jg6sapEp"], "asm": "OP_DUP OP_HASH160 cc590e2710f8d3eaf5a22421b90bff0c9450c37e OP_EQUALVERIFY OP_CHECKSIG", "type": "pubkeyhash"}, "value": 0.01558463, "n": 0}, {"scriptPubKey": {"reqSigs": 1, "hex": "76a914c89ad5a997bee958476b1bf7342247e2cc1273d588ac", "addresses": ["1KHhdTux9Ciom7Aa8Zsj4ZqRy8m9a7HrPH"], "asm": "OP_DUP OP_HASH160 c89ad5a997bee958476b1bf7342247e2cc1273d5 OP_EQUALVERIFY OP_CHECKSIG", "type": "pubkeyhash"}, "value": 0.1838985, "n": 1}], "hex": "01000000011dfb6d6524e01fdd163cb64dc9090ed9af5908433c0204c95228996ad2632ac5010000006a473044022048ebacfc6b55fb038054af175e63a9345d38825cd6ac13657f79a91ffc2e6e6c022039f9eed4e047338d418560d8eb624c74e2705f15bad15b3ec1e444588c4ffa34012102417b68274d30c3c1ecd21715d54124d14c5a20c7341553ab22b6eb3f4b9ba2eeffffffff02bfc71700000000001976a914cc590e2710f8d3eaf5a22421b90bff0c9450c37e88ac5a9b1801000000001976a914c89ad5a997bee958476b1bf7342247e2cc1273d588ac00000000", "vin": [{"sequence": 4294967295, "scriptSig": {"hex": "473044022048ebacfc6b55fb038054af175e63a9345d38825cd6ac13657f79a91ffc2e6e6c022039f9eed4e047338d418560d8eb624c74e2705f15bad15b3ec1e444588c4ffa34012102417b68274d30c3c1ecd21715d54124d14c5a20c7341553ab22b6eb3f4b9ba2ee", "asm": "3044022048ebacfc6b55fb038054af175e63a9345d38825cd6ac13657f79a91ffc2e6e6c022039f9eed4e047338d418560d8eb624c74e2705f15bad15b3ec1e444588c4ffa34[ALL] 02417b68274d30c3c1ecd21715d54124d14c5a20c7341553ab22b6eb3f4b9ba2ee"}, "vout": 1, "txid": "c52a63d26a992852c904023c430859afd90e09c94db63c16dd1fe024656dfb1d"}], "txid": "8fc0ed97f241ce8e899c9ec6fee8e83ffe3f4bdce3091d1fa9062308b0f04a6f", "blocktime": 1537870268, "version": 1, "confirmations": 11516, "time": 1537870268, "locktime": 0, "vsize": 225, "size": 225}