{"hash": "f19a516fa08e37655bc660930574c76c9c49841caa2d986d0cdbcdbdaa582583", "blockhash": "00000000000000000004ffacab907a6b429b9a5745fa0b75af4234bf69dd7176", "vout": [{"scriptPubKey": {"reqSigs": 1, "hex": "76a914ca07f16a23eff89cb00526721f5d31af7fd7944288ac", "addresses": ["1KRF1eAqN5oYsMkY1VgA3qPwSnsnhvGo2y"], "asm": "OP_DUP OP_HASH160 ca07f16a23eff89cb00526721f5d31af7fd79442 OP_EQUALVERIFY OP_CHECKSIG", "type": "pubkeyhash"}, "value": 0.00186711, "n": 0}, {"scriptPubKey": {"reqSigs": 1, "hex": "a914a890363e788e4413e792e767d4e353ce9ccdda8987", "addresses": ["3H4JCnimZK6CNwxHnfeZHZzm9TBaGUTXYD"], "asm": "OP_HASH160 a890363e788e4413e792e767d4e353ce9ccdda89 OP_EQUAL", "type": "scripthash"}, "value": 0.0044821, "n": 1}], "hex": "01000000000101401b1117fbfdfd9e91355fa786f83f3593d05cab72bfc7ab2f9270f89d4d66f301000000232200206cb0fac92b5c36556dfbbc198a66ba073d511810b811a3ef7f4fe89e6cd4a2bfffffffff0257d90200000000001976a914ca07f16a23eff89cb00526721f5d31af7fd7944288acd2d606000000000017a914a890363e788e4413e792e767d4e353ce9ccdda89870400483045022100ab6e6467d59620513055c58d527134f2a10aaf9a2da30789607645389bc409c902204b378a67c5e5957c980c127d610863942e1bf791eb53d67870ee197cc9d1fef4014830450221009ccedeb3781252da8ce20dfc5c170b329b7cf1d5d20e1f63a65d2dfbf7799b58022016cdec5b4315643fd435a0b6b475fa4520d51d07409ace3ee7ab75d7e784bdf601695221021faed9b375420f4e82551e08cddab4b4617b70f41c071d68fb37dccdda4c445b2103cd68717d071c44eb5f8b0540ee5d170f7c74b7e744ff0b8e196649da3ef8a9e92103e40e3326188f494e6b7615834a58bb4f54010a0a9b9ba9b7723bf701b6cac60353ae00000000", "vin": [{"txinwitness": ["", "3045022100ab6e6467d59620513055c58d527134f2a10aaf9a2da30789607645389bc409c902204b378a67c5e5957c980c127d610863942e1bf791eb53d67870ee197cc9d1fef401", "30450221009ccedeb3781252da8ce20dfc5c170b329b7cf1d5d20e1f63a65d2dfbf7799b58022016cdec5b4315643fd435a0b6b475fa4520d51d07409ace3ee7ab75d7e784bdf601", "5221021faed9b375420f4e82551e08cddab4b4617b70f41c071d68fb37dccdda4c445b2103cd68717d071c44eb5f8b0540ee5d170f7c74b7e744ff0b8e196649da3ef8a9e92103e40e3326188f494e6b7615834a58bb4f54010a0a9b9ba9b7723bf701b6cac60353ae"], "sequence": 4294967295, "scriptSig": {"hex": "2200206cb0fac92b5c36556dfbbc198a66ba073d511810b811a3ef7f4fe89e6cd4a2bf", "asm": "00206cb0fac92b5c36556dfbbc198a66ba073d511810b811a3ef7f4fe89e6cd4a2bf"}, "vout": 1, "txid": "f3664d9df870922fabc7bf72ab5cd093353ff886a75f35919efdfdfb17111b40"}], "txid": "8fc2d85418116ad96281e062971137495705629ce1ffd4fdaafb52a666ad7ff8", "blocktime": 1537875543, "version": 1, "confirmations": 11464, "time": 1537875543, "locktime": 0, "vsize": 216, "size": 408}