{"hash": "8fc655ab8831935c4c7a28bae5f6521a172a21d145457a786f7593338440a488", "blockhash": "0000000000000000001f76057863aec43deb6fa401d9628bb513d65a8098bfab", "vout": [{"scriptPubKey": {"reqSigs": 1, "hex": "a914092b1803d5d7d851511d2e8e59d4b681243d355987", "addresses": ["32XVdUpmx4AjECPtyXQZjLUrv9jg59Q54z"], "asm": "OP_HASH160 092b1803d5d7d851511d2e8e59d4b681243d3559 OP_EQUAL", "type": "scripthash"}, "value": 0.01923, "n": 0}, {"scriptPubKey": {"reqSigs": 1, "hex": "76a9149b6f673a017989797c87526733be8d6b8428578c88ac", "addresses": ["1FAsCAcbeWzfTuy8dyQQ2MhiUgYAGgQiRB"], "asm": "OP_DUP OP_HASH160 9b6f673a017989797c87526733be8d6b8428578c OP_EQUALVERIFY OP_CHECKSIG", "type": "pubkeyhash"}, "value": 0.01358122, "n": 1}], "hex": "010000000198b4b46f583f2c26465905193b2ca57652cd0974549e0ba7fec615922bca80b3000000006a4730440220086df422c6cf855335116e4bddcc43dde11ccf3eb3b7cb031efea1260e9eac450220107229bf47ca04fce73e84080e0842717a86059bfc3f3654b663bdf356cb4cea012102961b6831c6d85087a80566cfd018c126e444c35e34b5f5dc95e2e7c59f33dc33ffffffff02b8571d000000000017a914092b1803d5d7d851511d2e8e59d4b681243d3559872ab91400000000001976a9149b6f673a017989797c87526733be8d6b8428578c88ac00000000", "vin": [{"sequence": 4294967295, "scriptSig": {"hex": "4730440220086df422c6cf855335116e4bddcc43dde11ccf3eb3b7cb031efea1260e9eac450220107229bf47ca04fce73e84080e0842717a86059bfc3f3654b663bdf356cb4cea012102961b6831c6d85087a80566cfd018c126e444c35e34b5f5dc95e2e7c59f33dc33", "asm": "30440220086df422c6cf855335116e4bddcc43dde11ccf3eb3b7cb031efea1260e9eac450220107229bf47ca04fce73e84080e0842717a86059bfc3f3654b663bdf356cb4cea[ALL] 02961b6831c6d85087a80566cfd018c126e444c35e34b5f5dc95e2e7c59f33dc33"}, "vout": 0, "txid": "b380ca2b9215c6fea70b9e547409cd5276a52c3b19055946262c3f586fb4b498"}], "txid": "8fc655ab8831935c4c7a28bae5f6521a172a21d145457a786f7593338440a488", "blocktime": 1537873891, "version": 1, "confirmations": 11479, "time": 1537873891, "locktime": 0, "vsize": 223, "size": 223}