{"hash": "8c15edee944eba0d966a47231701c8e584226c1a99701d7abbc9dbf0730487b9", "blockhash": "0000000000000000001e0dab787dd257d1dbfcb92a98c2207d5e1078be1f4165", "vout": [{"scriptPubKey": {"reqSigs": 1, "hex": "76a91470a6b9458895128a0f08845f7d15c75a78df777488ac", "addresses": ["1BGeQepDHFbrvBFRgTUSRZo6cJkY5xgik9"], "asm": "OP_DUP OP_HASH160 70a6b9458895128a0f08845f7d15c75a78df7774 OP_EQUALVERIFY OP_CHECKSIG", "type": "pubkeyhash"}, "value": 0.01478373, "n": 0}, {"scriptPubKey": {"reqSigs": 1, "hex": "00148b7d0ab84f564dd461635a64f9dcca5610a37777", "addresses": ["bc1q3d7s4wz02exagctrtfj0nhx22cg2xamheeezf2"], "asm": "0 8b7d0ab84f564dd461635a64f9dcca5610a37777", "type": "witness_v0_keyhash"}, "value": 0.000473, "n": 1}], "hex": "01000000000101e806b2b04128f7ab62020541136776aa77d6c6395ad355927c5935d1cd3962410100000000ffffffff02e58e1600000000001976a91470a6b9458895128a0f08845f7d15c75a78df777488acc4b80000000000001600148b7d0ab84f564dd461635a64f9dcca5610a377770247304402206ee775887c09d40701714de510dee80f4a0606155c76ffbee595a175a45fc29702200dfe9b02cf7db447147b59c6bbc78c6d319f18ea455d5553df7024c6c12d4d300121020ff80216a82d77ccbeeaa7b4f226533aec15f572d12eb1ae488c2507a018f03100000000", "vin": [{"txinwitness": ["304402206ee775887c09d40701714de510dee80f4a0606155c76ffbee595a175a45fc29702200dfe9b02cf7db447147b59c6bbc78c6d319f18ea455d5553df7024c6c12d4d3001", "020ff80216a82d77ccbeeaa7b4f226533aec15f572d12eb1ae488c2507a018f031"], "sequence": 4294967295, "scriptSig": {"hex": "", "asm": ""}, "vout": 1, "txid": "416239cdd135597c9255d35a39c6d677aa76671341050262abf72841b0b206e8"}], "txid": "8fc6674f0a77bc38383eff90e5e0cc7807415eb4bc87c446bf6dbed0b4a62b5a", "blocktime": 1537872475, "version": 1, "confirmations": 11487, "time": 1537872475, "locktime": 0, "vsize": 144, "size": 225}