{"hash": "7de931373f5dbc028fb7161ac4440d5c46bb14c8549bdfe6b62dadfdc82b4670", "blockhash": "0000000000000000001f0ddff1eddb255c1121bcd4da4f1bc9a0da00cae72433", "vout": [{"scriptPubKey": {"reqSigs": 1, "hex": "76a914f1150e0ad0d5d0e5f20803f9b9d10b35d5695f2488ac", "addresses": ["1Nyj59aeJJqY5CbBM5B741Xx3HUPwFh39m"], "asm": "OP_DUP OP_HASH160 f1150e0ad0d5d0e5f20803f9b9d10b35d5695f24 OP_EQUALVERIFY OP_CHECKSIG", "type": "pubkeyhash"}, "value": 4.227e-05, "n": 0}, {"scriptPubKey": {"reqSigs": 1, "hex": "a914d303b012fd5bace55c9e1eecd8544fa009e066ec87", "addresses": ["3LvkvFaJnbgHkBLLALpbmpCoqhxjnChTS6"], "asm": "OP_HASH160 d303b012fd5bace55c9e1eecd8544fa009e066ec OP_EQUAL", "type": "scripthash"}, "value": 0.00964553, "n": 1}], "hex": "010000000001013c07ec3f6685253d58b23e02284c92f3d5f6b2adf37d93dbc6728c4cb136316e01000000232200205d6499f7200492ec9507ce8f2964f6bc783b27e872ac6ff833364b07b881828cffffffff0283100000000000001976a914f1150e0ad0d5d0e5f20803f9b9d10b35d5695f2488acc9b70e000000000017a914d303b012fd5bace55c9e1eecd8544fa009e066ec870400483045022100f5b55e1a93b1ce881aa10c1ee1b30dda3683f12cba4bc4c9ad014e49281304090220378633466c1af933934e468c0111e4e287d3ece3936bcc54d2ff5253c70e401d01483045022100a4588e9b65b52a7facf8b006f4c07fd26a6a2ee6bb008f1f140dee93d8be06b402207ba18107d41dd741e3a02dd3acfd58226bf5a150c87442137f9d770812afcaea0147522102e4c6107243fb30e2c7b68867cb2ba9b88f255fd888815db5b6b304be2776f30b2103338f346cab6ba87fe940591a03ac234be06520c5ab386d4b6632e8eef0d0db7652ae00000000", "vin": [{"txinwitness": ["", "3045022100f5b55e1a93b1ce881aa10c1ee1b30dda3683f12cba4bc4c9ad014e49281304090220378633466c1af933934e468c0111e4e287d3ece3936bcc54d2ff5253c70e401d01", "3045022100a4588e9b65b52a7facf8b006f4c07fd26a6a2ee6bb008f1f140dee93d8be06b402207ba18107d41dd741e3a02dd3acfd58226bf5a150c87442137f9d770812afcaea01", "522102e4c6107243fb30e2c7b68867cb2ba9b88f255fd888815db5b6b304be2776f30b2103338f346cab6ba87fe940591a03ac234be06520c5ab386d4b6632e8eef0d0db7652ae"], "sequence": 4294967295, "scriptSig": {"hex": "2200205d6499f7200492ec9507ce8f2964f6bc783b27e872ac6ff833364b07b881828c", "asm": "00205d6499f7200492ec9507ce8f2964f6bc783b27e872ac6ff833364b07b881828c"}, "vout": 1, "txid": "6e3136b14c8c72c6db937df3adb2f6d5f3924c28023eb2583d2585663fec073c"}], "txid": "8fcc15fa57ce1acf8e42dd78bcfa9086b3d4ef15e477d70563ef39bde6ce6428", "blocktime": 1537872018, "version": 1, "confirmations": 11489, "time": 1537872018, "locktime": 0, "vsize": 208, "size": 374}