{"hash": "8fcc44c9bb10fef10204fb7d82f42bf8e6ff8e52cde399b82c5e7fbdaf439371", "blockhash": "0000000000000000001cda96e906b7601b7a6fb1a3b62bca570a9e5d8f4b3de1", "vout": [{"scriptPubKey": {"reqSigs": 1, "hex": "76a914e0ea21310818377d450067075f268ef22668d72488ac", "addresses": ["1MWEqarD1NyRRjdLpHY7SPDB7EbXHEdwW6"], "asm": "OP_DUP OP_HASH160 e0ea21310818377d450067075f268ef22668d724 OP_EQUALVERIFY OP_CHECKSIG", "type": "pubkeyhash"}, "value": 0.00255558, "n": 0}, {"scriptPubKey": {"reqSigs": 1, "hex": "76a91432ad1c6e7ef573b05159738186de7ae55ee3a6ad88ac", "addresses": ["15cxAZRAHG7mC5HJQbLLgUcMQxxtYuW3rm"], "asm": "OP_DUP OP_HASH160 32ad1c6e7ef573b05159738186de7ae55ee3a6ad OP_EQUALVERIFY OP_CHECKSIG", "type": "pubkeyhash"}, "value": 0.031216, "n": 1}], "hex": "010000000592f9c574a5c5163afb95f9a9493d897c7bbd0f7697f012c31b273663511f7a22700900006b483045022100fa87317413801fdf7b8f03c23d5181227d7f3662b035bb081b8978c467c91b45022047f23a713036945de8326fb9a5e8afc243dd4b0123738b3f550f0d8cbdea2fc4012103598bd9e6ad01ab1139ec379cb0e5d97c62231e5852da01830aa679c2fd5dc105ffffffff661fe0968bc631a139482d720a6a241b76c063b7041e7eacbc920c8c9d0caa456a0b00006a4730440220208c9cb8cee452add22e6d11db3feab9717d0db2709efe877a1777e8f4cd340b02200e474bce332f1d735bba244f3e4acc8edfa33510da7018b55dc957024d2c09e4012103598bd9e6ad01ab1139ec379cb0e5d97c62231e5852da01830aa679c2fd5dc105ffffffff93c8b75ae3ef0db895cfee520c452f5a04a866d1dd31e09b4c70c854dba7306eee0a00006a47304402204b86c978177bb9b0a68464e78b1d368cc8a10afbcc08378af6af288e08cecf89022059043c6ec6b0bdb70e4b41547a30723a5096fa8fb13555866d28acf75bfe1755012103598bd9e6ad01ab1139ec379cb0e5d97c62231e5852da01830aa679c2fd5dc105ffffffff60d7bcd4391d1fdb48c1a080b7ce500c63182bab8c8c7c1ef205c5eefd483991fb0900006b4830450221009e62924815c1d9b335bdfbf55d0a56bf18c30d002bc398e8229301a06abecf2e02205286c2d70a27a3280edb04f38170456e8ce02372ad783b5e98d3d60704a61dcb012103598bd9e6ad01ab1139ec379cb0e5d97c62231e5852da01830aa679c2fd5dc105ffffffff6da7126725a5eb8b1c46ae7b0907e9cd633511a4d03edd7e6a735382632615bfea0f00006a473044022071c233846182ab47a2c250f7817539b1a7a8d81f59b487129cada248d30d9eb502205d6487afc1542684ce291361e753ebbbc45ec9d3a9c6651a163002df793331ae012103598bd9e6ad01ab1139ec379cb0e5d97c62231e5852da01830aa679c2fd5dc105ffffffff0246e60300000000001976a914e0ea21310818377d450067075f268ef22668d72488acc0a12f00000000001976a91432ad1c6e7ef573b05159738186de7ae55ee3a6ad88ac00000000", "vin": [{"sequence": 4294967295, "scriptSig": {"hex": "483045022100fa87317413801fdf7b8f03c23d5181227d7f3662b035bb081b8978c467c91b45022047f23a713036945de8326fb9a5e8afc243dd4b0123738b3f550f0d8cbdea2fc4012103598bd9e6ad01ab1139ec379cb0e5d97c62231e5852da01830aa679c2fd5dc105", "asm": "3045022100fa87317413801fdf7b8f03c23d5181227d7f3662b035bb081b8978c467c91b45022047f23a713036945de8326fb9a5e8afc243dd4b0123738b3f550f0d8cbdea2fc4[ALL] 03598bd9e6ad01ab1139ec379cb0e5d97c62231e5852da01830aa679c2fd5dc105"}, "vout": 2416, "txid": "227a1f516336271bc312f097760fbd7b7c893d49a9f995fb3a16c5a574c5f992"}, {"sequence": 4294967295, "scriptSig": {"hex": "4730440220208c9cb8cee452add22e6d11db3feab9717d0db2709efe877a1777e8f4cd340b02200e474bce332f1d735bba244f3e4acc8edfa33510da7018b55dc957024d2c09e4012103598bd9e6ad01ab1139ec379cb0e5d97c62231e5852da01830aa679c2fd5dc105", "asm": "30440220208c9cb8cee452add22e6d11db3feab9717d0db2709efe877a1777e8f4cd340b02200e474bce332f1d735bba244f3e4acc8edfa33510da7018b55dc957024d2c09e4[ALL] 03598bd9e6ad01ab1139ec379cb0e5d97c62231e5852da01830aa679c2fd5dc105"}, "vout": 2922, "txid": "45aa0c9d8c0c92bcac7e1e04b763c0761b246a0a722d4839a131c68b96e01f66"}, {"sequence": 4294967295, "scriptSig": {"hex": "47304402204b86c978177bb9b0a68464e78b1d368cc8a10afbcc08378af6af288e08cecf89022059043c6ec6b0bdb70e4b41547a30723a5096fa8fb13555866d28acf75bfe1755012103598bd9e6ad01ab1139ec379cb0e5d97c62231e5852da01830aa679c2fd5dc105", "asm": "304402204b86c978177bb9b0a68464e78b1d368cc8a10afbcc08378af6af288e08cecf89022059043c6ec6b0bdb70e4b41547a30723a5096fa8fb13555866d28acf75bfe1755[ALL] 03598bd9e6ad01ab1139ec379cb0e5d97c62231e5852da01830aa679c2fd5dc105"}, "vout": 2798, "txid": "6e30a7db54c8704c9be031ddd166a8045a2f450c52eecf95b80defe35ab7c893"}, {"sequence": 4294967295, "scriptSig": {"hex": "4830450221009e62924815c1d9b335bdfbf55d0a56bf18c30d002bc398e8229301a06abecf2e02205286c2d70a27a3280edb04f38170456e8ce02372ad783b5e98d3d60704a61dcb012103598bd9e6ad01ab1139ec379cb0e5d97c62231e5852da01830aa679c2fd5dc105", "asm": "30450221009e62924815c1d9b335bdfbf55d0a56bf18c30d002bc398e8229301a06abecf2e02205286c2d70a27a3280edb04f38170456e8ce02372ad783b5e98d3d60704a61dcb[ALL] 03598bd9e6ad01ab1139ec379cb0e5d97c62231e5852da01830aa679c2fd5dc105"}, "vout": 2555, "txid": "913948fdeec505f21e7c8c8cab2b18630c50ceb780a0c148db1f1d39d4bcd760"}, {"sequence": 4294967295, "scriptSig": {"hex": "473044022071c233846182ab47a2c250f7817539b1a7a8d81f59b487129cada248d30d9eb502205d6487afc1542684ce291361e753ebbbc45ec9d3a9c6651a163002df793331ae012103598bd9e6ad01ab1139ec379cb0e5d97c62231e5852da01830aa679c2fd5dc105", "asm": "3044022071c233846182ab47a2c250f7817539b1a7a8d81f59b487129cada248d30d9eb502205d6487afc1542684ce291361e753ebbbc45ec9d3a9c6651a163002df793331ae[ALL] 03598bd9e6ad01ab1139ec379cb0e5d97c62231e5852da01830aa679c2fd5dc105"}, "vout": 4074, "txid": "bf1526638253736a7edd3ed0a4113563cde907097bae461c8beba5256712a76d"}], "txid": "8fcc44c9bb10fef10204fb7d82f42bf8e6ff8e52cde399b82c5e7fbdaf439371", "blocktime": 1537873282, "version": 1, "confirmations": 11484, "time": 1537873282, "locktime": 0, "vsize": 815, "size": 815}