{"hash": "8fced5211e45e37eb449b48611f8cf81719cf1c9f79f34e219ee0ce26b8cff9a", "blockhash": "00000000000000000018f53835495a110e01622372bf6ae95dc86f2b0ab887b0", "vout": [{"scriptPubKey": {"reqSigs": 1, "hex": "a9147e5fd15d81339080dc436af65397a35ee5989cdd87", "addresses": ["3DDDrFhBHcZpUsxWfny6T5pDBLKXXwaZJ7"], "asm": "OP_HASH160 7e5fd15d81339080dc436af65397a35ee5989cdd OP_EQUAL", "type": "scripthash"}, "value": 0.0025686, "n": 0}, {"scriptPubKey": {"reqSigs": 1, "hex": "76a9141edf9e246441ddaa633ffe38f9cbb7c88b29ca8f88ac", "addresses": ["13pF9zJrt9aa6CVV7bSsEMDhM1ruqYY3jk"], "asm": "OP_DUP OP_HASH160 1edf9e246441ddaa633ffe38f9cbb7c88b29ca8f OP_EQUALVERIFY OP_CHECKSIG", "type": "pubkeyhash"}, "value": 0.03239735, "n": 1}], "hex": "0100000001ff415718a56fdb140aa6245574bdac7bf12e7c37ec8d9cb18bff675fe5e54644010000006b483045022100c65d39f1bc7e29ad5b4b14e0997e04f0c1329f8d52eef54990d6385fd2e5a29b0220222d6c3bda6705f5eba73c3f02c0c878553f43c990b83daa223c744a2ed70ce6012102ab2db0eb01b1355bef56d6c89a3dd5edc3ba9b6b83c0953369dfedfdd1c987e0fdffffff025ceb03000000000017a9147e5fd15d81339080dc436af65397a35ee5989cdd87376f3100000000001976a9141edf9e246441ddaa633ffe38f9cbb7c88b29ca8f88ac0e490800", "vin": [{"sequence": 4294967293, "scriptSig": {"hex": "483045022100c65d39f1bc7e29ad5b4b14e0997e04f0c1329f8d52eef54990d6385fd2e5a29b0220222d6c3bda6705f5eba73c3f02c0c878553f43c990b83daa223c744a2ed70ce6012102ab2db0eb01b1355bef56d6c89a3dd5edc3ba9b6b83c0953369dfedfdd1c987e0", "asm": "3045022100c65d39f1bc7e29ad5b4b14e0997e04f0c1329f8d52eef54990d6385fd2e5a29b0220222d6c3bda6705f5eba73c3f02c0c878553f43c990b83daa223c744a2ed70ce6[ALL] 02ab2db0eb01b1355bef56d6c89a3dd5edc3ba9b6b83c0953369dfedfdd1c987e0"}, "vout": 1, "txid": "4446e5e55f67ff8bb19c8dec377c2ef17bacbd745524a60a14db6fa5185741ff"}], "txid": "8fced5211e45e37eb449b48611f8cf81719cf1c9f79f34e219ee0ce26b8cff9a", "blocktime": 1537870928, "version": 1, "confirmations": 11512, "time": 1537870928, "locktime": 542990, "vsize": 224, "size": 224}