{"hash": "8fd3b5a00e7c1bb56e72b9730454ba6b8955ba531069a8e579d292f733730eda", "blockhash": "00000000000000000018f53835495a110e01622372bf6ae95dc86f2b0ab887b0", "vout": [{"scriptPubKey": {"reqSigs": 1, "hex": "a914972b4fa48cc59ab501357cc4370d6729213e92a587", "addresses": ["3FUKqpRX88Ks2Z3b8ywpVzCk4Gmx9vuYxr"], "asm": "OP_HASH160 972b4fa48cc59ab501357cc4370d6729213e92a5 OP_EQUAL", "type": "scripthash"}, "value": 0.01016291, "n": 0}, {"scriptPubKey": {"reqSigs": 1, "hex": "a9146f1858283967d2a0b05e5a66c4be46933d7cf57487", "addresses": ["3BpS6K77bmTsBhG8Scpeahmgw6uWUXZCNN"], "asm": "OP_HASH160 6f1858283967d2a0b05e5a66c4be46933d7cf574 OP_EQUAL", "type": "scripthash"}, "value": 0.00539031, "n": 1}, {"scriptPubKey": {"reqSigs": 1, "hex": "76a91425b49018b8db4800dfb9648dd7a04336480756db88ac", "addresses": ["14SNJpvw2tcQ98EN6i4zP1RWYWxr5ESUmS"], "asm": "OP_DUP OP_HASH160 25b49018b8db4800dfb9648dd7a04336480756db OP_EQUALVERIFY OP_CHECKSIG", "type": "pubkeyhash"}, "value": 9.24e-05, "n": 2}], "hex": "010000000234cb1ba43338b86cb6a3167f7056efa7feab930409c22633f967eae5beb2d7b92b000000db0048304502210091c3b9922282f7557ff07535b0c6491214aa8d490a2f44a9526f30de9141b5b002200e635282d3a73d106f92b0fa213de74362ad9799f121ef7f5f51d2dbbaadb50b014830450221009bc26d336011267ca0d0bda2980bba9539e95d9f2eb43a8f69dad50e1fa674c6022011d5d027e280bb092cfc986ced01db9c4161d8ce69e56daee17eae43302dc74c0147522102907a54bed8ad74b3f35638c60114ca240a308cb986f3f2f306178869a8880b6121037d6c0dbba52955d924cdab93145f108864df48530729d53fa94d680ec25f1e8d52aeffffffffffbcd9f411195f16593b3a05bbac6607623d395cbba0461db9112c1c752cbc2b020000006a47304402203f8b00ad4783cdf42b25e39be6aec4e060c3a0d9763e62e115fac14d036279de022037be056f9cfaf22af2698d4526bfd80762ee180a347a3271545fb9f9c18c163b0121031acba93c40e3b21aebaf1dc9c5b71c66de1353b355515a9da1b32a489d14e081ffffffff03e3810f000000000017a914972b4fa48cc59ab501357cc4370d6729213e92a587973908000000000017a9146f1858283967d2a0b05e5a66c4be46933d7cf5748718240000000000001976a91425b49018b8db4800dfb9648dd7a04336480756db88ac00000000", "vin": [{"sequence": 4294967295, "scriptSig": {"hex": "0048304502210091c3b9922282f7557ff07535b0c6491214aa8d490a2f44a9526f30de9141b5b002200e635282d3a73d106f92b0fa213de74362ad9799f121ef7f5f51d2dbbaadb50b014830450221009bc26d336011267ca0d0bda2980bba9539e95d9f2eb43a8f69dad50e1fa674c6022011d5d027e280bb092cfc986ced01db9c4161d8ce69e56daee17eae43302dc74c0147522102907a54bed8ad74b3f35638c60114ca240a308cb986f3f2f306178869a8880b6121037d6c0dbba52955d924cdab93145f108864df48530729d53fa94d680ec25f1e8d52ae", "asm": "0 304502210091c3b9922282f7557ff07535b0c6491214aa8d490a2f44a9526f30de9141b5b002200e635282d3a73d106f92b0fa213de74362ad9799f121ef7f5f51d2dbbaadb50b[ALL] 30450221009bc26d336011267ca0d0bda2980bba9539e95d9f2eb43a8f69dad50e1fa674c6022011d5d027e280bb092cfc986ced01db9c4161d8ce69e56daee17eae43302dc74c[ALL] 522102907a54bed8ad74b3f35638c60114ca240a308cb986f3f2f306178869a8880b6121037d6c0dbba52955d924cdab93145f108864df48530729d53fa94d680ec25f1e8d52ae"}, "vout": 43, "txid": "b9d7b2bee5ea67f93326c2090493abfea7ef56707f16a3b66cb83833a41bcb34"}, {"sequence": 4294967295, "scriptSig": {"hex": "47304402203f8b00ad4783cdf42b25e39be6aec4e060c3a0d9763e62e115fac14d036279de022037be056f9cfaf22af2698d4526bfd80762ee180a347a3271545fb9f9c18c163b0121031acba93c40e3b21aebaf1dc9c5b71c66de1353b355515a9da1b32a489d14e081", "asm": "304402203f8b00ad4783cdf42b25e39be6aec4e060c3a0d9763e62e115fac14d036279de022037be056f9cfaf22af2698d4526bfd80762ee180a347a3271545fb9f9c18c163b[ALL] 031acba93c40e3b21aebaf1dc9c5b71c66de1353b355515a9da1b32a489d14e081"}, "vout": 2, "txid": "2bbc2c751c2c11b91d46a0bb5c393d620766acbb053a3b59165f1911f4d9bcff"}], "txid": "8fd3b5a00e7c1bb56e72b9730454ba6b8955ba531069a8e579d292f733730eda", "blocktime": 1537870928, "version": 1, "confirmations": 11512, "time": 1537870928, "locktime": 0, "vsize": 515, "size": 515}