{"hash": "8fd47f421241518f5e52b4219929ddd74c2755084bc5f9df58e6aa25d695ace4", "blockhash": "0000000000000000000baef3f32e3676a92c3b2e5da21b426e4f302fc371ce76", "vout": [{"scriptPubKey": {"reqSigs": 1, "hex": "76a9149b7b66b364469e244b07d7886a63a08a44f137d588ac", "addresses": ["1FB7ZoGJnj9bXUMmkQxMQiaMzHPy2fd5oa"], "asm": "OP_DUP OP_HASH160 9b7b66b364469e244b07d7886a63a08a44f137d5 OP_EQUALVERIFY OP_CHECKSIG", "type": "pubkeyhash"}, "value": 0.00305984, "n": 0}, {"scriptPubKey": {"reqSigs": 1, "hex": "76a914b6363358942088db54e4f7a444e885431980515e88ac", "addresses": ["1HcSuqRDfrDQeWddSMBvGckKFpqfGrBdRJ"], "asm": "OP_DUP OP_HASH160 b6363358942088db54e4f7a444e885431980515e OP_EQUALVERIFY OP_CHECKSIG", "type": "pubkeyhash"}, "value": 0.00616016, "n": 1}], "hex": "0100000001a355a522577fc3e38843410b63391832569b113cfdf11b3dba0c46f05e2863a6010000006b483045022100e4cc57f4df8250bfc239b13b5fe712a0237b305f8546212e736d3b3b5ec5632602202d4caddcac59f23413ce62fa5a6b6f9d8beb0fb2b0e4958a5165d7ab83d0d178012102c8e4652ef2a570d16d8ede3f86c7e9e2104159e9f917f5dabd0e3d53c0432a0effffffff0240ab0400000000001976a9149b7b66b364469e244b07d7886a63a08a44f137d588ac50660900000000001976a914b6363358942088db54e4f7a444e885431980515e88ac00000000", "vin": [{"sequence": 4294967295, "scriptSig": {"hex": "483045022100e4cc57f4df8250bfc239b13b5fe712a0237b305f8546212e736d3b3b5ec5632602202d4caddcac59f23413ce62fa5a6b6f9d8beb0fb2b0e4958a5165d7ab83d0d178012102c8e4652ef2a570d16d8ede3f86c7e9e2104159e9f917f5dabd0e3d53c0432a0e", "asm": "3045022100e4cc57f4df8250bfc239b13b5fe712a0237b305f8546212e736d3b3b5ec5632602202d4caddcac59f23413ce62fa5a6b6f9d8beb0fb2b0e4958a5165d7ab83d0d178[ALL] 02c8e4652ef2a570d16d8ede3f86c7e9e2104159e9f917f5dabd0e3d53c0432a0e"}, "vout": 1, "txid": "a663285ef0460cba3d1bf1fd3c119b56321839630b414388e3c37f5722a555a3"}], "txid": "8fd47f421241518f5e52b4219929ddd74c2755084bc5f9df58e6aa25d695ace4", "blocktime": 1537876114, "version": 1, "confirmations": 11460, "time": 1537876114, "locktime": 0, "vsize": 226, "size": 226}