{"hash": "8fd557d36cdf0c775d69e27ec83177283675b372406757d85f685529cc6e9aff", "blockhash": "00000000000000000004ffacab907a6b429b9a5745fa0b75af4234bf69dd7176", "vout": [{"scriptPubKey": {"reqSigs": 1, "hex": "76a9141c38c2808af59318b1699e0bcd2710bb7aee9b2e88ac", "addresses": ["13aDv7MJ6s2fe4kHKSDru7st19iXMf3sYw"], "asm": "OP_DUP OP_HASH160 1c38c2808af59318b1699e0bcd2710bb7aee9b2e OP_EQUALVERIFY OP_CHECKSIG", "type": "pubkeyhash"}, "value": 0.00145, "n": 0}, {"scriptPubKey": {"reqSigs": 1, "hex": "76a9146f9c5b040df12619caa1d060af32be5dfc2d5c4a88ac", "addresses": ["1BB9K4pgbLbo7mJzjQQPbfwNEQKiuTT54W"], "asm": "OP_DUP OP_HASH160 6f9c5b040df12619caa1d060af32be5dfc2d5c4a OP_EQUALVERIFY OP_CHECKSIG", "type": "pubkeyhash"}, "value": 0.01000254, "n": 1}], "hex": "01000000017e1e5263346f4d8f647ede261446e7ce81ff6ba12cce71232969ce524ccca58f010000006a4730440220752c7d30b52fd81d9f3ccdc3d3f3492c4630792f8ed634f596b1dc43fc999dd002205f097867252fb0d9c9c4766b5b5bfb6c45bc1a74f1447d508715fdb524948c5e012102a9712f269058e37fb3af3a22e4eb96333b9b94b78bbad2f4f976e072c1cd2ce8ffffffff0268360200000000001976a9141c38c2808af59318b1699e0bcd2710bb7aee9b2e88ac3e430f00000000001976a9146f9c5b040df12619caa1d060af32be5dfc2d5c4a88ac00000000", "vin": [{"sequence": 4294967295, "scriptSig": {"hex": "4730440220752c7d30b52fd81d9f3ccdc3d3f3492c4630792f8ed634f596b1dc43fc999dd002205f097867252fb0d9c9c4766b5b5bfb6c45bc1a74f1447d508715fdb524948c5e012102a9712f269058e37fb3af3a22e4eb96333b9b94b78bbad2f4f976e072c1cd2ce8", "asm": "30440220752c7d30b52fd81d9f3ccdc3d3f3492c4630792f8ed634f596b1dc43fc999dd002205f097867252fb0d9c9c4766b5b5bfb6c45bc1a74f1447d508715fdb524948c5e[ALL] 02a9712f269058e37fb3af3a22e4eb96333b9b94b78bbad2f4f976e072c1cd2ce8"}, "vout": 1, "txid": "8fa5cc4c52ce69292371ce2ca16bff81cee7461426de7e648f4d6f3463521e7e"}], "txid": "8fd557d36cdf0c775d69e27ec83177283675b372406757d85f685529cc6e9aff", "blocktime": 1537875543, "version": 1, "confirmations": 11464, "time": 1537875543, "locktime": 0, "vsize": 225, "size": 225}