{"hash": "8fddf8be738b2eac7beeb7a8e210e8f4c5dd0ffff3df05dafb5a1d952abf07ff", "blockhash": "000000000000000000022b45ed06c6f4ccd3cf7fb5ba4856ebd2e58215665228", "vout": [{"scriptPubKey": {"reqSigs": 1, "hex": "76a9142f50cb56ec0729faf50df5781bb1673c731ee3bf88ac", "addresses": ["15KBYhikWAJATqYMQbfozZPA9uhDmt828q"], "asm": "OP_DUP OP_HASH160 2f50cb56ec0729faf50df5781bb1673c731ee3bf OP_EQUALVERIFY OP_CHECKSIG", "type": "pubkeyhash"}, "value": 1.97467838, "n": 0}, {"scriptPubKey": {"reqSigs": 1, "hex": "a914de422b5c39e1a51dd77dadb64ff8faad1b2536e487", "addresses": ["3MxDCfAy8MgLhQ3ZHnSqXjNZbU5DdBaA9M"], "asm": "OP_HASH160 de422b5c39e1a51dd77dadb64ff8faad1b2536e4 OP_EQUAL", "type": "scripthash"}, "value": 0.01579779, "n": 1}], "hex": "0100000001424c2d120186a40491487de88d3ed1faa1effe8e8d0f9adedf2409f2dad98ab1010000006a47304402200fa75a1dfb779a4243c42bad63d05b1a6eb39f7312b087e2bfd86ce890ccba9102207d652aba16da3b43b366f7b73d65471be73523a58d91f5d244d472c196a8af82012103a4e250c527b59c2501637fb6099341a1e8225ba9ebb90871ba7b7205631253f0ffffffff02be1ec50b000000001976a9142f50cb56ec0729faf50df5781bb1673c731ee3bf88ac031b18000000000017a914de422b5c39e1a51dd77dadb64ff8faad1b2536e48700000000", "vin": [{"sequence": 4294967295, "scriptSig": {"hex": "47304402200fa75a1dfb779a4243c42bad63d05b1a6eb39f7312b087e2bfd86ce890ccba9102207d652aba16da3b43b366f7b73d65471be73523a58d91f5d244d472c196a8af82012103a4e250c527b59c2501637fb6099341a1e8225ba9ebb90871ba7b7205631253f0", "asm": "304402200fa75a1dfb779a4243c42bad63d05b1a6eb39f7312b087e2bfd86ce890ccba9102207d652aba16da3b43b366f7b73d65471be73523a58d91f5d244d472c196a8af82[ALL] 03a4e250c527b59c2501637fb6099341a1e8225ba9ebb90871ba7b7205631253f0"}, "vout": 1, "txid": "b18ad9daf20924dfde9a0f8d8efeefa1fad13e8de87d489104a48601122d4c42"}], "txid": "8fddf8be738b2eac7beeb7a8e210e8f4c5dd0ffff3df05dafb5a1d952abf07ff", "blocktime": 1537869901, "version": 1, "confirmations": 11524, "time": 1537869901, "locktime": 0, "vsize": 223, "size": 223}