{"hash": "8fe1010cc437c99d6f920bc47b73a84d91ca8f2b3ce7d8e00b7e936ad16307f1", "blockhash": "0000000000000000000e13cef7c366c0283d82e591d1acd082e914b08063cdf1", "vout": [{"scriptPubKey": {"reqSigs": 1, "hex": "76a914030c4ea94ecf8511fd82350040d3ac71cfe3364188ac", "addresses": ["1H7mhagRsciSyQ4h6MdgczFzvF9WdmHSU"], "asm": "OP_DUP OP_HASH160 030c4ea94ecf8511fd82350040d3ac71cfe33641 OP_EQUALVERIFY OP_CHECKSIG", "type": "pubkeyhash"}, "value": 0.01195425, "n": 0}, {"scriptPubKey": {"reqSigs": 1, "hex": "76a914f80d12168204e2790d2ef6bec6c5655847ad1e6a88ac", "addresses": ["1PcaEjs8cU2ppr9W7bcwM3mUqXyZow5kWH"], "asm": "OP_DUP OP_HASH160 f80d12168204e2790d2ef6bec6c5655847ad1e6a OP_EQUALVERIFY OP_CHECKSIG", "type": "pubkeyhash"}, "value": 0.169, "n": 1}], "hex": "0100000001078074e926f02bc7cbe08d2292278c9ef91e97e6bb4a243dcffe9ea881664b3c390000006b483045022100c10c1757dbe2d2d56b673f889fa31eac25872480711ff88c85f3a09230cf4d2f02203c3091103e49c3948ffe3c54f4fccd9f1411cf8bd5592fcbe0fbb059daed9670012102c19e354c76df2b52a20d66ad53a68787da9f47c68b81c18c9bd0ac4083e1cebfffffffff02a13d1200000000001976a914030c4ea94ecf8511fd82350040d3ac71cfe3364188aca0df0101000000001976a914f80d12168204e2790d2ef6bec6c5655847ad1e6a88ac00000000", "vin": [{"sequence": 4294967295, "scriptSig": {"hex": "483045022100c10c1757dbe2d2d56b673f889fa31eac25872480711ff88c85f3a09230cf4d2f02203c3091103e49c3948ffe3c54f4fccd9f1411cf8bd5592fcbe0fbb059daed9670012102c19e354c76df2b52a20d66ad53a68787da9f47c68b81c18c9bd0ac4083e1cebf", "asm": "3045022100c10c1757dbe2d2d56b673f889fa31eac25872480711ff88c85f3a09230cf4d2f02203c3091103e49c3948ffe3c54f4fccd9f1411cf8bd5592fcbe0fbb059daed9670[ALL] 02c19e354c76df2b52a20d66ad53a68787da9f47c68b81c18c9bd0ac4083e1cebf"}, "vout": 57, "txid": "3c4b6681a89efecf3d244abbe6971ef99e8c2792228de0cbc72bf026e9748007"}], "txid": "8fe1010cc437c99d6f920bc47b73a84d91ca8f2b3ce7d8e00b7e936ad16307f1", "blocktime": 1537871767, "version": 1, "confirmations": 11493, "time": 1537871767, "locktime": 0, "vsize": 226, "size": 226}