{"hash": "298e06fd1e0e7b5d347ac4c85e59b3b5fdefb5742c9a02f7b13a9b5b55ff9e80", "blockhash": "0000000000000000001f76057863aec43deb6fa401d9628bb513d65a8098bfab", "vout": [{"scriptPubKey": {"reqSigs": 1, "hex": "76a914c79c53f140c72fe4524a6c5e2813650c2db4c9f288ac", "addresses": ["1KCSk2aPFB57kJDfg1u19bivGVR4x6BzyT"], "asm": "OP_DUP OP_HASH160 c79c53f140c72fe4524a6c5e2813650c2db4c9f2 OP_EQUALVERIFY OP_CHECKSIG", "type": "pubkeyhash"}, "value": 0.16784, "n": 0}, {"scriptPubKey": {"reqSigs": 1, "hex": "a914a1830f660aaf8728a6133058dc4202c17ac94edb87", "addresses": ["3GR1ieW1RFZGHr16ExNA86crtdUZ9i8rzt"], "asm": "OP_HASH160 a1830f660aaf8728a6133058dc4202c17ac94edb OP_EQUAL", "type": "scripthash"}, "value": 0.00995378, "n": 1}], "hex": "020000000001032cb5d0b503ec9030a96fdea71b647016d141077599e6c0514d49498bf6e1cd140000000017160014fbf5bb590bf4be18763dd71957aceb8a94a94298feffffff4743fba56cfcfe511f30cfff326e62a3eceaccfa53efd1080e184015783e3715080000006b483045022100e9a334174fcbefd6f2e27361fccf14fd6a41d3abde27fee2466ab3014d54395d02200f6b68ac1ad3231a77dce9a21f71bcf8b40cf6bde7d54d3258be9124043f033b012103d89d1818b8063a9dc09b68dece33d38b512531840f7e5cf519b69f9590273509feffffffaf54b40ba5bb49aab8f9e8e565d5ce1e993860cbbde008c52ebe7e94853c467b0b0000006b483045022100b0d4d419e0d3a80d51f0315c8a33723e66887bfa11a601d3bbb31627a614549502204fbc500f6e87a483a515525a084ec2a973b25c4c70e583c4db7c237f4dd36816012102a6bc4296fe243d4c42df5e544122145ccdcb4978faa9f1aea58e780db414b0d7feffffff02801a0001000000001976a914c79c53f140c72fe4524a6c5e2813650c2db4c9f288ac32300f000000000017a914a1830f660aaf8728a6133058dc4202c17ac94edb8702483045022100e56865e8e985f97e4c241e39ace56a410fecf7a9c588a76eabcaa4c0bdfac76b02207df4ae9dc7a6d0e9a8d7d6f35da8ba48e1006af34966f455d98f428a5980b384012102c08aa8ed19e2b98e0f4c6f80b6e90845c17c3654b0f57b97c6176b7c8f434f48000014490800", "vin": [{"txinwitness": ["3045022100e56865e8e985f97e4c241e39ace56a410fecf7a9c588a76eabcaa4c0bdfac76b02207df4ae9dc7a6d0e9a8d7d6f35da8ba48e1006af34966f455d98f428a5980b38401", "02c08aa8ed19e2b98e0f4c6f80b6e90845c17c3654b0f57b97c6176b7c8f434f48"], "sequence": 4294967294, "scriptSig": {"hex": "160014fbf5bb590bf4be18763dd71957aceb8a94a94298", "asm": "0014fbf5bb590bf4be18763dd71957aceb8a94a94298"}, "vout": 0, "txid": "14cde1f68b49494d51c0e699750741d11670641ba7de6fa93090ec03b5d0b52c"}, {"sequence": 4294967294, "scriptSig": {"hex": "483045022100e9a334174fcbefd6f2e27361fccf14fd6a41d3abde27fee2466ab3014d54395d02200f6b68ac1ad3231a77dce9a21f71bcf8b40cf6bde7d54d3258be9124043f033b012103d89d1818b8063a9dc09b68dece33d38b512531840f7e5cf519b69f9590273509", "asm": "3045022100e9a334174fcbefd6f2e27361fccf14fd6a41d3abde27fee2466ab3014d54395d02200f6b68ac1ad3231a77dce9a21f71bcf8b40cf6bde7d54d3258be9124043f033b[ALL] 03d89d1818b8063a9dc09b68dece33d38b512531840f7e5cf519b69f9590273509"}, "vout": 8, "txid": "15373e781540180e08d1ef53facceaeca3626e32ffcf301f51fefc6ca5fb4347"}, {"sequence": 4294967294, "scriptSig": {"hex": "483045022100b0d4d419e0d3a80d51f0315c8a33723e66887bfa11a601d3bbb31627a614549502204fbc500f6e87a483a515525a084ec2a973b25c4c70e583c4db7c237f4dd36816012102a6bc4296fe243d4c42df5e544122145ccdcb4978faa9f1aea58e780db414b0d7", "asm": "3045022100b0d4d419e0d3a80d51f0315c8a33723e66887bfa11a601d3bbb31627a614549502204fbc500f6e87a483a515525a084ec2a973b25c4c70e583c4db7c237f4dd36816[ALL] 02a6bc4296fe243d4c42df5e544122145ccdcb4978faa9f1aea58e780db414b0d7"}, "vout": 11, "txid": "7b463c85947ebe2ec508e0bdcb6038991eced565e5e8f9b8aa49bba50bb454af"}], "txid": "8fe12dd466e9e89f0033d6a7e1e576128fd95cfd478e46bfe8d0d505511a8a13", "blocktime": 1537873891, "version": 2, "confirmations": 11475, "time": 1537873891, "locktime": 542996, "vsize": 464, "size": 548}