{"hash": "8fe4eba8e7c41bb1b1737e1b49770e0a2eda5c0b2ce65bd4341642b37b827bac", "blockhash": "0000000000000000000e13cef7c366c0283d82e591d1acd082e914b08063cdf1", "vout": [{"scriptPubKey": {"reqSigs": 1, "hex": "76a914e9f8c07581fa6aa2620beed805dcea4e5f0ce2a188ac", "addresses": ["1NL8SGty5wgSv3qg6kZGBLUtHjPavBTUrQ"], "asm": "OP_DUP OP_HASH160 e9f8c07581fa6aa2620beed805dcea4e5f0ce2a1 OP_EQUALVERIFY OP_CHECKSIG", "type": "pubkeyhash"}, "value": 0.01695292, "n": 0}, {"scriptPubKey": {"reqSigs": 1, "hex": "76a914a768bc11ad4d83a8f6378c84d31ea8f7cb85527988ac", "addresses": ["1GGBK8L7fF7NusiKmYePYCq8cSx47sg41Q"], "asm": "OP_DUP OP_HASH160 a768bc11ad4d83a8f6378c84d31ea8f7cb855279 OP_EQUALVERIFY OP_CHECKSIG", "type": "pubkeyhash"}, "value": 0.01092736, "n": 1}], "hex": "020000000257069010e494f0add6022fa8f9d288874f785ddbfd14f85ae55c9f0104607b9c000000006b483045022100e0a8c968a8c7cec3a3cd01eeeb3cce654d460d4abb2d343f030320a819730273022043d3db19c52cb97609bcd28f3323e27d5e756f83588ceb2af4289f1b2908a8bb0121037341ac1c17dc87bd766258177a596662b4da7e22dda3bddaab89e7e697c72c53feffffffa50163b494979af1bacf80de09c15418567346b4e6d0f970f06aeb34f25bf528000000006b483045022100e0870e5b21b6d51b43fd1ec288c1a50abdf789f617757f980513d658641013b00220724ab5e9049979ef92572a729bd813dd258384c080b6b0ed3e09f0231185ffd30121027af6b0948f8d90213c9068719293ce0fd7a179dc32abbb1a4bee8155c58206c8feffffff023cde1900000000001976a914e9f8c07581fa6aa2620beed805dcea4e5f0ce2a188ac80ac1000000000001976a914a768bc11ad4d83a8f6378c84d31ea8f7cb85527988ac0f490800", "vin": [{"sequence": 4294967294, "scriptSig": {"hex": "483045022100e0a8c968a8c7cec3a3cd01eeeb3cce654d460d4abb2d343f030320a819730273022043d3db19c52cb97609bcd28f3323e27d5e756f83588ceb2af4289f1b2908a8bb0121037341ac1c17dc87bd766258177a596662b4da7e22dda3bddaab89e7e697c72c53", "asm": "3045022100e0a8c968a8c7cec3a3cd01eeeb3cce654d460d4abb2d343f030320a819730273022043d3db19c52cb97609bcd28f3323e27d5e756f83588ceb2af4289f1b2908a8bb[ALL] 037341ac1c17dc87bd766258177a596662b4da7e22dda3bddaab89e7e697c72c53"}, "vout": 0, "txid": "9c7b6004019f5ce55af814fddb5d784f8788d2f9a82f02d6adf094e410900657"}, {"sequence": 4294967294, "scriptSig": {"hex": "483045022100e0870e5b21b6d51b43fd1ec288c1a50abdf789f617757f980513d658641013b00220724ab5e9049979ef92572a729bd813dd258384c080b6b0ed3e09f0231185ffd30121027af6b0948f8d90213c9068719293ce0fd7a179dc32abbb1a4bee8155c58206c8", "asm": "3045022100e0870e5b21b6d51b43fd1ec288c1a50abdf789f617757f980513d658641013b00220724ab5e9049979ef92572a729bd813dd258384c080b6b0ed3e09f0231185ffd3[ALL] 027af6b0948f8d90213c9068719293ce0fd7a179dc32abbb1a4bee8155c58206c8"}, "vout": 0, "txid": "28f55bf234eb6af070f9d0e6b44673561854c109de80cfbaf19a9794b46301a5"}], "txid": "8fe4eba8e7c41bb1b1737e1b49770e0a2eda5c0b2ce65bd4341642b37b827bac", "blocktime": 1537871767, "version": 2, "confirmations": 11495, "time": 1537871767, "locktime": 542991, "vsize": 374, "size": 374}