{"hash": "8febc99d6d421adb1a611c4d46d9249c5e946d64210bc1dbaa7ed365ed1d2f05", "blockhash": "0000000000000000001f76057863aec43deb6fa401d9628bb513d65a8098bfab", "vout": [{"scriptPubKey": {"type": "nulldata", "hex": "6a4c50000077ed000124b1f0d19ed074892d00f8e87af8e8e963c7cfd5b95b23cc0f42c2fc38c521244acc7a4e581f7130df2fcaf9cf5b5baa17b206137dee4312661d1d100759d4ba30d2c37bb011d97e02cf", "asm": "OP_RETURN 000077ed000124b1f0d19ed074892d00f8e87af8e8e963c7cfd5b95b23cc0f42c2fc38c521244acc7a4e581f7130df2fcaf9cf5b5baa17b206137dee4312661d1d100759d4ba30d2c37bb011d97e02cf"}, "value": 0.0, "n": 0}, {"scriptPubKey": {"reqSigs": 1, "hex": "76a914dea59f2d4b2e61b57007d6bda169c99046c334c988ac", "addresses": ["1MJFRC1BMQDN2QdoRYDAFuYRLuPTTxo9i3"], "asm": "OP_DUP OP_HASH160 dea59f2d4b2e61b57007d6bda169c99046c334c9 OP_EQUALVERIFY OP_CHECKSIG", "type": "pubkeyhash"}, "value": 0.00633309, "n": 1}], "hex": "0100000001f316b400765bc4a449d168227acd446f4840b11c1f42d3f73f1fe88b31750a47000000006a473044022029475ffad47edda94785a19f3dd0e385477857925de9a82509aa65975754bf08022051eb9e8ebb3616d2368b90bc3d80ef565921ba19f2b5e8904318fe3c57496ccf0121037e5cf9646a62754bdc1ffcf1bf49383b8736a516c5b94c33bb496739069ddf1bffffffff020000000000000000536a4c50000077ed000124b1f0d19ed074892d00f8e87af8e8e963c7cfd5b95b23cc0f42c2fc38c521244acc7a4e581f7130df2fcaf9cf5b5baa17b206137dee4312661d1d100759d4ba30d2c37bb011d97e02cfdda90900000000001976a914dea59f2d4b2e61b57007d6bda169c99046c334c988ac00000000", "vin": [{"sequence": 4294967295, "scriptSig": {"hex": "473044022029475ffad47edda94785a19f3dd0e385477857925de9a82509aa65975754bf08022051eb9e8ebb3616d2368b90bc3d80ef565921ba19f2b5e8904318fe3c57496ccf0121037e5cf9646a62754bdc1ffcf1bf49383b8736a516c5b94c33bb496739069ddf1b", "asm": "3044022029475ffad47edda94785a19f3dd0e385477857925de9a82509aa65975754bf08022051eb9e8ebb3616d2368b90bc3d80ef565921ba19f2b5e8904318fe3c57496ccf[ALL] 037e5cf9646a62754bdc1ffcf1bf49383b8736a516c5b94c33bb496739069ddf1b"}, "vout": 0, "txid": "470a75318be81f3ff7d3421f1cb140486f44cd7a2268d149a4c45b7600b416f3"}], "txid": "8febc99d6d421adb1a611c4d46d9249c5e946d64210bc1dbaa7ed365ed1d2f05", "blocktime": 1537873891, "version": 1, "confirmations": 11478, "time": 1537873891, "locktime": 0, "vsize": 283, "size": 283}