{"hash": "cb5ef9ed7fbfa5508e57900b1d02de35259acccc6d0034ae1b8dab200a38ccbc", "blockhash": "0000000000000000000e13cef7c366c0283d82e591d1acd082e914b08063cdf1", "vout": [{"scriptPubKey": {"reqSigs": 1, "hex": "76a9148a4c9c0e84503801f7d6f83f9ba6810d0b74ad6d88ac", "addresses": ["1DcG2QEtbJ9o5GrQXZhZu2gkT9T134NBwg"], "asm": "OP_DUP OP_HASH160 8a4c9c0e84503801f7d6f83f9ba6810d0b74ad6d OP_EQUALVERIFY OP_CHECKSIG", "type": "pubkeyhash"}, "value": 0.01562038, "n": 0}, {"scriptPubKey": {"reqSigs": 1, "hex": "76a914e6dfe089582105d40f8e61d208164b5709f7f92d88ac", "addresses": ["1N3kcNiB1evjyKE5cJg2P2Ymhm7JiHG2C5"], "asm": "OP_DUP OP_HASH160 e6dfe089582105d40f8e61d208164b5709f7f92d OP_EQUALVERIFY OP_CHECKSIG", "type": "pubkeyhash"}, "value": 0.0078, "n": 1}, {"scriptPubKey": {"reqSigs": 1, "hex": "76a9148a7f2c4c5b38708e8544f91fe4c7e23dc92df1c788ac", "addresses": ["1DdJbcQAACPsg8Wt5LMRyKaDiQVLG8AAji"], "asm": "OP_DUP OP_HASH160 8a7f2c4c5b38708e8544f91fe4c7e23dc92df1c7 OP_EQUALVERIFY OP_CHECKSIG", "type": "pubkeyhash"}, "value": 0.01561609, "n": 2}, {"scriptPubKey": {"reqSigs": 1, "hex": "76a91496edd7479901ccb3ba33a436d2c965cd979f113788ac", "addresses": ["1Em3HFeVWqLxYP9RirwLjWZcHxjerPHuSV"], "asm": "OP_DUP OP_HASH160 96edd7479901ccb3ba33a436d2c965cd979f1137 OP_EQUALVERIFY OP_CHECKSIG", "type": "pubkeyhash"}, "value": 0.0105, "n": 3}, {"scriptPubKey": {"reqSigs": 1, "hex": "76a914b6f101fcbe5532d53ab582be538ddc3db49755ab88ac", "addresses": ["1HgJhRiHPEYZY6uaQFE7YCFZ3vnZZqprwB"], "asm": "OP_DUP OP_HASH160 b6f101fcbe5532d53ab582be538ddc3db49755ab OP_EQUALVERIFY OP_CHECKSIG", "type": "pubkeyhash"}, "value": 0.01561609, "n": 4}, {"scriptPubKey": {"reqSigs": 1, "hex": "a914e488a9b1352428a2a084ae60be7f2b0d30f4858b87", "addresses": ["3NXPhnNYxjsE4Y7V27AvkoPzZGWVx7azdN"], "asm": "OP_HASH160 e488a9b1352428a2a084ae60be7f2b0d30f4858b OP_EQUAL", "type": "scripthash"}, "value": 0.00298509, "n": 5}], "hex": "01000000000101c0ffe871618f097d6ab6a25e524768eda604752123a3d4d5c350203265c051699b0000001716001413e3a9bac83ee4acc3cb43490cc3848490bb438effffffff06b6d51700000000001976a9148a4c9c0e84503801f7d6f83f9ba6810d0b74ad6d88ace0e60b00000000001976a914e6dfe089582105d40f8e61d208164b5709f7f92d88ac09d41700000000001976a9148a7f2c4c5b38708e8544f91fe4c7e23dc92df1c788ac90051000000000001976a91496edd7479901ccb3ba33a436d2c965cd979f113788ac09d41700000000001976a914b6f101fcbe5532d53ab582be538ddc3db49755ab88ac0d8e04000000000017a914e488a9b1352428a2a084ae60be7f2b0d30f4858b8702473044022030e8d7996a29079238cedd1aa4b63d508770c76b0c30a165cf21a254f715e5c002207fac3be42ec82fd9ee475b2d65bbe63ac24560e192a70d3fc0912aae153f130401210311e9217190eb56b1cd3505e5de8735f12dd3854167b57513817c4b8c6b70418500000000", "vin": [{"txinwitness": ["3044022030e8d7996a29079238cedd1aa4b63d508770c76b0c30a165cf21a254f715e5c002207fac3be42ec82fd9ee475b2d65bbe63ac24560e192a70d3fc0912aae153f130401", "0311e9217190eb56b1cd3505e5de8735f12dd3854167b57513817c4b8c6b704185"], "sequence": 4294967295, "scriptSig": {"hex": "16001413e3a9bac83ee4acc3cb43490cc3848490bb438e", "asm": "001413e3a9bac83ee4acc3cb43490cc3848490bb438e"}, "vout": 155, "txid": "6951c065322050c3d5d4a323217504a6ed6847525ea2b66a7d098f6171e8ffc0"}], "txid": "8feb4a771f659f359c1032f2d14a76de77d905fe60c0e09133ac2bd62c81158e", "blocktime": 1537871767, "version": 1, "confirmations": 11493, "time": 1537871767, "locktime": 0, "vsize": 304, "size": 385}