{"hash": "f61cb99f7127563be03df358541cf94018d0e04d85dc4443dee1d03f80f4c795", "blockhash": "000000000000000000022b45ed06c6f4ccd3cf7fb5ba4856ebd2e58215665228", "vout": [{"scriptPubKey": {"reqSigs": 1, "hex": "76a914e2e935237afbbfe00bd99aaa81246024105058c788ac", "addresses": ["1Mgo5uCE8xnPyzaSukNvFp2KYQNQKmaVky"], "asm": "OP_DUP OP_HASH160 e2e935237afbbfe00bd99aaa81246024105058c7 OP_EQUALVERIFY OP_CHECKSIG", "type": "pubkeyhash"}, "value": 0.0028856, "n": 0}, {"scriptPubKey": {"reqSigs": 1, "hex": "a914c69bd8c0b1d3393435dfaaa5a8f80b367233124187", "addresses": ["3KoAQwi3iMN5cmpUuYQHYJG3vp9mCANDKa"], "asm": "OP_HASH160 c69bd8c0b1d3393435dfaaa5a8f80b3672331241 OP_EQUAL", "type": "scripthash"}, "value": 0.01013161, "n": 1}], "hex": "02000000000102625285f9366b461d6adf661ebcc75df578ee0ffdd928b591adb206872fa314190000000017160014a163b6375bde98114a041a707f83a8e3d360db34feffffff95f02e63921af48a79100baf23d6092e3e388945a3a4d7b41fa4d81df33aa24e08000000171600148b350a62b23456014c649d5640cdb980491bb973feffffff0230670400000000001976a914e2e935237afbbfe00bd99aaa81246024105058c788aca9750f000000000017a914c69bd8c0b1d3393435dfaaa5a8f80b36723312418702473044022006245427b83492b358db2a091866ca139f0984ae25990586526e667cc1e6475d02204645e10b678265b69f1c0287367500a9cc216c59a14c1ad7ced3614d1c95b7820121035a98c7aee8b6687e20d79616a049fd8a7af829e4a92b440fb098f75021ff313e02483045022100a1549a4e1b36a4aa84b97c563362021a05a69d2651845b8d925f62c1b64f648102203cae2b7997760b231eba4dc8a6ef0cf70db6ba00600f2ab30beb2d26c063153c01210317c711dea90d833122f96cd776db07537ea8bf092dcc06065271427e7dc6d97a0b490800", "vin": [{"txinwitness": ["3044022006245427b83492b358db2a091866ca139f0984ae25990586526e667cc1e6475d02204645e10b678265b69f1c0287367500a9cc216c59a14c1ad7ced3614d1c95b78201", "035a98c7aee8b6687e20d79616a049fd8a7af829e4a92b440fb098f75021ff313e"], "sequence": 4294967294, "scriptSig": {"hex": "160014a163b6375bde98114a041a707f83a8e3d360db34", "asm": "0014a163b6375bde98114a041a707f83a8e3d360db34"}, "vout": 0, "txid": "1914a32f8706b2ad91b528d9fd0fee78f55dc7bc1e66df6a1d466b36f9855262"}, {"txinwitness": ["3045022100a1549a4e1b36a4aa84b97c563362021a05a69d2651845b8d925f62c1b64f648102203cae2b7997760b231eba4dc8a6ef0cf70db6ba00600f2ab30beb2d26c063153c01", "0317c711dea90d833122f96cd776db07537ea8bf092dcc06065271427e7dc6d97a"], "sequence": 4294967294, "scriptSig": {"hex": "1600148b350a62b23456014c649d5640cdb980491bb973", "asm": "00148b350a62b23456014c649d5640cdb980491bb973"}, "vout": 8, "txid": "4ea23af31dd8a41fb4d7a4a34589383e2e09d623af0b10798af41a92632ef095"}], "txid": "8fed2fb53c70a794937309b0f970f4b13d8cabcd31268ded1ce6f15a74b683b0", "blocktime": 1537869901, "version": 2, "confirmations": 11524, "time": 1537869901, "locktime": 542987, "vsize": 259, "size": 421}