{"hash": "11f8cb94bb848ad693a4bb25daa69fe48a9d489e2c8dd75a636a2afd81d0abb1", "blockhash": "0000000000000000001f76057863aec43deb6fa401d9628bb513d65a8098bfab", "vout": [{"scriptPubKey": {"reqSigs": 1, "hex": "a914c5612427ad8f4e82771049b5470c664bb6dc3f4487", "addresses": ["3KgfQppn3SQdBkmMeKU3x1457PQd9woEc1"], "asm": "OP_HASH160 c5612427ad8f4e82771049b5470c664bb6dc3f44 OP_EQUAL", "type": "scripthash"}, "value": 0.00192274, "n": 0}, {"scriptPubKey": {"reqSigs": 1, "hex": "a914bb540cc6bad24a77aa88ec53cb87d44b0d8b036287", "addresses": ["3JmWyJhbNWfw5RuXuf2xQ6hxYfQuZz5bPC"], "asm": "OP_HASH160 bb540cc6bad24a77aa88ec53cb87d44b0d8b0362 OP_EQUAL", "type": "scripthash"}, "value": 0.27007936, "n": 1}], "hex": "010000000001019a7ab361d60125a89e4553a4107b9491622f9c585c3cfc8f42529ac3e7adab59010000002322002039accee27ad85609edc96f2d709ef9edd33418ec0559b014196046eb737c75a0ffffffff0212ef02000000000017a914c5612427ad8f4e82771049b5470c664bb6dc3f4487c01b9c010000000017a914bb540cc6bad24a77aa88ec53cb87d44b0d8b03628704004830450221009f8fb7c0327a63e495855a44cf89043fb866592d1d906a4d72b4beffbc12e7a8022065f8bd522f2430479c42da0341b1d8156212990f8dc7716ff8c854dfe8545bf001483045022100c09635e86d4afad0a4a91891cc9443342865d4bd497dc3286737b5e1bec980240220382229f96466f69fd2366ad3fb33a6f3593f03c501cb0f9e664521a6f44494a30147522102cfa295ac92b2ca97ba924840d69125440b6cb4195077d07b1694f7378131a9102103982481ffd6c2aa1ba6b45c0874cb14e2ebcbfe494f93697c3d40857517fc280b52ae00000000", "vin": [{"txinwitness": ["", "30450221009f8fb7c0327a63e495855a44cf89043fb866592d1d906a4d72b4beffbc12e7a8022065f8bd522f2430479c42da0341b1d8156212990f8dc7716ff8c854dfe8545bf001", "3045022100c09635e86d4afad0a4a91891cc9443342865d4bd497dc3286737b5e1bec980240220382229f96466f69fd2366ad3fb33a6f3593f03c501cb0f9e664521a6f44494a301", "522102cfa295ac92b2ca97ba924840d69125440b6cb4195077d07b1694f7378131a9102103982481ffd6c2aa1ba6b45c0874cb14e2ebcbfe494f93697c3d40857517fc280b52ae"], "sequence": 4294967295, "scriptSig": {"hex": "22002039accee27ad85609edc96f2d709ef9edd33418ec0559b014196046eb737c75a0", "asm": "002039accee27ad85609edc96f2d709ef9edd33418ec0559b014196046eb737c75a0"}, "vout": 1, "txid": "59abade7c39a52428ffc3c5c589c2f6291947b10a453459ea82501d661b37a9a"}], "txid": "8feefa80ae16003ce895a1ac574d51837aac4755b780fb429df4a83193d27fc0", "blocktime": 1537873891, "version": 1, "confirmations": 11478, "time": 1537873891, "locktime": 0, "vsize": 206, "size": 372}