{"hash": "8ff3af6086baacc4dd2752b49083eb62e9f0bf844341df78dd524e25b2b83b72", "blockhash": "0000000000000000001f0ddff1eddb255c1121bcd4da4f1bc9a0da00cae72433", "vout": [{"scriptPubKey": {"reqSigs": 1, "hex": "76a914a95ce80f3e25749f6f3a944875dc94c807eb1b1688ac", "addresses": ["1GSWVg9RqkqzZ4SAuqVTJsSKUxg8Nu7r3U"], "asm": "OP_DUP OP_HASH160 a95ce80f3e25749f6f3a944875dc94c807eb1b16 OP_EQUALVERIFY OP_CHECKSIG", "type": "pubkeyhash"}, "value": 0.00987486, "n": 0}, {"scriptPubKey": {"reqSigs": 1, "hex": "a9143e1799863625d3545a1a08e8620bc2bb58fae94887", "addresses": ["37ML6B1g8if84nFd4ojt73fsEi5adqvVJz"], "asm": "OP_HASH160 3e1799863625d3545a1a08e8620bc2bb58fae948 OP_EQUAL", "type": "scripthash"}, "value": 0.014, "n": 1}], "hex": "0100000002249966392d7e705a1ad2218429656cc9b6b7a16dadc1d43cd3cad0b5b6d0b848000000006a473044022054c2a7952d917c1b1559e4468f8b25411fc5498499abd166ca4bf261dde005720220018049766e5ec9e88f11445e3be3ca8f54233b6f889b2336a585e050792c5a78012103f7ecf9fc3c8346761600d075cabd27f930a9c970549f66bf7792b1450e92b3f4ffffffffc9d3117831c3c2cf6dd7a47bbf6c56f3b046c8430865af76978b394940c7d3ed060000006a47304402206ad3dfb23b27152f88d0ced94fc5057c9a008c97c17df55672cbd2bd3c0db30b02206d391d69c4a37aa3cf94ce7c1bf5feab4fe964ae5f9d42db11eba2508bec403001210355848c950587d7111c19b214c1d9e4927fb7f5e17359228043dc6eaad346cd0bffffffff025e110f00000000001976a914a95ce80f3e25749f6f3a944875dc94c807eb1b1688acc05c15000000000017a9143e1799863625d3545a1a08e8620bc2bb58fae9488700000000", "vin": [{"sequence": 4294967295, "scriptSig": {"hex": "473044022054c2a7952d917c1b1559e4468f8b25411fc5498499abd166ca4bf261dde005720220018049766e5ec9e88f11445e3be3ca8f54233b6f889b2336a585e050792c5a78012103f7ecf9fc3c8346761600d075cabd27f930a9c970549f66bf7792b1450e92b3f4", "asm": "3044022054c2a7952d917c1b1559e4468f8b25411fc5498499abd166ca4bf261dde005720220018049766e5ec9e88f11445e3be3ca8f54233b6f889b2336a585e050792c5a78[ALL] 03f7ecf9fc3c8346761600d075cabd27f930a9c970549f66bf7792b1450e92b3f4"}, "vout": 0, "txid": "48b8d0b6b5d0cad33cd4c1ad6da1b7b6c96c65298421d21a5a707e2d39669924"}, {"sequence": 4294967295, "scriptSig": {"hex": "47304402206ad3dfb23b27152f88d0ced94fc5057c9a008c97c17df55672cbd2bd3c0db30b02206d391d69c4a37aa3cf94ce7c1bf5feab4fe964ae5f9d42db11eba2508bec403001210355848c950587d7111c19b214c1d9e4927fb7f5e17359228043dc6eaad346cd0b", "asm": "304402206ad3dfb23b27152f88d0ced94fc5057c9a008c97c17df55672cbd2bd3c0db30b02206d391d69c4a37aa3cf94ce7c1bf5feab4fe964ae5f9d42db11eba2508bec4030[ALL] 0355848c950587d7111c19b214c1d9e4927fb7f5e17359228043dc6eaad346cd0b"}, "vout": 6, "txid": "edd3c74049398b9776af650843c846b0f3566cbf7ba4d76dcfc2c3317811d3c9"}], "txid": "8ff3af6086baacc4dd2752b49083eb62e9f0bf844341df78dd524e25b2b83b72", "blocktime": 1537872018, "version": 1, "confirmations": 11489, "time": 1537872018, "locktime": 0, "vsize": 370, "size": 370}