{"hash": "8ff405ec549d727d0032f5379a11a9730a5c9fc987f916bc8b2797f528534251", "blockhash": "00000000000000000004ffacab907a6b429b9a5745fa0b75af4234bf69dd7176", "vout": [{"scriptPubKey": {"reqSigs": 1, "hex": "76a914ee8856197f2fa5d63a5b609a7239cf20c40c0acf88ac", "addresses": ["1NkF9UEzrRHfev13WDfs5ehbNJRd1KXSRr"], "asm": "OP_DUP OP_HASH160 ee8856197f2fa5d63a5b609a7239cf20c40c0acf OP_EQUALVERIFY OP_CHECKSIG", "type": "pubkeyhash"}, "value": 0.0025, "n": 0}, {"scriptPubKey": {"reqSigs": 1, "hex": "76a914779ad78afc0b351b5df656d09c125ea005d8ef0d88ac", "addresses": ["1BuQuSJ7viBbLgvv7hsJyHFCchHvR6qkpK"], "asm": "OP_DUP OP_HASH160 779ad78afc0b351b5df656d09c125ea005d8ef0d OP_EQUALVERIFY OP_CHECKSIG", "type": "pubkeyhash"}, "value": 0.00456862, "n": 1}], "hex": "0100000001e31834ad1ef5d4e109bd98b284213ddc5f96f5e9c7ca26c6792c51bc6dd10c7e010000006a4730440220171204b69e1fb691409c9b4d743330dd438c7a1d88a3da4527d76b6a02c123480220695575065ad6127f94308321fa43c322e73a96e79932f19852cac15077cfc2f60121039fa3b8ee164556bf8bdce37500c5456b151c2a7a106e758d14e6c9d7539e2183ffffffff0290d00300000000001976a914ee8856197f2fa5d63a5b609a7239cf20c40c0acf88ac9ef80600000000001976a914779ad78afc0b351b5df656d09c125ea005d8ef0d88ac00000000", "vin": [{"sequence": 4294967295, "scriptSig": {"hex": "4730440220171204b69e1fb691409c9b4d743330dd438c7a1d88a3da4527d76b6a02c123480220695575065ad6127f94308321fa43c322e73a96e79932f19852cac15077cfc2f60121039fa3b8ee164556bf8bdce37500c5456b151c2a7a106e758d14e6c9d7539e2183", "asm": "30440220171204b69e1fb691409c9b4d743330dd438c7a1d88a3da4527d76b6a02c123480220695575065ad6127f94308321fa43c322e73a96e79932f19852cac15077cfc2f6[ALL] 039fa3b8ee164556bf8bdce37500c5456b151c2a7a106e758d14e6c9d7539e2183"}, "vout": 1, "txid": "7e0cd16dbc512c79c626cac7e9f5965fdc3d2184b298bd09e1d4f51ead3418e3"}], "txid": "8ff405ec549d727d0032f5379a11a9730a5c9fc987f916bc8b2797f528534251", "blocktime": 1537875543, "version": 1, "confirmations": 11464, "time": 1537875543, "locktime": 0, "vsize": 225, "size": 225}