{"hash": "8ff6b01c681752c89130bbfdd9a202ad8f6abfb1361eed853479d9ba0f4502e7", "blockhash": "0000000000000000000dcc0f55137456b1a82d3642486a52398922ac4d620174", "vout": [{"scriptPubKey": {"reqSigs": 1, "hex": "76a9147b5084e4666e95e62c6e29b8bc56d32f135c676388ac", "addresses": ["1CF2aALaLqwSggRKCPMYHD3L3n9ps2Mb1w"], "asm": "OP_DUP OP_HASH160 7b5084e4666e95e62c6e29b8bc56d32f135c6763 OP_EQUALVERIFY OP_CHECKSIG", "type": "pubkeyhash"}, "value": 0.11721421, "n": 0}], "hex": "0100000019a1c434229b2dfd233b1aecc432eec27209bf1efd3ff1bc601bc4e1d766d5640d000000006a47304402201741c062f79104b65e6f6a51c830e5438a866c7ecbe965e39dcd2ee29daa550f02200318a83ab279b83436dc85555b27b80bcc8e43aee654c7b32464f97e985ede3a0121022a0743821f035e703ab05a180bed102d4a9eeef0058eaf1266d0f74adf0f5902fdffffffafac75ed5e906c80eee45ccd57fde5904374ae7f67bd09637893f1199d98fe15000000006b483045022100f0d3a2b50988f89054c3a9c8b25c2cc49f71e4cb52ae323909602b8cdb3fe58602200767df05a1046eda0240a9310cd19370bdeedf075291505a347d1398f632cc390121029bf00c75274ee5fd6a2c06b42d8f754e55327304a84d10c73eb161068a47d454fdffffff9e634c2537567497e39f204921cdfe63c2bdd27d715f55c81a3051085700e32d310000006a4730440220612b394267a298e32b671fc52530e5743ab0037c9b7bab17e9544b9399fbee67022015218ecb6e8c23705be0f0bdb6285fed2bbea1104467efd6a9461c079e9486ea0121029bf00c75274ee5fd6a2c06b42d8f754e55327304a84d10c73eb161068a47d454fdffffff6c7aa51686ce228cc01a6c68bc26aaa588793867d3dc7a6b6c83cd67c9d71033000000006a4730440220606bbbac2c7591badf54b263fcc55e2cda03f3c8839a60694874b1d6c0dcdd1302204f8279da51757561b096d9602a8a2ce963b4a92f9ab74e242b159bea9fe026ac0121029bf00c75274ee5fd6a2c06b42d8f754e55327304a84d10c73eb161068a47d454fdffffff23be2af3a869c68510f50f66f6bcd73e1715d5631bc7213d2e8ca1736aab3937000000006b483045022100cf26150a8ef3777519b27f91b5a7db6f4fbdb3b976eb702c448c8349f69c0df7022049359ae31c24a577d02db152c730eb6ac03e506d58a053816d8634ac23cd6066012102b44b2e7168a34db84f5828ceba0dfbdacc0385f8b3a5c51293263b5b27716bf1fdffffffd8b502def10b6f355f06460c61c2727acec26e20e5c76fa1e9f4a275ec779948010000006a47304402205c1310056effe3a6fe6bd41078495bbc63b502437c1063703e36f337bd0f7b7902204eac927b907ba8b9e5bc92d59b883a9b52804c563711e438e413b83a4a21790e0121029bf00c75274ee5fd6a2c06b42d8f754e55327304a84d10c73eb161068a47d454fdffffffcad1829a7be79b243e99dcc0ad6a79887cfcdc79b5bdaeb465442a31dc0b7f49000000006b483045022100c1cba62476ca3928214e5b987a4048f886e29aa108dd42d462d1400c29e6220d0220378100e09cf57e4142ce336e686727b6b73890e2e6033ff04513c1887587f69f012103975c04ebf2e8a292fb14301b8dfa5f65f531195faac3e88caf99e91db6d71889fdffffffddbbfe5f59bc196c34e3ff8b9e6b90c8fb24178503f370a8494ce34dd196934e000000006a47304402203fb0722a361ad6e1643e4811be0ad318628e1c54ad2815767e626097829e64fa0220277c18edc0909cdceb8c234e47a53354589a7f6cdfd1a64e8455dc0a5f071e380121029bf00c75274ee5fd6a2c06b42d8f754e55327304a84d10c73eb161068a47d454fdffffff2e44c621b17db3822d5e3622a374f0a6ab4206d2ea5a0ca194c24f3e3eece561010000006b48304502210086cce15003375afca78a6f4ee8e18ff9200c13874ac90ce1344aae7ad93445e402206f3abd6f50b4c6a7506142efdaecd4efb4abb6787f4ed947b2254c74e2f92d280121029bf00c75274ee5fd6a2c06b42d8f754e55327304a84d10c73eb161068a47d454fdffffffe42911d2ce90171a08d980be6cffbdc2a67db24e1efd1f6df04b4f66087ca06b000000006a4730440220539fd6f44c5236215ccf74abe3f2adafc5230ccdc0b51a9539df7e64932b3cff022076573a5d83e75b22b2fa6b8cb543f4605dd6d758885e9bd8661955cc469e1249012102257b0051a2fc5b5d865957d7dc3aebba80afbb11bc32f72a02a3219337c19e44fdffffff79834c7374a6087b33cb9f428776de89169ed8145268ed3622c326435b8e8077000000006b483045022100bccbefd70ceda8a6b46d686a6382b29a846c78390ee3b6c716c970c4b124c35902204f4afd39f3433495e09e400eca887429a4528a5d71bda64c43bac68b859c3af90121029bf00c75274ee5fd6a2c06b42d8f754e55327304a84d10c73eb161068a47d454fdffffff5d918fa76792a87bc6c3d019e42ecd070c1aeabe9a1f2a125a5af364e4dbc678010000006a47304402207a99fb9d6c2988c736f5585c863c43f9b4e340a1b56629f9d39d7881d3ed01bb02203e4c0413ba5b071052bfaff62bb7e81e4651334a01057c5cc314b149295fd5a20121029bf00c75274ee5fd6a2c06b42d8f754e55327304a84d10c73eb161068a47d454fdffffff09f7fc93a7ed150d3926c2f262dc34303949d43ec394872a2de0c5de3fabeb93000000006b48304502210084a62157016c9d393e3daf4a9a30404d894a2e6ea5ec49853616a88a98016c2a02205cd5a488bd01a2381dc4fc331ecec026dd70f42adeb77f327c141a03edae43bb012102e7508fac9de413cb91500ab8586690bf5a2bf78dfce6233bd6741bc3bc61e4acfdffffff1a9369eaa7a400acc38385573450524297465d3dea86e11a81b5284ffcd5dd94000000006a47304402207a05ee8c1c1688c373ff539f18c3577eef939d830f8397e77ed2f84e7e064a340220225b16fde3cfbbaf67312aa8f2f3af174912d20e29e481dc270ce5dac14970e80121029bf00c75274ee5fd6a2c06b42d8f754e55327304a84d10c73eb161068a47d454fdffffff8b9a183795458ae09a802b382581f6a0939282072e25efd09011bd6c14b94596010000006b483045022100e8dc5112846a80240073ec797dc4fc7619302d2cdc47ed7d60cdd0aaa4b1066d022016e96513e2f8bf755e1380c9908c788b44c8c8f27b305e7b681b268cc970b1b10121029bf00c75274ee5fd6a2c06b42d8f754e55327304a84d10c73eb161068a47d454fdffffffdde8a0bf0080c97a78f724e052b0df1a555d63864d3e30c5ef4ca6464353bea8060000006a47304402203dc2c1e438003739339d66ada273b70e1174721d03ee3640a3b909c8498b3e4702205954a5d822b863df90a4f1bb6b3d12f824e9c8164b5f3f0051e3db654c0b35170121029bf00c75274ee5fd6a2c06b42d8f754e55327304a84d10c73eb161068a47d454fdffffff9775ca43f91b3d1e3e3a5e21f3a18582c6f68802656b9e6680685e3bc5de6ca9000000006a47304402206b060cb5775c86db603083b79a9248faa38983673439a0277250ade5c83c77a9022014819c335c55f6aeca6c4264a7b070ad6ca4b693a13ec0e08b5dfdd116c4b7720121029bf00c75274ee5fd6a2c06b42d8f754e55327304a84d10c73eb161068a47d454fdffffff23db2c21ab600d5a8a0de710ec86f1ee7c7d501f8392ac1dcc1849c4aaac81ad000000006a4730440220754fd71cb8d9f13a7f476c58cb7316ba7dac308750ce16a644177a8aad0537b102206fe4ab89cc47a4d88e50adff1609fa295b875a287ca4c3fa35e4fbfcbaeba6690121029bf00c75274ee5fd6a2c06b42d8f754e55327304a84d10c73eb161068a47d454fdffffff2f6692737622e779cd4a40ba1f9efdec17a6e4d36b8440128738049f91d5b6b0010000006b483045022100dab0e1206e2b569f837b5b9793581cf531c917649183967d55ad886ead5e349c0220744ecf1f06a8b8a834bb54c5dd02c17f13eacce07aaaf40ada735f18420aee410121029bf00c75274ee5fd6a2c06b42d8f754e55327304a84d10c73eb161068a47d454fdffffff427b7ff523d49d27e8529d3848db83d7290118e063ac4f7b42c1aa4457f84bb4000000006b483045022100f689f2c9bf8c658edd64c53ddc1ad955aba6200531fff067ae5dcfa22a030f7902201a060e0a09bf4900936c37cd8ea39beea921441d5dbe81a58eff3988683e821a012103975c04ebf2e8a292fb14301b8dfa5f65f531195faac3e88caf99e91db6d71889fdffffffacd4cad8092012a83892749b0586ddb249754b99216a50b9335a54f4f05860bf010000006b483045022100d45d4b57997d5aaa3a065fed068dcb1b8be276b91bcf6b71427ca49802f1897802202fc9e2d1f5083524fb60cc05feb5e053993a56b1ee74b693ee066cfa6475d4cb01210315079d6727091a111095dabe22a939eda0067639b79c66d16c0889d50166e989fdffffff1c03602cdcd6b613c2e89a5120ce1be3a9a4c8d8cd71ddfb319e1294dd335ee0010000006a473044022059397ebbae36bb572851992d27db1d3a9acf7efc59f941ad29adc1ed2fa0c32d022019f2e50884fad9ca96d343a90662508c1ac621f609a31b42be8e04708e7e47570121029bf00c75274ee5fd6a2c06b42d8f754e55327304a84d10c73eb161068a47d454fdffffffec394f08e6e9efed1e7e8be4d6d211d89c7c744a9507463a5f8ebfcff8ae4fe2010000006b483045022100be1ceb11bcecad5661f2779c1b0f0a817bf3b576f4481c4c5c78c9887933afba02201eb76927a40f74ec36e31f615aaa2d799157f1df1620a9946f42337b5d7f943c012102cf31a1714fa5042b512f8711016a6290be7304f0c760a2dfb1a7f3e64094a878fdffffff5fe09d9c1720f549473fc79a894ad808a0b0f04ac038b5300abe0ac7dea9b9e6010000006b4830450221009bc7ac821dfdc6e0d57f21b00aded4b9c19386897558ee0426d5a1696773f892022071b7a5c38608b8326c81fe3edf6bee9403da5e2f7fa16bfa630a09f3b473e68b0121029bf00c75274ee5fd6a2c06b42d8f754e55327304a84d10c73eb161068a47d454fdffffff7be71d945849f72c9ef1dc18a7b6802c84deb11269b5afcf7d8275fddb2c4ae7010000006b483045022100db3733d7d56045b6bc22a91e87578bbb2fe247d0c884931b4433efa25199f4260220140f92d8dda10bbc704dd31477cea0f723b1e899f4d3f0dc1f869d560fb2cc130121029bf00c75274ee5fd6a2c06b42d8f754e55327304a84d10c73eb161068a47d454fdffffff01cddab200000000001976a9147b5084e4666e95e62c6e29b8bc56d32f135c676388ac0c490800", "vin": [{"sequence": 4294967293, "scriptSig": {"hex": "47304402201741c062f79104b65e6f6a51c830e5438a866c7ecbe965e39dcd2ee29daa550f02200318a83ab279b83436dc85555b27b80bcc8e43aee654c7b32464f97e985ede3a0121022a0743821f035e703ab05a180bed102d4a9eeef0058eaf1266d0f74adf0f5902", "asm": "304402201741c062f79104b65e6f6a51c830e5438a866c7ecbe965e39dcd2ee29daa550f02200318a83ab279b83436dc85555b27b80bcc8e43aee654c7b32464f97e985ede3a[ALL] 022a0743821f035e703ab05a180bed102d4a9eeef0058eaf1266d0f74adf0f5902"}, "vout": 0, "txid": "0d64d566d7e1c41b60bcf13ffd1ebf0972c2ee32c4ec1a3b23fd2d9b2234c4a1"}, {"sequence": 4294967293, "scriptSig": {"hex": "483045022100f0d3a2b50988f89054c3a9c8b25c2cc49f71e4cb52ae323909602b8cdb3fe58602200767df05a1046eda0240a9310cd19370bdeedf075291505a347d1398f632cc390121029bf00c75274ee5fd6a2c06b42d8f754e55327304a84d10c73eb161068a47d454", "asm": "3045022100f0d3a2b50988f89054c3a9c8b25c2cc49f71e4cb52ae323909602b8cdb3fe58602200767df05a1046eda0240a9310cd19370bdeedf075291505a347d1398f632cc39[ALL] 029bf00c75274ee5fd6a2c06b42d8f754e55327304a84d10c73eb161068a47d454"}, "vout": 0, "txid": "15fe989d19f193786309bd677fae744390e5fd57cd5ce4ee806c905eed75acaf"}, {"sequence": 4294967293, "scriptSig": {"hex": "4730440220612b394267a298e32b671fc52530e5743ab0037c9b7bab17e9544b9399fbee67022015218ecb6e8c23705be0f0bdb6285fed2bbea1104467efd6a9461c079e9486ea0121029bf00c75274ee5fd6a2c06b42d8f754e55327304a84d10c73eb161068a47d454", "asm": "30440220612b394267a298e32b671fc52530e5743ab0037c9b7bab17e9544b9399fbee67022015218ecb6e8c23705be0f0bdb6285fed2bbea1104467efd6a9461c079e9486ea[ALL] 029bf00c75274ee5fd6a2c06b42d8f754e55327304a84d10c73eb161068a47d454"}, "vout": 49, "txid": "2de300570851301ac8555f717dd2bdc263fecd2149209fe397745637254c639e"}, {"sequence": 4294967293, "scriptSig": {"hex": "4730440220606bbbac2c7591badf54b263fcc55e2cda03f3c8839a60694874b1d6c0dcdd1302204f8279da51757561b096d9602a8a2ce963b4a92f9ab74e242b159bea9fe026ac0121029bf00c75274ee5fd6a2c06b42d8f754e55327304a84d10c73eb161068a47d454", "asm": "30440220606bbbac2c7591badf54b263fcc55e2cda03f3c8839a60694874b1d6c0dcdd1302204f8279da51757561b096d9602a8a2ce963b4a92f9ab74e242b159bea9fe026ac[ALL] 029bf00c75274ee5fd6a2c06b42d8f754e55327304a84d10c73eb161068a47d454"}, "vout": 0, "txid": "3310d7c967cd836c6b7adcd367387988a5aa26bc686c1ac08c22ce8616a57a6c"}, {"sequence": 4294967293, "scriptSig": {"hex": "483045022100cf26150a8ef3777519b27f91b5a7db6f4fbdb3b976eb702c448c8349f69c0df7022049359ae31c24a577d02db152c730eb6ac03e506d58a053816d8634ac23cd6066012102b44b2e7168a34db84f5828ceba0dfbdacc0385f8b3a5c51293263b5b27716bf1", "asm": "3045022100cf26150a8ef3777519b27f91b5a7db6f4fbdb3b976eb702c448c8349f69c0df7022049359ae31c24a577d02db152c730eb6ac03e506d58a053816d8634ac23cd6066[ALL] 02b44b2e7168a34db84f5828ceba0dfbdacc0385f8b3a5c51293263b5b27716bf1"}, "vout": 0, "txid": "3739ab6a73a18c2e3d21c71b63d515173ed7bcf6660ff51085c669a8f32abe23"}, {"sequence": 4294967293, "scriptSig": {"hex": "47304402205c1310056effe3a6fe6bd41078495bbc63b502437c1063703e36f337bd0f7b7902204eac927b907ba8b9e5bc92d59b883a9b52804c563711e438e413b83a4a21790e0121029bf00c75274ee5fd6a2c06b42d8f754e55327304a84d10c73eb161068a47d454", "asm": "304402205c1310056effe3a6fe6bd41078495bbc63b502437c1063703e36f337bd0f7b7902204eac927b907ba8b9e5bc92d59b883a9b52804c563711e438e413b83a4a21790e[ALL] 029bf00c75274ee5fd6a2c06b42d8f754e55327304a84d10c73eb161068a47d454"}, "vout": 1, "txid": "489977ec75a2f4e9a16fc7e5206ec2ce7a72c2610c46065f356f0bf1de02b5d8"}, {"sequence": 4294967293, "scriptSig": {"hex": "483045022100c1cba62476ca3928214e5b987a4048f886e29aa108dd42d462d1400c29e6220d0220378100e09cf57e4142ce336e686727b6b73890e2e6033ff04513c1887587f69f012103975c04ebf2e8a292fb14301b8dfa5f65f531195faac3e88caf99e91db6d71889", "asm": "3045022100c1cba62476ca3928214e5b987a4048f886e29aa108dd42d462d1400c29e6220d0220378100e09cf57e4142ce336e686727b6b73890e2e6033ff04513c1887587f69f[ALL] 03975c04ebf2e8a292fb14301b8dfa5f65f531195faac3e88caf99e91db6d71889"}, "vout": 0, "txid": "497f0bdc312a4465b4aebdb579dcfc7c88796aadc0dc993e249be77b9a82d1ca"}, {"sequence": 4294967293, "scriptSig": {"hex": "47304402203fb0722a361ad6e1643e4811be0ad318628e1c54ad2815767e626097829e64fa0220277c18edc0909cdceb8c234e47a53354589a7f6cdfd1a64e8455dc0a5f071e380121029bf00c75274ee5fd6a2c06b42d8f754e55327304a84d10c73eb161068a47d454", "asm": "304402203fb0722a361ad6e1643e4811be0ad318628e1c54ad2815767e626097829e64fa0220277c18edc0909cdceb8c234e47a53354589a7f6cdfd1a64e8455dc0a5f071e38[ALL] 029bf00c75274ee5fd6a2c06b42d8f754e55327304a84d10c73eb161068a47d454"}, "vout": 0, "txid": "4e9396d14de34c49a870f303851724fbc8906b9e8bffe3346c19bc595ffebbdd"}, {"sequence": 4294967293, "scriptSig": {"hex": "48304502210086cce15003375afca78a6f4ee8e18ff9200c13874ac90ce1344aae7ad93445e402206f3abd6f50b4c6a7506142efdaecd4efb4abb6787f4ed947b2254c74e2f92d280121029bf00c75274ee5fd6a2c06b42d8f754e55327304a84d10c73eb161068a47d454", "asm": "304502210086cce15003375afca78a6f4ee8e18ff9200c13874ac90ce1344aae7ad93445e402206f3abd6f50b4c6a7506142efdaecd4efb4abb6787f4ed947b2254c74e2f92d28[ALL] 029bf00c75274ee5fd6a2c06b42d8f754e55327304a84d10c73eb161068a47d454"}, "vout": 1, "txid": "61e5ec3e3e4fc294a10c5aead20642aba6f074a322365e2d82b37db121c6442e"}, {"sequence": 4294967293, "scriptSig": {"hex": "4730440220539fd6f44c5236215ccf74abe3f2adafc5230ccdc0b51a9539df7e64932b3cff022076573a5d83e75b22b2fa6b8cb543f4605dd6d758885e9bd8661955cc469e1249012102257b0051a2fc5b5d865957d7dc3aebba80afbb11bc32f72a02a3219337c19e44", "asm": "30440220539fd6f44c5236215ccf74abe3f2adafc5230ccdc0b51a9539df7e64932b3cff022076573a5d83e75b22b2fa6b8cb543f4605dd6d758885e9bd8661955cc469e1249[ALL] 02257b0051a2fc5b5d865957d7dc3aebba80afbb11bc32f72a02a3219337c19e44"}, "vout": 0, "txid": "6ba07c08664f4bf06d1ffd1e4eb27da6c2bdff6cbe80d9081a1790ced21129e4"}, {"sequence": 4294967293, "scriptSig": {"hex": "483045022100bccbefd70ceda8a6b46d686a6382b29a846c78390ee3b6c716c970c4b124c35902204f4afd39f3433495e09e400eca887429a4528a5d71bda64c43bac68b859c3af90121029bf00c75274ee5fd6a2c06b42d8f754e55327304a84d10c73eb161068a47d454", "asm": "3045022100bccbefd70ceda8a6b46d686a6382b29a846c78390ee3b6c716c970c4b124c35902204f4afd39f3433495e09e400eca887429a4528a5d71bda64c43bac68b859c3af9[ALL] 029bf00c75274ee5fd6a2c06b42d8f754e55327304a84d10c73eb161068a47d454"}, "vout": 0, "txid": "77808e5b4326c32236ed685214d89e1689de7687429fcb337b08a674734c8379"}, {"sequence": 4294967293, "scriptSig": {"hex": "47304402207a99fb9d6c2988c736f5585c863c43f9b4e340a1b56629f9d39d7881d3ed01bb02203e4c0413ba5b071052bfaff62bb7e81e4651334a01057c5cc314b149295fd5a20121029bf00c75274ee5fd6a2c06b42d8f754e55327304a84d10c73eb161068a47d454", "asm": "304402207a99fb9d6c2988c736f5585c863c43f9b4e340a1b56629f9d39d7881d3ed01bb02203e4c0413ba5b071052bfaff62bb7e81e4651334a01057c5cc314b149295fd5a2[ALL] 029bf00c75274ee5fd6a2c06b42d8f754e55327304a84d10c73eb161068a47d454"}, "vout": 1, "txid": "78c6dbe464f35a5a122a1f9abeea1a0c07cd2ee419d0c3c67ba89267a78f915d"}, {"sequence": 4294967293, "scriptSig": {"hex": "48304502210084a62157016c9d393e3daf4a9a30404d894a2e6ea5ec49853616a88a98016c2a02205cd5a488bd01a2381dc4fc331ecec026dd70f42adeb77f327c141a03edae43bb012102e7508fac9de413cb91500ab8586690bf5a2bf78dfce6233bd6741bc3bc61e4ac", "asm": "304502210084a62157016c9d393e3daf4a9a30404d894a2e6ea5ec49853616a88a98016c2a02205cd5a488bd01a2381dc4fc331ecec026dd70f42adeb77f327c141a03edae43bb[ALL] 02e7508fac9de413cb91500ab8586690bf5a2bf78dfce6233bd6741bc3bc61e4ac"}, "vout": 0, "txid": "93ebab3fdec5e02d2a8794c33ed449393034dc62f2c226390d15eda793fcf709"}, {"sequence": 4294967293, "scriptSig": {"hex": "47304402207a05ee8c1c1688c373ff539f18c3577eef939d830f8397e77ed2f84e7e064a340220225b16fde3cfbbaf67312aa8f2f3af174912d20e29e481dc270ce5dac14970e80121029bf00c75274ee5fd6a2c06b42d8f754e55327304a84d10c73eb161068a47d454", "asm": "304402207a05ee8c1c1688c373ff539f18c3577eef939d830f8397e77ed2f84e7e064a340220225b16fde3cfbbaf67312aa8f2f3af174912d20e29e481dc270ce5dac14970e8[ALL] 029bf00c75274ee5fd6a2c06b42d8f754e55327304a84d10c73eb161068a47d454"}, "vout": 0, "txid": "94ddd5fc4f28b5811ae186ea3d5d469742525034578583c3ac00a4a7ea69931a"}, {"sequence": 4294967293, "scriptSig": {"hex": "483045022100e8dc5112846a80240073ec797dc4fc7619302d2cdc47ed7d60cdd0aaa4b1066d022016e96513e2f8bf755e1380c9908c788b44c8c8f27b305e7b681b268cc970b1b10121029bf00c75274ee5fd6a2c06b42d8f754e55327304a84d10c73eb161068a47d454", "asm": "3045022100e8dc5112846a80240073ec797dc4fc7619302d2cdc47ed7d60cdd0aaa4b1066d022016e96513e2f8bf755e1380c9908c788b44c8c8f27b305e7b681b268cc970b1b1[ALL] 029bf00c75274ee5fd6a2c06b42d8f754e55327304a84d10c73eb161068a47d454"}, "vout": 1, "txid": "9645b9146cbd1190d0ef252e07829293a0f68125382b809ae08a459537189a8b"}, {"sequence": 4294967293, "scriptSig": {"hex": "47304402203dc2c1e438003739339d66ada273b70e1174721d03ee3640a3b909c8498b3e4702205954a5d822b863df90a4f1bb6b3d12f824e9c8164b5f3f0051e3db654c0b35170121029bf00c75274ee5fd6a2c06b42d8f754e55327304a84d10c73eb161068a47d454", "asm": "304402203dc2c1e438003739339d66ada273b70e1174721d03ee3640a3b909c8498b3e4702205954a5d822b863df90a4f1bb6b3d12f824e9c8164b5f3f0051e3db654c0b3517[ALL] 029bf00c75274ee5fd6a2c06b42d8f754e55327304a84d10c73eb161068a47d454"}, "vout": 6, "txid": "a8be534346a64cefc5303e4d86635d551adfb052e024f7787ac98000bfa0e8dd"}, {"sequence": 4294967293, "scriptSig": {"hex": "47304402206b060cb5775c86db603083b79a9248faa38983673439a0277250ade5c83c77a9022014819c335c55f6aeca6c4264a7b070ad6ca4b693a13ec0e08b5dfdd116c4b7720121029bf00c75274ee5fd6a2c06b42d8f754e55327304a84d10c73eb161068a47d454", "asm": "304402206b060cb5775c86db603083b79a9248faa38983673439a0277250ade5c83c77a9022014819c335c55f6aeca6c4264a7b070ad6ca4b693a13ec0e08b5dfdd116c4b772[ALL] 029bf00c75274ee5fd6a2c06b42d8f754e55327304a84d10c73eb161068a47d454"}, "vout": 0, "txid": "a96cdec53b5e6880669e6b650288f6c68285a1f3215e3a3e1e3d1bf943ca7597"}, {"sequence": 4294967293, "scriptSig": {"hex": "4730440220754fd71cb8d9f13a7f476c58cb7316ba7dac308750ce16a644177a8aad0537b102206fe4ab89cc47a4d88e50adff1609fa295b875a287ca4c3fa35e4fbfcbaeba6690121029bf00c75274ee5fd6a2c06b42d8f754e55327304a84d10c73eb161068a47d454", "asm": "30440220754fd71cb8d9f13a7f476c58cb7316ba7dac308750ce16a644177a8aad0537b102206fe4ab89cc47a4d88e50adff1609fa295b875a287ca4c3fa35e4fbfcbaeba669[ALL] 029bf00c75274ee5fd6a2c06b42d8f754e55327304a84d10c73eb161068a47d454"}, "vout": 0, "txid": "ad81acaac44918cc1dac92831f507d7ceef186ec10e70d8a5a0d60ab212cdb23"}, {"sequence": 4294967293, "scriptSig": {"hex": "483045022100dab0e1206e2b569f837b5b9793581cf531c917649183967d55ad886ead5e349c0220744ecf1f06a8b8a834bb54c5dd02c17f13eacce07aaaf40ada735f18420aee410121029bf00c75274ee5fd6a2c06b42d8f754e55327304a84d10c73eb161068a47d454", "asm": "3045022100dab0e1206e2b569f837b5b9793581cf531c917649183967d55ad886ead5e349c0220744ecf1f06a8b8a834bb54c5dd02c17f13eacce07aaaf40ada735f18420aee41[ALL] 029bf00c75274ee5fd6a2c06b42d8f754e55327304a84d10c73eb161068a47d454"}, "vout": 1, "txid": "b0b6d5919f0438871240846bd3e4a617ecfd9e1fba404acd79e722767392662f"}, {"sequence": 4294967293, "scriptSig": {"hex": "483045022100f689f2c9bf8c658edd64c53ddc1ad955aba6200531fff067ae5dcfa22a030f7902201a060e0a09bf4900936c37cd8ea39beea921441d5dbe81a58eff3988683e821a012103975c04ebf2e8a292fb14301b8dfa5f65f531195faac3e88caf99e91db6d71889", "asm": "3045022100f689f2c9bf8c658edd64c53ddc1ad955aba6200531fff067ae5dcfa22a030f7902201a060e0a09bf4900936c37cd8ea39beea921441d5dbe81a58eff3988683e821a[ALL] 03975c04ebf2e8a292fb14301b8dfa5f65f531195faac3e88caf99e91db6d71889"}, "vout": 0, "txid": "b44bf85744aac1427b4fac63e0180129d783db48389d52e8279dd423f57f7b42"}, {"sequence": 4294967293, "scriptSig": {"hex": "483045022100d45d4b57997d5aaa3a065fed068dcb1b8be276b91bcf6b71427ca49802f1897802202fc9e2d1f5083524fb60cc05feb5e053993a56b1ee74b693ee066cfa6475d4cb01210315079d6727091a111095dabe22a939eda0067639b79c66d16c0889d50166e989", "asm": "3045022100d45d4b57997d5aaa3a065fed068dcb1b8be276b91bcf6b71427ca49802f1897802202fc9e2d1f5083524fb60cc05feb5e053993a56b1ee74b693ee066cfa6475d4cb[ALL] 0315079d6727091a111095dabe22a939eda0067639b79c66d16c0889d50166e989"}, "vout": 1, "txid": "bf6058f0f4545a33b9506a21994b7549b2dd86059b749238a8122009d8cad4ac"}, {"sequence": 4294967293, "scriptSig": {"hex": "473044022059397ebbae36bb572851992d27db1d3a9acf7efc59f941ad29adc1ed2fa0c32d022019f2e50884fad9ca96d343a90662508c1ac621f609a31b42be8e04708e7e47570121029bf00c75274ee5fd6a2c06b42d8f754e55327304a84d10c73eb161068a47d454", "asm": "3044022059397ebbae36bb572851992d27db1d3a9acf7efc59f941ad29adc1ed2fa0c32d022019f2e50884fad9ca96d343a90662508c1ac621f609a31b42be8e04708e7e4757[ALL] 029bf00c75274ee5fd6a2c06b42d8f754e55327304a84d10c73eb161068a47d454"}, "vout": 1, "txid": "e05e33dd94129e31fbdd71cdd8c8a4a9e31bce20519ae8c213b6d6dc2c60031c"}, {"sequence": 4294967293, "scriptSig": {"hex": "483045022100be1ceb11bcecad5661f2779c1b0f0a817bf3b576f4481c4c5c78c9887933afba02201eb76927a40f74ec36e31f615aaa2d799157f1df1620a9946f42337b5d7f943c012102cf31a1714fa5042b512f8711016a6290be7304f0c760a2dfb1a7f3e64094a878", "asm": "3045022100be1ceb11bcecad5661f2779c1b0f0a817bf3b576f4481c4c5c78c9887933afba02201eb76927a40f74ec36e31f615aaa2d799157f1df1620a9946f42337b5d7f943c[ALL] 02cf31a1714fa5042b512f8711016a6290be7304f0c760a2dfb1a7f3e64094a878"}, "vout": 1, "txid": "e24faef8cfbf8e5f3a4607954a747c9cd811d2d6e48b7e1eedefe9e6084f39ec"}, {"sequence": 4294967293, "scriptSig": {"hex": "4830450221009bc7ac821dfdc6e0d57f21b00aded4b9c19386897558ee0426d5a1696773f892022071b7a5c38608b8326c81fe3edf6bee9403da5e2f7fa16bfa630a09f3b473e68b0121029bf00c75274ee5fd6a2c06b42d8f754e55327304a84d10c73eb161068a47d454", "asm": "30450221009bc7ac821dfdc6e0d57f21b00aded4b9c19386897558ee0426d5a1696773f892022071b7a5c38608b8326c81fe3edf6bee9403da5e2f7fa16bfa630a09f3b473e68b[ALL] 029bf00c75274ee5fd6a2c06b42d8f754e55327304a84d10c73eb161068a47d454"}, "vout": 1, "txid": "e6b9a9dec70abe0a30b538c04af0b0a008d84a899ac73f4749f520179c9de05f"}, {"sequence": 4294967293, "scriptSig": {"hex": "483045022100db3733d7d56045b6bc22a91e87578bbb2fe247d0c884931b4433efa25199f4260220140f92d8dda10bbc704dd31477cea0f723b1e899f4d3f0dc1f869d560fb2cc130121029bf00c75274ee5fd6a2c06b42d8f754e55327304a84d10c73eb161068a47d454", "asm": "3045022100db3733d7d56045b6bc22a91e87578bbb2fe247d0c884931b4433efa25199f4260220140f92d8dda10bbc704dd31477cea0f723b1e899f4d3f0dc1f869d560fb2cc13[ALL] 029bf00c75274ee5fd6a2c06b42d8f754e55327304a84d10c73eb161068a47d454"}, "vout": 1, "txid": "e74a2cdbfd75827dcfafb56912b1de842c80b6a718dcf19e2cf74958941de77b"}], "txid": "8ff6b01c681752c89130bbfdd9a202ad8f6abfb1361eed853479d9ba0f4502e7", "blocktime": 1537870268, "version": 1, "confirmations": 11519, "time": 1537870268, "locktime": 542988, "vsize": 3732, "size": 3732}