{"hash": "8ff73c4a2b61678700df19492bbb715ab27b192a40fe892aa2e552e7de0a9eb6", "blockhash": "00000000000000000018f53835495a110e01622372bf6ae95dc86f2b0ab887b0", "vout": [{"scriptPubKey": {"reqSigs": 1, "hex": "76a914d34aca7f24b72b75b3dc5382dd3cf48e9630618388ac", "addresses": ["1LGDB3gLtVFmFPrJU12kXxn93FK5L7LrYV"], "asm": "OP_DUP OP_HASH160 d34aca7f24b72b75b3dc5382dd3cf48e96306183 OP_EQUALVERIFY OP_CHECKSIG", "type": "pubkeyhash"}, "value": 0.00168017, "n": 0}, {"scriptPubKey": {"reqSigs": 1, "hex": "76a914997f9876e97cdc2d87afc1b113f6e84eebb684fb88ac", "addresses": ["1EzdEr2aCzPNoFKVh5PhNPThkr5NVaLy2K"], "asm": "OP_DUP OP_HASH160 997f9876e97cdc2d87afc1b113f6e84eebb684fb OP_EQUALVERIFY OP_CHECKSIG", "type": "pubkeyhash"}, "value": 0.012, "n": 1}], "hex": "0100000001e51ea6259f3a5f55fb34588d6c39d4a9763e6908def3947dc89c68b2e0bbd686010000006b483045022100c489958f82010fdb648cd81e7b7c2f0b7aaba8812b6580546dc4c2f318023f1202201fd8422a124c527a5e275b9319159b8b2236e5892186683c5c1fb8b3455d2cde01210349735cd9d51f429bb710ff8b165dfe33c4ca227c39f7782d6bcd5fcb2c758385ffffffff0251900200000000001976a914d34aca7f24b72b75b3dc5382dd3cf48e9630618388ac804f1200000000001976a914997f9876e97cdc2d87afc1b113f6e84eebb684fb88ac00000000", "vin": [{"sequence": 4294967295, "scriptSig": {"hex": "483045022100c489958f82010fdb648cd81e7b7c2f0b7aaba8812b6580546dc4c2f318023f1202201fd8422a124c527a5e275b9319159b8b2236e5892186683c5c1fb8b3455d2cde01210349735cd9d51f429bb710ff8b165dfe33c4ca227c39f7782d6bcd5fcb2c758385", "asm": "3045022100c489958f82010fdb648cd81e7b7c2f0b7aaba8812b6580546dc4c2f318023f1202201fd8422a124c527a5e275b9319159b8b2236e5892186683c5c1fb8b3455d2cde[ALL] 0349735cd9d51f429bb710ff8b165dfe33c4ca227c39f7782d6bcd5fcb2c758385"}, "vout": 1, "txid": "86d6bbe0b2689cc87d94f3de08693e76a9d4396c8d5834fb555f3a9f25a61ee5"}], "txid": "8ff73c4a2b61678700df19492bbb715ab27b192a40fe892aa2e552e7de0a9eb6", "blocktime": 1537870928, "version": 1, "confirmations": 11514, "time": 1537870928, "locktime": 0, "vsize": 226, "size": 226}