{"hash": "a21ec847d19ee3e3b984fe47c496a8a7e4a50f5743c1a7c06842b647f4370628", "blockhash": "00000000000000000024a2167bbff67b0be802c0b01cdd79e6331c2be6459f87", "vout": [{"scriptPubKey": {"reqSigs": 1, "hex": "76a9140dfa18026f859fc1addbcd4faff811c2caa462af88ac", "addresses": ["12GuPKFsCJBDPMgKMH197KEmiJACQ8bGA6"], "asm": "OP_DUP OP_HASH160 0dfa18026f859fc1addbcd4faff811c2caa462af OP_EQUALVERIFY OP_CHECKSIG", "type": "pubkeyhash"}, "value": 0.0027476, "n": 0}, {"scriptPubKey": {"reqSigs": 1, "hex": "a9145e0a8e66d777b62dd438860998c283bc2c08c4b987", "addresses": ["3AGG6382tKdrGo2yWXDT7m7t2EyU9LU8DH"], "asm": "OP_HASH160 5e0a8e66d777b62dd438860998c283bc2c08c4b9 OP_EQUAL", "type": "scripthash"}, "value": 0.00999398, "n": 1}], "hex": "0200000000010285564ead35108a55cc1d94e8200d723183730cb1d2e2ab49ca6cdbcb03bd725d0100000017160014d05825014ca2d8893d5216348bc115aca3b55bf3feffffffd336b115167e34d1301a24e6c1a57f471e9c3ba33d85bfb24e1afc6f2f6f33f8000000001716001483a20d6f4e237b36f452a54d23c9aba5909c87f5feffffff0248310400000000001976a9140dfa18026f859fc1addbcd4faff811c2caa462af88ace63f0f000000000017a9145e0a8e66d777b62dd438860998c283bc2c08c4b98702473044022078e9f0867ce6febd8476110b8d791f5349ee08913e6d4eb1746871a1d13c4ec602204b2868c5fb6e15bda2a976c52774e19582ee59c6b46dea688096e9af4de1a9ad012103f143c93aeae0dd74bb747783d5b625e4cff38abfa7c0cce8f609b62f2319264602483045022100e7268cf1eb664890d9f13dc61cb2c411a0f4c7b9d8eb8cc80d53f7688a94d1fa02206cc22407748a0c2378fd6e7404589ddcf32dbd077de0e8f969deeb735fdb42cb012102fadae5babb5936f194b59ab6985ee34f1c74d6790e8a0d8b87537cebd69d94a50d490800", "vin": [{"txinwitness": ["3044022078e9f0867ce6febd8476110b8d791f5349ee08913e6d4eb1746871a1d13c4ec602204b2868c5fb6e15bda2a976c52774e19582ee59c6b46dea688096e9af4de1a9ad01", "03f143c93aeae0dd74bb747783d5b625e4cff38abfa7c0cce8f609b62f23192646"], "sequence": 4294967294, "scriptSig": {"hex": "160014d05825014ca2d8893d5216348bc115aca3b55bf3", "asm": "0014d05825014ca2d8893d5216348bc115aca3b55bf3"}, "vout": 1, "txid": "5d72bd03cbdb6cca49abe2d2b10c738331720d20e8941dcc558a1035ad4e5685"}, {"txinwitness": ["3045022100e7268cf1eb664890d9f13dc61cb2c411a0f4c7b9d8eb8cc80d53f7688a94d1fa02206cc22407748a0c2378fd6e7404589ddcf32dbd077de0e8f969deeb735fdb42cb01", "02fadae5babb5936f194b59ab6985ee34f1c74d6790e8a0d8b87537cebd69d94a5"], "sequence": 4294967294, "scriptSig": {"hex": "16001483a20d6f4e237b36f452a54d23c9aba5909c87f5", "asm": "001483a20d6f4e237b36f452a54d23c9aba5909c87f5"}, "vout": 0, "txid": "f8336f2f6ffc1a4eb2bf853da33b9c1e477fa5c1e6241a30d1347e1615b136d3"}], "txid": "9005b3d65a2e34e1a2a421cb45cc1819dcb30d372b9b52c428283c08c06fe01f", "blocktime": 1537870564, "version": 2, "confirmations": 11515, "time": 1537870564, "locktime": 542989, "vsize": 259, "size": 421}