{"hash": "9007d92bbbcd1e9eda6c1d77305779d56128593800782fe57624707db3073c31", "blockhash": "0000000000000000001cda96e906b7601b7a6fb1a3b62bca570a9e5d8f4b3de1", "vout": [{"scriptPubKey": {"reqSigs": 1, "hex": "76a914ad8b4f51fa2ab077c06907f665c39cbbf114a62d88ac", "addresses": ["1Gpcnc44cdBbFuQRA11UZoyef4VuJxPCkE"], "asm": "OP_DUP OP_HASH160 ad8b4f51fa2ab077c06907f665c39cbbf114a62d OP_EQUALVERIFY OP_CHECKSIG", "type": "pubkeyhash"}, "value": 0.0744625, "n": 0}, {"scriptPubKey": {"reqSigs": 1, "hex": "76a9145128f9bae55e98bc6956ae3fc818f244efffef8188ac", "addresses": ["18Q8pZrdAgwMWMyX4yowAyKvfzWhpAasbp"], "asm": "OP_DUP OP_HASH160 5128f9bae55e98bc6956ae3fc818f244efffef81 OP_EQUALVERIFY OP_CHECKSIG", "type": "pubkeyhash"}, "value": 0.124904, "n": 1}], "hex": "0100000002ef9e11cdb77e6dc36f5367ade6fd909bffa2e4587fc68d424f5f3cd0dcd229c6030000006b483045022100ec49b2db5ce5647d39b08f491b5ffdfcb297f2a4a376855d8bd4e14cf1ae4780022031e204030365642d48f96110204b0710d21296f139466de0c5d6dcf7ce6ef3e7012103e739e0d1165f73bd4480c7f9203ca4f703afbbe5cdff69cdf11d0edcbf174097ffffffffd9ac68769d0f762ae5b7183c769fa299b345208d7960f58505e775359c7faac7010000006a4730440220688e84f965edbf35a6431255b7080fc8bdee1d6e11621c1583b6f4d2858bec120220797af06470dfc0ab95aaf6525c68244316bd2871374e0387a418dfe5ec0e9f23012103cd11b0ce93e0a9369b6476d93a702d1e97fece6f7b6041c4f2fa6c2bf514d205ffffffff02ea9e7100000000001976a914ad8b4f51fa2ab077c06907f665c39cbbf114a62d88aca096be00000000001976a9145128f9bae55e98bc6956ae3fc818f244efffef8188ac00000000", "vin": [{"sequence": 4294967295, "scriptSig": {"hex": "483045022100ec49b2db5ce5647d39b08f491b5ffdfcb297f2a4a376855d8bd4e14cf1ae4780022031e204030365642d48f96110204b0710d21296f139466de0c5d6dcf7ce6ef3e7012103e739e0d1165f73bd4480c7f9203ca4f703afbbe5cdff69cdf11d0edcbf174097", "asm": "3045022100ec49b2db5ce5647d39b08f491b5ffdfcb297f2a4a376855d8bd4e14cf1ae4780022031e204030365642d48f96110204b0710d21296f139466de0c5d6dcf7ce6ef3e7[ALL] 03e739e0d1165f73bd4480c7f9203ca4f703afbbe5cdff69cdf11d0edcbf174097"}, "vout": 3, "txid": "c629d2dcd03c5f4f428dc67f58e4a2ff9b90fde6ad67536fc36d7eb7cd119eef"}, {"sequence": 4294967295, "scriptSig": {"hex": "4730440220688e84f965edbf35a6431255b7080fc8bdee1d6e11621c1583b6f4d2858bec120220797af06470dfc0ab95aaf6525c68244316bd2871374e0387a418dfe5ec0e9f23012103cd11b0ce93e0a9369b6476d93a702d1e97fece6f7b6041c4f2fa6c2bf514d205", "asm": "30440220688e84f965edbf35a6431255b7080fc8bdee1d6e11621c1583b6f4d2858bec120220797af06470dfc0ab95aaf6525c68244316bd2871374e0387a418dfe5ec0e9f23[ALL] 03cd11b0ce93e0a9369b6476d93a702d1e97fece6f7b6041c4f2fa6c2bf514d205"}, "vout": 1, "txid": "c7aa7f9c3575e70585f560798d2045b399a29f763c18b7e52a760f9d7668acd9"}], "txid": "9007d92bbbcd1e9eda6c1d77305779d56128593800782fe57624707db3073c31", "blocktime": 1537873282, "version": 1, "confirmations": 11484, "time": 1537873282, "locktime": 0, "vsize": 373, "size": 373}