{"hash": "9013e0a9eb8f96b59eaac82af8642f361b79ad06122ec82909c69322d8fec64c", "blockhash": "00000000000000000018f53835495a110e01622372bf6ae95dc86f2b0ab887b0", "vout": [{"scriptPubKey": {"reqSigs": 1, "hex": "76a914e18699449d7f2ab95323059472cc75cd700757a588ac", "addresses": ["1MZUHF8oSnswqCkrguAmGboqCX4mdc7ZCJ"], "asm": "OP_DUP OP_HASH160 e18699449d7f2ab95323059472cc75cd700757a5 OP_EQUALVERIFY OP_CHECKSIG", "type": "pubkeyhash"}, "value": 0.003915, "n": 0}], "hex": "0100000003340df37f496566ac00d873458dc4153fecd19047a9cc2be9b4eb6c373a139904010000006a47304402203b980e40eafdd0f686280c2b21a2137f99299471a6033fe2387535f0e34499e802202c08dd5330f48f5c4eb06d92ee26965d2271d74e65c4fc15199271814d367f0701210321762d1899520eab6924ee7c2ccfb06fec73929473064e3609750f2164838fb2ffffffff222effbd2301ce4f2b5f9134a0814cb11370444f6469a995ef7a187841a0afff010000006a4730440220263aabc24576219ad581aff7702d3d69f858884791b871737db19c96ffe5717102200aca9ec1835db1ff56ccf6ef4669e60b695a4d5f94cad3b6102562f38eb38d260121021dd736b6e27831dd9a142a64d9eef807a94d96274979cc9a10dba51b91c94bb8ffffffff5d7a5826fbd2e66d58e840a897a52491f6c70aa99acbc656bf337b2b3a02e95e010000006b483045022100e77b67021a8e1f536acac69ec5ed52bceb29ff239712e199d0eb2cd2a91e1fce0220154dbb55a7f3c4360291118f69f3ee6f8a9043cd4db2fd8cc7acf5d4f2df372e012103af59b7a3f5b36f224558e018d0962cf78995b5ef7c93f4168eedb247a5743182ffffffff014cf90500000000001976a914e18699449d7f2ab95323059472cc75cd700757a588ac00000000", "vin": [{"sequence": 4294967295, "scriptSig": {"hex": "47304402203b980e40eafdd0f686280c2b21a2137f99299471a6033fe2387535f0e34499e802202c08dd5330f48f5c4eb06d92ee26965d2271d74e65c4fc15199271814d367f0701210321762d1899520eab6924ee7c2ccfb06fec73929473064e3609750f2164838fb2", "asm": "304402203b980e40eafdd0f686280c2b21a2137f99299471a6033fe2387535f0e34499e802202c08dd5330f48f5c4eb06d92ee26965d2271d74e65c4fc15199271814d367f07[ALL] 0321762d1899520eab6924ee7c2ccfb06fec73929473064e3609750f2164838fb2"}, "vout": 1, "txid": "0499133a376cebb4e92bcca94790d1ec3f15c48d4573d800ac6665497ff30d34"}, {"sequence": 4294967295, "scriptSig": {"hex": "4730440220263aabc24576219ad581aff7702d3d69f858884791b871737db19c96ffe5717102200aca9ec1835db1ff56ccf6ef4669e60b695a4d5f94cad3b6102562f38eb38d260121021dd736b6e27831dd9a142a64d9eef807a94d96274979cc9a10dba51b91c94bb8", "asm": "30440220263aabc24576219ad581aff7702d3d69f858884791b871737db19c96ffe5717102200aca9ec1835db1ff56ccf6ef4669e60b695a4d5f94cad3b6102562f38eb38d26[ALL] 021dd736b6e27831dd9a142a64d9eef807a94d96274979cc9a10dba51b91c94bb8"}, "vout": 1, "txid": "ffafa04178187aef95a969644f447013b14c81a034915f2b4fce0123bdff2e22"}, {"sequence": 4294967295, "scriptSig": {"hex": "483045022100e77b67021a8e1f536acac69ec5ed52bceb29ff239712e199d0eb2cd2a91e1fce0220154dbb55a7f3c4360291118f69f3ee6f8a9043cd4db2fd8cc7acf5d4f2df372e012103af59b7a3f5b36f224558e018d0962cf78995b5ef7c93f4168eedb247a5743182", "asm": "3045022100e77b67021a8e1f536acac69ec5ed52bceb29ff239712e199d0eb2cd2a91e1fce0220154dbb55a7f3c4360291118f69f3ee6f8a9043cd4db2fd8cc7acf5d4f2df372e[ALL] 03af59b7a3f5b36f224558e018d0962cf78995b5ef7c93f4168eedb247a5743182"}, "vout": 1, "txid": "5ee9023a2b7b33bf56c6cb9aa90ac7f69124a597a840e8586de6d2fb26587a5d"}], "txid": "9013e0a9eb8f96b59eaac82af8642f361b79ad06122ec82909c69322d8fec64c", "blocktime": 1537870928, "version": 1, "confirmations": 11512, "time": 1537870928, "locktime": 0, "vsize": 486, "size": 486}