{"hash": "9015fe2a952e14542aaa989bfeb8f080e88e7a4f291b6ca59662f00ff10575b3", "blockhash": "0000000000000000000e13cef7c366c0283d82e591d1acd082e914b08063cdf1", "vout": [{"scriptPubKey": {"reqSigs": 1, "hex": "76a914e6f7206962e2da3aacb9286b686f58857d8fc0ae88ac", "addresses": ["1N4ETnAhrhMw8cMxVv6pRvBmkmYndVdttL"], "asm": "OP_DUP OP_HASH160 e6f7206962e2da3aacb9286b686f58857d8fc0ae OP_EQUALVERIFY OP_CHECKSIG", "type": "pubkeyhash"}, "value": 8.301e-05, "n": 0}, {"scriptPubKey": {"reqSigs": 1, "hex": "76a9144eb3cf6fa5e9143a2bf0550eaf9d8054b853a2b088ac", "addresses": ["18B97QGqK7dGi8bMCPkNTdf5hd5ZVpyUc6"], "asm": "OP_DUP OP_HASH160 4eb3cf6fa5e9143a2bf0550eaf9d8054b853a2b0 OP_EQUALVERIFY OP_CHECKSIG", "type": "pubkeyhash"}, "value": 0.15295868, "n": 1}], "hex": "0100000010e8823c7fda2f8b4ce548f368359b22b464d13fdec1b8db4307f945485a08b006000000006b483045022100e28c473da040640cdea0b04cd6a4b967bf76df87deb1febd3b1f8f3703ab5fca02201ba51a1de2d50947e9a94d3cc6ddc7f156052092ae26c6ee26f8efcb7d4a6ae901210227ba97e4bfd7225678c018ec6deced391c9358e8b313e7e5407b4591d6135141ffffffff57405beb00b616d629d97a3a19f9dc834fba6d08d4e08ef82afd33c31c3a7407000000006a4730440220179e12258c32d924424efd53d2091189a1762595ce5ed3e4f3c1bebcde80267702204cb346e13c82ba62980208a767dc6754aca6cf2970be844f4c0cc103ec1d307001210227ba97e4bfd7225678c018ec6deced391c9358e8b313e7e5407b4591d6135141ffffffff171a51a79ca3d75cecce7e6eb553067ebf93ffefe35863c183371fe1b64e531a000000006b483045022100ab3e811cce7de2b2613aaf874dfec5767419cfbbc4284b955f165cc685d77522022003d6fecad4a41d262f7d979498858f163cdc10021390981029ee3a330801cb3401210227ba97e4bfd7225678c018ec6deced391c9358e8b313e7e5407b4591d6135141fffffffff919f827e3d8ff54acc3ca152c4594786d0079a79e5f13a57ff99d914f4f791e000000006a47304402205af2a00c7da68cb6d571b140f46745a963f9b4a09fb504255809475d4af975af02204dd552632355d41a442b60ca4e8255edddff124614a3b53723d7fb6ecd3edda501210227ba97e4bfd7225678c018ec6deced391c9358e8b313e7e5407b4591d6135141ffffffffaa9df2e07b0591f89323a6241263a140f2b880b81d14ffd15d013c2284d01031000000006b483045022100c9d0f0e342cdfe0dd79655ff3208a1856575fa08fd5c6c2b3c93720c04c9ba9a0220382b6ef0945008e0dff9704e06ea6c6b35c52a916d9f9db2d73205a73337666601210227ba97e4bfd7225678c018ec6deced391c9358e8b313e7e5407b4591d6135141ffffffff258d33f392dd9c170c0e6d5f6fb6428b9549c05370960230d3c77008ac93e932000000006a47304402204af0ce43b9bb984a8df886067234862cc07e7ac0609b0b992847114bfdb837b102204d29a9f28f4d25165c22f56d0687352d186a612030ea67775f979258fa25459301210227ba97e4bfd7225678c018ec6deced391c9358e8b313e7e5407b4591d6135141ffffffff5e4dbed0adb4b40832ab4a408a363e775c555136894c5f09b91cac6bb72ce149000000006a4730440220066f03c18de6f1f91415351aa4223c5ccb2dd80fa28503dd1d54b7a81dae1d3002205855d634623a92cde5135096e355c7a3a7b08102dbaff6e6e96a7e6f81c238d101210227ba97e4bfd7225678c018ec6deced391c9358e8b313e7e5407b4591d6135141ffffffffac75848b9d6f9c20623727a70f967fc25ff7382b7c878f3307ae17c152c61559000000006a4730440220629716323f8bf99b30d7fa462f4f140bd9649d907ca4aebf23e7f8b97a10d90d02203646d63c347722107dbc2156a066f6fdf2a6600e6ea5453e0ca33fbf884f344801210227ba97e4bfd7225678c018ec6deced391c9358e8b313e7e5407b4591d6135141fffffffff3374d1aa4125d91909ad0a196e3c1d41437030fbb0061b49afaeb580500855c000000006b483045022100a1f0c39ecdca5848ba3413dab5d9745a6f0114b944c22c68205fe5048807013602204785afe30e886cdadda6b94715ddf8ccf9c4559bdfeec4ec0dd240b33153553701210227ba97e4bfd7225678c018ec6deced391c9358e8b313e7e5407b4591d6135141ffffffff75ade352c0c712a1971ca7bf4c6c9d636fda83dc37df082baaf1c7c4c2c98376000000006a473044022073727fa4f0686adc3f1ec4a9c1a192a1ef71c3c5126be129e017f1d096ae73af0220098cb22e7603906e27499b21446c42aec457693f00557a357fb124d31d28898701210227ba97e4bfd7225678c018ec6deced391c9358e8b313e7e5407b4591d6135141ffffffffea81a34d37b915fc0cbfc10ef57dbf01d6346651c51af6d965015e8d24062580000000006b483045022100bcfea7557ba0c3b03bc2e0dd78dd3f13049425eaa75eb5d20564888d6d7a4467022000fc0355f853ae328438be2e23183d1401da7f204837fff7bf186b45fb50981301210227ba97e4bfd7225678c018ec6deced391c9358e8b313e7e5407b4591d6135141ffffffff79fd82ab7b166555e2d9f6360da88af49c90180941c7ea5ca695281a91de6d84000000006b483045022100828cabc7f2d6c7053010563381944bdaedf688748d6b0c3acbca528f40abb90d022005c86e7d1ea3a1a2075a267164ef72f5c7e9c96b2d35a6940f0138ec87ab656001210227ba97e4bfd7225678c018ec6deced391c9358e8b313e7e5407b4591d6135141ffffffffffd189c37d3fa2b367d8b8ecbda8673dd80ca75caf603844403a7cfc9a70178c0000000069463043021f49a8e40b0061215ac9dea3498041b65dcf2d070971c741b3e31364a664a46f02207ee7e1701f589b7413640de5dd7cae3b46940c8a400cb5f33839c340b63d018b01210227ba97e4bfd7225678c018ec6deced391c9358e8b313e7e5407b4591d6135141ffffffff200bfa39ba081bf6c1a3c0cc55b1c98e374235f7f8dc0ac47f351c1723bf40b6000000006b483045022100a7ac818218fbd692b542ac6fc795f1dd85ca3e4e64bf3e05595e48f8066adcc4022049dc5cb259b32c1193db1083693bbc62e902985ccf52f12773dcf8b389abfb8c01210227ba97e4bfd7225678c018ec6deced391c9358e8b313e7e5407b4591d6135141ffffffff29c08609cc6a3f2f58985cb8707e39de41bb6a486f2f4e07356df0eb72f322c7010000006b483045022100d2e3aa8d1b439e59f0908f5c7ba8dc4d2469393bced6c88841cc4a850f9edcb802205397ff7b05d28056502f77edf0a280ac6e4b2b3f25cfb937c8d3fcf02021139701210227ba97e4bfd7225678c018ec6deced391c9358e8b313e7e5407b4591d6135141ffffffffed4d8cddfe6a0e5b9efa337acb20d967f7f18c4c47bcd2b49e4fa5059afa1cdb000000006b483045022100b543e44409c8b71d33bc9c30ed3a359d6bf5e94ac95ca6c9dc1b49818df301fb02202c87c55c9b4d27fda49d779926054863b389965d4104aaa70da751ebc16d272201210227ba97e4bfd7225678c018ec6deced391c9358e8b313e7e5407b4591d6135141ffffffff026d200000000000001976a914e6f7206962e2da3aacb9286b686f58857d8fc0ae88ac7c65e900000000001976a9144eb3cf6fa5e9143a2bf0550eaf9d8054b853a2b088ac00000000", "vin": [{"sequence": 4294967295, "scriptSig": {"hex": "483045022100e28c473da040640cdea0b04cd6a4b967bf76df87deb1febd3b1f8f3703ab5fca02201ba51a1de2d50947e9a94d3cc6ddc7f156052092ae26c6ee26f8efcb7d4a6ae901210227ba97e4bfd7225678c018ec6deced391c9358e8b313e7e5407b4591d6135141", "asm": "3045022100e28c473da040640cdea0b04cd6a4b967bf76df87deb1febd3b1f8f3703ab5fca02201ba51a1de2d50947e9a94d3cc6ddc7f156052092ae26c6ee26f8efcb7d4a6ae9[ALL] 0227ba97e4bfd7225678c018ec6deced391c9358e8b313e7e5407b4591d6135141"}, "vout": 0, "txid": "06b0085a4845f90743dbb8c1de3fd164b4229b3568f348e54c8b2fda7f3c82e8"}, {"sequence": 4294967295, "scriptSig": {"hex": "4730440220179e12258c32d924424efd53d2091189a1762595ce5ed3e4f3c1bebcde80267702204cb346e13c82ba62980208a767dc6754aca6cf2970be844f4c0cc103ec1d307001210227ba97e4bfd7225678c018ec6deced391c9358e8b313e7e5407b4591d6135141", "asm": "30440220179e12258c32d924424efd53d2091189a1762595ce5ed3e4f3c1bebcde80267702204cb346e13c82ba62980208a767dc6754aca6cf2970be844f4c0cc103ec1d3070[ALL] 0227ba97e4bfd7225678c018ec6deced391c9358e8b313e7e5407b4591d6135141"}, "vout": 0, "txid": "07743a1cc333fd2af88ee0d4086dba4f83dcf9193a7ad929d616b600eb5b4057"}, {"sequence": 4294967295, "scriptSig": {"hex": "483045022100ab3e811cce7de2b2613aaf874dfec5767419cfbbc4284b955f165cc685d77522022003d6fecad4a41d262f7d979498858f163cdc10021390981029ee3a330801cb3401210227ba97e4bfd7225678c018ec6deced391c9358e8b313e7e5407b4591d6135141", "asm": "3045022100ab3e811cce7de2b2613aaf874dfec5767419cfbbc4284b955f165cc685d77522022003d6fecad4a41d262f7d979498858f163cdc10021390981029ee3a330801cb34[ALL] 0227ba97e4bfd7225678c018ec6deced391c9358e8b313e7e5407b4591d6135141"}, "vout": 0, "txid": "1a534eb6e11f3783c16358e3efff93bf7e0653b56e7eceec5cd7a39ca7511a17"}, {"sequence": 4294967295, "scriptSig": {"hex": "47304402205af2a00c7da68cb6d571b140f46745a963f9b4a09fb504255809475d4af975af02204dd552632355d41a442b60ca4e8255edddff124614a3b53723d7fb6ecd3edda501210227ba97e4bfd7225678c018ec6deced391c9358e8b313e7e5407b4591d6135141", "asm": "304402205af2a00c7da68cb6d571b140f46745a963f9b4a09fb504255809475d4af975af02204dd552632355d41a442b60ca4e8255edddff124614a3b53723d7fb6ecd3edda5[ALL] 0227ba97e4bfd7225678c018ec6deced391c9358e8b313e7e5407b4591d6135141"}, "vout": 0, "txid": "1e794f4f919df97fa5135f9ea779006d7894452c15cac3ac54ffd8e327f819f9"}, {"sequence": 4294967295, "scriptSig": {"hex": "483045022100c9d0f0e342cdfe0dd79655ff3208a1856575fa08fd5c6c2b3c93720c04c9ba9a0220382b6ef0945008e0dff9704e06ea6c6b35c52a916d9f9db2d73205a73337666601210227ba97e4bfd7225678c018ec6deced391c9358e8b313e7e5407b4591d6135141", "asm": "3045022100c9d0f0e342cdfe0dd79655ff3208a1856575fa08fd5c6c2b3c93720c04c9ba9a0220382b6ef0945008e0dff9704e06ea6c6b35c52a916d9f9db2d73205a733376666[ALL] 0227ba97e4bfd7225678c018ec6deced391c9358e8b313e7e5407b4591d6135141"}, "vout": 0, "txid": "3110d084223c015dd1ff141db880b8f240a1631224a62393f891057be0f29daa"}, {"sequence": 4294967295, "scriptSig": {"hex": "47304402204af0ce43b9bb984a8df886067234862cc07e7ac0609b0b992847114bfdb837b102204d29a9f28f4d25165c22f56d0687352d186a612030ea67775f979258fa25459301210227ba97e4bfd7225678c018ec6deced391c9358e8b313e7e5407b4591d6135141", "asm": "304402204af0ce43b9bb984a8df886067234862cc07e7ac0609b0b992847114bfdb837b102204d29a9f28f4d25165c22f56d0687352d186a612030ea67775f979258fa254593[ALL] 0227ba97e4bfd7225678c018ec6deced391c9358e8b313e7e5407b4591d6135141"}, "vout": 0, "txid": "32e993ac0870c7d33002967053c049958b42b66f5f6d0e0c179cdd92f3338d25"}, {"sequence": 4294967295, "scriptSig": {"hex": "4730440220066f03c18de6f1f91415351aa4223c5ccb2dd80fa28503dd1d54b7a81dae1d3002205855d634623a92cde5135096e355c7a3a7b08102dbaff6e6e96a7e6f81c238d101210227ba97e4bfd7225678c018ec6deced391c9358e8b313e7e5407b4591d6135141", "asm": "30440220066f03c18de6f1f91415351aa4223c5ccb2dd80fa28503dd1d54b7a81dae1d3002205855d634623a92cde5135096e355c7a3a7b08102dbaff6e6e96a7e6f81c238d1[ALL] 0227ba97e4bfd7225678c018ec6deced391c9358e8b313e7e5407b4591d6135141"}, "vout": 0, "txid": "49e12cb76bac1cb9095f4c893651555c773e368a404aab3208b4b4add0be4d5e"}, {"sequence": 4294967295, "scriptSig": {"hex": "4730440220629716323f8bf99b30d7fa462f4f140bd9649d907ca4aebf23e7f8b97a10d90d02203646d63c347722107dbc2156a066f6fdf2a6600e6ea5453e0ca33fbf884f344801210227ba97e4bfd7225678c018ec6deced391c9358e8b313e7e5407b4591d6135141", "asm": "30440220629716323f8bf99b30d7fa462f4f140bd9649d907ca4aebf23e7f8b97a10d90d02203646d63c347722107dbc2156a066f6fdf2a6600e6ea5453e0ca33fbf884f3448[ALL] 0227ba97e4bfd7225678c018ec6deced391c9358e8b313e7e5407b4591d6135141"}, "vout": 0, "txid": "5915c652c117ae07338f877c2b38f75fc27f960fa7273762209c6f9d8b8475ac"}, {"sequence": 4294967295, "scriptSig": {"hex": "483045022100a1f0c39ecdca5848ba3413dab5d9745a6f0114b944c22c68205fe5048807013602204785afe30e886cdadda6b94715ddf8ccf9c4559bdfeec4ec0dd240b33153553701210227ba97e4bfd7225678c018ec6deced391c9358e8b313e7e5407b4591d6135141", "asm": "3045022100a1f0c39ecdca5848ba3413dab5d9745a6f0114b944c22c68205fe5048807013602204785afe30e886cdadda6b94715ddf8ccf9c4559bdfeec4ec0dd240b331535537[ALL] 0227ba97e4bfd7225678c018ec6deced391c9358e8b313e7e5407b4591d6135141"}, "vout": 0, "txid": "5c85000558ebfa9ab46100bb0f033714d4c1e396a1d09a90915d12a41a4d37f3"}, {"sequence": 4294967295, "scriptSig": {"hex": "473044022073727fa4f0686adc3f1ec4a9c1a192a1ef71c3c5126be129e017f1d096ae73af0220098cb22e7603906e27499b21446c42aec457693f00557a357fb124d31d28898701210227ba97e4bfd7225678c018ec6deced391c9358e8b313e7e5407b4591d6135141", "asm": "3044022073727fa4f0686adc3f1ec4a9c1a192a1ef71c3c5126be129e017f1d096ae73af0220098cb22e7603906e27499b21446c42aec457693f00557a357fb124d31d288987[ALL] 0227ba97e4bfd7225678c018ec6deced391c9358e8b313e7e5407b4591d6135141"}, "vout": 0, "txid": "7683c9c2c4c7f1aa2b08df37dc83da6f639d6c4cbfa71c97a112c7c052e3ad75"}, {"sequence": 4294967295, "scriptSig": {"hex": "483045022100bcfea7557ba0c3b03bc2e0dd78dd3f13049425eaa75eb5d20564888d6d7a4467022000fc0355f853ae328438be2e23183d1401da7f204837fff7bf186b45fb50981301210227ba97e4bfd7225678c018ec6deced391c9358e8b313e7e5407b4591d6135141", "asm": "3045022100bcfea7557ba0c3b03bc2e0dd78dd3f13049425eaa75eb5d20564888d6d7a4467022000fc0355f853ae328438be2e23183d1401da7f204837fff7bf186b45fb509813[ALL] 0227ba97e4bfd7225678c018ec6deced391c9358e8b313e7e5407b4591d6135141"}, "vout": 0, "txid": "802506248d5e0165d9f61ac5516634d601bf7df50ec1bf0cfc15b9374da381ea"}, {"sequence": 4294967295, "scriptSig": {"hex": "483045022100828cabc7f2d6c7053010563381944bdaedf688748d6b0c3acbca528f40abb90d022005c86e7d1ea3a1a2075a267164ef72f5c7e9c96b2d35a6940f0138ec87ab656001210227ba97e4bfd7225678c018ec6deced391c9358e8b313e7e5407b4591d6135141", "asm": "3045022100828cabc7f2d6c7053010563381944bdaedf688748d6b0c3acbca528f40abb90d022005c86e7d1ea3a1a2075a267164ef72f5c7e9c96b2d35a6940f0138ec87ab6560[ALL] 0227ba97e4bfd7225678c018ec6deced391c9358e8b313e7e5407b4591d6135141"}, "vout": 0, "txid": "846dde911a2895a65ceac7410918909cf48aa80d36f6d9e25565167bab82fd79"}, {"sequence": 4294967295, "scriptSig": {"hex": "463043021f49a8e40b0061215ac9dea3498041b65dcf2d070971c741b3e31364a664a46f02207ee7e1701f589b7413640de5dd7cae3b46940c8a400cb5f33839c340b63d018b01210227ba97e4bfd7225678c018ec6deced391c9358e8b313e7e5407b4591d6135141", "asm": "3043021f49a8e40b0061215ac9dea3498041b65dcf2d070971c741b3e31364a664a46f02207ee7e1701f589b7413640de5dd7cae3b46940c8a400cb5f33839c340b63d018b[ALL] 0227ba97e4bfd7225678c018ec6deced391c9358e8b313e7e5407b4591d6135141"}, "vout": 0, "txid": "8c17709afc7c3a40443860af5ca70cd83d67a8bdecb8d867b3a23f7dc389d1ff"}, {"sequence": 4294967295, "scriptSig": {"hex": "483045022100a7ac818218fbd692b542ac6fc795f1dd85ca3e4e64bf3e05595e48f8066adcc4022049dc5cb259b32c1193db1083693bbc62e902985ccf52f12773dcf8b389abfb8c01210227ba97e4bfd7225678c018ec6deced391c9358e8b313e7e5407b4591d6135141", "asm": "3045022100a7ac818218fbd692b542ac6fc795f1dd85ca3e4e64bf3e05595e48f8066adcc4022049dc5cb259b32c1193db1083693bbc62e902985ccf52f12773dcf8b389abfb8c[ALL] 0227ba97e4bfd7225678c018ec6deced391c9358e8b313e7e5407b4591d6135141"}, "vout": 0, "txid": "b640bf23171c357fc40adcf8f73542378ec9b155ccc0a3c1f61b08ba39fa0b20"}, {"sequence": 4294967295, "scriptSig": {"hex": "483045022100d2e3aa8d1b439e59f0908f5c7ba8dc4d2469393bced6c88841cc4a850f9edcb802205397ff7b05d28056502f77edf0a280ac6e4b2b3f25cfb937c8d3fcf02021139701210227ba97e4bfd7225678c018ec6deced391c9358e8b313e7e5407b4591d6135141", "asm": "3045022100d2e3aa8d1b439e59f0908f5c7ba8dc4d2469393bced6c88841cc4a850f9edcb802205397ff7b05d28056502f77edf0a280ac6e4b2b3f25cfb937c8d3fcf020211397[ALL] 0227ba97e4bfd7225678c018ec6deced391c9358e8b313e7e5407b4591d6135141"}, "vout": 1, "txid": "c722f372ebf06d35074e2f6f486abb41de397e70b85c98582f3f6acc0986c029"}, {"sequence": 4294967295, "scriptSig": {"hex": "483045022100b543e44409c8b71d33bc9c30ed3a359d6bf5e94ac95ca6c9dc1b49818df301fb02202c87c55c9b4d27fda49d779926054863b389965d4104aaa70da751ebc16d272201210227ba97e4bfd7225678c018ec6deced391c9358e8b313e7e5407b4591d6135141", "asm": "3045022100b543e44409c8b71d33bc9c30ed3a359d6bf5e94ac95ca6c9dc1b49818df301fb02202c87c55c9b4d27fda49d779926054863b389965d4104aaa70da751ebc16d2722[ALL] 0227ba97e4bfd7225678c018ec6deced391c9358e8b313e7e5407b4591d6135141"}, "vout": 0, "txid": "db1cfa9a05a54f9eb4d2bc474c8cf1f767d920cb7a33fa9e5b0e6afedd8c4ded"}], "txid": "9015fe2a952e14542aaa989bfeb8f080e88e7a4f291b6ca59662f00ff10575b3", "blocktime": 1537871767, "version": 1, "confirmations": 11495, "time": 1537871767, "locktime": 0, "vsize": 2438, "size": 2438}