{"hash": "ba99422822de925ff706dbbd7fb224f1a12aac9fc78a95f4fbb198f9adc958dc", "blockhash": "0000000000000000001f0ddff1eddb255c1121bcd4da4f1bc9a0da00cae72433", "vout": [{"scriptPubKey": {"reqSigs": 1, "hex": "a91497d80ebcd13a8d6e939d79dfa2f45cace8bdb14187", "addresses": ["3FXtnTEntQwDqfyYGgLvB7gTtd5VS2qSJP"], "asm": "OP_HASH160 97d80ebcd13a8d6e939d79dfa2f45cace8bdb141 OP_EQUAL", "type": "scripthash"}, "value": 0.01002793, "n": 0}, {"scriptPubKey": {"reqSigs": 1, "hex": "76a91401e7a921be4332389575765177510ba8855e5a1188ac", "addresses": ["1B5CFw3KyyXMKMXihVxH8xc4LDSzjXKHD"], "asm": "OP_DUP OP_HASH160 01e7a921be4332389575765177510ba8855e5a11 OP_EQUALVERIFY OP_CHECKSIG", "type": "pubkeyhash"}, "value": 0.0018266, "n": 1}], "hex": "020000000001029ff8ad946e2c01945eb39ee7a15bc41a286faa103183408bd99a6acc94d6d6fa010000001716001419407d4045388074afc4650b41a82d27e8683065feffffffd06cdaa1b7eaaf11e3bf115eacd6c6787bab6231369605455fd5f0fae1e06e7e0200000017160014fe8c676868f06176c13ce987f284bcf5cb513c35feffffff02294d0f000000000017a91497d80ebcd13a8d6e939d79dfa2f45cace8bdb1418784c90200000000001976a91401e7a921be4332389575765177510ba8855e5a1188ac02473044022056b1d2fe269e92b403b0b73f165cf740c248824f7afd93ef00177f373bcdc4f302202a6f5d5559525c46fd3cd52452a223cc157a5d0e8f2f0d0496f289695c7c7284012103dd48789115d970b206f609ab600628f758ec7094479ed29294eb93659622c50002473044022060efc0efbe646ede75c15b96479def963d9fd0b82cf8eb0c2a0694acc461fe1c02202d0906c3c09c60ec246fe70fa5767921571c653bd30f58f71fb1aac718abaee201210389905b42d5d1189259c3a0672a154a5c5a39473fe43a28689d23b1a461d5cfc311490800", "vin": [{"txinwitness": ["3044022056b1d2fe269e92b403b0b73f165cf740c248824f7afd93ef00177f373bcdc4f302202a6f5d5559525c46fd3cd52452a223cc157a5d0e8f2f0d0496f289695c7c728401", "03dd48789115d970b206f609ab600628f758ec7094479ed29294eb93659622c500"], "sequence": 4294967294, "scriptSig": {"hex": "16001419407d4045388074afc4650b41a82d27e8683065", "asm": "001419407d4045388074afc4650b41a82d27e8683065"}, "vout": 1, "txid": "fad6d694cc6a9ad98b40833110aa6f281ac45ba1e79eb35e94012c6e94adf89f"}, {"txinwitness": ["3044022060efc0efbe646ede75c15b96479def963d9fd0b82cf8eb0c2a0694acc461fe1c02202d0906c3c09c60ec246fe70fa5767921571c653bd30f58f71fb1aac718abaee201", "0389905b42d5d1189259c3a0672a154a5c5a39473fe43a28689d23b1a461d5cfc3"], "sequence": 4294967294, "scriptSig": {"hex": "160014fe8c676868f06176c13ce987f284bcf5cb513c35", "asm": "0014fe8c676868f06176c13ce987f284bcf5cb513c35"}, "vout": 2, "txid": "7e6ee0e1faf0d55f450596363162ab7b78c6d6ac5e11bfe311afeab7a1da6cd0"}], "txid": "9015e88b04e72b1b33396f34e64e43e18df17e5ea217126adb688f4af23119eb", "blocktime": 1537872018, "version": 2, "confirmations": 11489, "time": 1537872018, "locktime": 542993, "vsize": 258, "size": 420}