{"hash": "a7af2be3e3cedc63519aefa817d3902d377cee6ac5a8f748f228db7f02d439a3", "blockhash": "00000000000000000017f5eb5941039fbcee6240d03bc1f2f8e35350df66a1d8", "vout": [{"scriptPubKey": {"reqSigs": 1, "hex": "0014ecabc9675bab7f323a1eb48db85a4c97b69ebc5a", "addresses": ["bc1qaj4uje6m4dlnyws7kjxmskjvj7mfa0z69gfvj9"], "asm": "0 ecabc9675bab7f323a1eb48db85a4c97b69ebc5a", "type": "witness_v0_keyhash"}, "value": 9.285e-05, "n": 0}, {"scriptPubKey": {"reqSigs": 1, "hex": "a91469f3768390a0e63aa3b814c9d7ef94f7cac79bee87", "addresses": ["3BMEXneqhta9mPXCq9vGfR7es1UhEELNub"], "asm": "OP_HASH160 69f3768390a0e63aa3b814c9d7ef94f7cac79bee OP_EQUAL", "type": "scripthash"}, "value": 0.00615, "n": 1}], "hex": "010000000001013d1f07c6945d166cea15b05f338f311b1bed6647e26c3802adeef9ef92d8cf5b0000000000ffffffff024524000000000000160014ecabc9675bab7f323a1eb48db85a4c97b69ebc5a586209000000000017a91469f3768390a0e63aa3b814c9d7ef94f7cac79bee870247304402206d7644f662a9fc8be6a9a62f122d9624bab29af35ad4c0c306a5cf5b15897dd502201aa66d0d15250f12f5573b247feff90220893519fd0ce03cd919fb9e00a88bca012103283190d7d38268736b3f2b9809d1b11a39923bfd29cca75dd0fa9db28265e31400000000", "vin": [{"txinwitness": ["304402206d7644f662a9fc8be6a9a62f122d9624bab29af35ad4c0c306a5cf5b15897dd502201aa66d0d15250f12f5573b247feff90220893519fd0ce03cd919fb9e00a88bca01", "03283190d7d38268736b3f2b9809d1b11a39923bfd29cca75dd0fa9db28265e314"], "sequence": 4294967295, "scriptSig": {"hex": "", "asm": ""}, "vout": 0, "txid": "5bcfd892eff9eead02386ce24766ed1b1b318f335fb015ea6c165d94c6071f3d"}], "txid": "90189c27fe5c725b700bf5fa0cf25843fb5231491f50be975f16dd2d33045e7a", "blocktime": 1537874412, "version": 1, "confirmations": 11467, "time": 1537874412, "locktime": 0, "vsize": 142, "size": 223}