{"hash": "9018c3ffd10a1ed07eac9c52083fdd746ed66c51bed31633427b1524b4ecb28f", "blockhash": "00000000000000000024a2167bbff67b0be802c0b01cdd79e6331c2be6459f87", "vout": [{"scriptPubKey": {"reqSigs": 1, "hex": "76a914acb820f67dcae855c795b1017ef9adce6757c1fb88ac", "addresses": ["1GkFoVA2fQQATjNSDgz9BmFtFdHjf3vqSD"], "asm": "OP_DUP OP_HASH160 acb820f67dcae855c795b1017ef9adce6757c1fb OP_EQUALVERIFY OP_CHECKSIG", "type": "pubkeyhash"}, "value": 0.00420655, "n": 0}, {"scriptPubKey": {"reqSigs": 1, "hex": "a91498ca50776ace704f6f48c50ba77223e87fc90b6287", "addresses": ["3FctzkJuPHCtBKKuxRvvGq4h426VGmBHUd"], "asm": "OP_HASH160 98ca50776ace704f6f48c50ba77223e87fc90b62 OP_EQUAL", "type": "scripthash"}, "value": 0.01561782, "n": 1}], "hex": "01000000021cf21accab9effa196fb8abfe52180768674e4fa8c5713217d50d2300a338737010000006a473044022021894c6c3bd8c08ac5ab256d9711c1bd01062f93f571b9471ec2323c009a6e6902200ea5d98ba54eb658337daf64e712967a96bdbcd41613f478411adf91c54d0baf012102f76084b8d719156bbd5e61f543c87677e967399ee63269699d66587b92306445ffffffff9a570ac83d08e546e64dddc080d9bf6f80ceb01f24aab73342a2b77867864a8f010000006a473044022003d0a5200d88cd13f83692bbc2a263da0c85b723c5e66790d5cbd7ae0bdeb46f0220475df8105463c665cb210ad21d5695803572958cbeea2fd38ba389999d7584cd01210333ab69cb3dc48693564764c01b665828d52470b9c54cca53a09e83d4efffac31ffffffff022f6b0600000000001976a914acb820f67dcae855c795b1017ef9adce6757c1fb88acb6d417000000000017a91498ca50776ace704f6f48c50ba77223e87fc90b628700000000", "vin": [{"sequence": 4294967295, "scriptSig": {"hex": "473044022021894c6c3bd8c08ac5ab256d9711c1bd01062f93f571b9471ec2323c009a6e6902200ea5d98ba54eb658337daf64e712967a96bdbcd41613f478411adf91c54d0baf012102f76084b8d719156bbd5e61f543c87677e967399ee63269699d66587b92306445", "asm": "3044022021894c6c3bd8c08ac5ab256d9711c1bd01062f93f571b9471ec2323c009a6e6902200ea5d98ba54eb658337daf64e712967a96bdbcd41613f478411adf91c54d0baf[ALL] 02f76084b8d719156bbd5e61f543c87677e967399ee63269699d66587b92306445"}, "vout": 1, "txid": "3787330a30d2507d2113578cfae47486768021e5bf8afb96a1ff9eabcc1af21c"}, {"sequence": 4294967295, "scriptSig": {"hex": "473044022003d0a5200d88cd13f83692bbc2a263da0c85b723c5e66790d5cbd7ae0bdeb46f0220475df8105463c665cb210ad21d5695803572958cbeea2fd38ba389999d7584cd01210333ab69cb3dc48693564764c01b665828d52470b9c54cca53a09e83d4efffac31", "asm": "3044022003d0a5200d88cd13f83692bbc2a263da0c85b723c5e66790d5cbd7ae0bdeb46f0220475df8105463c665cb210ad21d5695803572958cbeea2fd38ba389999d7584cd[ALL] 0333ab69cb3dc48693564764c01b665828d52470b9c54cca53a09e83d4efffac31"}, "vout": 1, "txid": "8f4a866778b7a24233b7aa241fb0ce806fbfd980c0dd4de646e5083dc80a579a"}], "txid": "9018c3ffd10a1ed07eac9c52083fdd746ed66c51bed31633427b1524b4ecb28f", "blocktime": 1537870564, "version": 1, "confirmations": 11515, "time": 1537870564, "locktime": 0, "vsize": 370, "size": 370}