{"hash": "901aed14efbb000cae3f6e297e73573f0ee5c8fbe5113335b08764694be87225", "blockhash": "00000000000000000004ffacab907a6b429b9a5745fa0b75af4234bf69dd7176", "vout": [{"scriptPubKey": {"reqSigs": 1, "hex": "a91499b78adf361bf5ea051030d56d4fda79db59570387", "addresses": ["3FhoBeYQxAzLGjm3YM9XcR3RQQ5kj3JH9P"], "asm": "OP_HASH160 99b78adf361bf5ea051030d56d4fda79db595703 OP_EQUAL", "type": "scripthash"}, "value": 0.069836, "n": 0}, {"scriptPubKey": {"reqSigs": 1, "hex": "76a9148b59ab92a45da3e1a6e93d7cd7ae59d4d4c8639388ac", "addresses": ["1DhpM4TTnYiGKN7ducrd3eJJSFmW62AM6j"], "asm": "OP_DUP OP_HASH160 8b59ab92a45da3e1a6e93d7cd7ae59d4d4c86393 OP_EQUALVERIFY OP_CHECKSIG", "type": "pubkeyhash"}, "value": 0.08909682, "n": 1}], "hex": "01000000015a13992acfe024677cba542e34df8a1a8ef3c94ddffede3c0be3e7b2e7523dfd010000006b483045022100cb4f9afe2f421e51617612bf3f74e31b230a08994b236e9a6a1a7be27d699d16022036867119328d204b6b9aa567210dbdbc06bc529fb3d459e01f8349f859e2932b0121033fd09b2685455f261880d219d78ca3e511e2ed390079e742a5fd5a64bc09f754ffffffff02b08f6a000000000017a91499b78adf361bf5ea051030d56d4fda79db5957038772f38700000000001976a9148b59ab92a45da3e1a6e93d7cd7ae59d4d4c8639388ac00000000", "vin": [{"sequence": 4294967295, "scriptSig": {"hex": "483045022100cb4f9afe2f421e51617612bf3f74e31b230a08994b236e9a6a1a7be27d699d16022036867119328d204b6b9aa567210dbdbc06bc529fb3d459e01f8349f859e2932b0121033fd09b2685455f261880d219d78ca3e511e2ed390079e742a5fd5a64bc09f754", "asm": "3045022100cb4f9afe2f421e51617612bf3f74e31b230a08994b236e9a6a1a7be27d699d16022036867119328d204b6b9aa567210dbdbc06bc529fb3d459e01f8349f859e2932b[ALL] 033fd09b2685455f261880d219d78ca3e511e2ed390079e742a5fd5a64bc09f754"}, "vout": 1, "txid": "fd3d52e7b2e7e30b3cdefedf4dc9f38e1a8adf342e54ba7c6724e0cf2a99135a"}], "txid": "901aed14efbb000cae3f6e297e73573f0ee5c8fbe5113335b08764694be87225", "blocktime": 1537875543, "version": 1, "confirmations": 11464, "time": 1537875543, "locktime": 0, "vsize": 224, "size": 224}