{"hash": "901c1750e870e20367f5876de9ef908bd3f43f54511b734e0acf0cc9d894729a", "blockhash": "00000000000000000017f5eb5941039fbcee6240d03bc1f2f8e35350df66a1d8", "vout": [{"scriptPubKey": {"reqSigs": 1, "hex": "76a9146d52abdeb386182780c43d145ea728af2cea358088ac", "addresses": ["1Ay3h1yUjzZWqz3w3cqfxUxrhjHtruh6wU"], "asm": "OP_DUP OP_HASH160 6d52abdeb386182780c43d145ea728af2cea3580 OP_EQUALVERIFY OP_CHECKSIG", "type": "pubkeyhash"}, "value": 0.002322, "n": 0}, {"scriptPubKey": {"reqSigs": 1, "hex": "76a914462a5120401d8649deb8f71d59bb8e3f915cb88388ac", "addresses": ["17Pzzf9kLBnEEj8XQPJvbPH21zmhtDC9qy"], "asm": "OP_DUP OP_HASH160 462a5120401d8649deb8f71d59bb8e3f915cb883 OP_EQUALVERIFY OP_CHECKSIG", "type": "pubkeyhash"}, "value": 0.01062843, "n": 1}], "hex": "0100000001076555dc31b42c994c3b28961a8e59f9323b8386d4a28839415975cdf99587b6010000006b483045022100853590fbee065692de1c727eee9c385334711b02c24e27e40ea55921e424873402201774c9870794cfb118ab209c3bb89297239407dc12dd2d195229b3a1f7252671012103c9a45bbed50d1be5098265fd76a396c32bee3e737921d5c1b22c7cf67809aa93ffffffff02088b0300000000001976a9146d52abdeb386182780c43d145ea728af2cea358088acbb371000000000001976a914462a5120401d8649deb8f71d59bb8e3f915cb88388ac00000000", "vin": [{"sequence": 4294967295, "scriptSig": {"hex": "483045022100853590fbee065692de1c727eee9c385334711b02c24e27e40ea55921e424873402201774c9870794cfb118ab209c3bb89297239407dc12dd2d195229b3a1f7252671012103c9a45bbed50d1be5098265fd76a396c32bee3e737921d5c1b22c7cf67809aa93", "asm": "3045022100853590fbee065692de1c727eee9c385334711b02c24e27e40ea55921e424873402201774c9870794cfb118ab209c3bb89297239407dc12dd2d195229b3a1f7252671[ALL] 03c9a45bbed50d1be5098265fd76a396c32bee3e737921d5c1b22c7cf67809aa93"}, "vout": 1, "txid": "b68795f9cd7559413988a2d486833b32f9598e1a96283b4c992cb431dc556507"}], "txid": "901c1750e870e20367f5876de9ef908bd3f43f54511b734e0acf0cc9d894729a", "blocktime": 1537874412, "version": 1, "confirmations": 11467, "time": 1537874412, "locktime": 0, "vsize": 226, "size": 226}