{"hash": "901e44bc153e8ba8e6eb3db4374f0b9e1606047dfa94edd765c9e17efa937ed8", "blockhash": "0000000000000000001cda96e906b7601b7a6fb1a3b62bca570a9e5d8f4b3de1", "vout": [{"scriptPubKey": {"reqSigs": 1, "hex": "76a914c12651be8152b4c401a34516a25e6d39a839810188ac", "addresses": ["1JcHKVkx6gzt3rqGXwoTs13EBb6nSAqWAQ"], "asm": "OP_DUP OP_HASH160 c12651be8152b4c401a34516a25e6d39a8398101 OP_EQUALVERIFY OP_CHECKSIG", "type": "pubkeyhash"}, "value": 0.00468419, "n": 0}, {"scriptPubKey": {"reqSigs": 1, "hex": "76a914d8f61ca067c4177dca46d760da4b335484e5965388ac", "addresses": ["1LnBnauZXjxX4G3inrawxu5YoBPhvyW1VT"], "asm": "OP_DUP OP_HASH160 d8f61ca067c4177dca46d760da4b335484e59653 OP_EQUALVERIFY OP_CHECKSIG", "type": "pubkeyhash"}, "value": 0.01302897, "n": 1}], "hex": "0100000001aeb47ca0c693339f1091a5363e846413c31c96b7f5aba51ede75afc3acff1308010000006b4830450221008b86478e9c82749aa602e82cea0040e030529d798186e096d4990cb73ff33fde02201679feaf58712cd1f4dd220c5a94c7b182a0d7c71ee6c8cd94bd676ee7d84d6e012103f1647bbbf41bfce5123cd90f50d612598f4f6ea9eb5448ac01d98fef67a4afb7ffffffff02c3250700000000001976a914c12651be8152b4c401a34516a25e6d39a839810188ac71e11300000000001976a914d8f61ca067c4177dca46d760da4b335484e5965388ac00000000", "vin": [{"sequence": 4294967295, "scriptSig": {"hex": "4830450221008b86478e9c82749aa602e82cea0040e030529d798186e096d4990cb73ff33fde02201679feaf58712cd1f4dd220c5a94c7b182a0d7c71ee6c8cd94bd676ee7d84d6e012103f1647bbbf41bfce5123cd90f50d612598f4f6ea9eb5448ac01d98fef67a4afb7", "asm": "30450221008b86478e9c82749aa602e82cea0040e030529d798186e096d4990cb73ff33fde02201679feaf58712cd1f4dd220c5a94c7b182a0d7c71ee6c8cd94bd676ee7d84d6e[ALL] 03f1647bbbf41bfce5123cd90f50d612598f4f6ea9eb5448ac01d98fef67a4afb7"}, "vout": 1, "txid": "0813ffacc3af75de1ea5abf5b7961cc31364843e36a591109f3393c6a07cb4ae"}], "txid": "901e44bc153e8ba8e6eb3db4374f0b9e1606047dfa94edd765c9e17efa937ed8", "blocktime": 1537873282, "version": 1, "confirmations": 11484, "time": 1537873282, "locktime": 0, "vsize": 226, "size": 226}