{"hash": "90267053d8eb18a37c86feeac1628726f59605d516c38f6adf0d9d24e8ac7e56", "blockhash": "0000000000000000001f76057863aec43deb6fa401d9628bb513d65a8098bfab", "vout": [{"scriptPubKey": {"reqSigs": 1, "hex": "a9146395498c02a6a99f80cbbcb2433dcae33673ebf187", "addresses": ["3AmZfCRzt9aHgqEnbg5i2FfcAHJutTbtRB"], "asm": "OP_HASH160 6395498c02a6a99f80cbbcb2433dcae33673ebf1 OP_EQUAL", "type": "scripthash"}, "value": 0.00039062, "n": 0}, {"scriptPubKey": {"reqSigs": 1, "hex": "76a914ab0764e48027f75aee8ca3f58f53a0bdbdc58a9d88ac", "addresses": ["1GbKQZBdnyVi2ckMH2Qsjw4x1ZWTWXDUGG"], "asm": "OP_DUP OP_HASH160 ab0764e48027f75aee8ca3f58f53a0bdbdc58a9d OP_EQUALVERIFY OP_CHECKSIG", "type": "pubkeyhash"}, "value": 0.01594248, "n": 1}], "hex": "010000000155b21c0c5f3ce4849c34d35f31a52c0d54d87f90a74e7cb0c698075609a16aff010000006b483045022100f5f401d0188972c5dadd4a18e25114b22937349ead0b15c41aafbf4234d93901022053a46c19fc41327db50d99b643f7e2e5659b8672e419795da6735bc9e057f18b01210295055f66d0af5848192a6a154e1ffadd8537bfd7a4aee2bc05d92500a561e763ffffffff02969800000000000017a9146395498c02a6a99f80cbbcb2433dcae33673ebf18788531800000000001976a914ab0764e48027f75aee8ca3f58f53a0bdbdc58a9d88ac00000000", "vin": [{"sequence": 4294967295, "scriptSig": {"hex": "483045022100f5f401d0188972c5dadd4a18e25114b22937349ead0b15c41aafbf4234d93901022053a46c19fc41327db50d99b643f7e2e5659b8672e419795da6735bc9e057f18b01210295055f66d0af5848192a6a154e1ffadd8537bfd7a4aee2bc05d92500a561e763", "asm": "3045022100f5f401d0188972c5dadd4a18e25114b22937349ead0b15c41aafbf4234d93901022053a46c19fc41327db50d99b643f7e2e5659b8672e419795da6735bc9e057f18b[ALL] 0295055f66d0af5848192a6a154e1ffadd8537bfd7a4aee2bc05d92500a561e763"}, "vout": 1, "txid": "ff6aa109560798c6b07c4ea7907fd8540d2ca5315fd3349c84e43c5f0c1cb255"}], "txid": "90267053d8eb18a37c86feeac1628726f59605d516c38f6adf0d9d24e8ac7e56", "blocktime": 1537873891, "version": 1, "confirmations": 11478, "time": 1537873891, "locktime": 0, "vsize": 224, "size": 224}