{"hash": "48013cb8779ab74b8b23119f42e26fa24229db7d4c4c9b776ee7b00f6d3fe433", "blockhash": "0000000000000000001cda96e906b7601b7a6fb1a3b62bca570a9e5d8f4b3de1", "vout": [{"scriptPubKey": {"reqSigs": 1, "hex": "76a91415b57419acefc16d5e9f45ac20afb00afbc4bea888ac", "addresses": ["12ynZe7KmFrf2aZV8dzVtyCbZUryF8uViQ"], "asm": "OP_DUP OP_HASH160 15b57419acefc16d5e9f45ac20afb00afbc4bea8 OP_EQUALVERIFY OP_CHECKSIG", "type": "pubkeyhash"}, "value": 0.05429422, "n": 0}, {"scriptPubKey": {"reqSigs": 1, "hex": "a914a5c679defd49547b8133a1367eeadbdeaecec3da87", "addresses": ["3GoZBZ6F8g4UiCt7moPNLDX7KKwgtGgLUT"], "asm": "OP_HASH160 a5c679defd49547b8133a1367eeadbdeaecec3da OP_EQUAL", "type": "scripthash"}, "value": 0.45333742, "n": 1}], "hex": "01000000000101f7414dc205319123a50a87371924bf052e3757264ebc4ca9c7638b0da275c11a01000000232200202d90cd274cea8141a030c0b79acc5b5c0b80b73d028692a1104913808bff6c09ffffffff02aed85200000000001976a91415b57419acefc16d5e9f45ac20afb00afbc4bea888aceebcb3020000000017a914a5c679defd49547b8133a1367eeadbdeaecec3da87040047304402201a5ac56266a600e542bb9ce392c00b2a93d6143bbc4ba9b73d5fc970adc5611102207f74649e9e2020d6be3566bcbe2698e640d0b6c6f4aad0741b13358c4841335a01483045022100c7ed702010ab005b7aec2742b6421ff4348b1c2993a15fc52e101b938d6f13d902201be0174d543811d3cae9f0242afccf1b6b18964d25d4eca7f1f16aed763edf25014752210295d70c0f10033e6e119fdc61ddd495bfe23995150af6df4688db5bf235f2853b21023e4b58fb2a91970de56515d11487aabd364f0404f1099bef70493cc56002342352ae00000000", "vin": [{"txinwitness": ["", "304402201a5ac56266a600e542bb9ce392c00b2a93d6143bbc4ba9b73d5fc970adc5611102207f74649e9e2020d6be3566bcbe2698e640d0b6c6f4aad0741b13358c4841335a01", "3045022100c7ed702010ab005b7aec2742b6421ff4348b1c2993a15fc52e101b938d6f13d902201be0174d543811d3cae9f0242afccf1b6b18964d25d4eca7f1f16aed763edf2501", "52210295d70c0f10033e6e119fdc61ddd495bfe23995150af6df4688db5bf235f2853b21023e4b58fb2a91970de56515d11487aabd364f0404f1099bef70493cc56002342352ae"], "sequence": 4294967295, "scriptSig": {"hex": "2200202d90cd274cea8141a030c0b79acc5b5c0b80b73d028692a1104913808bff6c09", "asm": "00202d90cd274cea8141a030c0b79acc5b5c0b80b73d028692a1104913808bff6c09"}, "vout": 1, "txid": "1ac175a20d8b63c7a94cbc4e2657372e05bf241937870aa523913105c24d41f7"}], "txid": "902feb198f0029f4c8cc01e1cec360e0c47615654265162959a9efd5f81ba18b", "blocktime": 1537873282, "version": 1, "confirmations": 11484, "time": 1537873282, "locktime": 0, "vsize": 208, "size": 373}