{"hash": "90305ef779aa78efafd560ae8ce65b5027ff9f173fc76498bdf9776c965e187f", "blockhash": "00000000000000000018f53835495a110e01622372bf6ae95dc86f2b0ab887b0", "vout": [{"scriptPubKey": {"reqSigs": 1, "hex": "76a914d07adca3d57965f539cfe8fea520ace3c7a8a39c88ac", "addresses": ["1L1LjVcyUF4EUAixtobzVuhUD1xkgvHjJ5"], "asm": "OP_DUP OP_HASH160 d07adca3d57965f539cfe8fea520ace3c7a8a39c OP_EQUALVERIFY OP_CHECKSIG", "type": "pubkeyhash"}, "value": 0.00187354, "n": 0}, {"scriptPubKey": {"reqSigs": 1, "hex": "76a914b02382cbc28b799b914ef78f61f0f8c1407b2f9488ac", "addresses": ["1H4LU73gH98KrzXtyHPEnEsrjZNhh8kick"], "asm": "OP_DUP OP_HASH160 b02382cbc28b799b914ef78f61f0f8c1407b2f94 OP_EQUALVERIFY OP_CHECKSIG", "type": "pubkeyhash"}, "value": 0.24581538, "n": 1}], "hex": "020000000192abff9c66b5c2e85ef4fbb371907342b3c793bbec46a7a04fcda3a92bdfad2d010000006b483045022100a1159b1fee6293924083fa48275d73288b02a236371980c9c30c6ed2b895c0e202201ca5e491d1e69779e6b82042961cc50ef2e17c7f71466af7a0b607f141e07bd9012103325b62c52397eac2ac45563c4f30d08e468e7c799b16df981643aa2964fce767feffffff02dadb0200000000001976a914d07adca3d57965f539cfe8fea520ace3c7a8a39c88aca2157701000000001976a914b02382cbc28b799b914ef78f61f0f8c1407b2f9488ac0e490800", "vin": [{"sequence": 4294967294, "scriptSig": {"hex": "483045022100a1159b1fee6293924083fa48275d73288b02a236371980c9c30c6ed2b895c0e202201ca5e491d1e69779e6b82042961cc50ef2e17c7f71466af7a0b607f141e07bd9012103325b62c52397eac2ac45563c4f30d08e468e7c799b16df981643aa2964fce767", "asm": "3045022100a1159b1fee6293924083fa48275d73288b02a236371980c9c30c6ed2b895c0e202201ca5e491d1e69779e6b82042961cc50ef2e17c7f71466af7a0b607f141e07bd9[ALL] 03325b62c52397eac2ac45563c4f30d08e468e7c799b16df981643aa2964fce767"}, "vout": 1, "txid": "2daddf2ba9a3cd4fa0a746ecbb93c7b342739071b3fbf45ee8c2b5669cffab92"}], "txid": "90305ef779aa78efafd560ae8ce65b5027ff9f173fc76498bdf9776c965e187f", "blocktime": 1537870928, "version": 2, "confirmations": 11512, "time": 1537870928, "locktime": 542990, "vsize": 226, "size": 226}