{"hash": "903755e858557d2d6c5aefc0e078d7f7af27f63c2d764415a634c7f6dc14347d", "blockhash": "0000000000000000001e0dab787dd257d1dbfcb92a98c2207d5e1078be1f4165", "vout": [{"scriptPubKey": {"reqSigs": 1, "hex": "76a9141508276fd4193e83f5fce7a810a40e8f983c161988ac", "addresses": ["12vCxak5xc1t6T275xbm6AJ4xsZCxkTSc5"], "asm": "OP_DUP OP_HASH160 1508276fd4193e83f5fce7a810a40e8f983c1619 OP_EQUALVERIFY OP_CHECKSIG", "type": "pubkeyhash"}, "value": 49.78725034, "n": 0}, {"scriptPubKey": {"reqSigs": 1, "hex": "76a914f3854b194a76dba28548e1347158cb65067e55e888ac", "addresses": ["1PCcszy75GjvZrovRDZfAnHXSETDwpSoFv"], "asm": "OP_DUP OP_HASH160 f3854b194a76dba28548e1347158cb65067e55e8 OP_EQUALVERIFY OP_CHECKSIG", "type": "pubkeyhash"}, "value": 0.21150667, "n": 1}], "hex": "0200000002ff274a3dae3f2def7ac13016fdd8fa5a7b00b53417e37d2d323e7cb2c6bfe22b020000006b4830450221008a276ff7f1cbb068d3f14500ab17abd41d27fef6c06d0f8bcf1f18114b59c4550220674109a923568535e2a537a5c79371f81ba36834b17043cd5eed431a2a623ec50121035bb5ec1330953265719fecb2345ebd0cd02272efa8a3a940a8a28021b37703eeffffffff7a8106457f4c5cf36e6d433bc4a1bf7f9f98221ee987e40fbd00762b2b57c4ca000000006a4730440220320ff67cecf35263e19c13930a7f99d5af0b4fb6ab53e32dd04221b6c827294102201cb87d5abf6c5301bc4bacf9070cbe68989f2ca7aa789e9b5327ef014174b3540121035bb5ec1330953265719fecb2345ebd0cd02272efa8a3a940a8a28021b37703eeffffffff02aa50c128010000001976a9141508276fd4193e83f5fce7a810a40e8f983c161988accbbb4201000000001976a914f3854b194a76dba28548e1347158cb65067e55e888ac00000000", "vin": [{"sequence": 4294967295, "scriptSig": {"hex": "4830450221008a276ff7f1cbb068d3f14500ab17abd41d27fef6c06d0f8bcf1f18114b59c4550220674109a923568535e2a537a5c79371f81ba36834b17043cd5eed431a2a623ec50121035bb5ec1330953265719fecb2345ebd0cd02272efa8a3a940a8a28021b37703ee", "asm": "30450221008a276ff7f1cbb068d3f14500ab17abd41d27fef6c06d0f8bcf1f18114b59c4550220674109a923568535e2a537a5c79371f81ba36834b17043cd5eed431a2a623ec5[ALL] 035bb5ec1330953265719fecb2345ebd0cd02272efa8a3a940a8a28021b37703ee"}, "vout": 2, "txid": "2be2bfc6b27c3e322d7de31734b5007b5afad8fd1630c17aef2d3fae3d4a27ff"}, {"sequence": 4294967295, "scriptSig": {"hex": "4730440220320ff67cecf35263e19c13930a7f99d5af0b4fb6ab53e32dd04221b6c827294102201cb87d5abf6c5301bc4bacf9070cbe68989f2ca7aa789e9b5327ef014174b3540121035bb5ec1330953265719fecb2345ebd0cd02272efa8a3a940a8a28021b37703ee", "asm": "30440220320ff67cecf35263e19c13930a7f99d5af0b4fb6ab53e32dd04221b6c827294102201cb87d5abf6c5301bc4bacf9070cbe68989f2ca7aa789e9b5327ef014174b354[ALL] 035bb5ec1330953265719fecb2345ebd0cd02272efa8a3a940a8a28021b37703ee"}, "vout": 0, "txid": "cac4572b2b7600bd0fe487e91e22989f7fbfa1c43b436d6ef35c4c7f4506817a"}], "txid": "903755e858557d2d6c5aefc0e078d7f7af27f63c2d764415a634c7f6dc14347d", "blocktime": 1537872475, "version": 2, "confirmations": 11486, "time": 1537872475, "locktime": 0, "vsize": 373, "size": 373}