{"hash": "9046a14c09c56fd463789d7e7e0edae15cd80ba299ed440fb083e317f9149a2a", "blockhash": "00000000000000000017f5eb5941039fbcee6240d03bc1f2f8e35350df66a1d8", "vout": [{"scriptPubKey": {"reqSigs": 1, "hex": "a9144e3cfa2ff64fbc37396c193b4b65ea9f560aedb187", "addresses": ["38phgHNyxyfFcShbiKwKJRFkiA6Gs6Ew2i"], "asm": "OP_HASH160 4e3cfa2ff64fbc37396c193b4b65ea9f560aedb1 OP_EQUAL", "type": "scripthash"}, "value": 0.01343, "n": 0}, {"scriptPubKey": {"reqSigs": 1, "hex": "a914e10c46e915f1bff3162cc3102491dc9677c7f54187", "addresses": ["3NCxfj4s6YPJCzuUeGcNn6sbdSYoYu69q2"], "asm": "OP_HASH160 e10c46e915f1bff3162cc3102491dc9677c7f541 OP_EQUAL", "type": "scripthash"}, "value": 0.00999236, "n": 1}], "hex": "0200000002a9f0ce5f1e52fc41a64d169192d624ae054a94aa684b00bcd15a3d752e3e14811b0000006a47304402205fdf049499bd7543388eb399f0b08ba609b390e88394f4d758abf84a42f220690220774b7b9447d12ecade135a76970291b8f38fa654af4f24017bcb5129d681a632012102b0ff50b403885aeb72bafce53bd2e2fd07ea49dbceebd2df6db6435af99030a5feffffffa9f0ce5f1e52fc41a64d169192d624ae054a94aa684b00bcd15a3d752e3e1481360000006b4830450221009b3f80859c19a27fdd76844cc6cf40a1fda19d86c36ad8820a7a187f90a53a3302203e414b6ce38d132f6edcef7f61432254f6283e3263df2c89360916673cf7161a012102a2c6e550c2ffa3331d662b1a46e8d9175aec1950522c415b0efb004e0f2bbe32feffffff02187e14000000000017a9144e3cfa2ff64fbc37396c193b4b65ea9f560aedb187443f0f000000000017a914e10c46e915f1bff3162cc3102491dc9677c7f5418715490800", "vin": [{"sequence": 4294967294, "scriptSig": {"hex": "47304402205fdf049499bd7543388eb399f0b08ba609b390e88394f4d758abf84a42f220690220774b7b9447d12ecade135a76970291b8f38fa654af4f24017bcb5129d681a632012102b0ff50b403885aeb72bafce53bd2e2fd07ea49dbceebd2df6db6435af99030a5", "asm": "304402205fdf049499bd7543388eb399f0b08ba609b390e88394f4d758abf84a42f220690220774b7b9447d12ecade135a76970291b8f38fa654af4f24017bcb5129d681a632[ALL] 02b0ff50b403885aeb72bafce53bd2e2fd07ea49dbceebd2df6db6435af99030a5"}, "vout": 27, "txid": "81143e2e753d5ad1bc004b68aa944a05ae24d69291164da641fc521e5fcef0a9"}, {"sequence": 4294967294, "scriptSig": {"hex": "4830450221009b3f80859c19a27fdd76844cc6cf40a1fda19d86c36ad8820a7a187f90a53a3302203e414b6ce38d132f6edcef7f61432254f6283e3263df2c89360916673cf7161a012102a2c6e550c2ffa3331d662b1a46e8d9175aec1950522c415b0efb004e0f2bbe32", "asm": "30450221009b3f80859c19a27fdd76844cc6cf40a1fda19d86c36ad8820a7a187f90a53a3302203e414b6ce38d132f6edcef7f61432254f6283e3263df2c89360916673cf7161a[ALL] 02a2c6e550c2ffa3331d662b1a46e8d9175aec1950522c415b0efb004e0f2bbe32"}, "vout": 54, "txid": "81143e2e753d5ad1bc004b68aa944a05ae24d69291164da641fc521e5fcef0a9"}], "txid": "9046a14c09c56fd463789d7e7e0edae15cd80ba299ed440fb083e317f9149a2a", "blocktime": 1537874412, "version": 2, "confirmations": 11466, "time": 1537874412, "locktime": 542997, "vsize": 369, "size": 369}