{"hash": "90507b35150f4cfde05c910149d0cebe1608dd420d484f726814555ea7fc78ac", "blockhash": "00000000000000000018f53835495a110e01622372bf6ae95dc86f2b0ab887b0", "vout": [{"scriptPubKey": {"reqSigs": 1, "hex": "76a91404804e0773fa686554b392f4e01180294d07601f88ac", "addresses": ["1QoQYPb5JiKyeK2jj47Rv9YTRGn6FVFCX"], "asm": "OP_DUP OP_HASH160 04804e0773fa686554b392f4e01180294d07601f OP_EQUALVERIFY OP_CHECKSIG", "type": "pubkeyhash"}, "value": 1.99991, "n": 0}], "hex": "0100000001e29c2a211735290439df4b5da1a9c9cfbcc81a196ec2568b7140a53af7c04c2a030000006a47304402200981c59865cf707d8021c8b30a848def9c352e8af34de099baa8c1be757312080220190f83686a791d53a2d1673ea4727f0bef9769500f59222af51d44c050c113c1012102d9249c547ae5d426a9dc98997d6938fb4f92ba557411913884ebf7870e6e6805ffffffff01d89eeb0b000000001976a91404804e0773fa686554b392f4e01180294d07601f88ac00000000", "vin": [{"sequence": 4294967295, "scriptSig": {"hex": "47304402200981c59865cf707d8021c8b30a848def9c352e8af34de099baa8c1be757312080220190f83686a791d53a2d1673ea4727f0bef9769500f59222af51d44c050c113c1012102d9249c547ae5d426a9dc98997d6938fb4f92ba557411913884ebf7870e6e6805", "asm": "304402200981c59865cf707d8021c8b30a848def9c352e8af34de099baa8c1be757312080220190f83686a791d53a2d1673ea4727f0bef9769500f59222af51d44c050c113c1[ALL] 02d9249c547ae5d426a9dc98997d6938fb4f92ba557411913884ebf7870e6e6805"}, "vout": 3, "txid": "2a4cc0f73aa540718b56c26e191ac8bccfc9a9a15d4bdf3904293517212a9ce2"}], "txid": "90507b35150f4cfde05c910149d0cebe1608dd420d484f726814555ea7fc78ac", "blocktime": 1537870928, "version": 1, "confirmations": 11512, "time": 1537870928, "locktime": 0, "vsize": 191, "size": 191}