{"hash": "9050266ce67785f19bd9fe066a24f90ac1c7dcc638073e1d1d29ff7fb2b2ae49", "blockhash": "0000000000000000001e0dab787dd257d1dbfcb92a98c2207d5e1078be1f4165", "vout": [{"scriptPubKey": {"reqSigs": 1, "hex": "76a914521e0940d2e9dbe221409976bcf596652e910cdd88ac", "addresses": ["18VCPgL16mVi11nV1TXKwbjfSEbgUtgv7F"], "asm": "OP_DUP OP_HASH160 521e0940d2e9dbe221409976bcf596652e910cdd OP_EQUALVERIFY OP_CHECKSIG", "type": "pubkeyhash"}, "value": 0.00103588, "n": 0}, {"scriptPubKey": {"reqSigs": 1, "hex": "a9145a41fd6742479d61b923e917856b53f58287d7f987", "addresses": ["39vFns5BGkUPgBojG8WH2rd81pFE7D7dpM"], "asm": "OP_HASH160 5a41fd6742479d61b923e917856b53f58287d7f9 OP_EQUAL", "type": "scripthash"}, "value": 0.03903237, "n": 1}], "hex": "010000000363234811669d302fd0ff2fd718b645b53acf156b1614e38b42ff604199a1b66a010000006a4730440220198e8d81bab34ccf5e720ed06d170a7ddd3386bc07c5602d5b075f76e9a6bccf02206e938e7c6d9178c09bf547f6e9e3d9a8bf0e336bc64016300a2f01c23a84b26e01210253dc62fd1509e0c7f37b3949219b4190f6c74c37e88de26d23f034759c4880d7ffffffff1b5aa8e7bf2b67d80391e51c32d50d0482ed8eda826a11b12274548be94648981a0000006a4730440220347211daa652a346593952294bfe4147f8c64e06c7612dadd020b8155f1e67ad02200472e77bc0b0e5c4d41a0dd47c7fd13ac5028f8862e352c1a258e46a16b91faa0121034a6748e79683f4785ac596734767192a4ffe4c0e3732ba0a22250df002082297ffffffff8506888eb87d775bfca37d9ffa31705a155b08596baad2ad717f29e46e214bb0010000006b483045022100817bb6b89a1361041b9f82d42d5ac15899d4c182050119378c59b8f4e663951a022065bb4fa9e2a268d5750807c57d61fb3d224eb511616382f4061bc032b0f35f4c012103ffdf0e9299e85707b2e93bbd2e4cc5d5184813ab557e27da1498fcf2279459e2ffffffff02a4940100000000001976a914521e0940d2e9dbe221409976bcf596652e910cdd88ac058f3b000000000017a9145a41fd6742479d61b923e917856b53f58287d7f98700000000", "vin": [{"sequence": 4294967295, "scriptSig": {"hex": "4730440220198e8d81bab34ccf5e720ed06d170a7ddd3386bc07c5602d5b075f76e9a6bccf02206e938e7c6d9178c09bf547f6e9e3d9a8bf0e336bc64016300a2f01c23a84b26e01210253dc62fd1509e0c7f37b3949219b4190f6c74c37e88de26d23f034759c4880d7", "asm": "30440220198e8d81bab34ccf5e720ed06d170a7ddd3386bc07c5602d5b075f76e9a6bccf02206e938e7c6d9178c09bf547f6e9e3d9a8bf0e336bc64016300a2f01c23a84b26e[ALL] 0253dc62fd1509e0c7f37b3949219b4190f6c74c37e88de26d23f034759c4880d7"}, "vout": 1, "txid": "6ab6a1994160ff428be314166b15cf3ab545b618d72fffd02f309d6611482363"}, {"sequence": 4294967295, "scriptSig": {"hex": "4730440220347211daa652a346593952294bfe4147f8c64e06c7612dadd020b8155f1e67ad02200472e77bc0b0e5c4d41a0dd47c7fd13ac5028f8862e352c1a258e46a16b91faa0121034a6748e79683f4785ac596734767192a4ffe4c0e3732ba0a22250df002082297", "asm": "30440220347211daa652a346593952294bfe4147f8c64e06c7612dadd020b8155f1e67ad02200472e77bc0b0e5c4d41a0dd47c7fd13ac5028f8862e352c1a258e46a16b91faa[ALL] 034a6748e79683f4785ac596734767192a4ffe4c0e3732ba0a22250df002082297"}, "vout": 26, "txid": "984846e98b547422b1116a82da8eed82040dd5321ce59103d8672bbfe7a85a1b"}, {"sequence": 4294967295, "scriptSig": {"hex": "483045022100817bb6b89a1361041b9f82d42d5ac15899d4c182050119378c59b8f4e663951a022065bb4fa9e2a268d5750807c57d61fb3d224eb511616382f4061bc032b0f35f4c012103ffdf0e9299e85707b2e93bbd2e4cc5d5184813ab557e27da1498fcf2279459e2", "asm": "3045022100817bb6b89a1361041b9f82d42d5ac15899d4c182050119378c59b8f4e663951a022065bb4fa9e2a268d5750807c57d61fb3d224eb511616382f4061bc032b0f35f4c[ALL] 03ffdf0e9299e85707b2e93bbd2e4cc5d5184813ab557e27da1498fcf2279459e2"}, "vout": 1, "txid": "b04b216ee4297f71add2aa6b59085b155a7031fa9f7da3fc5b777db88e880685"}], "txid": "9050266ce67785f19bd9fe066a24f90ac1c7dcc638073e1d1d29ff7fb2b2ae49", "blocktime": 1537872475, "version": 1, "confirmations": 11487, "time": 1537872475, "locktime": 0, "vsize": 518, "size": 518}