{"hash": "a4c2c43de84ab7f87910a102cf78f05b6fdbd73ffcd02d75f34c9958f921713c", "blockhash": "00000000000000000017f5eb5941039fbcee6240d03bc1f2f8e35350df66a1d8", "vout": [{"scriptPubKey": {"reqSigs": 1, "hex": "76a914e799e6cb47929bc1f7cfa79fac1e4213005093db88ac", "addresses": ["1N7bTabaGtErrpZ69CGXWEWkTERr4HHVEM"], "asm": "OP_DUP OP_HASH160 e799e6cb47929bc1f7cfa79fac1e4213005093db OP_EQUALVERIFY OP_CHECKSIG", "type": "pubkeyhash"}, "value": 0.00035937, "n": 0}, {"scriptPubKey": {"reqSigs": 1, "hex": "a914412a5a9d44d5834123b7756088f409b7b3a36da687", "addresses": ["37daapNiiDgPEaARWMQCfhGXJo4yF1nTaW"], "asm": "OP_HASH160 412a5a9d44d5834123b7756088f409b7b3a36da6 OP_EQUAL", "type": "scripthash"}, "value": 0.0026636, "n": 1}], "hex": "01000000000101a9deacad2bcecd13e521c30f0ae19de32356a5ce41106823bf3d9e7bfa048dac010000002322002083f5850b1b9ae687f7cf8d5c77fefcbd87cde420155cd43c20d50f5f293b7ed6ffffffff02618c0000000000001976a914e799e6cb47929bc1f7cfa79fac1e4213005093db88ac781004000000000017a914412a5a9d44d5834123b7756088f409b7b3a36da6870400483045022100e1af56e30d4ed55a32867fe3e80fdf7beb902273459f71981fbc6370370f53f802204643955df7b5b6be0eaa1f75a18fb12d082965c33a341f31e88c5386c1be0f8401473044022061fb5678db3aac8918e7d78a1c3fbbc720a6a6d12933015364adcb0b7711e90d02203eb7be1c8816435b3b764ebf0b4794d2eb104b6f0da3d53f04ed6a96ff02ec7501475221020511070566b8412d1941b8dc0ded10caa6a6915b609dfa65bb8111255071d3a22103871fc2ca08e6950b38867e8e6a0e94ee625223d3aa0df5c65f414c6d784467e252ae00000000", "vin": [{"txinwitness": ["", "3045022100e1af56e30d4ed55a32867fe3e80fdf7beb902273459f71981fbc6370370f53f802204643955df7b5b6be0eaa1f75a18fb12d082965c33a341f31e88c5386c1be0f8401", "3044022061fb5678db3aac8918e7d78a1c3fbbc720a6a6d12933015364adcb0b7711e90d02203eb7be1c8816435b3b764ebf0b4794d2eb104b6f0da3d53f04ed6a96ff02ec7501", "5221020511070566b8412d1941b8dc0ded10caa6a6915b609dfa65bb8111255071d3a22103871fc2ca08e6950b38867e8e6a0e94ee625223d3aa0df5c65f414c6d784467e252ae"], "sequence": 4294967295, "scriptSig": {"hex": "22002083f5850b1b9ae687f7cf8d5c77fefcbd87cde420155cd43c20d50f5f293b7ed6", "asm": "002083f5850b1b9ae687f7cf8d5c77fefcbd87cde420155cd43c20d50f5f293b7ed6"}, "vout": 1, "txid": "ac8d04fa7b9e3dbf23681041cea55623e39de10a0fc321e513cdce2badacdea9"}], "txid": "90574eda2b581a9179560c31354c9674f3dc627623db630b04805e5efd22e526", "blocktime": 1537874412, "version": 1, "confirmations": 11468, "time": 1537874412, "locktime": 0, "vsize": 208, "size": 373}