{"hash": "c4321d021b17b4243d58aa97a5856cc95f7da4b19c83a81e4a2c640c2c84ec6e", "blockhash": "0000000000000000000baef3f32e3676a92c3b2e5da21b426e4f302fc371ce76", "vout": [{"scriptPubKey": {"reqSigs": 1, "hex": "a91490e99e8d26d05ead3c05430c292a887bbff695f587", "addresses": ["3EuF6KjJawxTiUsea3Sc8hsLUGmVEf7Xg5"], "asm": "OP_HASH160 90e99e8d26d05ead3c05430c292a887bbff695f5 OP_EQUAL", "type": "scripthash"}, "value": 0.00096491, "n": 0}, {"scriptPubKey": {"type": "nulldata", "hex": "6a146f6d6e69000000000000001f0000000005f5e100", "asm": "OP_RETURN 6f6d6e69000000000000001f0000000005f5e100"}, "value": 0.0, "n": 1}, {"scriptPubKey": {"reqSigs": 1, "hex": "a91490e99e8d26d05ead3c05430c292a887bbff695f587", "addresses": ["3EuF6KjJawxTiUsea3Sc8hsLUGmVEf7Xg5"], "asm": "OP_HASH160 90e99e8d26d05ead3c05430c292a887bbff695f5 OP_EQUAL", "type": "scripthash"}, "value": 5.4e-06, "n": 2}], "hex": "01000000000102a3b1fb3d82e4cc115ab4910614cb4703e8fcb246c13fed310418e9100519120c0000000017160014f6e1792e7852ebd5ae795c2a25d579acdfadec2dffffffffa3b1fb3d82e4cc115ab4910614cb4703e8fcb246c13fed310418e9100519120c0200000017160014f6e1792e7852ebd5ae795c2a25d579acdfadec2dffffffff03eb7801000000000017a91490e99e8d26d05ead3c05430c292a887bbff695f5870000000000000000166a146f6d6e69000000000000001f0000000005f5e1001c0200000000000017a91490e99e8d26d05ead3c05430c292a887bbff695f587024830450221009746b9e199dc4c294d3caa544966686f58637c1dadf831de4c9f9dfd9f1a334b0220330107682f99576ae12e5512bfa584e2074887bc5817ac284878fb6386630957012103f1cf988013a33e053d1e9bd54c4798c1a6dc362a5b2798b5344049fca40e2db002473044022061520d38682301c55df2df3a8647b0c4aae274635edce2469b832001bcf3103502202c87ae6737cb33555df982c73f08aec81488dd7e8b219f472a9aa04f9c495744012103f1cf988013a33e053d1e9bd54c4798c1a6dc362a5b2798b5344049fca40e2db000000000", "vin": [{"txinwitness": ["30450221009746b9e199dc4c294d3caa544966686f58637c1dadf831de4c9f9dfd9f1a334b0220330107682f99576ae12e5512bfa584e2074887bc5817ac284878fb638663095701", "03f1cf988013a33e053d1e9bd54c4798c1a6dc362a5b2798b5344049fca40e2db0"], "sequence": 4294967295, "scriptSig": {"hex": "160014f6e1792e7852ebd5ae795c2a25d579acdfadec2d", "asm": "0014f6e1792e7852ebd5ae795c2a25d579acdfadec2d"}, "vout": 0, "txid": "0c12190510e9180431ed3fc146b2fce80347cb140691b45a11cce4823dfbb1a3"}, {"txinwitness": ["3044022061520d38682301c55df2df3a8647b0c4aae274635edce2469b832001bcf3103502202c87ae6737cb33555df982c73f08aec81488dd7e8b219f472a9aa04f9c49574401", "03f1cf988013a33e053d1e9bd54c4798c1a6dc362a5b2798b5344049fca40e2db0"], "sequence": 4294967295, "scriptSig": {"hex": "160014f6e1792e7852ebd5ae795c2a25d579acdfadec2d", "asm": "0014f6e1792e7852ebd5ae795c2a25d579acdfadec2d"}, "vout": 2, "txid": "0c12190510e9180431ed3fc146b2fce80347cb140691b45a11cce4823dfbb1a3"}], "txid": "905dc3580816d83b548278ae62c8d94c30e75477f88225ad1bd6431d39515c3e", "blocktime": 1537876114, "version": 1, "confirmations": 11460, "time": 1537876114, "locktime": 0, "vsize": 288, "size": 450}