{"hash": "905f47f43ea79c08b5bbdf649058f84f1c9ba0a1d1a9c9a2bea7c779c418ce38", "blockhash": "00000000000000000018f53835495a110e01622372bf6ae95dc86f2b0ab887b0", "vout": [{"scriptPubKey": {"reqSigs": 1, "hex": "76a91474e4efe627785aadf88d1112155aba22699c1c0788ac", "addresses": ["1Bf5e5iUDbKL1c4wqom1Us6zszSokXY4Bd"], "asm": "OP_DUP OP_HASH160 74e4efe627785aadf88d1112155aba22699c1c07 OP_EQUALVERIFY OP_CHECKSIG", "type": "pubkeyhash"}, "value": 0.01561122, "n": 0}, {"scriptPubKey": {"reqSigs": 1, "hex": "76a914ba2938a4826d0b7610752e474c5de3d08620381588ac", "addresses": ["1HyL4nToRserdrim437vvHr4axxB2DkXQt"], "asm": "OP_DUP OP_HASH160 ba2938a4826d0b7610752e474c5de3d086203815 OP_EQUALVERIFY OP_CHECKSIG", "type": "pubkeyhash"}, "value": 0.05208662, "n": 1}], "hex": "010000000130667389f07935b29af6aea57b0fd1bc6132a795268c6bf615afb0b9561b733f010000006b483045022100e23cc148332b437e9c185429daa9be65c028025e54fd54ef806bfdd5ebe288ca022014631f189812830b59ae747ebf8293d922d1eb6da718d150eabea9e481547311012103f041df7344dd06271f8e674c4459ca2f77758c3f0baea0381e364333205aa418ffffffff0222d21700000000001976a91474e4efe627785aadf88d1112155aba22699c1c0788ac567a4f00000000001976a914ba2938a4826d0b7610752e474c5de3d08620381588ac00000000", "vin": [{"sequence": 4294967295, "scriptSig": {"hex": "483045022100e23cc148332b437e9c185429daa9be65c028025e54fd54ef806bfdd5ebe288ca022014631f189812830b59ae747ebf8293d922d1eb6da718d150eabea9e481547311012103f041df7344dd06271f8e674c4459ca2f77758c3f0baea0381e364333205aa418", "asm": "3045022100e23cc148332b437e9c185429daa9be65c028025e54fd54ef806bfdd5ebe288ca022014631f189812830b59ae747ebf8293d922d1eb6da718d150eabea9e481547311[ALL] 03f041df7344dd06271f8e674c4459ca2f77758c3f0baea0381e364333205aa418"}, "vout": 1, "txid": "3f731b56b9b0af15f66b8c2695a73261bcd10f7ba5aef69ab23579f089736630"}], "txid": "905f47f43ea79c08b5bbdf649058f84f1c9ba0a1d1a9c9a2bea7c779c418ce38", "blocktime": 1537870928, "version": 1, "confirmations": 11514, "time": 1537870928, "locktime": 0, "vsize": 226, "size": 226}