{"hash": "9061981a2ceac395d66100a23a62c1827be7d6ff029389c01f2c347b838e431c", "blockhash": "0000000000000000001f0ddff1eddb255c1121bcd4da4f1bc9a0da00cae72433", "vout": [{"scriptPubKey": {"reqSigs": 1, "hex": "0014e33dc64b1a22c0ec213aa989c82dfd0f0c3e3a1a", "addresses": ["bc1quv7uvjc6ytqwcgf64xyust0apuxruws6uzynm4"], "asm": "0 e33dc64b1a22c0ec213aa989c82dfd0f0c3e3a1a", "type": "witness_v0_keyhash"}, "value": 0.00538749, "n": 0}, {"scriptPubKey": {"reqSigs": 1, "hex": "a9149f223363780ece6ba074c80b87d12cd17ae7262587", "addresses": ["3GCSLMTqv5P4pSW4orpTEmZFCg5FmK7TKn"], "asm": "OP_HASH160 9f223363780ece6ba074c80b87d12cd17ae72625 OP_EQUAL", "type": "scripthash"}, "value": 0.0469049, "n": 1}], "hex": "0100000001054b0ed5fffa1492ed93255c6bf3785f71e9da79c6acb3acb13d65ff261b3d095e0000008b483045022100953c4e16c13465d888be9f82632f748fcd49420e1732f7a0d73b9a4a4e8facda02203f0fdae27e8fb9f14acc076b50d40867192eb38775a4b768cb0078d22a994683014104099a891df303c16cffa4fc79bc8db3f244c35a60f8a3873aeb9554db602b55efe80fe8b1359f04f96212ef76a898ff3bd8b6603335d43a903dc8d65d9652fdf7ffffffff027d38080000000000160014e33dc64b1a22c0ec213aa989c82dfd0f0c3e3a1a3a9247000000000017a9149f223363780ece6ba074c80b87d12cd17ae726258700000000", "vin": [{"sequence": 4294967295, "scriptSig": {"hex": "483045022100953c4e16c13465d888be9f82632f748fcd49420e1732f7a0d73b9a4a4e8facda02203f0fdae27e8fb9f14acc076b50d40867192eb38775a4b768cb0078d22a994683014104099a891df303c16cffa4fc79bc8db3f244c35a60f8a3873aeb9554db602b55efe80fe8b1359f04f96212ef76a898ff3bd8b6603335d43a903dc8d65d9652fdf7", "asm": "3045022100953c4e16c13465d888be9f82632f748fcd49420e1732f7a0d73b9a4a4e8facda02203f0fdae27e8fb9f14acc076b50d40867192eb38775a4b768cb0078d22a994683[ALL] 04099a891df303c16cffa4fc79bc8db3f244c35a60f8a3873aeb9554db602b55efe80fe8b1359f04f96212ef76a898ff3bd8b6603335d43a903dc8d65d9652fdf7"}, "vout": 94, "txid": "093d1b26ff653db1acb3acc679dae9715f78f36b5c2593ed9214faffd50e4b05"}], "txid": "9061981a2ceac395d66100a23a62c1827be7d6ff029389c01f2c347b838e431c", "blocktime": 1537872018, "version": 1, "confirmations": 11489, "time": 1537872018, "locktime": 0, "vsize": 253, "size": 253}