{"hash": "c7c5f824aa6d04c5e85922c4fec2957a2ad6cbe0b7454b96c5882e203f653b44", "blockhash": "00000000000000000018f53835495a110e01622372bf6ae95dc86f2b0ab887b0", "vout": [{"scriptPubKey": {"reqSigs": 1, "hex": "a91430897cc6c9d69f6a2c2f1c651d51f22219f1a4f687", "addresses": ["367f4YWz1VCFaqBqwbTrzwi2b1h2U3w1AF"], "asm": "OP_HASH160 30897cc6c9d69f6a2c2f1c651d51f22219f1a4f6 OP_EQUAL", "type": "scripthash"}, "value": 0.00757825, "n": 0}, {"scriptPubKey": {"reqSigs": 1, "hex": "a91469f3759ce8ceec0b3911773e958c4625da632ef987", "addresses": ["3BMEXYUCrTviBHrJhPRAijqp2UMzKTB8sw"], "asm": "OP_HASH160 69f3759ce8ceec0b3911773e958c4625da632ef9 OP_EQUAL", "type": "scripthash"}, "value": 0.00360906, "n": 1}], "hex": "01000000000101da1dc96b8c8c4f4e01e075de895e36ba2c3e5904d52a9586730f45f160988ff30000000023220020bcf9f822194145acea0f3235f4107b5bf1a91b6b9f8489f63bf79ec29b360913ffffffff0241900b000000000017a91430897cc6c9d69f6a2c2f1c651d51f22219f1a4f687ca8105000000000017a91469f3759ce8ceec0b3911773e958c4625da632ef9870400483045022100806b45ed399c25f06dfcc60dca13fb8bed51df56a334a85bd0807fe14a0c897a02206b82b44b2b7863ad8f30ddb5846c2a44d7d8fd6f8b19b4c61b2f25e51a523cce0147304402207bedddd23d6548a6d43e5473ddd567a7630992c204fc6aa2cd590035bac8a43b02204f4a821b640099fb15c4c311e36bf7ff5cbf507da411688df1fd273939d2875d01695221026c8f72b9e63db63907115e65d4da86eaae595b22fdc85ec75301bb4adbf203582103806535be3e3920e5eedee92de5714188fd6a784f2bf7b04f87de0b9c3ae1ecdb21024b23bfdce2afcae7e28c42f7f79aa100f22931712c52d7414a526ba494d44a2553ae00000000", "vin": [{"txinwitness": ["", "3045022100806b45ed399c25f06dfcc60dca13fb8bed51df56a334a85bd0807fe14a0c897a02206b82b44b2b7863ad8f30ddb5846c2a44d7d8fd6f8b19b4c61b2f25e51a523cce01", "304402207bedddd23d6548a6d43e5473ddd567a7630992c204fc6aa2cd590035bac8a43b02204f4a821b640099fb15c4c311e36bf7ff5cbf507da411688df1fd273939d2875d01", "5221026c8f72b9e63db63907115e65d4da86eaae595b22fdc85ec75301bb4adbf203582103806535be3e3920e5eedee92de5714188fd6a784f2bf7b04f87de0b9c3ae1ecdb21024b23bfdce2afcae7e28c42f7f79aa100f22931712c52d7414a526ba494d44a2553ae"], "sequence": 4294967295, "scriptSig": {"hex": "220020bcf9f822194145acea0f3235f4107b5bf1a91b6b9f8489f63bf79ec29b360913", "asm": "0020bcf9f822194145acea0f3235f4107b5bf1a91b6b9f8489f63bf79ec29b360913"}, "vout": 0, "txid": "f38f9860f1450f7386952ad504593e2cba365e89de75e0014e4f8c8c6bc91dda"}], "txid": "906203f2fed43bab4dcbb5e230ed5a055064bcdf4c36f289594389a70bfc08e6", "blocktime": 1537870928, "version": 1, "confirmations": 11512, "time": 1537870928, "locktime": 0, "vsize": 214, "size": 405}