{"hash": "906565b3a2eb910d9e92f118382b31b39f3cfeb6f103b72d4d3d67fccf0b823b", "blockhash": "0000000000000000001f0ddff1eddb255c1121bcd4da4f1bc9a0da00cae72433", "vout": [{"scriptPubKey": {"type": "nulldata", "hex": "6a4c50000077a800019ced688062614485db9295a9af6c953dd567cf27e7e3ef3236678a62509742e86036d52a6e8682b50b2283a1b8c35baa0fd8061357a0a40943221d100759d4ba30d2c37bb011d97e02cf", "asm": "OP_RETURN 000077a800019ced688062614485db9295a9af6c953dd567cf27e7e3ef3236678a62509742e86036d52a6e8682b50b2283a1b8c35baa0fd8061357a0a40943221d100759d4ba30d2c37bb011d97e02cf"}, "value": 0.0, "n": 0}, {"scriptPubKey": {"reqSigs": 1, "hex": "76a91430c3ba68e99746273adafb626fcd47c06a59e04d88ac", "addresses": ["15Sque4oqDjHpZ9JjsXVXAFzBwcLDKysDJ"], "asm": "OP_DUP OP_HASH160 30c3ba68e99746273adafb626fcd47c06a59e04d OP_EQUALVERIFY OP_CHECKSIG", "type": "pubkeyhash"}, "value": 0.00641587, "n": 1}], "hex": "0100000001aaca878b4f0a994a6d04fb661d0a206fec050554430bdb46999b00850435d2f6000000006b483045022100f36aef4e7ab9e3d74e0c8a79a06b0605dd83df1247aadfcb5b8c22363448710302204b586b5bb348b2927b4bc27f019367454be62c342e7ce4f3abccf8c96a2500b60121028210e27a2b18f594a8ac364a5d4f4a630c23104e241aa1ebd9a950398d7812e0ffffffff020000000000000000536a4c50000077a800019ced688062614485db9295a9af6c953dd567cf27e7e3ef3236678a62509742e86036d52a6e8682b50b2283a1b8c35baa0fd8061357a0a40943221d100759d4ba30d2c37bb011d97e02cf33ca0900000000001976a91430c3ba68e99746273adafb626fcd47c06a59e04d88ac00000000", "vin": [{"sequence": 4294967295, "scriptSig": {"hex": "483045022100f36aef4e7ab9e3d74e0c8a79a06b0605dd83df1247aadfcb5b8c22363448710302204b586b5bb348b2927b4bc27f019367454be62c342e7ce4f3abccf8c96a2500b60121028210e27a2b18f594a8ac364a5d4f4a630c23104e241aa1ebd9a950398d7812e0", "asm": "3045022100f36aef4e7ab9e3d74e0c8a79a06b0605dd83df1247aadfcb5b8c22363448710302204b586b5bb348b2927b4bc27f019367454be62c342e7ce4f3abccf8c96a2500b6[ALL] 028210e27a2b18f594a8ac364a5d4f4a630c23104e241aa1ebd9a950398d7812e0"}, "vout": 0, "txid": "f6d2350485009b9946db0b43540505ec6f200a1d66fb046d4a990a4f8b87caaa"}], "txid": "906565b3a2eb910d9e92f118382b31b39f3cfeb6f103b72d4d3d67fccf0b823b", "blocktime": 1537872018, "version": 1, "confirmations": 11489, "time": 1537872018, "locktime": 0, "vsize": 284, "size": 284}