{"hash": "9073aeb36ac81b85d313ad1eba8dbc35988c3c967109f90cad8e5b7383b720d7", "blockhash": "0000000000000000001f76057863aec43deb6fa401d9628bb513d65a8098bfab", "vout": [{"scriptPubKey": {"reqSigs": 1, "hex": "76a91498d95dc71ced2f553b306a6f179135e4927ddd2588ac", "addresses": ["1EwC732JwnVtoeFv7xQLdHzTyHTxKVpwqh"], "asm": "OP_DUP OP_HASH160 98d95dc71ced2f553b306a6f179135e4927ddd25 OP_EQUALVERIFY OP_CHECKSIG", "type": "pubkeyhash"}, "value": 0.00890969, "n": 0}], "hex": "01000000011b7895c8c2e87d49853422c1c73002ef39d31abcc849c334fd2325b036c9a815030000006b483045022100db538cfd825692872ffcb2c7d8fcb4a8e514483b9d9d688e0d7d8e0dee6e30dc022052b23aec5089f0362b4a92026ecb512ea16598fec7e613ff4ec632c4dacc206901210317d33b898c7f784ae34eb2043ec2ed945cf1295549cc514fa1acb639f5db171bffffffff0159980d00000000001976a91498d95dc71ced2f553b306a6f179135e4927ddd2588ac00000000", "vin": [{"sequence": 4294967295, "scriptSig": {"hex": "483045022100db538cfd825692872ffcb2c7d8fcb4a8e514483b9d9d688e0d7d8e0dee6e30dc022052b23aec5089f0362b4a92026ecb512ea16598fec7e613ff4ec632c4dacc206901210317d33b898c7f784ae34eb2043ec2ed945cf1295549cc514fa1acb639f5db171b", "asm": "3045022100db538cfd825692872ffcb2c7d8fcb4a8e514483b9d9d688e0d7d8e0dee6e30dc022052b23aec5089f0362b4a92026ecb512ea16598fec7e613ff4ec632c4dacc2069[ALL] 0317d33b898c7f784ae34eb2043ec2ed945cf1295549cc514fa1acb639f5db171b"}, "vout": 3, "txid": "15a8c936b02523fd34c349c8bc1ad339ef0230c7c1223485497de8c2c895781b"}], "txid": "9073aeb36ac81b85d313ad1eba8dbc35988c3c967109f90cad8e5b7383b720d7", "blocktime": 1537873891, "version": 1, "confirmations": 11475, "time": 1537873891, "locktime": 0, "vsize": 192, "size": 192}