{"hash": "9079e622af4959da99f547c784c0356ff2418959f058fac7e2679d9a0943c573", "blockhash": "0000000000000000000baef3f32e3676a92c3b2e5da21b426e4f302fc371ce76", "vout": [{"scriptPubKey": {"reqSigs": 1, "hex": "76a9142a5c4a2f40fe268926ada5250bfe36d187cae39688ac", "addresses": ["14rywTt4bX3LwcGW7yMKKwvbYwyimp85vi"], "asm": "OP_DUP OP_HASH160 2a5c4a2f40fe268926ada5250bfe36d187cae396 OP_EQUALVERIFY OP_CHECKSIG", "type": "pubkeyhash"}, "value": 0.00098784, "n": 0}, {"scriptPubKey": {"type": "nulldata", "hex": "6a4c5000007807000163d7791cdde48e259720b791702940d64fa54d8eb2d19ed074892d00f8e8b2fb2c1f697233c2de859105462799725baa1abc06137fd16ced5994bc9a9526289ac0f6612cd74e33776ee4", "asm": "OP_RETURN 00007807000163d7791cdde48e259720b791702940d64fa54d8eb2d19ed074892d00f8e8b2fb2c1f697233c2de859105462799725baa1abc06137fd16ced5994bc9a9526289ac0f6612cd74e33776ee4"}, "value": 0.0, "n": 1}], "hex": "010000000161b21f3a55aa3c89bc52d6e8288be98274c89b44f3bc3cc552995a72273e89f0000000006a473044022022b85c28dbab30e5191fdf328846fcdec764cc2762d2a1720c6b3a22aa4e7ba2022000f84e260fafe983ae1aceb159336386f12f5d187f0e1b3e3793f9cfe9a86d170121026e7debed4a77e9ed8af4c9da40627648fb8684866baded77ea06856410f05751ffffffff02e0810100000000001976a9142a5c4a2f40fe268926ada5250bfe36d187cae39688ac0000000000000000536a4c5000007807000163d7791cdde48e259720b791702940d64fa54d8eb2d19ed074892d00f8e8b2fb2c1f697233c2de859105462799725baa1abc06137fd16ced5994bc9a9526289ac0f6612cd74e33776ee400000000", "vin": [{"sequence": 4294967295, "scriptSig": {"hex": "473044022022b85c28dbab30e5191fdf328846fcdec764cc2762d2a1720c6b3a22aa4e7ba2022000f84e260fafe983ae1aceb159336386f12f5d187f0e1b3e3793f9cfe9a86d170121026e7debed4a77e9ed8af4c9da40627648fb8684866baded77ea06856410f05751", "asm": "3044022022b85c28dbab30e5191fdf328846fcdec764cc2762d2a1720c6b3a22aa4e7ba2022000f84e260fafe983ae1aceb159336386f12f5d187f0e1b3e3793f9cfe9a86d17[ALL] 026e7debed4a77e9ed8af4c9da40627648fb8684866baded77ea06856410f05751"}, "vout": 0, "txid": "f0893e27725a9952c53cbcf3449bc87482e98b28e8d652bc893caa553a1fb261"}], "txid": "9079e622af4959da99f547c784c0356ff2418959f058fac7e2679d9a0943c573", "blocktime": 1537876114, "version": 1, "confirmations": 11460, "time": 1537876114, "locktime": 0, "vsize": 283, "size": 283}