{"hash": "90791200f2ede6fbbccbc7422a0344c950ad8599166bf6ded9fca2ab371183aa", "blockhash": "0000000000000000000dcc0f55137456b1a82d3642486a52398922ac4d620174", "vout": [{"scriptPubKey": {"type": "nulldata", "hex": "6a146f6d6e69000000000000001f0000001d86958f00", "asm": "OP_RETURN 6f6d6e69000000000000001f0000001d86958f00"}, "value": 0.0, "n": 0}, {"scriptPubKey": {"reqSigs": 1, "hex": "76a9146f3faa96c32c771dd96425f915d874245079385c88ac", "addresses": ["1B9EGukytBkMmYoSJNcoU9PzK4WL2ypKHp"], "asm": "OP_DUP OP_HASH160 6f3faa96c32c771dd96425f915d874245079385c OP_EQUALVERIFY OP_CHECKSIG", "type": "pubkeyhash"}, "value": 5.46e-06, "n": 1}, {"scriptPubKey": {"reqSigs": 1, "hex": "76a914388256b4fb33f6155727017f7d5cce7e0d2a65f388ac", "addresses": ["169nyqNqauSUMcS3rAExS3rhhrwz9mVA4i"], "asm": "OP_DUP OP_HASH160 388256b4fb33f6155727017f7d5cce7e0d2a65f3 OP_EQUALVERIFY OP_CHECKSIG", "type": "pubkeyhash"}, "value": 0.00169487, "n": 2}], "hex": "010000000173ae73daaf383cc82beb4a3e640850dec07eefb138a4cb504cc0069a8873f4e0010000006a47304402205b75716bfa57e61a20e813fb125ab26c80c649dea9d8d6081ad3c002550311b602200a039093fa357f7f09e30fe72e4b5cf4559acf1373d0b5dfaba704fe4e5f2f09012102cca43b3082ae7d70499eba1e028fba08cb647209c0be3dee55eeb6b51b623f1ffeffffff030000000000000000166a146f6d6e69000000000000001f0000001d86958f0022020000000000001976a9146f3faa96c32c771dd96425f915d874245079385c88ac0f960200000000001976a914388256b4fb33f6155727017f7d5cce7e0d2a65f388ac0c490800", "vin": [{"sequence": 4294967294, "scriptSig": {"hex": "47304402205b75716bfa57e61a20e813fb125ab26c80c649dea9d8d6081ad3c002550311b602200a039093fa357f7f09e30fe72e4b5cf4559acf1373d0b5dfaba704fe4e5f2f09012102cca43b3082ae7d70499eba1e028fba08cb647209c0be3dee55eeb6b51b623f1f", "asm": "304402205b75716bfa57e61a20e813fb125ab26c80c649dea9d8d6081ad3c002550311b602200a039093fa357f7f09e30fe72e4b5cf4559acf1373d0b5dfaba704fe4e5f2f09[ALL] 02cca43b3082ae7d70499eba1e028fba08cb647209c0be3dee55eeb6b51b623f1f"}, "vout": 1, "txid": "e0f473889a06c04c50cba438b1ef7ec0de5008643e4aeb2bc83c38afda73ae73"}], "txid": "90791200f2ede6fbbccbc7422a0344c950ad8599166bf6ded9fca2ab371183aa", "blocktime": 1537870268, "version": 1, "confirmations": 11519, "time": 1537870268, "locktime": 542988, "vsize": 256, "size": 256}