{"hash": "907beedeeef04b953a8f4a264cab76300b19404162549d9404d33946832ee076", "blockhash": "0000000000000000000baef3f32e3676a92c3b2e5da21b426e4f302fc371ce76", "vout": [{"scriptPubKey": {"type": "nulldata", "hex": "6a4c500000782200017cdcad2d95c4798fc698134b019d6ddc0f1b8ff117702940d64fa54d8eb21b66e7736205396f49b98d72f7e7af165baa1d97061451c8c779c6dfbc9a9526289ac0f6612cd74e33776ee4", "asm": "OP_RETURN 0000782200017cdcad2d95c4798fc698134b019d6ddc0f1b8ff117702940d64fa54d8eb21b66e7736205396f49b98d72f7e7af165baa1d97061451c8c779c6dfbc9a9526289ac0f6612cd74e33776ee4"}, "value": 0.0, "n": 0}, {"scriptPubKey": {"reqSigs": 1, "hex": "76a91474770877f84e53a2b78bd7977e47ad7f0e10dca388ac", "addresses": ["1BcoypKDoUdcfrFuRrMz81XGYKkN7WfZuF"], "asm": "OP_DUP OP_HASH160 74770877f84e53a2b78bd7977e47ad7f0e10dca3 OP_EQUALVERIFY OP_CHECKSIG", "type": "pubkeyhash"}, "value": 0.000676, "n": 1}], "hex": "0100000001b41b9a56fc6d781e41d343419b1cc2cdf42742a7a76e3caeb3b2c4d334e9113b000000006a47304402200a825c9587939f2d40b6d3ec45875b0a1a42cb981564fc6e49c93c0a6bf929670220557fbb8c7d05f82e227f0fbe33e7b12a630422031c352843da75c684907b1692012102298f46af03fc056c785c06c50d5bcda23ebcfd1570715355451e8c9db664e704ffffffff020000000000000000536a4c500000782200017cdcad2d95c4798fc698134b019d6ddc0f1b8ff117702940d64fa54d8eb21b66e7736205396f49b98d72f7e7af165baa1d97061451c8c779c6dfbc9a9526289ac0f6612cd74e33776ee410080100000000001976a91474770877f84e53a2b78bd7977e47ad7f0e10dca388ac00000000", "vin": [{"sequence": 4294967295, "scriptSig": {"hex": "47304402200a825c9587939f2d40b6d3ec45875b0a1a42cb981564fc6e49c93c0a6bf929670220557fbb8c7d05f82e227f0fbe33e7b12a630422031c352843da75c684907b1692012102298f46af03fc056c785c06c50d5bcda23ebcfd1570715355451e8c9db664e704", "asm": "304402200a825c9587939f2d40b6d3ec45875b0a1a42cb981564fc6e49c93c0a6bf929670220557fbb8c7d05f82e227f0fbe33e7b12a630422031c352843da75c684907b1692[ALL] 02298f46af03fc056c785c06c50d5bcda23ebcfd1570715355451e8c9db664e704"}, "vout": 0, "txid": "3b11e934d3c4b2b3ae3c6ea7a74227f4cdc21c9b4143d3411e786dfc569a1bb4"}], "txid": "907beedeeef04b953a8f4a264cab76300b19404162549d9404d33946832ee076", "blocktime": 1537876114, "version": 1, "confirmations": 11460, "time": 1537876114, "locktime": 0, "vsize": 283, "size": 283}