{"hash": "0478f25689e36281c3470d175730e16bcacbbd8d8f9098eac3a3b0b417b19064", "blockhash": "00000000000000000018f53835495a110e01622372bf6ae95dc86f2b0ab887b0", "vout": [{"scriptPubKey": {"reqSigs": 1, "hex": "a9144927956c1625f693cc692e2995bc14889ab6f45b87", "addresses": ["38MpfsPyANVr3XzWZwiVbh9TdQgprhEL2s"], "asm": "OP_HASH160 4927956c1625f693cc692e2995bc14889ab6f45b OP_EQUAL", "type": "scripthash"}, "value": 0.07125595, "n": 0}, {"scriptPubKey": {"reqSigs": 1, "hex": "a91473a688e7345935357681badd990a098ccf1a9cc487", "addresses": ["3CEX8eGuG7y7hhyarQCABJ3NxmJJKzr757"], "asm": "OP_HASH160 73a688e7345935357681badd990a098ccf1a9cc4 OP_EQUAL", "type": "scripthash"}, "value": 0.0099, "n": 1}], "hex": "02000000000101110e1532463e52a34ba73c2399226de3266501fd7c17ea02e665e062ee05a26c01000000171600148d5a0cd7fb49e2fb9867b6cf99ce30a065a70463feffffff025bba6c000000000017a9144927956c1625f693cc692e2995bc14889ab6f45b87301b0f000000000017a91473a688e7345935357681badd990a098ccf1a9cc4870247304402206dc6657e71f1b58e7a10004b12dd62dac760702f10d596816202fdb9d362d87a02200f24d463ec21b9788e7a764104bff1e33609d56dbe3a903d03a409e14f1cb747012102417ffb7e1a82a3575d87c6e24ff180f73797bdbc6e4e669bb65fa6e3ad39767d0e490800", "vin": [{"txinwitness": ["304402206dc6657e71f1b58e7a10004b12dd62dac760702f10d596816202fdb9d362d87a02200f24d463ec21b9788e7a764104bff1e33609d56dbe3a903d03a409e14f1cb74701", "02417ffb7e1a82a3575d87c6e24ff180f73797bdbc6e4e669bb65fa6e3ad39767d"], "sequence": 4294967294, "scriptSig": {"hex": "1600148d5a0cd7fb49e2fb9867b6cf99ce30a065a70463", "asm": "00148d5a0cd7fb49e2fb9867b6cf99ce30a065a70463"}, "vout": 1, "txid": "6ca205ee62e065e602ea177cfd016526e36d2299233ca74ba3523e4632150e11"}], "txid": "907cf703f0336fc77d23d37cbe4510d9b1a6af94f24d0225e788469875421cbe", "blocktime": 1537870928, "version": 2, "confirmations": 11514, "time": 1537870928, "locktime": 542990, "vsize": 166, "size": 247}