{"hash": "52437b1987975452742470a93f3ca24c2582b0335e31893d763f62f2bb97d53b", "blockhash": "000000000000000000022b45ed06c6f4ccd3cf7fb5ba4856ebd2e58215665228", "vout": [{"scriptPubKey": {"reqSigs": 1, "hex": "a9143603b77c3dbcbeece74ffdd9749db4e8708fb7b787", "addresses": ["36ccs9S2DySyPPXg1KGBuVzyW3ADxgkMC6"], "asm": "OP_HASH160 3603b77c3dbcbeece74ffdd9749db4e8708fb7b7 OP_EQUAL", "type": "scripthash"}, "value": 0.00999794, "n": 0}, {"scriptPubKey": {"reqSigs": 1, "hex": "76a9141e5a98dd38c1cae1a72086a14b159da32f2ddda988ac", "addresses": ["13mVoZ79o2jiiQKjxcpTePYZLWFrpMi5Fm"], "asm": "OP_DUP OP_HASH160 1e5a98dd38c1cae1a72086a14b159da32f2ddda9 OP_EQUALVERIFY OP_CHECKSIG", "type": "pubkeyhash"}, "value": 0.0030957, "n": 1}], "hex": "02000000000102771ed969ac154cf9be4e71f11fed0808334a507209f701d709a889bdf2acb4f80d00000017160014fa8e010406ad9ccfc82824fb33088474ccb6c218fefffffff11281729f3b0dbc15c387aa6d9dd70eeb1e3b6eab83ba6aa7d58bcaa842d19701000000171600148fe46530886292fecc85771aea4f3d96e72fc993feffffff0272410f000000000017a9143603b77c3dbcbeece74ffdd9749db4e8708fb7b78742b90400000000001976a9141e5a98dd38c1cae1a72086a14b159da32f2ddda988ac02483045022100c3e0a9a84e8c88945a163eed4222d83019151c199097e673887588081cc93a1702202f59721a6075a718e5ff40b070a6d8c2c713ea569d5d16d79510462330a7f43e012102e1bdd2294f10e6ec59bf6ae7b56e50bf8d5a581710e2e5b9d9bcbf46565b88910247304402200f50c0e3b1dc766dae856c52432eb45ff4e5a2ded59c460bde9b230d3725983702200f169ab56caaaf1ad1895b45d8cc6631f5b401f2c47b05d13751657568171627012103f8e6d4f009868e8fdcbe394e90b58f0207f29dad0742772d77ac83dc06aed27e0b490800", "vin": [{"txinwitness": ["3045022100c3e0a9a84e8c88945a163eed4222d83019151c199097e673887588081cc93a1702202f59721a6075a718e5ff40b070a6d8c2c713ea569d5d16d79510462330a7f43e01", "02e1bdd2294f10e6ec59bf6ae7b56e50bf8d5a581710e2e5b9d9bcbf46565b8891"], "sequence": 4294967294, "scriptSig": {"hex": "160014fa8e010406ad9ccfc82824fb33088474ccb6c218", "asm": "0014fa8e010406ad9ccfc82824fb33088474ccb6c218"}, "vout": 13, "txid": "f8b4acf2bd89a809d701f70972504a330808ed1ff1714ebef94c15ac69d91e77"}, {"txinwitness": ["304402200f50c0e3b1dc766dae856c52432eb45ff4e5a2ded59c460bde9b230d3725983702200f169ab56caaaf1ad1895b45d8cc6631f5b401f2c47b05d1375165756817162701", "03f8e6d4f009868e8fdcbe394e90b58f0207f29dad0742772d77ac83dc06aed27e"], "sequence": 4294967294, "scriptSig": {"hex": "1600148fe46530886292fecc85771aea4f3d96e72fc993", "asm": "00148fe46530886292fecc85771aea4f3d96e72fc993"}, "vout": 1, "txid": "97d142a8ca8bd5a76aba83ab6e3b1eeb0ed79d6daa87c315bc0d3b9f728112f1"}], "txid": "907c444075afdec890cc6b814497e481aa71295733b0551d75cc25be7b0575a1", "blocktime": 1537869901, "version": 2, "confirmations": 11524, "time": 1537869901, "locktime": 542987, "vsize": 259, "size": 421}