{"hash": "9088f4eede94c98fcd1245109eaae5b322d864d9fe96de6c2c1b345f6d3f5bcb", "blockhash": "0000000000000000000e13cef7c366c0283d82e591d1acd082e914b08063cdf1", "vout": [{"scriptPubKey": {"reqSigs": 1, "hex": "76a9140ea2c16f9786cdfea33384770c72f226ae93ef3f88ac", "addresses": ["12LPS9L3BtpHJxCw7CBABQHFsKc7wFRjAR"], "asm": "OP_DUP OP_HASH160 0ea2c16f9786cdfea33384770c72f226ae93ef3f OP_EQUALVERIFY OP_CHECKSIG", "type": "pubkeyhash"}, "value": 0.36170473, "n": 0}, {"scriptPubKey": {"type": "nulldata", "hex": "6a146f6d6e69000000000000001f000000f48d014960", "asm": "OP_RETURN 6f6d6e69000000000000001f000000f48d014960"}, "value": 0.0, "n": 1}, {"scriptPubKey": {"reqSigs": 1, "hex": "76a9146de77d29cbb4b6203d8968025dc128ae08cb111b88ac", "addresses": ["1B27y3Qt78bg8tGQqjTmKtZMWUsPvcKc4P"], "asm": "OP_DUP OP_HASH160 6de77d29cbb4b6203d8968025dc128ae08cb111b OP_EQUALVERIFY OP_CHECKSIG", "type": "pubkeyhash"}, "value": 5.46e-06, "n": 2}], "hex": "01000000013b02dc3e938b8fac584579ad6717345142be81a90d112ec5b7e888ce3d62b8ce020000006a4730440220199af19ee53545e93d06407f4e101373d021f89a4eb1b8a6bbf105bf4c00fb8402204b9eeabb60141da71517a7597988e6669bde59df09f312280bbc0971f86347c201210242604bdd2261b6188326b9f490e074dda990f5bb746eb9716e491b86b498f4c5feffffff03e9ea2702000000001976a9140ea2c16f9786cdfea33384770c72f226ae93ef3f88ac0000000000000000166a146f6d6e69000000000000001f000000f48d01496022020000000000001976a9146de77d29cbb4b6203d8968025dc128ae08cb111b88ac10490800", "vin": [{"sequence": 4294967294, "scriptSig": {"hex": "4730440220199af19ee53545e93d06407f4e101373d021f89a4eb1b8a6bbf105bf4c00fb8402204b9eeabb60141da71517a7597988e6669bde59df09f312280bbc0971f86347c201210242604bdd2261b6188326b9f490e074dda990f5bb746eb9716e491b86b498f4c5", "asm": "30440220199af19ee53545e93d06407f4e101373d021f89a4eb1b8a6bbf105bf4c00fb8402204b9eeabb60141da71517a7597988e6669bde59df09f312280bbc0971f86347c2[ALL] 0242604bdd2261b6188326b9f490e074dda990f5bb746eb9716e491b86b498f4c5"}, "vout": 2, "txid": "ceb8623dce88e8b7c52e110da981be4251341767ad794558ac8f8b933edc023b"}], "txid": "9088f4eede94c98fcd1245109eaae5b322d864d9fe96de6c2c1b345f6d3f5bcb", "blocktime": 1537871767, "version": 1, "confirmations": 11493, "time": 1537871767, "locktime": 542992, "vsize": 256, "size": 256}