{"hash": "908b31ecd6a449ae9fff90775e0aa59703af8cacef33cbd4989aa6490eceb1a5", "blockhash": "00000000000000000024a2167bbff67b0be802c0b01cdd79e6331c2be6459f87", "vout": [{"scriptPubKey": {"reqSigs": 1, "hex": "76a9147b2d428b840e26747616ebc8b00c906bc96a3c5588ac", "addresses": ["1CEJLK3CBjb7yphz4LHeV1Tb6M8TKJbVCY"], "asm": "OP_DUP OP_HASH160 7b2d428b840e26747616ebc8b00c906bc96a3c55 OP_EQUALVERIFY OP_CHECKSIG", "type": "pubkeyhash"}, "value": 0.00646794, "n": 0}, {"scriptPubKey": {"type": "nulldata", "hex": "6a4c5000007779000168c60a409527ff4eefdfe53abcbefa6b8351586b4e86aeaeacb577c031fc29b2ee9d14c712a098690e71b2adcc1b5baa09b606148ee5a79975f81d100759d4ba30d2c37bb011d97e02cf", "asm": "OP_RETURN 00007779000168c60a409527ff4eefdfe53abcbefa6b8351586b4e86aeaeacb577c031fc29b2ee9d14c712a098690e71b2adcc1b5baa09b606148ee5a79975f81d100759d4ba30d2c37bb011d97e02cf"}, "value": 0.0, "n": 1}], "hex": "0100000001164fe8eeef4083cd6b29921b25cc0670a0ab3269a95b11f02419652cc663eee6000000006a473044022046c6458e6d23e58ff3391126070d36eb39a796b15867bf670391d83996bb8225022078f56851f2af28103a641fa1392bb60f74a2ebc9a523e2c5ec3b99eb819c96ce012103d0ee000154284122f7ebb6417ee56cd9af95f4b3e9c91bc1ed387334cfc94293ffffffff028ade0900000000001976a9147b2d428b840e26747616ebc8b00c906bc96a3c5588ac0000000000000000536a4c5000007779000168c60a409527ff4eefdfe53abcbefa6b8351586b4e86aeaeacb577c031fc29b2ee9d14c712a098690e71b2adcc1b5baa09b606148ee5a79975f81d100759d4ba30d2c37bb011d97e02cf00000000", "vin": [{"sequence": 4294967295, "scriptSig": {"hex": "473044022046c6458e6d23e58ff3391126070d36eb39a796b15867bf670391d83996bb8225022078f56851f2af28103a641fa1392bb60f74a2ebc9a523e2c5ec3b99eb819c96ce012103d0ee000154284122f7ebb6417ee56cd9af95f4b3e9c91bc1ed387334cfc94293", "asm": "3044022046c6458e6d23e58ff3391126070d36eb39a796b15867bf670391d83996bb8225022078f56851f2af28103a641fa1392bb60f74a2ebc9a523e2c5ec3b99eb819c96ce[ALL] 03d0ee000154284122f7ebb6417ee56cd9af95f4b3e9c91bc1ed387334cfc94293"}, "vout": 0, "txid": "e6ee63c62c651924f0115ba96932aba07006cc251b92296bcd8340efeee84f16"}], "txid": "908b31ecd6a449ae9fff90775e0aa59703af8cacef33cbd4989aa6490eceb1a5", "blocktime": 1537870564, "version": 1, "confirmations": 11515, "time": 1537870564, "locktime": 0, "vsize": 283, "size": 283}