{"hash": "16f53cee22256f5ee4362e36e9918214f7dd88c809dbdd4df5b40be198533617", "blockhash": "0000000000000000000e13cef7c366c0283d82e591d1acd082e914b08063cdf1", "vout": [{"scriptPubKey": {"reqSigs": 1, "hex": "76a91469c44fd91514344b486054611ce3f326ab62fcb788ac", "addresses": ["1AeF88gvvySLXUcPGr7x8HtEVKE1TfjVJU"], "asm": "OP_DUP OP_HASH160 69c44fd91514344b486054611ce3f326ab62fcb7 OP_EQUALVERIFY OP_CHECKSIG", "type": "pubkeyhash"}, "value": 10.0, "n": 0}, {"scriptPubKey": {"reqSigs": 1, "hex": "a914818caf420be2f38c01d76987b2fea234f86f975687", "addresses": ["3DW1dE968Pq3PFVkA5q714Jpq1D2CW3xEn"], "asm": "OP_HASH160 818caf420be2f38c01d76987b2fea234f86f9756 OP_EQUAL", "type": "scripthash"}, "value": 190.00084008, "n": 1}], "hex": "01000000000101175fe802d62259f38fc89200b0f5907637d7a5e38ede768f73908646712864e10100000017160014a8640edf92522b15b1efe42fd34b60c1f8319f17ffffff000200ca9a3b000000001976a91469c44fd91514344b486054611ce3f326ab62fcb788ac28467e6c0400000017a914818caf420be2f38c01d76987b2fea234f86f975687024830450221009d8572c7318232615be0dc11fdab4d77eff61a3ba085d65d15e465477381ae5f02200e0fe03a2acce0cea9a3e2e768c8a691d37f21d195de1883f2b8922fc719b7cf012103bc690caff4779f98332e84df868c3b057575570e44d09881b5738a7a6d847c3300000000", "vin": [{"txinwitness": ["30450221009d8572c7318232615be0dc11fdab4d77eff61a3ba085d65d15e465477381ae5f02200e0fe03a2acce0cea9a3e2e768c8a691d37f21d195de1883f2b8922fc719b7cf01", "03bc690caff4779f98332e84df868c3b057575570e44d09881b5738a7a6d847c33"], "sequence": 16777215, "scriptSig": {"hex": "160014a8640edf92522b15b1efe42fd34b60c1f8319f17", "asm": "0014a8640edf92522b15b1efe42fd34b60c1f8319f17"}, "vout": 1, "txid": "e1642871468690738f76de8ee3a5d7377690f5b00092c88ff35922d602e85f17"}], "txid": "908d0c8022e3f2623c6327ab9bec5663ede5be625b99dc10572acdabee52ee31", "blocktime": 1537871767, "version": 1, "confirmations": 11495, "time": 1537871767, "locktime": 0, "vsize": 168, "size": 250}