{"hash": "908fc1dbaa8b7e95a4942df3dfc2cfd92404126cdc3833a933339d3e6d8cc2c8", "blockhash": "0000000000000000000dcc0f55137456b1a82d3642486a52398922ac4d620174", "vout": [{"scriptPubKey": {"reqSigs": 1, "hex": "76a914652aeb6bee1b45d4834add8b9d4e3e15bdf4e20b88ac", "addresses": ["1ADvfUxc35PAMKMaBcmMmd6cNBq4wt6ZXK"], "asm": "OP_DUP OP_HASH160 652aeb6bee1b45d4834add8b9d4e3e15bdf4e20b OP_EQUALVERIFY OP_CHECKSIG", "type": "pubkeyhash"}, "value": 0.06779587, "n": 0}, {"scriptPubKey": {"reqSigs": 1, "hex": "76a9141e5f27fd48a7a8ea61d48f02daf7a55e2fcf381888ac", "addresses": ["13mbGKoafAFdiLJWkLnztkWaFAss1qyZda"], "asm": "OP_DUP OP_HASH160 1e5f27fd48a7a8ea61d48f02daf7a55e2fcf3818 OP_EQUALVERIFY OP_CHECKSIG", "type": "pubkeyhash"}, "value": 0.27519935, "n": 1}], "hex": "0100000001668844bae3b8306b602ec88b138e6e3eebfecd2cd9c782e9b63cc3787a158521010000006a4730440220664252268a85fa9916164ea40224b14d99ccccd57b88dd7f3a847ca75dcfe72702206f37fbbe929b72514fdae3a560b4976e06d189b10688272801df58631cbac77101210365036d4b8def1d5a58828d26e79017e85295490b881ba837e0f44c569b0bd07cffffffff02c3726700000000001976a914652aeb6bee1b45d4834add8b9d4e3e15bdf4e20b88acbfeba301000000001976a9141e5f27fd48a7a8ea61d48f02daf7a55e2fcf381888ac00000000", "vin": [{"sequence": 4294967295, "scriptSig": {"hex": "4730440220664252268a85fa9916164ea40224b14d99ccccd57b88dd7f3a847ca75dcfe72702206f37fbbe929b72514fdae3a560b4976e06d189b10688272801df58631cbac77101210365036d4b8def1d5a58828d26e79017e85295490b881ba837e0f44c569b0bd07c", "asm": "30440220664252268a85fa9916164ea40224b14d99ccccd57b88dd7f3a847ca75dcfe72702206f37fbbe929b72514fdae3a560b4976e06d189b10688272801df58631cbac771[ALL] 0365036d4b8def1d5a58828d26e79017e85295490b881ba837e0f44c569b0bd07c"}, "vout": 1, "txid": "2185157a78c33cb6e982c7d92ccdfeeb3e6e8e138bc82e606b30b8e3ba448866"}], "txid": "908fc1dbaa8b7e95a4942df3dfc2cfd92404126cdc3833a933339d3e6d8cc2c8", "blocktime": 1537870268, "version": 1, "confirmations": 11518, "time": 1537870268, "locktime": 0, "vsize": 225, "size": 225}