{"hash": "908f1e7f0360f61f67134d586164bd841faa1b15bb992264cf7ab2c47e3f243b", "blockhash": "0000000000000000001f0ddff1eddb255c1121bcd4da4f1bc9a0da00cae72433", "vout": [{"scriptPubKey": {"reqSigs": 1, "hex": "76a914796c35f1625956efde7bb24bcd14be66df5fd40588ac", "addresses": ["1C52Ppn3C56LWqdfCZr8eKALpzMEGTUUCZ"], "asm": "OP_DUP OP_HASH160 796c35f1625956efde7bb24bcd14be66df5fd405 OP_EQUALVERIFY OP_CHECKSIG", "type": "pubkeyhash"}, "value": 0.00042785, "n": 0}, {"scriptPubKey": {"reqSigs": 1, "hex": "76a9146e0c98ff2f8475a48ef1983a5264f49ac077ff7c88ac", "addresses": ["1B2tRQFuoNoQaXnDrwTEmaBrqVy8xbiG7L"], "asm": "OP_DUP OP_HASH160 6e0c98ff2f8475a48ef1983a5264f49ac077ff7c OP_EQUALVERIFY OP_CHECKSIG", "type": "pubkeyhash"}, "value": 0.03436555, "n": 1}], "hex": "0100000003d977994c34d0b46cba3fb020a02e95129b8e5a7d2a945fefbf750fec283c3e58000000006b483045022100dacd119fd38420372e83fd2d344fed3efa77cfb0f8046233b552de5f6b68275b02200b2aa4f820a79803ff640937f74932d5736b47625797b8098aed6293d8a0a5480121032f89b0a9bebb42c4ee653db2c44961e65522f4cfb16402e26dc342c0721b62bcffffffff85f0a41d194790e5244f147fdd22242c2a7889f1c72e9d30c21718bc2069725e000000006a473044022062896be21881c4f09a42e35a7defd38dc8fd197984018ddee2d77656d94b747c02206564a3db35667d8ef7a61b1dfa54fa5d409fa7f3c6749f8d67d594f6e572c6ac0121033b544e9596ab72eecbf752272499492034ebb7eb22137577ae4ab7b6915ccaf4ffffffff2283a98809f045eaca146da774c7cdd49fc437000c7978feee6b3eb0f44e46e3010000006b483045022100c70c656c22afe507bc1ec4a050fede9e5c839c47abc4f443afa38c9ec9803f8302205f41ed22823536d425a732fae05607257255da407b5f83109d76aade818c3fc20121032f89b0a9bebb42c4ee653db2c44961e65522f4cfb16402e26dc342c0721b62bcffffffff0221a70000000000001976a914796c35f1625956efde7bb24bcd14be66df5fd40588ac0b703400000000001976a9146e0c98ff2f8475a48ef1983a5264f49ac077ff7c88ac00000000", "vin": [{"sequence": 4294967295, "scriptSig": {"hex": "483045022100dacd119fd38420372e83fd2d344fed3efa77cfb0f8046233b552de5f6b68275b02200b2aa4f820a79803ff640937f74932d5736b47625797b8098aed6293d8a0a5480121032f89b0a9bebb42c4ee653db2c44961e65522f4cfb16402e26dc342c0721b62bc", "asm": "3045022100dacd119fd38420372e83fd2d344fed3efa77cfb0f8046233b552de5f6b68275b02200b2aa4f820a79803ff640937f74932d5736b47625797b8098aed6293d8a0a548[ALL] 032f89b0a9bebb42c4ee653db2c44961e65522f4cfb16402e26dc342c0721b62bc"}, "vout": 0, "txid": "583e3c28ec0f75bfef5f942a7d5a8e9b12952ea020b03fba6cb4d0344c9977d9"}, {"sequence": 4294967295, "scriptSig": {"hex": "473044022062896be21881c4f09a42e35a7defd38dc8fd197984018ddee2d77656d94b747c02206564a3db35667d8ef7a61b1dfa54fa5d409fa7f3c6749f8d67d594f6e572c6ac0121033b544e9596ab72eecbf752272499492034ebb7eb22137577ae4ab7b6915ccaf4", "asm": "3044022062896be21881c4f09a42e35a7defd38dc8fd197984018ddee2d77656d94b747c02206564a3db35667d8ef7a61b1dfa54fa5d409fa7f3c6749f8d67d594f6e572c6ac[ALL] 033b544e9596ab72eecbf752272499492034ebb7eb22137577ae4ab7b6915ccaf4"}, "vout": 0, "txid": "5e726920bc1817c2309d2ec7f189782a2c2422dd7f144f24e59047191da4f085"}, {"sequence": 4294967295, "scriptSig": {"hex": "483045022100c70c656c22afe507bc1ec4a050fede9e5c839c47abc4f443afa38c9ec9803f8302205f41ed22823536d425a732fae05607257255da407b5f83109d76aade818c3fc20121032f89b0a9bebb42c4ee653db2c44961e65522f4cfb16402e26dc342c0721b62bc", "asm": "3045022100c70c656c22afe507bc1ec4a050fede9e5c839c47abc4f443afa38c9ec9803f8302205f41ed22823536d425a732fae05607257255da407b5f83109d76aade818c3fc2[ALL] 032f89b0a9bebb42c4ee653db2c44961e65522f4cfb16402e26dc342c0721b62bc"}, "vout": 1, "txid": "e3464ef4b03e6beefe78790c0037c49fd4cdc774a76d14caea45f00988a98322"}], "txid": "908f1e7f0360f61f67134d586164bd841faa1b15bb992264cf7ab2c47e3f243b", "blocktime": 1537872018, "version": 1, "confirmations": 11489, "time": 1537872018, "locktime": 0, "vsize": 521, "size": 521}