{"hash": "909027ae4f8803c9bb4823b406c5babe05cc28c985d05d4a584476b0d21ad47a", "blockhash": "000000000000000000205f8b0775d31398ef75b89a5e8ec8d2c57b4dc0ac4c20", "vout": [{"scriptPubKey": {"reqSigs": 1, "hex": "a914478d63f4f2854441110220116adf7eecef0e553f87", "addresses": ["38DMH9MWznGKvBAn7QkDpwm4VwNdXx6fmg"], "asm": "OP_HASH160 478d63f4f2854441110220116adf7eecef0e553f OP_EQUAL", "type": "scripthash"}, "value": 0.0116143, "n": 0}, {"scriptPubKey": {"reqSigs": 1, "hex": "76a914b7888cc82fdecaf88856880550ac43fe948b8cae88ac", "addresses": ["1HjSEm71Kqt31Va9JhJk2SvztwotZkQJFN"], "asm": "OP_DUP OP_HASH160 b7888cc82fdecaf88856880550ac43fe948b8cae OP_EQUALVERIFY OP_CHECKSIG", "type": "pubkeyhash"}, "value": 0.0081857, "n": 1}], "hex": "0200000001eb92a26036ab7e99aa7b3f5ea3fe243ce30a831b1b1394f76d31c2b3eac9fff3000000006a47304402201157cb3cc69f46ac92222f4ba299b57cc497a39f415590ead069af22dca8f15202204d98a8fffe30083622aa85d40367e52113af7c432477a87c8d548958270b8eec01210302e6b3e1c7ccca4e1ab8c573ea5fb26a628565c3734d0717f3a1493c2e525dfdffffffff02d6b811000000000017a914478d63f4f2854441110220116adf7eecef0e553f878a7d0c00000000001976a914b7888cc82fdecaf88856880550ac43fe948b8cae88ac00000000", "vin": [{"sequence": 4294967295, "scriptSig": {"hex": "47304402201157cb3cc69f46ac92222f4ba299b57cc497a39f415590ead069af22dca8f15202204d98a8fffe30083622aa85d40367e52113af7c432477a87c8d548958270b8eec01210302e6b3e1c7ccca4e1ab8c573ea5fb26a628565c3734d0717f3a1493c2e525dfd", "asm": "304402201157cb3cc69f46ac92222f4ba299b57cc497a39f415590ead069af22dca8f15202204d98a8fffe30083622aa85d40367e52113af7c432477a87c8d548958270b8eec[ALL] 0302e6b3e1c7ccca4e1ab8c573ea5fb26a628565c3734d0717f3a1493c2e525dfd"}, "vout": 0, "txid": "f3ffc9eab3c2316df794131b1b830ae33c24fea35e3f7baa997eab3660a292eb"}], "txid": "909027ae4f8803c9bb4823b406c5babe05cc28c985d05d4a584476b0d21ad47a", "blocktime": 1537871175, "version": 2, "confirmations": 11510, "time": 1537871175, "locktime": 0, "vsize": 223, "size": 223}