{"hash": "90935f3e6f2d99a0e4ea1450eb3fd84182d757929ff997cde8fdd6920f75bc5e", "blockhash": "0000000000000000000baef3f32e3676a92c3b2e5da21b426e4f302fc371ce76", "vout": [{"scriptPubKey": {"reqSigs": 1, "hex": "76a914244a35c5666d70c1e85ba49cfcd39f23df0be4ee88ac", "addresses": ["14JtE7PNvUqUSdgQTz4Af5gLAvDVPzTtnG"], "asm": "OP_DUP OP_HASH160 244a35c5666d70c1e85ba49cfcd39f23df0be4ee OP_EQUALVERIFY OP_CHECKSIG", "type": "pubkeyhash"}, "value": 0.04597, "n": 0}, {"scriptPubKey": {"reqSigs": 1, "hex": "a914e370231feecbfc25e2e2423a5a79bf79bfdca59887", "addresses": ["3NRbeX3vD5VaVE4TDU9ivCDsEf7NPPte6J"], "asm": "OP_HASH160 e370231feecbfc25e2e2423a5a79bf79bfdca598 OP_EQUAL", "type": "scripthash"}, "value": 2.75228571, "n": 1}], "hex": "0100000001854849f39e7a11ad4aa4e46cd69edce8c19ccd223837485d1c7662e52ceb894201000000d90047304402203a8a31615061d783fae37a11107acbe1a3e831c8b32ea10eed03a6776523a1b2022047b5635ed9e0af146b2854c5bc42ffb6d7d622129937e5dc1f4e32cc2eaebffd0147304402203f4fc67b64ed5f7356120ec085c89b799427cc0cdb08d28ae2a6d0869594b090022063f57019429effbf0efcdc59334194cf3548795d58fac8d5e4d5bdb6928c70ee014752210327881b6abce6535553a3ce21fad12a7d74fd237ce7c4cd270a267162344e3082210256141f8eb687f5a68c5cc65054652dc25116fa285e44d72b44368827ffe77d9a52aeffffffff0208254600000000001976a914244a35c5666d70c1e85ba49cfcd39f23df0be4ee88ac9ba767100000000017a914e370231feecbfc25e2e2423a5a79bf79bfdca5988700000000", "vin": [{"sequence": 4294967295, "scriptSig": {"hex": "0047304402203a8a31615061d783fae37a11107acbe1a3e831c8b32ea10eed03a6776523a1b2022047b5635ed9e0af146b2854c5bc42ffb6d7d622129937e5dc1f4e32cc2eaebffd0147304402203f4fc67b64ed5f7356120ec085c89b799427cc0cdb08d28ae2a6d0869594b090022063f57019429effbf0efcdc59334194cf3548795d58fac8d5e4d5bdb6928c70ee014752210327881b6abce6535553a3ce21fad12a7d74fd237ce7c4cd270a267162344e3082210256141f8eb687f5a68c5cc65054652dc25116fa285e44d72b44368827ffe77d9a52ae", "asm": "0 304402203a8a31615061d783fae37a11107acbe1a3e831c8b32ea10eed03a6776523a1b2022047b5635ed9e0af146b2854c5bc42ffb6d7d622129937e5dc1f4e32cc2eaebffd[ALL] 304402203f4fc67b64ed5f7356120ec085c89b799427cc0cdb08d28ae2a6d0869594b090022063f57019429effbf0efcdc59334194cf3548795d58fac8d5e4d5bdb6928c70ee[ALL] 52210327881b6abce6535553a3ce21fad12a7d74fd237ce7c4cd270a267162344e3082210256141f8eb687f5a68c5cc65054652dc25116fa285e44d72b44368827ffe77d9a52ae"}, "vout": 1, "txid": "4289eb2ce562761c5d48373822cd9cc1e8dc9ed66ce4a44aad117a9ef3494885"}], "txid": "90935f3e6f2d99a0e4ea1450eb3fd84182d757929ff997cde8fdd6920f75bc5e", "blocktime": 1537876114, "version": 1, "confirmations": 11460, "time": 1537876114, "locktime": 0, "vsize": 334, "size": 334}