{"hash": "909462fcfed29bf3ef21a28b91121cdacb291d188145293b3023682d57a77680", "blockhash": "0000000000000000001cda96e906b7601b7a6fb1a3b62bca570a9e5d8f4b3de1", "vout": [{"scriptPubKey": {"reqSigs": 1, "hex": "76a9146f08c02fca3b57b417689b715933bba7337a846388ac", "addresses": ["1B86VJfLwf4DJxYdFGPVu8jYmy4nDqiofQ"], "asm": "OP_DUP OP_HASH160 6f08c02fca3b57b417689b715933bba7337a8463 OP_EQUALVERIFY OP_CHECKSIG", "type": "pubkeyhash"}, "value": 0.03089851, "n": 0}], "hex": "010000000468d411e3e29214f2cbf978821bd30335dc28363f7d7bee21ed2bf085d8cf6a0a000000006a47304402206a8a56e63dc1ffbfc23f1410ca26b59546bd1a1c9b8c075ab3d21676e046b57402200d69e6a45757b457b44235774be2fba90011170200b2b9a5161abf2a4d70527a0121030c66b4df46eb438bbaf2469271160692773e0197afe761d761e5fc48246b18a1fffffffffcb2edf5074c2ef37e7ecc82885b040473f18a99ca9541ff2d5f6a01d14d0aa2010000006a473044022058dcdec5b3486d47021ef351e6f9e6077c6879db04a41041c9f2692e51c4fe10022049a3b6415fef038146de196764d4984075b3ab85049b602b04ebaaeb43e947bb0121023c67afd2f26b58574c3b984ead2669be6bd0846e99aad66abedb8b05d9efad73ffffffffd0a23e4b80522477f3c80e67a00df2bdcd3bc55bf2d848e88a072c3174f784b4000000006a4730440220298a3540fc84b3254ea0e830291cb517f617c16ca10ef68275a07f5120723c0002200a418b6022f913ba7cc3625699824d702333dc90999a8638491109442d22f9a80121028350e5df21545b4f0a1312d61bbfb08da69683582dac15cc2ff18b3c74c7a43fffffffff6fdf6c13cf068510f4a9288ed81f610b6d60e8586a7838c01672a13b39941aed010000006a47304402201d3f15daf38fd9d453cc1ac7edf1f6e777d7e89f8993ddb4d11ad537f8b5d96402205d828ef18722331c38bf3de4b9f2877102daccdac437e5abb459dd31d1b4e78b01210346f51545d8a2c164b948e5dbcd9211322e8c7f6e15698fad27024d02e11c3c1dffffffff01bb252f00000000001976a9146f08c02fca3b57b417689b715933bba7337a846388ac00000000", "vin": [{"sequence": 4294967295, "scriptSig": {"hex": "47304402206a8a56e63dc1ffbfc23f1410ca26b59546bd1a1c9b8c075ab3d21676e046b57402200d69e6a45757b457b44235774be2fba90011170200b2b9a5161abf2a4d70527a0121030c66b4df46eb438bbaf2469271160692773e0197afe761d761e5fc48246b18a1", "asm": "304402206a8a56e63dc1ffbfc23f1410ca26b59546bd1a1c9b8c075ab3d21676e046b57402200d69e6a45757b457b44235774be2fba90011170200b2b9a5161abf2a4d70527a[ALL] 030c66b4df46eb438bbaf2469271160692773e0197afe761d761e5fc48246b18a1"}, "vout": 0, "txid": "0a6acfd885f02bed21ee7b7d3f3628dc3503d31b8278f9cbf21492e2e311d468"}, {"sequence": 4294967295, "scriptSig": {"hex": "473044022058dcdec5b3486d47021ef351e6f9e6077c6879db04a41041c9f2692e51c4fe10022049a3b6415fef038146de196764d4984075b3ab85049b602b04ebaaeb43e947bb0121023c67afd2f26b58574c3b984ead2669be6bd0846e99aad66abedb8b05d9efad73", "asm": "3044022058dcdec5b3486d47021ef351e6f9e6077c6879db04a41041c9f2692e51c4fe10022049a3b6415fef038146de196764d4984075b3ab85049b602b04ebaaeb43e947bb[ALL] 023c67afd2f26b58574c3b984ead2669be6bd0846e99aad66abedb8b05d9efad73"}, "vout": 1, "txid": "a20a4dd1016a5f2dff4195ca998af17304045b8882cc7e7ef32e4c07f5edb2fc"}, {"sequence": 4294967295, "scriptSig": {"hex": "4730440220298a3540fc84b3254ea0e830291cb517f617c16ca10ef68275a07f5120723c0002200a418b6022f913ba7cc3625699824d702333dc90999a8638491109442d22f9a80121028350e5df21545b4f0a1312d61bbfb08da69683582dac15cc2ff18b3c74c7a43f", "asm": "30440220298a3540fc84b3254ea0e830291cb517f617c16ca10ef68275a07f5120723c0002200a418b6022f913ba7cc3625699824d702333dc90999a8638491109442d22f9a8[ALL] 028350e5df21545b4f0a1312d61bbfb08da69683582dac15cc2ff18b3c74c7a43f"}, "vout": 0, "txid": "b484f774312c078ae848d8f25bc53bcdbdf20da0670ec8f3772452804b3ea2d0"}, {"sequence": 4294967295, "scriptSig": {"hex": "47304402201d3f15daf38fd9d453cc1ac7edf1f6e777d7e89f8993ddb4d11ad537f8b5d96402205d828ef18722331c38bf3de4b9f2877102daccdac437e5abb459dd31d1b4e78b01210346f51545d8a2c164b948e5dbcd9211322e8c7f6e15698fad27024d02e11c3c1d", "asm": "304402201d3f15daf38fd9d453cc1ac7edf1f6e777d7e89f8993ddb4d11ad537f8b5d96402205d828ef18722331c38bf3de4b9f2877102daccdac437e5abb459dd31d1b4e78b[ALL] 0346f51545d8a2c164b948e5dbcd9211322e8c7f6e15698fad27024d02e11c3c1d"}, "vout": 1, "txid": "ed1a94393ba17216c038786a58e8606d0b611fd88e28a9f4108506cf136cdf6f"}], "txid": "909462fcfed29bf3ef21a28b91121cdacb291d188145293b3023682d57a77680", "blocktime": 1537873282, "version": 1, "confirmations": 11484, "time": 1537873282, "locktime": 0, "vsize": 632, "size": 632}