{"hash": "bf3a43b37ab7b729e15c660f1d894a86b9be729c7b34ab07e66fa2810ecafdb0", "blockhash": "000000000000000000022b45ed06c6f4ccd3cf7fb5ba4856ebd2e58215665228", "vout": [{"scriptPubKey": {"reqSigs": 1, "hex": "a9143256705caeab756e656efe5c9340f42d3d613fb087", "addresses": ["36HBG1uArGajx7rw4bx8YxmBMLZzfXfriH"], "asm": "OP_HASH160 3256705caeab756e656efe5c9340f42d3d613fb0 OP_EQUAL", "type": "scripthash"}, "value": 0.08116086, "n": 0}, {"scriptPubKey": {"reqSigs": 1, "hex": "a91481373e405712b46677cb33e33db61dd0ef1e40fc87", "addresses": ["3DUFGeoVdHer7h3XRg6H5otHMRBtzGo2NN"], "asm": "OP_HASH160 81373e405712b46677cb33e33db61dd0ef1e40fc OP_EQUAL", "type": "scripthash"}, "value": 0.74059003, "n": 1}], "hex": "0200000000010260485a71d3942645563120290d7bc3c3bdfe6c5aaf83304d565e7f474ab25f7c02000000fdfd000047304402201f492881e2aef958fa3f4ac991e121434635467258b4fb8e2d0b5a42fb3df1d2022020a33376ca2039631bfaae3272ec6c80e9eaa3a7492a60a52e57fc2d6409b35f01483045022100e5c7aa2d58ada237f13e1fc1ae0ba903f8961313d9f578b80d12a0cbc5d3772502203422307cad8e18910af2b946c6426eb36a068e4890e292c918075143c43d55ab014c6952210228b133b198a0a2b4b04fb860deee00d1eaba0ed70a90e1b1c6892add116ac7fe21030bbcbea6da372129cd8490206713c1cf350f329f7c0de92b950b7a7d3fa65a8821038a82c17e356a6ae1e45323f60d18d8be642be3411419457d1272b34fd71d239d53aeffffffff378aa9064fd3a7fe28ef01609632f14535948bcf21504aef6594b69c195e21c41200000023220020c26b71afde7aa3cc819c27d7d54e2df40a16a7342ab5c66dd07712b521d3f399ffffffff0276d77b000000000017a9143256705caeab756e656efe5c9340f42d3d613fb087fb0c6a040000000017a91481373e405712b46677cb33e33db61dd0ef1e40fc8700040048304502210086b6aeb7af4c5fafd4b052804bd5ed7ba827e9514c4c57d5fc772dd0e54a453202204d09f91612ae58267d011ec9620ea02f5797e2c230a9e462c4b8c4982f4f317401483045022100b925de7df98af9c55eda5a6017ee05badba47bb894ed2b0d71e3de753ee73f3002202b4f11d34acb84bc159a49f976b091e8bbe93ef183d260bbcef4333429e3a8b2016952210290f6e19a18b12352d91c9044571770c69cc70012bd1bc7698db77f92b815b1522103102794ddd7e667762f441f0e6ae7acc000458bfdd2acf26a68c2f7e60cec369b2103a97c18723077c41dfdb78ad7a810c8600c167ca4075a1ff39fa629c96720703053ae00000000", "vin": [{"sequence": 4294967295, "scriptSig": {"hex": "0047304402201f492881e2aef958fa3f4ac991e121434635467258b4fb8e2d0b5a42fb3df1d2022020a33376ca2039631bfaae3272ec6c80e9eaa3a7492a60a52e57fc2d6409b35f01483045022100e5c7aa2d58ada237f13e1fc1ae0ba903f8961313d9f578b80d12a0cbc5d3772502203422307cad8e18910af2b946c6426eb36a068e4890e292c918075143c43d55ab014c6952210228b133b198a0a2b4b04fb860deee00d1eaba0ed70a90e1b1c6892add116ac7fe21030bbcbea6da372129cd8490206713c1cf350f329f7c0de92b950b7a7d3fa65a8821038a82c17e356a6ae1e45323f60d18d8be642be3411419457d1272b34fd71d239d53ae", "asm": "0 304402201f492881e2aef958fa3f4ac991e121434635467258b4fb8e2d0b5a42fb3df1d2022020a33376ca2039631bfaae3272ec6c80e9eaa3a7492a60a52e57fc2d6409b35f[ALL] 3045022100e5c7aa2d58ada237f13e1fc1ae0ba903f8961313d9f578b80d12a0cbc5d3772502203422307cad8e18910af2b946c6426eb36a068e4890e292c918075143c43d55ab[ALL] 52210228b133b198a0a2b4b04fb860deee00d1eaba0ed70a90e1b1c6892add116ac7fe21030bbcbea6da372129cd8490206713c1cf350f329f7c0de92b950b7a7d3fa65a8821038a82c17e356a6ae1e45323f60d18d8be642be3411419457d1272b34fd71d239d53ae"}, "vout": 2, "txid": "7c5fb24a477f5e564d3083af5a6cfebdc3c37b0d29203156452694d3715a4860"}, {"txinwitness": ["", "304502210086b6aeb7af4c5fafd4b052804bd5ed7ba827e9514c4c57d5fc772dd0e54a453202204d09f91612ae58267d011ec9620ea02f5797e2c230a9e462c4b8c4982f4f317401", "3045022100b925de7df98af9c55eda5a6017ee05badba47bb894ed2b0d71e3de753ee73f3002202b4f11d34acb84bc159a49f976b091e8bbe93ef183d260bbcef4333429e3a8b201", "52210290f6e19a18b12352d91c9044571770c69cc70012bd1bc7698db77f92b815b1522103102794ddd7e667762f441f0e6ae7acc000458bfdd2acf26a68c2f7e60cec369b2103a97c18723077c41dfdb78ad7a810c8600c167ca4075a1ff39fa629c96720703053ae"], "sequence": 4294967295, "scriptSig": {"hex": "220020c26b71afde7aa3cc819c27d7d54e2df40a16a7342ab5c66dd07712b521d3f399", "asm": "0020c26b71afde7aa3cc819c27d7d54e2df40a16a7342ab5c66dd07712b521d3f399"}, "vout": 18, "txid": "c4215e199cb69465ef4a5021cf8b943545f132966001ef28fea7d34f06a98a37"}], "txid": "909a0aa4ed3076b24fa961b7ff31f1e23c9711e17f1b9beb19f4c002bdb3c50f", "blocktime": 1537869901, "version": 2, "confirmations": 11523, "time": 1537869901, "locktime": 0, "vsize": 511, "size": 703}