{"hash": "ac32686166e31e5196e22a85f7e467ade5d2fbee78a91e02e59117743c07fff9", "blockhash": "0000000000000000001f76057863aec43deb6fa401d9628bb513d65a8098bfab", "vout": [{"scriptPubKey": {"reqSigs": 1, "hex": "a9141471ee27139b5b14c7320ae7766addbfa1c3824887", "addresses": ["33Z7vPsteq8frBNudLRZGpjQky8VgjXU3f"], "asm": "OP_HASH160 1471ee27139b5b14c7320ae7766addbfa1c38248 OP_EQUAL", "type": "scripthash"}, "value": 0.05003164, "n": 0}, {"scriptPubKey": {"reqSigs": 1, "hex": "a914d9cec3e2c51bd948ad5c286da44adf2e7db4e04587", "addresses": ["3MYgFU4kY1WAkGAUDETx9vtaVVdm1RFDqU"], "asm": "OP_HASH160 d9cec3e2c51bd948ad5c286da44adf2e7db4e045 OP_EQUAL", "type": "scripthash"}, "value": 1.45932876, "n": 1}], "hex": "02000000000101988fbfcde9c2c8ac69150baac45ac0acffd9cfc91a7bc8f8f24545c2a0278a1f000000001716001451bc19d0234597076078dc40c59b71d3e57b7042feffffff029c574c000000000017a9141471ee27139b5b14c7320ae7766addbfa1c38248874cc2b2080000000017a914d9cec3e2c51bd948ad5c286da44adf2e7db4e0458702473044022054e0d374f64982458013549de3b10acec3f90501ebfb7961ee0f391a8d3231580220588604e80daf93877f7ec56b0a0b54fe2396bbf42c514e10573616720d79073d012103b39c5fda816facd18615d2f370a1a1c6813b37c09d4d299abb70953d21cb8caf14490800", "vin": [{"txinwitness": ["3044022054e0d374f64982458013549de3b10acec3f90501ebfb7961ee0f391a8d3231580220588604e80daf93877f7ec56b0a0b54fe2396bbf42c514e10573616720d79073d01", "03b39c5fda816facd18615d2f370a1a1c6813b37c09d4d299abb70953d21cb8caf"], "sequence": 4294967294, "scriptSig": {"hex": "16001451bc19d0234597076078dc40c59b71d3e57b7042", "asm": "001451bc19d0234597076078dc40c59b71d3e57b7042"}, "vout": 0, "txid": "1f8a27a0c24545f2f8c87b1ac9cfd9ffacc05ac4aa0b1569acc8c2e9cdbf8f98"}], "txid": "90b95fd317746caebd1e59e2593eb9094e45d70d223efa4c748f214bf716949b", "blocktime": 1537873891, "version": 2, "confirmations": 11478, "time": 1537873891, "locktime": 542996, "vsize": 166, "size": 247}