{"hash": "90bf49df725cef58a0159a891f858debc7a592092b6140e4a5de449179006eb0", "blockhash": "0000000000000000001e0dab787dd257d1dbfcb92a98c2207d5e1078be1f4165", "vout": [{"scriptPubKey": {"reqSigs": 1, "hex": "76a914d2d90b6705a479392efab273f7d24433d4abf29b88ac", "addresses": ["1LDruobqKTwTtFFBWjzrPavK1aAtXSfLSN"], "asm": "OP_DUP OP_HASH160 d2d90b6705a479392efab273f7d24433d4abf29b OP_EQUALVERIFY OP_CHECKSIG", "type": "pubkeyhash"}, "value": 0.01586233, "n": 0}, {"scriptPubKey": {"reqSigs": 1, "hex": "76a914f1eeaa1a0a6c84bf2851e3a25f05f29cdf7d258088ac", "addresses": ["1P4DkvrXZLfCj7fJdnykQWtgoy9yd2A3Ve"], "asm": "OP_DUP OP_HASH160 f1eeaa1a0a6c84bf2851e3a25f05f29cdf7d2580 OP_EQUALVERIFY OP_CHECKSIG", "type": "pubkeyhash"}, "value": 0.05506456, "n": 1}], "hex": "01000000015acc328ccbfe5e86a864a7cb844d246bb30f20af3111118361d5548c36024fd50b0000006b483045022100b179ab6ad258348071b1543da99632ae6d0dc91bf485f8526d9f80ad3ac7afb702206390729711a94b6a2749aaeb9fa5efa54f5f114a1c873c4e328571a908cdd88b012102a36875cb8fb674db00f98ef8be6178609beea812de62f4496366f8130c3caec4ffffffff0239341800000000001976a914d2d90b6705a479392efab273f7d24433d4abf29b88ac98055400000000001976a914f1eeaa1a0a6c84bf2851e3a25f05f29cdf7d258088ac00000000", "vin": [{"sequence": 4294967295, "scriptSig": {"hex": "483045022100b179ab6ad258348071b1543da99632ae6d0dc91bf485f8526d9f80ad3ac7afb702206390729711a94b6a2749aaeb9fa5efa54f5f114a1c873c4e328571a908cdd88b012102a36875cb8fb674db00f98ef8be6178609beea812de62f4496366f8130c3caec4", "asm": "3045022100b179ab6ad258348071b1543da99632ae6d0dc91bf485f8526d9f80ad3ac7afb702206390729711a94b6a2749aaeb9fa5efa54f5f114a1c873c4e328571a908cdd88b[ALL] 02a36875cb8fb674db00f98ef8be6178609beea812de62f4496366f8130c3caec4"}, "vout": 11, "txid": "d54f02368c54d56183111131af200fb36b244d84cba764a8865efecb8c32cc5a"}], "txid": "90bf49df725cef58a0159a891f858debc7a592092b6140e4a5de449179006eb0", "blocktime": 1537872475, "version": 1, "confirmations": 11487, "time": 1537872475, "locktime": 0, "vsize": 226, "size": 226}