{"hash": "7ba171f67c2b55c75335e76a954cec141323c55b534e3cbd83638aa793b8cd4e", "blockhash": "00000000000000000018f53835495a110e01622372bf6ae95dc86f2b0ab887b0", "vout": [{"scriptPubKey": {"reqSigs": 1, "hex": "76a9148a50372d5f56a23ddca97d3202194328a49b4deb88ac", "addresses": ["1DcLLwrWzENM7gHp5q3SmuaQX8rQm9UfvL"], "asm": "OP_DUP OP_HASH160 8a50372d5f56a23ddca97d3202194328a49b4deb OP_EQUALVERIFY OP_CHECKSIG", "type": "pubkeyhash"}, "value": 0.01947528, "n": 0}, {"scriptPubKey": {"reqSigs": 1, "hex": "a9140e3552c847aabcb6aa0e7e367524f6c9bc5a4ef987", "addresses": ["32z9GCfhvKaJwHL2WshdNJj9xhcJAicH5X"], "asm": "OP_HASH160 0e3552c847aabcb6aa0e7e367524f6c9bc5a4ef9 OP_EQUAL", "type": "scripthash"}, "value": 0.07947086, "n": 1}], "hex": "01000000000101eae447a6b99d997bd3c830ad638bc2b28d6cd740bf384bb112711a557669828e01000000232200206dcde09aea3e44cf53061048f3c3dbf0c0ffbabc70635ae697414ccbdee5e588ffffffff0288b71d00000000001976a9148a50372d5f56a23ddca97d3202194328a49b4deb88ac4e4379000000000017a9140e3552c847aabcb6aa0e7e367524f6c9bc5a4ef987040048304502210095306f96c895722c4e52a836897742a2f14f2a74ea76cd779bed5df7b8f55224022025f31975faa1801602640b377d301f1c26771e91d207fdbfd238fdb9842773d1014830450221008ca4600d68bc89a4c5f4a1cf1ff531c5f1bdaea5bda8aa38de19befcefee4d140220699ce93716ff9b777e3eec90dd00cef14a6bc73c76fe30c5b31a5b93c87ca6b9014752210280ba5c322805a99facf57aa5eb67113203ab9d40d68983c60340cda5c73c8f712103d71b10c64cdc8183d13812b1c279635205cbe717177d075af42f196dc8f6e3d252ae00000000", "vin": [{"txinwitness": ["", "304502210095306f96c895722c4e52a836897742a2f14f2a74ea76cd779bed5df7b8f55224022025f31975faa1801602640b377d301f1c26771e91d207fdbfd238fdb9842773d101", "30450221008ca4600d68bc89a4c5f4a1cf1ff531c5f1bdaea5bda8aa38de19befcefee4d140220699ce93716ff9b777e3eec90dd00cef14a6bc73c76fe30c5b31a5b93c87ca6b901", "52210280ba5c322805a99facf57aa5eb67113203ab9d40d68983c60340cda5c73c8f712103d71b10c64cdc8183d13812b1c279635205cbe717177d075af42f196dc8f6e3d252ae"], "sequence": 4294967295, "scriptSig": {"hex": "2200206dcde09aea3e44cf53061048f3c3dbf0c0ffbabc70635ae697414ccbdee5e588", "asm": "00206dcde09aea3e44cf53061048f3c3dbf0c0ffbabc70635ae697414ccbdee5e588"}, "vout": 1, "txid": "8e826976551a7112b14b38bf40d76c8db2c28b63ad30c8d37b999db9a647e4ea"}], "txid": "90bfcdc0b6c4c442761192686427a3301eb4431458fdf239ba835f2157be7712", "blocktime": 1537870928, "version": 1, "confirmations": 11514, "time": 1537870928, "locktime": 0, "vsize": 208, "size": 374}