{"hash": "90c074a67cbc4e83530b140eb6272df72d8ca24e423358a4af502d20f1d2b1ac", "blockhash": "0000000000000000001f76057863aec43deb6fa401d9628bb513d65a8098bfab", "vout": [{"scriptPubKey": {"reqSigs": 1, "hex": "76a914a92281d5decd3f8ffa13b6f0e7c6f7c1e74aaa3c88ac", "addresses": ["1GRJY28foTHdPLSdg8nxTz5MghxJ8YrcjP"], "asm": "OP_DUP OP_HASH160 a92281d5decd3f8ffa13b6f0e7c6f7c1e74aaa3c OP_EQUALVERIFY OP_CHECKSIG", "type": "pubkeyhash"}, "value": 0.04745, "n": 0}, {"scriptPubKey": {"reqSigs": 1, "hex": "a914e370231feecbfc25e2e2423a5a79bf79bfdca59887", "addresses": ["3NRbeX3vD5VaVE4TDU9ivCDsEf7NPPte6J"], "asm": "OP_HASH160 e370231feecbfc25e2e2423a5a79bf79bfdca598 OP_EQUAL", "type": "scripthash"}, "value": 0.3773477, "n": 1}], "hex": "01000000019207babee177a823ce67d175ec8b51886fd9381c516ce9537da92cb83a50af6701000000da00483045022100f988ad776bb7bab29fb3bd43573c6ebf426c7cdb6d3e2290e21c08e53118d7e402206628582d1fe86006a2790406156e39f25e950acf913a5bee91ec31b8a9fa81790147304402201cf2f1d91b5c780223e4350c1569c0efdb681f74e144f31d9b760e25951e72020220677a346aac7b86384e2812faef0b7457afb930740c4f48fc242e3623c8e2aa1d014752210327881b6abce6535553a3ce21fad12a7d74fd237ce7c4cd270a267162344e3082210256141f8eb687f5a68c5cc65054652dc25116fa285e44d72b44368827ffe77d9a52aeffffffff0228674800000000001976a914a92281d5decd3f8ffa13b6f0e7c6f7c1e74aaa3c88ac72c93f020000000017a914e370231feecbfc25e2e2423a5a79bf79bfdca5988700000000", "vin": [{"sequence": 4294967295, "scriptSig": {"hex": "00483045022100f988ad776bb7bab29fb3bd43573c6ebf426c7cdb6d3e2290e21c08e53118d7e402206628582d1fe86006a2790406156e39f25e950acf913a5bee91ec31b8a9fa81790147304402201cf2f1d91b5c780223e4350c1569c0efdb681f74e144f31d9b760e25951e72020220677a346aac7b86384e2812faef0b7457afb930740c4f48fc242e3623c8e2aa1d014752210327881b6abce6535553a3ce21fad12a7d74fd237ce7c4cd270a267162344e3082210256141f8eb687f5a68c5cc65054652dc25116fa285e44d72b44368827ffe77d9a52ae", "asm": "0 3045022100f988ad776bb7bab29fb3bd43573c6ebf426c7cdb6d3e2290e21c08e53118d7e402206628582d1fe86006a2790406156e39f25e950acf913a5bee91ec31b8a9fa8179[ALL] 304402201cf2f1d91b5c780223e4350c1569c0efdb681f74e144f31d9b760e25951e72020220677a346aac7b86384e2812faef0b7457afb930740c4f48fc242e3623c8e2aa1d[ALL] 52210327881b6abce6535553a3ce21fad12a7d74fd237ce7c4cd270a267162344e3082210256141f8eb687f5a68c5cc65054652dc25116fa285e44d72b44368827ffe77d9a52ae"}, "vout": 1, "txid": "67af503ab82ca97d53e96c511c38d96f88518bec75d167ce23a877e1beba0792"}], "txid": "90c074a67cbc4e83530b140eb6272df72d8ca24e423358a4af502d20f1d2b1ac", "blocktime": 1537873891, "version": 1, "confirmations": 11478, "time": 1537873891, "locktime": 0, "vsize": 335, "size": 335}