{"hash": "394abd9e3cec7ba81f4e8a974b50660fe14de53ec519e74c4012f6bde6005b3b", "blockhash": "00000000000000000017f5eb5941039fbcee6240d03bc1f2f8e35350df66a1d8", "vout": [{"scriptPubKey": {"reqSigs": 1, "hex": "a9147406ed8f1cea594700a4659c32c5f606be48cc0687", "addresses": ["3CGWcACuXCcQgSQx8K7Vn39o2NJLXcoawn"], "asm": "OP_HASH160 7406ed8f1cea594700a4659c32c5f606be48cc06 OP_EQUAL", "type": "scripthash"}, "value": 0.01348521, "n": 0}, {"scriptPubKey": {"reqSigs": 1, "hex": "76a914fd60a9e930a81e2fbfa3352cde2207a82d542d7e88ac", "addresses": ["1Q6jkr41J2DqmzAitd8C9B4PTRubjdJkM1"], "asm": "OP_DUP OP_HASH160 fd60a9e930a81e2fbfa3352cde2207a82d542d7e OP_EQUALVERIFY OP_CHECKSIG", "type": "pubkeyhash"}, "value": 0.00065504, "n": 1}], "hex": "0200000000010116c673ec3436a098b3bc4ccb80449cf3f9ad4e1824ab1ba49b97934f5defcdad0000000017160014d1e99ecc7dceb00ca8b24ec51a385633aa5e80adfeffffff02a99314000000000017a9147406ed8f1cea594700a4659c32c5f606be48cc0687e0ff0000000000001976a914fd60a9e930a81e2fbfa3352cde2207a82d542d7e88ac02483045022100e8c0ed9523d6e1dfc6c435dc08c7e25d8a003fde21d23f45e6e726603579c9e802205a775694315dcd36bba97726e6273585d555732cca191b83ac2340cec4a25e500121030360eb7db89b22456f98957dac11e3c3a804e7b3f42e93e2b913a387a4df424c15490800", "vin": [{"txinwitness": ["3045022100e8c0ed9523d6e1dfc6c435dc08c7e25d8a003fde21d23f45e6e726603579c9e802205a775694315dcd36bba97726e6273585d555732cca191b83ac2340cec4a25e5001", "030360eb7db89b22456f98957dac11e3c3a804e7b3f42e93e2b913a387a4df424c"], "sequence": 4294967294, "scriptSig": {"hex": "160014d1e99ecc7dceb00ca8b24ec51a385633aa5e80ad", "asm": "0014d1e99ecc7dceb00ca8b24ec51a385633aa5e80ad"}, "vout": 0, "txid": "adcdef5d4f93979ba41bab24184eadf9f39c4480cb4cbcb398a03634ec73c616"}], "txid": "90d2dee3c6907ea9ee6f673f80c0c2286cf48cff7046e79eace4b3994c290a37", "blocktime": 1537874412, "version": 2, "confirmations": 11468, "time": 1537874412, "locktime": 542997, "vsize": 168, "size": 250}