{"hash": "90d5ecfc3ea4c0837721ef80296c5af22bb54706a64711f5e39afbf917efaef2", "blockhash": "0000000000000000001f76057863aec43deb6fa401d9628bb513d65a8098bfab", "vout": [{"scriptPubKey": {"reqSigs": 1, "hex": "a914158e7ba6248bd93f6f79ed4a17aa891285218c2e87", "addresses": ["33ezoTv3KeGdFpRzkS3LNq2UtoTjwSeiqE"], "asm": "OP_HASH160 158e7ba6248bd93f6f79ed4a17aa891285218c2e OP_EQUAL", "type": "scripthash"}, "value": 0.00220865, "n": 0}, {"scriptPubKey": {"reqSigs": 1, "hex": "76a91496c7c7f8d03386911f9c9ee644674cb03db5fb2588ac", "addresses": ["1EkFgp536rA3qvE3aCDeg9BChHnasqgB35"], "asm": "OP_DUP OP_HASH160 96c7c7f8d03386911f9c9ee644674cb03db5fb25 OP_EQUALVERIFY OP_CHECKSIG", "type": "pubkeyhash"}, "value": 0.00011098, "n": 1}], "hex": "0100000002416b7ada000f60ad4ee3a415fc8988f4035023634add20da76ff81e3dcb2d05e000000006a47304402204d0341448d6a69f277c5260790720e0fad79dbdb493cb04ac7dcebee999c449f022016167d75ae658c48f1bc69f159dfa766517020bcaf43cdafdfabaa7dda3ba36901210221aecbe783381c22d6bddc5a989c71b2f906f8f732d0f7f4352132b30666e88bffffffff2dc9e3251478258a2a88da6efb0f750e7b9df7c922989dc4fc6a064bac777eed010000006b4830450221009c6b670ea2851c8521bfd40aed24f35c55c87cfa38aab33d6c87446c0ceef56f022007dc6bfb1b22cc50a0bb75ff31b8610ae0b38bc546c7ccaec28cd5d273594ba6012103693e19efbdba965f70edbc85ae19996492e2ebe9afec58cfee9fb7929eb698adffffffff02c15e03000000000017a914158e7ba6248bd93f6f79ed4a17aa891285218c2e875a2b0000000000001976a91496c7c7f8d03386911f9c9ee644674cb03db5fb2588ac00000000", "vin": [{"sequence": 4294967295, "scriptSig": {"hex": "47304402204d0341448d6a69f277c5260790720e0fad79dbdb493cb04ac7dcebee999c449f022016167d75ae658c48f1bc69f159dfa766517020bcaf43cdafdfabaa7dda3ba36901210221aecbe783381c22d6bddc5a989c71b2f906f8f732d0f7f4352132b30666e88b", "asm": "304402204d0341448d6a69f277c5260790720e0fad79dbdb493cb04ac7dcebee999c449f022016167d75ae658c48f1bc69f159dfa766517020bcaf43cdafdfabaa7dda3ba369[ALL] 0221aecbe783381c22d6bddc5a989c71b2f906f8f732d0f7f4352132b30666e88b"}, "vout": 0, "txid": "5ed0b2dce381ff76da20dd4a63235003f48889fc15a4e34ead600f00da7a6b41"}, {"sequence": 4294967295, "scriptSig": {"hex": "4830450221009c6b670ea2851c8521bfd40aed24f35c55c87cfa38aab33d6c87446c0ceef56f022007dc6bfb1b22cc50a0bb75ff31b8610ae0b38bc546c7ccaec28cd5d273594ba6012103693e19efbdba965f70edbc85ae19996492e2ebe9afec58cfee9fb7929eb698ad", "asm": "30450221009c6b670ea2851c8521bfd40aed24f35c55c87cfa38aab33d6c87446c0ceef56f022007dc6bfb1b22cc50a0bb75ff31b8610ae0b38bc546c7ccaec28cd5d273594ba6[ALL] 03693e19efbdba965f70edbc85ae19996492e2ebe9afec58cfee9fb7929eb698ad"}, "vout": 1, "txid": "ed7e77ac4b066afcc49d9822c9f79d7b0e750ffb6eda882a8a25781425e3c92d"}], "txid": "90d5ecfc3ea4c0837721ef80296c5af22bb54706a64711f5e39afbf917efaef2", "blocktime": 1537873891, "version": 1, "confirmations": 11478, "time": 1537873891, "locktime": 0, "vsize": 371, "size": 371}