{"hash": "12013ef78d28a21b203b1272ff8253a206a616128fffccb70247e4dd63247ab4", "blockhash": "0000000000000000001cda96e906b7601b7a6fb1a3b62bca570a9e5d8f4b3de1", "vout": [{"scriptPubKey": {"reqSigs": 1, "hex": "76a914b106b87d2780fa54c8b332be33de126c6a69963888ac", "addresses": ["1H92euzNeoP6EDnqehbgXA8DHyGAqibbuK"], "asm": "OP_DUP OP_HASH160 b106b87d2780fa54c8b332be33de126c6a699638 OP_EQUALVERIFY OP_CHECKSIG", "type": "pubkeyhash"}, "value": 0.00103, "n": 0}, {"scriptPubKey": {"reqSigs": 1, "hex": "a9149649ad6d2730bb28020a268d9d80df10a9f74ad487", "addresses": ["3FPfYWwfMfKMGY7fuPHvz2b73RhTNGzsm3"], "asm": "OP_HASH160 9649ad6d2730bb28020a268d9d80df10a9f74ad4 OP_EQUAL", "type": "scripthash"}, "value": 13.84663154, "n": 1}], "hex": "01000000000101eb995f0aa7f585d97eed0097edd4e7fb5fb50685229d435e14b991323dc8197e01000000232200207768efcc1e5eb3d28410fac3f45831004c860cc24cddd940a616b34324823fceffffffff0258920100000000001976a914b106b87d2780fa54c8b332be33de126c6a69963888ac724888520000000017a9149649ad6d2730bb28020a268d9d80df10a9f74ad4870400483045022100e16d9b91eeb8c253cdebcc2f07900e1167e5ff06be6368aa303f5518c102e9a402207809896e2d3409238e2f2eb276bc54792df1600be6913e9445757d6a8b02438001473044022100feaa61b6b49517df783704fa259cc7892731dfb65ebdf0d940d979ed28312eac021f41dc7d17333c6bf6d5034cfe152f7be3bbaf1417ec2d7b28719d7475d57dea0147522102529d5d1f6733ab45d9d50e07db42c7f6b967ae321c38b726c2247f149959b8262103d0c936a5988dd8421c63240496b723b0ec42400c38b9350e32c2eb4f47d8796952ae00000000", "vin": [{"txinwitness": ["", "3045022100e16d9b91eeb8c253cdebcc2f07900e1167e5ff06be6368aa303f5518c102e9a402207809896e2d3409238e2f2eb276bc54792df1600be6913e9445757d6a8b02438001", "3044022100feaa61b6b49517df783704fa259cc7892731dfb65ebdf0d940d979ed28312eac021f41dc7d17333c6bf6d5034cfe152f7be3bbaf1417ec2d7b28719d7475d57dea01", "522102529d5d1f6733ab45d9d50e07db42c7f6b967ae321c38b726c2247f149959b8262103d0c936a5988dd8421c63240496b723b0ec42400c38b9350e32c2eb4f47d8796952ae"], "sequence": 4294967295, "scriptSig": {"hex": "2200207768efcc1e5eb3d28410fac3f45831004c860cc24cddd940a616b34324823fce", "asm": "00207768efcc1e5eb3d28410fac3f45831004c860cc24cddd940a616b34324823fce"}, "vout": 1, "txid": "7e19c83d3291b9145e439d228506b55ffbe7d4ed9700ed7ed985f5a70a5f99eb"}], "txid": "90d652193282103bf1d9dc3739155390132f10f4f668403a194f2f271fb67c0c", "blocktime": 1537873282, "version": 1, "confirmations": 11484, "time": 1537873282, "locktime": 0, "vsize": 208, "size": 373}