{"hash": "90d812bb1754acb5357ca6573e665decd6379ebe6abc85f93705fda2224aba84", "blockhash": "00000000000000000018f53835495a110e01622372bf6ae95dc86f2b0ab887b0", "vout": [{"scriptPubKey": {"reqSigs": 1, "hex": "a91489b5daa64b291387aa376a729c25f2dbc9bbc8f887", "addresses": ["3EFAMGYq8ekQJqcCKe19u2KYkzYS2WZ8Vn"], "asm": "OP_HASH160 89b5daa64b291387aa376a729c25f2dbc9bbc8f8 OP_EQUAL", "type": "scripthash"}, "value": 0.00015618, "n": 0}, {"scriptPubKey": {"reqSigs": 1, "hex": "76a914c7ae774bb96a47972b9afeb77c295ae97d611a4a88ac", "addresses": ["1KCpUHVhbM68Zf1Bc3JNtfEbhfUFfMNCFb"], "asm": "OP_DUP OP_HASH160 c7ae774bb96a47972b9afeb77c295ae97d611a4a OP_EQUALVERIFY OP_CHECKSIG", "type": "pubkeyhash"}, "value": 0.00736969, "n": 1}], "hex": "0100000001bcf3922bb533a15f35377968d85f73d95b63ac28bcb7199848036eed425da01f010000006a47304402205ceca13987d07d6d459748f214c222a5e2a8e34da762ad57a72b7ead88b7822d0220647504917caba1e9f7ca1efab7ff6b9c4bebc330ebcf7ea5d8227d5c3b599f45012103bb0ecdb986798783d4f071ceb4c9560593caf94cfc82aa6a59465fd657d1fb5fffffffff02023d00000000000017a91489b5daa64b291387aa376a729c25f2dbc9bbc8f887c93e0b00000000001976a914c7ae774bb96a47972b9afeb77c295ae97d611a4a88ac00000000", "vin": [{"sequence": 4294967295, "scriptSig": {"hex": "47304402205ceca13987d07d6d459748f214c222a5e2a8e34da762ad57a72b7ead88b7822d0220647504917caba1e9f7ca1efab7ff6b9c4bebc330ebcf7ea5d8227d5c3b599f45012103bb0ecdb986798783d4f071ceb4c9560593caf94cfc82aa6a59465fd657d1fb5f", "asm": "304402205ceca13987d07d6d459748f214c222a5e2a8e34da762ad57a72b7ead88b7822d0220647504917caba1e9f7ca1efab7ff6b9c4bebc330ebcf7ea5d8227d5c3b599f45[ALL] 03bb0ecdb986798783d4f071ceb4c9560593caf94cfc82aa6a59465fd657d1fb5f"}, "vout": 1, "txid": "1fa05d42ed6e03489819b7bc28ac635bd9735fd8687937355fa133b52b92f3bc"}], "txid": "90d812bb1754acb5357ca6573e665decd6379ebe6abc85f93705fda2224aba84", "blocktime": 1537870928, "version": 1, "confirmations": 11512, "time": 1537870928, "locktime": 0, "vsize": 223, "size": 223}