{"hash": "dde79cdeef1d9aae17b69a2667ce0498fd409aee8cf8e99f069f6ed591ecc0d7", "blockhash": "00000000000000000004ffacab907a6b429b9a5745fa0b75af4234bf69dd7176", "vout": [{"scriptPubKey": {"reqSigs": 1, "hex": "76a91485db7cab769f93a69785c13cc1e0df51be1f9d8b88ac", "addresses": ["1DCmojk8DoVM3CmvYCzyJbGfcHzZstF2vU"], "asm": "OP_DUP OP_HASH160 85db7cab769f93a69785c13cc1e0df51be1f9d8b OP_EQUALVERIFY OP_CHECKSIG", "type": "pubkeyhash"}, "value": 2.603e-05, "n": 0}, {"scriptPubKey": {"reqSigs": 1, "hex": "a914e8db75c900cf08f06518e96d167331f2a4abfb3387", "addresses": ["3NvFbQMAkkqEFj4i1sYPPLkSWzxTFUchjA"], "asm": "OP_HASH160 e8db75c900cf08f06518e96d167331f2a4abfb33 OP_EQUAL", "type": "scripthash"}, "value": 0.04625687, "n": 1}], "hex": "01000000000101972058cdbb5e86d007502882982c2c433e63c75d2872730751ec24e05a455b4f0100000023220020941cfaff8837763dc1f69ff82b6d6553fdea17a41cfc29a04403293eedd8ccc7ffffffff022b0a0000000000001976a91485db7cab769f93a69785c13cc1e0df51be1f9d8b88ac179546000000000017a914e8db75c900cf08f06518e96d167331f2a4abfb3387040047304402207d693c88994286b419060156d4f9c3645d6d5c44d976f2c616e548254106b20e022046664623eee01e3e94eb9df306a8ec6a03a9a713841be6c6339c8323a07bef0001483045022100e48e8a72333f9d3e8a400605f8492f87b5e821fb4e3b001b23b603e4a0f3de8f0220443375ba654b89b5cfc2eba69afd19236d70be53f61bc5c92840ce7ef036c0310147522102531db3a5883f29bab4241dd0cd726936667bcda445d89bdd22244e828b6993342103148c80a5bdfddb05ff5bcffc397c8ca748d8b435ec6a175bc9d7bfc7fc6f853752ae00000000", "vin": [{"txinwitness": ["", "304402207d693c88994286b419060156d4f9c3645d6d5c44d976f2c616e548254106b20e022046664623eee01e3e94eb9df306a8ec6a03a9a713841be6c6339c8323a07bef0001", "3045022100e48e8a72333f9d3e8a400605f8492f87b5e821fb4e3b001b23b603e4a0f3de8f0220443375ba654b89b5cfc2eba69afd19236d70be53f61bc5c92840ce7ef036c03101", "522102531db3a5883f29bab4241dd0cd726936667bcda445d89bdd22244e828b6993342103148c80a5bdfddb05ff5bcffc397c8ca748d8b435ec6a175bc9d7bfc7fc6f853752ae"], "sequence": 4294967295, "scriptSig": {"hex": "220020941cfaff8837763dc1f69ff82b6d6553fdea17a41cfc29a04403293eedd8ccc7", "asm": "0020941cfaff8837763dc1f69ff82b6d6553fdea17a41cfc29a04403293eedd8ccc7"}, "vout": 1, "txid": "4f5b455ae024ec51077372285dc7633e432c2c9882285007d0865ebbcd582097"}], "txid": "90db09d09d22a58384fa18d15cbd991b5005b633b70d6be354bdfff9cbb29a1e", "blocktime": 1537875543, "version": 1, "confirmations": 11464, "time": 1537875543, "locktime": 0, "vsize": 208, "size": 373}