{"hash": "90e6da66db0e2b8ee149dd20e1970788842ffc8072b4ae709e4e6ca85d60e208", "blockhash": "0000000000000000000e13cef7c366c0283d82e591d1acd082e914b08063cdf1", "vout": [{"scriptPubKey": {"reqSigs": 1, "hex": "76a91410ea7c93672be116f8a66a6f5526835af5c4560a88ac", "addresses": ["12YSiVARjetDtLcENBqiczGySA7cYSZgoj"], "asm": "OP_DUP OP_HASH160 10ea7c93672be116f8a66a6f5526835af5c4560a OP_EQUALVERIFY OP_CHECKSIG", "type": "pubkeyhash"}, "value": 0.00029929, "n": 0}, {"scriptPubKey": {"reqSigs": 1, "hex": "a9148ac4fb45b1cb9c6358a879a844b621aaa3c0ea4887", "addresses": ["3ELm9XsmcxFsupA5nJMStFXgFcidqW6Dsh"], "asm": "OP_HASH160 8ac4fb45b1cb9c6358a879a844b621aaa3c0ea48 OP_EQUAL", "type": "scripthash"}, "value": 0.003125, "n": 1}], "hex": "0100000001379ea2fe3b1ac278190bbdd4824c8d99dbc3c40ff1abdf759cc19825e9fa6eb2000000006b483045022100bfc66dd1315bcae7c20abe71cb2ae4b3fe990b45ec6cab367fc74c411ad78fff022047c639832b330a95eceb327f70f6365ea4ac17aa6718e01706657dad8fc79bc8012102a2ecb09e3d4b6f9fc0be9a907b87d1de5617b8fd48f0b55f947cc17c180a9108ffffffff02e9740000000000001976a91410ea7c93672be116f8a66a6f5526835af5c4560a88acb4c404000000000017a9148ac4fb45b1cb9c6358a879a844b621aaa3c0ea488700000000", "vin": [{"sequence": 4294967295, "scriptSig": {"hex": "483045022100bfc66dd1315bcae7c20abe71cb2ae4b3fe990b45ec6cab367fc74c411ad78fff022047c639832b330a95eceb327f70f6365ea4ac17aa6718e01706657dad8fc79bc8012102a2ecb09e3d4b6f9fc0be9a907b87d1de5617b8fd48f0b55f947cc17c180a9108", "asm": "3045022100bfc66dd1315bcae7c20abe71cb2ae4b3fe990b45ec6cab367fc74c411ad78fff022047c639832b330a95eceb327f70f6365ea4ac17aa6718e01706657dad8fc79bc8[ALL] 02a2ecb09e3d4b6f9fc0be9a907b87d1de5617b8fd48f0b55f947cc17c180a9108"}, "vout": 0, "txid": "b26efae92598c19c75dfabf10fc4c3db998d4c82d4bd0b1978c21a3bfea29e37"}], "txid": "90e6da66db0e2b8ee149dd20e1970788842ffc8072b4ae709e4e6ca85d60e208", "blocktime": 1537871767, "version": 1, "confirmations": 11495, "time": 1537871767, "locktime": 0, "vsize": 224, "size": 224}