{"hash": "90f029783f274afb95a6af33e8d6822ecc5a1c79ee8889ba9928813133a2affa", "blockhash": "00000000000000000017f5eb5941039fbcee6240d03bc1f2f8e35350df66a1d8", "vout": [{"scriptPubKey": {"reqSigs": 1, "hex": "76a914644a6830f1315547dccfc825bed28a57412e51c788ac", "addresses": ["1A9Hi5AaipT8i1LQtGTexF1yceCNovjRgu"], "asm": "OP_DUP OP_HASH160 644a6830f1315547dccfc825bed28a57412e51c7 OP_EQUALVERIFY OP_CHECKSIG", "type": "pubkeyhash"}, "value": 5.46e-06, "n": 0}, {"scriptPubKey": {"reqSigs": 1, "hex": "a9143f4eecba122ad73039d481c8d37f99cb4f887cd887", "addresses": ["37Tm3Qz8Zw2VJrheUUhArDAoq58S6YrS3g"], "asm": "OP_HASH160 3f4eecba122ad73039d481c8d37f99cb4f887cd8 OP_EQUAL", "type": "scripthash"}, "value": 0.9998727, "n": 1}, {"scriptPubKey": {"type": "nulldata", "hex": "6a146f6d6e69000000000000001f000000a96856ec00", "asm": "OP_RETURN 6f6d6e69000000000000001f000000a96856ec00"}, "value": 0.0, "n": 2}], "hex": "01000000016724234e636f96c1b26786412c593971de105109211b7126d18f7652a2ca22d501000000fdfe0000483045022100c47f162c6404f8aa2bb963830695561ee70f381454022a2e2e71840fc9851bad0220733d70bb1d6c7f259edda064ed7dda931cedb7f6950581fd0f202002d381ad2a01483045022100dd5fe09ed68797475a6790804d1f37216c82e2d4192475e9dde3224769e5511d02201eed1e598f99d48a3bfa0b17fe945645f14f9a352ed1ebca343a1e8d8e4876c6014c6952210246ccf4de0c54cc7f3354cdd993c2c50cf965fd82238b89659fbd73a1b4bf05a121024fc59f72272a897fe43803374969f396058152fe4765a8d15216f94624257b1b21022593bc69ecbf3bbcc3c58082267cb49dadaf4ca8dbf1b2297338a9d628c4297653aeffffffff0322020000000000001976a914644a6830f1315547dccfc825bed28a57412e51c788ac46aff5050000000017a9143f4eecba122ad73039d481c8d37f99cb4f887cd8870000000000000000166a146f6d6e69000000000000001f000000a96856ec0000000000", "vin": [{"sequence": 4294967295, "scriptSig": {"hex": "00483045022100c47f162c6404f8aa2bb963830695561ee70f381454022a2e2e71840fc9851bad0220733d70bb1d6c7f259edda064ed7dda931cedb7f6950581fd0f202002d381ad2a01483045022100dd5fe09ed68797475a6790804d1f37216c82e2d4192475e9dde3224769e5511d02201eed1e598f99d48a3bfa0b17fe945645f14f9a352ed1ebca343a1e8d8e4876c6014c6952210246ccf4de0c54cc7f3354cdd993c2c50cf965fd82238b89659fbd73a1b4bf05a121024fc59f72272a897fe43803374969f396058152fe4765a8d15216f94624257b1b21022593bc69ecbf3bbcc3c58082267cb49dadaf4ca8dbf1b2297338a9d628c4297653ae", "asm": "0 3045022100c47f162c6404f8aa2bb963830695561ee70f381454022a2e2e71840fc9851bad0220733d70bb1d6c7f259edda064ed7dda931cedb7f6950581fd0f202002d381ad2a[ALL] 3045022100dd5fe09ed68797475a6790804d1f37216c82e2d4192475e9dde3224769e5511d02201eed1e598f99d48a3bfa0b17fe945645f14f9a352ed1ebca343a1e8d8e4876c6[ALL] 52210246ccf4de0c54cc7f3354cdd993c2c50cf965fd82238b89659fbd73a1b4bf05a121024fc59f72272a897fe43803374969f396058152fe4765a8d15216f94624257b1b21022593bc69ecbf3bbcc3c58082267cb49dadaf4ca8dbf1b2297338a9d628c4297653ae"}, "vout": 1, "txid": "d522caa252768fd126711b21095110de7139592c418667b2c1966f634e232467"}], "txid": "90f029783f274afb95a6af33e8d6822ecc5a1c79ee8889ba9928813133a2affa", "blocktime": 1537874412, "version": 1, "confirmations": 11467, "time": 1537874412, "locktime": 0, "vsize": 404, "size": 404}