{"hash": "90f05100433608c50356bfd56755cb5e78e4737e290cecdda8e7ad1f3a017e82", "blockhash": "0000000000000000001e0dab787dd257d1dbfcb92a98c2207d5e1078be1f4165", "vout": [{"scriptPubKey": {"reqSigs": 1, "hex": "76a914ad4b4d2039f0414d031b62a3bad3780cfcd43e7388ac", "addresses": ["1GoJ7DEF57VttWNBaast5kG7ZHeATF1u39"], "asm": "OP_DUP OP_HASH160 ad4b4d2039f0414d031b62a3bad3780cfcd43e73 OP_EQUALVERIFY OP_CHECKSIG", "type": "pubkeyhash"}, "value": 0.00156244, "n": 0}, {"scriptPubKey": {"reqSigs": 1, "hex": "76a914eb043d3f7a32d599f3055dbeb7ee03387123046488ac", "addresses": ["1NResdSueEt9PdPLdQTNhHqg9iv44Zzotg"], "asm": "OP_DUP OP_HASH160 eb043d3f7a32d599f3055dbeb7ee033871230464 OP_EQUALVERIFY OP_CHECKSIG", "type": "pubkeyhash"}, "value": 0.0023317, "n": 1}], "hex": "010000000112d3b883c1d3ffcd7239cdcd7d036212f2556cd77697d42449794bc718bb0c62010000006a4730440220624c36aa175a90a78e937f71a7bd196e79c0642facf2aba0fac746af9e39790d022034fcb98ad865e4c20eb5ddd1c3ea9d07e97a880bea1b67c7df535f6d0fd7a1c6012103e7a4071ca00ea51455aac739cf96921a6f13b44a8001d4b6b3b6c271ff24e20fffffffff0254620200000000001976a914ad4b4d2039f0414d031b62a3bad3780cfcd43e7388acd28e0300000000001976a914eb043d3f7a32d599f3055dbeb7ee03387123046488ac00000000", "vin": [{"sequence": 4294967295, "scriptSig": {"hex": "4730440220624c36aa175a90a78e937f71a7bd196e79c0642facf2aba0fac746af9e39790d022034fcb98ad865e4c20eb5ddd1c3ea9d07e97a880bea1b67c7df535f6d0fd7a1c6012103e7a4071ca00ea51455aac739cf96921a6f13b44a8001d4b6b3b6c271ff24e20f", "asm": "30440220624c36aa175a90a78e937f71a7bd196e79c0642facf2aba0fac746af9e39790d022034fcb98ad865e4c20eb5ddd1c3ea9d07e97a880bea1b67c7df535f6d0fd7a1c6[ALL] 03e7a4071ca00ea51455aac739cf96921a6f13b44a8001d4b6b3b6c271ff24e20f"}, "vout": 1, "txid": "620cbb18c74b794924d49776d76c55f21262037dcdcd3972cdffd3c183b8d312"}], "txid": "90f05100433608c50356bfd56755cb5e78e4737e290cecdda8e7ad1f3a017e82", "blocktime": 1537872475, "version": 1, "confirmations": 11486, "time": 1537872475, "locktime": 0, "vsize": 225, "size": 225}