{"hash": "7831c873e554e3893ecc2006d8b1829aeafceaa58863c87b9fa9b424ae477c9e", "blockhash": "0000000000000000001cda96e906b7601b7a6fb1a3b62bca570a9e5d8f4b3de1", "vout": [{"scriptPubKey": {"reqSigs": 1, "hex": "a914848246b6ed62382c14b676a948f57c5ee7e3563787", "addresses": ["3DmfBchvedfSwxQoYok2EsthQVRQfsn9wZ"], "asm": "OP_HASH160 848246b6ed62382c14b676a948f57c5ee7e35637 OP_EQUAL", "type": "scripthash"}, "value": 0.0149124, "n": 0}, {"scriptPubKey": {"reqSigs": 1, "hex": "a9143b1306dd106226c6f7d734dc59c2998962d97b4987", "addresses": ["375NasHJE3Hmit1SiovY3iVYefzsfz4hHi"], "asm": "OP_HASH160 3b1306dd106226c6f7d734dc59c2998962d97b49 OP_EQUAL", "type": "scripthash"}, "value": 0.00070378, "n": 1}], "hex": "0200000000010219a4988105d5dc212cf746913c308aa708ca8c6362028e509b690cb5ded94eac00000000171600145deb01b5b973fd8361067c2e7d99a516c7eab1eefeffffff2553b5a3ee201d5be8f80c8bb38dd9651f58599f3181b2bcfde8eed2adc46806010000001716001453f86d0690a63af9cbc7ba2d3a8cf789a16dd0b1feffffff0228c116000000000017a914848246b6ed62382c14b676a948f57c5ee7e3563787ea1201000000000017a9143b1306dd106226c6f7d734dc59c2998962d97b498702483045022100d0267409e4a72b09c2b5323938eda25148c00040bee487f37eb951aea658495602205ff710fe9da2e0d71199fe6aab595daee1113cd121ffe0290bcb8d5ef3984c6d012103a6c2aacc547131433bdec52f592cdd15ce0d17324ae893a09345bdda7d71812b024730440220053aa48f14a41390e40485ab0dd46b8b95b8e0225f4ce6f104225af28d63ec8002207e17043ad62d93f6d3f994445b9f1e262e09aeb5e2ff05517f4166d59dbce16a012102720985123a21c36101e1c92e0b0442090a3a4b086bb8ddf84e2fbce9797646e913490800", "vin": [{"txinwitness": ["3045022100d0267409e4a72b09c2b5323938eda25148c00040bee487f37eb951aea658495602205ff710fe9da2e0d71199fe6aab595daee1113cd121ffe0290bcb8d5ef3984c6d01", "03a6c2aacc547131433bdec52f592cdd15ce0d17324ae893a09345bdda7d71812b"], "sequence": 4294967294, "scriptSig": {"hex": "1600145deb01b5b973fd8361067c2e7d99a516c7eab1ee", "asm": "00145deb01b5b973fd8361067c2e7d99a516c7eab1ee"}, "vout": 0, "txid": "ac4ed9deb50c699b508e0262638cca08a78a303c9146f72c21dcd5058198a419"}, {"txinwitness": ["30440220053aa48f14a41390e40485ab0dd46b8b95b8e0225f4ce6f104225af28d63ec8002207e17043ad62d93f6d3f994445b9f1e262e09aeb5e2ff05517f4166d59dbce16a01", "02720985123a21c36101e1c92e0b0442090a3a4b086bb8ddf84e2fbce9797646e9"], "sequence": 4294967294, "scriptSig": {"hex": "16001453f86d0690a63af9cbc7ba2d3a8cf789a16dd0b1", "asm": "001453f86d0690a63af9cbc7ba2d3a8cf789a16dd0b1"}, "vout": 1, "txid": "0668c4add2eee8fdbcb281319f59581f65d98db38b0cf8e85b1d20eea3b55325"}], "txid": "90f734bd5df400639ac70361e4c8a81c856c3c3f89fb7400f9f214c881c44243", "blocktime": 1537873282, "version": 2, "confirmations": 11485, "time": 1537873282, "locktime": 542995, "vsize": 257, "size": 419}