{"hash": "9103fe6cf69322e6f20363818a0a1a0a0402238ab4fe446e2ed7f47ec256ecd8", "blockhash": "0000000000000000001e0dab787dd257d1dbfcb92a98c2207d5e1078be1f4165", "vout": [{"scriptPubKey": {"reqSigs": 1, "hex": "a91438c91496ec1afb365f5c1bbfff5faafaefa9458387", "addresses": ["36sGebiNLCAMTx2ZQPNVaY6FhxZ2NMApFQ"], "asm": "OP_HASH160 38c91496ec1afb365f5c1bbfff5faafaefa94583 OP_EQUAL", "type": "scripthash"}, "value": 0.003, "n": 0}, {"scriptPubKey": {"reqSigs": 1, "hex": "76a914673a2f482da432e54e140d81d75a331f1659d8c188ac", "addresses": ["1AQpJW7oir1hz5NZKHez2rd9bnK4RG8PKA"], "asm": "OP_DUP OP_HASH160 673a2f482da432e54e140d81d75a331f1659d8c1 OP_EQUALVERIFY OP_CHECKSIG", "type": "pubkeyhash"}, "value": 0.03887118, "n": 1}], "hex": "01000000019c53825f61e96e927a240e5464280c6d3111fe6e352a78cc5dc4e61da22100a2010000006b4830450221008b7d31efff59729d302a546c72e4fe0bc18995871a5e5199bc05aded7df1297d02200328ba239853ab2caf21e44a58a3dc35ea157e81f447a3f880c2c21931c0bf98012102cfc475fd2efc6d251956cc2f0555c456532e19406467862c27d61c20326c42c4ffffffff02e09304000000000017a91438c91496ec1afb365f5c1bbfff5faafaefa94583870e503b00000000001976a914673a2f482da432e54e140d81d75a331f1659d8c188ac00000000", "vin": [{"sequence": 4294967295, "scriptSig": {"hex": "4830450221008b7d31efff59729d302a546c72e4fe0bc18995871a5e5199bc05aded7df1297d02200328ba239853ab2caf21e44a58a3dc35ea157e81f447a3f880c2c21931c0bf98012102cfc475fd2efc6d251956cc2f0555c456532e19406467862c27d61c20326c42c4", "asm": "30450221008b7d31efff59729d302a546c72e4fe0bc18995871a5e5199bc05aded7df1297d02200328ba239853ab2caf21e44a58a3dc35ea157e81f447a3f880c2c21931c0bf98[ALL] 02cfc475fd2efc6d251956cc2f0555c456532e19406467862c27d61c20326c42c4"}, "vout": 1, "txid": "a20021a21de6c45dcc782a356efe11316d0c2864540e247a926ee9615f82539c"}], "txid": "9103fe6cf69322e6f20363818a0a1a0a0402238ab4fe446e2ed7f47ec256ecd8", "blocktime": 1537872475, "version": 1, "confirmations": 11486, "time": 1537872475, "locktime": 0, "vsize": 224, "size": 224}