{"hash": "a81f679dea24176581687bdac52449dc5dd8f1e7f43df95dc24b78c8ab43c3db", "blockhash": "00000000000000000017f5eb5941039fbcee6240d03bc1f2f8e35350df66a1d8", "vout": [{"scriptPubKey": {"reqSigs": 1, "hex": "76a91411d33904033c41b46f2642ec9504a0539faaf52888ac", "addresses": ["12dFXGpkXx3vA5HT2EpVbpttajS7PedSZ2"], "asm": "OP_DUP OP_HASH160 11d33904033c41b46f2642ec9504a0539faaf528 OP_EQUALVERIFY OP_CHECKSIG", "type": "pubkeyhash"}, "value": 0.00343414, "n": 0}, {"scriptPubKey": {"reqSigs": 1, "hex": "a914a772e23730a50f75a010be8071e59d338cf1130a87", "addresses": ["3GxQPqRY12NzrVjYLk49NGAtF3MXqH1BSP"], "asm": "OP_HASH160 a772e23730a50f75a010be8071e59d338cf1130a OP_EQUAL", "type": "scripthash"}, "value": 0.05482253, "n": 1}], "hex": "0100000000010147b94b9ad0d5e111580ebe8cd30b5206932425a03860327389f1876f63bd7c9c0100000023220020a979d66f945b26cd33b529b808e399cd4f1d2215471884b53a0598f1e79623ebffffffff02763d0500000000001976a91411d33904033c41b46f2642ec9504a0539faaf52888ac0da753000000000017a914a772e23730a50f75a010be8071e59d338cf1130a870400483045022100c6a73de59c8562b1eb154c50ef2d5a6328fab50729737fd42854f5484f068f96022059d1ab25c52dd6ebedb069309f37bb151d696dcf8a743b5a09d9353630dc017101463043021f148d980fb59423d478ba73d7830ba99a8c5e3c7b0121740272b83e93d2d2e3022020aa1bf39f834dd30274a6f583189e3f929134f83a89c70e77c258367f3956740147522103b45553bea2c01b57a1f68d0f8905cdd7b3e4cb1d9f5b8cbabaef4738804191e3210336f016b4e92ff8920f38bd5ba0e900da84d78ffcf59fe889515e852b01938abf52ae00000000", "vin": [{"txinwitness": ["", "3045022100c6a73de59c8562b1eb154c50ef2d5a6328fab50729737fd42854f5484f068f96022059d1ab25c52dd6ebedb069309f37bb151d696dcf8a743b5a09d9353630dc017101", "3043021f148d980fb59423d478ba73d7830ba99a8c5e3c7b0121740272b83e93d2d2e3022020aa1bf39f834dd30274a6f583189e3f929134f83a89c70e77c258367f39567401", "522103b45553bea2c01b57a1f68d0f8905cdd7b3e4cb1d9f5b8cbabaef4738804191e3210336f016b4e92ff8920f38bd5ba0e900da84d78ffcf59fe889515e852b01938abf52ae"], "sequence": 4294967295, "scriptSig": {"hex": "220020a979d66f945b26cd33b529b808e399cd4f1d2215471884b53a0598f1e79623eb", "asm": "0020a979d66f945b26cd33b529b808e399cd4f1d2215471884b53a0598f1e79623eb"}, "vout": 1, "txid": "9c7cbd636f87f18973326038a025249306520bd38cbe0e5811e1d5d09a4bb947"}], "txid": "9104d8b230a18b363d1b7af15328c2bab99f93107208b104226240d23f442dd1", "blocktime": 1537874412, "version": 1, "confirmations": 11467, "time": 1537874412, "locktime": 0, "vsize": 207, "size": 372}