{"hash": "910d447191bb81fc37e2f82f399c418b48d4f72766113754fc3f6953aef627ae", "blockhash": "0000000000000000001f76057863aec43deb6fa401d9628bb513d65a8098bfab", "vout": [{"scriptPubKey": {"reqSigs": 1, "hex": "76a9145a5c986ba569957e58744b8b87b0eeaae6d5a9a688ac", "addresses": ["19EnjuWmgasnjvTjAPeE9xY1XUhaDm22LA"], "asm": "OP_DUP OP_HASH160 5a5c986ba569957e58744b8b87b0eeaae6d5a9a6 OP_EQUALVERIFY OP_CHECKSIG", "type": "pubkeyhash"}, "value": 0.12791508, "n": 0}, {"scriptPubKey": {"reqSigs": 1, "hex": "76a914c9ef3a792fce8a5df5777731e2edddf5b83ac4cc88ac", "addresses": ["1KQjQSUzzKYSWr9zN9kyBhLk1kSWNivP7j"], "asm": "OP_DUP OP_HASH160 c9ef3a792fce8a5df5777731e2edddf5b83ac4cc OP_EQUALVERIFY OP_CHECKSIG", "type": "pubkeyhash"}, "value": 10.0, "n": 1}], "hex": "010000000380f67c884d18b7bbbd720b37fe0b4e033e1ee065e01bb1389d9a328adf90a21c010000006a47304402204adf00e81f41f2d2a131c1a1194cfe11e81ed9f8913cb2d49e707d829a21b89002201aafed97cac837479af0dfb2c62aa0689238f110cde11f59832f78dcac32b2e70121033cb32305253cb618277925154acc6b6b3a5217d5503b198d07ac2cac0ed91d47ffffffff81231cc82514418babea740d511d3373d97e3a29f5dfdddea9121eac62be5e34010000006a47304402206aa4825ba6dcf7f1d5f4ada02e8104324f7a836d35917218ba243a0f5ee935f502203a05929174592eb524dcdd1ee8ad64f82eb130acbb54688627bbe74ccdc1df42012103c6b36e8bcd70ce152019d42d85201ad65a0c3405459324cd750198454c79d177ffffffffeab65ffe83fd95b80bb6921bdf0697721e2a5534747c1a831be40447fed01c44000000006b48304502210095f64883f814275894224d2a2baa4370297367f25af6e208f2a4981bb16937ea02200567834f28e65c8218115684374efb6eac21ce954365a1282477258e8a51016001210349c398d53c29b54ca070a5cd25f723d980c0fe6c1d3365308d51d9cddeadfde8ffffffff02d42ec300000000001976a9145a5c986ba569957e58744b8b87b0eeaae6d5a9a688ac00ca9a3b000000001976a914c9ef3a792fce8a5df5777731e2edddf5b83ac4cc88ac00000000", "vin": [{"sequence": 4294967295, "scriptSig": {"hex": "47304402204adf00e81f41f2d2a131c1a1194cfe11e81ed9f8913cb2d49e707d829a21b89002201aafed97cac837479af0dfb2c62aa0689238f110cde11f59832f78dcac32b2e70121033cb32305253cb618277925154acc6b6b3a5217d5503b198d07ac2cac0ed91d47", "asm": "304402204adf00e81f41f2d2a131c1a1194cfe11e81ed9f8913cb2d49e707d829a21b89002201aafed97cac837479af0dfb2c62aa0689238f110cde11f59832f78dcac32b2e7[ALL] 033cb32305253cb618277925154acc6b6b3a5217d5503b198d07ac2cac0ed91d47"}, "vout": 1, "txid": "1ca290df8a329a9d38b11be065e01e3e034e0bfe370b72bdbbb7184d887cf680"}, {"sequence": 4294967295, "scriptSig": {"hex": "47304402206aa4825ba6dcf7f1d5f4ada02e8104324f7a836d35917218ba243a0f5ee935f502203a05929174592eb524dcdd1ee8ad64f82eb130acbb54688627bbe74ccdc1df42012103c6b36e8bcd70ce152019d42d85201ad65a0c3405459324cd750198454c79d177", "asm": "304402206aa4825ba6dcf7f1d5f4ada02e8104324f7a836d35917218ba243a0f5ee935f502203a05929174592eb524dcdd1ee8ad64f82eb130acbb54688627bbe74ccdc1df42[ALL] 03c6b36e8bcd70ce152019d42d85201ad65a0c3405459324cd750198454c79d177"}, "vout": 1, "txid": "345ebe62ac1e12a9dedddff5293a7ed973331d510d74eaab8b411425c81c2381"}, {"sequence": 4294967295, "scriptSig": {"hex": "48304502210095f64883f814275894224d2a2baa4370297367f25af6e208f2a4981bb16937ea02200567834f28e65c8218115684374efb6eac21ce954365a1282477258e8a51016001210349c398d53c29b54ca070a5cd25f723d980c0fe6c1d3365308d51d9cddeadfde8", "asm": "304502210095f64883f814275894224d2a2baa4370297367f25af6e208f2a4981bb16937ea02200567834f28e65c8218115684374efb6eac21ce954365a1282477258e8a510160[ALL] 0349c398d53c29b54ca070a5cd25f723d980c0fe6c1d3365308d51d9cddeadfde8"}, "vout": 0, "txid": "441cd0fe4704e41b831a7c7434552a1e729706df1b92b60bb895fd83fe5fb6ea"}], "txid": "910d447191bb81fc37e2f82f399c418b48d4f72766113754fc3f6953aef627ae", "blocktime": 1537873891, "version": 1, "confirmations": 11476, "time": 1537873891, "locktime": 0, "vsize": 520, "size": 520}