{"hash": "572ce38b7032151a665ef18241e7ba8d6cbda9bb2622c561ff197ef4c049e3bc", "blockhash": "00000000000000000017f5eb5941039fbcee6240d03bc1f2f8e35350df66a1d8", "vout": [{"scriptPubKey": {"reqSigs": 1, "hex": "a914cf97f41225ce8af0ecc3cbeb41772b9530fbc1ce87", "addresses": ["3LcfqAErfB1bHCDp8FnRVaLJB3PhNuhiBo"], "asm": "OP_HASH160 cf97f41225ce8af0ecc3cbeb41772b9530fbc1ce OP_EQUAL", "type": "scripthash"}, "value": 0.01532091, "n": 0}, {"scriptPubKey": {"reqSigs": 1, "hex": "a91469f375e06386597c2edea37f96563d01d15a58c487", "addresses": ["3BMEXccsULX2aRbf8QWmuYXPcyzFmcqH6N"], "asm": "OP_HASH160 69f375e06386597c2edea37f96563d01d15a58c4 OP_EQUAL", "type": "scripthash"}, "value": 0.005072, "n": 1}], "hex": "0200000000010263c7e9f7aa8e0554b9245ea6f7f6bce66dab95ec9ca68bec05ca40263870b8680100000017160014f590979aca9e186393616180c4be57fd5873dca2feffffffec25f3ea36574e59d96243018e399b84dd6da59ace23bd0342fc41540143018901000000171600142e129f5069e71f8acd8392bbb5c2de3aae6b77aefeffffff02bb6017000000000017a914cf97f41225ce8af0ecc3cbeb41772b9530fbc1ce8740bd07000000000017a91469f375e06386597c2edea37f96563d01d15a58c487024730440220027c12f0578b02ddf311aa742b6005f16191656bb2c35678fffa913b7075bf3a0220555378d7941ea9f2d5b8d4d498d6f60266de71590723351ce5b535738c1129a0012102ea01404ff1110a4b7e3e2832c40b76ace491879befb53396ccf50ee8e0e43457024730440220783b9f0b254d5aec6f48528b4d75df3bd7714a193df373ab9bfdd0b24b348e2b02207dd994fe62cabe3ccf3862a950f1747bcc0f33f0e2e4bdfc1be8a07aa14395e00121030a43233d59e8fe509f8718ec3948f2a437846f89e433a75e80796c07d8067ddb15490800", "vin": [{"txinwitness": ["30440220027c12f0578b02ddf311aa742b6005f16191656bb2c35678fffa913b7075bf3a0220555378d7941ea9f2d5b8d4d498d6f60266de71590723351ce5b535738c1129a001", "02ea01404ff1110a4b7e3e2832c40b76ace491879befb53396ccf50ee8e0e43457"], "sequence": 4294967294, "scriptSig": {"hex": "160014f590979aca9e186393616180c4be57fd5873dca2", "asm": "0014f590979aca9e186393616180c4be57fd5873dca2"}, "vout": 1, "txid": "68b870382640ca05ec8ba69cec95ab6de6bcf6f7a65e24b954058eaaf7e9c763"}, {"txinwitness": ["30440220783b9f0b254d5aec6f48528b4d75df3bd7714a193df373ab9bfdd0b24b348e2b02207dd994fe62cabe3ccf3862a950f1747bcc0f33f0e2e4bdfc1be8a07aa14395e001", "030a43233d59e8fe509f8718ec3948f2a437846f89e433a75e80796c07d8067ddb"], "sequence": 4294967294, "scriptSig": {"hex": "1600142e129f5069e71f8acd8392bbb5c2de3aae6b77ae", "asm": "00142e129f5069e71f8acd8392bbb5c2de3aae6b77ae"}, "vout": 1, "txid": "890143015441fc4203bd23ce9aa56ddd849b398e014362d9594e5736eaf325ec"}], "txid": "9114f1b36373790bcb230bcba4c57b5c4270ecfe378a25a6e8f676c293e8b364", "blocktime": 1537874412, "version": 2, "confirmations": 11466, "time": 1537874412, "locktime": 542997, "vsize": 256, "size": 418}