{"hash": "911914032f628bf0288b067180a0eaf6a5e3164a7d02a5da93a68a38005732f5", "blockhash": "0000000000000000001f76057863aec43deb6fa401d9628bb513d65a8098bfab", "vout": [{"scriptPubKey": {"reqSigs": 1, "hex": "76a9147c68b86f635b7aa1e4f62928d47222b8b3b6ae4888ac", "addresses": ["1CLpEthaRNoSsyjf4sbdheStzNtf9NBB2j"], "asm": "OP_DUP OP_HASH160 7c68b86f635b7aa1e4f62928d47222b8b3b6ae48 OP_EQUALVERIFY OP_CHECKSIG", "type": "pubkeyhash"}, "value": 0.00418118, "n": 0}, {"scriptPubKey": {"reqSigs": 1, "hex": "76a914a144a3c20fe54b000b604ea960f04bd83028135788ac", "addresses": ["1Fhi246BuDigUPKx6N4Nmi3qwmnVSubqAf"], "asm": "OP_DUP OP_HASH160 a144a3c20fe54b000b604ea960f04bd830281357 OP_EQUALVERIFY OP_CHECKSIG", "type": "pubkeyhash"}, "value": 0.114536, "n": 1}], "hex": "010000000296b004f5a6d8150e2ad2a8fd29a39c902a039a57afc189aa9c9a3bdb1794ba2c000000006b483045022100d03649905f55eabafc76aa2cba9febfbca7b7a7f869de87a882ab538cb367d090220703ff78bd177653e2489da0b43e63b9c5d1b75786c851687232145fe2272fe8e0121020aff0deb41d3911e760459d812a07a004f31aeebd2d56bac8e215dff06dea3a6ffffffff015e38768595e1d312d290d8301144f27942243cd012da5a18abc370a5676ab4010000006a473044022042b40ab4a69b95e6c0919478b31ec227bf3e4b3dbb0fccd3e49da679e00106e1022012da3aae75fd5eee755c08a00dd780362992f2405ea601f3f3573d4671a038440121039eaea11b824b5bef17aa3b93d4cd894fb098752f22813559db1204d2b72d8e71ffffffff0246610600000000001976a9147c68b86f635b7aa1e4f62928d47222b8b3b6ae4888aca0c4ae00000000001976a914a144a3c20fe54b000b604ea960f04bd83028135788ac00000000", "vin": [{"sequence": 4294967295, "scriptSig": {"hex": "483045022100d03649905f55eabafc76aa2cba9febfbca7b7a7f869de87a882ab538cb367d090220703ff78bd177653e2489da0b43e63b9c5d1b75786c851687232145fe2272fe8e0121020aff0deb41d3911e760459d812a07a004f31aeebd2d56bac8e215dff06dea3a6", "asm": "3045022100d03649905f55eabafc76aa2cba9febfbca7b7a7f869de87a882ab538cb367d090220703ff78bd177653e2489da0b43e63b9c5d1b75786c851687232145fe2272fe8e[ALL] 020aff0deb41d3911e760459d812a07a004f31aeebd2d56bac8e215dff06dea3a6"}, "vout": 0, "txid": "2cba9417db3b9a9caa89c1af579a032a909ca329fda8d22a0e15d8a6f504b096"}, {"sequence": 4294967295, "scriptSig": {"hex": "473044022042b40ab4a69b95e6c0919478b31ec227bf3e4b3dbb0fccd3e49da679e00106e1022012da3aae75fd5eee755c08a00dd780362992f2405ea601f3f3573d4671a038440121039eaea11b824b5bef17aa3b93d4cd894fb098752f22813559db1204d2b72d8e71", "asm": "3044022042b40ab4a69b95e6c0919478b31ec227bf3e4b3dbb0fccd3e49da679e00106e1022012da3aae75fd5eee755c08a00dd780362992f2405ea601f3f3573d4671a03844[ALL] 039eaea11b824b5bef17aa3b93d4cd894fb098752f22813559db1204d2b72d8e71"}, "vout": 1, "txid": "b46a67a570c3ab185ada12d03c244279f2441130d890d212d3e1958576385e01"}], "txid": "911914032f628bf0288b067180a0eaf6a5e3164a7d02a5da93a68a38005732f5", "blocktime": 1537873891, "version": 1, "confirmations": 11474, "time": 1537873891, "locktime": 0, "vsize": 373, "size": 373}