{"hash": "6ef64f19a270885e23bc4972bd0ea7c66157993b76815644e4c40ce457d0e2f7", "blockhash": "00000000000000000018f53835495a110e01622372bf6ae95dc86f2b0ab887b0", "vout": [{"scriptPubKey": {"reqSigs": 1, "hex": "76a9146bf5d825fdc826a564706de3e597daf6a5aaf14b88ac", "addresses": ["1Aqqp6BYo68MNUBoX7myFDEicK2Xk7yxRH"], "asm": "OP_DUP OP_HASH160 6bf5d825fdc826a564706de3e597daf6a5aaf14b OP_EQUALVERIFY OP_CHECKSIG", "type": "pubkeyhash"}, "value": 0.0028826, "n": 0}, {"scriptPubKey": {"reqSigs": 1, "hex": "a914bb10e5b9bf59ed0203c2dd6c18e3512983c8b60987", "addresses": ["3Jk8XTxUGWVeiBqq6ua5wpzwJEGP2E2xRc"], "asm": "OP_HASH160 bb10e5b9bf59ed0203c2dd6c18e3512983c8b609 OP_EQUAL", "type": "scripthash"}, "value": 0.01001142, "n": 1}], "hex": "0200000000010236fd1bade1380815b1acd413ce2aceb720b9cc05ba44f0d08e680bb5162eea550f00000017160014e2836f736aca6df6543d1cfa10bfc4448314cc10feffffffdf01e1088aea1506d73b11bd39bebaf85e1fa2c770a0bb06be26aee1869dfcc107000000171600149a7fe72dfce081edb915a6fa820d17142eb4791afeffffff0204660400000000001976a9146bf5d825fdc826a564706de3e597daf6a5aaf14b88acb6460f000000000017a914bb10e5b9bf59ed0203c2dd6c18e3512983c8b60987024730440220407d56b3f26034e44546bf29e053842233d4cb0d92ba9578e133b1987f278df102205dae0beb507746e33d9e85ff6bc54f65393b7756571fa3af56477a8231a848300121031b14dd4b1509c49126b5a0e9b2278863f401196adcfa13a61a4a4b835de1fdd302483045022100cf0ec3b850473902361b216069effbd88b9fc05e5d2b960a6cf7f00875e3b0d60220585ee79acbacb69f0482c70982bb20f045499c08425d352c329e17dcf7dbd5dc0121020e6f862bdd530c6195f9ab9d7aebba969fdd68456a493182136b78398f1add300e490800", "vin": [{"txinwitness": ["30440220407d56b3f26034e44546bf29e053842233d4cb0d92ba9578e133b1987f278df102205dae0beb507746e33d9e85ff6bc54f65393b7756571fa3af56477a8231a8483001", "031b14dd4b1509c49126b5a0e9b2278863f401196adcfa13a61a4a4b835de1fdd3"], "sequence": 4294967294, "scriptSig": {"hex": "160014e2836f736aca6df6543d1cfa10bfc4448314cc10", "asm": "0014e2836f736aca6df6543d1cfa10bfc4448314cc10"}, "vout": 15, "txid": "55ea2e16b50b688ed0f044ba05ccb920b7ce2ace13d4acb1150838e1ad1bfd36"}, {"txinwitness": ["3045022100cf0ec3b850473902361b216069effbd88b9fc05e5d2b960a6cf7f00875e3b0d60220585ee79acbacb69f0482c70982bb20f045499c08425d352c329e17dcf7dbd5dc01", "020e6f862bdd530c6195f9ab9d7aebba969fdd68456a493182136b78398f1add30"], "sequence": 4294967294, "scriptSig": {"hex": "1600149a7fe72dfce081edb915a6fa820d17142eb4791a", "asm": "00149a7fe72dfce081edb915a6fa820d17142eb4791a"}, "vout": 7, "txid": "c1fc9d86e1ae26be06bba070c7a21f5ef8babe39bd113bd70615ea8a08e101df"}], "txid": "91270500a742ebb282479da3fb2e3404894a761457b210e2e10f6147759265b2", "blocktime": 1537870928, "version": 2, "confirmations": 11514, "time": 1537870928, "locktime": 542990, "vsize": 259, "size": 421}