{"hash": "912969310bf2b3716b38ef314cc2548494bda03f5d47448c2d2fb25b43be530d", "blockhash": "00000000000000000018f53835495a110e01622372bf6ae95dc86f2b0ab887b0", "vout": [{"scriptPubKey": {"reqSigs": 1, "hex": "a914d63a2940c827154ac647b52f56ef5475a9f72c2a87", "addresses": ["3MDkChhxGEfBENpKA1hcJS88pgtqzA92TF"], "asm": "OP_HASH160 d63a2940c827154ac647b52f56ef5475a9f72c2a OP_EQUAL", "type": "scripthash"}, "value": 0.01438461, "n": 0}, {"scriptPubKey": {"reqSigs": 1, "hex": "76a914b1c36cdbc8488828fdf7c51a01ffdc5fad795f3f88ac", "addresses": ["1HCviLYNqHAyeZxGTj9Mtgvj1NJgQuSo91"], "asm": "OP_DUP OP_HASH160 b1c36cdbc8488828fdf7c51a01ffdc5fad795f3f OP_EQUALVERIFY OP_CHECKSIG", "type": "pubkeyhash"}, "value": 0.47774336, "n": 1}], "hex": "01000000021e7b16dc4f3bfadd4e6a02eaeb6eb05e471948c7e9440f85047432e4657f70b6010000006a4730440220115176aa8fd120a268709743e6f6a9d427a06256f4fa66a87c4b1395a6ac3e4902207c4741b8c7302da9799446cfac1e53e1da05e4021156309782b654b446ed89b8012103e98b2085b9b57e87ea65a6da22cefe99a20cce73c3e6a5f516c3cfd9d2defc63ffffffff2254f24364e049934519362f2697cabfe48b6bbc62441afc4fb4149cfe869deb030000006a47304402200e6684c4618592cf31cc38f7aedea01c2f5861fdaede03b1681398ad9e38e41802202857286d8700f61fdde5677632d2400e2a386a98f38489b2cb1b45daed03cb8e012102bc94fc0fec87accd4903e80d06afb112a46f743e997af2c7680035cba6d4b38cffffffff02fdf215000000000017a914d63a2940c827154ac647b52f56ef5475a9f72c2a8780fad802000000001976a914b1c36cdbc8488828fdf7c51a01ffdc5fad795f3f88ac00000000", "vin": [{"sequence": 4294967295, "scriptSig": {"hex": "4730440220115176aa8fd120a268709743e6f6a9d427a06256f4fa66a87c4b1395a6ac3e4902207c4741b8c7302da9799446cfac1e53e1da05e4021156309782b654b446ed89b8012103e98b2085b9b57e87ea65a6da22cefe99a20cce73c3e6a5f516c3cfd9d2defc63", "asm": "30440220115176aa8fd120a268709743e6f6a9d427a06256f4fa66a87c4b1395a6ac3e4902207c4741b8c7302da9799446cfac1e53e1da05e4021156309782b654b446ed89b8[ALL] 03e98b2085b9b57e87ea65a6da22cefe99a20cce73c3e6a5f516c3cfd9d2defc63"}, "vout": 1, "txid": "b6707f65e4327404850f44e9c74819475eb06eebea026a4eddfa3b4fdc167b1e"}, {"sequence": 4294967295, "scriptSig": {"hex": "47304402200e6684c4618592cf31cc38f7aedea01c2f5861fdaede03b1681398ad9e38e41802202857286d8700f61fdde5677632d2400e2a386a98f38489b2cb1b45daed03cb8e012102bc94fc0fec87accd4903e80d06afb112a46f743e997af2c7680035cba6d4b38c", "asm": "304402200e6684c4618592cf31cc38f7aedea01c2f5861fdaede03b1681398ad9e38e41802202857286d8700f61fdde5677632d2400e2a386a98f38489b2cb1b45daed03cb8e[ALL] 02bc94fc0fec87accd4903e80d06afb112a46f743e997af2c7680035cba6d4b38c"}, "vout": 3, "txid": "eb9d86fe9c14b44ffc1a4462bc6b8be4bfca97262f3619459349e06443f25422"}], "txid": "912969310bf2b3716b38ef314cc2548494bda03f5d47448c2d2fb25b43be530d", "blocktime": 1537870928, "version": 1, "confirmations": 11514, "time": 1537870928, "locktime": 0, "vsize": 370, "size": 370}