{"hash": "912b1e2f6af14a63e43e5fddf07ad48a6ae47c672e73fa6be6ac4f4fabec5065", "blockhash": "0000000000000000000e13cef7c366c0283d82e591d1acd082e914b08063cdf1", "vout": [{"scriptPubKey": {"reqSigs": 1, "hex": "76a91475bdade5c9ffba0a946071423ed64944402731e788ac", "addresses": ["1BjZHbLqeMFMBcpwK5a4NPtRHMoGETs6gz"], "asm": "OP_DUP OP_HASH160 75bdade5c9ffba0a946071423ed64944402731e7 OP_EQUALVERIFY OP_CHECKSIG", "type": "pubkeyhash"}, "value": 0.001776, "n": 0}, {"scriptPubKey": {"reqSigs": 1, "hex": "a914462905574082aa37fe17b970dca6a801b02f727587", "addresses": ["385zN9jWZ5HhTYFGJEHUcxekVyea8rSPMC"], "asm": "OP_HASH160 462905574082aa37fe17b970dca6a801b02f7275 OP_EQUAL", "type": "scripthash"}, "value": 0.06806, "n": 1}], "hex": "0100000004adfdd0116ead8989501db496e535937d9e462ce305795dfdd532cacabef09b27000000006b483045022100ef05497d07004428f2549ec428e4dbd42acd6f71b4cd4a3bab311f2e01bd536e0220447a490ed8878ae4f2f05aac869f93f0a9b7fe7daef346cfe47c8cb0b2a027770121033600cd239e73d7b61a67322bedd236ab5b3d6f67f68fa6aacc33da4273926b54feffffffd768bfca944f3f47d5737f7d1766ca49e746ca2c8a59b3d14caf656181dbe460000000006b483045022100e7ca900f744f4d377f03bcf3a2de59d44312d50f01c4ef09c3238360d56f83cf0220116331427ab5642de44ca0181790a2b70803cf6a4c2bc312cb7d9dbb656dd4ea012103ba1fdac230b20bf285863cb40f99cbf6534eeb414a61502d508a31f0ff33f880feffffff45bedb474b45401f34d1db72d484f5aa99bf074073b4483e7af441ee6b68578a000000006a473044022100c9f22f5ceb483723a2f2222634e8206bc6d5d7a27f2792bb84a2e4e3aab265eb021f44c353a489b83e09542c64e330ffdafa31c0401206a481d6234c1b696ff3f6012103061330a62ad374c53a25b1d452363d72fec20eeece8e5d19cc763a65be01699afeffffff63b8c4e0a7b1a582cd2f8d7ce897feb2a7a90ed6ab38c0e78561217cee544ddd000000006a473044022054ce9945852627accdc3c3d56fbb92ab5b63ecbb4015afc209e793a3857de7d802200743879847944d74aba8e7507b5b0d6138b5fd44ff1461a33a9458ec26d0f8c3012102ca8edb11fd20b629a882d0ed3efb3a65627b30e2ca0acf68e9f2f5999e69089cfeffffff02c0b50200000000001976a91475bdade5c9ffba0a946071423ed64944402731e788acf0d967000000000017a914462905574082aa37fe17b970dca6a801b02f72758710490800", "vin": [{"sequence": 4294967294, "scriptSig": {"hex": "483045022100ef05497d07004428f2549ec428e4dbd42acd6f71b4cd4a3bab311f2e01bd536e0220447a490ed8878ae4f2f05aac869f93f0a9b7fe7daef346cfe47c8cb0b2a027770121033600cd239e73d7b61a67322bedd236ab5b3d6f67f68fa6aacc33da4273926b54", "asm": "3045022100ef05497d07004428f2549ec428e4dbd42acd6f71b4cd4a3bab311f2e01bd536e0220447a490ed8878ae4f2f05aac869f93f0a9b7fe7daef346cfe47c8cb0b2a02777[ALL] 033600cd239e73d7b61a67322bedd236ab5b3d6f67f68fa6aacc33da4273926b54"}, "vout": 0, "txid": "279bf0becaca32d5fd5d7905e32c469e7d9335e596b41d508989ad6e11d0fdad"}, {"sequence": 4294967294, "scriptSig": {"hex": "483045022100e7ca900f744f4d377f03bcf3a2de59d44312d50f01c4ef09c3238360d56f83cf0220116331427ab5642de44ca0181790a2b70803cf6a4c2bc312cb7d9dbb656dd4ea012103ba1fdac230b20bf285863cb40f99cbf6534eeb414a61502d508a31f0ff33f880", "asm": "3045022100e7ca900f744f4d377f03bcf3a2de59d44312d50f01c4ef09c3238360d56f83cf0220116331427ab5642de44ca0181790a2b70803cf6a4c2bc312cb7d9dbb656dd4ea[ALL] 03ba1fdac230b20bf285863cb40f99cbf6534eeb414a61502d508a31f0ff33f880"}, "vout": 0, "txid": "60e4db816165af4cd1b3598a2cca46e749ca66177d7f73d5473f4f94cabf68d7"}, {"sequence": 4294967294, "scriptSig": {"hex": "473044022100c9f22f5ceb483723a2f2222634e8206bc6d5d7a27f2792bb84a2e4e3aab265eb021f44c353a489b83e09542c64e330ffdafa31c0401206a481d6234c1b696ff3f6012103061330a62ad374c53a25b1d452363d72fec20eeece8e5d19cc763a65be01699a", "asm": "3044022100c9f22f5ceb483723a2f2222634e8206bc6d5d7a27f2792bb84a2e4e3aab265eb021f44c353a489b83e09542c64e330ffdafa31c0401206a481d6234c1b696ff3f6[ALL] 03061330a62ad374c53a25b1d452363d72fec20eeece8e5d19cc763a65be01699a"}, "vout": 0, "txid": "8a57686bee41f47a3e48b4734007bf99aaf584d472dbd1341f40454b47dbbe45"}, {"sequence": 4294967294, "scriptSig": {"hex": "473044022054ce9945852627accdc3c3d56fbb92ab5b63ecbb4015afc209e793a3857de7d802200743879847944d74aba8e7507b5b0d6138b5fd44ff1461a33a9458ec26d0f8c3012102ca8edb11fd20b629a882d0ed3efb3a65627b30e2ca0acf68e9f2f5999e69089c", "asm": "3044022054ce9945852627accdc3c3d56fbb92ab5b63ecbb4015afc209e793a3857de7d802200743879847944d74aba8e7507b5b0d6138b5fd44ff1461a33a9458ec26d0f8c3[ALL] 02ca8edb11fd20b629a882d0ed3efb3a65627b30e2ca0acf68e9f2f5999e69089c"}, "vout": 0, "txid": "dd4d54ee7c216185e7c038abd60ea9a7b2fe97e87c8d2fcd82a5b1a7e0c4b863"}], "txid": "912b1e2f6af14a63e43e5fddf07ad48a6ae47c672e73fa6be6ac4f4fabec5065", "blocktime": 1537871767, "version": 1, "confirmations": 11495, "time": 1537871767, "locktime": 542992, "vsize": 666, "size": 666}