{"hash": "9131c6f5e632ad2b949319fef88c60944166236d946d89870487597ae9d4dd00", "blockhash": "0000000000000000001f76057863aec43deb6fa401d9628bb513d65a8098bfab", "vout": [{"scriptPubKey": {"reqSigs": 1, "hex": "76a9142ba41ac19ed5daa94db4cf81aeefcc8777166f5b88ac", "addresses": ["14ykeRxzQBWccWEFJ5Jihu5BydTZr5kfV1"], "asm": "OP_DUP OP_HASH160 2ba41ac19ed5daa94db4cf81aeefcc8777166f5b OP_EQUALVERIFY OP_CHECKSIG", "type": "pubkeyhash"}, "value": 0.00624486, "n": 0}, {"scriptPubKey": {"reqSigs": 1, "hex": "76a914fcdaa64010ea1577f201fb4f2cc7354c450aae2788ac", "addresses": ["1Q3yDNQBKzSYWDHcBGH7JdS83btXdqshX8"], "asm": "OP_DUP OP_HASH160 fcdaa64010ea1577f201fb4f2cc7354c450aae27 OP_EQUALVERIFY OP_CHECKSIG", "type": "pubkeyhash"}, "value": 0.03864979, "n": 1}], "hex": "0100000001604f67806dbdd31999c403103bc2cc116685977ff1f24a0f8ebfd3933879d402010000006a47304402206d697ed6727b47b99bd8770a04bf163504dd1fb5a40539adf0aefea564eeba1502207f10e95e5e3d95afcfbf58dc3208431d72a6a5fded71b09cb1ca9b6b2d62bd3f0121028c9f7630f59415c9433cf4e90d4ead31dd756ea1fe662a97fe9c74681d4b9e49ffffffff0266870900000000001976a9142ba41ac19ed5daa94db4cf81aeefcc8777166f5b88ac93f93a00000000001976a914fcdaa64010ea1577f201fb4f2cc7354c450aae2788ac00000000", "vin": [{"sequence": 4294967295, "scriptSig": {"hex": "47304402206d697ed6727b47b99bd8770a04bf163504dd1fb5a40539adf0aefea564eeba1502207f10e95e5e3d95afcfbf58dc3208431d72a6a5fded71b09cb1ca9b6b2d62bd3f0121028c9f7630f59415c9433cf4e90d4ead31dd756ea1fe662a97fe9c74681d4b9e49", "asm": "304402206d697ed6727b47b99bd8770a04bf163504dd1fb5a40539adf0aefea564eeba1502207f10e95e5e3d95afcfbf58dc3208431d72a6a5fded71b09cb1ca9b6b2d62bd3f[ALL] 028c9f7630f59415c9433cf4e90d4ead31dd756ea1fe662a97fe9c74681d4b9e49"}, "vout": 1, "txid": "02d4793893d3bf8e0f4af2f17f97856611ccc23b1003c49919d3bd6d80674f60"}], "txid": "9131c6f5e632ad2b949319fef88c60944166236d946d89870487597ae9d4dd00", "blocktime": 1537873891, "version": 1, "confirmations": 11478, "time": 1537873891, "locktime": 0, "vsize": 225, "size": 225}