{"hash": "913603915672fd367f97980729e85dc335c85884a129b22db338a95e55c53870", "blockhash": "00000000000000000018f53835495a110e01622372bf6ae95dc86f2b0ab887b0", "vout": [{"scriptPubKey": {"reqSigs": 1, "hex": "76a914d243e6abb9a60fbff430b421d2df4b7d59ec186088ac", "addresses": ["1LAnF8h3qMGx3TSwNUHVneBZUEpwE4gu3D"], "asm": "OP_DUP OP_HASH160 d243e6abb9a60fbff430b421d2df4b7d59ec1860 OP_EQUALVERIFY OP_CHECKSIG", "type": "pubkeyhash"}, "value": 0.00077314, "n": 0}, {"scriptPubKey": {"reqSigs": 1, "hex": "76a914ebff5c786e26c9b000be10b8c62bd8a7e55b241588ac", "addresses": ["1NWqhtX5ySrDPcUPcd133tmBsQPpxbNgJ6"], "asm": "OP_DUP OP_HASH160 ebff5c786e26c9b000be10b8c62bd8a7e55b2415 OP_EQUALVERIFY OP_CHECKSIG", "type": "pubkeyhash"}, "value": 5.46e-06, "n": 1}, {"scriptPubKey": {"type": "nulldata", "hex": "6a146f6d6e69000000000000001f0000005fd6df1fc0", "asm": "OP_RETURN 6f6d6e69000000000000001f0000005fd6df1fc0"}, "value": 0.0, "n": 2}], "hex": "0100000001c1532f9d88b1215a2e493a19e6bd43bf15e8cfc08ea79b01485127a0e954c17f000000006b48304502210080d0caf1f75356588501d0f7b0f73e4d27d77f0d7646f596d4206ac038b9859602201afac556bd6834c7b81759e5ed41c0d939a6a0384b73e20297e69f2dcfbc83e301210271977291b74f1f5f5c42157e8aae804664eaaeccfd097918450d37f28fb94d77ffffffff03022e0100000000001976a914d243e6abb9a60fbff430b421d2df4b7d59ec186088ac22020000000000001976a914ebff5c786e26c9b000be10b8c62bd8a7e55b241588ac0000000000000000166a146f6d6e69000000000000001f0000005fd6df1fc000000000", "vin": [{"sequence": 4294967295, "scriptSig": {"hex": "48304502210080d0caf1f75356588501d0f7b0f73e4d27d77f0d7646f596d4206ac038b9859602201afac556bd6834c7b81759e5ed41c0d939a6a0384b73e20297e69f2dcfbc83e301210271977291b74f1f5f5c42157e8aae804664eaaeccfd097918450d37f28fb94d77", "asm": "304502210080d0caf1f75356588501d0f7b0f73e4d27d77f0d7646f596d4206ac038b9859602201afac556bd6834c7b81759e5ed41c0d939a6a0384b73e20297e69f2dcfbc83e3[ALL] 0271977291b74f1f5f5c42157e8aae804664eaaeccfd097918450d37f28fb94d77"}, "vout": 0, "txid": "7fc154e9a0275148019ba78ec0cfe815bf43bde6193a492e5a21b1889d2f53c1"}], "txid": "913603915672fd367f97980729e85dc335c85884a129b22db338a95e55c53870", "blocktime": 1537870928, "version": 1, "confirmations": 11512, "time": 1537870928, "locktime": 0, "vsize": 257, "size": 257}