{"hash": "bf36d530e8be368e1ad8b21410466715fc4f57617ed0f2835d35427a287c389c", "blockhash": "0000000000000000000baef3f32e3676a92c3b2e5da21b426e4f302fc371ce76", "vout": [{"scriptPubKey": {"reqSigs": 1, "hex": "a914ec04093724012ca308ff07ef9220f634ec9c69d287", "addresses": ["3PCxEEyYnEDFvdtXi7is4eXB2HFP9BrVz8"], "asm": "OP_HASH160 ec04093724012ca308ff07ef9220f634ec9c69d2 OP_EQUAL", "type": "scripthash"}, "value": 0.0028356, "n": 0}, {"scriptPubKey": {"reqSigs": 1, "hex": "a9140afac8efb13c006767b6ec8e007fb2b567c9430d87", "addresses": ["32h57JXDhPUAsHVoBMdbzDtmzSWMnbp4AH"], "asm": "OP_HASH160 0afac8efb13c006767b6ec8e007fb2b567c9430d OP_EQUAL", "type": "scripthash"}, "value": 0.01069286, "n": 1}], "hex": "02000000000102029be9db602b0abf9bd6c6058846e16c00487b7e6654319c42c23660307580be0000000017160014698ee4fc4ca68e3c33e8c64f6218ec222a99441efeffffffe4ff714a2fdf7ec91c512d6a99e98602b676076daada050d400af28c31da33a80300000017160014cf4942fb2d21a1e04efeb0a43a3c8c012ea2be8efeffffff02a85304000000000017a914ec04093724012ca308ff07ef9220f634ec9c69d287e65010000000000017a9140afac8efb13c006767b6ec8e007fb2b567c9430d8702483045022100aada060f0d9d690eed3af69df162de677bba665e43952397ef4db7d03b57d76f02205c23e384c1a2814a067413138f75d9c91c00e02973b839025061f2289fc4bc280121026a5cffa284dc3ac691bf00dc5c6156b46c7b82b85720b57deed323841902eff502483045022100af3c7926d35457f3655e6867b3039ef1489d66380f0cc8687d1da71486b890e1022055027dcc91bad447d301aeb6017bc5d7553d5ffa86fed690e152a9603da1a538012103e6a147f4f683dfd36103d52da2bcf5caffc71bcc8e49c5ae3abf2ae099caf4bc17490800", "vin": [{"txinwitness": ["3045022100aada060f0d9d690eed3af69df162de677bba665e43952397ef4db7d03b57d76f02205c23e384c1a2814a067413138f75d9c91c00e02973b839025061f2289fc4bc2801", "026a5cffa284dc3ac691bf00dc5c6156b46c7b82b85720b57deed323841902eff5"], "sequence": 4294967294, "scriptSig": {"hex": "160014698ee4fc4ca68e3c33e8c64f6218ec222a99441e", "asm": "0014698ee4fc4ca68e3c33e8c64f6218ec222a99441e"}, "vout": 0, "txid": "be8075306036c2429c3154667e7b48006ce1468805c6d69bbf0a2b60dbe99b02"}, {"txinwitness": ["3045022100af3c7926d35457f3655e6867b3039ef1489d66380f0cc8687d1da71486b890e1022055027dcc91bad447d301aeb6017bc5d7553d5ffa86fed690e152a9603da1a53801", "03e6a147f4f683dfd36103d52da2bcf5caffc71bcc8e49c5ae3abf2ae099caf4bc"], "sequence": 4294967294, "scriptSig": {"hex": "160014cf4942fb2d21a1e04efeb0a43a3c8c012ea2be8e", "asm": "0014cf4942fb2d21a1e04efeb0a43a3c8c012ea2be8e"}, "vout": 3, "txid": "a833da318cf20a400d05daaa6d0776b60286e9996a2d511cc97edf2f4a71ffe4"}], "txid": "913727fb9c66c5cb966292b255b1e43fdf7b97434f8842f3901047a1afac5fb2", "blocktime": 1537876114, "version": 2, "confirmations": 11462, "time": 1537876114, "locktime": 542999, "vsize": 257, "size": 420}