{"hash": "913d75d165d4fd33296e0a844ed08e557377a89a9d6ee946f859e94d05bc1f41", "blockhash": "0000000000000000001f76057863aec43deb6fa401d9628bb513d65a8098bfab", "vout": [{"scriptPubKey": {"reqSigs": 1, "hex": "a9143815357ef3864f65ec84a606da263c015222c21c87", "addresses": ["36oZAuoaVAa6U2Y2EAE2pjn8hNmEQg4tPi"], "asm": "OP_HASH160 3815357ef3864f65ec84a606da263c015222c21c OP_EQUAL", "type": "scripthash"}, "value": 0.0157265, "n": 0}, {"scriptPubKey": {"reqSigs": 1, "hex": "00148523f018b043abd15924a674ef40198fdf11a320", "addresses": ["bc1qs53lqx9sgw4azkfy5e6w7sqe3l03rgeqqd5q8l"], "asm": "0 8523f018b043abd15924a674ef40198fdf11a320", "type": "witness_v0_keyhash"}, "value": 0.00019006, "n": 1}], "hex": "0100000001efdc1e10c966b73b32a57a0bc2ab33f8978488f8c4cc73ce72e6fc56ef846bbeaa0000006a47304402205edcd81f0e89a65d1418d04d7dd2f2f15e5d96a8df11c560d173edc6eb576d9202206dc7feab4268fc65531b753e4c0894785e3777d3b252a54157b0c7392d83066d0121025a2c65bbf5af8d1939bc04daa13c7a11520cf47b47e16bd59a3de3edd427faedffffffff022aff17000000000017a9143815357ef3864f65ec84a606da263c015222c21c873e4a0000000000001600148523f018b043abd15924a674ef40198fdf11a32000000000", "vin": [{"sequence": 4294967295, "scriptSig": {"hex": "47304402205edcd81f0e89a65d1418d04d7dd2f2f15e5d96a8df11c560d173edc6eb576d9202206dc7feab4268fc65531b753e4c0894785e3777d3b252a54157b0c7392d83066d0121025a2c65bbf5af8d1939bc04daa13c7a11520cf47b47e16bd59a3de3edd427faed", "asm": "304402205edcd81f0e89a65d1418d04d7dd2f2f15e5d96a8df11c560d173edc6eb576d9202206dc7feab4268fc65531b753e4c0894785e3777d3b252a54157b0c7392d83066d[ALL] 025a2c65bbf5af8d1939bc04daa13c7a11520cf47b47e16bd59a3de3edd427faed"}, "vout": 170, "txid": "be6b84ef56fce672ce73ccc4f8888497f833abc20b7aa5323bb766c9101edcef"}], "txid": "913d75d165d4fd33296e0a844ed08e557377a89a9d6ee946f859e94d05bc1f41", "blocktime": 1537873891, "version": 1, "confirmations": 11478, "time": 1537873891, "locktime": 0, "vsize": 220, "size": 220}