{"hash": "9142c8ffef8f7e51ffd8b3926efa9bc161117ae34b1254d5f389295fc183a45a", "blockhash": "0000000000000000001f0ddff1eddb255c1121bcd4da4f1bc9a0da00cae72433", "vout": [{"scriptPubKey": {"reqSigs": 1, "hex": "a914cdcc5db813a981523194610e5b13e4ef1167e67287", "addresses": ["3LTBGUSKjRcQGpj5tPKbpsjp1q388qfaqa"], "asm": "OP_HASH160 cdcc5db813a981523194610e5b13e4ef1167e672 OP_EQUAL", "type": "scripthash"}, "value": 5.3e-05, "n": 0}, {"scriptPubKey": {"reqSigs": 1, "hex": "76a9149c4b58eae09e705690513ecdd0266c6bc0136e5c88ac", "addresses": ["1FFQg9httrN1uwQVqryQ94hRQZtVQ1PJvo"], "asm": "OP_DUP OP_HASH160 9c4b58eae09e705690513ecdd0266c6bc0136e5c OP_EQUALVERIFY OP_CHECKSIG", "type": "pubkeyhash"}, "value": 0.05230035, "n": 1}], "hex": "0100000001e3eb1b04c5a9c6c7c876f1c28eceb06699ad27da2ae77faf1394068381071be5010000006a47304402207adc37d1ec683669bd9a9d9d6b902455da31b4056350051df7e8a460f173c509022022127e1d7de2c9b597bee06b8c65f117a7097166732d354a05f996173d155f180121027b41449e251020cf82eda3812e0c14c1c98f005fa276018c1c12af9510a25f1fffffffff02b41400000000000017a914cdcc5db813a981523194610e5b13e4ef1167e67287d3cd4f00000000001976a9149c4b58eae09e705690513ecdd0266c6bc0136e5c88ac00000000", "vin": [{"sequence": 4294967295, "scriptSig": {"hex": "47304402207adc37d1ec683669bd9a9d9d6b902455da31b4056350051df7e8a460f173c509022022127e1d7de2c9b597bee06b8c65f117a7097166732d354a05f996173d155f180121027b41449e251020cf82eda3812e0c14c1c98f005fa276018c1c12af9510a25f1f", "asm": "304402207adc37d1ec683669bd9a9d9d6b902455da31b4056350051df7e8a460f173c509022022127e1d7de2c9b597bee06b8c65f117a7097166732d354a05f996173d155f18[ALL] 027b41449e251020cf82eda3812e0c14c1c98f005fa276018c1c12af9510a25f1f"}, "vout": 1, "txid": "e51b078183069413af7fe72ada27ad9966b0ce8ec2f176c8c7c6a9c5041bebe3"}], "txid": "9142c8ffef8f7e51ffd8b3926efa9bc161117ae34b1254d5f389295fc183a45a", "blocktime": 1537872018, "version": 1, "confirmations": 11489, "time": 1537872018, "locktime": 0, "vsize": 223, "size": 223}