{"hash": "91472ceee0ccf5adfdf2339084d01dc2f3001a2de0f4842be9c602c0dbfb97e8", "blockhash": "0000000000000000001f76057863aec43deb6fa401d9628bb513d65a8098bfab", "vout": [{"scriptPubKey": {"reqSigs": 1, "hex": "a9142070df56950a85334a01162ff529bd88b625512587", "addresses": ["34eYmCGuxTWi8mTrSUX3EcaxB5h9Pm2XeE"], "asm": "OP_HASH160 2070df56950a85334a01162ff529bd88b6255125 OP_EQUAL", "type": "scripthash"}, "value": 0.01309, "n": 0}, {"scriptPubKey": {"reqSigs": 1, "hex": "a914e370231feecbfc25e2e2423a5a79bf79bfdca59887", "addresses": ["3NRbeX3vD5VaVE4TDU9ivCDsEf7NPPte6J"], "asm": "OP_HASH160 e370231feecbfc25e2e2423a5a79bf79bfdca598 OP_EQUAL", "type": "scripthash"}, "value": 3.07297327, "n": 1}], "hex": "0100000001a87492e173922d3939fea6cd79621d276f631c8834def5e5757c97ae5c957db801000000da00483045022100ef69ea733d71dc29e0691f60a7dbf831a2c2f5c5b0c843a6933e8da674953f9502202ee1109bc010bee36b7aa641f1f6ade96ea5f4682390f2d0d4660095b62c37c00147304402206efe2fd9311634f9a044b31dee23bf5b3faf2ef5c6659b073066bdcc3e8f3ce802206bfb446b6cc1bc5c0122a165f8e12e6248b1beca5ee2c6a8800722553d34aaa7014752210327881b6abce6535553a3ce21fad12a7d74fd237ce7c4cd270a267162344e3082210256141f8eb687f5a68c5cc65054652dc25116fa285e44d72b44368827ffe77d9a52aeffffffff0248f913000000000017a9142070df56950a85334a01162ff529bd88b6255125872ffc50120000000017a914e370231feecbfc25e2e2423a5a79bf79bfdca5988700000000", "vin": [{"sequence": 4294967295, "scriptSig": {"hex": "00483045022100ef69ea733d71dc29e0691f60a7dbf831a2c2f5c5b0c843a6933e8da674953f9502202ee1109bc010bee36b7aa641f1f6ade96ea5f4682390f2d0d4660095b62c37c00147304402206efe2fd9311634f9a044b31dee23bf5b3faf2ef5c6659b073066bdcc3e8f3ce802206bfb446b6cc1bc5c0122a165f8e12e6248b1beca5ee2c6a8800722553d34aaa7014752210327881b6abce6535553a3ce21fad12a7d74fd237ce7c4cd270a267162344e3082210256141f8eb687f5a68c5cc65054652dc25116fa285e44d72b44368827ffe77d9a52ae", "asm": "0 3045022100ef69ea733d71dc29e0691f60a7dbf831a2c2f5c5b0c843a6933e8da674953f9502202ee1109bc010bee36b7aa641f1f6ade96ea5f4682390f2d0d4660095b62c37c0[ALL] 304402206efe2fd9311634f9a044b31dee23bf5b3faf2ef5c6659b073066bdcc3e8f3ce802206bfb446b6cc1bc5c0122a165f8e12e6248b1beca5ee2c6a8800722553d34aaa7[ALL] 52210327881b6abce6535553a3ce21fad12a7d74fd237ce7c4cd270a267162344e3082210256141f8eb687f5a68c5cc65054652dc25116fa285e44d72b44368827ffe77d9a52ae"}, "vout": 1, "txid": "b87d955cae977c75e5f5de34881c636f271d6279cda6fe39392d9273e19274a8"}], "txid": "91472ceee0ccf5adfdf2339084d01dc2f3001a2de0f4842be9c602c0dbfb97e8", "blocktime": 1537873891, "version": 1, "confirmations": 11478, "time": 1537873891, "locktime": 0, "vsize": 333, "size": 333}