{"hash": "92fad9e65f7b7cc9662ab5c90e15c3af580a63bf92c8f08f5ad43aecee32b008", "blockhash": "0000000000000000000baef3f32e3676a92c3b2e5da21b426e4f302fc371ce76", "vout": [{"scriptPubKey": {"reqSigs": 1, "hex": "a9145001dad15e8e6e1c79c9824955b24ed66fa62d3e87", "addresses": ["38z4Cm6Bh5JYQGUuKzpdStsfFpg36Zd1V4"], "asm": "OP_HASH160 5001dad15e8e6e1c79c9824955b24ed66fa62d3e OP_EQUAL", "type": "scripthash"}, "value": 3.0, "n": 0}, {"scriptPubKey": {"reqSigs": 1, "hex": "a9149c91a6dc84eb6fdd73e4e8e2cdca0eb04a04034587", "addresses": ["3FxspXvSU6HP8qSxMoRHpRs4Q5a3SUYERw"], "asm": "OP_HASH160 9c91a6dc84eb6fdd73e4e8e2cdca0eb04a040345 OP_EQUAL", "type": "scripthash"}, "value": 0.27140069, "n": 1}], "hex": "01000000000101551e27ee3e8617dc1612745131166c614ba371d5189e2da53d2aa6c8b9eb3d6001000000171600143f2e0fe541f677c86aa1497129e0a6fe2c3c8a88ffffff000200a3e1110000000017a9145001dad15e8e6e1c79c9824955b24ed66fa62d3e87e51f9e010000000017a9149c91a6dc84eb6fdd73e4e8e2cdca0eb04a0403458702483045022100e63345f741da1a8ac18394755613c22c5e239af2647643b80c3138a61d35174c02206ff1131ef7d57f05fc813b0efd38a910be13f062d6166b54db21a84149ab6e3701210218e88b2dba9b2b66661c716cd024b599a311d89d2ad30ae4d377153e2744f4a500000000", "vin": [{"txinwitness": ["3045022100e63345f741da1a8ac18394755613c22c5e239af2647643b80c3138a61d35174c02206ff1131ef7d57f05fc813b0efd38a910be13f062d6166b54db21a84149ab6e3701", "0218e88b2dba9b2b66661c716cd024b599a311d89d2ad30ae4d377153e2744f4a5"], "sequence": 16777215, "scriptSig": {"hex": "1600143f2e0fe541f677c86aa1497129e0a6fe2c3c8a88", "asm": "00143f2e0fe541f677c86aa1497129e0a6fe2c3c8a88"}, "vout": 1, "txid": "603debb9c8a62a3da52d9e18d571a34b616c163151741216dc17863eee271e55"}], "txid": "91472dca232076ef97f29a7db9bad49387cda89be2418c6adef4e01512d4802a", "blocktime": 1537876114, "version": 1, "confirmations": 11460, "time": 1537876114, "locktime": 0, "vsize": 166, "size": 248}