{"hash": "914a3f657dea4753abe366212995c8a7e501cfd32944ec20af93f7a97ec04e4c", "blockhash": "00000000000000000018f53835495a110e01622372bf6ae95dc86f2b0ab887b0", "vout": [{"scriptPubKey": {"reqSigs": 1, "hex": "a914d63ba92b4a4f20ed852f6c91788f10d754a1f40487", "addresses": ["3MDmzuFXhiqakJFJGPHag5Rkp528CHnqpM"], "asm": "OP_HASH160 d63ba92b4a4f20ed852f6c91788f10d754a1f404 OP_EQUAL", "type": "scripthash"}, "value": 0.006872, "n": 0}, {"scriptPubKey": {"reqSigs": 1, "hex": "76a9149be687da1ba8687c9d5f21045170bb687470b85788ac", "addresses": ["1FDKuHZkqx9xSnMjZAxg66Tghrcp5vQj6N"], "asm": "OP_DUP OP_HASH160 9be687da1ba8687c9d5f21045170bb687470b857 OP_EQUALVERIFY OP_CHECKSIG", "type": "pubkeyhash"}, "value": 0.68832677, "n": 1}], "hex": "010000000185ae6724eccbc0379faff8649e98e42f571b4085e0d138a1a8c37b355415b074010000006a47304402202705fc2c059c8d967c3b01daa0157088cbc7cb8870f6d2d9858f1fa09b2b6a3e02204417c53be2ac2b78aa1e41fe2106e72217face71c4dad9308db61104cecc07e8012102350e6fdf77e90a2e6f6b4bc15416209a8289de067718a2c369f758707a1c3bbbffffffff02607c0a000000000017a914d63ba92b4a4f20ed852f6c91788f10d754a1f40487a54d1a04000000001976a9149be687da1ba8687c9d5f21045170bb687470b85788ac00000000", "vin": [{"sequence": 4294967295, "scriptSig": {"hex": "47304402202705fc2c059c8d967c3b01daa0157088cbc7cb8870f6d2d9858f1fa09b2b6a3e02204417c53be2ac2b78aa1e41fe2106e72217face71c4dad9308db61104cecc07e8012102350e6fdf77e90a2e6f6b4bc15416209a8289de067718a2c369f758707a1c3bbb", "asm": "304402202705fc2c059c8d967c3b01daa0157088cbc7cb8870f6d2d9858f1fa09b2b6a3e02204417c53be2ac2b78aa1e41fe2106e72217face71c4dad9308db61104cecc07e8[ALL] 02350e6fdf77e90a2e6f6b4bc15416209a8289de067718a2c369f758707a1c3bbb"}, "vout": 1, "txid": "74b01554357bc3a8a138d1e085401b572fe4989e64f8af9f37c0cbec2467ae85"}], "txid": "914a3f657dea4753abe366212995c8a7e501cfd32944ec20af93f7a97ec04e4c", "blocktime": 1537870928, "version": 1, "confirmations": 11514, "time": 1537870928, "locktime": 0, "vsize": 223, "size": 223}