{"hash": "914c5e2b6714416067eea19c4139390f4ee96aad56a742ec9fad8bf963bde6d2", "blockhash": "00000000000000000004ffacab907a6b429b9a5745fa0b75af4234bf69dd7176", "vout": [{"scriptPubKey": {"reqSigs": 1, "hex": "76a9146941e7b0c5366a4e72b8e191b5023e00f79b9b3b88ac", "addresses": ["1AbYuJg6PwQkG6UmzAxwiqhG9ZjRvPRcaX"], "asm": "OP_DUP OP_HASH160 6941e7b0c5366a4e72b8e191b5023e00f79b9b3b OP_EQUALVERIFY OP_CHECKSIG", "type": "pubkeyhash"}, "value": 0.01608, "n": 0}, {"scriptPubKey": {"reqSigs": 1, "hex": "a914e370231feecbfc25e2e2423a5a79bf79bfdca59887", "addresses": ["3NRbeX3vD5VaVE4TDU9ivCDsEf7NPPte6J"], "asm": "OP_HASH160 e370231feecbfc25e2e2423a5a79bf79bfdca598 OP_EQUAL", "type": "scripthash"}, "value": 3.02380309, "n": 1}], "hex": "0100000001bc8f4c05389ddd4c342cf84ab7422b3589146c963ca98a73cd6566f38fc26b9901000000da004730440220259b51a135d4b1aaa30232388be61d05f31ced34013d548764b6f9ad3b048d9e022045d6566d6e50fc14b1b57fc5faf9cb96764f9d2d684dd0bbee82f6449757274d01483045022100b2ce03570450dbef22e67502ddd193e60eb29e37b59e32a89dcb4915d12524ea02207de4d5cfa0a84c5b8f8d05045096b7d9e6ed9b18493ba09e33a8c6678fd16fde014752210327881b6abce6535553a3ce21fad12a7d74fd237ce7c4cd270a267162344e3082210256141f8eb687f5a68c5cc65054652dc25116fa285e44d72b44368827ffe77d9a52aeffffffff0240891800000000001976a9146941e7b0c5366a4e72b8e191b5023e00f79b9b3b88ac15f505120000000017a914e370231feecbfc25e2e2423a5a79bf79bfdca5988700000000", "vin": [{"sequence": 4294967295, "scriptSig": {"hex": "004730440220259b51a135d4b1aaa30232388be61d05f31ced34013d548764b6f9ad3b048d9e022045d6566d6e50fc14b1b57fc5faf9cb96764f9d2d684dd0bbee82f6449757274d01483045022100b2ce03570450dbef22e67502ddd193e60eb29e37b59e32a89dcb4915d12524ea02207de4d5cfa0a84c5b8f8d05045096b7d9e6ed9b18493ba09e33a8c6678fd16fde014752210327881b6abce6535553a3ce21fad12a7d74fd237ce7c4cd270a267162344e3082210256141f8eb687f5a68c5cc65054652dc25116fa285e44d72b44368827ffe77d9a52ae", "asm": "0 30440220259b51a135d4b1aaa30232388be61d05f31ced34013d548764b6f9ad3b048d9e022045d6566d6e50fc14b1b57fc5faf9cb96764f9d2d684dd0bbee82f6449757274d[ALL] 3045022100b2ce03570450dbef22e67502ddd193e60eb29e37b59e32a89dcb4915d12524ea02207de4d5cfa0a84c5b8f8d05045096b7d9e6ed9b18493ba09e33a8c6678fd16fde[ALL] 52210327881b6abce6535553a3ce21fad12a7d74fd237ce7c4cd270a267162344e3082210256141f8eb687f5a68c5cc65054652dc25116fa285e44d72b44368827ffe77d9a52ae"}, "vout": 1, "txid": "996bc28ff36665cd738aa93c966c1489352b42b74af82c344cdd9d38054c8fbc"}], "txid": "914c5e2b6714416067eea19c4139390f4ee96aad56a742ec9fad8bf963bde6d2", "blocktime": 1537875543, "version": 1, "confirmations": 11464, "time": 1537875543, "locktime": 0, "vsize": 335, "size": 335}