{"hash": "914dfc22722157890dd03fff8cc54cfaccb1e664a9c0b43a98b911a9ad441b07", "blockhash": "0000000000000000001f0ddff1eddb255c1121bcd4da4f1bc9a0da00cae72433", "vout": [{"scriptPubKey": {"reqSigs": 1, "hex": "76a914e18c5eef4ae8b9fa409df8f6fcf9ef3eb5c0e56888ac", "addresses": ["1MZbCJKrmYQND7B1WUhhhcg2kxAjo2EEpX"], "asm": "OP_DUP OP_HASH160 e18c5eef4ae8b9fa409df8f6fcf9ef3eb5c0e568 OP_EQUALVERIFY OP_CHECKSIG", "type": "pubkeyhash"}, "value": 0.00973807, "n": 0}, {"scriptPubKey": {"reqSigs": 1, "hex": "a9147ee126d7ba2ccda56a4030e70087d85696abf9cc87", "addresses": ["3DFtnXjpsjyxkEFhjFasDe2rzhqrcHDXXT"], "asm": "OP_HASH160 7ee126d7ba2ccda56a4030e70087d85696abf9cc OP_EQUAL", "type": "scripthash"}, "value": 0.01402, "n": 1}], "hex": "01000000019b1d08601d87df2915e057b5c05fa274ce5701b47e3cde38d53f859e16a9bb35010000006a4730440220298c9dd95bc26609eaa53866fdd6aeb7107f91703dd4f1c781a7836a8f89727802202152b4b8cb23e3cad471bcfb2f6336e58ea5125cbaa2cadeb0ca3ea289d38b5b01210342a43937bc63875c57a31529050b6c053506f42e2171eceab528ff0482ca6b04fdffffff02efdb0e00000000001976a914e18c5eef4ae8b9fa409df8f6fcf9ef3eb5c0e56888ac906415000000000017a9147ee126d7ba2ccda56a4030e70087d85696abf9cc8710490800", "vin": [{"sequence": 4294967293, "scriptSig": {"hex": "4730440220298c9dd95bc26609eaa53866fdd6aeb7107f91703dd4f1c781a7836a8f89727802202152b4b8cb23e3cad471bcfb2f6336e58ea5125cbaa2cadeb0ca3ea289d38b5b01210342a43937bc63875c57a31529050b6c053506f42e2171eceab528ff0482ca6b04", "asm": "30440220298c9dd95bc26609eaa53866fdd6aeb7107f91703dd4f1c781a7836a8f89727802202152b4b8cb23e3cad471bcfb2f6336e58ea5125cbaa2cadeb0ca3ea289d38b5b[ALL] 0342a43937bc63875c57a31529050b6c053506f42e2171eceab528ff0482ca6b04"}, "vout": 1, "txid": "35bba9169e853fd538de3c7eb40157ce74a25fc0b557e01529df871d60081d9b"}], "txid": "914dfc22722157890dd03fff8cc54cfaccb1e664a9c0b43a98b911a9ad441b07", "blocktime": 1537872018, "version": 1, "confirmations": 11489, "time": 1537872018, "locktime": 542992, "vsize": 223, "size": 223}