{"hash": "c18045136f11816bcef8b7ed98e04fb8b442a500e8186ff73d1f88533120f110", "blockhash": "0000000000000000000dcc0f55137456b1a82d3642486a52398922ac4d620174", "vout": [{"scriptPubKey": {"reqSigs": 1, "hex": "a9149f61af2b7821bfa389a0b88b7704ab9850e02ade87", "addresses": ["3GDkPGNwAUtfVPMEJbCDkxmMaQLjYhaSU4"], "asm": "OP_HASH160 9f61af2b7821bfa389a0b88b7704ab9850e02ade OP_EQUAL", "type": "scripthash"}, "value": 0.01049211, "n": 0}, {"scriptPubKey": {"reqSigs": 1, "hex": "76a914a8d14ccf350599411331bfc3c7a17d02dc078df988ac", "addresses": ["1GPdFeeGJHdEZWYKu2yStedN2EGhNbmSXs"], "asm": "OP_DUP OP_HASH160 a8d14ccf350599411331bfc3c7a17d02dc078df9 OP_EQUALVERIFY OP_CHECKSIG", "type": "pubkeyhash"}, "value": 0.0020406, "n": 1}], "hex": "02000000000102cf3153d507c295a0ea0154d4247332b4390fbcbd33220fa12e124fea5330b9030000000017160014432db8c769c72662ee757ae96ec517f504714904feffffffdacf7361a00a6d6f228c33164e06ec18191ec1a71bcdef26afb5db186ba657f603000000171600148cc1f48521ea1fb6dd4dc666251421f3ef52ef85feffffff027b0210000000000017a9149f61af2b7821bfa389a0b88b7704ab9850e02ade871c1d0300000000001976a914a8d14ccf350599411331bfc3c7a17d02dc078df988ac0247304402200fae41977ff9a73dc4887194ccbfe8f7c1e2d477cad2fb2814847e67457c563e022034cdc1abb76f7b9e28b938fcecb035c6feccda658ebbaef8113a442c4f8e28b701210351d0685582b0c5ce16f8d753f9b07f5845a89861502d624dbdfb608d7fca827302483045022100954a632cc3a21bc9e9cd1a7d8a9f3df66adff6ebe2c6ba7153f90caac2a6567b022079744849ca255127313a487a4f8eea72a6b89a4c0d40ba15595474157e3c95b601210364ad2cbd741256cbcf464c97b787aa544354364772d32c8d6b05fdf12e5103ab0c490800", "vin": [{"txinwitness": ["304402200fae41977ff9a73dc4887194ccbfe8f7c1e2d477cad2fb2814847e67457c563e022034cdc1abb76f7b9e28b938fcecb035c6feccda658ebbaef8113a442c4f8e28b701", "0351d0685582b0c5ce16f8d753f9b07f5845a89861502d624dbdfb608d7fca8273"], "sequence": 4294967294, "scriptSig": {"hex": "160014432db8c769c72662ee757ae96ec517f504714904", "asm": "0014432db8c769c72662ee757ae96ec517f504714904"}, "vout": 0, "txid": "03b93053ea4f122ea10f2233bdbc0f39b4327324d45401eaa095c207d55331cf"}, {"txinwitness": ["3045022100954a632cc3a21bc9e9cd1a7d8a9f3df66adff6ebe2c6ba7153f90caac2a6567b022079744849ca255127313a487a4f8eea72a6b89a4c0d40ba15595474157e3c95b601", "0364ad2cbd741256cbcf464c97b787aa544354364772d32c8d6b05fdf12e5103ab"], "sequence": 4294967294, "scriptSig": {"hex": "1600148cc1f48521ea1fb6dd4dc666251421f3ef52ef85", "asm": "00148cc1f48521ea1fb6dd4dc666251421f3ef52ef85"}, "vout": 3, "txid": "f657a66b18dbb5af26efcd1ba7c11e1918ec064e16338c226f6d0aa06173cfda"}], "txid": "914e8528472d55481125ede1e77439b59891c8f57e1e760ffdd9403b6d73cf24", "blocktime": 1537870268, "version": 2, "confirmations": 11519, "time": 1537870268, "locktime": 542988, "vsize": 259, "size": 421}