{"hash": "914e4d76749377881b152507ee76198c6b37980e8f6f8eb8df3c6e2c549bb494", "blockhash": "00000000000000000024a2167bbff67b0be802c0b01cdd79e6331c2be6459f87", "vout": [{"scriptPubKey": {"reqSigs": 1, "hex": "a914f04f170c30734ab859c60f622d6671527061940187", "addresses": ["3PbeqrXL1rAZEo76PUkDiBBnF9KVr6QMiJ"], "asm": "OP_HASH160 f04f170c30734ab859c60f622d66715270619401 OP_EQUAL", "type": "scripthash"}, "value": 0.003, "n": 0}, {"scriptPubKey": {"reqSigs": 1, "hex": "76a914d85c66b4244851e4a4ffe73ab76a5bfed86d394288ac", "addresses": ["1Lj1ean1EejL1HudCXjLP6X84P2TJcuHTm"], "asm": "OP_DUP OP_HASH160 d85c66b4244851e4a4ffe73ab76a5bfed86d3942 OP_EQUALVERIFY OP_CHECKSIG", "type": "pubkeyhash"}, "value": 0.00947272, "n": 1}], "hex": "01000000018e8eb1ff783c7b3c06820a04f7a02548cf4a959ad62c2ec751f09ba342ac00e3010000006a47304402202002de16d82d8b33f347fcd0d0335853c51227e17bad0e8bc984533b4bbab5b30220628e59fd8005ae7a377605e149e71c97ea7020794c86b19a9f441a9f681149180121028f69a48feea260b4ec277bfa42ceeff1912f7f9a5244e740d5983b8a50c0bbe5ffffffff02e09304000000000017a914f04f170c30734ab859c60f622d667152706194018748740e00000000001976a914d85c66b4244851e4a4ffe73ab76a5bfed86d394288ac00000000", "vin": [{"sequence": 4294967295, "scriptSig": {"hex": "47304402202002de16d82d8b33f347fcd0d0335853c51227e17bad0e8bc984533b4bbab5b30220628e59fd8005ae7a377605e149e71c97ea7020794c86b19a9f441a9f681149180121028f69a48feea260b4ec277bfa42ceeff1912f7f9a5244e740d5983b8a50c0bbe5", "asm": "304402202002de16d82d8b33f347fcd0d0335853c51227e17bad0e8bc984533b4bbab5b30220628e59fd8005ae7a377605e149e71c97ea7020794c86b19a9f441a9f68114918[ALL] 028f69a48feea260b4ec277bfa42ceeff1912f7f9a5244e740d5983b8a50c0bbe5"}, "vout": 1, "txid": "e300ac42a39bf051c72e2cd69a954acf4825a0f7040a82063c7b3c78ffb18e8e"}], "txid": "914e4d76749377881b152507ee76198c6b37980e8f6f8eb8df3c6e2c549bb494", "blocktime": 1537870564, "version": 1, "confirmations": 11515, "time": 1537870564, "locktime": 0, "vsize": 223, "size": 223}