{"hash": "fd7e27865e42f51e5396c49f84b7849ec30cc76cc0cfd1c08f9a0c3131af8058", "blockhash": "0000000000000000001cda96e906b7601b7a6fb1a3b62bca570a9e5d8f4b3de1", "vout": [{"scriptPubKey": {"reqSigs": 1, "hex": "a914aceed24c3dbbb9d70411a8bff7de14005dffd48b87", "addresses": ["3HTQF9QAUJ1iYmsbXYq11Lc6ksLRzGazGA"], "asm": "OP_HASH160 aceed24c3dbbb9d70411a8bff7de14005dffd48b OP_EQUAL", "type": "scripthash"}, "value": 0.033442, "n": 0}, {"scriptPubKey": {"reqSigs": 1, "hex": "a914dee0a1cc9f055700143e0f4ecee53180ab3530dc87", "addresses": ["3N1V2qWA5hpScEmS72pMooYRmXUiLmwPQQ"], "asm": "OP_HASH160 dee0a1cc9f055700143e0f4ecee53180ab3530dc OP_EQUAL", "type": "scripthash"}, "value": 0.95768107, "n": 1}], "hex": "0200000000010192faeba5dd9d75725c92f37892f2dc108d290c900f6d0dd16fe610db573d70360100000017160014cb5dbe423de4d42b6425c6921084c6197a5d2937ffffffff02480733000000000017a914aceed24c3dbbb9d70411a8bff7de14005dffd48b872b4eb5050000000017a914dee0a1cc9f055700143e0f4ecee53180ab3530dc8702473044022027665965a18f30ffeb1f308b94d4cc93c1cd18de9cdb8af9a281061e591a413502202f47ad5132d6dcb21c4823b07061e32bc4cde79dea5b8de6ac76220b036fbc39012102acecad485eda786cbe0422823b7594aea6854abb5ec85e267f1c4b87f3f758f700000000", "vin": [{"txinwitness": ["3044022027665965a18f30ffeb1f308b94d4cc93c1cd18de9cdb8af9a281061e591a413502202f47ad5132d6dcb21c4823b07061e32bc4cde79dea5b8de6ac76220b036fbc3901", "02acecad485eda786cbe0422823b7594aea6854abb5ec85e267f1c4b87f3f758f7"], "sequence": 4294967295, "scriptSig": {"hex": "160014cb5dbe423de4d42b6425c6921084c6197a5d2937", "asm": "0014cb5dbe423de4d42b6425c6921084c6197a5d2937"}, "vout": 1, "txid": "36703d57db10e66fd10d6d0f900c298d10dcf29278f3925c72759ddda5ebfa92"}], "txid": "91525e0e34c213e0cb9b412635c5d8278a47b698d95069d876902c1b2ec89355", "blocktime": 1537873282, "version": 2, "confirmations": 11481, "time": 1537873282, "locktime": 0, "vsize": 166, "size": 247}