{"hash": "915336d0e91b0ec32144748a06ac4bcb23d06054e0559c1460d2d17231cfde27", "blockhash": "0000000000000000000baef3f32e3676a92c3b2e5da21b426e4f302fc371ce76", "vout": [{"scriptPubKey": {"type": "nulldata", "hex": "6a4c5000007829000157eebd27b7256b4774d339f6019d6ddc0f1b8ff117702940d64fa54d8eb27385e5af92a7dd1658fbad0c4fc619325baa1e8b0613eb77d51649eabc9a9526289ac0f6612cd74e33776ee4", "asm": "OP_RETURN 00007829000157eebd27b7256b4774d339f6019d6ddc0f1b8ff117702940d64fa54d8eb27385e5af92a7dd1658fbad0c4fc619325baa1e8b0613eb77d51649eabc9a9526289ac0f6612cd74e33776ee4"}, "value": 0.0, "n": 0}, {"scriptPubKey": {"reqSigs": 1, "hex": "76a9144b4754c707178ed9021a21b3c368cf78ac32326388ac", "addresses": ["17s38ZfwUNuF5mB3agRMuk6Mx1ERauMMq6"], "asm": "OP_DUP OP_HASH160 4b4754c707178ed9021a21b3c368cf78ac323263 OP_EQUALVERIFY OP_CHECKSIG", "type": "pubkeyhash"}, "value": 0.0011158, "n": 1}], "hex": "01000000012bc8cde223b6312e3eb20c86a75ded7821d735eaf79024f2112f8a0d55a4cf85000000006b483045022100947032fa9e321a882912db9d9dfff156c21ea066a2b17f19b4a10d44b214156102200e0d0f173316b157d88abee98b9872ab68fc31485af2204ca9e8aed425b8a9ba012102d759809b0fd5908e7801f9f6be0765f52418fddcabee69ceb4c64ef4c63118dcffffffff020000000000000000536a4c5000007829000157eebd27b7256b4774d339f6019d6ddc0f1b8ff117702940d64fa54d8eb27385e5af92a7dd1658fbad0c4fc619325baa1e8b0613eb77d51649eabc9a9526289ac0f6612cd74e33776ee4dcb30100000000001976a9144b4754c707178ed9021a21b3c368cf78ac32326388ac00000000", "vin": [{"sequence": 4294967295, "scriptSig": {"hex": "483045022100947032fa9e321a882912db9d9dfff156c21ea066a2b17f19b4a10d44b214156102200e0d0f173316b157d88abee98b9872ab68fc31485af2204ca9e8aed425b8a9ba012102d759809b0fd5908e7801f9f6be0765f52418fddcabee69ceb4c64ef4c63118dc", "asm": "3045022100947032fa9e321a882912db9d9dfff156c21ea066a2b17f19b4a10d44b214156102200e0d0f173316b157d88abee98b9872ab68fc31485af2204ca9e8aed425b8a9ba[ALL] 02d759809b0fd5908e7801f9f6be0765f52418fddcabee69ceb4c64ef4c63118dc"}, "vout": 0, "txid": "85cfa4550d8a2f11f22490f7ea35d72178ed5da7860cb23e2e31b623e2cdc82b"}], "txid": "915336d0e91b0ec32144748a06ac4bcb23d06054e0559c1460d2d17231cfde27", "blocktime": 1537876114, "version": 1, "confirmations": 11461, "time": 1537876114, "locktime": 0, "vsize": 284, "size": 284}