{"hash": "91570c6de526680a0db81f7a710cb5dad2857c8a5c8f49f2fa4ba3475382a71f", "blockhash": "0000000000000000001f76057863aec43deb6fa401d9628bb513d65a8098bfab", "vout": [{"scriptPubKey": {"reqSigs": 1, "hex": "76a914a96ac8c07a24923a48082ba06def898d760976fb88ac", "addresses": ["1GSo7v48ciFNGcWFPfCc88ZxZS7bwtnWwK"], "asm": "OP_DUP OP_HASH160 a96ac8c07a24923a48082ba06def898d760976fb OP_EQUALVERIFY OP_CHECKSIG", "type": "pubkeyhash"}, "value": 0.00130538, "n": 0}, {"scriptPubKey": {"reqSigs": 1, "hex": "76a914eaaeec4ad5df2a7d371f8ec0103cc199ec75c31d88ac", "addresses": ["1NPtfkem3FHLZprNFZRMkandEor73oQaUL"], "asm": "OP_DUP OP_HASH160 eaaeec4ad5df2a7d371f8ec0103cc199ec75c31d OP_EQUALVERIFY OP_CHECKSIG", "type": "pubkeyhash"}, "value": 0.00748223, "n": 1}], "hex": "01000000015a0f072e53796802088418695e2bc90382ae566970b4b6a321b9c06ab6bad6cf020000006b48304502210096173e1a853f59e5988240c2edce82ff6fae6fa9b5d8cb5f8d12f2275584886602203f3f85a4702ee50f0c59e4e8337a2104a1e7f41405c03a910a5e262ed5b6f3d70121036dc160ded218071bece2c5ef981e17e3566fa404f6b08cbb26e075b6287872c1ffffffff02eafd0100000000001976a914a96ac8c07a24923a48082ba06def898d760976fb88acbf6a0b00000000001976a914eaaeec4ad5df2a7d371f8ec0103cc199ec75c31d88ac00000000", "vin": [{"sequence": 4294967295, "scriptSig": {"hex": "48304502210096173e1a853f59e5988240c2edce82ff6fae6fa9b5d8cb5f8d12f2275584886602203f3f85a4702ee50f0c59e4e8337a2104a1e7f41405c03a910a5e262ed5b6f3d70121036dc160ded218071bece2c5ef981e17e3566fa404f6b08cbb26e075b6287872c1", "asm": "304502210096173e1a853f59e5988240c2edce82ff6fae6fa9b5d8cb5f8d12f2275584886602203f3f85a4702ee50f0c59e4e8337a2104a1e7f41405c03a910a5e262ed5b6f3d7[ALL] 036dc160ded218071bece2c5ef981e17e3566fa404f6b08cbb26e075b6287872c1"}, "vout": 2, "txid": "cfd6bab66ac0b921a3b6b4706956ae8203c92b5e69188408026879532e070f5a"}], "txid": "91570c6de526680a0db81f7a710cb5dad2857c8a5c8f49f2fa4ba3475382a71f", "blocktime": 1537873891, "version": 1, "confirmations": 11475, "time": 1537873891, "locktime": 0, "vsize": 226, "size": 226}