{"hash": "cf2407a4d35a90483ea8558f6015fd3c39785484d3d4cd72e8ac0e339eb02ba9", "blockhash": "0000000000000000001f76057863aec43deb6fa401d9628bb513d65a8098bfab", "vout": [{"scriptPubKey": {"reqSigs": 1, "hex": "76a91419cf647d6c1502cd9b29d69fabc132f39811a6d488ac", "addresses": ["13MULgZB5mm7jGUcXCzByGFfQUrsHZcNeq"], "asm": "OP_DUP OP_HASH160 19cf647d6c1502cd9b29d69fabc132f39811a6d4 OP_EQUALVERIFY OP_CHECKSIG", "type": "pubkeyhash"}, "value": 0.03, "n": 0}, {"scriptPubKey": {"reqSigs": 1, "hex": "a91401dda980d3488f5f057fecf8b3a9af6a8e8cce0e87", "addresses": ["31rt96AR6nBgzbGr6cbrVkFo58qSxSqaXK"], "asm": "OP_HASH160 01dda980d3488f5f057fecf8b3a9af6a8e8cce0e OP_EQUAL", "type": "scripthash"}, "value": 0.07193457, "n": 1}], "hex": "01000000000101f746dd4eda347b3a6cdc8902678a74e4ad11a54de5ced9d7db1cd7c5111a4cde0100000017160014e2969ab49a9a3a331a0e66c493055a4e9fbeeeb2ffffffff02c0c62d00000000001976a91419cf647d6c1502cd9b29d69fabc132f39811a6d488ac71c36d000000000017a91401dda980d3488f5f057fecf8b3a9af6a8e8cce0e8702473044022019931dbe19178763c9748206c536745841b80064d6e7a42a8a8c32b2c5e9198802207e34092c3d7eef48dae7497a11d1904dfe562ea27a654fde83b4f3258d522bac012102bcac251df9f051cfb78ecd444e79d32a2547ffcf48b1941e820660e9fb026fe500000000", "vin": [{"txinwitness": ["3044022019931dbe19178763c9748206c536745841b80064d6e7a42a8a8c32b2c5e9198802207e34092c3d7eef48dae7497a11d1904dfe562ea27a654fde83b4f3258d522bac01", "02bcac251df9f051cfb78ecd444e79d32a2547ffcf48b1941e820660e9fb026fe5"], "sequence": 4294967295, "scriptSig": {"hex": "160014e2969ab49a9a3a331a0e66c493055a4e9fbeeeb2", "asm": "0014e2969ab49a9a3a331a0e66c493055a4e9fbeeeb2"}, "vout": 1, "txid": "de4c1a11c5d71cdbd7d9cee54da511ade4748a670289dc6c3a7b34da4edd46f7"}], "txid": "915bc18d99edce42f0b776707dc99e664da5f33d85644be01ed3dfa326bd095f", "blocktime": 1537873891, "version": 1, "confirmations": 11478, "time": 1537873891, "locktime": 0, "vsize": 168, "size": 249}