{"hash": "91614b03397d70cfc71d7a099f73252dfd8c86980c962d6ca0877b6f56a1269f", "blockhash": "0000000000000000000e13cef7c366c0283d82e591d1acd082e914b08063cdf1", "vout": [{"scriptPubKey": {"reqSigs": 1, "hex": "76a914d243e6abb9a60fbff430b421d2df4b7d59ec186088ac", "addresses": ["1LAnF8h3qMGx3TSwNUHVneBZUEpwE4gu3D"], "asm": "OP_DUP OP_HASH160 d243e6abb9a60fbff430b421d2df4b7d59ec1860 OP_EQUALVERIFY OP_CHECKSIG", "type": "pubkeyhash"}, "value": 0.00085636, "n": 0}, {"scriptPubKey": {"reqSigs": 1, "hex": "76a914d1fca506f176fb90b3ab2d75f10b573d835b870388ac", "addresses": ["1L9Jt9gZxptccWdfmDxL3wNhXD6eScXLdA"], "asm": "OP_DUP OP_HASH160 d1fca506f176fb90b3ab2d75f10b573d835b8703 OP_EQUALVERIFY OP_CHECKSIG", "type": "pubkeyhash"}, "value": 5.46e-06, "n": 1}, {"scriptPubKey": {"type": "nulldata", "hex": "6a146f6d6e69000000000000001f000000825ca3ff00", "asm": "OP_RETURN 6f6d6e69000000000000001f000000825ca3ff00"}, "value": 0.0, "n": 2}], "hex": "010000000127957b7fdf9eace5f0d5d701c03a0210cb898590b93bd25e27f4f5bc2e253cfa000000006b483045022100fde362c84c42c7b4ed1c52d3f5ea3b8562f679f64606c12146436fd7af0f4ab402205172751de7525c7ee947d452d09847110e0781c64e2f0cf5dd47f86e32dd1f6c01210271977291b74f1f5f5c42157e8aae804664eaaeccfd097918450d37f28fb94d77ffffffff03844e0100000000001976a914d243e6abb9a60fbff430b421d2df4b7d59ec186088ac22020000000000001976a914d1fca506f176fb90b3ab2d75f10b573d835b870388ac0000000000000000166a146f6d6e69000000000000001f000000825ca3ff0000000000", "vin": [{"sequence": 4294967295, "scriptSig": {"hex": "483045022100fde362c84c42c7b4ed1c52d3f5ea3b8562f679f64606c12146436fd7af0f4ab402205172751de7525c7ee947d452d09847110e0781c64e2f0cf5dd47f86e32dd1f6c01210271977291b74f1f5f5c42157e8aae804664eaaeccfd097918450d37f28fb94d77", "asm": "3045022100fde362c84c42c7b4ed1c52d3f5ea3b8562f679f64606c12146436fd7af0f4ab402205172751de7525c7ee947d452d09847110e0781c64e2f0cf5dd47f86e32dd1f6c[ALL] 0271977291b74f1f5f5c42157e8aae804664eaaeccfd097918450d37f28fb94d77"}, "vout": 0, "txid": "fa3c252ebcf5f4275ed23bb9908589cb10023ac001d7d5f0e5ac9edf7f7b9527"}], "txid": "91614b03397d70cfc71d7a099f73252dfd8c86980c962d6ca0877b6f56a1269f", "blocktime": 1537871767, "version": 1, "confirmations": 11491, "time": 1537871767, "locktime": 0, "vsize": 257, "size": 257}