{"hash": "91621bf591d332c29f1b2da0f97476877eea341fafce86f7ab5fa6dee0e202b3", "blockhash": "0000000000000000000dcc0f55137456b1a82d3642486a52398922ac4d620174", "vout": [{"scriptPubKey": {"reqSigs": 1, "hex": "a914ecae49013553abf2afd1de4da5d828ad9e4d0aa487", "addresses": ["3PGUBMwuKSwu32HtHoXgxJjzkj327btiGF"], "asm": "OP_HASH160 ecae49013553abf2afd1de4da5d828ad9e4d0aa4 OP_EQUAL", "type": "scripthash"}, "value": 0.75545072, "n": 0}], "hex": "010000000152daa6c6981c5387f99b4203b6e8fc28f9b053b901be041cf3d1a4dcb69050b6010000006b483045022100ffd39e9a6a7cd3180f46e52199c3388232f230d2445d86c3f42e71848e977c4102201e802d20f77810511570928cea86ad8838edafb9476e412cb3df3cb656275d3a0121034addaab6444832aa213eeff401c7bca6beb2700065be918dd3123e2756f1baf2ffffffff01f0b980040000000017a914ecae49013553abf2afd1de4da5d828ad9e4d0aa48700000000", "vin": [{"sequence": 4294967295, "scriptSig": {"hex": "483045022100ffd39e9a6a7cd3180f46e52199c3388232f230d2445d86c3f42e71848e977c4102201e802d20f77810511570928cea86ad8838edafb9476e412cb3df3cb656275d3a0121034addaab6444832aa213eeff401c7bca6beb2700065be918dd3123e2756f1baf2", "asm": "3045022100ffd39e9a6a7cd3180f46e52199c3388232f230d2445d86c3f42e71848e977c4102201e802d20f77810511570928cea86ad8838edafb9476e412cb3df3cb656275d3a[ALL] 034addaab6444832aa213eeff401c7bca6beb2700065be918dd3123e2756f1baf2"}, "vout": 1, "txid": "b65090b6dca4d1f31c04be01b953b0f928fce8b603429bf987531c98c6a6da52"}], "txid": "91621bf591d332c29f1b2da0f97476877eea341fafce86f7ab5fa6dee0e202b3", "blocktime": 1537870268, "version": 1, "confirmations": 11516, "time": 1537870268, "locktime": 0, "vsize": 190, "size": 190}