{"hash": "066355a8a93c8bde50bc5d11ee1b6c048f5c2285f52a2ce9e5a43518a364571b", "blockhash": "0000000000000000001cda96e906b7601b7a6fb1a3b62bca570a9e5d8f4b3de1", "vout": [{"scriptPubKey": {"reqSigs": 1, "hex": "a9146ac3adc4a21fac38d863c9b62acd8f91a142fbc587", "addresses": ["3BRXxssSdTAvtaneHRVCXGiN7gMqjjtoQS"], "asm": "OP_HASH160 6ac3adc4a21fac38d863c9b62acd8f91a142fbc5 OP_EQUAL", "type": "scripthash"}, "value": 0.00106447, "n": 0}, {"scriptPubKey": {"reqSigs": 1, "hex": "a914414cec0fc72a9410f6836edaf08de1aa3b2a321c87", "addresses": ["37eHzewnAFRR2SVZu8rZM3nBsmuE2XBU7D"], "asm": "OP_HASH160 414cec0fc72a9410f6836edaf08de1aa3b2a321c OP_EQUAL", "type": "scripthash"}, "value": 0.25070884, "n": 1}], "hex": "01000000000101a59a0170f8c95c6c2d9d0c3f8d478cbd9bf283082e6d5d4adcddcd1825a83eb30100000023220020ce74cde37cfb8dd71d0179287e12fc721ee236ce3c89c2745bcd365b39807eb3ffffffff02cf9f01000000000017a9146ac3adc4a21fac38d863c9b62acd8f91a142fbc587248d7e010000000017a914414cec0fc72a9410f6836edaf08de1aa3b2a321c870400483045022100addfdbe14ac27e4d39b59b4b0cc1acd13e7b00527200e635358524d0d5f9b334022018f79fe5544a74d4806d20a367e95d98758d2e164a8432a22258c303221198da014730440220722f6f48d1d96405bc556326f9d7057b527ec3d67b4b74c31e76fc02bb50e04e02202241b1ffddec6b794d1a051beb1ff0f5f01a625a867a58424c0b27bf7e670a920147522103ada901d90d5a76319a60f228e0b1bbc84b1d9a87238550bae5d5d190067b66712103871fc2ca08e6950b38867e8e6a0e94ee625223d3aa0df5c65f414c6d784467e252ae00000000", "vin": [{"txinwitness": ["", "3045022100addfdbe14ac27e4d39b59b4b0cc1acd13e7b00527200e635358524d0d5f9b334022018f79fe5544a74d4806d20a367e95d98758d2e164a8432a22258c303221198da01", "30440220722f6f48d1d96405bc556326f9d7057b527ec3d67b4b74c31e76fc02bb50e04e02202241b1ffddec6b794d1a051beb1ff0f5f01a625a867a58424c0b27bf7e670a9201", "522103ada901d90d5a76319a60f228e0b1bbc84b1d9a87238550bae5d5d190067b66712103871fc2ca08e6950b38867e8e6a0e94ee625223d3aa0df5c65f414c6d784467e252ae"], "sequence": 4294967295, "scriptSig": {"hex": "220020ce74cde37cfb8dd71d0179287e12fc721ee236ce3c89c2745bcd365b39807eb3", "asm": "0020ce74cde37cfb8dd71d0179287e12fc721ee236ce3c89c2745bcd365b39807eb3"}, "vout": 1, "txid": "b33ea82518cddddc4a5d6d2e0883f29bbd8c478d3f0c9d2d6c5cc9f870019aa5"}], "txid": "9163fcd446900f6f13a83393929eebc52cce53e1e7c80a22b35280bdad8efb13", "blocktime": 1537873282, "version": 1, "confirmations": 11484, "time": 1537873282, "locktime": 0, "vsize": 206, "size": 371}