{"hash": "91676641a3ce7b9504cead8611061ef42172432d0d3773b62cb3a221c7064e3b", "blockhash": "0000000000000000001cda96e906b7601b7a6fb1a3b62bca570a9e5d8f4b3de1", "vout": [{"scriptPubKey": {"reqSigs": 1, "hex": "76a9144a0f1e2f2b0d7daeec5265f10bbbbe08ed725e8988ac", "addresses": ["17kb7c9ndg7ioSuzMWEHWECdEVUegNkcGc"], "asm": "OP_DUP OP_HASH160 4a0f1e2f2b0d7daeec5265f10bbbbe08ed725e89 OP_EQUALVERIFY OP_CHECKSIG", "type": "pubkeyhash"}, "value": 0.003069, "n": 0}], "hex": "0100000001bec161403450c18d7f9e80fb221b60a5cdc46f5c1ce366f7711bb077e7ba6f9c000000006b483045022100a7abbbd391d46956c87511eb8c427674feb7420345a6042463270b036648e19d02207c675c2c764325ebb42662c12d0519222937a48996cacb263d59867b3d5b46540121039caba7ffdf595cfe4485de32fd7a431271c4d6c4c8f34ee605ebc314d4e46157ffffffff01d4ae0400000000001976a9144a0f1e2f2b0d7daeec5265f10bbbbe08ed725e8988ac00000000", "vin": [{"sequence": 4294967295, "scriptSig": {"hex": "483045022100a7abbbd391d46956c87511eb8c427674feb7420345a6042463270b036648e19d02207c675c2c764325ebb42662c12d0519222937a48996cacb263d59867b3d5b46540121039caba7ffdf595cfe4485de32fd7a431271c4d6c4c8f34ee605ebc314d4e46157", "asm": "3045022100a7abbbd391d46956c87511eb8c427674feb7420345a6042463270b036648e19d02207c675c2c764325ebb42662c12d0519222937a48996cacb263d59867b3d5b4654[ALL] 039caba7ffdf595cfe4485de32fd7a431271c4d6c4c8f34ee605ebc314d4e46157"}, "vout": 0, "txid": "9c6fbae777b01b71f766e31c5c6fc4cda5601b22fb809e7f8dc150344061c1be"}], "txid": "91676641a3ce7b9504cead8611061ef42172432d0d3773b62cb3a221c7064e3b", "blocktime": 1537873282, "version": 1, "confirmations": 11482, "time": 1537873282, "locktime": 0, "vsize": 192, "size": 192}