{"hash": "eea68f8395488bbd2ec2238136e1e26913b99d38ae2c71e660e2aff18dedeb3f", "blockhash": "0000000000000000001e0dab787dd257d1dbfcb92a98c2207d5e1078be1f4165", "vout": [{"scriptPubKey": {"reqSigs": 1, "hex": "a914e05f4cd1e672ee702a3bc4db95feb190498bcc8d87", "addresses": ["3N9PT5YszgKUPZtS2oQ1udjijtQTmFFkVi"], "asm": "OP_HASH160 e05f4cd1e672ee702a3bc4db95feb190498bcc8d OP_EQUAL", "type": "scripthash"}, "value": 0.00325, "n": 0}, {"scriptPubKey": {"reqSigs": 1, "hex": "a914623bc71aae031839add7304b814c43bfc2e9051487", "addresses": ["3AeRkmrFg14XjcZxLiKsxWCsmmwrcjXezc"], "asm": "OP_HASH160 623bc71aae031839add7304b814c43bfc2e90514 OP_EQUAL", "type": "scripthash"}, "value": 0.05747851, "n": 1}], "hex": "0100000000010159eb516a2ed49175bde1110d232c4dd82a15d38415fb4bb9bd101e32e2c58ff501000000232200208b29cdff4436c9fd09e2bb3722ba65a440fbfc66964301c4902832d27a4f2b12ffffffff0288f504000000000017a914e05f4cd1e672ee702a3bc4db95feb190498bcc8d878bb457000000000017a914623bc71aae031839add7304b814c43bfc2e90514870400483045022100cbb9557b9264b2b383cf306da968c477ac485a497f033f3fefad5d8ae434a3e502203ae1bb4c4dc3fe25e88cd934c69adc81248c4d538940a49cae313b376076c7bc014830450221008cb79ba90eb3d38eda79312945bc630634bbe8ae53c61f81189b8e217f3eb91f022078218aa3a55b972a2497f1acb40ee19749a3c5ecbf1e79858632965bf6fc20e101475221036b4dd4bc8657eba03286a3a3f74fb599cc514153059dbb023dfb32b0268d8daf21032f41ceae151fd1826ff863e0017da5158aa4c8f6dc701d11b13794695089210b52ae00000000", "vin": [{"txinwitness": ["", "3045022100cbb9557b9264b2b383cf306da968c477ac485a497f033f3fefad5d8ae434a3e502203ae1bb4c4dc3fe25e88cd934c69adc81248c4d538940a49cae313b376076c7bc01", "30450221008cb79ba90eb3d38eda79312945bc630634bbe8ae53c61f81189b8e217f3eb91f022078218aa3a55b972a2497f1acb40ee19749a3c5ecbf1e79858632965bf6fc20e101", "5221036b4dd4bc8657eba03286a3a3f74fb599cc514153059dbb023dfb32b0268d8daf21032f41ceae151fd1826ff863e0017da5158aa4c8f6dc701d11b13794695089210b52ae"], "sequence": 4294967295, "scriptSig": {"hex": "2200208b29cdff4436c9fd09e2bb3722ba65a440fbfc66964301c4902832d27a4f2b12", "asm": "00208b29cdff4436c9fd09e2bb3722ba65a440fbfc66964301c4902832d27a4f2b12"}, "vout": 1, "txid": "f58fc5e2321e10bdb94bfb1584d3152ad84d2c230d11e1bd7591d42e6a51eb59"}], "txid": "916943be96de5552024998ece2b3994550dbc7e11737fba21c70f6227ef1feed", "blocktime": 1537872475, "version": 1, "confirmations": 11487, "time": 1537872475, "locktime": 0, "vsize": 206, "size": 372}