{"hash": "916dece619de7541cd95dc87e750c46d8293291eea3abf9b941c309f5eda598a", "blockhash": "0000000000000000000e13cef7c366c0283d82e591d1acd082e914b08063cdf1", "vout": [{"scriptPubKey": {"reqSigs": 1, "hex": "76a914fcbeea19e87f497bfa636682dfc03a6d57abf20188ac", "addresses": ["1Q3PzK11FshHBemNXBXc4jyDhh46xDdMxY"], "asm": "OP_DUP OP_HASH160 fcbeea19e87f497bfa636682dfc03a6d57abf201 OP_EQUALVERIFY OP_CHECKSIG", "type": "pubkeyhash"}, "value": 0.0004458, "n": 0}, {"scriptPubKey": {"reqSigs": 1, "hex": "a91465219c2488162e91547c690a34d87c789702cfa487", "addresses": ["3AukSBFwRapn4gabfiyQwKQ4x6g6FXR2Mv"], "asm": "OP_HASH160 65219c2488162e91547c690a34d87c789702cfa4 OP_EQUAL", "type": "scripthash"}, "value": 0.01578529, "n": 1}], "hex": "0100000003288360fb6941a8c1f36245ee77e5e1e4d87f2a984653614dafa631705bffc88b000000006b483045022100d1d7f61930050275a1ed20bee492acaf04a6dbc68eb4390cef3d3f6a8c2dbe3202201e2ebeaad7dc38ffa8b9f08106a5664b746600e974b226a8b5b6557bfea46ba9012103dfb329d92c32685ea5bc6ac85200705cf1b18e48f1b1157be835180161ce3c33ffffffff4d9752f1f7a933b671d41e3b1de96c48fff2740eb23a181b19bfbac85bb7d4d9000000006b483045022100de68210cb6fab001bbdb132c94e239cf6989fe4e47a6ae5b10493d94b24f9f9a0220133bb675510d0f37ec0412180bc6ee4f64c349cfba347c4b5f796e99f7550d44012103879e3d13d2878861b3c1cb68306feb78591073e90a7a235d3d5b976673200afaffffffff9e4e0d728996d0d32f94b912cc14fca7a9470637edb1b4de35f44356a5e671e1000000006a47304402207a0bec4acfab3081758479e63fd2d48dd073d090c36d5a887af46304a2381d9b02202a22e36c44dee1d601016cbcb84d50df2ad5868533a72207efe0074de79fde2601210353fcaac1fc44aaff39be16b953bd7c611d909401043777fdd9c4df957d94ec80ffffffff0224ae0000000000001976a914fcbeea19e87f497bfa636682dfc03a6d57abf20188ac211618000000000017a91465219c2488162e91547c690a34d87c789702cfa48700000000", "vin": [{"sequence": 4294967295, "scriptSig": {"hex": "483045022100d1d7f61930050275a1ed20bee492acaf04a6dbc68eb4390cef3d3f6a8c2dbe3202201e2ebeaad7dc38ffa8b9f08106a5664b746600e974b226a8b5b6557bfea46ba9012103dfb329d92c32685ea5bc6ac85200705cf1b18e48f1b1157be835180161ce3c33", "asm": "3045022100d1d7f61930050275a1ed20bee492acaf04a6dbc68eb4390cef3d3f6a8c2dbe3202201e2ebeaad7dc38ffa8b9f08106a5664b746600e974b226a8b5b6557bfea46ba9[ALL] 03dfb329d92c32685ea5bc6ac85200705cf1b18e48f1b1157be835180161ce3c33"}, "vout": 0, "txid": "8bc8ff5b7031a6af4d615346982a7fd8e4e1e577ee4562f3c1a84169fb608328"}, {"sequence": 4294967295, "scriptSig": {"hex": "483045022100de68210cb6fab001bbdb132c94e239cf6989fe4e47a6ae5b10493d94b24f9f9a0220133bb675510d0f37ec0412180bc6ee4f64c349cfba347c4b5f796e99f7550d44012103879e3d13d2878861b3c1cb68306feb78591073e90a7a235d3d5b976673200afa", "asm": "3045022100de68210cb6fab001bbdb132c94e239cf6989fe4e47a6ae5b10493d94b24f9f9a0220133bb675510d0f37ec0412180bc6ee4f64c349cfba347c4b5f796e99f7550d44[ALL] 03879e3d13d2878861b3c1cb68306feb78591073e90a7a235d3d5b976673200afa"}, "vout": 0, "txid": "d9d4b75bc8babf191b183ab20e74f2ff486ce91d3b1ed471b633a9f7f152974d"}, {"sequence": 4294967295, "scriptSig": {"hex": "47304402207a0bec4acfab3081758479e63fd2d48dd073d090c36d5a887af46304a2381d9b02202a22e36c44dee1d601016cbcb84d50df2ad5868533a72207efe0074de79fde2601210353fcaac1fc44aaff39be16b953bd7c611d909401043777fdd9c4df957d94ec80", "asm": "304402207a0bec4acfab3081758479e63fd2d48dd073d090c36d5a887af46304a2381d9b02202a22e36c44dee1d601016cbcb84d50df2ad5868533a72207efe0074de79fde26[ALL] 0353fcaac1fc44aaff39be16b953bd7c611d909401043777fdd9c4df957d94ec80"}, "vout": 0, "txid": "e171e6a55643f435deb4b1ed370647a9a7fc14cc12b9942fd3d09689720d4e9e"}], "txid": "916dece619de7541cd95dc87e750c46d8293291eea3abf9b941c309f5eda598a", "blocktime": 1537871767, "version": 1, "confirmations": 11495, "time": 1537871767, "locktime": 0, "vsize": 519, "size": 519}