{"hash": "8b14c610054ac2e1360f7484cce753d3e4013f5cb3ec195704cf0eb07324f6d2", "blockhash": "0000000000000000000e13cef7c366c0283d82e591d1acd082e914b08063cdf1", "vout": [{"scriptPubKey": {"reqSigs": 1, "hex": "76a914c885e781e6ee0c673f25792a92011ef1dcadd9cb88ac", "addresses": ["1KHGZChhjPwnpkbhAFK2mUdsSA4Mcg9qY3"], "asm": "OP_DUP OP_HASH160 c885e781e6ee0c673f25792a92011ef1dcadd9cb OP_EQUALVERIFY OP_CHECKSIG", "type": "pubkeyhash"}, "value": 0.011096, "n": 0}, {"scriptPubKey": {"reqSigs": 1, "hex": "a914295cad8e3fe8d9b03fc5caad3a83258a4f8a7faf87", "addresses": ["35TienXdF4PZDNoSxxjM7cGAhjBeweYtfb"], "asm": "OP_HASH160 295cad8e3fe8d9b03fc5caad3a83258a4f8a7faf OP_EQUAL", "type": "scripthash"}, "value": 0.00579244, "n": 1}], "hex": "02000000000101c92e2fcdc5011634d7c076fb640ab97b270f945434c8b586c563c8e6aec5c6c9010000001716001422a7774aba7f7d6a24b7f8cc2e8b2cf01011f351ffffffff0260ee1000000000001976a914c885e781e6ee0c673f25792a92011ef1dcadd9cb88acacd608000000000017a914295cad8e3fe8d9b03fc5caad3a83258a4f8a7faf8702473044022055cd56ae409e4ccfc08634a0b695991305375b6eff31d1bff1b597c364c6c8280220372bb8f9f13f4729674d6ac515dd8d300e5e93ad0fb928e929680c8a86ae527d0121029d89d7465099b1d189aad0737c3d856db83fa8185a1bdb9a66d818fbc429c26800000000", "vin": [{"txinwitness": ["3044022055cd56ae409e4ccfc08634a0b695991305375b6eff31d1bff1b597c364c6c8280220372bb8f9f13f4729674d6ac515dd8d300e5e93ad0fb928e929680c8a86ae527d01", "029d89d7465099b1d189aad0737c3d856db83fa8185a1bdb9a66d818fbc429c268"], "sequence": 4294967295, "scriptSig": {"hex": "16001422a7774aba7f7d6a24b7f8cc2e8b2cf01011f351", "asm": "001422a7774aba7f7d6a24b7f8cc2e8b2cf01011f351"}, "vout": 1, "txid": "c9c6c5aee6c863c586b5c83454940f277bb90a64fb76c0d7341601c5cd2f2ec9"}], "txid": "917f87e84a92ae18830d182d33a18da491c150f251fe051cbab4d230d35ade88", "blocktime": 1537871767, "version": 2, "confirmations": 11490, "time": 1537871767, "locktime": 0, "vsize": 168, "size": 249}