{"hash": "d295d6638270120861d36fc99550550979b1652145c13a63740d2d05594f7977", "blockhash": "0000000000000000001e0dab787dd257d1dbfcb92a98c2207d5e1078be1f4165", "vout": [{"scriptPubKey": {"reqSigs": 1, "hex": "a914434f1a3fceb8b4ed74d5c00191f66e3608dfe5b587", "addresses": ["37puxY6aAQwx2r76x1WrYksHQA4C1F99as"], "asm": "OP_HASH160 434f1a3fceb8b4ed74d5c00191f66e3608dfe5b5 OP_EQUAL", "type": "scripthash"}, "value": 0.01011471, "n": 0}, {"scriptPubKey": {"reqSigs": 1, "hex": "76a914f29f138f316c0fb9e3058165929a58d44db8678988ac", "addresses": ["1P7s6FE48ZTEA6xjemHtrb3YNV1EL7YZL5"], "asm": "OP_DUP OP_HASH160 f29f138f316c0fb9e3058165929a58d44db86789 OP_EQUALVERIFY OP_CHECKSIG", "type": "pubkeyhash"}, "value": 0.0024686, "n": 1}], "hex": "0200000000010287411bbf370b413f6c573b6a07490daaa2401274364cbe6a13cc73716a3e0ae90a00000017160014adde63903cd7b0d9a6b5d4d2966f1be98932df3cfeffffffbe7811b2341ba2475462a088c28dead91ae1eb7f12dd6da4eee58b44b48bbd2a0100000017160014ec79cbfa552d679b9baa39884dd3b267b7251cc9feffffff020f6f0f000000000017a914434f1a3fceb8b4ed74d5c00191f66e3608dfe5b5874cc40300000000001976a914f29f138f316c0fb9e3058165929a58d44db8678988ac02483045022100f551a7291419a1f7497b85d28953d9bbb003e6b9e83701e8637429d95fdae1b3022050b413222433ba5f9a02e7861d87be5b081be7c388185daadf912e29e0be2caf01210377f83688cd622c2cdbaf6e778e75cde45766b403b8b9eeb25c8e6f5cfe1762dc02483045022100a521ad1f7d41c5752aaec4c3c53b9868e2d9d8e3a905f697829b4506c676d132022063afd28cef980a952e6563c6ac2117acb3fc7f96e594f5508002e4dfbb4661a301210301562b27d8f8ff988a113d710e79b740b84ee56a7e19e9d54345885ffdc80c0212490800", "vin": [{"txinwitness": ["3045022100f551a7291419a1f7497b85d28953d9bbb003e6b9e83701e8637429d95fdae1b3022050b413222433ba5f9a02e7861d87be5b081be7c388185daadf912e29e0be2caf01", "0377f83688cd622c2cdbaf6e778e75cde45766b403b8b9eeb25c8e6f5cfe1762dc"], "sequence": 4294967294, "scriptSig": {"hex": "160014adde63903cd7b0d9a6b5d4d2966f1be98932df3c", "asm": "0014adde63903cd7b0d9a6b5d4d2966f1be98932df3c"}, "vout": 10, "txid": "e90a3e6a7173cc136abe4c36741240a2aa0d49076a3b576c3f410b37bf1b4187"}, {"txinwitness": ["3045022100a521ad1f7d41c5752aaec4c3c53b9868e2d9d8e3a905f697829b4506c676d132022063afd28cef980a952e6563c6ac2117acb3fc7f96e594f5508002e4dfbb4661a301", "0301562b27d8f8ff988a113d710e79b740b84ee56a7e19e9d54345885ffdc80c02"], "sequence": 4294967294, "scriptSig": {"hex": "160014ec79cbfa552d679b9baa39884dd3b267b7251cc9", "asm": "0014ec79cbfa552d679b9baa39884dd3b267b7251cc9"}, "vout": 1, "txid": "2abd8bb4448be5eea46ddd127febe11ad9ea8dc288a0625447a21b34b21178be"}], "txid": "91804cde21e9798cf2a693e627cee36ca1db68744705baa4904bcc11f795895e", "blocktime": 1537872475, "version": 2, "confirmations": 11487, "time": 1537872475, "locktime": 542994, "vsize": 259, "size": 422}