{"hash": "918356953c351627958f54869b8f1fc55f3fbe93b170d5b29913cda5daac9de5", "blockhash": "0000000000000000001f76057863aec43deb6fa401d9628bb513d65a8098bfab", "vout": [{"scriptPubKey": {"reqSigs": 1, "hex": "76a914bfabbceedfbf9cc651a09148ba2de75b6008ba8988ac", "addresses": ["1JUToCyRL5UwgeucjnFAagKs4v1YqhjT1d"], "asm": "OP_DUP OP_HASH160 bfabbceedfbf9cc651a09148ba2de75b6008ba89 OP_EQUALVERIFY OP_CHECKSIG", "type": "pubkeyhash"}, "value": 0.87338655, "n": 0}], "hex": "020000003262b0bde2744491caf624554c7e4651e6be4b00e66eed51cbcdc54acfaad3dc7e030000006a4730440220559f73bcdcf46a5b083351d29f39c5a302881712b74c431fb50be4eb5a2f73e102205794df51af82ff437ee115fbc6fc7c0bf78b7994b01b47672f5cc64471871892012103c5bb4cc511194e61f48a1d7fac01f275e14b509ff7a1313da0be176a24bff381ffffffffee2334214da82beeb3082e04ccc3e328ceeec2622aa2759a1c4d7b10172293470d0000006a47304402205accecc67b7e8322e1c9fdffe69158dd4f55463e76e6c27aad4a75ecbdf0f7bd022038b16cfea4d1036e692381803323ed1fbd75dd158992f5c4762d6d932ae1de4b012103cb2b9370e10353428887a72e7b494d8ba2f24b7f000d12f410582db1a0e30b4affffffffee2334214da82beeb3082e04ccc3e328ceeec2622aa2759a1c4d7b10172293470c0000006b483045022100b1427106f01a9ce69ccc46553140f1f01a146acac2d4f69f5ac622b3441725100220767420c94a8d9bebdffc13adf78178ad22fd05efebb7b6a5e9d3c6ff2eaf194301210334c5b9bcd9360fe9ccd9e36019dc90485a6e9ca0e0ab96aa6427aaee85e52cd5fffffffff85193ea7437681962790d6773688ad9c199b1c7437437e2a888335effe10deb1a0000006a47304402200f7229d523d47fbf4c7c4fc17e14130ea45d1b48efd6a4962a71fd9eb32e4e420220258b6c7dc91502e371c4c3ce7287f568aabd2f96037cd2fa25301042e36fd82e0121033a18bb725aa1721ed6613ca8b17a17ab8cf2fb459c81eb64f383efecc577ec3fffffffff31b4417731deb0dd529b122496575d7346eac20093de990e9d5284d2014aff05000000006a4730440220122c67a9f1cc649c32f48fcd8b9951c78f6b03224509e2dc1f70d18d1b70b9c002201930cc476c67eb59702376a6c59a88dfdd08d0c7556df81682e952350e9850260121025859c677d361908052cc693faaf5002d4d2f6103736df19cd6a2b78f3e9c2979ffffffffa45ed24cb154359ceffaccb46b3a5cedd702540102128089ac342754c0cd2995010000006b483045022100cc4a02ddb755a5d3ff28e8aa8a5e594e1f81268a97c41f73c4a40db99197b40d02205dfd1db908c8b86ff2a2502a3e4e8bb07e34add108c717bfb7a70567ade01b73012102b8f6b218438aa8f8d92aa6eb6603adbc8b0cce6f11b1824ee9001d17d2004fbdffffffffee2334214da82beeb3082e04ccc3e328ceeec2622aa2759a1c4d7b1017229347070000006a473044022027922ac38bfd6ebc070865f04b3a0abeb5c004736dbc35ffae8ec05aec62368202203db3a83ddf92ef3b800084ab28c0400dd099f0d0ff39afd6aa2793edfbf43e33012103255f009ed1c1792110a31e9d1edc8819b04a99281f35eedc55c95fa99ba6f42fffffffff9535d11aee1db6e675d15266e79ed1bc31f0c8aea581b13ad0cf97579a8014ac010000006a4730440220409aee6580cfe8caf034a09dc3d65479f9c2534568783988599e50279e417d0902207b032d4f2c05083dbf0c64564375e4afa68aff1cc8f2fda01012c4e4c847132d012103f80530e0d0be7892e747a39f740452af2b254dae8dcba6d2ec15d4d93ed4a2adffffffff94d7ff673777f042345617cfc7c3b505de1f6501f8a91b12f92406976a8f9742010000006b483045022100b5fe319795c5f6116667d8319a3c79e0c70ea2fdeda94fe53b5eb80f41c58db802202ddfc6ff61199dac0302a8d2ca4d7a72498483412816baff6d89d441ef42f2b5012102c211025d85f45af6ceece05d5fe439ba40f6c8486a9fafedc1c2a48da72d1dbcffffffffee2334214da82beeb3082e04ccc3e328ceeec2622aa2759a1c4d7b1017229347040000006b4830450221008c7b9b7ec2441713d399e9b5e23f36e97e0713ddabc42b8cf663cde883bf55b5022059fe0a53e9e48fdfbfc2f7de614a94038d3e5e90c506ee85970aa07c7b123f1501210334fdde3dd0843f1666b375e1a72d3a0a334dd0c81ab67010c9e2e99798d346f3ffffffffe0f079869734cf5a04bce92a13c79954a23b9931f069f49f91995165ff689701010000006a473044022011b7f12b912ecaccc9f8d50599c12480059432d3048383de7d0e96a111a29132022072b917f700308ecd5baa10f8f0ba7f96a850d32cbb9c1920bfa946b00411df7a0121034fd8295c4e624a3d088014966565bd57cc36f850bd735997e6067092815d5e18ffffffff82acc83b87e82c1eed6a25f6668847c13b30d4196330481ed12e353138fb1c5e0e0000006a47304402204305fe0a021f14fc605cf60ac75eae27b2a0e9a91db7b986adc32d3887e7eaca022019b9194cd475b8b4f24eb404f1dd20f901538c3f0f60aa507d1cfb1b62e954af012102e429b309c024cbb14b4599df685b250906eae547cd69d5617c83fba9116b433affffffff6ef22b07769b81d38ab74908eb9039feafdff720c84d02e171f55b840b71308d040000006b483045022100b2bb8b8606f4a747555b27a3efb264fc5d6bf6e8680e882e351243b0951dea7802204c96f9c9e4df9fb08acd09e957bf7310276723201d9c6d7bf5d96c7818493b5f01210394b5eb64f795bc1b261cb743e21497695ffcd7e6a6120c6a4470146de46a77deffffffffb41c843e27f5fb428b40e4ec26b178a8dc98a6261707b657836f801eb24ed1b5560000006a47304402207b53e8a36bf3480f011757d4c5fd0e15de6a987fa3978975adcf5bd6c41b47030220020583c2115778d60f91966db86f228aac45155f5b3817b0000e4b87e7f94485012103137c1faa2eebece86694a21c391963f3304da60fd090815f473ed4bcf04277c7ffffffffe0ae8186522e44bc4de6e9f8168b409803ff67fbf5bdd33633dcde5068f7152d000000006a473044022036b95e5f3f3710ea7363b38b154c7cd6ff1b4bdce599f2271754d10c86a4140002201a6d0fc1a5e0a27e633e3c814e5cb924af677f5d30ae0d8df27a7223c09f6e1101210296a58372861b16d9532687eadcc3b2f28f7b84703304d2e3f01bdb7465d7dd03ffffffffd216db14b66adfaeee6d65f1688bc76ed8731d0c4ff79afbba221408988843a6060000006a47304402206bf1c009b6f7c38fcf52b16648a700d3675ee53ba5ae572b7443fb9ee66a3304022054db1002157d7794a1c283586532ede11c7fd073c5ed4fe007d95990e43c5c50012102a22461c9efa7a48b7ea90f2adaeee1920a34fb7020d57947e7f4c874c4d45971ffffffff9f0905014e62c4213e65d1aa4d9f6cc911ecba4fbb47f0356a60ee216ff86561030000006a473044022029aabfa3b2f69d244de43d237c8aaf446ce5d3233e9518346fb894907780d5ba022033bc46818e8fb58c7645ca5c3716f6fadb27c5946034480f476101f60e1819ba01210286c7fcdf7154a5cdcf9342a0b4955026243cf2b696d02f208b9d375dc329e4dcffffffffb8b9a2a307d2aa752169c73eccda86ad77810fc164d46bc3de78bf09dcb601eb000000006a47304402201f486a4213ec5a72ff5ddd6936f938d89fd1924a70d1c945c579415c6fe26efa0220352cfb33b699998846e1c8a4a60efc751cbc4f5290cda3119541463fe73cb3380121021f356e427d2a10916b87d3056feb65e25ec4aad0bacd817579bb0a87478feaa6ffffffff4d0ca40e312b79c9c3fb3f94aaecf6c02c2e69beb127202e9d1e96141878ff52000000006a47304402206c3e2f7acfdd293569637aafe402b80116107132c603bbb7c01b386a7bae893f0220144c685f11d15d0e9e9956f66488b85492c11503d36e59b4b02c967891cfe7bb012103f515323728319abb9d4de722dc0f93cb533170a2accf6bed816efea21d275deeffffffffa5db520fc7efb432684ae0c06d9e157fc86ffd8648ea5ed4dd18682cb0b40842000000006b483045022100b66ed2cac6ab8bfefcf6e72feff45e682ab36a5c071e5727a5e540f37476afcc02207a9790645bd32aecc2fe158f44accd7d059aab3104c4de629c5142b945cc6509012103e2b9764a2fc6fec1d649f7b19b5fcdbcaa83e52e448c30af48bf7cb44c31adb8ffffffff4a1e9869b7933c252553402ed3d92ba7dddffb374c134cc58c778c3e3ed5a11e010000006b4830450221009acb2578b513e195a4a1daaf6c351770acca2e5946ef3ee35c2b1c80ec36025f0220099c5c8e135d4c6007fe8a3f7419bde65ec654afc2135bfb84cf0d924e2b7ca701210310165fbd7736e66de5df80e705a9e7cb0f4412e93ddc4235e45a1a9692100d56ffffffffefdc1e10c966b73b32a57a0bc2ab33f8978488f8c4cc73ce72e6fc56ef846bbec30100006a47304402206a945c71e4948c58b8d67ea31fc2563614c4d767c953b5a228fc84c93508494902204fc83cc81658f7ecf57949850a22e40b193ecb43354c5da34cf78d086fe7db3b012103cb953b1485fcd728c781a2abd75ff7fcff4954216b58261ebd9dc5be44d55510ffffffff2f56a5f8e2dc93d6be06931c29baecd0c5a5ea885bd4699158c728085ca9bd46200000006b483045022100ddce27cb22015454deae6a2b89954b321c1b33abdc90c72c2edee81930f19a480220709419889f73b169762110688f7741f53391af31a16a98f0adb221bf2b459748012103d4b3fb5b0fc7add574d033c10a40d9bd3a378e876d70979f3543ea184563fbb8ffffffff728337134fd63ba533bf2734595f28e89d39e6bc08489984edfbe17bb5cecb58000000006b483045022100b324caf736a479554bf4312f35e4ebc075095b6edbafe6109b0d4c0b4142f15002205b22fede5f8d6e6689eccec29668168caa6418b7312ac991b2b302e5e18f7eea01210254748d1cf13c0d1e3cba82dd3fe32b9026a95feb9eaddc9119f3d568edb61accffffffffefdc1e10c966b73b32a57a0bc2ab33f8978488f8c4cc73ce72e6fc56ef846bbed90000006b483045022100a9bf1aed51735f06d4b4520741a13a1e78eb068f0b3d26e43ef6bad8c2a6741702206cb4e8eb3d3271500e6ab4f7a651e88146fdfe51540db343a8239d614c70fdf50121034a028d3e0233a015df98751e11be06fa462aa9511f80842a8656d744f82797b8ffffffffefdc1e10c966b73b32a57a0bc2ab33f8978488f8c4cc73ce72e6fc56ef846bbefe0000006b483045022100d84a1efda4cc45239ef0aba9dca6f565cf76497931e10c4374c8d6e878f0071402204d4851703e232f823f68342ea7bbeec3803e120abbe1df11deff3ef39cb48e81012103b4f7b0407848ca37aaed6e6e527c5d7d1f5b176b7cad3f5c12ae4ee24805d64effffffff6156f28031c0257a64bb46e7e36a03e05b1a1f47d2d908aac2d42e1d7d5ff2c9020000006a47304402203318c7c2d325573c04fb2e34a228ccc573e1fcb8f848ada36b7bbae36432c21102204c0398cd81ebd76f63614c19bfc2f6ba1e9622ae9f5865585c8257ad5f8d1581012102561cb09c70fc92abd92c8110a8e9043599d3ae6456015ee573a4e7878e542ff5fffffffff0dcbaef5c26dc83a52a0dbad2c4db87b6a658c4b49e158d401a4454cec7fc16010000006a473044022053954d76e22b17035f10c8d1d63bdbae9a739406bbf1a3d4c95720cda86279a002203e16cd2f92380d06a7a5dc4c61248d2f8d0512c1b61ece55e1283f71c342d238012103ecb5e0b5ec0caecbf3823d7bc576457a3963121f6dc474c8a543946e82484869ffffffff45bfdb24dfbf5924090b7510d0471460cc2be605ea482e3c8b14449a20f0157d060000006946304302203630c732c7cf4d86ad6143ca13c85fe167eac2738fd7d486451cc3c52a1d0344021f3f3a36e872043458f47eb00dfa44356404186786e17ad126b1e7667f49698001210330e3314addcd9d4064f7361cc65b6b4a11b3f6f3a22aae08de519ad45bc41061ffffffff202f0eac999c590dd7f687341006255445f54c1f0999b1f0c0b519730eba37ac000000006b483045022100db0fff87a0c5edb3c8a3e9f7cf2fd2fc41111ebef12d40f3a1450a5976fbd89802202b8596079c3797790cce02a08e943171f4013e09f660c150dc82b7600f10401001210264ee8677517eebce12dbafc7bc63e3f52ce2623940c4a46f6752e413b44f355affffffff6fdbeaf65d352b411b8e3b78074061ee662e721116896960dbb9974b368ee4d7300000006b483045022100b0f8ca7aa860c2cf7b30757f9113f253e777678b978fc67c5861e9e7d9c95e49022015f6a3aa0ec6285010f225ce9f8210f0858d9c65aa04c2a015a0db4c48d680210121028fcb59bc006194cf8003306e5984c60c8e409ab865a27fc0c89c6b3ec74dd9b9fffffffffd00a8e443394f64eb33ef2b88efd38f43f11f3a792616eb2beeda301645bad8000000006b483045022100a1cf00eb9dde306ddbdb2cd442391d89a6e7e20f34d5064fedcfab12c81a227c02207ae26a5e4c31822ebf518de98ed034d7893f449263e460d7e51e2856f824b8e90121029172ffca9fb03edcedbb6da20af8514ca0d868b60e489f9989c7e28eb5b2275fffffffffb9ccd495840860b60fb5d2d471c6a349e308559c13d4608eaf4145174139874b010000006a47304402203408971813669dae2537799fb10c0f66483ce8b4f0ffb4a005c9e9e05fb5ace2022052a33060d18033eaff8fc14e305655837c53de81d652a5e00d4f3f5666e86c0a012102683f434518876baffd48e4510913574cf2ba0d0509680392b4a5369b5c4f56a7ffffffffe15ff9e084ef9d5831b48aa8f4c0046d817173db9ba69bf3ee154e05632ff799000000006a47304402205401eb724964f00c604f9f83ad414ee4e6e6606492de7b8c073a1f9f287bb57302206000dd352e6d67f707597b94a528ee2e295483b8a7443edcbd1907a9e1146c5e01210271e629d0337142bba4dacdf4fccce19900a80d3687a7d265ae81913567dda2e1ffffffff21268662f2742fefc8faea40139d24748ac9befef4f6efdd542feb26bae401fa000000006a473044022028fc66c706c306b98e87afa61a791e061bbe7599d9a1662834a0ac9cb09f6e18022044cb0f570bd924c7010079886d195609dd3719a31ed53f2e705b181e92118544012102a54b269ddf50c5d2c4356b3f5bf0228617073ad1044c0cb365d2a893a6d4678affffffff4ac1814d34bb6f1ff536cd205a890fb85ff837c43a54f7e8b04d113b23212700550000006b483045022100f943ceabab534aa477344eaa107527c6ef39c81439bc98c754382f33d17033f0022055a8d5531bb13e2908836efe110762772865477d509762a93b3c463d9941b8b50121032f24a728cb1ba6a3b33911fb5dec197980ef93c77f2bd28a5245be2994ac257cffffffff1019d053a43bdfe605b1bdac104da3baf04fb25926446ac034e81e15434a2825560000006a47304402205760299637407b1f184fbc26f4426f38d9cc05b704754ead239d0cf8b86623c702202f7822974464cb00f1fbf745c2c7450a93e72a73c2879001fed61c00639b39dd01210325a2039bf398b5ec81fdf4a658a66e3c8637758c8427baa30ee180441e6c0375ffffffff297bab95db499e80943418693adaa303dc7138b1e88690d9bb399bd9f59cc7dc010000006a47304402207a68ad38d6065b9a8612fb29e5b7c2ab7c065fe3aa95fa7ded3e613cf798a56f022028b96e12460a2be9d8aab23de98bffcff71b31334b16eca270c5c0120359117b0121031f21a98e0457b1aa506b6b26efb72b00b51879b31e90d479d46e207352d004d7ffffffff81582885d74ae9b0d1ffe4622e76f02eb878aaeadf826f5a7cb54b297f36cbad260000006a473044022078eab6be9cef654ee3fe2a4547cdee633e40aa31df7eefe2227c27b0c598a8680220661f7f8fc226920b49cb9ec96bd38264993febab6b46ecd153b2dfb61ff5cc8f012102c5d92fa0fb362b96beb208e9e83ba6f0abc2890f15afcf1d584d4e2c7f8e1c3dffffffff81582885d74ae9b0d1ffe4622e76f02eb878aaeadf826f5a7cb54b297f36cbad0f0000006a47304402204345a2ecccebd68cd4f92b01dbc0b61803f55aba7751e0e79b478936b6b3fb7802200ebd685ce5b72d5710118442011a2be0b262af766cb84b43c6640518dc593ecc012102409454c1d2d1d96092adc0396dc74c703004b04cd8a8db4651f97677ace0bfc4ffffffff81582885d74ae9b0d1ffe4622e76f02eb878aaeadf826f5a7cb54b297f36cbad5c0000006a473044022033a1a6f967ee08e9bdbfe9acd19889ef255806e4770457b128cd48ac5a9318c8022022b75dca77a0c4f46e4ff8862eb0dbed64e63cbe9fbeaf3cb2f75b5e5d061c2601210287d6865c8b4232631130bf4b009cb59f52ddffedde9dc02161ee792e859a8034ffffffff81582885d74ae9b0d1ffe4622e76f02eb878aaeadf826f5a7cb54b297f36cbad340000006a473044022024698d58a3fe581cf87a9e3aed4a00f30f7bf00c8b46efe015c7fe16fc7ef7fd02200689b1cf40cd1b9b63c447191ed81eaf923916e5efded7d109084c74e1eb9dbc0121021d2fed7f23b334146e40bd0a3b14ffd83cfc26af2779e97c04ec3f5dec5be617ffffffff7d099556bb277154c568f44ea601e7bf4f6699b35d22146565d192c50ada8316060000006b483045022100be8a83148284a9fecfd989532d6f4bf1aee84f231b9814f6cf4be3d9a06c1c7c0220150686bda8503bd6228e03bbb96970419ace310320b88669503382db4232573f012103e6f867333b700f243a584d83ad03475d2717a8ad450967ca8f1714bb76567dfdffffffffefdc1e10c966b73b32a57a0bc2ab33f8978488f8c4cc73ce72e6fc56ef846bbe8b0000006b483045022100e3b853d5023a8a554b5db037899f57b90bc4d680ee9a20dc14bb9976638e32b10220793e94891a9aa87c48328e000c45627f9005fefb7881a1f3ae1a3f9967d131450121021cf487b1b663d572a6739486ff940fa1a4757aef7f5477343cf2cd346215bdecffffffffa0514fa81ee60e22e234315c0d384e04746d4b0a5482d32fe2877f9fb22c227a090000006b483045022100df9f60d500b0cede8e45cee9f39f487cc7fae246e275a455ff0e00e1847989d802200e30fd981e0aee5c5348733e5127828545f246f3a6b3ae62b04d1a8cceabdabc012103edf36ef70a5b48cff7a821f4b74f618f3de95bc6c5c336ace3e2e971711e6fbbffffffffefdc1e10c966b73b32a57a0bc2ab33f8978488f8c4cc73ce72e6fc56ef846bbea70000006b4830450221008e73c3b61f43ae6a801f27203069c43a56fb716cff25b157e8e63bb5e74dee210220702d41b393287146f17b56d5edeaa258b4496f76bb6acf5fae9a1f6cc7a8ba1e0121023a54b41ddfc8e3a390594ed6578fed0385824c566c7ed19262d61c96e9bb29c5ffffffffefdc1e10c966b73b32a57a0bc2ab33f8978488f8c4cc73ce72e6fc56ef846bbe550000006a473044022017d7b7accdbbae51468de239c5a4cda6c61b521d6b4788f64fddcd3682740fa702202a65d93932c7db03f6ecc1e08a42da71624321bd2d18590fb11752aa108374500121023d30a9d873b1295435422e60f60d97b34023e30951612bcedeaa2631c1f1d7eeffffffff459ecb03681fecda4975ca6ebe99046e0870c953e4be6364b4e0430059dd24210d0000006b483045022100f04fafe9e5d9c5a8751ecf6b68e6c5615e4688fa2a48a3718ea281637a65504f02202624a39955f46785bd1d39351df2354d34d93d649c183201c1c9f268fcfbb3380121023c27c9a24e15a812c36ca413d1995aae375e8f8dbe02d0c67b6cb77bcc57cafdffffffffe6000227521a5fdb04d385819468b9a4d3c999946a0a48bcce7fc6ea614e5f45000000006b483045022100e134d874ff196992904346540c84581f050f4c22f27a0ac24e822fd99210d290022036b11a679a2633421f0e504906e617c4e27419b806532a8d53e1c224fda873510121036f432852b0deb58e0ec8ac1764c2b4c7521a310f64263ea190e031f3cc796d04ffffffff69f063edeecac3cfc3fd4c785820bfa7e02f55d63a9dae4019aa8c392b154a71000000006b483045022100f8738e31b2fa7e8a93b6fab60cefca94077d6cea75e1e9d7ae47c971204029dc02202dfb49f52986ee22506779a6df5d1ef6d7d6cd405fdd887fd8da088aabaa556f0121035c184a8acd7f79e3dec9f1ae017b5d47d137e4f9aa66aed8add43899ca1f8d51ffffffff019fae3405000000001976a914bfabbceedfbf9cc651a09148ba2de75b6008ba8988ac00000000", "vin": [{"sequence": 4294967295, "scriptSig": {"hex": "4730440220559f73bcdcf46a5b083351d29f39c5a302881712b74c431fb50be4eb5a2f73e102205794df51af82ff437ee115fbc6fc7c0bf78b7994b01b47672f5cc64471871892012103c5bb4cc511194e61f48a1d7fac01f275e14b509ff7a1313da0be176a24bff381", "asm": "30440220559f73bcdcf46a5b083351d29f39c5a302881712b74c431fb50be4eb5a2f73e102205794df51af82ff437ee115fbc6fc7c0bf78b7994b01b47672f5cc64471871892[ALL] 03c5bb4cc511194e61f48a1d7fac01f275e14b509ff7a1313da0be176a24bff381"}, "vout": 3, "txid": "7edcd3aacf4ac5cdcb51ed6ee6004bbee651467e4c5524f6ca914474e2bdb062"}, {"sequence": 4294967295, "scriptSig": {"hex": "47304402205accecc67b7e8322e1c9fdffe69158dd4f55463e76e6c27aad4a75ecbdf0f7bd022038b16cfea4d1036e692381803323ed1fbd75dd158992f5c4762d6d932ae1de4b012103cb2b9370e10353428887a72e7b494d8ba2f24b7f000d12f410582db1a0e30b4a", "asm": "304402205accecc67b7e8322e1c9fdffe69158dd4f55463e76e6c27aad4a75ecbdf0f7bd022038b16cfea4d1036e692381803323ed1fbd75dd158992f5c4762d6d932ae1de4b[ALL] 03cb2b9370e10353428887a72e7b494d8ba2f24b7f000d12f410582db1a0e30b4a"}, "vout": 13, "txid": "47932217107b4d1c9a75a22a62c2eece28e3c3cc042e08b3ee2ba84d213423ee"}, {"sequence": 4294967295, "scriptSig": {"hex": "483045022100b1427106f01a9ce69ccc46553140f1f01a146acac2d4f69f5ac622b3441725100220767420c94a8d9bebdffc13adf78178ad22fd05efebb7b6a5e9d3c6ff2eaf194301210334c5b9bcd9360fe9ccd9e36019dc90485a6e9ca0e0ab96aa6427aaee85e52cd5", "asm": "3045022100b1427106f01a9ce69ccc46553140f1f01a146acac2d4f69f5ac622b3441725100220767420c94a8d9bebdffc13adf78178ad22fd05efebb7b6a5e9d3c6ff2eaf1943[ALL] 0334c5b9bcd9360fe9ccd9e36019dc90485a6e9ca0e0ab96aa6427aaee85e52cd5"}, "vout": 12, "txid": "47932217107b4d1c9a75a22a62c2eece28e3c3cc042e08b3ee2ba84d213423ee"}, {"sequence": 4294967295, "scriptSig": {"hex": "47304402200f7229d523d47fbf4c7c4fc17e14130ea45d1b48efd6a4962a71fd9eb32e4e420220258b6c7dc91502e371c4c3ce7287f568aabd2f96037cd2fa25301042e36fd82e0121033a18bb725aa1721ed6613ca8b17a17ab8cf2fb459c81eb64f383efecc577ec3f", "asm": "304402200f7229d523d47fbf4c7c4fc17e14130ea45d1b48efd6a4962a71fd9eb32e4e420220258b6c7dc91502e371c4c3ce7287f568aabd2f96037cd2fa25301042e36fd82e[ALL] 033a18bb725aa1721ed6613ca8b17a17ab8cf2fb459c81eb64f383efecc577ec3f"}, "vout": 26, "txid": "eb0de1ff5e3388a8e2377443c7b199c1d98a6873670d796219683774ea9351f8"}, {"sequence": 4294967295, "scriptSig": {"hex": "4730440220122c67a9f1cc649c32f48fcd8b9951c78f6b03224509e2dc1f70d18d1b70b9c002201930cc476c67eb59702376a6c59a88dfdd08d0c7556df81682e952350e9850260121025859c677d361908052cc693faaf5002d4d2f6103736df19cd6a2b78f3e9c2979", "asm": "30440220122c67a9f1cc649c32f48fcd8b9951c78f6b03224509e2dc1f70d18d1b70b9c002201930cc476c67eb59702376a6c59a88dfdd08d0c7556df81682e952350e985026[ALL] 025859c677d361908052cc693faaf5002d4d2f6103736df19cd6a2b78f3e9c2979"}, "vout": 0, "txid": "05ff4a01d284529d0e99de9300c2ea46735d579624129b52ddb0de317741b431"}, {"sequence": 4294967295, "scriptSig": {"hex": "483045022100cc4a02ddb755a5d3ff28e8aa8a5e594e1f81268a97c41f73c4a40db99197b40d02205dfd1db908c8b86ff2a2502a3e4e8bb07e34add108c717bfb7a70567ade01b73012102b8f6b218438aa8f8d92aa6eb6603adbc8b0cce6f11b1824ee9001d17d2004fbd", "asm": "3045022100cc4a02ddb755a5d3ff28e8aa8a5e594e1f81268a97c41f73c4a40db99197b40d02205dfd1db908c8b86ff2a2502a3e4e8bb07e34add108c717bfb7a70567ade01b73[ALL] 02b8f6b218438aa8f8d92aa6eb6603adbc8b0cce6f11b1824ee9001d17d2004fbd"}, "vout": 1, "txid": "9529cdc0542734ac89801202015402d7ed5c3a6bb4ccfaef9c3554b14cd25ea4"}, {"sequence": 4294967295, "scriptSig": {"hex": "473044022027922ac38bfd6ebc070865f04b3a0abeb5c004736dbc35ffae8ec05aec62368202203db3a83ddf92ef3b800084ab28c0400dd099f0d0ff39afd6aa2793edfbf43e33012103255f009ed1c1792110a31e9d1edc8819b04a99281f35eedc55c95fa99ba6f42f", "asm": "3044022027922ac38bfd6ebc070865f04b3a0abeb5c004736dbc35ffae8ec05aec62368202203db3a83ddf92ef3b800084ab28c0400dd099f0d0ff39afd6aa2793edfbf43e33[ALL] 03255f009ed1c1792110a31e9d1edc8819b04a99281f35eedc55c95fa99ba6f42f"}, "vout": 7, "txid": "47932217107b4d1c9a75a22a62c2eece28e3c3cc042e08b3ee2ba84d213423ee"}, {"sequence": 4294967295, "scriptSig": {"hex": "4730440220409aee6580cfe8caf034a09dc3d65479f9c2534568783988599e50279e417d0902207b032d4f2c05083dbf0c64564375e4afa68aff1cc8f2fda01012c4e4c847132d012103f80530e0d0be7892e747a39f740452af2b254dae8dcba6d2ec15d4d93ed4a2ad", "asm": "30440220409aee6580cfe8caf034a09dc3d65479f9c2534568783988599e50279e417d0902207b032d4f2c05083dbf0c64564375e4afa68aff1cc8f2fda01012c4e4c847132d[ALL] 03f80530e0d0be7892e747a39f740452af2b254dae8dcba6d2ec15d4d93ed4a2ad"}, "vout": 1, "txid": "ac14809a5797cfd03ab181a5aec8f031bcd19ee76652d175e6b61dee1ad13595"}, {"sequence": 4294967295, "scriptSig": {"hex": "483045022100b5fe319795c5f6116667d8319a3c79e0c70ea2fdeda94fe53b5eb80f41c58db802202ddfc6ff61199dac0302a8d2ca4d7a72498483412816baff6d89d441ef42f2b5012102c211025d85f45af6ceece05d5fe439ba40f6c8486a9fafedc1c2a48da72d1dbc", "asm": "3045022100b5fe319795c5f6116667d8319a3c79e0c70ea2fdeda94fe53b5eb80f41c58db802202ddfc6ff61199dac0302a8d2ca4d7a72498483412816baff6d89d441ef42f2b5[ALL] 02c211025d85f45af6ceece05d5fe439ba40f6c8486a9fafedc1c2a48da72d1dbc"}, "vout": 1, "txid": "42978f6a970624f9121ba9f801651fde05b5c3c7cf17563442f0773767ffd794"}, {"sequence": 4294967295, "scriptSig": {"hex": "4830450221008c7b9b7ec2441713d399e9b5e23f36e97e0713ddabc42b8cf663cde883bf55b5022059fe0a53e9e48fdfbfc2f7de614a94038d3e5e90c506ee85970aa07c7b123f1501210334fdde3dd0843f1666b375e1a72d3a0a334dd0c81ab67010c9e2e99798d346f3", "asm": "30450221008c7b9b7ec2441713d399e9b5e23f36e97e0713ddabc42b8cf663cde883bf55b5022059fe0a53e9e48fdfbfc2f7de614a94038d3e5e90c506ee85970aa07c7b123f15[ALL] 0334fdde3dd0843f1666b375e1a72d3a0a334dd0c81ab67010c9e2e99798d346f3"}, "vout": 4, "txid": "47932217107b4d1c9a75a22a62c2eece28e3c3cc042e08b3ee2ba84d213423ee"}, {"sequence": 4294967295, "scriptSig": {"hex": "473044022011b7f12b912ecaccc9f8d50599c12480059432d3048383de7d0e96a111a29132022072b917f700308ecd5baa10f8f0ba7f96a850d32cbb9c1920bfa946b00411df7a0121034fd8295c4e624a3d088014966565bd57cc36f850bd735997e6067092815d5e18", "asm": "3044022011b7f12b912ecaccc9f8d50599c12480059432d3048383de7d0e96a111a29132022072b917f700308ecd5baa10f8f0ba7f96a850d32cbb9c1920bfa946b00411df7a[ALL] 034fd8295c4e624a3d088014966565bd57cc36f850bd735997e6067092815d5e18"}, "vout": 1, "txid": "019768ff655199919ff469f031993ba25499c7132ae9bc045acf34978679f0e0"}, {"sequence": 4294967295, "scriptSig": {"hex": "47304402204305fe0a021f14fc605cf60ac75eae27b2a0e9a91db7b986adc32d3887e7eaca022019b9194cd475b8b4f24eb404f1dd20f901538c3f0f60aa507d1cfb1b62e954af012102e429b309c024cbb14b4599df685b250906eae547cd69d5617c83fba9116b433a", "asm": "304402204305fe0a021f14fc605cf60ac75eae27b2a0e9a91db7b986adc32d3887e7eaca022019b9194cd475b8b4f24eb404f1dd20f901538c3f0f60aa507d1cfb1b62e954af[ALL] 02e429b309c024cbb14b4599df685b250906eae547cd69d5617c83fba9116b433a"}, "vout": 14, "txid": "5e1cfb3831352ed11e48306319d4303bc1478866f6256aed1e2ce8873bc8ac82"}, {"sequence": 4294967295, "scriptSig": {"hex": "483045022100b2bb8b8606f4a747555b27a3efb264fc5d6bf6e8680e882e351243b0951dea7802204c96f9c9e4df9fb08acd09e957bf7310276723201d9c6d7bf5d96c7818493b5f01210394b5eb64f795bc1b261cb743e21497695ffcd7e6a6120c6a4470146de46a77de", "asm": "3045022100b2bb8b8606f4a747555b27a3efb264fc5d6bf6e8680e882e351243b0951dea7802204c96f9c9e4df9fb08acd09e957bf7310276723201d9c6d7bf5d96c7818493b5f[ALL] 0394b5eb64f795bc1b261cb743e21497695ffcd7e6a6120c6a4470146de46a77de"}, "vout": 4, "txid": "8d30710b845bf571e1024dc820f7dfaffe3990eb0849b78ad3819b76072bf26e"}, {"sequence": 4294967295, "scriptSig": {"hex": "47304402207b53e8a36bf3480f011757d4c5fd0e15de6a987fa3978975adcf5bd6c41b47030220020583c2115778d60f91966db86f228aac45155f5b3817b0000e4b87e7f94485012103137c1faa2eebece86694a21c391963f3304da60fd090815f473ed4bcf04277c7", "asm": "304402207b53e8a36bf3480f011757d4c5fd0e15de6a987fa3978975adcf5bd6c41b47030220020583c2115778d60f91966db86f228aac45155f5b3817b0000e4b87e7f94485[ALL] 03137c1faa2eebece86694a21c391963f3304da60fd090815f473ed4bcf04277c7"}, "vout": 86, "txid": "b5d14eb21e806f8357b6071726a698dca878b126ece4408b42fbf5273e841cb4"}, {"sequence": 4294967295, "scriptSig": {"hex": "473044022036b95e5f3f3710ea7363b38b154c7cd6ff1b4bdce599f2271754d10c86a4140002201a6d0fc1a5e0a27e633e3c814e5cb924af677f5d30ae0d8df27a7223c09f6e1101210296a58372861b16d9532687eadcc3b2f28f7b84703304d2e3f01bdb7465d7dd03", "asm": "3044022036b95e5f3f3710ea7363b38b154c7cd6ff1b4bdce599f2271754d10c86a4140002201a6d0fc1a5e0a27e633e3c814e5cb924af677f5d30ae0d8df27a7223c09f6e11[ALL] 0296a58372861b16d9532687eadcc3b2f28f7b84703304d2e3f01bdb7465d7dd03"}, "vout": 0, "txid": "2d15f76850dedc3336d3bdf5fb67ff0398408b16f8e9e64dbc442e528681aee0"}, {"sequence": 4294967295, "scriptSig": {"hex": "47304402206bf1c009b6f7c38fcf52b16648a700d3675ee53ba5ae572b7443fb9ee66a3304022054db1002157d7794a1c283586532ede11c7fd073c5ed4fe007d95990e43c5c50012102a22461c9efa7a48b7ea90f2adaeee1920a34fb7020d57947e7f4c874c4d45971", "asm": "304402206bf1c009b6f7c38fcf52b16648a700d3675ee53ba5ae572b7443fb9ee66a3304022054db1002157d7794a1c283586532ede11c7fd073c5ed4fe007d95990e43c5c50[ALL] 02a22461c9efa7a48b7ea90f2adaeee1920a34fb7020d57947e7f4c874c4d45971"}, "vout": 6, "txid": "a6438898081422bafb9af74f0c1d73d86ec78b68f1656deeaedf6ab614db16d2"}, {"sequence": 4294967295, "scriptSig": {"hex": "473044022029aabfa3b2f69d244de43d237c8aaf446ce5d3233e9518346fb894907780d5ba022033bc46818e8fb58c7645ca5c3716f6fadb27c5946034480f476101f60e1819ba01210286c7fcdf7154a5cdcf9342a0b4955026243cf2b696d02f208b9d375dc329e4dc", "asm": "3044022029aabfa3b2f69d244de43d237c8aaf446ce5d3233e9518346fb894907780d5ba022033bc46818e8fb58c7645ca5c3716f6fadb27c5946034480f476101f60e1819ba[ALL] 0286c7fcdf7154a5cdcf9342a0b4955026243cf2b696d02f208b9d375dc329e4dc"}, "vout": 3, "txid": "6165f86f21ee606a35f047bb4fbaec11c96c9f4daad1653e21c4624e0105099f"}, {"sequence": 4294967295, "scriptSig": {"hex": "47304402201f486a4213ec5a72ff5ddd6936f938d89fd1924a70d1c945c579415c6fe26efa0220352cfb33b699998846e1c8a4a60efc751cbc4f5290cda3119541463fe73cb3380121021f356e427d2a10916b87d3056feb65e25ec4aad0bacd817579bb0a87478feaa6", "asm": "304402201f486a4213ec5a72ff5ddd6936f938d89fd1924a70d1c945c579415c6fe26efa0220352cfb33b699998846e1c8a4a60efc751cbc4f5290cda3119541463fe73cb338[ALL] 021f356e427d2a10916b87d3056feb65e25ec4aad0bacd817579bb0a87478feaa6"}, "vout": 0, "txid": "eb01b6dc09bf78dec36bd464c10f8177ad86dacc3ec7692175aad207a3a2b9b8"}, {"sequence": 4294967295, "scriptSig": {"hex": "47304402206c3e2f7acfdd293569637aafe402b80116107132c603bbb7c01b386a7bae893f0220144c685f11d15d0e9e9956f66488b85492c11503d36e59b4b02c967891cfe7bb012103f515323728319abb9d4de722dc0f93cb533170a2accf6bed816efea21d275dee", "asm": "304402206c3e2f7acfdd293569637aafe402b80116107132c603bbb7c01b386a7bae893f0220144c685f11d15d0e9e9956f66488b85492c11503d36e59b4b02c967891cfe7bb[ALL] 03f515323728319abb9d4de722dc0f93cb533170a2accf6bed816efea21d275dee"}, "vout": 0, "txid": "52ff781814961e9d2e2027b1be692e2cc0f6ecaa943ffbc3c9792b310ea40c4d"}, {"sequence": 4294967295, "scriptSig": {"hex": "483045022100b66ed2cac6ab8bfefcf6e72feff45e682ab36a5c071e5727a5e540f37476afcc02207a9790645bd32aecc2fe158f44accd7d059aab3104c4de629c5142b945cc6509012103e2b9764a2fc6fec1d649f7b19b5fcdbcaa83e52e448c30af48bf7cb44c31adb8", "asm": "3045022100b66ed2cac6ab8bfefcf6e72feff45e682ab36a5c071e5727a5e540f37476afcc02207a9790645bd32aecc2fe158f44accd7d059aab3104c4de629c5142b945cc6509[ALL] 03e2b9764a2fc6fec1d649f7b19b5fcdbcaa83e52e448c30af48bf7cb44c31adb8"}, "vout": 0, "txid": "4208b4b02c6818ddd45eea4886fd6fc87f159e6dc0e04a6832b4efc70f52dba5"}, {"sequence": 4294967295, "scriptSig": {"hex": "4830450221009acb2578b513e195a4a1daaf6c351770acca2e5946ef3ee35c2b1c80ec36025f0220099c5c8e135d4c6007fe8a3f7419bde65ec654afc2135bfb84cf0d924e2b7ca701210310165fbd7736e66de5df80e705a9e7cb0f4412e93ddc4235e45a1a9692100d56", "asm": "30450221009acb2578b513e195a4a1daaf6c351770acca2e5946ef3ee35c2b1c80ec36025f0220099c5c8e135d4c6007fe8a3f7419bde65ec654afc2135bfb84cf0d924e2b7ca7[ALL] 0310165fbd7736e66de5df80e705a9e7cb0f4412e93ddc4235e45a1a9692100d56"}, "vout": 1, "txid": "1ea1d53e3e8c778cc54c134c37fbdfdda72bd9d32e405325253c93b769981e4a"}, {"sequence": 4294967295, "scriptSig": {"hex": "47304402206a945c71e4948c58b8d67ea31fc2563614c4d767c953b5a228fc84c93508494902204fc83cc81658f7ecf57949850a22e40b193ecb43354c5da34cf78d086fe7db3b012103cb953b1485fcd728c781a2abd75ff7fcff4954216b58261ebd9dc5be44d55510", "asm": "304402206a945c71e4948c58b8d67ea31fc2563614c4d767c953b5a228fc84c93508494902204fc83cc81658f7ecf57949850a22e40b193ecb43354c5da34cf78d086fe7db3b[ALL] 03cb953b1485fcd728c781a2abd75ff7fcff4954216b58261ebd9dc5be44d55510"}, "vout": 451, "txid": "be6b84ef56fce672ce73ccc4f8888497f833abc20b7aa5323bb766c9101edcef"}, {"sequence": 4294967295, "scriptSig": {"hex": "483045022100ddce27cb22015454deae6a2b89954b321c1b33abdc90c72c2edee81930f19a480220709419889f73b169762110688f7741f53391af31a16a98f0adb221bf2b459748012103d4b3fb5b0fc7add574d033c10a40d9bd3a378e876d70979f3543ea184563fbb8", "asm": "3045022100ddce27cb22015454deae6a2b89954b321c1b33abdc90c72c2edee81930f19a480220709419889f73b169762110688f7741f53391af31a16a98f0adb221bf2b459748[ALL] 03d4b3fb5b0fc7add574d033c10a40d9bd3a378e876d70979f3543ea184563fbb8"}, "vout": 32, "txid": "46bda95c0828c7589169d45b88eaa5c5d0ecba291c9306bed693dce2f8a5562f"}, {"sequence": 4294967295, "scriptSig": {"hex": "483045022100b324caf736a479554bf4312f35e4ebc075095b6edbafe6109b0d4c0b4142f15002205b22fede5f8d6e6689eccec29668168caa6418b7312ac991b2b302e5e18f7eea01210254748d1cf13c0d1e3cba82dd3fe32b9026a95feb9eaddc9119f3d568edb61acc", "asm": "3045022100b324caf736a479554bf4312f35e4ebc075095b6edbafe6109b0d4c0b4142f15002205b22fede5f8d6e6689eccec29668168caa6418b7312ac991b2b302e5e18f7eea[ALL] 0254748d1cf13c0d1e3cba82dd3fe32b9026a95feb9eaddc9119f3d568edb61acc"}, "vout": 0, "txid": "58cbceb57be1fbed84994808bce6399de8285f593427bf33a53bd64f13378372"}, {"sequence": 4294967295, "scriptSig": {"hex": "483045022100a9bf1aed51735f06d4b4520741a13a1e78eb068f0b3d26e43ef6bad8c2a6741702206cb4e8eb3d3271500e6ab4f7a651e88146fdfe51540db343a8239d614c70fdf50121034a028d3e0233a015df98751e11be06fa462aa9511f80842a8656d744f82797b8", "asm": "3045022100a9bf1aed51735f06d4b4520741a13a1e78eb068f0b3d26e43ef6bad8c2a6741702206cb4e8eb3d3271500e6ab4f7a651e88146fdfe51540db343a8239d614c70fdf5[ALL] 034a028d3e0233a015df98751e11be06fa462aa9511f80842a8656d744f82797b8"}, "vout": 217, "txid": "be6b84ef56fce672ce73ccc4f8888497f833abc20b7aa5323bb766c9101edcef"}, {"sequence": 4294967295, "scriptSig": {"hex": "483045022100d84a1efda4cc45239ef0aba9dca6f565cf76497931e10c4374c8d6e878f0071402204d4851703e232f823f68342ea7bbeec3803e120abbe1df11deff3ef39cb48e81012103b4f7b0407848ca37aaed6e6e527c5d7d1f5b176b7cad3f5c12ae4ee24805d64e", "asm": "3045022100d84a1efda4cc45239ef0aba9dca6f565cf76497931e10c4374c8d6e878f0071402204d4851703e232f823f68342ea7bbeec3803e120abbe1df11deff3ef39cb48e81[ALL] 03b4f7b0407848ca37aaed6e6e527c5d7d1f5b176b7cad3f5c12ae4ee24805d64e"}, "vout": 254, "txid": "be6b84ef56fce672ce73ccc4f8888497f833abc20b7aa5323bb766c9101edcef"}, {"sequence": 4294967295, "scriptSig": {"hex": "47304402203318c7c2d325573c04fb2e34a228ccc573e1fcb8f848ada36b7bbae36432c21102204c0398cd81ebd76f63614c19bfc2f6ba1e9622ae9f5865585c8257ad5f8d1581012102561cb09c70fc92abd92c8110a8e9043599d3ae6456015ee573a4e7878e542ff5", "asm": "304402203318c7c2d325573c04fb2e34a228ccc573e1fcb8f848ada36b7bbae36432c21102204c0398cd81ebd76f63614c19bfc2f6ba1e9622ae9f5865585c8257ad5f8d1581[ALL] 02561cb09c70fc92abd92c8110a8e9043599d3ae6456015ee573a4e7878e542ff5"}, "vout": 2, "txid": "c9f25f7d1d2ed4c2aa08d9d2471f1a5be0036ae3e746bb647a25c03180f25661"}, {"sequence": 4294967295, "scriptSig": {"hex": "473044022053954d76e22b17035f10c8d1d63bdbae9a739406bbf1a3d4c95720cda86279a002203e16cd2f92380d06a7a5dc4c61248d2f8d0512c1b61ece55e1283f71c342d238012103ecb5e0b5ec0caecbf3823d7bc576457a3963121f6dc474c8a543946e82484869", "asm": "3044022053954d76e22b17035f10c8d1d63bdbae9a739406bbf1a3d4c95720cda86279a002203e16cd2f92380d06a7a5dc4c61248d2f8d0512c1b61ece55e1283f71c342d238[ALL] 03ecb5e0b5ec0caecbf3823d7bc576457a3963121f6dc474c8a543946e82484869"}, "vout": 1, "txid": "16fcc7ce54441a408d159eb4c458a6b687dbc4d2ba0d2aa583dc265cefbadcf0"}, {"sequence": 4294967295, "scriptSig": {"hex": "46304302203630c732c7cf4d86ad6143ca13c85fe167eac2738fd7d486451cc3c52a1d0344021f3f3a36e872043458f47eb00dfa44356404186786e17ad126b1e7667f49698001210330e3314addcd9d4064f7361cc65b6b4a11b3f6f3a22aae08de519ad45bc41061", "asm": "304302203630c732c7cf4d86ad6143ca13c85fe167eac2738fd7d486451cc3c52a1d0344021f3f3a36e872043458f47eb00dfa44356404186786e17ad126b1e7667f496980[ALL] 0330e3314addcd9d4064f7361cc65b6b4a11b3f6f3a22aae08de519ad45bc41061"}, "vout": 6, "txid": "7d15f0209a44148b3c2e48ea05e62bcc601447d010750b092459bfdf24dbbf45"}, {"sequence": 4294967295, "scriptSig": {"hex": "483045022100db0fff87a0c5edb3c8a3e9f7cf2fd2fc41111ebef12d40f3a1450a5976fbd89802202b8596079c3797790cce02a08e943171f4013e09f660c150dc82b7600f10401001210264ee8677517eebce12dbafc7bc63e3f52ce2623940c4a46f6752e413b44f355a", "asm": "3045022100db0fff87a0c5edb3c8a3e9f7cf2fd2fc41111ebef12d40f3a1450a5976fbd89802202b8596079c3797790cce02a08e943171f4013e09f660c150dc82b7600f104010[ALL] 0264ee8677517eebce12dbafc7bc63e3f52ce2623940c4a46f6752e413b44f355a"}, "vout": 0, "txid": "ac37ba0e7319b5c0f0b199091f4cf545542506103487f6d70d599c99ac0e2f20"}, {"sequence": 4294967295, "scriptSig": {"hex": "483045022100b0f8ca7aa860c2cf7b30757f9113f253e777678b978fc67c5861e9e7d9c95e49022015f6a3aa0ec6285010f225ce9f8210f0858d9c65aa04c2a015a0db4c48d680210121028fcb59bc006194cf8003306e5984c60c8e409ab865a27fc0c89c6b3ec74dd9b9", "asm": "3045022100b0f8ca7aa860c2cf7b30757f9113f253e777678b978fc67c5861e9e7d9c95e49022015f6a3aa0ec6285010f225ce9f8210f0858d9c65aa04c2a015a0db4c48d68021[ALL] 028fcb59bc006194cf8003306e5984c60c8e409ab865a27fc0c89c6b3ec74dd9b9"}, "vout": 48, "txid": "d7e48e364b97b9db6069891611722e66ee614007783b8e1b412b355df6eadb6f"}, {"sequence": 4294967295, "scriptSig": {"hex": "483045022100a1cf00eb9dde306ddbdb2cd442391d89a6e7e20f34d5064fedcfab12c81a227c02207ae26a5e4c31822ebf518de98ed034d7893f449263e460d7e51e2856f824b8e90121029172ffca9fb03edcedbb6da20af8514ca0d868b60e489f9989c7e28eb5b2275f", "asm": "3045022100a1cf00eb9dde306ddbdb2cd442391d89a6e7e20f34d5064fedcfab12c81a227c02207ae26a5e4c31822ebf518de98ed034d7893f449263e460d7e51e2856f824b8e9[ALL] 029172ffca9fb03edcedbb6da20af8514ca0d868b60e489f9989c7e28eb5b2275f"}, "vout": 0, "txid": "d8ba451630daee2beb1626793a1ff1438fd3ef882bef33eb644f3943e4a800fd"}, {"sequence": 4294967295, "scriptSig": {"hex": "47304402203408971813669dae2537799fb10c0f66483ce8b4f0ffb4a005c9e9e05fb5ace2022052a33060d18033eaff8fc14e305655837c53de81d652a5e00d4f3f5666e86c0a012102683f434518876baffd48e4510913574cf2ba0d0509680392b4a5369b5c4f56a7", "asm": "304402203408971813669dae2537799fb10c0f66483ce8b4f0ffb4a005c9e9e05fb5ace2022052a33060d18033eaff8fc14e305655837c53de81d652a5e00d4f3f5666e86c0a[ALL] 02683f434518876baffd48e4510913574cf2ba0d0509680392b4a5369b5c4f56a7"}, "vout": 1, "txid": "4b873941174541af8e60d4139c5508e349a3c671d4d2b50fb660088495d4ccb9"}, {"sequence": 4294967295, "scriptSig": {"hex": "47304402205401eb724964f00c604f9f83ad414ee4e6e6606492de7b8c073a1f9f287bb57302206000dd352e6d67f707597b94a528ee2e295483b8a7443edcbd1907a9e1146c5e01210271e629d0337142bba4dacdf4fccce19900a80d3687a7d265ae81913567dda2e1", "asm": "304402205401eb724964f00c604f9f83ad414ee4e6e6606492de7b8c073a1f9f287bb57302206000dd352e6d67f707597b94a528ee2e295483b8a7443edcbd1907a9e1146c5e[ALL] 0271e629d0337142bba4dacdf4fccce19900a80d3687a7d265ae81913567dda2e1"}, "vout": 0, "txid": "99f72f63054e15eef39ba69bdb7371816d04c0f4a88ab431589def84e0f95fe1"}, {"sequence": 4294967295, "scriptSig": {"hex": "473044022028fc66c706c306b98e87afa61a791e061bbe7599d9a1662834a0ac9cb09f6e18022044cb0f570bd924c7010079886d195609dd3719a31ed53f2e705b181e92118544012102a54b269ddf50c5d2c4356b3f5bf0228617073ad1044c0cb365d2a893a6d4678a", "asm": "3044022028fc66c706c306b98e87afa61a791e061bbe7599d9a1662834a0ac9cb09f6e18022044cb0f570bd924c7010079886d195609dd3719a31ed53f2e705b181e92118544[ALL] 02a54b269ddf50c5d2c4356b3f5bf0228617073ad1044c0cb365d2a893a6d4678a"}, "vout": 0, "txid": "fa01e4ba26eb2f54ddeff6f4febec98a74249d1340eafac8ef2f74f262862621"}, {"sequence": 4294967295, "scriptSig": {"hex": "483045022100f943ceabab534aa477344eaa107527c6ef39c81439bc98c754382f33d17033f0022055a8d5531bb13e2908836efe110762772865477d509762a93b3c463d9941b8b50121032f24a728cb1ba6a3b33911fb5dec197980ef93c77f2bd28a5245be2994ac257c", "asm": "3045022100f943ceabab534aa477344eaa107527c6ef39c81439bc98c754382f33d17033f0022055a8d5531bb13e2908836efe110762772865477d509762a93b3c463d9941b8b5[ALL] 032f24a728cb1ba6a3b33911fb5dec197980ef93c77f2bd28a5245be2994ac257c"}, "vout": 85, "txid": "002721233b114db0e8f7543ac437f85fb80f895a20cd36f51f6fbb344d81c14a"}, {"sequence": 4294967295, "scriptSig": {"hex": "47304402205760299637407b1f184fbc26f4426f38d9cc05b704754ead239d0cf8b86623c702202f7822974464cb00f1fbf745c2c7450a93e72a73c2879001fed61c00639b39dd01210325a2039bf398b5ec81fdf4a658a66e3c8637758c8427baa30ee180441e6c0375", "asm": "304402205760299637407b1f184fbc26f4426f38d9cc05b704754ead239d0cf8b86623c702202f7822974464cb00f1fbf745c2c7450a93e72a73c2879001fed61c00639b39dd[ALL] 0325a2039bf398b5ec81fdf4a658a66e3c8637758c8427baa30ee180441e6c0375"}, "vout": 86, "txid": "25284a43151ee834c06a442659b24ff0baa34d10acbdb105e6df3ba453d01910"}, {"sequence": 4294967295, "scriptSig": {"hex": "47304402207a68ad38d6065b9a8612fb29e5b7c2ab7c065fe3aa95fa7ded3e613cf798a56f022028b96e12460a2be9d8aab23de98bffcff71b31334b16eca270c5c0120359117b0121031f21a98e0457b1aa506b6b26efb72b00b51879b31e90d479d46e207352d004d7", "asm": "304402207a68ad38d6065b9a8612fb29e5b7c2ab7c065fe3aa95fa7ded3e613cf798a56f022028b96e12460a2be9d8aab23de98bffcff71b31334b16eca270c5c0120359117b[ALL] 031f21a98e0457b1aa506b6b26efb72b00b51879b31e90d479d46e207352d004d7"}, "vout": 1, "txid": "dcc79cf5d99b39bbd99086e8b13871dc03a3da3a69183494809e49db95ab7b29"}, {"sequence": 4294967295, "scriptSig": {"hex": "473044022078eab6be9cef654ee3fe2a4547cdee633e40aa31df7eefe2227c27b0c598a8680220661f7f8fc226920b49cb9ec96bd38264993febab6b46ecd153b2dfb61ff5cc8f012102c5d92fa0fb362b96beb208e9e83ba6f0abc2890f15afcf1d584d4e2c7f8e1c3d", "asm": "3044022078eab6be9cef654ee3fe2a4547cdee633e40aa31df7eefe2227c27b0c598a8680220661f7f8fc226920b49cb9ec96bd38264993febab6b46ecd153b2dfb61ff5cc8f[ALL] 02c5d92fa0fb362b96beb208e9e83ba6f0abc2890f15afcf1d584d4e2c7f8e1c3d"}, "vout": 38, "txid": "adcb367f294bb57c5a6f82dfeaaa78b82ef0762e62e4ffd1b0e94ad785285881"}, {"sequence": 4294967295, "scriptSig": {"hex": "47304402204345a2ecccebd68cd4f92b01dbc0b61803f55aba7751e0e79b478936b6b3fb7802200ebd685ce5b72d5710118442011a2be0b262af766cb84b43c6640518dc593ecc012102409454c1d2d1d96092adc0396dc74c703004b04cd8a8db4651f97677ace0bfc4", "asm": "304402204345a2ecccebd68cd4f92b01dbc0b61803f55aba7751e0e79b478936b6b3fb7802200ebd685ce5b72d5710118442011a2be0b262af766cb84b43c6640518dc593ecc[ALL] 02409454c1d2d1d96092adc0396dc74c703004b04cd8a8db4651f97677ace0bfc4"}, "vout": 15, "txid": "adcb367f294bb57c5a6f82dfeaaa78b82ef0762e62e4ffd1b0e94ad785285881"}, {"sequence": 4294967295, "scriptSig": {"hex": "473044022033a1a6f967ee08e9bdbfe9acd19889ef255806e4770457b128cd48ac5a9318c8022022b75dca77a0c4f46e4ff8862eb0dbed64e63cbe9fbeaf3cb2f75b5e5d061c2601210287d6865c8b4232631130bf4b009cb59f52ddffedde9dc02161ee792e859a8034", "asm": "3044022033a1a6f967ee08e9bdbfe9acd19889ef255806e4770457b128cd48ac5a9318c8022022b75dca77a0c4f46e4ff8862eb0dbed64e63cbe9fbeaf3cb2f75b5e5d061c26[ALL] 0287d6865c8b4232631130bf4b009cb59f52ddffedde9dc02161ee792e859a8034"}, "vout": 92, "txid": "adcb367f294bb57c5a6f82dfeaaa78b82ef0762e62e4ffd1b0e94ad785285881"}, {"sequence": 4294967295, "scriptSig": {"hex": "473044022024698d58a3fe581cf87a9e3aed4a00f30f7bf00c8b46efe015c7fe16fc7ef7fd02200689b1cf40cd1b9b63c447191ed81eaf923916e5efded7d109084c74e1eb9dbc0121021d2fed7f23b334146e40bd0a3b14ffd83cfc26af2779e97c04ec3f5dec5be617", "asm": "3044022024698d58a3fe581cf87a9e3aed4a00f30f7bf00c8b46efe015c7fe16fc7ef7fd02200689b1cf40cd1b9b63c447191ed81eaf923916e5efded7d109084c74e1eb9dbc[ALL] 021d2fed7f23b334146e40bd0a3b14ffd83cfc26af2779e97c04ec3f5dec5be617"}, "vout": 52, "txid": "adcb367f294bb57c5a6f82dfeaaa78b82ef0762e62e4ffd1b0e94ad785285881"}, {"sequence": 4294967295, "scriptSig": {"hex": "483045022100be8a83148284a9fecfd989532d6f4bf1aee84f231b9814f6cf4be3d9a06c1c7c0220150686bda8503bd6228e03bbb96970419ace310320b88669503382db4232573f012103e6f867333b700f243a584d83ad03475d2717a8ad450967ca8f1714bb76567dfd", "asm": "3045022100be8a83148284a9fecfd989532d6f4bf1aee84f231b9814f6cf4be3d9a06c1c7c0220150686bda8503bd6228e03bbb96970419ace310320b88669503382db4232573f[ALL] 03e6f867333b700f243a584d83ad03475d2717a8ad450967ca8f1714bb76567dfd"}, "vout": 6, "txid": "1683da0ac592d1656514225db399664fbfe701a64ef468c5547127bb5695097d"}, {"sequence": 4294967295, "scriptSig": {"hex": "483045022100e3b853d5023a8a554b5db037899f57b90bc4d680ee9a20dc14bb9976638e32b10220793e94891a9aa87c48328e000c45627f9005fefb7881a1f3ae1a3f9967d131450121021cf487b1b663d572a6739486ff940fa1a4757aef7f5477343cf2cd346215bdec", "asm": "3045022100e3b853d5023a8a554b5db037899f57b90bc4d680ee9a20dc14bb9976638e32b10220793e94891a9aa87c48328e000c45627f9005fefb7881a1f3ae1a3f9967d13145[ALL] 021cf487b1b663d572a6739486ff940fa1a4757aef7f5477343cf2cd346215bdec"}, "vout": 139, "txid": "be6b84ef56fce672ce73ccc4f8888497f833abc20b7aa5323bb766c9101edcef"}, {"sequence": 4294967295, "scriptSig": {"hex": "483045022100df9f60d500b0cede8e45cee9f39f487cc7fae246e275a455ff0e00e1847989d802200e30fd981e0aee5c5348733e5127828545f246f3a6b3ae62b04d1a8cceabdabc012103edf36ef70a5b48cff7a821f4b74f618f3de95bc6c5c336ace3e2e971711e6fbb", "asm": "3045022100df9f60d500b0cede8e45cee9f39f487cc7fae246e275a455ff0e00e1847989d802200e30fd981e0aee5c5348733e5127828545f246f3a6b3ae62b04d1a8cceabdabc[ALL] 03edf36ef70a5b48cff7a821f4b74f618f3de95bc6c5c336ace3e2e971711e6fbb"}, "vout": 9, "txid": "7a222cb29f7f87e22fd382540a4b6d74044e380d5c3134e2220ee61ea84f51a0"}, {"sequence": 4294967295, "scriptSig": {"hex": "4830450221008e73c3b61f43ae6a801f27203069c43a56fb716cff25b157e8e63bb5e74dee210220702d41b393287146f17b56d5edeaa258b4496f76bb6acf5fae9a1f6cc7a8ba1e0121023a54b41ddfc8e3a390594ed6578fed0385824c566c7ed19262d61c96e9bb29c5", "asm": "30450221008e73c3b61f43ae6a801f27203069c43a56fb716cff25b157e8e63bb5e74dee210220702d41b393287146f17b56d5edeaa258b4496f76bb6acf5fae9a1f6cc7a8ba1e[ALL] 023a54b41ddfc8e3a390594ed6578fed0385824c566c7ed19262d61c96e9bb29c5"}, "vout": 167, "txid": "be6b84ef56fce672ce73ccc4f8888497f833abc20b7aa5323bb766c9101edcef"}, {"sequence": 4294967295, "scriptSig": {"hex": "473044022017d7b7accdbbae51468de239c5a4cda6c61b521d6b4788f64fddcd3682740fa702202a65d93932c7db03f6ecc1e08a42da71624321bd2d18590fb11752aa108374500121023d30a9d873b1295435422e60f60d97b34023e30951612bcedeaa2631c1f1d7ee", "asm": "3044022017d7b7accdbbae51468de239c5a4cda6c61b521d6b4788f64fddcd3682740fa702202a65d93932c7db03f6ecc1e08a42da71624321bd2d18590fb11752aa10837450[ALL] 023d30a9d873b1295435422e60f60d97b34023e30951612bcedeaa2631c1f1d7ee"}, "vout": 85, "txid": "be6b84ef56fce672ce73ccc4f8888497f833abc20b7aa5323bb766c9101edcef"}, {"sequence": 4294967295, "scriptSig": {"hex": "483045022100f04fafe9e5d9c5a8751ecf6b68e6c5615e4688fa2a48a3718ea281637a65504f02202624a39955f46785bd1d39351df2354d34d93d649c183201c1c9f268fcfbb3380121023c27c9a24e15a812c36ca413d1995aae375e8f8dbe02d0c67b6cb77bcc57cafd", "asm": "3045022100f04fafe9e5d9c5a8751ecf6b68e6c5615e4688fa2a48a3718ea281637a65504f02202624a39955f46785bd1d39351df2354d34d93d649c183201c1c9f268fcfbb338[ALL] 023c27c9a24e15a812c36ca413d1995aae375e8f8dbe02d0c67b6cb77bcc57cafd"}, "vout": 13, "txid": "2124dd590043e0b46463bee453c970086e0499be6eca7549daec1f6803cb9e45"}, {"sequence": 4294967295, "scriptSig": {"hex": "483045022100e134d874ff196992904346540c84581f050f4c22f27a0ac24e822fd99210d290022036b11a679a2633421f0e504906e617c4e27419b806532a8d53e1c224fda873510121036f432852b0deb58e0ec8ac1764c2b4c7521a310f64263ea190e031f3cc796d04", "asm": "3045022100e134d874ff196992904346540c84581f050f4c22f27a0ac24e822fd99210d290022036b11a679a2633421f0e504906e617c4e27419b806532a8d53e1c224fda87351[ALL] 036f432852b0deb58e0ec8ac1764c2b4c7521a310f64263ea190e031f3cc796d04"}, "vout": 0, "txid": "455f4e61eac67fcebc480a6a9499c9d3a4b968948185d304db5f1a52270200e6"}, {"sequence": 4294967295, "scriptSig": {"hex": "483045022100f8738e31b2fa7e8a93b6fab60cefca94077d6cea75e1e9d7ae47c971204029dc02202dfb49f52986ee22506779a6df5d1ef6d7d6cd405fdd887fd8da088aabaa556f0121035c184a8acd7f79e3dec9f1ae017b5d47d137e4f9aa66aed8add43899ca1f8d51", "asm": "3045022100f8738e31b2fa7e8a93b6fab60cefca94077d6cea75e1e9d7ae47c971204029dc02202dfb49f52986ee22506779a6df5d1ef6d7d6cd405fdd887fd8da088aabaa556f[ALL] 035c184a8acd7f79e3dec9f1ae017b5d47d137e4f9aa66aed8add43899ca1f8d51"}, "vout": 0, "txid": "714a152b398caa1940ae9d3ad6552fe0a7bf2058784cfdc3cfc3caeeed63f069"}], "txid": "918356953c351627958f54869b8f1fc55f3fbe93b170d5b29913cda5daac9de5", "blocktime": 1537873891, "version": 2, "confirmations": 11478, "time": 1537873891, "locktime": 0, "vsize": 7415, "size": 7415}