{"hash": "918703d821b885640caadd1d9ba21b70ce1a9328f8a5b202225802349f515773", "blockhash": "000000000000000000205f8b0775d31398ef75b89a5e8ec8d2c57b4dc0ac4c20", "vout": [{"scriptPubKey": {"reqSigs": 1, "hex": "76a914b643ccd75eeb8001c7b9f5a5571633337741c10088ac", "addresses": ["1HcjCkZ8RbM6D7Scu4txWRVgbVKzj4XHiq"], "asm": "OP_DUP OP_HASH160 b643ccd75eeb8001c7b9f5a5571633337741c100 OP_EQUALVERIFY OP_CHECKSIG", "type": "pubkeyhash"}, "value": 0.02998684, "n": 0}], "hex": "01000000027c3a673040223812b7918c299db2b3260226a761d8e3032dee13e7a3c5aefe25000000006b483045022100dc228efea212d146863f914c2ceb3fff04addc3c5d9e40edf43818529e10ffc602202b737229898afda9a1eb38dac3ede0d264b62252506869a11dfe10539ceca584012103a4a14e60ca8597028f0db999268ecf4fce91fb38a6763cfcff98f3856f85df89ffffffffdcc0380d7d983a09da8bfaf7d119f02be1fe1f57effc3e54f11cbcb192fb5ee0000000006b483045022100816e100b36c66319ed9fc0a3ba9caff28967a9bab72eb8f6b17e634f8a5c378b02201ad29c60db7ab375eb13ea1b8afc6272da11a14a0300cc75b60201fe02252e86012103afb80c127c1a30c3e070da8580b9375a958569b79a768449b686338c138a2fa3ffffffff019cc12d00000000001976a914b643ccd75eeb8001c7b9f5a5571633337741c10088ac00000000", "vin": [{"sequence": 4294967295, "scriptSig": {"hex": "483045022100dc228efea212d146863f914c2ceb3fff04addc3c5d9e40edf43818529e10ffc602202b737229898afda9a1eb38dac3ede0d264b62252506869a11dfe10539ceca584012103a4a14e60ca8597028f0db999268ecf4fce91fb38a6763cfcff98f3856f85df89", "asm": "3045022100dc228efea212d146863f914c2ceb3fff04addc3c5d9e40edf43818529e10ffc602202b737229898afda9a1eb38dac3ede0d264b62252506869a11dfe10539ceca584[ALL] 03a4a14e60ca8597028f0db999268ecf4fce91fb38a6763cfcff98f3856f85df89"}, "vout": 0, "txid": "25feaec5a3e713ee2d03e3d861a7260226b3b29d298c91b71238224030673a7c"}, {"sequence": 4294967295, "scriptSig": {"hex": "483045022100816e100b36c66319ed9fc0a3ba9caff28967a9bab72eb8f6b17e634f8a5c378b02201ad29c60db7ab375eb13ea1b8afc6272da11a14a0300cc75b60201fe02252e86012103afb80c127c1a30c3e070da8580b9375a958569b79a768449b686338c138a2fa3", "asm": "3045022100816e100b36c66319ed9fc0a3ba9caff28967a9bab72eb8f6b17e634f8a5c378b02201ad29c60db7ab375eb13ea1b8afc6272da11a14a0300cc75b60201fe02252e86[ALL] 03afb80c127c1a30c3e070da8580b9375a958569b79a768449b686338c138a2fa3"}, "vout": 0, "txid": "e05efb92b1bc1cf1543efcef571ffee12bf019d1f7fa8bda093a987d0d38c0dc"}], "txid": "918703d821b885640caadd1d9ba21b70ce1a9328f8a5b202225802349f515773", "blocktime": 1537871175, "version": 1, "confirmations": 11511, "time": 1537871175, "locktime": 0, "vsize": 340, "size": 340}