{"hash": "3491575311863a8dbbffe780d51c9d84effdee191bc0eeda7ceea7f02dbbff03", "blockhash": "00000000000000000004ffacab907a6b429b9a5745fa0b75af4234bf69dd7176", "vout": [{"scriptPubKey": {"reqSigs": 1, "hex": "a9147c292ab3fac1392f317125128386d09d3187d83c87", "addresses": ["3D1X2ehMc4TEQU65ZWGxT1d32Y2DwRC4Nr"], "asm": "OP_HASH160 7c292ab3fac1392f317125128386d09d3187d83c OP_EQUAL", "type": "scripthash"}, "value": 0.01008982, "n": 0}, {"scriptPubKey": {"reqSigs": 1, "hex": "a91472d52c47596751683a2a193e1a1b2823b372924a87", "addresses": ["3CACKvsSNSkLC5uj8GVV2u65mCzdx6u7kn"], "asm": "OP_HASH160 72d52c47596751683a2a193e1a1b2823b372924a OP_EQUAL", "type": "scripthash"}, "value": 0.02146099, "n": 1}], "hex": "02000000000101cf6d20f93af12adc9dfd8d83791cfcc3731c6a189810f890690ff605201d7ea600000000171600143276c7d0a40aaa91c1d1618afefd532e5628c26cfeffffff0256650f000000000017a9147c292ab3fac1392f317125128386d09d3187d83c8733bf20000000000017a91472d52c47596751683a2a193e1a1b2823b372924a8702483045022100902f6133e15aa1a2cb4a940b72931b37fd0ca69c34af0025209eef581a5dfb18022001473b7b12e06b80b2ea923317c28cbe9e49f59702286c0db9fd989da8cccf59012103be760eb29a9468085d524b9b2930412ab1d84cbc86e0f7a86bda1110f07df4e316490800", "vin": [{"txinwitness": ["3045022100902f6133e15aa1a2cb4a940b72931b37fd0ca69c34af0025209eef581a5dfb18022001473b7b12e06b80b2ea923317c28cbe9e49f59702286c0db9fd989da8cccf5901", "03be760eb29a9468085d524b9b2930412ab1d84cbc86e0f7a86bda1110f07df4e3"], "sequence": 4294967294, "scriptSig": {"hex": "1600143276c7d0a40aaa91c1d1618afefd532e5628c26c", "asm": "00143276c7d0a40aaa91c1d1618afefd532e5628c26c"}, "vout": 0, "txid": "a67e1d2005f60f6990f81098186a1c73c3fc1c79838dfd9ddc2af13af9206dcf"}], "txid": "918bc2d25f29aab4a5f72a71cd0bbf7aa967c65f8957d54d306bea2175ca9416", "blocktime": 1537875543, "version": 2, "confirmations": 11464, "time": 1537875543, "locktime": 542998, "vsize": 166, "size": 248}