{"hash": "9190442ca1905af41bd2892f5a65b4994a38e5d7d1cd231333fb86163c86a96f", "blockhash": "0000000000000000000dcc0f55137456b1a82d3642486a52398922ac4d620174", "vout": [{"scriptPubKey": {"reqSigs": 1, "hex": "76a914d243e6abb9a60fbff430b421d2df4b7d59ec186088ac", "addresses": ["1LAnF8h3qMGx3TSwNUHVneBZUEpwE4gu3D"], "asm": "OP_DUP OP_HASH160 d243e6abb9a60fbff430b421d2df4b7d59ec1860 OP_EQUALVERIFY OP_CHECKSIG", "type": "pubkeyhash"}, "value": 0.00076972, "n": 0}, {"scriptPubKey": {"reqSigs": 1, "hex": "76a9143851f34d13937b673a7d24a1950bb5b21ce94af388ac", "addresses": ["168o1kqNquEJeR9vosUB5fw4eAwcVAgh8P"], "asm": "OP_DUP OP_HASH160 3851f34d13937b673a7d24a1950bb5b21ce94af3 OP_EQUALVERIFY OP_CHECKSIG", "type": "pubkeyhash"}, "value": 5.46e-06, "n": 1}, {"scriptPubKey": {"type": "nulldata", "hex": "6a146f6d6e69000000000000001f000001067850e900", "asm": "OP_RETURN 6f6d6e69000000000000001f000001067850e900"}, "value": 0.0, "n": 2}], "hex": "01000000024404c1e95e0e8d58491f4cb33c82e21a179cf6dd88583a502bfb731021b3cdaf000000006a4730440220375c77c13949ed69cb943c8d334bd4aa22373a6e01d99b12cf44de23383f4a700220308cc7ad579dd4898c6082e16827378ea4dc8454cd4c64151c226f0afd5537a4012102a560cd42d4533e505a86531d6a583e19514072b9a79c8891aceee935660e2003ffffffff4569335aae69583b830d386eaa3bbdb188d010f93d0f12dae01e2b75d2a28f24000000006b483045022100969b6198ac3ec1e2887941bb9c5abd15a5431424bbd924ad5cac4db727f490f9022015e8701ef04b57374f4b1464b0cea649748c4de08370db77f8d88c9caa1463fb01210271977291b74f1f5f5c42157e8aae804664eaaeccfd097918450d37f28fb94d77ffffffff03ac2c0100000000001976a914d243e6abb9a60fbff430b421d2df4b7d59ec186088ac22020000000000001976a9143851f34d13937b673a7d24a1950bb5b21ce94af388ac0000000000000000166a146f6d6e69000000000000001f000001067850e90000000000", "vin": [{"sequence": 4294967295, "scriptSig": {"hex": "4730440220375c77c13949ed69cb943c8d334bd4aa22373a6e01d99b12cf44de23383f4a700220308cc7ad579dd4898c6082e16827378ea4dc8454cd4c64151c226f0afd5537a4012102a560cd42d4533e505a86531d6a583e19514072b9a79c8891aceee935660e2003", "asm": "30440220375c77c13949ed69cb943c8d334bd4aa22373a6e01d99b12cf44de23383f4a700220308cc7ad579dd4898c6082e16827378ea4dc8454cd4c64151c226f0afd5537a4[ALL] 02a560cd42d4533e505a86531d6a583e19514072b9a79c8891aceee935660e2003"}, "vout": 0, "txid": "afcdb3211073fb2b503a5888ddf69c171ae2823cb34c1f49588d0e5ee9c10444"}, {"sequence": 4294967295, "scriptSig": {"hex": "483045022100969b6198ac3ec1e2887941bb9c5abd15a5431424bbd924ad5cac4db727f490f9022015e8701ef04b57374f4b1464b0cea649748c4de08370db77f8d88c9caa1463fb01210271977291b74f1f5f5c42157e8aae804664eaaeccfd097918450d37f28fb94d77", "asm": "3045022100969b6198ac3ec1e2887941bb9c5abd15a5431424bbd924ad5cac4db727f490f9022015e8701ef04b57374f4b1464b0cea649748c4de08370db77f8d88c9caa1463fb[ALL] 0271977291b74f1f5f5c42157e8aae804664eaaeccfd097918450d37f28fb94d77"}, "vout": 0, "txid": "248fa2d2752b1ee0da120f3df910d088b1bd3baa6e380d833b5869ae5a336945"}], "txid": "9190442ca1905af41bd2892f5a65b4994a38e5d7d1cd231333fb86163c86a96f", "blocktime": 1537870268, "version": 1, "confirmations": 11516, "time": 1537870268, "locktime": 0, "vsize": 404, "size": 404}