{"hash": "919a3d6a81f28434d1d1df5407b6458b9f5fa801debf5ce49973ad704799b3a8", "blockhash": "0000000000000000000e13cef7c366c0283d82e591d1acd082e914b08063cdf1", "vout": [{"scriptPubKey": {"reqSigs": 1, "hex": "a914978e046231491beb86b35a006d0c0ce58e8df16387", "addresses": ["3FWN62rogHFgykDcvSCJYab5vxJTftBmj3"], "asm": "OP_HASH160 978e046231491beb86b35a006d0c0ce58e8df163 OP_EQUAL", "type": "scripthash"}, "value": 0.00140253, "n": 0}, {"scriptPubKey": {"reqSigs": 1, "hex": "76a91490d7d8936105222fecf7c477af03725ea498103e88ac", "addresses": ["1ECrssFuBMwttU7K6pinK1Ku6dcwbVXng9"], "asm": "OP_DUP OP_HASH160 90d7d8936105222fecf7c477af03725ea498103e OP_EQUALVERIFY OP_CHECKSIG", "type": "pubkeyhash"}, "value": 0.01731518, "n": 1}], "hex": "0100000001e3b30ec449638956a05f5976c5faaf7b247bc663f26a25ad3d509b0d646ce8c6010000006b4830450221009a990230ef70a31f3de6aa7670cae513038f4de72ee9440829e12effca7422130220339cbd2bf8defc1f1caeab49917a4d9421148d0755cc118adfd89c06abeed734012103946a13b26166284233bb5a8248a4870a148c73e8bf100089b88b0df35ea18d8dffffffff02dd2302000000000017a914978e046231491beb86b35a006d0c0ce58e8df16387be6b1a00000000001976a91490d7d8936105222fecf7c477af03725ea498103e88ac00000000", "vin": [{"sequence": 4294967295, "scriptSig": {"hex": "4830450221009a990230ef70a31f3de6aa7670cae513038f4de72ee9440829e12effca7422130220339cbd2bf8defc1f1caeab49917a4d9421148d0755cc118adfd89c06abeed734012103946a13b26166284233bb5a8248a4870a148c73e8bf100089b88b0df35ea18d8d", "asm": "30450221009a990230ef70a31f3de6aa7670cae513038f4de72ee9440829e12effca7422130220339cbd2bf8defc1f1caeab49917a4d9421148d0755cc118adfd89c06abeed734[ALL] 03946a13b26166284233bb5a8248a4870a148c73e8bf100089b88b0df35ea18d8d"}, "vout": 1, "txid": "c6e86c640d9b503dad256af263c67b247baffac576595fa056896349c40eb3e3"}], "txid": "919a3d6a81f28434d1d1df5407b6458b9f5fa801debf5ce49973ad704799b3a8", "blocktime": 1537871767, "version": 1, "confirmations": 11495, "time": 1537871767, "locktime": 0, "vsize": 224, "size": 224}