{"hash": "8a1b9e1dd179614f0f5a61c16b1a1e252e257cb9a187aed414ed3d39215a0408", "blockhash": "0000000000000000000baef3f32e3676a92c3b2e5da21b426e4f302fc371ce76", "vout": [{"scriptPubKey": {"reqSigs": 1, "hex": "a914c8948f84ab8bc2187580e4fb86ecf2a0a06e11cf87", "addresses": ["3Kyb35jwJ7YCiAF7JRfW5VZdpyywKap5YB"], "asm": "OP_HASH160 c8948f84ab8bc2187580e4fb86ecf2a0a06e11cf OP_EQUAL", "type": "scripthash"}, "value": 4.065e-05, "n": 0}, {"scriptPubKey": {"reqSigs": 1, "hex": "a91449d7e96499e76d96ef877a2fcb98823c8bccba2187", "addresses": ["38RTuMXR3rjgmqC2TwiJHrCLzc9nbGoNw7"], "asm": "OP_HASH160 49d7e96499e76d96ef877a2fcb98823c8bccba21 OP_EQUAL", "type": "scripthash"}, "value": 0.00045685, "n": 1}], "hex": "01000000000101bc65534b3f16d21afc34d073a819d3c78f9115aa1375286d39478809e0a8b82900000000232200202a9a1aa43dd52fca361d638a9bb1c7c7a7b32bed598a04104268b8ecbdbfe96fffffffff02e10f00000000000017a914c8948f84ab8bc2187580e4fb86ecf2a0a06e11cf8775b200000000000017a91449d7e96499e76d96ef877a2fcb98823c8bccba21870400483045022100b537d7d476dc6dfb8ad58e2079d44e8e78cde493ab28e7e2b2a483829dad0e030220574809e99874ae8f0b8ee5e56dd2db6df99d605f71c3d64dba3f334394717fa301483045022100d149b09733528eeb92a398b2a3857bc2be49785ad404bba13653e0848fdf685b02205cbfa9d61f1b6f2a68ce81bb281b4bd309677482663c8f61677ca30102bd8c000147522103ea39afa13bfc0b16775c1ffdd58dbb69a77441d8211cfd208f16ac7437c451312103338f346cab6ba87fe940591a03ac234be06520c5ab386d4b6632e8eef0d0db7652ae00000000", "vin": [{"txinwitness": ["", "3045022100b537d7d476dc6dfb8ad58e2079d44e8e78cde493ab28e7e2b2a483829dad0e030220574809e99874ae8f0b8ee5e56dd2db6df99d605f71c3d64dba3f334394717fa301", "3045022100d149b09733528eeb92a398b2a3857bc2be49785ad404bba13653e0848fdf685b02205cbfa9d61f1b6f2a68ce81bb281b4bd309677482663c8f61677ca30102bd8c0001", "522103ea39afa13bfc0b16775c1ffdd58dbb69a77441d8211cfd208f16ac7437c451312103338f346cab6ba87fe940591a03ac234be06520c5ab386d4b6632e8eef0d0db7652ae"], "sequence": 4294967295, "scriptSig": {"hex": "2200202a9a1aa43dd52fca361d638a9bb1c7c7a7b32bed598a04104268b8ecbdbfe96f", "asm": "00202a9a1aa43dd52fca361d638a9bb1c7c7a7b32bed598a04104268b8ecbdbfe96f"}, "vout": 0, "txid": "29b8a8e0098847396d287513aa15918fc7d319a873d034fc1ad2163f4b5365bc"}], "txid": "919a43dd1eece156932965b116becf2c03cda3a235543f78aaac33c50ee98d46", "blocktime": 1537876114, "version": 1, "confirmations": 11462, "time": 1537876114, "locktime": 0, "vsize": 206, "size": 372}