{"hash": "dc94097cd32dfed7c67718100b3326e9e2340b93663ae4de7602f728e0ff9ba1", "blockhash": "0000000000000000001f76057863aec43deb6fa401d9628bb513d65a8098bfab", "vout": [{"scriptPubKey": {"reqSigs": 1, "hex": "a9145db8f6bc86411cabc5383ba194cdfaea6416d10787", "addresses": ["3AEaLtsLvqj9DefTmr3AibcUgbXCf4dJrn"], "asm": "OP_HASH160 5db8f6bc86411cabc5383ba194cdfaea6416d107 OP_EQUAL", "type": "scripthash"}, "value": 0.001516, "n": 0}, {"scriptPubKey": {"reqSigs": 1, "hex": "a914aba304dca90cd2ef32ee4414b669664d0afd25c187", "addresses": ["3HLYm737Jtja4GKNYzntmiQnYS6rwTahCU"], "asm": "OP_HASH160 aba304dca90cd2ef32ee4414b669664d0afd25c1 OP_EQUAL", "type": "scripthash"}, "value": 2e-05, "n": 1}, {"scriptPubKey": {"reqSigs": 1, "hex": "a914457bbfe6b33d4b473e19661cf7f6ca4e4a4a614887", "addresses": ["382Qo45oWHZVxKCByzWAK6ojj4UfTGw6zt"], "asm": "OP_HASH160 457bbfe6b33d4b473e19661cf7f6ca4e4a4a6148 OP_EQUAL", "type": "scripthash"}, "value": 0.087136, "n": 2}], "hex": "0200000000010133aec6b4319b243fd7088535027fcc0506274cebbeaa3cd3ebeb1d219e6de2230100000017160014929566e35a7df92f10fd752136551f71aec1c594feffffff03305002000000000017a9145db8f6bc86411cabc5383ba194cdfaea6416d10787d00700000000000017a914aba304dca90cd2ef32ee4414b669664d0afd25c18780f584000000000017a914457bbfe6b33d4b473e19661cf7f6ca4e4a4a61488702483045022100ebe1a712173c80a40eb44a69701881f4d17c9f79a3003c2a8a8c1e4b9d73ab3b022015fe3300becfcddb2bae181cea3bd3978a1ed5327a28262d2ba5fdbf2dcc70a00121029d7579497830319efc13880cf2f49d059fcef5ee42a69e8e6ac1d0d83c7b1d5d14490800", "vin": [{"txinwitness": ["3045022100ebe1a712173c80a40eb44a69701881f4d17c9f79a3003c2a8a8c1e4b9d73ab3b022015fe3300becfcddb2bae181cea3bd3978a1ed5327a28262d2ba5fdbf2dcc70a001", "029d7579497830319efc13880cf2f49d059fcef5ee42a69e8e6ac1d0d83c7b1d5d"], "sequence": 4294967294, "scriptSig": {"hex": "160014929566e35a7df92f10fd752136551f71aec1c594", "asm": "0014929566e35a7df92f10fd752136551f71aec1c594"}, "vout": 1, "txid": "23e26d9e211debebd33caabeeb4c270605cc7f02358508d73f249b31b4c6ae33"}], "txid": "919a5d73891916dd5ab66f76fc129f3bdb851e8c62bcb9843ad5d51340331b3c", "blocktime": 1537873891, "version": 2, "confirmations": 11475, "time": 1537873891, "locktime": 542996, "vsize": 198, "size": 280}