{"hash": "02f710c41e8a7845e1dc817e29b9edb0f93102c1e51a04cb3ff3785a25b0f773", "blockhash": "00000000000000000024a2167bbff67b0be802c0b01cdd79e6331c2be6459f87", "vout": [{"scriptPubKey": {"reqSigs": 1, "hex": "76a9141bc0024fa8ead9363040fa9356bcbaaf70394a5c88ac", "addresses": ["13XjGCdiu6G2azmfMpuEDpbpqf1hy9Shnh"], "asm": "OP_DUP OP_HASH160 1bc0024fa8ead9363040fa9356bcbaaf70394a5c OP_EQUALVERIFY OP_CHECKSIG", "type": "pubkeyhash"}, "value": 0.001, "n": 0}, {"scriptPubKey": {"reqSigs": 1, "hex": "a914627aa52932456d89054bd84f86246af3b71b93a887", "addresses": ["3Afj4stdiLG9EktGrMbm252ySonnhYaz8v"], "asm": "OP_HASH160 627aa52932456d89054bd84f86246af3b71b93a8 OP_EQUAL", "type": "scripthash"}, "value": 0.50186471, "n": 1}], "hex": "01000000000101c761a5a452d4a82de0dc9f166ca512ce36dbc4bceedb235c036eabfacf5b242701000000232200205fdd641234b13964b223bd85ad2a4a667ca2099df3d42a1d3b45706a8d81abf0ffffffff02a0860100000000001976a9141bc0024fa8ead9363040fa9356bcbaaf70394a5c88ace7c8fd020000000017a914627aa52932456d89054bd84f86246af3b71b93a887040047304402201432190fed3dc7f23f76371f4e6ba0b09c4934734676bc67f8f3981dffc89aae022075a8cfcc58f4e1c9b5fc5d285898a7c456ce7f10d82d34fbbda65db8d21b99a10147304402206c19eca30cc2b25880e300111f98fd314293c2de59d9245228bcda6bf615889302206c9761fbf8b09fc228c9546bbfd10424b93f53242fcab157c36e9bde0d7d660c0147522103dcde3832fa56def7b4e783faad1b8af85c3cdd74a5ff4f3c7c216b1075c18da12103c70ae8ded79be1afda73b9ce5ea14a3878908ee160d66a9a717e792bb6db276952ae00000000", "vin": [{"txinwitness": ["", "304402201432190fed3dc7f23f76371f4e6ba0b09c4934734676bc67f8f3981dffc89aae022075a8cfcc58f4e1c9b5fc5d285898a7c456ce7f10d82d34fbbda65db8d21b99a101", "304402206c19eca30cc2b25880e300111f98fd314293c2de59d9245228bcda6bf615889302206c9761fbf8b09fc228c9546bbfd10424b93f53242fcab157c36e9bde0d7d660c01", "522103dcde3832fa56def7b4e783faad1b8af85c3cdd74a5ff4f3c7c216b1075c18da12103c70ae8ded79be1afda73b9ce5ea14a3878908ee160d66a9a717e792bb6db276952ae"], "sequence": 4294967295, "scriptSig": {"hex": "2200205fdd641234b13964b223bd85ad2a4a667ca2099df3d42a1d3b45706a8d81abf0", "asm": "00205fdd641234b13964b223bd85ad2a4a667ca2099df3d42a1d3b45706a8d81abf0"}, "vout": 1, "txid": "27245bcffaab6e035c23dbeebcc4db36ce12a56c169fdce02da8d452a4a561c7"}], "txid": "919b6180a42a44806c2714e6e1b0ca505091531aecdd5802f69b77b7f18efd09", "blocktime": 1537870564, "version": 1, "confirmations": 11515, "time": 1537870564, "locktime": 0, "vsize": 207, "size": 372}