{"hash": "d0a3dcf8cfa774ce4aa0e74e7638cd12e0a4ecbd6a54844a429c2284a2d33421", "blockhash": "0000000000000000000baef3f32e3676a92c3b2e5da21b426e4f302fc371ce76", "vout": [{"scriptPubKey": {"reqSigs": 1, "hex": "a914748a3925bdec429363a93c40fea39f0a1fa009c387", "addresses": ["3CKDtiQEaynWF9vxRMt2MUJGrhumGAYcTG"], "asm": "OP_HASH160 748a3925bdec429363a93c40fea39f0a1fa009c3 OP_EQUAL", "type": "scripthash"}, "value": 0.0046496, "n": 0}, {"scriptPubKey": {"reqSigs": 1, "hex": "a914ddf8c9bfc6912fc8c23df85a0c7c3f346cd3a7d887", "addresses": ["3MvhJ37iRKpYnvnphfSshfgG5ky45dUz3F"], "asm": "OP_HASH160 ddf8c9bfc6912fc8c23df85a0c7c3f346cd3a7d8 OP_EQUAL", "type": "scripthash"}, "value": 0.01001968, "n": 1}], "hex": "0200000000010263b4e7b6df4f344629feac97a2b190aa1c2cd173ef514ec45500db8322f232960000000017160014b8970a511dcc2b94cae4d8d7ccb2925e315e254afeffffff84b88f37b0ffd152eab4e990e66e8e4f7095c14ecf9b9e6e2bb8dc5566a7ab0500000000171600145b761aa65eaff9168bbd34654eca1e59a5651621feffffff02401807000000000017a914748a3925bdec429363a93c40fea39f0a1fa009c387f0490f000000000017a914ddf8c9bfc6912fc8c23df85a0c7c3f346cd3a7d8870247304402205633f9447d130fd20cc3c030cc6cff68ecf08a0bc41d1d2e3f4a80783acaad8a02202faa93efa853d0b017ca3dbae6b1c9d575238e6f8e3d3c26af5b78865a42f175012103f2e7ec42f622dfc37e3bc23c7d0c40167bd7c414b9d1f5c87776e9f84e74723802483045022100c2f8c78033a41c552193778e6b8f102e3bb955415920c9fff425a8fc3d541cba02206051d858442f6c4e4ac6abe1b43ac5c9d772a28fbaed0c276f7bac426dad76fb012103f38b552344d2f958274c6f68fceeb5d1ca3d0541499f2c33d82ba5c44f83a1d417490800", "vin": [{"txinwitness": ["304402205633f9447d130fd20cc3c030cc6cff68ecf08a0bc41d1d2e3f4a80783acaad8a02202faa93efa853d0b017ca3dbae6b1c9d575238e6f8e3d3c26af5b78865a42f17501", "03f2e7ec42f622dfc37e3bc23c7d0c40167bd7c414b9d1f5c87776e9f84e747238"], "sequence": 4294967294, "scriptSig": {"hex": "160014b8970a511dcc2b94cae4d8d7ccb2925e315e254a", "asm": "0014b8970a511dcc2b94cae4d8d7ccb2925e315e254a"}, "vout": 0, "txid": "9632f22283db0055c44e51ef73d12c1caa90b1a297acfe2946344fdfb6e7b463"}, {"txinwitness": ["3045022100c2f8c78033a41c552193778e6b8f102e3bb955415920c9fff425a8fc3d541cba02206051d858442f6c4e4ac6abe1b43ac5c9d772a28fbaed0c276f7bac426dad76fb01", "03f38b552344d2f958274c6f68fceeb5d1ca3d0541499f2c33d82ba5c44f83a1d4"], "sequence": 4294967294, "scriptSig": {"hex": "1600145b761aa65eaff9168bbd34654eca1e59a5651621", "asm": "00145b761aa65eaff9168bbd34654eca1e59a5651621"}, "vout": 0, "txid": "05aba76655dcb82b6e9e9bcf4ec195704f8e6ee690e9b4ea52d1ffb0378fb884"}], "txid": "919bf765c0cc584a12770afe417268f3bbb9a56386ef14094e67f4a7af3ac73a", "blocktime": 1537876114, "version": 2, "confirmations": 11462, "time": 1537876114, "locktime": 542999, "vsize": 257, "size": 419}