{"hash": "91a7c48b8ebd6ba0ad88945d6d3a4fa1511d4a9505d6d430aab4de3e4fe2250e", "blockhash": "0000000000000000000baef3f32e3676a92c3b2e5da21b426e4f302fc371ce76", "vout": [{"scriptPubKey": {"reqSigs": 1, "hex": "76a914d243e6abb9a60fbff430b421d2df4b7d59ec186088ac", "addresses": ["1LAnF8h3qMGx3TSwNUHVneBZUEpwE4gu3D"], "asm": "OP_DUP OP_HASH160 d243e6abb9a60fbff430b421d2df4b7d59ec1860 OP_EQUALVERIFY OP_CHECKSIG", "type": "pubkeyhash"}, "value": 0.00077314, "n": 0}, {"scriptPubKey": {"reqSigs": 1, "hex": "76a914252d03ceda16aed46088ba87b6fe68636f6c489888ac", "addresses": ["14PZvnbN1BBwqPHDHYAPVzewNPAitaFjvd"], "asm": "OP_DUP OP_HASH160 252d03ceda16aed46088ba87b6fe68636f6c4898 OP_EQUALVERIFY OP_CHECKSIG", "type": "pubkeyhash"}, "value": 5.46e-06, "n": 1}, {"scriptPubKey": {"type": "nulldata", "hex": "6a146f6d6e69000000000000001f00000306e55f5fc0", "asm": "OP_RETURN 6f6d6e69000000000000001f00000306e55f5fc0"}, "value": 0.0, "n": 2}], "hex": "01000000018eec6259e502caf818ca7ac2fc96a0a81ea4551d941049d695f2a1e6879e00ae000000006a473044022026f52522f0be63f30b581a7f8aff9293cd1cdb300f8f170e15a00897fc477ec402204f9b2e944b657355dfba9e8ffb281be5fec5c2ebb757bbdc0139ec56747ce27001210271977291b74f1f5f5c42157e8aae804664eaaeccfd097918450d37f28fb94d77ffffffff03022e0100000000001976a914d243e6abb9a60fbff430b421d2df4b7d59ec186088ac22020000000000001976a914252d03ceda16aed46088ba87b6fe68636f6c489888ac0000000000000000166a146f6d6e69000000000000001f00000306e55f5fc000000000", "vin": [{"sequence": 4294967295, "scriptSig": {"hex": "473044022026f52522f0be63f30b581a7f8aff9293cd1cdb300f8f170e15a00897fc477ec402204f9b2e944b657355dfba9e8ffb281be5fec5c2ebb757bbdc0139ec56747ce27001210271977291b74f1f5f5c42157e8aae804664eaaeccfd097918450d37f28fb94d77", "asm": "3044022026f52522f0be63f30b581a7f8aff9293cd1cdb300f8f170e15a00897fc477ec402204f9b2e944b657355dfba9e8ffb281be5fec5c2ebb757bbdc0139ec56747ce270[ALL] 0271977291b74f1f5f5c42157e8aae804664eaaeccfd097918450d37f28fb94d77"}, "vout": 0, "txid": "ae009e87e6a1f295d64910941d55a41ea8a096fcc27aca18f8ca02e55962ec8e"}], "txid": "91a7c48b8ebd6ba0ad88945d6d3a4fa1511d4a9505d6d430aab4de3e4fe2250e", "blocktime": 1537876114, "version": 1, "confirmations": 11460, "time": 1537876114, "locktime": 0, "vsize": 256, "size": 256}