{"hash": "91a8026f923acf0a05c4d834456ef27ee713ddb49fa3a6edf4400efc1ce38be7", "blockhash": "00000000000000000004ffacab907a6b429b9a5745fa0b75af4234bf69dd7176", "vout": [{"scriptPubKey": {"reqSigs": 1, "hex": "76a914ccfb657e66588e673a5cc308109cc3b379cce24788ac", "addresses": ["1Kgr1U1W6e91ay1LXjQC33P1cjctK6fkEg"], "asm": "OP_DUP OP_HASH160 ccfb657e66588e673a5cc308109cc3b379cce247 OP_EQUALVERIFY OP_CHECKSIG", "type": "pubkeyhash"}, "value": 0.001, "n": 0}, {"scriptPubKey": {"reqSigs": 1, "hex": "76a914e163d073e054266d0f5e025eebd6100b0c946b5b88ac", "addresses": ["1MYkcNyCtPmxivKoMy5v5VBkv6LuBrgrAy"], "asm": "OP_DUP OP_HASH160 e163d073e054266d0f5e025eebd6100b0c946b5b OP_EQUALVERIFY OP_CHECKSIG", "type": "pubkeyhash"}, "value": 0.073351, "n": 1}], "hex": "0100000001068e16b4d7d15347bd65df94f604ec4d152a8d1cd7aa0eee54af721927276429010000006a47304402207193dd88b7c9a488a9e810e405b5ef8816e0870090d00b1b6b4f39a15743b45e022058c9ed29f8f5c2c06b1417cc1efa17f313266d3251117773ea6dd98bd65d06540121033387315522fd785dc6a3184e4f2acbd937f90409a105c06583c94e6554220085ffffffff02a0860100000000001976a914ccfb657e66588e673a5cc308109cc3b379cce24788acbcec6f00000000001976a914e163d073e054266d0f5e025eebd6100b0c946b5b88ac00000000", "vin": [{"sequence": 4294967295, "scriptSig": {"hex": "47304402207193dd88b7c9a488a9e810e405b5ef8816e0870090d00b1b6b4f39a15743b45e022058c9ed29f8f5c2c06b1417cc1efa17f313266d3251117773ea6dd98bd65d06540121033387315522fd785dc6a3184e4f2acbd937f90409a105c06583c94e6554220085", "asm": "304402207193dd88b7c9a488a9e810e405b5ef8816e0870090d00b1b6b4f39a15743b45e022058c9ed29f8f5c2c06b1417cc1efa17f313266d3251117773ea6dd98bd65d0654[ALL] 033387315522fd785dc6a3184e4f2acbd937f90409a105c06583c94e6554220085"}, "vout": 1, "txid": "296427271972af54ee0eaad71c8d2a154dec04f694df65bd4753d1d7b4168e06"}], "txid": "91a8026f923acf0a05c4d834456ef27ee713ddb49fa3a6edf4400efc1ce38be7", "blocktime": 1537875543, "version": 1, "confirmations": 11464, "time": 1537875543, "locktime": 0, "vsize": 225, "size": 225}