{"hash": "ea9d18e949a5d469ce21a431457892863f5c42c06fc763da301185b9e78b5981", "blockhash": "0000000000000000001e0dab787dd257d1dbfcb92a98c2207d5e1078be1f4165", "vout": [{"scriptPubKey": {"reqSigs": 1, "hex": "a9147540da4e075a4cdece6eb44c9ff334a92a52c7e587", "addresses": ["3CNzg341zAnRUrjWHFBUY25SgfgrGbgaBa"], "asm": "OP_HASH160 7540da4e075a4cdece6eb44c9ff334a92a52c7e5 OP_EQUAL", "type": "scripthash"}, "value": 0.00999946, "n": 0}, {"scriptPubKey": {"reqSigs": 1, "hex": "a91466a3f97632a03e294651def87167cbb825f9740287", "addresses": ["3B3jHFnHpBasUAHrxkz9xKoAaaoVTsqLrS"], "asm": "OP_HASH160 66a3f97632a03e294651def87167cbb825f97402 OP_EQUAL", "type": "scripthash"}, "value": 0.03036, "n": 1}], "hex": "02000000000101019406e006efdd5a832b4d4b2157449c8e6298456ee8c6e3deb939afd485e7190400000017160014ec25aa234463eef20f070cd7543e2980847633c5feffffff020a420f000000000017a9147540da4e075a4cdece6eb44c9ff334a92a52c7e58760532e000000000017a91466a3f97632a03e294651def87167cbb825f974028702483045022100bc5e68b93699da6c3621e706e3366d3f020a0c60fe4a256213944f047316fa5702202051656af1325f21ecc78a016e67366b63e27c643300de7234c21ed7db314bf201210337c5147232e3a06983ac3fc68b5c8923316b698c95dbfc52e05e718a7175176612490800", "vin": [{"txinwitness": ["3045022100bc5e68b93699da6c3621e706e3366d3f020a0c60fe4a256213944f047316fa5702202051656af1325f21ecc78a016e67366b63e27c643300de7234c21ed7db314bf201", "0337c5147232e3a06983ac3fc68b5c8923316b698c95dbfc52e05e718a71751766"], "sequence": 4294967294, "scriptSig": {"hex": "160014ec25aa234463eef20f070cd7543e2980847633c5", "asm": "0014ec25aa234463eef20f070cd7543e2980847633c5"}, "vout": 4, "txid": "19e785d4af39b9dee3c6e86e4598628e9c4457214b4d2b835addef06e0069401"}], "txid": "91a9fe79a79ece92fa6b8b96a614709386978bfccc8c0d65d5fa40d9395bb62c", "blocktime": 1537872475, "version": 2, "confirmations": 11486, "time": 1537872475, "locktime": 542994, "vsize": 166, "size": 248}