{"hash": "d9f55c2cc7bf97fbe6b1f7a725d9d86e8c2da91bf4909c9be94b1f9ba16a87ac", "blockhash": "0000000000000000001f76057863aec43deb6fa401d9628bb513d65a8098bfab", "vout": [{"scriptPubKey": {"reqSigs": 1, "hex": "76a91452089c7871c912f656ffb03b137f51bd9459bc3888ac", "addresses": ["18Ukj3mJPHWumMbWFMubqQAWMGz9bJgPPX"], "asm": "OP_DUP OP_HASH160 52089c7871c912f656ffb03b137f51bd9459bc38 OP_EQUALVERIFY OP_CHECKSIG", "type": "pubkeyhash"}, "value": 0.01359506, "n": 0}, {"scriptPubKey": {"reqSigs": 1, "hex": "a914003e4c67f1a44be5886a36c04d3c39cbcfde322487", "addresses": ["31iJZ7isndB6pa1CYMyDiyPJ8mARAzRND7"], "asm": "OP_HASH160 003e4c67f1a44be5886a36c04d3c39cbcfde3224 OP_EQUAL", "type": "scripthash"}, "value": 0.01004281, "n": 1}], "hex": "020000000001045bf810548b82f6133d6d5b656b58a938c19734280c231b6855ba03ecfee44f90020000001716001455282c1120eaccf10169e8eee721f0725bddeefefeffffff5d500b81072d828b3e8679e89099ca64f4286111edd7f47f90bb2e06f9fd459c1c010000171600148dabe6f12610499dcff86d4657e82c6fe8992fecfeffffffb24cbd31810540ad6d587f3f42e0fac3e6b27287fc8cc5e53d1a5164421e461b0100000017160014c9568c0474978db18bc6a9713d71fd30320b732dfeffffffcc5f4f1b8609ea6dfe097c67ec10bc9fc043cdd1c7e33c5edb263a67b6d9351f0100000017160014b7bd2cc62573416dbdca2f88cdb9bf97be4ce288feffffff0292be1400000000001976a91452089c7871c912f656ffb03b137f51bd9459bc3888acf9520f000000000017a914003e4c67f1a44be5886a36c04d3c39cbcfde32248702483045022100bdb154fe0b7126918c755f3b92f7ec9128f967ac0c31f2c3f6b17921b8ae1b9f0220272f5787e032c3a7eea8d1568f292b62e54a6d0070ac2c43dbef09c8020ccc78012103993c7e3dec4e144371a3b0463eb67e2c792db791e940a59146721f38f7e02c060247304402207af14a4f8643af0c18de94d6d0cadc3ba871204fa66bc53d21753a23934134ed0220721afdc75a1830688bf6cc07fd5bc5c8d2666dfef4044dc4fd3c2e32db1b338f0121020aed302016bdebd538d1495ce2cc7a21711723681046611a5a842318b434d77c02483045022100d89c2b006f430b3d3178646ed4fd1563b72bb7db27ad628e2b2fc8550d98034602201a82002e1ff9883f0fa722fd3b8a0927cd5a2a87a482e299ab862e8a52a972c90121038a2222d216fa2c1dddfaab2e75e61275d3dea20fc15c9b6cc933856f0be30e2d02473044022046224715664c2d378abfa3b4fc3dafa6fe87f5e64b052b8f56f367335b3c6e6f022026fe04601e409200209602c84216884e1833bc17ba2b60064c6ebaf751da37130121037f417d6bb63bebefeddbded6fdf24eb576b6b7632fb4debecacfcdfbdeb4ab6414490800", "vin": [{"txinwitness": ["3045022100bdb154fe0b7126918c755f3b92f7ec9128f967ac0c31f2c3f6b17921b8ae1b9f0220272f5787e032c3a7eea8d1568f292b62e54a6d0070ac2c43dbef09c8020ccc7801", "03993c7e3dec4e144371a3b0463eb67e2c792db791e940a59146721f38f7e02c06"], "sequence": 4294967294, "scriptSig": {"hex": "16001455282c1120eaccf10169e8eee721f0725bddeefe", "asm": "001455282c1120eaccf10169e8eee721f0725bddeefe"}, "vout": 2, "txid": "904fe4feec03ba55681b230c283497c138a9586b655b6d3d13f6828b5410f85b"}, {"txinwitness": ["304402207af14a4f8643af0c18de94d6d0cadc3ba871204fa66bc53d21753a23934134ed0220721afdc75a1830688bf6cc07fd5bc5c8d2666dfef4044dc4fd3c2e32db1b338f01", "020aed302016bdebd538d1495ce2cc7a21711723681046611a5a842318b434d77c"], "sequence": 4294967294, "scriptSig": {"hex": "1600148dabe6f12610499dcff86d4657e82c6fe8992fec", "asm": "00148dabe6f12610499dcff86d4657e82c6fe8992fec"}, "vout": 284, "txid": "9c45fdf9062ebb907ff4d7ed116128f464ca9990e879863e8b822d07810b505d"}, {"txinwitness": ["3045022100d89c2b006f430b3d3178646ed4fd1563b72bb7db27ad628e2b2fc8550d98034602201a82002e1ff9883f0fa722fd3b8a0927cd5a2a87a482e299ab862e8a52a972c901", "038a2222d216fa2c1dddfaab2e75e61275d3dea20fc15c9b6cc933856f0be30e2d"], "sequence": 4294967294, "scriptSig": {"hex": "160014c9568c0474978db18bc6a9713d71fd30320b732d", "asm": "0014c9568c0474978db18bc6a9713d71fd30320b732d"}, "vout": 1, "txid": "1b461e4264511a3de5c58cfc8772b2e6c3fae0423f7f586dad40058131bd4cb2"}, {"txinwitness": ["3044022046224715664c2d378abfa3b4fc3dafa6fe87f5e64b052b8f56f367335b3c6e6f022026fe04601e409200209602c84216884e1833bc17ba2b60064c6ebaf751da371301", "037f417d6bb63bebefeddbded6fdf24eb576b6b7632fb4debecacfcdfbdeb4ab64"], "sequence": 4294967294, "scriptSig": {"hex": "160014b7bd2cc62573416dbdca2f88cdb9bf97be4ce288", "asm": "0014b7bd2cc62573416dbdca2f88cdb9bf97be4ce288"}, "vout": 1, "txid": "1f35d9b6673a26db5e3ce3c7d1cd43c09fbc10ec677c09fe6dea09861b4f5fcc"}], "txid": "91b2446522515796fa4b6fb4a1d2692f9660322e1449763acc4ee31c038532de", "blocktime": 1537873891, "version": 2, "confirmations": 11479, "time": 1537873891, "locktime": 542996, "vsize": 440, "size": 764}