{"hash": "91b35cc70ad55c78f17480e596dfc4f0f7ce7670105d84f1d3f18dd76cb41788", "blockhash": "00000000000000000017f5eb5941039fbcee6240d03bc1f2f8e35350df66a1d8", "vout": [{"scriptPubKey": {"reqSigs": 1, "hex": "76a9148ae31d70dc898116adbe948ae4f88caf50e1eeca88ac", "addresses": ["1DfNKhaihw1ZRc5o4uHSEawqck1KBsPxtY"], "asm": "OP_DUP OP_HASH160 8ae31d70dc898116adbe948ae4f88caf50e1eeca OP_EQUALVERIFY OP_CHECKSIG", "type": "pubkeyhash"}, "value": 0.0036126, "n": 0}, {"scriptPubKey": {"reqSigs": 1, "hex": "76a9141867b5e6798b13d821f216012eda60ae8f309e8788ac", "addresses": ["13E3TYGefJJPYSnCVT4vTrHjCtTtGx1NR1"], "asm": "OP_DUP OP_HASH160 1867b5e6798b13d821f216012eda60ae8f309e87 OP_EQUALVERIFY OP_CHECKSIG", "type": "pubkeyhash"}, "value": 0.03166288, "n": 1}], "hex": "01000000017143e175aff7e7fe56cc58e7b7b6d0578ace278f6f1732f544ae83241ac830c8000000006a473044022009d2ad56fa801cb026ce4d81c76066858f20fc8d58c1b31c34a4598f306733bc0220334f2c829edb4527a72cf255a6d0af4420b756a25e387eddc1f47c56b1dca18801210284b9746e651b9032279c7d7a51853fc855f2d8f387ac3c6daf68cd6d0a06064dffffffff022c830500000000001976a9148ae31d70dc898116adbe948ae4f88caf50e1eeca88ac50503000000000001976a9141867b5e6798b13d821f216012eda60ae8f309e8788ac00000000", "vin": [{"sequence": 4294967295, "scriptSig": {"hex": "473044022009d2ad56fa801cb026ce4d81c76066858f20fc8d58c1b31c34a4598f306733bc0220334f2c829edb4527a72cf255a6d0af4420b756a25e387eddc1f47c56b1dca18801210284b9746e651b9032279c7d7a51853fc855f2d8f387ac3c6daf68cd6d0a06064d", "asm": "3044022009d2ad56fa801cb026ce4d81c76066858f20fc8d58c1b31c34a4598f306733bc0220334f2c829edb4527a72cf255a6d0af4420b756a25e387eddc1f47c56b1dca188[ALL] 0284b9746e651b9032279c7d7a51853fc855f2d8f387ac3c6daf68cd6d0a06064d"}, "vout": 0, "txid": "c830c81a2483ae44f532176f8f27ce8a57d0b6b7e758cc56fee7f7af75e14371"}], "txid": "91b35cc70ad55c78f17480e596dfc4f0f7ce7670105d84f1d3f18dd76cb41788", "blocktime": 1537874412, "version": 1, "confirmations": 11466, "time": 1537874412, "locktime": 0, "vsize": 225, "size": 225}