{"hash": "91b4d9ad8937551fbabab705652334955defb9d1de39f9c8cae5a2e64520e44b", "blockhash": "0000000000000000000e13cef7c366c0283d82e591d1acd082e914b08063cdf1", "vout": [{"scriptPubKey": {"reqSigs": 1, "hex": "76a9143aed92a02c57b2d8655f74c9acc257edff9b071e88ac", "addresses": ["16NanyJM7EtYrMPxmVnBsTYR8niibJjgdu"], "asm": "OP_DUP OP_HASH160 3aed92a02c57b2d8655f74c9acc257edff9b071e OP_EQUALVERIFY OP_CHECKSIG", "type": "pubkeyhash"}, "value": 0.11763246, "n": 0}, {"scriptPubKey": {"reqSigs": 1, "hex": "76a914549b49541dc1ca923b4d505c1bb8805c353ae41f88ac", "addresses": ["18iMnc5MVrnmbE6pMPzYpC9N6GEqYuhcZP"], "asm": "OP_DUP OP_HASH160 549b49541dc1ca923b4d505c1bb8805c353ae41f OP_EQUALVERIFY OP_CHECKSIG", "type": "pubkeyhash"}, "value": 0.7175342, "n": 1}], "hex": "01000000018afb843a9f89a336b3c3ad064443390526c748e74921611eabad4b70cbe388a3010000006a47304402206a3b3856c1341fe92486d77b12726df0fa77165f171deb8054bcce657e01228a022060ef31fe2dff7af19c66ef86d9723fc78868414758de272af68c75b9293d7a130121023c0764f8273d0abf324b2f353fe546452f8072a08783323f32c8bf94c9bca6a4ffffffff022e7eb300000000001976a9143aed92a02c57b2d8655f74c9acc257edff9b071e88acccde4604000000001976a914549b49541dc1ca923b4d505c1bb8805c353ae41f88ac00000000", "vin": [{"sequence": 4294967295, "scriptSig": {"hex": "47304402206a3b3856c1341fe92486d77b12726df0fa77165f171deb8054bcce657e01228a022060ef31fe2dff7af19c66ef86d9723fc78868414758de272af68c75b9293d7a130121023c0764f8273d0abf324b2f353fe546452f8072a08783323f32c8bf94c9bca6a4", "asm": "304402206a3b3856c1341fe92486d77b12726df0fa77165f171deb8054bcce657e01228a022060ef31fe2dff7af19c66ef86d9723fc78868414758de272af68c75b9293d7a13[ALL] 023c0764f8273d0abf324b2f353fe546452f8072a08783323f32c8bf94c9bca6a4"}, "vout": 1, "txid": "a388e3cb704badab1e612149e748c7260539434406adc3b336a3899f3a84fb8a"}], "txid": "91b4d9ad8937551fbabab705652334955defb9d1de39f9c8cae5a2e64520e44b", "blocktime": 1537871767, "version": 1, "confirmations": 11495, "time": 1537871767, "locktime": 0, "vsize": 225, "size": 225}