{"hash": "50542f04e3f47abce96ad435ae8f3035112c8778a9d16012ce3ab63d47032396", "blockhash": "00000000000000000017f5eb5941039fbcee6240d03bc1f2f8e35350df66a1d8", "vout": [{"scriptPubKey": {"reqSigs": 1, "hex": "a9146e6dce14a6aedd51a25f4d25ba66a39d64faca0487", "addresses": ["3Bkuo2idbUB9UGyd87QsTqvvvsYCn7Kb64"], "asm": "OP_HASH160 6e6dce14a6aedd51a25f4d25ba66a39d64faca04 OP_EQUAL", "type": "scripthash"}, "value": 0.03723438, "n": 0}, {"scriptPubKey": {"reqSigs": 1, "hex": "a914a32fa24cc29c34f3c1f7881bd324c454de55d66c87", "addresses": ["3GZs8Uki4LVdnoTyBbMk4XhKDGXqGRhVSs"], "asm": "OP_HASH160 a32fa24cc29c34f3c1f7881bd324c454de55d66c OP_EQUAL", "type": "scripthash"}, "value": 1.07320111, "n": 1}], "hex": "02000000000101c92451e4501dc7fe29e4e388c3b61d4b0391485a1b5d6690eeab51cab49c15570000000017160014ec5e0773633c887c5d1baa260271619cc82d8c39feffffff02aed038000000000017a9146e6dce14a6aedd51a25f4d25ba66a39d64faca04872f9365060000000017a914a32fa24cc29c34f3c1f7881bd324c454de55d66c8702483045022100c43626509819163b43fcf95ac0d7f5605c3fc3232d8cb41037c3d3e3aea3fd31022044d913ee00fa743f1b24a866b8aa9b8e42119605c61694608aee03e26fcbce40012103b9cf63c886057ba9e2d3e45d94d4d338b2609aa90023f7b12886c09505a99fe4c6480800", "vin": [{"txinwitness": ["3045022100c43626509819163b43fcf95ac0d7f5605c3fc3232d8cb41037c3d3e3aea3fd31022044d913ee00fa743f1b24a866b8aa9b8e42119605c61694608aee03e26fcbce4001", "03b9cf63c886057ba9e2d3e45d94d4d338b2609aa90023f7b12886c09505a99fe4"], "sequence": 4294967294, "scriptSig": {"hex": "160014ec5e0773633c887c5d1baa260271619cc82d8c39", "asm": "0014ec5e0773633c887c5d1baa260271619cc82d8c39"}, "vout": 0, "txid": "57159cb4ca51abee90665d1b5a4891034b1db6c388e3e429fec71d50e45124c9"}], "txid": "91c0db2a73f228b478714fe4eb7bb42c7cb71e0078eb9ce643b92535f35b1a9a", "blocktime": 1537874412, "version": 2, "confirmations": 11466, "time": 1537874412, "locktime": 542918, "vsize": 166, "size": 248}