{"hash": "91cd8f3a57a7e85fc6dce8addb015d79393ad1a75956c1fd1a80191f79a12da8", "blockhash": "0000000000000000001cda96e906b7601b7a6fb1a3b62bca570a9e5d8f4b3de1", "vout": [{"scriptPubKey": {"reqSigs": 1, "hex": "76a914ba00f11167f23a3d69c861593627eca00fb63bbb88ac", "addresses": ["1HxVp7KZMiek5zLNTpVyXgxMscG36GMy3s"], "asm": "OP_DUP OP_HASH160 ba00f11167f23a3d69c861593627eca00fb63bbb OP_EQUALVERIFY OP_CHECKSIG", "type": "pubkeyhash"}, "value": 0.0147378, "n": 0}, {"scriptPubKey": {"type": "nulldata", "hex": "6a4c50000077cc00011fd98323c298a2716baafe825b23cc0f42c2fc38c5e5bf9ae76da98a211a4361990d2ae22babf8c3122f1191b9115baa13e90613397824270e01bc9a9526289ac0f6612cd74e33776ee4", "asm": "OP_RETURN 000077cc00011fd98323c298a2716baafe825b23cc0f42c2fc38c5e5bf9ae76da98a211a4361990d2ae22babf8c3122f1191b9115baa13e90613397824270e01bc9a9526289ac0f6612cd74e33776ee4"}, "value": 0.0, "n": 1}], "hex": "01000000017a94b7d5538b2d09c9289970d1ab7071bf36c4cb650efe4285fe2ecda0e72307010000006a47304402205c8b61d9bb270c01f9948e788b74ece0f22d0b243a6873f059fa4b26e8d5d70d02201d4f21a52e80de33dfcac9ee62d6b6e81fcbf797ad9fad71b56f6366d738439e01210340e86cdd448bc2c9019a35fee8d516d4dc08e5101ecdbac46dd2f2f5e60ca092ffffffff02f47c1600000000001976a914ba00f11167f23a3d69c861593627eca00fb63bbb88ac0000000000000000536a4c50000077cc00011fd98323c298a2716baafe825b23cc0f42c2fc38c5e5bf9ae76da98a211a4361990d2ae22babf8c3122f1191b9115baa13e90613397824270e01bc9a9526289ac0f6612cd74e33776ee400000000", "vin": [{"sequence": 4294967295, "scriptSig": {"hex": "47304402205c8b61d9bb270c01f9948e788b74ece0f22d0b243a6873f059fa4b26e8d5d70d02201d4f21a52e80de33dfcac9ee62d6b6e81fcbf797ad9fad71b56f6366d738439e01210340e86cdd448bc2c9019a35fee8d516d4dc08e5101ecdbac46dd2f2f5e60ca092", "asm": "304402205c8b61d9bb270c01f9948e788b74ece0f22d0b243a6873f059fa4b26e8d5d70d02201d4f21a52e80de33dfcac9ee62d6b6e81fcbf797ad9fad71b56f6366d738439e[ALL] 0340e86cdd448bc2c9019a35fee8d516d4dc08e5101ecdbac46dd2f2f5e60ca092"}, "vout": 1, "txid": "0723e7a0cd2efe8542fe0e65cbc436bf7170abd1709928c9092d8b53d5b7947a"}], "txid": "91cd8f3a57a7e85fc6dce8addb015d79393ad1a75956c1fd1a80191f79a12da8", "blocktime": 1537873282, "version": 1, "confirmations": 11484, "time": 1537873282, "locktime": 0, "vsize": 283, "size": 283}