{"hash": "91ce2ba234235a53c55b0a9c453f43eb2d65b0194ada9e5620bc5673c3ac7be8", "blockhash": "0000000000000000000e13cef7c366c0283d82e591d1acd082e914b08063cdf1", "vout": [{"scriptPubKey": {"type": "nulldata", "hex": "6a4c500000779f00011bbada52bea64deb80d417c6af6c953dd567cf27e7e3ef3236678a6250976338b0447b36ee276d347b71a7e1b8ac5baa0e0e061705ecdd3a27bcbc9a9526289ac0f6612cd74e33776ee4", "asm": "OP_RETURN 0000779f00011bbada52bea64deb80d417c6af6c953dd567cf27e7e3ef3236678a6250976338b0447b36ee276d347b71a7e1b8ac5baa0e0e061705ecdd3a27bcbc9a9526289ac0f6612cd74e33776ee4"}, "value": 0.0, "n": 0}, {"scriptPubKey": {"reqSigs": 1, "hex": "76a914e508c8ad86dc0be3ab3c90e7a9633622917fa93088ac", "addresses": ["1Mt2GFDU729nWoRGaBmtNdsLbLnpFsGYog"], "asm": "OP_DUP OP_HASH160 e508c8ad86dc0be3ab3c90e7a9633622917fa930 OP_EQUALVERIFY OP_CHECKSIG", "type": "pubkeyhash"}, "value": 0.00122724, "n": 1}], "hex": "0100000001fced07b1447709349138552bc25e7df41b520e0272b7be4c3ec7c61de71386ce000000006a47304402205dfa23ba9220fa6e332a19a3f7398a7a3d87796862f426fb6eb1ddcc557174110220764ad2ea833cbaf87a3e9a4334d5686f3c60a1589a09e14d7ddb6392b411f94f0121032822237c2a8e9160075f35543874ae65e92745220f8ac089861fd30e19bb10fbffffffff020000000000000000536a4c500000779f00011bbada52bea64deb80d417c6af6c953dd567cf27e7e3ef3236678a6250976338b0447b36ee276d347b71a7e1b8ac5baa0e0e061705ecdd3a27bcbc9a9526289ac0f6612cd74e33776ee464df0100000000001976a914e508c8ad86dc0be3ab3c90e7a9633622917fa93088ac00000000", "vin": [{"sequence": 4294967295, "scriptSig": {"hex": "47304402205dfa23ba9220fa6e332a19a3f7398a7a3d87796862f426fb6eb1ddcc557174110220764ad2ea833cbaf87a3e9a4334d5686f3c60a1589a09e14d7ddb6392b411f94f0121032822237c2a8e9160075f35543874ae65e92745220f8ac089861fd30e19bb10fb", "asm": "304402205dfa23ba9220fa6e332a19a3f7398a7a3d87796862f426fb6eb1ddcc557174110220764ad2ea833cbaf87a3e9a4334d5686f3c60a1589a09e14d7ddb6392b411f94f[ALL] 032822237c2a8e9160075f35543874ae65e92745220f8ac089861fd30e19bb10fb"}, "vout": 0, "txid": "ce8613e71dc6c73e4cbeb772020e521bf47d5ec22b55389134097744b107edfc"}], "txid": "91ce2ba234235a53c55b0a9c453f43eb2d65b0194ada9e5620bc5673c3ac7be8", "blocktime": 1537871767, "version": 1, "confirmations": 11493, "time": 1537871767, "locktime": 0, "vsize": 283, "size": 283}