{"hash": "91d317c0576636e7b3bb20d0bcaa152ca53e57d3ef1972a8bec25d4af7be29f1", "blockhash": "00000000000000000018f53835495a110e01622372bf6ae95dc86f2b0ab887b0", "vout": [{"scriptPubKey": {"reqSigs": 1, "hex": "76a91455c11d68181a2bf2a1148168c272c58e4213243a88ac", "addresses": ["18pRnAPpdMSk2uEQYKb9Ji8PsnCdVK36rE"], "asm": "OP_DUP OP_HASH160 55c11d68181a2bf2a1148168c272c58e4213243a OP_EQUALVERIFY OP_CHECKSIG", "type": "pubkeyhash"}, "value": 0.01371, "n": 0}, {"scriptPubKey": {"reqSigs": 1, "hex": "a914e370231feecbfc25e2e2423a5a79bf79bfdca59887", "addresses": ["3NRbeX3vD5VaVE4TDU9ivCDsEf7NPPte6J"], "asm": "OP_HASH160 e370231feecbfc25e2e2423a5a79bf79bfdca598 OP_EQUAL", "type": "scripthash"}, "value": 3.41249399, "n": 1}], "hex": "01000000014b4a9a50297642f950fd931394078b7c260c7779c7168bf53b1c37a6740a333101000000da00483045022100fa2651f837cb62025eeb69676ed8f8b62ed7df728f41baa67b4c66b7f00c325902202da405910ce52fbaad120c06079087b073954012afb6a47c4740482f535b87d001473044022062e15a7243b33302b8953c7a25bea526ee669642d9e4d6d8fcca8461df7d574502207cfafd465a7f9901840b6012d9e3a88e8a7d1e3a5778502e3f4069f3dd3399d0014752210327881b6abce6535553a3ce21fad12a7d74fd237ce7c4cd270a267162344e3082210256141f8eb687f5a68c5cc65054652dc25116fa285e44d72b44368827ffe77d9a52aeffffffff0278eb1400000000001976a91455c11d68181a2bf2a1148168c272c58e4213243a88ac770d57140000000017a914e370231feecbfc25e2e2423a5a79bf79bfdca5988700000000", "vin": [{"sequence": 4294967295, "scriptSig": {"hex": "00483045022100fa2651f837cb62025eeb69676ed8f8b62ed7df728f41baa67b4c66b7f00c325902202da405910ce52fbaad120c06079087b073954012afb6a47c4740482f535b87d001473044022062e15a7243b33302b8953c7a25bea526ee669642d9e4d6d8fcca8461df7d574502207cfafd465a7f9901840b6012d9e3a88e8a7d1e3a5778502e3f4069f3dd3399d0014752210327881b6abce6535553a3ce21fad12a7d74fd237ce7c4cd270a267162344e3082210256141f8eb687f5a68c5cc65054652dc25116fa285e44d72b44368827ffe77d9a52ae", "asm": "0 3045022100fa2651f837cb62025eeb69676ed8f8b62ed7df728f41baa67b4c66b7f00c325902202da405910ce52fbaad120c06079087b073954012afb6a47c4740482f535b87d0[ALL] 3044022062e15a7243b33302b8953c7a25bea526ee669642d9e4d6d8fcca8461df7d574502207cfafd465a7f9901840b6012d9e3a88e8a7d1e3a5778502e3f4069f3dd3399d0[ALL] 52210327881b6abce6535553a3ce21fad12a7d74fd237ce7c4cd270a267162344e3082210256141f8eb687f5a68c5cc65054652dc25116fa285e44d72b44368827ffe77d9a52ae"}, "vout": 1, "txid": "31330a74a6371c3bf58b16c779770c267c8b07941393fd50f9427629509a4a4b"}], "txid": "91d317c0576636e7b3bb20d0bcaa152ca53e57d3ef1972a8bec25d4af7be29f1", "blocktime": 1537870928, "version": 1, "confirmations": 11514, "time": 1537870928, "locktime": 0, "vsize": 335, "size": 335}