{"hash": "91d371d79e96a63750b2c3f98bf2455cfb904c82421a66355fdc3f1c3903a10a", "blockhash": "0000000000000000001f76057863aec43deb6fa401d9628bb513d65a8098bfab", "vout": [{"scriptPubKey": {"reqSigs": 1, "hex": "76a91477d7324704e6f664cf24305be16472db2034b54288ac", "addresses": ["1BvfCwGCjpig3jCKM5f87bsY2JWn56cJxQ"], "asm": "OP_DUP OP_HASH160 77d7324704e6f664cf24305be16472db2034b542 OP_EQUALVERIFY OP_CHECKSIG", "type": "pubkeyhash"}, "value": 0.01089058, "n": 0}, {"scriptPubKey": {"reqSigs": 1, "hex": "76a9147c2026f8b048a0151709fb8cea0e318d8dc5314188ac", "addresses": ["1CKKJmGW4fMaAYzQWfPLFdXWgiwGVBReKH"], "asm": "OP_DUP OP_HASH160 7c2026f8b048a0151709fb8cea0e318d8dc53141 OP_EQUALVERIFY OP_CHECKSIG", "type": "pubkeyhash"}, "value": 0.00825076, "n": 1}], "hex": "0200000003234c81a8c6528b7967d8e9180f046798916d90f3710d0b91cb43a9101350ceaf010000006b4830450221008f90a4279cd7270b4b89a6581100e386de3bdb8679af1e7e3c4490b1293860f302202b6993fc9fdbcafd2b26339d1391e5b19631cfc83d1c40c9c3036a84743ebd63012103a7a860920f0ecb09357deb410529e1221d87b87d34cb62b74e2660d8b7d39dacfeffffff54617e24af4fc39f328727624bc69bba3c5d65566f5acaa5dd4db91fd7fee542030000006b483045022100850d655db3e3d45cebeb1dae6be17a49b337c3ae8884b0f67c68e0519a99fb6c02200b2d6fc2634f9d71e3d66baff339175189fd8260331098707ef716a438dd7ba9012102a9cabdedfbba7ee7b79f612166e3837b5af3cf9fed3957365d8b1beb145b4dfafeffffff1399524d19c9aa8787cf7c9bf8d3465e78fe9815b7d489f4871a19f2e6132661010000006b483045022100ba960b57d163c6924df5e623bac2d347a1fb81b50c8642a8f819fd76ed27b668022056a3a0894e550471972c1fd7776f51adae949e9084aeccdd67d2670838c95ac501210346322ff94802d7e5d9730aac11ec13184cf4d36d41525511b1ca4131bbad5e27feffffff02229e1000000000001976a91477d7324704e6f664cf24305be16472db2034b54288acf4960c00000000001976a9147c2026f8b048a0151709fb8cea0e318d8dc5314188ac13490800", "vin": [{"sequence": 4294967294, "scriptSig": {"hex": "4830450221008f90a4279cd7270b4b89a6581100e386de3bdb8679af1e7e3c4490b1293860f302202b6993fc9fdbcafd2b26339d1391e5b19631cfc83d1c40c9c3036a84743ebd63012103a7a860920f0ecb09357deb410529e1221d87b87d34cb62b74e2660d8b7d39dac", "asm": "30450221008f90a4279cd7270b4b89a6581100e386de3bdb8679af1e7e3c4490b1293860f302202b6993fc9fdbcafd2b26339d1391e5b19631cfc83d1c40c9c3036a84743ebd63[ALL] 03a7a860920f0ecb09357deb410529e1221d87b87d34cb62b74e2660d8b7d39dac"}, "vout": 1, "txid": "afce501310a943cb910b0d71f3906d919867040f18e9d867798b52c6a8814c23"}, {"sequence": 4294967294, "scriptSig": {"hex": "483045022100850d655db3e3d45cebeb1dae6be17a49b337c3ae8884b0f67c68e0519a99fb6c02200b2d6fc2634f9d71e3d66baff339175189fd8260331098707ef716a438dd7ba9012102a9cabdedfbba7ee7b79f612166e3837b5af3cf9fed3957365d8b1beb145b4dfa", "asm": "3045022100850d655db3e3d45cebeb1dae6be17a49b337c3ae8884b0f67c68e0519a99fb6c02200b2d6fc2634f9d71e3d66baff339175189fd8260331098707ef716a438dd7ba9[ALL] 02a9cabdedfbba7ee7b79f612166e3837b5af3cf9fed3957365d8b1beb145b4dfa"}, "vout": 3, "txid": "42e5fed71fb94ddda5ca5a6f56655d3cba9bc64b622787329fc34faf247e6154"}, {"sequence": 4294967294, "scriptSig": {"hex": "483045022100ba960b57d163c6924df5e623bac2d347a1fb81b50c8642a8f819fd76ed27b668022056a3a0894e550471972c1fd7776f51adae949e9084aeccdd67d2670838c95ac501210346322ff94802d7e5d9730aac11ec13184cf4d36d41525511b1ca4131bbad5e27", "asm": "3045022100ba960b57d163c6924df5e623bac2d347a1fb81b50c8642a8f819fd76ed27b668022056a3a0894e550471972c1fd7776f51adae949e9084aeccdd67d2670838c95ac5[ALL] 0346322ff94802d7e5d9730aac11ec13184cf4d36d41525511b1ca4131bbad5e27"}, "vout": 1, "txid": "612613e6f2191a87f489d4b71598fe785e46d3f89b7ccf8787aac9194d529913"}], "txid": "91d371d79e96a63750b2c3f98bf2455cfb904c82421a66355fdc3f1c3903a10a", "blocktime": 1537873891, "version": 2, "confirmations": 11478, "time": 1537873891, "locktime": 542995, "vsize": 522, "size": 522}