{"hash": "91d490d0a68e6a4f0cff504853fc58048b10dc85272705c57fce8a32a2f3fa90", "blockhash": "0000000000000000001cda96e906b7601b7a6fb1a3b62bca570a9e5d8f4b3de1", "vout": [{"scriptPubKey": {"reqSigs": 1, "hex": "a914fd0f3da577e391ddae124d7e944e955859c3b00387", "addresses": ["3Qm592VoxourbdLPwtGcTBsWMU5cxiuysf"], "asm": "OP_HASH160 fd0f3da577e391ddae124d7e944e955859c3b003 OP_EQUAL", "type": "scripthash"}, "value": 5.46e-06, "n": 0}, {"scriptPubKey": {"reqSigs": 1, "hex": "76a914a520c86a08366941cd90d22e11ac1c7eefa2db3788ac", "addresses": ["1G47mSr3oANXMafVrR8UC4pzV7FEAzo3r9"], "asm": "OP_DUP OP_HASH160 a520c86a08366941cd90d22e11ac1c7eefa2db37 OP_EQUALVERIFY OP_CHECKSIG", "type": "pubkeyhash"}, "value": 0.68061126, "n": 1}, {"scriptPubKey": {"type": "nulldata", "hex": "6a146f6d6e69000000000000001f0000021df5bb4d00", "asm": "OP_RETURN 6f6d6e69000000000000001f0000021df5bb4d00"}, "value": 0.0, "n": 2}], "hex": "01000000016165d9d85cdcfe87a6b1b0d8d0849b3e75e541b2f524f70fb7790377b5557775010000006b48304502210092ebcc93b35910ea7be20e8f87ad20989cd2cf10681efb28c4f7852ba3cc3c2002205e04bd2ab00ceff18c3268af4d9659fdcbdf71217ab89513aa23d7f6e3472d9b012103f3f44c9e80e2cedc1a2909631a3adea8866ee32187f74d0912387359b0ff36a2ffffffff03220200000000000017a914fd0f3da577e391ddae124d7e944e955859c3b00387c6870e04000000001976a914a520c86a08366941cd90d22e11ac1c7eefa2db3788ac0000000000000000166a146f6d6e69000000000000001f0000021df5bb4d0000000000", "vin": [{"sequence": 4294967295, "scriptSig": {"hex": "48304502210092ebcc93b35910ea7be20e8f87ad20989cd2cf10681efb28c4f7852ba3cc3c2002205e04bd2ab00ceff18c3268af4d9659fdcbdf71217ab89513aa23d7f6e3472d9b012103f3f44c9e80e2cedc1a2909631a3adea8866ee32187f74d0912387359b0ff36a2", "asm": "304502210092ebcc93b35910ea7be20e8f87ad20989cd2cf10681efb28c4f7852ba3cc3c2002205e04bd2ab00ceff18c3268af4d9659fdcbdf71217ab89513aa23d7f6e3472d9b[ALL] 03f3f44c9e80e2cedc1a2909631a3adea8866ee32187f74d0912387359b0ff36a2"}, "vout": 1, "txid": "757755b5770379b70ff724f5b241e5753e9b84d0d8b0b1a687fedc5cd8d96561"}], "txid": "91d490d0a68e6a4f0cff504853fc58048b10dc85272705c57fce8a32a2f3fa90", "blocktime": 1537873282, "version": 1, "confirmations": 11482, "time": 1537873282, "locktime": 0, "vsize": 255, "size": 255}