{"hash": "91db77d21162f38b0475200711de519027601d95d0e5ac5a04a7f474f54dca55", "blockhash": "00000000000000000024a2167bbff67b0be802c0b01cdd79e6331c2be6459f87", "vout": [{"scriptPubKey": {"reqSigs": 1, "hex": "76a914bd87db081c6d986e6abd734dbfa2e8501ae5945588ac", "addresses": ["1JH9TfkA4Rvjfhx4CFv4nbjYYLgwoCQJ7D"], "asm": "OP_DUP OP_HASH160 bd87db081c6d986e6abd734dbfa2e8501ae59455 OP_EQUALVERIFY OP_CHECKSIG", "type": "pubkeyhash"}, "value": 0.0093504, "n": 0}, {"scriptPubKey": {"reqSigs": 1, "hex": "76a91469db30592fe429d5568a65fc57d3dc0a220b434488ac", "addresses": ["1AeiXemmgVXiM2NSNbx91D545eHm6REhCV"], "asm": "OP_DUP OP_HASH160 69db30592fe429d5568a65fc57d3dc0a220b4344 OP_EQUALVERIFY OP_CHECKSIG", "type": "pubkeyhash"}, "value": 0.14632258, "n": 1}], "hex": "01000000017e54718e996d96e48d55d2cb5ea39ee577b1edac741e2cedc218ab2bfbf029b5010000006b483045022100a54d6eb5683ae4f70e2543b9462bc5b4b4aa6944637534106f5b385dc301608402204f9edf5cf8ddea90f413a44c11fa3087768aa5c0de331555df8caa915917b672012102492784153f94bb083c93a1e7d5ae635f28c6b785d8e91058b8c8c012cb87d196ffffffff0280440e00000000001976a914bd87db081c6d986e6abd734dbfa2e8501ae5945588ac4245df00000000001976a91469db30592fe429d5568a65fc57d3dc0a220b434488ac00000000", "vin": [{"sequence": 4294967295, "scriptSig": {"hex": "483045022100a54d6eb5683ae4f70e2543b9462bc5b4b4aa6944637534106f5b385dc301608402204f9edf5cf8ddea90f413a44c11fa3087768aa5c0de331555df8caa915917b672012102492784153f94bb083c93a1e7d5ae635f28c6b785d8e91058b8c8c012cb87d196", "asm": "3045022100a54d6eb5683ae4f70e2543b9462bc5b4b4aa6944637534106f5b385dc301608402204f9edf5cf8ddea90f413a44c11fa3087768aa5c0de331555df8caa915917b672[ALL] 02492784153f94bb083c93a1e7d5ae635f28c6b785d8e91058b8c8c012cb87d196"}, "vout": 1, "txid": "b529f0fb2bab18c2ed2c1e74acedb177e59ea35ecbd2558de4966d998e71547e"}], "txid": "91db77d21162f38b0475200711de519027601d95d0e5ac5a04a7f474f54dca55", "blocktime": 1537870564, "version": 1, "confirmations": 11515, "time": 1537870564, "locktime": 0, "vsize": 226, "size": 226}