{"hash": "91e650a94b9a313d4ddb1c97ccaa04888ed443f5eda6b8ec34a558ff2c825927", "blockhash": "0000000000000000001e0dab787dd257d1dbfcb92a98c2207d5e1078be1f4165", "vout": [{"scriptPubKey": {"reqSigs": 1, "hex": "76a914190564e0369e71e62c98cfd68929d5f80ea42da088ac", "addresses": ["13HJMagMEiGbm9wjZEuwJcSXNtmcdN5tkc"], "asm": "OP_DUP OP_HASH160 190564e0369e71e62c98cfd68929d5f80ea42da0 OP_EQUALVERIFY OP_CHECKSIG", "type": "pubkeyhash"}, "value": 0.04979, "n": 0}], "hex": "01000000014b9b00461531341eb990683428e0f5dd5e36b91122a48588ff7791a2b6f39705050000006b483045022100bc5b942b5b989557fcd919a552dac5e8068774f1c487b53220bfb5e550a3a448022078eb503baab22a197692865bc8d0fb5225175dc429f9a589f08a58f3a9891825012102c8bd550e9f5ba52a93911104e6da24f2665af45a664dfacef6b5fb3c6bce2bbfffffffff0138f94b00000000001976a914190564e0369e71e62c98cfd68929d5f80ea42da088ac00000000", "vin": [{"sequence": 4294967295, "scriptSig": {"hex": "483045022100bc5b942b5b989557fcd919a552dac5e8068774f1c487b53220bfb5e550a3a448022078eb503baab22a197692865bc8d0fb5225175dc429f9a589f08a58f3a9891825012102c8bd550e9f5ba52a93911104e6da24f2665af45a664dfacef6b5fb3c6bce2bbf", "asm": "3045022100bc5b942b5b989557fcd919a552dac5e8068774f1c487b53220bfb5e550a3a448022078eb503baab22a197692865bc8d0fb5225175dc429f9a589f08a58f3a9891825[ALL] 02c8bd550e9f5ba52a93911104e6da24f2665af45a664dfacef6b5fb3c6bce2bbf"}, "vout": 5, "txid": "0597f3b6a29177ff8885a42211b9365eddf5e028346890b91e34311546009b4b"}], "txid": "91e650a94b9a313d4ddb1c97ccaa04888ed443f5eda6b8ec34a558ff2c825927", "blocktime": 1537872475, "version": 1, "confirmations": 11486, "time": 1537872475, "locktime": 0, "vsize": 192, "size": 192}