{"hash": "cdba4769e5239932587f53316bd7201a8081f12913a2bc8bafd8981164376256", "blockhash": "0000000000000000000e13cef7c366c0283d82e591d1acd082e914b08063cdf1", "vout": [{"scriptPubKey": {"reqSigs": 1, "hex": "a91488e8b2a990de51f63ca36573e15b1bcc1473092d87", "addresses": ["3EAvamPpRqhwLXevQC5y3x9H7yE5DJ5PX1"], "asm": "OP_HASH160 88e8b2a990de51f63ca36573e15b1bcc1473092d OP_EQUAL", "type": "scripthash"}, "value": 0.094554, "n": 0}, {"scriptPubKey": {"reqSigs": 1, "hex": "a91480ecba8677139fc53fa19d9f173c1a2e46e895bf87", "addresses": ["3DSi1HoaHho4vgTxNaF4uBZw4d5SUb7Xfr"], "asm": "OP_HASH160 80ecba8677139fc53fa19d9f173c1a2e46e895bf OP_EQUAL", "type": "scripthash"}, "value": 0.037447, "n": 1}], "hex": "010000000001012c33ec433bd375d23ee746390e3d890cc90b96b632a9ab8225744ac3897c9945010000002322002095574f4c2e0ae897020ff3ae4439d625f0418fc28bac6ffc6bce2bf39f6bd05effffffff02284790000000000017a91488e8b2a990de51f63ca36573e15b1bcc1473092d87bc2339000000000017a91480ecba8677139fc53fa19d9f173c1a2e46e895bf870400483045022100c53b0ddae0f09f05cb9d8f6120b57b406ec7c7d0e4e84ab6867fece202d74ac90220710bf015edc84cfa143a9de55d0551596f1e2379d6590e01164cd43424a916160147304402202cb2819aedfe40a51fa0c4dc28181e7698951415b174b30142024fd6a8e2433202202c1794afe357c35ec953111782c3870697ff9bf06bca43ed361fee0b021175160169522102a530e101b3727c8e1a2ad791a7615d5697c5abbde6c0e7f8f469099fed05a56b21030c66cb7d20d4a92c2ad54dd0d19ffda5e8f1e9fbe1a639360a5642d90d2474b1210311c98c3ef2375f9b409240a1577465b0374e4b2ffde658d59076f729abe81fd053ae00000000", "vin": [{"txinwitness": ["", "3045022100c53b0ddae0f09f05cb9d8f6120b57b406ec7c7d0e4e84ab6867fece202d74ac90220710bf015edc84cfa143a9de55d0551596f1e2379d6590e01164cd43424a9161601", "304402202cb2819aedfe40a51fa0c4dc28181e7698951415b174b30142024fd6a8e2433202202c1794afe357c35ec953111782c3870697ff9bf06bca43ed361fee0b0211751601", "522102a530e101b3727c8e1a2ad791a7615d5697c5abbde6c0e7f8f469099fed05a56b21030c66cb7d20d4a92c2ad54dd0d19ffda5e8f1e9fbe1a639360a5642d90d2474b1210311c98c3ef2375f9b409240a1577465b0374e4b2ffde658d59076f729abe81fd053ae"], "sequence": 4294967295, "scriptSig": {"hex": "22002095574f4c2e0ae897020ff3ae4439d625f0418fc28bac6ffc6bce2bf39f6bd05e", "asm": "002095574f4c2e0ae897020ff3ae4439d625f0418fc28bac6ffc6bce2bf39f6bd05e"}, "vout": 1, "txid": "45997c89c34a742582aba932b6960bc90c893d0e3946e73ed275d33b43ec332c"}], "txid": "91e839a3c73f080d9e662653038926e3ffbb7607889b1aa6e3dca1eac43b6d5e", "blocktime": 1537871767, "version": 1, "confirmations": 11495, "time": 1537871767, "locktime": 0, "vsize": 214, "size": 405}