{"hash": "9fb9febd583fdd07bfa6cfad5c74d4da10b99bd3db24636ded44c7d34b755a14", "blockhash": "00000000000000000004ffacab907a6b429b9a5745fa0b75af4234bf69dd7176", "vout": [{"scriptPubKey": {"reqSigs": 1, "hex": "a914dca54f63c1d1a7e5142f01747317b0d91844385e87", "addresses": ["3MogchF6fzMSAHnEysHarF5bvz6LLdU76Y"], "asm": "OP_HASH160 dca54f63c1d1a7e5142f01747317b0d91844385e OP_EQUAL", "type": "scripthash"}, "value": 0.011515, "n": 0}, {"scriptPubKey": {"reqSigs": 1, "hex": "a9144d293bcdc8b44f39bc0c92eb41ca5b5ef1480d4687", "addresses": ["38j1MGxv8M2EzE5QVWzavCTicpwByECqCv"], "asm": "OP_HASH160 4d293bcdc8b44f39bc0c92eb41ca5b5ef1480d46 OP_EQUAL", "type": "scripthash"}, "value": 8.88926781, "n": 1}], "hex": "0200000000010109738c593285c625d374ef9f7b168d769766bb1af6815a5a3eaa541ce6ad9c6e01000000171600143ff816c3a02e013cd7ea4b2c204674768da8a76dffffffff020c9211000000000017a914dca54f63c1d1a7e5142f01747317b0d91844385e873df2fb340000000017a9144d293bcdc8b44f39bc0c92eb41ca5b5ef1480d46870247304402204deff359d685e61e1c458c107e555df18720d99fce9ac85685c7ad79610662c40220316dc23cc66e951ad1f7a60afd0cd1029a9b6a6945ab0ff3e9cab98ee299364e01210306f6e5c3dfeb94059c2c436c189768eff8f584c499fad5bb8e2f7ab65449bdeb00000000", "vin": [{"txinwitness": ["304402204deff359d685e61e1c458c107e555df18720d99fce9ac85685c7ad79610662c40220316dc23cc66e951ad1f7a60afd0cd1029a9b6a6945ab0ff3e9cab98ee299364e01", "0306f6e5c3dfeb94059c2c436c189768eff8f584c499fad5bb8e2f7ab65449bdeb"], "sequence": 4294967295, "scriptSig": {"hex": "1600143ff816c3a02e013cd7ea4b2c204674768da8a76d", "asm": "00143ff816c3a02e013cd7ea4b2c204674768da8a76d"}, "vout": 1, "txid": "6e9cade61c54aa3e5a5a81f61abb6697768d167b9fef74d325c68532598c7309"}], "txid": "91e8c8752b4678e62906369ff77e74a8e6522b84d6e62df474060c89bad24cd7", "blocktime": 1537875543, "version": 2, "confirmations": 11464, "time": 1537875543, "locktime": 0, "vsize": 166, "size": 247}