{"hash": "237c20a22ec853b426c496904b4532054d5eac2601207b86d2c8b6afeaa43e22", "blockhash": "0000000000000000001cda96e906b7601b7a6fb1a3b62bca570a9e5d8f4b3de1", "vout": [{"scriptPubKey": {"reqSigs": 1, "hex": "a91469e9e3138f94720518de1f48cbdf466ea058056187", "addresses": ["3BM34SX6wGrRtM1XNANMZsMi3RoEovKAJg"], "asm": "OP_HASH160 69e9e3138f94720518de1f48cbdf466ea0580561 OP_EQUAL", "type": "scripthash"}, "value": 0.22820413, "n": 0}, {"scriptPubKey": {"reqSigs": 1, "hex": "76a91449a583cc0ac6ec23d6dad42a569fb558a0b1bb3688ac", "addresses": ["17iQcBCJK1isKKcKqbakTeqtWHctC8HzuW"], "asm": "OP_DUP OP_HASH160 49a583cc0ac6ec23d6dad42a569fb558a0b1bb36 OP_EQUALVERIFY OP_CHECKSIG", "type": "pubkeyhash"}, "value": 0.05435713, "n": 1}], "hex": "01000000000101767257388ae0e1733578e0864882814af75ab069c2dc42a6a6e5410c749b812f0100000023220020b2445f0e867611fd6726fcae3dbc050384d71abb5f640534e1acfc47a8f47b3dffffffff023d365c010000000017a91469e9e3138f94720518de1f48cbdf466ea05805618741f15200000000001976a91449a583cc0ac6ec23d6dad42a569fb558a0b1bb3688ac040048304502210081316055a4ff8e275bf2b811b7a6593a253c3f9b2a1ed07fccc4125ed5d53ae102202a013472c43b0ef617da71893f7860fa6427c1e78d893b97180db53821fba5fd0147304402206c6c01f3c56ca56459af229d72ca7ecb1f24d889a5a9beb99412160511788db202203dd13a37085d0993e30202af189e4290e10776b99e323ccd4e31c1492fa1fd8001695221038fe9c5ed132e261e1e169a89db57069cc8193dbf32d434b3b68c871bc417c5b52103dc98f2863a1d77f5ac19d2db92f5ab5aa50723ada22ee38ae34530deb101efe42102341381dfd0e939dc1e4514c40cd299c13582e9d3c299b7f5ae5de4d6581c3eea53ae14490800", "vin": [{"txinwitness": ["", "304502210081316055a4ff8e275bf2b811b7a6593a253c3f9b2a1ed07fccc4125ed5d53ae102202a013472c43b0ef617da71893f7860fa6427c1e78d893b97180db53821fba5fd01", "304402206c6c01f3c56ca56459af229d72ca7ecb1f24d889a5a9beb99412160511788db202203dd13a37085d0993e30202af189e4290e10776b99e323ccd4e31c1492fa1fd8001", "5221038fe9c5ed132e261e1e169a89db57069cc8193dbf32d434b3b68c871bc417c5b52103dc98f2863a1d77f5ac19d2db92f5ab5aa50723ada22ee38ae34530deb101efe42102341381dfd0e939dc1e4514c40cd299c13582e9d3c299b7f5ae5de4d6581c3eea53ae"], "sequence": 4294967295, "scriptSig": {"hex": "220020b2445f0e867611fd6726fcae3dbc050384d71abb5f640534e1acfc47a8f47b3d", "asm": "0020b2445f0e867611fd6726fcae3dbc050384d71abb5f640534e1acfc47a8f47b3d"}, "vout": 1, "txid": "2f819b740c41e5a6a642dcc269b05af74a81824886e0783573e1e08a38577276"}], "txid": "91ebc9f1af2138ddf5aa4d09207bd81e3cb4a8255f0acbacbbfa3040606a186c", "blocktime": 1537873282, "version": 1, "confirmations": 11484, "time": 1537873282, "locktime": 542996, "vsize": 216, "size": 407}