{"hash": "64824530ae5c5b0c68ab86250903143d81f4d3bf243959581bc786e181b3b5d4", "blockhash": "0000000000000000000dcc0f55137456b1a82d3642486a52398922ac4d620174", "vout": [{"scriptPubKey": {"reqSigs": 1, "hex": "a9147998e43c947835ef7995996fe408421c782fef3187", "addresses": ["3Cmxqr3GxbNFvt7uxsVZS6yMEqt15h7FdR"], "asm": "OP_HASH160 7998e43c947835ef7995996fe408421c782fef31 OP_EQUAL", "type": "scripthash"}, "value": 0.015, "n": 0}, {"scriptPubKey": {"reqSigs": 1, "hex": "a91485b00607a09b1b3d8becb4c9d71f580009ff9fe387", "addresses": ["3DstfPTwaC9Zxpquh5bVcSagoHcKpbuNFN"], "asm": "OP_HASH160 85b00607a09b1b3d8becb4c9d71f580009ff9fe3 OP_EQUAL", "type": "scripthash"}, "value": 0.00522902, "n": 1}, {"scriptPubKey": {"reqSigs": 1, "hex": "76a91463b2f090db4af504934a0725170e45ab5ea5d71d88ac", "addresses": ["1A6AFwY13vz2ghaL33Cs4ZGH8j2sezwur3"], "asm": "OP_DUP OP_HASH160 63b2f090db4af504934a0725170e45ab5ea5d71d OP_EQUALVERIFY OP_CHECKSIG", "type": "pubkeyhash"}, "value": 0.00184822, "n": 2}, {"scriptPubKey": {"reqSigs": 1, "hex": "76a914f85881ec37556e96ad9639b0de697ecb6ec945a988ac", "addresses": ["1Pe8cBec1FoQi7VPqtUzWB65DhPWwWeHgn"], "asm": "OP_DUP OP_HASH160 f85881ec37556e96ad9639b0de697ecb6ec945a9 OP_EQUALVERIFY OP_CHECKSIG", "type": "pubkeyhash"}, "value": 0.31063457, "n": 3}, {"scriptPubKey": {"reqSigs": 1, "hex": "a914c0b8bf6eec636c67c8f797dc86946be667eb564087", "addresses": ["3KG2ysnYsqBYpsatsgB1R5DczfAkPtoBBv"], "asm": "OP_HASH160 c0b8bf6eec636c67c8f797dc86946be667eb5640 OP_EQUAL", "type": "scripthash"}, "value": 0.00406, "n": 4}, {"scriptPubKey": {"reqSigs": 1, "hex": "a9141988a27e3c2df4ddee7fad5a2303d086179b2a3087", "addresses": ["3422VtS7UtCvXYxoXMVp6eZupR252z85oC"], "asm": "OP_HASH160 1988a27e3c2df4ddee7fad5a2303d086179b2a30 OP_EQUAL", "type": "scripthash"}, "value": 0.47762587, "n": 5}], "hex": "01000000000101c72eeab2e3a98b9f1b045c9fa60af906495f3509b1e8930b3dadfda3690a4be1020000002322002065d416c48a8072e0ac51c2d111eb194f009caef0332446c1bf2097316cf07fa9ffffffff0660e316000000000017a9147998e43c947835ef7995996fe408421c782fef318796fa07000000000017a91485b00607a09b1b3d8becb4c9d71f580009ff9fe387f6d10200000000001976a91463b2f090db4af504934a0725170e45ab5ea5d71d88aca1fdd901000000001976a914f85881ec37556e96ad9639b0de697ecb6ec945a988acf03106000000000017a914c0b8bf6eec636c67c8f797dc86946be667eb5640879bccd8020000000017a9141988a27e3c2df4ddee7fad5a2303d086179b2a30870400483045022100af3155c2590d2260dd8decf96f21c34b13df07859651eee89ba347636778c3c202207ffc756df8e781d9e8228ea6a52c21adcc62fd819d4b61c48f00bbd6b790265b01483045022100f1d232b5f7646998220f0b822881b36831286d48dfc4582d8fafe7a719c224a302205fb5e8fd98027dfff15809cdf4ba1ac24f813f5f81acdb3d193e123b991cffd80169522102f44abcf9e23c9a460da309ccca56c619c04eed3bde2c2cff5e7d78fbcd980b9c2103c9443cf3047bb6c2c82f1b0c44c36109cdc3d0d601d16d1189a1602bf8d1a0a02103bfe867059274412412e088af5572b92168c2ef495cfe6c9b7a753a009eb37c4853ae00000000", "vin": [{"txinwitness": ["", "3045022100af3155c2590d2260dd8decf96f21c34b13df07859651eee89ba347636778c3c202207ffc756df8e781d9e8228ea6a52c21adcc62fd819d4b61c48f00bbd6b790265b01", "3045022100f1d232b5f7646998220f0b822881b36831286d48dfc4582d8fafe7a719c224a302205fb5e8fd98027dfff15809cdf4ba1ac24f813f5f81acdb3d193e123b991cffd801", "522102f44abcf9e23c9a460da309ccca56c619c04eed3bde2c2cff5e7d78fbcd980b9c2103c9443cf3047bb6c2c82f1b0c44c36109cdc3d0d601d16d1189a1602bf8d1a0a02103bfe867059274412412e088af5572b92168c2ef495cfe6c9b7a753a009eb37c4853ae"], "sequence": 4294967295, "scriptSig": {"hex": "22002065d416c48a8072e0ac51c2d111eb194f009caef0332446c1bf2097316cf07fa9", "asm": "002065d416c48a8072e0ac51c2d111eb194f009caef0332446c1bf2097316cf07fa9"}, "vout": 2, "txid": "e14b0a69a3fdad3d0b93e8b109355f4906f90aa69f5c041b9f8ba9e3b2ea2ec7"}], "txid": "91ed12b070fed18f75fb6a40921eb4c8ad31b24c172c81dd62cddcb1b657bb10", "blocktime": 1537870268, "version": 1, "confirmations": 11516, "time": 1537870268, "locktime": 0, "vsize": 346, "size": 538}