{"hash": "a69d234f37cb0f3dcdbce1f66ee275d533f7852d10cd73fdda05e794dda93d70", "blockhash": "0000000000000000001cda96e906b7601b7a6fb1a3b62bca570a9e5d8f4b3de1", "vout": [{"scriptPubKey": {"reqSigs": 1, "hex": "76a9141c93dcf2b366754198bb67117c433f4801f4e82088ac", "addresses": ["13c745XYF9J1tjd9qbxk5LnKLi85aDD5wJ"], "asm": "OP_DUP OP_HASH160 1c93dcf2b366754198bb67117c433f4801f4e820 OP_EQUALVERIFY OP_CHECKSIG", "type": "pubkeyhash"}, "value": 0.0203, "n": 0}, {"scriptPubKey": {"reqSigs": 1, "hex": "a91440d02c3e4f65b3a98e5e1c6287486b6b6785c04387", "addresses": ["37biYvTEcBVMoR1NGkPTGvHUuLTrzcLpiv"], "asm": "OP_HASH160 40d02c3e4f65b3a98e5e1c6287486b6b6785c043 OP_EQUAL", "type": "scripthash"}, "value": 0.3168867, "n": 1}], "hex": "010000000001013e3ea56ba7628eb121b91911651e08b78cf532c3afa130467c1eea9c8b42013b01000000171600140f8f95e3da7660889ef3302dfb51f9ea36f5cfd7ffffffff02b0f91e00000000001976a9141c93dcf2b366754198bb67117c433f4801f4e82088acde87e3010000000017a91440d02c3e4f65b3a98e5e1c6287486b6b6785c0438702483045022100d7cc16b30f0f0098ed805fa72644aa5e97fae92580e1c1ce767999dd2908778d02206cfacfe44277239631187d12b1871701ef46134662837ff61249c8636691d32e01210337f2d24b1d287a6896c89056fd193876b31ebdf892b29f5fc86f33bc1f717bff00000000", "vin": [{"txinwitness": ["3045022100d7cc16b30f0f0098ed805fa72644aa5e97fae92580e1c1ce767999dd2908778d02206cfacfe44277239631187d12b1871701ef46134662837ff61249c8636691d32e01", "0337f2d24b1d287a6896c89056fd193876b31ebdf892b29f5fc86f33bc1f717bff"], "sequence": 4294967295, "scriptSig": {"hex": "1600140f8f95e3da7660889ef3302dfb51f9ea36f5cfd7", "asm": "00140f8f95e3da7660889ef3302dfb51f9ea36f5cfd7"}, "vout": 1, "txid": "3b01428b9cea1e7c4630a1afc332f58cb7081e651119b921b18e62a76ba53e3e"}], "txid": "91f33935818710735d43bafe0c55bc859a98a4b3f149f5f6f1d9dd84bc6da9ce", "blocktime": 1537873282, "version": 1, "confirmations": 11484, "time": 1537873282, "locktime": 0, "vsize": 168, "size": 250}