{"hash": "ce7b815d759f2cc2a2afbddd7a1b1ab45c53a646feddc20e2df113e3dc6e7c49", "blockhash": "0000000000000000000baef3f32e3676a92c3b2e5da21b426e4f302fc371ce76", "vout": [{"scriptPubKey": {"reqSigs": 1, "hex": "a91432b26ceb867a3c3ea277a4aae357fde41910978087", "addresses": ["36K5TMVjnyVKLdN1KGYXn6hXYTM3nWsH3H"], "asm": "OP_HASH160 32b26ceb867a3c3ea277a4aae357fde419109780 OP_EQUAL", "type": "scripthash"}, "value": 0.00049595, "n": 0}, {"scriptPubKey": {"reqSigs": 1, "hex": "a914b2e6a8e553bd7e11c1392f8d61e19b5888e139c087", "addresses": ["3HzxXD8PhqJETjkWrQYD4nYc6yKx3mGLXi"], "asm": "OP_HASH160 b2e6a8e553bd7e11c1392f8d61e19b5888e139c0 OP_EQUAL", "type": "scripthash"}, "value": 0.00250059, "n": 1}], "hex": "0100000000010106bee0534491aff2297ff57704ee4718fc40aca4672f97e5d7acc084a623b380010000002322002045dc4a8e7a7ed593d2ea538a381c31e2607ee08f052e914f99311fee2a8f4d56ffffffff02bbc100000000000017a91432b26ceb867a3c3ea277a4aae357fde41910978087cbd003000000000017a914b2e6a8e553bd7e11c1392f8d61e19b5888e139c08704004730440220771dec3050208673eabe3403951f7b46abbf7b7c4138cb771e855d67326d0bc8022012238d8cb17805ed75a3af47cc16805b21202a9d6af845c875e1f5b0c85d379601483045022100e22fb02cde2db2422de8af1b7c064677e3b1b7cbbfabdaea2509ff61184684da022032829f810620b07119603919b19a34849e8ca0b3b0288480cd63f5834715cbbf014752210333a2cce5556afb7a9431cdacaea04e945b9daa974227ab5f4aca265bc268c7952103871fc2ca08e6950b38867e8e6a0e94ee625223d3aa0df5c65f414c6d784467e252ae00000000", "vin": [{"txinwitness": ["", "30440220771dec3050208673eabe3403951f7b46abbf7b7c4138cb771e855d67326d0bc8022012238d8cb17805ed75a3af47cc16805b21202a9d6af845c875e1f5b0c85d379601", "3045022100e22fb02cde2db2422de8af1b7c064677e3b1b7cbbfabdaea2509ff61184684da022032829f810620b07119603919b19a34849e8ca0b3b0288480cd63f5834715cbbf01", "52210333a2cce5556afb7a9431cdacaea04e945b9daa974227ab5f4aca265bc268c7952103871fc2ca08e6950b38867e8e6a0e94ee625223d3aa0df5c65f414c6d784467e252ae"], "sequence": 4294967295, "scriptSig": {"hex": "22002045dc4a8e7a7ed593d2ea538a381c31e2607ee08f052e914f99311fee2a8f4d56", "asm": "002045dc4a8e7a7ed593d2ea538a381c31e2607ee08f052e914f99311fee2a8f4d56"}, "vout": 1, "txid": "80b323a684c0acd7e5972f67a4ac40fc1847ee0477f57f29f2af914453e0be06"}], "txid": "91f544a71cef2533d08fe6d994b02cf3ae550f7353b2b27c9b6ce9e24b2788ea", "blocktime": 1537876114, "version": 1, "confirmations": 11463, "time": 1537876114, "locktime": 0, "vsize": 206, "size": 371}