{"hash": "0b26cbc42fe36770dbd0e721456127e1c7c18d046b8bbc6adffaba53afc32ef8", "blockhash": "0000000000000000001e0dab787dd257d1dbfcb92a98c2207d5e1078be1f4165", "vout": [{"scriptPubKey": {"reqSigs": 1, "hex": "76a914c7abc2230d11a3e832d0ef58cc294eb4c02bdc0988ac", "addresses": ["1KCmE9uBbwDKFxVVyFWfkGcEXnoUYJR6ca"], "asm": "OP_DUP OP_HASH160 c7abc2230d11a3e832d0ef58cc294eb4c02bdc09 OP_EQUALVERIFY OP_CHECKSIG", "type": "pubkeyhash"}, "value": 0.00214115, "n": 0}, {"scriptPubKey": {"reqSigs": 1, "hex": "a9149649ad6d2730bb28020a268d9d80df10a9f74ad487", "addresses": ["3FPfYWwfMfKMGY7fuPHvz2b73RhTNGzsm3"], "asm": "OP_HASH160 9649ad6d2730bb28020a268d9d80df10a9f74ad4 OP_EQUAL", "type": "scripthash"}, "value": 13.87632044, "n": 1}], "hex": "01000000000101e24747aa931666cade798d66f182f954f1250f999ba257784f9259d2a7efd99401000000232200207768efcc1e5eb3d28410fac3f45831004c860cc24cddd940a616b34324823fceffffffff0263440300000000001976a914c7abc2230d11a3e832d0ef58cc294eb4c02bdc0988acac95b5520000000017a9149649ad6d2730bb28020a268d9d80df10a9f74ad487040047304402207384c801c85ffec6da7cd7ee693aa719ee8ef0fd98d50130f937b44d541b9d3f02207dd7957936c8530d19043c5f15db86b3d950c7658d8399318c8881c3ac0147a90147304402202fd26e50be013a68ca5f2839f7f99f968362337f8e900c302aa1123d606e13eb02204b27b7e567e7837062ea35db3a423d0ce6b9ece2e78f874b9c0678a4a0a5c7b70147522102529d5d1f6733ab45d9d50e07db42c7f6b967ae321c38b726c2247f149959b8262103d0c936a5988dd8421c63240496b723b0ec42400c38b9350e32c2eb4f47d8796952ae00000000", "vin": [{"txinwitness": ["", "304402207384c801c85ffec6da7cd7ee693aa719ee8ef0fd98d50130f937b44d541b9d3f02207dd7957936c8530d19043c5f15db86b3d950c7658d8399318c8881c3ac0147a901", "304402202fd26e50be013a68ca5f2839f7f99f968362337f8e900c302aa1123d606e13eb02204b27b7e567e7837062ea35db3a423d0ce6b9ece2e78f874b9c0678a4a0a5c7b701", "522102529d5d1f6733ab45d9d50e07db42c7f6b967ae321c38b726c2247f149959b8262103d0c936a5988dd8421c63240496b723b0ec42400c38b9350e32c2eb4f47d8796952ae"], "sequence": 4294967295, "scriptSig": {"hex": "2200207768efcc1e5eb3d28410fac3f45831004c860cc24cddd940a616b34324823fce", "asm": "00207768efcc1e5eb3d28410fac3f45831004c860cc24cddd940a616b34324823fce"}, "vout": 1, "txid": "94d9efa7d259924f7857a29b990f25f154f982f1668d79deca661693aa4747e2"}], "txid": "91f7675ac20955a24b2d4396bee4f0f5635a6d632291193e27c6d10f090b6a69", "blocktime": 1537872475, "version": 1, "confirmations": 11487, "time": 1537872475, "locktime": 0, "vsize": 207, "size": 372}