{"hash": "91ffb46cac3e3d7c236288e3d981eae0c83361d51fac9f244277ccfd5b514cf6", "blockhash": "0000000000000000001e0dab787dd257d1dbfcb92a98c2207d5e1078be1f4165", "vout": [{"scriptPubKey": {"reqSigs": 1, "hex": "76a9141dd6480345a8855081be79537651fa6d15bf410d88ac", "addresses": ["13imJ69mnpt6mCWw3CgC7wN3TWm3S6dBhK"], "asm": "OP_DUP OP_HASH160 1dd6480345a8855081be79537651fa6d15bf410d OP_EQUALVERIFY OP_CHECKSIG", "type": "pubkeyhash"}, "value": 6.8e-06, "n": 0}, {"scriptPubKey": {"reqSigs": 1, "hex": "a91479902bc5c2e5471ce80d2ea08deabb315faa7de087", "addresses": ["3CmnPvx4pZ1ZNVEVhLExuDB7gSyTPmt1kc"], "asm": "OP_HASH160 79902bc5c2e5471ce80d2ea08deabb315faa7de0 OP_EQUAL", "type": "scripthash"}, "value": 0.0033888, "n": 1}], "hex": "0100000002a5630ac41d5174372aa5f41873be20c2fa69eb384da9296a1070ce7eb2549a17000000006a47304402207643770566cb4c4f3a2fa3bd48ea35cc3cb4e65a38d876d4fe16271b55d9c67202204e8750b78f7c8643ce60e1739143fa830a766b744b744047e3fed8ec6b82a07a012102408bd25e69047807c5b97bc5ebbaef2fbb3b86c4047c9901e7d35c8035afc12fffffffff88bc6b3f418bf4d375934c9c0840bcbbefa6ed9e014bf627168f5436690ec69f010000006b483045022100f7a64b8f98c75bffd9e999af9551977d37c1194ffba8ac6c1e4a03e7718816e902206b358428b4a749ed2d30552b28fd16d9de975894ac2b8c0817fd4f19fac89da8012102bdb30cbf562cef711413ed6eb79f9299c6de0dfeaa608067dc3dd8cb75981cc8ffffffff02a8020000000000001976a9141dd6480345a8855081be79537651fa6d15bf410d88acc02b05000000000017a91479902bc5c2e5471ce80d2ea08deabb315faa7de08700000000", "vin": [{"sequence": 4294967295, "scriptSig": {"hex": "47304402207643770566cb4c4f3a2fa3bd48ea35cc3cb4e65a38d876d4fe16271b55d9c67202204e8750b78f7c8643ce60e1739143fa830a766b744b744047e3fed8ec6b82a07a012102408bd25e69047807c5b97bc5ebbaef2fbb3b86c4047c9901e7d35c8035afc12f", "asm": "304402207643770566cb4c4f3a2fa3bd48ea35cc3cb4e65a38d876d4fe16271b55d9c67202204e8750b78f7c8643ce60e1739143fa830a766b744b744047e3fed8ec6b82a07a[ALL] 02408bd25e69047807c5b97bc5ebbaef2fbb3b86c4047c9901e7d35c8035afc12f"}, "vout": 0, "txid": "179a54b27ece70106a29a94d38eb69fac220be7318f4a52a3774511dc40a63a5"}, {"sequence": 4294967295, "scriptSig": {"hex": "483045022100f7a64b8f98c75bffd9e999af9551977d37c1194ffba8ac6c1e4a03e7718816e902206b358428b4a749ed2d30552b28fd16d9de975894ac2b8c0817fd4f19fac89da8012102bdb30cbf562cef711413ed6eb79f9299c6de0dfeaa608067dc3dd8cb75981cc8", "asm": "3045022100f7a64b8f98c75bffd9e999af9551977d37c1194ffba8ac6c1e4a03e7718816e902206b358428b4a749ed2d30552b28fd16d9de975894ac2b8c0817fd4f19fac89da8[ALL] 02bdb30cbf562cef711413ed6eb79f9299c6de0dfeaa608067dc3dd8cb75981cc8"}, "vout": 1, "txid": "9fc60e6936548f1627f64b019eeda6efbbbc40089c4c9375d3f48b413f6bbc88"}], "txid": "91ffb46cac3e3d7c236288e3d981eae0c83361d51fac9f244277ccfd5b514cf6", "blocktime": 1537872475, "version": 1, "confirmations": 11487, "time": 1537872475, "locktime": 0, "vsize": 371, "size": 371}