{"hash": "920404eafb16d95175f6310a24b8009f5e70e62c0d5a21560879006e68b875b0", "blockhash": "00000000000000000017f5eb5941039fbcee6240d03bc1f2f8e35350df66a1d8", "vout": [{"scriptPubKey": {"reqSigs": 1, "hex": "a914b04b60893bc750f04b65b55b31793c63449a64b187", "addresses": ["3HmB9beekiZKKSwpvmVrkV97MmcPFxaF4y"], "asm": "OP_HASH160 b04b60893bc750f04b65b55b31793c63449a64b1 OP_EQUAL", "type": "scripthash"}, "value": 0.0002344, "n": 0}, {"scriptPubKey": {"reqSigs": 1, "hex": "76a914ad441414886886f9793e5baeeeee5643be462e6288ac", "addresses": ["1Go9TMrJBLevZyxmLvN85sHdTadVHWjKT5"], "asm": "OP_DUP OP_HASH160 ad441414886886f9793e5baeeeee5643be462e62 OP_EQUALVERIFY OP_CHECKSIG", "type": "pubkeyhash"}, "value": 0.00829272, "n": 1}], "hex": "010000000164fb7d07c42af3223ca0b632b5041801984f9da13aaf61e72bcbfbffce08a2fc010000006a473044022067e075613f49aff66ae973bec23ac03629856754b199eb92ced116a3ac4a2a5c022001f4e3018ec62a9ef044c6835bc4e884cd71bba1d583abe91e62ac58aa943623012103a5e9c2130176ecbffa4259314a2767e99fa80d6a3d05889d576d09cba83a4900ffffffff02905b00000000000017a914b04b60893bc750f04b65b55b31793c63449a64b18758a70c00000000001976a914ad441414886886f9793e5baeeeee5643be462e6288ac00000000", "vin": [{"sequence": 4294967295, "scriptSig": {"hex": "473044022067e075613f49aff66ae973bec23ac03629856754b199eb92ced116a3ac4a2a5c022001f4e3018ec62a9ef044c6835bc4e884cd71bba1d583abe91e62ac58aa943623012103a5e9c2130176ecbffa4259314a2767e99fa80d6a3d05889d576d09cba83a4900", "asm": "3044022067e075613f49aff66ae973bec23ac03629856754b199eb92ced116a3ac4a2a5c022001f4e3018ec62a9ef044c6835bc4e884cd71bba1d583abe91e62ac58aa943623[ALL] 03a5e9c2130176ecbffa4259314a2767e99fa80d6a3d05889d576d09cba83a4900"}, "vout": 1, "txid": "fca208cefffbcb2be761af3aa19d4f98011804b532b6a03c22f32ac4077dfb64"}], "txid": "920404eafb16d95175f6310a24b8009f5e70e62c0d5a21560879006e68b875b0", "blocktime": 1537874412, "version": 1, "confirmations": 11468, "time": 1537874412, "locktime": 0, "vsize": 223, "size": 223}