{"hash": "0892f7aeae9be3b9351c7fa3a6a4db071cf99c71a70dae9a73a75d9206b0bac4", "blockhash": "0000000000000000000e13cef7c366c0283d82e591d1acd082e914b08063cdf1", "vout": [{"scriptPubKey": {"reqSigs": 1, "hex": "76a9144053a008e3ebfbd38084c643467d0b78bd6d9b1288ac", "addresses": ["16s8Reu9ztc6HpxqjgUgstLU3nJmxTEoVX"], "asm": "OP_DUP OP_HASH160 4053a008e3ebfbd38084c643467d0b78bd6d9b12 OP_EQUALVERIFY OP_CHECKSIG", "type": "pubkeyhash"}, "value": 0.00139844, "n": 0}, {"scriptPubKey": {"reqSigs": 1, "hex": "a91487ab883fed57c3e637793cccbebced3b06a6aefd87", "addresses": ["3E4Ndi4k82YoNUU4zwcTkR8CvxDRyJcbC8"], "asm": "OP_HASH160 87ab883fed57c3e637793cccbebced3b06a6aefd OP_EQUAL", "type": "scripthash"}, "value": 2.1393021, "n": 1}], "hex": "02000000000101bd899836087357360dfc7cc50069ce9ac3dd6f283c95bc5296e177a6dcc753bc000000001716001496cde1ce970794939b3164e060e305b079aed718feffffff0244220200000000001976a9144053a008e3ebfbd38084c643467d0b78bd6d9b1288ace250c00c0000000017a91487ab883fed57c3e637793cccbebced3b06a6aefd8702483045022100a343531a6fd445dcaf26534b49e7ce883fbb996bc5574c0a45a44d89213913b702202c20b0c383061955bde00255aa3dbffcb5b50cd95d2d0e72182b0ff23edf3e62012103312f04a1acef1dd20e0e668c3f12c565eb6c4f4855960b1d4e0c8033c5ab576b10490800", "vin": [{"txinwitness": ["3045022100a343531a6fd445dcaf26534b49e7ce883fbb996bc5574c0a45a44d89213913b702202c20b0c383061955bde00255aa3dbffcb5b50cd95d2d0e72182b0ff23edf3e6201", "03312f04a1acef1dd20e0e668c3f12c565eb6c4f4855960b1d4e0c8033c5ab576b"], "sequence": 4294967294, "scriptSig": {"hex": "16001496cde1ce970794939b3164e060e305b079aed718", "asm": "001496cde1ce970794939b3164e060e305b079aed718"}, "vout": 0, "txid": "bc53c7dca677e19652bc953c286fddc39ace6900c57cfc0d36577308369889bd"}], "txid": "9206b976f5b8dc191b2755eba997836057bf3033a73dfc8592dea329b632aaaa", "blocktime": 1537871767, "version": 2, "confirmations": 11495, "time": 1537871767, "locktime": 542992, "vsize": 168, "size": 250}