{"hash": "920d58083fda8863e4fb2e8ef348b5225c2301e1a20a4e9833cbe388b94e493b", "blockhash": "0000000000000000001e0dab787dd257d1dbfcb92a98c2207d5e1078be1f4165", "vout": [{"scriptPubKey": {"reqSigs": 1, "hex": "76a9146bf067f60bd150457a128da1a30ef8658dea6f1288ac", "addresses": ["1AqjJEbUrf7YcKbhK7DVH9m9J8iijQcXdK"], "asm": "OP_DUP OP_HASH160 6bf067f60bd150457a128da1a30ef8658dea6f12 OP_EQUALVERIFY OP_CHECKSIG", "type": "pubkeyhash"}, "value": 0.00284446, "n": 0}, {"scriptPubKey": {"reqSigs": 1, "hex": "a91461022937fe57743e690c962ba10c5451f1a89d9187", "addresses": ["3AXx4JQfr1fnShWWLHtZaSShzLEur4vWEq"], "asm": "OP_HASH160 61022937fe57743e690c962ba10c5451f1a89d91 OP_EQUAL", "type": "scripthash"}, "value": 0.01562789, "n": 1}], "hex": "0100000003f648fbf71973a5ec6a986d632d49f2de320e3479578d0321d6311101dfda52a3000000006b483045022100d5f6283006881b3539bcbf8b6bce3e7e94ad67413ad2036a53ca75253b328f62022073a4687c6fd3406875ff31beb0620804e8526f359b0ba104513768e583d85780012103c164a06a224fa59107362d7de3ee441b411e2df7fd9ffaa38fcbebee05c808cdffffffffa577dc42a62a98191c539d84ce2670fbda4efb5f21a0edd09b1f5837de4896c6000000006b483045022100c6263521fa7427343fe27c14de98503ebedb3f10cb2b73e5123d3f1ba232692e02200128cb82eaf1f258d063abca09de9491be70c66e79c57c98188b8ae9975ad962012103122c196604771dfcd883cdb21e45400d0ce10be88757d4da23a2283a324e094fffffffff8cbb1469635c33debfb507e91903a8ba680ae2f8bfc1cddf66c1a1d9326ef5e5010000006b483045022100ee03dd04a17a50cbd61a2b985d8734371f2bb690c733c3990cf82c0bb18642d9022012f93f7d46a1f52534e8a8ff8824ebc684c9955ff964d5cee4f794d557c0cda9012103122c196604771dfcd883cdb21e45400d0ce10be88757d4da23a2283a324e094fffffffff021e570400000000001976a9146bf067f60bd150457a128da1a30ef8658dea6f1288aca5d817000000000017a91461022937fe57743e690c962ba10c5451f1a89d918700000000", "vin": [{"sequence": 4294967295, "scriptSig": {"hex": "483045022100d5f6283006881b3539bcbf8b6bce3e7e94ad67413ad2036a53ca75253b328f62022073a4687c6fd3406875ff31beb0620804e8526f359b0ba104513768e583d85780012103c164a06a224fa59107362d7de3ee441b411e2df7fd9ffaa38fcbebee05c808cd", "asm": "3045022100d5f6283006881b3539bcbf8b6bce3e7e94ad67413ad2036a53ca75253b328f62022073a4687c6fd3406875ff31beb0620804e8526f359b0ba104513768e583d85780[ALL] 03c164a06a224fa59107362d7de3ee441b411e2df7fd9ffaa38fcbebee05c808cd"}, "vout": 0, "txid": "a352dadf011131d621038d5779340e32def2492d636d986aeca57319f7fb48f6"}, {"sequence": 4294967295, "scriptSig": {"hex": "483045022100c6263521fa7427343fe27c14de98503ebedb3f10cb2b73e5123d3f1ba232692e02200128cb82eaf1f258d063abca09de9491be70c66e79c57c98188b8ae9975ad962012103122c196604771dfcd883cdb21e45400d0ce10be88757d4da23a2283a324e094f", "asm": "3045022100c6263521fa7427343fe27c14de98503ebedb3f10cb2b73e5123d3f1ba232692e02200128cb82eaf1f258d063abca09de9491be70c66e79c57c98188b8ae9975ad962[ALL] 03122c196604771dfcd883cdb21e45400d0ce10be88757d4da23a2283a324e094f"}, "vout": 0, "txid": "c69648de37581f9bd0eda0215ffb4edafb7026ce849d531c19982aa642dc77a5"}, {"sequence": 4294967295, "scriptSig": {"hex": "483045022100ee03dd04a17a50cbd61a2b985d8734371f2bb690c733c3990cf82c0bb18642d9022012f93f7d46a1f52534e8a8ff8824ebc684c9955ff964d5cee4f794d557c0cda9012103122c196604771dfcd883cdb21e45400d0ce10be88757d4da23a2283a324e094f", "asm": "3045022100ee03dd04a17a50cbd61a2b985d8734371f2bb690c733c3990cf82c0bb18642d9022012f93f7d46a1f52534e8a8ff8824ebc684c9955ff964d5cee4f794d557c0cda9[ALL] 03122c196604771dfcd883cdb21e45400d0ce10be88757d4da23a2283a324e094f"}, "vout": 1, "txid": "e5f56e32d9a1c166dfcdc1bff8e20a68baa80319e907b5bfde335c636914bb8c"}], "txid": "920d58083fda8863e4fb2e8ef348b5225c2301e1a20a4e9833cbe388b94e493b", "blocktime": 1537872475, "version": 1, "confirmations": 11487, "time": 1537872475, "locktime": 0, "vsize": 520, "size": 520}