{"hash": "920ec1a2467151e8a4a0a72077114d00c5d3194f922db4721d5f35ed8754a41d", "blockhash": "000000000000000000022b45ed06c6f4ccd3cf7fb5ba4856ebd2e58215665228", "vout": [{"scriptPubKey": {"reqSigs": 1, "hex": "76a914e8cea30989bd15530f819b766684b00dc7ba7cfa88ac", "addresses": ["1NDyJtNTjmwk5xPNhjgAMu4HDHigtobu1s"], "asm": "OP_DUP OP_HASH160 e8cea30989bd15530f819b766684b00dc7ba7cfa OP_EQUALVERIFY OP_CHECKSIG", "type": "pubkeyhash"}, "value": 2.42594288, "n": 0}, {"scriptPubKey": {"reqSigs": 1, "hex": "76a91493d7c162682dd7e0481a467286afc2664854417788ac", "addresses": ["1EUio9ZafbHP1FYu1RtcnV6WXygL7NUhJZ"], "asm": "OP_DUP OP_HASH160 93d7c162682dd7e0481a467286afc26648544177 OP_EQUALVERIFY OP_CHECKSIG", "type": "pubkeyhash"}, "value": 0.00725813, "n": 1}], "hex": "020000001201aa801d5f244b5c89945f9de4c77c0441812f5f9107cf5997de519b633d27e7000000006a473044022039973d1933dd2f58c25fdf34f3a2914db6413ce9d1fa9b99bb0aef18bfa03ffb0220608828f3a8cb55cf5dc1df866dd646e2397b43e12b550cea14b7e5414f7e9e2c01210209f7625ed5b6c5e1bac47b4cdf8b69a03f19736b92f6f8938b8790800e8c2f03feffffff03901adaca44436dc5e4c39b3f3fc03cb359c293a1625f7778b0759cc54ce2f7000000006a473044022052478474f0fb68bed7ec7dd09f6d633442fa1000fa386d7cf6cd27b2dbf4a8b802206d24f6a36b7f1e59cc7d0836457aaa287a08ef20a2105efad87857cb45381591012103bc18422c7ee97ef39fb7da18d420bac7316643cece6a40dd56bfe1d468392df4feffffff207e097a03dfdfa5341cace4577c3188f772b265053327a660fc359393b9df83010000006b483045022100aa314b46268a731b2ca83e26ea8c763261bcbda038cf451a2a2a1d3c221ac0230220182064101b188800be3d0339911a191d9c1d5f0d3e0677d1e427c15f82987777012103152e1f86f6cb97949b022fddea8034595a8d894ffd5e865ef0a637a851399388feffffff2bd03e00168bd9a0d0244b0f8650ca788428458cfe4fd206e82528e71b0b0a91000000006a47304402206c2eb1a835fbf492e7c9c5eb8d3cdf0f6aac4bdc0b656ea86980f4cef0f0187f02203e434da219408d0182f62ee64ff974c81c5f6a20a4b1ed235565db5149a474560121023846e2dd631783893b73b4f5553dda322236a28d36753ea49414c869995adfd1feffffff37006f7a67b2d83ce359a4f8b4f725a8f34d9de19604df6ba38ff6908694290a030000006a473044022010cfcffff2cc39fb370665e999dace08e24ab45668c2d86c631346d6b91a3aff0220758432d674637630769efe3bec32feea1a51d0bdb3e6fe0af3eba5a2c139a26201210387a12bab2249f432921243be6b4c021f72590d005d7f570e0cbd52b2fb2846d9feffffff6e186e42fbcd6bf6474052ba7a7f59aa39104b3fb2b43aa5551652bdb26deda4000000006a47304402203b6eb9e70faf9cc0e8b76539868eab92b4ef0e5274fe3e66c13f2d545d0830ae022066c5e0ca904d8948a4fa1d344571b35411e82703356cba820c82ffaf6cc969fd0121036920e0499b32dbb003ed06e57d739afdf0ee9ab069901650c8ade97e75b0474cfeffffff71cb2c8ebca8888328d50c0143e884dd30cbb3b7f33cdfb496ee76165911f4eb000000006a47304402200497471e8212535f2e7c35a911cfb0c0cbd1cc78b21d68377d4bfd370f403c81022025e188cc679706254cee4e59427d86a8d849124f950f25a89bf7336c33ecd2700121025f787bf40e9066d52c9cc1c93bd0e65dd734f3b90f60e2e2b088cb836c12a676feffffff822aa516d908ef21871af9d629325bf22ea42ca74c88367ea228baa9d8d1c21f000000006a47304402207b8f0f4fcfa73c7cd564dff339db681dd6ee446d855912b22f4b94848e628ae602202ec636d13d002850786532243a106e4121db6ba22342c51ded280e867adcfc4f0121038cff739125cfebf587816370470138c1e1058c67f2e6ab19a66367bf4d81d3fdfeffffff8627bf7737d709070ea2280db3422ee22bab4927cd30fd4602bef4fde58a4ce9010000006b483045022100f19e8a2dda9a0ce5f6d282ef9941a3001be87301df2119b7c2f8caac955de467022015ad32d1bf43ea70b72cac8bac3f3fcadf0a532808fef0136e1974f3674c12070121037db90c86168db6cc9c29b85aed906ccf42d402004e7846b8db0049f6e86d6708feffffff8ebe9355c3a72d44d3b99ae426f0f519a0d3494e2ed2466cd6ddaa03b08d23aa010000006a473044022062823cf3d21f1e859bea159341a19d215e7de898ee5036b0d7cdcd8c024e0deb02204b238d4361f5929ef9295bdfa0c5b715cdaa5985e8c9f35a82602457a5a6405d012103adeb2d4f245b3b0c64e508feb57ac2597b84f819aab7521efd390cf32d13e264feffffff9b115e2593bc24a0011247dcd373d53252d52fbb2a305aeb0268988bfe80bedc000000006b483045022100df753701dc93963e8a929114c06775c91689122f9e3ff517bcc2d5d6c8adfcd7022011860f22be296c5f9457f06c2043d0dbb0016eb523af6cb469b0606044372cc60121027636306c8ae82af1c182bff1a2b94c24b349d79de622d6d16495b890c840ae4afeffffff9cf05997c8289f2f31007c438454af9f728eb1c7d4a7686148040157868b978b190000006a4730440220681706c746f1c82161e2eebfc532befceaa7113c7eeccd43f718304ae5e19725022025ef8148a2fab1982edaa030114963f571fe9a8899b5141a48f501d83b0d90e6012102cd863053b3b059d79b266abf12a8fc4a1244c8fae9192d63f0ec1ecaad20ef5cfeffffffaed84550a54aec5f38bd75ec9627d5d4debbad16184bb432bfedfa81b1407b3d000000006b483045022100c9b004ea57d9779a447c99237b28e7b34fd65d625117c36992ad8107f846a2960220037d11498501bd50e8d7573cb6b338f3cf43e5499aaca14da2522378681f0e64012102030fd7251a16bc3fefccb69f36490a2b23ef9802c9409967cc4c683e708fd2bafeffffffb6a549cc2a064795c672361183260835fdb2b1c1ea0725fca9c974f2260857a7010000006a4730440220640e4788aa0256074ab9afb12213504deb5e0e52738bb19029b7c3a30f7ff9d902203c3bc20b7457e6191b36e272b58cea9941bdb5cf98620ec051d8934727229d100121034e73a22653659e3c98d0403cbfa516a1fc617f782a5b5ac2745c1256caf53faefeffffffb7ad33cc3ba552348136d3154dd19d51a8c7bd3390da380e3cafd1fa797b7385080700006a4730440220290d1c119ab79001ee8e4350cdd2e830840480887aceb8c232caaeda94604466022031e663979e1d4ff5815c4e26f1b9e05f66f91f8f51c2de882cf6b672dc97574401210258341ccc9d95ace6e960eb1051ee4a4bc3a77312e638dde4723d8497ce96eae2feffffffdd6a8538507d1089d656f36fc6b47f3913309b046a25f1b7241c7ada05cedd44010000006a473044022003ea32faed44fa2dc077886b8c1daac71c197e7926f5623f2ce6873e49d0bc6302202a7c61fbd82b4f4487be3460bc830906181476ba6abf80b84692c3e539f6675701210326c115c0f1c6267f75f69631b50726cf085979a03fd3082e568f13baf72e81b9feffffffe5f87e6986817bd1bbd8658f00ae978f58daaf650a964d7a6d3da9c41dc49eeb010000006b483045022100ed782e61e82c260fb3fb3cc90149307ada705dea5db031b549025a760434958602202860844f10828d4a95674e6a35bf51449e2c95a0e0316b3f25584b6a35acfad1012103f791547cfa20f8b335de6e3b85216d07e37679a7480eec5e49b27f5d0b76c93bfeffffffe67e5f78efee8bd5d546c99aade328cf6521c8ad51714acbdece76245e85b14d010000006a47304402206bf126ed9d568cde1baa11662acfe57b144ab7623ca9d893afb52ed4961869b002205bc6222eae1f0d6e2f1a88625089b066efe92f4a1bdf3720dce62da5cefad575012102dc79686d97cded9300205e48677a0e25720fba5dad8c203281d602aef3afe5b4feffffff02f0b1750e000000001976a914e8cea30989bd15530f819b766684b00dc7ba7cfa88ac35130b00000000001976a91493d7c162682dd7e0481a467286afc2664854417788ac0b490800", "vin": [{"sequence": 4294967294, "scriptSig": {"hex": "473044022039973d1933dd2f58c25fdf34f3a2914db6413ce9d1fa9b99bb0aef18bfa03ffb0220608828f3a8cb55cf5dc1df866dd646e2397b43e12b550cea14b7e5414f7e9e2c01210209f7625ed5b6c5e1bac47b4cdf8b69a03f19736b92f6f8938b8790800e8c2f03", "asm": "3044022039973d1933dd2f58c25fdf34f3a2914db6413ce9d1fa9b99bb0aef18bfa03ffb0220608828f3a8cb55cf5dc1df866dd646e2397b43e12b550cea14b7e5414f7e9e2c[ALL] 0209f7625ed5b6c5e1bac47b4cdf8b69a03f19736b92f6f8938b8790800e8c2f03"}, "vout": 0, "txid": "e7273d639b51de9759cf07915f2f8141047cc7e49d5f94895c4b245f1d80aa01"}, {"sequence": 4294967294, "scriptSig": {"hex": "473044022052478474f0fb68bed7ec7dd09f6d633442fa1000fa386d7cf6cd27b2dbf4a8b802206d24f6a36b7f1e59cc7d0836457aaa287a08ef20a2105efad87857cb45381591012103bc18422c7ee97ef39fb7da18d420bac7316643cece6a40dd56bfe1d468392df4", "asm": "3044022052478474f0fb68bed7ec7dd09f6d633442fa1000fa386d7cf6cd27b2dbf4a8b802206d24f6a36b7f1e59cc7d0836457aaa287a08ef20a2105efad87857cb45381591[ALL] 03bc18422c7ee97ef39fb7da18d420bac7316643cece6a40dd56bfe1d468392df4"}, "vout": 0, "txid": "f7e24cc59c75b078775f62a193c259b33cc03f3f9bc3e4c56d4344cada1a9003"}, {"sequence": 4294967294, "scriptSig": {"hex": "483045022100aa314b46268a731b2ca83e26ea8c763261bcbda038cf451a2a2a1d3c221ac0230220182064101b188800be3d0339911a191d9c1d5f0d3e0677d1e427c15f82987777012103152e1f86f6cb97949b022fddea8034595a8d894ffd5e865ef0a637a851399388", "asm": "3045022100aa314b46268a731b2ca83e26ea8c763261bcbda038cf451a2a2a1d3c221ac0230220182064101b188800be3d0339911a191d9c1d5f0d3e0677d1e427c15f82987777[ALL] 03152e1f86f6cb97949b022fddea8034595a8d894ffd5e865ef0a637a851399388"}, "vout": 1, "txid": "83dfb9939335fc60a627330565b272f788317c57e4ac1c34a5dfdf037a097e20"}, {"sequence": 4294967294, "scriptSig": {"hex": "47304402206c2eb1a835fbf492e7c9c5eb8d3cdf0f6aac4bdc0b656ea86980f4cef0f0187f02203e434da219408d0182f62ee64ff974c81c5f6a20a4b1ed235565db5149a474560121023846e2dd631783893b73b4f5553dda322236a28d36753ea49414c869995adfd1", "asm": "304402206c2eb1a835fbf492e7c9c5eb8d3cdf0f6aac4bdc0b656ea86980f4cef0f0187f02203e434da219408d0182f62ee64ff974c81c5f6a20a4b1ed235565db5149a47456[ALL] 023846e2dd631783893b73b4f5553dda322236a28d36753ea49414c869995adfd1"}, "vout": 0, "txid": "910a0b1be72825e806d24ffe8c45288478ca50860f4b24d0a0d98b16003ed02b"}, {"sequence": 4294967294, "scriptSig": {"hex": "473044022010cfcffff2cc39fb370665e999dace08e24ab45668c2d86c631346d6b91a3aff0220758432d674637630769efe3bec32feea1a51d0bdb3e6fe0af3eba5a2c139a26201210387a12bab2249f432921243be6b4c021f72590d005d7f570e0cbd52b2fb2846d9", "asm": "3044022010cfcffff2cc39fb370665e999dace08e24ab45668c2d86c631346d6b91a3aff0220758432d674637630769efe3bec32feea1a51d0bdb3e6fe0af3eba5a2c139a262[ALL] 0387a12bab2249f432921243be6b4c021f72590d005d7f570e0cbd52b2fb2846d9"}, "vout": 3, "txid": "0a29948690f68fa36bdf0496e19d4df3a825f7b4f8a459e33cd8b2677a6f0037"}, {"sequence": 4294967294, "scriptSig": {"hex": "47304402203b6eb9e70faf9cc0e8b76539868eab92b4ef0e5274fe3e66c13f2d545d0830ae022066c5e0ca904d8948a4fa1d344571b35411e82703356cba820c82ffaf6cc969fd0121036920e0499b32dbb003ed06e57d739afdf0ee9ab069901650c8ade97e75b0474c", "asm": "304402203b6eb9e70faf9cc0e8b76539868eab92b4ef0e5274fe3e66c13f2d545d0830ae022066c5e0ca904d8948a4fa1d344571b35411e82703356cba820c82ffaf6cc969fd[ALL] 036920e0499b32dbb003ed06e57d739afdf0ee9ab069901650c8ade97e75b0474c"}, "vout": 0, "txid": "a4ed6db2bd521655a53ab4b23f4b1039aa597f7aba524047f66bcdfb426e186e"}, {"sequence": 4294967294, "scriptSig": {"hex": "47304402200497471e8212535f2e7c35a911cfb0c0cbd1cc78b21d68377d4bfd370f403c81022025e188cc679706254cee4e59427d86a8d849124f950f25a89bf7336c33ecd2700121025f787bf40e9066d52c9cc1c93bd0e65dd734f3b90f60e2e2b088cb836c12a676", "asm": "304402200497471e8212535f2e7c35a911cfb0c0cbd1cc78b21d68377d4bfd370f403c81022025e188cc679706254cee4e59427d86a8d849124f950f25a89bf7336c33ecd270[ALL] 025f787bf40e9066d52c9cc1c93bd0e65dd734f3b90f60e2e2b088cb836c12a676"}, "vout": 0, "txid": "ebf411591676ee96b4df3cf3b7b3cb30dd84e843010cd5288388a8bc8e2ccb71"}, {"sequence": 4294967294, "scriptSig": {"hex": "47304402207b8f0f4fcfa73c7cd564dff339db681dd6ee446d855912b22f4b94848e628ae602202ec636d13d002850786532243a106e4121db6ba22342c51ded280e867adcfc4f0121038cff739125cfebf587816370470138c1e1058c67f2e6ab19a66367bf4d81d3fd", "asm": "304402207b8f0f4fcfa73c7cd564dff339db681dd6ee446d855912b22f4b94848e628ae602202ec636d13d002850786532243a106e4121db6ba22342c51ded280e867adcfc4f[ALL] 038cff739125cfebf587816370470138c1e1058c67f2e6ab19a66367bf4d81d3fd"}, "vout": 0, "txid": "1fc2d1d8a9ba28a27e36884ca72ca42ef25b3229d6f91a8721ef08d916a52a82"}, {"sequence": 4294967294, "scriptSig": {"hex": "483045022100f19e8a2dda9a0ce5f6d282ef9941a3001be87301df2119b7c2f8caac955de467022015ad32d1bf43ea70b72cac8bac3f3fcadf0a532808fef0136e1974f3674c12070121037db90c86168db6cc9c29b85aed906ccf42d402004e7846b8db0049f6e86d6708", "asm": "3045022100f19e8a2dda9a0ce5f6d282ef9941a3001be87301df2119b7c2f8caac955de467022015ad32d1bf43ea70b72cac8bac3f3fcadf0a532808fef0136e1974f3674c1207[ALL] 037db90c86168db6cc9c29b85aed906ccf42d402004e7846b8db0049f6e86d6708"}, "vout": 1, "txid": "e94c8ae5fdf4be0246fd30cd2749ab2be22e42b30d28a20e0709d73777bf2786"}, {"sequence": 4294967294, "scriptSig": {"hex": "473044022062823cf3d21f1e859bea159341a19d215e7de898ee5036b0d7cdcd8c024e0deb02204b238d4361f5929ef9295bdfa0c5b715cdaa5985e8c9f35a82602457a5a6405d012103adeb2d4f245b3b0c64e508feb57ac2597b84f819aab7521efd390cf32d13e264", "asm": "3044022062823cf3d21f1e859bea159341a19d215e7de898ee5036b0d7cdcd8c024e0deb02204b238d4361f5929ef9295bdfa0c5b715cdaa5985e8c9f35a82602457a5a6405d[ALL] 03adeb2d4f245b3b0c64e508feb57ac2597b84f819aab7521efd390cf32d13e264"}, "vout": 1, "txid": "aa238db003aaddd66c46d22e4e49d3a019f5f026e49ab9d3442da7c35593be8e"}, {"sequence": 4294967294, "scriptSig": {"hex": "483045022100df753701dc93963e8a929114c06775c91689122f9e3ff517bcc2d5d6c8adfcd7022011860f22be296c5f9457f06c2043d0dbb0016eb523af6cb469b0606044372cc60121027636306c8ae82af1c182bff1a2b94c24b349d79de622d6d16495b890c840ae4a", "asm": "3045022100df753701dc93963e8a929114c06775c91689122f9e3ff517bcc2d5d6c8adfcd7022011860f22be296c5f9457f06c2043d0dbb0016eb523af6cb469b0606044372cc6[ALL] 027636306c8ae82af1c182bff1a2b94c24b349d79de622d6d16495b890c840ae4a"}, "vout": 0, "txid": "dcbe80fe8b986802eb5a302abb2fd55232d573d3dc471201a024bc93255e119b"}, {"sequence": 4294967294, "scriptSig": {"hex": "4730440220681706c746f1c82161e2eebfc532befceaa7113c7eeccd43f718304ae5e19725022025ef8148a2fab1982edaa030114963f571fe9a8899b5141a48f501d83b0d90e6012102cd863053b3b059d79b266abf12a8fc4a1244c8fae9192d63f0ec1ecaad20ef5c", "asm": "30440220681706c746f1c82161e2eebfc532befceaa7113c7eeccd43f718304ae5e19725022025ef8148a2fab1982edaa030114963f571fe9a8899b5141a48f501d83b0d90e6[ALL] 02cd863053b3b059d79b266abf12a8fc4a1244c8fae9192d63f0ec1ecaad20ef5c"}, "vout": 25, "txid": "8b978b86570104486168a7d4c7b18e729faf5484437c00312f9f28c89759f09c"}, {"sequence": 4294967294, "scriptSig": {"hex": "483045022100c9b004ea57d9779a447c99237b28e7b34fd65d625117c36992ad8107f846a2960220037d11498501bd50e8d7573cb6b338f3cf43e5499aaca14da2522378681f0e64012102030fd7251a16bc3fefccb69f36490a2b23ef9802c9409967cc4c683e708fd2ba", "asm": "3045022100c9b004ea57d9779a447c99237b28e7b34fd65d625117c36992ad8107f846a2960220037d11498501bd50e8d7573cb6b338f3cf43e5499aaca14da2522378681f0e64[ALL] 02030fd7251a16bc3fefccb69f36490a2b23ef9802c9409967cc4c683e708fd2ba"}, "vout": 0, "txid": "3d7b40b181faedbf32b44b1816adbbded4d52796ec75bd385fec4aa55045d8ae"}, {"sequence": 4294967294, "scriptSig": {"hex": "4730440220640e4788aa0256074ab9afb12213504deb5e0e52738bb19029b7c3a30f7ff9d902203c3bc20b7457e6191b36e272b58cea9941bdb5cf98620ec051d8934727229d100121034e73a22653659e3c98d0403cbfa516a1fc617f782a5b5ac2745c1256caf53fae", "asm": "30440220640e4788aa0256074ab9afb12213504deb5e0e52738bb19029b7c3a30f7ff9d902203c3bc20b7457e6191b36e272b58cea9941bdb5cf98620ec051d8934727229d10[ALL] 034e73a22653659e3c98d0403cbfa516a1fc617f782a5b5ac2745c1256caf53fae"}, "vout": 1, "txid": "a7570826f274c9a9fc2507eac1b1b2fd35082683113672c69547062acc49a5b6"}, {"sequence": 4294967294, "scriptSig": {"hex": "4730440220290d1c119ab79001ee8e4350cdd2e830840480887aceb8c232caaeda94604466022031e663979e1d4ff5815c4e26f1b9e05f66f91f8f51c2de882cf6b672dc97574401210258341ccc9d95ace6e960eb1051ee4a4bc3a77312e638dde4723d8497ce96eae2", "asm": "30440220290d1c119ab79001ee8e4350cdd2e830840480887aceb8c232caaeda94604466022031e663979e1d4ff5815c4e26f1b9e05f66f91f8f51c2de882cf6b672dc975744[ALL] 0258341ccc9d95ace6e960eb1051ee4a4bc3a77312e638dde4723d8497ce96eae2"}, "vout": 1800, "txid": "85737b79fad1af3c0e38da9033bdc7a8519dd14d15d336813452a53bcc33adb7"}, {"sequence": 4294967294, "scriptSig": {"hex": "473044022003ea32faed44fa2dc077886b8c1daac71c197e7926f5623f2ce6873e49d0bc6302202a7c61fbd82b4f4487be3460bc830906181476ba6abf80b84692c3e539f6675701210326c115c0f1c6267f75f69631b50726cf085979a03fd3082e568f13baf72e81b9", "asm": "3044022003ea32faed44fa2dc077886b8c1daac71c197e7926f5623f2ce6873e49d0bc6302202a7c61fbd82b4f4487be3460bc830906181476ba6abf80b84692c3e539f66757[ALL] 0326c115c0f1c6267f75f69631b50726cf085979a03fd3082e568f13baf72e81b9"}, "vout": 1, "txid": "44ddce05da7a1c24b7f1256a049b3013397fb4c66ff356d689107d5038856add"}, {"sequence": 4294967294, "scriptSig": {"hex": "483045022100ed782e61e82c260fb3fb3cc90149307ada705dea5db031b549025a760434958602202860844f10828d4a95674e6a35bf51449e2c95a0e0316b3f25584b6a35acfad1012103f791547cfa20f8b335de6e3b85216d07e37679a7480eec5e49b27f5d0b76c93b", "asm": "3045022100ed782e61e82c260fb3fb3cc90149307ada705dea5db031b549025a760434958602202860844f10828d4a95674e6a35bf51449e2c95a0e0316b3f25584b6a35acfad1[ALL] 03f791547cfa20f8b335de6e3b85216d07e37679a7480eec5e49b27f5d0b76c93b"}, "vout": 1, "txid": "eb9ec41dc4a93d6d7a4d960a65afda588f97ae008f65d8bbd17b8186697ef8e5"}, {"sequence": 4294967294, "scriptSig": {"hex": "47304402206bf126ed9d568cde1baa11662acfe57b144ab7623ca9d893afb52ed4961869b002205bc6222eae1f0d6e2f1a88625089b066efe92f4a1bdf3720dce62da5cefad575012102dc79686d97cded9300205e48677a0e25720fba5dad8c203281d602aef3afe5b4", "asm": "304402206bf126ed9d568cde1baa11662acfe57b144ab7623ca9d893afb52ed4961869b002205bc6222eae1f0d6e2f1a88625089b066efe92f4a1bdf3720dce62da5cefad575[ALL] 02dc79686d97cded9300205e48677a0e25720fba5dad8c203281d602aef3afe5b4"}, "vout": 1, "txid": "4db1855e2476cedecb4a7151adc82165cf28e3ad9ac946d5d58beeef785f7ee6"}], "txid": "920ec1a2467151e8a4a0a72077114d00c5d3194f922db4721d5f35ed8754a41d", "blocktime": 1537869901, "version": 2, "confirmations": 11522, "time": 1537869901, "locktime": 542987, "vsize": 2729, "size": 2729}