{"hash": "9213a6c60bf0effa2a71a984c02b8bcdb86e9066d661737aa25dece9ccd98280", "blockhash": "0000000000000000000dcc0f55137456b1a82d3642486a52398922ac4d620174", "vout": [{"scriptPubKey": {"reqSigs": 1, "hex": "76a91412c5f91d803e376ca27a85e03d83cf73ec08848788ac", "addresses": ["12iGKsCe3JtSASCfPvgRiAPWPaAWraWFq9"], "asm": "OP_DUP OP_HASH160 12c5f91d803e376ca27a85e03d83cf73ec088487 OP_EQUALVERIFY OP_CHECKSIG", "type": "pubkeyhash"}, "value": 2.076e-05, "n": 0}, {"scriptPubKey": {"reqSigs": 1, "hex": "76a9143c390e01eb76970a057fd64c87ea387c07850bb088ac", "addresses": ["16VRtjystvkeAmE2wPB7DDqzCMdnw43Fbv"], "asm": "OP_DUP OP_HASH160 3c390e01eb76970a057fd64c87ea387c07850bb0 OP_EQUALVERIFY OP_CHECKSIG", "type": "pubkeyhash"}, "value": 2.37e-05, "n": 1}], "hex": "010000000294b56b8e3a03dde02f90cc50299fd5fec25f9a2485c6255db64bc034ffa5ec6c060000006a47304402207ffac1afc466e80d344580541e96228b650c4966075b88ccdb91d541c76504dc0220236e0b8e5b3b431a760b4cb85193af9a3cd63ce3b6c38944f29c3a7af44349660121025c3846ff603c5e0e4e26da129263b0e8e3ad68c99ba52087111a43a960a1fceeffffffff2e4b69722663690ae6aeea1ba3786f1372d40ae7483e556746f1365591f55eda050000006b4830450221009d76108c62bc10db13eaa3af2a3347c200d5dc81ef7267f072abfffbb0abff81022005170cd3786bffdd255716bb2e79da4ca9c828e8c653d3f9b144b7dbc3194dfa012102124da4606740c8ad6d707632f8fc4633037513805fe53aeb1f828c92fb319691ffffffff021c080000000000001976a91412c5f91d803e376ca27a85e03d83cf73ec08848788ac42090000000000001976a9143c390e01eb76970a057fd64c87ea387c07850bb088ac00000000", "vin": [{"sequence": 4294967295, "scriptSig": {"hex": "47304402207ffac1afc466e80d344580541e96228b650c4966075b88ccdb91d541c76504dc0220236e0b8e5b3b431a760b4cb85193af9a3cd63ce3b6c38944f29c3a7af44349660121025c3846ff603c5e0e4e26da129263b0e8e3ad68c99ba52087111a43a960a1fcee", "asm": "304402207ffac1afc466e80d344580541e96228b650c4966075b88ccdb91d541c76504dc0220236e0b8e5b3b431a760b4cb85193af9a3cd63ce3b6c38944f29c3a7af4434966[ALL] 025c3846ff603c5e0e4e26da129263b0e8e3ad68c99ba52087111a43a960a1fcee"}, "vout": 6, "txid": "6ceca5ff34c04bb65d25c685249a5fc2fed59f2950cc902fe0dd033a8e6bb594"}, {"sequence": 4294967295, "scriptSig": {"hex": "4830450221009d76108c62bc10db13eaa3af2a3347c200d5dc81ef7267f072abfffbb0abff81022005170cd3786bffdd255716bb2e79da4ca9c828e8c653d3f9b144b7dbc3194dfa012102124da4606740c8ad6d707632f8fc4633037513805fe53aeb1f828c92fb319691", "asm": "30450221009d76108c62bc10db13eaa3af2a3347c200d5dc81ef7267f072abfffbb0abff81022005170cd3786bffdd255716bb2e79da4ca9c828e8c653d3f9b144b7dbc3194dfa[ALL] 02124da4606740c8ad6d707632f8fc4633037513805fe53aeb1f828c92fb319691"}, "vout": 5, "txid": "da5ef5915536f14667553e48e70ad472136f78a31beaaee60a69632672694b2e"}], "txid": "9213a6c60bf0effa2a71a984c02b8bcdb86e9066d661737aa25dece9ccd98280", "blocktime": 1537870268, "version": 1, "confirmations": 11518, "time": 1537870268, "locktime": 0, "vsize": 373, "size": 373}