{"hash": "265f02dc600f464f679828037583dd62fbdb7e588f425be260c94e44efc28361", "blockhash": "0000000000000000000e13cef7c366c0283d82e591d1acd082e914b08063cdf1", "vout": [{"scriptPubKey": {"reqSigs": 1, "hex": "0014a9540f516704ee19f101098fec3dcba849555fec", "addresses": ["bc1q492q75t8qnhpnugppx87c0wt4py42hlvl25qyg"], "asm": "0 a9540f516704ee19f101098fec3dcba849555fec", "type": "witness_v0_keyhash"}, "value": 1.98247103, "n": 0}, {"scriptPubKey": {"reqSigs": 1, "hex": "76a91428cf9f0666503468219413a86424bd44b5b3c34e88ac", "addresses": ["14inkSu1kdXx3WpasH2XPyyg1ndTQ4LQ4n"], "asm": "OP_DUP OP_HASH160 28cf9f0666503468219413a86424bd44b5b3c34e OP_EQUALVERIFY OP_CHECKSIG", "type": "pubkeyhash"}, "value": 0.19821633, "n": 1}], "hex": "01000000000101af8377c0c95f75b72dd32a61cd0d03ad9192898d3712d8a27519fb6d66ea32630000000000ffffffff02bf02d10b00000000160014a9540f516704ee19f101098fec3dcba849555fec41742e01000000001976a91428cf9f0666503468219413a86424bd44b5b3c34e88ac02483045022100facecd16c2c13944853d271efea8038047dfe5c178ce3019150022e3a92c7561022064b745ab03701a19c9cc3ee8b23022e2e4ef845ec174ef0fa924c9eff30f739b012102755369ac70569eacd2d8086c50f3c5d7eeb52c65b3e17591b630aa6f2101c46d00000000", "vin": [{"txinwitness": ["3045022100facecd16c2c13944853d271efea8038047dfe5c178ce3019150022e3a92c7561022064b745ab03701a19c9cc3ee8b23022e2e4ef845ec174ef0fa924c9eff30f739b01", "02755369ac70569eacd2d8086c50f3c5d7eeb52c65b3e17591b630aa6f2101c46d"], "sequence": 4294967295, "scriptSig": {"hex": "", "asm": ""}, "vout": 0, "txid": "6332ea666dfb1975a2d812378d899291ad030dcd612ad32db7755fc9c07783af"}], "txid": "9224cec53726fe0be24027d1ac39ebe70a3cfe6a00ae805e0ff4d43f48c0fbec", "blocktime": 1537871767, "version": 1, "confirmations": 11495, "time": 1537871767, "locktime": 0, "vsize": 144, "size": 226}