{"hash": "92270a79b1f347c31eaad3cc60951f625ef6e787f474993a70dd517e2acd49b3", "blockhash": "0000000000000000001cda96e906b7601b7a6fb1a3b62bca570a9e5d8f4b3de1", "vout": [{"scriptPubKey": {"reqSigs": 1, "hex": "76a914b87c50be4da120452e37a22460c2229786cfbf1b88ac", "addresses": ["1HpUFtBfTGEvEaurfFNYzKHrKcwj57S93L"], "asm": "OP_DUP OP_HASH160 b87c50be4da120452e37a22460c2229786cfbf1b OP_EQUALVERIFY OP_CHECKSIG", "type": "pubkeyhash"}, "value": 0.00449513, "n": 0}, {"scriptPubKey": {"reqSigs": 1, "hex": "76a914e349bc52d6b8100b58d3fce45135a91c5c128a1d88ac", "addresses": ["1MiningDkXkhKaXBTMKXfLemnk1YY5rbkT"], "asm": "OP_DUP OP_HASH160 e349bc52d6b8100b58d3fce45135a91c5c128a1d OP_EQUALVERIFY OP_CHECKSIG", "type": "pubkeyhash"}, "value": 0.01111119, "n": 1}], "hex": "02000000018530daf98edd10beb76207a92969b2d8cfa70d56358e85dd8cfaa62c1c55252f010000008b483045022100ebc2dcae58fe2f288e0ca830c00f8bbc92d2fa6d5cafabbf6f4d719c36ff8d4202207115d1f07a225239396db13404f7526bbc9564194a3115d4cfb52bb47ec2d8cc014104ae414abde7876c34e01694b38b2341d10b9b4c8db18a66262bd8df26bcb57893885c9fe8b79aa25330d5f05bb5aa9ab636a908a72e27956572b44190b22809beffffffff02e9db0600000000001976a914b87c50be4da120452e37a22460c2229786cfbf1b88ac4ff41000000000001976a914e349bc52d6b8100b58d3fce45135a91c5c128a1d88ac00000000", "vin": [{"sequence": 4294967295, "scriptSig": {"hex": "483045022100ebc2dcae58fe2f288e0ca830c00f8bbc92d2fa6d5cafabbf6f4d719c36ff8d4202207115d1f07a225239396db13404f7526bbc9564194a3115d4cfb52bb47ec2d8cc014104ae414abde7876c34e01694b38b2341d10b9b4c8db18a66262bd8df26bcb57893885c9fe8b79aa25330d5f05bb5aa9ab636a908a72e27956572b44190b22809be", "asm": "3045022100ebc2dcae58fe2f288e0ca830c00f8bbc92d2fa6d5cafabbf6f4d719c36ff8d4202207115d1f07a225239396db13404f7526bbc9564194a3115d4cfb52bb47ec2d8cc[ALL] 04ae414abde7876c34e01694b38b2341d10b9b4c8db18a66262bd8df26bcb57893885c9fe8b79aa25330d5f05bb5aa9ab636a908a72e27956572b44190b22809be"}, "vout": 1, "txid": "2f25551c2ca6fa8cdd858e35560da7cfd8b26929a90762b7be10dd8ef9da3085"}], "txid": "92270a79b1f347c31eaad3cc60951f625ef6e787f474993a70dd517e2acd49b3", "blocktime": 1537873282, "version": 2, "confirmations": 11484, "time": 1537873282, "locktime": 0, "vsize": 258, "size": 258}