{"hash": "a0cd6e9a714a0e4f6d9fa2e3c44492967befb4926c95148c57de5b17b5d02175", "blockhash": "00000000000000000017f5eb5941039fbcee6240d03bc1f2f8e35350df66a1d8", "vout": [{"scriptPubKey": {"reqSigs": 1, "hex": "a914735bec9e690be46518212813f81bb89e021f5d4387", "addresses": ["3CCykcgcwPMUzh1ZyZ7vwH2B3tWuE8yD5i"], "asm": "OP_HASH160 735bec9e690be46518212813f81bb89e021f5d43 OP_EQUAL", "type": "scripthash"}, "value": 0.01124534, "n": 0}, {"scriptPubKey": {"reqSigs": 1, "hex": "76a91428b6c29cd15b927f44332d0b0d8aaf184e6e10d988ac", "addresses": ["14iGy5LyMz3NjLbcd2byRoGtHV7VeMcCmG"], "asm": "OP_DUP OP_HASH160 28b6c29cd15b927f44332d0b0d8aaf184e6e10d9 OP_EQUALVERIFY OP_CHECKSIG", "type": "pubkeyhash"}, "value": 0.0065, "n": 1}], "hex": "01000000000101a2330ed56eb5aec0b1aa43c47e7f48a195b022dc6020bb13f46c3884cb037daa0100000023220020e2ffcefb94a648f604f2859bc9f8f7ae71bac95e79beb4a4947a95542f5d33a0fdffffff02b62811000000000017a914735bec9e690be46518212813f81bb89e021f5d438710eb0900000000001976a91428b6c29cd15b927f44332d0b0d8aaf184e6e10d988ac0400483045022100bf4d5ca4fb6e60e1fa477236b9713279c8b4674d3ab71c448ef519266484636602207649d52e17351cef55123c937acd43e504837d39030f3a84a78f066c08516105014730440220412db19c03b7932625f8a1f6c5a41e45945d3b77c701749b989274524694d22002203f7673ef9630fe6465f30692ebd5e446de41ea0af95915df8dd33dd6dbeef7bc0147522102931e3d713d51def2a963af0f495a7cd4fc6c330bb78dba1094151d0a4e873f50210278ad3ce6d1b5088ab5e91a91be097bde199a6bf08acfbe6600dfedcdce2aa82052ae14490800", "vin": [{"txinwitness": ["", "3045022100bf4d5ca4fb6e60e1fa477236b9713279c8b4674d3ab71c448ef519266484636602207649d52e17351cef55123c937acd43e504837d39030f3a84a78f066c0851610501", "30440220412db19c03b7932625f8a1f6c5a41e45945d3b77c701749b989274524694d22002203f7673ef9630fe6465f30692ebd5e446de41ea0af95915df8dd33dd6dbeef7bc01", "522102931e3d713d51def2a963af0f495a7cd4fc6c330bb78dba1094151d0a4e873f50210278ad3ce6d1b5088ab5e91a91be097bde199a6bf08acfbe6600dfedcdce2aa82052ae"], "sequence": 4294967293, "scriptSig": {"hex": "220020e2ffcefb94a648f604f2859bc9f8f7ae71bac95e79beb4a4947a95542f5d33a0", "asm": "0020e2ffcefb94a648f604f2859bc9f8f7ae71bac95e79beb4a4947a95542f5d33a0"}, "vout": 1, "txid": "aa7d03cb84386cf413bb2060dc22b095a1487f7ec443aab1c0aeb56ed50e33a2"}], "txid": "922a68e588be2a15378f02a0860c435a30491995747f3faaac81937df99b571c", "blocktime": 1537874412, "version": 1, "confirmations": 11467, "time": 1537874412, "locktime": 542996, "vsize": 208, "size": 373}