{"hash": "922b6272aef8976779daa88488d182bd388b9d356962955037dabf146d7a6248", "blockhash": "0000000000000000000e13cef7c366c0283d82e591d1acd082e914b08063cdf1", "vout": [{"scriptPubKey": {"reqSigs": 1, "hex": "a914550ae43fdf8eb87d19972a58f21673dc6fe43cb187", "addresses": ["39SgQcPV4aAj5gJKkQRRhbrfh9q659fmAp"], "asm": "OP_HASH160 550ae43fdf8eb87d19972a58f21673dc6fe43cb1 OP_EQUAL", "type": "scripthash"}, "value": 4.066e-05, "n": 0}], "hex": "0100000001a99a56e12b58f32e8c0ac3ef36d90d4800bda420069eec202b0e437366fdf218000000006a473044022000c39db525eea4e5b36580421b1b064ae53c22261f801d12713d1d2862cb565202200f88a46df33f4d117ea09dd00091a7b94175c8e7f5ca45aab3500e998919463f012103c586842cd80ed19eb472e37f3b1d026f82bcec962f0e50d88b8a8f622965f593ffffffff01e20f00000000000017a914550ae43fdf8eb87d19972a58f21673dc6fe43cb18700000000", "vin": [{"sequence": 4294967295, "scriptSig": {"hex": "473044022000c39db525eea4e5b36580421b1b064ae53c22261f801d12713d1d2862cb565202200f88a46df33f4d117ea09dd00091a7b94175c8e7f5ca45aab3500e998919463f012103c586842cd80ed19eb472e37f3b1d026f82bcec962f0e50d88b8a8f622965f593", "asm": "3044022000c39db525eea4e5b36580421b1b064ae53c22261f801d12713d1d2862cb565202200f88a46df33f4d117ea09dd00091a7b94175c8e7f5ca45aab3500e998919463f[ALL] 03c586842cd80ed19eb472e37f3b1d026f82bcec962f0e50d88b8a8f622965f593"}, "vout": 0, "txid": "18f2fd6673430e2b20ec9e0620a4bd00480dd936efc30a8c2ef3582be1569aa9"}], "txid": "922b6272aef8976779daa88488d182bd388b9d356962955037dabf146d7a6248", "blocktime": 1537871767, "version": 1, "confirmations": 11495, "time": 1537871767, "locktime": 0, "vsize": 189, "size": 189}