{"hash": "5ffedf649ef0dc2281702cf2c063ecb7c05307e5472faf6d09749f2f8b65e9fd", "blockhash": "0000000000000000001f0ddff1eddb255c1121bcd4da4f1bc9a0da00cae72433", "vout": [{"scriptPubKey": {"reqSigs": 1, "hex": "a914b44bc761a0808f5fa315291aebfd2b27774b688587", "addresses": ["3J8LLH8QbueMEBB894qSdzV8QacpMKZbGd"], "asm": "OP_HASH160 b44bc761a0808f5fa315291aebfd2b27774b6885 OP_EQUAL", "type": "scripthash"}, "value": 0.01026033, "n": 0}, {"scriptPubKey": {"reqSigs": 1, "hex": "76a9142e1b944fe7ffbe969fc1df8d662fd7b5d6303c9b88ac", "addresses": ["15Co856cRnFRCKwSSzECoyT3ozVhuFoJZ6"], "asm": "OP_DUP OP_HASH160 2e1b944fe7ffbe969fc1df8d662fd7b5d6303c9b OP_EQUALVERIFY OP_CHECKSIG", "type": "pubkeyhash"}, "value": 0.0026396, "n": 1}], "hex": "0200000000010244da4c5218ffdfc4fd0550b60c5681d6f3b83b3c04a82e9fc16927c43a2bed710100000017160014a24ce0657bd2429bb3bca6039bf627b7820c0e7afeffffffdf01e1088aea1506d73b11bd39bebaf85e1fa2c770a0bb06be26aee1869dfcc11300000017160014e31009e5a7f024afa2ee7630c612fdda159bc1c6feffffff02f1a70f000000000017a914b44bc761a0808f5fa315291aebfd2b27774b68858718070400000000001976a9142e1b944fe7ffbe969fc1df8d662fd7b5d6303c9b88ac0247304402207d90635d63789b1570c312b7f50591212a11fe328ef76037817358c6792f666302207b0cbc766726a984eef48fdfff7e5b7758cb6079630ddbb4512238016a93e0fd0121026bbda1a97f2bf8c243b8f7ef707116ec6977355750ae941bc31f805feb5969b202473044022064fe62feb6560103c5271caea5bc3e7a08b5c57f390d172f9524fd60b292caa002204601d8b3f5c5e94f44c77c5a18be78d06e168bc031f6aa37c49eae25903cd8950121034f5a5ef1bc270a4d5e76a2e357000e42533222c4df79c578e1571e6712d6c81310490800", "vin": [{"txinwitness": ["304402207d90635d63789b1570c312b7f50591212a11fe328ef76037817358c6792f666302207b0cbc766726a984eef48fdfff7e5b7758cb6079630ddbb4512238016a93e0fd01", "026bbda1a97f2bf8c243b8f7ef707116ec6977355750ae941bc31f805feb5969b2"], "sequence": 4294967294, "scriptSig": {"hex": "160014a24ce0657bd2429bb3bca6039bf627b7820c0e7a", "asm": "0014a24ce0657bd2429bb3bca6039bf627b7820c0e7a"}, "vout": 1, "txid": "71ed2b3ac42769c19f2ea8043c3bb8f3d681560cb65005fdc4dfff18524cda44"}, {"txinwitness": ["3044022064fe62feb6560103c5271caea5bc3e7a08b5c57f390d172f9524fd60b292caa002204601d8b3f5c5e94f44c77c5a18be78d06e168bc031f6aa37c49eae25903cd89501", "034f5a5ef1bc270a4d5e76a2e357000e42533222c4df79c578e1571e6712d6c813"], "sequence": 4294967294, "scriptSig": {"hex": "160014e31009e5a7f024afa2ee7630c612fdda159bc1c6", "asm": "0014e31009e5a7f024afa2ee7630c612fdda159bc1c6"}, "vout": 19, "txid": "c1fc9d86e1ae26be06bba070c7a21f5ef8babe39bd113bd70615ea8a08e101df"}], "txid": "922f1bd01a5d589cb74682adbeef9765a1c46804dcd8138e35356f6999ca7900", "blocktime": 1537872018, "version": 2, "confirmations": 11489, "time": 1537872018, "locktime": 542992, "vsize": 258, "size": 420}