{"hash": "ebde183403fc9c95f1e392c90dcfdd4cff3d6ff40d732c4050e9c9d036b99bb4", "blockhash": "00000000000000000018f53835495a110e01622372bf6ae95dc86f2b0ab887b0", "vout": [{"scriptPubKey": {"reqSigs": 1, "hex": "a91483eb45236462300b671896990f1aa300d91c615387", "addresses": ["3DiYHXPFPU1SuZBRXvFTZisyQKt8qsTYEz"], "asm": "OP_HASH160 83eb45236462300b671896990f1aa300d91c6153 OP_EQUAL", "type": "scripthash"}, "value": 0.179731, "n": 0}, {"scriptPubKey": {"reqSigs": 1, "hex": "a914bb076915e47e3913d4fb4765f3f4d02171ac2cdc87", "addresses": ["3JjwAJhRHkTXUhkcHvGG8BotCrMkLb8eKS"], "asm": "OP_HASH160 bb076915e47e3913d4fb4765f3f4d02171ac2cdc OP_EQUAL", "type": "scripthash"}, "value": 0.036295, "n": 1}], "hex": "01000000000101e622e77279f72ed7e74491d4d5f7c3312998233d183f981b50e7da6417749ab00000000023220020aacd25161bff95fbd6731c20189cc95de12b903f4057b830a1cee2d1e86fe2bbffffffff026c3f12010000000017a91483eb45236462300b671896990f1aa300d91c615387bc6137000000000017a914bb076915e47e3913d4fb4765f3f4d02171ac2cdc8704004730440220093a5230dd8108dac330ca35a15793d1dbb02da10cb65a77bc15ffe805b094ce022062e0bd1769d88296f80edca0e83c803bfacc1ae733186793a6ca1fffbfa834ef01483045022100e05907c09efd46e97d8dce0289ea263fc3cbaf2a001c93afaa89e42eb77242da02200f8b41c6bdf4c4ef17d8742be45df2d5924a96b5a98d8ffa2e3c86eccb94f4e001695221039059b6db75ee0f95ea3e9c8699834df129eaed55069d1ca9e9248c03ab509bd7210255264c4f5d3e726c143e4285a03b327328339610d3faa019d62313d81964192e210221feba6a5e7fa1a69921d3cc86fd8b28318d4f525dc67bdb37000674bf3fc06953ae00000000", "vin": [{"txinwitness": ["", "30440220093a5230dd8108dac330ca35a15793d1dbb02da10cb65a77bc15ffe805b094ce022062e0bd1769d88296f80edca0e83c803bfacc1ae733186793a6ca1fffbfa834ef01", "3045022100e05907c09efd46e97d8dce0289ea263fc3cbaf2a001c93afaa89e42eb77242da02200f8b41c6bdf4c4ef17d8742be45df2d5924a96b5a98d8ffa2e3c86eccb94f4e001", "5221039059b6db75ee0f95ea3e9c8699834df129eaed55069d1ca9e9248c03ab509bd7210255264c4f5d3e726c143e4285a03b327328339610d3faa019d62313d81964192e210221feba6a5e7fa1a69921d3cc86fd8b28318d4f525dc67bdb37000674bf3fc06953ae"], "sequence": 4294967295, "scriptSig": {"hex": "220020aacd25161bff95fbd6731c20189cc95de12b903f4057b830a1cee2d1e86fe2bb", "asm": "0020aacd25161bff95fbd6731c20189cc95de12b903f4057b830a1cee2d1e86fe2bb"}, "vout": 0, "txid": "b09a741764dae7501b983f183d23982931c3f7d5d49144e7d72ef77972e722e6"}], "txid": "922f896e8db5e9bcecfce74cf27f98ac7cbe595e79874b9e091e9ba3953c03d0", "blocktime": 1537870928, "version": 1, "confirmations": 11514, "time": 1537870928, "locktime": 0, "vsize": 214, "size": 405}