{"hash": "92300d95de9952bd82fe1ebad49b7dc34c360859c6f559b178b867cb659003fb", "blockhash": "00000000000000000017f5eb5941039fbcee6240d03bc1f2f8e35350df66a1d8", "vout": [{"scriptPubKey": {"reqSigs": 1, "hex": "76a914bf147311810828514b8d85b0754223f82a29960688ac", "addresses": ["1JRLZVhVZRqAvj2vSdpbjifzB4S7R7K31t"], "asm": "OP_DUP OP_HASH160 bf147311810828514b8d85b0754223f82a299606 OP_EQUALVERIFY OP_CHECKSIG", "type": "pubkeyhash"}, "value": 0.00112524, "n": 0}, {"scriptPubKey": {"reqSigs": 1, "hex": "76a914a042d23f35aa1823df7ac3ae864f0f811dd11ca188ac", "addresses": ["1FcPAWxoQcy8qiCVsn4gEDm1wvFKAbEw3d"], "asm": "OP_DUP OP_HASH160 a042d23f35aa1823df7ac3ae864f0f811dd11ca1 OP_EQUALVERIFY OP_CHECKSIG", "type": "pubkeyhash"}, "value": 0.20412792, "n": 1}], "hex": "0100000003bdda60b2ca874dff3b6f0905d0a9a5cd241c77c303194754942a6856bb05af125d0000006a473044022070c9092c8f3aa51fbf00009bb0e1085d06ee9b62f989bf94f46850ac29fc165c022036cc257cf27749533342ba0b83adecc2728f42dfe02105dead3eee507b476039012103cbb1c85ddcade3d9b3995153813eadaf7e912cc873dce880b393398e9e87e25bffffffff73302aebc11419a720fdb2a2824af06ad7aed75756b79afcfa8b2408fb0b7e46010000006a473044022067c21ebc9596ae36fbd8e59c9f035a431d4bcbf0d33709af29a6b63ed046dbae0220021d8466720268073405ce55866a975206af413dfb3cc212a3405eda5cb1be2e0121034f2ef03c36bcec3d6c3ef707008a680831aefd33fa600056dc13507691311c87ffffffff0035c4c1a958eee0757ebaf56604ef7ebef50bff5be6d5c0d5baf4ef8750d86a000000006b4830450221008c6b92b6f0491e201b490346054ff037eded177d2cf112b29b6a27d7e54fec3d0220170e856212aafe2f40b30062929d9b70b502fd63e06398d2d49bfbbc28603c45012103676bfa1fbbdf54310811ab8bb38ec1bef09e32628a1b74872551265ba31cd233ffffffff028cb70100000000001976a914bf147311810828514b8d85b0754223f82a29960688ac78793701000000001976a914a042d23f35aa1823df7ac3ae864f0f811dd11ca188ac00000000", "vin": [{"sequence": 4294967295, "scriptSig": {"hex": "473044022070c9092c8f3aa51fbf00009bb0e1085d06ee9b62f989bf94f46850ac29fc165c022036cc257cf27749533342ba0b83adecc2728f42dfe02105dead3eee507b476039012103cbb1c85ddcade3d9b3995153813eadaf7e912cc873dce880b393398e9e87e25b", "asm": "3044022070c9092c8f3aa51fbf00009bb0e1085d06ee9b62f989bf94f46850ac29fc165c022036cc257cf27749533342ba0b83adecc2728f42dfe02105dead3eee507b476039[ALL] 03cbb1c85ddcade3d9b3995153813eadaf7e912cc873dce880b393398e9e87e25b"}, "vout": 93, "txid": "12af05bb56682a9454471903c3771c24cda5a9d005096f3bff4d87cab260dabd"}, {"sequence": 4294967295, "scriptSig": {"hex": "473044022067c21ebc9596ae36fbd8e59c9f035a431d4bcbf0d33709af29a6b63ed046dbae0220021d8466720268073405ce55866a975206af413dfb3cc212a3405eda5cb1be2e0121034f2ef03c36bcec3d6c3ef707008a680831aefd33fa600056dc13507691311c87", "asm": "3044022067c21ebc9596ae36fbd8e59c9f035a431d4bcbf0d33709af29a6b63ed046dbae0220021d8466720268073405ce55866a975206af413dfb3cc212a3405eda5cb1be2e[ALL] 034f2ef03c36bcec3d6c3ef707008a680831aefd33fa600056dc13507691311c87"}, "vout": 1, "txid": "467e0bfb08248bfafc9ab75657d7aed76af04a82a2b2fd20a71914c1eb2a3073"}, {"sequence": 4294967295, "scriptSig": {"hex": "4830450221008c6b92b6f0491e201b490346054ff037eded177d2cf112b29b6a27d7e54fec3d0220170e856212aafe2f40b30062929d9b70b502fd63e06398d2d49bfbbc28603c45012103676bfa1fbbdf54310811ab8bb38ec1bef09e32628a1b74872551265ba31cd233", "asm": "30450221008c6b92b6f0491e201b490346054ff037eded177d2cf112b29b6a27d7e54fec3d0220170e856212aafe2f40b30062929d9b70b502fd63e06398d2d49bfbbc28603c45[ALL] 03676bfa1fbbdf54310811ab8bb38ec1bef09e32628a1b74872551265ba31cd233"}, "vout": 0, "txid": "6ad85087eff4bad5c0d5e65bff0bf5be7eef0466f5ba7e75e0ee58a9c1c43500"}], "txid": "92300d95de9952bd82fe1ebad49b7dc34c360859c6f559b178b867cb659003fb", "blocktime": 1537874412, "version": 1, "confirmations": 11468, "time": 1537874412, "locktime": 0, "vsize": 520, "size": 520}