{"hash": "9232987cd66b938c9383e7315b43d04942b76184cd9c32143fa5c5cdffb89c26", "blockhash": "000000000000000000022b45ed06c6f4ccd3cf7fb5ba4856ebd2e58215665228", "vout": [{"scriptPubKey": {"reqSigs": 1, "hex": "a91433f7fc5eb2f598ffb7d46f2a0f0da89bce367db687", "addresses": ["36RoTgd3sydfYkC1fSzcSBGB7SUcdpUwEN"], "asm": "OP_HASH160 33f7fc5eb2f598ffb7d46f2a0f0da89bce367db6 OP_EQUAL", "type": "scripthash"}, "value": 0.00155959, "n": 0}, {"scriptPubKey": {"reqSigs": 1, "hex": "76a9143b4c0d06c25f8458e42bf125e67a225234beb85188ac", "addresses": ["16QXyRiL4q44LYKQQHS7saHSsc13doE2r6"], "asm": "OP_DUP OP_HASH160 3b4c0d06c25f8458e42bf125e67a225234beb851 OP_EQUALVERIFY OP_CHECKSIG", "type": "pubkeyhash"}, "value": 0.00362222, "n": 1}], "hex": "0100000001859204b5019304b4bd01251a3e94cff833b9b0a0c77f32571af0ff316e94029f010000006a4730440220315b69b89af0757e0a9ebbd95d46af3f1fe8fee85dc53221ad20d741d80b2d2002202f7c3410949fc67f6fa28ebf12f9195501dec58dd7f9f5421b0b2cfd36c2486c012102662510ffe4fd1781fb8eb181b9403da23d17138a25b4dbdc01ad18303120cdf0ffffffff02376102000000000017a91433f7fc5eb2f598ffb7d46f2a0f0da89bce367db687ee860500000000001976a9143b4c0d06c25f8458e42bf125e67a225234beb85188ac00000000", "vin": [{"sequence": 4294967295, "scriptSig": {"hex": "4730440220315b69b89af0757e0a9ebbd95d46af3f1fe8fee85dc53221ad20d741d80b2d2002202f7c3410949fc67f6fa28ebf12f9195501dec58dd7f9f5421b0b2cfd36c2486c012102662510ffe4fd1781fb8eb181b9403da23d17138a25b4dbdc01ad18303120cdf0", "asm": "30440220315b69b89af0757e0a9ebbd95d46af3f1fe8fee85dc53221ad20d741d80b2d2002202f7c3410949fc67f6fa28ebf12f9195501dec58dd7f9f5421b0b2cfd36c2486c[ALL] 02662510ffe4fd1781fb8eb181b9403da23d17138a25b4dbdc01ad18303120cdf0"}, "vout": 1, "txid": "9f02946e31fff01a57327fc7a0b0b933f8cf943e1a2501bdb4049301b5049285"}], "txid": "9232987cd66b938c9383e7315b43d04942b76184cd9c32143fa5c5cdffb89c26", "blocktime": 1537869901, "version": 1, "confirmations": 11523, "time": 1537869901, "locktime": 0, "vsize": 223, "size": 223}