{"hash": "923cf655f4ed17edb2a1af1005a5aa1f98bec319f5cd16ba694a4f6ef9f9602a", "blockhash": "000000000000000000022b45ed06c6f4ccd3cf7fb5ba4856ebd2e58215665228", "vout": [{"scriptPubKey": {"reqSigs": 1, "hex": "a9143fa32172d241924653b3723f2b05ef676e79876b87", "addresses": ["37VVv9R7UZEgutXtVs2N41Yi6JDqHwpRiJ"], "asm": "OP_HASH160 3fa32172d241924653b3723f2b05ef676e79876b OP_EQUAL", "type": "scripthash"}, "value": 0.06619, "n": 0}, {"scriptPubKey": {"reqSigs": 1, "hex": "a914cf66d6097af8dff78f130306a6d3fd0eed78fc3887", "addresses": ["3LbezRq5feDDtbnLuJNRLgsWJp2C4ysSaX"], "asm": "OP_HASH160 cf66d6097af8dff78f130306a6d3fd0eed78fc38 OP_EQUAL", "type": "scripthash"}, "value": 0.1349412, "n": 1}], "hex": "01000000037dbcf62224944ffaf7f1566351749fa1739b7921782b268874f53e3f0011d8ef01000000db00483045022100f43d581b93599464f5d487a1e57f2d161e93d3c1df20dcdfc351958489d088eb0220043ec295c2e1aaa64bf9bcd5b9a40e90abd4e58c6850818dc7ae182496c9e91801483045022100f656f61fa62eedb30f7bf44ac388c74b37f70c66576088efc286243a237639cf0220195a2793b98a7eb11903cf604968687306a8d1e31b5af1dc92f0ff7ed15fcc3001475221038a1751335d88288474033880ba81a14c5f7f536f7a4de0bbe1836301a9f5fde021029cfe8b16f24284e020d06aaa2566da776776e275665691857265930c813bfb8252aeffffffff4d9e84509ce447cd738e8f44dc58a1a0cb61db106354ab53c3bdd07b6ecd9d0f02000000da00483045022100afc327a106ff1590a519d1bade87a5264f70cc05c8df335ab75f2193b62bccd502201b20d8282029533d02eeb6c05359701247ab374b4fe836453d3fe9637d004b920147304402206e1b0196049260d2f01f708611820f74f2d249f6872b03e2dad42bd5684b067402201efc3bf8fec90cc1c359b78d84680e5319c7495a0109afdf001147e02f5c385d01475221038a1751335d88288474033880ba81a14c5f7f536f7a4de0bbe1836301a9f5fde021029cfe8b16f24284e020d06aaa2566da776776e275665691857265930c813bfb8252aefffffffffc809ba695d26f0b986107a41b0a2161d308557d6c857b1bc0262b9f23f50dcf01000000d9004730440220450ee8e752e6c437af40b682b585109e31bbc657783676f807a1c18998c51171022061757fd23e744e6e688bbb948b5b12ef1515f95cfc3ae34cc67bd314ee8a17f601473044022079332217d4c349f15e4d842e549e0ae2b512a99b3419d1501c4835bdb404ebc40220345dd4f26028bc9f9ec98e3228fb5341e47d326764bf11b9674aa27a7d2cfe8501475221038a1751335d88288474033880ba81a14c5f7f536f7a4de0bbe1836301a9f5fde021029cfe8b16f24284e020d06aaa2566da776776e275665691857265930c813bfb8252aeffffffff0278ff64000000000017a9143fa32172d241924653b3723f2b05ef676e79876b8768e7cd000000000017a914cf66d6097af8dff78f130306a6d3fd0eed78fc388700000000", "vin": [{"sequence": 4294967295, "scriptSig": {"hex": "00483045022100f43d581b93599464f5d487a1e57f2d161e93d3c1df20dcdfc351958489d088eb0220043ec295c2e1aaa64bf9bcd5b9a40e90abd4e58c6850818dc7ae182496c9e91801483045022100f656f61fa62eedb30f7bf44ac388c74b37f70c66576088efc286243a237639cf0220195a2793b98a7eb11903cf604968687306a8d1e31b5af1dc92f0ff7ed15fcc3001475221038a1751335d88288474033880ba81a14c5f7f536f7a4de0bbe1836301a9f5fde021029cfe8b16f24284e020d06aaa2566da776776e275665691857265930c813bfb8252ae", "asm": "0 3045022100f43d581b93599464f5d487a1e57f2d161e93d3c1df20dcdfc351958489d088eb0220043ec295c2e1aaa64bf9bcd5b9a40e90abd4e58c6850818dc7ae182496c9e918[ALL] 3045022100f656f61fa62eedb30f7bf44ac388c74b37f70c66576088efc286243a237639cf0220195a2793b98a7eb11903cf604968687306a8d1e31b5af1dc92f0ff7ed15fcc30[ALL] 5221038a1751335d88288474033880ba81a14c5f7f536f7a4de0bbe1836301a9f5fde021029cfe8b16f24284e020d06aaa2566da776776e275665691857265930c813bfb8252ae"}, "vout": 1, "txid": "efd811003f3ef57488262b7821799b73a19f74516356f1f7fa4f942422f6bc7d"}, {"sequence": 4294967295, "scriptSig": {"hex": "00483045022100afc327a106ff1590a519d1bade87a5264f70cc05c8df335ab75f2193b62bccd502201b20d8282029533d02eeb6c05359701247ab374b4fe836453d3fe9637d004b920147304402206e1b0196049260d2f01f708611820f74f2d249f6872b03e2dad42bd5684b067402201efc3bf8fec90cc1c359b78d84680e5319c7495a0109afdf001147e02f5c385d01475221038a1751335d88288474033880ba81a14c5f7f536f7a4de0bbe1836301a9f5fde021029cfe8b16f24284e020d06aaa2566da776776e275665691857265930c813bfb8252ae", "asm": "0 3045022100afc327a106ff1590a519d1bade87a5264f70cc05c8df335ab75f2193b62bccd502201b20d8282029533d02eeb6c05359701247ab374b4fe836453d3fe9637d004b92[ALL] 304402206e1b0196049260d2f01f708611820f74f2d249f6872b03e2dad42bd5684b067402201efc3bf8fec90cc1c359b78d84680e5319c7495a0109afdf001147e02f5c385d[ALL] 5221038a1751335d88288474033880ba81a14c5f7f536f7a4de0bbe1836301a9f5fde021029cfe8b16f24284e020d06aaa2566da776776e275665691857265930c813bfb8252ae"}, "vout": 2, "txid": "0f9dcd6e7bd0bdc353ab546310db61cba0a158dc448f8e73cd47e49c50849e4d"}, {"sequence": 4294967295, "scriptSig": {"hex": "004730440220450ee8e752e6c437af40b682b585109e31bbc657783676f807a1c18998c51171022061757fd23e744e6e688bbb948b5b12ef1515f95cfc3ae34cc67bd314ee8a17f601473044022079332217d4c349f15e4d842e549e0ae2b512a99b3419d1501c4835bdb404ebc40220345dd4f26028bc9f9ec98e3228fb5341e47d326764bf11b9674aa27a7d2cfe8501475221038a1751335d88288474033880ba81a14c5f7f536f7a4de0bbe1836301a9f5fde021029cfe8b16f24284e020d06aaa2566da776776e275665691857265930c813bfb8252ae", "asm": "0 30440220450ee8e752e6c437af40b682b585109e31bbc657783676f807a1c18998c51171022061757fd23e744e6e688bbb948b5b12ef1515f95cfc3ae34cc67bd314ee8a17f6[ALL] 3044022079332217d4c349f15e4d842e549e0ae2b512a99b3419d1501c4835bdb404ebc40220345dd4f26028bc9f9ec98e3228fb5341e47d326764bf11b9674aa27a7d2cfe85[ALL] 5221038a1751335d88288474033880ba81a14c5f7f536f7a4de0bbe1836301a9f5fde021029cfe8b16f24284e020d06aaa2566da776776e275665691857265930c813bfb8252ae"}, "vout": 1, "txid": "cf0df5239f2b26c01b7b856c7d5508d361210a1ba40761980b6fd295a69b80fc"}], "txid": "923cf655f4ed17edb2a1af1005a5aa1f98bec319f5cd16ba694a4f6ef9f9602a", "blocktime": 1537869901, "version": 1, "confirmations": 11524, "time": 1537869901, "locktime": 0, "vsize": 851, "size": 851}