{"hash": "7936c693e11b3e1db891d9cf853efc252aa7b3f6dea48f595b0dc18642ed79ae", "blockhash": "00000000000000000004ffacab907a6b429b9a5745fa0b75af4234bf69dd7176", "vout": [{"scriptPubKey": {"reqSigs": 1, "hex": "a9141fc30e3a2aabd42f32c22e351853702cb5d9c94987", "addresses": ["34axYBwYuDggA2Bc2kdaTiqWa6RGHhwJYK"], "asm": "OP_HASH160 1fc30e3a2aabd42f32c22e351853702cb5d9c949 OP_EQUAL", "type": "scripthash"}, "value": 0.00996943, "n": 0}, {"scriptPubKey": {"reqSigs": 1, "hex": "a914035e0de3c2b24dcbabafa132847bf1f71f78988687", "addresses": ["31zpd87ugothgGcXa3jYx8XNprBpacKyD1"], "asm": "OP_HASH160 035e0de3c2b24dcbabafa132847bf1f71f789886 OP_EQUAL", "type": "scripthash"}, "value": 0.0567949, "n": 1}], "hex": "02000000000102d019c4928b745ae2bdb8366bf038e7fd8654329625646e2975745f327207969701000000171600144f829d794ce4abae12abc3ec3a0c9841881530fdfefffffffdd3002489f66b3a85f60c80af6f73e27744807ed755ece3a8d9db444c0eb43300000000171600141cf3ce510f9a0e92e776293424321c355c2ae93afeffffff024f360f000000000017a9141fc30e3a2aabd42f32c22e351853702cb5d9c9498782a956000000000017a914035e0de3c2b24dcbabafa132847bf1f71f78988687024830450221008b0f4036b02b4da9212be0ddbd66c54282722316400598795134e0861a5adf4b02203a4f326cbe474bde1eaf73f406aa2470ec94ffb8c132147fb0b10e6ed6dc5b2f012103ef33a3ee2c73ee37fe09dc0150b8d4b99133a67358a3d5b0981403da4bb467a702483045022100beea5982e954ea508eb0911de963b8303c959064adf69c5759f12db66f7ec15402206d30572c59bd0ff3f17f3eeb20df68b959da3701aceed25fc76bbea187e9bd9a01210213a1bc80409c3398c3ab76f1aeb97a44b8dbafbdfe776106c2036c1fcf2c71c316490800", "vin": [{"txinwitness": ["30450221008b0f4036b02b4da9212be0ddbd66c54282722316400598795134e0861a5adf4b02203a4f326cbe474bde1eaf73f406aa2470ec94ffb8c132147fb0b10e6ed6dc5b2f01", "03ef33a3ee2c73ee37fe09dc0150b8d4b99133a67358a3d5b0981403da4bb467a7"], "sequence": 4294967294, "scriptSig": {"hex": "1600144f829d794ce4abae12abc3ec3a0c9841881530fd", "asm": "00144f829d794ce4abae12abc3ec3a0c9841881530fd"}, "vout": 1, "txid": "97960772325f7475296e642596325486fde738f06b36b8bde25a748b92c419d0"}, {"txinwitness": ["3045022100beea5982e954ea508eb0911de963b8303c959064adf69c5759f12db66f7ec15402206d30572c59bd0ff3f17f3eeb20df68b959da3701aceed25fc76bbea187e9bd9a01", "0213a1bc80409c3398c3ab76f1aeb97a44b8dbafbdfe776106c2036c1fcf2c71c3"], "sequence": 4294967294, "scriptSig": {"hex": "1600141cf3ce510f9a0e92e776293424321c355c2ae93a", "asm": "00141cf3ce510f9a0e92e776293424321c355c2ae93a"}, "vout": 0, "txid": "33b40e4c44dbd9a8e3ec55d77e804477e2736faf800cf6853a6bf6892400d3fd"}], "txid": "923f2765413cc191bf4c1e6174b28c53a8b5c38ddec9553e17aa442e2d8ab69a", "blocktime": 1537875543, "version": 2, "confirmations": 11464, "time": 1537875543, "locktime": 542998, "vsize": 257, "size": 420}