{"hash": "9242ec3ae7e61d57fd071b94c075e4fb8cbdbe12fa268987954b5f58215bf5ef", "blockhash": "0000000000000000000e13cef7c366c0283d82e591d1acd082e914b08063cdf1", "vout": [{"scriptPubKey": {"reqSigs": 1, "hex": "76a914cb979bff00d47ef92dcdd1d69a947e235cafc41788ac", "addresses": ["1KZVnwnXLnBS9PBiYRpce7fBAzqb6ftbUm"], "asm": "OP_DUP OP_HASH160 cb979bff00d47ef92dcdd1d69a947e235cafc417 OP_EQUALVERIFY OP_CHECKSIG", "type": "pubkeyhash"}, "value": 0.0009, "n": 0}, {"scriptPubKey": {"reqSigs": 1, "hex": "76a91450deb3cc7100ae642fa745f6ed9ee09dcfa8bd7588ac", "addresses": ["18Nbqycq7WELBPgtK7ToPJA3A7r22aDumE"], "asm": "OP_DUP OP_HASH160 50deb3cc7100ae642fa745f6ed9ee09dcfa8bd75 OP_EQUALVERIFY OP_CHECKSIG", "type": "pubkeyhash"}, "value": 0.20410182, "n": 1}], "hex": "01000000016a876ea4565815309bddb6088c9b75265191ffaccd29cacb8d0b06e518d7e0d9000000006b4830450221008e207a125f86f5aa1b95bae29263f5eec8b3930d9b85b40a643ebd81176a66ee022062bbd0286024d72437198252612d29ffe3c112e755e86b80c5075ab97931e56101210326422b7f1e557ae02e43781f1c08da6e544119009c4834d69c6b50823f4ba6f5ffffffff02905f0100000000001976a914cb979bff00d47ef92dcdd1d69a947e235cafc41788ac466f3701000000001976a91450deb3cc7100ae642fa745f6ed9ee09dcfa8bd7588ac00000000", "vin": [{"sequence": 4294967295, "scriptSig": {"hex": "4830450221008e207a125f86f5aa1b95bae29263f5eec8b3930d9b85b40a643ebd81176a66ee022062bbd0286024d72437198252612d29ffe3c112e755e86b80c5075ab97931e56101210326422b7f1e557ae02e43781f1c08da6e544119009c4834d69c6b50823f4ba6f5", "asm": "30450221008e207a125f86f5aa1b95bae29263f5eec8b3930d9b85b40a643ebd81176a66ee022062bbd0286024d72437198252612d29ffe3c112e755e86b80c5075ab97931e561[ALL] 0326422b7f1e557ae02e43781f1c08da6e544119009c4834d69c6b50823f4ba6f5"}, "vout": 0, "txid": "d9e0d718e5060b8dcbca29cdacff915126759b8c08b6dd9b30155856a46e876a"}], "txid": "9242ec3ae7e61d57fd071b94c075e4fb8cbdbe12fa268987954b5f58215bf5ef", "blocktime": 1537871767, "version": 1, "confirmations": 11495, "time": 1537871767, "locktime": 0, "vsize": 226, "size": 226}