{"hash": "924385d60777d1db0f02cf74f1f4c43812542781d7686ffe896d88d4612768f6", "blockhash": "0000000000000000001f76057863aec43deb6fa401d9628bb513d65a8098bfab", "vout": [{"scriptPubKey": {"reqSigs": 1, "hex": "76a91402a344e4aa93126f954066047aee9e752a3058e188ac", "addresses": ["1EwwXCGGAznJuzCsYcd98YmsaXtezvQqv"], "asm": "OP_DUP OP_HASH160 02a344e4aa93126f954066047aee9e752a3058e1 OP_EQUALVERIFY OP_CHECKSIG", "type": "pubkeyhash"}, "value": 0.01545769, "n": 0}, {"scriptPubKey": {"reqSigs": 1, "hex": "a914293da0a595a2cce7cd1eb70de8eb368d6e287ea587", "addresses": ["35T5TN6A2evsUBZ1zdxtoKFwHdc9SpV5eQ"], "asm": "OP_HASH160 293da0a595a2cce7cd1eb70de8eb368d6e287ea5 OP_EQUAL", "type": "scripthash"}, "value": 0.48282232, "n": 1}, {"scriptPubKey": {"reqSigs": 1, "hex": "76a914bb248f3ee48945b619ee2cc5931e6b0caa3a451188ac", "addresses": ["1J4XA5Kvuv6m765Sr4r5j2dfJRKMSsRQy9"], "asm": "OP_DUP OP_HASH160 bb248f3ee48945b619ee2cc5931e6b0caa3a4511 OP_EQUALVERIFY OP_CHECKSIG", "type": "pubkeyhash"}, "value": 0.0017, "n": 2}], "hex": "01000000016550494e200950eb7ff99958030e46d564043683658fad1c5381819c69dca60600000000fc0047304402205e34e6bdf6ce97396298dae003101c8a4e8d39b0f76b12d60df6ca634cc017ca02200383a981d272330ca5a65fa73f5a8cfb5231e71f780aa5b6d497b043486666e20147304402205761e76a37ce2ab3fea31bc35e279b264e07da91bf321334c42b50656ad8af52022027b67e76be7ac56446f7c620f927a2d1f282e7d097162f0e7fe2cec1294e3c89014c69522103ed286fa659c3aa91a7ec6bf28a9ae6f4645d22ed5b59ce66720871be24b34ff32103be6c170e639f7ad2436d8b50ae4fd6960c21f772e89b87faa324ae24de98bfa0210379106de382f2988f60913a60a5f74cba8466b168be662a2353aa6471925db50353aeffffffff0329961700000000001976a91402a344e4aa93126f954066047aee9e752a3058e188ac78bae0020000000017a914293da0a595a2cce7cd1eb70de8eb368d6e287ea58710980200000000001976a914bb248f3ee48945b619ee2cc5931e6b0caa3a451188ac00000000", "vin": [{"sequence": 4294967295, "scriptSig": {"hex": "0047304402205e34e6bdf6ce97396298dae003101c8a4e8d39b0f76b12d60df6ca634cc017ca02200383a981d272330ca5a65fa73f5a8cfb5231e71f780aa5b6d497b043486666e20147304402205761e76a37ce2ab3fea31bc35e279b264e07da91bf321334c42b50656ad8af52022027b67e76be7ac56446f7c620f927a2d1f282e7d097162f0e7fe2cec1294e3c89014c69522103ed286fa659c3aa91a7ec6bf28a9ae6f4645d22ed5b59ce66720871be24b34ff32103be6c170e639f7ad2436d8b50ae4fd6960c21f772e89b87faa324ae24de98bfa0210379106de382f2988f60913a60a5f74cba8466b168be662a2353aa6471925db50353ae", "asm": "0 304402205e34e6bdf6ce97396298dae003101c8a4e8d39b0f76b12d60df6ca634cc017ca02200383a981d272330ca5a65fa73f5a8cfb5231e71f780aa5b6d497b043486666e2[ALL] 304402205761e76a37ce2ab3fea31bc35e279b264e07da91bf321334c42b50656ad8af52022027b67e76be7ac56446f7c620f927a2d1f282e7d097162f0e7fe2cec1294e3c89[ALL] 522103ed286fa659c3aa91a7ec6bf28a9ae6f4645d22ed5b59ce66720871be24b34ff32103be6c170e639f7ad2436d8b50ae4fd6960c21f772e89b87faa324ae24de98bfa0210379106de382f2988f60913a60a5f74cba8466b168be662a2353aa6471925db50353ae"}, "vout": 0, "txid": "06a6dc699c8181531cad8f6583360464d5460e035899f97feb5009204e495065"}], "txid": "924385d60777d1db0f02cf74f1f4c43812542781d7686ffe896d88d4612768f6", "blocktime": 1537873891, "version": 1, "confirmations": 11478, "time": 1537873891, "locktime": 0, "vsize": 403, "size": 403}