{"hash": "9247810b8d10cf15901218482776183e3f8451ed67889c12c6d1b272bc1c6ada", "blockhash": "0000000000000000001e0dab787dd257d1dbfcb92a98c2207d5e1078be1f4165", "vout": [{"scriptPubKey": {"reqSigs": 1, "hex": "76a9143d5d896021734204e05378a29c393251fca8fdd788ac", "addresses": ["16bUGjvunVp7LqygLHrTvHyvbvfeuRCWAh"], "asm": "OP_DUP OP_HASH160 3d5d896021734204e05378a29c393251fca8fdd7 OP_EQUALVERIFY OP_CHECKSIG", "type": "pubkeyhash"}, "value": 0.01469233, "n": 0}, {"scriptPubKey": {"reqSigs": 1, "hex": "76a914bfb9d7a27b37494328bdc669f8a1241ec5c1691488ac", "addresses": ["1JUkhC48Yz1N543CkHcAwXHwbd8LSnUXMG"], "asm": "OP_DUP OP_HASH160 bfb9d7a27b37494328bdc669f8a1241ec5c16914 OP_EQUALVERIFY OP_CHECKSIG", "type": "pubkeyhash"}, "value": 5.46e-06, "n": 1}, {"scriptPubKey": {"type": "nulldata", "hex": "6a146f6d6e69000000000000001f000000452c8a3b00", "asm": "OP_RETURN 6f6d6e69000000000000001f000000452c8a3b00"}, "value": 0.0, "n": 2}], "hex": "0100000001b7fd4bd2a6a00974d234262b9992c794e8fc17e084755b863d0653bcc3ac0e44000000006a47304402206c684985900eae37b0fe9eca17f0be17666ccb0c2df36551643d492840f4e8d802207d3089acccc2818b204e0b84c569a6d56319d81e82610ade140ade6de5680910012103486fea7a6ac64066aad0880cdef75a12efb8ef02a17201aa5e09388afaa6c3bbffffffff03316b1600000000001976a9143d5d896021734204e05378a29c393251fca8fdd788ac22020000000000001976a914bfb9d7a27b37494328bdc669f8a1241ec5c1691488ac0000000000000000166a146f6d6e69000000000000001f000000452c8a3b0000000000", "vin": [{"sequence": 4294967295, "scriptSig": {"hex": "47304402206c684985900eae37b0fe9eca17f0be17666ccb0c2df36551643d492840f4e8d802207d3089acccc2818b204e0b84c569a6d56319d81e82610ade140ade6de5680910012103486fea7a6ac64066aad0880cdef75a12efb8ef02a17201aa5e09388afaa6c3bb", "asm": "304402206c684985900eae37b0fe9eca17f0be17666ccb0c2df36551643d492840f4e8d802207d3089acccc2818b204e0b84c569a6d56319d81e82610ade140ade6de5680910[ALL] 03486fea7a6ac64066aad0880cdef75a12efb8ef02a17201aa5e09388afaa6c3bb"}, "vout": 0, "txid": "440eacc3bc53063d865b7584e017fce894c792992b2634d27409a0a6d24bfdb7"}], "txid": "9247810b8d10cf15901218482776183e3f8451ed67889c12c6d1b272bc1c6ada", "blocktime": 1537872475, "version": 1, "confirmations": 11486, "time": 1537872475, "locktime": 0, "vsize": 256, "size": 256}