{"hash": "1f3f109813190080c62700aef233860007a6f1b869c01eb202da8a29069888c8", "blockhash": "0000000000000000000baef3f32e3676a92c3b2e5da21b426e4f302fc371ce76", "vout": [{"scriptPubKey": {"reqSigs": 1, "hex": "76a9143f7af03c0caec82ab3139f466d7323609931c02688ac", "addresses": ["16neqznKLoooiCK5Qq6TsZjCzx3QCN5KD1"], "asm": "OP_DUP OP_HASH160 3f7af03c0caec82ab3139f466d7323609931c026 OP_EQUALVERIFY OP_CHECKSIG", "type": "pubkeyhash"}, "value": 0.0148, "n": 0}, {"scriptPubKey": {"reqSigs": 1, "hex": "76a914b6d9a5ab6caf506d98e2de498835a0579c8b8af588ac", "addresses": ["1HfpiJX16f3WvitHioKgi4XxbNE6jFPpeH"], "asm": "OP_DUP OP_HASH160 b6d9a5ab6caf506d98e2de498835a0579c8b8af5 OP_EQUALVERIFY OP_CHECKSIG", "type": "pubkeyhash"}, "value": 0.1573, "n": 1}, {"scriptPubKey": {"reqSigs": 1, "hex": "a9142c4e7e65959575e88cc532b413a6e667668e6a9a87", "addresses": ["35jHgpnr2vTrxqGMf9iYn36dyC73v64EWY"], "asm": "OP_HASH160 2c4e7e65959575e88cc532b413a6e667668e6a9a OP_EQUAL", "type": "scripthash"}, "value": 0.0357, "n": 2}, {"scriptPubKey": {"reqSigs": 1, "hex": "a914d0b495318f734f2e3bc2a9f6e21105e8c35a2fa487", "addresses": ["3LiYoZEPZsxyrdPFH5rYG9DVZLwBEaqLSg"], "asm": "OP_HASH160 d0b495318f734f2e3bc2a9f6e21105e8c35a2fa4 OP_EQUAL", "type": "scripthash"}, "value": 17.93003262, "n": 3}], "hex": "010000000001015a719ebb21fef0828977d4a2baeecad6794e468661d4b6902ce0607d087f9de3010000001716001480395b92d165fc1dc5470ffa0706ea66e15757b6ffffffff0440951600000000001976a9143f7af03c0caec82ab3139f466d7323609931c02688ac5005f000000000001976a914b6d9a5ab6caf506d98e2de498835a0579c8b8af588ac507936000000000017a9142c4e7e65959575e88cc532b413a6e667668e6a9a87fe0edf6a0000000017a914d0b495318f734f2e3bc2a9f6e21105e8c35a2fa4870247304402206413e5f863c5b547263c86b2192350c03df9ad89ebbbe346d2fa9dc9ff014c2d02200ff6502f33e3958701a2a2435651966896a6908c37c58f7333a314c920f90d22012103f166ff75d4382bb77a58c574ba3e426624712bf205c410af7858f842df68486a00000000", "vin": [{"txinwitness": ["304402206413e5f863c5b547263c86b2192350c03df9ad89ebbbe346d2fa9dc9ff014c2d02200ff6502f33e3958701a2a2435651966896a6908c37c58f7333a314c920f90d2201", "03f166ff75d4382bb77a58c574ba3e426624712bf205c410af7858f842df68486a"], "sequence": 4294967295, "scriptSig": {"hex": "16001480395b92d165fc1dc5470ffa0706ea66e15757b6", "asm": "001480395b92d165fc1dc5470ffa0706ea66e15757b6"}, "vout": 1, "txid": "e39d7f087d60e02c90b6d46186464e79d6caeebaa2d4778982f0fe21bb9e715a"}], "txid": "92480ac107fb07e190aab018a5882f7aae24dd09e0231569058bfe7b39572efc", "blocktime": 1537876114, "version": 1, "confirmations": 11460, "time": 1537876114, "locktime": 0, "vsize": 234, "size": 315}