{"hash": "9249d41bb23b754495c4f925d168ad40c5ad24a866e81e4019c5f43150a32734", "blockhash": "00000000000000000004ffacab907a6b429b9a5745fa0b75af4234bf69dd7176", "vout": [{"scriptPubKey": {"reqSigs": 1, "hex": "76a91436a94ad81c0436310698d0445ae7d6fa8dd25e2288ac", "addresses": ["15z2Hzu4GDnBCYe8uwf5KkLphta997Ncxg"], "asm": "OP_DUP OP_HASH160 36a94ad81c0436310698d0445ae7d6fa8dd25e22 OP_EQUALVERIFY OP_CHECKSIG", "type": "pubkeyhash"}, "value": 0.01889954, "n": 0}], "hex": "0100000006ae6acd55e727408f59ff48817637b6db58de72ac6d3112bf8a3467b05159b82a000000006b4830450221009b90fd88b5a5f19271edd2674c5edf8807ee2a5d649132abecc1b91f3c07d32202203c781614c5b188b4d71b67a4e9edb124ecdd0139708318838b4d82c19789be800121028a13188a5c049d612ce153a4e2ce6195adcb5372c8872f1859406fab307d59d0ffffffff71c562d770bb9aa13a586c59944cdecc8262a6b9764259657413b7e437da3d4e000000006b483045022100da92b9acc07ca57835ca67e23eb35403c8c9e8d84740a1c47ee01daf9125d7f202203abe9666f370eccc57ba1b1adab996b41dce8168f9a1cd7b1552eecfd2d8f99c012103b41153f7c3b97919bce92b816b45bf6a410a2fa1accd72c0480bfa72c1105b5fffffffff61561c4774f2bcbbfa3a016bf8d3dd46c71187ad1187b7d2464aa65b3a0c8556040000006a473044022057c7929ee8f795cb551cb6cfdc9bada941d6f4647e413024846ec188ad450b27022060e6616b503a6325b8c07a915bb099806a958493c4610ea80514ae0c7f9de340012102f00944b57251ca2458197767d9e3357828ec4fc931a2fda3d8cb7e80c45cfa93ffffffffc195cdfba95d1c14efa2059b826b69d6dd643e290c21ce6b99f39381de87606c010000006a4730440220140d8f5177d268ae48b3971d45730b43915652ee330525d91966aa50646c79ba022026f45572ebfcbc90a1db456e805ad052d95724e9a123553c92a521933b56f82c0121038191db22a53da5296874ab027d3cf065c1c61d5814f6fc7ab903a0e7fd45df2fffffffff9277dc3851b540abc9a3cd0e3621f96c7b7a5c8902aea06cfbe9c617598fbf84000000006b483045022100a0704f70e98468c550c3f7b9f8ce8af2ef2ed36b448cc84593d300f5988a7f9c02205340ec7c3a9b7ba299e169a2c48b82c4ae97be736da0e0a4290dd244595edc97012102d80027e787527754bfd9f6cfaa23e4e7d91b09bb453fa8a9f7c84bf500bbad24ffffffffdec56be69029beb0cbfa431037308e34ad682e0d226a1b5686fff464481f3f88010000006b4830450221008119f5908c69b39dae4f285abf6af7165d912e8c8319164aa0278f63dacc4d5802203a065016f97cfb321f3ea9c6d69df93932560e1b1992804737e2d7e4132bd41b0121034b8b49c7aece8ea16495b4c628350a3e3f414e2bf004bc68b54730e43d9709a9ffffffff01a2d61c00000000001976a91436a94ad81c0436310698d0445ae7d6fa8dd25e2288ac00000000", "vin": [{"sequence": 4294967295, "scriptSig": {"hex": "4830450221009b90fd88b5a5f19271edd2674c5edf8807ee2a5d649132abecc1b91f3c07d32202203c781614c5b188b4d71b67a4e9edb124ecdd0139708318838b4d82c19789be800121028a13188a5c049d612ce153a4e2ce6195adcb5372c8872f1859406fab307d59d0", "asm": "30450221009b90fd88b5a5f19271edd2674c5edf8807ee2a5d649132abecc1b91f3c07d32202203c781614c5b188b4d71b67a4e9edb124ecdd0139708318838b4d82c19789be80[ALL] 028a13188a5c049d612ce153a4e2ce6195adcb5372c8872f1859406fab307d59d0"}, "vout": 0, "txid": "2ab85951b067348abf12316dac72de58dbb637768148ff598f4027e755cd6aae"}, {"sequence": 4294967295, "scriptSig": {"hex": "483045022100da92b9acc07ca57835ca67e23eb35403c8c9e8d84740a1c47ee01daf9125d7f202203abe9666f370eccc57ba1b1adab996b41dce8168f9a1cd7b1552eecfd2d8f99c012103b41153f7c3b97919bce92b816b45bf6a410a2fa1accd72c0480bfa72c1105b5f", "asm": "3045022100da92b9acc07ca57835ca67e23eb35403c8c9e8d84740a1c47ee01daf9125d7f202203abe9666f370eccc57ba1b1adab996b41dce8168f9a1cd7b1552eecfd2d8f99c[ALL] 03b41153f7c3b97919bce92b816b45bf6a410a2fa1accd72c0480bfa72c1105b5f"}, "vout": 0, "txid": "4e3dda37e4b7137465594276b9a66282ccde4c94596c583aa19abb70d762c571"}, {"sequence": 4294967295, "scriptSig": {"hex": "473044022057c7929ee8f795cb551cb6cfdc9bada941d6f4647e413024846ec188ad450b27022060e6616b503a6325b8c07a915bb099806a958493c4610ea80514ae0c7f9de340012102f00944b57251ca2458197767d9e3357828ec4fc931a2fda3d8cb7e80c45cfa93", "asm": "3044022057c7929ee8f795cb551cb6cfdc9bada941d6f4647e413024846ec188ad450b27022060e6616b503a6325b8c07a915bb099806a958493c4610ea80514ae0c7f9de340[ALL] 02f00944b57251ca2458197767d9e3357828ec4fc931a2fda3d8cb7e80c45cfa93"}, "vout": 4, "txid": "56850c3a5ba64a46d2b78711ad8711c746ddd3f86b013afabbbcf274471c5661"}, {"sequence": 4294967295, "scriptSig": {"hex": "4730440220140d8f5177d268ae48b3971d45730b43915652ee330525d91966aa50646c79ba022026f45572ebfcbc90a1db456e805ad052d95724e9a123553c92a521933b56f82c0121038191db22a53da5296874ab027d3cf065c1c61d5814f6fc7ab903a0e7fd45df2f", "asm": "30440220140d8f5177d268ae48b3971d45730b43915652ee330525d91966aa50646c79ba022026f45572ebfcbc90a1db456e805ad052d95724e9a123553c92a521933b56f82c[ALL] 038191db22a53da5296874ab027d3cf065c1c61d5814f6fc7ab903a0e7fd45df2f"}, "vout": 1, "txid": "6c6087de8193f3996bce210c293e64ddd6696b829b05a2ef141c5da9fbcd95c1"}, {"sequence": 4294967295, "scriptSig": {"hex": "483045022100a0704f70e98468c550c3f7b9f8ce8af2ef2ed36b448cc84593d300f5988a7f9c02205340ec7c3a9b7ba299e169a2c48b82c4ae97be736da0e0a4290dd244595edc97012102d80027e787527754bfd9f6cfaa23e4e7d91b09bb453fa8a9f7c84bf500bbad24", "asm": "3045022100a0704f70e98468c550c3f7b9f8ce8af2ef2ed36b448cc84593d300f5988a7f9c02205340ec7c3a9b7ba299e169a2c48b82c4ae97be736da0e0a4290dd244595edc97[ALL] 02d80027e787527754bfd9f6cfaa23e4e7d91b09bb453fa8a9f7c84bf500bbad24"}, "vout": 0, "txid": "84bf8f5917c6e9fb6ca0ae02895c7a7b6cf921360ecda3c9ab40b55138dc7792"}, {"sequence": 4294967295, "scriptSig": {"hex": "4830450221008119f5908c69b39dae4f285abf6af7165d912e8c8319164aa0278f63dacc4d5802203a065016f97cfb321f3ea9c6d69df93932560e1b1992804737e2d7e4132bd41b0121034b8b49c7aece8ea16495b4c628350a3e3f414e2bf004bc68b54730e43d9709a9", "asm": "30450221008119f5908c69b39dae4f285abf6af7165d912e8c8319164aa0278f63dacc4d5802203a065016f97cfb321f3ea9c6d69df93932560e1b1992804737e2d7e4132bd41b[ALL] 034b8b49c7aece8ea16495b4c628350a3e3f414e2bf004bc68b54730e43d9709a9"}, "vout": 1, "txid": "883f1f4864f4ff86561b6a220d2e68ad348e30371043facbb0be2990e66bc5de"}], "txid": "9249d41bb23b754495c4f925d168ad40c5ad24a866e81e4019c5f43150a32734", "blocktime": 1537875543, "version": 1, "confirmations": 11464, "time": 1537875543, "locktime": 0, "vsize": 930, "size": 930}