{"hash": "92522fb0a306668c526f274d44fed00a74fbd817eb1cc2adc4c06f2e6c8de307", "blockhash": "0000000000000000000dcc0f55137456b1a82d3642486a52398922ac4d620174", "vout": [{"scriptPubKey": {"reqSigs": 1, "hex": "a9149d090b58e6ba53104dfe263dfe63f5bc8c19029e87", "addresses": ["3G1Lr581hehxJbYFceRxroqB7Wj9F7kntW"], "asm": "OP_HASH160 9d090b58e6ba53104dfe263dfe63f5bc8c19029e OP_EQUAL", "type": "scripthash"}, "value": 0.00844, "n": 0}, {"scriptPubKey": {"reqSigs": 1, "hex": "76a914fbe853c2f90b9c3076b929cf6aaca2940989b2e688ac", "addresses": ["1PxxvXVyhFQgNBrNPYMGyQCWwefm4g3WxM"], "asm": "OP_DUP OP_HASH160 fbe853c2f90b9c3076b929cf6aaca2940989b2e6 OP_EQUALVERIFY OP_CHECKSIG", "type": "pubkeyhash"}, "value": 0.06547536, "n": 1}], "hex": "01000000012b13709b79d6ddd8eb9add2e7d28fb83d95a942c726eaedb172202cf756b21c4010000006b483045022100d9a683508fa6e645ad541101a64ec4f86b2ce08e8fd6069a555326bbf2e1128b022039ff38270e5295823eda9b7824c5c989a4813b7a5a533f6973f91c1be32588ec012103904da7a35fcd3a7b6a77beaeb88153b538b57d3b86327213230bd3f451e1f2ceffffffff02e0e00c000000000017a9149d090b58e6ba53104dfe263dfe63f5bc8c19029e8750e86300000000001976a914fbe853c2f90b9c3076b929cf6aaca2940989b2e688ac00000000", "vin": [{"sequence": 4294967295, "scriptSig": {"hex": "483045022100d9a683508fa6e645ad541101a64ec4f86b2ce08e8fd6069a555326bbf2e1128b022039ff38270e5295823eda9b7824c5c989a4813b7a5a533f6973f91c1be32588ec012103904da7a35fcd3a7b6a77beaeb88153b538b57d3b86327213230bd3f451e1f2ce", "asm": "3045022100d9a683508fa6e645ad541101a64ec4f86b2ce08e8fd6069a555326bbf2e1128b022039ff38270e5295823eda9b7824c5c989a4813b7a5a533f6973f91c1be32588ec[ALL] 03904da7a35fcd3a7b6a77beaeb88153b538b57d3b86327213230bd3f451e1f2ce"}, "vout": 1, "txid": "c4216b75cf022217dbae6e722c945ad983fb287d2edd9aebd8ddd6799b70132b"}], "txid": "92522fb0a306668c526f274d44fed00a74fbd817eb1cc2adc4c06f2e6c8de307", "blocktime": 1537870268, "version": 1, "confirmations": 11516, "time": 1537870268, "locktime": 0, "vsize": 224, "size": 224}