{"hash": "9253df66a84227d1488d78768c6966f310e304c18e73b68b302b7d3404b795ec", "blockhash": "0000000000000000001cda96e906b7601b7a6fb1a3b62bca570a9e5d8f4b3de1", "vout": [{"scriptPubKey": {"reqSigs": 1, "hex": "76a914f009bc40ce628693d5d4ac2e6ca578fc39867b9488ac", "addresses": ["1NtCqTvhtrxLa9PMQvss23ZNv7dGq45xbN"], "asm": "OP_DUP OP_HASH160 f009bc40ce628693d5d4ac2e6ca578fc39867b94 OP_EQUALVERIFY OP_CHECKSIG", "type": "pubkeyhash"}, "value": 0.04386956, "n": 0}, {"scriptPubKey": {"type": "nulldata", "hex": "6a146f6d6e69000000000000001f00000048a379a407", "asm": "OP_RETURN 6f6d6e69000000000000001f00000048a379a407"}, "value": 0.0, "n": 1}, {"scriptPubKey": {"reqSigs": 1, "hex": "76a914f1e3761fc6406622265d4f985938577e1b77eadd88ac", "addresses": ["1P3zLXcbe2avdkzrkWsr5wrXhJiD9aYtZE"], "asm": "OP_DUP OP_HASH160 f1e3761fc6406622265d4f985938577e1b77eadd OP_EQUALVERIFY OP_CHECKSIG", "type": "pubkeyhash"}, "value": 5.46e-06, "n": 2}], "hex": "010000000191b2de3e2d7e78e2a0e37608bb21605c2266d3c73eb6a9dd64cb252d67c9b872000000006a47304402204d9589198494a465f353be9e2a5fe527180cc556314df942fc805089e129e45802200c35b9ecd02ba13fe4cbf19b2cbf0355ecd2148e30a613b1f4f4b503437f6d7b012102fe7f82fa508a4bc1877ef2c500567d5d5fc33fb2a24084ab60078a6369c8abf0ffffffff038cf04200000000001976a914f009bc40ce628693d5d4ac2e6ca578fc39867b9488ac0000000000000000166a146f6d6e69000000000000001f00000048a379a40722020000000000001976a914f1e3761fc6406622265d4f985938577e1b77eadd88ac00000000", "vin": [{"sequence": 4294967295, "scriptSig": {"hex": "47304402204d9589198494a465f353be9e2a5fe527180cc556314df942fc805089e129e45802200c35b9ecd02ba13fe4cbf19b2cbf0355ecd2148e30a613b1f4f4b503437f6d7b012102fe7f82fa508a4bc1877ef2c500567d5d5fc33fb2a24084ab60078a6369c8abf0", "asm": "304402204d9589198494a465f353be9e2a5fe527180cc556314df942fc805089e129e45802200c35b9ecd02ba13fe4cbf19b2cbf0355ecd2148e30a613b1f4f4b503437f6d7b[ALL] 02fe7f82fa508a4bc1877ef2c500567d5d5fc33fb2a24084ab60078a6369c8abf0"}, "vout": 0, "txid": "72b8c9672d25cb64dda9b63ec7d366225c6021bb0876e3a0e2787e2d3edeb291"}], "txid": "9253df66a84227d1488d78768c6966f310e304c18e73b68b302b7d3404b795ec", "blocktime": 1537873282, "version": 1, "confirmations": 11480, "time": 1537873282, "locktime": 0, "vsize": 256, "size": 256}