{"hash": "9258d3b435d7b9664d281127ec6649fd175cdc6eb3ec40071fe5f2ae99b6e71b", "blockhash": "0000000000000000001e0dab787dd257d1dbfcb92a98c2207d5e1078be1f4165", "vout": [{"scriptPubKey": {"reqSigs": 1, "hex": "a914bbaaa206fb65488f12bd81f3546895212fdec37b87", "addresses": ["3JoJhCW31KbUXRTy1HKMWTV5jV4gqvtUcs"], "asm": "OP_HASH160 bbaaa206fb65488f12bd81f3546895212fdec37b OP_EQUAL", "type": "scripthash"}, "value": 0.09490665, "n": 0}, {"scriptPubKey": {"reqSigs": 1, "hex": "76a9146f74128e876c3af85e3ec66e2d42c9a9baf9683488ac", "addresses": ["1BAK49kuQR86K8QRJ1a8UE8wPyb9q828j1"], "asm": "OP_DUP OP_HASH160 6f74128e876c3af85e3ec66e2d42c9a9baf96834 OP_EQUALVERIFY OP_CHECKSIG", "type": "pubkeyhash"}, "value": 0.62459111, "n": 1}], "hex": "0100000001eb1b8d8f1d3eac11a6cc29a3c73f6e55a961dd152c33781c283398e1c893b7de020000006a47304402203d4261f25b5e38d4fd875653714455bdcffc5a9757f1aa59b50e4684cfc4d835022026d839027d6e50ac234d2c371cf9b58f341719f94765048a30bc80f2e11a89120121037007fe1392f1b9fdc4297b82ed11e5fd16e843b572ee60cac8154af9b2d56812fdffffff02e9d090000000000017a914bbaaa206fb65488f12bd81f3546895212fdec37b87e70cb903000000001976a9146f74128e876c3af85e3ec66e2d42c9a9baf9683488ac12490800", "vin": [{"sequence": 4294967293, "scriptSig": {"hex": "47304402203d4261f25b5e38d4fd875653714455bdcffc5a9757f1aa59b50e4684cfc4d835022026d839027d6e50ac234d2c371cf9b58f341719f94765048a30bc80f2e11a89120121037007fe1392f1b9fdc4297b82ed11e5fd16e843b572ee60cac8154af9b2d56812", "asm": "304402203d4261f25b5e38d4fd875653714455bdcffc5a9757f1aa59b50e4684cfc4d835022026d839027d6e50ac234d2c371cf9b58f341719f94765048a30bc80f2e11a8912[ALL] 037007fe1392f1b9fdc4297b82ed11e5fd16e843b572ee60cac8154af9b2d56812"}, "vout": 2, "txid": "deb793c8e19833281c78332c15dd61a9556e3fc7a329cca611ac3e1d8f8d1beb"}], "txid": "9258d3b435d7b9664d281127ec6649fd175cdc6eb3ec40071fe5f2ae99b6e71b", "blocktime": 1537872475, "version": 1, "confirmations": 11487, "time": 1537872475, "locktime": 542994, "vsize": 223, "size": 223}