{"hash": "926504b41273852ae46616a7ce6148760dbfb5c77aa578f1ab6996feb9fae3c3", "blockhash": "0000000000000000001f76057863aec43deb6fa401d9628bb513d65a8098bfab", "vout": [{"scriptPubKey": {"reqSigs": 1, "hex": "76a914b0eff10839b0c209a3c28a76b47004853ac86e0488ac", "addresses": ["1H8ZNC94K4XJMBDZkuarrfAnDwbBqiWogo"], "asm": "OP_DUP OP_HASH160 b0eff10839b0c209a3c28a76b47004853ac86e04 OP_EQUALVERIFY OP_CHECKSIG", "type": "pubkeyhash"}, "value": 0.34799078, "n": 0}, {"scriptPubKey": {"reqSigs": 1, "hex": "a91469d48312e4936b0df02aed59c8c786ef2bfe532e87", "addresses": ["3BLbTH8zagWw4Lp3zg7WkXozm6awe65xcA"], "asm": "OP_HASH160 69d48312e4936b0df02aed59c8c786ef2bfe532e OP_EQUAL", "type": "scripthash"}, "value": 0.05338838, "n": 1}], "hex": "02000000015fbcd937e9319d04dc0f6bb5d61464e4befc1c470aa1a0051a2e74b1fc0a1c5a000000006a47304402201fb0a74c1b9e7be928b847fd5598fd672d946b44aab4fe9566ee19770346aabf02205c1ffb1601fb6aa44d5bdaa4aeb84636c8860a72f05ec2e0c0b68f6fe08c5f4f012102d5873b05fb3cb4bb205274e7c0009877d7d1397d5c94dc613cdff7a87a2d3916feffffff02e6fd1202000000001976a914b0eff10839b0c209a3c28a76b47004853ac86e0488acd67651000000000017a91469d48312e4936b0df02aed59c8c786ef2bfe532e8713490800", "vin": [{"sequence": 4294967294, "scriptSig": {"hex": "47304402201fb0a74c1b9e7be928b847fd5598fd672d946b44aab4fe9566ee19770346aabf02205c1ffb1601fb6aa44d5bdaa4aeb84636c8860a72f05ec2e0c0b68f6fe08c5f4f012102d5873b05fb3cb4bb205274e7c0009877d7d1397d5c94dc613cdff7a87a2d3916", "asm": "304402201fb0a74c1b9e7be928b847fd5598fd672d946b44aab4fe9566ee19770346aabf02205c1ffb1601fb6aa44d5bdaa4aeb84636c8860a72f05ec2e0c0b68f6fe08c5f4f[ALL] 02d5873b05fb3cb4bb205274e7c0009877d7d1397d5c94dc613cdff7a87a2d3916"}, "vout": 0, "txid": "5a1c0afcb1742e1a05a0a10a471cfcbee46414d6b56b0fdc049d31e937d9bc5f"}], "txid": "926504b41273852ae46616a7ce6148760dbfb5c77aa578f1ab6996feb9fae3c3", "blocktime": 1537873891, "version": 2, "confirmations": 11474, "time": 1537873891, "locktime": 542995, "vsize": 223, "size": 223}