{"hash": "56c9ec2a1a880a5344e9ae153dac0cb79c2c0827540f9be55d3a655427331592", "blockhash": "00000000000000000017f5eb5941039fbcee6240d03bc1f2f8e35350df66a1d8", "vout": [{"scriptPubKey": {"type": "nulldata", "hex": "6a146f6d6e69000000000000001f00000017c5a25d00", "asm": "OP_RETURN 6f6d6e69000000000000001f00000017c5a25d00"}, "value": 0.0, "n": 0}, {"scriptPubKey": {"reqSigs": 1, "hex": "a914e818e90b8e6b38dba66f74b35cb708bbc73e2ea787", "addresses": ["3NrEXrB9qAxXYfRt6jKtBD8QzoU2qtNWDR"], "asm": "OP_HASH160 e818e90b8e6b38dba66f74b35cb708bbc73e2ea7 OP_EQUAL", "type": "scripthash"}, "value": 2.73e-05, "n": 1}, {"scriptPubKey": {"reqSigs": 1, "hex": "a914e818e90b8e6b38dba66f74b35cb708bbc73e2ea787", "addresses": ["3NrEXrB9qAxXYfRt6jKtBD8QzoU2qtNWDR"], "asm": "OP_HASH160 e818e90b8e6b38dba66f74b35cb708bbc73e2ea7 OP_EQUAL", "type": "scripthash"}, "value": 0.02221882, "n": 2}], "hex": "0100000000010292b9bc95a862be34459ee0d679d647e0f259a175501a42eb8e621d741b6b543a0200000017160014b3efa6a13bb6e8fc2064ebff863dad69fa98b922ffffffff3f5c20dd7843b787cae39970d1d14300bd28ac0fe063cda5636df367a6bc8bcf0000000017160014826515dac3d8dd7fcd311d1dff02ffc50c2a2d71ffffffff030000000000000000166a146f6d6e69000000000000001f00000017c5a25d00aa0a00000000000017a914e818e90b8e6b38dba66f74b35cb708bbc73e2ea7873ae721000000000017a914e818e90b8e6b38dba66f74b35cb708bbc73e2ea78702473044022051f36066baa2c350311176344e04f3727dd40f4071fb81617f725602fe4e838c02200439ee600c59576ab332137c41e9451fa3483140865db6faaeca658e9b321e1e012102231e117bd9ec81fc06054ea0a6300fa126b0336e38c60e24de0f8b1f444e74a102483045022100881506281d7bf35491e7118d928c667d5c2bc73a311965810c623b0ae851e09402203665d061df585f97ec79c9d65c96580488fdfc96aac2634b52535c87aae3955101210399acd2dc5e7eae43e8812049b6cf4808e8f2ec43213da396050af74dcfeadf7f00000000", "vin": [{"txinwitness": ["3044022051f36066baa2c350311176344e04f3727dd40f4071fb81617f725602fe4e838c02200439ee600c59576ab332137c41e9451fa3483140865db6faaeca658e9b321e1e01", "02231e117bd9ec81fc06054ea0a6300fa126b0336e38c60e24de0f8b1f444e74a1"], "sequence": 4294967295, "scriptSig": {"hex": "160014b3efa6a13bb6e8fc2064ebff863dad69fa98b922", "asm": "0014b3efa6a13bb6e8fc2064ebff863dad69fa98b922"}, "vout": 2, "txid": "3a546b1b741d628eeb421a5075a159f2e047d679d6e09e4534be62a895bcb992"}, {"txinwitness": ["3045022100881506281d7bf35491e7118d928c667d5c2bc73a311965810c623b0ae851e09402203665d061df585f97ec79c9d65c96580488fdfc96aac2634b52535c87aae3955101", "0399acd2dc5e7eae43e8812049b6cf4808e8f2ec43213da396050af74dcfeadf7f"], "sequence": 4294967295, "scriptSig": {"hex": "160014826515dac3d8dd7fcd311d1dff02ffc50c2a2d71", "asm": "0014826515dac3d8dd7fcd311d1dff02ffc50c2a2d71"}, "vout": 0, "txid": "cf8bbca667f36d63a5cd63e00fac28bd0043d1d17099e3ca87b74378dd205c3f"}], "txid": "92679744a475bfc224483e4d69bafe2ef44f55386cc55abeec72ade7f48a609d", "blocktime": 1537874412, "version": 1, "confirmations": 11467, "time": 1537874412, "locktime": 0, "vsize": 288, "size": 450}