{"hash": "92680cffdee08c1e9fd1fc97676179fc54c3cdf0de437ef00f0623799004871d", "blockhash": "0000000000000000001f76057863aec43deb6fa401d9628bb513d65a8098bfab", "vout": [{"scriptPubKey": {"type": "nulldata", "hex": "6a146f6d6e69000000000000001f000000320effa600", "asm": "OP_RETURN 6f6d6e69000000000000001f000000320effa600"}, "value": 0.0, "n": 0}, {"scriptPubKey": {"reqSigs": 1, "hex": "76a9140c45a1894afbb623f5ce8630d29f52bc08fba53988ac", "addresses": ["127tXMEAzJhusykNwmF5YBiXd3ne61pnAp"], "asm": "OP_DUP OP_HASH160 0c45a1894afbb623f5ce8630d29f52bc08fba539 OP_EQUALVERIFY OP_CHECKSIG", "type": "pubkeyhash"}, "value": 0.00493506, "n": 1}, {"scriptPubKey": {"reqSigs": 1, "hex": "76a914a25dec4d0011064ef106a983c39c7a540699f22088ac", "addresses": ["1FoWyxwPXuj4C6abqwhjDWdz6D4PZgYRjA"], "asm": "OP_DUP OP_HASH160 a25dec4d0011064ef106a983c39c7a540699f220 OP_EQUALVERIFY OP_CHECKSIG", "type": "pubkeyhash"}, "value": 5.46e-06, "n": 2}], "hex": "010000000219308b782719e35187d9a2fb841d49d36b0dfba8ce545233ffe17dd30eac70db010000006a47304402205a4757c85526575f29cc75dd7aaaaaca508a54a9dab1fe8cf795f5b6470e192c02205bd687b67462b33cd5bc9ce81527c581a3852a5c2bfe91e3695d13d8b7dab667012103a73ec146736c95427ea77f8770487e42f8be0a947172c95d88abda94e79613f2feffffff2680cdd112fb67a1bad01ae30fbe36ec7c249d2fe8bf9df77e2ff8fc90a7be15020000006a4730440220135d5c4b41e173031e5913f57822cf7610a3a438727d23e0210cd123fd9896bb022044bdedc9fb1ea33cac93b9c441329ccb41783ec1215e9ec84f1c35060be7f628012103a73ec146736c95427ea77f8770487e42f8be0a947172c95d88abda94e79613f2feffffff030000000000000000166a146f6d6e69000000000000001f000000320effa600c2870700000000001976a9140c45a1894afbb623f5ce8630d29f52bc08fba53988ac22020000000000001976a914a25dec4d0011064ef106a983c39c7a540699f22088ac13490800", "vin": [{"sequence": 4294967294, "scriptSig": {"hex": "47304402205a4757c85526575f29cc75dd7aaaaaca508a54a9dab1fe8cf795f5b6470e192c02205bd687b67462b33cd5bc9ce81527c581a3852a5c2bfe91e3695d13d8b7dab667012103a73ec146736c95427ea77f8770487e42f8be0a947172c95d88abda94e79613f2", "asm": "304402205a4757c85526575f29cc75dd7aaaaaca508a54a9dab1fe8cf795f5b6470e192c02205bd687b67462b33cd5bc9ce81527c581a3852a5c2bfe91e3695d13d8b7dab667[ALL] 03a73ec146736c95427ea77f8770487e42f8be0a947172c95d88abda94e79613f2"}, "vout": 1, "txid": "db70ac0ed37de1ff335254cea8fb0d6bd3491d84fba2d98751e31927788b3019"}, {"sequence": 4294967294, "scriptSig": {"hex": "4730440220135d5c4b41e173031e5913f57822cf7610a3a438727d23e0210cd123fd9896bb022044bdedc9fb1ea33cac93b9c441329ccb41783ec1215e9ec84f1c35060be7f628012103a73ec146736c95427ea77f8770487e42f8be0a947172c95d88abda94e79613f2", "asm": "30440220135d5c4b41e173031e5913f57822cf7610a3a438727d23e0210cd123fd9896bb022044bdedc9fb1ea33cac93b9c441329ccb41783ec1215e9ec84f1c35060be7f628[ALL] 03a73ec146736c95427ea77f8770487e42f8be0a947172c95d88abda94e79613f2"}, "vout": 2, "txid": "15bea790fcf82f7ef79dbfe82f9d247cec36be0fe31ad0baa167fb12d1cd8026"}], "txid": "92680cffdee08c1e9fd1fc97676179fc54c3cdf0de437ef00f0623799004871d", "blocktime": 1537873891, "version": 1, "confirmations": 11478, "time": 1537873891, "locktime": 542995, "vsize": 403, "size": 403}