{"hash": "926df370f315eb13005643c9067d164955c028a71ac5077ae8c46da784c776c8", "blockhash": "00000000000000000017f5eb5941039fbcee6240d03bc1f2f8e35350df66a1d8", "vout": [{"scriptPubKey": {"reqSigs": 1, "hex": "76a91436b6ef02605efa537c209d4b017f91bf73a75d1688ac", "addresses": ["15zJdozoLco1b528utjRCPFLo4pKMotv3b"], "asm": "OP_DUP OP_HASH160 36b6ef02605efa537c209d4b017f91bf73a75d16 OP_EQUALVERIFY OP_CHECKSIG", "type": "pubkeyhash"}, "value": 0.008087, "n": 0}, {"scriptPubKey": {"reqSigs": 1, "hex": "a9142354068e957d1bb677fb9707e57b7372a7e0129987", "addresses": ["34upETcvZ3Qq6zzzkRxT6yWdkpvEpvy4dF"], "asm": "OP_HASH160 2354068e957d1bb677fb9707e57b7372a7e01299 OP_EQUAL", "type": "scripthash"}, "value": 0.01840021, "n": 1}], "hex": "01000000018e30e795ce7671515f39996a763bdfbff8078708bfcd175f9bfb9485f5c6c7b1010000006a4730440220312fa84690975ad257a7ac3000126c01cd76595c31f5606dd1f0b18f56297a0d0220408876c4e038c7c159e4105202dce23bf73a08ab165b8c1796835988cf72b6b10121022d600d72ed5c12450c46ff0eb947f5ceaac39b938c5d9a48e92d805087316361ffffffff02fc560c00000000001976a91436b6ef02605efa537c209d4b017f91bf73a75d1688ac95131c000000000017a9142354068e957d1bb677fb9707e57b7372a7e012998700000000", "vin": [{"sequence": 4294967295, "scriptSig": {"hex": "4730440220312fa84690975ad257a7ac3000126c01cd76595c31f5606dd1f0b18f56297a0d0220408876c4e038c7c159e4105202dce23bf73a08ab165b8c1796835988cf72b6b10121022d600d72ed5c12450c46ff0eb947f5ceaac39b938c5d9a48e92d805087316361", "asm": "30440220312fa84690975ad257a7ac3000126c01cd76595c31f5606dd1f0b18f56297a0d0220408876c4e038c7c159e4105202dce23bf73a08ab165b8c1796835988cf72b6b1[ALL] 022d600d72ed5c12450c46ff0eb947f5ceaac39b938c5d9a48e92d805087316361"}, "vout": 1, "txid": "b1c7c6f58594fb9b5f17cdbf088707f8bfdf3b766a99395f517176ce95e7308e"}], "txid": "926df370f315eb13005643c9067d164955c028a71ac5077ae8c46da784c776c8", "blocktime": 1537874412, "version": 1, "confirmations": 11468, "time": 1537874412, "locktime": 0, "vsize": 223, "size": 223}