{"hash": "92722ba1ace7b398533113cb4879b36c51acec9698b509894d37b76881f28c61", "blockhash": "0000000000000000000e13cef7c366c0283d82e591d1acd082e914b08063cdf1", "vout": [{"scriptPubKey": {"type": "nulldata", "hex": "6a146f6d6e69000000000000001f0000000000000001", "asm": "OP_RETURN 6f6d6e69000000000000001f0000000000000001"}, "value": 0.0, "n": 0}, {"scriptPubKey": {"reqSigs": 1, "hex": "76a914bbfc4c89ac947faad1b33988a99e9c8c8265c24388ac", "addresses": ["1J8ybuvU1FcztHdcxBAccaUPJruKKfX7xb"], "asm": "OP_DUP OP_HASH160 bbfc4c89ac947faad1b33988a99e9c8c8265c243 OP_EQUALVERIFY OP_CHECKSIG", "type": "pubkeyhash"}, "value": 0.00118067, "n": 1}, {"scriptPubKey": {"reqSigs": 1, "hex": "76a9148b80b2920c044bdfb3ef56f0ded112c06d7ec9f288ac", "addresses": ["1Did6j8R1caPnxGHhLCsFgWZ6bQdWgx9Xm"], "asm": "OP_DUP OP_HASH160 8b80b2920c044bdfb3ef56f0ded112c06d7ec9f2 OP_EQUALVERIFY OP_CHECKSIG", "type": "pubkeyhash"}, "value": 5.46e-06, "n": 2}], "hex": "0100000001fe7b22f9cfa0555543d5a2a8cf28ccaf26cf5c5bdc601e05e7f8072b95606b2f020000006a47304402206470d14a3039f9d3643cfd50dd6104aafa5b391d28bdc66c9a99a9cce6f0c96f022006464a76086cd001278c5c891f634d40bd6594a6ef117f1091ac65975b1358aa012103ff140573bbd7eb60c2eba3819ea7c6b94094e9ceae01f4263b49069a2773c69efeffffff030000000000000000166a146f6d6e69000000000000001f000000000000000133cd0100000000001976a914bbfc4c89ac947faad1b33988a99e9c8c8265c24388ac22020000000000001976a9148b80b2920c044bdfb3ef56f0ded112c06d7ec9f288ac10490800", "vin": [{"sequence": 4294967294, "scriptSig": {"hex": "47304402206470d14a3039f9d3643cfd50dd6104aafa5b391d28bdc66c9a99a9cce6f0c96f022006464a76086cd001278c5c891f634d40bd6594a6ef117f1091ac65975b1358aa012103ff140573bbd7eb60c2eba3819ea7c6b94094e9ceae01f4263b49069a2773c69e", "asm": "304402206470d14a3039f9d3643cfd50dd6104aafa5b391d28bdc66c9a99a9cce6f0c96f022006464a76086cd001278c5c891f634d40bd6594a6ef117f1091ac65975b1358aa[ALL] 03ff140573bbd7eb60c2eba3819ea7c6b94094e9ceae01f4263b49069a2773c69e"}, "vout": 2, "txid": "2f6b60952b07f8e7051e60dc5b5ccf26afcc28cfa8a2d5435555a0cff9227bfe"}], "txid": "92722ba1ace7b398533113cb4879b36c51acec9698b509894d37b76881f28c61", "blocktime": 1537871767, "version": 1, "confirmations": 11490, "time": 1537871767, "locktime": 542992, "vsize": 256, "size": 256}