{"hash": "92791f0d51ba70a4b120c450051ad30dd9b8bacf64c8b671475e9d18603fc3a9", "blockhash": "0000000000000000001cda96e906b7601b7a6fb1a3b62bca570a9e5d8f4b3de1", "vout": [{"scriptPubKey": {"reqSigs": 1, "hex": "a9141b77a3e40386d96347d1be4bbca5fbce14bad43d87", "addresses": ["34CFVUCsMh3sgU9K2MDdMJ2BuVhDe1VWXk"], "asm": "OP_HASH160 1b77a3e40386d96347d1be4bbca5fbce14bad43d OP_EQUAL", "type": "scripthash"}, "value": 0.00446715, "n": 0}, {"scriptPubKey": {"reqSigs": 1, "hex": "a914bf267bf3da92a2f30b1258d557b1a3ef59f16bc687", "addresses": ["3K7j67S9Fz6YXEu6KzVg6DSRVmGgimdNqg"], "asm": "OP_HASH160 bf267bf3da92a2f30b1258d557b1a3ef59f16bc6 OP_EQUAL", "type": "scripthash"}, "value": 0.01073661, "n": 1}, {"scriptPubKey": {"reqSigs": 1, "hex": "76a9143695c570f7befc88531649440c2ff149f9176e0b88ac", "addresses": ["15ycueb89ARTUmThJ6U2VbEs1BHEMZVs6j"], "asm": "OP_DUP OP_HASH160 3695c570f7befc88531649440c2ff149f9176e0b OP_EQUALVERIFY OP_CHECKSIG", "type": "pubkeyhash"}, "value": 9.257e-05, "n": 2}], "hex": "0100000002a0cf1cadf5aad7e661830b378499b5fb9436d44639c96412f498da766de79f3f00000000db00483045022100b134d1805b53bb514a4accf164f8e598b3179efb81dc8f3ee256ac31f1c4280b02201731072527748e274afc8b7a16df361074eff2c22a07052cccb5e39cb91e460c01483045022100a6ff5625fc25f2279510ce64af031175cac62f3be7beb200c596b3b4b4b560f8022070733f66dbd24943dc0781916d75a5523ee78b61b8df08805a9b6cbdceee2b5e0147522102907a54bed8ad74b3f35638c60114ca240a308cb986f3f2f306178869a8880b61210326e4406977db3bded89a023eb87b09611e6bc2254eb7959f94f38ee6a246ac5e52aeffffffff06d7c3c8ce1ea14138313cda2965f5c8092d5f4d9b546c7ae8c9f45f5a1eeebb020000006a47304402207a759d3690328c10aafe89196fcbf8bf26941d784b9642a2891ec61cc72f7cba0220552d400dd4f8eacfc5a19b1fef1108bd5be8e3e8f926bbc660efe479f60ef1ff012102b8840a1196794f314921d163e49cc44e36792579547e3ec7af5e08f3adefe327ffffffff03fbd006000000000017a9141b77a3e40386d96347d1be4bbca5fbce14bad43d87fd6110000000000017a914bf267bf3da92a2f30b1258d557b1a3ef59f16bc68729240000000000001976a9143695c570f7befc88531649440c2ff149f9176e0b88ac00000000", "vin": [{"sequence": 4294967295, "scriptSig": {"hex": "00483045022100b134d1805b53bb514a4accf164f8e598b3179efb81dc8f3ee256ac31f1c4280b02201731072527748e274afc8b7a16df361074eff2c22a07052cccb5e39cb91e460c01483045022100a6ff5625fc25f2279510ce64af031175cac62f3be7beb200c596b3b4b4b560f8022070733f66dbd24943dc0781916d75a5523ee78b61b8df08805a9b6cbdceee2b5e0147522102907a54bed8ad74b3f35638c60114ca240a308cb986f3f2f306178869a8880b61210326e4406977db3bded89a023eb87b09611e6bc2254eb7959f94f38ee6a246ac5e52ae", "asm": "0 3045022100b134d1805b53bb514a4accf164f8e598b3179efb81dc8f3ee256ac31f1c4280b02201731072527748e274afc8b7a16df361074eff2c22a07052cccb5e39cb91e460c[ALL] 3045022100a6ff5625fc25f2279510ce64af031175cac62f3be7beb200c596b3b4b4b560f8022070733f66dbd24943dc0781916d75a5523ee78b61b8df08805a9b6cbdceee2b5e[ALL] 522102907a54bed8ad74b3f35638c60114ca240a308cb986f3f2f306178869a8880b61210326e4406977db3bded89a023eb87b09611e6bc2254eb7959f94f38ee6a246ac5e52ae"}, "vout": 0, "txid": "3f9fe76d76da98f41264c93946d43694fbb59984370b8361e6d7aaf5ad1ccfa0"}, {"sequence": 4294967295, "scriptSig": {"hex": "47304402207a759d3690328c10aafe89196fcbf8bf26941d784b9642a2891ec61cc72f7cba0220552d400dd4f8eacfc5a19b1fef1108bd5be8e3e8f926bbc660efe479f60ef1ff012102b8840a1196794f314921d163e49cc44e36792579547e3ec7af5e08f3adefe327", "asm": "304402207a759d3690328c10aafe89196fcbf8bf26941d784b9642a2891ec61cc72f7cba0220552d400dd4f8eacfc5a19b1fef1108bd5be8e3e8f926bbc660efe479f60ef1ff[ALL] 02b8840a1196794f314921d163e49cc44e36792579547e3ec7af5e08f3adefe327"}, "vout": 2, "txid": "bbee1e5a5ff4c9e87a6c549b4d5f2d09c8f56529da3c313841a11ecec8c3d706"}], "txid": "92791f0d51ba70a4b120c450051ad30dd9b8bacf64c8b671475e9d18603fc3a9", "blocktime": 1537873282, "version": 1, "confirmations": 11484, "time": 1537873282, "locktime": 0, "vsize": 515, "size": 515}