{"hash": "927a0093c834b5ee5d43f55ffc7cffee15bffc9d790293e77f23e9e09a5066ad", "blockhash": "00000000000000000017f5eb5941039fbcee6240d03bc1f2f8e35350df66a1d8", "vout": [{"scriptPubKey": {"reqSigs": 1, "hex": "a914788ae01068758c1e107a6dd0095a191419fa909e87", "addresses": ["3CgPNnUs8zfGJRefzjDbm638Yp13Ln8gNd"], "asm": "OP_HASH160 788ae01068758c1e107a6dd0095a191419fa909e OP_EQUAL", "type": "scripthash"}, "value": 0.20111342, "n": 0}], "hex": "01000000012dcc2024456f7dbb1441c53d2994582eec4c49da2e7c50cf775a4e53b6bf4018010000006b483045022100a56585d9c7a6d031d1d213c4f920663544381f1757a44f6efd85f6f9159d369202206aea0c7ffce6753fb46b43bab5a65244691847576f56205e637a7f4cf87d03b00121021643c6615226af63d6785aea29f8d17759f1476c77e78c03ba259b5895e59ecaffffffff01eedf32010000000017a914788ae01068758c1e107a6dd0095a191419fa909e8700000000", "vin": [{"sequence": 4294967295, "scriptSig": {"hex": "483045022100a56585d9c7a6d031d1d213c4f920663544381f1757a44f6efd85f6f9159d369202206aea0c7ffce6753fb46b43bab5a65244691847576f56205e637a7f4cf87d03b00121021643c6615226af63d6785aea29f8d17759f1476c77e78c03ba259b5895e59eca", "asm": "3045022100a56585d9c7a6d031d1d213c4f920663544381f1757a44f6efd85f6f9159d369202206aea0c7ffce6753fb46b43bab5a65244691847576f56205e637a7f4cf87d03b0[ALL] 021643c6615226af63d6785aea29f8d17759f1476c77e78c03ba259b5895e59eca"}, "vout": 1, "txid": "1840bfb6534e5a77cf507c2eda494cec2e5894293dc54114bb7d6f452420cc2d"}], "txid": "927a0093c834b5ee5d43f55ffc7cffee15bffc9d790293e77f23e9e09a5066ad", "blocktime": 1537874412, "version": 1, "confirmations": 11467, "time": 1537874412, "locktime": 0, "vsize": 190, "size": 190}