{"hash": "927a5683b4db91be71e9601f4dcf6be2af5561a0c082b8437412b5e0098726e8", "blockhash": "0000000000000000001cda96e906b7601b7a6fb1a3b62bca570a9e5d8f4b3de1", "vout": [{"scriptPubKey": {"reqSigs": 1, "hex": "76a91409874ac128b23aaaefafd252ddd1bd435afa2f9a88ac", "addresses": ["1sP9yr7dMCrnJH9MGj1KePt7NL9szAnjt"], "asm": "OP_DUP OP_HASH160 09874ac128b23aaaefafd252ddd1bd435afa2f9a OP_EQUALVERIFY OP_CHECKSIG", "type": "pubkeyhash"}, "value": 0.2, "n": 0}, {"scriptPubKey": {"reqSigs": 1, "hex": "76a914f37efb9d6f89423c05a99323c1aaeb3864e2ab6488ac", "addresses": ["1PCVKYHN81rXaK2EKVMT3bKU3awuKgqHPX"], "asm": "OP_DUP OP_HASH160 f37efb9d6f89423c05a99323c1aaeb3864e2ab64 OP_EQUALVERIFY OP_CHECKSIG", "type": "pubkeyhash"}, "value": 58.799546, "n": 1}], "hex": "010000000145447f9c244c545114c53686307d56d09e273fd5b0531703f51e65e4db215b2b0d0000006a473044022059b16d75628667fc2505253e08d416dfce8d8e3ef19ff74ed789bf00131cc2e6022036b1d0ba5f1c3253e635aa32ea365748ec4ddecbed0ad5009cf216a2fedc1053012103d4b6489427787ed54b7f710291ba1a085448f3490e21d3895f45e866c49546d0ffffffff02002d3101000000001976a91409874ac128b23aaaefafd252ddd1bd435afa2f9a88aca8fc785e010000001976a914f37efb9d6f89423c05a99323c1aaeb3864e2ab6488ac00000000", "vin": [{"sequence": 4294967295, "scriptSig": {"hex": "473044022059b16d75628667fc2505253e08d416dfce8d8e3ef19ff74ed789bf00131cc2e6022036b1d0ba5f1c3253e635aa32ea365748ec4ddecbed0ad5009cf216a2fedc1053012103d4b6489427787ed54b7f710291ba1a085448f3490e21d3895f45e866c49546d0", "asm": "3044022059b16d75628667fc2505253e08d416dfce8d8e3ef19ff74ed789bf00131cc2e6022036b1d0ba5f1c3253e635aa32ea365748ec4ddecbed0ad5009cf216a2fedc1053[ALL] 03d4b6489427787ed54b7f710291ba1a085448f3490e21d3895f45e866c49546d0"}, "vout": 13, "txid": "2b5b21dbe4651ef5031753b0d53f279ed0567d308636c51451544c249c7f4445"}], "txid": "927a5683b4db91be71e9601f4dcf6be2af5561a0c082b8437412b5e0098726e8", "blocktime": 1537873282, "version": 1, "confirmations": 11480, "time": 1537873282, "locktime": 0, "vsize": 225, "size": 225}