{"hash": "07e97aac994de68d37a3f4e7ee887b939a501c564c476c103168be6ae973010b", "blockhash": "00000000000000000018f53835495a110e01622372bf6ae95dc86f2b0ab887b0", "vout": [{"scriptPubKey": {"reqSigs": 1, "hex": "a914e567204383b88b9bf0de17f339cf5c901895042f87", "addresses": ["3NbzCo51x25s5Mv64unVtTLxrNdva7g6Q2"], "asm": "OP_HASH160 e567204383b88b9bf0de17f339cf5c901895042f OP_EQUAL", "type": "scripthash"}, "value": 0.01204795, "n": 0}, {"scriptPubKey": {"reqSigs": 1, "hex": "76a914b225455d7f42fd9db9ebd5e276b27b9982c4cfa888ac", "addresses": ["1HEwvn652ycBECxxjsAzgMkbHBofsHQrS3"], "asm": "OP_DUP OP_HASH160 b225455d7f42fd9db9ebd5e276b27b9982c4cfa8 OP_EQUALVERIFY OP_CHECKSIG", "type": "pubkeyhash"}, "value": 0.03199714, "n": 1}], "hex": "020000000001036381984bbcfb56fd97a7002d74c44a570d72d1cc383fb62a1c63219467181a6600000000171600144a4fd46cc0a258dff99dfd005a26097f3477d302feffffff7e777445dd7f7fc256594678e42bae0194d2a3995ddcfe8e15e643963561732c000000001716001466a9741e07bfc448e2ea2b116636e91c722923bffeffffffc54c39cf957ee5b00fcdaded4d39386e82f0a6fb661d3b00180748da33aa7f0c000000001716001421d5d6e47a13c3523c19ed31dea40f25588eaf12feffffff023b6212000000000017a914e567204383b88b9bf0de17f339cf5c901895042f87e2d23000000000001976a914b225455d7f42fd9db9ebd5e276b27b9982c4cfa888ac02483045022100ea00be7fa2b8ef18cd2f5afe02973d2fabd0e6770840fcadf0f454f97960952d022012c6ae4e10141cb014ac16104a97f6fb98394a744337fdd2f92f380cb23832f90121027fc559caf55b763f59a96ae5bbb069be36f2362608041ade832fb9fccfb1b3bf02483045022100eeba0eaca280c8f7b8f699fbcca725c6d8e74283ee80706b8522e2b45c723aba0220336ef3c7d05c67b7a44b36f4ca8533dc87808e5c12b2831fa7483554e8fceb1c012102d7c72d0026e47a6875c79cf98a43a04651609733e71a5e925bc7777895ccf36902483045022100b800fbce0a1c0cf9a574c44ff0f4970fb471648c6eb114585cac538dcc4993220220096dbd6391fd51fb3d810ff2bf05e49bc8b82dad1a4138cee2e6e2ac2c20c2c3012103667ab6981f9ca1728a36f46a36b215ea6009da1e9800d5427117fda6fcb8e9770e490800", "vin": [{"txinwitness": ["3045022100ea00be7fa2b8ef18cd2f5afe02973d2fabd0e6770840fcadf0f454f97960952d022012c6ae4e10141cb014ac16104a97f6fb98394a744337fdd2f92f380cb23832f901", "027fc559caf55b763f59a96ae5bbb069be36f2362608041ade832fb9fccfb1b3bf"], "sequence": 4294967294, "scriptSig": {"hex": "1600144a4fd46cc0a258dff99dfd005a26097f3477d302", "asm": "00144a4fd46cc0a258dff99dfd005a26097f3477d302"}, "vout": 0, "txid": "661a18679421631c2ab63f38ccd1720d574ac4742d00a797fd56fbbc4b988163"}, {"txinwitness": ["3045022100eeba0eaca280c8f7b8f699fbcca725c6d8e74283ee80706b8522e2b45c723aba0220336ef3c7d05c67b7a44b36f4ca8533dc87808e5c12b2831fa7483554e8fceb1c01", "02d7c72d0026e47a6875c79cf98a43a04651609733e71a5e925bc7777895ccf369"], "sequence": 4294967294, "scriptSig": {"hex": "16001466a9741e07bfc448e2ea2b116636e91c722923bf", "asm": "001466a9741e07bfc448e2ea2b116636e91c722923bf"}, "vout": 0, "txid": "2c7361359643e6158efedc5d99a3d29401ae2be478465956c27f7fdd4574777e"}, {"txinwitness": ["3045022100b800fbce0a1c0cf9a574c44ff0f4970fb471648c6eb114585cac538dcc4993220220096dbd6391fd51fb3d810ff2bf05e49bc8b82dad1a4138cee2e6e2ac2c20c2c301", "03667ab6981f9ca1728a36f46a36b215ea6009da1e9800d5427117fda6fcb8e977"], "sequence": 4294967294, "scriptSig": {"hex": "16001421d5d6e47a13c3523c19ed31dea40f25588eaf12", "asm": "001421d5d6e47a13c3523c19ed31dea40f25588eaf12"}, "vout": 0, "txid": "0c7faa33da480718003b1d66fba6f0826e38394dedadcd0fb0e57e95cf394cc5"}], "txid": "927a5d4f5634e2e90850699e2a89a01ccb3eba1b6af472973d72ea75d709ad31", "blocktime": 1537870928, "version": 2, "confirmations": 11514, "time": 1537870928, "locktime": 542990, "vsize": 350, "size": 594}