{"hash": "4a6073f8f5f8e53059dae388b3b12a733c54834a1b898404dfd715aa9146ffe6", "blockhash": "0000000000000000001f76057863aec43deb6fa401d9628bb513d65a8098bfab", "vout": [{"scriptPubKey": {"reqSigs": 1, "hex": "a91453f0a8e9dbb29d7cdc220bc8ef36641cc079e12187", "addresses": ["39LrJoXZdUD8F7APbpBvyhk7kSiicEFCJZ"], "asm": "OP_HASH160 53f0a8e9dbb29d7cdc220bc8ef36641cc079e121 OP_EQUAL", "type": "scripthash"}, "value": 0.00584948, "n": 0}, {"scriptPubKey": {"reqSigs": 1, "hex": "a914ab728ef323777d9cb59d81b5c303985ba554e4f187", "addresses": ["3HKYi1AtVxEETFBTADTbGgbwYNZzckfQtn"], "asm": "OP_HASH160 ab728ef323777d9cb59d81b5c303985ba554e4f1 OP_EQUAL", "type": "scripthash"}, "value": 0.01248948, "n": 1}, {"scriptPubKey": {"reqSigs": 1, "hex": "a914c886f7724fbb889ca1e1ce235925a505ec330df887", "addresses": ["3KyJkZ1nP86BkoLGMBarbhe17Z2Do3pHsK"], "asm": "OP_HASH160 c886f7724fbb889ca1e1ce235925a505ec330df8 OP_EQUAL", "type": "scripthash"}, "value": 0.1061929, "n": 2}, {"scriptPubKey": {"reqSigs": 1, "hex": "76a9148d3434d6e7e23d8a4254a95bbbf64ac2379e46a088ac", "addresses": ["1DscpQw91k1qQ6zxwBM2uu3pLS4JBRWE18"], "asm": "OP_DUP OP_HASH160 8d3434d6e7e23d8a4254a95bbbf64ac2379e46a0 OP_EQUALVERIFY OP_CHECKSIG", "type": "pubkeyhash"}, "value": 0.03198948, "n": 3}], "hex": "0200000000010179f9c79758b6e96e1628a87d12679846e6c63fbd560c51a4c7812621d82ec2800000000017160014bc6b1c566c1a6e62af7f61c4988e01f404178cb1feffffff04f4ec08000000000017a91453f0a8e9dbb29d7cdc220bc8ef36641cc079e12187b40e13000000000017a914ab728ef323777d9cb59d81b5c303985ba554e4f1879a09a2000000000017a914c886f7724fbb889ca1e1ce235925a505ec330df887e4cf3000000000001976a9148d3434d6e7e23d8a4254a95bbbf64ac2379e46a088ac02483045022100aa2385fdb103cb01ffd052a9404ca70816a82d9767a0bb3b70d1db9b218d341c02206b5e70807c7a8e1747e1e72a0eaac924952b1f90ef32630949d15a68d44b073b0121028342647dfb1c7dc50ba883bbbc6ad0c89ef87fa47227361e66b644c53ae94e2514490800", "vin": [{"txinwitness": ["3045022100aa2385fdb103cb01ffd052a9404ca70816a82d9767a0bb3b70d1db9b218d341c02206b5e70807c7a8e1747e1e72a0eaac924952b1f90ef32630949d15a68d44b073b01", "028342647dfb1c7dc50ba883bbbc6ad0c89ef87fa47227361e66b644c53ae94e25"], "sequence": 4294967294, "scriptSig": {"hex": "160014bc6b1c566c1a6e62af7f61c4988e01f404178cb1", "asm": "0014bc6b1c566c1a6e62af7f61c4988e01f404178cb1"}, "vout": 0, "txid": "80c22ed8212681c7a4510c56bd3fc6e6469867127da828166ee9b65897c7f979"}], "txid": "927d2b340ef596e50b77f3e0426a3d99d3f55ee272cf4c096c30f329e8a45421", "blocktime": 1537873891, "version": 2, "confirmations": 11474, "time": 1537873891, "locktime": 542996, "vsize": 232, "size": 314}