{"hash": "ba7526c58f193ae2a41e8953a5682cc7efcdb83985875aa40b2243cc108d39a1", "blockhash": "0000000000000000000dcc0f55137456b1a82d3642486a52398922ac4d620174", "vout": [{"scriptPubKey": {"reqSigs": 1, "hex": "a91428e76877ee46c17050036848e9c02d5d280ebd5587", "addresses": ["35RJAjRXHTTLwnuDcSmH2APsG5v9YKaFTG"], "asm": "OP_HASH160 28e76877ee46c17050036848e9c02d5d280ebd55 OP_EQUAL", "type": "scripthash"}, "value": 0.095, "n": 0}, {"scriptPubKey": {"reqSigs": 1, "hex": "a914d9f6671cfa322df6e74b2e46d05148c8b84356fb87", "addresses": ["3MZVjY5aTnj6549RMmD4A2SANMun1ov9ph"], "asm": "OP_HASH160 d9f6671cfa322df6e74b2e46d05148c8b84356fb OP_EQUAL", "type": "scripthash"}, "value": 0.01032852, "n": 1}], "hex": "02000000000102679eb041218adb7109dddab33769f5a8f15a002036e8fff048897e93690ac9a5030000001716001427718a75c022cb23ca95ff81e2b8a5579668dcd5fdffffffbcbc0d955e93f508a36defe01bda722431d768e8af659241017ab2fb6d0c4461000000001716001427718a75c022cb23ca95ff81e2b8a5579668dcd5fdffffff0260f590000000000017a91428e76877ee46c17050036848e9c02d5d280ebd558794c20f000000000017a914d9f6671cfa322df6e74b2e46d05148c8b84356fb870247304402207ebcb197267ce6663e3c131e4824d2c8799f8f314673451c8be02ea8b6c00e0f02202e21734d2d7744f9b4c517cee84c5880e22e0f62cb363577c811f10861c7c6d2012103c485ac05e4bd166650e8d37c5fdef9c7bedbe9cb49a95bcfaba80df9a0e93d5a02483045022100a6f632cb4366950799ce13dd54861d503caadb33bf8f0aa613b61f91ab0b3cf902206720f8a11e9add36180bdc21518bd394877788b7d061c7e8cd5aa33217ba0f12012103c485ac05e4bd166650e8d37c5fdef9c7bedbe9cb49a95bcfaba80df9a0e93d5a0c490800", "vin": [{"txinwitness": ["304402207ebcb197267ce6663e3c131e4824d2c8799f8f314673451c8be02ea8b6c00e0f02202e21734d2d7744f9b4c517cee84c5880e22e0f62cb363577c811f10861c7c6d201", "03c485ac05e4bd166650e8d37c5fdef9c7bedbe9cb49a95bcfaba80df9a0e93d5a"], "sequence": 4294967293, "scriptSig": {"hex": "16001427718a75c022cb23ca95ff81e2b8a5579668dcd5", "asm": "001427718a75c022cb23ca95ff81e2b8a5579668dcd5"}, "vout": 3, "txid": "a5c90a69937e8948f0ffe83620005af1a8f56937b3dadd0971db8a2141b09e67"}, {"txinwitness": ["3045022100a6f632cb4366950799ce13dd54861d503caadb33bf8f0aa613b61f91ab0b3cf902206720f8a11e9add36180bdc21518bd394877788b7d061c7e8cd5aa33217ba0f1201", "03c485ac05e4bd166650e8d37c5fdef9c7bedbe9cb49a95bcfaba80df9a0e93d5a"], "sequence": 4294967293, "scriptSig": {"hex": "16001427718a75c022cb23ca95ff81e2b8a5579668dcd5", "asm": "001427718a75c022cb23ca95ff81e2b8a5579668dcd5"}, "vout": 0, "txid": "61440c6dfbb27a01419265afe868d7312472da1be0ef6da308f5935e950dbcbc"}], "txid": "927fa6111ddb7f5fea07eceab176666666317fad0eca23a3224033d9c89887f7", "blocktime": 1537870268, "version": 2, "confirmations": 11520, "time": 1537870268, "locktime": 542988, "vsize": 257, "size": 419}