{"hash": "c96af1c2988cf71a51a21e7dbf2ab98a654b0a000c487232a6e58d6ead367539", "blockhash": "0000000000000000001cda96e906b7601b7a6fb1a3b62bca570a9e5d8f4b3de1", "vout": [{"scriptPubKey": {"reqSigs": 1, "hex": "001498d3c4e45ef62d1978848fb15c2b319ba20969c9", "addresses": ["bc1qnrfufez77ck3j7yy37c4c2e3nw3qj6wftdp9c5"], "asm": "0 98d3c4e45ef62d1978848fb15c2b319ba20969c9", "type": "witness_v0_keyhash"}, "value": 9.819e-05, "n": 0}, {"scriptPubKey": {"reqSigs": 1, "hex": "a91449180480c59f7e192a5235a1152fd401389a152987", "addresses": ["38MW2KScnHSS5Yxkr4Ge7Dn2F1RopiP86p"], "asm": "OP_HASH160 49180480c59f7e192a5235a1152fd401389a1529 OP_EQUAL", "type": "scripthash"}, "value": 0.003, "n": 1}], "hex": "010000000001019603a4b4e2201077ffa7c16fce26f8da51658557fc59035e22a3ae5c1ada55ff00000000171600140d1f53ead62bded319d42095b5da39a44f0cc769ffffffff025b2600000000000016001498d3c4e45ef62d1978848fb15c2b319ba20969c9e09304000000000017a91449180480c59f7e192a5235a1152fd401389a15298702483045022100ab7a30ff869d705104e36c406c96a8400360c74629ded93f066c904a41fb13be02203ea1ebcc37e4b20bf46dd506deaf45bfbe05ca4cab18db2f997d60972d4d77e0012102dba0573629734dd92a30aed859d37310b0dfa9c978ac582983da4a20566267da00000000", "vin": [{"txinwitness": ["3045022100ab7a30ff869d705104e36c406c96a8400360c74629ded93f066c904a41fb13be02203ea1ebcc37e4b20bf46dd506deaf45bfbe05ca4cab18db2f997d60972d4d77e001", "02dba0573629734dd92a30aed859d37310b0dfa9c978ac582983da4a20566267da"], "sequence": 4294967295, "scriptSig": {"hex": "1600140d1f53ead62bded319d42095b5da39a44f0cc769", "asm": "00140d1f53ead62bded319d42095b5da39a44f0cc769"}, "vout": 0, "txid": "ff55da1a5caea3225e0359fc57856551daf826ce6fc1a7ff771020e2b4a40396"}], "txid": "9280670dd672d4d445e9b13cafb528b62578ec8ef23a214539901339c30985c3", "blocktime": 1537873282, "version": 1, "confirmations": 11484, "time": 1537873282, "locktime": 0, "vsize": 165, "size": 247}