{"hash": "92e3de80d0e6f26e708f0884a529250cd8f89b01009191d04443f6d9c9ec3282", "blockhash": "000000000000000000205f8b0775d31398ef75b89a5e8ec8d2c57b4dc0ac4c20", "vout": [{"scriptPubKey": {"reqSigs": 1, "hex": "a91433d4b1d2d46b683127f625f2e72f210eb9905a6a87", "addresses": ["36R5BcFcjDLwSF1o46NrJ6QjoVD7AUEyGy"], "asm": "OP_HASH160 33d4b1d2d46b683127f625f2e72f210eb9905a6a OP_EQUAL", "type": "scripthash"}, "value": 0.51355295, "n": 0}, {"scriptPubKey": {"reqSigs": 1, "hex": "a914d0338a6eec6a8bd8667e3362cb8eb7f06647ac2987", "addresses": ["3LftDZNUNtDRKgHasoYbXhk1W5i3Z2GYqN"], "asm": "OP_HASH160 d0338a6eec6a8bd8667e3362cb8eb7f06647ac29 OP_EQUAL", "type": "scripthash"}, "value": 0.01185848, "n": 1}], "hex": "020000000001018947924c77a1b8d6328adab158b028022fc47a2a6a1273f1f6fa2ce811d36ca1000000001716001421084cfa1ea5c78bbdbb46a1087a44ef9c1c3dd3feffffff029f9e0f030000000017a91433d4b1d2d46b683127f625f2e72f210eb9905a6a87381812000000000017a914d0338a6eec6a8bd8667e3362cb8eb7f06647ac29870247304402205ecd131b7e249124d2520c5c4389a0d7ba2c10d137c1e77b46b168ccef0bc4450220256017cbb8211680b2e092d8b49fdfa86fffb98cdacc4956b5c6bf9c2b04eddc01210309bd8794e31b3a9937aa10d996bd8978eda055804adbdbfebc35132c91afa0a10e490800", "vin": [{"txinwitness": ["304402205ecd131b7e249124d2520c5c4389a0d7ba2c10d137c1e77b46b168ccef0bc4450220256017cbb8211680b2e092d8b49fdfa86fffb98cdacc4956b5c6bf9c2b04eddc01", "0309bd8794e31b3a9937aa10d996bd8978eda055804adbdbfebc35132c91afa0a1"], "sequence": 4294967294, "scriptSig": {"hex": "16001421084cfa1ea5c78bbdbb46a1087a44ef9c1c3dd3", "asm": "001421084cfa1ea5c78bbdbb46a1087a44ef9c1c3dd3"}, "vout": 0, "txid": "a16cd311e82cfaf6f173126a2a7ac42f0228b058b1da8a32d6b8a1774c924789"}], "txid": "9280fc75ae79f3411f9e3070376718f0699924ce9a49f13a9c1133f5d260efe7", "blocktime": 1537871175, "version": 2, "confirmations": 11511, "time": 1537871175, "locktime": 542990, "vsize": 166, "size": 247}