{"hash": "928321219c1deaddbd454a9022abae17030c9adcf97cf4439486d41c56d2674a", "blockhash": "0000000000000000001cda96e906b7601b7a6fb1a3b62bca570a9e5d8f4b3de1", "vout": [{"scriptPubKey": {"reqSigs": 1, "hex": "76a914ccbc850327822460d48c524b141685039208053688ac", "addresses": ["1KfYghoHaw6vG7PzfovKS13zbiNSPiCFgU"], "asm": "OP_DUP OP_HASH160 ccbc850327822460d48c524b1416850392080536 OP_EQUALVERIFY OP_CHECKSIG", "type": "pubkeyhash"}, "value": 0.004967, "n": 0}, {"scriptPubKey": {"reqSigs": 1, "hex": "76a9144c373c3f2d8461b6840d65f7315545b7fb3ae04688ac", "addresses": ["17wzXQ52TYgCh9xdRSJJPtEG2rjEq15SSm"], "asm": "OP_DUP OP_HASH160 4c373c3f2d8461b6840d65f7315545b7fb3ae046 OP_EQUALVERIFY OP_CHECKSIG", "type": "pubkeyhash"}, "value": 0.00702622, "n": 1}], "hex": "0100000001ca7135648ffdda8cfcf91bd6cfdc1e30e5a1e2421d3684f48d80e2e3742acc19680000006a47304402204406c99f9e30e96636c4a0635764c591dbd713569f2fb4b62f617cf132c4a48f02203fb5962c871d9e506439af22eac5dab0dca1aa1d667356ba0d4bd193e0536695012103d73f97f2770353cc2e44add10230f0c90864fde6fc5f16dddec67c873283680effffffff023c940700000000001976a914ccbc850327822460d48c524b141685039208053688ac9eb80a00000000001976a9144c373c3f2d8461b6840d65f7315545b7fb3ae04688ac00000000", "vin": [{"sequence": 4294967295, "scriptSig": {"hex": "47304402204406c99f9e30e96636c4a0635764c591dbd713569f2fb4b62f617cf132c4a48f02203fb5962c871d9e506439af22eac5dab0dca1aa1d667356ba0d4bd193e0536695012103d73f97f2770353cc2e44add10230f0c90864fde6fc5f16dddec67c873283680e", "asm": "304402204406c99f9e30e96636c4a0635764c591dbd713569f2fb4b62f617cf132c4a48f02203fb5962c871d9e506439af22eac5dab0dca1aa1d667356ba0d4bd193e0536695[ALL] 03d73f97f2770353cc2e44add10230f0c90864fde6fc5f16dddec67c873283680e"}, "vout": 104, "txid": "19cc2a74e3e2808df484361d42e2a1e5301edccfd61bf9fc8cdafd8f643571ca"}], "txid": "928321219c1deaddbd454a9022abae17030c9adcf97cf4439486d41c56d2674a", "blocktime": 1537873282, "version": 1, "confirmations": 11484, "time": 1537873282, "locktime": 0, "vsize": 225, "size": 225}