{"hash": "928b27f965aa66b69d155ffa21119ca537c6612d9520d481dbeb6aad9098a0c4", "blockhash": "0000000000000000001f76057863aec43deb6fa401d9628bb513d65a8098bfab", "vout": [{"scriptPubKey": {"reqSigs": 1, "hex": "a914ba84b73712723e65fa7403a2f585990b5ccce02987", "addresses": ["3JhEbUJiiwJVY7QfsmfbjqvucX773ukwQm"], "asm": "OP_HASH160 ba84b73712723e65fa7403a2f585990b5ccce029 OP_EQUAL", "type": "scripthash"}, "value": 0.01144013, "n": 0}, {"scriptPubKey": {"reqSigs": 1, "hex": "76a914d2ae6b272424f916652a36139287e75fc129787988ac", "addresses": ["1LCyr6jQ9pddQNZmmi6q8sYjjYqs17ozg6"], "asm": "OP_DUP OP_HASH160 d2ae6b272424f916652a36139287e75fc1297879 OP_EQUALVERIFY OP_CHECKSIG", "type": "pubkeyhash"}, "value": 0.07011384, "n": 1}], "hex": "010000000209cc90b140b0a054b62be7ce99d4896aa791932ddc749a48a8dac023005f9a0d000000006b48304502210087e05b8877e13b44b1c62bc5c7be6fcda67655c19252348d26a18e6d218b3bf9022036ccb3ec7a6963741812b77936692a9d0a77d2efdad224f4c620f75ef195f239012103844bec46e23ae0b437a5940e06ecf794d77e0a076b6ecf39320c9d03114f44c4fffffffff5ea937bdc7cd47de7986d11847b2c683437f9f8ca4da6511d18a7221cbbe06d080000006a47304402201ee30656ed5f21ee20c0c151a6f48e4893830b7e6ee9f5bbd286d00d291edaed02202ea59fc1d738e2d7f5dbe1a5b0de9f86d209241f43c6595a69d57cc310cd95b501210365e5c945c352288b7f20b58d2a6337eb4bce2370a4b493f5ee7dcf2f4fe06055ffffffff02cd7411000000000017a914ba84b73712723e65fa7403a2f585990b5ccce0298738fc6a00000000001976a914d2ae6b272424f916652a36139287e75fc129787988ac00000000", "vin": [{"sequence": 4294967295, "scriptSig": {"hex": "48304502210087e05b8877e13b44b1c62bc5c7be6fcda67655c19252348d26a18e6d218b3bf9022036ccb3ec7a6963741812b77936692a9d0a77d2efdad224f4c620f75ef195f239012103844bec46e23ae0b437a5940e06ecf794d77e0a076b6ecf39320c9d03114f44c4", "asm": "304502210087e05b8877e13b44b1c62bc5c7be6fcda67655c19252348d26a18e6d218b3bf9022036ccb3ec7a6963741812b77936692a9d0a77d2efdad224f4c620f75ef195f239[ALL] 03844bec46e23ae0b437a5940e06ecf794d77e0a076b6ecf39320c9d03114f44c4"}, "vout": 0, "txid": "0d9a5f0023c0daa8489a74dc2d9391a76a89d499cee72bb654a0b040b190cc09"}, {"sequence": 4294967295, "scriptSig": {"hex": "47304402201ee30656ed5f21ee20c0c151a6f48e4893830b7e6ee9f5bbd286d00d291edaed02202ea59fc1d738e2d7f5dbe1a5b0de9f86d209241f43c6595a69d57cc310cd95b501210365e5c945c352288b7f20b58d2a6337eb4bce2370a4b493f5ee7dcf2f4fe06055", "asm": "304402201ee30656ed5f21ee20c0c151a6f48e4893830b7e6ee9f5bbd286d00d291edaed02202ea59fc1d738e2d7f5dbe1a5b0de9f86d209241f43c6595a69d57cc310cd95b5[ALL] 0365e5c945c352288b7f20b58d2a6337eb4bce2370a4b493f5ee7dcf2f4fe06055"}, "vout": 8, "txid": "6de0bb1c22a7181d51a64dcaf8f93734682c7b84116d98e77dd47cdc7b93eaf5"}], "txid": "928b27f965aa66b69d155ffa21119ca537c6612d9520d481dbeb6aad9098a0c4", "blocktime": 1537873891, "version": 1, "confirmations": 11478, "time": 1537873891, "locktime": 0, "vsize": 371, "size": 371}