{"hash": "928cbb3ac0e35c3db24128cc4776f6ed82d173de57181f863a9487c0b81a3665", "blockhash": "00000000000000000017f5eb5941039fbcee6240d03bc1f2f8e35350df66a1d8", "vout": [{"scriptPubKey": {"type": "nulldata", "hex": "6a4c50000077f30001c58e89d8391d43717eab7aa5d19ed074892d00f8e87af8e8e963c7cfd5b9bc8d350a7163155daf39fcbde7df97b95baa189c0613aebfe86a95531d100759d4ba30d2c37bb011d97e02cf", "asm": "OP_RETURN 000077f30001c58e89d8391d43717eab7aa5d19ed074892d00f8e87af8e8e963c7cfd5b9bc8d350a7163155daf39fcbde7df97b95baa189c0613aebfe86a95531d100759d4ba30d2c37bb011d97e02cf"}, "value": 0.0, "n": 0}, {"scriptPubKey": {"reqSigs": 1, "hex": "76a914f5b1d9b022fcba9c79189489675928a8acd2eee388ac", "addresses": ["1PQ7cFuVUcJ3VrT8TiNnGEhRoo1d62S83o"], "asm": "OP_DUP OP_HASH160 f5b1d9b022fcba9c79189489675928a8acd2eee3 OP_EQUALVERIFY OP_CHECKSIG", "type": "pubkeyhash"}, "value": 0.00636332, "n": 1}], "hex": "0100000001fbe155356aebb130c5646ffef1b097fa361ec778b3ff48f2655cd6fcefa30e46010000006b4830450221008f964089f3cd137c662f952bea4212da573976fd61d1898bf6cf7d3099bfb4f702207784fa7a29643caa161529f7bf1624d2ff361cc09990ebab470c216163b5cc2f012103d59429a5a737f5ee63caa2e0c16ad07534b03ebe4d23b0bf0d82fc85d4abf959ffffffff020000000000000000536a4c50000077f30001c58e89d8391d43717eab7aa5d19ed074892d00f8e87af8e8e963c7cfd5b9bc8d350a7163155daf39fcbde7df97b95baa189c0613aebfe86a95531d100759d4ba30d2c37bb011d97e02cfacb50900000000001976a914f5b1d9b022fcba9c79189489675928a8acd2eee388ac00000000", "vin": [{"sequence": 4294967295, "scriptSig": {"hex": "4830450221008f964089f3cd137c662f952bea4212da573976fd61d1898bf6cf7d3099bfb4f702207784fa7a29643caa161529f7bf1624d2ff361cc09990ebab470c216163b5cc2f012103d59429a5a737f5ee63caa2e0c16ad07534b03ebe4d23b0bf0d82fc85d4abf959", "asm": "30450221008f964089f3cd137c662f952bea4212da573976fd61d1898bf6cf7d3099bfb4f702207784fa7a29643caa161529f7bf1624d2ff361cc09990ebab470c216163b5cc2f[ALL] 03d59429a5a737f5ee63caa2e0c16ad07534b03ebe4d23b0bf0d82fc85d4abf959"}, "vout": 1, "txid": "460ea3effcd65c65f248ffb378c71e36fa97b0f1fe6f64c530b1eb6a3555e1fb"}], "txid": "928cbb3ac0e35c3db24128cc4776f6ed82d173de57181f863a9487c0b81a3665", "blocktime": 1537874412, "version": 1, "confirmations": 11467, "time": 1537874412, "locktime": 0, "vsize": 284, "size": 284}