{"hash": "47385561ab0971127b705730afafcdaa4329d2fc70df3dd0e8fce44f8803ef04", "blockhash": "00000000000000000004ffacab907a6b429b9a5745fa0b75af4234bf69dd7176", "vout": [{"scriptPubKey": {"reqSigs": 1, "hex": "76a91485db7cab769f93a69785c13cc1e0df51be1f9d8b88ac", "addresses": ["1DCmojk8DoVM3CmvYCzyJbGfcHzZstF2vU"], "asm": "OP_DUP OP_HASH160 85db7cab769f93a69785c13cc1e0df51be1f9d8b OP_EQUALVERIFY OP_CHECKSIG", "type": "pubkeyhash"}, "value": 2.605e-05, "n": 0}, {"scriptPubKey": {"reqSigs": 1, "hex": "a914e8db75c900cf08f06518e96d167331f2a4abfb3387", "addresses": ["3NvFbQMAkkqEFj4i1sYPPLkSWzxTFUchjA"], "asm": "OP_HASH160 e8db75c900cf08f06518e96d167331f2a4abfb33 OP_EQUAL", "type": "scripthash"}, "value": 0.00021945, "n": 1}], "hex": "010000000001019d1131b59aef4690e42b19e34fdea93c613a2b3f0e84f3d8c6c47ff7f95936050100000023220020941cfaff8837763dc1f69ff82b6d6553fdea17a41cfc29a04403293eedd8ccc7ffffffff022d0a0000000000001976a91485db7cab769f93a69785c13cc1e0df51be1f9d8b88acb95500000000000017a914e8db75c900cf08f06518e96d167331f2a4abfb33870400483045022100b91d0ef60b0077c7be8ae41499677fc3e5ee4ba48b34b6c7cad146b9614596c202200de6f4c8dd1ad32f2023c881272b99312d2d16b7f85669ebec55b3c68a0c222401483045022100aef9c704a4c7c6199362dc327e99f3b09bf22556a518abf17cd5d47e38a000b6022013612925f851133d61413791eb0e00218ad38be2f80ce8e53c6bee8d0af66b000147522102531db3a5883f29bab4241dd0cd726936667bcda445d89bdd22244e828b6993342103148c80a5bdfddb05ff5bcffc397c8ca748d8b435ec6a175bc9d7bfc7fc6f853752ae00000000", "vin": [{"txinwitness": ["", "3045022100b91d0ef60b0077c7be8ae41499677fc3e5ee4ba48b34b6c7cad146b9614596c202200de6f4c8dd1ad32f2023c881272b99312d2d16b7f85669ebec55b3c68a0c222401", "3045022100aef9c704a4c7c6199362dc327e99f3b09bf22556a518abf17cd5d47e38a000b6022013612925f851133d61413791eb0e00218ad38be2f80ce8e53c6bee8d0af66b0001", "522102531db3a5883f29bab4241dd0cd726936667bcda445d89bdd22244e828b6993342103148c80a5bdfddb05ff5bcffc397c8ca748d8b435ec6a175bc9d7bfc7fc6f853752ae"], "sequence": 4294967295, "scriptSig": {"hex": "220020941cfaff8837763dc1f69ff82b6d6553fdea17a41cfc29a04403293eedd8ccc7", "asm": "0020941cfaff8837763dc1f69ff82b6d6553fdea17a41cfc29a04403293eedd8ccc7"}, "vout": 1, "txid": "053659f9f77fc4c6d8f3840e3f2b3a613ca9de4fe3192be49046ef9ab531119d"}], "txid": "928cd009d5926e3395d13a9312d3349b81d14042fad2503f2ecd8835a9759c15", "blocktime": 1537875543, "version": 1, "confirmations": 11464, "time": 1537875543, "locktime": 0, "vsize": 208, "size": 374}