{"hash": "e49b56c8f2e518b5bd75dc77a21059dcd186eb42c4949fa6f6e7e57b3dc171bc", "blockhash": "00000000000000000004ffacab907a6b429b9a5745fa0b75af4234bf69dd7176", "vout": [{"scriptPubKey": {"reqSigs": 1, "hex": "a914e7f6008f3f326e93da7121860fd7c9fb06a1b1c687", "addresses": ["3NqWiPTpivKDN1AwKpV9EhjzZZwTDwSwLv"], "asm": "OP_HASH160 e7f6008f3f326e93da7121860fd7c9fb06a1b1c6 OP_EQUAL", "type": "scripthash"}, "value": 1.022e-05, "n": 0}, {"scriptPubKey": {"reqSigs": 1, "hex": "a9141d7370ccde4590204155e4074f69743a8e4fac0287", "addresses": ["34Njp4ZKtmCDfqqps26wHBYQQGUo2pGkLi"], "asm": "OP_HASH160 1d7370ccde4590204155e4074f69743a8e4fac02 OP_EQUAL", "type": "scripthash"}, "value": 6.998e-05, "n": 1}], "hex": "0100000000010186b1741e1f1ec090575e75aa3d1698843d6727b3cb2dcab616d00fac12d6de4e0100000023220020f63dfc12340f6360d0251c22746d6b56093e3243e96ca012a65484a5d9cf0ec0ffffffff02fe0300000000000017a914e7f6008f3f326e93da7121860fd7c9fb06a1b1c687561b00000000000017a9141d7370ccde4590204155e4074f69743a8e4fac02870400483045022100a23c0405666590c44462e4cf2936e7f09ff399b0ad2cc936f5ff15339dba0e0502202597064b6bcba30a763a14ce1562ca86f7bc79fbdc1ee435e766dd7013dd8de701473044022013d263f2c483c8f01b4805eaff7cb810fa4ce7f84a473899f4ee1b8883f00d0b02205071af62d8c5e3f38e0b6fd98a25feab7f54b2e2f3b0ab7aae40590921a6fed40147522102097067a6a0cc130a9a6f6577b47bf369b840a79de31cd7457187994266b1bb7c2103338f346cab6ba87fe940591a03ac234be06520c5ab386d4b6632e8eef0d0db7652ae00000000", "vin": [{"txinwitness": ["", "3045022100a23c0405666590c44462e4cf2936e7f09ff399b0ad2cc936f5ff15339dba0e0502202597064b6bcba30a763a14ce1562ca86f7bc79fbdc1ee435e766dd7013dd8de701", "3044022013d263f2c483c8f01b4805eaff7cb810fa4ce7f84a473899f4ee1b8883f00d0b02205071af62d8c5e3f38e0b6fd98a25feab7f54b2e2f3b0ab7aae40590921a6fed401", "522102097067a6a0cc130a9a6f6577b47bf369b840a79de31cd7457187994266b1bb7c2103338f346cab6ba87fe940591a03ac234be06520c5ab386d4b6632e8eef0d0db7652ae"], "sequence": 4294967295, "scriptSig": {"hex": "220020f63dfc12340f6360d0251c22746d6b56093e3243e96ca012a65484a5d9cf0ec0", "asm": "0020f63dfc12340f6360d0251c22746d6b56093e3243e96ca012a65484a5d9cf0ec0"}, "vout": 1, "txid": "4eded612ac0fd016b6ca2dcbb327673d8498163daa755e5790c01e1f1e74b186"}], "txid": "928d7fb2b30d3c553857d183f806db1415a8c34710dc6489d7ce24e6eec215b4", "blocktime": 1537875543, "version": 1, "confirmations": 11464, "time": 1537875543, "locktime": 0, "vsize": 206, "size": 371}