{"hash": "928f78fa007832f8220f71d574ff3c2a1988937e21997f68844b1cc0e5ea3e8d", "blockhash": "0000000000000000001f76057863aec43deb6fa401d9628bb513d65a8098bfab", "vout": [{"scriptPubKey": {"reqSigs": 1, "hex": "a9148a188046b777f127a54878fccfb4d7ede9890df687", "addresses": ["3EHCXP4WEN5ntRVhkUVPhAK4uGZDhPehJh"], "asm": "OP_HASH160 8a188046b777f127a54878fccfb4d7ede9890df6 OP_EQUAL", "type": "scripthash"}, "value": 0.000324, "n": 0}, {"scriptPubKey": {"reqSigs": 1, "hex": "76a914beca1ac3157d7794b02322c43b5a56df4680204088ac", "addresses": ["1JPoVvCxWAHQCydWuZdzRmbfjtUm7d9P31"], "asm": "OP_DUP OP_HASH160 beca1ac3157d7794b02322c43b5a56df46802040 OP_EQUALVERIFY OP_CHECKSIG", "type": "pubkeyhash"}, "value": 0.00195144, "n": 1}], "hex": "0100000001000e256c01e8488aca80adcfc0ead1b2ce9cef147ae929be9b1a611c79b7c1e5000000006a4730440220187c1ea47a58630048e4de784e4d829a13bdb79ef6a08bdd363edfe022ab9ad7022036091f7674e47b7b8e905c1f4dae8b4013853d694a530327d20a94d5fa70ad15012103352d5ea74eaee4cfc79dca7a832f585bc99e211f16a32b012f6f92b44111f017ffffffff02907e00000000000017a9148a188046b777f127a54878fccfb4d7ede9890df68748fa0200000000001976a914beca1ac3157d7794b02322c43b5a56df4680204088ac00000000", "vin": [{"sequence": 4294967295, "scriptSig": {"hex": "4730440220187c1ea47a58630048e4de784e4d829a13bdb79ef6a08bdd363edfe022ab9ad7022036091f7674e47b7b8e905c1f4dae8b4013853d694a530327d20a94d5fa70ad15012103352d5ea74eaee4cfc79dca7a832f585bc99e211f16a32b012f6f92b44111f017", "asm": "30440220187c1ea47a58630048e4de784e4d829a13bdb79ef6a08bdd363edfe022ab9ad7022036091f7674e47b7b8e905c1f4dae8b4013853d694a530327d20a94d5fa70ad15[ALL] 03352d5ea74eaee4cfc79dca7a832f585bc99e211f16a32b012f6f92b44111f017"}, "vout": 0, "txid": "e5c1b7791c611a9bbe29e97a14ef9cceb2d1eac0cfad80ca8a48e8016c250e00"}], "txid": "928f78fa007832f8220f71d574ff3c2a1988937e21997f68844b1cc0e5ea3e8d", "blocktime": 1537873891, "version": 1, "confirmations": 11476, "time": 1537873891, "locktime": 0, "vsize": 223, "size": 223}