{"hash": "9293b264d76310696b773eafa125b32279b0bfe5205a018dc7c58f73de6201aa", "blockhash": "0000000000000000001f76057863aec43deb6fa401d9628bb513d65a8098bfab", "vout": [{"scriptPubKey": {"reqSigs": 1, "hex": "76a914a5ee3fa6e152b81185d5898efd08596903c7a88d88ac", "addresses": ["1G8MuTYrKBUa478HNbWHGuw8ofNjCKU1m7"], "asm": "OP_DUP OP_HASH160 a5ee3fa6e152b81185d5898efd08596903c7a88d OP_EQUALVERIFY OP_CHECKSIG", "type": "pubkeyhash"}, "value": 1.34735584, "n": 0}], "hex": "0100000004d1ed1f85eb99c6f98b159ee21776505c959f2868fd84c4dc76a94ffb0f2e393e250000006b483045022100a6d2465724c4260343c4c1e8b9b7e3a8b0e1196e63010e4dda681d8dbaf950a3022023ce357aaf7a62f2435bb989c1c09da0d3b434a2505abef82bac0e6abb9657f101210358e292fa369be9ae74de19fecba946e74efd1f2076925bcaa6588e2dd24b13f3ffffffff186856353d33ad8fa9793f2bb92bc565b2d08c8d31aec5f771bfd935ac5b5f581b0000006a4730440220452c7bd6659deb8514f93fe5afbbab0c7baec3ba589d25835acb8b4c18df72bb022016b462b3749d0bfede6a89d3914a329c733ab57cf47dbfa5231caeecc0a1aecf01210358e292fa369be9ae74de19fecba946e74efd1f2076925bcaa6588e2dd24b13f3ffffffff4457e967b61ed4e331423505142d1d124b7e049a5aa6eba692384f9154a2f592120000006b48304502210090048a7cb4b5173cd67e4a58a09acfc8a08b8d2c86e69c2cd9a50684e5b3e99f02203378d6139cb59bb4a5704514a2d03c82be1a5d020a2613db69a9298a0af8e9eb012102552884c8a9e4d99a65f8991e5c8c4b56543150a1dfed08030326940726e3e6a0ffffffff5e68d0c7d118935d980806e433f15b3d3191fe156c4547d6c1db8e03743402ff160000006a47304402204a97cacb8c166d4417b7d78ca7e1297fbfe93713c0bf2b8388a878ba0b9fb666022038e5d9bababf445b35f9ecbc032e445cece727e47a2f1d38bf4bcddd79b79f21012103557b24899a3bd906d8c75d1f674ecd3f2ffd7552c75b2034107aab0d393bf9ffffffffff01e0e60708000000001976a914a5ee3fa6e152b81185d5898efd08596903c7a88d88ac00000000", "vin": [{"sequence": 4294967295, "scriptSig": {"hex": "483045022100a6d2465724c4260343c4c1e8b9b7e3a8b0e1196e63010e4dda681d8dbaf950a3022023ce357aaf7a62f2435bb989c1c09da0d3b434a2505abef82bac0e6abb9657f101210358e292fa369be9ae74de19fecba946e74efd1f2076925bcaa6588e2dd24b13f3", "asm": "3045022100a6d2465724c4260343c4c1e8b9b7e3a8b0e1196e63010e4dda681d8dbaf950a3022023ce357aaf7a62f2435bb989c1c09da0d3b434a2505abef82bac0e6abb9657f1[ALL] 0358e292fa369be9ae74de19fecba946e74efd1f2076925bcaa6588e2dd24b13f3"}, "vout": 37, "txid": "3e392e0ffb4fa976dcc484fd68289f955c507617e29e158bf9c699eb851fedd1"}, {"sequence": 4294967295, "scriptSig": {"hex": "4730440220452c7bd6659deb8514f93fe5afbbab0c7baec3ba589d25835acb8b4c18df72bb022016b462b3749d0bfede6a89d3914a329c733ab57cf47dbfa5231caeecc0a1aecf01210358e292fa369be9ae74de19fecba946e74efd1f2076925bcaa6588e2dd24b13f3", "asm": "30440220452c7bd6659deb8514f93fe5afbbab0c7baec3ba589d25835acb8b4c18df72bb022016b462b3749d0bfede6a89d3914a329c733ab57cf47dbfa5231caeecc0a1aecf[ALL] 0358e292fa369be9ae74de19fecba946e74efd1f2076925bcaa6588e2dd24b13f3"}, "vout": 27, "txid": "585f5bac35d9bf71f7c5ae318d8cd0b265c52bb92b3f79a98fad333d35566818"}, {"sequence": 4294967295, "scriptSig": {"hex": "48304502210090048a7cb4b5173cd67e4a58a09acfc8a08b8d2c86e69c2cd9a50684e5b3e99f02203378d6139cb59bb4a5704514a2d03c82be1a5d020a2613db69a9298a0af8e9eb012102552884c8a9e4d99a65f8991e5c8c4b56543150a1dfed08030326940726e3e6a0", "asm": "304502210090048a7cb4b5173cd67e4a58a09acfc8a08b8d2c86e69c2cd9a50684e5b3e99f02203378d6139cb59bb4a5704514a2d03c82be1a5d020a2613db69a9298a0af8e9eb[ALL] 02552884c8a9e4d99a65f8991e5c8c4b56543150a1dfed08030326940726e3e6a0"}, "vout": 18, "txid": "92f5a254914f3892a6eba65a9a047e4b121d2d1405354231e3d41eb667e95744"}, {"sequence": 4294967295, "scriptSig": {"hex": "47304402204a97cacb8c166d4417b7d78ca7e1297fbfe93713c0bf2b8388a878ba0b9fb666022038e5d9bababf445b35f9ecbc032e445cece727e47a2f1d38bf4bcddd79b79f21012103557b24899a3bd906d8c75d1f674ecd3f2ffd7552c75b2034107aab0d393bf9ff", "asm": "304402204a97cacb8c166d4417b7d78ca7e1297fbfe93713c0bf2b8388a878ba0b9fb666022038e5d9bababf445b35f9ecbc032e445cece727e47a2f1d38bf4bcddd79b79f21[ALL] 03557b24899a3bd906d8c75d1f674ecd3f2ffd7552c75b2034107aab0d393bf9ff"}, "vout": 22, "txid": "ff023474038edbc1d647456c15fe91313d5bf133e40608985d9318d1c7d0685e"}], "txid": "9293b264d76310696b773eafa125b32279b0bfe5205a018dc7c58f73de6201aa", "blocktime": 1537873891, "version": 1, "confirmations": 11475, "time": 1537873891, "locktime": 0, "vsize": 634, "size": 634}