{"hash": "92a1f16998c6063361d2e2451459d03960ec08e3981734cfaf2f16d5abfc8180", "blockhash": "0000000000000000000e13cef7c366c0283d82e591d1acd082e914b08063cdf1", "vout": [{"scriptPubKey": {"reqSigs": 1, "hex": "76a9147cfff2cf401433d43daf1e92cf2cacaeed682dbf88ac", "addresses": ["1CPwQQ8UnG6RAxPkykG798XSJFLmrdtKQd"], "asm": "OP_DUP OP_HASH160 7cfff2cf401433d43daf1e92cf2cacaeed682dbf OP_EQUALVERIFY OP_CHECKSIG", "type": "pubkeyhash"}, "value": 0.00643746, "n": 0}, {"scriptPubKey": {"type": "nulldata", "hex": "6a4c500000779b000172f9299dd37d55de1cf65a11e3ef3236678a625097bcbefa6b8351586b4ee6d9e3464367f053c3d0d9306cc505d85baa0d72061540d7cb4c92731d100759d4ba30d2c37bb011d97e02cf", "asm": "OP_RETURN 0000779b000172f9299dd37d55de1cf65a11e3ef3236678a625097bcbefa6b8351586b4ee6d9e3464367f053c3d0d9306cc505d85baa0d72061540d7cb4c92731d100759d4ba30d2c37bb011d97e02cf"}, "value": 0.0, "n": 1}], "hex": "010000000194e3fb870efaaf734ace12e071ad673692fad8740b76671452be1482919eab2d010000006a47304402203c1e6587bb798824326509260170db73deda93be5f8e8b2c014d84bc2862315f022000f2ecc90c20baf6cef6dcd5437e041c172407aa5456446025b2b9e985b925b00121030b1a8fbfd0af4095e67519d551713dbe2c72dd53096dfb2f8b6842e50d8b2816ffffffff02a2d20900000000001976a9147cfff2cf401433d43daf1e92cf2cacaeed682dbf88ac0000000000000000536a4c500000779b000172f9299dd37d55de1cf65a11e3ef3236678a625097bcbefa6b8351586b4ee6d9e3464367f053c3d0d9306cc505d85baa0d72061540d7cb4c92731d100759d4ba30d2c37bb011d97e02cf00000000", "vin": [{"sequence": 4294967295, "scriptSig": {"hex": "47304402203c1e6587bb798824326509260170db73deda93be5f8e8b2c014d84bc2862315f022000f2ecc90c20baf6cef6dcd5437e041c172407aa5456446025b2b9e985b925b00121030b1a8fbfd0af4095e67519d551713dbe2c72dd53096dfb2f8b6842e50d8b2816", "asm": "304402203c1e6587bb798824326509260170db73deda93be5f8e8b2c014d84bc2862315f022000f2ecc90c20baf6cef6dcd5437e041c172407aa5456446025b2b9e985b925b0[ALL] 030b1a8fbfd0af4095e67519d551713dbe2c72dd53096dfb2f8b6842e50d8b2816"}, "vout": 1, "txid": "2dab9e918214be521467760b74d8fa923667ad71e012ce4a73affa0e87fbe394"}], "txid": "92a1f16998c6063361d2e2451459d03960ec08e3981734cfaf2f16d5abfc8180", "blocktime": 1537871767, "version": 1, "confirmations": 11495, "time": 1537871767, "locktime": 0, "vsize": 283, "size": 283}