{"hash": "92a8c60cad7dbb461cdf8927b249e724b4b8b6a4a30683f9b1815b1b2a2412c6", "blockhash": "000000000000000000205f8b0775d31398ef75b89a5e8ec8d2c57b4dc0ac4c20", "vout": [{"scriptPubKey": {"reqSigs": 1, "hex": "a914e24ed4130565b1d5a10167a884fbe544d4538ce087", "addresses": ["3NKd4zUTuRR813emRLJkeMYPYD9btxzDVv"], "asm": "OP_HASH160 e24ed4130565b1d5a10167a884fbe544d4538ce0 OP_EQUAL", "type": "scripthash"}, "value": 0.03525322, "n": 0}], "hex": "01000000017b454781096ae3f9f325fd9b1763543bb3d64673754caf42556ea6873e8cf6da000000006a47304402205cab71b476bd8c6b398e53c7584effaab7ed48314258c66faf05504588f96c280220768747c0c838b20aebf6d4367f27ced6612fd5bf3f0570b64a36f74b3bbd609e012103c99a1b3454673a5c271cc004d5e2772dbf9d2b02dbc7604a94c48fb73839cc7affffffff01caca35000000000017a914e24ed4130565b1d5a10167a884fbe544d4538ce08700000000", "vin": [{"sequence": 4294967295, "scriptSig": {"hex": "47304402205cab71b476bd8c6b398e53c7584effaab7ed48314258c66faf05504588f96c280220768747c0c838b20aebf6d4367f27ced6612fd5bf3f0570b64a36f74b3bbd609e012103c99a1b3454673a5c271cc004d5e2772dbf9d2b02dbc7604a94c48fb73839cc7a", "asm": "304402205cab71b476bd8c6b398e53c7584effaab7ed48314258c66faf05504588f96c280220768747c0c838b20aebf6d4367f27ced6612fd5bf3f0570b64a36f74b3bbd609e[ALL] 03c99a1b3454673a5c271cc004d5e2772dbf9d2b02dbc7604a94c48fb73839cc7a"}, "vout": 0, "txid": "daf68c3e87a66e5542af4c757346d6b33b5463179bfd25f3f9e36a098147457b"}], "txid": "92a8c60cad7dbb461cdf8927b249e724b4b8b6a4a30683f9b1815b1b2a2412c6", "blocktime": 1537871175, "version": 1, "confirmations": 11511, "time": 1537871175, "locktime": 0, "vsize": 189, "size": 189}