{"hash": "92ad511491e402817d0b1441ac2771214eb01b1f9c192e025bb514e2e1a3530a", "blockhash": "00000000000000000004ffacab907a6b429b9a5745fa0b75af4234bf69dd7176", "vout": [{"scriptPubKey": {"reqSigs": 1, "hex": "a91468b109b7647fb2c2678b5626bb899c62cf6a942287", "addresses": ["3BEaHJkVukpR8hyKaWhuLWNyrvfi6QfHAS"], "asm": "OP_HASH160 68b109b7647fb2c2678b5626bb899c62cf6a9422 OP_EQUAL", "type": "scripthash"}, "value": 0.0031498, "n": 0}, {"scriptPubKey": {"reqSigs": 1, "hex": "a91486bd3e607b75d925566168d3690eb4a1f6a67c0e87", "addresses": ["3DyTB8SHJfkCUDhK4EbV4GY8KJQPxMmN6D"], "asm": "OP_HASH160 86bd3e607b75d925566168d3690eb4a1f6a67c0e OP_EQUAL", "type": "scripthash"}, "value": 0.0026236, "n": 1}, {"scriptPubKey": {"reqSigs": 1, "hex": "76a914fb46231304b945d8e7596ec4f5bfc5b3358cbb2f88ac", "addresses": ["1PucdMYhSm52HigqmUe96MPkjDEPMmaVMs"], "asm": "OP_DUP OP_HASH160 fb46231304b945d8e7596ec4f5bfc5b3358cbb2f OP_EQUALVERIFY OP_CHECKSIG", "type": "pubkeyhash"}, "value": 0.0149, "n": 2}, {"scriptPubKey": {"reqSigs": 1, "hex": "a914234482e558c4d9c62eacd5709df765ec7a38ef2587", "addresses": ["34uVeWNargrwbZ9qgvLnvxnS4h2V46Q9yA"], "asm": "OP_HASH160 234482e558c4d9c62eacd5709df765ec7a38ef25 OP_EQUAL", "type": "scripthash"}, "value": 0.001449, "n": 3}, {"scriptPubKey": {"reqSigs": 1, "hex": "76a914077027e01a51afbcf14590c147dd3c65d4939b5988ac", "addresses": ["1gL64b6xceLZPkUzuZyU6bUZwvjU4rPi5"], "asm": "OP_DUP OP_HASH160 077027e01a51afbcf14590c147dd3c65d4939b59 OP_EQUALVERIFY OP_CHECKSIG", "type": "pubkeyhash"}, "value": 0.0155435, "n": 4}, {"scriptPubKey": {"reqSigs": 1, "hex": "76a914d5727f30c2e05e6301d381ff0a8b09421b7a07b988ac", "addresses": ["1LTc6Eu8s9fy2zpsJRUjRHBF12th43N9je"], "asm": "OP_DUP OP_HASH160 d5727f30c2e05e6301d381ff0a8b09421b7a07b9 OP_EQUALVERIFY OP_CHECKSIG", "type": "pubkeyhash"}, "value": 0.19949701, "n": 5}], "hex": "0100000002c11c7ce38147ce1d087e6c28f09f8b365a2b3a090a1bdd324ff1567b7fa4aace040000006a47304402200d1d7da8048b86b609d63adeeaa4b8a75e919dba39cb4001c5f03ef02e6d9390022021b9f69bc926455fa89df5a83c76f00ea8c378ae013ccc442484fadbf8a1d26b012102a54b6c425a974cba19782ff7ae9d2f63c388b8d4e48e0f78cadae72bc48cb5f1ffffffff4941eef2076c2c1edb2e5901bc083f524a405598c90ee64b7bd6abd01c43fe15020000006b4830450221008e4bca32b98ffed32a742aef2703906c4698714a2f305ed65ab28c78b2f79c6a022043cd0b9fd1ae27f4e326ea04c16044a1e816b46e1bdf569f232579ea43b149bc012102a54b6c425a974cba19782ff7ae9d2f63c388b8d4e48e0f78cadae72bc48cb5f1ffffffff0664ce04000000000017a91468b109b7647fb2c2678b5626bb899c62cf6a942287d80004000000000017a91486bd3e607b75d925566168d3690eb4a1f6a67c0e8750bc1600000000001976a914fb46231304b945d8e7596ec4f5bfc5b3358cbb2f88ac043602000000000017a914234482e558c4d9c62eacd5709df765ec7a38ef2587aeb71700000000001976a914077027e01a51afbcf14590c147dd3c65d4939b5988ac85683001000000001976a914d5727f30c2e05e6301d381ff0a8b09421b7a07b988ac00000000", "vin": [{"sequence": 4294967295, "scriptSig": {"hex": "47304402200d1d7da8048b86b609d63adeeaa4b8a75e919dba39cb4001c5f03ef02e6d9390022021b9f69bc926455fa89df5a83c76f00ea8c378ae013ccc442484fadbf8a1d26b012102a54b6c425a974cba19782ff7ae9d2f63c388b8d4e48e0f78cadae72bc48cb5f1", "asm": "304402200d1d7da8048b86b609d63adeeaa4b8a75e919dba39cb4001c5f03ef02e6d9390022021b9f69bc926455fa89df5a83c76f00ea8c378ae013ccc442484fadbf8a1d26b[ALL] 02a54b6c425a974cba19782ff7ae9d2f63c388b8d4e48e0f78cadae72bc48cb5f1"}, "vout": 4, "txid": "ceaaa47f7b56f14f32dd1b0a093a2b5a368b9ff0286c7e081dce4781e37c1cc1"}, {"sequence": 4294967295, "scriptSig": {"hex": "4830450221008e4bca32b98ffed32a742aef2703906c4698714a2f305ed65ab28c78b2f79c6a022043cd0b9fd1ae27f4e326ea04c16044a1e816b46e1bdf569f232579ea43b149bc012102a54b6c425a974cba19782ff7ae9d2f63c388b8d4e48e0f78cadae72bc48cb5f1", "asm": "30450221008e4bca32b98ffed32a742aef2703906c4698714a2f305ed65ab28c78b2f79c6a022043cd0b9fd1ae27f4e326ea04c16044a1e816b46e1bdf569f232579ea43b149bc[ALL] 02a54b6c425a974cba19782ff7ae9d2f63c388b8d4e48e0f78cadae72bc48cb5f1"}, "vout": 2, "txid": "15fe431cd0abd67b4be60ec99855404a523f08bc01592edb1e2c6c07f2ee4149"}], "txid": "92ad511491e402817d0b1441ac2771214eb01b1f9c192e025bb514e2e1a3530a", "blocktime": 1537875543, "version": 1, "confirmations": 11464, "time": 1537875543, "locktime": 0, "vsize": 503, "size": 503}