{"hash": "92ae7f05ef42d5b7da35e07296cebb0f8ac5df2ef086a53b997a44f292930810", "blockhash": "0000000000000000001f76057863aec43deb6fa401d9628bb513d65a8098bfab", "vout": [{"scriptPubKey": {"reqSigs": 1, "hex": "76a914eb555b7d9cf5ea783baefe10880236002c38a4af88ac", "addresses": ["1NTL3pHYYaijUCV1Fmyfq8rHaJ3937UFqn"], "asm": "OP_DUP OP_HASH160 eb555b7d9cf5ea783baefe10880236002c38a4af OP_EQUALVERIFY OP_CHECKSIG", "type": "pubkeyhash"}, "value": 0.04383205, "n": 0}, {"scriptPubKey": {"reqSigs": 1, "hex": "76a914656b327650127eaca42724342223316093659f3f88ac", "addresses": ["1AFFfZYrYZZCwGQfrqGHMwLVty4xSzkGuG"], "asm": "OP_DUP OP_HASH160 656b327650127eaca42724342223316093659f3f OP_EQUALVERIFY OP_CHECKSIG", "type": "pubkeyhash"}, "value": 0.15605176, "n": 1}], "hex": "01000000014a2c64b160daad9d93aecc46574fb0e50713258582bccc381f5dce78d57f75e5010000006a473044022049aada6741fc7e94b9a1e882a00adcdd10de72a2bc6a5fa8fa3903b4a4097a53022066c2445b0f1e9a42dfca710d072bb6d727ef8880f66b3615bfb74b2aab4d282a012102d3d6d9a06ec0523083e9fa9483ba4cc6faf2ac93865e4cceb467887a872639ccffffffff02e5e14200000000001976a914eb555b7d9cf5ea783baefe10880236002c38a4af88acb81dee00000000001976a914656b327650127eaca42724342223316093659f3f88ac00000000", "vin": [{"sequence": 4294967295, "scriptSig": {"hex": "473044022049aada6741fc7e94b9a1e882a00adcdd10de72a2bc6a5fa8fa3903b4a4097a53022066c2445b0f1e9a42dfca710d072bb6d727ef8880f66b3615bfb74b2aab4d282a012102d3d6d9a06ec0523083e9fa9483ba4cc6faf2ac93865e4cceb467887a872639cc", "asm": "3044022049aada6741fc7e94b9a1e882a00adcdd10de72a2bc6a5fa8fa3903b4a4097a53022066c2445b0f1e9a42dfca710d072bb6d727ef8880f66b3615bfb74b2aab4d282a[ALL] 02d3d6d9a06ec0523083e9fa9483ba4cc6faf2ac93865e4cceb467887a872639cc"}, "vout": 1, "txid": "e5757fd578ce5d1f38ccbc8285251307e5b04f5746ccae939dadda60b1642c4a"}], "txid": "92ae7f05ef42d5b7da35e07296cebb0f8ac5df2ef086a53b997a44f292930810", "blocktime": 1537873891, "version": 1, "confirmations": 11478, "time": 1537873891, "locktime": 0, "vsize": 225, "size": 225}