{"hash": "8b0bf477172f2fd172d83565e1dd695a2fd9ad4ef826d1a8437bba186014a6cc", "blockhash": "00000000000000000024a2167bbff67b0be802c0b01cdd79e6331c2be6459f87", "vout": [{"scriptPubKey": {"reqSigs": 1, "hex": "76a914658bc2e4001cfacc64a3e041943e921b3086737588ac", "addresses": ["1AFvgAG4FN8fhtp3ZtSF8hsmKvPTDiB4RV"], "asm": "OP_DUP OP_HASH160 658bc2e4001cfacc64a3e041943e921b30867375 OP_EQUALVERIFY OP_CHECKSIG", "type": "pubkeyhash"}, "value": 3.41e-05, "n": 0}, {"scriptPubKey": {"reqSigs": 1, "hex": "a914e8db75c900cf08f06518e96d167331f2a4abfb3387", "addresses": ["3NvFbQMAkkqEFj4i1sYPPLkSWzxTFUchjA"], "asm": "OP_HASH160 e8db75c900cf08f06518e96d167331f2a4abfb33 OP_EQUAL", "type": "scripthash"}, "value": 0.0014554, "n": 1}], "hex": "0100000000010116090c84fa299e68c91f1d39fa10218a8a121747dcf570ef41b9bda77e84d21a0000000023220020941cfaff8837763dc1f69ff82b6d6553fdea17a41cfc29a04403293eedd8ccc7ffffffff02520d0000000000001976a914658bc2e4001cfacc64a3e041943e921b3086737588ac843802000000000017a914e8db75c900cf08f06518e96d167331f2a4abfb3387040047304402203a1c70da091f8cc48ffa3e96552ae559ccd60162849fc59eefe64d435ddb40780220360262d1be62c043828c66e75f9a25103771712151920a840785266386873a160148304502210092568e2e58f6755639d131cabb270c39da4669bdb8733a604f79f7bd3394dfe502205193fa0ec8b50bf7aed3041270a45f32cd68c3f5184b2abfbae2853ba7aa2cb30147522102531db3a5883f29bab4241dd0cd726936667bcda445d89bdd22244e828b6993342103148c80a5bdfddb05ff5bcffc397c8ca748d8b435ec6a175bc9d7bfc7fc6f853752ae00000000", "vin": [{"txinwitness": ["", "304402203a1c70da091f8cc48ffa3e96552ae559ccd60162849fc59eefe64d435ddb40780220360262d1be62c043828c66e75f9a25103771712151920a840785266386873a1601", "304502210092568e2e58f6755639d131cabb270c39da4669bdb8733a604f79f7bd3394dfe502205193fa0ec8b50bf7aed3041270a45f32cd68c3f5184b2abfbae2853ba7aa2cb301", "522102531db3a5883f29bab4241dd0cd726936667bcda445d89bdd22244e828b6993342103148c80a5bdfddb05ff5bcffc397c8ca748d8b435ec6a175bc9d7bfc7fc6f853752ae"], "sequence": 4294967295, "scriptSig": {"hex": "220020941cfaff8837763dc1f69ff82b6d6553fdea17a41cfc29a04403293eedd8ccc7", "asm": "0020941cfaff8837763dc1f69ff82b6d6553fdea17a41cfc29a04403293eedd8ccc7"}, "vout": 0, "txid": "1ad2847ea7bdb941ef70f5dc4717128a8a2110fa391d1fc9689e29fa840c0916"}], "txid": "92bd2baeb43a055f9fe27228c4fec16a6f4aa877939c0c29ce22cd418f997277", "blocktime": 1537870564, "version": 1, "confirmations": 11515, "time": 1537870564, "locktime": 0, "vsize": 208, "size": 373}