{"hash": "92c210e518d6f8a07874150ce453446708a3082418a23484e0097591fcb33dc0", "blockhash": "0000000000000000001cda96e906b7601b7a6fb1a3b62bca570a9e5d8f4b3de1", "vout": [{"scriptPubKey": {"reqSigs": 1, "hex": "76a9147da93643208cfaa9cca1b03aee535254cb5071e888ac", "addresses": ["1CTSB2rir9Porw9h1PfuQw3PNhxyPiJ4gF"], "asm": "OP_DUP OP_HASH160 7da93643208cfaa9cca1b03aee535254cb5071e8 OP_EQUALVERIFY OP_CHECKSIG", "type": "pubkeyhash"}, "value": 0.015452, "n": 0}, {"scriptPubKey": {"reqSigs": 1, "hex": "76a914f6b7965e49f86db197e95377f69c6bcb807a53da88ac", "addresses": ["1PVXA4m282T2gfkZe9VuevjJ6AsbgxuCFi"], "asm": "OP_DUP OP_HASH160 f6b7965e49f86db197e95377f69c6bcb807a53da OP_EQUALVERIFY OP_CHECKSIG", "type": "pubkeyhash"}, "value": 0.4903926, "n": 1}], "hex": "0100000001f81d097e46f73056eca8cad71e27e6cada1d2df2be5e5f0d6de88d6bc46acf9d010000006b483045022100d4b223b8afdbfdc25ff309df687b6f876bd3599a55ddf70d5237d69d40a787ad02202da836572fa5680e06b521e810551f697ca1cb3afdeb7e7f04843c48c00bcfac012102e340667e5ceb1ab2a766bcc820bd7c4529fbcc12d7547f4cd6c2095293de5061ffffffff02f0931700000000001976a9147da93643208cfaa9cca1b03aee535254cb5071e888ac9c47ec02000000001976a914f6b7965e49f86db197e95377f69c6bcb807a53da88ac00000000", "vin": [{"sequence": 4294967295, "scriptSig": {"hex": "483045022100d4b223b8afdbfdc25ff309df687b6f876bd3599a55ddf70d5237d69d40a787ad02202da836572fa5680e06b521e810551f697ca1cb3afdeb7e7f04843c48c00bcfac012102e340667e5ceb1ab2a766bcc820bd7c4529fbcc12d7547f4cd6c2095293de5061", "asm": "3045022100d4b223b8afdbfdc25ff309df687b6f876bd3599a55ddf70d5237d69d40a787ad02202da836572fa5680e06b521e810551f697ca1cb3afdeb7e7f04843c48c00bcfac[ALL] 02e340667e5ceb1ab2a766bcc820bd7c4529fbcc12d7547f4cd6c2095293de5061"}, "vout": 1, "txid": "9dcf6ac46b8de86d0d5f5ebef22d1ddacae6271ed7caa8ec5630f7467e091df8"}], "txid": "92c210e518d6f8a07874150ce453446708a3082418a23484e0097591fcb33dc0", "blocktime": 1537873282, "version": 1, "confirmations": 11484, "time": 1537873282, "locktime": 0, "vsize": 226, "size": 226}