{"hash": "325e105dd9af36da6633d008f9e3e8bc37063c3fc20b9da47c45c097f43738d2", "blockhash": "0000000000000000001cda96e906b7601b7a6fb1a3b62bca570a9e5d8f4b3de1", "vout": [{"scriptPubKey": {"reqSigs": 1, "hex": "76a914cf1c9c2e1a9e6a784d1336c350adebc7f2a7539a88ac", "addresses": ["1Kt79aBD4e7RTo3aJ9ARvvADesEc8fRFZs"], "asm": "OP_DUP OP_HASH160 cf1c9c2e1a9e6a784d1336c350adebc7f2a7539a OP_EQUALVERIFY OP_CHECKSIG", "type": "pubkeyhash"}, "value": 0.00652705, "n": 0}, {"scriptPubKey": {"reqSigs": 1, "hex": "a91469f37500585eb5189f0a82e7967f2d1f8a8fbfa587", "addresses": ["3BMEXNqpMfNnp8qGiiU9kW4c3LV8AQS9En"], "asm": "OP_HASH160 69f37500585eb5189f0a82e7967f2d1f8a8fbfa5 OP_EQUAL", "type": "scripthash"}, "value": 0.1104, "n": 1}, {"scriptPubKey": {"reqSigs": 1, "hex": "a91469f3769b6e44a5b1d4849f5e5c84b58c0b1f9e1387", "addresses": ["3BMEXp7xXKpTJ5L3AYfQexJQTtnhtcuapz"], "asm": "OP_HASH160 69f3769b6e44a5b1d4849f5e5c84b58c0b1f9e13 OP_EQUAL", "type": "scripthash"}, "value": 0.347078, "n": 2}, {"scriptPubKey": {"reqSigs": 1, "hex": "76a91423d0d57d9b17bbda19946fbdf9cf850b81e0f7cd88ac", "addresses": ["14GNpkZqCmYUBMTSajBkjU1LmWQBohqFAw"], "asm": "OP_DUP OP_HASH160 23d0d57d9b17bbda19946fbdf9cf850b81e0f7cd OP_EQUALVERIFY OP_CHECKSIG", "type": "pubkeyhash"}, "value": 0.025, "n": 3}, {"scriptPubKey": {"reqSigs": 1, "hex": "0020701a8d401c84fb13e6baf169d59684e17abd9fa216c8cc5b9fc63d622ff8c58d", "addresses": ["bc1qwqdg6squsna38e46795at95yu9atm8azzmyvckulcc7kytlcckxswvvzej"], "asm": "0 701a8d401c84fb13e6baf169d59684e17abd9fa216c8cc5b9fc63d622ff8c58d", "type": "witness_v0_scripthash"}, "value": 2.51549495, "n": 4}], "hex": "0100000000010135de52583cb2a5ca198739884be91b1f1ebd34b6eff54c1506bd592628795f6e0400000000ffffffff05a1f50900000000001976a914cf1c9c2e1a9e6a784d1336c350adebc7f2a7539a88ac0075a8000000000017a91469f37500585eb5189f0a82e7967f2d1f8a8fbfa587589911020000000017a91469f3769b6e44a5b1d4849f5e5c84b58c0b1f9e1387a0252600000000001976a91423d0d57d9b17bbda19946fbdf9cf850b81e0f7cd88ac3757fe0e00000000220020701a8d401c84fb13e6baf169d59684e17abd9fa216c8cc5b9fc63d622ff8c58d0400483045022100a388d73cf5342ff7cf88943627c1a6afa3d2fa7ac0d9f533239c3664bfdb27a1022056c4f359339265d7f2fbd2919ac57c33258bcc917904414eb9b1d820a3741705014830450221008a013bb836ba86517a97f72fa671c3eeae1340f58432517c99cd1a5b3ea84bbc02204e26a6e3ab62483255a905d7e03e0533bfde1aff059f69120cfb4b1d3a34c916016952210375e00eb72e29da82b89367947f29ef34afb75e8654f6ea368e0acdfd92976b7c2103a1b26313f430c4b15bb1fdce663207659d8cac749a0e53d70eff01874496feff2103c96d495bfdd5ba4145e3e046fee45e84a8a48ad05bd8dbb395c011a32cf9f88053ae00000000", "vin": [{"txinwitness": ["", "3045022100a388d73cf5342ff7cf88943627c1a6afa3d2fa7ac0d9f533239c3664bfdb27a1022056c4f359339265d7f2fbd2919ac57c33258bcc917904414eb9b1d820a374170501", "30450221008a013bb836ba86517a97f72fa671c3eeae1340f58432517c99cd1a5b3ea84bbc02204e26a6e3ab62483255a905d7e03e0533bfde1aff059f69120cfb4b1d3a34c91601", "52210375e00eb72e29da82b89367947f29ef34afb75e8654f6ea368e0acdfd92976b7c2103a1b26313f430c4b15bb1fdce663207659d8cac749a0e53d70eff01874496feff2103c96d495bfdd5ba4145e3e046fee45e84a8a48ad05bd8dbb395c011a32cf9f88053ae"], "sequence": 4294967295, "scriptSig": {"hex": "", "asm": ""}, "vout": 4, "txid": "6e5f79282659bd06154cf5efb634bd1e1f1be94b88398719caa5b23c5852de35"}], "txid": "92c4812eb14a8482074a76bfbe278a78681609d7b0c9e61a56e537306309295b", "blocktime": 1537873282, "version": 1, "confirmations": 11480, "time": 1537873282, "locktime": 0, "vsize": 290, "size": 482}