{"hash": "92cb25c549e7e941651ceb3739dc6d44655f2cbaf2b3c19083ef9b31ab510e32", "blockhash": "0000000000000000000baef3f32e3676a92c3b2e5da21b426e4f302fc371ce76", "vout": [{"scriptPubKey": {"reqSigs": 1, "hex": "76a9144b927bb7a1b6fa79fc4777940929b19c0b4ec70a88ac", "addresses": ["17tbADxPhHJDG9Fkqmh4UwMyxUEARM5ica"], "asm": "OP_DUP OP_HASH160 4b927bb7a1b6fa79fc4777940929b19c0b4ec70a OP_EQUALVERIFY OP_CHECKSIG", "type": "pubkeyhash"}, "value": 0.01368964, "n": 0}, {"scriptPubKey": {"type": "nulldata", "hex": "6a4c50000078310001d75e35aaba5f9ef370ee0d8227b7256b4774d339f6019d6ddc0f1b8ff117e83132d6b50bbefcaa751ee9699ba1f85baa1f870613f3f75e0aa540bc9a9526289ac0f6612cd74e33776ee4", "asm": "OP_RETURN 000078310001d75e35aaba5f9ef370ee0d8227b7256b4774d339f6019d6ddc0f1b8ff117e83132d6b50bbefcaa751ee9699ba1f85baa1f870613f3f75e0aa540bc9a9526289ac0f6612cd74e33776ee4"}, "value": 0.0, "n": 1}], "hex": "01000000019050c593a4d1941fd07c86129a7d1130894764954ffc462f2a72de83aaa5a157010000006b483045022100b9fd032be3c54c5c2158e8f0d5bf132f3af2067f3a17215b12545727c5b2724a022036f710ec0721240b6b9d76cdddbfad9d557b11d06df1c84d9219495d9080166d0121027a39592af67f65af374874cf164c16ea4a04db31ed65e009c9a947026c23ae63ffffffff0284e31400000000001976a9144b927bb7a1b6fa79fc4777940929b19c0b4ec70a88ac0000000000000000536a4c50000078310001d75e35aaba5f9ef370ee0d8227b7256b4774d339f6019d6ddc0f1b8ff117e83132d6b50bbefcaa751ee9699ba1f85baa1f870613f3f75e0aa540bc9a9526289ac0f6612cd74e33776ee400000000", "vin": [{"sequence": 4294967295, "scriptSig": {"hex": "483045022100b9fd032be3c54c5c2158e8f0d5bf132f3af2067f3a17215b12545727c5b2724a022036f710ec0721240b6b9d76cdddbfad9d557b11d06df1c84d9219495d9080166d0121027a39592af67f65af374874cf164c16ea4a04db31ed65e009c9a947026c23ae63", "asm": "3045022100b9fd032be3c54c5c2158e8f0d5bf132f3af2067f3a17215b12545727c5b2724a022036f710ec0721240b6b9d76cdddbfad9d557b11d06df1c84d9219495d9080166d[ALL] 027a39592af67f65af374874cf164c16ea4a04db31ed65e009c9a947026c23ae63"}, "vout": 1, "txid": "57a1a5aa83de722a2f46fc4f9564478930117d9a12867cd01f94d1a493c55090"}], "txid": "92cb25c549e7e941651ceb3739dc6d44655f2cbaf2b3c19083ef9b31ab510e32", "blocktime": 1537876114, "version": 1, "confirmations": 11462, "time": 1537876114, "locktime": 0, "vsize": 284, "size": 284}