{"hash": "92d357411475754ed5b7c07541393c930905f7e6496fa666c960ff6da872a9a7", "blockhash": "0000000000000000001e0dab787dd257d1dbfcb92a98c2207d5e1078be1f4165", "vout": [{"scriptPubKey": {"reqSigs": 1, "hex": "a91489a328faee5956c04a116ffc6805947552c9f37287", "addresses": ["3EEmxPKEU4DTR8guugzRn44ajhtP62BuDb"], "asm": "OP_HASH160 89a328faee5956c04a116ffc6805947552c9f372 OP_EQUAL", "type": "scripthash"}, "value": 0.23452451, "n": 0}, {"scriptPubKey": {"reqSigs": 1, "hex": "0014e36239bab70d23685888c4e9591a6127c88e947f", "addresses": ["bc1qud3rnw4hp53kskygcn54jxnpylyga9rl88erj7"], "asm": "0 e36239bab70d23685888c4e9591a6127c88e947f", "type": "witness_v0_keyhash"}, "value": 0.03250125, "n": 1}], "hex": "0100000001b082dbcb99b2e8c9836e9b1e56e7f1c1e05788edb8da9b4d7acf141800036b61010000006a4730440220210e3068befec5f64605d82ca6a09e3565ac5d8b6969fe25e9b7498fac490ea3022075a4bda619bcdf1577a75c8ca6065c9827332e745befef9db20ac026ebfd43a7012102ef7ee8ce5677c74f284baebdbe314299cc9641a0017352294a81093796c8aac8ffffffff0223db65010000000017a91489a328faee5956c04a116ffc6805947552c9f37287cd97310000000000160014e36239bab70d23685888c4e9591a6127c88e947f00000000", "vin": [{"sequence": 4294967295, "scriptSig": {"hex": "4730440220210e3068befec5f64605d82ca6a09e3565ac5d8b6969fe25e9b7498fac490ea3022075a4bda619bcdf1577a75c8ca6065c9827332e745befef9db20ac026ebfd43a7012102ef7ee8ce5677c74f284baebdbe314299cc9641a0017352294a81093796c8aac8", "asm": "30440220210e3068befec5f64605d82ca6a09e3565ac5d8b6969fe25e9b7498fac490ea3022075a4bda619bcdf1577a75c8ca6065c9827332e745befef9db20ac026ebfd43a7[ALL] 02ef7ee8ce5677c74f284baebdbe314299cc9641a0017352294a81093796c8aac8"}, "vout": 1, "txid": "616b03001814cf7a4d9bdab8ed8857e0c1f1e7561e9b6e83c9e8b299cbdb82b0"}], "txid": "92d357411475754ed5b7c07541393c930905f7e6496fa666c960ff6da872a9a7", "blocktime": 1537872475, "version": 1, "confirmations": 11486, "time": 1537872475, "locktime": 0, "vsize": 220, "size": 220}