{"hash": "92d9b3610c6013c8e810a6b7441249967028e6c427698378d6a05028fdc9c6fd", "blockhash": "0000000000000000001f76057863aec43deb6fa401d9628bb513d65a8098bfab", "vout": [{"scriptPubKey": {"reqSigs": 1, "hex": "a914d16407cdf33ebd903509adf1c7b2d4de35800a7987", "addresses": ["3LnAysnHC1VCqmCMRPat2DCLHgTbqw3Gzi"], "asm": "OP_HASH160 d16407cdf33ebd903509adf1c7b2d4de35800a79 OP_EQUAL", "type": "scripthash"}, "value": 0.03334743, "n": 0}, {"scriptPubKey": {"reqSigs": 1, "hex": "76a914bf83d572e99a2b648698e95117f7af3582ce4dda88ac", "addresses": ["1JTdzcUGdEFNm17fCatzZLkc39QBNPLKvC"], "asm": "OP_DUP OP_HASH160 bf83d572e99a2b648698e95117f7af3582ce4dda OP_EQUALVERIFY OP_CHECKSIG", "type": "pubkeyhash"}, "value": 20.19797173, "n": 1}], "hex": "02000000019f952a873171f276ad997d1f23126959755c88ebabc10b0faef4ab4885c5bc06010000006a4730440220556c3d112b9dcffefe59bd31ae4a10b5d51183a25b266b0a0d165a94a231d39102202133efe0f3c0b5d193d20413addf0e4a0cee3ed6b1d76ad39ff412fdd972f8160121023b459715452c5af1ba35faf3c8328d04879fd1aa5d66dd8b862cc4145ead7a77feffffff0257e232000000000017a914d16407cdf33ebd903509adf1c7b2d4de35800a7987b5a86378000000001976a914bf83d572e99a2b648698e95117f7af3582ce4dda88ac14490800", "vin": [{"sequence": 4294967294, "scriptSig": {"hex": "4730440220556c3d112b9dcffefe59bd31ae4a10b5d51183a25b266b0a0d165a94a231d39102202133efe0f3c0b5d193d20413addf0e4a0cee3ed6b1d76ad39ff412fdd972f8160121023b459715452c5af1ba35faf3c8328d04879fd1aa5d66dd8b862cc4145ead7a77", "asm": "30440220556c3d112b9dcffefe59bd31ae4a10b5d51183a25b266b0a0d165a94a231d39102202133efe0f3c0b5d193d20413addf0e4a0cee3ed6b1d76ad39ff412fdd972f816[ALL] 023b459715452c5af1ba35faf3c8328d04879fd1aa5d66dd8b862cc4145ead7a77"}, "vout": 1, "txid": "06bcc58548abf4ae0f0bc1abeb885c75596912231f7d99ad76f27131872a959f"}], "txid": "92d9b3610c6013c8e810a6b7441249967028e6c427698378d6a05028fdc9c6fd", "blocktime": 1537873891, "version": 2, "confirmations": 11474, "time": 1537873891, "locktime": 542996, "vsize": 223, "size": 223}