{"hash": "92dcfd4ecd292ab76d2e8545122c1044f0d6858fd5e568b98b695a52b885b6ff", "blockhash": "0000000000000000000baef3f32e3676a92c3b2e5da21b426e4f302fc371ce76", "vout": [{"scriptPubKey": {"type": "nulldata", "hex": "6a4c50000078080001990d277908cce9c0333419ac702940d64fa54d8eb2d19ed074892d00f8e85f129d8a3a213c51dc8285590798f4745baa1ade0613b2d236377c00bc9a9526289ac0f6612cd74e33776ee4", "asm": "OP_RETURN 000078080001990d277908cce9c0333419ac702940d64fa54d8eb2d19ed074892d00f8e85f129d8a3a213c51dc8285590798f4745baa1ade0613b2d236377c00bc9a9526289ac0f6612cd74e33776ee4"}, "value": 0.0, "n": 0}, {"scriptPubKey": {"reqSigs": 1, "hex": "76a914dd45820475a6c6d5ceb2e2d4b228d90f12f076c188ac", "addresses": ["1MAybtRxeAAWD8SQ5Tf2Y24ipsU51YxMHE"], "asm": "OP_DUP OP_HASH160 dd45820475a6c6d5ceb2e2d4b228d90f12f076c1 OP_EQUALVERIFY OP_CHECKSIG", "type": "pubkeyhash"}, "value": 0.01380364, "n": 1}], "hex": "01000000011b6d08bdeb946efe9494998bdf33518015b6952f1bb285e20c7ab3cb65a0e7ab000000006a47304402201c5f3cfdb4fceec14d057270dcee76447f4b06abfee809147247694aae4d665b02207d6ca1acc913e24e8bf07aab7179fe9b257a14eee9ad54f5652e089499eb00360121031b7ae79ed9951db16fe8aa3d86ca43c5d04837951e33e68a4559d9b355802dd4ffffffff020000000000000000536a4c50000078080001990d277908cce9c0333419ac702940d64fa54d8eb2d19ed074892d00f8e85f129d8a3a213c51dc8285590798f4745baa1ade0613b2d236377c00bc9a9526289ac0f6612cd74e33776ee40c101500000000001976a914dd45820475a6c6d5ceb2e2d4b228d90f12f076c188ac00000000", "vin": [{"sequence": 4294967295, "scriptSig": {"hex": "47304402201c5f3cfdb4fceec14d057270dcee76447f4b06abfee809147247694aae4d665b02207d6ca1acc913e24e8bf07aab7179fe9b257a14eee9ad54f5652e089499eb00360121031b7ae79ed9951db16fe8aa3d86ca43c5d04837951e33e68a4559d9b355802dd4", "asm": "304402201c5f3cfdb4fceec14d057270dcee76447f4b06abfee809147247694aae4d665b02207d6ca1acc913e24e8bf07aab7179fe9b257a14eee9ad54f5652e089499eb0036[ALL] 031b7ae79ed9951db16fe8aa3d86ca43c5d04837951e33e68a4559d9b355802dd4"}, "vout": 0, "txid": "abe7a065cbb37a0ce285b21b2f95b615805133df8b999494fe6e94ebbd086d1b"}], "txid": "92dcfd4ecd292ab76d2e8545122c1044f0d6858fd5e568b98b695a52b885b6ff", "blocktime": 1537876114, "version": 1, "confirmations": 11460, "time": 1537876114, "locktime": 0, "vsize": 283, "size": 283}