{"hash": "92dcce1af0a226076dd80569c3985154a7738bb8d05fe53e305f1c08b0f32887", "blockhash": "0000000000000000001f76057863aec43deb6fa401d9628bb513d65a8098bfab", "vout": [{"scriptPubKey": {"reqSigs": 1, "hex": "76a914f50c675968ee3cd8776c93d1388f821bfbd6d16188ac", "addresses": ["1PLhQpkERBeKbduJeMNgGH4uFN9Noqn1AL"], "asm": "OP_DUP OP_HASH160 f50c675968ee3cd8776c93d1388f821bfbd6d161 OP_EQUALVERIFY OP_CHECKSIG", "type": "pubkeyhash"}, "value": 0.01083693, "n": 0}, {"scriptPubKey": {"reqSigs": 1, "hex": "76a914738bcca062c1d98dd6209e354c190003ef43785688ac", "addresses": ["1BXxBVHcvRfKBogVLkKubFYNbJwZVcJqwp"], "asm": "OP_DUP OP_HASH160 738bcca062c1d98dd6209e354c190003ef437856 OP_EQUALVERIFY OP_CHECKSIG", "type": "pubkeyhash"}, "value": 0.03872324, "n": 1}], "hex": "0200000004baa18dc65f44146751fd93f6d120b47afe0fbde5e32c76c9eed9cc2dbfc5a924010000006a47304402203c9effccda2ba65a699d48580b7e3665d06427b8911d69eee31989f3c4226ce402202ef3daeb245d148d40abbb5b01aa8b459be43e9fafe70723cb3f3c86bec32498012102267b58e1fc94da438dbeff0459b8b86320860110b95e52dc05aa86365b14cacbfeffffffa79b2e10d2c22ca8e190c03ed8f5193c06aad28be410b4b6236eb42f90ddf818020000006a47304402204ef9d769b06219067b8dfb56e97a4ae77796b8d3732c21893f19708a3f52afcb022012ff95303101e4ead1c10839e557903c02ba4f9b80dc94b27749f5165adba09d012102b57f82e8e5c4a492286a7eaa160cc7c7cb7bff0231279967e011bf6892ed4e55feffffff749e39b52a9a6cb378534bf7bc0cc3ebd8c0bcecbba5906846725cda697cd0bd010000006a47304402206d7373b2a1116d373e72fcb7723fb9fdd1ffe93da64888424900eb26b99d0920022043a35f5efdbfc0b40a712042ff5a983e84ecb403b99e1ed39229c45b679ccd90012103f8c69249e36b70430e33bbaafe2901ef152ad91e8575e226033e908bf219e93ffeffffff3322cd380774caaed1997a5ca4a95004225eb4b07bd7c7a864a31438bcf726e4000000006b483045022100955b6b54f918599359244aff8349c91eb081ea6501ed0c1cd25fd9fada0a5262022070f94392de2809f11033489f11bce7bed60fb803b56a78006dbcdeae01d952cb01210347088c93cf47f67f702fdc7a61b70d270ba5767a9fb36ea2abd796c4a5ef2aa9feffffff022d891000000000001976a914f50c675968ee3cd8776c93d1388f821bfbd6d16188ac44163b00000000001976a914738bcca062c1d98dd6209e354c190003ef43785688ac13490800", "vin": [{"sequence": 4294967294, "scriptSig": {"hex": "47304402203c9effccda2ba65a699d48580b7e3665d06427b8911d69eee31989f3c4226ce402202ef3daeb245d148d40abbb5b01aa8b459be43e9fafe70723cb3f3c86bec32498012102267b58e1fc94da438dbeff0459b8b86320860110b95e52dc05aa86365b14cacb", "asm": "304402203c9effccda2ba65a699d48580b7e3665d06427b8911d69eee31989f3c4226ce402202ef3daeb245d148d40abbb5b01aa8b459be43e9fafe70723cb3f3c86bec32498[ALL] 02267b58e1fc94da438dbeff0459b8b86320860110b95e52dc05aa86365b14cacb"}, "vout": 1, "txid": "24a9c5bf2dccd9eec9762ce3e5bd0ffe7ab420d1f693fd516714445fc68da1ba"}, {"sequence": 4294967294, "scriptSig": {"hex": "47304402204ef9d769b06219067b8dfb56e97a4ae77796b8d3732c21893f19708a3f52afcb022012ff95303101e4ead1c10839e557903c02ba4f9b80dc94b27749f5165adba09d012102b57f82e8e5c4a492286a7eaa160cc7c7cb7bff0231279967e011bf6892ed4e55", "asm": "304402204ef9d769b06219067b8dfb56e97a4ae77796b8d3732c21893f19708a3f52afcb022012ff95303101e4ead1c10839e557903c02ba4f9b80dc94b27749f5165adba09d[ALL] 02b57f82e8e5c4a492286a7eaa160cc7c7cb7bff0231279967e011bf6892ed4e55"}, "vout": 2, "txid": "18f8dd902fb46e23b6b410e48bd2aa063c19f5d83ec090e1a82cc2d2102e9ba7"}, {"sequence": 4294967294, "scriptSig": {"hex": "47304402206d7373b2a1116d373e72fcb7723fb9fdd1ffe93da64888424900eb26b99d0920022043a35f5efdbfc0b40a712042ff5a983e84ecb403b99e1ed39229c45b679ccd90012103f8c69249e36b70430e33bbaafe2901ef152ad91e8575e226033e908bf219e93f", "asm": "304402206d7373b2a1116d373e72fcb7723fb9fdd1ffe93da64888424900eb26b99d0920022043a35f5efdbfc0b40a712042ff5a983e84ecb403b99e1ed39229c45b679ccd90[ALL] 03f8c69249e36b70430e33bbaafe2901ef152ad91e8575e226033e908bf219e93f"}, "vout": 1, "txid": "bdd07c69da5c72466890a5bbecbcc0d8ebc30cbcf74b5378b36c9a2ab5399e74"}, {"sequence": 4294967294, "scriptSig": {"hex": "483045022100955b6b54f918599359244aff8349c91eb081ea6501ed0c1cd25fd9fada0a5262022070f94392de2809f11033489f11bce7bed60fb803b56a78006dbcdeae01d952cb01210347088c93cf47f67f702fdc7a61b70d270ba5767a9fb36ea2abd796c4a5ef2aa9", "asm": "3045022100955b6b54f918599359244aff8349c91eb081ea6501ed0c1cd25fd9fada0a5262022070f94392de2809f11033489f11bce7bed60fb803b56a78006dbcdeae01d952cb[ALL] 0347088c93cf47f67f702fdc7a61b70d270ba5767a9fb36ea2abd796c4a5ef2aa9"}, "vout": 0, "txid": "e426f7bc3814a364a8c7d77bb0b45e220450a9a45c7a99d1aeca740738cd2233"}], "txid": "92dcce1af0a226076dd80569c3985154a7738bb8d05fe53e305f1c08b0f32887", "blocktime": 1537873891, "version": 2, "confirmations": 11478, "time": 1537873891, "locktime": 542995, "vsize": 667, "size": 667}