{"hash": "92dd1672987f5f2758799d50b61c506e9d46cb7bf733149e5627f4afb798c6de", "blockhash": "00000000000000000017f5eb5941039fbcee6240d03bc1f2f8e35350df66a1d8", "vout": [{"scriptPubKey": {"reqSigs": 1, "hex": "76a91420ee549946ff3e428eb6b3f4b0078e911f5ad91388ac", "addresses": ["14188dWfTkzgLQWjeGismR9z2eRzZBG1BC"], "asm": "OP_DUP OP_HASH160 20ee549946ff3e428eb6b3f4b0078e911f5ad913 OP_EQUALVERIFY OP_CHECKSIG", "type": "pubkeyhash"}, "value": 0.0071855, "n": 0}], "hex": "010000000139cacc92723424de19eb1f19b068dca992479f61b267b0b674fae4becf3dde33100000006a473044022064f4958717d890e83cce8992513d4f96679ff8b07a8cc706d8c5e3da9fdf311302202786af857651d6fcf39a7f1ba1a6387136232b435a2796d5606041faf423d602012102e90fd3fcf628ea73cd41390a8fd80ff3140a0564f5816238afe8eb535683e81fffffffff01d6f60a00000000001976a91420ee549946ff3e428eb6b3f4b0078e911f5ad91388ac00000000", "vin": [{"sequence": 4294967295, "scriptSig": {"hex": "473044022064f4958717d890e83cce8992513d4f96679ff8b07a8cc706d8c5e3da9fdf311302202786af857651d6fcf39a7f1ba1a6387136232b435a2796d5606041faf423d602012102e90fd3fcf628ea73cd41390a8fd80ff3140a0564f5816238afe8eb535683e81f", "asm": "3044022064f4958717d890e83cce8992513d4f96679ff8b07a8cc706d8c5e3da9fdf311302202786af857651d6fcf39a7f1ba1a6387136232b435a2796d5606041faf423d602[ALL] 02e90fd3fcf628ea73cd41390a8fd80ff3140a0564f5816238afe8eb535683e81f"}, "vout": 16, "txid": "33de3dcfbee4fa74b6b067b2619f4792a9dc68b0191feb19de24347292ccca39"}], "txid": "92dd1672987f5f2758799d50b61c506e9d46cb7bf733149e5627f4afb798c6de", "blocktime": 1537874412, "version": 1, "confirmations": 11467, "time": 1537874412, "locktime": 0, "vsize": 191, "size": 191}