{"hash": "92df9f71ef890ede7581146957c10cdf40acc72906137ca7ff4f006ade8cf4ee", "blockhash": "00000000000000000024a2167bbff67b0be802c0b01cdd79e6331c2be6459f87", "vout": [{"scriptPubKey": {"type": "nulldata", "hex": "6a4c500000777c0001b5e35f1de28bd9246c8a4ea5bcbefa6b8351586b4e86aeaeacb577c031fc188e23a49bea01f4b5f926be4d26c66a5baa0a0d0614ac97a78d2db71d100759d4ba30d2c37bb011d97e02cf", "asm": "OP_RETURN 0000777c0001b5e35f1de28bd9246c8a4ea5bcbefa6b8351586b4e86aeaeacb577c031fc188e23a49bea01f4b5f926be4d26c66a5baa0a0d0614ac97a78d2db71d100759d4ba30d2c37bb011d97e02cf"}, "value": 0.0, "n": 0}, {"scriptPubKey": {"reqSigs": 1, "hex": "76a91490cc032fe89fd434dd96d37ba0306b05366a268788ac", "addresses": ["1ECchf7UL69GRrSxrrfnutg5MQZZSYBy6a"], "asm": "OP_DUP OP_HASH160 90cc032fe89fd434dd96d37ba0306b05366a2687 OP_EQUALVERIFY OP_CHECKSIG", "type": "pubkeyhash"}, "value": 0.00646761, "n": 1}], "hex": "0100000001c41a6726ea8f29cd5b400493537908b0c47795a912ad4b93a23bc04d787e84ad000000006b483045022100876b728494c0f9e017fc1617b023fbae32e3fbe481f2e4af74100e55f335a52402205774774bc43837cb969cf716fdbbe71198ae3a0ca9dc939ad107b4cf05c9d1da0121029f93b84ae676215285f0f7b86a210d59893660ae34b41e6311a7582ab54bbd7dffffffff020000000000000000536a4c500000777c0001b5e35f1de28bd9246c8a4ea5bcbefa6b8351586b4e86aeaeacb577c031fc188e23a49bea01f4b5f926be4d26c66a5baa0a0d0614ac97a78d2db71d100759d4ba30d2c37bb011d97e02cf69de0900000000001976a91490cc032fe89fd434dd96d37ba0306b05366a268788ac00000000", "vin": [{"sequence": 4294967295, "scriptSig": {"hex": "483045022100876b728494c0f9e017fc1617b023fbae32e3fbe481f2e4af74100e55f335a52402205774774bc43837cb969cf716fdbbe71198ae3a0ca9dc939ad107b4cf05c9d1da0121029f93b84ae676215285f0f7b86a210d59893660ae34b41e6311a7582ab54bbd7d", "asm": "3045022100876b728494c0f9e017fc1617b023fbae32e3fbe481f2e4af74100e55f335a52402205774774bc43837cb969cf716fdbbe71198ae3a0ca9dc939ad107b4cf05c9d1da[ALL] 029f93b84ae676215285f0f7b86a210d59893660ae34b41e6311a7582ab54bbd7d"}, "vout": 0, "txid": "ad847e784dc03ba2934bad12a99577c4b00879539304405bcd298fea26671ac4"}], "txid": "92df9f71ef890ede7581146957c10cdf40acc72906137ca7ff4f006ade8cf4ee", "blocktime": 1537870564, "version": 1, "confirmations": 11515, "time": 1537870564, "locktime": 0, "vsize": 284, "size": 284}