{"hash": "92e1eaa1283501662af57cfcce76054e92c70c3a0ca58544a9e228e0976028bb", "blockhash": "0000000000000000000dcc0f55137456b1a82d3642486a52398922ac4d620174", "vout": [{"scriptPubKey": {"reqSigs": 1, "hex": "001438b73b1fa11f10e95c65b055dc68aa97565c7783", "addresses": ["bc1q8zmnk8aprugwjhr9kp2ac692jat9caurph64ek"], "asm": "0 38b73b1fa11f10e95c65b055dc68aa97565c7783", "type": "witness_v0_keyhash"}, "value": 4.059e-05, "n": 0}, {"scriptPubKey": {"reqSigs": 1, "hex": "a9149aab0521b3b445372d884bf03ec8ebe92cd6906887", "addresses": ["3FnprmRVPpBWVT5S5TaUzngotVwCGvYVcZ"], "asm": "OP_HASH160 9aab0521b3b445372d884bf03ec8ebe92cd69068 OP_EQUAL", "type": "scripthash"}, "value": 0.00364162, "n": 1}], "hex": "0100000001b662435d2adf766b16c17b2d0f92626be5d0a223a608ecb5ac7096db0460c1562c0000006a47304402206cbf4eb2908593272bed8fd3be33f68b3c13fd14ca97b2d75e512f0e038a8ef602200f1cea52bf1bed05585da550372f58306a2ea461fdaf2126777bea0e205aed570121035f46cbff70572b9a0eff640a4e050645276b80730f3839c77dcf0436172504b6ffffffff02db0f00000000000016001438b73b1fa11f10e95c65b055dc68aa97565c7783828e05000000000017a9149aab0521b3b445372d884bf03ec8ebe92cd690688700000000", "vin": [{"sequence": 4294967295, "scriptSig": {"hex": "47304402206cbf4eb2908593272bed8fd3be33f68b3c13fd14ca97b2d75e512f0e038a8ef602200f1cea52bf1bed05585da550372f58306a2ea461fdaf2126777bea0e205aed570121035f46cbff70572b9a0eff640a4e050645276b80730f3839c77dcf0436172504b6", "asm": "304402206cbf4eb2908593272bed8fd3be33f68b3c13fd14ca97b2d75e512f0e038a8ef602200f1cea52bf1bed05585da550372f58306a2ea461fdaf2126777bea0e205aed57[ALL] 035f46cbff70572b9a0eff640a4e050645276b80730f3839c77dcf0436172504b6"}, "vout": 44, "txid": "56c16004db9670acb5ec08a623a2d0e56b62920f2d7bc1166b76df2a5d4362b6"}], "txid": "92e1eaa1283501662af57cfcce76054e92c70c3a0ca58544a9e228e0976028bb", "blocktime": 1537870268, "version": 1, "confirmations": 11518, "time": 1537870268, "locktime": 0, "vsize": 220, "size": 220}