{"hash": "4d0ef8a700f0adee431cbc5ceb7bcfa008a4ddc8c387fe84ef0c9b68f197d0a7", "blockhash": "0000000000000000001f0ddff1eddb255c1121bcd4da4f1bc9a0da00cae72433", "vout": [{"scriptPubKey": {"reqSigs": 1, "hex": "a914c333f2f0b081fdead38ad6fa8f98f00341f0eafa87", "addresses": ["3KV9vRrvgMR1uDmG7ppx3smN989nAW7Gf2"], "asm": "OP_HASH160 c333f2f0b081fdead38ad6fa8f98f00341f0eafa OP_EQUAL", "type": "scripthash"}, "value": 8.44012528, "n": 0}, {"scriptPubKey": {"reqSigs": 1, "hex": "a914fd90f468a343c403103a19e04de16264df62ee4587", "addresses": ["3QokXhzCzmgBXE8uo15NBYG1Yc6j1s66kP"], "asm": "OP_HASH160 fd90f468a343c403103a19e04de16264df62ee45 OP_EQUAL", "type": "scripthash"}, "value": 0.01921858, "n": 1}], "hex": "0200000000010146c25effc1cf00044e46cac9f4292dd963c7bda5d1900e48af88f90e992bbef100000000171600146c16ae7d06e610aeeb712061e6f351a2c17098eafeffffff02f09b4e320000000017a914c333f2f0b081fdead38ad6fa8f98f00341f0eafa8742531d000000000017a914fd90f468a343c403103a19e04de16264df62ee45870247304402201200db64e9d59be3b678bf071a256e2e9ccd9ef1dd1d175691855239e1c1b20d02205384f6e8c288566b788251e2e03137afdc99878dcb7a416001731e852b5da5d2012102b224017d063678d40ca6dff64a38953726d4450e43884b11d87adf42709e72e811490800", "vin": [{"txinwitness": ["304402201200db64e9d59be3b678bf071a256e2e9ccd9ef1dd1d175691855239e1c1b20d02205384f6e8c288566b788251e2e03137afdc99878dcb7a416001731e852b5da5d201", "02b224017d063678d40ca6dff64a38953726d4450e43884b11d87adf42709e72e8"], "sequence": 4294967294, "scriptSig": {"hex": "1600146c16ae7d06e610aeeb712061e6f351a2c17098ea", "asm": "00146c16ae7d06e610aeeb712061e6f351a2c17098ea"}, "vout": 0, "txid": "f1be2b990ef988af480e90d1a5bdc763d92d29f4c9ca464e0400cfc1ff5ec246"}], "txid": "92e576ddb8fe57a80d736956655d877139ce1823f66b06d1afc0c8c27aa5fb67", "blocktime": 1537872018, "version": 2, "confirmations": 11489, "time": 1537872018, "locktime": 542993, "vsize": 166, "size": 247}