{"hash": "92e688c76b69ed0f4e43faf4cf0c90479c009a488820af9b6729bf0a26b77d93", "blockhash": "0000000000000000001cda96e906b7601b7a6fb1a3b62bca570a9e5d8f4b3de1", "vout": [{"scriptPubKey": {"reqSigs": 1, "hex": "a9145a4d45eb8cb963113733ef5668154578ffdbfcac87", "addresses": ["39vVJqduVyPMcjuajzdqqFAWM7byDcq3YJ"], "asm": "OP_HASH160 5a4d45eb8cb963113733ef5668154578ffdbfcac OP_EQUAL", "type": "scripthash"}, "value": 0.019, "n": 0}, {"scriptPubKey": {"reqSigs": 1, "hex": "76a914edc12788de6ce7aaae92f556ebb5c1f9b07b015888ac", "addresses": ["1Ng8Y51F8QbQFR4eb7Db5GJJTwVHJHGEpe"], "asm": "OP_DUP OP_HASH160 edc12788de6ce7aaae92f556ebb5c1f9b07b0158 OP_EQUALVERIFY OP_CHECKSIG", "type": "pubkeyhash"}, "value": 0.0025361, "n": 1}], "hex": "01000000015493f7d5ec40ee963caacd0d97ca81fad00becf1c6d6566074446d9288b44356010000006b483045022100ae77f1eb92edfe0d15213334ff315a039d33b27aaf86d176ab20d7e75bb30bb802203c8bec90f4e4f6a738bcbf20f6604630a7df340498d76cbafde565cb365ea8b2012102b65cb1d83d2e63ba3af6326b4a166bfa020f66922c78f6c7d108d3e87d402ea1ffffffff02e0fd1c000000000017a9145a4d45eb8cb963113733ef5668154578ffdbfcac87aade0300000000001976a914edc12788de6ce7aaae92f556ebb5c1f9b07b015888ac00000000", "vin": [{"sequence": 4294967295, "scriptSig": {"hex": "483045022100ae77f1eb92edfe0d15213334ff315a039d33b27aaf86d176ab20d7e75bb30bb802203c8bec90f4e4f6a738bcbf20f6604630a7df340498d76cbafde565cb365ea8b2012102b65cb1d83d2e63ba3af6326b4a166bfa020f66922c78f6c7d108d3e87d402ea1", "asm": "3045022100ae77f1eb92edfe0d15213334ff315a039d33b27aaf86d176ab20d7e75bb30bb802203c8bec90f4e4f6a738bcbf20f6604630a7df340498d76cbafde565cb365ea8b2[ALL] 02b65cb1d83d2e63ba3af6326b4a166bfa020f66922c78f6c7d108d3e87d402ea1"}, "vout": 1, "txid": "5643b488926d44746056d6c6f1ec0bd0fa81ca970dcdaa3c96ee40ecd5f79354"}], "txid": "92e688c76b69ed0f4e43faf4cf0c90479c009a488820af9b6729bf0a26b77d93", "blocktime": 1537873282, "version": 1, "confirmations": 11484, "time": 1537873282, "locktime": 0, "vsize": 224, "size": 224}