{"hash": "92e7f5485909222be5d214bd6ce6165a99cff18851fb54743ec8e4be0f63d92b", "blockhash": "0000000000000000000e13cef7c366c0283d82e591d1acd082e914b08063cdf1", "vout": [{"scriptPubKey": {"type": "nulldata", "hex": "6a146f6d6e69000000000000001f000000b6ef1245c0", "asm": "OP_RETURN 6f6d6e69000000000000001f000000b6ef1245c0"}, "value": 0.0, "n": 0}, {"scriptPubKey": {"reqSigs": 1, "hex": "76a9143484963b4771bc053e3e374f926b56ae1bc1bd2f88ac", "addresses": ["15ngyGgrbkffZFJ6WGV2niGz69iS1R1nxT"], "asm": "OP_DUP OP_HASH160 3484963b4771bc053e3e374f926b56ae1bc1bd2f OP_EQUALVERIFY OP_CHECKSIG", "type": "pubkeyhash"}, "value": 5.46e-06, "n": 1}, {"scriptPubKey": {"reqSigs": 1, "hex": "76a9147f4c807b1300e10807a5ef7a7a7a5a099894f07d88ac", "addresses": ["1Cc6TokpgD1jHG1HATXij76ne5yvLWgQop"], "asm": "OP_DUP OP_HASH160 7f4c807b1300e10807a5ef7a7a7a5a099894f07d OP_EQUALVERIFY OP_CHECKSIG", "type": "pubkeyhash"}, "value": 0.02873146, "n": 2}], "hex": "0100000001ec46a354d4b93f1e36d3908fd78b1e834b984a6065afedda084e55205072252f010000006a473044022055f4354729b3c0959a1f0b3bc7b5df4c158f003176dc4da8a6f8d5ae85cebb2a02202d8f24d3027a32ffceaa8b55f52d8d1884adddfa13019548febf4112cc393b9b01210333cab3ed0f5f3412dd00d36722eb5d09a60799449fac551b831d14f51376098cfeffffff030000000000000000166a146f6d6e69000000000000001f000000b6ef1245c022020000000000001976a9143484963b4771bc053e3e374f926b56ae1bc1bd2f88ac3ad72b00000000001976a9147f4c807b1300e10807a5ef7a7a7a5a099894f07d88ac10490800", "vin": [{"sequence": 4294967294, "scriptSig": {"hex": "473044022055f4354729b3c0959a1f0b3bc7b5df4c158f003176dc4da8a6f8d5ae85cebb2a02202d8f24d3027a32ffceaa8b55f52d8d1884adddfa13019548febf4112cc393b9b01210333cab3ed0f5f3412dd00d36722eb5d09a60799449fac551b831d14f51376098c", "asm": "3044022055f4354729b3c0959a1f0b3bc7b5df4c158f003176dc4da8a6f8d5ae85cebb2a02202d8f24d3027a32ffceaa8b55f52d8d1884adddfa13019548febf4112cc393b9b[ALL] 0333cab3ed0f5f3412dd00d36722eb5d09a60799449fac551b831d14f51376098c"}, "vout": 1, "txid": "2f25725020554e08daedaf65604a984b831e8bd78f90d3361e3fb9d454a346ec"}], "txid": "92e7f5485909222be5d214bd6ce6165a99cff18851fb54743ec8e4be0f63d92b", "blocktime": 1537871767, "version": 1, "confirmations": 11491, "time": 1537871767, "locktime": 542992, "vsize": 256, "size": 256}