{"hash": "92e70280acf75ac289aecdfcad0f1ca10018c6f5e818d205f712921256299b7f", "blockhash": "0000000000000000001cda96e906b7601b7a6fb1a3b62bca570a9e5d8f4b3de1", "vout": [{"scriptPubKey": {"reqSigs": 1, "hex": "76a914a6e19660605dd01ad6caa6326d566a598a623d4f88ac", "addresses": ["1GDPQw3QNf9977XN5hb6kT3gEPkpuiAgiB"], "asm": "OP_DUP OP_HASH160 a6e19660605dd01ad6caa6326d566a598a623d4f OP_EQUALVERIFY OP_CHECKSIG", "type": "pubkeyhash"}, "value": 1.71809, "n": 0}], "hex": "01000000018e95720725eb58df8bdd5b8eb815a3a7c32106d6d63b6958f72a1301122ca2a4000000006a4730440220629545a3b12af204296baea9c09a78720c0d9459cf7c6df909c734344dc4e717022051d17464a4d154343e9d67781611b9afcdab0217543d602b97516f663a69ebda01210375be6202af560c7639fcd49e90615aa81a922eaa220b784064bb6a5cf96eb993ffffffff01e8983d0a000000001976a914a6e19660605dd01ad6caa6326d566a598a623d4f88ac00000000", "vin": [{"sequence": 4294967295, "scriptSig": {"hex": "4730440220629545a3b12af204296baea9c09a78720c0d9459cf7c6df909c734344dc4e717022051d17464a4d154343e9d67781611b9afcdab0217543d602b97516f663a69ebda01210375be6202af560c7639fcd49e90615aa81a922eaa220b784064bb6a5cf96eb993", "asm": "30440220629545a3b12af204296baea9c09a78720c0d9459cf7c6df909c734344dc4e717022051d17464a4d154343e9d67781611b9afcdab0217543d602b97516f663a69ebda[ALL] 0375be6202af560c7639fcd49e90615aa81a922eaa220b784064bb6a5cf96eb993"}, "vout": 0, "txid": "a4a22c1201132af758693bd6d60621c3a7a315b88e5bdd8bdf58eb250772958e"}], "txid": "92e70280acf75ac289aecdfcad0f1ca10018c6f5e818d205f712921256299b7f", "blocktime": 1537873282, "version": 1, "confirmations": 11480, "time": 1537873282, "locktime": 0, "vsize": 191, "size": 191}