{"hash": "572cbda5e91829a7494b10af87a6139bcbe28771660497ab2fe68fff04538635", "blockhash": "0000000000000000000e13cef7c366c0283d82e591d1acd082e914b08063cdf1", "vout": [{"scriptPubKey": {"reqSigs": 1, "hex": "0014967f5f376c23d83c1d50f36f91201a1399a3b84c", "addresses": ["bc1qjel47dmvy0vrc82s7dhezgq6zwv68wzvpr6ker"], "asm": "0 967f5f376c23d83c1d50f36f91201a1399a3b84c", "type": "witness_v0_keyhash"}, "value": 0.80934316, "n": 0}, {"scriptPubKey": {"reqSigs": 1, "hex": "a9145a9d4d9ae1d421feea9e1eb71d4c2cea6c8b1d7687", "addresses": ["39x9BRTq3GUGdjXHsjccVe1345ACe7JYgQ"], "asm": "OP_HASH160 5a9d4d9ae1d421feea9e1eb71d4c2cea6c8b1d76 OP_EQUAL", "type": "scripthash"}, "value": 0.02832844, "n": 1}], "hex": "01000000000101936ac340779f0edd93aa6bb4625a14bf95ffdb785fdfdb4fcbce593c9448ebf00100000000ffffffff02acf5d20400000000160014967f5f376c23d83c1d50f36f91201a1399a3b84ccc392b000000000017a9145a9d4d9ae1d421feea9e1eb71d4c2cea6c8b1d768702473044022049038ac1d9238484c77ff709ce535bc302f5c174c4890ae069563e9b21249e9e022009af2561b0d643771a6e60ee0bedb8da526c338a742b2f6d7e7946a62a925ec9012103406748377babf718ce1c4119021e509fb3c7352cc1a143c2fa40e9838c82016700000000", "vin": [{"txinwitness": ["3044022049038ac1d9238484c77ff709ce535bc302f5c174c4890ae069563e9b21249e9e022009af2561b0d643771a6e60ee0bedb8da526c338a742b2f6d7e7946a62a925ec901", "03406748377babf718ce1c4119021e509fb3c7352cc1a143c2fa40e9838c820167"], "sequence": 4294967295, "scriptSig": {"hex": "", "asm": ""}, "vout": 1, "txid": "f0eb48943c59cecb4fdbdf5f78dbff95bf145a62b46baa93dd0e9f7740c36a93"}], "txid": "92e92129c4ff6ad38279fec3009ff8d69560067bb51c1573e26962c5d44ab0d6", "blocktime": 1537871767, "version": 1, "confirmations": 11495, "time": 1537871767, "locktime": 0, "vsize": 142, "size": 223}