{"hash": "3b775098776e98f717b30e71da2c08488015a940b3cd64e7f9472ddb660f3bb2", "blockhash": "00000000000000000017f5eb5941039fbcee6240d03bc1f2f8e35350df66a1d8", "vout": [{"scriptPubKey": {"reqSigs": 1, "hex": "76a914992f292cc245ef9f637c112302b04394c8c6b28c88ac", "addresses": ["1Exxt9Gjj1igDxy6jJ9RsQrVhpiLnz7rYS"], "asm": "OP_DUP OP_HASH160 992f292cc245ef9f637c112302b04394c8c6b28c OP_EQUALVERIFY OP_CHECKSIG", "type": "pubkeyhash"}, "value": 4.0, "n": 0}, {"scriptPubKey": {"reqSigs": 1, "hex": "76a914c80b1b1740919b6e46cd74cd88e912a24004ad4c88ac", "addresses": ["1KEjT1i9dVpX6xYy4a8D7tUQ7Xud9FJz9q"], "asm": "OP_DUP OP_HASH160 c80b1b1740919b6e46cd74cd88e912a24004ad4c OP_EQUALVERIFY OP_CHECKSIG", "type": "pubkeyhash"}, "value": 0.06172539, "n": 1}, {"scriptPubKey": {"reqSigs": 1, "hex": "a91432802b19187657c5794675fe9edd32a77f19ad8087", "addresses": ["36J3FRodE5C5CzgZV8GdhtQ6ms8EiMVezz"], "asm": "OP_HASH160 32802b19187657c5794675fe9edd32a77f19ad80 OP_EQUAL", "type": "scripthash"}, "value": 2.31349914, "n": 2}, {"scriptPubKey": {"reqSigs": 1, "hex": "a91469f3764007205e67ffc401e1709fd7eeae04cac787", "addresses": ["3BMEXiVy95K1yeqYr6bSDGVVdrGf7kPfUT"], "asm": "OP_HASH160 69f3764007205e67ffc401e1709fd7eeae04cac7 OP_EQUAL", "type": "scripthash"}, "value": 0.0254705, "n": 3}, {"scriptPubKey": {"reqSigs": 1, "hex": "a91469f375635900c21f723488cc28644af3dd67707187", "addresses": ["3BMEXUvumeTKK27YbRn5i7ohYq1QaTbkxR"], "asm": "OP_HASH160 69f375635900c21f723488cc28644af3dd677071 OP_EQUAL", "type": "scripthash"}, "value": 0.01342113, "n": 4}], "hex": "010000000001013bd136d3795b18ee76e819844aee851357308d9abfd84948553763fdf41667b10200000023220020dfc7dd1b9ae3b60b0f08b244a248a3f961533f14dd9f2528e8b2a5623abc5b8affffffff050084d717000000001976a914992f292cc245ef9f637c112302b04394c8c6b28c88ac7b2f5e00000000001976a914c80b1b1740919b6e46cd74cd88e912a24004ad4c88ac9a1eca0d0000000017a91432802b19187657c5794675fe9edd32a77f19ad80876add26000000000017a91469f3764007205e67ffc401e1709fd7eeae04cac787a17a14000000000017a91469f375635900c21f723488cc28644af3dd67707187040047304402202648362767a7ff199313a5519953d62d39bc23df62c2668d01a48ab2a699e55002202914ade2b5872774ce0a5602ff9ac33b08ad3b03c1baf32e7c087cedb3535cfc01483045022100bf8278522e84febb45a66d6356f2201151f21c48530011e5773a3f654ca3b494022053b028cf08419cac3859a9e9f274e772c3f20179dde2e3f31b5362ae2f32c2dc01695221038636deef91a6ff25c79b0068873e1a8f83909bf23ef7f4a777a1bbb55bf1a6372102f0a30b08d6bf16862446e4cad822d11e9afa20b9af38faf06a9b768751ddba0021032d0386ac5fc96e9a03142bd36449ff4ebad53d78561f3f3d46b26fd1081a544f53ae00000000", "vin": [{"txinwitness": ["", "304402202648362767a7ff199313a5519953d62d39bc23df62c2668d01a48ab2a699e55002202914ade2b5872774ce0a5602ff9ac33b08ad3b03c1baf32e7c087cedb3535cfc01", "3045022100bf8278522e84febb45a66d6356f2201151f21c48530011e5773a3f654ca3b494022053b028cf08419cac3859a9e9f274e772c3f20179dde2e3f31b5362ae2f32c2dc01", "5221038636deef91a6ff25c79b0068873e1a8f83909bf23ef7f4a777a1bbb55bf1a6372102f0a30b08d6bf16862446e4cad822d11e9afa20b9af38faf06a9b768751ddba0021032d0386ac5fc96e9a03142bd36449ff4ebad53d78561f3f3d46b26fd1081a544f53ae"], "sequence": 4294967295, "scriptSig": {"hex": "220020dfc7dd1b9ae3b60b0f08b244a248a3f961533f14dd9f2528e8b2a5623abc5b8a", "asm": "0020dfc7dd1b9ae3b60b0f08b244a248a3f961533f14dd9f2528e8b2a5623abc5b8a"}, "vout": 2, "txid": "b16716f4fd6337554849d8bf9a8d30571385ee4a8419e876ee185b79d336d13b"}], "txid": "92efb7e927ead52b1b0fd532e62e359abecc51ce24c84f73b9efc902c246e28b", "blocktime": 1537874412, "version": 1, "confirmations": 11467, "time": 1537874412, "locktime": 0, "vsize": 314, "size": 505}