{"hash": "20d95812b57912f7e0aef36eb37257bc87f9904c5afa234cab523b0c84daedff", "blockhash": "0000000000000000001cda96e906b7601b7a6fb1a3b62bca570a9e5d8f4b3de1", "vout": [{"scriptPubKey": {"reqSigs": 1, "hex": "76a9140bc35858d860fbd1019f37b33417a47b89c85b9a88ac", "addresses": ["125CSvi9QYFYDtTw1kTZFCXTaEHWNvTp64"], "asm": "OP_DUP OP_HASH160 0bc35858d860fbd1019f37b33417a47b89c85b9a OP_EQUALVERIFY OP_CHECKSIG", "type": "pubkeyhash"}, "value": 0.01476, "n": 0}, {"scriptPubKey": {"reqSigs": 1, "hex": "00146e43cebb4e878f8de355286c12d82c119b057cc5", "addresses": ["bc1qdepuaw6ws78cmc649pkp9kpvzxds2lx9yyrwx9"], "asm": "0 6e43cebb4e878f8de355286c12d82c119b057cc5", "type": "witness_v0_keyhash"}, "value": 6.68e-05, "n": 1}], "hex": "01000000000101ace29f3b9aa9c2972a4a25af46e2bfe84a0919d238ccd9dbfe3a95dd8714caca0000000000ffffffff02a0851600000000001976a9140bc35858d860fbd1019f37b33417a47b89c85b9a88ac181a0000000000001600146e43cebb4e878f8de355286c12d82c119b057cc502483045022100a0c4dd3c2e83e0a94fa887249b9d30109277a89c105d737d8b5b210d37d7e05202203dce31a2d6fd1b9f45b7e1cc91913bf05e2cfb81a76d65e0a8e2e9c1a35ed6210121021f016ea0813309fdecdc13952be450180261b38b6578f0ab168f081e9d776a3f00000000", "vin": [{"txinwitness": ["3045022100a0c4dd3c2e83e0a94fa887249b9d30109277a89c105d737d8b5b210d37d7e05202203dce31a2d6fd1b9f45b7e1cc91913bf05e2cfb81a76d65e0a8e2e9c1a35ed62101", "021f016ea0813309fdecdc13952be450180261b38b6578f0ab168f081e9d776a3f"], "sequence": 4294967295, "scriptSig": {"hex": "", "asm": ""}, "vout": 0, "txid": "caca1487dd953afedbd9cc38d219094ae8bfe246af254a2a97c2a99a3b9fe2ac"}], "txid": "92f01b870316dd4b48fbf2fc29c72ceafe199ab838126c25db86223c3f58ec4e", "blocktime": 1537873282, "version": 1, "confirmations": 11484, "time": 1537873282, "locktime": 0, "vsize": 144, "size": 226}