{"hash": "92f2c6b24d182744a06cc17e302b4a0b3d0f139f393dadf8f2afc5dba80bf047", "blockhash": "0000000000000000000e13cef7c366c0283d82e591d1acd082e914b08063cdf1", "vout": [{"scriptPubKey": {"reqSigs": 1, "hex": "76a91425176e13fa6d324ba74bf33e9183bf4c2382e87888ac", "addresses": ["14P853SjinTLUQoYCrnaxSu29gBHD1oMWz"], "asm": "OP_DUP OP_HASH160 25176e13fa6d324ba74bf33e9183bf4c2382e878 OP_EQUALVERIFY OP_CHECKSIG", "type": "pubkeyhash"}, "value": 0.056, "n": 0}, {"scriptPubKey": {"reqSigs": 1, "hex": "76a91431616045d9680de60028247283478fa449d2bc1088ac", "addresses": ["15W6mD2Ydr9i96CsoF3MgpwKeb8cnWkDTW"], "asm": "OP_DUP OP_HASH160 31616045d9680de60028247283478fa449d2bc10 OP_EQUALVERIFY OP_CHECKSIG", "type": "pubkeyhash"}, "value": 0.0668293, "n": 1}], "hex": "0100000001aa8d0f2e9661a89d99f05041875ebae154d2248027d43583fc2e987b3dd0812c010000006a47304402205c07e434cec470ae2dc386c1502d1cd1028b99a17bc9e7a6c9d05507893ccd81022079d2ffb59685dd6576913f953b9baafe5417612310041633e5987c00556af3a401210332ffce63e2e055c986bccaa390cb79d7c828168ee3b206097fcf9e066e9c3d3dffffffff0200735500000000001976a91425176e13fa6d324ba74bf33e9183bf4c2382e87888ac32f96500000000001976a91431616045d9680de60028247283478fa449d2bc1088ac00000000", "vin": [{"sequence": 4294967295, "scriptSig": {"hex": "47304402205c07e434cec470ae2dc386c1502d1cd1028b99a17bc9e7a6c9d05507893ccd81022079d2ffb59685dd6576913f953b9baafe5417612310041633e5987c00556af3a401210332ffce63e2e055c986bccaa390cb79d7c828168ee3b206097fcf9e066e9c3d3d", "asm": "304402205c07e434cec470ae2dc386c1502d1cd1028b99a17bc9e7a6c9d05507893ccd81022079d2ffb59685dd6576913f953b9baafe5417612310041633e5987c00556af3a4[ALL] 0332ffce63e2e055c986bccaa390cb79d7c828168ee3b206097fcf9e066e9c3d3d"}, "vout": 1, "txid": "2c81d03d7b982efc8335d4278024d254e1ba5e874150f0999da861962e0f8daa"}], "txid": "92f2c6b24d182744a06cc17e302b4a0b3d0f139f393dadf8f2afc5dba80bf047", "blocktime": 1537871767, "version": 1, "confirmations": 11491, "time": 1537871767, "locktime": 0, "vsize": 225, "size": 225}