{"hash": "92f40a959c0ce38544bfa41b6055d5f08baa3aace648bb838751e81e0bac5177", "blockhash": "0000000000000000000e13cef7c366c0283d82e591d1acd082e914b08063cdf1", "vout": [{"scriptPubKey": {"reqSigs": 1, "hex": "76a914b9bceca0ba42dd5b2f1f8c998cf0affc69a9456c88ac", "addresses": ["1Hw6LBVyzAyHi26TMKt62ugBeM2W8vFatb"], "asm": "OP_DUP OP_HASH160 b9bceca0ba42dd5b2f1f8c998cf0affc69a9456c OP_EQUALVERIFY OP_CHECKSIG", "type": "pubkeyhash"}, "value": 0.00564783, "n": 0}, {"scriptPubKey": {"reqSigs": 1, "hex": "76a914d534f3f894b33b76861c08aab55423cfc0c8260b88ac", "addresses": ["1LSLN6nBzTvoZpG6kMwMd6vY2hjwLnDgTz"], "asm": "OP_DUP OP_HASH160 d534f3f894b33b76861c08aab55423cfc0c8260b OP_EQUALVERIFY OP_CHECKSIG", "type": "pubkeyhash"}, "value": 0.0625, "n": 1}], "hex": "010000000182dbe05a0afdfcffe8dcfc89f280b4d1cfc45c1c1e4d023c2a642b7ac111a553000000006a47304402207598189c439211bee328edeac205c5dbd8a2852b4ceb489a404a270c57623dae0220766a78456bb6af8e4024f3bbc0f965ee9bdeaa307d2cfbb14bb07385fea9c733012102de9e1e31b9084c618f2889aae85b6c9c6c76d657c59e27632ee4044acc09f1eaffffffff022f9e0800000000001976a914b9bceca0ba42dd5b2f1f8c998cf0affc69a9456c88ac105e5f00000000001976a914d534f3f894b33b76861c08aab55423cfc0c8260b88ac00000000", "vin": [{"sequence": 4294967295, "scriptSig": {"hex": "47304402207598189c439211bee328edeac205c5dbd8a2852b4ceb489a404a270c57623dae0220766a78456bb6af8e4024f3bbc0f965ee9bdeaa307d2cfbb14bb07385fea9c733012102de9e1e31b9084c618f2889aae85b6c9c6c76d657c59e27632ee4044acc09f1ea", "asm": "304402207598189c439211bee328edeac205c5dbd8a2852b4ceb489a404a270c57623dae0220766a78456bb6af8e4024f3bbc0f965ee9bdeaa307d2cfbb14bb07385fea9c733[ALL] 02de9e1e31b9084c618f2889aae85b6c9c6c76d657c59e27632ee4044acc09f1ea"}, "vout": 0, "txid": "53a511c17a2b642a3c024d1e1c5cc4cfd1b480f289fcdce8fffcfd0a5ae0db82"}], "txid": "92f40a959c0ce38544bfa41b6055d5f08baa3aace648bb838751e81e0bac5177", "blocktime": 1537871767, "version": 1, "confirmations": 11495, "time": 1537871767, "locktime": 0, "vsize": 225, "size": 225}