{"hash": "fb243924856d4f8dad435bc0650319b117954015ab8c0202f6963678e6c4f7c0", "blockhash": "0000000000000000001e0dab787dd257d1dbfcb92a98c2207d5e1078be1f4165", "vout": [{"scriptPubKey": {"reqSigs": 1, "hex": "a9141c7114d557f06d2ea90fa56e6e644dcfa8df1e3587", "addresses": ["34HQJwt9hN1m7PcHigT6GTMos463665zG5"], "asm": "OP_HASH160 1c7114d557f06d2ea90fa56e6e644dcfa8df1e35 OP_EQUAL", "type": "scripthash"}, "value": 0.00327603, "n": 0}, {"scriptPubKey": {"reqSigs": 1, "hex": "a91417b1324ad76988a494d890fa25009912ecc199f687", "addresses": ["33rHjnGirQNkwjkpmU6paiLa6KRKiQ5hDz"], "asm": "OP_HASH160 17b1324ad76988a494d890fa25009912ecc199f6 OP_EQUAL", "type": "scripthash"}, "value": 0.23886903, "n": 1}, {"scriptPubKey": {"reqSigs": 1, "hex": "a914c4a8316060d595a8fdd495986f402d5b02ef4c6e87", "addresses": ["3KcqrPV5fH5cAMkWWgJhUZWpzN27WUDHEM"], "asm": "OP_HASH160 c4a8316060d595a8fdd495986f402d5b02ef4c6e OP_EQUAL", "type": "scripthash"}, "value": 0.01917224, "n": 2}, {"scriptPubKey": {"reqSigs": 1, "hex": "76a914f18d06de6e541dc7eacf0857cabb61768d087dbc88ac", "addresses": ["1P2CnwwGyZPsLzYXKMYrkEHhAfWsAzAbJ7"], "asm": "OP_DUP OP_HASH160 f18d06de6e541dc7eacf0857cabb61768d087dbc OP_EQUALVERIFY OP_CHECKSIG", "type": "pubkeyhash"}, "value": 0.007365, "n": 3}, {"scriptPubKey": {"reqSigs": 1, "hex": "a9145cc571e4073fcdd15c1fd8a097777d8a41c8374b87", "addresses": ["3A9YcuM1G9Fxjv1gYmpVDAwzhbQS5sf7bi"], "asm": "OP_HASH160 5cc571e4073fcdd15c1fd8a097777d8a41c8374b OP_EQUAL", "type": "scripthash"}, "value": 0.00217283, "n": 4}, {"scriptPubKey": {"reqSigs": 1, "hex": "a914265aa8b2205282a1d79d09a723c2c452f26bd52b87", "addresses": ["35BpCvprmkQjUJW4KT5bwgnahwBNu9aPKe"], "asm": "OP_HASH160 265aa8b2205282a1d79d09a723c2c452f26bd52b OP_EQUAL", "type": "scripthash"}, "value": 0.00561045, "n": 5}, {"scriptPubKey": {"reqSigs": 1, "hex": "76a914c63204c335724e8cfcc67bdd596f16a7121309a788ac", "addresses": ["1K4xiLV5JhkTL15Zao9Au6LDML4sVqiw4H"], "asm": "OP_DUP OP_HASH160 c63204c335724e8cfcc67bdd596f16a7121309a7 OP_EQUALVERIFY OP_CHECKSIG", "type": "pubkeyhash"}, "value": 0.0016, "n": 6}, {"scriptPubKey": {"reqSigs": 1, "hex": "a9140ec856c0a01c6e85fce32fcd4a3eabd743e63bd887", "addresses": ["333BP22hxaKeqxZqpkSJt8HZDuagB5SQuy"], "asm": "OP_HASH160 0ec856c0a01c6e85fce32fcd4a3eabd743e63bd8 OP_EQUAL", "type": "scripthash"}, "value": 0.0021, "n": 7}, {"scriptPubKey": {"reqSigs": 1, "hex": "76a914137b8b1bfd55f6b303bbfa880b0b5a3335896ac688ac", "addresses": ["12n1qbF8aFbxNgVTnupWQBuxp1tMJhWnJK"], "asm": "OP_DUP OP_HASH160 137b8b1bfd55f6b303bbfa880b0b5a3335896ac6 OP_EQUALVERIFY OP_CHECKSIG", "type": "pubkeyhash"}, "value": 0.04634612, "n": 8}, {"scriptPubKey": {"reqSigs": 1, "hex": "a91430bdef07988e9a07fedca956f02fdb0d36b3c28e87", "addresses": ["368jtaRg3L8FVQwf7h1kp7DsjrxMehPFtT"], "asm": "OP_HASH160 30bdef07988e9a07fedca956f02fdb0d36b3c28e OP_EQUAL", "type": "scripthash"}, "value": 0.00804063, "n": 9}, {"scriptPubKey": {"reqSigs": 1, "hex": "a9141cdf1216cf1d84f1c1faf84b3d16763aa08ad15c87", "addresses": ["34Kg58rVh1wdSGjNY97DSwFSyRFBWgUL7e"], "asm": "OP_HASH160 1cdf1216cf1d84f1c1faf84b3d16763aa08ad15c OP_EQUAL", "type": "scripthash"}, "value": 0.161, "n": 10}, {"scriptPubKey": {"reqSigs": 1, "hex": "a9148a05856ecc4d61263a54d67a97fbffff386ff3b987", "addresses": ["3EGondw43dDZFx82it3EEeUQUCCmS9HVVP"], "asm": "OP_HASH160 8a05856ecc4d61263a54d67a97fbffff386ff3b9 OP_EQUAL", "type": "scripthash"}, "value": 0.00029682, "n": 11}, {"scriptPubKey": {"reqSigs": 1, "hex": "a91472575f92d700fb6dbe5ff1c9980db8a04edf45d787", "addresses": ["3C7bdDc1bRaFFe8B3SCm5CzWaezBshTV8F"], "asm": "OP_HASH160 72575f92d700fb6dbe5ff1c9980db8a04edf45d7 OP_EQUAL", "type": "scripthash"}, "value": 24.22529887, "n": 12}, {"scriptPubKey": {"reqSigs": 1, "hex": "76a9145a43e06716d9f5a93ffe5837db07c1851e6d2a2788ac", "addresses": ["19EH8QszgbfmfpppqEaY1a4B7ziPLrbBZv"], "asm": "OP_DUP OP_HASH160 5a43e06716d9f5a93ffe5837db07c1851e6d2a27 OP_EQUALVERIFY OP_CHECKSIG", "type": "pubkeyhash"}, "value": 0.00347559, "n": 13}, {"scriptPubKey": {"reqSigs": 1, "hex": "a914d5a1a9203b3c2e1ed5d33b1d6a661ec73104aeb087", "addresses": ["3MAbWnLAsPAzEYmwi3gTPyFwr9mLXThzTK"], "asm": "OP_HASH160 d5a1a9203b3c2e1ed5d33b1d6a661ec73104aeb0 OP_EQUAL", "type": "scripthash"}, "value": 0.00920266, "n": 14}, {"scriptPubKey": {"reqSigs": 1, "hex": "a91476d983a34bbce9eb60c0d4b0d0424734a0e23a1f87", "addresses": ["3CXSELDDyFMW5vq33xwG77NnkeF8T9WNFH"], "asm": "OP_HASH160 76d983a34bbce9eb60c0d4b0d0424734a0e23a1f OP_EQUAL", "type": "scripthash"}, "value": 0.0052, "n": 15}, {"scriptPubKey": {"reqSigs": 1, "hex": "76a9143b79b9bbe285ce0c0629713f23dfd4508ff2cf9088ac", "addresses": ["16RUgxRh16zkKD1xwpxEqws7hN8167Up1V"], "asm": "OP_DUP OP_HASH160 3b79b9bbe285ce0c0629713f23dfd4508ff2cf90 OP_EQUALVERIFY OP_CHECKSIG", "type": "pubkeyhash"}, "value": 0.061601, "n": 16}, {"scriptPubKey": {"reqSigs": 1, "hex": "a914a3aaef7a98b86d23311d63ecb273f64aa9d1425787", "addresses": ["3GcQqchogkQne84tRxFUbWL3ydGL8uWoVb"], "asm": "OP_HASH160 a3aaef7a98b86d23311d63ecb273f64aa9d14257 OP_EQUAL", "type": "scripthash"}, "value": 0.003305, "n": 17}, {"scriptPubKey": {"reqSigs": 1, "hex": "76a91498ada4a4a65c6ba0d54237bf3102aa19ec24c70b88ac", "addresses": ["1EvHj6WK1sYf2NYMziHsivLpXHVeR6Uheh"], "asm": "OP_DUP OP_HASH160 98ada4a4a65c6ba0d54237bf3102aa19ec24c70b OP_EQUALVERIFY OP_CHECKSIG", "type": "pubkeyhash"}, "value": 0.303418, "n": 18}, {"scriptPubKey": {"reqSigs": 1, "hex": "a91473b31f4f1e4280bc2985c71091803e519285f91d87", "addresses": ["3CEnDEsKNubJVwRwx2bzGtBD4gPNH95dqB"], "asm": "OP_HASH160 73b31f4f1e4280bc2985c71091803e519285f91d OP_EQUAL", "type": "scripthash"}, "value": 0.00686686, "n": 19}, {"scriptPubKey": {"reqSigs": 1, "hex": "a914baa6dbfdeb6bf35b163fdef6373e56230998b70087", "addresses": ["3JhwVpCfrhbSmrFDhLemqfCa79HSvFHb2K"], "asm": "OP_HASH160 baa6dbfdeb6bf35b163fdef6373e56230998b700 OP_EQUAL", "type": "scripthash"}, "value": 0.0086123, "n": 20}, {"scriptPubKey": {"reqSigs": 1, "hex": "76a91459541425f08f2bffb87f8f9ba8bca23d9ffa6dec88ac", "addresses": ["199KrxtngGm6KprjVjSaZt9ssakR8oG3ES"], "asm": "OP_DUP OP_HASH160 59541425f08f2bffb87f8f9ba8bca23d9ffa6dec OP_EQUALVERIFY OP_CHECKSIG", "type": "pubkeyhash"}, "value": 0.00156348, "n": 21}, {"scriptPubKey": {"reqSigs": 1, "hex": "a91436637e22c2437e2350530af612e47171b0e2f48d87", "addresses": ["36ebbn4rjsGjESZTte4H4BvC939GgbTJNK"], "asm": "OP_HASH160 36637e22c2437e2350530af612e47171b0e2f48d OP_EQUAL", "type": "scripthash"}, "value": 0.00950731, "n": 22}, {"scriptPubKey": {"reqSigs": 1, "hex": "76a914104ac5b3a8069ca51e1cca1851c45ee3c61c82f388ac", "addresses": ["12V9PLbaaewZmwFogen1bighovFZvMW138"], "asm": "OP_DUP OP_HASH160 104ac5b3a8069ca51e1cca1851c45ee3c61c82f3 OP_EQUALVERIFY OP_CHECKSIG", "type": "pubkeyhash"}, "value": 1.0, "n": 23}], "hex": "020000000001012a5cbb2a38a0a056ed4f68817e525c2b99237ee34c27156790aa1515fa695aa81a00000017160014f8f51c4a7287c7b28360b51d32a37ba00d6c4d7cfeffffff18b3ff04000000000017a9141c7114d557f06d2ea90fa56e6e644dcfa8df1e3587377c6c010000000017a91417b1324ad76988a494d890fa25009912ecc199f68728411d000000000017a914c4a8316060d595a8fdd495986f402d5b02ef4c6e87f43c0b00000000001976a914f18d06de6e541dc7eacf0857cabb61768d087dbc88acc35003000000000017a9145cc571e4073fcdd15c1fd8a097777d8a41c8374b87958f08000000000017a914265aa8b2205282a1d79d09a723c2c452f26bd52b8700710200000000001976a914c63204c335724e8cfcc67bdd596f16a7121309a788ac503403000000000017a9140ec856c0a01c6e85fce32fcd4a3eabd743e63bd887f4b74600000000001976a914137b8b1bfd55f6b303bbfa880b0b5a3335896ac688acdf440c000000000017a91430bdef07988e9a07fedca956f02fdb0d36b3c28e87a0aaf5000000000017a9141cdf1216cf1d84f1c1faf84b3d16763aa08ad15c87f27300000000000017a9148a05856ecc4d61263a54d67a97fbffff386ff3b9875fdf64900000000017a91472575f92d700fb6dbe5ff1c9980db8a04edf45d787a74d0500000000001976a9145a43e06716d9f5a93ffe5837db07c1851e6d2a2788acca0a0e000000000017a914d5a1a9203b3c2e1ed5d33b1d6a661ec73104aeb08740ef07000000000017a91476d983a34bbce9eb60c0d4b0d0424734a0e23a1f87e4fe5d00000000001976a9143b79b9bbe285ce0c0629713f23dfd4508ff2cf9088ac040b05000000000017a914a3aaef7a98b86d23311d63ecb273f64aa9d1425787a8face01000000001976a91498ada4a4a65c6ba0d54237bf3102aa19ec24c70b88ac5e7a0a000000000017a91473b31f4f1e4280bc2985c71091803e519285f91d872e240d000000000017a914baa6dbfdeb6bf35b163fdef6373e56230998b70087bc620200000000001976a91459541425f08f2bffb87f8f9ba8bca23d9ffa6dec88accb810e000000000017a91436637e22c2437e2350530af612e47171b0e2f48d8700e1f505000000001976a914104ac5b3a8069ca51e1cca1851c45ee3c61c82f388ac02483045022100e7be1aa81e89238fcf06e5ca69e0ef03d63fec7e5ad6ba862aa7f8c9bf94ba3902205086e1eb9c47dfcb69032a8254033c62353fba83f2343604884e37c59a4094ac0121024ecb969cf5a62cca19f16f6eaafdd66ed7875a8871da91fa5f60a5f6426e288312490800", "vin": [{"txinwitness": ["3045022100e7be1aa81e89238fcf06e5ca69e0ef03d63fec7e5ad6ba862aa7f8c9bf94ba3902205086e1eb9c47dfcb69032a8254033c62353fba83f2343604884e37c59a4094ac01", "024ecb969cf5a62cca19f16f6eaafdd66ed7875a8871da91fa5f60a5f6426e2883"], "sequence": 4294967294, "scriptSig": {"hex": "160014f8f51c4a7287c7b28360b51d32a37ba00d6c4d7c", "asm": "0014f8f51c4a7287c7b28360b51d32a37ba00d6c4d7c"}, "vout": 26, "txid": "a85a69fa1515aa906715274ce37e23992b5c527e81684fed56a0a0382abb5c2a"}], "txid": "92f5a254914f3892a6eba65a9a047e4b121d2d1405354231e3d41eb667e95744", "blocktime": 1537872475, "version": 2, "confirmations": 11486, "time": 1537872475, "locktime": 542994, "vsize": 886, "size": 968}