{"hash": "92f6aaae6f99bb05b1900d9e7052546531346f5ed5d44c9d04eceb98033fe2d3", "blockhash": "0000000000000000001cda96e906b7601b7a6fb1a3b62bca570a9e5d8f4b3de1", "vout": [{"scriptPubKey": {"reqSigs": 1, "hex": "76a914982685bf7fdcf3201f9ddebb577dda281ee9ddf188ac", "addresses": ["1EsVrkDs1MW4Pqgq197VzssKKGmoyj2Rmq"], "asm": "OP_DUP OP_HASH160 982685bf7fdcf3201f9ddebb577dda281ee9ddf1 OP_EQUALVERIFY OP_CHECKSIG", "type": "pubkeyhash"}, "value": 7.421e-05, "n": 0}, {"scriptPubKey": {"reqSigs": 1, "hex": "76a914141e802e5d448ef0ad0d84459784315b1e940a4288ac", "addresses": ["12qP44eeZsyUHwhNq2iCZizCWPcPqUvDDT"], "asm": "OP_DUP OP_HASH160 141e802e5d448ef0ad0d84459784315b1e940a42 OP_EQUALVERIFY OP_CHECKSIG", "type": "pubkeyhash"}, "value": 2.84239501, "n": 1}], "hex": "0100000001b695b70e73a6367f7dfe4f033abd26588f9565d8b390b91e16b2d03b92409200010000006b483045022100cbc5446e1eb4b5ae416392202d7345170d572945205e7597f9d7aca17ad1133802203a158eacb4bebf49a5af7c1c6ec4e6c8cf0aab6c1851306903cf704badfe79210121032ebd6d89a50623a7482cf1f59af89d392e8a3bb07da2bd08090eca17a3608f73ffffffff02fd1c0000000000001976a914982685bf7fdcf3201f9ddebb577dda281ee9ddf188ac8d26f110000000001976a914141e802e5d448ef0ad0d84459784315b1e940a4288ac00000000", "vin": [{"sequence": 4294967295, "scriptSig": {"hex": "483045022100cbc5446e1eb4b5ae416392202d7345170d572945205e7597f9d7aca17ad1133802203a158eacb4bebf49a5af7c1c6ec4e6c8cf0aab6c1851306903cf704badfe79210121032ebd6d89a50623a7482cf1f59af89d392e8a3bb07da2bd08090eca17a3608f73", "asm": "3045022100cbc5446e1eb4b5ae416392202d7345170d572945205e7597f9d7aca17ad1133802203a158eacb4bebf49a5af7c1c6ec4e6c8cf0aab6c1851306903cf704badfe7921[ALL] 032ebd6d89a50623a7482cf1f59af89d392e8a3bb07da2bd08090eca17a3608f73"}, "vout": 1, "txid": "009240923bd0b2161eb990b3d865958f5826bd3a034ffe7d7f36a6730eb795b6"}], "txid": "92f6aaae6f99bb05b1900d9e7052546531346f5ed5d44c9d04eceb98033fe2d3", "blocktime": 1537873282, "version": 1, "confirmations": 11484, "time": 1537873282, "locktime": 0, "vsize": 226, "size": 226}