{"hash": "9301bb882523f2e269a84f0d688cbb7541ebda0c82f389d1698b5c028191abfc", "blockhash": "000000000000000000205f8b0775d31398ef75b89a5e8ec8d2c57b4dc0ac4c20", "vout": [{"scriptPubKey": {"reqSigs": 1, "hex": "a91486da9bb2752a06ebf037458964aa3d866abee6df87", "addresses": ["3Dz4MQsqUM8RhhhdDfy4ZeTBztj9jX6atV"], "asm": "OP_HASH160 86da9bb2752a06ebf037458964aa3d866abee6df OP_EQUAL", "type": "scripthash"}, "value": 0.2549001, "n": 0}], "hex": "01000000016fa7d885408599e55100a30975fd4f35ff4904bdc5266d3ab5b4bfebedf4f5b9010000006b483045022100b8b83d600ffe1f9cf900a539844b50eb1b75fb47654cc0bcaa5f07484a1bd27d02205362b9344089c571fcc0fab1cf4799a4082945fb226052a6719187d4185e7f0c012102f81989926f2e04d32c391d609edcad019bcbee14d6795ac90c7613667afa6487ffffffff015af284010000000017a91486da9bb2752a06ebf037458964aa3d866abee6df8700000000", "vin": [{"sequence": 4294967295, "scriptSig": {"hex": "483045022100b8b83d600ffe1f9cf900a539844b50eb1b75fb47654cc0bcaa5f07484a1bd27d02205362b9344089c571fcc0fab1cf4799a4082945fb226052a6719187d4185e7f0c012102f81989926f2e04d32c391d609edcad019bcbee14d6795ac90c7613667afa6487", "asm": "3045022100b8b83d600ffe1f9cf900a539844b50eb1b75fb47654cc0bcaa5f07484a1bd27d02205362b9344089c571fcc0fab1cf4799a4082945fb226052a6719187d4185e7f0c[ALL] 02f81989926f2e04d32c391d609edcad019bcbee14d6795ac90c7613667afa6487"}, "vout": 1, "txid": "b9f5f4edebbfb4b53a6d26c5bd0449ff354ffd7509a30051e599854085d8a76f"}], "txid": "9301bb882523f2e269a84f0d688cbb7541ebda0c82f389d1698b5c028191abfc", "blocktime": 1537871175, "version": 1, "confirmations": 11511, "time": 1537871175, "locktime": 0, "vsize": 190, "size": 190}