{"hash": "5c195ede346c1a70593b166d63badc579f0e07140ed8c53289b6ab8f61539342", "blockhash": "0000000000000000000dcc0f55137456b1a82d3642486a52398922ac4d620174", "vout": [{"scriptPubKey": {"reqSigs": 1, "hex": "a9145b72e1f9b6cf184cc27f5ed30f44a41e2c71cd2087", "addresses": ["3A2Z3C49ZTYQ1XU3v7AUJ4Zo5FU4Ag6WCr"], "asm": "OP_HASH160 5b72e1f9b6cf184cc27f5ed30f44a41e2c71cd20 OP_EQUAL", "type": "scripthash"}, "value": 0.00279315, "n": 0}, {"scriptPubKey": {"reqSigs": 1, "hex": "a914ec764f68fa666240807d8f2dc9412f1c10e0a41287", "addresses": ["3PFK89nNSnByr5rJLt9yKLXaMEUvycF9Rt"], "asm": "OP_HASH160 ec764f68fa666240807d8f2dc9412f1c10e0a412 OP_EQUAL", "type": "scripthash"}, "value": 0.01720175, "n": 1}], "hex": "02000000000101848d0a242d35e35c9ae4cdab0b024a135cc5f809b0a8ac2e3aeff47eda23e4350000000000ffffffff02134304000000000017a9145b72e1f9b6cf184cc27f5ed30f44a41e2c71cd20876f3f1a000000000017a914ec764f68fa666240807d8f2dc9412f1c10e0a412870400483045022100bf9573ea8a70a6a6de261514d66401e3f487b34ee0125cae0b3b7a5701733a040220178d6e81a50251cae5b51a79339959e20529941e9c6a3f35367597459777172901483045022100b868dec98d0f40c865658b3a0592866a44de27cdd3ee2fad1dcc258e67f78335022051aeddc03322634359c379cccc3383b9a0a026d2de3d694e13b80766e5a7de09014752210258a93744f5d225c274d89487bd0339b4884b4d36276e81eca4ba0598e144153a21034ba526f74e32ddd6ebf862df6de68393db05c97851f412702fbf5ec2de6134f252ae00000000", "vin": [{"txinwitness": ["", "3045022100bf9573ea8a70a6a6de261514d66401e3f487b34ee0125cae0b3b7a5701733a040220178d6e81a50251cae5b51a79339959e20529941e9c6a3f35367597459777172901", "3045022100b868dec98d0f40c865658b3a0592866a44de27cdd3ee2fad1dcc258e67f78335022051aeddc03322634359c379cccc3383b9a0a026d2de3d694e13b80766e5a7de0901", "52210258a93744f5d225c274d89487bd0339b4884b4d36276e81eca4ba0598e144153a21034ba526f74e32ddd6ebf862df6de68393db05c97851f412702fbf5ec2de6134f252ae"], "sequence": 4294967295, "scriptSig": {"hex": "", "asm": ""}, "vout": 0, "txid": "35e423da7ef4ef3a2eaca8b009f8c55c134a020babcde49a5ce3352d240a8d84"}], "txid": "9308be51ac58c7de2217b914e68df39ad4c554a120ec16896f121df93a100e1f", "blocktime": 1537870268, "version": 2, "confirmations": 11518, "time": 1537870268, "locktime": 0, "vsize": 171, "size": 337}