{"hash": "c68b34267bf009a0bc58150b79402d728b5a3e8a959bc2faaa5d222f5af2bb2c", "blockhash": "000000000000000000205f8b0775d31398ef75b89a5e8ec8d2c57b4dc0ac4c20", "vout": [{"scriptPubKey": {"reqSigs": 1, "hex": "76a9141acbe920bc6326c55d2deb3660139c6d47da72e788ac", "addresses": ["13Sgqx1CNeJTHBi9fLifPjWu66fWRE9NYt"], "asm": "OP_DUP OP_HASH160 1acbe920bc6326c55d2deb3660139c6d47da72e7 OP_EQUALVERIFY OP_CHECKSIG", "type": "pubkeyhash"}, "value": 0.1, "n": 0}, {"scriptPubKey": {"reqSigs": 1, "hex": "a914bbba37f40cb545bcad4ce84c10733be66d166e0487", "addresses": ["3JodN7GmkHdPgKj9G7HCkn9NDLhrcWCjVN"], "asm": "OP_HASH160 bbba37f40cb545bcad4ce84c10733be66d166e04 OP_EQUAL", "type": "scripthash"}, "value": 0.0998707, "n": 1}], "hex": "0200000000010206039deaffdd828e39541bd188cc78908fb25cccf3724d2237eaa8d527de5f980100000017160014bbb6a21c310f36dd4b22e45cfdd4f3bbc6bb3d2bffffffff959706ce4bff8241fd5fe8141705e0813d18baa347f3584a33bd49e651370b11010000001716001421d900734b2ce2ab6618bde8c013800059f1e32dffffffff0280969800000000001976a9141acbe920bc6326c55d2deb3660139c6d47da72e788acfe6398000000000017a914bbba37f40cb545bcad4ce84c10733be66d166e04870247304402206a080809f419136ccf2f4d4e3c4a06b3fa03923fddeb718a2447830a8391ae3f02207a53d443b8c4cf49784073a7a43a6762d56e16c73fbb23a6a0d1e3e1f62c34da0121031f3a602a51dab57aa434c2f4aeb48442cf0f987a5f11efb5f5858eeb4a19eabe024830450221008bf220457ae2cad196e7c6de9884e33642bf399dd22bd5e056647e0ef20b5a4c0220143c2ec1e34aa4d0648c8c8b001678576a19d955b325d68113491052596adde0012103489c725b39c4090b054d12823f1a3c0f25828b84c7f8a68e435725d90fa289ec00000000", "vin": [{"txinwitness": ["304402206a080809f419136ccf2f4d4e3c4a06b3fa03923fddeb718a2447830a8391ae3f02207a53d443b8c4cf49784073a7a43a6762d56e16c73fbb23a6a0d1e3e1f62c34da01", "031f3a602a51dab57aa434c2f4aeb48442cf0f987a5f11efb5f5858eeb4a19eabe"], "sequence": 4294967295, "scriptSig": {"hex": "160014bbb6a21c310f36dd4b22e45cfdd4f3bbc6bb3d2b", "asm": "0014bbb6a21c310f36dd4b22e45cfdd4f3bbc6bb3d2b"}, "vout": 1, "txid": "985fde27d5a8ea37224d72f3cc5cb28f9078cc88d11b54398e82ddffea9d0306"}, {"txinwitness": ["30450221008bf220457ae2cad196e7c6de9884e33642bf399dd22bd5e056647e0ef20b5a4c0220143c2ec1e34aa4d0648c8c8b001678576a19d955b325d68113491052596adde001", "03489c725b39c4090b054d12823f1a3c0f25828b84c7f8a68e435725d90fa289ec"], "sequence": 4294967295, "scriptSig": {"hex": "16001421d900734b2ce2ab6618bde8c013800059f1e32d", "asm": "001421d900734b2ce2ab6618bde8c013800059f1e32d"}, "vout": 1, "txid": "110b3751e649bd334a58f347a3ba183d81e0051714e85ffd4182ff4bce069795"}], "txid": "93096a9497e15cc48d7f9f65f768f6f6dacf613c0ab136dc23608a1ee670653f", "blocktime": 1537871175, "version": 2, "confirmations": 11511, "time": 1537871175, "locktime": 0, "vsize": 259, "size": 421}