{"hash": "930af1d4018f1aea2af2eca9500a50ebcb65e1f77b53717f4ab501bf0fe2fb9f", "blockhash": "0000000000000000001f76057863aec43deb6fa401d9628bb513d65a8098bfab", "vout": [{"scriptPubKey": {"reqSigs": 1, "hex": "76a9145276ee0fec20cffaec60bc79458ae5eb978c0a4f88ac", "addresses": ["18X2t8LeSSPPhhBDsqJdzpvdsEXAfrMStQ"], "asm": "OP_DUP OP_HASH160 5276ee0fec20cffaec60bc79458ae5eb978c0a4f OP_EQUALVERIFY OP_CHECKSIG", "type": "pubkeyhash"}, "value": 0.01560517, "n": 0}, {"scriptPubKey": {"reqSigs": 1, "hex": "76a914793dfafc91b22aa01686b8a168d35f652900188c88ac", "addresses": ["1C451gokGakYVA1bJfeJAsomNooGSecjgH"], "asm": "OP_DUP OP_HASH160 793dfafc91b22aa01686b8a168d35f652900188c OP_EQUALVERIFY OP_CHECKSIG", "type": "pubkeyhash"}, "value": 0.39018935, "n": 1}], "hex": "0100000001cf44f90964c83d3e15172f369ac028c79cc466b74173a5b11eefc4b3eb066700010000006a4730440220413a6bc205199c882c17bddfdab2066df4c052e446cbc577b6dd6bbbd4d167b402206069844528e4b9839e841b7859c30e877a2e307a45dab21237691d7050fe1883012102a12a07caaca2d8a1d635b9fbee62bbdc74d4807d8d25f3fa61334f5a122ee1d1ffffffff02c5cf1700000000001976a9145276ee0fec20cffaec60bc79458ae5eb978c0a4f88acb7615302000000001976a914793dfafc91b22aa01686b8a168d35f652900188c88ac00000000", "vin": [{"sequence": 4294967295, "scriptSig": {"hex": "4730440220413a6bc205199c882c17bddfdab2066df4c052e446cbc577b6dd6bbbd4d167b402206069844528e4b9839e841b7859c30e877a2e307a45dab21237691d7050fe1883012102a12a07caaca2d8a1d635b9fbee62bbdc74d4807d8d25f3fa61334f5a122ee1d1", "asm": "30440220413a6bc205199c882c17bddfdab2066df4c052e446cbc577b6dd6bbbd4d167b402206069844528e4b9839e841b7859c30e877a2e307a45dab21237691d7050fe1883[ALL] 02a12a07caaca2d8a1d635b9fbee62bbdc74d4807d8d25f3fa61334f5a122ee1d1"}, "vout": 1, "txid": "006706ebb3c4ef1eb1a57341b766c49cc728c09a362f17153e3dc86409f944cf"}], "txid": "930af1d4018f1aea2af2eca9500a50ebcb65e1f77b53717f4ab501bf0fe2fb9f", "blocktime": 1537873891, "version": 1, "confirmations": 11478, "time": 1537873891, "locktime": 0, "vsize": 225, "size": 225}