{"hash": "ea0dee5eb749b3a90818277a6e22515f71f233d123d73737ab4372b9e7fc3bec", "blockhash": "0000000000000000000e13cef7c366c0283d82e591d1acd082e914b08063cdf1", "vout": [{"scriptPubKey": {"reqSigs": 1, "hex": "76a914a645b33c7f1567d77f9b2e425b9c6becdc32607c88ac", "addresses": ["1GAAfhHf3nsgEtcrXNM6xjfD9hg8cg8zTH"], "asm": "OP_DUP OP_HASH160 a645b33c7f1567d77f9b2e425b9c6becdc32607c OP_EQUALVERIFY OP_CHECKSIG", "type": "pubkeyhash"}, "value": 0.0093906, "n": 0}, {"scriptPubKey": {"reqSigs": 1, "hex": "a91427494a5ffbb555dd6cdf33b01bb919ba333f65a887", "addresses": ["35Gk5LgotP9iJPXMQ8CiomT93WLL4fBdx1"], "asm": "OP_HASH160 27494a5ffbb555dd6cdf33b01bb919ba333f65a8 OP_EQUAL", "type": "scripthash"}, "value": 0.01000483, "n": 1}], "hex": "02000000000102365d53356305f558c9d7b3c4d9a22e253cdc03ee05848938fa615dea7131ab270b000000171600144ca49d5da3f99ef5c01dc9d428a8f9affade25e3feffffffadaf18455bebd2af8012b6426f13db2c3b2a804f8244c9a8efd508f4188a522e1a00000017160014e59d69c33c3dcb6a42511e5d2b80e4d44436cf8dfeffffff0234540e00000000001976a914a645b33c7f1567d77f9b2e425b9c6becdc32607c88ac23440f000000000017a91427494a5ffbb555dd6cdf33b01bb919ba333f65a88702483045022100e52bda9428ef135fe0b5147bb742bae161980003e7933cdd0912d6c4308629c4022038f6ec7d7ed737b1bd2f53a96ba5d9a958b9bf2f02744c1b50f1ee2731780461012103b33e08896f0b1990455ef208187efa82e3969cb25b33681baed35d13a8c0f752024730440220773a5e2b3cc9b9c081ab0fd808421f54a4ca1231da49db64ab0ac23bb937687002200d0968d308892cfba9fba10fd26105fed8d70a6a868e027aa8249b85f5a3e1bc0121033db4e26e09505387e9897ce8f69eb3e3436167add0dd242b7a0e1b6308437a1810490800", "vin": [{"txinwitness": ["3045022100e52bda9428ef135fe0b5147bb742bae161980003e7933cdd0912d6c4308629c4022038f6ec7d7ed737b1bd2f53a96ba5d9a958b9bf2f02744c1b50f1ee273178046101", "03b33e08896f0b1990455ef208187efa82e3969cb25b33681baed35d13a8c0f752"], "sequence": 4294967294, "scriptSig": {"hex": "1600144ca49d5da3f99ef5c01dc9d428a8f9affade25e3", "asm": "00144ca49d5da3f99ef5c01dc9d428a8f9affade25e3"}, "vout": 11, "txid": "27ab3171ea5d61fa38898405ee03dc3c252ea2d9c4b3d7c958f5056335535d36"}, {"txinwitness": ["30440220773a5e2b3cc9b9c081ab0fd808421f54a4ca1231da49db64ab0ac23bb937687002200d0968d308892cfba9fba10fd26105fed8d70a6a868e027aa8249b85f5a3e1bc01", "033db4e26e09505387e9897ce8f69eb3e3436167add0dd242b7a0e1b6308437a18"], "sequence": 4294967294, "scriptSig": {"hex": "160014e59d69c33c3dcb6a42511e5d2b80e4d44436cf8d", "asm": "0014e59d69c33c3dcb6a42511e5d2b80e4d44436cf8d"}, "vout": 26, "txid": "2e528a18f408d5efa8c944824f802a3b2cdb136f42b61280afd2eb5b4518afad"}], "txid": "930bf6ad09bc3bda7009a98ed17cce089ce5ba6dfc9c6f1a6e316b87645614cf", "blocktime": 1537871767, "version": 2, "confirmations": 11495, "time": 1537871767, "locktime": 542992, "vsize": 259, "size": 421}