{"hash": "4a2a240f1709da2f65c37b48bbd5b8325a4d61f53f18f21bf7dc550dfc7a15d9", "blockhash": "0000000000000000001e0dab787dd257d1dbfcb92a98c2207d5e1078be1f4165", "vout": [{"scriptPubKey": {"reqSigs": 1, "hex": "a91430897cc6c9d69f6a2c2f1c651d51f22219f1a4f687", "addresses": ["367f4YWz1VCFaqBqwbTrzwi2b1h2U3w1AF"], "asm": "OP_HASH160 30897cc6c9d69f6a2c2f1c651d51f22219f1a4f6 OP_EQUAL", "type": "scripthash"}, "value": 1.43089517, "n": 0}, {"scriptPubKey": {"reqSigs": 1, "hex": "a914d0748493ed8382191b2b71dac7bd7d661648a77287", "addresses": ["3LhE4FPSFoLRYpP3W6kdn4BktfswuQ5Cyp"], "asm": "OP_HASH160 d0748493ed8382191b2b71dac7bd7d661648a772 OP_EQUAL", "type": "scripthash"}, "value": 0.05144241, "n": 1}], "hex": "010000000001014e181f121502b8e26bbee923e964ca9f880d2f312fa1307b5bcf7f653c77a64a0000000023220020bcf9f822194145acea0f3235f4107b5bf1a91b6b9f8489f63bf79ec29b360913ffffffff026d5f87080000000017a91430897cc6c9d69f6a2c2f1c651d51f22219f1a4f687b17e4e000000000017a914d0748493ed8382191b2b71dac7bd7d661648a772870400483045022100aa5207ec100fc12d5692672d42325ac0207de7eced0ae5fe3e705a5c585513b202207d7a4082980206048d26211703c50c7c39c63dba01d3ff03902f7a64c2fd5444014730440220027999c225d954819393659e4934c7b17b08125c3da78a73dc4578dc140758fe02201d231e81cf855f5698e7df03c27ed2fb5c6071ad078d7061ef58417e6fbbe61701695221026c8f72b9e63db63907115e65d4da86eaae595b22fdc85ec75301bb4adbf203582103806535be3e3920e5eedee92de5714188fd6a784f2bf7b04f87de0b9c3ae1ecdb21024b23bfdce2afcae7e28c42f7f79aa100f22931712c52d7414a526ba494d44a2553ae00000000", "vin": [{"txinwitness": ["", "3045022100aa5207ec100fc12d5692672d42325ac0207de7eced0ae5fe3e705a5c585513b202207d7a4082980206048d26211703c50c7c39c63dba01d3ff03902f7a64c2fd544401", "30440220027999c225d954819393659e4934c7b17b08125c3da78a73dc4578dc140758fe02201d231e81cf855f5698e7df03c27ed2fb5c6071ad078d7061ef58417e6fbbe61701", "5221026c8f72b9e63db63907115e65d4da86eaae595b22fdc85ec75301bb4adbf203582103806535be3e3920e5eedee92de5714188fd6a784f2bf7b04f87de0b9c3ae1ecdb21024b23bfdce2afcae7e28c42f7f79aa100f22931712c52d7414a526ba494d44a2553ae"], "sequence": 4294967295, "scriptSig": {"hex": "220020bcf9f822194145acea0f3235f4107b5bf1a91b6b9f8489f63bf79ec29b360913", "asm": "0020bcf9f822194145acea0f3235f4107b5bf1a91b6b9f8489f63bf79ec29b360913"}, "vout": 0, "txid": "4aa6773c657fcf5b7b30a12f312f0d889fca64e923e9be6be2b80215121f184e"}], "txid": "930c431683152d390353314638fa950f1af5bbb3824f9bed60949080fa43015b", "blocktime": 1537872475, "version": 1, "confirmations": 11486, "time": 1537872475, "locktime": 0, "vsize": 214, "size": 405}