{"hash": "930f472a4cf951a81d07748f3eda20bfc3ed80c1f90a142f3066910ce4303ae3", "blockhash": "0000000000000000001e0dab787dd257d1dbfcb92a98c2207d5e1078be1f4165", "vout": [{"scriptPubKey": {"reqSigs": 1, "hex": "a914ee774e138b2e9e66664e55859faf5f6d804c31d887", "addresses": ["3PRufex6PocZ5iStBPQNkCQuRKKGZMbRAT"], "asm": "OP_HASH160 ee774e138b2e9e66664e55859faf5f6d804c31d8 OP_EQUAL", "type": "scripthash"}, "value": 0.36554107, "n": 0}, {"scriptPubKey": {"reqSigs": 1, "hex": "76a9144a0f1e2f2b0d7daeec5265f10bbbbe08ed725e8988ac", "addresses": ["17kb7c9ndg7ioSuzMWEHWECdEVUegNkcGc"], "asm": "OP_DUP OP_HASH160 4a0f1e2f2b0d7daeec5265f10bbbbe08ed725e89 OP_EQUALVERIFY OP_CHECKSIG", "type": "pubkeyhash"}, "value": 0.02738842, "n": 1}], "hex": "0100000001533ea139adc5683122572dda5171812a5ef874498d0d57984cf26b14151d5df5000000006b483045022100f3157ad914e3a1e80b44a59739513236e02ee3db4b68bac1fd749964e569b1b802205a8244e2b10e388e286b702ac27cde5e7530bbb1e70c94dbcd6140651d11657c01210363e1776495149c5a4e92acf453a3caa19000fc804e4ba2024b600ba25e09c943ffffffff027bc52d020000000017a914ee774e138b2e9e66664e55859faf5f6d804c31d8879aca2900000000001976a9144a0f1e2f2b0d7daeec5265f10bbbbe08ed725e8988ac00000000", "vin": [{"sequence": 4294967295, "scriptSig": {"hex": "483045022100f3157ad914e3a1e80b44a59739513236e02ee3db4b68bac1fd749964e569b1b802205a8244e2b10e388e286b702ac27cde5e7530bbb1e70c94dbcd6140651d11657c01210363e1776495149c5a4e92acf453a3caa19000fc804e4ba2024b600ba25e09c943", "asm": "3045022100f3157ad914e3a1e80b44a59739513236e02ee3db4b68bac1fd749964e569b1b802205a8244e2b10e388e286b702ac27cde5e7530bbb1e70c94dbcd6140651d11657c[ALL] 0363e1776495149c5a4e92acf453a3caa19000fc804e4ba2024b600ba25e09c943"}, "vout": 0, "txid": "f55d1d15146bf24c98570d8d4974f85e2a817151da2d57223168c5ad39a13e53"}], "txid": "930f472a4cf951a81d07748f3eda20bfc3ed80c1f90a142f3066910ce4303ae3", "blocktime": 1537872475, "version": 1, "confirmations": 11486, "time": 1537872475, "locktime": 0, "vsize": 224, "size": 224}