{"hash": "8a0102deb0e8d9fb1d4dc82814b5d96a0a8299b2f6c9dcf1c17226dfa45bbe7c", "blockhash": "0000000000000000000dcc0f55137456b1a82d3642486a52398922ac4d620174", "vout": [{"scriptPubKey": {"reqSigs": 1, "hex": "76a9146f8bc20adc087260d8302ffce0a253d5c7a0964188ac", "addresses": ["1BAoRrAoAUymYxZEQtseHytZAtjACUmjyz"], "asm": "OP_DUP OP_HASH160 6f8bc20adc087260d8302ffce0a253d5c7a09641 OP_EQUALVERIFY OP_CHECKSIG", "type": "pubkeyhash"}, "value": 0.00326802, "n": 0}, {"scriptPubKey": {"reqSigs": 1, "hex": "a914627aa52932456d89054bd84f86246af3b71b93a887", "addresses": ["3Afj4stdiLG9EktGrMbm252ySonnhYaz8v"], "asm": "OP_HASH160 627aa52932456d89054bd84f86246af3b71b93a8 OP_EQUAL", "type": "scripthash"}, "value": 0.54208359, "n": 1}], "hex": "010000000001011076f76c6b3631084925553cc88f29863569aa01140ab2b1050f56b8aee6279801000000232200205fdd641234b13964b223bd85ad2a4a667ca2099df3d42a1d3b45706a8d81abf0ffffffff0292fc0400000000001976a9146f8bc20adc087260d8302ffce0a253d5c7a0964188ac67273b030000000017a914627aa52932456d89054bd84f86246af3b71b93a8870400483045022100c1910bac984046dc3ad97a88c00ba7b673affb00983151a0f65e1b91e0d4b0b202206c47a04a603713a4507ce460088ad9c66898f64bef687358e5903c869ac9765b01483045022100ed67248b1efdace6b5d69ebb52a0a67503677fab244b176a591007ac39298d02022009600e75d591ea8c9fd618775e0710969c00c4a99323c62a1e48898e602b8f920147522103dcde3832fa56def7b4e783faad1b8af85c3cdd74a5ff4f3c7c216b1075c18da12103c70ae8ded79be1afda73b9ce5ea14a3878908ee160d66a9a717e792bb6db276952ae00000000", "vin": [{"txinwitness": ["", "3045022100c1910bac984046dc3ad97a88c00ba7b673affb00983151a0f65e1b91e0d4b0b202206c47a04a603713a4507ce460088ad9c66898f64bef687358e5903c869ac9765b01", "3045022100ed67248b1efdace6b5d69ebb52a0a67503677fab244b176a591007ac39298d02022009600e75d591ea8c9fd618775e0710969c00c4a99323c62a1e48898e602b8f9201", "522103dcde3832fa56def7b4e783faad1b8af85c3cdd74a5ff4f3c7c216b1075c18da12103c70ae8ded79be1afda73b9ce5ea14a3878908ee160d66a9a717e792bb6db276952ae"], "sequence": 4294967295, "scriptSig": {"hex": "2200205fdd641234b13964b223bd85ad2a4a667ca2099df3d42a1d3b45706a8d81abf0", "asm": "00205fdd641234b13964b223bd85ad2a4a667ca2099df3d42a1d3b45706a8d81abf0"}, "vout": 1, "txid": "9827e6aeb8560f05b1b20a1401aa693586298fc83c5525490831366b6cf77610"}], "txid": "9316e4b8dcc8e9bdf40b90597431e074b8fe9e76765ae246d1c41629be03af81", "blocktime": 1537870268, "version": 1, "confirmations": 11518, "time": 1537870268, "locktime": 0, "vsize": 208, "size": 374}