{"hash": "27b4aa193b4316d138771e56facf954a1059792314fe741f04e325cce00fd11e", "blockhash": "00000000000000000018f53835495a110e01622372bf6ae95dc86f2b0ab887b0", "vout": [{"scriptPubKey": {"reqSigs": 1, "hex": "76a9147aacdadb8e4d97f9f573a9af1779014f3396babb88ac", "addresses": ["1CBeWaFEE19BDkEBYvGbaGNsu1wY7Kis4o"], "asm": "OP_DUP OP_HASH160 7aacdadb8e4d97f9f573a9af1779014f3396babb OP_EQUALVERIFY OP_CHECKSIG", "type": "pubkeyhash"}, "value": 0.0001, "n": 0}, {"scriptPubKey": {"reqSigs": 1, "hex": "76a914889a8e9d2796174c9fa248b3cc85a77b691555d288ac", "addresses": ["1DTJ3uQNsn7GypFEQc9vidr9xf6TyzreHo"], "asm": "OP_DUP OP_HASH160 889a8e9d2796174c9fa248b3cc85a77b691555d2 OP_EQUALVERIFY OP_CHECKSIG", "type": "pubkeyhash"}, "value": 0.00056655, "n": 1}, {"scriptPubKey": {"reqSigs": 1, "hex": "a914d65e0a0d6aae579615fc409ec71a5bece5eb394387", "addresses": ["3MEVBZLNMrJvXsGGCpkVgKwXdZBU62mAiw"], "asm": "OP_HASH160 d65e0a0d6aae579615fc409ec71a5bece5eb3943 OP_EQUAL", "type": "scripthash"}, "value": 0.0001977, "n": 2}, {"scriptPubKey": {"reqSigs": 1, "hex": "a914248331b282a1d1877d009713b3e71d45e30b167d87", "addresses": ["3525QyewvuKD7Yh2Au4P7McoxZiEPyTFKv"], "asm": "OP_HASH160 248331b282a1d1877d009713b3e71d45e30b167d OP_EQUAL", "type": "scripthash"}, "value": 0.19656523, "n": 3}, {"scriptPubKey": {"reqSigs": 1, "hex": "76a9142469a10c4e5f6ba53bc506c9f5c84ea71b15db7088ac", "addresses": ["14KXs9MTn6Z9MHUBywd5KNTL7zCFRDWpht"], "asm": "OP_DUP OP_HASH160 2469a10c4e5f6ba53bc506c9f5c84ea71b15db70 OP_EQUALVERIFY OP_CHECKSIG", "type": "pubkeyhash"}, "value": 0.001, "n": 4}, {"scriptPubKey": {"reqSigs": 1, "hex": "76a9145ad22444ff4e2d4fb183af74bc54eeab8dd74c2988ac", "addresses": ["19HDZAYKfsavFjr4BraxtFRssy2EByJJii"], "asm": "OP_DUP OP_HASH160 5ad22444ff4e2d4fb183af74bc54eeab8dd74c29 OP_EQUALVERIFY OP_CHECKSIG", "type": "pubkeyhash"}, "value": 0.00069507, "n": 5}, {"scriptPubKey": {"reqSigs": 1, "hex": "a9142f736729ad07dfa4078ec99a3abc0c16849f1b1f87", "addresses": ["361uvu7mvCKDucrsR1DypXkjCKw4rNAYuW"], "asm": "OP_HASH160 2f736729ad07dfa4078ec99a3abc0c16849f1b1f OP_EQUAL", "type": "scripthash"}, "value": 0.00454, "n": 6}, {"scriptPubKey": {"reqSigs": 1, "hex": "a91477b9033fe4d6644644cf23bc8e9928d8d803de4987", "addresses": ["3Cc3yH8T5FaZDkcj6vt1FvJi442hzqP8if"], "asm": "OP_HASH160 77b9033fe4d6644644cf23bc8e9928d8d803de49 OP_EQUAL", "type": "scripthash"}, "value": 0.00282987, "n": 7}, {"scriptPubKey": {"reqSigs": 1, "hex": "a9142b56e663b7ab1758b4001ce9ce136004668d5af287", "addresses": ["35eB5hzBUM4Hgt8LxTQ1X3NjipoBBoqnwP"], "asm": "OP_HASH160 2b56e663b7ab1758b4001ce9ce136004668d5af2 OP_EQUAL", "type": "scripthash"}, "value": 0.00133, "n": 8}, {"scriptPubKey": {"reqSigs": 1, "hex": "76a91402a344e4aa93126f954066047aee9e752a3058e188ac", "addresses": ["1EwwXCGGAznJuzCsYcd98YmsaXtezvQqv"], "asm": "OP_DUP OP_HASH160 02a344e4aa93126f954066047aee9e752a3058e1 OP_EQUALVERIFY OP_CHECKSIG", "type": "pubkeyhash"}, "value": 0.0015596, "n": 9}, {"scriptPubKey": {"reqSigs": 1, "hex": "a91443918b6565ffb64f6829c6780125d01b1ccf356987", "addresses": ["37rHZ1LcdEfjoJZxFq1thYfryTdJnQEk9D"], "asm": "OP_HASH160 43918b6565ffb64f6829c6780125d01b1ccf3569 OP_EQUAL", "type": "scripthash"}, "value": 0.00015179, "n": 10}, {"scriptPubKey": {"reqSigs": 1, "hex": "76a9147b6d39306c939cd0fdb55d679c465292623ab17088ac", "addresses": ["1CFcxa3QNjmf1KSPTvL9b6kwxeiaVfNGox"], "asm": "OP_DUP OP_HASH160 7b6d39306c939cd0fdb55d679c465292623ab170 OP_EQUALVERIFY OP_CHECKSIG", "type": "pubkeyhash"}, "value": 0.00015, "n": 11}, {"scriptPubKey": {"reqSigs": 1, "hex": "76a914a92fb26670543cc6fc8dfa149424933ae9538dcc88ac", "addresses": ["1GRaLTUBXxUVVXuwQneWX6BUeBDhCb4V4x"], "asm": "OP_DUP OP_HASH160 a92fb26670543cc6fc8dfa149424933ae9538dcc OP_EQUALVERIFY OP_CHECKSIG", "type": "pubkeyhash"}, "value": 0.026, "n": 12}], "hex": "01000000000101eb385251dabb83834ec37ec365eaf71a8a6e13a3e3b601c2876851ccd0c53c6a02000000232200209cfc70055db6d10271b97415dfc99ddf6aad5ccd45af1052e988062372058d82ffffffff0d10270000000000001976a9147aacdadb8e4d97f9f573a9af1779014f3396babb88ac4fdd0000000000001976a914889a8e9d2796174c9fa248b3cc85a77b691555d288ac3a4d00000000000017a914d65e0a0d6aae579615fc409ec71a5bece5eb3943874bef2b010000000017a914248331b282a1d1877d009713b3e71d45e30b167d87a0860100000000001976a9142469a10c4e5f6ba53bc506c9f5c84ea71b15db7088ac830f0100000000001976a9145ad22444ff4e2d4fb183af74bc54eeab8dd74c2988ac70ed06000000000017a9142f736729ad07dfa4078ec99a3abc0c16849f1b1f876b5104000000000017a91477b9033fe4d6644644cf23bc8e9928d8d803de4987880702000000000017a9142b56e663b7ab1758b4001ce9ce136004668d5af28738610200000000001976a91402a344e4aa93126f954066047aee9e752a3058e188ac4b3b00000000000017a91443918b6565ffb64f6829c6780125d01b1ccf356987983a0000000000001976a9147b6d39306c939cd0fdb55d679c465292623ab17088ac40ac2700000000001976a914a92fb26670543cc6fc8dfa149424933ae9538dcc88ac0400463043021f718f1cf4b77291ce7bde22b49627267571810d7dac6f14f9a478196f2309f702206e66a5bd0961e956c358f8dfd1a47f310914296c49622002f432ad558028d96a01483045022100ff48176bd8a7f474c265ec80af7eb7a1f2e3d7e3d7b870861ac827525493df4b02205c00f87f005ee7dae74b3a4c4b9d92397273fc4d7829c3dc04d97b4d80a63d3b016952210210a4239a5c5e89776d5ce5e51f41bd4e75710400991170d2fc136005c6cdbf9d2103e4cfa47d2f07ab275ce504163808063912b2b22a54740563599f16f71f1a1f072103413fc0c9deed00807d9ffe81a355e9d921e0933b2196a5f2bbb779800452389053ae00000000", "vin": [{"txinwitness": ["", "3043021f718f1cf4b77291ce7bde22b49627267571810d7dac6f14f9a478196f2309f702206e66a5bd0961e956c358f8dfd1a47f310914296c49622002f432ad558028d96a01", "3045022100ff48176bd8a7f474c265ec80af7eb7a1f2e3d7e3d7b870861ac827525493df4b02205c00f87f005ee7dae74b3a4c4b9d92397273fc4d7829c3dc04d97b4d80a63d3b01", "52210210a4239a5c5e89776d5ce5e51f41bd4e75710400991170d2fc136005c6cdbf9d2103e4cfa47d2f07ab275ce504163808063912b2b22a54740563599f16f71f1a1f072103413fc0c9deed00807d9ffe81a355e9d921e0933b2196a5f2bbb779800452389053ae"], "sequence": 4294967295, "scriptSig": {"hex": "2200209cfc70055db6d10271b97415dfc99ddf6aad5ccd45af1052e988062372058d82", "asm": "00209cfc70055db6d10271b97415dfc99ddf6aad5ccd45af1052e988062372058d82"}, "vout": 2, "txid": "6a3cc5d0cc516887c201b6e3a3136e8a1af7ea65c37ec34e8383bbda515238eb"}], "txid": "93272cd4193f811050f5cfe16d1b91e80b11f5ec8b31a7d1981efc20458590cf", "blocktime": 1537870928, "version": 1, "confirmations": 11514, "time": 1537870928, "locktime": 0, "vsize": 580, "size": 770}