{"hash": "93289eda3fb9d4ac7ed36d815f37eb25beb23cfc100a5561792f9d8476030aec", "blockhash": "0000000000000000000baef3f32e3676a92c3b2e5da21b426e4f302fc371ce76", "vout": [{"scriptPubKey": {"reqSigs": 1, "hex": "a9142cc85c442204e78c5224bf44a5cef87d5baa563787", "addresses": ["35mogGcPW82Fd9uAfnmrzpnwY1cGWggzXf"], "asm": "OP_HASH160 2cc85c442204e78c5224bf44a5cef87d5baa5637 OP_EQUAL", "type": "scripthash"}, "value": 0.01082, "n": 0}, {"scriptPubKey": {"reqSigs": 1, "hex": "76a9147d1850bb6aa94539c670b3f6ecd009051726aaf588ac", "addresses": ["1CQSbSVsPvL428NiRXrE2hxRLpvzwLCStz"], "asm": "OP_DUP OP_HASH160 7d1850bb6aa94539c670b3f6ecd009051726aaf5 OP_EQUALVERIFY OP_CHECKSIG", "type": "pubkeyhash"}, "value": 0.290146, "n": 1}], "hex": "0100000001b9987f8d45d4687e7c5986f254319d29758921e7e685a633c1c5fd39b842cac3010000006a473044022035b8eba49e7ff55fb5a3c47b4ac69ef98094b1d7cc0de4cdec5b874ae050ef130220484b71ed75995f66e46d85c8de5a5b4ca39594fc62ae425234ee1710b039b2d6012102605e9904e475239ac97b5fbe71de83c4dcb64faf4952e3cacd455fb59378c26dfeffffff02908210000000000017a9142cc85c442204e78c5224bf44a5cef87d5baa56378748baba01000000001976a9147d1850bb6aa94539c670b3f6ecd009051726aaf588ac16490800", "vin": [{"sequence": 4294967294, "scriptSig": {"hex": "473044022035b8eba49e7ff55fb5a3c47b4ac69ef98094b1d7cc0de4cdec5b874ae050ef130220484b71ed75995f66e46d85c8de5a5b4ca39594fc62ae425234ee1710b039b2d6012102605e9904e475239ac97b5fbe71de83c4dcb64faf4952e3cacd455fb59378c26d", "asm": "3044022035b8eba49e7ff55fb5a3c47b4ac69ef98094b1d7cc0de4cdec5b874ae050ef130220484b71ed75995f66e46d85c8de5a5b4ca39594fc62ae425234ee1710b039b2d6[ALL] 02605e9904e475239ac97b5fbe71de83c4dcb64faf4952e3cacd455fb59378c26d"}, "vout": 1, "txid": "c3ca42b839fdc5c133a685e6e7218975299d3154f286597c7e68d4458d7f98b9"}], "txid": "93289eda3fb9d4ac7ed36d815f37eb25beb23cfc100a5561792f9d8476030aec", "blocktime": 1537876114, "version": 1, "confirmations": 11460, "time": 1537876114, "locktime": 542998, "vsize": 223, "size": 223}