{"hash": "7cc4ccacfff79ad282145673d17ffd16cc327ff080d6e1e072137736bf4d7b4d", "blockhash": "0000000000000000001e0dab787dd257d1dbfcb92a98c2207d5e1078be1f4165", "vout": [{"scriptPubKey": {"reqSigs": 1, "hex": "76a9143144cfa6b12f0afc37e43433528d4c05983fb3e788ac", "addresses": ["15VWYUvBVYuvuTNUYxLJHhK3KYydvX5qb1"], "asm": "OP_DUP OP_HASH160 3144cfa6b12f0afc37e43433528d4c05983fb3e7 OP_EQUALVERIFY OP_CHECKSIG", "type": "pubkeyhash"}, "value": 0.0015, "n": 0}, {"scriptPubKey": {"reqSigs": 1, "hex": "0014b7249657b0274b1a00c72a2a2e5b781028127cc6", "addresses": ["bc1qkujfv4asya935qx89g4zukmczq5pylxx9u0y3j"], "asm": "0 b7249657b0274b1a00c72a2a2e5b781028127cc6", "type": "witness_v0_keyhash"}, "value": 1.412e-05, "n": 1}], "hex": "0100000000010192497b2e5b1c58db3fa849614ba8cbddf78ecd6a9cd4d75f7f46ff960a8af96700000000171600142f04b2dfa38e8976b7f5b54cf9a5518bf8b97265ffffffff02f0490200000000001976a9143144cfa6b12f0afc37e43433528d4c05983fb3e788ac8405000000000000160014b7249657b0274b1a00c72a2a2e5b781028127cc602483045022100ed8880bb8a537a55868f1eea214c26ec91c47d37e13147dbfa309ccca7e255280220654eb672b92b1b9d594b37fe01fb8e61e7c6864f10cc419bebfc007cf6ebe4200121032f150581b57a7027a782a4f15fe55161180fa325a145a6ab59a7815823a116aa00000000", "vin": [{"txinwitness": ["3045022100ed8880bb8a537a55868f1eea214c26ec91c47d37e13147dbfa309ccca7e255280220654eb672b92b1b9d594b37fe01fb8e61e7c6864f10cc419bebfc007cf6ebe42001", "032f150581b57a7027a782a4f15fe55161180fa325a145a6ab59a7815823a116aa"], "sequence": 4294967295, "scriptSig": {"hex": "1600142f04b2dfa38e8976b7f5b54cf9a5518bf8b97265", "asm": "00142f04b2dfa38e8976b7f5b54cf9a5518bf8b97265"}, "vout": 0, "txid": "67f98a0a96ff467f5fd7d49c6acd8ef7ddcba84b6149a83fdb581c5b2e7b4992"}], "txid": "932b7c68ed5ba30a3b8cf76ec97d3f617e3d97d51eb2c583b5ec263ecc89f543", "blocktime": 1537872475, "version": 1, "confirmations": 11487, "time": 1537872475, "locktime": 0, "vsize": 167, "size": 249}