{"hash": "932f9236e1697fe76a43301cec4a7217ec29828658bb6244cfe43ed4c0623d35", "blockhash": "000000000000000000022b45ed06c6f4ccd3cf7fb5ba4856ebd2e58215665228", "vout": [{"scriptPubKey": {"reqSigs": 1, "hex": "21020e46e79a2a8d12b9b5d12c7a91adb4e454edfae43c0a0cb805427d2ac7613fd9ac", "addresses": ["1P3rU1Nk1pmc2BiWC8dEy9bZa1ZbMp5jfg"], "asm": "020e46e79a2a8d12b9b5d12c7a91adb4e454edfae43c0a0cb805427d2ac7613fd9 OP_CHECKSIG", "type": "pubkey"}, "value": 0.000988, "n": 0}, {"scriptPubKey": {"type": "nulldata", "hex": "6a281fbc98c63df878affd3190b5098ba248526fd3311434934f59890e6605000000c0a30f004b4d4400", "asm": "OP_RETURN 1fbc98c63df878affd3190b5098ba248526fd3311434934f59890e6605000000c0a30f004b4d4400"}, "value": 0.0, "n": 1}], "hex": "010000000da12d4054dae42c6602ef699449035a4f3265263ee484164855bfbcf73b89fe340300000049483045022100cc151ee20e3baef7d11ab81df925835abddefb96ca958e4ced76fcdc912b5444022005d587b1b3643ed5f2c3de23c67183c26b9bdff619f9498550b0d4077c99421101ffffffff8406cda80cb1265e4bd2097043695a390b5ec2bd5f09fdcf1efe981d45876c87010000004847304402205461027ce19f2c6e3dd9c4b395ba05fe1598fe9e1315cb198bd8cccea5fba438022073ba8daa58ceb1fd6627335f8280adb096d9f3c8b1b4e237b89173ae87128b5901ffffffffae306bddcc4995181d739ea50b3756d139f899c0ae87eaa008f7a5b96eb4c1ea01000000484730440220447701877b9c64ae3e7c4a012d36e76b3769be2acdf557944655ee446b25c35e02203a861c6c187721bffbdaaa34d1a3b55718cb3a9ddc26af199bdcb15038d2437301ffffffff95ab01a7e75a12b8679763a7959252fbaabfbacc586ec44ab2cc35051d39923e0700000049483045022100eccc63eda8409aac78e9357d8263602fda6dd86a8b350b44a3037228e04089cd022065102c06e30b5bb013cc34ece5d4efefd37b2df0d4a1adb6e0eb661ef4772dac01ffffffff4cc7d91317e92a706f49a227aac69bf68d81d84972154b8b1753a7d1b2e3d690080000004948304502210095c91b25fee0045a67831f4846f84969dc6cb2f0c5ae13f0329971ce96eb597402207d11778154bd1e65a361e014967c485c4eb172a6c64a67f7765844e5797052b801ffffffffb63e28cb4ce7a2526ad5e18838f255abe7cf9d9773b65f70540256759f3840680900000049483045022100df649f7c7ca07f17772b99a152973485192ffd8e42b8fbf37cc519fc0ff27ed60220751a2d4e06e8f56d67ae6c14d595c410fef5a95324e848704167fe818609ec8201ffffffff97b5c979660ad1b7c495f067f67f026d4fe31fd39e0dce566178367ca84801cc0900000049483045022100c8dca664bfe999c2594f2056e333f3c6687c63cb63d9a8ffe0e5e8a6db7bac4c022028b5681934f8081259b1769f5c34cc51f53f6b41550e55e85e4751d0a877d92e01ffffffffbd42761afba10e623673acbed99e87fbf32fb2cae8243054c3389e45a8d85c430100000048473044022033f15e093caa1834f4ac5c5913ba0906592091c1050c26e3212122a5874a8a330220141953d35f8599f2b896f9a769923a3e9c8788b3bebc35ab2f8bf48aad122b2701ffffffff90488b9db352224e4720ddab5832a4cf5c5809544d27ed3fca4a64c2fc624e5a2f000000484730440220375792e009b6ac293f611900847aeaacf48dedf7d2b8396479b1d07e6a2205670220696e15ca7ba180bdfaa9aa8f55a8d88c20a6fab3d998275fa4bd41dd6a8e58a701fffffffff0997477435d09782de9df89263f9d151c8abd21561f04f316ba34f2f3f8305e06000000484730440220787e2878b6e48e06fdd17d7fd34185dba047f98b5a3d53eba5ac9b0d8a2544b002206cfec53c8fb2090d4eae521c82b086eb3bb6f209074fbf5e802ff88249e57bca01ffffffffebecacb85bc040a7bbe39659f0845298c1071736c8f569b77eb2abc4f248cc030200000049483045022100df9aef194970ed39569fbca0dd1159ea1abd1761e58e7931d5d7b1775e412af80220632835719f72c6f90c0f317aaf9bdd70cf3c3150d12c2e3f8ceeb0c48c91ee3701ffffffff704cf182546917c3e578d780f0272c21db73358d2ce1ce67b82c841ec351f9930f0000004847304402202554ea2f2db0caa7d0374affca9fac88210b68ddf163ad38c03fd8af5718f8cd022015e5a0d8575a2b37d0f9609e18a5dced048caae481a215f8834b772005f7ea0b01ffffffff1c4f723638f55e300d188968a331e1aea6dd60d2b2123ee702d21f23eda7008b0b00000048473044022037925d38236b7a8abbd34b8daced21a38813fd9126977b2abe1f15e5731dcbea0220772bdf2b38db4edecff950fd4a9c4a1f5c61beff31041f280742ae79c76d25ae01ffffffff02f0810100000000002321020e46e79a2a8d12b9b5d12c7a91adb4e454edfae43c0a0cb805427d2ac7613fd9ac00000000000000002a6a281fbc98c63df878affd3190b5098ba248526fd3311434934f59890e6605000000c0a30f004b4d440000000000", "vin": [{"sequence": 4294967295, "scriptSig": {"hex": "483045022100cc151ee20e3baef7d11ab81df925835abddefb96ca958e4ced76fcdc912b5444022005d587b1b3643ed5f2c3de23c67183c26b9bdff619f9498550b0d4077c99421101", "asm": "3045022100cc151ee20e3baef7d11ab81df925835abddefb96ca958e4ced76fcdc912b5444022005d587b1b3643ed5f2c3de23c67183c26b9bdff619f9498550b0d4077c994211[ALL]"}, "vout": 3, "txid": "34fe893bf7bcbf55481684e43e2665324f5a03499469ef02662ce4da54402da1"}, {"sequence": 4294967295, "scriptSig": {"hex": "47304402205461027ce19f2c6e3dd9c4b395ba05fe1598fe9e1315cb198bd8cccea5fba438022073ba8daa58ceb1fd6627335f8280adb096d9f3c8b1b4e237b89173ae87128b5901", "asm": "304402205461027ce19f2c6e3dd9c4b395ba05fe1598fe9e1315cb198bd8cccea5fba438022073ba8daa58ceb1fd6627335f8280adb096d9f3c8b1b4e237b89173ae87128b59[ALL]"}, "vout": 1, "txid": "876c87451d98fe1ecffd095fbdc25e0b395a69437009d24b5e26b10ca8cd0684"}, {"sequence": 4294967295, "scriptSig": {"hex": "4730440220447701877b9c64ae3e7c4a012d36e76b3769be2acdf557944655ee446b25c35e02203a861c6c187721bffbdaaa34d1a3b55718cb3a9ddc26af199bdcb15038d2437301", "asm": "30440220447701877b9c64ae3e7c4a012d36e76b3769be2acdf557944655ee446b25c35e02203a861c6c187721bffbdaaa34d1a3b55718cb3a9ddc26af199bdcb15038d24373[ALL]"}, "vout": 1, "txid": "eac1b46eb9a5f708a0ea87aec099f839d156370ba59e731d189549ccdd6b30ae"}, {"sequence": 4294967295, "scriptSig": {"hex": "483045022100eccc63eda8409aac78e9357d8263602fda6dd86a8b350b44a3037228e04089cd022065102c06e30b5bb013cc34ece5d4efefd37b2df0d4a1adb6e0eb661ef4772dac01", "asm": "3045022100eccc63eda8409aac78e9357d8263602fda6dd86a8b350b44a3037228e04089cd022065102c06e30b5bb013cc34ece5d4efefd37b2df0d4a1adb6e0eb661ef4772dac[ALL]"}, "vout": 7, "txid": "3e92391d0535ccb24ac46e58ccbabfaafb529295a7639767b8125ae7a701ab95"}, {"sequence": 4294967295, "scriptSig": {"hex": "48304502210095c91b25fee0045a67831f4846f84969dc6cb2f0c5ae13f0329971ce96eb597402207d11778154bd1e65a361e014967c485c4eb172a6c64a67f7765844e5797052b801", "asm": "304502210095c91b25fee0045a67831f4846f84969dc6cb2f0c5ae13f0329971ce96eb597402207d11778154bd1e65a361e014967c485c4eb172a6c64a67f7765844e5797052b8[ALL]"}, "vout": 8, "txid": "90d6e3b2d1a753178b4b157249d8818df69bc6aa27a2496f702ae91713d9c74c"}, {"sequence": 4294967295, "scriptSig": {"hex": "483045022100df649f7c7ca07f17772b99a152973485192ffd8e42b8fbf37cc519fc0ff27ed60220751a2d4e06e8f56d67ae6c14d595c410fef5a95324e848704167fe818609ec8201", "asm": "3045022100df649f7c7ca07f17772b99a152973485192ffd8e42b8fbf37cc519fc0ff27ed60220751a2d4e06e8f56d67ae6c14d595c410fef5a95324e848704167fe818609ec82[ALL]"}, "vout": 9, "txid": "6840389f75560254705fb673979dcfe7ab55f23888e1d56a52a2e74ccb283eb6"}, {"sequence": 4294967295, "scriptSig": {"hex": "483045022100c8dca664bfe999c2594f2056e333f3c6687c63cb63d9a8ffe0e5e8a6db7bac4c022028b5681934f8081259b1769f5c34cc51f53f6b41550e55e85e4751d0a877d92e01", "asm": "3045022100c8dca664bfe999c2594f2056e333f3c6687c63cb63d9a8ffe0e5e8a6db7bac4c022028b5681934f8081259b1769f5c34cc51f53f6b41550e55e85e4751d0a877d92e[ALL]"}, "vout": 9, "txid": "cc0148a87c36786156ce0d9ed31fe34f6d027ff667f095c4b7d10a6679c9b597"}, {"sequence": 4294967295, "scriptSig": {"hex": "473044022033f15e093caa1834f4ac5c5913ba0906592091c1050c26e3212122a5874a8a330220141953d35f8599f2b896f9a769923a3e9c8788b3bebc35ab2f8bf48aad122b2701", "asm": "3044022033f15e093caa1834f4ac5c5913ba0906592091c1050c26e3212122a5874a8a330220141953d35f8599f2b896f9a769923a3e9c8788b3bebc35ab2f8bf48aad122b27[ALL]"}, "vout": 1, "txid": "435cd8a8459e38c3543024e8cab22ff3fb879ed9beac7336620ea1fb1a7642bd"}, {"sequence": 4294967295, "scriptSig": {"hex": "4730440220375792e009b6ac293f611900847aeaacf48dedf7d2b8396479b1d07e6a2205670220696e15ca7ba180bdfaa9aa8f55a8d88c20a6fab3d998275fa4bd41dd6a8e58a701", "asm": "30440220375792e009b6ac293f611900847aeaacf48dedf7d2b8396479b1d07e6a2205670220696e15ca7ba180bdfaa9aa8f55a8d88c20a6fab3d998275fa4bd41dd6a8e58a7[ALL]"}, "vout": 47, "txid": "5a4e62fcc2644aca3fed274d5409585ccfa43258abdd20474e2252b39d8b4890"}, {"sequence": 4294967295, "scriptSig": {"hex": "4730440220787e2878b6e48e06fdd17d7fd34185dba047f98b5a3d53eba5ac9b0d8a2544b002206cfec53c8fb2090d4eae521c82b086eb3bb6f209074fbf5e802ff88249e57bca01", "asm": "30440220787e2878b6e48e06fdd17d7fd34185dba047f98b5a3d53eba5ac9b0d8a2544b002206cfec53c8fb2090d4eae521c82b086eb3bb6f209074fbf5e802ff88249e57bca[ALL]"}, "vout": 6, "txid": "5e30f8f3f234ba16f3041f5621bd8a1c159d3f2689dfe92d78095d43777499f0"}, {"sequence": 4294967295, "scriptSig": {"hex": "483045022100df9aef194970ed39569fbca0dd1159ea1abd1761e58e7931d5d7b1775e412af80220632835719f72c6f90c0f317aaf9bdd70cf3c3150d12c2e3f8ceeb0c48c91ee3701", "asm": "3045022100df9aef194970ed39569fbca0dd1159ea1abd1761e58e7931d5d7b1775e412af80220632835719f72c6f90c0f317aaf9bdd70cf3c3150d12c2e3f8ceeb0c48c91ee37[ALL]"}, "vout": 2, "txid": "03cc48f2c4abb27eb769f5c8361707c1985284f05996e3bba740c05bb8aceceb"}, {"sequence": 4294967295, "scriptSig": {"hex": "47304402202554ea2f2db0caa7d0374affca9fac88210b68ddf163ad38c03fd8af5718f8cd022015e5a0d8575a2b37d0f9609e18a5dced048caae481a215f8834b772005f7ea0b01", "asm": "304402202554ea2f2db0caa7d0374affca9fac88210b68ddf163ad38c03fd8af5718f8cd022015e5a0d8575a2b37d0f9609e18a5dced048caae481a215f8834b772005f7ea0b[ALL]"}, "vout": 15, "txid": "93f951c31e842cb867cee12c8d3573db212c27f080d778e5c317695482f14c70"}, {"sequence": 4294967295, "scriptSig": {"hex": "473044022037925d38236b7a8abbd34b8daced21a38813fd9126977b2abe1f15e5731dcbea0220772bdf2b38db4edecff950fd4a9c4a1f5c61beff31041f280742ae79c76d25ae01", "asm": "3044022037925d38236b7a8abbd34b8daced21a38813fd9126977b2abe1f15e5731dcbea0220772bdf2b38db4edecff950fd4a9c4a1f5c61beff31041f280742ae79c76d25ae[ALL]"}, "vout": 11, "txid": "8b00a7ed231fd202e73e12b2d260dda6aee131a36889180d305ef53836724f1c"}], "txid": "932f9236e1697fe76a43301cec4a7217ec29828658bb6244cfe43ed4c0623d35", "blocktime": 1537869901, "version": 1, "confirmations": 11522, "time": 1537869901, "locktime": 0, "vsize": 1580, "size": 1580}