{"hash": "f901b5cc66bd50faadae65ca9af4209d958cff82428ac7e108965f8e3d38b592", "blockhash": "00000000000000000017f5eb5941039fbcee6240d03bc1f2f8e35350df66a1d8", "vout": [{"scriptPubKey": {"reqSigs": 1, "hex": "a914e3a21279aef7106bf39353eb72e8005ee5dde26087", "addresses": ["3NSdU4VSjLqkoTprk4mFYygpurQoPUU3RF"], "asm": "OP_HASH160 e3a21279aef7106bf39353eb72e8005ee5dde260 OP_EQUAL", "type": "scripthash"}, "value": 0.03110751, "n": 0}, {"scriptPubKey": {"reqSigs": 1, "hex": "a914bbf3417566bd2581cb37defb3961517d4068892987", "addresses": ["3Jpoh7oxAcazKqTW4NbKsjqXKVuUSKAKD7"], "asm": "OP_HASH160 bbf3417566bd2581cb37defb3961517d40688929 OP_EQUAL", "type": "scripthash"}, "value": 0.07384966, "n": 1}], "hex": "010000000001019c7dac9582880968f8d1ab98d8678c5436053471a1cb2a5dddeaa972869c5a440100000017160014fff182bc54fcdf81fbd8419e76b64a22bb3592d8ffffffff025f772f000000000017a914e3a21279aef7106bf39353eb72e8005ee5dde2608786af70000000000017a914bbf3417566bd2581cb37defb3961517d406889298702483045022100d4ccbb36e60be0ff646d67048b52332072ff511f76bc27bd4251e15ae3869434022012043291eede415a59cdda7e91870a436c9f9350f474118c212ea10c0e753f210121026ee0d2022f93134778a0f0957db609a721e68ce9758bdf85c77841d2953c18e500000000", "vin": [{"txinwitness": ["3045022100d4ccbb36e60be0ff646d67048b52332072ff511f76bc27bd4251e15ae3869434022012043291eede415a59cdda7e91870a436c9f9350f474118c212ea10c0e753f2101", "026ee0d2022f93134778a0f0957db609a721e68ce9758bdf85c77841d2953c18e5"], "sequence": 4294967295, "scriptSig": {"hex": "160014fff182bc54fcdf81fbd8419e76b64a22bb3592d8", "asm": "0014fff182bc54fcdf81fbd8419e76b64a22bb3592d8"}, "vout": 1, "txid": "445a9c8672a9eadd5d2acba171340536548c67d898abd1f86809888295ac7d9c"}], "txid": "932f18d17670cee612999225a02aa3401fe90d1cbd6a8c00ec807e25bfa7d18d", "blocktime": 1537874412, "version": 1, "confirmations": 11468, "time": 1537874412, "locktime": 0, "vsize": 166, "size": 248}