{"hash": "68cbfced9b1b1548218d9eedb43430706b3001278e7749a958051bcbcb96b0f3", "blockhash": "000000000000000000022b45ed06c6f4ccd3cf7fb5ba4856ebd2e58215665228", "vout": [{"scriptPubKey": {"reqSigs": 1, "hex": "a9142b15b1040ba1a0ef814d699f2077c241bb495b6387", "addresses": ["35cpxwbQbVtARnHKc3tLFVH6irQBjeHqYQ"], "asm": "OP_HASH160 2b15b1040ba1a0ef814d699f2077c241bb495b63 OP_EQUAL", "type": "scripthash"}, "value": 0.01068857, "n": 0}, {"scriptPubKey": {"reqSigs": 1, "hex": "76a9148dce5fc1e415529841e6909824fe9dd3e626a72788ac", "addresses": ["1DvoWAnFa6f76tfTdUcuDP1yttsDhg2XCw"], "asm": "OP_DUP OP_HASH160 8dce5fc1e415529841e6909824fe9dd3e626a727 OP_EQUALVERIFY OP_CHECKSIG", "type": "pubkeyhash"}, "value": 0.0019206, "n": 1}], "hex": "020000000001022cab42be324bb4d5303713b93bc27bfb165164b6fcc0d57c7ad45d59592da4c41d00000017160014076d4ab38ebe911c5959dc727df7f042f44e4524feffffff8f9e9b3525e15e6ab995bc61eeeab55824f9a65edaa7dae8f352991ff21e5770010000001716001449ce834d0898f3c111fe24b5c57177c9c8416257feffffff02394f10000000000017a9142b15b1040ba1a0ef814d699f2077c241bb495b63873cee0200000000001976a9148dce5fc1e415529841e6909824fe9dd3e626a72788ac0247304402205ebb210b0abc32d43b211596a5832ebcccba05a0a232e205532b4a34c23bf98a0220648909652d61ee4e9c49b231c9741ef3600e7d7b39fdab7aa7eea51b6aaa8737012103b329f3fa536429fb382602746966df84a76f4e6d54c2b3a94779ce700f5b68020247304402202d315d8146ea28a9ac76255d1f13e4022523730aa3957c9281fdc433f890a6f20220428de6646ded3bf9f087b9efa0e6af39de0e304ffb36b7b532a31764434e4a12012102a1895a6bb34c2f10cf27cd40e2b2408f5c260a0d80285142b2462be7ac621c7d0b490800", "vin": [{"txinwitness": ["304402205ebb210b0abc32d43b211596a5832ebcccba05a0a232e205532b4a34c23bf98a0220648909652d61ee4e9c49b231c9741ef3600e7d7b39fdab7aa7eea51b6aaa873701", "03b329f3fa536429fb382602746966df84a76f4e6d54c2b3a94779ce700f5b6802"], "sequence": 4294967294, "scriptSig": {"hex": "160014076d4ab38ebe911c5959dc727df7f042f44e4524", "asm": "0014076d4ab38ebe911c5959dc727df7f042f44e4524"}, "vout": 29, "txid": "c4a42d59595dd47a7cd5c0fcb6645116fb7bc23bb9133730d5b44b32be42ab2c"}, {"txinwitness": ["304402202d315d8146ea28a9ac76255d1f13e4022523730aa3957c9281fdc433f890a6f20220428de6646ded3bf9f087b9efa0e6af39de0e304ffb36b7b532a31764434e4a1201", "02a1895a6bb34c2f10cf27cd40e2b2408f5c260a0d80285142b2462be7ac621c7d"], "sequence": 4294967294, "scriptSig": {"hex": "16001449ce834d0898f3c111fe24b5c57177c9c8416257", "asm": "001449ce834d0898f3c111fe24b5c57177c9c8416257"}, "vout": 1, "txid": "70571ef21f9952f3e8daa7da5ea6f92458b5eaee61bc95b96a5ee125359b9e8f"}], "txid": "93331871b7b5a6b58c97df027b633b0f6a547c10e70444d371abb31d48bd25df", "blocktime": 1537869901, "version": 2, "confirmations": 11524, "time": 1537869901, "locktime": 542987, "vsize": 258, "size": 420}