{"hash": "93378abe04a9b47d02716ab09bf5b1bc0e3473944f4b7a4329e9bfddb43f7bbe", "blockhash": "00000000000000000018f53835495a110e01622372bf6ae95dc86f2b0ab887b0", "vout": [{"scriptPubKey": {"reqSigs": 1, "hex": "76a9149f98c94d2b3e046d41a9acec277cc53818c019dd88ac", "addresses": ["1FYsUHLM6WJpGKfiodXuw3M5U5HSrVLWDB"], "asm": "OP_DUP OP_HASH160 9f98c94d2b3e046d41a9acec277cc53818c019dd OP_EQUALVERIFY OP_CHECKSIG", "type": "pubkeyhash"}, "value": 0.00645375, "n": 0}, {"scriptPubKey": {"type": "nulldata", "hex": "6a4c50000077880001b8a47c9880c65efa6e67733fbcbefa6b8351586b4e86aeaeacb577c031fc802d33e46e26b0999c6db454cec3cc255baa0bc006141f93731ddc681d100759d4ba30d2c37bb011d97e02cf", "asm": "OP_RETURN 000077880001b8a47c9880c65efa6e67733fbcbefa6b8351586b4e86aeaeacb577c031fc802d33e46e26b0999c6db454cec3cc255baa0bc006141f93731ddc681d100759d4ba30d2c37bb011d97e02cf"}, "value": 0.0, "n": 1}], "hex": "0100000001aeee592f1225b5a07c350dcfea291eaf2f5664fb4ecc80754a18f697dd3fa315000000006a47304402202cc5ea0097c0d6c3aaeb170dd29fd9901f76a111ebebe8796b012f439243db00022046734c2e808a829793033f19f4c713f34d8372def821dd38269487887fbe2a8a0121031dd8591fa9f08859940fe4508eaf372637028d08040d2e00928e3b137998873dffffffff02ffd80900000000001976a9149f98c94d2b3e046d41a9acec277cc53818c019dd88ac0000000000000000536a4c50000077880001b8a47c9880c65efa6e67733fbcbefa6b8351586b4e86aeaeacb577c031fc802d33e46e26b0999c6db454cec3cc255baa0bc006141f93731ddc681d100759d4ba30d2c37bb011d97e02cf00000000", "vin": [{"sequence": 4294967295, "scriptSig": {"hex": "47304402202cc5ea0097c0d6c3aaeb170dd29fd9901f76a111ebebe8796b012f439243db00022046734c2e808a829793033f19f4c713f34d8372def821dd38269487887fbe2a8a0121031dd8591fa9f08859940fe4508eaf372637028d08040d2e00928e3b137998873d", "asm": "304402202cc5ea0097c0d6c3aaeb170dd29fd9901f76a111ebebe8796b012f439243db00022046734c2e808a829793033f19f4c713f34d8372def821dd38269487887fbe2a8a[ALL] 031dd8591fa9f08859940fe4508eaf372637028d08040d2e00928e3b137998873d"}, "vout": 0, "txid": "15a33fdd97f6184a7580cc4efb64562faf1e29eacf0d357ca0b525122f59eeae"}], "txid": "93378abe04a9b47d02716ab09bf5b1bc0e3473944f4b7a4329e9bfddb43f7bbe", "blocktime": 1537870928, "version": 1, "confirmations": 11512, "time": 1537870928, "locktime": 0, "vsize": 283, "size": 283}