{"hash": "9339fca077a5c18f538fb6f9850139bd39a3900ab6cba8ac828883c8ddef799a", "blockhash": "00000000000000000017f5eb5941039fbcee6240d03bc1f2f8e35350df66a1d8", "vout": [{"scriptPubKey": {"reqSigs": 1, "hex": "76a9142407f8d2eed74b8f4f7eaef7a0e73b4ace0f6e1088ac", "addresses": ["14HWsos48Esa6FLMSR8opn3BtaPnGnFB2h"], "asm": "OP_DUP OP_HASH160 2407f8d2eed74b8f4f7eaef7a0e73b4ace0f6e10 OP_EQUALVERIFY OP_CHECKSIG", "type": "pubkeyhash"}, "value": 0.00668221, "n": 0}, {"scriptPubKey": {"reqSigs": 1, "hex": "76a91453c40c7dd108f9838568499cfc12807f68c4bfbc88ac", "addresses": ["18duwdbfFLY79LHEVnFJPM1R4VmNwD9yPz"], "asm": "OP_DUP OP_HASH160 53c40c7dd108f9838568499cfc12807f68c4bfbc OP_EQUALVERIFY OP_CHECKSIG", "type": "pubkeyhash"}, "value": 0.20068035, "n": 1}], "hex": "0100000001296ee7b0449638109ac6c724863b003bf47b871ca921a667e9a03f078f28fe3e010000006b483045022100848df0096f7ee38ab567926382285658511568710907284984331aec87e4842702205089f68860c2d2a4c1234752bd537bd039cf812116632cf363081f98e7164945012103868ddc9981a83929c5303be5df48eba15fdee10cb6171836fbddab9dae0a1734ffffffff023d320a00000000001976a9142407f8d2eed74b8f4f7eaef7a0e73b4ace0f6e1088acc3363201000000001976a91453c40c7dd108f9838568499cfc12807f68c4bfbc88ac00000000", "vin": [{"sequence": 4294967295, "scriptSig": {"hex": "483045022100848df0096f7ee38ab567926382285658511568710907284984331aec87e4842702205089f68860c2d2a4c1234752bd537bd039cf812116632cf363081f98e7164945012103868ddc9981a83929c5303be5df48eba15fdee10cb6171836fbddab9dae0a1734", "asm": "3045022100848df0096f7ee38ab567926382285658511568710907284984331aec87e4842702205089f68860c2d2a4c1234752bd537bd039cf812116632cf363081f98e7164945[ALL] 03868ddc9981a83929c5303be5df48eba15fdee10cb6171836fbddab9dae0a1734"}, "vout": 1, "txid": "3efe288f073fa0e967a621a91c877bf43b003b8624c7c69a10389644b0e76e29"}], "txid": "9339fca077a5c18f538fb6f9850139bd39a3900ab6cba8ac828883c8ddef799a", "blocktime": 1537874412, "version": 1, "confirmations": 11468, "time": 1537874412, "locktime": 0, "vsize": 226, "size": 226}