{"hash": "933928a09204f7b5362db5f23c3e3fa6380d7db0c99d1f470d7b815452c3925f", "blockhash": "0000000000000000001cda96e906b7601b7a6fb1a3b62bca570a9e5d8f4b3de1", "vout": [{"scriptPubKey": {"reqSigs": 1, "hex": "a9144d6a0fb7d90d5d2fbe0737b834ac72db9a51dbd987", "addresses": ["38kM1bAf2wk126mkgHauAY89ZVvk7PEXgJ"], "asm": "OP_HASH160 4d6a0fb7d90d5d2fbe0737b834ac72db9a51dbd9 OP_EQUAL", "type": "scripthash"}, "value": 0.0084447, "n": 0}, {"scriptPubKey": {"reqSigs": 1, "hex": "76a914e349bc52d6b8100b58d3fce45135a91c5c128a1d88ac", "addresses": ["1MiningDkXkhKaXBTMKXfLemnk1YY5rbkT"], "asm": "OP_DUP OP_HASH160 e349bc52d6b8100b58d3fce45135a91c5c128a1d OP_EQUALVERIFY OP_CHECKSIG", "type": "pubkeyhash"}, "value": 0.11835509, "n": 1}], "hex": "0200000001da263648872ad48390999d2a775755d86d76a61fea2ba6d9134f3e82b7d1fbbd010000008a473044022008fa79249ced2ee5c57fd39a6eb4a3e2a2b095def0f535323ed6656b7d81bc65022021891dfe0fec1c670b0de03b6205621ba100a093a205d50a3e2661782e40c152014104ae414abde7876c34e01694b38b2341d10b9b4c8db18a66262bd8df26bcb57893885c9fe8b79aa25330d5f05bb5aa9ab636a908a72e27956572b44190b22809beffffffff02b6e20c000000000017a9144d6a0fb7d90d5d2fbe0737b834ac72db9a51dbd9877598b400000000001976a914e349bc52d6b8100b58d3fce45135a91c5c128a1d88ac00000000", "vin": [{"sequence": 4294967295, "scriptSig": {"hex": "473044022008fa79249ced2ee5c57fd39a6eb4a3e2a2b095def0f535323ed6656b7d81bc65022021891dfe0fec1c670b0de03b6205621ba100a093a205d50a3e2661782e40c152014104ae414abde7876c34e01694b38b2341d10b9b4c8db18a66262bd8df26bcb57893885c9fe8b79aa25330d5f05bb5aa9ab636a908a72e27956572b44190b22809be", "asm": "3044022008fa79249ced2ee5c57fd39a6eb4a3e2a2b095def0f535323ed6656b7d81bc65022021891dfe0fec1c670b0de03b6205621ba100a093a205d50a3e2661782e40c152[ALL] 04ae414abde7876c34e01694b38b2341d10b9b4c8db18a66262bd8df26bcb57893885c9fe8b79aa25330d5f05bb5aa9ab636a908a72e27956572b44190b22809be"}, "vout": 1, "txid": "bdfbd1b7823e4f13d9a62bea1fa6766dd85557772a9d999083d42a87483626da"}], "txid": "933928a09204f7b5362db5f23c3e3fa6380d7db0c99d1f470d7b815452c3925f", "blocktime": 1537873282, "version": 2, "confirmations": 11484, "time": 1537873282, "locktime": 0, "vsize": 255, "size": 255}