{"hash": "933c1eeb12e32706f25df08e4c275ef7486efb6c4db511b4556b7c29d6251272", "blockhash": "0000000000000000000e13cef7c366c0283d82e591d1acd082e914b08063cdf1", "vout": [{"scriptPubKey": {"reqSigs": 1, "hex": "76a91447175dc8ecd44f1506e4d3aa8ed6a5a4f3c5acb288ac", "addresses": ["17Uty9FRsahjaUmjE6qbwxNADRHofRWSnp"], "asm": "OP_DUP OP_HASH160 47175dc8ecd44f1506e4d3aa8ed6a5a4f3c5acb2 OP_EQUALVERIFY OP_CHECKSIG", "type": "pubkeyhash"}, "value": 0.0064252, "n": 0}, {"scriptPubKey": {"type": "nulldata", "hex": "6a4c50000077a30001f966f4bb5ab751de6692046aaf6c953dd567cf27e7e3ef3236678a625097de5e4155ec6ff010c8342a2a715108165baa0ecc0614967b449222e61d100759d4ba30d2c37bb011d97e02cf", "asm": "OP_RETURN 000077a30001f966f4bb5ab751de6692046aaf6c953dd567cf27e7e3ef3236678a625097de5e4155ec6ff010c8342a2a715108165baa0ecc0614967b449222e61d100759d4ba30d2c37bb011d97e02cf"}, "value": 0.0, "n": 1}], "hex": "01000000016f635ddaa61620ac1df89e6577c7fe276a395fdfb6d5841afcd0691666ead2e3000000006a47304402200199c134c3939baf4335bbea7cc558874ad7fd10720ae507aa772f4621f14a0202200a065735ae01f0d6da9719428044e24cbe3f40a27b5f8b0ad424373d63d884c2012102ccca1d92c8186eff3b10f7b88da34068a0148287268d0abcb30ba89f2c249769ffffffff02d8cd0900000000001976a91447175dc8ecd44f1506e4d3aa8ed6a5a4f3c5acb288ac0000000000000000536a4c50000077a30001f966f4bb5ab751de6692046aaf6c953dd567cf27e7e3ef3236678a625097de5e4155ec6ff010c8342a2a715108165baa0ecc0614967b449222e61d100759d4ba30d2c37bb011d97e02cf00000000", "vin": [{"sequence": 4294967295, "scriptSig": {"hex": "47304402200199c134c3939baf4335bbea7cc558874ad7fd10720ae507aa772f4621f14a0202200a065735ae01f0d6da9719428044e24cbe3f40a27b5f8b0ad424373d63d884c2012102ccca1d92c8186eff3b10f7b88da34068a0148287268d0abcb30ba89f2c249769", "asm": "304402200199c134c3939baf4335bbea7cc558874ad7fd10720ae507aa772f4621f14a0202200a065735ae01f0d6da9719428044e24cbe3f40a27b5f8b0ad424373d63d884c2[ALL] 02ccca1d92c8186eff3b10f7b88da34068a0148287268d0abcb30ba89f2c249769"}, "vout": 0, "txid": "e3d2ea661669d0fc1a84d5b6df5f396a27fec777659ef81dac2016a6da5d636f"}], "txid": "933c1eeb12e32706f25df08e4c275ef7486efb6c4db511b4556b7c29d6251272", "blocktime": 1537871767, "version": 1, "confirmations": 11495, "time": 1537871767, "locktime": 0, "vsize": 283, "size": 283}