{"hash": "9346e4be73cf41628361356d732eddeac2ef4b7ee711aa6e10174875fa18936a", "blockhash": "00000000000000000004ffacab907a6b429b9a5745fa0b75af4234bf69dd7176", "vout": [{"scriptPubKey": {"reqSigs": 1, "hex": "76a914ff7461b9050190841f0ffbf47c7fa5c2e6b0f01288ac", "addresses": ["1QHijG9Gx1SSLmkNQoNqCVmyGVBnFNDXux"], "asm": "OP_DUP OP_HASH160 ff7461b9050190841f0ffbf47c7fa5c2e6b0f012 OP_EQUALVERIFY OP_CHECKSIG", "type": "pubkeyhash"}, "value": 0.06412143, "n": 0}, {"scriptPubKey": {"reqSigs": 1, "hex": "76a914f82bb7ad444206d102405fedf6e1673b0424a3f188ac", "addresses": ["1PdCx7rjmituALBmtbHxsMUsKVXCzxK6Q5"], "asm": "OP_DUP OP_HASH160 f82bb7ad444206d102405fedf6e1673b0424a3f1 OP_EQUALVERIFY OP_CHECKSIG", "type": "pubkeyhash"}, "value": 0.01219702, "n": 1}, {"scriptPubKey": {"reqSigs": 1, "hex": "76a91442c098cbbfb65d9f69487508535f7af44ce8fa8288ac", "addresses": ["175xKXTfcLiXgX7XqxLCaskBzW4Qs3nWAM"], "asm": "OP_DUP OP_HASH160 42c098cbbfb65d9f69487508535f7af44ce8fa82 OP_EQUALVERIFY OP_CHECKSIG", "type": "pubkeyhash"}, "value": 0.33791731, "n": 2}], "hex": "02000000016dad4c597e5f3789a53858f0201bad20b9c4b6aef9b362afe2f530a3e32c9c77010000006a47304402201c259cace060d6f60e7cbf5fcf04ecd75517e8a1fe711ce0b9899797795824fa02203db6f9ca7cde769337aba0502a4efb9e2f446b95b4495e6655dc63dbfc8d67ee012102b8e1087c8ac0fa7a1b6ae0f6bec802651a26a5a7104a7ccedd28ce7520a17e92ffffffff036fd76100000000001976a914ff7461b9050190841f0ffbf47c7fa5c2e6b0f01288ac769c1200000000001976a914f82bb7ad444206d102405fedf6e1673b0424a3f188acf39e0302000000001976a91442c098cbbfb65d9f69487508535f7af44ce8fa8288ac00000000", "vin": [{"sequence": 4294967295, "scriptSig": {"hex": "47304402201c259cace060d6f60e7cbf5fcf04ecd75517e8a1fe711ce0b9899797795824fa02203db6f9ca7cde769337aba0502a4efb9e2f446b95b4495e6655dc63dbfc8d67ee012102b8e1087c8ac0fa7a1b6ae0f6bec802651a26a5a7104a7ccedd28ce7520a17e92", "asm": "304402201c259cace060d6f60e7cbf5fcf04ecd75517e8a1fe711ce0b9899797795824fa02203db6f9ca7cde769337aba0502a4efb9e2f446b95b4495e6655dc63dbfc8d67ee[ALL] 02b8e1087c8ac0fa7a1b6ae0f6bec802651a26a5a7104a7ccedd28ce7520a17e92"}, "vout": 1, "txid": "779c2ce3a330f5e2af62b3f9aeb6c4b920ad1b20f05838a589375f7e594cad6d"}], "txid": "9346e4be73cf41628361356d732eddeac2ef4b7ee711aa6e10174875fa18936a", "blocktime": 1537875543, "version": 2, "confirmations": 11464, "time": 1537875543, "locktime": 0, "vsize": 259, "size": 259}