{"hash": "934a787959ff6c4b21aa45a0f5569b24da0b5a027f9427e9f75093293369f9dc", "blockhash": "00000000000000000017f5eb5941039fbcee6240d03bc1f2f8e35350df66a1d8", "vout": [{"scriptPubKey": {"reqSigs": 1, "hex": "76a914d2a95a3b35ea42333e0a4a1d4dbffe4d76bbbf5988ac", "addresses": ["1LCsn6oSHfKmn9LaAG75yHryvcChqDCtGo"], "asm": "OP_DUP OP_HASH160 d2a95a3b35ea42333e0a4a1d4dbffe4d76bbbf59 OP_EQUALVERIFY OP_CHECKSIG", "type": "pubkeyhash"}, "value": 0.00753182, "n": 0}, {"scriptPubKey": {"reqSigs": 1, "hex": "76a9149d1db709a28970873ba4246306da812e46a7766488ac", "addresses": ["1FKkgkZoSpMu2oYpTYE1Z4atkUzLSTH6Lt"], "asm": "OP_DUP OP_HASH160 9d1db709a28970873ba4246306da812e46a77664 OP_EQUALVERIFY OP_CHECKSIG", "type": "pubkeyhash"}, "value": 0.01094684, "n": 1}], "hex": "01000000017b0bd83d04a47bcedf38908a7fd1bbf5bd566fbfede3ede2a2ecb5c66d542251000000006b483045022100d0deb91bcda515204f7a285553436dbcb342eb95408c52b19248350eda6e1b9302202b67c1a97477260cdb3c1b9937bc1c8aebf24b6ca00bd90c1228de1f7b013f2501210272217dc849a323912b5741bdc6676bf5d5a3d8a17ee8a0b078e2fdc7b6d2c422ffffffff021e7e0b00000000001976a914d2a95a3b35ea42333e0a4a1d4dbffe4d76bbbf5988ac1cb41000000000001976a9149d1db709a28970873ba4246306da812e46a7766488ac00000000", "vin": [{"sequence": 4294967295, "scriptSig": {"hex": "483045022100d0deb91bcda515204f7a285553436dbcb342eb95408c52b19248350eda6e1b9302202b67c1a97477260cdb3c1b9937bc1c8aebf24b6ca00bd90c1228de1f7b013f2501210272217dc849a323912b5741bdc6676bf5d5a3d8a17ee8a0b078e2fdc7b6d2c422", "asm": "3045022100d0deb91bcda515204f7a285553436dbcb342eb95408c52b19248350eda6e1b9302202b67c1a97477260cdb3c1b9937bc1c8aebf24b6ca00bd90c1228de1f7b013f25[ALL] 0272217dc849a323912b5741bdc6676bf5d5a3d8a17ee8a0b078e2fdc7b6d2c422"}, "vout": 0, "txid": "5122546dc6b5eca2e2ede3edbf6f56bdf5bbd17f8a9038dfce7ba4043dd80b7b"}], "txid": "934a787959ff6c4b21aa45a0f5569b24da0b5a027f9427e9f75093293369f9dc", "blocktime": 1537874412, "version": 1, "confirmations": 11467, "time": 1537874412, "locktime": 0, "vsize": 226, "size": 226}