{"hash": "2fb17f6add9bdcf1c97e834b762b2574f7a303e639ea290cfabca91c53386216", "blockhash": "0000000000000000001cda96e906b7601b7a6fb1a3b62bca570a9e5d8f4b3de1", "vout": [{"scriptPubKey": {"reqSigs": 1, "hex": "a91469f3764ca2c4ac76c92caa2707949ba50f93ed9b87", "addresses": ["3BMEXjGwCJGXhiB4R73iJfW9vkVQAaX6b7"], "asm": "OP_HASH160 69f3764ca2c4ac76c92caa2707949ba50f93ed9b OP_EQUAL", "type": "scripthash"}, "value": 0.20435526, "n": 0}, {"scriptPubKey": {"reqSigs": 1, "hex": "00147aed0b1cb4b6cce9ec2fca717396e4035b5f6ac5", "addresses": ["bc1q0tksk895kmxwnmp0efch89hyqdd476k9d7djvd"], "asm": "0 7aed0b1cb4b6cce9ec2fca717396e4035b5f6ac5", "type": "witness_v0_keyhash"}, "value": 0.14563121, "n": 1}], "hex": "01000000000101f60539a631fb223bb5efe0351773bf9bdf214bda35f24fbb928a14186981a80a0000000017160014f8873eab0781ef7ce660be3ecf4a183bf5a77913ffffffff0246d237010000000017a91469f3764ca2c4ac76c92caa2707949ba50f93ed9b873137de00000000001600147aed0b1cb4b6cce9ec2fca717396e4035b5f6ac502473044022050a90017b20c0714e937fb5aad0950e3b6668eb812009d3e6771e407800f9d5a02204e534f2f1b24c6d1a7884a7b5f932810c77ab7f68378315823e11acebe3677120121036479530f750ae9fceee5719c79f7297500d1e77fbc8623a70a0689e87c352e6100000000", "vin": [{"txinwitness": ["3044022050a90017b20c0714e937fb5aad0950e3b6668eb812009d3e6771e407800f9d5a02204e534f2f1b24c6d1a7884a7b5f932810c77ab7f68378315823e11acebe36771201", "036479530f750ae9fceee5719c79f7297500d1e77fbc8623a70a0689e87c352e61"], "sequence": 4294967295, "scriptSig": {"hex": "160014f8873eab0781ef7ce660be3ecf4a183bf5a77913", "asm": "0014f8873eab0781ef7ce660be3ecf4a183bf5a77913"}, "vout": 0, "txid": "0aa8816918148a92bb4ff235da4b21df9bbf731735e0efb53b22fb31a63905f6"}], "txid": "93509caf1bddd5fb7a8460e954384bec971d52da37cc8422157cb61f559e2638", "blocktime": 1537873282, "version": 1, "confirmations": 11484, "time": 1537873282, "locktime": 0, "vsize": 165, "size": 246}