{"hash": "9357fa4e60c35083d4a397fff542dfaee51ea72fb4838d7c924530c40e1815b5", "blockhash": "00000000000000000004ffacab907a6b429b9a5745fa0b75af4234bf69dd7176", "vout": [{"scriptPubKey": {"reqSigs": 1, "hex": "76a914cdca0e5ecafa0127c154d1ef0a456cf492d3ca5088ac", "addresses": ["1Km7aS2iFXd1hQkJXR4rGXEj272owZZuPq"], "asm": "OP_DUP OP_HASH160 cdca0e5ecafa0127c154d1ef0a456cf492d3ca50 OP_EQUALVERIFY OP_CHECKSIG", "type": "pubkeyhash"}, "value": 0.039725, "n": 0}, {"scriptPubKey": {"reqSigs": 1, "hex": "76a914860c965d4a47a75f5a32d9797c4da51eca94297e88ac", "addresses": ["1DDndHr5QiZ7XT1xKhAfAa26rq52tPTfzw"], "asm": "OP_DUP OP_HASH160 860c965d4a47a75f5a32d9797c4da51eca94297e OP_EQUALVERIFY OP_CHECKSIG", "type": "pubkeyhash"}, "value": 0.03841752, "n": 1}], "hex": "01000000015cb9c70bfe75fa8da223f489b9cecf64e56fbbc1c3a8587500186900359c4172000000006a473044022075104de606bf4acc25b228fd629bd63f9c02eba8edbaef8f929c308810fde85302203f81cd4476dbe5806eb51bbb6ff5267911d9ac972137c1df6e1f2e2c82b54b3d0121029e8e0f4e0edbfaf993b83b10d21ed48bca6cf3485a8d7ddb935155f9aa6fa8d9ffffffff02949d3c00000000001976a914cdca0e5ecafa0127c154d1ef0a456cf492d3ca5088acd89e3a00000000001976a914860c965d4a47a75f5a32d9797c4da51eca94297e88ac00000000", "vin": [{"sequence": 4294967295, "scriptSig": {"hex": "473044022075104de606bf4acc25b228fd629bd63f9c02eba8edbaef8f929c308810fde85302203f81cd4476dbe5806eb51bbb6ff5267911d9ac972137c1df6e1f2e2c82b54b3d0121029e8e0f4e0edbfaf993b83b10d21ed48bca6cf3485a8d7ddb935155f9aa6fa8d9", "asm": "3044022075104de606bf4acc25b228fd629bd63f9c02eba8edbaef8f929c308810fde85302203f81cd4476dbe5806eb51bbb6ff5267911d9ac972137c1df6e1f2e2c82b54b3d[ALL] 029e8e0f4e0edbfaf993b83b10d21ed48bca6cf3485a8d7ddb935155f9aa6fa8d9"}, "vout": 0, "txid": "72419c35006918007558a8c3c1bb6fe564cfceb989f423a28dfa75fe0bc7b95c"}], "txid": "9357fa4e60c35083d4a397fff542dfaee51ea72fb4838d7c924530c40e1815b5", "blocktime": 1537875543, "version": 1, "confirmations": 11464, "time": 1537875543, "locktime": 0, "vsize": 225, "size": 225}