{"hash": "935e0cd42b92095b06520bdcec61cacc1ffa557f352efd0ef62792b405d0a87c", "blockhash": "0000000000000000001f0ddff1eddb255c1121bcd4da4f1bc9a0da00cae72433", "vout": [{"scriptPubKey": {"reqSigs": 1, "hex": "76a9147557f7043d99c50e8d5f3a106a9113331bc5b49488ac", "addresses": ["1BhTSMUzLsEEqbEovygEkfENBV6H5QdgAh"], "asm": "OP_DUP OP_HASH160 7557f7043d99c50e8d5f3a106a9113331bc5b494 OP_EQUALVERIFY OP_CHECKSIG", "type": "pubkeyhash"}, "value": 0.00026428, "n": 0}, {"scriptPubKey": {"reqSigs": 1, "hex": "76a91436cc40d7f30e20de29a84de261ec8779215d7ebf88ac", "addresses": ["15zkB8LqYMUAK57cqU2BVe745RkQwMnP6J"], "asm": "OP_DUP OP_HASH160 36cc40d7f30e20de29a84de261ec8779215d7ebf OP_EQUALVERIFY OP_CHECKSIG", "type": "pubkeyhash"}, "value": 0.0015201, "n": 1}], "hex": "0100000003c9e4846cc83ad82e0b5b6a906d5f3b940e4dffa1aff226e6d0db603abca53329000000006b483045022100b1266b9aa4950ae949665cd72487826a717fd0f51458ae2732ec2a4b7ee30a8f022029f7ea9556928fdb8f451cff0aa155cbaae72c7557609b795fdd8d47f51b2f9a012103ec243c9cdc51082aa730434d0a0272f9367ee3b5743a6a77d41f51636ff93be3ffffffffa70e58f42496132b02fe8c6177aa0d6435ae5bbc6bf0457a87ac4d6b4a547a33010000006a47304402202462b9d44fd7dff6507838f873ed828936dc0095c6c275f14d67f38844d8325d02207c409d0d0c89a6281bbe46dfafae5751f645cbc9354ee0bc36abb7e86c45ed060121025a80b1643863029edaedfe916c49344b786303d24be643248c81d12a0c69cdedffffffff20b059b4cdb709a489b6af0b8c5c44a43a073aacd3c4c4552bbb6bcdc9ee01e5000000006a4730440220550d2130d5ca4ed8a25869e3c18da0f2e2eda2ad115937c03295ec0f1affb13e0220273e46cd3c5e2100fcb0c3a97456463b82d1d0f354faf6fe75a74b92679f9a83012103f47e7cacd046308a43dfb33bfa17e96c747ebd8f1f3f7878ea9b760b41ccdc9effffffff023c670000000000001976a9147557f7043d99c50e8d5f3a106a9113331bc5b49488acca510200000000001976a91436cc40d7f30e20de29a84de261ec8779215d7ebf88ac00000000", "vin": [{"sequence": 4294967295, "scriptSig": {"hex": "483045022100b1266b9aa4950ae949665cd72487826a717fd0f51458ae2732ec2a4b7ee30a8f022029f7ea9556928fdb8f451cff0aa155cbaae72c7557609b795fdd8d47f51b2f9a012103ec243c9cdc51082aa730434d0a0272f9367ee3b5743a6a77d41f51636ff93be3", "asm": "3045022100b1266b9aa4950ae949665cd72487826a717fd0f51458ae2732ec2a4b7ee30a8f022029f7ea9556928fdb8f451cff0aa155cbaae72c7557609b795fdd8d47f51b2f9a[ALL] 03ec243c9cdc51082aa730434d0a0272f9367ee3b5743a6a77d41f51636ff93be3"}, "vout": 0, "txid": "2933a5bc3a60dbd0e626f2afa1ff4d0e943b5f6d906a5b0b2ed83ac86c84e4c9"}, {"sequence": 4294967295, "scriptSig": {"hex": "47304402202462b9d44fd7dff6507838f873ed828936dc0095c6c275f14d67f38844d8325d02207c409d0d0c89a6281bbe46dfafae5751f645cbc9354ee0bc36abb7e86c45ed060121025a80b1643863029edaedfe916c49344b786303d24be643248c81d12a0c69cded", "asm": "304402202462b9d44fd7dff6507838f873ed828936dc0095c6c275f14d67f38844d8325d02207c409d0d0c89a6281bbe46dfafae5751f645cbc9354ee0bc36abb7e86c45ed06[ALL] 025a80b1643863029edaedfe916c49344b786303d24be643248c81d12a0c69cded"}, "vout": 1, "txid": "337a544a6b4dac877a45f06bbc5bae35640daa77618cfe022b139624f4580ea7"}, {"sequence": 4294967295, "scriptSig": {"hex": "4730440220550d2130d5ca4ed8a25869e3c18da0f2e2eda2ad115937c03295ec0f1affb13e0220273e46cd3c5e2100fcb0c3a97456463b82d1d0f354faf6fe75a74b92679f9a83012103f47e7cacd046308a43dfb33bfa17e96c747ebd8f1f3f7878ea9b760b41ccdc9e", "asm": "30440220550d2130d5ca4ed8a25869e3c18da0f2e2eda2ad115937c03295ec0f1affb13e0220273e46cd3c5e2100fcb0c3a97456463b82d1d0f354faf6fe75a74b92679f9a83[ALL] 03f47e7cacd046308a43dfb33bfa17e96c747ebd8f1f3f7878ea9b760b41ccdc9e"}, "vout": 0, "txid": "e501eec9cd6bbb2b55c4c4d3ac3a073aa4445c8c0bafb689a409b7cdb459b020"}], "txid": "935e0cd42b92095b06520bdcec61cacc1ffa557f352efd0ef62792b405d0a87c", "blocktime": 1537872018, "version": 1, "confirmations": 11489, "time": 1537872018, "locktime": 0, "vsize": 520, "size": 520}