{"hash": "937299f23b91651837b844de709726fe83910d45f708191c9199b2f99c21a4fd", "blockhash": "0000000000000000001cda96e906b7601b7a6fb1a3b62bca570a9e5d8f4b3de1", "vout": [{"scriptPubKey": {"reqSigs": 1, "hex": "a9142043dff2ed3f63bba56a8b1f55417bc359ceb5c887", "addresses": ["34dcrhuixYfmv4YfmugqTEMin2K7n3zceb"], "asm": "OP_HASH160 2043dff2ed3f63bba56a8b1f55417bc359ceb5c8 OP_EQUAL", "type": "scripthash"}, "value": 0.0127774, "n": 0}], "hex": "01000000010d4e461100607e06c32e8acaaba9f16a723a2544441e8cbae974c6f87d02158b000000006b48304502210092f99bdf0a966353e357fe0b16925cdd4cf83fc6beb76d5b1b7267b4f0f4d6c8022039ecdc639d84c2301c9771463254743cc889b5fc924147dcb797b44223d3423201210363e1ecaf7adca39dc24883dad12b4588aaef243016bd8e8931299a234b1c9982ffffffff012c7f13000000000017a9142043dff2ed3f63bba56a8b1f55417bc359ceb5c88700000000", "vin": [{"sequence": 4294967295, "scriptSig": {"hex": "48304502210092f99bdf0a966353e357fe0b16925cdd4cf83fc6beb76d5b1b7267b4f0f4d6c8022039ecdc639d84c2301c9771463254743cc889b5fc924147dcb797b44223d3423201210363e1ecaf7adca39dc24883dad12b4588aaef243016bd8e8931299a234b1c9982", "asm": "304502210092f99bdf0a966353e357fe0b16925cdd4cf83fc6beb76d5b1b7267b4f0f4d6c8022039ecdc639d84c2301c9771463254743cc889b5fc924147dcb797b44223d34232[ALL] 0363e1ecaf7adca39dc24883dad12b4588aaef243016bd8e8931299a234b1c9982"}, "vout": 0, "txid": "8b15027df8c674e9ba8c1e4444253a726af1a9abca8a2ec3067e600011464e0d"}], "txid": "937299f23b91651837b844de709726fe83910d45f708191c9199b2f99c21a4fd", "blocktime": 1537873282, "version": 1, "confirmations": 11481, "time": 1537873282, "locktime": 0, "vsize": 190, "size": 190}