{"hash": "938052a9e234c3a13f8bf7eefa2e25b7ef588786b03cc64c75a49f33b20c0511", "blockhash": "0000000000000000001e0dab787dd257d1dbfcb92a98c2207d5e1078be1f4165", "vout": [{"scriptPubKey": {"reqSigs": 1, "hex": "76a9141ca447d0fb41a911e69140cb30ab0e814132815388ac", "addresses": ["13cSinQDCXv53B6VNgX1HVg7VfwHQPJE8P"], "asm": "OP_DUP OP_HASH160 1ca447d0fb41a911e69140cb30ab0e8141328153 OP_EQUALVERIFY OP_CHECKSIG", "type": "pubkeyhash"}, "value": 0.00234345, "n": 0}, {"scriptPubKey": {"reqSigs": 1, "hex": "76a914c4b60affc66aa559527a32270b63e450a0c2b16688ac", "addresses": ["1Jw7XAcYEr7y51zEzE86eejLUMbfb3NHUK"], "asm": "OP_DUP OP_HASH160 c4b60affc66aa559527a32270b63e450a0c2b166 OP_EQUALVERIFY OP_CHECKSIG", "type": "pubkeyhash"}, "value": 0.11127817, "n": 1}], "hex": "0100000001c3efb61bb1dfbdf7d116800795f5170d8a436f3cb95c2bd2272c0c5eb25cfebf010000008a47304402202bdeb6a8812a1fc6cdf5b8011500017ce9423a9277aedb8c0b06b1891c1dc6dd0220572e3ecee39e60305564fefe15723a7900a8d6db348a11e18f716594846190e90141040c6fb303b7e63b97646a5e33a6ecdfab83e87cb9dce065d09ae0b9dd5dcc6bc188cd390a3dfc6ab952f25b12460cb3fc0fb3432288e5f6a5438cf707bbaf478dffffffff0269930300000000001976a9141ca447d0fb41a911e69140cb30ab0e814132815388ac09cca900000000001976a914c4b60affc66aa559527a32270b63e450a0c2b16688ac00000000", "vin": [{"sequence": 4294967295, "scriptSig": {"hex": "47304402202bdeb6a8812a1fc6cdf5b8011500017ce9423a9277aedb8c0b06b1891c1dc6dd0220572e3ecee39e60305564fefe15723a7900a8d6db348a11e18f716594846190e90141040c6fb303b7e63b97646a5e33a6ecdfab83e87cb9dce065d09ae0b9dd5dcc6bc188cd390a3dfc6ab952f25b12460cb3fc0fb3432288e5f6a5438cf707bbaf478d", "asm": "304402202bdeb6a8812a1fc6cdf5b8011500017ce9423a9277aedb8c0b06b1891c1dc6dd0220572e3ecee39e60305564fefe15723a7900a8d6db348a11e18f716594846190e9[ALL] 040c6fb303b7e63b97646a5e33a6ecdfab83e87cb9dce065d09ae0b9dd5dcc6bc188cd390a3dfc6ab952f25b12460cb3fc0fb3432288e5f6a5438cf707bbaf478d"}, "vout": 1, "txid": "bffe5cb25e0c2c27d22b5cb93c6f438a0d17f595078016d1f7bddfb11bb6efc3"}], "txid": "938052a9e234c3a13f8bf7eefa2e25b7ef588786b03cc64c75a49f33b20c0511", "blocktime": 1537872475, "version": 1, "confirmations": 11487, "time": 1537872475, "locktime": 0, "vsize": 257, "size": 257}