{"hash": "938845509ed0d7d2ed038e1bf423e25b1cf0e331073e413e1f55c67d1201c3a5", "blockhash": "00000000000000000018f53835495a110e01622372bf6ae95dc86f2b0ab887b0", "vout": [{"scriptPubKey": {"reqSigs": 1, "hex": "76a914c5f3f872fcd74a8a3807c8fc0018fa848f51b22688ac", "addresses": ["1K3gPABxAbaqCepFRMR3NLYBNSoXJ4w24c"], "asm": "OP_DUP OP_HASH160 c5f3f872fcd74a8a3807c8fc0018fa848f51b226 OP_EQUALVERIFY OP_CHECKSIG", "type": "pubkeyhash"}, "value": 0.0010686, "n": 0}, {"scriptPubKey": {"reqSigs": 1, "hex": "76a91484c7ba0af76a8b242eeddd07d985903ff09a1df988ac", "addresses": ["1D75TaXh6cyT9GQQfnWKY6k4cPqB8Sp4mk"], "asm": "OP_DUP OP_HASH160 84c7ba0af76a8b242eeddd07d985903ff09a1df9 OP_EQUALVERIFY OP_CHECKSIG", "type": "pubkeyhash"}, "value": 0.0892251, "n": 1}], "hex": "010000000108e5e5ad4ee7db35c564da808c235ca35699bbe4573af778a3e6a2ebdcafad2f010000006b483045022100a651b2fcb9f1a8dc117caa31841aa90c4bf034f0d2c3b94906cfa9eea207e49402200a19e9988020d57c3bc8d39e4fa2162c960c85d82b985d06affc559de532ea75012103572e9d97ad36564d2f18b37ba75f20bb5015a5bdf67c591198f9d4e68045b674ffffffff026ca10100000000001976a914c5f3f872fcd74a8a3807c8fc0018fa848f51b22688ac8e258800000000001976a91484c7ba0af76a8b242eeddd07d985903ff09a1df988ac00000000", "vin": [{"sequence": 4294967295, "scriptSig": {"hex": "483045022100a651b2fcb9f1a8dc117caa31841aa90c4bf034f0d2c3b94906cfa9eea207e49402200a19e9988020d57c3bc8d39e4fa2162c960c85d82b985d06affc559de532ea75012103572e9d97ad36564d2f18b37ba75f20bb5015a5bdf67c591198f9d4e68045b674", "asm": "3045022100a651b2fcb9f1a8dc117caa31841aa90c4bf034f0d2c3b94906cfa9eea207e49402200a19e9988020d57c3bc8d39e4fa2162c960c85d82b985d06affc559de532ea75[ALL] 03572e9d97ad36564d2f18b37ba75f20bb5015a5bdf67c591198f9d4e68045b674"}, "vout": 1, "txid": "2fadafdceba2e6a378f73a57e4bb9956a35c238c80da64c535dbe74eade5e508"}], "txid": "938845509ed0d7d2ed038e1bf423e25b1cf0e331073e413e1f55c67d1201c3a5", "blocktime": 1537870928, "version": 1, "confirmations": 11512, "time": 1537870928, "locktime": 0, "vsize": 226, "size": 226}