{"hash": "f2963820d11f30952db3d9e3f3f12b5a81abb280392746146db519eb013275e0", "blockhash": "0000000000000000001f0ddff1eddb255c1121bcd4da4f1bc9a0da00cae72433", "vout": [{"scriptPubKey": {"reqSigs": 1, "hex": "76a9149b30613d0f2133f5fee2a74648b2e6f5f0bed04288ac", "addresses": ["1F9ZhDypJggWW2JJUQv5YnanFT2sKX5E9S"], "asm": "OP_DUP OP_HASH160 9b30613d0f2133f5fee2a74648b2e6f5f0bed042 OP_EQUALVERIFY OP_CHECKSIG", "type": "pubkeyhash"}, "value": 0.00125285, "n": 0}, {"scriptPubKey": {"reqSigs": 1, "hex": "00141c1f725a1d5b0c789b030aaba248f5d3632e1870", "addresses": ["bc1qrs0hyksatvx83xcrp246yj846d3juxrszehz67"], "asm": "0 1c1f725a1d5b0c789b030aaba248f5d3632e1870", "type": "witness_v0_keyhash"}, "value": 1.127e-05, "n": 1}], "hex": "010000000001016bfbc684f2e8f19a14cd37df05a9cace4d116bc630f5556517c6c180f92c82b70000000017160014e0a05a16cff09c9d28d61b3625e4a3eb4a1a0be8ffffffff0265e90100000000001976a9149b30613d0f2133f5fee2a74648b2e6f5f0bed04288ac67040000000000001600141c1f725a1d5b0c789b030aaba248f5d3632e187002473044022007b8e552617244120063fd5d8919955d0e90df292b6ce842c85a29cea2f74700022074a0d72ba700e63bc05ec4dc08077f10a1fc18bcd40957fffa89e32f0a613665012102195581d68a4dc648e6045d353a8a5bfd62e43b24dc162842a21fb46cf620530c00000000", "vin": [{"txinwitness": ["3044022007b8e552617244120063fd5d8919955d0e90df292b6ce842c85a29cea2f74700022074a0d72ba700e63bc05ec4dc08077f10a1fc18bcd40957fffa89e32f0a61366501", "02195581d68a4dc648e6045d353a8a5bfd62e43b24dc162842a21fb46cf620530c"], "sequence": 4294967295, "scriptSig": {"hex": "160014e0a05a16cff09c9d28d61b3625e4a3eb4a1a0be8", "asm": "0014e0a05a16cff09c9d28d61b3625e4a3eb4a1a0be8"}, "vout": 0, "txid": "b7822cf980c1c6176555f530c66b114dcecaa905df37cd149af1e8f284c6fb6b"}], "txid": "938944f048666f63af5294ea618a20bc40746ca6ad48fdcec99dfbdb11a9852f", "blocktime": 1537872018, "version": 1, "confirmations": 11489, "time": 1537872018, "locktime": 0, "vsize": 167, "size": 248}