{"hash": "9390b6bd07df5f431501755c785b848b8e6692b7ed6a09e339eaaf2cb8e00997", "blockhash": "0000000000000000000baef3f32e3676a92c3b2e5da21b426e4f302fc371ce76", "vout": [{"scriptPubKey": {"reqSigs": 1, "hex": "76a914abe00513f29e5607669c25c25d6f1e14b45c6cfe88ac", "addresses": ["1GfnuyVjCwsdBcbzHPNcJNcXprmMjFnMAh"], "asm": "OP_DUP OP_HASH160 abe00513f29e5607669c25c25d6f1e14b45c6cfe OP_EQUALVERIFY OP_CHECKSIG", "type": "pubkeyhash"}, "value": 0.00632966, "n": 0}, {"scriptPubKey": {"type": "nulldata", "hex": "6a4c50000077ff00012533861044c31a0a135228d8d19ed074892d00f8e87af8e8e963c7cfd5b97e925cd52729aae585e0367d49bae3dd5baa19f10613be5d6e0b7f461d100759d4ba30d2c37bb011d97e02cf", "asm": "OP_RETURN 000077ff00012533861044c31a0a135228d8d19ed074892d00f8e87af8e8e963c7cfd5b97e925cd52729aae585e0367d49bae3dd5baa19f10613be5d6e0b7f461d100759d4ba30d2c37bb011d97e02cf"}, "value": 0.0, "n": 1}], "hex": "010000000109a4085c480f96dd0c22474f7c19eb47afd2c8e8c6ee2c23d4fe4c61bfb71d2b000000006a47304402200d69d78a6a8adf9f3756a9816fd17061bf21a8b1b73fa6b5bffa21a355b8cc09022073df3f03c18aa895497c3c8baf84769b05991bfd78114788a76d7ad5dbb5db340121026b08561d9317868973775655dcf893d88d7c22a51872811a88fba53832586f07ffffffff0286a80900000000001976a914abe00513f29e5607669c25c25d6f1e14b45c6cfe88ac0000000000000000536a4c50000077ff00012533861044c31a0a135228d8d19ed074892d00f8e87af8e8e963c7cfd5b97e925cd52729aae585e0367d49bae3dd5baa19f10613be5d6e0b7f461d100759d4ba30d2c37bb011d97e02cf00000000", "vin": [{"sequence": 4294967295, "scriptSig": {"hex": "47304402200d69d78a6a8adf9f3756a9816fd17061bf21a8b1b73fa6b5bffa21a355b8cc09022073df3f03c18aa895497c3c8baf84769b05991bfd78114788a76d7ad5dbb5db340121026b08561d9317868973775655dcf893d88d7c22a51872811a88fba53832586f07", "asm": "304402200d69d78a6a8adf9f3756a9816fd17061bf21a8b1b73fa6b5bffa21a355b8cc09022073df3f03c18aa895497c3c8baf84769b05991bfd78114788a76d7ad5dbb5db34[ALL] 026b08561d9317868973775655dcf893d88d7c22a51872811a88fba53832586f07"}, "vout": 0, "txid": "2b1db7bf614cfed4232ceec6e8c8d2af47eb197c4f47220cdd960f485c08a409"}], "txid": "9390b6bd07df5f431501755c785b848b8e6692b7ed6a09e339eaaf2cb8e00997", "blocktime": 1537876114, "version": 1, "confirmations": 11460, "time": 1537876114, "locktime": 0, "vsize": 283, "size": 283}