{"hash": "9397a2ad4c993f6a32add4e9539a732cb2e07478d31726813d9a0be23678e221", "blockhash": "0000000000000000000dcc0f55137456b1a82d3642486a52398922ac4d620174", "vout": [{"scriptPubKey": {"reqSigs": 1, "hex": "76a9144fe77c7be467bdab371727319be05495927fcb1b88ac", "addresses": ["18HVh6w8LYGEpqciEsqxMFdQpEc2BQ4gr2"], "asm": "OP_DUP OP_HASH160 4fe77c7be467bdab371727319be05495927fcb1b OP_EQUALVERIFY OP_CHECKSIG", "type": "pubkeyhash"}, "value": 0.24999321, "n": 0}], "hex": "0100000001802654744a0caf65cb4fb232375950ab2da1bd9e50ec98a1bf58e1354ceb12bd000000006b483045022100f36fa83b854595749163972f14ede99e0b085f329ce75baa44f9cc7d123ea8e3022074636bab18e2278125b22d72adf93978887e4cb5123258eb6a69ff0c5330ad97012103d3ef444621aa15202073673127b07da9d5f7604d533675245e64df0647548a7fffffffff0199757d01000000001976a9144fe77c7be467bdab371727319be05495927fcb1b88ac00000000", "vin": [{"sequence": 4294967295, "scriptSig": {"hex": "483045022100f36fa83b854595749163972f14ede99e0b085f329ce75baa44f9cc7d123ea8e3022074636bab18e2278125b22d72adf93978887e4cb5123258eb6a69ff0c5330ad97012103d3ef444621aa15202073673127b07da9d5f7604d533675245e64df0647548a7f", "asm": "3045022100f36fa83b854595749163972f14ede99e0b085f329ce75baa44f9cc7d123ea8e3022074636bab18e2278125b22d72adf93978887e4cb5123258eb6a69ff0c5330ad97[ALL] 03d3ef444621aa15202073673127b07da9d5f7604d533675245e64df0647548a7f"}, "vout": 0, "txid": "bd12eb4c35e158bfa198ec509ebda12dab50593732b24fcb65af0c4a74542680"}], "txid": "9397a2ad4c993f6a32add4e9539a732cb2e07478d31726813d9a0be23678e221", "blocktime": 1537870268, "version": 1, "confirmations": 11518, "time": 1537870268, "locktime": 0, "vsize": 192, "size": 192}