{"hash": "93993884b20de6cf88b1691c8edc8e5e8d6a75ea2e06488176dc806999ee9f7a", "blockhash": "0000000000000000000e13cef7c366c0283d82e591d1acd082e914b08063cdf1", "vout": [{"scriptPubKey": {"reqSigs": 1, "hex": "a9144a6a832458f18ba93324757768164d107bb75b0b87", "addresses": ["38UVXLmjNozWVu69wqVii8mwp9rnni2qqj"], "asm": "OP_HASH160 4a6a832458f18ba93324757768164d107bb75b0b OP_EQUAL", "type": "scripthash"}, "value": 0.00250329, "n": 0}, {"scriptPubKey": {"reqSigs": 1, "hex": "76a9148cf12f497e3766d582f8bd17293232676784386688ac", "addresses": ["1DrEXfWscRTpTtJ1UmCPdEWZgDRg39keCW"], "asm": "OP_DUP OP_HASH160 8cf12f497e3766d582f8bd172932326767843866 OP_EQUALVERIFY OP_CHECKSIG", "type": "pubkeyhash"}, "value": 0.1692715, "n": 1}], "hex": "01000000011948ff0886cf8c3d18c32c52b9ff9f0f9e0dd6a6fc506274e7a1a16bd7b1a391010000006b4830450221008bcc3838b2750f7baa9c4563187b04e740dca7f6060e4a87396eca6d097f3a20022035e95ea197fc22106dd6ac0a02e0f8453d7578d108f7a2467d798f1473433c6301210302533cc7e3da71206fcc90159d93907bd7e05dd5109b8d28aa836f9fbbc3c375ffffffff02d9d103000000000017a9144a6a832458f18ba93324757768164d107bb75b0b87ae490201000000001976a9148cf12f497e3766d582f8bd17293232676784386688ac00000000", "vin": [{"sequence": 4294967295, "scriptSig": {"hex": "4830450221008bcc3838b2750f7baa9c4563187b04e740dca7f6060e4a87396eca6d097f3a20022035e95ea197fc22106dd6ac0a02e0f8453d7578d108f7a2467d798f1473433c6301210302533cc7e3da71206fcc90159d93907bd7e05dd5109b8d28aa836f9fbbc3c375", "asm": "30450221008bcc3838b2750f7baa9c4563187b04e740dca7f6060e4a87396eca6d097f3a20022035e95ea197fc22106dd6ac0a02e0f8453d7578d108f7a2467d798f1473433c63[ALL] 0302533cc7e3da71206fcc90159d93907bd7e05dd5109b8d28aa836f9fbbc3c375"}, "vout": 1, "txid": "91a3b1d76ba1a1e7746250fca6d60d9e0f9fffb9522cc3183d8ccf8608ff4819"}], "txid": "93993884b20de6cf88b1691c8edc8e5e8d6a75ea2e06488176dc806999ee9f7a", "blocktime": 1537871767, "version": 1, "confirmations": 11490, "time": 1537871767, "locktime": 0, "vsize": 224, "size": 224}