{"hash": "273eae2c1946848b9e72235d20f45c65548497390dd2617cd4ffe0d669dc38d7", "blockhash": "0000000000000000001cda96e906b7601b7a6fb1a3b62bca570a9e5d8f4b3de1", "vout": [{"scriptPubKey": {"reqSigs": 1, "hex": "a9141b5bebdda6b304a4cd9745773428817f2afa68a987", "addresses": ["34BgHXjCZMct5mCqektwtjkQEkJJVCCeSp"], "asm": "OP_HASH160 1b5bebdda6b304a4cd9745773428817f2afa68a9 OP_EQUAL", "type": "scripthash"}, "value": 0.00463785, "n": 0}, {"scriptPubKey": {"reqSigs": 1, "hex": "a914412a5a9d44d5834123b7756088f409b7b3a36da687", "addresses": ["37daapNiiDgPEaARWMQCfhGXJo4yF1nTaW"], "asm": "OP_HASH160 412a5a9d44d5834123b7756088f409b7b3a36da6 OP_EQUAL", "type": "scripthash"}, "value": 0.00925318, "n": 1}], "hex": "010000000001015e656a2880698bc1c6235565f9fd551180c58f91896595a0c3ed4cfc488c316b010000002322002083f5850b1b9ae687f7cf8d5c77fefcbd87cde420155cd43c20d50f5f293b7ed6ffffffff02a91307000000000017a9141b5bebdda6b304a4cd9745773428817f2afa68a987861e0e000000000017a914412a5a9d44d5834123b7756088f409b7b3a36da687040047304402201b068688c6585e771fef786971a20e7dded8ed17e09ab6646424b468258d9e8e02205fd0c0962ac45a0312310910372541eaf890da117ba04b81806d1a4040c8292901483045022100c2bdbfaba4a85db137abc0bdefb0925b52354e823d15d47cb152334fca503ccd0220593020fb0de2fd4aa4d5a330d69b9795d3c81da103798f3eef5ce49b0b430fdc01475221020511070566b8412d1941b8dc0ded10caa6a6915b609dfa65bb8111255071d3a22103871fc2ca08e6950b38867e8e6a0e94ee625223d3aa0df5c65f414c6d784467e252ae00000000", "vin": [{"txinwitness": ["", "304402201b068688c6585e771fef786971a20e7dded8ed17e09ab6646424b468258d9e8e02205fd0c0962ac45a0312310910372541eaf890da117ba04b81806d1a4040c8292901", "3045022100c2bdbfaba4a85db137abc0bdefb0925b52354e823d15d47cb152334fca503ccd0220593020fb0de2fd4aa4d5a330d69b9795d3c81da103798f3eef5ce49b0b430fdc01", "5221020511070566b8412d1941b8dc0ded10caa6a6915b609dfa65bb8111255071d3a22103871fc2ca08e6950b38867e8e6a0e94ee625223d3aa0df5c65f414c6d784467e252ae"], "sequence": 4294967295, "scriptSig": {"hex": "22002083f5850b1b9ae687f7cf8d5c77fefcbd87cde420155cd43c20d50f5f293b7ed6", "asm": "002083f5850b1b9ae687f7cf8d5c77fefcbd87cde420155cd43c20d50f5f293b7ed6"}, "vout": 1, "txid": "6b318c48fc4cedc3a0956589918fc5801155fdf9655523c6c18b6980286a655e"}], "txid": "939a05b4e7196bc6e79c3d0be1cf9a9c793619c3d1840ed48b3d9e7420de472c", "blocktime": 1537873282, "version": 1, "confirmations": 11484, "time": 1537873282, "locktime": 0, "vsize": 206, "size": 371}