{"hash": "939e2d9bc61d820795be61fbb1be70c7534263c03a43583298939e698cda19dd", "blockhash": "0000000000000000000baef3f32e3676a92c3b2e5da21b426e4f302fc371ce76", "vout": [{"scriptPubKey": {"type": "nulldata", "hex": "6a4c50000078160001a866cb9994d8243e6e7ae9c5019d6ddc0f1b8ff117702940d64fa54d8eb2005c72d44dae95c4c3b8196aa08f2acd5baa1bdb0615687d9ad1047a1d100759d4ba30d2c37bb011d97e02cf", "asm": "OP_RETURN 000078160001a866cb9994d8243e6e7ae9c5019d6ddc0f1b8ff117702940d64fa54d8eb2005c72d44dae95c4c3b8196aa08f2acd5baa1bdb0615687d9ad1047a1d100759d4ba30d2c37bb011d97e02cf"}, "value": 0.0, "n": 0}, {"scriptPubKey": {"reqSigs": 1, "hex": "76a9149e224633996d0a462371a8b25bafea6164810d4888ac", "addresses": ["1FR8pizs6TdMKF4CYkYjhc4kTzh2bPJwCG"], "asm": "OP_DUP OP_HASH160 9e224633996d0a462371a8b25bafea6164810d48 OP_EQUALVERIFY OP_CHECKSIG", "type": "pubkeyhash"}, "value": 0.00630375, "n": 1}], "hex": "0100000001b65c78c636d2909a789fd2d7430f237ed06ee488835840f03c90a76418398470010000006a4730440220775c929bd79a78fe21d0f3980e65990062074d3db0618275ff5da5857b6f883702204478f73e361e03647a99ddb3e73a3092dff6bcdbcafe02a069a625070f3180830121033b7011038e79ba1c8b2f4225dbfc7ce517826e9eed02f8847df88a085e1aa41dffffffff020000000000000000536a4c50000078160001a866cb9994d8243e6e7ae9c5019d6ddc0f1b8ff117702940d64fa54d8eb2005c72d44dae95c4c3b8196aa08f2acd5baa1bdb0615687d9ad1047a1d100759d4ba30d2c37bb011d97e02cf679e0900000000001976a9149e224633996d0a462371a8b25bafea6164810d4888ac00000000", "vin": [{"sequence": 4294967295, "scriptSig": {"hex": "4730440220775c929bd79a78fe21d0f3980e65990062074d3db0618275ff5da5857b6f883702204478f73e361e03647a99ddb3e73a3092dff6bcdbcafe02a069a625070f3180830121033b7011038e79ba1c8b2f4225dbfc7ce517826e9eed02f8847df88a085e1aa41d", "asm": "30440220775c929bd79a78fe21d0f3980e65990062074d3db0618275ff5da5857b6f883702204478f73e361e03647a99ddb3e73a3092dff6bcdbcafe02a069a625070f318083[ALL] 033b7011038e79ba1c8b2f4225dbfc7ce517826e9eed02f8847df88a085e1aa41d"}, "vout": 1, "txid": "7084391864a7903cf040588388e46ed07e230f43d7d29f789a90d236c6785cb6"}], "txid": "939e2d9bc61d820795be61fbb1be70c7534263c03a43583298939e698cda19dd", "blocktime": 1537876114, "version": 1, "confirmations": 11463, "time": 1537876114, "locktime": 0, "vsize": 283, "size": 283}