{"hash": "939e543b721428ceed245557e50d68d583c7521b4ba11f2dda2c69b8db4faf1c", "blockhash": "0000000000000000000dcc0f55137456b1a82d3642486a52398922ac4d620174", "vout": [{"scriptPubKey": {"reqSigs": 1, "hex": "76a914e643143d9fc01fb60fec41ae318b7549c395064188ac", "addresses": ["1MzWmrf8YA8qN4WfyBTDWB3c9XUniCJY9P"], "asm": "OP_DUP OP_HASH160 e643143d9fc01fb60fec41ae318b7549c3950641 OP_EQUALVERIFY OP_CHECKSIG", "type": "pubkeyhash"}, "value": 2.827e-05, "n": 0}, {"scriptPubKey": {"reqSigs": 1, "hex": "76a9149a13664272e610681b7c0c2962638f3c3d41d7b588ac", "addresses": ["1F3gJSV9EcMZSAWBd9R7Xid9Rur5kB2CvC"], "asm": "OP_DUP OP_HASH160 9a13664272e610681b7c0c2962638f3c3d41d7b5 OP_EQUALVERIFY OP_CHECKSIG", "type": "pubkeyhash"}, "value": 0.00639395, "n": 1}], "hex": "0100000001d4a4bea0fa60a40f0d59f91f360a8807bf1dc27067e92675a16e8328253f5784000000006a47304402200f7aba62899ab07890283d9a2fca6dcaec3e13f403f1f891a22322c5eed5781c022078ef0702be51d47d2ae588f54176c6cca83d6298f301062c1910da1bce98f22c0121020b81679fcb70d5aeb4fd62390ea758dd2c214e20e7d4820a793146d512ccc1fcffffffff020b0b0000000000001976a914e643143d9fc01fb60fec41ae318b7549c395064188aca3c10900000000001976a9149a13664272e610681b7c0c2962638f3c3d41d7b588ac00000000", "vin": [{"sequence": 4294967295, "scriptSig": {"hex": "47304402200f7aba62899ab07890283d9a2fca6dcaec3e13f403f1f891a22322c5eed5781c022078ef0702be51d47d2ae588f54176c6cca83d6298f301062c1910da1bce98f22c0121020b81679fcb70d5aeb4fd62390ea758dd2c214e20e7d4820a793146d512ccc1fc", "asm": "304402200f7aba62899ab07890283d9a2fca6dcaec3e13f403f1f891a22322c5eed5781c022078ef0702be51d47d2ae588f54176c6cca83d6298f301062c1910da1bce98f22c[ALL] 020b81679fcb70d5aeb4fd62390ea758dd2c214e20e7d4820a793146d512ccc1fc"}, "vout": 0, "txid": "84573f2528836ea17526e96770c21dbf07880a361ff9590d0fa460faa0bea4d4"}], "txid": "939e543b721428ceed245557e50d68d583c7521b4ba11f2dda2c69b8db4faf1c", "blocktime": 1537870268, "version": 1, "confirmations": 11518, "time": 1537870268, "locktime": 0, "vsize": 225, "size": 225}