{"hash": "c7772a7ed748ab1d1b0f2297bbde8b15209ae5eeb054647818e293f9130484fa", "blockhash": "0000000000000000001f76057863aec43deb6fa401d9628bb513d65a8098bfab", "vout": [{"scriptPubKey": {"reqSigs": 1, "hex": "a9140982d1308aa0332ed0041e0760e3773ccac49cbd87", "addresses": ["32ZJic3HN2wie4inXArWQPCLYbCAFGi4a2"], "asm": "OP_HASH160 0982d1308aa0332ed0041e0760e3773ccac49cbd OP_EQUAL", "type": "scripthash"}, "value": 0.00041416, "n": 0}, {"scriptPubKey": {"reqSigs": 1, "hex": "a914e346de5eadc9f0b45bc7316b14cc219a5ccce85e87", "addresses": ["3NQkD8PLmPPaXzXjHuNGKXCyu7sHKJNMXr"], "asm": "OP_HASH160 e346de5eadc9f0b45bc7316b14cc219a5ccce85e OP_EQUAL", "type": "scripthash"}, "value": 0.00939431, "n": 1}, {"scriptPubKey": {"reqSigs": 1, "hex": "a9141988a27e3c2df4ddee7fad5a2303d086179b2a3087", "addresses": ["3422VtS7UtCvXYxoXMVp6eZupR252z85oC"], "asm": "OP_HASH160 1988a27e3c2df4ddee7fad5a2303d086179b2a30 OP_EQUAL", "type": "scripthash"}, "value": 1.17542966, "n": 2}], "hex": "010000000001019015deb344dd5f593096f51d9f820c1b8f032d352c0be2c8d893520fc90e920e010000002322002065d416c48a8072e0ac51c2d111eb194f009caef0332446c1bf2097316cf07fa9ffffffff03c8a100000000000017a9140982d1308aa0332ed0041e0760e3773ccac49cbd87a7550e000000000017a914e346de5eadc9f0b45bc7316b14cc219a5ccce85e87369001070000000017a9141988a27e3c2df4ddee7fad5a2303d086179b2a3087040048304502210083e74fa9c665c813316adc6f77732d56abfa9105ebc3014ffe551a8b5fc0e9ea0220565d85c40380e980c5668fc466a8ba91c7b1750736279e7c014948aa744f703601483045022100d0e6eb3f357680ba994900e3f7610d3046443f77e47e39c75d73ea6687e19a5e022020d9d8f7f5ce3ba92b20472beb40e23c16800f3b3400edb8520d225a6774d7180169522102f44abcf9e23c9a460da309ccca56c619c04eed3bde2c2cff5e7d78fbcd980b9c2103c9443cf3047bb6c2c82f1b0c44c36109cdc3d0d601d16d1189a1602bf8d1a0a02103bfe867059274412412e088af5572b92168c2ef495cfe6c9b7a753a009eb37c4853ae00000000", "vin": [{"txinwitness": ["", "304502210083e74fa9c665c813316adc6f77732d56abfa9105ebc3014ffe551a8b5fc0e9ea0220565d85c40380e980c5668fc466a8ba91c7b1750736279e7c014948aa744f703601", "3045022100d0e6eb3f357680ba994900e3f7610d3046443f77e47e39c75d73ea6687e19a5e022020d9d8f7f5ce3ba92b20472beb40e23c16800f3b3400edb8520d225a6774d71801", "522102f44abcf9e23c9a460da309ccca56c619c04eed3bde2c2cff5e7d78fbcd980b9c2103c9443cf3047bb6c2c82f1b0c44c36109cdc3d0d601d16d1189a1602bf8d1a0a02103bfe867059274412412e088af5572b92168c2ef495cfe6c9b7a753a009eb37c4853ae"], "sequence": 4294967295, "scriptSig": {"hex": "22002065d416c48a8072e0ac51c2d111eb194f009caef0332446c1bf2097316cf07fa9", "asm": "002065d416c48a8072e0ac51c2d111eb194f009caef0332446c1bf2097316cf07fa9"}, "vout": 1, "txid": "0e920ec90f5293d8c8e20b2c352d038f1b0c829f1df59630595fdd44b3de1590"}], "txid": "939f038e0d592dcfbda93d5fb662409c6fb630babbf0d7ad411f5c8663de7c6e", "blocktime": 1537873891, "version": 1, "confirmations": 11475, "time": 1537873891, "locktime": 0, "vsize": 246, "size": 438}