{"hash": "93a05bdcaa82014ba5ddac5777e566228fb241ba396bfb3bdcd57caea009debc", "blockhash": "0000000000000000001cda96e906b7601b7a6fb1a3b62bca570a9e5d8f4b3de1", "vout": [{"scriptPubKey": {"reqSigs": 1, "hex": "76a914ac613d70d217af2e0dc7b9d690de65d31d60b67088ac", "addresses": ["1GiTiMDvp3EwSH6KdLkuHjWLdwpbK82sin"], "asm": "OP_DUP OP_HASH160 ac613d70d217af2e0dc7b9d690de65d31d60b670 OP_EQUALVERIFY OP_CHECKSIG", "type": "pubkeyhash"}, "value": 0.01112746, "n": 0}, {"scriptPubKey": {"type": "nulldata", "hex": "6a146f6d6e69000000000000001f0000000b72872620", "asm": "OP_RETURN 6f6d6e69000000000000001f0000000b72872620"}, "value": 0.0, "n": 1}, {"scriptPubKey": {"reqSigs": 1, "hex": "76a914f78607522d0dd64fed2e356da114b378316ae45588ac", "addresses": ["1PZnTrSGFR4XBx1frxYFAaXG5AjKChrmMG"], "asm": "OP_DUP OP_HASH160 f78607522d0dd64fed2e356da114b378316ae455 OP_EQUALVERIFY OP_CHECKSIG", "type": "pubkeyhash"}, "value": 5.46e-06, "n": 2}], "hex": "010000000312c8b9daded69ed5c51030e66090471b3041d5ad9a2ff134720a2dbe42f2df64000000006b48304502210080b9cd9b97f5c96e8fa5742023424682d258a94463d977d74a2579573d538e4c02201222a262efaf981b544173903eb3a9897eb7b9030205c165d061428616d8a9680121021dc5f7580a9ba2f253f7fda1167028643d335b9d7c5c197e35622c3684d29aaffffffffffeae40873201f99b25d25405647ed907d27aadd755298e14feac1fccbbce3665000000006a47304402201d80c016c3f50aa56077bbb3692d4a4f82f0ff42a98fc6b7783e931883a9dd4302203c7be3435593da4ee1532c2846016773f3241c461332ccd06c0599982659c60d0121021dc5f7580a9ba2f253f7fda1167028643d335b9d7c5c197e35622c3684d29aafffffffff665cec9bda2697a8aebfca3c3b0a7c915afd14404caf782b89cd3801d49d43a7000000006a47304402205f50023647580a5fe2e3b3408e9f20324d6410b5a65fc804f157cb4055e9ad70022034dd458928457bd5768269945f15f54234d985a0e316be600de3017aebf4d77b012103d18d9663ce767590d774edd611b5bbd3941674e989f0e6fba7c9e3a7b8e5ca82ffffffff03aafa1000000000001976a914ac613d70d217af2e0dc7b9d690de65d31d60b67088ac0000000000000000166a146f6d6e69000000000000001f0000000b7287262022020000000000001976a914f78607522d0dd64fed2e356da114b378316ae45588ac00000000", "vin": [{"sequence": 4294967295, "scriptSig": {"hex": "48304502210080b9cd9b97f5c96e8fa5742023424682d258a94463d977d74a2579573d538e4c02201222a262efaf981b544173903eb3a9897eb7b9030205c165d061428616d8a9680121021dc5f7580a9ba2f253f7fda1167028643d335b9d7c5c197e35622c3684d29aaf", "asm": "304502210080b9cd9b97f5c96e8fa5742023424682d258a94463d977d74a2579573d538e4c02201222a262efaf981b544173903eb3a9897eb7b9030205c165d061428616d8a968[ALL] 021dc5f7580a9ba2f253f7fda1167028643d335b9d7c5c197e35622c3684d29aaf"}, "vout": 0, "txid": "64dff242be2d0a7234f12f9aadd541301b479060e63010c5d59ed6dedab9c812"}, {"sequence": 4294967295, "scriptSig": {"hex": "47304402201d80c016c3f50aa56077bbb3692d4a4f82f0ff42a98fc6b7783e931883a9dd4302203c7be3435593da4ee1532c2846016773f3241c461332ccd06c0599982659c60d0121021dc5f7580a9ba2f253f7fda1167028643d335b9d7c5c197e35622c3684d29aaf", "asm": "304402201d80c016c3f50aa56077bbb3692d4a4f82f0ff42a98fc6b7783e931883a9dd4302203c7be3435593da4ee1532c2846016773f3241c461332ccd06c0599982659c60d[ALL] 021dc5f7580a9ba2f253f7fda1167028643d335b9d7c5c197e35622c3684d29aaf"}, "vout": 0, "txid": "6536cebbcc1facfe148e2955d7ad7ad207d97e640554d2259bf901328740aefe"}, {"sequence": 4294967295, "scriptSig": {"hex": "47304402205f50023647580a5fe2e3b3408e9f20324d6410b5a65fc804f157cb4055e9ad70022034dd458928457bd5768269945f15f54234d985a0e316be600de3017aebf4d77b012103d18d9663ce767590d774edd611b5bbd3941674e989f0e6fba7c9e3a7b8e5ca82", "asm": "304402205f50023647580a5fe2e3b3408e9f20324d6410b5a65fc804f157cb4055e9ad70022034dd458928457bd5768269945f15f54234d985a0e316be600de3017aebf4d77b[ALL] 03d18d9663ce767590d774edd611b5bbd3941674e989f0e6fba7c9e3a7b8e5ca82"}, "vout": 0, "txid": "a7439dd40138cd892b78af4c4014fd5a917c0a3b3ccabfaea89726da9bec5c66"}], "txid": "93a05bdcaa82014ba5ddac5777e566228fb241ba396bfb3bdcd57caea009debc", "blocktime": 1537873282, "version": 1, "confirmations": 11481, "time": 1537873282, "locktime": 0, "vsize": 551, "size": 551}