{"hash": "ae9a802e1756cace5736b2bc32b4cd06034106348c2980cdaa90c1eef3191c2c", "blockhash": "0000000000000000000e13cef7c366c0283d82e591d1acd082e914b08063cdf1", "vout": [{"scriptPubKey": {"reqSigs": 1, "hex": "76a914942814c84147433f433b7697128e750aae0705fd88ac", "addresses": ["1EWP2HFSnsfD87HFY7pNa5SwbQZNnMqidw"], "asm": "OP_DUP OP_HASH160 942814c84147433f433b7697128e750aae0705fd OP_EQUALVERIFY OP_CHECKSIG", "type": "pubkeyhash"}, "value": 0.00350452, "n": 0}, {"scriptPubKey": {"reqSigs": 1, "hex": "a9140136c10502ae5684e49b302f1af10f145f74b6b787", "addresses": ["31oSC7GvQMTZoouyNLBEHVRDhXEFbVhSmh"], "asm": "OP_HASH160 0136c10502ae5684e49b302f1af10f145f74b6b7 OP_EQUAL", "type": "scripthash"}, "value": 0.1055848, "n": 1}], "hex": "010000000001010f32d470d8392567ad1b99b4a9206d5bacf552016298e49e57165106e3cc24240100000023220020efd02f10cc1074c68ec89b458572a71ce6bfc8a17595d8fde80232e47279444bffffffff02f4580500000000001976a914942814c84147433f433b7697128e750aae0705fd88ac101ca1000000000017a9140136c10502ae5684e49b302f1af10f145f74b6b787040047304402200deac84cda04d7f6661189bcfb5acd855184ed0f8a68941ad2dc3aa1dc117b4402200fbac184528229bcaa710cd76eb1527e5055701f12f00a0d2f06be4d0e4acbca01473044022073818dc4ab9f9f83928715e4efc3ea9aa374ab3c49453547372f43e259741d53022053965c18b2401f62cdab7172e0180c1c4634b44e032e779483ee5eb9664296f90147522103f985ea61f461801f3abc09ebed98ce7e20804639a64616f639f492883ea4e8d62103871fc2ca08e6950b38867e8e6a0e94ee625223d3aa0df5c65f414c6d784467e252ae00000000", "vin": [{"txinwitness": ["", "304402200deac84cda04d7f6661189bcfb5acd855184ed0f8a68941ad2dc3aa1dc117b4402200fbac184528229bcaa710cd76eb1527e5055701f12f00a0d2f06be4d0e4acbca01", "3044022073818dc4ab9f9f83928715e4efc3ea9aa374ab3c49453547372f43e259741d53022053965c18b2401f62cdab7172e0180c1c4634b44e032e779483ee5eb9664296f901", "522103f985ea61f461801f3abc09ebed98ce7e20804639a64616f639f492883ea4e8d62103871fc2ca08e6950b38867e8e6a0e94ee625223d3aa0df5c65f414c6d784467e252ae"], "sequence": 4294967295, "scriptSig": {"hex": "220020efd02f10cc1074c68ec89b458572a71ce6bfc8a17595d8fde80232e47279444b", "asm": "0020efd02f10cc1074c68ec89b458572a71ce6bfc8a17595d8fde80232e47279444b"}, "vout": 1, "txid": "2424cce3065116579ee498620152f5ac5b6d20a9b4991bad672539d870d4320f"}], "txid": "93a2dc0b5f3e6013dd51303e3df24644e14982d7e14aaa21a51f04114b2219bd", "blocktime": 1537871767, "version": 1, "confirmations": 11495, "time": 1537871767, "locktime": 0, "vsize": 207, "size": 372}