{"hash": "9375af2fbddbe7a8c26113040acdf0ab4b5b27327e0d1430096e9e02607674f4", "blockhash": "00000000000000000018f53835495a110e01622372bf6ae95dc86f2b0ab887b0", "vout": [{"scriptPubKey": {"reqSigs": 1, "hex": "a91447bf134e6cd530fcf9fdf254982d8f8c4cb0af0487", "addresses": ["38ENoKJNDX1YAbYH3E4TK8tSQTTBHRUZnf"], "asm": "OP_HASH160 47bf134e6cd530fcf9fdf254982d8f8c4cb0af04 OP_EQUAL", "type": "scripthash"}, "value": 0.69939025, "n": 0}, {"scriptPubKey": {"reqSigs": 1, "hex": "76a9148ca40859e298287adbb76c049c4aec835ff1812188ac", "addresses": ["1Dpe73ULbJL8Cg5bS1UeTDxfa7SSKt63Ss"], "asm": "OP_DUP OP_HASH160 8ca40859e298287adbb76c049c4aec835ff18121 OP_EQUALVERIFY OP_CHECKSIG", "type": "pubkeyhash"}, "value": 0.039, "n": 1}], "hex": "0200000000010116d6a91c4d510699376f580c222af9d19f43555d7bb6e411f7e9e75a4dbb295b000000001716001473590e218d66d1357c1961ccb9f364fe53a240edfeffffff02512f2b040000000017a91447bf134e6cd530fcf9fdf254982d8f8c4cb0af048760823b00000000001976a9148ca40859e298287adbb76c049c4aec835ff1812188ac02483045022100f92571a4939a819b7f9786dadb0b2147d274acccf99e53f82b32bf305984acfe0220015431af4cba72ceb2e40544c2c4f99bef3889b1602455581cf2f46045fb01600121033a06ba7eaf4f432330de81460c0e22318c09ebd388c6060105f2f955d4ab99a7cd480800", "vin": [{"txinwitness": ["3045022100f92571a4939a819b7f9786dadb0b2147d274acccf99e53f82b32bf305984acfe0220015431af4cba72ceb2e40544c2c4f99bef3889b1602455581cf2f46045fb016001", "033a06ba7eaf4f432330de81460c0e22318c09ebd388c6060105f2f955d4ab99a7"], "sequence": 4294967294, "scriptSig": {"hex": "16001473590e218d66d1357c1961ccb9f364fe53a240ed", "asm": "001473590e218d66d1357c1961ccb9f364fe53a240ed"}, "vout": 0, "txid": "5b29bb4d5ae7e9f711e4b67b5d55439fd1f92a220c586f379906514d1ca9d616"}], "txid": "93a2caae59d82d392fac0deffd231939bf2241de7cddda06589a50772c6bd06e", "blocktime": 1537870928, "version": 2, "confirmations": 11514, "time": 1537870928, "locktime": 542925, "vsize": 168, "size": 250}