{"hash": "bddd54e3ec4b2817556d9adcd301faf1c5b01b87d31e6a5b9f92900dc1831cdc", "blockhash": "0000000000000000000e13cef7c366c0283d82e591d1acd082e914b08063cdf1", "vout": [{"scriptPubKey": {"reqSigs": 1, "hex": "001423e2086be208d69065b332a6cb92ebce2974ad59", "addresses": ["bc1qy03qs6lzprtfqednx2nvhyhtec5hft2e73cgld"], "asm": "0 23e2086be208d69065b332a6cb92ebce2974ad59", "type": "witness_v0_keyhash"}, "value": 1.41064603, "n": 0}, {"scriptPubKey": {"reqSigs": 1, "hex": "a91469f376b347a841abe62b6fc095640859bd54a30b87", "addresses": ["3BMEXqb1uZ5h1ZpkT4oaPvtLuYBumS1UKh"], "asm": "OP_HASH160 69f376b347a841abe62b6fc095640859bd54a30b OP_EQUAL", "type": "scripthash"}, "value": 0.00884873, "n": 1}], "hex": "010000000001010b48c1f2c113a201c8472697ea1bab9908fa5ed44679a31233d9c64e04d287a00100000000ffffffff029b7968080000000016001423e2086be208d69065b332a6cb92ebce2974ad5989800d000000000017a91469f376b347a841abe62b6fc095640859bd54a30b870247304402206338e1523a9bb94b9efec0dd6743bfc6a269019721c06aec7165089f2f7ead5c022047b6b68d308d5e8cc8e297fb60092b0c8519d9fcc15929ae895f33cd4c4b462701210352f09fe71377afe19233e4a8d47f7307efcca09bc52f490085fb613e4d87f0dd00000000", "vin": [{"txinwitness": ["304402206338e1523a9bb94b9efec0dd6743bfc6a269019721c06aec7165089f2f7ead5c022047b6b68d308d5e8cc8e297fb60092b0c8519d9fcc15929ae895f33cd4c4b462701", "0352f09fe71377afe19233e4a8d47f7307efcca09bc52f490085fb613e4d87f0dd"], "sequence": 4294967295, "scriptSig": {"hex": "", "asm": ""}, "vout": 1, "txid": "a087d2044ec6d93312a37946d45efa0899ab1bea972647c801a213c1f2c1480b"}], "txid": "93afe35ee64475ed5dfa6a166fffce67fa09929d27290646360bbf40d58a69f9", "blocktime": 1537871767, "version": 1, "confirmations": 11495, "time": 1537871767, "locktime": 0, "vsize": 142, "size": 223}