{"hash": "93b2981fc8a3535f9e62f15e8d032045d7a8a2764ee723b21d29eab3cb2ad9cd", "blockhash": "0000000000000000001cda96e906b7601b7a6fb1a3b62bca570a9e5d8f4b3de1", "vout": [{"scriptPubKey": {"reqSigs": 1, "hex": "76a914d53a78bed97250df82a28783e2f54ff893c6587088ac", "addresses": ["1LSSyYSvMRyhZ6kHyooW9hT15BoB8ygbk9"], "asm": "OP_DUP OP_HASH160 d53a78bed97250df82a28783e2f54ff893c65870 OP_EQUALVERIFY OP_CHECKSIG", "type": "pubkeyhash"}, "value": 0.007806, "n": 0}, {"scriptPubKey": {"reqSigs": 1, "hex": "76a91453b1baad32615dc1831bf29a12c702bb2cf059e088ac", "addresses": ["18dXzmHjvyrJX5Mj6ieWJTCDiQCgSjgQJX"], "asm": "OP_DUP OP_HASH160 53b1baad32615dc1831bf29a12c702bb2cf059e0 OP_EQUALVERIFY OP_CHECKSIG", "type": "pubkeyhash"}, "value": 0.22886711, "n": 1}], "hex": "0100000001eea44c21506737ea3d65b0f51109fd90c05f69c81c60a7e3d244f6c453bcf418000000006b483045022100cea88ec20dae42114b0111a645438e69df52b608ec795c82c2afd09da3030e8a022074df5c5b8010d1a2c9c0864c3f791a398ca881ea7273fbe3de12228aa3686be30121032776e92853de86b0b87decc230368fa6e2b33e645b9bd35669ebf2d1dff215dcffffffff0238e90b00000000001976a914d53a78bed97250df82a28783e2f54ff893c6587088ac37395d01000000001976a91453b1baad32615dc1831bf29a12c702bb2cf059e088ac00000000", "vin": [{"sequence": 4294967295, "scriptSig": {"hex": "483045022100cea88ec20dae42114b0111a645438e69df52b608ec795c82c2afd09da3030e8a022074df5c5b8010d1a2c9c0864c3f791a398ca881ea7273fbe3de12228aa3686be30121032776e92853de86b0b87decc230368fa6e2b33e645b9bd35669ebf2d1dff215dc", "asm": "3045022100cea88ec20dae42114b0111a645438e69df52b608ec795c82c2afd09da3030e8a022074df5c5b8010d1a2c9c0864c3f791a398ca881ea7273fbe3de12228aa3686be3[ALL] 032776e92853de86b0b87decc230368fa6e2b33e645b9bd35669ebf2d1dff215dc"}, "vout": 0, "txid": "18f4bc53c4f644d2e3a7601cc8695fc090fd0911f5b0653dea376750214ca4ee"}], "txid": "93b2981fc8a3535f9e62f15e8d032045d7a8a2764ee723b21d29eab3cb2ad9cd", "blocktime": 1537873282, "version": 1, "confirmations": 11485, "time": 1537873282, "locktime": 0, "vsize": 226, "size": 226}