{"hash": "93b7f1a11db77714d86d11e92198ac3ba5229dc40f2f0a227d4927f6278410f8", "blockhash": "0000000000000000000e13cef7c366c0283d82e591d1acd082e914b08063cdf1", "vout": [{"scriptPubKey": {"reqSigs": 1, "hex": "76a9145a8b63b1a5a1622758c79b0f9a9d4cae6fdfe67a88ac", "addresses": ["19FkoDJSvwRwLdYGJ98fHsURtzDky2Mfse"], "asm": "OP_DUP OP_HASH160 5a8b63b1a5a1622758c79b0f9a9d4cae6fdfe67a OP_EQUALVERIFY OP_CHECKSIG", "type": "pubkeyhash"}, "value": 0.2054, "n": 0}, {"scriptPubKey": {"reqSigs": 1, "hex": "76a914f064bd6600112c1471657ec19851462f2165d17a88ac", "addresses": ["1Nv5rZpnrWwqNwqtxXazpJGQs4jpNQQZaP"], "asm": "OP_DUP OP_HASH160 f064bd6600112c1471657ec19851462f2165d17a OP_EQUALVERIFY OP_CHECKSIG", "type": "pubkeyhash"}, "value": 12.73806767, "n": 1}], "hex": "0200000001f14a84825a9c946f715e7020391c30d040148743dff39d33578bf53ed13ed035010000006a4730440220592daf07b61d1c2da2e4d2ed5c05476751362d341d976666b2ed20130615877d022020a6847e86b75e695dffeedbb21f74c81e6cfd4065c2095b2bc8824cf46f193b01210388ba7d27c83ffe50c4722fbbaa30bf52a0aa5b8ee6391bfeee19d2e1d0090976ffffffff02606a3901000000001976a9145a8b63b1a5a1622758c79b0f9a9d4cae6fdfe67a88acafbfec4b000000001976a914f064bd6600112c1471657ec19851462f2165d17a88ac00000000", "vin": [{"sequence": 4294967295, "scriptSig": {"hex": "4730440220592daf07b61d1c2da2e4d2ed5c05476751362d341d976666b2ed20130615877d022020a6847e86b75e695dffeedbb21f74c81e6cfd4065c2095b2bc8824cf46f193b01210388ba7d27c83ffe50c4722fbbaa30bf52a0aa5b8ee6391bfeee19d2e1d0090976", "asm": "30440220592daf07b61d1c2da2e4d2ed5c05476751362d341d976666b2ed20130615877d022020a6847e86b75e695dffeedbb21f74c81e6cfd4065c2095b2bc8824cf46f193b[ALL] 0388ba7d27c83ffe50c4722fbbaa30bf52a0aa5b8ee6391bfeee19d2e1d0090976"}, "vout": 1, "txid": "35d03ed13ef58b57339df3df43871440d0301c3920705e716f949c5a82844af1"}], "txid": "93b7f1a11db77714d86d11e92198ac3ba5229dc40f2f0a227d4927f6278410f8", "blocktime": 1537871767, "version": 2, "confirmations": 11493, "time": 1537871767, "locktime": 0, "vsize": 225, "size": 225}