{"hash": "93b930e3ad6855dad3c324ba7c020cbde00573ed482d15aa0d7fabf8c437459b", "blockhash": "0000000000000000001f0ddff1eddb255c1121bcd4da4f1bc9a0da00cae72433", "vout": [{"scriptPubKey": {"reqSigs": 1, "hex": "76a91438d5bd6809a7285f84e2ee0a76a39bcab390d13d88ac", "addresses": ["16BWtee2URFBokranRkJt3uwntWobm8Za2"], "asm": "OP_DUP OP_HASH160 38d5bd6809a7285f84e2ee0a76a39bcab390d13d OP_EQUALVERIFY OP_CHECKSIG", "type": "pubkeyhash"}, "value": 0.0020744, "n": 0}, {"scriptPubKey": {"reqSigs": 1, "hex": "76a914dc39048409d8090e65c73dec221a6fa35f4913ce88ac", "addresses": ["1M5RxrkVBPDTywNuaRcx5LaDE1mZxwxs5Z"], "asm": "OP_DUP OP_HASH160 dc39048409d8090e65c73dec221a6fa35f4913ce OP_EQUALVERIFY OP_CHECKSIG", "type": "pubkeyhash"}, "value": 0.0072335, "n": 1}], "hex": "0100000001f749a2548a82b91b66e4f720beaa244c8a28335fd324e6a450b18c6063d997be010000006a47304402202b8e5494242e428c531d519c6df482f5e65e726affacbd8fc358a7b4ae4bccdc0220784de43f5b9c203a5d6711431ab284a7a3d32a23edfaa1a3f3db62754a86ba2201210333bac68cb00bb43890ed6ff226c05c24b87e90592c283ba497510cc05f56a66effffffff02502a0300000000001976a91438d5bd6809a7285f84e2ee0a76a39bcab390d13d88ac96090b00000000001976a914dc39048409d8090e65c73dec221a6fa35f4913ce88ac00000000", "vin": [{"sequence": 4294967295, "scriptSig": {"hex": "47304402202b8e5494242e428c531d519c6df482f5e65e726affacbd8fc358a7b4ae4bccdc0220784de43f5b9c203a5d6711431ab284a7a3d32a23edfaa1a3f3db62754a86ba2201210333bac68cb00bb43890ed6ff226c05c24b87e90592c283ba497510cc05f56a66e", "asm": "304402202b8e5494242e428c531d519c6df482f5e65e726affacbd8fc358a7b4ae4bccdc0220784de43f5b9c203a5d6711431ab284a7a3d32a23edfaa1a3f3db62754a86ba22[ALL] 0333bac68cb00bb43890ed6ff226c05c24b87e90592c283ba497510cc05f56a66e"}, "vout": 1, "txid": "be97d963608cb150a4e624d35f33288a4c24aabe20f7e4661bb9828a54a249f7"}], "txid": "93b930e3ad6855dad3c324ba7c020cbde00573ed482d15aa0d7fabf8c437459b", "blocktime": 1537872018, "version": 1, "confirmations": 11489, "time": 1537872018, "locktime": 0, "vsize": 225, "size": 225}