{"hash": "9ae685f8113199c97cff4c35b26f18975745e65efb8c666b9ff15388491c3d25", "blockhash": "0000000000000000001cda96e906b7601b7a6fb1a3b62bca570a9e5d8f4b3de1", "vout": [{"scriptPubKey": {"reqSigs": 1, "hex": "a9144227bba93eaa27ba13071bf5374e5901fac5ad9987", "addresses": ["37ip7uTszWRPDQxdstproMfkddXoWXiAsj"], "asm": "OP_HASH160 4227bba93eaa27ba13071bf5374e5901fac5ad99 OP_EQUAL", "type": "scripthash"}, "value": 0.02876583, "n": 0}, {"scriptPubKey": {"reqSigs": 1, "hex": "76a914e8ff80dccfaee882e846878d09dab1551362b8df88ac", "addresses": ["1NEyrC26u5xzVTYFyXU6YtZpjGhkJXyeRz"], "asm": "OP_DUP OP_HASH160 e8ff80dccfaee882e846878d09dab1551362b8df OP_EQUALVERIFY OP_CHECKSIG", "type": "pubkeyhash"}, "value": 0.034587, "n": 1}], "hex": "02000000000101331b8cd735f7d8dd76a9d7ea2ead5372689e88c73d4767876d9fbc25a4a1bc370100000017160014587afc28bf014dee36836459ff037fea61ff6de8feffffff02a7e42b000000000017a9144227bba93eaa27ba13071bf5374e5901fac5ad99878cc63400000000001976a914e8ff80dccfaee882e846878d09dab1551362b8df88ac0247304402202baa09ac9ec5f5df1d943af672ec0665fe0293f5b021c30162b0b37bbfff6afc02207f4fd0bf189c876b2c9f79a0970ea0e451e8fde718507d584db4b115959fa7030121028e8ac329c1b9a3b99589fbb5ab6ce4595d1aa734b33e77ff7a111ebafe204a7f13490800", "vin": [{"txinwitness": ["304402202baa09ac9ec5f5df1d943af672ec0665fe0293f5b021c30162b0b37bbfff6afc02207f4fd0bf189c876b2c9f79a0970ea0e451e8fde718507d584db4b115959fa70301", "028e8ac329c1b9a3b99589fbb5ab6ce4595d1aa734b33e77ff7a111ebafe204a7f"], "sequence": 4294967294, "scriptSig": {"hex": "160014587afc28bf014dee36836459ff037fea61ff6de8", "asm": "0014587afc28bf014dee36836459ff037fea61ff6de8"}, "vout": 1, "txid": "37bca1a425bc9f6d8767473dc7889e687253ad2eead7a976ddd8f735d78c1b33"}], "txid": "93bd49f5a9593b44d8d09ed01e5da0ab17f988d8c6f0d48cbfe0da93adb5d24d", "blocktime": 1537873282, "version": 2, "confirmations": 11484, "time": 1537873282, "locktime": 542995, "vsize": 168, "size": 249}