{"hash": "93c531fa0fc4b50f3a8fe088b3f35294e44c0a7e7aab84c04efb0c92f837a589", "blockhash": "00000000000000000018f53835495a110e01622372bf6ae95dc86f2b0ab887b0", "vout": [{"scriptPubKey": {"reqSigs": 1, "hex": "a9147bae34a7f82499a40e9f7be6edca58e51027844c87", "addresses": ["3CxyjANDZNpLVfNVbnZgbqbRXxFPh6vvE2"], "asm": "OP_HASH160 7bae34a7f82499a40e9f7be6edca58e51027844c OP_EQUAL", "type": "scripthash"}, "value": 0.22738863, "n": 0}, {"scriptPubKey": {"reqSigs": 1, "hex": "76a91453e04c9fc0a4978d3b747f20fdafea3aeecd578b88ac", "addresses": ["18eVnWfHsh4QZnk6QfkWFykUrBEGwrX11T"], "asm": "OP_DUP OP_HASH160 53e04c9fc0a4978d3b747f20fdafea3aeecd578b OP_EQUALVERIFY OP_CHECKSIG", "type": "pubkeyhash"}, "value": 0.02310394, "n": 1}, {"scriptPubKey": {"reqSigs": 1, "hex": "76a9149920702ce47568ca282b43acf2ab0d1ccf03d7d788ac", "addresses": ["1ExfFCHqfTsFauBSc1jiyGJMhPFxH7Yo9L"], "asm": "OP_DUP OP_HASH160 9920702ce47568ca282b43acf2ab0d1ccf03d7d7 OP_EQUALVERIFY OP_CHECKSIG", "type": "pubkeyhash"}, "value": 0.00113261, "n": 2}], "hex": "0100000001c1f949c49284a53f127d2a3e07d598d686fcf9537b437b7c3a6828ba5ef0810700000000db00483045022100cc30d1805966dae45cb5b9ac5da1295669bb5ed59f87c9f778d1af13f750458102201f6b64ab3b8ef51f8a8b0b45c1f2bc9278107297b8fa6de5cfceb6b65db6cdd201483045022100d439a3c2af24dab84e4b5ec0c638187cf70f9a22cfad28609126fb779434180d02207f8f28e89aca66ea30446c55472545aeb0412e99b3676e665fb5b1d5c85c6ff00147522102907a54bed8ad74b3f35638c60114ca240a308cb986f3f2f306178869a8880b612103946585e37d6b99fbad64a64fefce4367021c674417d1b6028e52fef00dbcace052aeffffffff03aff75a010000000017a9147bae34a7f82499a40e9f7be6edca58e51027844c87fa402300000000001976a91453e04c9fc0a4978d3b747f20fdafea3aeecd578b88ac6dba0100000000001976a9149920702ce47568ca282b43acf2ab0d1ccf03d7d788ac00000000", "vin": [{"sequence": 4294967295, "scriptSig": {"hex": "00483045022100cc30d1805966dae45cb5b9ac5da1295669bb5ed59f87c9f778d1af13f750458102201f6b64ab3b8ef51f8a8b0b45c1f2bc9278107297b8fa6de5cfceb6b65db6cdd201483045022100d439a3c2af24dab84e4b5ec0c638187cf70f9a22cfad28609126fb779434180d02207f8f28e89aca66ea30446c55472545aeb0412e99b3676e665fb5b1d5c85c6ff00147522102907a54bed8ad74b3f35638c60114ca240a308cb986f3f2f306178869a8880b612103946585e37d6b99fbad64a64fefce4367021c674417d1b6028e52fef00dbcace052ae", "asm": "0 3045022100cc30d1805966dae45cb5b9ac5da1295669bb5ed59f87c9f778d1af13f750458102201f6b64ab3b8ef51f8a8b0b45c1f2bc9278107297b8fa6de5cfceb6b65db6cdd2[ALL] 3045022100d439a3c2af24dab84e4b5ec0c638187cf70f9a22cfad28609126fb779434180d02207f8f28e89aca66ea30446c55472545aeb0412e99b3676e665fb5b1d5c85c6ff0[ALL] 522102907a54bed8ad74b3f35638c60114ca240a308cb986f3f2f306178869a8880b612103946585e37d6b99fbad64a64fefce4367021c674417d1b6028e52fef00dbcace052ae"}, "vout": 0, "txid": "0781f05eba28683a7c7b437b53f9fc86d698d5073e2a7d123fa58492c449f9c1"}], "txid": "93c531fa0fc4b50f3a8fe088b3f35294e44c0a7e7aab84c04efb0c92f837a589", "blocktime": 1537870928, "version": 1, "confirmations": 11512, "time": 1537870928, "locktime": 0, "vsize": 370, "size": 370}