{"hash": "93c57142d3869b53cc8f28b763be370137d504f84275e21665515ff1512dd9b7", "blockhash": "0000000000000000001e0dab787dd257d1dbfcb92a98c2207d5e1078be1f4165", "vout": [{"scriptPubKey": {"reqSigs": 1, "hex": "76a914ccf654b2844a617a61607a0268079d46ce3c87a988ac", "addresses": ["1KgjwW3qWj81dTGa646x9P4cdjb2wodMaX"], "asm": "OP_DUP OP_HASH160 ccf654b2844a617a61607a0268079d46ce3c87a9 OP_EQUALVERIFY OP_CHECKSIG", "type": "pubkeyhash"}, "value": 0.00102414, "n": 0}, {"scriptPubKey": {"reqSigs": 1, "hex": "76a9141b653b4b268301d5058bad85a1f8df8eaa75178588ac", "addresses": ["13VrWsmkbnm9pbw6r3boJUZY4PZRypgkWj"], "asm": "OP_DUP OP_HASH160 1b653b4b268301d5058bad85a1f8df8eaa751785 OP_EQUALVERIFY OP_CHECKSIG", "type": "pubkeyhash"}, "value": 0.0015623, "n": 1}], "hex": "0100000001de504aa1ac21a88e2b642fc13e0caef5689a12d050ebc8ce7a263188ae8c30b1000000006a47304402203cf8e8da98290b64dad2d720b031f73d25219411fff7f1ee0b32d8b2f2a3dc2e0220234226599dbc6fb580e96215b3816e502665a4b578eef17c217495519f4f9a6501210387f03a43a3915fd2e292444a8d513d4ab8d2c24db171cab6d01414deba31528cffffffff020e900100000000001976a914ccf654b2844a617a61607a0268079d46ce3c87a988ac46620200000000001976a9141b653b4b268301d5058bad85a1f8df8eaa75178588ac00000000", "vin": [{"sequence": 4294967295, "scriptSig": {"hex": "47304402203cf8e8da98290b64dad2d720b031f73d25219411fff7f1ee0b32d8b2f2a3dc2e0220234226599dbc6fb580e96215b3816e502665a4b578eef17c217495519f4f9a6501210387f03a43a3915fd2e292444a8d513d4ab8d2c24db171cab6d01414deba31528c", "asm": "304402203cf8e8da98290b64dad2d720b031f73d25219411fff7f1ee0b32d8b2f2a3dc2e0220234226599dbc6fb580e96215b3816e502665a4b578eef17c217495519f4f9a65[ALL] 0387f03a43a3915fd2e292444a8d513d4ab8d2c24db171cab6d01414deba31528c"}, "vout": 0, "txid": "b1308cae8831267acec8eb50d0129a68f5ae0c3ec12f642b8ea821aca14a50de"}], "txid": "93c57142d3869b53cc8f28b763be370137d504f84275e21665515ff1512dd9b7", "blocktime": 1537872475, "version": 1, "confirmations": 11487, "time": 1537872475, "locktime": 0, "vsize": 225, "size": 225}