{"hash": "8f10f80b90d4ed9b760bf416cbc455081997e52acef10f2e0d384484b05619ef", "blockhash": "0000000000000000001cda96e906b7601b7a6fb1a3b62bca570a9e5d8f4b3de1", "vout": [{"scriptPubKey": {"reqSigs": 1, "hex": "76a9141848ff36c7d1e34bb3c486299bf853bbad0a6aba88ac", "addresses": ["13DQfX8f9Yb9Y83yFwW8ozNHuaHWAYafSv"], "asm": "OP_DUP OP_HASH160 1848ff36c7d1e34bb3c486299bf853bbad0a6aba OP_EQUALVERIFY OP_CHECKSIG", "type": "pubkeyhash"}, "value": 2.4998, "n": 0}, {"scriptPubKey": {"reqSigs": 1, "hex": "76a91495649878892b5aa74d1c03760386caf291d31e6288ac", "addresses": ["1EcvC631zV6aZZfwSXKoHzmBjzb5gVCEtd"], "asm": "OP_DUP OP_HASH160 95649878892b5aa74d1c03760386caf291d31e62 OP_EQUALVERIFY OP_CHECKSIG", "type": "pubkeyhash"}, "value": 0.08881, "n": 1}, {"scriptPubKey": {"reqSigs": 1, "hex": "a914f7a5c7e164b62d4723ffb81592a3a0ea3ccf607d87", "addresses": ["3QGTRaPx74Q1GRVfprF7URPkkwBxdA3sA2"], "asm": "OP_HASH160 f7a5c7e164b62d4723ffb81592a3a0ea3ccf607d OP_EQUAL", "type": "scripthash"}, "value": 22.37899026, "n": 2}], "hex": "01000000000101d447bbf1225048540a0e7472dc905cd9d98415d53b981eda58ce597f07cbcd7a0300000017160014f86ab39884f82e684126e1e87aef50ebac1dd49bffffffff036064e60e000000001976a9141848ff36c7d1e34bb3c486299bf853bbad0a6aba88ac68838700000000001976a91495649878892b5aa74d1c03760386caf291d31e6288ac12a163850000000017a914f7a5c7e164b62d4723ffb81592a3a0ea3ccf607d8702473044022017b18cb5536c1063867c50ed40d6184a79483b80969cee5266809c3475dcf62f022064424f47b10b9c1d79d69f960ec12c4a6c325fba88b363fc8f15c1023672d8b6012103d22381018772b2fd8d3e3cd570790cba07f50716d9ea91593c1a2868c5e5cc3e00000000", "vin": [{"txinwitness": ["3044022017b18cb5536c1063867c50ed40d6184a79483b80969cee5266809c3475dcf62f022064424f47b10b9c1d79d69f960ec12c4a6c325fba88b363fc8f15c1023672d8b601", "03d22381018772b2fd8d3e3cd570790cba07f50716d9ea91593c1a2868c5e5cc3e"], "sequence": 4294967295, "scriptSig": {"hex": "160014f86ab39884f82e684126e1e87aef50ebac1dd49b", "asm": "0014f86ab39884f82e684126e1e87aef50ebac1dd49b"}, "vout": 3, "txid": "7acdcb077f59ce58da1e983bd51584d9d95c90dc72740e0a54485022f1bb47d4"}], "txid": "93cafb7b70405d26185ce5a83634e6434237cc8028291d5151f590883f328e24", "blocktime": 1537873282, "version": 1, "confirmations": 11484, "time": 1537873282, "locktime": 0, "vsize": 202, "size": 283}