{"hash": "93cbf52782e8b63f1503f93168643fc11c8bb8b0cc58b635d41507d510b2fe4b", "blockhash": "000000000000000000022b45ed06c6f4ccd3cf7fb5ba4856ebd2e58215665228", "vout": [{"scriptPubKey": {"reqSigs": 1, "hex": "76a914f3cf6b3b7ddf59eac33b57c6058b1a4186bca3e688ac", "addresses": ["1PE9gLCSYFcs5CqFSturP1TgzT7Jk6Sq5X"], "asm": "OP_DUP OP_HASH160 f3cf6b3b7ddf59eac33b57c6058b1a4186bca3e6 OP_EQUALVERIFY OP_CHECKSIG", "type": "pubkeyhash"}, "value": 1.78, "n": 0}, {"scriptPubKey": {"reqSigs": 1, "hex": "76a91454d19f21cfd709f9ef8ba40b6f21795450c389ca88ac", "addresses": ["18jUssxPN9gvgVrhJqqcU5aCqiBoHLqPQu"], "asm": "OP_DUP OP_HASH160 54d19f21cfd709f9ef8ba40b6f21795450c389ca OP_EQUALVERIFY OP_CHECKSIG", "type": "pubkeyhash"}, "value": 0.2419, "n": 1}], "hex": "0100000002c60e446ebf15513767d363356f5f8a0e2d3bc4087e927b8aa9e7fefc368ded58010000006b483045022100fa22aa9621a8217cd0bff226c65d5a485d51e69b0c12bd37cffb5480a671720602206900606c9f8b9830fec8d9c58d1851189a1451e3410d177e764e546c2e45dca80121021e76c4d1a024146296820cbdc05983798e4d2f052d2ef537714c34453fb28af1ffffffffc60e446ebf15513767d363356f5f8a0e2d3bc4087e927b8aa9e7fefc368ded58000000006a4730440220162875c7d9ce966cd76c211eadc178d321b132d01f94c2a593255339692036ed02206e210427f123be979a382c8cb3560b698d1c1af5d6dbc18c9260944a53951f520121031decb2f92e1b9e3c79eebd64bde6620187ae2d9aafc6db6c3a29a3ab76f8d721ffffffff0280109c0a000000001976a914f3cf6b3b7ddf59eac33b57c6058b1a4186bca3e688ac301c7101000000001976a91454d19f21cfd709f9ef8ba40b6f21795450c389ca88ac00000000", "vin": [{"sequence": 4294967295, "scriptSig": {"hex": "483045022100fa22aa9621a8217cd0bff226c65d5a485d51e69b0c12bd37cffb5480a671720602206900606c9f8b9830fec8d9c58d1851189a1451e3410d177e764e546c2e45dca80121021e76c4d1a024146296820cbdc05983798e4d2f052d2ef537714c34453fb28af1", "asm": "3045022100fa22aa9621a8217cd0bff226c65d5a485d51e69b0c12bd37cffb5480a671720602206900606c9f8b9830fec8d9c58d1851189a1451e3410d177e764e546c2e45dca8[ALL] 021e76c4d1a024146296820cbdc05983798e4d2f052d2ef537714c34453fb28af1"}, "vout": 1, "txid": "58ed8d36fcfee7a98a7b927e08c43b2d0e8a5f6f3563d367375115bf6e440ec6"}, {"sequence": 4294967295, "scriptSig": {"hex": "4730440220162875c7d9ce966cd76c211eadc178d321b132d01f94c2a593255339692036ed02206e210427f123be979a382c8cb3560b698d1c1af5d6dbc18c9260944a53951f520121031decb2f92e1b9e3c79eebd64bde6620187ae2d9aafc6db6c3a29a3ab76f8d721", "asm": "30440220162875c7d9ce966cd76c211eadc178d321b132d01f94c2a593255339692036ed02206e210427f123be979a382c8cb3560b698d1c1af5d6dbc18c9260944a53951f52[ALL] 031decb2f92e1b9e3c79eebd64bde6620187ae2d9aafc6db6c3a29a3ab76f8d721"}, "vout": 0, "txid": "58ed8d36fcfee7a98a7b927e08c43b2d0e8a5f6f3563d367375115bf6e440ec6"}], "txid": "93cbf52782e8b63f1503f93168643fc11c8bb8b0cc58b635d41507d510b2fe4b", "blocktime": 1537869901, "version": 1, "confirmations": 11522, "time": 1537869901, "locktime": 0, "vsize": 373, "size": 373}