{"hash": "93cec9efec1b96b311dc757cf586be67dd2fd924f392a8925a0810c34382884e", "blockhash": "0000000000000000001cda96e906b7601b7a6fb1a3b62bca570a9e5d8f4b3de1", "vout": [{"scriptPubKey": {"reqSigs": 1, "hex": "76a914664c01f76c08b89154a27b67ed072f933aef38ff88ac", "addresses": ["1AKtyg2zNTb2ZyCiL9zkoNvy9qpdZWZwVK"], "asm": "OP_DUP OP_HASH160 664c01f76c08b89154a27b67ed072f933aef38ff OP_EQUALVERIFY OP_CHECKSIG", "type": "pubkeyhash"}, "value": 0.98668048, "n": 0}, {"scriptPubKey": {"reqSigs": 1, "hex": "76a914e6eb45c800b4d2fc90d855dc560059283f72c6db88ac", "addresses": ["1N3zG9WL4k3c6TV3zKfKF8Diw7gZVEraV6"], "asm": "OP_DUP OP_HASH160 e6eb45c800b4d2fc90d855dc560059283f72c6db OP_EQUALVERIFY OP_CHECKSIG", "type": "pubkeyhash"}, "value": 0.00262008, "n": 1}], "hex": "0200000001baae31a7ec89b7c33ac6f03716854e17de4e1b8fa8f49aedddd60bbbb7bfde19000000006b4830450221008e4b469794d57861cb41bf07722f91c6f4205df488a979b9a27edcd15d08c65b0220614783e986763a6a26a8d41d17a432868c84be49d805bd90cd3bae1ca6c368500121026dc07d688441d45609e7e3f2fd516a4b55523856568a8c12cb1095e0e6f023a9ffffffff02108ee105000000001976a914664c01f76c08b89154a27b67ed072f933aef38ff88ac78ff0300000000001976a914e6eb45c800b4d2fc90d855dc560059283f72c6db88ac00000000", "vin": [{"sequence": 4294967295, "scriptSig": {"hex": "4830450221008e4b469794d57861cb41bf07722f91c6f4205df488a979b9a27edcd15d08c65b0220614783e986763a6a26a8d41d17a432868c84be49d805bd90cd3bae1ca6c368500121026dc07d688441d45609e7e3f2fd516a4b55523856568a8c12cb1095e0e6f023a9", "asm": "30450221008e4b469794d57861cb41bf07722f91c6f4205df488a979b9a27edcd15d08c65b0220614783e986763a6a26a8d41d17a432868c84be49d805bd90cd3bae1ca6c36850[ALL] 026dc07d688441d45609e7e3f2fd516a4b55523856568a8c12cb1095e0e6f023a9"}, "vout": 0, "txid": "19debfb7bb0bd6dded9af4a88f1b4ede174e851637f0c63ac3b789eca731aeba"}], "txid": "93cec9efec1b96b311dc757cf586be67dd2fd924f392a8925a0810c34382884e", "blocktime": 1537873282, "version": 2, "confirmations": 11481, "time": 1537873282, "locktime": 0, "vsize": 226, "size": 226}