{"hash": "93d00ad3d25e5ccf0d63ed0214396c703bc2e74c5cd479bcd97fcf5d42d43834", "blockhash": "00000000000000000017f5eb5941039fbcee6240d03bc1f2f8e35350df66a1d8", "vout": [{"scriptPubKey": {"reqSigs": 1, "hex": "76a914963b168d60838499f98ee6ae8792bf148f9ef00688ac", "addresses": ["1EhM9HfgQHuh8Vk5vDZAnXF1XJ2ZdkDDxU"], "asm": "OP_DUP OP_HASH160 963b168d60838499f98ee6ae8792bf148f9ef006 OP_EQUALVERIFY OP_CHECKSIG", "type": "pubkeyhash"}, "value": 0.05533357, "n": 0}, {"scriptPubKey": {"reqSigs": 1, "hex": "76a91479d1ba3533bf665843ad833f54078124a4d1df5188ac", "addresses": ["1C781Kr1WvNiozAxGrPgQiVNZTji5m2tcN"], "asm": "OP_DUP OP_HASH160 79d1ba3533bf665843ad833f54078124a4d1df51 OP_EQUALVERIFY OP_CHECKSIG", "type": "pubkeyhash"}, "value": 0.078308, "n": 1}], "hex": "010000000130bc6b1a1073f23cc18cd51ca55bbc33ddb9da3eb6312a16f12d9a3a75c41a69000000006b483045022100fdb310605eb59f2a3aa88aff5a2011a08a0825333184f2ee9a5ed92d262b29ce022055040d92041443536a31c0c086ce9979e0ca9c1ed1912718b57a8e632848beb30121021a6d7cacc5e4b3248fc2aa001d537633354ddb8acef4da8eb9c40b6a7eea9465ffffffff02ad6e5400000000001976a914963b168d60838499f98ee6ae8792bf148f9ef00688ac107d7700000000001976a91479d1ba3533bf665843ad833f54078124a4d1df5188ac00000000", "vin": [{"sequence": 4294967295, "scriptSig": {"hex": "483045022100fdb310605eb59f2a3aa88aff5a2011a08a0825333184f2ee9a5ed92d262b29ce022055040d92041443536a31c0c086ce9979e0ca9c1ed1912718b57a8e632848beb30121021a6d7cacc5e4b3248fc2aa001d537633354ddb8acef4da8eb9c40b6a7eea9465", "asm": "3045022100fdb310605eb59f2a3aa88aff5a2011a08a0825333184f2ee9a5ed92d262b29ce022055040d92041443536a31c0c086ce9979e0ca9c1ed1912718b57a8e632848beb3[ALL] 021a6d7cacc5e4b3248fc2aa001d537633354ddb8acef4da8eb9c40b6a7eea9465"}, "vout": 0, "txid": "691ac4753a9a2df1162a31b63edab9dd33bc5ba51cd58cc13cf273101a6bbc30"}], "txid": "93d00ad3d25e5ccf0d63ed0214396c703bc2e74c5cd479bcd97fcf5d42d43834", "blocktime": 1537874412, "version": 1, "confirmations": 11468, "time": 1537874412, "locktime": 0, "vsize": 226, "size": 226}