{"hash": "e1c3373e760c5eb966e592669cf10eab525a20be7ce867f8d2329f4dcc2a299b", "blockhash": "00000000000000000004ffacab907a6b429b9a5745fa0b75af4234bf69dd7176", "vout": [{"scriptPubKey": {"reqSigs": 1, "hex": "76a9142c047c885034459b4bcfc718e66c861a3d76f02188ac", "addresses": ["151k7AZi1XhWFPeR1VPkvgKrPGYrX65144"], "asm": "OP_DUP OP_HASH160 2c047c885034459b4bcfc718e66c861a3d76f021 OP_EQUALVERIFY OP_CHECKSIG", "type": "pubkeyhash"}, "value": 0.00266053, "n": 0}, {"scriptPubKey": {"reqSigs": 1, "hex": "a914cfaabfe8c271f99a4364b5197ba50c6cddb7adb987", "addresses": ["3Ld4M9RPwEG3VeQbHcC1PsKUndQL7VYLZP"], "asm": "OP_HASH160 cfaabfe8c271f99a4364b5197ba50c6cddb7adb9 OP_EQUAL", "type": "scripthash"}, "value": 0.08659891, "n": 1}], "hex": "01000000000101ebe57b9fecbb2c09b1a01337e27bdc33bf4bf7814493ecff3061ad955b73b0d501000000232200202f7b4024602241b47d3306a6733d9889e4b6761d9f1cb82a18aa8b9ac4506e51ffffffff02450f0400000000001976a9142c047c885034459b4bcfc718e66c861a3d76f02188acb32384000000000017a914cfaabfe8c271f99a4364b5197ba50c6cddb7adb9870400483045022100d4c1a9170dcf244e381b9372a5b7359c0dfc588689f2d80f41e8b9db6c97a05d02207e8a027bdc66e88ec709b9a7a8c5d62c203f6673e9aabd6e06f982dcfc4c012101473044022072c620a5bc3f48de02ed271ed0b86f760317d57919f151b3c25dae47a9a9f3b9022020fe6eb0777712a900b5c97f46a91d2f28d73b76be6f0c6492ba54ec79f7ff910147522102973cd851fecff3a20f08377b072729f303801eee1b7678668338adcaec770ec221033e4af03ed09dbd8a417ba042650d5bd1db7f14f271a8f660974e3abf1fdfa4da52ae00000000", "vin": [{"txinwitness": ["", "3045022100d4c1a9170dcf244e381b9372a5b7359c0dfc588689f2d80f41e8b9db6c97a05d02207e8a027bdc66e88ec709b9a7a8c5d62c203f6673e9aabd6e06f982dcfc4c012101", "3044022072c620a5bc3f48de02ed271ed0b86f760317d57919f151b3c25dae47a9a9f3b9022020fe6eb0777712a900b5c97f46a91d2f28d73b76be6f0c6492ba54ec79f7ff9101", "522102973cd851fecff3a20f08377b072729f303801eee1b7678668338adcaec770ec221033e4af03ed09dbd8a417ba042650d5bd1db7f14f271a8f660974e3abf1fdfa4da52ae"], "sequence": 4294967295, "scriptSig": {"hex": "2200202f7b4024602241b47d3306a6733d9889e4b6761d9f1cb82a18aa8b9ac4506e51", "asm": "00202f7b4024602241b47d3306a6733d9889e4b6761d9f1cb82a18aa8b9ac4506e51"}, "vout": 1, "txid": "d5b0735b95ad6130ffec934481f74bbf33dc7be23713a0b1092cbbec9f7be5eb"}], "txid": "93d06e52ae433487252796cc53bb9b0e046b744ca4e40f6902c02585c63806bd", "blocktime": 1537875543, "version": 1, "confirmations": 11464, "time": 1537875543, "locktime": 0, "vsize": 208, "size": 373}