{"hash": "4720b1e2bf88ad1c15931405bc0b7f26122f4804201e3882cbd189199458da8f", "blockhash": "0000000000000000001cda96e906b7601b7a6fb1a3b62bca570a9e5d8f4b3de1", "vout": [{"scriptPubKey": {"reqSigs": 1, "hex": "76a914bbaec083b5e6b2619a44122d11954d363152fd0488ac", "addresses": ["1J7NhraWXwxB5EzsPgHjvHxXqAAYgWV397"], "asm": "OP_DUP OP_HASH160 bbaec083b5e6b2619a44122d11954d363152fd04 OP_EQUALVERIFY OP_CHECKSIG", "type": "pubkeyhash"}, "value": 0.0028876, "n": 0}, {"scriptPubKey": {"reqSigs": 1, "hex": "a914d23c19fd2f66c103614516b430a9b664e4b027c987", "addresses": ["3LrdpkjqPM7NKGPyt2oRik6BzpBHQsaTcy"], "asm": "OP_HASH160 d23c19fd2f66c103614516b430a9b664e4b027c9 OP_EQUAL", "type": "scripthash"}, "value": 0.01008473, "n": 1}], "hex": "0200000000010206b136f959dd230625ed2c497ca7062071187b4c1f6ffc8cf337a233424fb7e80100000017160014dead22aa263d8b01514ee454f2c53d85a741bd78feffffff837ad33e4c91786e57df3df4afd954cc2d98c6077d9b65996888421a623d75f00000000017160014e2640c7f3800a4c0229cc9c15b6c3d32512e64d7feffffff02f8670400000000001976a914bbaec083b5e6b2619a44122d11954d363152fd0488ac59630f000000000017a914d23c19fd2f66c103614516b430a9b664e4b027c98702483045022100cc7730ddae7d0468738546ddc7b564fa116072dcaa3159bd21974467c6e81ea20220064e144f9f7c5ae0a1d8a55e5d5355f9f5ae15a09682387a366657fa8ee8cb040121022fd4eed4b74d9fdce387e5bf47217095608b3b3a25e6475be9fde60ea64976110247304402200ae5e92408384dadb30c4fb6f0bf176bff6c0f9cd5bfb8111d3c2673f83d2c1902206bb77e7151368b359ea78d4fd9aff2749c9b6a4f94c3fd3c245586459480e658012102fdbf85062a6f30707fefae7637bcac40283a08582eab4ab5b7a7b91730c8e67213490800", "vin": [{"txinwitness": ["3045022100cc7730ddae7d0468738546ddc7b564fa116072dcaa3159bd21974467c6e81ea20220064e144f9f7c5ae0a1d8a55e5d5355f9f5ae15a09682387a366657fa8ee8cb0401", "022fd4eed4b74d9fdce387e5bf47217095608b3b3a25e6475be9fde60ea6497611"], "sequence": 4294967294, "scriptSig": {"hex": "160014dead22aa263d8b01514ee454f2c53d85a741bd78", "asm": "0014dead22aa263d8b01514ee454f2c53d85a741bd78"}, "vout": 1, "txid": "e8b74f4233a237f38cfc6f1f4c7b18712006a77c492ced250623dd59f936b106"}, {"txinwitness": ["304402200ae5e92408384dadb30c4fb6f0bf176bff6c0f9cd5bfb8111d3c2673f83d2c1902206bb77e7151368b359ea78d4fd9aff2749c9b6a4f94c3fd3c245586459480e65801", "02fdbf85062a6f30707fefae7637bcac40283a08582eab4ab5b7a7b91730c8e672"], "sequence": 4294967294, "scriptSig": {"hex": "160014e2640c7f3800a4c0229cc9c15b6c3d32512e64d7", "asm": "0014e2640c7f3800a4c0229cc9c15b6c3d32512e64d7"}, "vout": 0, "txid": "f0753d621a42886899659b7d07c6982dcc54d9aff43ddf576e78914c3ed37a83"}], "txid": "93d1949719b57238acf5f406116dfe12f3476bf44ebde940bbe96d689f9b891b", "blocktime": 1537873282, "version": 2, "confirmations": 11485, "time": 1537873282, "locktime": 542995, "vsize": 259, "size": 421}