{"hash": "93d2c0fc293212532c26ed4202d0a57b59c3e9ae1cdfe713349f212affc160ee", "blockhash": "0000000000000000001f76057863aec43deb6fa401d9628bb513d65a8098bfab", "vout": [{"scriptPubKey": {"reqSigs": 1, "hex": "76a9143eeee277e123a0ffdefa2f10ad71678bc0897b6f88ac", "addresses": ["16jm4tarhSaJ1f8tqRiNmnNdk2zeDep2G6"], "asm": "OP_DUP OP_HASH160 3eeee277e123a0ffdefa2f10ad71678bc0897b6f OP_EQUALVERIFY OP_CHECKSIG", "type": "pubkeyhash"}, "value": 5.46e-06, "n": 0}, {"scriptPubKey": {"reqSigs": 1, "hex": "a9143f4eecba122ad73039d481c8d37f99cb4f887cd887", "addresses": ["37Tm3Qz8Zw2VJrheUUhArDAoq58S6YrS3g"], "asm": "OP_HASH160 3f4eecba122ad73039d481c8d37f99cb4f887cd8 OP_EQUAL", "type": "scripthash"}, "value": 0.99992362, "n": 1}, {"scriptPubKey": {"type": "nulldata", "hex": "6a146f6d6e69000000000000001f00000152e8d1a740", "asm": "OP_RETURN 6f6d6e69000000000000001f00000152e8d1a740"}, "value": 0.0, "n": 2}], "hex": "01000000019cb44be3fb4a488dc682b87198cecf2bc58ed9062068a11eaab8447619d032c301000000fdfe0000483045022100a01870e40f3092de301cbee7d4cc2503bb6073df25b2e55e0624fcc8fd69389f022054e64494020efbde03cac047d12f823213d3d5dfd6d555eba4a378134c1dad6901483045022100fb3b1ddb872ced7d8ae97b64e0e922128026ed8369f9802d6da887fc65b504dc022067eae9db3dfceb317b5c2984d412a4bd6c25fa5b41c6173f997ad22a27b1fda8014c6952210246ccf4de0c54cc7f3354cdd993c2c50cf965fd82238b89659fbd73a1b4bf05a121024fc59f72272a897fe43803374969f396058152fe4765a8d15216f94624257b1b21022593bc69ecbf3bbcc3c58082267cb49dadaf4ca8dbf1b2297338a9d628c4297653aeffffffff0322020000000000001976a9143eeee277e123a0ffdefa2f10ad71678bc0897b6f88ac2ac3f5050000000017a9143f4eecba122ad73039d481c8d37f99cb4f887cd8870000000000000000166a146f6d6e69000000000000001f00000152e8d1a74000000000", "vin": [{"sequence": 4294967295, "scriptSig": {"hex": "00483045022100a01870e40f3092de301cbee7d4cc2503bb6073df25b2e55e0624fcc8fd69389f022054e64494020efbde03cac047d12f823213d3d5dfd6d555eba4a378134c1dad6901483045022100fb3b1ddb872ced7d8ae97b64e0e922128026ed8369f9802d6da887fc65b504dc022067eae9db3dfceb317b5c2984d412a4bd6c25fa5b41c6173f997ad22a27b1fda8014c6952210246ccf4de0c54cc7f3354cdd993c2c50cf965fd82238b89659fbd73a1b4bf05a121024fc59f72272a897fe43803374969f396058152fe4765a8d15216f94624257b1b21022593bc69ecbf3bbcc3c58082267cb49dadaf4ca8dbf1b2297338a9d628c4297653ae", "asm": "0 3045022100a01870e40f3092de301cbee7d4cc2503bb6073df25b2e55e0624fcc8fd69389f022054e64494020efbde03cac047d12f823213d3d5dfd6d555eba4a378134c1dad69[ALL] 3045022100fb3b1ddb872ced7d8ae97b64e0e922128026ed8369f9802d6da887fc65b504dc022067eae9db3dfceb317b5c2984d412a4bd6c25fa5b41c6173f997ad22a27b1fda8[ALL] 52210246ccf4de0c54cc7f3354cdd993c2c50cf965fd82238b89659fbd73a1b4bf05a121024fc59f72272a897fe43803374969f396058152fe4765a8d15216f94624257b1b21022593bc69ecbf3bbcc3c58082267cb49dadaf4ca8dbf1b2297338a9d628c4297653ae"}, "vout": 1, "txid": "c332d0197644b8aa1ea1682006d98ec52bcfce9871b882c68d484afbe34bb49c"}], "txid": "93d2c0fc293212532c26ed4202d0a57b59c3e9ae1cdfe713349f212affc160ee", "blocktime": 1537873891, "version": 1, "confirmations": 11477, "time": 1537873891, "locktime": 0, "vsize": 404, "size": 404}