{"hash": "0c1eb59d4ce42b717108f0d60b776e7caf1e14d07b13627cbd5f2bd1f33bd61f", "blockhash": "0000000000000000000dcc0f55137456b1a82d3642486a52398922ac4d620174", "vout": [{"scriptPubKey": {"reqSigs": 1, "hex": "00148180a49c17c73673f9257a22d0d99a55a6aba87c", "addresses": ["bc1qsxq2f8qhcum887f90g3dpkv62kn2h2ru8h0egk"], "asm": "0 8180a49c17c73673f9257a22d0d99a55a6aba87c", "type": "witness_v0_keyhash"}, "value": 1.102e-05, "n": 0}, {"scriptPubKey": {"reqSigs": 1, "hex": "a91469f3769c6358d8807a3bbf8125c28c15c670a96887", "addresses": ["3BMEXpBNZEd6Sv5sJrxJcMeBGfmhtnf1ro"], "asm": "OP_HASH160 69f3769c6358d8807a3bbf8125c28c15c670a968 OP_EQUAL", "type": "scripthash"}, "value": 0.00120966, "n": 1}], "hex": "010000000001016d9bd51a7c388159cfee135018be2596b3c172d349e5793cce5f6249c214604c59010000171600141dcad671a23aa8470a958d490aff9441932aa67fffffffff024e040000000000001600148180a49c17c73673f9257a22d0d99a55a6aba87c86d801000000000017a91469f3769c6358d8807a3bbf8125c28c15c670a9688702483045022100d3210639e12df7cb7f94abbf6873193bb54d07cb607e5198046058c23ba2f622022027867bd371dc7efcdcb25ea33a60fb7548a43b23e78b460a66a9ece968f3433001210313b9b3a558a728fc2e2dc8f759583fcb4dc1a7039b2b0af7be00f351d4768a2c00000000", "vin": [{"txinwitness": ["3045022100d3210639e12df7cb7f94abbf6873193bb54d07cb607e5198046058c23ba2f622022027867bd371dc7efcdcb25ea33a60fb7548a43b23e78b460a66a9ece968f3433001", "0313b9b3a558a728fc2e2dc8f759583fcb4dc1a7039b2b0af7be00f351d4768a2c"], "sequence": 4294967295, "scriptSig": {"hex": "1600141dcad671a23aa8470a958d490aff9441932aa67f", "asm": "00141dcad671a23aa8470a958d490aff9441932aa67f"}, "vout": 345, "txid": "4c6014c249625fce3c79e549d372c1b39625be185013eecf5981387c1ad59b6d"}], "txid": "93d32710162c6fca4aff5e276a069d859ecd1928bf02f3c6e86edd82ad4f9ee5", "blocktime": 1537870268, "version": 1, "confirmations": 11518, "time": 1537870268, "locktime": 0, "vsize": 165, "size": 247}