{"hash": "93d47e88265cdca92403cb613e1801494498f7528eaea4201533c67cecaf2de9", "blockhash": "0000000000000000000e13cef7c366c0283d82e591d1acd082e914b08063cdf1", "vout": [{"scriptPubKey": {"reqSigs": 1, "hex": "76a9149b82acb9532996c30a732eb6866c65eba3fc523688ac", "addresses": ["1FBGHAw4CF5qNDBtqDFf7ccv7BGGF1Egfv"], "asm": "OP_DUP OP_HASH160 9b82acb9532996c30a732eb6866c65eba3fc5236 OP_EQUALVERIFY OP_CHECKSIG", "type": "pubkeyhash"}, "value": 0.020004, "n": 0}, {"scriptPubKey": {"reqSigs": 1, "hex": "76a914f81d327a010cbb4f96c94c88855811c57e22c01788ac", "addresses": ["1PcuZEHvN4DYhe55sZixWtHi4KaL9Jtkpc"], "asm": "OP_DUP OP_HASH160 f81d327a010cbb4f96c94c88855811c57e22c017 OP_EQUALVERIFY OP_CHECKSIG", "type": "pubkeyhash"}, "value": 0.327972, "n": 1}], "hex": "01000000016a0c2530d38e1930508e5478b05c0de4c1a1289f29738c9d3692ad2cf978b18d010000006b483045022100e7e87a38e8c7b6fd92ef51da179cdaed4878bfb527f2d39f60e15cf2b2479398022077e74be135cb9409c12712efb82b6d3f55b06baa5fbdadeda1ef6579c604d4c1012103719b180407c1acf728acae097bcdbaa1cd2873380942ac5c37a3d1f8c82d783efeffffff0210861e00000000001976a9149b82acb9532996c30a732eb6866c65eba3fc523688ac1072f401000000001976a914f81d327a010cbb4f96c94c88855811c57e22c01788ac0f490800", "vin": [{"sequence": 4294967294, "scriptSig": {"hex": "483045022100e7e87a38e8c7b6fd92ef51da179cdaed4878bfb527f2d39f60e15cf2b2479398022077e74be135cb9409c12712efb82b6d3f55b06baa5fbdadeda1ef6579c604d4c1012103719b180407c1acf728acae097bcdbaa1cd2873380942ac5c37a3d1f8c82d783e", "asm": "3045022100e7e87a38e8c7b6fd92ef51da179cdaed4878bfb527f2d39f60e15cf2b2479398022077e74be135cb9409c12712efb82b6d3f55b06baa5fbdadeda1ef6579c604d4c1[ALL] 03719b180407c1acf728acae097bcdbaa1cd2873380942ac5c37a3d1f8c82d783e"}, "vout": 1, "txid": "8db178f92cad92369d8c73299f28a1c1e40d5cb078548e5030198ed330250c6a"}], "txid": "93d47e88265cdca92403cb613e1801494498f7528eaea4201533c67cecaf2de9", "blocktime": 1537871767, "version": 1, "confirmations": 11493, "time": 1537871767, "locktime": 542991, "vsize": 226, "size": 226}