{"hash": "93d556bf9a3c12a7de412cc0ee8dfcaa3c98382bb18d61777b91cbe75ad47337", "blockhash": "0000000000000000001f76057863aec43deb6fa401d9628bb513d65a8098bfab", "vout": [{"scriptPubKey": {"reqSigs": 1, "hex": "a91433b16e1678b24bb7b8f2de7efb450c6560b5508587", "addresses": ["36QLwP6S5A6f5TKFiNTRpB7BQRpL2aAP5C"], "asm": "OP_HASH160 33b16e1678b24bb7b8f2de7efb450c6560b55085 OP_EQUAL", "type": "scripthash"}, "value": 0.02116008, "n": 0}, {"scriptPubKey": {"reqSigs": 1, "hex": "76a914144be06b077bb5deefca15384de1ba11214a11a988ac", "addresses": ["12rKQqaMuTx4FvmissWMPBtqPC54BhaCSy"], "asm": "OP_DUP OP_HASH160 144be06b077bb5deefca15384de1ba11214a11a9 OP_EQUALVERIFY OP_CHECKSIG", "type": "pubkeyhash"}, "value": 0.76900503, "n": 1}], "hex": "010000000212238d4870e87e84606ad6704f344da5e947616d49d5d38d9119af80061420bd000000006a4730440220474f7dc61e36adbcc2d85e017d682f8a1d784dceca84c3c24cde07307290df8a02201166843f0a79f600299537b6e3e91b41bfb2c1173c5ae6d9f8c8692a9467c15101210325632f3dc528af64fd2e5f172051e073b24377c91b48f9f039f1f9b15a462b49ffffffffffd84c06dd015802525459033dda7fc68876f611ee8283ea5f42f6cc7b7d26e9010000006b483045022100acae44205291e898a7ece49cec5cace9a8056dc64d826d2fb99a4a432ae9f8eb022008a9c6641d27e7214d593d92db878e1bf5030c1f8e5b8fef5fe6d1244190568e01210364c167e5ba0464f1a790e252fa523c1118af8ab12ea23a419aba846ba68be861ffffffff02a84920000000000017a91433b16e1678b24bb7b8f2de7efb450c6560b550858797689504000000001976a914144be06b077bb5deefca15384de1ba11214a11a988ac00000000", "vin": [{"sequence": 4294967295, "scriptSig": {"hex": "4730440220474f7dc61e36adbcc2d85e017d682f8a1d784dceca84c3c24cde07307290df8a02201166843f0a79f600299537b6e3e91b41bfb2c1173c5ae6d9f8c8692a9467c15101210325632f3dc528af64fd2e5f172051e073b24377c91b48f9f039f1f9b15a462b49", "asm": "30440220474f7dc61e36adbcc2d85e017d682f8a1d784dceca84c3c24cde07307290df8a02201166843f0a79f600299537b6e3e91b41bfb2c1173c5ae6d9f8c8692a9467c151[ALL] 0325632f3dc528af64fd2e5f172051e073b24377c91b48f9f039f1f9b15a462b49"}, "vout": 0, "txid": "bd20140680af19918dd3d5496d6147e9a54d344f70d66a60847ee870488d2312"}, {"sequence": 4294967295, "scriptSig": {"hex": "483045022100acae44205291e898a7ece49cec5cace9a8056dc64d826d2fb99a4a432ae9f8eb022008a9c6641d27e7214d593d92db878e1bf5030c1f8e5b8fef5fe6d1244190568e01210364c167e5ba0464f1a790e252fa523c1118af8ab12ea23a419aba846ba68be861", "asm": "3045022100acae44205291e898a7ece49cec5cace9a8056dc64d826d2fb99a4a432ae9f8eb022008a9c6641d27e7214d593d92db878e1bf5030c1f8e5b8fef5fe6d1244190568e[ALL] 0364c167e5ba0464f1a790e252fa523c1118af8ab12ea23a419aba846ba68be861"}, "vout": 1, "txid": "e9267d7bccf6425fea8382ee11f67688c67fda3d03595452025801dd064cd8ff"}], "txid": "93d556bf9a3c12a7de412cc0ee8dfcaa3c98382bb18d61777b91cbe75ad47337", "blocktime": 1537873891, "version": 1, "confirmations": 11475, "time": 1537873891, "locktime": 0, "vsize": 371, "size": 371}