{"hash": "93ddb64769cd7b1e3b0b74e751b5218dbad489d72cdeb45112a011fa55748039", "blockhash": "0000000000000000000dcc0f55137456b1a82d3642486a52398922ac4d620174", "vout": [{"scriptPubKey": {"reqSigs": 1, "hex": "a9148b8b8837b63ae32f736e085fe1e191cb6359f34a87", "addresses": ["3EQs14vYqrryt8G7Vi5g7AguFKtpddYAQk"], "asm": "OP_HASH160 8b8b8837b63ae32f736e085fe1e191cb6359f34a OP_EQUAL", "type": "scripthash"}, "value": 0.00357884, "n": 0}], "hex": "0100000002e2ed70e9f7a671b41b6ab0c23fb8daac570fcb912618e2be07dff5469b314107080000006b483045022100cc951e2fbd04a7a055a6f8afca646bf0bff7ea81062532abdbf42772864f435c022054fb79860bd4f199259169805c7478783137b21f6082dd2fd87f6aedb60e4c4a012102b619249402a67fef8b41f3fc68e0669abb8afa4fcb30f9058f72d9c5d555b06dffffffffc647dee9c654f132934f26be287610c016567bbe4ec7e6b1497de54aa85a9072070000006b483045022100afa0d1aa501c65d0ae325df4271080e97bed1365ddad8e9496decb14acb7c3b602202293f82e4835877e6e1ef7fdc22fcae00a7d28e89e6f0faba791eba26d6936a8012102b619249402a67fef8b41f3fc68e0669abb8afa4fcb30f9058f72d9c5d555b06dffffffff01fc7505000000000017a9148b8b8837b63ae32f736e085fe1e191cb6359f34a8700000000", "vin": [{"sequence": 4294967295, "scriptSig": {"hex": "483045022100cc951e2fbd04a7a055a6f8afca646bf0bff7ea81062532abdbf42772864f435c022054fb79860bd4f199259169805c7478783137b21f6082dd2fd87f6aedb60e4c4a012102b619249402a67fef8b41f3fc68e0669abb8afa4fcb30f9058f72d9c5d555b06d", "asm": "3045022100cc951e2fbd04a7a055a6f8afca646bf0bff7ea81062532abdbf42772864f435c022054fb79860bd4f199259169805c7478783137b21f6082dd2fd87f6aedb60e4c4a[ALL] 02b619249402a67fef8b41f3fc68e0669abb8afa4fcb30f9058f72d9c5d555b06d"}, "vout": 8, "txid": "0741319b46f5df07bee2182691cb0f57acdab83fc2b06a1bb471a6f7e970ede2"}, {"sequence": 4294967295, "scriptSig": {"hex": "483045022100afa0d1aa501c65d0ae325df4271080e97bed1365ddad8e9496decb14acb7c3b602202293f82e4835877e6e1ef7fdc22fcae00a7d28e89e6f0faba791eba26d6936a8012102b619249402a67fef8b41f3fc68e0669abb8afa4fcb30f9058f72d9c5d555b06d", "asm": "3045022100afa0d1aa501c65d0ae325df4271080e97bed1365ddad8e9496decb14acb7c3b602202293f82e4835877e6e1ef7fdc22fcae00a7d28e89e6f0faba791eba26d6936a8[ALL] 02b619249402a67fef8b41f3fc68e0669abb8afa4fcb30f9058f72d9c5d555b06d"}, "vout": 7, "txid": "72905aa84ae57d49b1e6c74ebe7b5616c0107628be264f9332f154c6e9de47c6"}], "txid": "93ddb64769cd7b1e3b0b74e751b5218dbad489d72cdeb45112a011fa55748039", "blocktime": 1537870268, "version": 1, "confirmations": 11516, "time": 1537870268, "locktime": 0, "vsize": 338, "size": 338}