{"hash": "93e0acc97b8d6a821aa219a95b8e248f0e7bf154556018c549c010ed494d3d25", "blockhash": "0000000000000000001f76057863aec43deb6fa401d9628bb513d65a8098bfab", "vout": [{"scriptPubKey": {"reqSigs": 1, "hex": "76a9147747473f1b0930255b55a6252efb62b378edebb088ac", "addresses": ["1BsgoLDoDULKjo7frt1YGBxPMXkpKsFP5h"], "asm": "OP_DUP OP_HASH160 7747473f1b0930255b55a6252efb62b378edebb0 OP_EQUALVERIFY OP_CHECKSIG", "type": "pubkeyhash"}, "value": 0.00562, "n": 0}], "hex": "01000000030ee00515065862803e695ad7e2b30aedb5fcd013a73d65ee4e89deef7de8126e000000006b483045022100b83534fa8e06ae0786127be4160f999a45e458ec4f5d194b962520e9e6320fb2022011ea1ca1f9c9578b70009f33f6086537ad6a1ffe6a0993f8f650a535e332265e0121027a5579aec39e888f24033281687ce1bbecd4d7de406a174e4f991afaebf1244effffffffe14b91dde6184c2a6e0f1c84450179316716a2c64488261d26fc6557b5e8b67c010000006a47304402206799013cffe0d04c15ca75cca7f543dc530fe39928c23925d96ac1b9c6fa7a1a022019d0f118b4ea2361b1e3f1c7c5d4c9ae3b036a16a23c224dbfe4603c4336530d0121036eb1c072ece5c4e24bdc7d55f50bff0292961935c475080b1b91ed83ae3e85b9ffffffff82bee64b9b4388df3c2c45e7ba43cd8575bfd9913f4212b7b4c83ada06bc6d99000000006b483045022100bd57add5d7928bce77785f6ad241f9d0a7efaf3788313a4116b7962a73e953c802203c553451e0e44d476d962f4a7c7c29477e4a38227a12aaa1e2087fc0ec329f04012103117aa521685375c013cdbc291f0b6bbc4c41b29a634819b6fb562a6c06f83749ffffffff0150930800000000001976a9147747473f1b0930255b55a6252efb62b378edebb088ac00000000", "vin": [{"sequence": 4294967295, "scriptSig": {"hex": "483045022100b83534fa8e06ae0786127be4160f999a45e458ec4f5d194b962520e9e6320fb2022011ea1ca1f9c9578b70009f33f6086537ad6a1ffe6a0993f8f650a535e332265e0121027a5579aec39e888f24033281687ce1bbecd4d7de406a174e4f991afaebf1244e", "asm": "3045022100b83534fa8e06ae0786127be4160f999a45e458ec4f5d194b962520e9e6320fb2022011ea1ca1f9c9578b70009f33f6086537ad6a1ffe6a0993f8f650a535e332265e[ALL] 027a5579aec39e888f24033281687ce1bbecd4d7de406a174e4f991afaebf1244e"}, "vout": 0, "txid": "6e12e87defde894eee653da713d0fcb5ed0ab3e2d75a693e806258061505e00e"}, {"sequence": 4294967295, "scriptSig": {"hex": "47304402206799013cffe0d04c15ca75cca7f543dc530fe39928c23925d96ac1b9c6fa7a1a022019d0f118b4ea2361b1e3f1c7c5d4c9ae3b036a16a23c224dbfe4603c4336530d0121036eb1c072ece5c4e24bdc7d55f50bff0292961935c475080b1b91ed83ae3e85b9", "asm": "304402206799013cffe0d04c15ca75cca7f543dc530fe39928c23925d96ac1b9c6fa7a1a022019d0f118b4ea2361b1e3f1c7c5d4c9ae3b036a16a23c224dbfe4603c4336530d[ALL] 036eb1c072ece5c4e24bdc7d55f50bff0292961935c475080b1b91ed83ae3e85b9"}, "vout": 1, "txid": "7cb6e8b55765fc261d268844c6a2166731790145841c0f6e2a4c18e6dd914be1"}, {"sequence": 4294967295, "scriptSig": {"hex": "483045022100bd57add5d7928bce77785f6ad241f9d0a7efaf3788313a4116b7962a73e953c802203c553451e0e44d476d962f4a7c7c29477e4a38227a12aaa1e2087fc0ec329f04012103117aa521685375c013cdbc291f0b6bbc4c41b29a634819b6fb562a6c06f83749", "asm": "3045022100bd57add5d7928bce77785f6ad241f9d0a7efaf3788313a4116b7962a73e953c802203c553451e0e44d476d962f4a7c7c29477e4a38227a12aaa1e2087fc0ec329f04[ALL] 03117aa521685375c013cdbc291f0b6bbc4c41b29a634819b6fb562a6c06f83749"}, "vout": 0, "txid": "996dbc06da3ac8b4b712423f91d9bf7585cd43bae7452c3cdf88439b4be6be82"}], "txid": "93e0acc97b8d6a821aa219a95b8e248f0e7bf154556018c549c010ed494d3d25", "blocktime": 1537873891, "version": 1, "confirmations": 11475, "time": 1537873891, "locktime": 0, "vsize": 487, "size": 487}