{"hash": "93e199a57723daa6ac8182ac17547b450f9ca1e451f76377e32dfd3c6c1cba01", "blockhash": "00000000000000000017f5eb5941039fbcee6240d03bc1f2f8e35350df66a1d8", "vout": [{"scriptPubKey": {"reqSigs": 1, "hex": "a914c2d9653752093e9ac887ca260217a28dc97903a287", "addresses": ["3KTHSeuTnCsuQbmC3Fs4zVhiNyWgneBD51"], "asm": "OP_HASH160 c2d9653752093e9ac887ca260217a28dc97903a2 OP_EQUAL", "type": "scripthash"}, "value": 0.01520005, "n": 0}, {"scriptPubKey": {"reqSigs": 1, "hex": "76a914191b292e5f96962f617f3587ba4b30fc15f957e488ac", "addresses": ["13HkRy1Vset4Qmr55zmirBDpE3HVkcDysY"], "asm": "OP_DUP OP_HASH160 191b292e5f96962f617f3587ba4b30fc15f957e4 OP_EQUALVERIFY OP_CHECKSIG", "type": "pubkeyhash"}, "value": 0.23292, "n": 1}, {"scriptPubKey": {"reqSigs": 1, "hex": "a914972de08664950b29a699027d10ceb02e411e592887", "addresses": ["3FUNv6xTjn8wa1FiQJ6Xb8nMviYnfA6ZEJ"], "asm": "OP_HASH160 972de08664950b29a699027d10ceb02e411e5928 OP_EQUAL", "type": "scripthash"}, "value": 0.00575881, "n": 2}, {"scriptPubKey": {"reqSigs": 1, "hex": "76a914a69e7b2b5847af90d3920b0313a38ff09e50aa8388ac", "addresses": ["1GC12JjmJpAw855yjcXFpAvaGYuSGoMv4c"], "asm": "OP_DUP OP_HASH160 a69e7b2b5847af90d3920b0313a38ff09e50aa83 OP_EQUALVERIFY OP_CHECKSIG", "type": "pubkeyhash"}, "value": 0.01291512, "n": 3}, {"scriptPubKey": {"reqSigs": 1, "hex": "a914824bda97436d7ef45cc1e7d4e2d1e091c80c939b87", "addresses": ["3DZxduDLDCtPXBDczqjV8rtvtUdgZGzkmt"], "asm": "OP_HASH160 824bda97436d7ef45cc1e7d4e2d1e091c80c939b OP_EQUAL", "type": "scripthash"}, "value": 0.02843917, "n": 4}, {"scriptPubKey": {"reqSigs": 1, "hex": "76a914a8e0d18fc4f26dc99724101447c070e1abe1771788ac", "addresses": ["1GPwqu4pVnCnLpN2rxFMbuX2C721rd7reL"], "asm": "OP_DUP OP_HASH160 a8e0d18fc4f26dc99724101447c070e1abe17717 OP_EQUALVERIFY OP_CHECKSIG", "type": "pubkeyhash"}, "value": 0.00236, "n": 5}, {"scriptPubKey": {"reqSigs": 1, "hex": "76a9149316a5d614d5d9788ea4f045791b6786a569c89888ac", "addresses": ["1EQjTo9apLL1iMESbxZ2pMVBXMZ2vMCaF3"], "asm": "OP_DUP OP_HASH160 9316a5d614d5d9788ea4f045791b6786a569c898 OP_EQUALVERIFY OP_CHECKSIG", "type": "pubkeyhash"}, "value": 0.06832494, "n": 6}, {"scriptPubKey": {"reqSigs": 1, "hex": "76a9140988da511fd63c70015a4a35ab28729d62ee24c288ac", "addresses": ["1sR2RhCGTNt3yHwmMVvJJwrZCHVLzSZJv"], "asm": "OP_DUP OP_HASH160 0988da511fd63c70015a4a35ab28729d62ee24c2 OP_EQUALVERIFY OP_CHECKSIG", "type": "pubkeyhash"}, "value": 0.00995627, "n": 7}, {"scriptPubKey": {"reqSigs": 1, "hex": "76a9149cc33aed82a1a51ddb960ef976ae14ca977c39a688ac", "addresses": ["1FHtHktc1BKoMBxink1WKjLxW3bSHhpBmi"], "asm": "OP_DUP OP_HASH160 9cc33aed82a1a51ddb960ef976ae14ca977c39a6 OP_EQUALVERIFY OP_CHECKSIG", "type": "pubkeyhash"}, "value": 0.00234, "n": 8}, {"scriptPubKey": {"reqSigs": 1, "hex": "a91481f8e789332502c24531b7729a7e9328ec92c37987", "addresses": ["3DYFGUQeycLJ9HDhDGC4RstpLQeMPJ3x82"], "asm": "OP_HASH160 81f8e789332502c24531b7729a7e9328ec92c379 OP_EQUAL", "type": "scripthash"}, "value": 0.02012982, "n": 9}, {"scriptPubKey": {"reqSigs": 1, "hex": "76a914d6beacd9aa9035c9fb881428f5c0fcd1b39a84cb88ac", "addresses": ["1LaU2Q1CGHnpcmBJsAtcbsdfbGKZhbNhzj"], "asm": "OP_DUP OP_HASH160 d6beacd9aa9035c9fb881428f5c0fcd1b39a84cb OP_EQUALVERIFY OP_CHECKSIG", "type": "pubkeyhash"}, "value": 0.00406, "n": 10}], "hex": "020000000635d8a062639e9ac89b79edd8ad53ca9e1ce5ba08a598f16c4b7ac71c6c4b019e0c0000006a473044022040589ca55b5fc7d89778ead5479f0087c241910f9824b0656a93cc35f3d1bc1102205746774b67c423f7e9b573c7587007e6fad76bd7b3f82d2b3f65305a25cc789f012102a9732767f57a533d8e6ec36e0e854464f39a70e0d37108705ad1087adee7853efeffffff38e6e6b158be1d22090ddc691bb5bc0efde7e15a96d6568417d8ffe6aafd3fab050000006a4730440220652d2f76c9b6f1a78366d0075044294805096cae7afa0a72307be5c215ceca0602202319d0691cf7665589aec43cef9f129825fe89a42d0f6e0acb24715385416704012103386a8668cc35b246e2d28015f0c60d1a7a1063f677e8d5bcd4a0e08368b58f7bfeffffff809d4306e258dc26ea7724679c082ef3e68e5b30929ca52fcf3a7ab6cfc21a2f040000006b483045022100a592e7a0b81b87e839121da59723a7f595fc1c082307a410bf2c463c76977ab1022000edc6a119b26edef59ab9bc8b7159ad38a5462879f86b8fa409f06ce0c7a264012102a898136c3bb02715bca30876799bf577668ffd60aafc6c5b9c52f3049589298bfeffffff8abfb6fbb57af922c4b80f8a1775901971a70436edb4f1ad9e1764dbcf92f184010000006b483045022100e080fc6a087bdc57686cfa600596b57b4be1a275af36af236e5b59f71861d0f302202ebacbfb15f1341fe791196bf83c1a236d16398bd620b865dde94b084d34cf8c012102f65c06d13df36fbd78e007527bd0d1dd5392847a7608c1e7d4aba09170b459c3feffffffc94e8c74799a572d24733441d7acd5866318465b896cb2281c09bcbeded89f052d0000006a47304402205b8048a2516c0d2ab11d2ea4c14f259ce7d120608580e82829a676a54b1f3e9a0220681dfae4971260e20133b3657a1b248c37f8842f2c58e5d77ce9ac667aec5b41012103d5cb9e3f99139f1799d7347953a0d8056a8552395b8ca94767e22d4420a743bdfeffffffff91052c032b731227c21bd8ef41f66c33ffe2317b61a6ab86e894007f2c7a59000000006b483045022100c6bbf5adf00760f14ed68362ec4231362928d98494146fe9c82ed9e5e07f2af50220600efe194571d7bf6be74d66df5a1a24ca2ff775f4a34c9ef2695e88e80beb4b01210249b419e12bb3ce0ab68214acd411c7a82d6c55464542e0263e4ef639bae998a8feffffff0b853117000000000017a914c2d9653752093e9ac887ca260217a28dc97903a28760686301000000001976a914191b292e5f96962f617f3587ba4b30fc15f957e488ac89c908000000000017a914972de08664950b29a699027d10ceb02e411e592887f8b41300000000001976a914a69e7b2b5847af90d3920b0313a38ff09e50aa8388ac0d652b000000000017a914824bda97436d7ef45cc1e7d4e2d1e091c80c939b87e0990300000000001976a914a8e0d18fc4f26dc99724101447c070e1abe1771788ac6e416800000000001976a9149316a5d614d5d9788ea4f045791b6786a569c89888ac2b310f00000000001976a9140988da511fd63c70015a4a35ab28729d62ee24c288ac10920300000000001976a9149cc33aed82a1a51ddb960ef976ae14ca977c39a688ac36b71e000000000017a91481f8e789332502c24531b7729a7e9328ec92c37987f0310600000000001976a914d6beacd9aa9035c9fb881428f5c0fcd1b39a84cb88ac14490800", "vin": [{"sequence": 4294967294, "scriptSig": {"hex": "473044022040589ca55b5fc7d89778ead5479f0087c241910f9824b0656a93cc35f3d1bc1102205746774b67c423f7e9b573c7587007e6fad76bd7b3f82d2b3f65305a25cc789f012102a9732767f57a533d8e6ec36e0e854464f39a70e0d37108705ad1087adee7853e", "asm": "3044022040589ca55b5fc7d89778ead5479f0087c241910f9824b0656a93cc35f3d1bc1102205746774b67c423f7e9b573c7587007e6fad76bd7b3f82d2b3f65305a25cc789f[ALL] 02a9732767f57a533d8e6ec36e0e854464f39a70e0d37108705ad1087adee7853e"}, "vout": 12, "txid": "9e014b6c1cc77a4b6cf198a508bae51c9eca53add8ed799bc89a9e6362a0d835"}, {"sequence": 4294967294, "scriptSig": {"hex": "4730440220652d2f76c9b6f1a78366d0075044294805096cae7afa0a72307be5c215ceca0602202319d0691cf7665589aec43cef9f129825fe89a42d0f6e0acb24715385416704012103386a8668cc35b246e2d28015f0c60d1a7a1063f677e8d5bcd4a0e08368b58f7b", "asm": "30440220652d2f76c9b6f1a78366d0075044294805096cae7afa0a72307be5c215ceca0602202319d0691cf7665589aec43cef9f129825fe89a42d0f6e0acb24715385416704[ALL] 03386a8668cc35b246e2d28015f0c60d1a7a1063f677e8d5bcd4a0e08368b58f7b"}, "vout": 5, "txid": "ab3ffdaae6ffd8178456d6965ae1e7fd0ebcb51b69dc0d09221dbe58b1e6e638"}, {"sequence": 4294967294, "scriptSig": {"hex": "483045022100a592e7a0b81b87e839121da59723a7f595fc1c082307a410bf2c463c76977ab1022000edc6a119b26edef59ab9bc8b7159ad38a5462879f86b8fa409f06ce0c7a264012102a898136c3bb02715bca30876799bf577668ffd60aafc6c5b9c52f3049589298b", "asm": "3045022100a592e7a0b81b87e839121da59723a7f595fc1c082307a410bf2c463c76977ab1022000edc6a119b26edef59ab9bc8b7159ad38a5462879f86b8fa409f06ce0c7a264[ALL] 02a898136c3bb02715bca30876799bf577668ffd60aafc6c5b9c52f3049589298b"}, "vout": 4, "txid": "2f1ac2cfb67a3acf2fa59c92305b8ee6f32e089c672477ea26dc58e206439d80"}, {"sequence": 4294967294, "scriptSig": {"hex": "483045022100e080fc6a087bdc57686cfa600596b57b4be1a275af36af236e5b59f71861d0f302202ebacbfb15f1341fe791196bf83c1a236d16398bd620b865dde94b084d34cf8c012102f65c06d13df36fbd78e007527bd0d1dd5392847a7608c1e7d4aba09170b459c3", "asm": "3045022100e080fc6a087bdc57686cfa600596b57b4be1a275af36af236e5b59f71861d0f302202ebacbfb15f1341fe791196bf83c1a236d16398bd620b865dde94b084d34cf8c[ALL] 02f65c06d13df36fbd78e007527bd0d1dd5392847a7608c1e7d4aba09170b459c3"}, "vout": 1, "txid": "84f192cfdb64179eadf1b4ed3604a771199075178a0fb8c422f97ab5fbb6bf8a"}, {"sequence": 4294967294, "scriptSig": {"hex": "47304402205b8048a2516c0d2ab11d2ea4c14f259ce7d120608580e82829a676a54b1f3e9a0220681dfae4971260e20133b3657a1b248c37f8842f2c58e5d77ce9ac667aec5b41012103d5cb9e3f99139f1799d7347953a0d8056a8552395b8ca94767e22d4420a743bd", "asm": "304402205b8048a2516c0d2ab11d2ea4c14f259ce7d120608580e82829a676a54b1f3e9a0220681dfae4971260e20133b3657a1b248c37f8842f2c58e5d77ce9ac667aec5b41[ALL] 03d5cb9e3f99139f1799d7347953a0d8056a8552395b8ca94767e22d4420a743bd"}, "vout": 45, "txid": "059fd8debebc091c28b26c895b46186386d5acd7413473242d579a79748c4ec9"}, {"sequence": 4294967294, "scriptSig": {"hex": "483045022100c6bbf5adf00760f14ed68362ec4231362928d98494146fe9c82ed9e5e07f2af50220600efe194571d7bf6be74d66df5a1a24ca2ff775f4a34c9ef2695e88e80beb4b01210249b419e12bb3ce0ab68214acd411c7a82d6c55464542e0263e4ef639bae998a8", "asm": "3045022100c6bbf5adf00760f14ed68362ec4231362928d98494146fe9c82ed9e5e07f2af50220600efe194571d7bf6be74d66df5a1a24ca2ff775f4a34c9ef2695e88e80beb4b[ALL] 0249b419e12bb3ce0ab68214acd411c7a82d6c55464542e0263e4ef639bae998a8"}, "vout": 0, "txid": "597a2c7f0094e886aba6617b31e2ff336cf641efd81bc22712732b032c0591ff"}], "txid": "93e199a57723daa6ac8182ac17547b450f9ca1e451f76377e32dfd3c6c1cba01", "blocktime": 1537874412, "version": 2, "confirmations": 11467, "time": 1537874412, "locktime": 542996, "vsize": 1261, "size": 1261}