{"hash": "93e51bd2a862e218214169bbd499fa7012183a526394c05e521d586040420460", "blockhash": "0000000000000000000e13cef7c366c0283d82e591d1acd082e914b08063cdf1", "vout": [{"scriptPubKey": {"reqSigs": 1, "hex": "76a914d243e6abb9a60fbff430b421d2df4b7d59ec186088ac", "addresses": ["1LAnF8h3qMGx3TSwNUHVneBZUEpwE4gu3D"], "asm": "OP_DUP OP_HASH160 d243e6abb9a60fbff430b421d2df4b7d59ec1860 OP_EQUALVERIFY OP_CHECKSIG", "type": "pubkeyhash"}, "value": 0.00076972, "n": 0}, {"scriptPubKey": {"reqSigs": 1, "hex": "76a9143851f34d13937b673a7d24a1950bb5b21ce94af388ac", "addresses": ["168o1kqNquEJeR9vosUB5fw4eAwcVAgh8P"], "asm": "OP_DUP OP_HASH160 3851f34d13937b673a7d24a1950bb5b21ce94af3 OP_EQUALVERIFY OP_CHECKSIG", "type": "pubkeyhash"}, "value": 5.46e-06, "n": 1}, {"scriptPubKey": {"type": "nulldata", "hex": "6a146f6d6e69000000000000001f0000000dedcbebc0", "asm": "OP_RETURN 6f6d6e69000000000000001f0000000dedcbebc0"}, "value": 0.0, "n": 2}], "hex": "01000000025bebea38c55e741879b011c7e790c40f57a28892348f21027fd78e799363074f010000006a47304402204eaad1979390ed223ffc8cecc4dac7f3f8b501385320534fc6975734ed1508cd02205949dd494689fbe48fc0e7faec24f345a399db47445938e2e466651349050a040121037ab31550a455f89ce4818099aed410e95adb4c369156ab252a5e3acff954b8ddffffffff84ec322111962ce9f1404005f38b7c28cf72e64feafb17449ab420482c64a6df000000006b48304502210095b4f13b00662da0cfbe1e262883269e28216ecb58b1badece0c78a77861b217022011369a49322dc756efd285d40ca3661ff8b016eeb9e207f2b4efeea857cae26301210271977291b74f1f5f5c42157e8aae804664eaaeccfd097918450d37f28fb94d77ffffffff03ac2c0100000000001976a914d243e6abb9a60fbff430b421d2df4b7d59ec186088ac22020000000000001976a9143851f34d13937b673a7d24a1950bb5b21ce94af388ac0000000000000000166a146f6d6e69000000000000001f0000000dedcbebc000000000", "vin": [{"sequence": 4294967295, "scriptSig": {"hex": "47304402204eaad1979390ed223ffc8cecc4dac7f3f8b501385320534fc6975734ed1508cd02205949dd494689fbe48fc0e7faec24f345a399db47445938e2e466651349050a040121037ab31550a455f89ce4818099aed410e95adb4c369156ab252a5e3acff954b8dd", "asm": "304402204eaad1979390ed223ffc8cecc4dac7f3f8b501385320534fc6975734ed1508cd02205949dd494689fbe48fc0e7faec24f345a399db47445938e2e466651349050a04[ALL] 037ab31550a455f89ce4818099aed410e95adb4c369156ab252a5e3acff954b8dd"}, "vout": 1, "txid": "4f076393798ed77f02218f349288a2570fc490e7c711b07918745ec538eaeb5b"}, {"sequence": 4294967295, "scriptSig": {"hex": "48304502210095b4f13b00662da0cfbe1e262883269e28216ecb58b1badece0c78a77861b217022011369a49322dc756efd285d40ca3661ff8b016eeb9e207f2b4efeea857cae26301210271977291b74f1f5f5c42157e8aae804664eaaeccfd097918450d37f28fb94d77", "asm": "304502210095b4f13b00662da0cfbe1e262883269e28216ecb58b1badece0c78a77861b217022011369a49322dc756efd285d40ca3661ff8b016eeb9e207f2b4efeea857cae263[ALL] 0271977291b74f1f5f5c42157e8aae804664eaaeccfd097918450d37f28fb94d77"}, "vout": 0, "txid": "dfa6642c4820b49a4417fbea4fe672cf287c8bf3054040f1e92c96112132ec84"}], "txid": "93e51bd2a862e218214169bbd499fa7012183a526394c05e521d586040420460", "blocktime": 1537871767, "version": 1, "confirmations": 11491, "time": 1537871767, "locktime": 0, "vsize": 404, "size": 404}