{"hash": "93e56a8e3421fa75bce9b5f592c6839a9b1b163778dded12c30a773baef387bd", "blockhash": "0000000000000000001f76057863aec43deb6fa401d9628bb513d65a8098bfab", "vout": [{"scriptPubKey": {"reqSigs": 1, "hex": "76a914022875c80e728d04335e71d55cebed2bf068fdf788ac", "addresses": ["1CQpbmxguXuJYjsE9hGFSS8gq7Mg5QKAr"], "asm": "OP_DUP OP_HASH160 022875c80e728d04335e71d55cebed2bf068fdf7 OP_EQUALVERIFY OP_CHECKSIG", "type": "pubkeyhash"}, "value": 0.312651, "n": 0}, {"scriptPubKey": {"reqSigs": 1, "hex": "76a914d0c3d78e19cb743cacc41cc108806f8e1e51e53688ac", "addresses": ["1L2rAF4213XkDxEfUsJ6Ctv9FuxJMc3uin"], "asm": "OP_DUP OP_HASH160 d0c3d78e19cb743cacc41cc108806f8e1e51e536 OP_EQUALVERIFY OP_CHECKSIG", "type": "pubkeyhash"}, "value": 0.20150621, "n": 1}], "hex": "0100000001248f92cb58752522e631255f5f48c5301a32dd6a241b9f8aaadcbc494f6853ec080000006a473044022022b4f7fe7ff4faba2a9097022a51e261db1d02700bbf2149b73c6af99d2ad4e302203c07b7b2a1c035ebb891450c04efc72fd1736e4e57871961c9c9c6a978ce354601210252c2f0f3169935b84b8c089cb88aaf974499fba1cead77f304c7fb927057af71ffffffff024c11dd01000000001976a914022875c80e728d04335e71d55cebed2bf068fdf788ac5d793301000000001976a914d0c3d78e19cb743cacc41cc108806f8e1e51e53688ac00000000", "vin": [{"sequence": 4294967295, "scriptSig": {"hex": "473044022022b4f7fe7ff4faba2a9097022a51e261db1d02700bbf2149b73c6af99d2ad4e302203c07b7b2a1c035ebb891450c04efc72fd1736e4e57871961c9c9c6a978ce354601210252c2f0f3169935b84b8c089cb88aaf974499fba1cead77f304c7fb927057af71", "asm": "3044022022b4f7fe7ff4faba2a9097022a51e261db1d02700bbf2149b73c6af99d2ad4e302203c07b7b2a1c035ebb891450c04efc72fd1736e4e57871961c9c9c6a978ce3546[ALL] 0252c2f0f3169935b84b8c089cb88aaf974499fba1cead77f304c7fb927057af71"}, "vout": 8, "txid": "ec53684f49bcdcaa8a9f1b246add321a30c5485f5f2531e622257558cb928f24"}], "txid": "93e56a8e3421fa75bce9b5f592c6839a9b1b163778dded12c30a773baef387bd", "blocktime": 1537873891, "version": 1, "confirmations": 11478, "time": 1537873891, "locktime": 0, "vsize": 225, "size": 225}