{"hash": "93e5c3fcf6237120a6a1d8ff58dccf3e33a3ce209a1b115b1948337bf999ae9a", "blockhash": "0000000000000000000e13cef7c366c0283d82e591d1acd082e914b08063cdf1", "vout": [{"scriptPubKey": {"reqSigs": 1, "hex": "76a914bd95f3ded889a6cfee688418f29a91dd6b0cb70088ac", "addresses": ["1JHSM9W6ater2TuXhfdNHjNEcZZFtyXEZi"], "asm": "OP_DUP OP_HASH160 bd95f3ded889a6cfee688418f29a91dd6b0cb700 OP_EQUALVERIFY OP_CHECKSIG", "type": "pubkeyhash"}, "value": 7.972e-05, "n": 0}], "hex": "0100000001bc1b6d69f1616c954eddfdb3c4b9dcdcadca092284eab9b6c585bfd2851552c8000000006b483045022100a68f81bf0038e6a1d80b8b5824849cf174d0d1f905e3250fd8b6495eb878c3f0022072c7d297a9d67550b4da2acc4d22779aaa1e40208a59700bf1ca23a318787988012102eec341965d847675c0deebef40320ca9c20b3347a676225cede0da65814e97a5ffffffff01241f0000000000001976a914bd95f3ded889a6cfee688418f29a91dd6b0cb70088ac00000000", "vin": [{"sequence": 4294967295, "scriptSig": {"hex": "483045022100a68f81bf0038e6a1d80b8b5824849cf174d0d1f905e3250fd8b6495eb878c3f0022072c7d297a9d67550b4da2acc4d22779aaa1e40208a59700bf1ca23a318787988012102eec341965d847675c0deebef40320ca9c20b3347a676225cede0da65814e97a5", "asm": "3045022100a68f81bf0038e6a1d80b8b5824849cf174d0d1f905e3250fd8b6495eb878c3f0022072c7d297a9d67550b4da2acc4d22779aaa1e40208a59700bf1ca23a318787988[ALL] 02eec341965d847675c0deebef40320ca9c20b3347a676225cede0da65814e97a5"}, "vout": 0, "txid": "c8521585d2bf85c5b6b9ea842209caaddcdcb9c4b3fddd4e956c61f1696d1bbc"}], "txid": "93e5c3fcf6237120a6a1d8ff58dccf3e33a3ce209a1b115b1948337bf999ae9a", "blocktime": 1537871767, "version": 1, "confirmations": 11495, "time": 1537871767, "locktime": 0, "vsize": 192, "size": 192}