{"hash": "93ead97df465c3af3cc397645dc36f9019d36e5f82150d77cbd8f134ad11a8ec", "blockhash": "0000000000000000001cda96e906b7601b7a6fb1a3b62bca570a9e5d8f4b3de1", "vout": [{"scriptPubKey": {"reqSigs": 1, "hex": "76a9149273791a26203c0cf4bfc82b573e833b9997572488ac", "addresses": ["1EMMzDWsZmcis6B3CfYWy7JiCH4oHebCGa"], "asm": "OP_DUP OP_HASH160 9273791a26203c0cf4bfc82b573e833b99975724 OP_EQUALVERIFY OP_CHECKSIG", "type": "pubkeyhash"}, "value": 2.429e-05, "n": 0}, {"scriptPubKey": {"reqSigs": 1, "hex": "a914b30938864933a51476f779d2a1a9f7d56830137b87", "addresses": ["3J1fvZ54YRNz6ypmvo2jKSqa3UcPoooT1D"], "asm": "OP_HASH160 b30938864933a51476f779d2a1a9f7d56830137b OP_EQUAL", "type": "scripthash"}, "value": 0.00078217, "n": 1}], "hex": "0100000001464ce026f6982b2434b42e203db028a8644a72a2e2ec8d365638f0af0844e2df000000006a473044022064b5dcbf1260c109915bb554af5d8eda1567c214f1e491dbde8066cb670f376d02205b636b652ce4c22487fe0a4da5b20a9a2c73a26cc8206eeac0815f266b633d460121020ccfe732b5017d50bfb832d69558f86cb8068ed95a23b77b7eb86562567f9bcfffffffff027d090000000000001976a9149273791a26203c0cf4bfc82b573e833b9997572488ac893101000000000017a914b30938864933a51476f779d2a1a9f7d56830137b8700000000", "vin": [{"sequence": 4294967295, "scriptSig": {"hex": "473044022064b5dcbf1260c109915bb554af5d8eda1567c214f1e491dbde8066cb670f376d02205b636b652ce4c22487fe0a4da5b20a9a2c73a26cc8206eeac0815f266b633d460121020ccfe732b5017d50bfb832d69558f86cb8068ed95a23b77b7eb86562567f9bcf", "asm": "3044022064b5dcbf1260c109915bb554af5d8eda1567c214f1e491dbde8066cb670f376d02205b636b652ce4c22487fe0a4da5b20a9a2c73a26cc8206eeac0815f266b633d46[ALL] 020ccfe732b5017d50bfb832d69558f86cb8068ed95a23b77b7eb86562567f9bcf"}, "vout": 0, "txid": "dfe24408aff03856368dece2a2724a64a828b03d202eb434242b98f626e04c46"}], "txid": "93ead97df465c3af3cc397645dc36f9019d36e5f82150d77cbd8f134ad11a8ec", "blocktime": 1537873282, "version": 1, "confirmations": 11485, "time": 1537873282, "locktime": 0, "vsize": 223, "size": 223}