{"hash": "93eeb16cf110739e63d3265ebc5881759c420affb412f0474dd0675e4b37d2e8", "blockhash": "00000000000000000018f53835495a110e01622372bf6ae95dc86f2b0ab887b0", "vout": [{"scriptPubKey": {"reqSigs": 1, "hex": "76a914d243e6abb9a60fbff430b421d2df4b7d59ec186088ac", "addresses": ["1LAnF8h3qMGx3TSwNUHVneBZUEpwE4gu3D"], "asm": "OP_DUP OP_HASH160 d243e6abb9a60fbff430b421d2df4b7d59ec1860 OP_EQUALVERIFY OP_CHECKSIG", "type": "pubkeyhash"}, "value": 0.00076972, "n": 0}, {"scriptPubKey": {"reqSigs": 1, "hex": "76a9143851f34d13937b673a7d24a1950bb5b21ce94af388ac", "addresses": ["168o1kqNquEJeR9vosUB5fw4eAwcVAgh8P"], "asm": "OP_DUP OP_HASH160 3851f34d13937b673a7d24a1950bb5b21ce94af3 OP_EQUALVERIFY OP_CHECKSIG", "type": "pubkeyhash"}, "value": 5.46e-06, "n": 1}, {"scriptPubKey": {"type": "nulldata", "hex": "6a146f6d6e69000000000000001f000000aed34615ea", "asm": "OP_RETURN 6f6d6e69000000000000001f000000aed34615ea"}, "value": 0.0, "n": 2}], "hex": "0100000002a69bb0d16d4335bf1d93f502cd8d7790146bdf9662ed8478c145830352be2d4e020000006b483045022100fd56f805bea47479d5d44f42871ea6ee168240cf8d8bfdd3f71b4d573a870990022067489441bd77440bb33b0f15a02e9d6993407d2ba1cb0e16d04433044de991a6012102f8b950e490889c173e7debb193651c101b7829edfc7e97c2656365bc3bf1be3cffffffffd0bd49d3860010d712db7264c42bf967a9f25f6663fc552333d5097ae8bdc46e000000006a473044022040cffa5441ad36f109b80cee3e0c73c07ae9c433ba4d119321b99fc6038031c102202c3890ccbab380ea5985a7ccad493500beded529cda32a04238e7b266cb9d62e01210271977291b74f1f5f5c42157e8aae804664eaaeccfd097918450d37f28fb94d77ffffffff03ac2c0100000000001976a914d243e6abb9a60fbff430b421d2df4b7d59ec186088ac22020000000000001976a9143851f34d13937b673a7d24a1950bb5b21ce94af388ac0000000000000000166a146f6d6e69000000000000001f000000aed34615ea00000000", "vin": [{"sequence": 4294967295, "scriptSig": {"hex": "483045022100fd56f805bea47479d5d44f42871ea6ee168240cf8d8bfdd3f71b4d573a870990022067489441bd77440bb33b0f15a02e9d6993407d2ba1cb0e16d04433044de991a6012102f8b950e490889c173e7debb193651c101b7829edfc7e97c2656365bc3bf1be3c", "asm": "3045022100fd56f805bea47479d5d44f42871ea6ee168240cf8d8bfdd3f71b4d573a870990022067489441bd77440bb33b0f15a02e9d6993407d2ba1cb0e16d04433044de991a6[ALL] 02f8b950e490889c173e7debb193651c101b7829edfc7e97c2656365bc3bf1be3c"}, "vout": 2, "txid": "4e2dbe52038345c17884ed6296df6b1490778dcd02f5931dbf35436dd1b09ba6"}, {"sequence": 4294967295, "scriptSig": {"hex": "473044022040cffa5441ad36f109b80cee3e0c73c07ae9c433ba4d119321b99fc6038031c102202c3890ccbab380ea5985a7ccad493500beded529cda32a04238e7b266cb9d62e01210271977291b74f1f5f5c42157e8aae804664eaaeccfd097918450d37f28fb94d77", "asm": "3044022040cffa5441ad36f109b80cee3e0c73c07ae9c433ba4d119321b99fc6038031c102202c3890ccbab380ea5985a7ccad493500beded529cda32a04238e7b266cb9d62e[ALL] 0271977291b74f1f5f5c42157e8aae804664eaaeccfd097918450d37f28fb94d77"}, "vout": 0, "txid": "6ec4bde87a09d5332355fc63665ff2a967f92bc46472db12d7100086d349bdd0"}], "txid": "93eeb16cf110739e63d3265ebc5881759c420affb412f0474dd0675e4b37d2e8", "blocktime": 1537870928, "version": 1, "confirmations": 11512, "time": 1537870928, "locktime": 0, "vsize": 404, "size": 404}