{"hash": "c1075f23044c53ef471e506d0d4bcb39bbba37ccd1dcb64342ca9a9abe268dc1", "blockhash": "00000000000000000017f5eb5941039fbcee6240d03bc1f2f8e35350df66a1d8", "vout": [{"scriptPubKey": {"reqSigs": 1, "hex": "a9141d7370ccde4590204155e4074f69743a8e4fac0287", "addresses": ["34Njp4ZKtmCDfqqps26wHBYQQGUo2pGkLi"], "asm": "OP_HASH160 1d7370ccde4590204155e4074f69743a8e4fac02 OP_EQUAL", "type": "scripthash"}, "value": 0.00049574, "n": 0}], "hex": "01000000000101c9167e13cd1e2121765a19fce57748c5a641b78cd98b01bc308ee99c0d99a0cb0900000017160014340a8b5ae0c012ae32263a771b619f1a6fb45503ffffffff01a6c100000000000017a9141d7370ccde4590204155e4074f69743a8e4fac028702483045022100e2fd08dd854e136ae10248b515e72858d2196088f854004fcf7bee26e9435aaf022056c60580e688bb671a98e123782491e95fec7dcf174c6d55162ad46a7aa199a70121034324d7e82f035638d0888439123f49174b8cde79e81de407de66d4e80e73776d00000000", "vin": [{"txinwitness": ["3045022100e2fd08dd854e136ae10248b515e72858d2196088f854004fcf7bee26e9435aaf022056c60580e688bb671a98e123782491e95fec7dcf174c6d55162ad46a7aa199a701", "034324d7e82f035638d0888439123f49174b8cde79e81de407de66d4e80e73776d"], "sequence": 4294967295, "scriptSig": {"hex": "160014340a8b5ae0c012ae32263a771b619f1a6fb45503", "asm": "0014340a8b5ae0c012ae32263a771b619f1a6fb45503"}, "vout": 9, "txid": "cba0990d9ce98e30bc018bd98cb741a6c54877e5fc195a7621211ecd137e16c9"}], "txid": "93f221918641cc8e2a8eb7a096d723cfa85d5f9f06b93173ccc54585efb3eb6f", "blocktime": 1537874412, "version": 1, "confirmations": 11467, "time": 1537874412, "locktime": 0, "vsize": 134, "size": 216}