{"hash": "098bb5b1fc995a291d86154c30988b6f1055a6e52b66ef67bb5216d11a0bc59a", "blockhash": "0000000000000000000dcc0f55137456b1a82d3642486a52398922ac4d620174", "vout": [{"scriptPubKey": {"reqSigs": 1, "hex": "a9147302def8e1338cda2fb574357cfd822d9abcfd6987", "addresses": ["3CB955p8tt67YoNLAsuQz98Ymfyzy5Pfnz"], "asm": "OP_HASH160 7302def8e1338cda2fb574357cfd822d9abcfd69 OP_EQUAL", "type": "scripthash"}, "value": 0.021, "n": 0}, {"scriptPubKey": {"reqSigs": 1, "hex": "a914627aa52932456d89054bd84f86246af3b71b93a887", "addresses": ["3Afj4stdiLG9EktGrMbm252ySonnhYaz8v"], "asm": "OP_HASH160 627aa52932456d89054bd84f86246af3b71b93a8 OP_EQUAL", "type": "scripthash"}, "value": 0.63107912, "n": 1}], "hex": "01000000000101b0de0a7eef6d2ce1f4d4d16bb119f40c0c1ed373d68f090cb1b84eb5ccf2e61201000000232200205fdd641234b13964b223bd85ad2a4a667ca2099df3d42a1d3b45706a8d81abf0ffffffff02200b20000000000017a9147302def8e1338cda2fb574357cfd822d9abcfd698748f3c2030000000017a914627aa52932456d89054bd84f86246af3b71b93a887040047304402200b4adcafbf205454638e0799fe03581cdc6d201dfdc3e229984a9ce3053a942b022052201e2b7100c87d04bceab01eb98a62ab35577b8ee709b353ca97e6c1ebe89c014730440220504e1adf217329add0064bf02dad2f784f5957ea5edd05ed7afcdd4bc38eb63f022031b3d6762133b33e38ff65b199f6433c6517de97555923cd52e4feb02e940cdd0147522103dcde3832fa56def7b4e783faad1b8af85c3cdd74a5ff4f3c7c216b1075c18da12103c70ae8ded79be1afda73b9ce5ea14a3878908ee160d66a9a717e792bb6db276952ae00000000", "vin": [{"txinwitness": ["", "304402200b4adcafbf205454638e0799fe03581cdc6d201dfdc3e229984a9ce3053a942b022052201e2b7100c87d04bceab01eb98a62ab35577b8ee709b353ca97e6c1ebe89c01", "30440220504e1adf217329add0064bf02dad2f784f5957ea5edd05ed7afcdd4bc38eb63f022031b3d6762133b33e38ff65b199f6433c6517de97555923cd52e4feb02e940cdd01", "522103dcde3832fa56def7b4e783faad1b8af85c3cdd74a5ff4f3c7c216b1075c18da12103c70ae8ded79be1afda73b9ce5ea14a3878908ee160d66a9a717e792bb6db276952ae"], "sequence": 4294967295, "scriptSig": {"hex": "2200205fdd641234b13964b223bd85ad2a4a667ca2099df3d42a1d3b45706a8d81abf0", "asm": "00205fdd641234b13964b223bd85ad2a4a667ca2099df3d42a1d3b45706a8d81abf0"}, "vout": 1, "txid": "12e6f2ccb54eb8b10c098fd673d31e0c0cf419b16bd1d4f4e12c6def7e0adeb0"}], "txid": "93fd211e594355a01295e18cb470b216e934cf4c876560e9f91785977d932bfa", "blocktime": 1537870268, "version": 1, "confirmations": 11518, "time": 1537870268, "locktime": 0, "vsize": 205, "size": 370}