{"hash": "d592756857c10a76c8a5fa89a39f6e9f6e0078f0a05cea190463d300ef1e2b2a", "blockhash": "0000000000000000000baef3f32e3676a92c3b2e5da21b426e4f302fc371ce76", "vout": [{"scriptPubKey": {"reqSigs": 1, "hex": "76a914982a525d16b55b40e96fae175c23ab465f4e7db488ac", "addresses": ["1EsaQiynuqbWUEj1rb8kKsQQFLYJWmUCoC"], "asm": "OP_DUP OP_HASH160 982a525d16b55b40e96fae175c23ab465f4e7db4 OP_EQUALVERIFY OP_CHECKSIG", "type": "pubkeyhash"}, "value": 0.00297383, "n": 0}, {"scriptPubKey": {"reqSigs": 1, "hex": "a9146b4075efe6813eaf373d5a9dc2a85c4deabe1dc887", "addresses": ["3BU7SspUCXFWDhCz55bA2EB21Qk5LcUoDZ"], "asm": "OP_HASH160 6b4075efe6813eaf373d5a9dc2a85c4deabe1dc8 OP_EQUAL", "type": "scripthash"}, "value": 0.13057078, "n": 1}], "hex": "02000000000101d7a79f5b401507290cdba590a89f4fa1874cdb66b483990ce27aa7c66e5cd50d0100000017160014732424b7adaf546a0c4053c6839806101e7ee66cfeffffff02a7890400000000001976a914982a525d16b55b40e96fae175c23ab465f4e7db488ac363cc7000000000017a9146b4075efe6813eaf373d5a9dc2a85c4deabe1dc8870247304402204d68d4dbc5399e4a0342924eb339f3b6f7d84edb1c28a0d74c02071927aea52f02203489a7322afe5d0951c4b1d4dc1ae829086f1f3006e779c4820e1e4a2cb7385f012102df636331b26ae080743266592779955e92ce638ab6c1eafa3bb4d23d4229a24717490800", "vin": [{"txinwitness": ["304402204d68d4dbc5399e4a0342924eb339f3b6f7d84edb1c28a0d74c02071927aea52f02203489a7322afe5d0951c4b1d4dc1ae829086f1f3006e779c4820e1e4a2cb7385f01", "02df636331b26ae080743266592779955e92ce638ab6c1eafa3bb4d23d4229a247"], "sequence": 4294967294, "scriptSig": {"hex": "160014732424b7adaf546a0c4053c6839806101e7ee66c", "asm": "0014732424b7adaf546a0c4053c6839806101e7ee66c"}, "vout": 1, "txid": "0dd55c6ec6a77ae20c9983b466db4c87a14f9fa890a5db0c290715405b9fa7d7"}], "txid": "9401eda2efda4cedb56008a2c0b3de080baf994ae2338b08356312bb4935afe1", "blocktime": 1537876114, "version": 2, "confirmations": 11460, "time": 1537876114, "locktime": 542999, "vsize": 168, "size": 249}