{"hash": "9401dabf3f004f1a2bc20896d2e6f01765586b5f70c240fc0c90159d8ca7032b", "blockhash": "0000000000000000001cda96e906b7601b7a6fb1a3b62bca570a9e5d8f4b3de1", "vout": [{"scriptPubKey": {"reqSigs": 1, "hex": "a914fabf81f6a388c71b173f64b96401191ca467ad2387", "addresses": ["3QYrGgq51sXffGGwqnUEjGwH9fGSBmT9nR"], "asm": "OP_HASH160 fabf81f6a388c71b173f64b96401191ca467ad23 OP_EQUAL", "type": "scripthash"}, "value": 0.00337167, "n": 0}, {"scriptPubKey": {"reqSigs": 1, "hex": "a914720c6da9ab6d731f6e2aa0cbdf9f2453e09a45b187", "addresses": ["3C63qx6UyCSji9GDTPFu3JFTSnLKtZo91r"], "asm": "OP_HASH160 720c6da9ab6d731f6e2aa0cbdf9f2453e09a45b1 OP_EQUAL", "type": "scripthash"}, "value": 0.29614143, "n": 1}], "hex": "010000000141e35a4f0e8c3708d0a71aea6e7cbb756d1eb6f5a5c2ddcdd9d2ca359c5c249401000000db00483045022100bf9ab81a36d10d70a2fd47a1ea72d60a8f26dd493ddd0aac3bde7a448fd4fb59022023c5a55ac36fb46371d6515f1e17bc15ba532c681faf33f735094ead1f72b76d01483045022100ae68bd27b28616d5732fcd15b01e97442a299447c6fbd07fa08a9f9665b461cf022032a32bb5432d5b244ac195b851bb68761b753be9ae66c98b66fc0b6b3d11c93b0147522103f2d250ed5140d655fe49f9b9f857ff223c9290b9bbe8b68a50d522cf45e633702102045f2de7b3abee8ca375163a8879a6719ef3e6d7ffc88aa3008e11b5b89eb7ee52aeffffffff020f2505000000000017a914fabf81f6a388c71b173f64b96401191ca467ad23873fe0c3010000000017a914720c6da9ab6d731f6e2aa0cbdf9f2453e09a45b18700000000", "vin": [{"sequence": 4294967295, "scriptSig": {"hex": "00483045022100bf9ab81a36d10d70a2fd47a1ea72d60a8f26dd493ddd0aac3bde7a448fd4fb59022023c5a55ac36fb46371d6515f1e17bc15ba532c681faf33f735094ead1f72b76d01483045022100ae68bd27b28616d5732fcd15b01e97442a299447c6fbd07fa08a9f9665b461cf022032a32bb5432d5b244ac195b851bb68761b753be9ae66c98b66fc0b6b3d11c93b0147522103f2d250ed5140d655fe49f9b9f857ff223c9290b9bbe8b68a50d522cf45e633702102045f2de7b3abee8ca375163a8879a6719ef3e6d7ffc88aa3008e11b5b89eb7ee52ae", "asm": "0 3045022100bf9ab81a36d10d70a2fd47a1ea72d60a8f26dd493ddd0aac3bde7a448fd4fb59022023c5a55ac36fb46371d6515f1e17bc15ba532c681faf33f735094ead1f72b76d[ALL] 3045022100ae68bd27b28616d5732fcd15b01e97442a299447c6fbd07fa08a9f9665b461cf022032a32bb5432d5b244ac195b851bb68761b753be9ae66c98b66fc0b6b3d11c93b[ALL] 522103f2d250ed5140d655fe49f9b9f857ff223c9290b9bbe8b68a50d522cf45e633702102045f2de7b3abee8ca375163a8879a6719ef3e6d7ffc88aa3008e11b5b89eb7ee52ae"}, "vout": 1, "txid": "94245c9c35cad2d9cdddc2a5f5b61e6d75bb7c6eea1aa7d008378c0e4f5ae341"}], "txid": "9401dabf3f004f1a2bc20896d2e6f01765586b5f70c240fc0c90159d8ca7032b", "blocktime": 1537873282, "version": 1, "confirmations": 11481, "time": 1537873282, "locktime": 0, "vsize": 334, "size": 334}