{"hash": "06f1c523bf3490f87ee1a1b1292d1547ff9bdc64c3d8a33f99ee1057945eff9b", "blockhash": "00000000000000000004ffacab907a6b429b9a5745fa0b75af4234bf69dd7176", "vout": [{"scriptPubKey": {"reqSigs": 1, "hex": "76a914c48a2c5a1e92b6e527485cc5dbcdd1404307b7cb88ac", "addresses": ["1JvCy3aezgnLmMogHSC5btcsnFy4wBEgWT"], "asm": "OP_DUP OP_HASH160 c48a2c5a1e92b6e527485cc5dbcdd1404307b7cb OP_EQUALVERIFY OP_CHECKSIG", "type": "pubkeyhash"}, "value": 0.178247, "n": 0}, {"scriptPubKey": {"reqSigs": 1, "hex": "a914110cf80b6838e92ecec2e65fe60fcebd6ec71a0f87", "addresses": ["33FAwuEwSAcuD9fqvte8KZMswnjc5BtmCb"], "asm": "OP_HASH160 110cf80b6838e92ecec2e65fe60fcebd6ec71a0f OP_EQUAL", "type": "scripthash"}, "value": 0.00994815, "n": 1}], "hex": "020000000001040758dcad9a39c6c3f6831430fd07ec4ba8782608c20c1b51fdbb9e73c2c689410000000017160014c83f614ff7fb4ceaa4609d5414988cfa01f06652feffffff13ce5e12629d6776f3703e7d7b9eb5c3a012c2a9cd664878f0886ddeb44061e60c000000171600146f5bf1e3ae108512d69c8e6f60fb4c67cd4104defeffffff834c434de85276f7b8722ca0578a94573804df5d5bfbe6d64eb737cdf5941ab2010000001716001450b9e0705ee1c2c817ffa421d931e6e0907408f2feffffffab9a901642bc769d7f312d08df76dbcd8a8cb20f7d0d4f308edd7e73ec2ae7a60100000017160014a22a780806ff686b86f6482aafa4919f58b1732bfeffffff02bcfb0f01000000001976a914c48a2c5a1e92b6e527485cc5dbcdd1404307b7cb88acff2d0f000000000017a914110cf80b6838e92ecec2e65fe60fcebd6ec71a0f87024730440220536a3ef7d96b4388f8801ce51b0ddd574cfedaf8c4c6e5c16a5681fde366eb4d02203dfbfd9d73fff283458eec69141384d8d9fd6e5679b29e3431f339a1988ec29e012102dd3eee4f84a402b4db1bfa6f2362fd058b6a31cfc7d8629aed98d815d986d7ab02483045022100dd4505216d6179f2e13da97dfc7ecdefd182f8f1abcf34a3b9255278219b45b00220305a62ab187b16149bf68506e2c6fab7ff17a8ea3a258dfe2b2b032976c9cc3301210351acc8893254004d3f238548680ffc532d7aef150f707152b6a0febecbe7dd0402483045022100cb3cf775a068b410809fdd77bc3a417cd2ecd4bdba1e553aaee7cbd4f9b3dc22022069e1d229792404c5d613578f8c1d93ce242841ea219f3c15dfb65b2644c770590121024d734e568df0978245dd9e6998a9afe64937fe82b08e37a3dfb8599234b8354002483045022100dc9a3c8bb5febb213a4981cd142628591fc1eaeada5bb33d83c591ddb425e31b022041c5f3d505ae01537902ed2d5d2b7915533657f5d90c892745a2c05374f609cf012103175851a6177ba1d7fc019805cd2c3fd1830213a41d5da0cf0bb27cc5f93e772516490800", "vin": [{"txinwitness": ["30440220536a3ef7d96b4388f8801ce51b0ddd574cfedaf8c4c6e5c16a5681fde366eb4d02203dfbfd9d73fff283458eec69141384d8d9fd6e5679b29e3431f339a1988ec29e01", "02dd3eee4f84a402b4db1bfa6f2362fd058b6a31cfc7d8629aed98d815d986d7ab"], "sequence": 4294967294, "scriptSig": {"hex": "160014c83f614ff7fb4ceaa4609d5414988cfa01f06652", "asm": "0014c83f614ff7fb4ceaa4609d5414988cfa01f06652"}, "vout": 0, "txid": "4189c6c2739ebbfd511b0cc2082678a84bec07fd301483f6c3c6399aaddc5807"}, {"txinwitness": ["3045022100dd4505216d6179f2e13da97dfc7ecdefd182f8f1abcf34a3b9255278219b45b00220305a62ab187b16149bf68506e2c6fab7ff17a8ea3a258dfe2b2b032976c9cc3301", "0351acc8893254004d3f238548680ffc532d7aef150f707152b6a0febecbe7dd04"], "sequence": 4294967294, "scriptSig": {"hex": "1600146f5bf1e3ae108512d69c8e6f60fb4c67cd4104de", "asm": "00146f5bf1e3ae108512d69c8e6f60fb4c67cd4104de"}, "vout": 12, "txid": "e66140b4de6d88f0784866cda9c212a0c3b59e7b7d3e70f376679d62125ece13"}, {"txinwitness": ["3045022100cb3cf775a068b410809fdd77bc3a417cd2ecd4bdba1e553aaee7cbd4f9b3dc22022069e1d229792404c5d613578f8c1d93ce242841ea219f3c15dfb65b2644c7705901", "024d734e568df0978245dd9e6998a9afe64937fe82b08e37a3dfb8599234b83540"], "sequence": 4294967294, "scriptSig": {"hex": "16001450b9e0705ee1c2c817ffa421d931e6e0907408f2", "asm": "001450b9e0705ee1c2c817ffa421d931e6e0907408f2"}, "vout": 1, "txid": "b21a94f5cd37b74ed6e6fb5b5ddf043857948a57a02c72b8f77652e84d434c83"}, {"txinwitness": ["3045022100dc9a3c8bb5febb213a4981cd142628591fc1eaeada5bb33d83c591ddb425e31b022041c5f3d505ae01537902ed2d5d2b7915533657f5d90c892745a2c05374f609cf01", "03175851a6177ba1d7fc019805cd2c3fd1830213a41d5da0cf0bb27cc5f93e7725"], "sequence": 4294967294, "scriptSig": {"hex": "160014a22a780806ff686b86f6482aafa4919f58b1732b", "asm": "0014a22a780806ff686b86f6482aafa4919f58b1732b"}, "vout": 1, "txid": "a6e72aec737edd8e304f0d7d0fb28c8acddb76df082d317f9d76bc4216909aab"}], "txid": "9407245023242481d3b6660c1cf61de42fe13c0d894081705463aad5398e8cfe", "blocktime": 1537875543, "version": 2, "confirmations": 11464, "time": 1537875543, "locktime": 542998, "vsize": 441, "size": 765}