{"hash": "28943a29890da483c0206c6b5c0c9c44208200269e3f042f1730a367dcb7dd8d", "blockhash": "00000000000000000024a2167bbff67b0be802c0b01cdd79e6331c2be6459f87", "vout": [{"scriptPubKey": {"reqSigs": 1, "hex": "a914f2a6ed500aa7333da2379b6407b12cbf242ad93187", "addresses": ["3Pp3RFvo21R7Ku6GvkxQytYV6WGonHAsLE"], "asm": "OP_HASH160 f2a6ed500aa7333da2379b6407b12cbf242ad931 OP_EQUAL", "type": "scripthash"}, "value": 0.00076752, "n": 0}, {"scriptPubKey": {"reqSigs": 1, "hex": "0014005c979ca963394a690b38ad7f800794220484f4", "addresses": ["bc1qqpwf089fvvu556gt8zkhlqq8js3qfp85mfw3me"], "asm": "0 005c979ca963394a690b38ad7f800794220484f4", "type": "witness_v0_keyhash"}, "value": 2.014e-05, "n": 1}], "hex": "0100000000010149c2f154141e63c1678cff8d837c2115b5496458dccccffa3597809bb10d30320000000000ffffffff02d02b01000000000017a914f2a6ed500aa7333da2379b6407b12cbf242ad93187de07000000000000160014005c979ca963394a690b38ad7f800794220484f402483045022100b7b71d9528727194ea904df7504e266c3b0de65e4315f9b5271e18246ca98b3b022019e50a3b2ef596db606aa447f58232ebfaa9518dabd14e84eaa72fd014aea6f90121038a3ff5a5b9b0ca1669851d6977d1c79eaa5379a70a51e530000c3076251215ae00000000", "vin": [{"txinwitness": ["3045022100b7b71d9528727194ea904df7504e266c3b0de65e4315f9b5271e18246ca98b3b022019e50a3b2ef596db606aa447f58232ebfaa9518dabd14e84eaa72fd014aea6f901", "038a3ff5a5b9b0ca1669851d6977d1c79eaa5379a70a51e530000c3076251215ae"], "sequence": 4294967295, "scriptSig": {"hex": "", "asm": ""}, "vout": 0, "txid": "32300db19b809735facfccdc586449b515217c838dff8c67c1631e1454f1c249"}], "txid": "940ab20d002b85e6bd9a420fe555287e243e5d8cca20ca25bcfd2de68f0c8151", "blocktime": 1537870564, "version": 1, "confirmations": 11515, "time": 1537870564, "locktime": 0, "vsize": 142, "size": 224}