{"hash": "940f72e29729caf98a229f7b24f6afe8c0dbba5a362070f94967678a9d3385bc", "blockhash": "000000000000000000022b45ed06c6f4ccd3cf7fb5ba4856ebd2e58215665228", "vout": [{"scriptPubKey": {"reqSigs": 1, "hex": "76a9141f437063880310a43bbe91039f2421e094fe24cc88ac", "addresses": ["13rJjh8b6kkEw9Vg7vne1D4WY4rxjDWRyN"], "asm": "OP_DUP OP_HASH160 1f437063880310a43bbe91039f2421e094fe24cc OP_EQUALVERIFY OP_CHECKSIG", "type": "pubkeyhash"}, "value": 0.00650106, "n": 0}, {"scriptPubKey": {"type": "nulldata", "hex": "6a4c500000775d0001ed9450af33686c32afff12db3a016b46dc7dc7d0968d120d670c1906f9999b83e36bd8e2069279e2ab94d1401b075baa07590612c6622beb02001d100759d4ba30d2c37bb011d97e02cf", "asm": "OP_RETURN 0000775d0001ed9450af33686c32afff12db3a016b46dc7dc7d0968d120d670c1906f9999b83e36bd8e2069279e2ab94d1401b075baa07590612c6622beb02001d100759d4ba30d2c37bb011d97e02cf"}, "value": 0.0, "n": 1}], "hex": "0100000001d139ea4208d4303216e5e7654c64583a8da55c89c4820277e0ccf3bc3ba7a67c010000006a47304402201fa6413f04686aa14cf8d1146c1dd49c4550056b1a6c81cd04e8b2e1091a6f5e022026b2e8ad5a98d6860ef98b63f1d41e18393c5804022e7b3fe9f1ddf0d838c26d012103e7808adbbb37d325f1bc7db90c8e21db53b90cbf44219a12c60abc84d09c9e38ffffffff027aeb0900000000001976a9141f437063880310a43bbe91039f2421e094fe24cc88ac0000000000000000536a4c500000775d0001ed9450af33686c32afff12db3a016b46dc7dc7d0968d120d670c1906f9999b83e36bd8e2069279e2ab94d1401b075baa07590612c6622beb02001d100759d4ba30d2c37bb011d97e02cf00000000", "vin": [{"sequence": 4294967295, "scriptSig": {"hex": "47304402201fa6413f04686aa14cf8d1146c1dd49c4550056b1a6c81cd04e8b2e1091a6f5e022026b2e8ad5a98d6860ef98b63f1d41e18393c5804022e7b3fe9f1ddf0d838c26d012103e7808adbbb37d325f1bc7db90c8e21db53b90cbf44219a12c60abc84d09c9e38", "asm": "304402201fa6413f04686aa14cf8d1146c1dd49c4550056b1a6c81cd04e8b2e1091a6f5e022026b2e8ad5a98d6860ef98b63f1d41e18393c5804022e7b3fe9f1ddf0d838c26d[ALL] 03e7808adbbb37d325f1bc7db90c8e21db53b90cbf44219a12c60abc84d09c9e38"}, "vout": 1, "txid": "7ca6a73bbcf3cce0770282c4895ca58d3a58644c65e7e5163230d40842ea39d1"}], "txid": "940f72e29729caf98a229f7b24f6afe8c0dbba5a362070f94967678a9d3385bc", "blocktime": 1537869901, "version": 1, "confirmations": 11523, "time": 1537869901, "locktime": 0, "vsize": 283, "size": 283}