{"hash": "e74c663a94c61bf57c4d1512270ba70a6bf253c8c8d2a174ee3a153671c82cda", "blockhash": "0000000000000000001f76057863aec43deb6fa401d9628bb513d65a8098bfab", "vout": [{"scriptPubKey": {"reqSigs": 1, "hex": "a91469f376778bd436da2fec25f64453f204884c0d3387", "addresses": ["3BMEXmuyY4omVtuXbvpN3aQ65qYrghbEFv"], "asm": "OP_HASH160 69f376778bd436da2fec25f64453f204884c0d33 OP_EQUAL", "type": "scripthash"}, "value": 0.20419841, "n": 0}, {"scriptPubKey": {"reqSigs": 1, "hex": "0014663c7a949b206d47dd32e74ae758117761d4d363", "addresses": ["bc1qvc7849ymypk50hfjua9wwkq3wasaf5mr6u9tuw"], "asm": "0 663c7a949b206d47dd32e74ae758117761d4d363", "type": "witness_v0_keyhash"}, "value": 0.00643721, "n": 1}], "hex": "010000000001010f00e2fe5e2b8feaf524e53dd72f8b50bf9841440513d4e18e1ab74b9e1f42a30000000000ffffffff02019537010000000017a91469f376778bd436da2fec25f64453f204884c0d338789d2090000000000160014663c7a949b206d47dd32e74ae758117761d4d36302473044022076f078c6aeb81775f1d4c87b4fa931581fb9133a72ef85d3f66a0e763f6a037f02204a99ed3bb2297b5c054a5584230e86ecc0ca137910289af944660e0b9b4d44bb0121034f186956e2233e8e85a33b8ec84fbcda8cabefc1918ec47e74fa8784a908e40600000000", "vin": [{"txinwitness": ["3044022076f078c6aeb81775f1d4c87b4fa931581fb9133a72ef85d3f66a0e763f6a037f02204a99ed3bb2297b5c054a5584230e86ecc0ca137910289af944660e0b9b4d44bb01", "034f186956e2233e8e85a33b8ec84fbcda8cabefc1918ec47e74fa8784a908e406"], "sequence": 4294967295, "scriptSig": {"hex": "", "asm": ""}, "vout": 0, "txid": "a3421f9e4bb71a8ee1d41305444198bf508b2fd73de524f5ea8f2b5efee2000f"}], "txid": "940f6a43c10d88bee8c2d6be47fa9a6a2ba74dce8a43e130a09f4bfbc7c08ad5", "blocktime": 1537873891, "version": 1, "confirmations": 11478, "time": 1537873891, "locktime": 0, "vsize": 142, "size": 223}