{"hash": "9411c4230f03013b800a52aa47606071a9d228b93c8ecbbbbc108bc2617e12a1", "blockhash": "0000000000000000001cda96e906b7601b7a6fb1a3b62bca570a9e5d8f4b3de1", "vout": [{"scriptPubKey": {"reqSigs": 1, "hex": "76a91422aa154816b1e08489065806b731e640006cbbdd88ac", "addresses": ["14AHj77Th33Vgtqr4SC8rh2nCEg64ht3C7"], "asm": "OP_DUP OP_HASH160 22aa154816b1e08489065806b731e640006cbbdd OP_EQUALVERIFY OP_CHECKSIG", "type": "pubkeyhash"}, "value": 0.0127, "n": 0}], "hex": "01000000031c925ac5094b27c3cd54d126f06b6174d0d595b5dc53a50486ab907ab443470f000000006b483045022100d4dcc580e4c013c900f09cc77a082f20b96681448544a2fb30917c311c58a30502206666ab5bef971cf9c84d562210e28dc4b4e1daccfb06f8c2191ab539602db3620121028de11e96e7ee9000dc24f1e70f2893a72ba8e08e609d09d5d3d910604366a382feffffff5600a123c8f6c0ea38c913332cc907a880f4bf86eecca296b9802d3dc579b539000000006a47304402200fb6ac89098e8d2c8e218c6ab7c5aeeca78e8a6545a2c5e967ac516148876ef70220506520f63474f75e504af9f9b28d6c21ccc692258dda8315257c3c97efa3425001210340ed67de42e7134ec702f264f5f931aa0b27d500487cec06a2897e3e2f7a27f2feffffff99f85fea8401269f443ad09805d197e6a893a59c028d99d37f0347ff84ac6dd7010000006a47304402205429d155bdb1c3bb08927ae0d39047f7d518df827faac22942056a952b20244b02207176fc4233656004faa76a86e2bbc1f6659a42762e2551b912a566ef14e8678e012103e93d6bf31a97e4bcd577986ef1dde706e967c6751bcccb15247bd7d9bb3e2613feffffff01f0601300000000001976a91422aa154816b1e08489065806b731e640006cbbdd88ac00000000", "vin": [{"sequence": 4294967294, "scriptSig": {"hex": "483045022100d4dcc580e4c013c900f09cc77a082f20b96681448544a2fb30917c311c58a30502206666ab5bef971cf9c84d562210e28dc4b4e1daccfb06f8c2191ab539602db3620121028de11e96e7ee9000dc24f1e70f2893a72ba8e08e609d09d5d3d910604366a382", "asm": "3045022100d4dcc580e4c013c900f09cc77a082f20b96681448544a2fb30917c311c58a30502206666ab5bef971cf9c84d562210e28dc4b4e1daccfb06f8c2191ab539602db362[ALL] 028de11e96e7ee9000dc24f1e70f2893a72ba8e08e609d09d5d3d910604366a382"}, "vout": 0, "txid": "0f4743b47a90ab8604a553dcb595d5d074616bf026d154cdc3274b09c55a921c"}, {"sequence": 4294967294, "scriptSig": {"hex": "47304402200fb6ac89098e8d2c8e218c6ab7c5aeeca78e8a6545a2c5e967ac516148876ef70220506520f63474f75e504af9f9b28d6c21ccc692258dda8315257c3c97efa3425001210340ed67de42e7134ec702f264f5f931aa0b27d500487cec06a2897e3e2f7a27f2", "asm": "304402200fb6ac89098e8d2c8e218c6ab7c5aeeca78e8a6545a2c5e967ac516148876ef70220506520f63474f75e504af9f9b28d6c21ccc692258dda8315257c3c97efa34250[ALL] 0340ed67de42e7134ec702f264f5f931aa0b27d500487cec06a2897e3e2f7a27f2"}, "vout": 0, "txid": "39b579c53d2d80b996a2ccee86bff480a807c92c3313c938eac0f6c823a10056"}, {"sequence": 4294967294, "scriptSig": {"hex": "47304402205429d155bdb1c3bb08927ae0d39047f7d518df827faac22942056a952b20244b02207176fc4233656004faa76a86e2bbc1f6659a42762e2551b912a566ef14e8678e012103e93d6bf31a97e4bcd577986ef1dde706e967c6751bcccb15247bd7d9bb3e2613", "asm": "304402205429d155bdb1c3bb08927ae0d39047f7d518df827faac22942056a952b20244b02207176fc4233656004faa76a86e2bbc1f6659a42762e2551b912a566ef14e8678e[ALL] 03e93d6bf31a97e4bcd577986ef1dde706e967c6751bcccb15247bd7d9bb3e2613"}, "vout": 1, "txid": "d76dac84ff47037fd3998d029ca593a8e697d10598d03a449f260184ea5ff899"}], "txid": "9411c4230f03013b800a52aa47606071a9d228b93c8ecbbbbc108bc2617e12a1", "blocktime": 1537873282, "version": 1, "confirmations": 11485, "time": 1537873282, "locktime": 0, "vsize": 486, "size": 486}