{"hash": "0130c6a81647eec7dd6c51dbcb0567bd301f88e59b76d4c23fe6a0bc8be959e0", "blockhash": "00000000000000000017f5eb5941039fbcee6240d03bc1f2f8e35350df66a1d8", "vout": [{"scriptPubKey": {"reqSigs": 1, "hex": "a9146fb149efa7cc81f8a66094d42f229e48b3e75e7b87", "addresses": ["3BsbK5a66CZXEq1k4H2f3BdP6KPRagwRLC"], "asm": "OP_HASH160 6fb149efa7cc81f8a66094d42f229e48b3e75e7b OP_EQUAL", "type": "scripthash"}, "value": 0.00192252, "n": 0}, {"scriptPubKey": {"reqSigs": 1, "hex": "a914c6ea9b9b66df7445d35a19d843592403cfb3358c87", "addresses": ["3KpnmN71eqo7YGtHnu3KSqRyhkQWu1o9sa"], "asm": "OP_HASH160 c6ea9b9b66df7445d35a19d843592403cfb3358c OP_EQUAL", "type": "scripthash"}, "value": 0.37403162, "n": 1}], "hex": "01000000000102c48f8b3682f1131b2a8ec208418487d7c3bfbcabb6888bfef3473d81818dc7200000000023220020b84bf08a500bf13b471d48e66d52d188bd20ee358c45f464764c1a4edba88181ffffffff2c2f3512b3492ef97150f9fc8bfec81f6a113c39ad9ec9a4f05714cf2b3406000100000023220020e4c2fbf99376392a2a73d703945f9d359e8a8a51e514ba70c3ef610be4e5ca65ffffffff02fcee02000000000017a9146fb149efa7cc81f8a66094d42f229e48b3e75e7b871aba3a020000000017a914c6ea9b9b66df7445d35a19d843592403cfb3358c870400483045022100a336648e96695b23629d98f542e0b5e911f6f85a87d1c7ad0af2048bf315bfb7022001d3919887280e256b1df502dc4e8eddc9ff64eeb0ef8c8ed9033f55e50ab633014730440220599e1661648bec35638235376b87c0fb9573454ad4e133a58f39c7c3cdd7c8b1022006a3187c8394a9206d2d2986e2b41c5c6b73d3158e66fdb3fbfb90bc862c9a1d0147522103aefb475912fb3e9f73970c09ba6bedfee4bb80f5b3dead7656177506643abcdc2103982481ffd6c2aa1ba6b45c0874cb14e2ebcbfe494f93697c3d40857517fc280b52ae0400483045022100badd866a89cd14b8aa39beef7532b12059dd7f3d5ec6e01eb619ff4d8be0bddf0220349219e870cb2b31ddd2466244772a943c70470c505389841c7e2c935e59121f01483045022100df79696fb782391b150a6df2a82b540cb8910183130002075a8e363ac862050e02206fe40d6dd20eb68b29110f0c5df3476e352591ed38fc75b884ba8465ea68ef070147522102129714cec686cfd93f9da0e1bde301d16a4fea8ca7d2e4738e95ff97a113e8042103982481ffd6c2aa1ba6b45c0874cb14e2ebcbfe494f93697c3d40857517fc280b52ae00000000", "vin": [{"txinwitness": ["", "3045022100a336648e96695b23629d98f542e0b5e911f6f85a87d1c7ad0af2048bf315bfb7022001d3919887280e256b1df502dc4e8eddc9ff64eeb0ef8c8ed9033f55e50ab63301", "30440220599e1661648bec35638235376b87c0fb9573454ad4e133a58f39c7c3cdd7c8b1022006a3187c8394a9206d2d2986e2b41c5c6b73d3158e66fdb3fbfb90bc862c9a1d01", "522103aefb475912fb3e9f73970c09ba6bedfee4bb80f5b3dead7656177506643abcdc2103982481ffd6c2aa1ba6b45c0874cb14e2ebcbfe494f93697c3d40857517fc280b52ae"], "sequence": 4294967295, "scriptSig": {"hex": "220020b84bf08a500bf13b471d48e66d52d188bd20ee358c45f464764c1a4edba88181", "asm": "0020b84bf08a500bf13b471d48e66d52d188bd20ee358c45f464764c1a4edba88181"}, "vout": 0, "txid": "20c78d81813d47f3fe8b88b6abbcbfc3d787844108c28e2a1b13f182368b8fc4"}, {"txinwitness": ["", "3045022100badd866a89cd14b8aa39beef7532b12059dd7f3d5ec6e01eb619ff4d8be0bddf0220349219e870cb2b31ddd2466244772a943c70470c505389841c7e2c935e59121f01", "3045022100df79696fb782391b150a6df2a82b540cb8910183130002075a8e363ac862050e02206fe40d6dd20eb68b29110f0c5df3476e352591ed38fc75b884ba8465ea68ef0701", "522102129714cec686cfd93f9da0e1bde301d16a4fea8ca7d2e4738e95ff97a113e8042103982481ffd6c2aa1ba6b45c0874cb14e2ebcbfe494f93697c3d40857517fc280b52ae"], "sequence": 4294967295, "scriptSig": {"hex": "220020e4c2fbf99376392a2a73d703945f9d359e8a8a51e514ba70c3ef610be4e5ca65", "asm": "0020e4c2fbf99376392a2a73d703945f9d359e8a8a51e514ba70c3ef610be4e5ca65"}, "vout": 1, "txid": "0006342bcf1457f0a4c99ead393c116a1fc8fe8bfcf95071f92e49b312352f2c"}], "txid": "942250e6c982a4b5b70254eed7e63b7968cae34e6086f11ff73ca72c85067553", "blocktime": 1537874412, "version": 1, "confirmations": 11468, "time": 1537874412, "locktime": 0, "vsize": 337, "size": 667}