{"hash": "d244cae3df6079e7698fcf5c3e4be87fb2dc352e0ac1324a0d0f13f049484fd6", "blockhash": "0000000000000000001e0dab787dd257d1dbfcb92a98c2207d5e1078be1f4165", "vout": [{"scriptPubKey": {"reqSigs": 1, "hex": "a9147b4b2bb756956192347c8bcdfcabfc1bd8e61b9b87", "addresses": ["3Cvw66UquWBX7NimcC6nGFMQrF8uZatrxz"], "asm": "OP_HASH160 7b4b2bb756956192347c8bcdfcabfc1bd8e61b9b OP_EQUAL", "type": "scripthash"}, "value": 0.00426142, "n": 0}, {"scriptPubKey": {"reqSigs": 1, "hex": "a914a5c679defd49547b8133a1367eeadbdeaecec3da87", "addresses": ["3GoZBZ6F8g4UiCt7moPNLDX7KKwgtGgLUT"], "asm": "OP_HASH160 a5c679defd49547b8133a1367eeadbdeaecec3da OP_EQUAL", "type": "scripthash"}, "value": 0.60422148, "n": 1}], "hex": "01000000000102a830f5d416b6a9ec3e9d61deaa1b1f0257b2b48ea0e428f90a59b18013005ed801000000232200202d90cd274cea8141a030c0b79acc5b5c0b80b73d028692a1104913808bff6c09ffffffff8a7ba7d8772a5c52f6c4069418231664349d04f50ee2f72951a35835c100584a00000000232200202d90cd274cea8141a030c0b79acc5b5c0b80b73d028692a1104913808bff6c09ffffffff029e8006000000000017a9147b4b2bb756956192347c8bcdfcabfc1bd8e61b9b8704f899030000000017a914a5c679defd49547b8133a1367eeadbdeaecec3da87040047304402205300c4353f6f4c992c77109e67c60b449eb3c00043aaab56cccc482a98812877022007c4c6d75a6e00e2b55dae86bc75ffffccd5b01cda3bd7d27cbb69ed25c24afc01473044022012b337c69b9a34f71c8cfd2fc458903a7262b8ab676d0b248ffef5fda5c0626c022014196609392608b0c38f92d660d4ea95649a2a693a5971128f32cf688b6bf674014752210295d70c0f10033e6e119fdc61ddd495bfe23995150af6df4688db5bf235f2853b21023e4b58fb2a91970de56515d11487aabd364f0404f1099bef70493cc56002342352ae0400483045022100a8df9e61ba3fe0a6dbc92cdd9e1d5ccaa8d162f5a210e3c3536a3fa24cd36b6702200ade88d68806910ae93e28a21fe24fabcc60bc74cd7cdfe82aaaab87f508f15901473044022013abf615b783c3f4f9ef85b6c79b90606dbbd89a8c84b90ab486bbc75287e434022052ec2f13a3e3d880932a489ea0a0237b0a82516dd113847080a64926878a51ce014752210295d70c0f10033e6e119fdc61ddd495bfe23995150af6df4688db5bf235f2853b21023e4b58fb2a91970de56515d11487aabd364f0404f1099bef70493cc56002342352ae00000000", "vin": [{"txinwitness": ["", "304402205300c4353f6f4c992c77109e67c60b449eb3c00043aaab56cccc482a98812877022007c4c6d75a6e00e2b55dae86bc75ffffccd5b01cda3bd7d27cbb69ed25c24afc01", "3044022012b337c69b9a34f71c8cfd2fc458903a7262b8ab676d0b248ffef5fda5c0626c022014196609392608b0c38f92d660d4ea95649a2a693a5971128f32cf688b6bf67401", "52210295d70c0f10033e6e119fdc61ddd495bfe23995150af6df4688db5bf235f2853b21023e4b58fb2a91970de56515d11487aabd364f0404f1099bef70493cc56002342352ae"], "sequence": 4294967295, "scriptSig": {"hex": "2200202d90cd274cea8141a030c0b79acc5b5c0b80b73d028692a1104913808bff6c09", "asm": "00202d90cd274cea8141a030c0b79acc5b5c0b80b73d028692a1104913808bff6c09"}, "vout": 1, "txid": "d85e001380b1590af928e4a08eb4b257021f1baade619d3eeca9b616d4f530a8"}, {"txinwitness": ["", "3045022100a8df9e61ba3fe0a6dbc92cdd9e1d5ccaa8d162f5a210e3c3536a3fa24cd36b6702200ade88d68806910ae93e28a21fe24fabcc60bc74cd7cdfe82aaaab87f508f15901", "3044022013abf615b783c3f4f9ef85b6c79b90606dbbd89a8c84b90ab486bbc75287e434022052ec2f13a3e3d880932a489ea0a0237b0a82516dd113847080a64926878a51ce01", "52210295d70c0f10033e6e119fdc61ddd495bfe23995150af6df4688db5bf235f2853b21023e4b58fb2a91970de56515d11487aabd364f0404f1099bef70493cc56002342352ae"], "sequence": 4294967295, "scriptSig": {"hex": "2200202d90cd274cea8141a030c0b79acc5b5c0b80b73d028692a1104913808bff6c09", "asm": "00202d90cd274cea8141a030c0b79acc5b5c0b80b73d028692a1104913808bff6c09"}, "vout": 0, "txid": "4a5800c13558a35129f7e20ef5049d34641623189406c4f6525c2a77d8a77b8a"}], "txid": "9423529cd30de737c7513ecdeed7d60ccf014bfd1a605d6e7af42074bb47787c", "blocktime": 1537872475, "version": 1, "confirmations": 11487, "time": 1537872475, "locktime": 0, "vsize": 336, "size": 665}