{"hash": "9423b231ad3221ef6d5981a926015bb23a43a3cf4b8d414b36e1cb3f43da2357", "blockhash": "0000000000000000001f76057863aec43deb6fa401d9628bb513d65a8098bfab", "vout": [{"scriptPubKey": {"reqSigs": 1, "hex": "a9149fff6bbb3b0085d4f9352ed90fd8556c9ba3412f87", "addresses": ["3GH1Lzf39CLak333TeDDxfXiXZwhjrELHs"], "asm": "OP_HASH160 9fff6bbb3b0085d4f9352ed90fd8556c9ba3412f OP_EQUAL", "type": "scripthash"}, "value": 0.0023706, "n": 0}, {"scriptPubKey": {"reqSigs": 1, "hex": "76a914b58fe9d2be7bd9a19ef2e936168ec2e469b6507688ac", "addresses": ["1HZ1hzsDvHUWHFNZ5xDFwkoXZ6TCiejN2c"], "asm": "OP_DUP OP_HASH160 b58fe9d2be7bd9a19ef2e936168ec2e469b65076 OP_EQUALVERIFY OP_CHECKSIG", "type": "pubkeyhash"}, "value": 0.07481775, "n": 1}], "hex": "0100000001b1ce24af11701c50bb0a5f7ff31212794104df674f13971ff1314c64a7635b28010000006b483045022100947230ba6d6e5d15d950f8db8cb5693a149666d7a3504b77da6a4fabec3323440220132fb30d7735b3c7fd499daad0452bb85c247ebc5e017ec01552bd7bab8c71720121029cc2566c0f7982efc1c40d682002d7212ab918c848862bd0e43bdf2373f529d9ffffffff02049e03000000000017a9149fff6bbb3b0085d4f9352ed90fd8556c9ba3412f87af297200000000001976a914b58fe9d2be7bd9a19ef2e936168ec2e469b6507688ac00000000", "vin": [{"sequence": 4294967295, "scriptSig": {"hex": "483045022100947230ba6d6e5d15d950f8db8cb5693a149666d7a3504b77da6a4fabec3323440220132fb30d7735b3c7fd499daad0452bb85c247ebc5e017ec01552bd7bab8c71720121029cc2566c0f7982efc1c40d682002d7212ab918c848862bd0e43bdf2373f529d9", "asm": "3045022100947230ba6d6e5d15d950f8db8cb5693a149666d7a3504b77da6a4fabec3323440220132fb30d7735b3c7fd499daad0452bb85c247ebc5e017ec01552bd7bab8c7172[ALL] 029cc2566c0f7982efc1c40d682002d7212ab918c848862bd0e43bdf2373f529d9"}, "vout": 1, "txid": "285b63a7644c31f11f97134f67df0441791212f37f5f0abb501c7011af24ceb1"}], "txid": "9423b231ad3221ef6d5981a926015bb23a43a3cf4b8d414b36e1cb3f43da2357", "blocktime": 1537873891, "version": 1, "confirmations": 11477, "time": 1537873891, "locktime": 0, "vsize": 224, "size": 224}