{"hash": "942a877f661d4b232b13b7fc66667d07eb4993a4f6bee2e5e781bf3c6a787cb8", "blockhash": "000000000000000000022b45ed06c6f4ccd3cf7fb5ba4856ebd2e58215665228", "vout": [{"scriptPubKey": {"reqSigs": 1, "hex": "76a914b150b0cdbdbe551053386b8e325440b4a3b2f79e88ac", "addresses": ["1HAZGSQ5eBARSxe8pghk7yKFqrgW3wwrpd"], "asm": "OP_DUP OP_HASH160 b150b0cdbdbe551053386b8e325440b4a3b2f79e OP_EQUALVERIFY OP_CHECKSIG", "type": "pubkeyhash"}, "value": 0.00466884, "n": 0}, {"scriptPubKey": {"type": "nulldata", "hex": "6a146f6d6e69000000000000001f000000e8842db280", "asm": "OP_RETURN 6f6d6e69000000000000001f000000e8842db280"}, "value": 0.0, "n": 1}, {"scriptPubKey": {"reqSigs": 1, "hex": "76a914a25dec4d0011064ef106a983c39c7a540699f22088ac", "addresses": ["1FoWyxwPXuj4C6abqwhjDWdz6D4PZgYRjA"], "asm": "OP_DUP OP_HASH160 a25dec4d0011064ef106a983c39c7a540699f220 OP_EQUALVERIFY OP_CHECKSIG", "type": "pubkeyhash"}, "value": 5.46e-06, "n": 2}], "hex": "010000000a03adb8240576ed4da5049613fe8d104e308e50e8a39fef5b04624c5de5f48c30010000006a4730440220030042a72518d453033a00ebb9ebf1f77ed1906f9095f9330c5a4eb5ef0348440220478253369c669c6b78bb778faaee8e47cb5c540881d91ee55575642ae84d4c24012102550c4eb14ac175eff2cbffba55a667aa4f9ad859ce96ba4c20281cb4acec0f5ffeffffff586d2ed3da56fb5d6922f8c58da345972447135232e096e41a41404599489f54020000006a473044022031328bdafccf7e5a3bd1271cd41aeb18a0fa5866040c3ade5d0f18f641183d090220544b9d866e69832287e394f2c4a069e88121065554e90c10716e4fc02845218b012102550c4eb14ac175eff2cbffba55a667aa4f9ad859ce96ba4c20281cb4acec0f5ffeffffff5e36c31083054a625c5af448688b9f7c4828cade363f194910f32eaef21ab2b0000000006a47304402205eaaa7d80c643efa4c4e0335b2b0bf6a8f95c76b219e63b5c40bab421721aa2302203ff1eea164f20f7f9f334625475cfa0bc42ca813813b1000bc90ffcbeb33d6fd012102550c4eb14ac175eff2cbffba55a667aa4f9ad859ce96ba4c20281cb4acec0f5ffeffffff6e43c227a190d73082137042b951cd23756075677a3d272fb9f6dfd1d323eb17010000006b483045022100fa5a0dda194bd1d7ffdde99d04748b74b8b018a9f0978e08dc97dccf9adef8770220369469ddfa4fe9f6b35b39ac88b556ef80322260b081e2d09a63d543c5881319012102550c4eb14ac175eff2cbffba55a667aa4f9ad859ce96ba4c20281cb4acec0f5ffeffffff88e2201e440864c2f9c455449b04b9dea3daccc32a4504d67f2442840c5d5864010000006b483045022100b7599d564d03d45dd12473a9633e560f26c7c950dfc464261d67b8a8e053a83a02202f69ecf2ffe8f296c7f4633a98e63cc6755a8838f80fce3d435e7f0d1b385bcf012102550c4eb14ac175eff2cbffba55a667aa4f9ad859ce96ba4c20281cb4acec0f5ffeffffff96c409bbffa3af81acc2a4c50a4e52be989c8b77297435862540a40f1b2e3df9020000006a47304402207689c2c877fcb0a2bb940fc305b593fd811dafdb0b6bdf92e2e5ac517ab52365022013985b062538e98061cad3dba912e37456fccbd43daef2e3364b903f8b8d56b3012102550c4eb14ac175eff2cbffba55a667aa4f9ad859ce96ba4c20281cb4acec0f5ffeffffffa1ee5f5331f1b7ff5262b3b2617da16c38087fed1dbdc135db95e35bb25966c2020000006b483045022100a64688a8402082ce28a22b6c3abc0478b3ee605609e532d5576c31cfb3c646a802201f0a307f311adde73a46897469c391834be45c4be9b3980ab1afbb4db76307ed012102550c4eb14ac175eff2cbffba55a667aa4f9ad859ce96ba4c20281cb4acec0f5ffeffffffa65b6790a483dd714d83bfffc497c12dd5b43e2829779593a6ac3a129eeffc0f010000006b483045022100ce69417bf12b8338bc1aeda39672d8eab103712156a4d230f6b038a54c222a9f02203feae176a45137838e316ad934969d4719a590a2a86a8a7434b30dcf8d2997d1012102550c4eb14ac175eff2cbffba55a667aa4f9ad859ce96ba4c20281cb4acec0f5ffeffffffca7f32118ad44dfb3ca3d491b45a84c8f2ef876baa1846d469515e75b2ab688a020000006b4830450221008d116b324c68f934cf952cfc0e4353fc7bbd46730997d66bde6eba51563cbf3f02203ae30c22a5007b82dfa5ac61d4ea23e3c096ecc5b2b9ed5624c54482ae58119f012102550c4eb14ac175eff2cbffba55a667aa4f9ad859ce96ba4c20281cb4acec0f5ffeffffffc4b8998cb2e291fc25acec9e3f936083ce117bce5a6480d90ff530044eec21b3000000006b483045022100a54ae3994e5cc5670fd337b6effd0a1533921d979c673bc088335598950709d6022033509b62e0eb2f833673b4fd53f36f96dbe1fc42a8f867e3b66e060280c20408012102550c4eb14ac175eff2cbffba55a667aa4f9ad859ce96ba4c20281cb4acec0f5ffeffffff03c41f0700000000001976a914b150b0cdbdbe551053386b8e325440b4a3b2f79e88ac0000000000000000166a146f6d6e69000000000000001f000000e8842db28022020000000000001976a914a25dec4d0011064ef106a983c39c7a540699f22088ac0b490800", "vin": [{"sequence": 4294967294, "scriptSig": {"hex": "4730440220030042a72518d453033a00ebb9ebf1f77ed1906f9095f9330c5a4eb5ef0348440220478253369c669c6b78bb778faaee8e47cb5c540881d91ee55575642ae84d4c24012102550c4eb14ac175eff2cbffba55a667aa4f9ad859ce96ba4c20281cb4acec0f5f", "asm": "30440220030042a72518d453033a00ebb9ebf1f77ed1906f9095f9330c5a4eb5ef0348440220478253369c669c6b78bb778faaee8e47cb5c540881d91ee55575642ae84d4c24[ALL] 02550c4eb14ac175eff2cbffba55a667aa4f9ad859ce96ba4c20281cb4acec0f5f"}, "vout": 1, "txid": "308cf4e55d4c62045bef9fa3e8508e304e108dfe139604a54ded760524b8ad03"}, {"sequence": 4294967294, "scriptSig": {"hex": "473044022031328bdafccf7e5a3bd1271cd41aeb18a0fa5866040c3ade5d0f18f641183d090220544b9d866e69832287e394f2c4a069e88121065554e90c10716e4fc02845218b012102550c4eb14ac175eff2cbffba55a667aa4f9ad859ce96ba4c20281cb4acec0f5f", "asm": "3044022031328bdafccf7e5a3bd1271cd41aeb18a0fa5866040c3ade5d0f18f641183d090220544b9d866e69832287e394f2c4a069e88121065554e90c10716e4fc02845218b[ALL] 02550c4eb14ac175eff2cbffba55a667aa4f9ad859ce96ba4c20281cb4acec0f5f"}, "vout": 2, "txid": "549f48994540411ae496e032521347249745a38dc5f822695dfb56dad32e6d58"}, {"sequence": 4294967294, "scriptSig": {"hex": "47304402205eaaa7d80c643efa4c4e0335b2b0bf6a8f95c76b219e63b5c40bab421721aa2302203ff1eea164f20f7f9f334625475cfa0bc42ca813813b1000bc90ffcbeb33d6fd012102550c4eb14ac175eff2cbffba55a667aa4f9ad859ce96ba4c20281cb4acec0f5f", "asm": "304402205eaaa7d80c643efa4c4e0335b2b0bf6a8f95c76b219e63b5c40bab421721aa2302203ff1eea164f20f7f9f334625475cfa0bc42ca813813b1000bc90ffcbeb33d6fd[ALL] 02550c4eb14ac175eff2cbffba55a667aa4f9ad859ce96ba4c20281cb4acec0f5f"}, "vout": 0, "txid": "b0b21af2ae2ef31049193f36deca28487c9f8b6848f45a5c624a058310c3365e"}, {"sequence": 4294967294, "scriptSig": {"hex": "483045022100fa5a0dda194bd1d7ffdde99d04748b74b8b018a9f0978e08dc97dccf9adef8770220369469ddfa4fe9f6b35b39ac88b556ef80322260b081e2d09a63d543c5881319012102550c4eb14ac175eff2cbffba55a667aa4f9ad859ce96ba4c20281cb4acec0f5f", "asm": "3045022100fa5a0dda194bd1d7ffdde99d04748b74b8b018a9f0978e08dc97dccf9adef8770220369469ddfa4fe9f6b35b39ac88b556ef80322260b081e2d09a63d543c5881319[ALL] 02550c4eb14ac175eff2cbffba55a667aa4f9ad859ce96ba4c20281cb4acec0f5f"}, "vout": 1, "txid": "17eb23d3d1dff6b92f273d7a6775607523cd51b94270138230d790a127c2436e"}, {"sequence": 4294967294, "scriptSig": {"hex": "483045022100b7599d564d03d45dd12473a9633e560f26c7c950dfc464261d67b8a8e053a83a02202f69ecf2ffe8f296c7f4633a98e63cc6755a8838f80fce3d435e7f0d1b385bcf012102550c4eb14ac175eff2cbffba55a667aa4f9ad859ce96ba4c20281cb4acec0f5f", "asm": "3045022100b7599d564d03d45dd12473a9633e560f26c7c950dfc464261d67b8a8e053a83a02202f69ecf2ffe8f296c7f4633a98e63cc6755a8838f80fce3d435e7f0d1b385bcf[ALL] 02550c4eb14ac175eff2cbffba55a667aa4f9ad859ce96ba4c20281cb4acec0f5f"}, "vout": 1, "txid": "64585d0c8442247fd604452ac3ccdaa3deb9049b4455c4f9c26408441e20e288"}, {"sequence": 4294967294, "scriptSig": {"hex": "47304402207689c2c877fcb0a2bb940fc305b593fd811dafdb0b6bdf92e2e5ac517ab52365022013985b062538e98061cad3dba912e37456fccbd43daef2e3364b903f8b8d56b3012102550c4eb14ac175eff2cbffba55a667aa4f9ad859ce96ba4c20281cb4acec0f5f", "asm": "304402207689c2c877fcb0a2bb940fc305b593fd811dafdb0b6bdf92e2e5ac517ab52365022013985b062538e98061cad3dba912e37456fccbd43daef2e3364b903f8b8d56b3[ALL] 02550c4eb14ac175eff2cbffba55a667aa4f9ad859ce96ba4c20281cb4acec0f5f"}, "vout": 2, "txid": "f93d2e1b0fa4402586357429778b9c98be524e0ac5a4c2ac81afa3ffbb09c496"}, {"sequence": 4294967294, "scriptSig": {"hex": "483045022100a64688a8402082ce28a22b6c3abc0478b3ee605609e532d5576c31cfb3c646a802201f0a307f311adde73a46897469c391834be45c4be9b3980ab1afbb4db76307ed012102550c4eb14ac175eff2cbffba55a667aa4f9ad859ce96ba4c20281cb4acec0f5f", "asm": "3045022100a64688a8402082ce28a22b6c3abc0478b3ee605609e532d5576c31cfb3c646a802201f0a307f311adde73a46897469c391834be45c4be9b3980ab1afbb4db76307ed[ALL] 02550c4eb14ac175eff2cbffba55a667aa4f9ad859ce96ba4c20281cb4acec0f5f"}, "vout": 2, "txid": "c26659b25be395db35c1bd1ded7f08386ca17d61b2b36252ffb7f131535feea1"}, {"sequence": 4294967294, "scriptSig": {"hex": "483045022100ce69417bf12b8338bc1aeda39672d8eab103712156a4d230f6b038a54c222a9f02203feae176a45137838e316ad934969d4719a590a2a86a8a7434b30dcf8d2997d1012102550c4eb14ac175eff2cbffba55a667aa4f9ad859ce96ba4c20281cb4acec0f5f", "asm": "3045022100ce69417bf12b8338bc1aeda39672d8eab103712156a4d230f6b038a54c222a9f02203feae176a45137838e316ad934969d4719a590a2a86a8a7434b30dcf8d2997d1[ALL] 02550c4eb14ac175eff2cbffba55a667aa4f9ad859ce96ba4c20281cb4acec0f5f"}, "vout": 1, "txid": "0ffcef9e123aaca693957729283eb4d52dc197c4ffbf834d71dd83a490675ba6"}, {"sequence": 4294967294, "scriptSig": {"hex": "4830450221008d116b324c68f934cf952cfc0e4353fc7bbd46730997d66bde6eba51563cbf3f02203ae30c22a5007b82dfa5ac61d4ea23e3c096ecc5b2b9ed5624c54482ae58119f012102550c4eb14ac175eff2cbffba55a667aa4f9ad859ce96ba4c20281cb4acec0f5f", "asm": "30450221008d116b324c68f934cf952cfc0e4353fc7bbd46730997d66bde6eba51563cbf3f02203ae30c22a5007b82dfa5ac61d4ea23e3c096ecc5b2b9ed5624c54482ae58119f[ALL] 02550c4eb14ac175eff2cbffba55a667aa4f9ad859ce96ba4c20281cb4acec0f5f"}, "vout": 2, "txid": "8a68abb2755e5169d44618aa6b87eff2c8845ab491d4a33cfb4dd48a11327fca"}, {"sequence": 4294967294, "scriptSig": {"hex": "483045022100a54ae3994e5cc5670fd337b6effd0a1533921d979c673bc088335598950709d6022033509b62e0eb2f833673b4fd53f36f96dbe1fc42a8f867e3b66e060280c20408012102550c4eb14ac175eff2cbffba55a667aa4f9ad859ce96ba4c20281cb4acec0f5f", "asm": "3045022100a54ae3994e5cc5670fd337b6effd0a1533921d979c673bc088335598950709d6022033509b62e0eb2f833673b4fd53f36f96dbe1fc42a8f867e3b66e060280c20408[ALL] 02550c4eb14ac175eff2cbffba55a667aa4f9ad859ce96ba4c20281cb4acec0f5f"}, "vout": 0, "txid": "b321ec4e0430f50fd980645ace7b11ce8360933f9eecac25fc91e2b28c99b8c4"}], "txid": "942a877f661d4b232b13b7fc66667d07eb4993a4f6bee2e5e781bf3c6a787cb8", "blocktime": 1537869901, "version": 1, "confirmations": 11524, "time": 1537869901, "locktime": 542987, "vsize": 1585, "size": 1585}