{"hash": "c167e31ba9820e14e444f7da78f2df9a2e5ce23e8799474227f877fe187c7bee", "blockhash": "0000000000000000001e0dab787dd257d1dbfcb92a98c2207d5e1078be1f4165", "vout": [{"scriptPubKey": {"reqSigs": 1, "hex": "a914863d5fca6b8d3195cc8b9cf5dad6308772ef347187", "addresses": ["3DvozbsL7uUXvqPAi3CS13AxcXfuA4DZek"], "asm": "OP_HASH160 863d5fca6b8d3195cc8b9cf5dad6308772ef3471 OP_EQUAL", "type": "scripthash"}, "value": 0.02286566, "n": 0}, {"scriptPubKey": {"reqSigs": 1, "hex": "0014422646bd71abb9bdb4bc5aa1843fff53779bd9e0", "addresses": ["bc1qggnyd0t34wummd9ut2scg0ll2dmehk0qylktle"], "asm": "0 422646bd71abb9bdb4bc5aa1843fff53779bd9e0", "type": "witness_v0_keyhash"}, "value": 0.00012672, "n": 1}], "hex": "01000000000101fee834a56e074b9b3a1fc48f1cd83c6199b558437ca69950daf7b7f21be75b3f0400000017160014c07d5d80b9e07348a5f5ff64c1726e67786fe31effffffff02e6e322000000000017a914863d5fca6b8d3195cc8b9cf5dad6308772ef3471878031000000000000160014422646bd71abb9bdb4bc5aa1843fff53779bd9e002483045022100fa805b732c24a2102b21d7b5cc77a3b17915d27c80e51f1cee9ed323cb4b22be02207a62a49df2289642d4b6f7f20ba3fc299b256ecf86067a8b473d056ad7787539012103dd6e952af9520f429153976be9ccfc4d7578f8889a93e3a6c5cc2154fab2844100000000", "vin": [{"txinwitness": ["3045022100fa805b732c24a2102b21d7b5cc77a3b17915d27c80e51f1cee9ed323cb4b22be02207a62a49df2289642d4b6f7f20ba3fc299b256ecf86067a8b473d056ad778753901", "03dd6e952af9520f429153976be9ccfc4d7578f8889a93e3a6c5cc2154fab28441"], "sequence": 4294967295, "scriptSig": {"hex": "160014c07d5d80b9e07348a5f5ff64c1726e67786fe31e", "asm": "0014c07d5d80b9e07348a5f5ff64c1726e67786fe31e"}, "vout": 4, "txid": "3f5be71bf2b7f7da5099a67c4358b599613cd81c8fc41f3a9b4b076ea534e8fe"}], "txid": "942e37a602d122c232786f5a3a02453df3c133f99231cc1220ad545851ca91fb", "blocktime": 1537872475, "version": 1, "confirmations": 11486, "time": 1537872475, "locktime": 0, "vsize": 165, "size": 247}