{"hash": "9435f93c76226e0d77c4ce334a44cb11cfb97b336d4fa32e96d90faa0fc53294", "blockhash": "000000000000000000022b45ed06c6f4ccd3cf7fb5ba4856ebd2e58215665228", "vout": [{"scriptPubKey": {"reqSigs": 1, "hex": "a9149821ccb1fa0c3a635f02b98f453bcdeb8b2cd9f787", "addresses": ["3FZR88zsqA9d3wnuWZPkBjpqgNHtiwso4p"], "asm": "OP_HASH160 9821ccb1fa0c3a635f02b98f453bcdeb8b2cd9f7 OP_EQUAL", "type": "scripthash"}, "value": 0.00246668, "n": 0}, {"scriptPubKey": {"reqSigs": 1, "hex": "76a914620a622832014f26d6405ac676d64d556f764c2488ac", "addresses": ["19wPfFeGAjidyPdhwjmkKeSvdLY7vLUVhe"], "asm": "OP_DUP OP_HASH160 620a622832014f26d6405ac676d64d556f764c24 OP_EQUALVERIFY OP_CHECKSIG", "type": "pubkeyhash"}, "value": 51.70192153, "n": 1}], "hex": "010000000155e0f871d0d8a764b2a33550826bae4b2889a8d0a3462060c5e239e1e935e22f010000006a473044022004439379879832e72ecf4bb7a181ee3559d813b1fa74b79c3766ef6944ac310f02203624d8262596579814a4ac3b82da3a73d7677d5da5ecd46910af17b8440ab018012103e26fd940bfe94cbb79b421f2557a9f34e5ce4acdeaac1cb5a88ca68aab49fbccffffffff028cc303000000000017a9149821ccb1fa0c3a635f02b98f453bcdeb8b2cd9f78719df2a34010000001976a914620a622832014f26d6405ac676d64d556f764c2488ac00000000", "vin": [{"sequence": 4294967295, "scriptSig": {"hex": "473044022004439379879832e72ecf4bb7a181ee3559d813b1fa74b79c3766ef6944ac310f02203624d8262596579814a4ac3b82da3a73d7677d5da5ecd46910af17b8440ab018012103e26fd940bfe94cbb79b421f2557a9f34e5ce4acdeaac1cb5a88ca68aab49fbcc", "asm": "3044022004439379879832e72ecf4bb7a181ee3559d813b1fa74b79c3766ef6944ac310f02203624d8262596579814a4ac3b82da3a73d7677d5da5ecd46910af17b8440ab018[ALL] 03e26fd940bfe94cbb79b421f2557a9f34e5ce4acdeaac1cb5a88ca68aab49fbcc"}, "vout": 1, "txid": "2fe235e9e139e2c5602046a3d0a889284bae6b825035a3b264a7d8d071f8e055"}], "txid": "9435f93c76226e0d77c4ce334a44cb11cfb97b336d4fa32e96d90faa0fc53294", "blocktime": 1537869901, "version": 1, "confirmations": 11522, "time": 1537869901, "locktime": 0, "vsize": 223, "size": 223}