{"hash": "0ba67debf84c319b7f41eb01feb45362382c72589fc62755e2fc132e848a709c", "blockhash": "0000000000000000000dcc0f55137456b1a82d3642486a52398922ac4d620174", "vout": [{"scriptPubKey": {"reqSigs": 1, "hex": "a91406376a4617a57b4fd151a3031e52d43b882fa7da87", "addresses": ["32FtN1H8DLWQSTZDkLmMHVzLDRJkyVekEi"], "asm": "OP_HASH160 06376a4617a57b4fd151a3031e52d43b882fa7da OP_EQUAL", "type": "scripthash"}, "value": 0.013795, "n": 0}, {"scriptPubKey": {"reqSigs": 1, "hex": "001419339a9c8499696316f4c6e7c48c9dd499e2f615", "addresses": ["bc1qryee48yyn95kx9h5cmnufrya6jv79as4w23h8r"], "asm": "0 19339a9c8499696316f4c6e7c48c9dd499e2f615", "type": "witness_v0_keyhash"}, "value": 0.00076911, "n": 1}], "hex": "010000000001014e837bc5476e885910106309436a91179ec3fc268f3d408b6dd57bb5ebab57490000000017160014343ccb92497fd2985f20fd22591fe5d1040a6db0ffffffff02ac0c15000000000017a91406376a4617a57b4fd151a3031e52d43b882fa7da876f2c01000000000016001419339a9c8499696316f4c6e7c48c9dd499e2f615024730440220064b71cd5c2c4999801821e3d5c9c427fb4b9d94d70ffd7c9f5b7e35d62116be02204acc9ab85d556a11cf1086744855b8a7e07414b4607a2a136e8c787487e9a1740121024d93030f8c959df40a8f240aa425cac6f40fe5759f7ddf68f03b498b941c433b00000000", "vin": [{"txinwitness": ["30440220064b71cd5c2c4999801821e3d5c9c427fb4b9d94d70ffd7c9f5b7e35d62116be02204acc9ab85d556a11cf1086744855b8a7e07414b4607a2a136e8c787487e9a17401", "024d93030f8c959df40a8f240aa425cac6f40fe5759f7ddf68f03b498b941c433b"], "sequence": 4294967295, "scriptSig": {"hex": "160014343ccb92497fd2985f20fd22591fe5d1040a6db0", "asm": "0014343ccb92497fd2985f20fd22591fe5d1040a6db0"}, "vout": 0, "txid": "4957abebb57bd56d8b403d8f26fcc39e17916a430963101059886e47c57b834e"}], "txid": "9436c34dcb3438b7d9ba30419732b4f1415df83deb666001ca1cd29bdd62d185", "blocktime": 1537870268, "version": 1, "confirmations": 11518, "time": 1537870268, "locktime": 0, "vsize": 165, "size": 246}