{"hash": "38c795a816c4797e675e19faf81c7ba6228dcf242ef4c6aa0ed14c447e08ad92", "blockhash": "00000000000000000024a2167bbff67b0be802c0b01cdd79e6331c2be6459f87", "vout": [{"scriptPubKey": {"reqSigs": 1, "hex": "76a914a0b6f8dd7cafb17b603aa10d17f98b724e02d1df88ac", "addresses": ["1FenJpXA7qP2ZeHfVSAQeUsBcqFziz45iP"], "asm": "OP_DUP OP_HASH160 a0b6f8dd7cafb17b603aa10d17f98b724e02d1df OP_EQUALVERIFY OP_CHECKSIG", "type": "pubkeyhash"}, "value": 0.007, "n": 0}, {"scriptPubKey": {"reqSigs": 1, "hex": "a914627aa52932456d89054bd84f86246af3b71b93a887", "addresses": ["3Afj4stdiLG9EktGrMbm252ySonnhYaz8v"], "asm": "OP_HASH160 627aa52932456d89054bd84f86246af3b71b93a8 OP_EQUAL", "type": "scripthash"}, "value": 0.51167743, "n": 1}], "hex": "0100000000010131be3d9fc885345942ffa384daa1c38d3d50b9dd4606e7d69223975f7dfde71001000000232200205fdd641234b13964b223bd85ad2a4a667ca2099df3d42a1d3b45706a8d81abf0ffffffff0260ae0a00000000001976a914a0b6f8dd7cafb17b603aa10d17f98b724e02d1df88acffc10c030000000017a914627aa52932456d89054bd84f86246af3b71b93a88704004730440220575796b4820811a2a994c71540051ccd2d7a773b4bdb3d831740e14ed1f3cfff02206a34edc551f3bfe04e3f3c7a683106962f1a2fcc99276ae8ecac3ac1274697f001483045022100ed8cc9313e6f655fff5740ce4e753e1d893a9673a025f7fdc30005cfd489ebda0220293dc5e7b42b7be30858116dde2e4fff201c1b96a0d73d91289ff2bb545931020147522103dcde3832fa56def7b4e783faad1b8af85c3cdd74a5ff4f3c7c216b1075c18da12103c70ae8ded79be1afda73b9ce5ea14a3878908ee160d66a9a717e792bb6db276952ae00000000", "vin": [{"txinwitness": ["", "30440220575796b4820811a2a994c71540051ccd2d7a773b4bdb3d831740e14ed1f3cfff02206a34edc551f3bfe04e3f3c7a683106962f1a2fcc99276ae8ecac3ac1274697f001", "3045022100ed8cc9313e6f655fff5740ce4e753e1d893a9673a025f7fdc30005cfd489ebda0220293dc5e7b42b7be30858116dde2e4fff201c1b96a0d73d91289ff2bb5459310201", "522103dcde3832fa56def7b4e783faad1b8af85c3cdd74a5ff4f3c7c216b1075c18da12103c70ae8ded79be1afda73b9ce5ea14a3878908ee160d66a9a717e792bb6db276952ae"], "sequence": 4294967295, "scriptSig": {"hex": "2200205fdd641234b13964b223bd85ad2a4a667ca2099df3d42a1d3b45706a8d81abf0", "asm": "00205fdd641234b13964b223bd85ad2a4a667ca2099df3d42a1d3b45706a8d81abf0"}, "vout": 1, "txid": "10e7fd7d5f972392d6e70646ddb9503d8dc3a1da84a3ff42593485c89f3dbe31"}], "txid": "943a922cfc91951c874ba2015f74716eeb9d406038f4da3cce3d8740a8717b1d", "blocktime": 1537870564, "version": 1, "confirmations": 11515, "time": 1537870564, "locktime": 0, "vsize": 208, "size": 373}