{"hash": "943d8eee3ca90d4caf2603195641bb3cbe2f4fd9b76caf5e3105ed9f494f00ec", "blockhash": "0000000000000000001f76057863aec43deb6fa401d9628bb513d65a8098bfab", "vout": [{"scriptPubKey": {"reqSigs": 1, "hex": "a914bb72a2dd4c4adb98500f8390dc49ca0f4db975b087", "addresses": ["3Jn9cUgcBb7ZVnN165nMoQAgnWY2DEB6rM"], "asm": "OP_HASH160 bb72a2dd4c4adb98500f8390dc49ca0f4db975b0 OP_EQUAL", "type": "scripthash"}, "value": 0.0625116, "n": 0}], "hex": "01000000028c26691f8d1ae10ddc8ebc4578409fb8d1f11345cb09eb63f026a25d7c803253100000006b4830450221008c78638bb6fc2dc4e6c4259b252bd9033be7cb8c934990b2cd72fbff9cb089b102205f65ec20269d358c75e9accd2f0fd3fba28a22d907e81d1f22585a37fbaacc600121038418a92d7c67c5ffe36674d77554132b2c5d565f5f3986d912b8d1595f8d0aebffffffffca1c28baeb8f2abd7adc168401a74885ec6a5ca14d722acaecd6dfeab247cec6060000006a4730440220332d4670ccfb4f28a1a5c4737480ae9eef30d64971d037a661f56b0da3cbbfa50220125fc3bbba6902ff875bb84d99bf9ec59b50da963a2389044aab2c6c31a8cc890121038418a92d7c67c5ffe36674d77554132b2c5d565f5f3986d912b8d1595f8d0aebffffffff0198625f000000000017a914bb72a2dd4c4adb98500f8390dc49ca0f4db975b08700000000", "vin": [{"sequence": 4294967295, "scriptSig": {"hex": "4830450221008c78638bb6fc2dc4e6c4259b252bd9033be7cb8c934990b2cd72fbff9cb089b102205f65ec20269d358c75e9accd2f0fd3fba28a22d907e81d1f22585a37fbaacc600121038418a92d7c67c5ffe36674d77554132b2c5d565f5f3986d912b8d1595f8d0aeb", "asm": "30450221008c78638bb6fc2dc4e6c4259b252bd9033be7cb8c934990b2cd72fbff9cb089b102205f65ec20269d358c75e9accd2f0fd3fba28a22d907e81d1f22585a37fbaacc60[ALL] 038418a92d7c67c5ffe36674d77554132b2c5d565f5f3986d912b8d1595f8d0aeb"}, "vout": 16, "txid": "5332807c5da226f063eb09cb4513f1d1b89f407845bc8edc0de11a8d1f69268c"}, {"sequence": 4294967295, "scriptSig": {"hex": "4730440220332d4670ccfb4f28a1a5c4737480ae9eef30d64971d037a661f56b0da3cbbfa50220125fc3bbba6902ff875bb84d99bf9ec59b50da963a2389044aab2c6c31a8cc890121038418a92d7c67c5ffe36674d77554132b2c5d565f5f3986d912b8d1595f8d0aeb", "asm": "30440220332d4670ccfb4f28a1a5c4737480ae9eef30d64971d037a661f56b0da3cbbfa50220125fc3bbba6902ff875bb84d99bf9ec59b50da963a2389044aab2c6c31a8cc89[ALL] 038418a92d7c67c5ffe36674d77554132b2c5d565f5f3986d912b8d1595f8d0aeb"}, "vout": 6, "txid": "c6ce47b2eadfd6ecca2a724da15c6aec8548a7018416dc7abd2a8febba281cca"}], "txid": "943d8eee3ca90d4caf2603195641bb3cbe2f4fd9b76caf5e3105ed9f494f00ec", "blocktime": 1537873891, "version": 1, "confirmations": 11478, "time": 1537873891, "locktime": 0, "vsize": 337, "size": 337}