{"hash": "9444fa44540dba6f7674de4623e294ec76ca692bbd193d00e1a0dd505cbc2c77", "blockhash": "00000000000000000018f53835495a110e01622372bf6ae95dc86f2b0ab887b0", "vout": [{"scriptPubKey": {"reqSigs": 1, "hex": "a91420e287313e035fc73efda46369dd8d9fcce55c9587", "addresses": ["34gtv8WcFqbJhDZU7QocM4po4NzQxFsccT"], "asm": "OP_HASH160 20e287313e035fc73efda46369dd8d9fcce55c95 OP_EQUAL", "type": "scripthash"}, "value": 8.732e-05, "n": 0}, {"scriptPubKey": {"reqSigs": 1, "hex": "76a9146cdaae258796be0540da4fa8a4c9d360b94aae8388ac", "addresses": ["1AvZwtY2Q6yyjo4zPQEAhWM7QEW6QfU949"], "asm": "OP_DUP OP_HASH160 6cdaae258796be0540da4fa8a4c9d360b94aae83 OP_EQUALVERIFY OP_CHECKSIG", "type": "pubkeyhash"}, "value": 0.00849751, "n": 1}], "hex": "0100000001154f881543f781703e4b57ed4c5b41623965a722908d2751816758e210a6d25e010000006a47304402207084a638a349569f9ec336412a56578426ba795ce1f81bb1e1687b344341b65602201af2c0a30298fabbc621b33091be17f59299eaecb529d03eacf0bec3da0dccdd012102f6ca4198f5b178783b3052dcc3794ab253eff26f955d3719a8e2277b50284514ffffffff021c2200000000000017a91420e287313e035fc73efda46369dd8d9fcce55c958757f70c00000000001976a9146cdaae258796be0540da4fa8a4c9d360b94aae8388ac00000000", "vin": [{"sequence": 4294967295, "scriptSig": {"hex": "47304402207084a638a349569f9ec336412a56578426ba795ce1f81bb1e1687b344341b65602201af2c0a30298fabbc621b33091be17f59299eaecb529d03eacf0bec3da0dccdd012102f6ca4198f5b178783b3052dcc3794ab253eff26f955d3719a8e2277b50284514", "asm": "304402207084a638a349569f9ec336412a56578426ba795ce1f81bb1e1687b344341b65602201af2c0a30298fabbc621b33091be17f59299eaecb529d03eacf0bec3da0dccdd[ALL] 02f6ca4198f5b178783b3052dcc3794ab253eff26f955d3719a8e2277b50284514"}, "vout": 1, "txid": "5ed2a610e258678151278d9022a7653962415b4ced574b3e7081f74315884f15"}], "txid": "9444fa44540dba6f7674de4623e294ec76ca692bbd193d00e1a0dd505cbc2c77", "blocktime": 1537870928, "version": 1, "confirmations": 11514, "time": 1537870928, "locktime": 0, "vsize": 223, "size": 223}