{"hash": "944561c742e30e350d93f03c175fe8aa0673eb0dc01f89b5d350e9ff176b8e33", "blockhash": "0000000000000000001e0dab787dd257d1dbfcb92a98c2207d5e1078be1f4165", "vout": [{"scriptPubKey": {"reqSigs": 1, "hex": "a914617e433eb3da5f90474619ce0eadeb3a83ef269287", "addresses": ["3AaWj32gLKyLBHAP4J4bd5TnXjzZw3W9uP"], "asm": "OP_HASH160 617e433eb3da5f90474619ce0eadeb3a83ef2692 OP_EQUAL", "type": "scripthash"}, "value": 0.004958, "n": 0}, {"scriptPubKey": {"reqSigs": 1, "hex": "76a914e38b531cc7ed3fc4940569ca9d43ecb14d9a922788ac", "addresses": ["1Mk9HzZbFhZYPUCEoMfYD3AKP2pEM3tPEU"], "asm": "OP_DUP OP_HASH160 e38b531cc7ed3fc4940569ca9d43ecb14d9a9227 OP_EQUALVERIFY OP_CHECKSIG", "type": "pubkeyhash"}, "value": 0.03869361, "n": 1}], "hex": "0100000001bf3b467823c25cb3928c577853076804d4506b1a5bcd8291fb03bacd7f04c89f010000006a47304402205d6b7111f42a705bf454b3a011de037e9935250cc323fc0cdce8204847846fe802206ff86ed5c4cfa85aea5dc071b8bf779ecd0095421a35f7f136fd7f90062c9db7012102f39756bc08c25d8657cc0d1671a7409d940e320ebd6086fe005136d985697204ffffffff02b89007000000000017a914617e433eb3da5f90474619ce0eadeb3a83ef269287b10a3b00000000001976a914e38b531cc7ed3fc4940569ca9d43ecb14d9a922788ac00000000", "vin": [{"sequence": 4294967295, "scriptSig": {"hex": "47304402205d6b7111f42a705bf454b3a011de037e9935250cc323fc0cdce8204847846fe802206ff86ed5c4cfa85aea5dc071b8bf779ecd0095421a35f7f136fd7f90062c9db7012102f39756bc08c25d8657cc0d1671a7409d940e320ebd6086fe005136d985697204", "asm": "304402205d6b7111f42a705bf454b3a011de037e9935250cc323fc0cdce8204847846fe802206ff86ed5c4cfa85aea5dc071b8bf779ecd0095421a35f7f136fd7f90062c9db7[ALL] 02f39756bc08c25d8657cc0d1671a7409d940e320ebd6086fe005136d985697204"}, "vout": 1, "txid": "9fc8047fcdba03fb9182cd5b1a6b50d40468075378578c92b35cc22378463bbf"}], "txid": "944561c742e30e350d93f03c175fe8aa0673eb0dc01f89b5d350e9ff176b8e33", "blocktime": 1537872475, "version": 1, "confirmations": 11487, "time": 1537872475, "locktime": 0, "vsize": 223, "size": 223}