{"hash": "8af08b9cc1fbd931b34401bdd88de956f80f704fd4f6df004c6c92d780c6cdf7", "blockhash": "00000000000000000004ffacab907a6b429b9a5745fa0b75af4234bf69dd7176", "vout": [{"scriptPubKey": {"reqSigs": 1, "hex": "a914a0b167659b756ef6d580a1cddf9302a02afaddc687", "addresses": ["3GLgZUX6XxUpFrMZS6UMZxBxV9iAG2mF9L"], "asm": "OP_HASH160 a0b167659b756ef6d580a1cddf9302a02afaddc6 OP_EQUAL", "type": "scripthash"}, "value": 0.02006233, "n": 0}, {"scriptPubKey": {"reqSigs": 1, "hex": "a91446aa843d704f679fc7f4b56afd9437d717ead56f87", "addresses": ["388fVfqJgMeD4StcuYUVST2uVZhawsPotp"], "asm": "OP_HASH160 46aa843d704f679fc7f4b56afd9437d717ead56f OP_EQUAL", "type": "scripthash"}, "value": 0.01021936, "n": 1}], "hex": "02000000000102869e4e99180c3d9f8336d993f1381de9d433af012608fd2c134c68ef698e654e0000000017160014a6189a9916ec2d6d58fe5a1972dadc690d448a44feffffff8cfddd492d3bacb58521d5c8bdaa30b1b504cb3b38f67c554acdf69e863e80eb00000000171600146f029194cb117af43bfc6e1dd1fa55210bb4cd63feffffff02d99c1e000000000017a914a0b167659b756ef6d580a1cddf9302a02afaddc687f0970f000000000017a91446aa843d704f679fc7f4b56afd9437d717ead56f8702473044022065fdd7957870ab0e5ce60f09732c2fae0d3633fb30fa530a0f50e0eb1afeb74a02205907ba1fa616965622ec3e9c7a78533c6105e8c8c38a1bb8e3d1d6f02664b1ec0121031fca30e2679168fedceee7c969a2ec1e1af1a7e54e953469f3a17381b5f89ddf02483045022100a8207c7ef88379bcbd1a939c4bae6d65b875ac13313af7a231a74fa31e1bc98f022004fab46c9f72b1b3d2ad910939583e4dbdb7580c34261dc789678b4fbfa2334c01210266419f403eadf1fd11d9fd33e6ba1adc2748b10e81f1069fb4501fc3d04944e116490800", "vin": [{"txinwitness": ["3044022065fdd7957870ab0e5ce60f09732c2fae0d3633fb30fa530a0f50e0eb1afeb74a02205907ba1fa616965622ec3e9c7a78533c6105e8c8c38a1bb8e3d1d6f02664b1ec01", "031fca30e2679168fedceee7c969a2ec1e1af1a7e54e953469f3a17381b5f89ddf"], "sequence": 4294967294, "scriptSig": {"hex": "160014a6189a9916ec2d6d58fe5a1972dadc690d448a44", "asm": "0014a6189a9916ec2d6d58fe5a1972dadc690d448a44"}, "vout": 0, "txid": "4e658e69ef684c132cfd082601af33d4e91d38f193d936839f3d0c18994e9e86"}, {"txinwitness": ["3045022100a8207c7ef88379bcbd1a939c4bae6d65b875ac13313af7a231a74fa31e1bc98f022004fab46c9f72b1b3d2ad910939583e4dbdb7580c34261dc789678b4fbfa2334c01", "0266419f403eadf1fd11d9fd33e6ba1adc2748b10e81f1069fb4501fc3d04944e1"], "sequence": 4294967294, "scriptSig": {"hex": "1600146f029194cb117af43bfc6e1dd1fa55210bb4cd63", "asm": "00146f029194cb117af43bfc6e1dd1fa55210bb4cd63"}, "vout": 0, "txid": "eb803e869ef6cd4a557cf6383bcb04b5b130aabdc8d52185b5ac3b2d49ddfd8c"}], "txid": "9445c9c8ae73936b0f4dd8b222314ed8da88d20cafa1bea20c043a46706a2a7d", "blocktime": 1537875543, "version": 2, "confirmations": 11464, "time": 1537875543, "locktime": 542998, "vsize": 257, "size": 419}