{"hash": "f7b8e72b9098cc7c4aaf59b4fc2c697f0df5a8eff3a271d6764ca75e09f2e432", "blockhash": "00000000000000000017f5eb5941039fbcee6240d03bc1f2f8e35350df66a1d8", "vout": [{"scriptPubKey": {"reqSigs": 1, "hex": "a9140e8e8cd162b2481e0c97c8d565efcaa05ae01a1d87", "addresses": ["331z9nJVkzNaUJjCworxC9Rckh7nwe9emm"], "asm": "OP_HASH160 0e8e8cd162b2481e0c97c8d565efcaa05ae01a1d OP_EQUAL", "type": "scripthash"}, "value": 0.17364581, "n": 0}], "hex": "020000000001031488f63150f14f8f9dbbb8cefdacad2ff878c357cf61b2aafcd8d4552b32fbbc0200000017160014a9c0bf125426a3dc149f228f450991e696a4b08cfdffffff161a7c1a4cf142c2b8d7a5b0f08bd009b1c289dbe2f30bf26b1e0add587260430100000017160014947124a94b1e963562fb1f147c278726f9199ee4fdffffffb43054a310a81f0b6026db39f537208013151e53f5394c51623156e61d9e3138010000001716001435c8f816545e47061369d32190355a645a163285fdffffff0165f608010000000017a9140e8e8cd162b2481e0c97c8d565efcaa05ae01a1d8702483045022100f4f93f2e556b71979f305182fe0b8242736405df3330321e23ddca5b09d78818022049e1a9a0d32a0dc3ce17283051403ce0f847e27089c0956de5fe1a5c4ba5c1820121028e2d91e4791c9f39f6c3cff7e31237a31a1334436bccec44eeac17dbc7b7d42f024830450221008283a33dd25a963d49132f811aa3a4b50a9f871f5ce76b65b6af8d7e5beaf39502203bf95fa59ea87c3222dc674283720becb210b316170009cb6c147e12fb46883c012102caa60dead9332681eafc2c98af9c9d10b84bd2fa8730027e846ef7e53e1066f302483045022100d9aa2379472d7df62dc0ee2493c5994eee36de8a0cfc0ca3fb98d13cead4e306022069e429bacdafdba606d5ffb2c5485d0533cc8528a8ddde1cc2ce68586463b685012103c6d126da55533e1c07b724c1ce81360d08d462063a346c42f2967c7809e601d215490800", "vin": [{"txinwitness": ["3045022100f4f93f2e556b71979f305182fe0b8242736405df3330321e23ddca5b09d78818022049e1a9a0d32a0dc3ce17283051403ce0f847e27089c0956de5fe1a5c4ba5c18201", "028e2d91e4791c9f39f6c3cff7e31237a31a1334436bccec44eeac17dbc7b7d42f"], "sequence": 4294967293, "scriptSig": {"hex": "160014a9c0bf125426a3dc149f228f450991e696a4b08c", "asm": "0014a9c0bf125426a3dc149f228f450991e696a4b08c"}, "vout": 2, "txid": "bcfb322b55d4d8fcaab261cf57c378f82fadacfdceb8bb9d8f4ff15031f68814"}, {"txinwitness": ["30450221008283a33dd25a963d49132f811aa3a4b50a9f871f5ce76b65b6af8d7e5beaf39502203bf95fa59ea87c3222dc674283720becb210b316170009cb6c147e12fb46883c01", "02caa60dead9332681eafc2c98af9c9d10b84bd2fa8730027e846ef7e53e1066f3"], "sequence": 4294967293, "scriptSig": {"hex": "160014947124a94b1e963562fb1f147c278726f9199ee4", "asm": "0014947124a94b1e963562fb1f147c278726f9199ee4"}, "vout": 1, "txid": "43607258dd0a1e6bf20bf3e2db89c2b109d08bf0b0a5d7b8c242f14c1a7c1a16"}, {"txinwitness": ["3045022100d9aa2379472d7df62dc0ee2493c5994eee36de8a0cfc0ca3fb98d13cead4e306022069e429bacdafdba606d5ffb2c5485d0533cc8528a8ddde1cc2ce68586463b68501", "03c6d126da55533e1c07b724c1ce81360d08d462063a346c42f2967c7809e601d2"], "sequence": 4294967293, "scriptSig": {"hex": "16001435c8f816545e47061369d32190355a645a163285", "asm": "001435c8f816545e47061369d32190355a645a163285"}, "vout": 1, "txid": "38319e1de6563162514c39f5531e1513802037f539db26600b1fa810a35430b4"}], "txid": "9448801a4cc2b536303972e06637b420cd37ba461a0d7b3f6ad28ef861d1ff8a", "blocktime": 1537874412, "version": 2, "confirmations": 11467, "time": 1537874412, "locktime": 542997, "vsize": 316, "size": 560}