{"hash": "944ba3b26cfed9f624946207e08e4b35ca360448ef6252b3dcf50b6b110f2940", "blockhash": "00000000000000000017f5eb5941039fbcee6240d03bc1f2f8e35350df66a1d8", "vout": [{"scriptPubKey": {"reqSigs": 1, "hex": "76a91467ad4987d6425017f89725f325afabb10fdc213a88ac", "addresses": ["1ATCBy3Zs2M3YMUcXU22eFbEXDkT2bzi5j"], "asm": "OP_DUP OP_HASH160 67ad4987d6425017f89725f325afabb10fdc213a OP_EQUALVERIFY OP_CHECKSIG", "type": "pubkeyhash"}, "value": 0.03101202, "n": 0}, {"scriptPubKey": {"reqSigs": 1, "hex": "76a914a80fd4fda49a9c60d745ff360a403df6fe9c83d088ac", "addresses": ["1GKdVFispWNLjfBGsawmRpU4QFtRArymPJ"], "asm": "OP_DUP OP_HASH160 a80fd4fda49a9c60d745ff360a403df6fe9c83d0 OP_EQUALVERIFY OP_CHECKSIG", "type": "pubkeyhash"}, "value": 0.16016262, "n": 1}, {"scriptPubKey": {"reqSigs": 1, "hex": "76a9141645b3600dd708ef19fb84743d81a81e39ba6ee488ac", "addresses": ["132mN7JkPk2XLqgMNsX623h54zJJjyMNJM"], "asm": "OP_DUP OP_HASH160 1645b3600dd708ef19fb84743d81a81e39ba6ee4 OP_EQUALVERIFY OP_CHECKSIG", "type": "pubkeyhash"}, "value": 2.57303827, "n": 2}], "hex": "01000000012c4372dcceb273d505d68323014005aaa2598555193f3afabdf86f5db146b1c9010000008a47304402204f5253c78f7a76f9259f5e0847d87e257855048b7b9108781471470cc67c91f1022065a46e300ed0e985eb7b0697c31d5a9526b401508c32a862436805b6b682f32801410429c39d6b198ca9599231b5289688757acc87dade5bd64ab31b3290b0dc0887bf0c8213653070c1a5ac8a7b3c97bd6dee47e0fa82221d9c8282d1259451839165ffffffff0312522f00000000001976a91467ad4987d6425017f89725f325afabb10fdc213a88ac8663f400000000001976a914a80fd4fda49a9c60d745ff360a403df6fe9c83d088ac1325560f000000001976a9141645b3600dd708ef19fb84743d81a81e39ba6ee488ac00000000", "vin": [{"sequence": 4294967295, "scriptSig": {"hex": "47304402204f5253c78f7a76f9259f5e0847d87e257855048b7b9108781471470cc67c91f1022065a46e300ed0e985eb7b0697c31d5a9526b401508c32a862436805b6b682f32801410429c39d6b198ca9599231b5289688757acc87dade5bd64ab31b3290b0dc0887bf0c8213653070c1a5ac8a7b3c97bd6dee47e0fa82221d9c8282d1259451839165", "asm": "304402204f5253c78f7a76f9259f5e0847d87e257855048b7b9108781471470cc67c91f1022065a46e300ed0e985eb7b0697c31d5a9526b401508c32a862436805b6b682f328[ALL] 0429c39d6b198ca9599231b5289688757acc87dade5bd64ab31b3290b0dc0887bf0c8213653070c1a5ac8a7b3c97bd6dee47e0fa82221d9c8282d1259451839165"}, "vout": 1, "txid": "c9b146b15d6ff8bdfa3a3f19558559a2aa0540012383d605d573b2cedc72432c"}], "txid": "944ba3b26cfed9f624946207e08e4b35ca360448ef6252b3dcf50b6b110f2940", "blocktime": 1537874412, "version": 1, "confirmations": 11466, "time": 1537874412, "locktime": 0, "vsize": 291, "size": 291}