{"hash": "945ae4a5feb2ca6d0f647e6301535ebe9178979a2176bfa0b4abd4576806281f", "blockhash": "0000000000000000001f76057863aec43deb6fa401d9628bb513d65a8098bfab", "vout": [{"scriptPubKey": {"reqSigs": 1, "hex": "a9142ea7f3d7dee531688a141831e69aba5a0e997d1487", "addresses": ["35wiCuuyHTv74reDMxC4Yb94Za1AVCqQza"], "asm": "OP_HASH160 2ea7f3d7dee531688a141831e69aba5a0e997d14 OP_EQUAL", "type": "scripthash"}, "value": 0.001719, "n": 0}, {"scriptPubKey": {"reqSigs": 1, "hex": "76a9140c57404d255c346bae4fa44fa2608776de870e1988ac", "addresses": ["128Fdcxnvi8VkxHHtLgeFzXZaDEkJX6Xpv"], "asm": "OP_DUP OP_HASH160 0c57404d255c346bae4fa44fa2608776de870e19 OP_EQUALVERIFY OP_CHECKSIG", "type": "pubkeyhash"}, "value": 0.01199143, "n": 1}], "hex": "01000000017e88014239d541aa39d023701f779027062e34ce4eb95eaf1e34bd37ce8ab90f010000006a473044022002c05585f37aab9bdc2bd862a11630688b59140790454d324e29f6a9f995c94402200ba0215b0e72d8e32702ad2d3f0e8551ce540123165dd2b1bd7c4c476115ebad012103263061217d273be682d8511ba91e40328f8ad7fdf88748658319a3b92e6ca92cffffffff027c9f02000000000017a9142ea7f3d7dee531688a141831e69aba5a0e997d1487274c1200000000001976a9140c57404d255c346bae4fa44fa2608776de870e1988ac00000000", "vin": [{"sequence": 4294967295, "scriptSig": {"hex": "473044022002c05585f37aab9bdc2bd862a11630688b59140790454d324e29f6a9f995c94402200ba0215b0e72d8e32702ad2d3f0e8551ce540123165dd2b1bd7c4c476115ebad012103263061217d273be682d8511ba91e40328f8ad7fdf88748658319a3b92e6ca92c", "asm": "3044022002c05585f37aab9bdc2bd862a11630688b59140790454d324e29f6a9f995c94402200ba0215b0e72d8e32702ad2d3f0e8551ce540123165dd2b1bd7c4c476115ebad[ALL] 03263061217d273be682d8511ba91e40328f8ad7fdf88748658319a3b92e6ca92c"}, "vout": 1, "txid": "0fb98ace37bd341eaf5eb94ece342e062790771f7023d039aa41d5394201887e"}], "txid": "945ae4a5feb2ca6d0f647e6301535ebe9178979a2176bfa0b4abd4576806281f", "blocktime": 1537873891, "version": 1, "confirmations": 11475, "time": 1537873891, "locktime": 0, "vsize": 223, "size": 223}