{"hash": "48162da1844d39379c7d1007f7863d7cd174322c32c9ccc7478ad9ffa98fee65", "blockhash": "00000000000000000024a2167bbff67b0be802c0b01cdd79e6331c2be6459f87", "vout": [{"scriptPubKey": {"reqSigs": 1, "hex": "a914b8945e43b482e0044ff3f0870ca73294e655e8dd87", "addresses": ["3JWyzeNrSW7UgQAzhiPDKz6QLTHSESpXth"], "asm": "OP_HASH160 b8945e43b482e0044ff3f0870ca73294e655e8dd OP_EQUAL", "type": "scripthash"}, "value": 0.01266934, "n": 0}, {"scriptPubKey": {"reqSigs": 1, "hex": "76a9143c8814cc6e1d220d52c713d787761915fccb3e5488ac", "addresses": ["16X4ZbptRduSA2mWGH2PZsnZXWXCv5spGt"], "asm": "OP_DUP OP_HASH160 3c8814cc6e1d220d52c713d787761915fccb3e54 OP_EQUALVERIFY OP_CHECKSIG", "type": "pubkeyhash"}, "value": 0.00391699, "n": 1}], "hex": "0200000000010189f6ca75998307210664d3f8af42879c3421de82d39dfe19a9259ce6f0e44b8a0000000017160014bd7836098d8c267d733e124c408d078b55093ec6feffffff02f65413000000000017a914b8945e43b482e0044ff3f0870ca73294e655e8dd8713fa0500000000001976a9143c8814cc6e1d220d52c713d787761915fccb3e5488ac02483045022100a6f0aed36b9eb2c37ee5dea548e701e3c865248ad4741dc0b06daf2bf70ec52102203ca0e3e1c02db6a2f37165a5d00b6b3fd59cb75977e3aee6c62161422355286e012103306c23f1188d7af942e3158bd6ab8a095591e0eb81e5efec7293774ce3d3f8960d490800", "vin": [{"txinwitness": ["3045022100a6f0aed36b9eb2c37ee5dea548e701e3c865248ad4741dc0b06daf2bf70ec52102203ca0e3e1c02db6a2f37165a5d00b6b3fd59cb75977e3aee6c62161422355286e01", "03306c23f1188d7af942e3158bd6ab8a095591e0eb81e5efec7293774ce3d3f896"], "sequence": 4294967294, "scriptSig": {"hex": "160014bd7836098d8c267d733e124c408d078b55093ec6", "asm": "0014bd7836098d8c267d733e124c408d078b55093ec6"}, "vout": 0, "txid": "8a4be4f0e69c25a919fe9dd382de21349c8742aff8d364062107839975caf689"}], "txid": "945a38bd02a09dbdd857956dba39d1d883ad6dbbf72e032f3c50fe7a2d835d75", "blocktime": 1537870564, "version": 2, "confirmations": 11515, "time": 1537870564, "locktime": 542989, "vsize": 168, "size": 250}