{"hash": "8341354b02bcd8564d2c75ef7d58d2b141d0db6577d409eb84bb78ae795394b1", "blockhash": "0000000000000000000dcc0f55137456b1a82d3642486a52398922ac4d620174", "vout": [{"scriptPubKey": {"reqSigs": 1, "hex": "a91445bee8853faf429065f8ff5f0f888c57c56aa9e587", "addresses": ["383oFKX7eghFk2Esr4LjLLABQ3ReG4xHJz"], "asm": "OP_HASH160 45bee8853faf429065f8ff5f0f888c57c56aa9e5 OP_EQUAL", "type": "scripthash"}, "value": 0.000655, "n": 0}, {"scriptPubKey": {"reqSigs": 1, "hex": "00146b0c78b5219085ee890abfb2141bae6ae354bf5b", "addresses": ["bc1qdvx83dfpjzz7azg2h7epgxawdt34f06mnq6kyl"], "asm": "0 6b0c78b5219085ee890abfb2141bae6ae354bf5b", "type": "witness_v0_keyhash"}, "value": 1.127e-05, "n": 1}], "hex": "01000000000101622c604644f79f81295724cc38291f40bbdb02d5d7676ba063ae624c935b053f0000000000ffffffff02dcff00000000000017a91445bee8853faf429065f8ff5f0f888c57c56aa9e58767040000000000001600146b0c78b5219085ee890abfb2141bae6ae354bf5b024830450221009e0bea495a12c6c305336d5a10bf1129e7563795168573d8d01f4315a4571e0702202b46d95f3427bb9efb970a458bf682a9904100c1474abc940409a9a5048feee601210373a410e8070424646872b000fa244fc9ebb6e2e4c595867fbaa425fbb9ed9cf600000000", "vin": [{"txinwitness": ["30450221009e0bea495a12c6c305336d5a10bf1129e7563795168573d8d01f4315a4571e0702202b46d95f3427bb9efb970a458bf682a9904100c1474abc940409a9a5048feee601", "0373a410e8070424646872b000fa244fc9ebb6e2e4c595867fbaa425fbb9ed9cf6"], "sequence": 4294967295, "scriptSig": {"hex": "", "asm": ""}, "vout": 0, "txid": "3f055b934c62ae63a06b67d7d502dbbb401f2938cc245729819ff74446602c62"}], "txid": "945cae91590965f3d8e2c69d116253ccec6494c634b70384cfea2cec315cf487", "blocktime": 1537870268, "version": 1, "confirmations": 11518, "time": 1537870268, "locktime": 0, "vsize": 142, "size": 224}