{"hash": "945d0532e4288fee6dcf74384f6eed2267f1db5a15503871ad40c63ac1c251b0", "blockhash": "00000000000000000018f53835495a110e01622372bf6ae95dc86f2b0ab887b0", "vout": [{"scriptPubKey": {"type": "nulldata", "hex": "6a146f6d6e69000000000000001f00000007c0d5ad00", "asm": "OP_RETURN 6f6d6e69000000000000001f00000007c0d5ad00"}, "value": 0.0, "n": 0}, {"scriptPubKey": {"reqSigs": 1, "hex": "76a91421bf0ff4e41361c0fb8ed61a2bcc8ed53306fbad88ac", "addresses": ["145SBaHTMxExRV6EEMPPnyVDYYwJqqHfgk"], "asm": "OP_DUP OP_HASH160 21bf0ff4e41361c0fb8ed61a2bcc8ed53306fbad OP_EQUALVERIFY OP_CHECKSIG", "type": "pubkeyhash"}, "value": 0.01139616, "n": 1}, {"scriptPubKey": {"reqSigs": 1, "hex": "76a914967e760686f5b2464d55baba8cce7030b4c33aed88ac", "addresses": ["1EijrSc5MKtXxcK2bGT6NTF5EovuzZnrYw"], "asm": "OP_DUP OP_HASH160 967e760686f5b2464d55baba8cce7030b4c33aed OP_EQUALVERIFY OP_CHECKSIG", "type": "pubkeyhash"}, "value": 5.46e-06, "n": 2}], "hex": "01000000014d634f259a94a61c2c13175f9ed5ec810d9cc3f1dac047e7b1ccb33c1d7aff95000000006b483045022100bf8403b8be2ce1a969e66931120b862dfc9059c3a09e99511b51d35e214af1700220680e9c0ea1c6819e1e20d5c597f45171810c28b1508976939db633dc0dbad741012103e3cf8dcc8eef3eab6dca3c8c8c204d9f75217dbec181ef71b68177ae15cdbf21feffffff030000000000000000166a146f6d6e69000000000000001f00000007c0d5ad00a0631100000000001976a91421bf0ff4e41361c0fb8ed61a2bcc8ed53306fbad88ac22020000000000001976a914967e760686f5b2464d55baba8cce7030b4c33aed88ac0e490800", "vin": [{"sequence": 4294967294, "scriptSig": {"hex": "483045022100bf8403b8be2ce1a969e66931120b862dfc9059c3a09e99511b51d35e214af1700220680e9c0ea1c6819e1e20d5c597f45171810c28b1508976939db633dc0dbad741012103e3cf8dcc8eef3eab6dca3c8c8c204d9f75217dbec181ef71b68177ae15cdbf21", "asm": "3045022100bf8403b8be2ce1a969e66931120b862dfc9059c3a09e99511b51d35e214af1700220680e9c0ea1c6819e1e20d5c597f45171810c28b1508976939db633dc0dbad741[ALL] 03e3cf8dcc8eef3eab6dca3c8c8c204d9f75217dbec181ef71b68177ae15cdbf21"}, "vout": 0, "txid": "95ff7a1d3cb3ccb1e747c0daf1c39c0d81ecd59e5f17132c1ca6949a254f634d"}], "txid": "945d0532e4288fee6dcf74384f6eed2267f1db5a15503871ad40c63ac1c251b0", "blocktime": 1537870928, "version": 1, "confirmations": 11512, "time": 1537870928, "locktime": 542990, "vsize": 257, "size": 257}