{"hash": "945fabc56e797bdb13c402caeb188970be4572cb2bc7506edb9c3ad714e81061", "blockhash": "00000000000000000024a2167bbff67b0be802c0b01cdd79e6331c2be6459f87", "vout": [{"scriptPubKey": {"reqSigs": 1, "hex": "a91408d2627fcfb9c59716d539a1fc4b5f83128771bd87", "addresses": ["32VfMsJ8xamFK5jZkJGLVdZxRbfFimYLsD"], "asm": "OP_HASH160 08d2627fcfb9c59716d539a1fc4b5f83128771bd OP_EQUAL", "type": "scripthash"}, "value": 0.000103, "n": 0}, {"scriptPubKey": {"reqSigs": 1, "hex": "76a9140a42a665fdb6f80b9c16d06b24b9cdb57a8c0e3688ac", "addresses": ["1wFbqnKA1B2rUp53x2nYVNeujDcTFYsPn"], "asm": "OP_DUP OP_HASH160 0a42a665fdb6f80b9c16d06b24b9cdb57a8c0e36 OP_EQUALVERIFY OP_CHECKSIG", "type": "pubkeyhash"}, "value": 0.00082113, "n": 1}], "hex": "01000000014d15b1219a636704fdcba650bd9bbbaea6bcfa87c99e1f7f8c2fbc3e6061f86e010000006a473044022066808907eaa43f3b0bd3451bf43b46e3370a2837fb10950c0127fb5bce211c5c02204638872177611d79334e9c1a990834e7eaf667069a5b6ae2ec127033a5d979580121028d12f966b978cb48498666f402cd1506532939c0117b7aae30cc338e91ecf608ffffffff023c2800000000000017a91408d2627fcfb9c59716d539a1fc4b5f83128771bd87c1400100000000001976a9140a42a665fdb6f80b9c16d06b24b9cdb57a8c0e3688ac00000000", "vin": [{"sequence": 4294967295, "scriptSig": {"hex": "473044022066808907eaa43f3b0bd3451bf43b46e3370a2837fb10950c0127fb5bce211c5c02204638872177611d79334e9c1a990834e7eaf667069a5b6ae2ec127033a5d979580121028d12f966b978cb48498666f402cd1506532939c0117b7aae30cc338e91ecf608", "asm": "3044022066808907eaa43f3b0bd3451bf43b46e3370a2837fb10950c0127fb5bce211c5c02204638872177611d79334e9c1a990834e7eaf667069a5b6ae2ec127033a5d97958[ALL] 028d12f966b978cb48498666f402cd1506532939c0117b7aae30cc338e91ecf608"}, "vout": 1, "txid": "6ef861603ebc2f8c7f1f9ec987fabca6aebb9bbd50a6cbfd0467639a21b1154d"}], "txid": "945fabc56e797bdb13c402caeb188970be4572cb2bc7506edb9c3ad714e81061", "blocktime": 1537870564, "version": 1, "confirmations": 11515, "time": 1537870564, "locktime": 0, "vsize": 223, "size": 223}