{"hash": "9460ff655dbc799f33f79fa693d6aa1325adbfa1ae609739c7e654fc4deb707c", "blockhash": "00000000000000000017f5eb5941039fbcee6240d03bc1f2f8e35350df66a1d8", "vout": [{"scriptPubKey": {"type": "nulldata", "hex": "6a146f6d6e69000000000000003800000000000729fe", "asm": "OP_RETURN 6f6d6e69000000000000003800000000000729fe"}, "value": 0.0, "n": 0}, {"scriptPubKey": {"reqSigs": 1, "hex": "76a914561d0591ff75e52944a2a793551828db96edafca88ac", "addresses": ["18rKsxwrdHxrfPjzAqNuxYr37wNNrxgrqy"], "asm": "OP_DUP OP_HASH160 561d0591ff75e52944a2a793551828db96edafca OP_EQUALVERIFY OP_CHECKSIG", "type": "pubkeyhash"}, "value": 0.49394371, "n": 1}, {"scriptPubKey": {"reqSigs": 1, "hex": "76a914a8cf40b1d7843cd051fdcf1d4e09185eebb78ef788ac", "addresses": ["1GPaoQ7aVPapkqHfUz1wcx8vRFLXBYg52u"], "asm": "OP_DUP OP_HASH160 a8cf40b1d7843cd051fdcf1d4e09185eebb78ef7 OP_EQUALVERIFY OP_CHECKSIG", "type": "pubkeyhash"}, "value": 5.46e-06, "n": 2}], "hex": "010000000178aa7dbc8a795f6f37f6dbfa6c66777ac12171af8e65116604faab8517de9d54000000006a47304402201420ad904081d56bab2c9f1c0f8fd4d72e83c3feb5cd3befd329c9738f86c40202206546a0b1145b2fb0415ef124fee4b53da5f431803057c04f411dbd1f0390b9aa012103e4e63979270921650f85910d4831da23f8ba6a3e61988a1886d263f30208f696feffffff030000000000000000166a146f6d6e69000000000000003800000000000729fec3b2f102000000001976a914561d0591ff75e52944a2a793551828db96edafca88ac22020000000000001976a914a8cf40b1d7843cd051fdcf1d4e09185eebb78ef788ac15490800", "vin": [{"sequence": 4294967294, "scriptSig": {"hex": "47304402201420ad904081d56bab2c9f1c0f8fd4d72e83c3feb5cd3befd329c9738f86c40202206546a0b1145b2fb0415ef124fee4b53da5f431803057c04f411dbd1f0390b9aa012103e4e63979270921650f85910d4831da23f8ba6a3e61988a1886d263f30208f696", "asm": "304402201420ad904081d56bab2c9f1c0f8fd4d72e83c3feb5cd3befd329c9738f86c40202206546a0b1145b2fb0415ef124fee4b53da5f431803057c04f411dbd1f0390b9aa[ALL] 03e4e63979270921650f85910d4831da23f8ba6a3e61988a1886d263f30208f696"}, "vout": 0, "txid": "549dde1785abfa046611658eaf7121c17a77666cfadbf6376f5f798abc7daa78"}], "txid": "9460ff655dbc799f33f79fa693d6aa1325adbfa1ae609739c7e654fc4deb707c", "blocktime": 1537874412, "version": 1, "confirmations": 11467, "time": 1537874412, "locktime": 542997, "vsize": 256, "size": 256}