{"hash": "8806e1ceca6f941c3f1efc7314b2da33fab1eca0262df8fabbf1a765b49445e7", "blockhash": "0000000000000000000baef3f32e3676a92c3b2e5da21b426e4f302fc371ce76", "vout": [{"scriptPubKey": {"reqSigs": 1, "hex": "76a914e48894fa77d888b6c91c11aae9ac70564b587f9688ac", "addresses": ["1MqNgcoqUjmaBdxJmg7RrHtLhZ1bdWFAB3"], "asm": "OP_DUP OP_HASH160 e48894fa77d888b6c91c11aae9ac70564b587f96 OP_EQUALVERIFY OP_CHECKSIG", "type": "pubkeyhash"}, "value": 0.00330569, "n": 0}, {"scriptPubKey": {"reqSigs": 1, "hex": "a914f5342287aaa57f5c05756dbd5ef14091cc70030f87", "addresses": ["3Q3XvwKWsx3ocmCXheK6pAo5ieooFx75hh"], "asm": "OP_HASH160 f5342287aaa57f5c05756dbd5ef14091cc70030f OP_EQUAL", "type": "scripthash"}, "value": 0.07480373, "n": 1}], "hex": "010000000001012495c8f7f40b661c77d9bd8e70e7e5c838fcfca9a8e63eccaf1b3a537047cfee01000000232200204fd7968ffe15cb453352a1e9ee2915eff8b6d6252d5a351f9092b82ca10eb12cffffffff02490b0500000000001976a914e48894fa77d888b6c91c11aae9ac70564b587f9688ac352472000000000017a914f5342287aaa57f5c05756dbd5ef14091cc70030f870400483045022100a38a30fbb6919eaaaecbd51b951ce9f0478c21a285e0b2053f19283b62fa71f4022060cafe4ffbe19d0b46a55ee3a031a1772d5c33ab97f564a38ab5fb865f15958801483045022100c55444cd7367e6f352b73338156506543fce3b04c9ca6b0833f66d802a88276302200b6e5b9e3d7f2ca37a8a9a179698e6c1ec8c6cd03c3cb0e8cf451775af1668880147522103b70e79262cbb7310fe069dea7c473b53276b75c67fb841ff66279f152a3fe0172103871fc2ca08e6950b38867e8e6a0e94ee625223d3aa0df5c65f414c6d784467e252ae00000000", "vin": [{"txinwitness": ["", "3045022100a38a30fbb6919eaaaecbd51b951ce9f0478c21a285e0b2053f19283b62fa71f4022060cafe4ffbe19d0b46a55ee3a031a1772d5c33ab97f564a38ab5fb865f15958801", "3045022100c55444cd7367e6f352b73338156506543fce3b04c9ca6b0833f66d802a88276302200b6e5b9e3d7f2ca37a8a9a179698e6c1ec8c6cd03c3cb0e8cf451775af16688801", "522103b70e79262cbb7310fe069dea7c473b53276b75c67fb841ff66279f152a3fe0172103871fc2ca08e6950b38867e8e6a0e94ee625223d3aa0df5c65f414c6d784467e252ae"], "sequence": 4294967295, "scriptSig": {"hex": "2200204fd7968ffe15cb453352a1e9ee2915eff8b6d6252d5a351f9092b82ca10eb12c", "asm": "00204fd7968ffe15cb453352a1e9ee2915eff8b6d6252d5a351f9092b82ca10eb12c"}, "vout": 1, "txid": "eecf4770533a1bafcc3ee6a8a9fcfc38c8e5e7708ebdd9771c660bf4f7c89524"}], "txid": "94610d977fd987e4b499e623430a3ab0b16cf31df363315652fe99ae0ce8ec77", "blocktime": 1537876114, "version": 1, "confirmations": 11462, "time": 1537876114, "locktime": 0, "vsize": 208, "size": 374}