{"hash": "946210fab46059db855421b860c6f21aa04b1a7cc9feb23a6611b6c974d03de5", "blockhash": "0000000000000000000e13cef7c366c0283d82e591d1acd082e914b08063cdf1", "vout": [{"scriptPubKey": {"reqSigs": 1, "hex": "76a9142c0ddcd6bc8ae191e6bb0f288ebae55605a8866388ac", "addresses": ["151wLdoKYE9q8yJnmYUqVV9WxN9XTtGC1E"], "asm": "OP_DUP OP_HASH160 2c0ddcd6bc8ae191e6bb0f288ebae55605a88663 OP_EQUALVERIFY OP_CHECKSIG", "type": "pubkeyhash"}, "value": 0.00942926, "n": 0}, {"scriptPubKey": {"reqSigs": 1, "hex": "76a914e8cea30989bd15530f819b766684b00dc7ba7cfa88ac", "addresses": ["1NDyJtNTjmwk5xPNhjgAMu4HDHigtobu1s"], "asm": "OP_DUP OP_HASH160 e8cea30989bd15530f819b766684b00dc7ba7cfa OP_EQUALVERIFY OP_CHECKSIG", "type": "pubkeyhash"}, "value": 5.03349413, "n": 1}], "hex": "0200000005078074e926f02bc7cbe08d2292278c9ef91e97e6bb4a243dcffe9ea881664b3c430000006a47304402206dca47e74edfe059c9277421e38a954e686202cf43f3e57476889ee0daed4c8e02200a83b6793fdb9122837dbcb14a9e4bec9eb6e46a4d213825b6467a2c0c0d8afd012103f43692d6b6a64c2caffed4366dbb807f986dd4fca67215ec970453c2a47308a6feffffff0ef9f4b18781fa987ee009793c33300221a956c5f334dc1509854dbaa810bd5a000000006b483045022100a46e25432ebaf2aa8975f33c9a00ea8e19c8b851c935f59a5f2a9406096a7a4102201d1f21f6ac92f1c8a574173a21cb01d2b37f0490c6be5fe5306506ba9403bf9d0121031c862e2aa4eff0f67011c63dd1cef3135f4a43dcc38b7648f75216c4523b0516feffffff163dcc08a8bca1ec21de01f9802e5bc68ebc05849d99cb38cf75e554f46eb3d1000000006a473044022066842f9e18a2e57c5ed498bd70a30ceb26d9fd8f5ea0cb65c589364c4e205c3f0220429962b8f2dde7db8edf3d493c92064a6395de4c78908db0c25ca266308edaf8012102a6cb41507875e834ddd0d909318dc990a58d71696e732ca4023c71bed37e56c6feffffff3fc48b639feb2564944067a7f6a509778ae4e98b2855e614bcfe0a834804277f000000006b483045022100bccf37ca682b5ee3f6f5ef8ef9d511ad6baef53addab0e3c566c7b0f16054dad02207b370e8e553d3b1a02cb48d10d447c89b85ade5c84702012c24b23f823aabdfa012102b3d5d3a1eca59166883919c2152c2c4e82cc534412f9607a90c1ecdbd0a2dcb6feffffffcc84081cedfa675b1f8b5fdb836344ea6907dd0f8e7c0d345e3c07a1d0881682010000006a4730440220130e8f12acad946f7e82fda868c8897d6aa9a4a36ce2196db48feb2ad2eefb5802205cbb7fec801c84beb23135d38e5f368e50e09ec7780fe3bd4cd3b0b0813c92170121038bc8171c80342c309e397eba8ca01d2ffc13659b3858b10e8461b5db099ce553feffffff024e630e00000000001976a9142c0ddcd6bc8ae191e6bb0f288ebae55605a8866388aca580001e000000001976a914e8cea30989bd15530f819b766684b00dc7ba7cfa88ac10490800", "vin": [{"sequence": 4294967294, "scriptSig": {"hex": "47304402206dca47e74edfe059c9277421e38a954e686202cf43f3e57476889ee0daed4c8e02200a83b6793fdb9122837dbcb14a9e4bec9eb6e46a4d213825b6467a2c0c0d8afd012103f43692d6b6a64c2caffed4366dbb807f986dd4fca67215ec970453c2a47308a6", "asm": "304402206dca47e74edfe059c9277421e38a954e686202cf43f3e57476889ee0daed4c8e02200a83b6793fdb9122837dbcb14a9e4bec9eb6e46a4d213825b6467a2c0c0d8afd[ALL] 03f43692d6b6a64c2caffed4366dbb807f986dd4fca67215ec970453c2a47308a6"}, "vout": 67, "txid": "3c4b6681a89efecf3d244abbe6971ef99e8c2792228de0cbc72bf026e9748007"}, {"sequence": 4294967294, "scriptSig": {"hex": "483045022100a46e25432ebaf2aa8975f33c9a00ea8e19c8b851c935f59a5f2a9406096a7a4102201d1f21f6ac92f1c8a574173a21cb01d2b37f0490c6be5fe5306506ba9403bf9d0121031c862e2aa4eff0f67011c63dd1cef3135f4a43dcc38b7648f75216c4523b0516", "asm": "3045022100a46e25432ebaf2aa8975f33c9a00ea8e19c8b851c935f59a5f2a9406096a7a4102201d1f21f6ac92f1c8a574173a21cb01d2b37f0490c6be5fe5306506ba9403bf9d[ALL] 031c862e2aa4eff0f67011c63dd1cef3135f4a43dcc38b7648f75216c4523b0516"}, "vout": 0, "txid": "5abd10a8ba4d850915dc34f3c556a9210230333c7909e07e98fa8187b1f4f90e"}, {"sequence": 4294967294, "scriptSig": {"hex": "473044022066842f9e18a2e57c5ed498bd70a30ceb26d9fd8f5ea0cb65c589364c4e205c3f0220429962b8f2dde7db8edf3d493c92064a6395de4c78908db0c25ca266308edaf8012102a6cb41507875e834ddd0d909318dc990a58d71696e732ca4023c71bed37e56c6", "asm": "3044022066842f9e18a2e57c5ed498bd70a30ceb26d9fd8f5ea0cb65c589364c4e205c3f0220429962b8f2dde7db8edf3d493c92064a6395de4c78908db0c25ca266308edaf8[ALL] 02a6cb41507875e834ddd0d909318dc990a58d71696e732ca4023c71bed37e56c6"}, "vout": 0, "txid": "d1b36ef454e575cf38cb999d8405bc8ec65b2e80f901de21eca1bca808cc3d16"}, {"sequence": 4294967294, "scriptSig": {"hex": "483045022100bccf37ca682b5ee3f6f5ef8ef9d511ad6baef53addab0e3c566c7b0f16054dad02207b370e8e553d3b1a02cb48d10d447c89b85ade5c84702012c24b23f823aabdfa012102b3d5d3a1eca59166883919c2152c2c4e82cc534412f9607a90c1ecdbd0a2dcb6", "asm": "3045022100bccf37ca682b5ee3f6f5ef8ef9d511ad6baef53addab0e3c566c7b0f16054dad02207b370e8e553d3b1a02cb48d10d447c89b85ade5c84702012c24b23f823aabdfa[ALL] 02b3d5d3a1eca59166883919c2152c2c4e82cc534412f9607a90c1ecdbd0a2dcb6"}, "vout": 0, "txid": "7f270448830afebc14e655288be9e48a7709a5f6a76740946425eb9f638bc43f"}, {"sequence": 4294967294, "scriptSig": {"hex": "4730440220130e8f12acad946f7e82fda868c8897d6aa9a4a36ce2196db48feb2ad2eefb5802205cbb7fec801c84beb23135d38e5f368e50e09ec7780fe3bd4cd3b0b0813c92170121038bc8171c80342c309e397eba8ca01d2ffc13659b3858b10e8461b5db099ce553", "asm": "30440220130e8f12acad946f7e82fda868c8897d6aa9a4a36ce2196db48feb2ad2eefb5802205cbb7fec801c84beb23135d38e5f368e50e09ec7780fe3bd4cd3b0b0813c9217[ALL] 038bc8171c80342c309e397eba8ca01d2ffc13659b3858b10e8461b5db099ce553"}, "vout": 1, "txid": "821688d0a1073c5e340d7c8e0fdd0769ea446383db5f8b1f5b67faed1c0884cc"}], "txid": "946210fab46059db855421b860c6f21aa04b1a7cc9feb23a6611b6c974d03de5", "blocktime": 1537871767, "version": 2, "confirmations": 11490, "time": 1537871767, "locktime": 542992, "vsize": 815, "size": 815}