{"hash": "b07f1539b66e1611d881de653f9d07a46ea4f1208e0fecf0fffa43a313d7a3d6", "blockhash": "0000000000000000001f0ddff1eddb255c1121bcd4da4f1bc9a0da00cae72433", "vout": [{"scriptPubKey": {"reqSigs": 1, "hex": "a91485d5d58b0ceea16ddf06c4e7c4f0f48ad34a7fc687", "addresses": ["3DtfxWoRrdS2UaAttBCBYunmoEtbAMTW6J"], "asm": "OP_HASH160 85d5d58b0ceea16ddf06c4e7c4f0f48ad34a7fc6 OP_EQUAL", "type": "scripthash"}, "value": 0.4869121, "n": 0}, {"scriptPubKey": {"reqSigs": 1, "hex": "76a91489bd24c4992ed070a167f6b193dc93e8f324d9e188ac", "addresses": ["1DZJADCAd3UfRKHDvUu8bohcARrPkaGaWg"], "asm": "OP_DUP OP_HASH160 89bd24c4992ed070a167f6b193dc93e8f324d9e1 OP_EQUALVERIFY OP_CHECKSIG", "type": "pubkeyhash"}, "value": 0.02489939, "n": 1}, {"scriptPubKey": {"reqSigs": 1, "hex": "76a9141a4d5f20e1ad86e8956710f4675e8278d421786988ac", "addresses": ["13Q5Fru1zBbiFhGygcurPzSJZqD7NamdUV"], "asm": "OP_DUP OP_HASH160 1a4d5f20e1ad86e8956710f4675e8278d4217869 OP_EQUALVERIFY OP_CHECKSIG", "type": "pubkeyhash"}, "value": 0.01606133, "n": 2}, {"scriptPubKey": {"reqSigs": 1, "hex": "76a9147c91d33399730046d8482538175b4ca876a670c788ac", "addresses": ["1CMfUtPajzVXyk8eX6CkwRQ38CLNr7BEi6"], "asm": "OP_DUP OP_HASH160 7c91d33399730046d8482538175b4ca876a670c7 OP_EQUALVERIFY OP_CHECKSIG", "type": "pubkeyhash"}, "value": 0.02248082, "n": 3}], "hex": "020000000001013cd11362ec43d5e9f8c08c564f15619e710352656a5dc8641155fdb520fcf85d0300000017160014eeead4faf5f2fda8dc76ba1c3dbec1a1acd5ab66feffffff040af8e6020000000017a91485d5d58b0ceea16ddf06c4e7c4f0f48ad34a7fc68753fe2500000000001976a91489bd24c4992ed070a167f6b193dc93e8f324d9e188acf5811800000000001976a9141a4d5f20e1ad86e8956710f4675e8278d421786988ac924d2200000000001976a9147c91d33399730046d8482538175b4ca876a670c788ac02483045022100c76556305aa3346e32a9cc1b5aab5493aa81ad0631f1ffcae08e70957351280302203662df1bd63feaa8bb77ee03895a401dd30f14dcc97e99e47c289c6e887e88100121031ed4461115b468ebde753fcfb0ad029ce55026d2432fa45b1e9366ede72d539511490800", "vin": [{"txinwitness": ["3045022100c76556305aa3346e32a9cc1b5aab5493aa81ad0631f1ffcae08e70957351280302203662df1bd63feaa8bb77ee03895a401dd30f14dcc97e99e47c289c6e887e881001", "031ed4461115b468ebde753fcfb0ad029ce55026d2432fa45b1e9366ede72d5395"], "sequence": 4294967294, "scriptSig": {"hex": "160014eeead4faf5f2fda8dc76ba1c3dbec1a1acd5ab66", "asm": "0014eeead4faf5f2fda8dc76ba1c3dbec1a1acd5ab66"}, "vout": 3, "txid": "5df8fc20b5fd551164c85d6a655203719e61154f568cc0f8e9d543ec6213d13c"}], "txid": "946c0d1de614fc10a7d62fe79e6806ba3730d2cd1dba5f72b4dd6284badad323", "blocktime": 1537872018, "version": 2, "confirmations": 11489, "time": 1537872018, "locktime": 542993, "vsize": 236, "size": 318}