{"hash": "d5b35736a01d81c7207e78be72ef73e375312a8f41513b80da8cf225626ada7b", "blockhash": "00000000000000000017f5eb5941039fbcee6240d03bc1f2f8e35350df66a1d8", "vout": [{"scriptPubKey": {"reqSigs": 1, "hex": "a914c5087c2e3142bbc63075d9f601a25722eceb0bb987", "addresses": ["3KeqCtTaqqAZ2YbAK323PgXdTQRR6swNvm"], "asm": "OP_HASH160 c5087c2e3142bbc63075d9f601a25722eceb0bb9 OP_EQUAL", "type": "scripthash"}, "value": 12.28669194, "n": 0}, {"scriptPubKey": {"reqSigs": 1, "hex": "a914fef3d383e333859f58507c162fb361a93fb83f0c87", "addresses": ["3Qw5ecTnBkZK9MAWhpEKT8HG8PNy7mkGaE"], "asm": "OP_HASH160 fef3d383e333859f58507c162fb361a93fb83f0c OP_EQUAL", "type": "scripthash"}, "value": 0.0790996, "n": 1}], "hex": "02000000000101b2998895475b4a624dc50653cf87c315cef2c3fd07af6478533e9650aea7e66e0000000017160014701699e05cb92425c15e09f934b3c3c120de9bf1feffffff020a013c490000000017a914c5087c2e3142bbc63075d9f601a25722eceb0bb98748b278000000000017a914fef3d383e333859f58507c162fb361a93fb83f0c8702473044022077d4d698bf5546cce78568a7a6162f7293daab1f4ea744794aa237b262d47ad602200dd63bb615f0827ff71aaf260eb5f72dbf1bd71706562e26adbbc40765c8cf9a012102573626b0f08db36593cb8e523f89c5ed032291a9b56c538985a9629752c338ff15490800", "vin": [{"txinwitness": ["3044022077d4d698bf5546cce78568a7a6162f7293daab1f4ea744794aa237b262d47ad602200dd63bb615f0827ff71aaf260eb5f72dbf1bd71706562e26adbbc40765c8cf9a01", "02573626b0f08db36593cb8e523f89c5ed032291a9b56c538985a9629752c338ff"], "sequence": 4294967294, "scriptSig": {"hex": "160014701699e05cb92425c15e09f934b3c3c120de9bf1", "asm": "0014701699e05cb92425c15e09f934b3c3c120de9bf1"}, "vout": 0, "txid": "6ee6a7ae50963e537864af07fdc3f2ce15c387cf5306c54d624a5b47958899b2"}], "txid": "946dded87edfe62bd02478e2823ddcd12331db95b5329842f3a0e1ccd7a24582", "blocktime": 1537874412, "version": 2, "confirmations": 11466, "time": 1537874412, "locktime": 542997, "vsize": 166, "size": 247}