{"hash": "63c84d0d9faa663de3bc90996051a790002df9792c44b43ff258c73291e8e716", "blockhash": "00000000000000000004ffacab907a6b429b9a5745fa0b75af4234bf69dd7176", "vout": [{"scriptPubKey": {"reqSigs": 1, "hex": "a914b73441d1f8723531cbcaeed0e78bf7f6027da9da87", "addresses": ["3JPiBY4fFDQrZNcGDSXC5r8EpSYMZ735EF"], "asm": "OP_HASH160 b73441d1f8723531cbcaeed0e78bf7f6027da9da OP_EQUAL", "type": "scripthash"}, "value": 0.020042, "n": 0}, {"scriptPubKey": {"reqSigs": 1, "hex": "a9144d293bcdc8b44f39bc0c92eb41ca5b5ef1480d4687", "addresses": ["38j1MGxv8M2EzE5QVWzavCTicpwByECqCv"], "asm": "OP_HASH160 4d293bcdc8b44f39bc0c92eb41ca5b5ef1480d46 OP_EQUAL", "type": "scripthash"}, "value": 8.91858219, "n": 1}], "hex": "02000000000101dcb97dd5785961bf35f356f9c9fbe6b7aae0f93ad9d519f0ce7f91265a0be57201000000171600143ff816c3a02e013cd7ea4b2c204674768da8a76dffffffff02e8941e000000000017a914b73441d1f8723531cbcaeed0e78bf7f6027da9da872bad28350000000017a9144d293bcdc8b44f39bc0c92eb41ca5b5ef1480d46870247304402204e867ba186e81c1aa477890429ddbefcae7e69a4665b8426b9ec37d0101d39c302202cfef1548121f3f5b32bda5c738c9e7adc03957ff449328a4717a20e0bf3b15a01210306f6e5c3dfeb94059c2c436c189768eff8f584c499fad5bb8e2f7ab65449bdeb00000000", "vin": [{"txinwitness": ["304402204e867ba186e81c1aa477890429ddbefcae7e69a4665b8426b9ec37d0101d39c302202cfef1548121f3f5b32bda5c738c9e7adc03957ff449328a4717a20e0bf3b15a01", "0306f6e5c3dfeb94059c2c436c189768eff8f584c499fad5bb8e2f7ab65449bdeb"], "sequence": 4294967295, "scriptSig": {"hex": "1600143ff816c3a02e013cd7ea4b2c204674768da8a76d", "asm": "00143ff816c3a02e013cd7ea4b2c204674768da8a76d"}, "vout": 1, "txid": "72e50b5a26917fcef019d5d93af9e0aab7e6fbc9f956f335bf615978d57db9dc"}], "txid": "94738dfb1e5433a5242f423b799d390b33108ec9a68661f0a5d3250a7e427c32", "blocktime": 1537875543, "version": 2, "confirmations": 11464, "time": 1537875543, "locktime": 0, "vsize": 166, "size": 247}