{"hash": "bfb9aa562f1ebb98226ce9727b6c33b223c3e9e6b7e2fbfe718158325a4c972c", "blockhash": "00000000000000000017f5eb5941039fbcee6240d03bc1f2f8e35350df66a1d8", "vout": [{"scriptPubKey": {"reqSigs": 1, "hex": "76a9145b99a7a290988ddc8d7868e36a191fdf99d0257688ac", "addresses": ["19MLZahET5Y7FAxsFqak9kcFqeV45Ckfht"], "asm": "OP_DUP OP_HASH160 5b99a7a290988ddc8d7868e36a191fdf99d02576 OP_EQUALVERIFY OP_CHECKSIG", "type": "pubkeyhash"}, "value": 0.04984356, "n": 0}, {"scriptPubKey": {"reqSigs": 1, "hex": "0014991879aff35f0b1d39efa1db506d007e41b33d75", "addresses": ["bc1qnyv8ntlntu936w0058d4qmgq0eqmx0t4w7dcxr"], "asm": "0 991879aff35f0b1d39efa1db506d007e41b33d75", "type": "witness_v0_keyhash"}, "value": 0.00015141, "n": 1}], "hex": "01000000000101f30703857b86a1e7c1affe19cdc547ba5e19457ff45d6bc1dcf5a965b42ba173010000001716001444550ea451684f7c95104848a64ad5f626dc30d2ffffffff02240e4c00000000001976a9145b99a7a290988ddc8d7868e36a191fdf99d0257688ac253b000000000000160014991879aff35f0b1d39efa1db506d007e41b33d75024730440220280b87e8ce44b3a513dc11204e7f9460f6f536ad1ae18d3cb6b830bbff1ead7e022066422c4d4bdaf8a6e3c18c4a292970a1655074cc1866f2b758339ca5d4ca53ea01210375411710c7c97172cb496fe8ef83ac7cb3014abdd72c48dc1767687b578dfffa00000000", "vin": [{"txinwitness": ["30440220280b87e8ce44b3a513dc11204e7f9460f6f536ad1ae18d3cb6b830bbff1ead7e022066422c4d4bdaf8a6e3c18c4a292970a1655074cc1866f2b758339ca5d4ca53ea01", "0375411710c7c97172cb496fe8ef83ac7cb3014abdd72c48dc1767687b578dfffa"], "sequence": 4294967295, "scriptSig": {"hex": "16001444550ea451684f7c95104848a64ad5f626dc30d2", "asm": "001444550ea451684f7c95104848a64ad5f626dc30d2"}, "vout": 1, "txid": "73a12bb465a9f5dcc16b5df47f45195eba47c5cd19feafc1e7a1867b850307f3"}], "txid": "9476be1adca4a6ee47ff1bbb3d62dde0b9786799e131b121b2d3e3b6007ef247", "blocktime": 1537874412, "version": 1, "confirmations": 11468, "time": 1537874412, "locktime": 0, "vsize": 167, "size": 248}