{"hash": "c548bda2a81635dd63037939e568243ec7511b4bf7c670c82a7cd518271821a2", "blockhash": "0000000000000000000e13cef7c366c0283d82e591d1acd082e914b08063cdf1", "vout": [{"scriptPubKey": {"reqSigs": 1, "hex": "a914eaa5818f8cb512142377fcbf0c395f668e525cbd87", "addresses": ["3P5iJzo4ZK5H8VjFpA97Nv7381zogD6fvw"], "asm": "OP_HASH160 eaa5818f8cb512142377fcbf0c395f668e525cbd OP_EQUAL", "type": "scripthash"}, "value": 0.01000513, "n": 0}, {"scriptPubKey": {"reqSigs": 1, "hex": "76a9147141cea1c0e1b4643f475550ba5266be2e15106488ac", "addresses": ["1BKrC3DQkZn3QwmW1hBLikZ9PQLG3o3LEW"], "asm": "OP_DUP OP_HASH160 7141cea1c0e1b4643f475550ba5266be2e151064 OP_EQUALVERIFY OP_CHECKSIG", "type": "pubkeyhash"}, "value": 0.0032296, "n": 1}], "hex": "020000000001026f5975d2b57acba555f761fce05855261c58e481504b6447c102fc24ad6559a20d00000017160014af02419def362fb1900bcd2e55ab11f33e27507bfeffffffbadad74d45d38886fa15eed3fb0419a2065b63edfb53659ec89c4afc41cd1c0f000000001716001490568440a18dc39def76125431b8b21c6272141efeffffff0241440f000000000017a914eaa5818f8cb512142377fcbf0c395f668e525cbd8790ed0400000000001976a9147141cea1c0e1b4643f475550ba5266be2e15106488ac0248304502210090b523fefb0f165c923788dedbf30c40199b46d389b664ebf35139d674fec61e022061695ad63a3efc54bfeba0016b6b50725a0186960682b57a8c7bb2a4ac2953e90121033d2cd52d53f566ac3dad8677e328ff27d639f62c46fd60d9894837546bebb3e5024830450221009534edec5d669dfd5fae022eb06830c5c5c0e9e0e48db1ff4398b0f77033fa9902207421cfd25f0beff46ed73fe9d614dbdc55a4b7e60bd561f5ba1c77016572be39012102c770e91aa2ef864ca570a305e403daa86e4490baac0a344954e256690e29220110490800", "vin": [{"txinwitness": ["304502210090b523fefb0f165c923788dedbf30c40199b46d389b664ebf35139d674fec61e022061695ad63a3efc54bfeba0016b6b50725a0186960682b57a8c7bb2a4ac2953e901", "033d2cd52d53f566ac3dad8677e328ff27d639f62c46fd60d9894837546bebb3e5"], "sequence": 4294967294, "scriptSig": {"hex": "160014af02419def362fb1900bcd2e55ab11f33e27507b", "asm": "0014af02419def362fb1900bcd2e55ab11f33e27507b"}, "vout": 13, "txid": "a25965ad24fc02c147644b5081e4581c265558e0fc61f755a5cb7ab5d275596f"}, {"txinwitness": ["30450221009534edec5d669dfd5fae022eb06830c5c5c0e9e0e48db1ff4398b0f77033fa9902207421cfd25f0beff46ed73fe9d614dbdc55a4b7e60bd561f5ba1c77016572be3901", "02c770e91aa2ef864ca570a305e403daa86e4490baac0a344954e256690e292201"], "sequence": 4294967294, "scriptSig": {"hex": "16001490568440a18dc39def76125431b8b21c6272141e", "asm": "001490568440a18dc39def76125431b8b21c6272141e"}, "vout": 0, "txid": "0f1ccd41fc4a9cc89e6553fbed635b06a21904fbd3ee15fa8688d3454dd7daba"}], "txid": "947a7eaf6a05b0f2a8a12434b98b1b96ad36002d3be681d91d1fae244600ced6", "blocktime": 1537871767, "version": 2, "confirmations": 11495, "time": 1537871767, "locktime": 542992, "vsize": 259, "size": 422}