{"hash": "5985f334fb66a2afdc0dd7493d317ed86502fe6bccebd0cbf5cdccb1ea032841", "blockhash": "0000000000000000001f76057863aec43deb6fa401d9628bb513d65a8098bfab", "vout": [{"scriptPubKey": {"reqSigs": 1, "hex": "a91430897cc6c9d69f6a2c2f1c651d51f22219f1a4f687", "addresses": ["367f4YWz1VCFaqBqwbTrzwi2b1h2U3w1AF"], "asm": "OP_HASH160 30897cc6c9d69f6a2c2f1c651d51f22219f1a4f6 OP_EQUAL", "type": "scripthash"}, "value": 11.45000838, "n": 0}, {"scriptPubKey": {"reqSigs": 1, "hex": "a91469f37464c6e3c695f1f04e2fc15f0d28686798d487", "addresses": ["3BMEXDGysmkGWdBbeSUJmvqJXoosxjoWoP"], "asm": "OP_HASH160 69f37464c6e3c695f1f04e2fc15f0d28686798d4 OP_EQUAL", "type": "scripthash"}, "value": 0.16399807, "n": 1}], "hex": "0100000000010136e9222bdccfb529b7c795f698ffedbb9b99a5aaad2a3fcc5b3e394b93caa7ac0000000023220020bcf9f822194145acea0f3235f4107b5bf1a91b6b9f8489f63bf79ec29b360913ffffffff0286533f440000000017a91430897cc6c9d69f6a2c2f1c651d51f22219f1a4f687bf3dfa000000000017a91469f37464c6e3c695f1f04e2fc15f0d28686798d487040048304502210087f16cf79dd6a3a06ecc2f96fdf0a3bbdfa8fd9d533884cb2abbfb2232329f33022028a62686319768a9a4db7ec554ec0ccdbd5fc7c417deea99f1df3993e0452c2101483045022100a6b150035ef8bfb069f5050518481c211c8310c56394fdff8fa42dd2cf9570a2022035eafac0a8b47d5ed940c9a43ae9466cd3caf120246537c2154a2946afe1d41e01695221026c8f72b9e63db63907115e65d4da86eaae595b22fdc85ec75301bb4adbf203582103806535be3e3920e5eedee92de5714188fd6a784f2bf7b04f87de0b9c3ae1ecdb21024b23bfdce2afcae7e28c42f7f79aa100f22931712c52d7414a526ba494d44a2553ae00000000", "vin": [{"txinwitness": ["", "304502210087f16cf79dd6a3a06ecc2f96fdf0a3bbdfa8fd9d533884cb2abbfb2232329f33022028a62686319768a9a4db7ec554ec0ccdbd5fc7c417deea99f1df3993e0452c2101", "3045022100a6b150035ef8bfb069f5050518481c211c8310c56394fdff8fa42dd2cf9570a2022035eafac0a8b47d5ed940c9a43ae9466cd3caf120246537c2154a2946afe1d41e01", "5221026c8f72b9e63db63907115e65d4da86eaae595b22fdc85ec75301bb4adbf203582103806535be3e3920e5eedee92de5714188fd6a784f2bf7b04f87de0b9c3ae1ecdb21024b23bfdce2afcae7e28c42f7f79aa100f22931712c52d7414a526ba494d44a2553ae"], "sequence": 4294967295, "scriptSig": {"hex": "220020bcf9f822194145acea0f3235f4107b5bf1a91b6b9f8489f63bf79ec29b360913", "asm": "0020bcf9f822194145acea0f3235f4107b5bf1a91b6b9f8489f63bf79ec29b360913"}, "vout": 0, "txid": "aca7ca934b393e5bcc3f2aadaaa5999bbbedff98f695c7b729b5cfdc2b22e936"}], "txid": "94839f3e2714e77c9ebc423090070e3404461b6694b19325a2f174e0cba9985b", "blocktime": 1537873891, "version": 1, "confirmations": 11478, "time": 1537873891, "locktime": 0, "vsize": 214, "size": 406}