{"hash": "05aeeb4532ded35787309f24d13948944a2e8563b5e11d9d9b867a1d41328f52", "blockhash": "00000000000000000004ffacab907a6b429b9a5745fa0b75af4234bf69dd7176", "vout": [{"scriptPubKey": {"reqSigs": 1, "hex": "76a914bd62b39ed41e3b46ec90183ac3df41e37f13158588ac", "addresses": ["1JGNxAeNfzzaoJrzuheL6bdoxa7MPsUCWf"], "asm": "OP_DUP OP_HASH160 bd62b39ed41e3b46ec90183ac3df41e37f131585 OP_EQUALVERIFY OP_CHECKSIG", "type": "pubkeyhash"}, "value": 0.13657877, "n": 0}, {"scriptPubKey": {"reqSigs": 1, "hex": "76a914237298b71058d249beaabca7f356e659d61a9b8888ac", "addresses": ["14ERw2FGoRXK2NVfB5D1orJy7Ykbs6uG44"], "asm": "OP_DUP OP_HASH160 237298b71058d249beaabca7f356e659d61a9b88 OP_EQUALVERIFY OP_CHECKSIG", "type": "pubkeyhash"}, "value": 0.01001438, "n": 1}], "hex": "0200000000010412b82a4ac31c86030e504a2fa6a45fb59b7cd11a9074d9592ab621ad71e5a3fa010000006b483045022100e93f38e799480da8ff4ba00358598a6c5e44a1cb88d2b8c69dc31f2c0582190402206e5efa4abb5805e956a606d8b9aeaac648d9a9a84b038b24078b9c08941ef9fa012102ea4134d732f6548c0801553f86dd9f14e7f6c8f0526267792fa91a44c691eeb4feffffff22b686834e402529c027eeac6a45ff426f9c3318cbf659df879b9aca1f5a6d62010000001716001469675bd3d2d34146d60a13bad41ba1f561ea1031feffffff424df8421c640ebfeeb400a379a8d3e34906f28e456d3c723b58ca7c1e2299da020000006a47304402202af2d5cb9720e9cf033ff5a813636857f9dea0e7406e6ac681ebd7a286a0b7330220420c01616781756cf58c97c8bcb15d10ecd0c3a5e7e2d2e6159a3f26832ba7be01210330b8c49806512d3db6e19987d7f70e16954cfca7bc0c286905821dc0f98414fefefffffff826a23226038e255ff6a2b500f73be4776458792f54d752317e563450f42d2b020000006a473044022007dcf64fafa8512d4b0834fa2408ae907154833bae9db28c8e2211a7900a9cb702206beaefc04c58e819f8af538368fc2ef9e70aec7065c05c46cdcaf502e64749a3012103e02ae3c597abb12ec6b85a257d9646a884e9b5c46a86c35a941185c0ef501d2ffeffffff021567d000000000001976a914bd62b39ed41e3b46ec90183ac3df41e37f13158588acde470f00000000001976a914237298b71058d249beaabca7f356e659d61a9b8888ac000247304402206dabf2e5649a8ec9116f65f5aaa48d5e061de3aac10c37984ac0e5b9208f792902203d82ca6060406016ea9e7ad6a3231d88b10363fc577f975e967d95e926f82a9601210338d09e639df4284327f0936f84a1fbdad404ec8d7c9af514b72becc7146d6687000016490800", "vin": [{"sequence": 4294967294, "scriptSig": {"hex": "483045022100e93f38e799480da8ff4ba00358598a6c5e44a1cb88d2b8c69dc31f2c0582190402206e5efa4abb5805e956a606d8b9aeaac648d9a9a84b038b24078b9c08941ef9fa012102ea4134d732f6548c0801553f86dd9f14e7f6c8f0526267792fa91a44c691eeb4", "asm": "3045022100e93f38e799480da8ff4ba00358598a6c5e44a1cb88d2b8c69dc31f2c0582190402206e5efa4abb5805e956a606d8b9aeaac648d9a9a84b038b24078b9c08941ef9fa[ALL] 02ea4134d732f6548c0801553f86dd9f14e7f6c8f0526267792fa91a44c691eeb4"}, "vout": 1, "txid": "faa3e571ad21b62a59d974901ad17c9bb55fa4a62f4a500e03861cc34a2ab812"}, {"txinwitness": ["304402206dabf2e5649a8ec9116f65f5aaa48d5e061de3aac10c37984ac0e5b9208f792902203d82ca6060406016ea9e7ad6a3231d88b10363fc577f975e967d95e926f82a9601", "0338d09e639df4284327f0936f84a1fbdad404ec8d7c9af514b72becc7146d6687"], "sequence": 4294967294, "scriptSig": {"hex": "16001469675bd3d2d34146d60a13bad41ba1f561ea1031", "asm": "001469675bd3d2d34146d60a13bad41ba1f561ea1031"}, "vout": 1, "txid": "626d5a1fca9a9b87df59f6cb18339c6f42ff456aacee27c02925404e8386b622"}, {"sequence": 4294967294, "scriptSig": {"hex": "47304402202af2d5cb9720e9cf033ff5a813636857f9dea0e7406e6ac681ebd7a286a0b7330220420c01616781756cf58c97c8bcb15d10ecd0c3a5e7e2d2e6159a3f26832ba7be01210330b8c49806512d3db6e19987d7f70e16954cfca7bc0c286905821dc0f98414fe", "asm": "304402202af2d5cb9720e9cf033ff5a813636857f9dea0e7406e6ac681ebd7a286a0b7330220420c01616781756cf58c97c8bcb15d10ecd0c3a5e7e2d2e6159a3f26832ba7be[ALL] 0330b8c49806512d3db6e19987d7f70e16954cfca7bc0c286905821dc0f98414fe"}, "vout": 2, "txid": "da99221e7cca583b723c6d458ef20649e3d3a879a300b4eebf0e641c42f84d42"}, {"sequence": 4294967294, "scriptSig": {"hex": "473044022007dcf64fafa8512d4b0834fa2408ae907154833bae9db28c8e2211a7900a9cb702206beaefc04c58e819f8af538368fc2ef9e70aec7065c05c46cdcaf502e64749a3012103e02ae3c597abb12ec6b85a257d9646a884e9b5c46a86c35a941185c0ef501d2f", "asm": "3044022007dcf64fafa8512d4b0834fa2408ae907154833bae9db28c8e2211a7900a9cb702206beaefc04c58e819f8af538368fc2ef9e70aec7065c05c46cdcaf502e64749a3[ALL] 03e02ae3c597abb12ec6b85a257d9646a884e9b5c46a86c35a941185c0ef501d2f"}, "vout": 2, "txid": "2b2df45034567e3152d7542f79586477e43bf700b5a2f65f258e032632a226f8"}], "txid": "9484795c302b9a90b65fa480c3527cf427711a5a273a83985af4f2a1b223c900", "blocktime": 1537875543, "version": 2, "confirmations": 11464, "time": 1537875543, "locktime": 542998, "vsize": 612, "size": 696}