{"hash": "9485d58721adf0106d89f2843b73e81a6179bbfe3d5f2fc96272b131ffc7c6e2", "blockhash": "0000000000000000001cda96e906b7601b7a6fb1a3b62bca570a9e5d8f4b3de1", "vout": [{"scriptPubKey": {"reqSigs": 1, "hex": "76a9141a70ff4f2f9ffe9ad64372a73d1611566445609588ac", "addresses": ["13QowBK3P9Y3VQPbjWiw6X3M39RKoqt4oJ"], "asm": "OP_DUP OP_HASH160 1a70ff4f2f9ffe9ad64372a73d16115664456095 OP_EQUALVERIFY OP_CHECKSIG", "type": "pubkeyhash"}, "value": 0.00026211, "n": 0}, {"scriptPubKey": {"reqSigs": 1, "hex": "76a9146d2989c3a3893bfdecfda0fe1764144468b92c4d88ac", "addresses": ["1AxCR2kXndGuE4ygfQDBAPQWYMJ9XxiXmX"], "asm": "OP_DUP OP_HASH160 6d2989c3a3893bfdecfda0fe1764144468b92c4d OP_EQUALVERIFY OP_CHECKSIG", "type": "pubkeyhash"}, "value": 0.03122829, "n": 1}], "hex": "010000000434a93187ff6df19e8ff6d6afaa9e1a2b1837ff7bb840737c440bbf980944d012000000006a47304402207c856107f0158416e3d7c5e7a782279335c666cabaa8b74653e6b041b58587e1022053ddde59add4e679f3e9996164a5c304c2ade883f249e2804cf8a526932d1708012102b0725bb46eaa85d6ba4492f16400ecda360c17411a5c259e773b62e474fd5d8fffffffffd74d5bb0ab1d704a82480e7c1d98904e2c871932ad442ff2cb354bb73dfddc40000000006b483045022100e89d78d559fd333c1617886529b82782a47bed09f0fbdeb65c443b449957abb102202e02c12db63497f8901217bf4106c4dd65cbcfd91ee4ee35b6b4a6cafea84ad60121038373e01ea16ab22980529f2c3385ba50377473c7ddb1447cfe1e9f08af9cc72dffffffff9990c2d2ff031b8fa2c421eaf5c7c8266145e86297dcda0faefb4383a55afb54010000006a47304402205551022cb19fd7729afde572acd8ee7d47b8a76b2dbf6869d6fe2e29e6066f810220198e6d294ffb5f78cedebf735bd507923ecf6574ca6bdeebf225c31ab336b15a012103e86359c8569f2d97177e4b97ef11278449737949e0dbf1603ba2cdf9fe11ba22fffffffff851cada3dd8473db612e880969fb610008e54d1cc588f40ce950515d8da7994000000006b483045022100e63a9e438ec96ed886adc1cd673c395f1cb3ce95eef30e2765b62c172823068102203c2acf5225b471ffea778cce7280edf9864fd40f679e45273b0406bc051db86e01210368b5444cb30c8a9712ef6e9a4ce281ffd1308c766ce189d1506404c6508c7193ffffffff0263660000000000001976a9141a70ff4f2f9ffe9ad64372a73d1611566445609588ac8da62f00000000001976a9146d2989c3a3893bfdecfda0fe1764144468b92c4d88ac00000000", "vin": [{"sequence": 4294967295, "scriptSig": {"hex": "47304402207c856107f0158416e3d7c5e7a782279335c666cabaa8b74653e6b041b58587e1022053ddde59add4e679f3e9996164a5c304c2ade883f249e2804cf8a526932d1708012102b0725bb46eaa85d6ba4492f16400ecda360c17411a5c259e773b62e474fd5d8f", "asm": "304402207c856107f0158416e3d7c5e7a782279335c666cabaa8b74653e6b041b58587e1022053ddde59add4e679f3e9996164a5c304c2ade883f249e2804cf8a526932d1708[ALL] 02b0725bb46eaa85d6ba4492f16400ecda360c17411a5c259e773b62e474fd5d8f"}, "vout": 0, "txid": "12d0440998bf0b447c7340b87bff37182b1a9eaaafd6f68f9ef16dff8731a934"}, {"sequence": 4294967295, "scriptSig": {"hex": "483045022100e89d78d559fd333c1617886529b82782a47bed09f0fbdeb65c443b449957abb102202e02c12db63497f8901217bf4106c4dd65cbcfd91ee4ee35b6b4a6cafea84ad60121038373e01ea16ab22980529f2c3385ba50377473c7ddb1447cfe1e9f08af9cc72d", "asm": "3045022100e89d78d559fd333c1617886529b82782a47bed09f0fbdeb65c443b449957abb102202e02c12db63497f8901217bf4106c4dd65cbcfd91ee4ee35b6b4a6cafea84ad6[ALL] 038373e01ea16ab22980529f2c3385ba50377473c7ddb1447cfe1e9f08af9cc72d"}, "vout": 0, "txid": "40dcfd3db74b35cbf22f44ad3219872c4e90981d7c0e48824a701dabb05b4dd7"}, {"sequence": 4294967295, "scriptSig": {"hex": "47304402205551022cb19fd7729afde572acd8ee7d47b8a76b2dbf6869d6fe2e29e6066f810220198e6d294ffb5f78cedebf735bd507923ecf6574ca6bdeebf225c31ab336b15a012103e86359c8569f2d97177e4b97ef11278449737949e0dbf1603ba2cdf9fe11ba22", "asm": "304402205551022cb19fd7729afde572acd8ee7d47b8a76b2dbf6869d6fe2e29e6066f810220198e6d294ffb5f78cedebf735bd507923ecf6574ca6bdeebf225c31ab336b15a[ALL] 03e86359c8569f2d97177e4b97ef11278449737949e0dbf1603ba2cdf9fe11ba22"}, "vout": 1, "txid": "54fb5aa58343fbae0fdadc9762e8456126c8c7f5ea21c4a28f1b03ffd2c29099"}, {"sequence": 4294967295, "scriptSig": {"hex": "483045022100e63a9e438ec96ed886adc1cd673c395f1cb3ce95eef30e2765b62c172823068102203c2acf5225b471ffea778cce7280edf9864fd40f679e45273b0406bc051db86e01210368b5444cb30c8a9712ef6e9a4ce281ffd1308c766ce189d1506404c6508c7193", "asm": "3045022100e63a9e438ec96ed886adc1cd673c395f1cb3ce95eef30e2765b62c172823068102203c2acf5225b471ffea778cce7280edf9864fd40f679e45273b0406bc051db86e[ALL] 0368b5444cb30c8a9712ef6e9a4ce281ffd1308c766ce189d1506404c6508c7193"}, "vout": 0, "txid": "9479dad8150595ce408f58ccd1548e0010b69f9680e812b63d47d83ddaca51f8"}], "txid": "9485d58721adf0106d89f2843b73e81a6179bbfe3d5f2fc96272b131ffc7c6e2", "blocktime": 1537873282, "version": 1, "confirmations": 11484, "time": 1537873282, "locktime": 0, "vsize": 668, "size": 668}