{"hash": "94884dcca0d85d2f88fad5a6b0af2bae80e4d169884ebbfe8946c0d89a98f77c", "blockhash": "0000000000000000001cda96e906b7601b7a6fb1a3b62bca570a9e5d8f4b3de1", "vout": [{"scriptPubKey": {"reqSigs": 1, "hex": "76a9140111b8e70876706f6a61641c9c028916067da41188ac", "addresses": ["16euZK6mevXpJSLTVcTiuQMFtrRHf3iAm"], "asm": "OP_DUP OP_HASH160 0111b8e70876706f6a61641c9c028916067da411 OP_EQUALVERIFY OP_CHECKSIG", "type": "pubkeyhash"}, "value": 0.00067699, "n": 0}, {"scriptPubKey": {"reqSigs": 1, "hex": "a9147986650939b1062f76e22fcded4cfe489155855287", "addresses": ["3CmagfH25a8XB13mqtLQwcsW3qpaGnQQpg"], "asm": "OP_HASH160 7986650939b1062f76e22fcded4cfe4891558552 OP_EQUAL", "type": "scripthash"}, "value": 0.00469, "n": 1}], "hex": "01000000024101f720eeb0f8216c50d05a593f04d68a3aa2d1f4b8b4a9eb7a2ebccfb9ec16010000006a47304402207562b8087eb7eca43bac9943fa28bd9942387f13a357731df6a52666b30eed9e022079f9eaf0fff7009703c45b996d48c7adc20cc6c53bdeb06f7a266231418252730121025f3f92eb6e98f14c9f432963b031a41c5b94a860fd6b8f2fbd80fc1fab2b5370ffffffff22da423b6a7e8f0448956d826f0aba60e35ab0d96e7497bfe6eacef0494dac73000000006b483045022100a6e857ecbc2518271c96d6f2cf807086cebaa1bad78ea4678539e4f722ec6c25022046d6da2b917cb90f16137e0a6a99e50b18d6411c4061e37ad350e6c880815e4301210288eca236da21862a25797263c64175230c589adc4bc36863c070b3c7d71f8e1affffffff0273080100000000001976a9140111b8e70876706f6a61641c9c028916067da41188ac082807000000000017a9147986650939b1062f76e22fcded4cfe48915585528700000000", "vin": [{"sequence": 4294967295, "scriptSig": {"hex": "47304402207562b8087eb7eca43bac9943fa28bd9942387f13a357731df6a52666b30eed9e022079f9eaf0fff7009703c45b996d48c7adc20cc6c53bdeb06f7a266231418252730121025f3f92eb6e98f14c9f432963b031a41c5b94a860fd6b8f2fbd80fc1fab2b5370", "asm": "304402207562b8087eb7eca43bac9943fa28bd9942387f13a357731df6a52666b30eed9e022079f9eaf0fff7009703c45b996d48c7adc20cc6c53bdeb06f7a26623141825273[ALL] 025f3f92eb6e98f14c9f432963b031a41c5b94a860fd6b8f2fbd80fc1fab2b5370"}, "vout": 1, "txid": "16ecb9cfbc2e7aeba9b4b8f4d1a23a8ad6043f595ad0506c21f8b0ee20f70141"}, {"sequence": 4294967295, "scriptSig": {"hex": "483045022100a6e857ecbc2518271c96d6f2cf807086cebaa1bad78ea4678539e4f722ec6c25022046d6da2b917cb90f16137e0a6a99e50b18d6411c4061e37ad350e6c880815e4301210288eca236da21862a25797263c64175230c589adc4bc36863c070b3c7d71f8e1a", "asm": "3045022100a6e857ecbc2518271c96d6f2cf807086cebaa1bad78ea4678539e4f722ec6c25022046d6da2b917cb90f16137e0a6a99e50b18d6411c4061e37ad350e6c880815e43[ALL] 0288eca236da21862a25797263c64175230c589adc4bc36863c070b3c7d71f8e1a"}, "vout": 0, "txid": "73ac4d49f0ceeae6bf97746ed9b05ae360ba0a6f826d9548048f7e6a3b42da22"}], "txid": "94884dcca0d85d2f88fad5a6b0af2bae80e4d169884ebbfe8946c0d89a98f77c", "blocktime": 1537873282, "version": 1, "confirmations": 11485, "time": 1537873282, "locktime": 0, "vsize": 371, "size": 371}