{"hash": "dda1b690ad0bf02dbe9e5343fd91a256fa9617c093adce5a5ca74194a44d3f10", "blockhash": "0000000000000000001f0ddff1eddb255c1121bcd4da4f1bc9a0da00cae72433", "vout": [{"scriptPubKey": {"reqSigs": 1, "hex": "a914c9b97b43501e0d4f128bbc10c6d7ac8ba44f4d1d87", "addresses": ["3L5dwahssKcoF71wK2NXRUHfKwc9qzhGCV"], "asm": "OP_HASH160 c9b97b43501e0d4f128bbc10c6d7ac8ba44f4d1d OP_EQUAL", "type": "scripthash"}, "value": 0.00999373, "n": 0}, {"scriptPubKey": {"reqSigs": 1, "hex": "76a914a00a619b0cb7ccc03845337fdc381adac81c616388ac", "addresses": ["1FbDYznYxkZxFbjUz7D5Z3YZjnrBP9zhps"], "asm": "OP_DUP OP_HASH160 a00a619b0cb7ccc03845337fdc381adac81c6163 OP_EQUALVERIFY OP_CHECKSIG", "type": "pubkeyhash"}, "value": 15.0, "n": 1}], "hex": "0200000000010628c1a03391e4b22e85e8c70533f3e301e11fad0d4e266d3a36e406dccacc5e410600000017160014180f30f423367db35b59799f43ef78b7959f4f93feffffff350d58e2afb86d57491871b7cc04e04685f256c0a7ce8b200e3e30c63ca611b80000000017160014d4a7974d43bc3902868c1da8ad642dfa5e375e6dfeffffff588ea1f15c6b2515cf13a081b3d13f4c3271dc5f21e5edb3972427c1eceb8c9c020000001716001438638e9501c035a52f86de3bdaf3bc47a34c9432feffffff5cbd22528d117e9904941e6809b84ac2501fc0dd3088a009df9f82ca3670fb64060000001716001454e8a312c04c0f6892252f3803333a73e798b625feffffff6828cff05a80a475efe3a191e6c4166dd3bd0f4807e1c2c3683d1423b5a6f1a941090000171600142bc13f9ddf04078fbe9dfce02cd21db5d15a058afefffffff251d501de0a4df7037ffa3241d84d2ed450b5907cce368eae20a1b8077fc0e406000000171600143537d431e8c2319c6938487f5bca0ac72866031cfeffffff02cd3f0f000000000017a914c9b97b43501e0d4f128bbc10c6d7ac8ba44f4d1d87002f6859000000001976a914a00a619b0cb7ccc03845337fdc381adac81c616388ac02483045022100f48b35320849b987f1768805ceffae8b8aa4f0190ce20adfc2e9a5622ae1d93502206d6435028a0cd71b5f8065ca3614fa970748c725c00f34810b4d32881711363b01210282dd41c06d2c1d46ed5e0058d0d305176e3e0f37abd65e36864813f618e2b3b002473044022023cb0bc3b9936122a78c88618bd01938fef77aad749686bb463ddb8239f4d1a902205f50c54f90310a9a69ed3b4f05803952efa3c8bd09fb6fb45f0b94c76eb5bb91012102cd23f6934a4e74029c887b3b136181a80faeef096e1e9edd08c81f4ada56fb28024730440220757b54a98b61b481859e59ce3d839dcddcb582b189c8347138bdb23e5491a07002200681f6d4687755e1a1b754d49a0b635e50121c43660e9572b3d50f14cd472f8f012103e7337bf29787f7052f072767e75fb7c16ada2e66fe878d33503022f46157cd930247304402207689ca7135ab489161cfb52f73d253048eb016ae292c9153eecb2e5e9cf61512022078293a6621301979b5f602dfadf60f2732405d230f1ebe14f27b11b9e0498c7d01210314305e76eb13cef69f451c58412d4b761534ca6384de50952c9b92bea7bf405502473044022047ae903dc547d8c2ab3ea2cb8e3c64bef5e2c3b27d3965b3439f3735be45cabf022035b80bde6d0083112d261cb5e9edf3f7354ce638703b1ce06dc308663b974bf201210357450d34b553d84b40dbc74e6d38ce42f94ac01e9afd2978984c33ca5a0870f702483045022100d054ec58f8310fe9919caf968853fdc083f0234d5d8dbe04c4a9594429994a5802204c8b3e7a5a54edfb48f128894b6ac4b84d7679094242cbc34d7e43438eb67cc1012102f8e9597f63beb67efc567adddb5854b2b15f206203ceb1eab3e8bf6223158a1c11490800", "vin": [{"txinwitness": ["3045022100f48b35320849b987f1768805ceffae8b8aa4f0190ce20adfc2e9a5622ae1d93502206d6435028a0cd71b5f8065ca3614fa970748c725c00f34810b4d32881711363b01", "0282dd41c06d2c1d46ed5e0058d0d305176e3e0f37abd65e36864813f618e2b3b0"], "sequence": 4294967294, "scriptSig": {"hex": "160014180f30f423367db35b59799f43ef78b7959f4f93", "asm": "0014180f30f423367db35b59799f43ef78b7959f4f93"}, "vout": 6, "txid": "415ecccadc06e4363a6d264e0dad1fe101e3f33305c7e8852eb2e49133a0c128"}, {"txinwitness": ["3044022023cb0bc3b9936122a78c88618bd01938fef77aad749686bb463ddb8239f4d1a902205f50c54f90310a9a69ed3b4f05803952efa3c8bd09fb6fb45f0b94c76eb5bb9101", "02cd23f6934a4e74029c887b3b136181a80faeef096e1e9edd08c81f4ada56fb28"], "sequence": 4294967294, "scriptSig": {"hex": "160014d4a7974d43bc3902868c1da8ad642dfa5e375e6d", "asm": "0014d4a7974d43bc3902868c1da8ad642dfa5e375e6d"}, "vout": 0, "txid": "b811a63cc6303e0e208bcea7c056f28546e004ccb7711849576db8afe2580d35"}, {"txinwitness": ["30440220757b54a98b61b481859e59ce3d839dcddcb582b189c8347138bdb23e5491a07002200681f6d4687755e1a1b754d49a0b635e50121c43660e9572b3d50f14cd472f8f01", "03e7337bf29787f7052f072767e75fb7c16ada2e66fe878d33503022f46157cd93"], "sequence": 4294967294, "scriptSig": {"hex": "16001438638e9501c035a52f86de3bdaf3bc47a34c9432", "asm": "001438638e9501c035a52f86de3bdaf3bc47a34c9432"}, "vout": 2, "txid": "9c8cebecc1272497b3ede5215fdc71324c3fd1b381a013cf15256b5cf1a18e58"}, {"txinwitness": ["304402207689ca7135ab489161cfb52f73d253048eb016ae292c9153eecb2e5e9cf61512022078293a6621301979b5f602dfadf60f2732405d230f1ebe14f27b11b9e0498c7d01", "0314305e76eb13cef69f451c58412d4b761534ca6384de50952c9b92bea7bf4055"], "sequence": 4294967294, "scriptSig": {"hex": "16001454e8a312c04c0f6892252f3803333a73e798b625", "asm": "001454e8a312c04c0f6892252f3803333a73e798b625"}, "vout": 6, "txid": "64fb7036ca829fdf09a08830ddc01f50c24ab809681e9404997e118d5222bd5c"}, {"txinwitness": ["3044022047ae903dc547d8c2ab3ea2cb8e3c64bef5e2c3b27d3965b3439f3735be45cabf022035b80bde6d0083112d261cb5e9edf3f7354ce638703b1ce06dc308663b974bf201", "0357450d34b553d84b40dbc74e6d38ce42f94ac01e9afd2978984c33ca5a0870f7"], "sequence": 4294967294, "scriptSig": {"hex": "1600142bc13f9ddf04078fbe9dfce02cd21db5d15a058a", "asm": "00142bc13f9ddf04078fbe9dfce02cd21db5d15a058a"}, "vout": 2369, "txid": "a9f1a6b523143d68c3c2e107480fbdd36d16c4e691a1e3ef75a4805af0cf2868"}, {"txinwitness": ["3045022100d054ec58f8310fe9919caf968853fdc083f0234d5d8dbe04c4a9594429994a5802204c8b3e7a5a54edfb48f128894b6ac4b84d7679094242cbc34d7e43438eb67cc101", "02f8e9597f63beb67efc567adddb5854b2b15f206203ceb1eab3e8bf6223158a1c"], "sequence": 4294967294, "scriptSig": {"hex": "1600143537d431e8c2319c6938487f5bca0ac72866031c", "asm": "00143537d431e8c2319c6938487f5bca0ac72866031c"}, "vout": 6, "txid": "e4c07f07b8a120ae8e36ce7c90b550d42e4dd84132fa7f03f74d0ade01d551f2"}], "txid": "948d06be8659b8f58d589ae176a691eed24afa1850a6ee364a4894d1442fd8bc", "blocktime": 1537872018, "version": 2, "confirmations": 11489, "time": 1537872018, "locktime": 542993, "vsize": 622, "size": 1106}