{"hash": "948e4d00c4040c43fd279b68853aa7145fb55fa2076061d075c1d3a33b2e959a", "blockhash": "0000000000000000001f76057863aec43deb6fa401d9628bb513d65a8098bfab", "vout": [{"scriptPubKey": {"reqSigs": 1, "hex": "76a914933e0fd081b4d1283352b97068337ab9a924878588ac", "addresses": ["1ERYgKxQtZcy3CKJRcUGPx6VisS8x5nXDG"], "asm": "OP_DUP OP_HASH160 933e0fd081b4d1283352b97068337ab9a9248785 OP_EQUALVERIFY OP_CHECKSIG", "type": "pubkeyhash"}, "value": 3e-05, "n": 0}, {"scriptPubKey": {"reqSigs": 1, "hex": "76a914cb1e184e5692a765d23ee4528f37692bad21527188ac", "addresses": ["1KWzDyZ2EwdGLNpyw8RvR8YpzGWCWyJcUo"], "asm": "OP_DUP OP_HASH160 cb1e184e5692a765d23ee4528f37692bad215271 OP_EQUALVERIFY OP_CHECKSIG", "type": "pubkeyhash"}, "value": 0.0100105, "n": 1}], "hex": "01000000025199c98071af957931bb6d3ca6ea3df51db2d48e4ac35fa75a3f1f3e6fdca12d000000006a4730440220728e6de31e1c306818923f4a9440dcc5ecf2f55d28edd60cba6e0ae78fce5914022003b129845a159f55b294038c2ba78ebc75e6d9c863344c1e2e10bb31e418b249012103e77f11d8127241adc1484a5242d48bda63c4840c264212949bb77a606068b0a4feffffffcf688ac7a74238c9afd1c28d9bf02bec57352c7e0fe43ffbe5fa39ff6f9e9383000000006a47304402205673a33c86fdd2184c1ff92c915945d173f2bc882c54e8e02afe4aa6a096c6a6022066054dae3b2d48190d982e51840dd76787817d860a8471496ff5d7286d9b7589012102e3429bd90104417d6cf88b1e75a1199b7ef61c42bbb65490bbf1e09498f9a99dfeffffff02b80b0000000000001976a914933e0fd081b4d1283352b97068337ab9a924878588ac5a460f00000000001976a914cb1e184e5692a765d23ee4528f37692bad21527188ac14490800", "vin": [{"sequence": 4294967294, "scriptSig": {"hex": "4730440220728e6de31e1c306818923f4a9440dcc5ecf2f55d28edd60cba6e0ae78fce5914022003b129845a159f55b294038c2ba78ebc75e6d9c863344c1e2e10bb31e418b249012103e77f11d8127241adc1484a5242d48bda63c4840c264212949bb77a606068b0a4", "asm": "30440220728e6de31e1c306818923f4a9440dcc5ecf2f55d28edd60cba6e0ae78fce5914022003b129845a159f55b294038c2ba78ebc75e6d9c863344c1e2e10bb31e418b249[ALL] 03e77f11d8127241adc1484a5242d48bda63c4840c264212949bb77a606068b0a4"}, "vout": 0, "txid": "2da1dc6f3e1f3f5aa75fc34a8ed4b21df53deaa63c6dbb317995af7180c99951"}, {"sequence": 4294967294, "scriptSig": {"hex": "47304402205673a33c86fdd2184c1ff92c915945d173f2bc882c54e8e02afe4aa6a096c6a6022066054dae3b2d48190d982e51840dd76787817d860a8471496ff5d7286d9b7589012102e3429bd90104417d6cf88b1e75a1199b7ef61c42bbb65490bbf1e09498f9a99d", "asm": "304402205673a33c86fdd2184c1ff92c915945d173f2bc882c54e8e02afe4aa6a096c6a6022066054dae3b2d48190d982e51840dd76787817d860a8471496ff5d7286d9b7589[ALL] 02e3429bd90104417d6cf88b1e75a1199b7ef61c42bbb65490bbf1e09498f9a99d"}, "vout": 0, "txid": "83939e6fff39fae5fb3fe40f7e2c3557ec2bf09b8dc2d1afc93842a7c78a68cf"}], "txid": "948e4d00c4040c43fd279b68853aa7145fb55fa2076061d075c1d3a33b2e959a", "blocktime": 1537873891, "version": 1, "confirmations": 11479, "time": 1537873891, "locktime": 542996, "vsize": 372, "size": 372}