{"hash": "a545399c9dd4570e79b7253eff342321b45b4637f9e0b610c5b1af98cf1452c1", "blockhash": "0000000000000000001f76057863aec43deb6fa401d9628bb513d65a8098bfab", "vout": [{"scriptPubKey": {"reqSigs": 1, "hex": "76a91450b5f5690320714b3a851f46c915ac94ce0db37e88ac", "addresses": ["18Mm348T1T1Sa94YfnVbM69MJCtEy5wzNf"], "asm": "OP_DUP OP_HASH160 50b5f5690320714b3a851f46c915ac94ce0db37e OP_EQUALVERIFY OP_CHECKSIG", "type": "pubkeyhash"}, "value": 0.00018583, "n": 0}, {"scriptPubKey": {"reqSigs": 1, "hex": "a9140136c10502ae5684e49b302f1af10f145f74b6b787", "addresses": ["31oSC7GvQMTZoouyNLBEHVRDhXEFbVhSmh"], "asm": "OP_HASH160 0136c10502ae5684e49b302f1af10f145f74b6b7 OP_EQUAL", "type": "scripthash"}, "value": 0.05885878, "n": 1}], "hex": "01000000000101ce8d8ba4f8973c2e54406b0aa7822d830ea28c72633276c9d5fb4a541c7e46e20100000023220020efd02f10cc1074c68ec89b458572a71ce6bfc8a17595d8fde80232e47279444bffffffff0297480000000000001976a91450b5f5690320714b3a851f46c915ac94ce0db37e88acb6cf59000000000017a9140136c10502ae5684e49b302f1af10f145f74b6b7870400483045022100cad563d5a74e0d3c21609cce8aa55bb3e114890a04616956ced23ab5745fde48022064d1a72b8f5fa3227539b43c32a995a174a6b3b03573c927b8e981c3c925571401483045022100be8899923c338865fa24041da0a0c9637357d7382d3afc5050ac1e7edda51e4502207d40f4d5656dda7f14e94e506688be850cb9fcaa9703394ffaf8ed7fdff98c160147522103f985ea61f461801f3abc09ebed98ce7e20804639a64616f639f492883ea4e8d62103871fc2ca08e6950b38867e8e6a0e94ee625223d3aa0df5c65f414c6d784467e252ae00000000", "vin": [{"txinwitness": ["", "3045022100cad563d5a74e0d3c21609cce8aa55bb3e114890a04616956ced23ab5745fde48022064d1a72b8f5fa3227539b43c32a995a174a6b3b03573c927b8e981c3c925571401", "3045022100be8899923c338865fa24041da0a0c9637357d7382d3afc5050ac1e7edda51e4502207d40f4d5656dda7f14e94e506688be850cb9fcaa9703394ffaf8ed7fdff98c1601", "522103f985ea61f461801f3abc09ebed98ce7e20804639a64616f639f492883ea4e8d62103871fc2ca08e6950b38867e8e6a0e94ee625223d3aa0df5c65f414c6d784467e252ae"], "sequence": 4294967295, "scriptSig": {"hex": "220020efd02f10cc1074c68ec89b458572a71ce6bfc8a17595d8fde80232e47279444b", "asm": "0020efd02f10cc1074c68ec89b458572a71ce6bfc8a17595d8fde80232e47279444b"}, "vout": 1, "txid": "e2467e1c544afbd5c9763263728ca20e832d82a70a6b40542e3c97f8a48b8dce"}], "txid": "948fc2597931e1a2be5dc831d94d78b2e3185765623336c330f4ceb31ec87aab", "blocktime": 1537873891, "version": 1, "confirmations": 11478, "time": 1537873891, "locktime": 0, "vsize": 208, "size": 374}