{"hash": "949102331758191e1f017b06020299ea54830ccdb38205b3f178aaff0a5405a7", "blockhash": "0000000000000000001cda96e906b7601b7a6fb1a3b62bca570a9e5d8f4b3de1", "vout": [{"scriptPubKey": {"reqSigs": 1, "hex": "a91410aaaa3bcdfd18630a7aa7d892e7459a535b405487", "addresses": ["33D9Bd7Lr3ePM9keGawZwKrviXqd5Ue8mT"], "asm": "OP_HASH160 10aaaa3bcdfd18630a7aa7d892e7459a535b4054 OP_EQUAL", "type": "scripthash"}, "value": 0.0062448, "n": 0}, {"scriptPubKey": {"reqSigs": 1, "hex": "76a91447213668c34123b8c0941cc7a22619b3b692698188ac", "addresses": ["17V6mGWbwj28GWMmitfZw6MKGqnzeDW65r"], "asm": "OP_DUP OP_HASH160 47213668c34123b8c0941cc7a22619b3b6926981 OP_EQUALVERIFY OP_CHECKSIG", "type": "pubkeyhash"}, "value": 0.1234868, "n": 1}], "hex": "0100000001a5c22248e03695c6d21ec9d3b1f7ec697e7e659fa849e750fcf7721b5b4bd432060000008a4730440220076ac18fb19835d1a5f332df58cc96767c9a67e46e5a498387e65777907d2c1902200515d769c5f990f9f870cb843670ef791335c93e408c45f80923050892e4d9bb014104a1c34c4b25cca35b5dea1f182eeb70f0d2c40e4d46a043221e82c0240c2f7acbdc1f6fa18819111cc9796d1dfb83054482c2166b31667101817d7760c2013fd7ffffffff02608709000000000017a91410aaaa3bcdfd18630a7aa7d892e7459a535b405487086dbc00000000001976a91447213668c34123b8c0941cc7a22619b3b692698188ac00000000", "vin": [{"sequence": 4294967295, "scriptSig": {"hex": "4730440220076ac18fb19835d1a5f332df58cc96767c9a67e46e5a498387e65777907d2c1902200515d769c5f990f9f870cb843670ef791335c93e408c45f80923050892e4d9bb014104a1c34c4b25cca35b5dea1f182eeb70f0d2c40e4d46a043221e82c0240c2f7acbdc1f6fa18819111cc9796d1dfb83054482c2166b31667101817d7760c2013fd7", "asm": "30440220076ac18fb19835d1a5f332df58cc96767c9a67e46e5a498387e65777907d2c1902200515d769c5f990f9f870cb843670ef791335c93e408c45f80923050892e4d9bb[ALL] 04a1c34c4b25cca35b5dea1f182eeb70f0d2c40e4d46a043221e82c0240c2f7acbdc1f6fa18819111cc9796d1dfb83054482c2166b31667101817d7760c2013fd7"}, "vout": 6, "txid": "32d44b5b1b72f7fc50e749a89f657e7e69ecf7b1d3c91ed2c69536e04822c2a5"}], "txid": "949102331758191e1f017b06020299ea54830ccdb38205b3f178aaff0a5405a7", "blocktime": 1537873282, "version": 1, "confirmations": 11485, "time": 1537873282, "locktime": 0, "vsize": 255, "size": 255}