{"hash": "9494f8ca1d6e322433bc092ec4fab027ffef68871d5ecff1a6b78fd7b1f362b1", "blockhash": "00000000000000000017f5eb5941039fbcee6240d03bc1f2f8e35350df66a1d8", "vout": [{"scriptPubKey": {"reqSigs": 1, "hex": "76a91421d6ca6e43831a8828f0ce47a35eb05245486f6488ac", "addresses": ["145vcFg6HedzZz9oSvUJpx8dC9pZsfnFv4"], "asm": "OP_DUP OP_HASH160 21d6ca6e43831a8828f0ce47a35eb05245486f64 OP_EQUALVERIFY OP_CHECKSIG", "type": "pubkeyhash"}, "value": 0.00171458, "n": 0}, {"scriptPubKey": {"reqSigs": 1, "hex": "76a914fff4dfa26d306b8526259b77f87a6f6a82d3e32788ac", "addresses": ["1QLNf2niEq1jiu1ZugM21G7ZuZUnZVR8JT"], "asm": "OP_DUP OP_HASH160 fff4dfa26d306b8526259b77f87a6f6a82d3e327 OP_EQUALVERIFY OP_CHECKSIG", "type": "pubkeyhash"}, "value": 0.01640686, "n": 1}], "hex": "0100000001d806391d52203081ab91d45528ce7e3253083f27dba81cf24c32704197486295020000006b483045022100df28bf28c2b97067c1f96f107777d0899c84f2ebc067f711f27823b6162858ba02207a76c73f56256745b190bb5377ea30f69845f0a5e680553080431e821832757d01210247238262b598fd7b07aacef6155084e9eaecaf80e1f39f781daae065084b0529ffffffff02c29d0200000000001976a91421d6ca6e43831a8828f0ce47a35eb05245486f6488acee081900000000001976a914fff4dfa26d306b8526259b77f87a6f6a82d3e32788ac00000000", "vin": [{"sequence": 4294967295, "scriptSig": {"hex": "483045022100df28bf28c2b97067c1f96f107777d0899c84f2ebc067f711f27823b6162858ba02207a76c73f56256745b190bb5377ea30f69845f0a5e680553080431e821832757d01210247238262b598fd7b07aacef6155084e9eaecaf80e1f39f781daae065084b0529", "asm": "3045022100df28bf28c2b97067c1f96f107777d0899c84f2ebc067f711f27823b6162858ba02207a76c73f56256745b190bb5377ea30f69845f0a5e680553080431e821832757d[ALL] 0247238262b598fd7b07aacef6155084e9eaecaf80e1f39f781daae065084b0529"}, "vout": 2, "txid": "956248974170324cf21ca8db273f0853327ece2855d491ab813020521d3906d8"}], "txid": "9494f8ca1d6e322433bc092ec4fab027ffef68871d5ecff1a6b78fd7b1f362b1", "blocktime": 1537874412, "version": 1, "confirmations": 11467, "time": 1537874412, "locktime": 0, "vsize": 226, "size": 226}