{"hash": "949a0feed7d71206752554366377ed0ff7d428b7ac45a3297be94e5bbae99b40", "blockhash": "00000000000000000004ffacab907a6b429b9a5745fa0b75af4234bf69dd7176", "vout": [{"scriptPubKey": {"reqSigs": 1, "hex": "76a914e55d6f22cc3b2613a18b024ea9f8d032e089f4b288ac", "addresses": ["1Mumfr4pUnQEw4zNbcCMivSTbnENoLsoww"], "asm": "OP_DUP OP_HASH160 e55d6f22cc3b2613a18b024ea9f8d032e089f4b2 OP_EQUALVERIFY OP_CHECKSIG", "type": "pubkeyhash"}, "value": 0.00411348, "n": 0}, {"scriptPubKey": {"reqSigs": 1, "hex": "76a91418946cd59ed43175d16cb38eea5a040de215ff4c88ac", "addresses": ["13Ey2N4PWZ11nTspLfA8Su4TLjuRkKWQwv"], "asm": "OP_DUP OP_HASH160 18946cd59ed43175d16cb38eea5a040de215ff4c OP_EQUALVERIFY OP_CHECKSIG", "type": "pubkeyhash"}, "value": 0.00952513, "n": 1}], "hex": "01000000016c7ac99f4b6ca005bcd944783df553ff242861abe3656b5eb80494dc4c81abae000000006b483045022100da6944cd951393ebf82b333389da92aefd4c9b6bcae867e004942bff79eed6010220053705110b348c0a253f58328d01da735bcbc196759c423657d611f7619724f7012103c6498e8090185b9c92686ba6e8c137c73c30412025bf978478193a4e64f0f9d1feffffff02d4460600000000001976a914e55d6f22cc3b2613a18b024ea9f8d032e089f4b288acc1880e00000000001976a91418946cd59ed43175d16cb38eea5a040de215ff4c88ac15490800", "vin": [{"sequence": 4294967294, "scriptSig": {"hex": "483045022100da6944cd951393ebf82b333389da92aefd4c9b6bcae867e004942bff79eed6010220053705110b348c0a253f58328d01da735bcbc196759c423657d611f7619724f7012103c6498e8090185b9c92686ba6e8c137c73c30412025bf978478193a4e64f0f9d1", "asm": "3045022100da6944cd951393ebf82b333389da92aefd4c9b6bcae867e004942bff79eed6010220053705110b348c0a253f58328d01da735bcbc196759c423657d611f7619724f7[ALL] 03c6498e8090185b9c92686ba6e8c137c73c30412025bf978478193a4e64f0f9d1"}, "vout": 0, "txid": "aeab814cdc9404b85e6b65e3ab612824ff53f53d7844d9bc05a06c4b9fc97a6c"}], "txid": "949a0feed7d71206752554366377ed0ff7d428b7ac45a3297be94e5bbae99b40", "blocktime": 1537875543, "version": 1, "confirmations": 11464, "time": 1537875543, "locktime": 542997, "vsize": 226, "size": 226}