{"hash": "949dfb6ed1d60051f768047afd8068ef7e5b9bdb2e2887aea517fad34d6fc008", "blockhash": "00000000000000000017f5eb5941039fbcee6240d03bc1f2f8e35350df66a1d8", "vout": [{"scriptPubKey": {"reqSigs": 1, "hex": "76a914d0e767031d9dcc2fcf8a79ecad1b53d0021b26e588ac", "addresses": ["1L3am2Cn8cYvKtP4R3qRkhaYFKoCHJqhun"], "asm": "OP_DUP OP_HASH160 d0e767031d9dcc2fcf8a79ecad1b53d0021b26e5 OP_EQUALVERIFY OP_CHECKSIG", "type": "pubkeyhash"}, "value": 0.00245192, "n": 0}, {"scriptPubKey": {"reqSigs": 1, "hex": "a9141e2eb8f72397d1c2bca0275b83ebaef3504715d087", "addresses": ["34ScAdruLMVfJen5u4XqmUXvkpzPpd9eX9"], "asm": "OP_HASH160 1e2eb8f72397d1c2bca0275b83ebaef3504715d0 OP_EQUAL", "type": "scripthash"}, "value": 0.048538, "n": 1}], "hex": "010000000293a103039f36ef969151544076695e57a9b066ede88982fd7417e0a83459724d000000006b483045022100c4a5597189f6f8369c9ed84838e84bf833d8869d493af5cd3edaaa943377781802201734223026349d965e56e379760e434963b16ca25f4062d54111aec29933ca7601210286659f54eb1b4f718e63edf7facdbbcbdb19588202bbc16409145a594521b043ffffffff295daa75e94dc8cdb268c57a77e2ebb69ad88aab2d4302b76f4cc629f9a6e1d6000000006b483045022100cccb33a085e7bb527674d850a4c2a3b580445a7e6331ad6bf52ed896f1df35a1022079f843b237cc891fb449bff32eddabbe08a5a3539af1dae3814ab61031b9fd8701210286659f54eb1b4f718e63edf7facdbbcbdb19588202bbc16409145a594521b043ffffffff02c8bd0300000000001976a914d0e767031d9dcc2fcf8a79ecad1b53d0021b26e588ac28104a000000000017a9141e2eb8f72397d1c2bca0275b83ebaef3504715d08700000000", "vin": [{"sequence": 4294967295, "scriptSig": {"hex": "483045022100c4a5597189f6f8369c9ed84838e84bf833d8869d493af5cd3edaaa943377781802201734223026349d965e56e379760e434963b16ca25f4062d54111aec29933ca7601210286659f54eb1b4f718e63edf7facdbbcbdb19588202bbc16409145a594521b043", "asm": "3045022100c4a5597189f6f8369c9ed84838e84bf833d8869d493af5cd3edaaa943377781802201734223026349d965e56e379760e434963b16ca25f4062d54111aec29933ca76[ALL] 0286659f54eb1b4f718e63edf7facdbbcbdb19588202bbc16409145a594521b043"}, "vout": 0, "txid": "4d725934a8e01774fd8289e8ed66b0a9575e69764054519196ef369f0303a193"}, {"sequence": 4294967295, "scriptSig": {"hex": "483045022100cccb33a085e7bb527674d850a4c2a3b580445a7e6331ad6bf52ed896f1df35a1022079f843b237cc891fb449bff32eddabbe08a5a3539af1dae3814ab61031b9fd8701210286659f54eb1b4f718e63edf7facdbbcbdb19588202bbc16409145a594521b043", "asm": "3045022100cccb33a085e7bb527674d850a4c2a3b580445a7e6331ad6bf52ed896f1df35a1022079f843b237cc891fb449bff32eddabbe08a5a3539af1dae3814ab61031b9fd87[ALL] 0286659f54eb1b4f718e63edf7facdbbcbdb19588202bbc16409145a594521b043"}, "vout": 0, "txid": "d6e1a6f929c64c6fb702432dab8ad89ab6ebe2777ac568b2cdc84de975aa5d29"}], "txid": "949dfb6ed1d60051f768047afd8068ef7e5b9bdb2e2887aea517fad34d6fc008", "blocktime": 1537874412, "version": 1, "confirmations": 11468, "time": 1537874412, "locktime": 0, "vsize": 372, "size": 372}