{"hash": "949e6d3b112013ff41a45371bcc6b3ef47f6ef4fda239828043e5061ec8947b6", "blockhash": "00000000000000000018f53835495a110e01622372bf6ae95dc86f2b0ab887b0", "vout": [{"scriptPubKey": {"reqSigs": 1, "hex": "76a914c3ae1f97593eb8590330d986bbac9dad8495e03f88ac", "addresses": ["1JqfMiMoU3PDDTTRxFQPM5GejvRis8UUuW"], "asm": "OP_DUP OP_HASH160 c3ae1f97593eb8590330d986bbac9dad8495e03f OP_EQUALVERIFY OP_CHECKSIG", "type": "pubkeyhash"}, "value": 0.00144477, "n": 0}, {"scriptPubKey": {"reqSigs": 1, "hex": "76a9143553c134f2f376a340efaadb0688972c592f640b88ac", "addresses": ["15ry9YhgGJekyYh86TFfxRD2t8CDt5aFxB"], "asm": "OP_DUP OP_HASH160 3553c134f2f376a340efaadb0688972c592f640b OP_EQUALVERIFY OP_CHECKSIG", "type": "pubkeyhash"}, "value": 0.004623, "n": 1}], "hex": "0100000001d35222d6f2837d8ec94572470854f9be7b62ffb9ec8b2f0929c4eea0ef0b5d2c010000006a4730440220747f6e1fdd9c5bd216fc6ecba13239e85d9b14a69421c75d5c4aa897b60832cd022071ded16ce510daa927d2e52107d01ac7e8c0c0bf3acf0b835d59c20abd2513c1012103c398cf2de28305d98645133aa94610e2a245c694b7711d7c6f93d1d65dd5a62bffffffff025d340200000000001976a914c3ae1f97593eb8590330d986bbac9dad8495e03f88acdc0d0700000000001976a9143553c134f2f376a340efaadb0688972c592f640b88ac00000000", "vin": [{"sequence": 4294967295, "scriptSig": {"hex": "4730440220747f6e1fdd9c5bd216fc6ecba13239e85d9b14a69421c75d5c4aa897b60832cd022071ded16ce510daa927d2e52107d01ac7e8c0c0bf3acf0b835d59c20abd2513c1012103c398cf2de28305d98645133aa94610e2a245c694b7711d7c6f93d1d65dd5a62b", "asm": "30440220747f6e1fdd9c5bd216fc6ecba13239e85d9b14a69421c75d5c4aa897b60832cd022071ded16ce510daa927d2e52107d01ac7e8c0c0bf3acf0b835d59c20abd2513c1[ALL] 03c398cf2de28305d98645133aa94610e2a245c694b7711d7c6f93d1d65dd5a62b"}, "vout": 1, "txid": "2c5d0befa0eec429092f8becb9ff627bbef95408477245c98e7d83f2d62252d3"}], "txid": "949e6d3b112013ff41a45371bcc6b3ef47f6ef4fda239828043e5061ec8947b6", "blocktime": 1537870928, "version": 1, "confirmations": 11512, "time": 1537870928, "locktime": 0, "vsize": 225, "size": 225}