{"hash": "94a45ae3874d1324545d176b751533c1a188663a8348da121a04820af57658d4", "blockhash": "000000000000000000205f8b0775d31398ef75b89a5e8ec8d2c57b4dc0ac4c20", "vout": [{"scriptPubKey": {"reqSigs": 1, "hex": "76a91435f81646c1c8853a617ea5e234befa97a5e3011188ac", "addresses": ["15vN1ZCYigkUYoYhF1MUyVoHS43oDFEp1s"], "asm": "OP_DUP OP_HASH160 35f81646c1c8853a617ea5e234befa97a5e30111 OP_EQUALVERIFY OP_CHECKSIG", "type": "pubkeyhash"}, "value": 0.1305, "n": 0}, {"scriptPubKey": {"reqSigs": 1, "hex": "a9142b18b37ec65102a5236e5a584c0259dcf390de6987", "addresses": ["35cta4MdRvwqaAb24MxFZAphpfDnwx9oXL"], "asm": "OP_HASH160 2b18b37ec65102a5236e5a584c0259dcf390de69 OP_EQUAL", "type": "scripthash"}, "value": 3.5532215, "n": 1}, {"scriptPubKey": {"reqSigs": 1, "hex": "76a91443849383122ebb8a28268a89700c9f723663b5b888ac", "addresses": ["17A16QmavnUfCW11DAApiJxp7ARnxN5pGX"], "asm": "OP_DUP OP_HASH160 43849383122ebb8a28268a89700c9f723663b5b8 OP_EQUALVERIFY OP_CHECKSIG", "type": "pubkeyhash"}, "value": 151.44737561, "n": 2}], "hex": "0200000001d6840423075dd30aeffbb78904381002bfb00db02d23196f5007e21ecc32eb34090000008a473044022055f3230737a65e74a85d212385ed69752a12f02c36b5caaeffa818d8f9c54835022028cc0e68a5b05df617dde829d8fb0316bf89c589f95366db422fcb95cc0b170c0141047146f0e0fcb3139947cf0beb870fe251930ca10d4545793d31033e801b5219abf56c11a3cf3406ca590e4c14b0dab749d20862b3adc4709153c280c2a78be10cffffffff039020c700000000001976a91435f81646c1c8853a617ea5e234befa97a5e3011188ac26c92d150000000017a9142b18b37ec65102a5236e5a584c0259dcf390de6987195bb286030000001976a91443849383122ebb8a28268a89700c9f723663b5b888ac00000000", "vin": [{"sequence": 4294967295, "scriptSig": {"hex": "473044022055f3230737a65e74a85d212385ed69752a12f02c36b5caaeffa818d8f9c54835022028cc0e68a5b05df617dde829d8fb0316bf89c589f95366db422fcb95cc0b170c0141047146f0e0fcb3139947cf0beb870fe251930ca10d4545793d31033e801b5219abf56c11a3cf3406ca590e4c14b0dab749d20862b3adc4709153c280c2a78be10c", "asm": "3044022055f3230737a65e74a85d212385ed69752a12f02c36b5caaeffa818d8f9c54835022028cc0e68a5b05df617dde829d8fb0316bf89c589f95366db422fcb95cc0b170c[ALL] 047146f0e0fcb3139947cf0beb870fe251930ca10d4545793d31033e801b5219abf56c11a3cf3406ca590e4c14b0dab749d20862b3adc4709153c280c2a78be10c"}, "vout": 9, "txid": "34eb32cc1ee207506f19232db00db0bf0210380489b7fbef0ad35d07230484d6"}], "txid": "94a45ae3874d1324545d176b751533c1a188663a8348da121a04820af57658d4", "blocktime": 1537871175, "version": 2, "confirmations": 11510, "time": 1537871175, "locktime": 0, "vsize": 289, "size": 289}