{"hash": "94aa34bc5de8e7e43385f90781aad51fcf02326ea2a65167d6440eccf895766b", "blockhash": "0000000000000000000dcc0f55137456b1a82d3642486a52398922ac4d620174", "vout": [{"scriptPubKey": {"type": "nulldata", "hex": "6a146f6d6e69000000000000001f00000009fcc2c03b", "asm": "OP_RETURN 6f6d6e69000000000000001f00000009fcc2c03b"}, "value": 0.0, "n": 0}, {"scriptPubKey": {"reqSigs": 1, "hex": "76a914c85a4d2afe80d93694920a34ebc7b56e708d61aa88ac", "addresses": ["1KGNKcxV5yN3z72aW3KEKrTVn41pbiW2PC"], "asm": "OP_DUP OP_HASH160 c85a4d2afe80d93694920a34ebc7b56e708d61aa OP_EQUALVERIFY OP_CHECKSIG", "type": "pubkeyhash"}, "value": 5.46e-06, "n": 1}, {"scriptPubKey": {"reqSigs": 1, "hex": "76a914a25dec4d0011064ef106a983c39c7a540699f22088ac", "addresses": ["1FoWyxwPXuj4C6abqwhjDWdz6D4PZgYRjA"], "asm": "OP_DUP OP_HASH160 a25dec4d0011064ef106a983c39c7a540699f220 OP_EQUALVERIFY OP_CHECKSIG", "type": "pubkeyhash"}, "value": 0.01995188, "n": 2}], "hex": "0100000001a44813c76173a4fe9689194c29809e35be05f1741d9b5e1e9e8bd44070ac1fea600000006b483045022100b8185c987e4b64a5c4858d6467d49f94b0235b22d90c199c9807f49822bbbc48022024e91d62da91449860e86387eade122e1e3dce1135b45e5e71b120e0d4c55219012103da5bac7b36d5aa38f531c6b9601e21bb598a4b6716ebed38b009a55dabde9440feffffff030000000000000000166a146f6d6e69000000000000001f00000009fcc2c03b22020000000000001976a914c85a4d2afe80d93694920a34ebc7b56e708d61aa88acb4711e00000000001976a914a25dec4d0011064ef106a983c39c7a540699f22088ac0c490800", "vin": [{"sequence": 4294967294, "scriptSig": {"hex": "483045022100b8185c987e4b64a5c4858d6467d49f94b0235b22d90c199c9807f49822bbbc48022024e91d62da91449860e86387eade122e1e3dce1135b45e5e71b120e0d4c55219012103da5bac7b36d5aa38f531c6b9601e21bb598a4b6716ebed38b009a55dabde9440", "asm": "3045022100b8185c987e4b64a5c4858d6467d49f94b0235b22d90c199c9807f49822bbbc48022024e91d62da91449860e86387eade122e1e3dce1135b45e5e71b120e0d4c55219[ALL] 03da5bac7b36d5aa38f531c6b9601e21bb598a4b6716ebed38b009a55dabde9440"}, "vout": 96, "txid": "ea1fac7040d48b9e1e5e9b1d74f105be359e80294c198996fea47361c71348a4"}], "txid": "94aa34bc5de8e7e43385f90781aad51fcf02326ea2a65167d6440eccf895766b", "blocktime": 1537870268, "version": 1, "confirmations": 11516, "time": 1537870268, "locktime": 542988, "vsize": 257, "size": 257}