{"hash": "94af2927c352774d55974ac730ce4697d6784c8f599287c4d3ecd7eceb05e63b", "blockhash": "000000000000000000022b45ed06c6f4ccd3cf7fb5ba4856ebd2e58215665228", "vout": [{"scriptPubKey": {"reqSigs": 1, "hex": "76a91466d9d1114e3909b466db93dff1bae00466ceee2288ac", "addresses": ["1ANprjb72jDKpZSnLf4y7QnWfbmPz46qqD"], "asm": "OP_DUP OP_HASH160 66d9d1114e3909b466db93dff1bae00466ceee22 OP_EQUALVERIFY OP_CHECKSIG", "type": "pubkeyhash"}, "value": 0.00175539, "n": 0}, {"scriptPubKey": {"reqSigs": 1, "hex": "a914a0e227bc7a9a6c84a7f42c37efbe3519a565ac2287", "addresses": ["3GMgxn1HVXmcKH4HC2GPMcFPtk1VxF3w4y"], "asm": "OP_HASH160 a0e227bc7a9a6c84a7f42c37efbe3519a565ac22 OP_EQUAL", "type": "scripthash"}, "value": 0.002616, "n": 1}], "hex": "010000000113793b83422feaf904f49f9addabe813649564a3be35872a03283d3135abff87010000006a47304402206b87c5520c88368249ca8a59bdb184aa5ef2286a7a8a3b78d2719157276b816e02201a1652b13b58167c6a9b1825b4b6cb17c359eaa62800cc6d3578372bdeb6b365012102dcf6a779d8a2b91d224ab1a847164226b5544a3eea985076ce3ca7b3af4923ffffffffff02b3ad0200000000001976a91466d9d1114e3909b466db93dff1bae00466ceee2288ace0fd03000000000017a914a0e227bc7a9a6c84a7f42c37efbe3519a565ac228700000000", "vin": [{"sequence": 4294967295, "scriptSig": {"hex": "47304402206b87c5520c88368249ca8a59bdb184aa5ef2286a7a8a3b78d2719157276b816e02201a1652b13b58167c6a9b1825b4b6cb17c359eaa62800cc6d3578372bdeb6b365012102dcf6a779d8a2b91d224ab1a847164226b5544a3eea985076ce3ca7b3af4923ff", "asm": "304402206b87c5520c88368249ca8a59bdb184aa5ef2286a7a8a3b78d2719157276b816e02201a1652b13b58167c6a9b1825b4b6cb17c359eaa62800cc6d3578372bdeb6b365[ALL] 02dcf6a779d8a2b91d224ab1a847164226b5544a3eea985076ce3ca7b3af4923ff"}, "vout": 1, "txid": "87ffab35313d28032a8735bea364956413e8abdd9a9ff404f9ea2f42833b7913"}], "txid": "94af2927c352774d55974ac730ce4697d6784c8f599287c4d3ecd7eceb05e63b", "blocktime": 1537869901, "version": 1, "confirmations": 11522, "time": 1537869901, "locktime": 0, "vsize": 223, "size": 223}