{"hash": "94b48576c4fdb373fc5a138e34cf8cf9a40b1d47dc182bdd8413515fe264dbeb", "blockhash": "0000000000000000001cda96e906b7601b7a6fb1a3b62bca570a9e5d8f4b3de1", "vout": [{"scriptPubKey": {"reqSigs": 1, "hex": "76a914550c02b04d6859c292d83fa297403b4c7594a57688ac", "addresses": ["18kgpoye65SwyVfM874xerHSnmh9v8dpF9"], "asm": "OP_DUP OP_HASH160 550c02b04d6859c292d83fa297403b4c7594a576 OP_EQUALVERIFY OP_CHECKSIG", "type": "pubkeyhash"}, "value": 0.00671376, "n": 0}, {"scriptPubKey": {"reqSigs": 1, "hex": "76a9148ccbe375da0139ebb727c9020890e0f3d81ae5d788ac", "addresses": ["1DqTrHAoTEyBpTH96K6brVmJwSe6oUkAvQ"], "asm": "OP_DUP OP_HASH160 8ccbe375da0139ebb727c9020890e0f3d81ae5d7 OP_EQUALVERIFY OP_CHECKSIG", "type": "pubkeyhash"}, "value": 0.01089395, "n": 1}], "hex": "0100000001a95985417c9e0c32a8825bbb38fda32078475d6c3bd4ba075deee515c33773f2010000006b483045022100e2613c4f001ba392fc7255df7bb0410e5ca58b6eb7a65b142b080a27400732db02207daff4c50682078bd34273595be28ceb57ff376b28eb0a409561a8ed537d72f1012103b6e389b648b79dfa1b81dc0508e5961dd986b1ea66e106d9c53e2c9e49536c1dffffffff02903e0a00000000001976a914550c02b04d6859c292d83fa297403b4c7594a57688ac739f1000000000001976a9148ccbe375da0139ebb727c9020890e0f3d81ae5d788ac00000000", "vin": [{"sequence": 4294967295, "scriptSig": {"hex": "483045022100e2613c4f001ba392fc7255df7bb0410e5ca58b6eb7a65b142b080a27400732db02207daff4c50682078bd34273595be28ceb57ff376b28eb0a409561a8ed537d72f1012103b6e389b648b79dfa1b81dc0508e5961dd986b1ea66e106d9c53e2c9e49536c1d", "asm": "3045022100e2613c4f001ba392fc7255df7bb0410e5ca58b6eb7a65b142b080a27400732db02207daff4c50682078bd34273595be28ceb57ff376b28eb0a409561a8ed537d72f1[ALL] 03b6e389b648b79dfa1b81dc0508e5961dd986b1ea66e106d9c53e2c9e49536c1d"}, "vout": 1, "txid": "f27337c315e5ee5d07bad43b6c5d477820a3fd38bb5b82a8320c9e7c418559a9"}], "txid": "94b48576c4fdb373fc5a138e34cf8cf9a40b1d47dc182bdd8413515fe264dbeb", "blocktime": 1537873282, "version": 1, "confirmations": 11485, "time": 1537873282, "locktime": 0, "vsize": 226, "size": 226}