{"hash": "94b5ff33451d27a6dab1bb895adeedea23dc4ada6a273caa095d13cbe8546426", "blockhash": "0000000000000000001f76057863aec43deb6fa401d9628bb513d65a8098bfab", "vout": [{"scriptPubKey": {"type": "nulldata", "hex": "6a4c50000077eb0001898c5f3db24d8427f7d2a7c27af8e8e963c7cfd5b95b23cc0f42c2fc38c5cace7bf33c6de829e480a5d8b3e868275baa179f0613112e39738db11d100759d4ba30d2c37bb011d97e02cf", "asm": "OP_RETURN 000077eb0001898c5f3db24d8427f7d2a7c27af8e8e963c7cfd5b95b23cc0f42c2fc38c5cace7bf33c6de829e480a5d8b3e868275baa179f0613112e39738db11d100759d4ba30d2c37bb011d97e02cf"}, "value": 0.0, "n": 0}, {"scriptPubKey": {"reqSigs": 1, "hex": "76a914c5acd011bd6a1d921628d2e1f6e559261cb0ce5388ac", "addresses": ["1K2D92szsh9y4vkwrsHX11xEG9o2TdZChQ"], "asm": "OP_DUP OP_HASH160 c5acd011bd6a1d921628d2e1f6e559261cb0ce53 OP_EQUALVERIFY OP_CHECKSIG", "type": "pubkeyhash"}, "value": 0.00635784, "n": 1}], "hex": "0100000001d7fc50415337e165b2b57e56aba210978e1fee443062a8b4b9889d6a836343b4010000006a47304402200538c6f11e6f757edf8f6fc4b3e0dddbd5b9005568cb3075fbdcdc67c75af00b02203a648c615a0f82c308d17c7e53fee4805532fd01a4c45bbd05f0186fd38a23d801210208def0e18b0af7787b8a345e8003948e5ce17350cee8e52fe9a584575132770bffffffff020000000000000000536a4c50000077eb0001898c5f3db24d8427f7d2a7c27af8e8e963c7cfd5b95b23cc0f42c2fc38c5cace7bf33c6de829e480a5d8b3e868275baa179f0613112e39738db11d100759d4ba30d2c37bb011d97e02cf88b30900000000001976a914c5acd011bd6a1d921628d2e1f6e559261cb0ce5388ac00000000", "vin": [{"sequence": 4294967295, "scriptSig": {"hex": "47304402200538c6f11e6f757edf8f6fc4b3e0dddbd5b9005568cb3075fbdcdc67c75af00b02203a648c615a0f82c308d17c7e53fee4805532fd01a4c45bbd05f0186fd38a23d801210208def0e18b0af7787b8a345e8003948e5ce17350cee8e52fe9a584575132770b", "asm": "304402200538c6f11e6f757edf8f6fc4b3e0dddbd5b9005568cb3075fbdcdc67c75af00b02203a648c615a0f82c308d17c7e53fee4805532fd01a4c45bbd05f0186fd38a23d8[ALL] 0208def0e18b0af7787b8a345e8003948e5ce17350cee8e52fe9a584575132770b"}, "vout": 1, "txid": "b44363836a9d88b9b4a8623044ee1f8e9710a2ab567eb5b265e137534150fcd7"}], "txid": "94b5ff33451d27a6dab1bb895adeedea23dc4ada6a273caa095d13cbe8546426", "blocktime": 1537873891, "version": 1, "confirmations": 11478, "time": 1537873891, "locktime": 0, "vsize": 283, "size": 283}