{"hash": "4670a74e3fb5db793627dc820da8bec29f06f2733c88ce26c77faab6b751d968", "blockhash": "0000000000000000001cda96e906b7601b7a6fb1a3b62bca570a9e5d8f4b3de1", "vout": [{"scriptPubKey": {"reqSigs": 1, "hex": "a914991efcea717740479832cf2175456bb297e8d33187", "addresses": ["3FeeRyUQe1t6HWMVJmqs34UZE8RyUKa8rm"], "asm": "OP_HASH160 991efcea717740479832cf2175456bb297e8d331 OP_EQUAL", "type": "scripthash"}, "value": 4.24943439, "n": 0}, {"scriptPubKey": {"reqSigs": 1, "hex": "76a91484d5a03ed2cf0d9bbca318c1a21952fb64903eaf88ac", "addresses": ["1D7N7KBPt5NVJe77HDZobPYS4wVqABNKRC"], "asm": "OP_DUP OP_HASH160 84d5a03ed2cf0d9bbca318c1a21952fb64903eaf OP_EQUALVERIFY OP_CHECKSIG", "type": "pubkeyhash"}, "value": 10.1942, "n": 1}], "hex": "020000000001022233527bf3d2f17642fa30555e3ac9ce2adbfae5f7f2a0b0c8112235a002ffac00000000171600146f85bca2f5d7296b27fc31b8dd47bde1a84a2b72fdffffff9396bef458a09781ba91cbe1e88ed3b1be3d953ded3d4ddbbf14a3b61b12255f000000006b483045022100eeba9586de958bca9cc4abe443110c3bcc2688868dffef624e8e8feb5e2646580220790f73c754b4d37d833729abcb5e8a3b0f2bc0861ad5603027413e94a7bba37c0121022e26e27c3d197e16d76fb0937ebcc3c8ea8046c11d81c04320bcfa799affbb2ffdffffff024f1f54190000000017a914991efcea717740479832cf2175456bb297e8d33187601dc33c000000001976a91484d5a03ed2cf0d9bbca318c1a21952fb64903eaf88ac02483045022100a9788f602c730ec7d0a6e407dbf69a26a71697c4a7130fee7148de6d410d8ff802202289b9bba098901b1e3d8f01c683f00bb95462c5a2c70f3333f9da159577f73001210215af683dd565b09df84f6f41bb7db8dbf6cb49ae470e680401e35f3fc28593330013490800", "vin": [{"txinwitness": ["3045022100a9788f602c730ec7d0a6e407dbf69a26a71697c4a7130fee7148de6d410d8ff802202289b9bba098901b1e3d8f01c683f00bb95462c5a2c70f3333f9da159577f73001", "0215af683dd565b09df84f6f41bb7db8dbf6cb49ae470e680401e35f3fc2859333"], "sequence": 4294967293, "scriptSig": {"hex": "1600146f85bca2f5d7296b27fc31b8dd47bde1a84a2b72", "asm": "00146f85bca2f5d7296b27fc31b8dd47bde1a84a2b72"}, "vout": 0, "txid": "acff02a0352211c8b0a0f2f7e5fadb2acec93a5e5530fa4276f1d2f37b523322"}, {"sequence": 4294967293, "scriptSig": {"hex": "483045022100eeba9586de958bca9cc4abe443110c3bcc2688868dffef624e8e8feb5e2646580220790f73c754b4d37d833729abcb5e8a3b0f2bc0861ad5603027413e94a7bba37c0121022e26e27c3d197e16d76fb0937ebcc3c8ea8046c11d81c04320bcfa799affbb2f", "asm": "3045022100eeba9586de958bca9cc4abe443110c3bcc2688868dffef624e8e8feb5e2646580220790f73c754b4d37d833729abcb5e8a3b0f2bc0861ad5603027413e94a7bba37c[ALL] 022e26e27c3d197e16d76fb0937ebcc3c8ea8046c11d81c04320bcfa799affbb2f"}, "vout": 0, "txid": "5f25121bb6a314bfdb4d3ded3d953dbeb1d38ee8e1cb91ba8197a058f4be9693"}], "txid": "94b71793f6b977ab3f3053fdb5fabf424622c4540fcad9c92e148efd9a2b8ea3", "blocktime": 1537873282, "version": 2, "confirmations": 11485, "time": 1537873282, "locktime": 542995, "vsize": 316, "size": 399}