{"hash": "ae4e7a41f1eaaef0e9a7e3ba17889bd65ad6451a37043f625b74bc7ae1252153", "blockhash": "00000000000000000004ffacab907a6b429b9a5745fa0b75af4234bf69dd7176", "vout": [{"scriptPubKey": {"reqSigs": 1, "hex": "a91491a54d196cfacbc2a829f9f0d8a9a87efd72e22e87", "addresses": ["3Ey7vgj8JgSgZ2QpYzNHBTNTFydLrzgcwP"], "asm": "OP_HASH160 91a54d196cfacbc2a829f9f0d8a9a87efd72e22e OP_EQUAL", "type": "scripthash"}, "value": 0.0894241, "n": 0}, {"scriptPubKey": {"reqSigs": 1, "hex": "a914bfb2b141f1e70138d58ea7186aa2381e70ddd0ec87", "addresses": ["3KAd3x3YA8pE4EerBoJN5QojumF4aM51ap"], "asm": "OP_HASH160 bfb2b141f1e70138d58ea7186aa2381e70ddd0ec OP_EQUAL", "type": "scripthash"}, "value": 0.01855889, "n": 1}], "hex": "02000000000103b07a4a58fe63a767b293e3d9fca229a53c8ae8d97b054e97493910082df66e250100000017160014bb2f865d100e9445d6c0bfb74be9df748cf7a4deffffffffed24bf93b3a1fa87bd0a915faf7bd6d898c4cd9634f8c96ab41bf327cc33f0f6a5000000171600145b4d0824b924866e4fbd6d041931a9456635522cffffffff5933c014013dac017e0f7cad92de0af3231503c63fd15ffdb564e477dbb3ac350100000017160014b088577d216a7e2dae5cfd73440bffc365ee4fb3ffffffff024a7388000000000017a91491a54d196cfacbc2a829f9f0d8a9a87efd72e22e8791511c000000000017a914bfb2b141f1e70138d58ea7186aa2381e70ddd0ec8702473044022042140fcae3f00f1c04b6070edee36e818b610288f159bc80a1c5c315db7ac9c1022056a9347e61102157d5fe5b3149e64e24a1b9edac169d623f4d918246a7a1b923012103545ea3ad6de0ae49e488f72fded32c6c71ed741c99ebf810cb1e6663c4eafc4c02473044022024a3599d72149a2b9895f3a13206c3e91e654b591c2d511d42a90bcd2281680302206bf67b51b5ede51900d08d5544070d12aac7fb2d0b0db7b2f64691ba3bd592f201210273c21df294d35adb8a688d2c2972bbc50fa3afce4bfd59f68f4d320aed6ffa3a0247304402203bd5e6657f6b013ae8797cd1fb768e4bc2735eec1fd2d971370fdaffa983f1ad022016cb1cc91b30420806cd1327d57c29af92da3fa2e591b4ee9fef51b90a87e7bf012102e34c038b217b94be3ff741416ca34b821bc073653edc9e45fce653044567094300000000", "vin": [{"txinwitness": ["3044022042140fcae3f00f1c04b6070edee36e818b610288f159bc80a1c5c315db7ac9c1022056a9347e61102157d5fe5b3149e64e24a1b9edac169d623f4d918246a7a1b92301", "03545ea3ad6de0ae49e488f72fded32c6c71ed741c99ebf810cb1e6663c4eafc4c"], "sequence": 4294967295, "scriptSig": {"hex": "160014bb2f865d100e9445d6c0bfb74be9df748cf7a4de", "asm": "0014bb2f865d100e9445d6c0bfb74be9df748cf7a4de"}, "vout": 1, "txid": "256ef62d08103949974e057bd9e88a3ca529a2fcd9e393b267a763fe584a7ab0"}, {"txinwitness": ["3044022024a3599d72149a2b9895f3a13206c3e91e654b591c2d511d42a90bcd2281680302206bf67b51b5ede51900d08d5544070d12aac7fb2d0b0db7b2f64691ba3bd592f201", "0273c21df294d35adb8a688d2c2972bbc50fa3afce4bfd59f68f4d320aed6ffa3a"], "sequence": 4294967295, "scriptSig": {"hex": "1600145b4d0824b924866e4fbd6d041931a9456635522c", "asm": "00145b4d0824b924866e4fbd6d041931a9456635522c"}, "vout": 165, "txid": "f6f033cc27f31bb46ac9f83496cdc498d8d67baf5f910abd87faa1b393bf24ed"}, {"txinwitness": ["304402203bd5e6657f6b013ae8797cd1fb768e4bc2735eec1fd2d971370fdaffa983f1ad022016cb1cc91b30420806cd1327d57c29af92da3fa2e591b4ee9fef51b90a87e7bf01", "02e34c038b217b94be3ff741416ca34b821bc073653edc9e45fce6530445670943"], "sequence": 4294967295, "scriptSig": {"hex": "160014b088577d216a7e2dae5cfd73440bffc365ee4fb3", "asm": "0014b088577d216a7e2dae5cfd73440bffc365ee4fb3"}, "vout": 1, "txid": "35acb3db77e464b5fd5fd13fc6031523f30ade92ad7c0f7e01ac3d0114c03359"}], "txid": "94b8640b24930e1b44d711fb8601f4305c28fd8f711a295b41830ddeab42f481", "blocktime": 1537875543, "version": 2, "confirmations": 11464, "time": 1537875543, "locktime": 0, "vsize": 347, "size": 589}