{"hash": "94c37869325243af29cd609e07480e30b48342b78f31d6d4d0f4b5596204c2cb", "blockhash": "0000000000000000001cda96e906b7601b7a6fb1a3b62bca570a9e5d8f4b3de1", "vout": [{"scriptPubKey": {"type": "nulldata", "hex": "6a4c50000077d500017b7451d3863b8d420c7093555b23cc0f42c2fc38c5e5bf9ae76da98a211a5bd994bab65537662fb9fa51cd26c93f5baa151f0612d711973bc7824bbf23acfcfaac8058b692fe6808c31d", "asm": "OP_RETURN 000077d500017b7451d3863b8d420c7093555b23cc0f42c2fc38c5e5bf9ae76da98a211a5bd994bab65537662fb9fa51cd26c93f5baa151f0612d711973bc7824bbf23acfcfaac8058b692fe6808c31d"}, "value": 0.0, "n": 0}, {"scriptPubKey": {"reqSigs": 1, "hex": "76a914ef591d3d384bb5d55325f6e56e5108318543656488ac", "addresses": ["1NpZFcUmuuHHPhF2eaa62HG87HnNmgX5wa"], "asm": "OP_DUP OP_HASH160 ef591d3d384bb5d55325f6e56e51083185436564 OP_EQUALVERIFY OP_CHECKSIG", "type": "pubkeyhash"}, "value": 0.00010575, "n": 1}], "hex": "0100000001d66badca106d9e0dcff98f2d2d3309459d57c79258cdbe2860533d4f89383b71010000006b483045022100d73dfbdd55c9b83c41bd037607a6d7abda366ef3c2ad601dcacd9cb9154dfc16022046020cae2b098d94240d1abfed76cf8e128765dda187ca1ccc8c1f69476f0a0c0121030df82aaf131075b40600cbb037d8d48d63b3ff342c5430a98695526dabaca9deffffffff020000000000000000536a4c50000077d500017b7451d3863b8d420c7093555b23cc0f42c2fc38c5e5bf9ae76da98a211a5bd994bab65537662fb9fa51cd26c93f5baa151f0612d711973bc7824bbf23acfcfaac8058b692fe6808c31d4f290000000000001976a914ef591d3d384bb5d55325f6e56e5108318543656488ac00000000", "vin": [{"sequence": 4294967295, "scriptSig": {"hex": "483045022100d73dfbdd55c9b83c41bd037607a6d7abda366ef3c2ad601dcacd9cb9154dfc16022046020cae2b098d94240d1abfed76cf8e128765dda187ca1ccc8c1f69476f0a0c0121030df82aaf131075b40600cbb037d8d48d63b3ff342c5430a98695526dabaca9de", "asm": "3045022100d73dfbdd55c9b83c41bd037607a6d7abda366ef3c2ad601dcacd9cb9154dfc16022046020cae2b098d94240d1abfed76cf8e128765dda187ca1ccc8c1f69476f0a0c[ALL] 030df82aaf131075b40600cbb037d8d48d63b3ff342c5430a98695526dabaca9de"}, "vout": 1, "txid": "713b38894f3d536028becd5892c7579d4509332d2d8ff9cf0d9e6d10caad6bd6"}], "txid": "94c37869325243af29cd609e07480e30b48342b78f31d6d4d0f4b5596204c2cb", "blocktime": 1537873282, "version": 1, "confirmations": 11484, "time": 1537873282, "locktime": 0, "vsize": 284, "size": 284}