{"hash": "94c35929cdf74290a560947fda03273000796a19f484d678c05a5637a6235669", "blockhash": "0000000000000000000e13cef7c366c0283d82e591d1acd082e914b08063cdf1", "vout": [{"scriptPubKey": {"reqSigs": 1, "hex": "76a91495072905d2b1d05b6b09a39b8114d58c56698adb88ac", "addresses": ["1EazG5wtwWFnjbRMYeYJKWDEgibkk28tAF"], "asm": "OP_DUP OP_HASH160 95072905d2b1d05b6b09a39b8114d58c56698adb OP_EQUALVERIFY OP_CHECKSIG", "type": "pubkeyhash"}, "value": 0.01182986, "n": 0}, {"scriptPubKey": {"reqSigs": 1, "hex": "76a914c88ebe91e4f76339d573915e437e0d68e63fbc0f88ac", "addresses": ["1KHT9RU1MBHTBdDUxH2fk3cgpS1LeeRM4u"], "asm": "OP_DUP OP_HASH160 c88ebe91e4f76339d573915e437e0d68e63fbc0f OP_EQUALVERIFY OP_CHECKSIG", "type": "pubkeyhash"}, "value": 0.08008576, "n": 1}], "hex": "010000000183388a2f73e2a80466ff0c7dba8a6fe26b03fcf46f67a4f2e323a51fd3a69bdc010000006a4730440220172182650688889251df89ffec7577435eff943cb534cb119c3b2fc7f74986a102200919cf55cf3ae96682cce54bde710bce25626870214e4b539e7574994a818b350121033d046a874b975b5e9aa0a86f9653e4c62cd7096e5c088b96e9c55b60e5be6041ffffffff020a0d1200000000001976a91495072905d2b1d05b6b09a39b8114d58c56698adb88ac80337a00000000001976a914c88ebe91e4f76339d573915e437e0d68e63fbc0f88ac00000000", "vin": [{"sequence": 4294967295, "scriptSig": {"hex": "4730440220172182650688889251df89ffec7577435eff943cb534cb119c3b2fc7f74986a102200919cf55cf3ae96682cce54bde710bce25626870214e4b539e7574994a818b350121033d046a874b975b5e9aa0a86f9653e4c62cd7096e5c088b96e9c55b60e5be6041", "asm": "30440220172182650688889251df89ffec7577435eff943cb534cb119c3b2fc7f74986a102200919cf55cf3ae96682cce54bde710bce25626870214e4b539e7574994a818b35[ALL] 033d046a874b975b5e9aa0a86f9653e4c62cd7096e5c088b96e9c55b60e5be6041"}, "vout": 1, "txid": "dc9ba6d31fa523e3f2a4676ff4fc036be26f8aba7d0cff6604a8e2732f8a3883"}], "txid": "94c35929cdf74290a560947fda03273000796a19f484d678c05a5637a6235669", "blocktime": 1537871767, "version": 1, "confirmations": 11490, "time": 1537871767, "locktime": 0, "vsize": 225, "size": 225}