{"hash": "94c6ed06a0dafd9e46dca36d83449c02d49ac3492b79b7d1e762177f2c29a041", "blockhash": "0000000000000000000baef3f32e3676a92c3b2e5da21b426e4f302fc371ce76", "vout": [{"scriptPubKey": {"reqSigs": 1, "hex": "76a9144646fa90a67a7eb66190d65935ce7285c791a2d988ac", "addresses": ["17QbL7w1zfaZUwC7f3D2onmcPfFDeQdDKW"], "asm": "OP_DUP OP_HASH160 4646fa90a67a7eb66190d65935ce7285c791a2d9 OP_EQUALVERIFY OP_CHECKSIG", "type": "pubkeyhash"}, "value": 0.15, "n": 0}, {"scriptPubKey": {"reqSigs": 1, "hex": "76a9148c9944b3618ed6ee2c5e2cb7cc36f716a1c4862888ac", "addresses": ["1DpRD8U8XbtphgkQ8T8rAZCD9jRqxgyi61"], "asm": "OP_DUP OP_HASH160 8c9944b3618ed6ee2c5e2cb7cc36f716a1c48628 OP_EQUALVERIFY OP_CHECKSIG", "type": "pubkeyhash"}, "value": 0.19438029, "n": 1}], "hex": "0100000001d1675c5109cc457ff2bad471198a305bbf0ec81b20509ac81a9d3a2dfea139ab010000006a47304402202ba8ce91f94d4f6569f04d47add2b701fd6d7b29502c58a3474c8b82ade6a99f0220625ce601ff07ffc4a78da55b1de29bd199c500f4b1ac0db8db57ab84ee25714d012102700719d004a2edfae6d6e17aa148ae084285c74b9be236ef2de988d19ecffca1fdffffff02c0e1e400000000001976a9144646fa90a67a7eb66190d65935ce7285c791a2d988accd992801000000001976a9148c9944b3618ed6ee2c5e2cb7cc36f716a1c4862888ac17490800", "vin": [{"sequence": 4294967293, "scriptSig": {"hex": "47304402202ba8ce91f94d4f6569f04d47add2b701fd6d7b29502c58a3474c8b82ade6a99f0220625ce601ff07ffc4a78da55b1de29bd199c500f4b1ac0db8db57ab84ee25714d012102700719d004a2edfae6d6e17aa148ae084285c74b9be236ef2de988d19ecffca1", "asm": "304402202ba8ce91f94d4f6569f04d47add2b701fd6d7b29502c58a3474c8b82ade6a99f0220625ce601ff07ffc4a78da55b1de29bd199c500f4b1ac0db8db57ab84ee25714d[ALL] 02700719d004a2edfae6d6e17aa148ae084285c74b9be236ef2de988d19ecffca1"}, "vout": 1, "txid": "ab39a1fe2d3a9d1ac89a50201bc80ebf5b308a1971d4baf27f45cc09515c67d1"}], "txid": "94c6ed06a0dafd9e46dca36d83449c02d49ac3492b79b7d1e762177f2c29a041", "blocktime": 1537876114, "version": 1, "confirmations": 11459, "time": 1537876114, "locktime": 542999, "vsize": 225, "size": 225}