{"hash": "37c782b197663a9ae580e88a7b19838be0b61b2277cd9e44dee1080921332728", "blockhash": "0000000000000000000dcc0f55137456b1a82d3642486a52398922ac4d620174", "vout": [{"scriptPubKey": {"reqSigs": 1, "hex": "76a914c1caed08ffad6f3dab2d23fbc73e40ad7043efd588ac", "addresses": ["1JfgWZfrXmLkJzj9CvNsWifR8HAXQsVK4G"], "asm": "OP_DUP OP_HASH160 c1caed08ffad6f3dab2d23fbc73e40ad7043efd5 OP_EQUALVERIFY OP_CHECKSIG", "type": "pubkeyhash"}, "value": 0.02748476, "n": 0}, {"scriptPubKey": {"reqSigs": 1, "hex": "a91478221cb35cde13048902e3e27e37eff4658c3b6487", "addresses": ["3CeDsiPnmc1SaR3retv3vF9CUWA85WsKv8"], "asm": "OP_HASH160 78221cb35cde13048902e3e27e37eff4658c3b64 OP_EQUAL", "type": "scripthash"}, "value": 0.057019, "n": 1}], "hex": "01000000000101b9dc0990667f96818d17f52752c4c5fd46efd1c5b06c050c4aa3cc5172301990000000002322002093ab7f18272ef781eb7546d707fb21eb658b6175a35d7dca92fe57ac598e5ef5ffffffff023cf02900000000001976a914c1caed08ffad6f3dab2d23fbc73e40ad7043efd588ac0c0157000000000017a91478221cb35cde13048902e3e27e37eff4658c3b64870400483045022100b517466d08d272a9abb095cec5ca923795e1f94da7e64224a6574ecff4f51bd802205a87df25971f4e03e7184a5182d3a96401e0ad649dc7575fd2c0894b56bbafb20147304402203c7d251a94e91a3d8f592d143dd3fc94c0946646c397bf5cd837fa45d093ea96022037b123c50b16213eed902cef2ed53b915fa86cf0aa143c195776d27ab9d1d1050147522103571bd17b524db5fecb5639d1eca39f0a67de1ec6c16afba97148ffc0061076c621038f2c7ecee34c843be9d886e50ce79e5dc40a1694c0417d60b35340f292ff73fc52ae00000000", "vin": [{"txinwitness": ["", "3045022100b517466d08d272a9abb095cec5ca923795e1f94da7e64224a6574ecff4f51bd802205a87df25971f4e03e7184a5182d3a96401e0ad649dc7575fd2c0894b56bbafb201", "304402203c7d251a94e91a3d8f592d143dd3fc94c0946646c397bf5cd837fa45d093ea96022037b123c50b16213eed902cef2ed53b915fa86cf0aa143c195776d27ab9d1d10501", "522103571bd17b524db5fecb5639d1eca39f0a67de1ec6c16afba97148ffc0061076c621038f2c7ecee34c843be9d886e50ce79e5dc40a1694c0417d60b35340f292ff73fc52ae"], "sequence": 4294967295, "scriptSig": {"hex": "22002093ab7f18272ef781eb7546d707fb21eb658b6175a35d7dca92fe57ac598e5ef5", "asm": "002093ab7f18272ef781eb7546d707fb21eb658b6175a35d7dca92fe57ac598e5ef5"}, "vout": 0, "txid": "9019307251cca34a0c056cb0c5d1ef46fdc5c45227f5178d81967f669009dcb9"}], "txid": "94cf8147961a76e9b42aa4a9f169b93937689340d0d84d7ec17ce76b640a521f", "blocktime": 1537870268, "version": 1, "confirmations": 11518, "time": 1537870268, "locktime": 0, "vsize": 208, "size": 373}