{"hash": "94d075a7ae871475e9837c60b905a4f5305edc93c8f60c70145006ae4ee5441f", "blockhash": "0000000000000000001e0dab787dd257d1dbfcb92a98c2207d5e1078be1f4165", "vout": [{"scriptPubKey": {"reqSigs": 1, "hex": "a91469f375b97de001a504a3511d649e7a6036d53fdf87", "addresses": ["3BMEXaE9KPWPBN3JAycFv4wGCjpBghR7mj"], "asm": "OP_HASH160 69f375b97de001a504a3511d649e7a6036d53fdf OP_EQUAL", "type": "scripthash"}, "value": 0.0016834, "n": 0}, {"scriptPubKey": {"reqSigs": 1, "hex": "00143037cc001be9d4868e8d16ab3a9d208a150dde2f", "addresses": ["bc1qxqmucqqma82gdr5dz64n48fq3g2smh30x7s7yt"], "asm": "0 3037cc001be9d4868e8d16ab3a9d208a150dde2f", "type": "witness_v0_keyhash"}, "value": 1.556e-05, "n": 1}], "hex": "0100000001c0219b08461fe6e52f7134e88e5113497454c7590880868ae9fd841c225a9cf4230000006a4730440220616b1ca4c0bd77f02e26d4c2f4d46faadcf48f18285cc6aeca9a2675da6d210a02204270be48038a766a1bddf944d4098406ed6fbdf131ea54321d795e1045a5f80e012102d6122e5a1f7fcf9674a909ef8a728cb0690a33f21aa37d209251fd7a32f16837ffffffff02949102000000000017a91469f375b97de001a504a3511d649e7a6036d53fdf8714060000000000001600143037cc001be9d4868e8d16ab3a9d208a150dde2f00000000", "vin": [{"sequence": 4294967295, "scriptSig": {"hex": "4730440220616b1ca4c0bd77f02e26d4c2f4d46faadcf48f18285cc6aeca9a2675da6d210a02204270be48038a766a1bddf944d4098406ed6fbdf131ea54321d795e1045a5f80e012102d6122e5a1f7fcf9674a909ef8a728cb0690a33f21aa37d209251fd7a32f16837", "asm": "30440220616b1ca4c0bd77f02e26d4c2f4d46faadcf48f18285cc6aeca9a2675da6d210a02204270be48038a766a1bddf944d4098406ed6fbdf131ea54321d795e1045a5f80e[ALL] 02d6122e5a1f7fcf9674a909ef8a728cb0690a33f21aa37d209251fd7a32f16837"}, "vout": 35, "txid": "f49c5a221c84fde98a86800859c754744913518ee834712fe5e61f46089b21c0"}], "txid": "94d075a7ae871475e9837c60b905a4f5305edc93c8f60c70145006ae4ee5441f", "blocktime": 1537872475, "version": 1, "confirmations": 11486, "time": 1537872475, "locktime": 0, "vsize": 220, "size": 220}