{"hash": "94d1d34ad0e7217b0ae4c2c77bf26de0206b403c164094720ed48eb2126625f5", "blockhash": "0000000000000000001cda96e906b7601b7a6fb1a3b62bca570a9e5d8f4b3de1", "vout": [{"scriptPubKey": {"reqSigs": 1, "hex": "76a914c60be9b50fc9c1a321c41dd64b43fd67fff4fd2088ac", "addresses": ["1K4B4hyq59cJ4EzzN6mmkEHkdv2mYQooZ9"], "asm": "OP_DUP OP_HASH160 c60be9b50fc9c1a321c41dd64b43fd67fff4fd20 OP_EQUALVERIFY OP_CHECKSIG", "type": "pubkeyhash"}, "value": 0.01057465, "n": 0}, {"scriptPubKey": {"reqSigs": 1, "hex": "a91418eb3ccd24dfe14323bfd66f7845e01a7544725c87", "addresses": ["33xmwjeTMmDDBzEZYzwJJE1hHRWFs2no2F"], "asm": "OP_HASH160 18eb3ccd24dfe14323bfd66f7845e01a7544725c OP_EQUAL", "type": "scripthash"}, "value": 0.1399, "n": 1}], "hex": "01000000027d2848d0290dd2c7af8e9d0265862f6b5a6609b0e220b04de383a836c560009e000000006a4730440220700af8d8eb51ed853bbf3070a8a202e13d2ed783ebfd481c8668571837fcb696022079e6c8d589213e76d972ef0751ee7f8b14acbc2663351b939ebac57726be66a8012103a4b491aebb58add43d7da94bc86f77d9ca693e1d95567c7721df8bff4ea56425ffffffff9ede94dea2505fac5a2f0d36abcc8a93b59508103ef42f7ad27d5206e5a33318010000006a473044022009798bac99d7856b1ee1ccca2f51cc4feed87e01f27a08bf6a8a2727ad95363a022041cdc7b2b96641d108f501a6124ad2571feda04ae521d8425d2513393b167675012102c283a2dbcfd43307f7624ac495c66137983dfac81c885efcea332158d6fca827ffffffff02b9221000000000001976a914c60be9b50fc9c1a321c41dd64b43fd67fff4fd2088ac7078d5000000000017a91418eb3ccd24dfe14323bfd66f7845e01a7544725c8700000000", "vin": [{"sequence": 4294967295, "scriptSig": {"hex": "4730440220700af8d8eb51ed853bbf3070a8a202e13d2ed783ebfd481c8668571837fcb696022079e6c8d589213e76d972ef0751ee7f8b14acbc2663351b939ebac57726be66a8012103a4b491aebb58add43d7da94bc86f77d9ca693e1d95567c7721df8bff4ea56425", "asm": "30440220700af8d8eb51ed853bbf3070a8a202e13d2ed783ebfd481c8668571837fcb696022079e6c8d589213e76d972ef0751ee7f8b14acbc2663351b939ebac57726be66a8[ALL] 03a4b491aebb58add43d7da94bc86f77d9ca693e1d95567c7721df8bff4ea56425"}, "vout": 0, "txid": "9e0060c536a883e34db020e2b009665a6b2f8665029d8eafc7d20d29d048287d"}, {"sequence": 4294967295, "scriptSig": {"hex": "473044022009798bac99d7856b1ee1ccca2f51cc4feed87e01f27a08bf6a8a2727ad95363a022041cdc7b2b96641d108f501a6124ad2571feda04ae521d8425d2513393b167675012102c283a2dbcfd43307f7624ac495c66137983dfac81c885efcea332158d6fca827", "asm": "3044022009798bac99d7856b1ee1ccca2f51cc4feed87e01f27a08bf6a8a2727ad95363a022041cdc7b2b96641d108f501a6124ad2571feda04ae521d8425d2513393b167675[ALL] 02c283a2dbcfd43307f7624ac495c66137983dfac81c885efcea332158d6fca827"}, "vout": 1, "txid": "1833a3e506527dd27a2ff43e100895b5938accab360d2f5aac5f50a2de94de9e"}], "txid": "94d1d34ad0e7217b0ae4c2c77bf26de0206b403c164094720ed48eb2126625f5", "blocktime": 1537873282, "version": 1, "confirmations": 11484, "time": 1537873282, "locktime": 0, "vsize": 370, "size": 370}