{"hash": "94d2770684309ed57a464cc2f8ac0bb21afe75f6de4bcf41f329e978727182eb", "blockhash": "00000000000000000017f5eb5941039fbcee6240d03bc1f2f8e35350df66a1d8", "vout": [{"scriptPubKey": {"type": "nulldata", "hex": "6a146f6d6e69000000000000001f0000002b06f03800", "asm": "OP_RETURN 6f6d6e69000000000000001f0000002b06f03800"}, "value": 0.0, "n": 0}, {"scriptPubKey": {"reqSigs": 1, "hex": "76a914a25dec4d0011064ef106a983c39c7a540699f22088ac", "addresses": ["1FoWyxwPXuj4C6abqwhjDWdz6D4PZgYRjA"], "asm": "OP_DUP OP_HASH160 a25dec4d0011064ef106a983c39c7a540699f220 OP_EQUALVERIFY OP_CHECKSIG", "type": "pubkeyhash"}, "value": 0.01985564, "n": 1}, {"scriptPubKey": {"reqSigs": 1, "hex": "76a91488744487beada8840ed32d0150d73454dbae785f88ac", "addresses": ["1DSWBWayhfmWNVX95hE1dXrfuF1uHpvBk9"], "asm": "OP_DUP OP_HASH160 88744487beada8840ed32d0150d73454dbae785f OP_EQUALVERIFY OP_CHECKSIG", "type": "pubkeyhash"}, "value": 5.46e-06, "n": 2}], "hex": "0100000001a36394416372fd2d16275682b7d2d2139c703b57942fe512c6229ddab906d437010000006a47304402200b1eb4abb19f0b141f61dcc56d06a85afb62413d40db75f08074477dec1aedbb02200a7a2a4d806a218ee4ae24efb337c209ad2299a907bc79d9f1dd3c904412dcf1012103da5bac7b36d5aa38f531c6b9601e21bb598a4b6716ebed38b009a55dabde9440feffffff030000000000000000166a146f6d6e69000000000000001f0000002b06f038001c4c1e00000000001976a914a25dec4d0011064ef106a983c39c7a540699f22088ac22020000000000001976a91488744487beada8840ed32d0150d73454dbae785f88ac15490800", "vin": [{"sequence": 4294967294, "scriptSig": {"hex": "47304402200b1eb4abb19f0b141f61dcc56d06a85afb62413d40db75f08074477dec1aedbb02200a7a2a4d806a218ee4ae24efb337c209ad2299a907bc79d9f1dd3c904412dcf1012103da5bac7b36d5aa38f531c6b9601e21bb598a4b6716ebed38b009a55dabde9440", "asm": "304402200b1eb4abb19f0b141f61dcc56d06a85afb62413d40db75f08074477dec1aedbb02200a7a2a4d806a218ee4ae24efb337c209ad2299a907bc79d9f1dd3c904412dcf1[ALL] 03da5bac7b36d5aa38f531c6b9601e21bb598a4b6716ebed38b009a55dabde9440"}, "vout": 1, "txid": "37d406b9da9d22c612e52f94573b709c13d2d2b7825627162dfd7263419463a3"}], "txid": "94d2770684309ed57a464cc2f8ac0bb21afe75f6de4bcf41f329e978727182eb", "blocktime": 1537874412, "version": 1, "confirmations": 11467, "time": 1537874412, "locktime": 542997, "vsize": 256, "size": 256}