{"hash": "94d4af20178dc6291da407751675148447b6ad2bb18d995ce88c7669729268d1", "blockhash": "000000000000000000022b45ed06c6f4ccd3cf7fb5ba4856ebd2e58215665228", "vout": [{"scriptPubKey": {"type": "nulldata", "hex": "6a146f6d6e69000000000000001f0000004a13abdb77", "asm": "OP_RETURN 6f6d6e69000000000000001f0000004a13abdb77"}, "value": 0.0, "n": 0}, {"scriptPubKey": {"reqSigs": 1, "hex": "76a9149bf2c45be1a0811d222a554eb8cf0f59d0a9149a88ac", "addresses": ["1FDaZUz1Cb5nH1bawRbJtpY7maiSYZC6DS"], "asm": "OP_DUP OP_HASH160 9bf2c45be1a0811d222a554eb8cf0f59d0a9149a OP_EQUALVERIFY OP_CHECKSIG", "type": "pubkeyhash"}, "value": 0.00013346, "n": 1}, {"scriptPubKey": {"reqSigs": 1, "hex": "76a9140ea2c16f9786cdfea33384770c72f226ae93ef3f88ac", "addresses": ["12LPS9L3BtpHJxCw7CBABQHFsKc7wFRjAR"], "asm": "OP_DUP OP_HASH160 0ea2c16f9786cdfea33384770c72f226ae93ef3f OP_EQUALVERIFY OP_CHECKSIG", "type": "pubkeyhash"}, "value": 5.46e-06, "n": 2}], "hex": "0100000001cb3434505cb6c451fb9ab5f509f35863d0fec6922ac7712f28ca53ff9d62d7a9000000006b483045022100cf9b576ddc5a89aaafc104a09891b9ede1fa0ae59dde5e927e23dcbd5266945c0220382ba50113cf2a08b06dd616acf6f5eec58dcc08735d6d11a352ce9a5528d1460121023ef984ad8839ed42baf14925faaf6f9e484e7641b7eb24b7a8a1759b6edb1f62feffffff030000000000000000166a146f6d6e69000000000000001f0000004a13abdb7722340000000000001976a9149bf2c45be1a0811d222a554eb8cf0f59d0a9149a88ac22020000000000001976a9140ea2c16f9786cdfea33384770c72f226ae93ef3f88ac0b490800", "vin": [{"sequence": 4294967294, "scriptSig": {"hex": "483045022100cf9b576ddc5a89aaafc104a09891b9ede1fa0ae59dde5e927e23dcbd5266945c0220382ba50113cf2a08b06dd616acf6f5eec58dcc08735d6d11a352ce9a5528d1460121023ef984ad8839ed42baf14925faaf6f9e484e7641b7eb24b7a8a1759b6edb1f62", "asm": "3045022100cf9b576ddc5a89aaafc104a09891b9ede1fa0ae59dde5e927e23dcbd5266945c0220382ba50113cf2a08b06dd616acf6f5eec58dcc08735d6d11a352ce9a5528d146[ALL] 023ef984ad8839ed42baf14925faaf6f9e484e7641b7eb24b7a8a1759b6edb1f62"}, "vout": 0, "txid": "a9d7629dff53ca282f71c72a92c6fed06358f309f5b59afb51c4b65c503434cb"}], "txid": "94d4af20178dc6291da407751675148447b6ad2bb18d995ce88c7669729268d1", "blocktime": 1537869901, "version": 1, "confirmations": 11523, "time": 1537869901, "locktime": 542987, "vsize": 257, "size": 257}