{"hash": "c22ada06fba4e72f19dd322aafd5e411684447b24d5dde896d82030e207d3535", "blockhash": "0000000000000000001e0dab787dd257d1dbfcb92a98c2207d5e1078be1f4165", "vout": [{"scriptPubKey": {"reqSigs": 1, "hex": "76a91449af0722840ce9974c2fd1698d90219477913cfd88ac", "addresses": ["17ic19tZDSMY91FgQhYm4VPHGFT8bh8ohj"], "asm": "OP_DUP OP_HASH160 49af0722840ce9974c2fd1698d90219477913cfd OP_EQUALVERIFY OP_CHECKSIG", "type": "pubkeyhash"}, "value": 0.0058905, "n": 0}, {"scriptPubKey": {"reqSigs": 1, "hex": "a9149649ad6d2730bb28020a268d9d80df10a9f74ad487", "addresses": ["3FPfYWwfMfKMGY7fuPHvz2b73RhTNGzsm3"], "asm": "OP_HASH160 9649ad6d2730bb28020a268d9d80df10a9f74ad4 OP_EQUAL", "type": "scripthash"}, "value": 13.87846783, "n": 1}], "hex": "01000000000101bd74dd7fdd7c78f2498a1a99a2bb16707748eb72b3033e892b210e449aed48ee01000000232200207768efcc1e5eb3d28410fac3f45831004c860cc24cddd940a616b34324823fceffffffff02fafc0800000000001976a91449af0722840ce9974c2fd1698d90219477913cfd88ac7fdcb8520000000017a9149649ad6d2730bb28020a268d9d80df10a9f74ad4870400483045022100e3f85f89b2edb3e2c6770f02023ee24bbe4d4baf2c3709a1589af13af373636c02205619cfbca39d58111a00cc6959f56ba310e11cb8be16c6477e0c5393fb95f42e0147304402200b72d8108944b66343251b3619c68f375e4e7d2e20a8e7ca7cd9072f8f54501802205be6eed6f575623247a6315f263b5668e469b93d0113fc5f0fa4d816107a67eb0147522102529d5d1f6733ab45d9d50e07db42c7f6b967ae321c38b726c2247f149959b8262103d0c936a5988dd8421c63240496b723b0ec42400c38b9350e32c2eb4f47d8796952ae00000000", "vin": [{"txinwitness": ["", "3045022100e3f85f89b2edb3e2c6770f02023ee24bbe4d4baf2c3709a1589af13af373636c02205619cfbca39d58111a00cc6959f56ba310e11cb8be16c6477e0c5393fb95f42e01", "304402200b72d8108944b66343251b3619c68f375e4e7d2e20a8e7ca7cd9072f8f54501802205be6eed6f575623247a6315f263b5668e469b93d0113fc5f0fa4d816107a67eb01", "522102529d5d1f6733ab45d9d50e07db42c7f6b967ae321c38b726c2247f149959b8262103d0c936a5988dd8421c63240496b723b0ec42400c38b9350e32c2eb4f47d8796952ae"], "sequence": 4294967295, "scriptSig": {"hex": "2200207768efcc1e5eb3d28410fac3f45831004c860cc24cddd940a616b34324823fce", "asm": "00207768efcc1e5eb3d28410fac3f45831004c860cc24cddd940a616b34324823fce"}, "vout": 1, "txid": "ee48ed9a440e212b893e03b372eb48777016bba2991a8a49f2787cdd7fdd74bd"}], "txid": "94d9efa7d259924f7857a29b990f25f154f982f1668d79deca661693aa4747e2", "blocktime": 1537872475, "version": 1, "confirmations": 11487, "time": 1537872475, "locktime": 0, "vsize": 208, "size": 373}