{"hash": "94d96e82dfd0b1985ec37538a460376fb7daedfe70994d20d56d4d272f5e5250", "blockhash": "0000000000000000000dcc0f55137456b1a82d3642486a52398922ac4d620174", "vout": [{"scriptPubKey": {"reqSigs": 1, "hex": "76a914e9a4862af58496794480476c5ca007b5cbd2a90988ac", "addresses": ["1NJPY2nrxtJyDfJqM66fHenWCaaFSBTQgT"], "asm": "OP_DUP OP_HASH160 e9a4862af58496794480476c5ca007b5cbd2a909 OP_EQUALVERIFY OP_CHECKSIG", "type": "pubkeyhash"}, "value": 0.068344, "n": 0}, {"scriptPubKey": {"reqSigs": 1, "hex": "76a9147c96643755c44ecd12e4ebd3487617ac2a8ea9c588ac", "addresses": ["1CMkxAq39ULUsuaNrs34NcKc3E8rGp6uVk"], "asm": "OP_DUP OP_HASH160 7c96643755c44ecd12e4ebd3487617ac2a8ea9c5 OP_EQUALVERIFY OP_CHECKSIG", "type": "pubkeyhash"}, "value": 1.1e-05, "n": 1}], "hex": "01000000016d437e9e832d6b285461198fc2e487920ff76f9927ee0a1e1acaab9ddffab142010000006b483045022100a4eb284c62263b29762a47c28bb44753108fcdd5e399ed41ff1c3828ad144cab022014b6bcb1ded3d5af422f716cf23275e9b1bc394a676730fa0a722d597de124970121035fbf4e62585f646c4b071051a8e443b801ee4fd162b2d0783925fd1b7a376f99ffffffff02e0486800000000001976a914e9a4862af58496794480476c5ca007b5cbd2a90988ac4c040000000000001976a9147c96643755c44ecd12e4ebd3487617ac2a8ea9c588ac00000000", "vin": [{"sequence": 4294967295, "scriptSig": {"hex": "483045022100a4eb284c62263b29762a47c28bb44753108fcdd5e399ed41ff1c3828ad144cab022014b6bcb1ded3d5af422f716cf23275e9b1bc394a676730fa0a722d597de124970121035fbf4e62585f646c4b071051a8e443b801ee4fd162b2d0783925fd1b7a376f99", "asm": "3045022100a4eb284c62263b29762a47c28bb44753108fcdd5e399ed41ff1c3828ad144cab022014b6bcb1ded3d5af422f716cf23275e9b1bc394a676730fa0a722d597de12497[ALL] 035fbf4e62585f646c4b071051a8e443b801ee4fd162b2d0783925fd1b7a376f99"}, "vout": 1, "txid": "42b1fadf9dabca1a1e0aee27996ff70f9287e4c28f196154286b2d839e7e436d"}], "txid": "94d96e82dfd0b1985ec37538a460376fb7daedfe70994d20d56d4d272f5e5250", "blocktime": 1537870268, "version": 1, "confirmations": 11518, "time": 1537870268, "locktime": 0, "vsize": 226, "size": 226}