{"hash": "94dd4519697d2073893c3a5049b3db65cff1af51e57c2a4da15a7e0a92e2c1d6", "blockhash": "0000000000000000001f0ddff1eddb255c1121bcd4da4f1bc9a0da00cae72433", "vout": [{"scriptPubKey": {"reqSigs": 1, "hex": "76a9146da20d9e7b266d072e1a8b72621a7813724d1c9f88ac", "addresses": ["1AzgnZfe8htTSfUpQCSoSenN9ceTGFj9Uv"], "asm": "OP_DUP OP_HASH160 6da20d9e7b266d072e1a8b72621a7813724d1c9f OP_EQUALVERIFY OP_CHECKSIG", "type": "pubkeyhash"}, "value": 0.0482137, "n": 0}, {"scriptPubKey": {"reqSigs": 1, "hex": "76a914760d0c9b326f2495c28cae0fcd091aacb64e324f88ac", "addresses": ["1BmCNKAvuehFWiiqaAXGXWSudoKL8CshEJ"], "asm": "OP_DUP OP_HASH160 760d0c9b326f2495c28cae0fcd091aacb64e324f OP_EQUALVERIFY OP_CHECKSIG", "type": "pubkeyhash"}, "value": 16.26122934, "n": 1}], "hex": "0200000001bed69420e323cf7381a57752403782c19b64eed2cd5d535bc78226a8575f3fed010000006a47304402200d908ffdd633c12e9d12f324d0f9ff17bd8054c06a8c401d2adc994cd03e43ca02206f7629141b66cdd976640cd39621cf9135d1dd5fd861334ac2c1cb83bff22dd40121020a9bc61830f508a62306ad836583f5382642b001a2b640104aba3c1e26420524ffffffff027a914900000000001976a9146da20d9e7b266d072e1a8b72621a7813724d1c9f88acb6aaec60000000001976a914760d0c9b326f2495c28cae0fcd091aacb64e324f88ac00000000", "vin": [{"sequence": 4294967295, "scriptSig": {"hex": "47304402200d908ffdd633c12e9d12f324d0f9ff17bd8054c06a8c401d2adc994cd03e43ca02206f7629141b66cdd976640cd39621cf9135d1dd5fd861334ac2c1cb83bff22dd40121020a9bc61830f508a62306ad836583f5382642b001a2b640104aba3c1e26420524", "asm": "304402200d908ffdd633c12e9d12f324d0f9ff17bd8054c06a8c401d2adc994cd03e43ca02206f7629141b66cdd976640cd39621cf9135d1dd5fd861334ac2c1cb83bff22dd4[ALL] 020a9bc61830f508a62306ad836583f5382642b001a2b640104aba3c1e26420524"}, "vout": 1, "txid": "ed3f5f57a82682c75b535dcdd2ee649bc18237405277a58173cf23e32094d6be"}], "txid": "94dd4519697d2073893c3a5049b3db65cff1af51e57c2a4da15a7e0a92e2c1d6", "blocktime": 1537872018, "version": 2, "confirmations": 11489, "time": 1537872018, "locktime": 0, "vsize": 225, "size": 225}