{"hash": "8080a4aaabe3619fc67cf9e3c21214a417f13f26a5568c23489a0738ccc4b531", "blockhash": "0000000000000000000dcc0f55137456b1a82d3642486a52398922ac4d620174", "vout": [{"scriptPubKey": {"reqSigs": 1, "hex": "00145524be9186aab61c3073a0d0fb3a8fb68c97724a", "addresses": ["bc1q25jtayvx42mpcvrn5rg0kw50k6xfwuj254nxp4"], "asm": "0 5524be9186aab61c3073a0d0fb3a8fb68c97724a", "type": "witness_v0_keyhash"}, "value": 1.241e-05, "n": 0}, {"scriptPubKey": {"reqSigs": 1, "hex": "a914e51d56458fc87308c32ab920a71e5371402fe2a887", "addresses": ["3NaToqsFUtZGgDTFeXvXcD4VRRuQNz61tt"], "asm": "OP_HASH160 e51d56458fc87308c32ab920a71e5371402fe2a8 OP_EQUAL", "type": "scripthash"}, "value": 0.00288, "n": 1}], "hex": "010000000001013a30738f5e5f6e0b38bb0822eff4101131f29e8165f1af87b99948d74c54d3f60100000000ffffffff02d9040000000000001600145524be9186aab61c3073a0d0fb3a8fb68c97724a006504000000000017a914e51d56458fc87308c32ab920a71e5371402fe2a88702473044022068521f9fbfb19ce6ab7a065be600162e885ec684488d68b0bced6346d1f1468a02202b304b67cef0437d5f07da9b9a8fd0751688aa269f79fa1ff7b5674e9b395a320121030637a8e7338bf5f0f630d76b36c3420ba48c45cef1dd7821230118966da358db00000000", "vin": [{"txinwitness": ["3044022068521f9fbfb19ce6ab7a065be600162e885ec684488d68b0bced6346d1f1468a02202b304b67cef0437d5f07da9b9a8fd0751688aa269f79fa1ff7b5674e9b395a3201", "030637a8e7338bf5f0f630d76b36c3420ba48c45cef1dd7821230118966da358db"], "sequence": 4294967295, "scriptSig": {"hex": "", "asm": ""}, "vout": 1, "txid": "f6d3544cd74899b987aff165819ef2311110f4ef2208bb380b6e5f5e8f73303a"}], "txid": "94df7ade00fffb657b96f2294660c35d21abb4c5406ad8703316355e495535e2", "blocktime": 1537870268, "version": 1, "confirmations": 11518, "time": 1537870268, "locktime": 0, "vsize": 142, "size": 223}