{"hash": "94e32b30497cf1df8a30cf664e21ff93a1a6a788477f8ccd407ca5e2a055a2bd", "blockhash": "0000000000000000000dcc0f55137456b1a82d3642486a52398922ac4d620174", "vout": [{"scriptPubKey": {"reqSigs": 1, "hex": "a914fd2ae456aa28a65862cb01bb6506a13fbf363a8c87", "addresses": ["3QmeGG8HDge2dJhGGQy4uoFnzq6noEPD8q"], "asm": "OP_HASH160 fd2ae456aa28a65862cb01bb6506a13fbf363a8c OP_EQUAL", "type": "scripthash"}, "value": 0.06390297, "n": 0}], "hex": "010000000189b0f08d4a5872e9377ce56e0628459c75d707953232697d8fef836607aa8ec6130000006a473044022043be91f06c9031c39067ec08a705b89285b67da541913b28ca1ea14e8048ebb802207d7f3eebc6ce5a0b3ae29e608ec5444206c6df7b3df443f273daaaa1637fa9a4012103ed8ffe8cd13a59201c4f00c59793b5c2daa04d02a06c67b54e4b3c555f9a9e7dfeffffff01198261000000000017a914fd2ae456aa28a65862cb01bb6506a13fbf363a8c870c490800", "vin": [{"sequence": 4294967294, "scriptSig": {"hex": "473044022043be91f06c9031c39067ec08a705b89285b67da541913b28ca1ea14e8048ebb802207d7f3eebc6ce5a0b3ae29e608ec5444206c6df7b3df443f273daaaa1637fa9a4012103ed8ffe8cd13a59201c4f00c59793b5c2daa04d02a06c67b54e4b3c555f9a9e7d", "asm": "3044022043be91f06c9031c39067ec08a705b89285b67da541913b28ca1ea14e8048ebb802207d7f3eebc6ce5a0b3ae29e608ec5444206c6df7b3df443f273daaaa1637fa9a4[ALL] 03ed8ffe8cd13a59201c4f00c59793b5c2daa04d02a06c67b54e4b3c555f9a9e7d"}, "vout": 19, "txid": "c68eaa076683ef8f7d6932329507d7759c4528066ee57c37e972584a8df0b089"}], "txid": "94e32b30497cf1df8a30cf664e21ff93a1a6a788477f8ccd407ca5e2a055a2bd", "blocktime": 1537870268, "version": 1, "confirmations": 11516, "time": 1537870268, "locktime": 542988, "vsize": 189, "size": 189}