{"hash": "94e57248ec9dc07555bb7f1b775f9d4bac1cf8bade991fbe8aff23060292462c", "blockhash": "0000000000000000001cda96e906b7601b7a6fb1a3b62bca570a9e5d8f4b3de1", "vout": [{"scriptPubKey": {"reqSigs": 1, "hex": "21020e46e79a2a8d12b9b5d12c7a91adb4e454edfae43c0a0cb805427d2ac7613fd9ac", "addresses": ["1P3rU1Nk1pmc2BiWC8dEy9bZa1ZbMp5jfg"], "asm": "020e46e79a2a8d12b9b5d12c7a91adb4e454edfae43c0a0cb805427d2ac7613fd9 OP_CHECKSIG", "type": "pubkey"}, "value": 0.000988, "n": 0}, {"scriptPubKey": {"type": "nulldata", "hex": "6a28b89f81fa0e2028c8cea440fa99c3f825c98448a1b8b0a3b3bf525a7dbc066f0b06a40f004b4d4400", "asm": "OP_RETURN b89f81fa0e2028c8cea440fa99c3f825c98448a1b8b0a3b3bf525a7dbc066f0b06a40f004b4d4400"}, "value": 0.0, "n": 1}], "hex": "010000000da12d4054dae42c6602ef699449035a4f3265263ee484164855bfbcf73b89fe340200000048473044022027bb973ab34957c91cf3b518e94128bffeff77a95d6daad44606504ad2d056d20220515772f5bca3d708fa2cd504cd36bf5caaa9c76e50f72aee6188c415f600057701ffffffffb4d4bc864cae404022821eb2c29b51fa9d2a31f5c3c37886cb3026401ea4990b2300000048473044022071334a6b5bb72c5467646b43a6fa2d33c01ac1a03fc286e289f87f7c4ac5720d022074f3dac5126ab6b2a99a724f9cbc6f3fb1d0ba6aaef28f1e1acdd31e0a882d1601ffffffff158f0fbca9c44d22481e8f4c1c2947142ee574b4ce4ee5d4a60e7d342041b3ed1500000048473044022100c9e2bf8f185306419279a143e07f4640a79564ddd76ad7c80d1c7e33b739a439021f7e274049a7ef9268579c8ed007e05983e60f4b488a22c060b0c6fc545e501701ffffffff27637063b47e802cf916639c086da9ae70dba41474e40a233db4f34987ca9d142100000049483045022100906fff110fd06f8995f286916d3314b6f8ddbb28fa6866f0b83bdcc7ecace76f02207fa6257b288cf837759483ad74327ce3e873d47106f9c2bcd8f9b41a6fc52c9401ffffffff5b5e78893a45f3ebfadc432a911e49e2b9a522bd947ce700d41a3e46bdf217000400000049483045022100b4f7803262afaa471646603df0229412b07c33fa79feaa0d7834e6573954558a02204ddbc0a3c626c3f3f8a59073cbee3ffef3c5373d3028989356706a73d2fabda301ffffffff958fc796e6ce42cac976709e48f871294ab1a15d4c133e51f143190c5b8550b20000000049483045022100c989446a36ca8f803d842f403487bd759821f42ddc495293ce0d3d1eb8aa8e27022037f8bef7946f2682cee3e7510eb56f3e60ed492462e971390c365e9489ce634701ffffffff25f40dc8bd7150b2956af353071e1c25bda6dea66a7f6393cee58c41ec6641401500000049483045022100e16f372aeb5667d93d7f3a63c7083495f80f3e35fe0288a5ab1a339826d3fa6302205e4ec3e7dbf306ab6b87d991b62a7575bc6f92a89ec86d8888c639d6d85e85dc01ffffffffb02a7e4f6b4faa8a37bad85ddb2093ea68c89bdbacb9996540f3aeb0787c8e68060000004948304502210080e491e05f516181c0c869e352c3b884839034277e31c35e213dd0f5da6258990220554ec52d8ddf08ecafdfa27d8b7665f418b092d2b5b4d09488c3f73eb76ea89a01ffffffffd9063c521055769025df3d2011f3a9465b0bb8f6ee206bdab5656f6cf704d29a010000004847304402201af044d24271246890a51476e2da3a01b694cede54198d1a472624fde7e35ba402201989f82f4bd85bfda3de2440f0a06bef8d876ea274cd117046253bc7c809b06701ffffffff262d2b6f4990f2a67cb60f1a9ef2287f06e2933eb7212cf1e092fa75487a67b40100000048473044022052786f7af809609c39dbcbae0bd9ea1f4542869a9b2f11aa6dfcb87f60ed9b4702200f90b6051455b59165c8edc7db0952e688d31b18523c84822e43d1e13603c73901ffffffff704cf182546917c3e578d780f0272c21db73358d2ce1ce67b82c841ec351f993140000004948304502210097ed655d49daba3acf7d7da91854818e68db2e0d1c0e98adcc87b4e3b6c9a191022046f8f6f5af2eefe0e224d283730518aca22c55a5ba8275b4a1aefa08bfc9f40401ffffffff36415d47c1d5f975af09df59394e141f95d4be238f411ddc8439c7dfbc6b29f00f0000004847304402204951cd7182dcbe5ab1fd808438b5d6d9f882b3247ba5876603d1777d54993e09022072e4421a8c96e50369317614b2a49b03a05a25116b51d236bea7cb761a3abd0201ffffffffaf795fc9ebe326c6d5984065aec2824939a39728cebe2d5b7b08567f45a810750e01000049483045022100eec467bdd7282e66d00683abce2e713e17522b5520ded7c08b6c752bf17813c90220696cfca2bcac8b46cc42285c69566e7ad29aff9ada55f30a1f1c283aa6a20f2101ffffffff02f0810100000000002321020e46e79a2a8d12b9b5d12c7a91adb4e454edfae43c0a0cb805427d2ac7613fd9ac00000000000000002a6a28b89f81fa0e2028c8cea440fa99c3f825c98448a1b8b0a3b3bf525a7dbc066f0b06a40f004b4d440000000000", "vin": [{"sequence": 4294967295, "scriptSig": {"hex": "473044022027bb973ab34957c91cf3b518e94128bffeff77a95d6daad44606504ad2d056d20220515772f5bca3d708fa2cd504cd36bf5caaa9c76e50f72aee6188c415f600057701", "asm": "3044022027bb973ab34957c91cf3b518e94128bffeff77a95d6daad44606504ad2d056d20220515772f5bca3d708fa2cd504cd36bf5caaa9c76e50f72aee6188c415f6000577[ALL]"}, "vout": 2, "txid": "34fe893bf7bcbf55481684e43e2665324f5a03499469ef02662ce4da54402da1"}, {"sequence": 4294967295, "scriptSig": {"hex": "473044022071334a6b5bb72c5467646b43a6fa2d33c01ac1a03fc286e289f87f7c4ac5720d022074f3dac5126ab6b2a99a724f9cbc6f3fb1d0ba6aaef28f1e1acdd31e0a882d1601", "asm": "3044022071334a6b5bb72c5467646b43a6fa2d33c01ac1a03fc286e289f87f7c4ac5720d022074f3dac5126ab6b2a99a724f9cbc6f3fb1d0ba6aaef28f1e1acdd31e0a882d16[ALL]"}, "vout": 35, "txid": "0b99a41e402630cb8678c3c3f5312a9dfa519bc2b21e82224040ae4c86bcd4b4"}, {"sequence": 4294967295, "scriptSig": {"hex": "473044022100c9e2bf8f185306419279a143e07f4640a79564ddd76ad7c80d1c7e33b739a439021f7e274049a7ef9268579c8ed007e05983e60f4b488a22c060b0c6fc545e501701", "asm": "3044022100c9e2bf8f185306419279a143e07f4640a79564ddd76ad7c80d1c7e33b739a439021f7e274049a7ef9268579c8ed007e05983e60f4b488a22c060b0c6fc545e5017[ALL]"}, "vout": 21, "txid": "edb34120347d0ea6d4e54eceb474e52e1447291c4c8f1e48224dc4a9bc0f8f15"}, {"sequence": 4294967295, "scriptSig": {"hex": "483045022100906fff110fd06f8995f286916d3314b6f8ddbb28fa6866f0b83bdcc7ecace76f02207fa6257b288cf837759483ad74327ce3e873d47106f9c2bcd8f9b41a6fc52c9401", "asm": "3045022100906fff110fd06f8995f286916d3314b6f8ddbb28fa6866f0b83bdcc7ecace76f02207fa6257b288cf837759483ad74327ce3e873d47106f9c2bcd8f9b41a6fc52c94[ALL]"}, "vout": 33, "txid": "149dca8749f3b43d230ae47414a4db70aea96d089c6316f92c807eb463706327"}, {"sequence": 4294967295, "scriptSig": {"hex": "483045022100b4f7803262afaa471646603df0229412b07c33fa79feaa0d7834e6573954558a02204ddbc0a3c626c3f3f8a59073cbee3ffef3c5373d3028989356706a73d2fabda301", "asm": "3045022100b4f7803262afaa471646603df0229412b07c33fa79feaa0d7834e6573954558a02204ddbc0a3c626c3f3f8a59073cbee3ffef3c5373d3028989356706a73d2fabda3[ALL]"}, "vout": 4, "txid": "0017f2bd463e1ad400e77c94bd22a5b9e2491e912a43dcfaebf3453a89785e5b"}, {"sequence": 4294967295, "scriptSig": {"hex": "483045022100c989446a36ca8f803d842f403487bd759821f42ddc495293ce0d3d1eb8aa8e27022037f8bef7946f2682cee3e7510eb56f3e60ed492462e971390c365e9489ce634701", "asm": "3045022100c989446a36ca8f803d842f403487bd759821f42ddc495293ce0d3d1eb8aa8e27022037f8bef7946f2682cee3e7510eb56f3e60ed492462e971390c365e9489ce6347[ALL]"}, "vout": 0, "txid": "b250855b0c1943f1513e134c5da1b14a2971f8489e7076c9ca42cee696c78f95"}, {"sequence": 4294967295, "scriptSig": {"hex": "483045022100e16f372aeb5667d93d7f3a63c7083495f80f3e35fe0288a5ab1a339826d3fa6302205e4ec3e7dbf306ab6b87d991b62a7575bc6f92a89ec86d8888c639d6d85e85dc01", "asm": "3045022100e16f372aeb5667d93d7f3a63c7083495f80f3e35fe0288a5ab1a339826d3fa6302205e4ec3e7dbf306ab6b87d991b62a7575bc6f92a89ec86d8888c639d6d85e85dc[ALL]"}, "vout": 21, "txid": "404166ec418ce5ce93637f6aa6dea6bd251c1e0753f36a95b25071bdc80df425"}, {"sequence": 4294967295, "scriptSig": {"hex": "48304502210080e491e05f516181c0c869e352c3b884839034277e31c35e213dd0f5da6258990220554ec52d8ddf08ecafdfa27d8b7665f418b092d2b5b4d09488c3f73eb76ea89a01", "asm": "304502210080e491e05f516181c0c869e352c3b884839034277e31c35e213dd0f5da6258990220554ec52d8ddf08ecafdfa27d8b7665f418b092d2b5b4d09488c3f73eb76ea89a[ALL]"}, "vout": 6, "txid": "688e7c78b0aef3406599b9acdb9bc868ea9320db5dd8ba378aaa4f6b4f7e2ab0"}, {"sequence": 4294967295, "scriptSig": {"hex": "47304402201af044d24271246890a51476e2da3a01b694cede54198d1a472624fde7e35ba402201989f82f4bd85bfda3de2440f0a06bef8d876ea274cd117046253bc7c809b06701", "asm": "304402201af044d24271246890a51476e2da3a01b694cede54198d1a472624fde7e35ba402201989f82f4bd85bfda3de2440f0a06bef8d876ea274cd117046253bc7c809b067[ALL]"}, "vout": 1, "txid": "9ad204f76c6f65b5da6b20eef6b80b5b46a9f311203ddf2590765510523c06d9"}, {"sequence": 4294967295, "scriptSig": {"hex": "473044022052786f7af809609c39dbcbae0bd9ea1f4542869a9b2f11aa6dfcb87f60ed9b4702200f90b6051455b59165c8edc7db0952e688d31b18523c84822e43d1e13603c73901", "asm": "3044022052786f7af809609c39dbcbae0bd9ea1f4542869a9b2f11aa6dfcb87f60ed9b4702200f90b6051455b59165c8edc7db0952e688d31b18523c84822e43d1e13603c739[ALL]"}, "vout": 1, "txid": "b4677a4875fa92e0f12c21b73e93e2067f28f29e1a0fb67ca6f290496f2b2d26"}, {"sequence": 4294967295, "scriptSig": {"hex": "48304502210097ed655d49daba3acf7d7da91854818e68db2e0d1c0e98adcc87b4e3b6c9a191022046f8f6f5af2eefe0e224d283730518aca22c55a5ba8275b4a1aefa08bfc9f40401", "asm": "304502210097ed655d49daba3acf7d7da91854818e68db2e0d1c0e98adcc87b4e3b6c9a191022046f8f6f5af2eefe0e224d283730518aca22c55a5ba8275b4a1aefa08bfc9f404[ALL]"}, "vout": 20, "txid": "93f951c31e842cb867cee12c8d3573db212c27f080d778e5c317695482f14c70"}, {"sequence": 4294967295, "scriptSig": {"hex": "47304402204951cd7182dcbe5ab1fd808438b5d6d9f882b3247ba5876603d1777d54993e09022072e4421a8c96e50369317614b2a49b03a05a25116b51d236bea7cb761a3abd0201", "asm": "304402204951cd7182dcbe5ab1fd808438b5d6d9f882b3247ba5876603d1777d54993e09022072e4421a8c96e50369317614b2a49b03a05a25116b51d236bea7cb761a3abd02[ALL]"}, "vout": 15, "txid": "f0296bbcdfc73984dc1d418f23bed4951f144e3959df09af75f9d5c1475d4136"}, {"sequence": 4294967295, "scriptSig": {"hex": "483045022100eec467bdd7282e66d00683abce2e713e17522b5520ded7c08b6c752bf17813c90220696cfca2bcac8b46cc42285c69566e7ad29aff9ada55f30a1f1c283aa6a20f2101", "asm": "3045022100eec467bdd7282e66d00683abce2e713e17522b5520ded7c08b6c752bf17813c90220696cfca2bcac8b46cc42285c69566e7ad29aff9ada55f30a1f1c283aa6a20f21[ALL]"}, "vout": 270, "txid": "7510a8457f56087b5b2dbece2897a3394982c2ae654098d5c626e3ebc95f79af"}], "txid": "94e57248ec9dc07555bb7f1b775f9d4bac1cf8bade991fbe8aff23060292462c", "blocktime": 1537873282, "version": 1, "confirmations": 11480, "time": 1537873282, "locktime": 0, "vsize": 1581, "size": 1581}