{"hash": "9b44fbb570ec680e937466abee2bc15c8994131d8d9638e5787691541f3da312", "blockhash": "0000000000000000000e13cef7c366c0283d82e591d1acd082e914b08063cdf1", "vout": [{"scriptPubKey": {"reqSigs": 1, "hex": "00145a6836d47a55aa09e15a7b47fa831f681a5914bd", "addresses": ["bc1qtf5rd4r62k4qnc260drl4qcldqd9j99a86ng7k"], "asm": "0 5a6836d47a55aa09e15a7b47fa831f681a5914bd", "type": "witness_v0_keyhash"}, "value": 0.39053388, "n": 0}, {"scriptPubKey": {"reqSigs": 1, "hex": "a9141445ceba3f0419b8f683f2f415148c325f71857a87", "addresses": ["33YD4h7wjWtoisg6Tcd9yDp7wkDRkr2GBD"], "asm": "OP_HASH160 1445ceba3f0419b8f683f2f415148c325f71857a OP_EQUAL", "type": "scripthash"}, "value": 0.05614204, "n": 1}], "hex": "01000000000101078074e926f02bc7cbe08d2292278c9ef91e97e6bb4a243dcffe9ea881664b3c1700000017160014df666a16081ea5e11b19b7b0a7afea0098846003ffffffff024ce85302000000001600145a6836d47a55aa09e15a7b47fa831f681a5914bd7caa55000000000017a9141445ceba3f0419b8f683f2f415148c325f71857a870247304402205ca06b9a0fdf2ac24e9d3d5fadfdedb4f06373ed782eb27be853ffb2964ab35502204ac1a5a97f6b7f09d3f895e4064e59507998551a4db25274533d51ca60baefb10121039338c60fbf9a6c0a0e973a5f1df0a0a810440a886089aac71f49a0d2ef0c1e2900000000", "vin": [{"txinwitness": ["304402205ca06b9a0fdf2ac24e9d3d5fadfdedb4f06373ed782eb27be853ffb2964ab35502204ac1a5a97f6b7f09d3f895e4064e59507998551a4db25274533d51ca60baefb101", "039338c60fbf9a6c0a0e973a5f1df0a0a810440a886089aac71f49a0d2ef0c1e29"], "sequence": 4294967295, "scriptSig": {"hex": "160014df666a16081ea5e11b19b7b0a7afea0098846003", "asm": "0014df666a16081ea5e11b19b7b0a7afea0098846003"}, "vout": 23, "txid": "3c4b6681a89efecf3d244abbe6971ef99e8c2792228de0cbc72bf026e9748007"}], "txid": "94e8390153aede6bf3785cb1bee8dd68fe383723670b57ec8e53e89c642a92c9", "blocktime": 1537871767, "version": 1, "confirmations": 11495, "time": 1537871767, "locktime": 0, "vsize": 165, "size": 246}