{"hash": "94eb294e182ff3e8579b65cdcf5e872db028fa7d48ad7fb58533dce0e4da4e6c", "blockhash": "0000000000000000000baef3f32e3676a92c3b2e5da21b426e4f302fc371ce76", "vout": [{"scriptPubKey": {"reqSigs": 1, "hex": "76a914d243e6abb9a60fbff430b421d2df4b7d59ec186088ac", "addresses": ["1LAnF8h3qMGx3TSwNUHVneBZUEpwE4gu3D"], "asm": "OP_DUP OP_HASH160 d243e6abb9a60fbff430b421d2df4b7d59ec1860 OP_EQUALVERIFY OP_CHECKSIG", "type": "pubkeyhash"}, "value": 0.00077314, "n": 0}, {"scriptPubKey": {"reqSigs": 1, "hex": "76a9146c46f532e52076689d1c32402e3496f74db1fa8d88ac", "addresses": ["1AsWyxFa7uPHWo4dgpHyS8BLiLqiKLRu88"], "asm": "OP_DUP OP_HASH160 6c46f532e52076689d1c32402e3496f74db1fa8d OP_EQUALVERIFY OP_CHECKSIG", "type": "pubkeyhash"}, "value": 5.46e-06, "n": 1}, {"scriptPubKey": {"type": "nulldata", "hex": "6a146f6d6e69000000000000001f0000079c1ba39d00", "asm": "OP_RETURN 6f6d6e69000000000000001f0000079c1ba39d00"}, "value": 0.0, "n": 2}], "hex": "01000000019e089929764ee3bd075e8f41cde98d109de0eff6d39970a093aa4c2043da4eee000000006b48304502210090c541cf31cfe9ef36313c4544d6796e5601dcb6c10cc155674f0c8d85c7def802202701810fcb2aec84e656399040c801fe9c6fa09aaa0cfdc342dd8b7e75304df401210271977291b74f1f5f5c42157e8aae804664eaaeccfd097918450d37f28fb94d77ffffffff03022e0100000000001976a914d243e6abb9a60fbff430b421d2df4b7d59ec186088ac22020000000000001976a9146c46f532e52076689d1c32402e3496f74db1fa8d88ac0000000000000000166a146f6d6e69000000000000001f0000079c1ba39d0000000000", "vin": [{"sequence": 4294967295, "scriptSig": {"hex": "48304502210090c541cf31cfe9ef36313c4544d6796e5601dcb6c10cc155674f0c8d85c7def802202701810fcb2aec84e656399040c801fe9c6fa09aaa0cfdc342dd8b7e75304df401210271977291b74f1f5f5c42157e8aae804664eaaeccfd097918450d37f28fb94d77", "asm": "304502210090c541cf31cfe9ef36313c4544d6796e5601dcb6c10cc155674f0c8d85c7def802202701810fcb2aec84e656399040c801fe9c6fa09aaa0cfdc342dd8b7e75304df4[ALL] 0271977291b74f1f5f5c42157e8aae804664eaaeccfd097918450d37f28fb94d77"}, "vout": 0, "txid": "ee4eda43204caa93a07099d3f6efe09d108de9cd418f5e07bde34e762999089e"}], "txid": "94eb294e182ff3e8579b65cdcf5e872db028fa7d48ad7fb58533dce0e4da4e6c", "blocktime": 1537876114, "version": 1, "confirmations": 11460, "time": 1537876114, "locktime": 0, "vsize": 257, "size": 257}