{"hash": "0e368969040f86ef294c1dc9e28046febac57a38870a1f3545f767d29c0a93c4", "blockhash": "000000000000000000022b45ed06c6f4ccd3cf7fb5ba4856ebd2e58215665228", "vout": [{"scriptPubKey": {"reqSigs": 1, "hex": "a914e3bb235cd4db6c53381dc49521b449ae67530e4087", "addresses": ["3NT9Vg6SKoGY1pS1Ji1Mzy48uB43apNDps"], "asm": "OP_HASH160 e3bb235cd4db6c53381dc49521b449ae67530e40 OP_EQUAL", "type": "scripthash"}, "value": 0.01120263, "n": 0}, {"scriptPubKey": {"reqSigs": 1, "hex": "76a914368350fc3800143a4f2e6ba7f6ad7af004ed4dbd88ac", "addresses": ["15yEoNxvvWJ7ts7MYVc43kNmxh3UkWJeMi"], "asm": "OP_DUP OP_HASH160 368350fc3800143a4f2e6ba7f6ad7af004ed4dbd OP_EQUALVERIFY OP_CHECKSIG", "type": "pubkeyhash"}, "value": 0.0018176, "n": 1}], "hex": "020000000001020a38c7cdbdf87b4d385323b06793efb5ecdd1f45ab0e9430022f3f4b7bcdb5410100000017160014c423110c0442f62ade6d75c96f7c75f56d464fb7feffffff3209ec548d75d33dc3c854f98985315db5a2f24c55e9d53e38b0c9e17ac03d9f0b00000017160014a2a9aed932f4d0c38d086f6155db244838796eeefeffffff02071811000000000017a914e3bb235cd4db6c53381dc49521b449ae67530e408700c60200000000001976a914368350fc3800143a4f2e6ba7f6ad7af004ed4dbd88ac02483045022100f3a8b9caf00b2f87247e5cfc1d463e0c775e6db24942eb5ee282d4e504063c740220100763c96caec92b1c54f01d80094461d593e1b3b7a9d7d5a0b5228780cf7477012102b4ce7fcd325787589f613cff15cfefd6bd201914806446ae1a0e34b88a463e85024830450221009668d6931bd475c1efc3d4c49caef916278f2c61892750789aed9e6ad7a40edf022030fcbb9777919d1de731cb5160bca6671c440d2341a011bbbbada781e58ae3c6012103f79e6b0fad9562978013ee7499399c811688f1143045193b6d50e11d20505ad40b490800", "vin": [{"txinwitness": ["3045022100f3a8b9caf00b2f87247e5cfc1d463e0c775e6db24942eb5ee282d4e504063c740220100763c96caec92b1c54f01d80094461d593e1b3b7a9d7d5a0b5228780cf747701", "02b4ce7fcd325787589f613cff15cfefd6bd201914806446ae1a0e34b88a463e85"], "sequence": 4294967294, "scriptSig": {"hex": "160014c423110c0442f62ade6d75c96f7c75f56d464fb7", "asm": "0014c423110c0442f62ade6d75c96f7c75f56d464fb7"}, "vout": 1, "txid": "41b5cd7b4b3f2f0230940eab451fddecb5ef9367b02353384d7bf8bdcdc7380a"}, {"txinwitness": ["30450221009668d6931bd475c1efc3d4c49caef916278f2c61892750789aed9e6ad7a40edf022030fcbb9777919d1de731cb5160bca6671c440d2341a011bbbbada781e58ae3c601", "03f79e6b0fad9562978013ee7499399c811688f1143045193b6d50e11d20505ad4"], "sequence": 4294967294, "scriptSig": {"hex": "160014a2a9aed932f4d0c38d086f6155db244838796eee", "asm": "0014a2a9aed932f4d0c38d086f6155db244838796eee"}, "vout": 11, "txid": "9f3dc07ae1c9b0383ed5e9554cf2a2b55d318589f954c8c33dd3758d54ec0932"}], "txid": "94f862f11e7698d932eba7119db46e84741b4f691da0a81256fc94c45eb4b215", "blocktime": 1537869901, "version": 2, "confirmations": 11524, "time": 1537869901, "locktime": 542987, "vsize": 259, "size": 422}