{"hash": "d803f56f7706a4757c251bc59a353364dad8cb1818b8e719bb0ed9b2309023f2", "blockhash": "0000000000000000001f76057863aec43deb6fa401d9628bb513d65a8098bfab", "vout": [{"scriptPubKey": {"reqSigs": 1, "hex": "a91461914ea325ef05db40d62d638f9081235860c4f287", "addresses": ["3AauYGfkK5bd7FwuFPmxaHeAzPp2d9NFdN"], "asm": "OP_HASH160 61914ea325ef05db40d62d638f9081235860c4f2 OP_EQUAL", "type": "scripthash"}, "value": 0.01468334, "n": 0}, {"scriptPubKey": {"reqSigs": 1, "hex": "76a9142e1b944fe7ffbe969fc1df8d662fd7b5d6303c9b88ac", "addresses": ["15Co856cRnFRCKwSSzECoyT3ozVhuFoJZ6"], "asm": "OP_DUP OP_HASH160 2e1b944fe7ffbe969fc1df8d662fd7b5d6303c9b OP_EQUALVERIFY OP_CHECKSIG", "type": "pubkeyhash"}, "value": 0.00308, "n": 1}], "hex": "0200000000010149b73b8e382b3b24fe7a36898abb44f13c675be786fee108282144b5a403e5770100000017160014eb641c6456df940fea637e9a91ca779198b6e7befeffffff02ae6716000000000017a91461914ea325ef05db40d62d638f9081235860c4f28720b30400000000001976a9142e1b944fe7ffbe969fc1df8d662fd7b5d6303c9b88ac0247304402201dfc3b09b4f0f696f4909676fd35be340002c2bdfd223609bd78d5e75a4779860220187d4fd574acb8afacf11cd1a90735f569792aaba1e9988ea68b2ef53aed3318012102260e3c476e18c0aa62d0cf11734e37d11fa5becdcf257d65f9fa1292a696027214490800", "vin": [{"txinwitness": ["304402201dfc3b09b4f0f696f4909676fd35be340002c2bdfd223609bd78d5e75a4779860220187d4fd574acb8afacf11cd1a90735f569792aaba1e9988ea68b2ef53aed331801", "02260e3c476e18c0aa62d0cf11734e37d11fa5becdcf257d65f9fa1292a6960272"], "sequence": 4294967294, "scriptSig": {"hex": "160014eb641c6456df940fea637e9a91ca779198b6e7be", "asm": "0014eb641c6456df940fea637e9a91ca779198b6e7be"}, "vout": 1, "txid": "77e503a4b544212808e1fe86e75b673cf144bb8a89367afe243b2b388e3bb749"}], "txid": "94fc9481fb462b7507309998930a75799b6ad70af27638bad95b4f276015daac", "blocktime": 1537873891, "version": 2, "confirmations": 11478, "time": 1537873891, "locktime": 542996, "vsize": 168, "size": 249}