{"hash": "5404dd40a3b7ea2c412ead6963abba117b49f9389eb4b957b6b06fdb8c9b790d", "blockhash": "00000000000000000004ffacab907a6b429b9a5745fa0b75af4234bf69dd7176", "vout": [{"scriptPubKey": {"reqSigs": 1, "hex": "a914f3393270bb7f18d9fabb06554d9c0114e3197d1887", "addresses": ["3Ps4eH5bmV4wqhw73zbp8cbbhYL6VpYbPJ"], "asm": "OP_HASH160 f3393270bb7f18d9fabb06554d9c0114e3197d18 OP_EQUAL", "type": "scripthash"}, "value": 0.00522797, "n": 0}, {"scriptPubKey": {"reqSigs": 1, "hex": "76a91459d7d3480fb6a44b5cc859abf9822a457321b4d188ac", "addresses": ["19C3gsygWeABajUk87VdMNdSkkUidj93og"], "asm": "OP_DUP OP_HASH160 59d7d3480fb6a44b5cc859abf9822a457321b4d1 OP_EQUALVERIFY OP_CHECKSIG", "type": "pubkeyhash"}, "value": 0.0056062, "n": 1}, {"scriptPubKey": {"reqSigs": 1, "hex": "a914a6586b8305b911801f31fb6a9d979f998a4ef51187", "addresses": ["3Gra1v1FFvD5LGnLB4u1ga9bUFoHHEaGGr"], "asm": "OP_HASH160 a6586b8305b911801f31fb6a9d979f998a4ef511 OP_EQUAL", "type": "scripthash"}, "value": 6.167e-05, "n": 2}], "hex": "01000000000101ff6441b58937dc32c4e96bb48d97e91e6e116f8b598445dfc53150360dbb769001000000232200207d76125c064ca6c33c735ed2faf502caf9f08cc0b1c334711043f99c43554ad6ffffffff032dfa07000000000017a914f3393270bb7f18d9fabb06554d9c0114e3197d1887ec8d0800000000001976a91459d7d3480fb6a44b5cc859abf9822a457321b4d188ac171800000000000017a914a6586b8305b911801f31fb6a9d979f998a4ef511870400473044022044ec42708a78fb7bc36c9850fa3cb361815934f56b8d7f9ec73cffddcb5a5d7102201d62790d5729c3072b4a9f6260ac4ac1be0638d70fb603ef0566c984a70328b10148304502210090a81f1172e2513b40e69aff3950538856396c1eb5583e9b0ff886da4b7ad5d60220325b4ad70d1deb772e068681e948783523868995b49133af02c2609740a095ce0169522103c08871e6e0a3e9e8d7549a9b502071f46f0a140c6009219995a50bbb7788147921030a238f9e7c436cf6385ba7f620156482ac8428c961b629f00cf7134189df783721037d95d319c0d127f389f60b7f57d57fdc1fd5e5b2667ea4398009d9d25bb29fea53ae00000000", "vin": [{"txinwitness": ["", "3044022044ec42708a78fb7bc36c9850fa3cb361815934f56b8d7f9ec73cffddcb5a5d7102201d62790d5729c3072b4a9f6260ac4ac1be0638d70fb603ef0566c984a70328b101", "304502210090a81f1172e2513b40e69aff3950538856396c1eb5583e9b0ff886da4b7ad5d60220325b4ad70d1deb772e068681e948783523868995b49133af02c2609740a095ce01", "522103c08871e6e0a3e9e8d7549a9b502071f46f0a140c6009219995a50bbb7788147921030a238f9e7c436cf6385ba7f620156482ac8428c961b629f00cf7134189df783721037d95d319c0d127f389f60b7f57d57fdc1fd5e5b2667ea4398009d9d25bb29fea53ae"], "sequence": 4294967295, "scriptSig": {"hex": "2200207d76125c064ca6c33c735ed2faf502caf9f08cc0b1c334711043f99c43554ad6", "asm": "00207d76125c064ca6c33c735ed2faf502caf9f08cc0b1c334711043f99c43554ad6"}, "vout": 1, "txid": "9076bb0d365031c5df4584598b6f116e1ee9978db46be9c432dc3789b54164ff"}], "txid": "94fe1498a00bf692cd36c7e5568ee84e9d3e6cdf178583cd7e55786032838486", "blocktime": 1537875543, "version": 1, "confirmations": 11464, "time": 1537875543, "locktime": 0, "vsize": 248, "size": 439}