{"hash": "95000aee7396287263e7835900bc52fa2cf7112f168385164e3cec342f52bd41", "blockhash": "0000000000000000001cda96e906b7601b7a6fb1a3b62bca570a9e5d8f4b3de1", "vout": [{"scriptPubKey": {"type": "nulldata", "hex": "6a146f6d6e69000000000000001f000000059682f000", "asm": "OP_RETURN 6f6d6e69000000000000001f000000059682f000"}, "value": 0.0, "n": 0}, {"scriptPubKey": {"reqSigs": 1, "hex": "76a914a25dec4d0011064ef106a983c39c7a540699f22088ac", "addresses": ["1FoWyxwPXuj4C6abqwhjDWdz6D4PZgYRjA"], "asm": "OP_DUP OP_HASH160 a25dec4d0011064ef106a983c39c7a540699f220 OP_EQUALVERIFY OP_CHECKSIG", "type": "pubkeyhash"}, "value": 0.01980846, "n": 1}, {"scriptPubKey": {"reqSigs": 1, "hex": "76a9141852fc06e74ccc6619c9d31689c44d54d8a11eda88ac", "addresses": ["13DcdU512DbJxhv8NZfjUWaLv4EBoMfdTE"], "asm": "OP_DUP OP_HASH160 1852fc06e74ccc6619c9d31689c44d54d8a11eda OP_EQUALVERIFY OP_CHECKSIG", "type": "pubkeyhash"}, "value": 5.46e-06, "n": 2}], "hex": "01000000015c1ca60b2289252d1c50b74f24362151abf7f1c9c4be76275cc1fa00300b02b8000000006b48304502210099b3b3d8ebc275c560b851e5bb59c4604c3a88fcaab1441404759d052e581bf702201e609ea919d4180b79d2242269f3a7cb992d86b792b5bd4f912bf1fc4c2cec09012103da5bac7b36d5aa38f531c6b9601e21bb598a4b6716ebed38b009a55dabde9440feffffff030000000000000000166a146f6d6e69000000000000001f000000059682f000ae391e00000000001976a914a25dec4d0011064ef106a983c39c7a540699f22088ac22020000000000001976a9141852fc06e74ccc6619c9d31689c44d54d8a11eda88ac12490800", "vin": [{"sequence": 4294967294, "scriptSig": {"hex": "48304502210099b3b3d8ebc275c560b851e5bb59c4604c3a88fcaab1441404759d052e581bf702201e609ea919d4180b79d2242269f3a7cb992d86b792b5bd4f912bf1fc4c2cec09012103da5bac7b36d5aa38f531c6b9601e21bb598a4b6716ebed38b009a55dabde9440", "asm": "304502210099b3b3d8ebc275c560b851e5bb59c4604c3a88fcaab1441404759d052e581bf702201e609ea919d4180b79d2242269f3a7cb992d86b792b5bd4f912bf1fc4c2cec09[ALL] 03da5bac7b36d5aa38f531c6b9601e21bb598a4b6716ebed38b009a55dabde9440"}, "vout": 0, "txid": "b8020b3000fac15c2776bec4c9f1f7ab512136244fb7501c2d2589220ba61c5c"}], "txid": "95000aee7396287263e7835900bc52fa2cf7112f168385164e3cec342f52bd41", "blocktime": 1537873282, "version": 1, "confirmations": 11481, "time": 1537873282, "locktime": 542994, "vsize": 257, "size": 257}