{"hash": "8bde1dae40318306797ff11bebb1e19fad23920de3e52aeceb9888aa3bee480d", "blockhash": "0000000000000000000e13cef7c366c0283d82e591d1acd082e914b08063cdf1", "vout": [{"scriptPubKey": {"reqSigs": 1, "hex": "76a9140288c6781eb49838db382103dbf418f73bb1c78688ac", "addresses": ["1EQChNWzKE8DgQBS23pJN7CAET9zo3XSQ"], "asm": "OP_DUP OP_HASH160 0288c6781eb49838db382103dbf418f73bb1c786 OP_EQUALVERIFY OP_CHECKSIG", "type": "pubkeyhash"}, "value": 0.00121007, "n": 0}, {"scriptPubKey": {"reqSigs": 1, "hex": "001430fc1bc975c603bdcc6479823bc9b1a910a36b98", "addresses": ["bc1qxr7phjt4ccpmmnry0xprhjd34yg2x6uc5hey0l"], "asm": "0 30fc1bc975c603bdcc6479823bc9b1a910a36b98", "type": "witness_v0_keyhash"}, "value": 1.172e-05, "n": 1}], "hex": "010000000001011ce7cdd0a114492b8621092fe93d844f8fe3c3a20a3db0566b7d14ceb4109f750100000000ffffffff02afd80100000000001976a9140288c6781eb49838db382103dbf418f73bb1c78688ac940400000000000016001430fc1bc975c603bdcc6479823bc9b1a910a36b9802483045022100dd13852029eeb504929236920dfbe89739327e901a2e09be488b78a1db36248302207ecf096a53d537b054450a088af0e49adc21f1f9a70eb3c7e7f1986c9ea023df01210238e730a1fc198113bbf4cb21ea6f7159669ed8d0ef30606b4ae376a56e4584ef00000000", "vin": [{"txinwitness": ["3045022100dd13852029eeb504929236920dfbe89739327e901a2e09be488b78a1db36248302207ecf096a53d537b054450a088af0e49adc21f1f9a70eb3c7e7f1986c9ea023df01", "0238e730a1fc198113bbf4cb21ea6f7159669ed8d0ef30606b4ae376a56e4584ef"], "sequence": 4294967295, "scriptSig": {"hex": "", "asm": ""}, "vout": 1, "txid": "759f10b4ce147d6b56b03d0aa2c3e38f4f843de92f0921862b4914a1d0cde71c"}], "txid": "950312c1ec5f433ba2a15ad4a8bbffd07f7f33898425e58e92d1982f30563af2", "blocktime": 1537871767, "version": 1, "confirmations": 11495, "time": 1537871767, "locktime": 0, "vsize": 144, "size": 226}