{"hash": "795304d4e7e279533d24df861757ecfd93f008a9f353ea4c2f4d56ec33dc64eb", "blockhash": "0000000000000000001f76057863aec43deb6fa401d9628bb513d65a8098bfab", "vout": [{"scriptPubKey": {"reqSigs": 1, "hex": "76a9144b461d77a77f2b5ffbc10ea82774caccda3192b588ac", "addresses": ["17s1g55a6n3htutMvgeBhRY28QJNL8Ti5A"], "asm": "OP_DUP OP_HASH160 4b461d77a77f2b5ffbc10ea82774caccda3192b5 OP_EQUALVERIFY OP_CHECKSIG", "type": "pubkeyhash"}, "value": 0.00649825, "n": 0}, {"scriptPubKey": {"reqSigs": 1, "hex": "a9149649ad6d2730bb28020a268d9d80df10a9f74ad487", "addresses": ["3FPfYWwfMfKMGY7fuPHvz2b73RhTNGzsm3"], "asm": "OP_HASH160 9649ad6d2730bb28020a268d9d80df10a9f74ad4 OP_EQUAL", "type": "scripthash"}, "value": 13.83818259, "n": 1}], "hex": "01000000000101c693b0dca83479b9a843caa386811bb93b74014781bdbea921d9b18e54c1bee401000000232200207768efcc1e5eb3d28410fac3f45831004c860cc24cddd940a616b34324823fceffffffff0261ea0900000000001976a9144b461d77a77f2b5ffbc10ea82774caccda3192b588ac13647b520000000017a9149649ad6d2730bb28020a268d9d80df10a9f74ad4870400483045022100e256b3eb6d993b5ca4cb205b6745f9a5cb14d721a8c9ae4c2eab7f3416d5ebe3022012206a3925826aec0916c1315ca2cab30616a9503558d00ff635b0281906330701483045022100ff305e0add19335c10174012a256773d977e6d31d7ec5e4dd62457d4d9021d40022040a9f697e953587b41594c0d98980dcc42ccb62e5427f5e8ccfb2e7477d2f82e0147522102529d5d1f6733ab45d9d50e07db42c7f6b967ae321c38b726c2247f149959b8262103d0c936a5988dd8421c63240496b723b0ec42400c38b9350e32c2eb4f47d8796952ae00000000", "vin": [{"txinwitness": ["", "3045022100e256b3eb6d993b5ca4cb205b6745f9a5cb14d721a8c9ae4c2eab7f3416d5ebe3022012206a3925826aec0916c1315ca2cab30616a9503558d00ff635b0281906330701", "3045022100ff305e0add19335c10174012a256773d977e6d31d7ec5e4dd62457d4d9021d40022040a9f697e953587b41594c0d98980dcc42ccb62e5427f5e8ccfb2e7477d2f82e01", "522102529d5d1f6733ab45d9d50e07db42c7f6b967ae321c38b726c2247f149959b8262103d0c936a5988dd8421c63240496b723b0ec42400c38b9350e32c2eb4f47d8796952ae"], "sequence": 4294967295, "scriptSig": {"hex": "2200207768efcc1e5eb3d28410fac3f45831004c860cc24cddd940a616b34324823fce", "asm": "00207768efcc1e5eb3d28410fac3f45831004c860cc24cddd940a616b34324823fce"}, "vout": 1, "txid": "e4bec1548eb1d921a9bebd814701743bb91b8186a3ca43a8b97934a8dcb093c6"}], "txid": "95054beb83619923e6b6ffcea525ea646627051ffe5a885a76aaa02f66a3e2b0", "blocktime": 1537873891, "version": 1, "confirmations": 11478, "time": 1537873891, "locktime": 0, "vsize": 208, "size": 374}