{"hash": "5393d813a8a6903b0b661be4107a91581032e89e47a72568a1fe6318bb270792", "blockhash": "00000000000000000004ffacab907a6b429b9a5745fa0b75af4234bf69dd7176", "vout": [{"scriptPubKey": {"reqSigs": 1, "hex": "76a9144e3f999f18b552f659daa341d7d23d9e646f8a4e88ac", "addresses": ["188jtyVmqy6mVet4djhh2bKyNsaskXACpq"], "asm": "OP_DUP OP_HASH160 4e3f999f18b552f659daa341d7d23d9e646f8a4e OP_EQUALVERIFY OP_CHECKSIG", "type": "pubkeyhash"}, "value": 0.005457, "n": 0}, {"scriptPubKey": {"reqSigs": 1, "hex": "a914a6378132933efd6fad3197bebbbab91ca2a9fb2587", "addresses": ["3GqtavKw9w4FtPrz9UHoN1vxyavkJxZqc6"], "asm": "OP_HASH160 a6378132933efd6fad3197bebbbab91ca2a9fb25 OP_EQUAL", "type": "scripthash"}, "value": 0.12811875, "n": 1}], "hex": "01000000000101b8a8f32fb56f6d70c1c4926a9a74116927e4ab67bd436c19b7d0dd8980cb3e880100000023220020c960093aee7c75bd03759e188f617870c24a57fcc3f13458801cc9e52f1111cfffffffff02a4530800000000001976a9144e3f999f18b552f659daa341d7d23d9e646f8a4e88ac637ec3000000000017a914a6378132933efd6fad3197bebbbab91ca2a9fb258704004730440220212209ef5e48c44374911f65cd187c5671fccd3ae9d418e09fc33f2ccc7fc5ff0220174086c3875a3b6cfd4b1783fb069a30a21105d267bef6936e7d75f2c85aa10801473044022045bee2c14d57f74731d82cc50773b4e261730d77a224db71d65aa8fb5da242480220524096ef2dbd13485561e2153a9ee25785498c407dcf728e505082d3f7033fe901695221038556400ac59fce45abf1ce7db9cff2f40a0866ea8425775ee07dd3ff9920bd472103c33cb5ebe9fb136430bb9627899b419f6278fad3220fa183c107d0279a708fa7210331dbf18f4cbe08018a63227d7d81c4f1f7289a150b001ec3ee26506c4c2466c153ae17490800", "vin": [{"txinwitness": ["", "30440220212209ef5e48c44374911f65cd187c5671fccd3ae9d418e09fc33f2ccc7fc5ff0220174086c3875a3b6cfd4b1783fb069a30a21105d267bef6936e7d75f2c85aa10801", "3044022045bee2c14d57f74731d82cc50773b4e261730d77a224db71d65aa8fb5da242480220524096ef2dbd13485561e2153a9ee25785498c407dcf728e505082d3f7033fe901", "5221038556400ac59fce45abf1ce7db9cff2f40a0866ea8425775ee07dd3ff9920bd472103c33cb5ebe9fb136430bb9627899b419f6278fad3220fa183c107d0279a708fa7210331dbf18f4cbe08018a63227d7d81c4f1f7289a150b001ec3ee26506c4c2466c153ae"], "sequence": 4294967295, "scriptSig": {"hex": "220020c960093aee7c75bd03759e188f617870c24a57fcc3f13458801cc9e52f1111cf", "asm": "0020c960093aee7c75bd03759e188f617870c24a57fcc3f13458801cc9e52f1111cf"}, "vout": 1, "txid": "883ecb8089ddd0b7196c43bd67abe4276911749a6a92c4c1706d6fb52ff3a8b8"}], "txid": "950a739509d194846b1c02321a604bd6d5d522d586202ea10fa9afaf8f121e27", "blocktime": 1537875543, "version": 1, "confirmations": 11464, "time": 1537875543, "locktime": 542999, "vsize": 216, "size": 406}