{"hash": "f47cf2286316b2a3e48b1965810f444b9e4c21439c560f6d358e1d9d26e6ae38", "blockhash": "0000000000000000000e13cef7c366c0283d82e591d1acd082e914b08063cdf1", "vout": [{"scriptPubKey": {"reqSigs": 1, "hex": "a914eded907967d2709429d06060b91e0e587a761e8a87", "addresses": ["3PP4fGWJoFQ545hgq2LRo3U2Z9PCLkDV7T"], "asm": "OP_HASH160 eded907967d2709429d06060b91e0e587a761e8a OP_EQUAL", "type": "scripthash"}, "value": 0.32090138, "n": 0}, {"scriptPubKey": {"reqSigs": 1, "hex": "a91485722ff66ca5082a436157e4f61fd81a0adc977c87", "addresses": ["3Drcaw71dARLzsA4z7Ki7hwXnMVNYLhH4h"], "asm": "OP_HASH160 85722ff66ca5082a436157e4f61fd81a0adc977c OP_EQUAL", "type": "scripthash"}, "value": 0.65270108, "n": 1}], "hex": "0100000000010227ec7ffa69ac2663952459759e7aa89fb0830180e6972280efaf49a4df44b0a80100000023220020d8ad882f6fcb01d3edeac2fa553719e6fa3b452b717fd8e33190c11d3f99e6f7ffffffff0afc8d6d2e90c952a784f94fccb4fdf9da2e55d077b8e2535bc7188d6b8a570401000000232200200716c9fe5414ea521da3414a932ff9aa25b2eb596c5fb6a5bbf5b97d89fdfe85ffffffff021aa8e9010000000017a914eded907967d2709429d06060b91e0e587a761e8a875cf1e3030000000017a91485722ff66ca5082a436157e4f61fd81a0adc977c870400483045022100d8ad3a83d7ea9f934f23de850c846bc459fd6f75222ce02b8c16579f1179425d02206f2206f666e2037a551ad41cfd8c0a19f41cac66410ceee7be395ddaf34062aa01483045022100f478d24e2cd0adeb901c5c208cffcd6569fdc2b198ada688d7e00b46820ec5c90220132de8a1b24e12081c8d01494bdb15cc16924734e5d7e092c12a21ed3f9cc87301695221033043447a7f91c418c77645bb504083f9be2592d5a74c3958582563f55939d8762103c2f605a1276f09aeaadd1584ee137bdbe71e6004b3e76de24b854250c9a4745d210399f5608c6f61bfeb6dbcb2646e2999491b957561bd5cc30af4f9b14887bf335c53ae0400483045022100d8ebd98463cd2d348bb95288d0cbfa9d31fef71e59957c6b1a9d55af58d47e51022002616b0a64b75a51537f36e3cf8c8b3c21405288fac293cfc31aaa11e43792e80147304402207de8356cba9c0fc8c4175277f41c8e493f23682f34f7528ccfeaba4cdf1de85302203665efcad0154bb059e1805d65c1a083b405a0d683f7bf3539c37575efdd88790169522102cde01fd3e384ef5463874e3888a17ffdba6d47bb8edb05bad74c4ce87db959d12103f762ff094961b51ea6ffc1af3d26d4498f0558bd88797a024602cb255b3f229e21034bf9b7c48c6811569a40e672199cff27121803f487a11f485ea3bbbba778ffd553ae00000000", "vin": [{"txinwitness": ["", "3045022100d8ad3a83d7ea9f934f23de850c846bc459fd6f75222ce02b8c16579f1179425d02206f2206f666e2037a551ad41cfd8c0a19f41cac66410ceee7be395ddaf34062aa01", "3045022100f478d24e2cd0adeb901c5c208cffcd6569fdc2b198ada688d7e00b46820ec5c90220132de8a1b24e12081c8d01494bdb15cc16924734e5d7e092c12a21ed3f9cc87301", "5221033043447a7f91c418c77645bb504083f9be2592d5a74c3958582563f55939d8762103c2f605a1276f09aeaadd1584ee137bdbe71e6004b3e76de24b854250c9a4745d210399f5608c6f61bfeb6dbcb2646e2999491b957561bd5cc30af4f9b14887bf335c53ae"], "sequence": 4294967295, "scriptSig": {"hex": "220020d8ad882f6fcb01d3edeac2fa553719e6fa3b452b717fd8e33190c11d3f99e6f7", "asm": "0020d8ad882f6fcb01d3edeac2fa553719e6fa3b452b717fd8e33190c11d3f99e6f7"}, "vout": 1, "txid": "a8b044dfa449afef802297e6800183b09fa87a9e755924956326ac69fa7fec27"}, {"txinwitness": ["", "3045022100d8ebd98463cd2d348bb95288d0cbfa9d31fef71e59957c6b1a9d55af58d47e51022002616b0a64b75a51537f36e3cf8c8b3c21405288fac293cfc31aaa11e43792e801", "304402207de8356cba9c0fc8c4175277f41c8e493f23682f34f7528ccfeaba4cdf1de85302203665efcad0154bb059e1805d65c1a083b405a0d683f7bf3539c37575efdd887901", "522102cde01fd3e384ef5463874e3888a17ffdba6d47bb8edb05bad74c4ce87db959d12103f762ff094961b51ea6ffc1af3d26d4498f0558bd88797a024602cb255b3f229e21034bf9b7c48c6811569a40e672199cff27121803f487a11f485ea3bbbba778ffd553ae"], "sequence": 4294967295, "scriptSig": {"hex": "2200200716c9fe5414ea521da3414a932ff9aa25b2eb596c5fb6a5bbf5b97d89fdfe85", "asm": "00200716c9fe5414ea521da3414a932ff9aa25b2eb596c5fb6a5bbf5b97d89fdfe85"}, "vout": 1, "txid": "04578a6b8d18c75b53e2b877d0552edaf9fdb4cc4ff984a752c9902e6d8dfc0a"}], "txid": "950dd257cc350a0aab322290fe90e8727a31a95e5b174a11845914833bab52ff", "blocktime": 1537871767, "version": 1, "confirmations": 11490, "time": 1537871767, "locktime": 0, "vsize": 354, "size": 735}