{"hash": "951563a60cff4656476ba903550834c0e379f2396efd4a94eafe1409bc81fc34", "blockhash": "0000000000000000000e13cef7c366c0283d82e591d1acd082e914b08063cdf1", "vout": [{"scriptPubKey": {"reqSigs": 1, "hex": "76a9145dc821c2071dd7cd26af16002fb3b398c3bcd56188ac", "addresses": ["19YsbFGwZfC6feHewhxMgsVS6yUMgju7xy"], "asm": "OP_DUP OP_HASH160 5dc821c2071dd7cd26af16002fb3b398c3bcd561 OP_EQUALVERIFY OP_CHECKSIG", "type": "pubkeyhash"}, "value": 0.00117167, "n": 0}, {"scriptPubKey": {"reqSigs": 1, "hex": "76a914d0a6fdbcd514ed3ce4e89f315acfa18274918f5688ac", "addresses": ["1L2FbehzCZ2m8zGeZ9uRio54kcUvgzw7th"], "asm": "OP_DUP OP_HASH160 d0a6fdbcd514ed3ce4e89f315acfa18274918f56 OP_EQUALVERIFY OP_CHECKSIG", "type": "pubkeyhash"}, "value": 0.00596399, "n": 1}], "hex": "0100000001afee4ba0111cf5cde45d832568856ff34fd00b1ac8b0fbc81913027759f54d98010000006b483045022100ff8af87e63d20189bd5e3c2850c1335697f353ed153d5628367008749f84ee17022064cb30df415237a61257bd0a6d60fbbd24e23a1fef52fd9bcdcab92a0d037692012102e5d0a1493e2dd0e5c1e9d6bcc25c5ec657ca2cba2d2bb83edb7ffc4fd5d8556bffffffff02afc90100000000001976a9145dc821c2071dd7cd26af16002fb3b398c3bcd56188acaf190900000000001976a914d0a6fdbcd514ed3ce4e89f315acfa18274918f5688ac00000000", "vin": [{"sequence": 4294967295, "scriptSig": {"hex": "483045022100ff8af87e63d20189bd5e3c2850c1335697f353ed153d5628367008749f84ee17022064cb30df415237a61257bd0a6d60fbbd24e23a1fef52fd9bcdcab92a0d037692012102e5d0a1493e2dd0e5c1e9d6bcc25c5ec657ca2cba2d2bb83edb7ffc4fd5d8556b", "asm": "3045022100ff8af87e63d20189bd5e3c2850c1335697f353ed153d5628367008749f84ee17022064cb30df415237a61257bd0a6d60fbbd24e23a1fef52fd9bcdcab92a0d037692[ALL] 02e5d0a1493e2dd0e5c1e9d6bcc25c5ec657ca2cba2d2bb83edb7ffc4fd5d8556b"}, "vout": 1, "txid": "984df55977021319c8fbb0c81a0bd04ff36f856825835de4cdf51c11a04beeaf"}], "txid": "951563a60cff4656476ba903550834c0e379f2396efd4a94eafe1409bc81fc34", "blocktime": 1537871767, "version": 1, "confirmations": 11495, "time": 1537871767, "locktime": 0, "vsize": 226, "size": 226}