{"hash": "95167aac93126b827990c1c0d85b0870aed86fdd1554935433b2932e9215d69a", "blockhash": "0000000000000000000baef3f32e3676a92c3b2e5da21b426e4f302fc371ce76", "vout": [{"scriptPubKey": {"reqSigs": 1, "hex": "76a914820729b05e46517194aa3f79e35fd7c827d5151488ac", "addresses": ["1CrXRd37bdofFD4xbNSAKLJ8zNJv2tmpfz"], "asm": "OP_DUP OP_HASH160 820729b05e46517194aa3f79e35fd7c827d51514 OP_EQUALVERIFY OP_CHECKSIG", "type": "pubkeyhash"}, "value": 0.469149, "n": 0}, {"scriptPubKey": {"reqSigs": 1, "hex": "76a914ad7a8577e1ac9abd673551b6fd2643fdffd30a3488ac", "addresses": ["1GpGg7xnd5fMgerCuznh34NcoVQaYQn585"], "asm": "OP_DUP OP_HASH160 ad7a8577e1ac9abd673551b6fd2643fdffd30a34 OP_EQUALVERIFY OP_CHECKSIG", "type": "pubkeyhash"}, "value": 0.90688193, "n": 1}], "hex": "01000000164edd59f499f29ef533b3ba45ae69e715493a141bb302ddeb9652505143e7c825000000006b483045022100c66bc95199f0e07638cb77fde64110cb57326792aae3f278bc46349b4e936fcc022064ea5ab89c0c7272b714c2ac77c72f32d864dd1286e510892f7f5fb63ce6dce40121033fda9c1129b30be79d049ee3d198cc8786d47d5c1cc22acedef53399a401a739fdffffff5f5b44c3eb1b1265c28d4859593dc816c91d1a4d105ff6623829fa50ec06fe28010000006b483045022100d5f0705c3cf915d759f0c238e3ac2f4fd4cc6e9de2763fe134b34c2e6015784b02207c06875117dfb576264a0be43db1e2308238a662893c597a2f0cfce369380f870121033fda9c1129b30be79d049ee3d198cc8786d47d5c1cc22acedef53399a401a739fdffffff59aacec4faf8765b621196f1e8075a7bc78414128007a2bbf6588d37960a5034000000006a47304402200f36137b3b6f35ca0fe8cfd9326e48cc5393568101f1801b2626edc184d2046a02207b7d6d01e5066f139026d95454570fd24e941681aedd9efbae8238939d8cb9e10121033fda9c1129b30be79d049ee3d198cc8786d47d5c1cc22acedef53399a401a739fdffffffe066481294f20bcb918c17c49863974eaf1df9dfb8228edb716c9f2eff45f93b000000006a47304402203115aeb631c220ea76f65aca3fdc5a8cc47443650cec5f38bb402c377baceb4402202b67bb271c39b8844a95b791fbe92127e947c15e5eb433dc83d78c7beb76ffa40121033fda9c1129b30be79d049ee3d198cc8786d47d5c1cc22acedef53399a401a739fdfffffff9948b475370084fee297f99b22b98517d25a9706ade776f346c818d652faa3c000000006b483045022100b2dc24396317aace2efd626f683d62f2ab90681891f4765fc2dd5f7c313ace8802200a21869e0514f0feb6d28c6edd23acd6f2a453df4f68f1849f379873dcb8ab750121033fda9c1129b30be79d049ee3d198cc8786d47d5c1cc22acedef53399a401a739fdffffff595f6a7284605ce47bda0ed78a7a5825463bd5eb6acf9e3db0f60a39b02db93d000000006a47304402205fbfe8acde8a69cf4678616ecb2b6b463da58e0fceac6fb0861a3b2349e23ad202202ba778543ffcc0a6d188dbe01cf5f61b11dd1702fd8cea1349a7224da5127eed0121033fda9c1129b30be79d049ee3d198cc8786d47d5c1cc22acedef53399a401a739fdffffffc95b0d3ad437ae4e84e0ad9eb6b851563360a73eb2208c26b35b660715a2a344000000006b483045022100bed3cc3a957d1db7120981222aa822cfc03c9d416df715ebfaf6cdc95952693802200b84d42bc7aa37406cd63344f7d84921caadb12d185bf7964e46a1ca319b67e10121033fda9c1129b30be79d049ee3d198cc8786d47d5c1cc22acedef53399a401a739fdffffff1460a3b57bec3288ffae1858b1426183f8c5cf486a0e521cdc47c0b972f34352000000006a47304402203da1d3cacdabda289cd22005da4c5d9374b60f6d70061de05922703800c2ee5e022049dd07a59add973ac8f288f5fa0e99eab7a4a293074014e2b4d5da54bf1e5b550121033fda9c1129b30be79d049ee3d198cc8786d47d5c1cc22acedef53399a401a739fdffffff68292cd461c65ae4dd12a4a11664d224879b7d79630c565511fea30b97a57054000000006b483045022100e12a6429250ec9c06b0c3560f3b2343e61f9ab52bd6b17056276aabf15b5cf4002203b5e390a400caaf7a564159d23d871a63ca1396bfd7b15a45645a586fd58988a0121033fda9c1129b30be79d049ee3d198cc8786d47d5c1cc22acedef53399a401a739fdffffff0477271230ab4268049ca5e4dcacbd8167b88f331346e2a2db484e971f649556000000006b483045022100cefec5daa9bd10bc92efadc998c890264f71de9101eea3430323c7e75ea28421022020f54c4167dc36eca03dabfd4f43f4dec3d62aec578cdb1ee0664a247f6e52840121033fda9c1129b30be79d049ee3d198cc8786d47d5c1cc22acedef53399a401a739fdffffff5d29d510ebdb1d86fc53af7a10b2672e25adf37721e24ed2dfd76334ffa8b05c000000006b483045022100b2c0510ef97f587982ac697dddffb8380796461c10deda23498a555469144e0c02207fdf27ce1cd1238f6b1e033002c195690b16fc3535bce6b1b1cdd735cd93d7630121033fda9c1129b30be79d049ee3d198cc8786d47d5c1cc22acedef53399a401a739fdffffffd20919ea4e2be9e97159fa8fd62bb93191dcf55bdb2bf8bbad052d5315fa6173000000006b483045022100add998fd00731f4d877f9ec8016334391c9f13e19131b307dcc1a3d736e5f97f0220139ef3342a30061d63716561233c68b12227846aa1d859d1bbf5a55e18853e400121033fda9c1129b30be79d049ee3d198cc8786d47d5c1cc22acedef53399a401a739fdffffff45cbdf712606a5ca55d2a3986b3c4d71076b4e860df2b9c9176aee002ac0f381000000006b483045022100b0d1e444a167926bc85c7031a6e77f0a87c776adcce9a22c171205df59c21c2002203e9c376aa89519db0df0fc1c34cd33d77382fc8b86f7b602f139072a00d7f6640121033fda9c1129b30be79d049ee3d198cc8786d47d5c1cc22acedef53399a401a739fdffffff0efc2d16a367dcf7c9a3c5b76a7c7e256ca4a723874c67d3e930277490cb4f8f000000006b483045022100bd31ba1d2592cabc4642f19ef0e3f09d289ebfd20f464515ae1aeec89910148302205e47743935c2d43c2219c8edbe78d3e01b6732c0e6eb13bca8e971ac97e4b88d0121033fda9c1129b30be79d049ee3d198cc8786d47d5c1cc22acedef53399a401a739fdffffff074ea821a025ecfac192b631ff16047389cb30e84a8ccfc0620b53c4f3f22f99000000006a47304402206c75654d675d3fc368376a2246202cef5c6c3588bdfba82493d671cb3deb33fa02207a2ff1298564303451f8febf168fffc85b4e4d0ff8cc068076c6c7716ef65c1f0121033fda9c1129b30be79d049ee3d198cc8786d47d5c1cc22acedef53399a401a739fdffffffcd10206bb055298c5d6131fd8841f5a88c5bc7ed781a7e2ea5f3b9e37cb6dba6000000006a473044022024b40d01927bc0e6a6f4a3d25013b3f53e63d5a15845ad24ea8255af1e83c9b4022076d596cfdc7daef7669bcf5f9e000ff519c08bec7b566d358f1cc8e6dcac8e3b0121033fda9c1129b30be79d049ee3d198cc8786d47d5c1cc22acedef53399a401a739fdffffffb0abf1eeb29fbb5e7b71b75ce17a685a9ea725618b9e3a4b73a3eab898f6a5b4000000006a47304402201a8cc9cd0e4bd9e0b7a1f9b80456994115be365ae0387f72e07807bc74c2d6ca0220522a3efa933bea374117b2946bbe5603337aba8636eaa5a7f35e49f7fdb796c50121033fda9c1129b30be79d049ee3d198cc8786d47d5c1cc22acedef53399a401a739fdffffffd29366feb54f71ab5c0446aeaf302ad09794cc0ce0524c93357df8a81595c3c4000000006a4730440220385bd057506df074967e4615f7fbf29495c0dd819ae340da00322713a05158c70220077c90d117269bcedbfc9bd175427be6ee287a587492e231a4ce3455e3099a100121033fda9c1129b30be79d049ee3d198cc8786d47d5c1cc22acedef53399a401a739fdffffffb19d8b8db8b90d16a06af686fbed3a8a14743d048da229420288ebba0effb0cf000000006a473044022047ea59e41e5ddf1902776b420c3c772b7d4e0528fd9480f7f3e23a1cb93fb5a202207ef86878fc93772f94c9d0c950b760f5761d6bb6ab4acae00b8ca3ed54b8c7180121033fda9c1129b30be79d049ee3d198cc8786d47d5c1cc22acedef53399a401a739fdffffffac893ac6760dfcce4d9aafdcb0d23408ede2d2061e7d3ed5a3ab5def71e0c0cf000000006b483045022100cb53cf952851c16f9b8f4235872725e99ab46831c49d87bb6a66bff93d98348a02200ebed98bdef70221977bbd36dc9ce7c49926682425a20c0f99e36ed932dfb5220121033fda9c1129b30be79d049ee3d198cc8786d47d5c1cc22acedef53399a401a739fdffffff031f3843f24f2e2f86fec46dfaca46f3d506f485cea960b0c70dc35fbfeb94e2000000006b483045022100fadd5758d375c7fb8b18a7d6fb07b3f0b97682cb0b58f561a25eb5e525f0b12602204770663ff182417e56eb14e0a8a053bc44b9e9964641b46b0ec59ebeef2892620121033fda9c1129b30be79d049ee3d198cc8786d47d5c1cc22acedef53399a401a739fdffffff5bf8eb153461b77cc43c3229a2ff8a6a6505c553f1513bfc389cbd8c04d33dfb000000006a473044022048ca95a0e5c3e99358fe456b0a645ed771b6e4660e0f5101a6928a33c1c0529802201d75314ea411aa482c83ea2baceaaac173e14cf4f5bdca5a1e0698f665982ae40121033fda9c1129b30be79d049ee3d198cc8786d47d5c1cc22acedef53399a401a739fdffffff0254ddcb02000000001976a914820729b05e46517194aa3f79e35fd7c827d5151488acc1ca6705000000001976a914ad7a8577e1ac9abd673551b6fd2643fdffd30a3488ac16490800", "vin": [{"sequence": 4294967293, "scriptSig": {"hex": "483045022100c66bc95199f0e07638cb77fde64110cb57326792aae3f278bc46349b4e936fcc022064ea5ab89c0c7272b714c2ac77c72f32d864dd1286e510892f7f5fb63ce6dce40121033fda9c1129b30be79d049ee3d198cc8786d47d5c1cc22acedef53399a401a739", "asm": "3045022100c66bc95199f0e07638cb77fde64110cb57326792aae3f278bc46349b4e936fcc022064ea5ab89c0c7272b714c2ac77c72f32d864dd1286e510892f7f5fb63ce6dce4[ALL] 033fda9c1129b30be79d049ee3d198cc8786d47d5c1cc22acedef53399a401a739"}, "vout": 0, "txid": "25c8e74351505296ebdd02b31b143a4915e769ae45bab333f59ef299f459dd4e"}, {"sequence": 4294967293, "scriptSig": {"hex": "483045022100d5f0705c3cf915d759f0c238e3ac2f4fd4cc6e9de2763fe134b34c2e6015784b02207c06875117dfb576264a0be43db1e2308238a662893c597a2f0cfce369380f870121033fda9c1129b30be79d049ee3d198cc8786d47d5c1cc22acedef53399a401a739", "asm": "3045022100d5f0705c3cf915d759f0c238e3ac2f4fd4cc6e9de2763fe134b34c2e6015784b02207c06875117dfb576264a0be43db1e2308238a662893c597a2f0cfce369380f87[ALL] 033fda9c1129b30be79d049ee3d198cc8786d47d5c1cc22acedef53399a401a739"}, "vout": 1, "txid": "28fe06ec50fa293862f65f104d1a1dc916c83d5959488dc265121bebc3445b5f"}, {"sequence": 4294967293, "scriptSig": {"hex": "47304402200f36137b3b6f35ca0fe8cfd9326e48cc5393568101f1801b2626edc184d2046a02207b7d6d01e5066f139026d95454570fd24e941681aedd9efbae8238939d8cb9e10121033fda9c1129b30be79d049ee3d198cc8786d47d5c1cc22acedef53399a401a739", "asm": "304402200f36137b3b6f35ca0fe8cfd9326e48cc5393568101f1801b2626edc184d2046a02207b7d6d01e5066f139026d95454570fd24e941681aedd9efbae8238939d8cb9e1[ALL] 033fda9c1129b30be79d049ee3d198cc8786d47d5c1cc22acedef53399a401a739"}, "vout": 0, "txid": "34500a96378d58f6bba20780121484c77b5a07e8f19611625b76f8fac4ceaa59"}, {"sequence": 4294967293, "scriptSig": {"hex": "47304402203115aeb631c220ea76f65aca3fdc5a8cc47443650cec5f38bb402c377baceb4402202b67bb271c39b8844a95b791fbe92127e947c15e5eb433dc83d78c7beb76ffa40121033fda9c1129b30be79d049ee3d198cc8786d47d5c1cc22acedef53399a401a739", "asm": "304402203115aeb631c220ea76f65aca3fdc5a8cc47443650cec5f38bb402c377baceb4402202b67bb271c39b8844a95b791fbe92127e947c15e5eb433dc83d78c7beb76ffa4[ALL] 033fda9c1129b30be79d049ee3d198cc8786d47d5c1cc22acedef53399a401a739"}, "vout": 0, "txid": "3bf945ff2e9f6c71db8e22b8dff91daf4e976398c4178c91cb0bf294124866e0"}, {"sequence": 4294967293, "scriptSig": {"hex": "483045022100b2dc24396317aace2efd626f683d62f2ab90681891f4765fc2dd5f7c313ace8802200a21869e0514f0feb6d28c6edd23acd6f2a453df4f68f1849f379873dcb8ab750121033fda9c1129b30be79d049ee3d198cc8786d47d5c1cc22acedef53399a401a739", "asm": "3045022100b2dc24396317aace2efd626f683d62f2ab90681891f4765fc2dd5f7c313ace8802200a21869e0514f0feb6d28c6edd23acd6f2a453df4f68f1849f379873dcb8ab75[ALL] 033fda9c1129b30be79d049ee3d198cc8786d47d5c1cc22acedef53399a401a739"}, "vout": 0, "txid": "3caa2f658d816c346f77de6a70a9257d51982bb2997f29ee4f087053478b94f9"}, {"sequence": 4294967293, "scriptSig": {"hex": "47304402205fbfe8acde8a69cf4678616ecb2b6b463da58e0fceac6fb0861a3b2349e23ad202202ba778543ffcc0a6d188dbe01cf5f61b11dd1702fd8cea1349a7224da5127eed0121033fda9c1129b30be79d049ee3d198cc8786d47d5c1cc22acedef53399a401a739", "asm": "304402205fbfe8acde8a69cf4678616ecb2b6b463da58e0fceac6fb0861a3b2349e23ad202202ba778543ffcc0a6d188dbe01cf5f61b11dd1702fd8cea1349a7224da5127eed[ALL] 033fda9c1129b30be79d049ee3d198cc8786d47d5c1cc22acedef53399a401a739"}, "vout": 0, "txid": "3db92db0390af6b03d9ecf6aebd53b4625587a8ad70eda7be45c6084726a5f59"}, {"sequence": 4294967293, "scriptSig": {"hex": "483045022100bed3cc3a957d1db7120981222aa822cfc03c9d416df715ebfaf6cdc95952693802200b84d42bc7aa37406cd63344f7d84921caadb12d185bf7964e46a1ca319b67e10121033fda9c1129b30be79d049ee3d198cc8786d47d5c1cc22acedef53399a401a739", "asm": "3045022100bed3cc3a957d1db7120981222aa822cfc03c9d416df715ebfaf6cdc95952693802200b84d42bc7aa37406cd63344f7d84921caadb12d185bf7964e46a1ca319b67e1[ALL] 033fda9c1129b30be79d049ee3d198cc8786d47d5c1cc22acedef53399a401a739"}, "vout": 0, "txid": "44a3a21507665bb3268c20b23ea760335651b8b69eade0844eae37d43a0d5bc9"}, {"sequence": 4294967293, "scriptSig": {"hex": "47304402203da1d3cacdabda289cd22005da4c5d9374b60f6d70061de05922703800c2ee5e022049dd07a59add973ac8f288f5fa0e99eab7a4a293074014e2b4d5da54bf1e5b550121033fda9c1129b30be79d049ee3d198cc8786d47d5c1cc22acedef53399a401a739", "asm": "304402203da1d3cacdabda289cd22005da4c5d9374b60f6d70061de05922703800c2ee5e022049dd07a59add973ac8f288f5fa0e99eab7a4a293074014e2b4d5da54bf1e5b55[ALL] 033fda9c1129b30be79d049ee3d198cc8786d47d5c1cc22acedef53399a401a739"}, "vout": 0, "txid": "5243f372b9c047dc1c520e6a48cfc5f8836142b15818aeff8832ec7bb5a36014"}, {"sequence": 4294967293, "scriptSig": {"hex": "483045022100e12a6429250ec9c06b0c3560f3b2343e61f9ab52bd6b17056276aabf15b5cf4002203b5e390a400caaf7a564159d23d871a63ca1396bfd7b15a45645a586fd58988a0121033fda9c1129b30be79d049ee3d198cc8786d47d5c1cc22acedef53399a401a739", "asm": "3045022100e12a6429250ec9c06b0c3560f3b2343e61f9ab52bd6b17056276aabf15b5cf4002203b5e390a400caaf7a564159d23d871a63ca1396bfd7b15a45645a586fd58988a[ALL] 033fda9c1129b30be79d049ee3d198cc8786d47d5c1cc22acedef53399a401a739"}, "vout": 0, "txid": "5470a5970ba3fe1155560c63797d9b8724d26416a1a412dde45ac661d42c2968"}, {"sequence": 4294967293, "scriptSig": {"hex": "483045022100cefec5daa9bd10bc92efadc998c890264f71de9101eea3430323c7e75ea28421022020f54c4167dc36eca03dabfd4f43f4dec3d62aec578cdb1ee0664a247f6e52840121033fda9c1129b30be79d049ee3d198cc8786d47d5c1cc22acedef53399a401a739", "asm": "3045022100cefec5daa9bd10bc92efadc998c890264f71de9101eea3430323c7e75ea28421022020f54c4167dc36eca03dabfd4f43f4dec3d62aec578cdb1ee0664a247f6e5284[ALL] 033fda9c1129b30be79d049ee3d198cc8786d47d5c1cc22acedef53399a401a739"}, "vout": 0, "txid": "5695641f974e48dba2e24613338fb86781bdacdce4a59c046842ab3012277704"}, {"sequence": 4294967293, "scriptSig": {"hex": "483045022100b2c0510ef97f587982ac697dddffb8380796461c10deda23498a555469144e0c02207fdf27ce1cd1238f6b1e033002c195690b16fc3535bce6b1b1cdd735cd93d7630121033fda9c1129b30be79d049ee3d198cc8786d47d5c1cc22acedef53399a401a739", "asm": "3045022100b2c0510ef97f587982ac697dddffb8380796461c10deda23498a555469144e0c02207fdf27ce1cd1238f6b1e033002c195690b16fc3535bce6b1b1cdd735cd93d763[ALL] 033fda9c1129b30be79d049ee3d198cc8786d47d5c1cc22acedef53399a401a739"}, "vout": 0, "txid": "5cb0a8ff3463d7dfd24ee22177f3ad252e67b2107aaf53fc861ddbeb10d5295d"}, {"sequence": 4294967293, "scriptSig": {"hex": "483045022100add998fd00731f4d877f9ec8016334391c9f13e19131b307dcc1a3d736e5f97f0220139ef3342a30061d63716561233c68b12227846aa1d859d1bbf5a55e18853e400121033fda9c1129b30be79d049ee3d198cc8786d47d5c1cc22acedef53399a401a739", "asm": "3045022100add998fd00731f4d877f9ec8016334391c9f13e19131b307dcc1a3d736e5f97f0220139ef3342a30061d63716561233c68b12227846aa1d859d1bbf5a55e18853e40[ALL] 033fda9c1129b30be79d049ee3d198cc8786d47d5c1cc22acedef53399a401a739"}, "vout": 0, "txid": "7361fa15532d05adbbf82bdb5bf5dc9131b92bd68ffa5971e9e92b4eea1909d2"}, {"sequence": 4294967293, "scriptSig": {"hex": "483045022100b0d1e444a167926bc85c7031a6e77f0a87c776adcce9a22c171205df59c21c2002203e9c376aa89519db0df0fc1c34cd33d77382fc8b86f7b602f139072a00d7f6640121033fda9c1129b30be79d049ee3d198cc8786d47d5c1cc22acedef53399a401a739", "asm": "3045022100b0d1e444a167926bc85c7031a6e77f0a87c776adcce9a22c171205df59c21c2002203e9c376aa89519db0df0fc1c34cd33d77382fc8b86f7b602f139072a00d7f664[ALL] 033fda9c1129b30be79d049ee3d198cc8786d47d5c1cc22acedef53399a401a739"}, "vout": 0, "txid": "81f3c02a00ee6a17c9b9f20d864e6b07714d3c6b98a3d255caa5062671dfcb45"}, {"sequence": 4294967293, "scriptSig": {"hex": "483045022100bd31ba1d2592cabc4642f19ef0e3f09d289ebfd20f464515ae1aeec89910148302205e47743935c2d43c2219c8edbe78d3e01b6732c0e6eb13bca8e971ac97e4b88d0121033fda9c1129b30be79d049ee3d198cc8786d47d5c1cc22acedef53399a401a739", "asm": "3045022100bd31ba1d2592cabc4642f19ef0e3f09d289ebfd20f464515ae1aeec89910148302205e47743935c2d43c2219c8edbe78d3e01b6732c0e6eb13bca8e971ac97e4b88d[ALL] 033fda9c1129b30be79d049ee3d198cc8786d47d5c1cc22acedef53399a401a739"}, "vout": 0, "txid": "8f4fcb90742730e9d3674c8723a7a46c257e7c6ab7c5a3c9f7dc67a3162dfc0e"}, {"sequence": 4294967293, "scriptSig": {"hex": "47304402206c75654d675d3fc368376a2246202cef5c6c3588bdfba82493d671cb3deb33fa02207a2ff1298564303451f8febf168fffc85b4e4d0ff8cc068076c6c7716ef65c1f0121033fda9c1129b30be79d049ee3d198cc8786d47d5c1cc22acedef53399a401a739", "asm": "304402206c75654d675d3fc368376a2246202cef5c6c3588bdfba82493d671cb3deb33fa02207a2ff1298564303451f8febf168fffc85b4e4d0ff8cc068076c6c7716ef65c1f[ALL] 033fda9c1129b30be79d049ee3d198cc8786d47d5c1cc22acedef53399a401a739"}, "vout": 0, "txid": "992ff2f3c4530b62c0cf8c4ae830cb89730416ff31b692c1faec25a021a84e07"}, {"sequence": 4294967293, "scriptSig": {"hex": "473044022024b40d01927bc0e6a6f4a3d25013b3f53e63d5a15845ad24ea8255af1e83c9b4022076d596cfdc7daef7669bcf5f9e000ff519c08bec7b566d358f1cc8e6dcac8e3b0121033fda9c1129b30be79d049ee3d198cc8786d47d5c1cc22acedef53399a401a739", "asm": "3044022024b40d01927bc0e6a6f4a3d25013b3f53e63d5a15845ad24ea8255af1e83c9b4022076d596cfdc7daef7669bcf5f9e000ff519c08bec7b566d358f1cc8e6dcac8e3b[ALL] 033fda9c1129b30be79d049ee3d198cc8786d47d5c1cc22acedef53399a401a739"}, "vout": 0, "txid": "a6dbb67ce3b9f3a52e7e1a78edc75b8ca8f54188fd31615d8c2955b06b2010cd"}, {"sequence": 4294967293, "scriptSig": {"hex": "47304402201a8cc9cd0e4bd9e0b7a1f9b80456994115be365ae0387f72e07807bc74c2d6ca0220522a3efa933bea374117b2946bbe5603337aba8636eaa5a7f35e49f7fdb796c50121033fda9c1129b30be79d049ee3d198cc8786d47d5c1cc22acedef53399a401a739", "asm": "304402201a8cc9cd0e4bd9e0b7a1f9b80456994115be365ae0387f72e07807bc74c2d6ca0220522a3efa933bea374117b2946bbe5603337aba8636eaa5a7f35e49f7fdb796c5[ALL] 033fda9c1129b30be79d049ee3d198cc8786d47d5c1cc22acedef53399a401a739"}, "vout": 0, "txid": "b4a5f698b8eaa3734b3a9e8b6125a79e5a687ae15cb7717b5ebb9fb2eef1abb0"}, {"sequence": 4294967293, "scriptSig": {"hex": "4730440220385bd057506df074967e4615f7fbf29495c0dd819ae340da00322713a05158c70220077c90d117269bcedbfc9bd175427be6ee287a587492e231a4ce3455e3099a100121033fda9c1129b30be79d049ee3d198cc8786d47d5c1cc22acedef53399a401a739", "asm": "30440220385bd057506df074967e4615f7fbf29495c0dd819ae340da00322713a05158c70220077c90d117269bcedbfc9bd175427be6ee287a587492e231a4ce3455e3099a10[ALL] 033fda9c1129b30be79d049ee3d198cc8786d47d5c1cc22acedef53399a401a739"}, "vout": 0, "txid": "c4c39515a8f87d35934c52e00ccc9497d02a30afae46045cab714fb5fe6693d2"}, {"sequence": 4294967293, "scriptSig": {"hex": "473044022047ea59e41e5ddf1902776b420c3c772b7d4e0528fd9480f7f3e23a1cb93fb5a202207ef86878fc93772f94c9d0c950b760f5761d6bb6ab4acae00b8ca3ed54b8c7180121033fda9c1129b30be79d049ee3d198cc8786d47d5c1cc22acedef53399a401a739", "asm": "3044022047ea59e41e5ddf1902776b420c3c772b7d4e0528fd9480f7f3e23a1cb93fb5a202207ef86878fc93772f94c9d0c950b760f5761d6bb6ab4acae00b8ca3ed54b8c718[ALL] 033fda9c1129b30be79d049ee3d198cc8786d47d5c1cc22acedef53399a401a739"}, "vout": 0, "txid": "cfb0ff0ebaeb88024229a28d043d74148a3aedfb86f66aa0160db9b88d8b9db1"}, {"sequence": 4294967293, "scriptSig": {"hex": "483045022100cb53cf952851c16f9b8f4235872725e99ab46831c49d87bb6a66bff93d98348a02200ebed98bdef70221977bbd36dc9ce7c49926682425a20c0f99e36ed932dfb5220121033fda9c1129b30be79d049ee3d198cc8786d47d5c1cc22acedef53399a401a739", "asm": "3045022100cb53cf952851c16f9b8f4235872725e99ab46831c49d87bb6a66bff93d98348a02200ebed98bdef70221977bbd36dc9ce7c49926682425a20c0f99e36ed932dfb522[ALL] 033fda9c1129b30be79d049ee3d198cc8786d47d5c1cc22acedef53399a401a739"}, "vout": 0, "txid": "cfc0e071ef5daba3d53e7d1e06d2e2ed0834d2b0dcaf9a4dcefc0d76c63a89ac"}, {"sequence": 4294967293, "scriptSig": {"hex": "483045022100fadd5758d375c7fb8b18a7d6fb07b3f0b97682cb0b58f561a25eb5e525f0b12602204770663ff182417e56eb14e0a8a053bc44b9e9964641b46b0ec59ebeef2892620121033fda9c1129b30be79d049ee3d198cc8786d47d5c1cc22acedef53399a401a739", "asm": "3045022100fadd5758d375c7fb8b18a7d6fb07b3f0b97682cb0b58f561a25eb5e525f0b12602204770663ff182417e56eb14e0a8a053bc44b9e9964641b46b0ec59ebeef289262[ALL] 033fda9c1129b30be79d049ee3d198cc8786d47d5c1cc22acedef53399a401a739"}, "vout": 0, "txid": "e294ebbf5fc30dc7b060a9ce85f406d5f346cafa6dc4fe862f2e4ff243381f03"}, {"sequence": 4294967293, "scriptSig": {"hex": "473044022048ca95a0e5c3e99358fe456b0a645ed771b6e4660e0f5101a6928a33c1c0529802201d75314ea411aa482c83ea2baceaaac173e14cf4f5bdca5a1e0698f665982ae40121033fda9c1129b30be79d049ee3d198cc8786d47d5c1cc22acedef53399a401a739", "asm": "3044022048ca95a0e5c3e99358fe456b0a645ed771b6e4660e0f5101a6928a33c1c0529802201d75314ea411aa482c83ea2baceaaac173e14cf4f5bdca5a1e0698f665982ae4[ALL] 033fda9c1129b30be79d049ee3d198cc8786d47d5c1cc22acedef53399a401a739"}, "vout": 0, "txid": "fb3dd3048cbd9c38fc3b51f153c505656a8affa229323cc47cb7613415ebf85b"}], "txid": "95167aac93126b827990c1c0d85b0870aed86fdd1554935433b2932e9215d69a", "blocktime": 1537876114, "version": 1, "confirmations": 11460, "time": 1537876114, "locktime": 542998, "vsize": 3324, "size": 3324}