{"hash": "1d821b81a3a9dce3f354d118ca69c4ef2020169e3a0d92022f792b3e18feff6f", "blockhash": "0000000000000000000baef3f32e3676a92c3b2e5da21b426e4f302fc371ce76", "vout": [{"scriptPubKey": {"reqSigs": 1, "hex": "a914a2601375d7daad77764af73941ba2d90bbb4d98c87", "addresses": ["3GVaV6hAqeFNLyUtSTVsfNuy4vVELrXPhi"], "asm": "OP_HASH160 a2601375d7daad77764af73941ba2d90bbb4d98c OP_EQUAL", "type": "scripthash"}, "value": 0.46284336, "n": 0}, {"scriptPubKey": {"reqSigs": 1, "hex": "a914cfaabfe8c271f99a4364b5197ba50c6cddb7adb987", "addresses": ["3Ld4M9RPwEG3VeQbHcC1PsKUndQL7VYLZP"], "asm": "OP_HASH160 cfaabfe8c271f99a4364b5197ba50c6cddb7adb9 OP_EQUAL", "type": "scripthash"}, "value": 0.19392879, "n": 1}], "hex": "01000000000101bb7ba89875e5ce94236048bd4d17180427ef37a404d48ecb0d69f95ce2ab532201000000232200202f7b4024602241b47d3306a6733d9889e4b6761d9f1cb82a18aa8b9ac4506e51ffffffff02303ec2020000000017a914a2601375d7daad77764af73941ba2d90bbb4d98c876fe927010000000017a914cfaabfe8c271f99a4364b5197ba50c6cddb7adb9870400483045022100e85a7dde5d07b15682f5a2633f86ed5fd2bc1374705cc854f4bf5476cb52bfe8022058d5d5a869376bbc1e7f279979450f0731655af412b7437c117e63c3b22a0ec4014730440220073b8790ca829fb7b57b9682e2aaa6fddeb40ac349c563ab9e83a43162f464530220733e5d9c8c81f8cd8fe2dc62b59dc9d06a2958901559b7b8659b156a494c9e0d0147522102973cd851fecff3a20f08377b072729f303801eee1b7678668338adcaec770ec221033e4af03ed09dbd8a417ba042650d5bd1db7f14f271a8f660974e3abf1fdfa4da52ae00000000", "vin": [{"txinwitness": ["", "3045022100e85a7dde5d07b15682f5a2633f86ed5fd2bc1374705cc854f4bf5476cb52bfe8022058d5d5a869376bbc1e7f279979450f0731655af412b7437c117e63c3b22a0ec401", "30440220073b8790ca829fb7b57b9682e2aaa6fddeb40ac349c563ab9e83a43162f464530220733e5d9c8c81f8cd8fe2dc62b59dc9d06a2958901559b7b8659b156a494c9e0d01", "522102973cd851fecff3a20f08377b072729f303801eee1b7678668338adcaec770ec221033e4af03ed09dbd8a417ba042650d5bd1db7f14f271a8f660974e3abf1fdfa4da52ae"], "sequence": 4294967295, "scriptSig": {"hex": "2200202f7b4024602241b47d3306a6733d9889e4b6761d9f1cb82a18aa8b9ac4506e51", "asm": "00202f7b4024602241b47d3306a6733d9889e4b6761d9f1cb82a18aa8b9ac4506e51"}, "vout": 1, "txid": "2253abe25cf9690dcb8ed404a437ef270418174dbd48602394cee57598a87bbb"}], "txid": "95189af03060b70c67e0d429d3844f97c4c44a24fbf8971ec1c7b9ef70eb84f4", "blocktime": 1537876114, "version": 1, "confirmations": 11462, "time": 1537876114, "locktime": 0, "vsize": 206, "size": 371}