{"hash": "951c3c2e6d867ad7aff7f6e5d40eec20fd4bf8cc2a5a36dda670c9246bf51527", "blockhash": "0000000000000000001f76057863aec43deb6fa401d9628bb513d65a8098bfab", "vout": [{"scriptPubKey": {"reqSigs": 1, "hex": "76a914bb049c785e58d003a8af55f6007f5fe3aa10207888ac", "addresses": ["1J3rtGN6kZ8GYa92jhyvuGvTBeLbgZPjMm"], "asm": "OP_DUP OP_HASH160 bb049c785e58d003a8af55f6007f5fe3aa102078 OP_EQUALVERIFY OP_CHECKSIG", "type": "pubkeyhash"}, "value": 0.00780357, "n": 0}, {"scriptPubKey": {"reqSigs": 1, "hex": "76a91431f5b8ab111d7a1ff140a440a54a19d9aec0ada388ac", "addresses": ["15ZAURJtscCK4fGmfqZYBdHm2wv3JpMhnb"], "asm": "OP_DUP OP_HASH160 31f5b8ab111d7a1ff140a440a54a19d9aec0ada3 OP_EQUALVERIFY OP_CHECKSIG", "type": "pubkeyhash"}, "value": 0.54739967, "n": 1}], "hex": "0100000001b68b37bbe9b30d679120ba5167685a90af27165be2d2b39e1b491d49dbedb10a000000006a4730440220613d3f7852eee4116ef5b2e2982e178eaac612d45a77dbc3252c0d6f92abf359022001ce755e5472a0c0e031c793c4bb9dcc71f492b281a4e9a95225342eeb7594dc01210376e7375dec5f1ed3f73882da18cc44cfb9eba007e222a3fd6fa11a019bb257faffffffff0245e80b00000000001976a914bb049c785e58d003a8af55f6007f5fe3aa10207888acff434303000000001976a91431f5b8ab111d7a1ff140a440a54a19d9aec0ada388ac00000000", "vin": [{"sequence": 4294967295, "scriptSig": {"hex": "4730440220613d3f7852eee4116ef5b2e2982e178eaac612d45a77dbc3252c0d6f92abf359022001ce755e5472a0c0e031c793c4bb9dcc71f492b281a4e9a95225342eeb7594dc01210376e7375dec5f1ed3f73882da18cc44cfb9eba007e222a3fd6fa11a019bb257fa", "asm": "30440220613d3f7852eee4116ef5b2e2982e178eaac612d45a77dbc3252c0d6f92abf359022001ce755e5472a0c0e031c793c4bb9dcc71f492b281a4e9a95225342eeb7594dc[ALL] 0376e7375dec5f1ed3f73882da18cc44cfb9eba007e222a3fd6fa11a019bb257fa"}, "vout": 0, "txid": "0ab1eddb491d491b9eb3d2e25b1627af905a686751ba2091670db3e9bb378bb6"}], "txid": "951c3c2e6d867ad7aff7f6e5d40eec20fd4bf8cc2a5a36dda670c9246bf51527", "blocktime": 1537873891, "version": 1, "confirmations": 11478, "time": 1537873891, "locktime": 0, "vsize": 225, "size": 225}