{"hash": "951fbfbcd2556b875de3e3973cde74d1784229c5819a5b38287f5b8935d95e58", "blockhash": "00000000000000000017f5eb5941039fbcee6240d03bc1f2f8e35350df66a1d8", "vout": [{"scriptPubKey": {"reqSigs": 1, "hex": "76a914512035341f37ccd6956ce28ad65ad93174a827df88ac", "addresses": ["18PxKNtC14odV3WKBLZCNnGk4nnytDmPec"], "asm": "OP_DUP OP_HASH160 512035341f37ccd6956ce28ad65ad93174a827df OP_EQUALVERIFY OP_CHECKSIG", "type": "pubkeyhash"}, "value": 0.0387, "n": 0}, {"scriptPubKey": {"reqSigs": 1, "hex": "76a9143a70aa52148668fc050d1e3715985757cd65164488ac", "addresses": ["16L1AFUG6xME6DTwdc8p3VBqBS7RBpM6gn"], "asm": "OP_DUP OP_HASH160 3a70aa52148668fc050d1e3715985757cd651644 OP_EQUALVERIFY OP_CHECKSIG", "type": "pubkeyhash"}, "value": 0.76808663, "n": 1}], "hex": "010000000137585b285a794c3086a4b1d6a517f0ced2f469114a0e1a9b96fc8791192270db010000006a47304402205d7c116241e02ed7f8c20e137fb0ce955a16ce0cf15dc48edbb083785933ed1702205814f3d8429d77e144d7ee3e8dc6d7d921de68b2a2c3068bc0dacd65952c6dba0121037b03d1c95a864678c0861063997febab76d1ee69d9e8d906258d6772ab9fef80ffffffff02300d3b00000000001976a914512035341f37ccd6956ce28ad65ad93174a827df88acd7019404000000001976a9143a70aa52148668fc050d1e3715985757cd65164488ac00000000", "vin": [{"sequence": 4294967295, "scriptSig": {"hex": "47304402205d7c116241e02ed7f8c20e137fb0ce955a16ce0cf15dc48edbb083785933ed1702205814f3d8429d77e144d7ee3e8dc6d7d921de68b2a2c3068bc0dacd65952c6dba0121037b03d1c95a864678c0861063997febab76d1ee69d9e8d906258d6772ab9fef80", "asm": "304402205d7c116241e02ed7f8c20e137fb0ce955a16ce0cf15dc48edbb083785933ed1702205814f3d8429d77e144d7ee3e8dc6d7d921de68b2a2c3068bc0dacd65952c6dba[ALL] 037b03d1c95a864678c0861063997febab76d1ee69d9e8d906258d6772ab9fef80"}, "vout": 1, "txid": "db7022199187fc969b1a0e4a1169f4d2cef017a5d6b1a486304c795a285b5837"}], "txid": "951fbfbcd2556b875de3e3973cde74d1784229c5819a5b38287f5b8935d95e58", "blocktime": 1537874412, "version": 1, "confirmations": 11467, "time": 1537874412, "locktime": 0, "vsize": 225, "size": 225}