{"hash": "952140c88dd7137a322928e23bf8c126ee28b926b0d0d5ac639779703dc2c954", "blockhash": "00000000000000000018f53835495a110e01622372bf6ae95dc86f2b0ab887b0", "vout": [{"scriptPubKey": {"reqSigs": 1, "hex": "76a91499ff96881c5040df32bcfbc7f50b1e1a3573c9ec88ac", "addresses": ["1F3GZvAWyVzhTxZjkpWAdVtCRwrBS4DvRi"], "asm": "OP_DUP OP_HASH160 99ff96881c5040df32bcfbc7f50b1e1a3573c9ec OP_EQUALVERIFY OP_CHECKSIG", "type": "pubkeyhash"}, "value": 0.06342055, "n": 0}, {"scriptPubKey": {"reqSigs": 1, "hex": "76a9149f7ca14a408b36acf8bf744ef0d6fca4524e7c1588ac", "addresses": ["1FYHjwyz6K2arNdr5a2c5d38nLAQ2qyHaJ"], "asm": "OP_DUP OP_HASH160 9f7ca14a408b36acf8bf744ef0d6fca4524e7c15 OP_EQUALVERIFY OP_CHECKSIG", "type": "pubkeyhash"}, "value": 0.48362366, "n": 1}], "hex": "01000000010b20cbb01e0e2bd3615d84fce75c88edcb3fced4fc982baa31a81462921ae89d010000006b483045022100fe07fb81d2f1851b15dc70e91e346477d448b7537c04969fcb4e9a69eda6422b022029afe8a67e568a87a7567e43f772d018b3c1e88b2aad5327165ad6a90749daea012103c08a087aa1c638008a653e0c93ddf675741068c390cbe20a3374c50c9edd6f1fffffffff02a7c56000000000001976a91499ff96881c5040df32bcfbc7f50b1e1a3573c9ec88ac7ef3e102000000001976a9149f7ca14a408b36acf8bf744ef0d6fca4524e7c1588ac00000000", "vin": [{"sequence": 4294967295, "scriptSig": {"hex": "483045022100fe07fb81d2f1851b15dc70e91e346477d448b7537c04969fcb4e9a69eda6422b022029afe8a67e568a87a7567e43f772d018b3c1e88b2aad5327165ad6a90749daea012103c08a087aa1c638008a653e0c93ddf675741068c390cbe20a3374c50c9edd6f1f", "asm": "3045022100fe07fb81d2f1851b15dc70e91e346477d448b7537c04969fcb4e9a69eda6422b022029afe8a67e568a87a7567e43f772d018b3c1e88b2aad5327165ad6a90749daea[ALL] 03c08a087aa1c638008a653e0c93ddf675741068c390cbe20a3374c50c9edd6f1f"}, "vout": 1, "txid": "9de81a926214a831aa2b98fcd4ce3fcbed885ce7fc845d61d32b0e1eb0cb200b"}], "txid": "952140c88dd7137a322928e23bf8c126ee28b926b0d0d5ac639779703dc2c954", "blocktime": 1537870928, "version": 1, "confirmations": 11514, "time": 1537870928, "locktime": 0, "vsize": 226, "size": 226}