{"hash": "07b3a0e520739745c4495f377db8a2eabf7fd46761cdc38a19b0d33e293991a9", "blockhash": "00000000000000000004ffacab907a6b429b9a5745fa0b75af4234bf69dd7176", "vout": [{"scriptPubKey": {"reqSigs": 1, "hex": "76a914d247d0da19dc4dff8e7d897882107dfa3b217ec688ac", "addresses": ["1LArw8s8jp9tQQKKkdbqiVbWemkKaei4p3"], "asm": "OP_DUP OP_HASH160 d247d0da19dc4dff8e7d897882107dfa3b217ec6 OP_EQUALVERIFY OP_CHECKSIG", "type": "pubkeyhash"}, "value": 0.18636835, "n": 0}, {"scriptPubKey": {"reqSigs": 1, "hex": "76a914080200bc127be5e15ac01c65d7ef7e24d24d0ad288ac", "addresses": ["1jLohPwM3LcfvnFK9RQyeZwrkdGx7jsbR"], "asm": "OP_DUP OP_HASH160 080200bc127be5e15ac01c65d7ef7e24d24d0ad2 OP_EQUALVERIFY OP_CHECKSIG", "type": "pubkeyhash"}, "value": 0.04374694, "n": 1}], "hex": "020000000001021a4ba22fd16faea98b1a2abeb40558e42261294a7c926a023252bae20e93cfa801000000171600142ef09ce56a62c89d4df21cf770b3aea5de875961feffffff6c7ac99f4b6ca005bcd944783df553ff242861abe3656b5eb80494dc4c81abae010000006b48304502210081e47f15b1b934ad6ed5c6780285f420e74d587357b085a0e8c08ea10c173e9602207295b02224d087f5a43a6f8d84bb14f960974ba56da51a86077a16ba5f4ebca5012103b68168cd2dec3e7758865789d3de8691813df49b6f118252c1513915446287dcfeffffff0223601c01000000001976a914d247d0da19dc4dff8e7d897882107dfa3b217ec688aca6c04200000000001976a914080200bc127be5e15ac01c65d7ef7e24d24d0ad288ac0247304402203429e42ce24343a2d402020e3d940cb0ec4129ea558480d03cd49f4a1576e75902207da2a32727301699a6cfd8f7a78f89fe49bff99833104b4a9687c8b51b94a528012103b68748c78d780a06638b906d17fa827a2b09d98a5c5e990c7561138ca4816d140016490800", "vin": [{"txinwitness": ["304402203429e42ce24343a2d402020e3d940cb0ec4129ea558480d03cd49f4a1576e75902207da2a32727301699a6cfd8f7a78f89fe49bff99833104b4a9687c8b51b94a52801", "03b68748c78d780a06638b906d17fa827a2b09d98a5c5e990c7561138ca4816d14"], "sequence": 4294967294, "scriptSig": {"hex": "1600142ef09ce56a62c89d4df21cf770b3aea5de875961", "asm": "00142ef09ce56a62c89d4df21cf770b3aea5de875961"}, "vout": 1, "txid": "a8cf930ee2ba5232026a927c4a296122e45805b4be2a1a8ba9ae6fd12fa24b1a"}, {"sequence": 4294967294, "scriptSig": {"hex": "48304502210081e47f15b1b934ad6ed5c6780285f420e74d587357b085a0e8c08ea10c173e9602207295b02224d087f5a43a6f8d84bb14f960974ba56da51a86077a16ba5f4ebca5012103b68168cd2dec3e7758865789d3de8691813df49b6f118252c1513915446287dc", "asm": "304502210081e47f15b1b934ad6ed5c6780285f420e74d587357b085a0e8c08ea10c173e9602207295b02224d087f5a43a6f8d84bb14f960974ba56da51a86077a16ba5f4ebca5[ALL] 03b68168cd2dec3e7758865789d3de8691813df49b6f118252c1513915446287dc"}, "vout": 1, "txid": "aeab814cdc9404b85e6b65e3ab612824ff53f53d7844d9bc05a06c4b9fc97a6c"}], "txid": "952205ad9bba9dabfc4292e93027e3d8f09db97b16617297d1d675023530c1d9", "blocktime": 1537875543, "version": 2, "confirmations": 11464, "time": 1537875543, "locktime": 542998, "vsize": 318, "size": 400}