{"hash": "9523a9fa181c22613c6d08efccffd60f3b51d742869613da09790453bfac44e0", "blockhash": "00000000000000000004ffacab907a6b429b9a5745fa0b75af4234bf69dd7176", "vout": [{"scriptPubKey": {"reqSigs": 1, "hex": "76a9142be79a5f37cc3c5629451e307fa47d1021a042ef88ac", "addresses": ["1519WJtEBeJ3HXEXmYJPR2Rc4zvbut1kFk"], "asm": "OP_DUP OP_HASH160 2be79a5f37cc3c5629451e307fa47d1021a042ef OP_EQUALVERIFY OP_CHECKSIG", "type": "pubkeyhash"}, "value": 0.00110178, "n": 0}, {"scriptPubKey": {"reqSigs": 1, "hex": "a91434dc0e088be8292bb23902d195becce1fe2cd80b87", "addresses": ["36WWgCJgw3JJ38AGPT4FhZ3RyypxeWqZtv"], "asm": "OP_HASH160 34dc0e088be8292bb23902d195becce1fe2cd80b OP_EQUAL", "type": "scripthash"}, "value": 0.00586198, "n": 1}], "hex": "0100000002ef1cd04a5b421e00e3b4595792c34b22385b96c5ad739422a62de6a84930cb0a000000006a4730440220513bc15ea1fdc1b49fca787a69058ec353498f840d2221fd30e5305ffc3eca3b02202c270614c991d2213d2f958bf7eb8a97f4de5e23cf6bd2b49172d89ad6b4350f012103ae6fdc9848cfae3dfdd844eddc7d226b19ab1c1495af021cc1b8983dc33727e2ffffffffaf832faba8f8ee25ea37ed3dc8a582cb918bb2a03742c0d99d07a0499fbbb34a000000006b483045022100dfbb2da07f430552f4682a9f5fc38c89512a94122340b46fbe29b0af3ed04e18022061a3f0695c3c71655e4e7c8de58e085ec6645646512e3fae16e648e0d1320269012102814ed23bf806e85088816b5cc5eadbe56811083499179dec99bf4314193ee206ffffffff0262ae0100000000001976a9142be79a5f37cc3c5629451e307fa47d1021a042ef88acd6f108000000000017a91434dc0e088be8292bb23902d195becce1fe2cd80b8700000000", "vin": [{"sequence": 4294967295, "scriptSig": {"hex": "4730440220513bc15ea1fdc1b49fca787a69058ec353498f840d2221fd30e5305ffc3eca3b02202c270614c991d2213d2f958bf7eb8a97f4de5e23cf6bd2b49172d89ad6b4350f012103ae6fdc9848cfae3dfdd844eddc7d226b19ab1c1495af021cc1b8983dc33727e2", "asm": "30440220513bc15ea1fdc1b49fca787a69058ec353498f840d2221fd30e5305ffc3eca3b02202c270614c991d2213d2f958bf7eb8a97f4de5e23cf6bd2b49172d89ad6b4350f[ALL] 03ae6fdc9848cfae3dfdd844eddc7d226b19ab1c1495af021cc1b8983dc33727e2"}, "vout": 0, "txid": "0acb3049a8e62da6229473adc5965b38224bc3925759b4e3001e425b4ad01cef"}, {"sequence": 4294967295, "scriptSig": {"hex": "483045022100dfbb2da07f430552f4682a9f5fc38c89512a94122340b46fbe29b0af3ed04e18022061a3f0695c3c71655e4e7c8de58e085ec6645646512e3fae16e648e0d1320269012102814ed23bf806e85088816b5cc5eadbe56811083499179dec99bf4314193ee206", "asm": "3045022100dfbb2da07f430552f4682a9f5fc38c89512a94122340b46fbe29b0af3ed04e18022061a3f0695c3c71655e4e7c8de58e085ec6645646512e3fae16e648e0d1320269[ALL] 02814ed23bf806e85088816b5cc5eadbe56811083499179dec99bf4314193ee206"}, "vout": 0, "txid": "4ab3bb9f49a0079dd9c04237a0b28b91cb82a5c83ded37ea25eef8a8ab2f83af"}], "txid": "9523a9fa181c22613c6d08efccffd60f3b51d742869613da09790453bfac44e0", "blocktime": 1537875543, "version": 1, "confirmations": 11464, "time": 1537875543, "locktime": 0, "vsize": 371, "size": 371}