{"hash": "6c14f010c6399135ead30c5cfb14a2b35b9a93d034d298c54f92c1c185a7d9c1", "blockhash": "0000000000000000000dcc0f55137456b1a82d3642486a52398922ac4d620174", "vout": [{"scriptPubKey": {"reqSigs": 1, "hex": "0014a5559f8e59d2fb653219df64b390ee0c53b4aed2", "addresses": ["bc1q542elrje6tak2vsemajt8y8wp3fmftkjjpm6s9"], "asm": "0 a5559f8e59d2fb653219df64b390ee0c53b4aed2", "type": "witness_v0_keyhash"}, "value": 0.00108361, "n": 0}, {"scriptPubKey": {"reqSigs": 1, "hex": "76a91492f9e4e33f9acf99ca3ec2ce1692af509424079288ac", "addresses": ["1EQ91xHWZ7rX8rwriMmtmxbSjHJavX4QzG"], "asm": "OP_DUP OP_HASH160 92f9e4e33f9acf99ca3ec2ce1692af5094240792 OP_EQUALVERIFY OP_CHECKSIG", "type": "pubkeyhash"}, "value": 0.03, "n": 1}], "hex": "010000000001016194f0420e3dc788ce2a382890ea05908acd89a3e4b57ed7f8dd6c3586272c5500000000171600141c2c90f0435aeb79d4c033e8917f7c194414701effffffff0249a7010000000000160014a5559f8e59d2fb653219df64b390ee0c53b4aed2c0c62d00000000001976a91492f9e4e33f9acf99ca3ec2ce1692af509424079288ac02483045022100eaad0d8addab5ea8f58ba835e2acf6e2d0fee79c0f37a82fffcc4abcb6f9af5002200b1bb5b6695142c7a30235e62062c5e0d4dd672a48c5bf74b56bf3541286ffb001210295ad5ed74c626067a8f45bb2c8549f51aed9472cb796d467980f4ff38fca449d00000000", "vin": [{"txinwitness": ["3045022100eaad0d8addab5ea8f58ba835e2acf6e2d0fee79c0f37a82fffcc4abcb6f9af5002200b1bb5b6695142c7a30235e62062c5e0d4dd672a48c5bf74b56bf3541286ffb001", "0295ad5ed74c626067a8f45bb2c8549f51aed9472cb796d467980f4ff38fca449d"], "sequence": 4294967295, "scriptSig": {"hex": "1600141c2c90f0435aeb79d4c033e8917f7c194414701e", "asm": "00141c2c90f0435aeb79d4c033e8917f7c194414701e"}, "vout": 0, "txid": "552c2786356cddf8d77eb5e4a389cd8a9005ea9028382ace88c73d0e42f09461"}], "txid": "95245f2c38d5144b5039a9bbfd951b14c090af2c22a8a5bd534f577e4ded69e7", "blocktime": 1537870268, "version": 1, "confirmations": 11518, "time": 1537870268, "locktime": 0, "vsize": 167, "size": 249}