{"hash": "95273c414c904c1f3ce9a7fab410683ad6551d24610ebeb8723c50f6ba0ab671", "blockhash": "0000000000000000000dcc0f55137456b1a82d3642486a52398922ac4d620174", "vout": [{"scriptPubKey": {"reqSigs": 1, "hex": "76a914ddde0443f2beb15ef6f7fe2a08115ab734e7a50b88ac", "addresses": ["1ME8JPC8vXacQRcUqSpjext6bvhbwtKjVE"], "asm": "OP_DUP OP_HASH160 ddde0443f2beb15ef6f7fe2a08115ab734e7a50b OP_EQUALVERIFY OP_CHECKSIG", "type": "pubkeyhash"}, "value": 0.00994804, "n": 0}, {"scriptPubKey": {"reqSigs": 1, "hex": "76a914995b6092e6c467742352cf453733dc565cd775c688ac", "addresses": ["1EysrMRUH1ppHn3bQAM8DKqpPg18tDcGQ8"], "asm": "OP_DUP OP_HASH160 995b6092e6c467742352cf453733dc565cd775c6 OP_EQUALVERIFY OP_CHECKSIG", "type": "pubkeyhash"}, "value": 0.4595, "n": 1}], "hex": "02000000083d950560476db62de111ba8ebbda603b1c20c31405ea2283b4a0fa39224be14e010000006a473044022034f50fe76566eb80f228ae91b2ccd528e988eee24fba0bf8d71a01d062cef58602207438c441630488fdc5efc6c7ecc2b983ed446d324b8d7d52694b42d234448ad80121023d3973092b359d5677f676a5c0eb3bdadfc53ff772a98d4cb99819df434aea15feffffff57f484a13a5c414a8b221d60a796d9e8bed679956bb7ae1d09a1ecab23286b75080000006b483045022100b0d0ed34a046edfbf84e31c7eb042f1c0969efceec5476ef288e768c14728a3b022044685811b61bef9cf105c130a7e80b89ad9100b04fda9a59983df4a78dbd86190121032b59a026c89b0dad999e4ac96b9f9e51524f5c20a9a8fc1e2c5765c2380c256cfeffffff5f76cc6779685ba25486b3a1cf083623a57d54f4b6a114d15b01db193a075653080000006a47304402201c6861e7e180ab2d7737132ed63de2ca4b47d201099975d3920a4c31ffb6cf670220107eaecee82c6ad1cce7c230b0d4bc6e87fbb37f17bf370653c2fac0bb49bf0a01210250e6ac9c72a18c09a23e7bc92352de01638a24adf7ed6c47f06135384525d71afeffffff6d149a292135330db57d9761f090cbfd36cc85ae3ef0eb24539721100a9aad35000000006b4830450221008f9dc3373a71cc2c7fd99e9e78bd5d90c4490099d3e31e97b5b71a214f9e555502206d5acdaa19b022b1e68a6c9748079522e54b076463689a1c28786e8f2fe0ae23012102830edc279c28d8b35aee0e440f3dcf099c06d58910ddc07a4bb4e26cafe5e88afeffffff7b5d64aea9f391c4ba8fa7486dfdae88654f089b9a4de29a7844e91edc9a5f36060000006a473044022058f38bf2af9ab60f23a5402cfdc9d630432636068013bea63432eb946b18dc4d0220228365241a61405a771ba419a582ee69ff1b0f0367b22688eef83c07c6f7141c012102830edc279c28d8b35aee0e440f3dcf099c06d58910ddc07a4bb4e26cafe5e88afeffffff9ddd36cc9abff1b9d81e9abfc3cb3edcff9adf95b95b441c9ee08f3dc75410d9030000006a47304402201b4c494afa8e66fa334377221720b2ec1b9dea752998956af70c0ae943bcd611022047ac0f2b974250dbacb6f70cbf094ba0268b1b89ed9a8bff3f7b64850bcce787012103963dcf6c540141ed16ce8adb1190a899d81b7aa3166f58b9a84cf3095260f06ffeffffffb7ad33cc3ba552348136d3154dd19d51a8c7bd3390da380e3cafd1fa797b73856c0000006a473044022074f456a28b4d56472c3d59fb1e871db0fc21f7e18408296684011cd83b58728902203637c22593ed10403e164f9cb2321c1368a2db9edb917c8d4fb44359be12829d012103e8178a7f69c43294019b54768bc845ffba9b61872045508a944b017525d48a63feffffffb9a820aa6d7c6cf7a3d31dcd99adef680070e4e9097aecb1a7503dff2c7d466f030000006a473044022074ce4033dbbbc33faf5c7c5fe6b590a84a0ded77668f8a942a5c7a353fab84ec022049b358f4d70c6b7e7d8b34e9275dfa7fa874c05956efce5a503d2cb2191a5824012103c4627c1febcae9e696114186ea4143a3c6b7c233be8d6cd8cb90bf7cccdc734bfeffffff02f42d0f00000000001976a914ddde0443f2beb15ef6f7fe2a08115ab734e7a50b88ac3024bd02000000001976a914995b6092e6c467742352cf453733dc565cd775c688ac00000000", "vin": [{"sequence": 4294967294, "scriptSig": {"hex": "473044022034f50fe76566eb80f228ae91b2ccd528e988eee24fba0bf8d71a01d062cef58602207438c441630488fdc5efc6c7ecc2b983ed446d324b8d7d52694b42d234448ad80121023d3973092b359d5677f676a5c0eb3bdadfc53ff772a98d4cb99819df434aea15", "asm": "3044022034f50fe76566eb80f228ae91b2ccd528e988eee24fba0bf8d71a01d062cef58602207438c441630488fdc5efc6c7ecc2b983ed446d324b8d7d52694b42d234448ad8[ALL] 023d3973092b359d5677f676a5c0eb3bdadfc53ff772a98d4cb99819df434aea15"}, "vout": 1, "txid": "4ee14b2239faa0b48322ea0514c3201c3b60dabb8eba11e12db66d476005953d"}, {"sequence": 4294967294, "scriptSig": {"hex": "483045022100b0d0ed34a046edfbf84e31c7eb042f1c0969efceec5476ef288e768c14728a3b022044685811b61bef9cf105c130a7e80b89ad9100b04fda9a59983df4a78dbd86190121032b59a026c89b0dad999e4ac96b9f9e51524f5c20a9a8fc1e2c5765c2380c256c", "asm": "3045022100b0d0ed34a046edfbf84e31c7eb042f1c0969efceec5476ef288e768c14728a3b022044685811b61bef9cf105c130a7e80b89ad9100b04fda9a59983df4a78dbd8619[ALL] 032b59a026c89b0dad999e4ac96b9f9e51524f5c20a9a8fc1e2c5765c2380c256c"}, "vout": 8, "txid": "756b2823abeca1091daeb76b9579d6bee8d996a7601d228b4a415c3aa184f457"}, {"sequence": 4294967294, "scriptSig": {"hex": "47304402201c6861e7e180ab2d7737132ed63de2ca4b47d201099975d3920a4c31ffb6cf670220107eaecee82c6ad1cce7c230b0d4bc6e87fbb37f17bf370653c2fac0bb49bf0a01210250e6ac9c72a18c09a23e7bc92352de01638a24adf7ed6c47f06135384525d71a", "asm": "304402201c6861e7e180ab2d7737132ed63de2ca4b47d201099975d3920a4c31ffb6cf670220107eaecee82c6ad1cce7c230b0d4bc6e87fbb37f17bf370653c2fac0bb49bf0a[ALL] 0250e6ac9c72a18c09a23e7bc92352de01638a24adf7ed6c47f06135384525d71a"}, "vout": 8, "txid": "5356073a19db015bd114a1b6f4547da5233608cfa1b38654a25b687967cc765f"}, {"sequence": 4294967294, "scriptSig": {"hex": "4830450221008f9dc3373a71cc2c7fd99e9e78bd5d90c4490099d3e31e97b5b71a214f9e555502206d5acdaa19b022b1e68a6c9748079522e54b076463689a1c28786e8f2fe0ae23012102830edc279c28d8b35aee0e440f3dcf099c06d58910ddc07a4bb4e26cafe5e88a", "asm": "30450221008f9dc3373a71cc2c7fd99e9e78bd5d90c4490099d3e31e97b5b71a214f9e555502206d5acdaa19b022b1e68a6c9748079522e54b076463689a1c28786e8f2fe0ae23[ALL] 02830edc279c28d8b35aee0e440f3dcf099c06d58910ddc07a4bb4e26cafe5e88a"}, "vout": 0, "txid": "35ad9a0a1021975324ebf03eae85cc36fdcb90f061977db50d333521299a146d"}, {"sequence": 4294967294, "scriptSig": {"hex": "473044022058f38bf2af9ab60f23a5402cfdc9d630432636068013bea63432eb946b18dc4d0220228365241a61405a771ba419a582ee69ff1b0f0367b22688eef83c07c6f7141c012102830edc279c28d8b35aee0e440f3dcf099c06d58910ddc07a4bb4e26cafe5e88a", "asm": "3044022058f38bf2af9ab60f23a5402cfdc9d630432636068013bea63432eb946b18dc4d0220228365241a61405a771ba419a582ee69ff1b0f0367b22688eef83c07c6f7141c[ALL] 02830edc279c28d8b35aee0e440f3dcf099c06d58910ddc07a4bb4e26cafe5e88a"}, "vout": 6, "txid": "365f9adc1ee944789ae24d9a9b084f6588aefd6d48a78fbac491f3a9ae645d7b"}, {"sequence": 4294967294, "scriptSig": {"hex": "47304402201b4c494afa8e66fa334377221720b2ec1b9dea752998956af70c0ae943bcd611022047ac0f2b974250dbacb6f70cbf094ba0268b1b89ed9a8bff3f7b64850bcce787012103963dcf6c540141ed16ce8adb1190a899d81b7aa3166f58b9a84cf3095260f06f", "asm": "304402201b4c494afa8e66fa334377221720b2ec1b9dea752998956af70c0ae943bcd611022047ac0f2b974250dbacb6f70cbf094ba0268b1b89ed9a8bff3f7b64850bcce787[ALL] 03963dcf6c540141ed16ce8adb1190a899d81b7aa3166f58b9a84cf3095260f06f"}, "vout": 3, "txid": "d91054c73d8fe09e1c445bb995df9affdc3ecbc3bf9a1ed8b9f1bf9acc36dd9d"}, {"sequence": 4294967294, "scriptSig": {"hex": "473044022074f456a28b4d56472c3d59fb1e871db0fc21f7e18408296684011cd83b58728902203637c22593ed10403e164f9cb2321c1368a2db9edb917c8d4fb44359be12829d012103e8178a7f69c43294019b54768bc845ffba9b61872045508a944b017525d48a63", "asm": "3044022074f456a28b4d56472c3d59fb1e871db0fc21f7e18408296684011cd83b58728902203637c22593ed10403e164f9cb2321c1368a2db9edb917c8d4fb44359be12829d[ALL] 03e8178a7f69c43294019b54768bc845ffba9b61872045508a944b017525d48a63"}, "vout": 108, "txid": "85737b79fad1af3c0e38da9033bdc7a8519dd14d15d336813452a53bcc33adb7"}, {"sequence": 4294967294, "scriptSig": {"hex": "473044022074ce4033dbbbc33faf5c7c5fe6b590a84a0ded77668f8a942a5c7a353fab84ec022049b358f4d70c6b7e7d8b34e9275dfa7fa874c05956efce5a503d2cb2191a5824012103c4627c1febcae9e696114186ea4143a3c6b7c233be8d6cd8cb90bf7cccdc734b", "asm": "3044022074ce4033dbbbc33faf5c7c5fe6b590a84a0ded77668f8a942a5c7a353fab84ec022049b358f4d70c6b7e7d8b34e9275dfa7fa874c05956efce5a503d2cb2191a5824[ALL] 03c4627c1febcae9e696114186ea4143a3c6b7c233be8d6cd8cb90bf7cccdc734b"}, "vout": 3, "txid": "6f467d2cff3d50a7b1ec7a09e9e4700068efad99cd1dd3a3f76c7c6daa20a8b9"}], "txid": "95273c414c904c1f3ce9a7fab410683ad6551d24610ebeb8723c50f6ba0ab671", "blocktime": 1537870268, "version": 2, "confirmations": 11517, "time": 1537870268, "locktime": 0, "vsize": 1256, "size": 1256}