{"hash": "9529cdc0542734ac89801202015402d7ed5c3a6bb4ccfaef9c3554b14cd25ea4", "blockhash": "0000000000000000001e0dab787dd257d1dbfcb92a98c2207d5e1078be1f4165", "vout": [{"scriptPubKey": {"reqSigs": 1, "hex": "76a914cb643ed983e159cc74b35b9fbe23e1971208d1fc88ac", "addresses": ["1KYSG83eQ3JVNw5CpoABqu1zkbSdUaStcQ"], "asm": "OP_DUP OP_HASH160 cb643ed983e159cc74b35b9fbe23e1971208d1fc OP_EQUALVERIFY OP_CHECKSIG", "type": "pubkeyhash"}, "value": 0.01926056, "n": 0}, {"scriptPubKey": {"reqSigs": 1, "hex": "76a91494c64007d7e9245dd152bd3152a7f8fea9035d5088ac", "addresses": ["1EZeW3wZsNBiss4m3VNEpVusnNpYkykM1W"], "asm": "OP_DUP OP_HASH160 94c64007d7e9245dd152bd3152a7f8fea9035d50 OP_EQUALVERIFY OP_CHECKSIG", "type": "pubkeyhash"}, "value": 0.05998168, "n": 1}, {"scriptPubKey": {"reqSigs": 1, "hex": "76a914f480dfa226bf0beb174278dd7a31ee312c6e97e688ac", "addresses": ["1PHpG6kPcAoDZrxRdbKWp58PYGbLsNwNtg"], "asm": "OP_DUP OP_HASH160 f480dfa226bf0beb174278dd7a31ee312c6e97e6 OP_EQUALVERIFY OP_CHECKSIG", "type": "pubkeyhash"}, "value": 8.281e-05, "n": 2}], "hex": "010000000347995336657244434f84db58664a551d09688e6e086c7aec18f895d941101238020000006a47304402203dc4a0c8104151cf46986c2a7a1a08aebd96d91f1ec502e7e7a56e0df4aa11fc02204bb3c76b031ebdc258fa9b5ffcdf64e47adf2c647a1f95d1936acb1e4ead860b012103b2b5c89bba82c81665177d0712b11341370f891c5efbf1e6a510bb67c734e018ffffffff2e79336ef9921595e2b281c73f08423ae86e08a0614b418d8358386c4d058903000000006b483045022100e626cdaaba3a65ba2938c55547f297be1e0961d9a5ffcd73499c8b218c5c24860220552cee65518edd565f9752679d41b4b2f7151f0f395dd6dfebd73d0398192f87012103c57b8677ec0da4933b80d98a90dc4e56386b1cbbbcdde00d040ac21c91758d07ffffffffbedca40ec4dfcd8deadc5e02c95eb9b1844b15e169e4188d727451e5a2a1a85c010000006b483045022100defe52e36d983b134aea7b68b1d99d5fe3edc3772afd52f6133654c26b79f539022038b019cfa8d341a573242f6a7bf0155a6dc4e490cc16da9daa2a407406a69dee012103521f11c7964d15cde6e684f9cd29b84b1ae592d75d7e63a0f541d020cd350f09ffffffff03a8631d00000000001976a914cb643ed983e159cc74b35b9fbe23e1971208d1fc88ac58865b00000000001976a91494c64007d7e9245dd152bd3152a7f8fea9035d5088ac59200000000000001976a914f480dfa226bf0beb174278dd7a31ee312c6e97e688ac00000000", "vin": [{"sequence": 4294967295, "scriptSig": {"hex": "47304402203dc4a0c8104151cf46986c2a7a1a08aebd96d91f1ec502e7e7a56e0df4aa11fc02204bb3c76b031ebdc258fa9b5ffcdf64e47adf2c647a1f95d1936acb1e4ead860b012103b2b5c89bba82c81665177d0712b11341370f891c5efbf1e6a510bb67c734e018", "asm": "304402203dc4a0c8104151cf46986c2a7a1a08aebd96d91f1ec502e7e7a56e0df4aa11fc02204bb3c76b031ebdc258fa9b5ffcdf64e47adf2c647a1f95d1936acb1e4ead860b[ALL] 03b2b5c89bba82c81665177d0712b11341370f891c5efbf1e6a510bb67c734e018"}, "vout": 2, "txid": "38121041d995f818ec7a6c086e8e68091d554a6658db844f4344726536539947"}, {"sequence": 4294967295, "scriptSig": {"hex": "483045022100e626cdaaba3a65ba2938c55547f297be1e0961d9a5ffcd73499c8b218c5c24860220552cee65518edd565f9752679d41b4b2f7151f0f395dd6dfebd73d0398192f87012103c57b8677ec0da4933b80d98a90dc4e56386b1cbbbcdde00d040ac21c91758d07", "asm": "3045022100e626cdaaba3a65ba2938c55547f297be1e0961d9a5ffcd73499c8b218c5c24860220552cee65518edd565f9752679d41b4b2f7151f0f395dd6dfebd73d0398192f87[ALL] 03c57b8677ec0da4933b80d98a90dc4e56386b1cbbbcdde00d040ac21c91758d07"}, "vout": 0, "txid": "0389054d6c3858838d414b61a0086ee83a42083fc781b2e2951592f96e33792e"}, {"sequence": 4294967295, "scriptSig": {"hex": "483045022100defe52e36d983b134aea7b68b1d99d5fe3edc3772afd52f6133654c26b79f539022038b019cfa8d341a573242f6a7bf0155a6dc4e490cc16da9daa2a407406a69dee012103521f11c7964d15cde6e684f9cd29b84b1ae592d75d7e63a0f541d020cd350f09", "asm": "3045022100defe52e36d983b134aea7b68b1d99d5fe3edc3772afd52f6133654c26b79f539022038b019cfa8d341a573242f6a7bf0155a6dc4e490cc16da9daa2a407406a69dee[ALL] 03521f11c7964d15cde6e684f9cd29b84b1ae592d75d7e63a0f541d020cd350f09"}, "vout": 1, "txid": "5ca8a1a2e55174728d18e469e1154b84b1b95ec9025edcea8dcddfc40ea4dcbe"}], "txid": "9529cdc0542734ac89801202015402d7ed5c3a6bb4ccfaef9c3554b14cd25ea4", "blocktime": 1537872475, "version": 1, "confirmations": 11486, "time": 1537872475, "locktime": 0, "vsize": 555, "size": 555}