{"hash": "952908e3d65f6551863d4fad5acbde90904178c03bc28828a41772ac72ac0bba", "blockhash": "00000000000000000024a2167bbff67b0be802c0b01cdd79e6331c2be6459f87", "vout": [{"scriptPubKey": {"reqSigs": 1, "hex": "76a91495be257c6ea5c19fc50717dae160360e45dfb32d88ac", "addresses": ["1EemUBvSUX8pUzNCEgEnpN2gaiTwERbU6M"], "asm": "OP_DUP OP_HASH160 95be257c6ea5c19fc50717dae160360e45dfb32d OP_EQUALVERIFY OP_CHECKSIG", "type": "pubkeyhash"}, "value": 0.025, "n": 0}, {"scriptPubKey": {"reqSigs": 1, "hex": "76a914f1e512bacdc4084a8411eaa1d9c7ef9226a2d23988ac", "addresses": ["1P42GWnV2HtNXZEYCC5dag8YBmWC86gzAB"], "asm": "OP_DUP OP_HASH160 f1e512bacdc4084a8411eaa1d9c7ef9226a2d239 OP_EQUALVERIFY OP_CHECKSIG", "type": "pubkeyhash"}, "value": 0.041982, "n": 1}], "hex": "0100000001b64f57c935e9dacd398bad7efdf037c9b14661462c990627d7488d4ec619b9e2010000006b4830450221008d930864474ba9087d611b39725f7c84f993109dae144e8bfa9b69a263f84c5102200b93b3115fed7b3dbd7b449a923244fd946f4490d093518de12d6a156dd995fd012102f8d59fa65bfe1e19ec2ed75a2b7aa70ae52237273a3373c05a9cae29c1d967a6feffffff02a0252600000000001976a91495be257c6ea5c19fc50717dae160360e45dfb32d88ac380f4000000000001976a914f1e512bacdc4084a8411eaa1d9c7ef9226a2d23988ac0d490800", "vin": [{"sequence": 4294967294, "scriptSig": {"hex": "4830450221008d930864474ba9087d611b39725f7c84f993109dae144e8bfa9b69a263f84c5102200b93b3115fed7b3dbd7b449a923244fd946f4490d093518de12d6a156dd995fd012102f8d59fa65bfe1e19ec2ed75a2b7aa70ae52237273a3373c05a9cae29c1d967a6", "asm": "30450221008d930864474ba9087d611b39725f7c84f993109dae144e8bfa9b69a263f84c5102200b93b3115fed7b3dbd7b449a923244fd946f4490d093518de12d6a156dd995fd[ALL] 02f8d59fa65bfe1e19ec2ed75a2b7aa70ae52237273a3373c05a9cae29c1d967a6"}, "vout": 1, "txid": "e2b919c64e8d48d72706992c466146b1c937f0fd7ead8b39cddae935c9574fb6"}], "txid": "952908e3d65f6551863d4fad5acbde90904178c03bc28828a41772ac72ac0bba", "blocktime": 1537870564, "version": 1, "confirmations": 11515, "time": 1537870564, "locktime": 542989, "vsize": 226, "size": 226}