{"hash": "952ff285e4145032d002fb386aaedd521a8c782dbb4fea69991b5e1e02525de2", "blockhash": "0000000000000000000e13cef7c366c0283d82e591d1acd082e914b08063cdf1", "vout": [{"scriptPubKey": {"reqSigs": 1, "hex": "76a914563e53ddc5cb705c502aeffcdab0aa72a771200e88ac", "addresses": ["18s1n6XAfTcizPtfkN1aD8d4mP1ZhTtUvG"], "asm": "OP_DUP OP_HASH160 563e53ddc5cb705c502aeffcdab0aa72a771200e OP_EQUALVERIFY OP_CHECKSIG", "type": "pubkeyhash"}, "value": 0.01105648, "n": 0}, {"scriptPubKey": {"reqSigs": 1, "hex": "76a914b4d14ff750fdb40cd9a32ad0c806c00c46a048cd88ac", "addresses": ["1HV5NorCqbmhPuQctamVnu3KwyrFJJK9HF"], "asm": "OP_DUP OP_HASH160 b4d14ff750fdb40cd9a32ad0c806c00c46a048cd OP_EQUALVERIFY OP_CHECKSIG", "type": "pubkeyhash"}, "value": 0.03673114, "n": 1}], "hex": "01000000018627bf7737d709070ea2280db3422ee22bab4927cd30fd4602bef4fde58a4ce9040000006b4830450221009ead5c79efd3b32a69ceaa0a36c5137ff3a42a83d5e63fdb34599e3bbf01b3bb02203a43d06beeb72d083369dba07d848d52be9075f9174c6af38b0f292345e526650121033d0ae39418677e312dd09c2023d95e39383f67f1799567d840d23ba5f21ab28bffffffff02f0de1000000000001976a914563e53ddc5cb705c502aeffcdab0aa72a771200e88ac1a0c3800000000001976a914b4d14ff750fdb40cd9a32ad0c806c00c46a048cd88ac00000000", "vin": [{"sequence": 4294967295, "scriptSig": {"hex": "4830450221009ead5c79efd3b32a69ceaa0a36c5137ff3a42a83d5e63fdb34599e3bbf01b3bb02203a43d06beeb72d083369dba07d848d52be9075f9174c6af38b0f292345e526650121033d0ae39418677e312dd09c2023d95e39383f67f1799567d840d23ba5f21ab28b", "asm": "30450221009ead5c79efd3b32a69ceaa0a36c5137ff3a42a83d5e63fdb34599e3bbf01b3bb02203a43d06beeb72d083369dba07d848d52be9075f9174c6af38b0f292345e52665[ALL] 033d0ae39418677e312dd09c2023d95e39383f67f1799567d840d23ba5f21ab28b"}, "vout": 4, "txid": "e94c8ae5fdf4be0246fd30cd2749ab2be22e42b30d28a20e0709d73777bf2786"}], "txid": "952ff285e4145032d002fb386aaedd521a8c782dbb4fea69991b5e1e02525de2", "blocktime": 1537871767, "version": 1, "confirmations": 11493, "time": 1537871767, "locktime": 0, "vsize": 226, "size": 226}