{"hash": "953318e48116f698e8cce06282a82e365376009305d0803cbbb94e8edf05aa49", "blockhash": "00000000000000000017f5eb5941039fbcee6240d03bc1f2f8e35350df66a1d8", "vout": [{"scriptPubKey": {"reqSigs": 1, "hex": "76a914e8f2431349879313fd1a63fb4fc7f2f9c95b151388ac", "addresses": ["1NEhzAY7PmGavqvTPHETEETbLmLbKi2w8t"], "asm": "OP_DUP OP_HASH160 e8f2431349879313fd1a63fb4fc7f2f9c95b1513 OP_EQUALVERIFY OP_CHECKSIG", "type": "pubkeyhash"}, "value": 0.00467737, "n": 0}], "hex": "0100000001f36593e4fc74bfe124b43fce40557d26ff9aba1c1fdeac88ac0604c19fa024fe000000006b48304502210095699cdbddda940b0ecc0ce5492ffe6a5ca01145e6ac645ce6aa8a1bd6b56e8d02203032bcab59cbec765cc1fe28c9879a7a347b82670dcc7c9f940f966637e338db012103e9c46b64da8ce4d71d3735f1b0d998fb3599d192477401ef0cabb22dfac1df6fffffffff0119230700000000001976a914e8f2431349879313fd1a63fb4fc7f2f9c95b151388ac00000000", "vin": [{"sequence": 4294967295, "scriptSig": {"hex": "48304502210095699cdbddda940b0ecc0ce5492ffe6a5ca01145e6ac645ce6aa8a1bd6b56e8d02203032bcab59cbec765cc1fe28c9879a7a347b82670dcc7c9f940f966637e338db012103e9c46b64da8ce4d71d3735f1b0d998fb3599d192477401ef0cabb22dfac1df6f", "asm": "304502210095699cdbddda940b0ecc0ce5492ffe6a5ca01145e6ac645ce6aa8a1bd6b56e8d02203032bcab59cbec765cc1fe28c9879a7a347b82670dcc7c9f940f966637e338db[ALL] 03e9c46b64da8ce4d71d3735f1b0d998fb3599d192477401ef0cabb22dfac1df6f"}, "vout": 0, "txid": "fe24a09fc10406ac88acde1f1cba9aff267d5540ce3fb424e1bf74fce49365f3"}], "txid": "953318e48116f698e8cce06282a82e365376009305d0803cbbb94e8edf05aa49", "blocktime": 1537874412, "version": 1, "confirmations": 11467, "time": 1537874412, "locktime": 0, "vsize": 192, "size": 192}