{"hash": "95415ffb4cc077d06a2285d0bc0b7fd5e6872d55b16f2a33495ce85464bff67b", "blockhash": "0000000000000000000dcc0f55137456b1a82d3642486a52398922ac4d620174", "vout": [{"scriptPubKey": {"type": "nulldata", "hex": "6a146f6d6e69000000000000001f000000c93617693f", "asm": "OP_RETURN 6f6d6e69000000000000001f000000c93617693f"}, "value": 0.0, "n": 0}, {"scriptPubKey": {"reqSigs": 1, "hex": "76a914a25dec4d0011064ef106a983c39c7a540699f22088ac", "addresses": ["1FoWyxwPXuj4C6abqwhjDWdz6D4PZgYRjA"], "asm": "OP_DUP OP_HASH160 a25dec4d0011064ef106a983c39c7a540699f220 OP_EQUALVERIFY OP_CHECKSIG", "type": "pubkeyhash"}, "value": 0.01980807, "n": 1}, {"scriptPubKey": {"reqSigs": 1, "hex": "76a914d55b3192c7830048b1020b080dcd0fb89f5d826288ac", "addresses": ["1LT8B77qS8tuPnzhqsexCFZQY8GVgnT9GW"], "asm": "OP_DUP OP_HASH160 d55b3192c7830048b1020b080dcd0fb89f5d8262 OP_EQUALVERIFY OP_CHECKSIG", "type": "pubkeyhash"}, "value": 5.46e-06, "n": 2}], "hex": "0100000001603306fa94643a44eefd1d0e1e652250d68388ba985c97c4bc83c74f51941ba7010000006b483045022100f8bfc3ef2e863ee20de3eb6bb1492eae316be44c4d7f96f8b6bd49f3efd562a1022056292bce5ae019cdd0d1aaf5182928b7ca58e6b91c3e04fb60920df9456a14f9012103da5bac7b36d5aa38f531c6b9601e21bb598a4b6716ebed38b009a55dabde9440feffffff030000000000000000166a146f6d6e69000000000000001f000000c93617693f87391e00000000001976a914a25dec4d0011064ef106a983c39c7a540699f22088ac22020000000000001976a914d55b3192c7830048b1020b080dcd0fb89f5d826288ac0c490800", "vin": [{"sequence": 4294967294, "scriptSig": {"hex": "483045022100f8bfc3ef2e863ee20de3eb6bb1492eae316be44c4d7f96f8b6bd49f3efd562a1022056292bce5ae019cdd0d1aaf5182928b7ca58e6b91c3e04fb60920df9456a14f9012103da5bac7b36d5aa38f531c6b9601e21bb598a4b6716ebed38b009a55dabde9440", "asm": "3045022100f8bfc3ef2e863ee20de3eb6bb1492eae316be44c4d7f96f8b6bd49f3efd562a1022056292bce5ae019cdd0d1aaf5182928b7ca58e6b91c3e04fb60920df9456a14f9[ALL] 03da5bac7b36d5aa38f531c6b9601e21bb598a4b6716ebed38b009a55dabde9440"}, "vout": 1, "txid": "a71b94514fc783bcc4975c98ba8883d65022651e0e1dfdee443a6494fa063360"}], "txid": "95415ffb4cc077d06a2285d0bc0b7fd5e6872d55b16f2a33495ce85464bff67b", "blocktime": 1537870268, "version": 1, "confirmations": 11516, "time": 1537870268, "locktime": 542988, "vsize": 257, "size": 257}