{"hash": "9545528f6945891bc4ac8ec0f970ac0217a85a41dbd810baed64aae8bf9db28b", "blockhash": "0000000000000000001cda96e906b7601b7a6fb1a3b62bca570a9e5d8f4b3de1", "vout": [{"scriptPubKey": {"type": "nulldata", "hex": "6a146f6d6e69000000000000001f000000452c8a3b00", "asm": "OP_RETURN 6f6d6e69000000000000001f000000452c8a3b00"}, "value": 0.0, "n": 0}, {"scriptPubKey": {"reqSigs": 1, "hex": "76a914bfb9d7a27b37494328bdc669f8a1241ec5c1691488ac", "addresses": ["1JUkhC48Yz1N543CkHcAwXHwbd8LSnUXMG"], "asm": "OP_DUP OP_HASH160 bfb9d7a27b37494328bdc669f8a1241ec5c16914 OP_EQUALVERIFY OP_CHECKSIG", "type": "pubkeyhash"}, "value": 0.00645314, "n": 1}, {"scriptPubKey": {"reqSigs": 1, "hex": "a9145df2cee35a3334729ffa8b00819f50d981b3588787", "addresses": ["3AFmdzQBZCrzRHj6BLGcMkV5nvhbCrTchL"], "asm": "OP_HASH160 5df2cee35a3334729ffa8b00819f50d981b35887 OP_EQUAL", "type": "scripthash"}, "value": 5.46e-06, "n": 2}], "hex": "0200000002da6a1cbc72b2d1c6129c8867ed51843f3e1876274818129015cf108d0b814792010000006a473044022066b9b0cd6a0eee85b771d087ee787f70c65bf3eae2d9b42e5db7162ede9f18980220581902752ed4aa6014456e61107040a38323e82b715e75c7c17a645219b1bd05012102a8a5e6ce328fce5a1c8c926d11708e477d54423cd52f935d619c0c4b9bfd1a0fffffffff8e2fe0ae5584b2ca5dddb6fe22f704c3602ec05bff40614a6a2b761c23739fe3010000006b4830450221009a8df1429f068f652eef5de02ba40f32f015a169ed3cd58e8f27648dd4b1bbf60220148c922fe3a8f035dc01c527deb2aa22b8f98339777c57d0c5385540b36ec4d6012102a8a5e6ce328fce5a1c8c926d11708e477d54423cd52f935d619c0c4b9bfd1a0fffffffff030000000000000000166a146f6d6e69000000000000001f000000452c8a3b00c2d80900000000001976a914bfb9d7a27b37494328bdc669f8a1241ec5c1691488ac220200000000000017a9145df2cee35a3334729ffa8b00819f50d981b358878700000000", "vin": [{"sequence": 4294967295, "scriptSig": {"hex": "473044022066b9b0cd6a0eee85b771d087ee787f70c65bf3eae2d9b42e5db7162ede9f18980220581902752ed4aa6014456e61107040a38323e82b715e75c7c17a645219b1bd05012102a8a5e6ce328fce5a1c8c926d11708e477d54423cd52f935d619c0c4b9bfd1a0f", "asm": "3044022066b9b0cd6a0eee85b771d087ee787f70c65bf3eae2d9b42e5db7162ede9f18980220581902752ed4aa6014456e61107040a38323e82b715e75c7c17a645219b1bd05[ALL] 02a8a5e6ce328fce5a1c8c926d11708e477d54423cd52f935d619c0c4b9bfd1a0f"}, "vout": 1, "txid": "9247810b8d10cf15901218482776183e3f8451ed67889c12c6d1b272bc1c6ada"}, {"sequence": 4294967295, "scriptSig": {"hex": "4830450221009a8df1429f068f652eef5de02ba40f32f015a169ed3cd58e8f27648dd4b1bbf60220148c922fe3a8f035dc01c527deb2aa22b8f98339777c57d0c5385540b36ec4d6012102a8a5e6ce328fce5a1c8c926d11708e477d54423cd52f935d619c0c4b9bfd1a0f", "asm": "30450221009a8df1429f068f652eef5de02ba40f32f015a169ed3cd58e8f27648dd4b1bbf60220148c922fe3a8f035dc01c527deb2aa22b8f98339777c57d0c5385540b36ec4d6[ALL] 02a8a5e6ce328fce5a1c8c926d11708e477d54423cd52f935d619c0c4b9bfd1a0f"}, "vout": 1, "txid": "e39f73231c762b6a4a6140ff5bc02e60c304f722feb6dd5dcab28455aee02f8e"}], "txid": "9545528f6945891bc4ac8ec0f970ac0217a85a41dbd810baed64aae8bf9db28b", "blocktime": 1537873282, "version": 2, "confirmations": 11484, "time": 1537873282, "locktime": 0, "vsize": 402, "size": 402}