{"hash": "1d22e2f0c6253a0550b5de19fcf7cd38cd7144009a0ba3e4dff6a0645746e631", "blockhash": "0000000000000000000dcc0f55137456b1a82d3642486a52398922ac4d620174", "vout": [{"scriptPubKey": {"reqSigs": 1, "hex": "a914f9b1c2d0f2fc625eb9f091afd6faf25dd1de397f87", "addresses": ["3QTH8MrcgVMpNwkCh7bnnEjJxPxxMkhJQv"], "asm": "OP_HASH160 f9b1c2d0f2fc625eb9f091afd6faf25dd1de397f OP_EQUAL", "type": "scripthash"}, "value": 0.00219154, "n": 0}, {"scriptPubKey": {"reqSigs": 1, "hex": "a9143d54c3bb3d9d2e78a02a818b0934809b1f652eea87", "addresses": ["37HJgnrUumEL5vfN2CCpKpq64poHoNgxEo"], "asm": "OP_HASH160 3d54c3bb3d9d2e78a02a818b0934809b1f652eea OP_EQUAL", "type": "scripthash"}, "value": 0.04374474, "n": 1}], "hex": "010000000001012b71d58abff0d997a875da38a5aa016927863f9372791d7a7c9bdf8cb1431ab5010000002322002065391d3b0e507bf1d33ee291c42f9e9f1d55e6a26b2d41175d1e21517c3b7ff3ffffffff02125803000000000017a914f9b1c2d0f2fc625eb9f091afd6faf25dd1de397f87cabf42000000000017a9143d54c3bb3d9d2e78a02a818b0934809b1f652eea870400473044022035d5ee113d4ab3e630ca1d2524457294e6bdcbc71ed9c3d46de6d87d43b8bfee02204e72ea4268dea3a034f39f812f4bdfeb0de58626618e2dd88c6d2c2277a5a79001483045022100ad8abb222e91bf248d9b1f4569d4465f090ed01b0347bda21de43cc4d245f1a102204bf5cb295146c545dc9036cb9011c2b93d0d55b3ae1bb8bc1df76cdc7f74d7600147522102ad804bad8b3e37d36d530bf165e348480f93e0e61c0eb6c1e8d5154ba0cf665e210292d679353fa4a760eaad69284c09d063a1fd1a15ad8c70e83dbf86f7063f8c1852ae00000000", "vin": [{"txinwitness": ["", "3044022035d5ee113d4ab3e630ca1d2524457294e6bdcbc71ed9c3d46de6d87d43b8bfee02204e72ea4268dea3a034f39f812f4bdfeb0de58626618e2dd88c6d2c2277a5a79001", "3045022100ad8abb222e91bf248d9b1f4569d4465f090ed01b0347bda21de43cc4d245f1a102204bf5cb295146c545dc9036cb9011c2b93d0d55b3ae1bb8bc1df76cdc7f74d76001", "522102ad804bad8b3e37d36d530bf165e348480f93e0e61c0eb6c1e8d5154ba0cf665e210292d679353fa4a760eaad69284c09d063a1fd1a15ad8c70e83dbf86f7063f8c1852ae"], "sequence": 4294967295, "scriptSig": {"hex": "22002065391d3b0e507bf1d33ee291c42f9e9f1d55e6a26b2d41175d1e21517c3b7ff3", "asm": "002065391d3b0e507bf1d33ee291c42f9e9f1d55e6a26b2d41175d1e21517c3b7ff3"}, "vout": 1, "txid": "b51a43b18cdf9b7c7a1d7972933f86276901aaa538da75a897d9f0bf8ad5712b"}], "txid": "954965c399ef7f10c9eb90792e50d1124914fa5e18d0f4e9bf6a2e989c3e7d80", "blocktime": 1537870268, "version": 1, "confirmations": 11516, "time": 1537870268, "locktime": 0, "vsize": 206, "size": 371}