{"hash": "954c6946e981be4e08f444383519f9541005d2a380b45b2205aa93b481a8e915", "blockhash": "0000000000000000000baef3f32e3676a92c3b2e5da21b426e4f302fc371ce76", "vout": [{"scriptPubKey": {"type": "nulldata", "hex": "6a146f6d6e69000000000000001f0000001a10bdfcfe", "asm": "OP_RETURN 6f6d6e69000000000000001f0000001a10bdfcfe"}, "value": 0.0, "n": 0}, {"scriptPubKey": {"reqSigs": 1, "hex": "76a91408180267ccb93246ed9c662fc07e8dace6db219988ac", "addresses": ["1joAjjRLzJNP8ZRJTJocu7AzrMuZKebx3"], "asm": "OP_DUP OP_HASH160 08180267ccb93246ed9c662fc07e8dace6db2199 OP_EQUALVERIFY OP_CHECKSIG", "type": "pubkeyhash"}, "value": 0.19269099, "n": 1}, {"scriptPubKey": {"reqSigs": 1, "hex": "76a914d8d64daf72fe7467279904c12de0c5bf604c2b3188ac", "addresses": ["1LmXgW3MbrnuFVD8gM15UfrfNCyzPuVv4y"], "asm": "OP_DUP OP_HASH160 d8d64daf72fe7467279904c12de0c5bf604c2b31 OP_EQUALVERIFY OP_CHECKSIG", "type": "pubkeyhash"}, "value": 5.46e-06, "n": 2}], "hex": "0100000001b7655ed0fcc1eb25a646b05433e460d6f5bcaf5cf626085996db98b7797c54f5020000006a47304402200252443dc4bb2ee38efe0d81946a7e8cb93b6b5dcb5b96a6942df06cef61c0f10220102e9af84ef6cf95d9d919521755ce7ad0ec7ac952fd9e34b5108014b641ce6101210244d092dc6fe408e4ebaa834b94b188078f7b0477eb8c2086172cc94148026283feffffff030000000000000000166a146f6d6e69000000000000001f0000001a10bdfcfeeb052601000000001976a91408180267ccb93246ed9c662fc07e8dace6db219988ac22020000000000001976a914d8d64daf72fe7467279904c12de0c5bf604c2b3188ac16490800", "vin": [{"sequence": 4294967294, "scriptSig": {"hex": "47304402200252443dc4bb2ee38efe0d81946a7e8cb93b6b5dcb5b96a6942df06cef61c0f10220102e9af84ef6cf95d9d919521755ce7ad0ec7ac952fd9e34b5108014b641ce6101210244d092dc6fe408e4ebaa834b94b188078f7b0477eb8c2086172cc94148026283", "asm": "304402200252443dc4bb2ee38efe0d81946a7e8cb93b6b5dcb5b96a6942df06cef61c0f10220102e9af84ef6cf95d9d919521755ce7ad0ec7ac952fd9e34b5108014b641ce61[ALL] 0244d092dc6fe408e4ebaa834b94b188078f7b0477eb8c2086172cc94148026283"}, "vout": 2, "txid": "f5547c79b798db96590826f65cafbcf5d660e43354b046a625ebc1fcd05e65b7"}], "txid": "954c6946e981be4e08f444383519f9541005d2a380b45b2205aa93b481a8e915", "blocktime": 1537876114, "version": 1, "confirmations": 11460, "time": 1537876114, "locktime": 542998, "vsize": 256, "size": 256}