{"hash": "9d6a19ba4815ee67369e8c511e8eabf9bf7cd038e0690e1248ded8794ad8c449", "blockhash": "0000000000000000000e13cef7c366c0283d82e591d1acd082e914b08063cdf1", "vout": [{"scriptPubKey": {"reqSigs": 1, "hex": "a9140fbdea798106cb67a1109e9b3f70830f80f5f4ab87", "addresses": ["338Fa1ZKKCz7bkvVHiZmCzwafwbnkVTWP8"], "asm": "OP_HASH160 0fbdea798106cb67a1109e9b3f70830f80f5f4ab OP_EQUAL", "type": "scripthash"}, "value": 1.121, "n": 0}, {"scriptPubKey": {"reqSigs": 1, "hex": "a914e74b9778bca97c5c0c9e72a8f9b7c2e3edda60cb87", "addresses": ["3Nmza4NkCTU82SgkH6kSH3xsY1D9qYR4MZ"], "asm": "OP_HASH160 e74b9778bca97c5c0c9e72a8f9b7c2e3edda60cb OP_EQUAL", "type": "scripthash"}, "value": 1.95674613, "n": 1}], "hex": "0100000000010173bedc84a1cec51e199df4bf2dcfb84ac1b94e7c7eb2b8cb8c93c2512ebed7a90000000017160014abcd242b026fab9609a7a27186978b12b1883d96ffffffff02a082ae060000000017a9140fbdea798106cb67a1109e9b3f70830f80f5f4ab87f5c1a90b0000000017a914e74b9778bca97c5c0c9e72a8f9b7c2e3edda60cb87024830450221009c8da1415e03b53a28ad94110b82675d7425ff5ed51bcf33cc82e0dfe79e9e79022075585210be95c8f65201219b45ad8b16d87f7fefa39b8801fbcf89f33aa31570012102cd0a16f74855d91f5d42187c4ae5a71998dc4ae3594ec35ff3363159dcd52e6100000000", "vin": [{"txinwitness": ["30450221009c8da1415e03b53a28ad94110b82675d7425ff5ed51bcf33cc82e0dfe79e9e79022075585210be95c8f65201219b45ad8b16d87f7fefa39b8801fbcf89f33aa3157001", "02cd0a16f74855d91f5d42187c4ae5a71998dc4ae3594ec35ff3363159dcd52e61"], "sequence": 4294967295, "scriptSig": {"hex": "160014abcd242b026fab9609a7a27186978b12b1883d96", "asm": "0014abcd242b026fab9609a7a27186978b12b1883d96"}, "vout": 0, "txid": "a9d7be2e51c2938ccbb8b27e7c4eb9c14ab8cf2dbff49d191ec5cea184dcbe73"}], "txid": "9555b6c557fc476a5f17f9d2c7d1f4d3eeaa9734f36ecefa9d317e2e9e8952ea", "blocktime": 1537871767, "version": 1, "confirmations": 11493, "time": 1537871767, "locktime": 0, "vsize": 166, "size": 248}