{"hash": "95580c5376eb128557aa7849b38b21a57a9a33ad27a0ad4a7714df5bb25aee4e", "blockhash": "000000000000000000022b45ed06c6f4ccd3cf7fb5ba4856ebd2e58215665228", "vout": [{"scriptPubKey": {"reqSigs": 1, "hex": "76a914881e6cd14427f84ada31ccb47af2dc49445a2d3188ac", "addresses": ["1DQjM4TwXR492W2Dmt9qhY5JAj9LPc8HfP"], "asm": "OP_DUP OP_HASH160 881e6cd14427f84ada31ccb47af2dc49445a2d31 OP_EQUALVERIFY OP_CHECKSIG", "type": "pubkeyhash"}, "value": 4.36, "n": 0}, {"scriptPubKey": {"reqSigs": 1, "hex": "76a91436b9310430860a0c83970c65754938f9e7436ea588ac", "addresses": ["15zMLgtfBckXekntzXrenFB8qiCgogbNHR"], "asm": "OP_DUP OP_HASH160 36b9310430860a0c83970c65754938f9e7436ea5 OP_EQUALVERIFY OP_CHECKSIG", "type": "pubkeyhash"}, "value": 1.26158, "n": 1}], "hex": "01000000024f6e73b45bc38f11181595b5359a7e9956f9a47c9e394a34113c18e6134fa767000000006b48304502210087722d137c73fdfa112e53f3c4ba4fdadfdf5e9d6d8282e9df10ecd96d9110d3022071d9e40bf16af5f3ae5ac6d3409bc52d39c1d5383be7588549e9ec7ad2c9882101210282a2ce412503e892253a2542f8dd4553cdbb8b589d7bf22a99bd8bca6cc5101fffffffff92f5219c7bfd03c8e822efa5f0bcd676ca1508ea8f8f781046a5af996e60089e010000006a4730440220446000599ff6c9616d811cb4b91ebdc6b04381c26ca2273e46a0eb6e8af6a8230220448002578ac27d22b6802ace6ca24f491c9ff072bf7a20b1939e37c2546b80830121025177b257a26171b93bbb38527a3a8634443e9e5be55fe8d3e427835a9c99e7a6ffffffff0200d5fc19000000001976a914881e6cd14427f84ada31ccb47af2dc49445a2d3188acb0048507000000001976a91436b9310430860a0c83970c65754938f9e7436ea588ac00000000", "vin": [{"sequence": 4294967295, "scriptSig": {"hex": "48304502210087722d137c73fdfa112e53f3c4ba4fdadfdf5e9d6d8282e9df10ecd96d9110d3022071d9e40bf16af5f3ae5ac6d3409bc52d39c1d5383be7588549e9ec7ad2c9882101210282a2ce412503e892253a2542f8dd4553cdbb8b589d7bf22a99bd8bca6cc5101f", "asm": "304502210087722d137c73fdfa112e53f3c4ba4fdadfdf5e9d6d8282e9df10ecd96d9110d3022071d9e40bf16af5f3ae5ac6d3409bc52d39c1d5383be7588549e9ec7ad2c98821[ALL] 0282a2ce412503e892253a2542f8dd4553cdbb8b589d7bf22a99bd8bca6cc5101f"}, "vout": 0, "txid": "67a74f13e6183c11344a399e7ca4f956997e9a35b5951518118fc35bb4736e4f"}, {"sequence": 4294967295, "scriptSig": {"hex": "4730440220446000599ff6c9616d811cb4b91ebdc6b04381c26ca2273e46a0eb6e8af6a8230220448002578ac27d22b6802ace6ca24f491c9ff072bf7a20b1939e37c2546b80830121025177b257a26171b93bbb38527a3a8634443e9e5be55fe8d3e427835a9c99e7a6", "asm": "30440220446000599ff6c9616d811cb4b91ebdc6b04381c26ca2273e46a0eb6e8af6a8230220448002578ac27d22b6802ace6ca24f491c9ff072bf7a20b1939e37c2546b8083[ALL] 025177b257a26171b93bbb38527a3a8634443e9e5be55fe8d3e427835a9c99e7a6"}, "vout": 1, "txid": "9e08606e99afa54610788f8fea0815ca76d6bcf0a5ef22e8c803fd7b9c21f592"}], "txid": "95580c5376eb128557aa7849b38b21a57a9a33ad27a0ad4a7714df5bb25aee4e", "blocktime": 1537869901, "version": 1, "confirmations": 11522, "time": 1537869901, "locktime": 0, "vsize": 373, "size": 373}