{"hash": "548811a779a692f346da73f2cd3cb84b97fe8e9ece602650235778128932bdf1", "blockhash": "0000000000000000000dcc0f55137456b1a82d3642486a52398922ac4d620174", "vout": [{"scriptPubKey": {"reqSigs": 1, "hex": "a91469f3774767faf3bca77bf72722704d298f6c2b4687", "addresses": ["3BMEXzhJx1u7jk3KymUpN9rkpcGUWsRiXw"], "asm": "OP_HASH160 69f3774767faf3bca77bf72722704d298f6c2b46 OP_EQUAL", "type": "scripthash"}, "value": 0.00442857, "n": 0}, {"scriptPubKey": {"reqSigs": 1, "hex": "a914d85c1b9832c0cf5be52d16570c396621f02609e987", "addresses": ["3MR2DjunctfJoCE4tqHGaJyY15WPM8H4mQ"], "asm": "OP_HASH160 d85c1b9832c0cf5be52d16570c396621f02609e9 OP_EQUAL", "type": "scripthash"}, "value": 0.01844425, "n": 1}], "hex": "01000000000101c91fc5c939e6c0165eda5ace713d712e38f0f430a503c4847f0d2169c469b04c0100000023220020c6d08e3a24aa29fa98232978e27e6369af37b2e9bfef1e269147f1e5ad4097c1ffffffff02e9c106000000000017a91469f3774767faf3bca77bf72722704d298f6c2b4687c9241c000000000017a914d85c1b9832c0cf5be52d16570c396621f02609e9870400483045022100a023451ae36b189a5ceeafa7c5098c9d776a5c23a4854c49a4edb7f6aca8f5df02203f229b58eaa97687a07e6272732cf587c18ccf06804bebb00def2596f0f3addb014730440220618af4b622858bf45af3ff07b2240dd82b0faa6a4cd0b54d8b47e596074960c302201bfe407264e4527f73432438b2710212ff503420d01d3289de78810ed266fc870147522102075552475000606e2cc69cf22effad5bffdd1b6f6936171a3b335b60238252e02103f62b1d27158b53be9caeae920614d9c61c0d4e3ab8a2b8afbc8e020933c6e68352ae00000000", "vin": [{"txinwitness": ["", "3045022100a023451ae36b189a5ceeafa7c5098c9d776a5c23a4854c49a4edb7f6aca8f5df02203f229b58eaa97687a07e6272732cf587c18ccf06804bebb00def2596f0f3addb01", "30440220618af4b622858bf45af3ff07b2240dd82b0faa6a4cd0b54d8b47e596074960c302201bfe407264e4527f73432438b2710212ff503420d01d3289de78810ed266fc8701", "522102075552475000606e2cc69cf22effad5bffdd1b6f6936171a3b335b60238252e02103f62b1d27158b53be9caeae920614d9c61c0d4e3ab8a2b8afbc8e020933c6e68352ae"], "sequence": 4294967295, "scriptSig": {"hex": "220020c6d08e3a24aa29fa98232978e27e6369af37b2e9bfef1e269147f1e5ad4097c1", "asm": "0020c6d08e3a24aa29fa98232978e27e6369af37b2e9bfef1e269147f1e5ad4097c1"}, "vout": 1, "txid": "4cb069c469210d7f84c403a530f4f0382e713d71ce5ada5e16c0e639c9c51fc9"}], "txid": "95597e9dcc080260d9e156b721b6f6a5a5207a4dbf488fe9b3334159b2cbdd1d", "blocktime": 1537870268, "version": 1, "confirmations": 11518, "time": 1537870268, "locktime": 0, "vsize": 206, "size": 371}