{"hash": "95613233a5db4759c900bac26105a2f0b21cee670500599c36d3b7514b1a92cf", "blockhash": "0000000000000000000e13cef7c366c0283d82e591d1acd082e914b08063cdf1", "vout": [{"scriptPubKey": {"reqSigs": 1, "hex": "76a9140fdf7557f0f7cc70e8dcab64963927b39dbf5e5788ac", "addresses": ["12Svq3ArjjCEuK4uUwB9jbqKaKp26viBwH"], "asm": "OP_DUP OP_HASH160 0fdf7557f0f7cc70e8dcab64963927b39dbf5e57 OP_EQUALVERIFY OP_CHECKSIG", "type": "pubkeyhash"}, "value": 0.00031279, "n": 0}, {"scriptPubKey": {"reqSigs": 1, "hex": "76a914d941a142aba4474ba91c036cae1b09dd115be10288ac", "addresses": ["1LokFg77xfUykK6VCWeRmFRCFBTXiCx1nB"], "asm": "OP_DUP OP_HASH160 d941a142aba4474ba91c036cae1b09dd115be102 OP_EQUALVERIFY OP_CHECKSIG", "type": "pubkeyhash"}, "value": 0.00173834, "n": 1}], "hex": "0100000001b7f1adcde9c549e14dd049070a89fead6c1e24875f1da81e8cc1cc28bfdcddc2000000006a47304402206f1192d1f1bdd531851101d58a1009e8b1c2feb9acabe200e2cd6e59a164aad602207968cf319473abfe70cf3ffca12c97220db1db0b686021ad8adb56d8869b72480121031b4ff533620403b71c38be4b313dea80cd4d2daf572db627df54f486db825951ffffffff022f7a0000000000001976a9140fdf7557f0f7cc70e8dcab64963927b39dbf5e5788ac0aa70200000000001976a914d941a142aba4474ba91c036cae1b09dd115be10288ac00000000", "vin": [{"sequence": 4294967295, "scriptSig": {"hex": "47304402206f1192d1f1bdd531851101d58a1009e8b1c2feb9acabe200e2cd6e59a164aad602207968cf319473abfe70cf3ffca12c97220db1db0b686021ad8adb56d8869b72480121031b4ff533620403b71c38be4b313dea80cd4d2daf572db627df54f486db825951", "asm": "304402206f1192d1f1bdd531851101d58a1009e8b1c2feb9acabe200e2cd6e59a164aad602207968cf319473abfe70cf3ffca12c97220db1db0b686021ad8adb56d8869b7248[ALL] 031b4ff533620403b71c38be4b313dea80cd4d2daf572db627df54f486db825951"}, "vout": 0, "txid": "c2dddcbf28ccc18c1ea81d5f87241e6cadfe890a0749d04de149c5e9cdadf1b7"}], "txid": "95613233a5db4759c900bac26105a2f0b21cee670500599c36d3b7514b1a92cf", "blocktime": 1537871767, "version": 1, "confirmations": 11495, "time": 1537871767, "locktime": 0, "vsize": 225, "size": 225}