{"hash": "9563505f75c63c975147ac8d08a8208c630c7705576968d401fa559c03b6c0ff", "blockhash": "000000000000000000022b45ed06c6f4ccd3cf7fb5ba4856ebd2e58215665228", "vout": [{"scriptPubKey": {"reqSigs": 1, "hex": "76a914f3ed8ccce71cf651ace4a66cacdae5ae40c4bea888ac", "addresses": ["1PEmmswTcAitjV8x6FB8wNuX9X1NY7L5ik"], "asm": "OP_DUP OP_HASH160 f3ed8ccce71cf651ace4a66cacdae5ae40c4bea8 OP_EQUALVERIFY OP_CHECKSIG", "type": "pubkeyhash"}, "value": 0.94659108, "n": 0}], "hex": "01000000012ce7934aec7e9d5e636c0ada060a8c76eca5c4d8a2604b16ac523ffee6336188000000006a4730440220255e817137ac403be78f17d8b8dadf8f3246fd1fa436f92fe95926630884ce04022078613c9f0989fa5cb8fe4895ac8d1c6f64bd63cf4375cf15dd1e67415f6c0824012103745990666cb015b33e0789ddcdd64181772edda8afb044d9c915aecba046072fffffffff012462a405000000001976a914f3ed8ccce71cf651ace4a66cacdae5ae40c4bea888ac00000000", "vin": [{"sequence": 4294967295, "scriptSig": {"hex": "4730440220255e817137ac403be78f17d8b8dadf8f3246fd1fa436f92fe95926630884ce04022078613c9f0989fa5cb8fe4895ac8d1c6f64bd63cf4375cf15dd1e67415f6c0824012103745990666cb015b33e0789ddcdd64181772edda8afb044d9c915aecba046072f", "asm": "30440220255e817137ac403be78f17d8b8dadf8f3246fd1fa436f92fe95926630884ce04022078613c9f0989fa5cb8fe4895ac8d1c6f64bd63cf4375cf15dd1e67415f6c0824[ALL] 03745990666cb015b33e0789ddcdd64181772edda8afb044d9c915aecba046072f"}, "vout": 0, "txid": "886133e6fe3f52ac164b60a2d8c4a5ec768c0a06da0a6c635e9d7eec4a93e72c"}], "txid": "9563505f75c63c975147ac8d08a8208c630c7705576968d401fa559c03b6c0ff", "blocktime": 1537869901, "version": 1, "confirmations": 11522, "time": 1537869901, "locktime": 0, "vsize": 191, "size": 191}