{"hash": "9563b9208459a8822b0dadd3e049a2d5bd0cb9d1dad425d56a9b05f7abc162d3", "blockhash": "00000000000000000024a2167bbff67b0be802c0b01cdd79e6331c2be6459f87", "vout": [{"scriptPubKey": {"reqSigs": 1, "hex": "a91472b1d86168d9efa700bcca27c16143aaf4c1f8bc87", "addresses": ["3C9U1KHXaZTgLzhvamsUoPFkadWNrxFgQo"], "asm": "OP_HASH160 72b1d86168d9efa700bcca27c16143aaf4c1f8bc OP_EQUAL", "type": "scripthash"}, "value": 0.01097948, "n": 0}, {"scriptPubKey": {"reqSigs": 1, "hex": "76a91463b1a678f37a2730939800665a54f389f76d6cb988ac", "addresses": ["1A68iMFxHVzdqE75CF5XmDkzHsj64HKNCf"], "asm": "OP_DUP OP_HASH160 63b1a678f37a2730939800665a54f389f76d6cb9 OP_EQUALVERIFY OP_CHECKSIG", "type": "pubkeyhash"}, "value": 5.11818167, "n": 1}, {"scriptPubKey": {"reqSigs": 1, "hex": "76a9147dd5db3a5a23ba29b38e2d2051a56165c744184f88ac", "addresses": ["1CUMeynoAGn8k8YNAMAPH43miWm5MoYY3E"], "asm": "OP_DUP OP_HASH160 7dd5db3a5a23ba29b38e2d2051a56165c744184f OP_EQUALVERIFY OP_CHECKSIG", "type": "pubkeyhash"}, "value": 0.1, "n": 2}, {"scriptPubKey": {"reqSigs": 1, "hex": "76a914d8ca08c812201cec5f5b0b7287266a53a043c8a388ac", "addresses": ["1LmGz2SX7BDZ7JiMJbPPumP5BZ9qraNvKj"], "asm": "OP_DUP OP_HASH160 d8ca08c812201cec5f5b0b7287266a53a043c8a3 OP_EQUALVERIFY OP_CHECKSIG", "type": "pubkeyhash"}, "value": 0.00414316, "n": 3}], "hex": "02000000017d4b87949fea548abb8178a542fa01fe8c388419be4a5c596173159c0fa24d73000000006a473044022012c23d4a7f7e25dff29f34861a1120e6dd61bd1c25d950e404131921e71bb80f022030f52945efac7fc27467ee1c99abe38f869be4fe4e2e2803e4eb42b165842a2101210319658d44b7d25b700c06827373631f939bf0095a600bc14059a170036e6c02aeffffffff04dcc010000000000017a91472b1d86168d9efa700bcca27c16143aaf4c1f8bc87b7b9811e000000001976a91463b1a678f37a2730939800665a54f389f76d6cb988ac80969800000000001976a9147dd5db3a5a23ba29b38e2d2051a56165c744184f88ac6c520600000000001976a914d8ca08c812201cec5f5b0b7287266a53a043c8a388ac00000000", "vin": [{"sequence": 4294967295, "scriptSig": {"hex": "473044022012c23d4a7f7e25dff29f34861a1120e6dd61bd1c25d950e404131921e71bb80f022030f52945efac7fc27467ee1c99abe38f869be4fe4e2e2803e4eb42b165842a2101210319658d44b7d25b700c06827373631f939bf0095a600bc14059a170036e6c02ae", "asm": "3044022012c23d4a7f7e25dff29f34861a1120e6dd61bd1c25d950e404131921e71bb80f022030f52945efac7fc27467ee1c99abe38f869be4fe4e2e2803e4eb42b165842a21[ALL] 0319658d44b7d25b700c06827373631f939bf0095a600bc14059a170036e6c02ae"}, "vout": 0, "txid": "734da20f9c157361595c4abe1984388cfe01fa42a57881bb8a54ea9f94874b7d"}], "txid": "9563b9208459a8822b0dadd3e049a2d5bd0cb9d1dad425d56a9b05f7abc162d3", "blocktime": 1537870564, "version": 2, "confirmations": 11515, "time": 1537870564, "locktime": 0, "vsize": 291, "size": 291}