{"hash": "e9b552a7222d16ba8f9950fa6cf547022c2f58fd2d2dc19590c08db8ea86a733", "blockhash": "000000000000000000205f8b0775d31398ef75b89a5e8ec8d2c57b4dc0ac4c20", "vout": [{"scriptPubKey": {"reqSigs": 1, "hex": "a914e3b99c4e19d3d7e831993e0d45901044d96a450b87", "addresses": ["3NT7fY8VF78VnPxvs9oS3swg8Gs7555Lqo"], "asm": "OP_HASH160 e3b99c4e19d3d7e831993e0d45901044d96a450b OP_EQUAL", "type": "scripthash"}, "value": 0.0001, "n": 0}, {"scriptPubKey": {"reqSigs": 1, "hex": "a9148fe66fc3df1f2c9459f83f39d1173ddc33c340b487", "addresses": ["3EotbzNSYEX5H7wa2v3VVrUFwCH4p7xP5x"], "asm": "OP_HASH160 8fe66fc3df1f2c9459f83f39d1173ddc33c340b4 OP_EQUAL", "type": "scripthash"}, "value": 0.00658594, "n": 1}], "hex": "01000000000101085ddd7daf450302c87f75cd6398aa32bfa6f5cd03218c389aa8ff58b3abce5e01000000171600144bd69054ed191693450ca4af21bac83ef00143c0ffffffff02102700000000000017a914e3b99c4e19d3d7e831993e0d45901044d96a450b87a20c0a000000000017a9148fe66fc3df1f2c9459f83f39d1173ddc33c340b4870248304502210083e8621f6a3ae67ae4c1a68f5da6e4d88b4d10a6f3d458f0bb1b1d53de65eae302201ade15cc88a5304015a4116d099d87deeda0264ac1a77dce6fa49e399867f5ab0121021a40d1046075ce1e474899fa725450ffec2b5a66fc2600ce5d08131cdd096fd900000000", "vin": [{"txinwitness": ["304502210083e8621f6a3ae67ae4c1a68f5da6e4d88b4d10a6f3d458f0bb1b1d53de65eae302201ade15cc88a5304015a4116d099d87deeda0264ac1a77dce6fa49e399867f5ab01", "021a40d1046075ce1e474899fa725450ffec2b5a66fc2600ce5d08131cdd096fd9"], "sequence": 4294967295, "scriptSig": {"hex": "1600144bd69054ed191693450ca4af21bac83ef00143c0", "asm": "00144bd69054ed191693450ca4af21bac83ef00143c0"}, "vout": 1, "txid": "5eceabb358ffa89a388c2103cdf5a6bf32aa9863cd757fc8020345af7ddd5d08"}], "txid": "9569e00617db1b49b7f8d1154e4edce7946fe1c1a6308b3b74eef31c8346bb96", "blocktime": 1537871175, "version": 1, "confirmations": 11511, "time": 1537871175, "locktime": 0, "vsize": 166, "size": 248}