{"hash": "6c74cab707cf3f9409fc36a4ff8f7763badfc0c630e9956a032a958a8163d6ae", "blockhash": "000000000000000000022b45ed06c6f4ccd3cf7fb5ba4856ebd2e58215665228", "vout": [{"scriptPubKey": {"reqSigs": 1, "hex": "76a91477b2080d195a9aa7e8964b22a9bf481fe54e1e9188ac", "addresses": ["1ButgfrFypmGSCSBeotW3qSAzKveVy6Aqp"], "asm": "OP_DUP OP_HASH160 77b2080d195a9aa7e8964b22a9bf481fe54e1e91 OP_EQUALVERIFY OP_CHECKSIG", "type": "pubkeyhash"}, "value": 0.01508, "n": 0}, {"scriptPubKey": {"reqSigs": 1, "hex": "a914627aa52932456d89054bd84f86246af3b71b93a887", "addresses": ["3Afj4stdiLG9EktGrMbm252ySonnhYaz8v"], "asm": "OP_HASH160 627aa52932456d89054bd84f86246af3b71b93a8 OP_EQUAL", "type": "scripthash"}, "value": 0.77340062, "n": 1}], "hex": "0100000000010114169bea69ccbb393419c8981707e872ff18bca1b51f8fdfc3b9b82b2d18119801000000232200205fdd641234b13964b223bd85ad2a4a667ca2099df3d42a1d3b45706a8d81abf0ffffffff02a0021700000000001976a91477b2080d195a9aa7e8964b22a9bf481fe54e1e9188ac9e1d9c040000000017a914627aa52932456d89054bd84f86246af3b71b93a8870400483045022100f48aa38278580d91634cfde01b4a1e8829a5d69b4ff325bb5605016616ba2f6502202827cbc5194f6aaa4616130802e4cc40787a012e7261702bda912988803f097b0147304402206b321948ae982ea679f043a78a97f797a73e3738173389e50fa94a28e61c878302200386ead60511fa15761507e2f4f034ec647333b9758543027c782310a1e343b30147522103dcde3832fa56def7b4e783faad1b8af85c3cdd74a5ff4f3c7c216b1075c18da12103c70ae8ded79be1afda73b9ce5ea14a3878908ee160d66a9a717e792bb6db276952ae00000000", "vin": [{"txinwitness": ["", "3045022100f48aa38278580d91634cfde01b4a1e8829a5d69b4ff325bb5605016616ba2f6502202827cbc5194f6aaa4616130802e4cc40787a012e7261702bda912988803f097b01", "304402206b321948ae982ea679f043a78a97f797a73e3738173389e50fa94a28e61c878302200386ead60511fa15761507e2f4f034ec647333b9758543027c782310a1e343b301", "522103dcde3832fa56def7b4e783faad1b8af85c3cdd74a5ff4f3c7c216b1075c18da12103c70ae8ded79be1afda73b9ce5ea14a3878908ee160d66a9a717e792bb6db276952ae"], "sequence": 4294967295, "scriptSig": {"hex": "2200205fdd641234b13964b223bd85ad2a4a667ca2099df3d42a1d3b45706a8d81abf0", "asm": "00205fdd641234b13964b223bd85ad2a4a667ca2099df3d42a1d3b45706a8d81abf0"}, "vout": 1, "txid": "9811182d2bb8b9c3df8f1fb5a1bc18ff72e8071798c8193439bbcc69ea9b1614"}], "txid": "956a9fe536ccd1d99b9021dd4bb71f9b5728b1750a64e2e21c53b447c4faa1a8", "blocktime": 1537869901, "version": 1, "confirmations": 11523, "time": 1537869901, "locktime": 0, "vsize": 208, "size": 373}