{"hash": "956bd182bfff0a4f7285614813e048bf2fd4fd4d60e42fd1988e1d3b57907f87", "blockhash": "0000000000000000001e0dab787dd257d1dbfcb92a98c2207d5e1078be1f4165", "vout": [{"scriptPubKey": {"reqSigs": 1, "hex": "76a914e8bfa351bd867dec7bcb04ea07f54b3251653b2488ac", "addresses": ["1NDfLk9hyhMECbxAYNaMbs83yp8ySn5vWG"], "asm": "OP_DUP OP_HASH160 e8bfa351bd867dec7bcb04ea07f54b3251653b24 OP_EQUALVERIFY OP_CHECKSIG", "type": "pubkeyhash"}, "value": 0.00859266, "n": 0}, {"scriptPubKey": {"reqSigs": 1, "hex": "76a914d3d11f8e0632a5795aa255ac9b97ca40311a8d1188ac", "addresses": ["1LJz6cgF8otj1PUukFrxNTkWSATgfoDRFf"], "asm": "OP_DUP OP_HASH160 d3d11f8e0632a5795aa255ac9b97ca40311a8d11 OP_EQUALVERIFY OP_CHECKSIG", "type": "pubkeyhash"}, "value": 0.06534507, "n": 1}], "hex": "0100000001e3523f9a44879e952841dd59e673a65d508116edcdc4d37f5d37dd31a57c4bd7010000006a473044022007965d7bc57982125be6c5f628a2ff4127dfcaa48cf5f39d2b82012965b6b0310220038f2c46f2a599bca3d87fe95211e4f071d6a8ffd4506d18098375aea69179e20121032e2151a0f883286d543859eded5326e83fd7e12211c77b65382136c91dbbe54bffffffff02821c0d00000000001976a914e8bfa351bd867dec7bcb04ea07f54b3251653b2488ac6bb56300000000001976a914d3d11f8e0632a5795aa255ac9b97ca40311a8d1188ac00000000", "vin": [{"sequence": 4294967295, "scriptSig": {"hex": "473044022007965d7bc57982125be6c5f628a2ff4127dfcaa48cf5f39d2b82012965b6b0310220038f2c46f2a599bca3d87fe95211e4f071d6a8ffd4506d18098375aea69179e20121032e2151a0f883286d543859eded5326e83fd7e12211c77b65382136c91dbbe54b", "asm": "3044022007965d7bc57982125be6c5f628a2ff4127dfcaa48cf5f39d2b82012965b6b0310220038f2c46f2a599bca3d87fe95211e4f071d6a8ffd4506d18098375aea69179e2[ALL] 032e2151a0f883286d543859eded5326e83fd7e12211c77b65382136c91dbbe54b"}, "vout": 1, "txid": "d74b7ca531dd375d7fd3c4cded1681505da673e659dd4128959e87449a3f52e3"}], "txid": "956bd182bfff0a4f7285614813e048bf2fd4fd4d60e42fd1988e1d3b57907f87", "blocktime": 1537872475, "version": 1, "confirmations": 11487, "time": 1537872475, "locktime": 0, "vsize": 225, "size": 225}