{"hash": "790ec4561d52265d7e786d8a4e6c92a2f69f464d9fa0d248bc0f23f1fb39893c", "blockhash": "000000000000000000022b45ed06c6f4ccd3cf7fb5ba4856ebd2e58215665228", "vout": [{"scriptPubKey": {"reqSigs": 1, "hex": "a914be6e32c279284d163b1c2efdcea6f1a78dd092f887", "addresses": ["3K3vKhgdqefQwoiJ1Z6xNUXAkyG8WT6216"], "asm": "OP_HASH160 be6e32c279284d163b1c2efdcea6f1a78dd092f8 OP_EQUAL", "type": "scripthash"}, "value": 0.19261819, "n": 0}, {"scriptPubKey": {"reqSigs": 1, "hex": "a914da30519560c38a29c5d0a062c385d619dde5ec2e87", "addresses": ["3Mah7bypqLznKsnbxzWP8Y41b51dx7Wybf"], "asm": "OP_HASH160 da30519560c38a29c5d0a062c385d619dde5ec2e OP_EQUAL", "type": "scripthash"}, "value": 0.467039, "n": 1}], "hex": "01000000000102766dbd776126d5cf5fc3041a213416611266b585dfca1a80ae17c0082246565a010000002322002059aa7e2eff84562b9aeef297b3387781fd387505d59efced355840df860dc500fffffffff72efb5a24ebc641bbc23e1c44cae0617fbb8ef0f0f04a256e987e008c86897d0000000023220020fb8bddc438ef25dff2b313e88725c9cbf8dd9ed146dfaadc024e0f1911a60383ffffffff027be925010000000017a914be6e32c279284d163b1c2efdcea6f1a78dd092f8871ca5c8020000000017a914da30519560c38a29c5d0a062c385d619dde5ec2e87040047304402206dfd005cae58df89e6841d4220817198672f7726ccc4432e80fa383a9e45c01c0220110953df0cd77afa29729deeeb51145173e33ecfc1c916c836cc6301b3ea36c90147304402201ab2e97fe334dc81ef42ee444c3f5df991e796f81c7cba7a3c29adc6311c378a02205463a15680924f13ad72922bf0d030772fb53f430521f3b839b4447bf61493da0169522102ae6408babd73715ec19834c20953158b952ecb98241b6db8288cc954ed346544210358ca61fb2d3d373e92e35874d194d7661e436abdfa72145fd5734561e43a299f210351959153533df22a95d6db5eb4fb18fc71e3e634a260de965d30f7b2eca4597f53ae0400473044022014804f6ff8d04cf8fcaf8e0e89aa57c10d35d83bbf4745526e8fe6234bac15fa022032ddd335ab1fe8d0e250511ec0d987aef19fd755266dbdf5a48d4a5b9e6a910f01483045022100ed134a63d10928c757bf113186bf7029ac41bcaa89349bd52bd6491f6d20a7e00220720003bb4d574dd85ef490308ff4c2e28e68a6be2de90fcbc7f8ebfc820a46df0169522103bfe7a8d343413bc8b046b947335f2574917f83e84845a55194133901e9255415210390e3c1240dd2306a3b5db20e447447ef4753850b2bf60273473ceef46f50585c2102366a3c6e50506830271d11b8f619d0036ac4e06891b09052cfaa0ebf17583d6a53ae0c490800", "vin": [{"txinwitness": ["", "304402206dfd005cae58df89e6841d4220817198672f7726ccc4432e80fa383a9e45c01c0220110953df0cd77afa29729deeeb51145173e33ecfc1c916c836cc6301b3ea36c901", "304402201ab2e97fe334dc81ef42ee444c3f5df991e796f81c7cba7a3c29adc6311c378a02205463a15680924f13ad72922bf0d030772fb53f430521f3b839b4447bf61493da01", "522102ae6408babd73715ec19834c20953158b952ecb98241b6db8288cc954ed346544210358ca61fb2d3d373e92e35874d194d7661e436abdfa72145fd5734561e43a299f210351959153533df22a95d6db5eb4fb18fc71e3e634a260de965d30f7b2eca4597f53ae"], "sequence": 4294967295, "scriptSig": {"hex": "22002059aa7e2eff84562b9aeef297b3387781fd387505d59efced355840df860dc500", "asm": "002059aa7e2eff84562b9aeef297b3387781fd387505d59efced355840df860dc500"}, "vout": 1, "txid": "5a56462208c017ae801acadf85b56612611634211a04c35fcfd5266177bd6d76"}, {"txinwitness": ["", "3044022014804f6ff8d04cf8fcaf8e0e89aa57c10d35d83bbf4745526e8fe6234bac15fa022032ddd335ab1fe8d0e250511ec0d987aef19fd755266dbdf5a48d4a5b9e6a910f01", "3045022100ed134a63d10928c757bf113186bf7029ac41bcaa89349bd52bd6491f6d20a7e00220720003bb4d574dd85ef490308ff4c2e28e68a6be2de90fcbc7f8ebfc820a46df01", "522103bfe7a8d343413bc8b046b947335f2574917f83e84845a55194133901e9255415210390e3c1240dd2306a3b5db20e447447ef4753850b2bf60273473ceef46f50585c2102366a3c6e50506830271d11b8f619d0036ac4e06891b09052cfaa0ebf17583d6a53ae"], "sequence": 4294967295, "scriptSig": {"hex": "220020fb8bddc438ef25dff2b313e88725c9cbf8dd9ed146dfaadc024e0f1911a60383", "asm": "0020fb8bddc438ef25dff2b313e88725c9cbf8dd9ed146dfaadc024e0f1911a60383"}, "vout": 0, "txid": "7d89868c007e986e254af0f0f08ebb7f61e0ca441c3ec2bb41c6eb245afb2ef7"}], "txid": "9574c6fccecf0393343a6bb573928392cbb4a94b7980a76b99e4f279bcc39aeb", "blocktime": 1537869901, "version": 1, "confirmations": 11523, "time": 1537869901, "locktime": 542988, "vsize": 353, "size": 733}