{"hash": "5506511df69fee6fc9b4c77a394d81f360a4bbeec63312197a3888c2d14f4383", "blockhash": "00000000000000000004ffacab907a6b429b9a5745fa0b75af4234bf69dd7176", "vout": [{"scriptPubKey": {"reqSigs": 1, "hex": "76a914bdad46fa5a27fde2f0d7b7f65df2bdf84be08cc088ac", "addresses": ["1JHvHmiDRNycdzqureht8TdrWXAcR7CWTG"], "asm": "OP_DUP OP_HASH160 bdad46fa5a27fde2f0d7b7f65df2bdf84be08cc0 OP_EQUALVERIFY OP_CHECKSIG", "type": "pubkeyhash"}, "value": 0.001913, "n": 0}, {"scriptPubKey": {"reqSigs": 1, "hex": "a914fb68fc52d4a6205ade7e7e74c171ae6145baa0c287", "addresses": ["3QcMJDuJckbSDbNeWQWYMQkmN58yRAYRt2"], "asm": "OP_HASH160 fb68fc52d4a6205ade7e7e74c171ae6145baa0c2 OP_EQUAL", "type": "scripthash"}, "value": 0.05500484, "n": 1}], "hex": "0100000000010187e23fff7fa966198cfded7871bd79f1d686ecb7c2b33908c35305d32033fda300000000232200202482a788576cee74b24eb589bdd97353cf8a7ab27afd1ff1a3f34def4c5ece78ffffffff0244eb0200000000001976a914bdad46fa5a27fde2f0d7b7f65df2bdf84be08cc088ac44ee53000000000017a914fb68fc52d4a6205ade7e7e74c171ae6145baa0c287040047304402207d94ddd1e81bbe5b82bd499fcc0c93110f95c83f6aefe88ee1e560e25a40c22402201fb1710f4ff6ea828ed7c9ca5c372d08a303483bf4a311df60e1d176540b6f97014730440220097ca524d8df7b8320da0ea07a2f6fc53937029daf0f370d58f871acfca8abb802205cfd61898e4553686a04a9628155c9db2f97095ef6db1462e55f850e105c0d96014752210355c3588106799fe298d20b08b6aed418a083a3c2699fd57b16ffd5f0e134223921038b1b6ed49cc72906c5c0e2461e321ac7d1bb62efef523bca036dc542747c8d8352ae00000000", "vin": [{"txinwitness": ["", "304402207d94ddd1e81bbe5b82bd499fcc0c93110f95c83f6aefe88ee1e560e25a40c22402201fb1710f4ff6ea828ed7c9ca5c372d08a303483bf4a311df60e1d176540b6f9701", "30440220097ca524d8df7b8320da0ea07a2f6fc53937029daf0f370d58f871acfca8abb802205cfd61898e4553686a04a9628155c9db2f97095ef6db1462e55f850e105c0d9601", "52210355c3588106799fe298d20b08b6aed418a083a3c2699fd57b16ffd5f0e134223921038b1b6ed49cc72906c5c0e2461e321ac7d1bb62efef523bca036dc542747c8d8352ae"], "sequence": 4294967295, "scriptSig": {"hex": "2200202482a788576cee74b24eb589bdd97353cf8a7ab27afd1ff1a3f34def4c5ece78", "asm": "00202482a788576cee74b24eb589bdd97353cf8a7ab27afd1ff1a3f34def4c5ece78"}, "vout": 0, "txid": "a3fd3320d30553c30839b3c2b7ec86d6f179bd7178edfd8c1966a97fff3fe287"}], "txid": "9578fdb139578ecd71e5a89345353f002cfeac188c03807108f751dd2bcd737d", "blocktime": 1537875543, "version": 1, "confirmations": 11464, "time": 1537875543, "locktime": 0, "vsize": 207, "size": 372}