{"hash": "9579ba41a029831155a66b32347413e84cc797c66197791933e2a9b9afcbcf4a", "blockhash": "0000000000000000001e0dab787dd257d1dbfcb92a98c2207d5e1078be1f4165", "vout": [{"scriptPubKey": {"reqSigs": 1, "hex": "76a914f3671db08cbec9942897ce3da846ad0efac690a388ac", "addresses": ["1PBzjEppNV6g7MwPRt25iEspQ9LXesqsg9"], "asm": "OP_DUP OP_HASH160 f3671db08cbec9942897ce3da846ad0efac690a3 OP_EQUALVERIFY OP_CHECKSIG", "type": "pubkeyhash"}, "value": 9.516e-05, "n": 0}, {"scriptPubKey": {"reqSigs": 1, "hex": "76a914d74129bd9d9ad5b5fa3bdb5a51035e284e5f31f888ac", "addresses": ["1LdALrPmuyFj1YvopfVxgTSh2R5v6Fk1kk"], "asm": "OP_DUP OP_HASH160 d74129bd9d9ad5b5fa3bdb5a51035e284e5f31f8 OP_EQUALVERIFY OP_CHECKSIG", "type": "pubkeyhash"}, "value": 0.02952428, "n": 1}], "hex": "0100000002f09cfb020cb09548c7417db4ccbf450942f0554145c0c03a14bb1009f5cc7900000000006a4730440220694f3ee57d7bc4e361f7946fe920e60dc8989e081ad1aba24024301d4d8ed55a022026d274b01dd22f36caed827a20e2561d89b0f98d9b71545d96693e8e8820e892012102f13d4fa19fa748e04d0be93c14dcf1f0b4eeb83db035ec49251d1203cb418a5affffffffd69cb6ae92f67f79cb4c0c9f29dd2ef92a6950fbad4ca478f25706231534ff35000000006b483045022100dae2ed0132b5c60ce43d26d96120e1758a9ed4e6e7d08f8870ecd321d4a456a3022008349b27fbe88080e847e149b7de23d236138098a4af8564b369e9af16dd83bd01210225e75d776109edfff6a235b35e7d69175a04aa786182abdce83d57acc8d99f6fffffffff022c250000000000001976a914f3671db08cbec9942897ce3da846ad0efac690a388acec0c2d00000000001976a914d74129bd9d9ad5b5fa3bdb5a51035e284e5f31f888ac00000000", "vin": [{"sequence": 4294967295, "scriptSig": {"hex": "4730440220694f3ee57d7bc4e361f7946fe920e60dc8989e081ad1aba24024301d4d8ed55a022026d274b01dd22f36caed827a20e2561d89b0f98d9b71545d96693e8e8820e892012102f13d4fa19fa748e04d0be93c14dcf1f0b4eeb83db035ec49251d1203cb418a5a", "asm": "30440220694f3ee57d7bc4e361f7946fe920e60dc8989e081ad1aba24024301d4d8ed55a022026d274b01dd22f36caed827a20e2561d89b0f98d9b71545d96693e8e8820e892[ALL] 02f13d4fa19fa748e04d0be93c14dcf1f0b4eeb83db035ec49251d1203cb418a5a"}, "vout": 0, "txid": "0079ccf50910bb143ac0c0454155f0420945bfccb47d41c74895b00c02fb9cf0"}, {"sequence": 4294967295, "scriptSig": {"hex": "483045022100dae2ed0132b5c60ce43d26d96120e1758a9ed4e6e7d08f8870ecd321d4a456a3022008349b27fbe88080e847e149b7de23d236138098a4af8564b369e9af16dd83bd01210225e75d776109edfff6a235b35e7d69175a04aa786182abdce83d57acc8d99f6f", "asm": "3045022100dae2ed0132b5c60ce43d26d96120e1758a9ed4e6e7d08f8870ecd321d4a456a3022008349b27fbe88080e847e149b7de23d236138098a4af8564b369e9af16dd83bd[ALL] 0225e75d776109edfff6a235b35e7d69175a04aa786182abdce83d57acc8d99f6f"}, "vout": 0, "txid": "35ff3415230657f278a44cadfb50692af92edd299f0c4ccb797ff692aeb69cd6"}], "txid": "9579ba41a029831155a66b32347413e84cc797c66197791933e2a9b9afcbcf4a", "blocktime": 1537872475, "version": 1, "confirmations": 11487, "time": 1537872475, "locktime": 0, "vsize": 373, "size": 373}