{"hash": "957c649fa591a396bed74ea47421d9cb374e4a60d2e15055c6f0a57e15dd21d0", "blockhash": "000000000000000000022b45ed06c6f4ccd3cf7fb5ba4856ebd2e58215665228", "vout": [{"scriptPubKey": {"reqSigs": 1, "hex": "76a914485516a0f3edc8a203b5a0268373b6c98443c05088ac", "addresses": ["17bTarhzK2Ehf5JSiunom2efDf2MQkYRyJ"], "asm": "OP_DUP OP_HASH160 485516a0f3edc8a203b5a0268373b6c98443c050 OP_EQUALVERIFY OP_CHECKSIG", "type": "pubkeyhash"}, "value": 0.03157394, "n": 0}], "hex": "01000000026dc2e27758c51ead97686d68bb77eed9b87ed4787f0537fbfe7033f75181d692000000006a473044022060908e019ea3dd92114091f4d593c5b69657cd07199ca397b24d521d755cc10102207b96c401ed32f39e4d8a415062fa5fcd3f6d6d5fcb3ffbd1eb224fd29606c59401210350297476ea2f423bad08c51fc7018b78dc546211ee70678c464b4066af1fd314ffffffff0760f7c09a30f1978fed4ed8fdb2a0e390ece0bca922180792a4364ec41a60d7000000006b483045022100e31a3e1886f30c2554aacfa6bb09873be12cb7fa753107bd00cecf848510dba502204c4f1cdf6e53824c7a824227e7d2eb20de4de6d6ffb22df7d34b4bfb01c72640012103aa4f1f78b8d8033eee97ceae3aa3c04adbe4b87cd90cc00a4c257b6a5ea60ef1ffffffff01922d3000000000001976a914485516a0f3edc8a203b5a0268373b6c98443c05088ac00000000", "vin": [{"sequence": 4294967295, "scriptSig": {"hex": "473044022060908e019ea3dd92114091f4d593c5b69657cd07199ca397b24d521d755cc10102207b96c401ed32f39e4d8a415062fa5fcd3f6d6d5fcb3ffbd1eb224fd29606c59401210350297476ea2f423bad08c51fc7018b78dc546211ee70678c464b4066af1fd314", "asm": "3044022060908e019ea3dd92114091f4d593c5b69657cd07199ca397b24d521d755cc10102207b96c401ed32f39e4d8a415062fa5fcd3f6d6d5fcb3ffbd1eb224fd29606c594[ALL] 0350297476ea2f423bad08c51fc7018b78dc546211ee70678c464b4066af1fd314"}, "vout": 0, "txid": "92d68151f73370fefb37057f78d47eb8d9ee77bb686d6897ad1ec55877e2c26d"}, {"sequence": 4294967295, "scriptSig": {"hex": "483045022100e31a3e1886f30c2554aacfa6bb09873be12cb7fa753107bd00cecf848510dba502204c4f1cdf6e53824c7a824227e7d2eb20de4de6d6ffb22df7d34b4bfb01c72640012103aa4f1f78b8d8033eee97ceae3aa3c04adbe4b87cd90cc00a4c257b6a5ea60ef1", "asm": "3045022100e31a3e1886f30c2554aacfa6bb09873be12cb7fa753107bd00cecf848510dba502204c4f1cdf6e53824c7a824227e7d2eb20de4de6d6ffb22df7d34b4bfb01c72640[ALL] 03aa4f1f78b8d8033eee97ceae3aa3c04adbe4b87cd90cc00a4c257b6a5ea60ef1"}, "vout": 0, "txid": "d7601ac44e36a492071822a9bce0ec90e3a0b2fdd84eed8f97f1309ac0f76007"}], "txid": "957c649fa591a396bed74ea47421d9cb374e4a60d2e15055c6f0a57e15dd21d0", "blocktime": 1537869901, "version": 1, "confirmations": 11522, "time": 1537869901, "locktime": 0, "vsize": 339, "size": 339}