{"hash": "29abe63c6d180747472286caee0328a564502a84c39885c790b66fad5b469506", "blockhash": "0000000000000000001cda96e906b7601b7a6fb1a3b62bca570a9e5d8f4b3de1", "vout": [{"scriptPubKey": {"reqSigs": 1, "hex": "001473e6daa0b03d7ca27bf68a7eb2f253dc645a9488", "addresses": ["bc1qw0nd4g9s8472y7lk3flt9ujnm3j949yg5g3767"], "asm": "0 73e6daa0b03d7ca27bf68a7eb2f253dc645a9488", "type": "witness_v0_keyhash"}, "value": 0.13289279, "n": 0}, {"scriptPubKey": {"reqSigs": 1, "hex": "a9144066e48fc4d5ce0c1d302e9fb2a6d465960d10bb87", "addresses": ["37ZYRwRzHZ2METePHYcU9PihGqieoWxC7E"], "asm": "OP_HASH160 4066e48fc4d5ce0c1d302e9fb2a6d465960d10bb OP_EQUAL", "type": "scripthash"}, "value": 0.0085, "n": 1}], "hex": "01000000000101a35f832799de6d962821337c76654f40023df390529c82683f09a69e35a5d5d0010000001716001463211ce6a01a797d2883e65867dc31ae62f4e3a0ffffffff023fc7ca000000000016001473e6daa0b03d7ca27bf68a7eb2f253dc645a948850f80c000000000017a9144066e48fc4d5ce0c1d302e9fb2a6d465960d10bb8702483045022100c7d0cc378d4930b7302bae8e16a35cfaed0b5bc553f08d4d686cd68ae849ab4d0220622c3f9e1847774e6f7ac5cf9412a3d8405f84db6cebae49d18e3c16c46d1fdd012102c2d71eb1ab35ce4842b629f46de3da1973597b346fa0afcb4c31656a0eeed67e00000000", "vin": [{"txinwitness": ["3045022100c7d0cc378d4930b7302bae8e16a35cfaed0b5bc553f08d4d686cd68ae849ab4d0220622c3f9e1847774e6f7ac5cf9412a3d8405f84db6cebae49d18e3c16c46d1fdd01", "02c2d71eb1ab35ce4842b629f46de3da1973597b346fa0afcb4c31656a0eeed67e"], "sequence": 4294967295, "scriptSig": {"hex": "16001463211ce6a01a797d2883e65867dc31ae62f4e3a0", "asm": "001463211ce6a01a797d2883e65867dc31ae62f4e3a0"}, "vout": 1, "txid": "d0d5a5359ea6093f68829c5290f33d02404f65767c332128966dde9927835fa3"}], "txid": "957c636497781a9c4fde71748ae737877c7fc9f3b12d3d862b986c401690f017", "blocktime": 1537873282, "version": 1, "confirmations": 11484, "time": 1537873282, "locktime": 0, "vsize": 165, "size": 247}