{"hash": "957f890ba90bb3f6103cd27ca2bff327aadc0a139d80866a63bbc92fc7f64b2d", "blockhash": "00000000000000000018f53835495a110e01622372bf6ae95dc86f2b0ab887b0", "vout": [{"scriptPubKey": {"reqSigs": 1, "hex": "76a91475ded67a30cf48a8e6cd6d071d708fb5ccc2798688ac", "addresses": ["1BkF1VCAQQx6bAN8HBdjnGbu6T4vU97HNp"], "asm": "OP_DUP OP_HASH160 75ded67a30cf48a8e6cd6d071d708fb5ccc27986 OP_EQUALVERIFY OP_CHECKSIG", "type": "pubkeyhash"}, "value": 0.00308922, "n": 0}, {"scriptPubKey": {"reqSigs": 1, "hex": "76a914bfaf45c3584b445ef7ec600d42551c0138baf72d88ac", "addresses": ["1JUY2nfGtGJWkvTrBiPJd451PNVkFp38Ah"], "asm": "OP_DUP OP_HASH160 bfaf45c3584b445ef7ec600d42551c0138baf72d OP_EQUALVERIFY OP_CHECKSIG", "type": "pubkeyhash"}, "value": 0.076667, "n": 1}], "hex": "01000000010dd8f71e1723dc6a22d9c7981579821ee18c5f156b39fbd48fc809cb946919ab060000006a47304402202f2248054f64555c9df2006c12a453831070fed104062acd98323acbd2041b6e0220195c5d8a1061bc03a953e44d17fff08c834d6aa422cba3aa1022ac4aaf8e57160121035087535c4d19ccce2ce0d787526d84e82864b1d32a39af5baad90fc78b966effffffffff02bab60400000000001976a91475ded67a30cf48a8e6cd6d071d708fb5ccc2798688ac0cfc7400000000001976a914bfaf45c3584b445ef7ec600d42551c0138baf72d88ac00000000", "vin": [{"sequence": 4294967295, "scriptSig": {"hex": "47304402202f2248054f64555c9df2006c12a453831070fed104062acd98323acbd2041b6e0220195c5d8a1061bc03a953e44d17fff08c834d6aa422cba3aa1022ac4aaf8e57160121035087535c4d19ccce2ce0d787526d84e82864b1d32a39af5baad90fc78b966eff", "asm": "304402202f2248054f64555c9df2006c12a453831070fed104062acd98323acbd2041b6e0220195c5d8a1061bc03a953e44d17fff08c834d6aa422cba3aa1022ac4aaf8e5716[ALL] 035087535c4d19ccce2ce0d787526d84e82864b1d32a39af5baad90fc78b966eff"}, "vout": 6, "txid": "ab196994cb09c88fd4fb396b155f8ce11e82791598c7d9226adc23171ef7d80d"}], "txid": "957f890ba90bb3f6103cd27ca2bff327aadc0a139d80866a63bbc92fc7f64b2d", "blocktime": 1537870928, "version": 1, "confirmations": 11514, "time": 1537870928, "locktime": 0, "vsize": 225, "size": 225}