{"hash": "9587c826a77198524e85915660c99965fe2af4ebfe12fd96a3c75da96588be3d", "blockhash": "0000000000000000000baef3f32e3676a92c3b2e5da21b426e4f302fc371ce76", "vout": [{"scriptPubKey": {"reqSigs": 1, "hex": "76a9143e871e2803c9dbf38a9884891e899cf6a003350788ac", "addresses": ["16hcm3UainzptvDCbMeJQy7MYMuNqfvrdC"], "asm": "OP_DUP OP_HASH160 3e871e2803c9dbf38a9884891e899cf6a0033507 OP_EQUALVERIFY OP_CHECKSIG", "type": "pubkeyhash"}, "value": 0.0007558, "n": 0}, {"scriptPubKey": {"type": "nulldata", "hex": "6a4c5000007804000170c1f99337c475708b4b19e8702940d64fa54d8eb2d19ed074892d00f8e830f2fc8be9a7253da60fb49cdc31f4c05baa1a7106138d8261798802bc9a9526289ac0f6612cd74e33776ee4", "asm": "OP_RETURN 00007804000170c1f99337c475708b4b19e8702940d64fa54d8eb2d19ed074892d00f8e830f2fc8be9a7253da60fb49cdc31f4c05baa1a7106138d8261798802bc9a9526289ac0f6612cd74e33776ee4"}, "value": 0.0, "n": 1}], "hex": "0100000001ecb8ae0a74f0cc7b8322d25b9b7f6cf3265d67fb6936eb0f3f2e8d076b52ee88010000006a473044022046bec793beb9c6ddbc617922a43e72c9c09cbf9be99210fc3c6554d57dc5b1270220158fa63c76737a7089f2bc9638b42c41d327a58a5d2196000a0c41c21afdc53a012102ecac43f6a5bd04308deb85f9c88cff159f864d40ae5b17d69e70b836ad6d1808ffffffff023c270100000000001976a9143e871e2803c9dbf38a9884891e899cf6a003350788ac0000000000000000536a4c5000007804000170c1f99337c475708b4b19e8702940d64fa54d8eb2d19ed074892d00f8e830f2fc8be9a7253da60fb49cdc31f4c05baa1a7106138d8261798802bc9a9526289ac0f6612cd74e33776ee400000000", "vin": [{"sequence": 4294967295, "scriptSig": {"hex": "473044022046bec793beb9c6ddbc617922a43e72c9c09cbf9be99210fc3c6554d57dc5b1270220158fa63c76737a7089f2bc9638b42c41d327a58a5d2196000a0c41c21afdc53a012102ecac43f6a5bd04308deb85f9c88cff159f864d40ae5b17d69e70b836ad6d1808", "asm": "3044022046bec793beb9c6ddbc617922a43e72c9c09cbf9be99210fc3c6554d57dc5b1270220158fa63c76737a7089f2bc9638b42c41d327a58a5d2196000a0c41c21afdc53a[ALL] 02ecac43f6a5bd04308deb85f9c88cff159f864d40ae5b17d69e70b836ad6d1808"}, "vout": 1, "txid": "88ee526b078d2e3f0feb3669fb675d26f36c7f9b5bd222837bccf0740aaeb8ec"}], "txid": "9587c826a77198524e85915660c99965fe2af4ebfe12fd96a3c75da96588be3d", "blocktime": 1537876114, "version": 1, "confirmations": 11460, "time": 1537876114, "locktime": 0, "vsize": 283, "size": 283}