{"hash": "9588d99a4cb51e3e962cae414bd59903cbd61dc84c220503bd093b7db79edf43", "blockhash": "0000000000000000001cda96e906b7601b7a6fb1a3b62bca570a9e5d8f4b3de1", "vout": [{"scriptPubKey": {"reqSigs": 1, "hex": "76a9143d00bfb8186cf573a1eb3418114c20852fbbda9688ac", "addresses": ["16ZZ7ji2z6uGm73ee3w9EfNxdCXsUdSmdP"], "asm": "OP_DUP OP_HASH160 3d00bfb8186cf573a1eb3418114c20852fbbda96 OP_EQUALVERIFY OP_CHECKSIG", "type": "pubkeyhash"}, "value": 0.0025847, "n": 0}, {"scriptPubKey": {"reqSigs": 1, "hex": "a9140c4afd274fe65b705bd023f39723a4d26e48e35487", "addresses": ["32p1sAVhgyeZSaDH1uW6RHiBkmENDq882h"], "asm": "OP_HASH160 0c4afd274fe65b705bd023f39723a4d26e48e354 OP_EQUAL", "type": "scripthash"}, "value": 0.00312397, "n": 1}], "hex": "01000000010e1e97043f085911e4cdfd8620a61993cb7656487884cdece7d1afa8a1f0c0e5010000006a473044022076a94889699dafac25dae8635dfe728bf9f0ddf5314ec2ce92e8abfcf5299ad70220429c53fb07e0faadc40b2a870cded3c26c9848f79c0d73dbe9636d9281e7d0c501210206b8bcf7da711ea20a6e5d34137b4becbded6c39e0298907a40f95d77a105c62fdffffff02a6f10300000000001976a9143d00bfb8186cf573a1eb3418114c20852fbbda9688ac4dc404000000000017a9140c4afd274fe65b705bd023f39723a4d26e48e3548713490800", "vin": [{"sequence": 4294967293, "scriptSig": {"hex": "473044022076a94889699dafac25dae8635dfe728bf9f0ddf5314ec2ce92e8abfcf5299ad70220429c53fb07e0faadc40b2a870cded3c26c9848f79c0d73dbe9636d9281e7d0c501210206b8bcf7da711ea20a6e5d34137b4becbded6c39e0298907a40f95d77a105c62", "asm": "3044022076a94889699dafac25dae8635dfe728bf9f0ddf5314ec2ce92e8abfcf5299ad70220429c53fb07e0faadc40b2a870cded3c26c9848f79c0d73dbe9636d9281e7d0c5[ALL] 0206b8bcf7da711ea20a6e5d34137b4becbded6c39e0298907a40f95d77a105c62"}, "vout": 1, "txid": "e5c0f0a1a8afd1e7eccd8478485676cb9319a62086fdcde41159083f04971e0e"}], "txid": "9588d99a4cb51e3e962cae414bd59903cbd61dc84c220503bd093b7db79edf43", "blocktime": 1537873282, "version": 1, "confirmations": 11484, "time": 1537873282, "locktime": 542995, "vsize": 223, "size": 223}