{"hash": "958999bc4499eb58d5dd21798d68ca5aa479224426f94e13adfb19ea87e05424", "blockhash": "0000000000000000001f0ddff1eddb255c1121bcd4da4f1bc9a0da00cae72433", "vout": [{"scriptPubKey": {"reqSigs": 1, "hex": "76a91423d25c279df7918ccafad375a7daa2a0fa7bb65c88ac", "addresses": ["14GQenLZikVrTCvSzKaiQBNBbux12LW7Yz"], "asm": "OP_DUP OP_HASH160 23d25c279df7918ccafad375a7daa2a0fa7bb65c OP_EQUALVERIFY OP_CHECKSIG", "type": "pubkeyhash"}, "value": 0.00021897, "n": 0}, {"scriptPubKey": {"reqSigs": 1, "hex": "76a91463dd3a6a901aba92f612525fd1b0c11ccb2e32a188ac", "addresses": ["1A72vCKjoB1hTdiuuGrWwmutpcJsCbVW4E"], "asm": "OP_DUP OP_HASH160 63dd3a6a901aba92f612525fd1b0c11ccb2e32a1 OP_EQUALVERIFY OP_CHECKSIG", "type": "pubkeyhash"}, "value": 0.0281142, "n": 1}], "hex": "01000000049e123e73376e23ece940818935fee23434bbf739ff496db6eb98b7ef23be79a6010000006b4830450221008472d6f21df459fdca6f1fe8f78944d13e4f1698ff5f2cc3d675de4ece08b5e50220697ba1cb09437fead0f3fd7f5d6256b84e2474c4c7bbeb140aaf27e5a5d04d1d012102190034843107f49dcb69c80f1009f4a2dc1ad2dad590286be80033e7a411fcaaffffffffc740e87d15962ba28f00ce20f65f1ab313fbdff38920ca478f171717f511dbe7010000006b483045022100d15d5f0efe56f0fca61652e927e4f643f1f7b71249cca5cb3faedf3738ec6a1302201c1a82538d003334bf3001e54063652f862eb72019c23fb04fe553a0488d0a87012103e469053a735c34be9c3dc90fb4262a7756dfe14574c0803fc43033a6b5b75d15ffffffffa8340a24edc892377912e5fcd8e011f26d52cbb7fae89295c24eee5b7763e6ee000000006b483045022100b3e8d5764bc865c181e684469e5e875d22e97287073422f9b4e986050fe11f310220603c75d6ffc62265d2bfd008f9d14e33e64314686cdc3052ebb3d84d67ba8ae801210287b4af7e203be69ac8315e0da26c590edfdbc73573a6e4f9eb32abf1c34306c9ffffffff46f0e0eb68a51e059f77fd4af21dc7a666f00dcfcf7bbdd5efd64167884073f8000000006b483045022100be9eb7abc656e53962824be173e5ec9c1fc4ffc6f321c50325ebb621e9dc875a022009bde608182ef283d2f82237d9a196684796cf7ca35692f489e3f81a4610628c012103691bb5f2cfc2292ed416efd24f6aa7095e42bee4eb5f77b4c85363e1c696e9e4ffffffff0289550000000000001976a91423d25c279df7918ccafad375a7daa2a0fa7bb65c88ac1ce62a00000000001976a91463dd3a6a901aba92f612525fd1b0c11ccb2e32a188ac00000000", "vin": [{"sequence": 4294967295, "scriptSig": {"hex": "4830450221008472d6f21df459fdca6f1fe8f78944d13e4f1698ff5f2cc3d675de4ece08b5e50220697ba1cb09437fead0f3fd7f5d6256b84e2474c4c7bbeb140aaf27e5a5d04d1d012102190034843107f49dcb69c80f1009f4a2dc1ad2dad590286be80033e7a411fcaa", "asm": "30450221008472d6f21df459fdca6f1fe8f78944d13e4f1698ff5f2cc3d675de4ece08b5e50220697ba1cb09437fead0f3fd7f5d6256b84e2474c4c7bbeb140aaf27e5a5d04d1d[ALL] 02190034843107f49dcb69c80f1009f4a2dc1ad2dad590286be80033e7a411fcaa"}, "vout": 1, "txid": "a679be23efb798ebb66d49ff39f7bb3434e2fe35898140e9ec236e37733e129e"}, {"sequence": 4294967295, "scriptSig": {"hex": "483045022100d15d5f0efe56f0fca61652e927e4f643f1f7b71249cca5cb3faedf3738ec6a1302201c1a82538d003334bf3001e54063652f862eb72019c23fb04fe553a0488d0a87012103e469053a735c34be9c3dc90fb4262a7756dfe14574c0803fc43033a6b5b75d15", "asm": "3045022100d15d5f0efe56f0fca61652e927e4f643f1f7b71249cca5cb3faedf3738ec6a1302201c1a82538d003334bf3001e54063652f862eb72019c23fb04fe553a0488d0a87[ALL] 03e469053a735c34be9c3dc90fb4262a7756dfe14574c0803fc43033a6b5b75d15"}, "vout": 1, "txid": "e7db11f51717178f47ca2089f3dffb13b31a5ff620ce008fa22b96157de840c7"}, {"sequence": 4294967295, "scriptSig": {"hex": "483045022100b3e8d5764bc865c181e684469e5e875d22e97287073422f9b4e986050fe11f310220603c75d6ffc62265d2bfd008f9d14e33e64314686cdc3052ebb3d84d67ba8ae801210287b4af7e203be69ac8315e0da26c590edfdbc73573a6e4f9eb32abf1c34306c9", "asm": "3045022100b3e8d5764bc865c181e684469e5e875d22e97287073422f9b4e986050fe11f310220603c75d6ffc62265d2bfd008f9d14e33e64314686cdc3052ebb3d84d67ba8ae8[ALL] 0287b4af7e203be69ac8315e0da26c590edfdbc73573a6e4f9eb32abf1c34306c9"}, "vout": 0, "txid": "eee663775bee4ec29592e8fab7cb526df211e0d8fce512793792c8ed240a34a8"}, {"sequence": 4294967295, "scriptSig": {"hex": "483045022100be9eb7abc656e53962824be173e5ec9c1fc4ffc6f321c50325ebb621e9dc875a022009bde608182ef283d2f82237d9a196684796cf7ca35692f489e3f81a4610628c012103691bb5f2cfc2292ed416efd24f6aa7095e42bee4eb5f77b4c85363e1c696e9e4", "asm": "3045022100be9eb7abc656e53962824be173e5ec9c1fc4ffc6f321c50325ebb621e9dc875a022009bde608182ef283d2f82237d9a196684796cf7ca35692f489e3f81a4610628c[ALL] 03691bb5f2cfc2292ed416efd24f6aa7095e42bee4eb5f77b4c85363e1c696e9e4"}, "vout": 0, "txid": "f87340886741d6efd5bd7bcfcf0df066a6c71df24afd779f051ea568ebe0f046"}], "txid": "958999bc4499eb58d5dd21798d68ca5aa479224426f94e13adfb19ea87e05424", "blocktime": 1537872018, "version": 1, "confirmations": 11489, "time": 1537872018, "locktime": 0, "vsize": 670, "size": 670}