{"hash": "6f46133a1b249d585cf5763d5fbca26080fe6f46c35cc6c9194cdf0344a9e568", "blockhash": "0000000000000000000dcc0f55137456b1a82d3642486a52398922ac4d620174", "vout": [{"scriptPubKey": {"reqSigs": 1, "hex": "76a91400380874ba7f7d024ac06d6eef2e7dac9c3dbadf88ac", "addresses": ["112A8F7KFbioPsLTuV9tDufdJmGqtp1mGW"], "asm": "OP_DUP OP_HASH160 00380874ba7f7d024ac06d6eef2e7dac9c3dbadf OP_EQUALVERIFY OP_CHECKSIG", "type": "pubkeyhash"}, "value": 0.02420202, "n": 0}, {"scriptPubKey": {"reqSigs": 1, "hex": "a9145d40f6951d1e10e0cf677298e29faa796c7847c887", "addresses": ["3AC6b7Afi1ciEUomQzDNPhWKNHqKBPY94m"], "asm": "OP_HASH160 5d40f6951d1e10e0cf677298e29faa796c7847c8 OP_EQUAL", "type": "scripthash"}, "value": 0.00314254, "n": 1}, {"scriptPubKey": {"reqSigs": 1, "hex": "76a914926b7858f4f4cd0cc26195cae012def3534cff3b88ac", "addresses": ["1EMCQAMJvwQhL7nTdn5NQbBSkZ5HUQpfZ9"], "asm": "OP_DUP OP_HASH160 926b7858f4f4cd0cc26195cae012def3534cff3b OP_EQUALVERIFY OP_CHECKSIG", "type": "pubkeyhash"}, "value": 0.00625159, "n": 2}, {"scriptPubKey": {"reqSigs": 1, "hex": "76a914a95c81b9e6343f4c24045e7f3a39db55ef089d7e88ac", "addresses": ["1GSW1uELLJUicBekF7iTtKfEgEM4EJDLXV"], "asm": "OP_DUP OP_HASH160 a95c81b9e6343f4c24045e7f3a39db55ef089d7e OP_EQUALVERIFY OP_CHECKSIG", "type": "pubkeyhash"}, "value": 0.00737184, "n": 3}, {"scriptPubKey": {"reqSigs": 1, "hex": "76a914a4bb6a0cf60a355a2da2116aa21ef5de7401497388ac", "addresses": ["1G22LER2PSNB1VEF2LTBPBLWmVnFHwHgpi"], "asm": "OP_DUP OP_HASH160 a4bb6a0cf60a355a2da2116aa21ef5de74014973 OP_EQUALVERIFY OP_CHECKSIG", "type": "pubkeyhash"}, "value": 0.0018962, "n": 4}, {"scriptPubKey": {"reqSigs": 1, "hex": "a914b4ad4963c4f9e45a1af39d8095d7bec1807d8a0b87", "addresses": ["3JAM9F2pfsVyRuGhBAWjnT2eyLgaVYrCmg"], "asm": "OP_HASH160 b4ad4963c4f9e45a1af39d8095d7bec1807d8a0b OP_EQUAL", "type": "scripthash"}, "value": 0.02165232, "n": 5}, {"scriptPubKey": {"reqSigs": 1, "hex": "76a9146039a32dfd7aa1cf8b7418f3bcf2d8c7dbf6aa1688ac", "addresses": ["19mnv8mTLq6r5AExwubwEP91mwm9bFKM9B"], "asm": "OP_DUP OP_HASH160 6039a32dfd7aa1cf8b7418f3bcf2d8c7dbf6aa16 OP_EQUALVERIFY OP_CHECKSIG", "type": "pubkeyhash"}, "value": 0.03671206, "n": 6}, {"scriptPubKey": {"reqSigs": 1, "hex": "76a914cab680fe846e9846cd226237c8b14e7a8f223d0888ac", "addresses": ["1KUr8Lq6q81hjVXJn8HaMdf87UMUGDMREn"], "asm": "OP_DUP OP_HASH160 cab680fe846e9846cd226237c8b14e7a8f223d08 OP_EQUALVERIFY OP_CHECKSIG", "type": "pubkeyhash"}, "value": 0.00890443, "n": 7}, {"scriptPubKey": {"reqSigs": 1, "hex": "a914d32936d661b063b39aaff68770cd7e56fb882c7987", "addresses": ["3LwXsdgzjnYc9MLwkUe21JeTPqwmhSWVaP"], "asm": "OP_HASH160 d32936d661b063b39aaff68770cd7e56fb882c79 OP_EQUAL", "type": "scripthash"}, "value": 0.0107, "n": 8}, {"scriptPubKey": {"reqSigs": 1, "hex": "76a914530d6d0ad6fd93d0422fd9daba3b306af5f00c4488ac", "addresses": ["18a9AmqYmGTVdKjyea2QhwpeaprkhaxyPo"], "asm": "OP_DUP OP_HASH160 530d6d0ad6fd93d0422fd9daba3b306af5f00c44 OP_EQUALVERIFY OP_CHECKSIG", "type": "pubkeyhash"}, "value": 0.00335696, "n": 9}, {"scriptPubKey": {"reqSigs": 1, "hex": "76a9147c7c5b7e312d9a0d5e044a2625ffde132d64552288ac", "addresses": ["1CMDmHqFZLxQZwBhCcxp4etUaHx8F6J2Vv"], "asm": "OP_DUP OP_HASH160 7c7c5b7e312d9a0d5e044a2625ffde132d645522 OP_EQUALVERIFY OP_CHECKSIG", "type": "pubkeyhash"}, "value": 0.03430759, "n": 10}, {"scriptPubKey": {"reqSigs": 1, "hex": "76a914f83b061e27b9dfa618f700093c7e81adb0ca8a0288ac", "addresses": ["1PdXHdKhTZ13EJjTiQXova5iA7WmC9t8yG"], "asm": "OP_DUP OP_HASH160 f83b061e27b9dfa618f700093c7e81adb0ca8a02 OP_EQUALVERIFY OP_CHECKSIG", "type": "pubkeyhash"}, "value": 0.01474902, "n": 11}, {"scriptPubKey": {"reqSigs": 1, "hex": "76a91408c2dbe28ead738c507f33153a0e947b3491fcc588ac", "addresses": ["1oKqa51sbTj8kiqcuZYhSWjfa2Uhcuxdy"], "asm": "OP_DUP OP_HASH160 08c2dbe28ead738c507f33153a0e947b3491fcc5 OP_EQUALVERIFY OP_CHECKSIG", "type": "pubkeyhash"}, "value": 0.00456111, "n": 12}, {"scriptPubKey": {"reqSigs": 1, "hex": "a9144418017c679c6471f9c8700e197d4410cc934f9f87", "addresses": ["37u4dYKNfgoqv54H9zLCHFHNUhPfaJjJtB"], "asm": "OP_HASH160 4418017c679c6471f9c8700e197d4410cc934f9f OP_EQUAL", "type": "scripthash"}, "value": 0.00400442, "n": 13}, {"scriptPubKey": {"reqSigs": 1, "hex": "76a914a492debecdf4d1c2f8a353e599d50ab450d5031988ac", "addresses": ["1G1BmB4sTqBvmDwhkqe4oDQpJVZCgVuEGS"], "asm": "OP_DUP OP_HASH160 a492debecdf4d1c2f8a353e599d50ab450d50319 OP_EQUALVERIFY OP_CHECKSIG", "type": "pubkeyhash"}, "value": 0.01618764, "n": 14}, {"scriptPubKey": {"reqSigs": 1, "hex": "76a9146916014b04b0eaea630d06481fee6db3a451945088ac", "addresses": ["1AaeK5dujuYVV22i6Vp5cMcPPCtrxf7h2B"], "asm": "OP_DUP OP_HASH160 6916014b04b0eaea630d06481fee6db3a4519450 OP_EQUALVERIFY OP_CHECKSIG", "type": "pubkeyhash"}, "value": 0.00645358, "n": 15}, {"scriptPubKey": {"reqSigs": 1, "hex": "a9145b84a1c8974fb080242f8d370f187730813812e887", "addresses": ["3A2vJRwxrVS7QK3XjukojXdJcZoNajuvDw"], "asm": "OP_HASH160 5b84a1c8974fb080242f8d370f187730813812e8 OP_EQUAL", "type": "scripthash"}, "value": 0.00993322, "n": 16}, {"scriptPubKey": {"reqSigs": 1, "hex": "76a9142bf4a277081cc30ceb9113b82d32f13939f4d1b488ac", "addresses": ["151R7m816cL2S3sNsdU66Y7f2u3Ze7xySD"], "asm": "OP_DUP OP_HASH160 2bf4a277081cc30ceb9113b82d32f13939f4d1b4 OP_EQUALVERIFY OP_CHECKSIG", "type": "pubkeyhash"}, "value": 0.04078982, "n": 17}, {"scriptPubKey": {"reqSigs": 1, "hex": "76a914efd6a18799334b2bcbf9faee1868b9eb7e05f3cf88ac", "addresses": ["1Ns9cfomWHauwtNJvqTimKwsqTCu6aCECR"], "asm": "OP_DUP OP_HASH160 efd6a18799334b2bcbf9faee1868b9eb7e05f3cf OP_EQUALVERIFY OP_CHECKSIG", "type": "pubkeyhash"}, "value": 0.00347815, "n": 18}, {"scriptPubKey": {"reqSigs": 1, "hex": "76a91461cd65fe41dd73337c284bd951a5ef32ce46684288ac", "addresses": ["19v8bwUvJvc54384JN55PsLoAcHuoUCgqj"], "asm": "OP_DUP OP_HASH160 61cd65fe41dd73337c284bd951a5ef32ce466842 OP_EQUALVERIFY OP_CHECKSIG", "type": "pubkeyhash"}, "value": 0.00493401, "n": 19}, {"scriptPubKey": {"reqSigs": 1, "hex": "76a914ca07c8d76d8beb07556fdbcab35023f91aecc09988ac", "addresses": ["1KREpdUWzUPsCaEHMrc18dVgUvPeKj2tb2"], "asm": "OP_DUP OP_HASH160 ca07c8d76d8beb07556fdbcab35023f91aecc099 OP_EQUALVERIFY OP_CHECKSIG", "type": "pubkeyhash"}, "value": 0.00921458, "n": 20}, {"scriptPubKey": {"reqSigs": 1, "hex": "a9147506e6a0b9be8bdfb12a03db2b41cec7549c6fff87", "addresses": ["3CMoFUDrRpZH8RFWNCQZoUPCYT147jH8Wy"], "asm": "OP_HASH160 7506e6a0b9be8bdfb12a03db2b41cec7549c6fff OP_EQUAL", "type": "scripthash"}, "value": 0.00341716, "n": 21}, {"scriptPubKey": {"reqSigs": 1, "hex": "76a9145e20fcfa033198ac26aca8b5252e40931debe93a88ac", "addresses": ["19ai36KPxeRYDsEh6KNyBJ8bsQmaaLsDYW"], "asm": "OP_DUP OP_HASH160 5e20fcfa033198ac26aca8b5252e40931debe93a OP_EQUALVERIFY OP_CHECKSIG", "type": "pubkeyhash"}, "value": 0.02038136, "n": 22}, {"scriptPubKey": {"reqSigs": 1, "hex": "76a914a7f05e752d3a0d3e600cf61f5fbb8a734e3f8bc688ac", "addresses": ["1GJyoAZgLBFH9ARoPQXXB1BnnhDHDTwg7M"], "asm": "OP_DUP OP_HASH160 a7f05e752d3a0d3e600cf61f5fbb8a734e3f8bc6 OP_EQUALVERIFY OP_CHECKSIG", "type": "pubkeyhash"}, "value": 0.02116999, "n": 23}, {"scriptPubKey": {"reqSigs": 1, "hex": "76a9148b3473f860b24bac5739573d46115dc621d30ab988ac", "addresses": ["1Dh3mAUZQunrCkmD82NdmmUnRX7DGfoct9"], "asm": "OP_DUP OP_HASH160 8b3473f860b24bac5739573d46115dc621d30ab9 OP_EQUALVERIFY OP_CHECKSIG", "type": "pubkeyhash"}, "value": 0.01202092, "n": 24}, {"scriptPubKey": {"reqSigs": 1, "hex": "a914bb4588b0c008eae425bc5052708cb87864b11de587", "addresses": ["3JmDaigEu2psouikTTw34y2JycWgw3TvzK"], "asm": "OP_HASH160 bb4588b0c008eae425bc5052708cb87864b11de5 OP_EQUAL", "type": "scripthash"}, "value": 0.001, "n": 25}, {"scriptPubKey": {"reqSigs": 1, "hex": "76a914d91e95371507cd3ad1495c25b08bc337f91c1aa788ac", "addresses": ["1Lo2GZcrUBAub1frNEBLTWAYNcFXnzTxUM"], "asm": "OP_DUP OP_HASH160 d91e95371507cd3ad1495c25b08bc337f91c1aa7 OP_EQUALVERIFY OP_CHECKSIG", "type": "pubkeyhash"}, "value": 0.01910729, "n": 26}, {"scriptPubKey": {"reqSigs": 1, "hex": "76a914e9275ef0f35d6c6161e289cdf9e5bd010c5a9b9b88ac", "addresses": ["1NFocETjJhBhT2dwFw3FGLD54MuYNgHmk9"], "asm": "OP_DUP OP_HASH160 e9275ef0f35d6c6161e289cdf9e5bd010c5a9b9b OP_EQUALVERIFY OP_CHECKSIG", "type": "pubkeyhash"}, "value": 0.00888985, "n": 27}, {"scriptPubKey": {"reqSigs": 1, "hex": "a914105e49c76c338494e4bb9d056ada29a5dc7e7f4f87", "addresses": ["33BZgsXZsxGxyHM7oDGmG4tuY6JuCxcLdd"], "asm": "OP_HASH160 105e49c76c338494e4bb9d056ada29a5dc7e7f4f OP_EQUAL", "type": "scripthash"}, "value": 0.00809744, "n": 28}, {"scriptPubKey": {"reqSigs": 1, "hex": "a91430875c3711cf588636104c3b1f13da278a55e30787", "addresses": ["367cWk7vPvqx4MfB7d23Qzj63YP2cq4nje"], "asm": "OP_HASH160 30875c3711cf588636104c3b1f13da278a55e307 OP_EQUAL", "type": "scripthash"}, "value": 0.00951499, "n": 29}, {"scriptPubKey": {"reqSigs": 1, "hex": "76a9143451674743a51f4a44458671ffa817a3facf607188ac", "addresses": ["15mdez7edDd3Wa4oSi7mZLxZmpUuE9eM6M"], "asm": "OP_DUP OP_HASH160 3451674743a51f4a44458671ffa817a3facf6071 OP_EQUALVERIFY OP_CHECKSIG", "type": "pubkeyhash"}, "value": 0.00217585, "n": 30}, {"scriptPubKey": {"reqSigs": 1, "hex": "76a91460f77870689bee6c75a189292074136341489b1888ac", "addresses": ["19qiKxyYZCczN4HcviKj3xbbzNSBuzdMeF"], "asm": "OP_DUP OP_HASH160 60f77870689bee6c75a189292074136341489b18 OP_EQUALVERIFY OP_CHECKSIG", "type": "pubkeyhash"}, "value": 0.00472736, "n": 31}, {"scriptPubKey": {"reqSigs": 1, "hex": "76a914b4eb8befe34e2e08319702e698c4105b58d01d2588ac", "addresses": ["1HVcobaZtoRT1aQkJ3Wh6P1MA6YL7aN4jg"], "asm": "OP_DUP OP_HASH160 b4eb8befe34e2e08319702e698c4105b58d01d25 OP_EQUALVERIFY OP_CHECKSIG", "type": "pubkeyhash"}, "value": 0.00208108, "n": 32}, {"scriptPubKey": {"reqSigs": 1, "hex": "76a9147080f966662d71c1408bc96908730b736038f55b88ac", "addresses": ["1BFsBmi4YWY2vLHKFq6SbY3UbFC29pzowZ"], "asm": "OP_DUP OP_HASH160 7080f966662d71c1408bc96908730b736038f55b OP_EQUALVERIFY OP_CHECKSIG", "type": "pubkeyhash"}, "value": 0.00381842, "n": 33}, {"scriptPubKey": {"reqSigs": 1, "hex": "76a914f98d6b11a30976d8f0b89d3ac35cab4fe0f1431188ac", "addresses": ["1PkWfgH76o4ugixrjn9bHnQNgSMWFy5jhV"], "asm": "OP_DUP OP_HASH160 f98d6b11a30976d8f0b89d3ac35cab4fe0f14311 OP_EQUALVERIFY OP_CHECKSIG", "type": "pubkeyhash"}, "value": 0.01223351, "n": 34}], "hex": "020000000001081e216d8debdb3fcd4b4ff5fa35f506f3ae4c0a8aa937d26de86ca486270179fa000000001716001410bf6317896db2c57306c8dcf8e9264f1c3e1c23feffffff2c1493fc216e607b2c2e70708f2765aa9ed727e41b71d0eb4dd1911972636e430100000017160014ea13218924ff2df53c488ddb3607a7f73abf3442feffffff38b11c2c2ff0c37a69e29c8fb638fcce1f07b27c45dd5d0e1ca6a0636fba08670100000017160014419fbd5478f73a36012a35d8a8c9ed991af97086feffffff5dad8c1a3b40c393475f45850ff95140196030332b76d5a9229042b0dd831c520b00000017160014c00a99a1b6957963b6fcb81496e83ed0786d10defeffffff63bb948cd2be021d2f5f978da555b6f46dd468c6363c3c9b186dda5350eafb5c0900000017160014aa4b6711900065f2ce0225613bc5a512ea9444cafeffffff7b6161cd4d5ab767ee4e9a88ff16cde04c4d2404e5e177a0636f27ed7001d46d00000000171600140d71dfac70fa930e965005fe47087ac1b317afe2feffffffb56a921fb1ca62dc9c494c515f2a5d01f7f0616a2509082701853595decdd2f51b0000001716001467a1fd33af7ef43fc36908d83eeef571067af2c7feffffffd0930406d6b88b47ebe5c5b82c10c8b389552ad1e70a5e0bf1b9d088d3e2ab980000000017160014dccace960d69bb9df7a2a081f37c9740ae974fd2feffffff23eaed2400000000001976a91400380874ba7f7d024ac06d6eef2e7dac9c3dbadf88ac8ecb04000000000017a9145d40f6951d1e10e0cf677298e29faa796c7847c887078a0900000000001976a914926b7858f4f4cd0cc26195cae012def3534cff3b88aca03f0b00000000001976a914a95c81b9e6343f4c24045e7f3a39db55ef089d7e88acb4e40200000000001976a914a4bb6a0cf60a355a2da2116aa21ef5de7401497388acf00921000000000017a914b4ad4963c4f9e45a1af39d8095d7bec1807d8a0b87a6043800000000001976a9146039a32dfd7aa1cf8b7418f3bcf2d8c7dbf6aa1688ac4b960d00000000001976a914cab680fe846e9846cd226237c8b14e7a8f223d0888acb05310000000000017a914d32936d661b063b39aaff68770cd7e56fb882c7987501f0500000000001976a914530d6d0ad6fd93d0422fd9daba3b306af5f00c4488ac67593400000000001976a9147c7c5b7e312d9a0d5e044a2625ffde132d64552288ac56811600000000001976a914f83b061e27b9dfa618f700093c7e81adb0ca8a0288acaff50600000000001976a91408c2dbe28ead738c507f33153a0e947b3491fcc588ac3a1c06000000000017a9144418017c679c6471f9c8700e197d4410cc934f9f874cb31800000000001976a914a492debecdf4d1c2f8a353e599d50ab450d5031988aceed80900000000001976a9146916014b04b0eaea630d06481fee6db3a451945088ac2a280f000000000017a9145b84a1c8974fb080242f8d370f187730813812e887863d3e00000000001976a9142bf4a277081cc30ceb9113b82d32f13939f4d1b488aca74e0500000000001976a914efd6a18799334b2bcbf9faee1868b9eb7e05f3cf88ac59870700000000001976a91461cd65fe41dd73337c284bd951a5ef32ce46684288ac720f0e00000000001976a914ca07c8d76d8beb07556fdbcab35023f91aecc09988acd43605000000000017a9147506e6a0b9be8bdfb12a03db2b41cec7549c6fff8778191f00000000001976a9145e20fcfa033198ac26aca8b5252e40931debe93a88ac874d2000000000001976a914a7f05e752d3a0d3e600cf61f5fbb8a734e3f8bc688acac571200000000001976a9148b3473f860b24bac5739573d46115dc621d30ab988aca08601000000000017a914bb4588b0c008eae425bc5052708cb87864b11de587c9271d00000000001976a914d91e95371507cd3ad1495c25b08bc337f91c1aa788ac99900d00000000001976a914e9275ef0f35d6c6161e289cdf9e5bd010c5a9b9b88ac105b0c000000000017a914105e49c76c338494e4bb9d056ada29a5dc7e7f4f87cb840e000000000017a91430875c3711cf588636104c3b1f13da278a55e30787f1510300000000001976a9143451674743a51f4a44458671ffa817a3facf607188aca0360700000000001976a91460f77870689bee6c75a189292074136341489b1888acec2c0300000000001976a914b4eb8befe34e2e08319702e698c4105b58d01d2588ac92d30500000000001976a9147080f966662d71c1408bc96908730b736038f55b88acb7aa1200000000001976a914f98d6b11a30976d8f0b89d3ac35cab4fe0f1431188ac02483045022100ea72004c21d0ef6740dbbe54cc400fde668ccd09ee92d60d7e5640ce443d9e4b02203d033066d783889a43d17fade2d979f5298d23eff466d6d8b9253d8bcf1dd254012103d36f29b62e7abe97f09c35116b38c1cd8de57e9696d0b5bea9147d791db506a50247304402203e717d31e90122add74bd8eaf47f159f26500a914f1e9f82bdea7674f0ba7c10022021312df2781893a41cfd65effd7e796a6ced5bf0d907c71492473103209688af01210227e876ce06b797076fb92e2e072ed10b30e305c5f30efd4d63c7ee634482cb9002463043021f681c79a5f25d3e3cfcb978024a3d77cef0111914cdb585b6009f9066c84b1c0220496414fa209c7054e373517f07f8712a7f518d4d74bdd5f2aa1c893111784207012102d34cf92e7608ed60879e301cf461f9d7e7e1456fc18d54d8303e9fc9811ee05702483045022100dd04426eeac1451c10541fc8ad2a4f0d88c26809b1ed11a0a48971b9dbb40daf022042fe48802493b86c81d6801d44852d1e866f375d976756dc50fc0159c4a5cd7e012103f2a7ac24bb645059a802e0856d646bb4c9707b4363950b4252099f8c137c072502483045022100a4c2a9fef5b6c69d80ac93bbdbabdd7a63bcd62f59211db9adda1970f56b904802204be661bc845dff7f1e440a31c91f55833fbea3908bb851fcb61a7852f4f7efd00121025ad2529d4293fa7d298cb52f6d9ccfab7c62610f9dde305e47d5c92178daa42c0247304402200812f2187763246a7eecd71d6b0e204f5c7794564cba85c729941952eaa07911022028250f7454094f80b3ea96a9f29ed51db82014905731ad37a353a3e9267dc64c0121020b9d93122a6db1794d96adcdddea26bcd8549e76bb08ee73e6c6e4a34c3e880402483045022100e699a237deaad75cf1872c7026adca246a9d8e8d2ed69e61cdc4617ac627397b02206adf2710619f423ea496835f79ce4956beee856d443207505e723b6c6f200b3101210245880ae4ab4288096d6ba32782700237c2f5626656e4fd7c7c11a9b694921e73024830450221009462c24789f5c3ec37558aa90d3a17508f882d96587f34ce719af5999bacb5c5022060c7d3bfa25b1daed55abf85e547cbf041a8897292c2174c714c7844cd8911710121029ec1cccaf31dea3262def767c7766b6c889c06936233de83d951aaafa8deb62f0c490800", "vin": [{"txinwitness": ["3045022100ea72004c21d0ef6740dbbe54cc400fde668ccd09ee92d60d7e5640ce443d9e4b02203d033066d783889a43d17fade2d979f5298d23eff466d6d8b9253d8bcf1dd25401", "03d36f29b62e7abe97f09c35116b38c1cd8de57e9696d0b5bea9147d791db506a5"], "sequence": 4294967294, "scriptSig": {"hex": "16001410bf6317896db2c57306c8dcf8e9264f1c3e1c23", "asm": "001410bf6317896db2c57306c8dcf8e9264f1c3e1c23"}, "vout": 0, "txid": "fa79012786a46ce86dd237a98a0a4caef306f535faf54f4bcd3fdbeb8d6d211e"}, {"txinwitness": ["304402203e717d31e90122add74bd8eaf47f159f26500a914f1e9f82bdea7674f0ba7c10022021312df2781893a41cfd65effd7e796a6ced5bf0d907c71492473103209688af01", "0227e876ce06b797076fb92e2e072ed10b30e305c5f30efd4d63c7ee634482cb90"], "sequence": 4294967294, "scriptSig": {"hex": "160014ea13218924ff2df53c488ddb3607a7f73abf3442", "asm": "0014ea13218924ff2df53c488ddb3607a7f73abf3442"}, "vout": 1, "txid": "436e63721991d14debd0711be427d79eaa65278f70702e2c7b606e21fc93142c"}, {"txinwitness": ["3043021f681c79a5f25d3e3cfcb978024a3d77cef0111914cdb585b6009f9066c84b1c0220496414fa209c7054e373517f07f8712a7f518d4d74bdd5f2aa1c89311178420701", "02d34cf92e7608ed60879e301cf461f9d7e7e1456fc18d54d8303e9fc9811ee057"], "sequence": 4294967294, "scriptSig": {"hex": "160014419fbd5478f73a36012a35d8a8c9ed991af97086", "asm": "0014419fbd5478f73a36012a35d8a8c9ed991af97086"}, "vout": 1, "txid": "6708ba6f63a0a61c0e5ddd457cb2071fcefc38b68f9ce2697ac3f02f2c1cb138"}, {"txinwitness": ["3045022100dd04426eeac1451c10541fc8ad2a4f0d88c26809b1ed11a0a48971b9dbb40daf022042fe48802493b86c81d6801d44852d1e866f375d976756dc50fc0159c4a5cd7e01", "03f2a7ac24bb645059a802e0856d646bb4c9707b4363950b4252099f8c137c0725"], "sequence": 4294967294, "scriptSig": {"hex": "160014c00a99a1b6957963b6fcb81496e83ed0786d10de", "asm": "0014c00a99a1b6957963b6fcb81496e83ed0786d10de"}, "vout": 11, "txid": "521c83ddb0429022a9d5762b333060194051f90f85455f4793c3403b1a8cad5d"}, {"txinwitness": ["3045022100a4c2a9fef5b6c69d80ac93bbdbabdd7a63bcd62f59211db9adda1970f56b904802204be661bc845dff7f1e440a31c91f55833fbea3908bb851fcb61a7852f4f7efd001", "025ad2529d4293fa7d298cb52f6d9ccfab7c62610f9dde305e47d5c92178daa42c"], "sequence": 4294967294, "scriptSig": {"hex": "160014aa4b6711900065f2ce0225613bc5a512ea9444ca", "asm": "0014aa4b6711900065f2ce0225613bc5a512ea9444ca"}, "vout": 9, "txid": "5cfbea5053da6d189b3c3c36c668d46df4b655a58d975f2f1d02bed28c94bb63"}, {"txinwitness": ["304402200812f2187763246a7eecd71d6b0e204f5c7794564cba85c729941952eaa07911022028250f7454094f80b3ea96a9f29ed51db82014905731ad37a353a3e9267dc64c01", "020b9d93122a6db1794d96adcdddea26bcd8549e76bb08ee73e6c6e4a34c3e8804"], "sequence": 4294967294, "scriptSig": {"hex": "1600140d71dfac70fa930e965005fe47087ac1b317afe2", "asm": "00140d71dfac70fa930e965005fe47087ac1b317afe2"}, "vout": 0, "txid": "6dd40170ed276f63a077e1e504244d4ce0cd16ff889a4eee67b75a4dcd61617b"}, {"txinwitness": ["3045022100e699a237deaad75cf1872c7026adca246a9d8e8d2ed69e61cdc4617ac627397b02206adf2710619f423ea496835f79ce4956beee856d443207505e723b6c6f200b3101", "0245880ae4ab4288096d6ba32782700237c2f5626656e4fd7c7c11a9b694921e73"], "sequence": 4294967294, "scriptSig": {"hex": "16001467a1fd33af7ef43fc36908d83eeef571067af2c7", "asm": "001467a1fd33af7ef43fc36908d83eeef571067af2c7"}, "vout": 27, "txid": "f5d2cdde95358501270809256a61f0f7015d2a5f514c499cdc62cab11f926ab5"}, {"txinwitness": ["30450221009462c24789f5c3ec37558aa90d3a17508f882d96587f34ce719af5999bacb5c5022060c7d3bfa25b1daed55abf85e547cbf041a8897292c2174c714c7844cd89117101", "029ec1cccaf31dea3262def767c7766b6c889c06936233de83d951aaafa8deb62f"], "sequence": 4294967294, "scriptSig": {"hex": "160014dccace960d69bb9df7a2a081f37c9740ae974fd2", "asm": "0014dccace960d69bb9df7a2a081f37c9740ae974fd2"}, "vout": 0, "txid": "98abe2d388d0b9f10b5e0ae7d12a5589b3c8102cb8c5e5eb478bb8d6060493d0"}], "txid": "958b8e830ba4685ca6c62cb53f7fb6497c5ba272db82e10fb8e919322252edd9", "blocktime": 1537870268, "version": 2, "confirmations": 11518, "time": 1537870268, "locktime": 542988, "vsize": 1910, "size": 2556}