{"hash": "958edee1a1dc099b30e65f81c8659a2bdfbc715988cd9d50eb4e2c9f5f94ebfb", "blockhash": "0000000000000000001cda96e906b7601b7a6fb1a3b62bca570a9e5d8f4b3de1", "vout": [{"scriptPubKey": {"reqSigs": 1, "hex": "a914d38361c456628a00a80e0ed10a8b49859d6cb4a387", "addresses": ["3LyPtbSNheoSKG6vN87gHgVvXqxzpCTQLc"], "asm": "OP_HASH160 d38361c456628a00a80e0ed10a8b49859d6cb4a3 OP_EQUAL", "type": "scripthash"}, "value": 0.00156, "n": 0}, {"scriptPubKey": {"reqSigs": 1, "hex": "a9141ca17550570368aaa17fe9ee6c77531fbcc01ffc87", "addresses": ["34JQGENd3ZHkSa4wggEBi4DPGEoQdzm2rT"], "asm": "OP_HASH160 1ca17550570368aaa17fe9ee6c77531fbcc01ffc OP_EQUAL", "type": "scripthash"}, "value": 0.01543332, "n": 1}], "hex": "01000000022d9c904a8cb5c5f28d52ef5d67805b9be67c31441df0e5df4a8191537af6d58201000000fdfe0000483045022100e75b123ccf4497bc1ad9f22972ec96d07ad0f165b4bc7a98733bc729588136ca0220418d7deec32a5b3cd9999d7e17a017df32abd71bda40aa54d9a59accc116029c01483045022100b5d3691227794a813c71efe20d9226b6c0dc5e2e7d8438d9ceecb11dc4c8d54e022032985bee2fce58a8431caafe0c9df3334e48cd3000bf638b5b06b6e90fc68c8a014c695221024d30ec4ace9b86be42614b854dcc2566581b219ef723825bcd343ebc3e69549a2102f2e62c074c6fbd678292fcb4f60dd39b571234a21fe8babbbf6c349e74450c2e21034a26b1dcbef09fa0117f8e9559af1d70b9287f9c20e50dbf9fe62f7306ce180c53aefdffffff6259d866c2d638875c74191843e226ec1560d6aee7c1af226fff4efdf42d978f01000000fdfd0000483045022100b54d0e1d1aacade16b409a8e7ee8a818c0f82ebaba41a0146224b292c43a4af5022037e97566e982bd924d5d7e6fcbb6dc78d9709582fc609c5adebe1773f1edfefe01473044022066b1ed9f6a290867b55e72ae935ba64d7a18f1c8a3108ae63b2e27d5144a236d02200869fa916dafb9f31c3daff9e4eb7792a1c2f9990fd77f5c5a748d63d7f9b6e9014c695221024d30ec4ace9b86be42614b854dcc2566581b219ef723825bcd343ebc3e69549a2102f2e62c074c6fbd678292fcb4f60dd39b571234a21fe8babbbf6c349e74450c2e21034a26b1dcbef09fa0117f8e9559af1d70b9287f9c20e50dbf9fe62f7306ce180c53aefdffffff02606102000000000017a914d38361c456628a00a80e0ed10a8b49859d6cb4a387a48c17000000000017a9141ca17550570368aaa17fe9ee6c77531fbcc01ffc8713490800", "vin": [{"sequence": 4294967293, "scriptSig": {"hex": "00483045022100e75b123ccf4497bc1ad9f22972ec96d07ad0f165b4bc7a98733bc729588136ca0220418d7deec32a5b3cd9999d7e17a017df32abd71bda40aa54d9a59accc116029c01483045022100b5d3691227794a813c71efe20d9226b6c0dc5e2e7d8438d9ceecb11dc4c8d54e022032985bee2fce58a8431caafe0c9df3334e48cd3000bf638b5b06b6e90fc68c8a014c695221024d30ec4ace9b86be42614b854dcc2566581b219ef723825bcd343ebc3e69549a2102f2e62c074c6fbd678292fcb4f60dd39b571234a21fe8babbbf6c349e74450c2e21034a26b1dcbef09fa0117f8e9559af1d70b9287f9c20e50dbf9fe62f7306ce180c53ae", "asm": "0 3045022100e75b123ccf4497bc1ad9f22972ec96d07ad0f165b4bc7a98733bc729588136ca0220418d7deec32a5b3cd9999d7e17a017df32abd71bda40aa54d9a59accc116029c[ALL] 3045022100b5d3691227794a813c71efe20d9226b6c0dc5e2e7d8438d9ceecb11dc4c8d54e022032985bee2fce58a8431caafe0c9df3334e48cd3000bf638b5b06b6e90fc68c8a[ALL] 5221024d30ec4ace9b86be42614b854dcc2566581b219ef723825bcd343ebc3e69549a2102f2e62c074c6fbd678292fcb4f60dd39b571234a21fe8babbbf6c349e74450c2e21034a26b1dcbef09fa0117f8e9559af1d70b9287f9c20e50dbf9fe62f7306ce180c53ae"}, "vout": 1, "txid": "82d5f67a5391814adfe5f01d44317ce69b5b80675def528df2c5b58c4a909c2d"}, {"sequence": 4294967293, "scriptSig": {"hex": "00483045022100b54d0e1d1aacade16b409a8e7ee8a818c0f82ebaba41a0146224b292c43a4af5022037e97566e982bd924d5d7e6fcbb6dc78d9709582fc609c5adebe1773f1edfefe01473044022066b1ed9f6a290867b55e72ae935ba64d7a18f1c8a3108ae63b2e27d5144a236d02200869fa916dafb9f31c3daff9e4eb7792a1c2f9990fd77f5c5a748d63d7f9b6e9014c695221024d30ec4ace9b86be42614b854dcc2566581b219ef723825bcd343ebc3e69549a2102f2e62c074c6fbd678292fcb4f60dd39b571234a21fe8babbbf6c349e74450c2e21034a26b1dcbef09fa0117f8e9559af1d70b9287f9c20e50dbf9fe62f7306ce180c53ae", "asm": "0 3045022100b54d0e1d1aacade16b409a8e7ee8a818c0f82ebaba41a0146224b292c43a4af5022037e97566e982bd924d5d7e6fcbb6dc78d9709582fc609c5adebe1773f1edfefe[ALL] 3044022066b1ed9f6a290867b55e72ae935ba64d7a18f1c8a3108ae63b2e27d5144a236d02200869fa916dafb9f31c3daff9e4eb7792a1c2f9990fd77f5c5a748d63d7f9b6e9[ALL] 5221024d30ec4ace9b86be42614b854dcc2566581b219ef723825bcd343ebc3e69549a2102f2e62c074c6fbd678292fcb4f60dd39b571234a21fe8babbbf6c349e74450c2e21034a26b1dcbef09fa0117f8e9559af1d70b9287f9c20e50dbf9fe62f7306ce180c53ae"}, "vout": 1, "txid": "8f972df4fd4eff6f22afc1e7aed66015ec26e2431819745c8738d6c266d85962"}], "txid": "958edee1a1dc099b30e65f81c8659a2bdfbc715988cd9d50eb4e2c9f5f94ebfb", "blocktime": 1537873282, "version": 1, "confirmations": 11485, "time": 1537873282, "locktime": 542995, "vsize": 667, "size": 667}