{"hash": "958ea41f903c7c961c99221a37230786bd7afdbb76d257dbcccd97502b7861bd", "blockhash": "0000000000000000001e0dab787dd257d1dbfcb92a98c2207d5e1078be1f4165", "vout": [{"scriptPubKey": {"reqSigs": 1, "hex": "76a91483bf8cd2515b2a6161630d1eb249476e1756da9f88ac", "addresses": ["1D1czGFbaQApQv7JXA7qttYkPfHNjd1agr"], "asm": "OP_DUP OP_HASH160 83bf8cd2515b2a6161630d1eb249476e1756da9f OP_EQUALVERIFY OP_CHECKSIG", "type": "pubkeyhash"}, "value": 0.00015489, "n": 0}, {"scriptPubKey": {"reqSigs": 1, "hex": "76a91428701b37c0a8287be8aeb0e224edc9fa116be12088ac", "addresses": ["14gpKxVqeqdiSNjJVbtRM4w5FEXrCJaR5u"], "asm": "OP_DUP OP_HASH160 28701b37c0a8287be8aeb0e224edc9fa116be120 OP_EQUALVERIFY OP_CHECKSIG", "type": "pubkeyhash"}, "value": 0.07983938, "n": 1}], "hex": "0100000001ebcd21f6b26649ad2bf9741ff4b098258c9921f9b2dbd45def244d5eb20b6f72000000006b48304502210081635105c5131e072c7376df2e5a3a646079e23d689e4a091d3a737a38d4f402022025f41a3e6a90976d9f947ed96e8a901b4cbb4ddcc36ff674f842f76f115897b501210353a6d0067cc463f2f5a379417ffb9ea279d0288cb844fe8ebca56a8ce571a44bffffffff02813c0000000000001976a91483bf8cd2515b2a6161630d1eb249476e1756da9f88ac42d37900000000001976a91428701b37c0a8287be8aeb0e224edc9fa116be12088ac00000000", "vin": [{"sequence": 4294967295, "scriptSig": {"hex": "48304502210081635105c5131e072c7376df2e5a3a646079e23d689e4a091d3a737a38d4f402022025f41a3e6a90976d9f947ed96e8a901b4cbb4ddcc36ff674f842f76f115897b501210353a6d0067cc463f2f5a379417ffb9ea279d0288cb844fe8ebca56a8ce571a44b", "asm": "304502210081635105c5131e072c7376df2e5a3a646079e23d689e4a091d3a737a38d4f402022025f41a3e6a90976d9f947ed96e8a901b4cbb4ddcc36ff674f842f76f115897b5[ALL] 0353a6d0067cc463f2f5a379417ffb9ea279d0288cb844fe8ebca56a8ce571a44b"}, "vout": 0, "txid": "726f0bb25e4d24ef5dd4dbb2f921998c2598b0f41f74f92bad4966b2f621cdeb"}], "txid": "958ea41f903c7c961c99221a37230786bd7afdbb76d257dbcccd97502b7861bd", "blocktime": 1537872475, "version": 1, "confirmations": 11487, "time": 1537872475, "locktime": 0, "vsize": 226, "size": 226}