{"hash": "95953fbbd26d1dd8023c84412df621b08063409eec9d0d389c6fcdb90f0989f7", "blockhash": "00000000000000000017f5eb5941039fbcee6240d03bc1f2f8e35350df66a1d8", "vout": [{"scriptPubKey": {"reqSigs": 1, "hex": "76a91410b47b2ea57457907913adda8833a89f76f3c77588ac", "addresses": ["12XL283u2pjW9RHgwoUWyDf9LQxk6r6tnw"], "asm": "OP_DUP OP_HASH160 10b47b2ea57457907913adda8833a89f76f3c775 OP_EQUALVERIFY OP_CHECKSIG", "type": "pubkeyhash"}, "value": 0.02253, "n": 0}, {"scriptPubKey": {"reqSigs": 1, "hex": "76a9146aaf564b15685fd536a641c9227eb7f876e77e4688ac", "addresses": ["1Aj6fy9pkgpDNHD5NH7pt1PtZXPcyDKv4o"], "asm": "OP_DUP OP_HASH160 6aaf564b15685fd536a641c9227eb7f876e77e46 OP_EQUALVERIFY OP_CHECKSIG", "type": "pubkeyhash"}, "value": 0.02601, "n": 1}, {"scriptPubKey": {"reqSigs": 1, "hex": "76a914b1ea8f6aa251b576bc1667488e42139f7edd26f888ac", "addresses": ["1HDjbV4epufhcrDmiXsUqGcUh3ngPEapAx"], "asm": "OP_DUP OP_HASH160 b1ea8f6aa251b576bc1667488e42139f7edd26f8 OP_EQUALVERIFY OP_CHECKSIG", "type": "pubkeyhash"}, "value": 0.00766, "n": 2}, {"scriptPubKey": {"reqSigs": 1, "hex": "a9148c8e022083bc410a2bc471f6aedfebbc216dd63987", "addresses": ["3EWCeJx22PeKhMZQtSq4wzvbHo8zw9ZWDE"], "asm": "OP_HASH160 8c8e022083bc410a2bc471f6aedfebbc216dd639 OP_EQUAL", "type": "scripthash"}, "value": 0.00368, "n": 3}, {"scriptPubKey": {"reqSigs": 1, "hex": "76a914c7af1f0ab01e92f0bbac50144b496a54b0a31a4688ac", "addresses": ["1KCqFp8DqMvaVXFcSxLtmV22ySVWgp33PM"], "asm": "OP_DUP OP_HASH160 c7af1f0ab01e92f0bbac50144b496a54b0a31a46 OP_EQUALVERIFY OP_CHECKSIG", "type": "pubkeyhash"}, "value": 0.00189, "n": 4}, {"scriptPubKey": {"reqSigs": 1, "hex": "76a914ae87aaf6769eac1b6c5c7038844ff926b87d907388ac", "addresses": ["1Guq6kAB7ANuhXPKwkTXvLgcdAhvR5re3N"], "asm": "OP_DUP OP_HASH160 ae87aaf6769eac1b6c5c7038844ff926b87d9073 OP_EQUALVERIFY OP_CHECKSIG", "type": "pubkeyhash"}, "value": 0.00766, "n": 5}, {"scriptPubKey": {"reqSigs": 1, "hex": "76a914217f82538a36960bc9a0a1aeee2a6009f29a38b288ac", "addresses": ["14483pPjCoQicvB4pV6pquonMrJwsSMmZ1"], "asm": "OP_DUP OP_HASH160 217f82538a36960bc9a0a1aeee2a6009f29a38b2 OP_EQUALVERIFY OP_CHECKSIG", "type": "pubkeyhash"}, "value": 0.00183, "n": 6}, {"scriptPubKey": {"reqSigs": 1, "hex": "76a914e89a53acf6faddca94fdb648d54b60bdcaf81a5788ac", "addresses": ["1NCteKigCsozsBrgXyZgLaBAaouMU4gMfx"], "asm": "OP_DUP OP_HASH160 e89a53acf6faddca94fdb648d54b60bdcaf81a57 OP_EQUALVERIFY OP_CHECKSIG", "type": "pubkeyhash"}, "value": 0.00694, "n": 7}, {"scriptPubKey": {"reqSigs": 1, "hex": "76a914b545b3210244e83d1c1cf516e51f6886ffe69e2a88ac", "addresses": ["1HXUoYVPHsHXNkjBjMpddqTZUvpy1q8Cpu"], "asm": "OP_DUP OP_HASH160 b545b3210244e83d1c1cf516e51f6886ffe69e2a OP_EQUALVERIFY OP_CHECKSIG", "type": "pubkeyhash"}, "value": 0.00413, "n": 8}, {"scriptPubKey": {"reqSigs": 1, "hex": "76a914f3a697dcce79e898b08ec842b3e274e92a19e47888ac", "addresses": ["1PDJmiRRLrxhSBSJ5C5rnqzTHfeCi6qmgL"], "asm": "OP_DUP OP_HASH160 f3a697dcce79e898b08ec842b3e274e92a19e478 OP_EQUALVERIFY OP_CHECKSIG", "type": "pubkeyhash"}, "value": 0.00165, "n": 9}, {"scriptPubKey": {"reqSigs": 1, "hex": "76a91457ffece26536fbc3d48a615ced7509b415e622e688ac", "addresses": ["192JNhBrPgvHx5gDofnwiLLgtRbbuLiwfV"], "asm": "OP_DUP OP_HASH160 57ffece26536fbc3d48a615ced7509b415e622e6 OP_EQUALVERIFY OP_CHECKSIG", "type": "pubkeyhash"}, "value": 0.00243, "n": 10}, {"scriptPubKey": {"reqSigs": 1, "hex": "76a9145ac0041a75ecd633cfdd15b6ebe0f7f24c38e64088ac", "addresses": ["19Gqqmo3bKnx29yY69w3K1mrHq1Xvg3HgA"], "asm": "OP_DUP OP_HASH160 5ac0041a75ecd633cfdd15b6ebe0f7f24c38e640 OP_EQUALVERIFY OP_CHECKSIG", "type": "pubkeyhash"}, "value": 2.05218401, "n": 11}], "hex": "01000000018f931930e72b971c9a219eec8d6ddd69a3fa54fcd8763624c7616117bf69ebf60a0000006a47304402203093db00f2db90edf6dbfb1549f655675598805d7d5baa21600d5d9c610cbfc702201952c1777e32f3db73f190e43b28dc28e5ded52f6f76b57ebd01f0335c73ac4701210319891b4582fcaa3bf030ae7be9ba33955b93dd16cc12ac0572531c82a73aa891ffffffff0cc8602200000000001976a91410b47b2ea57457907913adda8833a89f76f3c77588ac28b02700000000001976a9146aaf564b15685fd536a641c9227eb7f876e77e4688ac30b00b00000000001976a914b1ea8f6aa251b576bc1667488e42139f7edd26f888ac809d05000000000017a9148c8e022083bc410a2bc471f6aedfebbc216dd6398748e20200000000001976a914c7af1f0ab01e92f0bbac50144b496a54b0a31a4688ac30b00b00000000001976a914ae87aaf6769eac1b6c5c7038844ff926b87d907388acd8ca0200000000001976a914217f82538a36960bc9a0a1aeee2a6009f29a38b288acf0960a00000000001976a914e89a53acf6faddca94fdb648d54b60bdcaf81a5788ac484d0600000000001976a914b545b3210244e83d1c1cf516e51f6886ffe69e2a88ac88840200000000001976a914f3a697dcce79e898b08ec842b3e274e92a19e47888ac38b50300000000001976a91457ffece26536fbc3d48a615ced7509b415e622e688ac61623b0c000000001976a9145ac0041a75ecd633cfdd15b6ebe0f7f24c38e64088ac00000000", "vin": [{"sequence": 4294967295, "scriptSig": {"hex": "47304402203093db00f2db90edf6dbfb1549f655675598805d7d5baa21600d5d9c610cbfc702201952c1777e32f3db73f190e43b28dc28e5ded52f6f76b57ebd01f0335c73ac4701210319891b4582fcaa3bf030ae7be9ba33955b93dd16cc12ac0572531c82a73aa891", "asm": "304402203093db00f2db90edf6dbfb1549f655675598805d7d5baa21600d5d9c610cbfc702201952c1777e32f3db73f190e43b28dc28e5ded52f6f76b57ebd01f0335c73ac47[ALL] 0319891b4582fcaa3bf030ae7be9ba33955b93dd16cc12ac0572531c82a73aa891"}, "vout": 10, "txid": "f6eb69bf176161c7243676d8fc54faa369dd6d8dec9e219a1c972be73019938f"}], "txid": "95953fbbd26d1dd8023c84412df621b08063409eec9d0d389c6fcdb90f0989f7", "blocktime": 1537874412, "version": 1, "confirmations": 11467, "time": 1537874412, "locktime": 0, "vsize": 563, "size": 563}