{"hash": "959717b544a56af24432f468336612d408c1f6a979a2d506e86a3a99b65ff5fb", "blockhash": "0000000000000000001f76057863aec43deb6fa401d9628bb513d65a8098bfab", "vout": [{"scriptPubKey": {"reqSigs": 1, "hex": "a914a77031f280e28770c589ea6d68240b33959de75687", "addresses": ["3GxMB2pExqH1ERxTRw9VerdcDN7eT6kdMo"], "asm": "OP_HASH160 a77031f280e28770c589ea6d68240b33959de756 OP_EQUAL", "type": "scripthash"}, "value": 0.01098, "n": 0}], "hex": "0100000003b1e0cc15b34e1dab29ce5bd192bbc3f1f56e6bb80c0be9df09492f32134f120a000000006a473044022079b72d05b388f723a899aef164d1e571aa4652fb60b42dabeaf33bc1d7b4a6b802202457272972f5654ec0f250bc1e2f8a963890d7590f8fef89cda6b71ef6088738012103c3d8433f8246d85ae641ed893b7ee499b53df9a64eb8061d6e9f1d65eba80411ffffffffeeb4973efe85d59d8c584588a99d883ad76d83aca7ff99d1075f1c40a6b9c571000000006b483045022100fa2c7e723ee842cee50f8f0b946e4f6d7035e3b8af6b563937a2891f37ad1961022038f5cbdc89ab29631e726d2d3345f88a663f1c63b9bb87c1f03325d23ef61b0c0121037ebcd0babf29d84c1dfb95fb0a6db52e0a01ded5848f253c4488956324cf4173ffffffff9572e33f0f426432b1735951c118a1b5d14619694442a33c88d27775625696b1000000006a4730440220026c4f2f25202e956d2fa0e043df726b267f36014327f98b13314bd29616e93f022072fa343aff4dbd69d4a9ba26f1d10428344ba078ae687adc079e307c08eeb588012103b86297a0a0f26668574b65e1901faa7a52ed3745b0732ba8cbb1a5587c25ea92ffffffff0110c110000000000017a914a77031f280e28770c589ea6d68240b33959de7568700000000", "vin": [{"sequence": 4294967295, "scriptSig": {"hex": "473044022079b72d05b388f723a899aef164d1e571aa4652fb60b42dabeaf33bc1d7b4a6b802202457272972f5654ec0f250bc1e2f8a963890d7590f8fef89cda6b71ef6088738012103c3d8433f8246d85ae641ed893b7ee499b53df9a64eb8061d6e9f1d65eba80411", "asm": "3044022079b72d05b388f723a899aef164d1e571aa4652fb60b42dabeaf33bc1d7b4a6b802202457272972f5654ec0f250bc1e2f8a963890d7590f8fef89cda6b71ef6088738[ALL] 03c3d8433f8246d85ae641ed893b7ee499b53df9a64eb8061d6e9f1d65eba80411"}, "vout": 0, "txid": "0a124f13322f4909dfe90b0cb86b6ef5f1c3bb92d15bce29ab1d4eb315cce0b1"}, {"sequence": 4294967295, "scriptSig": {"hex": "483045022100fa2c7e723ee842cee50f8f0b946e4f6d7035e3b8af6b563937a2891f37ad1961022038f5cbdc89ab29631e726d2d3345f88a663f1c63b9bb87c1f03325d23ef61b0c0121037ebcd0babf29d84c1dfb95fb0a6db52e0a01ded5848f253c4488956324cf4173", "asm": "3045022100fa2c7e723ee842cee50f8f0b946e4f6d7035e3b8af6b563937a2891f37ad1961022038f5cbdc89ab29631e726d2d3345f88a663f1c63b9bb87c1f03325d23ef61b0c[ALL] 037ebcd0babf29d84c1dfb95fb0a6db52e0a01ded5848f253c4488956324cf4173"}, "vout": 0, "txid": "71c5b9a6401c5f07d199ffa7ac836dd73a889da98845588c9dd585fe3e97b4ee"}, {"sequence": 4294967295, "scriptSig": {"hex": "4730440220026c4f2f25202e956d2fa0e043df726b267f36014327f98b13314bd29616e93f022072fa343aff4dbd69d4a9ba26f1d10428344ba078ae687adc079e307c08eeb588012103b86297a0a0f26668574b65e1901faa7a52ed3745b0732ba8cbb1a5587c25ea92", "asm": "30440220026c4f2f25202e956d2fa0e043df726b267f36014327f98b13314bd29616e93f022072fa343aff4dbd69d4a9ba26f1d10428344ba078ae687adc079e307c08eeb588[ALL] 03b86297a0a0f26668574b65e1901faa7a52ed3745b0732ba8cbb1a5587c25ea92"}, "vout": 0, "txid": "b19656627577d2883ca34244691946d1b5a118c1515973b13264420f3fe37295"}], "txid": "959717b544a56af24432f468336612d408c1f6a979a2d506e86a3a99b65ff5fb", "blocktime": 1537873891, "version": 1, "confirmations": 11478, "time": 1537873891, "locktime": 0, "vsize": 484, "size": 484}