{"hash": "95982dbbb8c0bf8ac44afaf254e8e1f153898df8528207fd480a15452cde9487", "blockhash": "00000000000000000004ffacab907a6b429b9a5745fa0b75af4234bf69dd7176", "vout": [{"scriptPubKey": {"reqSigs": 1, "hex": "76a914bf1c494bde8732b6157441d94ceb73fa3be8c1dd88ac", "addresses": ["1JRVx1R5Mzq7TavXV2nmL8FpZUoEwo2DfW"], "asm": "OP_DUP OP_HASH160 bf1c494bde8732b6157441d94ceb73fa3be8c1dd OP_EQUALVERIFY OP_CHECKSIG", "type": "pubkeyhash"}, "value": 1.0, "n": 0}, {"scriptPubKey": {"reqSigs": 1, "hex": "76a914822159221bc61a0288d1061785823cc414289aac88ac", "addresses": ["1Cs4o1aHEhvwfJ6DswXGNZTtFhhrXHY51e"], "asm": "OP_DUP OP_HASH160 822159221bc61a0288d1061785823cc414289aac OP_EQUALVERIFY OP_CHECKSIG", "type": "pubkeyhash"}, "value": 0.39996, "n": 1}], "hex": "01000000019edf152109971bb6c9f5d139bb8ace3a41f3363aa5d0ef5cb006a75123bae827000000006a473044022055bb46dbab7035421551c35923f8ce1d6661a038902931cbcf32c5b3fdd18d9802203911e7dd6751f3031ed4861ab80a8a4c0e347e2119d5146cc23a1aec8514ef7c012103c02bbf04d88aa7f777241f33c49fe8ec57e4724ef9ea78095dac580a70cdaba7ffffffff0200e1f505000000001976a914bf1c494bde8732b6157441d94ceb73fa3be8c1dd88ac604a6202000000001976a914822159221bc61a0288d1061785823cc414289aac88ac00000000", "vin": [{"sequence": 4294967295, "scriptSig": {"hex": "473044022055bb46dbab7035421551c35923f8ce1d6661a038902931cbcf32c5b3fdd18d9802203911e7dd6751f3031ed4861ab80a8a4c0e347e2119d5146cc23a1aec8514ef7c012103c02bbf04d88aa7f777241f33c49fe8ec57e4724ef9ea78095dac580a70cdaba7", "asm": "3044022055bb46dbab7035421551c35923f8ce1d6661a038902931cbcf32c5b3fdd18d9802203911e7dd6751f3031ed4861ab80a8a4c0e347e2119d5146cc23a1aec8514ef7c[ALL] 03c02bbf04d88aa7f777241f33c49fe8ec57e4724ef9ea78095dac580a70cdaba7"}, "vout": 0, "txid": "27e8ba2351a706b05cefd0a53a36f3413ace8abb39d1f5c9b61b97092115df9e"}], "txid": "95982dbbb8c0bf8ac44afaf254e8e1f153898df8528207fd480a15452cde9487", "blocktime": 1537875543, "version": 1, "confirmations": 11464, "time": 1537875543, "locktime": 0, "vsize": 225, "size": 225}