{"hash": "9598dc9b9b6a295e82b8ef2d2a52d6f1b0a1f40f6e08044369180bc09c61bdfc", "blockhash": "0000000000000000000dcc0f55137456b1a82d3642486a52398922ac4d620174", "vout": [{"scriptPubKey": {"reqSigs": 1, "hex": "76a91455b2da9099889149f45375e33126830c443f10a888ac", "addresses": ["18p8hHS46dgm43icZkYcBNF1yhUpsDbWUL"], "asm": "OP_DUP OP_HASH160 55b2da9099889149f45375e33126830c443f10a8 OP_EQUALVERIFY OP_CHECKSIG", "type": "pubkeyhash"}, "value": 0.00648746, "n": 0}, {"scriptPubKey": {"type": "nulldata", "hex": "6a4c500000776b000177f8f35dee0fd5696a71a70386aeaeacb577c031fc3a016b46dc7dc7d0961d4bb8387fa775beb3700d9f6d26550a5baa086c0613b9a1dfdf035a1d100759d4ba30d2c37bb011d97e02cf", "asm": "OP_RETURN 0000776b000177f8f35dee0fd5696a71a70386aeaeacb577c031fc3a016b46dc7dc7d0961d4bb8387fa775beb3700d9f6d26550a5baa086c0613b9a1dfdf035a1d100759d4ba30d2c37bb011d97e02cf"}, "value": 0.0, "n": 1}], "hex": "0100000001ebf4084ea4bb0871ef0cff673002c22dfae9ff71fe4d779d2250776a18196006000000006b4830450221008f6945cbd69ab41076a1fa4096615d645539f2342049c635042c181d883ac8c902200ea2e5bb155b9ce63299f9526db013229756e5558f107bca857b721197cb41f1012102b8797431ed1e54e7cde68c843c3bf00cb7591916decd92195d0648191c1ea8c7ffffffff022ae60900000000001976a91455b2da9099889149f45375e33126830c443f10a888ac0000000000000000536a4c500000776b000177f8f35dee0fd5696a71a70386aeaeacb577c031fc3a016b46dc7dc7d0961d4bb8387fa775beb3700d9f6d26550a5baa086c0613b9a1dfdf035a1d100759d4ba30d2c37bb011d97e02cf00000000", "vin": [{"sequence": 4294967295, "scriptSig": {"hex": "4830450221008f6945cbd69ab41076a1fa4096615d645539f2342049c635042c181d883ac8c902200ea2e5bb155b9ce63299f9526db013229756e5558f107bca857b721197cb41f1012102b8797431ed1e54e7cde68c843c3bf00cb7591916decd92195d0648191c1ea8c7", "asm": "30450221008f6945cbd69ab41076a1fa4096615d645539f2342049c635042c181d883ac8c902200ea2e5bb155b9ce63299f9526db013229756e5558f107bca857b721197cb41f1[ALL] 02b8797431ed1e54e7cde68c843c3bf00cb7591916decd92195d0648191c1ea8c7"}, "vout": 0, "txid": "066019186a7750229d774dfe71ffe9fa2dc2023067ff0cef7108bba44e08f4eb"}], "txid": "9598dc9b9b6a295e82b8ef2d2a52d6f1b0a1f40f6e08044369180bc09c61bdfc", "blocktime": 1537870268, "version": 1, "confirmations": 11518, "time": 1537870268, "locktime": 0, "vsize": 284, "size": 284}