{"hash": "959906f450ceac2c857dd68bfb05a9f5735cda61d3a25f4d20b3ea6d2bed1441", "blockhash": "0000000000000000001f0ddff1eddb255c1121bcd4da4f1bc9a0da00cae72433", "vout": [{"scriptPubKey": {"reqSigs": 1, "hex": "76a9141525912549e3af0664783877ed13fa511b297d5588ac", "addresses": ["12vpCECmq934ybKURjb6mLDLuC9MBtB2Wi"], "asm": "OP_DUP OP_HASH160 1525912549e3af0664783877ed13fa511b297d55 OP_EQUALVERIFY OP_CHECKSIG", "type": "pubkeyhash"}, "value": 0.078115, "n": 0}, {"scriptPubKey": {"reqSigs": 1, "hex": "76a914f06dab96e3f4520bfbd0fec1ef6ff482ed16b96488ac", "addresses": ["1NvGZ4g3Akd51mrjT83ytuNS2yNseEesZQ"], "asm": "OP_DUP OP_HASH160 f06dab96e3f4520bfbd0fec1ef6ff482ed16b964 OP_EQUALVERIFY OP_CHECKSIG", "type": "pubkeyhash"}, "value": 0.78660146, "n": 1}], "hex": "01000000018259de25af287a9e02ad6391522b9e0e1ef9e1ecc68e7415e49330e3c6cea336010000006a47304402200f48478fef35c5401b0e9694103043ed48bb376debfc2b7e3c6c6e7219a8e97602207e617e3c7c7e1a6ede23a5f3ccfc935a798542700921018d6fe35fa1a842b5ce012103d2cb56b72c6945b711a269b87b6b2aee09fcfb02a15277547e700db05630b476ffffffff02ac317700000000001976a9141525912549e3af0664783877ed13fa511b297d5588ac3242b004000000001976a914f06dab96e3f4520bfbd0fec1ef6ff482ed16b96488ac00000000", "vin": [{"sequence": 4294967295, "scriptSig": {"hex": "47304402200f48478fef35c5401b0e9694103043ed48bb376debfc2b7e3c6c6e7219a8e97602207e617e3c7c7e1a6ede23a5f3ccfc935a798542700921018d6fe35fa1a842b5ce012103d2cb56b72c6945b711a269b87b6b2aee09fcfb02a15277547e700db05630b476", "asm": "304402200f48478fef35c5401b0e9694103043ed48bb376debfc2b7e3c6c6e7219a8e97602207e617e3c7c7e1a6ede23a5f3ccfc935a798542700921018d6fe35fa1a842b5ce[ALL] 03d2cb56b72c6945b711a269b87b6b2aee09fcfb02a15277547e700db05630b476"}, "vout": 1, "txid": "36a3cec6e33093e415748ec6ece1f91e0e9e2b529163ad029e7a28af25de5982"}], "txid": "959906f450ceac2c857dd68bfb05a9f5735cda61d3a25f4d20b3ea6d2bed1441", "blocktime": 1537872018, "version": 1, "confirmations": 11489, "time": 1537872018, "locktime": 0, "vsize": 225, "size": 225}