{"hash": "15e222881d24c22c7a822a49b446c731dfc4fa5a1f0918d6aaaec750761e66f3", "blockhash": "00000000000000000017f5eb5941039fbcee6240d03bc1f2f8e35350df66a1d8", "vout": [{"scriptPubKey": {"reqSigs": 1, "hex": "a9143654458181f925886a341e616a9d3e253b189ee587", "addresses": ["36eHNBwzsCrCRD1VGmCZrBv2GgY66BkpvR"], "asm": "OP_HASH160 3654458181f925886a341e616a9d3e253b189ee5 OP_EQUAL", "type": "scripthash"}, "value": 0.00010782, "n": 0}, {"scriptPubKey": {"reqSigs": 1, "hex": "a91408c364340a91e77e4376b26fdad3b5aedc5661f787", "addresses": ["32VMQ7Th4qGhbDYY68FZrfSF9hTbsPivgt"], "asm": "OP_HASH160 08c364340a91e77e4376b26fdad3b5aedc5661f7 OP_EQUAL", "type": "scripthash"}, "value": 0.02635448, "n": 1}], "hex": "01000000000101c7654661af079e3bb47480d72362759c5a42b61e9b2d6779a0bfc6e256a4e95b010000002322002027561ef61439ff4994ea3793249bbb358319edb59fff63c1eeada48f299e81b5ffffffff021e2a00000000000017a9143654458181f925886a341e616a9d3e253b189ee587b83628000000000017a91408c364340a91e77e4376b26fdad3b5aedc5661f7870400483045022100ff6e8f367df1b958495b39d85b8dd33cbbcfc7f2badef9424c201e8ddff9fc4b0220240d6cc7e14b50cf0f641cc277c678745300aacc03d5f644da0dddc1577f96e701483045022100a1e0551b21490c4cee35e826dc309b00049b0fcbc8a2ade711a19841346a415602206ab2657c3dd38e68bdc931e04293f39244e4dd1f6031403397d56dd1370075ca0147522102f484437eae67e7d1f9cf7235bd52510c99f379408a1f6fe737011d4bc259358a2103871fc2ca08e6950b38867e8e6a0e94ee625223d3aa0df5c65f414c6d784467e252ae00000000", "vin": [{"txinwitness": ["", "3045022100ff6e8f367df1b958495b39d85b8dd33cbbcfc7f2badef9424c201e8ddff9fc4b0220240d6cc7e14b50cf0f641cc277c678745300aacc03d5f644da0dddc1577f96e701", "3045022100a1e0551b21490c4cee35e826dc309b00049b0fcbc8a2ade711a19841346a415602206ab2657c3dd38e68bdc931e04293f39244e4dd1f6031403397d56dd1370075ca01", "522102f484437eae67e7d1f9cf7235bd52510c99f379408a1f6fe737011d4bc259358a2103871fc2ca08e6950b38867e8e6a0e94ee625223d3aa0df5c65f414c6d784467e252ae"], "sequence": 4294967295, "scriptSig": {"hex": "22002027561ef61439ff4994ea3793249bbb358319edb59fff63c1eeada48f299e81b5", "asm": "002027561ef61439ff4994ea3793249bbb358319edb59fff63c1eeada48f299e81b5"}, "vout": 1, "txid": "5be9a456e2c6bfa079672d9b1eb6425a9c756223d78074b43b9e07af614665c7"}], "txid": "959bd0b3b87d8cd9006b56cb5e0a58f983d46252d3fd9dc86bdd1fda116f3077", "blocktime": 1537874412, "version": 1, "confirmations": 11468, "time": 1537874412, "locktime": 0, "vsize": 206, "size": 372}