{"hash": "959f3fba1191788d680050cb87ab5a3d286624cd51fe6f02267867f1a416e097", "blockhash": "00000000000000000018f53835495a110e01622372bf6ae95dc86f2b0ab887b0", "vout": [{"scriptPubKey": {"reqSigs": 1, "hex": "76a914f5fcd7183e3d1fc079caa957ed5ecb1293d68d5c88ac", "addresses": ["1PRfSeP2pHBm8eBppQGWYJRM6qUSFCwkzr"], "asm": "OP_DUP OP_HASH160 f5fcd7183e3d1fc079caa957ed5ecb1293d68d5c OP_EQUALVERIFY OP_CHECKSIG", "type": "pubkeyhash"}, "value": 0.022418, "n": 0}, {"scriptPubKey": {"type": "nulldata", "hex": "6a4c500000778600012f061448616686459b63732dbcbefa6b8351586b4e86aeaeacb577c031fc8103ac2eb340c5c4766774c5a44536ff5baa0b59061431619b2703debc9a9526289ac0f6612cd74e33776ee4", "asm": "OP_RETURN 0000778600012f061448616686459b63732dbcbefa6b8351586b4e86aeaeacb577c031fc8103ac2eb340c5c4766774c5a44536ff5baa0b59061431619b2703debc9a9526289ac0f6612cd74e33776ee4"}, "value": 0.0, "n": 1}], "hex": "0100000001e1fc037fa7ed885df777490755bbf9df771d02907ebbfeeedfae3bf701297342000000006b483045022100b0bf4a0104f2fb6c81afd6b322de76620b0ecb76f87b400fb89021dc661592200220293c0f3f913dbc9ead845d630f70b4fe98edfac2eabf4beba12a708f5b087458012102237e3d7a7bc05960e78b14ce666e606361b14e21ebd4c74ebee8ec880adaeba8ffffffff0208352200000000001976a914f5fcd7183e3d1fc079caa957ed5ecb1293d68d5c88ac0000000000000000536a4c500000778600012f061448616686459b63732dbcbefa6b8351586b4e86aeaeacb577c031fc8103ac2eb340c5c4766774c5a44536ff5baa0b59061431619b2703debc9a9526289ac0f6612cd74e33776ee400000000", "vin": [{"sequence": 4294967295, "scriptSig": {"hex": "483045022100b0bf4a0104f2fb6c81afd6b322de76620b0ecb76f87b400fb89021dc661592200220293c0f3f913dbc9ead845d630f70b4fe98edfac2eabf4beba12a708f5b087458012102237e3d7a7bc05960e78b14ce666e606361b14e21ebd4c74ebee8ec880adaeba8", "asm": "3045022100b0bf4a0104f2fb6c81afd6b322de76620b0ecb76f87b400fb89021dc661592200220293c0f3f913dbc9ead845d630f70b4fe98edfac2eabf4beba12a708f5b087458[ALL] 02237e3d7a7bc05960e78b14ce666e606361b14e21ebd4c74ebee8ec880adaeba8"}, "vout": 0, "txid": "42732901f73baedfeefebb7e90021d77dff9bb55074977f75d88eda77f03fce1"}], "txid": "959f3fba1191788d680050cb87ab5a3d286624cd51fe6f02267867f1a416e097", "blocktime": 1537870928, "version": 1, "confirmations": 11512, "time": 1537870928, "locktime": 0, "vsize": 284, "size": 284}