{"hash": "95a3e512014eede39e80a27cfc405ec2d4e690329a4899c55593cab9e4aa3ea9", "blockhash": "0000000000000000001e0dab787dd257d1dbfcb92a98c2207d5e1078be1f4165", "vout": [{"scriptPubKey": {"reqSigs": 1, "hex": "76a914a25dec4d0011064ef106a983c39c7a540699f22088ac", "addresses": ["1FoWyxwPXuj4C6abqwhjDWdz6D4PZgYRjA"], "asm": "OP_DUP OP_HASH160 a25dec4d0011064ef106a983c39c7a540699f220 OP_EQUALVERIFY OP_CHECKSIG", "type": "pubkeyhash"}, "value": 0.01995188, "n": 0}, {"scriptPubKey": {"type": "nulldata", "hex": "6a146f6d6e69000000000000001f0000001794d10757", "asm": "OP_RETURN 6f6d6e69000000000000001f0000001794d10757"}, "value": 0.0, "n": 1}, {"scriptPubKey": {"reqSigs": 1, "hex": "76a914a0c16fd085c4a4556603ae2b7fbfa59a67ed1b5188ac", "addresses": ["1Fezqv7GMTY6LBUzELkFvssYy66hJekQBt"], "asm": "OP_DUP OP_HASH160 a0c16fd085c4a4556603ae2b7fbfa59a67ed1b51 OP_EQUALVERIFY OP_CHECKSIG", "type": "pubkeyhash"}, "value": 5.46e-06, "n": 2}], "hex": "0100000001a44813c76173a4fe9689194c29809e35be05f1741d9b5e1e9e8bd44070ac1fea750000006a473044022017e66259746a6f5bc01c442080228533568ee911a71a75112aa0b8f73153837f02204da2c48772d14ea00cf3b22c88dbcc24986bb62a16c26460870334201bd13eb9012103da5bac7b36d5aa38f531c6b9601e21bb598a4b6716ebed38b009a55dabde9440feffffff03b4711e00000000001976a914a25dec4d0011064ef106a983c39c7a540699f22088ac0000000000000000166a146f6d6e69000000000000001f0000001794d1075722020000000000001976a914a0c16fd085c4a4556603ae2b7fbfa59a67ed1b5188ac12490800", "vin": [{"sequence": 4294967294, "scriptSig": {"hex": "473044022017e66259746a6f5bc01c442080228533568ee911a71a75112aa0b8f73153837f02204da2c48772d14ea00cf3b22c88dbcc24986bb62a16c26460870334201bd13eb9012103da5bac7b36d5aa38f531c6b9601e21bb598a4b6716ebed38b009a55dabde9440", "asm": "3044022017e66259746a6f5bc01c442080228533568ee911a71a75112aa0b8f73153837f02204da2c48772d14ea00cf3b22c88dbcc24986bb62a16c26460870334201bd13eb9[ALL] 03da5bac7b36d5aa38f531c6b9601e21bb598a4b6716ebed38b009a55dabde9440"}, "vout": 117, "txid": "ea1fac7040d48b9e1e5e9b1d74f105be359e80294c198996fea47361c71348a4"}], "txid": "95a3e512014eede39e80a27cfc405ec2d4e690329a4899c55593cab9e4aa3ea9", "blocktime": 1537872475, "version": 1, "confirmations": 11486, "time": 1537872475, "locktime": 542994, "vsize": 256, "size": 256}