{"hash": "eeb2ef3dfba60f951ab2fa8e99deb83a8a0d1af1e2442392a2486b05a281d87b", "blockhash": "00000000000000000017f5eb5941039fbcee6240d03bc1f2f8e35350df66a1d8", "vout": [{"scriptPubKey": {"reqSigs": 1, "hex": "a91438a040385a7be92c7baded2a2629a3ee9cb40b7387", "addresses": ["36rRjiCjeedrboJqMvn3HmsVLK8mN6M8Bv"], "asm": "OP_HASH160 38a040385a7be92c7baded2a2629a3ee9cb40b73 OP_EQUAL", "type": "scripthash"}, "value": 0.01039109, "n": 0}, {"scriptPubKey": {"reqSigs": 1, "hex": "a9142786e0cac973c7a7b975b78a1439a0c769604d2087", "addresses": ["35J1rX5bZtZVpfovSkRT9bsRoWQNdsdvkR"], "asm": "OP_HASH160 2786e0cac973c7a7b975b78a1439a0c769604d20 OP_EQUAL", "type": "scripthash"}, "value": 0.00248921, "n": 1}], "hex": "0200000000010263a59247bf448697908e8e400ab2611c02668bc25d1853e0fbc8d12952864eca0700000017160014e1ac8f63098cca1b5bdd14d4594a045891f24b88feffffffb46b8989dc06a6c39bce8f0c459584491cc45140c26c1c728688deaae3820df30000000017160014f4ef3e149318a343c8ffd0cdaef923b12d27ccd3feffffff0205db0f000000000017a91438a040385a7be92c7baded2a2629a3ee9cb40b738759cc03000000000017a9142786e0cac973c7a7b975b78a1439a0c769604d20870247304402202ee40dcfa52708e2b16e180a6d3d47714f24292ff145e82e5075f860705c74ba02201bb06208e8332434e8554c341a17c5493d813ec282b1c7d3e0075b7930f04bf40121029068225da4aaaa2fe5c7ade71e2a2f4de7bffd0fb4e9a98abdff712d5e3d6d1502483045022100e8fed8ae56ef96d59f07479ab1c64810057e0e42f93fba2898f310da27b16379022038ee9ed592e0f4f9749504688c4643b775fd358dbbfee0b7da904fa801b404710121025f3cb90320a61be019465a690081d937d17f3a13aa506c9673446fd5122564fb15490800", "vin": [{"txinwitness": ["304402202ee40dcfa52708e2b16e180a6d3d47714f24292ff145e82e5075f860705c74ba02201bb06208e8332434e8554c341a17c5493d813ec282b1c7d3e0075b7930f04bf401", "029068225da4aaaa2fe5c7ade71e2a2f4de7bffd0fb4e9a98abdff712d5e3d6d15"], "sequence": 4294967294, "scriptSig": {"hex": "160014e1ac8f63098cca1b5bdd14d4594a045891f24b88", "asm": "0014e1ac8f63098cca1b5bdd14d4594a045891f24b88"}, "vout": 7, "txid": "ca4e865229d1c8fbe053185dc28b66021c61b20a408e8e90978644bf4792a563"}, {"txinwitness": ["3045022100e8fed8ae56ef96d59f07479ab1c64810057e0e42f93fba2898f310da27b16379022038ee9ed592e0f4f9749504688c4643b775fd358dbbfee0b7da904fa801b4047101", "025f3cb90320a61be019465a690081d937d17f3a13aa506c9673446fd5122564fb"], "sequence": 4294967294, "scriptSig": {"hex": "160014f4ef3e149318a343c8ffd0cdaef923b12d27ccd3", "asm": "0014f4ef3e149318a343c8ffd0cdaef923b12d27ccd3"}, "vout": 0, "txid": "f30d82e3aade8886721c6cc24051c41c498495450c8fce9bc3a606dc89896bb4"}], "txid": "95a4e3dbd647940515bc7d064226d6632ba90f94b01b1844b6a86b8bb770f8b1", "blocktime": 1537874412, "version": 2, "confirmations": 11468, "time": 1537874412, "locktime": 542997, "vsize": 257, "size": 419}