{"hash": "95a714f34b591e2bbb5edc548903f2792960b202d957f3ddc7690a51439effc6", "blockhash": "0000000000000000001f0ddff1eddb255c1121bcd4da4f1bc9a0da00cae72433", "vout": [{"scriptPubKey": {"reqSigs": 1, "hex": "a9141f85e17f998fa22fdc6c4e55606ac9d61de8711d87", "addresses": ["34ZhFhH7LUves3Z1FnKDuoPLwfPySbLUcT"], "asm": "OP_HASH160 1f85e17f998fa22fdc6c4e55606ac9d61de8711d OP_EQUAL", "type": "scripthash"}, "value": 0.00044, "n": 0}, {"scriptPubKey": {"reqSigs": 1, "hex": "76a9147c6acc34ae42838ee3e01173976dc4078c87e8ac88ac", "addresses": ["1CLrjDkN5xtKUJ3C7gGJiXDBoR9TSs3YMp"], "asm": "OP_DUP OP_HASH160 7c6acc34ae42838ee3e01173976dc4078c87e8ac OP_EQUALVERIFY OP_CHECKSIG", "type": "pubkeyhash"}, "value": 0.01680904, "n": 1}], "hex": "01000000016e152e11620cfc2341471c6cbb982d2f63656376dc753fa3b7d8993d9fc258c6010000006a47304402201cc4ea577712c581d02ca568edfa0482884e0c035d2696c4454eb54621c5d01f02202eb1cb399c6bc06f910cf34fb219e3cd976bfed8b1dc42a05340ff705b35984601210333b0f1e42643f42eebfb4f90d523f1d7e3d84ec086c55fdc5034cbfaf4163bfaffffffff02e0ab00000000000017a9141f85e17f998fa22fdc6c4e55606ac9d61de8711d8708a61900000000001976a9147c6acc34ae42838ee3e01173976dc4078c87e8ac88ac00000000", "vin": [{"sequence": 4294967295, "scriptSig": {"hex": "47304402201cc4ea577712c581d02ca568edfa0482884e0c035d2696c4454eb54621c5d01f02202eb1cb399c6bc06f910cf34fb219e3cd976bfed8b1dc42a05340ff705b35984601210333b0f1e42643f42eebfb4f90d523f1d7e3d84ec086c55fdc5034cbfaf4163bfa", "asm": "304402201cc4ea577712c581d02ca568edfa0482884e0c035d2696c4454eb54621c5d01f02202eb1cb399c6bc06f910cf34fb219e3cd976bfed8b1dc42a05340ff705b359846[ALL] 0333b0f1e42643f42eebfb4f90d523f1d7e3d84ec086c55fdc5034cbfaf4163bfa"}, "vout": 1, "txid": "c658c29f3d99d8b7a33f75dc766365632f2d98bb6c1c474123fc0c62112e156e"}], "txid": "95a714f34b591e2bbb5edc548903f2792960b202d957f3ddc7690a51439effc6", "blocktime": 1537872018, "version": 1, "confirmations": 11489, "time": 1537872018, "locktime": 0, "vsize": 223, "size": 223}