{"hash": "95aad39dc8b14ca0f093afbdab0b7bae5b0fea944c951981484ffdc09dba5006", "blockhash": "0000000000000000001f0ddff1eddb255c1121bcd4da4f1bc9a0da00cae72433", "vout": [{"scriptPubKey": {"reqSigs": 1, "hex": "76a914d3acd7c5319aae08a02620b97c1cdacfbe5ab6a188ac", "addresses": ["1LJEdosevDDQBqppvKjcfk1cu25qcATQnY"], "asm": "OP_DUP OP_HASH160 d3acd7c5319aae08a02620b97c1cdacfbe5ab6a1 OP_EQUALVERIFY OP_CHECKSIG", "type": "pubkeyhash"}, "value": 0.00013974, "n": 0}, {"scriptPubKey": {"reqSigs": 1, "hex": "76a914d4dfec84f95528e2448830acbe7822d6c95600b888ac", "addresses": ["1LQaWB5C1qBWqPEovjw6cVnbiqB5yQQop6"], "asm": "OP_DUP OP_HASH160 d4dfec84f95528e2448830acbe7822d6c95600b8 OP_EQUALVERIFY OP_CHECKSIG", "type": "pubkeyhash"}, "value": 0.041, "n": 1}], "hex": "01000000040d43ff3feb0bb46fb0f963378cdc9b8599af8051c78bcb871eae370119b1ac06010000006b48304502210099329b032345af3dba0e5dd8e0564594cd5ee7719b89e09b3819bc2706e2686c0220480e0c771fda7903e329a96e0bace78ac6b9deca300a0a8faedf0badef05558b0121035bb6bd33cbb57926beef9591454ec48798228b0ff8d12e6ece1704ed7c3937e9ffffffffc836c3e170576bbac797cb4b109b5a32d5aa62499fdc36920ade5e3940a46763000000006a473044022050bdc318c7b71618ae70429c7af36601abcab7fa2716b0910222f1d713bd8a5c0220084b7b583ef79e848faeb7559de523b5a7d8f44c2b9fc5aff8fede32fcd69f79012102f7e621aa630857dcbca0d5a97086463669154954cf316d5edbac8ba2704c29b1ffffffff4351018182157e1805080e00b9e36ebc36853618d7add6ddcf379414da7fd3bc000000006a473044022051ea843a5a258eff54b94e4e41e3f2da357f2377bacc1a0dc8419b9a3e41a1c802202d876c8eaf7dfcd9181e0a1f98cab2c1c530707ecf3a27e0a0ff4107b6b0d23e01210238b5acabe689f2dd2c5b3cc106b0f647933798ab40fdb85a88984e1400703009ffffffff499807feef9b9f1cdfc97586c70193c49bd4654a3b2b482f9e929beaf24299fc010000006b483045022100be3a203d3c78bf4f309d63065a4c4285f80220c8c175759a070b5ef31974e8df02207a54134b92d6606fcdfefc374bab1c5e20a563cfa6bff3d28769ef1a36d819de0121035bb6bd33cbb57926beef9591454ec48798228b0ff8d12e6ece1704ed7c3937e9ffffffff0296360000000000001976a914d3acd7c5319aae08a02620b97c1cdacfbe5ab6a188aca08f3e00000000001976a914d4dfec84f95528e2448830acbe7822d6c95600b888ac00000000", "vin": [{"sequence": 4294967295, "scriptSig": {"hex": "48304502210099329b032345af3dba0e5dd8e0564594cd5ee7719b89e09b3819bc2706e2686c0220480e0c771fda7903e329a96e0bace78ac6b9deca300a0a8faedf0badef05558b0121035bb6bd33cbb57926beef9591454ec48798228b0ff8d12e6ece1704ed7c3937e9", "asm": "304502210099329b032345af3dba0e5dd8e0564594cd5ee7719b89e09b3819bc2706e2686c0220480e0c771fda7903e329a96e0bace78ac6b9deca300a0a8faedf0badef05558b[ALL] 035bb6bd33cbb57926beef9591454ec48798228b0ff8d12e6ece1704ed7c3937e9"}, "vout": 1, "txid": "06acb1190137ae1e87cb8bc75180af99859bdc8c3763f9b06fb40beb3fff430d"}, {"sequence": 4294967295, "scriptSig": {"hex": "473044022050bdc318c7b71618ae70429c7af36601abcab7fa2716b0910222f1d713bd8a5c0220084b7b583ef79e848faeb7559de523b5a7d8f44c2b9fc5aff8fede32fcd69f79012102f7e621aa630857dcbca0d5a97086463669154954cf316d5edbac8ba2704c29b1", "asm": "3044022050bdc318c7b71618ae70429c7af36601abcab7fa2716b0910222f1d713bd8a5c0220084b7b583ef79e848faeb7559de523b5a7d8f44c2b9fc5aff8fede32fcd69f79[ALL] 02f7e621aa630857dcbca0d5a97086463669154954cf316d5edbac8ba2704c29b1"}, "vout": 0, "txid": "6367a440395ede0a9236dc9f4962aad5325a9b104bcb97c7ba6b5770e1c336c8"}, {"sequence": 4294967295, "scriptSig": {"hex": "473044022051ea843a5a258eff54b94e4e41e3f2da357f2377bacc1a0dc8419b9a3e41a1c802202d876c8eaf7dfcd9181e0a1f98cab2c1c530707ecf3a27e0a0ff4107b6b0d23e01210238b5acabe689f2dd2c5b3cc106b0f647933798ab40fdb85a88984e1400703009", "asm": "3044022051ea843a5a258eff54b94e4e41e3f2da357f2377bacc1a0dc8419b9a3e41a1c802202d876c8eaf7dfcd9181e0a1f98cab2c1c530707ecf3a27e0a0ff4107b6b0d23e[ALL] 0238b5acabe689f2dd2c5b3cc106b0f647933798ab40fdb85a88984e1400703009"}, "vout": 0, "txid": "bcd37fda149437cfddd6add718368536bc6ee3b9000e0805187e158281015143"}, {"sequence": 4294967295, "scriptSig": {"hex": "483045022100be3a203d3c78bf4f309d63065a4c4285f80220c8c175759a070b5ef31974e8df02207a54134b92d6606fcdfefc374bab1c5e20a563cfa6bff3d28769ef1a36d819de0121035bb6bd33cbb57926beef9591454ec48798228b0ff8d12e6ece1704ed7c3937e9", "asm": "3045022100be3a203d3c78bf4f309d63065a4c4285f80220c8c175759a070b5ef31974e8df02207a54134b92d6606fcdfefc374bab1c5e20a563cfa6bff3d28769ef1a36d819de[ALL] 035bb6bd33cbb57926beef9591454ec48798228b0ff8d12e6ece1704ed7c3937e9"}, "vout": 1, "txid": "fc9942f2ea9b929e2f482b3b4a65d49bc49301c78675c9df1c9f9beffe079849"}], "txid": "95aad39dc8b14ca0f093afbdab0b7bae5b0fea944c951981484ffdc09dba5006", "blocktime": 1537872018, "version": 1, "confirmations": 11489, "time": 1537872018, "locktime": 0, "vsize": 668, "size": 668}