{"hash": "3000d9d1e7faa5c030a6c7b3b1bcf249eb15618cbcaea804b787c6828c9105c1", "blockhash": "0000000000000000000dcc0f55137456b1a82d3642486a52398922ac4d620174", "vout": [{"scriptPubKey": {"reqSigs": 1, "hex": "0014d3e5cae77f85d8fda5f5dda86b226ea0224cc6a2", "addresses": ["bc1q60ju4emlshv0mf04mk5xkgnw5q3ye34zgfekfj"], "asm": "0 d3e5cae77f85d8fda5f5dda86b226ea0224cc6a2", "type": "witness_v0_keyhash"}, "value": 1.157e-05, "n": 0}, {"scriptPubKey": {"reqSigs": 1, "hex": "a91469f374bbbdde3f7b7e0e46c0f8ebb0c0fa0c78e387", "addresses": ["3BMEXJd9CPsPU9fu34zk5U7qceooasSUym"], "asm": "OP_HASH160 69f374bbbdde3f7b7e0e46c0f8ebb0c0fa0c78e3 OP_EQUAL", "type": "scripthash"}, "value": 0.00193263, "n": 1}], "hex": "01000000000101179e6e62441a6e8ebe5a05f6077185c2f0e879568522b72eac2c7d023d6a446f5700000017160014ef2e2c23d000e7327df0588ac6822b7b7ede1a43ffffffff028504000000000000160014d3e5cae77f85d8fda5f5dda86b226ea0224cc6a2eff202000000000017a91469f374bbbdde3f7b7e0e46c0f8ebb0c0fa0c78e38702473044022012f95012dab882f6f9bd4ac99cebc97d3d6abee49f5867867e2216e4693cd4a8022058a85634283c29f706d9406ff661c8e6e1a9256d8ab79afa88cc78764364944c012103b07369073f6fd8e16808910c3287a42ac7c7e5983d006075b9f3276be29e468b00000000", "vin": [{"txinwitness": ["3044022012f95012dab882f6f9bd4ac99cebc97d3d6abee49f5867867e2216e4693cd4a8022058a85634283c29f706d9406ff661c8e6e1a9256d8ab79afa88cc78764364944c01", "03b07369073f6fd8e16808910c3287a42ac7c7e5983d006075b9f3276be29e468b"], "sequence": 4294967295, "scriptSig": {"hex": "160014ef2e2c23d000e7327df0588ac6822b7b7ede1a43", "asm": "0014ef2e2c23d000e7327df0588ac6822b7b7ede1a43"}, "vout": 87, "txid": "6f446a3d027d2cac2eb722855679e8f0c2857107f6055abe8e6e1a44626e9e17"}], "txid": "95aa24dc4f489147ebf7d386adc52122ded4fa38dc8c51676bdc5426c00cde70", "blocktime": 1537870268, "version": 1, "confirmations": 11518, "time": 1537870268, "locktime": 0, "vsize": 165, "size": 246}