{"hash": "d04327e246410dd4c5b5df1ae7ab06bd6af7f7f0dca97a71afc9170427375ccf", "blockhash": "0000000000000000000dcc0f55137456b1a82d3642486a52398922ac4d620174", "vout": [{"scriptPubKey": {"reqSigs": 1, "hex": "76a914fdb5dec2ae70530b21f100237d4a531b0358a7ff88ac", "addresses": ["1Q8Vq6QaM751RMVjyLyD8MLSu1AsX8v7HB"], "asm": "OP_DUP OP_HASH160 fdb5dec2ae70530b21f100237d4a531b0358a7ff OP_EQUALVERIFY OP_CHECKSIG", "type": "pubkeyhash"}, "value": 0.011489, "n": 0}, {"scriptPubKey": {"reqSigs": 1, "hex": "a9147007052becaa97d6378ea7da406af237c7ceefd587", "addresses": ["3BuN1oQX33ZJKiwtNA8WqfLG42KMEGjFK8"], "asm": "OP_HASH160 7007052becaa97d6378ea7da406af237c7ceefd5 OP_EQUAL", "type": "scripthash"}, "value": 0.0063476, "n": 1}], "hex": "02000000000101923d2aadef618e252f362d0d254cede946c23711e92518943e76008cca06191e010000001716001465f04809933a78cf257c1079676548f680de2595ffffffff02e4871100000000001976a914fdb5dec2ae70530b21f100237d4a531b0358a7ff88ac88af09000000000017a9147007052becaa97d6378ea7da406af237c7ceefd587024730440220781962ff3b2641363acada5750e3891e1d18bf7263d9b7f1d981c49ac658a0bf02203ac84a8a9ff5b4b12cc142015fe02224cf37d08a15ea33b986ca61ca4f841c2001210224018ea9f1fc213adc8176fdcdf0c866f0e0369b10101bfe86f2d8b5502a805f00000000", "vin": [{"txinwitness": ["30440220781962ff3b2641363acada5750e3891e1d18bf7263d9b7f1d981c49ac658a0bf02203ac84a8a9ff5b4b12cc142015fe02224cf37d08a15ea33b986ca61ca4f841c2001", "0224018ea9f1fc213adc8176fdcdf0c866f0e0369b10101bfe86f2d8b5502a805f"], "sequence": 4294967295, "scriptSig": {"hex": "16001465f04809933a78cf257c1079676548f680de2595", "asm": "001465f04809933a78cf257c1079676548f680de2595"}, "vout": 1, "txid": "1e1906ca8c00763e941825e91137c246e9ed4c250d2d362f258e61efad2a3d92"}], "txid": "95aa38c97c454fb1a845076b2fb532888f8462ac285d95ad41dc38ef7d7c66f1", "blocktime": 1537870268, "version": 2, "confirmations": 11516, "time": 1537870268, "locktime": 0, "vsize": 168, "size": 249}