{"hash": "59ae9a35e8f78501999e2b525d079677b0043d81e91363ff2aa70ea8f84d1f32", "blockhash": "0000000000000000001f76057863aec43deb6fa401d9628bb513d65a8098bfab", "vout": [{"scriptPubKey": {"reqSigs": 1, "hex": "a9146123efd69af5651e7120d8b227e0a20d822d56cd87", "addresses": ["3AYeX66ci6dGz6omNmdunxvDEiX5hAKa9A"], "asm": "OP_HASH160 6123efd69af5651e7120d8b227e0a20d822d56cd OP_EQUAL", "type": "scripthash"}, "value": 0.0520656, "n": 0}, {"scriptPubKey": {"reqSigs": 1, "hex": "a91409634a5ea996ba127ef7d744867cbee7bbc3ee5387", "addresses": ["32Yex6VqBMsXdPAzGi9vEbuJ5guaczmYPb"], "asm": "OP_HASH160 09634a5ea996ba127ef7d744867cbee7bbc3ee53 OP_EQUAL", "type": "scripthash"}, "value": 0.19547986, "n": 1}], "hex": "010000000001016f8dea00cc854f8435ea217040b8af61febdf184b8267544afc097f0b0acf2070100000023220020091471dfa0b5d70a4a84fdbb313a0375239e4cca7d77db08dc06e4c74156ce0bffffffff0220724f000000000017a9146123efd69af5651e7120d8b227e0a20d822d56cd8752472a010000000017a91409634a5ea996ba127ef7d744867cbee7bbc3ee5387040048304502210086c7c9c6628922ee1536c38f43fc8e02b9dcaac3a8419205d0089eb2b63c8caf02202e4cf1a3695d52a0d956006069f1bd79af356511c87f59af0fbd945889773e66014730440220601f429a8e582a081349c8e5451d1848eb786bb235da8a0636b04f9c56a803c402205362e8f319746aa475c86369e0537e1ee4b6780135f1e0b95bd0dc8732f3f6db016952210204728dca483801690a19baad26c99f8c8db46848c6d95cdf41944fa98eaff6482102ca9f90f6219e43777c32e7738a712d8071643af56d110e9d9be7f9f32ef53858210284d1a848907f3b305a7726a12e456ebbe99ff08bfb34ff09891285b2e98f484153ae15490800", "vin": [{"txinwitness": ["", "304502210086c7c9c6628922ee1536c38f43fc8e02b9dcaac3a8419205d0089eb2b63c8caf02202e4cf1a3695d52a0d956006069f1bd79af356511c87f59af0fbd945889773e6601", "30440220601f429a8e582a081349c8e5451d1848eb786bb235da8a0636b04f9c56a803c402205362e8f319746aa475c86369e0537e1ee4b6780135f1e0b95bd0dc8732f3f6db01", "52210204728dca483801690a19baad26c99f8c8db46848c6d95cdf41944fa98eaff6482102ca9f90f6219e43777c32e7738a712d8071643af56d110e9d9be7f9f32ef53858210284d1a848907f3b305a7726a12e456ebbe99ff08bfb34ff09891285b2e98f484153ae"], "sequence": 4294967295, "scriptSig": {"hex": "220020091471dfa0b5d70a4a84fdbb313a0375239e4cca7d77db08dc06e4c74156ce0b", "asm": "0020091471dfa0b5d70a4a84fdbb313a0375239e4cca7d77db08dc06e4c74156ce0b"}, "vout": 1, "txid": "07f2acb0f097c0af447526b884f1bdfe61afb8407021ea35844f85cc00ea8d6f"}], "txid": "95acd6a6583834b47e94e27ebf3fb7bc05ced869bc832bc3467a5c3e34820531", "blocktime": 1537873891, "version": 1, "confirmations": 11478, "time": 1537873891, "locktime": 542997, "vsize": 214, "size": 405}