{"hash": "95ae251d3c68738aa5dd4fa1ca3dce256437d957a2964ca5814f57b73d342b96", "blockhash": "0000000000000000001e0dab787dd257d1dbfcb92a98c2207d5e1078be1f4165", "vout": [{"scriptPubKey": {"reqSigs": 1, "hex": "76a9149949c6deedfaadc44c5e01dbb038d39b6b79e9b888ac", "addresses": ["1EyWmTNdD9i4rzx7JCwCpoHgA3pABvxMFA"], "asm": "OP_DUP OP_HASH160 9949c6deedfaadc44c5e01dbb038d39b6b79e9b8 OP_EQUALVERIFY OP_CHECKSIG", "type": "pubkeyhash"}, "value": 0.03, "n": 0}, {"scriptPubKey": {"reqSigs": 1, "hex": "76a914b97feab938e17a73129c5943908f9db4f317fad188ac", "addresses": ["1HuqFJyQxbFKTdUVyf7n6QhX1hXZ4ccz7h"], "asm": "OP_DUP OP_HASH160 b97feab938e17a73129c5943908f9db4f317fad1 OP_EQUALVERIFY OP_CHECKSIG", "type": "pubkeyhash"}, "value": 0.36350101, "n": 1}], "hex": "010000000154a986a2ace6c7f895a27bdf17991f8fc34d743d20fd2f2f258e8bc40a3e329e010000006b48304502210081cadad85ca60bf00c9a98731b7513ee91ef86cd3023d8247fb56577016ad48702203fe07c65f25c5d25088f0c05ad497646a848d0732e856b8c0999b74e8a9d0f1b0121037b406e710d09e5ea1c55b670e91ceb16bdb601f3b9540fac25a735e7aa6b704dffffffff02c0c62d00000000001976a9149949c6deedfaadc44c5e01dbb038d39b6b79e9b888ac95a82a02000000001976a914b97feab938e17a73129c5943908f9db4f317fad188ac00000000", "vin": [{"sequence": 4294967295, "scriptSig": {"hex": "48304502210081cadad85ca60bf00c9a98731b7513ee91ef86cd3023d8247fb56577016ad48702203fe07c65f25c5d25088f0c05ad497646a848d0732e856b8c0999b74e8a9d0f1b0121037b406e710d09e5ea1c55b670e91ceb16bdb601f3b9540fac25a735e7aa6b704d", "asm": "304502210081cadad85ca60bf00c9a98731b7513ee91ef86cd3023d8247fb56577016ad48702203fe07c65f25c5d25088f0c05ad497646a848d0732e856b8c0999b74e8a9d0f1b[ALL] 037b406e710d09e5ea1c55b670e91ceb16bdb601f3b9540fac25a735e7aa6b704d"}, "vout": 1, "txid": "9e323e0ac48b8e252f2ffd203d744dc38f1f9917df7ba295f8c7e6aca286a954"}], "txid": "95ae251d3c68738aa5dd4fa1ca3dce256437d957a2964ca5814f57b73d342b96", "blocktime": 1537872475, "version": 1, "confirmations": 11486, "time": 1537872475, "locktime": 0, "vsize": 226, "size": 226}