{"hash": "8b746cf09ffb79149fc6ff00fddd959816290b79d342b16ae8044d66fe41f37c", "blockhash": "0000000000000000001cda96e906b7601b7a6fb1a3b62bca570a9e5d8f4b3de1", "vout": [{"scriptPubKey": {"reqSigs": 1, "hex": "001429f68f114dcadd6656fdc3ed0fcbdd4d6e624bd8", "addresses": ["bc1q98mg7y2detwkv4hac0kslj7af4hxyj7c0dxmjs"], "asm": "0 29f68f114dcadd6656fdc3ed0fcbdd4d6e624bd8", "type": "witness_v0_keyhash"}, "value": 8.162e-05, "n": 0}, {"scriptPubKey": {"reqSigs": 1, "hex": "a9141abb3426d29d67f88e2aed980d3046a2d6feb15287", "addresses": ["348Mkg2SgFE6JqTyxHGTzSE2NukG5o9nJZ"], "asm": "OP_HASH160 1abb3426d29d67f88e2aed980d3046a2d6feb152 OP_EQUAL", "type": "scripthash"}, "value": 0.01446, "n": 1}], "hex": "0100000000010156942812a93de72016b50c2c1d0d089618c6d56de64594cc362caa07a7bc1fe30100000000ffffffff02e21f00000000000016001429f68f114dcadd6656fdc3ed0fcbdd4d6e624bd8701016000000000017a9141abb3426d29d67f88e2aed980d3046a2d6feb152870247304402200bf7cd25aaf7581e5576341a67159d4e3d81cff40af88e749e7dffafd58eb4ec022055689736474cc2d3b64c99e39ca68856eef5ff74dcfbd16a310840da58749fe5012103e83db16c7dd7034d1dce081cfdbb6c295c207b307dd0dec36590a1467e56b8e800000000", "vin": [{"txinwitness": ["304402200bf7cd25aaf7581e5576341a67159d4e3d81cff40af88e749e7dffafd58eb4ec022055689736474cc2d3b64c99e39ca68856eef5ff74dcfbd16a310840da58749fe501", "03e83db16c7dd7034d1dce081cfdbb6c295c207b307dd0dec36590a1467e56b8e8"], "sequence": 4294967295, "scriptSig": {"hex": "", "asm": ""}, "vout": 1, "txid": "e31fbca707aa2c36cc9445e66dd5c61896080d1d2c0cb51620e73da912289456"}], "txid": "95b2f4406d73e8bb08664b8faaf13a7289207fa03eb81dd6ec9e00b451da6899", "blocktime": 1537873282, "version": 1, "confirmations": 11484, "time": 1537873282, "locktime": 0, "vsize": 142, "size": 223}