{"hash": "95b4c556b1008965c721ff8bfbc9afb07a908165976540b98a227f5baea11b68", "blockhash": "0000000000000000000dcc0f55137456b1a82d3642486a52398922ac4d620174", "vout": [{"scriptPubKey": {"reqSigs": 1, "hex": "a9142778aca3291b67438650c86712dc2816e2c2090b87", "addresses": ["35HiqdKSJmkY9wRcUEVSajLa7AnmU551MJ"], "asm": "OP_HASH160 2778aca3291b67438650c86712dc2816e2c2090b OP_EQUAL", "type": "scripthash"}, "value": 0.03122907, "n": 0}, {"scriptPubKey": {"reqSigs": 1, "hex": "76a91464cc8608d715b9f35ae24bf66fa66cd376ce485f88ac", "addresses": ["1AByajLeiUnzMR5tH5n8UHP4d98mMZz3YM"], "asm": "OP_DUP OP_HASH160 64cc8608d715b9f35ae24bf66fa66cd376ce485f OP_EQUALVERIFY OP_CHECKSIG", "type": "pubkeyhash"}, "value": 0.01304413, "n": 1}], "hex": "01000000011286da17bb878d2fcdfb8e3fe53ca7a5b48956600511accf99b1c1c1e3a4318b010000006a47304402202bcbf0c23b0dca345571dafb653101624f82156d187d3624b376ac459aa4c65c022077a646591a151f3eb47c92df297d897aa23a4d83d9d827a56877cee3da3e198f0121023d7258376d05a40a6207b4f4a6ce3d58600c09b60b8655b5e2b20fab203e45bbffffffff02dba62f000000000017a9142778aca3291b67438650c86712dc2816e2c2090b875de71300000000001976a91464cc8608d715b9f35ae24bf66fa66cd376ce485f88ac00000000", "vin": [{"sequence": 4294967295, "scriptSig": {"hex": "47304402202bcbf0c23b0dca345571dafb653101624f82156d187d3624b376ac459aa4c65c022077a646591a151f3eb47c92df297d897aa23a4d83d9d827a56877cee3da3e198f0121023d7258376d05a40a6207b4f4a6ce3d58600c09b60b8655b5e2b20fab203e45bb", "asm": "304402202bcbf0c23b0dca345571dafb653101624f82156d187d3624b376ac459aa4c65c022077a646591a151f3eb47c92df297d897aa23a4d83d9d827a56877cee3da3e198f[ALL] 023d7258376d05a40a6207b4f4a6ce3d58600c09b60b8655b5e2b20fab203e45bb"}, "vout": 1, "txid": "8b31a4e3c1c1b199cfac1105605689b4a5a73ce53f8efbcd2f8d87bb17da8612"}], "txid": "95b4c556b1008965c721ff8bfbc9afb07a908165976540b98a227f5baea11b68", "blocktime": 1537870268, "version": 1, "confirmations": 11518, "time": 1537870268, "locktime": 0, "vsize": 223, "size": 223}