{"hash": "95b7a57e32501f095179c8007872bc706990b37952ff2b6db02fec457b6bfe9c", "blockhash": "00000000000000000024a2167bbff67b0be802c0b01cdd79e6331c2be6459f87", "vout": [{"scriptPubKey": {"reqSigs": 1, "hex": "76a91499e868c98fa24a2f36282e93678d7d95eab203cd88ac", "addresses": ["1F2noS7v7Fz6H7yfqbRLpgFTocfqtbp1Ft"], "asm": "OP_DUP OP_HASH160 99e868c98fa24a2f36282e93678d7d95eab203cd OP_EQUALVERIFY OP_CHECKSIG", "type": "pubkeyhash"}, "value": 0.0658996, "n": 0}, {"scriptPubKey": {"reqSigs": 1, "hex": "76a914d8ee599b56f840fbdde8ed5119100ea2da8922ed88ac", "addresses": ["1Ln2VHZaWEWtHz7hhEqjyE7tq7Y9jTQYKf"], "asm": "OP_DUP OP_HASH160 d8ee599b56f840fbdde8ed5119100ea2da8922ed OP_EQUALVERIFY OP_CHECKSIG", "type": "pubkeyhash"}, "value": 10.61418038, "n": 1}], "hex": "020000000190542f277df7e7175c289f35333c304dc213e655c0db867ffef33bd2ac1bbd4a010000006b483045022100a27e589d45be063020acaebdb6f628a0f9454eadc414a9f9280cda283997c737022034910e573acdc00da9c470e33b7a7d6c6e1973b9ab54bf712a7660444e980d59012102167cd344722c06ddd3539067c290f512ea2673fa8e9126047f6f10ed7978c1c4ffffffff02088e6400000000001976a91499e868c98fa24a2f36282e93678d7d95eab203cd88ac36f4433f000000001976a914d8ee599b56f840fbdde8ed5119100ea2da8922ed88ac00000000", "vin": [{"sequence": 4294967295, "scriptSig": {"hex": "483045022100a27e589d45be063020acaebdb6f628a0f9454eadc414a9f9280cda283997c737022034910e573acdc00da9c470e33b7a7d6c6e1973b9ab54bf712a7660444e980d59012102167cd344722c06ddd3539067c290f512ea2673fa8e9126047f6f10ed7978c1c4", "asm": "3045022100a27e589d45be063020acaebdb6f628a0f9454eadc414a9f9280cda283997c737022034910e573acdc00da9c470e33b7a7d6c6e1973b9ab54bf712a7660444e980d59[ALL] 02167cd344722c06ddd3539067c290f512ea2673fa8e9126047f6f10ed7978c1c4"}, "vout": 1, "txid": "4abd1bacd23bf3fe7f86dbc055e613c24d303c33359f285c17e7f77d272f5490"}], "txid": "95b7a57e32501f095179c8007872bc706990b37952ff2b6db02fec457b6bfe9c", "blocktime": 1537870564, "version": 2, "confirmations": 11515, "time": 1537870564, "locktime": 0, "vsize": 226, "size": 226}