{"hash": "95b80f98d5249d98a05bedea5387da4dfaf88ae20e0a6ae6658c88d5c302cb07", "blockhash": "0000000000000000001cda96e906b7601b7a6fb1a3b62bca570a9e5d8f4b3de1", "vout": [{"scriptPubKey": {"reqSigs": 1, "hex": "76a914344c688393e04aee24e791a7cfcb9bb889e00dcb88ac", "addresses": ["15mXfv1hLYx4AFL5VT6jjyyvumP9PwvWHs"], "asm": "OP_DUP OP_HASH160 344c688393e04aee24e791a7cfcb9bb889e00dcb OP_EQUALVERIFY OP_CHECKSIG", "type": "pubkeyhash"}, "value": 0.006, "n": 0}, {"scriptPubKey": {"reqSigs": 1, "hex": "76a91400611c56e4067476dd35c27753094470f450527988ac", "addresses": ["1131LNSxLTULBG2p7WEK83ZC6mUbV6wkyd"], "asm": "OP_DUP OP_HASH160 00611c56e4067476dd35c27753094470f4505279 OP_EQUALVERIFY OP_CHECKSIG", "type": "pubkeyhash"}, "value": 0.00717886, "n": 1}], "hex": "0100000003b1c85e42e99c9ca67bffc4ce55cca2085eb4e17af9944476d2aa24ec8da0203f010000006a47304402202e758e2a52715560d969cca546a7bd8f02a198a66011e2a1a67457aa20839ae4022066ee26026d59ce71ec1bcd1b5393a021dd9b31d4d61e82cd6df194d21d7d2aac012102b900fcac04599a90af6e20bcabcae75abe5cbf0f491d92ae565b43f71151c69effffffff07b59f676c4b5f73537e55e06f08fa1984f4d87beec5f66c08468d51dbc0acb5010000006b483045022100ff3777b2126c06a652791cbb0f9dcc8396f8bb9720662dff93569b8c349c916f022048d63a8cede8997c745a9681f21dfdd001adb86a486de8ac63f76025293dd49f01210286ce6b12272399402f0cac72925dba89134e8719478fb80fbacd6166d3fe983fffffffffd241cbb4dcd3e55ec9f78c120d192b7da2caae4e622a8a9dc26f3379ed9682d7070000006a473044022070db89e24c314dfe58491b2f9015cdde1de12fcf4b0e2d1683921c5630dbb0d9022050a6a0624d3d287cbd2ab3f20859aa3afdd7e6cffd0923e1a614faeee718ae3d01210329acb5f952b718baceefbd4d33339102f06aafd021016f37f42a7c9c56a68411ffffffff02c0270900000000001976a914344c688393e04aee24e791a7cfcb9bb889e00dcb88ac3ef40a00000000001976a91400611c56e4067476dd35c27753094470f450527988ac00000000", "vin": [{"sequence": 4294967295, "scriptSig": {"hex": "47304402202e758e2a52715560d969cca546a7bd8f02a198a66011e2a1a67457aa20839ae4022066ee26026d59ce71ec1bcd1b5393a021dd9b31d4d61e82cd6df194d21d7d2aac012102b900fcac04599a90af6e20bcabcae75abe5cbf0f491d92ae565b43f71151c69e", "asm": "304402202e758e2a52715560d969cca546a7bd8f02a198a66011e2a1a67457aa20839ae4022066ee26026d59ce71ec1bcd1b5393a021dd9b31d4d61e82cd6df194d21d7d2aac[ALL] 02b900fcac04599a90af6e20bcabcae75abe5cbf0f491d92ae565b43f71151c69e"}, "vout": 1, "txid": "3f20a08dec24aad2764494f97ae1b45e08a2cc55cec4ff7ba69c9ce9425ec8b1"}, {"sequence": 4294967295, "scriptSig": {"hex": "483045022100ff3777b2126c06a652791cbb0f9dcc8396f8bb9720662dff93569b8c349c916f022048d63a8cede8997c745a9681f21dfdd001adb86a486de8ac63f76025293dd49f01210286ce6b12272399402f0cac72925dba89134e8719478fb80fbacd6166d3fe983f", "asm": "3045022100ff3777b2126c06a652791cbb0f9dcc8396f8bb9720662dff93569b8c349c916f022048d63a8cede8997c745a9681f21dfdd001adb86a486de8ac63f76025293dd49f[ALL] 0286ce6b12272399402f0cac72925dba89134e8719478fb80fbacd6166d3fe983f"}, "vout": 1, "txid": "b5acc0db518d46086cf6c5ee7bd8f48419fa086fe0557e53735f4b6c679fb507"}, {"sequence": 4294967295, "scriptSig": {"hex": "473044022070db89e24c314dfe58491b2f9015cdde1de12fcf4b0e2d1683921c5630dbb0d9022050a6a0624d3d287cbd2ab3f20859aa3afdd7e6cffd0923e1a614faeee718ae3d01210329acb5f952b718baceefbd4d33339102f06aafd021016f37f42a7c9c56a68411", "asm": "3044022070db89e24c314dfe58491b2f9015cdde1de12fcf4b0e2d1683921c5630dbb0d9022050a6a0624d3d287cbd2ab3f20859aa3afdd7e6cffd0923e1a614faeee718ae3d[ALL] 0329acb5f952b718baceefbd4d33339102f06aafd021016f37f42a7c9c56a68411"}, "vout": 7, "txid": "d78296ed79336fc29d8a2a624eaecaa27d2b190d128cf7c95ee5d3dcb4cb41d2"}], "txid": "95b80f98d5249d98a05bedea5387da4dfaf88ae20e0a6ae6658c88d5c302cb07", "blocktime": 1537873282, "version": 1, "confirmations": 11485, "time": 1537873282, "locktime": 0, "vsize": 520, "size": 520}