{"hash": "2ead1289a67e6ffc553a9d063492dc1b4f0727de55fb5267970bf890d1ce063a", "blockhash": "00000000000000000017f5eb5941039fbcee6240d03bc1f2f8e35350df66a1d8", "vout": [{"scriptPubKey": {"reqSigs": 1, "hex": "76a914d053514fdb4649a8cf20119a2d08d6d3aa8a1d0088ac", "addresses": ["1KzXMupsuABwvp512wJtuxLkzSPRP38aeA"], "asm": "OP_DUP OP_HASH160 d053514fdb4649a8cf20119a2d08d6d3aa8a1d00 OP_EQUALVERIFY OP_CHECKSIG", "type": "pubkeyhash"}, "value": 0.0003259, "n": 0}, {"scriptPubKey": {"reqSigs": 1, "hex": "0014d0e59710157306e530dc90993416dc63018c3f7d", "addresses": ["bc1q6rjewyq4wvrw2vxujzvng9kuvvqcc0maqrmmkt"], "asm": "0 d0e59710157306e530dc90993416dc63018c3f7d", "type": "witness_v0_keyhash"}, "value": 9.75e-06, "n": 1}], "hex": "01000000000101ff625d7a64ee46673eb96090451205f1e48841f916d30f37ab7f0a429e0581d30100000000ffffffff024e7f0000000000001976a914d053514fdb4649a8cf20119a2d08d6d3aa8a1d0088accf03000000000000160014d0e59710157306e530dc90993416dc63018c3f7d024830450221008453d594c4eb6c378cdef497dda79033912c83819ab42f2a66eac48bc273dfba0220202b2b66e31758510355b55dd3fed63e622e7b4d3a6e33e7652da28cf8a59a5201210290b5e3a757186c357bf93a7aefb19e0d0b17a94fd18bff8e58dc32133efc87dc00000000", "vin": [{"txinwitness": ["30450221008453d594c4eb6c378cdef497dda79033912c83819ab42f2a66eac48bc273dfba0220202b2b66e31758510355b55dd3fed63e622e7b4d3a6e33e7652da28cf8a59a5201", "0290b5e3a757186c357bf93a7aefb19e0d0b17a94fd18bff8e58dc32133efc87dc"], "sequence": 4294967295, "scriptSig": {"hex": "", "asm": ""}, "vout": 1, "txid": "d381059e420a7fab370fd316f94188e4f10512459060b93e6746ee647a5d62ff"}], "txid": "95bc56e97b7dd3e6bc9979458188db902d01904b5d30c04f164738af2cdaf2b6", "blocktime": 1537874412, "version": 1, "confirmations": 11467, "time": 1537874412, "locktime": 0, "vsize": 144, "size": 226}