{"hash": "21f353164a0fce25cd88f0fff544d28ec0db32e8e59f650d11822c87b46961d0", "blockhash": "0000000000000000001f0ddff1eddb255c1121bcd4da4f1bc9a0da00cae72433", "vout": [{"scriptPubKey": {"reqSigs": 1, "hex": "a9140d315bb0f46f1d3cba7e5dc148f0ca337b5589f587", "addresses": ["32tmqW9AjLug4TF6LSHZKTQph3v4kQYyxB"], "asm": "OP_HASH160 0d315bb0f46f1d3cba7e5dc148f0ca337b5589f5 OP_EQUAL", "type": "scripthash"}, "value": 0.00037571, "n": 0}, {"scriptPubKey": {"reqSigs": 1, "hex": "a91408c364340a91e77e4376b26fdad3b5aedc5661f787", "addresses": ["32VMQ7Th4qGhbDYY68FZrfSF9hTbsPivgt"], "asm": "OP_HASH160 08c364340a91e77e4376b26fdad3b5aedc5661f7 OP_EQUAL", "type": "scripthash"}, "value": 0.03323363, "n": 1}], "hex": "010000000001018ce8092e7bfa1cf46179329429b02770aee815d92d3f82dd1614ebafc811873c010000002322002027561ef61439ff4994ea3793249bbb358319edb59fff63c1eeada48f299e81b5ffffffff02c39200000000000017a9140d315bb0f46f1d3cba7e5dc148f0ca337b5589f587e3b532000000000017a91408c364340a91e77e4376b26fdad3b5aedc5661f7870400473044022049a6e4bcc26e5adc96b365d1edfe4a69ae966dfb75ff48d5f1b9eec85b1052650220453e081c65a7e802187afc35f35a32eae0542ed0af3bbae9449bc04091d1d1ab0147304402203a9850488ae2877895ef40cc12970c2c87d2e9de62baf44a97962f3e8c4a02c70220578d1e7b25b0689fa728a055f9514d52ff9f09bbc87f0c483b4d63d77ac513dd0147522102f484437eae67e7d1f9cf7235bd52510c99f379408a1f6fe737011d4bc259358a2103871fc2ca08e6950b38867e8e6a0e94ee625223d3aa0df5c65f414c6d784467e252ae00000000", "vin": [{"txinwitness": ["", "3044022049a6e4bcc26e5adc96b365d1edfe4a69ae966dfb75ff48d5f1b9eec85b1052650220453e081c65a7e802187afc35f35a32eae0542ed0af3bbae9449bc04091d1d1ab01", "304402203a9850488ae2877895ef40cc12970c2c87d2e9de62baf44a97962f3e8c4a02c70220578d1e7b25b0689fa728a055f9514d52ff9f09bbc87f0c483b4d63d77ac513dd01", "522102f484437eae67e7d1f9cf7235bd52510c99f379408a1f6fe737011d4bc259358a2103871fc2ca08e6950b38867e8e6a0e94ee625223d3aa0df5c65f414c6d784467e252ae"], "sequence": 4294967295, "scriptSig": {"hex": "22002027561ef61439ff4994ea3793249bbb358319edb59fff63c1eeada48f299e81b5", "asm": "002027561ef61439ff4994ea3793249bbb358319edb59fff63c1eeada48f299e81b5"}, "vout": 1, "txid": "3c8711c8afeb1416dd823f2dd915e8ae7027b02994327961f41cfa7b2e09e88c"}], "txid": "95beba299c268a1d98481447291dc126f2deed3ddbf3a503783b6e9d6a0486de", "blocktime": 1537872018, "version": 1, "confirmations": 11489, "time": 1537872018, "locktime": 0, "vsize": 205, "size": 370}