{"hash": "7e48a1a21f15fad6b4b3c01e62733fd29b4050f5ab8f9fa57e54be957f0e62d8", "blockhash": "0000000000000000001f76057863aec43deb6fa401d9628bb513d65a8098bfab", "vout": [{"scriptPubKey": {"reqSigs": 1, "hex": "a914ce16818feb7ddde0cd8cb808644e7bc814432e5587", "addresses": ["3LUi5p4Zv1ptLYKyfpFvnDgTBdjf79BpQq"], "asm": "OP_HASH160 ce16818feb7ddde0cd8cb808644e7bc814432e55 OP_EQUAL", "type": "scripthash"}, "value": 0.01054852, "n": 0}, {"scriptPubKey": {"reqSigs": 1, "hex": "a914ac4b6a1fee9ecd53af0cd09fd6b408f4f207569487", "addresses": ["3HQ2VS66926Gca1ZX8Jpyxc33vRzVFDfHn"], "asm": "OP_HASH160 ac4b6a1fee9ecd53af0cd09fd6b408f4f2075694 OP_EQUAL", "type": "scripthash"}, "value": 0.00285018, "n": 1}], "hex": "02000000000101104fa74da6d6ae8082c0433f3c0cbd4cf444a769ee6252d6e09398ad3cc1280a0d00000017160014bf42f8da36dff60a95f0f365ca4e315df0000801feffffff02841810000000000017a914ce16818feb7ddde0cd8cb808644e7bc814432e55875a5904000000000017a914ac4b6a1fee9ecd53af0cd09fd6b408f4f20756948702483045022100c88580ef0a291c3fca9f5df2b46a2d639f140d0cc644e6a7e7cb3328f5e5fcf2022010b7e887f316ba1bdf44115f7201ff3f7c8e9a79bfc0906470565f76331293a40121026f10ad33897c4499e8611c05081d65c38ad4018f1fb8aecae516df7043e2d26714490800", "vin": [{"txinwitness": ["3045022100c88580ef0a291c3fca9f5df2b46a2d639f140d0cc644e6a7e7cb3328f5e5fcf2022010b7e887f316ba1bdf44115f7201ff3f7c8e9a79bfc0906470565f76331293a401", "026f10ad33897c4499e8611c05081d65c38ad4018f1fb8aecae516df7043e2d267"], "sequence": 4294967294, "scriptSig": {"hex": "160014bf42f8da36dff60a95f0f365ca4e315df0000801", "asm": "0014bf42f8da36dff60a95f0f365ca4e315df0000801"}, "vout": 13, "txid": "0a28c13cad9893e0d65262ee69a744f44cbd0c3c3f43c08280aed6a64da74f10"}], "txid": "95c0d589c3119e8399803d07d96993dc3efe77ff29815c349a8856bc21567294", "blocktime": 1537873891, "version": 2, "confirmations": 11478, "time": 1537873891, "locktime": 542996, "vsize": 166, "size": 248}