{"hash": "95c7ede12c534f50ff3029bf641610b77ad20c1e2fba05a592d8332938b657f1", "blockhash": "0000000000000000001cda96e906b7601b7a6fb1a3b62bca570a9e5d8f4b3de1", "vout": [{"scriptPubKey": {"reqSigs": 1, "hex": "76a91414031bdf10cbe62e36429850c58c942898435de388ac", "addresses": ["12ppEr168SDpSYnXJpbfKGwP825BfRbnex"], "asm": "OP_DUP OP_HASH160 14031bdf10cbe62e36429850c58c942898435de3 OP_EQUALVERIFY OP_CHECKSIG", "type": "pubkeyhash"}, "value": 0.00145264, "n": 0}, {"scriptPubKey": {"reqSigs": 1, "hex": "76a914c94effd1613abfebcf5ff3081940457e6e73e0e088ac", "addresses": ["1KMRTXS9Vw6bLirZ6kTDwRMjA7Yx52E2CD"], "asm": "OP_DUP OP_HASH160 c94effd1613abfebcf5ff3081940457e6e73e0e0 OP_EQUALVERIFY OP_CHECKSIG", "type": "pubkeyhash"}, "value": 0.07807, "n": 1}], "hex": "010000000119ff1ee5ac2285a05dba7243d959d057e2dbbfc34463c690e4c76b8cb0c76aeb010000006b483045022100a63c59c06a710a9ce98359ad50361e4f8515191213abe0391f12fcb193b8888f022001b551da0be9ac3cc812ee962a22772aebc22a77ef066d27a0dc401a5916cac80121023f76e6ea6299e70a5cbae6329dc01f81be87df7c089c40c80130108b672ce63fffffffff0270370200000000001976a91414031bdf10cbe62e36429850c58c942898435de388ac18207700000000001976a914c94effd1613abfebcf5ff3081940457e6e73e0e088ac00000000", "vin": [{"sequence": 4294967295, "scriptSig": {"hex": "483045022100a63c59c06a710a9ce98359ad50361e4f8515191213abe0391f12fcb193b8888f022001b551da0be9ac3cc812ee962a22772aebc22a77ef066d27a0dc401a5916cac80121023f76e6ea6299e70a5cbae6329dc01f81be87df7c089c40c80130108b672ce63f", "asm": "3045022100a63c59c06a710a9ce98359ad50361e4f8515191213abe0391f12fcb193b8888f022001b551da0be9ac3cc812ee962a22772aebc22a77ef066d27a0dc401a5916cac8[ALL] 023f76e6ea6299e70a5cbae6329dc01f81be87df7c089c40c80130108b672ce63f"}, "vout": 1, "txid": "eb6ac7b08c6bc7e490c66344c3bfdbe257d059d94372ba5da08522ace51eff19"}], "txid": "95c7ede12c534f50ff3029bf641610b77ad20c1e2fba05a592d8332938b657f1", "blocktime": 1537873282, "version": 1, "confirmations": 11485, "time": 1537873282, "locktime": 0, "vsize": 226, "size": 226}