{"hash": "95c8da1fea7ec3016c87aa6146585cea2dba2c5affe27720f0886e9dcaef55a2", "blockhash": "0000000000000000000e13cef7c366c0283d82e591d1acd082e914b08063cdf1", "vout": [{"scriptPubKey": {"reqSigs": 1, "hex": "a9143f4eecba122ad73039d481c8d37f99cb4f887cd887", "addresses": ["37Tm3Qz8Zw2VJrheUUhArDAoq58S6YrS3g"], "asm": "OP_HASH160 3f4eecba122ad73039d481c8d37f99cb4f887cd8 OP_EQUAL", "type": "scripthash"}, "value": 1.0, "n": 0}, {"scriptPubKey": {"reqSigs": 1, "hex": "a91458feb1e48005b0518416d99a913ec35f40e794ad87", "addresses": ["39oaVwFjBM7vQ1DrNdFiJ5H5aAcWCxKmRC"], "asm": "OP_HASH160 58feb1e48005b0518416d99a913ec35f40e794ad OP_EQUAL", "type": "scripthash"}, "value": 33.80922837, "n": 1}], "hex": "010000000108549a353854ed795d8bec11151fb2e295f7181a7e2eb8176ba0c34c1afac90901000000fdfd0000483045022100fea992c7613c492af927e67d66ca5dd4d80fe05bb01a53c11f888022b31ee06302207a5691fc8fe988e97f241785d33464c2deff9a08c184de4ca51f5091ceee284e014730440220247f02ca3261347ae2b77ef5811818fb6a0a841efc9daaa88c486bc9b8834ac902203362c927623604e73f444045a83eab3f1c19d40a4a81a4d63927661343b1fd93014c695221035f12afbea27cdc2c7dbfe2ac5a54bc8c68aa09c599eb08228a5af9acb7c13b2e2102382742a5d18a87e955a0bb626a1a56e667774c6c0e1e5bc108c3fb08b606260e2102146a1e7c54fb0aa401d669a4e7032bfbdcfbcd85fcd9d959093e886c55d7839853aeffffffff0200e1f5050000000017a9143f4eecba122ad73039d481c8d37f99cb4f887cd887d5c984c90000000017a91458feb1e48005b0518416d99a913ec35f40e794ad8700000000", "vin": [{"sequence": 4294967295, "scriptSig": {"hex": "00483045022100fea992c7613c492af927e67d66ca5dd4d80fe05bb01a53c11f888022b31ee06302207a5691fc8fe988e97f241785d33464c2deff9a08c184de4ca51f5091ceee284e014730440220247f02ca3261347ae2b77ef5811818fb6a0a841efc9daaa88c486bc9b8834ac902203362c927623604e73f444045a83eab3f1c19d40a4a81a4d63927661343b1fd93014c695221035f12afbea27cdc2c7dbfe2ac5a54bc8c68aa09c599eb08228a5af9acb7c13b2e2102382742a5d18a87e955a0bb626a1a56e667774c6c0e1e5bc108c3fb08b606260e2102146a1e7c54fb0aa401d669a4e7032bfbdcfbcd85fcd9d959093e886c55d7839853ae", "asm": "0 3045022100fea992c7613c492af927e67d66ca5dd4d80fe05bb01a53c11f888022b31ee06302207a5691fc8fe988e97f241785d33464c2deff9a08c184de4ca51f5091ceee284e[ALL] 30440220247f02ca3261347ae2b77ef5811818fb6a0a841efc9daaa88c486bc9b8834ac902203362c927623604e73f444045a83eab3f1c19d40a4a81a4d63927661343b1fd93[ALL] 5221035f12afbea27cdc2c7dbfe2ac5a54bc8c68aa09c599eb08228a5af9acb7c13b2e2102382742a5d18a87e955a0bb626a1a56e667774c6c0e1e5bc108c3fb08b606260e2102146a1e7c54fb0aa401d669a4e7032bfbdcfbcd85fcd9d959093e886c55d7839853ae"}, "vout": 1, "txid": "09c9fa1a4cc3a06b17b82e7e1a18f795e2b21f1511ec8b5d79ed5438359a5408"}], "txid": "95c8da1fea7ec3016c87aa6146585cea2dba2c5affe27720f0886e9dcaef55a2", "blocktime": 1537871767, "version": 1, "confirmations": 11491, "time": 1537871767, "locktime": 0, "vsize": 370, "size": 370}