{"hash": "e3eeca37199c17d2b1b781237a648478eca52b681abbd23ecf1105715f812be2", "blockhash": "000000000000000000022b45ed06c6f4ccd3cf7fb5ba4856ebd2e58215665228", "vout": [{"scriptPubKey": {"reqSigs": 1, "hex": "0014c2c1ece66d1c74ec25837fe28716cebabc96a4d5", "addresses": ["bc1qctq7eendr36wcfvr0l3gw9kwh27fdfx42c7t2f"], "asm": "0 c2c1ece66d1c74ec25837fe28716cebabc96a4d5", "type": "witness_v0_keyhash"}, "value": 0.00251797, "n": 0}, {"scriptPubKey": {"reqSigs": 1, "hex": "0020eb787578d0094a544fc85f7c953b32b833288f422536e33a4a3131c52db90155", "addresses": ["bc1qadu827xsp999gn7gta7f2wejhqej3r6zy5mwxwj2xycu2tdeq92sryycff"], "asm": "0 eb787578d0094a544fc85f7c953b32b833288f422536e33a4a3131c52db90155", "type": "witness_v0_scripthash"}, "value": 0.00531627, "n": 1}], "hex": "0100000000010337239c070754b5bf1fc3378d347d622504b4151a097b818107ea065edb3bbc180000000000ffffffffc3321251a8e7ac89673364745cd3ebd28fc51dc02ca0c434b4a2069ce207758e0000000000ffffffffb44d23c69b108651798776ad093023acee202f5860f5a0f50dc71c3396c513b00000000000ffffffff0295d7030000000000160014c2c1ece66d1c74ec25837fe28716cebabc96a4d5ab1c080000000000220020eb787578d0094a544fc85f7c953b32b833288f422536e33a4a3131c52db901550247304402201d66c6da684c40e28ca5de409b91d19b7bf1cd53320ecd5a95d2cbd58c07e630022023a3c333f7f37ca66ef683666f79fba0b8bf177e06e1b743532852800e84cd5a012103074e21c134d2518c6e694bd3a4425c6c44460d96d545a3dbae79d0cdeb857eb302483045022100b2f20183827b695df0024b262b877ff7604a82cc5e1a71b0bb080ea0483a52690220676c0569577d654c49d08ff2153f4296fc781e8e95076dfc9f767cd42ad9ca5e012103f205cf279c2715cad4adb711324dc42dca8e1883833146d850e00c668a921e140247304402204b606908b3cec0c688977f6dc6ef0223f3c847c2e0e2963efbdc82a977939c09022042decfb8037f6b3b1a6f3d138515f1dce7e77e098602277b98c6b3454244f841012102be69bebe8b70b73d2a133f9af6019272cb33af093feeb991b5819bb1cb35632f00000000", "vin": [{"txinwitness": ["304402201d66c6da684c40e28ca5de409b91d19b7bf1cd53320ecd5a95d2cbd58c07e630022023a3c333f7f37ca66ef683666f79fba0b8bf177e06e1b743532852800e84cd5a01", "03074e21c134d2518c6e694bd3a4425c6c44460d96d545a3dbae79d0cdeb857eb3"], "sequence": 4294967295, "scriptSig": {"hex": "", "asm": ""}, "vout": 0, "txid": "18bc3bdb5e06ea0781817b091a15b40425627d348d37c31fbfb55407079c2337"}, {"txinwitness": ["3045022100b2f20183827b695df0024b262b877ff7604a82cc5e1a71b0bb080ea0483a52690220676c0569577d654c49d08ff2153f4296fc781e8e95076dfc9f767cd42ad9ca5e01", "03f205cf279c2715cad4adb711324dc42dca8e1883833146d850e00c668a921e14"], "sequence": 4294967295, "scriptSig": {"hex": "", "asm": ""}, "vout": 0, "txid": "8e7507e29c06a2b434c4a02cc01dc58fd2ebd35c7464336789ace7a8511232c3"}, {"txinwitness": ["304402204b606908b3cec0c688977f6dc6ef0223f3c847c2e0e2963efbdc82a977939c09022042decfb8037f6b3b1a6f3d138515f1dce7e77e098602277b98c6b3454244f84101", "02be69bebe8b70b73d2a133f9af6019272cb33af093feeb991b5819bb1cb35632f"], "sequence": 4294967295, "scriptSig": {"hex": "", "asm": ""}, "vout": 0, "txid": "b013c596331cc70df5a0f560582f20eeac233009ad7687795186109bc6234db4"}], "txid": "95c972f69bd4bf7673a311894d2eabbe6ff5e9c411d405d164206a77b98bfca8", "blocktime": 1537869901, "version": 1, "confirmations": 11523, "time": 1537869901, "locktime": 0, "vsize": 288, "size": 531}