{"hash": "dddcc1f13f843f02d16a99742afa5b1ae5119e8bc45f20156773379ac64daee1", "blockhash": "000000000000000000022b45ed06c6f4ccd3cf7fb5ba4856ebd2e58215665228", "vout": [{"scriptPubKey": {"reqSigs": 1, "hex": "76a914be5b5f1213ac6d0263325fd8c2e74e9fa40b72b088ac", "addresses": ["1JMWr3Rjp1Z1NFSnhERbVJQq9eVE1AZPDb"], "asm": "OP_DUP OP_HASH160 be5b5f1213ac6d0263325fd8c2e74e9fa40b72b0 OP_EQUALVERIFY OP_CHECKSIG", "type": "pubkeyhash"}, "value": 0.0063586, "n": 0}, {"scriptPubKey": {"reqSigs": 1, "hex": "a914aa753270242b5da506dbc109bc574306464a774387", "addresses": ["3HEKC9UNUGhqG8RD1waHvvCX5pg3fHjfmx"], "asm": "OP_HASH160 aa753270242b5da506dbc109bc574306464a7743 OP_EQUAL", "type": "scripthash"}, "value": 0.01000012, "n": 1}], "hex": "020000000001024a9e87f6b4e5ba9edc11a170ac0054379e3c315d712816798234f5652dacade2000000001716001475eae53d96c8752e2c5f8f451d056f714bbd088ffeffffff783f7bcf0d9dfcb8c60592fd17c30d660970aaef2e1dc4ddabb848a02b89adc70000000017160014c48663fbcc77aa1e02d847b940a69ed4b39c5b66feffffff02d4b30900000000001976a914be5b5f1213ac6d0263325fd8c2e74e9fa40b72b088ac4c420f000000000017a914aa753270242b5da506dbc109bc574306464a77438702473044022026384a493a5ddd99841ec2ba4d7580b4f0058eb9d6558def2167bdad01236b2302205d182f776bfa13703504b0b874f6c741470185ce2224b24e0762cfc19685fe4b0121028afa3098712f750de46b457710820449a675c6af53f561664e659418130c7c7902473044022035279b1a10808fea85720b85525e7ffe1aa2c306c02eba3e8285417365b0d4a0022030856fd014f13e8fe8d5b4eecb1eb4e3a09b3d92cd914b89425c721e681587d10121036755e3593385f0672b3f834a4b3bd35401d3ff30385eb58be325892f41b28032f7480800", "vin": [{"txinwitness": ["3044022026384a493a5ddd99841ec2ba4d7580b4f0058eb9d6558def2167bdad01236b2302205d182f776bfa13703504b0b874f6c741470185ce2224b24e0762cfc19685fe4b01", "028afa3098712f750de46b457710820449a675c6af53f561664e659418130c7c79"], "sequence": 4294967294, "scriptSig": {"hex": "16001475eae53d96c8752e2c5f8f451d056f714bbd088f", "asm": "001475eae53d96c8752e2c5f8f451d056f714bbd088f"}, "vout": 0, "txid": "e2adac2d65f53482791628715d313c9e375400ac70a111dc9ebae5b4f6879e4a"}, {"txinwitness": ["3044022035279b1a10808fea85720b85525e7ffe1aa2c306c02eba3e8285417365b0d4a0022030856fd014f13e8fe8d5b4eecb1eb4e3a09b3d92cd914b89425c721e681587d101", "036755e3593385f0672b3f834a4b3bd35401d3ff30385eb58be325892f41b28032"], "sequence": 4294967294, "scriptSig": {"hex": "160014c48663fbcc77aa1e02d847b940a69ed4b39c5b66", "asm": "0014c48663fbcc77aa1e02d847b940a69ed4b39c5b66"}, "vout": 0, "txid": "c7ad892ba048b8abddc41d2eefaa7009660dc317fd9205c6b8fc9d0dcf7b3f78"}], "txid": "95ca5382114350bc565f996e145eecc5ebbbdcbe36c0f938692babe0508b0b1f", "blocktime": 1537869901, "version": 2, "confirmations": 11524, "time": 1537869901, "locktime": 542967, "vsize": 258, "size": 420}