{"hash": "28d13fef27c8f6d5784e224634f811c33b175e9acb08b9d97014affaebae1c31", "blockhash": "00000000000000000017f5eb5941039fbcee6240d03bc1f2f8e35350df66a1d8", "vout": [{"scriptPubKey": {"reqSigs": 1, "hex": "a91469f37654991afaee222eb43be244ef72b712595c87", "addresses": ["3BMEXjmLFMvpUCEwgyoh5c7W4d2DUbimn2"], "asm": "OP_HASH160 69f37654991afaee222eb43be244ef72b712595c OP_EQUAL", "type": "scripthash"}, "value": 0.0877317, "n": 0}, {"scriptPubKey": {"reqSigs": 1, "hex": "00143bc0f4c78b4c39875c3ca3b550092034e1de73e2", "addresses": ["bc1q80q0f3utfsucwhpu5w64qzfqxnsauulzy9cxqg"], "asm": "0 3bc0f4c78b4c39875c3ca3b550092034e1de73e2", "type": "witness_v0_keyhash"}, "value": 0.01226333, "n": 1}], "hex": "0100000000010179643b97c9733e932b6eadc6e8afa450d93fcd8858815a81b814dc43eb7ce5b30000000017160014fa281c203250723dc51bb50607df1d28bc5c27b1ffffffff0232de85000000000017a91469f37654991afaee222eb43be244ef72b712595c875db61200000000001600143bc0f4c78b4c39875c3ca3b550092034e1de73e202483045022100fe6456aa2ce549140652f502c19ca001a3eb51b29ede10beb2de5c8ec6690d67022022d51c1fa2f0ff801bec316fb6f3a251ca446096408d20e8eb8ca028d8e67617012103cc278247e49b109c2e5bcc5ccb2281f664b7385c8f0659c23180082f87e5525c00000000", "vin": [{"txinwitness": ["3045022100fe6456aa2ce549140652f502c19ca001a3eb51b29ede10beb2de5c8ec6690d67022022d51c1fa2f0ff801bec316fb6f3a251ca446096408d20e8eb8ca028d8e6761701", "03cc278247e49b109c2e5bcc5ccb2281f664b7385c8f0659c23180082f87e5525c"], "sequence": 4294967295, "scriptSig": {"hex": "160014fa281c203250723dc51bb50607df1d28bc5c27b1", "asm": "0014fa281c203250723dc51bb50607df1d28bc5c27b1"}, "vout": 0, "txid": "b3e57ceb43dc14b8815a815888cd3fd950a4afe8c6ad6e2b933e73c9973b6479"}], "txid": "95ce0b120ebc18c012c3915a632e08cff111d3a2b770ba164a43afe87b05547e", "blocktime": 1537874412, "version": 1, "confirmations": 11468, "time": 1537874412, "locktime": 0, "vsize": 165, "size": 247}