{"hash": "b14e329ad5cd2c6f958d5fc86f114e9caf9fbd1b024b1499b996dc44e23ac438", "blockhash": "0000000000000000000baef3f32e3676a92c3b2e5da21b426e4f302fc371ce76", "vout": [{"scriptPubKey": {"reqSigs": 1, "hex": "a914d43b354ad5bc5dd8067f04a2c53c1dcd9dbdf94b87", "addresses": ["3M3C74tJwVwBZ8968W2bLXiviVwQJa3U5P"], "asm": "OP_HASH160 d43b354ad5bc5dd8067f04a2c53c1dcd9dbdf94b OP_EQUAL", "type": "scripthash"}, "value": 0.01123092, "n": 0}, {"scriptPubKey": {"reqSigs": 1, "hex": "76a914574354c720cf3b720c8ee30cecbe6314e249170388ac", "addresses": ["18xQSwYqZXJWWQqE3kvgivPfAJyxZBJ5d3"], "asm": "OP_DUP OP_HASH160 574354c720cf3b720c8ee30cecbe6314e2491703 OP_EQUALVERIFY OP_CHECKSIG", "type": "pubkeyhash"}, "value": 0.01136692, "n": 1}], "hex": "02000000000102454217fc1d212a2b8950036e7c8203010c9d32140486f297f9b2d535c8c3e9d2000000001716001471edd71ad7976442c6a1ab3db4c7909b2267244dfefffffffd3f304b649f9bdc20a601be7535e9a063faf6864d148eb0f94275c18ac57faa08000000171600147c4a507fbae36e435769d23ef24fb05ac287b293feffffff02142311000000000017a914d43b354ad5bc5dd8067f04a2c53c1dcd9dbdf94b8734581100000000001976a914574354c720cf3b720c8ee30cecbe6314e249170388ac02483045022100fd11e184d315beb400de354ea6f6e90d41f7862c63cfc3876e89aa8475fd95ff02203ef84396b4191f34eec8dadc3f6234e55c606ee219d600d7c93a3a7c159ef3eb01210322c4adce635661f7e0746de9e9bfd43b896fff3a5ee7f9ed803c4ed0dcb6c046024730440220530a732f107ad3f00d44b5589392ae758ec595c8c7e4689049085a6ce45d4b000220614b6601e37b6f426983227970330b94664e2b8b4b2fce16bbfbba5e65e575900121036e79921393a41adad818e8654f16f54131aae1d8df39776d8b60fd2e029a9a4116490800", "vin": [{"txinwitness": ["3045022100fd11e184d315beb400de354ea6f6e90d41f7862c63cfc3876e89aa8475fd95ff02203ef84396b4191f34eec8dadc3f6234e55c606ee219d600d7c93a3a7c159ef3eb01", "0322c4adce635661f7e0746de9e9bfd43b896fff3a5ee7f9ed803c4ed0dcb6c046"], "sequence": 4294967294, "scriptSig": {"hex": "16001471edd71ad7976442c6a1ab3db4c7909b2267244d", "asm": "001471edd71ad7976442c6a1ab3db4c7909b2267244d"}, "vout": 0, "txid": "d2e9c3c835d5b2f997f2860414329d0c0103827c6e0350892b2a211dfc174245"}, {"txinwitness": ["30440220530a732f107ad3f00d44b5589392ae758ec595c8c7e4689049085a6ce45d4b000220614b6601e37b6f426983227970330b94664e2b8b4b2fce16bbfbba5e65e5759001", "036e79921393a41adad818e8654f16f54131aae1d8df39776d8b60fd2e029a9a41"], "sequence": 4294967294, "scriptSig": {"hex": "1600147c4a507fbae36e435769d23ef24fb05ac287b293", "asm": "00147c4a507fbae36e435769d23ef24fb05ac287b293"}, "vout": 8, "txid": "aa7fc58ac17542f9b08e144d86f6fa63a0e93575be01a620dc9b9f644b303ffd"}], "txid": "95d4022b588ffc5503f1d3f773003e28fd611cf4f9b0c3536a8382993ca322b6", "blocktime": 1537876114, "version": 2, "confirmations": 11462, "time": 1537876114, "locktime": 542998, "vsize": 259, "size": 421}