{"hash": "a53b316f4bebfc362fef5f155cef4b6fb975f2f123210174c4e2293ea30b4dc0", "blockhash": "0000000000000000001f0ddff1eddb255c1121bcd4da4f1bc9a0da00cae72433", "vout": [{"scriptPubKey": {"reqSigs": 1, "hex": "a914d7d3bc4bcb5b9b72006ffffe63900aba464b69d787", "addresses": ["3MNCrRtZZQ1QSMFXhQn4YHWrrCaTwckAXG"], "asm": "OP_HASH160 d7d3bc4bcb5b9b72006ffffe63900aba464b69d7 OP_EQUAL", "type": "scripthash"}, "value": 0.01092065, "n": 0}, {"scriptPubKey": {"reqSigs": 1, "hex": "a9148321bac2202c2b1e12fe11bf27bf5f01f34f5b0587", "addresses": ["3DeNrEzKoUdDa6m3FJvp4jPBk1JrUfuUHz"], "asm": "OP_HASH160 8321bac2202c2b1e12fe11bf27bf5f01f34f5b05 OP_EQUAL", "type": "scripthash"}, "value": 0.00188079, "n": 1}], "hex": "020000000001017963f6ae923e3ee324da5d26af4fb35e0721fa4525c5ffd253946ea8edb3f8ff0000000017160014dd74ce6b18107d0d556776c9c6175c51df288d4ffeffffff02e1a910000000000017a914d7d3bc4bcb5b9b72006ffffe63900aba464b69d787afde02000000000017a9148321bac2202c2b1e12fe11bf27bf5f01f34f5b0587024730440220313e866eba914b6da2a1f75ae573dac2597187fa3ec2bf3e9682164797c54803022056cbb0291025e4075654f27a58635d6f0c6ee4aee4216d8863b4817ae7e8187f0121022c435f457cf2c5c3daf0364fea4b9e3cceb376d32dbab5564fd09344deba78c011490800", "vin": [{"txinwitness": ["30440220313e866eba914b6da2a1f75ae573dac2597187fa3ec2bf3e9682164797c54803022056cbb0291025e4075654f27a58635d6f0c6ee4aee4216d8863b4817ae7e8187f01", "022c435f457cf2c5c3daf0364fea4b9e3cceb376d32dbab5564fd09344deba78c0"], "sequence": 4294967294, "scriptSig": {"hex": "160014dd74ce6b18107d0d556776c9c6175c51df288d4f", "asm": "0014dd74ce6b18107d0d556776c9c6175c51df288d4f"}, "vout": 0, "txid": "fff8b3eda86e9453d2ffc52545fa21075eb34faf265dda24e33e3e92aef66379"}], "txid": "95de9bf18e04c17abb16dd15a14d1dd160a10dca2aa1e77f2f7734328854b13b", "blocktime": 1537872018, "version": 2, "confirmations": 11489, "time": 1537872018, "locktime": 542993, "vsize": 166, "size": 247}