{"hash": "95e161ad1335450c0d7caa2293cfa362f6938ca2bcca79cc26decd50f87c9463", "blockhash": "0000000000000000001f0ddff1eddb255c1121bcd4da4f1bc9a0da00cae72433", "vout": [{"scriptPubKey": {"reqSigs": 1, "hex": "76a9148ac6c3accd5db099abef4adb27a4d78605047d1b88ac", "addresses": ["1DenMs1D2ejEnwczB9pEJp4jQh8nE7RMVU"], "asm": "OP_DUP OP_HASH160 8ac6c3accd5db099abef4adb27a4d78605047d1b OP_EQUALVERIFY OP_CHECKSIG", "type": "pubkeyhash"}, "value": 0.00018446, "n": 0}, {"scriptPubKey": {"reqSigs": 1, "hex": "a91496805fd581b4a6fc77c5ba4bf12a8009e18c050c87", "addresses": ["3FQo4vajVtWeJX5ZNCky3byhKWahqo93X8"], "asm": "OP_HASH160 96805fd581b4a6fc77c5ba4bf12a8009e18c050c OP_EQUAL", "type": "scripthash"}, "value": 0.00079, "n": 1}], "hex": "01000000015062b6b43f53cc7346ea91577a1aed690db4c747932c427fc68163da5a8f37ad000000006a473044022045fd0bb3ba629c89b308795078eccff850e2c1bb1b175f1d2c3636683e0f7c10022018ba0079ebbb5b8a88481d8200a0b1a266e43e7653fdab8a3f91a420be9dca70012102fc78510f55eb190b5b33808a67dec262ed520e71efe7a6714c0493b437441578ffffffff020e480000000000001976a9148ac6c3accd5db099abef4adb27a4d78605047d1b88ac983401000000000017a91496805fd581b4a6fc77c5ba4bf12a8009e18c050c8700000000", "vin": [{"sequence": 4294967295, "scriptSig": {"hex": "473044022045fd0bb3ba629c89b308795078eccff850e2c1bb1b175f1d2c3636683e0f7c10022018ba0079ebbb5b8a88481d8200a0b1a266e43e7653fdab8a3f91a420be9dca70012102fc78510f55eb190b5b33808a67dec262ed520e71efe7a6714c0493b437441578", "asm": "3044022045fd0bb3ba629c89b308795078eccff850e2c1bb1b175f1d2c3636683e0f7c10022018ba0079ebbb5b8a88481d8200a0b1a266e43e7653fdab8a3f91a420be9dca70[ALL] 02fc78510f55eb190b5b33808a67dec262ed520e71efe7a6714c0493b437441578"}, "vout": 0, "txid": "ad378f5ada6381c67f422c9347c7b40d69ed1a7a5791ea4673cc533fb4b66250"}], "txid": "95e161ad1335450c0d7caa2293cfa362f6938ca2bcca79cc26decd50f87c9463", "blocktime": 1537872018, "version": 1, "confirmations": 11489, "time": 1537872018, "locktime": 0, "vsize": 223, "size": 223}