{"hash": "95e2e5b22e6c1df5145e6b484ac9406631b01c3ed00f834bb6908931b7378d9f", "blockhash": "0000000000000000001f76057863aec43deb6fa401d9628bb513d65a8098bfab", "vout": [{"scriptPubKey": {"reqSigs": 1, "hex": "a91481d115a4dc1f7d6b0e5b601362787cf2bb13e46587", "addresses": ["3DXRZjopnWFNzFnfhNMaapVEyj7GqxRobC"], "asm": "OP_HASH160 81d115a4dc1f7d6b0e5b601362787cf2bb13e465 OP_EQUAL", "type": "scripthash"}, "value": 0.0087511, "n": 0}, {"scriptPubKey": {"reqSigs": 1, "hex": "76a914b5131e4f10270496ea1953a922e8bfda971f011088ac", "addresses": ["1HWSD6FndoBX7s6GTzRx6baier1StBpJuw"], "asm": "OP_DUP OP_HASH160 b5131e4f10270496ea1953a922e8bfda971f0110 OP_EQUALVERIFY OP_CHECKSIG", "type": "pubkeyhash"}, "value": 0.011, "n": 1}], "hex": "0100000002fb9705e59d846452e167271d66c2d35a85eabbcba93c20f43440feb67441043f010000006a47304402205247c5f24d98f721c1fbe3569c6f1801d8521dd080fd59444b7268c8988d93e7022047d88a0d5762953d790b077461f0cc3217b5da1e26390449ce9890332882d4440121031cd1c3d34d85bf438fea39570d2c349a00ac25370b6788cf898ab4237a362c8dfdffffff9e9bd84259598b94a8ffe915c98bfb1acdd34ac23121c7bfe12b155516550673010000006a473044022070fa79f08b669e091e83840334dce4743d6f1b46788a6ee894f856f308e4552902202e87c61c6f3a752202c3550540495f647bd3f3bee1ff8d1642d8705db0f7a6080121031cd1c3d34d85bf438fea39570d2c349a00ac25370b6788cf898ab4237a362c8dfdffffff02665a0d000000000017a91481d115a4dc1f7d6b0e5b601362787cf2bb13e46587e0c81000000000001976a914b5131e4f10270496ea1953a922e8bfda971f011088ac13490800", "vin": [{"sequence": 4294967293, "scriptSig": {"hex": "47304402205247c5f24d98f721c1fbe3569c6f1801d8521dd080fd59444b7268c8988d93e7022047d88a0d5762953d790b077461f0cc3217b5da1e26390449ce9890332882d4440121031cd1c3d34d85bf438fea39570d2c349a00ac25370b6788cf898ab4237a362c8d", "asm": "304402205247c5f24d98f721c1fbe3569c6f1801d8521dd080fd59444b7268c8988d93e7022047d88a0d5762953d790b077461f0cc3217b5da1e26390449ce9890332882d444[ALL] 031cd1c3d34d85bf438fea39570d2c349a00ac25370b6788cf898ab4237a362c8d"}, "vout": 1, "txid": "3f044174b6fe4034f4203ca9cbbbea855ad3c2661d2767e15264849de50597fb"}, {"sequence": 4294967293, "scriptSig": {"hex": "473044022070fa79f08b669e091e83840334dce4743d6f1b46788a6ee894f856f308e4552902202e87c61c6f3a752202c3550540495f647bd3f3bee1ff8d1642d8705db0f7a6080121031cd1c3d34d85bf438fea39570d2c349a00ac25370b6788cf898ab4237a362c8d", "asm": "3044022070fa79f08b669e091e83840334dce4743d6f1b46788a6ee894f856f308e4552902202e87c61c6f3a752202c3550540495f647bd3f3bee1ff8d1642d8705db0f7a608[ALL] 031cd1c3d34d85bf438fea39570d2c349a00ac25370b6788cf898ab4237a362c8d"}, "vout": 1, "txid": "7306551655152be1bfc72131c24ad3cd1afb8bc915e9ffa8948b595942d89b9e"}], "txid": "95e2e5b22e6c1df5145e6b484ac9406631b01c3ed00f834bb6908931b7378d9f", "blocktime": 1537873891, "version": 1, "confirmations": 11479, "time": 1537873891, "locktime": 542995, "vsize": 370, "size": 370}