{"hash": "d19cba3e6eb7e99cc52bc45f08e54a4516711543661b7f7637b62534ee727857", "blockhash": "00000000000000000017f5eb5941039fbcee6240d03bc1f2f8e35350df66a1d8", "vout": [{"scriptPubKey": {"reqSigs": 1, "hex": "0014a5c738ba9607cc683339bb3e7472aab1ffe52843", "addresses": ["bc1q5hrn3w5kqlxxsveehvl8gu42k8l722zr96xrxz"], "asm": "0 a5c738ba9607cc683339bb3e7472aab1ffe52843", "type": "witness_v0_keyhash"}, "value": 0.06484388, "n": 0}, {"scriptPubKey": {"reqSigs": 1, "hex": "76a91489d66465dc999266b1816914faeb96c388f89a1f88ac", "addresses": ["1DZpQWcS4zCTHkfupTwDKTH554xs22PkgJ"], "asm": "OP_DUP OP_HASH160 89d66465dc999266b1816914faeb96c388f89a1f OP_EQUALVERIFY OP_CHECKSIG", "type": "pubkeyhash"}, "value": 0.119, "n": 1}], "hex": "01000000000101959bfe19653860038a10d4aad036c8bf68f387c27262080fd2e350b451530cb3010000001716001404444af3ce20526e47daa2e59b559dd9aee3012dffffffff02a4f1620000000000160014a5c738ba9607cc683339bb3e7472aab1ffe528436094b500000000001976a91489d66465dc999266b1816914faeb96c388f89a1f88ac0248304502210095206baa654c4a8184b7ab67c61cb179455e8d04e394fc95cb395d800e5727780220037453cdc508bac6f84980a3ef0322b6a95efa1d8cb3fb1d11afb3ff88ef7b84012103e13b570578e3d1568dd88a5c982d666ed185bb182bf778c69e3d22d24459d6b400000000", "vin": [{"txinwitness": ["304502210095206baa654c4a8184b7ab67c61cb179455e8d04e394fc95cb395d800e5727780220037453cdc508bac6f84980a3ef0322b6a95efa1d8cb3fb1d11afb3ff88ef7b8401", "03e13b570578e3d1568dd88a5c982d666ed185bb182bf778c69e3d22d24459d6b4"], "sequence": 4294967295, "scriptSig": {"hex": "16001404444af3ce20526e47daa2e59b559dd9aee3012d", "asm": "001404444af3ce20526e47daa2e59b559dd9aee3012d"}, "vout": 1, "txid": "b30c5351b450e3d20f086272c287f368bfc836d0aad4108a0360386519fe9b95"}], "txid": "95eb02f4ea3a28fbd41ce53ad17308da2eab701f4277e9aace568a73ef99fb76", "blocktime": 1537874412, "version": 1, "confirmations": 11468, "time": 1537874412, "locktime": 0, "vsize": 167, "size": 249}