{"hash": "95ec01191df2190327bb4b2338e0c16bc1c8b4903067c5c7ea96cc778f43ac69", "blockhash": "0000000000000000001cda96e906b7601b7a6fb1a3b62bca570a9e5d8f4b3de1", "vout": [{"scriptPubKey": {"reqSigs": 1, "hex": "76a9149f5b4296e23d6a8382649a468585f12e89e2285688ac", "addresses": ["1FXbmNAnDDRfVB2R2B1yvgqX1Ni6tiLvpR"], "asm": "OP_DUP OP_HASH160 9f5b4296e23d6a8382649a468585f12e89e22856 OP_EQUALVERIFY OP_CHECKSIG", "type": "pubkeyhash"}, "value": 0.01234657, "n": 0}, {"scriptPubKey": {"reqSigs": 1, "hex": "76a9146073e44b27100e3525d1cb80f86108e65bd2de8a88ac", "addresses": ["19nzhibcn4xdFQKX33dLRwu1Ma6WjfSPTH"], "asm": "OP_DUP OP_HASH160 6073e44b27100e3525d1cb80f86108e65bd2de8a OP_EQUALVERIFY OP_CHECKSIG", "type": "pubkeyhash"}, "value": 37.42115939, "n": 1}], "hex": "01000000014ca6872aafeac97dca36b8db91aca389f05ebdef1f20c0a0978e7f8fbdd9cd71000000006b4830450221008e4e2ca0e53248b849ace3041768fca1d4281b91766aa53218d69f3d4fe3041902201930c0699f1b85dc6d7499c2e1a69463c8597c0f1bb7905de768ec7af5332db10121038d6cfaa09d80d9944c94f1b29a4a9dfeebd8e24423839d56ca5056bfc1a1ee35ffffffff02e1d61200000000001976a9149f5b4296e23d6a8382649a468585f12e89e2285688ac63280cdf000000001976a9146073e44b27100e3525d1cb80f86108e65bd2de8a88ac00000000", "vin": [{"sequence": 4294967295, "scriptSig": {"hex": "4830450221008e4e2ca0e53248b849ace3041768fca1d4281b91766aa53218d69f3d4fe3041902201930c0699f1b85dc6d7499c2e1a69463c8597c0f1bb7905de768ec7af5332db10121038d6cfaa09d80d9944c94f1b29a4a9dfeebd8e24423839d56ca5056bfc1a1ee35", "asm": "30450221008e4e2ca0e53248b849ace3041768fca1d4281b91766aa53218d69f3d4fe3041902201930c0699f1b85dc6d7499c2e1a69463c8597c0f1bb7905de768ec7af5332db1[ALL] 038d6cfaa09d80d9944c94f1b29a4a9dfeebd8e24423839d56ca5056bfc1a1ee35"}, "vout": 0, "txid": "71cdd9bd8f7f8e97a0c0201fefbd5ef089a3ac91dbb836ca7dc9eaaf2a87a64c"}], "txid": "95ec01191df2190327bb4b2338e0c16bc1c8b4903067c5c7ea96cc778f43ac69", "blocktime": 1537873282, "version": 1, "confirmations": 11480, "time": 1537873282, "locktime": 0, "vsize": 226, "size": 226}