{"hash": "95ef2fd861c864fa3533d207c607ada4ad24e843823974d9aaff08caf4181baf", "blockhash": "0000000000000000001f0ddff1eddb255c1121bcd4da4f1bc9a0da00cae72433", "vout": [{"scriptPubKey": {"reqSigs": 1, "hex": "76a914aeee112b26d85ba157578c2e22de1c325c7d3f5188ac", "addresses": ["1GwwmZxCr7dc5KdUm1NsoeKUjepPmoSNrE"], "asm": "OP_DUP OP_HASH160 aeee112b26d85ba157578c2e22de1c325c7d3f51 OP_EQUALVERIFY OP_CHECKSIG", "type": "pubkeyhash"}, "value": 0.00613473, "n": 0}, {"scriptPubKey": {"reqSigs": 1, "hex": "76a9142d431e4abb243b11e27206c0fe2a501bd399f9ab88ac", "addresses": ["158Kp6YQ9jLG6NvnMXxogBq8vx6EFr7FGk"], "asm": "OP_DUP OP_HASH160 2d431e4abb243b11e27206c0fe2a501bd399f9ab OP_EQUALVERIFY OP_CHECKSIG", "type": "pubkeyhash"}, "value": 0.01, "n": 1}], "hex": "0100000003f80f5f03de12dc1acfa867a5f384f9f1dabdb9aa7843edaabc39416945226c1b000000006b48304502210081a52cca0392cbd791b317cd3f8a113fdae4b5ee134ea49aa84ce7c12322d78f02205ed7b10cde0fc76801a8c8202b7ad2e77c911430931502c6ad0c3de10a1de89e012103ed74a144489159144ac1ae36574977c4d45346cd71b1192bb3e95765bdd13384ffffffff13fe48bddedc2c9ae340c5ea2c04a77356f77ddde7c19de670006df721e53d4f000000006b4830450221009e7bd5ce6c7656c681b07027e13c1622ad19b5819b6254571a6684fde0695cd2022018c8d3e60461e1b35a7f4235f4c55c54c9c0e8a92c65b0e6a8c0fee2d783bcc3012102a92120e8d77216f42bc953e7ca0e1772395c545e75b11ba6f478350d0bffa042ffffffff310fe90b35de9f4f44ce769593ffd80fe619d67acd9d0feec35dac341c11c8c3010000006a4730440220414f3a03c390b529d8643f4f0ef2c9a0632d68323ae2433199bc301d86837283022008953cd514b13147c7f0dd9934a3382e5b6a2ba423980242427a4df240314b82012103e38df36c3169298d3fb061ce8c69ce777291da76ac2e3266bec57c4c32d6f531ffffffff02615c0900000000001976a914aeee112b26d85ba157578c2e22de1c325c7d3f5188ac40420f00000000001976a9142d431e4abb243b11e27206c0fe2a501bd399f9ab88ac00000000", "vin": [{"sequence": 4294967295, "scriptSig": {"hex": "48304502210081a52cca0392cbd791b317cd3f8a113fdae4b5ee134ea49aa84ce7c12322d78f02205ed7b10cde0fc76801a8c8202b7ad2e77c911430931502c6ad0c3de10a1de89e012103ed74a144489159144ac1ae36574977c4d45346cd71b1192bb3e95765bdd13384", "asm": "304502210081a52cca0392cbd791b317cd3f8a113fdae4b5ee134ea49aa84ce7c12322d78f02205ed7b10cde0fc76801a8c8202b7ad2e77c911430931502c6ad0c3de10a1de89e[ALL] 03ed74a144489159144ac1ae36574977c4d45346cd71b1192bb3e95765bdd13384"}, "vout": 0, "txid": "1b6c2245694139bcaaed4378aab9bddaf1f984f3a567a8cf1adc12de035f0ff8"}, {"sequence": 4294967295, "scriptSig": {"hex": "4830450221009e7bd5ce6c7656c681b07027e13c1622ad19b5819b6254571a6684fde0695cd2022018c8d3e60461e1b35a7f4235f4c55c54c9c0e8a92c65b0e6a8c0fee2d783bcc3012102a92120e8d77216f42bc953e7ca0e1772395c545e75b11ba6f478350d0bffa042", "asm": "30450221009e7bd5ce6c7656c681b07027e13c1622ad19b5819b6254571a6684fde0695cd2022018c8d3e60461e1b35a7f4235f4c55c54c9c0e8a92c65b0e6a8c0fee2d783bcc3[ALL] 02a92120e8d77216f42bc953e7ca0e1772395c545e75b11ba6f478350d0bffa042"}, "vout": 0, "txid": "4f3de521f76d0070e69dc1e7dd7df75673a7042ceac540e39a2cdcdebd48fe13"}, {"sequence": 4294967295, "scriptSig": {"hex": "4730440220414f3a03c390b529d8643f4f0ef2c9a0632d68323ae2433199bc301d86837283022008953cd514b13147c7f0dd9934a3382e5b6a2ba423980242427a4df240314b82012103e38df36c3169298d3fb061ce8c69ce777291da76ac2e3266bec57c4c32d6f531", "asm": "30440220414f3a03c390b529d8643f4f0ef2c9a0632d68323ae2433199bc301d86837283022008953cd514b13147c7f0dd9934a3382e5b6a2ba423980242427a4df240314b82[ALL] 03e38df36c3169298d3fb061ce8c69ce777291da76ac2e3266bec57c4c32d6f531"}, "vout": 1, "txid": "c3c8111c34ac5dc3ee0f9dcd7ad619e60fd8ff939576ce444f9fde350be90f31"}], "txid": "95ef2fd861c864fa3533d207c607ada4ad24e843823974d9aaff08caf4181baf", "blocktime": 1537872018, "version": 1, "confirmations": 11489, "time": 1537872018, "locktime": 0, "vsize": 521, "size": 521}