{"hash": "95f50f16a23ff62d62c8689a838bbf352e28fca43d8e44393f104375bf19a536", "blockhash": "0000000000000000001cda96e906b7601b7a6fb1a3b62bca570a9e5d8f4b3de1", "vout": [{"scriptPubKey": {"reqSigs": 1, "hex": "76a9147f0a8d670e3f1c5050f78d9dbfc914c3d74a7eab88ac", "addresses": ["1CajTZ4oow6n36QxXMWxQ2dj4NpELdBtec"], "asm": "OP_DUP OP_HASH160 7f0a8d670e3f1c5050f78d9dbfc914c3d74a7eab OP_EQUALVERIFY OP_CHECKSIG", "type": "pubkeyhash"}, "value": 0.00246332, "n": 0}, {"scriptPubKey": {"reqSigs": 1, "hex": "76a914be355c1c35494bc80ca7c4c07eb929b3f48e423c88ac", "addresses": ["1JLjJxDipZ1L4dhHECnikfeUm7SVjMttcu"], "asm": "OP_DUP OP_HASH160 be355c1c35494bc80ca7c4c07eb929b3f48e423c OP_EQUALVERIFY OP_CHECKSIG", "type": "pubkeyhash"}, "value": 0.02935825, "n": 1}], "hex": "0100000005d2ba7ac09854f2cff76377e4d718bec7600162622f8d1681a0e33abf9b32e000000000006a473044022017563bd9c8238e024a4a3dab2fd750e5ae7f5aadd24980b1a5eebb94eda1ef64022072067fec5ad4e2b533745c6c68503b11c2ad312eefed95ec2a4ecd100ed9cf9d012102516608018a0e8e0c19d280c8fbf80146b1916d7b0a210fdf859a2ff8d9fab2d9ffffffff33b8e18bb20e0224e685e71d194fb798e279d3c461e7dab0ddb84ebd9c0c1e2f000000006a473044022055b35e7057c1fa29638ce09e37952e1d25d8e41273be65da4d4db29e2d10721d02204ed836e9b53648fab87a238db7d889d512b0b931814cef439fa79a3c4aae3875012102c04e6205a30cf19f9715b9af7890897db677fcd232ab793afa1b43b12af4a7e7ffffffff392d477bf0e4480c9a6019f66fb85d81ef5352032c28521395201ebe013de558000000006b483045022100f8531ea0f92dfc5ae56575c79436f447e2eb5dab2dfd8a44607af0c005f55bdc022028fddac4c53f0116fad93b95b7f3a3854ac6d326d94034b6b96ee371137ef3c3012103b665c1af016ee20eb1d2fd39aba4c2535b8a992071ead6e39513f0549b1a607effffffff33ec449708e20d99bbbfbd63ee6eb9c10c0cd480c6effacc8a42254f454d0f7b010000006b4830450221008cd88f54d6c58ed58a29e3c3bfe60a130462cf934d73bc23fdd14d25a413560b022013e1f74a3fd84726f9e5040420f38469890ca56311ca59a4bf451c11ab1cb4bc0121020a629f70ae295036ff7b9e73b0fba99333237109671ecfc767ba588843d74f3bffffffffe60fbdcc598e32001f9de75bf192444726672fba41097c2cfd0dcda9220cb6d3000000006b483045022100d01a5a58fc2674e5cde86daa31b489ac72e99894ca0d02b4001972fac9899b8b0220277aac3b7b374b9c5a0048bc4226086def73bffd513b6de1f0819e0adc15aa2f0121034bca4eeeaae284a701e84d39d6d4c04edb7054b2b076bff255f813fb5ddfffc5ffffffff023cc20300000000001976a9147f0a8d670e3f1c5050f78d9dbfc914c3d74a7eab88ac11cc2c00000000001976a914be355c1c35494bc80ca7c4c07eb929b3f48e423c88ac00000000", "vin": [{"sequence": 4294967295, "scriptSig": {"hex": "473044022017563bd9c8238e024a4a3dab2fd750e5ae7f5aadd24980b1a5eebb94eda1ef64022072067fec5ad4e2b533745c6c68503b11c2ad312eefed95ec2a4ecd100ed9cf9d012102516608018a0e8e0c19d280c8fbf80146b1916d7b0a210fdf859a2ff8d9fab2d9", "asm": "3044022017563bd9c8238e024a4a3dab2fd750e5ae7f5aadd24980b1a5eebb94eda1ef64022072067fec5ad4e2b533745c6c68503b11c2ad312eefed95ec2a4ecd100ed9cf9d[ALL] 02516608018a0e8e0c19d280c8fbf80146b1916d7b0a210fdf859a2ff8d9fab2d9"}, "vout": 0, "txid": "00e0329bbf3ae3a081168d2f62620160c7be18d7e47763f7cff25498c07abad2"}, {"sequence": 4294967295, "scriptSig": {"hex": "473044022055b35e7057c1fa29638ce09e37952e1d25d8e41273be65da4d4db29e2d10721d02204ed836e9b53648fab87a238db7d889d512b0b931814cef439fa79a3c4aae3875012102c04e6205a30cf19f9715b9af7890897db677fcd232ab793afa1b43b12af4a7e7", "asm": "3044022055b35e7057c1fa29638ce09e37952e1d25d8e41273be65da4d4db29e2d10721d02204ed836e9b53648fab87a238db7d889d512b0b931814cef439fa79a3c4aae3875[ALL] 02c04e6205a30cf19f9715b9af7890897db677fcd232ab793afa1b43b12af4a7e7"}, "vout": 0, "txid": "2f1e0c9cbd4eb8ddb0dae761c4d379e298b74f191de785e624020eb28be1b833"}, {"sequence": 4294967295, "scriptSig": {"hex": "483045022100f8531ea0f92dfc5ae56575c79436f447e2eb5dab2dfd8a44607af0c005f55bdc022028fddac4c53f0116fad93b95b7f3a3854ac6d326d94034b6b96ee371137ef3c3012103b665c1af016ee20eb1d2fd39aba4c2535b8a992071ead6e39513f0549b1a607e", "asm": "3045022100f8531ea0f92dfc5ae56575c79436f447e2eb5dab2dfd8a44607af0c005f55bdc022028fddac4c53f0116fad93b95b7f3a3854ac6d326d94034b6b96ee371137ef3c3[ALL] 03b665c1af016ee20eb1d2fd39aba4c2535b8a992071ead6e39513f0549b1a607e"}, "vout": 0, "txid": "58e53d01be1e20951352282c035253ef815db86ff619609a0c48e4f07b472d39"}, {"sequence": 4294967295, "scriptSig": {"hex": "4830450221008cd88f54d6c58ed58a29e3c3bfe60a130462cf934d73bc23fdd14d25a413560b022013e1f74a3fd84726f9e5040420f38469890ca56311ca59a4bf451c11ab1cb4bc0121020a629f70ae295036ff7b9e73b0fba99333237109671ecfc767ba588843d74f3b", "asm": "30450221008cd88f54d6c58ed58a29e3c3bfe60a130462cf934d73bc23fdd14d25a413560b022013e1f74a3fd84726f9e5040420f38469890ca56311ca59a4bf451c11ab1cb4bc[ALL] 020a629f70ae295036ff7b9e73b0fba99333237109671ecfc767ba588843d74f3b"}, "vout": 1, "txid": "7b0f4d454f25428accfaefc680d40c0cc1b96eee63bdbfbb990de2089744ec33"}, {"sequence": 4294967295, "scriptSig": {"hex": "483045022100d01a5a58fc2674e5cde86daa31b489ac72e99894ca0d02b4001972fac9899b8b0220277aac3b7b374b9c5a0048bc4226086def73bffd513b6de1f0819e0adc15aa2f0121034bca4eeeaae284a701e84d39d6d4c04edb7054b2b076bff255f813fb5ddfffc5", "asm": "3045022100d01a5a58fc2674e5cde86daa31b489ac72e99894ca0d02b4001972fac9899b8b0220277aac3b7b374b9c5a0048bc4226086def73bffd513b6de1f0819e0adc15aa2f[ALL] 034bca4eeeaae284a701e84d39d6d4c04edb7054b2b076bff255f813fb5ddfffc5"}, "vout": 0, "txid": "d3b60c22a9cd0dfd2c7c0941ba2f6726474492f15be79d1f00328e59ccbd0fe6"}], "txid": "95f50f16a23ff62d62c8689a838bbf352e28fca43d8e44393f104375bf19a536", "blocktime": 1537873282, "version": 1, "confirmations": 11485, "time": 1537873282, "locktime": 0, "vsize": 816, "size": 816}