{"hash": "95f648210a7fa2c80df2ab1a5ac0132093061c09f4bd20166e6c7978d55c4e36", "blockhash": "0000000000000000000e13cef7c366c0283d82e591d1acd082e914b08063cdf1", "vout": [{"scriptPubKey": {"reqSigs": 1, "hex": "76a91464e8cff6a0e12bac1bdd727bab76fd4c9a6f803888ac", "addresses": ["1ACZUGcZe3dkHS1k9oaZA5dsS53dbPv3mr"], "asm": "OP_DUP OP_HASH160 64e8cff6a0e12bac1bdd727bab76fd4c9a6f8038 OP_EQUALVERIFY OP_CHECKSIG", "type": "pubkeyhash"}, "value": 0.00211479, "n": 0}, {"scriptPubKey": {"reqSigs": 1, "hex": "a914bccd86aef1a123bba25f0290716d7cf37d42625c87", "addresses": ["3JuKAp4GBTM84naq2PXEazKnXS3uevsCsn"], "asm": "OP_HASH160 bccd86aef1a123bba25f0290716d7cf37d42625c OP_EQUAL", "type": "scripthash"}, "value": 0.0175, "n": 1}], "hex": "0100000002a4a6086c0744a735cc73e0e98e141cf7c4c47211a69247356773627a1c82b90c000000006a47304402202a90edc7ac865b5878c36aac8bec5a49dcf5c46e08656bdc2e67d2ddd913db6802201fee6e96c9db5af3dabeaf9be575a5ee125849f9bfab073ac37c220e2ed5897e0121020d648c4d11cfa6f9feed004c11ab682f2252dfd8a81e44da702787cb103d95c7ffffffffc2aa7d5af4aa04ea132ad6a0160d0c3d3a59db73f189b0d08be483d373d79dff010000006b483045022100aff3cafc50a77a041522e2119c0f524092c8c01fafd80e793a50f67ca5cc4b6502200eaec71e731a3eb1680e02bdc921047c0c051c8ba41a175515b494dabc3a8eae01210369861985878193b953cb050dc027e53a72f82f1833b518f0d04908d15a853ba9ffffffff02173a0300000000001976a91464e8cff6a0e12bac1bdd727bab76fd4c9a6f803888acf0b31a000000000017a914bccd86aef1a123bba25f0290716d7cf37d42625c8700000000", "vin": [{"sequence": 4294967295, "scriptSig": {"hex": "47304402202a90edc7ac865b5878c36aac8bec5a49dcf5c46e08656bdc2e67d2ddd913db6802201fee6e96c9db5af3dabeaf9be575a5ee125849f9bfab073ac37c220e2ed5897e0121020d648c4d11cfa6f9feed004c11ab682f2252dfd8a81e44da702787cb103d95c7", "asm": "304402202a90edc7ac865b5878c36aac8bec5a49dcf5c46e08656bdc2e67d2ddd913db6802201fee6e96c9db5af3dabeaf9be575a5ee125849f9bfab073ac37c220e2ed5897e[ALL] 020d648c4d11cfa6f9feed004c11ab682f2252dfd8a81e44da702787cb103d95c7"}, "vout": 0, "txid": "0cb9821c7a627367354792a61172c4c4f71c148ee9e073cc35a744076c08a6a4"}, {"sequence": 4294967295, "scriptSig": {"hex": "483045022100aff3cafc50a77a041522e2119c0f524092c8c01fafd80e793a50f67ca5cc4b6502200eaec71e731a3eb1680e02bdc921047c0c051c8ba41a175515b494dabc3a8eae01210369861985878193b953cb050dc027e53a72f82f1833b518f0d04908d15a853ba9", "asm": "3045022100aff3cafc50a77a041522e2119c0f524092c8c01fafd80e793a50f67ca5cc4b6502200eaec71e731a3eb1680e02bdc921047c0c051c8ba41a175515b494dabc3a8eae[ALL] 0369861985878193b953cb050dc027e53a72f82f1833b518f0d04908d15a853ba9"}, "vout": 1, "txid": "ff9dd773d383e48bd0b089f173db593a3d0c0d16a0d62a13ea04aaf45a7daac2"}], "txid": "95f648210a7fa2c80df2ab1a5ac0132093061c09f4bd20166e6c7978d55c4e36", "blocktime": 1537871767, "version": 1, "confirmations": 11491, "time": 1537871767, "locktime": 0, "vsize": 371, "size": 371}