{"hash": "95fd211fc57a7e6d207eff8a20b429913b6d0e3fc6dea76aea9e735c12ac55ea", "blockhash": "0000000000000000001f76057863aec43deb6fa401d9628bb513d65a8098bfab", "vout": [{"scriptPubKey": {"reqSigs": 1, "hex": "76a914a652afbe2295366f29ead3c272d5ef01d7cae45a88ac", "addresses": ["1GASE18Y7sxhGTmKTvp7WtKr4kjFHKfXhK"], "asm": "OP_DUP OP_HASH160 a652afbe2295366f29ead3c272d5ef01d7cae45a OP_EQUALVERIFY OP_CHECKSIG", "type": "pubkeyhash"}, "value": 0.00996027, "n": 0}, {"scriptPubKey": {"reqSigs": 1, "hex": "76a9140e0d6a3fb99a978f74f3318c5171efd317f65ab988ac", "addresses": ["12HJXnAB5LRM8SG3fzNsbeFd45yMuxMyrp"], "asm": "OP_DUP OP_HASH160 0e0d6a3fb99a978f74f3318c5171efd317f65ab9 OP_EQUALVERIFY OP_CHECKSIG", "type": "pubkeyhash"}, "value": 0.46667092, "n": 1}], "hex": "02000000094aa7a3f17eb8010eb2d8de3d1aaa15b71a13a0c9da093a5eeb02f4b1cc71908c030000006a473044022061a6022c7b491d0088260c2fc2384a2e07ef32ed1d597048bf1749669a82a2520220531b9cae9d53eb73fef213752a4fe88f5768eff421484db536c5adf0ac4358570121031641678f89f3616897153b6b66660519a4101961f90292fdc609588e7e22d960feffffff7103f935f31b172bd786947b278e0fbe1c4bc2400f7a71c6598a84d50f0ebd94010000006a47304402206d326405311fbec278e2dde2ae0eebcd4833d89075c0e4f237974010a68e93490220349beed71bdda12e6e9b51e059e43857dd47d618afbbbedb6e06091dcbae072501210310b19d37b72bf7aa7291f2e8cab840dd1be460a417002f7ec59ddbc193277be3feffffffeeb3eb33be67bcbc94b58645c43f00d1f57864efa5633864d9f5eb38d60c46b6000000006b48304502210080f0a2b578111819548e9853aaddfdcdd812778bbf0a0b8d739d43e2cd9ddda20220688644b325c9177fe9f4721eabd06c894ea901342964414c24beaac96d1279ec0121033e5d389452df5831a5063241d379d5c43817a441568ecf3230848f64b933a77efefffffff75e0a8d764b3be1751e36aa7f752e8660ea8e629f6e5006889fbcadd8469b94010000006b483045022100b1552c487d0d6fb94c22aa86c0996c425770f0b52217d6f38821c97be4716ba00220658df87d6e7dc05cc7f424ae1e71f1cccc4d229cff389693caf4343f5bb10b8a012103fd81eaca7c48980be0226d95e8c01a8e19fb6d7bbff27f354b5a61c0b9fcc5f9fefffffff9be05bdc0d9b6a2566ff8f15c0485aedd38b61e5c533e322588adbdcada156d010000006a47304402202899034181ea22ee9a2c1b5b2309d3118605d0d4cea3f6641711826893a681ee0220360de564b5d3cb848b7439a4e8b17c14fa770f356310c3dd85443109893351c0012103a7a860920f0ecb09357deb410529e1221d87b87d34cb62b74e2660d8b7d39dacfeffffffae37be4c23c4641e72f12ab25f16baff1a158e46251e9fc626140678984e0ad0010000006b483045022100917314f0465bc833b6162075df7a7a6e23d6f1dbb2f4d31131fca67ade92ec57022066bb86f33f06512eb9d44ecc5c37164f519b94737a21580b15835b10d0cf17cb0121021da2a4fbe4a6851ef187e389016736397a09a9ce475b70c969288ae1822a823afeffffffd2e7769dcd983ed3848f52d8af1a61e0f4f049f725d619479bae5e2950ebe8c0010000006a47304402204d7516f0a83fa0fdf0f4f80c1d4e20dfbee3e6a57ea342ebe419fcf465716e7f02207e4af2208d77c14d355e679631ca6547d761253fdc2acffdd74a5fcad13674cf0121037b35625b803bc420d1677c3fed335d11658aa5d73ed2be69ad47c61b2b8c0aaafeffffff6608b57b7812105e895c9f6ab1fd2b75868f12d19851b9254b2b499f62fc95c8490000006b483045022100db4c68c90addff8ca5479111d782e8b73839826ec0148f89199639dd83dad61502207e21eb390bb05fa5b2d6744afc20e0135e8149c35609781246642031c4925405012102478edc93d33dc3788279e1ef6fa2c08566099c179032840961fbdc75e8b770dcfeffffffb5946d1cae6e0fe3596244fc1af032b2a3c1c2bb6ec0407cdd48d65d1dc27d67000000006b483045022100ffc6e0e6c545d07d77d124ccbc5d5aa7c5f683a0f99b516420e95fa55a0b0331022054b7eec9a66409b5320d553686a915ee4bd5b1e12e375108470f6fe61754b99d0121038b2cdb2583581b9877dd969aa68550ee060973c24be16028235b7eef759c31d4feffffff02bb320f00000000001976a914a652afbe2295366f29ead3c272d5ef01d7cae45a88ac5415c802000000001976a9140e0d6a3fb99a978f74f3318c5171efd317f65ab988ac13490800", "vin": [{"sequence": 4294967294, "scriptSig": {"hex": "473044022061a6022c7b491d0088260c2fc2384a2e07ef32ed1d597048bf1749669a82a2520220531b9cae9d53eb73fef213752a4fe88f5768eff421484db536c5adf0ac4358570121031641678f89f3616897153b6b66660519a4101961f90292fdc609588e7e22d960", "asm": "3044022061a6022c7b491d0088260c2fc2384a2e07ef32ed1d597048bf1749669a82a2520220531b9cae9d53eb73fef213752a4fe88f5768eff421484db536c5adf0ac435857[ALL] 031641678f89f3616897153b6b66660519a4101961f90292fdc609588e7e22d960"}, "vout": 3, "txid": "8c9071ccb1f402eb5e3a09dac9a0131ab715aa1a3dded8b20e01b87ef1a3a74a"}, {"sequence": 4294967294, "scriptSig": {"hex": "47304402206d326405311fbec278e2dde2ae0eebcd4833d89075c0e4f237974010a68e93490220349beed71bdda12e6e9b51e059e43857dd47d618afbbbedb6e06091dcbae072501210310b19d37b72bf7aa7291f2e8cab840dd1be460a417002f7ec59ddbc193277be3", "asm": "304402206d326405311fbec278e2dde2ae0eebcd4833d89075c0e4f237974010a68e93490220349beed71bdda12e6e9b51e059e43857dd47d618afbbbedb6e06091dcbae0725[ALL] 0310b19d37b72bf7aa7291f2e8cab840dd1be460a417002f7ec59ddbc193277be3"}, "vout": 1, "txid": "94bd0e0fd5848a59c6717a0f40c24b1cbe0f8e277b9486d72b171bf335f90371"}, {"sequence": 4294967294, "scriptSig": {"hex": "48304502210080f0a2b578111819548e9853aaddfdcdd812778bbf0a0b8d739d43e2cd9ddda20220688644b325c9177fe9f4721eabd06c894ea901342964414c24beaac96d1279ec0121033e5d389452df5831a5063241d379d5c43817a441568ecf3230848f64b933a77e", "asm": "304502210080f0a2b578111819548e9853aaddfdcdd812778bbf0a0b8d739d43e2cd9ddda20220688644b325c9177fe9f4721eabd06c894ea901342964414c24beaac96d1279ec[ALL] 033e5d389452df5831a5063241d379d5c43817a441568ecf3230848f64b933a77e"}, "vout": 0, "txid": "b6460cd638ebf5d9643863a5ef6478f5d1003fc44586b594bcbc67be33ebb3ee"}, {"sequence": 4294967294, "scriptSig": {"hex": "483045022100b1552c487d0d6fb94c22aa86c0996c425770f0b52217d6f38821c97be4716ba00220658df87d6e7dc05cc7f424ae1e71f1cccc4d229cff389693caf4343f5bb10b8a012103fd81eaca7c48980be0226d95e8c01a8e19fb6d7bbff27f354b5a61c0b9fcc5f9", "asm": "3045022100b1552c487d0d6fb94c22aa86c0996c425770f0b52217d6f38821c97be4716ba00220658df87d6e7dc05cc7f424ae1e71f1cccc4d229cff389693caf4343f5bb10b8a[ALL] 03fd81eaca7c48980be0226d95e8c01a8e19fb6d7bbff27f354b5a61c0b9fcc5f9"}, "vout": 1, "txid": "949b46d8adbc9f8806506e9f628eea60862e757faa361e75e13b4b768d0a5ef7"}, {"sequence": 4294967294, "scriptSig": {"hex": "47304402202899034181ea22ee9a2c1b5b2309d3118605d0d4cea3f6641711826893a681ee0220360de564b5d3cb848b7439a4e8b17c14fa770f356310c3dd85443109893351c0012103a7a860920f0ecb09357deb410529e1221d87b87d34cb62b74e2660d8b7d39dac", "asm": "304402202899034181ea22ee9a2c1b5b2309d3118605d0d4cea3f6641711826893a681ee0220360de564b5d3cb848b7439a4e8b17c14fa770f356310c3dd85443109893351c0[ALL] 03a7a860920f0ecb09357deb410529e1221d87b87d34cb62b74e2660d8b7d39dac"}, "vout": 1, "txid": "6d15dacabdad8825323e535c1eb638ddae85045cf1f86f56a2b6d9c0bd05bef9"}, {"sequence": 4294967294, "scriptSig": {"hex": "483045022100917314f0465bc833b6162075df7a7a6e23d6f1dbb2f4d31131fca67ade92ec57022066bb86f33f06512eb9d44ecc5c37164f519b94737a21580b15835b10d0cf17cb0121021da2a4fbe4a6851ef187e389016736397a09a9ce475b70c969288ae1822a823a", "asm": "3045022100917314f0465bc833b6162075df7a7a6e23d6f1dbb2f4d31131fca67ade92ec57022066bb86f33f06512eb9d44ecc5c37164f519b94737a21580b15835b10d0cf17cb[ALL] 021da2a4fbe4a6851ef187e389016736397a09a9ce475b70c969288ae1822a823a"}, "vout": 1, "txid": "d00a4e9878061426c69f1e25468e151affba165fb22af1721e64c4234cbe37ae"}, {"sequence": 4294967294, "scriptSig": {"hex": "47304402204d7516f0a83fa0fdf0f4f80c1d4e20dfbee3e6a57ea342ebe419fcf465716e7f02207e4af2208d77c14d355e679631ca6547d761253fdc2acffdd74a5fcad13674cf0121037b35625b803bc420d1677c3fed335d11658aa5d73ed2be69ad47c61b2b8c0aaa", "asm": "304402204d7516f0a83fa0fdf0f4f80c1d4e20dfbee3e6a57ea342ebe419fcf465716e7f02207e4af2208d77c14d355e679631ca6547d761253fdc2acffdd74a5fcad13674cf[ALL] 037b35625b803bc420d1677c3fed335d11658aa5d73ed2be69ad47c61b2b8c0aaa"}, "vout": 1, "txid": "c0e8eb50295eae9b4719d625f749f0f4e0611aafd8528f84d33e98cd9d76e7d2"}, {"sequence": 4294967294, "scriptSig": {"hex": "483045022100db4c68c90addff8ca5479111d782e8b73839826ec0148f89199639dd83dad61502207e21eb390bb05fa5b2d6744afc20e0135e8149c35609781246642031c4925405012102478edc93d33dc3788279e1ef6fa2c08566099c179032840961fbdc75e8b770dc", "asm": "3045022100db4c68c90addff8ca5479111d782e8b73839826ec0148f89199639dd83dad61502207e21eb390bb05fa5b2d6744afc20e0135e8149c35609781246642031c4925405[ALL] 02478edc93d33dc3788279e1ef6fa2c08566099c179032840961fbdc75e8b770dc"}, "vout": 73, "txid": "c895fc629f492b4b25b95198d1128f86752bfdb16a9f5c895e1012787bb50866"}, {"sequence": 4294967294, "scriptSig": {"hex": "483045022100ffc6e0e6c545d07d77d124ccbc5d5aa7c5f683a0f99b516420e95fa55a0b0331022054b7eec9a66409b5320d553686a915ee4bd5b1e12e375108470f6fe61754b99d0121038b2cdb2583581b9877dd969aa68550ee060973c24be16028235b7eef759c31d4", "asm": "3045022100ffc6e0e6c545d07d77d124ccbc5d5aa7c5f683a0f99b516420e95fa55a0b0331022054b7eec9a66409b5320d553686a915ee4bd5b1e12e375108470f6fe61754b99d[ALL] 038b2cdb2583581b9877dd969aa68550ee060973c24be16028235b7eef759c31d4"}, "vout": 0, "txid": "677dc21d5dd648dd7c40c06ebbc2c1a3b232f01afc446259e30f6eae1c6d94b5"}], "txid": "95fd211fc57a7e6d207eff8a20b429913b6d0e3fc6dea76aea9e735c12ac55ea", "blocktime": 1537873891, "version": 2, "confirmations": 11478, "time": 1537873891, "locktime": 542995, "vsize": 1406, "size": 1406}