{"hash": "960557100ca96713e7219018612e77c0ad3a83f844a74763b775dcb749fb3d6a", "blockhash": "00000000000000000024a2167bbff67b0be802c0b01cdd79e6331c2be6459f87", "vout": [{"scriptPubKey": {"reqSigs": 1, "hex": "76a91415eb784f0b39be23c256a14233998e87c739801d88ac", "addresses": ["12zuGmXvTEjnocmmBqLrzKgov4Lk9jNXzK"], "asm": "OP_DUP OP_HASH160 15eb784f0b39be23c256a14233998e87c739801d OP_EQUALVERIFY OP_CHECKSIG", "type": "pubkeyhash"}, "value": 0.0669864, "n": 0}, {"scriptPubKey": {"reqSigs": 1, "hex": "76a914e96c6dacdf8b13655e23e1434b3fe52a378da6ec88ac", "addresses": ["1NHELSEkN3tQi6k3sXxnwJQ8ccEb5HfMM1"], "asm": "OP_DUP OP_HASH160 e96c6dacdf8b13655e23e1434b3fe52a378da6ec OP_EQUALVERIFY OP_CHECKSIG", "type": "pubkeyhash"}, "value": 10.91020471, "n": 1}], "hex": "0200000001bb0c612ad42b5e08c27fc92e62d274acbb033db2b095800043e2bc889de701e6010000006a47304402205b14eaaa7b69b260c441b1bc0511396d94c48c0c1c5b75cb6bda2d015ec7ccda02200af89dcc206e7fb37fb59ec437ef3691735029ae9d8dce1bcaafe0b468e321f9012102271e77fedc5b28dab65c82552f7cf3ddfc360fd6af956332c5188040d2eebfabffffffff0290366600000000001976a91415eb784f0b39be23c256a14233998e87c739801d88acb7a60741000000001976a914e96c6dacdf8b13655e23e1434b3fe52a378da6ec88ac00000000", "vin": [{"sequence": 4294967295, "scriptSig": {"hex": "47304402205b14eaaa7b69b260c441b1bc0511396d94c48c0c1c5b75cb6bda2d015ec7ccda02200af89dcc206e7fb37fb59ec437ef3691735029ae9d8dce1bcaafe0b468e321f9012102271e77fedc5b28dab65c82552f7cf3ddfc360fd6af956332c5188040d2eebfab", "asm": "304402205b14eaaa7b69b260c441b1bc0511396d94c48c0c1c5b75cb6bda2d015ec7ccda02200af89dcc206e7fb37fb59ec437ef3691735029ae9d8dce1bcaafe0b468e321f9[ALL] 02271e77fedc5b28dab65c82552f7cf3ddfc360fd6af956332c5188040d2eebfab"}, "vout": 1, "txid": "e601e79d88bce243008095b0b23d03bbac74d2622ec97fc2085e2bd42a610cbb"}], "txid": "960557100ca96713e7219018612e77c0ad3a83f844a74763b775dcb749fb3d6a", "blocktime": 1537870564, "version": 2, "confirmations": 11515, "time": 1537870564, "locktime": 0, "vsize": 225, "size": 225}