{"hash": "960f18b26134ab1fbe9501babbb64d95c2ff329af06a80267dddb54c88d5d519", "blockhash": "0000000000000000000e13cef7c366c0283d82e591d1acd082e914b08063cdf1", "vout": [{"scriptPubKey": {"reqSigs": 1, "hex": "76a914eea312d0702c85e3951c3ab89329c364d335433588ac", "addresses": ["1NkoBCdj4bNyDVKKxq8TMjGJ3hoWyymk2h"], "asm": "OP_DUP OP_HASH160 eea312d0702c85e3951c3ab89329c364d3354335 OP_EQUALVERIFY OP_CHECKSIG", "type": "pubkeyhash"}, "value": 0.01250643, "n": 0}, {"scriptPubKey": {"reqSigs": 1, "hex": "76a914cbebca2ef787e9718b97c531937752059225016c88ac", "addresses": ["1KbEduMVcse2s4NFy7co16AC5PuERQxiAN"], "asm": "OP_DUP OP_HASH160 cbebca2ef787e9718b97c531937752059225016c OP_EQUALVERIFY OP_CHECKSIG", "type": "pubkeyhash"}, "value": 0.01499872, "n": 1}], "hex": "0100000001a608225f5c72026abaac22d55872646d5e25eedf11bef8ffc3f85567fde95c60010000006a47304402203cf1b2cfac74b16bec07694345ddfe3549195aff9d9395cf7bda2f4683d7f92f0220645f25d324147ca0ffd3ddc950d3ae44a8ad3b9d36f1e0f26dec9471e14c3dbc012103d318dcc54ff32daf930b54152da51dda5e2100b7022d1f03e72025b58e621ab2ffffffff0253151300000000001976a914eea312d0702c85e3951c3ab89329c364d335433588ace0e21600000000001976a914cbebca2ef787e9718b97c531937752059225016c88ac00000000", "vin": [{"sequence": 4294967295, "scriptSig": {"hex": "47304402203cf1b2cfac74b16bec07694345ddfe3549195aff9d9395cf7bda2f4683d7f92f0220645f25d324147ca0ffd3ddc950d3ae44a8ad3b9d36f1e0f26dec9471e14c3dbc012103d318dcc54ff32daf930b54152da51dda5e2100b7022d1f03e72025b58e621ab2", "asm": "304402203cf1b2cfac74b16bec07694345ddfe3549195aff9d9395cf7bda2f4683d7f92f0220645f25d324147ca0ffd3ddc950d3ae44a8ad3b9d36f1e0f26dec9471e14c3dbc[ALL] 03d318dcc54ff32daf930b54152da51dda5e2100b7022d1f03e72025b58e621ab2"}, "vout": 1, "txid": "605ce9fd6755f8c3fff8be11dfee255e6d647258d522acba6a02725c5f2208a6"}], "txid": "960f18b26134ab1fbe9501babbb64d95c2ff329af06a80267dddb54c88d5d519", "blocktime": 1537871767, "version": 1, "confirmations": 11495, "time": 1537871767, "locktime": 0, "vsize": 225, "size": 225}