{"hash": "961333f7f339908da355cc7adaf11fc89bc5fbeba91efffb57013200f4db675b", "blockhash": "0000000000000000001cda96e906b7601b7a6fb1a3b62bca570a9e5d8f4b3de1", "vout": [{"scriptPubKey": {"type": "nulldata", "hex": "6a4c50000077c10001e9c5dd43c2335cac7bfc03a6e5bf9ae76da98a211aaf6c953dd567cf27e70fc5dc1aa92c23a796bccb3236380c055baa12b60612efd997c6c6ed1d100759d4ba30d2c37bb011d97e02cf", "asm": "OP_RETURN 000077c10001e9c5dd43c2335cac7bfc03a6e5bf9ae76da98a211aaf6c953dd567cf27e70fc5dc1aa92c23a796bccb3236380c055baa12b60612efd997c6c6ed1d100759d4ba30d2c37bb011d97e02cf"}, "value": 0.0, "n": 0}, {"scriptPubKey": {"reqSigs": 1, "hex": "76a914393d7cd3c26b64942c5a962f5b2f314a45138c6c88ac", "addresses": ["16DfBAkXBJceQsjMDWhkEtFpnCcL5nNrs2"], "asm": "OP_DUP OP_HASH160 393d7cd3c26b64942c5a962f5b2f314a45138c6c OP_EQUALVERIFY OP_CHECKSIG", "type": "pubkeyhash"}, "value": 0.00639375, "n": 1}], "hex": "01000000012ea559bec77aeeb2f6c51df15594cb25b27f044e18051cae5a82cc9f92044cd3000000006b483045022100ddf044af1af4bf297672fa7f94d586cee67ee083e8ec2640c6fbf12aad30a0dc022049d7caf23aeecc045164e67b8b95c3ef1b331aeeef54d3a3120ef3f94c09f48f012103b378493eaa03a63750a6057ebc3a26c399030ca7b85d52da91afd51eff54810affffffff020000000000000000536a4c50000077c10001e9c5dd43c2335cac7bfc03a6e5bf9ae76da98a211aaf6c953dd567cf27e70fc5dc1aa92c23a796bccb3236380c055baa12b60612efd997c6c6ed1d100759d4ba30d2c37bb011d97e02cf8fc10900000000001976a914393d7cd3c26b64942c5a962f5b2f314a45138c6c88ac00000000", "vin": [{"sequence": 4294967295, "scriptSig": {"hex": "483045022100ddf044af1af4bf297672fa7f94d586cee67ee083e8ec2640c6fbf12aad30a0dc022049d7caf23aeecc045164e67b8b95c3ef1b331aeeef54d3a3120ef3f94c09f48f012103b378493eaa03a63750a6057ebc3a26c399030ca7b85d52da91afd51eff54810a", "asm": "3045022100ddf044af1af4bf297672fa7f94d586cee67ee083e8ec2640c6fbf12aad30a0dc022049d7caf23aeecc045164e67b8b95c3ef1b331aeeef54d3a3120ef3f94c09f48f[ALL] 03b378493eaa03a63750a6057ebc3a26c399030ca7b85d52da91afd51eff54810a"}, "vout": 0, "txid": "d34c04929fcc825aae1c05184e047fb225cb9455f11dc5f6b2ee7ac7be59a52e"}], "txid": "961333f7f339908da355cc7adaf11fc89bc5fbeba91efffb57013200f4db675b", "blocktime": 1537873282, "version": 1, "confirmations": 11484, "time": 1537873282, "locktime": 0, "vsize": 284, "size": 284}