{"hash": "f5f6defb48d06f4585862a8b7a686121859a678413e89af220f5a7f4ab9eefd9", "blockhash": "00000000000000000017f5eb5941039fbcee6240d03bc1f2f8e35350df66a1d8", "vout": [{"scriptPubKey": {"reqSigs": 1, "hex": "76a91460a548709ea487fc4c9d0fea2a1efd16f0350b7688ac", "addresses": ["19p1sUhyM8tYT8BG1d5bh45ogdbmhtHbp3"], "asm": "OP_DUP OP_HASH160 60a548709ea487fc4c9d0fea2a1efd16f0350b76 OP_EQUALVERIFY OP_CHECKSIG", "type": "pubkeyhash"}, "value": 0.0101095, "n": 0}, {"scriptPubKey": {"reqSigs": 1, "hex": "a914cf1b8f4f754af7f6f6c348b0f6ae83d5eb97b69d87", "addresses": ["3La6p9ASgKPY6QQgjhWX52iMZNWQ2Awiba"], "asm": "OP_HASH160 cf1b8f4f754af7f6f6c348b0f6ae83d5eb97b69d OP_EQUAL", "type": "scripthash"}, "value": 0.31049083, "n": 1}], "hex": "02000000000101ffd9402a066826e4e2e8b47cc8ac276745bbc3901e38467a5f62380e2febb273000000001716001452dfb96a3c3710b7ede975b913a698866e066133fdffffff02066d0f00000000001976a91460a548709ea487fc4c9d0fea2a1efd16f0350b7688ac7bc5d9010000000017a914cf1b8f4f754af7f6f6c348b0f6ae83d5eb97b69d8702483045022100ef3b65594c5e2eb377c1b8a898f092a5a2849ab0d717831dd4ae84b4b80cd9f702203a851bf4f4b8dc847b30d76a0ed202d67f97224ab51e8944bfa0f25b74223bc2012103914d9f5dc1ca7eb23261fad4ea52d116f755d4c4a50236ebf2935fe166ae287014490800", "vin": [{"txinwitness": ["3045022100ef3b65594c5e2eb377c1b8a898f092a5a2849ab0d717831dd4ae84b4b80cd9f702203a851bf4f4b8dc847b30d76a0ed202d67f97224ab51e8944bfa0f25b74223bc201", "03914d9f5dc1ca7eb23261fad4ea52d116f755d4c4a50236ebf2935fe166ae2870"], "sequence": 4294967293, "scriptSig": {"hex": "16001452dfb96a3c3710b7ede975b913a698866e066133", "asm": "001452dfb96a3c3710b7ede975b913a698866e066133"}, "vout": 0, "txid": "73b2eb2f0e38625f7a46381e90c3bb456727acc87cb4e8e2e42668062a40d9ff"}], "txid": "96150d86980c4cdc9799a84de432621e099c14dbeec1bc393320a4a0cd07c66e", "blocktime": 1537874412, "version": 2, "confirmations": 11467, "time": 1537874412, "locktime": 542996, "vsize": 168, "size": 250}