{"hash": "96173e7dc009137a0451d78aad16896bfd356427f731b259bffe9fda2c492ccd", "blockhash": "0000000000000000001cda96e906b7601b7a6fb1a3b62bca570a9e5d8f4b3de1", "vout": [{"scriptPubKey": {"reqSigs": 1, "hex": "76a9148acfe6fa5ea62cf934fb9237b6ddb9fbdf80d3e788ac", "addresses": ["1DeyJmw9LCF9ticTE4U7AXchohK7HtgFe8"], "asm": "OP_DUP OP_HASH160 8acfe6fa5ea62cf934fb9237b6ddb9fbdf80d3e7 OP_EQUALVERIFY OP_CHECKSIG", "type": "pubkeyhash"}, "value": 1.0, "n": 0}, {"scriptPubKey": {"reqSigs": 1, "hex": "76a914d66952374d017988591aa66a0d8c68cd58a59e2188ac", "addresses": ["1LYhmtrDipzGRxFYVCkenSBuFP1CXizr82"], "asm": "OP_DUP OP_HASH160 d66952374d017988591aa66a0d8c68cd58a59e21 OP_EQUALVERIFY OP_CHECKSIG", "type": "pubkeyhash"}, "value": 0.02410323, "n": 1}], "hex": "01000000052340f7e1882908cea999aeabee4acd96ad7139a1e4537390f5b5b47d381ad266000000006a4730440220110a862171a56f259c9f07485d039f5cccd8ab126c69552ec2153cba73d06478022036021933ed77e4906eb8e048de6392463e394ad28b19d23386c1e3c8986f20ee01210264332b8414ca49dfed93450064dc0771433c9f15bd33092c56f118ef865b2d14ffffffff4f32590ba62acbdf9472cd9cb6e78e4c9079b7e627aaf725424bd89f35db0720030000006a4730440220658a83596a9abbfcf03eb32e2c579ab7f707988b592c2e43b88d6d5e386d802e0220751bdddb2cf10295628a957d8148b745c812f276af77ecbec4283b72612b8e96012102fbbf632658915a6d35d0ade39da183c8c134c9c8e327bcd5c5383aac72fb2e50ffffffffda2db1f3a90dfc433013b06f4580997f3d3c8a1cc84595b9b87c7df0ef47927c000000006a47304402205e32747f62eeb130fd071637ba7db72956d3a3946cfaca3752b0ec4d444466370220777d41f2e4940dd629233dca58e544683cebc43bb002ea465874a3771d561ffc012103c4747848c37c859e006292ca2e52a8e01c7d4bf1454119425fa7421137101c1bffffffff095f021e6250004f50dc014c5778a22a9af474e50ee327bbe1d76245834b224b000000006b4830450221009ca738812ca5aa89d47adeeae38d9ea14bf7c7c24cfe8e2012c80e2ba9637702022034a48ac05dd6c31adb4cde96403e94b200b4644eade7b3d3c5fdc6673a602bd00121037b45de86cacba0b7bd38c55ec24abee96027cd38581d2989999004413554d7deffffffffae083b401bf2c719cab800f35026a06939c8d30fd9aa16a0ebe688708d3f97c0010000006a47304402205bd2379b24891556c4c6f856eb8660f4fb1a5f58e3fe97eb11afb6f3074cf6f8022012b33b1ba47fdfb4e2222505e5022cf497ef8bf0e2d4db1ce45794c3282c022c0121020bb90bfcb04c069442bceff18f77a9fdfaaecba119fc888cb9e2efb1aac09737ffffffff0200e1f505000000001976a9148acfe6fa5ea62cf934fb9237b6ddb9fbdf80d3e788ac53c72400000000001976a914d66952374d017988591aa66a0d8c68cd58a59e2188ac00000000", "vin": [{"sequence": 4294967295, "scriptSig": {"hex": "4730440220110a862171a56f259c9f07485d039f5cccd8ab126c69552ec2153cba73d06478022036021933ed77e4906eb8e048de6392463e394ad28b19d23386c1e3c8986f20ee01210264332b8414ca49dfed93450064dc0771433c9f15bd33092c56f118ef865b2d14", "asm": "30440220110a862171a56f259c9f07485d039f5cccd8ab126c69552ec2153cba73d06478022036021933ed77e4906eb8e048de6392463e394ad28b19d23386c1e3c8986f20ee[ALL] 0264332b8414ca49dfed93450064dc0771433c9f15bd33092c56f118ef865b2d14"}, "vout": 0, "txid": "66d21a387db4b5f5907353e4a13971ad96cd4aeeabae99a9ce082988e1f74023"}, {"sequence": 4294967295, "scriptSig": {"hex": "4730440220658a83596a9abbfcf03eb32e2c579ab7f707988b592c2e43b88d6d5e386d802e0220751bdddb2cf10295628a957d8148b745c812f276af77ecbec4283b72612b8e96012102fbbf632658915a6d35d0ade39da183c8c134c9c8e327bcd5c5383aac72fb2e50", "asm": "30440220658a83596a9abbfcf03eb32e2c579ab7f707988b592c2e43b88d6d5e386d802e0220751bdddb2cf10295628a957d8148b745c812f276af77ecbec4283b72612b8e96[ALL] 02fbbf632658915a6d35d0ade39da183c8c134c9c8e327bcd5c5383aac72fb2e50"}, "vout": 3, "txid": "2007db359fd84b4225f7aa27e6b779904c8ee7b69ccd7294dfcb2aa60b59324f"}, {"sequence": 4294967295, "scriptSig": {"hex": "47304402205e32747f62eeb130fd071637ba7db72956d3a3946cfaca3752b0ec4d444466370220777d41f2e4940dd629233dca58e544683cebc43bb002ea465874a3771d561ffc012103c4747848c37c859e006292ca2e52a8e01c7d4bf1454119425fa7421137101c1b", "asm": "304402205e32747f62eeb130fd071637ba7db72956d3a3946cfaca3752b0ec4d444466370220777d41f2e4940dd629233dca58e544683cebc43bb002ea465874a3771d561ffc[ALL] 03c4747848c37c859e006292ca2e52a8e01c7d4bf1454119425fa7421137101c1b"}, "vout": 0, "txid": "7c9247eff07d7cb8b99545c81c8a3c3d7f9980456fb0133043fc0da9f3b12dda"}, {"sequence": 4294967295, "scriptSig": {"hex": "4830450221009ca738812ca5aa89d47adeeae38d9ea14bf7c7c24cfe8e2012c80e2ba9637702022034a48ac05dd6c31adb4cde96403e94b200b4644eade7b3d3c5fdc6673a602bd00121037b45de86cacba0b7bd38c55ec24abee96027cd38581d2989999004413554d7de", "asm": "30450221009ca738812ca5aa89d47adeeae38d9ea14bf7c7c24cfe8e2012c80e2ba9637702022034a48ac05dd6c31adb4cde96403e94b200b4644eade7b3d3c5fdc6673a602bd0[ALL] 037b45de86cacba0b7bd38c55ec24abee96027cd38581d2989999004413554d7de"}, "vout": 0, "txid": "4b224b834562d7e1bb27e30ee574f49a2aa278574c01dc504f0050621e025f09"}, {"sequence": 4294967295, "scriptSig": {"hex": "47304402205bd2379b24891556c4c6f856eb8660f4fb1a5f58e3fe97eb11afb6f3074cf6f8022012b33b1ba47fdfb4e2222505e5022cf497ef8bf0e2d4db1ce45794c3282c022c0121020bb90bfcb04c069442bceff18f77a9fdfaaecba119fc888cb9e2efb1aac09737", "asm": "304402205bd2379b24891556c4c6f856eb8660f4fb1a5f58e3fe97eb11afb6f3074cf6f8022012b33b1ba47fdfb4e2222505e5022cf497ef8bf0e2d4db1ce45794c3282c022c[ALL] 020bb90bfcb04c069442bceff18f77a9fdfaaecba119fc888cb9e2efb1aac09737"}, "vout": 1, "txid": "c0973f8d7088e6eba016aad90fd3c83969a02650f300b8ca19c7f21b403b08ae"}], "txid": "96173e7dc009137a0451d78aad16896bfd356427f731b259bffe9fda2c492ccd", "blocktime": 1537873282, "version": 1, "confirmations": 11480, "time": 1537873282, "locktime": 0, "vsize": 814, "size": 814}