{"hash": "bf79266a4f5a0d24d537695cd5ccb5b7a9a9961c084209b0e9a667fbf79e4123", "blockhash": "00000000000000000017f5eb5941039fbcee6240d03bc1f2f8e35350df66a1d8", "vout": [{"scriptPubKey": {"reqSigs": 1, "hex": "001410e90d1b21197c1c54fd5c1a8c2d2626613f4b6c", "addresses": ["bc1qzr5s6xepr97pc48atsdgctfxyesn7jmvyark2p"], "asm": "0 10e90d1b21197c1c54fd5c1a8c2d2626613f4b6c", "type": "witness_v0_keyhash"}, "value": 0.00010863, "n": 0}, {"scriptPubKey": {"reqSigs": 1, "hex": "a914f3c5abd199bed5f0876b38dc3e2ecafe2deee0d087", "addresses": ["3PuxvbHmsYu9EYUi22RCRWuuwW7AgRsGdg"], "asm": "OP_HASH160 f3c5abd199bed5f0876b38dc3e2ecafe2deee0d0 OP_EQUAL", "type": "scripthash"}, "value": 0.01300507, "n": 1}], "hex": "010000000001018cad43f6d6cee5f251afb5141fea5abc80ee732c88853151e46892a74faa37fb1500000017160014a13bae37f73d3fde4c713dbb36cb8fcb83fac577ffffffff026f2a00000000000016001410e90d1b21197c1c54fd5c1a8c2d2626613f4b6c1bd813000000000017a914f3c5abd199bed5f0876b38dc3e2ecafe2deee0d08702473044022054203aefb7d26dee94ccf1af12a9266f2659725532c5786d49360b41050ec10602203c58c51df6a4f7193f1b62e60acb087c8d5b426b4073cbe10d21d3062b0822ec012103922b09a04f077bfab11ca6a84238e9836595061e09b195d041c8d7eeb968655700000000", "vin": [{"txinwitness": ["3044022054203aefb7d26dee94ccf1af12a9266f2659725532c5786d49360b41050ec10602203c58c51df6a4f7193f1b62e60acb087c8d5b426b4073cbe10d21d3062b0822ec01", "03922b09a04f077bfab11ca6a84238e9836595061e09b195d041c8d7eeb9686557"], "sequence": 4294967295, "scriptSig": {"hex": "160014a13bae37f73d3fde4c713dbb36cb8fcb83fac577", "asm": "0014a13bae37f73d3fde4c713dbb36cb8fcb83fac577"}, "vout": 21, "txid": "fb37aa4fa79268e4513185882c73ee80bc5aea1f14b5af51f2e5ced6f643ad8c"}], "txid": "9626b3d66053649d7c20000c9832a531025662616603d1ad9814f05aacd60b6d", "blocktime": 1537874412, "version": 1, "confirmations": 11468, "time": 1537874412, "locktime": 0, "vsize": 165, "size": 246}