{"hash": "9d09514d6d22477b93b354de96ea9951bf7d2dbe101731a13e2e2e93ddb500d9", "blockhash": "0000000000000000000e13cef7c366c0283d82e591d1acd082e914b08063cdf1", "vout": [{"scriptPubKey": {"reqSigs": 1, "hex": "a914ada4b5fb996030a6192afd4ff1fff15d8305171187", "addresses": ["3HXA93QctGdfFkM1FRLp9AfGbmhHSYYpm4"], "asm": "OP_HASH160 ada4b5fb996030a6192afd4ff1fff15d83051711 OP_EQUAL", "type": "scripthash"}, "value": 0.2057025, "n": 0}, {"scriptPubKey": {"reqSigs": 1, "hex": "76a9148bd54ccdc06e9d29b750aec1d493da87f592f66288ac", "addresses": ["1DkNT1Y8qZgwB2kUykar1PbUGA1Gk6U8sg"], "asm": "OP_DUP OP_HASH160 8bd54ccdc06e9d29b750aec1d493da87f592f662 OP_EQUALVERIFY OP_CHECKSIG", "type": "pubkeyhash"}, "value": 0.08300812, "n": 1}, {"scriptPubKey": {"reqSigs": 1, "hex": "a9147956ffe25ca05572660745ec73a52a48312bd14587", "addresses": ["3CkbubAHx5VS6bhCgPBzGeWK58Yj1ChpjR"], "asm": "OP_HASH160 7956ffe25ca05572660745ec73a52a48312bd145 OP_EQUAL", "type": "scripthash"}, "value": 0.01485895, "n": 2}], "hex": "020000000001033e986d0bae04c423369daeef1203142787340eecda9a112edb0af528ad1a5c740000000017160014543ed1b682b33b6ca26e4a9c758e3db5cebcda78feffffff65dc61c099a1cf9529e8d86ebdb71e434683eba50a4c9ba0d0e8c63d1323c8f20100000017160014e1c3976d8a80abf709d47ed48bc796082f804520fefffffffcbec83969df90a7785806e7169ba61dd3978218ca10b7911df3996ee9f69d38040000006b483045022100cb454fddaa234d49c9fcdd51e62ce52c21fa3842738c7b921658ec27c92850110220113c47ed13dc6abb1e266c6bf330d864ab23318591d92604fc3f37446ac97fd3012103c1046e3cdaa881969f6ccf2f74c550232662974dabbbb3ecd947b2b3f0725becfeffffff038ae039010000000017a914ada4b5fb996030a6192afd4ff1fff15d83051711870ca97e00000000001976a9148bd54ccdc06e9d29b750aec1d493da87f592f66288ac47ac16000000000017a9147956ffe25ca05572660745ec73a52a48312bd145870247304402201e29f120c26d6473f9c1e3e7596669f48cb818d094feb2354ad108022767b89c0220650a2f3527817ac00734f9e355ea0113fd7a04964e40c3f41b36d12faf75a122012103b44ab359389023fa74b5a4ac06b92ab94b98c777a132de24297fec2411e4a1b102483045022100885e5c4ea94ebd54f969b175b4976a399f537a0e1d4ac1c5e7c88db826402dff02202b988557d5eec32c66e73a448ab118ff21fa585fdfc016c4329049c7987a8c0001210374ac4d1bae7b4fb12605bfb1b5e40eccd0e1e3f7ddf3357112aea9f823a88db30010490800", "vin": [{"txinwitness": ["304402201e29f120c26d6473f9c1e3e7596669f48cb818d094feb2354ad108022767b89c0220650a2f3527817ac00734f9e355ea0113fd7a04964e40c3f41b36d12faf75a12201", "03b44ab359389023fa74b5a4ac06b92ab94b98c777a132de24297fec2411e4a1b1"], "sequence": 4294967294, "scriptSig": {"hex": "160014543ed1b682b33b6ca26e4a9c758e3db5cebcda78", "asm": "0014543ed1b682b33b6ca26e4a9c758e3db5cebcda78"}, "vout": 0, "txid": "745c1aad28f50adb2e119adaec0e348727140312efae9d3623c404ae0b6d983e"}, {"txinwitness": ["3045022100885e5c4ea94ebd54f969b175b4976a399f537a0e1d4ac1c5e7c88db826402dff02202b988557d5eec32c66e73a448ab118ff21fa585fdfc016c4329049c7987a8c0001", "0374ac4d1bae7b4fb12605bfb1b5e40eccd0e1e3f7ddf3357112aea9f823a88db3"], "sequence": 4294967294, "scriptSig": {"hex": "160014e1c3976d8a80abf709d47ed48bc796082f804520", "asm": "0014e1c3976d8a80abf709d47ed48bc796082f804520"}, "vout": 1, "txid": "f2c823133dc6e8d0a09b4c0aa5eb8346431eb7bd6ed8e82995cfa199c061dc65"}, {"sequence": 4294967294, "scriptSig": {"hex": "483045022100cb454fddaa234d49c9fcdd51e62ce52c21fa3842738c7b921658ec27c92850110220113c47ed13dc6abb1e266c6bf330d864ab23318591d92604fc3f37446ac97fd3012103c1046e3cdaa881969f6ccf2f74c550232662974dabbbb3ecd947b2b3f0725bec", "asm": "3045022100cb454fddaa234d49c9fcdd51e62ce52c21fa3842738c7b921658ec27c92850110220113c47ed13dc6abb1e266c6bf330d864ab23318591d92604fc3f37446ac97fd3[ALL] 03c1046e3cdaa881969f6ccf2f74c550232662974dabbbb3ecd947b2b3f0725bec"}, "vout": 4, "txid": "389df6e96e99f31d91b710ca188297d31da69b16e7065878a790df6939c8befc"}], "txid": "962794853e87f154434931224f36f77cbe8f20cd2e6580227ebbfdabfc01a973", "blocktime": 1537871767, "version": 2, "confirmations": 11490, "time": 1537871767, "locktime": 542992, "vsize": 439, "size": 602}