{"hash": "96274b26c3d7c55f71264a9ab2eccbbaf09db6edf959f641ec67bc5ba7e63a0d", "blockhash": "0000000000000000000e13cef7c366c0283d82e591d1acd082e914b08063cdf1", "vout": [{"scriptPubKey": {"reqSigs": 1, "hex": "a91499deb1dca896b45b01e92ed01383d6c2af16811387", "addresses": ["3Fic5zqEe4t9SLvVdVzSDzf1BEcba7m6Zp"], "asm": "OP_HASH160 99deb1dca896b45b01e92ed01383d6c2af168113 OP_EQUAL", "type": "scripthash"}, "value": 0.00187256, "n": 0}], "hex": "01000000011ff3dd94ff7209e9550416bb3b44d6b10d17b284bc055bdea8cda0577ef7bd4a000000006b4830450221009c0229381b9b3f89ab9102a65fbd6e19b626996eac792858cb3f7d4c19cfded202207f8589b4ab33531f1d542fa5566ac9497c5f8cd9899af0504d5d905544e024bf01210217013fcf790cb70735ede7fd708cb34e1c4cb17d08f61f8d84606f4e43469c10ffffffff0178db02000000000017a91499deb1dca896b45b01e92ed01383d6c2af1681138700000000", "vin": [{"sequence": 4294967295, "scriptSig": {"hex": "4830450221009c0229381b9b3f89ab9102a65fbd6e19b626996eac792858cb3f7d4c19cfded202207f8589b4ab33531f1d542fa5566ac9497c5f8cd9899af0504d5d905544e024bf01210217013fcf790cb70735ede7fd708cb34e1c4cb17d08f61f8d84606f4e43469c10", "asm": "30450221009c0229381b9b3f89ab9102a65fbd6e19b626996eac792858cb3f7d4c19cfded202207f8589b4ab33531f1d542fa5566ac9497c5f8cd9899af0504d5d905544e024bf[ALL] 0217013fcf790cb70735ede7fd708cb34e1c4cb17d08f61f8d84606f4e43469c10"}, "vout": 0, "txid": "4abdf77e57a0cda8de5b05bc84b2170db1d6443bbb160455e90972ff94ddf31f"}], "txid": "96274b26c3d7c55f71264a9ab2eccbbaf09db6edf959f641ec67bc5ba7e63a0d", "blocktime": 1537871767, "version": 1, "confirmations": 11490, "time": 1537871767, "locktime": 0, "vsize": 190, "size": 190}