{"hash": "8c113c6fde77912ed4d79c4bec3f63fdfd904a9d8040be1e6f26c9875364c965", "blockhash": "0000000000000000000baef3f32e3676a92c3b2e5da21b426e4f302fc371ce76", "vout": [{"scriptPubKey": {"reqSigs": 1, "hex": "a914167d8267ff4b8e7bb7aee1e13754b4ee17011b6787", "addresses": ["33jw9Jw15dPptmcYYp4JGk3EwHfRv6DDCW"], "asm": "OP_HASH160 167d8267ff4b8e7bb7aee1e13754b4ee17011b67 OP_EQUAL", "type": "scripthash"}, "value": 0.00015682, "n": 0}, {"scriptPubKey": {"reqSigs": 1, "hex": "a914b2e6a8e553bd7e11c1392f8d61e19b5888e139c087", "addresses": ["3HzxXD8PhqJETjkWrQYD4nYc6yKx3mGLXi"], "asm": "OP_HASH160 b2e6a8e553bd7e11c1392f8d61e19b5888e139c0 OP_EQUAL", "type": "scripthash"}, "value": 0.00233553, "n": 1}], "hex": "01000000000101ea88274be2e96c9b7cb2b253730f55aef32cb094d9e68fd03325ef1ca744f591010000002322002045dc4a8e7a7ed593d2ea538a381c31e2607ee08f052e914f99311fee2a8f4d56ffffffff02423d00000000000017a914167d8267ff4b8e7bb7aee1e13754b4ee17011b6787519003000000000017a914b2e6a8e553bd7e11c1392f8d61e19b5888e139c0870400483045022100d18d993b9f8a754f507d8741360c5c218e7e2d589684c9d61fb94eaae39fc5bf0220519430b286f328469420ad917328d0420bc198951da5cb5f7f68423dd87ece01014830450221009960561f192eaa2ac3ae894d60039ec6f52d1204efc774226a7a03c541af9eae0220707dc844e1ec22c0640b4aea647d4ca6f6be17ddcb78d7a93cae4365370f15f1014752210333a2cce5556afb7a9431cdacaea04e945b9daa974227ab5f4aca265bc268c7952103871fc2ca08e6950b38867e8e6a0e94ee625223d3aa0df5c65f414c6d784467e252ae00000000", "vin": [{"txinwitness": ["", "3045022100d18d993b9f8a754f507d8741360c5c218e7e2d589684c9d61fb94eaae39fc5bf0220519430b286f328469420ad917328d0420bc198951da5cb5f7f68423dd87ece0101", "30450221009960561f192eaa2ac3ae894d60039ec6f52d1204efc774226a7a03c541af9eae0220707dc844e1ec22c0640b4aea647d4ca6f6be17ddcb78d7a93cae4365370f15f101", "52210333a2cce5556afb7a9431cdacaea04e945b9daa974227ab5f4aca265bc268c7952103871fc2ca08e6950b38867e8e6a0e94ee625223d3aa0df5c65f414c6d784467e252ae"], "sequence": 4294967295, "scriptSig": {"hex": "22002045dc4a8e7a7ed593d2ea538a381c31e2607ee08f052e914f99311fee2a8f4d56", "asm": "002045dc4a8e7a7ed593d2ea538a381c31e2607ee08f052e914f99311fee2a8f4d56"}, "vout": 1, "txid": "91f544a71cef2533d08fe6d994b02cf3ae550f7353b2b27c9b6ce9e24b2788ea"}], "txid": "96287aa723df6013f2cbde4f3ed19d9904ced56df2cae0604f89857093aaa548", "blocktime": 1537876114, "version": 1, "confirmations": 11463, "time": 1537876114, "locktime": 0, "vsize": 206, "size": 372}