{"hash": "963955570b6e06bb8f97d1fcdd55a90a97075b9fad56a84ac70f74c2b4f0ce1c", "blockhash": "00000000000000000018f53835495a110e01622372bf6ae95dc86f2b0ab887b0", "vout": [{"scriptPubKey": {"reqSigs": 1, "hex": "76a914e993b294efe0f7ca3638b047ae6dfaafb9e8956388ac", "addresses": ["1NJ3NuU75QV5SrHd6fpUCPcMohjyCBZktC"], "asm": "OP_DUP OP_HASH160 e993b294efe0f7ca3638b047ae6dfaafb9e89563 OP_EQUALVERIFY OP_CHECKSIG", "type": "pubkeyhash"}, "value": 0.00603025, "n": 0}, {"scriptPubKey": {"type": "nulldata", "hex": "6a4c500000778500011343bf3df5a55b4c8efc4953bcbefa6b8351586b4e86aeaeacb577c031fc02ef87d56d6274dc15270394bd3085cd5baa0b420613f088758564291d100759d4ba30d2c37bb011d97e02cf", "asm": "OP_RETURN 0000778500011343bf3df5a55b4c8efc4953bcbefa6b8351586b4e86aeaeacb577c031fc02ef87d56d6274dc15270394bd3085cd5baa0b420613f088758564291d100759d4ba30d2c37bb011d97e02cf"}, "value": 0.0, "n": 1}], "hex": "0100000001753529bd12eef37bc70cdfe8a5562abe0472584e796cad327a09a6d389207ecb010000006b483045022100ea7bbc4c0cd83f5fab55f6c29c75c5af7028654b46d347942bd4c96d8430df1602203f75ff1d32632b541439066a5210e29242e19eb0f0beaf63ef0f6ab2c89207ed01210202a317e044fb22274ba784ec59c3c0694ee179046e4b9839252284d6cd34c6eaffffffff0291330900000000001976a914e993b294efe0f7ca3638b047ae6dfaafb9e8956388ac0000000000000000536a4c500000778500011343bf3df5a55b4c8efc4953bcbefa6b8351586b4e86aeaeacb577c031fc02ef87d56d6274dc15270394bd3085cd5baa0b420613f088758564291d100759d4ba30d2c37bb011d97e02cf00000000", "vin": [{"sequence": 4294967295, "scriptSig": {"hex": "483045022100ea7bbc4c0cd83f5fab55f6c29c75c5af7028654b46d347942bd4c96d8430df1602203f75ff1d32632b541439066a5210e29242e19eb0f0beaf63ef0f6ab2c89207ed01210202a317e044fb22274ba784ec59c3c0694ee179046e4b9839252284d6cd34c6ea", "asm": "3045022100ea7bbc4c0cd83f5fab55f6c29c75c5af7028654b46d347942bd4c96d8430df1602203f75ff1d32632b541439066a5210e29242e19eb0f0beaf63ef0f6ab2c89207ed[ALL] 0202a317e044fb22274ba784ec59c3c0694ee179046e4b9839252284d6cd34c6ea"}, "vout": 1, "txid": "cb7e2089d3a6097a32ad6c794e587204be2a56a5e8df0cc77bf3ee12bd293575"}], "txid": "963955570b6e06bb8f97d1fcdd55a90a97075b9fad56a84ac70f74c2b4f0ce1c", "blocktime": 1537870928, "version": 1, "confirmations": 11512, "time": 1537870928, "locktime": 0, "vsize": 284, "size": 284}