{"hash": "963c9557dfe0dbfd7b77f64a9832cfcc611f57b4a4566681915719a21ea021a2", "blockhash": "0000000000000000000e13cef7c366c0283d82e591d1acd082e914b08063cdf1", "vout": [{"scriptPubKey": {"reqSigs": 1, "hex": "76a914c888bbde5349fc0a88d70b22a3e9838fbbb26abc88ac", "addresses": ["1KHKwoUcVieKkZ2cK4qHFmeC4hH7fuVD6m"], "asm": "OP_DUP OP_HASH160 c888bbde5349fc0a88d70b22a3e9838fbbb26abc OP_EQUALVERIFY OP_CHECKSIG", "type": "pubkeyhash"}, "value": 0.1385, "n": 0}, {"scriptPubKey": {"reqSigs": 1, "hex": "76a91488f174288d88a6ad8d967c719c72aa6f3dee2dcd88ac", "addresses": ["1DV69bAxbj4fr7zzNzSiN4aNbnfJTu3kFn"], "asm": "OP_DUP OP_HASH160 88f174288d88a6ad8d967c719c72aa6f3dee2dcd OP_EQUALVERIFY OP_CHECKSIG", "type": "pubkeyhash"}, "value": 0.36146836, "n": 1}], "hex": "0100000001f92b42cb771f93d7c000863ba0084da03de8b219bc9debbf0f7021ce4263fe49010000006b483045022100f575ab78acf35404cc533ab0d6304068084adce356b866b01718ec2483e8c3a4022045ef3a1dabb470faa1aac33af9f5c649f05a9d0cea4ecafb95ccc6d2cf72af0a012102d1f9a55e14731c9f23863208be0351d0582a4d5a4c2b113cce35481c29850eafffffffff029055d300000000001976a914c888bbde5349fc0a88d70b22a3e9838fbbb26abc88ac948e2702000000001976a91488f174288d88a6ad8d967c719c72aa6f3dee2dcd88ac00000000", "vin": [{"sequence": 4294967295, "scriptSig": {"hex": "483045022100f575ab78acf35404cc533ab0d6304068084adce356b866b01718ec2483e8c3a4022045ef3a1dabb470faa1aac33af9f5c649f05a9d0cea4ecafb95ccc6d2cf72af0a012102d1f9a55e14731c9f23863208be0351d0582a4d5a4c2b113cce35481c29850eaf", "asm": "3045022100f575ab78acf35404cc533ab0d6304068084adce356b866b01718ec2483e8c3a4022045ef3a1dabb470faa1aac33af9f5c649f05a9d0cea4ecafb95ccc6d2cf72af0a[ALL] 02d1f9a55e14731c9f23863208be0351d0582a4d5a4c2b113cce35481c29850eaf"}, "vout": 1, "txid": "49fe6342ce21700fbfeb9dbc19b2e83da04d08a03b8600c0d7931f77cb422bf9"}], "txid": "963c9557dfe0dbfd7b77f64a9832cfcc611f57b4a4566681915719a21ea021a2", "blocktime": 1537871767, "version": 1, "confirmations": 11491, "time": 1537871767, "locktime": 0, "vsize": 226, "size": 226}