{"hash": "2e95ae4f2cbb886b56d16757ee9e5b60727629f1527dc074d16b9d2b58531779", "blockhash": "0000000000000000001cda96e906b7601b7a6fb1a3b62bca570a9e5d8f4b3de1", "vout": [{"scriptPubKey": {"reqSigs": 1, "hex": "76a91464f65a90cf78e79abfea2091b7a4cadac14cc20788ac", "addresses": ["1ACqh9Jm2CfRL6932fFENyqaUYNbdPDwiF"], "asm": "OP_DUP OP_HASH160 64f65a90cf78e79abfea2091b7a4cadac14cc207 OP_EQUALVERIFY OP_CHECKSIG", "type": "pubkeyhash"}, "value": 0.00021, "n": 0}, {"scriptPubKey": {"reqSigs": 1, "hex": "a9141988a27e3c2df4ddee7fad5a2303d086179b2a3087", "addresses": ["3422VtS7UtCvXYxoXMVp6eZupR252z85oC"], "asm": "OP_HASH160 1988a27e3c2df4ddee7fad5a2303d086179b2a30 OP_EQUAL", "type": "scripthash"}, "value": 0.44196786, "n": 1}], "hex": "010000000001017a9b9eb021b1266babaa8dd7f583bacec7fda4b37a3ebf43083c092edfcc6a42010000002322002065d416c48a8072e0ac51c2d111eb194f009caef0332446c1bf2097316cf07fa9ffffffff0208520000000000001976a91464f65a90cf78e79abfea2091b7a4cadac14cc20788acb263a2020000000017a9141988a27e3c2df4ddee7fad5a2303d086179b2a30870400483045022100d31de656a13c5c14f6f6c588ff6bee5a15844dfc7d825f7e7b2ca6eb801d7fe002203eaef5fc915dac61d1fe2d1dbc7af43cba89fbbe2ea732f9d255ecccb1ea940201473044022074fcf8f21e24a7bf9d2589637fa5574368f7aeb574a2407c23906bc5a3800511022061feb19965c30e802c2e22c08dbd0f49fbe6777d4be4ae7695c613c2729cd2560169522102f44abcf9e23c9a460da309ccca56c619c04eed3bde2c2cff5e7d78fbcd980b9c2103c9443cf3047bb6c2c82f1b0c44c36109cdc3d0d601d16d1189a1602bf8d1a0a02103bfe867059274412412e088af5572b92168c2ef495cfe6c9b7a753a009eb37c4853ae00000000", "vin": [{"txinwitness": ["", "3045022100d31de656a13c5c14f6f6c588ff6bee5a15844dfc7d825f7e7b2ca6eb801d7fe002203eaef5fc915dac61d1fe2d1dbc7af43cba89fbbe2ea732f9d255ecccb1ea940201", "3044022074fcf8f21e24a7bf9d2589637fa5574368f7aeb574a2407c23906bc5a3800511022061feb19965c30e802c2e22c08dbd0f49fbe6777d4be4ae7695c613c2729cd25601", "522102f44abcf9e23c9a460da309ccca56c619c04eed3bde2c2cff5e7d78fbcd980b9c2103c9443cf3047bb6c2c82f1b0c44c36109cdc3d0d601d16d1189a1602bf8d1a0a02103bfe867059274412412e088af5572b92168c2ef495cfe6c9b7a753a009eb37c4853ae"], "sequence": 4294967295, "scriptSig": {"hex": "22002065d416c48a8072e0ac51c2d111eb194f009caef0332446c1bf2097316cf07fa9", "asm": "002065d416c48a8072e0ac51c2d111eb194f009caef0332446c1bf2097316cf07fa9"}, "vout": 1, "txid": "426accdf2e093c0843bf3e7ab3a4fdc7ceba83f5d78daaab6b26b121b09e9b7a"}], "txid": "963f3f1adc93b208d735626f9773cf9a685d9cb3bf1af08c16d6391e4afbc209", "blocktime": 1537873282, "version": 1, "confirmations": 11483, "time": 1537873282, "locktime": 0, "vsize": 216, "size": 407}