{"hash": "1b5cb3bec67ef3ae42c1dafda68786958776d14a8c01a65d44dca0a2af78fbc1", "blockhash": "0000000000000000000baef3f32e3676a92c3b2e5da21b426e4f302fc371ce76", "vout": [{"scriptPubKey": {"reqSigs": 1, "hex": "002084cc566bad9b8de43957287e31e1fa82d0a5b62f26033b691c192885535103f4", "addresses": ["bc1qsnx9v6adnwx7gw2h9plrrc06stg2td30ycpnk6gury5g2563q06qmgh7a8"], "asm": "0 84cc566bad9b8de43957287e31e1fa82d0a5b62f26033b691c192885535103f4", "type": "witness_v0_scripthash"}, "value": 0.00706412, "n": 0}], "hex": "020000000001013e661f259cf8eb433a4b3ddc353c2518c2a66ce0398e4d181dfcb940385fa29901000000007ba51180016cc70a000000000022002084cc566bad9b8de43957287e31e1fa82d0a5b62f26033b691c192885535103f40400483045022100d38ade5eb89fd5e8106040698015dc2a55a4271640b5eee6583db30a02273cbe022018e233cfdd62eecb74c6945a0db6ef7942e36a243c0e61d98776c834e063c9fb01483045022100b707e49fbc48395bb5f13a165a7c03f3b38038c455fdc9c1039d69c022c5449602200f4d19d729a6fa838b8cda82874f267910fbfc88b519bf2b212ccf32804b448c0147522103850ceb5b8323ef5916b683c46ec860eea0ee5922c80d8a38dcf2a31c9ea3cff321038f148506cb13e4bf9e599eb26d93778a6625b60b271ba65b846f7225584669ef52ae648c5b20", "vin": [{"txinwitness": ["", "3045022100d38ade5eb89fd5e8106040698015dc2a55a4271640b5eee6583db30a02273cbe022018e233cfdd62eecb74c6945a0db6ef7942e36a243c0e61d98776c834e063c9fb01", "3045022100b707e49fbc48395bb5f13a165a7c03f3b38038c455fdc9c1039d69c022c5449602200f4d19d729a6fa838b8cda82874f267910fbfc88b519bf2b212ccf32804b448c01", "522103850ceb5b8323ef5916b683c46ec860eea0ee5922c80d8a38dcf2a31c9ea3cff321038f148506cb13e4bf9e599eb26d93778a6625b60b271ba65b846f7225584669ef52ae"], "sequence": 2148640123, "scriptSig": {"hex": "", "asm": ""}, "vout": 1, "txid": "99a25f3840b9fc1d184d8e39e06ca6c218253c35dc3d4b3a43ebf89c251f663e"}], "txid": "96440dc2dff40881d70de0e815b988c4ce6d39695e6aded0d02dfc9ba5ac3ab6", "blocktime": 1537876114, "version": 2, "confirmations": 11460, "time": 1537876114, "locktime": 542870628, "vsize": 150, "size": 316}