{"hash": "c63070453bbc310e1013f11549afe32ed66761055483c0820917602ab6f59314", "blockhash": "0000000000000000001f0ddff1eddb255c1121bcd4da4f1bc9a0da00cae72433", "vout": [{"scriptPubKey": {"reqSigs": 1, "hex": "a914245fadf0fbf1679f2e9e0c4bb4f34bd513e7c57687", "addresses": ["351LsNhdQrFJxANM2Zjz9DU8SRhSX7fqyi"], "asm": "OP_HASH160 245fadf0fbf1679f2e9e0c4bb4f34bd513e7c576 OP_EQUAL", "type": "scripthash"}, "value": 0.0292925, "n": 0}, {"scriptPubKey": {"reqSigs": 1, "hex": "a9146616ce49e3e122024c983c35cd7514261ee8ae2f87", "addresses": ["3AzpAgkqKMFUc1VYkNkEspbfGdB1n46T9W"], "asm": "OP_HASH160 6616ce49e3e122024c983c35cd7514261ee8ae2f OP_EQUAL", "type": "scripthash"}, "value": 12.61592848, "n": 1}], "hex": "02000000000101cf6fcdd7d3055d250f4ae0b3eccc8bfdca25b0d5034bf7387c2fb7abb66c3aa201000000171600148eb4d2520a54c2a07d3e1c2d47d57ceda1c2bf77feffffff0262b22c000000000017a914245fadf0fbf1679f2e9e0c4bb4f34bd513e7c576871061324b0000000017a9146616ce49e3e122024c983c35cd7514261ee8ae2f87024730440220397947c93a55fc888cc8eaa2f600b2c51d4c37714a5cd4290716c8b116b38c4c0220518566f2990900c1998940b37796bf7b2011522bb3a9db546f2ddae501d39274012102528f4c1e07b15125880d55fc440e8401edf82eaaf9de7f8fbd8e81c3a7a705d011490800", "vin": [{"txinwitness": ["30440220397947c93a55fc888cc8eaa2f600b2c51d4c37714a5cd4290716c8b116b38c4c0220518566f2990900c1998940b37796bf7b2011522bb3a9db546f2ddae501d3927401", "02528f4c1e07b15125880d55fc440e8401edf82eaaf9de7f8fbd8e81c3a7a705d0"], "sequence": 4294967294, "scriptSig": {"hex": "1600148eb4d2520a54c2a07d3e1c2d47d57ceda1c2bf77", "asm": "00148eb4d2520a54c2a07d3e1c2d47d57ceda1c2bf77"}, "vout": 1, "txid": "a23a6cb6abb72f7c38f74b03d5b025cafd8bccecb3e04a0f255d05d3d7cd6fcf"}], "txid": "96455d6741e3fce628dde0f264c48314afa48d4b652269a32c7e0cdd39154136", "blocktime": 1537872018, "version": 2, "confirmations": 11489, "time": 1537872018, "locktime": 542993, "vsize": 166, "size": 247}