{"hash": "85358cbf710dcc06334b544904ee0796ef40c88f9d21d950bafba9ee3ed07fea", "blockhash": "0000000000000000001e0dab787dd257d1dbfcb92a98c2207d5e1078be1f4165", "vout": [{"scriptPubKey": {"reqSigs": 1, "hex": "76a914baab9412cefb451cb366a27df02268b38fc67cf588ac", "addresses": ["1J22EA8uEwScWrhetTwZwGY5BLwPHEdwwR"], "asm": "OP_DUP OP_HASH160 baab9412cefb451cb366a27df02268b38fc67cf5 OP_EQUALVERIFY OP_CHECKSIG", "type": "pubkeyhash"}, "value": 0.02911375, "n": 0}, {"scriptPubKey": {"reqSigs": 1, "hex": "a914d5cad2b6494498e677e80c57f2110cee943077f487", "addresses": ["3MBSpoJxYLmc7QYRMy6QbqxAvt6XGTAmVD"], "asm": "OP_HASH160 d5cad2b6494498e677e80c57f2110cee943077f4 OP_EQUAL", "type": "scripthash"}, "value": 0.10409382, "n": 1}], "hex": "0200000000010195419be847926b281b401855a4cb1d65164ff9d017ec9daed5d956d2e8ca4d750100000017160014b0685fed291e0dcd22768a9a35ed50f79b861244ffffffff028f6c2c00000000001976a914baab9412cefb451cb366a27df02268b38fc67cf588aca6d59e000000000017a914d5cad2b6494498e677e80c57f2110cee943077f48702483045022100ed642ab4fb6e8ba4ef0dd35a91a34d4e99bdc35efabcd9c6084fd73c18c3e65302200b3a8ebb13c45f4bcdee6d54c2792b43437984cbd193a00b8675bafef3cb25ad0121031263e9b4ee681c7585dbc97d76746bde8d6921396f7961a2979ecc8e5715968200000000", "vin": [{"txinwitness": ["3045022100ed642ab4fb6e8ba4ef0dd35a91a34d4e99bdc35efabcd9c6084fd73c18c3e65302200b3a8ebb13c45f4bcdee6d54c2792b43437984cbd193a00b8675bafef3cb25ad01", "031263e9b4ee681c7585dbc97d76746bde8d6921396f7961a2979ecc8e57159682"], "sequence": 4294967295, "scriptSig": {"hex": "160014b0685fed291e0dcd22768a9a35ed50f79b861244", "asm": "0014b0685fed291e0dcd22768a9a35ed50f79b861244"}, "vout": 1, "txid": "754dcae8d256d9d5ae9dec17d0f94f16651dcba45518401b286b9247e89b4195"}], "txid": "964f31fe8bf919ca09e35f0232cb2ad261e8a87cdd2a9d44a03c26ba948290d1", "blocktime": 1537872475, "version": 2, "confirmations": 11486, "time": 1537872475, "locktime": 0, "vsize": 168, "size": 250}