{"hash": "1f62cf4d65ba189f4207ad6a490502f9d98c9a4d5052d281308987f4961ea4df", "blockhash": "0000000000000000000dcc0f55137456b1a82d3642486a52398922ac4d620174", "vout": [{"scriptPubKey": {"reqSigs": 1, "hex": "001468a0750bcd6c8014fcfa11091d0d509962d7209a", "addresses": ["bc1qdzs82z7ddjqpfl86zyy36r2sn93dwgy6kkl4vl"], "asm": "0 68a0750bcd6c8014fcfa11091d0d509962d7209a", "type": "witness_v0_keyhash"}, "value": 2.906e-05, "n": 0}, {"scriptPubKey": {"reqSigs": 1, "hex": "a914d9dca5e5b36f3d539a455db76629b07c4d8e98ee87", "addresses": ["3MYxt4jrR9UwD7GBn6sTuHQDxeUfv8qav1"], "asm": "OP_HASH160 d9dca5e5b36f3d539a455db76629b07c4d8e98ee OP_EQUAL", "type": "scripthash"}, "value": 0.003485, "n": 1}], "hex": "0100000000010114b47ce0d9d3707ebdd58557f377062e23b3ea796a012f09ae2682f74807397b0100000000ffffffff025a0b00000000000016001468a0750bcd6c8014fcfa11091d0d509962d7209a545105000000000017a914d9dca5e5b36f3d539a455db76629b07c4d8e98ee8702473044022071e92d40a78364ee313006926a70148ec35ad626be76be389b76f3886ee983e10220194a6fcdd88cc1933cc43006bfa4e70ff59eb2c38505f2d75983da2972030c6a012102037bad8f31e1863f9e81197d1535078eb777d531213af1ba5f759a82fe304c2100000000", "vin": [{"txinwitness": ["3044022071e92d40a78364ee313006926a70148ec35ad626be76be389b76f3886ee983e10220194a6fcdd88cc1933cc43006bfa4e70ff59eb2c38505f2d75983da2972030c6a01", "02037bad8f31e1863f9e81197d1535078eb777d531213af1ba5f759a82fe304c21"], "sequence": 4294967295, "scriptSig": {"hex": "", "asm": ""}, "vout": 1, "txid": "7b390748f78226ae092f016a79eab3232e0677f35785d5bd7e70d3d9e07cb414"}], "txid": "965ba849a4d72e12a98af526fa7a2397204f8801b90ad5284ec28d3c0c3e59b4", "blocktime": 1537870268, "version": 1, "confirmations": 11518, "time": 1537870268, "locktime": 0, "vsize": 142, "size": 223}