{"hash": "965c1d4999a5f4424b694059e2dc009eaeb9b15df5a171f1c8a37e2111147715", "blockhash": "00000000000000000024a2167bbff67b0be802c0b01cdd79e6331c2be6459f87", "vout": [{"scriptPubKey": {"reqSigs": 1, "hex": "a91487a76ef6debf4125cdb6dac5c6d5603b00a264fc87", "addresses": ["3E4HivPFQxmaEX1w1r7BZ9rGPT1KZtFZr1"], "asm": "OP_HASH160 87a76ef6debf4125cdb6dac5c6d5603b00a264fc OP_EQUAL", "type": "scripthash"}, "value": 0.0029546, "n": 0}, {"scriptPubKey": {"reqSigs": 1, "hex": "76a914c714301b4ae10d1e6e1decc02a8d9eb659144eae88ac", "addresses": ["1K9dercADufMt238GWQmpXEbpeQX9SXxW2"], "asm": "OP_DUP OP_HASH160 c714301b4ae10d1e6e1decc02a8d9eb659144eae OP_EQUALVERIFY OP_CHECKSIG", "type": "pubkeyhash"}, "value": 0.05431963, "n": 1}], "hex": "01000000015606fc669ce3c2f95ebc131764a7264a8f2c7f5af0888e51696a5b23fd6e0f79010000006b483045022100929f9c87160d9b0811c302890f474099b521b0b272c0c9608b40ad584436aadf0220406f8c990695c8954c2dfaa398867be8968ab15da74728d6e7c605ae49b69593012102d3b60c460e2795ef6d0016be2eaa0f661cca4b8867cf76d33ba3d66e2b04f749ffffffff02248204000000000017a91487a76ef6debf4125cdb6dac5c6d5603b00a264fc879be25200000000001976a914c714301b4ae10d1e6e1decc02a8d9eb659144eae88ac00000000", "vin": [{"sequence": 4294967295, "scriptSig": {"hex": "483045022100929f9c87160d9b0811c302890f474099b521b0b272c0c9608b40ad584436aadf0220406f8c990695c8954c2dfaa398867be8968ab15da74728d6e7c605ae49b69593012102d3b60c460e2795ef6d0016be2eaa0f661cca4b8867cf76d33ba3d66e2b04f749", "asm": "3045022100929f9c87160d9b0811c302890f474099b521b0b272c0c9608b40ad584436aadf0220406f8c990695c8954c2dfaa398867be8968ab15da74728d6e7c605ae49b69593[ALL] 02d3b60c460e2795ef6d0016be2eaa0f661cca4b8867cf76d33ba3d66e2b04f749"}, "vout": 1, "txid": "790f6efd235b6a69518e88f05a7f2c8f4a26a7641713bc5ef9c2e39c66fc0656"}], "txid": "965c1d4999a5f4424b694059e2dc009eaeb9b15df5a171f1c8a37e2111147715", "blocktime": 1537870564, "version": 1, "confirmations": 11515, "time": 1537870564, "locktime": 0, "vsize": 224, "size": 224}