{"hash": "966d0e12b810ee117b7c0e96daf50aa09d75e3452512d8dcace3046beb827359", "blockhash": "0000000000000000000e13cef7c366c0283d82e591d1acd082e914b08063cdf1", "vout": [{"scriptPubKey": {"reqSigs": 1, "hex": "a91489fe05f0b3e204dcefe152eb288931604a4ba9b387", "addresses": ["3EGeofbE8EWfb4wb8Sxyr3xgzjiGoRbuV5"], "asm": "OP_HASH160 89fe05f0b3e204dcefe152eb288931604a4ba9b3 OP_EQUAL", "type": "scripthash"}, "value": 0.00175958, "n": 0}, {"scriptPubKey": {"reqSigs": 1, "hex": "76a914f0b71283fe3c4f1e2ac195b3c58f71e189bb0f9488ac", "addresses": ["1NwnV8Q5859yxmit14AD5pdQddjobVhCX3"], "asm": "OP_DUP OP_HASH160 f0b71283fe3c4f1e2ac195b3c58f71e189bb0f94 OP_EQUALVERIFY OP_CHECKSIG", "type": "pubkeyhash"}, "value": 0.76615795, "n": 1}], "hex": "0100000001f38eada36229bd086b8f146b3a743c24d46a87a29f66e324160dea07e3e40150010000006a473044022022009be8c4122d5cbd02a4fbe1cd69bb99c5719b20736516af205c9392e2fd2f02203179fce7dd7e0cd92c2fa700df1871e88434a938d54d1645cef8b246f003fac301210260607fd8f079c3f319f989dc8c630fe14d9e45a9c59969a254ab31d415302803ffffffff0256af02000000000017a91489fe05f0b3e204dcefe152eb288931604a4ba9b38773109104000000001976a914f0b71283fe3c4f1e2ac195b3c58f71e189bb0f9488ac00000000", "vin": [{"sequence": 4294967295, "scriptSig": {"hex": "473044022022009be8c4122d5cbd02a4fbe1cd69bb99c5719b20736516af205c9392e2fd2f02203179fce7dd7e0cd92c2fa700df1871e88434a938d54d1645cef8b246f003fac301210260607fd8f079c3f319f989dc8c630fe14d9e45a9c59969a254ab31d415302803", "asm": "3044022022009be8c4122d5cbd02a4fbe1cd69bb99c5719b20736516af205c9392e2fd2f02203179fce7dd7e0cd92c2fa700df1871e88434a938d54d1645cef8b246f003fac3[ALL] 0260607fd8f079c3f319f989dc8c630fe14d9e45a9c59969a254ab31d415302803"}, "vout": 1, "txid": "5001e4e307ea0d1624e3669fa2876ad4243c743a6b148f6b08bd2962a3ad8ef3"}], "txid": "966d0e12b810ee117b7c0e96daf50aa09d75e3452512d8dcace3046beb827359", "blocktime": 1537871767, "version": 1, "confirmations": 11495, "time": 1537871767, "locktime": 0, "vsize": 223, "size": 223}