{"hash": "42618fedd2a0579546bb9e82089c26c59a76aa68a683761fcb920aedbdfe80ac", "blockhash": "0000000000000000001cda96e906b7601b7a6fb1a3b62bca570a9e5d8f4b3de1", "vout": [{"scriptPubKey": {"reqSigs": 1, "hex": "a91494249c5c99e58650c4bf1c5da6629111bc4a479a87", "addresses": ["3FCKnhNHhixUUTg1C47JbWt58WVTmJQNSx"], "asm": "OP_HASH160 94249c5c99e58650c4bf1c5da6629111bc4a479a OP_EQUAL", "type": "scripthash"}, "value": 0.00092, "n": 0}, {"scriptPubKey": {"reqSigs": 1, "hex": "0014d2232ccb9b0a05d1fea3cf468a0e9b9d7c1071f9", "addresses": ["bc1q6g3jejumpgzarl4rearg5r5mn47pqu0ea68xlw"], "asm": "0 d2232ccb9b0a05d1fea3cf468a0e9b9d7c1071f9", "type": "witness_v0_keyhash"}, "value": 1.528e-05, "n": 1}], "hex": "010000000001018aa08abdd97ffc905f395d40a43f6f53fb10029e5c5a9c1f4a76250cd7a24a6f0100000000ffffffff02606701000000000017a91494249c5c99e58650c4bf1c5da6629111bc4a479a87f805000000000000160014d2232ccb9b0a05d1fea3cf468a0e9b9d7c1071f902483045022100ac84e61f9a8047410de93c9ae2fb9c775d344da660332bd07ee3e5cb3bf93315022004212b1aef4c46a0e13c4ad243b7873690b8e1b20585e2f5f6eb6a61491e05f00121038210db7eb319cdd042cee8dca790768e4f2f584f010c8ffd5c2d94e5a407a6c200000000", "vin": [{"txinwitness": ["3045022100ac84e61f9a8047410de93c9ae2fb9c775d344da660332bd07ee3e5cb3bf93315022004212b1aef4c46a0e13c4ad243b7873690b8e1b20585e2f5f6eb6a61491e05f001", "038210db7eb319cdd042cee8dca790768e4f2f584f010c8ffd5c2d94e5a407a6c2"], "sequence": 4294967295, "scriptSig": {"hex": "", "asm": ""}, "vout": 1, "txid": "6f4aa2d70c25764a1f9c5a5c9e0210fb536f3fa4405d395f90fc7fd9bd8aa08a"}], "txid": "966d711584b3e691c56f817da901e169484c1e0ab119ce77bf7840c53d1f91c1", "blocktime": 1537873282, "version": 1, "confirmations": 11484, "time": 1537873282, "locktime": 0, "vsize": 142, "size": 224}