{"hash": "96760188a2a4b057c031d81648f50ab5945a00c29bbe2d4c1792cd6a8eb8065f", "blockhash": "0000000000000000000e13cef7c366c0283d82e591d1acd082e914b08063cdf1", "vout": [{"scriptPubKey": {"reqSigs": 1, "hex": "76a9142c9cd2cfa28015908ec7b7589423c82c2b3b6c7188ac", "addresses": ["154tbjAecCco5MpH2AzXYrADv38PUd9heo"], "asm": "OP_DUP OP_HASH160 2c9cd2cfa28015908ec7b7589423c82c2b3b6c71 OP_EQUALVERIFY OP_CHECKSIG", "type": "pubkeyhash"}, "value": 0.00953039, "n": 0}, {"scriptPubKey": {"reqSigs": 1, "hex": "76a9146167e249acd37aacfa7ae26e903d288ba3208ab288ac", "addresses": ["19t2zbDoPonSeczhEbw8QDZgGJWMvWtcjV"], "asm": "OP_DUP OP_HASH160 6167e249acd37aacfa7ae26e903d288ba3208ab2 OP_EQUALVERIFY OP_CHECKSIG", "type": "pubkeyhash"}, "value": 0.00943866, "n": 1}, {"scriptPubKey": {"reqSigs": 1, "hex": "76a91439da53ab52eeb68694e3847ad89b8bbb16a3b9ae88ac", "addresses": ["16Gu4Ypax1zMxth8KYESsBbuNLwy1xo9hk"], "asm": "OP_DUP OP_HASH160 39da53ab52eeb68694e3847ad89b8bbb16a3b9ae OP_EQUALVERIFY OP_CHECKSIG", "type": "pubkeyhash"}, "value": 0.00916533, "n": 2}, {"scriptPubKey": {"reqSigs": 1, "hex": "a91481ec8c40c96490315d686881e196443970c2185687", "addresses": ["3DXzTvXA8q5QUjvJB1ytW4wQ21kwfanxBa"], "asm": "OP_HASH160 81ec8c40c96490315d686881e196443970c21856 OP_EQUAL", "type": "scripthash"}, "value": 0.01003864, "n": 3}, {"scriptPubKey": {"reqSigs": 1, "hex": "76a914126a00e91b91a5f07bc8d4f68b38014c077d9f0888ac", "addresses": ["12gN9i8mVUrn1H1u5n9QKoNCCRbKfgaGtN"], "asm": "OP_DUP OP_HASH160 126a00e91b91a5f07bc8d4f68b38014c077d9f08 OP_EQUALVERIFY OP_CHECKSIG", "type": "pubkeyhash"}, "value": 0.00984144, "n": 4}, {"scriptPubKey": {"reqSigs": 1, "hex": "76a914de881005fbbbbe4c1c629229983f345bc19415dc88ac", "addresses": ["1MHe1P6TYfg7reoHjBCZJ5u3MJfNY1M2GV"], "asm": "OP_DUP OP_HASH160 de881005fbbbbe4c1c629229983f345bc19415dc OP_EQUALVERIFY OP_CHECKSIG", "type": "pubkeyhash"}, "value": 0.00940228, "n": 5}, {"scriptPubKey": {"reqSigs": 1, "hex": "76a914679125422221d805d2b8022694cd95978d3367d988ac", "addresses": ["1AScUeZ7g8HKAgM6uRHSgBiQaM9e9gYU4x"], "asm": "OP_DUP OP_HASH160 679125422221d805d2b8022694cd95978d3367d9 OP_EQUALVERIFY OP_CHECKSIG", "type": "pubkeyhash"}, "value": 0.00932858, "n": 6}, {"scriptPubKey": {"reqSigs": 1, "hex": "76a9148f6325ac40f82c1b705fa4e90bd5d47edf7d849588ac", "addresses": ["1E5AQJEgh18EUMFy9numpzTopSi14cE6iH"], "asm": "OP_DUP OP_HASH160 8f6325ac40f82c1b705fa4e90bd5d47edf7d8495 OP_EQUALVERIFY OP_CHECKSIG", "type": "pubkeyhash"}, "value": 42.45588256, "n": 7}, {"scriptPubKey": {"reqSigs": 1, "hex": "76a914d7b249cf4c98dd262d8e233d1f2cb87b1d6b813588ac", "addresses": ["1LfVrw86BEvycwD4wa49dkzGQ5HrUCzxRZ"], "asm": "OP_DUP OP_HASH160 d7b249cf4c98dd262d8e233d1f2cb87b1d6b8135 OP_EQUALVERIFY OP_CHECKSIG", "type": "pubkeyhash"}, "value": 0.00965088, "n": 8}, {"scriptPubKey": {"reqSigs": 1, "hex": "76a914f5857d004daf9c30ead586d06fbf81fe0f99f9f788ac", "addresses": ["1PPCTvmxJWHgJSRbH4TXbgSXWg5xo5t1H1"], "asm": "OP_DUP OP_HASH160 f5857d004daf9c30ead586d06fbf81fe0f99f9f7 OP_EQUALVERIFY OP_CHECKSIG", "type": "pubkeyhash"}, "value": 0.00934869, "n": 9}, {"scriptPubKey": {"reqSigs": 1, "hex": "76a9140a65dc95c0e56158b30492c34b550cf7b2291ed088ac", "addresses": ["1wynPeiQgYRo3Bn8gn4XvNa24GzdhARHL"], "asm": "OP_DUP OP_HASH160 0a65dc95c0e56158b30492c34b550cf7b2291ed0 OP_EQUALVERIFY OP_CHECKSIG", "type": "pubkeyhash"}, "value": 0.01002769, "n": 10}, {"scriptPubKey": {"reqSigs": 1, "hex": "76a91466e441a7d8820a5be8d22db22a3b3172ae1b7faa88ac", "addresses": ["1AP3N73AeDSpS4fMWcGE8ztdCBtLcpLAga"], "asm": "OP_DUP OP_HASH160 66e441a7d8820a5be8d22db22a3b3172ae1b7faa OP_EQUALVERIFY OP_CHECKSIG", "type": "pubkeyhash"}, "value": 0.0093409, "n": 11}, {"scriptPubKey": {"reqSigs": 1, "hex": "a91413acdaa4dff89ef49c62e9a54066d0026e17355287", "addresses": ["33V3qJNwfTxbZqCSspCMjyUVfqgm6SLZuz"], "asm": "OP_HASH160 13acdaa4dff89ef49c62e9a54066d0026e173552 OP_EQUAL", "type": "scripthash"}, "value": 0.0100775, "n": 12}, {"scriptPubKey": {"reqSigs": 1, "hex": "76a91496e8460bb1daaa0e48ba2eb9e8c97e93cc091d4188ac", "addresses": ["1EkvcRqu3nyjxhcSZqKKVuXDzxwMvgcCwG"], "asm": "OP_DUP OP_HASH160 96e8460bb1daaa0e48ba2eb9e8c97e93cc091d41 OP_EQUALVERIFY OP_CHECKSIG", "type": "pubkeyhash"}, "value": 0.00952386, "n": 13}, {"scriptPubKey": {"reqSigs": 1, "hex": "76a914c35cd9f92557707173216ec5072fd5c4746008f788ac", "addresses": ["1JoyzqgW9KDjYG4m4gjfCzj1oGjRTH3LRK"], "asm": "OP_DUP OP_HASH160 c35cd9f92557707173216ec5072fd5c4746008f7 OP_EQUALVERIFY OP_CHECKSIG", "type": "pubkeyhash"}, "value": 0.00990536, "n": 14}, {"scriptPubKey": {"reqSigs": 1, "hex": "76a914886dd21edebf024ab81dcf2e11074e4ba159258b88ac", "addresses": ["1DSNTa6zwNjtAyf1jpZNEkMz5ihQgp1tDL"], "asm": "OP_DUP OP_HASH160 886dd21edebf024ab81dcf2e11074e4ba159258b OP_EQUALVERIFY OP_CHECKSIG", "type": "pubkeyhash"}, "value": 0.00994382, "n": 15}, {"scriptPubKey": {"reqSigs": 1, "hex": "76a91463b4bea97e1fa655c312cba8004e8f096bbaedc488ac", "addresses": ["1A6CRMnApgZw2wf4T26bz8dct2XDXCW3nX"], "asm": "OP_DUP OP_HASH160 63b4bea97e1fa655c312cba8004e8f096bbaedc4 OP_EQUALVERIFY OP_CHECKSIG", "type": "pubkeyhash"}, "value": 0.00949251, "n": 16}, {"scriptPubKey": {"reqSigs": 1, "hex": "a9140b90347ac9c66059ef56cb7a568c20a0404ab0e987", "addresses": ["32kA7C8z7J5ADPStzLQYou5WSXzzmCX7Pz"], "asm": "OP_HASH160 0b90347ac9c66059ef56cb7a568c20a0404ab0e9 OP_EQUAL", "type": "scripthash"}, "value": 0.00913716, "n": 17}, {"scriptPubKey": {"reqSigs": 1, "hex": "76a9143ee2482e93a171d3ccd508915610a4c6e3717a6c88ac", "addresses": ["16jVyEuWWX6W1vGnHx1EqsUL6QZYCwSJ6d"], "asm": "OP_DUP OP_HASH160 3ee2482e93a171d3ccd508915610a4c6e3717a6c OP_EQUALVERIFY OP_CHECKSIG", "type": "pubkeyhash"}, "value": 0.0100184, "n": 18}, {"scriptPubKey": {"reqSigs": 1, "hex": "76a914bbd7885ecab1fcc10f0d9a03e2572c92febf732c88ac", "addresses": ["1J8DZM6sUEzJgmMzyK89uasCUN1ntAohzP"], "asm": "OP_DUP OP_HASH160 bbd7885ecab1fcc10f0d9a03e2572c92febf732c OP_EQUALVERIFY OP_CHECKSIG", "type": "pubkeyhash"}, "value": 0.00946924, "n": 19}, {"scriptPubKey": {"reqSigs": 1, "hex": "a91431fb3b6d9f626cedff31656deb9200c7c40ac88787", "addresses": ["36FHzrkmg5JFTg2s6yM1HwTouMTtj2hGFf"], "asm": "OP_HASH160 31fb3b6d9f626cedff31656deb9200c7c40ac887 OP_EQUAL", "type": "scripthash"}, "value": 0.01001915, "n": 20}, {"scriptPubKey": {"reqSigs": 1, "hex": "a914419eee949c2ef030eeba4ac5df94bdf47d39c42187", "addresses": ["37fzEoGdJf44H9KLHArnTAVmCWNVKk5KZZ"], "asm": "OP_HASH160 419eee949c2ef030eeba4ac5df94bdf47d39c421 OP_EQUAL", "type": "scripthash"}, "value": 0.00992167, "n": 21}, {"scriptPubKey": {"reqSigs": 1, "hex": "76a91405d6ffa65000405bb40937f7bda7aa08ed60194d88ac", "addresses": ["1XswKuWbf3sTSGsXJyXyzsLFEq9hyrL1R"], "asm": "OP_DUP OP_HASH160 05d6ffa65000405bb40937f7bda7aa08ed60194d OP_EQUALVERIFY OP_CHECKSIG", "type": "pubkeyhash"}, "value": 0.00950363, "n": 22}, {"scriptPubKey": {"reqSigs": 1, "hex": "a914078f67e8d8e80b9267875fb8146cf37910b64e8387", "addresses": ["32NzSuKnMe8rxxDxhpxfRYYKcLsDXgcMyr"], "asm": "OP_HASH160 078f67e8d8e80b9267875fb8146cf37910b64e83 OP_EQUAL", "type": "scripthash"}, "value": 0.00932695, "n": 23}, {"scriptPubKey": {"reqSigs": 1, "hex": "76a9148ada033fee041200b6875f1d1e681b4007a439db88ac", "addresses": ["1DfBRG69qSrjtz6TaD2Smaeh6PW5BsGL2p"], "asm": "OP_DUP OP_HASH160 8ada033fee041200b6875f1d1e681b4007a439db OP_EQUALVERIFY OP_CHECKSIG", "type": "pubkeyhash"}, "value": 0.00931132, "n": 24}, {"scriptPubKey": {"reqSigs": 1, "hex": "76a914570c19cd2a818dd513d1d513b568e31ba09f0f6b88ac", "addresses": ["18wGHU4q7jRohCwYYY526cfTLbmPArNAW2"], "asm": "OP_DUP OP_HASH160 570c19cd2a818dd513d1d513b568e31ba09f0f6b OP_EQUALVERIFY OP_CHECKSIG", "type": "pubkeyhash"}, "value": 0.00956957, "n": 25}, {"scriptPubKey": {"reqSigs": 1, "hex": "76a9144baecf49bd89e1473044e98caac52df3532c9db188ac", "addresses": ["17uB6P1bSzEidxrZc2VC4BXJeqLctcagtr"], "asm": "OP_DUP OP_HASH160 4baecf49bd89e1473044e98caac52df3532c9db1 OP_EQUALVERIFY OP_CHECKSIG", "type": "pubkeyhash"}, "value": 0.00967439, "n": 26}, {"scriptPubKey": {"reqSigs": 1, "hex": "a9145df72750c71930cec53253d2dac31a1b76f259bd87", "addresses": ["3AFrqv44eb3awyffCf81GADmfJw9UkABjn"], "asm": "OP_HASH160 5df72750c71930cec53253d2dac31a1b76f259bd OP_EQUAL", "type": "scripthash"}, "value": 0.00916395, "n": 27}, {"scriptPubKey": {"reqSigs": 1, "hex": "a9146c5bfd9d5be7998797ee071461edc02862c0d97087", "addresses": ["3BZy6tM6oWCS54c74uYMFUehv796ButqTv"], "asm": "OP_HASH160 6c5bfd9d5be7998797ee071461edc02862c0d970 OP_EQUAL", "type": "scripthash"}, "value": 0.00976636, "n": 28}, {"scriptPubKey": {"reqSigs": 1, "hex": "76a91420286e89d85459cf94acb7a1734318b3c249e7e088ac", "addresses": ["13w34PYRUsBxS8nG9arWHvijZjNkQW7DZ9"], "asm": "OP_DUP OP_HASH160 20286e89d85459cf94acb7a1734318b3c249e7e0 OP_EQUALVERIFY OP_CHECKSIG", "type": "pubkeyhash"}, "value": 0.00986242, "n": 29}, {"scriptPubKey": {"reqSigs": 1, "hex": "76a91410dba0f7c140c27d3f34fdc12110ec0e70fe73d688ac", "addresses": ["12Y8v9P2YDSHDiSpmsBHYUeRPLD4dcTkfH"], "asm": "OP_DUP OP_HASH160 10dba0f7c140c27d3f34fdc12110ec0e70fe73d6 OP_EQUALVERIFY OP_CHECKSIG", "type": "pubkeyhash"}, "value": 0.00936643, "n": 30}, {"scriptPubKey": {"reqSigs": 1, "hex": "a914d3bb5cb65028b5ace9cfd1ae0bda4c7bd917170a87", "addresses": ["3LzYxAs1f6fQAr3apdWxD3a4EJSZx3Sv4J"], "asm": "OP_HASH160 d3bb5cb65028b5ace9cfd1ae0bda4c7bd917170a OP_EQUAL", "type": "scripthash"}, "value": 0.00970048, "n": 31}, {"scriptPubKey": {"reqSigs": 1, "hex": "a914793acb2f66bc12f82cbb1e0d54462f98b1329acb87", "addresses": ["3Ck27p5kRuHuG89iafvSbUjcg5atJftqvb"], "asm": "OP_HASH160 793acb2f66bc12f82cbb1e0d54462f98b1329acb OP_EQUAL", "type": "scripthash"}, "value": 0.00932191, "n": 32}, {"scriptPubKey": {"reqSigs": 1, "hex": "76a91446bbe61aa8a5608d8de42252a1986f390bf2bf7388ac", "addresses": ["17T1PsPLCzRjPUi8J9d3Mkn29YC4gzvJqy"], "asm": "OP_DUP OP_HASH160 46bbe61aa8a5608d8de42252a1986f390bf2bf73 OP_EQUALVERIFY OP_CHECKSIG", "type": "pubkeyhash"}, "value": 0.00951167, "n": 33}, {"scriptPubKey": {"reqSigs": 1, "hex": "76a914aa4ec9ac448b1fd15065be2fd64242a65591ecba88ac", "addresses": ["1GXWFtBWFtyAZgkBsLQ3CH8JpD4W1X8bvn"], "asm": "OP_DUP OP_HASH160 aa4ec9ac448b1fd15065be2fd64242a65591ecba OP_EQUALVERIFY OP_CHECKSIG", "type": "pubkeyhash"}, "value": 0.00986076, "n": 34}, {"scriptPubKey": {"reqSigs": 1, "hex": "76a9149c056f8558d5c71cfa53b6d1fc87a7d6ec152b9988ac", "addresses": ["1FDxvbnASVHzgbALiMCV4psAUdKbjkZVit"], "asm": "OP_DUP OP_HASH160 9c056f8558d5c71cfa53b6d1fc87a7d6ec152b99 OP_EQUALVERIFY OP_CHECKSIG", "type": "pubkeyhash"}, "value": 0.00936345, "n": 35}, {"scriptPubKey": {"reqSigs": 1, "hex": "a9142cec35ecf5c7f5071b8f96dab41028b66c46a13387", "addresses": ["35nYdBquhM8B7G2jdgJBemiH7f57GWhKKS"], "asm": "OP_HASH160 2cec35ecf5c7f5071b8f96dab41028b66c46a133 OP_EQUAL", "type": "scripthash"}, "value": 0.00928834, "n": 36}, {"scriptPubKey": {"reqSigs": 1, "hex": "a9142668ff44c7a16bcea7ef7f93b6b11d01943729f287", "addresses": ["35C7PAPdwSDXYAuzvKtHXpSNK2RpgkW73K"], "asm": "OP_HASH160 2668ff44c7a16bcea7ef7f93b6b11d01943729f2 OP_EQUAL", "type": "scripthash"}, "value": 0.00947464, "n": 37}, {"scriptPubKey": {"reqSigs": 1, "hex": "a91471ac87910e35dd491ceea32d33db5e8a6127a22787", "addresses": ["3C44xnStrV3CrkH9UQa8T6u3qErbzJJHnR"], "asm": "OP_HASH160 71ac87910e35dd491ceea32d33db5e8a6127a227 OP_EQUAL", "type": "scripthash"}, "value": 0.00932338, "n": 38}, {"scriptPubKey": {"reqSigs": 1, "hex": "76a914715578e0d6403dc9a1a2f21bbe711df4e5e5325888ac", "addresses": ["1BLFkPWTgQKjZQERrWHj1TNLQdUcWmgeib"], "asm": "OP_DUP OP_HASH160 715578e0d6403dc9a1a2f21bbe711df4e5e53258 OP_EQUALVERIFY OP_CHECKSIG", "type": "pubkeyhash"}, "value": 0.01006994, "n": 39}, {"scriptPubKey": {"reqSigs": 1, "hex": "a9141088d8d5556e98bb228f3c53277ca30239e3675087", "addresses": ["33CSfuiL9yPufLhsW5B6YsoAaxxs9ibnoK"], "asm": "OP_HASH160 1088d8d5556e98bb228f3c53277ca30239e36750 OP_EQUAL", "type": "scripthash"}, "value": 0.0093601, "n": 40}, {"scriptPubKey": {"reqSigs": 1, "hex": "76a914aec125fe305f6b536cc33975b3def43e2537b8bf88ac", "addresses": ["1Gw1xZncLKPVAiayXgR29aXrkL4AZ1CCZU"], "asm": "OP_DUP OP_HASH160 aec125fe305f6b536cc33975b3def43e2537b8bf OP_EQUALVERIFY OP_CHECKSIG", "type": "pubkeyhash"}, "value": 0.00981059, "n": 41}, {"scriptPubKey": {"reqSigs": 1, "hex": "76a91416c2ae5d86eddbfd91ff09efdc8df987843020a388ac", "addresses": ["135M5uGosxti3reXaDyjbH4Gqv4qgMEixe"], "asm": "OP_DUP OP_HASH160 16c2ae5d86eddbfd91ff09efdc8df987843020a3 OP_EQUALVERIFY OP_CHECKSIG", "type": "pubkeyhash"}, "value": 0.01003507, "n": 42}, {"scriptPubKey": {"reqSigs": 1, "hex": "a9148fb23b872994080f6c8bc29d9cc117c17b79f6ea87", "addresses": ["3Enp4ni23gNgcFMPkwJTuzijykDmLwHTz1"], "asm": "OP_HASH160 8fb23b872994080f6c8bc29d9cc117c17b79f6ea OP_EQUAL", "type": "scripthash"}, "value": 0.00935848, "n": 43}, {"scriptPubKey": {"reqSigs": 1, "hex": "76a9144bd955d9bfc3e623ab78fddc6fa40c4d4fdd26e588ac", "addresses": ["17v437X7WT1gsQMcKpG6xAjyAQufS9Ci8S"], "asm": "OP_DUP OP_HASH160 4bd955d9bfc3e623ab78fddc6fa40c4d4fdd26e5 OP_EQUALVERIFY OP_CHECKSIG", "type": "pubkeyhash"}, "value": 0.00953919, "n": 44}, {"scriptPubKey": {"reqSigs": 1, "hex": "76a91497458a305d9139a6795745f6992af8159982b96d88ac", "addresses": ["1EnrLgEY6Mw6NRvTAkBnejrTVRHXKC6npn"], "asm": "OP_DUP OP_HASH160 97458a305d9139a6795745f6992af8159982b96d OP_EQUALVERIFY OP_CHECKSIG", "type": "pubkeyhash"}, "value": 0.00951813, "n": 45}, {"scriptPubKey": {"reqSigs": 1, "hex": "76a9149457961ce3f04812747eeb8fe7b006f647a1018488ac", "addresses": ["1EXMvzxARgh5NRCHeye8g3gkDKwPhkvGHv"], "asm": "OP_DUP OP_HASH160 9457961ce3f04812747eeb8fe7b006f647a10184 OP_EQUALVERIFY OP_CHECKSIG", "type": "pubkeyhash"}, "value": 0.00939878, "n": 46}, {"scriptPubKey": {"reqSigs": 1, "hex": "a914b56e62fa88102ff9d50891e88791c434bf2040d687", "addresses": ["3JELU4bzJLqium4WkUx9jtEwGVwj9EUiKQ"], "asm": "OP_HASH160 b56e62fa88102ff9d50891e88791c434bf2040d6 OP_EQUAL", "type": "scripthash"}, "value": 0.0092988, "n": 47}, {"scriptPubKey": {"reqSigs": 1, "hex": "a91471e1cd02ba37e2ba3e2398773dbc561bd57058cd87", "addresses": ["3C5An8tUmxBD53stMigGuAjknVEA3Aik6k"], "asm": "OP_HASH160 71e1cd02ba37e2ba3e2398773dbc561bd57058cd OP_EQUAL", "type": "scripthash"}, "value": 0.00948707, "n": 48}, {"scriptPubKey": {"reqSigs": 1, "hex": "76a9144c09605b8dd7ce96ccd08fb4532d8cdfbc62c6c188ac", "addresses": ["17w3b4daRyVgd8tQJhX6PzWdcHbCbkoUa8"], "asm": "OP_DUP OP_HASH160 4c09605b8dd7ce96ccd08fb4532d8cdfbc62c6c1 OP_EQUALVERIFY OP_CHECKSIG", "type": "pubkeyhash"}, "value": 0.00925785, "n": 49}, {"scriptPubKey": {"reqSigs": 1, "hex": "a9142ad851b47427b72f2ee0de7a2d40672882c8d03a87", "addresses": ["35bZSig8seuhUsiTFiVhGbRSt3sQj3Mgy2"], "asm": "OP_HASH160 2ad851b47427b72f2ee0de7a2d40672882c8d03a OP_EQUAL", "type": "scripthash"}, "value": 0.01002835, "n": 50}, {"scriptPubKey": {"reqSigs": 1, "hex": "76a9141710fa1cf5a50d276cc75a35b502ef8381f4a97a88ac", "addresses": ["136xsziL2Gdo1s4A8QaydtjqkV65NAhmZY"], "asm": "OP_DUP OP_HASH160 1710fa1cf5a50d276cc75a35b502ef8381f4a97a OP_EQUALVERIFY OP_CHECKSIG", "type": "pubkeyhash"}, "value": 0.0096252, "n": 51}, {"scriptPubKey": {"reqSigs": 1, "hex": "76a9142b4d779c83cd03c05a7d4c0f20917ccd28ba606c88ac", "addresses": ["14wxrmSzdUW4abniie99j3cR1PbLs4qaQ4"], "asm": "OP_DUP OP_HASH160 2b4d779c83cd03c05a7d4c0f20917ccd28ba606c OP_EQUALVERIFY OP_CHECKSIG", "type": "pubkeyhash"}, "value": 0.00952644, "n": 52}, {"scriptPubKey": {"reqSigs": 1, "hex": "a914435b90f381e4d3acbc21e07e31e7857e1ca0938f87", "addresses": ["37qAtXcRoFvMshavXMzCqrdT3VyBQAPhHm"], "asm": "OP_HASH160 435b90f381e4d3acbc21e07e31e7857e1ca0938f OP_EQUAL", "type": "scripthash"}, "value": 0.00993209, "n": 53}, {"scriptPubKey": {"reqSigs": 1, "hex": "a9147904034c96cb2a8b2cd822799a960c35636bbdb587", "addresses": ["3CitVaLNLgKXFU87Cxp82Wg42uJSwdBBiP"], "asm": "OP_HASH160 7904034c96cb2a8b2cd822799a960c35636bbdb5 OP_EQUAL", "type": "scripthash"}, "value": 0.01000218, "n": 54}, {"scriptPubKey": {"reqSigs": 1, "hex": "76a914a8f2787e61c160bac7a994d617fd12f9f7bc774088ac", "addresses": ["1GQJzPN9vFbYFPzzXv5JzahcuHfnoTDSix"], "asm": "OP_DUP OP_HASH160 a8f2787e61c160bac7a994d617fd12f9f7bc7740 OP_EQUALVERIFY OP_CHECKSIG", "type": "pubkeyhash"}, "value": 0.00966807, "n": 55}, {"scriptPubKey": {"reqSigs": 1, "hex": "76a9145dddb725acec3704e7e820ddbabae9fbe2fcc51088ac", "addresses": ["19ZKSu4UV8p261sSTbRCkr73hgJ78tjnJz"], "asm": "OP_DUP OP_HASH160 5dddb725acec3704e7e820ddbabae9fbe2fcc510 OP_EQUALVERIFY OP_CHECKSIG", "type": "pubkeyhash"}, "value": 0.00985328, "n": 56}, {"scriptPubKey": {"reqSigs": 1, "hex": "76a9149c7e881f3d121c93cdd6b9afe4ec150d3ad4bd2088ac", "addresses": ["1FGTzWEbPbFvGf72PdDCXQk6xGpJUU4jZj"], "asm": "OP_DUP OP_HASH160 9c7e881f3d121c93cdd6b9afe4ec150d3ad4bd20 OP_EQUALVERIFY OP_CHECKSIG", "type": "pubkeyhash"}, "value": 0.01003036, "n": 57}, {"scriptPubKey": {"reqSigs": 1, "hex": "a914ff20b06315bdf5c2cc8cc2b52f8e46ffec2cac3b87", "addresses": ["3Qx1PjTeiixAxcFp8rJ1kkF3Pxk1t3hTof"], "asm": "OP_HASH160 ff20b06315bdf5c2cc8cc2b52f8e46ffec2cac3b OP_EQUAL", "type": "scripthash"}, "value": 0.00954918, "n": 58}, {"scriptPubKey": {"reqSigs": 1, "hex": "76a914b424e5a2cb34b90a7d23a118e51364e4e2eeedf688ac", "addresses": ["1HRWqBPJ8Bivz8UXecruwWB26txoJivhP2"], "asm": "OP_DUP OP_HASH160 b424e5a2cb34b90a7d23a118e51364e4e2eeedf6 OP_EQUALVERIFY OP_CHECKSIG", "type": "pubkeyhash"}, "value": 0.00913322, "n": 59}, {"scriptPubKey": {"reqSigs": 1, "hex": "76a914e8e0fc36d0cb15a27c5f1e53ebee306179e8de5188ac", "addresses": ["1NEMHka2qeMwZcaoxHQPuw6CzaiSJ3geYY"], "asm": "OP_DUP OP_HASH160 e8e0fc36d0cb15a27c5f1e53ebee306179e8de51 OP_EQUALVERIFY OP_CHECKSIG", "type": "pubkeyhash"}, "value": 0.00963021, "n": 60}, {"scriptPubKey": {"reqSigs": 1, "hex": "a91451e38c9b4da7ec5db5bcabbb9d6485fb1b79dbb687", "addresses": ["39A1FUqPNcEyX8Hs4gJUAmgPe9UZR3GZ2n"], "asm": "OP_HASH160 51e38c9b4da7ec5db5bcabbb9d6485fb1b79dbb6 OP_EQUAL", "type": "scripthash"}, "value": 0.00964559, "n": 61}, {"scriptPubKey": {"reqSigs": 1, "hex": "a914a6ca97ac2591ec0baa837b356e708bc159d5636787", "addresses": ["3GtvnkzJPuzuieBGAAr3VrJAwsVgsDpvSq"], "asm": "OP_HASH160 a6ca97ac2591ec0baa837b356e708bc159d56367 OP_EQUAL", "type": "scripthash"}, "value": 0.00931467, "n": 62}, {"scriptPubKey": {"reqSigs": 1, "hex": "76a914fb886c986f9ead9dcd8f6c388330fb899b49cae488ac", "addresses": ["1Pvz351SbB3mVGqyMTummmfKxAGzhikNPu"], "asm": "OP_DUP OP_HASH160 fb886c986f9ead9dcd8f6c388330fb899b49cae4 OP_EQUALVERIFY OP_CHECKSIG", "type": "pubkeyhash"}, "value": 0.00926443, "n": 63}, {"scriptPubKey": {"reqSigs": 1, "hex": "76a9144dd68381f150ff31f7d5e885bdbd4d6b0dc24ea388ac", "addresses": ["186a1SmMhGb4SQ52wuVDfJfD6PMsZRxBww"], "asm": "OP_DUP OP_HASH160 4dd68381f150ff31f7d5e885bdbd4d6b0dc24ea3 OP_EQUALVERIFY OP_CHECKSIG", "type": "pubkeyhash"}, "value": 0.00967685, "n": 64}, {"scriptPubKey": {"reqSigs": 1, "hex": "76a914b5c72c528da656b21902ba815c745db6011a59ad88ac", "addresses": ["1Ha9uWmnUCyc17e88gAjSNS44MsnZksq6q"], "asm": "OP_DUP OP_HASH160 b5c72c528da656b21902ba815c745db6011a59ad OP_EQUALVERIFY OP_CHECKSIG", "type": "pubkeyhash"}, "value": 0.0094661, "n": 65}, {"scriptPubKey": {"reqSigs": 1, "hex": "76a914aed7bc408f38199db496e7711d2b99542c567e1a88ac", "addresses": ["1GwV1wBJatsb2NZov4jYJGGEK6FvofzXVP"], "asm": "OP_DUP OP_HASH160 aed7bc408f38199db496e7711d2b99542c567e1a OP_EQUALVERIFY OP_CHECKSIG", "type": "pubkeyhash"}, "value": 0.00962691, "n": 66}, {"scriptPubKey": {"reqSigs": 1, "hex": "a9147af9eee0cbcbfb479a0cbd753526663cefface0187", "addresses": ["3CuFmc1rFiCHzj6X9Ch1jjpto6pkQafWXh"], "asm": "OP_HASH160 7af9eee0cbcbfb479a0cbd753526663cefface01 OP_EQUAL", "type": "scripthash"}, "value": 0.01005697, "n": 67}, {"scriptPubKey": {"reqSigs": 1, "hex": "76a9140c7ea29858fbeceffb45e0597bd0fb1da4f3e50c88ac", "addresses": ["1294p4oVrGdcB92beR7aFv8ypMapWD4X7S"], "asm": "OP_DUP OP_HASH160 0c7ea29858fbeceffb45e0597bd0fb1da4f3e50c OP_EQUALVERIFY OP_CHECKSIG", "type": "pubkeyhash"}, "value": 0.01003564, "n": 68}, {"scriptPubKey": {"reqSigs": 1, "hex": "76a9142b11a5c1296b5ae6544ddee5e0130b1270e0f4ab88ac", "addresses": ["14vjCRBryJePc434WzTB98RvUd9GyLMjnw"], "asm": "OP_DUP OP_HASH160 2b11a5c1296b5ae6544ddee5e0130b1270e0f4ab OP_EQUALVERIFY OP_CHECKSIG", "type": "pubkeyhash"}, "value": 0.00962948, "n": 69}, {"scriptPubKey": {"reqSigs": 1, "hex": "76a914657d3dc2f9be54a6ebc2ac2eee3d5c024ff956f588ac", "addresses": ["1AFdHHpHSJ3J9mLv5XeTWhve1SXVLWoLMo"], "asm": "OP_DUP OP_HASH160 657d3dc2f9be54a6ebc2ac2eee3d5c024ff956f5 OP_EQUALVERIFY OP_CHECKSIG", "type": "pubkeyhash"}, "value": 0.01001556, "n": 70}, {"scriptPubKey": {"reqSigs": 1, "hex": "a9147ae245322a10ed9987c122cd22c9c71f8774742487", "addresses": ["3CtmRUxiZoZub9fXouePAaZP4BvkWmJRwQ"], "asm": "OP_HASH160 7ae245322a10ed9987c122cd22c9c71f87747424 OP_EQUAL", "type": "scripthash"}, "value": 0.0100181, "n": 71}, {"scriptPubKey": {"reqSigs": 1, "hex": "a914ee086151fd9e2b95f9c875d25b0b29db81ba817787", "addresses": ["3PPcnToZNYfBpgkVWUVQjKjgxSDcbVDCZR"], "asm": "OP_HASH160 ee086151fd9e2b95f9c875d25b0b29db81ba8177 OP_EQUAL", "type": "scripthash"}, "value": 0.00953063, "n": 72}, {"scriptPubKey": {"reqSigs": 1, "hex": "a914c6d5461a61b221cb913c9853f36b30adaa17c35c87", "addresses": ["3KpMD3zRersqJKaNY7vijDYW73pQq6pU1N"], "asm": "OP_HASH160 c6d5461a61b221cb913c9853f36b30adaa17c35c OP_EQUAL", "type": "scripthash"}, "value": 0.00956419, "n": 73}, {"scriptPubKey": {"reqSigs": 1, "hex": "76a91400c59a833858b1f2b56f740e1aa87ff4abd22a3d88ac", "addresses": ["1155ijiBBHGjMtpgKLWcCcQykpsussyVR5"], "asm": "OP_DUP OP_HASH160 00c59a833858b1f2b56f740e1aa87ff4abd22a3d OP_EQUALVERIFY OP_CHECKSIG", "type": "pubkeyhash"}, "value": 0.00926896, "n": 74}, {"scriptPubKey": {"reqSigs": 1, "hex": "76a9146c9d95a4f4306ecdbee5ff3c91b7f97056962af388ac", "addresses": ["1AuJktGwcnLkpxqanD5iANmnmCBwWvzH66"], "asm": "OP_DUP OP_HASH160 6c9d95a4f4306ecdbee5ff3c91b7f97056962af3 OP_EQUALVERIFY OP_CHECKSIG", "type": "pubkeyhash"}, "value": 0.00952947, "n": 75}, {"scriptPubKey": {"reqSigs": 1, "hex": "76a91444fa2235a9f2377816ccf94702782abf9bf0ed9788ac", "addresses": ["17HibdmJWmn41hzkNTEJkDxTMyph8wU9A1"], "asm": "OP_DUP OP_HASH160 44fa2235a9f2377816ccf94702782abf9bf0ed97 OP_EQUALVERIFY OP_CHECKSIG", "type": "pubkeyhash"}, "value": 0.00927396, "n": 76}, {"scriptPubKey": {"reqSigs": 1, "hex": "76a914e5054072985fd8f712efebdb3e9c59754250f91288ac", "addresses": ["1Msx2pyDKWCKGLCk22xrqxdXf53c3NSAJj"], "asm": "OP_DUP OP_HASH160 e5054072985fd8f712efebdb3e9c59754250f912 OP_EQUALVERIFY OP_CHECKSIG", "type": "pubkeyhash"}, "value": 0.00994808, "n": 77}, {"scriptPubKey": {"reqSigs": 1, "hex": "76a91438f125f801d7e4adc27009c6af7bef11a445214b88ac", "addresses": ["16C5j2ELjRjVDWxuKWoFrMSAYDxth7RGVY"], "asm": "OP_DUP OP_HASH160 38f125f801d7e4adc27009c6af7bef11a445214b OP_EQUALVERIFY OP_CHECKSIG", "type": "pubkeyhash"}, "value": 0.00928591, "n": 78}, {"scriptPubKey": {"reqSigs": 1, "hex": "76a91478b73edaede5d6b2253401dc7612818c7c163c4088ac", "addresses": ["1C1Hc9FCUWjk1NadeV7JaWhpAquL2YM3qe"], "asm": "OP_DUP OP_HASH160 78b73edaede5d6b2253401dc7612818c7c163c40 OP_EQUALVERIFY OP_CHECKSIG", "type": "pubkeyhash"}, "value": 0.00912473, "n": 79}, {"scriptPubKey": {"reqSigs": 1, "hex": "76a914627b2bb1be209a809d4130aebbdcb245fee2726388ac", "addresses": ["19yimrCknUxnB9TDQwBouHahiQSQ24LYSp"], "asm": "OP_DUP OP_HASH160 627b2bb1be209a809d4130aebbdcb245fee27263 OP_EQUALVERIFY OP_CHECKSIG", "type": "pubkeyhash"}, "value": 0.00937899, "n": 80}, {"scriptPubKey": {"reqSigs": 1, "hex": "76a91499e7f9c5fe3a2417cc2366fd39eeaf96d382a44d88ac", "addresses": ["1F2nHJZEb6JkZyecfgB1mm9JQDyTv8mhdn"], "asm": "OP_DUP OP_HASH160 99e7f9c5fe3a2417cc2366fd39eeaf96d382a44d OP_EQUALVERIFY OP_CHECKSIG", "type": "pubkeyhash"}, "value": 0.009616, "n": 81}, {"scriptPubKey": {"reqSigs": 1, "hex": "76a914727baa8ff4b6314fd872d4c9502401f4571e747d88ac", "addresses": ["1BSLBMMiZykd5egxm2Tnzs51SDn3Y76e3H"], "asm": "OP_DUP OP_HASH160 727baa8ff4b6314fd872d4c9502401f4571e747d OP_EQUALVERIFY OP_CHECKSIG", "type": "pubkeyhash"}, "value": 0.0093643, "n": 82}, {"scriptPubKey": {"reqSigs": 1, "hex": "76a9141d8916d04c739b9e5948757253f6fdfcab2b9ac888ac", "addresses": ["13hApgYiFFPeKiSkSmb8iPiUwK2qvtmbnf"], "asm": "OP_DUP OP_HASH160 1d8916d04c739b9e5948757253f6fdfcab2b9ac8 OP_EQUALVERIFY OP_CHECKSIG", "type": "pubkeyhash"}, "value": 0.01006042, "n": 83}, {"scriptPubKey": {"reqSigs": 1, "hex": "76a91436c1df3e67a88c10d2fb9775a836bcae77cff3f388ac", "addresses": ["15zXjpqTdNN8vKmQSTbJLHzJbqWKqKnJso"], "asm": "OP_DUP OP_HASH160 36c1df3e67a88c10d2fb9775a836bcae77cff3f3 OP_EQUALVERIFY OP_CHECKSIG", "type": "pubkeyhash"}, "value": 0.00980578, "n": 84}, {"scriptPubKey": {"reqSigs": 1, "hex": "a914ab03284f38ef6fe2243d14c3281ed9220517a48987", "addresses": ["3HHFFjLoe9DRLVsazuEod7k2jM2izAJ2cA"], "asm": "OP_HASH160 ab03284f38ef6fe2243d14c3281ed9220517a489 OP_EQUAL", "type": "scripthash"}, "value": 0.01000819, "n": 85}, {"scriptPubKey": {"reqSigs": 1, "hex": "a9143336306a53fe9a833232dedfa12393edc6a56a6287", "addresses": ["36MoJTFHbYu1YkCWHwmHTsmBMkwGk6c6bL"], "asm": "OP_HASH160 3336306a53fe9a833232dedfa12393edc6a56a62 OP_EQUAL", "type": "scripthash"}, "value": 0.00964049, "n": 86}, {"scriptPubKey": {"reqSigs": 1, "hex": "76a9143a392fc3baf2fef8ebeb73b4f68cea587b2e2b9f88ac", "addresses": ["16JrhX8MCzFtpjtT4uJsbvcRFcyTo5CwA1"], "asm": "OP_DUP OP_HASH160 3a392fc3baf2fef8ebeb73b4f68cea587b2e2b9f OP_EQUALVERIFY OP_CHECKSIG", "type": "pubkeyhash"}, "value": 0.01001527, "n": 87}, {"scriptPubKey": {"reqSigs": 1, "hex": "76a914d8aa030f5d0baa0db7d00c4836191ce4fd999bf588ac", "addresses": ["1Lkcd5ETiRhXQo9j9jtoVtVqJNp2BYdMNb"], "asm": "OP_DUP OP_HASH160 d8aa030f5d0baa0db7d00c4836191ce4fd999bf5 OP_EQUALVERIFY OP_CHECKSIG", "type": "pubkeyhash"}, "value": 0.00956357, "n": 88}, {"scriptPubKey": {"reqSigs": 1, "hex": "a9145183d983acb81bc11497d064ab9adf075909f1f087", "addresses": ["3982cA5ftJcbKR7ejJiNSvk7vQrdSqfAe1"], "asm": "OP_HASH160 5183d983acb81bc11497d064ab9adf075909f1f0 OP_EQUAL", "type": "scripthash"}, "value": 0.00961145, "n": 89}, {"scriptPubKey": {"reqSigs": 1, "hex": "76a914cda67870d0988307ca177c84debae570edabe96d88ac", "addresses": ["1KkNwtzNiGxN9VhxrmASUpkWBdpZpLo3B2"], "asm": "OP_DUP OP_HASH160 cda67870d0988307ca177c84debae570edabe96d OP_EQUALVERIFY OP_CHECKSIG", "type": "pubkeyhash"}, "value": 0.00972156, "n": 90}, {"scriptPubKey": {"reqSigs": 1, "hex": "a9147cd467ca1a38365d52d1cf90dbce6f590f8e33e287", "addresses": ["3D54AX2hYAo2Ut1Bi4DFG8MZCvhxtEAn6A"], "asm": "OP_HASH160 7cd467ca1a38365d52d1cf90dbce6f590f8e33e2 OP_EQUAL", "type": "scripthash"}, "value": 0.0093983, "n": 91}, {"scriptPubKey": {"reqSigs": 1, "hex": "a914a01a93cfdae922dc2a7f6b1fb86820730f11e24787", "addresses": ["3GHZssBjj3cmAqHi1P17ZQxoY9cUSaVtTW"], "asm": "OP_HASH160 a01a93cfdae922dc2a7f6b1fb86820730f11e247 OP_EQUAL", "type": "scripthash"}, "value": 0.00914121, "n": 92}, {"scriptPubKey": {"reqSigs": 1, "hex": "76a91410925d59f2bb62f9c0f1cfd8be5b1deff7993d3b88ac", "addresses": ["12Wd9fVjcaTieJ1hjVdEafTDNwdmKvN2SD"], "asm": "OP_DUP OP_HASH160 10925d59f2bb62f9c0f1cfd8be5b1deff7993d3b OP_EQUALVERIFY OP_CHECKSIG", "type": "pubkeyhash"}, "value": 0.00988435, "n": 93}, {"scriptPubKey": {"reqSigs": 1, "hex": "a914e616ce09b90fe9f510d908252e9748d5a981a97c87", "addresses": ["3NfcfAxdBrwcjnPsakHxxhDDqWMQxKzrQt"], "asm": "OP_HASH160 e616ce09b90fe9f510d908252e9748d5a981a97c OP_EQUAL", "type": "scripthash"}, "value": 0.00909257, "n": 94}, {"scriptPubKey": {"reqSigs": 1, "hex": "76a91437b7d43a73576c4f89d1738efd8b68a9a6df5c8588ac", "addresses": ["165cPDTCq2NtWKbVDMnpPAZ23X2XZfR1hr"], "asm": "OP_DUP OP_HASH160 37b7d43a73576c4f89d1738efd8b68a9a6df5c85 OP_EQUALVERIFY OP_CHECKSIG", "type": "pubkeyhash"}, "value": 0.01008828, "n": 95}, {"scriptPubKey": {"reqSigs": 1, "hex": "76a914b30a22d2483ac87308e99acdd6330d9dab7486f388ac", "addresses": ["1HKg6bqtpsHqFCM4APWpm34hcJRghWgRnC"], "asm": "OP_DUP OP_HASH160 b30a22d2483ac87308e99acdd6330d9dab7486f3 OP_EQUALVERIFY OP_CHECKSIG", "type": "pubkeyhash"}, "value": 0.01006899, "n": 96}, {"scriptPubKey": {"reqSigs": 1, "hex": "76a914598c2c6ba110920a0c33a838590aebad11151cf988ac", "addresses": ["19AV4VymGAMjvcUkzg851sGA3RYvYXDMN9"], "asm": "OP_DUP OP_HASH160 598c2c6ba110920a0c33a838590aebad11151cf9 OP_EQUALVERIFY OP_CHECKSIG", "type": "pubkeyhash"}, "value": 0.00978013, "n": 97}, {"scriptPubKey": {"reqSigs": 1, "hex": "76a914bdb31d4f9ad05b9b6021932303f9df8b2962a47388ac", "addresses": ["1JJ3HMG4EGHYy5c9Wdn4QwgKVc98hAacLy"], "asm": "OP_DUP OP_HASH160 bdb31d4f9ad05b9b6021932303f9df8b2962a473 OP_EQUALVERIFY OP_CHECKSIG", "type": "pubkeyhash"}, "value": 0.01007965, "n": 98}, {"scriptPubKey": {"reqSigs": 1, "hex": "76a91447704cecac8ad37de6736026d0354fcbb2b382d788ac", "addresses": ["17WjWPtFEUpmUME8VtCGGEAe6229h4u5qa"], "asm": "OP_DUP OP_HASH160 47704cecac8ad37de6736026d0354fcbb2b382d7 OP_EQUALVERIFY OP_CHECKSIG", "type": "pubkeyhash"}, "value": 0.00976111, "n": 99}, {"scriptPubKey": {"reqSigs": 1, "hex": "76a91456ee2bf4937151a2aa18d7296f79092c72229b7488ac", "addresses": ["18veRxXLTHJC1FZyKEHyqCvLz4jJ7nxYCP"], "asm": "OP_DUP OP_HASH160 56ee2bf4937151a2aa18d7296f79092c72229b74 OP_EQUALVERIFY OP_CHECKSIG", "type": "pubkeyhash"}, "value": 0.00930009, "n": 100}], "hex": "02000000015403ea7fe8f6cbf276f5f2f46c960d988bc5929d25d6e2597e6c64629adb69cf190000006b483045022100884ff5847bc0627535b33dfd86ab9dca4803c5d7aa61d0f0562b0b378a647a7c0220377dc49fabc5971dd39b02e5b7f9697f56ad00ff4f71e207fce2f1a6840f7e90012103e241abe48504b64c7db0695fa8c93c059a6a1cfa077b2e32e80bee13d91d414bfeffffff65cf8a0e00000000001976a9142c9cd2cfa28015908ec7b7589423c82c2b3b6c7188acfa660e00000000001976a9146167e249acd37aacfa7ae26e903d288ba3208ab288ac35fc0d00000000001976a91439da53ab52eeb68694e3847ad89b8bbb16a3b9ae88ac58510f000000000017a91481ec8c40c96490315d686881e196443970c218568750040f00000000001976a914126a00e91b91a5f07bc8d4f68b38014c077d9f0888acc4580e00000000001976a914de881005fbbbbe4c1c629229983f345bc19415dc88acfa3b0e00000000001976a914679125422221d805d2b8022694cd95978d3367d988ac20890efd000000001976a9148f6325ac40f82c1b705fa4e90bd5d47edf7d849588ace0b90e00000000001976a914d7b249cf4c98dd262d8e233d1f2cb87b1d6b813588acd5430e00000000001976a914f5857d004daf9c30ead586d06fbf81fe0f99f9f788ac114d0f00000000001976a9140a65dc95c0e56158b30492c34b550cf7b2291ed088acca400e00000000001976a91466e441a7d8820a5be8d22db22a3b3172ae1b7faa88ac86600f000000000017a91413acdaa4dff89ef49c62e9a54066d0026e1735528742880e00000000001976a91496e8460bb1daaa0e48ba2eb9e8c97e93cc091d4188ac481d0f00000000001976a914c35cd9f92557707173216ec5072fd5c4746008f788ac4e2c0f00000000001976a914886dd21edebf024ab81dcf2e11074e4ba159258b88ac037c0e00000000001976a91463b4bea97e1fa655c312cba8004e8f096bbaedc488ac34f10d000000000017a9140b90347ac9c66059ef56cb7a568c20a0404ab0e98770490f00000000001976a9143ee2482e93a171d3ccd508915610a4c6e3717a6c88acec720e00000000001976a914bbd7885ecab1fcc10f0d9a03e2572c92febf732c88acbb490f000000000017a91431fb3b6d9f626cedff31656deb9200c7c40ac88787a7230f000000000017a914419eee949c2ef030eeba4ac5df94bdf47d39c421875b800e00000000001976a91405d6ffa65000405bb40937f7bda7aa08ed60194d88ac573b0e000000000017a914078f67e8d8e80b9267875fb8146cf37910b64e83873c350e00000000001976a9148ada033fee041200b6875f1d1e681b4007a439db88ac1d9a0e00000000001976a914570c19cd2a818dd513d1d513b568e31ba09f0f6b88ac0fc30e00000000001976a9144baecf49bd89e1473044e98caac52df3532c9db188acabfb0d000000000017a9145df72750c71930cec53253d2dac31a1b76f259bd87fce60e000000000017a9146c5bfd9d5be7998797ee071461edc02862c0d97087820c0f00000000001976a91420286e89d85459cf94acb7a1734318b3c249e7e088acc34a0e00000000001976a91410dba0f7c140c27d3f34fdc12110ec0e70fe73d688ac40cd0e000000000017a914d3bb5cb65028b5ace9cfd1ae0bda4c7bd917170a875f390e000000000017a914793acb2f66bc12f82cbb1e0d54462f98b1329acb877f830e00000000001976a91446bbe61aa8a5608d8de42252a1986f390bf2bf7388acdc0b0f00000000001976a914aa4ec9ac448b1fd15065be2fd64242a65591ecba88ac99490e00000000001976a9149c056f8558d5c71cfa53b6d1fc87a7d6ec152b9988ac422c0e000000000017a9142cec35ecf5c7f5071b8f96dab41028b66c46a1338708750e000000000017a9142668ff44c7a16bcea7ef7f93b6b11d01943729f287f2390e000000000017a91471ac87910e35dd491ceea32d33db5e8a6127a22787925d0f00000000001976a914715578e0d6403dc9a1a2f21bbe711df4e5e5325888ac4a480e000000000017a9141088d8d5556e98bb228f3c53277ca30239e367508743f80e00000000001976a914aec125fe305f6b536cc33975b3def43e2537b8bf88acf34f0f00000000001976a91416c2ae5d86eddbfd91ff09efdc8df987843020a388aca8470e000000000017a9148fb23b872994080f6c8bc29d9cc117c17b79f6ea873f8e0e00000000001976a9144bd955d9bfc3e623ab78fddc6fa40c4d4fdd26e588ac05860e00000000001976a91497458a305d9139a6795745f6992af8159982b96d88ac66570e00000000001976a9149457961ce3f04812747eeb8fe7b006f647a1018488ac58300e000000000017a914b56e62fa88102ff9d50891e88791c434bf2040d687e3790e000000000017a91471e1cd02ba37e2ba3e2398773dbc561bd57058cd8759200e00000000001976a9144c09605b8dd7ce96ccd08fb4532d8cdfbc62c6c188ac534d0f000000000017a9142ad851b47427b72f2ee0de7a2d40672882c8d03a87d8af0e00000000001976a9141710fa1cf5a50d276cc75a35b502ef8381f4a97a88ac44890e00000000001976a9142b4d779c83cd03c05a7d4c0f20917ccd28ba606c88acb9270f000000000017a914435b90f381e4d3acbc21e07e31e7857e1ca0938f871a430f000000000017a9147904034c96cb2a8b2cd822799a960c35636bbdb58797c00e00000000001976a914a8f2787e61c160bac7a994d617fd12f9f7bc774088acf0080f00000000001976a9145dddb725acec3704e7e820ddbabae9fbe2fcc51088ac1c4e0f00000000001976a9149c7e881f3d121c93cdd6b9afe4ec150d3ad4bd2088ac26920e000000000017a914ff20b06315bdf5c2cc8cc2b52f8e46ffec2cac3b87aaef0d00000000001976a914b424e5a2cb34b90a7d23a118e51364e4e2eeedf688accdb10e00000000001976a914e8e0fc36d0cb15a27c5f1e53ebee306179e8de5188accfb70e000000000017a91451e38c9b4da7ec5db5bcabbb9d6485fb1b79dbb6878b360e000000000017a914a6ca97ac2591ec0baa837b356e708bc159d5636787eb220e00000000001976a914fb886c986f9ead9dcd8f6c388330fb899b49cae488ac05c40e00000000001976a9144dd68381f150ff31f7d5e885bdbd4d6b0dc24ea388acb2710e00000000001976a914b5c72c528da656b21902ba815c745db6011a59ad88ac83b00e00000000001976a914aed7bc408f38199db496e7711d2b99542c567e1a88ac81580f000000000017a9147af9eee0cbcbfb479a0cbd753526663cefface01872c500f00000000001976a9140c7ea29858fbeceffb45e0597bd0fb1da4f3e50c88ac84b10e00000000001976a9142b11a5c1296b5ae6544ddee5e0130b1270e0f4ab88ac54480f00000000001976a914657d3dc2f9be54a6ebc2ac2eee3d5c024ff956f588ac52490f000000000017a9147ae245322a10ed9987c122cd22c9c71f8774742487e78a0e000000000017a914ee086151fd9e2b95f9c875d25b0b29db81ba81778703980e000000000017a914c6d5461a61b221cb913c9853f36b30adaa17c35c87b0240e00000000001976a91400c59a833858b1f2b56f740e1aa87ff4abd22a3d88ac738a0e00000000001976a9146c9d95a4f4306ecdbee5ff3c91b7f97056962af388aca4260e00000000001976a91444fa2235a9f2377816ccf94702782abf9bf0ed9788acf82d0f00000000001976a914e5054072985fd8f712efebdb3e9c59754250f91288ac4f2b0e00000000001976a91438f125f801d7e4adc27009c6af7bef11a445214b88ac59ec0d00000000001976a91478b73edaede5d6b2253401dc7612818c7c163c4088acab4f0e00000000001976a914627b2bb1be209a809d4130aebbdcb245fee2726388ac40ac0e00000000001976a91499e7f9c5fe3a2417cc2366fd39eeaf96d382a44d88acee490e00000000001976a914727baa8ff4b6314fd872d4c9502401f4571e747d88acda590f00000000001976a9141d8916d04c739b9e5948757253f6fdfcab2b9ac888ac62f60e00000000001976a91436c1df3e67a88c10d2fb9775a836bcae77cff3f388ac73450f000000000017a914ab03284f38ef6fe2243d14c3281ed9220517a48987d1b50e000000000017a9143336306a53fe9a833232dedfa12393edc6a56a628737480f00000000001976a9143a392fc3baf2fef8ebeb73b4f68cea587b2e2b9f88acc5970e00000000001976a914d8aa030f5d0baa0db7d00c4836191ce4fd999bf588ac79aa0e000000000017a9145183d983acb81bc11497d064ab9adf075909f1f0877cd50e00000000001976a914cda67870d0988307ca177c84debae570edabe96d88ac36570e000000000017a9147cd467ca1a38365d52d1cf90dbce6f590f8e33e287c9f20d000000000017a914a01a93cfdae922dc2a7f6b1fb86820730f11e2478713150f00000000001976a91410925d59f2bb62f9c0f1cfd8be5b1deff7993d3b88acc9df0d000000000017a914e616ce09b90fe9f510d908252e9748d5a981a97c87bc640f00000000001976a91437b7d43a73576c4f89d1738efd8b68a9a6df5c8588ac335d0f00000000001976a914b30a22d2483ac87308e99acdd6330d9dab7486f388ac5dec0e00000000001976a914598c2c6ba110920a0c33a838590aebad11151cf988ac5d610f00000000001976a914bdb31d4f9ad05b9b6021932303f9df8b2962a47388acefe40e00000000001976a91447704cecac8ad37de6736026d0354fcbb2b382d788acd9300e00000000001976a91456ee2bf4937151a2aa18d7296f79092c72229b7488acc6480800", "vin": [{"sequence": 4294967294, "scriptSig": {"hex": "483045022100884ff5847bc0627535b33dfd86ab9dca4803c5d7aa61d0f0562b0b378a647a7c0220377dc49fabc5971dd39b02e5b7f9697f56ad00ff4f71e207fce2f1a6840f7e90012103e241abe48504b64c7db0695fa8c93c059a6a1cfa077b2e32e80bee13d91d414b", "asm": "3045022100884ff5847bc0627535b33dfd86ab9dca4803c5d7aa61d0f0562b0b378a647a7c0220377dc49fabc5971dd39b02e5b7f9697f56ad00ff4f71e207fce2f1a6840f7e90[ALL] 03e241abe48504b64c7db0695fa8c93c059a6a1cfa077b2e32e80bee13d91d414b"}, "vout": 25, "txid": "cf69db9a62646c7e59e2d6259d92c58b980d966cf4f2f576f2cbf6e87fea0354"}], "txid": "96760188a2a4b057c031d81648f50ab5945a00c29bbe2d4c1792cd6a8eb8065f", "blocktime": 1537871767, "version": 2, "confirmations": 11495, "time": 1537871767, "locktime": 542918, "vsize": 3526, "size": 3526}