{"hash": "967b0610aac98e91ee55196e2ea35dd54070178381b0140143b227e755f63ca9", "blockhash": "00000000000000000017f5eb5941039fbcee6240d03bc1f2f8e35350df66a1d8", "vout": [{"scriptPubKey": {"reqSigs": 1, "hex": "a914462db2df968b9b37ad7f7ed7bac038fedadebe2387", "addresses": ["3865yB6dcvRRHjQZtWixVFdtQESiYFjtBH"], "asm": "OP_HASH160 462db2df968b9b37ad7f7ed7bac038fedadebe23 OP_EQUAL", "type": "scripthash"}, "value": 0.0082, "n": 0}, {"scriptPubKey": {"reqSigs": 1, "hex": "76a914dcb2945c788bdedf1be5e303a6dbae73af618fe488ac", "addresses": ["1M7wb8L8zoN1BgiCa6sv8gZ8iTpHCKsaBv"], "asm": "OP_DUP OP_HASH160 dcb2945c788bdedf1be5e303a6dbae73af618fe4 OP_EQUALVERIFY OP_CHECKSIG", "type": "pubkeyhash"}, "value": 0.21403556, "n": 1}], "hex": "0200000001ef9779021c97be2785d05ec68b555633aabdf57bd33d9131dfbbcc586588e1b1000000006b483045022100d774f08ce6847602eaee0abf912d737319db1314eb48209567ca7ec4e9ac878802202bd2660f4fefad755e2d6c784bf4fb3315cec809171c90bbb7111e63bf57c00e01210302579cfd133c413572c210af772eb3203486fe0a04f9d68829a517d036269089feffffff0220830c000000000017a914462db2df968b9b37ad7f7ed7bac038fedadebe2387a4974601000000001976a914dcb2945c788bdedf1be5e303a6dbae73af618fe488ac15490800", "vin": [{"sequence": 4294967294, "scriptSig": {"hex": "483045022100d774f08ce6847602eaee0abf912d737319db1314eb48209567ca7ec4e9ac878802202bd2660f4fefad755e2d6c784bf4fb3315cec809171c90bbb7111e63bf57c00e01210302579cfd133c413572c210af772eb3203486fe0a04f9d68829a517d036269089", "asm": "3045022100d774f08ce6847602eaee0abf912d737319db1314eb48209567ca7ec4e9ac878802202bd2660f4fefad755e2d6c784bf4fb3315cec809171c90bbb7111e63bf57c00e[ALL] 0302579cfd133c413572c210af772eb3203486fe0a04f9d68829a517d036269089"}, "vout": 0, "txid": "b1e1886558ccbbdf31913dd37bf5bdaa3356558bc65ed08527be971c027997ef"}], "txid": "967b0610aac98e91ee55196e2ea35dd54070178381b0140143b227e755f63ca9", "blocktime": 1537874412, "version": 2, "confirmations": 11466, "time": 1537874412, "locktime": 542997, "vsize": 224, "size": 224}