{"hash": "967c2538bf3c4c5651ed8f0050671fd7915a7f3684da30e87f0a54c3c14f3a6a", "blockhash": "0000000000000000001cda96e906b7601b7a6fb1a3b62bca570a9e5d8f4b3de1", "vout": [{"scriptPubKey": {"reqSigs": 1, "hex": "76a914202c21eb4fbf74d256499ca7776fb9855513755688ac", "addresses": ["13w7VX4FvMKHcifLUAB1fS56ArHXYSPmBU"], "asm": "OP_DUP OP_HASH160 202c21eb4fbf74d256499ca7776fb98555137556 OP_EQUALVERIFY OP_CHECKSIG", "type": "pubkeyhash"}, "value": 0.00498436, "n": 0}, {"scriptPubKey": {"reqSigs": 1, "hex": "a9140a45df7e7024cecb312bb589cb6e52d97a803c4f87", "addresses": ["32dLPKnv4kBL6Dh1tPgsu85pMtp5ubgkSS"], "asm": "OP_HASH160 0a45df7e7024cecb312bb589cb6e52d97a803c4f OP_EQUAL", "type": "scripthash"}, "value": 0.31440692, "n": 1}], "hex": "010000000199b89c9371f141dc7ff0677d4358c051b1ac7677e032dee470c9a9d76cf7fb0904000000fdfd0000473044022009214629a50f3fb2cf46b7a748390be0a34c0028c904f3eb1a541f6f72106af202205b91a4b082ad2549db7b78a2aaf519d35bdf3f628aa51499c270f1def3b732a601483045022100c59efc5e8aa84368c28bf1916d0765716c0b568f2730eb0a1aea709905c0a30502203e9c8910ce13984531fa87c5d10f944608ccca04271c3d3699999f01be80e8cb014c69522103b2a07ab25b39e3b42510406775a2db4d92343900a642f0ef0b6d307fb4ac3d97210207efab496555b529d277bdf5c92bbd63befc3d45047b15b0e52a8ffe19f891902102faf44d39833a46089f7a4616b488981003782fced54580a1c53547c3175649a453aeffffffff02049b0700000000001976a914202c21eb4fbf74d256499ca7776fb9855513755688ac34bfdf010000000017a9140a45df7e7024cecb312bb589cb6e52d97a803c4f8700000000", "vin": [{"sequence": 4294967295, "scriptSig": {"hex": "00473044022009214629a50f3fb2cf46b7a748390be0a34c0028c904f3eb1a541f6f72106af202205b91a4b082ad2549db7b78a2aaf519d35bdf3f628aa51499c270f1def3b732a601483045022100c59efc5e8aa84368c28bf1916d0765716c0b568f2730eb0a1aea709905c0a30502203e9c8910ce13984531fa87c5d10f944608ccca04271c3d3699999f01be80e8cb014c69522103b2a07ab25b39e3b42510406775a2db4d92343900a642f0ef0b6d307fb4ac3d97210207efab496555b529d277bdf5c92bbd63befc3d45047b15b0e52a8ffe19f891902102faf44d39833a46089f7a4616b488981003782fced54580a1c53547c3175649a453ae", "asm": "0 3044022009214629a50f3fb2cf46b7a748390be0a34c0028c904f3eb1a541f6f72106af202205b91a4b082ad2549db7b78a2aaf519d35bdf3f628aa51499c270f1def3b732a6[ALL] 3045022100c59efc5e8aa84368c28bf1916d0765716c0b568f2730eb0a1aea709905c0a30502203e9c8910ce13984531fa87c5d10f944608ccca04271c3d3699999f01be80e8cb[ALL] 522103b2a07ab25b39e3b42510406775a2db4d92343900a642f0ef0b6d307fb4ac3d97210207efab496555b529d277bdf5c92bbd63befc3d45047b15b0e52a8ffe19f891902102faf44d39833a46089f7a4616b488981003782fced54580a1c53547c3175649a453ae"}, "vout": 4, "txid": "09fbf76cd7a9c970e4de32e07776acb151c058437d67f07fdc41f171939cb899"}], "txid": "967c2538bf3c4c5651ed8f0050671fd7915a7f3684da30e87f0a54c3c14f3a6a", "blocktime": 1537873282, "version": 1, "confirmations": 11485, "time": 1537873282, "locktime": 0, "vsize": 372, "size": 372}