{"hash": "967fd0c7a093c0eb6dc4af78a1827e622e1dbf8f73e1aa882967335cac6688fe", "blockhash": "0000000000000000000baef3f32e3676a92c3b2e5da21b426e4f302fc371ce76", "vout": [{"scriptPubKey": {"reqSigs": 1, "hex": "76a914d56c84fb662ea863e2a2c583d57d5427e8ba3a4488ac", "addresses": ["1LTUvvc5EpxMBN1EKiAXMqxt2WqKaUbtxR"], "asm": "OP_DUP OP_HASH160 d56c84fb662ea863e2a2c583d57d5427e8ba3a44 OP_EQUALVERIFY OP_CHECKSIG", "type": "pubkeyhash"}, "value": 0.00495944, "n": 0}, {"scriptPubKey": {"type": "nulldata", "hex": "6a146f6d6e69000000000000001f000002ba6021cb00", "asm": "OP_RETURN 6f6d6e69000000000000001f000002ba6021cb00"}, "value": 0.0, "n": 1}, {"scriptPubKey": {"reqSigs": 1, "hex": "76a91488d924f51033b74a895863a5fb57fd545529df7d88ac", "addresses": ["1DUb2YYbQA1jjaNYzVXLZ7ZioEhLXtbUru"], "asm": "OP_DUP OP_HASH160 88d924f51033b74a895863a5fb57fd545529df7d OP_EQUALVERIFY OP_CHECKSIG", "type": "pubkeyhash"}, "value": 5.46e-06, "n": 2}], "hex": "0100000001b43e2a52f15a56f40b36940757afefda4c1036b11653175d01ff480c1e493498000000006b483045022100c4549fd417008b400151028773debe8123020e9c0da464043d1323eacd91ca24022047279b1e25bb55417e019cac781d033df27faf55798730436c6079e0e62c9ed40121020345e403049ca31400c9f88b038441666f9751a0d13e1b2507aa90ef75a516b5feffffff0348910700000000001976a914d56c84fb662ea863e2a2c583d57d5427e8ba3a4488ac0000000000000000166a146f6d6e69000000000000001f000002ba6021cb0022020000000000001976a91488d924f51033b74a895863a5fb57fd545529df7d88ac17490800", "vin": [{"sequence": 4294967294, "scriptSig": {"hex": "483045022100c4549fd417008b400151028773debe8123020e9c0da464043d1323eacd91ca24022047279b1e25bb55417e019cac781d033df27faf55798730436c6079e0e62c9ed40121020345e403049ca31400c9f88b038441666f9751a0d13e1b2507aa90ef75a516b5", "asm": "3045022100c4549fd417008b400151028773debe8123020e9c0da464043d1323eacd91ca24022047279b1e25bb55417e019cac781d033df27faf55798730436c6079e0e62c9ed4[ALL] 020345e403049ca31400c9f88b038441666f9751a0d13e1b2507aa90ef75a516b5"}, "vout": 0, "txid": "9834491e0c48ff015d175316b136104cdaefaf570794360bf4565af1522a3eb4"}], "txid": "967fd0c7a093c0eb6dc4af78a1827e622e1dbf8f73e1aa882967335cac6688fe", "blocktime": 1537876114, "version": 1, "confirmations": 11459, "time": 1537876114, "locktime": 542999, "vsize": 257, "size": 257}