{"hash": "9680358f19e5fd33d77f09cefa4cf8db9c3d514324e9d6f7536ffa6b34ac4817", "blockhash": "0000000000000000001e0dab787dd257d1dbfcb92a98c2207d5e1078be1f4165", "vout": [{"scriptPubKey": {"reqSigs": 1, "hex": "a914357c3de7ec3da82cd35b07c2d923b4bb399b943487", "addresses": ["36ZpaBcSNkGZQaLgsnbEaDFHdb5sL9JvMm"], "asm": "OP_HASH160 357c3de7ec3da82cd35b07c2d923b4bb399b9434 OP_EQUAL", "type": "scripthash"}, "value": 0.0123229, "n": 0}], "hex": "010000000439c6310ac40a043d2b182d63de837134c60a735ca18b8a15b3197ac23aa0b869010000006b483045022100a2130b6f7731c9eee0e2ff97615a863e68e547c463b8f90cd7d5958a98e910e102202d3ca57046010375951b7431143d371e129fa1ddfb4bb07494080030eeea21fe0121024d4f3841f2ca76929798c3e112c1f7fe3bb496aa5f19379314ed1f94801c40c7fdffffffa175057bbe25cc751d55b033572971aa81e49744816bcc90c8deaf7540447c90010000006b483045022100bc4aaffcdf2ee6021a2b8967bf6d1cf2a9c7765b9c62711ab93cec1e5a3f198d02203271bd42fa5d6e8c08625253160f20ebc53ac17fc06ab7ff7456980aba1b0e130121024d4f3841f2ca76929798c3e112c1f7fe3bb496aa5f19379314ed1f94801c40c7fdffffffd46c5ce020cbe1f3113f64ff350f45f40e2169bb2ca130212ab5c22b18c704a4010000006b483045022100cc8e2182244ffd9b63de9ac35197e3a3a7a2c08863de40cc58d8427c6e845c480220799d366b364cfb44f25abe0e105b44ce943cbcf8ecf92abf59bf2aed2c7d29360121024d4f3841f2ca76929798c3e112c1f7fe3bb496aa5f19379314ed1f94801c40c7fdffffff154d04c1eb8da586618045abfd7c353ae2a38fb1a8d8d53fa38f7223124636d0010000006b483045022100c60ae5399032ef3d1a32225e9da08f9bce523d48475c164ca5a20fef2452280d022008b8d24e39fce63bd01db8bdfab0e33ee26a19dbb7e99882b4910b7fe9dbcd0e0121024d4f3841f2ca76929798c3e112c1f7fe3bb496aa5f19379314ed1f94801c40c7fdffffff01a2cd12000000000017a914357c3de7ec3da82cd35b07c2d923b4bb399b94348712490800", "vin": [{"sequence": 4294967293, "scriptSig": {"hex": "483045022100a2130b6f7731c9eee0e2ff97615a863e68e547c463b8f90cd7d5958a98e910e102202d3ca57046010375951b7431143d371e129fa1ddfb4bb07494080030eeea21fe0121024d4f3841f2ca76929798c3e112c1f7fe3bb496aa5f19379314ed1f94801c40c7", "asm": "3045022100a2130b6f7731c9eee0e2ff97615a863e68e547c463b8f90cd7d5958a98e910e102202d3ca57046010375951b7431143d371e129fa1ddfb4bb07494080030eeea21fe[ALL] 024d4f3841f2ca76929798c3e112c1f7fe3bb496aa5f19379314ed1f94801c40c7"}, "vout": 1, "txid": "69b8a03ac27a19b3158a8ba15c730ac6347183de632d182b3d040ac40a31c639"}, {"sequence": 4294967293, "scriptSig": {"hex": "483045022100bc4aaffcdf2ee6021a2b8967bf6d1cf2a9c7765b9c62711ab93cec1e5a3f198d02203271bd42fa5d6e8c08625253160f20ebc53ac17fc06ab7ff7456980aba1b0e130121024d4f3841f2ca76929798c3e112c1f7fe3bb496aa5f19379314ed1f94801c40c7", "asm": "3045022100bc4aaffcdf2ee6021a2b8967bf6d1cf2a9c7765b9c62711ab93cec1e5a3f198d02203271bd42fa5d6e8c08625253160f20ebc53ac17fc06ab7ff7456980aba1b0e13[ALL] 024d4f3841f2ca76929798c3e112c1f7fe3bb496aa5f19379314ed1f94801c40c7"}, "vout": 1, "txid": "907c444075afdec890cc6b814497e481aa71295733b0551d75cc25be7b0575a1"}, {"sequence": 4294967293, "scriptSig": {"hex": "483045022100cc8e2182244ffd9b63de9ac35197e3a3a7a2c08863de40cc58d8427c6e845c480220799d366b364cfb44f25abe0e105b44ce943cbcf8ecf92abf59bf2aed2c7d29360121024d4f3841f2ca76929798c3e112c1f7fe3bb496aa5f19379314ed1f94801c40c7", "asm": "3045022100cc8e2182244ffd9b63de9ac35197e3a3a7a2c08863de40cc58d8427c6e845c480220799d366b364cfb44f25abe0e105b44ce943cbcf8ecf92abf59bf2aed2c7d2936[ALL] 024d4f3841f2ca76929798c3e112c1f7fe3bb496aa5f19379314ed1f94801c40c7"}, "vout": 1, "txid": "a404c7182bc2b52a2130a12cbb69210ef4450f35ff643f11f3e1cb20e05c6cd4"}, {"sequence": 4294967293, "scriptSig": {"hex": "483045022100c60ae5399032ef3d1a32225e9da08f9bce523d48475c164ca5a20fef2452280d022008b8d24e39fce63bd01db8bdfab0e33ee26a19dbb7e99882b4910b7fe9dbcd0e0121024d4f3841f2ca76929798c3e112c1f7fe3bb496aa5f19379314ed1f94801c40c7", "asm": "3045022100c60ae5399032ef3d1a32225e9da08f9bce523d48475c164ca5a20fef2452280d022008b8d24e39fce63bd01db8bdfab0e33ee26a19dbb7e99882b4910b7fe9dbcd0e[ALL] 024d4f3841f2ca76929798c3e112c1f7fe3bb496aa5f19379314ed1f94801c40c7"}, "vout": 1, "txid": "d036461223728fa33fd5d8a8b18fa3e23a357cfdab45806186a58debc1044d15"}], "txid": "9680358f19e5fd33d77f09cefa4cf8db9c3d514324e9d6f7536ffa6b34ac4817", "blocktime": 1537872475, "version": 1, "confirmations": 11486, "time": 1537872475, "locktime": 542994, "vsize": 634, "size": 634}