{"hash": "c5eba599eb15a46c3d52ffcae5e31882f0766d467188b96757b600aaac5251bb", "blockhash": "0000000000000000000e13cef7c366c0283d82e591d1acd082e914b08063cdf1", "vout": [{"scriptPubKey": {"reqSigs": 1, "hex": "a914300edbb9b16d6b654992a2aeeff3907e6533db8587", "addresses": ["3658A8BEnQsKWMUDJpzsofo9kRvZvJV8pm"], "asm": "OP_HASH160 300edbb9b16d6b654992a2aeeff3907e6533db85 OP_EQUAL", "type": "scripthash"}, "value": 0.01023535, "n": 0}, {"scriptPubKey": {"reqSigs": 1, "hex": "a914db782aaa57cfd49637ac0ab79fc11bd52ae420d287", "addresses": ["3MhTrt2kH98aMgbBNprddD1moeWnBNZwDh"], "asm": "OP_HASH160 db782aaa57cfd49637ac0ab79fc11bd52ae420d2 OP_EQUAL", "type": "scripthash"}, "value": 0.00198568, "n": 1}], "hex": "020000000001041beef1ae6b7a8f5a382a630f262841a7c15d22073cda9fdb10a8b0634b1397890000000017160014066477ceae484dbd108ca285ec773685d54eb459feffffff3d59d54b04786b6bc2aa2cdf7f609af44a9dfdce1206cd38b79977822d65692a00000000171600141ba0bc6277a3e8cdc007ca14d91397fdd6eae7fbfeffffff63a59247bf448697908e8e400ab2611c02668bc25d1853e0fbc8d12952864eca0c000000171600140d8b63989c81285bd2fa7e6920c789568f49efbbfeffffffc5c3568de6ed1176383332e993ad7ccdd52f35e02e9eb7603f77b6d1562134d80000000017160014ad9435eca5c54064024cee2c013e1d9ee8feab8dfeffffff022f9e0f000000000017a914300edbb9b16d6b654992a2aeeff3907e6533db8587a80703000000000017a914db782aaa57cfd49637ac0ab79fc11bd52ae420d2870247304402204e096457a57f7e95c7b31e884a40abdb0202256da689e7a801689a2f8fa766d30220306b13ec0bb2f6940e4c94b067cebd85706bbe47f1ecea0d66a964a339f1281b0121038f701085474e50bf930a7a9b8a0156433a8c261d57c897c75aabb4e13e6fd33402483045022100a61eaf52fed7fee10a2abbc121c7758cda508c2a50c63e3a64b258e086534e18022026fa4b92997c977df3f321f60ca0fc9611ee7349562e1d9e8bc897e33504afba0121038b06a83ceb5a65eb7436f5e1a0745821232dbc6729bf5737739d96386c0e805c0248304502210082a676d3c9b3b3eafc8a5d20514c8c8330e34602a5aca51ec1c4d460385a5c5e022007f40bdbb49d54b3d183b6bd13873d166f32babf19b1d7b8d4470a412dbc2d830121031c2149aa20f388cf7efdc8c8ae5e1ac5be8c14247ea09283f58a578c3e7173c802483045022100f84894eef3eb4f90194ddf1164d8a27ab0f37ab318d0a6c298011f50800c81a902204cc1b8008a0486126ccfc042bb0244e5a335ff1517e1a297766f406ed9939896012103c4c7410b1cd4fb8f13db2eec89f17041572c77c51df53b21693555dd9105e20610490800", "vin": [{"txinwitness": ["304402204e096457a57f7e95c7b31e884a40abdb0202256da689e7a801689a2f8fa766d30220306b13ec0bb2f6940e4c94b067cebd85706bbe47f1ecea0d66a964a339f1281b01", "038f701085474e50bf930a7a9b8a0156433a8c261d57c897c75aabb4e13e6fd334"], "sequence": 4294967294, "scriptSig": {"hex": "160014066477ceae484dbd108ca285ec773685d54eb459", "asm": "0014066477ceae484dbd108ca285ec773685d54eb459"}, "vout": 0, "txid": "8997134b63b0a810db9fda3c07225dc1a74128260f632a385a8f7a6baef1ee1b"}, {"txinwitness": ["3045022100a61eaf52fed7fee10a2abbc121c7758cda508c2a50c63e3a64b258e086534e18022026fa4b92997c977df3f321f60ca0fc9611ee7349562e1d9e8bc897e33504afba01", "038b06a83ceb5a65eb7436f5e1a0745821232dbc6729bf5737739d96386c0e805c"], "sequence": 4294967294, "scriptSig": {"hex": "1600141ba0bc6277a3e8cdc007ca14d91397fdd6eae7fb", "asm": "00141ba0bc6277a3e8cdc007ca14d91397fdd6eae7fb"}, "vout": 0, "txid": "2a69652d827799b738cd0612cefd9d4af49a607fdf2caac26b6b78044bd5593d"}, {"txinwitness": ["304502210082a676d3c9b3b3eafc8a5d20514c8c8330e34602a5aca51ec1c4d460385a5c5e022007f40bdbb49d54b3d183b6bd13873d166f32babf19b1d7b8d4470a412dbc2d8301", "031c2149aa20f388cf7efdc8c8ae5e1ac5be8c14247ea09283f58a578c3e7173c8"], "sequence": 4294967294, "scriptSig": {"hex": "1600140d8b63989c81285bd2fa7e6920c789568f49efbb", "asm": "00140d8b63989c81285bd2fa7e6920c789568f49efbb"}, "vout": 12, "txid": "ca4e865229d1c8fbe053185dc28b66021c61b20a408e8e90978644bf4792a563"}, {"txinwitness": ["3045022100f84894eef3eb4f90194ddf1164d8a27ab0f37ab318d0a6c298011f50800c81a902204cc1b8008a0486126ccfc042bb0244e5a335ff1517e1a297766f406ed993989601", "03c4c7410b1cd4fb8f13db2eec89f17041572c77c51df53b21693555dd9105e206"], "sequence": 4294967294, "scriptSig": {"hex": "160014ad9435eca5c54064024cee2c013e1d9ee8feab8d", "asm": "0014ad9435eca5c54064024cee2c013e1d9ee8feab8d"}, "vout": 0, "txid": "d8342156d1b6773f60b79e2ee0352fd5cd7cad93e93233387611ede68d56c3c5"}], "txid": "96829d75b77e175ae2261db219d95a496b895f29301df8d5baa6bcf96d1d23d6", "blocktime": 1537871767, "version": 2, "confirmations": 11495, "time": 1537871767, "locktime": 542992, "vsize": 439, "size": 763}