{"hash": "96847c7d2255ce859d274dd853609e881f35c87189306dc0252332eb405e1033", "blockhash": "00000000000000000004ffacab907a6b429b9a5745fa0b75af4234bf69dd7176", "vout": [{"scriptPubKey": {"reqSigs": 1, "hex": "76a914ddf45cf0b4ea07a045a7a61cc1447280bcb8a85a88ac", "addresses": ["1MEb538ca2RZhmGE9Y1pWcjpM3E3d64Ywd"], "asm": "OP_DUP OP_HASH160 ddf45cf0b4ea07a045a7a61cc1447280bcb8a85a OP_EQUALVERIFY OP_CHECKSIG", "type": "pubkeyhash"}, "value": 0.001, "n": 0}, {"scriptPubKey": {"reqSigs": 1, "hex": "76a914e163d073e054266d0f5e025eebd6100b0c946b5b88ac", "addresses": ["1MYkcNyCtPmxivKoMy5v5VBkv6LuBrgrAy"], "asm": "OP_DUP OP_HASH160 e163d073e054266d0f5e025eebd6100b0c946b5b OP_EQUALVERIFY OP_CHECKSIG", "type": "pubkeyhash"}, "value": 0.0700491, "n": 1}], "hex": "0100000001419f127c2fd0324530750bf5f8d6af3b04c7eb77186d222d664c187b17a36ce5010000006b483045022100c287da9aeeadd4395d36e511a2ef13a931299e501b77f392c6035e4a2bbee44a0220334592a160b1bcedf5ab6b2d250d19f18adfdb0ff38ac330fdc6c8a0d2bd09410121033387315522fd785dc6a3184e4f2acbd937f90409a105c06583c94e6554220085ffffffff02a0860100000000001976a914ddf45cf0b4ea07a045a7a61cc1447280bcb8a85a88aceee26a00000000001976a914e163d073e054266d0f5e025eebd6100b0c946b5b88ac00000000", "vin": [{"sequence": 4294967295, "scriptSig": {"hex": "483045022100c287da9aeeadd4395d36e511a2ef13a931299e501b77f392c6035e4a2bbee44a0220334592a160b1bcedf5ab6b2d250d19f18adfdb0ff38ac330fdc6c8a0d2bd09410121033387315522fd785dc6a3184e4f2acbd937f90409a105c06583c94e6554220085", "asm": "3045022100c287da9aeeadd4395d36e511a2ef13a931299e501b77f392c6035e4a2bbee44a0220334592a160b1bcedf5ab6b2d250d19f18adfdb0ff38ac330fdc6c8a0d2bd0941[ALL] 033387315522fd785dc6a3184e4f2acbd937f90409a105c06583c94e6554220085"}, "vout": 1, "txid": "e56ca3177b184c662d226d1877ebc7043bafd6f8f50b75304532d02f7c129f41"}], "txid": "96847c7d2255ce859d274dd853609e881f35c87189306dc0252332eb405e1033", "blocktime": 1537875543, "version": 1, "confirmations": 11464, "time": 1537875543, "locktime": 0, "vsize": 226, "size": 226}