{"hash": "96854912eec509d68be1194f70dfe1a54f7b3c3ad82e631973047a9b2752ae5f", "blockhash": "00000000000000000017f5eb5941039fbcee6240d03bc1f2f8e35350df66a1d8", "vout": [{"scriptPubKey": {"reqSigs": 1, "hex": "76a9143b79b9bbe285ce0c0629713f23dfd4508ff2cf9088ac", "addresses": ["16RUgxRh16zkKD1xwpxEqws7hN8167Up1V"], "asm": "OP_DUP OP_HASH160 3b79b9bbe285ce0c0629713f23dfd4508ff2cf90 OP_EQUALVERIFY OP_CHECKSIG", "type": "pubkeyhash"}, "value": 0.00703388, "n": 0}, {"scriptPubKey": {"reqSigs": 1, "hex": "76a91488d4cda222335d92bf53d90281c677f7b1f5f2c988ac", "addresses": ["1DUVpvGEgo2k2rWcvVH32C2YSGRcP53Dg3"], "asm": "OP_DUP OP_HASH160 88d4cda222335d92bf53d90281c677f7b1f5f2c9 OP_EQUALVERIFY OP_CHECKSIG", "type": "pubkeyhash"}, "value": 0.01323839, "n": 1}], "hex": "0100000001315cd77872b217c2cd3713d19c64e932d25f55d85e1042215a02bd289d4f03ab010000006b483045022100813cc4ad431c9b0bb2c4a582802177849d03fc8a54e392a725c649f33c09db00022037f15b6310eb2e61c3db96f8b83095a214fc6452bd5215d3811b882b324cb2c0012103ac0dca3a21e4d4c104680156ec43b3dfee0e9ff1f010132ceaedc31ed2f2f7f4ffffffff029cbb0a00000000001976a9143b79b9bbe285ce0c0629713f23dfd4508ff2cf9088ac3f331400000000001976a91488d4cda222335d92bf53d90281c677f7b1f5f2c988ac00000000", "vin": [{"sequence": 4294967295, "scriptSig": {"hex": "483045022100813cc4ad431c9b0bb2c4a582802177849d03fc8a54e392a725c649f33c09db00022037f15b6310eb2e61c3db96f8b83095a214fc6452bd5215d3811b882b324cb2c0012103ac0dca3a21e4d4c104680156ec43b3dfee0e9ff1f010132ceaedc31ed2f2f7f4", "asm": "3045022100813cc4ad431c9b0bb2c4a582802177849d03fc8a54e392a725c649f33c09db00022037f15b6310eb2e61c3db96f8b83095a214fc6452bd5215d3811b882b324cb2c0[ALL] 03ac0dca3a21e4d4c104680156ec43b3dfee0e9ff1f010132ceaedc31ed2f2f7f4"}, "vout": 1, "txid": "ab034f9d28bd025a2142105ed8555fd232e9649cd11337cdc217b27278d75c31"}], "txid": "96854912eec509d68be1194f70dfe1a54f7b3c3ad82e631973047a9b2752ae5f", "blocktime": 1537874412, "version": 1, "confirmations": 11468, "time": 1537874412, "locktime": 0, "vsize": 226, "size": 226}