{"hash": "9686a150ec762516a6d8b8b233338b34b967ae5b439d6d9cb0b1a325365dac1e", "blockhash": "0000000000000000001f0ddff1eddb255c1121bcd4da4f1bc9a0da00cae72433", "vout": [{"scriptPubKey": {"reqSigs": 1, "hex": "a914a7aedd0d1e77300fb06aa154c9a517b74c08d24587", "addresses": ["3GyeFJmQynJWd8DeACm4cdEnZcckAtrfcN"], "asm": "OP_HASH160 a7aedd0d1e77300fb06aa154c9a517b74c08d245 OP_EQUAL", "type": "scripthash"}, "value": 0.08976323, "n": 0}, {"scriptPubKey": {"reqSigs": 1, "hex": "76a914568f24493711f3a6431a2b5a5da2648241889b6988ac", "addresses": ["18tgbAHK7skoVUbrmPvtYytuA9Mv9DkZ81"], "asm": "OP_DUP OP_HASH160 568f24493711f3a6431a2b5a5da2648241889b69 OP_EQUALVERIFY OP_CHECKSIG", "type": "pubkeyhash"}, "value": 2.73e-05, "n": 1}, {"scriptPubKey": {"type": "nulldata", "hex": "6a146f6d6e69000000000000001f000000001dcd6500", "asm": "OP_RETURN 6f6d6e69000000000000001f000000001dcd6500"}, "value": 0.0, "n": 2}], "hex": "0100000001d85afaa6874a6df8013058c9d5613ed893dd900d8ed5896a374817a580c56bb900000000fdfd0000483045022100b0fd07b8c5a7779f7adb8d0a3a0790e44fcb19f336e6f01353d2c27892b4851d022058b5dad705d62ae7ce50c9d1c53da1d87e82925baf214edc738188f1d5f7e1f30147304402204fc3f2e05cd43595be1a00b4dfeacafdd90279b3bf91dc866156b61645524c220220199549eb59a0cd10001fecbdd9670ef3d06b94822119f0d5b4e95ef8ea4a6f55014c695221035c037a36e4ec9aa1aefcef02ff742bec63c098c0a7f1c9a1b822b6294afbb7102102a1ccf15bc58870240578a2922b3f0e922260f37098adbd988e15be36943816912102af3be4803e51fef309a51f0332f399026e99dae117dc2d22a71f4eacc1f3f4f153aeffffffff03c3f788000000000017a914a7aedd0d1e77300fb06aa154c9a517b74c08d24587aa0a0000000000001976a914568f24493711f3a6431a2b5a5da2648241889b6988ac0000000000000000166a146f6d6e69000000000000001f000000001dcd650000000000", "vin": [{"sequence": 4294967295, "scriptSig": {"hex": "00483045022100b0fd07b8c5a7779f7adb8d0a3a0790e44fcb19f336e6f01353d2c27892b4851d022058b5dad705d62ae7ce50c9d1c53da1d87e82925baf214edc738188f1d5f7e1f30147304402204fc3f2e05cd43595be1a00b4dfeacafdd90279b3bf91dc866156b61645524c220220199549eb59a0cd10001fecbdd9670ef3d06b94822119f0d5b4e95ef8ea4a6f55014c695221035c037a36e4ec9aa1aefcef02ff742bec63c098c0a7f1c9a1b822b6294afbb7102102a1ccf15bc58870240578a2922b3f0e922260f37098adbd988e15be36943816912102af3be4803e51fef309a51f0332f399026e99dae117dc2d22a71f4eacc1f3f4f153ae", "asm": "0 3045022100b0fd07b8c5a7779f7adb8d0a3a0790e44fcb19f336e6f01353d2c27892b4851d022058b5dad705d62ae7ce50c9d1c53da1d87e82925baf214edc738188f1d5f7e1f3[ALL] 304402204fc3f2e05cd43595be1a00b4dfeacafdd90279b3bf91dc866156b61645524c220220199549eb59a0cd10001fecbdd9670ef3d06b94822119f0d5b4e95ef8ea4a6f55[ALL] 5221035c037a36e4ec9aa1aefcef02ff742bec63c098c0a7f1c9a1b822b6294afbb7102102a1ccf15bc58870240578a2922b3f0e922260f37098adbd988e15be36943816912102af3be4803e51fef309a51f0332f399026e99dae117dc2d22a71f4eacc1f3f4f153ae"}, "vout": 0, "txid": "b96bc580a51748376a89d58e0d90dd93d83e61d5c9583001f86d4a87a6fa5ad8"}], "txid": "9686a150ec762516a6d8b8b233338b34b967ae5b439d6d9cb0b1a325365dac1e", "blocktime": 1537872018, "version": 1, "confirmations": 11489, "time": 1537872018, "locktime": 0, "vsize": 403, "size": 403}