{"hash": "968b392b8e7d088b70885abda6998cc784f8466d5de515016f7be3905f34c573", "blockhash": "0000000000000000000e13cef7c366c0283d82e591d1acd082e914b08063cdf1", "vout": [{"scriptPubKey": {"reqSigs": 1, "hex": "76a914c7f0402782c2a3740c0ff5c094dcb41674cd940f88ac", "addresses": ["1KEBH5a3Z3bnfpjeV1UaLmA7UnkmrAUwVL"], "asm": "OP_DUP OP_HASH160 c7f0402782c2a3740c0ff5c094dcb41674cd940f OP_EQUALVERIFY OP_CHECKSIG", "type": "pubkeyhash"}, "value": 0.01783, "n": 0}, {"scriptPubKey": {"reqSigs": 1, "hex": "a914e370231feecbfc25e2e2423a5a79bf79bfdca59887", "addresses": ["3NRbeX3vD5VaVE4TDU9ivCDsEf7NPPte6J"], "asm": "OP_HASH160 e370231feecbfc25e2e2423a5a79bf79bfdca598 OP_EQUAL", "type": "scripthash"}, "value": 11.6271969, "n": 1}], "hex": "01000000015740ce76da9b82a0f6a50457188d86ab2f0b91f30be8f242b4f6e9a773fdd6dd01000000db004830450221008f1a71e6cb3ec455efefd49bf742209da7a44ef660013625b87fe67a5e2bb8200220618a1aa96e71dd9abd395c72a99e0b6b7ae131f000725ecbfd2a467f235d58ba01483045022100ac0993d8c2dad8868d76a23478c915ba0f9775b585bd416a203442e6c2d72bb30220141b681acf0776f7c0aaace5c9ec483aaf94ad2120a6e6fe4f7d4cc2fb932234014752210327881b6abce6535553a3ce21fad12a7d74fd237ce7c4cd270a267162344e3082210256141f8eb687f5a68c5cc65054652dc25116fa285e44d72b44368827ffe77d9a52aeffffffff02d8341b00000000001976a914c7f0402782c2a3740c0ff5c094dcb41674cd940f88accab14d450000000017a914e370231feecbfc25e2e2423a5a79bf79bfdca5988700000000", "vin": [{"sequence": 4294967295, "scriptSig": {"hex": "004830450221008f1a71e6cb3ec455efefd49bf742209da7a44ef660013625b87fe67a5e2bb8200220618a1aa96e71dd9abd395c72a99e0b6b7ae131f000725ecbfd2a467f235d58ba01483045022100ac0993d8c2dad8868d76a23478c915ba0f9775b585bd416a203442e6c2d72bb30220141b681acf0776f7c0aaace5c9ec483aaf94ad2120a6e6fe4f7d4cc2fb932234014752210327881b6abce6535553a3ce21fad12a7d74fd237ce7c4cd270a267162344e3082210256141f8eb687f5a68c5cc65054652dc25116fa285e44d72b44368827ffe77d9a52ae", "asm": "0 30450221008f1a71e6cb3ec455efefd49bf742209da7a44ef660013625b87fe67a5e2bb8200220618a1aa96e71dd9abd395c72a99e0b6b7ae131f000725ecbfd2a467f235d58ba[ALL] 3045022100ac0993d8c2dad8868d76a23478c915ba0f9775b585bd416a203442e6c2d72bb30220141b681acf0776f7c0aaace5c9ec483aaf94ad2120a6e6fe4f7d4cc2fb932234[ALL] 52210327881b6abce6535553a3ce21fad12a7d74fd237ce7c4cd270a267162344e3082210256141f8eb687f5a68c5cc65054652dc25116fa285e44d72b44368827ffe77d9a52ae"}, "vout": 1, "txid": "ddd6fd73a7e9f6b442f2e80bf3910b2fab868d185704a5f6a0829bda76ce4057"}], "txid": "968b392b8e7d088b70885abda6998cc784f8466d5de515016f7be3905f34c573", "blocktime": 1537871767, "version": 1, "confirmations": 11495, "time": 1537871767, "locktime": 0, "vsize": 336, "size": 336}