{"hash": "1e44747c20c20978ad3e1cb530d8dcf57d04bb1926730c77237d072fd5e93e7d", "blockhash": "0000000000000000001f0ddff1eddb255c1121bcd4da4f1bc9a0da00cae72433", "vout": [{"scriptPubKey": {"reqSigs": 1, "hex": "76a9145da22ece044fa9d7339b730405a19203d271a1f688ac", "addresses": ["19Y68W3yaK787cPQijWfhwZza8F5zFn5Bf"], "asm": "OP_DUP OP_HASH160 5da22ece044fa9d7339b730405a19203d271a1f6 OP_EQUALVERIFY OP_CHECKSIG", "type": "pubkeyhash"}, "value": 0.088, "n": 0}], "hex": "01000000000106b7f9d80855ce54d1b4309c0d25a9c82168723ef3c6dbaa7cb3eab32214619b0b0100000017160014115c5e8005c6e9ca0a0367142cf57f21680a8b1efdffffff863f5e1edbd068c3c6ed4786f1b112ebc4c26651b1cefd0d9add51fe4b5391400000000017160014f324aa640429fb8abbd6af165e17a7cc32b2b85efdffffff25e50a94e49eb6ea4ca9862bc9c8242e055e92559a9655db854baf3cb9a1c64a0200000017160014acf9ca91bc6cca3f95ce5c14462038db6edb4a32fdffffffd9a03fddb8fc906b9cc6d72ec01bd5e70535b931b5944fc440aa7a6b1ba19170010000001716001498efe415d312188daecc23bb661671051b954caefdffffffebb6fbfc3f8ed09f62412c1a9919d9ad0bfb1c8ad58cbdd945002edc81919a7200000000171600143053b5df85ec4329e9783bc60d68e7715fe9c4c0fdffffff150f04f93924d48913cd464e57f39d6908e15102b94b971fb6078fdc60a3637700000000171600143245149a738f54c659debeb1fa55853ce8b9bebdfdffffff0100478600000000001976a9145da22ece044fa9d7339b730405a19203d271a1f688ac02483045022100fde9ff59f51616c5e0410b38a4932e4def3887ac24d34afafa902cb8acbd3a160220444659e1cd16cdc191b0aff6d3373e059576de0bc7c405e67b4adc216522c2a301210345638751af650526b3c08a9f9f3260c308e62d75bd3119a8360cefbd4a78cb320247304402207f7eaa5286a4bd37965bf2b72c8f01f492e342c262c60d60c485d2aab27b59aa02205e5509f2513d53b1dd78e593ec504d4564c1ca073ba45d24f02a0580273e24d6012102ede7bce6da39e1c715719bbbaf60864f9a71c32de8d154d6c390955cdebe7a2702483045022100d7d68285760dc895aa7b1697b9f7eea3d21c24b462347e44ff405d0573669541022055b73057adfcd9453112f89814582a72c9ec6fa37b52aac6f93dfcac6e8b636c01210331583ed7465e4bda19bfde93a2c4d8a01d31d2c64d5f5e9a1a12e36a81a4feab02473044022045226c6fec6b20f6e35f34659f8349f74cbf7cb5785faf7912b3a177a52b1c2602206c995fea99a7fc5f5a2c6fc131b2dc88d4dd9439f6f97c35e338cf1cab0805f901210379fcb9e6b14db4a5b0c0ee967638c07714130db88ce9e218353be30320cd026602473044022078c97b120b1e9200a1bcb9b0ae47600fe4cb81cecb6c1e08ece919d62073ba6702205d8be3fab976d04a91fc291100c43df69f38c968406e907a711fd726180ab8f90121036499ae24204df28a22b185ff01c1e1299e9d848bafe2be19a878a4231d9a18a6024730440220400b6bba8c0e9023d5b1152fe021d14b7e168190ea88eaeae87c392025f03c6b02200f3ff6d40446181dc0458adefd9d1275b6bb14b501720b0bfaedea05823b086601210366904463d084db083fd8b39a3e40408488f6c9b4a424568474940b87dadc3f5c11490800", "vin": [{"txinwitness": ["3045022100fde9ff59f51616c5e0410b38a4932e4def3887ac24d34afafa902cb8acbd3a160220444659e1cd16cdc191b0aff6d3373e059576de0bc7c405e67b4adc216522c2a301", "0345638751af650526b3c08a9f9f3260c308e62d75bd3119a8360cefbd4a78cb32"], "sequence": 4294967293, "scriptSig": {"hex": "160014115c5e8005c6e9ca0a0367142cf57f21680a8b1e", "asm": "0014115c5e8005c6e9ca0a0367142cf57f21680a8b1e"}, "vout": 1, "txid": "0b9b611422b3eab37caadbc6f33e726821c8a9250d9c30b4d154ce5508d8f9b7"}, {"txinwitness": ["304402207f7eaa5286a4bd37965bf2b72c8f01f492e342c262c60d60c485d2aab27b59aa02205e5509f2513d53b1dd78e593ec504d4564c1ca073ba45d24f02a0580273e24d601", "02ede7bce6da39e1c715719bbbaf60864f9a71c32de8d154d6c390955cdebe7a27"], "sequence": 4294967293, "scriptSig": {"hex": "160014f324aa640429fb8abbd6af165e17a7cc32b2b85e", "asm": "0014f324aa640429fb8abbd6af165e17a7cc32b2b85e"}, "vout": 0, "txid": "4091534bfe51dd9a0dfdceb15166c2c4eb12b1f18647edc6c368d0db1e5e3f86"}, {"txinwitness": ["3045022100d7d68285760dc895aa7b1697b9f7eea3d21c24b462347e44ff405d0573669541022055b73057adfcd9453112f89814582a72c9ec6fa37b52aac6f93dfcac6e8b636c01", "0331583ed7465e4bda19bfde93a2c4d8a01d31d2c64d5f5e9a1a12e36a81a4feab"], "sequence": 4294967293, "scriptSig": {"hex": "160014acf9ca91bc6cca3f95ce5c14462038db6edb4a32", "asm": "0014acf9ca91bc6cca3f95ce5c14462038db6edb4a32"}, "vout": 2, "txid": "4ac6a1b93caf4b85db55969a55925e052e24c8c92b86a94ceab69ee4940ae525"}, {"txinwitness": ["3044022045226c6fec6b20f6e35f34659f8349f74cbf7cb5785faf7912b3a177a52b1c2602206c995fea99a7fc5f5a2c6fc131b2dc88d4dd9439f6f97c35e338cf1cab0805f901", "0379fcb9e6b14db4a5b0c0ee967638c07714130db88ce9e218353be30320cd0266"], "sequence": 4294967293, "scriptSig": {"hex": "16001498efe415d312188daecc23bb661671051b954cae", "asm": "001498efe415d312188daecc23bb661671051b954cae"}, "vout": 1, "txid": "7091a11b6b7aaa40c44f94b531b93505e7d51bc02ed7c69c6b90fcb8dd3fa0d9"}, {"txinwitness": ["3044022078c97b120b1e9200a1bcb9b0ae47600fe4cb81cecb6c1e08ece919d62073ba6702205d8be3fab976d04a91fc291100c43df69f38c968406e907a711fd726180ab8f901", "036499ae24204df28a22b185ff01c1e1299e9d848bafe2be19a878a4231d9a18a6"], "sequence": 4294967293, "scriptSig": {"hex": "1600143053b5df85ec4329e9783bc60d68e7715fe9c4c0", "asm": "00143053b5df85ec4329e9783bc60d68e7715fe9c4c0"}, "vout": 0, "txid": "729a9181dc2e0045d9bd8cd58a1cfb0badd919991a2c41629fd08e3ffcfbb6eb"}, {"txinwitness": ["30440220400b6bba8c0e9023d5b1152fe021d14b7e168190ea88eaeae87c392025f03c6b02200f3ff6d40446181dc0458adefd9d1275b6bb14b501720b0bfaedea05823b086601", "0366904463d084db083fd8b39a3e40408488f6c9b4a424568474940b87dadc3f5c"], "sequence": 4294967293, "scriptSig": {"hex": "1600143245149a738f54c659debeb1fa55853ce8b9bebd", "asm": "00143245149a738f54c659debeb1fa55853ce8b9bebd"}, "vout": 0, "txid": "7763a360dc8f07b61f974bb90251e108699df3574e46cd1389d42439f9040f15"}], "txid": "968ee5bb7d0e65b7ff7a822ca23dbae13c80a7b93036069be11ace30e0403db8", "blocktime": 1537872018, "version": 1, "confirmations": 11489, "time": 1537872018, "locktime": 542993, "vsize": 590, "size": 1074}