{"hash": "969a1423c31808095921e6191b52498fbe4c367db0204a545dacf70e779d5aca", "blockhash": "0000000000000000000e13cef7c366c0283d82e591d1acd082e914b08063cdf1", "vout": [{"scriptPubKey": {"reqSigs": 1, "hex": "a9142df39175b3e4def35ccc2a85e7f10f2e038c048b87", "addresses": ["35sz7bG4ta8yQB6LG75SAubuZjwu2mAJsJ"], "asm": "OP_HASH160 2df39175b3e4def35ccc2a85e7f10f2e038c048b OP_EQUAL", "type": "scripthash"}, "value": 0.00285282, "n": 0}, {"scriptPubKey": {"reqSigs": 1, "hex": "76a914b68488094deb613e73ba5a5090a0c56951d7a27088ac", "addresses": ["1He4kMdXWuCXdy6y9oEtqVZtwcZhyBbSB5"], "asm": "OP_DUP OP_HASH160 b68488094deb613e73ba5a5090a0c56951d7a270 OP_EQUALVERIFY OP_CHECKSIG", "type": "pubkeyhash"}, "value": 0.01038214, "n": 1}], "hex": "01000000019b8d1b19fb4ddb0f25c9f597a1113837f530b376618570ed4bbdfa0cccb2650e010000006a47304402206f099fd1bda30d4c1f2cec00b7ab935577285463f0a41cdc512f8c2bd8c363b202202d4e54d724e085537334388fae0186e9121a4151a50d62a39b7c6958f7e170c901210307047c436977e78184303e3a34f42b0d954bea023333e626b2186ff80e6331f2ffffffff02625a04000000000017a9142df39175b3e4def35ccc2a85e7f10f2e038c048b8786d70f00000000001976a914b68488094deb613e73ba5a5090a0c56951d7a27088ac00000000", "vin": [{"sequence": 4294967295, "scriptSig": {"hex": "47304402206f099fd1bda30d4c1f2cec00b7ab935577285463f0a41cdc512f8c2bd8c363b202202d4e54d724e085537334388fae0186e9121a4151a50d62a39b7c6958f7e170c901210307047c436977e78184303e3a34f42b0d954bea023333e626b2186ff80e6331f2", "asm": "304402206f099fd1bda30d4c1f2cec00b7ab935577285463f0a41cdc512f8c2bd8c363b202202d4e54d724e085537334388fae0186e9121a4151a50d62a39b7c6958f7e170c9[ALL] 0307047c436977e78184303e3a34f42b0d954bea023333e626b2186ff80e6331f2"}, "vout": 1, "txid": "0e65b2cc0cfabd4bed70856176b330f5373811a197f5c9250fdb4dfb191b8d9b"}], "txid": "969a1423c31808095921e6191b52498fbe4c367db0204a545dacf70e779d5aca", "blocktime": 1537871767, "version": 1, "confirmations": 11492, "time": 1537871767, "locktime": 0, "vsize": 223, "size": 223}