{"hash": "969fc982b5db6d8cbeb285ddad5566036c3696736c961d97cc834df64f5781f4", "blockhash": "0000000000000000000dcc0f55137456b1a82d3642486a52398922ac4d620174", "vout": [{"scriptPubKey": {"reqSigs": 1, "hex": "76a9140b3b03ac1103ba5b2bd83692666342f146b351e888ac", "addresses": ["122P8VvVTip7m18n7rowx1p4EdeKEcwVqu"], "asm": "OP_DUP OP_HASH160 0b3b03ac1103ba5b2bd83692666342f146b351e8 OP_EQUALVERIFY OP_CHECKSIG", "type": "pubkeyhash"}, "value": 0.0201, "n": 0}, {"scriptPubKey": {"reqSigs": 1, "hex": "76a91413873831cffaf2bf085e996e7870eda4c1f388b288ac", "addresses": ["12nFprwZfr97u9qNkEhC4GtDzteLJvVPyg"], "asm": "OP_DUP OP_HASH160 13873831cffaf2bf085e996e7870eda4c1f388b2 OP_EQUALVERIFY OP_CHECKSIG", "type": "pubkeyhash"}, "value": 0.0001936, "n": 1}], "hex": "02000000024e44e8bbc7efcd966e451dd646e27535a3b72516058797d16f880b59973ec244000000006b483045022100867a4d0f96b6fc64a34f30bd4aa37fcc879220b64bfc2df23f5a6c807423467b02207db301abb15a5ea1917d4ed017affdd91049ce18fd3eed0527531618a2a3668a012102165361c0b83ae58015c4208bbef9894e1b8d09769b52bd83459b474cb1dedf5dffffffff2e1f65ceae369b463c19082573d4b4562d39986673926d118c3bc260ca795dfd000000006a4730440220646aac7fe7bd62116c3f3fd328132a11eb4a11ad6232dd814e90c3a7ae8edc8202207115a558d36e13f20d587b5e7efc7e841be75fd57d3c87cf6a80c81b368787c6012102165361c0b83ae58015c4208bbef9894e1b8d09769b52bd83459b474cb1dedf5dffffffff0290ab1e00000000001976a9140b3b03ac1103ba5b2bd83692666342f146b351e888aca04b0000000000001976a91413873831cffaf2bf085e996e7870eda4c1f388b288ac00000000", "vin": [{"sequence": 4294967295, "scriptSig": {"hex": "483045022100867a4d0f96b6fc64a34f30bd4aa37fcc879220b64bfc2df23f5a6c807423467b02207db301abb15a5ea1917d4ed017affdd91049ce18fd3eed0527531618a2a3668a012102165361c0b83ae58015c4208bbef9894e1b8d09769b52bd83459b474cb1dedf5d", "asm": "3045022100867a4d0f96b6fc64a34f30bd4aa37fcc879220b64bfc2df23f5a6c807423467b02207db301abb15a5ea1917d4ed017affdd91049ce18fd3eed0527531618a2a3668a[ALL] 02165361c0b83ae58015c4208bbef9894e1b8d09769b52bd83459b474cb1dedf5d"}, "vout": 0, "txid": "44c23e97590b886fd19787051625b7a33575e246d61d456e96cdefc7bbe8444e"}, {"sequence": 4294967295, "scriptSig": {"hex": "4730440220646aac7fe7bd62116c3f3fd328132a11eb4a11ad6232dd814e90c3a7ae8edc8202207115a558d36e13f20d587b5e7efc7e841be75fd57d3c87cf6a80c81b368787c6012102165361c0b83ae58015c4208bbef9894e1b8d09769b52bd83459b474cb1dedf5d", "asm": "30440220646aac7fe7bd62116c3f3fd328132a11eb4a11ad6232dd814e90c3a7ae8edc8202207115a558d36e13f20d587b5e7efc7e841be75fd57d3c87cf6a80c81b368787c6[ALL] 02165361c0b83ae58015c4208bbef9894e1b8d09769b52bd83459b474cb1dedf5d"}, "vout": 0, "txid": "fd5d79ca60c23b8c116d92736698392d56b4d4732508193c469b36aece651f2e"}], "txid": "969fc982b5db6d8cbeb285ddad5566036c3696736c961d97cc834df64f5781f4", "blocktime": 1537870268, "version": 2, "confirmations": 11518, "time": 1537870268, "locktime": 0, "vsize": 373, "size": 373}