{"hash": "9a7da58dd325e2b6a9c08f4c09eec330d34c965a194b6ad1773b323ed1b35287", "blockhash": "00000000000000000017f5eb5941039fbcee6240d03bc1f2f8e35350df66a1d8", "vout": [{"scriptPubKey": {"reqSigs": 1, "hex": "a91417d576f8fb4ec69c1e496402e1e4e409adea740787", "addresses": ["33s3BkD3MpJUHDx3SkCNSz1QGfMYdr26Rc"], "asm": "OP_HASH160 17d576f8fb4ec69c1e496402e1e4e409adea7407 OP_EQUAL", "type": "scripthash"}, "value": 0.00170782, "n": 0}, {"scriptPubKey": {"reqSigs": 1, "hex": "a914dd308cac54f20a426e1962e267c9e8d44bb8200287", "addresses": ["3MrZRDYDPj8gHyGsqYQbrjR4mhmoLt5KLb"], "asm": "OP_HASH160 dd308cac54f20a426e1962e267c9e8d44bb82002 OP_EQUAL", "type": "scripthash"}, "value": 0.01003476, "n": 1}], "hex": "020000000001015b8828073fa4418caf291c46a2b95c9cd94852ac2f954b251e96089a4e0904900100000017160014d69ed893bfdf3089c5c9c5542069fe6305d23ce1feffffff021e9b02000000000017a91417d576f8fb4ec69c1e496402e1e4e409adea740787d44f0f000000000017a914dd308cac54f20a426e1962e267c9e8d44bb820028702473044022012841dd068ba10cf6e932af289b4835a71c1a2b8b1e8bfa445468372565d3110022033c06ec311e258b4e3c2d9da0aa78ef63bc46ca8aec200afe57ffd003c8200a5012103fb1c1a68922c071ec6b30077771618ef86b9093ef1eb1b6d36acf8ddb9df493015490800", "vin": [{"txinwitness": ["3044022012841dd068ba10cf6e932af289b4835a71c1a2b8b1e8bfa445468372565d3110022033c06ec311e258b4e3c2d9da0aa78ef63bc46ca8aec200afe57ffd003c8200a501", "03fb1c1a68922c071ec6b30077771618ef86b9093ef1eb1b6d36acf8ddb9df4930"], "sequence": 4294967294, "scriptSig": {"hex": "160014d69ed893bfdf3089c5c9c5542069fe6305d23ce1", "asm": "0014d69ed893bfdf3089c5c9c5542069fe6305d23ce1"}, "vout": 1, "txid": "9004094e9a08961e254b952fac5248d99c5cb9a2461c29af8c41a43f0728885b"}], "txid": "96a3d67cd4b1847f041387850531c499c25f8c57094080a556e36c1935010112", "blocktime": 1537874412, "version": 2, "confirmations": 11468, "time": 1537874412, "locktime": 542997, "vsize": 166, "size": 247}