{"hash": "20e1b55d28113615fcec4ce5c862e1d819243d8ef00d694754e6bf57acaed949", "blockhash": "0000000000000000001f76057863aec43deb6fa401d9628bb513d65a8098bfab", "vout": [{"scriptPubKey": {"reqSigs": 1, "hex": "a914255ba47acc82b8e79eb860c096c6703af321f8a287", "addresses": ["356Yi5Evi7s96XQqaBvTvjGhE7zP7XGf3S"], "asm": "OP_HASH160 255ba47acc82b8e79eb860c096c6703af321f8a2 OP_EQUAL", "type": "scripthash"}, "value": 0.00207156, "n": 0}, {"scriptPubKey": {"reqSigs": 1, "hex": "a914c8f39850012c7d9aeca497e6a2ceb89dd0ac853d87", "addresses": ["3L1YtBh2Ai6X34qRakE36Fdhw4YqR6v5C1"], "asm": "OP_HASH160 c8f39850012c7d9aeca497e6a2ceb89dd0ac853d OP_EQUAL", "type": "scripthash"}, "value": 1.70346363, "n": 1}], "hex": "01000000000101e0cef1a9b3bc191ba88eefcd138dda3f9d4ae7ef3252198d58bfe2618dc600c00100000023220020ea323d766f9031245abdde26498935f4d4677e48f2d73b68280d3ff8647ba9e8ffffffff02342903000000000017a914255ba47acc82b8e79eb860c096c6703af321f8a2877b47270a0000000017a914c8f39850012c7d9aeca497e6a2ceb89dd0ac853d87040047304402207c78b05b93012d4dcd700a44b677d301bc50856912106c1cb01c1de8969d46e602206b177f9617620541c50b3116e75356de715be7913049e093fc215f3d0cab589701483045022100b658383e61a99f9821eb4aa219279929b40cce3681dac493fcab5cc441f8817702200425a9e958525fa234ebfb5e9739b93b2ee1b8af9bf57c2f69d9e1c8c0a5b34201695221028009b9dd1bba390a3b9d911db8d2c37b450b4ff8c35a53e6c5d908a0cb664bb721032059c4b868b1bad878202cad8a46a850fbfb80c0187f030578ae4ad36a7bdeeb21039495b149e955f5824d1adc5788520a6ba5bfebc6ffe9743dcf3efcbf204d78b453ae00000000", "vin": [{"txinwitness": ["", "304402207c78b05b93012d4dcd700a44b677d301bc50856912106c1cb01c1de8969d46e602206b177f9617620541c50b3116e75356de715be7913049e093fc215f3d0cab589701", "3045022100b658383e61a99f9821eb4aa219279929b40cce3681dac493fcab5cc441f8817702200425a9e958525fa234ebfb5e9739b93b2ee1b8af9bf57c2f69d9e1c8c0a5b34201", "5221028009b9dd1bba390a3b9d911db8d2c37b450b4ff8c35a53e6c5d908a0cb664bb721032059c4b868b1bad878202cad8a46a850fbfb80c0187f030578ae4ad36a7bdeeb21039495b149e955f5824d1adc5788520a6ba5bfebc6ffe9743dcf3efcbf204d78b453ae"], "sequence": 4294967295, "scriptSig": {"hex": "220020ea323d766f9031245abdde26498935f4d4677e48f2d73b68280d3ff8647ba9e8", "asm": "0020ea323d766f9031245abdde26498935f4d4677e48f2d73b68280d3ff8647ba9e8"}, "vout": 1, "txid": "c000c68d61e2bf588d195232efe74a9d3fda8d13cdef8ea81b19bcb3a9f1cee0"}], "txid": "96a5fcab32e43d2e0ca6df1d194169f37665f8422563bfafbe04878e955b94ba", "blocktime": 1537873891, "version": 1, "confirmations": 11478, "time": 1537873891, "locktime": 0, "vsize": 214, "size": 405}