{"hash": "96a6ac4c220d433cc6685ea7a892e72b910ce93699dfe237f5d6c5aafdd49367", "blockhash": "00000000000000000024a2167bbff67b0be802c0b01cdd79e6331c2be6459f87", "vout": [{"scriptPubKey": {"reqSigs": 1, "hex": "a9143eb0dfa35df493794037cb94345ea0c7ea9fb19887", "addresses": ["37QVhq4d6AUnaTjvG1KSfuP6ppXPVwcJMg"], "asm": "OP_HASH160 3eb0dfa35df493794037cb94345ea0c7ea9fb198 OP_EQUAL", "type": "scripthash"}, "value": 0.29603888, "n": 0}], "hex": "0100000001f5e39ae23dad68be402fc771653f7b046b1c8cee33c31627ce5c27302508db19000000006a473044022038c62f9a71d611c602046aaee7292aafb85d489c0454ded74d83aad174147ee10220519d232f44fa6559eea0cf6f3e7bf46d81f0c586ac8732114554ec5d375d3a950121037f4063b18cc260c796c53dc155651928b93f00f16e0d7145e40be932926f9d4affffffff0130b8c3010000000017a9143eb0dfa35df493794037cb94345ea0c7ea9fb1988700000000", "vin": [{"sequence": 4294967295, "scriptSig": {"hex": "473044022038c62f9a71d611c602046aaee7292aafb85d489c0454ded74d83aad174147ee10220519d232f44fa6559eea0cf6f3e7bf46d81f0c586ac8732114554ec5d375d3a950121037f4063b18cc260c796c53dc155651928b93f00f16e0d7145e40be932926f9d4a", "asm": "3044022038c62f9a71d611c602046aaee7292aafb85d489c0454ded74d83aad174147ee10220519d232f44fa6559eea0cf6f3e7bf46d81f0c586ac8732114554ec5d375d3a95[ALL] 037f4063b18cc260c796c53dc155651928b93f00f16e0d7145e40be932926f9d4a"}, "vout": 0, "txid": "19db082530275cce2716c333ee8c1c6b047b3f6571c72f40be68ad3de29ae3f5"}], "txid": "96a6ac4c220d433cc6685ea7a892e72b910ce93699dfe237f5d6c5aafdd49367", "blocktime": 1537870564, "version": 1, "confirmations": 11515, "time": 1537870564, "locktime": 0, "vsize": 189, "size": 189}