{"hash": "96a8403881403de4fdd784f89eb7dc32bd8ff45740d2079d6e9a5c3470e98e58", "blockhash": "00000000000000000017f5eb5941039fbcee6240d03bc1f2f8e35350df66a1d8", "vout": [{"scriptPubKey": {"reqSigs": 1, "hex": "76a91473af989fdb535e3e763e477f891695c4af4ae04988ac", "addresses": ["1BYh4hTnQxXYDFUiPaTUNn4XCWCtYuejHe"], "asm": "OP_DUP OP_HASH160 73af989fdb535e3e763e477f891695c4af4ae049 OP_EQUALVERIFY OP_CHECKSIG", "type": "pubkeyhash"}, "value": 0.16145052, "n": 0}], "hex": "0100000001b9209635a62b37b5655b54442bdab90d3eceeaf22f65b78424dfc47060b51738010000006b483045022100d3716f8ee895feae90d6b1d5dc3b68c9539945827ef7be23233b8c63e4a078fa02203d79dd357642815726cbcd7ca5c9312e7e436dbd8116bd9a57a95169fe8b86f8012102dfdaf579a5d5d6d38114d6067dd2c212fcc5aebf1c4cc2a59bdbf83dc2f2f4baffffffff019c5af600000000001976a91473af989fdb535e3e763e477f891695c4af4ae04988ac00000000", "vin": [{"sequence": 4294967295, "scriptSig": {"hex": "483045022100d3716f8ee895feae90d6b1d5dc3b68c9539945827ef7be23233b8c63e4a078fa02203d79dd357642815726cbcd7ca5c9312e7e436dbd8116bd9a57a95169fe8b86f8012102dfdaf579a5d5d6d38114d6067dd2c212fcc5aebf1c4cc2a59bdbf83dc2f2f4ba", "asm": "3045022100d3716f8ee895feae90d6b1d5dc3b68c9539945827ef7be23233b8c63e4a078fa02203d79dd357642815726cbcd7ca5c9312e7e436dbd8116bd9a57a95169fe8b86f8[ALL] 02dfdaf579a5d5d6d38114d6067dd2c212fcc5aebf1c4cc2a59bdbf83dc2f2f4ba"}, "vout": 1, "txid": "3817b56070c4df2484b7652ff2eace3e0db9da2b44545b65b5372ba6359620b9"}], "txid": "96a8403881403de4fdd784f89eb7dc32bd8ff45740d2079d6e9a5c3470e98e58", "blocktime": 1537874412, "version": 1, "confirmations": 11467, "time": 1537874412, "locktime": 0, "vsize": 192, "size": 192}