{"hash": "96aa5b0e2424d87d8b1637789cd63cab7345d2cc1656c1b6bfd07a416d900615", "blockhash": "0000000000000000001f76057863aec43deb6fa401d9628bb513d65a8098bfab", "vout": [{"scriptPubKey": {"reqSigs": 1, "hex": "0014f1027987c6d23d45b88b97f0c9a3e84acf04954b", "addresses": ["bc1q7yp8np7x6g75twytjlcvnglgft8sf92t0lswq3"], "asm": "0 f1027987c6d23d45b88b97f0c9a3e84acf04954b", "type": "witness_v0_keyhash"}, "value": 1.15e-05, "n": 0}, {"scriptPubKey": {"reqSigs": 1, "hex": "76a914bdc35eff7a97959175dd3c121da8095cdab295f888ac", "addresses": ["1JJNkss8JjanVmnrsihDBwCVLpCqwrbD8x"], "asm": "OP_DUP OP_HASH160 bdc35eff7a97959175dd3c121da8095cdab295f8 OP_EQUALVERIFY OP_CHECKSIG", "type": "pubkeyhash"}, "value": 0.00239065, "n": 1}], "hex": "0100000001b2018b59eb20d72e23585f7e8ba204ccedfca89be3ebd619bda2bb5a4fd1553c300000006b4830450221008bc12d614727beee522bd9d79fe0a1b4e468b3b210ec644789f350183bc58d42022021b4ae7c1f1805808d44f0da865a1a0a73b4822b79d705e8702bc62e57a95cc701210344bc9a174f1e5022961fb8a0feffa73d2bece84a652389fca67dfa7aea0d05d2ffffffff027e04000000000000160014f1027987c6d23d45b88b97f0c9a3e84acf04954bd9a50300000000001976a914bdc35eff7a97959175dd3c121da8095cdab295f888ac00000000", "vin": [{"sequence": 4294967295, "scriptSig": {"hex": "4830450221008bc12d614727beee522bd9d79fe0a1b4e468b3b210ec644789f350183bc58d42022021b4ae7c1f1805808d44f0da865a1a0a73b4822b79d705e8702bc62e57a95cc701210344bc9a174f1e5022961fb8a0feffa73d2bece84a652389fca67dfa7aea0d05d2", "asm": "30450221008bc12d614727beee522bd9d79fe0a1b4e468b3b210ec644789f350183bc58d42022021b4ae7c1f1805808d44f0da865a1a0a73b4822b79d705e8702bc62e57a95cc7[ALL] 0344bc9a174f1e5022961fb8a0feffa73d2bece84a652389fca67dfa7aea0d05d2"}, "vout": 48, "txid": "3c55d14f5abba2bd19d6ebe39ba8fcedcc04a28b7e5f58232ed720eb598b01b2"}], "txid": "96aa5b0e2424d87d8b1637789cd63cab7345d2cc1656c1b6bfd07a416d900615", "blocktime": 1537873891, "version": 1, "confirmations": 11478, "time": 1537873891, "locktime": 0, "vsize": 223, "size": 223}