{"hash": "96ab4a6510e429fc86d5a851864a91a1dfa8658f2658ea8ef9ea258a18697bec", "blockhash": "0000000000000000001f0ddff1eddb255c1121bcd4da4f1bc9a0da00cae72433", "vout": [{"scriptPubKey": {"reqSigs": 1, "hex": "76a914521939663afa030be852503ebfa55f18f982f52f88ac", "addresses": ["18V6dLgbwd6z1NdwqGfmfBhE26gKnz2aWA"], "asm": "OP_DUP OP_HASH160 521939663afa030be852503ebfa55f18f982f52f OP_EQUALVERIFY OP_CHECKSIG", "type": "pubkeyhash"}, "value": 0.00282269, "n": 0}, {"scriptPubKey": {"reqSigs": 1, "hex": "76a914697ee136ab09e4351777f8a80c8b8fb6b136474088ac", "addresses": ["1AcowuGLBk213tWNEqAMemf7WLrfmXYASs"], "asm": "OP_DUP OP_HASH160 697ee136ab09e4351777f8a80c8b8fb6b1364740 OP_EQUALVERIFY OP_CHECKSIG", "type": "pubkeyhash"}, "value": 0.002, "n": 1}], "hex": "0100000001f8d5d492407b61250d9989d9025558a9f7be12f7146a055d7010d8a281a40207010000006b483045022100e5b0c312e6db941b70634b85b42836019ad00420d17536c9d8f31d3093c26b4f02202434f3bbc0eba7116593efd660e179fa5508d9ebc0f05e3b572274881535781f012102c234bf6319461e2b854cd54f5ed835003cf1ddc488b5b957c2f856fb2c7593e1ffffffff029d4e0400000000001976a914521939663afa030be852503ebfa55f18f982f52f88ac400d0300000000001976a914697ee136ab09e4351777f8a80c8b8fb6b136474088ac00000000", "vin": [{"sequence": 4294967295, "scriptSig": {"hex": "483045022100e5b0c312e6db941b70634b85b42836019ad00420d17536c9d8f31d3093c26b4f02202434f3bbc0eba7116593efd660e179fa5508d9ebc0f05e3b572274881535781f012102c234bf6319461e2b854cd54f5ed835003cf1ddc488b5b957c2f856fb2c7593e1", "asm": "3045022100e5b0c312e6db941b70634b85b42836019ad00420d17536c9d8f31d3093c26b4f02202434f3bbc0eba7116593efd660e179fa5508d9ebc0f05e3b572274881535781f[ALL] 02c234bf6319461e2b854cd54f5ed835003cf1ddc488b5b957c2f856fb2c7593e1"}, "vout": 1, "txid": "0702a481a2d810705d056a14f712bef7a9585502d989990d25617b4092d4d5f8"}], "txid": "96ab4a6510e429fc86d5a851864a91a1dfa8658f2658ea8ef9ea258a18697bec", "blocktime": 1537872018, "version": 1, "confirmations": 11489, "time": 1537872018, "locktime": 0, "vsize": 226, "size": 226}