{"hash": "96ac99d02c5a6b71bbcab2edab3099667f54fdb4bb1ffbffd8b533b95da55d31", "blockhash": "0000000000000000001f76057863aec43deb6fa401d9628bb513d65a8098bfab", "vout": [{"scriptPubKey": {"reqSigs": 1, "hex": "76a914d81a44d6a6b349edf3113db911c2a1a4c4cc66f388ac", "addresses": ["1LheRdaDJrDXtF2ErKRwbwD6N3CRX7A6gv"], "asm": "OP_DUP OP_HASH160 d81a44d6a6b349edf3113db911c2a1a4c4cc66f3 OP_EQUALVERIFY OP_CHECKSIG", "type": "pubkeyhash"}, "value": 0.08791729, "n": 0}, {"scriptPubKey": {"reqSigs": 1, "hex": "76a91430652f1e1ce55fbee751240cbb33ecf2d41d4a9088ac", "addresses": ["15QtebkUTTZJWys1H9tkHnRigeqWnQmPsr"], "asm": "OP_DUP OP_HASH160 30652f1e1ce55fbee751240cbb33ecf2d41d4a90 OP_EQUALVERIFY OP_CHECKSIG", "type": "pubkeyhash"}, "value": 0.14974759, "n": 1}], "hex": "010000000158c1b695b7ea054cd2ef8a8bede6ba21a7742b182a8db73527e2b64510c91785010000006b483045022100bc874b29337cd6facd0dfaa2eeaf41e7162f11ca929e2ef6bf92212f26249ace02206b6b2ab347c6921be9cb0b416851e98ec3cd2af39c471340138b6927618a7d3b0121032a1e9bd57e85a7a14c34d5bfc20a481e4f2d669d60c2007eea3faa3dd9cb83ecffffffff02b1268600000000001976a914d81a44d6a6b349edf3113db911c2a1a4c4cc66f388ac277fe400000000001976a91430652f1e1ce55fbee751240cbb33ecf2d41d4a9088ac00000000", "vin": [{"sequence": 4294967295, "scriptSig": {"hex": "483045022100bc874b29337cd6facd0dfaa2eeaf41e7162f11ca929e2ef6bf92212f26249ace02206b6b2ab347c6921be9cb0b416851e98ec3cd2af39c471340138b6927618a7d3b0121032a1e9bd57e85a7a14c34d5bfc20a481e4f2d669d60c2007eea3faa3dd9cb83ec", "asm": "3045022100bc874b29337cd6facd0dfaa2eeaf41e7162f11ca929e2ef6bf92212f26249ace02206b6b2ab347c6921be9cb0b416851e98ec3cd2af39c471340138b6927618a7d3b[ALL] 032a1e9bd57e85a7a14c34d5bfc20a481e4f2d669d60c2007eea3faa3dd9cb83ec"}, "vout": 1, "txid": "8517c91045b6e22735b78d2a182b74a721bae6ed8b8aefd24c05eab795b6c158"}], "txid": "96ac99d02c5a6b71bbcab2edab3099667f54fdb4bb1ffbffd8b533b95da55d31", "blocktime": 1537873891, "version": 1, "confirmations": 11477, "time": 1537873891, "locktime": 0, "vsize": 226, "size": 226}