{"hash": "2ee4cec4cf37ac42098003e019b7b216611bb9de1c4e6e480273f7a4c77c21ef", "blockhash": "0000000000000000001cda96e906b7601b7a6fb1a3b62bca570a9e5d8f4b3de1", "vout": [{"scriptPubKey": {"reqSigs": 1, "hex": "a914e8db75c900cf08f06518e96d167331f2a4abfb3387", "addresses": ["3NvFbQMAkkqEFj4i1sYPPLkSWzxTFUchjA"], "asm": "OP_HASH160 e8db75c900cf08f06518e96d167331f2a4abfb33 OP_EQUAL", "type": "scripthash"}, "value": 0.00025295, "n": 0}], "hex": "0100000000010214daae1c1cfa9498aef3edd31cc6a4043fe0b60bbf7849a152b3d80ed3affb520000000017160014f529ccf69eff09af32058e64be41d085c168f1bbffffffff3e9137cdf28a1e59513a38ff13f7e3d4645c5afe0eb5e470dfb47aabe23f2f790100000017160014f529ccf69eff09af32058e64be41d085c168f1bbffffffff01cf6200000000000017a914e8db75c900cf08f06518e96d167331f2a4abfb33870247304402204b00b4ef492a1a26239b9f4fd5b0935c6f8702cb90ce9309775b9754dc1dd3bd0220395063fce11fc3938e7d1b15f57057782cdf08e43017ad8ef22fdac24e657a840121028082ee5eddf9fc070e29944d23cdee7e0efffb4f5e1d03b2b60120043cb02de802483045022100d643e08c22af8b03915ee8128eb032e08065ba0e14aa17fd76cad1da8b4880b50220720a055da8436d2d13ef84b3ed66d9a45bc9956377d28af4fc22559108c2c8fc0121028082ee5eddf9fc070e29944d23cdee7e0efffb4f5e1d03b2b60120043cb02de800000000", "vin": [{"txinwitness": ["304402204b00b4ef492a1a26239b9f4fd5b0935c6f8702cb90ce9309775b9754dc1dd3bd0220395063fce11fc3938e7d1b15f57057782cdf08e43017ad8ef22fdac24e657a8401", "028082ee5eddf9fc070e29944d23cdee7e0efffb4f5e1d03b2b60120043cb02de8"], "sequence": 4294967295, "scriptSig": {"hex": "160014f529ccf69eff09af32058e64be41d085c168f1bb", "asm": "0014f529ccf69eff09af32058e64be41d085c168f1bb"}, "vout": 0, "txid": "52fbafd30ed8b352a14978bf0bb6e03f04a4c61cd3edf3ae9894fa1c1caeda14"}, {"txinwitness": ["3045022100d643e08c22af8b03915ee8128eb032e08065ba0e14aa17fd76cad1da8b4880b50220720a055da8436d2d13ef84b3ed66d9a45bc9956377d28af4fc22559108c2c8fc01", "028082ee5eddf9fc070e29944d23cdee7e0efffb4f5e1d03b2b60120043cb02de8"], "sequence": 4294967295, "scriptSig": {"hex": "160014f529ccf69eff09af32058e64be41d085c168f1bb", "asm": "0014f529ccf69eff09af32058e64be41d085c168f1bb"}, "vout": 1, "txid": "792f3fe2ab7ab4df70e4b50efe5a5c64d4e3f713ff383a51591e8af2cd37913e"}], "txid": "96aeb51941446d97dbe189ce0ed846306af3f06ad4c5698c6566c08052cf2efe", "blocktime": 1537873282, "version": 1, "confirmations": 11484, "time": 1537873282, "locktime": 0, "vsize": 225, "size": 387}