{"hash": "96bb3b567618e9292de60392fe01f2fbc6f3804745b78413f6d159fdb4959fd7", "blockhash": "00000000000000000004ffacab907a6b429b9a5745fa0b75af4234bf69dd7176", "vout": [{"scriptPubKey": {"reqSigs": 1, "hex": "76a9144968f2ca225bbd1507712968adb59bbeeaeab1a988ac", "addresses": ["17hA3wsaGdJcHXb6LbsUwSJkmFZiY94G5E"], "asm": "OP_DUP OP_HASH160 4968f2ca225bbd1507712968adb59bbeeaeab1a9 OP_EQUALVERIFY OP_CHECKSIG", "type": "pubkeyhash"}, "value": 0.09905608, "n": 0}, {"scriptPubKey": {"reqSigs": 1, "hex": "a914e728a6ddbda9ac6cb70968949c3c4a5dee32d23b87", "addresses": ["3NmGiPqkyGR2RH2EkW3fDyNCoKM5Jd81gw"], "asm": "OP_HASH160 e728a6ddbda9ac6cb70968949c3c4a5dee32d23b OP_EQUAL", "type": "scripthash"}, "value": 0.4, "n": 1}], "hex": "0100000003167825441eed3bd7fe0c9856be630150e4152a39e2ef07acfd0e56da67906405000000006b483045022100f97cdadbf92cac52e4a8418dea2a203c55beaf665851a6912149d2d3103bce9802202fdf675701143a4797c179fdb8ea9dbec839e5267c0bbd2af0b9213ecd477dd4012102fb696392a563e2da67e09551cb21b44d1446df00fbcddefd2b6613b85e4687cfffffffffe0848571eead6eb6253e5e7f8130cc646e85a504b1eb0a5d054b7dbe5c50cc43000000006b4830450221008054570d0c0c7c4683a4e1e69cc6b97dde15a0b958470330d17cef1170b70d6b022054db1d6a4e033b63c9db2430c2fc1e6b61a0d4806f9ee93c193e6d59d54768b0012102a9aabb3fc26a2689d55a6850380c52c99add488585f492bb79b90e6468c63ccbfffffffff9b6bc47612c2999fd6ce0b09e86e668e4f63fe7b2083e04975d56fb37085d7c010000006b483045022100d217c0de1d63666879fb26a8f5bd23a43c30b9ad51f154bdadf709db07ce21490220325342b9ff1c3e51baef220196c2c8d054e63d1b2e4886bde7bc5a4c9569144001210359a389fc9784775508dfc55a7a73388a50671fe11192f925d520432e7179c62bffffffff02c8259700000000001976a9144968f2ca225bbd1507712968adb59bbeeaeab1a988ac005a62020000000017a914e728a6ddbda9ac6cb70968949c3c4a5dee32d23b8700000000", "vin": [{"sequence": 4294967295, "scriptSig": {"hex": "483045022100f97cdadbf92cac52e4a8418dea2a203c55beaf665851a6912149d2d3103bce9802202fdf675701143a4797c179fdb8ea9dbec839e5267c0bbd2af0b9213ecd477dd4012102fb696392a563e2da67e09551cb21b44d1446df00fbcddefd2b6613b85e4687cf", "asm": "3045022100f97cdadbf92cac52e4a8418dea2a203c55beaf665851a6912149d2d3103bce9802202fdf675701143a4797c179fdb8ea9dbec839e5267c0bbd2af0b9213ecd477dd4[ALL] 02fb696392a563e2da67e09551cb21b44d1446df00fbcddefd2b6613b85e4687cf"}, "vout": 0, "txid": "05649067da560efdac07efe2392a15e4500163be56980cfed73bed1e44257816"}, {"sequence": 4294967295, "scriptSig": {"hex": "4830450221008054570d0c0c7c4683a4e1e69cc6b97dde15a0b958470330d17cef1170b70d6b022054db1d6a4e033b63c9db2430c2fc1e6b61a0d4806f9ee93c193e6d59d54768b0012102a9aabb3fc26a2689d55a6850380c52c99add488585f492bb79b90e6468c63ccb", "asm": "30450221008054570d0c0c7c4683a4e1e69cc6b97dde15a0b958470330d17cef1170b70d6b022054db1d6a4e033b63c9db2430c2fc1e6b61a0d4806f9ee93c193e6d59d54768b0[ALL] 02a9aabb3fc26a2689d55a6850380c52c99add488585f492bb79b90e6468c63ccb"}, "vout": 0, "txid": "43cc505cbe7d4b055d0aebb104a5856e64cc30817f5e3e25b66eadee718584e0"}, {"sequence": 4294967295, "scriptSig": {"hex": "483045022100d217c0de1d63666879fb26a8f5bd23a43c30b9ad51f154bdadf709db07ce21490220325342b9ff1c3e51baef220196c2c8d054e63d1b2e4886bde7bc5a4c9569144001210359a389fc9784775508dfc55a7a73388a50671fe11192f925d520432e7179c62b", "asm": "3045022100d217c0de1d63666879fb26a8f5bd23a43c30b9ad51f154bdadf709db07ce21490220325342b9ff1c3e51baef220196c2c8d054e63d1b2e4886bde7bc5a4c95691440[ALL] 0359a389fc9784775508dfc55a7a73388a50671fe11192f925d520432e7179c62b"}, "vout": 1, "txid": "7c5d0837fb565d97043e08b2e73ff6e468e6869eb0e06cfd99292c6147bcb6f9"}], "txid": "96bb3b567618e9292de60392fe01f2fbc6f3804745b78413f6d159fdb4959fd7", "blocktime": 1537875543, "version": 1, "confirmations": 11464, "time": 1537875543, "locktime": 0, "vsize": 520, "size": 520}