{"hash": "96bd9016a3a2ff53b20bf7fee1d8d294134174e2cd7bca75afe9ed7d2b75bdb9", "blockhash": "00000000000000000024a2167bbff67b0be802c0b01cdd79e6331c2be6459f87", "vout": [{"scriptPubKey": {"reqSigs": 1, "hex": "76a914c063b73c4734ee7054d1ae2a310423bb4aa46e3188ac", "addresses": ["1JYGCCqmctpieXq4k8bJp47Y9f6wpw8f8v"], "asm": "OP_DUP OP_HASH160 c063b73c4734ee7054d1ae2a310423bb4aa46e31 OP_EQUALVERIFY OP_CHECKSIG", "type": "pubkeyhash"}, "value": 0.000138, "n": 0}, {"scriptPubKey": {"reqSigs": 1, "hex": "76a9146c45de011a94ac9e7848859ce09cc233b6675a2388ac", "addresses": ["1AsVgBDZUy33HKW51F9MR7mBP5Q8Q6cCZa"], "asm": "OP_DUP OP_HASH160 6c45de011a94ac9e7848859ce09cc233b6675a23 OP_EQUALVERIFY OP_CHECKSIG", "type": "pubkeyhash"}, "value": 0.00355488, "n": 1}], "hex": "010000000195d78c943b61fe538c06f362b6a06134dd450ffcfd770dc59bfa1162950b2b79010000006a47304402200f9fb8f6270858ce06dc5f415883c0cc064aebcb3504b12849883eea3b6f387002201d56aec5dc153a809911487d86f368a56ff64e97b5a23e3fa487d1705a3da7ef0121036a30839f4ba2c57ffcb1b13c0861debcc426bb482c1ffaf0b97f28fa71dd1547ffffffff02e8350000000000001976a914c063b73c4734ee7054d1ae2a310423bb4aa46e3188aca06c0500000000001976a9146c45de011a94ac9e7848859ce09cc233b6675a2388ac00000000", "vin": [{"sequence": 4294967295, "scriptSig": {"hex": "47304402200f9fb8f6270858ce06dc5f415883c0cc064aebcb3504b12849883eea3b6f387002201d56aec5dc153a809911487d86f368a56ff64e97b5a23e3fa487d1705a3da7ef0121036a30839f4ba2c57ffcb1b13c0861debcc426bb482c1ffaf0b97f28fa71dd1547", "asm": "304402200f9fb8f6270858ce06dc5f415883c0cc064aebcb3504b12849883eea3b6f387002201d56aec5dc153a809911487d86f368a56ff64e97b5a23e3fa487d1705a3da7ef[ALL] 036a30839f4ba2c57ffcb1b13c0861debcc426bb482c1ffaf0b97f28fa71dd1547"}, "vout": 1, "txid": "792b0b956211fa9bc50d77fdfc0f45dd3461a0b662f3068c53fe613b948cd795"}], "txid": "96bd9016a3a2ff53b20bf7fee1d8d294134174e2cd7bca75afe9ed7d2b75bdb9", "blocktime": 1537870564, "version": 1, "confirmations": 11515, "time": 1537870564, "locktime": 0, "vsize": 225, "size": 225}