{"hash": "60686020f8da2b4705501b2ea54b60dec96745efb82c018c98944d9f57cb1677", "blockhash": "0000000000000000000dcc0f55137456b1a82d3642486a52398922ac4d620174", "vout": [{"scriptPubKey": {"reqSigs": 1, "hex": "a91401f5a5048ffb9d97c3af2d3a3d9c0302c6e1882987", "addresses": ["31sNsRQkMzVo3WWDh5YnVXgohYpjVf1Apb"], "asm": "OP_HASH160 01f5a5048ffb9d97c3af2d3a3d9c0302c6e18829 OP_EQUAL", "type": "scripthash"}, "value": 0.0494, "n": 0}, {"scriptPubKey": {"reqSigs": 1, "hex": "a914bbba37f40cb545bcad4ce84c10733be66d166e0487", "addresses": ["3JodN7GmkHdPgKj9G7HCkn9NDLhrcWCjVN"], "asm": "OP_HASH160 bbba37f40cb545bcad4ce84c10733be66d166e04 OP_EQUAL", "type": "scripthash"}, "value": 6.535e-05, "n": 1}], "hex": "0200000000010132d0b2a8fcdafaef745da9f6a1dc355bd52c335cdd07f8c123af44ddb3ff68760000000017160014d4ab7aa21e4a70ad980429cc11bc1b7841893986ffffffff02e0604b000000000017a91401f5a5048ffb9d97c3af2d3a3d9c0302c6e1882987871900000000000017a914bbba37f40cb545bcad4ce84c10733be66d166e048702483045022100a0c249910aac4d1b33b7dbfc399e6dab6697acfb60e7327dee70efa1e072bd030220643ef0b71fdb31c571a76f1ce4b90d8a195b27b511b402fd8dc967c67727c6080121038d07eeb857d74662ca2e3cae2ccc9f1aad5a4fc044f7fa8a22d49bcec79ea80900000000", "vin": [{"txinwitness": ["3045022100a0c249910aac4d1b33b7dbfc399e6dab6697acfb60e7327dee70efa1e072bd030220643ef0b71fdb31c571a76f1ce4b90d8a195b27b511b402fd8dc967c67727c60801", "038d07eeb857d74662ca2e3cae2ccc9f1aad5a4fc044f7fa8a22d49bcec79ea809"], "sequence": 4294967295, "scriptSig": {"hex": "160014d4ab7aa21e4a70ad980429cc11bc1b7841893986", "asm": "0014d4ab7aa21e4a70ad980429cc11bc1b7841893986"}, "vout": 0, "txid": "7668ffb3dd44af23c1f807dd5c332cd55b35dca1f6a95d74effadafca8b2d032"}], "txid": "96bd1e53c828ef081b9b79bf8c80d8fa06e0a7f5c2a5e8f80e2d3e3808dd7c55", "blocktime": 1537870268, "version": 2, "confirmations": 11516, "time": 1537870268, "locktime": 0, "vsize": 166, "size": 248}