{"hash": "96c38e44a9ac6c6d3aabc882056ecca21aafb7d3bc245eba60f4454242972404", "blockhash": "0000000000000000001e0dab787dd257d1dbfcb92a98c2207d5e1078be1f4165", "vout": [{"scriptPubKey": {"reqSigs": 1, "hex": "a914833d6351154e3bbc27f6b58bf1ab6e791f77855f87", "addresses": ["3Dewyyzjb6qVG3rd9YSEz9ySLyUeFmKtig"], "asm": "OP_HASH160 833d6351154e3bbc27f6b58bf1ab6e791f77855f OP_EQUAL", "type": "scripthash"}, "value": 0.1, "n": 0}, {"scriptPubKey": {"reqSigs": 1, "hex": "a914a3e4383945c3f5ee6cb729e414cc1c4ab3dfbe0887", "addresses": ["3GdbTnkNosDck7tcqPjwQTvDqMuKFGb68N"], "asm": "OP_HASH160 a3e4383945c3f5ee6cb729e414cc1c4ab3dfbe08 OP_EQUAL", "type": "scripthash"}, "value": 0.93491151, "n": 1}], "hex": "020000000134d8980c3b8ce50c925ead464b31960a3d583832140df0990db8d21df9a49e8101000000da00483045022100e81fb2e6883528f277b1c3d08e4c6c92c4d5ff6c62a4e2cde2f37e63454af98502204b8de7ec0c6bca775a9149ee8cc821037c90501fb35571214cb2d5cea8288fab01473044022072803f29044ada461ad1afd4f4db74b0e27d55fd726355f1749e889beb750d19022038695d697cdbddd5f7cf572902404c6cb1c364329bd980c53296b5daafd401620147522103071ea2f6e7e5af0b01e482b84f8e14124e37f119897713bdedd4a86d85aa8406210319ac7f304828d720179de7c08f935623d176cc0a8984affc988e640f5eb069b552aeffffffff02809698000000000017a914833d6351154e3bbc27f6b58bf1ab6e791f77855f87cf8f92050000000017a914a3e4383945c3f5ee6cb729e414cc1c4ab3dfbe088700000000", "vin": [{"sequence": 4294967295, "scriptSig": {"hex": "00483045022100e81fb2e6883528f277b1c3d08e4c6c92c4d5ff6c62a4e2cde2f37e63454af98502204b8de7ec0c6bca775a9149ee8cc821037c90501fb35571214cb2d5cea8288fab01473044022072803f29044ada461ad1afd4f4db74b0e27d55fd726355f1749e889beb750d19022038695d697cdbddd5f7cf572902404c6cb1c364329bd980c53296b5daafd401620147522103071ea2f6e7e5af0b01e482b84f8e14124e37f119897713bdedd4a86d85aa8406210319ac7f304828d720179de7c08f935623d176cc0a8984affc988e640f5eb069b552ae", "asm": "0 3045022100e81fb2e6883528f277b1c3d08e4c6c92c4d5ff6c62a4e2cde2f37e63454af98502204b8de7ec0c6bca775a9149ee8cc821037c90501fb35571214cb2d5cea8288fab[ALL] 3044022072803f29044ada461ad1afd4f4db74b0e27d55fd726355f1749e889beb750d19022038695d697cdbddd5f7cf572902404c6cb1c364329bd980c53296b5daafd40162[ALL] 522103071ea2f6e7e5af0b01e482b84f8e14124e37f119897713bdedd4a86d85aa8406210319ac7f304828d720179de7c08f935623d176cc0a8984affc988e640f5eb069b552ae"}, "vout": 1, "txid": "819ea4f91dd2b80d99f00d143238583d0a96314b46ad5e920ce58c3b0c98d834"}], "txid": "96c38e44a9ac6c6d3aabc882056ecca21aafb7d3bc245eba60f4454242972404", "blocktime": 1537872475, "version": 2, "confirmations": 11486, "time": 1537872475, "locktime": 0, "vsize": 333, "size": 333}