{"hash": "9edadfa30e3ba862e0ad6f5349de9f15e465051a50732a8521768b2ae40e3b09", "blockhash": "0000000000000000000e13cef7c366c0283d82e591d1acd082e914b08063cdf1", "vout": [{"scriptPubKey": {"reqSigs": 1, "hex": "76a914658bc2e4001cfacc64a3e041943e921b3086737588ac", "addresses": ["1AFvgAG4FN8fhtp3ZtSF8hsmKvPTDiB4RV"], "asm": "OP_DUP OP_HASH160 658bc2e4001cfacc64a3e041943e921b30867375 OP_EQUALVERIFY OP_CHECKSIG", "type": "pubkeyhash"}, "value": 3.269e-05, "n": 0}, {"scriptPubKey": {"reqSigs": 1, "hex": "a914e8db75c900cf08f06518e96d167331f2a4abfb3387", "addresses": ["3NvFbQMAkkqEFj4i1sYPPLkSWzxTFUchjA"], "asm": "OP_HASH160 e8db75c900cf08f06518e96d167331f2a4abfb33 OP_EQUAL", "type": "scripthash"}, "value": 0.00716754, "n": 1}], "hex": "01000000000101762722f428c2c82285bc227b2c24b4f03e7cbaa4945410637fcb650b59b3a65d0100000023220020941cfaff8837763dc1f69ff82b6d6553fdea17a41cfc29a04403293eedd8ccc7ffffffff02c50c0000000000001976a914658bc2e4001cfacc64a3e041943e921b3086737588acd2ef0a000000000017a914e8db75c900cf08f06518e96d167331f2a4abfb338704004730440220380fdf6b51c671ef3cd7e184f2aa8c6e2cf0e34e4826a7387424a3a643f5e0d102200334a31486700424a379ea2b802e944cfbf01589cdcc692be86d1ecb33eff18801473044022072462d14ec5e9f65f70c0db4bc79b5920c2d2e4b34ace2290ea9c7f49b5343a3022051e713f72c6d4ecb95c82eb68ab9a7def1849be027d242d25b0c15daca158c370147522102531db3a5883f29bab4241dd0cd726936667bcda445d89bdd22244e828b6993342103148c80a5bdfddb05ff5bcffc397c8ca748d8b435ec6a175bc9d7bfc7fc6f853752ae00000000", "vin": [{"txinwitness": ["", "30440220380fdf6b51c671ef3cd7e184f2aa8c6e2cf0e34e4826a7387424a3a643f5e0d102200334a31486700424a379ea2b802e944cfbf01589cdcc692be86d1ecb33eff18801", "3044022072462d14ec5e9f65f70c0db4bc79b5920c2d2e4b34ace2290ea9c7f49b5343a3022051e713f72c6d4ecb95c82eb68ab9a7def1849be027d242d25b0c15daca158c3701", "522102531db3a5883f29bab4241dd0cd726936667bcda445d89bdd22244e828b6993342103148c80a5bdfddb05ff5bcffc397c8ca748d8b435ec6a175bc9d7bfc7fc6f853752ae"], "sequence": 4294967295, "scriptSig": {"hex": "220020941cfaff8837763dc1f69ff82b6d6553fdea17a41cfc29a04403293eedd8ccc7", "asm": "0020941cfaff8837763dc1f69ff82b6d6553fdea17a41cfc29a04403293eedd8ccc7"}, "vout": 1, "txid": "5da6b3590b65cb7f63105494a4ba7c3ef0b4242c7b22bc8522c8c228f4222776"}], "txid": "96c44089fa30f49a472ea8001e9a81217495e78d87c25b71a2d60392e7218c68", "blocktime": 1537871767, "version": 1, "confirmations": 11495, "time": 1537871767, "locktime": 0, "vsize": 207, "size": 372}