{"hash": "96c6c1a0990117c50d25ad3b5cccae04f046c65ec3674950821fc2ad37ed6102", "blockhash": "0000000000000000000baef3f32e3676a92c3b2e5da21b426e4f302fc371ce76", "vout": [{"scriptPubKey": {"reqSigs": 1, "hex": "a914892a99ddf22e98ab5a86a1b82cac0fec8ca5600587", "addresses": ["3ECHXoAvzXroGYqrPUprp7bCJwYMpNzQeU"], "asm": "OP_HASH160 892a99ddf22e98ab5a86a1b82cac0fec8ca56005 OP_EQUAL", "type": "scripthash"}, "value": 0.00298005, "n": 0}], "hex": "01000000012927fdc1dabe8e4ef4692155925005108caaa4760a1f83209f9a7bb23e31ea5100000000fdfd0000473044022049d56011708117fd53ee67e5814b2b7979f5dc6ee73059fe073a0cfef23d31ab02204ca3fec05175da93bc60eeb6a1465ff5990ca3b6712dfc66f615191351333b48014830450221009a9ca107be4418563669400324dd6de0353a0c70472c945d833e630ace96474102206252dcdbbbe1f2da79b1424ef28f5cbf2d334ca12ec215e89ba1dd6d1893e44d014c69522102fbc4d0256ec394e0ede91e8a6b3549e5590d8876a7e12d29f9053e81c10eaf0221035ce09d68d131e331e3873a5caab1986e6ccff24977b083ab1e77f1c9da3584cc2103f6440381aaaaec434e58db7cecc54460e3f2392e154b6272708ec66e28259e1a53aefdffffff01158c04000000000017a914892a99ddf22e98ab5a86a1b82cac0fec8ca560058716490800", "vin": [{"sequence": 4294967293, "scriptSig": {"hex": "00473044022049d56011708117fd53ee67e5814b2b7979f5dc6ee73059fe073a0cfef23d31ab02204ca3fec05175da93bc60eeb6a1465ff5990ca3b6712dfc66f615191351333b48014830450221009a9ca107be4418563669400324dd6de0353a0c70472c945d833e630ace96474102206252dcdbbbe1f2da79b1424ef28f5cbf2d334ca12ec215e89ba1dd6d1893e44d014c69522102fbc4d0256ec394e0ede91e8a6b3549e5590d8876a7e12d29f9053e81c10eaf0221035ce09d68d131e331e3873a5caab1986e6ccff24977b083ab1e77f1c9da3584cc2103f6440381aaaaec434e58db7cecc54460e3f2392e154b6272708ec66e28259e1a53ae", "asm": "0 3044022049d56011708117fd53ee67e5814b2b7979f5dc6ee73059fe073a0cfef23d31ab02204ca3fec05175da93bc60eeb6a1465ff5990ca3b6712dfc66f615191351333b48[ALL] 30450221009a9ca107be4418563669400324dd6de0353a0c70472c945d833e630ace96474102206252dcdbbbe1f2da79b1424ef28f5cbf2d334ca12ec215e89ba1dd6d1893e44d[ALL] 522102fbc4d0256ec394e0ede91e8a6b3549e5590d8876a7e12d29f9053e81c10eaf0221035ce09d68d131e331e3873a5caab1986e6ccff24977b083ab1e77f1c9da3584cc2103f6440381aaaaec434e58db7cecc54460e3f2392e154b6272708ec66e28259e1a53ae"}, "vout": 0, "txid": "51ea313eb27b9a9f20831f0a76a4aa8c10055092552169f44e8ebedac1fd2729"}], "txid": "96c6c1a0990117c50d25ad3b5cccae04f046c65ec3674950821fc2ad37ed6102", "blocktime": 1537876114, "version": 1, "confirmations": 11462, "time": 1537876114, "locktime": 542998, "vsize": 338, "size": 338}