{"hash": "96c8569e9d7f53a2f6509153a1796064e57240c615cda98e7534eb79b1ad9e29", "blockhash": "0000000000000000001cda96e906b7601b7a6fb1a3b62bca570a9e5d8f4b3de1", "vout": [{"scriptPubKey": {"reqSigs": 1, "hex": "76a914e88ec1b9eaf82f8897b483efa55fb35eaa79538f88ac", "addresses": ["1NCenRBzUZDv1RB8XF8FggRh5qkfS4mMyT"], "asm": "OP_DUP OP_HASH160 e88ec1b9eaf82f8897b483efa55fb35eaa79538f OP_EQUALVERIFY OP_CHECKSIG", "type": "pubkeyhash"}, "value": 0.00523653, "n": 0}, {"scriptPubKey": {"reqSigs": 1, "hex": "a914ed5109b1c7de39e98de53d329576a9322cc9220887", "addresses": ["3PKq9cmDqmx9jBnBWPKhUMLYoH3YN4wwsc"], "asm": "OP_HASH160 ed5109b1c7de39e98de53d329576a9322cc92208 OP_EQUAL", "type": "scripthash"}, "value": 0.00781608, "n": 1}], "hex": "010000000128a09f77a37165d72ced6174aee877080824a6fb1519ced40b08c7404085bc1c000000006a473044022015abccdeb3adcd3fd74e55389be53560295e11fafc569aeaedeb487c3cf44ca00220169af276d4e3dd0e07bf1ebccfd8ca3fc8cf1e016f8e1e198dbdf47c71845956012103d2c90b160c99567120ab99a48f4ea2dcb5639612ad52618f037e6e53ce63a313ffffffff0285fd0700000000001976a914e88ec1b9eaf82f8897b483efa55fb35eaa79538f88ac28ed0b000000000017a914ed5109b1c7de39e98de53d329576a9322cc922088700000000", "vin": [{"sequence": 4294967295, "scriptSig": {"hex": "473044022015abccdeb3adcd3fd74e55389be53560295e11fafc569aeaedeb487c3cf44ca00220169af276d4e3dd0e07bf1ebccfd8ca3fc8cf1e016f8e1e198dbdf47c71845956012103d2c90b160c99567120ab99a48f4ea2dcb5639612ad52618f037e6e53ce63a313", "asm": "3044022015abccdeb3adcd3fd74e55389be53560295e11fafc569aeaedeb487c3cf44ca00220169af276d4e3dd0e07bf1ebccfd8ca3fc8cf1e016f8e1e198dbdf47c71845956[ALL] 03d2c90b160c99567120ab99a48f4ea2dcb5639612ad52618f037e6e53ce63a313"}, "vout": 0, "txid": "1cbc854040c7080bd4ce1915fba624080877e8ae7461ed2cd76571a3779fa028"}], "txid": "96c8569e9d7f53a2f6509153a1796064e57240c615cda98e7534eb79b1ad9e29", "blocktime": 1537873282, "version": 1, "confirmations": 11484, "time": 1537873282, "locktime": 0, "vsize": 223, "size": 223}