{"hash": "96cb01e571647a5815aad551bce456097d2c920311f3baf77fc7356519c8a3f3", "blockhash": "000000000000000000022b45ed06c6f4ccd3cf7fb5ba4856ebd2e58215665228", "vout": [{"scriptPubKey": {"reqSigs": 1, "hex": "a9143288ffb5ec0cd948dc9cbc765bac910a77dd5eb887", "addresses": ["36JDpz18q7LL224enfBFApiX54kAde6wdj"], "asm": "OP_HASH160 3288ffb5ec0cd948dc9cbc765bac910a77dd5eb8 OP_EQUAL", "type": "scripthash"}, "value": 0.00016, "n": 0}, {"scriptPubKey": {"reqSigs": 1, "hex": "76a914ce30f397ef39606aec38d9062cd5c1086ffe250c88ac", "addresses": ["1KoEqjK1LeugitKJSLiZ8fio3QefbBhxVs"], "asm": "OP_DUP OP_HASH160 ce30f397ef39606aec38d9062cd5c1086ffe250c OP_EQUALVERIFY OP_CHECKSIG", "type": "pubkeyhash"}, "value": 0.00038623, "n": 1}], "hex": "01000000015a95a413e5b83644fadf5cc0a7df622a993b52ca59b45d0be37b46eb696f9b85000000006b483045022100ce4e28ab84b1f1e7b64eff10ce40468ca31adea0381f503befea3fa191566ed20220525fe3319994593849286170bf8d9d6920fe5bd992be0e3b88e36927fc48a763012102446624d8394f54e5b31fda5637d0a0261758603187b7dbc3bf8a2dd17347680fffffffff02803e00000000000017a9143288ffb5ec0cd948dc9cbc765bac910a77dd5eb887df960000000000001976a914ce30f397ef39606aec38d9062cd5c1086ffe250c88ac00000000", "vin": [{"sequence": 4294967295, "scriptSig": {"hex": "483045022100ce4e28ab84b1f1e7b64eff10ce40468ca31adea0381f503befea3fa191566ed20220525fe3319994593849286170bf8d9d6920fe5bd992be0e3b88e36927fc48a763012102446624d8394f54e5b31fda5637d0a0261758603187b7dbc3bf8a2dd17347680f", "asm": "3045022100ce4e28ab84b1f1e7b64eff10ce40468ca31adea0381f503befea3fa191566ed20220525fe3319994593849286170bf8d9d6920fe5bd992be0e3b88e36927fc48a763[ALL] 02446624d8394f54e5b31fda5637d0a0261758603187b7dbc3bf8a2dd17347680f"}, "vout": 0, "txid": "859b6f69eb467be30b5db459ca523b992a62dfa7c05cdffa4436b8e513a4955a"}], "txid": "96cb01e571647a5815aad551bce456097d2c920311f3baf77fc7356519c8a3f3", "blocktime": 1537869901, "version": 1, "confirmations": 11523, "time": 1537869901, "locktime": 0, "vsize": 224, "size": 224}