{"hash": "96cdd3fb2417bfb456dfbae87f50db2a536461fd4724803602f5f698189b3d1d", "blockhash": "00000000000000000024a2167bbff67b0be802c0b01cdd79e6331c2be6459f87", "vout": [{"scriptPubKey": {"reqSigs": 1, "hex": "76a91470f064cbe2431283d8cffa0bd6c725a1ad8d32c488ac", "addresses": ["1BJAfLQci7p6UPBFiY7BHZQM7dVdsiB7BV"], "asm": "OP_DUP OP_HASH160 70f064cbe2431283d8cffa0bd6c725a1ad8d32c4 OP_EQUALVERIFY OP_CHECKSIG", "type": "pubkeyhash"}, "value": 0.0062396, "n": 0}, {"scriptPubKey": {"reqSigs": 1, "hex": "76a91475655b77719dd9c47b57852d1b9c22221ddd684788ac", "addresses": ["1BhjUsb9xxSg9cMqNyWzESvXErBnc6me4f"], "asm": "OP_DUP OP_HASH160 75655b77719dd9c47b57852d1b9c22221ddd6847 OP_EQUALVERIFY OP_CHECKSIG", "type": "pubkeyhash"}, "value": 0.03306223, "n": 1}], "hex": "0100000001bd89257ebb92eb254191e03ee8290da93cb3b41d3992d3f105be0ecbb6c07671010000006b483045022100b70937561e50c2b3fe1c1c62216544fc6dcc160dcfbe5f9b27653ce447b00d75022045672515529093626383c7b6196115c8376dc23b137cadc30da08d068c57eb8901210383e7cbd03ecd96fdbfcadd3e81bd326888c153e73ac21b572fbdd47cae0cb881ffffffff0258850900000000001976a91470f064cbe2431283d8cffa0bd6c725a1ad8d32c488acef723200000000001976a91475655b77719dd9c47b57852d1b9c22221ddd684788ac00000000", "vin": [{"sequence": 4294967295, "scriptSig": {"hex": "483045022100b70937561e50c2b3fe1c1c62216544fc6dcc160dcfbe5f9b27653ce447b00d75022045672515529093626383c7b6196115c8376dc23b137cadc30da08d068c57eb8901210383e7cbd03ecd96fdbfcadd3e81bd326888c153e73ac21b572fbdd47cae0cb881", "asm": "3045022100b70937561e50c2b3fe1c1c62216544fc6dcc160dcfbe5f9b27653ce447b00d75022045672515529093626383c7b6196115c8376dc23b137cadc30da08d068c57eb89[ALL] 0383e7cbd03ecd96fdbfcadd3e81bd326888c153e73ac21b572fbdd47cae0cb881"}, "vout": 1, "txid": "7176c0b6cb0ebe05f1d392391db4b33ca90d29e83ee0914125eb92bb7e2589bd"}], "txid": "96cdd3fb2417bfb456dfbae87f50db2a536461fd4724803602f5f698189b3d1d", "blocktime": 1537870564, "version": 1, "confirmations": 11515, "time": 1537870564, "locktime": 0, "vsize": 226, "size": 226}