{"hash": "6eaabadd3af1126c6300e73c189bcb13a1424bce0d658d8f90057a2e6bf0c557", "blockhash": "0000000000000000000baef3f32e3676a92c3b2e5da21b426e4f302fc371ce76", "vout": [{"scriptPubKey": {"reqSigs": 1, "hex": "a91430897cc6c9d69f6a2c2f1c651d51f22219f1a4f687", "addresses": ["367f4YWz1VCFaqBqwbTrzwi2b1h2U3w1AF"], "asm": "OP_HASH160 30897cc6c9d69f6a2c2f1c651d51f22219f1a4f6 OP_EQUAL", "type": "scripthash"}, "value": 0.19816398, "n": 0}, {"scriptPubKey": {"reqSigs": 1, "hex": "a91469f375e7e87d057cc5b226e4731169394f3ad95687", "addresses": ["3BMEXd5gv1p9aVQWRyqC4azH7M736x7Qjc"], "asm": "OP_HASH160 69f375e7e87d057cc5b226e4731169394f3ad956 OP_EQUAL", "type": "scripthash"}, "value": 0.12303515, "n": 1}], "hex": "0100000000010110f71f29754e84f31e8295053f0d3a3be81625449cfd24f1d0b98889e051035b0000000023220020bcf9f822194145acea0f3235f4107b5bf1a91b6b9f8489f63bf79ec29b360913ffffffff02ce5f2e010000000017a91430897cc6c9d69f6a2c2f1c651d51f22219f1a4f6879bbcbb000000000017a91469f375e7e87d057cc5b226e4731169394f3ad956870400483045022100bf1c5f4e585355077055acb9755c5e87f3d6404e56a852f0016b7006e6ae7b8c0220777cad510cbe6b1aca3050be2c8b3eb42449702f437f3231fe2e209af942cf0d01483045022100fef7b7ef37280aca0b20ea8d12b7a5c10e1f4e4df1ae1485a0c35c206adfef3f0220613f36e009f058132f81c9d11c9e833c68500caeda3cbeaa5f5aa97b0d172ce901695221026c8f72b9e63db63907115e65d4da86eaae595b22fdc85ec75301bb4adbf203582103806535be3e3920e5eedee92de5714188fd6a784f2bf7b04f87de0b9c3ae1ecdb21024b23bfdce2afcae7e28c42f7f79aa100f22931712c52d7414a526ba494d44a2553ae00000000", "vin": [{"txinwitness": ["", "3045022100bf1c5f4e585355077055acb9755c5e87f3d6404e56a852f0016b7006e6ae7b8c0220777cad510cbe6b1aca3050be2c8b3eb42449702f437f3231fe2e209af942cf0d01", "3045022100fef7b7ef37280aca0b20ea8d12b7a5c10e1f4e4df1ae1485a0c35c206adfef3f0220613f36e009f058132f81c9d11c9e833c68500caeda3cbeaa5f5aa97b0d172ce901", "5221026c8f72b9e63db63907115e65d4da86eaae595b22fdc85ec75301bb4adbf203582103806535be3e3920e5eedee92de5714188fd6a784f2bf7b04f87de0b9c3ae1ecdb21024b23bfdce2afcae7e28c42f7f79aa100f22931712c52d7414a526ba494d44a2553ae"], "sequence": 4294967295, "scriptSig": {"hex": "220020bcf9f822194145acea0f3235f4107b5bf1a91b6b9f8489f63bf79ec29b360913", "asm": "0020bcf9f822194145acea0f3235f4107b5bf1a91b6b9f8489f63bf79ec29b360913"}, "vout": 0, "txid": "5b0351e08988b9d0f124fd9c442516e83b3a0d3f0595821ef3844e75291ff710"}], "txid": "96ce25343dd2190956960a3c529e81a35ba5438cefd0e4c1d50a98ffce69d4c4", "blocktime": 1537876114, "version": 1, "confirmations": 11460, "time": 1537876114, "locktime": 0, "vsize": 214, "size": 406}