{"hash": "7120bacbe3cd09be0e5c3679ac648a333f96c5e78d7a127d33c4c5193d823793", "blockhash": "0000000000000000001f76057863aec43deb6fa401d9628bb513d65a8098bfab", "vout": [{"scriptPubKey": {"reqSigs": 1, "hex": "a914c8948f84ab8bc2187580e4fb86ecf2a0a06e11cf87", "addresses": ["3Kyb35jwJ7YCiAF7JRfW5VZdpyywKap5YB"], "asm": "OP_HASH160 c8948f84ab8bc2187580e4fb86ecf2a0a06e11cf OP_EQUAL", "type": "scripthash"}, "value": 3.863e-05, "n": 0}, {"scriptPubKey": {"reqSigs": 1, "hex": "a914d303b012fd5bace55c9e1eecd8544fa009e066ec87", "addresses": ["3LvkvFaJnbgHkBLLALpbmpCoqhxjnChTS6"], "asm": "OP_HASH160 d303b012fd5bace55c9e1eecd8544fa009e066ec OP_EQUAL", "type": "scripthash"}, "value": 0.00024729, "n": 1}], "hex": "0100000000010119be4b656118c9504168ef722050379527fa4291dedbeb2a985ceef37a32337300000000232200205d6499f7200492ec9507ce8f2964f6bc783b27e872ac6ff833364b07b881828cffffffff02170f00000000000017a914c8948f84ab8bc2187580e4fb86ecf2a0a06e11cf87996000000000000017a914d303b012fd5bace55c9e1eecd8544fa009e066ec870400483045022100ec389a30e2103a9d5c14872d9df40afc29059bfa55fedafc4ba3e8dd09530c5c02207d6b8bc946c14986a25a7ee46a1054a7b1907af6f912f670fef53cd71ed140f601483045022100dcd97df00100c58b97fcc3cfd7515e0af2c0a1aa3e6cd709d51d7a7ede9c031e02203b6ee621c41dd499141a802764eed792b8270ab308cca2c73ea94a6973f439bc0147522102e4c6107243fb30e2c7b68867cb2ba9b88f255fd888815db5b6b304be2776f30b2103338f346cab6ba87fe940591a03ac234be06520c5ab386d4b6632e8eef0d0db7652ae00000000", "vin": [{"txinwitness": ["", "3045022100ec389a30e2103a9d5c14872d9df40afc29059bfa55fedafc4ba3e8dd09530c5c02207d6b8bc946c14986a25a7ee46a1054a7b1907af6f912f670fef53cd71ed140f601", "3045022100dcd97df00100c58b97fcc3cfd7515e0af2c0a1aa3e6cd709d51d7a7ede9c031e02203b6ee621c41dd499141a802764eed792b8270ab308cca2c73ea94a6973f439bc01", "522102e4c6107243fb30e2c7b68867cb2ba9b88f255fd888815db5b6b304be2776f30b2103338f346cab6ba87fe940591a03ac234be06520c5ab386d4b6632e8eef0d0db7652ae"], "sequence": 4294967295, "scriptSig": {"hex": "2200205d6499f7200492ec9507ce8f2964f6bc783b27e872ac6ff833364b07b881828c", "asm": "00205d6499f7200492ec9507ce8f2964f6bc783b27e872ac6ff833364b07b881828c"}, "vout": 0, "txid": "7333327af3ee5c982aebdbde9142fa279537502072ef684150c91861654bbe19"}], "txid": "96d2c4345e0e63d63b23f32b63537a2e022762fd7762bf341df8e4fa70df52ae", "blocktime": 1537873891, "version": 1, "confirmations": 11478, "time": 1537873891, "locktime": 0, "vsize": 206, "size": 372}