{"hash": "96d86931a547453e020ed55cd5d5f92ba7facaebb4a004dd911e8c03a6101b29", "blockhash": "00000000000000000017f5eb5941039fbcee6240d03bc1f2f8e35350df66a1d8", "vout": [{"scriptPubKey": {"reqSigs": 1, "hex": "76a914868cacd254b750f48b3043fe0df8f055fca1731288ac", "addresses": ["1DGS4yvkNVjDHtzeZJQVWHj4V1eXEE3Mfr"], "asm": "OP_DUP OP_HASH160 868cacd254b750f48b3043fe0df8f055fca17312 OP_EQUALVERIFY OP_CHECKSIG", "type": "pubkeyhash"}, "value": 0.01302838, "n": 0}, {"scriptPubKey": {"reqSigs": 1, "hex": "76a9142e103ebe3a6a5c7d27958c131dd93d01354398b688ac", "addresses": ["15CZYZ4ns1np47r13cLWsR59EvxCAHf4VU"], "asm": "OP_DUP OP_HASH160 2e103ebe3a6a5c7d27958c131dd93d01354398b6 OP_EQUALVERIFY OP_CHECKSIG", "type": "pubkeyhash"}, "value": 0.04939396, "n": 1}], "hex": "0100000001e676505de82f2227b7793bb787e18da8f87a6089db97916931cca61bae76aa42010000006a47304402204089a764569b6bdc24b40ec551df8264d4c84de86eb6ccbe6e39afb53ec692de0220259b67f990d82f2346f6158520f013b9a795b83c047faced90b63f5aeba61a0a012102d1102bf231a9766c0e1d43d8dcf7cbd4afb23529e6e8e0aadea98c046b91b1cfffffffff0236e11300000000001976a914868cacd254b750f48b3043fe0df8f055fca1731288ac845e4b00000000001976a9142e103ebe3a6a5c7d27958c131dd93d01354398b688ac00000000", "vin": [{"sequence": 4294967295, "scriptSig": {"hex": "47304402204089a764569b6bdc24b40ec551df8264d4c84de86eb6ccbe6e39afb53ec692de0220259b67f990d82f2346f6158520f013b9a795b83c047faced90b63f5aeba61a0a012102d1102bf231a9766c0e1d43d8dcf7cbd4afb23529e6e8e0aadea98c046b91b1cf", "asm": "304402204089a764569b6bdc24b40ec551df8264d4c84de86eb6ccbe6e39afb53ec692de0220259b67f990d82f2346f6158520f013b9a795b83c047faced90b63f5aeba61a0a[ALL] 02d1102bf231a9766c0e1d43d8dcf7cbd4afb23529e6e8e0aadea98c046b91b1cf"}, "vout": 1, "txid": "42aa76ae1ba6cc31699197db89607af8a88de187b73b79b727222fe85d5076e6"}], "txid": "96d86931a547453e020ed55cd5d5f92ba7facaebb4a004dd911e8c03a6101b29", "blocktime": 1537874412, "version": 1, "confirmations": 11467, "time": 1537874412, "locktime": 0, "vsize": 225, "size": 225}