{"hash": "8efc3e2654b2bb696f32632c94f202c60bbbdf7062ea1b6559b7e863f06508ab", "blockhash": "0000000000000000000e13cef7c366c0283d82e591d1acd082e914b08063cdf1", "vout": [{"scriptPubKey": {"reqSigs": 1, "hex": "76a914296081a8dc83f0d85ec229570544540e2c1ea19088ac", "addresses": ["14mnKFgCGJWahRKzPYcPeDcoS4ebHqF5zD"], "asm": "OP_DUP OP_HASH160 296081a8dc83f0d85ec229570544540e2c1ea190 OP_EQUALVERIFY OP_CHECKSIG", "type": "pubkeyhash"}, "value": 0.2077, "n": 0}, {"scriptPubKey": {"reqSigs": 1, "hex": "a91486c3fd19c6c9a0b596046179f8c72dcbdf95c96387", "addresses": ["3DybFnF6r6riDz1W1wSmv2rvjo8NCGH4xi"], "asm": "OP_HASH160 86c3fd19c6c9a0b596046179f8c72dcbdf95c963 OP_EQUAL", "type": "scripthash"}, "value": 36.97784605, "n": 1}], "hex": "01000000000106af7793877e95328419e97e6f307852d11730008d8f0616160949ec61a36b5b290100000017160014ec0c3be211a1aa913251263b74851232cb4aa78affffffff163a7c5be2d7603d82fdda3970088d7d02a0b2484f49a6e92089ebec4b36f1500100000017160014777ecf486f63b96b20ac1fc2286f1f0b78e72920ffffffffc9d3117831c3c2cf6dd7a47bbf6c56f3b046c8430865af76978b394940c7d3ed35000000171600145cb6d3256f53f459e48c98f3000a7b1fda8b298bffffffffe87bb8374133d10b75d3fa27253d6691b9f67a6ff0cbdcfa852a646a32ad968c000000001716001476759f2cf6a4d250a179b8cb34b78e69ce18298effffffffe29c2a211735290439df4b5da1a9c9cfbcc81a196ec2568b7140a53af7c04c2a0000000017160014bcad9e6a8083bdee546c5feea31eb70f191f7832ffffffffd872cfe03148f2d25f38710c79cf8f645e1ab024b1491b74756fa992119791c10200000017160014000b814f2c1a19852357ed615a08ec572a781ed1ffffffff02d0ec3c01000000001976a914296081a8dc83f0d85ec229570544540e2c1ea19088ac1db767dc0000000017a91486c3fd19c6c9a0b596046179f8c72dcbdf95c9638702483045022100a3eae44bda04d194101c743e2c3ce0a3887b5657a6756288f96d33e2a38a87b202200a1f5bb5118bf36d642b63556c5c2324d06d28b8eabd2c9dd4dc5933c798d055012102876d8a04c7deaebbfef53ae35b098d5344a9b33523e7037962e7b1780a47c233024730440220443d182276de54087b58d2297cd5fb019551b4b21723c320de59ff49af57252302200b5b7e9b38362c0737c453f5ae0378c91aacd24ca240df3f937340c7a706cd4901210356c9809df818dbdc95ba62efbb73d43f66bb771bfa9098e8b753f5e50c63a10902473044022015511047da33248edb6570c04d0405bb69fb3b4a145af2958b02c17ff490b689022031812afd4546f32defbffe036eda3f5f8bad31e9f8ae303f7c1314ae8adbfb8501210208bd22682993cc44aed740fc8d397bd1b4b9342e8bf7cd83a2749368dd7d6c18024830450221009ec4d6b21a8f9bc4812a0e52cf1b575baf7b104f66b1223f39abc3903ced5b9c0220276d127bd80916862e5b5d93ea7d20bc76cb7eb4264580df0cba0c6f1a4c02c40121037eaff678dbc6342425ed02c1dd247503304f0518d70185427022cac43c639aa00247304402206fbc89215c57b4c07c0523846b80849d2367196637f9e358e943995684911ecc02207446aabeec6848e1a29dbfec1e82cc5caaf8b90151d1a0c4dd9336688eaa98ca0121033606a5369bd5b042bfb98c021a8efeee0a8ee0f7a0f5fc483e07ee107b9c253f02483045022100af644c0b01dff375dedf58ee05a292fbce2d87518fb9f0ccee8d0f8a4395fa320220691968cfe57329ecd5ae5228fcffb4bde359a43ddce813d5fb8739b1420cf0f6012102aad79950b2c2af3689e8644c89e9d10dff06c2d8926200496b92e9f7ccb0304c00000000", "vin": [{"txinwitness": ["3045022100a3eae44bda04d194101c743e2c3ce0a3887b5657a6756288f96d33e2a38a87b202200a1f5bb5118bf36d642b63556c5c2324d06d28b8eabd2c9dd4dc5933c798d05501", "02876d8a04c7deaebbfef53ae35b098d5344a9b33523e7037962e7b1780a47c233"], "sequence": 4294967295, "scriptSig": {"hex": "160014ec0c3be211a1aa913251263b74851232cb4aa78a", "asm": "0014ec0c3be211a1aa913251263b74851232cb4aa78a"}, "vout": 1, "txid": "295b6ba361ec49091616068f8d003017d15278306f7ee9198432957e879377af"}, {"txinwitness": ["30440220443d182276de54087b58d2297cd5fb019551b4b21723c320de59ff49af57252302200b5b7e9b38362c0737c453f5ae0378c91aacd24ca240df3f937340c7a706cd4901", "0356c9809df818dbdc95ba62efbb73d43f66bb771bfa9098e8b753f5e50c63a109"], "sequence": 4294967295, "scriptSig": {"hex": "160014777ecf486f63b96b20ac1fc2286f1f0b78e72920", "asm": "0014777ecf486f63b96b20ac1fc2286f1f0b78e72920"}, "vout": 1, "txid": "50f1364beceb8920e9a6494f48b2a0027d8d087039dafd823d60d7e25b7c3a16"}, {"txinwitness": ["3044022015511047da33248edb6570c04d0405bb69fb3b4a145af2958b02c17ff490b689022031812afd4546f32defbffe036eda3f5f8bad31e9f8ae303f7c1314ae8adbfb8501", "0208bd22682993cc44aed740fc8d397bd1b4b9342e8bf7cd83a2749368dd7d6c18"], "sequence": 4294967295, "scriptSig": {"hex": "1600145cb6d3256f53f459e48c98f3000a7b1fda8b298b", "asm": "00145cb6d3256f53f459e48c98f3000a7b1fda8b298b"}, "vout": 53, "txid": "edd3c74049398b9776af650843c846b0f3566cbf7ba4d76dcfc2c3317811d3c9"}, {"txinwitness": ["30450221009ec4d6b21a8f9bc4812a0e52cf1b575baf7b104f66b1223f39abc3903ced5b9c0220276d127bd80916862e5b5d93ea7d20bc76cb7eb4264580df0cba0c6f1a4c02c401", "037eaff678dbc6342425ed02c1dd247503304f0518d70185427022cac43c639aa0"], "sequence": 4294967295, "scriptSig": {"hex": "16001476759f2cf6a4d250a179b8cb34b78e69ce18298e", "asm": "001476759f2cf6a4d250a179b8cb34b78e69ce18298e"}, "vout": 0, "txid": "8c96ad326a642a85fadccbf06f7af6b991663d2527fad3750bd1334137b87be8"}, {"txinwitness": ["304402206fbc89215c57b4c07c0523846b80849d2367196637f9e358e943995684911ecc02207446aabeec6848e1a29dbfec1e82cc5caaf8b90151d1a0c4dd9336688eaa98ca01", "033606a5369bd5b042bfb98c021a8efeee0a8ee0f7a0f5fc483e07ee107b9c253f"], "sequence": 4294967295, "scriptSig": {"hex": "160014bcad9e6a8083bdee546c5feea31eb70f191f7832", "asm": "0014bcad9e6a8083bdee546c5feea31eb70f191f7832"}, "vout": 0, "txid": "2a4cc0f73aa540718b56c26e191ac8bccfc9a9a15d4bdf3904293517212a9ce2"}, {"txinwitness": ["3045022100af644c0b01dff375dedf58ee05a292fbce2d87518fb9f0ccee8d0f8a4395fa320220691968cfe57329ecd5ae5228fcffb4bde359a43ddce813d5fb8739b1420cf0f601", "02aad79950b2c2af3689e8644c89e9d10dff06c2d8926200496b92e9f7ccb0304c"], "sequence": 4294967295, "scriptSig": {"hex": "160014000b814f2c1a19852357ed615a08ec572a781ed1", "asm": "0014000b814f2c1a19852357ed615a08ec572a781ed1"}, "vout": 2, "txid": "c191971192a96f75741b49b124b01a5e648fcf790c71385fd2f24831e0cf72d8"}], "txid": "96debb7e333f7a20b7305a7ef9987db22e9857df79a561e10d400ef37350949f", "blocktime": 1537871767, "version": 1, "confirmations": 11493, "time": 1537871767, "locktime": 0, "vsize": 622, "size": 1107}