{"hash": "96df5c6e30d4a255ccbb0ba1aaf39366fcdbad7924ebbba3c2481f9035f21bb2", "blockhash": "0000000000000000000e13cef7c366c0283d82e591d1acd082e914b08063cdf1", "vout": [{"scriptPubKey": {"reqSigs": 1, "hex": "76a914477b4d41dc90092c38a6e8691ea8e0f177962e3488ac", "addresses": ["17Wxgn94b9wMSX3ZU2BX2AEhshDSoVogcU"], "asm": "OP_DUP OP_HASH160 477b4d41dc90092c38a6e8691ea8e0f177962e34 OP_EQUALVERIFY OP_CHECKSIG", "type": "pubkeyhash"}, "value": 0.0043278, "n": 0}], "hex": "0100000001d92b4810070709272bc54c44edab75ab5d2e6a50ba0343ed74a76a93a94c2c0a000000006b483045022100d978fc6633bf4d4d41c7fa5bac5224ef94a4c284aff377909cf2df55f02cfa83022079935b87a704f4803d8b571d25df778eea0a0bffb5f3f0309b62132aada1d395012103729351b3a943973fb75fda9ef476e1afed3c25866b67462219b8664020cd829bffffffff018c9a0600000000001976a914477b4d41dc90092c38a6e8691ea8e0f177962e3488ac00000000", "vin": [{"sequence": 4294967295, "scriptSig": {"hex": "483045022100d978fc6633bf4d4d41c7fa5bac5224ef94a4c284aff377909cf2df55f02cfa83022079935b87a704f4803d8b571d25df778eea0a0bffb5f3f0309b62132aada1d395012103729351b3a943973fb75fda9ef476e1afed3c25866b67462219b8664020cd829b", "asm": "3045022100d978fc6633bf4d4d41c7fa5bac5224ef94a4c284aff377909cf2df55f02cfa83022079935b87a704f4803d8b571d25df778eea0a0bffb5f3f0309b62132aada1d395[ALL] 03729351b3a943973fb75fda9ef476e1afed3c25866b67462219b8664020cd829b"}, "vout": 0, "txid": "0a2c4ca9936aa774ed4303ba506a2e5dab75abed444cc52b2709070710482bd9"}], "txid": "96df5c6e30d4a255ccbb0ba1aaf39366fcdbad7924ebbba3c2481f9035f21bb2", "blocktime": 1537871767, "version": 1, "confirmations": 11495, "time": 1537871767, "locktime": 0, "vsize": 192, "size": 192}