{"hash": "96f4e563c3e5c1c552138fe11abb91f2e0be6e5558d8c83c030e723d3dad71ba", "blockhash": "00000000000000000024a2167bbff67b0be802c0b01cdd79e6331c2be6459f87", "vout": [{"scriptPubKey": {"reqSigs": 1, "hex": "76a914d500982e97e5785f77c6e239156ff2eef6e63f0388ac", "addresses": ["1LRFeAVrkrgnAyNLa7uLWeWAaXcTRrqtQt"], "asm": "OP_DUP OP_HASH160 d500982e97e5785f77c6e239156ff2eef6e63f03 OP_EQUALVERIFY OP_CHECKSIG", "type": "pubkeyhash"}, "value": 0.09833446, "n": 0}, {"scriptPubKey": {"reqSigs": 1, "hex": "76a9148cd1e3beafb9d22e76b9d1dc0f10caf75ed2126c88ac", "addresses": ["1Dqb3F7USEP1Ar7SGUzSgp7efnPiYqUR2R"], "asm": "OP_DUP OP_HASH160 8cd1e3beafb9d22e76b9d1dc0f10caf75ed2126c OP_EQUALVERIFY OP_CHECKSIG", "type": "pubkeyhash"}, "value": 3e-05, "n": 1}], "hex": "0100000001b000b34b30a356f15a02168647b93ee79876a9881cf28f4f3adfbce43b1d7650000000006b483045022100eaaae92d8bbbb1b005346345289be6a4eaa170ca33c7b1339cbea2c0748b791a0220389fedf36dc359e9b321a1e35f2a3063adabd497cfcb2651ac3962e4e28300a4012102119b69f264fc3c51141106926485dc77f2ddf16d6ae1968e5ca6bc3293e109d3feffffff02e60b9600000000001976a914d500982e97e5785f77c6e239156ff2eef6e63f0388acb80b0000000000001976a9148cd1e3beafb9d22e76b9d1dc0f10caf75ed2126c88ac0d490800", "vin": [{"sequence": 4294967294, "scriptSig": {"hex": "483045022100eaaae92d8bbbb1b005346345289be6a4eaa170ca33c7b1339cbea2c0748b791a0220389fedf36dc359e9b321a1e35f2a3063adabd497cfcb2651ac3962e4e28300a4012102119b69f264fc3c51141106926485dc77f2ddf16d6ae1968e5ca6bc3293e109d3", "asm": "3045022100eaaae92d8bbbb1b005346345289be6a4eaa170ca33c7b1339cbea2c0748b791a0220389fedf36dc359e9b321a1e35f2a3063adabd497cfcb2651ac3962e4e28300a4[ALL] 02119b69f264fc3c51141106926485dc77f2ddf16d6ae1968e5ca6bc3293e109d3"}, "vout": 0, "txid": "50761d3be4bcdf3a4f8ff21c88a97698e73eb9478616025af156a3304bb300b0"}], "txid": "96f4e563c3e5c1c552138fe11abb91f2e0be6e5558d8c83c030e723d3dad71ba", "blocktime": 1537870564, "version": 1, "confirmations": 11515, "time": 1537870564, "locktime": 542989, "vsize": 226, "size": 226}