{"hash": "9700b26e20cdf07508493ba2b49c144920c8c2966826b22fc46f9ddaccb5ad9c", "blockhash": "00000000000000000004ffacab907a6b429b9a5745fa0b75af4234bf69dd7176", "vout": [{"scriptPubKey": {"reqSigs": 1, "hex": "a914772e27c806b4ffa58ed43222e8560ba97bf6774e87", "addresses": ["3CZBdJdGpCPKmJPd2Bw3XZSc3WLdQP3jsj"], "asm": "OP_HASH160 772e27c806b4ffa58ed43222e8560ba97bf6774e OP_EQUAL", "type": "scripthash"}, "value": 0.02986627, "n": 0}, {"scriptPubKey": {"reqSigs": 1, "hex": "a91469f3743b4c5b95dac7009e9176778d54658e52eb87", "addresses": ["3BMEXAj3hoWxdfUmF1gQ8Ms7pBrnPLMQMV"], "asm": "OP_HASH160 69f3743b4c5b95dac7009e9176778d54658e52eb OP_EQUAL", "type": "scripthash"}, "value": 0.1, "n": 1}, {"scriptPubKey": {"reqSigs": 1, "hex": "76a9146db412bc2c468936f42ef4fdbd2e128db896ede388ac", "addresses": ["1B14NcbPUTAS1q882ZyJT8cQ7oJwqvJrt2"], "asm": "OP_DUP OP_HASH160 6db412bc2c468936f42ef4fdbd2e128db896ede3 OP_EQUALVERIFY OP_CHECKSIG", "type": "pubkeyhash"}, "value": 0.57886083, "n": 2}, {"scriptPubKey": {"reqSigs": 1, "hex": "76a91443849383122ebb8a28268a89700c9f723663b5b888ac", "addresses": ["17A16QmavnUfCW11DAApiJxp7ARnxN5pGX"], "asm": "OP_DUP OP_HASH160 43849383122ebb8a28268a89700c9f723663b5b8 OP_EQUALVERIFY OP_CHECKSIG", "type": "pubkeyhash"}, "value": 84.945251, "n": 3}], "hex": "0200000001316af92652e6600b42bfb25a6ba45bbe4ad128c2a9914e8c6befabbb48da02c20b0000008b483045022100eb6b74bd64e52c9eca0234ad0d54c58a4fd1680875b676634efc5f780dd7fb9102207593d8cb75db6c549cc4c6872826bb1f11614a9d4a7566df35cf5092c23ff1860141047146f0e0fcb3139947cf0beb870fe251930ca10d4545793d31033e801b5219abf56c11a3cf3406ca590e4c14b0dab749d20862b3adc4709153c280c2a78be10cffffffff0483922d000000000017a914772e27c806b4ffa58ed43222e8560ba97bf6774e87809698000000000017a91469f3743b4c5b95dac7009e9176778d54658e52eb8783457303000000001976a9146db412bc2c468936f42ef4fdbd2e128db896ede388acac2a50fa010000001976a91443849383122ebb8a28268a89700c9f723663b5b888ac00000000", "vin": [{"sequence": 4294967295, "scriptSig": {"hex": "483045022100eb6b74bd64e52c9eca0234ad0d54c58a4fd1680875b676634efc5f780dd7fb9102207593d8cb75db6c549cc4c6872826bb1f11614a9d4a7566df35cf5092c23ff1860141047146f0e0fcb3139947cf0beb870fe251930ca10d4545793d31033e801b5219abf56c11a3cf3406ca590e4c14b0dab749d20862b3adc4709153c280c2a78be10c", "asm": "3045022100eb6b74bd64e52c9eca0234ad0d54c58a4fd1680875b676634efc5f780dd7fb9102207593d8cb75db6c549cc4c6872826bb1f11614a9d4a7566df35cf5092c23ff186[ALL] 047146f0e0fcb3139947cf0beb870fe251930ca10d4545793d31033e801b5219abf56c11a3cf3406ca590e4c14b0dab749d20862b3adc4709153c280c2a78be10c"}, "vout": 11, "txid": "c202da48bbabef6b8c4e91a9c228d14abe5ba46b5ab2bf420b60e65226f96a31"}], "txid": "9700b26e20cdf07508493ba2b49c144920c8c2966826b22fc46f9ddaccb5ad9c", "blocktime": 1537875543, "version": 2, "confirmations": 11464, "time": 1537875543, "locktime": 0, "vsize": 322, "size": 322}