{"hash": "9705e613c80855d95b219206ebfd5ff7a9ca18423c98036ba7e796b628344656", "blockhash": "0000000000000000000e13cef7c366c0283d82e591d1acd082e914b08063cdf1", "vout": [{"scriptPubKey": {"type": "nulldata", "hex": "6a146f6d6e69000000000000001f00000059bba14e00", "asm": "OP_RETURN 6f6d6e69000000000000001f00000059bba14e00"}, "value": 0.0, "n": 0}, {"scriptPubKey": {"reqSigs": 1, "hex": "76a914f08f1eb8abb5adbaa8bcb240d2acd49e25e4b3eb88ac", "addresses": ["1NvxdC7ZVBPjvu7J1o9esw29GL2CX2Av7F"], "asm": "OP_DUP OP_HASH160 f08f1eb8abb5adbaa8bcb240d2acd49e25e4b3eb OP_EQUALVERIFY OP_CHECKSIG", "type": "pubkeyhash"}, "value": 0.96847064, "n": 1}, {"scriptPubKey": {"reqSigs": 1, "hex": "76a914be3532ae77ff6c5f1a2b6552055053efc9cd7f0288ac", "addresses": ["1JLj7i4F4V62WLnADgmRrg85c1TujTK3g6"], "asm": "OP_DUP OP_HASH160 be3532ae77ff6c5f1a2b6552055053efc9cd7f02 OP_EQUALVERIFY OP_CHECKSIG", "type": "pubkeyhash"}, "value": 5.46e-06, "n": 2}], "hex": "0100000001303dc600944626ae55e3a4cdf3001a06b46c9e859acbad9ebf8280a9146932c5000000006a47304402204d28ccef21fb1607770c425b9a5d75436b8881eab872ec14251ca2461197d5b4022027c97a1542661d11b860d3173820acf5612c72c58b472c52780167734aa5ed97012103c2b04dd606395a18746d8a0af017205f3b06c1a8d593db29371de0c36104f490feffffff030000000000000000166a146f6d6e69000000000000001f00000059bba14e00d8c4c505000000001976a914f08f1eb8abb5adbaa8bcb240d2acd49e25e4b3eb88ac22020000000000001976a914be3532ae77ff6c5f1a2b6552055053efc9cd7f0288ac10490800", "vin": [{"sequence": 4294967294, "scriptSig": {"hex": "47304402204d28ccef21fb1607770c425b9a5d75436b8881eab872ec14251ca2461197d5b4022027c97a1542661d11b860d3173820acf5612c72c58b472c52780167734aa5ed97012103c2b04dd606395a18746d8a0af017205f3b06c1a8d593db29371de0c36104f490", "asm": "304402204d28ccef21fb1607770c425b9a5d75436b8881eab872ec14251ca2461197d5b4022027c97a1542661d11b860d3173820acf5612c72c58b472c52780167734aa5ed97[ALL] 03c2b04dd606395a18746d8a0af017205f3b06c1a8d593db29371de0c36104f490"}, "vout": 0, "txid": "c5326914a98082bf9eadcb9a859e6cb4061a00f3cda4e355ae26469400c63d30"}], "txid": "9705e613c80855d95b219206ebfd5ff7a9ca18423c98036ba7e796b628344656", "blocktime": 1537871767, "version": 1, "confirmations": 11490, "time": 1537871767, "locktime": 542992, "vsize": 256, "size": 256}