{"hash": "5a4944f99023ae7ca0b5758768a60ebfd87dc4419287de33909556740afba738", "blockhash": "0000000000000000000e13cef7c366c0283d82e591d1acd082e914b08063cdf1", "vout": [{"scriptPubKey": {"reqSigs": 1, "hex": "76a914f7f5ecfb0ee1cae06f570190c5d9764f1b0d666a88ac", "addresses": ["1Pc6WbnSXirVcanJzW2m48aKTo5CcefYKk"], "asm": "OP_DUP OP_HASH160 f7f5ecfb0ee1cae06f570190c5d9764f1b0d666a OP_EQUALVERIFY OP_CHECKSIG", "type": "pubkeyhash"}, "value": 0.00439147, "n": 0}], "hex": "020000000001032b52dfec8f1dcec8953c665df964a10bd4776f8dfa92e0aaef351f5409e0e7ab00000000171600143ad66740c609477c11114e1dac777f2678458510ffffffff3b5d5512c96d0d1b843a7ed8360099e361bef16ddba3bf387e02223b57f30d4001000000171600143ad66740c609477c11114e1dac777f2678458510ffffffff2dc41fc1bdb4383cf27849a8799b14a4eada32f12b3efeb07d7311cacfa42e040100000017160014f09f16863d5e5fc938194a81b76c22093aa8057bffffffff016bb30600000000001976a914f7f5ecfb0ee1cae06f570190c5d9764f1b0d666a88ac02473044022054c0fa61eb0562de17370053b90c5856d0deffd723f4956e832a678ebb82405c022068cae31ad084e69b09ad208fcc89e499784d1ae2037ae0b797321bf422be052b01210361b68bb5d0c0b40f0465d7bc6d80e1624e2d7411d42738f03aba2a4416828c0a0248304502210081fee584575a816235cdbc6b2c7cd5ca99a8ffeff4294723e8b33ac210a705450220504225d43dd53907c35c9ac87fd80dec3abe64e6e1c0bd73fce26d96e48c7a6101210361b68bb5d0c0b40f0465d7bc6d80e1624e2d7411d42738f03aba2a4416828c0a02483045022100d2bedc5a3b5499fbd37038a1935f6cf5b0eb9c4a15676a7026f9f80468c576dd0220483d0faa4ba2e11b1a683355f05c4f826d71387687566dceb218f41d23dde6ef012103695f63744602b7e1f3b9d356b04cb0cadada377f1b73ed5cd70eb052cd3f174d00000000", "vin": [{"txinwitness": ["3044022054c0fa61eb0562de17370053b90c5856d0deffd723f4956e832a678ebb82405c022068cae31ad084e69b09ad208fcc89e499784d1ae2037ae0b797321bf422be052b01", "0361b68bb5d0c0b40f0465d7bc6d80e1624e2d7411d42738f03aba2a4416828c0a"], "sequence": 4294967295, "scriptSig": {"hex": "1600143ad66740c609477c11114e1dac777f2678458510", "asm": "00143ad66740c609477c11114e1dac777f2678458510"}, "vout": 0, "txid": "abe7e009541f35efaae092fa8d6f77d40ba164f95d663c95c8ce1d8fecdf522b"}, {"txinwitness": ["304502210081fee584575a816235cdbc6b2c7cd5ca99a8ffeff4294723e8b33ac210a705450220504225d43dd53907c35c9ac87fd80dec3abe64e6e1c0bd73fce26d96e48c7a6101", "0361b68bb5d0c0b40f0465d7bc6d80e1624e2d7411d42738f03aba2a4416828c0a"], "sequence": 4294967295, "scriptSig": {"hex": "1600143ad66740c609477c11114e1dac777f2678458510", "asm": "00143ad66740c609477c11114e1dac777f2678458510"}, "vout": 1, "txid": "400df3573b22027e38bfa3db6df1be61e3990036d87e3a841b0d6dc912555d3b"}, {"txinwitness": ["3045022100d2bedc5a3b5499fbd37038a1935f6cf5b0eb9c4a15676a7026f9f80468c576dd0220483d0faa4ba2e11b1a683355f05c4f826d71387687566dceb218f41d23dde6ef01", "03695f63744602b7e1f3b9d356b04cb0cadada377f1b73ed5cd70eb052cd3f174d"], "sequence": 4294967295, "scriptSig": {"hex": "160014f09f16863d5e5fc938194a81b76c22093aa8057b", "asm": "0014f09f16863d5e5fc938194a81b76c22093aa8057b"}, "vout": 1, "txid": "042ea4cfca11737db0fe3e2bf132daeaa4149b79a84978f23c38b4bdc11fc42d"}], "txid": "9708ba06f6e33149701b2fed4775419f1ab45e321e47c71eb759248c88e11429", "blocktime": 1537871767, "version": 2, "confirmations": 11495, "time": 1537871767, "locktime": 0, "vsize": 318, "size": 561}