{"hash": "970b520a6e1af28e26f7b6a47a79d9dc8e91b67a3dddd18b945e77d57bcf3c93", "blockhash": "0000000000000000000dcc0f55137456b1a82d3642486a52398922ac4d620174", "vout": [{"scriptPubKey": {"reqSigs": 1, "hex": "a9146a9c8af3236d2d46e250b161a875e891db2edf9387", "addresses": ["3BQj5fFUytqyPF3F12gVvHd7oDUPrLUU1C"], "asm": "OP_HASH160 6a9c8af3236d2d46e250b161a875e891db2edf93 OP_EQUAL", "type": "scripthash"}, "value": 0.00116039, "n": 0}], "hex": "0100000001c02ffbad6fe480c65dc43a5ef7053fa0d15815208af748dfd31645655c52fe67000000006b483045022100e302b9dfc7bed3101339372ae3ad0124234ac4821bb5ba597442bc2914c40ed202202dc3ae3c07d07cc7c337ed8dfe65736d063a70172956725027d975a9780f43e0012103d755ee5f1a96d13d37dd8f3557390cdfce1144827518ac9cdd54618c511437e1ffffffff0147c501000000000017a9146a9c8af3236d2d46e250b161a875e891db2edf938700000000", "vin": [{"sequence": 4294967295, "scriptSig": {"hex": "483045022100e302b9dfc7bed3101339372ae3ad0124234ac4821bb5ba597442bc2914c40ed202202dc3ae3c07d07cc7c337ed8dfe65736d063a70172956725027d975a9780f43e0012103d755ee5f1a96d13d37dd8f3557390cdfce1144827518ac9cdd54618c511437e1", "asm": "3045022100e302b9dfc7bed3101339372ae3ad0124234ac4821bb5ba597442bc2914c40ed202202dc3ae3c07d07cc7c337ed8dfe65736d063a70172956725027d975a9780f43e0[ALL] 03d755ee5f1a96d13d37dd8f3557390cdfce1144827518ac9cdd54618c511437e1"}, "vout": 0, "txid": "67fe525c654516d3df48f78a201558d1a03f05f75e3ac45dc680e46fadfb2fc0"}], "txid": "970b520a6e1af28e26f7b6a47a79d9dc8e91b67a3dddd18b945e77d57bcf3c93", "blocktime": 1537870268, "version": 1, "confirmations": 11518, "time": 1537870268, "locktime": 0, "vsize": 190, "size": 190}