{"hash": "c72fc52b4fe0930912747e728ca53deed888ba2fd18f2ea3c31a90714477348a", "blockhash": "0000000000000000001f76057863aec43deb6fa401d9628bb513d65a8098bfab", "vout": [{"scriptPubKey": {"reqSigs": 1, "hex": "a914e141fbb8d74d5b69f8024f767944ca9072e98eef87", "addresses": ["3NE51JdxLVpdpQi8Jxh2j48yxEEz4vFMTs"], "asm": "OP_HASH160 e141fbb8d74d5b69f8024f767944ca9072e98eef OP_EQUAL", "type": "scripthash"}, "value": 0.01057221, "n": 0}, {"scriptPubKey": {"reqSigs": 1, "hex": "76a91425a24a98583266e4df248c1f7cd3e819ad22fce288ac", "addresses": ["14RzRJTWxJpaUC7yfBkjSCY6JyQ2pVERQJ"], "asm": "OP_DUP OP_HASH160 25a24a98583266e4df248c1f7cd3e819ad22fce2 OP_EQUALVERIFY OP_CHECKSIG", "type": "pubkeyhash"}, "value": 0.002982, "n": 1}], "hex": "020000000001024c82a7a0f5e781f9c6d9bf23d8c12fa34387dceacc5c8718763fd81ed4f4bafd000000001716001467a33d82210881ccfbb2e8eb06e70dba8dbbc3c3feffffffc80b1f073cec47290660755c4413b02f6c8c6a3f72bb3cfe4bac9d25b4c034ce01000000171600140a39bc529e1ad5a0e101e530fdda3aff7107308dfeffffff02c52110000000000017a914e141fbb8d74d5b69f8024f767944ca9072e98eef87d88c0400000000001976a91425a24a98583266e4df248c1f7cd3e819ad22fce288ac0247304402200be6ced9d9cc05e00a5675c99faef4f046ce18bb929b768d12c160e2085eaded022020367e88d7d55100c5abc0d2bb8cfc7ef490909f7bc7484afb448757cbba6d4c012103a86f226cf2dd63dec6c91ab7bf9e90d3c8bbd66e8cb452f0d15b56049798f7a4024730440220236fc0ea4f32f718642c90e275d0d43eae8870a8854d4538e2faa3c17392e742022057c253c3d4a2002be3c4ed725b2dc94251567a7bce576b179370cb926f2fc389012102b43bf577d0bb87850fae8a4818b61078e4d9c8cef507cfeba695bd87b1fe0cb114490800", "vin": [{"txinwitness": ["304402200be6ced9d9cc05e00a5675c99faef4f046ce18bb929b768d12c160e2085eaded022020367e88d7d55100c5abc0d2bb8cfc7ef490909f7bc7484afb448757cbba6d4c01", "03a86f226cf2dd63dec6c91ab7bf9e90d3c8bbd66e8cb452f0d15b56049798f7a4"], "sequence": 4294967294, "scriptSig": {"hex": "16001467a33d82210881ccfbb2e8eb06e70dba8dbbc3c3", "asm": "001467a33d82210881ccfbb2e8eb06e70dba8dbbc3c3"}, "vout": 0, "txid": "fdbaf4d41ed83f7618875ccceadc8743a32fc1d823bfd9c6f981e7f5a0a7824c"}, {"txinwitness": ["30440220236fc0ea4f32f718642c90e275d0d43eae8870a8854d4538e2faa3c17392e742022057c253c3d4a2002be3c4ed725b2dc94251567a7bce576b179370cb926f2fc38901", "02b43bf577d0bb87850fae8a4818b61078e4d9c8cef507cfeba695bd87b1fe0cb1"], "sequence": 4294967294, "scriptSig": {"hex": "1600140a39bc529e1ad5a0e101e530fdda3aff7107308d", "asm": "00140a39bc529e1ad5a0e101e530fdda3aff7107308d"}, "vout": 1, "txid": "ce34c0b4259dac4bfe3cbb723f6a8c6c2fb013445c7560062947ec3c071f0bc8"}], "txid": "97151edcb8bd1e271fad6a2ae5494d5ecdf7b1dd7bd4be3b36a6d6cf5f98bb91", "blocktime": 1537873891, "version": 2, "confirmations": 11478, "time": 1537873891, "locktime": 542996, "vsize": 258, "size": 420}