{"hash": "972736007044a04caa66c86a21b560a701a9d672f028c54c657aa00262d426dc", "blockhash": "0000000000000000001e0dab787dd257d1dbfcb92a98c2207d5e1078be1f4165", "vout": [{"scriptPubKey": {"reqSigs": 1, "hex": "a9148003269bdfae3b2e95c6ea83e66892dc5efd9c9587", "addresses": ["3DMtC29UYNhqcKJjr257F7c7HZcWrnGzL2"], "asm": "OP_HASH160 8003269bdfae3b2e95c6ea83e66892dc5efd9c95 OP_EQUAL", "type": "scripthash"}, "value": 0.00223853, "n": 0}], "hex": "010000000127575ea00251340b9318534af33098de1dc1649412971c9f886b68e8adce737c000000006b483045022100ef37a5761a109fbbc319badb77582e2f0d99fb4811adecfbc5d2bd3ad5d89d7a022008f76959e45450206bd1788a20be5b520371479d09dea4fb0ded6a9aeb2aae0a0121035ae0a1229204ff58da389a16ce73dcc6054fd7c2f4c0fed7043e8eeb8b5d0099ffffffff016d6a03000000000017a9148003269bdfae3b2e95c6ea83e66892dc5efd9c958700000000", "vin": [{"sequence": 4294967295, "scriptSig": {"hex": "483045022100ef37a5761a109fbbc319badb77582e2f0d99fb4811adecfbc5d2bd3ad5d89d7a022008f76959e45450206bd1788a20be5b520371479d09dea4fb0ded6a9aeb2aae0a0121035ae0a1229204ff58da389a16ce73dcc6054fd7c2f4c0fed7043e8eeb8b5d0099", "asm": "3045022100ef37a5761a109fbbc319badb77582e2f0d99fb4811adecfbc5d2bd3ad5d89d7a022008f76959e45450206bd1788a20be5b520371479d09dea4fb0ded6a9aeb2aae0a[ALL] 035ae0a1229204ff58da389a16ce73dcc6054fd7c2f4c0fed7043e8eeb8b5d0099"}, "vout": 0, "txid": "7c73ceade8686b889f1c97129464c11dde9830f34a5318930b345102a05e5727"}], "txid": "972736007044a04caa66c86a21b560a701a9d672f028c54c657aa00262d426dc", "blocktime": 1537872475, "version": 1, "confirmations": 11487, "time": 1537872475, "locktime": 0, "vsize": 190, "size": 190}