{"hash": "a96f7231308871eecada8d0bd6fa1e5f6bdb6190b4009d844d9dae138121a2c8", "blockhash": "0000000000000000001cda96e906b7601b7a6fb1a3b62bca570a9e5d8f4b3de1", "vout": [{"scriptPubKey": {"reqSigs": 1, "hex": "76a914b1714545e7e250995495594872500fbf1ffcc01788ac", "addresses": ["1HBEJ8ikm5WW3Y7qMe4UVe643XX2nhJyGM"], "asm": "OP_DUP OP_HASH160 b1714545e7e250995495594872500fbf1ffcc017 OP_EQUALVERIFY OP_CHECKSIG", "type": "pubkeyhash"}, "value": 0.0122229, "n": 0}, {"scriptPubKey": {"reqSigs": 1, "hex": "a914a16568488502369527b49fc00c5315980bca0d0b87", "addresses": ["3GQQCLPZJHyZsTndapfpdaTieF2fDJ5m98"], "asm": "OP_HASH160 a16568488502369527b49fc00c5315980bca0d0b OP_EQUAL", "type": "scripthash"}, "value": 0.02000662, "n": 1}], "hex": "0200000000010291c2e9c240fad1394882d4a2ca809721b700c96b4d103e44acc165db3e54303c010000001716001435cac2947fdf91ae684cfe1fc162a30d71e3dc6ffeffffffa0eb18a79b51b2d03cd7b5435cb424ccc84626348f9f9bd1582017369933b72b0100000017160014b6649b3ab4bdda8f1871c074fd5bea2aa31ef7eefeffffff0292a61200000000001976a914b1714545e7e250995495594872500fbf1ffcc01788ac16871e000000000017a914a16568488502369527b49fc00c5315980bca0d0b8702483045022100caf06b07da62b1151a5eb7e5e68921b0972cc054f7ba99649a2348bb18aa2f980220155fbf24c3567429275bdaa0cee82fa48910c588c4b789aa2ef152e333019546012103aecb01cb986b4520970ce188f10e8c587933bad4bbc7cf34788d40782fd227300247304402202571f2d8bd39d5bdd83b90cfab5334dbd04d07bd9b004c83c1c9138d4712397102201ef1c5d1e8f53caa519f677ad551dabfcc6feaeb53999dbd1faa93e80be0b0640121021d91bfb99c3ca1b7c42e5027fcb86663bb7c5bc8fc65bbd273025a9e957c4b3413490800", "vin": [{"txinwitness": ["3045022100caf06b07da62b1151a5eb7e5e68921b0972cc054f7ba99649a2348bb18aa2f980220155fbf24c3567429275bdaa0cee82fa48910c588c4b789aa2ef152e33301954601", "03aecb01cb986b4520970ce188f10e8c587933bad4bbc7cf34788d40782fd22730"], "sequence": 4294967294, "scriptSig": {"hex": "16001435cac2947fdf91ae684cfe1fc162a30d71e3dc6f", "asm": "001435cac2947fdf91ae684cfe1fc162a30d71e3dc6f"}, "vout": 1, "txid": "3c30543edb65c1ac443e104d6bc900b7219780caa2d4824839d1fa40c2e9c291"}, {"txinwitness": ["304402202571f2d8bd39d5bdd83b90cfab5334dbd04d07bd9b004c83c1c9138d4712397102201ef1c5d1e8f53caa519f677ad551dabfcc6feaeb53999dbd1faa93e80be0b06401", "021d91bfb99c3ca1b7c42e5027fcb86663bb7c5bc8fc65bbd273025a9e957c4b34"], "sequence": 4294967294, "scriptSig": {"hex": "160014b6649b3ab4bdda8f1871c074fd5bea2aa31ef7ee", "asm": "0014b6649b3ab4bdda8f1871c074fd5bea2aa31ef7ee"}, "vout": 1, "txid": "2bb7339936172058d19b9f8f342646c8cc24b45c43b5d73cd0b2519ba718eba0"}], "txid": "972e7f484b2f85635ffb54d68e2a14f506de4b4ec6e860decbcc4e8876681246", "blocktime": 1537873282, "version": 2, "confirmations": 11484, "time": 1537873282, "locktime": 542995, "vsize": 259, "size": 421}