{"hash": "972f77fec21876cfd803a6a18376c35acecc3ea02ee17fd460eb782e6494be78", "blockhash": "0000000000000000001f0ddff1eddb255c1121bcd4da4f1bc9a0da00cae72433", "vout": [{"scriptPubKey": {"reqSigs": 1, "hex": "76a914ce74e4f28106606bf5529453dc11c7d9ea0823df88ac", "addresses": ["1KpeEUgDxuWQxigkHpPYtKXhgP7cszwJRP"], "asm": "OP_DUP OP_HASH160 ce74e4f28106606bf5529453dc11c7d9ea0823df OP_EQUALVERIFY OP_CHECKSIG", "type": "pubkeyhash"}, "value": 0.17665053, "n": 0}], "hex": "010000000e83f85ae0776ece4887dc12071c6f0152ba9370308d32b0f201ce9f6213963b58010000006b483045022100beebad96bd51ade3e49e1b3834666d6e0fe4ae2cb42bb6ca4ee95bb0007f53e9022045c2af26e1b045d1987fc42c85c1aea42296a36edeb487864910d7769778ef7501210311312e5073896017b4e30481923c189acad0c70cec0dd0a6d326c3be085d208dffffffff023fc9aa17a6a3bdfc3c09b67cb6393fa38d88ed28500f317b6df94534214b5c000000006a47304402206dbd3d5d8b4aa1480879fc6f0b7fcfb25c54556dd4da1b6deb8f44e93380e38c02206d19d3c2ee074e73e8a8393b6e119852b71931bf0831833786bdb29cf3d8ce6901210225984012c7f6d72540927fbd2a0a23598d3dcc9e01c7f440e640a778c6770278ffffffff6c92c292a99fa417d5ac3b872642a4030e5c788cc86d5928d940ba063ed09950000000006b483045022100a17eba19967bfa07910661c4d9ec6c6e2fd339f3acc7632aed9e4822c444239902203dbf4a2e652fc63f84ab2e44c7287e374d87954ffb378a456eb3e7c140603f0c01210311312e5073896017b4e30481923c189acad0c70cec0dd0a6d326c3be085d208dffffffff27f11b7f5e70da87c08dfb87ce9c138b11b91670b76ed68773868275abab84baba0000006b483045022100a31e5022c620f377fb7c35defbe8b1d7c1f238e5c9b216489fdea91295616f8202207e6b0a88252def51d85ee0c5b30ff1eb37d2b1ac35ca879d8eb65265d401c4d3012102935322c668539e370d893e2205b3856b468bafcf9f4f117a2c275dff7cefea3fffffffff42129e4a847e2d3c26db5f3023566d5d6413324f2c6239126ca6d3b6a4a21647000000006b483045022100ed489adc80542758ff735aeaee62afdc9590b78c73b5c1ba1f87c102e4a0304c02207eaed539f8c988c03cba82ba1145f3f79189df40ca8913b5cc93f9221b48214201210311312e5073896017b4e30481923c189acad0c70cec0dd0a6d326c3be085d208dffffffffaa934389a537d70d795514f4fd0c17c00e035dd9b4752fa767512b71cf2dae04000000006b483045022100898f794dca6748820d4ae7ae973ab9495ae1c607d725008f2bcd32eda919e34e022019368878438463a96699be2b5e7ffdc4f51be97db9f0a9082e431049433a099601210311312e5073896017b4e30481923c189acad0c70cec0dd0a6d326c3be085d208dffffffffa22ae80aa8a960f7d431b5696fe0d5c6cefc61dd7445597664f8af3f4fdae4b8000000006b483045022100a5213208a28acca5bda748ab81059f852ef9666094e223c13e63c3627aaf6200022031650ef1452206eb74208621767adef45ac441aa0ee3228319dee84f6aca4d0c012102728175c9e8e014610cc121697372e8db056c9f5b9c0e9d1c2bfbc847b357b3c4ffffffffc32623289397a72e9e67d9e233a13eae545cede3704043a417ade7e2df040f49000000006b483045022100af6ce21823ebfe8ee6cef781984326669dd21fee7222c5c5d85f860f666579930220392d53aebbde1027e16cdd5d9a36b674bcf5853a92c7bf076aa6ca91fca97378012102aba37ab57f90db5ddd02edae6fd2539f1cf3c6930295e25e89a2de2e919221fcffffffffa67d30be16ddd55cf2bb42df6e0aefa7b80c5ba9ed65c6c610f3992810c29424000000006a473044022048f9a4034fa9686946fbba58694a6800e5356c4cb05242cbf2df4981ac69f43d0220265614d29d4b22124bf3c79f211a85976ba015c23c648516c839482017f96e440121035be103f59aea809c0fc5d1fe3e1bfe94f4a5903f91cd4f92515352e89f858c0affffffff231af56f1db80e07a5d31680f44ace42e6d19f137b0b7e7044d4414289119604790000006b483045022100ae64a176c352943fa69766a28945781e51d981fabeaa0101bafa29e7c81aad3402202f43a12426f6436d2d3600f9b4a55310102fd22e1fc9425bddbe8526989573c3012102a14181bf9fbf95c5b985179ae6833032fc3b26596000f299e1a015f56ae210d9ffffffff28c2dcd2a3be9ef02b3cfd59036ec850155e2de7adf11d68324c587f200c8069010000006b483045022100fca8aee36f01c637a3648ad978b9d167eff0a3607dc83c00246312ee9ff49d500220220cadf017e9d1ce85c2d6591f2661cdca687e7819942663a2bf32f929e13c0c01210311312e5073896017b4e30481923c189acad0c70cec0dd0a6d326c3be085d208dffffffff4a50fe58d5480b67ab75ff25f1b3b65e2167ebce4c749f46914f25084c158e98010000006b483045022100ebf837f7f3b67cbc473363b0137f2587b9ea0141559c72e818a0582e3e90e29302207ab67dcf8a92533685caa8c416dd680760fb66dcd777eaadf29bfe41aa49ec9e01210225984012c7f6d72540927fbd2a0a23598d3dcc9e01c7f440e640a778c6770278ffffffff64011dd7a60e5652b19a3437fc124c54a3d534f372b290dc947b3150b804c0ab010000006a473044022026a271164e2a938f47db051ba9f92d8cc7f437f7fb16198b64c2c852bbfb851202205f6534f2d29ece9562695ba4f5ceb19b33fac9150abe5058d9857b36330448bc0121033417aa5732c4eeb4d1112e4caebfd294f32de72c767467548708f43f3c233122ffffffff0c69c099a09856f8a7ae45fe602dfe87687259c3c1f7203d5c8632734eff6ceb000000006b483045022100f31c1fc2ebb50aedd21eeba99100012de4b29c293f9ca24517113b021ae4e89e02200959a6a09cde61e7830f146d8342bca1639332ac86c36374e370019d24656d3201210396dcefdc131d08e511ee534edcda1cd14b36edcbfeec30ba21651d0d9e1f7530ffffffff011d8c0d01000000001976a914ce74e4f28106606bf5529453dc11c7d9ea0823df88ac00000000", "vin": [{"sequence": 4294967295, "scriptSig": {"hex": "483045022100beebad96bd51ade3e49e1b3834666d6e0fe4ae2cb42bb6ca4ee95bb0007f53e9022045c2af26e1b045d1987fc42c85c1aea42296a36edeb487864910d7769778ef7501210311312e5073896017b4e30481923c189acad0c70cec0dd0a6d326c3be085d208d", "asm": "3045022100beebad96bd51ade3e49e1b3834666d6e0fe4ae2cb42bb6ca4ee95bb0007f53e9022045c2af26e1b045d1987fc42c85c1aea42296a36edeb487864910d7769778ef75[ALL] 0311312e5073896017b4e30481923c189acad0c70cec0dd0a6d326c3be085d208d"}, "vout": 1, "txid": "583b9613629fce01f2b0328d307093ba52016f1c0712dc8748ce6e77e05af883"}, {"sequence": 4294967295, "scriptSig": {"hex": "47304402206dbd3d5d8b4aa1480879fc6f0b7fcfb25c54556dd4da1b6deb8f44e93380e38c02206d19d3c2ee074e73e8a8393b6e119852b71931bf0831833786bdb29cf3d8ce6901210225984012c7f6d72540927fbd2a0a23598d3dcc9e01c7f440e640a778c6770278", "asm": "304402206dbd3d5d8b4aa1480879fc6f0b7fcfb25c54556dd4da1b6deb8f44e93380e38c02206d19d3c2ee074e73e8a8393b6e119852b71931bf0831833786bdb29cf3d8ce69[ALL] 0225984012c7f6d72540927fbd2a0a23598d3dcc9e01c7f440e640a778c6770278"}, "vout": 0, "txid": "5c4b213445f96d7b310f5028ed888da33f39b67cb6093cfcbda3a617aac93f02"}, {"sequence": 4294967295, "scriptSig": {"hex": "483045022100a17eba19967bfa07910661c4d9ec6c6e2fd339f3acc7632aed9e4822c444239902203dbf4a2e652fc63f84ab2e44c7287e374d87954ffb378a456eb3e7c140603f0c01210311312e5073896017b4e30481923c189acad0c70cec0dd0a6d326c3be085d208d", "asm": "3045022100a17eba19967bfa07910661c4d9ec6c6e2fd339f3acc7632aed9e4822c444239902203dbf4a2e652fc63f84ab2e44c7287e374d87954ffb378a456eb3e7c140603f0c[ALL] 0311312e5073896017b4e30481923c189acad0c70cec0dd0a6d326c3be085d208d"}, "vout": 0, "txid": "5099d03e06ba40d928596dc88c785c0e03a44226873bacd517a49fa992c2926c"}, {"sequence": 4294967295, "scriptSig": {"hex": "483045022100a31e5022c620f377fb7c35defbe8b1d7c1f238e5c9b216489fdea91295616f8202207e6b0a88252def51d85ee0c5b30ff1eb37d2b1ac35ca879d8eb65265d401c4d3012102935322c668539e370d893e2205b3856b468bafcf9f4f117a2c275dff7cefea3f", "asm": "3045022100a31e5022c620f377fb7c35defbe8b1d7c1f238e5c9b216489fdea91295616f8202207e6b0a88252def51d85ee0c5b30ff1eb37d2b1ac35ca879d8eb65265d401c4d3[ALL] 02935322c668539e370d893e2205b3856b468bafcf9f4f117a2c275dff7cefea3f"}, "vout": 186, "txid": "ba84abab7582867387d66eb77016b9118b139cce87fb8dc087da705e7f1bf127"}, {"sequence": 4294967295, "scriptSig": {"hex": "483045022100ed489adc80542758ff735aeaee62afdc9590b78c73b5c1ba1f87c102e4a0304c02207eaed539f8c988c03cba82ba1145f3f79189df40ca8913b5cc93f9221b48214201210311312e5073896017b4e30481923c189acad0c70cec0dd0a6d326c3be085d208d", "asm": "3045022100ed489adc80542758ff735aeaee62afdc9590b78c73b5c1ba1f87c102e4a0304c02207eaed539f8c988c03cba82ba1145f3f79189df40ca8913b5cc93f9221b482142[ALL] 0311312e5073896017b4e30481923c189acad0c70cec0dd0a6d326c3be085d208d"}, "vout": 0, "txid": "4716a2a4b6d3a66c1239622c4f3213645d6d5623305fdb263c2d7e844a9e1242"}, {"sequence": 4294967295, "scriptSig": {"hex": "483045022100898f794dca6748820d4ae7ae973ab9495ae1c607d725008f2bcd32eda919e34e022019368878438463a96699be2b5e7ffdc4f51be97db9f0a9082e431049433a099601210311312e5073896017b4e30481923c189acad0c70cec0dd0a6d326c3be085d208d", "asm": "3045022100898f794dca6748820d4ae7ae973ab9495ae1c607d725008f2bcd32eda919e34e022019368878438463a96699be2b5e7ffdc4f51be97db9f0a9082e431049433a0996[ALL] 0311312e5073896017b4e30481923c189acad0c70cec0dd0a6d326c3be085d208d"}, "vout": 0, "txid": "04ae2dcf712b5167a72f75b4d95d030ec0170cfdf41455790dd737a5894393aa"}, {"sequence": 4294967295, "scriptSig": {"hex": "483045022100a5213208a28acca5bda748ab81059f852ef9666094e223c13e63c3627aaf6200022031650ef1452206eb74208621767adef45ac441aa0ee3228319dee84f6aca4d0c012102728175c9e8e014610cc121697372e8db056c9f5b9c0e9d1c2bfbc847b357b3c4", "asm": "3045022100a5213208a28acca5bda748ab81059f852ef9666094e223c13e63c3627aaf6200022031650ef1452206eb74208621767adef45ac441aa0ee3228319dee84f6aca4d0c[ALL] 02728175c9e8e014610cc121697372e8db056c9f5b9c0e9d1c2bfbc847b357b3c4"}, "vout": 0, "txid": "b8e4da4f3faff86476594574dd61fccec6d5e06f69b531d4f760a9a80ae82aa2"}, {"sequence": 4294967295, "scriptSig": {"hex": "483045022100af6ce21823ebfe8ee6cef781984326669dd21fee7222c5c5d85f860f666579930220392d53aebbde1027e16cdd5d9a36b674bcf5853a92c7bf076aa6ca91fca97378012102aba37ab57f90db5ddd02edae6fd2539f1cf3c6930295e25e89a2de2e919221fc", "asm": "3045022100af6ce21823ebfe8ee6cef781984326669dd21fee7222c5c5d85f860f666579930220392d53aebbde1027e16cdd5d9a36b674bcf5853a92c7bf076aa6ca91fca97378[ALL] 02aba37ab57f90db5ddd02edae6fd2539f1cf3c6930295e25e89a2de2e919221fc"}, "vout": 0, "txid": "490f04dfe2e7ad17a4434070e3ed5c54ae3ea133e2d9679e2ea79793282326c3"}, {"sequence": 4294967295, "scriptSig": {"hex": "473044022048f9a4034fa9686946fbba58694a6800e5356c4cb05242cbf2df4981ac69f43d0220265614d29d4b22124bf3c79f211a85976ba015c23c648516c839482017f96e440121035be103f59aea809c0fc5d1fe3e1bfe94f4a5903f91cd4f92515352e89f858c0a", "asm": "3044022048f9a4034fa9686946fbba58694a6800e5356c4cb05242cbf2df4981ac69f43d0220265614d29d4b22124bf3c79f211a85976ba015c23c648516c839482017f96e44[ALL] 035be103f59aea809c0fc5d1fe3e1bfe94f4a5903f91cd4f92515352e89f858c0a"}, "vout": 0, "txid": "2494c2102899f310c6c665eda95b0cb8a7ef0a6edf42bbf25cd5dd16be307da6"}, {"sequence": 4294967295, "scriptSig": {"hex": "483045022100ae64a176c352943fa69766a28945781e51d981fabeaa0101bafa29e7c81aad3402202f43a12426f6436d2d3600f9b4a55310102fd22e1fc9425bddbe8526989573c3012102a14181bf9fbf95c5b985179ae6833032fc3b26596000f299e1a015f56ae210d9", "asm": "3045022100ae64a176c352943fa69766a28945781e51d981fabeaa0101bafa29e7c81aad3402202f43a12426f6436d2d3600f9b4a55310102fd22e1fc9425bddbe8526989573c3[ALL] 02a14181bf9fbf95c5b985179ae6833032fc3b26596000f299e1a015f56ae210d9"}, "vout": 121, "txid": "049611894241d444707e0b7b139fd1e642ce4af48016d3a5070eb81d6ff51a23"}, {"sequence": 4294967295, "scriptSig": {"hex": "483045022100fca8aee36f01c637a3648ad978b9d167eff0a3607dc83c00246312ee9ff49d500220220cadf017e9d1ce85c2d6591f2661cdca687e7819942663a2bf32f929e13c0c01210311312e5073896017b4e30481923c189acad0c70cec0dd0a6d326c3be085d208d", "asm": "3045022100fca8aee36f01c637a3648ad978b9d167eff0a3607dc83c00246312ee9ff49d500220220cadf017e9d1ce85c2d6591f2661cdca687e7819942663a2bf32f929e13c0c[ALL] 0311312e5073896017b4e30481923c189acad0c70cec0dd0a6d326c3be085d208d"}, "vout": 1, "txid": "69800c207f584c32681df1ade72d5e1550c86e0359fd3c2bf09ebea3d2dcc228"}, {"sequence": 4294967295, "scriptSig": {"hex": "483045022100ebf837f7f3b67cbc473363b0137f2587b9ea0141559c72e818a0582e3e90e29302207ab67dcf8a92533685caa8c416dd680760fb66dcd777eaadf29bfe41aa49ec9e01210225984012c7f6d72540927fbd2a0a23598d3dcc9e01c7f440e640a778c6770278", "asm": "3045022100ebf837f7f3b67cbc473363b0137f2587b9ea0141559c72e818a0582e3e90e29302207ab67dcf8a92533685caa8c416dd680760fb66dcd777eaadf29bfe41aa49ec9e[ALL] 0225984012c7f6d72540927fbd2a0a23598d3dcc9e01c7f440e640a778c6770278"}, "vout": 1, "txid": "988e154c08254f91469f744cceeb67215eb6b3f125ff75ab670b48d558fe504a"}, {"sequence": 4294967295, "scriptSig": {"hex": "473044022026a271164e2a938f47db051ba9f92d8cc7f437f7fb16198b64c2c852bbfb851202205f6534f2d29ece9562695ba4f5ceb19b33fac9150abe5058d9857b36330448bc0121033417aa5732c4eeb4d1112e4caebfd294f32de72c767467548708f43f3c233122", "asm": "3044022026a271164e2a938f47db051ba9f92d8cc7f437f7fb16198b64c2c852bbfb851202205f6534f2d29ece9562695ba4f5ceb19b33fac9150abe5058d9857b36330448bc[ALL] 033417aa5732c4eeb4d1112e4caebfd294f32de72c767467548708f43f3c233122"}, "vout": 1, "txid": "abc004b850317b94dc90b272f334d5a3544c12fc37349ab152560ea6d71d0164"}, {"sequence": 4294967295, "scriptSig": {"hex": "483045022100f31c1fc2ebb50aedd21eeba99100012de4b29c293f9ca24517113b021ae4e89e02200959a6a09cde61e7830f146d8342bca1639332ac86c36374e370019d24656d3201210396dcefdc131d08e511ee534edcda1cd14b36edcbfeec30ba21651d0d9e1f7530", "asm": "3045022100f31c1fc2ebb50aedd21eeba99100012de4b29c293f9ca24517113b021ae4e89e02200959a6a09cde61e7830f146d8342bca1639332ac86c36374e370019d24656d32[ALL] 0396dcefdc131d08e511ee534edcda1cd14b36edcbfeec30ba21651d0d9e1f7530"}, "vout": 0, "txid": "eb6cff4e7332865c3d20f7c1c359726887fe2d60fe45aea7f85698a099c0690c"}], "txid": "972f77fec21876cfd803a6a18376c35acecc3ea02ee17fd460eb782e6494be78", "blocktime": 1537872018, "version": 1, "confirmations": 11489, "time": 1537872018, "locktime": 0, "vsize": 2113, "size": 2113}