{"hash": "9733c011e3d88f0cc3fe9b85903eb5ae88bbd095364df3bda1cf78bede116138", "blockhash": "0000000000000000001e0dab787dd257d1dbfcb92a98c2207d5e1078be1f4165", "vout": [{"scriptPubKey": {"reqSigs": 1, "hex": "76a9142850b069b93730181591323bc31f17b0752a1f1488ac", "addresses": ["14gAh3xs7jWznkNNwKscVzk13BoSCKdEar"], "asm": "OP_DUP OP_HASH160 2850b069b93730181591323bc31f17b0752a1f14 OP_EQUALVERIFY OP_CHECKSIG", "type": "pubkeyhash"}, "value": 0.0002497, "n": 0}, {"scriptPubKey": {"reqSigs": 1, "hex": "76a914bfefe41d03798d88bee5515dcc35d602cc17d71c88ac", "addresses": ["1JVsSZfcgjbxoJ6cA3jQHrmfFLBz2p5wKy"], "asm": "OP_DUP OP_HASH160 bfefe41d03798d88bee5515dcc35d602cc17d71c OP_EQUALVERIFY OP_CHECKSIG", "type": "pubkeyhash"}, "value": 0.00765444, "n": 1}], "hex": "0100000001fb8d4dc9b4cc8fd09025efa0abd44bf06e8960607995ad7d10e967fe7656b6de010000006a47304402201df49432976e40dddeaa122c56b3256060320d97aeb5fa705f8ef2e6ce03d403022022841f35369607e2bd797c3e6275225248b12f81e8b6af4ad02289cfba07d7ac012103e1780e03bcf5e5abbc7755eb08a36ac04a16f4fc63a95f180f974f23b6fc34f4ffffffff028a610000000000001976a9142850b069b93730181591323bc31f17b0752a1f1488ac04ae0b00000000001976a914bfefe41d03798d88bee5515dcc35d602cc17d71c88ac00000000", "vin": [{"sequence": 4294967295, "scriptSig": {"hex": "47304402201df49432976e40dddeaa122c56b3256060320d97aeb5fa705f8ef2e6ce03d403022022841f35369607e2bd797c3e6275225248b12f81e8b6af4ad02289cfba07d7ac012103e1780e03bcf5e5abbc7755eb08a36ac04a16f4fc63a95f180f974f23b6fc34f4", "asm": "304402201df49432976e40dddeaa122c56b3256060320d97aeb5fa705f8ef2e6ce03d403022022841f35369607e2bd797c3e6275225248b12f81e8b6af4ad02289cfba07d7ac[ALL] 03e1780e03bcf5e5abbc7755eb08a36ac04a16f4fc63a95f180f974f23b6fc34f4"}, "vout": 1, "txid": "deb65676fe67e9107dad95796060896ef04bd4aba0ef2590d08fccb4c94d8dfb"}], "txid": "9733c011e3d88f0cc3fe9b85903eb5ae88bbd095364df3bda1cf78bede116138", "blocktime": 1537872475, "version": 1, "confirmations": 11487, "time": 1537872475, "locktime": 0, "vsize": 225, "size": 225}