{"hash": "973329bc2801681d3c942f66363b8d6becae3d1c7c5d7c633c4b81192b086358", "blockhash": "0000000000000000000e13cef7c366c0283d82e591d1acd082e914b08063cdf1", "vout": [{"scriptPubKey": {"reqSigs": 1, "hex": "76a914297fa563cdca8560c55b2098401082b25b62859d88ac", "addresses": ["14nRcsNCvmDbeKKaPQPJMLbGgZWdKWcVBq"], "asm": "OP_DUP OP_HASH160 297fa563cdca8560c55b2098401082b25b62859d OP_EQUALVERIFY OP_CHECKSIG", "type": "pubkeyhash"}, "value": 0.30794671, "n": 0}, {"scriptPubKey": {"reqSigs": 1, "hex": "76a914fc35045e8158fa3e969f894fd9bc69385349d69588ac", "addresses": ["1PzYo2qWoKLPMXqbivU55Ei6q6o9kGEvQu"], "asm": "OP_DUP OP_HASH160 fc35045e8158fa3e969f894fd9bc69385349d695 OP_EQUALVERIFY OP_CHECKSIG", "type": "pubkeyhash"}, "value": 8.856e-05, "n": 1}], "hex": "010000000298b12a4d3202344b68a03dfa40286b3fcb3a19ce8c4b5b6d9500748fd5be7637000000006b4830450221008e47e5a68a7de1a1b13437a1fa3683194e711f6f65eeecbaea9f98a6042d7ed102202934a177f122b5b4e468d2a0f0fe2ad25fabe6cae064482567203f8f2efda2910121035c74e68250c92c061b39b457d3eeb5363ddc25cf8ecf6a1ffa8b61baa701e478ffffffff4897e749142a436a1517887cffc153e4ca444135f05381a6af00d82274739f08020000006b483045022100be65cdd0e16166cd0ef787ea80ffd577fa18e68f45c2b41ec33411749541212202206705a2a8614b1a41315af3ff2f86962f4d3596b1d145bdcfbe628239f5c32d82012103cb5069e93576fa5e3a76919658fb715a8252f8fe1d19c40274a645a9d162058dffffffff02afe3d501000000001976a914297fa563cdca8560c55b2098401082b25b62859d88ac98220000000000001976a914fc35045e8158fa3e969f894fd9bc69385349d69588ac00000000", "vin": [{"sequence": 4294967295, "scriptSig": {"hex": "4830450221008e47e5a68a7de1a1b13437a1fa3683194e711f6f65eeecbaea9f98a6042d7ed102202934a177f122b5b4e468d2a0f0fe2ad25fabe6cae064482567203f8f2efda2910121035c74e68250c92c061b39b457d3eeb5363ddc25cf8ecf6a1ffa8b61baa701e478", "asm": "30450221008e47e5a68a7de1a1b13437a1fa3683194e711f6f65eeecbaea9f98a6042d7ed102202934a177f122b5b4e468d2a0f0fe2ad25fabe6cae064482567203f8f2efda291[ALL] 035c74e68250c92c061b39b457d3eeb5363ddc25cf8ecf6a1ffa8b61baa701e478"}, "vout": 0, "txid": "3776bed58f7400956d5b4b8cce193acb3f6b2840fa3da0684b3402324d2ab198"}, {"sequence": 4294967295, "scriptSig": {"hex": "483045022100be65cdd0e16166cd0ef787ea80ffd577fa18e68f45c2b41ec33411749541212202206705a2a8614b1a41315af3ff2f86962f4d3596b1d145bdcfbe628239f5c32d82012103cb5069e93576fa5e3a76919658fb715a8252f8fe1d19c40274a645a9d162058d", "asm": "3045022100be65cdd0e16166cd0ef787ea80ffd577fa18e68f45c2b41ec33411749541212202206705a2a8614b1a41315af3ff2f86962f4d3596b1d145bdcfbe628239f5c32d82[ALL] 03cb5069e93576fa5e3a76919658fb715a8252f8fe1d19c40274a645a9d162058d"}, "vout": 2, "txid": "089f737422d800afa68153f0354144cae453c1ff7c8817156a432a1449e79748"}], "txid": "973329bc2801681d3c942f66363b8d6becae3d1c7c5d7c633c4b81192b086358", "blocktime": 1537871767, "version": 1, "confirmations": 11495, "time": 1537871767, "locktime": 0, "vsize": 374, "size": 374}