{"hash": "97378a356f206f407e5bba27e3d2eeb1c9b06c91b45b1d4563b302e8f76e2ce1", "blockhash": "00000000000000000004ffacab907a6b429b9a5745fa0b75af4234bf69dd7176", "vout": [{"scriptPubKey": {"reqSigs": 1, "hex": "a9143a3bc5ed0322b35cc0346549c202470673e4fc0a87", "addresses": ["36zvinFenhUQ3ZPYKREHP4kqDMyBXv3dxv"], "asm": "OP_HASH160 3a3bc5ed0322b35cc0346549c202470673e4fc0a OP_EQUAL", "type": "scripthash"}, "value": 0.1446, "n": 0}], "hex": "0100000004dcafc8fb874de0c9e22c0b7cfdabb712dc81e34eb8070fb6333656f11e025911000000006a47304402205372238151051068160a79ca6f5a21f7ff5b22933f913e525ac3d207b5721e4c022045963806f732e6dccb23b8dae69e2457ddc667e7da799686e89f4c131cd4ef9e012102760662bf182d103621c6ed9bec6432953b6505b993d56f4b2300cea7317ddc2bffffffff83b42ae060d87e0f76497c6072aadc0a0febd698703fef903e7a121404a3f933000000006b4830450221009c045033585d080dc5985eb30b6750ddda1f96e7d9cb4b0a7fd6b0673a6de64f022072414b0f234d18d5ddd5215bc2f6d9536446c17a1d918b5b2a1d434f140eb969012103ac21340ca2970d3d1fba2957cbaf1d7f0a8b236bc7ab02e0887c8dfc8602dfbeffffffffc934d73316accc37879b9c487dab7975e045c91f313e299df676f0f7392f673d010000006b483045022100a5c1092c3775d29c4ac8841166ef3f9c5f566ea4e355c7553669b399efe16b7002207348307a46d8225e09b87e0a49b06d21266ea43fddc9c8393a784c65896ab755012103537b3d00083c64d3b9b8fd000e41c58c368d20305423e2df12981f1097429ec4ffffffff631bd783e026983764ab291d30471129af15c032029444b9c9732435444ac697000000006b483045022100a7833f4ef952508eec43f952db8d3c18fb22847ff41a0a74274e69ff95e4834f022052b41211a4d5a0f39753212b7b176963ea06dfba7045c7c9e5caf3daf277a62f012102cf26a4a5be279bc59ded4ff0bf4b7474c802f8a06359ae5182fccf718a96e108ffffffff0160a4dc000000000017a9143a3bc5ed0322b35cc0346549c202470673e4fc0a8700000000", "vin": [{"sequence": 4294967295, "scriptSig": {"hex": "47304402205372238151051068160a79ca6f5a21f7ff5b22933f913e525ac3d207b5721e4c022045963806f732e6dccb23b8dae69e2457ddc667e7da799686e89f4c131cd4ef9e012102760662bf182d103621c6ed9bec6432953b6505b993d56f4b2300cea7317ddc2b", "asm": "304402205372238151051068160a79ca6f5a21f7ff5b22933f913e525ac3d207b5721e4c022045963806f732e6dccb23b8dae69e2457ddc667e7da799686e89f4c131cd4ef9e[ALL] 02760662bf182d103621c6ed9bec6432953b6505b993d56f4b2300cea7317ddc2b"}, "vout": 0, "txid": "1159021ef1563633b60f07b84ee381dc12b7abfd7c0b2ce2c9e04d87fbc8afdc"}, {"sequence": 4294967295, "scriptSig": {"hex": "4830450221009c045033585d080dc5985eb30b6750ddda1f96e7d9cb4b0a7fd6b0673a6de64f022072414b0f234d18d5ddd5215bc2f6d9536446c17a1d918b5b2a1d434f140eb969012103ac21340ca2970d3d1fba2957cbaf1d7f0a8b236bc7ab02e0887c8dfc8602dfbe", "asm": "30450221009c045033585d080dc5985eb30b6750ddda1f96e7d9cb4b0a7fd6b0673a6de64f022072414b0f234d18d5ddd5215bc2f6d9536446c17a1d918b5b2a1d434f140eb969[ALL] 03ac21340ca2970d3d1fba2957cbaf1d7f0a8b236bc7ab02e0887c8dfc8602dfbe"}, "vout": 0, "txid": "33f9a30414127a3e90ef3f7098d6eb0f0adcaa72607c49760f7ed860e02ab483"}, {"sequence": 4294967295, "scriptSig": {"hex": "483045022100a5c1092c3775d29c4ac8841166ef3f9c5f566ea4e355c7553669b399efe16b7002207348307a46d8225e09b87e0a49b06d21266ea43fddc9c8393a784c65896ab755012103537b3d00083c64d3b9b8fd000e41c58c368d20305423e2df12981f1097429ec4", "asm": "3045022100a5c1092c3775d29c4ac8841166ef3f9c5f566ea4e355c7553669b399efe16b7002207348307a46d8225e09b87e0a49b06d21266ea43fddc9c8393a784c65896ab755[ALL] 03537b3d00083c64d3b9b8fd000e41c58c368d20305423e2df12981f1097429ec4"}, "vout": 1, "txid": "3d672f39f7f076f69d293e311fc945e07579ab7d489c9b8737ccac1633d734c9"}, {"sequence": 4294967295, "scriptSig": {"hex": "483045022100a7833f4ef952508eec43f952db8d3c18fb22847ff41a0a74274e69ff95e4834f022052b41211a4d5a0f39753212b7b176963ea06dfba7045c7c9e5caf3daf277a62f012102cf26a4a5be279bc59ded4ff0bf4b7474c802f8a06359ae5182fccf718a96e108", "asm": "3045022100a7833f4ef952508eec43f952db8d3c18fb22847ff41a0a74274e69ff95e4834f022052b41211a4d5a0f39753212b7b176963ea06dfba7045c7c9e5caf3daf277a62f[ALL] 02cf26a4a5be279bc59ded4ff0bf4b7474c802f8a06359ae5182fccf718a96e108"}, "vout": 0, "txid": "97c64a44352473c9b944940232c015af291147301d29ab64379826e083d71b63"}], "txid": "97378a356f206f407e5bba27e3d2eeb1c9b06c91b45b1d4563b302e8f76e2ce1", "blocktime": 1537875543, "version": 1, "confirmations": 11464, "time": 1537875543, "locktime": 0, "vsize": 633, "size": 633}