{"hash": "973d1b530efde824d94051e69450a8378d3ea6773c47be40c4e981f4a580dbd2", "blockhash": "0000000000000000001f0ddff1eddb255c1121bcd4da4f1bc9a0da00cae72433", "vout": [{"scriptPubKey": {"reqSigs": 1, "hex": "76a914b2fae6e07ba116311e15c31e4465d0f02db06b3588ac", "addresses": ["1HKMr7YgLQN2eQJmpmWLqEXmywYB15hMoK"], "asm": "OP_DUP OP_HASH160 b2fae6e07ba116311e15c31e4465d0f02db06b35 OP_EQUALVERIFY OP_CHECKSIG", "type": "pubkeyhash"}, "value": 0.007503, "n": 0}, {"scriptPubKey": {"reqSigs": 1, "hex": "76a914aaad3498db2a63bf991f2b3a19b620b0e14901e588ac", "addresses": ["1GZTN8xyu3CbsCCo9ska3PupkM1BQY9Ti6"], "asm": "OP_DUP OP_HASH160 aaad3498db2a63bf991f2b3a19b620b0e14901e5 OP_EQUALVERIFY OP_CHECKSIG", "type": "pubkeyhash"}, "value": 0.01842443, "n": 1}], "hex": "0200000001bdaafda6b4f81aa5e759168268a0c201951f57af6d88da23ebe1d4c492b65211000000006a4730440220601d3f58fa439300111ae4d4d83c07aebc189750a63febc7ee55cb01ba65fb1802206c87013a44a77a29e19fc25330400be34899aac69d6377f7a8f8bcda85a1803c012103a1848c8771b3123cc26a32681df0455f50da6d82126b452f35f981a16346a725feffffff02dc720b00000000001976a914b2fae6e07ba116311e15c31e4465d0f02db06b3588ac0b1d1c00000000001976a914aaad3498db2a63bf991f2b3a19b620b0e14901e588ac11490800", "vin": [{"sequence": 4294967294, "scriptSig": {"hex": "4730440220601d3f58fa439300111ae4d4d83c07aebc189750a63febc7ee55cb01ba65fb1802206c87013a44a77a29e19fc25330400be34899aac69d6377f7a8f8bcda85a1803c012103a1848c8771b3123cc26a32681df0455f50da6d82126b452f35f981a16346a725", "asm": "30440220601d3f58fa439300111ae4d4d83c07aebc189750a63febc7ee55cb01ba65fb1802206c87013a44a77a29e19fc25330400be34899aac69d6377f7a8f8bcda85a1803c[ALL] 03a1848c8771b3123cc26a32681df0455f50da6d82126b452f35f981a16346a725"}, "vout": 0, "txid": "1152b692c4d4e1eb23da886daf571f9501c2a068821659e7a51af8b4a6fdaabd"}], "txid": "973d1b530efde824d94051e69450a8378d3ea6773c47be40c4e981f4a580dbd2", "blocktime": 1537872018, "version": 2, "confirmations": 11489, "time": 1537872018, "locktime": 542993, "vsize": 225, "size": 225}