{"hash": "f1a5772fcdea1a8805ce95e60c546827d61f0b8b4e3206f3386f593a139b342e", "blockhash": "000000000000000000022b45ed06c6f4ccd3cf7fb5ba4856ebd2e58215665228", "vout": [{"scriptPubKey": {"reqSigs": 1, "hex": "a914356d2c9d7648b23cccc5db1e2f19d7f8a3f34fe587", "addresses": ["36ZWXGm9zJwwNBGbdk5AwC3on49ZHsRiYx"], "asm": "OP_HASH160 356d2c9d7648b23cccc5db1e2f19d7f8a3f34fe5 OP_EQUAL", "type": "scripthash"}, "value": 0.202555, "n": 0}, {"scriptPubKey": {"reqSigs": 1, "hex": "a91455dbf8f973513ebdb28eed9194d16a3df641c6c787", "addresses": ["39WzsoxmWzHMSK5FA2k5mj3MfjgXQumDZz"], "asm": "OP_HASH160 55dbf8f973513ebdb28eed9194d16a3df641c6c7 OP_EQUAL", "type": "scripthash"}, "value": 0.103682, "n": 1}], "hex": "01000000000101c8c10bcd43e51ac0b84b85d5216f4497c67014b4b834d17750a7e8275a6c6a6301000000232200203f1c5223111783e9f33ebe3b8c77fae358386a7205fa717357ee85271bfa08cbffffffff020c1335010000000017a914356d2c9d7648b23cccc5db1e2f19d7f8a3f34fe587c8349e000000000017a91455dbf8f973513ebdb28eed9194d16a3df641c6c7870400483045022100dee8ccd657ee214481eb347356b023b101b51d6d12411d6f086c9266db1d8f84022048deb368181023644d39a8bf339295e0ce320285ef98bb6903b6c9581ebfb4580147304402201253d2c1d00e428f9230fddd60d1841e76e3f0954ef8243fea2186f7a9596f3e022000bd3b7af9f936abeeadb5f433cfefdfd9acfb7897a4c4f1d365a0a2fc82c5d50169522102d5a17f0cb4a615fc6d08cc249e755ee4d398f74e09df6a8046ce72a1fda6e6dc2103ff4347f071ee9ab37e0f6c20653ad8391c275f0230c2681f606a4edb5b69388221029974916274b77b6fdb502ba46a38f743feabd038b673249fc3ac215d2d46abb953ae00000000", "vin": [{"txinwitness": ["", "3045022100dee8ccd657ee214481eb347356b023b101b51d6d12411d6f086c9266db1d8f84022048deb368181023644d39a8bf339295e0ce320285ef98bb6903b6c9581ebfb45801", "304402201253d2c1d00e428f9230fddd60d1841e76e3f0954ef8243fea2186f7a9596f3e022000bd3b7af9f936abeeadb5f433cfefdfd9acfb7897a4c4f1d365a0a2fc82c5d501", "522102d5a17f0cb4a615fc6d08cc249e755ee4d398f74e09df6a8046ce72a1fda6e6dc2103ff4347f071ee9ab37e0f6c20653ad8391c275f0230c2681f606a4edb5b69388221029974916274b77b6fdb502ba46a38f743feabd038b673249fc3ac215d2d46abb953ae"], "sequence": 4294967295, "scriptSig": {"hex": "2200203f1c5223111783e9f33ebe3b8c77fae358386a7205fa717357ee85271bfa08cb", "asm": "00203f1c5223111783e9f33ebe3b8c77fae358386a7205fa717357ee85271bfa08cb"}, "vout": 1, "txid": "636a6c5a27e8a75077d134b8b41470c697446f21d5854bb8c01ae543cd0bc1c8"}], "txid": "973e25334d11568da26b1d846ee6533eb8f47d5c06bd62ac2b653c9e15b57bed", "blocktime": 1537869901, "version": 1, "confirmations": 11524, "time": 1537869901, "locktime": 0, "vsize": 214, "size": 405}