{"hash": "973e0919ad3c8f2b5e130b01f1f94d9f76a2730e900ebdf75fbf45445add9fa7", "blockhash": "0000000000000000001e0dab787dd257d1dbfcb92a98c2207d5e1078be1f4165", "vout": [{"scriptPubKey": {"reqSigs": 1, "hex": "a9148ce4b6e3af58bf98693ec6480065f9c67acc1d3087", "addresses": ["3EXzWkoCwzr42bX25Kx7GPGrsWCYd9csy9"], "asm": "OP_HASH160 8ce4b6e3af58bf98693ec6480065f9c67acc1d30 OP_EQUAL", "type": "scripthash"}, "value": 0.00315, "n": 0}, {"scriptPubKey": {"reqSigs": 1, "hex": "76a91467532c3a30e0a3cb1f51add445b884d31c4c5ad588ac", "addresses": ["1ARLEhoHHTSETXEEwhihFuKwivWkYPHBnQ"], "asm": "OP_DUP OP_HASH160 67532c3a30e0a3cb1f51add445b884d31c4c5ad5 OP_EQUALVERIFY OP_CHECKSIG", "type": "pubkeyhash"}, "value": 0.03681067, "n": 1}], "hex": "01000000013c3d11342e44528cfb3333d4127f05a9f6cfe11f8da241dbae7e01c59ba63a7b010000006b483045022100e5f2667fb5fed4dac79330bc193cb60e760992ed2757c95e1581e7b9a1d3f7f8022031427e0ee50e7138c47e49d13520953f706e4d38a8dded392c4fbbdafb871a210121037c3974911e611b36733813eb24b17817ff22819cdb8e3db446a225e6b3d78a85ffffffff0278ce04000000000017a9148ce4b6e3af58bf98693ec6480065f9c67acc1d30872b2b3800000000001976a91467532c3a30e0a3cb1f51add445b884d31c4c5ad588ac00000000", "vin": [{"sequence": 4294967295, "scriptSig": {"hex": "483045022100e5f2667fb5fed4dac79330bc193cb60e760992ed2757c95e1581e7b9a1d3f7f8022031427e0ee50e7138c47e49d13520953f706e4d38a8dded392c4fbbdafb871a210121037c3974911e611b36733813eb24b17817ff22819cdb8e3db446a225e6b3d78a85", "asm": "3045022100e5f2667fb5fed4dac79330bc193cb60e760992ed2757c95e1581e7b9a1d3f7f8022031427e0ee50e7138c47e49d13520953f706e4d38a8dded392c4fbbdafb871a21[ALL] 037c3974911e611b36733813eb24b17817ff22819cdb8e3db446a225e6b3d78a85"}, "vout": 1, "txid": "7b3aa69bc5017eaedb41a28d1fe1cff6a9057f12d43333fb8c52442e34113d3c"}], "txid": "973e0919ad3c8f2b5e130b01f1f94d9f76a2730e900ebdf75fbf45445add9fa7", "blocktime": 1537872475, "version": 1, "confirmations": 11486, "time": 1537872475, "locktime": 0, "vsize": 224, "size": 224}