{"hash": "c0e706b06ace384c3b1fdffb063b8fc044d477f204965aa22309cc5faa8709e6", "blockhash": "0000000000000000001e0dab787dd257d1dbfcb92a98c2207d5e1078be1f4165", "vout": [{"scriptPubKey": {"reqSigs": 1, "hex": "76a9149a1b8f9b1fa2d2297863adb1cb11c71df455684888ac", "addresses": ["1F3r5We2zwNiSzG6GQUTTWnnPMCz2HJbJu"], "asm": "OP_DUP OP_HASH160 9a1b8f9b1fa2d2297863adb1cb11c71df4556848 OP_EQUALVERIFY OP_CHECKSIG", "type": "pubkeyhash"}, "value": 2.734e-05, "n": 0}, {"scriptPubKey": {"reqSigs": 1, "hex": "a914e8db75c900cf08f06518e96d167331f2a4abfb3387", "addresses": ["3NvFbQMAkkqEFj4i1sYPPLkSWzxTFUchjA"], "asm": "OP_HASH160 e8db75c900cf08f06518e96d167331f2a4abfb33 OP_EQUAL", "type": "scripthash"}, "value": 6.074e-05, "n": 1}], "hex": "0100000000010171534a1ca012010deb62a5045377d99256ddf1518bb9f12103c72dda560da1840000000023220020941cfaff8837763dc1f69ff82b6d6553fdea17a41cfc29a04403293eedd8ccc7ffffffff02ae0a0000000000001976a9149a1b8f9b1fa2d2297863adb1cb11c71df455684888acba1700000000000017a914e8db75c900cf08f06518e96d167331f2a4abfb33870400473044022069aea5b12aba8afce33c458907310356152be6e5ebd6c49a32e5d42875ca91ce02205e7a07a70018ae97322fddc79adbb375497e07e888c493c9898e373116aa8c5d0147304402203c8282c1e5d4b58cd23657961b3c2f37269fa2e63835095f445b39959b5777cb02207f938b4f6bb68671f3ab50b42fdc9c2926d30994d0518973a368198069762b2e0147522102531db3a5883f29bab4241dd0cd726936667bcda445d89bdd22244e828b6993342103148c80a5bdfddb05ff5bcffc397c8ca748d8b435ec6a175bc9d7bfc7fc6f853752ae00000000", "vin": [{"txinwitness": ["", "3044022069aea5b12aba8afce33c458907310356152be6e5ebd6c49a32e5d42875ca91ce02205e7a07a70018ae97322fddc79adbb375497e07e888c493c9898e373116aa8c5d01", "304402203c8282c1e5d4b58cd23657961b3c2f37269fa2e63835095f445b39959b5777cb02207f938b4f6bb68671f3ab50b42fdc9c2926d30994d0518973a368198069762b2e01", "522102531db3a5883f29bab4241dd0cd726936667bcda445d89bdd22244e828b6993342103148c80a5bdfddb05ff5bcffc397c8ca748d8b435ec6a175bc9d7bfc7fc6f853752ae"], "sequence": 4294967295, "scriptSig": {"hex": "220020941cfaff8837763dc1f69ff82b6d6553fdea17a41cfc29a04403293eedd8ccc7", "asm": "0020941cfaff8837763dc1f69ff82b6d6553fdea17a41cfc29a04403293eedd8ccc7"}, "vout": 0, "txid": "84a10d56da2dc70321f1b98b51f1dd5692d9775304a562eb0d0112a01c4a5371"}], "txid": "9748069bcc6bfe639f9c5cb7d62e5b3785483bccb88c2174d00406e482547aeb", "blocktime": 1537872475, "version": 1, "confirmations": 11487, "time": 1537872475, "locktime": 0, "vsize": 207, "size": 372}