{"hash": "97509742f1c7bdfa57f39a04d292ac065c40c189955f7203f785976f782f44e0", "blockhash": "0000000000000000000e13cef7c366c0283d82e591d1acd082e914b08063cdf1", "vout": [{"scriptPubKey": {"type": "nulldata", "hex": "6a146f6d6e69000000000000001f000001d1a94a2000", "asm": "OP_RETURN 6f6d6e69000000000000001f000001d1a94a2000"}, "value": 0.0, "n": 0}, {"scriptPubKey": {"reqSigs": 1, "hex": "76a914b1c36cdbc8488828fdf7c51a01ffdc5fad795f3f88ac", "addresses": ["1HCviLYNqHAyeZxGTj9Mtgvj1NJgQuSo91"], "asm": "OP_DUP OP_HASH160 b1c36cdbc8488828fdf7c51a01ffdc5fad795f3f OP_EQUALVERIFY OP_CHECKSIG", "type": "pubkeyhash"}, "value": 0.03979727, "n": 1}], "hex": "0100000002942f404937f572c8a6338f5bbede040628723f312c43f15bd4a84f8ddbc1e3fc020000006b483045022100b50aa8c2e4fc4cac1370795bce5beb5099d9fc926871d853f9b92cf1bdd2dc2302202a13bb38d6d3ffc07205fe224e2a7307101a546ddb1b72691a8d395e8e3b38620121035b08390449c6dba5a8a822973e0531b6e81de8b02995c54576383db9ce79ae67ffffffff14d4fd64520a176e09c3b2697f74432892a557690b434c146eecec21cb0825d1000000006b4830450221008d30cbfbab789fabe2ac02296f5edb6c61d05d4310187511d486f8337266684d02200d101dcb65f24faed6ab1676db5660a007728ceffcb0fce81ebefbbaa8e44426012103cb950ff16b3a493421366c754a5a72df22c9030a007422ffb617181c917e7873ffffffff020000000000000000166a146f6d6e69000000000000001f000001d1a94a2000cfb93c00000000001976a914b1c36cdbc8488828fdf7c51a01ffdc5fad795f3f88ac00000000", "vin": [{"sequence": 4294967295, "scriptSig": {"hex": "483045022100b50aa8c2e4fc4cac1370795bce5beb5099d9fc926871d853f9b92cf1bdd2dc2302202a13bb38d6d3ffc07205fe224e2a7307101a546ddb1b72691a8d395e8e3b38620121035b08390449c6dba5a8a822973e0531b6e81de8b02995c54576383db9ce79ae67", "asm": "3045022100b50aa8c2e4fc4cac1370795bce5beb5099d9fc926871d853f9b92cf1bdd2dc2302202a13bb38d6d3ffc07205fe224e2a7307101a546ddb1b72691a8d395e8e3b3862[ALL] 035b08390449c6dba5a8a822973e0531b6e81de8b02995c54576383db9ce79ae67"}, "vout": 2, "txid": "fce3c1db8d4fa8d45bf1432c313f72280604debe5b8f33a6c872f53749402f94"}, {"sequence": 4294967295, "scriptSig": {"hex": "4830450221008d30cbfbab789fabe2ac02296f5edb6c61d05d4310187511d486f8337266684d02200d101dcb65f24faed6ab1676db5660a007728ceffcb0fce81ebefbbaa8e44426012103cb950ff16b3a493421366c754a5a72df22c9030a007422ffb617181c917e7873", "asm": "30450221008d30cbfbab789fabe2ac02296f5edb6c61d05d4310187511d486f8337266684d02200d101dcb65f24faed6ab1676db5660a007728ceffcb0fce81ebefbbaa8e44426[ALL] 03cb950ff16b3a493421366c754a5a72df22c9030a007422ffb617181c917e7873"}, "vout": 0, "txid": "d12508cb21ecec6e144c430b6957a5922843747f69b2c3096e170a5264fdd414"}], "txid": "97509742f1c7bdfa57f39a04d292ac065c40c189955f7203f785976f782f44e0", "blocktime": 1537871767, "version": 1, "confirmations": 11495, "time": 1537871767, "locktime": 0, "vsize": 371, "size": 371}