{"hash": "975502d35790c79cb4468767ec3a49a57dffee362d89cf6ab252b8f4d3bd040e", "blockhash": "00000000000000000017f5eb5941039fbcee6240d03bc1f2f8e35350df66a1d8", "vout": [{"scriptPubKey": {"reqSigs": 1, "hex": "76a9146a1a6564a0b208aaed8b7abe7507938c29a45ffd88ac", "addresses": ["1Ag2FNAVozUKqtjbXfwaJfDcvo9T7Znjsg"], "asm": "OP_DUP OP_HASH160 6a1a6564a0b208aaed8b7abe7507938c29a45ffd OP_EQUALVERIFY OP_CHECKSIG", "type": "pubkeyhash"}, "value": 0.0220874, "n": 0}, {"scriptPubKey": {"type": "nulldata", "hex": "6a4c50000077fa00011ede7bec60b6a9f8268e2f66d19ed074892d00f8e87af8e8e963c7cfd5b9a3fe099cd607c60ff15a5b8727423a8b5baa191406142de11b147babbc9a9526289ac0f6612cd74e33776ee4", "asm": "OP_RETURN 000077fa00011ede7bec60b6a9f8268e2f66d19ed074892d00f8e87af8e8e963c7cfd5b9a3fe099cd607c60ff15a5b8727423a8b5baa191406142de11b147babbc9a9526289ac0f6612cd74e33776ee4"}, "value": 0.0, "n": 1}], "hex": "01000000018e5a9c44120d5cfdf283a6e00ca51ee2b79cf36f6930f2d917e2415bdf90bbc2000000006b483045022100a8dbdf1068df0146cfb6bc6e017b62870f790fe9dbda2e453255f574c1bfe1b9022039aaa976aae22fef606ea9a567a5ab3b08013b6781d04b61bd32ac816f229c87012103da68500b7edc47aefe8c9e05ff75227d3d19aa48d179e24b2fafccc095c7b45fffffffff02e4b32100000000001976a9146a1a6564a0b208aaed8b7abe7507938c29a45ffd88ac0000000000000000536a4c50000077fa00011ede7bec60b6a9f8268e2f66d19ed074892d00f8e87af8e8e963c7cfd5b9a3fe099cd607c60ff15a5b8727423a8b5baa191406142de11b147babbc9a9526289ac0f6612cd74e33776ee400000000", "vin": [{"sequence": 4294967295, "scriptSig": {"hex": "483045022100a8dbdf1068df0146cfb6bc6e017b62870f790fe9dbda2e453255f574c1bfe1b9022039aaa976aae22fef606ea9a567a5ab3b08013b6781d04b61bd32ac816f229c87012103da68500b7edc47aefe8c9e05ff75227d3d19aa48d179e24b2fafccc095c7b45f", "asm": "3045022100a8dbdf1068df0146cfb6bc6e017b62870f790fe9dbda2e453255f574c1bfe1b9022039aaa976aae22fef606ea9a567a5ab3b08013b6781d04b61bd32ac816f229c87[ALL] 03da68500b7edc47aefe8c9e05ff75227d3d19aa48d179e24b2fafccc095c7b45f"}, "vout": 0, "txid": "c2bb90df5b41e217d9f230696ff39cb7e21ea50ce0a683f2fd5c0d12449c5a8e"}], "txid": "975502d35790c79cb4468767ec3a49a57dffee362d89cf6ab252b8f4d3bd040e", "blocktime": 1537874412, "version": 1, "confirmations": 11467, "time": 1537874412, "locktime": 0, "vsize": 284, "size": 284}