{"hash": "97561b7190b0d85cf53b3269420a1410efa9fbd41ac74a085e4a1d36d0013cb3", "blockhash": "0000000000000000001cda96e906b7601b7a6fb1a3b62bca570a9e5d8f4b3de1", "vout": [{"scriptPubKey": {"reqSigs": 1, "hex": "76a914a5c51c4909d9222b79dcb0745f527c44fec0f5ee88ac", "addresses": ["1G7Wd8Ui29QknPpfJACsUPUGCT43ASZ24j"], "asm": "OP_DUP OP_HASH160 a5c51c4909d9222b79dcb0745f527c44fec0f5ee OP_EQUALVERIFY OP_CHECKSIG", "type": "pubkeyhash"}, "value": 0.00045214, "n": 0}, {"scriptPubKey": {"reqSigs": 1, "hex": "76a91466fc05cc7884f136896112dcf156371b5112c78488ac", "addresses": ["1APXqQdpJDvUfJWhdspsnmm3fLWojaQgDK"], "asm": "OP_DUP OP_HASH160 66fc05cc7884f136896112dcf156371b5112c784 OP_EQUALVERIFY OP_CHECKSIG", "type": "pubkeyhash"}, "value": 0.00062433, "n": 1}], "hex": "010000000188b2231679533314291b2ea53bf58d10425830d12bc998320df2c30666a5a1ae010000006b483045022100bed12ad1d05c8e023c91c7f3d0276fed3409ce5065a0bd6af5d23d453feb69f802202a9ee72eefeb61f7d30b0ca9f617610d6bd5761a0c8a957c8533cb48f7d033be01210353a79bb7ef0b57642d62a7a64bc7329ec2dab296f76614fcd9f10975134a5801ffffffff029eb00000000000001976a914a5c51c4909d9222b79dcb0745f527c44fec0f5ee88ace1f30000000000001976a91466fc05cc7884f136896112dcf156371b5112c78488ac00000000", "vin": [{"sequence": 4294967295, "scriptSig": {"hex": "483045022100bed12ad1d05c8e023c91c7f3d0276fed3409ce5065a0bd6af5d23d453feb69f802202a9ee72eefeb61f7d30b0ca9f617610d6bd5761a0c8a957c8533cb48f7d033be01210353a79bb7ef0b57642d62a7a64bc7329ec2dab296f76614fcd9f10975134a5801", "asm": "3045022100bed12ad1d05c8e023c91c7f3d0276fed3409ce5065a0bd6af5d23d453feb69f802202a9ee72eefeb61f7d30b0ca9f617610d6bd5761a0c8a957c8533cb48f7d033be[ALL] 0353a79bb7ef0b57642d62a7a64bc7329ec2dab296f76614fcd9f10975134a5801"}, "vout": 1, "txid": "aea1a56606c3f20d3298c92bd1305842108df53ba52e1b29143353791623b288"}], "txid": "97561b7190b0d85cf53b3269420a1410efa9fbd41ac74a085e4a1d36d0013cb3", "blocktime": 1537873282, "version": 1, "confirmations": 11485, "time": 1537873282, "locktime": 0, "vsize": 226, "size": 226}