{"hash": "975df6e677fef72666c5aa5cccc6941f234c57edd6830e4303811ad20f28c019", "blockhash": "00000000000000000017f5eb5941039fbcee6240d03bc1f2f8e35350df66a1d8", "vout": [{"scriptPubKey": {"reqSigs": 1, "hex": "76a914c8f6d890ab02e94afbac8550782c9e8c5701c41488ac", "addresses": ["1KKbrXPMsAx6si5JG9h6efnaDokYf5LHgJ"], "asm": "OP_DUP OP_HASH160 c8f6d890ab02e94afbac8550782c9e8c5701c414 OP_EQUALVERIFY OP_CHECKSIG", "type": "pubkeyhash"}, "value": 0.01532892, "n": 0}, {"scriptPubKey": {"reqSigs": 1, "hex": "a91476e3bffebec60ed8977b465b62420ae14feebd8687", "addresses": ["3CXeVXT9sqyNpwh2a3DjQxKX8LjptJYfHf"], "asm": "OP_HASH160 76e3bffebec60ed8977b465b62420ae14feebd86 OP_EQUAL", "type": "scripthash"}, "value": 0.00447108, "n": 1}], "hex": "0200000001916e2134895674676a4e19a990fe4a208e49f4ec7045dea199488167953b570c0a0000006a4730440220372dfd48893c496451d28313e43a44f47868274cd712717ecaf4dbb9a713522a0220397c224028036d04cb50579d646fa664689c58c44f6e089e343423c6dc75c42001210241d90e420124a2fdf1df4da160004e15746a70399959440b927af02f8e84cf17feffffff02dc631700000000001976a914c8f6d890ab02e94afbac8550782c9e8c5701c41488ac84d206000000000017a91476e3bffebec60ed8977b465b62420ae14feebd868715490800", "vin": [{"sequence": 4294967294, "scriptSig": {"hex": "4730440220372dfd48893c496451d28313e43a44f47868274cd712717ecaf4dbb9a713522a0220397c224028036d04cb50579d646fa664689c58c44f6e089e343423c6dc75c42001210241d90e420124a2fdf1df4da160004e15746a70399959440b927af02f8e84cf17", "asm": "30440220372dfd48893c496451d28313e43a44f47868274cd712717ecaf4dbb9a713522a0220397c224028036d04cb50579d646fa664689c58c44f6e089e343423c6dc75c420[ALL] 0241d90e420124a2fdf1df4da160004e15746a70399959440b927af02f8e84cf17"}, "vout": 10, "txid": "0c573b9567814899a1de4570ecf4498e204afe90a9194e6a6774568934216e91"}], "txid": "975df6e677fef72666c5aa5cccc6941f234c57edd6830e4303811ad20f28c019", "blocktime": 1537874412, "version": 2, "confirmations": 11466, "time": 1537874412, "locktime": 542997, "vsize": 223, "size": 223}