{"hash": "975f67140fff40c2325fea5b69d7b9dee92e0261fda34e55a7889f67aa2ff700", "blockhash": "000000000000000000205f8b0775d31398ef75b89a5e8ec8d2c57b4dc0ac4c20", "vout": [{"scriptPubKey": {"reqSigs": 1, "hex": "76a914186604d85fd4c6b431e5ac24ff129b531a4f4e6c88ac", "addresses": ["13E1S1Bq4EpMC9WW5MHiyXyEkin8qTS9tp"], "asm": "OP_DUP OP_HASH160 186604d85fd4c6b431e5ac24ff129b531a4f4e6c OP_EQUALVERIFY OP_CHECKSIG", "type": "pubkeyhash"}, "value": 0.03037209, "n": 0}, {"scriptPubKey": {"reqSigs": 1, "hex": "76a914c4e20543276d48253726bcb6ddb5e76e00d55ee988ac", "addresses": ["1Jx2CnNfTDgUL7WWsRmmNEVkphwWGNxYRn"], "asm": "OP_DUP OP_HASH160 c4e20543276d48253726bcb6ddb5e76e00d55ee9 OP_EQUALVERIFY OP_CHECKSIG", "type": "pubkeyhash"}, "value": 108.49137191, "n": 1}], "hex": "010000000172c83b3d05b3420fea71830c922cb5e7e8c6ee341ea712c306703c2e851079b5010000006a473044022066f190323d3395311895347a6b7a483156e6d5b67363ce052e3fcc8110a9dbf6022029ef51d4d870fb164c9028ba30d710d849965bf5e6a1bb2ced2cf6d705e8a9c2012103b96e4356456aed4cfc689260c126f429f51ccb0d842d76063cc3126142981871ffffffff0219582e00000000001976a914186604d85fd4c6b431e5ac24ff129b531a4f4e6c88ac27b2a886020000001976a914c4e20543276d48253726bcb6ddb5e76e00d55ee988ac00000000", "vin": [{"sequence": 4294967295, "scriptSig": {"hex": "473044022066f190323d3395311895347a6b7a483156e6d5b67363ce052e3fcc8110a9dbf6022029ef51d4d870fb164c9028ba30d710d849965bf5e6a1bb2ced2cf6d705e8a9c2012103b96e4356456aed4cfc689260c126f429f51ccb0d842d76063cc3126142981871", "asm": "3044022066f190323d3395311895347a6b7a483156e6d5b67363ce052e3fcc8110a9dbf6022029ef51d4d870fb164c9028ba30d710d849965bf5e6a1bb2ced2cf6d705e8a9c2[ALL] 03b96e4356456aed4cfc689260c126f429f51ccb0d842d76063cc3126142981871"}, "vout": 1, "txid": "b57910852e3c7006c312a71e34eec6e8e7b52c920c8371ea0f42b3053d3bc872"}], "txid": "975f67140fff40c2325fea5b69d7b9dee92e0261fda34e55a7889f67aa2ff700", "blocktime": 1537871175, "version": 1, "confirmations": 11511, "time": 1537871175, "locktime": 0, "vsize": 225, "size": 225}