{"hash": "41fd9560d8473ac7277f18f2c96c205e5214d0429465d9302a5bd2c495a241e0", "blockhash": "0000000000000000001cda96e906b7601b7a6fb1a3b62bca570a9e5d8f4b3de1", "vout": [{"scriptPubKey": {"reqSigs": 1, "hex": "a914d352987668c929cd6733cd5ec9168d36ffb5cf8187", "addresses": ["3LxPSrpqt1xcPNfbqd18MCwWqxB5Aa9gAA"], "asm": "OP_HASH160 d352987668c929cd6733cd5ec9168d36ffb5cf81 OP_EQUAL", "type": "scripthash"}, "value": 0.00039184, "n": 0}], "hex": "01000000000101be64e6887f53c3acbbebc6923e4cf185b89c36faef3b40c578fe5433009b9e4f000000001716001492c022fc47327321a151bf5775eebba77002fe65ffffffff01109900000000000017a914d352987668c929cd6733cd5ec9168d36ffb5cf8187024830450221008d845311ae5e73221e761ff9e16b69f30f0d8616c3310653f21a6903dc491c89022002f9da13dde673181bced797658ca0293347b097c186ac8b2949b65593601e02012103fd8df032521b9a3c44d22d4a9a2d94d8924dd8575418aae144da75edc79b275b00000000", "vin": [{"txinwitness": ["30450221008d845311ae5e73221e761ff9e16b69f30f0d8616c3310653f21a6903dc491c89022002f9da13dde673181bced797658ca0293347b097c186ac8b2949b65593601e0201", "03fd8df032521b9a3c44d22d4a9a2d94d8924dd8575418aae144da75edc79b275b"], "sequence": 4294967295, "scriptSig": {"hex": "16001492c022fc47327321a151bf5775eebba77002fe65", "asm": "001492c022fc47327321a151bf5775eebba77002fe65"}, "vout": 0, "txid": "4f9e9b003354fe78c5403beffa369cb885f14c3e92c6ebbbacc3537f88e664be"}], "txid": "976c2a67b337226b9a70671ee7b52cce8a115010a4324919ce2f2cf528e9215b", "blocktime": 1537873282, "version": 1, "confirmations": 11485, "time": 1537873282, "locktime": 0, "vsize": 134, "size": 216}