{"hash": "056419c78f64243064bea254d034671862e6374328d9814b9695de9ec3764f09", "blockhash": "0000000000000000000baef3f32e3676a92c3b2e5da21b426e4f302fc371ce76", "vout": [{"scriptPubKey": {"reqSigs": 1, "hex": "a9141299f98d6959d79608f09c8ca2d974e001bfd17887", "addresses": ["33PNYMWEWWbkthgcjKxCbNtFnEoXKZMXCe"], "asm": "OP_HASH160 1299f98d6959d79608f09c8ca2d974e001bfd178 OP_EQUAL", "type": "scripthash"}, "value": 0.01396597, "n": 0}, {"scriptPubKey": {"reqSigs": 1, "hex": "76a9142568480dbc92cda5570a95dd3dceec3a11231aa488ac", "addresses": ["14QnvhdhCntoZt7Q2HwqLcfWNKmMnvtBVL"], "asm": "OP_DUP OP_HASH160 2568480dbc92cda5570a95dd3dceec3a11231aa4 OP_EQUALVERIFY OP_CHECKSIG", "type": "pubkeyhash"}, "value": 0.0181927, "n": 1}], "hex": "02000000000102531ea451742afd06c168b4a71253863183d425a6727f8ec8ca33e55a6b66347d0100000017160014b2c9c8c5c6b8f0c8f5cea5fbda74c45b896cb9f9feffffff6f5497b4c9d16bb3b5182a12fa08cf794721378c176acaaed7e545f62a0c3c5300000000171600145001522451d1fdd68a3578ff78d58349040381bdfeffffff02754f15000000000017a9141299f98d6959d79608f09c8ca2d974e001bfd1788786c21b00000000001976a9142568480dbc92cda5570a95dd3dceec3a11231aa488ac0247304402205de606d92de00279a05637a5c5961c12d0f399aed20c812951b9fa7dbed4c0b802205b9c66543d420b038a0f1f8e14fb6f7d4687488b141d9c48f88f169f2bffe18701210286aeb742d908642403f52e667f81f6d59b50b2e519f3939179784e27ab0923f802483045022100db282720bc8cdbe8070ca92eb3c77b08e6f375d3480d8e82c055ee7d680befde02202d02bd43159d049c4065e9dbcd45c4c95d6165ff4777d93d2e9bf86eb9aa9dc6012103b952eb1b742fd3324f22f9392056c1b185921e8cc84d91bb28733be162dc062217490800", "vin": [{"txinwitness": ["304402205de606d92de00279a05637a5c5961c12d0f399aed20c812951b9fa7dbed4c0b802205b9c66543d420b038a0f1f8e14fb6f7d4687488b141d9c48f88f169f2bffe18701", "0286aeb742d908642403f52e667f81f6d59b50b2e519f3939179784e27ab0923f8"], "sequence": 4294967294, "scriptSig": {"hex": "160014b2c9c8c5c6b8f0c8f5cea5fbda74c45b896cb9f9", "asm": "0014b2c9c8c5c6b8f0c8f5cea5fbda74c45b896cb9f9"}, "vout": 1, "txid": "7d34666b5ae533cac88e7f72a625d48331865312a7b468c106fd2a7451a41e53"}, {"txinwitness": ["3045022100db282720bc8cdbe8070ca92eb3c77b08e6f375d3480d8e82c055ee7d680befde02202d02bd43159d049c4065e9dbcd45c4c95d6165ff4777d93d2e9bf86eb9aa9dc601", "03b952eb1b742fd3324f22f9392056c1b185921e8cc84d91bb28733be162dc0622"], "sequence": 4294967294, "scriptSig": {"hex": "1600145001522451d1fdd68a3578ff78d58349040381bd", "asm": "00145001522451d1fdd68a3578ff78d58349040381bd"}, "vout": 0, "txid": "533c0c2af645e5d7aeca6a178c37214779cf08fa122a18b5b36bd1c9b497546f"}], "txid": "976e6e0018bac67cb9ce8bc15941cc7066f5e3f3f34f2e818fd441d0cc309bef", "blocktime": 1537876114, "version": 2, "confirmations": 11459, "time": 1537876114, "locktime": 542999, "vsize": 259, "size": 421}