{"hash": "9771ba35d8e3b53b6febf3c5d55437543528def14ffcde5fadde6331192a575e", "blockhash": "00000000000000000004ffacab907a6b429b9a5745fa0b75af4234bf69dd7176", "vout": [{"scriptPubKey": {"reqSigs": 1, "hex": "76a91460051f9a45a1df1b39030d4853b232360ba44be288ac", "addresses": ["19ki1Q9cMSX3kZskUMrcXoKXtYqmAcFLgv"], "asm": "OP_DUP OP_HASH160 60051f9a45a1df1b39030d4853b232360ba44be2 OP_EQUALVERIFY OP_CHECKSIG", "type": "pubkeyhash"}, "value": 0.00255748, "n": 0}, {"scriptPubKey": {"reqSigs": 1, "hex": "76a914e980406100f1b02d9023620d15858ca5a5fb144c88ac", "addresses": ["1NHe5mQK8w5uu6QxqnWsd6M8fPLPiYGWzA"], "asm": "OP_DUP OP_HASH160 e980406100f1b02d9023620d15858ca5a5fb144c OP_EQUALVERIFY OP_CHECKSIG", "type": "pubkeyhash"}, "value": 0.06981338, "n": 1}], "hex": "010000000183a2319912ff272b1757c99260ca19fc3d1b480c0245aa2f01a11d42ee64817d010000006b483045022100efda62653d1ba08c1bd478b023f995dc5eb9de2fdc44ce919a5b7c6c523afbe902204e97c3182b24ae73b7adebaf0be3c6bce1616c9dcdd992ca7fe807ec19fd01f7012103ad603f5d3610dce0c476cc5ff31b70d340cb842f4285d362fdb63d990e4c8e16ffffffff0204e70300000000001976a91460051f9a45a1df1b39030d4853b232360ba44be288acda866a00000000001976a914e980406100f1b02d9023620d15858ca5a5fb144c88ac00000000", "vin": [{"sequence": 4294967295, "scriptSig": {"hex": "483045022100efda62653d1ba08c1bd478b023f995dc5eb9de2fdc44ce919a5b7c6c523afbe902204e97c3182b24ae73b7adebaf0be3c6bce1616c9dcdd992ca7fe807ec19fd01f7012103ad603f5d3610dce0c476cc5ff31b70d340cb842f4285d362fdb63d990e4c8e16", "asm": "3045022100efda62653d1ba08c1bd478b023f995dc5eb9de2fdc44ce919a5b7c6c523afbe902204e97c3182b24ae73b7adebaf0be3c6bce1616c9dcdd992ca7fe807ec19fd01f7[ALL] 03ad603f5d3610dce0c476cc5ff31b70d340cb842f4285d362fdb63d990e4c8e16"}, "vout": 1, "txid": "7d8164ee421da1012faa45020c481b3dfc19ca6092c957172b27ff129931a283"}], "txid": "9771ba35d8e3b53b6febf3c5d55437543528def14ffcde5fadde6331192a575e", "blocktime": 1537875543, "version": 1, "confirmations": 11464, "time": 1537875543, "locktime": 0, "vsize": 226, "size": 226}