{"hash": "9772273a553e01f8e4c6861fa1ba80087811ecf37c4826496f87586fbf0058fd", "blockhash": "0000000000000000001f76057863aec43deb6fa401d9628bb513d65a8098bfab", "vout": [{"scriptPubKey": {"reqSigs": 1, "hex": "a9142b828deb4df0318284e70f70898b6254372e52a587", "addresses": ["35f5NsNMqLXqW7YbijBAkMSdjWLwo9MVA3"], "asm": "OP_HASH160 2b828deb4df0318284e70f70898b6254372e52a5 OP_EQUAL", "type": "scripthash"}, "value": 0.0025666, "n": 0}, {"scriptPubKey": {"reqSigs": 1, "hex": "76a914f23e240b783de9f3614a01a920e3d6c92069b70288ac", "addresses": ["1P5ry3QQLDtSCKCPUEXeQ4Wb5wjk4GK52M"], "asm": "OP_DUP OP_HASH160 f23e240b783de9f3614a01a920e3d6c92069b702 OP_EQUALVERIFY OP_CHECKSIG", "type": "pubkeyhash"}, "value": 0.00986952, "n": 1}], "hex": "01000000017fa6938880a34a95a4fda69bb881a33cf17665acc4056449aebaa2662fadce87010000006a47304402202472ff1c02d4f96913e51e83602cc7d233769e5eae4a26408172e5b4649eaba002204040dd394867ae8b8230741fc5effca6ff34423fecbd8c30822f0593b4b43d90012102557542e70a1d33f39b6e621c3f96f84ea0af760fa6e315922400f4bb648acd31ffffffff0294ea03000000000017a9142b828deb4df0318284e70f70898b6254372e52a587480f0f00000000001976a914f23e240b783de9f3614a01a920e3d6c92069b70288ac00000000", "vin": [{"sequence": 4294967295, "scriptSig": {"hex": "47304402202472ff1c02d4f96913e51e83602cc7d233769e5eae4a26408172e5b4649eaba002204040dd394867ae8b8230741fc5effca6ff34423fecbd8c30822f0593b4b43d90012102557542e70a1d33f39b6e621c3f96f84ea0af760fa6e315922400f4bb648acd31", "asm": "304402202472ff1c02d4f96913e51e83602cc7d233769e5eae4a26408172e5b4649eaba002204040dd394867ae8b8230741fc5effca6ff34423fecbd8c30822f0593b4b43d90[ALL] 02557542e70a1d33f39b6e621c3f96f84ea0af760fa6e315922400f4bb648acd31"}, "vout": 1, "txid": "87cead2f66a2baae496405c4ac6576f13ca381b89ba6fda4954aa3808893a67f"}], "txid": "9772273a553e01f8e4c6861fa1ba80087811ecf37c4826496f87586fbf0058fd", "blocktime": 1537873891, "version": 1, "confirmations": 11475, "time": 1537873891, "locktime": 0, "vsize": 223, "size": 223}