{"hash": "97731fcc228273a26672be9b73cf3d20c0c72bf750dbf7c5854de947783cb4ec", "blockhash": "0000000000000000001e0dab787dd257d1dbfcb92a98c2207d5e1078be1f4165", "vout": [{"scriptPubKey": {"reqSigs": 1, "hex": "a914fc728ea480dab48de1e3896b2010998cde2e172187", "addresses": ["3QhqSTZ9yTeKbq7E3yUBRDfGXBK2WL5aS4"], "asm": "OP_HASH160 fc728ea480dab48de1e3896b2010998cde2e1721 OP_EQUAL", "type": "scripthash"}, "value": 0.00070378, "n": 0}, {"scriptPubKey": {"reqSigs": 1, "hex": "a914cf6419b04ff9784e4f8491be334fd507266c60c887", "addresses": ["3LbbiM4RMu3W5Lsk66ybw5AgWZNXJMQLuZ"], "asm": "OP_HASH160 cf6419b04ff9784e4f8491be334fd507266c60c8 OP_EQUAL", "type": "scripthash"}, "value": 0.00088772, "n": 1}], "hex": "02000000014e9ce04342d50d26d9fc56e3964596a82d45a5422ffa2656a12c7bd44bc93cc8000000006a47304402207dcc18996448d968764f06f0935fe9a29b8000380d6e0dd24dc2e032c3ad876302202e29c8da7a72437e14ff91f6027b6cd791ffec06e56dee79433c2c9f5534b5c50121037b4be8791820247ea350e4da578ef6c349c2e82a748a30b21f6384eb12c6bd5efeffffff02ea1201000000000017a914fc728ea480dab48de1e3896b2010998cde2e172187c45a01000000000017a914cf6419b04ff9784e4f8491be334fd507266c60c88712490800", "vin": [{"sequence": 4294967294, "scriptSig": {"hex": "47304402207dcc18996448d968764f06f0935fe9a29b8000380d6e0dd24dc2e032c3ad876302202e29c8da7a72437e14ff91f6027b6cd791ffec06e56dee79433c2c9f5534b5c50121037b4be8791820247ea350e4da578ef6c349c2e82a748a30b21f6384eb12c6bd5e", "asm": "304402207dcc18996448d968764f06f0935fe9a29b8000380d6e0dd24dc2e032c3ad876302202e29c8da7a72437e14ff91f6027b6cd791ffec06e56dee79433c2c9f5534b5c5[ALL] 037b4be8791820247ea350e4da578ef6c349c2e82a748a30b21f6384eb12c6bd5e"}, "vout": 0, "txid": "c83cc94bd47b2ca15626fa2f42a5452da8964596e356fcd9260dd54243e09c4e"}], "txid": "97731fcc228273a26672be9b73cf3d20c0c72bf750dbf7c5854de947783cb4ec", "blocktime": 1537872475, "version": 2, "confirmations": 11487, "time": 1537872475, "locktime": 542994, "vsize": 221, "size": 221}