{"hash": "97751402dfe37eeb00b206c112db772d626579cdd35c8d616fc988f0b851a0c4", "blockhash": "0000000000000000001e0dab787dd257d1dbfcb92a98c2207d5e1078be1f4165", "vout": [{"scriptPubKey": {"reqSigs": 1, "hex": "76a9142fa1c54e14537aea4c14c61b92bcebc01fc5b71188ac", "addresses": ["15LrZ3VHPCmJ2U97nKPziPV58pVZ91kVQm"], "asm": "OP_DUP OP_HASH160 2fa1c54e14537aea4c14c61b92bcebc01fc5b711 OP_EQUALVERIFY OP_CHECKSIG", "type": "pubkeyhash"}, "value": 0.00649581, "n": 0}, {"scriptPubKey": {"reqSigs": 1, "hex": "76a914bbb252f1f83ceb456f2e7b74d6623f70779a64ba88ac", "addresses": ["1J7Sz3Q6FvRGZ5U4EPr9kpscJ9GJ1mtd1P"], "asm": "OP_DUP OP_HASH160 bbb252f1f83ceb456f2e7b74d6623f70779a64ba OP_EQUALVERIFY OP_CHECKSIG", "type": "pubkeyhash"}, "value": 0.03306847, "n": 1}], "hex": "01000000012ed1ab0acca5161f8b8461b358e847a45212fdec6897cdf8f81d48ba9de2682c050000006b483045022100bad46f36ad60ea061cd9c50914d4fb71b7912ccea397c31835e44a760807feb302206c22163baf7ce6814a6f9d09030245cde4379c869c7f41f10d234b1b6d009a79012102f1095fbb67431f2f0f73169053468bdb5b6e5438daabe4f818342464d32edf57ffffffff026de90900000000001976a9142fa1c54e14537aea4c14c61b92bcebc01fc5b71188ac5f753200000000001976a914bbb252f1f83ceb456f2e7b74d6623f70779a64ba88ac00000000", "vin": [{"sequence": 4294967295, "scriptSig": {"hex": "483045022100bad46f36ad60ea061cd9c50914d4fb71b7912ccea397c31835e44a760807feb302206c22163baf7ce6814a6f9d09030245cde4379c869c7f41f10d234b1b6d009a79012102f1095fbb67431f2f0f73169053468bdb5b6e5438daabe4f818342464d32edf57", "asm": "3045022100bad46f36ad60ea061cd9c50914d4fb71b7912ccea397c31835e44a760807feb302206c22163baf7ce6814a6f9d09030245cde4379c869c7f41f10d234b1b6d009a79[ALL] 02f1095fbb67431f2f0f73169053468bdb5b6e5438daabe4f818342464d32edf57"}, "vout": 5, "txid": "2c68e29dba481df8f8cd9768ecfd1252a447e858b361848b1f16a5cc0aabd12e"}], "txid": "97751402dfe37eeb00b206c112db772d626579cdd35c8d616fc988f0b851a0c4", "blocktime": 1537872475, "version": 1, "confirmations": 11487, "time": 1537872475, "locktime": 0, "vsize": 226, "size": 226}