{"hash": "99e1da57f4f4b49627222e6f9b3107890b013bdc385da7797b2abdca8b23d640", "blockhash": "0000000000000000001f0ddff1eddb255c1121bcd4da4f1bc9a0da00cae72433", "vout": [{"scriptPubKey": {"reqSigs": 1, "hex": "76a9149a1b8f9b1fa2d2297863adb1cb11c71df455684888ac", "addresses": ["1F3r5We2zwNiSzG6GQUTTWnnPMCz2HJbJu"], "asm": "OP_DUP OP_HASH160 9a1b8f9b1fa2d2297863adb1cb11c71df4556848 OP_EQUALVERIFY OP_CHECKSIG", "type": "pubkeyhash"}, "value": 2.742e-05, "n": 0}, {"scriptPubKey": {"reqSigs": 1, "hex": "a914e8db75c900cf08f06518e96d167331f2a4abfb3387", "addresses": ["3NvFbQMAkkqEFj4i1sYPPLkSWzxTFUchjA"], "asm": "OP_HASH160 e8db75c900cf08f06518e96d167331f2a4abfb33 OP_EQUAL", "type": "scripthash"}, "value": 2.066e-05, "n": 1}], "hex": "01000000000101e96b8671fd2e719acb72135676b9dead1e01619fac265e7809e6fb2faef9d3ae0000000023220020941cfaff8837763dc1f69ff82b6d6553fdea17a41cfc29a04403293eedd8ccc7ffffffff02b60a0000000000001976a9149a1b8f9b1fa2d2297863adb1cb11c71df455684888ac120800000000000017a914e8db75c900cf08f06518e96d167331f2a4abfb33870400473044022030e3ab7d8a32d6d26aefaebd9632e89557952b866946f71917b56faaee96248d02207ee6c05f0e1ad39d1b887f3aa32644700acfc65695c1d8329f13eeca5fea552c0147304402202bf7e2a525d57d524f6db6cc5bafc2079adcca72c81bb36e793779381bed190b022048db137f4c606bbe8f153ab6648fa2a109456cc7e80084cd0e5d51f4e25f3c060147522102531db3a5883f29bab4241dd0cd726936667bcda445d89bdd22244e828b6993342103148c80a5bdfddb05ff5bcffc397c8ca748d8b435ec6a175bc9d7bfc7fc6f853752ae00000000", "vin": [{"txinwitness": ["", "3044022030e3ab7d8a32d6d26aefaebd9632e89557952b866946f71917b56faaee96248d02207ee6c05f0e1ad39d1b887f3aa32644700acfc65695c1d8329f13eeca5fea552c01", "304402202bf7e2a525d57d524f6db6cc5bafc2079adcca72c81bb36e793779381bed190b022048db137f4c606bbe8f153ab6648fa2a109456cc7e80084cd0e5d51f4e25f3c0601", "522102531db3a5883f29bab4241dd0cd726936667bcda445d89bdd22244e828b6993342103148c80a5bdfddb05ff5bcffc397c8ca748d8b435ec6a175bc9d7bfc7fc6f853752ae"], "sequence": 4294967295, "scriptSig": {"hex": "220020941cfaff8837763dc1f69ff82b6d6553fdea17a41cfc29a04403293eedd8ccc7", "asm": "0020941cfaff8837763dc1f69ff82b6d6553fdea17a41cfc29a04403293eedd8ccc7"}, "vout": 0, "txid": "aed3f9ae2ffbe609785e26ac9f61011eaddeb976561372cb9a712efd71866be9"}], "txid": "977a1658d57259a9f5057b125671f1e7cd1d019b2c04326d65e9f9cb2fd3468c", "blocktime": 1537872018, "version": 1, "confirmations": 11489, "time": 1537872018, "locktime": 0, "vsize": 207, "size": 372}