{"hash": "977bb4c8a382e451aa068b07c42a40c829bc20cd5faf0f97f053588706bfe47d", "blockhash": "00000000000000000017f5eb5941039fbcee6240d03bc1f2f8e35350df66a1d8", "vout": [{"scriptPubKey": {"type": "nulldata", "hex": "6a4c50000077f20001596859dfde0f563f482be460d19ed074892d00f8e87af8e8e963c7cfd5b93b2237ed0cfe80dc76cc27ea3ab239d65baa1846061386fb9eb5023fbc9a9526289ac0f6612cd74e33776ee4", "asm": "OP_RETURN 000077f20001596859dfde0f563f482be460d19ed074892d00f8e87af8e8e963c7cfd5b93b2237ed0cfe80dc76cc27ea3ab239d65baa1846061386fb9eb5023fbc9a9526289ac0f6612cd74e33776ee4"}, "value": 0.0, "n": 0}, {"scriptPubKey": {"reqSigs": 1, "hex": "76a914cbb01d078556c9a70381b0dc5e8f2529aaa81ce088ac", "addresses": ["1Ka19WrxhH6UeSqYzWfWu5f4zfxVraUwHh"], "asm": "OP_DUP OP_HASH160 cbb01d078556c9a70381b0dc5e8f2529aaa81ce0 OP_EQUALVERIFY OP_CHECKSIG", "type": "pubkeyhash"}, "value": 0.00126804, "n": 1}], "hex": "0100000001a8eb1f507b6e1dab44ce9f465b9eae158fc3c0bb290cfd4e16a269485b75bf56010000006b483045022100d8dbfb9f0d9fb539fd5a207272e70d0b68639803207ddc8f164786b9524ef95302206e63d8da55d17c9a05f3806ef7d994e459b1e647a274695851344145a7c25cc801210239241f98b0bba176ced5f04f55ac24f7633f609544f3d245e012389113dce047ffffffff020000000000000000536a4c50000077f20001596859dfde0f563f482be460d19ed074892d00f8e87af8e8e963c7cfd5b93b2237ed0cfe80dc76cc27ea3ab239d65baa1846061386fb9eb5023fbc9a9526289ac0f6612cd74e33776ee454ef0100000000001976a914cbb01d078556c9a70381b0dc5e8f2529aaa81ce088ac00000000", "vin": [{"sequence": 4294967295, "scriptSig": {"hex": "483045022100d8dbfb9f0d9fb539fd5a207272e70d0b68639803207ddc8f164786b9524ef95302206e63d8da55d17c9a05f3806ef7d994e459b1e647a274695851344145a7c25cc801210239241f98b0bba176ced5f04f55ac24f7633f609544f3d245e012389113dce047", "asm": "3045022100d8dbfb9f0d9fb539fd5a207272e70d0b68639803207ddc8f164786b9524ef95302206e63d8da55d17c9a05f3806ef7d994e459b1e647a274695851344145a7c25cc8[ALL] 0239241f98b0bba176ced5f04f55ac24f7633f609544f3d245e012389113dce047"}, "vout": 1, "txid": "56bf755b4869a2164efd0c29bbc0c38f15ae9e5b469fce44ab1d6e7b501feba8"}], "txid": "977bb4c8a382e451aa068b07c42a40c829bc20cd5faf0f97f053588706bfe47d", "blocktime": 1537874412, "version": 1, "confirmations": 11467, "time": 1537874412, "locktime": 0, "vsize": 284, "size": 284}