{"hash": "f911d156285a1bfa299554486994d52d98c1c5a9a87bcb827a17b7ad8754e07b", "blockhash": "0000000000000000000baef3f32e3676a92c3b2e5da21b426e4f302fc371ce76", "vout": [{"scriptPubKey": {"reqSigs": 1, "hex": "a91409d8be320b8471d3187a7ad9fc7b070610e4352987", "addresses": ["32b5eqMTSgxut1Va7oz54qH1CTn8f6MZmP"], "asm": "OP_HASH160 09d8be320b8471d3187a7ad9fc7b070610e43529 OP_EQUAL", "type": "scripthash"}, "value": 0.0031636, "n": 0}, {"scriptPubKey": {"reqSigs": 1, "hex": "a914b0f85278ed1262ba5bd20f16e7a4d8aeedbf0e2d87", "addresses": ["3HpkL2oa5P4ak2RUWesNQxZczdwPekUAcz"], "asm": "OP_HASH160 b0f85278ed1262ba5bd20f16e7a4d8aeedbf0e2d OP_EQUAL", "type": "scripthash"}, "value": 0.02963198, "n": 1}], "hex": "010000000001011c148721b537e60abea4b7c78c41bf7dda8ee0854ccc9ce10cb4c199c4b444150100000023220020cd458d5b72141a997c72f8c1f12613459d2b858d968d5d706322fce1e139dfaeffffffff02c8d304000000000017a91409d8be320b8471d3187a7ad9fc7b070610e4352987fe362d000000000017a914b0f85278ed1262ba5bd20f16e7a4d8aeedbf0e2d870400483045022100fe0216e596088bc295abec38517a907f7d98b9952871c389a57ed0a54cf1f0e60220529578958c160c4b3e4bd1d345aa2541c0b53d9d4ec3f62f6fce4963aa796c7101483045022100b5ee5ef6ba875572142f898f11240e4a3e9ad083e6d86eae5cbfc2b231dce0a70220605537bb632a52f042246d8df295dc67cb1206bce4feb5924efc7c50699c54ca0147522103862cd2d7a47e5f462155914ab010417d56a2d83e57b09344b12f693e1350b30f2102fe148860bf4c8d44d75e23a5c2725d8753409e0b3427bbe5a1cc1a3cb2b72ca652ae00000000", "vin": [{"txinwitness": ["", "3045022100fe0216e596088bc295abec38517a907f7d98b9952871c389a57ed0a54cf1f0e60220529578958c160c4b3e4bd1d345aa2541c0b53d9d4ec3f62f6fce4963aa796c7101", "3045022100b5ee5ef6ba875572142f898f11240e4a3e9ad083e6d86eae5cbfc2b231dce0a70220605537bb632a52f042246d8df295dc67cb1206bce4feb5924efc7c50699c54ca01", "522103862cd2d7a47e5f462155914ab010417d56a2d83e57b09344b12f693e1350b30f2102fe148860bf4c8d44d75e23a5c2725d8753409e0b3427bbe5a1cc1a3cb2b72ca652ae"], "sequence": 4294967295, "scriptSig": {"hex": "220020cd458d5b72141a997c72f8c1f12613459d2b858d968d5d706322fce1e139dfae", "asm": "0020cd458d5b72141a997c72f8c1f12613459d2b858d968d5d706322fce1e139dfae"}, "vout": 1, "txid": "1544b4c499c1b40ce19ccc4c85e08eda7dbf418cc7b7a4be0ae637b52187141c"}], "txid": "978943e28934fbd600989e563610308fdd6d4d14671af9a8ae353b5760d69c1b", "blocktime": 1537876114, "version": 1, "confirmations": 11462, "time": 1537876114, "locktime": 0, "vsize": 206, "size": 372}