{"hash": "978dccb908cc3381a3a2a29807da02846415e1bd9b3e2b0af533bd0daccab805", "blockhash": "00000000000000000004ffacab907a6b429b9a5745fa0b75af4234bf69dd7176", "vout": [{"scriptPubKey": {"reqSigs": 1, "hex": "a9144fe98ac7e8ec9e170680392328ef08b46932c34d87", "addresses": ["38yZ5VJhBsoQuXwEsbkwDc25mkfbdyiPEk"], "asm": "OP_HASH160 4fe98ac7e8ec9e170680392328ef08b46932c34d OP_EQUAL", "type": "scripthash"}, "value": 0.001, "n": 0}, {"scriptPubKey": {"reqSigs": 1, "hex": "76a914e163d073e054266d0f5e025eebd6100b0c946b5b88ac", "addresses": ["1MYkcNyCtPmxivKoMy5v5VBkv6LuBrgrAy"], "asm": "OP_DUP OP_HASH160 e163d073e054266d0f5e025eebd6100b0c946b5b OP_EQUALVERIFY OP_CHECKSIG", "type": "pubkeyhash"}, "value": 0.072251, "n": 1}], "hex": "0100000001e78be31cfc0e40f4eda6a39fb4dd13e77ef26e4534d8c4050acf3a926f02a891010000006a47304402206fbb6810b78f4bf4dd35c5485e94261668f012f9b4d84faf0a902ae9cabd60ae022028f9a59a5ec71f7697cbe40a12f03eaa39d0a4ddd087ebd640a4114c166fb7c10121033387315522fd785dc6a3184e4f2acbd937f90409a105c06583c94e6554220085ffffffff02a08601000000000017a9144fe98ac7e8ec9e170680392328ef08b46932c34d870c3f6e00000000001976a914e163d073e054266d0f5e025eebd6100b0c946b5b88ac00000000", "vin": [{"sequence": 4294967295, "scriptSig": {"hex": "47304402206fbb6810b78f4bf4dd35c5485e94261668f012f9b4d84faf0a902ae9cabd60ae022028f9a59a5ec71f7697cbe40a12f03eaa39d0a4ddd087ebd640a4114c166fb7c10121033387315522fd785dc6a3184e4f2acbd937f90409a105c06583c94e6554220085", "asm": "304402206fbb6810b78f4bf4dd35c5485e94261668f012f9b4d84faf0a902ae9cabd60ae022028f9a59a5ec71f7697cbe40a12f03eaa39d0a4ddd087ebd640a4114c166fb7c1[ALL] 033387315522fd785dc6a3184e4f2acbd937f90409a105c06583c94e6554220085"}, "vout": 1, "txid": "91a8026f923acf0a05c4d834456ef27ee713ddb49fa3a6edf4400efc1ce38be7"}], "txid": "978dccb908cc3381a3a2a29807da02846415e1bd9b3e2b0af533bd0daccab805", "blocktime": 1537875543, "version": 1, "confirmations": 11464, "time": 1537875543, "locktime": 0, "vsize": 223, "size": 223}