{"hash": "97971aaa3b1e02b5d13ebd4c1e5e1a225e08818080e17eecf33e645bf417581f", "blockhash": "00000000000000000024a2167bbff67b0be802c0b01cdd79e6331c2be6459f87", "vout": [{"scriptPubKey": {"reqSigs": 1, "hex": "76a9149d0d420e97f50ff70d9533489984f047a38c4d8188ac", "addresses": ["1FKQyJWHgsXAGea9aAibTFK7QqFVZsXPjJ"], "asm": "OP_DUP OP_HASH160 9d0d420e97f50ff70d9533489984f047a38c4d81 OP_EQUALVERIFY OP_CHECKSIG", "type": "pubkeyhash"}, "value": 2.645e-05, "n": 0}, {"scriptPubKey": {"reqSigs": 1, "hex": "76a9148115d5903c7d0d6529907c9b973cb0c86c4b852388ac", "addresses": ["1CmYKpHE3NhiVuMcCj68eMXs39D5HUwfhN"], "asm": "OP_DUP OP_HASH160 8115d5903c7d0d6529907c9b973cb0c86c4b8523 OP_EQUALVERIFY OP_CHECKSIG", "type": "pubkeyhash"}, "value": 0.02637785, "n": 1}], "hex": "0100000001b105260e4a7ebf2f3aa66d39c3bf814a20e72e5f68716990913ae7431dd6ff0e010000006a473044022065de7eaca324f0777dfac0c3310617914020bf26df3ce96d0ff8d1d01176fe7202202cb2e11d768f3cc482fc4dcb1f587f1f7fa3d68828ed9c510d1efef38f1445cb012102540de2c36956e42aa0c616d1f917cd037e8ed661a5023f0bb8ed45df7261b23cffffffff02550a0000000000001976a9149d0d420e97f50ff70d9533489984f047a38c4d8188acd93f2800000000001976a9148115d5903c7d0d6529907c9b973cb0c86c4b852388ac00000000", "vin": [{"sequence": 4294967295, "scriptSig": {"hex": "473044022065de7eaca324f0777dfac0c3310617914020bf26df3ce96d0ff8d1d01176fe7202202cb2e11d768f3cc482fc4dcb1f587f1f7fa3d68828ed9c510d1efef38f1445cb012102540de2c36956e42aa0c616d1f917cd037e8ed661a5023f0bb8ed45df7261b23c", "asm": "3044022065de7eaca324f0777dfac0c3310617914020bf26df3ce96d0ff8d1d01176fe7202202cb2e11d768f3cc482fc4dcb1f587f1f7fa3d68828ed9c510d1efef38f1445cb[ALL] 02540de2c36956e42aa0c616d1f917cd037e8ed661a5023f0bb8ed45df7261b23c"}, "vout": 1, "txid": "0effd61d43e73a91906971685f2ee7204a81bfc3396da63a2fbf7e4a0e2605b1"}], "txid": "97971aaa3b1e02b5d13ebd4c1e5e1a225e08818080e17eecf33e645bf417581f", "blocktime": 1537870564, "version": 1, "confirmations": 11515, "time": 1537870564, "locktime": 0, "vsize": 225, "size": 225}