{"hash": "979f10e1b6e656c2f4a8217c2a51261e28b252c8fddc935e61618ab0c682422b", "blockhash": "0000000000000000001cda96e906b7601b7a6fb1a3b62bca570a9e5d8f4b3de1", "vout": [{"scriptPubKey": {"reqSigs": 1, "hex": "76a9142ad3441aa064681ad45440fb3a9bd9e2b31e069d88ac", "addresses": ["14uSU5XdoTs7mJWQYJFRyjUyNjW52Dq8ky"], "asm": "OP_DUP OP_HASH160 2ad3441aa064681ad45440fb3a9bd9e2b31e069d OP_EQUALVERIFY OP_CHECKSIG", "type": "pubkeyhash"}, "value": 0.00015611, "n": 0}, {"scriptPubKey": {"reqSigs": 1, "hex": "76a914fbc1fee86bf6e809482fa61bf95e59f500d45b7088ac", "addresses": ["1PxB1D9Cu5T6PQsLuxi9C8iMeZQzW58RRR"], "asm": "OP_DUP OP_HASH160 fbc1fee86bf6e809482fa61bf95e59f500d45b70 OP_EQUALVERIFY OP_CHECKSIG", "type": "pubkeyhash"}, "value": 0.0038027, "n": 1}], "hex": "010000000170928c216a5b6301eb71793c31a1005060e7155dab0c1d04bdd79ff1db52d9c02f0000006a47304402206d3e03a6483dd7fa45fed2defd9151f0e7f72ed5dd9525a0281ef775ac268067022057b4ea478fe3f47ae715c546eec970815f0e6962e40e93c736e0233793a71244012103f69d9eee3bd753e5bc18ef91bcaa88365e360104752a4f0b8deafbdc6268ad20ffffffff02fb3c0000000000001976a9142ad3441aa064681ad45440fb3a9bd9e2b31e069d88ac6ecd0500000000001976a914fbc1fee86bf6e809482fa61bf95e59f500d45b7088ac00000000", "vin": [{"sequence": 4294967295, "scriptSig": {"hex": "47304402206d3e03a6483dd7fa45fed2defd9151f0e7f72ed5dd9525a0281ef775ac268067022057b4ea478fe3f47ae715c546eec970815f0e6962e40e93c736e0233793a71244012103f69d9eee3bd753e5bc18ef91bcaa88365e360104752a4f0b8deafbdc6268ad20", "asm": "304402206d3e03a6483dd7fa45fed2defd9151f0e7f72ed5dd9525a0281ef775ac268067022057b4ea478fe3f47ae715c546eec970815f0e6962e40e93c736e0233793a71244[ALL] 03f69d9eee3bd753e5bc18ef91bcaa88365e360104752a4f0b8deafbdc6268ad20"}, "vout": 47, "txid": "c0d952dbf19fd7bd041d0cab5d15e7605000a1313c7971eb01635b6a218c9270"}], "txid": "979f10e1b6e656c2f4a8217c2a51261e28b252c8fddc935e61618ab0c682422b", "blocktime": 1537873282, "version": 1, "confirmations": 11484, "time": 1537873282, "locktime": 0, "vsize": 225, "size": 225}