{"hash": "97a29cfd0bc41734493ec72fd8039c8da3fb0f5574898bbeb856a95298d52303", "blockhash": "0000000000000000001f0ddff1eddb255c1121bcd4da4f1bc9a0da00cae72433", "vout": [{"scriptPubKey": {"reqSigs": 1, "hex": "76a914349c368a1cceceb4b0ff660e570c786da81967d988ac", "addresses": ["15oBGrB5n7ELgfAR5w75624GzfpdDvSncu"], "asm": "OP_DUP OP_HASH160 349c368a1cceceb4b0ff660e570c786da81967d9 OP_EQUALVERIFY OP_CHECKSIG", "type": "pubkeyhash"}, "value": 0.00166535, "n": 0}, {"scriptPubKey": {"reqSigs": 1, "hex": "76a9141b5c850cc439883d81492b573a9e6630b7d8d2a988ac", "addresses": ["13Vg5ZdsVzSdN1kfDoRFcW52a9TDiJ2NyR"], "asm": "OP_DUP OP_HASH160 1b5c850cc439883d81492b573a9e6630b7d8d2a9 OP_EQUALVERIFY OP_CHECKSIG", "type": "pubkeyhash"}, "value": 0.0238469, "n": 1}], "hex": "0100000001a96018b1401dd6c0bd0251b2ad6c23dd31d0937191c3c643576ee4fffe629af3000000006a473044022046e25a532267b389fb0899885393ec94222abe49690c558bcaf3ab50893067b702201e16e8ffac87613e0c54781d7a2348003b3b552a57f72d194db9387228d6015b01210375fd9dbdfd29d13feb61c6090a064f7c8ee6a3057243e6eec8eb8269040f7356ffffffff02878a0200000000001976a914349c368a1cceceb4b0ff660e570c786da81967d988ac32632400000000001976a9141b5c850cc439883d81492b573a9e6630b7d8d2a988ac00000000", "vin": [{"sequence": 4294967295, "scriptSig": {"hex": "473044022046e25a532267b389fb0899885393ec94222abe49690c558bcaf3ab50893067b702201e16e8ffac87613e0c54781d7a2348003b3b552a57f72d194db9387228d6015b01210375fd9dbdfd29d13feb61c6090a064f7c8ee6a3057243e6eec8eb8269040f7356", "asm": "3044022046e25a532267b389fb0899885393ec94222abe49690c558bcaf3ab50893067b702201e16e8ffac87613e0c54781d7a2348003b3b552a57f72d194db9387228d6015b[ALL] 0375fd9dbdfd29d13feb61c6090a064f7c8ee6a3057243e6eec8eb8269040f7356"}, "vout": 0, "txid": "f39a62feffe46e5743c6c3917193d031dd236cadb25102bdc0d61d40b11860a9"}], "txid": "97a29cfd0bc41734493ec72fd8039c8da3fb0f5574898bbeb856a95298d52303", "blocktime": 1537872018, "version": 1, "confirmations": 11489, "time": 1537872018, "locktime": 0, "vsize": 225, "size": 225}