{"hash": "2e8f362c0d164bb5e458a4fcc5f7ebff9c43c0a056e1de563915b3d0bc831e53", "blockhash": "00000000000000000004ffacab907a6b429b9a5745fa0b75af4234bf69dd7176", "vout": [{"scriptPubKey": {"reqSigs": 1, "hex": "a91455e48e60936f2dc4e0a6c9905ce55eb21b68776087", "addresses": ["39XBAD85LbxmH6eL3tPjjAzpvaeFZ1mHNT"], "asm": "OP_HASH160 55e48e60936f2dc4e0a6c9905ce55eb21b687760 OP_EQUAL", "type": "scripthash"}, "value": 0.115919, "n": 0}, {"scriptPubKey": {"reqSigs": 1, "hex": "a9149c9afc7f754f217e59db011a12c2cc521440c87587", "addresses": ["3Fy517CBkFy6dwVDyN3LGv4KubnrnCR5bF"], "asm": "OP_HASH160 9c9afc7f754f217e59db011a12c2cc521440c875 OP_EQUAL", "type": "scripthash"}, "value": 0.00998546, "n": 1}], "hex": "020000000001033de6061c19b3dc2c646f2f59cc68dbf3ed14c8cf873e6eb3d5a02a196c28bd0f0200000017160014397778641198a5652cef7819c6e7eeca1c258c9bfeffffff3eb3d5987561cd2473238196d9e18430237ae5c923b84de96d6523098b24ce5e0000000017160014e087aff61d2d69e913404a2979f064e15a044594feffffff8d6c6f93818cae9c36349c83defe4637373cb028bcb70ef2cb7fa6d490b66e480100000017160014162fe88500d36a9279ee6c3d42be660431f90b04feffffff02dce0b0000000000017a91455e48e60936f2dc4e0a6c9905ce55eb21b68776087923c0f000000000017a9149c9afc7f754f217e59db011a12c2cc521440c8758702483045022100a47808e419e5bccf55555f675a9e8910af0c331ae6779fde00da1cb25ba34afe02204703bc2e60fe8960ad3960af57ef555613e11f6074e00f4faca2bf93c264a85c0121025bff963f53e2447c7107be23fab2ce99dd473d885953a728f6fbaa4776e3446102473044022015986560e9d8cb8675e9245fed3773f906931737a8a5795e0e0d3cefd004bebb022021745af07856c52003eb12c55ae7bf2a4134727bfd6555028e8e8e2c3854605f01210361e43a598d126a1a020733979df782af85473368033b3c7a9bc08eb803d7ceac02483045022100f6b901993d966705e1db081f2eb091e2fb6b2991bbfeee07b1e88522b64b149202200975cedbf8fa423482df5a68db77de596b0f3bc6834b98548f901b46b334d78e012102ba7292b4e8c4e191d04948c258a750f13fa44c7f7d910df352573e5b2526402116490800", "vin": [{"txinwitness": ["3045022100a47808e419e5bccf55555f675a9e8910af0c331ae6779fde00da1cb25ba34afe02204703bc2e60fe8960ad3960af57ef555613e11f6074e00f4faca2bf93c264a85c01", "025bff963f53e2447c7107be23fab2ce99dd473d885953a728f6fbaa4776e34461"], "sequence": 4294967294, "scriptSig": {"hex": "160014397778641198a5652cef7819c6e7eeca1c258c9b", "asm": "0014397778641198a5652cef7819c6e7eeca1c258c9b"}, "vout": 2, "txid": "0fbd286c192aa0d5b36e3e87cfc814edf3db68cc592f6f642cdcb3191c06e63d"}, {"txinwitness": ["3044022015986560e9d8cb8675e9245fed3773f906931737a8a5795e0e0d3cefd004bebb022021745af07856c52003eb12c55ae7bf2a4134727bfd6555028e8e8e2c3854605f01", "0361e43a598d126a1a020733979df782af85473368033b3c7a9bc08eb803d7ceac"], "sequence": 4294967294, "scriptSig": {"hex": "160014e087aff61d2d69e913404a2979f064e15a044594", "asm": "0014e087aff61d2d69e913404a2979f064e15a044594"}, "vout": 0, "txid": "5ece248b0923656de94db823c9e57a233084e1d99681237324cd617598d5b33e"}, {"txinwitness": ["3045022100f6b901993d966705e1db081f2eb091e2fb6b2991bbfeee07b1e88522b64b149202200975cedbf8fa423482df5a68db77de596b0f3bc6834b98548f901b46b334d78e01", "02ba7292b4e8c4e191d04948c258a750f13fa44c7f7d910df352573e5b25264021"], "sequence": 4294967294, "scriptSig": {"hex": "160014162fe88500d36a9279ee6c3d42be660431f90b04", "asm": "0014162fe88500d36a9279ee6c3d42be660431f90b04"}, "vout": 1, "txid": "486eb690d4a67fcbf20eb7bc28b03c373746fede839c34369cae8c81936f6c8d"}], "txid": "97a959529470c852afa2d82f937ed118db8dcd24bd1384cdd79983378c725795", "blocktime": 1537875543, "version": 2, "confirmations": 11464, "time": 1537875543, "locktime": 542998, "vsize": 348, "size": 591}