{"hash": "2574ca382b9fcbe7044107832b542d91d0e6620272fb5340434c15a0e13305b7", "blockhash": "0000000000000000000e13cef7c366c0283d82e591d1acd082e914b08063cdf1", "vout": [{"scriptPubKey": {"reqSigs": 1, "hex": "a91430897cc6c9d69f6a2c2f1c651d51f22219f1a4f687", "addresses": ["367f4YWz1VCFaqBqwbTrzwi2b1h2U3w1AF"], "asm": "OP_HASH160 30897cc6c9d69f6a2c2f1c651d51f22219f1a4f6 OP_EQUAL", "type": "scripthash"}, "value": 0.00836435, "n": 0}, {"scriptPubKey": {"reqSigs": 1, "hex": "76a91462a2d1098448f4c4b2935d3e406534db886795b588ac", "addresses": ["19zYGVX5towkWLzN6gvhHxtHuKNH2dgF32"], "asm": "OP_DUP OP_HASH160 62a2d1098448f4c4b2935d3e406534db886795b5 OP_EQUALVERIFY OP_CHECKSIG", "type": "pubkeyhash"}, "value": 0.02009615, "n": 1}], "hex": "01000000000101653fc57fe237fc6f438975d8cf1d6cb0986ce89b222cb5753250ee39e64998190000000023220020bcf9f822194145acea0f3235f4107b5bf1a91b6b9f8489f63bf79ec29b360913ffffffff0253c30c000000000017a91430897cc6c9d69f6a2c2f1c651d51f22219f1a4f6870faa1e00000000001976a91462a2d1098448f4c4b2935d3e406534db886795b588ac04004730440220425cab10d1a648e0e5ae822ef16a402aa6a521b1c53b35d6433798ad5e5067ce02203dfbe1ae2f36926c7ce8f0ab5269d00b1e3c1d4bf27f2d4a87e9f24d2e757b4201483045022100e0eb93a629c25f7c392c77df076088e0b92175c2d4d284dba7b22dd45909cb83022026aa2997250d1db3044ab214d3e1ea086ba0f55aa85871042e69ff2f7ca75f2301695221026c8f72b9e63db63907115e65d4da86eaae595b22fdc85ec75301bb4adbf203582103806535be3e3920e5eedee92de5714188fd6a784f2bf7b04f87de0b9c3ae1ecdb21024b23bfdce2afcae7e28c42f7f79aa100f22931712c52d7414a526ba494d44a2553ae00000000", "vin": [{"txinwitness": ["", "30440220425cab10d1a648e0e5ae822ef16a402aa6a521b1c53b35d6433798ad5e5067ce02203dfbe1ae2f36926c7ce8f0ab5269d00b1e3c1d4bf27f2d4a87e9f24d2e757b4201", "3045022100e0eb93a629c25f7c392c77df076088e0b92175c2d4d284dba7b22dd45909cb83022026aa2997250d1db3044ab214d3e1ea086ba0f55aa85871042e69ff2f7ca75f2301", "5221026c8f72b9e63db63907115e65d4da86eaae595b22fdc85ec75301bb4adbf203582103806535be3e3920e5eedee92de5714188fd6a784f2bf7b04f87de0b9c3ae1ecdb21024b23bfdce2afcae7e28c42f7f79aa100f22931712c52d7414a526ba494d44a2553ae"], "sequence": 4294967295, "scriptSig": {"hex": "220020bcf9f822194145acea0f3235f4107b5bf1a91b6b9f8489f63bf79ec29b360913", "asm": "0020bcf9f822194145acea0f3235f4107b5bf1a91b6b9f8489f63bf79ec29b360913"}, "vout": 0, "txid": "199849e639ee503275b52c229be86c98b06c1dcfd87589436ffc37e27fc53f65"}], "txid": "97a9257a6b5239de00658ee81983af9eb186efccda5a665b175d633e2032edc6", "blocktime": 1537871767, "version": 1, "confirmations": 11493, "time": 1537871767, "locktime": 0, "vsize": 216, "size": 407}