{"hash": "97b1a67e6027f25051dc8f6296604c5d5563cec6e1a80cf4077edc08ff48bde8", "blockhash": "0000000000000000000baef3f32e3676a92c3b2e5da21b426e4f302fc371ce76", "vout": [{"scriptPubKey": {"type": "nulldata", "hex": "6a4c50000078260001c855b8a7f15b306724ff40f1019d6ddc0f1b8ff117702940d64fa54d8eb22ffc34be4671dbad33a0fa993d9cfb045baa1e6b0613bc4b0959053a1d100759d4ba30d2c37bb011d97e02cf", "asm": "OP_RETURN 000078260001c855b8a7f15b306724ff40f1019d6ddc0f1b8ff117702940d64fa54d8eb22ffc34be4671dbad33a0fa993d9cfb045baa1e6b0613bc4b0959053a1d100759d4ba30d2c37bb011d97e02cf"}, "value": 0.0, "n": 0}, {"scriptPubKey": {"reqSigs": 1, "hex": "76a914b98cbb915bf515b3429cb604aa83dcfec406969088ac", "addresses": ["1Hv6bmVcuZ1Ct7Dkd93Y64vPgpFxuBFZKC"], "asm": "OP_DUP OP_HASH160 b98cbb915bf515b3429cb604aa83dcfec4069690 OP_EQUALVERIFY OP_CHECKSIG", "type": "pubkeyhash"}, "value": 0.00627209, "n": 1}], "hex": "01000000015d0440a6247b826b4600b346c57b61be9e0a67dfbd454f2917eea8c42b41cce7000000006b483045022100cef4d2e4b1cd2b1b1b9e30313430f62428bdc0a5bd1965614a622d4f2754190e022005637a8b0d2693dcf293051d10114ff7c9ea67a589fcfe7213ecf640012559110121039cf85806a28344d4de0df3f79cbc42a8ad2bcef345fb5f1468579f244bc7752effffffff020000000000000000536a4c50000078260001c855b8a7f15b306724ff40f1019d6ddc0f1b8ff117702940d64fa54d8eb22ffc34be4671dbad33a0fa993d9cfb045baa1e6b0613bc4b0959053a1d100759d4ba30d2c37bb011d97e02cf09920900000000001976a914b98cbb915bf515b3429cb604aa83dcfec406969088ac00000000", "vin": [{"sequence": 4294967295, "scriptSig": {"hex": "483045022100cef4d2e4b1cd2b1b1b9e30313430f62428bdc0a5bd1965614a622d4f2754190e022005637a8b0d2693dcf293051d10114ff7c9ea67a589fcfe7213ecf640012559110121039cf85806a28344d4de0df3f79cbc42a8ad2bcef345fb5f1468579f244bc7752e", "asm": "3045022100cef4d2e4b1cd2b1b1b9e30313430f62428bdc0a5bd1965614a622d4f2754190e022005637a8b0d2693dcf293051d10114ff7c9ea67a589fcfe7213ecf64001255911[ALL] 039cf85806a28344d4de0df3f79cbc42a8ad2bcef345fb5f1468579f244bc7752e"}, "vout": 0, "txid": "e7cc412bc4a8ee17294f45bddf670a9ebe617bc546b300466b827b24a640045d"}], "txid": "97b1a67e6027f25051dc8f6296604c5d5563cec6e1a80cf4077edc08ff48bde8", "blocktime": 1537876114, "version": 1, "confirmations": 11462, "time": 1537876114, "locktime": 0, "vsize": 284, "size": 284}