{"hash": "97b3b124406174a6a5dd670204ebccf0a247289fc5ffdba834d524114c20aebe", "blockhash": "00000000000000000017f5eb5941039fbcee6240d03bc1f2f8e35350df66a1d8", "vout": [{"scriptPubKey": {"reqSigs": 1, "hex": "76a914f3ee95f49e4852e25fe1235c46e81267bd91795b88ac", "addresses": ["1PEo1qyAPMaKyTxnk4FrfnkNZnSwzCJaCB"], "asm": "OP_DUP OP_HASH160 f3ee95f49e4852e25fe1235c46e81267bd91795b OP_EQUALVERIFY OP_CHECKSIG", "type": "pubkeyhash"}, "value": 0.00172875, "n": 0}, {"scriptPubKey": {"reqSigs": 1, "hex": "76a9143cd71d9145c10f19ebd272dbdf82022a3c6ecba588ac", "addresses": ["16YhEzojaE1VuD1JKWmP5gj3bZ6cQutLPH"], "asm": "OP_DUP OP_HASH160 3cd71d9145c10f19ebd272dbdf82022a3c6ecba5 OP_EQUALVERIFY OP_CHECKSIG", "type": "pubkeyhash"}, "value": 0.00173366, "n": 1}], "hex": "0100000001b4108f5e4e482438b7440df668c8cce927c739330a23e3b9eaefbd46c726eb90000000006b483045022100f99fa5dda6e561439dc0ac8e56d4b0d9bb64a2dda287d74cf5cc584a34b74636022063338b0a19c6c751fef19462d40cd0d5e1e9e4dac3e6de47f58c2f1cb14f7eae01210289ebf588e390674456a4cb9f7109f357a71d47df60785b3a854b73446dc49516ffffffff024ba30200000000001976a914f3ee95f49e4852e25fe1235c46e81267bd91795b88ac36a50200000000001976a9143cd71d9145c10f19ebd272dbdf82022a3c6ecba588ac00000000", "vin": [{"sequence": 4294967295, "scriptSig": {"hex": "483045022100f99fa5dda6e561439dc0ac8e56d4b0d9bb64a2dda287d74cf5cc584a34b74636022063338b0a19c6c751fef19462d40cd0d5e1e9e4dac3e6de47f58c2f1cb14f7eae01210289ebf588e390674456a4cb9f7109f357a71d47df60785b3a854b73446dc49516", "asm": "3045022100f99fa5dda6e561439dc0ac8e56d4b0d9bb64a2dda287d74cf5cc584a34b74636022063338b0a19c6c751fef19462d40cd0d5e1e9e4dac3e6de47f58c2f1cb14f7eae[ALL] 0289ebf588e390674456a4cb9f7109f357a71d47df60785b3a854b73446dc49516"}, "vout": 0, "txid": "90eb26c746bdefeab9e3230a3339c727e9ccc868f60d44b73824484e5e8f10b4"}], "txid": "97b3b124406174a6a5dd670204ebccf0a247289fc5ffdba834d524114c20aebe", "blocktime": 1537874412, "version": 1, "confirmations": 11468, "time": 1537874412, "locktime": 0, "vsize": 226, "size": 226}