{"hash": "97b54239a52a26f77d4333bae02229cdd65cbb0eda51bc96f63f4488500784a8", "blockhash": "0000000000000000000baef3f32e3676a92c3b2e5da21b426e4f302fc371ce76", "vout": [{"scriptPubKey": {"reqSigs": 1, "hex": "76a9141d6d52ad7d648f074ab8d58baf68e4b19cf63efd88ac", "addresses": ["13gbZTRGbXzGhVqiTAVTB3u2Fizz6U3fD3"], "asm": "OP_DUP OP_HASH160 1d6d52ad7d648f074ab8d58baf68e4b19cf63efd OP_EQUALVERIFY OP_CHECKSIG", "type": "pubkeyhash"}, "value": 6.937e-05, "n": 0}, {"scriptPubKey": {"reqSigs": 1, "hex": "76a9143a86bec71f4d2a0cd915bcb2e18cefcb253cbe4488ac", "addresses": ["16LTcPYDMoZXEvYiaQw76xwR4UjQp7VntX"], "asm": "OP_DUP OP_HASH160 3a86bec71f4d2a0cd915bcb2e18cefcb253cbe44 OP_EQUALVERIFY OP_CHECKSIG", "type": "pubkeyhash"}, "value": 0.0032, "n": 1}], "hex": "010000000172a838d8d2d32f6d6d541e9c024f76c3d4af03f8be67967b7fb3423ac8a67ddb000000006b48304502210082b3523adcaf6580d9a6d931afcd05c3f7c6f4d6580dd46f8e5ecf1d269416b10220674d7e692f74fa7c5b4c051179be1ee0811015551ca628a22f4568e78800e35c012103cffce04f4b87a1228ac65475219057657a293e658330eace51037ac2af2f9818fdffffff02191b0000000000001976a9141d6d52ad7d648f074ab8d58baf68e4b19cf63efd88ac00e20400000000001976a9143a86bec71f4d2a0cd915bcb2e18cefcb253cbe4488ac16490800", "vin": [{"sequence": 4294967293, "scriptSig": {"hex": "48304502210082b3523adcaf6580d9a6d931afcd05c3f7c6f4d6580dd46f8e5ecf1d269416b10220674d7e692f74fa7c5b4c051179be1ee0811015551ca628a22f4568e78800e35c012103cffce04f4b87a1228ac65475219057657a293e658330eace51037ac2af2f9818", "asm": "304502210082b3523adcaf6580d9a6d931afcd05c3f7c6f4d6580dd46f8e5ecf1d269416b10220674d7e692f74fa7c5b4c051179be1ee0811015551ca628a22f4568e78800e35c[ALL] 03cffce04f4b87a1228ac65475219057657a293e658330eace51037ac2af2f9818"}, "vout": 0, "txid": "db7da6c83a42b37f7b9667bef803afd4c3764f029c1e546d6d2fd3d2d838a872"}], "txid": "97b54239a52a26f77d4333bae02229cdd65cbb0eda51bc96f63f4488500784a8", "blocktime": 1537876114, "version": 1, "confirmations": 11462, "time": 1537876114, "locktime": 542998, "vsize": 226, "size": 226}