{"hash": "97b52f661374de4868144b07b476bafde391d1175ff9358d62fdfd6fac095b1c", "blockhash": "0000000000000000000dcc0f55137456b1a82d3642486a52398922ac4d620174", "vout": [{"scriptPubKey": {"reqSigs": 1, "hex": "76a91472ce053a8736fcefca494232a91239e95f11355d88ac", "addresses": ["1BU2qRHWV2nuGv5ukDVavyUJXWZPH9PDiv"], "asm": "OP_DUP OP_HASH160 72ce053a8736fcefca494232a91239e95f11355d OP_EQUALVERIFY OP_CHECKSIG", "type": "pubkeyhash"}, "value": 0.00061097, "n": 0}], "hex": "010000000a31417c51385aa278c558448da0a2c8bde231dc8a63516e9f115238ccebb40106070000006b4830450221008ef43e931f04a24f05406969e5483e0cf1a46a9441beb9f10be6a09acfc0641602205c15909f672b8db91033de9533c0b6cd3551b333d279ebd6a8bc2f840eeed737012102de4f5f02cc7c2b3d004e1386c5ec04e81357abd0fb720bff99865bfe385b6dfbffffffff1d074890b8373fd6ec9caf9624cabed47ef20b9cf641ccfcceb738c0f5e3a444280000006b4830450221009bbc6b83d40d70b1b59818d66d4261a65bea83b9d2c419b1f711e1877be89a1d02203c06132cda277491cb5aba234b9356d36ab6d4782e157ad3dcb9ae63e0514fdd012102de4f5f02cc7c2b3d004e1386c5ec04e81357abd0fb720bff99865bfe385b6dfbffffffffc57f3580301ecaf26f774e72bd89091a249fa63d725107fc54efed776d91cd661d0000006b483045022100d7876b6063fba88f680f28a36b8168bd92e96efa069929cb3c96cf61076624420220024fa10dea38bb6bbeae9d3aecc73d8e74ac37cedf99cf6ab913d6e4bedf41be012102de4f5f02cc7c2b3d004e1386c5ec04e81357abd0fb720bff99865bfe385b6dfbffffffff3186371fa24076c0210449fdbb0deb0c4d27993ab7f21956fbe6ece36b5ccb68f10000006b483045022100ba146b8f664b462504612e3e1410d1f69ef03febadac785fa8a25d6ef8e6ae24022044e2abbd49231b0d7dd45cee36fc91eead1a481153580bc07220c04afe53391101210366c387861abf4f7d8eecee4f2e474eefa4322a235f2f5d5e897cdaf6c9242fe4ffffffff389746b623f4e57a61b2447d38ed5653d107296cbf31e0ba42347bd588271a73070000006b483045022100fe7997e8d0999641972dca15975b87f918ebbcc03b2770d164bfb0236c6d9cec0220686b950eb70f1717a68458f6d1b7d3bc00ec4e45c3bad7af7ad2f05ebbf86ddc012102de4f5f02cc7c2b3d004e1386c5ec04e81357abd0fb720bff99865bfe385b6dfbffffffff930b306b9327f34766696d1dd74ebe6657a73464f091c01138363528c6905a8c200000006b483045022100c7651000f73ed9a1a86564193032d8c4ef929c69052a920c7b9f11587ad2f56c02207cff68df985f52836eb709dff57c3adbf445a4b17a5a9ca2a8d622d1363c039c012102de4f5f02cc7c2b3d004e1386c5ec04e81357abd0fb720bff99865bfe385b6dfbffffffffbaa530a1226651efdbfb66321564a46d426e3502947c2828ff6857abc7029ab5140000006b483045022100d45f36db791477b6dab3888864fdca42a2900d3ae804db0e409987ff98fadb13022018f54a09f2fc027aada119d1eec4201755e7e6485a4a80caf84fc0cd28bcf5b8012102de4f5f02cc7c2b3d004e1386c5ec04e81357abd0fb720bff99865bfe385b6dfbffffffffac1f38d866ecd346c965b282b1a50b7dcd22e10730e34de7e219303ccdd351bdd70100006b483045022100a8af81dc6232c2cec136249a65060a9612ed6c40c6fe37104ee4122d53626db502204e149283da302355f131f4cdc5c3f865b41cf75e7f1f9bd907c840d66ff15e8b012102de4f5f02cc7c2b3d004e1386c5ec04e81357abd0fb720bff99865bfe385b6dfbffffffff851a107608f6335a16bb82a515a0e86a88b1de9496128e1ea64ea4c5de75a8f2240000006a473044022069d13ed49a474f0d42a3c30242b2932cf7c8b8eeb2a2cf8e0dbaa11d5f6a205b022079215772b2e28573f7cb260beaf67b573ca03573758afe6899091aa60e4d5390012102de4f5f02cc7c2b3d004e1386c5ec04e81357abd0fb720bff99865bfe385b6dfbffffffffee404435157f08c2c60900258241f88edb8f92887e89b525b54266675d41ddfc0c0000006b4830450221009518fae59991e8619c1424bc81877481e927e462dc8c7729c1e47dedb7edb0990220083f3cce0fabccc6e5061b50fa1a478e9a9c1249bdac2854b1c1ef1cc7052ff8012102de4f5f02cc7c2b3d004e1386c5ec04e81357abd0fb720bff99865bfe385b6dfbffffffff01a9ee0000000000001976a91472ce053a8736fcefca494232a91239e95f11355d88ac00000000", "vin": [{"sequence": 4294967295, "scriptSig": {"hex": "4830450221008ef43e931f04a24f05406969e5483e0cf1a46a9441beb9f10be6a09acfc0641602205c15909f672b8db91033de9533c0b6cd3551b333d279ebd6a8bc2f840eeed737012102de4f5f02cc7c2b3d004e1386c5ec04e81357abd0fb720bff99865bfe385b6dfb", "asm": "30450221008ef43e931f04a24f05406969e5483e0cf1a46a9441beb9f10be6a09acfc0641602205c15909f672b8db91033de9533c0b6cd3551b333d279ebd6a8bc2f840eeed737[ALL] 02de4f5f02cc7c2b3d004e1386c5ec04e81357abd0fb720bff99865bfe385b6dfb"}, "vout": 7, "txid": "0601b4ebcc3852119f6e51638adc31e2bdc8a2a08d4458c578a25a38517c4131"}, {"sequence": 4294967295, "scriptSig": {"hex": "4830450221009bbc6b83d40d70b1b59818d66d4261a65bea83b9d2c419b1f711e1877be89a1d02203c06132cda277491cb5aba234b9356d36ab6d4782e157ad3dcb9ae63e0514fdd012102de4f5f02cc7c2b3d004e1386c5ec04e81357abd0fb720bff99865bfe385b6dfb", "asm": "30450221009bbc6b83d40d70b1b59818d66d4261a65bea83b9d2c419b1f711e1877be89a1d02203c06132cda277491cb5aba234b9356d36ab6d4782e157ad3dcb9ae63e0514fdd[ALL] 02de4f5f02cc7c2b3d004e1386c5ec04e81357abd0fb720bff99865bfe385b6dfb"}, "vout": 40, "txid": "44a4e3f5c038b7cefccc41f69c0bf27ed4beca2496af9cecd63f37b89048071d"}, {"sequence": 4294967295, "scriptSig": {"hex": "483045022100d7876b6063fba88f680f28a36b8168bd92e96efa069929cb3c96cf61076624420220024fa10dea38bb6bbeae9d3aecc73d8e74ac37cedf99cf6ab913d6e4bedf41be012102de4f5f02cc7c2b3d004e1386c5ec04e81357abd0fb720bff99865bfe385b6dfb", "asm": "3045022100d7876b6063fba88f680f28a36b8168bd92e96efa069929cb3c96cf61076624420220024fa10dea38bb6bbeae9d3aecc73d8e74ac37cedf99cf6ab913d6e4bedf41be[ALL] 02de4f5f02cc7c2b3d004e1386c5ec04e81357abd0fb720bff99865bfe385b6dfb"}, "vout": 29, "txid": "66cd916d77edef54fc0751723da69f241a0989bd724e776ff2ca1e3080357fc5"}, {"sequence": 4294967295, "scriptSig": {"hex": "483045022100ba146b8f664b462504612e3e1410d1f69ef03febadac785fa8a25d6ef8e6ae24022044e2abbd49231b0d7dd45cee36fc91eead1a481153580bc07220c04afe53391101210366c387861abf4f7d8eecee4f2e474eefa4322a235f2f5d5e897cdaf6c9242fe4", "asm": "3045022100ba146b8f664b462504612e3e1410d1f69ef03febadac785fa8a25d6ef8e6ae24022044e2abbd49231b0d7dd45cee36fc91eead1a481153580bc07220c04afe533911[ALL] 0366c387861abf4f7d8eecee4f2e474eefa4322a235f2f5d5e897cdaf6c9242fe4"}, "vout": 241, "txid": "68cb5c6be3ece6fb5619f2b73a99274d0ceb0dbbfd490421c07640a21f378631"}, {"sequence": 4294967295, "scriptSig": {"hex": "483045022100fe7997e8d0999641972dca15975b87f918ebbcc03b2770d164bfb0236c6d9cec0220686b950eb70f1717a68458f6d1b7d3bc00ec4e45c3bad7af7ad2f05ebbf86ddc012102de4f5f02cc7c2b3d004e1386c5ec04e81357abd0fb720bff99865bfe385b6dfb", "asm": "3045022100fe7997e8d0999641972dca15975b87f918ebbcc03b2770d164bfb0236c6d9cec0220686b950eb70f1717a68458f6d1b7d3bc00ec4e45c3bad7af7ad2f05ebbf86ddc[ALL] 02de4f5f02cc7c2b3d004e1386c5ec04e81357abd0fb720bff99865bfe385b6dfb"}, "vout": 7, "txid": "731a2788d57b3442bae031bf6c2907d15356ed387d44b2617ae5f423b6469738"}, {"sequence": 4294967295, "scriptSig": {"hex": "483045022100c7651000f73ed9a1a86564193032d8c4ef929c69052a920c7b9f11587ad2f56c02207cff68df985f52836eb709dff57c3adbf445a4b17a5a9ca2a8d622d1363c039c012102de4f5f02cc7c2b3d004e1386c5ec04e81357abd0fb720bff99865bfe385b6dfb", "asm": "3045022100c7651000f73ed9a1a86564193032d8c4ef929c69052a920c7b9f11587ad2f56c02207cff68df985f52836eb709dff57c3adbf445a4b17a5a9ca2a8d622d1363c039c[ALL] 02de4f5f02cc7c2b3d004e1386c5ec04e81357abd0fb720bff99865bfe385b6dfb"}, "vout": 32, "txid": "8c5a90c62835363811c091f06434a75766be4ed71d6d696647f327936b300b93"}, {"sequence": 4294967295, "scriptSig": {"hex": "483045022100d45f36db791477b6dab3888864fdca42a2900d3ae804db0e409987ff98fadb13022018f54a09f2fc027aada119d1eec4201755e7e6485a4a80caf84fc0cd28bcf5b8012102de4f5f02cc7c2b3d004e1386c5ec04e81357abd0fb720bff99865bfe385b6dfb", "asm": "3045022100d45f36db791477b6dab3888864fdca42a2900d3ae804db0e409987ff98fadb13022018f54a09f2fc027aada119d1eec4201755e7e6485a4a80caf84fc0cd28bcf5b8[ALL] 02de4f5f02cc7c2b3d004e1386c5ec04e81357abd0fb720bff99865bfe385b6dfb"}, "vout": 20, "txid": "b59a02c7ab5768ff28287c9402356e426da464153266fbdbef516622a130a5ba"}, {"sequence": 4294967295, "scriptSig": {"hex": "483045022100a8af81dc6232c2cec136249a65060a9612ed6c40c6fe37104ee4122d53626db502204e149283da302355f131f4cdc5c3f865b41cf75e7f1f9bd907c840d66ff15e8b012102de4f5f02cc7c2b3d004e1386c5ec04e81357abd0fb720bff99865bfe385b6dfb", "asm": "3045022100a8af81dc6232c2cec136249a65060a9612ed6c40c6fe37104ee4122d53626db502204e149283da302355f131f4cdc5c3f865b41cf75e7f1f9bd907c840d66ff15e8b[ALL] 02de4f5f02cc7c2b3d004e1386c5ec04e81357abd0fb720bff99865bfe385b6dfb"}, "vout": 471, "txid": "bd51d3cd3c3019e2e74de33007e122cd7d0ba5b182b265c946d3ec66d8381fac"}, {"sequence": 4294967295, "scriptSig": {"hex": "473044022069d13ed49a474f0d42a3c30242b2932cf7c8b8eeb2a2cf8e0dbaa11d5f6a205b022079215772b2e28573f7cb260beaf67b573ca03573758afe6899091aa60e4d5390012102de4f5f02cc7c2b3d004e1386c5ec04e81357abd0fb720bff99865bfe385b6dfb", "asm": "3044022069d13ed49a474f0d42a3c30242b2932cf7c8b8eeb2a2cf8e0dbaa11d5f6a205b022079215772b2e28573f7cb260beaf67b573ca03573758afe6899091aa60e4d5390[ALL] 02de4f5f02cc7c2b3d004e1386c5ec04e81357abd0fb720bff99865bfe385b6dfb"}, "vout": 36, "txid": "f2a875dec5a44ea61e8e129694deb1886ae8a015a582bb165a33f60876101a85"}, {"sequence": 4294967295, "scriptSig": {"hex": "4830450221009518fae59991e8619c1424bc81877481e927e462dc8c7729c1e47dedb7edb0990220083f3cce0fabccc6e5061b50fa1a478e9a9c1249bdac2854b1c1ef1cc7052ff8012102de4f5f02cc7c2b3d004e1386c5ec04e81357abd0fb720bff99865bfe385b6dfb", "asm": "30450221009518fae59991e8619c1424bc81877481e927e462dc8c7729c1e47dedb7edb0990220083f3cce0fabccc6e5061b50fa1a478e9a9c1249bdac2854b1c1ef1cc7052ff8[ALL] 02de4f5f02cc7c2b3d004e1386c5ec04e81357abd0fb720bff99865bfe385b6dfb"}, "vout": 12, "txid": "fcdd415d676642b525b5897e88928fdb8ef84182250009c6c2087f15354440ee"}], "txid": "97b52f661374de4868144b07b476bafde391d1175ff9358d62fdfd6fac095b1c", "blocktime": 1537870268, "version": 1, "confirmations": 11518, "time": 1537870268, "locktime": 0, "vsize": 1523, "size": 1523}