{"hash": "97b7901220d81f91d0009e46f17a09bacfefc99d9e354d3d933954d7050a13a5", "blockhash": "00000000000000000018f53835495a110e01622372bf6ae95dc86f2b0ab887b0", "vout": [{"scriptPubKey": {"reqSigs": 1, "hex": "76a914d243e6abb9a60fbff430b421d2df4b7d59ec186088ac", "addresses": ["1LAnF8h3qMGx3TSwNUHVneBZUEpwE4gu3D"], "asm": "OP_DUP OP_HASH160 d243e6abb9a60fbff430b421d2df4b7d59ec1860 OP_EQUALVERIFY OP_CHECKSIG", "type": "pubkeyhash"}, "value": 0.00076972, "n": 0}, {"scriptPubKey": {"reqSigs": 1, "hex": "76a9143851f34d13937b673a7d24a1950bb5b21ce94af388ac", "addresses": ["168o1kqNquEJeR9vosUB5fw4eAwcVAgh8P"], "asm": "OP_DUP OP_HASH160 3851f34d13937b673a7d24a1950bb5b21ce94af3 OP_EQUALVERIFY OP_CHECKSIG", "type": "pubkeyhash"}, "value": 5.46e-06, "n": 1}, {"scriptPubKey": {"type": "nulldata", "hex": "6a146f6d6e69000000000000001f00000010d56a7300", "asm": "OP_RETURN 6f6d6e69000000000000001f00000010d56a7300"}, "value": 0.0, "n": 2}], "hex": "0100000002c962d35ff4f50d2ca108d184bfff07177b04a11ab0ab63a1b18f0b4806e4e65b020000006b483045022100c928a2f9821a68e3ee18c00fed48b95ec3a6d0b6909958a334a4064e7997bb73022033e3dbd88128af4d8fd04a03c7c5fe10138e0bec73adca3131e08c2e6f173556012103eab689f9c1773d405b6caef62d3afb5b845f67c9f09a9383897c800989a0ce7cffffffff359b0614559708dfd9fdb204fcc1a40e5a2de9192d7b690d7b8d0610131302d5000000006b483045022100cf3185ae1680edfc93dd4103fcfc3bd97a54dc05804aea38ed1e326f85e5c53102205de8314bd7db06bb2ebd3113fd505c7132e4c92052e93f0ff463eaf2ccfeb5f701210271977291b74f1f5f5c42157e8aae804664eaaeccfd097918450d37f28fb94d77ffffffff03ac2c0100000000001976a914d243e6abb9a60fbff430b421d2df4b7d59ec186088ac22020000000000001976a9143851f34d13937b673a7d24a1950bb5b21ce94af388ac0000000000000000166a146f6d6e69000000000000001f00000010d56a730000000000", "vin": [{"sequence": 4294967295, "scriptSig": {"hex": "483045022100c928a2f9821a68e3ee18c00fed48b95ec3a6d0b6909958a334a4064e7997bb73022033e3dbd88128af4d8fd04a03c7c5fe10138e0bec73adca3131e08c2e6f173556012103eab689f9c1773d405b6caef62d3afb5b845f67c9f09a9383897c800989a0ce7c", "asm": "3045022100c928a2f9821a68e3ee18c00fed48b95ec3a6d0b6909958a334a4064e7997bb73022033e3dbd88128af4d8fd04a03c7c5fe10138e0bec73adca3131e08c2e6f173556[ALL] 03eab689f9c1773d405b6caef62d3afb5b845f67c9f09a9383897c800989a0ce7c"}, "vout": 2, "txid": "5be6e406480b8fb1a163abb01aa1047b1707ffbf84d108a12c0df5f45fd362c9"}, {"sequence": 4294967295, "scriptSig": {"hex": "483045022100cf3185ae1680edfc93dd4103fcfc3bd97a54dc05804aea38ed1e326f85e5c53102205de8314bd7db06bb2ebd3113fd505c7132e4c92052e93f0ff463eaf2ccfeb5f701210271977291b74f1f5f5c42157e8aae804664eaaeccfd097918450d37f28fb94d77", "asm": "3045022100cf3185ae1680edfc93dd4103fcfc3bd97a54dc05804aea38ed1e326f85e5c53102205de8314bd7db06bb2ebd3113fd505c7132e4c92052e93f0ff463eaf2ccfeb5f7[ALL] 0271977291b74f1f5f5c42157e8aae804664eaaeccfd097918450d37f28fb94d77"}, "vout": 0, "txid": "d502131310068d7b0d697b2d19e92d5a0ea4c1fc04b2fdd9df08975514069b35"}], "txid": "97b7901220d81f91d0009e46f17a09bacfefc99d9e354d3d933954d7050a13a5", "blocktime": 1537870928, "version": 1, "confirmations": 11512, "time": 1537870928, "locktime": 0, "vsize": 405, "size": 405}