{"hash": "bb6eb91404be26f6e28fea86935288203f03bcdd01d0518502825a89d883b753", "blockhash": "00000000000000000024a2167bbff67b0be802c0b01cdd79e6331c2be6459f87", "vout": [{"scriptPubKey": {"reqSigs": 1, "hex": "a914fbe9e771a7b5c5cd3a949150bd56dd5262fea40287", "addresses": ["3Qf1jdhA5u1JpeaijSvig5WBWXK5z83Hdt"], "asm": "OP_HASH160 fbe9e771a7b5c5cd3a949150bd56dd5262fea402 OP_EQUAL", "type": "scripthash"}, "value": 0.01291889, "n": 0}, {"scriptPubKey": {"reqSigs": 1, "hex": "a914c84e93fe630841759aa79c21785d0f0ee9c2d40f87", "addresses": ["3Kx9CcSurxKXhvncHfmTNm1wsgy8Zthm8Q"], "asm": "OP_HASH160 c84e93fe630841759aa79c21785d0f0ee9c2d40f OP_EQUAL", "type": "scripthash"}, "value": 0.39850667, "n": 1}], "hex": "0200000000010322c746cc6d188914d39b2701a7dc4f573cc4cb97ccbe49231a5f6b15ad65cbc80000000017160014c7b68f92620bdb41a9e5691b90a5e5e35d138c81feffffff2b8259bca178ecdbd2c3cb92f67f9a7dccd1deae7d79f3cc1859b2b922fa292e0100000017160014c7ed59e41ac547361cb5a152ed560b5e6de96ec7fefffffffe56e95fe98da5725560b753403d6ce8352ee1da2018a1c0f4a6760e3663fd8c01000000171600140417e813a7ee3fcbabb2d3f03c97122e1db1d823feffffff0271b613000000000017a914fbe9e771a7b5c5cd3a949150bd56dd5262fea40287ab1260020000000017a914c84e93fe630841759aa79c21785d0f0ee9c2d40f870247304402200f0caac7d73ee1a16ffb2ba51bfa24bf95e928d332357c0dd1aa989fcf74858f022021a3601d6b72950bce4dc34892917dd0aaa1f43e8601170ca71ed3099b568a78012102c5f301cb002e80dfe18bc43f7d47163aac1ff52a71c2572d007f05fd54ded87302483045022100b9fb2eea2fa1f7c6aefbaa340b3a61a09be91be97b11a793e642c5348d99b0f50220028ae61e094ff91fdca31c22adc5ed7c672deff9179188df0e612d2196b64b900121026f439d19011390cdc91f887d1be086e35ecbd3fc437b48985f1c650594edf96d02483045022100ef1674cf60dfa4b8d62e609e128bfbbb80ee135550ac15be5d629073eac205fb0220361866eb914c2f5ff20696873555f4470232646ff957a2536cfd48faa0609705012102cc00fda92c7febf771d0a1bbef2b6863e24ddb5767a43669c7c194abafe6f5140d490800", "vin": [{"txinwitness": ["304402200f0caac7d73ee1a16ffb2ba51bfa24bf95e928d332357c0dd1aa989fcf74858f022021a3601d6b72950bce4dc34892917dd0aaa1f43e8601170ca71ed3099b568a7801", "02c5f301cb002e80dfe18bc43f7d47163aac1ff52a71c2572d007f05fd54ded873"], "sequence": 4294967294, "scriptSig": {"hex": "160014c7b68f92620bdb41a9e5691b90a5e5e35d138c81", "asm": "0014c7b68f92620bdb41a9e5691b90a5e5e35d138c81"}, "vout": 0, "txid": "c8cb65ad156b5f1a2349becc97cbc43c574fdca701279bd31489186dcc46c722"}, {"txinwitness": ["3045022100b9fb2eea2fa1f7c6aefbaa340b3a61a09be91be97b11a793e642c5348d99b0f50220028ae61e094ff91fdca31c22adc5ed7c672deff9179188df0e612d2196b64b9001", "026f439d19011390cdc91f887d1be086e35ecbd3fc437b48985f1c650594edf96d"], "sequence": 4294967294, "scriptSig": {"hex": "160014c7ed59e41ac547361cb5a152ed560b5e6de96ec7", "asm": "0014c7ed59e41ac547361cb5a152ed560b5e6de96ec7"}, "vout": 1, "txid": "2e29fa22b9b25918ccf3797daeded1cc7d9a7ff692cbc3d2dbec78a1bc59822b"}, {"txinwitness": ["3045022100ef1674cf60dfa4b8d62e609e128bfbbb80ee135550ac15be5d629073eac205fb0220361866eb914c2f5ff20696873555f4470232646ff957a2536cfd48faa060970501", "02cc00fda92c7febf771d0a1bbef2b6863e24ddb5767a43669c7c194abafe6f514"], "sequence": 4294967294, "scriptSig": {"hex": "1600140417e813a7ee3fcbabb2d3f03c97122e1db1d823", "asm": "00140417e813a7ee3fcbabb2d3f03c97122e1db1d823"}, "vout": 1, "txid": "8cfd63360e76a6f4c0a11820dae12e35e86c3d4053b7605572a58de95fe956fe"}], "txid": "97b9f56488c9840aefa7b995a4f16e18961f9b19830a8816694092fc6f14a8d9", "blocktime": 1537870564, "version": 2, "confirmations": 11515, "time": 1537870564, "locktime": 542989, "vsize": 348, "size": 591}