{"hash": "5558dc6148eb49c8a420ada84e881a65e8c55d6f6bbccd7c54727771568d96bf", "blockhash": "0000000000000000000e13cef7c366c0283d82e591d1acd082e914b08063cdf1", "vout": [{"scriptPubKey": {"reqSigs": 1, "hex": "76a9148fa2fdf78ca506025f7a192c986fbd3ac1ac298c88ac", "addresses": ["1E6UtKUVUfw9psqLdmgSSSPJ6t4xXgrFvE"], "asm": "OP_DUP OP_HASH160 8fa2fdf78ca506025f7a192c986fbd3ac1ac298c OP_EQUALVERIFY OP_CHECKSIG", "type": "pubkeyhash"}, "value": 0.0054624, "n": 0}, {"scriptPubKey": {"reqSigs": 1, "hex": "76a91444c6c19ee29dc7f3391768198fecc2dc428c522c88ac", "addresses": ["17Gf3sqHvg9g92hJ2nthQV7a4BX3txxqfh"], "asm": "OP_DUP OP_HASH160 44c6c19ee29dc7f3391768198fecc2dc428c522c OP_EQUALVERIFY OP_CHECKSIG", "type": "pubkeyhash"}, "value": 0.01696416, "n": 1}, {"scriptPubKey": {"reqSigs": 1, "hex": "a914577cd12bdc7efffcd6098e6d3ae1c8144fba3d6087", "addresses": ["39fcEg8TCfcSSDcst3e1kNGJksWTRNGcUD"], "asm": "OP_HASH160 577cd12bdc7efffcd6098e6d3ae1c8144fba3d60 OP_EQUAL", "type": "scripthash"}, "value": 0.0463818, "n": 2}, {"scriptPubKey": {"reqSigs": 1, "hex": "a9144c6d7880474e5a0ca28f922126797c0b68635bb487", "addresses": ["38f8RHFQ8v6avZqCmaYTga5bTYiuhoM6fh"], "asm": "OP_HASH160 4c6d7880474e5a0ca28f922126797c0b68635bb4 OP_EQUAL", "type": "scripthash"}, "value": 2.32282021, "n": 3}, {"scriptPubKey": {"reqSigs": 1, "hex": "a914300ea97b7121d839f449b8adf9a97e5faa67cff187", "addresses": ["3657vVFtRpSumRqh2oqemapjCNdzbXkP3q"], "asm": "OP_HASH160 300ea97b7121d839f449b8adf9a97e5faa67cff1 OP_EQUAL", "type": "scripthash"}, "value": 0.0091, "n": 4}, {"scriptPubKey": {"reqSigs": 1, "hex": "a9141d5b157d9b619717bc7d6197692af6ea2c755a2087", "addresses": ["34NEdjKbNKMfwockACH7e71WZ3TA3ptMmu"], "asm": "OP_HASH160 1d5b157d9b619717bc7d6197692af6ea2c755a20 OP_EQUAL", "type": "scripthash"}, "value": 0.02138839, "n": 5}, {"scriptPubKey": {"reqSigs": 1, "hex": "76a914838f1b1c40909eb47be399ac21ea548eac26b1fa88ac", "addresses": ["1CzcxJX14BazVVpRaCBfgLdRJRYFYNhoQw"], "asm": "OP_DUP OP_HASH160 838f1b1c40909eb47be399ac21ea548eac26b1fa OP_EQUALVERIFY OP_CHECKSIG", "type": "pubkeyhash"}, "value": 0.177, "n": 6}, {"scriptPubKey": {"reqSigs": 1, "hex": "76a9143db2bc4cf115a03ecf8bd18be06665e6c0547f9388ac", "addresses": ["16dELTzLBaJhuF8mjBgmu3QXeKRMBv6AqR"], "asm": "OP_DUP OP_HASH160 3db2bc4cf115a03ecf8bd18be06665e6c0547f93 OP_EQUALVERIFY OP_CHECKSIG", "type": "pubkeyhash"}, "value": 0.43309833, "n": 7}, {"scriptPubKey": {"reqSigs": 1, "hex": "a914baed1c79cc6325333d5013b44dc17e8256bf5b7187", "addresses": ["3JjPf13Rd8g6WAyvg8yiPnrsdjJt1NP4FC"], "asm": "OP_HASH160 baed1c79cc6325333d5013b44dc17e8256bf5b71 OP_EQUAL", "type": "scripthash"}, "value": 15.6309184, "n": 8}], "hex": "0200000000010155e955c963a8b0aa3fd64a20b2483228d127495173063b022c99be61afa3b28508000000171600140976ae89087e12920490628529bfe4a9107439b1ffffffff09c0550800000000001976a9148fa2fdf78ca506025f7a192c986fbd3ac1ac298c88aca0e21900000000001976a91444c6c19ee29dc7f3391768198fecc2dc428c522c88ace4c546000000000017a914577cd12bdc7efffcd6098e6d3ae1c8144fba3d6087a557d80d0000000017a9144c6d7880474e5a0ca28f922126797c0b68635bb487b0e20d000000000017a914300ea97b7121d839f449b8adf9a97e5faa67cff187d7a220000000000017a9141d5b157d9b619717bc7d6197692af6ea2c755a2087a0140e01000000001976a914838f1b1c40909eb47be399ac21ea548eac26b1fa88ac09db9402000000001976a9143db2bc4cf115a03ecf8bd18be06665e6c0547f9388ac80e32a5d0000000017a914baed1c79cc6325333d5013b44dc17e8256bf5b71870247304402206ef74e18955085a51df45620682282111358b42ef245eaf712fb7cd04d08bb1402202d1f8d97e059103234ec1ea50da9ce0b3939f4d12ab84a7cf0e4ebd71c7e0e7201210248566d3b6acc09341b00ed637bb5b5c4195352e13edb3402acd7f6c00438e50800000000", "vin": [{"txinwitness": ["304402206ef74e18955085a51df45620682282111358b42ef245eaf712fb7cd04d08bb1402202d1f8d97e059103234ec1ea50da9ce0b3939f4d12ab84a7cf0e4ebd71c7e0e7201", "0248566d3b6acc09341b00ed637bb5b5c4195352e13edb3402acd7f6c00438e508"], "sequence": 4294967295, "scriptSig": {"hex": "1600140976ae89087e12920490628529bfe4a9107439b1", "asm": "00140976ae89087e12920490628529bfe4a9107439b1"}, "vout": 8, "txid": "85b2a3af61be992c023b0673514927d1283248b2204ad63faab0a863c955e955"}], "txid": "97bd76b3b15733ea006860b6081d7cc2f4996a5eb3a21371c060151deb300747", "blocktime": 1537871767, "version": 2, "confirmations": 11490, "time": 1537871767, "locktime": 0, "vsize": 398, "size": 479}