{"hash": "97beda1a00e18581c4979fb084831431e0f98a63d46a6f8c170e3e317d36517f", "blockhash": "0000000000000000000e13cef7c366c0283d82e591d1acd082e914b08063cdf1", "vout": [{"scriptPubKey": {"reqSigs": 1, "hex": "76a914d5c5d6c9e847e03216203c76c13fedd9473d140588ac", "addresses": ["1LVKvxSWqNN1G93LWsrFzGcKhyrYL1ABpT"], "asm": "OP_DUP OP_HASH160 d5c5d6c9e847e03216203c76c13fedd9473d1405 OP_EQUALVERIFY OP_CHECKSIG", "type": "pubkeyhash"}, "value": 0.00311831, "n": 0}, {"scriptPubKey": {"reqSigs": 1, "hex": "76a914056da4ae625d2dd5cb92e6c4432a5f86fa4cc14c88ac", "addresses": ["1Vhj7H2GXfiS6HEwBFefjqMSuR3WpAy5n"], "asm": "OP_DUP OP_HASH160 056da4ae625d2dd5cb92e6c4432a5f86fa4cc14c OP_EQUALVERIFY OP_CHECKSIG", "type": "pubkeyhash"}, "value": 0.02277591, "n": 1}], "hex": "0100000001359f9fe74804311e31a3e2afa27fe9d50918760fd4ad15c0106f03a69238bead010000006b483045022100b3f51c9bac62d6993ba3840897f2be7de6191705935105d038d00b57c21faf01022033b0fea661b9a04c833a847ec35bf7d1154a79820fc3e0231c9b507ed62d0587012103637cb9a687d6306ac3754a25c1b3f6a9a3089768230a1a06ef95305317b233b5ffffffff0217c20400000000001976a914d5c5d6c9e847e03216203c76c13fedd9473d140588acd7c02200000000001976a914056da4ae625d2dd5cb92e6c4432a5f86fa4cc14c88ac00000000", "vin": [{"sequence": 4294967295, "scriptSig": {"hex": "483045022100b3f51c9bac62d6993ba3840897f2be7de6191705935105d038d00b57c21faf01022033b0fea661b9a04c833a847ec35bf7d1154a79820fc3e0231c9b507ed62d0587012103637cb9a687d6306ac3754a25c1b3f6a9a3089768230a1a06ef95305317b233b5", "asm": "3045022100b3f51c9bac62d6993ba3840897f2be7de6191705935105d038d00b57c21faf01022033b0fea661b9a04c833a847ec35bf7d1154a79820fc3e0231c9b507ed62d0587[ALL] 03637cb9a687d6306ac3754a25c1b3f6a9a3089768230a1a06ef95305317b233b5"}, "vout": 1, "txid": "adbe3892a6036f10c015add40f761809d5e97fa2afe2a3311e310448e79f9f35"}], "txid": "97beda1a00e18581c4979fb084831431e0f98a63d46a6f8c170e3e317d36517f", "blocktime": 1537871767, "version": 1, "confirmations": 11495, "time": 1537871767, "locktime": 0, "vsize": 226, "size": 226}