{"hash": "97c7d0a247e663c66cf40950cfb3c09890eaf7891d9adcfdaaa03af204483723", "blockhash": "00000000000000000018f53835495a110e01622372bf6ae95dc86f2b0ab887b0", "vout": [{"scriptPubKey": {"reqSigs": 1, "hex": "76a914fbdb06cd620b0da1b6a5ce6fb4be9ed2fd7a963f88ac", "addresses": ["1PxgzPBRftmMnjcHZL9VcCrgvJwR1giaAT"], "asm": "OP_DUP OP_HASH160 fbdb06cd620b0da1b6a5ce6fb4be9ed2fd7a963f OP_EQUALVERIFY OP_CHECKSIG", "type": "pubkeyhash"}, "value": 0.00117174, "n": 0}, {"scriptPubKey": {"reqSigs": 1, "hex": "76a91444dbe4f7953275b40f91e78e595e0746fd09dcc288ac", "addresses": ["17H6NaNjef1yGmz6S7B58vSwGrpKMUcNJ9"], "asm": "OP_DUP OP_HASH160 44dbe4f7953275b40f91e78e595e0746fd09dcc2 OP_EQUALVERIFY OP_CHECKSIG", "type": "pubkeyhash"}, "value": 0.03006916, "n": 1}], "hex": "0100000001e3b544e0778226fa8af321ce2dbbc155b3ca934a37acf125e264c95608f2172e010000006b483045022100c7627a206a21aa2f1fb882a0f2f9bd9cb935092cd1decce83d906a26221a06d30220257ecfa78c05933922d8378ffdae518a69cb63a762e9936315f622a3435c6ebd012102203093106787b505187bc6f3f007d7e710e0eb50f378bcd56dbc00df3d88d06dffffffff02b6c90100000000001976a914fbdb06cd620b0da1b6a5ce6fb4be9ed2fd7a963f88acc4e12d00000000001976a91444dbe4f7953275b40f91e78e595e0746fd09dcc288ac00000000", "vin": [{"sequence": 4294967295, "scriptSig": {"hex": "483045022100c7627a206a21aa2f1fb882a0f2f9bd9cb935092cd1decce83d906a26221a06d30220257ecfa78c05933922d8378ffdae518a69cb63a762e9936315f622a3435c6ebd012102203093106787b505187bc6f3f007d7e710e0eb50f378bcd56dbc00df3d88d06d", "asm": "3045022100c7627a206a21aa2f1fb882a0f2f9bd9cb935092cd1decce83d906a26221a06d30220257ecfa78c05933922d8378ffdae518a69cb63a762e9936315f622a3435c6ebd[ALL] 02203093106787b505187bc6f3f007d7e710e0eb50f378bcd56dbc00df3d88d06d"}, "vout": 1, "txid": "2e17f20856c964e225f1ac374a93cab355c1bb2dce21f38afa268277e044b5e3"}], "txid": "97c7d0a247e663c66cf40950cfb3c09890eaf7891d9adcfdaaa03af204483723", "blocktime": 1537870928, "version": 1, "confirmations": 11514, "time": 1537870928, "locktime": 0, "vsize": 226, "size": 226}