{"hash": "97d4b8d4b215b9c241c8c101d84812e42a96e40b12967bead295272bf730c013", "blockhash": "00000000000000000004ffacab907a6b429b9a5745fa0b75af4234bf69dd7176", "vout": [{"scriptPubKey": {"reqSigs": 1, "hex": "76a91445244ac587a5e5f7eb755abdad1033355e1f636b88ac", "addresses": ["17Jb6rXosB3dLYvSK4ATDvRKwoJrgwekte"], "asm": "OP_DUP OP_HASH160 45244ac587a5e5f7eb755abdad1033355e1f636b OP_EQUALVERIFY OP_CHECKSIG", "type": "pubkeyhash"}, "value": 0.032042, "n": 0}, {"scriptPubKey": {"reqSigs": 1, "hex": "76a9141c825264891a3a3e2190c3773c1580f20cb6611288ac", "addresses": ["13bk3Hvvvuhw187fGcpdYrSVoBLTumh927"], "asm": "OP_DUP OP_HASH160 1c825264891a3a3e2190c3773c1580f20cb66112 OP_EQUALVERIFY OP_CHECKSIG", "type": "pubkeyhash"}, "value": 0.04606722, "n": 1}], "hex": "0100000001be005c69ade00fde1d2871b581232d7934a0ec0b3f6ebb3d3e75c7ff72335715010000006a473044022028c64b32815d9f936cecd70ebebeb86b2d57567a6b568f476c52aac27f50029b02206a39f07677fc494519e72e8a59aa3453ebcce88b37af3fa22d66ec7a058f02a1012102d666d2191355039e736dfd9749326942888650badb783b8d9b86bcd306816dd5ffffffff0268e43000000000001976a91445244ac587a5e5f7eb755abdad1033355e1f636b88ac024b4600000000001976a9141c825264891a3a3e2190c3773c1580f20cb6611288ac00000000", "vin": [{"sequence": 4294967295, "scriptSig": {"hex": "473044022028c64b32815d9f936cecd70ebebeb86b2d57567a6b568f476c52aac27f50029b02206a39f07677fc494519e72e8a59aa3453ebcce88b37af3fa22d66ec7a058f02a1012102d666d2191355039e736dfd9749326942888650badb783b8d9b86bcd306816dd5", "asm": "3044022028c64b32815d9f936cecd70ebebeb86b2d57567a6b568f476c52aac27f50029b02206a39f07677fc494519e72e8a59aa3453ebcce88b37af3fa22d66ec7a058f02a1[ALL] 02d666d2191355039e736dfd9749326942888650badb783b8d9b86bcd306816dd5"}, "vout": 1, "txid": "15573372ffc7753e3dbb6e3f0beca034792d2381b571281dde0fe0ad695c00be"}], "txid": "97d4b8d4b215b9c241c8c101d84812e42a96e40b12967bead295272bf730c013", "blocktime": 1537875543, "version": 1, "confirmations": 11464, "time": 1537875543, "locktime": 0, "vsize": 225, "size": 225}