{"hash": "97d5de92052bb6b26a6fd36364115aa252ae86878a7babcca1d6c2fcc8fccf67", "blockhash": "0000000000000000001cda96e906b7601b7a6fb1a3b62bca570a9e5d8f4b3de1", "vout": [{"scriptPubKey": {"reqSigs": 1, "hex": "76a91484bd23e44b27d6016bb6f579e05ae12e0c3e952788ac", "addresses": ["1D6rn1mbPS2kppYXDuaFTQFp7tu58pYZ1R"], "asm": "OP_DUP OP_HASH160 84bd23e44b27d6016bb6f579e05ae12e0c3e9527 OP_EQUALVERIFY OP_CHECKSIG", "type": "pubkeyhash"}, "value": 0.00174431, "n": 0}, {"scriptPubKey": {"reqSigs": 1, "hex": "a914c22404ad27cd8ba4c6d692ee9e154661602dc09287", "addresses": ["3KPYAMN9NJHPDdhdRfFh9qXRUMkT8WfLrY"], "asm": "OP_HASH160 c22404ad27cd8ba4c6d692ee9e154661602dc092 OP_EQUAL", "type": "scripthash"}, "value": 0.005, "n": 1}], "hex": "01000000032ad5c13daac3ebf7e57e3652da2e8ad6ac4dafae2ff1f1af635535f82b04b2a2010000006a47304402201e578644515a1b861d39693c8be0fefa70cb65a1117d2a8e86118a11c8319c6502205bbb05d19f2dd2ef6bbcc63e607a6fb4342f4c95d8b93d6d1099f85f939e4826012102a682dc13a90f4c0f93645332cb92e653f898c991c7867d2953fea3164d3c6e3bffffffff3f8fd0a2fb7810a647ab54255447f05e6b160a4634d126af0446eeb8d25d2a7f000000006a473044022035687b2f7b229bf708f0dfb99ca505e69f58194d86b209e81c43a06f9eeee0610220287a75c02072981e3291c656cda21925f68f34d4be2283db35152554849f50c3012102a682dc13a90f4c0f93645332cb92e653f898c991c7867d2953fea3164d3c6e3bffffffff638e74cf38f2073c69b0c5cae0d237c10542927633bfc6644cc2e3d9e9b1936f2f0000006b483045022100bf46a033ea6734ed7cff02cfcebd86a5e44ef72d18e4bd7da25d2e6427148e5202202ecd5bd253c102c0f72ffbd025fc0e5856aa0e5b078dbafd8ebcacab5c18b7f2012102a682dc13a90f4c0f93645332cb92e653f898c991c7867d2953fea3164d3c6e3bffffffff025fa90200000000001976a91484bd23e44b27d6016bb6f579e05ae12e0c3e952788ac20a107000000000017a914c22404ad27cd8ba4c6d692ee9e154661602dc0928700000000", "vin": [{"sequence": 4294967295, "scriptSig": {"hex": "47304402201e578644515a1b861d39693c8be0fefa70cb65a1117d2a8e86118a11c8319c6502205bbb05d19f2dd2ef6bbcc63e607a6fb4342f4c95d8b93d6d1099f85f939e4826012102a682dc13a90f4c0f93645332cb92e653f898c991c7867d2953fea3164d3c6e3b", "asm": "304402201e578644515a1b861d39693c8be0fefa70cb65a1117d2a8e86118a11c8319c6502205bbb05d19f2dd2ef6bbcc63e607a6fb4342f4c95d8b93d6d1099f85f939e4826[ALL] 02a682dc13a90f4c0f93645332cb92e653f898c991c7867d2953fea3164d3c6e3b"}, "vout": 1, "txid": "a2b2042bf8355563aff1f12faeaf4dacd68a2eda52367ee5f7ebc3aa3dc1d52a"}, {"sequence": 4294967295, "scriptSig": {"hex": "473044022035687b2f7b229bf708f0dfb99ca505e69f58194d86b209e81c43a06f9eeee0610220287a75c02072981e3291c656cda21925f68f34d4be2283db35152554849f50c3012102a682dc13a90f4c0f93645332cb92e653f898c991c7867d2953fea3164d3c6e3b", "asm": "3044022035687b2f7b229bf708f0dfb99ca505e69f58194d86b209e81c43a06f9eeee0610220287a75c02072981e3291c656cda21925f68f34d4be2283db35152554849f50c3[ALL] 02a682dc13a90f4c0f93645332cb92e653f898c991c7867d2953fea3164d3c6e3b"}, "vout": 0, "txid": "7f2a5dd2b8ee4604af26d134460a166b5ef047542554ab47a61078fba2d08f3f"}, {"sequence": 4294967295, "scriptSig": {"hex": "483045022100bf46a033ea6734ed7cff02cfcebd86a5e44ef72d18e4bd7da25d2e6427148e5202202ecd5bd253c102c0f72ffbd025fc0e5856aa0e5b078dbafd8ebcacab5c18b7f2012102a682dc13a90f4c0f93645332cb92e653f898c991c7867d2953fea3164d3c6e3b", "asm": "3045022100bf46a033ea6734ed7cff02cfcebd86a5e44ef72d18e4bd7da25d2e6427148e5202202ecd5bd253c102c0f72ffbd025fc0e5856aa0e5b078dbafd8ebcacab5c18b7f2[ALL] 02a682dc13a90f4c0f93645332cb92e653f898c991c7867d2953fea3164d3c6e3b"}, "vout": 47, "txid": "6f93b1e9d9e3c24c64c6bf3376924205c137d2e0cac5b0693c07f238cf748e63"}], "txid": "97d5de92052bb6b26a6fd36364115aa252ae86878a7babcca1d6c2fcc8fccf67", "blocktime": 1537873282, "version": 1, "confirmations": 11481, "time": 1537873282, "locktime": 0, "vsize": 518, "size": 518}