{"hash": "97dbdac36889c52c0ac99ea7efcbe4d70f2f38bbf5d4005e746d53b5a75f23fb", "blockhash": "00000000000000000017f5eb5941039fbcee6240d03bc1f2f8e35350df66a1d8", "vout": [{"scriptPubKey": {"reqSigs": 1, "hex": "76a914f4d74e8b5c12b12362c30192fc0983d7e5cbd94088ac", "addresses": ["1PKbob1Nr5FzTw1LKqV5iWCJj8tN6sPScf"], "asm": "OP_DUP OP_HASH160 f4d74e8b5c12b12362c30192fc0983d7e5cbd940 OP_EQUALVERIFY OP_CHECKSIG", "type": "pubkeyhash"}, "value": 0.0064, "n": 0}], "hex": "0100000001d4807781d0152fc0e0cf7371cde235977270ceebc0a508b11bd22745eccdc17004000000fc0047304402205aceb7ad996b034378d5fd1ffa0d792026cb5233b93fea11a2d20261d09522fb02205d48d9d700617bf07fd7c5e64095176de76b6b034d5ce779039129bbf862e8a80147304402202cc16077d7728c1f5e8ab150fbfdd74aaeca0570a32cf073ee77ee645d98d9e502205be3f377bb44721687079b75f0ce115a4e1308de9ecd3a73d6dd09266c6b7150014c69522102d87a84ea28d45782fc65769964dfb9dddf9597be0c06eb7ad5b190fc0d76502e2103945e462520e1d42fa65b06b9859c03b2ae46d39bd5930687e01ba6e9ca627b5e2103afd45d09717b3516b1ed110844ea81b01fbad45f8815c632d532a3189e3f7a6753aeffffffff0100c40900000000001976a914f4d74e8b5c12b12362c30192fc0983d7e5cbd94088ac00000000", "vin": [{"sequence": 4294967295, "scriptSig": {"hex": "0047304402205aceb7ad996b034378d5fd1ffa0d792026cb5233b93fea11a2d20261d09522fb02205d48d9d700617bf07fd7c5e64095176de76b6b034d5ce779039129bbf862e8a80147304402202cc16077d7728c1f5e8ab150fbfdd74aaeca0570a32cf073ee77ee645d98d9e502205be3f377bb44721687079b75f0ce115a4e1308de9ecd3a73d6dd09266c6b7150014c69522102d87a84ea28d45782fc65769964dfb9dddf9597be0c06eb7ad5b190fc0d76502e2103945e462520e1d42fa65b06b9859c03b2ae46d39bd5930687e01ba6e9ca627b5e2103afd45d09717b3516b1ed110844ea81b01fbad45f8815c632d532a3189e3f7a6753ae", "asm": "0 304402205aceb7ad996b034378d5fd1ffa0d792026cb5233b93fea11a2d20261d09522fb02205d48d9d700617bf07fd7c5e64095176de76b6b034d5ce779039129bbf862e8a8[ALL] 304402202cc16077d7728c1f5e8ab150fbfdd74aaeca0570a32cf073ee77ee645d98d9e502205be3f377bb44721687079b75f0ce115a4e1308de9ecd3a73d6dd09266c6b7150[ALL] 522102d87a84ea28d45782fc65769964dfb9dddf9597be0c06eb7ad5b190fc0d76502e2103945e462520e1d42fa65b06b9859c03b2ae46d39bd5930687e01ba6e9ca627b5e2103afd45d09717b3516b1ed110844ea81b01fbad45f8815c632d532a3189e3f7a6753ae"}, "vout": 4, "txid": "70c1cdec4527d21bb108a5c0ebce70729735e2cd7173cfe0c02f15d0817780d4"}], "txid": "97dbdac36889c52c0ac99ea7efcbe4d70f2f38bbf5d4005e746d53b5a75f23fb", "blocktime": 1537874412, "version": 1, "confirmations": 11467, "time": 1537874412, "locktime": 0, "vsize": 337, "size": 337}