{"hash": "97e1380e4f2652218c845acb5be329a46ed7b0c9f6acddff0eb92f32ea2f696c", "blockhash": "00000000000000000017f5eb5941039fbcee6240d03bc1f2f8e35350df66a1d8", "vout": [{"scriptPubKey": {"reqSigs": 1, "hex": "76a91479c372ec4e56a539fe092c2e884b6cb76dd4f0cf88ac", "addresses": ["1C6puEwgoRe4v9ddAfT9MhEijJiuc5KvD6"], "asm": "OP_DUP OP_HASH160 79c372ec4e56a539fe092c2e884b6cb76dd4f0cf OP_EQUALVERIFY OP_CHECKSIG", "type": "pubkeyhash"}, "value": 0.02188926, "n": 0}, {"scriptPubKey": {"reqSigs": 1, "hex": "76a91460756868f6b2cac4295db823af257bb45c4ce65088ac", "addresses": ["19o2X4GGjqJRCYKPjk1t9XBNhJtBHxxkTR"], "asm": "OP_DUP OP_HASH160 60756868f6b2cac4295db823af257bb45c4ce650 OP_EQUALVERIFY OP_CHECKSIG", "type": "pubkeyhash"}, "value": 0.04650613, "n": 1}], "hex": "0100000001c52843dbc8bffb84964fb723404ad1a55d2ef2ee158db745fda51cd4d6e3b305010000006b483045022100ab81d1ac0be450f65317f064f86b982066773df229821b422ddf4ed44064278502205c3105f2ecf1ae0844a8b917335266eee16988aadc496ded57001d67c07b8e920121035ff45de23bb67d8803311a056ad47693a8ca30c0fdd8cc8b0ca1e1f7fdd72bccffffffff027e662100000000001976a91479c372ec4e56a539fe092c2e884b6cb76dd4f0cf88ac75f64600000000001976a91460756868f6b2cac4295db823af257bb45c4ce65088ac00000000", "vin": [{"sequence": 4294967295, "scriptSig": {"hex": "483045022100ab81d1ac0be450f65317f064f86b982066773df229821b422ddf4ed44064278502205c3105f2ecf1ae0844a8b917335266eee16988aadc496ded57001d67c07b8e920121035ff45de23bb67d8803311a056ad47693a8ca30c0fdd8cc8b0ca1e1f7fdd72bcc", "asm": "3045022100ab81d1ac0be450f65317f064f86b982066773df229821b422ddf4ed44064278502205c3105f2ecf1ae0844a8b917335266eee16988aadc496ded57001d67c07b8e92[ALL] 035ff45de23bb67d8803311a056ad47693a8ca30c0fdd8cc8b0ca1e1f7fdd72bcc"}, "vout": 1, "txid": "05b3e3d6d41ca5fd45b78d15eef22e5da5d14a4023b74f9684fbbfc8db4328c5"}], "txid": "97e1380e4f2652218c845acb5be329a46ed7b0c9f6acddff0eb92f32ea2f696c", "blocktime": 1537874412, "version": 1, "confirmations": 11468, "time": 1537874412, "locktime": 0, "vsize": 226, "size": 226}