{"hash": "425133e74c1ca8379df03ee9d1d51fa2df5cdf217a9f4615781d353b4cf3eb08", "blockhash": "0000000000000000001f76057863aec43deb6fa401d9628bb513d65a8098bfab", "vout": [{"scriptPubKey": {"reqSigs": 1, "hex": "a914b0b8a100d06e10a06cf2cbd675da9bcd07b34c0887", "addresses": ["3HoS2YjxwbUhrEFXnZE8C79MJCFdoSg2Py"], "asm": "OP_HASH160 b0b8a100d06e10a06cf2cbd675da9bcd07b34c08 OP_EQUAL", "type": "scripthash"}, "value": 0.01045315, "n": 0}, {"scriptPubKey": {"reqSigs": 1, "hex": "76a914bae64a6c4f463765d08d5bf3e5351a420de4295188ac", "addresses": ["1J3EZZUNv9XNFuvFz6B6UwRyzyVZDohoah"], "asm": "OP_DUP OP_HASH160 bae64a6c4f463765d08d5bf3e5351a420de42951 OP_EQUALVERIFY OP_CHECKSIG", "type": "pubkeyhash"}, "value": 0.0025146, "n": 1}], "hex": "020000000001022173673f2b29166c426108ceb23f4a4bbbc40909b5d9bc7e599ea6e4c48e210e00000000171600145598d0039319eb95674dc1b9b089cc8ee8a1d077feffffff305ee7ef07e6d1de43e93f356f4ada5879bd9df329533ac27c5918860d13de99080000001716001447426ae024dc5629710491cc0a19435a78a66a8dfeffffff0243f30f000000000017a914b0b8a100d06e10a06cf2cbd675da9bcd07b34c088744d60300000000001976a914bae64a6c4f463765d08d5bf3e5351a420de4295188ac0246304302202f9ee5b47b1262f2931ee402397bbd00b0ff3bc9374cee11e0631700e3d87ed1021f636060e17ef177d9cca0fca9f08e21a8529588e70b513ef6aacf21710fd58c012103da7de05feb1e2d5e8893dbbf82cf8e6b9c7c0b4197282a01897c64e136ef8bec02483045022100a3430faf6cc48031c9a76bb6d4ad0fad2ba55b1d34f45ec7468eed72fd23a07b02202dfd5de66f36afb9bb804b7eefb56dd0ebf23720707e0ec285ae55f421079f51012102a25d75d2c8423204d867e0b5a025040f7e1a4ad21484a6894ab41bf2d925d91914490800", "vin": [{"txinwitness": ["304302202f9ee5b47b1262f2931ee402397bbd00b0ff3bc9374cee11e0631700e3d87ed1021f636060e17ef177d9cca0fca9f08e21a8529588e70b513ef6aacf21710fd58c01", "03da7de05feb1e2d5e8893dbbf82cf8e6b9c7c0b4197282a01897c64e136ef8bec"], "sequence": 4294967294, "scriptSig": {"hex": "1600145598d0039319eb95674dc1b9b089cc8ee8a1d077", "asm": "00145598d0039319eb95674dc1b9b089cc8ee8a1d077"}, "vout": 0, "txid": "0e218ec4e4a69e597ebcd9b50909c4bb4b4a3fb2ce0861426c16292b3f677321"}, {"txinwitness": ["3045022100a3430faf6cc48031c9a76bb6d4ad0fad2ba55b1d34f45ec7468eed72fd23a07b02202dfd5de66f36afb9bb804b7eefb56dd0ebf23720707e0ec285ae55f421079f5101", "02a25d75d2c8423204d867e0b5a025040f7e1a4ad21484a6894ab41bf2d925d919"], "sequence": 4294967294, "scriptSig": {"hex": "16001447426ae024dc5629710491cc0a19435a78a66a8d", "asm": "001447426ae024dc5629710491cc0a19435a78a66a8d"}, "vout": 8, "txid": "99de130d8618597cc23a5329f39dbd7958da4a6f353fe943ded1e607efe75e30"}], "txid": "97e5ee48670b87cb0936ed9f4a6f3d670ec09845bcf970b2088851101dc483c8", "blocktime": 1537873891, "version": 2, "confirmations": 11478, "time": 1537873891, "locktime": 542996, "vsize": 258, "size": 420}