{"hash": "97ed20842170305b40081df9ab4bab58e8412ab78dcb2e3653c20f156ae534de", "blockhash": "0000000000000000001f76057863aec43deb6fa401d9628bb513d65a8098bfab", "vout": [{"scriptPubKey": {"reqSigs": 1, "hex": "76a914ee553ea3a5e8572924e9367b0149b6ff0f73073488ac", "addresses": ["1NjBwZVNpWQzc97tybUj7AaV6eZnozJqdB"], "asm": "OP_DUP OP_HASH160 ee553ea3a5e8572924e9367b0149b6ff0f730734 OP_EQUALVERIFY OP_CHECKSIG", "type": "pubkeyhash"}, "value": 0.00062436, "n": 0}, {"scriptPubKey": {"reqSigs": 1, "hex": "76a9144d5e2f3451504577e2c564b2a4b141d7852ddc3888ac", "addresses": ["1845rpQ9oYAG2hb4JTDHZiTm3itJqPVBMH"], "asm": "OP_DUP OP_HASH160 4d5e2f3451504577e2c564b2a4b141d7852ddc38 OP_EQUALVERIFY OP_CHECKSIG", "type": "pubkeyhash"}, "value": 0.01235618, "n": 1}], "hex": "0100000001c5876041f2eef6e7e95fbc1963b78f10d4e4b5d7d7eef06d607c61f2f32824c6000000006b483045022100e24aba663dcdf4b4b8222d572d8cbb4a002c5ef6d25550d453650f94db490a4902200dc5a07bff754317a3040d0784dd43b21e121617ae2480f7f53b8fa454864300012103166996af559368510659b7672ccb40f2462fa733b8a5840a8c0a4c30cd6ade8effffffff02e4f30000000000001976a914ee553ea3a5e8572924e9367b0149b6ff0f73073488aca2da1200000000001976a9144d5e2f3451504577e2c564b2a4b141d7852ddc3888ac00000000", "vin": [{"sequence": 4294967295, "scriptSig": {"hex": "483045022100e24aba663dcdf4b4b8222d572d8cbb4a002c5ef6d25550d453650f94db490a4902200dc5a07bff754317a3040d0784dd43b21e121617ae2480f7f53b8fa454864300012103166996af559368510659b7672ccb40f2462fa733b8a5840a8c0a4c30cd6ade8e", "asm": "3045022100e24aba663dcdf4b4b8222d572d8cbb4a002c5ef6d25550d453650f94db490a4902200dc5a07bff754317a3040d0784dd43b21e121617ae2480f7f53b8fa454864300[ALL] 03166996af559368510659b7672ccb40f2462fa733b8a5840a8c0a4c30cd6ade8e"}, "vout": 0, "txid": "c62428f3f2617c606df0eed7d7b5e4d4108fb76319bc5fe9e7f6eef2416087c5"}], "txid": "97ed20842170305b40081df9ab4bab58e8412ab78dcb2e3653c20f156ae534de", "blocktime": 1537873891, "version": 1, "confirmations": 11478, "time": 1537873891, "locktime": 0, "vsize": 226, "size": 226}