{"hash": "fd94c1ad91afeeff1841d6df7d9ab69f0927ad6b70bd91faa2ff3abae29576b2", "blockhash": "0000000000000000000e13cef7c366c0283d82e591d1acd082e914b08063cdf1", "vout": [{"scriptPubKey": {"reqSigs": 1, "hex": "76a914bcbfac52aa9e31fd0d0b61c3e0aa06e75f8aeb2388ac", "addresses": ["1JD1ekLH7r5bhE1cN6nybc6hv83FhTCbaS"], "asm": "OP_DUP OP_HASH160 bcbfac52aa9e31fd0d0b61c3e0aa06e75f8aeb23 OP_EQUALVERIFY OP_CHECKSIG", "type": "pubkeyhash"}, "value": 0.03772398, "n": 0}, {"scriptPubKey": {"reqSigs": 1, "hex": "0014891ca45acc44da3f800749908e6438ad424af34d", "addresses": ["bc1q3yw2gkkvgndrlqq8fxgguepc44py4u6dqj3p4e"], "asm": "0 891ca45acc44da3f800749908e6438ad424af34d", "type": "witness_v0_keyhash"}, "value": 1.65941654, "n": 1}], "hex": "010000000001012cbe39f51cb62db72d02272a3832548243d198af57cd76c1da56a3d51ba904d70000000000ffffffff02ee8f3900000000001976a914bcbfac52aa9e31fd0d0b61c3e0aa06e75f8aeb2388ac9611e40900000000160014891ca45acc44da3f800749908e6438ad424af34d02483045022100a1cc1f03391454ba7df63c5437ca6601edcc09f134adeafc5a87f765299bd38c0220795ee6ab9b356e2df13971c768170fab8e58c74c20a1855ba2c371ca2800b5e7012103f5aadf9acf04cb898e91cfb605c99cd04996862ba263d003b8f8a1202249f57400000000", "vin": [{"txinwitness": ["3045022100a1cc1f03391454ba7df63c5437ca6601edcc09f134adeafc5a87f765299bd38c0220795ee6ab9b356e2df13971c768170fab8e58c74c20a1855ba2c371ca2800b5e701", "03f5aadf9acf04cb898e91cfb605c99cd04996862ba263d003b8f8a1202249f574"], "sequence": 4294967295, "scriptSig": {"hex": "", "asm": ""}, "vout": 0, "txid": "d704a91bd5a356dac176cd57af98d143825432382a27022db72db61cf539be2c"}], "txid": "97ed5f02d2d7279b41eef628cc07ba13f3a6210b594a57149216bbcc260b32e4", "blocktime": 1537871767, "version": 1, "confirmations": 11495, "time": 1537871767, "locktime": 0, "vsize": 144, "size": 226}