{"hash": "97ef5319c90e8e2fea77e11920e5eb8be0ab06cd1751c6ec48253a8bdace3da4", "blockhash": "0000000000000000001e0dab787dd257d1dbfcb92a98c2207d5e1078be1f4165", "vout": [{"scriptPubKey": {"reqSigs": 1, "hex": "76a9142c87d658f20ef36acde582ea2b8fc41cff2fdd7788ac", "addresses": ["154TTaiH8BQpu2TqtL4UFgTn9z1RyANsfe"], "asm": "OP_DUP OP_HASH160 2c87d658f20ef36acde582ea2b8fc41cff2fdd77 OP_EQUALVERIFY OP_CHECKSIG", "type": "pubkeyhash"}, "value": 0.00449666, "n": 0}, {"scriptPubKey": {"reqSigs": 1, "hex": "a914c0ba577ad47cc54c169fd83908041750ddfcca3f87", "addresses": ["3KG4tdBt4XjdPGLxSQK3MaGEJFafayHwXe"], "asm": "OP_HASH160 c0ba577ad47cc54c169fd83908041750ddfcca3f OP_EQUAL", "type": "scripthash"}, "value": 0.034, "n": 1}], "hex": "01000000015612ed567d5138280080bbdd585332eedc1fd5eece577b38bac4eb47161fdb0d010000006b483045022100cd232012fee04612cda213edd16bee9d779cd9cb0cde5d7b178b4ae630317fa002205f91a356d8949f7206c885f93143ab1bfc5114ebcb002c554b43c42098cba237012102d100d7a4c5f3ee33dbe2d26da21657c4970203907e0d0f85d55f8607f36b61e6ffffffff0282dc0600000000001976a9142c87d658f20ef36acde582ea2b8fc41cff2fdd7788ac40e133000000000017a914c0ba577ad47cc54c169fd83908041750ddfcca3f8700000000", "vin": [{"sequence": 4294967295, "scriptSig": {"hex": "483045022100cd232012fee04612cda213edd16bee9d779cd9cb0cde5d7b178b4ae630317fa002205f91a356d8949f7206c885f93143ab1bfc5114ebcb002c554b43c42098cba237012102d100d7a4c5f3ee33dbe2d26da21657c4970203907e0d0f85d55f8607f36b61e6", "asm": "3045022100cd232012fee04612cda213edd16bee9d779cd9cb0cde5d7b178b4ae630317fa002205f91a356d8949f7206c885f93143ab1bfc5114ebcb002c554b43c42098cba237[ALL] 02d100d7a4c5f3ee33dbe2d26da21657c4970203907e0d0f85d55f8607f36b61e6"}, "vout": 1, "txid": "0ddb1f1647ebc4ba387b57ceeed51fdcee325358ddbb80002838517d56ed1256"}], "txid": "97ef5319c90e8e2fea77e11920e5eb8be0ab06cd1751c6ec48253a8bdace3da4", "blocktime": 1537872475, "version": 1, "confirmations": 11486, "time": 1537872475, "locktime": 0, "vsize": 224, "size": 224}