{"hash": "a31a5ba0d55422ea48b6ec5a1ba381adef8d479f2e5c5068e52aa68ee9580c09", "blockhash": "00000000000000000024a2167bbff67b0be802c0b01cdd79e6331c2be6459f87", "vout": [{"scriptPubKey": {"reqSigs": 1, "hex": "a914f7d5aceb5f9bb821a48c9ba4515e8c670b77b43d87", "addresses": ["3QHSoMh5BSi4AJfdCehms6pcSjbEmzB15E"], "asm": "OP_HASH160 f7d5aceb5f9bb821a48c9ba4515e8c670b77b43d OP_EQUAL", "type": "scripthash"}, "value": 0.00213364, "n": 0}, {"scriptPubKey": {"reqSigs": 1, "hex": "a91410bd5567dd55eafa01f64fb3c3bac19c02a13e9387", "addresses": ["33DXYk4kjbRHzY6UYybfxL4TuorEr6BaxB"], "asm": "OP_HASH160 10bd5567dd55eafa01f64fb3c3bac19c02a13e93 OP_EQUAL", "type": "scripthash"}, "value": 0.01000435, "n": 1}], "hex": "0200000000010272ddbd32ab77895cd505c799c0c60c66dc45b5b7dc8604e0d42d27e3c861855300000000171600145384e47942a035b7430f3a8210099583ad5a1e3ffeffffff77b52e519fdaa7d188c0f56bee96fa8f45e1ec5cbe5a7065e08457c62c8aa24a010000001716001483de1ac4b35dfa36c7c9a7bdd298018d9a6d5150feffffff02744103000000000017a914f7d5aceb5f9bb821a48c9ba4515e8c670b77b43d87f3430f000000000017a91410bd5567dd55eafa01f64fb3c3bac19c02a13e938702473044022100d346a9dc0b60a56cf636c533b74aecc86c4d95634bea9db8e91b0737044496d3021f3eb63bc197deecb9cd778f8c369870fc61a852b0072a9d1a089f636eb31361012103a9e8b98ac7e310ffcb1f3b72d130148b545aacf55314a323af98224894f0d6ba02473044022055d5235accc50f243769e740e598508f2b03acf07056806ffbe70891be58753502203fda5e3c9a3e499f17ade4344cdb8075d1ab0a81217da864e7d6361384381024012102757d98071104d3d3d9c33428846c1f0b76612e03bbce386bc2b60ec7900c07bc0d490800", "vin": [{"txinwitness": ["3044022100d346a9dc0b60a56cf636c533b74aecc86c4d95634bea9db8e91b0737044496d3021f3eb63bc197deecb9cd778f8c369870fc61a852b0072a9d1a089f636eb3136101", "03a9e8b98ac7e310ffcb1f3b72d130148b545aacf55314a323af98224894f0d6ba"], "sequence": 4294967294, "scriptSig": {"hex": "1600145384e47942a035b7430f3a8210099583ad5a1e3f", "asm": "00145384e47942a035b7430f3a8210099583ad5a1e3f"}, "vout": 0, "txid": "538561c8e3272dd4e00486dcb7b545dc660cc6c099c705d55c8977ab32bddd72"}, {"txinwitness": ["3044022055d5235accc50f243769e740e598508f2b03acf07056806ffbe70891be58753502203fda5e3c9a3e499f17ade4344cdb8075d1ab0a81217da864e7d636138438102401", "02757d98071104d3d3d9c33428846c1f0b76612e03bbce386bc2b60ec7900c07bc"], "sequence": 4294967294, "scriptSig": {"hex": "16001483de1ac4b35dfa36c7c9a7bdd298018d9a6d5150", "asm": "001483de1ac4b35dfa36c7c9a7bdd298018d9a6d5150"}, "vout": 1, "txid": "4aa28a2cc65784e065705abe5cece1458ffa96ee6bf5c088d1a7da9f512eb577"}], "txid": "97ef78dfa60ece43096cf3627c1548516c0292b7930fa6d04f06d49836c599d7", "blocktime": 1537870564, "version": 2, "confirmations": 11515, "time": 1537870564, "locktime": 542989, "vsize": 256, "size": 418}