{"hash": "5ed3b5d387b36c13e69430e6a302925cc65dee63032fa668982de90b1b058b99", "blockhash": "0000000000000000001e0dab787dd257d1dbfcb92a98c2207d5e1078be1f4165", "vout": [{"scriptPubKey": {"reqSigs": 1, "hex": "a914bb035c5608a6916165bb2101bba8a6a9ff57ea9d87", "addresses": ["3JjrJvMZcpL4NPeuyra2rSwpMGv4FMKXti"], "asm": "OP_HASH160 bb035c5608a6916165bb2101bba8a6a9ff57ea9d OP_EQUAL", "type": "scripthash"}, "value": 0.01610885, "n": 0}, {"scriptPubKey": {"reqSigs": 1, "hex": "a914356d2c9d7648b23cccc5db1e2f19d7f8a3f34fe587", "addresses": ["36ZWXGm9zJwwNBGbdk5AwC3on49ZHsRiYx"], "asm": "OP_HASH160 356d2c9d7648b23cccc5db1e2f19d7f8a3f34fe5 OP_EQUAL", "type": "scripthash"}, "value": 0.13760355, "n": 1}], "hex": "010000000001011296fae9e4a63bcd16ade0d7fe1c35d7174e73cafb89281a143302932a684d340100000023220020f02106df819c0c079c5a1301424987bb2223d70b61998b41dc48ac495ee36ff0ffffffff02859418000000000017a914bb035c5608a6916165bb2101bba8a6a9ff57ea9d8763f7d1000000000017a914356d2c9d7648b23cccc5db1e2f19d7f8a3f34fe58704004730440220172fdf7f3d277d6ddc6b0c5a8ea68a453dd614ecd28cad6f4bb7d2a589e4a7f702205ebd46b1c29e5db7dbcfa99c1c9a57dc031a85012ae4b1e5101c4259983498a60147304402206058c04db2c213d7aa72974c17ed1cfb68112b61ba037c8cab3148190c982d9102204a32a2331c73c5648481f7fbf796cf41a882f7fbe93db0824337a34bcb690fc30147522103276a6941cb6b56ad46991c0386ea82997b17623fa39c5ae259bfb10244544a3d21038f2c7ecee34c843be9d886e50ce79e5dc40a1694c0417d60b35340f292ff73fc52ae00000000", "vin": [{"txinwitness": ["", "30440220172fdf7f3d277d6ddc6b0c5a8ea68a453dd614ecd28cad6f4bb7d2a589e4a7f702205ebd46b1c29e5db7dbcfa99c1c9a57dc031a85012ae4b1e5101c4259983498a601", "304402206058c04db2c213d7aa72974c17ed1cfb68112b61ba037c8cab3148190c982d9102204a32a2331c73c5648481f7fbf796cf41a882f7fbe93db0824337a34bcb690fc301", "522103276a6941cb6b56ad46991c0386ea82997b17623fa39c5ae259bfb10244544a3d21038f2c7ecee34c843be9d886e50ce79e5dc40a1694c0417d60b35340f292ff73fc52ae"], "sequence": 4294967295, "scriptSig": {"hex": "220020f02106df819c0c079c5a1301424987bb2223d70b61998b41dc48ac495ee36ff0", "asm": "0020f02106df819c0c079c5a1301424987bb2223d70b61998b41dc48ac495ee36ff0"}, "vout": 1, "txid": "344d682a930233141a2889fbca734e17d7351cfed7e0ad16cd3ba6e4e9fa9612"}], "txid": "97f67a4c5eee5ea3fd39597e0a87c9ef63f547fd8757d5b05cf00e756c142626", "blocktime": 1537872475, "version": 1, "confirmations": 11487, "time": 1537872475, "locktime": 0, "vsize": 205, "size": 370}