{"hash": "39b3a53c45d63caa08d7f9738755318b8b78f57e2e39c746ed62fbb9ef24c88b", "blockhash": "00000000000000000017f5eb5941039fbcee6240d03bc1f2f8e35350df66a1d8", "vout": [{"scriptPubKey": {"reqSigs": 1, "hex": "a9146aafaf5743817b3833702b43fa3ea4045467dad787", "addresses": ["3BR81gR5KG5gT3WMZtyVm7jJhonrwgrufW"], "asm": "OP_HASH160 6aafaf5743817b3833702b43fa3ea4045467dad7 OP_EQUAL", "type": "scripthash"}, "value": 0.01171012, "n": 0}], "hex": "010000000001010107321663b4d7aefeadff8bf45bc4b7ad09620372e80ea78fa181d91be61a330000000017160014cbb62b28a43bc367e4ccdfa1593adb83ee861f69ffffffff0144de11000000000017a9146aafaf5743817b3833702b43fa3ea4045467dad78702483045022100c59bf86dce17d980444294232a73d0040340e7df2124c9715cdc0aa567b524b402206d6ec20547ad0c484315ad28f2af660452c590d6032a061d6a084f284cf1c2cb01210297616208521ce08616df48e197fc6a7c1aa3a8759d2c83fbda5aac3bdb08524100000000", "vin": [{"txinwitness": ["3045022100c59bf86dce17d980444294232a73d0040340e7df2124c9715cdc0aa567b524b402206d6ec20547ad0c484315ad28f2af660452c590d6032a061d6a084f284cf1c2cb01", "0297616208521ce08616df48e197fc6a7c1aa3a8759d2c83fbda5aac3bdb085241"], "sequence": 4294967295, "scriptSig": {"hex": "160014cbb62b28a43bc367e4ccdfa1593adb83ee861f69", "asm": "0014cbb62b28a43bc367e4ccdfa1593adb83ee861f69"}, "vout": 0, "txid": "331ae61bd981a18fa70ee872036209adb7c45bf48bffadfeaed7b46316320701"}], "txid": "97f8170a82a5d5b6831cf54fb5010a2ad335ad09a13acf423ee3c18c78ccbc40", "blocktime": 1537874412, "version": 1, "confirmations": 11468, "time": 1537874412, "locktime": 0, "vsize": 134, "size": 216}