{"hash": "97fc1bd351c2709adb539b3eff2b15e439268988acf7cd99184cb86e784ae085", "blockhash": "00000000000000000017f5eb5941039fbcee6240d03bc1f2f8e35350df66a1d8", "vout": [{"scriptPubKey": {"reqSigs": 1, "hex": "a914e51fa0ca4d109226c59968d77afae0d1ca37aed587", "addresses": ["3NaWZ2kGnCqdtBEQkuyNWBRS58G632Li7G"], "asm": "OP_HASH160 e51fa0ca4d109226c59968d77afae0d1ca37aed5 OP_EQUAL", "type": "scripthash"}, "value": 0.1374728, "n": 0}], "hex": "0100000002a73146f3bbd0e895801dd722ad18e04c8c7c976095ef4faac85c335fdd70f46e000000006a4730440220649803f4386ca22f9c02f91d0ebd62e2e90a2a949e1bcdfd263cbe1acce996fd0220468825f05758ab7f14084fd7c104689151429dffcd1e4eb6a9a1ed8fc9035031012102e6f5f9aee8131227dd8d64843f7d13affdd3ea5d8987b30d432c44738de451daffffffffd513d79e72627d1a60363f51457b2711ff41ad1f1086af140e9678ba64a37cf5000000006a473044022017c282343b761139a976580faf6eed75ef702c0071d3344665c298ba0dc6863e02201dd3f72e2ef67967107a2f80dce53dec550e2f01aab8ed05c303db3f3c0e285601210206e1dd07b38e28a0556e62d56bf03654fe383137abe2083926c4db7bd83a0ea5ffffffff0150c4d1000000000017a914e51fa0ca4d109226c59968d77afae0d1ca37aed58700000000", "vin": [{"sequence": 4294967295, "scriptSig": {"hex": "4730440220649803f4386ca22f9c02f91d0ebd62e2e90a2a949e1bcdfd263cbe1acce996fd0220468825f05758ab7f14084fd7c104689151429dffcd1e4eb6a9a1ed8fc9035031012102e6f5f9aee8131227dd8d64843f7d13affdd3ea5d8987b30d432c44738de451da", "asm": "30440220649803f4386ca22f9c02f91d0ebd62e2e90a2a949e1bcdfd263cbe1acce996fd0220468825f05758ab7f14084fd7c104689151429dffcd1e4eb6a9a1ed8fc9035031[ALL] 02e6f5f9aee8131227dd8d64843f7d13affdd3ea5d8987b30d432c44738de451da"}, "vout": 0, "txid": "6ef470dd5f335cc8aa4fef9560977c8c4ce018ad22d71d8095e8d0bbf34631a7"}, {"sequence": 4294967295, "scriptSig": {"hex": "473044022017c282343b761139a976580faf6eed75ef702c0071d3344665c298ba0dc6863e02201dd3f72e2ef67967107a2f80dce53dec550e2f01aab8ed05c303db3f3c0e285601210206e1dd07b38e28a0556e62d56bf03654fe383137abe2083926c4db7bd83a0ea5", "asm": "3044022017c282343b761139a976580faf6eed75ef702c0071d3344665c298ba0dc6863e02201dd3f72e2ef67967107a2f80dce53dec550e2f01aab8ed05c303db3f3c0e2856[ALL] 0206e1dd07b38e28a0556e62d56bf03654fe383137abe2083926c4db7bd83a0ea5"}, "vout": 0, "txid": "f57ca364ba78960e14af86101fad41ff11277b45513f36601a7d62729ed713d5"}], "txid": "97fc1bd351c2709adb539b3eff2b15e439268988acf7cd99184cb86e784ae085", "blocktime": 1537874412, "version": 1, "confirmations": 11467, "time": 1537874412, "locktime": 0, "vsize": 336, "size": 336}