{"hash": "9de2119b5c4347b4f96683b3e8a1db250a74f068fa6efbbd67f2440961c26593", "blockhash": "0000000000000000001e0dab787dd257d1dbfcb92a98c2207d5e1078be1f4165", "vout": [{"scriptPubKey": {"reqSigs": 1, "hex": "76a914539c3c096ad84fc5af6d7eddd381b9ce15a7812d88ac", "addresses": ["18d6FHd6Pshj2qKm8Y3EkzXZHnWECuiymQ"], "asm": "OP_DUP OP_HASH160 539c3c096ad84fc5af6d7eddd381b9ce15a7812d OP_EQUALVERIFY OP_CHECKSIG", "type": "pubkeyhash"}, "value": 0.00275094, "n": 0}, {"scriptPubKey": {"reqSigs": 1, "hex": "a9142d21fe4e78cf2dcefb0fe4dce42d67c5b6a6cc3087", "addresses": ["35of45UM8T8bc84oDCuPQw3CELTzPj1Bys"], "asm": "OP_HASH160 2d21fe4e78cf2dcefb0fe4dce42d67c5b6a6cc30 OP_EQUAL", "type": "scripthash"}, "value": 0.00201588, "n": 1}], "hex": "010000000001013d8c8a103b2846b25df97946f3f5e25256abb7bd4b27c30cd8aa96f8bad2a72f0100000023220020262e8cc00c122721c6fb5c248369b20b5d64e9af53cdcb1a8a5cb55452227bc1ffffffff0296320400000000001976a914539c3c096ad84fc5af6d7eddd381b9ce15a7812d88ac741303000000000017a9142d21fe4e78cf2dcefb0fe4dce42d67c5b6a6cc30870400483045022100bf6cc85dde0987d4834dae666465df6902c36affb44931dcaf2570e4cc09d22c02207da60c354e48420b386fde5c429148fe7289b0a35238bc9ace043177cf211ad20147304402203769463bd7ee62e775ca883dec11020fe35f00ee88e7c3d0407046224769fbd102205b83c0c73a4dae1c7ff037b9da16d76b47a0203352a97aa26f235008013e3447016952210332bf8835b09d78c3687edf0b26c692ea58f80619a02ca87a75b8ecf593fd2cb421030bc38140f6cc3627500ce787c2dc0f2ba519aa8123d3f20cf78bb24b253d7ebd2102403242b81ea0e30760a66ccdaebe238ed5b5fffba81428f7291f9376629f825b53ae13490800", "vin": [{"txinwitness": ["", "3045022100bf6cc85dde0987d4834dae666465df6902c36affb44931dcaf2570e4cc09d22c02207da60c354e48420b386fde5c429148fe7289b0a35238bc9ace043177cf211ad201", "304402203769463bd7ee62e775ca883dec11020fe35f00ee88e7c3d0407046224769fbd102205b83c0c73a4dae1c7ff037b9da16d76b47a0203352a97aa26f235008013e344701", "52210332bf8835b09d78c3687edf0b26c692ea58f80619a02ca87a75b8ecf593fd2cb421030bc38140f6cc3627500ce787c2dc0f2ba519aa8123d3f20cf78bb24b253d7ebd2102403242b81ea0e30760a66ccdaebe238ed5b5fffba81428f7291f9376629f825b53ae"], "sequence": 4294967295, "scriptSig": {"hex": "220020262e8cc00c122721c6fb5c248369b20b5d64e9af53cdcb1a8a5cb55452227bc1", "asm": "0020262e8cc00c122721c6fb5c248369b20b5d64e9af53cdcb1a8a5cb55452227bc1"}, "vout": 1, "txid": "2fa7d2baf896aad80cc3274bbdb7ab5652e2f5f34679f95db246283b108a8c3d"}], "txid": "980594156ea3336c52785e3d44b3692b5b37d2aa600ff43c291e738639d47f19", "blocktime": 1537872475, "version": 1, "confirmations": 11486, "time": 1537872475, "locktime": 542995, "vsize": 216, "size": 407}