{"hash": "9806b39426a3897ce19feff4c6865de8a4c7a33e16d86d398dfc8ad669d7dd78", "blockhash": "00000000000000000017f5eb5941039fbcee6240d03bc1f2f8e35350df66a1d8", "vout": [{"scriptPubKey": {"reqSigs": 1, "hex": "0014c40e78a7c285ad1b61231e906f6f7f5501a0d343", "addresses": ["bc1qcs883f7zskk3kcfrr6gx7mml25q6p56ryvh9n9"], "asm": "0 c40e78a7c285ad1b61231e906f6f7f5501a0d343", "type": "witness_v0_keyhash"}, "value": 0.00043233, "n": 0}, {"scriptPubKey": {"reqSigs": 1, "hex": "a91469f3751a5ca241d6eb993680fa2d0d0556957cff87", "addresses": ["3BMEXQSc6kNb65org1ugC8ppkhEcmCtegS"], "asm": "OP_HASH160 69f3751a5ca241d6eb993680fa2d0d0556957cff OP_EQUAL", "type": "scripthash"}, "value": 0.00747397, "n": 1}], "hex": "01000000016ea1bd09ce7d1a34f4b880d478db986cc9630845e6e7bb7cc497b394790fc8b5010000006a47304402201246910a01d4e388f9304572a2b5670ff281e41e7eaec632ae2c28de22da0bf6022023bcdb85e7699892c99c6b620977d0e5c48a3bc412d92392eb42d613f2011343012103e5a1b2c51d1a6941aadefb207285c77b3975a4aa21f4b3f4ebb3f425285d8779ffffffff02e1a8000000000000160014c40e78a7c285ad1b61231e906f6f7f5501a0d34385670b000000000017a91469f3751a5ca241d6eb993680fa2d0d0556957cff8700000000", "vin": [{"sequence": 4294967295, "scriptSig": {"hex": "47304402201246910a01d4e388f9304572a2b5670ff281e41e7eaec632ae2c28de22da0bf6022023bcdb85e7699892c99c6b620977d0e5c48a3bc412d92392eb42d613f2011343012103e5a1b2c51d1a6941aadefb207285c77b3975a4aa21f4b3f4ebb3f425285d8779", "asm": "304402201246910a01d4e388f9304572a2b5670ff281e41e7eaec632ae2c28de22da0bf6022023bcdb85e7699892c99c6b620977d0e5c48a3bc412d92392eb42d613f2011343[ALL] 03e5a1b2c51d1a6941aadefb207285c77b3975a4aa21f4b3f4ebb3f425285d8779"}, "vout": 1, "txid": "b5c80f7994b397c47cbbe7e6450863c96c98db78d480b8f4341a7dce09bda16e"}], "txid": "9806b39426a3897ce19feff4c6865de8a4c7a33e16d86d398dfc8ad669d7dd78", "blocktime": 1537874412, "version": 1, "confirmations": 11467, "time": 1537874412, "locktime": 0, "vsize": 220, "size": 220}