{"hash": "980a086781f81ddda027e3936027ad0432d36cf679faef4d373f8cc65b386953", "blockhash": "00000000000000000024a2167bbff67b0be802c0b01cdd79e6331c2be6459f87", "vout": [{"scriptPubKey": {"reqSigs": 1, "hex": "a914c303822e61f090af3007b0cd5cc53f86900c96cc87", "addresses": ["3KU9tj7hVbEXe12Eh3NRzyCsfPjXJeqUf8"], "asm": "OP_HASH160 c303822e61f090af3007b0cd5cc53f86900c96cc OP_EQUAL", "type": "scripthash"}, "value": 0.0038575, "n": 0}, {"scriptPubKey": {"reqSigs": 1, "hex": "a914062b5509e2eca513bf4761665571b9bc56aa676187", "addresses": ["32FdtU52duxkwGGSRJ5NuLqYUi2qJfqot1"], "asm": "OP_HASH160 062b5509e2eca513bf4761665571b9bc56aa6761 OP_EQUAL", "type": "scripthash"}, "value": 0.12431834, "n": 1}], "hex": "0100000001a05aac39fe6b8d9b2ca799faa4b12d2e07609cbbe2185b96ac02b3f7a562891701000000d900483045022100d91e6ac6c315e3ddc2401c64b43193f731262377f9b7c8462081231d57aef1580220495e0aefac87695d04f5d008fd671aa4a6e2385b3596252eacb5e54e9912903a01463043021f70ad6281a0cb67b4e160380c08b3969d29ddb610d481fdac4b1de56d3c8ba8022076361fdd41f1db129fd97cc17aecda31d681096691fd5751c2f6b0ae9c17abf40147522103abc8a801f5fbb4fd5f6510ba530d534b0efb584b4298cea1e6e2d45cd1000aef2102a29577404fa42d6d12e0d867249d4ee805afecc9e10879ed668da9958dc7b65052aeffffffff02d6e205000000000017a914c303822e61f090af3007b0cd5cc53f86900c96cc87dab1bd000000000017a914062b5509e2eca513bf4761665571b9bc56aa67618700000000", "vin": [{"sequence": 4294967295, "scriptSig": {"hex": "00483045022100d91e6ac6c315e3ddc2401c64b43193f731262377f9b7c8462081231d57aef1580220495e0aefac87695d04f5d008fd671aa4a6e2385b3596252eacb5e54e9912903a01463043021f70ad6281a0cb67b4e160380c08b3969d29ddb610d481fdac4b1de56d3c8ba8022076361fdd41f1db129fd97cc17aecda31d681096691fd5751c2f6b0ae9c17abf40147522103abc8a801f5fbb4fd5f6510ba530d534b0efb584b4298cea1e6e2d45cd1000aef2102a29577404fa42d6d12e0d867249d4ee805afecc9e10879ed668da9958dc7b65052ae", "asm": "0 3045022100d91e6ac6c315e3ddc2401c64b43193f731262377f9b7c8462081231d57aef1580220495e0aefac87695d04f5d008fd671aa4a6e2385b3596252eacb5e54e9912903a[ALL] 3043021f70ad6281a0cb67b4e160380c08b3969d29ddb610d481fdac4b1de56d3c8ba8022076361fdd41f1db129fd97cc17aecda31d681096691fd5751c2f6b0ae9c17abf4[ALL] 522103abc8a801f5fbb4fd5f6510ba530d534b0efb584b4298cea1e6e2d45cd1000aef2102a29577404fa42d6d12e0d867249d4ee805afecc9e10879ed668da9958dc7b65052ae"}, "vout": 1, "txid": "178962a5f7b302ac965b18e2bb9c60072e2db1a4fa99a72c9b8d6bfe39ac5aa0"}], "txid": "980a086781f81ddda027e3936027ad0432d36cf679faef4d373f8cc65b386953", "blocktime": 1537870564, "version": 1, "confirmations": 11515, "time": 1537870564, "locktime": 0, "vsize": 332, "size": 332}