{"hash": "aefa4baee9d346d8675dc7648e8d15c685331069769dc5d25e45e17ca21b5184", "blockhash": "0000000000000000001cda96e906b7601b7a6fb1a3b62bca570a9e5d8f4b3de1", "vout": [{"scriptPubKey": {"reqSigs": 1, "hex": "a91482e7e273ec4e0dff2590e50d5fec2ebc665cd1f787", "addresses": ["3DdBZ734DjaqBf29PvjxWv9mvU6VaQEs8H"], "asm": "OP_HASH160 82e7e273ec4e0dff2590e50d5fec2ebc665cd1f7 OP_EQUAL", "type": "scripthash"}, "value": 1.29326318, "n": 0}, {"scriptPubKey": {"reqSigs": 1, "hex": "76a914a58969147b0a3609fdbf13e6b4292abea756e35788ac", "addresses": ["1G6H76jFZFcRQh3Ei6WJc1wAejVJQzbXDh"], "asm": "OP_DUP OP_HASH160 a58969147b0a3609fdbf13e6b4292abea756e357 OP_EQUALVERIFY OP_CHECKSIG", "type": "pubkeyhash"}, "value": 0.13633389, "n": 1}, {"scriptPubKey": {"reqSigs": 1, "hex": "a914d74730a36e67ea43c2fd78460c9b67c5743ec2dd87", "addresses": ["3MKJV9vvP5h19J1UHXRyoGWbNMrDJR2aep"], "asm": "OP_HASH160 d74730a36e67ea43c2fd78460c9b67c5743ec2dd OP_EQUAL", "type": "scripthash"}, "value": 0.03372949, "n": 2}, {"scriptPubKey": {"reqSigs": 1, "hex": "76a914e0fd5131fec6f44a1853f65a57af5755a41c395988ac", "addresses": ["1MWdpkpTXNwQfMRPs28S9XZPkR1eVjoppy"], "asm": "OP_DUP OP_HASH160 e0fd5131fec6f44a1853f65a57af5755a41c3959 OP_EQUALVERIFY OP_CHECKSIG", "type": "pubkeyhash"}, "value": 0.0705969, "n": 3}, {"scriptPubKey": {"reqSigs": 1, "hex": "76a914208e1c9a599fd04ec517b1a670a254888e8704b588ac", "addresses": ["13y8sEcWDV5iCY4CsgbvdWyQ9eWFqLT8FN"], "asm": "OP_DUP OP_HASH160 208e1c9a599fd04ec517b1a670a254888e8704b5 OP_EQUALVERIFY OP_CHECKSIG", "type": "pubkeyhash"}, "value": 0.07213734, "n": 4}], "hex": "01000000000104e58f38affe97d140096c49f0f7fda879956cfef6e1a74dd319827b555be806dc0400000023220020f0feb2db7efda4d1b67fab05421cd0e9b5ec0462fda86bf749f199d6e0ec8282ffffffffd2e3dd5db2f09294523f990229769e41475a2d9f4e4d3bfb8dbe02097d37e1de0100000023220020118cc30396f3d87eee67637f0700aa27b02deb985b9ae15d646c4afa62a1474bffffffffe08c1c9856f2ddb8342ac4b78b4fecb8a61a5fe32a611363e9193fb71c89ae780000000023220020396e410c1f0faa6cf44962c0624cd22732a29701c600c1d906e0db9f939fa239ffffffffb3ceca9f1c0b5f71a9f6f6870c155e9b6bad43bb9c5195f345f5cba2912a4bd40000000023220020396e410c1f0faa6cf44962c0624cd22732a29701c600c1d906e0db9f939fa239ffffffff05ee5cb5070000000017a91482e7e273ec4e0dff2590e50d5fec2ebc665cd1f7876d07d000000000001976a914a58969147b0a3609fdbf13e6b4292abea756e35788ac957733000000000017a914d74730a36e67ea43c2fd78460c9b67c5743ec2dd87eab86b00000000001976a914e0fd5131fec6f44a1853f65a57af5755a41c395988aca6126e00000000001976a914208e1c9a599fd04ec517b1a670a254888e8704b588ac0347304402203ed2df45b9f4f1d1dd83e73567c6429ba74db6f991d0ae2512249c52a963fd6c022011655c240ecc33a006e655956713ba3eba127aa1fe8c5b6201ebcf85ec23906801210314231d9ae664c3788d00f8e3cb9969d8726bc7d771ac367d99be33896d9db04c1976a914828b80a5aee653d12b3664212eb909dcf63eae4488ac03483045022100f6cade943fb6f4255976c9dba422529fc42a3794372485a106d9a3866196dae802203c7ccd293222ba673b1e13f5b3e7216364a72e649495876e30b2159e01cb1f060121021a15ddcf94c53bee42fe7a3b12ffe79091ece1cb6f1691cefcd53121ebe2e90d1976a9147ef5e65a6ba7fbf7afff14cca44cd298ac37188288ac0347304402202b2e4297108bda91d65164180da8e852d2835b91f55c919896ecc0edf9db7e0202207fc3e9a4bddfffb643e5651ea2e8386358785fac3cf019557b10499051387d4e012102d941dfddbc2339802d015e0777dc30cd416ff591acd587c3e34824c6583b4dac1976a914d1cd43434d93559101682b017ed06e55a1c7119e88ac0348304502210089e8c3869e56c7a74e5a07eb5b90ade48b535eb4cc07183f5b320de7f88ff194022027cd4e83ada1472a4b916eaf750cbe5bdb50d74974c4062d4d70c8480b4fe580012102d941dfddbc2339802d015e0777dc30cd416ff591acd587c3e34824c6583b4dac1976a914d1cd43434d93559101682b017ed06e55a1c7119e88ac00000000", "vin": [{"txinwitness": ["304402203ed2df45b9f4f1d1dd83e73567c6429ba74db6f991d0ae2512249c52a963fd6c022011655c240ecc33a006e655956713ba3eba127aa1fe8c5b6201ebcf85ec23906801", "0314231d9ae664c3788d00f8e3cb9969d8726bc7d771ac367d99be33896d9db04c", "76a914828b80a5aee653d12b3664212eb909dcf63eae4488ac"], "sequence": 4294967295, "scriptSig": {"hex": "220020f0feb2db7efda4d1b67fab05421cd0e9b5ec0462fda86bf749f199d6e0ec8282", "asm": "0020f0feb2db7efda4d1b67fab05421cd0e9b5ec0462fda86bf749f199d6e0ec8282"}, "vout": 4, "txid": "dc06e85b557b8219d34da7e1f6fe6c9579a8fdf7f0496c0940d197feaf388fe5"}, {"txinwitness": ["3045022100f6cade943fb6f4255976c9dba422529fc42a3794372485a106d9a3866196dae802203c7ccd293222ba673b1e13f5b3e7216364a72e649495876e30b2159e01cb1f0601", "021a15ddcf94c53bee42fe7a3b12ffe79091ece1cb6f1691cefcd53121ebe2e90d", "76a9147ef5e65a6ba7fbf7afff14cca44cd298ac37188288ac"], "sequence": 4294967295, "scriptSig": {"hex": "220020118cc30396f3d87eee67637f0700aa27b02deb985b9ae15d646c4afa62a1474b", "asm": "0020118cc30396f3d87eee67637f0700aa27b02deb985b9ae15d646c4afa62a1474b"}, "vout": 1, "txid": "dee1377d0902be8dfb3b4d4e9f2d5a47419e762902993f529492f0b25ddde3d2"}, {"txinwitness": ["304402202b2e4297108bda91d65164180da8e852d2835b91f55c919896ecc0edf9db7e0202207fc3e9a4bddfffb643e5651ea2e8386358785fac3cf019557b10499051387d4e01", "02d941dfddbc2339802d015e0777dc30cd416ff591acd587c3e34824c6583b4dac", "76a914d1cd43434d93559101682b017ed06e55a1c7119e88ac"], "sequence": 4294967295, "scriptSig": {"hex": "220020396e410c1f0faa6cf44962c0624cd22732a29701c600c1d906e0db9f939fa239", "asm": "0020396e410c1f0faa6cf44962c0624cd22732a29701c600c1d906e0db9f939fa239"}, "vout": 0, "txid": "78ae891cb73f19e96313612ae35f1aa6b8ec4f8bb7c42a34b8ddf256981c8ce0"}, {"txinwitness": ["304502210089e8c3869e56c7a74e5a07eb5b90ade48b535eb4cc07183f5b320de7f88ff194022027cd4e83ada1472a4b916eaf750cbe5bdb50d74974c4062d4d70c8480b4fe58001", "02d941dfddbc2339802d015e0777dc30cd416ff591acd587c3e34824c6583b4dac", "76a914d1cd43434d93559101682b017ed06e55a1c7119e88ac"], "sequence": 4294967295, "scriptSig": {"hex": "220020396e410c1f0faa6cf44962c0624cd22732a29701c600c1d906e0db9f939fa239", "asm": "0020396e410c1f0faa6cf44962c0624cd22732a29701c600c1d906e0db9f939fa239"}, "vout": 0, "txid": "d44b2a91a2cbf545f395519cbb43ad6b9b5e150c87f6f6a9715f0b1c9fcaceb3"}], "txid": "980cbab694476af43800475dca36b5c38c584e8f4548e1ee72f944f458be8b37", "blocktime": 1537873282, "version": 1, "confirmations": 11484, "time": 1537873282, "locktime": 0, "vsize": 614, "size": 1016}