{"hash": "980fdff285513403675dbcfc9df4a92ae268f56c20fed4579064cd68ac3c2060", "blockhash": "00000000000000000024a2167bbff67b0be802c0b01cdd79e6331c2be6459f87", "vout": [{"scriptPubKey": {"reqSigs": 1, "hex": "76a9141508276fd4193e83f5fce7a810a40e8f983c161988ac", "addresses": ["12vCxak5xc1t6T275xbm6AJ4xsZCxkTSc5"], "asm": "OP_DUP OP_HASH160 1508276fd4193e83f5fce7a810a40e8f983c1619 OP_EQUALVERIFY OP_CHECKSIG", "type": "pubkeyhash"}, "value": 0.99994454, "n": 0}, {"scriptPubKey": {"type": "nulldata", "hex": "6a146f6d6e69000000000000001f00000139ad8d9220", "asm": "OP_RETURN 6f6d6e69000000000000001f00000139ad8d9220"}, "value": 0.0, "n": 1}, {"scriptPubKey": {"reqSigs": 1, "hex": "76a9141508276fd4193e83f5fce7a810a40e8f983c161988ac", "addresses": ["12vCxak5xc1t6T275xbm6AJ4xsZCxkTSc5"], "asm": "OP_DUP OP_HASH160 1508276fd4193e83f5fce7a810a40e8f983c1619 OP_EQUALVERIFY OP_CHECKSIG", "type": "pubkeyhash"}, "value": 5.46e-06, "n": 2}], "hex": "01000000014ff8ce17093a60aeef9e108750fbb073d8dc5a370ed334980e30d5b9266f8acc030000006a47304402201952f131b61fbfb02a0d85756591ac5dc9e9a0161ed9c418dbd7b3ac1fdc092b02203402a64285028210d1102d7e8f57b1344477ef7f16c5287ca95a87ffffb35e48012102f1366eaa9a568c8d687bfef8ef72ed35a478509d20eb3d0cd90e9e5129ce9709ffffffff0356cbf505000000001976a9141508276fd4193e83f5fce7a810a40e8f983c161988ac0000000000000000166a146f6d6e69000000000000001f00000139ad8d922022020000000000001976a9141508276fd4193e83f5fce7a810a40e8f983c161988ac00000000", "vin": [{"sequence": 4294967295, "scriptSig": {"hex": "47304402201952f131b61fbfb02a0d85756591ac5dc9e9a0161ed9c418dbd7b3ac1fdc092b02203402a64285028210d1102d7e8f57b1344477ef7f16c5287ca95a87ffffb35e48012102f1366eaa9a568c8d687bfef8ef72ed35a478509d20eb3d0cd90e9e5129ce9709", "asm": "304402201952f131b61fbfb02a0d85756591ac5dc9e9a0161ed9c418dbd7b3ac1fdc092b02203402a64285028210d1102d7e8f57b1344477ef7f16c5287ca95a87ffffb35e48[ALL] 02f1366eaa9a568c8d687bfef8ef72ed35a478509d20eb3d0cd90e9e5129ce9709"}, "vout": 3, "txid": "cc8a6f26b9d5300e9834d30e375adcd873b0fb5087109eefae603a0917cef84f"}], "txid": "980fdff285513403675dbcfc9df4a92ae268f56c20fed4579064cd68ac3c2060", "blocktime": 1537870564, "version": 1, "confirmations": 11515, "time": 1537870564, "locktime": 0, "vsize": 256, "size": 256}