{"hash": "9811337d7d288498f07867fb5da760de3faeb69827a27af97f4f0aa6299a4bec", "blockhash": "00000000000000000017f5eb5941039fbcee6240d03bc1f2f8e35350df66a1d8", "vout": [{"scriptPubKey": {"reqSigs": 1, "hex": "a914e89f8e1dded9d4cfd8666281400e37ef4c2824ac87", "addresses": ["3Nu1q8jRsZDSCC7h4J7JRRCo83GieWD18Z"], "asm": "OP_HASH160 e89f8e1dded9d4cfd8666281400e37ef4c2824ac OP_EQUAL", "type": "scripthash"}, "value": 0.01147235, "n": 0}, {"scriptPubKey": {"reqSigs": 1, "hex": "76a914be781fa281df908d0e82f79e3098dbcee87c0ba388ac", "addresses": ["1JN7HnErmzAzZMwwN6rLqJvpZsa9jue1RX"], "asm": "OP_DUP OP_HASH160 be781fa281df908d0e82f79e3098dbcee87c0ba3 OP_EQUALVERIFY OP_CHECKSIG", "type": "pubkeyhash"}, "value": 0.01447389, "n": 1}], "hex": "0100000001eafc80e9d8800c94ca87ec0dc27b3388d2ad9fd6ea262e87566ecd9e8e5ac7de000000006a473044022022274e7d1edf574acb29c3a87b843fafb3abad000809d08597c0e402864d632002207108fbe1b26f65bf7a89e9dfdba2d8df1c7b72e91ea0c46c308c1aa4b43f8cf0012102c8672d87619c346b5c2774d48452d75cc013d923d4524b497dcb0bc8a08a1f6bfdffffff02638111000000000017a914e89f8e1dded9d4cfd8666281400e37ef4c2824ac87dd151600000000001976a914be781fa281df908d0e82f79e3098dbcee87c0ba388ac15490800", "vin": [{"sequence": 4294967293, "scriptSig": {"hex": "473044022022274e7d1edf574acb29c3a87b843fafb3abad000809d08597c0e402864d632002207108fbe1b26f65bf7a89e9dfdba2d8df1c7b72e91ea0c46c308c1aa4b43f8cf0012102c8672d87619c346b5c2774d48452d75cc013d923d4524b497dcb0bc8a08a1f6b", "asm": "3044022022274e7d1edf574acb29c3a87b843fafb3abad000809d08597c0e402864d632002207108fbe1b26f65bf7a89e9dfdba2d8df1c7b72e91ea0c46c308c1aa4b43f8cf0[ALL] 02c8672d87619c346b5c2774d48452d75cc013d923d4524b497dcb0bc8a08a1f6b"}, "vout": 0, "txid": "dec75a8e9ecd6e56872e26ead69fadd288337bc20dec87ca940c80d8e980fcea"}], "txid": "9811337d7d288498f07867fb5da760de3faeb69827a27af97f4f0aa6299a4bec", "blocktime": 1537874412, "version": 1, "confirmations": 11466, "time": 1537874412, "locktime": 542997, "vsize": 223, "size": 223}