{"hash": "c0364cd3c84908a13c011efac29fc49d8347af88bd46441c235b339a9bc0fa0b", "blockhash": "000000000000000000022b45ed06c6f4ccd3cf7fb5ba4856ebd2e58215665228", "vout": [{"scriptPubKey": {"reqSigs": 1, "hex": "a91466226561d1367c3959cbae03fe05c6f2618036f387", "addresses": ["3B143zGBiJ7iK7dMESJvjYa537NUP1F7Bq"], "asm": "OP_HASH160 66226561d1367c3959cbae03fe05c6f2618036f3 OP_EQUAL", "type": "scripthash"}, "value": 0.007, "n": 0}, {"scriptPubKey": {"reqSigs": 1, "hex": "a914627aa52932456d89054bd84f86246af3b71b93a887", "addresses": ["3Afj4stdiLG9EktGrMbm252ySonnhYaz8v"], "asm": "OP_HASH160 627aa52932456d89054bd84f86246af3b71b93a8 OP_EQUAL", "type": "scripthash"}, "value": 0.78848478, "n": 1}], "hex": "01000000000101fca3417ea2a54192f0a82b21c37306138d152b4dcf346ffbc674131b670dd2f701000000232200205fdd641234b13964b223bd85ad2a4a667ca2099df3d42a1d3b45706a8d81abf0ffffffff0260ae0a000000000017a91466226561d1367c3959cbae03fe05c6f2618036f387de21b3040000000017a914627aa52932456d89054bd84f86246af3b71b93a887040047304402203b783daf1c1a311d9a6193a72acb8db1ee4a443e4f04c2cef0f642fda546b8e60220646ef078a4a412674cd06447314700f0d918a326dcc0f74c179618125b87afd801483045022100ed5bd043e80df3d1cb724e29b2d03ec3b47007420aa2f6662479d16f8baffeb40220391e9ca2ab22c5974ddf674e8f6bab16fb0982dd3fcaf738651e667eb55e473b0147522103dcde3832fa56def7b4e783faad1b8af85c3cdd74a5ff4f3c7c216b1075c18da12103c70ae8ded79be1afda73b9ce5ea14a3878908ee160d66a9a717e792bb6db276952ae00000000", "vin": [{"txinwitness": ["", "304402203b783daf1c1a311d9a6193a72acb8db1ee4a443e4f04c2cef0f642fda546b8e60220646ef078a4a412674cd06447314700f0d918a326dcc0f74c179618125b87afd801", "3045022100ed5bd043e80df3d1cb724e29b2d03ec3b47007420aa2f6662479d16f8baffeb40220391e9ca2ab22c5974ddf674e8f6bab16fb0982dd3fcaf738651e667eb55e473b01", "522103dcde3832fa56def7b4e783faad1b8af85c3cdd74a5ff4f3c7c216b1075c18da12103c70ae8ded79be1afda73b9ce5ea14a3878908ee160d66a9a717e792bb6db276952ae"], "sequence": 4294967295, "scriptSig": {"hex": "2200205fdd641234b13964b223bd85ad2a4a667ca2099df3d42a1d3b45706a8d81abf0", "asm": "00205fdd641234b13964b223bd85ad2a4a667ca2099df3d42a1d3b45706a8d81abf0"}, "vout": 1, "txid": "f7d20d671b1374c6fb6f34cf4d2b158d130673c3212ba8f09241a5a27e41a3fc"}], "txid": "9811182d2bb8b9c3df8f1fb5a1bc18ff72e8071798c8193439bbcc69ea9b1614", "blocktime": 1537869901, "version": 1, "confirmations": 11523, "time": 1537869901, "locktime": 0, "vsize": 206, "size": 371}