{"hash": "9812bd3d3d8c17ee2fe910f7335321f0016deef890a5d8257233a67449507bbe", "blockhash": "00000000000000000018f53835495a110e01622372bf6ae95dc86f2b0ab887b0", "vout": [{"scriptPubKey": {"reqSigs": 1, "hex": "a914efdf6e2e4aeab60cd14881c44c705bf3e40d53d387", "addresses": ["3PZM5cAhWW3kiF5gFioe74sCq4KGTFhKDL"], "asm": "OP_HASH160 efdf6e2e4aeab60cd14881c44c705bf3e40d53d3 OP_EQUAL", "type": "scripthash"}, "value": 0.01169006, "n": 0}, {"scriptPubKey": {"reqSigs": 1, "hex": "76a914b520984c1c6d9448650bbbfe4d5a55e40c4cf19a88ac", "addresses": ["1HWiMTR8vxiGdCQp3LH67w7A7cohumFa8u"], "asm": "OP_DUP OP_HASH160 b520984c1c6d9448650bbbfe4d5a55e40c4cf19a OP_EQUALVERIFY OP_CHECKSIG", "type": "pubkeyhash"}, "value": 0.09121522, "n": 1}], "hex": "0200000001e4c27112ee6a1b1635e113af67565fff75d6ba5f91c0ca1f594153bbc57a2683010000006946304302206fc0f79c3f9d3a6364375f9d6cadb1882b14786def7da46064af6e27b76583c2021f6e957326ed4f82b5ef629c4f654061c6961e8df45ac6e7d1944b44f3602493012102db979748bb82aac24e3e82f688b9262d56fd7ae3c9442f309259e127f2db4a52ffffffff026ed611000000000017a914efdf6e2e4aeab60cd14881c44c705bf3e40d53d387f22e8b00000000001976a914b520984c1c6d9448650bbbfe4d5a55e40c4cf19a88ac00000000", "vin": [{"sequence": 4294967295, "scriptSig": {"hex": "46304302206fc0f79c3f9d3a6364375f9d6cadb1882b14786def7da46064af6e27b76583c2021f6e957326ed4f82b5ef629c4f654061c6961e8df45ac6e7d1944b44f3602493012102db979748bb82aac24e3e82f688b9262d56fd7ae3c9442f309259e127f2db4a52", "asm": "304302206fc0f79c3f9d3a6364375f9d6cadb1882b14786def7da46064af6e27b76583c2021f6e957326ed4f82b5ef629c4f654061c6961e8df45ac6e7d1944b44f3602493[ALL] 02db979748bb82aac24e3e82f688b9262d56fd7ae3c9442f309259e127f2db4a52"}, "vout": 1, "txid": "83267ac5bb5341591fcac0915fbad675ff5f5667af13e135161b6aee1271c2e4"}], "txid": "9812bd3d3d8c17ee2fe910f7335321f0016deef890a5d8257233a67449507bbe", "blocktime": 1537870928, "version": 2, "confirmations": 11512, "time": 1537870928, "locktime": 0, "vsize": 222, "size": 222}