{"hash": "3a7bd6d49097faef5935073813ac574d110b1c620d2d7b72ce75e05d5a3dc748", "blockhash": "000000000000000000022b45ed06c6f4ccd3cf7fb5ba4856ebd2e58215665228", "vout": [{"scriptPubKey": {"reqSigs": 1, "hex": "a914573444aeacc7936795e4079f798690722c330bc787", "addresses": ["39e7Ku1Nhv3wb3s5WxD2Dy7rz4ieBjbRqV"], "asm": "OP_HASH160 573444aeacc7936795e4079f798690722c330bc7 OP_EQUAL", "type": "scripthash"}, "value": 0.01001584, "n": 0}, {"scriptPubKey": {"reqSigs": 1, "hex": "76a9148d3ea1a917d300e0b527fa1e7ad4fc2222d9f33288ac", "addresses": ["1DsqJm5puCeVDWDfNDptpGHkVQrtG5a3aQ"], "asm": "OP_DUP OP_HASH160 8d3ea1a917d300e0b527fa1e7ad4fc2222d9f332 OP_EQUALVERIFY OP_CHECKSIG", "type": "pubkeyhash"}, "value": 0.0032996, "n": 1}], "hex": "0200000000010211faac39f70145c673af7d37b7c5a3b063dac5bc9be106dafa81ea4a9ee3cb7101000000171600148fcfc2ded52dd896080287a4c2c61a890786def7feffffff20f10979ded93c238fd8c8d93951ab97bf4be6208431f1a44350ea5885c7d15b00000000171600142a62c9dbb756fe462066ac8b873cc63037540b14feffffff0270480f000000000017a914573444aeacc7936795e4079f798690722c330bc787e8080500000000001976a9148d3ea1a917d300e0b527fa1e7ad4fc2222d9f33288ac02483045022100bc55fecc0eb208872c65e8b11a116f806d1943fda1149fe79100929ae95de6c002206bdc364e05424a0addb47f7aa3384849dfe374891167869f7d534d0bf0cd5d2c012103fbc8901db45167a211ec4f375c7f320f5ffc2b8afe343c58fbbf256f5f08d03002483045022100a5fbd25a9ea00bf6503522110793981891cfbea7b286715ef40f335fbe8e9354022038a17bf3fe1944e85e9b90aab754ed9c897ead9e53355f7dd603caee28a0abbb01210285c7013d8361148ee3977d7ad53e2cd76d784ed7654004e040e25768863140300b490800", "vin": [{"txinwitness": ["3045022100bc55fecc0eb208872c65e8b11a116f806d1943fda1149fe79100929ae95de6c002206bdc364e05424a0addb47f7aa3384849dfe374891167869f7d534d0bf0cd5d2c01", "03fbc8901db45167a211ec4f375c7f320f5ffc2b8afe343c58fbbf256f5f08d030"], "sequence": 4294967294, "scriptSig": {"hex": "1600148fcfc2ded52dd896080287a4c2c61a890786def7", "asm": "00148fcfc2ded52dd896080287a4c2c61a890786def7"}, "vout": 1, "txid": "71cbe39e4aea81fada06e19bbcc5da63b0a3c5b7377daf73c64501f739acfa11"}, {"txinwitness": ["3045022100a5fbd25a9ea00bf6503522110793981891cfbea7b286715ef40f335fbe8e9354022038a17bf3fe1944e85e9b90aab754ed9c897ead9e53355f7dd603caee28a0abbb01", "0285c7013d8361148ee3977d7ad53e2cd76d784ed7654004e040e2576886314030"], "sequence": 4294967294, "scriptSig": {"hex": "1600142a62c9dbb756fe462066ac8b873cc63037540b14", "asm": "00142a62c9dbb756fe462066ac8b873cc63037540b14"}, "vout": 0, "txid": "5bd1c78558ea5043a4f1318420e64bbf97ab5139d9c8d88f233cd9de7909f120"}], "txid": "98139f5dc079acbdfa144ae909106bdb7c5cd8a0231527b0803d7f271ec4b302", "blocktime": 1537869901, "version": 2, "confirmations": 11524, "time": 1537869901, "locktime": 542987, "vsize": 259, "size": 422}