{"hash": "63fd722d8a3944bc1cfbb93c949a3aa85c91f9586885976c91332374a0e2dd21", "blockhash": "0000000000000000000e13cef7c366c0283d82e591d1acd082e914b08063cdf1", "vout": [{"scriptPubKey": {"reqSigs": 1, "hex": "76a914e340f2a407404cf5a2935fdbefe6422d3aa7d82288ac", "addresses": ["1MicCCXs2j5EMyHAPfMEhSuzUBSC53Sszj"], "asm": "OP_DUP OP_HASH160 e340f2a407404cf5a2935fdbefe6422d3aa7d822 OP_EQUALVERIFY OP_CHECKSIG", "type": "pubkeyhash"}, "value": 0.0051316, "n": 0}, {"scriptPubKey": {"reqSigs": 1, "hex": "a914cf48f80ca23b2bb743a4d7696de5388d2c90181687", "addresses": ["3Lb3DDvhmt9qkKu6R7ia5iWhebC72vN6Eh"], "asm": "OP_HASH160 cf48f80ca23b2bb743a4d7696de5388d2c901816 OP_EQUAL", "type": "scripthash"}, "value": 0.01000133, "n": 1}], "hex": "02000000000102cdb61f9a3432238f03a212bfd1f2fe9a596d889844854d0f57bb7f341dea03c90100000017160014e8b978ad52033b8c242b95c4d6a21c221cc76307feffffffec679bb372134a0d5073531f43076e7032149fae5886c25a85067cf2830132d20100000017160014e3c17ccb1b354b7231ba6bb189e29e8570849f47feffffff0288d40700000000001976a914e340f2a407404cf5a2935fdbefe6422d3aa7d82288acc5420f000000000017a914cf48f80ca23b2bb743a4d7696de5388d2c901816870247304402202adb67e8f6bd549b0a9fbbfd672960aaf85bcbe288e091bdfa36037dfb722cdf02205c4fbee43b469a8c0646652fd0cf98d610530fbaf4719d2e1f07e56801a5dfdf012103ba11e151add3f6249a274ba84ac8633ec4da250893b10da2df6b92f5afb9643d024730440220320e4bad4bd7b8db95fac434f2c7c96fd98a681d796c5e56c3eb1c09a33f321002200cdb25b769a6436629cd1f64050360172b65058436e9097daa023b81c8dcc09a01210349bf7b1de91d434c87f57234b81834d37be7c5e7b1f77e3cba97eebf130ac1bcc1480800", "vin": [{"txinwitness": ["304402202adb67e8f6bd549b0a9fbbfd672960aaf85bcbe288e091bdfa36037dfb722cdf02205c4fbee43b469a8c0646652fd0cf98d610530fbaf4719d2e1f07e56801a5dfdf01", "03ba11e151add3f6249a274ba84ac8633ec4da250893b10da2df6b92f5afb9643d"], "sequence": 4294967294, "scriptSig": {"hex": "160014e8b978ad52033b8c242b95c4d6a21c221cc76307", "asm": "0014e8b978ad52033b8c242b95c4d6a21c221cc76307"}, "vout": 1, "txid": "c903ea1d347fbb570f4d854498886d599afef2d1bf12a2038f2332349a1fb6cd"}, {"txinwitness": ["30440220320e4bad4bd7b8db95fac434f2c7c96fd98a681d796c5e56c3eb1c09a33f321002200cdb25b769a6436629cd1f64050360172b65058436e9097daa023b81c8dcc09a01", "0349bf7b1de91d434c87f57234b81834d37be7c5e7b1f77e3cba97eebf130ac1bc"], "sequence": 4294967294, "scriptSig": {"hex": "160014e3c17ccb1b354b7231ba6bb189e29e8570849f47", "asm": "0014e3c17ccb1b354b7231ba6bb189e29e8570849f47"}, "vout": 1, "txid": "d2320183f27c06855ac28658ae9f1432706e07431f5373500d4a1372b39b67ec"}], "txid": "98202fe59191a6054e7ac01617a96b6bc0b3d9efa0a18b9ea718ba9e823061ef", "blocktime": 1537871767, "version": 2, "confirmations": 11495, "time": 1537871767, "locktime": 542913, "vsize": 258, "size": 420}