{"hash": "98202f7a9969b7a5a3f3500711ddb93d11626710e1261cfec0483c8fcb11df04", "blockhash": "0000000000000000001e0dab787dd257d1dbfcb92a98c2207d5e1078be1f4165", "vout": [{"scriptPubKey": {"reqSigs": 1, "hex": "76a91415a9cbcf871577ea496c6db17f8a9361ef19dcb088ac", "addresses": ["12yYbfuQZSZMm2RQ8iFJJbRrzPhzmwgcpd"], "asm": "OP_DUP OP_HASH160 15a9cbcf871577ea496c6db17f8a9361ef19dcb0 OP_EQUALVERIFY OP_CHECKSIG", "type": "pubkeyhash"}, "value": 0.0013, "n": 0}, {"scriptPubKey": {"reqSigs": 1, "hex": "001454a20712d6caf9f201ea2452caad4f43a2915282", "addresses": ["bc1q2j3qwykketulyq02y3fv4t20gw3fz55zzhne5s"], "asm": "0 54a20712d6caf9f201ea2452caad4f43a2915282", "type": "witness_v0_keyhash"}, "value": 1.294e-05, "n": 1}], "hex": "0100000001f4db5643e3f96a5b8a18793aebda1e13355deb7c0168c4bdc5d0ed295b95cd68600000006b483045022100b7af8b6687748b31d4d4f14f664c174657b8e8ae50fc4cdd4417b8421bfbd02d02201be45390bde241670fb59a6662306d09dae181f19f771d5c3474d59dfa2b7c4e012103dff4354cbab50e668c6f6871fe491a1cab3e61b8e665cf202f015cfc669ee5c9ffffffff02d0fb0100000000001976a91415a9cbcf871577ea496c6db17f8a9361ef19dcb088ac0e0500000000000016001454a20712d6caf9f201ea2452caad4f43a291528200000000", "vin": [{"sequence": 4294967295, "scriptSig": {"hex": "483045022100b7af8b6687748b31d4d4f14f664c174657b8e8ae50fc4cdd4417b8421bfbd02d02201be45390bde241670fb59a6662306d09dae181f19f771d5c3474d59dfa2b7c4e012103dff4354cbab50e668c6f6871fe491a1cab3e61b8e665cf202f015cfc669ee5c9", "asm": "3045022100b7af8b6687748b31d4d4f14f664c174657b8e8ae50fc4cdd4417b8421bfbd02d02201be45390bde241670fb59a6662306d09dae181f19f771d5c3474d59dfa2b7c4e[ALL] 03dff4354cbab50e668c6f6871fe491a1cab3e61b8e665cf202f015cfc669ee5c9"}, "vout": 96, "txid": "68cd955b29edd0c5bdc468017ceb5d35131edaeb3a79188a5b6af9e34356dbf4"}], "txid": "98202f7a9969b7a5a3f3500711ddb93d11626710e1261cfec0483c8fcb11df04", "blocktime": 1537872475, "version": 1, "confirmations": 11487, "time": 1537872475, "locktime": 0, "vsize": 223, "size": 223}