{"hash": "eb3404a4eeab9b94144988fc97c6baf066eec1299327a980212170d7883d094d", "blockhash": "0000000000000000001cda96e906b7601b7a6fb1a3b62bca570a9e5d8f4b3de1", "vout": [{"scriptPubKey": {"reqSigs": 1, "hex": "76a9143b900bba1254f2ed2808682a12bb2606d17887c488ac", "addresses": ["16RwRoBPtsa6YqiuzFQe1xjjyxWzXWx4F5"], "asm": "OP_DUP OP_HASH160 3b900bba1254f2ed2808682a12bb2606d17887c4 OP_EQUALVERIFY OP_CHECKSIG", "type": "pubkeyhash"}, "value": 0.26898279, "n": 0}, {"scriptPubKey": {"reqSigs": 1, "hex": "00149a118b1bfe1f3c93eadd14f92430b6d07fb6aeb8", "addresses": ["bc1qnggckxl7ru7f86kaznujgv9k6plmdt4c82x8f7"], "asm": "0 9a118b1bfe1f3c93eadd14f92430b6d07fb6aeb8", "type": "witness_v0_keyhash"}, "value": 0.18854041, "n": 1}], "hex": "010000000001019d8136649ec55f6468b4a3134c39ab745e7fa3c291a8590ba3e2cd370b2469a80000000000ffffffff02676f9a01000000001976a9143b900bba1254f2ed2808682a12bb2606d17887c488ac99b01f01000000001600149a118b1bfe1f3c93eadd14f92430b6d07fb6aeb802473044022052a36364be328f8c332ff5b593a69044f55d5ffe5a00566a70596aab3fde660002206c40fb6f86e42714398a66399eaecb40d8ffab3ca30236b14ddcb5eb689f873b0121033f53ad8d432c0df24efa3d42d9b0c6088e6a1d22b66cfc5c6295aa99edf13fb400000000", "vin": [{"txinwitness": ["3044022052a36364be328f8c332ff5b593a69044f55d5ffe5a00566a70596aab3fde660002206c40fb6f86e42714398a66399eaecb40d8ffab3ca30236b14ddcb5eb689f873b01", "033f53ad8d432c0df24efa3d42d9b0c6088e6a1d22b66cfc5c6295aa99edf13fb4"], "sequence": 4294967295, "scriptSig": {"hex": "", "asm": ""}, "vout": 0, "txid": "a869240b37cde2a30b59a891c2a37f5e74ab394c13a3b468645fc59e6436819d"}], "txid": "9823898ab57bcd74c15cd3e45c02708b7031462d0504b657c9435e1f27131715", "blocktime": 1537873282, "version": 1, "confirmations": 11484, "time": 1537873282, "locktime": 0, "vsize": 144, "size": 225}