{"hash": "cad318da40c62c4fa248449ad0eb03b01d1d58891e0365994b1c317f23479ece", "blockhash": "0000000000000000000dcc0f55137456b1a82d3642486a52398922ac4d620174", "vout": [{"scriptPubKey": {"reqSigs": 1, "hex": "a91423267ec6ac4b0fc2820aa0d3e57427d61552e51287", "addresses": ["34tsgxCYswjUkQTmb9m4E1zP6YG1Jeswbk"], "asm": "OP_HASH160 23267ec6ac4b0fc2820aa0d3e57427d61552e512 OP_EQUAL", "type": "scripthash"}, "value": 0.035, "n": 0}, {"scriptPubKey": {"reqSigs": 1, "hex": "a914627aa52932456d89054bd84f86246af3b71b93a887", "addresses": ["3Afj4stdiLG9EktGrMbm252ySonnhYaz8v"], "asm": "OP_HASH160 627aa52932456d89054bd84f86246af3b71b93a8 OP_EQUAL", "type": "scripthash"}, "value": 0.54535577, "n": 1}], "hex": "0100000000010132421a23371f8156031de3ebdf3b71dbd17dc2c2fb07d74c6b5759f20db2f3d401000000232200205fdd641234b13964b223bd85ad2a4a667ca2099df3d42a1d3b45706a8d81abf0ffffffff02e06735000000000017a91423267ec6ac4b0fc2820aa0d3e57427d61552e51287992540030000000017a914627aa52932456d89054bd84f86246af3b71b93a8870400483045022100ad85eb176b815b65763e31f71ee1aec93420160122f156438a5b10645543ce6b02201d0e62388825f6c9a4c766c011561b6ce7eabd8a418d790934b6edf3662ead7e01473044022059b92bb60f72977b408f27d8198c21d6102e9fc5765e5a36735b78f71cd70c5e02207a9702534dc318fe2d14d7f77e478054743f034b0ba249c69286e30db5e468a80147522103dcde3832fa56def7b4e783faad1b8af85c3cdd74a5ff4f3c7c216b1075c18da12103c70ae8ded79be1afda73b9ce5ea14a3878908ee160d66a9a717e792bb6db276952ae00000000", "vin": [{"txinwitness": ["", "3045022100ad85eb176b815b65763e31f71ee1aec93420160122f156438a5b10645543ce6b02201d0e62388825f6c9a4c766c011561b6ce7eabd8a418d790934b6edf3662ead7e01", "3044022059b92bb60f72977b408f27d8198c21d6102e9fc5765e5a36735b78f71cd70c5e02207a9702534dc318fe2d14d7f77e478054743f034b0ba249c69286e30db5e468a801", "522103dcde3832fa56def7b4e783faad1b8af85c3cdd74a5ff4f3c7c216b1075c18da12103c70ae8ded79be1afda73b9ce5ea14a3878908ee160d66a9a717e792bb6db276952ae"], "sequence": 4294967295, "scriptSig": {"hex": "2200205fdd641234b13964b223bd85ad2a4a667ca2099df3d42a1d3b45706a8d81abf0", "asm": "00205fdd641234b13964b223bd85ad2a4a667ca2099df3d42a1d3b45706a8d81abf0"}, "vout": 1, "txid": "d4f3b20df259576b4cd707fbc2c27dd1db713bdfebe31d0356811f37231a4232"}], "txid": "9827e6aeb8560f05b1b20a1401aa693586298fc83c5525490831366b6cf77610", "blocktime": 1537870268, "version": 1, "confirmations": 11518, "time": 1537870268, "locktime": 0, "vsize": 206, "size": 371}