{"hash": "6782bebcf0851b6f7755a30db656e70ce5c31e16450f7b5da79a1b44ad6a5f55", "blockhash": "00000000000000000018f53835495a110e01622372bf6ae95dc86f2b0ab887b0", "vout": [{"scriptPubKey": {"reqSigs": 1, "hex": "001490ed1d860294b4f6e11c335b58f2ebe3cbe3ad32", "addresses": ["bc1qjrk3mpszjj60dcguxdd43uhtu0978tfjdhe08x"], "asm": "0 90ed1d860294b4f6e11c335b58f2ebe3cbe3ad32", "type": "witness_v0_keyhash"}, "value": 0.0038182, "n": 0}, {"scriptPubKey": {"reqSigs": 1, "hex": "a914c4c89087c3051b043442fe811380f96b46b7a0fb87", "addresses": ["3KdWdcXEje6uUMuPgPRCKyftFog2QoJbEp"], "asm": "OP_HASH160 c4c89087c3051b043442fe811380f96b46b7a0fb OP_EQUAL", "type": "scripthash"}, "value": 0.05416072, "n": 1}], "hex": "010000000001015e814ec79c7b06c3184e1028a030900f69b0c199b6c0040fb3a8c2aac1f4f3ec0100000000ffffffff027cd305000000000016001490ed1d860294b4f6e11c335b58f2ebe3cbe3ad3288a452000000000017a914c4c89087c3051b043442fe811380f96b46b7a0fb870247304402204d27998047a8273cb33f0cc8de45014e1fccaaa33afe7fc60b39ae28279e825c0220050454354660d1044c160c73bb8a7cb2e107bc806a79f2f5f5163cfe78657637012102d231073dcffa4204be48aa58025956690944ce0d05f85bcdb038ff27d7ab921700000000", "vin": [{"txinwitness": ["304402204d27998047a8273cb33f0cc8de45014e1fccaaa33afe7fc60b39ae28279e825c0220050454354660d1044c160c73bb8a7cb2e107bc806a79f2f5f5163cfe7865763701", "02d231073dcffa4204be48aa58025956690944ce0d05f85bcdb038ff27d7ab9217"], "sequence": 4294967295, "scriptSig": {"hex": "", "asm": ""}, "vout": 1, "txid": "ecf3f4c1aac2a8b30f04c0b699c1b0690f9030a028104e18c3067b9cc74e815e"}], "txid": "982b16c5b96a145a8ff61173e8b8bd775855607d2ea4720c764f1d5155e64c83", "blocktime": 1537870928, "version": 1, "confirmations": 11513, "time": 1537870928, "locktime": 0, "vsize": 142, "size": 223}