{"hash": "98347aaa24428489d5aa6b9ced834fb6e6d42b28f24bb091bace34afc38dc31c", "blockhash": "0000000000000000001e0dab787dd257d1dbfcb92a98c2207d5e1078be1f4165", "vout": [{"scriptPubKey": {"reqSigs": 1, "hex": "76a914d1414ab0bb5fa6e54cc49125e1bd36ec890c478d88ac", "addresses": ["1L5SSeKoHqsLSNP7e5xRbzYRyyJmtBqJvx"], "asm": "OP_DUP OP_HASH160 d1414ab0bb5fa6e54cc49125e1bd36ec890c478d OP_EQUALVERIFY OP_CHECKSIG", "type": "pubkeyhash"}, "value": 0.00012718, "n": 0}, {"scriptPubKey": {"reqSigs": 1, "hex": "a914b0cc94e839d6dffe5aac94b1e4895a9351cf671687", "addresses": ["3HoqvtYJcRUrkNn3FafkK6jC6DedoQSsBA"], "asm": "OP_HASH160 b0cc94e839d6dffe5aac94b1e4895a9351cf6716 OP_EQUAL", "type": "scripthash"}, "value": 0.0015555, "n": 1}], "hex": "0100000002a761900e962d212d094176ae5f80406ceb47fa4f7947516b934682430601c74e000000006b483045022100a2ea136e052603fb27960c0bced4f4e396f13110da9f3597b50489d3e9d63ae302204898698392597308e64a5f201edc27fbac32210368d64617346bcb09e1699d7601210294ef37a45d9c8bb472f6d8a934118ab448fd5566048b1eacef005ad0945f76ceffffffff0ec8601805f02673f4d2fba63beb49d9a9b748ad4e67c9300590c13c01177de6000000006a473044022020f7d4e3d02f4b2594ac87131b8849c0ebe4803ced672263f76f11efd7474d04022029830a0c869434ed81a0e4f80a830a0371c7fbe7c4804e839ed44e5f1feec3030121026ab55755864c0ca356ed0963b023cdd1e4842508a56f61732c8ea4652de471e6ffffffff02ae310000000000001976a914d1414ab0bb5fa6e54cc49125e1bd36ec890c478d88ac9e5f02000000000017a914b0cc94e839d6dffe5aac94b1e4895a9351cf67168700000000", "vin": [{"sequence": 4294967295, "scriptSig": {"hex": "483045022100a2ea136e052603fb27960c0bced4f4e396f13110da9f3597b50489d3e9d63ae302204898698392597308e64a5f201edc27fbac32210368d64617346bcb09e1699d7601210294ef37a45d9c8bb472f6d8a934118ab448fd5566048b1eacef005ad0945f76ce", "asm": "3045022100a2ea136e052603fb27960c0bced4f4e396f13110da9f3597b50489d3e9d63ae302204898698392597308e64a5f201edc27fbac32210368d64617346bcb09e1699d76[ALL] 0294ef37a45d9c8bb472f6d8a934118ab448fd5566048b1eacef005ad0945f76ce"}, "vout": 0, "txid": "4ec70106438246936b5147794ffa47eb6c40805fae7641092d212d960e9061a7"}, {"sequence": 4294967295, "scriptSig": {"hex": "473044022020f7d4e3d02f4b2594ac87131b8849c0ebe4803ced672263f76f11efd7474d04022029830a0c869434ed81a0e4f80a830a0371c7fbe7c4804e839ed44e5f1feec3030121026ab55755864c0ca356ed0963b023cdd1e4842508a56f61732c8ea4652de471e6", "asm": "3044022020f7d4e3d02f4b2594ac87131b8849c0ebe4803ced672263f76f11efd7474d04022029830a0c869434ed81a0e4f80a830a0371c7fbe7c4804e839ed44e5f1feec303[ALL] 026ab55755864c0ca356ed0963b023cdd1e4842508a56f61732c8ea4652de471e6"}, "vout": 0, "txid": "e67d17013cc1900530c9674ead48b7a9d949eb3ba6fbd2f47326f0051860c80e"}], "txid": "98347aaa24428489d5aa6b9ced834fb6e6d42b28f24bb091bace34afc38dc31c", "blocktime": 1537872475, "version": 1, "confirmations": 11487, "time": 1537872475, "locktime": 0, "vsize": 371, "size": 371}