{"hash": "9834491e0c48ff015d175316b136104cdaefaf570794360bf4565af1522a3eb4", "blockhash": "0000000000000000000baef3f32e3676a92c3b2e5da21b426e4f302fc371ce76", "vout": [{"scriptPubKey": {"reqSigs": 1, "hex": "76a914d56c84fb662ea863e2a2c583d57d5427e8ba3a4488ac", "addresses": ["1LTUvvc5EpxMBN1EKiAXMqxt2WqKaUbtxR"], "asm": "OP_DUP OP_HASH160 d56c84fb662ea863e2a2c583d57d5427e8ba3a44 OP_EQUALVERIFY OP_CHECKSIG", "type": "pubkeyhash"}, "value": 0.005, "n": 0}, {"scriptPubKey": {"reqSigs": 1, "hex": "76a91488d924f51033b74a895863a5fb57fd545529df7d88ac", "addresses": ["1DUb2YYbQA1jjaNYzVXLZ7ZioEhLXtbUru"], "asm": "OP_DUP OP_HASH160 88d924f51033b74a895863a5fb57fd545529df7d OP_EQUALVERIFY OP_CHECKSIG", "type": "pubkeyhash"}, "value": 1.21996398, "n": 1}], "hex": "0100000001e88c629b0fcc85461a06ba715bff69dd4a2b1722243d72a159ebbc3b55f26632000000006b483045022100bfab9aeea0c0d9f903b0904f8168bf959883e4149a89dd82b34faeea2a5ec4b802201575e919d53e6ff1795bb1443a344ce33443ee0eaa1305b2d8fd31129a86be600121030888863fcb4cdf5b7d33b40e613af35df8f39d576e7972238b0d396cd3fcc3f2ffffffff0220a10700000000001976a914d56c84fb662ea863e2a2c583d57d5427e8ba3a4488ac6e844507000000001976a91488d924f51033b74a895863a5fb57fd545529df7d88ac00000000", "vin": [{"sequence": 4294967295, "scriptSig": {"hex": "483045022100bfab9aeea0c0d9f903b0904f8168bf959883e4149a89dd82b34faeea2a5ec4b802201575e919d53e6ff1795bb1443a344ce33443ee0eaa1305b2d8fd31129a86be600121030888863fcb4cdf5b7d33b40e613af35df8f39d576e7972238b0d396cd3fcc3f2", "asm": "3045022100bfab9aeea0c0d9f903b0904f8168bf959883e4149a89dd82b34faeea2a5ec4b802201575e919d53e6ff1795bb1443a344ce33443ee0eaa1305b2d8fd31129a86be60[ALL] 030888863fcb4cdf5b7d33b40e613af35df8f39d576e7972238b0d396cd3fcc3f2"}, "vout": 0, "txid": "3266f2553bbceb59a1723d2422172b4add69ff5b71ba061a4685cc0f9b628ce8"}], "txid": "9834491e0c48ff015d175316b136104cdaefaf570794360bf4565af1522a3eb4", "blocktime": 1537876114, "version": 1, "confirmations": 11459, "time": 1537876114, "locktime": 0, "vsize": 226, "size": 226}