{"hash": "98385005015c869912761bb51c52043bf1cc5a5cb66ecb6635bb8cfe7dc4282b", "blockhash": "0000000000000000000dcc0f55137456b1a82d3642486a52398922ac4d620174", "vout": [{"scriptPubKey": {"reqSigs": 1, "hex": "76a9140fd6ca75ce11335f7d557004688e8c7a9ade428988ac", "addresses": ["12SkSosGkCitYmhBDrYzTYThUwAaZkihSk"], "asm": "OP_DUP OP_HASH160 0fd6ca75ce11335f7d557004688e8c7a9ade4289 OP_EQUALVERIFY OP_CHECKSIG", "type": "pubkeyhash"}, "value": 1.313e-05, "n": 0}, {"scriptPubKey": {"reqSigs": 1, "hex": "a914f36cba8060a7a822460086ef66258859b61f9d6687", "addresses": ["3Pt8NkNikeU9dHdN73LyVwvd5TibS8MEUw"], "asm": "OP_HASH160 f36cba8060a7a822460086ef66258859b61f9d66 OP_EQUAL", "type": "scripthash"}, "value": 0.00015584, "n": 1}], "hex": "01000000029cae15902d5c286f4dea7d54b428da4a9ea8aa7458ba1100cc47671057f3f017010000006b483045022100dd6424293d314c6a4a53935409064e77964659701407a9edf441274d9340e3080220111c64ffc0dc28c1a116166b84f2706116ac586f026ceb1381c4d176419bbf4d012102e840888fd17304887be55dfa65ac7ba38c9ee03e9752dd17a335d7c582646a4effffffff12b2486a535c7a765df91c07a62ab54c9bb13b6bd890633384cddc5e595c03b9000000006b483045022100d23401b8bf8237b5785364aa6845351c7e0f8e0fa974952d8c492a3758a479850220188bd6b1336078199d3cfccb9715cacfa67099551f394da55bed31d13c06a2e1012102684831c47eeeca551268ca24ea6535f21e3960511fdf924bfe7859cd84fb7713ffffffff0221050000000000001976a9140fd6ca75ce11335f7d557004688e8c7a9ade428988ace03c00000000000017a914f36cba8060a7a822460086ef66258859b61f9d668700000000", "vin": [{"sequence": 4294967295, "scriptSig": {"hex": "483045022100dd6424293d314c6a4a53935409064e77964659701407a9edf441274d9340e3080220111c64ffc0dc28c1a116166b84f2706116ac586f026ceb1381c4d176419bbf4d012102e840888fd17304887be55dfa65ac7ba38c9ee03e9752dd17a335d7c582646a4e", "asm": "3045022100dd6424293d314c6a4a53935409064e77964659701407a9edf441274d9340e3080220111c64ffc0dc28c1a116166b84f2706116ac586f026ceb1381c4d176419bbf4d[ALL] 02e840888fd17304887be55dfa65ac7ba38c9ee03e9752dd17a335d7c582646a4e"}, "vout": 1, "txid": "17f0f357106747cc0011ba5874aaa89e4ada28b4547dea4d6f285c2d9015ae9c"}, {"sequence": 4294967295, "scriptSig": {"hex": "483045022100d23401b8bf8237b5785364aa6845351c7e0f8e0fa974952d8c492a3758a479850220188bd6b1336078199d3cfccb9715cacfa67099551f394da55bed31d13c06a2e1012102684831c47eeeca551268ca24ea6535f21e3960511fdf924bfe7859cd84fb7713", "asm": "3045022100d23401b8bf8237b5785364aa6845351c7e0f8e0fa974952d8c492a3758a479850220188bd6b1336078199d3cfccb9715cacfa67099551f394da55bed31d13c06a2e1[ALL] 02684831c47eeeca551268ca24ea6535f21e3960511fdf924bfe7859cd84fb7713"}, "vout": 0, "txid": "b9035c595edccd84336390d86b3bb19b4cb52aa6071cf95d767a5c536a48b212"}], "txid": "98385005015c869912761bb51c52043bf1cc5a5cb66ecb6635bb8cfe7dc4282b", "blocktime": 1537870268, "version": 1, "confirmations": 11518, "time": 1537870268, "locktime": 0, "vsize": 372, "size": 372}