{"hash": "fc8394d24a1c72930af1fa2a4a5f3f024c0138c437260d66da175f1975f741d5", "blockhash": "00000000000000000017f5eb5941039fbcee6240d03bc1f2f8e35350df66a1d8", "vout": [{"scriptPubKey": {"reqSigs": 1, "hex": "76a914be2d4a1f93160ae483a9137f8fa76a5d084d22c188ac", "addresses": ["1JLZeDnhzihRaYihpXeSdoToYniM4woe4a"], "asm": "OP_DUP OP_HASH160 be2d4a1f93160ae483a9137f8fa76a5d084d22c1 OP_EQUALVERIFY OP_CHECKSIG", "type": "pubkeyhash"}, "value": 0.1536522, "n": 0}, {"scriptPubKey": {"reqSigs": 1, "hex": "00149956105111f0ee6f4e21d3203044562474b880bb", "addresses": ["bc1qn9tpq5g37rhx7n3p6vsrq3zky36t3q9m78njk0"], "asm": "0 9956105111f0ee6f4e21d3203044562474b880bb", "type": "witness_v0_keyhash"}, "value": 0.16634277, "n": 1}], "hex": "01000000000101ea4a28cfad942e04dc734a35eeea4c52420043fd8a96531cc701d76b8d09a61901000000171600141a45105fb76c3040ebe9658ae182fc546249f64effffffff026474ea00000000001976a914be2d4a1f93160ae483a9137f8fa76a5d084d22c188aca5d1fd00000000001600149956105111f0ee6f4e21d3203044562474b880bb02483045022100f2aa90d2417b7ac579a7a70e19d549f60bf796c84be201063489b5ad264888d302204c54384711c2c6426e1f284818fd741b96d5aaa857ce1c981acf2a832b00fcd401210367dd9558e36038fff750bb2a9e2b2c103101bd1366aea10bb99a77e6328ccffd00000000", "vin": [{"txinwitness": ["3045022100f2aa90d2417b7ac579a7a70e19d549f60bf796c84be201063489b5ad264888d302204c54384711c2c6426e1f284818fd741b96d5aaa857ce1c981acf2a832b00fcd401", "0367dd9558e36038fff750bb2a9e2b2c103101bd1366aea10bb99a77e6328ccffd"], "sequence": 4294967295, "scriptSig": {"hex": "1600141a45105fb76c3040ebe9658ae182fc546249f64e", "asm": "00141a45105fb76c3040ebe9658ae182fc546249f64e"}, "vout": 1, "txid": "19a6098d6bd701c71c53968afd430042524ceaee354a73dc042e94adcf284aea"}], "txid": "9838be5dcdfe4f6ba7051fefdf613a14a0b728bafd11cd7993011549c84b27d3", "blocktime": 1537874412, "version": 1, "confirmations": 11468, "time": 1537874412, "locktime": 0, "vsize": 167, "size": 249}