{"hash": "9843e1a6faeb5e7ba2e4d2ecf59137c2493bc7eb5b687ec9cd5643ef798c938b", "blockhash": "0000000000000000000dcc0f55137456b1a82d3642486a52398922ac4d620174", "vout": [{"scriptPubKey": {"reqSigs": 1, "hex": "76a914ca09272403e67fefaa8c3957d802a604d758bbde88ac", "addresses": ["1KRGThpzH7aUerTG7cSMLdrL5g6TGUXqnP"], "asm": "OP_DUP OP_HASH160 ca09272403e67fefaa8c3957d802a604d758bbde OP_EQUALVERIFY OP_CHECKSIG", "type": "pubkeyhash"}, "value": 0.37307677, "n": 0}], "hex": "02000000085cce4163f976e2742636c0b68f22a8a2a6d71f4fa6b0805eeff6e897a13aea96000000006a47304402207a96a9846e7f51f3010710f1280329e0926455958de64151c276950fc8e6e8c702201764723acf97d9b48eebfbc0e1bd42645312f47d3d7fb7921a83958828e100270121030c0b21a9a5ea6d3afb0113795a99443162b366db6af4ec3508af7e37df5add2cfeffffff80f117d0f26c0cea9a7b4a818248c4d300b8bc062de187c3520b53f026a3775a010000006a473044022021318c68be8b03f7dc306d276227f94de6173a87f0bf3d6af2a5eda7f3c75d3a0220701489ce72f2f255ab32ed196848cbf6a75ff7cfb4e349a5e56a4193628bdf9c0121026e32e7197f4e995c05382b1fe71f7acec2869234fafadb3defddc4979ea69b80feffffffa80ba5c4d4b940a9b466b110ea682ad2f3a959c1d936c537011a8bb5e923c2a7010000006b483045022100f5b16cbe5ab694b1af892eed8e133761182f35ea4c888b1f568a56c4097494640220484ee9279e0d9beee49d852c69d9be0be8cf11abc5b0b119a49451c6b29ee7d6012102ae6de08a5649bb59efdc2c72203a03ab12313cf971240c76093389de31ac10fbfeffffffb495db04003db21bd7ba96f68aec889a5a400ecd60acc881b7a1156c33ec502d010000006b483045022100cf098c3f114ef315428f9805cbd8abf81207adf970e7cebbe4345d50ef3e8394022060f1102115dc427a4bb587032bbc78dd401490d2a1c6d9fad89fda5201bc5b620121035608dda80931f46fe23628a1e516cb003e2d40014e23e455fe13a6880e1ddca6feffffffd320cf02fda910bd538d3d3c4dc6e7869abf79d30cc8e404c0bbc9b518db795f010000006a4730440220324e6596bd5e362463cb7731ac76672ccf210feec631244f22003c4e9409176f02200566acf54634f5ef22315ebff7d4fd31fef43bbb4bf9ab627be082177f49226d0121033483c80949f6b29e7e3c4f80c6e976832707a190b5d19a53afea882b06a8051efefffffff87bc42ef2010444d0b18c76f553b183ebe9043bf73b92cc2ef4e86dd958f2a8010000006b483045022100d4208d7fbf85e430f0db8ed49399c32311d2ea6bc2765e28585b6872afff301f0220683731c838aba9777ba809afb404a01a5f38d9d7e38642b879e5c15f3de9eccf012102839e6ed8a3591850380b0813418fa869f1ba7c2a13bca17b48b299bb2f6becf2fefffffffb23f8c8a62e1245c3c9df1b75958ef1e13aa46ec3fe93c66a1020aa3f5ca838000000006b483045022100cc622f8c7a820322eb332f82370aa3830589db0c8d67b59907dc3efe02923322022030adbe85f058436b59090106158037ae099d7585811ff0774be56398ac0061bb012103d4c370a7783be439276000c4cda145316f4469f6f075d8b36192e5d4949868f8fefffffffbb2f02a2e63223c8b5e319ac65d82e9bbe74db003534608420b3ae8d690340b000000006b483045022100a35877765e0dbea20ea9f4921300fc2acf066076bd4f82192f1370750d39b582022001af82a9ab9f4ff6534e0657015cd142450d9798dd6fe0d3d4317848244411110121034661205303732d433cb635532d33e4af09f5ca86af0385da52f699aece4ba64afeffffff011d453902000000001976a914ca09272403e67fefaa8c3957d802a604d758bbde88ac0c490800", "vin": [{"sequence": 4294967294, "scriptSig": {"hex": "47304402207a96a9846e7f51f3010710f1280329e0926455958de64151c276950fc8e6e8c702201764723acf97d9b48eebfbc0e1bd42645312f47d3d7fb7921a83958828e100270121030c0b21a9a5ea6d3afb0113795a99443162b366db6af4ec3508af7e37df5add2c", "asm": "304402207a96a9846e7f51f3010710f1280329e0926455958de64151c276950fc8e6e8c702201764723acf97d9b48eebfbc0e1bd42645312f47d3d7fb7921a83958828e10027[ALL] 030c0b21a9a5ea6d3afb0113795a99443162b366db6af4ec3508af7e37df5add2c"}, "vout": 0, "txid": "96ea3aa197e8f6ef5e80b0a64f1fd7a6a2a8228fb6c0362674e276f96341ce5c"}, {"sequence": 4294967294, "scriptSig": {"hex": "473044022021318c68be8b03f7dc306d276227f94de6173a87f0bf3d6af2a5eda7f3c75d3a0220701489ce72f2f255ab32ed196848cbf6a75ff7cfb4e349a5e56a4193628bdf9c0121026e32e7197f4e995c05382b1fe71f7acec2869234fafadb3defddc4979ea69b80", "asm": "3044022021318c68be8b03f7dc306d276227f94de6173a87f0bf3d6af2a5eda7f3c75d3a0220701489ce72f2f255ab32ed196848cbf6a75ff7cfb4e349a5e56a4193628bdf9c[ALL] 026e32e7197f4e995c05382b1fe71f7acec2869234fafadb3defddc4979ea69b80"}, "vout": 1, "txid": "5a77a326f0530b52c387e12d06bcb800d3c44882814a7b9aea0c6cf2d017f180"}, {"sequence": 4294967294, "scriptSig": {"hex": "483045022100f5b16cbe5ab694b1af892eed8e133761182f35ea4c888b1f568a56c4097494640220484ee9279e0d9beee49d852c69d9be0be8cf11abc5b0b119a49451c6b29ee7d6012102ae6de08a5649bb59efdc2c72203a03ab12313cf971240c76093389de31ac10fb", "asm": "3045022100f5b16cbe5ab694b1af892eed8e133761182f35ea4c888b1f568a56c4097494640220484ee9279e0d9beee49d852c69d9be0be8cf11abc5b0b119a49451c6b29ee7d6[ALL] 02ae6de08a5649bb59efdc2c72203a03ab12313cf971240c76093389de31ac10fb"}, "vout": 1, "txid": "a7c223e9b58b1a0137c536d9c159a9f3d22a68ea10b166b4a940b9d4c4a50ba8"}, {"sequence": 4294967294, "scriptSig": {"hex": "483045022100cf098c3f114ef315428f9805cbd8abf81207adf970e7cebbe4345d50ef3e8394022060f1102115dc427a4bb587032bbc78dd401490d2a1c6d9fad89fda5201bc5b620121035608dda80931f46fe23628a1e516cb003e2d40014e23e455fe13a6880e1ddca6", "asm": "3045022100cf098c3f114ef315428f9805cbd8abf81207adf970e7cebbe4345d50ef3e8394022060f1102115dc427a4bb587032bbc78dd401490d2a1c6d9fad89fda5201bc5b62[ALL] 035608dda80931f46fe23628a1e516cb003e2d40014e23e455fe13a6880e1ddca6"}, "vout": 1, "txid": "2d50ec336c15a1b781c8ac60cd0e405a9a88ec8af696bad71bb23d0004db95b4"}, {"sequence": 4294967294, "scriptSig": {"hex": "4730440220324e6596bd5e362463cb7731ac76672ccf210feec631244f22003c4e9409176f02200566acf54634f5ef22315ebff7d4fd31fef43bbb4bf9ab627be082177f49226d0121033483c80949f6b29e7e3c4f80c6e976832707a190b5d19a53afea882b06a8051e", "asm": "30440220324e6596bd5e362463cb7731ac76672ccf210feec631244f22003c4e9409176f02200566acf54634f5ef22315ebff7d4fd31fef43bbb4bf9ab627be082177f49226d[ALL] 033483c80949f6b29e7e3c4f80c6e976832707a190b5d19a53afea882b06a8051e"}, "vout": 1, "txid": "5f79db18b5c9bbc004e4c80cd379bf9a86e7c64d3c3d8d53bd10a9fd02cf20d3"}, {"sequence": 4294967294, "scriptSig": {"hex": "483045022100d4208d7fbf85e430f0db8ed49399c32311d2ea6bc2765e28585b6872afff301f0220683731c838aba9777ba809afb404a01a5f38d9d7e38642b879e5c15f3de9eccf012102839e6ed8a3591850380b0813418fa869f1ba7c2a13bca17b48b299bb2f6becf2", "asm": "3045022100d4208d7fbf85e430f0db8ed49399c32311d2ea6bc2765e28585b6872afff301f0220683731c838aba9777ba809afb404a01a5f38d9d7e38642b879e5c15f3de9eccf[ALL] 02839e6ed8a3591850380b0813418fa869f1ba7c2a13bca17b48b299bb2f6becf2"}, "vout": 1, "txid": "a8f258d96de8f42ecc923bf73b04e9eb83b153f5768cb1d0440401f22ec47bf8"}, {"sequence": 4294967294, "scriptSig": {"hex": "483045022100cc622f8c7a820322eb332f82370aa3830589db0c8d67b59907dc3efe02923322022030adbe85f058436b59090106158037ae099d7585811ff0774be56398ac0061bb012103d4c370a7783be439276000c4cda145316f4469f6f075d8b36192e5d4949868f8", "asm": "3045022100cc622f8c7a820322eb332f82370aa3830589db0c8d67b59907dc3efe02923322022030adbe85f058436b59090106158037ae099d7585811ff0774be56398ac0061bb[ALL] 03d4c370a7783be439276000c4cda145316f4469f6f075d8b36192e5d4949868f8"}, "vout": 0, "txid": "38a85c3faa20106ac693fec36ea43ae1f18e95751bdfc9c345122ea6c8f823fb"}, {"sequence": 4294967294, "scriptSig": {"hex": "483045022100a35877765e0dbea20ea9f4921300fc2acf066076bd4f82192f1370750d39b582022001af82a9ab9f4ff6534e0657015cd142450d9798dd6fe0d3d4317848244411110121034661205303732d433cb635532d33e4af09f5ca86af0385da52f699aece4ba64a", "asm": "3045022100a35877765e0dbea20ea9f4921300fc2acf066076bd4f82192f1370750d39b582022001af82a9ab9f4ff6534e0657015cd142450d9798dd6fe0d3d431784824441111[ALL] 034661205303732d433cb635532d33e4af09f5ca86af0385da52f699aece4ba64a"}, "vout": 0, "txid": "0b3490d6e83a0b4208465303b04de7bbe9825dc69a315e8b3c22632e2af0b2fb"}], "txid": "9843e1a6faeb5e7ba2e4d2ecf59137c2493bc7eb5b687ec9cd5643ef798c938b", "blocktime": 1537870268, "version": 2, "confirmations": 11519, "time": 1537870268, "locktime": 542988, "vsize": 1225, "size": 1225}