{"hash": "d16c6ca30b87d4847ec0dd5854304bc622c47782dce0f34c2bbb344ccb5f0954", "blockhash": "0000000000000000000baef3f32e3676a92c3b2e5da21b426e4f302fc371ce76", "vout": [{"scriptPubKey": {"reqSigs": 1, "hex": "a914ae1bf3ffe277c4b002366dc68e3d08ef3af964fe87", "addresses": ["3HZcz92rYGG5mMZsHSz9dxFP6bcuKmMKLe"], "asm": "OP_HASH160 ae1bf3ffe277c4b002366dc68e3d08ef3af964fe OP_EQUAL", "type": "scripthash"}, "value": 0.01084256, "n": 0}, {"scriptPubKey": {"reqSigs": 1, "hex": "76a914b55649c194881389dbf1b54b81a544272554d14d88ac", "addresses": ["1HXpg8D9AMGFVZ9FEU2tkZYvAZ8xBhVudo"], "asm": "OP_DUP OP_HASH160 b55649c194881389dbf1b54b81a544272554d14d OP_EQUALVERIFY OP_CHECKSIG", "type": "pubkeyhash"}, "value": 0.0026806, "n": 1}], "hex": "020000000001022bab7febd7a2d5fb9d0b55104552abcbc72ecf189258752057cf7d6dea1a32600100000017160014eed9a976623efba65f2e5b4ffd5b851fcbeabab8feffffff37e0338d30027634bfb696b4049b6c6f684c9b0562a83cb9b7c33e4312bbd9db10000000171600140eaecf2a5b9b87274c58af8dd628f48f696a1946feffffff02608b10000000000017a914ae1bf3ffe277c4b002366dc68e3d08ef3af964fe871c170400000000001976a914b55649c194881389dbf1b54b81a544272554d14d88ac02483045022100d82af89b8cd144108a8d7dcab520ce40a5796bee06dc0f0195bc60b753c1f55202204d37dd12f8dc3110b9979845bac6156cda7075fbff884e3b643d4e08dac9eb340121031bfe9c6576af2dde28cbb6cbc17aa51c1ee74b56d63938929249dc05914724e5024830450221008c4caac7f1c923176461afa877f36a213bd7d8f8640ff9d6f3d36f5ed0cb7d280220572d6e93e40bc9f36addcf9743a98920b8aa7503d914f7db91870aa3b912ae9c012102d2b87b9133a00fb52b2ed244c8defd239869e213009000854b1c5d68de1697d317490800", "vin": [{"txinwitness": ["3045022100d82af89b8cd144108a8d7dcab520ce40a5796bee06dc0f0195bc60b753c1f55202204d37dd12f8dc3110b9979845bac6156cda7075fbff884e3b643d4e08dac9eb3401", "031bfe9c6576af2dde28cbb6cbc17aa51c1ee74b56d63938929249dc05914724e5"], "sequence": 4294967294, "scriptSig": {"hex": "160014eed9a976623efba65f2e5b4ffd5b851fcbeabab8", "asm": "0014eed9a976623efba65f2e5b4ffd5b851fcbeabab8"}, "vout": 1, "txid": "60321aea6d7dcf572075589218cf2ec7cbab524510550b9dfbd5a2d7eb7fab2b"}, {"txinwitness": ["30450221008c4caac7f1c923176461afa877f36a213bd7d8f8640ff9d6f3d36f5ed0cb7d280220572d6e93e40bc9f36addcf9743a98920b8aa7503d914f7db91870aa3b912ae9c01", "02d2b87b9133a00fb52b2ed244c8defd239869e213009000854b1c5d68de1697d3"], "sequence": 4294967294, "scriptSig": {"hex": "1600140eaecf2a5b9b87274c58af8dd628f48f696a1946", "asm": "00140eaecf2a5b9b87274c58af8dd628f48f696a1946"}, "vout": 16, "txid": "dbd9bb12433ec3b7b93ca862059b4c686f6c9b04b496b6bf347602308d33e037"}], "txid": "984634030d46d26b988519b66e557f7eca23bbc6fc8be853816c94e94dd0c8a0", "blocktime": 1537876114, "version": 2, "confirmations": 11462, "time": 1537876114, "locktime": 542999, "vsize": 259, "size": 422}