{"hash": "d6535630bc9f727b6a97e41dfe10c542230513fdedd14189d0794375d7d37eef", "blockhash": "0000000000000000001f0ddff1eddb255c1121bcd4da4f1bc9a0da00cae72433", "vout": [{"scriptPubKey": {"reqSigs": 1, "hex": "76a914b7be3e452735ba040850819d430ff8818ce1965488ac", "addresses": ["1HkYZSMkNV4ywdVnqj7msXkFFFCEFc9CtV"], "asm": "OP_DUP OP_HASH160 b7be3e452735ba040850819d430ff8818ce19654 OP_EQUALVERIFY OP_CHECKSIG", "type": "pubkeyhash"}, "value": 0.0046526, "n": 0}, {"scriptPubKey": {"reqSigs": 1, "hex": "a914b41c1062b0554f77e215fcec4f71b82712de2e7187", "addresses": ["3J7MAzdtgVS4nzHAxU1szz8n8D39tidFZG"], "asm": "OP_HASH160 b41c1062b0554f77e215fcec4f71b82712de2e71 OP_EQUAL", "type": "scripthash"}, "value": 0.01000712, "n": 1}], "hex": "02000000000102782df87850db0bb4b226a4f068e06ab2bd88c0c992868ddd3231540049e751cc11000000171600144b54df62cfe864f6b2c0192da79beaec32b695fcfeffffffa535cb87ffa60be224f42e8bb2a8ff8acee44a3d2786afc00ae834e0742983bc0100000017160014b2de725c7df26bd82c1d4b8375400a672d89d212feffffff026c190700000000001976a914b7be3e452735ba040850819d430ff8818ce1965488ac08450f000000000017a914b41c1062b0554f77e215fcec4f71b82712de2e71870247304402202570f5b5780670cd43e632b7b78e485b87968201040975086d28a49b917c98dd0220779f234eb89de2e8a2e6473b5b5a8a80804277059d90697a6270adcd2124a5e9012103b84642adce395a3641b8d993f74c036a30bf78f6dca35faf9998e1e9debdc72102483045022100ab6b4110e3a94585a2ba6dbad5a1fe63087be40d089fb71579f1ad044142dd0d02205360c5b2fc199b5bbe93f4fd19ad81aa70433ef8607336caea1081606e0146a3012102808bb7c5eaa072f0695b275130837a712dcd9e46da9e4df4db17d871f4024dab11490800", "vin": [{"txinwitness": ["304402202570f5b5780670cd43e632b7b78e485b87968201040975086d28a49b917c98dd0220779f234eb89de2e8a2e6473b5b5a8a80804277059d90697a6270adcd2124a5e901", "03b84642adce395a3641b8d993f74c036a30bf78f6dca35faf9998e1e9debdc721"], "sequence": 4294967294, "scriptSig": {"hex": "1600144b54df62cfe864f6b2c0192da79beaec32b695fc", "asm": "00144b54df62cfe864f6b2c0192da79beaec32b695fc"}, "vout": 17, "txid": "cc51e74900543132dd8d8692c9c088bdb26ae068f0a426b2b40bdb5078f82d78"}, {"txinwitness": ["3045022100ab6b4110e3a94585a2ba6dbad5a1fe63087be40d089fb71579f1ad044142dd0d02205360c5b2fc199b5bbe93f4fd19ad81aa70433ef8607336caea1081606e0146a301", "02808bb7c5eaa072f0695b275130837a712dcd9e46da9e4df4db17d871f4024dab"], "sequence": 4294967294, "scriptSig": {"hex": "160014b2de725c7df26bd82c1d4b8375400a672d89d212", "asm": "0014b2de725c7df26bd82c1d4b8375400a672d89d212"}, "vout": 1, "txid": "bc832974e034e80ac0af86273d4ae4ce8affa8b28b2ef424e20ba6ff87cb35a5"}], "txid": "9847447ee83b8fc69ce5c54cc5693733c97017e4755637502a138aab20d13afc", "blocktime": 1537872018, "version": 2, "confirmations": 11489, "time": 1537872018, "locktime": 542993, "vsize": 259, "size": 421}