{"hash": "984c31ae5f5ff3c67b35abde0ccaeb66099d279ce3d7943b2abd5b9576356982", "blockhash": "000000000000000000022b45ed06c6f4ccd3cf7fb5ba4856ebd2e58215665228", "vout": [{"scriptPubKey": {"reqSigs": 1, "hex": "76a9142d18a4426be22ca5bf5682de603813f10f9fbb9e88ac", "addresses": ["157SvmHB1sumDV3M8Z5SRttY7iXzvpkPUA"], "asm": "OP_DUP OP_HASH160 2d18a4426be22ca5bf5682de603813f10f9fbb9e OP_EQUALVERIFY OP_CHECKSIG", "type": "pubkeyhash"}, "value": 5.54005443, "n": 0}, {"scriptPubKey": {"reqSigs": 1, "hex": "76a914ddd3e5ae55e89b5b0e0bc4d362ead3a9013bee5c88ac", "addresses": ["1MDvBGdZqbA371cWtUHPf6UqVBkqxJriyq"], "asm": "OP_DUP OP_HASH160 ddd3e5ae55e89b5b0e0bc4d362ead3a9013bee5c OP_EQUALVERIFY OP_CHECKSIG", "type": "pubkeyhash"}, "value": 0.15297991, "n": 1}, {"scriptPubKey": {"reqSigs": 1, "hex": "76a91467fd7541deec20cc853068071e05e57b17133f6e88ac", "addresses": ["1AUrELEcg8kD3d6Kv45aQcjeqsEKizSseP"], "asm": "OP_DUP OP_HASH160 67fd7541deec20cc853068071e05e57b17133f6e OP_EQUALVERIFY OP_CHECKSIG", "type": "pubkeyhash"}, "value": 5.66209822, "n": 2}], "hex": "010000000d58f7376767802ca59e5145b8ce468cccd27115b7d83ab69e966c62e7a01c85bd010000006a47304402200373d7ad185685acf6a9738a41ad370dd86ce76934b3fcff5c90610e29e1ecf002201b24fee7d8939b772dc2f1676930f507be0f67af75168614f0a0efa757a15344012102f745e53a8bdce547300003d9af8534b89f49cc6e9f946ec0cf42e3594dd5bf04ffffffff6173b60760052797fd655afc5ded01d85f80bb15e6d7d5d05f7b81acd53c7448060000006a473044022067955859ed09af72c2e9bb7e8a57aeda65374cc6b4cc7318bbeac3d2181ef72e02206f99ce35cb0c33fd731277a0057985617a26c24ef70c939b77b210164a28a693012102d7028f2da58ff71bcba854f9e421c55231f0efb429c35694c9aa89537f4ac2caffffffff18024cb1fe334e631d4e9f587d278036dd9ac69ec645b043f4ff53b1537e6f5b040000006a473044022045e7642ada06c408cc1703f736b15df81465b98c7507c0e1f48b759ed8b9c7ef02203e0edad2c86dc854944c0dfec76bebce5b33dfacd8319e0eb78a6a03986d507f012102f9c22fc691cff4e0a6bc0f6afd95fdcb95a06b9b204c51291c7a4b537102c619ffffffff1e6d03f96c80bf2a536f04c028a053ba97fd918a92a18e55ff72e02a1dc7018c000000006b483045022100b030a560c6adedb059558082c76aa4cf661943133174096660ea674fd0e9e88a022023c433a74341d086a848ccadbd8e10e4c396acd3a90a74b639cc906e407b65690121023e1df76e7b818f87a625d281466eb0bd6bd51196701e59b9775d17dc9b26ce35ffffffffc0ffe871618f097d6ab6a25e524768eda604752123a3d4d5c350203265c05169170000006b4830450221008a9163031665254a511e6b691154c1ef84e58bf6545084105a0fd751d07dd04702201e9e26389710165665092cfa6324d85b53bd9c74fe1c5c886b545d93d54a1905012102466461c688466179239c3c2ae88a86fe284e8a1e99c119042d854ae5db6e7768ffffffff152868ea6eb282c294f804fbbe881eb550567bad2b5e37994fd5853b15658b8a000000006b483045022100aa9e9d4a267ef5316e2be481ab199dbfb8c2b3bb22309e682399180def265e2f022070d37b657772be6b94ec1406f11edf217138a501cd3fc38a024c9e0cca62f606012102bba01ffa088d2ae98158a6f01b3ea219b93a8d5024232b8f783a87af1cc4f767ffffffff998fccadf9b4ceb163f9fde53a28c36ae6bd83956f7caec6b43b2a95b9bc3e0e0b0000006a473044022047b5a488891bf34ca81958afff015eaf0730162e318293431a5a1982ca4da043022022ae543f7d3913b18918fddecfc825181275a506b2fb4f5768663c72db7bd5d70121027caa3127e3b952ab6b52e20609f8012d3ab311283d7e16891b6ffba5fbdf8d86ffffffff926608137fd68fdcd4e2b9aefaf4442c9815d819ec1ec3f767745df51dacd59c030000006b483045022100dd470ab1e646294019cda54226a5360cd93a1073f8235040735ea373a53ad37902206fa63e23a57ddadcf5faad72743dfb3b082d27407d64a888e08b8cd832b331b30121030127f8672ee480e4a65b814380dea476105759fc52eaa6067f84af156745ae09ffffffffc0ffe871618f097d6ab6a25e524768eda604752123a3d4d5c350203265c05169530100006b483045022100f0705514e5169d7b51afeba2593f26df6aa1d5c8a8bc505fe40e80e51b069f46022060fbb9fc6308105babff8e7f83e14ef52d65e88741f64eebef6f7a382842900f012102af9933a51340cb90165af968b9258ef3cdfcc40075588b33f37b37cd2ca95372ffffffff5d500b81072d828b3e8679e89099ca64f4286111edd7f47f90bb2e06f9fd459ca60000006b483045022100ecc8228bf48a7a0f593a737f798b540c30d170b6927ae2972a41ca29197bc53302203b4ead480f66f5f5b585546c5e02bb7587f330a03eb173a45e7d85a745929da9012103d3f579d8f830d3ca2bf24f6f91fa4636cbd7cad18584f0db9b27771f3035cfefffffffff4abb1c4cb94da66eb52e400d824a446a10d63de5f72c520f088b524efa9251c2170000006b483045022100808ac46d67286bfc43fe498f2cda7fbcbddfc43d970154df89ec3292d55c0cdd022073801200010c9fd44d2190619e2dcb6c79f611302ab71c0435cc9b03cc4fba77012103bca4c266143d0084248e7b09ed4d61e1e4af9a0ded447d2a3a54b431d3318061ffffffff16ed8a59d213c122e59ad87f42b249586b15b17071fd172a825ffd3ec1ce3952000000006a4730440220735a985f24a738a016a1cb7d47a697f135466cba2272841f608b2a5b8fbf89050220152209005d469e7fb306736607e6ed2971b925c8fea6176834b60924554c92c0012103a22e9f564606becedf49a66e0e478f037866d3ab5969ff94ed901fdfc8f5e24effffffff47eaf6a788ec208e3c1502b9118b5287dcdcf7d24361f77cd7fb2267b4bba97a060000006b483045022100e2f7ffe975e0ec94c813f14481d17ebf7dd171d5edee08e7ddc207a1d9e0d24502202fb31f9455b8298d06359af7b70aca048fda4182118ab7d6bc567e85edf2ed72012103b9f5ec01aa44fcbba22794e03099cb10120a9dbcab5e4fcb201445efb23a76efffffffff03c3730521000000001976a9142d18a4426be22ca5bf5682de603813f10f9fbb9e88acc76de900000000001976a914ddd3e5ae55e89b5b0e0bc4d362ead3a9013bee5c88ac1eadbf21000000001976a91467fd7541deec20cc853068071e05e57b17133f6e88ac00000000", "vin": [{"sequence": 4294967295, "scriptSig": {"hex": "47304402200373d7ad185685acf6a9738a41ad370dd86ce76934b3fcff5c90610e29e1ecf002201b24fee7d8939b772dc2f1676930f507be0f67af75168614f0a0efa757a15344012102f745e53a8bdce547300003d9af8534b89f49cc6e9f946ec0cf42e3594dd5bf04", "asm": "304402200373d7ad185685acf6a9738a41ad370dd86ce76934b3fcff5c90610e29e1ecf002201b24fee7d8939b772dc2f1676930f507be0f67af75168614f0a0efa757a15344[ALL] 02f745e53a8bdce547300003d9af8534b89f49cc6e9f946ec0cf42e3594dd5bf04"}, "vout": 1, "txid": "bd851ca0e7626c969eb63ad8b71571d2cc8c46ceb845519ea52c80676737f758"}, {"sequence": 4294967295, "scriptSig": {"hex": "473044022067955859ed09af72c2e9bb7e8a57aeda65374cc6b4cc7318bbeac3d2181ef72e02206f99ce35cb0c33fd731277a0057985617a26c24ef70c939b77b210164a28a693012102d7028f2da58ff71bcba854f9e421c55231f0efb429c35694c9aa89537f4ac2ca", "asm": "3044022067955859ed09af72c2e9bb7e8a57aeda65374cc6b4cc7318bbeac3d2181ef72e02206f99ce35cb0c33fd731277a0057985617a26c24ef70c939b77b210164a28a693[ALL] 02d7028f2da58ff71bcba854f9e421c55231f0efb429c35694c9aa89537f4ac2ca"}, "vout": 6, "txid": "48743cd5ac817b5fd0d5d7e615bb805fd801ed5dfc5a65fd9727056007b67361"}, {"sequence": 4294967295, "scriptSig": {"hex": "473044022045e7642ada06c408cc1703f736b15df81465b98c7507c0e1f48b759ed8b9c7ef02203e0edad2c86dc854944c0dfec76bebce5b33dfacd8319e0eb78a6a03986d507f012102f9c22fc691cff4e0a6bc0f6afd95fdcb95a06b9b204c51291c7a4b537102c619", "asm": "3044022045e7642ada06c408cc1703f736b15df81465b98c7507c0e1f48b759ed8b9c7ef02203e0edad2c86dc854944c0dfec76bebce5b33dfacd8319e0eb78a6a03986d507f[ALL] 02f9c22fc691cff4e0a6bc0f6afd95fdcb95a06b9b204c51291c7a4b537102c619"}, "vout": 4, "txid": "5b6f7e53b153fff443b045c69ec69add3680277d589f4e1d634e33feb14c0218"}, {"sequence": 4294967295, "scriptSig": {"hex": "483045022100b030a560c6adedb059558082c76aa4cf661943133174096660ea674fd0e9e88a022023c433a74341d086a848ccadbd8e10e4c396acd3a90a74b639cc906e407b65690121023e1df76e7b818f87a625d281466eb0bd6bd51196701e59b9775d17dc9b26ce35", "asm": "3045022100b030a560c6adedb059558082c76aa4cf661943133174096660ea674fd0e9e88a022023c433a74341d086a848ccadbd8e10e4c396acd3a90a74b639cc906e407b6569[ALL] 023e1df76e7b818f87a625d281466eb0bd6bd51196701e59b9775d17dc9b26ce35"}, "vout": 0, "txid": "8c01c71d2ae072ff558ea1928a91fd97ba53a028c0046f532abf806cf9036d1e"}, {"sequence": 4294967295, "scriptSig": {"hex": "4830450221008a9163031665254a511e6b691154c1ef84e58bf6545084105a0fd751d07dd04702201e9e26389710165665092cfa6324d85b53bd9c74fe1c5c886b545d93d54a1905012102466461c688466179239c3c2ae88a86fe284e8a1e99c119042d854ae5db6e7768", "asm": "30450221008a9163031665254a511e6b691154c1ef84e58bf6545084105a0fd751d07dd04702201e9e26389710165665092cfa6324d85b53bd9c74fe1c5c886b545d93d54a1905[ALL] 02466461c688466179239c3c2ae88a86fe284e8a1e99c119042d854ae5db6e7768"}, "vout": 23, "txid": "6951c065322050c3d5d4a323217504a6ed6847525ea2b66a7d098f6171e8ffc0"}, {"sequence": 4294967295, "scriptSig": {"hex": "483045022100aa9e9d4a267ef5316e2be481ab199dbfb8c2b3bb22309e682399180def265e2f022070d37b657772be6b94ec1406f11edf217138a501cd3fc38a024c9e0cca62f606012102bba01ffa088d2ae98158a6f01b3ea219b93a8d5024232b8f783a87af1cc4f767", "asm": "3045022100aa9e9d4a267ef5316e2be481ab199dbfb8c2b3bb22309e682399180def265e2f022070d37b657772be6b94ec1406f11edf217138a501cd3fc38a024c9e0cca62f606[ALL] 02bba01ffa088d2ae98158a6f01b3ea219b93a8d5024232b8f783a87af1cc4f767"}, "vout": 0, "txid": "8a8b65153b85d54f99375e2bad7b5650b51e88befb04f894c282b26eea682815"}, {"sequence": 4294967295, "scriptSig": {"hex": "473044022047b5a488891bf34ca81958afff015eaf0730162e318293431a5a1982ca4da043022022ae543f7d3913b18918fddecfc825181275a506b2fb4f5768663c72db7bd5d70121027caa3127e3b952ab6b52e20609f8012d3ab311283d7e16891b6ffba5fbdf8d86", "asm": "3044022047b5a488891bf34ca81958afff015eaf0730162e318293431a5a1982ca4da043022022ae543f7d3913b18918fddecfc825181275a506b2fb4f5768663c72db7bd5d7[ALL] 027caa3127e3b952ab6b52e20609f8012d3ab311283d7e16891b6ffba5fbdf8d86"}, "vout": 11, "txid": "0e3ebcb9952a3bb4c6ae7c6f9583bde66ac3283ae5fdf963b1ceb4f9adcc8f99"}, {"sequence": 4294967295, "scriptSig": {"hex": "483045022100dd470ab1e646294019cda54226a5360cd93a1073f8235040735ea373a53ad37902206fa63e23a57ddadcf5faad72743dfb3b082d27407d64a888e08b8cd832b331b30121030127f8672ee480e4a65b814380dea476105759fc52eaa6067f84af156745ae09", "asm": "3045022100dd470ab1e646294019cda54226a5360cd93a1073f8235040735ea373a53ad37902206fa63e23a57ddadcf5faad72743dfb3b082d27407d64a888e08b8cd832b331b3[ALL] 030127f8672ee480e4a65b814380dea476105759fc52eaa6067f84af156745ae09"}, "vout": 3, "txid": "9cd5ac1df55d7467f7c31eec19d815982c44f4faaeb9e2d4dc8fd67f13086692"}, {"sequence": 4294967295, "scriptSig": {"hex": "483045022100f0705514e5169d7b51afeba2593f26df6aa1d5c8a8bc505fe40e80e51b069f46022060fbb9fc6308105babff8e7f83e14ef52d65e88741f64eebef6f7a382842900f012102af9933a51340cb90165af968b9258ef3cdfcc40075588b33f37b37cd2ca95372", "asm": "3045022100f0705514e5169d7b51afeba2593f26df6aa1d5c8a8bc505fe40e80e51b069f46022060fbb9fc6308105babff8e7f83e14ef52d65e88741f64eebef6f7a382842900f[ALL] 02af9933a51340cb90165af968b9258ef3cdfcc40075588b33f37b37cd2ca95372"}, "vout": 339, "txid": "6951c065322050c3d5d4a323217504a6ed6847525ea2b66a7d098f6171e8ffc0"}, {"sequence": 4294967295, "scriptSig": {"hex": "483045022100ecc8228bf48a7a0f593a737f798b540c30d170b6927ae2972a41ca29197bc53302203b4ead480f66f5f5b585546c5e02bb7587f330a03eb173a45e7d85a745929da9012103d3f579d8f830d3ca2bf24f6f91fa4636cbd7cad18584f0db9b27771f3035cfef", "asm": "3045022100ecc8228bf48a7a0f593a737f798b540c30d170b6927ae2972a41ca29197bc53302203b4ead480f66f5f5b585546c5e02bb7587f330a03eb173a45e7d85a745929da9[ALL] 03d3f579d8f830d3ca2bf24f6f91fa4636cbd7cad18584f0db9b27771f3035cfef"}, "vout": 166, "txid": "9c45fdf9062ebb907ff4d7ed116128f464ca9990e879863e8b822d07810b505d"}, {"sequence": 4294967295, "scriptSig": {"hex": "483045022100808ac46d67286bfc43fe498f2cda7fbcbddfc43d970154df89ec3292d55c0cdd022073801200010c9fd44d2190619e2dcb6c79f611302ab71c0435cc9b03cc4fba77012103bca4c266143d0084248e7b09ed4d61e1e4af9a0ded447d2a3a54b431d3318061", "asm": "3045022100808ac46d67286bfc43fe498f2cda7fbcbddfc43d970154df89ec3292d55c0cdd022073801200010c9fd44d2190619e2dcb6c79f611302ab71c0435cc9b03cc4fba77[ALL] 03bca4c266143d0084248e7b09ed4d61e1e4af9a0ded447d2a3a54b431d3318061"}, "vout": 23, "txid": "c25192fa4e528b080f522cf7e53dd6106a444a820d402eb56ea64db94c1cbb4a"}, {"sequence": 4294967295, "scriptSig": {"hex": "4730440220735a985f24a738a016a1cb7d47a697f135466cba2272841f608b2a5b8fbf89050220152209005d469e7fb306736607e6ed2971b925c8fea6176834b60924554c92c0012103a22e9f564606becedf49a66e0e478f037866d3ab5969ff94ed901fdfc8f5e24e", "asm": "30440220735a985f24a738a016a1cb7d47a697f135466cba2272841f608b2a5b8fbf89050220152209005d469e7fb306736607e6ed2971b925c8fea6176834b60924554c92c0[ALL] 03a22e9f564606becedf49a66e0e478f037866d3ab5969ff94ed901fdfc8f5e24e"}, "vout": 0, "txid": "5239cec13efd5f822a17fd7170b1156b5849b2427fd89ae522c113d2598aed16"}, {"sequence": 4294967295, "scriptSig": {"hex": "483045022100e2f7ffe975e0ec94c813f14481d17ebf7dd171d5edee08e7ddc207a1d9e0d24502202fb31f9455b8298d06359af7b70aca048fda4182118ab7d6bc567e85edf2ed72012103b9f5ec01aa44fcbba22794e03099cb10120a9dbcab5e4fcb201445efb23a76ef", "asm": "3045022100e2f7ffe975e0ec94c813f14481d17ebf7dd171d5edee08e7ddc207a1d9e0d24502202fb31f9455b8298d06359af7b70aca048fda4182118ab7d6bc567e85edf2ed72[ALL] 03b9f5ec01aa44fcbba22794e03099cb10120a9dbcab5e4fcb201445efb23a76ef"}, "vout": 6, "txid": "7aa9bbb46722fbd77cf76143d2f7dcdc87528b11b902153c8e20ec88a7f6ea47"}], "txid": "984c31ae5f5ff3c67b35abde0ccaeb66099d279ce3d7943b2abd5b9576356982", "blocktime": 1537869901, "version": 1, "confirmations": 11522, "time": 1537869901, "locktime": 0, "vsize": 2031, "size": 2031}