{"hash": "984df55977021319c8fbb0c81a0bd04ff36f856825835de4cdf51c11a04beeaf", "blockhash": "0000000000000000000e13cef7c366c0283d82e591d1acd082e914b08063cdf1", "vout": [{"scriptPubKey": {"reqSigs": 1, "hex": "76a9145f8ea15f61c21612a2354a4f1848b5c673f2cd8088ac", "addresses": ["19iG4MbjtLQdobMRRhKTPh1Q9woMumSNDk"], "asm": "OP_DUP OP_HASH160 5f8ea15f61c21612a2354a4f1848b5c673f2cd80 OP_EQUALVERIFY OP_CHECKSIG", "type": "pubkeyhash"}, "value": 0.00234334, "n": 0}, {"scriptPubKey": {"reqSigs": 1, "hex": "76a914f09c09202666a90ea464591092581e7147520cc488ac", "addresses": ["1NwE6azfUv3zf9oVH5Rq5fBrpgqH2rUGrB"], "asm": "OP_DUP OP_HASH160 f09c09202666a90ea464591092581e7147520cc4 OP_EQUALVERIFY OP_CHECKSIG", "type": "pubkeyhash"}, "value": 0.00714139, "n": 1}], "hex": "0100000001cc77e24b7ea19b250509de7fccba72c04e9d164fcab4d0f67978843436c985f8010000006a47304402205fdfb62b1648093f4ec60790cfa165436acd7d463c62e0e4b7373aabc4020c6f02201000bbb900233d14aa1e70ae01e74b2b4c512bf792e4b5199ea25af3ce4ce8aa0121038f0280e70f3efff67ad4fa0cbba2f7467e49c7246268fcc3e1120bf8e2a45383ffffffff025e930300000000001976a9145f8ea15f61c21612a2354a4f1848b5c673f2cd8088ac9be50a00000000001976a914f09c09202666a90ea464591092581e7147520cc488ac00000000", "vin": [{"sequence": 4294967295, "scriptSig": {"hex": "47304402205fdfb62b1648093f4ec60790cfa165436acd7d463c62e0e4b7373aabc4020c6f02201000bbb900233d14aa1e70ae01e74b2b4c512bf792e4b5199ea25af3ce4ce8aa0121038f0280e70f3efff67ad4fa0cbba2f7467e49c7246268fcc3e1120bf8e2a45383", "asm": "304402205fdfb62b1648093f4ec60790cfa165436acd7d463c62e0e4b7373aabc4020c6f02201000bbb900233d14aa1e70ae01e74b2b4c512bf792e4b5199ea25af3ce4ce8aa[ALL] 038f0280e70f3efff67ad4fa0cbba2f7467e49c7246268fcc3e1120bf8e2a45383"}, "vout": 1, "txid": "f885c93634847879f6d0b4ca4f169d4ec072bacc7fde0905259ba17e4be277cc"}], "txid": "984df55977021319c8fbb0c81a0bd04ff36f856825835de4cdf51c11a04beeaf", "blocktime": 1537871767, "version": 1, "confirmations": 11495, "time": 1537871767, "locktime": 0, "vsize": 225, "size": 225}