{"hash": "984fe32e625de699e71648c28b1a29ca9fe9548fbbab1a448d5ca7b3919ed27a", "blockhash": "0000000000000000001f76057863aec43deb6fa401d9628bb513d65a8098bfab", "vout": [{"scriptPubKey": {"reqSigs": 1, "hex": "76a91445f9723b4c750ad81df7f93652d8ad8186e0b86888ac", "addresses": ["17NzT4g2gQmZPX2hSWyB2rBha2Kew46pvb"], "asm": "OP_DUP OP_HASH160 45f9723b4c750ad81df7f93652d8ad8186e0b868 OP_EQUALVERIFY OP_CHECKSIG", "type": "pubkeyhash"}, "value": 0.01153924, "n": 0}, {"scriptPubKey": {"reqSigs": 1, "hex": "76a914a8381dadbfd854c8685b2c9ab8530e0020057fa688ac", "addresses": ["1GLTkEPavQe3pHJcbhfMW8FPcwsf74g4QS"], "asm": "OP_DUP OP_HASH160 a8381dadbfd854c8685b2c9ab8530e0020057fa6 OP_EQUALVERIFY OP_CHECKSIG", "type": "pubkeyhash"}, "value": 0.00473, "n": 1}], "hex": "0100000001aa446bffd5c5be3e3ac375bb6431fc9e4af7467bbec380d89c581ab4e793e4a4000000006b483045022100ab28759da79f998b27813c2af22751fdb7399f38d608989c74ec759e66aa8a9c02203d662a62ff8d267623ba0d1d06eea79fcc84fcec90def36f0ed9cd775c5129bb012103c62ac3a6ef5595d95fa0bd15764e2ba1e78cb309c60b9a607be6ef82ff0ce80efeffffff02849b1100000000001976a91445f9723b4c750ad81df7f93652d8ad8186e0b86888aca8370700000000001976a914a8381dadbfd854c8685b2c9ab8530e0020057fa688ac14490800", "vin": [{"sequence": 4294967294, "scriptSig": {"hex": "483045022100ab28759da79f998b27813c2af22751fdb7399f38d608989c74ec759e66aa8a9c02203d662a62ff8d267623ba0d1d06eea79fcc84fcec90def36f0ed9cd775c5129bb012103c62ac3a6ef5595d95fa0bd15764e2ba1e78cb309c60b9a607be6ef82ff0ce80e", "asm": "3045022100ab28759da79f998b27813c2af22751fdb7399f38d608989c74ec759e66aa8a9c02203d662a62ff8d267623ba0d1d06eea79fcc84fcec90def36f0ed9cd775c5129bb[ALL] 03c62ac3a6ef5595d95fa0bd15764e2ba1e78cb309c60b9a607be6ef82ff0ce80e"}, "vout": 0, "txid": "a4e493e7b41a589cd880c3be7b46f74a9efc3164bb75c33a3ebec5d5ff6b44aa"}], "txid": "984fe32e625de699e71648c28b1a29ca9fe9548fbbab1a448d5ca7b3919ed27a", "blocktime": 1537873891, "version": 1, "confirmations": 11474, "time": 1537873891, "locktime": 542996, "vsize": 226, "size": 226}