{"hash": "98547022fa9128314851610543acaf1d761b9acecbd046453e1cfa582c448904", "blockhash": "0000000000000000000e13cef7c366c0283d82e591d1acd082e914b08063cdf1", "vout": [{"scriptPubKey": {"reqSigs": 1, "hex": "76a914f5dfe56baafb3d7299a6d072e1c1b7df434d0ff388ac", "addresses": ["1PR4maVED11BMM2Hdn1o4tcPEWVyAW3E5Z"], "asm": "OP_DUP OP_HASH160 f5dfe56baafb3d7299a6d072e1c1b7df434d0ff3 OP_EQUALVERIFY OP_CHECKSIG", "type": "pubkeyhash"}, "value": 0.00531385, "n": 0}, {"scriptPubKey": {"reqSigs": 1, "hex": "76a914380551ce4592e54c735c41d479722903975f50cc88ac", "addresses": ["167DDMPhTZEu2hTwbSDJuTHuQnBSFSMKRM"], "asm": "OP_DUP OP_HASH160 380551ce4592e54c735c41d479722903975f50cc OP_EQUALVERIFY OP_CHECKSIG", "type": "pubkeyhash"}, "value": 0.00781042, "n": 1}], "hex": "0100000001571c4c7f50dd452c9e81b16f83058864d7280a06bcccb74b63ec9a37c29379b1000000008b483045022100c02ef302d018ec484032eaefedb414a5eac9b352f739bee57dd889dbaa4f2d090220127841d1e2ee1e0e9667506119dc392f85ce2294b0877ac7f82e0544e3ede8a501410493f5dc999b28fed0b580f80dc6d468e33201b93f6339a7f6ba5babe337ac2e62798ba997c14117f4e9f87d888bbaaabe1414af7dab808e9afc9c8e49b489b116ffffffff02b91b0800000000001976a914f5dfe56baafb3d7299a6d072e1c1b7df434d0ff388acf2ea0b00000000001976a914380551ce4592e54c735c41d479722903975f50cc88ac00000000", "vin": [{"sequence": 4294967295, "scriptSig": {"hex": "483045022100c02ef302d018ec484032eaefedb414a5eac9b352f739bee57dd889dbaa4f2d090220127841d1e2ee1e0e9667506119dc392f85ce2294b0877ac7f82e0544e3ede8a501410493f5dc999b28fed0b580f80dc6d468e33201b93f6339a7f6ba5babe337ac2e62798ba997c14117f4e9f87d888bbaaabe1414af7dab808e9afc9c8e49b489b116", "asm": "3045022100c02ef302d018ec484032eaefedb414a5eac9b352f739bee57dd889dbaa4f2d090220127841d1e2ee1e0e9667506119dc392f85ce2294b0877ac7f82e0544e3ede8a5[ALL] 0493f5dc999b28fed0b580f80dc6d468e33201b93f6339a7f6ba5babe337ac2e62798ba997c14117f4e9f87d888bbaaabe1414af7dab808e9afc9c8e49b489b116"}, "vout": 0, "txid": "b17993c2379aec634bb7ccbc060a28d7648805836fb1819e2c45dd507f4c1c57"}], "txid": "98547022fa9128314851610543acaf1d761b9acecbd046453e1cfa582c448904", "blocktime": 1537871767, "version": 1, "confirmations": 11495, "time": 1537871767, "locktime": 0, "vsize": 258, "size": 258}