{"hash": "985a1b8d3b6a1a8ef686cf6d1b759bb0942bfd3fa564edfffe309cfc63938176", "blockhash": "0000000000000000000e13cef7c366c0283d82e591d1acd082e914b08063cdf1", "vout": [{"scriptPubKey": {"reqSigs": 1, "hex": "76a9145fb7125a6454c280e60e222720d0aed5f0ff8d3688ac", "addresses": ["19j6WGYfACmPMfzr9NkbLzPxyoDU84swyg"], "asm": "OP_DUP OP_HASH160 5fb7125a6454c280e60e222720d0aed5f0ff8d36 OP_EQUALVERIFY OP_CHECKSIG", "type": "pubkeyhash"}, "value": 4.97654783, "n": 0}], "hex": "0100000001b2c6c1aeb886a6c5b925324e6e9ccfa094aa23d1f2b4912b2bf024e47683e577000000006b483045022100896b68daf27ed2af59d399f3c91188a62d80b38f8af178c86bb4c585a03ae93202201723ac5c5fcb1d398e70697746d97ecbebbdb799384637e1c26671e4498278420121038c94eb3f102096fadab7aad64d906f55fe9966205d7d7fbc4759cd23023d676affffffff01ff9ba91d000000001976a9145fb7125a6454c280e60e222720d0aed5f0ff8d3688ac00000000", "vin": [{"sequence": 4294967295, "scriptSig": {"hex": "483045022100896b68daf27ed2af59d399f3c91188a62d80b38f8af178c86bb4c585a03ae93202201723ac5c5fcb1d398e70697746d97ecbebbdb799384637e1c26671e4498278420121038c94eb3f102096fadab7aad64d906f55fe9966205d7d7fbc4759cd23023d676a", "asm": "3045022100896b68daf27ed2af59d399f3c91188a62d80b38f8af178c86bb4c585a03ae93202201723ac5c5fcb1d398e70697746d97ecbebbdb799384637e1c26671e449827842[ALL] 038c94eb3f102096fadab7aad64d906f55fe9966205d7d7fbc4759cd23023d676a"}, "vout": 0, "txid": "77e58376e424f02b2b91b4f2d123aa94a0cf9c6e4e3225b9c5a686b8aec1c6b2"}], "txid": "985a1b8d3b6a1a8ef686cf6d1b759bb0942bfd3fa564edfffe309cfc63938176", "blocktime": 1537871767, "version": 1, "confirmations": 11495, "time": 1537871767, "locktime": 0, "vsize": 192, "size": 192}