{"hash": "985eb661dc111b1f5a86c193fcd8c1b3ad87e2afbc720d712a1a93e711b6bc4d", "blockhash": "0000000000000000001cda96e906b7601b7a6fb1a3b62bca570a9e5d8f4b3de1", "vout": [{"scriptPubKey": {"reqSigs": 1, "hex": "a914637b2908bd3b5195a7941c4a1bbd2ee25e7585be87", "addresses": ["3Am2Mrwi1FZoFUT4U2JudaxBPkm22xRWQk"], "asm": "OP_HASH160 637b2908bd3b5195a7941c4a1bbd2ee25e7585be OP_EQUAL", "type": "scripthash"}, "value": 0.026846, "n": 0}, {"scriptPubKey": {"reqSigs": 1, "hex": "76a91455d5b4cdcaea5596bca0a95cc24e0fd39e01e51588ac", "addresses": ["18prSssuSWe39Vizvx9GwibTJXsuqywpEv"], "asm": "OP_DUP OP_HASH160 55d5b4cdcaea5596bca0a95cc24e0fd39e01e515 OP_EQUALVERIFY OP_CHECKSIG", "type": "pubkeyhash"}, "value": 0.04778505, "n": 1}], "hex": "01000000059405aad8dd2e67bad10f783335115f3d07a8634791451f740c57cd094e28f00c000000006b483045022100acc1098ff021cb20bebdce4073832b17f1ff49ca3fe513994c8e9e717c74509002204f30b2c2abc884789d71deb0428c7b8e2cfbafccd978677a29abb3cbc7c3584e0121037286c92c1501fd7aa42d0603e9d800ae4dec705763450eeefd0e976488262decffffffff679b43d28284a05ceaa7fc9959d58d4766041518d271d26e055397f80339892f000000006b483045022100b4dec00e048e49502073056dd79662321f44843b41f63a95c0c1e032b192b942022025536f32fa699c88dc4e841e82118701b5f575438cf07580c192758a725b6ff2012103c9d8a7590dab3972a87dce4fb857e56f3a301a5138d6c4ad13a0f6dedce32a20ffffffffeedb4b10d5ccbd424fc843d16442fec811599b5948c89a73944c74b935b3fc3e000000006b4830450221008d3cf7b7b188bf89e3dd143a9553bf37e2227f1c5ca48af1b62076cce227378902207ec143f622962b521ba7599718f1fc3234e471e1a966266f5fbadb91fa1c1eee0121021153f1b22151d13e95935a3017c6fb066c96d0c4cc6a4963a9340ca99f130b79ffffffff92a51e2c13725fd919e4dbde6c1f26bd096c35e40df26e037f2e9ecaefc9417f000000006a473044022050877103b5bdcb2f6882e0bd72dac29ad1605f99d0844898ad078bdfd164983002201a0589fe306f9fb4af44a2ac9dd950ec09be74e6ff485d624d78687f00afe0700121039bcd4a0df52da7c78299bdd3d158569832496e281519a95454a0689a2b4e348dffffffff7152684290c3f025d4fc897ee5fb8286a738885a840d64396d74d9e91a9caee5000000006b483045022100f7291d260a8a969236c3b6720180b066fe7c756e4896d2051cf5564dfb941c2202201b681c00eedbaf4287a679fc8d4263f11a284ef79434145b6e76f7608229da0b0121026fcfe3f754b16e3047c013759d7409279c6e28d2b0859f72273f4c75e58c1539ffffffff02b8f628000000000017a914637b2908bd3b5195a7941c4a1bbd2ee25e7585be8709ea4800000000001976a91455d5b4cdcaea5596bca0a95cc24e0fd39e01e51588ac00000000", "vin": [{"sequence": 4294967295, "scriptSig": {"hex": "483045022100acc1098ff021cb20bebdce4073832b17f1ff49ca3fe513994c8e9e717c74509002204f30b2c2abc884789d71deb0428c7b8e2cfbafccd978677a29abb3cbc7c3584e0121037286c92c1501fd7aa42d0603e9d800ae4dec705763450eeefd0e976488262dec", "asm": "3045022100acc1098ff021cb20bebdce4073832b17f1ff49ca3fe513994c8e9e717c74509002204f30b2c2abc884789d71deb0428c7b8e2cfbafccd978677a29abb3cbc7c3584e[ALL] 037286c92c1501fd7aa42d0603e9d800ae4dec705763450eeefd0e976488262dec"}, "vout": 0, "txid": "0cf0284e09cd570c741f45914763a8073d5f113533780fd1ba672eddd8aa0594"}, {"sequence": 4294967295, "scriptSig": {"hex": "483045022100b4dec00e048e49502073056dd79662321f44843b41f63a95c0c1e032b192b942022025536f32fa699c88dc4e841e82118701b5f575438cf07580c192758a725b6ff2012103c9d8a7590dab3972a87dce4fb857e56f3a301a5138d6c4ad13a0f6dedce32a20", "asm": "3045022100b4dec00e048e49502073056dd79662321f44843b41f63a95c0c1e032b192b942022025536f32fa699c88dc4e841e82118701b5f575438cf07580c192758a725b6ff2[ALL] 03c9d8a7590dab3972a87dce4fb857e56f3a301a5138d6c4ad13a0f6dedce32a20"}, "vout": 0, "txid": "2f893903f89753056ed271d218150466478dd55999fca7ea5ca08482d2439b67"}, {"sequence": 4294967295, "scriptSig": {"hex": "4830450221008d3cf7b7b188bf89e3dd143a9553bf37e2227f1c5ca48af1b62076cce227378902207ec143f622962b521ba7599718f1fc3234e471e1a966266f5fbadb91fa1c1eee0121021153f1b22151d13e95935a3017c6fb066c96d0c4cc6a4963a9340ca99f130b79", "asm": "30450221008d3cf7b7b188bf89e3dd143a9553bf37e2227f1c5ca48af1b62076cce227378902207ec143f622962b521ba7599718f1fc3234e471e1a966266f5fbadb91fa1c1eee[ALL] 021153f1b22151d13e95935a3017c6fb066c96d0c4cc6a4963a9340ca99f130b79"}, "vout": 0, "txid": "3efcb335b9744c94739ac848599b5911c8fe4264d143c84f42bdccd5104bdbee"}, {"sequence": 4294967295, "scriptSig": {"hex": "473044022050877103b5bdcb2f6882e0bd72dac29ad1605f99d0844898ad078bdfd164983002201a0589fe306f9fb4af44a2ac9dd950ec09be74e6ff485d624d78687f00afe0700121039bcd4a0df52da7c78299bdd3d158569832496e281519a95454a0689a2b4e348d", "asm": "3044022050877103b5bdcb2f6882e0bd72dac29ad1605f99d0844898ad078bdfd164983002201a0589fe306f9fb4af44a2ac9dd950ec09be74e6ff485d624d78687f00afe070[ALL] 039bcd4a0df52da7c78299bdd3d158569832496e281519a95454a0689a2b4e348d"}, "vout": 0, "txid": "7f41c9efca9e2e7f036ef20de4356c09bd261f6cdedbe419d95f72132c1ea592"}, {"sequence": 4294967295, "scriptSig": {"hex": "483045022100f7291d260a8a969236c3b6720180b066fe7c756e4896d2051cf5564dfb941c2202201b681c00eedbaf4287a679fc8d4263f11a284ef79434145b6e76f7608229da0b0121026fcfe3f754b16e3047c013759d7409279c6e28d2b0859f72273f4c75e58c1539", "asm": "3045022100f7291d260a8a969236c3b6720180b066fe7c756e4896d2051cf5564dfb941c2202201b681c00eedbaf4287a679fc8d4263f11a284ef79434145b6e76f7608229da0b[ALL] 026fcfe3f754b16e3047c013759d7409279c6e28d2b0859f72273f4c75e58c1539"}, "vout": 0, "txid": "e5ae9c1ae9d9746d39640d845a8838a78682fbe57e89fcd425f0c39042685271"}], "txid": "985eb661dc111b1f5a86c193fcd8c1b3ad87e2afbc720d712a1a93e711b6bc4d", "blocktime": 1537873282, "version": 1, "confirmations": 11485, "time": 1537873282, "locktime": 0, "vsize": 815, "size": 815}