{"hash": "9869efb713bf2fc588966ac279c6093246ceec8419b48028ade4ef442eb412f4", "blockhash": "0000000000000000001e0dab787dd257d1dbfcb92a98c2207d5e1078be1f4165", "vout": [{"scriptPubKey": {"reqSigs": 1, "hex": "76a914d31240891907435c11d3c6753bff9cdb6512392988ac", "addresses": ["1LF3SevP9TgaBFuPBfymVvU3dbWmButoqD"], "asm": "OP_DUP OP_HASH160 d31240891907435c11d3c6753bff9cdb65123929 OP_EQUALVERIFY OP_CHECKSIG", "type": "pubkeyhash"}, "value": 0.00037, "n": 0}], "hex": "01000000040e264bdacc20fdd9ac6b73503384d6864149de9c74e2d4ade887a2c6c628d51a000000006a47304402202576ecd9b3ed0f528338dc7e1b880523c934c76e2716dcca7a9e46ec9675008102205dcfc15af16e3b88aed0102c27076ed28fea4a0609d7a4778bcf005a7237f282012102942561d18e2e149c6aff6f01557eb2002a080baec2f9c725722bba33040f5908ffffffff873ec5533f6d5a6ecd9b9c0a2267a4ab63fea25451c16b6ddeedd972e0c5691c000000006b483045022100fd03f3c559e8f62a02b529663b1a3b2b69d65acbe4ec90cafe663600778d705102206aeac6e4cc777ea7072ed2dd31aba932bf686c690d5c2b0dc990b9d020a33bcf012102942561d18e2e149c6aff6f01557eb2002a080baec2f9c725722bba33040f5908ffffffff4967c2da6b2daf5b971f02a39cd88fd92a0cb85079a60b323e5b7a414eeffa84400100006b483045022100e6207837ee920a98ab6e5cc7f604ce0c7b4203742e93b6a0c379113afc86d666022024beddd57edbf6625ee68cabb92e1d72084116eedb45d0fbd3fd9798d40dde37012102942561d18e2e149c6aff6f01557eb2002a080baec2f9c725722bba33040f5908ffffffffb7ad33cc3ba552348136d3154dd19d51a8c7bd3390da380e3cafd1fa797b7385a50900006a47304402203d80c69a3283e080b51d00056638ac71f58e1639a4d9c62f32262937c98e6b8402204994aabe192c762d1a3d09bd7cac8d57121801313790e644f34b253f7f9f8163012102942561d18e2e149c6aff6f01557eb2002a080baec2f9c725722bba33040f5908ffffffff0188900000000000001976a914d31240891907435c11d3c6753bff9cdb6512392988ac00000000", "vin": [{"sequence": 4294967295, "scriptSig": {"hex": "47304402202576ecd9b3ed0f528338dc7e1b880523c934c76e2716dcca7a9e46ec9675008102205dcfc15af16e3b88aed0102c27076ed28fea4a0609d7a4778bcf005a7237f282012102942561d18e2e149c6aff6f01557eb2002a080baec2f9c725722bba33040f5908", "asm": "304402202576ecd9b3ed0f528338dc7e1b880523c934c76e2716dcca7a9e46ec9675008102205dcfc15af16e3b88aed0102c27076ed28fea4a0609d7a4778bcf005a7237f282[ALL] 02942561d18e2e149c6aff6f01557eb2002a080baec2f9c725722bba33040f5908"}, "vout": 0, "txid": "1ad528c6c6a287e8add4e2749cde494186d6843350736bacd9fd20ccda4b260e"}, {"sequence": 4294967295, "scriptSig": {"hex": "483045022100fd03f3c559e8f62a02b529663b1a3b2b69d65acbe4ec90cafe663600778d705102206aeac6e4cc777ea7072ed2dd31aba932bf686c690d5c2b0dc990b9d020a33bcf012102942561d18e2e149c6aff6f01557eb2002a080baec2f9c725722bba33040f5908", "asm": "3045022100fd03f3c559e8f62a02b529663b1a3b2b69d65acbe4ec90cafe663600778d705102206aeac6e4cc777ea7072ed2dd31aba932bf686c690d5c2b0dc990b9d020a33bcf[ALL] 02942561d18e2e149c6aff6f01557eb2002a080baec2f9c725722bba33040f5908"}, "vout": 0, "txid": "1c69c5e072d9edde6d6bc15154a2fe63aba467220a9c9bcd6e5a6d3f53c53e87"}, {"sequence": 4294967295, "scriptSig": {"hex": "483045022100e6207837ee920a98ab6e5cc7f604ce0c7b4203742e93b6a0c379113afc86d666022024beddd57edbf6625ee68cabb92e1d72084116eedb45d0fbd3fd9798d40dde37012102942561d18e2e149c6aff6f01557eb2002a080baec2f9c725722bba33040f5908", "asm": "3045022100e6207837ee920a98ab6e5cc7f604ce0c7b4203742e93b6a0c379113afc86d666022024beddd57edbf6625ee68cabb92e1d72084116eedb45d0fbd3fd9798d40dde37[ALL] 02942561d18e2e149c6aff6f01557eb2002a080baec2f9c725722bba33040f5908"}, "vout": 320, "txid": "84faef4e417a5b3e320ba67950b80c2ad98fd89ca3021f975baf2d6bdac26749"}, {"sequence": 4294967295, "scriptSig": {"hex": "47304402203d80c69a3283e080b51d00056638ac71f58e1639a4d9c62f32262937c98e6b8402204994aabe192c762d1a3d09bd7cac8d57121801313790e644f34b253f7f9f8163012102942561d18e2e149c6aff6f01557eb2002a080baec2f9c725722bba33040f5908", "asm": "304402203d80c69a3283e080b51d00056638ac71f58e1639a4d9c62f32262937c98e6b8402204994aabe192c762d1a3d09bd7cac8d57121801313790e644f34b253f7f9f8163[ALL] 02942561d18e2e149c6aff6f01557eb2002a080baec2f9c725722bba33040f5908"}, "vout": 2469, "txid": "85737b79fad1af3c0e38da9033bdc7a8519dd14d15d336813452a53bcc33adb7"}], "txid": "9869efb713bf2fc588966ac279c6093246ceec8419b48028ade4ef442eb412f4", "blocktime": 1537872475, "version": 1, "confirmations": 11487, "time": 1537872475, "locktime": 0, "vsize": 634, "size": 634}