{"hash": "986bf8fb67003a6d19d46b67084fd10181b36936099e4a836f07017ea89bdd38", "blockhash": "0000000000000000001f76057863aec43deb6fa401d9628bb513d65a8098bfab", "vout": [{"scriptPubKey": {"reqSigs": 1, "hex": "76a914af2f961b0d895a95674d2659cb7e707c7db05cc788ac", "addresses": ["1GyJFvpUdyfUNU3sXStEsRb1eDoo7ZGGaA"], "asm": "OP_DUP OP_HASH160 af2f961b0d895a95674d2659cb7e707c7db05cc7 OP_EQUALVERIFY OP_CHECKSIG", "type": "pubkeyhash"}, "value": 0.00145165, "n": 0}, {"scriptPubKey": {"reqSigs": 1, "hex": "76a914463beb02122916dd6ea571089187249e1d5fcea388ac", "addresses": ["17QN5c27YPZkpi8c4fuK2xyhwKwCphkYwG"], "asm": "OP_DUP OP_HASH160 463beb02122916dd6ea571089187249e1d5fcea3 OP_EQUALVERIFY OP_CHECKSIG", "type": "pubkeyhash"}, "value": 0.00580247, "n": 1}], "hex": "01000000015834cb0c9b7bf6bc099fb6869a7cfef2f9893ef706002fcdf9bff6311c456db7000000006b483045022100ae92628e72edaf86e4973decb559686eb7bf615cf2c444cc1fcb0dc7e8fb678702207867fa187d5fedc066edbee354c399fbb7c1a2d791f3dcd0a945b1386247e4c9012103578097c749b46dad586ea720706d7f6760339b5f744caadf62ef7badb9089848ffffffff020d370200000000001976a914af2f961b0d895a95674d2659cb7e707c7db05cc788ac97da0800000000001976a914463beb02122916dd6ea571089187249e1d5fcea388ac00000000", "vin": [{"sequence": 4294967295, "scriptSig": {"hex": "483045022100ae92628e72edaf86e4973decb559686eb7bf615cf2c444cc1fcb0dc7e8fb678702207867fa187d5fedc066edbee354c399fbb7c1a2d791f3dcd0a945b1386247e4c9012103578097c749b46dad586ea720706d7f6760339b5f744caadf62ef7badb9089848", "asm": "3045022100ae92628e72edaf86e4973decb559686eb7bf615cf2c444cc1fcb0dc7e8fb678702207867fa187d5fedc066edbee354c399fbb7c1a2d791f3dcd0a945b1386247e4c9[ALL] 03578097c749b46dad586ea720706d7f6760339b5f744caadf62ef7badb9089848"}, "vout": 0, "txid": "b76d451c31f6bff9cd2f0006f73e89f9f2fe7c9a86b69f09bcf67b9b0ccb3458"}], "txid": "986bf8fb67003a6d19d46b67084fd10181b36936099e4a836f07017ea89bdd38", "blocktime": 1537873891, "version": 1, "confirmations": 11478, "time": 1537873891, "locktime": 0, "vsize": 226, "size": 226}