{"hash": "986bbf3ed9fb4e976926656978f510932e06ca520e31ac4eddaa3205aacb3d85", "blockhash": "00000000000000000024a2167bbff67b0be802c0b01cdd79e6331c2be6459f87", "vout": [{"scriptPubKey": {"reqSigs": 1, "hex": "76a9145d960f209dff5237bf1716ac12b72e1c9510e9b988ac", "addresses": ["19Xqc8Tua9KTzsdu2RbjPKNikmoADnjTK1"], "asm": "OP_DUP OP_HASH160 5d960f209dff5237bf1716ac12b72e1c9510e9b9 OP_EQUALVERIFY OP_CHECKSIG", "type": "pubkeyhash"}, "value": 0.0010718, "n": 0}, {"scriptPubKey": {"reqSigs": 1, "hex": "76a914de41d9c75243b2a71a234f8e4c73d0ff8867e4c488ac", "addresses": ["1MGBtySJPD4c3FgXxLDMj7JP1qfi6rGENX"], "asm": "OP_DUP OP_HASH160 de41d9c75243b2a71a234f8e4c73d0ff8867e4c4 OP_EQUALVERIFY OP_CHECKSIG", "type": "pubkeyhash"}, "value": 0.026327, "n": 1}], "hex": "0100000001bb6cdab81efd749031fe4a41971be02c3a030f7793f79b65166c1f7bee010b70000000006b48304502210094838c52de30c1d05cde0bd14f97169c348e500dde7a6e073c7d429b1feaf27602207949ba81bc7b0701aa0deeb4fc3110476ca489fcd10e00ec652b950da6fa27b7012103dbece101495926eeb71f63b10fb817451d004e5c486db0de62b8e991ac5fbc3cfeffffff02aca20100000000001976a9145d960f209dff5237bf1716ac12b72e1c9510e9b988acfc2b2800000000001976a914de41d9c75243b2a71a234f8e4c73d0ff8867e4c488ac00000000", "vin": [{"sequence": 4294967294, "scriptSig": {"hex": "48304502210094838c52de30c1d05cde0bd14f97169c348e500dde7a6e073c7d429b1feaf27602207949ba81bc7b0701aa0deeb4fc3110476ca489fcd10e00ec652b950da6fa27b7012103dbece101495926eeb71f63b10fb817451d004e5c486db0de62b8e991ac5fbc3c", "asm": "304502210094838c52de30c1d05cde0bd14f97169c348e500dde7a6e073c7d429b1feaf27602207949ba81bc7b0701aa0deeb4fc3110476ca489fcd10e00ec652b950da6fa27b7[ALL] 03dbece101495926eeb71f63b10fb817451d004e5c486db0de62b8e991ac5fbc3c"}, "vout": 0, "txid": "700b01ee7b1f6c16659bf793770f033a2ce01b97414afe319074fd1eb8da6cbb"}], "txid": "986bbf3ed9fb4e976926656978f510932e06ca520e31ac4eddaa3205aacb3d85", "blocktime": 1537870564, "version": 1, "confirmations": 11515, "time": 1537870564, "locktime": 0, "vsize": 226, "size": 226}