{"hash": "12a925ffac7fa1ca724acfd6d496684ee88e37db6d9f8b1d451adbcb9a1b9766", "blockhash": "00000000000000000017f5eb5941039fbcee6240d03bc1f2f8e35350df66a1d8", "vout": [{"scriptPubKey": {"reqSigs": 1, "hex": "a914583ad98e6325c5d3aec690e18e75237a93487f7087", "addresses": ["39jXtP9QsZ2GBT6LDvWLU6wrbNAD7FAvkv"], "asm": "OP_HASH160 583ad98e6325c5d3aec690e18e75237a93487f70 OP_EQUAL", "type": "scripthash"}, "value": 0.00266774, "n": 0}, {"scriptPubKey": {"reqSigs": 1, "hex": "a914bb4f9270bac1866461521617ccb241ce06111ad487", "addresses": ["3JmRcBGMRkKfUYUFYpYuxZbRkSeL166tmm"], "asm": "OP_HASH160 bb4f9270bac1866461521617ccb241ce06111ad4 OP_EQUAL", "type": "scripthash"}, "value": 5.47130764, "n": 1}], "hex": "020000000001019007aef242f74cf8365cf568e53ba9d35c722e07f3d9a5e2e8b1f5484a44dcba0000000017160014545dc1810e60907a0b3695aa383c4389ff4814e2feffffff02161204000000000017a914583ad98e6325c5d3aec690e18e75237a93487f70878c8d9c200000000017a914bb4f9270bac1866461521617ccb241ce06111ad48702473044022007086095b035c2cdcb1ae0bf9959268b5354c3375d1132929cd2d16af0455bcf02207b41ccaf8698c1a51da8ce90ad88e7d699c9ac05ae5a1a85f7e97a49f83f1724012102b802dbd71bdde29674a72a08bae35130029d592c5df830a762db876b7e391aab15490800", "vin": [{"txinwitness": ["3044022007086095b035c2cdcb1ae0bf9959268b5354c3375d1132929cd2d16af0455bcf02207b41ccaf8698c1a51da8ce90ad88e7d699c9ac05ae5a1a85f7e97a49f83f172401", "02b802dbd71bdde29674a72a08bae35130029d592c5df830a762db876b7e391aab"], "sequence": 4294967294, "scriptSig": {"hex": "160014545dc1810e60907a0b3695aa383c4389ff4814e2", "asm": "0014545dc1810e60907a0b3695aa383c4389ff4814e2"}, "vout": 0, "txid": "badc444a48f5b1e8e2a5d9f3072e725cd3a93be568f55c36f84cf742f2ae0790"}], "txid": "986d210930111e97909cbe34f27c444ce3731a8e3a92353ab106874b67e04ffa", "blocktime": 1537874412, "version": 2, "confirmations": 11468, "time": 1537874412, "locktime": 542997, "vsize": 166, "size": 247}