{"hash": "9876022dadd3d08e558a756280593b8d310045867729c3f73704d325901481ae", "blockhash": "00000000000000000024a2167bbff67b0be802c0b01cdd79e6331c2be6459f87", "vout": [{"scriptPubKey": {"reqSigs": 1, "hex": "76a914e48871f45ca67e44756279ece6cae7c287ade2c288ac", "addresses": ["1MqNX7U8JAMtibjuPu6SejFzEX4eymLxap"], "asm": "OP_DUP OP_HASH160 e48871f45ca67e44756279ece6cae7c287ade2c2 OP_EQUALVERIFY OP_CHECKSIG", "type": "pubkeyhash"}, "value": 0.06348145, "n": 0}, {"scriptPubKey": {"reqSigs": 1, "hex": "76a914a1ef98c237157952610c9ce16ded2068480a8d8f88ac", "addresses": ["1FmEpMfFzf5RMN7mn6pdCvEKeKDMs6KE7B"], "asm": "OP_DUP OP_HASH160 a1ef98c237157952610c9ce16ded2068480a8d8f OP_EQUALVERIFY OP_CHECKSIG", "type": "pubkeyhash"}, "value": 0.07811658, "n": 1}], "hex": "010000000162396cebe704611c4936a0b835749765f9fb7cd6e23a904ea94b3c6aa5050e57010000006a47304402202038bdde8427b93f18be81c34ca2d00bb43eb32190635fcf1848d251135ec18e022006854e877b7c159a3c3ea5127ea1e99cc9d5a2db2274cb0edd96e568dc5889f1012103f338fa16f21ce279773ffcdd8e83346294ae3ce200ba369668db3f0b46f2a184ffffffff0271dd6000000000001976a914e48871f45ca67e44756279ece6cae7c287ade2c288ac4a327700000000001976a914a1ef98c237157952610c9ce16ded2068480a8d8f88ac00000000", "vin": [{"sequence": 4294967295, "scriptSig": {"hex": "47304402202038bdde8427b93f18be81c34ca2d00bb43eb32190635fcf1848d251135ec18e022006854e877b7c159a3c3ea5127ea1e99cc9d5a2db2274cb0edd96e568dc5889f1012103f338fa16f21ce279773ffcdd8e83346294ae3ce200ba369668db3f0b46f2a184", "asm": "304402202038bdde8427b93f18be81c34ca2d00bb43eb32190635fcf1848d251135ec18e022006854e877b7c159a3c3ea5127ea1e99cc9d5a2db2274cb0edd96e568dc5889f1[ALL] 03f338fa16f21ce279773ffcdd8e83346294ae3ce200ba369668db3f0b46f2a184"}, "vout": 1, "txid": "570e05a56a3c4ba94e903ae2d67cfbf965977435b8a036491c6104e7eb6c3962"}], "txid": "9876022dadd3d08e558a756280593b8d310045867729c3f73704d325901481ae", "blocktime": 1537870564, "version": 1, "confirmations": 11515, "time": 1537870564, "locktime": 0, "vsize": 225, "size": 225}