{"hash": "987a22d864040ef2764894970f123a83e6e56d70440b4432b57b9d10d2ba3bc1", "blockhash": "00000000000000000004ffacab907a6b429b9a5745fa0b75af4234bf69dd7176", "vout": [{"scriptPubKey": {"reqSigs": 1, "hex": "76a9142ac694271b68203a46c6a89c75a6569343f91e3488ac", "addresses": ["14uBGYoeZJQ3dAc2wxo9Lwi5yyRo4y78NN"], "asm": "OP_DUP OP_HASH160 2ac694271b68203a46c6a89c75a6569343f91e34 OP_EQUALVERIFY OP_CHECKSIG", "type": "pubkeyhash"}, "value": 0.0372, "n": 0}, {"scriptPubKey": {"reqSigs": 1, "hex": "76a914bae025140c454518b8cba0c25d45a6dc87f4b9ce88ac", "addresses": ["1J37CY8hcdUXQ1KfBhMCsUVafa8XjDsdCn"], "asm": "OP_DUP OP_HASH160 bae025140c454518b8cba0c25d45a6dc87f4b9ce OP_EQUALVERIFY OP_CHECKSIG", "type": "pubkeyhash"}, "value": 0.00204106, "n": 1}], "hex": "0100000001e7ce0e1ffa95185dcd5d04c25d03bcb6ee391daf97fa0fb3a7862d4aa2717510010000008b483045022100c08801aab109c115638d8dbf97db9b41ed30bbe875232fe481b45a5db4f5b99902201f68945dfaee89c70d0487270e87369ba70f9d9891226afc60083e0dfc90c8f0014104025a1cffe502a80dfa1f543ae14c082aff24d5ecadab160ca904d288eed8e3d8cacef0985f690868df4f416c3890909b4c0c843da153d41382ac20c80170240affffffff0240c33800000000001976a9142ac694271b68203a46c6a89c75a6569343f91e3488ac4a1d0300000000001976a914bae025140c454518b8cba0c25d45a6dc87f4b9ce88ac00000000", "vin": [{"sequence": 4294967295, "scriptSig": {"hex": "483045022100c08801aab109c115638d8dbf97db9b41ed30bbe875232fe481b45a5db4f5b99902201f68945dfaee89c70d0487270e87369ba70f9d9891226afc60083e0dfc90c8f0014104025a1cffe502a80dfa1f543ae14c082aff24d5ecadab160ca904d288eed8e3d8cacef0985f690868df4f416c3890909b4c0c843da153d41382ac20c80170240a", "asm": "3045022100c08801aab109c115638d8dbf97db9b41ed30bbe875232fe481b45a5db4f5b99902201f68945dfaee89c70d0487270e87369ba70f9d9891226afc60083e0dfc90c8f0[ALL] 04025a1cffe502a80dfa1f543ae14c082aff24d5ecadab160ca904d288eed8e3d8cacef0985f690868df4f416c3890909b4c0c843da153d41382ac20c80170240a"}, "vout": 1, "txid": "107571a24a2d86a7b30ffa97af1d39eeb6bc035dc2045dcd5d1895fa1f0ecee7"}], "txid": "987a22d864040ef2764894970f123a83e6e56d70440b4432b57b9d10d2ba3bc1", "blocktime": 1537875543, "version": 1, "confirmations": 11464, "time": 1537875543, "locktime": 0, "vsize": 258, "size": 258}