{"hash": "987a01a9f32d1f779c92e99b0682a0de2de2ba4e0f6f878704b259f04f37e3e4", "blockhash": "0000000000000000000e13cef7c366c0283d82e591d1acd082e914b08063cdf1", "vout": [{"scriptPubKey": {"reqSigs": 1, "hex": "76a9146d8ee048a6df62a731883280bee24073e61bd02f88ac", "addresses": ["1AzHp7ho9xNHjr2Z1AhDWKgF4rBnTqAZ4S"], "asm": "OP_DUP OP_HASH160 6d8ee048a6df62a731883280bee24073e61bd02f OP_EQUALVERIFY OP_CHECKSIG", "type": "pubkeyhash"}, "value": 0.00011562, "n": 0}, {"scriptPubKey": {"reqSigs": 1, "hex": "76a914957b910b4ea8b0a08324e2dc1bd60a520a4d942988ac", "addresses": ["1EdPi955ASTBia5gNsa6tqkHJqizAaJFT9"], "asm": "OP_DUP OP_HASH160 957b910b4ea8b0a08324e2dc1bd60a520a4d9429 OP_EQUALVERIFY OP_CHECKSIG", "type": "pubkeyhash"}, "value": 0.0001562, "n": 1}], "hex": "01000000024255441ea1de65405d051b1d5e2a2c35bcb35a208e4712a05b35d451fdb97149000000006b483045022100d577dfc1a3280af5dee2d6fe55ce5c874cad9db2d96e1c35776b23c4f292c1c1022027bfdba721d2d61642fee0ce2958c0130fe44a3f355ec88515edf339da1656290121027e0abf8cc7f707b6c5c78c83b6a387dd731638a01ea45f78d6f83797a99f7958fffffffff132da9cd59f7768ff194948c48d824b870125e7c699e986730a3611f588b3b2000000006b483045022100cd747f59ec2aa2496ca3ad2ce99f71531318423ed180e444c7d7c5c8fa9606c8022040bbd5fbe4850d412792fabf071bd243f068e9243fd8f0fc2fc5dff2b2d7bc4301210382da2c9ff93f001375755dc069d6bf866f7a44fb759b39ec5925bcfa7c92fd37ffffffff022a2d0000000000001976a9146d8ee048a6df62a731883280bee24073e61bd02f88ac043d0000000000001976a914957b910b4ea8b0a08324e2dc1bd60a520a4d942988ac00000000", "vin": [{"sequence": 4294967295, "scriptSig": {"hex": "483045022100d577dfc1a3280af5dee2d6fe55ce5c874cad9db2d96e1c35776b23c4f292c1c1022027bfdba721d2d61642fee0ce2958c0130fe44a3f355ec88515edf339da1656290121027e0abf8cc7f707b6c5c78c83b6a387dd731638a01ea45f78d6f83797a99f7958", "asm": "3045022100d577dfc1a3280af5dee2d6fe55ce5c874cad9db2d96e1c35776b23c4f292c1c1022027bfdba721d2d61642fee0ce2958c0130fe44a3f355ec88515edf339da165629[ALL] 027e0abf8cc7f707b6c5c78c83b6a387dd731638a01ea45f78d6f83797a99f7958"}, "vout": 0, "txid": "4971b9fd51d4355ba012478e205ab3bc352c2a5e1d1b055d4065dea11e445542"}, {"sequence": 4294967295, "scriptSig": {"hex": "483045022100cd747f59ec2aa2496ca3ad2ce99f71531318423ed180e444c7d7c5c8fa9606c8022040bbd5fbe4850d412792fabf071bd243f068e9243fd8f0fc2fc5dff2b2d7bc4301210382da2c9ff93f001375755dc069d6bf866f7a44fb759b39ec5925bcfa7c92fd37", "asm": "3045022100cd747f59ec2aa2496ca3ad2ce99f71531318423ed180e444c7d7c5c8fa9606c8022040bbd5fbe4850d412792fabf071bd243f068e9243fd8f0fc2fc5dff2b2d7bc43[ALL] 0382da2c9ff93f001375755dc069d6bf866f7a44fb759b39ec5925bcfa7c92fd37"}, "vout": 0, "txid": "b2b388f511360a7386e999c6e72501874b828dc4484919ff68779fd59cda32f1"}], "txid": "987a01a9f32d1f779c92e99b0682a0de2de2ba4e0f6f878704b259f04f37e3e4", "blocktime": 1537871767, "version": 1, "confirmations": 11495, "time": 1537871767, "locktime": 0, "vsize": 374, "size": 374}