{"hash": "17524579121e2aa274ada64eb6d92fda17654cd017a1857b20e860d6211154ba", "blockhash": "0000000000000000000e13cef7c366c0283d82e591d1acd082e914b08063cdf1", "vout": [{"scriptPubKey": {"reqSigs": 1, "hex": "a91482e7e273ec4e0dff2590e50d5fec2ebc665cd1f787", "addresses": ["3DdBZ734DjaqBf29PvjxWv9mvU6VaQEs8H"], "asm": "OP_HASH160 82e7e273ec4e0dff2590e50d5fec2ebc665cd1f7 OP_EQUAL", "type": "scripthash"}, "value": 0.03797184, "n": 0}, {"scriptPubKey": {"reqSigs": 1, "hex": "a914aeb2b0b56a01eff3ea86b1ef8536b3fdaa84e89d87", "addresses": ["3HcjZYFwCatiZFGkcyHNuDzF8sGH9G7PJM"], "asm": "OP_HASH160 aeb2b0b56a01eff3ea86b1ef8536b3fdaa84e89d OP_EQUAL", "type": "scripthash"}, "value": 0.00880049, "n": 1}, {"scriptPubKey": {"reqSigs": 1, "hex": "76a914334c24db8603329f1613da64e7b109705bebc34988ac", "addresses": ["15gEgMrE9pJgVfRsHiqQPHjM1abokU6QF5"], "asm": "OP_DUP OP_HASH160 334c24db8603329f1613da64e7b109705bebc349 OP_EQUALVERIFY OP_CHECKSIG", "type": "pubkeyhash"}, "value": 0.08908972, "n": 2}, {"scriptPubKey": {"reqSigs": 1, "hex": "a91496d566499185b9bc396d13f9292d69ada86300fe87", "addresses": ["3FSYvaaL2TrdJz55XMs4TVWitrukQmcDzq"], "asm": "OP_HASH160 96d566499185b9bc396d13f9292d69ada86300fe OP_EQUAL", "type": "scripthash"}, "value": 0.08797237, "n": 3}], "hex": "0100000000010255e955c963a8b0aa3fd64a20b2483228d127495173063b022c99be61afa3b2850600000023220020e889ce5b90786e5ffb60b2cb94569501ae8964b8ee356ba9fb2287f629e26a86ffffffff7b8b2b382420187160d0feb204fdf43a02f5f1d7a71d2e616ce74b59ca123f2300000000232200200fd048a71de0137f9ccc12195bfd1ca8fcfbc9b844ca4fdcdd812db0f65e4a52ffffffff04c0f039000000000017a91482e7e273ec4e0dff2590e50d5fec2ebc665cd1f787b16d0d000000000017a914aeb2b0b56a01eff3ea86b1ef8536b3fdaa84e89d87acf08700000000001976a914334c24db8603329f1613da64e7b109705bebc34988ac353c86000000000017a91496d566499185b9bc396d13f9292d69ada86300fe8703483045022100e7f1fd26f2a5eaa0931251f6768e26c7fc13b34ecbb008f96a464c1432cf7e0402201ef871949af1fd61c0852da7407f4038985ff58c72d43da0038b38d41c8e7546012102a7c0f824cfa97c2849d14b237e762da379afa4978d6693aa660099efe9fe46951976a914a8b2cfcecdf06181d9fb50119b1636c15a06523c88ac03473044022074680dfb30939fb93ad48b9a8e70068b2084867d532108754a0bccb7aec146470220455c6d845d2fbb3c805363b19b18452a83126a5bd7ce76957a807c14836211df0121030ff19932965a025191d620ef48b1d744682b18bbfcbf8a9561c8650cd6ca858c1976a9146da7dc56a770338d7367bf116e69919d66dfd09888ac00000000", "vin": [{"txinwitness": ["3045022100e7f1fd26f2a5eaa0931251f6768e26c7fc13b34ecbb008f96a464c1432cf7e0402201ef871949af1fd61c0852da7407f4038985ff58c72d43da0038b38d41c8e754601", "02a7c0f824cfa97c2849d14b237e762da379afa4978d6693aa660099efe9fe4695", "76a914a8b2cfcecdf06181d9fb50119b1636c15a06523c88ac"], "sequence": 4294967295, "scriptSig": {"hex": "220020e889ce5b90786e5ffb60b2cb94569501ae8964b8ee356ba9fb2287f629e26a86", "asm": "0020e889ce5b90786e5ffb60b2cb94569501ae8964b8ee356ba9fb2287f629e26a86"}, "vout": 6, "txid": "85b2a3af61be992c023b0673514927d1283248b2204ad63faab0a863c955e955"}, {"txinwitness": ["3044022074680dfb30939fb93ad48b9a8e70068b2084867d532108754a0bccb7aec146470220455c6d845d2fbb3c805363b19b18452a83126a5bd7ce76957a807c14836211df01", "030ff19932965a025191d620ef48b1d744682b18bbfcbf8a9561c8650cd6ca858c", "76a9146da7dc56a770338d7367bf116e69919d66dfd09888ac"], "sequence": 4294967295, "scriptSig": {"hex": "2200200fd048a71de0137f9ccc12195bfd1ca8fcfbc9b844ca4fdcdd812db0f65e4a52", "asm": "00200fd048a71de0137f9ccc12195bfd1ca8fcfbc9b844ca4fdcdd812db0f65e4a52"}, "vout": 0, "txid": "233f12ca594be76c612e1da7d7f1f5023af4fd04b2fed06071182024382b8b7b"}], "txid": "987e85800879164d60b4a6d09e78e6bdde10c4c00187e8cc9b76df9940540b3b", "blocktime": 1537871767, "version": 1, "confirmations": 11493, "time": 1537871767, "locktime": 0, "vsize": 360, "size": 561}