{"hash": "987f592dfe5861bdb916736c074948bdfc0f4550c2822bc33fa3c4472dadbe3d", "blockhash": "000000000000000000022b45ed06c6f4ccd3cf7fb5ba4856ebd2e58215665228", "vout": [{"scriptPubKey": {"reqSigs": 1, "hex": "a9148eee1be536413f21a7fe3a82b88b1ee6f7165e3d87", "addresses": ["3Eim7tGLUCAXVCP19bjxDFYTF6HKxsy7Ch"], "asm": "OP_HASH160 8eee1be536413f21a7fe3a82b88b1ee6f7165e3d OP_EQUAL", "type": "scripthash"}, "value": 1.414e-05, "n": 0}, {"scriptPubKey": {"reqSigs": 1, "hex": "76a914911ea6d27edf3668cfd063b4dfadf21cfbf2173a88ac", "addresses": ["1EEKhXhjAe8WbLmhjkGuVdwmz6YJmE3AF1"], "asm": "OP_DUP OP_HASH160 911ea6d27edf3668cfd063b4dfadf21cfbf2173a OP_EQUALVERIFY OP_CHECKSIG", "type": "pubkeyhash"}, "value": 3.504e-05, "n": 1}, {"scriptPubKey": {"reqSigs": 1, "hex": "76a9148b48e42d3c46729fbf528f7295bc55fefed591e188ac", "addresses": ["1DhUFF2QuNTX1ubWKz8eeFiJbgk8oMBttE"], "asm": "OP_DUP OP_HASH160 8b48e42d3c46729fbf528f7295bc55fefed591e1 OP_EQUALVERIFY OP_CHECKSIG", "type": "pubkeyhash"}, "value": 7.536e-05, "n": 2}, {"scriptPubKey": {"reqSigs": 1, "hex": "a914cb3b9398c039355e72a50a23b60c92fd7c7d855287", "addresses": ["3LDcTwGqtm4TDmUtKMKishakCdqSzPXXi2"], "asm": "OP_HASH160 cb3b9398c039355e72a50a23b60c92fd7c7d8552 OP_EQUAL", "type": "scripthash"}, "value": 0.0001, "n": 3}, {"scriptPubKey": {"reqSigs": 1, "hex": "76a914bbc60e26d5ffe2b7b0fe33e5fd76dfc7dae1042088ac", "addresses": ["1J7rczg9wENn5D2bywZrUyGwY417t7tGGk"], "asm": "OP_DUP OP_HASH160 bbc60e26d5ffe2b7b0fe33e5fd76dfc7dae10420 OP_EQUALVERIFY OP_CHECKSIG", "type": "pubkeyhash"}, "value": 0.0002, "n": 4}, {"scriptPubKey": {"reqSigs": 1, "hex": "a91418f30736465a0c313d4234a2e4ae7f5a02e30f9d87", "addresses": ["33xwH3LWSDf4QCqajvfbsDZkcNjzu8b2zs"], "asm": "OP_HASH160 18f30736465a0c313d4234a2e4ae7f5a02e30f9d OP_EQUAL", "type": "scripthash"}, "value": 0.00023527, "n": 5}, {"scriptPubKey": {"reqSigs": 1, "hex": "76a914129a0192efc4876277d50af7ed30958856e979a188ac", "addresses": ["12hMezHiDcfUcUrruaDM4i8eJS21LqSW9C"], "asm": "OP_DUP OP_HASH160 129a0192efc4876277d50af7ed30958856e979a1 OP_EQUALVERIFY OP_CHECKSIG", "type": "pubkeyhash"}, "value": 0.0003, "n": 6}, {"scriptPubKey": {"reqSigs": 1, "hex": "a91474270e0168c646c851c59fae639204588dc8722c87", "addresses": ["3CHB6N7ZZhFpUNp4qmJbPmwuqvYjsm2yFg"], "asm": "OP_HASH160 74270e0168c646c851c59fae639204588dc8722c OP_EQUAL", "type": "scripthash"}, "value": 0.00088011, "n": 7}, {"scriptPubKey": {"reqSigs": 1, "hex": "76a914b998b43b8c5026c07e21d29445c34763ca5f13f488ac", "addresses": ["1HvLwYxCVkaX95G2pNwFVj6Z4DXzVXtonk"], "asm": "OP_DUP OP_HASH160 b998b43b8c5026c07e21d29445c34763ca5f13f4 OP_EQUALVERIFY OP_CHECKSIG", "type": "pubkeyhash"}, "value": 0.0031533, "n": 8}], "hex": "01000000011a0ecbc321f22bdcdd435ffc06f6ddc7e7d02527cf771c3acf5e81694c3a7e37000000006b483045022100ed61a691b5fd662934c96501755923ba7d6ce3ae0ec2e65184c590a0db9802be0220175eae7a4e58649c4c18c37df4dc1b0cf80fd2e0792aaea208eba2a4ae4fa2080121025f3700f6ec19ff7df1e7fa281238aae9fd5fd89503640be880ad29b97de810b0ffffffff09860500000000000017a9148eee1be536413f21a7fe3a82b88b1ee6f7165e3d87b00d0000000000001976a914911ea6d27edf3668cfd063b4dfadf21cfbf2173a88ac701d0000000000001976a9148b48e42d3c46729fbf528f7295bc55fefed591e188ac102700000000000017a914cb3b9398c039355e72a50a23b60c92fd7c7d855287204e0000000000001976a914bbc60e26d5ffe2b7b0fe33e5fd76dfc7dae1042088ace75b00000000000017a91418f30736465a0c313d4234a2e4ae7f5a02e30f9d8730750000000000001976a914129a0192efc4876277d50af7ed30958856e979a188accb5701000000000017a91474270e0168c646c851c59fae639204588dc8722c87c2cf0400000000001976a914b998b43b8c5026c07e21d29445c34763ca5f13f488ac00000000", "vin": [{"sequence": 4294967295, "scriptSig": {"hex": "483045022100ed61a691b5fd662934c96501755923ba7d6ce3ae0ec2e65184c590a0db9802be0220175eae7a4e58649c4c18c37df4dc1b0cf80fd2e0792aaea208eba2a4ae4fa2080121025f3700f6ec19ff7df1e7fa281238aae9fd5fd89503640be880ad29b97de810b0", "asm": "3045022100ed61a691b5fd662934c96501755923ba7d6ce3ae0ec2e65184c590a0db9802be0220175eae7a4e58649c4c18c37df4dc1b0cf80fd2e0792aaea208eba2a4ae4fa208[ALL] 025f3700f6ec19ff7df1e7fa281238aae9fd5fd89503640be880ad29b97de810b0"}, "vout": 0, "txid": "377e3a4c69815ecf3a1c77cf2725d0e7c7ddf606fc5f43dddc2bf221c3cb0e1a"}], "txid": "987f592dfe5861bdb916736c074948bdfc0f4550c2822bc33fa3c4472dadbe3d", "blocktime": 1537869901, "version": 1, "confirmations": 11524, "time": 1537869901, "locktime": 0, "vsize": 456, "size": 456}