{"hash": "9881636cfd51638dc2661024fb19701585055729ce369b29ca4fb357f4873025", "blockhash": "000000000000000000022b45ed06c6f4ccd3cf7fb5ba4856ebd2e58215665228", "vout": [{"scriptPubKey": {"reqSigs": 1, "hex": "a914cf9411421ab776fadccae0f7a365b31075d4160f87", "addresses": ["3LcbBA4Pxmhsfhwjb4AwCKPdc5osZAX11R"], "asm": "OP_HASH160 cf9411421ab776fadccae0f7a365b31075d4160f OP_EQUAL", "type": "scripthash"}, "value": 0.01296874, "n": 0}], "hex": "010000000107803117643aa6573005d1a6d989b7470c4ab4d6d308e2eb0b1e8a77f5e6d99c0d0000006a4730440220470005ea81b509e85007f4ab0518042ce8a1c9c01c7e8dc88dc47e10be08a85a02202a088f248e1fab2ea3b92aec7533a50a1f54b514383afdf48ebc0109633967cc01210267c49c99b58a521d15845acd72457fd25f26b879a201130d0500472f4f64ae28ffffffff01eac913000000000017a914cf9411421ab776fadccae0f7a365b31075d4160f8700000000", "vin": [{"sequence": 4294967295, "scriptSig": {"hex": "4730440220470005ea81b509e85007f4ab0518042ce8a1c9c01c7e8dc88dc47e10be08a85a02202a088f248e1fab2ea3b92aec7533a50a1f54b514383afdf48ebc0109633967cc01210267c49c99b58a521d15845acd72457fd25f26b879a201130d0500472f4f64ae28", "asm": "30440220470005ea81b509e85007f4ab0518042ce8a1c9c01c7e8dc88dc47e10be08a85a02202a088f248e1fab2ea3b92aec7533a50a1f54b514383afdf48ebc0109633967cc[ALL] 0267c49c99b58a521d15845acd72457fd25f26b879a201130d0500472f4f64ae28"}, "vout": 13, "txid": "9cd9e6f5778a1e0bebe208d3d6b44a0c47b789d9a6d1053057a63a6417318007"}], "txid": "9881636cfd51638dc2661024fb19701585055729ce369b29ca4fb357f4873025", "blocktime": 1537869901, "version": 1, "confirmations": 11522, "time": 1537869901, "locktime": 0, "vsize": 189, "size": 189}