{"hash": "9885142f09801ea7f1936366ded35695086afbbe433c8531d830613b95f5ff2c", "blockhash": "0000000000000000001f76057863aec43deb6fa401d9628bb513d65a8098bfab", "vout": [{"scriptPubKey": {"reqSigs": 1, "hex": "76a914bbae20b702b66a76baaad0098bfe559e794625ae88ac", "addresses": ["1J7MxV3DCUMDDWzwm2DT5XM3jWBKvcyajB"], "asm": "OP_DUP OP_HASH160 bbae20b702b66a76baaad0098bfe559e794625ae OP_EQUALVERIFY OP_CHECKSIG", "type": "pubkeyhash"}, "value": 0.20244375, "n": 0}, {"scriptPubKey": {"reqSigs": 1, "hex": "a9148f08dd46dcc70d26cb842d8d7ef265465240544187", "addresses": ["3EjKAt81LTqgpbHaCc8Giv2saT2nTQf5v2"], "asm": "OP_HASH160 8f08dd46dcc70d26cb842d8d7ef2654652405441 OP_EQUAL", "type": "scripthash"}, "value": 0.577459, "n": 1}], "hex": "0100000001c548710e97a33b9d11928b5836e08f5c66152e852c9015729a5513dd1598b8bc010000006b483045022100eb999872b02ea297efdf2d76745857188bb3a31a67fd392f6352bd0093bdc4500220490b86176aa524613ca02683f7f44cf8340a70ebc552c97612bef6e293c576d201210331bee6cab9fa17b8167bc97efd59478b8599456936d1fb36b5fc537d87e0802affffffff0297e73401000000001976a914bbae20b702b66a76baaad0098bfe559e794625ae88acec2171030000000017a9148f08dd46dcc70d26cb842d8d7ef26546524054418700000000", "vin": [{"sequence": 4294967295, "scriptSig": {"hex": "483045022100eb999872b02ea297efdf2d76745857188bb3a31a67fd392f6352bd0093bdc4500220490b86176aa524613ca02683f7f44cf8340a70ebc552c97612bef6e293c576d201210331bee6cab9fa17b8167bc97efd59478b8599456936d1fb36b5fc537d87e0802a", "asm": "3045022100eb999872b02ea297efdf2d76745857188bb3a31a67fd392f6352bd0093bdc4500220490b86176aa524613ca02683f7f44cf8340a70ebc552c97612bef6e293c576d2[ALL] 0331bee6cab9fa17b8167bc97efd59478b8599456936d1fb36b5fc537d87e0802a"}, "vout": 1, "txid": "bcb89815dd13559a7215902c852e15665c8fe036588b92119d3ba3970e7148c5"}], "txid": "9885142f09801ea7f1936366ded35695086afbbe433c8531d830613b95f5ff2c", "blocktime": 1537873891, "version": 1, "confirmations": 11478, "time": 1537873891, "locktime": 0, "vsize": 224, "size": 224}