{"hash": "9891d53ea36257d576da078d9609694032b3db36d9e33e6db270cb8190d6eb54", "blockhash": "0000000000000000001cda96e906b7601b7a6fb1a3b62bca570a9e5d8f4b3de1", "vout": [{"scriptPubKey": {"reqSigs": 1, "hex": "76a914d92f9f702221c05a5586b4f5dd9ec2221d94862f88ac", "addresses": ["1LoNgX2Varag7oAmTLU5ceFy7mnCTwyZuk"], "asm": "OP_DUP OP_HASH160 d92f9f702221c05a5586b4f5dd9ec2221d94862f OP_EQUALVERIFY OP_CHECKSIG", "type": "pubkeyhash"}, "value": 0.00050813, "n": 0}], "hex": "01000000010442be21715727ab73deed5386e0985fc0672621969300591def28389127ba0e000000006b483045022100efd1f85355adb0f22539a6492d5d00d84c6eacddaae1bdddea61796993432de902202ec168a849f2ca51d874741abd359e138d99043b681838538764d74a451b2fc1012102d7036c2a1f28f85f46fbae4ab2f7e4cbbcd43c3414f3d93946e5bfa7a5f44d2cffffffff017dc60000000000001976a914d92f9f702221c05a5586b4f5dd9ec2221d94862f88ac00000000", "vin": [{"sequence": 4294967295, "scriptSig": {"hex": "483045022100efd1f85355adb0f22539a6492d5d00d84c6eacddaae1bdddea61796993432de902202ec168a849f2ca51d874741abd359e138d99043b681838538764d74a451b2fc1012102d7036c2a1f28f85f46fbae4ab2f7e4cbbcd43c3414f3d93946e5bfa7a5f44d2c", "asm": "3045022100efd1f85355adb0f22539a6492d5d00d84c6eacddaae1bdddea61796993432de902202ec168a849f2ca51d874741abd359e138d99043b681838538764d74a451b2fc1[ALL] 02d7036c2a1f28f85f46fbae4ab2f7e4cbbcd43c3414f3d93946e5bfa7a5f44d2c"}, "vout": 0, "txid": "0eba27913828ef1d59009396212667c05f98e08653edde73ab27577121be4204"}], "txid": "9891d53ea36257d576da078d9609694032b3db36d9e33e6db270cb8190d6eb54", "blocktime": 1537873282, "version": 1, "confirmations": 11484, "time": 1537873282, "locktime": 0, "vsize": 192, "size": 192}