{"hash": "f09efb744dbb9d404a3cfbae97a3c93f49486f7d40edeaed33ee9d307182f830", "blockhash": "0000000000000000001e0dab787dd257d1dbfcb92a98c2207d5e1078be1f4165", "vout": [{"scriptPubKey": {"reqSigs": 1, "hex": "a914e6e71ec37339cf055c0cbb0c5ca4e71f0324d91b87", "addresses": ["3NjvDB9Dvqkq7H7HWZqfnXQApCjGwdpUit"], "asm": "OP_HASH160 e6e71ec37339cf055c0cbb0c5ca4e71f0324d91b OP_EQUAL", "type": "scripthash"}, "value": 0.0007, "n": 0}, {"scriptPubKey": {"reqSigs": 1, "hex": "00147be6fc5fe868f5bdb2f57692041309ba8d0e8a42", "addresses": ["bc1q00n0chlgdr6mmvh4w6fqgycfh2xsazjz7ae8xm"], "asm": "0 7be6fc5fe868f5bdb2f57692041309ba8d0e8a42", "type": "witness_v0_keyhash"}, "value": 1.473e-05, "n": 1}], "hex": "010000000001011b31df7ac7348e7e5aea87271e1b85090e6230fc9cd02f3ef691a63c9d7cfe000100000000ffffffff02701101000000000017a914e6e71ec37339cf055c0cbb0c5ca4e71f0324d91b87c1050000000000001600147be6fc5fe868f5bdb2f57692041309ba8d0e8a4202483045022100e2444240d325f9585fb747ede16b610cb1cf4b8d770baf082794c71e7bf36946022053d008b21283332be4801e313d069dbd83180158b8a2f660da5c1863b9be4c750121031e354b3bedf964d8416fb5ac0ea3e1ead56664e8b34b0dbb0e564df4c81a042d00000000", "vin": [{"txinwitness": ["3045022100e2444240d325f9585fb747ede16b610cb1cf4b8d770baf082794c71e7bf36946022053d008b21283332be4801e313d069dbd83180158b8a2f660da5c1863b9be4c7501", "031e354b3bedf964d8416fb5ac0ea3e1ead56664e8b34b0dbb0e564df4c81a042d"], "sequence": 4294967295, "scriptSig": {"hex": "", "asm": ""}, "vout": 1, "txid": "00fe7c9d3ca691f63e2fd09cfc30620e09851b1e2787ea5a7e8e34c77adf311b"}], "txid": "989233ae0597aee08e8dbb5c825c1d82bfc1f06c3ac83606a8a8dc892f0011e1", "blocktime": 1537872475, "version": 1, "confirmations": 11486, "time": 1537872475, "locktime": 0, "vsize": 142, "size": 224}