{"hash": "9893ea84373bf5e258835cfdc61bb5ff7df0f6d0b688e928579a63ae93e8aa20", "blockhash": "00000000000000000017f5eb5941039fbcee6240d03bc1f2f8e35350df66a1d8", "vout": [{"scriptPubKey": {"reqSigs": 1, "hex": "76a914d243e6abb9a60fbff430b421d2df4b7d59ec186088ac", "addresses": ["1LAnF8h3qMGx3TSwNUHVneBZUEpwE4gu3D"], "asm": "OP_DUP OP_HASH160 d243e6abb9a60fbff430b421d2df4b7d59ec1860 OP_EQUALVERIFY OP_CHECKSIG", "type": "pubkeyhash"}, "value": 0.00077314, "n": 0}, {"scriptPubKey": {"reqSigs": 1, "hex": "76a9145409ce818b65153a12a7ab8c795d34a740ab6e5188ac", "addresses": ["18fMWVaYHVJn4WgLpz5g4xxqsFhLCQ4X9L"], "asm": "OP_DUP OP_HASH160 5409ce818b65153a12a7ab8c795d34a740ab6e51 OP_EQUALVERIFY OP_CHECKSIG", "type": "pubkeyhash"}, "value": 5.46e-06, "n": 1}, {"scriptPubKey": {"type": "nulldata", "hex": "6a146f6d6e69000000000000001f000022ad4c03bd00", "asm": "OP_RETURN 6f6d6e69000000000000001f000022ad4c03bd00"}, "value": 0.0, "n": 2}], "hex": "010000000195b2c7e2b9512585208aae5832f7279cc0c8caf135e282a570f43aef09ce5416000000006b483045022100b5534faed180358fe398eaacf1dfdf152aac5071d9c8d22abed3d9079da290100220387bf1adcd6e51ac8a15aebb2c5bb5984b273b1dfd65457333f9151796f019ac01210271977291b74f1f5f5c42157e8aae804664eaaeccfd097918450d37f28fb94d77ffffffff03022e0100000000001976a914d243e6abb9a60fbff430b421d2df4b7d59ec186088ac22020000000000001976a9145409ce818b65153a12a7ab8c795d34a740ab6e5188ac0000000000000000166a146f6d6e69000000000000001f000022ad4c03bd0000000000", "vin": [{"sequence": 4294967295, "scriptSig": {"hex": "483045022100b5534faed180358fe398eaacf1dfdf152aac5071d9c8d22abed3d9079da290100220387bf1adcd6e51ac8a15aebb2c5bb5984b273b1dfd65457333f9151796f019ac01210271977291b74f1f5f5c42157e8aae804664eaaeccfd097918450d37f28fb94d77", "asm": "3045022100b5534faed180358fe398eaacf1dfdf152aac5071d9c8d22abed3d9079da290100220387bf1adcd6e51ac8a15aebb2c5bb5984b273b1dfd65457333f9151796f019ac[ALL] 0271977291b74f1f5f5c42157e8aae804664eaaeccfd097918450d37f28fb94d77"}, "vout": 0, "txid": "1654ce09ef3af470a582e235f1cac8c09c27f73258ae8a20852551b9e2c7b295"}], "txid": "9893ea84373bf5e258835cfdc61bb5ff7df0f6d0b688e928579a63ae93e8aa20", "blocktime": 1537874412, "version": 1, "confirmations": 11467, "time": 1537874412, "locktime": 0, "vsize": 257, "size": 257}