{"hash": "b065f20a1c5f449f0b79fac177c458df2a301a4ebf54157a214b1e0db5cc21e9", "blockhash": "0000000000000000000baef3f32e3676a92c3b2e5da21b426e4f302fc371ce76", "vout": [{"scriptPubKey": {"reqSigs": 1, "hex": "a91490e99e8d26d05ead3c05430c292a887bbff695f587", "addresses": ["3EuF6KjJawxTiUsea3Sc8hsLUGmVEf7Xg5"], "asm": "OP_HASH160 90e99e8d26d05ead3c05430c292a887bbff695f5 OP_EQUAL", "type": "scripthash"}, "value": 0.0012007, "n": 0}, {"scriptPubKey": {"type": "nulldata", "hex": "6a146f6d6e69000000000000001f0000000005f5e100", "asm": "OP_RETURN 6f6d6e69000000000000001f0000000005f5e100"}, "value": 0.0, "n": 1}, {"scriptPubKey": {"reqSigs": 1, "hex": "a91490e99e8d26d05ead3c05430c292a887bbff695f587", "addresses": ["3EuF6KjJawxTiUsea3Sc8hsLUGmVEf7Xg5"], "asm": "OP_HASH160 90e99e8d26d05ead3c05430c292a887bbff695f5 OP_EQUAL", "type": "scripthash"}, "value": 5.4e-06, "n": 2}], "hex": "0100000000010296b9a30f7e34e0429e1ba8de6b1b96bf0a9b463e9e2747162b5991a881741bec0000000017160014f6e1792e7852ebd5ae795c2a25d579acdfadec2dffffffff96b9a30f7e34e0429e1ba8de6b1b96bf0a9b463e9e2747162b5991a881741bec0200000017160014f6e1792e7852ebd5ae795c2a25d579acdfadec2dffffffff0306d501000000000017a91490e99e8d26d05ead3c05430c292a887bbff695f5870000000000000000166a146f6d6e69000000000000001f0000000005f5e1001c0200000000000017a91490e99e8d26d05ead3c05430c292a887bbff695f58702483045022100c3838e95479761a2419432751b2ef97a02dad19a62ebf4533ec1eb503bc7ad1602201b56e4f7be9c4754dea987e611538a4370293637361816b114663083f6b5ec5e012103f1cf988013a33e053d1e9bd54c4798c1a6dc362a5b2798b5344049fca40e2db00247304402206e69189361ba6943b85736749d34e74a4071c9e326761a3d87c7c85d85275133022023bc2b41fdb11ab4316a3e2b980b524975317c08e5eb5fe3c145fd7fb19694ee012103f1cf988013a33e053d1e9bd54c4798c1a6dc362a5b2798b5344049fca40e2db000000000", "vin": [{"txinwitness": ["3045022100c3838e95479761a2419432751b2ef97a02dad19a62ebf4533ec1eb503bc7ad1602201b56e4f7be9c4754dea987e611538a4370293637361816b114663083f6b5ec5e01", "03f1cf988013a33e053d1e9bd54c4798c1a6dc362a5b2798b5344049fca40e2db0"], "sequence": 4294967295, "scriptSig": {"hex": "160014f6e1792e7852ebd5ae795c2a25d579acdfadec2d", "asm": "0014f6e1792e7852ebd5ae795c2a25d579acdfadec2d"}, "vout": 0, "txid": "ec1b7481a891592b1647279e3e469b0abf961b6bdea81b9e42e0347e0fa3b996"}, {"txinwitness": ["304402206e69189361ba6943b85736749d34e74a4071c9e326761a3d87c7c85d85275133022023bc2b41fdb11ab4316a3e2b980b524975317c08e5eb5fe3c145fd7fb19694ee01", "03f1cf988013a33e053d1e9bd54c4798c1a6dc362a5b2798b5344049fca40e2db0"], "sequence": 4294967295, "scriptSig": {"hex": "160014f6e1792e7852ebd5ae795c2a25d579acdfadec2d", "asm": "0014f6e1792e7852ebd5ae795c2a25d579acdfadec2d"}, "vout": 2, "txid": "ec1b7481a891592b1647279e3e469b0abf961b6bdea81b9e42e0347e0fa3b996"}], "txid": "98956d25608c1f948818eade216bba3f57c2756c77ab935ac5c0087da0262346", "blocktime": 1537876114, "version": 1, "confirmations": 11460, "time": 1537876114, "locktime": 0, "vsize": 288, "size": 450}