{"hash": "a5ae94b6bfd1d5ad95be1f0bf9b963fa73af088a3420f190a2ecc9136dcbf397", "blockhash": "0000000000000000001cda96e906b7601b7a6fb1a3b62bca570a9e5d8f4b3de1", "vout": [{"scriptPubKey": {"reqSigs": 1, "hex": "a91427cfdbc582acad5c82d97b3846403574d535583f87", "addresses": ["35KXHHXLHH1nbKXbmK5TTtM3T7Zu5zUMnf"], "asm": "OP_HASH160 27cfdbc582acad5c82d97b3846403574d535583f OP_EQUAL", "type": "scripthash"}, "value": 0.007169, "n": 0}], "hex": "01000000000101c6c3b7f57460f9c2c70f3390b20e76f84d5705bce4a58ffa760e687fed499a60000000002322002073178cc08bd68744df246376dd0b7032113faa213604a311465640c5a365d047ffffffff0164f00a000000000017a91427cfdbc582acad5c82d97b3846403574d535583f8704004830450221009ed8ce6ecd97de5ca8db54e7c6ba402a68c8b11b112b1cde97a0daf518198d7202201d10bd280e1c0df71104661a1d479ccfaa32042b24f5f1a51a9e715f0a4008be01483045022100ce699ab3195af765256dbe0f438955565ea34a6ed7dce75eccb9c2f3269a22cb02201ca0eda72f5a2d8abcb339aacbebae1a68fc3e486e3797af0d24294a53e9f0540169522102567bd58257eaabb9cb6cd3291c147ab74014f2d76b25cc41b964613396fbfa13210339ed2dce58f54f416ac3189127e916fce2cbcc7597c9ace029071f9d9d91272d21033a824eaacdce2abf6b581eec3179a0fc80221196cd99f86f72d44c5a54b19b5f53ae00000000", "vin": [{"txinwitness": ["", "30450221009ed8ce6ecd97de5ca8db54e7c6ba402a68c8b11b112b1cde97a0daf518198d7202201d10bd280e1c0df71104661a1d479ccfaa32042b24f5f1a51a9e715f0a4008be01", "3045022100ce699ab3195af765256dbe0f438955565ea34a6ed7dce75eccb9c2f3269a22cb02201ca0eda72f5a2d8abcb339aacbebae1a68fc3e486e3797af0d24294a53e9f05401", "522102567bd58257eaabb9cb6cd3291c147ab74014f2d76b25cc41b964613396fbfa13210339ed2dce58f54f416ac3189127e916fce2cbcc7597c9ace029071f9d9d91272d21033a824eaacdce2abf6b581eec3179a0fc80221196cd99f86f72d44c5a54b19b5f53ae"], "sequence": 4294967295, "scriptSig": {"hex": "22002073178cc08bd68744df246376dd0b7032113faa213604a311465640c5a365d047", "asm": "002073178cc08bd68744df246376dd0b7032113faa213604a311465640c5a365d047"}, "vout": 0, "txid": "609a49ed7f680e76fa8fa5e4bc05574df8760eb290330fc7c2f96074f5b7c3c6"}], "txid": "9896bfcbf91ff57595711d595299d9c35b02cc25796bbfa0d8e633e67064f886", "blocktime": 1537873282, "version": 1, "confirmations": 11484, "time": 1537873282, "locktime": 0, "vsize": 182, "size": 374}