{"hash": "989741c05fc120c8d32a9846c497a4c3b03a36bb301cbd6a8ae38cc494287720", "blockhash": "0000000000000000000dcc0f55137456b1a82d3642486a52398922ac4d620174", "vout": [{"scriptPubKey": {"reqSigs": 1, "hex": "76a9146f5839f6025f1e757c28b138502ad28c789f6bc388ac", "addresses": ["1B9jhNZ7U19yXgN4Di3RvUGwMzBJSdwyDd"], "asm": "OP_DUP OP_HASH160 6f5839f6025f1e757c28b138502ad28c789f6bc3 OP_EQUALVERIFY OP_CHECKSIG", "type": "pubkeyhash"}, "value": 0.0064752, "n": 0}, {"scriptPubKey": {"type": "nulldata", "hex": "6a4c500000777400012aa17d2e0f5049a186e3222b86aeaeacb577c031fc3a016b46dc7dc7d096e02a39400554f6e38461c97c4f8427f65baa092c06144f1be050ace31d100759d4ba30d2c37bb011d97e02cf", "asm": "OP_RETURN 0000777400012aa17d2e0f5049a186e3222b86aeaeacb577c031fc3a016b46dc7dc7d096e02a39400554f6e38461c97c4f8427f65baa092c06144f1be050ace31d100759d4ba30d2c37bb011d97e02cf"}, "value": 0.0, "n": 1}], "hex": "0100000001c244bc8737352a8faea3cd7a06d3eae7703dceeb95d97e78edc581154aaec547000000006b483045022100a183f163086ec373aaa5f4173e10b82c33ff1189eb9e937162aad4f696a59016022038cdf8d44b1f69453c77e9ff44f91af0463092faa950a7c1aabf3947c89610eb012102e537624359c1c3cc863bac589f568068c6612e966ade3a3ba5d69c97250d06d2ffffffff0260e10900000000001976a9146f5839f6025f1e757c28b138502ad28c789f6bc388ac0000000000000000536a4c500000777400012aa17d2e0f5049a186e3222b86aeaeacb577c031fc3a016b46dc7dc7d096e02a39400554f6e38461c97c4f8427f65baa092c06144f1be050ace31d100759d4ba30d2c37bb011d97e02cf00000000", "vin": [{"sequence": 4294967295, "scriptSig": {"hex": "483045022100a183f163086ec373aaa5f4173e10b82c33ff1189eb9e937162aad4f696a59016022038cdf8d44b1f69453c77e9ff44f91af0463092faa950a7c1aabf3947c89610eb012102e537624359c1c3cc863bac589f568068c6612e966ade3a3ba5d69c97250d06d2", "asm": "3045022100a183f163086ec373aaa5f4173e10b82c33ff1189eb9e937162aad4f696a59016022038cdf8d44b1f69453c77e9ff44f91af0463092faa950a7c1aabf3947c89610eb[ALL] 02e537624359c1c3cc863bac589f568068c6612e966ade3a3ba5d69c97250d06d2"}, "vout": 0, "txid": "47c5ae4a1581c5ed787ed995ebce3d70e7ead3067acda3ae8f2a353787bc44c2"}], "txid": "989741c05fc120c8d32a9846c497a4c3b03a36bb301cbd6a8ae38cc494287720", "blocktime": 1537870268, "version": 1, "confirmations": 11518, "time": 1537870268, "locktime": 0, "vsize": 284, "size": 284}