{"hash": "989aaf75b4f4f6f4f6a3aa5342b20fc0cca4f00449f8edb82002d087c947b2ee", "blockhash": "0000000000000000000dcc0f55137456b1a82d3642486a52398922ac4d620174", "vout": [{"scriptPubKey": {"reqSigs": 1, "hex": "76a914d9528e5892cc32c9b3499e0abcd387563ad3bd1c88ac", "addresses": ["1Lp6Xiqdc1ZTckS6vMg48gsGEELKARgDHT"], "asm": "OP_DUP OP_HASH160 d9528e5892cc32c9b3499e0abcd387563ad3bd1c OP_EQUALVERIFY OP_CHECKSIG", "type": "pubkeyhash"}, "value": 0.00014269, "n": 0}, {"scriptPubKey": {"reqSigs": 1, "hex": "76a9149577202fbbc7762e982b85fc956a6495aa0d242988ac", "addresses": ["1EdJPaqhySA83xm2uNmCQ1ZPtNqV5tJshE"], "asm": "OP_DUP OP_HASH160 9577202fbbc7762e982b85fc956a6495aa0d2429 OP_EQUALVERIFY OP_CHECKSIG", "type": "pubkeyhash"}, "value": 0.0007792, "n": 1}], "hex": "01000000017f7b828ab54ad55997ef83de8b88b1492bf44b524e963935c5cb307758d464dc000000006b483045022100ad0633c9c103c9546265f92358ea069fc25e2e3348375370eb8e2fa925ed423702200a42a10741565fb7f517864625eca05136c80179d0bc783ff6be4bac05644b8301210246a1d3ab2de699fb63dcb7c8ffd7b4101647e3744016f9481525be16342b5613ffffffff02bd370000000000001976a914d9528e5892cc32c9b3499e0abcd387563ad3bd1c88ac60300100000000001976a9149577202fbbc7762e982b85fc956a6495aa0d242988ac00000000", "vin": [{"sequence": 4294967295, "scriptSig": {"hex": "483045022100ad0633c9c103c9546265f92358ea069fc25e2e3348375370eb8e2fa925ed423702200a42a10741565fb7f517864625eca05136c80179d0bc783ff6be4bac05644b8301210246a1d3ab2de699fb63dcb7c8ffd7b4101647e3744016f9481525be16342b5613", "asm": "3045022100ad0633c9c103c9546265f92358ea069fc25e2e3348375370eb8e2fa925ed423702200a42a10741565fb7f517864625eca05136c80179d0bc783ff6be4bac05644b83[ALL] 0246a1d3ab2de699fb63dcb7c8ffd7b4101647e3744016f9481525be16342b5613"}, "vout": 0, "txid": "dc64d4587730cbc53539964e524bf42b49b1888bde83ef9759d54ab58a827b7f"}], "txid": "989aaf75b4f4f6f4f6a3aa5342b20fc0cca4f00449f8edb82002d087c947b2ee", "blocktime": 1537870268, "version": 1, "confirmations": 11518, "time": 1537870268, "locktime": 0, "vsize": 226, "size": 226}