{"hash": "989cedc3f1708c6996a21238d97cdaf4ef03f746fa2fde0c762f9ae673042397", "blockhash": "0000000000000000000dcc0f55137456b1a82d3642486a52398922ac4d620174", "vout": [{"scriptPubKey": {"type": "nulldata", "hex": "6a146f6d6e69000000000000001f0000000649534e00", "asm": "OP_RETURN 6f6d6e69000000000000001f0000000649534e00"}, "value": 0.0, "n": 0}, {"scriptPubKey": {"reqSigs": 1, "hex": "76a914284b1f894ca72430de8f19952125b6016a9dc7c688ac", "addresses": ["14g42KnXkRFfR8cUtS5tReprjeNvGQKW9v"], "asm": "OP_DUP OP_HASH160 284b1f894ca72430de8f19952125b6016a9dc7c6 OP_EQUALVERIFY OP_CHECKSIG", "type": "pubkeyhash"}, "value": 0.14436017, "n": 1}, {"scriptPubKey": {"reqSigs": 1, "hex": "76a9143c53630384e064e6179d9ea87560e24766e3b4ab88ac", "addresses": ["16VySKp72CPEZh7ji6v8AAZQa1rLK8oh6w"], "asm": "OP_DUP OP_HASH160 3c53630384e064e6179d9ea87560e24766e3b4ab OP_EQUALVERIFY OP_CHECKSIG", "type": "pubkeyhash"}, "value": 5.46e-06, "n": 2}], "hex": "01000000011795a2801ff58abb490bc2cf81a6f3161c6e0f156b00bdffa5636b04c473a8d8020000006a47304402206452b758c1cf6a6b74512135d84588449e38978b6e76bde4b8fc693aca3090af0220602e712346c6f3d18f5cf6985a56135d1c09bd0291eeba1b385569e05f65377f01210392260b2475e9dec1855e89404d00787579055270f3f1619ec29bd64ed6a6dd7dfeffffff030000000000000000166a146f6d6e69000000000000001f0000000649534e00b146dc00000000001976a914284b1f894ca72430de8f19952125b6016a9dc7c688ac22020000000000001976a9143c53630384e064e6179d9ea87560e24766e3b4ab88ac0c490800", "vin": [{"sequence": 4294967294, "scriptSig": {"hex": "47304402206452b758c1cf6a6b74512135d84588449e38978b6e76bde4b8fc693aca3090af0220602e712346c6f3d18f5cf6985a56135d1c09bd0291eeba1b385569e05f65377f01210392260b2475e9dec1855e89404d00787579055270f3f1619ec29bd64ed6a6dd7d", "asm": "304402206452b758c1cf6a6b74512135d84588449e38978b6e76bde4b8fc693aca3090af0220602e712346c6f3d18f5cf6985a56135d1c09bd0291eeba1b385569e05f65377f[ALL] 0392260b2475e9dec1855e89404d00787579055270f3f1619ec29bd64ed6a6dd7d"}, "vout": 2, "txid": "d8a873c4046b63a5ffbd006b150f6e1c16f3a681cfc20b49bb8af51f80a29517"}], "txid": "989cedc3f1708c6996a21238d97cdaf4ef03f746fa2fde0c762f9ae673042397", "blocktime": 1537870268, "version": 1, "confirmations": 11516, "time": 1537870268, "locktime": 542988, "vsize": 256, "size": 256}