{"hash": "1bac24f7571742e6c66a2de169486950c079a56a0c591a6584f3ee680ee8deac", "blockhash": "000000000000000000022b45ed06c6f4ccd3cf7fb5ba4856ebd2e58215665228", "vout": [{"scriptPubKey": {"reqSigs": 1, "hex": "76a91417f305b6cdd7a35c8d8c7a4dcb44f2cf8b7c50ad88ac", "addresses": ["13Bdfu96dgcaKbNegsQeiwzm2uSZmfwvHw"], "asm": "OP_DUP OP_HASH160 17f305b6cdd7a35c8d8c7a4dcb44f2cf8b7c50ad OP_EQUALVERIFY OP_CHECKSIG", "type": "pubkeyhash"}, "value": 6.736e-05, "n": 0}, {"scriptPubKey": {"reqSigs": 1, "hex": "76a9141b2ab5d7e6a66699acdf944685c3c845fce3c4ec88ac", "addresses": ["13UeQkCkNnDVVHA2X1aUReAUk1nf3i271g"], "asm": "OP_DUP OP_HASH160 1b2ab5d7e6a66699acdf944685c3c845fce3c4ec OP_EQUALVERIFY OP_CHECKSIG", "type": "pubkeyhash"}, "value": 0.00540368, "n": 1}, {"scriptPubKey": {"reqSigs": 1, "hex": "a9146d1d0c5da7c581b6c20cfce0b2fb91323d97fc3287", "addresses": ["3BdxNmK78DHPhvAWvFHspc6NuEYyGjQRxY"], "asm": "OP_HASH160 6d1d0c5da7c581b6c20cfce0b2fb91323d97fc32 OP_EQUAL", "type": "scripthash"}, "value": 0.06927844, "n": 2}, {"scriptPubKey": {"reqSigs": 1, "hex": "a914ce0380ee9b03d601e3708f77aee10da7d91dab9787", "addresses": ["3LUKKVqhmStBv4ziGCR77a9eqssZaWwrih"], "asm": "OP_HASH160 ce0380ee9b03d601e3708f77aee10da7d91dab97 OP_EQUAL", "type": "scripthash"}, "value": 0.1346219, "n": 3}, {"scriptPubKey": {"reqSigs": 1, "hex": "76a91472ebfaf89a66eae3325bca9e559e12365f78ab2888ac", "addresses": ["1BUej58eeQ8bmUP2kj7haj1A8iWjqSCLGR"], "asm": "OP_DUP OP_HASH160 72ebfaf89a66eae3325bca9e559e12365f78ab28 OP_EQUALVERIFY OP_CHECKSIG", "type": "pubkeyhash"}, "value": 0.00171357, "n": 4}, {"scriptPubKey": {"reqSigs": 1, "hex": "76a9141cceca3176a84c9348fa5efd48666d10e272309088ac", "addresses": ["13dKeP27q54Qm4xYj9xRLj9jGhMM19x99C"], "asm": "OP_DUP OP_HASH160 1cceca3176a84c9348fa5efd48666d10e2723090 OP_EQUALVERIFY OP_CHECKSIG", "type": "pubkeyhash"}, "value": 0.00391769, "n": 5}, {"scriptPubKey": {"reqSigs": 1, "hex": "76a91427db12902573c1edda1cd6b470056b434f86643688ac", "addresses": ["14djnua2Zh7HCczTQiriyDdiYNARwRjxvM"], "asm": "OP_DUP OP_HASH160 27db12902573c1edda1cd6b470056b434f866436 OP_EQUALVERIFY OP_CHECKSIG", "type": "pubkeyhash"}, "value": 0.00165567, "n": 6}, {"scriptPubKey": {"reqSigs": 1, "hex": "76a91453026844e711d4741321fed235492cc31cf5711588ac", "addresses": ["18ZuyBgW7ek2AVM3UnM19YusPF5KmEino7"], "asm": "OP_DUP OP_HASH160 53026844e711d4741321fed235492cc31cf57115 OP_EQUALVERIFY OP_CHECKSIG", "type": "pubkeyhash"}, "value": 0.01037489, "n": 7}], "hex": "020000000001141d544cf756117922c1d216a36d1e70d8591a41ca41f790b8b247a176d24181fc000000001716001457ac8ff38b44cae0d1f476a5066479793c90712afeffffff4708709b834befdf63f080eb1e36088786531152e4c502e86f760178021a50d301000000171600147669fd591986a31ea7ae33585fea8ee04ce66e2efeffffff4e67c2de07e0d24b09145f1d02d6b7d38e313fb7d1497dd8c81adb5a1ab08f3d01000000171600147e35af114e394e8ff95c6dbf13fbf9d23c96a0eafeffffff5f1d4bfcce2f1e01e84840cd199a5cabfb68a6d61f440c82206a9551a33d96280000000017160014b04d495ba36d86e120cc629ce54b9c693e1e1cd3feffffff6522ac7e2d194f112c340f3dfe9eaaeaed913a64daf68f5a5d1e978bbe2272970100000017160014332ace99dd23d84ed0cfb8d146832f7bb7a0af06feffffff73acf06106847fcf4d1ec0bf4bdf5271ce06500b142c5c6d196ee78c04d448d50000000017160014cfef4caafaca89dac5062b90bfb3d9d13801f80cfeffffff7ddc6b0d0d6b7374ceeb1f3ec970cda6d0a4465cdf5edc849b741d5b475545960000000017160014d42a2b1367299c1672fd2cab90e9981c55c0da12feffffff804e2f554585ee3926453a25052da3fe569cd18807b0e1e4fb0b796db299c9800a0000001716001499d6c8aaa422abe75bfb9a696d1fb3240efe740dfeffffff833fe066b2e60bb98d61251412de41f202f0c8773398f620de89555124be9d5d0200000017160014ed12a97d9e9c6f7fee28ddbcbb98710a00818f9cfeffffffa50e6ac77f3964a10cbe8a85b0bc444e7449a267c064cea2b7f576509107038e0100000017160014ff6e8a7efac509985f7cab8fa4fcae5533c2d6c3feffffffb662435d2adf766b16c17b2d0f92626be5d0a223a608ecb5ac7096db0460c1560900000017160014207f351674d54584b38eeb98eb6b442aed9a16fcfeffffffc0ffe871618f097d6ab6a25e524768eda604752123a3d4d5c350203265c051694f010000171600147026d9bfab5acb815e67c6f2c1caea298a33df39feffffffc94e8c74799a572d24733441d7acd5866318465b896cb2281c09bcbeded89f055b0000001716001460b50fe4e75979c5fd9da973abc86561b612944cfeffffffd10eb7eb87434b19f7c02c2c2933a341d5c32d2fd2ad2cd1d6aaa8996d7d0cb40000000017160014fb95a00f5a2f1e5142b7cbcb99da1ac75e81f668feffffffd723525026570dff3e9dbaa864aa1e22bb757ad2fb3673bc1eae1adcdbc70976070000001716001475d4b5b2399bee27b8df6a3293d06c8ef8a06addfeffffffd859aa5e88f018d3447603647947725a20525361b9f20a48d9923f7cbf7d9552000000001716001452f810b19d02be24c05ee31d4b7357054eb6d646feffffffe4099cdaf5de63e81a842662b4aa0e40058683e7990393b0ec98bbd3e855c7790000000017160014fd9f0e743d61d411212e0ce699d793e19ea175e5feffffffe9036991b95634c9573a76fa22c0afc96a9f87e2df0c841d93669b974ef0993d03000000171600147026d9bfab5acb815e67c6f2c1caea298a33df39feffffffe947898ba9f4ec3e34bead5c00cb00b3bad948477ff8b8f2826af04962eb6c550000000017160014a0f3b6a579e85ea132c3a9c649498e62688f61f5fefffffff87e3539b6c48791be9da53a1e25d612da0c1c50c367dd94c57eec8aea0cd8600100000017160014d89c947ec7da693024c87f5a51130a2f0adb7bf4feffffff08501a0000000000001976a91417f305b6cdd7a35c8d8c7a4dcb44f2cf8b7c50ad88acd03e0800000000001976a9141b2ab5d7e6a66699acdf944685c3c845fce3c4ec88ace4b569000000000017a9146d1d0c5da7c581b6c20cfce0b2fb91323d97fc3287ae6acd000000000017a914ce0380ee9b03d601e3708f77aee10da7d91dab97875d9d0200000000001976a91472ebfaf89a66eae3325bca9e559e12365f78ab2888ac59fa0500000000001976a9141cceca3176a84c9348fa5efd48666d10e272309088acbf860200000000001976a91427db12902573c1edda1cd6b470056b434f86643688acb1d40f00000000001976a91453026844e711d4741321fed235492cc31cf5711588ac024730440220151ddcfde91848d63c4e1de973c9babc5045fa9991a9dd5f3c9cfe7438aa53c502200d9a5d6246867006b8e3d51746066483bb41e1e456eba61c396cab8c656512340121030e15174ad816c8e85284fb5b35635b916e3795eac179b6649021c76d16f4941502473044022051e368922e8d250cd4e9d1d425a76313dce9039ed9032eaadd26f601a0c28b150220498ae0384a3d32b478e72d3cb361aba7b2081c4a5bbe34239a699e3be9c344050121035e43c2dea367998c19aa83ca3e5ba90a46af116d069cfdfbdfa8149320afcd3f0247304402202f274772ac8deea997e4d513d05bf37e0015248644860d2d4ee74ccb7d7e4b2802205376a063a4f7027d82a21ad892434dc3307e84decadaab5080a0911eef9b52ee012103d15d9eea1a5ab83c4f92677e1b35eacd8cbe3d1f91f0c87f9bd671e80f4c180002473044022025e128950187d99554f2865b809f5be907c922f3d5d7a099d21dacb0943eb2840220219422475c6d69969a85c49805f331c550b6d8da65faed4d828b537bbda0622b01210224de4a80f6660103e2c8f268dfc5d0fa05340fc6f220db778876918afcbc92eb02483045022100d2595e4741dccea9a3d66b8badc723c99865a1988b601fd4746cf8b0a4352d57022056d93e338b6404795e79a7f7d63b4705357a259eba8fb941036bc580a3dc106a0121031a06e08fc9ffa39afa27d127110eb3aeb5ae39169523fdbfb5c9c4d79e768bf50247304402202c3a3a019fb933aa6f059d96fb27b170305e166f98423fee197d059f777f577d02207db01f459f2609c261be155063ba23cbb36c65314954d072025610252753f4e40121034a314cce3446752d36fe08708c96b930a44579fb362416da9cfbdcf248bfdbd902473044022004b4eb7df8b55a6769c16f4c7fff368557578121cc29a9158188636264b33ff0022057a1b8c8dd33d6fbd3fe128cbfa7c515df93498e20297b7c315fdad9186355d501210252daf5950d25e01e3abc422539149c7a649d416ea4a75a8ee13d3d7d109cee70024730440220068be854d901c7fc005e46a2cd3557c7a0ecc4e2a651a02a79f746e0c803a1710220713de9d3088097a63968ee3c9f667f313f32df9a72bb8a310d39665f32147959012103f002f765141197fb17ecd5a56e7403df0adbc143533c2179204565e76d39198402483045022100e143d8ea2a717fc5f521d886654127411261678d26ff87f4772c6eaddf3c3a7a0220654375fe45ce1452c242b965786b6af8a67fa8b244704ef3cacd639711db1e3c01210341d84355b47cc5d9f238526a11ad9b8afeeec8fce0756b8a43f0126aeb0e892702483045022100c74064ddb0f1cd52bec742bcd7e6b15fb952c9d0ae1341f65918c8e38b74ac2e022074d3589ede5e8113b59d4f134e6eda31dfd8d22f30c069ef03ad440387ecd8b5012103f985ab41a335fd405b570a87c22ce33f926c47825b00bafb216b45ea707aacaf02483045022100b480fcf2d015b85c6f5dab4d346c058fa7058b11170bcd196fb2f09b4ce1f46a02205522cece503d969f809fc5de9da642375be8af2c603102430fd591fbea320aed01210260a0c5fe3767ab2a899c5631f6be9b38b843eb3f77988e7d59a95312a517f73602473044022055fde3b9a17135ad431f1f5639a0cf5a68b2228ca88d6c0859aed47b81966b33022045127e3624dad73bbb947b81330be5eda0a1a3b825c19d25ab88b67a16d9160b012102f7bd39169f771f2a7c01cadb2909e91c36a017702d3198ee296a101fb333691a02483045022100e779028751110b1f776fb36f69196f653a8e99fc69faef9b24c2ed119555cee002207f989191784810bcaf3494976bb14f0948d3af478c6cce191c0c94924f29bee5012103bfd6d19e1bd5f0e084dd3658aaf410756e616db1134227a2c7a718112c6a66a002483045022100ce77cdc9dbba46a0825d38eb6f80fd39055bef892ce796b67a5a0c9cc730cf1c02205d05ca55ee9f770501d9d45b97a13490c3758b02a75566083769a0fc3b61ed0001210364593b7860ef44f64b049ff7a9342d97f9bdcc08c15e8519715905accab05c6202483045022100ca04db1e557c01b780a89b1275c70c5e2234324bf2f1abe66d8de11a9cfaf2f7022015d49a9a0410ee80c0c54a6e52640f8208a40bc8a3280adbe516cf128ed1e3ba012102c13b77eb95a2f41574a61eae93410e80126a15620763768d120e4413aff40d2802483045022100bbde3dc571849d06d3cf5c4b8580719c61759e63acb91c4735bbcf91536447ed0220470629fd970f110b6286e09fb5a8462d23c96a8ea1dd044f987b5478fa7aa6c70121022462f0809d0979e58ea05836d4f5bdd0d2988a59a2318858eb0fdde55997689702473044022054535b114b127f734a5f061330801c2f15cf3a701e7e3c8b51d39c94068e038b02207aff87380a92f90f7fe4b7b104327ff44a55248ab20d663a85dfbff6bc0641b90121023046071e089ed790edbe4d66fa006604d149738d9c7f5f36f5b359054ac6d78e0247304402201997f21cf5436b0dc376849689b26d363a5340b0cac4f7fc1749423c8250f36e02203d8c5dbbe5fe477c5a5ab2ec15625ecd1d1f21f0643aa73a4400d364eea20fbf012102f7bd39169f771f2a7c01cadb2909e91c36a017702d3198ee296a101fb333691a02473044022045c0cc81e13253b8bb16b228f3dd40ac8505ab14f8f76a9e5ea55e14c1499fbb022041eed302bdee619a29381f78cc411b6cd849d9c88d8dd332384b171c3324ac210121026ae9c949a1e034c7d16b1270c0c162c7fcf76710733ae15d81c9fe8fc4e77ade02483045022100d34fa926d37b47e264f278823f061822c0703d2b7a812d9b095d23f73c8a365c022031fb01d9138e72ce1f69efb13f610564e0699283dc2fb89306cc0edf33e29a0a01210399d85ba876c8d85005386622dcda21f3bcd1b8a30c5c8fe5e6f3c6387253bbefad480800", "vin": [{"txinwitness": ["30440220151ddcfde91848d63c4e1de973c9babc5045fa9991a9dd5f3c9cfe7438aa53c502200d9a5d6246867006b8e3d51746066483bb41e1e456eba61c396cab8c6565123401", "030e15174ad816c8e85284fb5b35635b916e3795eac179b6649021c76d16f49415"], "sequence": 4294967294, "scriptSig": {"hex": "16001457ac8ff38b44cae0d1f476a5066479793c90712a", "asm": "001457ac8ff38b44cae0d1f476a5066479793c90712a"}, "vout": 0, "txid": "fc8141d276a147b2b890f741ca411a59d8701e6da316d2c122791156f74c541d"}, {"txinwitness": ["3044022051e368922e8d250cd4e9d1d425a76313dce9039ed9032eaadd26f601a0c28b150220498ae0384a3d32b478e72d3cb361aba7b2081c4a5bbe34239a699e3be9c3440501", "035e43c2dea367998c19aa83ca3e5ba90a46af116d069cfdfbdfa8149320afcd3f"], "sequence": 4294967294, "scriptSig": {"hex": "1600147669fd591986a31ea7ae33585fea8ee04ce66e2e", "asm": "00147669fd591986a31ea7ae33585fea8ee04ce66e2e"}, "vout": 1, "txid": "d3501a027801766fe802c5e4521153868708361eeb80f063dfef4b839b700847"}, {"txinwitness": ["304402202f274772ac8deea997e4d513d05bf37e0015248644860d2d4ee74ccb7d7e4b2802205376a063a4f7027d82a21ad892434dc3307e84decadaab5080a0911eef9b52ee01", "03d15d9eea1a5ab83c4f92677e1b35eacd8cbe3d1f91f0c87f9bd671e80f4c1800"], "sequence": 4294967294, "scriptSig": {"hex": "1600147e35af114e394e8ff95c6dbf13fbf9d23c96a0ea", "asm": "00147e35af114e394e8ff95c6dbf13fbf9d23c96a0ea"}, "vout": 1, "txid": "3d8fb01a5adb1ac8d87d49d1b73f318ed3b7d6021d5f14094bd2e007dec2674e"}, {"txinwitness": ["3044022025e128950187d99554f2865b809f5be907c922f3d5d7a099d21dacb0943eb2840220219422475c6d69969a85c49805f331c550b6d8da65faed4d828b537bbda0622b01", "0224de4a80f6660103e2c8f268dfc5d0fa05340fc6f220db778876918afcbc92eb"], "sequence": 4294967294, "scriptSig": {"hex": "160014b04d495ba36d86e120cc629ce54b9c693e1e1cd3", "asm": "0014b04d495ba36d86e120cc629ce54b9c693e1e1cd3"}, "vout": 0, "txid": "28963da351956a20820c441fd6a668fbab5c9a19cd4048e8011e2fcefc4b1d5f"}, {"txinwitness": ["3045022100d2595e4741dccea9a3d66b8badc723c99865a1988b601fd4746cf8b0a4352d57022056d93e338b6404795e79a7f7d63b4705357a259eba8fb941036bc580a3dc106a01", "031a06e08fc9ffa39afa27d127110eb3aeb5ae39169523fdbfb5c9c4d79e768bf5"], "sequence": 4294967294, "scriptSig": {"hex": "160014332ace99dd23d84ed0cfb8d146832f7bb7a0af06", "asm": "0014332ace99dd23d84ed0cfb8d146832f7bb7a0af06"}, "vout": 1, "txid": "977222be8b971e5d5a8ff6da643a91edeaaa9efe3d0f342c114f192d7eac2265"}, {"txinwitness": ["304402202c3a3a019fb933aa6f059d96fb27b170305e166f98423fee197d059f777f577d02207db01f459f2609c261be155063ba23cbb36c65314954d072025610252753f4e401", "034a314cce3446752d36fe08708c96b930a44579fb362416da9cfbdcf248bfdbd9"], "sequence": 4294967294, "scriptSig": {"hex": "160014cfef4caafaca89dac5062b90bfb3d9d13801f80c", "asm": "0014cfef4caafaca89dac5062b90bfb3d9d13801f80c"}, "vout": 0, "txid": "d548d4048ce76e196d5c2c140b5006ce7152df4bbfc01e4dcf7f840661f0ac73"}, {"txinwitness": ["3044022004b4eb7df8b55a6769c16f4c7fff368557578121cc29a9158188636264b33ff0022057a1b8c8dd33d6fbd3fe128cbfa7c515df93498e20297b7c315fdad9186355d501", "0252daf5950d25e01e3abc422539149c7a649d416ea4a75a8ee13d3d7d109cee70"], "sequence": 4294967294, "scriptSig": {"hex": "160014d42a2b1367299c1672fd2cab90e9981c55c0da12", "asm": "0014d42a2b1367299c1672fd2cab90e9981c55c0da12"}, "vout": 0, "txid": "964555475b1d749b84dc5edf5c46a4d0a6cd70c93e1febce74736b0d0d6bdc7d"}, {"txinwitness": ["30440220068be854d901c7fc005e46a2cd3557c7a0ecc4e2a651a02a79f746e0c803a1710220713de9d3088097a63968ee3c9f667f313f32df9a72bb8a310d39665f3214795901", "03f002f765141197fb17ecd5a56e7403df0adbc143533c2179204565e76d391984"], "sequence": 4294967294, "scriptSig": {"hex": "16001499d6c8aaa422abe75bfb9a696d1fb3240efe740d", "asm": "001499d6c8aaa422abe75bfb9a696d1fb3240efe740d"}, "vout": 10, "txid": "80c999b26d790bfbe4e1b00788d19c56fea32d05253a452639ee8545552f4e80"}, {"txinwitness": ["3045022100e143d8ea2a717fc5f521d886654127411261678d26ff87f4772c6eaddf3c3a7a0220654375fe45ce1452c242b965786b6af8a67fa8b244704ef3cacd639711db1e3c01", "0341d84355b47cc5d9f238526a11ad9b8afeeec8fce0756b8a43f0126aeb0e8927"], "sequence": 4294967294, "scriptSig": {"hex": "160014ed12a97d9e9c6f7fee28ddbcbb98710a00818f9c", "asm": "0014ed12a97d9e9c6f7fee28ddbcbb98710a00818f9c"}, "vout": 2, "txid": "5d9dbe24515589de20f6983377c8f002f241de121425618db90be6b266e03f83"}, {"txinwitness": ["3045022100c74064ddb0f1cd52bec742bcd7e6b15fb952c9d0ae1341f65918c8e38b74ac2e022074d3589ede5e8113b59d4f134e6eda31dfd8d22f30c069ef03ad440387ecd8b501", "03f985ab41a335fd405b570a87c22ce33f926c47825b00bafb216b45ea707aacaf"], "sequence": 4294967294, "scriptSig": {"hex": "160014ff6e8a7efac509985f7cab8fa4fcae5533c2d6c3", "asm": "0014ff6e8a7efac509985f7cab8fa4fcae5533c2d6c3"}, "vout": 1, "txid": "8e0307915076f5b7a2ce64c067a249744e44bcb0858abe0ca164397fc76a0ea5"}, {"txinwitness": ["3045022100b480fcf2d015b85c6f5dab4d346c058fa7058b11170bcd196fb2f09b4ce1f46a02205522cece503d969f809fc5de9da642375be8af2c603102430fd591fbea320aed01", "0260a0c5fe3767ab2a899c5631f6be9b38b843eb3f77988e7d59a95312a517f736"], "sequence": 4294967294, "scriptSig": {"hex": "160014207f351674d54584b38eeb98eb6b442aed9a16fc", "asm": "0014207f351674d54584b38eeb98eb6b442aed9a16fc"}, "vout": 9, "txid": "56c16004db9670acb5ec08a623a2d0e56b62920f2d7bc1166b76df2a5d4362b6"}, {"txinwitness": ["3044022055fde3b9a17135ad431f1f5639a0cf5a68b2228ca88d6c0859aed47b81966b33022045127e3624dad73bbb947b81330be5eda0a1a3b825c19d25ab88b67a16d9160b01", "02f7bd39169f771f2a7c01cadb2909e91c36a017702d3198ee296a101fb333691a"], "sequence": 4294967294, "scriptSig": {"hex": "1600147026d9bfab5acb815e67c6f2c1caea298a33df39", "asm": "00147026d9bfab5acb815e67c6f2c1caea298a33df39"}, "vout": 335, "txid": "6951c065322050c3d5d4a323217504a6ed6847525ea2b66a7d098f6171e8ffc0"}, {"txinwitness": ["3045022100e779028751110b1f776fb36f69196f653a8e99fc69faef9b24c2ed119555cee002207f989191784810bcaf3494976bb14f0948d3af478c6cce191c0c94924f29bee501", "03bfd6d19e1bd5f0e084dd3658aaf410756e616db1134227a2c7a718112c6a66a0"], "sequence": 4294967294, "scriptSig": {"hex": "16001460b50fe4e75979c5fd9da973abc86561b612944c", "asm": "001460b50fe4e75979c5fd9da973abc86561b612944c"}, "vout": 91, "txid": "059fd8debebc091c28b26c895b46186386d5acd7413473242d579a79748c4ec9"}, {"txinwitness": ["3045022100ce77cdc9dbba46a0825d38eb6f80fd39055bef892ce796b67a5a0c9cc730cf1c02205d05ca55ee9f770501d9d45b97a13490c3758b02a75566083769a0fc3b61ed0001", "0364593b7860ef44f64b049ff7a9342d97f9bdcc08c15e8519715905accab05c62"], "sequence": 4294967294, "scriptSig": {"hex": "160014fb95a00f5a2f1e5142b7cbcb99da1ac75e81f668", "asm": "0014fb95a00f5a2f1e5142b7cbcb99da1ac75e81f668"}, "vout": 0, "txid": "b40c7d6d99a8aad6d12cadd22f2dc3d541a333292c2cc0f7194b4387ebb70ed1"}, {"txinwitness": ["3045022100ca04db1e557c01b780a89b1275c70c5e2234324bf2f1abe66d8de11a9cfaf2f7022015d49a9a0410ee80c0c54a6e52640f8208a40bc8a3280adbe516cf128ed1e3ba01", "02c13b77eb95a2f41574a61eae93410e80126a15620763768d120e4413aff40d28"], "sequence": 4294967294, "scriptSig": {"hex": "16001475d4b5b2399bee27b8df6a3293d06c8ef8a06add", "asm": "001475d4b5b2399bee27b8df6a3293d06c8ef8a06add"}, "vout": 7, "txid": "7609c7dbdc1aae1ebc7336fbd27a75bb221eaa64a8ba9d3eff0d5726505223d7"}, {"txinwitness": ["3045022100bbde3dc571849d06d3cf5c4b8580719c61759e63acb91c4735bbcf91536447ed0220470629fd970f110b6286e09fb5a8462d23c96a8ea1dd044f987b5478fa7aa6c701", "022462f0809d0979e58ea05836d4f5bdd0d2988a59a2318858eb0fdde559976897"], "sequence": 4294967294, "scriptSig": {"hex": "16001452f810b19d02be24c05ee31d4b7357054eb6d646", "asm": "001452f810b19d02be24c05ee31d4b7357054eb6d646"}, "vout": 0, "txid": "52957dbf7c3f92d9480af2b9615352205a72477964037644d318f0885eaa59d8"}, {"txinwitness": ["3044022054535b114b127f734a5f061330801c2f15cf3a701e7e3c8b51d39c94068e038b02207aff87380a92f90f7fe4b7b104327ff44a55248ab20d663a85dfbff6bc0641b901", "023046071e089ed790edbe4d66fa006604d149738d9c7f5f36f5b359054ac6d78e"], "sequence": 4294967294, "scriptSig": {"hex": "160014fd9f0e743d61d411212e0ce699d793e19ea175e5", "asm": "0014fd9f0e743d61d411212e0ce699d793e19ea175e5"}, "vout": 0, "txid": "79c755e8d3bb98ecb0930399e7838605400eaab46226841ae863def5da9c09e4"}, {"txinwitness": ["304402201997f21cf5436b0dc376849689b26d363a5340b0cac4f7fc1749423c8250f36e02203d8c5dbbe5fe477c5a5ab2ec15625ecd1d1f21f0643aa73a4400d364eea20fbf01", "02f7bd39169f771f2a7c01cadb2909e91c36a017702d3198ee296a101fb333691a"], "sequence": 4294967294, "scriptSig": {"hex": "1600147026d9bfab5acb815e67c6f2c1caea298a33df39", "asm": "00147026d9bfab5acb815e67c6f2c1caea298a33df39"}, "vout": 3, "txid": "3d99f04e979b66931d840cdfe2879f6ac9afc022fa763a57c93456b9916903e9"}, {"txinwitness": ["3044022045c0cc81e13253b8bb16b228f3dd40ac8505ab14f8f76a9e5ea55e14c1499fbb022041eed302bdee619a29381f78cc411b6cd849d9c88d8dd332384b171c3324ac2101", "026ae9c949a1e034c7d16b1270c0c162c7fcf76710733ae15d81c9fe8fc4e77ade"], "sequence": 4294967294, "scriptSig": {"hex": "160014a0f3b6a579e85ea132c3a9c649498e62688f61f5", "asm": "0014a0f3b6a579e85ea132c3a9c649498e62688f61f5"}, "vout": 0, "txid": "556ceb6249f06a82f2b8f87f4748d9bab300cb005cadbe343eecf4a98b8947e9"}, {"txinwitness": ["3045022100d34fa926d37b47e264f278823f061822c0703d2b7a812d9b095d23f73c8a365c022031fb01d9138e72ce1f69efb13f610564e0699283dc2fb89306cc0edf33e29a0a01", "0399d85ba876c8d85005386622dcda21f3bcd1b8a30c5c8fe5e6f3c6387253bbef"], "sequence": 4294967294, "scriptSig": {"hex": "160014d89c947ec7da693024c87f5a51130a2f0adb7bf4", "asm": "0014d89c947ec7da693024c87f5a51130a2f0adb7bf4"}, "vout": 1, "txid": "60d80cea8aec7ec594dd67c3501c0cda12d6251e3aa59dbe9187c4b639357ef8"}], "txid": "989da89929a7d7ee1339f2db333dfea46c262b002854a995abe76b48040cff50", "blocktime": 1537869901, "version": 2, "confirmations": 11522, "time": 1537869901, "locktime": 542893, "vsize": 2096, "size": 3709}