{"hash": "bf2057211533d8dcf7d83c939742bc12562ef5f7ffd79522f42e3b2b7559c45b", "blockhash": "000000000000000000022b45ed06c6f4ccd3cf7fb5ba4856ebd2e58215665228", "vout": [{"scriptPubKey": {"reqSigs": 1, "hex": "0014d4efbbd88d9b4d9284a9a07ad62c27b806f242ff", "addresses": ["bc1q6nhmhkydndxe9p9f5padvtp8hqr0yshlw43mde"], "asm": "0 d4efbbd88d9b4d9284a9a07ad62c27b806f242ff", "type": "witness_v0_keyhash"}, "value": 2.227e-05, "n": 0}, {"scriptPubKey": {"reqSigs": 1, "hex": "a91489284e458793a181691837b6100d22beb851ae2e87", "addresses": ["3ECEnKLhoYWWquVmpdxcfRRvTZLGSHYJXh"], "asm": "OP_HASH160 89284e458793a181691837b6100d22beb851ae2e OP_EQUAL", "type": "scripthash"}, "value": 0.00314, "n": 1}], "hex": "010000000001011c3a4fa9d226af7bc55c06150571ec7a6a060995786cc9a785b3ad877396d2dd00000000171600144baa6e190cadb32fa3a100c6e64b81ea725c5e10ffffffff02b308000000000000160014d4efbbd88d9b4d9284a9a07ad62c27b806f242ff90ca04000000000017a91489284e458793a181691837b6100d22beb851ae2e870247304402201bd4b71e7dfc33abf98ee10a23c9b576d3d2049ed74e2e826b73b5aa1948c7290220064d5c6ea5e3fe86d69399865a33e470562440f5cef12084179ba669ebee31e3012102e15f5aca329a22b90efa695262964365e9ecf875910baeb22f11048f678c894a00000000", "vin": [{"txinwitness": ["304402201bd4b71e7dfc33abf98ee10a23c9b576d3d2049ed74e2e826b73b5aa1948c7290220064d5c6ea5e3fe86d69399865a33e470562440f5cef12084179ba669ebee31e301", "02e15f5aca329a22b90efa695262964365e9ecf875910baeb22f11048f678c894a"], "sequence": 4294967295, "scriptSig": {"hex": "1600144baa6e190cadb32fa3a100c6e64b81ea725c5e10", "asm": "00144baa6e190cadb32fa3a100c6e64b81ea725c5e10"}, "vout": 0, "txid": "ddd2967387adb385a7c96c789509066a7aec710515065cc57baf26d2a94f3a1c"}], "txid": "98a0e2e08da905999b6c6a096660a735556e89ac1d1d623ec4ee147bf9a9566b", "blocktime": 1537869901, "version": 1, "confirmations": 11523, "time": 1537869901, "locktime": 0, "vsize": 165, "size": 246}