{"hash": "98a01eb00294a93586c4323101d74efc638094958cf52196b2a36eda83f383ff", "blockhash": "0000000000000000001cda96e906b7601b7a6fb1a3b62bca570a9e5d8f4b3de1", "vout": [{"scriptPubKey": {"reqSigs": 1, "hex": "76a9141e83891a846643de678dac998fbc9a592ce476df88ac", "addresses": ["13nLr1LrsxdAuxXj9YakLty3N8Tf7H7ixR"], "asm": "OP_DUP OP_HASH160 1e83891a846643de678dac998fbc9a592ce476df OP_EQUALVERIFY OP_CHECKSIG", "type": "pubkeyhash"}, "value": 8.94e-06, "n": 0}, {"scriptPubKey": {"reqSigs": 1, "hex": "a914a0c8241e3b8d7b100de7986722a9d126e189455587", "addresses": ["3GM9oHNZQB3o4Ric4WXWvHyYFe5yq6yD4c"], "asm": "OP_HASH160 a0c8241e3b8d7b100de7986722a9d126e1894555 OP_EQUAL", "type": "scripthash"}, "value": 0.00573364, "n": 1}], "hex": "0100000002df416fe0350c3e9e6a685a8df752af0fe162d29027d023a170fe6d1516527e33290000006a47304402202b970f3c9312cdad3667ae3caf427c4214cb237f3b11ef5a1290f9bca532e25802204ea9105f067e13817b5f39fa0d58b61bed432ec676a0ee5ffcee1c4ec574e5c90121022f0b3960e2ce1925c746b01ce099cde95fb86e6be1392c7ef4a4b3688c4bf646ffffffffbca037a7c751ff5966af67d94f6889bda908f90854839cb81756bd33f1d2a2d7000000006a47304402201483e978bf204cb6b30e9f8de3fefc093741b7f475778b7d4d05390dfc19fe3602205575ed41d87d72cc75b8df905fcc5cff6dd5dcbb4c6ebf23e2868a44fa2989e30121022f0b3960e2ce1925c746b01ce099cde95fb86e6be1392c7ef4a4b3688c4bf646ffffffff027e030000000000001976a9141e83891a846643de678dac998fbc9a592ce476df88acb4bf08000000000017a914a0c8241e3b8d7b100de7986722a9d126e18945558700000000", "vin": [{"sequence": 4294967295, "scriptSig": {"hex": "47304402202b970f3c9312cdad3667ae3caf427c4214cb237f3b11ef5a1290f9bca532e25802204ea9105f067e13817b5f39fa0d58b61bed432ec676a0ee5ffcee1c4ec574e5c90121022f0b3960e2ce1925c746b01ce099cde95fb86e6be1392c7ef4a4b3688c4bf646", "asm": "304402202b970f3c9312cdad3667ae3caf427c4214cb237f3b11ef5a1290f9bca532e25802204ea9105f067e13817b5f39fa0d58b61bed432ec676a0ee5ffcee1c4ec574e5c9[ALL] 022f0b3960e2ce1925c746b01ce099cde95fb86e6be1392c7ef4a4b3688c4bf646"}, "vout": 41, "txid": "337e5216156dfe70a123d02790d262e10faf52f78d5a686a9e3e0c35e06f41df"}, {"sequence": 4294967295, "scriptSig": {"hex": "47304402201483e978bf204cb6b30e9f8de3fefc093741b7f475778b7d4d05390dfc19fe3602205575ed41d87d72cc75b8df905fcc5cff6dd5dcbb4c6ebf23e2868a44fa2989e30121022f0b3960e2ce1925c746b01ce099cde95fb86e6be1392c7ef4a4b3688c4bf646", "asm": "304402201483e978bf204cb6b30e9f8de3fefc093741b7f475778b7d4d05390dfc19fe3602205575ed41d87d72cc75b8df905fcc5cff6dd5dcbb4c6ebf23e2868a44fa2989e3[ALL] 022f0b3960e2ce1925c746b01ce099cde95fb86e6be1392c7ef4a4b3688c4bf646"}, "vout": 0, "txid": "d7a2d2f133bd5617b89c835408f908a9bd89684fd967af6659ff51c7a737a0bc"}], "txid": "98a01eb00294a93586c4323101d74efc638094958cf52196b2a36eda83f383ff", "blocktime": 1537873282, "version": 1, "confirmations": 11484, "time": 1537873282, "locktime": 0, "vsize": 370, "size": 370}