{"hash": "98a8321eecbea54d92fcb8381f32fa97ed1af34bf665f9c5d3a9d8870819c3ee", "blockhash": "0000000000000000000baef3f32e3676a92c3b2e5da21b426e4f302fc371ce76", "vout": [{"scriptPubKey": {"reqSigs": 1, "hex": "76a914d9ee7910ee727301e72c5dfac39e5be9a0eef94388ac", "addresses": ["1LsKK1v7YTECmECb5KnernjWNKWwdR4pPF"], "asm": "OP_DUP OP_HASH160 d9ee7910ee727301e72c5dfac39e5be9a0eef943 OP_EQUALVERIFY OP_CHECKSIG", "type": "pubkeyhash"}, "value": 0.0002, "n": 0}, {"scriptPubKey": {"reqSigs": 1, "hex": "76a9140396c750f15f6e2aea1495bee284490a42c197e788ac", "addresses": ["1KyeraaoWhQ64rPgxTRNfHXJkNRkoxqhi"], "asm": "OP_DUP OP_HASH160 0396c750f15f6e2aea1495bee284490a42c197e7 OP_EQUALVERIFY OP_CHECKSIG", "type": "pubkeyhash"}, "value": 0.20560029, "n": 1}], "hex": "0200000001a74fb79d1e0926e35bea960b3c40fb16393e527891f71fff2427ac7f5647a9d6010000006b483045022100c74a6a2bfae41a7e7da6877d518cdfe9b064db1992f01d4783ecf5b2469581f602207bfa7687984a0033bf1b5eed69145f7b57b0f698b4441700a952c348d563271b0121037aed202cc0420c61a4ecd5ba5d8ff2b6263caec8e7242e78157405b8890aaf5dffffffff02204e0000000000001976a914d9ee7910ee727301e72c5dfac39e5be9a0eef94388ac9db83901000000001976a9140396c750f15f6e2aea1495bee284490a42c197e788ac00000000", "vin": [{"sequence": 4294967295, "scriptSig": {"hex": "483045022100c74a6a2bfae41a7e7da6877d518cdfe9b064db1992f01d4783ecf5b2469581f602207bfa7687984a0033bf1b5eed69145f7b57b0f698b4441700a952c348d563271b0121037aed202cc0420c61a4ecd5ba5d8ff2b6263caec8e7242e78157405b8890aaf5d", "asm": "3045022100c74a6a2bfae41a7e7da6877d518cdfe9b064db1992f01d4783ecf5b2469581f602207bfa7687984a0033bf1b5eed69145f7b57b0f698b4441700a952c348d563271b[ALL] 037aed202cc0420c61a4ecd5ba5d8ff2b6263caec8e7242e78157405b8890aaf5d"}, "vout": 1, "txid": "d6a947567fac2724ff1ff79178523e3916fb403c0b96ea5be326091e9db74fa7"}], "txid": "98a8321eecbea54d92fcb8381f32fa97ed1af34bf665f9c5d3a9d8870819c3ee", "blocktime": 1537876114, "version": 2, "confirmations": 11460, "time": 1537876114, "locktime": 0, "vsize": 226, "size": 226}