{"hash": "00695753073ee32918b1ac260a94c779495c070078167de5d200e989e0a30fdc", "blockhash": "0000000000000000000dcc0f55137456b1a82d3642486a52398922ac4d620174", "vout": [{"scriptPubKey": {"reqSigs": 1, "hex": "76a914775204496a4ff262c6b9cb06eef6fd3eddd7119688ac", "addresses": ["1BsufTAn23pLEyHjz7yjcnR1zEV1uKYwA9"], "asm": "OP_DUP OP_HASH160 775204496a4ff262c6b9cb06eef6fd3eddd71196 OP_EQUALVERIFY OP_CHECKSIG", "type": "pubkeyhash"}, "value": 0.00059189, "n": 0}, {"scriptPubKey": {"reqSigs": 1, "hex": "a9148be7a91c33ac7b44b11627d57dbfe047a415128b87", "addresses": ["3ESmNGVY8QxJLoW9VF37g8rd9C7WS7X1H1"], "asm": "OP_HASH160 8be7a91c33ac7b44b11627d57dbfe047a415128b OP_EQUAL", "type": "scripthash"}, "value": 0.26910215, "n": 1}, {"scriptPubKey": {"reqSigs": 1, "hex": "a9141ea31ee0c58fc1e57f2ef8e550e150b03b4c5f3c87", "addresses": ["34V1c7nhAV6Grt6hexfHHt451X2fbhSDyw"], "asm": "OP_HASH160 1ea31ee0c58fc1e57f2ef8e550e150b03b4c5f3c OP_EQUAL", "type": "scripthash"}, "value": 0.004, "n": 2}, {"scriptPubKey": {"reqSigs": 1, "hex": "a91445937c65391eeecc078ae21662d3de1c0e19c1b187", "addresses": ["382uEHGrsdagUzGGqzjDg1fEmpnLPnWP48"], "asm": "OP_HASH160 45937c65391eeecc078ae21662d3de1c0e19c1b1 OP_EQUAL", "type": "scripthash"}, "value": 0.00069594, "n": 3}], "hex": "010000000001011d16c82e6af556ccc9c3489e7c60f337be00e2273320eaf63e6b953a0ffd626b0500000023220020df3cb5cfeeee0390224bad90cf6f16cfc566bbf13e33afc6f462d4ade3a4152dffffffff0435e70000000000001976a914775204496a4ff262c6b9cb06eef6fd3eddd7119688ac079e9a010000000017a9148be7a91c33ac7b44b11627d57dbfe047a415128b87801a06000000000017a9141ea31ee0c58fc1e57f2ef8e550e150b03b4c5f3c87da0f01000000000017a91445937c65391eeecc078ae21662d3de1c0e19c1b187040047304402206c876efc5bfd0997247a5998d23599d0b1eb2fea9314ef1ae0159e15419f2c04022023d9a664deec8cb28f236ea24c012832ae4478debcb7e6dd1fd6054b23a5c33801473044022007afae5d46092775c020713b54366952707a23810da6daeda285377b903cc99702203fee846455759b4107101e5ff42fadc5cb68c98cb9d6b6aef32f4dc1e77b8c66016952210244a98c717e637814db44f173c655da4d51e71cc2344dc7779797190821a199d62102385212ad08ccfc6c2d3529fe2d4fe336a19fe029512f207d5a2f0e9cf034b1312103aecfa68f455e3d7e6f2a8dd87614e89afd21e6efd3db555a0f79d0e8c260f5a153ae00000000", "vin": [{"txinwitness": ["", "304402206c876efc5bfd0997247a5998d23599d0b1eb2fea9314ef1ae0159e15419f2c04022023d9a664deec8cb28f236ea24c012832ae4478debcb7e6dd1fd6054b23a5c33801", "3044022007afae5d46092775c020713b54366952707a23810da6daeda285377b903cc99702203fee846455759b4107101e5ff42fadc5cb68c98cb9d6b6aef32f4dc1e77b8c6601", "52210244a98c717e637814db44f173c655da4d51e71cc2344dc7779797190821a199d62102385212ad08ccfc6c2d3529fe2d4fe336a19fe029512f207d5a2f0e9cf034b1312103aecfa68f455e3d7e6f2a8dd87614e89afd21e6efd3db555a0f79d0e8c260f5a153ae"], "sequence": 4294967295, "scriptSig": {"hex": "220020df3cb5cfeeee0390224bad90cf6f16cfc566bbf13e33afc6f462d4ade3a4152d", "asm": "0020df3cb5cfeeee0390224bad90cf6f16cfc566bbf13e33afc6f462d4ade3a4152d"}, "vout": 5, "txid": "6b62fd0f3a956b3ef6ea203327e200be37f3607c9e48c3c9cc56f56a2ec8161d"}], "txid": "98ad4ab53e8efb95886e08d0cc4b6dd65ce6323f544cae21848c50e3baeb243a", "blocktime": 1537870268, "version": 1, "confirmations": 11518, "time": 1537870268, "locktime": 0, "vsize": 280, "size": 470}