{"hash": "98b0eec39465e99c25795b3b660d61a4664aa042b50c4845e82cd2259a1271d2", "blockhash": "00000000000000000017f5eb5941039fbcee6240d03bc1f2f8e35350df66a1d8", "vout": [{"scriptPubKey": {"reqSigs": 1, "hex": "76a914cbac8e9c8ff5259edb7eef03edcda4fa01fa070588ac", "addresses": ["1KZvtRDFuV2XZKzNoEGZdwBUJQbV1bCy1Y"], "asm": "OP_DUP OP_HASH160 cbac8e9c8ff5259edb7eef03edcda4fa01fa0705 OP_EQUALVERIFY OP_CHECKSIG", "type": "pubkeyhash"}, "value": 0.00545159, "n": 0}], "hex": "01000000019a06a5139ddd8b3b87469a10013f5d127c84225c472d76d87b176d9c1e9f1c0d000000006b483045022100bde9bb6baab37f8b7f8385fa199e5e2f87a4adcaee998ade8eebb88de078f1eb02201a84e8a297348d8b3d8e54bb1fd79a107ff07b8fa742377f219094f8c97eb8400121023b9e36fe351f2be388ad8c3ab76fa03d51046a07eb1cc37dc5c74d555d3754c5ffffffff0187510800000000001976a914cbac8e9c8ff5259edb7eef03edcda4fa01fa070588ac00000000", "vin": [{"sequence": 4294967295, "scriptSig": {"hex": "483045022100bde9bb6baab37f8b7f8385fa199e5e2f87a4adcaee998ade8eebb88de078f1eb02201a84e8a297348d8b3d8e54bb1fd79a107ff07b8fa742377f219094f8c97eb8400121023b9e36fe351f2be388ad8c3ab76fa03d51046a07eb1cc37dc5c74d555d3754c5", "asm": "3045022100bde9bb6baab37f8b7f8385fa199e5e2f87a4adcaee998ade8eebb88de078f1eb02201a84e8a297348d8b3d8e54bb1fd79a107ff07b8fa742377f219094f8c97eb840[ALL] 023b9e36fe351f2be388ad8c3ab76fa03d51046a07eb1cc37dc5c74d555d3754c5"}, "vout": 0, "txid": "0d1c9f1e9c6d177bd8762d475c22847c125d3f01109a46873b8bdd9d13a5069a"}], "txid": "98b0eec39465e99c25795b3b660d61a4664aa042b50c4845e82cd2259a1271d2", "blocktime": 1537874412, "version": 1, "confirmations": 11467, "time": 1537874412, "locktime": 0, "vsize": 192, "size": 192}