{"hash": "98b4c3aefa0435fdd2b8b558f55a77a715322841c8a04e71ebf189139e9d1fa0", "blockhash": "000000000000000000022b45ed06c6f4ccd3cf7fb5ba4856ebd2e58215665228", "vout": [{"scriptPubKey": {"reqSigs": 1, "hex": "a914c32ff7dc5c0e323b6654412e60fd158ba8e1daaf87", "addresses": ["3KV59qgHKGiDMRnzNPLc572828XQL1XA8D"], "asm": "OP_HASH160 c32ff7dc5c0e323b6654412e60fd158ba8e1daaf OP_EQUAL", "type": "scripthash"}, "value": 2.4995, "n": 0}, {"scriptPubKey": {"reqSigs": 1, "hex": "76a914f423dfee34e4833104508103d89e316b4a49314088ac", "addresses": ["1PFtrRjbq4aLfM7k4tyLZ3ZAuTsgLr6Q8Q"], "asm": "OP_DUP OP_HASH160 f423dfee34e4833104508103d89e316b4a493140 OP_EQUALVERIFY OP_CHECKSIG", "type": "pubkeyhash"}, "value": 1.44663909, "n": 1}], "hex": "01000000015b3236bc5c81e289fcac27312eb2da0ed700c5bfb657367f8ad2fc30e1e5dbe2000000006b483045022100e180a19c4e4093691ef3da04d12c64b1781211b48eb1d666f360a0cf6d5ff4e4022064966863984d04af911a105b5bd165a9005ef6157f2557fb0c186c062ca6ff860121020466ea9ac4872ddc2942d88be283d8f0ed95b1ccf164bc22893e993afc5629c5ffffffff0230efe50e0000000017a914c32ff7dc5c0e323b6654412e60fd158ba8e1daaf8765659f08000000001976a914f423dfee34e4833104508103d89e316b4a49314088ac00000000", "vin": [{"sequence": 4294967295, "scriptSig": {"hex": "483045022100e180a19c4e4093691ef3da04d12c64b1781211b48eb1d666f360a0cf6d5ff4e4022064966863984d04af911a105b5bd165a9005ef6157f2557fb0c186c062ca6ff860121020466ea9ac4872ddc2942d88be283d8f0ed95b1ccf164bc22893e993afc5629c5", "asm": "3045022100e180a19c4e4093691ef3da04d12c64b1781211b48eb1d666f360a0cf6d5ff4e4022064966863984d04af911a105b5bd165a9005ef6157f2557fb0c186c062ca6ff86[ALL] 020466ea9ac4872ddc2942d88be283d8f0ed95b1ccf164bc22893e993afc5629c5"}, "vout": 0, "txid": "e2dbe5e130fcd28a7f3657b6bfc500d70edab22e3127acfc89e2815cbc36325b"}], "txid": "98b4c3aefa0435fdd2b8b558f55a77a715322841c8a04e71ebf189139e9d1fa0", "blocktime": 1537869901, "version": 1, "confirmations": 11522, "time": 1537869901, "locktime": 0, "vsize": 224, "size": 224}