{"hash": "98b64d221f1e470ccca73b215cae4e5fd44c0397d23058da6da2dbf403cab16c", "blockhash": "0000000000000000001e0dab787dd257d1dbfcb92a98c2207d5e1078be1f4165", "vout": [{"scriptPubKey": {"reqSigs": 1, "hex": "76a914578b9bc92dc9e9028403566ae29d61d44326cc7e88ac", "addresses": ["18yu2ruuvbdAUJqEpf62eXb5umEUkWhy5s"], "asm": "OP_DUP OP_HASH160 578b9bc92dc9e9028403566ae29d61d44326cc7e OP_EQUALVERIFY OP_CHECKSIG", "type": "pubkeyhash"}, "value": 0.00639344, "n": 0}, {"scriptPubKey": {"type": "nulldata", "hex": "6a4c50000077bd0001e114dccca371221793029e86e5bf9ae76da98a211aaf6c953dd567cf27e7aabbd76bd997c85d7b94def4bd7c07605baa1258061338e3eb59029d1d100759d4ba30d2c37bb011d97e02cf", "asm": "OP_RETURN 000077bd0001e114dccca371221793029e86e5bf9ae76da98a211aaf6c953dd567cf27e7aabbd76bd997c85d7b94def4bd7c07605baa1258061338e3eb59029d1d100759d4ba30d2c37bb011d97e02cf"}, "value": 0.0, "n": 1}], "hex": "010000000105c9d6c76362496595f3c0f9d1659eeb1262a74bb32e5788ab388faeaeee3268000000006a4730440220183275b39b96236d77914ebb169b57e22a35723f494f99436a350829aadab677022076ba00ae4de157954e3bbfe95f28a20646bee482256dd43f15fe9464a2b97f7b01210284a72252e06ceed0f65e16963ebc948ec6fb93cacfc187431e1c4c1919fcf1ebffffffff0270c10900000000001976a914578b9bc92dc9e9028403566ae29d61d44326cc7e88ac0000000000000000536a4c50000077bd0001e114dccca371221793029e86e5bf9ae76da98a211aaf6c953dd567cf27e7aabbd76bd997c85d7b94def4bd7c07605baa1258061338e3eb59029d1d100759d4ba30d2c37bb011d97e02cf00000000", "vin": [{"sequence": 4294967295, "scriptSig": {"hex": "4730440220183275b39b96236d77914ebb169b57e22a35723f494f99436a350829aadab677022076ba00ae4de157954e3bbfe95f28a20646bee482256dd43f15fe9464a2b97f7b01210284a72252e06ceed0f65e16963ebc948ec6fb93cacfc187431e1c4c1919fcf1eb", "asm": "30440220183275b39b96236d77914ebb169b57e22a35723f494f99436a350829aadab677022076ba00ae4de157954e3bbfe95f28a20646bee482256dd43f15fe9464a2b97f7b[ALL] 0284a72252e06ceed0f65e16963ebc948ec6fb93cacfc187431e1c4c1919fcf1eb"}, "vout": 0, "txid": "6832eeaeae8f38ab88572eb34ba76212eb9e65d1f9c0f39565496263c7d6c905"}], "txid": "98b64d221f1e470ccca73b215cae4e5fd44c0397d23058da6da2dbf403cab16c", "blocktime": 1537872475, "version": 1, "confirmations": 11486, "time": 1537872475, "locktime": 0, "vsize": 283, "size": 283}