{"hash": "98b8196cb646b84cc103255ed33c8a784b706d978110559a9fc53482c9a2aa99", "blockhash": "0000000000000000001e0dab787dd257d1dbfcb92a98c2207d5e1078be1f4165", "vout": [{"scriptPubKey": {"reqSigs": 1, "hex": "76a914546141df169088a512b6b8ebe55b4174d669bf0f88ac", "addresses": ["18hAGfsMyMBU9G1psEw52SQAunsptRq6Pc"], "asm": "OP_DUP OP_HASH160 546141df169088a512b6b8ebe55b4174d669bf0f OP_EQUALVERIFY OP_CHECKSIG", "type": "pubkeyhash"}, "value": 0.00091624, "n": 0}, {"scriptPubKey": {"reqSigs": 1, "hex": "a9148d8ab158d18cbf61c25d60273e311f8e64da1dc587", "addresses": ["3EbRM8iXxaMhX84Zh6iAtRCBt9Kdi2DuWr"], "asm": "OP_HASH160 8d8ab158d18cbf61c25d60273e311f8e64da1dc5 OP_EQUAL", "type": "scripthash"}, "value": 0.048, "n": 1}], "hex": "010000000286c491d602f98999b7ddb3e2c5ee2f2fc2e53c8b4f6cac31b3b8cfc442a67267000000006a473044022058c59f8b59ff5382307988faf2ad8d67a24ab3518bfb3a538e406490e565fe9e022038977af7228fc044f3aa8904ad41e4c0ffa0991abae3b787e47734817e3607770121039aec87ac66027d6d7031d5c4eb504b0a159c76711693bba920847e98cc92566cfdfffffffaef893ad5342729ad717aaa9f967462cb6c3443997145998d40f1ca1b1821b3000000006a473044022058652908aa9844c078bc23e2202ce2a70f1a7535eeb8d39203a95511c4e25b23022001fcc1c50be29b3232b87aada1b8ff0573d0d6680adfeafabe444650afe608cd012102d5e8bb2a8d944f05ba5326ed52b5c08f475f05600b609344106d9860a5fc2b0bfdffffff02e8650100000000001976a914546141df169088a512b6b8ebe55b4174d669bf0f88ac003e49000000000017a9148d8ab158d18cbf61c25d60273e311f8e64da1dc58712490800", "vin": [{"sequence": 4294967293, "scriptSig": {"hex": "473044022058c59f8b59ff5382307988faf2ad8d67a24ab3518bfb3a538e406490e565fe9e022038977af7228fc044f3aa8904ad41e4c0ffa0991abae3b787e47734817e3607770121039aec87ac66027d6d7031d5c4eb504b0a159c76711693bba920847e98cc92566c", "asm": "3044022058c59f8b59ff5382307988faf2ad8d67a24ab3518bfb3a538e406490e565fe9e022038977af7228fc044f3aa8904ad41e4c0ffa0991abae3b787e47734817e360777[ALL] 039aec87ac66027d6d7031d5c4eb504b0a159c76711693bba920847e98cc92566c"}, "vout": 0, "txid": "6772a642c4cfb8b331ac6c4f8b3ce5c22f2feec5e2b3ddb79989f902d691c486"}, {"sequence": 4294967293, "scriptSig": {"hex": "473044022058652908aa9844c078bc23e2202ce2a70f1a7535eeb8d39203a95511c4e25b23022001fcc1c50be29b3232b87aada1b8ff0573d0d6680adfeafabe444650afe608cd012102d5e8bb2a8d944f05ba5326ed52b5c08f475f05600b609344106d9860a5fc2b0b", "asm": "3044022058652908aa9844c078bc23e2202ce2a70f1a7535eeb8d39203a95511c4e25b23022001fcc1c50be29b3232b87aada1b8ff0573d0d6680adfeafabe444650afe608cd[ALL] 02d5e8bb2a8d944f05ba5326ed52b5c08f475f05600b609344106d9860a5fc2b0b"}, "vout": 0, "txid": "b321181bcaf1408d9945719943346ccb6274969faa7a71ad292734d53a89effa"}], "txid": "98b8196cb646b84cc103255ed33c8a784b706d978110559a9fc53482c9a2aa99", "blocktime": 1537872475, "version": 1, "confirmations": 11487, "time": 1537872475, "locktime": 542994, "vsize": 370, "size": 370}