{"hash": "442579dee211b9a286583acf73adf339591b405340eb8fc0e322f12cf0add807", "blockhash": "00000000000000000017f5eb5941039fbcee6240d03bc1f2f8e35350df66a1d8", "vout": [{"scriptPubKey": {"reqSigs": 1, "hex": "001441f5147a159e06c93ce6eb7ba5d6607b66b458de", "addresses": ["bc1qg863g7s4ncrvj08xada6t4nq0dntgkx7vghh4q"], "asm": "0 41f5147a159e06c93ce6eb7ba5d6607b66b458de", "type": "witness_v0_keyhash"}, "value": 1.95e-05, "n": 0}, {"scriptPubKey": {"reqSigs": 1, "hex": "a914791393e02450d31ab537d3d900a67ef479db35c587", "addresses": ["3CjD92tiYHNAhMMtcRVHq4CACz4T8VQnLm"], "asm": "OP_HASH160 791393e02450d31ab537d3d900a67ef479db35c5 OP_EQUAL", "type": "scripthash"}, "value": 0.00435553, "n": 1}], "hex": "010000000001012e534d51346c0dff4886f30b5bb3ea0a4fd2115c867967f11d31b24ef31955e600000000171600143a12f01567dc747cbc61359236857a58c3bb6f7effffffff029e0700000000000016001441f5147a159e06c93ce6eb7ba5d6607b66b458de61a506000000000017a914791393e02450d31ab537d3d900a67ef479db35c58702473044022066b1d484595fd908b0d8527b7545083441546e7a1ac0a3fcc296c62e47c93a2702201f1d6883370a19ccba952843c5960968f3c01d465c7720404d338437326bdebe01210324af25c6d8758ce16bdf57e3288e108770f4d255f3ef245c92e43d19cd2f970b00000000", "vin": [{"txinwitness": ["3044022066b1d484595fd908b0d8527b7545083441546e7a1ac0a3fcc296c62e47c93a2702201f1d6883370a19ccba952843c5960968f3c01d465c7720404d338437326bdebe01", "0324af25c6d8758ce16bdf57e3288e108770f4d255f3ef245c92e43d19cd2f970b"], "sequence": 4294967295, "scriptSig": {"hex": "1600143a12f01567dc747cbc61359236857a58c3bb6f7e", "asm": "00143a12f01567dc747cbc61359236857a58c3bb6f7e"}, "vout": 0, "txid": "e65519f34eb2311df16779865c11d24f0aeab35b0bf38648ff0d6c34514d532e"}], "txid": "98b99aa73359efb8069787d7e540b6a6675443a7cb54591eeca4da1c84f4e13d", "blocktime": 1537874412, "version": 1, "confirmations": 11468, "time": 1537874412, "locktime": 0, "vsize": 165, "size": 246}