{"hash": "147105e337ea08b757af34a8bce5b1ec4e13c17033870fc077e8b7b0fc7cfa34", "blockhash": "000000000000000000022b45ed06c6f4ccd3cf7fb5ba4856ebd2e58215665228", "vout": [{"scriptPubKey": {"reqSigs": 1, "hex": "a91469d6e22e0b2250699a49f4cc1fb6778272e3990f87", "addresses": ["3BLeJ46zUkZfcG9ivCAgsaqnSiBQbHv61j"], "asm": "OP_HASH160 69d6e22e0b2250699a49f4cc1fb6778272e3990f OP_EQUAL", "type": "scripthash"}, "value": 0.00999899, "n": 0}, {"scriptPubKey": {"reqSigs": 1, "hex": "76a914e2e935237afbbfe00bd99aaa81246024105058c788ac", "addresses": ["1Mgo5uCE8xnPyzaSukNvFp2KYQNQKmaVky"], "asm": "OP_DUP OP_HASH160 e2e935237afbbfe00bd99aaa81246024105058c7 OP_EQUALVERIFY OP_CHECKSIG", "type": "pubkeyhash"}, "value": 0.0059356, "n": 1}], "hex": "02000000000102a97a93ac8135fd969d6115b6da82d33b4421f73727e6356c5343732db316f5b000000000171600144acdb03d1838f4e961ceb8cf85584265c0867accfeffffffd782e0a2199da1ca549fecb2512fae3e0d810c9d8d808f5ed4cbef2b8e209a33060000001716001408436bd5f4b41eb489c2ada62aaa6498b5803bc2feffffff02db410f000000000017a91469d6e22e0b2250699a49f4cc1fb6778272e3990f87980e0900000000001976a914e2e935237afbbfe00bd99aaa81246024105058c788ac02483045022100c6486255d1293289215d9fae217c4a48b4497dc27bb565fc089cfd145822ffd002201fb445ff2cfb0bf6fca8ad3ccf8457be82060fb5d82271b35c8702061242d4c20121032fdfdc945136e29ac3dd59f96e369c1287d6b96541d948aa18b8135a2ef8494e02483045022100be55415dab326c2cb6eb404e2f300ea90a5778039bca9a0b14441190d1b7570a02206a5663f0ed65263183678044597c60ade6a424eb91263f1cac54fe73d56aced901210216c438a24baafb0cd166119575b3bd31393ab7e2a88cd031ca89e04964887ff20b490800", "vin": [{"txinwitness": ["3045022100c6486255d1293289215d9fae217c4a48b4497dc27bb565fc089cfd145822ffd002201fb445ff2cfb0bf6fca8ad3ccf8457be82060fb5d82271b35c8702061242d4c201", "032fdfdc945136e29ac3dd59f96e369c1287d6b96541d948aa18b8135a2ef8494e"], "sequence": 4294967294, "scriptSig": {"hex": "1600144acdb03d1838f4e961ceb8cf85584265c0867acc", "asm": "00144acdb03d1838f4e961ceb8cf85584265c0867acc"}, "vout": 0, "txid": "b0f516b32d7343536c35e62737f721443bd382dab615619d96fd3581ac937aa9"}, {"txinwitness": ["3045022100be55415dab326c2cb6eb404e2f300ea90a5778039bca9a0b14441190d1b7570a02206a5663f0ed65263183678044597c60ade6a424eb91263f1cac54fe73d56aced901", "0216c438a24baafb0cd166119575b3bd31393ab7e2a88cd031ca89e04964887ff2"], "sequence": 4294967294, "scriptSig": {"hex": "16001408436bd5f4b41eb489c2ada62aaa6498b5803bc2", "asm": "001408436bd5f4b41eb489c2ada62aaa6498b5803bc2"}, "vout": 6, "txid": "339a208e2befcbd45e8f808d9d0c810d3eae2f51b2ec9f54caa19d19a2e082d7"}], "txid": "98bb14f9083c9e9cc4251b105c754e894f483711f78537ea3d0a0d68da646603", "blocktime": 1537869901, "version": 2, "confirmations": 11524, "time": 1537869901, "locktime": 542987, "vsize": 259, "size": 422}