{"hash": "bf1cbf80e38548cf6555bbab3ae4168d669c790d7734d88c6f5a0dad3b989891", "blockhash": "0000000000000000001e0dab787dd257d1dbfcb92a98c2207d5e1078be1f4165", "vout": [{"scriptPubKey": {"reqSigs": 1, "hex": "a91446f318cc8561fa4668a2f06adba6a445e0fe17b587", "addresses": ["38AASdzRSSfKUgjiVVKuwSaKz8vqGEQygm"], "asm": "OP_HASH160 46f318cc8561fa4668a2f06adba6a445e0fe17b5 OP_EQUAL", "type": "scripthash"}, "value": 0.18356024, "n": 0}, {"scriptPubKey": {"reqSigs": 1, "hex": "a914bb6f040b9eaedd41c2f08020ab12c8382803a6fe87", "addresses": ["3Jn5Gvr8Lnaq5PNGpN5XwYQUUgavBLMeQr"], "asm": "OP_HASH160 bb6f040b9eaedd41c2f08020ab12c8382803a6fe OP_EQUAL", "type": "scripthash"}, "value": 0.031715, "n": 1}], "hex": "0200000000010181a58c41ef8cc782d93866b514303c6ff8649f96d225a1577844b66c4d0649190100000017160014615647b4ca7681199dea547e35c777ab4b5f0140feffffff02381718010000000017a91446f318cc8561fa4668a2f06adba6a445e0fe17b587ac6430000000000017a914bb6f040b9eaedd41c2f08020ab12c8382803a6fe870247304402204c1fdb26ce470eb572e225a2fb4c1a0eb9858b57728c2d120063c7932d2bbd2802206022e0dbe19943201dc83b455fc425ccfdaffdc9321199e33b1d43e6ff531c1e012103f6785e1515ba46651318b49cc45902aceec1717fb8531b82cfa5e861da53ec7c12490800", "vin": [{"txinwitness": ["304402204c1fdb26ce470eb572e225a2fb4c1a0eb9858b57728c2d120063c7932d2bbd2802206022e0dbe19943201dc83b455fc425ccfdaffdc9321199e33b1d43e6ff531c1e01", "03f6785e1515ba46651318b49cc45902aceec1717fb8531b82cfa5e861da53ec7c"], "sequence": 4294967294, "scriptSig": {"hex": "160014615647b4ca7681199dea547e35c777ab4b5f0140", "asm": "0014615647b4ca7681199dea547e35c777ab4b5f0140"}, "vout": 1, "txid": "1949064d6cb6447857a125d2969f64f86f3c3014b56638d982c78cef418ca581"}], "txid": "98bfddf1ba58df72d8f25fbc0307798f5e910772d1fc82881167529c7e7d8e6f", "blocktime": 1537872475, "version": 2, "confirmations": 11486, "time": 1537872475, "locktime": 542994, "vsize": 166, "size": 247}