{"hash": "98bfdc4b727ce9277172b7df45902a5014cec82644174037631efbb4c07d5074", "blockhash": "00000000000000000017f5eb5941039fbcee6240d03bc1f2f8e35350df66a1d8", "vout": [{"scriptPubKey": {"reqSigs": 1, "hex": "76a9147c45fa97b3e48babf608ddcc27815e8dd934ffb888ac", "addresses": ["1CL6d1GVvVVm1hPszJ4tLYtHGK8sxxUyAn"], "asm": "OP_DUP OP_HASH160 7c45fa97b3e48babf608ddcc27815e8dd934ffb8 OP_EQUALVERIFY OP_CHECKSIG", "type": "pubkeyhash"}, "value": 0.00506501, "n": 0}, {"scriptPubKey": {"reqSigs": 1, "hex": "76a914723df0ac4cfbcf2bdb3e167984324e11256a1eaf88ac", "addresses": ["1BR4EYZymwDFoNGiMmueojwtKB7e3qkYAu"], "asm": "OP_DUP OP_HASH160 723df0ac4cfbcf2bdb3e167984324e11256a1eaf OP_EQUALVERIFY OP_CHECKSIG", "type": "pubkeyhash"}, "value": 0.01092926, "n": 1}], "hex": "01000000011208d57f8048a7b30bf07e6598ad1523f468b1e4e427ae6bb5f19fa93d78aa79000000006a4730440220796eaccf7ca25e8eaf72e0f0a24eb70dba79a7f60757494741fe0e5bbbb8baed0220345f30c6a967341854998c858cd8864e03aed2260c732075cfd0366caa685e83012103577bbd6b0c34f7c41fc3e92657d37ba693d12590fec428c90c2607cffe2282b3ffffffff0285ba0700000000001976a9147c45fa97b3e48babf608ddcc27815e8dd934ffb888ac3ead1000000000001976a914723df0ac4cfbcf2bdb3e167984324e11256a1eaf88ac00000000", "vin": [{"sequence": 4294967295, "scriptSig": {"hex": "4730440220796eaccf7ca25e8eaf72e0f0a24eb70dba79a7f60757494741fe0e5bbbb8baed0220345f30c6a967341854998c858cd8864e03aed2260c732075cfd0366caa685e83012103577bbd6b0c34f7c41fc3e92657d37ba693d12590fec428c90c2607cffe2282b3", "asm": "30440220796eaccf7ca25e8eaf72e0f0a24eb70dba79a7f60757494741fe0e5bbbb8baed0220345f30c6a967341854998c858cd8864e03aed2260c732075cfd0366caa685e83[ALL] 03577bbd6b0c34f7c41fc3e92657d37ba693d12590fec428c90c2607cffe2282b3"}, "vout": 0, "txid": "79aa783da99ff1b56bae27e4e4b168f42315ad98657ef00bb3a748807fd50812"}], "txid": "98bfdc4b727ce9277172b7df45902a5014cec82644174037631efbb4c07d5074", "blocktime": 1537874412, "version": 1, "confirmations": 11468, "time": 1537874412, "locktime": 0, "vsize": 225, "size": 225}