{"hash": "9dc791b49fdfee00fe7da86d33ed23b6eb45383b21a55520fd7df031678af0e0", "blockhash": "0000000000000000001cda96e906b7601b7a6fb1a3b62bca570a9e5d8f4b3de1", "vout": [{"scriptPubKey": {"reqSigs": 1, "hex": "a9147a817382674ad7a147334ce5860430a4189edc5187", "addresses": ["3CrmSNgocuxsDoiDxVsm4LCiXDLNaqpiRm"], "asm": "OP_HASH160 7a817382674ad7a147334ce5860430a4189edc51 OP_EQUAL", "type": "scripthash"}, "value": 0.16389476, "n": 0}, {"scriptPubKey": {"reqSigs": 1, "hex": "a914c3fb3b743ad025de926581871b6a61d8bf64336087", "addresses": ["3KZGesahGdTGMuHeaM8aEvZ1FxvcvCEHnE"], "asm": "OP_HASH160 c3fb3b743ad025de926581871b6a61d8bf643360 OP_EQUAL", "type": "scripthash"}, "value": 0.2, "n": 1}], "hex": "010000000001011dd5bf73dd003753b3082d98cac309098d62eadde03e772e770625aed5f7f4ab0800000023220020466cd2411e36ef121af32e8e8a4bb66d1ed08f4b30b0c611a3b2d1654002b784ffffffff026415fa000000000017a9147a817382674ad7a147334ce5860430a4189edc5187002d31010000000017a914c3fb3b743ad025de926581871b6a61d8bf643360870400483045022100a16f8cd17c79123da3fb9187637054155cb54a1d189608939669301168149eb002207149e19e07f2f91bf1c76bb8b3489f7dc2849fac643da3dd659d3aa0a29ca026014730440220373d5afe76766144946b53e2cb3c5c04618e2ce2babab56ece922fe69f92743702204334f9969e2ddbb5143a4b849fbb4f40ece73eb2e161acf765d6ac13b095393e016952210344ed35eae4d9a4c4fcb56eb37998c47e1a2a97d1c581e6b95e1961a29d42aea22102d61db0b210f5525c270a8bd88a9f0d3b5a7db3ad1d0bfaea40a42d019a6cc4b4210286bd9eca4452b74d6d8a6347f4e0e626db368fcca8dcc3bc24c5df896b66423753ae00000000", "vin": [{"txinwitness": ["", "3045022100a16f8cd17c79123da3fb9187637054155cb54a1d189608939669301168149eb002207149e19e07f2f91bf1c76bb8b3489f7dc2849fac643da3dd659d3aa0a29ca02601", "30440220373d5afe76766144946b53e2cb3c5c04618e2ce2babab56ece922fe69f92743702204334f9969e2ddbb5143a4b849fbb4f40ece73eb2e161acf765d6ac13b095393e01", "52210344ed35eae4d9a4c4fcb56eb37998c47e1a2a97d1c581e6b95e1961a29d42aea22102d61db0b210f5525c270a8bd88a9f0d3b5a7db3ad1d0bfaea40a42d019a6cc4b4210286bd9eca4452b74d6d8a6347f4e0e626db368fcca8dcc3bc24c5df896b66423753ae"], "sequence": 4294967295, "scriptSig": {"hex": "220020466cd2411e36ef121af32e8e8a4bb66d1ed08f4b30b0c611a3b2d1654002b784", "asm": "0020466cd2411e36ef121af32e8e8a4bb66d1ed08f4b30b0c611a3b2d1654002b784"}, "vout": 8, "txid": "abf4f7d5ae2506772e773ee0ddea628d0909c3ca982d08b3533700dd73bfd51d"}], "txid": "98c1795be03756117eeb5105dbc77437c1a6eb565f3b486b399f948c18c6cd3b", "blocktime": 1537873282, "version": 1, "confirmations": 11485, "time": 1537873282, "locktime": 0, "vsize": 214, "size": 405}