{"hash": "98c15ac6161c453c29ca21cfae54a80ef4a07bc4395c938f33fb5b92648268b2", "blockhash": "0000000000000000001cda96e906b7601b7a6fb1a3b62bca570a9e5d8f4b3de1", "vout": [{"scriptPubKey": {"reqSigs": 1, "hex": "76a914995524e9a5177ba250f4325e4232ff0d1c97fa5388ac", "addresses": ["1EykPGnLbpW8awuTT7NHR7d5VfH3kFei43"], "asm": "OP_DUP OP_HASH160 995524e9a5177ba250f4325e4232ff0d1c97fa53 OP_EQUALVERIFY OP_CHECKSIG", "type": "pubkeyhash"}, "value": 0.07329303, "n": 0}, {"scriptPubKey": {"reqSigs": 1, "hex": "76a914b762ad1428e38a749f4193bb8c17a2010d17a1e988ac", "addresses": ["1HiesEukCMQv4mqS1Asxw7rXbhfEwbSC5L"], "asm": "OP_DUP OP_HASH160 b762ad1428e38a749f4193bb8c17a2010d17a1e9 OP_EQUALVERIFY OP_CHECKSIG", "type": "pubkeyhash"}, "value": 0.00132765, "n": 1}], "hex": "01000000012d0946304cf941cb37540eceda882879825144fb0c917b0289f82b8315433f7802000000d90047304402207d3f6828204548c89a2b8793b0b10fe235f5d7e7cdbe8b0acbed83898aea3a780220516fb4b64c513abca11cf89d1b8f13092e89434f0b94f6bdf2b5cbf3e99cd2be01473044022071d78fa3b661710649776ca77ada55fa956bf73dabe12854df8829cc74fd069b022042c729f39492312d4666c8889c39ce5000ec91ab407757100ad00d3a523f2a7a0147522102907a54bed8ad74b3f35638c60114ca240a308cb986f3f2f306178869a8880b612103ba2be64a142862cb4454cb0538019e230cab73d34f8694246d3f9cacec5efe8b52aeffffffff0217d66f00000000001976a914995524e9a5177ba250f4325e4232ff0d1c97fa5388ac9d060200000000001976a914b762ad1428e38a749f4193bb8c17a2010d17a1e988ac00000000", "vin": [{"sequence": 4294967295, "scriptSig": {"hex": "0047304402207d3f6828204548c89a2b8793b0b10fe235f5d7e7cdbe8b0acbed83898aea3a780220516fb4b64c513abca11cf89d1b8f13092e89434f0b94f6bdf2b5cbf3e99cd2be01473044022071d78fa3b661710649776ca77ada55fa956bf73dabe12854df8829cc74fd069b022042c729f39492312d4666c8889c39ce5000ec91ab407757100ad00d3a523f2a7a0147522102907a54bed8ad74b3f35638c60114ca240a308cb986f3f2f306178869a8880b612103ba2be64a142862cb4454cb0538019e230cab73d34f8694246d3f9cacec5efe8b52ae", "asm": "0 304402207d3f6828204548c89a2b8793b0b10fe235f5d7e7cdbe8b0acbed83898aea3a780220516fb4b64c513abca11cf89d1b8f13092e89434f0b94f6bdf2b5cbf3e99cd2be[ALL] 3044022071d78fa3b661710649776ca77ada55fa956bf73dabe12854df8829cc74fd069b022042c729f39492312d4666c8889c39ce5000ec91ab407757100ad00d3a523f2a7a[ALL] 522102907a54bed8ad74b3f35638c60114ca240a308cb986f3f2f306178869a8880b612103ba2be64a142862cb4454cb0538019e230cab73d34f8694246d3f9cacec5efe8b52ae"}, "vout": 2, "txid": "783f4315832bf889027b910cfb445182792888dace0e5437cb41f94c3046092d"}], "txid": "98c15ac6161c453c29ca21cfae54a80ef4a07bc4395c938f33fb5b92648268b2", "blocktime": 1537873282, "version": 1, "confirmations": 11484, "time": 1537873282, "locktime": 0, "vsize": 336, "size": 336}