{"hash": "98c4dd29c5673d39f6871de581f01fdcea673fbf7d06771ac773e18f1eff475f", "blockhash": "0000000000000000000baef3f32e3676a92c3b2e5da21b426e4f302fc371ce76", "vout": [{"scriptPubKey": {"reqSigs": 1, "hex": "a9145654e0d32a88be6550a49440588d048cc288d88f87", "addresses": ["39ZViUzXHojUanchsawrXGNTq8gqA4KC1F"], "asm": "OP_HASH160 5654e0d32a88be6550a49440588d048cc288d88f OP_EQUAL", "type": "scripthash"}, "value": 0.00765147, "n": 0}, {"scriptPubKey": {"reqSigs": 1, "hex": "76a91433101b3ad6a982686241768ba54377b0b055b47988ac", "addresses": ["15ezkseqwEqgDcCT6b1WVuAh5V8F9GZc8M"], "asm": "OP_DUP OP_HASH160 33101b3ad6a982686241768ba54377b0b055b479 OP_EQUALVERIFY OP_CHECKSIG", "type": "pubkeyhash"}, "value": 0.03025674, "n": 1}], "hex": "010000000148445b2d8e011866965dcf7c5394ea2ba5f6a395998b1e9e4bf5e96deb9cbea9010000006b483045022100800a151dade375ef13e9899f123198d6c7ba8b040c8aaf408b5c4f73b3d62591022004261593d6d3b71154c61a75e5be3c325623663988c05da2fe35645fe7be9abc0121021b1eac6d31421f5df4fdbb104b326983e9fd1f14b5aa69d5c48e31ba3bd61a6fffffffff02dbac0b000000000017a9145654e0d32a88be6550a49440588d048cc288d88f870a2b2e00000000001976a91433101b3ad6a982686241768ba54377b0b055b47988ac00000000", "vin": [{"sequence": 4294967295, "scriptSig": {"hex": "483045022100800a151dade375ef13e9899f123198d6c7ba8b040c8aaf408b5c4f73b3d62591022004261593d6d3b71154c61a75e5be3c325623663988c05da2fe35645fe7be9abc0121021b1eac6d31421f5df4fdbb104b326983e9fd1f14b5aa69d5c48e31ba3bd61a6f", "asm": "3045022100800a151dade375ef13e9899f123198d6c7ba8b040c8aaf408b5c4f73b3d62591022004261593d6d3b71154c61a75e5be3c325623663988c05da2fe35645fe7be9abc[ALL] 021b1eac6d31421f5df4fdbb104b326983e9fd1f14b5aa69d5c48e31ba3bd61a6f"}, "vout": 1, "txid": "a9be9ceb6de9f54b9e1e8b9995a3f6a52bea94537ccf5d966618018e2d5b4448"}], "txid": "98c4dd29c5673d39f6871de581f01fdcea673fbf7d06771ac773e18f1eff475f", "blocktime": 1537876114, "version": 1, "confirmations": 11460, "time": 1537876114, "locktime": 0, "vsize": 224, "size": 224}