{"hash": "98cd63688696a7d61f0264b416fe064e96e09f5bfb793e9961eca41ca9ce18bf", "blockhash": "0000000000000000000e13cef7c366c0283d82e591d1acd082e914b08063cdf1", "vout": [{"scriptPubKey": {"reqSigs": 1, "hex": "76a9141c9322ad9379fc2d4b59cc6a5d9bfa66bd25ba1188ac", "addresses": ["13c6BXJ3yWPj3M3PFMyGPL2yBZES53mE1A"], "asm": "OP_DUP OP_HASH160 1c9322ad9379fc2d4b59cc6a5d9bfa66bd25ba11 OP_EQUALVERIFY OP_CHECKSIG", "type": "pubkeyhash"}, "value": 0.00736, "n": 0}, {"scriptPubKey": {"reqSigs": 1, "hex": "76a91491882947f863967d5650b3a9b9c280e35842403788ac", "addresses": ["1EGW6Tz1xvTr8isSq5sWkacpb12tZeU4ev"], "asm": "OP_DUP OP_HASH160 91882947f863967d5650b3a9b9c280e358424037 OP_EQUALVERIFY OP_CHECKSIG", "type": "pubkeyhash"}, "value": 0.0790489, "n": 1}], "hex": "0100000001fded2c7c37547b4f0f2dd10416a1ebe494954d3ae11f9a973a1849330f764bd4010000006b483045022100941ad2409cd924207c4c5db31806996ed655d7bfb876ce8d03fab2c5f3713d10022028bd74e9b6bc9d9cedafe6b8eddfd35f5d34edfa9108e5db663a0af6f8cee41a012103ece5ecf7340d364fdf53224275eb435df8de25af5ffa7804d792096180b0aa3effffffff02003b0b00000000001976a9141c9322ad9379fc2d4b59cc6a5d9bfa66bd25ba1188ac7a9e7800000000001976a91491882947f863967d5650b3a9b9c280e35842403788ac00000000", "vin": [{"sequence": 4294967295, "scriptSig": {"hex": "483045022100941ad2409cd924207c4c5db31806996ed655d7bfb876ce8d03fab2c5f3713d10022028bd74e9b6bc9d9cedafe6b8eddfd35f5d34edfa9108e5db663a0af6f8cee41a012103ece5ecf7340d364fdf53224275eb435df8de25af5ffa7804d792096180b0aa3e", "asm": "3045022100941ad2409cd924207c4c5db31806996ed655d7bfb876ce8d03fab2c5f3713d10022028bd74e9b6bc9d9cedafe6b8eddfd35f5d34edfa9108e5db663a0af6f8cee41a[ALL] 03ece5ecf7340d364fdf53224275eb435df8de25af5ffa7804d792096180b0aa3e"}, "vout": 1, "txid": "d44b760f3349183a979a1fe13a4d9594e4eba11604d12d0f4f7b54377c2cedfd"}], "txid": "98cd63688696a7d61f0264b416fe064e96e09f5bfb793e9961eca41ca9ce18bf", "blocktime": 1537871767, "version": 1, "confirmations": 11493, "time": 1537871767, "locktime": 0, "vsize": 226, "size": 226}