{"hash": "98d4a93de09278840876ab01e77d40ef477d8830b61a3e0ba974494504573989", "blockhash": "00000000000000000004ffacab907a6b429b9a5745fa0b75af4234bf69dd7176", "vout": [{"scriptPubKey": {"reqSigs": 1, "hex": "a914cfe2905abb0300510ebfb6ade6364c3fd1b915bf87", "addresses": ["3LeDDBpPGaqBRQReRgNWhcUdxPNVWadoFc"], "asm": "OP_HASH160 cfe2905abb0300510ebfb6ade6364c3fd1b915bf OP_EQUAL", "type": "scripthash"}, "value": 0.73997102, "n": 0}, {"scriptPubKey": {"reqSigs": 1, "hex": "76a91452dbe32e755172dc6510489b79a897f8292aef6388ac", "addresses": ["18Z7pn2qodyFc5sCR1AGxD7w2SL3YEg3Qy"], "asm": "OP_DUP OP_HASH160 52dbe32e755172dc6510489b79a897f8292aef63 OP_EQUALVERIFY OP_CHECKSIG", "type": "pubkeyhash"}, "value": 0.00496897, "n": 1}, {"scriptPubKey": {"reqSigs": 1, "hex": "a914c1dce8eae787b983b42cd4f0fe78ec51e908e6c587", "addresses": ["3KN4yejaHYT7DZUc8ctPgN4JwmqnsLR8ad"], "asm": "OP_HASH160 c1dce8eae787b983b42cd4f0fe78ec51e908e6c5 OP_EQUAL", "type": "scripthash"}, "value": 0.0083, "n": 2}, {"scriptPubKey": {"reqSigs": 1, "hex": "76a914e6651719ed70bbe37a688162afecc143083f4b1888ac", "addresses": ["1N1DWzehUSMSRzeW3rwPh5c8EstS3yknf2"], "asm": "OP_DUP OP_HASH160 e6651719ed70bbe37a688162afecc143083f4b18 OP_EQUALVERIFY OP_CHECKSIG", "type": "pubkeyhash"}, "value": 0.11002334, "n": 3}, {"scriptPubKey": {"reqSigs": 1, "hex": "a9141605978566fc7c6e0aaab17fa6ba9eb45fd8ba7387", "addresses": ["33hTVJ3KMUnNsTwpnUiU8Tf7njRAKoGHMh"], "asm": "OP_HASH160 1605978566fc7c6e0aaab17fa6ba9eb45fd8ba73 OP_EQUAL", "type": "scripthash"}, "value": 0.03084943, "n": 4}, {"scriptPubKey": {"reqSigs": 1, "hex": "76a914f7114a6d3acd757e12111a7e2464bbf823a67a3a88ac", "addresses": ["1PXNcmFsTGGJevCvvsKWiVfRZ3RZB4Zhdc"], "asm": "OP_DUP OP_HASH160 f7114a6d3acd757e12111a7e2464bbf823a67a3a OP_EQUALVERIFY OP_CHECKSIG", "type": "pubkeyhash"}, "value": 1.25353572, "n": 5}, {"scriptPubKey": {"reqSigs": 1, "hex": "a914f598265ad079f666ed76ac1b2e017ce51e81554087", "addresses": ["3Q5bk6bRPEscP5JTrDuo9r25h8cnMAN5VS"], "asm": "OP_HASH160 f598265ad079f666ed76ac1b2e017ce51e815540 OP_EQUAL", "type": "scripthash"}, "value": 0.0345, "n": 6}, {"scriptPubKey": {"reqSigs": 1, "hex": "76a91498b7c05713c43ae20da0747bfb86a12ff82405ad88ac", "addresses": ["1EvVqRca1dAmBtNPGLSBZGScvxYSy6sqKU"], "asm": "OP_DUP OP_HASH160 98b7c05713c43ae20da0747bfb86a12ff82405ad OP_EQUALVERIFY OP_CHECKSIG", "type": "pubkeyhash"}, "value": 0.0015, "n": 7}, {"scriptPubKey": {"reqSigs": 1, "hex": "76a9146ebfe754922d071187a21cc5c52eccadbb2f00db88ac", "addresses": ["1B6bDoNshkq3z5i649BcbJLnBhmEDuPtQf"], "asm": "OP_DUP OP_HASH160 6ebfe754922d071187a21cc5c52eccadbb2f00db OP_EQUALVERIFY OP_CHECKSIG", "type": "pubkeyhash"}, "value": 0.08, "n": 8}, {"scriptPubKey": {"reqSigs": 1, "hex": "a9145d8c9e25cd48acf2af881e5da6d80b06bdbde0d487", "addresses": ["3ADfDgFUGMqptBwG75fghEFHaBHVW7ieYc"], "asm": "OP_HASH160 5d8c9e25cd48acf2af881e5da6d80b06bdbde0d4 OP_EQUAL", "type": "scripthash"}, "value": 0.092461, "n": 9}, {"scriptPubKey": {"reqSigs": 1, "hex": "76a9144c489aa4ad2b5333f1a9ff71b2be2ef7d2f19e4d88ac", "addresses": ["17xMLCXRcmgLxKiXcwpdXT9qoNCsW67qAu"], "asm": "OP_DUP OP_HASH160 4c489aa4ad2b5333f1a9ff71b2be2ef7d2f19e4d OP_EQUALVERIFY OP_CHECKSIG", "type": "pubkeyhash"}, "value": 0.01007549, "n": 10}, {"scriptPubKey": {"reqSigs": 1, "hex": "76a914e71debe251bb26c7e757d9ae265da6e5d00f31b988ac", "addresses": ["1N52wHoVR79PMDishab2XmRHsbekCdGquK"], "asm": "OP_DUP OP_HASH160 e71debe251bb26c7e757d9ae265da6e5d00f31b9 OP_EQUALVERIFY OP_CHECKSIG", "type": "pubkeyhash"}, "value": 0.13350397, "n": 11}], "hex": "0100000001251f4ca8f58f98dc295441f8379fb551c6ae8eb7eee2a5bb8c43c49c4f75755e000000006b4830450221008e99d15bed503e171f579a179f38ab79428925e5ac689dc1e1cb5114569f1fad02204f7a764e04af13f55e5667ecac6fb7b1d68a11fd0c5bbfc2fa3e1a7a396aa8c30121022c75b2c13fe71396f454e878beabd2bdf0eca51a04315f9f9a98bbcdd2ee2838ffffffff0c2e1b69040000000017a914cfe2905abb0300510ebfb6ade6364c3fd1b915bf8701950700000000001976a91452dbe32e755172dc6510489b79a897f8292aef6388ac30aa0c000000000017a914c1dce8eae787b983b42cd4f0fe78ec51e908e6c587dee1a700000000001976a914e6651719ed70bbe37a688162afecc143083f4b1888ac8f122f000000000017a9141605978566fc7c6e0aaab17fa6ba9eb45fd8ba738764be7807000000001976a914f7114a6d3acd757e12111a7e2464bbf823a67a3a88ac90a434000000000017a914f598265ad079f666ed76ac1b2e017ce51e81554087f0490200000000001976a91498b7c05713c43ae20da0747bfb86a12ff82405ad88ac00127a00000000001976a9146ebfe754922d071187a21cc5c52eccadbb2f00db88ac94158d000000000017a9145d8c9e25cd48acf2af881e5da6d80b06bdbde0d487bd5f0f00000000001976a9144c489aa4ad2b5333f1a9ff71b2be2ef7d2f19e4d88acfdb5cb00000000001976a914e71debe251bb26c7e757d9ae265da6e5d00f31b988ac00000000", "vin": [{"sequence": 4294967295, "scriptSig": {"hex": "4830450221008e99d15bed503e171f579a179f38ab79428925e5ac689dc1e1cb5114569f1fad02204f7a764e04af13f55e5667ecac6fb7b1d68a11fd0c5bbfc2fa3e1a7a396aa8c30121022c75b2c13fe71396f454e878beabd2bdf0eca51a04315f9f9a98bbcdd2ee2838", "asm": "30450221008e99d15bed503e171f579a179f38ab79428925e5ac689dc1e1cb5114569f1fad02204f7a764e04af13f55e5667ecac6fb7b1d68a11fd0c5bbfc2fa3e1a7a396aa8c3[ALL] 022c75b2c13fe71396f454e878beabd2bdf0eca51a04315f9f9a98bbcdd2ee2838"}, "vout": 0, "txid": "5e75754f9cc4438cbba5e2eeb78eaec651b59f37f8415429dc988ff5a84c1f25"}], "txid": "98d4a93de09278840876ab01e77d40ef477d8830b61a3e0ba974494504573989", "blocktime": 1537875543, "version": 1, "confirmations": 11464, "time": 1537875543, "locktime": 0, "vsize": 556, "size": 556}