{"hash": "98dc1d98823470419c008e49bbd76de4aca1965ecf4c97671984c830ac2f09a5", "blockhash": "0000000000000000001cda96e906b7601b7a6fb1a3b62bca570a9e5d8f4b3de1", "vout": [{"scriptPubKey": {"reqSigs": 1, "hex": "a914c0a79ef31bb010c6723a1d77864e9209840557c387", "addresses": ["3KFgTsxD8M3B2whfPzS2VqdoKEnRs3NH53"], "asm": "OP_HASH160 c0a79ef31bb010c6723a1d77864e9209840557c3 OP_EQUAL", "type": "scripthash"}, "value": 0.10638882, "n": 0}, {"scriptPubKey": {"reqSigs": 1, "hex": "76a9147e8568074198e07e0ed5da3c29f1d33904ad572c88ac", "addresses": ["1CXyxQcQVnGKKEQ7HxMG32SjBn5ZBMtjrH"], "asm": "OP_DUP OP_HASH160 7e8568074198e07e0ed5da3c29f1d33904ad572c OP_EQUALVERIFY OP_CHECKSIG", "type": "pubkeyhash"}, "value": 1.39488136, "n": 1}], "hex": "01000000013a6163edf37d0e513f63eec9d223e86b7fc4f24b274571cb2a90ebb313629662010000006a473044022002e5d18b108f105872e81108d62dc86cf7bcb174f774e74dc0a2a4afc9d60952022008d1d1b2e18451373ac014d04bc78ec489c5c8a688b9f2015075c65a8ffaf0da01210355f385d2d3b8959820ac88748c6a65a0fea4236417120a34d9a38d8d24767e60ffffffff022256a2000000000017a914c0a79ef31bb010c6723a1d77864e9209840557c387886b5008000000001976a9147e8568074198e07e0ed5da3c29f1d33904ad572c88ac00000000", "vin": [{"sequence": 4294967295, "scriptSig": {"hex": "473044022002e5d18b108f105872e81108d62dc86cf7bcb174f774e74dc0a2a4afc9d60952022008d1d1b2e18451373ac014d04bc78ec489c5c8a688b9f2015075c65a8ffaf0da01210355f385d2d3b8959820ac88748c6a65a0fea4236417120a34d9a38d8d24767e60", "asm": "3044022002e5d18b108f105872e81108d62dc86cf7bcb174f774e74dc0a2a4afc9d60952022008d1d1b2e18451373ac014d04bc78ec489c5c8a688b9f2015075c65a8ffaf0da[ALL] 0355f385d2d3b8959820ac88748c6a65a0fea4236417120a34d9a38d8d24767e60"}, "vout": 1, "txid": "62966213b3eb902acb7145274bf2c47f6be823d2c9ee633f510e7df3ed63613a"}], "txid": "98dc1d98823470419c008e49bbd76de4aca1965ecf4c97671984c830ac2f09a5", "blocktime": 1537873282, "version": 1, "confirmations": 11480, "time": 1537873282, "locktime": 0, "vsize": 223, "size": 223}