{"hash": "98dcd29df477f141b9961f192abdca4c7e622a3fc386b6eab715e11d9808a4da", "blockhash": "0000000000000000000baef3f32e3676a92c3b2e5da21b426e4f302fc371ce76", "vout": [{"scriptPubKey": {"reqSigs": 1, "hex": "76a9142b01e733059aa1c233b65447a533e6bb4cb0525088ac", "addresses": ["14vQLUqbRRQg5LGsNgLtzYC2RYeGG6n9RD"], "asm": "OP_DUP OP_HASH160 2b01e733059aa1c233b65447a533e6bb4cb05250 OP_EQUALVERIFY OP_CHECKSIG", "type": "pubkeyhash"}, "value": 0.01372384, "n": 0}, {"scriptPubKey": {"type": "nulldata", "hex": "6a4c5000007824000162b613240aa35eef2c67b99f019d6ddc0f1b8ff117702940d64fa54d8eb2217dc4a4bc545d7f596347ecf581bbe05baa1e010613f1c9edb6d2e7bc9a9526289ac0f6612cd74e33776ee4", "asm": "OP_RETURN 00007824000162b613240aa35eef2c67b99f019d6ddc0f1b8ff117702940d64fa54d8eb2217dc4a4bc545d7f596347ecf581bbe05baa1e010613f1c9edb6d2e7bc9a9526289ac0f6612cd74e33776ee4"}, "value": 0.0, "n": 1}], "hex": "01000000014edad02f4f2653559f04d69bd5e53311dd912ccfb4cd1e738cae563a60e9bb28000000006a47304402205b10dd2c9f09c3c7afbf09d138b3687569a2759c259bf74f879a0dde160ff18c022056e3d7efa91d7d56c429c8e6e22d3cec7b427726fa9b1f454d6ba827bac16a4901210223b526672be1c4633500f47817c3948aaab9f2997430a5c4b32e3d0d5fcc5280ffffffff02e0f01400000000001976a9142b01e733059aa1c233b65447a533e6bb4cb0525088ac0000000000000000536a4c5000007824000162b613240aa35eef2c67b99f019d6ddc0f1b8ff117702940d64fa54d8eb2217dc4a4bc545d7f596347ecf581bbe05baa1e010613f1c9edb6d2e7bc9a9526289ac0f6612cd74e33776ee400000000", "vin": [{"sequence": 4294967295, "scriptSig": {"hex": "47304402205b10dd2c9f09c3c7afbf09d138b3687569a2759c259bf74f879a0dde160ff18c022056e3d7efa91d7d56c429c8e6e22d3cec7b427726fa9b1f454d6ba827bac16a4901210223b526672be1c4633500f47817c3948aaab9f2997430a5c4b32e3d0d5fcc5280", "asm": "304402205b10dd2c9f09c3c7afbf09d138b3687569a2759c259bf74f879a0dde160ff18c022056e3d7efa91d7d56c429c8e6e22d3cec7b427726fa9b1f454d6ba827bac16a49[ALL] 0223b526672be1c4633500f47817c3948aaab9f2997430a5c4b32e3d0d5fcc5280"}, "vout": 0, "txid": "28bbe9603a56ae8c731ecdb4cf2c91dd1133e5d59bd6049f5553264f2fd0da4e"}], "txid": "98dcd29df477f141b9961f192abdca4c7e622a3fc386b6eab715e11d9808a4da", "blocktime": 1537876114, "version": 1, "confirmations": 11460, "time": 1537876114, "locktime": 0, "vsize": 283, "size": 283}