{"hash": "98e1beefe9259a3cf251b6c1e164837218409cbc513005fb0eecb61476dbde8a", "blockhash": "0000000000000000001e0dab787dd257d1dbfcb92a98c2207d5e1078be1f4165", "vout": [{"scriptPubKey": {"reqSigs": 1, "hex": "a914f51dcb33f13a84a1443b023c7fa6e989502aa17187", "addresses": ["3Q35AebcB6ZegEMLpE15Viq2aeoK85sDRM"], "asm": "OP_HASH160 f51dcb33f13a84a1443b023c7fa6e989502aa171 OP_EQUAL", "type": "scripthash"}, "value": 0.028133, "n": 0}, {"scriptPubKey": {"reqSigs": 1, "hex": "76a9143fd6cf423d542582352b4f64a41fe6b322c67d0988ac", "addresses": ["16pYuKTjnWJVgmxUoyj5UhBUeegyQ2a7rp"], "asm": "OP_DUP OP_HASH160 3fd6cf423d542582352b4f64a41fe6b322c67d09 OP_EQUALVERIFY OP_CHECKSIG", "type": "pubkeyhash"}, "value": 2.04556342, "n": 1}], "hex": "01000000010b65344d6a34616ccd0e09a50a3ab3fee927053c5c73a2c61fa87027dface371010000006a47304402204df8416e0abe26f4092d7114bf3006204fb83f2ffa08882cde6744a6ed1b5b1502205987c67740bbc7e7111fa4daf078051dcb048cea2780156c9324c0c5d1c5c9ad01210263df91969e091e8ecc113d669d12c00e12d3c42a8fc9a085eabf7d2ecaad1004ffffffff0274ed2a000000000017a914f51dcb33f13a84a1443b023c7fa6e989502aa171873648310c000000001976a9143fd6cf423d542582352b4f64a41fe6b322c67d0988ac00000000", "vin": [{"sequence": 4294967295, "scriptSig": {"hex": "47304402204df8416e0abe26f4092d7114bf3006204fb83f2ffa08882cde6744a6ed1b5b1502205987c67740bbc7e7111fa4daf078051dcb048cea2780156c9324c0c5d1c5c9ad01210263df91969e091e8ecc113d669d12c00e12d3c42a8fc9a085eabf7d2ecaad1004", "asm": "304402204df8416e0abe26f4092d7114bf3006204fb83f2ffa08882cde6744a6ed1b5b1502205987c67740bbc7e7111fa4daf078051dcb048cea2780156c9324c0c5d1c5c9ad[ALL] 0263df91969e091e8ecc113d669d12c00e12d3c42a8fc9a085eabf7d2ecaad1004"}, "vout": 1, "txid": "71e3acdf2770a81fc6a2735c3c0527e9feb33a0aa5090ecd6c61346a4d34650b"}], "txid": "98e1beefe9259a3cf251b6c1e164837218409cbc513005fb0eecb61476dbde8a", "blocktime": 1537872475, "version": 1, "confirmations": 11487, "time": 1537872475, "locktime": 0, "vsize": 223, "size": 223}