{"hash": "98e349742e2d15d0e6189d4d454355cff1248597d2b5fd9b11cbc5a261dfdae1", "blockhash": "0000000000000000000baef3f32e3676a92c3b2e5da21b426e4f302fc371ce76", "vout": [{"scriptPubKey": {"reqSigs": 1, "hex": "76a9146b1e828c5c00d2691b9fdd82ec8e17643915996d88ac", "addresses": ["1AmPrPtZWkuicKGG2DNEQgpdyXR3T1t6o6"], "asm": "OP_DUP OP_HASH160 6b1e828c5c00d2691b9fdd82ec8e17643915996d OP_EQUALVERIFY OP_CHECKSIG", "type": "pubkeyhash"}, "value": 3e-05, "n": 0}, {"scriptPubKey": {"reqSigs": 1, "hex": "76a914927dcc760b615b6e558a0d22048ea92c1e4ce17288ac", "addresses": ["1EMaMer1HtLb6R7xFkBqNDMzSELJjpecdt"], "asm": "OP_DUP OP_HASH160 927dcc760b615b6e558a0d22048ea92c1e4ce172 OP_EQUALVERIFY OP_CHECKSIG", "type": "pubkeyhash"}, "value": 0.0399587, "n": 1}], "hex": "01000000012772a3d1b6357803501cd2e25e8373e64a751152d8cfab798cba744dccddb3b6000000006b483045022100c79b64fec3f0cab7a5a15c7d660e8b96331e46e30bd4096d503410e27307280702205e53038521f147b5d6c406438e544cd4ee0a250c78234067d4ec1a30639b42b201210290873e32966ea90e85634f1c28cebd40796f28547a5393b39fa1ef4dc9cf735efdffffff02b80b0000000000001976a9146b1e828c5c00d2691b9fdd82ec8e17643915996d88acdef83c00000000001976a914927dcc760b615b6e558a0d22048ea92c1e4ce17288ac16490800", "vin": [{"sequence": 4294967293, "scriptSig": {"hex": "483045022100c79b64fec3f0cab7a5a15c7d660e8b96331e46e30bd4096d503410e27307280702205e53038521f147b5d6c406438e544cd4ee0a250c78234067d4ec1a30639b42b201210290873e32966ea90e85634f1c28cebd40796f28547a5393b39fa1ef4dc9cf735e", "asm": "3045022100c79b64fec3f0cab7a5a15c7d660e8b96331e46e30bd4096d503410e27307280702205e53038521f147b5d6c406438e544cd4ee0a250c78234067d4ec1a30639b42b2[ALL] 0290873e32966ea90e85634f1c28cebd40796f28547a5393b39fa1ef4dc9cf735e"}, "vout": 0, "txid": "b6b3ddcc4d74ba8c79abcfd85211754ae673835ee2d21c50037835b6d1a37227"}], "txid": "98e349742e2d15d0e6189d4d454355cff1248597d2b5fd9b11cbc5a261dfdae1", "blocktime": 1537876114, "version": 1, "confirmations": 11460, "time": 1537876114, "locktime": 542998, "vsize": 226, "size": 226}