{"hash": "04c022a65a160bbbaa8216134367987a07cd249e1ce7abbe9c1b8b5117b592ec", "blockhash": "0000000000000000001cda96e906b7601b7a6fb1a3b62bca570a9e5d8f4b3de1", "vout": [{"scriptPubKey": {"reqSigs": 1, "hex": "76a914971b2da12f3d172ade42a6313e1d375828523afc88ac", "addresses": ["1EmybLw68T3Bd4mzWJoWu7ozkAFMjSid4f"], "asm": "OP_DUP OP_HASH160 971b2da12f3d172ade42a6313e1d375828523afc OP_EQUALVERIFY OP_CHECKSIG", "type": "pubkeyhash"}, "value": 0.01564892, "n": 0}, {"scriptPubKey": {"reqSigs": 1, "hex": "a914356d2c9d7648b23cccc5db1e2f19d7f8a3f34fe587", "addresses": ["36ZWXGm9zJwwNBGbdk5AwC3on49ZHsRiYx"], "asm": "OP_HASH160 356d2c9d7648b23cccc5db1e2f19d7f8a3f34fe5 OP_EQUAL", "type": "scripthash"}, "value": 0.13688742, "n": 1}], "hex": "01000000000101e6902e232208bf642faf1fe32bd99e0efdb537261cf23a96cb1b5f8694a4a9540100000023220020f02106df819c0c079c5a1301424987bb2223d70b61998b41dc48ac495ee36ff0ffffffff02dce01700000000001976a914971b2da12f3d172ade42a6313e1d375828523afc88aca6dfd0000000000017a914356d2c9d7648b23cccc5db1e2f19d7f8a3f34fe587040047304402207606d7ec535eb838f6d56388fd411aa9bd12ebf39d2d56b5e8c8d74daa45316402201a12ebde628845fd884d9945027b8ba5b16b8766f7eca40e27b09640f592c61901473044022060605f3b09ebaf7135674474aca13fd36bd86c68dfc4b0d5f8ba28dab0d70db902204b40f65333b75001efe44b0775a2a00c5c81d372bbd6c54fc0634ed9bc63edfc0147522103276a6941cb6b56ad46991c0386ea82997b17623fa39c5ae259bfb10244544a3d21038f2c7ecee34c843be9d886e50ce79e5dc40a1694c0417d60b35340f292ff73fc52ae00000000", "vin": [{"txinwitness": ["", "304402207606d7ec535eb838f6d56388fd411aa9bd12ebf39d2d56b5e8c8d74daa45316402201a12ebde628845fd884d9945027b8ba5b16b8766f7eca40e27b09640f592c61901", "3044022060605f3b09ebaf7135674474aca13fd36bd86c68dfc4b0d5f8ba28dab0d70db902204b40f65333b75001efe44b0775a2a00c5c81d372bbd6c54fc0634ed9bc63edfc01", "522103276a6941cb6b56ad46991c0386ea82997b17623fa39c5ae259bfb10244544a3d21038f2c7ecee34c843be9d886e50ce79e5dc40a1694c0417d60b35340f292ff73fc52ae"], "sequence": 4294967295, "scriptSig": {"hex": "220020f02106df819c0c079c5a1301424987bb2223d70b61998b41dc48ac495ee36ff0", "asm": "0020f02106df819c0c079c5a1301424987bb2223d70b61998b41dc48ac495ee36ff0"}, "vout": 1, "txid": "54a9a494865f1bcb963af21c2637b5fd0e9ed92be31faf2f64bf0822232e90e6"}], "txid": "98e5dc8c826c641d2a901716d1226e0df135c4db8c8d946ecf4b86f9ffb0eb18", "blocktime": 1537873282, "version": 1, "confirmations": 11484, "time": 1537873282, "locktime": 0, "vsize": 207, "size": 372}