{"hash": "98ef6ca4177c79c3ab981efc982b6bb19651a30cf92689221611bc770f2866bf", "blockhash": "00000000000000000018f53835495a110e01622372bf6ae95dc86f2b0ab887b0", "vout": [{"scriptPubKey": {"reqSigs": 1, "hex": "76a9147e901122960be75cee1aa34f41bc31b68264066588ac", "addresses": ["1CYCj7mZAcxEhzp3boD64YAaDicJSVKGRm"], "asm": "OP_DUP OP_HASH160 7e901122960be75cee1aa34f41bc31b682640665 OP_EQUALVERIFY OP_CHECKSIG", "type": "pubkeyhash"}, "value": 0.01112291, "n": 0}, {"scriptPubKey": {"reqSigs": 1, "hex": "76a9149c43e8d709815ce33c2353aa3b7d78e80ea5e1cb88ac", "addresses": ["1FFFmN2RpR8GBE71GCfodMHGAi5abymxXs"], "asm": "OP_DUP OP_HASH160 9c43e8d709815ce33c2353aa3b7d78e80ea5e1cb OP_EQUALVERIFY OP_CHECKSIG", "type": "pubkeyhash"}, "value": 0.00158775, "n": 1}], "hex": "020000000268a68342c6afdd0f935db16206d6ff811a88e7aa0f32df17e07ad28d02f5b560000000006a47304402206bd0b1f4e3237e3866c8bf779f781eb312c5797434a4e784b0b9ec77c817e86902200be8099562b5f6b96a7760ce8771e88561ea9dbccac00b7cbf9e152ed51260eb012102c9b980a6405f3f10409b577096611e38e17952c0e20ed16c077e9914b6a05891feffffff8b2eceede3d6848056eee903563f3e39bcd1fc5923625aca20910e8cfa5c1a75000000006a47304402206c508c90e7c0efe9464c5a467dae32e2644701febcb1078b43b1ea9484f6e02402207337bf89319a9a3c2a0836343784c17d68ebcb213c23fe75e448ed6cb69f6387012102d7022aaad812240cd0c8241df663881dd5100106454c9b15270f69a3220797b1feffffff02e3f81000000000001976a9147e901122960be75cee1aa34f41bc31b68264066588ac376c0200000000001976a9149c43e8d709815ce33c2353aa3b7d78e80ea5e1cb88ac0d490800", "vin": [{"sequence": 4294967294, "scriptSig": {"hex": "47304402206bd0b1f4e3237e3866c8bf779f781eb312c5797434a4e784b0b9ec77c817e86902200be8099562b5f6b96a7760ce8771e88561ea9dbccac00b7cbf9e152ed51260eb012102c9b980a6405f3f10409b577096611e38e17952c0e20ed16c077e9914b6a05891", "asm": "304402206bd0b1f4e3237e3866c8bf779f781eb312c5797434a4e784b0b9ec77c817e86902200be8099562b5f6b96a7760ce8771e88561ea9dbccac00b7cbf9e152ed51260eb[ALL] 02c9b980a6405f3f10409b577096611e38e17952c0e20ed16c077e9914b6a05891"}, "vout": 0, "txid": "60b5f5028dd27ae017df320faae7881a81ffd60662b15d930fddafc64283a668"}, {"sequence": 4294967294, "scriptSig": {"hex": "47304402206c508c90e7c0efe9464c5a467dae32e2644701febcb1078b43b1ea9484f6e02402207337bf89319a9a3c2a0836343784c17d68ebcb213c23fe75e448ed6cb69f6387012102d7022aaad812240cd0c8241df663881dd5100106454c9b15270f69a3220797b1", "asm": "304402206c508c90e7c0efe9464c5a467dae32e2644701febcb1078b43b1ea9484f6e02402207337bf89319a9a3c2a0836343784c17d68ebcb213c23fe75e448ed6cb69f6387[ALL] 02d7022aaad812240cd0c8241df663881dd5100106454c9b15270f69a3220797b1"}, "vout": 0, "txid": "751a5cfa8c0e9120ca5a622359fcd1bc393e3f5603e9ee568084d6e3edce2e8b"}], "txid": "98ef6ca4177c79c3ab981efc982b6bb19651a30cf92689221611bc770f2866bf", "blocktime": 1537870928, "version": 2, "confirmations": 11514, "time": 1537870928, "locktime": 542989, "vsize": 372, "size": 372}