{"hash": "98ef5ba240a3ee938a7fc9f7b9d0b38508ec4967cd044be8a531dc62bad62ebb", "blockhash": "00000000000000000004ffacab907a6b429b9a5745fa0b75af4234bf69dd7176", "vout": [{"scriptPubKey": {"reqSigs": 1, "hex": "76a914d053e429e198b97256b23a4607adeae3d1091c2388ac", "addresses": ["1KzY3mYMUmAXKNaCgivQLCtmuXUZTY16Nw"], "asm": "OP_DUP OP_HASH160 d053e429e198b97256b23a4607adeae3d1091c23 OP_EQUALVERIFY OP_CHECKSIG", "type": "pubkeyhash"}, "value": 0.0007345, "n": 0}, {"scriptPubKey": {"reqSigs": 1, "hex": "a914aa144e38591f25eda73a4497e4016d734aae76da87", "addresses": ["3HCK81UpQJpySAQzaBd11x1ge8Df1sZBS8"], "asm": "OP_HASH160 aa144e38591f25eda73a4497e4016d734aae76da OP_EQUAL", "type": "scripthash"}, "value": 0.00471, "n": 1}], "hex": "0100000001f3a426dd25e9148a560fdd8a576cb03f73ab70abbe2e18cdb3c54abf1bfa7d7d000000006b483045022100d5153025351098f172f7e4778d1771d72db7bc7efd00f035507dbc39a6f195e302204f685b933258889e8ba264dc02a439d8367983a379d3f0a52f437de22ac6ce660121028123f8ea7083ebfd0e44ba0b45dffaf78e829b1d705bf661901b33496aa4552affffffff02ea1e0100000000001976a914d053e429e198b97256b23a4607adeae3d1091c2388acd82f07000000000017a914aa144e38591f25eda73a4497e4016d734aae76da8700000000", "vin": [{"sequence": 4294967295, "scriptSig": {"hex": "483045022100d5153025351098f172f7e4778d1771d72db7bc7efd00f035507dbc39a6f195e302204f685b933258889e8ba264dc02a439d8367983a379d3f0a52f437de22ac6ce660121028123f8ea7083ebfd0e44ba0b45dffaf78e829b1d705bf661901b33496aa4552a", "asm": "3045022100d5153025351098f172f7e4778d1771d72db7bc7efd00f035507dbc39a6f195e302204f685b933258889e8ba264dc02a439d8367983a379d3f0a52f437de22ac6ce66[ALL] 028123f8ea7083ebfd0e44ba0b45dffaf78e829b1d705bf661901b33496aa4552a"}, "vout": 0, "txid": "7d7dfa1bbf4ac5b3cd182ebeab70ab733fb06c578add0f568a14e925dd26a4f3"}], "txid": "98ef5ba240a3ee938a7fc9f7b9d0b38508ec4967cd044be8a531dc62bad62ebb", "blocktime": 1537875543, "version": 1, "confirmations": 11464, "time": 1537875543, "locktime": 0, "vsize": 224, "size": 224}