{"hash": "986081be9fc490243174cfda52cb5ea17ca1a84dee6e8c77e03da5d6b4d723f1", "blockhash": "0000000000000000000baef3f32e3676a92c3b2e5da21b426e4f302fc371ce76", "vout": [{"scriptPubKey": {"reqSigs": 1, "hex": "76a9149cdf78fcc5125bb680d2ca40e644d141aacd375588ac", "addresses": ["1FJU85KaBKhzWYoZvip8Tu2pwVNoPUz9yM"], "asm": "OP_DUP OP_HASH160 9cdf78fcc5125bb680d2ca40e644d141aacd3755 OP_EQUALVERIFY OP_CHECKSIG", "type": "pubkeyhash"}, "value": 0.00031581, "n": 0}, {"scriptPubKey": {"reqSigs": 1, "hex": "a914f5342287aaa57f5c05756dbd5ef14091cc70030f87", "addresses": ["3Q3XvwKWsx3ocmCXheK6pAo5ieooFx75hh"], "asm": "OP_HASH160 f5342287aaa57f5c05756dbd5ef14091cc70030f OP_EQUAL", "type": "scripthash"}, "value": 0.07901442, "n": 1}], "hex": "0100000000010182fe62c9b8f8150ba43e3e189c821c820cd5812e5c252ddf30a805c738210f0e01000000232200204fd7968ffe15cb453352a1e9ee2915eff8b6d6252d5a351f9092b82ca10eb12cffffffff025d7b0000000000001976a9149cdf78fcc5125bb680d2ca40e644d141aacd375588ac029178000000000017a914f5342287aaa57f5c05756dbd5ef14091cc70030f87040047304402207e65c89aa966c9614c472394d7bf7f082d8594f060340596079c16cb5e11e0a1022035a7175c22fcc186f5e8415895467b5641317f5145628e01a78024266ec451650148304502210095c648cf1b3fe958cfcada19f3d106d3fdf0a8a8effcbe2ebba6a98c7946712002200416b46c132393cf246ec24755cdd0fb732eadd57a078b19719f234127e7a4d50147522103b70e79262cbb7310fe069dea7c473b53276b75c67fb841ff66279f152a3fe0172103871fc2ca08e6950b38867e8e6a0e94ee625223d3aa0df5c65f414c6d784467e252ae00000000", "vin": [{"txinwitness": ["", "304402207e65c89aa966c9614c472394d7bf7f082d8594f060340596079c16cb5e11e0a1022035a7175c22fcc186f5e8415895467b5641317f5145628e01a78024266ec4516501", "304502210095c648cf1b3fe958cfcada19f3d106d3fdf0a8a8effcbe2ebba6a98c7946712002200416b46c132393cf246ec24755cdd0fb732eadd57a078b19719f234127e7a4d501", "522103b70e79262cbb7310fe069dea7c473b53276b75c67fb841ff66279f152a3fe0172103871fc2ca08e6950b38867e8e6a0e94ee625223d3aa0df5c65f414c6d784467e252ae"], "sequence": 4294967295, "scriptSig": {"hex": "2200204fd7968ffe15cb453352a1e9ee2915eff8b6d6252d5a351f9092b82ca10eb12c", "asm": "00204fd7968ffe15cb453352a1e9ee2915eff8b6d6252d5a351f9092b82ca10eb12c"}, "vout": 1, "txid": "0e0f2138c705a830df2d255c2e81d50c821c829c183e3ea40b15f8b8c962fe82"}], "txid": "98efb34d433dc1614081a1d433bdeac730610b19ba931f94ffb49204b5d4374e", "blocktime": 1537876114, "version": 1, "confirmations": 11460, "time": 1537876114, "locktime": 0, "vsize": 208, "size": 373}