{"hash": "96c97192977022883682e3968f1605d8f7812566cf65ee175e02bdf67b30d4fd", "blockhash": "00000000000000000018f53835495a110e01622372bf6ae95dc86f2b0ab887b0", "vout": [{"scriptPubKey": {"reqSigs": 1, "hex": "76a9149c20fa9a4e9d6af1cb5020369815a3183bf3ba5788ac", "addresses": ["1FEXvLmhL2242r4xsZ81HFhKb8SK2LgRNs"], "asm": "OP_DUP OP_HASH160 9c20fa9a4e9d6af1cb5020369815a3183bf3ba57 OP_EQUALVERIFY OP_CHECKSIG", "type": "pubkeyhash"}, "value": 0.000156, "n": 0}, {"scriptPubKey": {"reqSigs": 1, "hex": "001471ce76a62339f93ae78a52f49d583d153113be0b", "addresses": ["bc1qw888df3r88un4eu22t6f6kpaz5c380stg6dz7d"], "asm": "0 71ce76a62339f93ae78a52f49d583d153113be0b", "type": "witness_v0_keyhash"}, "value": 1.416e-05, "n": 1}], "hex": "010000000001014c04885ee9f484a0a9385e1f260f347dde57c234e24b523856e40e38737979d90100000000ffffffff02f03c0000000000001976a9149c20fa9a4e9d6af1cb5020369815a3183bf3ba5788ac880500000000000016001471ce76a62339f93ae78a52f49d583d153113be0b024730440220590d7012ed8bad3615a61b8f9fe2afeef144cb29123addead8a6df8d1d650ec00220755a69fe4b9498de85edbd0a68533fce9bf6f2460cda0b37106454468fff6df40121038bf5bbe55a61ce348de2eeeee05e9cb376e7f048e21e32440a4b964a2f5b55c400000000", "vin": [{"txinwitness": ["30440220590d7012ed8bad3615a61b8f9fe2afeef144cb29123addead8a6df8d1d650ec00220755a69fe4b9498de85edbd0a68533fce9bf6f2460cda0b37106454468fff6df401", "038bf5bbe55a61ce348de2eeeee05e9cb376e7f048e21e32440a4b964a2f5b55c4"], "sequence": 4294967295, "scriptSig": {"hex": "", "asm": ""}, "vout": 1, "txid": "d9797973380ee45638524be234c257de7d340f261f5e38a9a084f4e95e88044c"}], "txid": "98f41be33bf80c3f0a2aeb228551656c610d905bf2ecf4696966e1b43141a4fb", "blocktime": 1537870928, "version": 1, "confirmations": 11514, "time": 1537870928, "locktime": 0, "vsize": 144, "size": 225}