{"hash": "98f613b946023a08ed53e2bd59fcd1bfaac0871ecc0eabd24997086642585aad", "blockhash": "00000000000000000018f53835495a110e01622372bf6ae95dc86f2b0ab887b0", "vout": [{"scriptPubKey": {"reqSigs": 1, "hex": "a9143ede45eb6d596b8f68a85adb7dc5996905e04dc187", "addresses": ["37RS6F98tGpxwgPXzqSaL5nL2XthfX1KX7"], "asm": "OP_HASH160 3ede45eb6d596b8f68a85adb7dc5996905e04dc1 OP_EQUAL", "type": "scripthash"}, "value": 0.13983, "n": 0}, {"scriptPubKey": {"reqSigs": 1, "hex": "76a9140c8d4d8d7262ba1b45807c586d4389ec18390a8288ac", "addresses": ["129NPCjd147Lt1QWXHTuBDjHXpo8izT9UR"], "asm": "OP_DUP OP_HASH160 0c8d4d8d7262ba1b45807c586d4389ec18390a82 OP_EQUALVERIFY OP_CHECKSIG", "type": "pubkeyhash"}, "value": 0.17794126, "n": 1}], "hex": "0100000001e74289df819942232c3c6d6800141e81202538b850d895b3e12a421fbc2fa3de010000006a473044022051db1948c31d2bf92c10cb5b0dd8914f7b330fb1129f89e31a1750f60d334df402207e15ebba172c950f9657e7398f1fc3796589ae9a8d44b164cf75834b4ce6504a012103f81ae1dba1ee0000188be099515622c49af3bcb5c77b48f9fe56efe59d40d26bfeffffff02185dd5000000000017a9143ede45eb6d596b8f68a85adb7dc5996905e04dc1874e840f01000000001976a9140c8d4d8d7262ba1b45807c586d4389ec18390a8288ac0e490800", "vin": [{"sequence": 4294967294, "scriptSig": {"hex": "473044022051db1948c31d2bf92c10cb5b0dd8914f7b330fb1129f89e31a1750f60d334df402207e15ebba172c950f9657e7398f1fc3796589ae9a8d44b164cf75834b4ce6504a012103f81ae1dba1ee0000188be099515622c49af3bcb5c77b48f9fe56efe59d40d26b", "asm": "3044022051db1948c31d2bf92c10cb5b0dd8914f7b330fb1129f89e31a1750f60d334df402207e15ebba172c950f9657e7398f1fc3796589ae9a8d44b164cf75834b4ce6504a[ALL] 03f81ae1dba1ee0000188be099515622c49af3bcb5c77b48f9fe56efe59d40d26b"}, "vout": 1, "txid": "dea32fbc1f422ae1b395d850b8382520811e1400686d3c2c23429981df8942e7"}], "txid": "98f613b946023a08ed53e2bd59fcd1bfaac0871ecc0eabd24997086642585aad", "blocktime": 1537870928, "version": 1, "confirmations": 11514, "time": 1537870928, "locktime": 542990, "vsize": 223, "size": 223}