{"hash": "98f786e83631f820d6f2e517cfb29820a436823fcef26122ff4168e4c7d33ad2", "blockhash": "00000000000000000004ffacab907a6b429b9a5745fa0b75af4234bf69dd7176", "vout": [{"scriptPubKey": {"type": "nulldata", "hex": "6a146f6d6e69000000000000001f00000004a7b52af5", "asm": "OP_RETURN 6f6d6e69000000000000001f00000004a7b52af5"}, "value": 0.0, "n": 0}, {"scriptPubKey": {"reqSigs": 1, "hex": "76a914a25dec4d0011064ef106a983c39c7a540699f22088ac", "addresses": ["1FoWyxwPXuj4C6abqwhjDWdz6D4PZgYRjA"], "asm": "OP_DUP OP_HASH160 a25dec4d0011064ef106a983c39c7a540699f220 OP_EQUALVERIFY OP_CHECKSIG", "type": "pubkeyhash"}, "value": 0.01995188, "n": 1}, {"scriptPubKey": {"reqSigs": 1, "hex": "76a914ce454ee004a769f4e66014172a9e8104bbd0696e88ac", "addresses": ["1KofE8TsS6SgNhniaqHv9TofYAenedAqtG"], "asm": "OP_DUP OP_HASH160 ce454ee004a769f4e66014172a9e8104bbd0696e OP_EQUALVERIFY OP_CHECKSIG", "type": "pubkeyhash"}, "value": 5.46e-06, "n": 2}], "hex": "0100000001a44813c76173a4fe9689194c29809e35be05f1741d9b5e1e9e8bd44070ac1fea8a0000006b483045022100c8903dee9b0446613b95ffec572d7cec960368a01bd2f43aae92839f4dadd6e102206bdf161f5db2c1752b2f3a29414227595ac12c89c98bf05481b2eb8e3e6df9f2012103da5bac7b36d5aa38f531c6b9601e21bb598a4b6716ebed38b009a55dabde9440feffffff030000000000000000166a146f6d6e69000000000000001f00000004a7b52af5b4711e00000000001976a914a25dec4d0011064ef106a983c39c7a540699f22088ac22020000000000001976a914ce454ee004a769f4e66014172a9e8104bbd0696e88ac16490800", "vin": [{"sequence": 4294967294, "scriptSig": {"hex": "483045022100c8903dee9b0446613b95ffec572d7cec960368a01bd2f43aae92839f4dadd6e102206bdf161f5db2c1752b2f3a29414227595ac12c89c98bf05481b2eb8e3e6df9f2012103da5bac7b36d5aa38f531c6b9601e21bb598a4b6716ebed38b009a55dabde9440", "asm": "3045022100c8903dee9b0446613b95ffec572d7cec960368a01bd2f43aae92839f4dadd6e102206bdf161f5db2c1752b2f3a29414227595ac12c89c98bf05481b2eb8e3e6df9f2[ALL] 03da5bac7b36d5aa38f531c6b9601e21bb598a4b6716ebed38b009a55dabde9440"}, "vout": 138, "txid": "ea1fac7040d48b9e1e5e9b1d74f105be359e80294c198996fea47361c71348a4"}], "txid": "98f786e83631f820d6f2e517cfb29820a436823fcef26122ff4168e4c7d33ad2", "blocktime": 1537875543, "version": 1, "confirmations": 11464, "time": 1537875543, "locktime": 542998, "vsize": 257, "size": 257}