{"hash": "32095cdea8e75dfeb26d3fe38df958721b2ebf5e6fe008b00b051b19edfc8861", "blockhash": "00000000000000000004ffacab907a6b429b9a5745fa0b75af4234bf69dd7176", "vout": [{"scriptPubKey": {"reqSigs": 1, "hex": "76a91430f2a3dda909c6c45f3f1a8fcfc2e490f0c26a6a88ac", "addresses": ["15Tp78z1PUJJUuxptxG4L2bvYKSpUi6vYA"], "asm": "OP_DUP OP_HASH160 30f2a3dda909c6c45f3f1a8fcfc2e490f0c26a6a OP_EQUALVERIFY OP_CHECKSIG", "type": "pubkeyhash"}, "value": 0.05, "n": 0}, {"scriptPubKey": {"reqSigs": 1, "hex": "a914bbba37f40cb545bcad4ce84c10733be66d166e0487", "addresses": ["3JodN7GmkHdPgKj9G7HCkn9NDLhrcWCjVN"], "asm": "OP_HASH160 bbba37f40cb545bcad4ce84c10733be66d166e04 OP_EQUAL", "type": "scripthash"}, "value": 0.00293355, "n": 1}], "hex": "02000000000101a9e8eb4396018e3354128ef7682ce927c4d4edd78d96c5c41e32630f1ddfb6443e00000017160014f5d501059ce6cf10fac041ee6daa83ce7e88e9f5ffffffff02404b4c00000000001976a91430f2a3dda909c6c45f3f1a8fcfc2e490f0c26a6a88aceb7904000000000017a914bbba37f40cb545bcad4ce84c10733be66d166e04870247304402203ae59af71584b0993a603ba46877a75de26174ebb38f8b7a8eb9aa5d187b6221022026cffe8fd31554a6d2565db6895c0b194a7c72643fa02c3d040b83cf2adec9240121030a9e6c65ccb33d2df93962c065b61cf0e630cc7cb8095ffe5f5a0a3e0a58c51200000000", "vin": [{"txinwitness": ["304402203ae59af71584b0993a603ba46877a75de26174ebb38f8b7a8eb9aa5d187b6221022026cffe8fd31554a6d2565db6895c0b194a7c72643fa02c3d040b83cf2adec92401", "030a9e6c65ccb33d2df93962c065b61cf0e630cc7cb8095ffe5f5a0a3e0a58c512"], "sequence": 4294967295, "scriptSig": {"hex": "160014f5d501059ce6cf10fac041ee6daa83ce7e88e9f5", "asm": "0014f5d501059ce6cf10fac041ee6daa83ce7e88e9f5"}, "vout": 62, "txid": "44b6df1d0f63321ec4c5968dd7edd4c427e92c68f78e1254338e019643ebe8a9"}], "txid": "99015bead13096d318f1afe3185e564c0ba357b2660a322d2b0f605dfd7668f1", "blocktime": 1537875543, "version": 2, "confirmations": 11464, "time": 1537875543, "locktime": 0, "vsize": 168, "size": 249}