{"hash": "990c26c4b097235a39fcfb66565bf35a79b20a105186645ddad10f2138f44b1e", "blockhash": "0000000000000000000baef3f32e3676a92c3b2e5da21b426e4f302fc371ce76", "vout": [{"scriptPubKey": {"reqSigs": 1, "hex": "a914af823eaaadc4834905969efdd086f3edfbf40af387", "addresses": ["3Hh2CgSgXBw7KSNCjx5UajVuDVUouuZR6C"], "asm": "OP_HASH160 af823eaaadc4834905969efdd086f3edfbf40af3 OP_EQUAL", "type": "scripthash"}, "value": 0.4, "n": 0}, {"scriptPubKey": {"reqSigs": 1, "hex": "76a9141684853585c2de407a0f1eca54d6914eed58468788ac", "addresses": ["1344ctwM3aCvz8s9tuJG8nPYFPMADThuf5"], "asm": "OP_DUP OP_HASH160 1684853585c2de407a0f1eca54d6914eed584687 OP_EQUALVERIFY OP_CHECKSIG", "type": "pubkeyhash"}, "value": 1.0999888, "n": 1}], "hex": "01000000010c4c92dc60f9265496db37020d0aa196feefaf8c6640be87628ae13e3a8cca05010000006b483045022100f329d38c0ad58b0ef43c4f6a5eae253b1625b589168e8bf5ff3737937240dab2022072747bde2c37db01922896ea9512b906ca9634f81bc340244a573e428474282d012103ea811de6c3286382f4c2c5bc8b510d0360bcfdd2da667b595c181c2d63f2c5defdffffff02005a62020000000017a914af823eaaadc4834905969efdd086f3edfbf40af38720738e06000000001976a9141684853585c2de407a0f1eca54d6914eed58468788ac17490800", "vin": [{"sequence": 4294967293, "scriptSig": {"hex": "483045022100f329d38c0ad58b0ef43c4f6a5eae253b1625b589168e8bf5ff3737937240dab2022072747bde2c37db01922896ea9512b906ca9634f81bc340244a573e428474282d012103ea811de6c3286382f4c2c5bc8b510d0360bcfdd2da667b595c181c2d63f2c5de", "asm": "3045022100f329d38c0ad58b0ef43c4f6a5eae253b1625b589168e8bf5ff3737937240dab2022072747bde2c37db01922896ea9512b906ca9634f81bc340244a573e428474282d[ALL] 03ea811de6c3286382f4c2c5bc8b510d0360bcfdd2da667b595c181c2d63f2c5de"}, "vout": 1, "txid": "05ca8c3a3ee18a6287be40668cafeffe96a10a0d0237db965426f960dc924c0c"}], "txid": "990c26c4b097235a39fcfb66565bf35a79b20a105186645ddad10f2138f44b1e", "blocktime": 1537876114, "version": 1, "confirmations": 11460, "time": 1537876114, "locktime": 542999, "vsize": 224, "size": 224}