{"hash": "990cdc41789219a4ba8bfad1d836cd02a12ba27a86f61481c5aea6b170078208", "blockhash": "0000000000000000001cda96e906b7601b7a6fb1a3b62bca570a9e5d8f4b3de1", "vout": [{"scriptPubKey": {"reqSigs": 1, "hex": "76a9148b7c41990f2ef456f77356123c22f1ee650d591b88ac", "addresses": ["1DiXn969LVbqCRnWt2pE6554rEwxeuuA97"], "asm": "OP_DUP OP_HASH160 8b7c41990f2ef456f77356123c22f1ee650d591b OP_EQUALVERIFY OP_CHECKSIG", "type": "pubkeyhash"}, "value": 0.00062581, "n": 0}, {"scriptPubKey": {"reqSigs": 1, "hex": "76a9141a47d87b3eff566f470110bcfe0a7ce4fdfc953288ac", "addresses": ["13Pxdukcw9oBYBBMN3kshXg32Npe6SLi65"], "asm": "OP_DUP OP_HASH160 1a47d87b3eff566f470110bcfe0a7ce4fdfc9532 OP_EQUALVERIFY OP_CHECKSIG", "type": "pubkeyhash"}, "value": 0.00399241, "n": 1}], "hex": "0100000001a84583b4cdf3017ab19536d91f091a3520a6f2445873a330304fd6a4b14a6966600000006a4730440220585d43327ab74604f842cc73311fa2eea2748bba36f5163d16abb271be1531e002205530633a9379d488cec8f94da1b75618fa32a1603eb7344219b36785b9d31aa7012103c2d21c169436103b5d2facf98f4e9946c3cce07853a9c93e6ef717957630c062ffffffff0275f40000000000001976a9148b7c41990f2ef456f77356123c22f1ee650d591b88ac89170600000000001976a9141a47d87b3eff566f470110bcfe0a7ce4fdfc953288ac00000000", "vin": [{"sequence": 4294967295, "scriptSig": {"hex": "4730440220585d43327ab74604f842cc73311fa2eea2748bba36f5163d16abb271be1531e002205530633a9379d488cec8f94da1b75618fa32a1603eb7344219b36785b9d31aa7012103c2d21c169436103b5d2facf98f4e9946c3cce07853a9c93e6ef717957630c062", "asm": "30440220585d43327ab74604f842cc73311fa2eea2748bba36f5163d16abb271be1531e002205530633a9379d488cec8f94da1b75618fa32a1603eb7344219b36785b9d31aa7[ALL] 03c2d21c169436103b5d2facf98f4e9946c3cce07853a9c93e6ef717957630c062"}, "vout": 96, "txid": "66694ab1a4d64f3030a3735844f2a620351a091fd93695b17a01f3cdb48345a8"}], "txid": "990cdc41789219a4ba8bfad1d836cd02a12ba27a86f61481c5aea6b170078208", "blocktime": 1537873282, "version": 1, "confirmations": 11484, "time": 1537873282, "locktime": 0, "vsize": 225, "size": 225}