{"hash": "990d62ac420b6b41eb28ee1ffd4e0d514b94cbe2a81119218ff9fcfa78ba7ede", "blockhash": "0000000000000000001f76057863aec43deb6fa401d9628bb513d65a8098bfab", "vout": [{"scriptPubKey": {"reqSigs": 1, "hex": "76a914a9f049552d7b943c8c33885334c14a853377892988ac", "addresses": ["1GVZ3pGdVUdXtMYRqJNudnA2JKjSJaK2Yo"], "asm": "OP_DUP OP_HASH160 a9f049552d7b943c8c33885334c14a8533778929 OP_EQUALVERIFY OP_CHECKSIG", "type": "pubkeyhash"}, "value": 0.00047474, "n": 0}, {"scriptPubKey": {"reqSigs": 1, "hex": "76a914140c988fe0d6a2bf96b5417f74eb760c5c9189d288ac", "addresses": ["12q1c24MWuSnj8h1LLJYgT5iGFHAjmjg49"], "asm": "OP_DUP OP_HASH160 140c988fe0d6a2bf96b5417f74eb760c5c9189d2 OP_EQUALVERIFY OP_CHECKSIG", "type": "pubkeyhash"}, "value": 0.005499, "n": 1}], "hex": "010000000175694dc441639bd6d583fce67d69499d44dbd3df1bf61362d11ad91198163a92010000006a473044022075c8c750b13c50d36ea9f908161ff912a1ee385d05278f5cba14f4e3b3c0f467022032b66358841f0b767983f5d88869f91749993d542df1c1a33d7a5aaab0d8fe530121031ba43d74c2798025d3b619c9ff67d7a629d592742547a5513ca4c42ccd8876b1fdffffff0272b90000000000001976a914a9f049552d7b943c8c33885334c14a853377892988ac0c640800000000001976a914140c988fe0d6a2bf96b5417f74eb760c5c9189d288ac14490800", "vin": [{"sequence": 4294967293, "scriptSig": {"hex": "473044022075c8c750b13c50d36ea9f908161ff912a1ee385d05278f5cba14f4e3b3c0f467022032b66358841f0b767983f5d88869f91749993d542df1c1a33d7a5aaab0d8fe530121031ba43d74c2798025d3b619c9ff67d7a629d592742547a5513ca4c42ccd8876b1", "asm": "3044022075c8c750b13c50d36ea9f908161ff912a1ee385d05278f5cba14f4e3b3c0f467022032b66358841f0b767983f5d88869f91749993d542df1c1a33d7a5aaab0d8fe53[ALL] 031ba43d74c2798025d3b619c9ff67d7a629d592742547a5513ca4c42ccd8876b1"}, "vout": 1, "txid": "923a169811d91ad16213f61bdfd3db449d49697de6fc83d5d69b6341c44d6975"}], "txid": "990d62ac420b6b41eb28ee1ffd4e0d514b94cbe2a81119218ff9fcfa78ba7ede", "blocktime": 1537873891, "version": 1, "confirmations": 11479, "time": 1537873891, "locktime": 542996, "vsize": 225, "size": 225}