{"hash": "91b9aea423b5a8e672dd9af5a0920ec1ac04e355f38d7a3cb112b3a1019937c1", "blockhash": "0000000000000000000dcc0f55137456b1a82d3642486a52398922ac4d620174", "vout": [{"scriptPubKey": {"reqSigs": 1, "hex": "76a9148d3ea1a917d300e0b527fa1e7ad4fc2222d9f33288ac", "addresses": ["1DsqJm5puCeVDWDfNDptpGHkVQrtG5a3aQ"], "asm": "OP_DUP OP_HASH160 8d3ea1a917d300e0b527fa1e7ad4fc2222d9f332 OP_EQUALVERIFY OP_CHECKSIG", "type": "pubkeyhash"}, "value": 0.0031836, "n": 0}, {"scriptPubKey": {"reqSigs": 1, "hex": "a914571b8faeb6fdfd3c29909d645a7b32a2157a9da787", "addresses": ["39dbjDt5DZyRrAujvEVK9YKi9VJvQT9SNY"], "asm": "OP_HASH160 571b8faeb6fdfd3c29909d645a7b32a2157a9da7 OP_EQUAL", "type": "scripthash"}, "value": 0.01001738, "n": 1}], "hex": "0200000000010274a2d09bbd899b2cf786953bf1b94354ac01b2ecd375bff6d03de4047bbff8f00400000017160014e9ae49fc3d3c0f020e79e39305d6b121db902c9efeffffffce5c26ed438e9256e0ac1e5c9d379c13ab0b7d5c00aa661990adc5163918709f0100000017160014a4b10f12d7ca50de09d8e9e0d4a6c1f6e91acc30feffffff0298db0400000000001976a9148d3ea1a917d300e0b527fa1e7ad4fc2222d9f33288ac0a490f000000000017a914571b8faeb6fdfd3c29909d645a7b32a2157a9da78702483045022100d0180c510084c6876ccda416a7d0eafb21f5f81006c12a11ebadd1fb46aea1b20220019de9e1bb7178fb07172c16316b222952fcbf78fa62ec8c5f13270f6a74871a0121034d01c12d9f54f6a0de3a5478bfedff3160ac32d77bd9ffe6611df5bf067bc9820247304402206108bff0e684e1dbf62d40ad12eb342467b9da36c374d9fc29b9a41cc760f7d502203216729c70226066d4296c17d9be66d41a4394b9e0109b7c75c80b5568e32ee3012102e1223616e631059fa22b1c179da8195943f3efa862d08c6efde8a1e5b29c86e10b490800", "vin": [{"txinwitness": ["3045022100d0180c510084c6876ccda416a7d0eafb21f5f81006c12a11ebadd1fb46aea1b20220019de9e1bb7178fb07172c16316b222952fcbf78fa62ec8c5f13270f6a74871a01", "034d01c12d9f54f6a0de3a5478bfedff3160ac32d77bd9ffe6611df5bf067bc982"], "sequence": 4294967294, "scriptSig": {"hex": "160014e9ae49fc3d3c0f020e79e39305d6b121db902c9e", "asm": "0014e9ae49fc3d3c0f020e79e39305d6b121db902c9e"}, "vout": 4, "txid": "f0f8bf7b04e43dd0f6bf75d3ecb201ac5443b9f13b9586f72c9b89bd9bd0a274"}, {"txinwitness": ["304402206108bff0e684e1dbf62d40ad12eb342467b9da36c374d9fc29b9a41cc760f7d502203216729c70226066d4296c17d9be66d41a4394b9e0109b7c75c80b5568e32ee301", "02e1223616e631059fa22b1c179da8195943f3efa862d08c6efde8a1e5b29c86e1"], "sequence": 4294967294, "scriptSig": {"hex": "160014a4b10f12d7ca50de09d8e9e0d4a6c1f6e91acc30", "asm": "0014a4b10f12d7ca50de09d8e9e0d4a6c1f6e91acc30"}, "vout": 1, "txid": "9f70183916c5ad901966aa005c7d0bab139c379d5c1eace056928e43ed265cce"}], "txid": "9914ab7c16e3c0cafd73b78bfe99e26a88901243a8a424f8f6963b90642c5001", "blocktime": 1537870268, "version": 2, "confirmations": 11519, "time": 1537870268, "locktime": 542987, "vsize": 259, "size": 421}