{"hash": "0221050c2c82c16a47969474d3b8013ca36e7dc2bc31ff06a4d70d13787da168", "blockhash": "0000000000000000001cda96e906b7601b7a6fb1a3b62bca570a9e5d8f4b3de1", "vout": [{"scriptPubKey": {"reqSigs": 1, "hex": "a9147af42bbb3cf0fb2ab0f411ddeb4c3001b72ee8dc87", "addresses": ["3Cu8sEVcmia6rBkMZ8xt8nDJUpUnjn8bZG"], "asm": "OP_HASH160 7af42bbb3cf0fb2ab0f411ddeb4c3001b72ee8dc OP_EQUAL", "type": "scripthash"}, "value": 0.126508, "n": 0}, {"scriptPubKey": {"reqSigs": 1, "hex": "a91440d0913bc022cafa288e405a77f80c25e2a2246287", "addresses": ["37bj2LDo8zPxtQSqiT9BEWkmEGtSS8D9ck"], "asm": "OP_HASH160 40d0913bc022cafa288e405a77f80c25e2a22462 OP_EQUAL", "type": "scripthash"}, "value": 0.2, "n": 1}], "hex": "0100000000010205190aa98c5f5657ffa9a58e46caffe214e3759c6ca6867c7cd357dd004ab8f801000000232200205d1363e8c58ed3c052defee0f520299c7380c24bf6faaf0a702769c456f60968ffffffffc8a0ecec7742966e5ab19df5a20d5ebf0d3de3548f5c75f4f66bdb503a7a58420000000023220020e19bd1799618bcca62cc282914159a58aa281657eaf2de787b37c9785fcbc576ffffffff023009c1000000000017a9147af42bbb3cf0fb2ab0f411ddeb4c3001b72ee8dc87002d31010000000017a91440d0913bc022cafa288e405a77f80c25e2a224628704004730440220514118cbc1c64371c7c273f3c96e4cecd033b7823fb7053e829b2bf191fe6e8e022058d16dbe3f7bbeb619ce22c96a3511b5764b0187c9b6f95ffb159d1352737a2d0148304502210096c9635e102e93cb9ae79962888fef523ce7c6cc761a3929d775d364008c26b702206946a4929917c2384f41ec09ee7e2ec1f747bdccd9ff5e9ea0e5764f3682f516016952210297eb692746b5742defbe1af58a26a41bbafd21f5690cc4fba0ee6491c15eec002102c57b6ac9597e80fbc327f56c47cd1625bcbde741ca971afc4bb1f00b4e05cd6221020abcf3ef58d71fcdb8bdccd40d8a3ef03747063d509f5cc5edcf9d4e082889b353ae0400483045022100c624882b9cdadcf7952e6969985a6f60ea212fca8a04c71326a8ce035476fce802203dbc6238adfaf8bb7f86782a7bd0f36dd526aa6a96bddd5f0645640da184d13401473044022049478c29fbec27e8b8a12e4279fb5734a80b6d69b6211038b0e22cf36262b1e9022054585b17fecb324eb7d63c091f952ed1477dde03701b46af1fec96a08039da1401695221032fbd2871a2a503ca7d00203939e54778456605e8286e3100ee6d40d417e80dbe2102c98141626ba23f3184364871504624822337c6313fb01f828f20cdc110c7e9d92102b89e51695d172220dc9f8f348286347438ec903310c2186bb4dbdbb6c1a0cfff53ae00000000", "vin": [{"txinwitness": ["", "30440220514118cbc1c64371c7c273f3c96e4cecd033b7823fb7053e829b2bf191fe6e8e022058d16dbe3f7bbeb619ce22c96a3511b5764b0187c9b6f95ffb159d1352737a2d01", "304502210096c9635e102e93cb9ae79962888fef523ce7c6cc761a3929d775d364008c26b702206946a4929917c2384f41ec09ee7e2ec1f747bdccd9ff5e9ea0e5764f3682f51601", "52210297eb692746b5742defbe1af58a26a41bbafd21f5690cc4fba0ee6491c15eec002102c57b6ac9597e80fbc327f56c47cd1625bcbde741ca971afc4bb1f00b4e05cd6221020abcf3ef58d71fcdb8bdccd40d8a3ef03747063d509f5cc5edcf9d4e082889b353ae"], "sequence": 4294967295, "scriptSig": {"hex": "2200205d1363e8c58ed3c052defee0f520299c7380c24bf6faaf0a702769c456f60968", "asm": "00205d1363e8c58ed3c052defee0f520299c7380c24bf6faaf0a702769c456f60968"}, "vout": 1, "txid": "f8b84a00dd57d37c7c86a66c9c75e314e2ffca468ea5a9ff57565f8ca90a1905"}, {"txinwitness": ["", "3045022100c624882b9cdadcf7952e6969985a6f60ea212fca8a04c71326a8ce035476fce802203dbc6238adfaf8bb7f86782a7bd0f36dd526aa6a96bddd5f0645640da184d13401", "3044022049478c29fbec27e8b8a12e4279fb5734a80b6d69b6211038b0e22cf36262b1e9022054585b17fecb324eb7d63c091f952ed1477dde03701b46af1fec96a08039da1401", "5221032fbd2871a2a503ca7d00203939e54778456605e8286e3100ee6d40d417e80dbe2102c98141626ba23f3184364871504624822337c6313fb01f828f20cdc110c7e9d92102b89e51695d172220dc9f8f348286347438ec903310c2186bb4dbdbb6c1a0cfff53ae"], "sequence": 4294967295, "scriptSig": {"hex": "220020e19bd1799618bcca62cc282914159a58aa281657eaf2de787b37c9785fcbc576", "asm": "0020e19bd1799618bcca62cc282914159a58aa281657eaf2de787b37c9785fcbc576"}, "vout": 0, "txid": "42587a3a50db6bf6f4755c8f54e33d0dbf5e0da2f59db15a6e964277ececa0c8"}], "txid": "991838d7d7e0d366b22ecdeb5c848fc2736a70c3516270905b4d6eec572c307c", "blocktime": 1537873282, "version": 1, "confirmations": 11485, "time": 1537873282, "locktime": 0, "vsize": 353, "size": 734}