{"hash": "9921869cbc52d4a07abc501a6b66fbce70d5bce5012cf70971007a96e1e93d7a", "blockhash": "00000000000000000017f5eb5941039fbcee6240d03bc1f2f8e35350df66a1d8", "vout": [{"scriptPubKey": {"reqSigs": 1, "hex": "76a914f12fd899cc7c02664e2d5e0bb0ce4bc95f7bf6c088ac", "addresses": ["1NzHAduESkaKfBmi91HBWYEBTg82uaJbS9"], "asm": "OP_DUP OP_HASH160 f12fd899cc7c02664e2d5e0bb0ce4bc95f7bf6c0 OP_EQUALVERIFY OP_CHECKSIG", "type": "pubkeyhash"}, "value": 0.000104, "n": 0}, {"scriptPubKey": {"reqSigs": 1, "hex": "a91410fb3da8cc35ee6a8267fca58c305b2883178c5c87", "addresses": ["33Eoi8iPpxFvfaKLCE1Vorx8vRahwZCmoi"], "asm": "OP_HASH160 10fb3da8cc35ee6a8267fca58c305b2883178c5c OP_EQUAL", "type": "scripthash"}, "value": 0.01393039, "n": 1}], "hex": "01000000013cdc071aed2b7465d745ab10208fc946902723b7333727e9c3c8a0cb948299a4050000006a473044022042faa60673bd8080ac1de0a542669f5327b13b53a82b00051b2e4e07658f247c022072bc9044a10848eb9b9f0914b969c8ed7a9ba30e4af1aa0b1c83ffb23f70216f0121029bc3f221f226001e8ef533ed65de49e7af6d56b5d2b6c691cd5c92f9442ba48bffffffff02a0280000000000001976a914f12fd899cc7c02664e2d5e0bb0ce4bc95f7bf6c088ac8f4115000000000017a91410fb3da8cc35ee6a8267fca58c305b2883178c5c8700000000", "vin": [{"sequence": 4294967295, "scriptSig": {"hex": "473044022042faa60673bd8080ac1de0a542669f5327b13b53a82b00051b2e4e07658f247c022072bc9044a10848eb9b9f0914b969c8ed7a9ba30e4af1aa0b1c83ffb23f70216f0121029bc3f221f226001e8ef533ed65de49e7af6d56b5d2b6c691cd5c92f9442ba48b", "asm": "3044022042faa60673bd8080ac1de0a542669f5327b13b53a82b00051b2e4e07658f247c022072bc9044a10848eb9b9f0914b969c8ed7a9ba30e4af1aa0b1c83ffb23f70216f[ALL] 029bc3f221f226001e8ef533ed65de49e7af6d56b5d2b6c691cd5c92f9442ba48b"}, "vout": 5, "txid": "a4998294cba0c8c3e9273733b723279046c98f2010ab45d765742bed1a07dc3c"}], "txid": "9921869cbc52d4a07abc501a6b66fbce70d5bce5012cf70971007a96e1e93d7a", "blocktime": 1537874412, "version": 1, "confirmations": 11468, "time": 1537874412, "locktime": 0, "vsize": 223, "size": 223}