{"hash": "99261ba000a3d99432ea08423938b047c5be6b9391d2c3c27a1ae7436c729be8", "blockhash": "0000000000000000000e13cef7c366c0283d82e591d1acd082e914b08063cdf1", "vout": [{"scriptPubKey": {"reqSigs": 1, "hex": "a9148b3fdfd44d755b1f60ec47cf29735129f3fec3a187", "addresses": ["3EPJNGtD2FbjD96sqVo1x1Bg39xEAtYCCg"], "asm": "OP_HASH160 8b3fdfd44d755b1f60ec47cf29735129f3fec3a1 OP_EQUAL", "type": "scripthash"}, "value": 0.0058531, "n": 0}], "hex": "01000000018ea22720468624b2bb873539a016f89f13e097dae9152d38de6770ae5a1b6cb1010000006b483045022100c54904db8f21aececa3521c7344be529646245be59c940db921bbb34aed252ce0220308e92eb54dfbbba5220eb73999e94f4993b64243cf3e06cb3ae89f4ab2b0ee5012102a14abc485df8a17c79f5f3b1813f5fdec9aabf26e09ba3d3d27ce116d017a48dffffffff015eee08000000000017a9148b3fdfd44d755b1f60ec47cf29735129f3fec3a18700000000", "vin": [{"sequence": 4294967295, "scriptSig": {"hex": "483045022100c54904db8f21aececa3521c7344be529646245be59c940db921bbb34aed252ce0220308e92eb54dfbbba5220eb73999e94f4993b64243cf3e06cb3ae89f4ab2b0ee5012102a14abc485df8a17c79f5f3b1813f5fdec9aabf26e09ba3d3d27ce116d017a48d", "asm": "3045022100c54904db8f21aececa3521c7344be529646245be59c940db921bbb34aed252ce0220308e92eb54dfbbba5220eb73999e94f4993b64243cf3e06cb3ae89f4ab2b0ee5[ALL] 02a14abc485df8a17c79f5f3b1813f5fdec9aabf26e09ba3d3d27ce116d017a48d"}, "vout": 1, "txid": "b16c1b5aae7067de382d15e9da97e0139ff816a0393587bbb22486462027a28e"}], "txid": "99261ba000a3d99432ea08423938b047c5be6b9391d2c3c27a1ae7436c729be8", "blocktime": 1537871767, "version": 1, "confirmations": 11495, "time": 1537871767, "locktime": 0, "vsize": 190, "size": 190}