{"hash": "99284ec187dd6c8fe6888310e25a5b8c4a92d9cf83e1bf7543f6b219dbbc6c12", "blockhash": "0000000000000000000dcc0f55137456b1a82d3642486a52398922ac4d620174", "vout": [{"scriptPubKey": {"reqSigs": 1, "hex": "76a914d243e6abb9a60fbff430b421d2df4b7d59ec186088ac", "addresses": ["1LAnF8h3qMGx3TSwNUHVneBZUEpwE4gu3D"], "asm": "OP_DUP OP_HASH160 d243e6abb9a60fbff430b421d2df4b7d59ec1860 OP_EQUALVERIFY OP_CHECKSIG", "type": "pubkeyhash"}, "value": 0.00076972, "n": 0}, {"scriptPubKey": {"reqSigs": 1, "hex": "76a9143851f34d13937b673a7d24a1950bb5b21ce94af388ac", "addresses": ["168o1kqNquEJeR9vosUB5fw4eAwcVAgh8P"], "asm": "OP_DUP OP_HASH160 3851f34d13937b673a7d24a1950bb5b21ce94af3 OP_EQUALVERIFY OP_CHECKSIG", "type": "pubkeyhash"}, "value": 5.46e-06, "n": 1}, {"scriptPubKey": {"type": "nulldata", "hex": "6a146f6d6e69000000000000001f000001d16daf5600", "asm": "OP_RETURN 6f6d6e69000000000000001f000001d16daf5600"}, "value": 0.0, "n": 2}], "hex": "010000000205c16bb4b0467573d43bebb1e021173676b8ea0ea2f09ec1824aae3596b036b2000000006b483045022100a5f59e95d04e5e5babbcf290cfad918b56fbdd1f8dd1e8e24c089ccac5add89a02204cd2193ae86083d7f724405884657f2a4540228140b856e44c55d40976ec040a012102fa5f4ff99418c93ccb9eaba4efd70c317975a2ba7c6e0932f352d85987888d80ffffffffc6b6520eeeffb244857c57335e73c79a2a9349099fc15062653ae799bfded6a8000000006a47304402201c9d4573f105a1339f9f14eeda6d52a39e3a761974c215930ef3e05bbfaf8ef102204989b53bd6e752d764d6fe5f792199e69dafd4226d828aa53b530455a7eb835401210271977291b74f1f5f5c42157e8aae804664eaaeccfd097918450d37f28fb94d77ffffffff03ac2c0100000000001976a914d243e6abb9a60fbff430b421d2df4b7d59ec186088ac22020000000000001976a9143851f34d13937b673a7d24a1950bb5b21ce94af388ac0000000000000000166a146f6d6e69000000000000001f000001d16daf560000000000", "vin": [{"sequence": 4294967295, "scriptSig": {"hex": "483045022100a5f59e95d04e5e5babbcf290cfad918b56fbdd1f8dd1e8e24c089ccac5add89a02204cd2193ae86083d7f724405884657f2a4540228140b856e44c55d40976ec040a012102fa5f4ff99418c93ccb9eaba4efd70c317975a2ba7c6e0932f352d85987888d80", "asm": "3045022100a5f59e95d04e5e5babbcf290cfad918b56fbdd1f8dd1e8e24c089ccac5add89a02204cd2193ae86083d7f724405884657f2a4540228140b856e44c55d40976ec040a[ALL] 02fa5f4ff99418c93ccb9eaba4efd70c317975a2ba7c6e0932f352d85987888d80"}, "vout": 0, "txid": "b236b09635ae4a82c19ef0a20eeab876361721e0b1eb3bd4737546b0b46bc105"}, {"sequence": 4294967295, "scriptSig": {"hex": "47304402201c9d4573f105a1339f9f14eeda6d52a39e3a761974c215930ef3e05bbfaf8ef102204989b53bd6e752d764d6fe5f792199e69dafd4226d828aa53b530455a7eb835401210271977291b74f1f5f5c42157e8aae804664eaaeccfd097918450d37f28fb94d77", "asm": "304402201c9d4573f105a1339f9f14eeda6d52a39e3a761974c215930ef3e05bbfaf8ef102204989b53bd6e752d764d6fe5f792199e69dafd4226d828aa53b530455a7eb8354[ALL] 0271977291b74f1f5f5c42157e8aae804664eaaeccfd097918450d37f28fb94d77"}, "vout": 0, "txid": "a8d6debf99e73a656250c19f0949932a9ac7735e33577c8544b2ffee0e52b6c6"}], "txid": "99284ec187dd6c8fe6888310e25a5b8c4a92d9cf83e1bf7543f6b219dbbc6c12", "blocktime": 1537870268, "version": 1, "confirmations": 11516, "time": 1537870268, "locktime": 0, "vsize": 404, "size": 404}