{"hash": "85a2bcfb5a79b19ff66a06e098b5dd8d1bb4bca33cfde037488db1fe9e4c47c9", "blockhash": "00000000000000000017f5eb5941039fbcee6240d03bc1f2f8e35350df66a1d8", "vout": [{"scriptPubKey": {"reqSigs": 1, "hex": "00140daef568fd247ad444e2124550f3bfad81418e58", "addresses": ["bc1qpkh0268ay3adg38zzfz4pual4kq5rrjctyxyrl"], "asm": "0 0daef568fd247ad444e2124550f3bfad81418e58", "type": "witness_v0_keyhash"}, "value": 9.6e-06, "n": 0}, {"scriptPubKey": {"reqSigs": 1, "hex": "a914c776f6f43f2ac9f47d326b110497f1d1e3fc673087", "addresses": ["3KsguXZmkGLcg1D4aV6HEkZKkbzjS45svr"], "asm": "OP_HASH160 c776f6f43f2ac9f47d326b110497f1d1e3fc6730 OP_EQUAL", "type": "scripthash"}, "value": 0.00041956, "n": 1}], "hex": "01000000000101fcee36ec8ede0de4b7db072d969636b060894aebe33a7f3dbb6837192731943f0100000000ffffffff02c0030000000000001600140daef568fd247ad444e2124550f3bfad81418e58e4a300000000000017a914c776f6f43f2ac9f47d326b110497f1d1e3fc6730870247304402207051d0ac4082fbef933dc7275c2e53ca08b142ee6db0a1286679ba26ea66d67d02200ddef3df22235f662725f3051fba50fb6eedabc42fcf38973a42a34af51d3700012102eeb605f5e7798fccc7f3bc6beb58924da8c4debe5da2a9f3dcf578dbee25708000000000", "vin": [{"txinwitness": ["304402207051d0ac4082fbef933dc7275c2e53ca08b142ee6db0a1286679ba26ea66d67d02200ddef3df22235f662725f3051fba50fb6eedabc42fcf38973a42a34af51d370001", "02eeb605f5e7798fccc7f3bc6beb58924da8c4debe5da2a9f3dcf578dbee257080"], "sequence": 4294967295, "scriptSig": {"hex": "", "asm": ""}, "vout": 1, "txid": "3f943127193768bb3d7f3ae3eb4a8960b03696962d07dbb7e40dde8eec36eefc"}], "txid": "992acffcbf3ee9a6a27be5a290b07283d323ba655f778c2205202c40e2c5635b", "blocktime": 1537874412, "version": 1, "confirmations": 11467, "time": 1537874412, "locktime": 0, "vsize": 142, "size": 223}