{"hash": "992e9f7c8df180a0b9360bed7733f6f116f1225823c968f20c215376c23f47bf", "blockhash": "0000000000000000000e13cef7c366c0283d82e591d1acd082e914b08063cdf1", "vout": [{"scriptPubKey": {"reqSigs": 1, "hex": "a9143f36fe0e440b4412d257214255420222600e55c187", "addresses": ["37TGNZvF19iCHRRARJtTXtXVXdb3kuWhiH"], "asm": "OP_HASH160 3f36fe0e440b4412d257214255420222600e55c1 OP_EQUAL", "type": "scripthash"}, "value": 0.01349495, "n": 0}], "hex": "01000000014abb1c4cb94da66eb52e400d824a446a10d63de5f72c520f088b524efa9251c2220000006b483045022100871ea9b671b3d9d8681d09f734b1a2932dcb0476824dd1c2fdb0b59667e3630002200a20d8ca69c97584503ba94d862d9b098c541cd59df2464c66ac6470a51aeaef01210239d34714ddee1ac836150af30c3508d681b83e89891c6d9ffb8fc6d647240217ffffffff01779714000000000017a9143f36fe0e440b4412d257214255420222600e55c18700000000", "vin": [{"sequence": 4294967295, "scriptSig": {"hex": "483045022100871ea9b671b3d9d8681d09f734b1a2932dcb0476824dd1c2fdb0b59667e3630002200a20d8ca69c97584503ba94d862d9b098c541cd59df2464c66ac6470a51aeaef01210239d34714ddee1ac836150af30c3508d681b83e89891c6d9ffb8fc6d647240217", "asm": "3045022100871ea9b671b3d9d8681d09f734b1a2932dcb0476824dd1c2fdb0b59667e3630002200a20d8ca69c97584503ba94d862d9b098c541cd59df2464c66ac6470a51aeaef[ALL] 0239d34714ddee1ac836150af30c3508d681b83e89891c6d9ffb8fc6d647240217"}, "vout": 34, "txid": "c25192fa4e528b080f522cf7e53dd6106a444a820d402eb56ea64db94c1cbb4a"}], "txid": "992e9f7c8df180a0b9360bed7733f6f116f1225823c968f20c215376c23f47bf", "blocktime": 1537871767, "version": 1, "confirmations": 11490, "time": 1537871767, "locktime": 0, "vsize": 190, "size": 190}