{"hash": "993a08362553249aa9c1b7016d3b9a84a746180a33e3b4b640e1e67176021e7b", "blockhash": "00000000000000000017f5eb5941039fbcee6240d03bc1f2f8e35350df66a1d8", "vout": [{"scriptPubKey": {"reqSigs": 1, "hex": "a9145abb33acfcf413e011d46b0dd59ab7548d15dcc787", "addresses": ["39xkzpcEwSJ8WUXEijyFYQpHhCj8w8ufHv"], "asm": "OP_HASH160 5abb33acfcf413e011d46b0dd59ab7548d15dcc7 OP_EQUAL", "type": "scripthash"}, "value": 0.01522729, "n": 0}, {"scriptPubKey": {"reqSigs": 1, "hex": "76a9140ad6d65171a675584900110b29204bad03c5979388ac", "addresses": ["1zK84uKeVFTYFr3gKCESTyzZNdtD4QQQv"], "asm": "OP_DUP OP_HASH160 0ad6d65171a675584900110b29204bad03c59793 OP_EQUALVERIFY OP_CHECKSIG", "type": "pubkeyhash"}, "value": 0.20861931, "n": 1}], "hex": "0100000001e6a30a1402b18ea1e8f11e0a0cb3076a18919250d489439c02d5ee5e89476569010000006b4830450221008e89e7a375a3e341e6b906b831f810d05a380b8fbbf163ebf7d729dbe9a8f6db0220090b9205008a46418c4cec99faa487d873a10b374f9db77608b70c969b9e3e5b01210321d66bb2b4f546953efb3e3e20928bedd7e310228dac82a8edde42e2519d88b2ffffffff02293c17000000000017a9145abb33acfcf413e011d46b0dd59ab7548d15dcc787eb533e01000000001976a9140ad6d65171a675584900110b29204bad03c5979388ac00000000", "vin": [{"sequence": 4294967295, "scriptSig": {"hex": "4830450221008e89e7a375a3e341e6b906b831f810d05a380b8fbbf163ebf7d729dbe9a8f6db0220090b9205008a46418c4cec99faa487d873a10b374f9db77608b70c969b9e3e5b01210321d66bb2b4f546953efb3e3e20928bedd7e310228dac82a8edde42e2519d88b2", "asm": "30450221008e89e7a375a3e341e6b906b831f810d05a380b8fbbf163ebf7d729dbe9a8f6db0220090b9205008a46418c4cec99faa487d873a10b374f9db77608b70c969b9e3e5b[ALL] 0321d66bb2b4f546953efb3e3e20928bedd7e310228dac82a8edde42e2519d88b2"}, "vout": 1, "txid": "696547895eeed5029c4389d4509291186a07b30c0a1ef1e8a18eb102140aa3e6"}], "txid": "993a08362553249aa9c1b7016d3b9a84a746180a33e3b4b640e1e67176021e7b", "blocktime": 1537874412, "version": 1, "confirmations": 11467, "time": 1537874412, "locktime": 0, "vsize": 224, "size": 224}