{"hash": "2237b83a741ac964d9de0cf8524da4247e42ba0c6f764f88a835d7e007999cc6", "blockhash": "0000000000000000001f0ddff1eddb255c1121bcd4da4f1bc9a0da00cae72433", "vout": [{"scriptPubKey": {"reqSigs": 1, "hex": "76a914ef23b905854f74b54564c6cb06f4fbf0fd377ee988ac", "addresses": ["1NoTHuc8D9YbULPa6nQ8cepnN2Ny13FPuw"], "asm": "OP_DUP OP_HASH160 ef23b905854f74b54564c6cb06f4fbf0fd377ee9 OP_EQUALVERIFY OP_CHECKSIG", "type": "pubkeyhash"}, "value": 0.085164, "n": 0}, {"scriptPubKey": {"reqSigs": 1, "hex": "a91409166f6487e7094c685d7d5009464c3aa2b658cb87", "addresses": ["32X4t6BneTAxoTGjy3ukxPqz6h7h8GAKSe"], "asm": "OP_HASH160 09166f6487e7094c685d7d5009464c3aa2b658cb OP_EQUAL", "type": "scripthash"}, "value": 0.29497146, "n": 1}], "hex": "0200000000010106bd11028195fb29e883ec94a0cdace97043e4868b066d4fb8da0275068a47720000000017160014bb91c603ddf56715af69c0974762ac0e0e782833feffffff0230f38100000000001976a914ef23b905854f74b54564c6cb06f4fbf0fd377ee988ac3a17c2010000000017a91409166f6487e7094c685d7d5009464c3aa2b658cb8702483045022100b885bd2840708d2a6454ad1c88dac52c68a428116f64d909cb420f645bc042af022013d282473dd252ec3f561d6e8348c21feb2eac3949f3f75ef3119d092b1e2d8f012102b334f988b40c8618847be213ccff235a917553086cccb04710c24640f72d870511490800", "vin": [{"txinwitness": ["3045022100b885bd2840708d2a6454ad1c88dac52c68a428116f64d909cb420f645bc042af022013d282473dd252ec3f561d6e8348c21feb2eac3949f3f75ef3119d092b1e2d8f01", "02b334f988b40c8618847be213ccff235a917553086cccb04710c24640f72d8705"], "sequence": 4294967294, "scriptSig": {"hex": "160014bb91c603ddf56715af69c0974762ac0e0e782833", "asm": "0014bb91c603ddf56715af69c0974762ac0e0e782833"}, "vout": 0, "txid": "72478a067502dab84f6d068b86e44370e9accda094ec83e829fb95810211bd06"}], "txid": "9944ad6b387af772adf2754f49bcaf908f5fe79aa8be24209e95a8a7c5c49048", "blocktime": 1537872018, "version": 2, "confirmations": 11489, "time": 1537872018, "locktime": 542993, "vsize": 168, "size": 250}