{"hash": "3d10951243a4ed4940a8b82b957854db59003c89bf7ab90cc2400f1b91ee5002", "blockhash": "0000000000000000000baef3f32e3676a92c3b2e5da21b426e4f302fc371ce76", "vout": [{"scriptPubKey": {"reqSigs": 1, "hex": "a9140162ecea46260d0f93745e71b00872870aeab27087", "addresses": ["31pM7CLiMxyiq57EBdfqcoJ8XoBGtkCP4D"], "asm": "OP_HASH160 0162ecea46260d0f93745e71b00872870aeab270 OP_EQUAL", "type": "scripthash"}, "value": 0.2250513, "n": 0}, {"scriptPubKey": {"reqSigs": 1, "hex": "76a914d99fa36f26453ce775ff72a8e595f146c3f3387b88ac", "addresses": ["1LqgsVvfgWJjezbqYiAcSAcfXzSdx8JYyR"], "asm": "OP_DUP OP_HASH160 d99fa36f26453ce775ff72a8e595f146c3f3387b OP_EQUALVERIFY OP_CHECKSIG", "type": "pubkeyhash"}, "value": 0.28117387, "n": 1}], "hex": "020000000001010faac95648f7bc025b2ccbd1e7a8e9134ebf27fc4d7cb9246178345a8c0bfab70100000017160014f22cedf984dbe183d9c86f0b217c127a5c9df41efdffffff02aa6657010000000017a9140162ecea46260d0f93745e71b00872870aeab270878b09ad01000000001976a914d99fa36f26453ce775ff72a8e595f146c3f3387b88ac02473044022002d4308818a398671f3c4ff88994865416bb3a832b278f47a8c2e499d2c3ca0202205a858782001ac227ea0f60fa37a6d260cfdd2824a4f7e1b7acb07b15c07c5759012102c427db63b8f0731281572a3e9ff519faaa8f5310e483d433ff49bc9cd61f2bc716490800", "vin": [{"txinwitness": ["3044022002d4308818a398671f3c4ff88994865416bb3a832b278f47a8c2e499d2c3ca0202205a858782001ac227ea0f60fa37a6d260cfdd2824a4f7e1b7acb07b15c07c575901", "02c427db63b8f0731281572a3e9ff519faaa8f5310e483d433ff49bc9cd61f2bc7"], "sequence": 4294967293, "scriptSig": {"hex": "160014f22cedf984dbe183d9c86f0b217c127a5c9df41e", "asm": "0014f22cedf984dbe183d9c86f0b217c127a5c9df41e"}, "vout": 1, "txid": "b7fa0b8c5a34786124b97c4dfc27bf4e13e9a8e7d1cb2c5b02bcf74856c9aa0f"}], "txid": "9947aa3dc7e2613d229b27131f2f29f33afb9e33e66d775873611f933c779cbe", "blocktime": 1537876114, "version": 2, "confirmations": 11462, "time": 1537876114, "locktime": 542998, "vsize": 168, "size": 249}