{"hash": "994bec7251e8b740bb55fd6beaf74c8eb2e3d08ab54ee3f8dd36bbf9d95ff694", "blockhash": "0000000000000000001f0ddff1eddb255c1121bcd4da4f1bc9a0da00cae72433", "vout": [{"scriptPubKey": {"reqSigs": 1, "hex": "a914b90a4190cd7d9bdc8d79d576eb29330d777aa06687", "addresses": ["3JZRDe4XqcnwSfuXZ8zXd5tdXvhhDxZ5mq"], "asm": "OP_HASH160 b90a4190cd7d9bdc8d79d576eb29330d777aa066 OP_EQUAL", "type": "scripthash"}, "value": 0.0156044, "n": 0}, {"scriptPubKey": {"reqSigs": 1, "hex": "76a9148430043d427faee0bf4ebd1f335fee7107ac7ee288ac", "addresses": ["1D3wia6kaQBS1ypgeivjGXwK4aEs6pSGLs"], "asm": "OP_DUP OP_HASH160 8430043d427faee0bf4ebd1f335fee7107ac7ee2 OP_EQUALVERIFY OP_CHECKSIG", "type": "pubkeyhash"}, "value": 0.8733379, "n": 1}], "hex": "0100000001fa94f583bd97439157b6ccd86e2bbb7adc14e03931b38d871328479d95d6d998010000006a47304402207a198f52320d885d70bd53d5e474036ee352bfff19c3820ee1e565ada239a8800220513c66649b81221e8c98e245978c7324161737738971e84baef450577bdae04e012102038977e11287ef85683e8781b2d45525858e6075f4dce76d336f1eb478e2c91effffffff0278cf17000000000017a914b90a4190cd7d9bdc8d79d576eb29330d777aa066879e9b3405000000001976a9148430043d427faee0bf4ebd1f335fee7107ac7ee288ac00000000", "vin": [{"sequence": 4294967295, "scriptSig": {"hex": "47304402207a198f52320d885d70bd53d5e474036ee352bfff19c3820ee1e565ada239a8800220513c66649b81221e8c98e245978c7324161737738971e84baef450577bdae04e012102038977e11287ef85683e8781b2d45525858e6075f4dce76d336f1eb478e2c91e", "asm": "304402207a198f52320d885d70bd53d5e474036ee352bfff19c3820ee1e565ada239a8800220513c66649b81221e8c98e245978c7324161737738971e84baef450577bdae04e[ALL] 02038977e11287ef85683e8781b2d45525858e6075f4dce76d336f1eb478e2c91e"}, "vout": 1, "txid": "98d9d6959d472813878db33139e014dc7abb2b6ed8ccb657914397bd83f594fa"}], "txid": "994bec7251e8b740bb55fd6beaf74c8eb2e3d08ab54ee3f8dd36bbf9d95ff694", "blocktime": 1537872018, "version": 1, "confirmations": 11489, "time": 1537872018, "locktime": 0, "vsize": 223, "size": 223}