{"hash": "86958cf19a9208cbf5e163df4f92a45b49130c5e87ee420f07cc7c14f5965944", "blockhash": "00000000000000000004ffacab907a6b429b9a5745fa0b75af4234bf69dd7176", "vout": [{"scriptPubKey": {"reqSigs": 1, "hex": "76a91464604704691c9c95131937972f753cfc1729174788ac", "addresses": ["1A9jueysNd2NpUf64o2jds2g9KN4XErAxG"], "asm": "OP_DUP OP_HASH160 64604704691c9c95131937972f753cfc17291747 OP_EQUALVERIFY OP_CHECKSIG", "type": "pubkeyhash"}, "value": 0.00310522, "n": 0}, {"scriptPubKey": {"reqSigs": 1, "hex": "a9142af52768b7dd8f634dda84a023fe19874775a8f087", "addresses": ["35c9zCGcpKpWAfrF9tBAYA4CYuaoGJkZCD"], "asm": "OP_HASH160 2af52768b7dd8f634dda84a023fe19874775a8f0 OP_EQUAL", "type": "scripthash"}, "value": 0.01258168, "n": 1}], "hex": "020000000001011bfd9049137171bdfdba7d8d3c12001c1a09a6a694a2b0da2a09f52ceb054b1f0100000017160014c7b623991604abd56449b022306f03d47db152a0feffffff02fabc0400000000001976a91464604704691c9c95131937972f753cfc1729174788acb83213000000000017a9142af52768b7dd8f634dda84a023fe19874775a8f08702483045022100c929d43f205a371d49cef4fef804cb1f318ca5ac9ee2a33eb10eefe3a486db0302202dde077dfb32331c7ab0abcd90f1908360bec50a6545cb2338587295deebee41012102d3707ce2cb595b7e489ce76ef16935e164fbfe3bb15de1f24fb2a4cb0583d92116490800", "vin": [{"txinwitness": ["3045022100c929d43f205a371d49cef4fef804cb1f318ca5ac9ee2a33eb10eefe3a486db0302202dde077dfb32331c7ab0abcd90f1908360bec50a6545cb2338587295deebee4101", "02d3707ce2cb595b7e489ce76ef16935e164fbfe3bb15de1f24fb2a4cb0583d921"], "sequence": 4294967294, "scriptSig": {"hex": "160014c7b623991604abd56449b022306f03d47db152a0", "asm": "0014c7b623991604abd56449b022306f03d47db152a0"}, "vout": 1, "txid": "1f4b05eb2cf5092adab0a294a6a6091a1c00123c8d7dbafdbd7171134990fd1b"}], "txid": "994c616053c0bd819701749cf5f48b725f1452ef5588e284f6f0e0f50205e064", "blocktime": 1537875543, "version": 2, "confirmations": 11464, "time": 1537875543, "locktime": 542998, "vsize": 168, "size": 250}