{"hash": "994fba8b2014bf31ad6453c42a568446ae5ffe4c577b1166db0b097557546439", "blockhash": "00000000000000000017f5eb5941039fbcee6240d03bc1f2f8e35350df66a1d8", "vout": [{"scriptPubKey": {"reqSigs": 1, "hex": "76a914945d901d0d16579a6ba3975dfa56a162081f0ab588ac", "addresses": ["1EXV6FyUx1uRJQjRyNxWA9tPzNFCU9Qgs9"], "asm": "OP_DUP OP_HASH160 945d901d0d16579a6ba3975dfa56a162081f0ab5 OP_EQUALVERIFY OP_CHECKSIG", "type": "pubkeyhash"}, "value": 0.00495913, "n": 0}, {"scriptPubKey": {"type": "nulldata", "hex": "6a146f6d6e69000000000000001f000000e42c8d4800", "asm": "OP_RETURN 6f6d6e69000000000000001f000000e42c8d4800"}, "value": 0.0, "n": 1}, {"scriptPubKey": {"reqSigs": 1, "hex": "76a914a25dec4d0011064ef106a983c39c7a540699f22088ac", "addresses": ["1FoWyxwPXuj4C6abqwhjDWdz6D4PZgYRjA"], "asm": "OP_DUP OP_HASH160 a25dec4d0011064ef106a983c39c7a540699f220 OP_EQUALVERIFY OP_CHECKSIG", "type": "pubkeyhash"}, "value": 5.46e-06, "n": 2}], "hex": "010000000219934e501b727ff613853b18a3450a8e58f8f31d21498112572e65e5090093c4020000006b483045022100f7b419bc3e19bc5bf96e1008a2d6d957a9b4251df6e34400a940a456984914c80220627f2373461f730451bf857d4d0906ef2f59ed0d046fdd6c874cbfc699c82c4d012102b01807b343f08d9ee4a5fea13b6d37657e9d086a1f60adfdfa1cffa1844a8408feffffff09cf7f43efb314ea065de115746a865f1422b9df60984140ba09d361d05277a1020000006b483045022100b147f97e9d24146c47a0bf25dddd6f6abdf6f63e4ed528869fe5134072ebdc2202205853e6d65e87c8e54999ee06c3419234347ead91ee36806c666155cf42d6207f012102b01807b343f08d9ee4a5fea13b6d37657e9d086a1f60adfdfa1cffa1844a8408feffffff0329910700000000001976a914945d901d0d16579a6ba3975dfa56a162081f0ab588ac0000000000000000166a146f6d6e69000000000000001f000000e42c8d480022020000000000001976a914a25dec4d0011064ef106a983c39c7a540699f22088ac15490800", "vin": [{"sequence": 4294967294, "scriptSig": {"hex": "483045022100f7b419bc3e19bc5bf96e1008a2d6d957a9b4251df6e34400a940a456984914c80220627f2373461f730451bf857d4d0906ef2f59ed0d046fdd6c874cbfc699c82c4d012102b01807b343f08d9ee4a5fea13b6d37657e9d086a1f60adfdfa1cffa1844a8408", "asm": "3045022100f7b419bc3e19bc5bf96e1008a2d6d957a9b4251df6e34400a940a456984914c80220627f2373461f730451bf857d4d0906ef2f59ed0d046fdd6c874cbfc699c82c4d[ALL] 02b01807b343f08d9ee4a5fea13b6d37657e9d086a1f60adfdfa1cffa1844a8408"}, "vout": 2, "txid": "c4930009e5652e57128149211df3f8588e0a45a3183b8513f67f721b504e9319"}, {"sequence": 4294967294, "scriptSig": {"hex": "483045022100b147f97e9d24146c47a0bf25dddd6f6abdf6f63e4ed528869fe5134072ebdc2202205853e6d65e87c8e54999ee06c3419234347ead91ee36806c666155cf42d6207f012102b01807b343f08d9ee4a5fea13b6d37657e9d086a1f60adfdfa1cffa1844a8408", "asm": "3045022100b147f97e9d24146c47a0bf25dddd6f6abdf6f63e4ed528869fe5134072ebdc2202205853e6d65e87c8e54999ee06c3419234347ead91ee36806c666155cf42d6207f[ALL] 02b01807b343f08d9ee4a5fea13b6d37657e9d086a1f60adfdfa1cffa1844a8408"}, "vout": 2, "txid": "a17752d061d309ba40419860dfb922145f866a7415e15d06ea14b3ef437fcf09"}], "txid": "994fba8b2014bf31ad6453c42a568446ae5ffe4c577b1166db0b097557546439", "blocktime": 1537874412, "version": 1, "confirmations": 11468, "time": 1537874412, "locktime": 542997, "vsize": 405, "size": 405}