{"hash": "99509ee5548e93bde98945f0704a292d62be7a085020d96b37a8096a599cfb42", "blockhash": "00000000000000000004ffacab907a6b429b9a5745fa0b75af4234bf69dd7176", "vout": [{"scriptPubKey": {"reqSigs": 1, "hex": "76a91471401ff904c68b3c349f79ade836cca2dd96567e88ac", "addresses": ["1BKpB9rAVSGiGT7X6ZQehphG5AoVmvpBxu"], "asm": "OP_DUP OP_HASH160 71401ff904c68b3c349f79ade836cca2dd96567e OP_EQUALVERIFY OP_CHECKSIG", "type": "pubkeyhash"}, "value": 0.01563592, "n": 0}, {"scriptPubKey": {"reqSigs": 1, "hex": "76a914f51a77d71ff9c71524910cb0b17f3a4366231a8188ac", "addresses": ["1PLzG36UAg3dWv1dPZRXciAwdEgEnsQYDg"], "asm": "OP_DUP OP_HASH160 f51a77d71ff9c71524910cb0b17f3a4366231a81 OP_EQUALVERIFY OP_CHECKSIG", "type": "pubkeyhash"}, "value": 0.05334539, "n": 1}], "hex": "01000000017e342bf027a53e4a1789800a0d3ca33adabab494670653354f9159dcd531c4c8010000006b483045022100cde553c37d08671777cb8111a40c6c2910934fa7d42b191d95ade1f098c5b49c0220772a0ad300de270a8654296187e37b996081d140a104d0493d777343a8d9dc20012102e4180337bdfe482d6e494ed06f086e04c499462f96ccf1f2f6c21efb765bd26cffffffff02c8db1700000000001976a91471401ff904c68b3c349f79ade836cca2dd96567e88ac0b665100000000001976a914f51a77d71ff9c71524910cb0b17f3a4366231a8188ac00000000", "vin": [{"sequence": 4294967295, "scriptSig": {"hex": "483045022100cde553c37d08671777cb8111a40c6c2910934fa7d42b191d95ade1f098c5b49c0220772a0ad300de270a8654296187e37b996081d140a104d0493d777343a8d9dc20012102e4180337bdfe482d6e494ed06f086e04c499462f96ccf1f2f6c21efb765bd26c", "asm": "3045022100cde553c37d08671777cb8111a40c6c2910934fa7d42b191d95ade1f098c5b49c0220772a0ad300de270a8654296187e37b996081d140a104d0493d777343a8d9dc20[ALL] 02e4180337bdfe482d6e494ed06f086e04c499462f96ccf1f2f6c21efb765bd26c"}, "vout": 1, "txid": "c8c431d5dc59914f3553066794b4bada3aa33c0d0a8089174a3ea527f02b347e"}], "txid": "99509ee5548e93bde98945f0704a292d62be7a085020d96b37a8096a599cfb42", "blocktime": 1537875543, "version": 1, "confirmations": 11464, "time": 1537875543, "locktime": 0, "vsize": 226, "size": 226}