{"hash": "99542c61182408978960c7a80225b098669db3ed56ec9ea19ba18bd3c3ddea32", "blockhash": "0000000000000000000e13cef7c366c0283d82e591d1acd082e914b08063cdf1", "vout": [{"scriptPubKey": {"reqSigs": 1, "hex": "76a9140f07bf77755e4b551b8ecbfb8442cbd6b58fb85488ac", "addresses": ["12NURDJd8f9LHY4Cez5NhAcgv26t99Fd1S"], "asm": "OP_DUP OP_HASH160 0f07bf77755e4b551b8ecbfb8442cbd6b58fb854 OP_EQUALVERIFY OP_CHECKSIG", "type": "pubkeyhash"}, "value": 0.00195842, "n": 0}, {"scriptPubKey": {"reqSigs": 1, "hex": "76a91406379cca48205eb02d5be0b30cef7203f6904b7788ac", "addresses": ["1ZsgB1UGfvt1QQm4JfRz7ALcBqHU4HzVF"], "asm": "OP_DUP OP_HASH160 06379cca48205eb02d5be0b30cef7203f6904b77 OP_EQUALVERIFY OP_CHECKSIG", "type": "pubkeyhash"}, "value": 0.01377432, "n": 1}], "hex": "0100000001a6bd0e0eb9bd0eec977bce26e8041e4917f2bdf24139d563ed6947183a2dfe00000000006b483045022100835d636c3c9ac52ce0f746b9c8872e6dbf84ce6c7693bc10c7eac4265a4cacfd022071a754bdfe331bcded63b2cb4f915960af8f3efd92e305739c0ec60b00e991c6012103ced532a6752795e1746677919dc74fd57e4904a052b64853dc0b330dc92b3b63fdffffff0202fd0200000000001976a9140f07bf77755e4b551b8ecbfb8442cbd6b58fb85488ac98041500000000001976a91406379cca48205eb02d5be0b30cef7203f6904b7788ac10490800", "vin": [{"sequence": 4294967293, "scriptSig": {"hex": "483045022100835d636c3c9ac52ce0f746b9c8872e6dbf84ce6c7693bc10c7eac4265a4cacfd022071a754bdfe331bcded63b2cb4f915960af8f3efd92e305739c0ec60b00e991c6012103ced532a6752795e1746677919dc74fd57e4904a052b64853dc0b330dc92b3b63", "asm": "3045022100835d636c3c9ac52ce0f746b9c8872e6dbf84ce6c7693bc10c7eac4265a4cacfd022071a754bdfe331bcded63b2cb4f915960af8f3efd92e305739c0ec60b00e991c6[ALL] 03ced532a6752795e1746677919dc74fd57e4904a052b64853dc0b330dc92b3b63"}, "vout": 0, "txid": "00fe2d3a184769ed63d53941f2bdf217491e04e826ce7b97ec0ebdb90e0ebda6"}], "txid": "99542c61182408978960c7a80225b098669db3ed56ec9ea19ba18bd3c3ddea32", "blocktime": 1537871767, "version": 1, "confirmations": 11491, "time": 1537871767, "locktime": 542992, "vsize": 226, "size": 226}