{"hash": "995933ad0b31b7d54712604b63e19d59bc3a2b10d1837c0739b0619b64073c65", "blockhash": "0000000000000000001e0dab787dd257d1dbfcb92a98c2207d5e1078be1f4165", "vout": [{"scriptPubKey": {"reqSigs": 1, "hex": "76a914407cb56eedd1430a31f758da719a526a9ac7864088ac", "addresses": ["16syeC6AGe8XVExZHPcYhCk22KSdF7tPEV"], "asm": "OP_DUP OP_HASH160 407cb56eedd1430a31f758da719a526a9ac78640 OP_EQUALVERIFY OP_CHECKSIG", "type": "pubkeyhash"}, "value": 0.00156199, "n": 0}, {"scriptPubKey": {"reqSigs": 1, "hex": "76a914cdcd852383732b2b9a1216e8e25a551c50c32e5488ac", "addresses": ["1KmBj7PuwL5BZgG6s64Mdrh2Z3ZQEMwYqV"], "asm": "OP_DUP OP_HASH160 cdcd852383732b2b9a1216e8e25a551c50c32e54 OP_EQUALVERIFY OP_CHECKSIG", "type": "pubkeyhash"}, "value": 0.02988831, "n": 1}], "hex": "0100000001f879bb03d73aa93fd77f6e5190735a78d3a8e5ce5c91868fcf551dd62d9a59a3010000006b483045022100ed4299ce34a49e0da5211586e47553dd0ebb83523c5705cd52d69df1991fdd5f022035142383570147b043504a6f6bccbc1a15c51c2f9d9ba5b83d78e2c106b45a130121036f768d3a271fdc2e8a8cef94dbaa5b8c9228388bbd8c4ff31ee80ea0438520a0ffffffff0227620200000000001976a914407cb56eedd1430a31f758da719a526a9ac7864088ac1f9b2d00000000001976a914cdcd852383732b2b9a1216e8e25a551c50c32e5488ac00000000", "vin": [{"sequence": 4294967295, "scriptSig": {"hex": "483045022100ed4299ce34a49e0da5211586e47553dd0ebb83523c5705cd52d69df1991fdd5f022035142383570147b043504a6f6bccbc1a15c51c2f9d9ba5b83d78e2c106b45a130121036f768d3a271fdc2e8a8cef94dbaa5b8c9228388bbd8c4ff31ee80ea0438520a0", "asm": "3045022100ed4299ce34a49e0da5211586e47553dd0ebb83523c5705cd52d69df1991fdd5f022035142383570147b043504a6f6bccbc1a15c51c2f9d9ba5b83d78e2c106b45a13[ALL] 036f768d3a271fdc2e8a8cef94dbaa5b8c9228388bbd8c4ff31ee80ea0438520a0"}, "vout": 1, "txid": "a3599a2dd61d55cf8f86915ccee5a8d3785a7390516e7fd73fa93ad703bb79f8"}], "txid": "995933ad0b31b7d54712604b63e19d59bc3a2b10d1837c0739b0619b64073c65", "blocktime": 1537872475, "version": 1, "confirmations": 11487, "time": 1537872475, "locktime": 0, "vsize": 226, "size": 226}