{"hash": "d5c7f031c7b3f4f6831ef56c01b6cffc635aaac491806591a99082b31aa9bdce", "blockhash": "0000000000000000001f0ddff1eddb255c1121bcd4da4f1bc9a0da00cae72433", "vout": [{"scriptPubKey": {"reqSigs": 1, "hex": "00149a27f88b91a5813463d30a8d9864029f118e852e", "addresses": ["bc1qngnl3zu35kqngc7np2xeseqznugcapfwmlnwz6"], "asm": "0 9a27f88b91a5813463d30a8d9864029f118e852e", "type": "witness_v0_keyhash"}, "value": 0.00999606, "n": 0}, {"scriptPubKey": {"reqSigs": 1, "hex": "0020976df494094e425825b6cd028acaba23c872362044dbceec82782881dbd1bc7b", "addresses": ["bc1qjaklf9qffep9sfdke5pg4j46y0y8yd3qgnduamyz0q5grk73h3asyqgg37"], "asm": "0 976df494094e425825b6cd028acaba23c872362044dbceec82782881dbd1bc7b", "type": "witness_v0_scripthash"}, "value": 0.0025, "n": 1}], "hex": "020000000001040ce8d8a16112ab15550a9294789b65ae8e339dae061631df86f69d01061b953d0000000017160014df2f10d1aaab1eb872be6c1d22771a03dcb06e10feffffffed1cc8df53d3559b8f7495a794f3118d73ddd713ca74a874fb86da73e992c4e900000000171600140b5a1439bff259d83778ec4ed7e7d6ea43e34545fefffffffbc0d6516b006095161d5e8e3c386a36dc056be03247de208d2685eed6c57bad0000000017160014f2b1c4a7cf69ca804a0a5b2acda35b256dd3e342fefffffffc70d97d08b0bc23052b3b18bd366cc298ca6e330b6df263e9ce26688e5685620000000000feffffff02b6400f00000000001600149a27f88b91a5813463d30a8d9864029f118e852e90d0030000000000220020976df494094e425825b6cd028acaba23c872362044dbceec82782881dbd1bc7b02483045022100f94b8d4771e55a683f247347161f7acccc4049a6b4535a058245f89ca92b7fa302205d3303359e351365a27e07c40e9d570c346eb54a3d1450ff10c2e974b6e57d530121029e63b687ccb29324fde14e66b7a5dfc61d789065883c747d94ab088196d2de1c02483045022100c19ca172af2dfca0c6d16bcbcefccec9c7da6389efda7e5c4326df012ba3fd770220570ae3f670bb8192432013f136dae2a1270520d86d4838d417b282693c7695c3012102b6fa373948ed8171d066588cfcf3e1b2bc43a2e5b3eb16d53143ddd0c086efb602483045022100fdb00a6d94bf730322c482f9e9c1745bb6d1d362060ed0a8d4dca9e08955f65102202e15ed2df2d9796fc4fea4ca0d23fd88965e525ee4c0b9b1f99dd1feff33ecfd01210239f40ad194f808e95c3fcd9e55aa6820b89aa722ce2645dee231497fb0ff4d7e02483045022100e305d8b5a502d0c25f01c72cb2770e4a7cdd9bcf4595ebb9fc5c631627bb67ab02202662299c850eea8ecdd61f8885d3e63a835e1054c10b82c0a70795c5cbad9ebd012103412804e06f98c63274cffc3cb7e7954c707d796c3e9654e2a76392740f96c03c00000000", "vin": [{"txinwitness": ["3045022100f94b8d4771e55a683f247347161f7acccc4049a6b4535a058245f89ca92b7fa302205d3303359e351365a27e07c40e9d570c346eb54a3d1450ff10c2e974b6e57d5301", "029e63b687ccb29324fde14e66b7a5dfc61d789065883c747d94ab088196d2de1c"], "sequence": 4294967294, "scriptSig": {"hex": "160014df2f10d1aaab1eb872be6c1d22771a03dcb06e10", "asm": "0014df2f10d1aaab1eb872be6c1d22771a03dcb06e10"}, "vout": 0, "txid": "3d951b06019df686df311606ae9d338eae659b7894920a5515ab1261a1d8e80c"}, {"txinwitness": ["3045022100c19ca172af2dfca0c6d16bcbcefccec9c7da6389efda7e5c4326df012ba3fd770220570ae3f670bb8192432013f136dae2a1270520d86d4838d417b282693c7695c301", "02b6fa373948ed8171d066588cfcf3e1b2bc43a2e5b3eb16d53143ddd0c086efb6"], "sequence": 4294967294, "scriptSig": {"hex": "1600140b5a1439bff259d83778ec4ed7e7d6ea43e34545", "asm": "00140b5a1439bff259d83778ec4ed7e7d6ea43e34545"}, "vout": 0, "txid": "e9c492e973da86fb74a874ca13d7dd738d11f394a795748f9b55d353dfc81ced"}, {"txinwitness": ["3045022100fdb00a6d94bf730322c482f9e9c1745bb6d1d362060ed0a8d4dca9e08955f65102202e15ed2df2d9796fc4fea4ca0d23fd88965e525ee4c0b9b1f99dd1feff33ecfd01", "0239f40ad194f808e95c3fcd9e55aa6820b89aa722ce2645dee231497fb0ff4d7e"], "sequence": 4294967294, "scriptSig": {"hex": "160014f2b1c4a7cf69ca804a0a5b2acda35b256dd3e342", "asm": "0014f2b1c4a7cf69ca804a0a5b2acda35b256dd3e342"}, "vout": 0, "txid": "ad7bc5d6ee85268d20de4732e06b05dc366a383c8e5e1d169560006b51d6c0fb"}, {"txinwitness": ["3045022100e305d8b5a502d0c25f01c72cb2770e4a7cdd9bcf4595ebb9fc5c631627bb67ab02202662299c850eea8ecdd61f8885d3e63a835e1054c10b82c0a70795c5cbad9ebd01", "03412804e06f98c63274cffc3cb7e7954c707d796c3e9654e2a76392740f96c03c"], "sequence": 4294967294, "scriptSig": {"hex": "", "asm": ""}, "vout": 0, "txid": "6285568e6826cee963f26d0b336eca98c26c36bd183b2b0523bcb0087dd970fc"}], "txid": "9959cfe2a6c64447e506685b614e2d8416911dbde75941b8f10608370a0eb5fe", "blocktime": 1537872018, "version": 2, "confirmations": 11489, "time": 1537872018, "locktime": 0, "vsize": 426, "size": 751}