{"hash": "995a899e005484d007c1097345419c8c986292664226cfce2e4463b04dc34062", "blockhash": "0000000000000000001e0dab787dd257d1dbfcb92a98c2207d5e1078be1f4165", "vout": [{"scriptPubKey": {"type": "nulldata", "hex": "6a4c50000077b90001d6d5c92c0fd00b78d3393bafe5bf9ae76da98a211aaf6c953dd567cf27e73c0877eeca33786294573d0bc4a4cecf5baa11f506127da7d21178371d100759d4ba30d2c37bb011d97e02cf", "asm": "OP_RETURN 000077b90001d6d5c92c0fd00b78d3393bafe5bf9ae76da98a211aaf6c953dd567cf27e73c0877eeca33786294573d0bc4a4cecf5baa11f506127da7d21178371d100759d4ba30d2c37bb011d97e02cf"}, "value": 0.0, "n": 0}, {"scriptPubKey": {"reqSigs": 1, "hex": "76a9148f262d14b4eadcc7a5d42dbc1691ce7f2028e3b688ac", "addresses": ["1E3uMxJXYpouSxQeqAqrCpLKJ9Vg8G4Etr"], "asm": "OP_DUP OP_HASH160 8f262d14b4eadcc7a5d42dbc1691ce7f2028e3b6 OP_EQUALVERIFY OP_CHECKSIG", "type": "pubkeyhash"}, "value": 0.00646145, "n": 1}], "hex": "0100000001aeba8392d0f6f1da8eba1a6840a4a58c382b8889476a0f2953e54c42b4e9e39f010000006a47304402201bb2256ad84ea93c893f2575daaa657821e8ca8e4ae21125fd9bef2753149109022044fa903fc1746da43ae12fe7cab6010b7dbf46266a282f08bdef91c991eb1fc8012102bdb88cfe5b3275eb167ae4914b5d8d4c3634ae6f202de64b4aad41071778c6feffffffff020000000000000000536a4c50000077b90001d6d5c92c0fd00b78d3393bafe5bf9ae76da98a211aaf6c953dd567cf27e73c0877eeca33786294573d0bc4a4cecf5baa11f506127da7d21178371d100759d4ba30d2c37bb011d97e02cf01dc0900000000001976a9148f262d14b4eadcc7a5d42dbc1691ce7f2028e3b688ac00000000", "vin": [{"sequence": 4294967295, "scriptSig": {"hex": "47304402201bb2256ad84ea93c893f2575daaa657821e8ca8e4ae21125fd9bef2753149109022044fa903fc1746da43ae12fe7cab6010b7dbf46266a282f08bdef91c991eb1fc8012102bdb88cfe5b3275eb167ae4914b5d8d4c3634ae6f202de64b4aad41071778c6fe", "asm": "304402201bb2256ad84ea93c893f2575daaa657821e8ca8e4ae21125fd9bef2753149109022044fa903fc1746da43ae12fe7cab6010b7dbf46266a282f08bdef91c991eb1fc8[ALL] 02bdb88cfe5b3275eb167ae4914b5d8d4c3634ae6f202de64b4aad41071778c6fe"}, "vout": 1, "txid": "9fe3e9b4424ce553290f6a4789882b388ca5a440681aba8edaf1f6d09283baae"}], "txid": "995a899e005484d007c1097345419c8c986292664226cfce2e4463b04dc34062", "blocktime": 1537872475, "version": 1, "confirmations": 11486, "time": 1537872475, "locktime": 0, "vsize": 283, "size": 283}