{"hash": "995ac8bbd47bbbbd67b34e87121c885e64d6a39f55a77b9f5d83a5238c360ffc", "blockhash": "0000000000000000000dcc0f55137456b1a82d3642486a52398922ac4d620174", "vout": [{"scriptPubKey": {"reqSigs": 1, "hex": "a91476a67de058e60adf6c0b5e431b531728cba84ba387", "addresses": ["3CWP7E573xju7AajkAt2YVWBrGXApg5gWJ"], "asm": "OP_HASH160 76a67de058e60adf6c0b5e431b531728cba84ba3 OP_EQUAL", "type": "scripthash"}, "value": 6.891e-05, "n": 0}, {"scriptPubKey": {"reqSigs": 1, "hex": "76a914bb988b8e0a770859fa88e7e689eeff01e286ada488ac", "addresses": ["1J6v6trxFyVsYCmBP84vsBjTUEZpnAd7HU"], "asm": "OP_DUP OP_HASH160 bb988b8e0a770859fa88e7e689eeff01e286ada4 OP_EQUALVERIFY OP_CHECKSIG", "type": "pubkeyhash"}, "value": 0.0042433, "n": 1}, {"scriptPubKey": {"reqSigs": 1, "hex": "76a914057c3d0017eeb2f5ecd1cd5c69d87b375c49cdef88ac", "addresses": ["1W1DBowADUsCkN1YTJcRJKfFffyDJhsNE"], "asm": "OP_DUP OP_HASH160 057c3d0017eeb2f5ecd1cd5c69d87b375c49cdef OP_EQUALVERIFY OP_CHECKSIG", "type": "pubkeyhash"}, "value": 8.442e-05, "n": 2}], "hex": "0100000004b54caf9f20f92c6af8dcfd3774a929b6e29c9371c1ade6c56b39c7db9fb9374f00000000d9004730440220366bc8b103aa9675d847e4b99f2accfb84d8e7566e0e967e87d4451fd78f7dba0220293331bafa5d8f96e8316c4b2a73a04da676ecc1f15611a0086c482a91e5aebf0147304402205d50305bcfee6e7679cdbacbdf599c7b2696a2e085cf3d4c91003f3dc3a923700220565f3b5d9e628b1533d0bae0ef4f161b3eea0cd0f7e399abaf452da66b6a016d0147522102907a54bed8ad74b3f35638c60114ca240a308cb986f3f2f306178869a8880b61210360118f1a7e4ad1b83f73857638c033a2c3ac8794a23e66fa19d645ca27e2ccd052aeffffffff544e214ce194848f9bdaf3cb9d081f37a93fbc49178a95edd4092da3c88ec8e900000000da00473044022052e0d6568b1bdcf9d9714c4b3fdc79122b8bf3a4dee74f8a21da95a1bf87b5ba02202a65733de1baa30f3e9c934d3a328a5770e104f466d4fcc288263382efb5c03101483045022100959dae20cca38a3bd9488b54587ad106c6105e44f08d67d57f3417243c9bcfb20220040b650dbec73a44e8e31c8b193eafa23afaa4f379266783a7160b3a4d10003a0147522102907a54bed8ad74b3f35638c60114ca240a308cb986f3f2f306178869a8880b612103d2134fe68e441b048f8a4c2603f0d5600d48c0e0e2bf72f51cbf949cdd4d6af652aeffffffff2b655344be2d5a52a45f0446e23092d570ae7a72bb00614f5a7e9e29f130f3e300000000db004830450221008f550ce878fe449995ad7533216b628f2218b2247e8ed4c09f866cb25468811602204d673595637b0f12edd085d4c15c8550c129335c39a1a5bda7af256b026eb44001483045022100a41ce22e11825052faf116e9a2a5ab578a0f5fd9cdd401efb0814b33f5041a9f02206524d50f6af2f51b286e74691aa5cd71491c066cc9e9be94fcf6f87b9cb8c4710147522102907a54bed8ad74b3f35638c60114ca240a308cb986f3f2f306178869a8880b612103868145ffeec5776fc6742d9115ad4491fa74c8c47e3723aa7aaf11cdbd3f548152aefffffffffcea1511da9dde42979036a23ba4827ff4cb6edbe090f5d780c4800a98847621010000006a4730440220306e744640555e6a11d4c6af372cf6650889b1aa6b847f1a0d7d2b2527987a0902204a9d9c10f06c285183612465c9ecd1cf6e0aed96de40ba358e4f809abdd11acb012102d350025cfc64ec2a2b77f7c73189c8a2df514596ec0eeca67eca2f34fc1389cfffffffff03eb1a00000000000017a91476a67de058e60adf6c0b5e431b531728cba84ba3878a790600000000001976a914bb988b8e0a770859fa88e7e689eeff01e286ada488acfa200000000000001976a914057c3d0017eeb2f5ecd1cd5c69d87b375c49cdef88ac00000000", "vin": [{"sequence": 4294967295, "scriptSig": {"hex": "004730440220366bc8b103aa9675d847e4b99f2accfb84d8e7566e0e967e87d4451fd78f7dba0220293331bafa5d8f96e8316c4b2a73a04da676ecc1f15611a0086c482a91e5aebf0147304402205d50305bcfee6e7679cdbacbdf599c7b2696a2e085cf3d4c91003f3dc3a923700220565f3b5d9e628b1533d0bae0ef4f161b3eea0cd0f7e399abaf452da66b6a016d0147522102907a54bed8ad74b3f35638c60114ca240a308cb986f3f2f306178869a8880b61210360118f1a7e4ad1b83f73857638c033a2c3ac8794a23e66fa19d645ca27e2ccd052ae", "asm": "0 30440220366bc8b103aa9675d847e4b99f2accfb84d8e7566e0e967e87d4451fd78f7dba0220293331bafa5d8f96e8316c4b2a73a04da676ecc1f15611a0086c482a91e5aebf[ALL] 304402205d50305bcfee6e7679cdbacbdf599c7b2696a2e085cf3d4c91003f3dc3a923700220565f3b5d9e628b1533d0bae0ef4f161b3eea0cd0f7e399abaf452da66b6a016d[ALL] 522102907a54bed8ad74b3f35638c60114ca240a308cb986f3f2f306178869a8880b61210360118f1a7e4ad1b83f73857638c033a2c3ac8794a23e66fa19d645ca27e2ccd052ae"}, "vout": 0, "txid": "4f37b99fdbc7396bc5e6adc171939ce2b629a97437fddcf86a2cf9209faf4cb5"}, {"sequence": 4294967295, "scriptSig": {"hex": "00473044022052e0d6568b1bdcf9d9714c4b3fdc79122b8bf3a4dee74f8a21da95a1bf87b5ba02202a65733de1baa30f3e9c934d3a328a5770e104f466d4fcc288263382efb5c03101483045022100959dae20cca38a3bd9488b54587ad106c6105e44f08d67d57f3417243c9bcfb20220040b650dbec73a44e8e31c8b193eafa23afaa4f379266783a7160b3a4d10003a0147522102907a54bed8ad74b3f35638c60114ca240a308cb986f3f2f306178869a8880b612103d2134fe68e441b048f8a4c2603f0d5600d48c0e0e2bf72f51cbf949cdd4d6af652ae", "asm": "0 3044022052e0d6568b1bdcf9d9714c4b3fdc79122b8bf3a4dee74f8a21da95a1bf87b5ba02202a65733de1baa30f3e9c934d3a328a5770e104f466d4fcc288263382efb5c031[ALL] 3045022100959dae20cca38a3bd9488b54587ad106c6105e44f08d67d57f3417243c9bcfb20220040b650dbec73a44e8e31c8b193eafa23afaa4f379266783a7160b3a4d10003a[ALL] 522102907a54bed8ad74b3f35638c60114ca240a308cb986f3f2f306178869a8880b612103d2134fe68e441b048f8a4c2603f0d5600d48c0e0e2bf72f51cbf949cdd4d6af652ae"}, "vout": 0, "txid": "e9c88ec8a32d09d4ed958a1749bc3fa9371f089dcbf3da9b8f8494e14c214e54"}, {"sequence": 4294967295, "scriptSig": {"hex": "004830450221008f550ce878fe449995ad7533216b628f2218b2247e8ed4c09f866cb25468811602204d673595637b0f12edd085d4c15c8550c129335c39a1a5bda7af256b026eb44001483045022100a41ce22e11825052faf116e9a2a5ab578a0f5fd9cdd401efb0814b33f5041a9f02206524d50f6af2f51b286e74691aa5cd71491c066cc9e9be94fcf6f87b9cb8c4710147522102907a54bed8ad74b3f35638c60114ca240a308cb986f3f2f306178869a8880b612103868145ffeec5776fc6742d9115ad4491fa74c8c47e3723aa7aaf11cdbd3f548152ae", "asm": "0 30450221008f550ce878fe449995ad7533216b628f2218b2247e8ed4c09f866cb25468811602204d673595637b0f12edd085d4c15c8550c129335c39a1a5bda7af256b026eb440[ALL] 3045022100a41ce22e11825052faf116e9a2a5ab578a0f5fd9cdd401efb0814b33f5041a9f02206524d50f6af2f51b286e74691aa5cd71491c066cc9e9be94fcf6f87b9cb8c471[ALL] 522102907a54bed8ad74b3f35638c60114ca240a308cb986f3f2f306178869a8880b612103868145ffeec5776fc6742d9115ad4491fa74c8c47e3723aa7aaf11cdbd3f548152ae"}, "vout": 0, "txid": "e3f330f1299e7e5a4f6100bb727aae70d59230e246045fa4525a2dbe4453652b"}, {"sequence": 4294967295, "scriptSig": {"hex": "4730440220306e744640555e6a11d4c6af372cf6650889b1aa6b847f1a0d7d2b2527987a0902204a9d9c10f06c285183612465c9ecd1cf6e0aed96de40ba358e4f809abdd11acb012102d350025cfc64ec2a2b77f7c73189c8a2df514596ec0eeca67eca2f34fc1389cf", "asm": "30440220306e744640555e6a11d4c6af372cf6650889b1aa6b847f1a0d7d2b2527987a0902204a9d9c10f06c285183612465c9ecd1cf6e0aed96de40ba358e4f809abdd11acb[ALL] 02d350025cfc64ec2a2b77f7c73189c8a2df514596ec0eeca67eca2f34fc1389cf"}, "vout": 1, "txid": "217684980a80c480d7f590e0db6ecbf47f82a43ba236909742de9dda1115eafc"}], "txid": "995ac8bbd47bbbbd67b34e87121c885e64d6a39f55a77b9f5d83a5238c360ffc", "blocktime": 1537870268, "version": 1, "confirmations": 11518, "time": 1537870268, "locktime": 0, "vsize": 1034, "size": 1034}