{"hash": "995ec908a75bd76a921415c8f3a17e750cd82e293966f0c89325f6f6298bc1c4", "blockhash": "00000000000000000017f5eb5941039fbcee6240d03bc1f2f8e35350df66a1d8", "vout": [{"scriptPubKey": {"reqSigs": 1, "hex": "76a914f35dcbf2f15ad9d2b7ed58debc9f810f9009d8e088ac", "addresses": ["1PBoZit4oFn2uLAQRKL5SzbYhAZgqfxf4S"], "asm": "OP_DUP OP_HASH160 f35dcbf2f15ad9d2b7ed58debc9f810f9009d8e0 OP_EQUALVERIFY OP_CHECKSIG", "type": "pubkeyhash"}, "value": 0.00101014, "n": 0}, {"scriptPubKey": {"reqSigs": 1, "hex": "a914320b87d214a0e60e89955a2c341993a0c73705e987", "addresses": ["36FdXHtALd1UsSEJimFVzYUWL68FoL6o5N"], "asm": "OP_HASH160 320b87d214a0e60e89955a2c341993a0c73705e9 OP_EQUAL", "type": "scripthash"}, "value": 0.0011, "n": 1}], "hex": "010000000155c7882b618ede35c44eb91b9089a0555338d5840fad708e5a2a84039b09413b000000006b483045022100ee3e7dd65dd374801842838df9eafa9449acb82a757fe1f3fc964f7fee805f2f02202540abfa243fe70f529af9d42eb8c1400bc56d0614aa73afe740c71e56a68895012103221b291e8f0653c8548a93e4702bfd8a28c083d7e846b5d0f92e46f43d040d85ffffffff02968a0100000000001976a914f35dcbf2f15ad9d2b7ed58debc9f810f9009d8e088acb0ad01000000000017a914320b87d214a0e60e89955a2c341993a0c73705e98700000000", "vin": [{"sequence": 4294967295, "scriptSig": {"hex": "483045022100ee3e7dd65dd374801842838df9eafa9449acb82a757fe1f3fc964f7fee805f2f02202540abfa243fe70f529af9d42eb8c1400bc56d0614aa73afe740c71e56a68895012103221b291e8f0653c8548a93e4702bfd8a28c083d7e846b5d0f92e46f43d040d85", "asm": "3045022100ee3e7dd65dd374801842838df9eafa9449acb82a757fe1f3fc964f7fee805f2f02202540abfa243fe70f529af9d42eb8c1400bc56d0614aa73afe740c71e56a68895[ALL] 03221b291e8f0653c8548a93e4702bfd8a28c083d7e846b5d0f92e46f43d040d85"}, "vout": 0, "txid": "3b41099b03842a5a8e70ad0f84d5385355a089901bb94ec435de8e612b88c755"}], "txid": "995ec908a75bd76a921415c8f3a17e750cd82e293966f0c89325f6f6298bc1c4", "blocktime": 1537874412, "version": 1, "confirmations": 11468, "time": 1537874412, "locktime": 0, "vsize": 224, "size": 224}