{"hash": "99621db7c4f7d8451acf6552ad5c544ceb53bca7b58007d4883770c21d96c055", "blockhash": "00000000000000000004ffacab907a6b429b9a5745fa0b75af4234bf69dd7176", "vout": [{"scriptPubKey": {"reqSigs": 1, "hex": "76a9148930b8857e682897cf736c36dd2c17974d194bef88ac", "addresses": ["1DWPwThkr8fyDkDrsuD4i6zRVK2UNvVAr6"], "asm": "OP_DUP OP_HASH160 8930b8857e682897cf736c36dd2c17974d194bef OP_EQUALVERIFY OP_CHECKSIG", "type": "pubkeyhash"}, "value": 0.1505796, "n": 0}, {"scriptPubKey": {"reqSigs": 1, "hex": "76a914e383426bfe70edb79d911665567656f00c35a3ae88ac", "addresses": ["1MjydcY7QaiTUDHf3fVUSvZzwE45hiGVRQ"], "asm": "OP_DUP OP_HASH160 e383426bfe70edb79d911665567656f00c35a3ae OP_EQUALVERIFY OP_CHECKSIG", "type": "pubkeyhash"}, "value": 0.00788, "n": 1}], "hex": "0100000001270bbe0b401a2e42c9695250f43e27166562ed9b767d62adc4f7a1022cbba907000000006b483045022100e1907c0cfc63a46137b672b2a2d5df3bf3b3d7b857774bfda7fb0e21c91497a10220714080eab12ab7296d6df43dfb7273186edfda2d6c7364f9366b602276741773012102b44c63123adb0d63ac83886c8e8b61bb00078d85d43cafcd785f39647a7415f0feffffff0228c4e500000000001976a9148930b8857e682897cf736c36dd2c17974d194bef88ac20060c00000000001976a914e383426bfe70edb79d911665567656f00c35a3ae88acde480800", "vin": [{"sequence": 4294967294, "scriptSig": {"hex": "483045022100e1907c0cfc63a46137b672b2a2d5df3bf3b3d7b857774bfda7fb0e21c91497a10220714080eab12ab7296d6df43dfb7273186edfda2d6c7364f9366b602276741773012102b44c63123adb0d63ac83886c8e8b61bb00078d85d43cafcd785f39647a7415f0", "asm": "3045022100e1907c0cfc63a46137b672b2a2d5df3bf3b3d7b857774bfda7fb0e21c91497a10220714080eab12ab7296d6df43dfb7273186edfda2d6c7364f9366b602276741773[ALL] 02b44c63123adb0d63ac83886c8e8b61bb00078d85d43cafcd785f39647a7415f0"}, "vout": 0, "txid": "07a9bb2c02a1f7c4ad627d769bed626516273ef4505269c9422e1a400bbe0b27"}], "txid": "99621db7c4f7d8451acf6552ad5c544ceb53bca7b58007d4883770c21d96c055", "blocktime": 1537875543, "version": 1, "confirmations": 11464, "time": 1537875543, "locktime": 542942, "vsize": 226, "size": 226}