{"hash": "c832219aab0c3c1048c8485ec114eda8213b6949f4f9342f80aab79dea306e81", "blockhash": "000000000000000000022b45ed06c6f4ccd3cf7fb5ba4856ebd2e58215665228", "vout": [{"scriptPubKey": {"reqSigs": 1, "hex": "a914cfaabfe8c271f99a4364b5197ba50c6cddb7adb987", "addresses": ["3Ld4M9RPwEG3VeQbHcC1PsKUndQL7VYLZP"], "asm": "OP_HASH160 cfaabfe8c271f99a4364b5197ba50c6cddb7adb9 OP_EQUAL", "type": "scripthash"}, "value": 0.00069303, "n": 0}, {"scriptPubKey": {"reqSigs": 1, "hex": "a91483d3c2eaf6b1867f466f979a981ec04d5c1ea89d87", "addresses": ["3Di487XjBpz2Xu5tQ6UJ4QAY3Ejfrs9Udq"], "asm": "OP_HASH160 83d3c2eaf6b1867f466f979a981ec04d5c1ea89d OP_EQUAL", "type": "scripthash"}, "value": 0.02591031, "n": 1}], "hex": "0100000000010167d347a0582b62edeb9134f2bbef8f33a10575c75a37762a34da23150e16a39701000000232200208355c494ed16d8db89bf77977df100f781a79e2d116d882f17737d1e081ad624ffffffff02b70e01000000000017a914cfaabfe8c271f99a4364b5197ba50c6cddb7adb987378927000000000017a91483d3c2eaf6b1867f466f979a981ec04d5c1ea89d8704004730440220448b1ac9d5417c48dd394a85aa57eeaf951ce6ce385c5256ebb86ee2f45c126a02206bead47d76b15d7e289e6d0c650e599415dffe7b8a51136ef64518717ed10e7d01483045022100b3f694895dd2fdee87b1b0c1cb44609ec8db2087344633d7c325d30a9413402402206e0966680bdcd219a1b9bebc585ca3f22a8ef5fde5559974826dc627cb5da658014752210278d03506daf3543a11038d58711bd566da9172845f5c52dc3f25c909765cff6921033e4af03ed09dbd8a417ba042650d5bd1db7f14f271a8f660974e3abf1fdfa4da52ae00000000", "vin": [{"txinwitness": ["", "30440220448b1ac9d5417c48dd394a85aa57eeaf951ce6ce385c5256ebb86ee2f45c126a02206bead47d76b15d7e289e6d0c650e599415dffe7b8a51136ef64518717ed10e7d01", "3045022100b3f694895dd2fdee87b1b0c1cb44609ec8db2087344633d7c325d30a9413402402206e0966680bdcd219a1b9bebc585ca3f22a8ef5fde5559974826dc627cb5da65801", "52210278d03506daf3543a11038d58711bd566da9172845f5c52dc3f25c909765cff6921033e4af03ed09dbd8a417ba042650d5bd1db7f14f271a8f660974e3abf1fdfa4da52ae"], "sequence": 4294967295, "scriptSig": {"hex": "2200208355c494ed16d8db89bf77977df100f781a79e2d116d882f17737d1e081ad624", "asm": "00208355c494ed16d8db89bf77977df100f781a79e2d116d882f17737d1e081ad624"}, "vout": 1, "txid": "97a3160e1523da342a76375ac77505a1338fefbbf23491ebed622b58a047d367"}], "txid": "99690a33defd9efdf95d5a6976a44464905ce845216df16cb59f1497e45d8b27", "blocktime": 1537869901, "version": 1, "confirmations": 11524, "time": 1537869901, "locktime": 0, "vsize": 206, "size": 371}