{"hash": "996bc28ff36665cd738aa93c966c1489352b42b74af82c344cdd9d38054c8fbc", "blockhash": "00000000000000000004ffacab907a6b429b9a5745fa0b75af4234bf69dd7176", "vout": [{"scriptPubKey": {"reqSigs": 1, "hex": "76a9147b51400ef80d0896d8d4df8c1df35e61f5a7841688ac", "addresses": ["1CF3SxgNsXsXoonz5uX4m1n1AU7rASUBoU"], "asm": "OP_DUP OP_HASH160 7b51400ef80d0896d8d4df8c1df35e61f5a78416 OP_EQUALVERIFY OP_CHECKSIG", "type": "pubkeyhash"}, "value": 0.02296, "n": 0}, {"scriptPubKey": {"reqSigs": 1, "hex": "a914e370231feecbfc25e2e2423a5a79bf79bfdca59887", "addresses": ["3NRbeX3vD5VaVE4TDU9ivCDsEf7NPPte6J"], "asm": "OP_HASH160 e370231feecbfc25e2e2423a5a79bf79bfdca598 OP_EQUAL", "type": "scripthash"}, "value": 3.03989317, "n": 1}], "hex": "0100000001359402a19a797c4ff7e54ca9aa1b6d220813f61ba7e06b62f2e724a65438266e01000000d9004730440220370cb89edde45d9caa3a1f92b7253967697b8ddb72c23031bec4c0f44a5ae539022003c2aee9c420cd00e3d6e0a4e03449c249ee43a915f34dc4f550e32aeca3f2ae014730440220358fcb709475e039e195d751494933de2b5172d0e63011271ab122fd230c413e02201799094890899bf61172fcac7ba514f6d4f7923caf24754b41e86f3f6dbf25e2014752210327881b6abce6535553a3ce21fad12a7d74fd237ce7c4cd270a267162344e3082210256141f8eb687f5a68c5cc65054652dc25116fa285e44d72b44368827ffe77d9a52aeffffffff02c0082300000000001976a9147b51400ef80d0896d8d4df8c1df35e61f5a7841688ac45821e120000000017a914e370231feecbfc25e2e2423a5a79bf79bfdca5988700000000", "vin": [{"sequence": 4294967295, "scriptSig": {"hex": "004730440220370cb89edde45d9caa3a1f92b7253967697b8ddb72c23031bec4c0f44a5ae539022003c2aee9c420cd00e3d6e0a4e03449c249ee43a915f34dc4f550e32aeca3f2ae014730440220358fcb709475e039e195d751494933de2b5172d0e63011271ab122fd230c413e02201799094890899bf61172fcac7ba514f6d4f7923caf24754b41e86f3f6dbf25e2014752210327881b6abce6535553a3ce21fad12a7d74fd237ce7c4cd270a267162344e3082210256141f8eb687f5a68c5cc65054652dc25116fa285e44d72b44368827ffe77d9a52ae", "asm": "0 30440220370cb89edde45d9caa3a1f92b7253967697b8ddb72c23031bec4c0f44a5ae539022003c2aee9c420cd00e3d6e0a4e03449c249ee43a915f34dc4f550e32aeca3f2ae[ALL] 30440220358fcb709475e039e195d751494933de2b5172d0e63011271ab122fd230c413e02201799094890899bf61172fcac7ba514f6d4f7923caf24754b41e86f3f6dbf25e2[ALL] 52210327881b6abce6535553a3ce21fad12a7d74fd237ce7c4cd270a267162344e3082210256141f8eb687f5a68c5cc65054652dc25116fa285e44d72b44368827ffe77d9a52ae"}, "vout": 1, "txid": "6e263854a624e7f2626be0a71bf61308226d1baaa94ce5f74f7c799aa1029435"}], "txid": "996bc28ff36665cd738aa93c966c1489352b42b74af82c344cdd9d38054c8fbc", "blocktime": 1537875543, "version": 1, "confirmations": 11464, "time": 1537875543, "locktime": 0, "vsize": 334, "size": 334}