{"hash": "e1241028098bef1891d841064754aef1c763991ffce8601042e16ced43931fad", "blockhash": "0000000000000000001e0dab787dd257d1dbfcb92a98c2207d5e1078be1f4165", "vout": [{"scriptPubKey": {"reqSigs": 1, "hex": "a9147ab6e7e15737245943b6d11b7bc7d6e6c9ab5bc487", "addresses": ["3CssUTqpiso6ddUbms9SRWXw7iGncWuLdm"], "asm": "OP_HASH160 7ab6e7e15737245943b6d11b7bc7d6e6c9ab5bc4 OP_EQUAL", "type": "scripthash"}, "value": 0.00049631, "n": 0}, {"scriptPubKey": {"reqSigs": 1, "hex": "00148c45033cc8f12a094c2de54b2000fab8db6fed0a", "addresses": ["bc1q33zsx0xg7y4qjnpdu49jqq86hrdklmg27jyn4h"], "asm": "0 8c45033cc8f12a094c2de54b2000fab8db6fed0a", "type": "witness_v0_keyhash"}, "value": 1.05e-05, "n": 1}], "hex": "01000000000101c1a7fc4b46124c50e420f25343df0004208b23c34657713eb595973cb5d3146d0000000000ffffffff02dfc100000000000017a9147ab6e7e15737245943b6d11b7bc7d6e6c9ab5bc4871a040000000000001600148c45033cc8f12a094c2de54b2000fab8db6fed0a0247304402203a7c31612f1e43e2ed5f56a0d25cf4d22ea6bbd3aaaf08dddcfe9734f1d241c802205479cda78927e4b40cb23c8d8668d70430a4bd9babb37ff16202d67e95c6d09f012102a8584ca0d3063280af4375301416e5e1ec582e5428530231d145712201ff1ef800000000", "vin": [{"txinwitness": ["304402203a7c31612f1e43e2ed5f56a0d25cf4d22ea6bbd3aaaf08dddcfe9734f1d241c802205479cda78927e4b40cb23c8d8668d70430a4bd9babb37ff16202d67e95c6d09f01", "02a8584ca0d3063280af4375301416e5e1ec582e5428530231d145712201ff1ef8"], "sequence": 4294967295, "scriptSig": {"hex": "", "asm": ""}, "vout": 0, "txid": "6d14d3b53c9795b53e715746c3238b200400df4353f220e4504c12464bfca7c1"}], "txid": "996fb0143a4c2620b906ddd0cbe19581b86e777a59e59e775170a8803392cebc", "blocktime": 1537872475, "version": 1, "confirmations": 11486, "time": 1537872475, "locktime": 0, "vsize": 142, "size": 223}