{"hash": "99717e0fd063389915dae65522a32c474e87443d3f51fcda1d17ffd51ad6863a", "blockhash": "00000000000000000018f53835495a110e01622372bf6ae95dc86f2b0ab887b0", "vout": [{"scriptPubKey": {"reqSigs": 1, "hex": "76a914946378c1126a4c16dd23a0fffe6db5760e160c8388ac", "addresses": ["1EXcAoijNSE5DFXr1xXZkNHeyZZeu717mK"], "asm": "OP_DUP OP_HASH160 946378c1126a4c16dd23a0fffe6db5760e160c83 OP_EQUALVERIFY OP_CHECKSIG", "type": "pubkeyhash"}, "value": 0.0046614, "n": 0}, {"scriptPubKey": {"reqSigs": 1, "hex": "76a9144e3c2b5ee66d02dd5c595d2e36a64c4caf02975f88ac", "addresses": ["188fncDS9e2cd2TCfnwnx9CcSQLKPf1HmS"], "asm": "OP_DUP OP_HASH160 4e3c2b5ee66d02dd5c595d2e36a64c4caf02975f OP_EQUALVERIFY OP_CHECKSIG", "type": "pubkeyhash"}, "value": 0.00315147, "n": 1}], "hex": "02000000028978afb60e46fd24d550d8d11f0519298c6a91a44878d56e9755b701077335f2010000006b483045022100b8417f34908b84ba774d4a591139fdaa6b06ec5d6b8b4b8ebea4722963d7026402206dd38cbfe5c647fc7a20bf8ea284a4f52febddfb3b99df7e8cf276252a7022b30121037ef73a1962d70323be2aeedf792aa41a7e4970dd5a77902d8b9d438164e58d35ffffffffc2510325327fee83565c1adcc78414ad23582a165d41ed5cfa479692a0c270ae010000006b483045022100aca16b6f8526099f2885702d7e08415779d7678d9d76ab6c0f0a38fb33d5023202200ca34a2eadfda21606e9ed0a7085324f0c6316782aa40432bad875f89a84f7df0121037ef73a1962d70323be2aeedf792aa41a7e4970dd5a77902d8b9d438164e58d35ffffffff02dc1c0700000000001976a914946378c1126a4c16dd23a0fffe6db5760e160c8388ac0bcf0400000000001976a9144e3c2b5ee66d02dd5c595d2e36a64c4caf02975f88ac00000000", "vin": [{"sequence": 4294967295, "scriptSig": {"hex": "483045022100b8417f34908b84ba774d4a591139fdaa6b06ec5d6b8b4b8ebea4722963d7026402206dd38cbfe5c647fc7a20bf8ea284a4f52febddfb3b99df7e8cf276252a7022b30121037ef73a1962d70323be2aeedf792aa41a7e4970dd5a77902d8b9d438164e58d35", "asm": "3045022100b8417f34908b84ba774d4a591139fdaa6b06ec5d6b8b4b8ebea4722963d7026402206dd38cbfe5c647fc7a20bf8ea284a4f52febddfb3b99df7e8cf276252a7022b3[ALL] 037ef73a1962d70323be2aeedf792aa41a7e4970dd5a77902d8b9d438164e58d35"}, "vout": 1, "txid": "f235730701b755976ed57848a4916a8c2919051fd1d850d524fd460eb6af7889"}, {"sequence": 4294967295, "scriptSig": {"hex": "483045022100aca16b6f8526099f2885702d7e08415779d7678d9d76ab6c0f0a38fb33d5023202200ca34a2eadfda21606e9ed0a7085324f0c6316782aa40432bad875f89a84f7df0121037ef73a1962d70323be2aeedf792aa41a7e4970dd5a77902d8b9d438164e58d35", "asm": "3045022100aca16b6f8526099f2885702d7e08415779d7678d9d76ab6c0f0a38fb33d5023202200ca34a2eadfda21606e9ed0a7085324f0c6316782aa40432bad875f89a84f7df[ALL] 037ef73a1962d70323be2aeedf792aa41a7e4970dd5a77902d8b9d438164e58d35"}, "vout": 1, "txid": "ae70c2a0929647fa5ced415d162a5823ad1484c7dc1a5c5683ee7f32250351c2"}], "txid": "99717e0fd063389915dae65522a32c474e87443d3f51fcda1d17ffd51ad6863a", "blocktime": 1537870928, "version": 2, "confirmations": 11512, "time": 1537870928, "locktime": 0, "vsize": 374, "size": 374}