{"hash": "9974558b11204135f0d7c9a02c064a6873b1b6435d707dce73d53ac20b6e8f4c", "blockhash": "000000000000000000022b45ed06c6f4ccd3cf7fb5ba4856ebd2e58215665228", "vout": [{"scriptPubKey": {"reqSigs": 1, "hex": "76a9144a0f1e2f2b0d7daeec5265f10bbbbe08ed725e8988ac", "addresses": ["17kb7c9ndg7ioSuzMWEHWECdEVUegNkcGc"], "asm": "OP_DUP OP_HASH160 4a0f1e2f2b0d7daeec5265f10bbbbe08ed725e89 OP_EQUALVERIFY OP_CHECKSIG", "type": "pubkeyhash"}, "value": 0.09450366, "n": 0}], "hex": "01000000017beb982716eb24a36386f55c21de481cc2d575fd72298125d308d170b8a20ee5000000006a47304402200e6029e48e19f37ee32969a9caf7bfc1c1ca43826cdfb011cc562656a39712dd02205d57317e3e4cebe0a28b10c0f9df5310fb7112e83485c271d9063f247f0458e3012103bfa6c2949fc2fc270ff31a54f0f6288c3d55895a393e313525b71f991c990bd0ffffffff017e339000000000001976a9144a0f1e2f2b0d7daeec5265f10bbbbe08ed725e8988ac00000000", "vin": [{"sequence": 4294967295, "scriptSig": {"hex": "47304402200e6029e48e19f37ee32969a9caf7bfc1c1ca43826cdfb011cc562656a39712dd02205d57317e3e4cebe0a28b10c0f9df5310fb7112e83485c271d9063f247f0458e3012103bfa6c2949fc2fc270ff31a54f0f6288c3d55895a393e313525b71f991c990bd0", "asm": "304402200e6029e48e19f37ee32969a9caf7bfc1c1ca43826cdfb011cc562656a39712dd02205d57317e3e4cebe0a28b10c0f9df5310fb7112e83485c271d9063f247f0458e3[ALL] 03bfa6c2949fc2fc270ff31a54f0f6288c3d55895a393e313525b71f991c990bd0"}, "vout": 0, "txid": "e50ea2b870d108d325812972fd75d5c21c48de215cf58663a324eb162798eb7b"}], "txid": "9974558b11204135f0d7c9a02c064a6873b1b6435d707dce73d53ac20b6e8f4c", "blocktime": 1537869901, "version": 1, "confirmations": 11522, "time": 1537869901, "locktime": 0, "vsize": 191, "size": 191}