{"hash": "99756e9732b8398b8acd2b323b6f85f12e9929b5c12dd2839b6ed38b63bd7ccb", "blockhash": "000000000000000000205f8b0775d31398ef75b89a5e8ec8d2c57b4dc0ac4c20", "vout": [{"scriptPubKey": {"reqSigs": 1, "hex": "76a9149879c6d21121ffdeaa6daef7b410742d6db1efe188ac", "addresses": ["1EuDbMAgNtqjmsaGQbp3bRzzSk4Z6618oN"], "asm": "OP_DUP OP_HASH160 9879c6d21121ffdeaa6daef7b410742d6db1efe1 OP_EQUALVERIFY OP_CHECKSIG", "type": "pubkeyhash"}, "value": 0.14721214, "n": 0}, {"scriptPubKey": {"reqSigs": 1, "hex": "76a914cfc9b733fc204abdc551499a30141a3d3dda1e8888ac", "addresses": ["1KwgXA7MYKZFEr5XtHbnhKmfLtYab9wpvo"], "asm": "OP_DUP OP_HASH160 cfc9b733fc204abdc551499a30141a3d3dda1e88 OP_EQUALVERIFY OP_CHECKSIG", "type": "pubkeyhash"}, "value": 2.18436772, "n": 1}], "hex": "01000000018287a1643e45fe0fad8c6b2d3f401328f9f39431b66a2272aeb873fd968fc0d9010000006a4730440220706fe595f2d787109ed40c1aa9a098f435e03f8e86b9bafae74d87835d4effda022009934cd00a036560bf8b645b2ed8485f7536610a213c5676c0b3e533350d1afc012102138805d70494f068fb2740f0aab417011b1f131b0dd5fce0f6b5219c27f1b4dafdffffff02bea0e000000000001976a9149879c6d21121ffdeaa6daef7b410742d6db1efe188aca414050d000000001976a914cfc9b733fc204abdc551499a30141a3d3dda1e8888ac0c490800", "vin": [{"sequence": 4294967293, "scriptSig": {"hex": "4730440220706fe595f2d787109ed40c1aa9a098f435e03f8e86b9bafae74d87835d4effda022009934cd00a036560bf8b645b2ed8485f7536610a213c5676c0b3e533350d1afc012102138805d70494f068fb2740f0aab417011b1f131b0dd5fce0f6b5219c27f1b4da", "asm": "30440220706fe595f2d787109ed40c1aa9a098f435e03f8e86b9bafae74d87835d4effda022009934cd00a036560bf8b645b2ed8485f7536610a213c5676c0b3e533350d1afc[ALL] 02138805d70494f068fb2740f0aab417011b1f131b0dd5fce0f6b5219c27f1b4da"}, "vout": 1, "txid": "d9c08f96fd73b8ae72226ab63194f3f92813403f2d6b8cad0ffe453e64a18782"}], "txid": "99756e9732b8398b8acd2b323b6f85f12e9929b5c12dd2839b6ed38b63bd7ccb", "blocktime": 1537871175, "version": 1, "confirmations": 11511, "time": 1537871175, "locktime": 542988, "vsize": 225, "size": 225}