{"hash": "997a5cfc774bed32d5534ec81886ab8d2fad22404b3bf473a813dbdbce9d5a3e", "blockhash": "00000000000000000017f5eb5941039fbcee6240d03bc1f2f8e35350df66a1d8", "vout": [{"scriptPubKey": {"reqSigs": 1, "hex": "21020e46e79a2a8d12b9b5d12c7a91adb4e454edfae43c0a0cb805427d2ac7613fd9ac", "addresses": ["1P3rU1Nk1pmc2BiWC8dEy9bZa1ZbMp5jfg"], "asm": "020e46e79a2a8d12b9b5d12c7a91adb4e454edfae43c0a0cb805427d2ac7613fd9 OP_CHECKSIG", "type": "pubkey"}, "value": 0.000988, "n": 0}, {"scriptPubKey": {"type": "nulldata", "hex": "6a2849186977347bb1a943925db32273a8988b8d0c43d055a53dfe59ac80a21abf0d1aa40f004b4d4400", "asm": "OP_RETURN 49186977347bb1a943925db32273a8988b8d0c43d055a53dfe59ac80a21abf0d1aa40f004b4d4400"}, "value": 0.0, "n": 1}], "hex": "010000000dd5e4d853389ccfda2690e704a8f08838a101274f1223697ebb98db81db378187030000004847304402201189d04b9c3da014305300abfb656df576538471535451490bccfe55350b415602203ee073873589666211fa2ba0c0ebaaa25f3bb0836162d8048dcd9b54437fccf501ffffffff31e966684821478b9863da1e4f3dbe8b6534958e726b5032a8cf3f860517518302000000484730440220325951ca194336e8e3844ff9f95b19765180f10f2db3f520397816a802ed5cdb02200b4fb890d7113bb78001452a5cd2320a394355a763766bf5401a6b5e064fc73b01ffffffff8406cda80cb1265e4bd2097043695a390b5ec2bd5f09fdcf1efe981d45876c871400000049483045022100a280e9dd33b872523e28ef2bc0f82c208fc85fd7561bc2e36b002ee1526e8ead0220337fce33ea0e2387b72b269e8890888834815a0799eedaff1b6043cf703d67b101ffffffff191bf2d1719df2f926c1356405327e829e4d0fa41ae435235b595e8f6070b13205000000484730440220134c2154f69665677a33cd0cdcabc272401cd70d21a1e3c0572926d6890086cb022012e20b374491ffe43a04510d319d9735b5c57b057107330f567565c44188955b01ffffffff1849d33c72b9840c8bfd7f88fd6401576d491b72b7c192bdfcca9dc2f995591f0600000049483045022100cf3d3fb0104ac3429f2a08ff831b440097d6c11bc7a69c080056b96ee09875db0220682210c6b9376f51414c593d03f635eafbcd00cac5279a513d753f8833c6f58901ffffffffe0b915302b850dd587a409a7fa470fa5d56cc3226a7a2fa60176c70b15ae1da81000000049483045022100b4fabbcd5db73185bb89c7e9dd1b7510b6bf74d7b4b4aacc5894a7c3f03e3f3c02206ef089e6cfb7d7889130b9bf44d4cc7266d03678510280414b8907603fbf093001ffffffff6ce8196e954392b65ab7841b7aa156b4fc829941a5996c569687e994e0aff660280000004847304402202bf91706512501e050f7808d33825ed08a3b1118d74605b12bd11a0cbb0d2c5702201eac6fd57661947934b8e17cb50eadab7147a5eded3b9bc5840075bc67f9ee8201ffffffff33f584267a487a22a939249f5539249d638140e24298debb3925dd15c693ac4d090000004948304502210092f6571cda44ae4403ed970e1fd724762366ed0a0f908431ad3e2a2078278daf02203589edb364ee06b54dad55fdd124161468d5f6f608fd8ce190dac0652bf59c2701ffffffff519b50e22004d459bdc5673d606e67e65db4c566398dd98f376e5258fd70e4fa0a00000048473044022051ed1de30e72c7b89f327fb12cdbc65cfdb28f074bf3f9208f3bcf04891cfb67022075a581e3bde246ee47936f8d256d87870b8eb6276792790a97b776c351d75b5601fffffffff386c317365b301861ae45a8aedd420ad5f440aa337e2d3b1fd233074340134d0100000049483045022100ce83d09fea731dd7857cc04f97b7bfdb3a67b2d8ff98dd2736f3ea99893041ff02201ce20fc0878e08ba5ef839da3a98da75c3d3e30213d3e91da410e5d250639db101ffffffffc66ac79d688bcf5674d83624d72da160094bc7965ee21a685ab98a2416d5ce3a0300000048473044022076fe35cbc0480387166fa98f812a0408a5bb21603e9aecd82636763f41ed144d02206feba6ab5722f5c365ca1c3ef09b8df941d756f390e44d03e4e47164f67b4ad201ffffffff0498deda7be530837c14d8d84d37cb6a5c7ba0c663c6e73f75b09918aa60c3890800000049483045022100ca2e0a814222fe5993c51499a437f3e4d1ddab1a3a742b9d5d301f89cf583a70022008bbf26cf038fe81fb4971c037816c3b70b675320805ada1baf569bb61b86ecf01ffffffff1c4f723638f55e300d188968a331e1aea6dd60d2b2123ee702d21f23eda7008b030000004847304402200217a25dd2681ae8a8a76756fbb59468f55700da1785c24964a4a5a712a3189302205a35b87a53a22acb6fb09b32f864667e1f60d25f806490b2f7400e254c98bc0001ffffffff02f0810100000000002321020e46e79a2a8d12b9b5d12c7a91adb4e454edfae43c0a0cb805427d2ac7613fd9ac00000000000000002a6a2849186977347bb1a943925db32273a8988b8d0c43d055a53dfe59ac80a21abf0d1aa40f004b4d440000000000", "vin": [{"sequence": 4294967295, "scriptSig": {"hex": "47304402201189d04b9c3da014305300abfb656df576538471535451490bccfe55350b415602203ee073873589666211fa2ba0c0ebaaa25f3bb0836162d8048dcd9b54437fccf501", "asm": "304402201189d04b9c3da014305300abfb656df576538471535451490bccfe55350b415602203ee073873589666211fa2ba0c0ebaaa25f3bb0836162d8048dcd9b54437fccf5[ALL]"}, "vout": 3, "txid": "878137db81db98bb7e6923124f2701a13888f0a804e79026dacf9c3853d8e4d5"}, {"sequence": 4294967295, "scriptSig": {"hex": "4730440220325951ca194336e8e3844ff9f95b19765180f10f2db3f520397816a802ed5cdb02200b4fb890d7113bb78001452a5cd2320a394355a763766bf5401a6b5e064fc73b01", "asm": "30440220325951ca194336e8e3844ff9f95b19765180f10f2db3f520397816a802ed5cdb02200b4fb890d7113bb78001452a5cd2320a394355a763766bf5401a6b5e064fc73b[ALL]"}, "vout": 2, "txid": "83511705863fcfa832506b728e9534658bbe3d4f1eda63988b4721486866e931"}, {"sequence": 4294967295, "scriptSig": {"hex": "483045022100a280e9dd33b872523e28ef2bc0f82c208fc85fd7561bc2e36b002ee1526e8ead0220337fce33ea0e2387b72b269e8890888834815a0799eedaff1b6043cf703d67b101", "asm": "3045022100a280e9dd33b872523e28ef2bc0f82c208fc85fd7561bc2e36b002ee1526e8ead0220337fce33ea0e2387b72b269e8890888834815a0799eedaff1b6043cf703d67b1[ALL]"}, "vout": 20, "txid": "876c87451d98fe1ecffd095fbdc25e0b395a69437009d24b5e26b10ca8cd0684"}, {"sequence": 4294967295, "scriptSig": {"hex": "4730440220134c2154f69665677a33cd0cdcabc272401cd70d21a1e3c0572926d6890086cb022012e20b374491ffe43a04510d319d9735b5c57b057107330f567565c44188955b01", "asm": "30440220134c2154f69665677a33cd0cdcabc272401cd70d21a1e3c0572926d6890086cb022012e20b374491ffe43a04510d319d9735b5c57b057107330f567565c44188955b[ALL]"}, "vout": 5, "txid": "32b170608f5e595b2335e41aa40f4d9e827e32056435c126f9f29d71d1f21b19"}, {"sequence": 4294967295, "scriptSig": {"hex": "483045022100cf3d3fb0104ac3429f2a08ff831b440097d6c11bc7a69c080056b96ee09875db0220682210c6b9376f51414c593d03f635eafbcd00cac5279a513d753f8833c6f58901", "asm": "3045022100cf3d3fb0104ac3429f2a08ff831b440097d6c11bc7a69c080056b96ee09875db0220682210c6b9376f51414c593d03f635eafbcd00cac5279a513d753f8833c6f589[ALL]"}, "vout": 6, "txid": "1f5995f9c29dcafcbd92c1b7721b496d570164fd887ffd8b0c84b9723cd34918"}, {"sequence": 4294967295, "scriptSig": {"hex": "483045022100b4fabbcd5db73185bb89c7e9dd1b7510b6bf74d7b4b4aacc5894a7c3f03e3f3c02206ef089e6cfb7d7889130b9bf44d4cc7266d03678510280414b8907603fbf093001", "asm": "3045022100b4fabbcd5db73185bb89c7e9dd1b7510b6bf74d7b4b4aacc5894a7c3f03e3f3c02206ef089e6cfb7d7889130b9bf44d4cc7266d03678510280414b8907603fbf0930[ALL]"}, "vout": 16, "txid": "a81dae150bc77601a62f7a6a22c36cd5a50f47faa709a487d50d852b3015b9e0"}, {"sequence": 4294967295, "scriptSig": {"hex": "47304402202bf91706512501e050f7808d33825ed08a3b1118d74605b12bd11a0cbb0d2c5702201eac6fd57661947934b8e17cb50eadab7147a5eded3b9bc5840075bc67f9ee8201", "asm": "304402202bf91706512501e050f7808d33825ed08a3b1118d74605b12bd11a0cbb0d2c5702201eac6fd57661947934b8e17cb50eadab7147a5eded3b9bc5840075bc67f9ee82[ALL]"}, "vout": 40, "txid": "60f6afe094e98796566c99a5419982fcb456a17a1b84b75ab69243956e19e86c"}, {"sequence": 4294967295, "scriptSig": {"hex": "48304502210092f6571cda44ae4403ed970e1fd724762366ed0a0f908431ad3e2a2078278daf02203589edb364ee06b54dad55fdd124161468d5f6f608fd8ce190dac0652bf59c2701", "asm": "304502210092f6571cda44ae4403ed970e1fd724762366ed0a0f908431ad3e2a2078278daf02203589edb364ee06b54dad55fdd124161468d5f6f608fd8ce190dac0652bf59c27[ALL]"}, "vout": 9, "txid": "4dac93c615dd2539bbde9842e24081639d2439559f2439a9227a487a2684f533"}, {"sequence": 4294967295, "scriptSig": {"hex": "473044022051ed1de30e72c7b89f327fb12cdbc65cfdb28f074bf3f9208f3bcf04891cfb67022075a581e3bde246ee47936f8d256d87870b8eb6276792790a97b776c351d75b5601", "asm": "3044022051ed1de30e72c7b89f327fb12cdbc65cfdb28f074bf3f9208f3bcf04891cfb67022075a581e3bde246ee47936f8d256d87870b8eb6276792790a97b776c351d75b56[ALL]"}, "vout": 10, "txid": "fae470fd58526e378fd98d3966c5b45de6676e603d67c5bd59d40420e2509b51"}, {"sequence": 4294967295, "scriptSig": {"hex": "483045022100ce83d09fea731dd7857cc04f97b7bfdb3a67b2d8ff98dd2736f3ea99893041ff02201ce20fc0878e08ba5ef839da3a98da75c3d3e30213d3e91da410e5d250639db101", "asm": "3045022100ce83d09fea731dd7857cc04f97b7bfdb3a67b2d8ff98dd2736f3ea99893041ff02201ce20fc0878e08ba5ef839da3a98da75c3d3e30213d3e91da410e5d250639db1[ALL]"}, "vout": 1, "txid": "4d1340430733d21f3b2d7e33aa40f4d50a42ddaea845ae6118305b3617c386f3"}, {"sequence": 4294967295, "scriptSig": {"hex": "473044022076fe35cbc0480387166fa98f812a0408a5bb21603e9aecd82636763f41ed144d02206feba6ab5722f5c365ca1c3ef09b8df941d756f390e44d03e4e47164f67b4ad201", "asm": "3044022076fe35cbc0480387166fa98f812a0408a5bb21603e9aecd82636763f41ed144d02206feba6ab5722f5c365ca1c3ef09b8df941d756f390e44d03e4e47164f67b4ad2[ALL]"}, "vout": 3, "txid": "3aced516248ab95a681ae25e96c74b0960a12dd72436d87456cf8b689dc76ac6"}, {"sequence": 4294967295, "scriptSig": {"hex": "483045022100ca2e0a814222fe5993c51499a437f3e4d1ddab1a3a742b9d5d301f89cf583a70022008bbf26cf038fe81fb4971c037816c3b70b675320805ada1baf569bb61b86ecf01", "asm": "3045022100ca2e0a814222fe5993c51499a437f3e4d1ddab1a3a742b9d5d301f89cf583a70022008bbf26cf038fe81fb4971c037816c3b70b675320805ada1baf569bb61b86ecf[ALL]"}, "vout": 8, "txid": "89c360aa1899b0753fe7c663c6a07b5c6acb374dd8d8147c8330e57bdade9804"}, {"sequence": 4294967295, "scriptSig": {"hex": "47304402200217a25dd2681ae8a8a76756fbb59468f55700da1785c24964a4a5a712a3189302205a35b87a53a22acb6fb09b32f864667e1f60d25f806490b2f7400e254c98bc0001", "asm": "304402200217a25dd2681ae8a8a76756fbb59468f55700da1785c24964a4a5a712a3189302205a35b87a53a22acb6fb09b32f864667e1f60d25f806490b2f7400e254c98bc00[ALL]"}, "vout": 3, "txid": "8b00a7ed231fd202e73e12b2d260dda6aee131a36889180d305ef53836724f1c"}], "txid": "997a5cfc774bed32d5534ec81886ab8d2fad22404b3bf473a813dbdbce9d5a3e", "blocktime": 1537874412, "version": 1, "confirmations": 11466, "time": 1537874412, "locktime": 0, "vsize": 1580, "size": 1580}