{"hash": "997db2e8deb5da66e9915fc6ec479c8429994c752b09fe93108fd2b4c20a0927", "blockhash": "0000000000000000001cda96e906b7601b7a6fb1a3b62bca570a9e5d8f4b3de1", "vout": [{"scriptPubKey": {"reqSigs": 1, "hex": "a91449214f118e97e68b9a8fabbe7c4ee5b3a3caca2787", "addresses": ["38Mh9tSKnEGXBiLmhdP48YsSRhymu9k4ck"], "asm": "OP_HASH160 49214f118e97e68b9a8fabbe7c4ee5b3a3caca27 OP_EQUAL", "type": "scripthash"}, "value": 0.01376, "n": 0}, {"scriptPubKey": {"reqSigs": 1, "hex": "a914e370231feecbfc25e2e2423a5a79bf79bfdca59887", "addresses": ["3NRbeX3vD5VaVE4TDU9ivCDsEf7NPPte6J"], "asm": "OP_HASH160 e370231feecbfc25e2e2423a5a79bf79bfdca598 OP_EQUAL", "type": "scripthash"}, "value": 3.17029355, "n": 1}], "hex": "01000000019b9a07f5b12fedaf72ede4957b127bec8d420fe77006c6f2721f9943e71636e201000000db00483045022100d15c65cda8ea5471791584fed7af48f0ba090dc3cc2d83d6a844e194d75b98590220027bbb1d3b486ff566ba76e14098aea12f42b8504a62ec618f6426a260d2804a01483045022100e1a77809aa756bfa20aba0a6bdaf8e24b9fd8396b7943adcbaed0c457e2bca7b0220366f36b75298ac72014fa57665e390929fa382eca7859af0e22c45c84a68d74d014752210327881b6abce6535553a3ce21fad12a7d74fd237ce7c4cd270a267162344e3082210256141f8eb687f5a68c5cc65054652dc25116fa285e44d72b44368827ffe77d9a52aeffffffff0200ff14000000000017a91449214f118e97e68b9a8fabbe7c4ee5b3a3caca2787eb7be5120000000017a914e370231feecbfc25e2e2423a5a79bf79bfdca5988700000000", "vin": [{"sequence": 4294967295, "scriptSig": {"hex": "00483045022100d15c65cda8ea5471791584fed7af48f0ba090dc3cc2d83d6a844e194d75b98590220027bbb1d3b486ff566ba76e14098aea12f42b8504a62ec618f6426a260d2804a01483045022100e1a77809aa756bfa20aba0a6bdaf8e24b9fd8396b7943adcbaed0c457e2bca7b0220366f36b75298ac72014fa57665e390929fa382eca7859af0e22c45c84a68d74d014752210327881b6abce6535553a3ce21fad12a7d74fd237ce7c4cd270a267162344e3082210256141f8eb687f5a68c5cc65054652dc25116fa285e44d72b44368827ffe77d9a52ae", "asm": "0 3045022100d15c65cda8ea5471791584fed7af48f0ba090dc3cc2d83d6a844e194d75b98590220027bbb1d3b486ff566ba76e14098aea12f42b8504a62ec618f6426a260d2804a[ALL] 3045022100e1a77809aa756bfa20aba0a6bdaf8e24b9fd8396b7943adcbaed0c457e2bca7b0220366f36b75298ac72014fa57665e390929fa382eca7859af0e22c45c84a68d74d[ALL] 52210327881b6abce6535553a3ce21fad12a7d74fd237ce7c4cd270a267162344e3082210256141f8eb687f5a68c5cc65054652dc25116fa285e44d72b44368827ffe77d9a52ae"}, "vout": 1, "txid": "e23616e743991f72f2c60670e70f428dec7b127b95e4ed72afed2fb1f5079a9b"}], "txid": "997db2e8deb5da66e9915fc6ec479c8429994c752b09fe93108fd2b4c20a0927", "blocktime": 1537873282, "version": 1, "confirmations": 11484, "time": 1537873282, "locktime": 0, "vsize": 334, "size": 334}