{"hash": "ee335c235d5d77460a43edc84647953d0c8ae8deb204a722d2dcc24a16af004b", "blockhash": "0000000000000000000e13cef7c366c0283d82e591d1acd082e914b08063cdf1", "vout": [{"scriptPubKey": {"reqSigs": 1, "hex": "a914b44337f216fcdcf0a5895a72e8c4169a68ef293e87", "addresses": ["3J8A5VuG2KUQmCweiwHBDfv67VqWTciCM2"], "asm": "OP_HASH160 b44337f216fcdcf0a5895a72e8c4169a68ef293e OP_EQUAL", "type": "scripthash"}, "value": 0.01563129, "n": 0}], "hex": "01000000000101c8bf5f0a5a5a64249432f68e9289bf17cceec09f232ac6f443d4a6a22b3a23040100000017160014ff2238e8bfac77e238557b0936afcd67d9d16c83ffffffff01f9d917000000000017a914b44337f216fcdcf0a5895a72e8c4169a68ef293e87024730440220434d3289e03ea59d4376a5b3f1afbaae483f7e36bddb9104dad4a7ab392a153502200fc65b308a85ca913a16522ae4ab288f9b1a6b3514e67a57a8b6e3e698a86bc60121026362ab931428f8ab3b22265df13f4778580c3190304d4f6209dffd58fb32d31100000000", "vin": [{"txinwitness": ["30440220434d3289e03ea59d4376a5b3f1afbaae483f7e36bddb9104dad4a7ab392a153502200fc65b308a85ca913a16522ae4ab288f9b1a6b3514e67a57a8b6e3e698a86bc601", "026362ab931428f8ab3b22265df13f4778580c3190304d4f6209dffd58fb32d311"], "sequence": 4294967295, "scriptSig": {"hex": "160014ff2238e8bfac77e238557b0936afcd67d9d16c83", "asm": "0014ff2238e8bfac77e238557b0936afcd67d9d16c83"}, "vout": 1, "txid": "04233a2ba2a6d443f4c62a239fc0eecc17bf89928ef6329424645a5a0a5fbfc8"}], "txid": "998621a39e37e374e82e52660118703938e775076abac9228d22ddafbea3839e", "blocktime": 1537871767, "version": 1, "confirmations": 11495, "time": 1537871767, "locktime": 0, "vsize": 134, "size": 215}