{"hash": "9986eec8fd3d82cfb79b2b4b6c607b5d47927da733dc75a53e005be130c7d499", "blockhash": "0000000000000000000e13cef7c366c0283d82e591d1acd082e914b08063cdf1", "vout": [{"scriptPubKey": {"reqSigs": 1, "hex": "76a91479d7c622efd2de87fcb038daf63666defd04f39188ac", "addresses": ["1C7FFT66Gh5n7LbezMTth5P14EnUrQJ3ef"], "asm": "OP_DUP OP_HASH160 79d7c622efd2de87fcb038daf63666defd04f391 OP_EQUALVERIFY OP_CHECKSIG", "type": "pubkeyhash"}, "value": 0.00032798, "n": 0}, {"scriptPubKey": {"reqSigs": 1, "hex": "76a914ea9c831b52c211f357fb7c93f7c6a07475d7664888ac", "addresses": ["1NPWcYSnykbysrSwLrzjZewZHubocrJ9XZ"], "asm": "OP_DUP OP_HASH160 ea9c831b52c211f357fb7c93f7c6a07475d76648 OP_EQUALVERIFY OP_CHECKSIG", "type": "pubkeyhash"}, "value": 0.00289, "n": 1}], "hex": "01000000016c56ff2ab184d0dfa8ff194cd90cac37397bc5320c240d65f3e742b6b4dba4f0010000006a47304402201ca654f0ccb4064ae2093b814f9cb06c5cb2ed12361b500de412eb237b6c5bc2022057410d6e75794a09da6ee72bddf0316fdc9dcf19f8f0658efe691ca1cded5969012102d3efa0c44b1aa3e7579de537519eb90d2d184602cb0dc1d871f3455b70c8d2fdffffffff021e800000000000001976a91479d7c622efd2de87fcb038daf63666defd04f39188ace8680400000000001976a914ea9c831b52c211f357fb7c93f7c6a07475d7664888ac00000000", "vin": [{"sequence": 4294967295, "scriptSig": {"hex": "47304402201ca654f0ccb4064ae2093b814f9cb06c5cb2ed12361b500de412eb237b6c5bc2022057410d6e75794a09da6ee72bddf0316fdc9dcf19f8f0658efe691ca1cded5969012102d3efa0c44b1aa3e7579de537519eb90d2d184602cb0dc1d871f3455b70c8d2fd", "asm": "304402201ca654f0ccb4064ae2093b814f9cb06c5cb2ed12361b500de412eb237b6c5bc2022057410d6e75794a09da6ee72bddf0316fdc9dcf19f8f0658efe691ca1cded5969[ALL] 02d3efa0c44b1aa3e7579de537519eb90d2d184602cb0dc1d871f3455b70c8d2fd"}, "vout": 1, "txid": "f0a4dbb4b642e7f3650d240c32c57b3937ac0cd94c19ffa8dfd084b12aff566c"}], "txid": "9986eec8fd3d82cfb79b2b4b6c607b5d47927da733dc75a53e005be130c7d499", "blocktime": 1537871767, "version": 1, "confirmations": 11495, "time": 1537871767, "locktime": 0, "vsize": 225, "size": 225}