{"hash": "998ac4d3c5b79894d668f9090ccf82182f99004c606cf88a888fe27097829a1c", "blockhash": "000000000000000000022b45ed06c6f4ccd3cf7fb5ba4856ebd2e58215665228", "vout": [{"scriptPubKey": {"reqSigs": 1, "hex": "76a9144fc2abd3c989e240f68fe27d6a2048687376627088ac", "addresses": ["18Gjb9Wc2NwUYGFmdKrK5EniZaxh41ewzs"], "asm": "OP_DUP OP_HASH160 4fc2abd3c989e240f68fe27d6a20486873766270 OP_EQUALVERIFY OP_CHECKSIG", "type": "pubkeyhash"}, "value": 0.00161256, "n": 0}, {"scriptPubKey": {"reqSigs": 1, "hex": "a9144b5cc91985c10a76027340a4517641c6cbbdeb2c87", "addresses": ["38ZVknQrmDxGLssZHTzKYYPxyukgFuKqxg"], "asm": "OP_HASH160 4b5cc91985c10a76027340a4517641c6cbbdeb2c OP_EQUAL", "type": "scripthash"}, "value": 0.00311472, "n": 1}], "hex": "01000000010db4ba88f2c3b7402485cc82d9c5bd6154f1860d22e5366eb63b8fa4bde4f470010000006a47304402201973a7f253a538d837f44c4408fb9dd3ab97092f62f366b0bfbdabb0eb20f7b202204c7390cef6573b080d9d23e9bde5586428bb9a9e3a90e8bf431ef3eba76072bf012103dc0d3e692432ebf206edeeb1ee3827a5f14bb9c829f5d84350d00525d48bc64cffffffff02e8750200000000001976a9144fc2abd3c989e240f68fe27d6a2048687376627088acb0c004000000000017a9144b5cc91985c10a76027340a4517641c6cbbdeb2c8700000000", "vin": [{"sequence": 4294967295, "scriptSig": {"hex": "47304402201973a7f253a538d837f44c4408fb9dd3ab97092f62f366b0bfbdabb0eb20f7b202204c7390cef6573b080d9d23e9bde5586428bb9a9e3a90e8bf431ef3eba76072bf012103dc0d3e692432ebf206edeeb1ee3827a5f14bb9c829f5d84350d00525d48bc64c", "asm": "304402201973a7f253a538d837f44c4408fb9dd3ab97092f62f366b0bfbdabb0eb20f7b202204c7390cef6573b080d9d23e9bde5586428bb9a9e3a90e8bf431ef3eba76072bf[ALL] 03dc0d3e692432ebf206edeeb1ee3827a5f14bb9c829f5d84350d00525d48bc64c"}, "vout": 1, "txid": "70f4e4bda48f3bb66e36e5220d86f15461bdc5d982cc852440b7c3f288bab40d"}], "txid": "998ac4d3c5b79894d668f9090ccf82182f99004c606cf88a888fe27097829a1c", "blocktime": 1537869901, "version": 1, "confirmations": 11523, "time": 1537869901, "locktime": 0, "vsize": 223, "size": 223}