{"hash": "a135bda97d6a180bfab858c01e182840af2603283c06a664fea61a850821febf", "blockhash": "0000000000000000001cda96e906b7601b7a6fb1a3b62bca570a9e5d8f4b3de1", "vout": [{"scriptPubKey": {"reqSigs": 1, "hex": "a914b8cca489c4922bf10ae638831064ff771f48181187", "addresses": ["3JY9QfcPHiAnnooW6YTe3qnAN7EKXUVF9R"], "asm": "OP_HASH160 b8cca489c4922bf10ae638831064ff771f481811 OP_EQUAL", "type": "scripthash"}, "value": 0.0582, "n": 0}, {"scriptPubKey": {"reqSigs": 1, "hex": "a914736b72177b1eabb4feffa76cc54a77b2e29bac3387", "addresses": ["3CDJM4TE6hHFKLAv9TEQ5fpaJ6g9aRDZUJ"], "asm": "OP_HASH160 736b72177b1eabb4feffa76cc54a77b2e29bac33 OP_EQUAL", "type": "scripthash"}, "value": 3.82419265, "n": 1}], "hex": "02000000000101b1bf9e8aba9f1512325f986fef4dd5eebba256cc5957575cd67e12d6987ec2c00100000017160014ef7c20b86a00d3373855312feb0123f298cc640bfdffffff0260ce58000000000017a914b8cca489c4922bf10ae638831064ff771f481811874141cb160000000017a914736b72177b1eabb4feffa76cc54a77b2e29bac338702483045022100cc08f6d6fd56e5d43b3eeb73aff6d8cd6e7d64a5f16e525ae8048c839b27132a02205b5deee4d9ead900171ecb82347758b36898d4d55c889ad6746455f1d1a62fa901210277a99c2191cec4d55289b1fed1b4a389a714a03058a402d854eb98610b82184900490800", "vin": [{"txinwitness": ["3045022100cc08f6d6fd56e5d43b3eeb73aff6d8cd6e7d64a5f16e525ae8048c839b27132a02205b5deee4d9ead900171ecb82347758b36898d4d55c889ad6746455f1d1a62fa901", "0277a99c2191cec4d55289b1fed1b4a389a714a03058a402d854eb98610b821849"], "sequence": 4294967293, "scriptSig": {"hex": "160014ef7c20b86a00d3373855312feb0123f298cc640b", "asm": "0014ef7c20b86a00d3373855312feb0123f298cc640b"}, "vout": 1, "txid": "c0c27e98d6127ed65c575759cc56a2bbeed54def6f985f3212159fba8a9ebfb1"}], "txid": "998b7723033d22883129b775626a459c4e167af2ed3c9be4b39437b2f171994f", "blocktime": 1537873282, "version": 2, "confirmations": 11484, "time": 1537873282, "locktime": 542976, "vsize": 166, "size": 248}