{"hash": "f1b307aed250b67b18bdf07026e8e87c710be6d280b37583fae98a797b08c5e7", "blockhash": "0000000000000000001cda96e906b7601b7a6fb1a3b62bca570a9e5d8f4b3de1", "vout": [{"scriptPubKey": {"reqSigs": 1, "hex": "76a914eac990c77a6579353e533413916bace17fcab24288ac", "addresses": ["1NQSauevepKRhukucj8NXmkhwhT99se7oK"], "asm": "OP_DUP OP_HASH160 eac990c77a6579353e533413916bace17fcab242 OP_EQUALVERIFY OP_CHECKSIG", "type": "pubkeyhash"}, "value": 0.144034, "n": 0}], "hex": "0200000000010322db831b4efee08a905fa35e25eaca329662fd9cb72c3a8297d5da04a26de7ea01000000171600149630a650176ce903a8ae08b41312e29d0ed20e07feffffff3a62c90ea80e4eaa8bf4e9b3af502650a3aecb460c1394d70f58a43348e2d0db00000000171600148fe1634f6ccba728141769c02cc469ae121c68d3feffffff7b6660ae19135b836c52d8db31ac614f30127297d5a657ad4f1247dbde218cd500000000171600143def39a13f28c42339524edb6f25bb38b58efe59feffffff0148c7db00000000001976a914eac990c77a6579353e533413916bace17fcab24288ac02483045022100ea66b2b1c7db148f6363159f4405da6da6ce021601801afb100336255f0bef0702204c589f67758318c2191d0e9deba1ffc2b057b450d6351680b546b76d67c1cf7401210291bfda933a4b9f992335f7980fc56e5ad579579e8362807aa68b30caf9b4f2a502483045022100d9e7619c0d9ccd51a699065636a83f0c754f105165b8eaec05042c2f95033ba802201a76fabaaca8d57fee0b1000c2aa344a10482e9ba82c34be2c5446da5ca81a4601210329d1a382ee75d3929d2b4750f1e7d1f86ad78a0822512b16892114c2c80ade460247304402207113ea5898d55f19c45996b19061b0a34747f5533987ab6ab95729984038f66202200f6fab5e552d115b8e26d3fa6e75f263e105255c6f27fd9f194a81d4ae5dc7360121023c920dfe03cf727b9204c05e64e75012b484d26f97ec0d3de4fc47de7c45e9e312490800", "vin": [{"txinwitness": ["3045022100ea66b2b1c7db148f6363159f4405da6da6ce021601801afb100336255f0bef0702204c589f67758318c2191d0e9deba1ffc2b057b450d6351680b546b76d67c1cf7401", "0291bfda933a4b9f992335f7980fc56e5ad579579e8362807aa68b30caf9b4f2a5"], "sequence": 4294967294, "scriptSig": {"hex": "1600149630a650176ce903a8ae08b41312e29d0ed20e07", "asm": "00149630a650176ce903a8ae08b41312e29d0ed20e07"}, "vout": 1, "txid": "eae76da204dad597823a2cb79cfd629632caea255ea35f908ae0fe4e1b83db22"}, {"txinwitness": ["3045022100d9e7619c0d9ccd51a699065636a83f0c754f105165b8eaec05042c2f95033ba802201a76fabaaca8d57fee0b1000c2aa344a10482e9ba82c34be2c5446da5ca81a4601", "0329d1a382ee75d3929d2b4750f1e7d1f86ad78a0822512b16892114c2c80ade46"], "sequence": 4294967294, "scriptSig": {"hex": "1600148fe1634f6ccba728141769c02cc469ae121c68d3", "asm": "00148fe1634f6ccba728141769c02cc469ae121c68d3"}, "vout": 0, "txid": "dbd0e24833a4580fd794130c46cbaea3502650afb3e9f48baa4e0ea80ec9623a"}, {"txinwitness": ["304402207113ea5898d55f19c45996b19061b0a34747f5533987ab6ab95729984038f66202200f6fab5e552d115b8e26d3fa6e75f263e105255c6f27fd9f194a81d4ae5dc73601", "023c920dfe03cf727b9204c05e64e75012b484d26f97ec0d3de4fc47de7c45e9e3"], "sequence": 4294967294, "scriptSig": {"hex": "1600143def39a13f28c42339524edb6f25bb38b58efe59", "asm": "00143def39a13f28c42339524edb6f25bb38b58efe59"}, "vout": 0, "txid": "d58c21dedb47124fad57a6d5977212304f61ac31dbd8526c835b1319ae60667b"}], "txid": "998c2cd1f13669c345f064353c7d40201ae610309dc64b823da2bf47b10bc80b", "blocktime": 1537873282, "version": 2, "confirmations": 11481, "time": 1537873282, "locktime": 542994, "vsize": 318, "size": 561}