{"hash": "998c9b388084785817ca4f2c7a6a0cd8caf47bc7e6a396b12f657eda908ed343", "blockhash": "0000000000000000000e13cef7c366c0283d82e591d1acd082e914b08063cdf1", "vout": [{"scriptPubKey": {"reqSigs": 1, "hex": "a914bf3e2a6462f2445f89fae4a932ffd8de4b4fb26287", "addresses": ["3K8DTXNw1XUJ3Sb5NoAYmx9XAwtXtbCvau"], "asm": "OP_HASH160 bf3e2a6462f2445f89fae4a932ffd8de4b4fb262 OP_EQUAL", "type": "scripthash"}, "value": 0.02, "n": 0}, {"scriptPubKey": {"reqSigs": 1, "hex": "76a914ac0955a314884f75f26ea4e1aacb09d7ce18689b88ac", "addresses": ["1GgeQZysBQgNZfNjTo78YL3Nv7ZGuDawYA"], "asm": "OP_DUP OP_HASH160 ac0955a314884f75f26ea4e1aacb09d7ce18689b OP_EQUALVERIFY OP_CHECKSIG", "type": "pubkeyhash"}, "value": 0.18529758, "n": 1}], "hex": "0100000001532897bab49988e125742d5b55b9bd99da13f509455f18a822dd339782449923010000006b483045022100a06aca8ef41a9f7b08c0321c2cbb457f886150bf8fa93134a9384ff0a6245de90220052f652285a805616caa93df165099eec40f94f40b12395c184c67bbd5e2f93f0121034efc79c3789417d01ab0cdb4b2026c57088ed421693ab80a7ad613dff32745e2ffffffff0280841e000000000017a914bf3e2a6462f2445f89fae4a932ffd8de4b4fb26287debd1a01000000001976a914ac0955a314884f75f26ea4e1aacb09d7ce18689b88ac00000000", "vin": [{"sequence": 4294967295, "scriptSig": {"hex": "483045022100a06aca8ef41a9f7b08c0321c2cbb457f886150bf8fa93134a9384ff0a6245de90220052f652285a805616caa93df165099eec40f94f40b12395c184c67bbd5e2f93f0121034efc79c3789417d01ab0cdb4b2026c57088ed421693ab80a7ad613dff32745e2", "asm": "3045022100a06aca8ef41a9f7b08c0321c2cbb457f886150bf8fa93134a9384ff0a6245de90220052f652285a805616caa93df165099eec40f94f40b12395c184c67bbd5e2f93f[ALL] 034efc79c3789417d01ab0cdb4b2026c57088ed421693ab80a7ad613dff32745e2"}, "vout": 1, "txid": "239944829733dd22a8185f4509f513da99bdb9555b2d7425e18899b4ba972853"}], "txid": "998c9b388084785817ca4f2c7a6a0cd8caf47bc7e6a396b12f657eda908ed343", "blocktime": 1537871767, "version": 1, "confirmations": 11491, "time": 1537871767, "locktime": 0, "vsize": 224, "size": 224}