{"hash": "56e9456bed0d43b60c1c3f9fab5a4658755d6234d32ad34918edd7ad0447bd60", "blockhash": "000000000000000000022b45ed06c6f4ccd3cf7fb5ba4856ebd2e58215665228", "vout": [{"scriptPubKey": {"reqSigs": 1, "hex": "76a914707437c06358ea15d27eef200229a4de38d50e3088ac", "addresses": ["1BFbuSQ2hfWWpZTZFsQENBHWWqbLQqUF18"], "asm": "OP_DUP OP_HASH160 707437c06358ea15d27eef200229a4de38d50e30 OP_EQUALVERIFY OP_CHECKSIG", "type": "pubkeyhash"}, "value": 0.0270636, "n": 0}, {"scriptPubKey": {"reqSigs": 1, "hex": "0020701a8d401c84fb13e6baf169d59684e17abd9fa216c8cc5b9fc63d622ff8c58d", "addresses": ["bc1qwqdg6squsna38e46795at95yu9atm8azzmyvckulcc7kytlcckxswvvzej"], "asm": "0 701a8d401c84fb13e6baf169d59684e17abd9fa216c8cc5b9fc63d622ff8c58d", "type": "witness_v0_scripthash"}, "value": 0.01827573, "n": 1}], "hex": "01000000000101feeb37501584bd24dc061ddfedaa63924cb0e4d9090a7a8720024024ace195c20300000000ffffffff02b84b2900000000001976a914707437c06358ea15d27eef200229a4de38d50e3088acf5e21b0000000000220020701a8d401c84fb13e6baf169d59684e17abd9fa216c8cc5b9fc63d622ff8c58d040047304402207a8283d62480f90d37752d28eb9c3794fef97aae00b63c93fcac699d5565c38d022051635466caacc48ad7dc0ca16a914d4c520484418ebc255cc9f68626e61e57d3014730440220463d66ffff91cc715d95e5f392782bd85ac19ffc60e7b29810f7193714ed1d7402204a3d1b5a334b90983323635be458c3578390e29cb7d782c44394128d78a159ac016952210375e00eb72e29da82b89367947f29ef34afb75e8654f6ea368e0acdfd92976b7c2103a1b26313f430c4b15bb1fdce663207659d8cac749a0e53d70eff01874496feff2103c96d495bfdd5ba4145e3e046fee45e84a8a48ad05bd8dbb395c011a32cf9f88053ae00000000", "vin": [{"txinwitness": ["", "304402207a8283d62480f90d37752d28eb9c3794fef97aae00b63c93fcac699d5565c38d022051635466caacc48ad7dc0ca16a914d4c520484418ebc255cc9f68626e61e57d301", "30440220463d66ffff91cc715d95e5f392782bd85ac19ffc60e7b29810f7193714ed1d7402204a3d1b5a334b90983323635be458c3578390e29cb7d782c44394128d78a159ac01", "52210375e00eb72e29da82b89367947f29ef34afb75e8654f6ea368e0acdfd92976b7c2103a1b26313f430c4b15bb1fdce663207659d8cac749a0e53d70eff01874496feff2103c96d495bfdd5ba4145e3e046fee45e84a8a48ad05bd8dbb395c011a32cf9f88053ae"], "sequence": 4294967295, "scriptSig": {"hex": "", "asm": ""}, "vout": 3, "txid": "c295e1ac24400220877a0a09d9e4b04c9263aaeddf1d06dc24bd84155037ebfe"}], "txid": "998da0f3d77dcf292dcedc8837ee57b5ffd0da6999b11d8ca6bc27081d966104", "blocktime": 1537869901, "version": 1, "confirmations": 11522, "time": 1537869901, "locktime": 0, "vsize": 192, "size": 382}