{"hash": "7370fe26f97ad269ef0d56edc4e55b7318b0f06e72142d8ee20610258146935f", "blockhash": "0000000000000000000baef3f32e3676a92c3b2e5da21b426e4f302fc371ce76", "vout": [{"scriptPubKey": {"reqSigs": 1, "hex": "a9141d5a1dca3c4a06014e6ab36430478eead8cc4f9387", "addresses": ["34NDUW4HVtA8sTsUWi1FccwJ1JRvcYB8ny"], "asm": "OP_HASH160 1d5a1dca3c4a06014e6ab36430478eead8cc4f93 OP_EQUAL", "type": "scripthash"}, "value": 0.0006374, "n": 0}, {"scriptPubKey": {"reqSigs": 1, "hex": "a9140be7846be16b05bea00dbec2fcd7e045a793cb1787", "addresses": ["32mxhko5mJHfkbkDPpz7SfdJwEJi21P1WK"], "asm": "OP_HASH160 0be7846be16b05bea00dbec2fcd7e045a793cb17 OP_EQUAL", "type": "scripthash"}, "value": 0.17927176, "n": 1}], "hex": "01000000000101a1a8308001c56e60fa7b4bdb6d5cd0591a6f83aa6330ad0656031cd8269bea7c01000000232200202c66ece6da72bcbfeadf83a91236f4891c13e14d8ecebdcaa81666fc1aa73a31ffffffff02fcf800000000000017a9141d5a1dca3c4a06014e6ab36430478eead8cc4f9387088c11010000000017a9140be7846be16b05bea00dbec2fcd7e045a793cb17870400483045022100dd77e9eded5a9a65af89e140d1a4902b70d0d47f05615866e09cf3f242bd3d1102201ffaddfe6adc1f6033dd378b7433bce1337ae07b63ff03224447ff0a6b35e0380147304402205cfa958317f8f4b2a563f56deddd60758135801c4fafa65aa2014633317e091502205c42abc6299505bf3022b41443f724f187119b7b275727559542338ae84186ea01475221029e6fbb942d34a473faaa5557c1bfe08d72102f0b9754ad140fd369d7a3ba3cdc2103871fc2ca08e6950b38867e8e6a0e94ee625223d3aa0df5c65f414c6d784467e252ae00000000", "vin": [{"txinwitness": ["", "3045022100dd77e9eded5a9a65af89e140d1a4902b70d0d47f05615866e09cf3f242bd3d1102201ffaddfe6adc1f6033dd378b7433bce1337ae07b63ff03224447ff0a6b35e03801", "304402205cfa958317f8f4b2a563f56deddd60758135801c4fafa65aa2014633317e091502205c42abc6299505bf3022b41443f724f187119b7b275727559542338ae84186ea01", "5221029e6fbb942d34a473faaa5557c1bfe08d72102f0b9754ad140fd369d7a3ba3cdc2103871fc2ca08e6950b38867e8e6a0e94ee625223d3aa0df5c65f414c6d784467e252ae"], "sequence": 4294967295, "scriptSig": {"hex": "2200202c66ece6da72bcbfeadf83a91236f4891c13e14d8ecebdcaa81666fc1aa73a31", "asm": "00202c66ece6da72bcbfeadf83a91236f4891c13e14d8ecebdcaa81666fc1aa73a31"}, "vout": 1, "txid": "7cea9b26d81c035606ad3063aa836f1a59d05c6ddb4b7bfa606ec5018030a8a1"}], "txid": "9990ae800cc7d94f1774ac75ecb604bc0cc087d31af9dda2b43c47437c1ae986", "blocktime": 1537876114, "version": 1, "confirmations": 11460, "time": 1537876114, "locktime": 0, "vsize": 206, "size": 371}