{"hash": "9999cc6921007144e5bebbbacfd331804af7593193f5c9e38b12dc01c5ce9a2c", "blockhash": "0000000000000000001e0dab787dd257d1dbfcb92a98c2207d5e1078be1f4165", "vout": [{"scriptPubKey": {"reqSigs": 1, "hex": "a914eae628c700af4505dbf257e58bd03ed110b68d7687", "addresses": ["3P73mBNcVioX7MrUeirtT2WACFd9yuDttM"], "asm": "OP_HASH160 eae628c700af4505dbf257e58bd03ed110b68d76 OP_EQUAL", "type": "scripthash"}, "value": 0.00137151, "n": 0}, {"scriptPubKey": {"reqSigs": 1, "hex": "76a9149e378c60aaf3d7ad0793b7173ca9a5f53fee993c88ac", "addresses": ["1FRaJspdsBjcbG61jdUgmqLNne64Pj3mZi"], "asm": "OP_DUP OP_HASH160 9e378c60aaf3d7ad0793b7173ca9a5f53fee993c OP_EQUALVERIFY OP_CHECKSIG", "type": "pubkeyhash"}, "value": 0.06183298, "n": 1}], "hex": "010000000185bba1a0c0aa70a8568e2ed0c0e9d82d4b9b4e78ef6b2029aee31aa04e4805ef010000006a473044022074e1a96c7187cfdab786e584f3a84900e592038c69c20b0190a11670c4c35b7c02203dfe3510e19b2430aa4d0c139843305cc1ffa34fabbe5d6e2ca8519f3985004b0121025587f04ee9d8f8f306b7ae946afd668b51456ccab762a112791b0373331c443fffffffff02bf1702000000000017a914eae628c700af4505dbf257e58bd03ed110b68d768782595e00000000001976a9149e378c60aaf3d7ad0793b7173ca9a5f53fee993c88ac00000000", "vin": [{"sequence": 4294967295, "scriptSig": {"hex": "473044022074e1a96c7187cfdab786e584f3a84900e592038c69c20b0190a11670c4c35b7c02203dfe3510e19b2430aa4d0c139843305cc1ffa34fabbe5d6e2ca8519f3985004b0121025587f04ee9d8f8f306b7ae946afd668b51456ccab762a112791b0373331c443f", "asm": "3044022074e1a96c7187cfdab786e584f3a84900e592038c69c20b0190a11670c4c35b7c02203dfe3510e19b2430aa4d0c139843305cc1ffa34fabbe5d6e2ca8519f3985004b[ALL] 025587f04ee9d8f8f306b7ae946afd668b51456ccab762a112791b0373331c443f"}, "vout": 1, "txid": "ef05484ea01ae3ae29206bef784e9b4b2dd8e9c0d02e8e56a870aac0a0a1bb85"}], "txid": "9999cc6921007144e5bebbbacfd331804af7593193f5c9e38b12dc01c5ce9a2c", "blocktime": 1537872475, "version": 1, "confirmations": 11487, "time": 1537872475, "locktime": 0, "vsize": 223, "size": 223}