{"hash": "99a0091cebf9e49385a5605bbb01c1ef95998c6e154e732744016938f8f8204b", "blockhash": "00000000000000000024a2167bbff67b0be802c0b01cdd79e6331c2be6459f87", "vout": [{"scriptPubKey": {"reqSigs": 1, "hex": "76a9143ecc0ce8b6a3ca67b167901ba06a8ad66f9d30a188ac", "addresses": ["16j3LZonKLMUkv5BNjcNUECBUv6rrfGbQt"], "asm": "OP_DUP OP_HASH160 3ecc0ce8b6a3ca67b167901ba06a8ad66f9d30a1 OP_EQUALVERIFY OP_CHECKSIG", "type": "pubkeyhash"}, "value": 0.00137275, "n": 0}, {"scriptPubKey": {"reqSigs": 1, "hex": "a914b7ed1333f20e6649929469f4899b53c605a44c7887", "addresses": ["3JTXauh6ssR7kJSMFVDcZW1QSN4eWaiTzD"], "asm": "OP_HASH160 b7ed1333f20e6649929469f4899b53c605a44c78 OP_EQUAL", "type": "scripthash"}, "value": 0.002201, "n": 1}], "hex": "01000000010e3c8f66681216333a8de7c8da8e0b9744f8d84a381a091a984de91533eef778630000006a47304402206a15c5f03a3b6e0b62b4014afc323b12575587f3a0e7dea3bc628cc62c90725902202c0509b4d6cf0b14097aa649f9098fc20464f9f650629843affa3d93c8ed140f01210344a37d6edab55aa07a158b3d4b491a7e7795dac0aacc0c3ca0cf9b98548db4e4feffffff023b180200000000001976a9143ecc0ce8b6a3ca67b167901ba06a8ad66f9d30a188acc45b03000000000017a914b7ed1333f20e6649929469f4899b53c605a44c78870d490800", "vin": [{"sequence": 4294967294, "scriptSig": {"hex": "47304402206a15c5f03a3b6e0b62b4014afc323b12575587f3a0e7dea3bc628cc62c90725902202c0509b4d6cf0b14097aa649f9098fc20464f9f650629843affa3d93c8ed140f01210344a37d6edab55aa07a158b3d4b491a7e7795dac0aacc0c3ca0cf9b98548db4e4", "asm": "304402206a15c5f03a3b6e0b62b4014afc323b12575587f3a0e7dea3bc628cc62c90725902202c0509b4d6cf0b14097aa649f9098fc20464f9f650629843affa3d93c8ed140f[ALL] 0344a37d6edab55aa07a158b3d4b491a7e7795dac0aacc0c3ca0cf9b98548db4e4"}, "vout": 99, "txid": "78f7ee3315e94d981a091a384ad8f844970b8edac8e78d3a33161268668f3c0e"}], "txid": "99a0091cebf9e49385a5605bbb01c1ef95998c6e154e732744016938f8f8204b", "blocktime": 1537870564, "version": 1, "confirmations": 11515, "time": 1537870564, "locktime": 542989, "vsize": 223, "size": 223}