{"hash": "99a0f6ba98856b9ee98960a7b40ec6c6899f5564e381c62e3e17c41553389fa9", "blockhash": "0000000000000000001cda96e906b7601b7a6fb1a3b62bca570a9e5d8f4b3de1", "vout": [{"scriptPubKey": {"reqSigs": 1, "hex": "76a9141964ace8553e082d4f661b838e6efe829a47b82f88ac", "addresses": ["13KGVr6uHgnp1277TSG7MKww5qToZo7oNY"], "asm": "OP_DUP OP_HASH160 1964ace8553e082d4f661b838e6efe829a47b82f OP_EQUALVERIFY OP_CHECKSIG", "type": "pubkeyhash"}, "value": 0.000787, "n": 0}, {"scriptPubKey": {"reqSigs": 1, "hex": "76a914f250f09991f3c209a25aeccdf06e36023aa047e788ac", "addresses": ["1P6FVDsMcSu9ywqJxaMBP2PQogSWpLSkV1"], "asm": "OP_DUP OP_HASH160 f250f09991f3c209a25aeccdf06e36023aa047e7 OP_EQUALVERIFY OP_CHECKSIG", "type": "pubkeyhash"}, "value": 0.02524001, "n": 1}], "hex": "010000000159b572050e261004acea1224f3cdf01ddabdfc959d249aa9866016ac927b9204010000006b483045022100d62741ee265a9e6f36b6a339307c6968dbee209ab8370765e874978d9fb6096d022064238fb983812687a1e3c5d6dcf3523a4379b99744fac962fb338f36442d701d012103e0cc4b5b29ea059c194f0ca0d4ce7c65331f67f159e0fba8c4b49fe24363ca3bfdffffff026c330100000000001976a9141964ace8553e082d4f661b838e6efe829a47b82f88ac61832600000000001976a914f250f09991f3c209a25aeccdf06e36023aa047e788ac13490800", "vin": [{"sequence": 4294967293, "scriptSig": {"hex": "483045022100d62741ee265a9e6f36b6a339307c6968dbee209ab8370765e874978d9fb6096d022064238fb983812687a1e3c5d6dcf3523a4379b99744fac962fb338f36442d701d012103e0cc4b5b29ea059c194f0ca0d4ce7c65331f67f159e0fba8c4b49fe24363ca3b", "asm": "3045022100d62741ee265a9e6f36b6a339307c6968dbee209ab8370765e874978d9fb6096d022064238fb983812687a1e3c5d6dcf3523a4379b99744fac962fb338f36442d701d[ALL] 03e0cc4b5b29ea059c194f0ca0d4ce7c65331f67f159e0fba8c4b49fe24363ca3b"}, "vout": 1, "txid": "04927b92ac166086a99a249d95fcbdda1df0cdf32412eaac0410260e0572b559"}], "txid": "99a0f6ba98856b9ee98960a7b40ec6c6899f5564e381c62e3e17c41553389fa9", "blocktime": 1537873282, "version": 1, "confirmations": 11481, "time": 1537873282, "locktime": 542995, "vsize": 226, "size": 226}