{"hash": "830de0761a9fb102c2a2edf99062d357ede99fda74d8ace7339dd3cf8713a02d", "blockhash": "00000000000000000018f53835495a110e01622372bf6ae95dc86f2b0ab887b0", "vout": [{"scriptPubKey": {"reqSigs": 1, "hex": "0014e4d54d61f3c1f39e64a2d566de4e0f7aa0afd3ec", "addresses": ["bc1qun256c0nc8eeue9z64nduns002s2l5lvwrt97l"], "asm": "0 e4d54d61f3c1f39e64a2d566de4e0f7aa0afd3ec", "type": "witness_v0_keyhash"}, "value": 0.00163494, "n": 0}, {"scriptPubKey": {"reqSigs": 1, "hex": "0020a303a1dc7c3561633ab93cb45a4b7ec7fd89ddde7f09b7f0829e6439162dd3d6", "addresses": ["bc1q5vp6rhrux4skxw4e8j695jm7cl7cnhw70uym0uyznejrj93d60tq2mle7r"], "asm": "0 a303a1dc7c3561633ab93cb45a4b7ec7fd89ddde7f09b7f0829e6439162dd3d6", "type": "witness_v0_scripthash"}, "value": 0.00707048, "n": 1}], "hex": "01000000000104d60160528254642cd4f4cdb345586308abef9d7f577d8b2925ed13baa6bed43e0000000000ffffffffe4e3ba1744f3b32f438901e0d2b9ceee18c051d1270534adc32ab393caa780880000000000ffffffff37db35a7df3fa2b6f34f2bead27c2b077c7bc44e31201cda6af7ee4d9c298dd80000000000ffffffff6622bab66acc067bccb98976cba74551ea8b060848369c27b27eb56e5dd352e60000000000ffffffff02a67e020000000000160014e4d54d61f3c1f39e64a2d566de4e0f7aa0afd3ece8c90a0000000000220020a303a1dc7c3561633ab93cb45a4b7ec7fd89ddde7f09b7f0829e6439162dd3d602473044022077517573c6e1ef7d4491ba4cd9b1c34ccf1161df9016a7a17628147bdc6d2c3c02204b9879ca180af46c035e68b771c00f3fb94d2ab5ddfb083b2be56466992c0e420121038fdc156a4b32a3be90745b9fafb03bba0a1688c21477f5a5cde641a9dd80b9770247304402206dd92e0be431232c43d1d883390faff5ada114175b342e62914f032c81ed74ec02200f3eaf1af2edd1659bcd58422a847a85c003a04602bfab31129908dad5c4c219012102fa3b9f42cb5f09947dc2b4793a6499e10154d86f5afcc1225ddbe47f6444593d0247304402207c71269592279b2eadb9104a10c74d6ef2b553ef321c5545959dd4255b584fcf0220702fdb4f47ed0d45ea2cde114f143c4fb51e3120e3da107ec5c0947e3e5960a301210361ca509e08d13f3cbd6f0de9ee4b9ea83215b7efcfd7cb10536fc87fe008d8b6024830450221009dfdbc70390b5153344d10905f11d8694f0000fc3503892bc63f43ae5746ed6c0220058aff1f9ef6f21092ce258e8a8c61a5b319b3fac384f339212f706b34d6bd44012102ebd0e948da133160d21e22c5cb60da6d4ab2705108e53f6d581f8285a712a88400000000", "vin": [{"txinwitness": ["3044022077517573c6e1ef7d4491ba4cd9b1c34ccf1161df9016a7a17628147bdc6d2c3c02204b9879ca180af46c035e68b771c00f3fb94d2ab5ddfb083b2be56466992c0e4201", "038fdc156a4b32a3be90745b9fafb03bba0a1688c21477f5a5cde641a9dd80b977"], "sequence": 4294967295, "scriptSig": {"hex": "", "asm": ""}, "vout": 0, "txid": "3ed4bea6ba13ed25298b7d577f9defab08635845b3cdf4d42c645482526001d6"}, {"txinwitness": ["304402206dd92e0be431232c43d1d883390faff5ada114175b342e62914f032c81ed74ec02200f3eaf1af2edd1659bcd58422a847a85c003a04602bfab31129908dad5c4c21901", "02fa3b9f42cb5f09947dc2b4793a6499e10154d86f5afcc1225ddbe47f6444593d"], "sequence": 4294967295, "scriptSig": {"hex": "", "asm": ""}, "vout": 0, "txid": "8880a7ca93b32ac3ad340527d151c018eeceb9d2e00189432fb3f34417bae3e4"}, {"txinwitness": ["304402207c71269592279b2eadb9104a10c74d6ef2b553ef321c5545959dd4255b584fcf0220702fdb4f47ed0d45ea2cde114f143c4fb51e3120e3da107ec5c0947e3e5960a301", "0361ca509e08d13f3cbd6f0de9ee4b9ea83215b7efcfd7cb10536fc87fe008d8b6"], "sequence": 4294967295, "scriptSig": {"hex": "", "asm": ""}, "vout": 0, "txid": "d88d299c4deef76ada1c20314ec47b7c072b7cd2ea2b4ff3b6a23fdfa735db37"}, {"txinwitness": ["30450221009dfdbc70390b5153344d10905f11d8694f0000fc3503892bc63f43ae5746ed6c0220058aff1f9ef6f21092ce258e8a8c61a5b319b3fac384f339212f706b34d6bd4401", "02ebd0e948da133160d21e22c5cb60da6d4ab2705108e53f6d581f8285a712a884"], "sequence": 4294967295, "scriptSig": {"hex": "", "asm": ""}, "vout": 0, "txid": "e652d35d6eb57eb2279c364808068bea5145a7cb7689b9cc7b06cc6ab6ba2266"}], "txid": "99a25f3840b9fc1d184d8e39e06ca6c218253c35dc3d4b3a43ebf89c251f663e", "blocktime": 1537870928, "version": 1, "confirmations": 11512, "time": 1537870928, "locktime": 0, "vsize": 356, "size": 679}