{"hash": "2ca85c7d6eb03f3aefbdfc5b012b64a74c4c2f83152bfed1a5be9527beeed73a", "blockhash": "0000000000000000000baef3f32e3676a92c3b2e5da21b426e4f302fc371ce76", "vout": [{"scriptPubKey": {"reqSigs": 1, "hex": "76a914d7bb3ae6230975573489f6720a03360a5669055888ac", "addresses": ["1LfgaDbVxki8xTLdH1mxif36o55S23jjU1"], "asm": "OP_DUP OP_HASH160 d7bb3ae6230975573489f6720a03360a56690558 OP_EQUALVERIFY OP_CHECKSIG", "type": "pubkeyhash"}, "value": 0.00487, "n": 0}, {"scriptPubKey": {"reqSigs": 1, "hex": "a9148b809b177d54fbd0630522b8ee6f7d3ead00cc3387", "addresses": ["3EQduu297YgWoKHVGvAAEAs2zVxB2yBoWu"], "asm": "OP_HASH160 8b809b177d54fbd0630522b8ee6f7d3ead00cc33 OP_EQUAL", "type": "scripthash"}, "value": 0.00283461, "n": 1}, {"scriptPubKey": {"reqSigs": 1, "hex": "76a914e03b5d16ac736a2b491746e21496f8c0ced8b8c588ac", "addresses": ["1MSdUdNiDryMj3rF9NCWyCEMS3pz8435U4"], "asm": "OP_DUP OP_HASH160 e03b5d16ac736a2b491746e21496f8c0ced8b8c5 OP_EQUALVERIFY OP_CHECKSIG", "type": "pubkeyhash"}, "value": 0.04973248, "n": 2}, {"scriptPubKey": {"reqSigs": 1, "hex": "76a914640357b0696cc544145f0b6ac0f60046b640962e88ac", "addresses": ["1A7paRjhTi82ssQHq72cnzY83wW2K5AerH"], "asm": "OP_DUP OP_HASH160 640357b0696cc544145f0b6ac0f60046b640962e OP_EQUALVERIFY OP_CHECKSIG", "type": "pubkeyhash"}, "value": 0.00199717, "n": 3}, {"scriptPubKey": {"reqSigs": 1, "hex": "a914a8208e6e92c1d453b2f03107d8b35f4a4d4fabaa87", "addresses": ["3H1zSpy6PVw9AYfospo9vktdGJHZZ8HrRw"], "asm": "OP_HASH160 a8208e6e92c1d453b2f03107d8b35f4a4d4fabaa OP_EQUAL", "type": "scripthash"}, "value": 0.0047526, "n": 4}, {"scriptPubKey": {"reqSigs": 1, "hex": "a91415a71521b4795c74fba6f819a5147b4547fe235887", "addresses": ["33fWGfsRbadjXqedjZgTTm4NxtZnrF7yM7"], "asm": "OP_HASH160 15a71521b4795c74fba6f819a5147b4547fe2358 OP_EQUAL", "type": "scripthash"}, "value": 0.27233387, "n": 5}, {"scriptPubKey": {"reqSigs": 1, "hex": "76a914d6b06682e012d7ba5efa0910446c8fa117af202b88ac", "addresses": ["1LaAvZzLqdNfbJVhWL5bp8QMvpATcfXQQf"], "asm": "OP_DUP OP_HASH160 d6b06682e012d7ba5efa0910446c8fa117af202b OP_EQUALVERIFY OP_CHECKSIG", "type": "pubkeyhash"}, "value": 0.00313226, "n": 6}, {"scriptPubKey": {"reqSigs": 1, "hex": "a914b5ce5c7228263e46304a539b9d1bc5aff924f60187", "addresses": ["3JGKSVBwZ3f4wST5D3yYW4yAusTAaJc5kM"], "asm": "OP_HASH160 b5ce5c7228263e46304a539b9d1bc5aff924f601 OP_EQUAL", "type": "scripthash"}, "value": 0.00273475, "n": 7}, {"scriptPubKey": {"reqSigs": 1, "hex": "a914c01945ef7f5d8a7312f3f252f80fdc9aa2b310a587", "addresses": ["3KCjwPPrdaPCMatbKCETr5gNWZe1qwor3M"], "asm": "OP_HASH160 c01945ef7f5d8a7312f3f252f80fdc9aa2b310a5 OP_EQUAL", "type": "scripthash"}, "value": 0.02317846, "n": 8}, {"scriptPubKey": {"reqSigs": 1, "hex": "76a914e264c06c85411e8f337b77c157152ac96b149c1188ac", "addresses": ["1Me4QhggREUPeypmpgjaDznUVQ3Z6hsr9o"], "asm": "OP_DUP OP_HASH160 e264c06c85411e8f337b77c157152ac96b149c11 OP_EQUALVERIFY OP_CHECKSIG", "type": "pubkeyhash"}, "value": 0.003131, "n": 9}, {"scriptPubKey": {"reqSigs": 1, "hex": "76a914dd59c20f2b978c48de40255002da2a290721fbad88ac", "addresses": ["1MBPrtnDZKoMxpY1Vjk9k3CbEVQo74rS9d"], "asm": "OP_DUP OP_HASH160 dd59c20f2b978c48de40255002da2a290721fbad OP_EQUALVERIFY OP_CHECKSIG", "type": "pubkeyhash"}, "value": 0.001689, "n": 10}, {"scriptPubKey": {"reqSigs": 1, "hex": "a91419f8c3f192b23c299e3ae7d83087b52414a1f61387", "addresses": ["344LprzvRF4hz8XRy3HKie9p9VuQjeKSDx"], "asm": "OP_HASH160 19f8c3f192b23c299e3ae7d83087b52414a1f613 OP_EQUAL", "type": "scripthash"}, "value": 0.01775746, "n": 11}, {"scriptPubKey": {"reqSigs": 1, "hex": "a914fc9c8729c10ed30090c54c4f828baaa84917f80487", "addresses": ["3Qihie4XLt9NFYD5meohLcZopFzJmg6bhm"], "asm": "OP_HASH160 fc9c8729c10ed30090c54c4f828baaa84917f804 OP_EQUAL", "type": "scripthash"}, "value": 0.00517574, "n": 12}, {"scriptPubKey": {"reqSigs": 1, "hex": "a9144a11f1344d9a44f0c436e3f98335bdee904a9a4b87", "addresses": ["38SfRPJo9j46692yhosou3hMo3RPmFATzc"], "asm": "OP_HASH160 4a11f1344d9a44f0c436e3f98335bdee904a9a4b OP_EQUAL", "type": "scripthash"}, "value": 0.00796099, "n": 13}, {"scriptPubKey": {"reqSigs": 1, "hex": "a9148de5e3cf97b85931298038b496d00716787b28c487", "addresses": ["3EdJbcyt476LEKHo9X4uNtXDbD218DEy87"], "asm": "OP_HASH160 8de5e3cf97b85931298038b496d00716787b28c4 OP_EQUAL", "type": "scripthash"}, "value": 0.0067806, "n": 14}, {"scriptPubKey": {"reqSigs": 1, "hex": "76a9143c90d023b34d844ae87bfbe0846344ca045dd10088ac", "addresses": ["16XF2JCfBBJAf6oRVwwf8Qk2NUJz8BMNDW"], "asm": "OP_DUP OP_HASH160 3c90d023b34d844ae87bfbe0846344ca045dd100 OP_EQUALVERIFY OP_CHECKSIG", "type": "pubkeyhash"}, "value": 0.00223833, "n": 15}, {"scriptPubKey": {"reqSigs": 1, "hex": "a91474ddf9be2f83ba495e94e4ccfa517293f3deb9a787", "addresses": ["3CLxDvnuSpdEvYkfKCvo9LfxB6jh5ZCndm"], "asm": "OP_HASH160 74ddf9be2f83ba495e94e4ccfa517293f3deb9a7 OP_EQUAL", "type": "scripthash"}, "value": 0.00215151, "n": 16}, {"scriptPubKey": {"reqSigs": 1, "hex": "a91464542751ce3d2bf1749044498f6c8bd0f07f735887", "addresses": ["3AqWJpZgAQycMhdQwmtKfvLbGUTDQg8RYQ"], "asm": "OP_HASH160 64542751ce3d2bf1749044498f6c8bd0f07f7358 OP_EQUAL", "type": "scripthash"}, "value": 5.31841262, "n": 17}, {"scriptPubKey": {"reqSigs": 1, "hex": "a9140fba68df66a37bae9769948486ea261519b0f86387", "addresses": ["338BNPepPu1LUp3iiCKsSRCmW5cYpCGCbZ"], "asm": "OP_HASH160 0fba68df66a37bae9769948486ea261519b0f863 OP_EQUAL", "type": "scripthash"}, "value": 0.00259379, "n": 18}, {"scriptPubKey": {"reqSigs": 1, "hex": "a914c8e47105317a36753a102e4a594a42a2c0de7e2787", "addresses": ["3L1EjJVuHavnDr7jKqoMNjT9Mm3hUnDvEF"], "asm": "OP_HASH160 c8e47105317a36753a102e4a594a42a2c0de7e27 OP_EQUAL", "type": "scripthash"}, "value": 0.00406095, "n": 19}, {"scriptPubKey": {"reqSigs": 1, "hex": "a914fc5bdae7f4ec138bf30d6f72e08881bc7715d6f387", "addresses": ["3QhNF68wsUpGced8EjohqKAHDRZRsyta9z"], "asm": "OP_HASH160 fc5bdae7f4ec138bf30d6f72e08881bc7715d6f3 OP_EQUAL", "type": "scripthash"}, "value": 0.00314149, "n": 20}, {"scriptPubKey": {"reqSigs": 1, "hex": "a914fcbfcd5e8658d331174d67b71cdba7ecaa01ea7687", "addresses": ["3QjRyY7DJTVnWVjrPWRQsGdXtwoy4k5Map"], "asm": "OP_HASH160 fcbfcd5e8658d331174d67b71cdba7ecaa01ea76 OP_EQUAL", "type": "scripthash"}, "value": 0.00372574, "n": 21}, {"scriptPubKey": {"reqSigs": 1, "hex": "a91483a13833d87bbfa01a7556c6b423aeadb68db93f87", "addresses": ["3Dh1aQN5W9dRYqRKRMRqimNjKHduvodZBz"], "asm": "OP_HASH160 83a13833d87bbfa01a7556c6b423aeadb68db93f OP_EQUAL", "type": "scripthash"}, "value": 0.0021713, "n": 22}, {"scriptPubKey": {"reqSigs": 1, "hex": "a9145a6f7bde2ecc0f2d0de8e85699b02a290305dcfb87", "addresses": ["39wCHqqUGFXedyggYZitcN8vfZ3FXbWWQn"], "asm": "OP_HASH160 5a6f7bde2ecc0f2d0de8e85699b02a290305dcfb OP_EQUAL", "type": "scripthash"}, "value": 0.00825184, "n": 23}, {"scriptPubKey": {"reqSigs": 1, "hex": "a9144ac56c429b7a032c49dc6d7fcf2a559a4bbfff1787", "addresses": ["38WNRvSSsuGnsxDbQvCN57HZ5ci1Nd8KJW"], "asm": "OP_HASH160 4ac56c429b7a032c49dc6d7fcf2a559a4bbfff17 OP_EQUAL", "type": "scripthash"}, "value": 0.01442825, "n": 24}, {"scriptPubKey": {"reqSigs": 1, "hex": "a914cac8bcdd64aa5f5ce29f986a6acbb4ae141f9aa987", "addresses": ["3LBEtoBiiEf6Tf1ADS4tZTJyoJuYetw9Yg"], "asm": "OP_HASH160 cac8bcdd64aa5f5ce29f986a6acbb4ae141f9aa9 OP_EQUAL", "type": "scripthash"}, "value": 0.00591705, "n": 25}, {"scriptPubKey": {"reqSigs": 1, "hex": "76a9143b79b9bbe285ce0c0629713f23dfd4508ff2cf9088ac", "addresses": ["16RUgxRh16zkKD1xwpxEqws7hN8167Up1V"], "asm": "OP_DUP OP_HASH160 3b79b9bbe285ce0c0629713f23dfd4508ff2cf90 OP_EQUALVERIFY OP_CHECKSIG", "type": "pubkeyhash"}, "value": 0.01174913, "n": 26}, {"scriptPubKey": {"reqSigs": 1, "hex": "76a914079b2ae2e5e59738143108e604a1f7828d080c2f88ac", "addresses": ["1hDca9K1zHEPpxiEX9UU7QLMR8xtYK9GR"], "asm": "OP_DUP OP_HASH160 079b2ae2e5e59738143108e604a1f7828d080c2f OP_EQUALVERIFY OP_CHECKSIG", "type": "pubkeyhash"}, "value": 0.00442928, "n": 27}, {"scriptPubKey": {"reqSigs": 1, "hex": "a914930cc0af3717d1212a331c0da220c6fc4d94095787", "addresses": ["3F6YXpAx58NiN4dqgHYriSpJGp4ZH2UMT4"], "asm": "OP_HASH160 930cc0af3717d1212a331c0da220c6fc4d940957 OP_EQUAL", "type": "scripthash"}, "value": 0.00364943, "n": 28}, {"scriptPubKey": {"reqSigs": 1, "hex": "76a9142870a2ae0145abf507017f216a5278349318708d88ac", "addresses": ["14gpxivBau1KxLPpLpRsdSX7VRkPjpJEwd"], "asm": "OP_DUP OP_HASH160 2870a2ae0145abf507017f216a5278349318708d OP_EQUALVERIFY OP_CHECKSIG", "type": "pubkeyhash"}, "value": 0.00452, "n": 29}, {"scriptPubKey": {"reqSigs": 1, "hex": "76a914af1259fc920c2c2804decc8ed6e06721270c8ac888ac", "addresses": ["1GxhEf2TAgaTayJ6Qy4RDCcSb3atSj2Dck"], "asm": "OP_DUP OP_HASH160 af1259fc920c2c2804decc8ed6e06721270c8ac8 OP_EQUALVERIFY OP_CHECKSIG", "type": "pubkeyhash"}, "value": 0.05355124, "n": 30}], "hex": "02000000000101c188696ac3eccb2ecaa179167065f6473310ecf165c8943f35743886675d8a640f00000017160014b981a30544d4a84f5740e1f6a03aed51f5830359feffffff1f586e0700000000001976a914d7bb3ae6230975573489f6720a03360a5669055888ac455304000000000017a9148b809b177d54fbd0630522b8ee6f7d3ead00cc3387c0e24b00000000001976a914e03b5d16ac736a2b491746e21496f8c0ced8b8c588ac250c0300000000001976a914640357b0696cc544145f0b6ac0f60046b640962e88ac7c4007000000000017a914a8208e6e92c1d453b2f03107d8b35f4a4d4fabaa876b8c9f010000000017a91415a71521b4795c74fba6f819a5147b4547fe2358878ac70400000000001976a914d6b06682e012d7ba5efa0910446c8fa117af202b88ac432c04000000000017a914b5ce5c7228263e46304a539b9d1bc5aff924f60187165e23000000000017a914c01945ef7f5d8a7312f3f252f80fdc9aa2b310a5870cc70400000000001976a914e264c06c85411e8f337b77c157152ac96b149c1188acc4930200000000001976a914dd59c20f2b978c48de40255002da2a290721fbad88ac82181b000000000017a91419f8c3f192b23c299e3ae7d83087b52414a1f61387c6e507000000000017a914fc9c8729c10ed30090c54c4f828baaa84917f80487c3250c000000000017a9144a11f1344d9a44f0c436e3f98335bdee904a9a4b87ac580a000000000017a9148de5e3cf97b85931298038b496d00716787b28c487596a0300000000001976a9143c90d023b34d844ae87bfbe0846344ca045dd10088ac6f4803000000000017a91474ddf9be2f83ba495e94e4ccfa517293f3deb9a787ee40b31f0000000017a91464542751ce3d2bf1749044498f6c8bd0f07f73588733f503000000000017a9140fba68df66a37bae9769948486ea261519b0f863874f3206000000000017a914c8e47105317a36753a102e4a594a42a2c0de7e278725cb04000000000017a914fc5bdae7f4ec138bf30d6f72e08881bc7715d6f3875eaf05000000000017a914fcbfcd5e8658d331174d67b71cdba7ecaa01ea76872a5003000000000017a91483a13833d87bbfa01a7556c6b423aeadb68db93f8760970c000000000017a9145a6f7bde2ecc0f2d0de8e85699b02a290305dcfb87090416000000000017a9144ac56c429b7a032c49dc6d7fcf2a559a4bbfff1787590709000000000017a914cac8bcdd64aa5f5ce29f986a6acbb4ae141f9aa98781ed1100000000001976a9143b79b9bbe285ce0c0629713f23dfd4508ff2cf9088ac30c20600000000001976a914079b2ae2e5e59738143108e604a1f7828d080c2f88ac8f9105000000000017a914930cc0af3717d1212a331c0da220c6fc4d94095787a0e50600000000001976a9142870a2ae0145abf507017f216a5278349318708d88ac74b65100000000001976a914af1259fc920c2c2804decc8ed6e06721270c8ac888ac02483045022100cd74664ca2275aa70395db37309bdee2e16fce343f3a3231474595693b0a92a102202256f3a5626aed8da6453c222d9cc103c8f2a985e2ae904172ca875c04b984290121033d0d9fd317618a2a2f99ebd0f2c870e795a5b05ba73850f3cd2be4ecf0243fe416490800", "vin": [{"txinwitness": ["3045022100cd74664ca2275aa70395db37309bdee2e16fce343f3a3231474595693b0a92a102202256f3a5626aed8da6453c222d9cc103c8f2a985e2ae904172ca875c04b9842901", "033d0d9fd317618a2a2f99ebd0f2c870e795a5b05ba73850f3cd2be4ecf0243fe4"], "sequence": 4294967294, "scriptSig": {"hex": "160014b981a30544d4a84f5740e1f6a03aed51f5830359", "asm": "0014b981a30544d4a84f5740e1f6a03aed51f5830359"}, "vout": 15, "txid": "648a5d67863874353f94c865f1ec103347f665701679a1ca2ecbecc36a6988c1"}], "txid": "99aa381ced10d4778dd40a81c7c7c98ee168412f714a9678d6caae59eb1f5533", "blocktime": 1537876114, "version": 2, "confirmations": 11459, "time": 1537876114, "locktime": 542998, "vsize": 1116, "size": 1198}