{"hash": "99aed4baa50abda5771c73f23e56917e185ca9a276f3e9e688e9601f39baf4b9", "blockhash": "00000000000000000017f5eb5941039fbcee6240d03bc1f2f8e35350df66a1d8", "vout": [{"scriptPubKey": {"reqSigs": 1, "hex": "76a914fd8e15ad714c1141cc606cbd3976987d9e2873ba88ac", "addresses": ["1Q7gAkUawu6i5fxg3dgCjSTMfDyUXTbXyK"], "asm": "OP_DUP OP_HASH160 fd8e15ad714c1141cc606cbd3976987d9e2873ba OP_EQUALVERIFY OP_CHECKSIG", "type": "pubkeyhash"}, "value": 0.17315815, "n": 0}, {"scriptPubKey": {"reqSigs": 1, "hex": "a914c2d58bb9d692b49dc8e0437d34a8dee453ffbcdb87", "addresses": ["3KTCqBUhN5SdMRbQ2gKobaAvTJg3Ygduzo"], "asm": "OP_HASH160 c2d58bb9d692b49dc8e0437d34a8dee453ffbcdb OP_EQUAL", "type": "scripthash"}, "value": 0.074535, "n": 1}], "hex": "01000000036395056477310d921671d40959e2a0ff14fdc4860745ce90f02b22474370c1df01000000fdfe0000483045022100caf71a8e153d655fc18760fb8ebdf7d7715be22f4a026bf9d61eb29728969b2a02204a8bcbaa498e94422e7951d17b124c794dfa8b33835886535b4ad54d90f77e3501483045022100961623b836be82a25f64714741d1c105df377ed726a5a2c7567e661d8c41b5bf02200773eded5b9d0af88da16c0ccc728b2d2c4b119b8861cfcd841c83d4c78aeb3d014c6952210340683db01ec0ea6ff090047efc7dfb71d786f52c5b65da948fe339b62a84e1cf210233631ff726e148292c1fcd1515936cb3f12406eb277c76eeea39579edb7e80b9210263224f38ef9dd61f512f0831942081293ce568d52a323dbc3e67e4dfd2d3066853aeffffffffc6ef74d7c656839d7aaf6d987aa5bc9d1f73b977b196446d799ff19f5a30614901000000fdfd0000483045022100831726ad8aa1800e978021ec5ff806c14c60b58c69769423f68a145f73f414a602207c1b4d7cd3dbeb19ee141e0c890e5ad56ed719066d781139ada3a9af84b8e7730147304402203c346accc10ee9eb901731328738af7baad1ca56780e9396abfb76c833ee3d190220497524cd89f802eb5c73ae7da84fa0f1fca820614150a12dc3b72a67c4e43e0a014c69522103aeebe821f4a8353fd512f6232007606a8ae72c3ae9a902892eb10384ce611ea8210233631ff726e148292c1fcd1515936cb3f12406eb277c76eeea39579edb7e80b9210263224f38ef9dd61f512f0831942081293ce568d52a323dbc3e67e4dfd2d3066853aeffffffffcdfaa9d82e9e670eac1a3477e203997eb2327574b884493a3c6f4fbcf548b30f00000000fc0047304402205bc63c1f5b74360f1c7bd334c4cf33021c13b2583b512858afc69671f5ba9f840220708c4c6426ff79ccd6697b72179d4ff232438e41c3ba7d038b063102191bc0df014730440220205c4519a7f75688fcc41338c95f49d9c2ae6a907792d9c7a425abe4d0b26c1002203af1299c2109e21606dcb0ce803ca8247af0e20579eff2097da862e095fc791f014c69522102b5f861b6082061118c63e073517e5def4d25bbc9f5b556ec4c0076a2b13a5d86210233631ff726e148292c1fcd1515936cb3f12406eb277c76eeea39579edb7e80b9210263224f38ef9dd61f512f0831942081293ce568d52a323dbc3e67e4dfd2d3066853aeffffffff02e7370801000000001976a914fd8e15ad714c1141cc606cbd3976987d9e2873ba88ac3cbb71000000000017a914c2d58bb9d692b49dc8e0437d34a8dee453ffbcdb8700000000", "vin": [{"sequence": 4294967295, "scriptSig": {"hex": "00483045022100caf71a8e153d655fc18760fb8ebdf7d7715be22f4a026bf9d61eb29728969b2a02204a8bcbaa498e94422e7951d17b124c794dfa8b33835886535b4ad54d90f77e3501483045022100961623b836be82a25f64714741d1c105df377ed726a5a2c7567e661d8c41b5bf02200773eded5b9d0af88da16c0ccc728b2d2c4b119b8861cfcd841c83d4c78aeb3d014c6952210340683db01ec0ea6ff090047efc7dfb71d786f52c5b65da948fe339b62a84e1cf210233631ff726e148292c1fcd1515936cb3f12406eb277c76eeea39579edb7e80b9210263224f38ef9dd61f512f0831942081293ce568d52a323dbc3e67e4dfd2d3066853ae", "asm": "0 3045022100caf71a8e153d655fc18760fb8ebdf7d7715be22f4a026bf9d61eb29728969b2a02204a8bcbaa498e94422e7951d17b124c794dfa8b33835886535b4ad54d90f77e35[ALL] 3045022100961623b836be82a25f64714741d1c105df377ed726a5a2c7567e661d8c41b5bf02200773eded5b9d0af88da16c0ccc728b2d2c4b119b8861cfcd841c83d4c78aeb3d[ALL] 52210340683db01ec0ea6ff090047efc7dfb71d786f52c5b65da948fe339b62a84e1cf210233631ff726e148292c1fcd1515936cb3f12406eb277c76eeea39579edb7e80b9210263224f38ef9dd61f512f0831942081293ce568d52a323dbc3e67e4dfd2d3066853ae"}, "vout": 1, "txid": "dfc1704347222bf090ce450786c4fd14ffa0e25909d47116920d317764059563"}, {"sequence": 4294967295, "scriptSig": {"hex": "00483045022100831726ad8aa1800e978021ec5ff806c14c60b58c69769423f68a145f73f414a602207c1b4d7cd3dbeb19ee141e0c890e5ad56ed719066d781139ada3a9af84b8e7730147304402203c346accc10ee9eb901731328738af7baad1ca56780e9396abfb76c833ee3d190220497524cd89f802eb5c73ae7da84fa0f1fca820614150a12dc3b72a67c4e43e0a014c69522103aeebe821f4a8353fd512f6232007606a8ae72c3ae9a902892eb10384ce611ea8210233631ff726e148292c1fcd1515936cb3f12406eb277c76eeea39579edb7e80b9210263224f38ef9dd61f512f0831942081293ce568d52a323dbc3e67e4dfd2d3066853ae", "asm": "0 3045022100831726ad8aa1800e978021ec5ff806c14c60b58c69769423f68a145f73f414a602207c1b4d7cd3dbeb19ee141e0c890e5ad56ed719066d781139ada3a9af84b8e773[ALL] 304402203c346accc10ee9eb901731328738af7baad1ca56780e9396abfb76c833ee3d190220497524cd89f802eb5c73ae7da84fa0f1fca820614150a12dc3b72a67c4e43e0a[ALL] 522103aeebe821f4a8353fd512f6232007606a8ae72c3ae9a902892eb10384ce611ea8210233631ff726e148292c1fcd1515936cb3f12406eb277c76eeea39579edb7e80b9210263224f38ef9dd61f512f0831942081293ce568d52a323dbc3e67e4dfd2d3066853ae"}, "vout": 1, "txid": "4961305a9ff19f796d4496b177b9731f9dbca57a986daf7a9d8356c6d774efc6"}, {"sequence": 4294967295, "scriptSig": {"hex": "0047304402205bc63c1f5b74360f1c7bd334c4cf33021c13b2583b512858afc69671f5ba9f840220708c4c6426ff79ccd6697b72179d4ff232438e41c3ba7d038b063102191bc0df014730440220205c4519a7f75688fcc41338c95f49d9c2ae6a907792d9c7a425abe4d0b26c1002203af1299c2109e21606dcb0ce803ca8247af0e20579eff2097da862e095fc791f014c69522102b5f861b6082061118c63e073517e5def4d25bbc9f5b556ec4c0076a2b13a5d86210233631ff726e148292c1fcd1515936cb3f12406eb277c76eeea39579edb7e80b9210263224f38ef9dd61f512f0831942081293ce568d52a323dbc3e67e4dfd2d3066853ae", "asm": "0 304402205bc63c1f5b74360f1c7bd334c4cf33021c13b2583b512858afc69671f5ba9f840220708c4c6426ff79ccd6697b72179d4ff232438e41c3ba7d038b063102191bc0df[ALL] 30440220205c4519a7f75688fcc41338c95f49d9c2ae6a907792d9c7a425abe4d0b26c1002203af1299c2109e21606dcb0ce803ca8247af0e20579eff2097da862e095fc791f[ALL] 522102b5f861b6082061118c63e073517e5def4d25bbc9f5b556ec4c0076a2b13a5d86210233631ff726e148292c1fcd1515936cb3f12406eb277c76eeea39579edb7e80b9210263224f38ef9dd61f512f0831942081293ce568d52a323dbc3e67e4dfd2d3066853ae"}, "vout": 0, "txid": "0fb348f5bc4f6f3c3a4984b8747532b27e9903e277341aac0e679e2ed8a9facd"}], "txid": "99aed4baa50abda5771c73f23e56917e185ca9a276f3e9e688e9601f39baf4b9", "blocktime": 1537874412, "version": 1, "confirmations": 11467, "time": 1537874412, "locktime": 0, "vsize": 962, "size": 962}