{"hash": "99af13eec6fe50d29681b91e4ffc38f989e060edacf1fb921c794d599cab8423", "blockhash": "00000000000000000024a2167bbff67b0be802c0b01cdd79e6331c2be6459f87", "vout": [{"scriptPubKey": {"reqSigs": 1, "hex": "76a914a682751b817e01cdffe7a50f4dc431495cea118188ac", "addresses": ["1GBRTBpDm8B7PrzbKKoySWRubNZU8WUf6C"], "asm": "OP_DUP OP_HASH160 a682751b817e01cdffe7a50f4dc431495cea1181 OP_EQUALVERIFY OP_CHECKSIG", "type": "pubkeyhash"}, "value": 0.0211, "n": 0}, {"scriptPubKey": {"reqSigs": 1, "hex": "76a91413d41c2d5f6926bc410ebc5de52e6720ff16d1b088ac", "addresses": ["12oqwK1we5e2SA3XTbUjNnCGRbjHdtw5XZ"], "asm": "OP_DUP OP_HASH160 13d41c2d5f6926bc410ebc5de52e6720ff16d1b0 OP_EQUALVERIFY OP_CHECKSIG", "type": "pubkeyhash"}, "value": 4.621, "n": 1}], "hex": "0100000001b87a665ef578e81154540b668d41344665cc9b39340d7500cabf66e895ad0243010000006a47304402207f1cc7c87c7d7c58b44c02958a5c7b8721846cf0e94a3d13dba6361fb5b14e8002203e18516b6a7153ae75017fa9788f452ca325c491b8e65193d99f940ea9050ead012103b8b1ae9c1af3de41271e39b92318e34173a98e46d79d931185f1ae99eaa105c9ffffffff0230322000000000001976a914a682751b817e01cdffe7a50f4dc431495cea118188ac20168b1b000000001976a91413d41c2d5f6926bc410ebc5de52e6720ff16d1b088ac00000000", "vin": [{"sequence": 4294967295, "scriptSig": {"hex": "47304402207f1cc7c87c7d7c58b44c02958a5c7b8721846cf0e94a3d13dba6361fb5b14e8002203e18516b6a7153ae75017fa9788f452ca325c491b8e65193d99f940ea9050ead012103b8b1ae9c1af3de41271e39b92318e34173a98e46d79d931185f1ae99eaa105c9", "asm": "304402207f1cc7c87c7d7c58b44c02958a5c7b8721846cf0e94a3d13dba6361fb5b14e8002203e18516b6a7153ae75017fa9788f452ca325c491b8e65193d99f940ea9050ead[ALL] 03b8b1ae9c1af3de41271e39b92318e34173a98e46d79d931185f1ae99eaa105c9"}, "vout": 1, "txid": "4302ad95e866bfca00750d34399bcc654634418d660b545411e878f55e667ab8"}], "txid": "99af13eec6fe50d29681b91e4ffc38f989e060edacf1fb921c794d599cab8423", "blocktime": 1537870564, "version": 1, "confirmations": 11515, "time": 1537870564, "locktime": 0, "vsize": 225, "size": 225}