{"hash": "99b00ea900d98d302d57deb7d28c6dccab11d912181cc56292c0ede59a7ee688", "blockhash": "0000000000000000001cda96e906b7601b7a6fb1a3b62bca570a9e5d8f4b3de1", "vout": [{"scriptPubKey": {"reqSigs": 1, "hex": "76a9143a543dbd8f91857697387c2e94dc0122224564c888ac", "addresses": ["16KR7Jio4tpgWZWV3aatKCEjSQCdxdScKC"], "asm": "OP_DUP OP_HASH160 3a543dbd8f91857697387c2e94dc0122224564c8 OP_EQUALVERIFY OP_CHECKSIG", "type": "pubkeyhash"}, "value": 0.01583546, "n": 0}, {"scriptPubKey": {"reqSigs": 1, "hex": "a9147b0243e7a68591146f622c95f400e3398113031187", "addresses": ["3CuRkXn6pTE1wKaNpwKP8r2GjDsCCE38b1"], "asm": "OP_HASH160 7b0243e7a68591146f622c95f400e33981130311 OP_EQUAL", "type": "scripthash"}, "value": 0.1278498, "n": 1}], "hex": "0100000004d7c999ea3c511b04d8f5dca4747850c7a058468f1cf44a9064d340b17cbc7439010000006b483045022100b0a92e2381a6e13b680902fd3486b3024745ee1e47c63fb5503b1167a441806c0220447ab324f26842bed31e385abbf710321fc2aaf8fce83d664777e491188e3f900121036eb5bb4b57df7a59a8daf380fcbaa3abce77150ef9ba73f0dc95ea4c3297fe87fffffffff55e8dc78d7b8b225c8732e6b304bb286549986b8e28153559685214b4629b52000000006b48304502210099aa6d74f148eb2073e6b19cdf63750e6cf310fba03ed2f13bdfc4f289dfbc1d02201099fcb2cdf1eceb0f6b1f27827036de001f00b56c7eb2ebb14343f8ca08b4a1012102c1fffd54f6b02097bb46df434b721ff74788ad1808edc3ca58b877f15e74f134ffffffff455083fc97220b27f293f243bcbf8df9873013fece891ba038a96adc175c8165000000006b483045022100a5d58b2d57ca3ff0e89cbf87d9e4dcadfe9835a9c8323e4c9f76539e510e1d4802205aa0e2f8fdfa033bbc706b5d3fc4108cd22aa92622a64e73493d1114bc523a1c0121026865069f1a53df838c928fd8f1e5ca7e7aac3f317415d3fcb741f2d5d4c37b28ffffffff44f6b3c7d83a03f1867ded6a47a96be6da7561b8e4d3f2007fc95a3ee33dd381000000006a473044022059ac0928539c773c4c961c1d85933cc038ad0155dbf120942755acf2941939e402200eb529e50ff3c5f35e4e37ec744f3a67c78efaa5fa125cacc067164ae9dc683e0121021ac9f77dfd5b197f216abbe01afbcbd18c30ba2431d592ba13e977f9ccf783ffffffffff02ba291800000000001976a9143a543dbd8f91857697387c2e94dc0122224564c888ac5415c3000000000017a9147b0243e7a68591146f622c95f400e339811303118700000000", "vin": [{"sequence": 4294967295, "scriptSig": {"hex": "483045022100b0a92e2381a6e13b680902fd3486b3024745ee1e47c63fb5503b1167a441806c0220447ab324f26842bed31e385abbf710321fc2aaf8fce83d664777e491188e3f900121036eb5bb4b57df7a59a8daf380fcbaa3abce77150ef9ba73f0dc95ea4c3297fe87", "asm": "3045022100b0a92e2381a6e13b680902fd3486b3024745ee1e47c63fb5503b1167a441806c0220447ab324f26842bed31e385abbf710321fc2aaf8fce83d664777e491188e3f90[ALL] 036eb5bb4b57df7a59a8daf380fcbaa3abce77150ef9ba73f0dc95ea4c3297fe87"}, "vout": 1, "txid": "3974bc7cb140d364904af41c8f4658a0c7507874a4dcf5d8041b513cea99c9d7"}, {"sequence": 4294967295, "scriptSig": {"hex": "48304502210099aa6d74f148eb2073e6b19cdf63750e6cf310fba03ed2f13bdfc4f289dfbc1d02201099fcb2cdf1eceb0f6b1f27827036de001f00b56c7eb2ebb14343f8ca08b4a1012102c1fffd54f6b02097bb46df434b721ff74788ad1808edc3ca58b877f15e74f134", "asm": "304502210099aa6d74f148eb2073e6b19cdf63750e6cf310fba03ed2f13bdfc4f289dfbc1d02201099fcb2cdf1eceb0f6b1f27827036de001f00b56c7eb2ebb14343f8ca08b4a1[ALL] 02c1fffd54f6b02097bb46df434b721ff74788ad1808edc3ca58b877f15e74f134"}, "vout": 0, "txid": "529b62b4145268593515288e6b98496528bb04b3e632875c228b7b8dc78d5ef5"}, {"sequence": 4294967295, "scriptSig": {"hex": "483045022100a5d58b2d57ca3ff0e89cbf87d9e4dcadfe9835a9c8323e4c9f76539e510e1d4802205aa0e2f8fdfa033bbc706b5d3fc4108cd22aa92622a64e73493d1114bc523a1c0121026865069f1a53df838c928fd8f1e5ca7e7aac3f317415d3fcb741f2d5d4c37b28", "asm": "3045022100a5d58b2d57ca3ff0e89cbf87d9e4dcadfe9835a9c8323e4c9f76539e510e1d4802205aa0e2f8fdfa033bbc706b5d3fc4108cd22aa92622a64e73493d1114bc523a1c[ALL] 026865069f1a53df838c928fd8f1e5ca7e7aac3f317415d3fcb741f2d5d4c37b28"}, "vout": 0, "txid": "65815c17dc6aa938a01b89cefe133087f98dbfbc43f293f2270b2297fc835045"}, {"sequence": 4294967295, "scriptSig": {"hex": "473044022059ac0928539c773c4c961c1d85933cc038ad0155dbf120942755acf2941939e402200eb529e50ff3c5f35e4e37ec744f3a67c78efaa5fa125cacc067164ae9dc683e0121021ac9f77dfd5b197f216abbe01afbcbd18c30ba2431d592ba13e977f9ccf783ff", "asm": "3044022059ac0928539c773c4c961c1d85933cc038ad0155dbf120942755acf2941939e402200eb529e50ff3c5f35e4e37ec744f3a67c78efaa5fa125cacc067164ae9dc683e[ALL] 021ac9f77dfd5b197f216abbe01afbcbd18c30ba2431d592ba13e977f9ccf783ff"}, "vout": 0, "txid": "81d33de33e5ac97f00f2d3e4b86175dae66ba9476aed7d86f1033ad8c7b3f644"}], "txid": "99b00ea900d98d302d57deb7d28c6dccab11d912181cc56292c0ede59a7ee688", "blocktime": 1537873282, "version": 1, "confirmations": 11482, "time": 1537873282, "locktime": 0, "vsize": 667, "size": 667}