{"hash": "99b27061f10d15a70a811691d0f473192622213700c185ce98d7eec64c2f44bc", "blockhash": "0000000000000000000e13cef7c366c0283d82e591d1acd082e914b08063cdf1", "vout": [{"scriptPubKey": {"reqSigs": 1, "hex": "a914aedfb1f3a4cd162da056ee3fd983561e169a5b6687", "addresses": ["3HdfUXohUrvUWXY3RXqkf4XrUrQc5gNYEy"], "asm": "OP_HASH160 aedfb1f3a4cd162da056ee3fd983561e169a5b66 OP_EQUAL", "type": "scripthash"}, "value": 0.14841609, "n": 0}], "hex": "0100000001f4cc980164e17bd7a3c7be4b44d27e5fc3834e41c9510ae2e330f199f1ba84a4000000006a47304402201c1186fc6784dbf618b95f2aef494c32d3cd297703192fcc46f9a639670d66e802206538b74eeb6a681fde920c7a8775609ae93bfe36b2a2ec4f87827972020849ac012103a5526ad9ab0742e092e52ad68d73a9efa5ffacbb57ead4fcef18f66c1497b5f4fdffffff010977e2000000000017a914aedfb1f3a4cd162da056ee3fd983561e169a5b668710490800", "vin": [{"sequence": 4294967293, "scriptSig": {"hex": "47304402201c1186fc6784dbf618b95f2aef494c32d3cd297703192fcc46f9a639670d66e802206538b74eeb6a681fde920c7a8775609ae93bfe36b2a2ec4f87827972020849ac012103a5526ad9ab0742e092e52ad68d73a9efa5ffacbb57ead4fcef18f66c1497b5f4", "asm": "304402201c1186fc6784dbf618b95f2aef494c32d3cd297703192fcc46f9a639670d66e802206538b74eeb6a681fde920c7a8775609ae93bfe36b2a2ec4f87827972020849ac[ALL] 03a5526ad9ab0742e092e52ad68d73a9efa5ffacbb57ead4fcef18f66c1497b5f4"}, "vout": 0, "txid": "a484baf199f130e3e20a51c9414e83c35f7ed2444bbec7a3d77be1640198ccf4"}], "txid": "99b27061f10d15a70a811691d0f473192622213700c185ce98d7eec64c2f44bc", "blocktime": 1537871767, "version": 1, "confirmations": 11493, "time": 1537871767, "locktime": 542992, "vsize": 189, "size": 189}