{"hash": "99b3d42d0644ab3331ef885f6f139624b815e442d1fbf25ccff36cea63a858cb", "blockhash": "0000000000000000000baef3f32e3676a92c3b2e5da21b426e4f302fc371ce76", "vout": [{"scriptPubKey": {"reqSigs": 1, "hex": "a91457848813fd1705c0ef4cf433e23fbdce215f989c87", "addresses": ["39fmUgnub1gegrewe6S6M9qmL8ioFHLbxs"], "asm": "OP_HASH160 57848813fd1705c0ef4cf433e23fbdce215f989c OP_EQUAL", "type": "scripthash"}, "value": 0.01078, "n": 0}, {"scriptPubKey": {"reqSigs": 1, "hex": "a914e370231feecbfc25e2e2423a5a79bf79bfdca59887", "addresses": ["3NRbeX3vD5VaVE4TDU9ivCDsEf7NPPte6J"], "asm": "OP_HASH160 e370231feecbfc25e2e2423a5a79bf79bfdca598 OP_EQUAL", "type": "scripthash"}, "value": 10.19809284, "n": 1}], "hex": "0100000001a0fa3e4f40fa6987539383f491670a0480e7bbaf9228ec1c7d0101c637c70e0f01000000da004730440220516c490d02853da6b8b4270ac4291f5d8b5f34236bcf002b7e21cbebed9852a702204d106f35f9bc2aca3e09e1e955e20d86dd6da97947bb10d59a66d16819b2a44901483045022100d94593825a0c940f3bf3598bd9ef681091ac727eef7c5dced499a23bb75a0642022069181f697894a4e8e73238d0922885d74d60566bea1c7ac470ab052c3c209093014752210327881b6abce6535553a3ce21fad12a7d74fd237ce7c4cd270a267162344e3082210256141f8eb687f5a68c5cc65054652dc25116fa285e44d72b44368827ffe77d9a52aeffffffff02f07210000000000017a91457848813fd1705c0ef4cf433e23fbdce215f989c87040ec93c0000000017a914e370231feecbfc25e2e2423a5a79bf79bfdca5988700000000", "vin": [{"sequence": 4294967295, "scriptSig": {"hex": "004730440220516c490d02853da6b8b4270ac4291f5d8b5f34236bcf002b7e21cbebed9852a702204d106f35f9bc2aca3e09e1e955e20d86dd6da97947bb10d59a66d16819b2a44901483045022100d94593825a0c940f3bf3598bd9ef681091ac727eef7c5dced499a23bb75a0642022069181f697894a4e8e73238d0922885d74d60566bea1c7ac470ab052c3c209093014752210327881b6abce6535553a3ce21fad12a7d74fd237ce7c4cd270a267162344e3082210256141f8eb687f5a68c5cc65054652dc25116fa285e44d72b44368827ffe77d9a52ae", "asm": "0 30440220516c490d02853da6b8b4270ac4291f5d8b5f34236bcf002b7e21cbebed9852a702204d106f35f9bc2aca3e09e1e955e20d86dd6da97947bb10d59a66d16819b2a449[ALL] 3045022100d94593825a0c940f3bf3598bd9ef681091ac727eef7c5dced499a23bb75a0642022069181f697894a4e8e73238d0922885d74d60566bea1c7ac470ab052c3c209093[ALL] 52210327881b6abce6535553a3ce21fad12a7d74fd237ce7c4cd270a267162344e3082210256141f8eb687f5a68c5cc65054652dc25116fa285e44d72b44368827ffe77d9a52ae"}, "vout": 1, "txid": "0f0ec737c601017d1cec2892afbbe780040a6791f48393538769fa404f3efaa0"}], "txid": "99b3d42d0644ab3331ef885f6f139624b815e442d1fbf25ccff36cea63a858cb", "blocktime": 1537876114, "version": 1, "confirmations": 11460, "time": 1537876114, "locktime": 0, "vsize": 333, "size": 333}