{"hash": "99b73fe7bb9c6b49254f8ed52620d0095a7ed54126d2ca4c226b6ee31f7bf90b", "blockhash": "00000000000000000004ffacab907a6b429b9a5745fa0b75af4234bf69dd7176", "vout": [{"scriptPubKey": {"reqSigs": 1, "hex": "a914aa9d3e4c4b7181a9147c019ac15cb58b49ac70ac87", "addresses": ["3HF9AcbYopNGs57zB7VTqsh4rAGUhz9vsR"], "asm": "OP_HASH160 aa9d3e4c4b7181a9147c019ac15cb58b49ac70ac OP_EQUAL", "type": "scripthash"}, "value": 0.04158887, "n": 0}], "hex": "0100000001d8cbf26cff601a67e939f105007876494a908bbef83a126a043b303e2665580f01000000fdfd000047304402205a4baa878ff880ea7ce510bed91e9226f60eb2792318c48d2bce4ef14fbf4fd70220036ecd7a91ce475aa23f3d27183c3fa2704dce70730840eb50c88002ba5a087501483045022100eab7b85a8f30c064b428e372781b6d9e55acc6a2bb3cc2ce568b99ab59273c9002201a7037f4661ac23ce786e29abab45cf8702965fdd0cfb57eff05bc23a7631d91014c695221025e4789f1712e76f082dddb6a3cc686606a00a96b7a7652e75dfcea9d4b7465112102cd0b45d618e0439295d86675ee94c35cd1981f4461865636cc4081b192cb98272102b93b6f5f8c37fa31277b77690a6e1029954d45d54ad46fa6453735b87cedcbf053aeffffffff01a7753f000000000017a914aa9d3e4c4b7181a9147c019ac15cb58b49ac70ac8700000000", "vin": [{"sequence": 4294967295, "scriptSig": {"hex": "0047304402205a4baa878ff880ea7ce510bed91e9226f60eb2792318c48d2bce4ef14fbf4fd70220036ecd7a91ce475aa23f3d27183c3fa2704dce70730840eb50c88002ba5a087501483045022100eab7b85a8f30c064b428e372781b6d9e55acc6a2bb3cc2ce568b99ab59273c9002201a7037f4661ac23ce786e29abab45cf8702965fdd0cfb57eff05bc23a7631d91014c695221025e4789f1712e76f082dddb6a3cc686606a00a96b7a7652e75dfcea9d4b7465112102cd0b45d618e0439295d86675ee94c35cd1981f4461865636cc4081b192cb98272102b93b6f5f8c37fa31277b77690a6e1029954d45d54ad46fa6453735b87cedcbf053ae", "asm": "0 304402205a4baa878ff880ea7ce510bed91e9226f60eb2792318c48d2bce4ef14fbf4fd70220036ecd7a91ce475aa23f3d27183c3fa2704dce70730840eb50c88002ba5a0875[ALL] 3045022100eab7b85a8f30c064b428e372781b6d9e55acc6a2bb3cc2ce568b99ab59273c9002201a7037f4661ac23ce786e29abab45cf8702965fdd0cfb57eff05bc23a7631d91[ALL] 5221025e4789f1712e76f082dddb6a3cc686606a00a96b7a7652e75dfcea9d4b7465112102cd0b45d618e0439295d86675ee94c35cd1981f4461865636cc4081b192cb98272102b93b6f5f8c37fa31277b77690a6e1029954d45d54ad46fa6453735b87cedcbf053ae"}, "vout": 1, "txid": "0f5865263e303b046a123af8be8b904a4976780005f139e9671a60ff6cf2cbd8"}], "txid": "99b73fe7bb9c6b49254f8ed52620d0095a7ed54126d2ca4c226b6ee31f7bf90b", "blocktime": 1537875543, "version": 1, "confirmations": 11464, "time": 1537875543, "locktime": 0, "vsize": 338, "size": 338}