{"hash": "99b7ad0b0fbad77146ed807dba6f20a363668b7dd2fb2d7292273bba2ad87a46", "blockhash": "00000000000000000018f53835495a110e01622372bf6ae95dc86f2b0ab887b0", "vout": [{"scriptPubKey": {"reqSigs": 1, "hex": "76a914c0c316a453dd2c54120e983b09451fb92c37d73388ac", "addresses": ["1JaESpE51V5BgwRp4BiVhyqGmuUeBoXoEB"], "asm": "OP_DUP OP_HASH160 c0c316a453dd2c54120e983b09451fb92c37d733 OP_EQUALVERIFY OP_CHECKSIG", "type": "pubkeyhash"}, "value": 0.00018456, "n": 0}, {"scriptPubKey": {"reqSigs": 1, "hex": "76a9149547bd685f09bf3c70abca460db104919822b0ee88ac", "addresses": ["1EcKdA5e6XrVRiUQwUowE6gURqNVUHN8Ez"], "asm": "OP_DUP OP_HASH160 9547bd685f09bf3c70abca460db104919822b0ee OP_EQUALVERIFY OP_CHECKSIG", "type": "pubkeyhash"}, "value": 0.04059848, "n": 1}], "hex": "0100000001d9ed52223219e9b80fe182db72a25b7c49b67f3fb52cc6a65c68a40b838e8b95110000006a47304402203329cdd781c9dc6bad3fd404e113be553cc0c68f1f4fb533dc35960b39964cf00220454f0ca792a1146e69ab963de5d27f695d06bebf7606ee316e2c26d6bd16525d012102a0e5f3ba9ed26890389d59337b3a93b29b868fb5b3e2668c0640865c5f7f5f69ffffffff0218480000000000001976a914c0c316a453dd2c54120e983b09451fb92c37d73388acc8f23d00000000001976a9149547bd685f09bf3c70abca460db104919822b0ee88ac00000000", "vin": [{"sequence": 4294967295, "scriptSig": {"hex": "47304402203329cdd781c9dc6bad3fd404e113be553cc0c68f1f4fb533dc35960b39964cf00220454f0ca792a1146e69ab963de5d27f695d06bebf7606ee316e2c26d6bd16525d012102a0e5f3ba9ed26890389d59337b3a93b29b868fb5b3e2668c0640865c5f7f5f69", "asm": "304402203329cdd781c9dc6bad3fd404e113be553cc0c68f1f4fb533dc35960b39964cf00220454f0ca792a1146e69ab963de5d27f695d06bebf7606ee316e2c26d6bd16525d[ALL] 02a0e5f3ba9ed26890389d59337b3a93b29b868fb5b3e2668c0640865c5f7f5f69"}, "vout": 17, "txid": "958b8e830ba4685ca6c62cb53f7fb6497c5ba272db82e10fb8e919322252edd9"}], "txid": "99b7ad0b0fbad77146ed807dba6f20a363668b7dd2fb2d7292273bba2ad87a46", "blocktime": 1537870928, "version": 1, "confirmations": 11514, "time": 1537870928, "locktime": 0, "vsize": 225, "size": 225}