{"hash": "e021f85b521b54f2daae7b3b8e5fd138e616d5bffc3bf480143c40e5167effe2", "blockhash": "0000000000000000001cda96e906b7601b7a6fb1a3b62bca570a9e5d8f4b3de1", "vout": [{"scriptPubKey": {"reqSigs": 1, "hex": "a9145329bf8fe654111d589470e97c97b4fa7959743987", "addresses": ["39Gk2BqdHVKtBBKWXJwwGK3mFUHCS2aUNK"], "asm": "OP_HASH160 5329bf8fe654111d589470e97c97b4fa79597439 OP_EQUAL", "type": "scripthash"}, "value": 11.85404864, "n": 0}, {"scriptPubKey": {"reqSigs": 1, "hex": "a914d237d4167d2cf728a75ca840ec870b2d3788b3a687", "addresses": ["3LrYhriwrRRDmh3RLFtJqo49TN9gx3qYBo"], "asm": "OP_HASH160 d237d4167d2cf728a75ca840ec870b2d3788b3a6 OP_EQUAL", "type": "scripthash"}, "value": 0.499, "n": 1}], "hex": "0200000000010175c5a12ee932f49e01ceea63856936660144fad36eacf8a4ea6d55332bdb2cee0100000017160014108cb54a74d023929bd8c8504f9766b2ea7876ddfeffffff02c0d7a7460000000017a9145329bf8fe654111d589470e97c97b4fa7959743987e069f9020000000017a914d237d4167d2cf728a75ca840ec870b2d3788b3a68702473044022048166d48920a7be0860d6cd589cd9a38f019a787c947e25b8e946ab56590a05a02202e6cc761b4e4729e29e9ca8202463df6985b83febe913f3451394b88cf3c5607012102e150d0d89a93d8423a3b5ad1c69a583af8d6bce79f761cbe8eb19b672e16ebcf13490800", "vin": [{"txinwitness": ["3044022048166d48920a7be0860d6cd589cd9a38f019a787c947e25b8e946ab56590a05a02202e6cc761b4e4729e29e9ca8202463df6985b83febe913f3451394b88cf3c560701", "02e150d0d89a93d8423a3b5ad1c69a583af8d6bce79f761cbe8eb19b672e16ebcf"], "sequence": 4294967294, "scriptSig": {"hex": "160014108cb54a74d023929bd8c8504f9766b2ea7876dd", "asm": "0014108cb54a74d023929bd8c8504f9766b2ea7876dd"}, "vout": 1, "txid": "ee2cdb2b33556deaa4f8ac6ed3fa44016636698563eace019ef432e92ea1c575"}], "txid": "99b92b0899d5ff1fbd34949231ac005745a6edcdcda1b5945f3e40616c197453", "blocktime": 1537873282, "version": 2, "confirmations": 11480, "time": 1537873282, "locktime": 542995, "vsize": 166, "size": 247}