{"hash": "99bc043a0d3db8e84cfbd3d914ab9029894eb4e94919c38535da63298d511d01", "blockhash": "0000000000000000001f76057863aec43deb6fa401d9628bb513d65a8098bfab", "vout": [{"scriptPubKey": {"reqSigs": 1, "hex": "76a914686510595f9afe2ac3775b5ce694e784cdba99af88ac", "addresses": ["1AWzLzTnRDjkR363xvg25yDhB6qqsb21ZU"], "asm": "OP_DUP OP_HASH160 686510595f9afe2ac3775b5ce694e784cdba99af OP_EQUALVERIFY OP_CHECKSIG", "type": "pubkeyhash"}, "value": 0.02577188, "n": 0}], "hex": "01000000027ab02a8e493390949fb73716f6bf17981c8078812638d585ae6bda46a97de52c000000006b483045022100bba520fc603b2bbc48691a4cd5de933513e61b27f3c17e0a2936a00002fb3b4b02202a871325b3cb874fca2ffc5d6843c8616ec7d91569b6cc4bd5f80d255c3c39cb012102e23d28de0d6bdcb0d13096c66994c0f4de2a64123eb1df5acdb434d79e21e9a3ffffffff306950a5e8e83b1c95ea2efe882ae8e9bf6f5135bd34167cbaaa2f0e24f591c3000000006a4730440220399f6fee25cfdd13eab13d000f13991be8650fb9a78e5a8263bfca81ce35eddd02207436723e4205d96785e40a29064615ca966cce5c8f4ab9fdbfaa30788a99c4fd012102e23d28de0d6bdcb0d13096c66994c0f4de2a64123eb1df5acdb434d79e21e9a3ffffffff0124532700000000001976a914686510595f9afe2ac3775b5ce694e784cdba99af88ac00000000", "vin": [{"sequence": 4294967295, "scriptSig": {"hex": "483045022100bba520fc603b2bbc48691a4cd5de933513e61b27f3c17e0a2936a00002fb3b4b02202a871325b3cb874fca2ffc5d6843c8616ec7d91569b6cc4bd5f80d255c3c39cb012102e23d28de0d6bdcb0d13096c66994c0f4de2a64123eb1df5acdb434d79e21e9a3", "asm": "3045022100bba520fc603b2bbc48691a4cd5de933513e61b27f3c17e0a2936a00002fb3b4b02202a871325b3cb874fca2ffc5d6843c8616ec7d91569b6cc4bd5f80d255c3c39cb[ALL] 02e23d28de0d6bdcb0d13096c66994c0f4de2a64123eb1df5acdb434d79e21e9a3"}, "vout": 0, "txid": "2ce57da946da6bae85d538268178801c9817bff61637b79f949033498e2ab07a"}, {"sequence": 4294967295, "scriptSig": {"hex": "4730440220399f6fee25cfdd13eab13d000f13991be8650fb9a78e5a8263bfca81ce35eddd02207436723e4205d96785e40a29064615ca966cce5c8f4ab9fdbfaa30788a99c4fd012102e23d28de0d6bdcb0d13096c66994c0f4de2a64123eb1df5acdb434d79e21e9a3", "asm": "30440220399f6fee25cfdd13eab13d000f13991be8650fb9a78e5a8263bfca81ce35eddd02207436723e4205d96785e40a29064615ca966cce5c8f4ab9fdbfaa30788a99c4fd[ALL] 02e23d28de0d6bdcb0d13096c66994c0f4de2a64123eb1df5acdb434d79e21e9a3"}, "vout": 0, "txid": "c391f5240e2faaba7c1634bd35516fbfe9e82a88fe2eea951c3be8e8a5506930"}], "txid": "99bc043a0d3db8e84cfbd3d914ab9029894eb4e94919c38535da63298d511d01", "blocktime": 1537873891, "version": 1, "confirmations": 11474, "time": 1537873891, "locktime": 0, "vsize": 339, "size": 339}