{"hash": "99bcf9dd4f83d6842622a67f5fbb69c0920ddc6d76a19199bcfbc205892b258f", "blockhash": "00000000000000000004ffacab907a6b429b9a5745fa0b75af4234bf69dd7176", "vout": [{"scriptPubKey": {"reqSigs": 1, "hex": "76a914695458c1f16e870c67d87dd1dc2cb563374bfe2688ac", "addresses": ["1Abvzex4sWXVX4CdActDDCkZ38VCEgZ3FG"], "asm": "OP_DUP OP_HASH160 695458c1f16e870c67d87dd1dc2cb563374bfe26 OP_EQUALVERIFY OP_CHECKSIG", "type": "pubkeyhash"}, "value": 0.11387277, "n": 0}], "hex": "010000000880c6135bda6a5c2c1666a523714f68d3b33002d0c43d81f899a875eef08c414a010000006b4830450221009111e59537f38cc1a6689faf82da60ebc9223feaae7a09f8de14fa6b11828efb02202cef5b1d398cffb49c2c7f3e60058d19503b452d58a5ade254f1cb35358c0305012102f7d79a5d538db742548d2c7e9db5a1b5f5a2d2ee862760e58ae65b3c09be5bcffffffffffc39aecda12750754dd9fee4992a7b955d84e353baa12a4b2813ffe0c89dd96c000000006b483045022100a73d9328d957a1da7b6b90509fc46da53c53a10be21525db89cf62740f60954b02203bc793bc59b28bd39fb8b50a1e96a0f261cc0faffb71a77cc788de1d159d29100121031ce9f5cf32c9870e392dbb76f027f3d20be8bc34f35914f61ff8065008346474ffffffff38d9b3195e440f21d220245476c37fab00e13c2a8c7d97d0d1ca5ac117a929b9000000006a473044022059c7f227ba27d6f698f5a2c6fb333003c54186b21e5faf5b352d15ca19edb9ed022016fdc5772d63917c61f27c96153032ed8d03d17b642d7b8a13ffa404dce86cb101210215ce83320c145bd57a19173e780bd14f09589adae8b201405e76ab6076ca2b5dffffffff0df97eb0ca36a01cf185176b102a3207d674ca0cb87b249883ee7d4ce46762e8000000006b4830450221008ec68f8f44280328caeb370253a709f9e59310bd8b418ab412802641dc5d7b5b0220262be524d0cc446453b3e7987e57750f6d7cdeb307178a454b396b62c69fc6a1012102325b0d1ba016518d263a50e57804554af7809d6977e8c9d7cbca6de8292dee17ffffffff2a214c3791e2dff33ec2fcb41e42dd5ce24c72a011dfcf5d7ea02abef35bffec010000006b483045022100ff74078f86954cabdb6eafb0e23472fbde5197098e89ff886d51d8bbfb75fe7e02202abdfd6a9db91323db6b3d9ad753f718d16f15d4551b07313892b6043998ac6f012102f9bfd78f9bc09d0c1785591fc9fc67e9218e0853b5d80a5286527143eb76458cffffffff51d0b3dc3c31e50f0026bc74944c01b344cd866b600ad0a8061dd1174a2b99f0000000006b483045022100fb41dfecea5ab47e4b7280e7e1fc1f4fac5c085c6d0f75a13614470a5d099faa02201b57c7ffc14905dada19941055ed772c72ecb9d373be41bcd035dd7464d90498012102a07eebaccaa607dc8be2571aed377a7b44b06bfd7c29ea27a071e9a4a9b56c70ffffffff01b190b13a291c50f1465a93ff7c4668c25afb8ff2f5876885967e4701391df7010000006b483045022100e50fc825d09e837ee558d619917eac789863b04252d57e6462ec942299c8b85f02204ee76077a34c9789b2b20c988c19d351508b6bd296b510341095329d6cf8b93e012103d690d6c0c2ef0ec5188b2730ca62b8222c51285a8b109fe5d5d456052afc0ce5ffffffff9b2bd719481cc275e7992152b91217075cf9d8ccae6ff9d341dec386ff7547f7000000006a47304402202056aad3209e78c8543af4142751b14806ee09117ff313522d8908722883485402206db092a13dab2309aaf929c94e94d93376e34d8251594d83f51533a23e42a8020121020e5cc8661d30f2e40f4b5f9eb943e4ef7b614aa52ccbbe91bc779431249cefdeffffffff018dc1ad00000000001976a914695458c1f16e870c67d87dd1dc2cb563374bfe2688ac00000000", "vin": [{"sequence": 4294967295, "scriptSig": {"hex": "4830450221009111e59537f38cc1a6689faf82da60ebc9223feaae7a09f8de14fa6b11828efb02202cef5b1d398cffb49c2c7f3e60058d19503b452d58a5ade254f1cb35358c0305012102f7d79a5d538db742548d2c7e9db5a1b5f5a2d2ee862760e58ae65b3c09be5bcf", "asm": "30450221009111e59537f38cc1a6689faf82da60ebc9223feaae7a09f8de14fa6b11828efb02202cef5b1d398cffb49c2c7f3e60058d19503b452d58a5ade254f1cb35358c0305[ALL] 02f7d79a5d538db742548d2c7e9db5a1b5f5a2d2ee862760e58ae65b3c09be5bcf"}, "vout": 1, "txid": "4a418cf0ee75a899f8813dc4d00230b3d3684f7123a566162c5c6ada5b13c680"}, {"sequence": 4294967295, "scriptSig": {"hex": "483045022100a73d9328d957a1da7b6b90509fc46da53c53a10be21525db89cf62740f60954b02203bc793bc59b28bd39fb8b50a1e96a0f261cc0faffb71a77cc788de1d159d29100121031ce9f5cf32c9870e392dbb76f027f3d20be8bc34f35914f61ff8065008346474", "asm": "3045022100a73d9328d957a1da7b6b90509fc46da53c53a10be21525db89cf62740f60954b02203bc793bc59b28bd39fb8b50a1e96a0f261cc0faffb71a77cc788de1d159d2910[ALL] 031ce9f5cf32c9870e392dbb76f027f3d20be8bc34f35914f61ff8065008346474"}, "vout": 0, "txid": "6cd99dc8e0ff13284b2aa1ba53e3845d957b2a99e4fed94d755027a1cdae39fc"}, {"sequence": 4294967295, "scriptSig": {"hex": "473044022059c7f227ba27d6f698f5a2c6fb333003c54186b21e5faf5b352d15ca19edb9ed022016fdc5772d63917c61f27c96153032ed8d03d17b642d7b8a13ffa404dce86cb101210215ce83320c145bd57a19173e780bd14f09589adae8b201405e76ab6076ca2b5d", "asm": "3044022059c7f227ba27d6f698f5a2c6fb333003c54186b21e5faf5b352d15ca19edb9ed022016fdc5772d63917c61f27c96153032ed8d03d17b642d7b8a13ffa404dce86cb1[ALL] 0215ce83320c145bd57a19173e780bd14f09589adae8b201405e76ab6076ca2b5d"}, "vout": 0, "txid": "b929a917c15acad1d0977d8c2a3ce100ab7fc376542420d2210f445e19b3d938"}, {"sequence": 4294967295, "scriptSig": {"hex": "4830450221008ec68f8f44280328caeb370253a709f9e59310bd8b418ab412802641dc5d7b5b0220262be524d0cc446453b3e7987e57750f6d7cdeb307178a454b396b62c69fc6a1012102325b0d1ba016518d263a50e57804554af7809d6977e8c9d7cbca6de8292dee17", "asm": "30450221008ec68f8f44280328caeb370253a709f9e59310bd8b418ab412802641dc5d7b5b0220262be524d0cc446453b3e7987e57750f6d7cdeb307178a454b396b62c69fc6a1[ALL] 02325b0d1ba016518d263a50e57804554af7809d6977e8c9d7cbca6de8292dee17"}, "vout": 0, "txid": "e86267e44c7dee8398247bb80cca74d607322a106b1785f11ca036cab07ef90d"}, {"sequence": 4294967295, "scriptSig": {"hex": "483045022100ff74078f86954cabdb6eafb0e23472fbde5197098e89ff886d51d8bbfb75fe7e02202abdfd6a9db91323db6b3d9ad753f718d16f15d4551b07313892b6043998ac6f012102f9bfd78f9bc09d0c1785591fc9fc67e9218e0853b5d80a5286527143eb76458c", "asm": "3045022100ff74078f86954cabdb6eafb0e23472fbde5197098e89ff886d51d8bbfb75fe7e02202abdfd6a9db91323db6b3d9ad753f718d16f15d4551b07313892b6043998ac6f[ALL] 02f9bfd78f9bc09d0c1785591fc9fc67e9218e0853b5d80a5286527143eb76458c"}, "vout": 1, "txid": "ecff5bf3be2aa07e5dcfdf11a0724ce25cdd421eb4fcc23ef3dfe291374c212a"}, {"sequence": 4294967295, "scriptSig": {"hex": "483045022100fb41dfecea5ab47e4b7280e7e1fc1f4fac5c085c6d0f75a13614470a5d099faa02201b57c7ffc14905dada19941055ed772c72ecb9d373be41bcd035dd7464d90498012102a07eebaccaa607dc8be2571aed377a7b44b06bfd7c29ea27a071e9a4a9b56c70", "asm": "3045022100fb41dfecea5ab47e4b7280e7e1fc1f4fac5c085c6d0f75a13614470a5d099faa02201b57c7ffc14905dada19941055ed772c72ecb9d373be41bcd035dd7464d90498[ALL] 02a07eebaccaa607dc8be2571aed377a7b44b06bfd7c29ea27a071e9a4a9b56c70"}, "vout": 0, "txid": "f0992b4a17d11d06a8d00a606b86cd44b3014c9474bc26000fe5313cdcb3d051"}, {"sequence": 4294967295, "scriptSig": {"hex": "483045022100e50fc825d09e837ee558d619917eac789863b04252d57e6462ec942299c8b85f02204ee76077a34c9789b2b20c988c19d351508b6bd296b510341095329d6cf8b93e012103d690d6c0c2ef0ec5188b2730ca62b8222c51285a8b109fe5d5d456052afc0ce5", "asm": "3045022100e50fc825d09e837ee558d619917eac789863b04252d57e6462ec942299c8b85f02204ee76077a34c9789b2b20c988c19d351508b6bd296b510341095329d6cf8b93e[ALL] 03d690d6c0c2ef0ec5188b2730ca62b8222c51285a8b109fe5d5d456052afc0ce5"}, "vout": 1, "txid": "f71d3901477e96856887f5f28ffb5ac268467cff935a46f1501c293ab190b101"}, {"sequence": 4294967295, "scriptSig": {"hex": "47304402202056aad3209e78c8543af4142751b14806ee09117ff313522d8908722883485402206db092a13dab2309aaf929c94e94d93376e34d8251594d83f51533a23e42a8020121020e5cc8661d30f2e40f4b5f9eb943e4ef7b614aa52ccbbe91bc779431249cefde", "asm": "304402202056aad3209e78c8543af4142751b14806ee09117ff313522d8908722883485402206db092a13dab2309aaf929c94e94d93376e34d8251594d83f51533a23e42a802[ALL] 020e5cc8661d30f2e40f4b5f9eb943e4ef7b614aa52ccbbe91bc779431249cefde"}, "vout": 0, "txid": "f74775ff86c3de41d3f96faeccd8f95c071712b9522199e775c21c4819d72b9b"}], "txid": "99bcf9dd4f83d6842622a67f5fbb69c0920ddc6d76a19199bcfbc205892b258f", "blocktime": 1537875543, "version": 1, "confirmations": 11464, "time": 1537875543, "locktime": 0, "vsize": 1226, "size": 1226}