{"hash": "99be888b2c5c15b028e62e50cb6e1f85568a2fe769273a00223a1f3bbe5155eb", "blockhash": "0000000000000000000baef3f32e3676a92c3b2e5da21b426e4f302fc371ce76", "vout": [{"scriptPubKey": {"reqSigs": 1, "hex": "76a9148858d0b88f4e7738c4667c4317d2e0f3b6da8a8a88ac", "addresses": ["1DRwJ5wuqPbLfsZXZSu6TTLxYSFFRuYpiB"], "asm": "OP_DUP OP_HASH160 8858d0b88f4e7738c4667c4317d2e0f3b6da8a8a OP_EQUALVERIFY OP_CHECKSIG", "type": "pubkeyhash"}, "value": 0.013035, "n": 0}, {"scriptPubKey": {"reqSigs": 1, "hex": "a914d9fb666092bd30e461cd5e63645bc7b44da05fe787", "addresses": ["3MZbik3ikk4NtG9ouv7hEboyiNdVRotgFn"], "asm": "OP_HASH160 d9fb666092bd30e461cd5e63645bc7b44da05fe7 OP_EQUAL", "type": "scripthash"}, "value": 0.331305, "n": 1}, {"scriptPubKey": {"reqSigs": 1, "hex": "76a91472e16c66a343b3bc6af82804edc5c37bad6ed42688ac", "addresses": ["1BUS5Zi72Uamb3QvtYWqCSdku7C8yKE3Tc"], "asm": "OP_DUP OP_HASH160 72e16c66a343b3bc6af82804edc5c37bad6ed426 OP_EQUALVERIFY OP_CHECKSIG", "type": "pubkeyhash"}, "value": 10.12938406, "n": 2}], "hex": "0100000001aed39f5e16cd6c0c15a37aa28add5f3503ee71f9391614779d268780c5ee7845010000006a47304402205a706ddc7993f5fa61f2605a93bb3121dff3392f1c8e2c1e8f0f0d840648d6da02207130ba6a6b3464c8d8b121d74a8f6f2e06b18f748bf557ffa80c2b2ab3c60c5801210215b17e08fbea29185407d3cf03ddb6a6a05676ec0e94d7f22d62c8695960bcdaffffffff03cce31300000000001976a9148858d0b88f4e7738c4667c4317d2e0f3b6da8a8a88ac0488f9010000000017a914d9fb666092bd30e461cd5e63645bc7b44da05fe787a636603c000000001976a91472e16c66a343b3bc6af82804edc5c37bad6ed42688ac00000000", "vin": [{"sequence": 4294967295, "scriptSig": {"hex": "47304402205a706ddc7993f5fa61f2605a93bb3121dff3392f1c8e2c1e8f0f0d840648d6da02207130ba6a6b3464c8d8b121d74a8f6f2e06b18f748bf557ffa80c2b2ab3c60c5801210215b17e08fbea29185407d3cf03ddb6a6a05676ec0e94d7f22d62c8695960bcda", "asm": "304402205a706ddc7993f5fa61f2605a93bb3121dff3392f1c8e2c1e8f0f0d840648d6da02207130ba6a6b3464c8d8b121d74a8f6f2e06b18f748bf557ffa80c2b2ab3c60c58[ALL] 0215b17e08fbea29185407d3cf03ddb6a6a05676ec0e94d7f22d62c8695960bcda"}, "vout": 1, "txid": "4578eec58087269d77141639f971ee03355fdd8aa27aa3150c6ccd165e9fd3ae"}], "txid": "99be888b2c5c15b028e62e50cb6e1f85568a2fe769273a00223a1f3bbe5155eb", "blocktime": 1537876114, "version": 1, "confirmations": 11460, "time": 1537876114, "locktime": 0, "vsize": 257, "size": 257}