{"hash": "99c2ebec80c5417fd2b756de128e6f458e7497c88c671523b985bf18ea041fd0", "blockhash": "0000000000000000001f76057863aec43deb6fa401d9628bb513d65a8098bfab", "vout": [{"scriptPubKey": {"reqSigs": 1, "hex": "76a914ef059a567c20fad58e2bd1322ee4ee7ead9df20f88ac", "addresses": ["1NnqD9GXfhjR7mo5nY9A6mvG8uZpcT9RLV"], "asm": "OP_DUP OP_HASH160 ef059a567c20fad58e2bd1322ee4ee7ead9df20f OP_EQUALVERIFY OP_CHECKSIG", "type": "pubkeyhash"}, "value": 0.0147492, "n": 0}, {"scriptPubKey": {"type": "nulldata", "hex": "6a4c50000077dc0001057ffcdc7709b0f59811b7277af8e8e963c7cfd5b95b23cc0f42c2fc38c5e7f9b63708a5d9a01eb5a7faf062f1305baa15eb061314d0b4f7c043bc9a9526289ac0f6612cd74e33776ee4", "asm": "OP_RETURN 000077dc0001057ffcdc7709b0f59811b7277af8e8e963c7cfd5b95b23cc0f42c2fc38c5e7f9b63708a5d9a01eb5a7faf062f1305baa15eb061314d0b4f7c043bc9a9526289ac0f6612cd74e33776ee4"}, "value": 0.0, "n": 1}], "hex": "010000000160afa53f1d395a8cea458ec7dc9781febab11104c7735b927609e1dc5fc7ac17000000006b483045022100ac7319aa4c6ad9c7c352f2ba7efb8e9e9284896271a0800f5faaa1c997ee6c2302200933e86edabe2175ad7a32f7c7b863ebe9c85a9baad65df173e7ad9579e66f1401210394420e279243361b8dd777848048054b0562d2046a818e94787f0c44e0cf77c7ffffffff0268811600000000001976a914ef059a567c20fad58e2bd1322ee4ee7ead9df20f88ac0000000000000000536a4c50000077dc0001057ffcdc7709b0f59811b7277af8e8e963c7cfd5b95b23cc0f42c2fc38c5e7f9b63708a5d9a01eb5a7faf062f1305baa15eb061314d0b4f7c043bc9a9526289ac0f6612cd74e33776ee400000000", "vin": [{"sequence": 4294967295, "scriptSig": {"hex": "483045022100ac7319aa4c6ad9c7c352f2ba7efb8e9e9284896271a0800f5faaa1c997ee6c2302200933e86edabe2175ad7a32f7c7b863ebe9c85a9baad65df173e7ad9579e66f1401210394420e279243361b8dd777848048054b0562d2046a818e94787f0c44e0cf77c7", "asm": "3045022100ac7319aa4c6ad9c7c352f2ba7efb8e9e9284896271a0800f5faaa1c997ee6c2302200933e86edabe2175ad7a32f7c7b863ebe9c85a9baad65df173e7ad9579e66f14[ALL] 0394420e279243361b8dd777848048054b0562d2046a818e94787f0c44e0cf77c7"}, "vout": 0, "txid": "17acc75fdce10976925b73c70411b1bafe8197dcc78e45ea8c5a391d3fa5af60"}], "txid": "99c2ebec80c5417fd2b756de128e6f458e7497c88c671523b985bf18ea041fd0", "blocktime": 1537873891, "version": 1, "confirmations": 11478, "time": 1537873891, "locktime": 0, "vsize": 284, "size": 284}