{"hash": "99d29ec67b3d6e4000a13f500c38a9ef2f93929cecb30be8709944876c3f2c99", "blockhash": "0000000000000000000baef3f32e3676a92c3b2e5da21b426e4f302fc371ce76", "vout": [{"scriptPubKey": {"reqSigs": 1, "hex": "76a914fc309424c4318e2e56b6570366e2313794ccb87c88ac", "addresses": ["1PzTUeZLP4C4VoxE4uKHPBC9TvyxKRpL59"], "asm": "OP_DUP OP_HASH160 fc309424c4318e2e56b6570366e2313794ccb87c OP_EQUALVERIFY OP_CHECKSIG", "type": "pubkeyhash"}, "value": 0.02412595, "n": 0}, {"scriptPubKey": {"reqSigs": 1, "hex": "a9148b72b2c3cbf554c46041abefd2af49e9ffe7afe587", "addresses": ["3EQMFavqkV7weJ4oY6WwC5jJfRS23HNnhH"], "asm": "OP_HASH160 8b72b2c3cbf554c46041abefd2af49e9ffe7afe5 OP_EQUAL", "type": "scripthash"}, "value": 0.31321054, "n": 1}], "hex": "0100000002881ea8b5f3b6b2e243755f73f0b2e5d30ea891b59e934f5e1059269ac6df0bf5000000006a47304402207593ec0db5adcc244e5f5b72f092fde5328c14f5865e0f883386264322c6a16602207688333ba8af2d1d09c3f55373eecc9ebf0a3590944132ecef43e17ea9a22d5b012103959c9e3ed2e7e10171bd96b16d55860a079572c2089f5bfc2fa69f42fdbeeb85fdffffffd701dff41f067ab89336c1e36c58cf68773901992882e9bc9878cdaf2334a3fc010000006a47304402205754bc9344072b8a1c4b7ccb7bc0e3bf03069c3e258542fe20cb38d8d60d6d410220693f4a3ae26868aef27b45fb4b00f0b8be915693cc9976707a7e5b7b24547653012102fdf9958c385d0443b681e6aa6f07e8be2aaf0d4cff6c27da99eeb4615e395882fdffffff0233d02400000000001976a914fc309424c4318e2e56b6570366e2313794ccb87c88acdeebdd010000000017a9148b72b2c3cbf554c46041abefd2af49e9ffe7afe58700000000", "vin": [{"sequence": 4294967293, "scriptSig": {"hex": "47304402207593ec0db5adcc244e5f5b72f092fde5328c14f5865e0f883386264322c6a16602207688333ba8af2d1d09c3f55373eecc9ebf0a3590944132ecef43e17ea9a22d5b012103959c9e3ed2e7e10171bd96b16d55860a079572c2089f5bfc2fa69f42fdbeeb85", "asm": "304402207593ec0db5adcc244e5f5b72f092fde5328c14f5865e0f883386264322c6a16602207688333ba8af2d1d09c3f55373eecc9ebf0a3590944132ecef43e17ea9a22d5b[ALL] 03959c9e3ed2e7e10171bd96b16d55860a079572c2089f5bfc2fa69f42fdbeeb85"}, "vout": 0, "txid": "f50bdfc69a2659105e4f939eb591a80ed3e5b2f0735f7543e2b2b6f3b5a81e88"}, {"sequence": 4294967293, "scriptSig": {"hex": "47304402205754bc9344072b8a1c4b7ccb7bc0e3bf03069c3e258542fe20cb38d8d60d6d410220693f4a3ae26868aef27b45fb4b00f0b8be915693cc9976707a7e5b7b24547653012102fdf9958c385d0443b681e6aa6f07e8be2aaf0d4cff6c27da99eeb4615e395882", "asm": "304402205754bc9344072b8a1c4b7ccb7bc0e3bf03069c3e258542fe20cb38d8d60d6d410220693f4a3ae26868aef27b45fb4b00f0b8be915693cc9976707a7e5b7b24547653[ALL] 02fdf9958c385d0443b681e6aa6f07e8be2aaf0d4cff6c27da99eeb4615e395882"}, "vout": 1, "txid": "fca33423afcd7898bce982289901397768cf586ce3c13693b87a061ff4df01d7"}], "txid": "99d29ec67b3d6e4000a13f500c38a9ef2f93929cecb30be8709944876c3f2c99", "blocktime": 1537876114, "version": 1, "confirmations": 11460, "time": 1537876114, "locktime": 0, "vsize": 370, "size": 370}