{"hash": "99d3eb6508b3165b8fab4f618e2c6d44bf6931e1d06398351f7120793f5073c7", "blockhash": "00000000000000000018f53835495a110e01622372bf6ae95dc86f2b0ab887b0", "vout": [{"scriptPubKey": {"reqSigs": 1, "hex": "76a914afbdd7c20a165321d00caa638615c1f9a178a16088ac", "addresses": ["1H2Eg5cscCWS3CVCfKHcZu2kurvNt4WmJo"], "asm": "OP_DUP OP_HASH160 afbdd7c20a165321d00caa638615c1f9a178a160 OP_EQUALVERIFY OP_CHECKSIG", "type": "pubkeyhash"}, "value": 0.013077, "n": 0}, {"scriptPubKey": {"reqSigs": 1, "hex": "76a914c355c84a4a146590fa9c37505275e7ff8e2f357d88ac", "addresses": ["1JoqXfwhXYjUhRTx24jz1j3BtsaWizEoLx"], "asm": "OP_DUP OP_HASH160 c355c84a4a146590fa9c37505275e7ff8e2f357d OP_EQUALVERIFY OP_CHECKSIG", "type": "pubkeyhash"}, "value": 0.46608, "n": 1}], "hex": "01000000032941d071b55c7c44b6e0a9060e8d59b75cef5c0445b407a169c3d1794bd32c1e250000006a47304402204140b1ed167af1d9bfb452021398c5c44875849e9c46fdd90a3d2779827e58db02202719519b96ea990b1bf91b93ebcce2126a3054e1450895c9f3c11391b147f5b701210229e77f208e0f6d539aa070f4d49a362bb5e42552a8d42346cc4269a3bf83c138feffffff69c332baae8f539ba29947e86f4207eac81879027f457e45f268438d8a130cf00c0000006a47304402202e492f076075e6303ece41358b859f0ac02075d8582630d3886becaa66d92eb60220062006029f7af8a1d07dc084b997456591dc8743e444929d89f5b6f4434c74ce012103f95fed03848abbb9fcff231a063965b85a2e6c9808582d6839084f93ce7689dffeffffffbcdbf041e3c16b621c368495526818019f860d972bfd76bd395c5297a094c211010000006b483045022100f9dd3cdacfd851bf5a9dd3c4bfdd5385dd9edb76d2276afa7735519adc9dd5d802202175fc2f55f541c82e2607a55a90d8e178faed9fe55f79a87bf7947c461f3c070121025dc1213d9a156dfe942afefc88e15c9824a536cd8dee15588bc9bb405e43a4dcfeffffff0234f41300000000001976a914afbdd7c20a165321d00caa638615c1f9a178a16088ac802ec702000000001976a914c355c84a4a146590fa9c37505275e7ff8e2f357d88ac0e490800", "vin": [{"sequence": 4294967294, "scriptSig": {"hex": "47304402204140b1ed167af1d9bfb452021398c5c44875849e9c46fdd90a3d2779827e58db02202719519b96ea990b1bf91b93ebcce2126a3054e1450895c9f3c11391b147f5b701210229e77f208e0f6d539aa070f4d49a362bb5e42552a8d42346cc4269a3bf83c138", "asm": "304402204140b1ed167af1d9bfb452021398c5c44875849e9c46fdd90a3d2779827e58db02202719519b96ea990b1bf91b93ebcce2126a3054e1450895c9f3c11391b147f5b7[ALL] 0229e77f208e0f6d539aa070f4d49a362bb5e42552a8d42346cc4269a3bf83c138"}, "vout": 37, "txid": "1e2cd34b79d1c369a107b445045cef5cb7598d0e06a9e0b6447c5cb571d04129"}, {"sequence": 4294967294, "scriptSig": {"hex": "47304402202e492f076075e6303ece41358b859f0ac02075d8582630d3886becaa66d92eb60220062006029f7af8a1d07dc084b997456591dc8743e444929d89f5b6f4434c74ce012103f95fed03848abbb9fcff231a063965b85a2e6c9808582d6839084f93ce7689df", "asm": "304402202e492f076075e6303ece41358b859f0ac02075d8582630d3886becaa66d92eb60220062006029f7af8a1d07dc084b997456591dc8743e444929d89f5b6f4434c74ce[ALL] 03f95fed03848abbb9fcff231a063965b85a2e6c9808582d6839084f93ce7689df"}, "vout": 12, "txid": "f00c138a8d4368f2457e457f027918c8ea07426fe84799a29b538faeba32c369"}, {"sequence": 4294967294, "scriptSig": {"hex": "483045022100f9dd3cdacfd851bf5a9dd3c4bfdd5385dd9edb76d2276afa7735519adc9dd5d802202175fc2f55f541c82e2607a55a90d8e178faed9fe55f79a87bf7947c461f3c070121025dc1213d9a156dfe942afefc88e15c9824a536cd8dee15588bc9bb405e43a4dc", "asm": "3045022100f9dd3cdacfd851bf5a9dd3c4bfdd5385dd9edb76d2276afa7735519adc9dd5d802202175fc2f55f541c82e2607a55a90d8e178faed9fe55f79a87bf7947c461f3c07[ALL] 025dc1213d9a156dfe942afefc88e15c9824a536cd8dee15588bc9bb405e43a4dc"}, "vout": 1, "txid": "11c294a097525c39bd76fd2b970d869f011868529584361c626bc1e341f0dbbc"}], "txid": "99d3eb6508b3165b8fab4f618e2c6d44bf6931e1d06398351f7120793f5073c7", "blocktime": 1537870928, "version": 1, "confirmations": 11512, "time": 1537870928, "locktime": 542990, "vsize": 520, "size": 520}