{"hash": "99d4e53303d4cb3676775d51d7b70f95f185ca5fa637f29bc1c2af682cbefe34", "blockhash": "0000000000000000000dcc0f55137456b1a82d3642486a52398922ac4d620174", "vout": [{"scriptPubKey": {"reqSigs": 1, "hex": "76a9142d31b14c4f3c7ce4c09433be12d3ba64e3300c8388ac", "addresses": ["157xwLJE7Racvze8WJmm2Av94DM2ax85rN"], "asm": "OP_DUP OP_HASH160 2d31b14c4f3c7ce4c09433be12d3ba64e3300c83 OP_EQUALVERIFY OP_CHECKSIG", "type": "pubkeyhash"}, "value": 4.9, "n": 0}, {"scriptPubKey": {"reqSigs": 1, "hex": "76a914842cf6d66285c5c854d731d6e97e257d16c8867888ac", "addresses": ["1D3t4VQ3mcnqNZez9e5QguevNbxAs6dPue"], "asm": "OP_DUP OP_HASH160 842cf6d66285c5c854d731d6e97e257d16c88678 OP_EQUALVERIFY OP_CHECKSIG", "type": "pubkeyhash"}, "value": 4.9111, "n": 1}], "hex": "01000000026f243dcc3e37816e162be0ba66ebbfe6cd5e0de26cdfd3a8098c662b725cdaec010000006a473044022073a68f50286ddb6742ba16deb73944701bca7b4d59c88f30138af4880a055d43022040c3e14218ae22608084c2fa00c3a18d2453a085fd8359545e60b44dab1f82470121028607b5db3f3a6f73e6fc40e25c0756199bf3f56bf01b1f91b53ef1f4ae5b9696ffffffffeabc5a58ff63243c821d48e0253e5db9b72e0e64fe1daab20ffce306073b1159000000006b483045022100c5308b1bf25e05bf64af45761fdc05b7f3a2c246bdb18a1f736541f79039780202205f4737e6c6cecbe91aee39a46d9e29905044d5ce4cf0ce7b18f8210b9aea19da012103399a737f65d8848200c3c918d8c07d028181cd980664b2e271a11fdd4a190b92ffffffff0280ce341d000000001976a9142d31b14c4f3c7ce4c09433be12d3ba64e3300c8388ac70be451d000000001976a914842cf6d66285c5c854d731d6e97e257d16c8867888ac00000000", "vin": [{"sequence": 4294967295, "scriptSig": {"hex": "473044022073a68f50286ddb6742ba16deb73944701bca7b4d59c88f30138af4880a055d43022040c3e14218ae22608084c2fa00c3a18d2453a085fd8359545e60b44dab1f82470121028607b5db3f3a6f73e6fc40e25c0756199bf3f56bf01b1f91b53ef1f4ae5b9696", "asm": "3044022073a68f50286ddb6742ba16deb73944701bca7b4d59c88f30138af4880a055d43022040c3e14218ae22608084c2fa00c3a18d2453a085fd8359545e60b44dab1f8247[ALL] 028607b5db3f3a6f73e6fc40e25c0756199bf3f56bf01b1f91b53ef1f4ae5b9696"}, "vout": 1, "txid": "ecda5c722b668c09a8d3df6ce20d5ecde6bfeb66bae02b166e81373ecc3d246f"}, {"sequence": 4294967295, "scriptSig": {"hex": "483045022100c5308b1bf25e05bf64af45761fdc05b7f3a2c246bdb18a1f736541f79039780202205f4737e6c6cecbe91aee39a46d9e29905044d5ce4cf0ce7b18f8210b9aea19da012103399a737f65d8848200c3c918d8c07d028181cd980664b2e271a11fdd4a190b92", "asm": "3045022100c5308b1bf25e05bf64af45761fdc05b7f3a2c246bdb18a1f736541f79039780202205f4737e6c6cecbe91aee39a46d9e29905044d5ce4cf0ce7b18f8210b9aea19da[ALL] 03399a737f65d8848200c3c918d8c07d028181cd980664b2e271a11fdd4a190b92"}, "vout": 0, "txid": "59113b0706e3fc0fb2aa1dfe640e2eb7b95d3e25e0481d823c2463ff585abcea"}], "txid": "99d4e53303d4cb3676775d51d7b70f95f185ca5fa637f29bc1c2af682cbefe34", "blocktime": 1537870268, "version": 1, "confirmations": 11516, "time": 1537870268, "locktime": 0, "vsize": 373, "size": 373}