{"hash": "99d59502c83370e2d4c1bcf0be766a4d287e089fc8db1daf863f454df60735e4", "blockhash": "0000000000000000000dcc0f55137456b1a82d3642486a52398922ac4d620174", "vout": [{"scriptPubKey": {"reqSigs": 1, "hex": "76a9149a342d3397194c6e6ba9b6241ce93f83577efbf688ac", "addresses": ["1F4MZqLcZ8CWDFJnBeG2uRzQxLqA6ooKve"], "asm": "OP_DUP OP_HASH160 9a342d3397194c6e6ba9b6241ce93f83577efbf6 OP_EQUALVERIFY OP_CHECKSIG", "type": "pubkeyhash"}, "value": 1.44558986, "n": 0}, {"scriptPubKey": {"reqSigs": 1, "hex": "76a9140df39b9aaaca2b5b5933c750bdc7258b100dc1f188ac", "addresses": ["12GmcfRZpd14z1zMBYvBbAe2JTtwqGCTSQ"], "asm": "OP_DUP OP_HASH160 0df39b9aaaca2b5b5933c750bdc7258b100dc1f1 OP_EQUALVERIFY OP_CHECKSIG", "type": "pubkeyhash"}, "value": 2.33, "n": 1}], "hex": "0100000002b9806bc4128c012878716c9c4250a517fd7047aac465ae8be9aa2fbe0ddffa4f010000006b483045022100dd50117c2b9452aae48dce37da2e16d51a7e55c3f9c7902bace30a1c97b159fc022062de2c38faac4ccbca32a4d8c27065d0b3163b56f33923c7440ec7efc28d79a3012102f42456e83b6015cb5468f646382971330b4890d0ee673c9a436380c164d8106bffffffffefea28f02f5379203596e0286bbba488e3b2cf4c936267f4670eb8de03c105ca010000006a47304402206261e83eb1667a5b84dfb2c7f807f089f28f7fb6ecbdd98d44044bdabeefcbbf022073ecb793fc10ba50c1a0bc1151bf85f52863150a12539d713eb6797650a196c5012102f42456e83b6015cb5468f646382971330b4890d0ee673c9a436380c164d8106bffffffff028acb9d08000000001976a9149a342d3397194c6e6ba9b6241ce93f83577efbf688ac404ce30d000000001976a9140df39b9aaaca2b5b5933c750bdc7258b100dc1f188ac00000000", "vin": [{"sequence": 4294967295, "scriptSig": {"hex": "483045022100dd50117c2b9452aae48dce37da2e16d51a7e55c3f9c7902bace30a1c97b159fc022062de2c38faac4ccbca32a4d8c27065d0b3163b56f33923c7440ec7efc28d79a3012102f42456e83b6015cb5468f646382971330b4890d0ee673c9a436380c164d8106b", "asm": "3045022100dd50117c2b9452aae48dce37da2e16d51a7e55c3f9c7902bace30a1c97b159fc022062de2c38faac4ccbca32a4d8c27065d0b3163b56f33923c7440ec7efc28d79a3[ALL] 02f42456e83b6015cb5468f646382971330b4890d0ee673c9a436380c164d8106b"}, "vout": 1, "txid": "4ffadf0dbe2faae98bae65c4aa4770fd17a550429c6c717828018c12c46b80b9"}, {"sequence": 4294967295, "scriptSig": {"hex": "47304402206261e83eb1667a5b84dfb2c7f807f089f28f7fb6ecbdd98d44044bdabeefcbbf022073ecb793fc10ba50c1a0bc1151bf85f52863150a12539d713eb6797650a196c5012102f42456e83b6015cb5468f646382971330b4890d0ee673c9a436380c164d8106b", "asm": "304402206261e83eb1667a5b84dfb2c7f807f089f28f7fb6ecbdd98d44044bdabeefcbbf022073ecb793fc10ba50c1a0bc1151bf85f52863150a12539d713eb6797650a196c5[ALL] 02f42456e83b6015cb5468f646382971330b4890d0ee673c9a436380c164d8106b"}, "vout": 1, "txid": "ca05c103deb80e67f46762934ccfb2e388a4bb6b28e096352079532ff028eaef"}], "txid": "99d59502c83370e2d4c1bcf0be766a4d287e089fc8db1daf863f454df60735e4", "blocktime": 1537870268, "version": 1, "confirmations": 11518, "time": 1537870268, "locktime": 0, "vsize": 373, "size": 373}