{"hash": "99d8992741b045b10a7c91e7fd00a6d1be7c47413d0115315749863b16d54fff", "blockhash": "000000000000000000022b45ed06c6f4ccd3cf7fb5ba4856ebd2e58215665228", "vout": [{"scriptPubKey": {"reqSigs": 1, "hex": "76a9149893057b95e9f7e47c91874c54e0ab7633ec735688ac", "addresses": ["1EujqPMMxYHJcTV3aFsiNfxkdJefhiqQ5t"], "asm": "OP_DUP OP_HASH160 9893057b95e9f7e47c91874c54e0ab7633ec7356 OP_EQUALVERIFY OP_CHECKSIG", "type": "pubkeyhash"}, "value": 1.339e-05, "n": 0}, {"scriptPubKey": {"reqSigs": 1, "hex": "76a914f39096e0d31c338ef6c77001a430b448c2d2473088ac", "addresses": ["1PCrQrtjf2EKCcF2YeWZx2N5SvsUt5ZFSz"], "asm": "OP_DUP OP_HASH160 f39096e0d31c338ef6c77001a430b448c2d24730 OP_EQUALVERIFY OP_CHECKSIG", "type": "pubkeyhash"}, "value": 0.00810749, "n": 1}], "hex": "01000000035afa6b123820bc93e7fe7b683ca48388d2d3da94d2d2ea2fc8e1f2a08379361c000000006a47304402200188cfec6e78c179b5182b939bdef9c95857404edd67c686153f716aae00a4b002204bacddee8ae7af515f4388440b81d229863936ed008e22d76d642d64fd1614d5012102eb13c4123162c8cbbb69dff4c544ee9e5f31e559288c13e0bda64c27d1aa38e6ffffffff623c3072fbfc211ae5cb7e16c6875184b80d30357fdb9ee57732a76c41337adf000000006b483045022100f92e230266b2ed8a0e5ba7e21d640f51de599d353c835cf3dacf77f70c16571e02206376257aeed9929ae22ec2469b3be6428ff6e80bb1a5680dc79948ede47465c301210226bcf0080230b00af9f88588c579af3d695429ff6afe1ff03f4bdb0de000ca33ffffffffd31da713f4b4e5976c9d08cbb720143d014b07b064d93128c9c41b976303b8ed000000006a47304402204d3582c72afa0afbed8dbfd44c62fda24d6d60157cefb384aa23aa9648f24bea022045bf07e5e51723b5f63914d35f2b703b693083de10b482392cd82f2cebbcb5040121021cdb522447c9798ab1b21e587b1183832a42d4d9310d1a399cd92d391da144a1ffffffff023b050000000000001976a9149893057b95e9f7e47c91874c54e0ab7633ec735688acfd5e0c00000000001976a914f39096e0d31c338ef6c77001a430b448c2d2473088ac00000000", "vin": [{"sequence": 4294967295, "scriptSig": {"hex": "47304402200188cfec6e78c179b5182b939bdef9c95857404edd67c686153f716aae00a4b002204bacddee8ae7af515f4388440b81d229863936ed008e22d76d642d64fd1614d5012102eb13c4123162c8cbbb69dff4c544ee9e5f31e559288c13e0bda64c27d1aa38e6", "asm": "304402200188cfec6e78c179b5182b939bdef9c95857404edd67c686153f716aae00a4b002204bacddee8ae7af515f4388440b81d229863936ed008e22d76d642d64fd1614d5[ALL] 02eb13c4123162c8cbbb69dff4c544ee9e5f31e559288c13e0bda64c27d1aa38e6"}, "vout": 0, "txid": "1c367983a0f2e1c82fead2d294dad3d28883a43c687bfee793bc2038126bfa5a"}, {"sequence": 4294967295, "scriptSig": {"hex": "483045022100f92e230266b2ed8a0e5ba7e21d640f51de599d353c835cf3dacf77f70c16571e02206376257aeed9929ae22ec2469b3be6428ff6e80bb1a5680dc79948ede47465c301210226bcf0080230b00af9f88588c579af3d695429ff6afe1ff03f4bdb0de000ca33", "asm": "3045022100f92e230266b2ed8a0e5ba7e21d640f51de599d353c835cf3dacf77f70c16571e02206376257aeed9929ae22ec2469b3be6428ff6e80bb1a5680dc79948ede47465c3[ALL] 0226bcf0080230b00af9f88588c579af3d695429ff6afe1ff03f4bdb0de000ca33"}, "vout": 0, "txid": "df7a33416ca73277e59edb7f35300db8845187c6167ecbe51a21fcfb72303c62"}, {"sequence": 4294967295, "scriptSig": {"hex": "47304402204d3582c72afa0afbed8dbfd44c62fda24d6d60157cefb384aa23aa9648f24bea022045bf07e5e51723b5f63914d35f2b703b693083de10b482392cd82f2cebbcb5040121021cdb522447c9798ab1b21e587b1183832a42d4d9310d1a399cd92d391da144a1", "asm": "304402204d3582c72afa0afbed8dbfd44c62fda24d6d60157cefb384aa23aa9648f24bea022045bf07e5e51723b5f63914d35f2b703b693083de10b482392cd82f2cebbcb504[ALL] 021cdb522447c9798ab1b21e587b1183832a42d4d9310d1a399cd92d391da144a1"}, "vout": 0, "txid": "edb80363971bc4c92831d964b0074b013d1420b7cb089d6c97e5b4f413a71dd3"}], "txid": "99d8992741b045b10a7c91e7fd00a6d1be7c47413d0115315749863b16d54fff", "blocktime": 1537869901, "version": 1, "confirmations": 11524, "time": 1537869901, "locktime": 0, "vsize": 520, "size": 520}