{"hash": "303c016668dc6bb06b9004a7b113962d0d97d5545e3de91e4ffce3ba2706a01e", "blockhash": "0000000000000000000e13cef7c366c0283d82e591d1acd082e914b08063cdf1", "vout": [{"scriptPubKey": {"reqSigs": 1, "hex": "76a914842ecd37c5bc559f06a23433675776ad3994245288ac", "addresses": ["1D3vGA3u6cq6FiuamwTg2PvMBtvzwnzm9V"], "asm": "OP_DUP OP_HASH160 842ecd37c5bc559f06a23433675776ad39942452 OP_EQUALVERIFY OP_CHECKSIG", "type": "pubkeyhash"}, "value": 0.01163435, "n": 0}, {"scriptPubKey": {"reqSigs": 1, "hex": "0014087924f1a4085caa9052f642694edc6e85978bc6", "addresses": ["bc1qppujfudyppw24yzj7epxjnkud6ze0z7xrzvyg3"], "asm": "0 087924f1a4085caa9052f642694edc6e85978bc6", "type": "witness_v0_keyhash"}, "value": 1.30384668, "n": 1}], "hex": "010000000001015aa5528bb2412b00f62ea8bd1d1d69e38a037835f558d855c3026a00802cb2c70100000000ffffffff02abc01100000000001976a914842ecd37c5bc559f06a23433675776ad3994245288ac1c83c50700000000160014087924f1a4085caa9052f642694edc6e85978bc60248304502210090406981e6abdb7c8b6c4e047b748e3f44d434bd81ad731819ea62e2fdf1ffc902207bbeab5b75fb930e6d6c9b9b41c3149d57ec61561305150237d606851fcb2c54012103c68f3572e62ae0ede5bc225a81f5b3a41ac05f3dd9583371c8ff012744e031fd00000000", "vin": [{"txinwitness": ["304502210090406981e6abdb7c8b6c4e047b748e3f44d434bd81ad731819ea62e2fdf1ffc902207bbeab5b75fb930e6d6c9b9b41c3149d57ec61561305150237d606851fcb2c5401", "03c68f3572e62ae0ede5bc225a81f5b3a41ac05f3dd9583371c8ff012744e031fd"], "sequence": 4294967295, "scriptSig": {"hex": "", "asm": ""}, "vout": 1, "txid": "c7b22c80006a02c355d858f53578038ae3691d1dbda82ef6002b41b28b52a55a"}], "txid": "99d9e282009e98d750ef370c6d08eedd4524684cf7101cb1fa36fe8d133f93aa", "blocktime": 1537871767, "version": 1, "confirmations": 11495, "time": 1537871767, "locktime": 0, "vsize": 144, "size": 226}