{"hash": "99dd426aed8ab1fcb176d99a309a9630816890fd91e8afd863e2ded39207cb0a", "blockhash": "0000000000000000001cda96e906b7601b7a6fb1a3b62bca570a9e5d8f4b3de1", "vout": [{"scriptPubKey": {"reqSigs": 1, "hex": "76a914c87aec964e4b112b696c9151d9250c432a731d1e88ac", "addresses": ["1KH3QHecUCU8pS2p84N4qYULdCBNTiSA2h"], "asm": "OP_DUP OP_HASH160 c87aec964e4b112b696c9151d9250c432a731d1e OP_EQUALVERIFY OP_CHECKSIG", "type": "pubkeyhash"}, "value": 0.10802872, "n": 0}, {"scriptPubKey": {"reqSigs": 1, "hex": "76a914d48f82fa861900036b9a7d3fcac006938c9aecbe88ac", "addresses": ["1LNvB2pCVCUG928YUyTVEjjdExCkHYw5Gw"], "asm": "OP_DUP OP_HASH160 d48f82fa861900036b9a7d3fcac006938c9aecbe OP_EQUALVERIFY OP_CHECKSIG", "type": "pubkeyhash"}, "value": 0.183951, "n": 1}], "hex": "01000000023cf886e005eac620776f89211bc1dd0987f0b902bf5d84bf030ffea9542b5e3f000000006a47304402202fe5792d45299ea8885993c5579442883f364d14d8534e857e1a9f2945b83b2002207d19aae5173638728f3bd64c9508fd299202a9b82891b449d7d92d9ef16a1985012102ea05925b8b775dca853d05285736498c71cbaa1726f90c824bf63f34d4f4ad96ffffffffacadf18592ff394d85304ef4e462c807dffbd3997935db95213afa37a8a2dc5f010000006b483045022100bfeb4a4ad816d7fbc3edd850663793fab44645c41623adfd79a57025b8c97777022068c31ff4f531838d83ad63e9f4cf9d26916cdd06561a594286b8db8ebe7c459b01210343fa64cde6a41eecd28b1e4930a6e2de801d90350baa73377494dcfd5e68528bffffffff02b8d6a400000000001976a914c87aec964e4b112b696c9151d9250c432a731d1e88acdcaf1801000000001976a914d48f82fa861900036b9a7d3fcac006938c9aecbe88ac00000000", "vin": [{"sequence": 4294967295, "scriptSig": {"hex": "47304402202fe5792d45299ea8885993c5579442883f364d14d8534e857e1a9f2945b83b2002207d19aae5173638728f3bd64c9508fd299202a9b82891b449d7d92d9ef16a1985012102ea05925b8b775dca853d05285736498c71cbaa1726f90c824bf63f34d4f4ad96", "asm": "304402202fe5792d45299ea8885993c5579442883f364d14d8534e857e1a9f2945b83b2002207d19aae5173638728f3bd64c9508fd299202a9b82891b449d7d92d9ef16a1985[ALL] 02ea05925b8b775dca853d05285736498c71cbaa1726f90c824bf63f34d4f4ad96"}, "vout": 0, "txid": "3f5e2b54a9fe0f03bf845dbf02b9f08709ddc11b21896f7720c6ea05e086f83c"}, {"sequence": 4294967295, "scriptSig": {"hex": "483045022100bfeb4a4ad816d7fbc3edd850663793fab44645c41623adfd79a57025b8c97777022068c31ff4f531838d83ad63e9f4cf9d26916cdd06561a594286b8db8ebe7c459b01210343fa64cde6a41eecd28b1e4930a6e2de801d90350baa73377494dcfd5e68528b", "asm": "3045022100bfeb4a4ad816d7fbc3edd850663793fab44645c41623adfd79a57025b8c97777022068c31ff4f531838d83ad63e9f4cf9d26916cdd06561a594286b8db8ebe7c459b[ALL] 0343fa64cde6a41eecd28b1e4930a6e2de801d90350baa73377494dcfd5e68528b"}, "vout": 1, "txid": "5fdca2a837fa3a2195db357999d3fbdf07c862e4f44e30854d39ff9285f1adac"}], "txid": "99dd426aed8ab1fcb176d99a309a9630816890fd91e8afd863e2ded39207cb0a", "blocktime": 1537873282, "version": 1, "confirmations": 11484, "time": 1537873282, "locktime": 0, "vsize": 373, "size": 373}