{"hash": "0adb7e7c657aa285532f65be8d08720e2985c0f6185ebbd9ae4325c8641b77d7", "blockhash": "0000000000000000001cda96e906b7601b7a6fb1a3b62bca570a9e5d8f4b3de1", "vout": [{"scriptPubKey": {"reqSigs": 1, "hex": "76a914f24885752ff9625e3116ae4c4def35f0d111d4dd88ac", "addresses": ["1P65QHyCuVgFw42f9r2T86m4RJD65VMmcL"], "asm": "OP_DUP OP_HASH160 f24885752ff9625e3116ae4c4def35f0d111d4dd OP_EQUALVERIFY OP_CHECKSIG", "type": "pubkeyhash"}, "value": 0.06231971, "n": 0}, {"scriptPubKey": {"reqSigs": 1, "hex": "0014630099cc1957d42eb4edfa454b941234b1aa1674", "addresses": ["bc1qvvqfnnqe2l2zad8dlfz5h9qjxjc659n5n44p3t"], "asm": "0 630099cc1957d42eb4edfa454b941234b1aa1674", "type": "witness_v0_keyhash"}, "value": 0.00602562, "n": 1}], "hex": "01000000000101f6e1288ebd2bb60c49bb64f17d09ac80c41036ac93fd7674b976f4917ca02b840100000017160014e184b7360389c6be7e820b0ed6f43f41d1ec80e4ffffffff02a3175f00000000001976a914f24885752ff9625e3116ae4c4def35f0d111d4dd88acc231090000000000160014630099cc1957d42eb4edfa454b941234b1aa167402483045022100c0a9559397932e0f25edd546f5516781821e6ae710792f192419265eaded46070220739b6c21473abbd465196db0ab4c1075cbe807b7aa453d8650df350b6b4d0f05012103c2a05a2825a00a6ddc06455b8f659262226ab96830e72347015facc9d54b52b500000000", "vin": [{"txinwitness": ["3045022100c0a9559397932e0f25edd546f5516781821e6ae710792f192419265eaded46070220739b6c21473abbd465196db0ab4c1075cbe807b7aa453d8650df350b6b4d0f0501", "03c2a05a2825a00a6ddc06455b8f659262226ab96830e72347015facc9d54b52b5"], "sequence": 4294967295, "scriptSig": {"hex": "160014e184b7360389c6be7e820b0ed6f43f41d1ec80e4", "asm": "0014e184b7360389c6be7e820b0ed6f43f41d1ec80e4"}, "vout": 1, "txid": "842ba07c91f476b97476fd93ac3610c480ac097df164bb490cb62bbd8e28e1f6"}], "txid": "99dff5fb8fc885c0593a049bc6b902105498651b83a78615899a3ae1da01d4f2", "blocktime": 1537873282, "version": 1, "confirmations": 11484, "time": 1537873282, "locktime": 0, "vsize": 167, "size": 249}