{"hash": "99e1c716731613489a49336f0a35066383335d37b8be513fd6f3c61ab1a3d5c1", "blockhash": "0000000000000000000baef3f32e3676a92c3b2e5da21b426e4f302fc371ce76", "vout": [{"scriptPubKey": {"reqSigs": 1, "hex": "76a914a5406a4a1f25b1ff0eee6dced409d5ac5c8c6d2c88ac", "addresses": ["1G4mfJHuF4bbdYNodvrFG7YpSsSCQo2i4F"], "asm": "OP_DUP OP_HASH160 a5406a4a1f25b1ff0eee6dced409d5ac5c8c6d2c OP_EQUALVERIFY OP_CHECKSIG", "type": "pubkeyhash"}, "value": 0.00010045, "n": 0}], "hex": "01000000019f88916e891c32dcb9d290b981fe49d17143853b41466ff27a94feca7bbda88300000000da00483045022100e32b52cefd537aa84c68f1205a9afcc15356cea43a0514f947f3f4d0a8b400df0220360aff008d7365725e74225861a7dc3b228e70f9439fe675057603a20646f5a901473044022035a18140922ccb4708cf5287d8b864ddfe5e765401efc4e346164eb54127199c02207f877b706660b94464bbc0266b0babe259b371e66fba826c27f3936b04ee038101475221035b25db0e1fc2a502b58d34c98ddf668c399ceb1dd80fbed80bfed0613d1aa4f52103afb89b482ad078b2e10a9f0036b5016a9798d8e1648074c6c3a3673134e0579152aeffffffff013d270000000000001976a914a5406a4a1f25b1ff0eee6dced409d5ac5c8c6d2c88ac00000000", "vin": [{"sequence": 4294967295, "scriptSig": {"hex": "00483045022100e32b52cefd537aa84c68f1205a9afcc15356cea43a0514f947f3f4d0a8b400df0220360aff008d7365725e74225861a7dc3b228e70f9439fe675057603a20646f5a901473044022035a18140922ccb4708cf5287d8b864ddfe5e765401efc4e346164eb54127199c02207f877b706660b94464bbc0266b0babe259b371e66fba826c27f3936b04ee038101475221035b25db0e1fc2a502b58d34c98ddf668c399ceb1dd80fbed80bfed0613d1aa4f52103afb89b482ad078b2e10a9f0036b5016a9798d8e1648074c6c3a3673134e0579152ae", "asm": "0 3045022100e32b52cefd537aa84c68f1205a9afcc15356cea43a0514f947f3f4d0a8b400df0220360aff008d7365725e74225861a7dc3b228e70f9439fe675057603a20646f5a9[ALL] 3044022035a18140922ccb4708cf5287d8b864ddfe5e765401efc4e346164eb54127199c02207f877b706660b94464bbc0266b0babe259b371e66fba826c27f3936b04ee0381[ALL] 5221035b25db0e1fc2a502b58d34c98ddf668c399ceb1dd80fbed80bfed0613d1aa4f52103afb89b482ad078b2e10a9f0036b5016a9798d8e1648074c6c3a3673134e0579152ae"}, "vout": 0, "txid": "83a8bd7bcafe947af26f46413b854371d149fe81b990d2b9dc321c896e91889f"}], "txid": "99e1c716731613489a49336f0a35066383335d37b8be513fd6f3c61ab1a3d5c1", "blocktime": 1537876114, "version": 1, "confirmations": 11460, "time": 1537876114, "locktime": 0, "vsize": 303, "size": 303}