{"hash": "473cd914101810d1f3b70b4533fff5248ceb716adb63b4f1e971e41c865629cc", "blockhash": "0000000000000000000baef3f32e3676a92c3b2e5da21b426e4f302fc371ce76", "vout": [{"scriptPubKey": {"reqSigs": 1, "hex": "76a914f3a0f6fa353c75b9352493848dda49084ed24a8188ac", "addresses": ["1PDC2eEuSoKJjEoeaTvuh1tDiAFFrwqTde"], "asm": "OP_DUP OP_HASH160 f3a0f6fa353c75b9352493848dda49084ed24a81 OP_EQUALVERIFY OP_CHECKSIG", "type": "pubkeyhash"}, "value": 0.01059784, "n": 0}, {"scriptPubKey": {"reqSigs": 1, "hex": "a914f42d916e98a6011873e496dfa96c1f3f530518ed87", "addresses": ["3Px7PUd1y6qrvSDPb6FBHQfgHVCKxGypH7"], "asm": "OP_HASH160 f42d916e98a6011873e496dfa96c1f3f530518ed OP_EQUAL", "type": "scripthash"}, "value": 0.70205943, "n": 1}], "hex": "0200000000010300c923b2a1f2f45a98833a275a1a7127f47c52c380a45fb6909a2b305c798494010000006b483045022100d73c288a533170ea2d4b227cbf049dcb656046759527998d9a8f84867a34f77602202dfa9570e841f35a5de560ff37a37bf57726ad08963247699ff8227b57472ddf012103040a6f57a7c85b535166079012529f11fafd311c53faff5c7838be3096fd0beafeffffff09918322a692276de9dd54460faa249c6ca20235267edaec2c1faf0197202f540100000017160014e46ed6de97e13c437f7415d4bb0e819c64b56364feffffff41290965210f8dce09114b57b74b643141007d4b00349657c9e5110f87145a740000000017160014a1ae6350b8dc2c6ad72a48a8245579aaef9c51c5feffffff02c82b1000000000001976a914f3a0f6fa353c75b9352493848dda49084ed24a8188acf7412f040000000017a914f42d916e98a6011873e496dfa96c1f3f530518ed87000247304402206e2a2b0d435a614955ffc36e74caab446cff0aaf24be418b36c6ea933038477c02200276d709fa5ef832790141d791b9cbcda1eecb3d3097f16dac17177878501f36012103a229da0539f14c04abda7ae33105e5711d389eea9172550fc3793f4b05cf6ee4024730440220670691705a02597830a83dc145444c2ccdecdeebe53d9aabb9484f5d6d63672d022062807d8efae8478ff934ab1c4a56d0f14d295a287852ec46728cc9f4ac978bac0121031a13fb003b27bb4c8b019018687b046fe53822261b427b0226affdc2cfcf747e17490800", "vin": [{"sequence": 4294967294, "scriptSig": {"hex": "483045022100d73c288a533170ea2d4b227cbf049dcb656046759527998d9a8f84867a34f77602202dfa9570e841f35a5de560ff37a37bf57726ad08963247699ff8227b57472ddf012103040a6f57a7c85b535166079012529f11fafd311c53faff5c7838be3096fd0bea", "asm": "3045022100d73c288a533170ea2d4b227cbf049dcb656046759527998d9a8f84867a34f77602202dfa9570e841f35a5de560ff37a37bf57726ad08963247699ff8227b57472ddf[ALL] 03040a6f57a7c85b535166079012529f11fafd311c53faff5c7838be3096fd0bea"}, "vout": 1, "txid": "9484795c302b9a90b65fa480c3527cf427711a5a273a83985af4f2a1b223c900"}, {"txinwitness": ["304402206e2a2b0d435a614955ffc36e74caab446cff0aaf24be418b36c6ea933038477c02200276d709fa5ef832790141d791b9cbcda1eecb3d3097f16dac17177878501f3601", "03a229da0539f14c04abda7ae33105e5711d389eea9172550fc3793f4b05cf6ee4"], "sequence": 4294967294, "scriptSig": {"hex": "160014e46ed6de97e13c437f7415d4bb0e819c64b56364", "asm": "0014e46ed6de97e13c437f7415d4bb0e819c64b56364"}, "vout": 1, "txid": "542f209701af1f2cecda7e263502a26c9c24aa0f4654dde96d2792a622839109"}, {"txinwitness": ["30440220670691705a02597830a83dc145444c2ccdecdeebe53d9aabb9484f5d6d63672d022062807d8efae8478ff934ab1c4a56d0f14d295a287852ec46728cc9f4ac978bac01", "031a13fb003b27bb4c8b019018687b046fe53822261b427b0226affdc2cfcf747e"], "sequence": 4294967294, "scriptSig": {"hex": "160014a1ae6350b8dc2c6ad72a48a8245579aaef9c51c5", "asm": "0014a1ae6350b8dc2c6ad72a48a8245579aaef9c51c5"}, "vout": 0, "txid": "745a14870f11e5c9579634004b7d004131644bb7574b1109ce8d0f2165092941"}], "txid": "99e2242af9c833be0d10684ffec5417f005b63c6cfd2c813206389a4e11a9d82", "blocktime": 1537876114, "version": 2, "confirmations": 11459, "time": 1537876114, "locktime": 542999, "vsize": 407, "size": 569}