{"hash": "99e3374ecd14bdbe4ace4c9a8f2a0011428390b867f9edecfda3697cbdb656ac", "blockhash": "00000000000000000004ffacab907a6b429b9a5745fa0b75af4234bf69dd7176", "vout": [{"scriptPubKey": {"reqSigs": 1, "hex": "a9144fa9606dfd25e6358645aab1070e8827e1ed0b8d87", "addresses": ["38xEDCLYNHhpCPyUJxS8ijQ87cwmzchqvB"], "asm": "OP_HASH160 4fa9606dfd25e6358645aab1070e8827e1ed0b8d OP_EQUAL", "type": "scripthash"}, "value": 0.2542, "n": 0}, {"scriptPubKey": {"reqSigs": 1, "hex": "76a914bf819d49b466a6d72188cee9ee047a860e675cd688ac", "addresses": ["1JTbLQaB8TunsruwrYq9NU292AR2uUKB9i"], "asm": "OP_DUP OP_HASH160 bf819d49b466a6d72188cee9ee047a860e675cd6 OP_EQUALVERIFY OP_CHECKSIG", "type": "pubkeyhash"}, "value": 2.2e-05, "n": 1}], "hex": "010000000211737d975c6ac0edd947e941e84c3fa9aef88e5f368a5646f0eba95a9a35c1dd010000006b483045022100d339cf1b612584f93e94d1cd9826ca6746a7d3c2b74d3e3daca66f125212a22c02200d62a50223cdc441a25ec3ae3d4e1ee329f07247b4f37f96207665c9c4ca14e5012103f789cdb768049e18d7307e61d54b1d98e727cce3b344b49578b1e8b00fc7a8bfffffffff8e7b849d280526de4d06f6c8ed2c6eb6010ac73526bf2be599bec2c0c36fd2b2000000006a473044022012aca5c2b89548b44b5582367282abc65a081c60ad4cfdb73b68606dd5f31aaa02205575042808de125104e8fd6361d0b0a2f5bd7b839b8ced2a2fbbb5a36b6fddc401210275957ad36b70e354099c23ada73102bb2618c18d4e5d28bf71beffff0543045fffffffff02e0e083010000000017a9144fa9606dfd25e6358645aab1070e8827e1ed0b8d8798080000000000001976a914bf819d49b466a6d72188cee9ee047a860e675cd688ac00000000", "vin": [{"sequence": 4294967295, "scriptSig": {"hex": "483045022100d339cf1b612584f93e94d1cd9826ca6746a7d3c2b74d3e3daca66f125212a22c02200d62a50223cdc441a25ec3ae3d4e1ee329f07247b4f37f96207665c9c4ca14e5012103f789cdb768049e18d7307e61d54b1d98e727cce3b344b49578b1e8b00fc7a8bf", "asm": "3045022100d339cf1b612584f93e94d1cd9826ca6746a7d3c2b74d3e3daca66f125212a22c02200d62a50223cdc441a25ec3ae3d4e1ee329f07247b4f37f96207665c9c4ca14e5[ALL] 03f789cdb768049e18d7307e61d54b1d98e727cce3b344b49578b1e8b00fc7a8bf"}, "vout": 1, "txid": "ddc1359a5aa9ebf046568a365f8ef8aea93f4ce841e947d9edc06a5c977d7311"}, {"sequence": 4294967295, "scriptSig": {"hex": "473044022012aca5c2b89548b44b5582367282abc65a081c60ad4cfdb73b68606dd5f31aaa02205575042808de125104e8fd6361d0b0a2f5bd7b839b8ced2a2fbbb5a36b6fddc401210275957ad36b70e354099c23ada73102bb2618c18d4e5d28bf71beffff0543045f", "asm": "3044022012aca5c2b89548b44b5582367282abc65a081c60ad4cfdb73b68606dd5f31aaa02205575042808de125104e8fd6361d0b0a2f5bd7b839b8ced2a2fbbb5a36b6fddc4[ALL] 0275957ad36b70e354099c23ada73102bb2618c18d4e5d28bf71beffff0543045f"}, "vout": 0, "txid": "b2d26fc3c0c2be99e52bbf2635c70a01b66e2cedc8f6064dde2605289d847b8e"}], "txid": "99e3374ecd14bdbe4ace4c9a8f2a0011428390b867f9edecfda3697cbdb656ac", "blocktime": 1537875543, "version": 1, "confirmations": 11464, "time": 1537875543, "locktime": 0, "vsize": 371, "size": 371}