{"hash": "99efcba2bcce32d5637a7bf0a079ba66338b3f528bcced10e4f70ebd44dafc35", "blockhash": "0000000000000000000e13cef7c366c0283d82e591d1acd082e914b08063cdf1", "vout": [{"scriptPubKey": {"reqSigs": 1, "hex": "a9147088373d2c8d920fe503cc80972bf65fb4b5f8e887", "addresses": ["3Bx2nU2r6pDuqzec5XhUkYUVwvNRb88FyH"], "asm": "OP_HASH160 7088373d2c8d920fe503cc80972bf65fb4b5f8e8 OP_EQUAL", "type": "scripthash"}, "value": 0.46926326, "n": 0}, {"scriptPubKey": {"reqSigs": 1, "hex": "76a9146aee7cf6db17084b1b6e6c66af589ab3ce8ef68688ac", "addresses": ["1AkQKnGyWmU7wZXeMqDsiw3ZSRqshuiyFJ"], "asm": "OP_DUP OP_HASH160 6aee7cf6db17084b1b6e6c66af589ab3ce8ef686 OP_EQUALVERIFY OP_CHECKSIG", "type": "pubkeyhash"}, "value": 0.15023, "n": 1}], "hex": "01000000029a8e89c3879682546655002afe270aebb88f0901fdd14d3c2aab84180e11b796010000006a473044022039f230efbb622254c9f617a7b6ecedcfffca24ca0500195b93be92f0c89024e802206118881e6a2f7d344f155d65e34307d2d679b9410ca81b4eb7727cc8411766a3012102eb551933fca0b761c7d2e95523a7efcc2a3db5d393cdc76864af8422f81cf799ffffffff29528cc3dd91e6646f216f67124b62f3f4eda739c32c8f73e5f981998d8db8c8000000006a47304402207689750de8fbbb1f1736d38cbff5defe074d4953f043deddfa5c2b9abe6668a402207dd2aac369a1dbba48d7b2776c9c324b3a9c8d12e19d729038667f60ed64db1e0121027673969198055bdf69812bd8afc7cf41e85323ec6d5b9e5b95824b78682526a9ffffffff02f609cc020000000017a9147088373d2c8d920fe503cc80972bf65fb4b5f8e887983be500000000001976a9146aee7cf6db17084b1b6e6c66af589ab3ce8ef68688ac00000000", "vin": [{"sequence": 4294967295, "scriptSig": {"hex": "473044022039f230efbb622254c9f617a7b6ecedcfffca24ca0500195b93be92f0c89024e802206118881e6a2f7d344f155d65e34307d2d679b9410ca81b4eb7727cc8411766a3012102eb551933fca0b761c7d2e95523a7efcc2a3db5d393cdc76864af8422f81cf799", "asm": "3044022039f230efbb622254c9f617a7b6ecedcfffca24ca0500195b93be92f0c89024e802206118881e6a2f7d344f155d65e34307d2d679b9410ca81b4eb7727cc8411766a3[ALL] 02eb551933fca0b761c7d2e95523a7efcc2a3db5d393cdc76864af8422f81cf799"}, "vout": 1, "txid": "96b7110e1884ab2a3c4dd1fd01098fb8eb0a27fe2a00556654829687c3898e9a"}, {"sequence": 4294967295, "scriptSig": {"hex": "47304402207689750de8fbbb1f1736d38cbff5defe074d4953f043deddfa5c2b9abe6668a402207dd2aac369a1dbba48d7b2776c9c324b3a9c8d12e19d729038667f60ed64db1e0121027673969198055bdf69812bd8afc7cf41e85323ec6d5b9e5b95824b78682526a9", "asm": "304402207689750de8fbbb1f1736d38cbff5defe074d4953f043deddfa5c2b9abe6668a402207dd2aac369a1dbba48d7b2776c9c324b3a9c8d12e19d729038667f60ed64db1e[ALL] 027673969198055bdf69812bd8afc7cf41e85323ec6d5b9e5b95824b78682526a9"}, "vout": 0, "txid": "c8b88d8d9981f9e5738f2cc339a7edf4f3624b12676f216f64e691ddc38c5229"}], "txid": "99efcba2bcce32d5637a7bf0a079ba66338b3f528bcced10e4f70ebd44dafc35", "blocktime": 1537871767, "version": 1, "confirmations": 11495, "time": 1537871767, "locktime": 0, "vsize": 370, "size": 370}