{"hash": "4bde1c84a8c2e3f419f9c48840936cdfa00760a184b69a25e17c2752bfba7d8a", "blockhash": "0000000000000000000baef3f32e3676a92c3b2e5da21b426e4f302fc371ce76", "vout": [{"scriptPubKey": {"reqSigs": 1, "hex": "76a914b6cf2b65f893549074b3252045381f6cbd66a2b488ac", "addresses": ["1HfcAJdsRaBYPvFSMAHWXsCUadEoFwH4bR"], "asm": "OP_DUP OP_HASH160 b6cf2b65f893549074b3252045381f6cbd66a2b4 OP_EQUALVERIFY OP_CHECKSIG", "type": "pubkeyhash"}, "value": 0.00206474, "n": 0}, {"scriptPubKey": {"reqSigs": 1, "hex": "a914facf6bd8343af9253d0cc5988fd60283ae5b232a87", "addresses": ["3QZBLPD29LXprXGo8AeiB1NjjJVJ8yxCms"], "asm": "OP_HASH160 facf6bd8343af9253d0cc5988fd60283ae5b232a OP_EQUAL", "type": "scripthash"}, "value": 1.15051334, "n": 1}], "hex": "02000000000101e313d137c367be274f6b4da757e4f4e0242dfcf6402674fbd4d872a801c5f077000000001716001479e99497a42dec68728edfd135cca8b730a20ec2ffffffff028a260300000000001976a914b6cf2b65f893549074b3252045381f6cbd66a2b488ac468bdb060000000017a914facf6bd8343af9253d0cc5988fd60283ae5b232a870247304402203f8bb0c042510cb9300a3496eaf738447784d79b4af77ac59b48b9f0e572856c022017c8c3b84fb9aa7c4c2d4957ac2b59b5e56ac3a9b8a06e9fbbda6d42ff815f740121026bfbce85ff4e547c5497a2117f14031649c6d594fec62e15c5d42f63cf2de80700000000", "vin": [{"txinwitness": ["304402203f8bb0c042510cb9300a3496eaf738447784d79b4af77ac59b48b9f0e572856c022017c8c3b84fb9aa7c4c2d4957ac2b59b5e56ac3a9b8a06e9fbbda6d42ff815f7401", "026bfbce85ff4e547c5497a2117f14031649c6d594fec62e15c5d42f63cf2de807"], "sequence": 4294967295, "scriptSig": {"hex": "16001479e99497a42dec68728edfd135cca8b730a20ec2", "asm": "001479e99497a42dec68728edfd135cca8b730a20ec2"}, "vout": 0, "txid": "77f0c501a872d8d4fb742640f6fc2d24e0f4e457a74d6b4f27be67c337d113e3"}], "txid": "99f0ba328f6de3bba892c21ad8e8bdde50a65a22546b279a146dd7fec101ab88", "blocktime": 1537876114, "version": 2, "confirmations": 11460, "time": 1537876114, "locktime": 0, "vsize": 168, "size": 249}