{"hash": "99f40ec8d5665bdd2562e1a79bf6901072a0ee26e5e18267a3ae3674cb772631", "blockhash": "0000000000000000000dcc0f55137456b1a82d3642486a52398922ac4d620174", "vout": [{"scriptPubKey": {"reqSigs": 1, "hex": "a9147ab6bd30146fdd4daa94a46a162e2c60652e018787", "addresses": ["3CssGsnW6SePbjukQUeVA1P1CXi8XqVYzN"], "asm": "OP_HASH160 7ab6bd30146fdd4daa94a46a162e2c60652e0187 OP_EQUAL", "type": "scripthash"}, "value": 0.03941658, "n": 0}, {"scriptPubKey": {"reqSigs": 1, "hex": "76a914fff5e5e75f90203423d8537b3bbc9a495878c22f88ac", "addresses": ["1QLPtDPb6R2atC1TahWStMBdTe3UHUxG7b"], "asm": "OP_DUP OP_HASH160 fff5e5e75f90203423d8537b3bbc9a495878c22f OP_EQUALVERIFY OP_CHECKSIG", "type": "pubkeyhash"}, "value": 0.00440794, "n": 1}], "hex": "0100000001ed721d2565dd851021b48a37ab878410a319c4f01f70c01f554f1173c5ddcc7b010000006b48304502210092d8127c929410687de88d74a97c4cc4f46e4e27777f577eb129ab5012ef1cfc0220145f8133328c9e7b2089292a0646d6734f93fb448759cc48d3ab11231d7da679012103fbf206f7dabcbf8acef07c2e2ebaa793ba7f94d8c2651b7e2909de96909dc3beffffffff021a253c000000000017a9147ab6bd30146fdd4daa94a46a162e2c60652e018787dab90600000000001976a914fff5e5e75f90203423d8537b3bbc9a495878c22f88ac00000000", "vin": [{"sequence": 4294967295, "scriptSig": {"hex": "48304502210092d8127c929410687de88d74a97c4cc4f46e4e27777f577eb129ab5012ef1cfc0220145f8133328c9e7b2089292a0646d6734f93fb448759cc48d3ab11231d7da679012103fbf206f7dabcbf8acef07c2e2ebaa793ba7f94d8c2651b7e2909de96909dc3be", "asm": "304502210092d8127c929410687de88d74a97c4cc4f46e4e27777f577eb129ab5012ef1cfc0220145f8133328c9e7b2089292a0646d6734f93fb448759cc48d3ab11231d7da679[ALL] 03fbf206f7dabcbf8acef07c2e2ebaa793ba7f94d8c2651b7e2909de96909dc3be"}, "vout": 1, "txid": "7bccddc573114f551fc0701ff0c419a3108487ab378ab4211085dd65251d72ed"}], "txid": "99f40ec8d5665bdd2562e1a79bf6901072a0ee26e5e18267a3ae3674cb772631", "blocktime": 1537870268, "version": 1, "confirmations": 11518, "time": 1537870268, "locktime": 0, "vsize": 224, "size": 224}