{"hash": "99f72f63054e15eef39ba69bdb7371816d04c0f4a88ab431589def84e0f95fe1", "blockhash": "0000000000000000000e13cef7c366c0283d82e591d1acd082e914b08063cdf1", "vout": [{"scriptPubKey": {"reqSigs": 1, "hex": "76a9146dfaf06d2fb8d73ea9a04fd15ca836f7fe76d48588ac", "addresses": ["1B2XGUAq4TewmoBcuiMC1SkLRa9S4TxpeM"], "asm": "OP_DUP OP_HASH160 6dfaf06d2fb8d73ea9a04fd15ca836f7fe76d485 OP_EQUALVERIFY OP_CHECKSIG", "type": "pubkeyhash"}, "value": 0.00156208, "n": 0}, {"scriptPubKey": {"reqSigs": 1, "hex": "76a914ea948712a4048a8359d89bfdbe8369da16bf3c7c88ac", "addresses": ["1NPM3mbPiGERiZLGe5rVfPxCZmU8xju7ra"], "asm": "OP_DUP OP_HASH160 ea948712a4048a8359d89bfdbe8369da16bf3c7c OP_EQUALVERIFY OP_CHECKSIG", "type": "pubkeyhash"}, "value": 0.00162962, "n": 1}], "hex": "0100000001aad941d9220af5bc12aa5ecaa520156ab8eb3407a838a3ba9544987a15be5371010000006a47304402204f3acff869871c4d6b114b057463de4af0de84ffabec35fa7756a498d229292a0220762c6d99f0206e2b179cc782e1ba27a24a97ed7e457875488b91af2bf93424b001210245e7e3bd60e6d5597355b15b1b2c13ef67f9b1727e09a6286eec1460e53107eaffffffff0230620200000000001976a9146dfaf06d2fb8d73ea9a04fd15ca836f7fe76d48588ac927c0200000000001976a914ea948712a4048a8359d89bfdbe8369da16bf3c7c88ac00000000", "vin": [{"sequence": 4294967295, "scriptSig": {"hex": "47304402204f3acff869871c4d6b114b057463de4af0de84ffabec35fa7756a498d229292a0220762c6d99f0206e2b179cc782e1ba27a24a97ed7e457875488b91af2bf93424b001210245e7e3bd60e6d5597355b15b1b2c13ef67f9b1727e09a6286eec1460e53107ea", "asm": "304402204f3acff869871c4d6b114b057463de4af0de84ffabec35fa7756a498d229292a0220762c6d99f0206e2b179cc782e1ba27a24a97ed7e457875488b91af2bf93424b0[ALL] 0245e7e3bd60e6d5597355b15b1b2c13ef67f9b1727e09a6286eec1460e53107ea"}, "vout": 1, "txid": "7153be157a984495baa338a80734ebb86a1520a5ca5eaa12bcf50a22d941d9aa"}], "txid": "99f72f63054e15eef39ba69bdb7371816d04c0f4a88ab431589def84e0f95fe1", "blocktime": 1537871767, "version": 1, "confirmations": 11495, "time": 1537871767, "locktime": 0, "vsize": 225, "size": 225}