{"hash": "99453713c0737967d2efdaa5e9b687845d1666b7d568fdaf9e86120d4fb9a587", "blockhash": "0000000000000000001cda96e906b7601b7a6fb1a3b62bca570a9e5d8f4b3de1", "vout": [{"scriptPubKey": {"reqSigs": 1, "hex": "76a91464d5200fcbd36fa6f4d572454ea1b2432ffab91388ac", "addresses": ["1AC9tPJ6t5Y2eWQkhSP1hyH5RXSjnkn2bk"], "asm": "OP_DUP OP_HASH160 64d5200fcbd36fa6f4d572454ea1b2432ffab913 OP_EQUALVERIFY OP_CHECKSIG", "type": "pubkeyhash"}, "value": 0.01309127, "n": 0}, {"scriptPubKey": {"reqSigs": 1, "hex": "a9141988a27e3c2df4ddee7fad5a2303d086179b2a3087", "addresses": ["3422VtS7UtCvXYxoXMVp6eZupR252z85oC"], "asm": "OP_HASH160 1988a27e3c2df4ddee7fad5a2303d086179b2a30 OP_EQUAL", "type": "scripthash"}, "value": 0.22303257, "n": 1}], "hex": "010000000001012bb79e7d209fe0845f6517e988ca05b615c025f2ee82fd77d3c90faafc1da92f00000000232200202035e78a6b34d583ad0a874b80ee41a0507b92cf0b671656108f594c7f75ca90ffffffff02c7f91300000000001976a91464d5200fcbd36fa6f4d572454ea1b2432ffab91388ac195254010000000017a9141988a27e3c2df4ddee7fad5a2303d086179b2a30870400483045022100978937760a5693170e9a03625448b41bdc4fd704a3fa9a37a029b57f77b3b2d10220140ab48d5143e3945b9735cc1ba39570e51d7a23f831c87f295a54561491ab5b0147304402202d74917a7572aa60d6a5652bbea2c91e4c5dfb16cf778113e3e80502dcdef3cd02203bdee1c7a8f375e5f23f6f34b74d847e59ff7898958eff836305e80f3442dd6d01695221029103d1dfbbee9ea5249ee0b03ca59e08291ce34a7467513edf8ea767b5aa26382103dce07bea5905a1c3e70f86c1f74f0e98e7cf3b6f5d02226a4c531c9e930c613b210268d8878afaf4b55118519d8520fe0db27f9596a812d4378f4bf4a96a5333694653ae00000000", "vin": [{"txinwitness": ["", "3045022100978937760a5693170e9a03625448b41bdc4fd704a3fa9a37a029b57f77b3b2d10220140ab48d5143e3945b9735cc1ba39570e51d7a23f831c87f295a54561491ab5b01", "304402202d74917a7572aa60d6a5652bbea2c91e4c5dfb16cf778113e3e80502dcdef3cd02203bdee1c7a8f375e5f23f6f34b74d847e59ff7898958eff836305e80f3442dd6d01", "5221029103d1dfbbee9ea5249ee0b03ca59e08291ce34a7467513edf8ea767b5aa26382103dce07bea5905a1c3e70f86c1f74f0e98e7cf3b6f5d02226a4c531c9e930c613b210268d8878afaf4b55118519d8520fe0db27f9596a812d4378f4bf4a96a5333694653ae"], "sequence": 4294967295, "scriptSig": {"hex": "2200202035e78a6b34d583ad0a874b80ee41a0507b92cf0b671656108f594c7f75ca90", "asm": "00202035e78a6b34d583ad0a874b80ee41a0507b92cf0b671656108f594c7f75ca90"}, "vout": 0, "txid": "2fa91dfcaa0fc9d377fd82eef225c015b605ca88e917655f84e09f207d9eb72b"}], "txid": "99f7852ec4af5057020584692e15434435dc23cd59f9a1d75e8c9b44caac4515", "blocktime": 1537873282, "version": 1, "confirmations": 11483, "time": 1537873282, "locktime": 0, "vsize": 216, "size": 407}