{"hash": "99ffae1e147f47182d37f73c9b311391386418144d47099669d655cc994d500f", "blockhash": "0000000000000000001e0dab787dd257d1dbfcb92a98c2207d5e1078be1f4165", "vout": [{"scriptPubKey": {"reqSigs": 1, "hex": "76a914c408b18cdb6b780c36382209fb17b70b81022b0c88ac", "addresses": ["1JsXrdyrrFC7vQJYUgLSWYLUdpfuXNNV3p"], "asm": "OP_DUP OP_HASH160 c408b18cdb6b780c36382209fb17b70b81022b0c OP_EQUALVERIFY OP_CHECKSIG", "type": "pubkeyhash"}, "value": 0.00023308, "n": 0}, {"scriptPubKey": {"reqSigs": 1, "hex": "a9143b9c636462b23474db4aeae8b9ea7bacb0dc88d287", "addresses": ["378D8ucPdxxztqco2Q1yx8uDG5sXrYm8cq"], "asm": "OP_HASH160 3b9c636462b23474db4aeae8b9ea7bacb0dc88d2 OP_EQUAL", "type": "scripthash"}, "value": 0.00201981, "n": 1}], "hex": "010000000159f30c2e4deb685cfb8a45c2d0a338f8ea7c26af16122ea01c432a886928a809010000006a473044022056deec2eb712b5c1c03195febe649ea8b827e9232a11f131a2a757daaf62696002202448c587ca361c58763c949ce7ee0998a1398b78df1be88be49eb3a13cb05f080121028f16d107e3f34d22012671149d4e91455a129f9c5ca92a73066fcd2e48ce2d29ffffffff020c5b0000000000001976a914c408b18cdb6b780c36382209fb17b70b81022b0c88acfd1403000000000017a9143b9c636462b23474db4aeae8b9ea7bacb0dc88d28700000000", "vin": [{"sequence": 4294967295, "scriptSig": {"hex": "473044022056deec2eb712b5c1c03195febe649ea8b827e9232a11f131a2a757daaf62696002202448c587ca361c58763c949ce7ee0998a1398b78df1be88be49eb3a13cb05f080121028f16d107e3f34d22012671149d4e91455a129f9c5ca92a73066fcd2e48ce2d29", "asm": "3044022056deec2eb712b5c1c03195febe649ea8b827e9232a11f131a2a757daaf62696002202448c587ca361c58763c949ce7ee0998a1398b78df1be88be49eb3a13cb05f08[ALL] 028f16d107e3f34d22012671149d4e91455a129f9c5ca92a73066fcd2e48ce2d29"}, "vout": 1, "txid": "09a82869882a431ca02e1216af267ceaf838a3d0c2458afb5c68eb4d2e0cf359"}], "txid": "99ffae1e147f47182d37f73c9b311391386418144d47099669d655cc994d500f", "blocktime": 1537872475, "version": 1, "confirmations": 11487, "time": 1537872475, "locktime": 0, "vsize": 223, "size": 223}