{"hash": "519e787d7271a559e04ac2e570a1091ba9e392286359ff30ad847c64de3dc3d3", "blockhash": "00000000000000000024a2167bbff67b0be802c0b01cdd79e6331c2be6459f87", "vout": [{"scriptPubKey": {"reqSigs": 1, "hex": "a91458fb881f8d59ba9af479dbe8f44b0ca14005085687", "addresses": ["39oWi9zmQJ8HKdbFa9GTQwWsXmhXvQSRvd"], "asm": "OP_HASH160 58fb881f8d59ba9af479dbe8f44b0ca140050856 OP_EQUAL", "type": "scripthash"}, "value": 0.00255457, "n": 0}, {"scriptPubKey": {"reqSigs": 1, "hex": "a9146202be24a59d609e5c094d38a593df35aeeec75387", "addresses": ["3AdFRusxRTjbgKt9JEQshtz76eygFbtbnQ"], "asm": "OP_HASH160 6202be24a59d609e5c094d38a593df35aeeec753 OP_EQUAL", "type": "scripthash"}, "value": 0.00897532, "n": 1}], "hex": "0100000000010175416fb96cce79a606cfafa6b4d981ad65ff58b39350d87b4ab86e7b78f89667010000002322002046f028cf7d5f539e1200a11d2d49375f3a9946081bc69a5947e16316bec6c757ffffffff02e1e503000000000017a91458fb881f8d59ba9af479dbe8f44b0ca14005085687fcb10d000000000017a9146202be24a59d609e5c094d38a593df35aeeec753870400483045022100ee7c5fb445d71020bfb6da44e010edef0bfed4159ea742d0b21545a3c0147857022055fdfe8690b32c4b34621794c47905e8a60271e23bd20c1f031df205dfc328de01483045022100d26e98b4e53d9489cbe2e1f6e0dab5b083ce8f419377282af56c824a4fa3e0ee0220637d112e34a8935a9d01c60070b603edadf21a7c0f38668e92cf422c77f645e101475221029de0e33576c10f5b46f759b553be8c7e3f5ba5be9fbadfd2ae4dbb62931b0e7a210292d679353fa4a760eaad69284c09d063a1fd1a15ad8c70e83dbf86f7063f8c1852ae00000000", "vin": [{"txinwitness": ["", "3045022100ee7c5fb445d71020bfb6da44e010edef0bfed4159ea742d0b21545a3c0147857022055fdfe8690b32c4b34621794c47905e8a60271e23bd20c1f031df205dfc328de01", "3045022100d26e98b4e53d9489cbe2e1f6e0dab5b083ce8f419377282af56c824a4fa3e0ee0220637d112e34a8935a9d01c60070b603edadf21a7c0f38668e92cf422c77f645e101", "5221029de0e33576c10f5b46f759b553be8c7e3f5ba5be9fbadfd2ae4dbb62931b0e7a210292d679353fa4a760eaad69284c09d063a1fd1a15ad8c70e83dbf86f7063f8c1852ae"], "sequence": 4294967295, "scriptSig": {"hex": "22002046f028cf7d5f539e1200a11d2d49375f3a9946081bc69a5947e16316bec6c757", "asm": "002046f028cf7d5f539e1200a11d2d49375f3a9946081bc69a5947e16316bec6c757"}, "vout": 1, "txid": "6796f8787b6eb84a7bd85093b358ff65ad81d9b4a6afcf06a679ce6cb96f4175"}], "txid": "9a052ae893ed582f6ac720151265e09bc9ce919db10bdd13936de7e5170ef179", "blocktime": 1537870564, "version": 1, "confirmations": 11515, "time": 1537870564, "locktime": 0, "vsize": 206, "size": 372}