{"hash": "9a089cdf02e46d550af4bc1d01017da66c3f69b597c44e4ba0ad4db99ec421b2", "blockhash": "0000000000000000001cda96e906b7601b7a6fb1a3b62bca570a9e5d8f4b3de1", "vout": [{"scriptPubKey": {"reqSigs": 1, "hex": "76a91478e1da141150ea7a22fce878d665a21d626e0f1588ac", "addresses": ["1C2AeUzTBTfixx5k7212BFMYCHYP3dwyLn"], "asm": "OP_DUP OP_HASH160 78e1da141150ea7a22fce878d665a21d626e0f15 OP_EQUALVERIFY OP_CHECKSIG", "type": "pubkeyhash"}, "value": 0.01186295, "n": 0}], "hex": "01000000012d1c172dc480649b88c2187da1506decd86cf96fddb8380a7076793950069d34010000006b483045022100ab5f51bcb3f66a197a3b2a6767f8e52204e24aa3f5245fb338838c10553a0f1702207540188eb1327ee5939498e9f9f45fb4760c123a79b85da2cdf47cf58b8ae868012103f6c5deff9cac7f720bd4cb85cd7444ad586a4c3ab155ab6b8d3d0acede698378ffffffff01f7191200000000001976a91478e1da141150ea7a22fce878d665a21d626e0f1588ac00000000", "vin": [{"sequence": 4294967295, "scriptSig": {"hex": "483045022100ab5f51bcb3f66a197a3b2a6767f8e52204e24aa3f5245fb338838c10553a0f1702207540188eb1327ee5939498e9f9f45fb4760c123a79b85da2cdf47cf58b8ae868012103f6c5deff9cac7f720bd4cb85cd7444ad586a4c3ab155ab6b8d3d0acede698378", "asm": "3045022100ab5f51bcb3f66a197a3b2a6767f8e52204e24aa3f5245fb338838c10553a0f1702207540188eb1327ee5939498e9f9f45fb4760c123a79b85da2cdf47cf58b8ae868[ALL] 03f6c5deff9cac7f720bd4cb85cd7444ad586a4c3ab155ab6b8d3d0acede698378"}, "vout": 1, "txid": "349d0650397976700a38b8dd6ff96cd8ec6d50a17d18c2889b6480c42d171c2d"}], "txid": "9a089cdf02e46d550af4bc1d01017da66c3f69b597c44e4ba0ad4db99ec421b2", "blocktime": 1537873282, "version": 1, "confirmations": 11485, "time": 1537873282, "locktime": 0, "vsize": 192, "size": 192}