{"hash": "cc9549158b8214ba78f3835e818131eed4b958bbb48b69087a412af601660f53", "blockhash": "0000000000000000000e13cef7c366c0283d82e591d1acd082e914b08063cdf1", "vout": [{"scriptPubKey": {"reqSigs": 1, "hex": "76a914d46055b72a7a1aaeaa0e994c5bc01c55d6fdea6688ac", "addresses": ["1LMwf8VLajSuV8hvNcwj8gPjmUXd7beVkM"], "asm": "OP_DUP OP_HASH160 d46055b72a7a1aaeaa0e994c5bc01c55d6fdea66 OP_EQUALVERIFY OP_CHECKSIG", "type": "pubkeyhash"}, "value": 0.376229, "n": 0}, {"scriptPubKey": {"reqSigs": 1, "hex": "a914b20563d7d77b486a9a6222f392937e73c87df65c87", "addresses": ["3HvJfCDVHP1SLWF8ApXsrnsSDQ691RKa6z"], "asm": "OP_HASH160 b20563d7d77b486a9a6222f392937e73c87df65c OP_EQUAL", "type": "scripthash"}, "value": 0.00998676, "n": 1}], "hex": "020000000001070f528193b15de35fd2f195549cdc9f0c406fa326cbd91eb6f48a32f52e6235720000000017160014ab5396916a968cd21ded615db5f64e8cac5a7794feffffff6132a3a44bcf2817da6c19db9d85e1bf65e88ba857bc1bfea6068c6b0bc0ad620100000017160014e7fcc45e5bb6a5d6a59befdd0e654d035127db83feffffff8c310dfc5487b52cc2ee01793e1bab8d2450e778ef0837f965438ca1a3b6891b0500000017160014e064623454fffcd0d3899647947486ef45bed276feffffff91c866745417ed9afebd11328db13a98898cac55c955a47a35d6e17d9791dc8d000000001716001409c77c4ced74b0ca4da6b6c010f35da136a3d7bbfeffffffa4cc4fb9ff280432a1f7ec15220f7522ec300327c9e92746270e0a4f0f2c402a000000001716001460501083c1f39348a24541a431a73ffdd4b7856cfeffffffdfeb5f6e1165ef9cc6ee7924fe27caf6952c8131db5eb0a9502f24502fd35f690e00000017160014c05898244e2993d8a85a7cc98b18631c0158724bfefffffffe0c52b06e694a6a8a78605700d81e0448a0be718670af8c58c8a000b71af97f0a00000017160014782002fa524a47039357f706fdcf7ab6a3c51f46feffffff0274143e02000000001976a914d46055b72a7a1aaeaa0e994c5bc01c55d6fdea6688ac143d0f000000000017a914b20563d7d77b486a9a6222f392937e73c87df65c8702473044022053ce116f1475dcdbdb9c6e2024dd9fe247cb8c9cc3cebd192db312884004830902201808df3df0cff3c91072a4ddf2b389d5ddc8ccf242eb7b1296be43efb61feae3012103acee145a15d2a352979a43dfee8a7966e1e51024faa197b5e43da33f8f62e4240247304402202b66d91806f8fe7b60145f280d0a4398d2301addc622fe1f7e01ac65cff94994022069db53ec933ff76b49fa11e5ce0d6df664876175900bd36f3bb58da1e0b806290121034b0665146ac8bbfabdc1b9a4d380a8a2928d1d7d6f6b40443cd036d25dc4198f0247304402207680ff4ecfa7e93cd108b8be0335ca71b284bb54218f5316f7382d37df88fc7e0220303cbb8232ee78b9aea9b355da50e3535b021afb91089525a46cc07db016154e0121027678fd4f0ad23659d6571a0db163950db76d778aec5d55aa4d2f085b87c2c45c02483045022100bf9a15f974723fabdd92ecf345ff6aed13d026d776fe30415b91e48c5f185cb00220071aab6f33ad954185eae5fd0f52410ee23b48ac7dbbefe227a6e996a791c541012103ad24ea6bf4ac8b9c816dd2256e943422d84446e2edb142b908d46d9c487de67e02483045022100ea8e97f38a64a9d412dec8d7bc62ad768f62a02f4b537805a9e71419d0ff47d602204e5fd2aca65cf34a9b6a6945fb1d4046d49e75679e597f9584a88abf02e10b4301210322ef668c27a17bd05f0f9a1ea84068ebe3b70bc0c8d37020820b580b4636fc6102483045022100eb435fcf802561c064603cdba85117367e6e6f6a1f5d3f003d99ee02f65b9247022004f4ec5ab821542311001fa999a262ca3b81988b525c3bc183f07bd8b44d8496012103ab570baf63128e44114445dbe3692897f34539b50bc34e5cb6c624720413594602473044022068cb65906ea0c597feb39e7eb5db9f0cf0feb608b0671a8c638966b7deb2e8fd02202a5cc8e4abc83458fab8c889d1cdd3bbc5226ae094e1f427ac37fd40a62c5488012102fe04154bf65a11e70ca2c4fb33a79d2efee3cf437a26791b4c6208491245096c10490800", "vin": [{"txinwitness": ["3044022053ce116f1475dcdbdb9c6e2024dd9fe247cb8c9cc3cebd192db312884004830902201808df3df0cff3c91072a4ddf2b389d5ddc8ccf242eb7b1296be43efb61feae301", "03acee145a15d2a352979a43dfee8a7966e1e51024faa197b5e43da33f8f62e424"], "sequence": 4294967294, "scriptSig": {"hex": "160014ab5396916a968cd21ded615db5f64e8cac5a7794", "asm": "0014ab5396916a968cd21ded615db5f64e8cac5a7794"}, "vout": 0, "txid": "7235622ef5328af4b61ed9cb26a36f400c9fdc9c5495f1d25fe35db19381520f"}, {"txinwitness": ["304402202b66d91806f8fe7b60145f280d0a4398d2301addc622fe1f7e01ac65cff94994022069db53ec933ff76b49fa11e5ce0d6df664876175900bd36f3bb58da1e0b8062901", "034b0665146ac8bbfabdc1b9a4d380a8a2928d1d7d6f6b40443cd036d25dc4198f"], "sequence": 4294967294, "scriptSig": {"hex": "160014e7fcc45e5bb6a5d6a59befdd0e654d035127db83", "asm": "0014e7fcc45e5bb6a5d6a59befdd0e654d035127db83"}, "vout": 1, "txid": "62adc00b6b8c06a6fe1bbc57a88be865bfe1859ddb196cda1728cf4ba4a33261"}, {"txinwitness": ["304402207680ff4ecfa7e93cd108b8be0335ca71b284bb54218f5316f7382d37df88fc7e0220303cbb8232ee78b9aea9b355da50e3535b021afb91089525a46cc07db016154e01", "027678fd4f0ad23659d6571a0db163950db76d778aec5d55aa4d2f085b87c2c45c"], "sequence": 4294967294, "scriptSig": {"hex": "160014e064623454fffcd0d3899647947486ef45bed276", "asm": "0014e064623454fffcd0d3899647947486ef45bed276"}, "vout": 5, "txid": "1b89b6a3a18c4365f93708ef78e750248dab1b3e7901eec22cb58754fc0d318c"}, {"txinwitness": ["3045022100bf9a15f974723fabdd92ecf345ff6aed13d026d776fe30415b91e48c5f185cb00220071aab6f33ad954185eae5fd0f52410ee23b48ac7dbbefe227a6e996a791c54101", "03ad24ea6bf4ac8b9c816dd2256e943422d84446e2edb142b908d46d9c487de67e"], "sequence": 4294967294, "scriptSig": {"hex": "16001409c77c4ced74b0ca4da6b6c010f35da136a3d7bb", "asm": "001409c77c4ced74b0ca4da6b6c010f35da136a3d7bb"}, "vout": 0, "txid": "8ddc91977de1d6357aa455c955ac8c89983ab18d3211bdfe9aed17547466c891"}, {"txinwitness": ["3045022100ea8e97f38a64a9d412dec8d7bc62ad768f62a02f4b537805a9e71419d0ff47d602204e5fd2aca65cf34a9b6a6945fb1d4046d49e75679e597f9584a88abf02e10b4301", "0322ef668c27a17bd05f0f9a1ea84068ebe3b70bc0c8d37020820b580b4636fc61"], "sequence": 4294967294, "scriptSig": {"hex": "16001460501083c1f39348a24541a431a73ffdd4b7856c", "asm": "001460501083c1f39348a24541a431a73ffdd4b7856c"}, "vout": 0, "txid": "2a402c0f4f0a0e274627e9c9270330ec22750f2215ecf7a1320428ffb94fcca4"}, {"txinwitness": ["3045022100eb435fcf802561c064603cdba85117367e6e6f6a1f5d3f003d99ee02f65b9247022004f4ec5ab821542311001fa999a262ca3b81988b525c3bc183f07bd8b44d849601", "03ab570baf63128e44114445dbe3692897f34539b50bc34e5cb6c6247204135946"], "sequence": 4294967294, "scriptSig": {"hex": "160014c05898244e2993d8a85a7cc98b18631c0158724b", "asm": "0014c05898244e2993d8a85a7cc98b18631c0158724b"}, "vout": 14, "txid": "695fd32f50242f50a9b05edb31812c95f6ca27fe2479eec69cef65116e5febdf"}, {"txinwitness": ["3044022068cb65906ea0c597feb39e7eb5db9f0cf0feb608b0671a8c638966b7deb2e8fd02202a5cc8e4abc83458fab8c889d1cdd3bbc5226ae094e1f427ac37fd40a62c548801", "02fe04154bf65a11e70ca2c4fb33a79d2efee3cf437a26791b4c6208491245096c"], "sequence": 4294967294, "scriptSig": {"hex": "160014782002fa524a47039357f706fdcf7ab6a3c51f46", "asm": "0014782002fa524a47039357f706fdcf7ab6a3c51f46"}, "vout": 10, "txid": "7ff91ab700a0c8588caf708671bea048041ed8005760788a6a4a696eb0520cfe"}], "txid": "9a09a536709c6371661cdc8b4d86e1ca2d0cb0e421a9d65b6f75232844fb5464", "blocktime": 1537871767, "version": 2, "confirmations": 11491, "time": 1537871767, "locktime": 542992, "vsize": 713, "size": 1278}