{"hash": "7ab55b70f4373ba364bda7374c41831a2284d7d79d61ee5e2c740e84ea084248", "blockhash": "0000000000000000000dcc0f55137456b1a82d3642486a52398922ac4d620174", "vout": [{"scriptPubKey": {"reqSigs": 1, "hex": "a914c831f196b4d9f56c102352dff5b0e478ba5eb4ec87", "addresses": ["3KwYu4PvhSKxRVYdV5PqwT9P456X1qbRzL"], "asm": "OP_HASH160 c831f196b4d9f56c102352dff5b0e478ba5eb4ec OP_EQUAL", "type": "scripthash"}, "value": 0.00165496, "n": 0}, {"scriptPubKey": {"reqSigs": 1, "hex": "76a91452b6a5f59bc19dd565f3fbc41ededf55dc5aabf588ac", "addresses": ["18YMDMbD6AEzxYcuMV6azDy2bmF2nWCj5R"], "asm": "OP_DUP OP_HASH160 52b6a5f59bc19dd565f3fbc41ededf55dc5aabf5 OP_EQUALVERIFY OP_CHECKSIG", "type": "pubkeyhash"}, "value": 0.00015, "n": 1}], "hex": "0200000000010108da2ebd03f0686393d441e2362feff8ff75cf92c04b53ed791e0c5987a3d0eb0100000017160014a56e772b6208f9a59c5679609b22a12e00624343fdffffff02788602000000000017a914c831f196b4d9f56c102352dff5b0e478ba5eb4ec87983a0000000000001976a91452b6a5f59bc19dd565f3fbc41ededf55dc5aabf588ac0247304402201a73312390bab462cb020bd0d8b6a07e57012eb5b1d28c028c8ae6a0a49b742b02203fa3e57c669dbd1cd699cf1e48df8564afaa211c050f06b73f2b608d0253b363012103660d7134dd437c1bad464901a72acb9eaa63f3e709bfa7b90d26056511f7692a0c490800", "vin": [{"txinwitness": ["304402201a73312390bab462cb020bd0d8b6a07e57012eb5b1d28c028c8ae6a0a49b742b02203fa3e57c669dbd1cd699cf1e48df8564afaa211c050f06b73f2b608d0253b36301", "03660d7134dd437c1bad464901a72acb9eaa63f3e709bfa7b90d26056511f7692a"], "sequence": 4294967293, "scriptSig": {"hex": "160014a56e772b6208f9a59c5679609b22a12e00624343", "asm": "0014a56e772b6208f9a59c5679609b22a12e00624343"}, "vout": 1, "txid": "ebd0a387590c1e79ed534bc092cf75fff8ef2f36e241d4936368f003bd2eda08"}], "txid": "9a0c43d7827b84fbd8f5239bc92dc8de33db76c244bcfdfbf8f48e2e79fb4f53", "blocktime": 1537870268, "version": 2, "confirmations": 11520, "time": 1537870268, "locktime": 542988, "vsize": 168, "size": 249}