{"hash": "9a0e365f443ae0b963e2bbfa01c59f3d7af56ab16dffe55a391ac8c5a140be62", "blockhash": "0000000000000000001cda96e906b7601b7a6fb1a3b62bca570a9e5d8f4b3de1", "vout": [{"scriptPubKey": {"reqSigs": 1, "hex": "a91415c14cb5d5b9a6823cc57432640a07198411943d87", "addresses": ["33g3gGTTMXhRWHgVcaiNrVgpspn77rn68g"], "asm": "OP_HASH160 15c14cb5d5b9a6823cc57432640a07198411943d OP_EQUAL", "type": "scripthash"}, "value": 0.001302, "n": 0}, {"scriptPubKey": {"reqSigs": 1, "hex": "76a914ea65e4c5bf7e0b853bf52c1507350a92d501f97388ac", "addresses": ["1NNPBaoEAgehqMnr85S34tufqrV1NQ2k9S"], "asm": "OP_DUP OP_HASH160 ea65e4c5bf7e0b853bf52c1507350a92d501f973 OP_EQUALVERIFY OP_CHECKSIG", "type": "pubkeyhash"}, "value": 0.0150583, "n": 1}], "hex": "0100000001b615a12dba17df43a7090b12535057231228eaf56ed0f55e1493e74033db09e6010000006b4830450221009b5a56f59046d4856e1b965f5a5ebaf8f61a06dd9b99c17c418c6c35b5460d7502204960f654bd969ba090de27d7ba78a25ff95526add1dc8855e23d34b7a9ad122c01210301c1ecdae222efe2015677b60ace4609483e31ec15a8085426e37b764eff1a91fdffffff0298fc01000000000017a91415c14cb5d5b9a6823cc57432640a07198411943d8726fa1600000000001976a914ea65e4c5bf7e0b853bf52c1507350a92d501f97388ac13490800", "vin": [{"sequence": 4294967293, "scriptSig": {"hex": "4830450221009b5a56f59046d4856e1b965f5a5ebaf8f61a06dd9b99c17c418c6c35b5460d7502204960f654bd969ba090de27d7ba78a25ff95526add1dc8855e23d34b7a9ad122c01210301c1ecdae222efe2015677b60ace4609483e31ec15a8085426e37b764eff1a91", "asm": "30450221009b5a56f59046d4856e1b965f5a5ebaf8f61a06dd9b99c17c418c6c35b5460d7502204960f654bd969ba090de27d7ba78a25ff95526add1dc8855e23d34b7a9ad122c[ALL] 0301c1ecdae222efe2015677b60ace4609483e31ec15a8085426e37b764eff1a91"}, "vout": 1, "txid": "e609db3340e793145ef5d06ef5ea281223575053120b09a743df17ba2da115b6"}], "txid": "9a0e365f443ae0b963e2bbfa01c59f3d7af56ab16dffe55a391ac8c5a140be62", "blocktime": 1537873282, "version": 1, "confirmations": 11480, "time": 1537873282, "locktime": 542995, "vsize": 224, "size": 224}