{"hash": "59e839f07037e82c8d38d2cf59c254e445c33b96094c1a8ad604bf4aac505371", "blockhash": "0000000000000000001cda96e906b7601b7a6fb1a3b62bca570a9e5d8f4b3de1", "vout": [{"scriptPubKey": {"reqSigs": 1, "hex": "a914279b443bc9489162c886572d38281dc13c8f1e8e87", "addresses": ["35JSH8gbj9sLSHo6YkHkzuJh2kuigKG8YW"], "asm": "OP_HASH160 279b443bc9489162c886572d38281dc13c8f1e8e OP_EQUAL", "type": "scripthash"}, "value": 1.00762893, "n": 0}, {"scriptPubKey": {"reqSigs": 1, "hex": "a91469f3765e66f0cade62af75349076c6bb6c08030787", "addresses": ["3BMEXkNJHjc3McCy2w5bAJx9kDiW33L4mV"], "asm": "OP_HASH160 69f3765e66f0cade62af75349076c6bb6c080307 OP_EQUAL", "type": "scripthash"}, "value": 0.03882692, "n": 1}], "hex": "01000000000101e80baa516149afe45ceb94773ead759af01abccd701b2fbefd1f6f44c730a96c0000000023220020d9cabb7ddc0b363f1df2e434700c51c105042e21142a0e5cb57e69e6e90c0001ffffffff020d8501060000000017a914279b443bc9489162c886572d38281dc13c8f1e8e87c43e3b000000000017a91469f3765e66f0cade62af75349076c6bb6c080307870400483045022100df3a7fc66b05ad45930bee204f1545157423b157dcfd44b008640a3cbe089d1d02204142af91a3e1a28c097a7f7dca0ef501a7d76294cbd164e5ee5fe863afc52c0a01483045022100cfd9390f6a6f4a6aa1fd19441dae8960825a6c803415c5646983481d8de8981d022010ae07cf6735485c17bcee0f8f4af1ca0f7eb59365bee596a787efd3698b8bde0169522102b9dafd82be6d0d81caab7c91ff77633ecd8a55c094cdcf07bbc493bdde3f5eb9210267af2e7311744d7eaf0940e55f42e500fd5c0bc5fee5ff64ef7d5eb63153793e2103ee961ebbd9ed2c911fce624e5f49e8c25e5f9d0817cfed5b112eefc26a23005553ae00000000", "vin": [{"txinwitness": ["", "3045022100df3a7fc66b05ad45930bee204f1545157423b157dcfd44b008640a3cbe089d1d02204142af91a3e1a28c097a7f7dca0ef501a7d76294cbd164e5ee5fe863afc52c0a01", "3045022100cfd9390f6a6f4a6aa1fd19441dae8960825a6c803415c5646983481d8de8981d022010ae07cf6735485c17bcee0f8f4af1ca0f7eb59365bee596a787efd3698b8bde01", "522102b9dafd82be6d0d81caab7c91ff77633ecd8a55c094cdcf07bbc493bdde3f5eb9210267af2e7311744d7eaf0940e55f42e500fd5c0bc5fee5ff64ef7d5eb63153793e2103ee961ebbd9ed2c911fce624e5f49e8c25e5f9d0817cfed5b112eefc26a23005553ae"], "sequence": 4294967295, "scriptSig": {"hex": "220020d9cabb7ddc0b363f1df2e434700c51c105042e21142a0e5cb57e69e6e90c0001", "asm": "0020d9cabb7ddc0b363f1df2e434700c51c105042e21142a0e5cb57e69e6e90c0001"}, "vout": 0, "txid": "6ca930c7446f1ffdbe2f1b70cdbc1af09a75ad3e7794eb5ce4af496151aa0be8"}], "txid": "9a0f23413c23715597849af17d00c48a86ed4157ef5b704877bb26f9c722522b", "blocktime": 1537873282, "version": 1, "confirmations": 11480, "time": 1537873282, "locktime": 0, "vsize": 214, "size": 406}