{"hash": "7813c312ed39084ec6d9f0ded8fa7671516961cea3a3b321cd1bfe1550ec9964", "blockhash": "0000000000000000000dcc0f55137456b1a82d3642486a52398922ac4d620174", "vout": [{"scriptPubKey": {"reqSigs": 1, "hex": "76a914ad3c3f606e1613052f47e62c9601724eb9bc258988ac", "addresses": ["1Gnz5G8b7nwAWw8KbsMT4A8KfsJLkeNeHz"], "asm": "OP_DUP OP_HASH160 ad3c3f606e1613052f47e62c9601724eb9bc2589 OP_EQUALVERIFY OP_CHECKSIG", "type": "pubkeyhash"}, "value": 0.00125158, "n": 0}, {"scriptPubKey": {"reqSigs": 1, "hex": "0014a113c496b1577423893f5192d9b3e5ce668dfad6", "addresses": ["bc1q5yfuf9432a6z8zfl2xfdnvl9eengm7kkc6kh2u"], "asm": "0 a113c496b1577423893f5192d9b3e5ce668dfad6", "type": "witness_v0_keyhash"}, "value": 1.609e-05, "n": 1}], "hex": "0100000000010160cc87b1b23bb84f34fc3e07dbed85755a250ce24caf2e0c18d8695eed68b3280000000000ffffffff02e6e80100000000001976a914ad3c3f606e1613052f47e62c9601724eb9bc258988ac4906000000000000160014a113c496b1577423893f5192d9b3e5ce668dfad6024730440220713a4886a54f9e56c87599e757cea1ee813732cfd62c6f323601b02ebb2d0480022002b65d2ecc1ac1aa4d24a5cedda4f23d7cbd87496ee9e22ec4ebbd8804dfdc2b01210302bf6fb22acc6acd040ce99a8f95a0fddb9058ba6124f8bb4bcd22f41937b3ad00000000", "vin": [{"txinwitness": ["30440220713a4886a54f9e56c87599e757cea1ee813732cfd62c6f323601b02ebb2d0480022002b65d2ecc1ac1aa4d24a5cedda4f23d7cbd87496ee9e22ec4ebbd8804dfdc2b01", "0302bf6fb22acc6acd040ce99a8f95a0fddb9058ba6124f8bb4bcd22f41937b3ad"], "sequence": 4294967295, "scriptSig": {"hex": "", "asm": ""}, "vout": 0, "txid": "28b368ed5e69d8180c2eaf4ce20c255a7585eddb073efc344fb83bb2b187cc60"}], "txid": "9a1a254b3bd16ab7240d1956bddff814f3d6897250b256159e8c9a132b8f54df", "blocktime": 1537870268, "version": 1, "confirmations": 11518, "time": 1537870268, "locktime": 0, "vsize": 144, "size": 225}