{"hash": "9a1bdb07c0b50616f4e383fa9694697f5f4c94ff12f7ac727a8d0ef752eff3f6", "blockhash": "00000000000000000017f5eb5941039fbcee6240d03bc1f2f8e35350df66a1d8", "vout": [{"scriptPubKey": {"reqSigs": 1, "hex": "76a9145f50c72c1167b2ac8985d2c2dc6268983ce1dbf588ac", "addresses": ["19gyxnB3fA12CPv3eJxPeky17P7uUUGacC"], "asm": "OP_DUP OP_HASH160 5f50c72c1167b2ac8985d2c2dc6268983ce1dbf5 OP_EQUALVERIFY OP_CHECKSIG", "type": "pubkeyhash"}, "value": 1.427e-05, "n": 0}, {"scriptPubKey": {"reqSigs": 1, "hex": "76a91447373951c8ffbfec53651902ca917bab8309c69388ac", "addresses": ["17VZ8eMip5AYwVkY2fapxrB1q8N1AWvokZ"], "asm": "OP_DUP OP_HASH160 47373951c8ffbfec53651902ca917bab8309c693 OP_EQUALVERIFY OP_CHECKSIG", "type": "pubkeyhash"}, "value": 0.0126, "n": 1}], "hex": "010000000270cc1b97af5a09a29a6ef560fd40c0803125e6e87a9c1db47c71c73c2f8d189c000000006b483045022100bab8dbcaab5fe7269b1a163c662ad6fb88801347aafc12933e03326d7ca26141022041aa2027dc4ab7afa7220da56fd4b18ec3758b32e2e983ae57fdfe838da1bc78012103636807576a6c196bc5e5fdd9e857521db2868e76d96e3afd399c7f2c8503ec12ffffffff5f261f6e1bd6712d4cbd72c6ba181e2f05324ad3dcacd40ec259656ec32151d5000000006a47304402207ec18797cf4a56def536206850b1de64ebf7a185348bcabd04dd086ff2e3c8c90220046e14168853a885004cfdb09b90a981fca64052a4c7378c00b02000453371dc012102c77eecc8eedb0c41d09e2ff66037540a13b128481a9b8b51858c550ebb8cbdbcffffffff0293050000000000001976a9145f50c72c1167b2ac8985d2c2dc6268983ce1dbf588ace0391300000000001976a91447373951c8ffbfec53651902ca917bab8309c69388ac00000000", "vin": [{"sequence": 4294967295, "scriptSig": {"hex": "483045022100bab8dbcaab5fe7269b1a163c662ad6fb88801347aafc12933e03326d7ca26141022041aa2027dc4ab7afa7220da56fd4b18ec3758b32e2e983ae57fdfe838da1bc78012103636807576a6c196bc5e5fdd9e857521db2868e76d96e3afd399c7f2c8503ec12", "asm": "3045022100bab8dbcaab5fe7269b1a163c662ad6fb88801347aafc12933e03326d7ca26141022041aa2027dc4ab7afa7220da56fd4b18ec3758b32e2e983ae57fdfe838da1bc78[ALL] 03636807576a6c196bc5e5fdd9e857521db2868e76d96e3afd399c7f2c8503ec12"}, "vout": 0, "txid": "9c188d2f3cc7717cb41d9c7ae8e6253180c040fd60f56e9aa2095aaf971bcc70"}, {"sequence": 4294967295, "scriptSig": {"hex": "47304402207ec18797cf4a56def536206850b1de64ebf7a185348bcabd04dd086ff2e3c8c90220046e14168853a885004cfdb09b90a981fca64052a4c7378c00b02000453371dc012102c77eecc8eedb0c41d09e2ff66037540a13b128481a9b8b51858c550ebb8cbdbc", "asm": "304402207ec18797cf4a56def536206850b1de64ebf7a185348bcabd04dd086ff2e3c8c90220046e14168853a885004cfdb09b90a981fca64052a4c7378c00b02000453371dc[ALL] 02c77eecc8eedb0c41d09e2ff66037540a13b128481a9b8b51858c550ebb8cbdbc"}, "vout": 0, "txid": "d55121c36e6559c20ed4acdcd34a32052f1e18bac672bd4c2d71d61b6e1f265f"}], "txid": "9a1bdb07c0b50616f4e383fa9694697f5f4c94ff12f7ac727a8d0ef752eff3f6", "blocktime": 1537874412, "version": 1, "confirmations": 11468, "time": 1537874412, "locktime": 0, "vsize": 373, "size": 373}