{"hash": "9a1e6982f13a9502187a0112c27f7f712f9d04fcd2f41b95c330f2e99ce8a335", "blockhash": "0000000000000000000e13cef7c366c0283d82e591d1acd082e914b08063cdf1", "vout": [{"scriptPubKey": {"reqSigs": 1, "hex": "76a9142c4b67ed677fc8e07055477b9fb8f925fac5d15488ac", "addresses": ["153D4jrk5i9jCfeQbfM7g3vS57yrmdFRzU"], "asm": "OP_DUP OP_HASH160 2c4b67ed677fc8e07055477b9fb8f925fac5d154 OP_EQUALVERIFY OP_CHECKSIG", "type": "pubkeyhash"}, "value": 0.00227711, "n": 0}, {"scriptPubKey": {"reqSigs": 1, "hex": "a914e581c3465004f3b93c8bd6f622d3b7d4c9abdbcb87", "addresses": ["3NcY7YqbXhQBsmmy5U3G8br2SWmqaoHe4Y"], "asm": "OP_HASH160 e581c3465004f3b93c8bd6f622d3b7d4c9abdbcb OP_EQUAL", "type": "scripthash"}, "value": 0.00273238, "n": 1}], "hex": "0100000001500ab249e1897aeca999575879f624c7cedaa343a85ce01285e410052e53a1b6000000006b483045022100e1394a7d5468f1389404d8dbcbadfa6888a04278f15dcaafe3fb0441ac27eaa002201f70a3f704c7ffde9de4431231adc28da34db7cfb9df23efa7e0d0ec84617070012102dcbe21561521c4e9e8657c94dc36275c1ee913caf921769dee55693b72d13c58ffffffff027f790300000000001976a9142c4b67ed677fc8e07055477b9fb8f925fac5d15488ac562b04000000000017a914e581c3465004f3b93c8bd6f622d3b7d4c9abdbcb8700000000", "vin": [{"sequence": 4294967295, "scriptSig": {"hex": "483045022100e1394a7d5468f1389404d8dbcbadfa6888a04278f15dcaafe3fb0441ac27eaa002201f70a3f704c7ffde9de4431231adc28da34db7cfb9df23efa7e0d0ec84617070012102dcbe21561521c4e9e8657c94dc36275c1ee913caf921769dee55693b72d13c58", "asm": "3045022100e1394a7d5468f1389404d8dbcbadfa6888a04278f15dcaafe3fb0441ac27eaa002201f70a3f704c7ffde9de4431231adc28da34db7cfb9df23efa7e0d0ec84617070[ALL] 02dcbe21561521c4e9e8657c94dc36275c1ee913caf921769dee55693b72d13c58"}, "vout": 0, "txid": "b6a1532e0510e48512e05ca843a3dacec724f679585799a9ec7a89e149b20a50"}], "txid": "9a1e6982f13a9502187a0112c27f7f712f9d04fcd2f41b95c330f2e99ce8a335", "blocktime": 1537871767, "version": 1, "confirmations": 11493, "time": 1537871767, "locktime": 0, "vsize": 224, "size": 224}