{"hash": "9a20b0d7b792c8dec2db08b01797e947a4b99686a4f3e50f2891643f28a5c1ca", "blockhash": "00000000000000000017f5eb5941039fbcee6240d03bc1f2f8e35350df66a1d8", "vout": [{"scriptPubKey": {"reqSigs": 1, "hex": "76a9146eab437886459e39925fee8c1e5ad629271f3fb788ac", "addresses": ["1B6AVhiPAojxZGZVcxfnZgtSx87xpvL17Y"], "asm": "OP_DUP OP_HASH160 6eab437886459e39925fee8c1e5ad629271f3fb7 OP_EQUALVERIFY OP_CHECKSIG", "type": "pubkeyhash"}, "value": 0.08160511, "n": 0}, {"scriptPubKey": {"reqSigs": 1, "hex": "76a9141e4fb0a1e39d49dcd3ed375f940cec6892010b3988ac", "addresses": ["13mGjiFBox1PxggErbu65akbwaKzpza7xx"], "asm": "OP_DUP OP_HASH160 1e4fb0a1e39d49dcd3ed375f940cec6892010b39 OP_EQUALVERIFY OP_CHECKSIG", "type": "pubkeyhash"}, "value": 0.27442935, "n": 1}], "hex": "010000000288fa2564a11e935b7b04b59db9ab801af016d17b99db09d14827f7eec9582b92000000006b483045022100e09f1c9b056a9b0adc1059de3f94739a747d769fbde0c6cf2b7ffc4eb3cffca30220490960059db51065815ac6564d05e85abe48fb787d0181dec45b50b9ccc85f11012102e71eefef620318eaaabc444fb7b40a72c714cdf7d89bd8507b4b5988b8e67989ffffffff38be63493dc536ab8fcbea61b715596fd588d1559ebe4af1ba3ae382b9e302de010000006b48304502210085dde35fe9373e4b963160f207e0bcccb6c411a36cc46dbddd6c687fd1508dab0220727625e3d635e57aed073d87b9667f65ceb9bac30ce8e8ec9bbfcbb663738b74012103e23e3b16874380e3747991f887a0fffbdb08d7b05b9b98e8afcd37dfd6a40d8fffffffff02ff847c00000000001976a9146eab437886459e39925fee8c1e5ad629271f3fb788acf7bea201000000001976a9141e4fb0a1e39d49dcd3ed375f940cec6892010b3988ac00000000", "vin": [{"sequence": 4294967295, "scriptSig": {"hex": "483045022100e09f1c9b056a9b0adc1059de3f94739a747d769fbde0c6cf2b7ffc4eb3cffca30220490960059db51065815ac6564d05e85abe48fb787d0181dec45b50b9ccc85f11012102e71eefef620318eaaabc444fb7b40a72c714cdf7d89bd8507b4b5988b8e67989", "asm": "3045022100e09f1c9b056a9b0adc1059de3f94739a747d769fbde0c6cf2b7ffc4eb3cffca30220490960059db51065815ac6564d05e85abe48fb787d0181dec45b50b9ccc85f11[ALL] 02e71eefef620318eaaabc444fb7b40a72c714cdf7d89bd8507b4b5988b8e67989"}, "vout": 0, "txid": "922b58c9eef72748d109db997bd116f01a80abb99db5047b5b931ea16425fa88"}, {"sequence": 4294967295, "scriptSig": {"hex": "48304502210085dde35fe9373e4b963160f207e0bcccb6c411a36cc46dbddd6c687fd1508dab0220727625e3d635e57aed073d87b9667f65ceb9bac30ce8e8ec9bbfcbb663738b74012103e23e3b16874380e3747991f887a0fffbdb08d7b05b9b98e8afcd37dfd6a40d8f", "asm": "304502210085dde35fe9373e4b963160f207e0bcccb6c411a36cc46dbddd6c687fd1508dab0220727625e3d635e57aed073d87b9667f65ceb9bac30ce8e8ec9bbfcbb663738b74[ALL] 03e23e3b16874380e3747991f887a0fffbdb08d7b05b9b98e8afcd37dfd6a40d8f"}, "vout": 1, "txid": "de02e3b982e33abaf14abe9e55d188d56f5915b761eacb8fab36c53d4963be38"}], "txid": "9a20b0d7b792c8dec2db08b01797e947a4b99686a4f3e50f2891643f28a5c1ca", "blocktime": 1537874412, "version": 1, "confirmations": 11468, "time": 1537874412, "locktime": 0, "vsize": 374, "size": 374}