{"hash": "9a22dbf69ad5aa5c92e552c705da0a874a0b2780294bdf293a19d02182440112", "blockhash": "00000000000000000004ffacab907a6b429b9a5745fa0b75af4234bf69dd7176", "vout": [{"scriptPubKey": {"reqSigs": 1, "hex": "76a91471d195e10dc7b62535f5ac4097ddc2a06e4237a788ac", "addresses": ["1BNpRvxPrjZatfXvGcW8BBiu7qTCWkFeY7"], "asm": "OP_DUP OP_HASH160 71d195e10dc7b62535f5ac4097ddc2a06e4237a7 OP_EQUALVERIFY OP_CHECKSIG", "type": "pubkeyhash"}, "value": 0.00983778, "n": 0}, {"scriptPubKey": {"reqSigs": 1, "hex": "a914c8218f021e6b4dec668083ac8c72628c30f78d5e87", "addresses": ["3KwDGbzJ4zw1jNEk2kZt3PPK7pwKeLnV3c"], "asm": "OP_HASH160 c8218f021e6b4dec668083ac8c72628c30f78d5e OP_EQUAL", "type": "scripthash"}, "value": 0.012, "n": 1}], "hex": "0100000001900001928e86358e509e4ce4f6f4cbdba21393bb01df40203009c8477e66a5be000000006b483045022100a484c3a8403d10d5206f1ad8fec3338575c869a8a09a9c3b699f5e4b9ebb775f02200a3aeeda7a8ed416676fa289570a7fac99322ad29458bab33894443f477e258f012103d313dc1792d478f70cd7d1e7041a358f84b132a24fadfdebf4213bf12c3a91bfffffffff02e2020f00000000001976a91471d195e10dc7b62535f5ac4097ddc2a06e4237a788ac804f12000000000017a914c8218f021e6b4dec668083ac8c72628c30f78d5e8700000000", "vin": [{"sequence": 4294967295, "scriptSig": {"hex": "483045022100a484c3a8403d10d5206f1ad8fec3338575c869a8a09a9c3b699f5e4b9ebb775f02200a3aeeda7a8ed416676fa289570a7fac99322ad29458bab33894443f477e258f012103d313dc1792d478f70cd7d1e7041a358f84b132a24fadfdebf4213bf12c3a91bf", "asm": "3045022100a484c3a8403d10d5206f1ad8fec3338575c869a8a09a9c3b699f5e4b9ebb775f02200a3aeeda7a8ed416676fa289570a7fac99322ad29458bab33894443f477e258f[ALL] 03d313dc1792d478f70cd7d1e7041a358f84b132a24fadfdebf4213bf12c3a91bf"}, "vout": 0, "txid": "bea5667e47c809302040df01bb9313a2dbcbf4f6e44c9e508e35868e92010090"}], "txid": "9a22dbf69ad5aa5c92e552c705da0a874a0b2780294bdf293a19d02182440112", "blocktime": 1537875543, "version": 1, "confirmations": 11464, "time": 1537875543, "locktime": 0, "vsize": 224, "size": 224}