{"hash": "9a27613cc3ba2d94f3f6319ee27f54127637ef91084989deac7d3cd9ffe3dfb0", "blockhash": "00000000000000000017f5eb5941039fbcee6240d03bc1f2f8e35350df66a1d8", "vout": [{"scriptPubKey": {"reqSigs": 1, "hex": "76a9140cded7afa99bf380cfb8962a7138bc20bf8a0e5588ac", "addresses": ["12B44fyZF8ZD7nfpCNQbbg66znq67L1qLZ"], "asm": "OP_DUP OP_HASH160 0cded7afa99bf380cfb8962a7138bc20bf8a0e55 OP_EQUALVERIFY OP_CHECKSIG", "type": "pubkeyhash"}, "value": 0.00811506, "n": 0}, {"scriptPubKey": {"reqSigs": 1, "hex": "76a91452b4efa03a5702993e4e3f0991b5e156ced4201788ac", "addresses": ["18YKAPR2w56CrkCaCL2uzCHiLSAexLfjHC"], "asm": "OP_DUP OP_HASH160 52b4efa03a5702993e4e3f0991b5e156ced42017 OP_EQUALVERIFY OP_CHECKSIG", "type": "pubkeyhash"}, "value": 0.0092081, "n": 1}], "hex": "0100000001ac6e349cea8735df4daa52363a5356314ddc479e740f762ba37d5a0c1518ce17010000006a47304402203f2d559dd6375a5ddaa5c9be9d7605fd1b6a784143484c436c9c89afc14d5f4c02206c5b46bdbac63aa90c4d146d9ff6d27644ea1315af5bb20edb94ffccdc99bd24012103b1bcfe5952441fe7b60b943e09cb1e01786f1622badcc173e4e7980ec7ea6fc2ffffffff02f2610c00000000001976a9140cded7afa99bf380cfb8962a7138bc20bf8a0e5588acea0c0e00000000001976a91452b4efa03a5702993e4e3f0991b5e156ced4201788ac00000000", "vin": [{"sequence": 4294967295, "scriptSig": {"hex": "47304402203f2d559dd6375a5ddaa5c9be9d7605fd1b6a784143484c436c9c89afc14d5f4c02206c5b46bdbac63aa90c4d146d9ff6d27644ea1315af5bb20edb94ffccdc99bd24012103b1bcfe5952441fe7b60b943e09cb1e01786f1622badcc173e4e7980ec7ea6fc2", "asm": "304402203f2d559dd6375a5ddaa5c9be9d7605fd1b6a784143484c436c9c89afc14d5f4c02206c5b46bdbac63aa90c4d146d9ff6d27644ea1315af5bb20edb94ffccdc99bd24[ALL] 03b1bcfe5952441fe7b60b943e09cb1e01786f1622badcc173e4e7980ec7ea6fc2"}, "vout": 1, "txid": "17ce18150c5a7da32b760f749e47dc4d3156533a3652aa4ddf3587ea9c346eac"}], "txid": "9a27613cc3ba2d94f3f6319ee27f54127637ef91084989deac7d3cd9ffe3dfb0", "blocktime": 1537874412, "version": 1, "confirmations": 11468, "time": 1537874412, "locktime": 0, "vsize": 225, "size": 225}