{"hash": "7fa411b7b2e6d3de3176583bbba37beb399b1d78b6c0e941a4b6f1c70070d7bd", "blockhash": "0000000000000000000baef3f32e3676a92c3b2e5da21b426e4f302fc371ce76", "vout": [{"scriptPubKey": {"reqSigs": 1, "hex": "a914b10f600f839a6be2fe26720421645ccfa9bc504887", "addresses": ["3HqDwneoAu1JhDG9zujcMB2Hm7B6j1LFhC"], "asm": "OP_HASH160 b10f600f839a6be2fe26720421645ccfa9bc5048 OP_EQUAL", "type": "scripthash"}, "value": 0.01193544, "n": 0}, {"scriptPubKey": {"reqSigs": 1, "hex": "76a914e85d7ffb62013cb95542ddb66f7a9f9f5746c46f88ac", "addresses": ["1NBdmzdei1g5cuzk7apWofoD8TURsC5uKa"], "asm": "OP_DUP OP_HASH160 e85d7ffb62013cb95542ddb66f7a9f9f5746c46f OP_EQUALVERIFY OP_CHECKSIG", "type": "pubkeyhash"}, "value": 0.007812, "n": 1}], "hex": "01000000000101a2ceb69f17abceaa6dffeb110dad4aa24c65273ad3ae0f3e4b802793d18260bf010000002322002029f87802a635e597fcd314747d4e2bc9480fbae1589ede18cff4ccd942ee4a0affffffff02483612000000000017a914b10f600f839a6be2fe26720421645ccfa9bc50488790eb0b00000000001976a914e85d7ffb62013cb95542ddb66f7a9f9f5746c46f88ac04004830450221009f4ea62f15de4ba5ea8e0138ab9c732ca7ad3c575a965164c074b8d373ef82be02207be2b45d3b65bc46f015a9a6536534c94521e2e19a4f535310f153bbe857cfc401483045022100d9da8b6740e8054c430f738377eabb35faf47fd03facdf9c6eba5e2be8d4cf6402206a9cb885774a11e332b46d68fd9cbc823a8b085e49226d9311b891714d73b5370169522103a80c299afe26b247c76bd55244c6b7ccc06d21bc2231bd9ddfd5ab6a3339c2ee2103bc755209bfb3074ff7f0d8a9ba838c0d6423436ae400ee0d279cbbf7b22ee5de2103f1a9e02c4ffbd55870bbab0a36f2358173639f1233c2f52ade3edcbbbd3cdfe553ae00000000", "vin": [{"txinwitness": ["", "30450221009f4ea62f15de4ba5ea8e0138ab9c732ca7ad3c575a965164c074b8d373ef82be02207be2b45d3b65bc46f015a9a6536534c94521e2e19a4f535310f153bbe857cfc401", "3045022100d9da8b6740e8054c430f738377eabb35faf47fd03facdf9c6eba5e2be8d4cf6402206a9cb885774a11e332b46d68fd9cbc823a8b085e49226d9311b891714d73b53701", "522103a80c299afe26b247c76bd55244c6b7ccc06d21bc2231bd9ddfd5ab6a3339c2ee2103bc755209bfb3074ff7f0d8a9ba838c0d6423436ae400ee0d279cbbf7b22ee5de2103f1a9e02c4ffbd55870bbab0a36f2358173639f1233c2f52ade3edcbbbd3cdfe553ae"], "sequence": 4294967295, "scriptSig": {"hex": "22002029f87802a635e597fcd314747d4e2bc9480fbae1589ede18cff4ccd942ee4a0a", "asm": "002029f87802a635e597fcd314747d4e2bc9480fbae1589ede18cff4ccd942ee4a0a"}, "vout": 1, "txid": "bf6082d19327804b3e0faed33a27654ca24aad0d11ebff6daaceab179fb6cea2"}], "txid": "9a28b21897f38d9d15f9887ac30725697780b840dc27576127a1c363cae25e0b", "blocktime": 1537876114, "version": 1, "confirmations": 11460, "time": 1537876114, "locktime": 0, "vsize": 216, "size": 408}