{"hash": "9a2c0bd1ea12d94ac89d10c821eb53070086289d7089b7b5c9c84467cf2462e6", "blockhash": "0000000000000000000dcc0f55137456b1a82d3642486a52398922ac4d620174", "vout": [{"scriptPubKey": {"reqSigs": 1, "hex": "76a914053ab1d35f5a5db24294c6d88a9857351e66ea1f88ac", "addresses": ["1Ueh8kb3jucnNn55FHFGyVjVJM3EnWsYP"], "asm": "OP_DUP OP_HASH160 053ab1d35f5a5db24294c6d88a9857351e66ea1f OP_EQUALVERIFY OP_CHECKSIG", "type": "pubkeyhash"}, "value": 0.03675004, "n": 0}, {"scriptPubKey": {"reqSigs": 1, "hex": "76a9147883fc880458207e847a04c32b653f96f3a0860b88ac", "addresses": ["1BzECbk2tV3yjYXYz5eXkWRNYt4ntidm5i"], "asm": "OP_DUP OP_HASH160 7883fc880458207e847a04c32b653f96f3a0860b OP_EQUALVERIFY OP_CHECKSIG", "type": "pubkeyhash"}, "value": 0.04064401, "n": 1}], "hex": "0100000001a8223dc5abefb2d59ee6444209421ce983f98f127ad8e35852292584f2c53cf4010000006a4730440220473988229563613636cb5b3693de69f35d0bee0a1a40d5b716066f015a3896a9022067998691bffa31a302664c7fdddbc60197eb8667aec3c164dcf999aaadb434940121036d859fe488f1c6b59965348f2532905a3e57604c7bb249fa8c84c7c75b581506ffffffff027c133800000000001976a914053ab1d35f5a5db24294c6d88a9857351e66ea1f88ac91043e00000000001976a9147883fc880458207e847a04c32b653f96f3a0860b88ac00000000", "vin": [{"sequence": 4294967295, "scriptSig": {"hex": "4730440220473988229563613636cb5b3693de69f35d0bee0a1a40d5b716066f015a3896a9022067998691bffa31a302664c7fdddbc60197eb8667aec3c164dcf999aaadb434940121036d859fe488f1c6b59965348f2532905a3e57604c7bb249fa8c84c7c75b581506", "asm": "30440220473988229563613636cb5b3693de69f35d0bee0a1a40d5b716066f015a3896a9022067998691bffa31a302664c7fdddbc60197eb8667aec3c164dcf999aaadb43494[ALL] 036d859fe488f1c6b59965348f2532905a3e57604c7bb249fa8c84c7c75b581506"}, "vout": 1, "txid": "f43cc5f28425295258e3d87a128ff983e91c42094244e69ed5b2efabc53d22a8"}], "txid": "9a2c0bd1ea12d94ac89d10c821eb53070086289d7089b7b5c9c84467cf2462e6", "blocktime": 1537870268, "version": 1, "confirmations": 11518, "time": 1537870268, "locktime": 0, "vsize": 225, "size": 225}