{"hash": "b4b9539bf1fe75c1e65df42f36afed44fe2c3285125b53c6615b1e030f234219", "blockhash": "0000000000000000001e0dab787dd257d1dbfcb92a98c2207d5e1078be1f4165", "vout": [{"scriptPubKey": {"reqSigs": 1, "hex": "a91430897cc6c9d69f6a2c2f1c651d51f22219f1a4f687", "addresses": ["367f4YWz1VCFaqBqwbTrzwi2b1h2U3w1AF"], "asm": "OP_HASH160 30897cc6c9d69f6a2c2f1c651d51f22219f1a4f6 OP_EQUAL", "type": "scripthash"}, "value": 0.00751559, "n": 0}, {"scriptPubKey": {"reqSigs": 1, "hex": "a91469f376ad46587c68611b9d3f7c7a6aa953265aee87", "addresses": ["3BMEXqDbhe7Gvse6YjhDHiiVaPDcpbexCq"], "asm": "OP_HASH160 69f376ad46587c68611b9d3f7c7a6aa953265aee OP_EQUAL", "type": "scripthash"}, "value": 0.00636161, "n": 1}], "hex": "010000000001013a863af40cb8d79f29bdbe86587b37eab874e422c8be2a5c9e6d41119fce9a4c0000000023220020bcf9f822194145acea0f3235f4107b5bf1a91b6b9f8489f63bf79ec29b360913ffffffff02c7770b000000000017a91430897cc6c9d69f6a2c2f1c651d51f22219f1a4f68701b509000000000017a91469f376ad46587c68611b9d3f7c7a6aa953265aee870400483045022100fde80d9d90ac3f965ddbd5cfe87d51e3e902de0d0d304bdf8006bbc0dba4150302202ccc595b92300e67a3e183d20a0a80ed22e084af400faa592677f14a7fef3b9801483045022100b2454e92060a1c8f2f659fe731e844c0caa2aed3c81f05b24a6081b4c7c65e7302207e168ce5fc0a0752525a103ac78179af47cf3c327bcab23ad4cac4d5f37f6ae901695221026c8f72b9e63db63907115e65d4da86eaae595b22fdc85ec75301bb4adbf203582103806535be3e3920e5eedee92de5714188fd6a784f2bf7b04f87de0b9c3ae1ecdb21024b23bfdce2afcae7e28c42f7f79aa100f22931712c52d7414a526ba494d44a2553ae00000000", "vin": [{"txinwitness": ["", "3045022100fde80d9d90ac3f965ddbd5cfe87d51e3e902de0d0d304bdf8006bbc0dba4150302202ccc595b92300e67a3e183d20a0a80ed22e084af400faa592677f14a7fef3b9801", "3045022100b2454e92060a1c8f2f659fe731e844c0caa2aed3c81f05b24a6081b4c7c65e7302207e168ce5fc0a0752525a103ac78179af47cf3c327bcab23ad4cac4d5f37f6ae901", "5221026c8f72b9e63db63907115e65d4da86eaae595b22fdc85ec75301bb4adbf203582103806535be3e3920e5eedee92de5714188fd6a784f2bf7b04f87de0b9c3ae1ecdb21024b23bfdce2afcae7e28c42f7f79aa100f22931712c52d7414a526ba494d44a2553ae"], "sequence": 4294967295, "scriptSig": {"hex": "220020bcf9f822194145acea0f3235f4107b5bf1a91b6b9f8489f63bf79ec29b360913", "asm": "0020bcf9f822194145acea0f3235f4107b5bf1a91b6b9f8489f63bf79ec29b360913"}, "vout": 0, "txid": "4c9ace9f11416d9e5c2abec822e474b8ea377b5886bebd299fd7b80cf43a863a"}], "txid": "9a3488efde22863f52463c4959959d24ce911117f87d62015af244a41a7676fa", "blocktime": 1537872475, "version": 1, "confirmations": 11486, "time": 1537872475, "locktime": 0, "vsize": 214, "size": 406}