{"hash": "9a363b913803860d085792fcda9a53880cd6e64270799af35e1db9680f09b619", "blockhash": "00000000000000000004ffacab907a6b429b9a5745fa0b75af4234bf69dd7176", "vout": [{"scriptPubKey": {"reqSigs": 1, "hex": "a914edc07b9b93d7041bf93cc2d6afe6ec05c7ce154987", "addresses": ["3PN8ex3q2gcSnfUY3oKnjDu5ZmGWoxzD5f"], "asm": "OP_HASH160 edc07b9b93d7041bf93cc2d6afe6ec05c7ce1549 OP_EQUAL", "type": "scripthash"}, "value": 0.01, "n": 0}, {"scriptPubKey": {"reqSigs": 1, "hex": "76a9141e32fde6aaa63b10b5ff396f7d8ff16fa429f7fb88ac", "addresses": ["13kgMjBpcGX276Q1eThmpVxdCW7imc8ukc"], "asm": "OP_DUP OP_HASH160 1e32fde6aaa63b10b5ff396f7d8ff16fa429f7fb OP_EQUALVERIFY OP_CHECKSIG", "type": "pubkeyhash"}, "value": 0.0100076, "n": 1}], "hex": "010000000238597fbefc1bc8628976b81dd1b13bf81bab096e8a42ce7ba5091fb1e7413770000000006b483045022100f325581020fbf0f089588d91a8c8bea109f8b6b95acd15756a3a322306653e8802207e7dbf570167b52cefd266c7091736960c46631464634b196ad05596cdd072180121039470d63786df6cf050914846ce20071a14919e33fbbb8effd89a02cc2ab79666feffffffea157298ffc39f7bd2935c8db47591f7454e02fa7c7557e5e3c87fee62a91f2b000000006b483045022100ddcde9cc170d1c7b7247caf4565dcc49be04803138bcfd9b70a12b73ce942edf022008ad8e30d7770a6a3c9ade90389110364bc8eb349dace03c9cb3ebd692e5eb6f01210380d47ede2781c14084eb1970a2c2250067f32822b2e258daa068231ab111cd10feffffff0240420f000000000017a914edc07b9b93d7041bf93cc2d6afe6ec05c7ce15498738450f00000000001976a9141e32fde6aaa63b10b5ff396f7d8ff16fa429f7fb88ac16490800", "vin": [{"sequence": 4294967294, "scriptSig": {"hex": "483045022100f325581020fbf0f089588d91a8c8bea109f8b6b95acd15756a3a322306653e8802207e7dbf570167b52cefd266c7091736960c46631464634b196ad05596cdd072180121039470d63786df6cf050914846ce20071a14919e33fbbb8effd89a02cc2ab79666", "asm": "3045022100f325581020fbf0f089588d91a8c8bea109f8b6b95acd15756a3a322306653e8802207e7dbf570167b52cefd266c7091736960c46631464634b196ad05596cdd07218[ALL] 039470d63786df6cf050914846ce20071a14919e33fbbb8effd89a02cc2ab79666"}, "vout": 0, "txid": "703741e7b11f09a57bce428a6e09ab1bf83bb1d11db8768962c81bfcbe7f5938"}, {"sequence": 4294967294, "scriptSig": {"hex": "483045022100ddcde9cc170d1c7b7247caf4565dcc49be04803138bcfd9b70a12b73ce942edf022008ad8e30d7770a6a3c9ade90389110364bc8eb349dace03c9cb3ebd692e5eb6f01210380d47ede2781c14084eb1970a2c2250067f32822b2e258daa068231ab111cd10", "asm": "3045022100ddcde9cc170d1c7b7247caf4565dcc49be04803138bcfd9b70a12b73ce942edf022008ad8e30d7770a6a3c9ade90389110364bc8eb349dace03c9cb3ebd692e5eb6f[ALL] 0380d47ede2781c14084eb1970a2c2250067f32822b2e258daa068231ab111cd10"}, "vout": 0, "txid": "2b1fa962ee7fc8e3e557757cfa024e45f79175b48d5c93d27b9fc3ff987215ea"}], "txid": "9a363b913803860d085792fcda9a53880cd6e64270799af35e1db9680f09b619", "blocktime": 1537875543, "version": 1, "confirmations": 11464, "time": 1537875543, "locktime": 542998, "vsize": 372, "size": 372}