{"hash": "9a38116382ee27b653bce1354915d29cf65d06c1e5460546ffa389928ffce059", "blockhash": "0000000000000000000baef3f32e3676a92c3b2e5da21b426e4f302fc371ce76", "vout": [{"scriptPubKey": {"reqSigs": 1, "hex": "76a9147fab0275ce8fafae5dccd277a7214694be02db3788ac", "addresses": ["1Ce3gKUMhHE3HGxyx6SWZMHi6XLsjogrGP"], "asm": "OP_DUP OP_HASH160 7fab0275ce8fafae5dccd277a7214694be02db37 OP_EQUALVERIFY OP_CHECKSIG", "type": "pubkeyhash"}, "value": 1.09823958, "n": 0}, {"scriptPubKey": {"reqSigs": 1, "hex": "a9149b1020a812176aad3849cdd96f19efe870ab4ddd87", "addresses": ["3Fpuyqh24PGu4fv6mG3bEYh86iTCUqHtwF"], "asm": "OP_HASH160 9b1020a812176aad3849cdd96f19efe870ab4ddd OP_EQUAL", "type": "scripthash"}, "value": 0.01514801, "n": 1}], "hex": "0200000001b42a38b393a61d56491309585bac60a292165bb852a180d7dd1eaf388d8bb5d9000000006a473044022006e995ee93c50650ab73cd00dcb60f4fec255bf82ce2eee2f376bb8b7f5a06210220309517beba2baefe09c609eba864982c522849cb7d932ec714bee5309bc342c5012103ccb5500483b9c7c52f142cffa6762990a474e261f707e95e88f6e30ce4efe28dffffffff02d6c78b06000000001976a9147fab0275ce8fafae5dccd277a7214694be02db3788ac311d17000000000017a9149b1020a812176aad3849cdd96f19efe870ab4ddd8700000000", "vin": [{"sequence": 4294967295, "scriptSig": {"hex": "473044022006e995ee93c50650ab73cd00dcb60f4fec255bf82ce2eee2f376bb8b7f5a06210220309517beba2baefe09c609eba864982c522849cb7d932ec714bee5309bc342c5012103ccb5500483b9c7c52f142cffa6762990a474e261f707e95e88f6e30ce4efe28d", "asm": "3044022006e995ee93c50650ab73cd00dcb60f4fec255bf82ce2eee2f376bb8b7f5a06210220309517beba2baefe09c609eba864982c522849cb7d932ec714bee5309bc342c5[ALL] 03ccb5500483b9c7c52f142cffa6762990a474e261f707e95e88f6e30ce4efe28d"}, "vout": 0, "txid": "d9b58b8d38af1eddd780a152b85b1692a260ac5b58091349561da693b3382ab4"}], "txid": "9a38116382ee27b653bce1354915d29cf65d06c1e5460546ffa389928ffce059", "blocktime": 1537876114, "version": 2, "confirmations": 11459, "time": 1537876114, "locktime": 0, "vsize": 223, "size": 223}