{"hash": "a5c850c8f460ac894e586b2fa279430f3b7dbf9d80ff1b62b02323f26cf88aff", "blockhash": "0000000000000000001e0dab787dd257d1dbfcb92a98c2207d5e1078be1f4165", "vout": [{"scriptPubKey": {"reqSigs": 1, "hex": "a914ca34ce78a31acefbfe4aa67a625e957a8c9c018f87", "addresses": ["3L8BgMZqfxZpL7UkwSmiHTYaFbJvCqmGaG"], "asm": "OP_HASH160 ca34ce78a31acefbfe4aa67a625e957a8c9c018f OP_EQUAL", "type": "scripthash"}, "value": 0.0052815, "n": 0}, {"scriptPubKey": {"reqSigs": 1, "hex": "a914dd3b8b3f35d934e59fbeba61ed84eb8d7de3cfa387", "addresses": ["3Mrnb86zuDLDjuGYX8QQdjrrypKpSqMjkF"], "asm": "OP_HASH160 dd3b8b3f35d934e59fbeba61ed84eb8d7de3cfa3 OP_EQUAL", "type": "scripthash"}, "value": 12.65198538, "n": 1}], "hex": "020000000001015756f5d91465d7786b3ed37f82ccbbf0e3f4e460862dcfac442dfa80af67653e01000000171600140de85c124e88bc3501d2e6e8d5b67233d2036cc0feffffff02160f08000000000017a914ca34ce78a31acefbfe4aa67a625e957a8c9c018f87ca65694b0000000017a914dd3b8b3f35d934e59fbeba61ed84eb8d7de3cfa3870247304402200ced358a1a2fde3054e87e5d7c3164338c7e9b123f295346035eb72b5f2064d802207e96bace155aa7d39ca6a5f92138a678e47406850a299c6609ea7bcc84ea888a01210262957bb753d9ef7d3f43413e9933800e303d59138fd7b9e0e204d636a4226f5312490800", "vin": [{"txinwitness": ["304402200ced358a1a2fde3054e87e5d7c3164338c7e9b123f295346035eb72b5f2064d802207e96bace155aa7d39ca6a5f92138a678e47406850a299c6609ea7bcc84ea888a01", "0262957bb753d9ef7d3f43413e9933800e303d59138fd7b9e0e204d636a4226f53"], "sequence": 4294967294, "scriptSig": {"hex": "1600140de85c124e88bc3501d2e6e8d5b67233d2036cc0", "asm": "00140de85c124e88bc3501d2e6e8d5b67233d2036cc0"}, "vout": 1, "txid": "3e6567af80fa2d44accf2d8660e4f4e3f0bbcc827fd33e6b78d76514d9f55657"}], "txid": "9a385ec8948f30e528572fca6a48927eb943b57e943408b6621305a792a72647", "blocktime": 1537872475, "version": 2, "confirmations": 11486, "time": 1537872475, "locktime": 542994, "vsize": 166, "size": 247}