{"hash": "9a4231f048fd85352b5d116a9e28634104bd0f019dff7494159ce0f058a6c8b6", "blockhash": "0000000000000000001f76057863aec43deb6fa401d9628bb513d65a8098bfab", "vout": [{"scriptPubKey": {"reqSigs": 1, "hex": "a914788972659cf19efd27938cc193fd5d66449a2e8a87", "addresses": ["3CgMfYD17SYP7ddhUDrbpMUEabymcaFjH5"], "asm": "OP_HASH160 788972659cf19efd27938cc193fd5d66449a2e8a OP_EQUAL", "type": "scripthash"}, "value": 0.07328194, "n": 0}, {"scriptPubKey": {"reqSigs": 1, "hex": "a914c5ee494aaefc877d377eac1d05a52345b860099f87", "addresses": ["3KjaVkpu5PfX9HFFL768x2QKH1uWyP4S59"], "asm": "OP_HASH160 c5ee494aaefc877d377eac1d05a52345b860099f OP_EQUAL", "type": "scripthash"}, "value": 0.07129715, "n": 1}], "hex": "0100000004ae361ed297d863ede3428bd52ebe607998fb5ddf007d92410b1209ac03faf92d02000000fdfd00004730440220051798e3b24088c83974ed12fb9cf02fa2ca88bc59a832ecf2827f76fbecc31602206cc36d3790f38164f4f0230a9d03a34e380af7f450c9466569fc18b59d49e10201483045022100ae0a315c52f57ebb4b1dc3bc8fd326577794cb88374cd47271c1bd295187e83702207e12ce4a6ed893b532493a24e8b7d80b96b247f4b0921424d99d4748afa5d152014c69522103ce5e6365fa3f229b58369cafcd3068b469b51a2ee59da06f9be85b7e4d4d06622103cb400a211ff53a94e11ee470836a1f81523e52504aba1ef8e126b8027e98097121029864d72be01a72148725f86c11171abdff79028caf67a0d05f1e134031c5410053aeffffffffddcb1d47d13814aaf49cc70e489f0d1a61939bb261de8402118bbd9643cdae6e01000000fc004730440220208ab89aaa98bf2a3dc3822e6d9c759db803d9c8c73dc3a69fe7cb50285aa1cd02202d55e04d4e060d631a09280ab3a5ad5837638f25e38bc2c3b019fb8c98b0d4e80147304402200eebcc5c75059e33d0db79162da5d37a1a33ae89a586efd1fbf700aa3cf001af02201b8d4e765913268e6778d6f1feb51ee4a215465658e91068c65b76d71d191c95014c69522102e34a8a50d635ba79212e0f4b1b72528717a9d0d962cc5fba2b34eefcdd425556210251cd9d4c617cba126d7ebfa0e115798ac58cd0a6acdd19e2b264b17c0404faef2102139a7f36c6c43f7f02a6b0df3a7f32269d2184a1db03efc9643bfb853df48a9d53aeffffffff567a52cffedf26d6650d4c671338cd4bd15cd5482ed31695dd9774194cec6a2b00000000fdfd00004730440220693caf9b1990abd5e89ee056c6e57994f2127024b1ee74c12f8996474993a6ed0220543e77ae7822a0e2576f6ef74fd98c8af656a879e9a283da877e9b18748249a201483045022100afeb067a07c95a6c3b757bdfab4493961e32feff1ad3ae4702c6e573a584015e022068bdff7392df8c15997d8f00877088ca1fa9ade4908bca02af34b06ce56169ea014c69522102919aefd40c1e3c66750a3ad3f399d9f2acd48e9c44f0955fa67fc0687417042e2103c27ca6b2ce14dd3c8046b613ce94f5a46dcf91d027fc4d6fa3b67636249399e32103e6dc9dec0b3c3eed196840842ad354451471996433712635dc1755cba68760d453aeffffffff0c66dcfb37191d3608a98c14f544d33251c359ef5300337fec7d1cee68d1626000000000fdfd000047304402202b57cf83885331b607bcb16a134e23380697ad5a2a193b141795aa9b79899e310220532d777df9d6063032a920df8496e482224a1e35b84f7a86d219676810ffa24201483045022100ec638f7c245336f0cd31f7ae0a86194a46891d871351b71bd3ef07b4bbadf0130220498099465227c27c0053f8a6e730b04df86e06ffc064a334822fcf31bad071d7014c69522103ba5a802692af9c24f9dbceec01b0855fc00e92d5411ed9b23b61f0799e9b895b210275ffde10f040c4e0be614c163266069629ce8699e0a1334023ff56e60c2b5329210254150f6e29f2bc52dbd3cfea2b54ebf00cedf0256daedafdafd9c2c116bd26ff53aeffffffff02c2d16f000000000017a914788972659cf19efd27938cc193fd5d66449a2e8a8773ca6c000000000017a914c5ee494aaefc877d377eac1d05a52345b860099f8700000000", "vin": [{"sequence": 4294967295, "scriptSig": {"hex": "004730440220051798e3b24088c83974ed12fb9cf02fa2ca88bc59a832ecf2827f76fbecc31602206cc36d3790f38164f4f0230a9d03a34e380af7f450c9466569fc18b59d49e10201483045022100ae0a315c52f57ebb4b1dc3bc8fd326577794cb88374cd47271c1bd295187e83702207e12ce4a6ed893b532493a24e8b7d80b96b247f4b0921424d99d4748afa5d152014c69522103ce5e6365fa3f229b58369cafcd3068b469b51a2ee59da06f9be85b7e4d4d06622103cb400a211ff53a94e11ee470836a1f81523e52504aba1ef8e126b8027e98097121029864d72be01a72148725f86c11171abdff79028caf67a0d05f1e134031c5410053ae", "asm": "0 30440220051798e3b24088c83974ed12fb9cf02fa2ca88bc59a832ecf2827f76fbecc31602206cc36d3790f38164f4f0230a9d03a34e380af7f450c9466569fc18b59d49e102[ALL] 3045022100ae0a315c52f57ebb4b1dc3bc8fd326577794cb88374cd47271c1bd295187e83702207e12ce4a6ed893b532493a24e8b7d80b96b247f4b0921424d99d4748afa5d152[ALL] 522103ce5e6365fa3f229b58369cafcd3068b469b51a2ee59da06f9be85b7e4d4d06622103cb400a211ff53a94e11ee470836a1f81523e52504aba1ef8e126b8027e98097121029864d72be01a72148725f86c11171abdff79028caf67a0d05f1e134031c5410053ae"}, "vout": 2, "txid": "2df9fa03ac09120b41927d00df5dfb987960be2ed58b42e3ed63d897d21e36ae"}, {"sequence": 4294967295, "scriptSig": {"hex": "004730440220208ab89aaa98bf2a3dc3822e6d9c759db803d9c8c73dc3a69fe7cb50285aa1cd02202d55e04d4e060d631a09280ab3a5ad5837638f25e38bc2c3b019fb8c98b0d4e80147304402200eebcc5c75059e33d0db79162da5d37a1a33ae89a586efd1fbf700aa3cf001af02201b8d4e765913268e6778d6f1feb51ee4a215465658e91068c65b76d71d191c95014c69522102e34a8a50d635ba79212e0f4b1b72528717a9d0d962cc5fba2b34eefcdd425556210251cd9d4c617cba126d7ebfa0e115798ac58cd0a6acdd19e2b264b17c0404faef2102139a7f36c6c43f7f02a6b0df3a7f32269d2184a1db03efc9643bfb853df48a9d53ae", "asm": "0 30440220208ab89aaa98bf2a3dc3822e6d9c759db803d9c8c73dc3a69fe7cb50285aa1cd02202d55e04d4e060d631a09280ab3a5ad5837638f25e38bc2c3b019fb8c98b0d4e8[ALL] 304402200eebcc5c75059e33d0db79162da5d37a1a33ae89a586efd1fbf700aa3cf001af02201b8d4e765913268e6778d6f1feb51ee4a215465658e91068c65b76d71d191c95[ALL] 522102e34a8a50d635ba79212e0f4b1b72528717a9d0d962cc5fba2b34eefcdd425556210251cd9d4c617cba126d7ebfa0e115798ac58cd0a6acdd19e2b264b17c0404faef2102139a7f36c6c43f7f02a6b0df3a7f32269d2184a1db03efc9643bfb853df48a9d53ae"}, "vout": 1, "txid": "6eaecd4396bd8b110284de61b29b93611a0d9f480ec79cf4aa1438d1471dcbdd"}, {"sequence": 4294967295, "scriptSig": {"hex": "004730440220693caf9b1990abd5e89ee056c6e57994f2127024b1ee74c12f8996474993a6ed0220543e77ae7822a0e2576f6ef74fd98c8af656a879e9a283da877e9b18748249a201483045022100afeb067a07c95a6c3b757bdfab4493961e32feff1ad3ae4702c6e573a584015e022068bdff7392df8c15997d8f00877088ca1fa9ade4908bca02af34b06ce56169ea014c69522102919aefd40c1e3c66750a3ad3f399d9f2acd48e9c44f0955fa67fc0687417042e2103c27ca6b2ce14dd3c8046b613ce94f5a46dcf91d027fc4d6fa3b67636249399e32103e6dc9dec0b3c3eed196840842ad354451471996433712635dc1755cba68760d453ae", "asm": "0 30440220693caf9b1990abd5e89ee056c6e57994f2127024b1ee74c12f8996474993a6ed0220543e77ae7822a0e2576f6ef74fd98c8af656a879e9a283da877e9b18748249a2[ALL] 3045022100afeb067a07c95a6c3b757bdfab4493961e32feff1ad3ae4702c6e573a584015e022068bdff7392df8c15997d8f00877088ca1fa9ade4908bca02af34b06ce56169ea[ALL] 522102919aefd40c1e3c66750a3ad3f399d9f2acd48e9c44f0955fa67fc0687417042e2103c27ca6b2ce14dd3c8046b613ce94f5a46dcf91d027fc4d6fa3b67636249399e32103e6dc9dec0b3c3eed196840842ad354451471996433712635dc1755cba68760d453ae"}, "vout": 0, "txid": "2b6aec4c197497dd9516d32e48d55cd14bcd3813674c0d65d626dffecf527a56"}, {"sequence": 4294967295, "scriptSig": {"hex": "0047304402202b57cf83885331b607bcb16a134e23380697ad5a2a193b141795aa9b79899e310220532d777df9d6063032a920df8496e482224a1e35b84f7a86d219676810ffa24201483045022100ec638f7c245336f0cd31f7ae0a86194a46891d871351b71bd3ef07b4bbadf0130220498099465227c27c0053f8a6e730b04df86e06ffc064a334822fcf31bad071d7014c69522103ba5a802692af9c24f9dbceec01b0855fc00e92d5411ed9b23b61f0799e9b895b210275ffde10f040c4e0be614c163266069629ce8699e0a1334023ff56e60c2b5329210254150f6e29f2bc52dbd3cfea2b54ebf00cedf0256daedafdafd9c2c116bd26ff53ae", "asm": "0 304402202b57cf83885331b607bcb16a134e23380697ad5a2a193b141795aa9b79899e310220532d777df9d6063032a920df8496e482224a1e35b84f7a86d219676810ffa242[ALL] 3045022100ec638f7c245336f0cd31f7ae0a86194a46891d871351b71bd3ef07b4bbadf0130220498099465227c27c0053f8a6e730b04df86e06ffc064a334822fcf31bad071d7[ALL] 522103ba5a802692af9c24f9dbceec01b0855fc00e92d5411ed9b23b61f0799e9b895b210275ffde10f040c4e0be614c163266069629ce8699e0a1334023ff56e60c2b5329210254150f6e29f2bc52dbd3cfea2b54ebf00cedf0256daedafdafd9c2c116bd26ff53ae"}, "vout": 0, "txid": "6062d168ee1c7dec7f330053ef59c35132d344f5148ca908361d1937fbdc660c"}], "txid": "9a4231f048fd85352b5d116a9e28634104bd0f019dff7494159ce0f058a6c8b6", "blocktime": 1537873891, "version": 1, "confirmations": 11477, "time": 1537873891, "locktime": 0, "vsize": 1255, "size": 1255}