{"hash": "9a4ab79dd56f567a93d507e0827be2e44bd5606e43006a6eb70f4868dd96c43d", "blockhash": "00000000000000000017f5eb5941039fbcee6240d03bc1f2f8e35350df66a1d8", "vout": [{"scriptPubKey": {"reqSigs": 1, "hex": "76a91456772d3bc51ea34ad1838ced6f428432fddacdf488ac", "addresses": ["18tBt3Gydby3BpR32uXMo9TX5LWBHeeijF"], "asm": "OP_DUP OP_HASH160 56772d3bc51ea34ad1838ced6f428432fddacdf4 OP_EQUALVERIFY OP_CHECKSIG", "type": "pubkeyhash"}, "value": 0.01634729, "n": 0}, {"scriptPubKey": {"reqSigs": 1, "hex": "a914f4d157be2fabc7f290826863c372fab3e29bd42387", "addresses": ["3Q1VajqRci2eitnkGyLKGzYYtKZaNJTM3t"], "asm": "OP_HASH160 f4d157be2fabc7f290826863c372fab3e29bd423 OP_EQUAL", "type": "scripthash"}, "value": 0.0283, "n": 1}], "hex": "0100000001517cad357c399991a6e1d2710aa59d6a8276d8896affcd2959c689b3ccea7b1b010000006b483045022100bfefcb66eb43d6d7465c0c3ec4a5d89be04b13f83f57f7e3e9728725e92403fc022024266dc56fcd67ecdeb3300e587ed2cbb7eea251fc29d7036d3848c9c1fde974012103df9773f33e952e68af48c18c182ee3e9738ff5e90b66764fb8de1ecb3ac1c0c9ffffffff02a9f11800000000001976a91456772d3bc51ea34ad1838ced6f428432fddacdf488acb02e2b000000000017a914f4d157be2fabc7f290826863c372fab3e29bd4238700000000", "vin": [{"sequence": 4294967295, "scriptSig": {"hex": "483045022100bfefcb66eb43d6d7465c0c3ec4a5d89be04b13f83f57f7e3e9728725e92403fc022024266dc56fcd67ecdeb3300e587ed2cbb7eea251fc29d7036d3848c9c1fde974012103df9773f33e952e68af48c18c182ee3e9738ff5e90b66764fb8de1ecb3ac1c0c9", "asm": "3045022100bfefcb66eb43d6d7465c0c3ec4a5d89be04b13f83f57f7e3e9728725e92403fc022024266dc56fcd67ecdeb3300e587ed2cbb7eea251fc29d7036d3848c9c1fde974[ALL] 03df9773f33e952e68af48c18c182ee3e9738ff5e90b66764fb8de1ecb3ac1c0c9"}, "vout": 1, "txid": "1b7beaccb389c65929cdff6a89d876826a9da50a71d2e1a69199397c35ad7c51"}], "txid": "9a4ab79dd56f567a93d507e0827be2e44bd5606e43006a6eb70f4868dd96c43d", "blocktime": 1537874412, "version": 1, "confirmations": 11468, "time": 1537874412, "locktime": 0, "vsize": 224, "size": 224}