{"hash": "4427dc12c9940ca5f9711bb995254c5946ab372faaeee08df430bcb8f04dd846", "blockhash": "000000000000000000022b45ed06c6f4ccd3cf7fb5ba4856ebd2e58215665228", "vout": [{"scriptPubKey": {"reqSigs": 1, "hex": "a9141060b069de0deab71715b1c19b2079b8e3221ff287", "addresses": ["33BcZh1HCuPtcfTnLgQ8VLbXjdE8jjmaQ9"], "asm": "OP_HASH160 1060b069de0deab71715b1c19b2079b8e3221ff2 OP_EQUAL", "type": "scripthash"}, "value": 0.01003944, "n": 0}, {"scriptPubKey": {"reqSigs": 1, "hex": "76a914db687c735f5afe789abe3185d785aafe7a2ef5f988ac", "addresses": ["1M189qRMYGETZW4koz32xYHGRNrLLdtCT9"], "asm": "OP_DUP OP_HASH160 db687c735f5afe789abe3185d785aafe7a2ef5f9 OP_EQUALVERIFY OP_CHECKSIG", "type": "pubkeyhash"}, "value": 0.0027296, "n": 1}], "hex": "02000000000102599023b1284ae198f6edc3834602cc8b93f5d364ce116c5d4bd553045fec5d2500000000171600144aa9ab5c2463203d2ce0df213a04dee6412ab9edfeffffffe735fd948e6e1164ec757e86aaea27472ef5cf1b44ba849cb15e68dcef660b79000000001716001468bf980faf972cc209ddad019aaa88b3aacb616bfeffffff02a8510f000000000017a9141060b069de0deab71715b1c19b2079b8e3221ff287402a0400000000001976a914db687c735f5afe789abe3185d785aafe7a2ef5f988ac02473044022031c59115de93157d8d3d477c2a06ac014b731b142887aaa52092e26672740d5302203d27980dbae70259e6d9d29bce25b16ef5aecc2480c506c08d8899c04b9c56c90121032e2ed4f7797acd7a1896f28aa4de147a117cafc0f795143c25cd0f7c40724912024830450221008366dc14b1eb907b5b4aefa0b8d29e2d0d5728eaa6553625eefed7963efb308502205d1ea09eda2e56fb7fbf7e3a28d55b25d27b089528b67b40c9959b8445dd6f6b0121025c5f4b28da29aaea32059a7c356202a810808ee983cfa8d7382ec616931ad8950b490800", "vin": [{"txinwitness": ["3044022031c59115de93157d8d3d477c2a06ac014b731b142887aaa52092e26672740d5302203d27980dbae70259e6d9d29bce25b16ef5aecc2480c506c08d8899c04b9c56c901", "032e2ed4f7797acd7a1896f28aa4de147a117cafc0f795143c25cd0f7c40724912"], "sequence": 4294967294, "scriptSig": {"hex": "1600144aa9ab5c2463203d2ce0df213a04dee6412ab9ed", "asm": "00144aa9ab5c2463203d2ce0df213a04dee6412ab9ed"}, "vout": 0, "txid": "255dec5f0453d54b5d6c11ce64d3f5938bcc024683c3edf698e14a28b1239059"}, {"txinwitness": ["30450221008366dc14b1eb907b5b4aefa0b8d29e2d0d5728eaa6553625eefed7963efb308502205d1ea09eda2e56fb7fbf7e3a28d55b25d27b089528b67b40c9959b8445dd6f6b01", "025c5f4b28da29aaea32059a7c356202a810808ee983cfa8d7382ec616931ad895"], "sequence": 4294967294, "scriptSig": {"hex": "16001468bf980faf972cc209ddad019aaa88b3aacb616b", "asm": "001468bf980faf972cc209ddad019aaa88b3aacb616b"}, "vout": 0, "txid": "790b66efdc685eb19c84ba441bcff52e4727eaaa867e75ec64116e8e94fd35e7"}], "txid": "9a4d87855a09b0daa1fc31b304851e3e5be20f788ba87c46888d6520feb61060", "blocktime": 1537869901, "version": 2, "confirmations": 11524, "time": 1537869901, "locktime": 542987, "vsize": 259, "size": 421}