{"hash": "9a4e5bec33fd12f3d2c634615b79f9469eeef9f05a055d8dc69bc5d56567e707", "blockhash": "0000000000000000001cda96e906b7601b7a6fb1a3b62bca570a9e5d8f4b3de1", "vout": [{"scriptPubKey": {"reqSigs": 1, "hex": "76a914621d8620bdaa28c1d21bacd672338f3bd01406ed88ac", "addresses": ["19wnbACAozinLq7GHt1v8JEN7HdYqtvCGW"], "asm": "OP_DUP OP_HASH160 621d8620bdaa28c1d21bacd672338f3bd01406ed OP_EQUALVERIFY OP_CHECKSIG", "type": "pubkeyhash"}, "value": 0.04960572, "n": 0}, {"scriptPubKey": {"reqSigs": 1, "hex": "a914be5235a65ca997eefb1dc646cf4d7846bafe44b587", "addresses": ["3K3Lo1gZaTchmd6wAmrGoMjkvHuKjGdhyr"], "asm": "OP_HASH160 be5235a65ca997eefb1dc646cf4d7846bafe44b5 OP_EQUAL", "type": "scripthash"}, "value": 0.092, "n": 1}], "hex": "0100000001fccde014ef2833f072314aad678768a029c54d5c830f2becd2e6ac0ab0d2314c010000006a47304402200c69adc326c643db3508fc3e4c3125a234041228065fbaeb2fe6b79de1706376022004cfd0bbcd224906faaccbf8346e49f6186064b79ede72aaff8376fc4be5a027012102ef967a865cfde1efefededaeb5a8c848e5bc2c05fd7e85154ad43220d0b93dfcfdffffff023cb14b00000000001976a914621d8620bdaa28c1d21bacd672338f3bd01406ed88ac80618c000000000017a914be5235a65ca997eefb1dc646cf4d7846bafe44b58713490800", "vin": [{"sequence": 4294967293, "scriptSig": {"hex": "47304402200c69adc326c643db3508fc3e4c3125a234041228065fbaeb2fe6b79de1706376022004cfd0bbcd224906faaccbf8346e49f6186064b79ede72aaff8376fc4be5a027012102ef967a865cfde1efefededaeb5a8c848e5bc2c05fd7e85154ad43220d0b93dfc", "asm": "304402200c69adc326c643db3508fc3e4c3125a234041228065fbaeb2fe6b79de1706376022004cfd0bbcd224906faaccbf8346e49f6186064b79ede72aaff8376fc4be5a027[ALL] 02ef967a865cfde1efefededaeb5a8c848e5bc2c05fd7e85154ad43220d0b93dfc"}, "vout": 1, "txid": "4c31d2b00aace6d2ec2b0f835c4dc529a0688767ad4a3172f03328ef14e0cdfc"}], "txid": "9a4e5bec33fd12f3d2c634615b79f9469eeef9f05a055d8dc69bc5d56567e707", "blocktime": 1537873282, "version": 1, "confirmations": 11485, "time": 1537873282, "locktime": 542995, "vsize": 223, "size": 223}