{"hash": "9a541a8f2808406978ef605f158cf64cc822bb0b7fc7ad7af814ffb5e90fe273", "blockhash": "0000000000000000001f0ddff1eddb255c1121bcd4da4f1bc9a0da00cae72433", "vout": [{"scriptPubKey": {"reqSigs": 1, "hex": "a91497bff0f4784fe852d9bc8f46a1891049713d358a87", "addresses": ["3FXPtpYrZYaMP46LQVhqifsNuPp7M4UxbY"], "asm": "OP_HASH160 97bff0f4784fe852d9bc8f46a1891049713d358a OP_EQUAL", "type": "scripthash"}, "value": 0.01578573, "n": 0}, {"scriptPubKey": {"reqSigs": 1, "hex": "76a914b5d51012be13fc26df67b4882bde6f50e749f53088ac", "addresses": ["1HaSYapuPsnkGhQHjmq9EEKQnpaDDpeicW"], "asm": "OP_DUP OP_HASH160 b5d51012be13fc26df67b4882bde6f50e749f530 OP_EQUALVERIFY OP_CHECKSIG", "type": "pubkeyhash"}, "value": 2.36620869, "n": 1}], "hex": "01000000019593b2b07dc08b46e73d17f13c591e43605a1502dca5a16b555a3cfcc7b3bed8010000006b483045022100ff04625dc67a2e3eee824fab2da1af8c638edb78fbd345b3e16da8fed111b56d022060071cec2e6836072c04b9874fbdbe66298a95edcfcd4f53bfba0ee95962a67501210249ae89d4b6267ba5930bf1ca1c7ce21563b46053f1b83e72ccaf34610a97ba38ffffffff024d1618000000000017a91497bff0f4784fe852d9bc8f46a1891049713d358a87458c1a0e000000001976a914b5d51012be13fc26df67b4882bde6f50e749f53088ac00000000", "vin": [{"sequence": 4294967295, "scriptSig": {"hex": "483045022100ff04625dc67a2e3eee824fab2da1af8c638edb78fbd345b3e16da8fed111b56d022060071cec2e6836072c04b9874fbdbe66298a95edcfcd4f53bfba0ee95962a67501210249ae89d4b6267ba5930bf1ca1c7ce21563b46053f1b83e72ccaf34610a97ba38", "asm": "3045022100ff04625dc67a2e3eee824fab2da1af8c638edb78fbd345b3e16da8fed111b56d022060071cec2e6836072c04b9874fbdbe66298a95edcfcd4f53bfba0ee95962a675[ALL] 0249ae89d4b6267ba5930bf1ca1c7ce21563b46053f1b83e72ccaf34610a97ba38"}, "vout": 1, "txid": "d8beb3c7fc3c5a556ba1a5dc02155a60431e593cf1173de7468bc07db0b29395"}], "txid": "9a541a8f2808406978ef605f158cf64cc822bb0b7fc7ad7af814ffb5e90fe273", "blocktime": 1537872018, "version": 1, "confirmations": 11489, "time": 1537872018, "locktime": 0, "vsize": 224, "size": 224}