{"hash": "d7341215b16e45891a23a26fbf92dddd5510863f4786fc1cee448b7fb261e5f4", "blockhash": "00000000000000000004ffacab907a6b429b9a5745fa0b75af4234bf69dd7176", "vout": [{"scriptPubKey": {"reqSigs": 1, "hex": "76a91416f6071e4362791009e0c62cd87f087569e00d6188ac", "addresses": ["136QbXrFLpiutEqtBR255EU2NwuG3hjgdr"], "asm": "OP_DUP OP_HASH160 16f6071e4362791009e0c62cd87f087569e00d61 OP_EQUALVERIFY OP_CHECKSIG", "type": "pubkeyhash"}, "value": 0.0169696, "n": 0}, {"scriptPubKey": {"reqSigs": 1, "hex": "a914194a11af11c75e17cda9a51ba5c8ad27041f498287", "addresses": ["33zjYkQj1pATwVanhbsoL7nbnh6Wu1PAKs"], "asm": "OP_HASH160 194a11af11c75e17cda9a51ba5c8ad27041f4982 OP_EQUAL", "type": "scripthash"}, "value": 0.00998472, "n": 1}], "hex": "020000000001010b057aa48c997af8613b5f0209026063f9492d699f40145fc5472759a8d4d75d020000001716001482f4908e497f368f07c99563e03f7961f30e0744feffffff02c0e41900000000001976a91416f6071e4362791009e0c62cd87f087569e00d6188ac483c0f000000000017a914194a11af11c75e17cda9a51ba5c8ad27041f49828702483045022100ae6a126fa5d8de27e2c6fcdd9cb248608406d85073263f60812dafdd283ee5e20220230247c8707180637ee6e503b9c5a2aada0c2dc769a50e8a62c7725af80d659b012102be7f6403a21476e966fd2bae353c15b307946d494254123bee7f726cce38a02716490800", "vin": [{"txinwitness": ["3045022100ae6a126fa5d8de27e2c6fcdd9cb248608406d85073263f60812dafdd283ee5e20220230247c8707180637ee6e503b9c5a2aada0c2dc769a50e8a62c7725af80d659b01", "02be7f6403a21476e966fd2bae353c15b307946d494254123bee7f726cce38a027"], "sequence": 4294967294, "scriptSig": {"hex": "16001482f4908e497f368f07c99563e03f7961f30e0744", "asm": "001482f4908e497f368f07c99563e03f7961f30e0744"}, "vout": 2, "txid": "5dd7d4a8592747c55f14409f692d49f963600209025f3b61f87a998ca47a050b"}], "txid": "9a57c281d5d66379aa4d54b6a753283c29105cababd22ec2c1fbf3aa8d48b8a8", "blocktime": 1537875543, "version": 2, "confirmations": 11464, "time": 1537875543, "locktime": 542998, "vsize": 168, "size": 250}