{"hash": "d54cb9b3b03eebadcd8f25a68deff20f72a484aeae0b90dd4beacd7abe2f5591", "blockhash": "000000000000000000022b45ed06c6f4ccd3cf7fb5ba4856ebd2e58215665228", "vout": [{"scriptPubKey": {"reqSigs": 1, "hex": "76a91445c30f7293864a8b149b1093e230e6e13e96909288ac", "addresses": ["17MsJGTPVAGwYRP6mhugVZ5a3JZeYriesC"], "asm": "OP_DUP OP_HASH160 45c30f7293864a8b149b1093e230e6e13e969092 OP_EQUALVERIFY OP_CHECKSIG", "type": "pubkeyhash"}, "value": 0.0041426, "n": 0}, {"scriptPubKey": {"reqSigs": 1, "hex": "a914534ffaedb228ee76d6bc3503324e6a7b62260bae87", "addresses": ["39HXpaynyGST7Bu8k7M1qFeVFDWkMr1R4s"], "asm": "OP_HASH160 534ffaedb228ee76d6bc3503324e6a7b62260bae OP_EQUAL", "type": "scripthash"}, "value": 0.00999858, "n": 1}], "hex": "02000000000102305ee7ef07e6d1de43e93f356f4ada5879bd9df329533ac27c5918860d13de991400000017160014460083fcc25eda4ba022951c4611d94be1326633fefffffff6ca1c99add4e1d0e4e1eb39f9d688f25f5b41c6a87e242001814cdb5862d9a90000000017160014d337d2a86cd7ee3bb9cbdc623a5ade41f8034de0feffffff0234520600000000001976a91445c30f7293864a8b149b1093e230e6e13e96909288acb2410f000000000017a914534ffaedb228ee76d6bc3503324e6a7b62260bae870247304402202df73c5c864da45799e031fad427e6fa7e594556abc7aa893520ad601bd1f05502200f09bf34840e8f4f899abeada2326e56077b6e9c2a6ef571639a5b72c033dfa2012103741661f9e0ddb85690dcc3f2b4a4cd169e6279cbb0bcf518280f14186a44cda30248304502210088b52bcfa0420da69cfe188acd1ecb2c4a78e9649599380d9ff5388bd97b445902201b4954ecc1a49be1a21431893fd05615d2d83b878d17eb5c94b33f18410649ac01210376066ed23b5f40852cd9592443b75a46e63c2203cd59b27527dbc6dc14ed5ea30b490800", "vin": [{"txinwitness": ["304402202df73c5c864da45799e031fad427e6fa7e594556abc7aa893520ad601bd1f05502200f09bf34840e8f4f899abeada2326e56077b6e9c2a6ef571639a5b72c033dfa201", "03741661f9e0ddb85690dcc3f2b4a4cd169e6279cbb0bcf518280f14186a44cda3"], "sequence": 4294967294, "scriptSig": {"hex": "160014460083fcc25eda4ba022951c4611d94be1326633", "asm": "0014460083fcc25eda4ba022951c4611d94be1326633"}, "vout": 20, "txid": "99de130d8618597cc23a5329f39dbd7958da4a6f353fe943ded1e607efe75e30"}, {"txinwitness": ["304502210088b52bcfa0420da69cfe188acd1ecb2c4a78e9649599380d9ff5388bd97b445902201b4954ecc1a49be1a21431893fd05615d2d83b878d17eb5c94b33f18410649ac01", "0376066ed23b5f40852cd9592443b75a46e63c2203cd59b27527dbc6dc14ed5ea3"], "sequence": 4294967294, "scriptSig": {"hex": "160014d337d2a86cd7ee3bb9cbdc623a5ade41f8034de0", "asm": "0014d337d2a86cd7ee3bb9cbdc623a5ade41f8034de0"}, "vout": 0, "txid": "a9d96258db4c810120247ea8c6415b5ff288d6f939ebe1e4d0e1d4ad991ccaf6"}], "txid": "9a59466fec4d554c210ae18938cde960a1d974a57f4f0847a7881832bbc7e543", "blocktime": 1537869901, "version": 2, "confirmations": 11524, "time": 1537869901, "locktime": 542987, "vsize": 259, "size": 421}