{"hash": "9a60a9334c08bc701cf9207c14d8f0ce38b4774af80940d5413c9c254fe14e1d", "blockhash": "0000000000000000001cda96e906b7601b7a6fb1a3b62bca570a9e5d8f4b3de1", "vout": [{"scriptPubKey": {"type": "nulldata", "hex": "6a146f6d6e69000000000000001f000000e8d4a51000", "asm": "OP_RETURN 6f6d6e69000000000000001f000000e8d4a51000"}, "value": 0.0, "n": 0}, {"scriptPubKey": {"reqSigs": 1, "hex": "76a914a25dec4d0011064ef106a983c39c7a540699f22088ac", "addresses": ["1FoWyxwPXuj4C6abqwhjDWdz6D4PZgYRjA"], "asm": "OP_DUP OP_HASH160 a25dec4d0011064ef106a983c39c7a540699f220 OP_EQUALVERIFY OP_CHECKSIG", "type": "pubkeyhash"}, "value": 0.01990376, "n": 1}, {"scriptPubKey": {"reqSigs": 1, "hex": "76a914443bab01c32cdb1cc99b6abf70108d404aad9fed88ac", "addresses": ["17DnRrGg2f7QFZnr6LfAU7i8rbiJkKa51j"], "asm": "OP_DUP OP_HASH160 443bab01c32cdb1cc99b6abf70108d404aad9fed OP_EQUALVERIFY OP_CHECKSIG", "type": "pubkeyhash"}, "value": 5.46e-06, "n": 2}], "hex": "01000000019bbd4769d160247249d7d2397f2a916afac4c070b2f35ec5dd01f538a5d3ce9e010000006b483045022100b1ce8f8a26271ec9a0e6cdfc05c93ccb1c4d30803f2a9d2658fb7c863b9c904602204cda92dc3e279759dccff51ad9d97a772b1edd8b5e4574f75da444df3590b2f8012103da5bac7b36d5aa38f531c6b9601e21bb598a4b6716ebed38b009a55dabde9440feffffff030000000000000000166a146f6d6e69000000000000001f000000e8d4a51000e85e1e00000000001976a914a25dec4d0011064ef106a983c39c7a540699f22088ac22020000000000001976a914443bab01c32cdb1cc99b6abf70108d404aad9fed88ac13490800", "vin": [{"sequence": 4294967294, "scriptSig": {"hex": "483045022100b1ce8f8a26271ec9a0e6cdfc05c93ccb1c4d30803f2a9d2658fb7c863b9c904602204cda92dc3e279759dccff51ad9d97a772b1edd8b5e4574f75da444df3590b2f8012103da5bac7b36d5aa38f531c6b9601e21bb598a4b6716ebed38b009a55dabde9440", "asm": "3045022100b1ce8f8a26271ec9a0e6cdfc05c93ccb1c4d30803f2a9d2658fb7c863b9c904602204cda92dc3e279759dccff51ad9d97a772b1edd8b5e4574f75da444df3590b2f8[ALL] 03da5bac7b36d5aa38f531c6b9601e21bb598a4b6716ebed38b009a55dabde9440"}, "vout": 1, "txid": "9eced3a538f501ddc55ef3b270c0c4fa6a912a7f39d2d749722460d16947bd9b"}], "txid": "9a60a9334c08bc701cf9207c14d8f0ce38b4774af80940d5413c9c254fe14e1d", "blocktime": 1537873282, "version": 1, "confirmations": 11481, "time": 1537873282, "locktime": 542995, "vsize": 257, "size": 257}