{"hash": "bed86b321a4ae0a2ec33ceb09b4c1e17ce6914e69b2fba0bbb861c4199092220", "blockhash": "00000000000000000018f53835495a110e01622372bf6ae95dc86f2b0ab887b0", "vout": [{"scriptPubKey": {"reqSigs": 1, "hex": "a91477abbb41b32660c26d3e6ce685f962e8c366507e87", "addresses": ["3Cbn4UzLvQBHxrVFym8busqW3N2UNRmeXo"], "asm": "OP_HASH160 77abbb41b32660c26d3e6ce685f962e8c366507e OP_EQUAL", "type": "scripthash"}, "value": 0.00999547, "n": 0}, {"scriptPubKey": {"reqSigs": 1, "hex": "76a914755b80eca29b5859b467be2389294e1789da8ebb88ac", "addresses": ["1BhXgE8voiZo6yBn1tXC97jEUbv2gx2Dme"], "asm": "OP_DUP OP_HASH160 755b80eca29b5859b467be2389294e1789da8ebb OP_EQUALVERIFY OP_CHECKSIG", "type": "pubkeyhash"}, "value": 0.0058326, "n": 1}], "hex": "020000000001020c88c856f0d891387c3f3e78c4a5870e3631dcee23f55a0216fc7258f41f10770900000017160014b3b47aa8ff3e58febb26157b95e3e1ef339d6bb6feffffffa6c441d0d1285d6ac87c3d5c7f59ce7b17954ddfd48ed498e0b766ea88a204a50100000017160014bc0be5f4e8cf7f82c2fcd85d5061cc27c2a16e77feffffff027b400f000000000017a91477abbb41b32660c26d3e6ce685f962e8c366507e875ce60800000000001976a914755b80eca29b5859b467be2389294e1789da8ebb88ac02473044022042e28e9746e03a64e93c45878a4b6b17e642567ff33809ba9ed36f7eadd4884102200516641daff810d76fb2d3570d33afea4de5c2fb93b6ebaf53b03fb334d6bb4d012103a9d9f5efbdbc068eb855cec9c5812660e8652c55bc6d2b6c85d9c755de1ed6c402473044022010297d21657ddd9d6303b6f49f0a932b782b423234a47d1b669a24a6c13b1add02203153387b6b6bf998e6b8caed631946c677a59cc64153a694b3d7877e6fe462310121030bff2c6b72b88e67fb98f8e64f36eded9a0ea9c996a4be32f56a885ebcb0d0a10e490800", "vin": [{"txinwitness": ["3044022042e28e9746e03a64e93c45878a4b6b17e642567ff33809ba9ed36f7eadd4884102200516641daff810d76fb2d3570d33afea4de5c2fb93b6ebaf53b03fb334d6bb4d01", "03a9d9f5efbdbc068eb855cec9c5812660e8652c55bc6d2b6c85d9c755de1ed6c4"], "sequence": 4294967294, "scriptSig": {"hex": "160014b3b47aa8ff3e58febb26157b95e3e1ef339d6bb6", "asm": "0014b3b47aa8ff3e58febb26157b95e3e1ef339d6bb6"}, "vout": 9, "txid": "77101ff45872fc16025af523eedc31360e87a5c4783e3f7c3891d8f056c8880c"}, {"txinwitness": ["3044022010297d21657ddd9d6303b6f49f0a932b782b423234a47d1b669a24a6c13b1add02203153387b6b6bf998e6b8caed631946c677a59cc64153a694b3d7877e6fe4623101", "030bff2c6b72b88e67fb98f8e64f36eded9a0ea9c996a4be32f56a885ebcb0d0a1"], "sequence": 4294967294, "scriptSig": {"hex": "160014bc0be5f4e8cf7f82c2fcd85d5061cc27c2a16e77", "asm": "0014bc0be5f4e8cf7f82c2fcd85d5061cc27c2a16e77"}, "vout": 1, "txid": "a504a288ea66b7e098d48ed4df4d95177bce597f5c3d7cc86a5d28d1d041c4a6"}], "txid": "9a62190e41da6975c80695bd0eefaa7618af72621b64ac3783f70dc8a9bc846a", "blocktime": 1537870928, "version": 2, "confirmations": 11514, "time": 1537870928, "locktime": 542990, "vsize": 258, "size": 420}