{"hash": "9a634f8c6f2d50ec57e4b61df1e4c95f62a9cdae79d9cb23cd7ccbe49530ace2", "blockhash": "0000000000000000001f76057863aec43deb6fa401d9628bb513d65a8098bfab", "vout": [{"scriptPubKey": {"reqSigs": 1, "hex": "a9142f772657c367cfac7dba7407a8a06a89cc2547f187", "addresses": ["361zRENgjuUYtSSakx4bw6hjMn1CxE6CsL"], "asm": "OP_HASH160 2f772657c367cfac7dba7407a8a06a89cc2547f1 OP_EQUAL", "type": "scripthash"}, "value": 0.0011, "n": 0}, {"scriptPubKey": {"reqSigs": 1, "hex": "76a914d1ca9864e9373ee9747b2243c9ed9d6accb3b15788ac", "addresses": ["1L8GvfHUf39dq9DayRk1Ei2zsVkFayNcTJ"], "asm": "OP_DUP OP_HASH160 d1ca9864e9373ee9747b2243c9ed9d6accb3b157 OP_EQUALVERIFY OP_CHECKSIG", "type": "pubkeyhash"}, "value": 0.05641204, "n": 1}], "hex": "01000000012c400dcec5c83fdfb3d967d7e5552a87cff8d5177c5ce7fb5af3441aef481d15010000006b483045022100f974af0685575280f454fb4dc3d03fcd868cfea65e326b6e47238c84b50f46d702206e385cd5470bab90d043b8fd725117beb85a1bc24abbead6f848eab221c4e7af01210310751566a732634d06d6526d3edbc36be23dc2fd0d60d54f80c4c85561e0248fffffffff02b0ad01000000000017a9142f772657c367cfac7dba7407a8a06a89cc2547f187f4135600000000001976a914d1ca9864e9373ee9747b2243c9ed9d6accb3b15788ac00000000", "vin": [{"sequence": 4294967295, "scriptSig": {"hex": "483045022100f974af0685575280f454fb4dc3d03fcd868cfea65e326b6e47238c84b50f46d702206e385cd5470bab90d043b8fd725117beb85a1bc24abbead6f848eab221c4e7af01210310751566a732634d06d6526d3edbc36be23dc2fd0d60d54f80c4c85561e0248f", "asm": "3045022100f974af0685575280f454fb4dc3d03fcd868cfea65e326b6e47238c84b50f46d702206e385cd5470bab90d043b8fd725117beb85a1bc24abbead6f848eab221c4e7af[ALL] 0310751566a732634d06d6526d3edbc36be23dc2fd0d60d54f80c4c85561e0248f"}, "vout": 1, "txid": "151d48ef1a44f35afbe75c7c17d5f8cf872a55e5d767d9b3df3fc8c5ce0d402c"}], "txid": "9a634f8c6f2d50ec57e4b61df1e4c95f62a9cdae79d9cb23cd7ccbe49530ace2", "blocktime": 1537873891, "version": 1, "confirmations": 11475, "time": 1537873891, "locktime": 0, "vsize": 224, "size": 224}