{"hash": "9a68608283ce18aa7b265d8ec29e7c468fe59a9f26bac0264d09dc8c0c8e3054", "blockhash": "0000000000000000000e13cef7c366c0283d82e591d1acd082e914b08063cdf1", "vout": [{"scriptPubKey": {"reqSigs": 1, "hex": "76a914bf1bee99e4728d0b15bb11c8635ed150b42df31088ac", "addresses": ["1JRVXPhvUfDLXLYof89HQ1BWSFdYmZKwqT"], "asm": "OP_DUP OP_HASH160 bf1bee99e4728d0b15bb11c8635ed150b42df310 OP_EQUALVERIFY OP_CHECKSIG", "type": "pubkeyhash"}, "value": 0.69095323, "n": 0}, {"scriptPubKey": {"reqSigs": 1, "hex": "76a914a82709774d877bc3be25bc18d2b28d85d4f1f79c88ac", "addresses": ["1GL7HZiy9Y1UPRGSMeKNy1chjKaroidWaE"], "asm": "OP_DUP OP_HASH160 a82709774d877bc3be25bc18d2b28d85d4f1f79c OP_EQUALVERIFY OP_CHECKSIG", "type": "pubkeyhash"}, "value": 2.0, "n": 1}], "hex": "01000000021a6fcde85c84a8731d1dcb4900534b34b3a16fc919da4555b078b63d2404eb86010000006a4730440220228e85e31893e7221b01c5f47412f23b261389106d177d70ae19aa65865e1d23022046b7953c0555ca15121191706d95e6606f3b23397e7e68ca45a079f8814249f40121034cc64c4108ed09d9a63ac8a22cd1ced75fa59db6dc7e53453cae01a4a7da7772ffffffffcc770ca975e3103de5480f1150c1a2725c0c73c31f0cf351abde92cd3855fcec000000006b483045022100e9e321401222e5536b5d61b858459d5caa0ff9df0623d162f1e5dab5e28fffc102204028cafe07aa8013e1ae3739f6329fe6d1ba6d7b9b009a6d21886a1fa419c92e012103cc15e00d60c20b54a02d1e65c09345bd4b3571dca105d7d8050d4bfdedee0bbeffffffff029b4f1e04000000001976a914bf1bee99e4728d0b15bb11c8635ed150b42df31088ac00c2eb0b000000001976a914a82709774d877bc3be25bc18d2b28d85d4f1f79c88ac00000000", "vin": [{"sequence": 4294967295, "scriptSig": {"hex": "4730440220228e85e31893e7221b01c5f47412f23b261389106d177d70ae19aa65865e1d23022046b7953c0555ca15121191706d95e6606f3b23397e7e68ca45a079f8814249f40121034cc64c4108ed09d9a63ac8a22cd1ced75fa59db6dc7e53453cae01a4a7da7772", "asm": "30440220228e85e31893e7221b01c5f47412f23b261389106d177d70ae19aa65865e1d23022046b7953c0555ca15121191706d95e6606f3b23397e7e68ca45a079f8814249f4[ALL] 034cc64c4108ed09d9a63ac8a22cd1ced75fa59db6dc7e53453cae01a4a7da7772"}, "vout": 1, "txid": "86eb04243db678b05545da19c96fa1b3344b530049cb1d1d73a8845ce8cd6f1a"}, {"sequence": 4294967295, "scriptSig": {"hex": "483045022100e9e321401222e5536b5d61b858459d5caa0ff9df0623d162f1e5dab5e28fffc102204028cafe07aa8013e1ae3739f6329fe6d1ba6d7b9b009a6d21886a1fa419c92e012103cc15e00d60c20b54a02d1e65c09345bd4b3571dca105d7d8050d4bfdedee0bbe", "asm": "3045022100e9e321401222e5536b5d61b858459d5caa0ff9df0623d162f1e5dab5e28fffc102204028cafe07aa8013e1ae3739f6329fe6d1ba6d7b9b009a6d21886a1fa419c92e[ALL] 03cc15e00d60c20b54a02d1e65c09345bd4b3571dca105d7d8050d4bfdedee0bbe"}, "vout": 0, "txid": "ecfc5538cd92deab51f30c1fc3730c5c72a2c150110f48e53d10e375a90c77cc"}], "txid": "9a68608283ce18aa7b265d8ec29e7c468fe59a9f26bac0264d09dc8c0c8e3054", "blocktime": 1537871767, "version": 1, "confirmations": 11491, "time": 1537871767, "locktime": 0, "vsize": 373, "size": 373}