{"hash": "9a6baa158666dbeee5b2a5b39b5ed194c09eb685cd5e42ed3e46283d775e9b20", "blockhash": "0000000000000000000baef3f32e3676a92c3b2e5da21b426e4f302fc371ce76", "vout": [{"scriptPubKey": {"reqSigs": 1, "hex": "a914661168da7bacfb4fbfa1eca33ef76585ebf12f6b87", "addresses": ["3AzhhkRioJG79MZ46xfcHvU36442k7fmYd"], "asm": "OP_HASH160 661168da7bacfb4fbfa1eca33ef76585ebf12f6b OP_EQUAL", "type": "scripthash"}, "value": 0.007, "n": 0}, {"scriptPubKey": {"reqSigs": 1, "hex": "76a914cb6d08d198cf51a9bde35ede87dc3c76b2f1a4b888ac", "addresses": ["1KYcnnhKrK9ad5deBsT5g9LV3w3NhbRZCw"], "asm": "OP_DUP OP_HASH160 cb6d08d198cf51a9bde35ede87dc3c76b2f1a4b8 OP_EQUALVERIFY OP_CHECKSIG", "type": "pubkeyhash"}, "value": 0.06170595, "n": 1}], "hex": "0100000001d50f8fb192f42d547fd5b8ef9112e6fabf1712dacaee51cffa6c89839ba15b3c010000006a4730440220096b21c1beaa98c14621940eeff077de6e701de0e2bd854fbd54fa522b3d3bd102200bd76b951e5c2c1acbd7ea10ce6f5e80652b8c6878527172d84ee0ef98f0adba012103578cb52c11b0a2e67f0751d4a43afa33e1d747a9da41bcbe4fb2a77961bb7694ffffffff0260ae0a000000000017a914661168da7bacfb4fbfa1eca33ef76585ebf12f6b87e3275e00000000001976a914cb6d08d198cf51a9bde35ede87dc3c76b2f1a4b888ac00000000", "vin": [{"sequence": 4294967295, "scriptSig": {"hex": "4730440220096b21c1beaa98c14621940eeff077de6e701de0e2bd854fbd54fa522b3d3bd102200bd76b951e5c2c1acbd7ea10ce6f5e80652b8c6878527172d84ee0ef98f0adba012103578cb52c11b0a2e67f0751d4a43afa33e1d747a9da41bcbe4fb2a77961bb7694", "asm": "30440220096b21c1beaa98c14621940eeff077de6e701de0e2bd854fbd54fa522b3d3bd102200bd76b951e5c2c1acbd7ea10ce6f5e80652b8c6878527172d84ee0ef98f0adba[ALL] 03578cb52c11b0a2e67f0751d4a43afa33e1d747a9da41bcbe4fb2a77961bb7694"}, "vout": 1, "txid": "3c5ba19b83896cfacf51eecada1217bffae61291efb8d57f542df492b18f0fd5"}], "txid": "9a6baa158666dbeee5b2a5b39b5ed194c09eb685cd5e42ed3e46283d775e9b20", "blocktime": 1537876114, "version": 1, "confirmations": 11460, "time": 1537876114, "locktime": 0, "vsize": 223, "size": 223}