{"hash": "e0f302e2916f49e48699f0c8b0ca354fc5a9f323e09ab6680e82cd2a677dca36", "blockhash": "00000000000000000004ffacab907a6b429b9a5745fa0b75af4234bf69dd7176", "vout": [{"scriptPubKey": {"reqSigs": 1, "hex": "a914d8399f2f2d1a3ac3b9f37df7049d3fc914eebed087", "addresses": ["3MQJucW85E5hdtxLYVy8uvsxpq7QDwNMNL"], "asm": "OP_HASH160 d8399f2f2d1a3ac3b9f37df7049d3fc914eebed0 OP_EQUAL", "type": "scripthash"}, "value": 0.013818, "n": 0}, {"scriptPubKey": {"reqSigs": 1, "hex": "a9148d93bf417286b10d43e1d305bf2079b94915193487", "addresses": ["3EbcCErutT4BYu8S1ATP49cguDHWEYqNgp"], "asm": "OP_HASH160 8d93bf417286b10d43e1d305bf2079b949151934 OP_EQUAL", "type": "scripthash"}, "value": 0.00118172, "n": 1}], "hex": "0200000000010156dd31df289bd2d8e3ef7a011ff32bd6d57990ed69d7e71cf95684e43b5122d001000000171600145d74dc004f308ff86c24b2824c5bccfe41427797ffffffff02a81515000000000017a914d8399f2f2d1a3ac3b9f37df7049d3fc914eebed0879ccd01000000000017a9148d93bf417286b10d43e1d305bf2079b9491519348702483045022100fb8b332698a18bcd114513145624149f61c86dbdd398cd93a700a1fccd416a7702200a5252650f7b2991e22c42012fa0dd19b78bd9fe7a70216c509e6820a26c239d012102ea8fb7da998e8ba9d9b9f191bebe6953b6060b8079c01b8e734d67deaade2f3f00000000", "vin": [{"txinwitness": ["3045022100fb8b332698a18bcd114513145624149f61c86dbdd398cd93a700a1fccd416a7702200a5252650f7b2991e22c42012fa0dd19b78bd9fe7a70216c509e6820a26c239d01", "02ea8fb7da998e8ba9d9b9f191bebe6953b6060b8079c01b8e734d67deaade2f3f"], "sequence": 4294967295, "scriptSig": {"hex": "1600145d74dc004f308ff86c24b2824c5bccfe41427797", "asm": "00145d74dc004f308ff86c24b2824c5bccfe41427797"}, "vout": 1, "txid": "d022513be48456f91ce7d769ed9079d5d62bf31f017aefe3d8d29b28df31dd56"}], "txid": "9a6d78b60e6f92cc32769b5c3addf6dd872ca22ad1dd813f96b7b48f6b465287", "blocktime": 1537875543, "version": 2, "confirmations": 11464, "time": 1537875543, "locktime": 0, "vsize": 166, "size": 248}