{"hash": "9a6f18b130780db84154cc5c35ec7edc530402a971009d71da3b3554916e4105", "blockhash": "000000000000000000205f8b0775d31398ef75b89a5e8ec8d2c57b4dc0ac4c20", "vout": [{"scriptPubKey": {"reqSigs": 1, "hex": "76a9143f29223adb604ff8d997f10bfd4d04cc4e85a58988ac", "addresses": ["16kxr78M9V4Mm3dcgUwecAsuACkmajvXTK"], "asm": "OP_DUP OP_HASH160 3f29223adb604ff8d997f10bfd4d04cc4e85a589 OP_EQUALVERIFY OP_CHECKSIG", "type": "pubkeyhash"}, "value": 0.07949542, "n": 0}, {"scriptPubKey": {"reqSigs": 1, "hex": "76a914cd6053807abe0f0136c79633266075e643acd32e88ac", "addresses": ["1KivvBm2GKii3eLGxhxjanxuqeJZWNL2jo"], "asm": "OP_DUP OP_HASH160 cd6053807abe0f0136c79633266075e643acd32e OP_EQUALVERIFY OP_CHECKSIG", "type": "pubkeyhash"}, "value": 0.02879716, "n": 1}], "hex": "0100000001881e054dfa6b4b9d6fe13b9584b00791129328a9999c916aa888be39cd2ae50c000000006a4730440220105c924cbf9c205437a2387223d4bb71ca30f0c0b8ab3e8b2cc163c52716d3b802205a919262a28b1411bfff0a7c530108849891f400152d6f491718f239742622ee012103070877f1d339ce3f0cb7155f857d7c42650fb3b934034e91d82dc681948ee1a8ffffffff02e64c7900000000001976a9143f29223adb604ff8d997f10bfd4d04cc4e85a58988ace4f02b00000000001976a914cd6053807abe0f0136c79633266075e643acd32e88ac00000000", "vin": [{"sequence": 4294967295, "scriptSig": {"hex": "4730440220105c924cbf9c205437a2387223d4bb71ca30f0c0b8ab3e8b2cc163c52716d3b802205a919262a28b1411bfff0a7c530108849891f400152d6f491718f239742622ee012103070877f1d339ce3f0cb7155f857d7c42650fb3b934034e91d82dc681948ee1a8", "asm": "30440220105c924cbf9c205437a2387223d4bb71ca30f0c0b8ab3e8b2cc163c52716d3b802205a919262a28b1411bfff0a7c530108849891f400152d6f491718f239742622ee[ALL] 03070877f1d339ce3f0cb7155f857d7c42650fb3b934034e91d82dc681948ee1a8"}, "vout": 0, "txid": "0ce52acd39be88a86a919c99a92893129107b084953be16f9d4b6bfa4d051e88"}], "txid": "9a6f18b130780db84154cc5c35ec7edc530402a971009d71da3b3554916e4105", "blocktime": 1537871175, "version": 1, "confirmations": 11511, "time": 1537871175, "locktime": 0, "vsize": 225, "size": 225}