{"hash": "9a70ee502d83fd62640f895952501762413489122d65b75c0ec3efbaba52af42", "blockhash": "00000000000000000018f53835495a110e01622372bf6ae95dc86f2b0ab887b0", "vout": [{"scriptPubKey": {"reqSigs": 1, "hex": "76a914178d4d872f798ae16cdd2866858a4005804c7ecd88ac", "addresses": ["139XpJjnNhHtjf1N5LCAC62Xwj1XJuVJi5"], "asm": "OP_DUP OP_HASH160 178d4d872f798ae16cdd2866858a4005804c7ecd OP_EQUALVERIFY OP_CHECKSIG", "type": "pubkeyhash"}, "value": 0.0025, "n": 0}, {"scriptPubKey": {"reqSigs": 1, "hex": "76a914e349bc52d6b8100b58d3fce45135a91c5c128a1d88ac", "addresses": ["1MiningDkXkhKaXBTMKXfLemnk1YY5rbkT"], "asm": "OP_DUP OP_HASH160 e349bc52d6b8100b58d3fce45135a91c5c128a1d OP_EQUALVERIFY OP_CHECKSIG", "type": "pubkeyhash"}, "value": 0.19242297, "n": 1}], "hex": "0200000001770125e7f0cb22990bf328662ba312acc4becb9dcf7ae3dfab0eb912c290bb47010000008a473044022100cf20c3620c817315d846c45d2b30083ba04f2e01a7abd72059ea220421550d67021f11d08515c735a83c02bf956e13879d7c6c4002f85df31c744af18d8f62adc9014104ae414abde7876c34e01694b38b2341d10b9b4c8db18a66262bd8df26bcb57893885c9fe8b79aa25330d5f05bb5aa9ab636a908a72e27956572b44190b22809beffffffff0290d00300000000001976a914178d4d872f798ae16cdd2866858a4005804c7ecd88ac399d2501000000001976a914e349bc52d6b8100b58d3fce45135a91c5c128a1d88ac00000000", "vin": [{"sequence": 4294967295, "scriptSig": {"hex": "473044022100cf20c3620c817315d846c45d2b30083ba04f2e01a7abd72059ea220421550d67021f11d08515c735a83c02bf956e13879d7c6c4002f85df31c744af18d8f62adc9014104ae414abde7876c34e01694b38b2341d10b9b4c8db18a66262bd8df26bcb57893885c9fe8b79aa25330d5f05bb5aa9ab636a908a72e27956572b44190b22809be", "asm": "3044022100cf20c3620c817315d846c45d2b30083ba04f2e01a7abd72059ea220421550d67021f11d08515c735a83c02bf956e13879d7c6c4002f85df31c744af18d8f62adc9[ALL] 04ae414abde7876c34e01694b38b2341d10b9b4c8db18a66262bd8df26bcb57893885c9fe8b79aa25330d5f05bb5aa9ab636a908a72e27956572b44190b22809be"}, "vout": 1, "txid": "47bb90c212b90eabdfe37acf9dcbbec4ac12a32b6628f30b9922cbf0e7250177"}], "txid": "9a70ee502d83fd62640f895952501762413489122d65b75c0ec3efbaba52af42", "blocktime": 1537870928, "version": 2, "confirmations": 11512, "time": 1537870928, "locktime": 0, "vsize": 257, "size": 257}