{"hash": "9a7055a7135d31b3c13bb8a75c76d4d4a6d39e5256faa268213e1645899719e9", "blockhash": "00000000000000000017f5eb5941039fbcee6240d03bc1f2f8e35350df66a1d8", "vout": [{"scriptPubKey": {"reqSigs": 1, "hex": "a9144cdb6d02baf45d358dbc8dd6af46d0500051d04687", "addresses": ["38hQ96YH85z5hAeq1zzjN6MCxRiTTEamgV"], "asm": "OP_HASH160 4cdb6d02baf45d358dbc8dd6af46d0500051d046 OP_EQUAL", "type": "scripthash"}, "value": 0.0154119, "n": 0}, {"scriptPubKey": {"reqSigs": 1, "hex": "76a9149eceaa4e8f2a17bafb2e8c1a9178a45727ff322888ac", "addresses": ["1FUhLfUKGDiEMQeqz7Uk9HFY7MUGn6fT1V"], "asm": "OP_DUP OP_HASH160 9eceaa4e8f2a17bafb2e8c1a9178a45727ff3228 OP_EQUALVERIFY OP_CHECKSIG", "type": "pubkeyhash"}, "value": 0.00011217, "n": 1}], "hex": "0100000003d9ce5893dde1e025ae9de825cbb299c76cb897a1746af809a10b6026c60e9d8c24000000da00473044022041f47850ec076da859b66675ad526605d5045878d11767f8962a2086b2c13440022030743786b84e37a77e191b3d35bfd14a5a56963a2ba728862cdf2c80435163d3014830450221008bbb4ce0ea99db506269518bf0ed68a875db202731452acb1437b1b1f509cc9a02205e2330da1161d928b2fc9299c16abbeccfbefea1ee08848444045fcbc1d4574a0147522102907a54bed8ad74b3f35638c60114ca240a308cb986f3f2f306178869a8880b612102c4ee7bab34a2d7b972a84027f81d64d06a952e5ee2cdcf7a3c142eca8b6e098e52aeffffffffbb75bb9369c31dc0f4c58c3425293d8f56cbdc59d800c4f13263238751315d3a1f000000da00483045022100aa5937cea10f4f09c18e1e32578e56f59d09de3dbe216bee13a0192ece0a0ed902205b2ebfcf1e40a9cae583f34e7c8fd0981517685b495c76ff1a2e80c8950406e701473044022013080d254865aa940ff4329062decd4c94e7fd6c142ebd85776a2da02d4742a202205f9feaa2906733b44cbf4884b21932929b7046b57f4c84355cb7db839f13c46c0147522102907a54bed8ad74b3f35638c60114ca240a308cb986f3f2f306178869a8880b612103aa8e9aca7900d3077168c0750f0aff5eccacad2e61df79718bfde42a57dee7dc52aeffffffffa6890a0b9c80617168006b682390f3fa5df0caadfe398420f9fdee5a50a42c69010000006b483045022100c1879eb25130efd10af6ac4baa37dc2d317e2e96e961e672739d63b1a760f7ac0220661d1f363b0ff5ea035d32a5c405b9412df55f9c4457002dc9852e50ffc4a6e5012102e982a1b9de747a3b9af2cb5c3545ef0c928ca8817f08db4fce2eae382cefb538ffffffff02468417000000000017a9144cdb6d02baf45d358dbc8dd6af46d0500051d04687d12b0000000000001976a9149eceaa4e8f2a17bafb2e8c1a9178a45727ff322888ac00000000", "vin": [{"sequence": 4294967295, "scriptSig": {"hex": "00473044022041f47850ec076da859b66675ad526605d5045878d11767f8962a2086b2c13440022030743786b84e37a77e191b3d35bfd14a5a56963a2ba728862cdf2c80435163d3014830450221008bbb4ce0ea99db506269518bf0ed68a875db202731452acb1437b1b1f509cc9a02205e2330da1161d928b2fc9299c16abbeccfbefea1ee08848444045fcbc1d4574a0147522102907a54bed8ad74b3f35638c60114ca240a308cb986f3f2f306178869a8880b612102c4ee7bab34a2d7b972a84027f81d64d06a952e5ee2cdcf7a3c142eca8b6e098e52ae", "asm": "0 3044022041f47850ec076da859b66675ad526605d5045878d11767f8962a2086b2c13440022030743786b84e37a77e191b3d35bfd14a5a56963a2ba728862cdf2c80435163d3[ALL] 30450221008bbb4ce0ea99db506269518bf0ed68a875db202731452acb1437b1b1f509cc9a02205e2330da1161d928b2fc9299c16abbeccfbefea1ee08848444045fcbc1d4574a[ALL] 522102907a54bed8ad74b3f35638c60114ca240a308cb986f3f2f306178869a8880b612102c4ee7bab34a2d7b972a84027f81d64d06a952e5ee2cdcf7a3c142eca8b6e098e52ae"}, "vout": 36, "txid": "8c9d0ec626600ba109f86a74a197b86cc799b2cb25e89dae25e0e1dd9358ced9"}, {"sequence": 4294967295, "scriptSig": {"hex": "00483045022100aa5937cea10f4f09c18e1e32578e56f59d09de3dbe216bee13a0192ece0a0ed902205b2ebfcf1e40a9cae583f34e7c8fd0981517685b495c76ff1a2e80c8950406e701473044022013080d254865aa940ff4329062decd4c94e7fd6c142ebd85776a2da02d4742a202205f9feaa2906733b44cbf4884b21932929b7046b57f4c84355cb7db839f13c46c0147522102907a54bed8ad74b3f35638c60114ca240a308cb986f3f2f306178869a8880b612103aa8e9aca7900d3077168c0750f0aff5eccacad2e61df79718bfde42a57dee7dc52ae", "asm": "0 3045022100aa5937cea10f4f09c18e1e32578e56f59d09de3dbe216bee13a0192ece0a0ed902205b2ebfcf1e40a9cae583f34e7c8fd0981517685b495c76ff1a2e80c8950406e7[ALL] 3044022013080d254865aa940ff4329062decd4c94e7fd6c142ebd85776a2da02d4742a202205f9feaa2906733b44cbf4884b21932929b7046b57f4c84355cb7db839f13c46c[ALL] 522102907a54bed8ad74b3f35638c60114ca240a308cb986f3f2f306178869a8880b612103aa8e9aca7900d3077168c0750f0aff5eccacad2e61df79718bfde42a57dee7dc52ae"}, "vout": 31, "txid": "3a5d315187236332f1c400d859dccb568f3d2925348cc5f4c01dc36993bb75bb"}, {"sequence": 4294967295, "scriptSig": {"hex": "483045022100c1879eb25130efd10af6ac4baa37dc2d317e2e96e961e672739d63b1a760f7ac0220661d1f363b0ff5ea035d32a5c405b9412df55f9c4457002dc9852e50ffc4a6e5012102e982a1b9de747a3b9af2cb5c3545ef0c928ca8817f08db4fce2eae382cefb538", "asm": "3045022100c1879eb25130efd10af6ac4baa37dc2d317e2e96e961e672739d63b1a760f7ac0220661d1f363b0ff5ea035d32a5c405b9412df55f9c4457002dc9852e50ffc4a6e5[ALL] 02e982a1b9de747a3b9af2cb5c3545ef0c928ca8817f08db4fce2eae382cefb538"}, "vout": 1, "txid": "692ca4505aeefdf9208439feadcaf05dfaf39023686b00687161809c0b0a89a6"}], "txid": "9a7055a7135d31b3c13bb8a75c76d4d4a6d39e5256faa268213e1645899719e9", "blocktime": 1537874412, "version": 1, "confirmations": 11467, "time": 1537874412, "locktime": 0, "vsize": 742, "size": 742}