{"hash": "9a744518a5319fee6918601860dece1657ed1c336cd1e72de7ea059168828d6e", "blockhash": "0000000000000000000dcc0f55137456b1a82d3642486a52398922ac4d620174", "vout": [{"scriptPubKey": {"reqSigs": 1, "hex": "76a9147d345fc1166daf1f42f46bf3f751b60dee7e987988ac", "addresses": ["1CR2CzUPWHevaBBwjxJHoF6wBVMPR6sMMb"], "asm": "OP_DUP OP_HASH160 7d345fc1166daf1f42f46bf3f751b60dee7e9879 OP_EQUALVERIFY OP_CHECKSIG", "type": "pubkeyhash"}, "value": 0.32187113, "n": 0}, {"scriptPubKey": {"reqSigs": 1, "hex": "76a914f3df330d06c27f13c8c8a195fdd86f7f4019b8ec88ac", "addresses": ["1PEUanNK7uQXzDfvupEoDGZveb8n9YueHL"], "asm": "OP_DUP OP_HASH160 f3df330d06c27f13c8c8a195fdd86f7f4019b8ec OP_EQUALVERIFY OP_CHECKSIG", "type": "pubkeyhash"}, "value": 1.0, "n": 1}], "hex": "01000000010031b48ff9371bff17b23161f9fddcb30efea14e69902b415f0123512deac8d9010000006a473044022011994cf73cd98987445d39f3cc8217ca653faedc53c90c4897115269a8ca37c102206a58d97323257d15594da6e5f63b7dd30abff1d0b5fe3b4cdbe6ba0261f33eaa01210304f0f0bc3922a3127fff0053da2c083304e1389ef35b3898d4df163d90c23192ffffffff02e922eb01000000001976a9147d345fc1166daf1f42f46bf3f751b60dee7e987988ac00e1f505000000001976a914f3df330d06c27f13c8c8a195fdd86f7f4019b8ec88ac00000000", "vin": [{"sequence": 4294967295, "scriptSig": {"hex": "473044022011994cf73cd98987445d39f3cc8217ca653faedc53c90c4897115269a8ca37c102206a58d97323257d15594da6e5f63b7dd30abff1d0b5fe3b4cdbe6ba0261f33eaa01210304f0f0bc3922a3127fff0053da2c083304e1389ef35b3898d4df163d90c23192", "asm": "3044022011994cf73cd98987445d39f3cc8217ca653faedc53c90c4897115269a8ca37c102206a58d97323257d15594da6e5f63b7dd30abff1d0b5fe3b4cdbe6ba0261f33eaa[ALL] 0304f0f0bc3922a3127fff0053da2c083304e1389ef35b3898d4df163d90c23192"}, "vout": 1, "txid": "d9c8ea2d5123015f412b90694ea1fe0eb3dcfdf96131b217ff1b37f98fb43100"}], "txid": "9a744518a5319fee6918601860dece1657ed1c336cd1e72de7ea059168828d6e", "blocktime": 1537870268, "version": 1, "confirmations": 11518, "time": 1537870268, "locktime": 0, "vsize": 225, "size": 225}