{"hash": "c9008c0bdf753462648308f3dd8b1af60d923b63b274229477474c04c66af6a9", "blockhash": "0000000000000000001f76057863aec43deb6fa401d9628bb513d65a8098bfab", "vout": [{"scriptPubKey": {"reqSigs": 1, "hex": "a914eb0cff4521605627f4500a81d1a85724bb793b2687", "addresses": ["3P7rHgVDcRvJwMdmo8NaoTT4bVK49Nebgk"], "asm": "OP_HASH160 eb0cff4521605627f4500a81d1a85724bb793b26 OP_EQUAL", "type": "scripthash"}, "value": 0.00995994, "n": 0}, {"scriptPubKey": {"reqSigs": 1, "hex": "76a91451d9bd37e5f89bf46ab74ab1b47c09ed31f4039688ac", "addresses": ["18TnaKUYbGL2eR6BmjmCHZYYnisgVDCn1A"], "asm": "OP_DUP OP_HASH160 51d9bd37e5f89bf46ab74ab1b47c09ed31f40396 OP_EQUALVERIFY OP_CHECKSIG", "type": "pubkeyhash"}, "value": 0.01124, "n": 1}], "hex": "02000000000103282302fb220d3521c23f9be305fcffc44eb72384c66657d59963da2dc22b4daf1400000017160014ed144fef752245f7d502d79ab76d5160ff0ac244feffffff761d9fa7508f74304178f06f8ee965358f2a7d0c192961b82749499532591273010000006b483045022100d3bdeb9756b5371d71df4a670299f591d3b5a1c17265d238bf7f30eb1f57a0900220256bc1a50d3d67e1208c881eacc4d75335e7225fb3cd7e8239f1b5ba7deb423e012102ee2e074173ed49685d315e460101059eab1ae2095bb71bf33bfb6b78d2e1b88dfeffffff8136952bce8a63519cde634f0d0b52c07354b1075c223e8683c08aaecdc2f16f0100000017160014bc208cbbaf9e1e8c40f1747082da9b8bd531f60ffeffffff029a320f000000000017a914eb0cff4521605627f4500a81d1a85724bb793b2687a0261100000000001976a91451d9bd37e5f89bf46ab74ab1b47c09ed31f4039688ac02483045022100d1c04736b85545aac1427ed054fe27bc26ab9f4fc469ba806d7b6eafc64aa3af022066f3ad31525924ae8ed6636b2589d2d7ca2c9abb5825cb5ac22f4d21ce3f909a0121024c2a92267ad63f1385e987a117a0d4aca364d88f7c92909203ecf55c0dd53af00002473044022015074cb089ea5caeecd4ae157cc029910703870210e8060b677d579599bdfe0402203f20d2ca7b10e26d383f18dbff3f275fe420e2886ec1dbfee5aeac6320c887b9012102f81ab5cd30a357884c345ad555446bc4590605ca7a9ac6ea4bd675cac40b130414490800", "vin": [{"txinwitness": ["3045022100d1c04736b85545aac1427ed054fe27bc26ab9f4fc469ba806d7b6eafc64aa3af022066f3ad31525924ae8ed6636b2589d2d7ca2c9abb5825cb5ac22f4d21ce3f909a01", "024c2a92267ad63f1385e987a117a0d4aca364d88f7c92909203ecf55c0dd53af0"], "sequence": 4294967294, "scriptSig": {"hex": "160014ed144fef752245f7d502d79ab76d5160ff0ac244", "asm": "0014ed144fef752245f7d502d79ab76d5160ff0ac244"}, "vout": 20, "txid": "af4d2bc22dda6399d55766c68423b74ec4fffc05e39b3fc221350d22fb022328"}, {"sequence": 4294967294, "scriptSig": {"hex": "483045022100d3bdeb9756b5371d71df4a670299f591d3b5a1c17265d238bf7f30eb1f57a0900220256bc1a50d3d67e1208c881eacc4d75335e7225fb3cd7e8239f1b5ba7deb423e012102ee2e074173ed49685d315e460101059eab1ae2095bb71bf33bfb6b78d2e1b88d", "asm": "3045022100d3bdeb9756b5371d71df4a670299f591d3b5a1c17265d238bf7f30eb1f57a0900220256bc1a50d3d67e1208c881eacc4d75335e7225fb3cd7e8239f1b5ba7deb423e[ALL] 02ee2e074173ed49685d315e460101059eab1ae2095bb71bf33bfb6b78d2e1b88d"}, "vout": 1, "txid": "7312593295494927b86129190c7d2a8f3565e98e6ff0784130748f50a79f1d76"}, {"txinwitness": ["3044022015074cb089ea5caeecd4ae157cc029910703870210e8060b677d579599bdfe0402203f20d2ca7b10e26d383f18dbff3f275fe420e2886ec1dbfee5aeac6320c887b901", "02f81ab5cd30a357884c345ad555446bc4590605ca7a9ac6ea4bd675cac40b1304"], "sequence": 4294967294, "scriptSig": {"hex": "160014bc208cbbaf9e1e8c40f1747082da9b8bd531f60f", "asm": "0014bc208cbbaf9e1e8c40f1747082da9b8bd531f60f"}, "vout": 1, "txid": "6ff1c2cdae8ac083863e225c07b15473c0520b0d4f63de9c51638ace2b953681"}], "txid": "9a79fad457dee37ba123f1ae60aa661121af07d31357aae38666df3d838626cc", "blocktime": 1537873891, "version": 2, "confirmations": 11475, "time": 1537873891, "locktime": 542996, "vsize": 407, "size": 570}