{"hash": "9a7cc702980351a872db53a33d9ec7a9cd502e223561b71a023f661b2ef1e742", "blockhash": "00000000000000000018f53835495a110e01622372bf6ae95dc86f2b0ab887b0", "vout": [{"scriptPubKey": {"reqSigs": 1, "hex": "76a91497aff6a8a0881bd8a3d8f8574e1c37d24575738988ac", "addresses": ["1Eq3q8Gzpp6Wg6YRGRRVVTPXmrKXmTB7Bk"], "asm": "OP_DUP OP_HASH160 97aff6a8a0881bd8a3d8f8574e1c37d245757389 OP_EQUALVERIFY OP_CHECKSIG", "type": "pubkeyhash"}, "value": 0.06176918, "n": 0}, {"scriptPubKey": {"reqSigs": 1, "hex": "76a914f6739a34ef221871184c5e9a9401c9d8e688ccd388ac", "addresses": ["1PU7iPG2wXLgzzvgj65zaMu34knfhwaVZY"], "asm": "OP_DUP OP_HASH160 f6739a34ef221871184c5e9a9401c9d8e688ccd3 OP_EQUALVERIFY OP_CHECKSIG", "type": "pubkeyhash"}, "value": 0.07056554, "n": 1}], "hex": "0100000001cb091c4872448e049b7257ac31e2b63b620ae0626f11dd86cecbcee8eb14888a010000006a473044022027fbafb43746051e302134828b0293bda1bcbdf73a03d8afd70d8e02d31c80b902202a802d18f07527d4c39afce09bdaae23ab932ce94a437723e2d8c48abdd00369012103fa8e1adb487572ed6b2d788e92d30249bf0fd47b2a1c07ea3b3b4a019168586effffffff0296405e00000000001976a91497aff6a8a0881bd8a3d8f8574e1c37d24575738988acaaac6b00000000001976a914f6739a34ef221871184c5e9a9401c9d8e688ccd388ac00000000", "vin": [{"sequence": 4294967295, "scriptSig": {"hex": "473044022027fbafb43746051e302134828b0293bda1bcbdf73a03d8afd70d8e02d31c80b902202a802d18f07527d4c39afce09bdaae23ab932ce94a437723e2d8c48abdd00369012103fa8e1adb487572ed6b2d788e92d30249bf0fd47b2a1c07ea3b3b4a019168586e", "asm": "3044022027fbafb43746051e302134828b0293bda1bcbdf73a03d8afd70d8e02d31c80b902202a802d18f07527d4c39afce09bdaae23ab932ce94a437723e2d8c48abdd00369[ALL] 03fa8e1adb487572ed6b2d788e92d30249bf0fd47b2a1c07ea3b3b4a019168586e"}, "vout": 1, "txid": "8a8814ebe8cecbce86dd116f62e00a623bb6e231ac57729b048e4472481c09cb"}], "txid": "9a7cc702980351a872db53a33d9ec7a9cd502e223561b71a023f661b2ef1e742", "blocktime": 1537870928, "version": 1, "confirmations": 11514, "time": 1537870928, "locktime": 0, "vsize": 225, "size": 225}