{"hash": "9a7cee2b0b0e929fa147f648791a9a235f97eadb29e6cc3f39b3cd9afa84bcc9", "blockhash": "00000000000000000017f5eb5941039fbcee6240d03bc1f2f8e35350df66a1d8", "vout": [{"scriptPubKey": {"reqSigs": 1, "hex": "76a91495d8cbecee13fa0d97f779da7169bdad738ff2e188ac", "addresses": ["1EfKPsfLuvPDLdYijUCLpybvMwWBRJLNo2"], "asm": "OP_DUP OP_HASH160 95d8cbecee13fa0d97f779da7169bdad738ff2e1 OP_EQUALVERIFY OP_CHECKSIG", "type": "pubkeyhash"}, "value": 0.00398009, "n": 0}, {"scriptPubKey": {"reqSigs": 1, "hex": "a91407119316d73e0a4c47c97157c82e9b53951feb4887", "addresses": ["32LPhzJwX3f13XHpj1eEHCBqYUoxwhc6sU"], "asm": "OP_HASH160 07119316d73e0a4c47c97157c82e9b53951feb48 OP_EQUAL", "type": "scripthash"}, "value": 0.00493, "n": 1}, {"scriptPubKey": {"reqSigs": 1, "hex": "76a9141d8c33ffca3e8aa3e0354f10a65778a17ad6879488ac", "addresses": ["13hEZ3iKGDzCMcVrqhrxCUMrBqGsncb7Z6"], "asm": "OP_DUP OP_HASH160 1d8c33ffca3e8aa3e0354f10a65778a17ad68794 OP_EQUALVERIFY OP_CHECKSIG", "type": "pubkeyhash"}, "value": 0.01, "n": 2}, {"scriptPubKey": {"reqSigs": 1, "hex": "a91412724875aa1df232e85228b75838bc4ee1d8fa6187", "addresses": ["33NYzXDwM1TJPAdRAhH6V7oS71AEwxnNpk"], "asm": "OP_HASH160 12724875aa1df232e85228b75838bc4ee1d8fa61 OP_EQUAL", "type": "scripthash"}, "value": 0.01523287, "n": 3}, {"scriptPubKey": {"reqSigs": 1, "hex": "76a914b18476fa3354fac366592cc7877ec7eaaae39a4288ac", "addresses": ["1HBdHmTcprepU4SQYTQFc6mgZEAmqPasHB"], "asm": "OP_DUP OP_HASH160 b18476fa3354fac366592cc7877ec7eaaae39a42 OP_EQUALVERIFY OP_CHECKSIG", "type": "pubkeyhash"}, "value": 0.0195, "n": 4}, {"scriptPubKey": {"reqSigs": 1, "hex": "a9147ce59654a290b047cc82529e3079197f2916452f87", "addresses": ["3D5QkL9uJzg3uFEi874z4JzxTyRE9TLBWv"], "asm": "OP_HASH160 7ce59654a290b047cc82529e3079197f2916452f OP_EQUAL", "type": "scripthash"}, "value": 0.04550221, "n": 5}, {"scriptPubKey": {"reqSigs": 1, "hex": "a9144c6d7880474e5a0ca28f922126797c0b68635bb487", "addresses": ["38f8RHFQ8v6avZqCmaYTga5bTYiuhoM6fh"], "asm": "OP_HASH160 4c6d7880474e5a0ca28f922126797c0b68635bb4 OP_EQUAL", "type": "scripthash"}, "value": 3.35452023, "n": 6}, {"scriptPubKey": {"reqSigs": 1, "hex": "76a914d1b4ad1aa142f1c9574f4d6e439e8f1af708e00d88ac", "addresses": ["1L7pfhG8AyPB4nPPKP7H4RmDycv9KDFQDx"], "asm": "OP_DUP OP_HASH160 d1b4ad1aa142f1c9574f4d6e439e8f1af708e00d OP_EQUALVERIFY OP_CHECKSIG", "type": "pubkeyhash"}, "value": 3.9055, "n": 7}, {"scriptPubKey": {"reqSigs": 1, "hex": "76a91443849383122ebb8a28268a89700c9f723663b5b888ac", "addresses": ["17A16QmavnUfCW11DAApiJxp7ARnxN5pGX"], "asm": "OP_DUP OP_HASH160 43849383122ebb8a28268a89700c9f723663b5b8 OP_EQUALVERIFY OP_CHECKSIG", "type": "pubkeyhash"}, "value": 123.63903166, "n": 8}], "hex": "0200000001b920fe37047c1b9dfa0a2427813fb20213f25ff3d7e9aa5623d2428799b40458060000008b483045022100e10822a1902a62b5b8edd6807079671e9c3642394e83edbb6094e1d2dcceb71b02203d8229fbe1a8dff27a88403292184fdf34715cc3cd28d5dc042976d536c7a0ba0141047146f0e0fcb3139947cf0beb870fe251930ca10d4545793d31033e801b5219abf56c11a3cf3406ca590e4c14b0dab749d20862b3adc4709153c280c2a78be10cffffffff09b9120600000000001976a91495d8cbecee13fa0d97f779da7169bdad738ff2e188acc88507000000000017a91407119316d73e0a4c47c97157c82e9b53951feb488740420f00000000001976a9141d8c33ffca3e8aa3e0354f10a65778a17ad6879488ac573e17000000000017a91412724875aa1df232e85228b75838bc4ee1d8fa618730c11d00000000001976a914b18476fa3354fac366592cc7877ec7eaaae39a4288ac4d6e45000000000017a9147ce59654a290b047cc82529e3079197f2916452f877797fe130000000017a9144c6d7880474e5a0ca28f922126797c0b68635bb487f0514717000000001976a914d1b4ad1aa142f1c9574f4d6e439e8f1af708e00d88acbe30f2e0020000001976a91443849383122ebb8a28268a89700c9f723663b5b888ac00000000", "vin": [{"sequence": 4294967295, "scriptSig": {"hex": "483045022100e10822a1902a62b5b8edd6807079671e9c3642394e83edbb6094e1d2dcceb71b02203d8229fbe1a8dff27a88403292184fdf34715cc3cd28d5dc042976d536c7a0ba0141047146f0e0fcb3139947cf0beb870fe251930ca10d4545793d31033e801b5219abf56c11a3cf3406ca590e4c14b0dab749d20862b3adc4709153c280c2a78be10c", "asm": "3045022100e10822a1902a62b5b8edd6807079671e9c3642394e83edbb6094e1d2dcceb71b02203d8229fbe1a8dff27a88403292184fdf34715cc3cd28d5dc042976d536c7a0ba[ALL] 047146f0e0fcb3139947cf0beb870fe251930ca10d4545793d31033e801b5219abf56c11a3cf3406ca590e4c14b0dab749d20862b3adc4709153c280c2a78be10c"}, "vout": 6, "txid": "5804b4998742d22356aae9d7f35ff21302b23f8127240afa9d1b7c0437fe20b9"}], "txid": "9a7cee2b0b0e929fa147f648791a9a235f97eadb29e6cc3f39b3cd9afa84bcc9", "blocktime": 1537874412, "version": 2, "confirmations": 11466, "time": 1537874412, "locktime": 0, "vsize": 488, "size": 488}