{"hash": "9a85f113899c29e5f4843987bcdb44b4599f990f90785e8a83f1301cd3fa51f2", "blockhash": "0000000000000000001cda96e906b7601b7a6fb1a3b62bca570a9e5d8f4b3de1", "vout": [{"scriptPubKey": {"reqSigs": 1, "hex": "a914ca90772635d45386a8be675272d8d6404e1d5e1587", "addresses": ["3LA5UvjmdZUCMQz8bdyFR29wJBkzxxouov"], "asm": "OP_HASH160 ca90772635d45386a8be675272d8d6404e1d5e15 OP_EQUAL", "type": "scripthash"}, "value": 3.99465756, "n": 0}, {"scriptPubKey": {"reqSigs": 1, "hex": "76a91492b013100ed5151f93a3d4cb0323694504aa38eb88ac", "addresses": ["1ENcasn3T3mrtyFkKi4WkVBDPNg4cVRRsQ"], "asm": "OP_DUP OP_HASH160 92b013100ed5151f93a3d4cb0323694504aa38eb OP_EQUALVERIFY OP_CHECKSIG", "type": "pubkeyhash"}, "value": 0.065, "n": 1}, {"scriptPubKey": {"reqSigs": 1, "hex": "a914c2663ddee886cda2ac8908366518b7f8c13fe99b87", "addresses": ["3KQuVdp57W5ngVWA5Fba4GiCNEu1ZnGUXL"], "asm": "OP_HASH160 c2663ddee886cda2ac8908366518b7f8c13fe99b OP_EQUAL", "type": "scripthash"}, "value": 0.01043473, "n": 2}, {"scriptPubKey": {"reqSigs": 1, "hex": "76a914bf5cb4de206d48dbfb577bbf100ad2491ac928dc88ac", "addresses": ["1JSq814tCX9oz4QnTwtrsmCifLgiC1Ksp5"], "asm": "OP_DUP OP_HASH160 bf5cb4de206d48dbfb577bbf100ad2491ac928dc OP_EQUALVERIFY OP_CHECKSIG", "type": "pubkeyhash"}, "value": 0.00162295, "n": 3}, {"scriptPubKey": {"reqSigs": 1, "hex": "76a9140cb2ea551510b372d98057f3a1ae457a63be52f988ac", "addresses": ["12A9SZS2kBnkyFauGJzuCHeErYMCEjF85w"], "asm": "OP_DUP OP_HASH160 0cb2ea551510b372d98057f3a1ae457a63be52f9 OP_EQUALVERIFY OP_CHECKSIG", "type": "pubkeyhash"}, "value": 0.008, "n": 4}], "hex": "0200000001e09951c825111e379dfc582238e3304841b583a9a2ce7136992656e3c61e00fd000000006b483045022100e2f906c4313785afeff1d8ebff4366fec6ccbdfd49af95103344e84a29a5fa8d02200ce109f2342401dca193e3c5c0632ed895cf4cb6b2943ab2747d6a83c14104840121027ebc1070fc6d694ad9128ce3dfb800e10035463d60016b5f9641b9e133f02222feffffff051c5dcf170000000017a914ca90772635d45386a8be675272d8d6404e1d5e1587a02e6300000000001976a91492b013100ed5151f93a3d4cb0323694504aa38eb88ac11ec0f000000000017a914c2663ddee886cda2ac8908366518b7f8c13fe99b87f7790200000000001976a914bf5cb4de206d48dbfb577bbf100ad2491ac928dc88ac00350c00000000001976a9140cb2ea551510b372d98057f3a1ae457a63be52f988ac13490800", "vin": [{"sequence": 4294967294, "scriptSig": {"hex": "483045022100e2f906c4313785afeff1d8ebff4366fec6ccbdfd49af95103344e84a29a5fa8d02200ce109f2342401dca193e3c5c0632ed895cf4cb6b2943ab2747d6a83c14104840121027ebc1070fc6d694ad9128ce3dfb800e10035463d60016b5f9641b9e133f02222", "asm": "3045022100e2f906c4313785afeff1d8ebff4366fec6ccbdfd49af95103344e84a29a5fa8d02200ce109f2342401dca193e3c5c0632ed895cf4cb6b2943ab2747d6a83c1410484[ALL] 027ebc1070fc6d694ad9128ce3dfb800e10035463d60016b5f9641b9e133f02222"}, "vout": 0, "txid": "fd001ec6e35626993671cea2a983b5414830e3382258fc9d371e1125c85199e0"}], "txid": "9a85f113899c29e5f4843987bcdb44b4599f990f90785e8a83f1301cd3fa51f2", "blocktime": 1537873282, "version": 2, "confirmations": 11481, "time": 1537873282, "locktime": 542995, "vsize": 324, "size": 324}