{"hash": "624fb7853ff37e87c8c7183d498a5b244bc802fadf17741aaa60de5ea3cbb8aa", "blockhash": "00000000000000000004ffacab907a6b429b9a5745fa0b75af4234bf69dd7176", "vout": [{"scriptPubKey": {"reqSigs": 1, "hex": "a91402a5875a87ad0aa4f6a48e4c00391c877a14ac8487", "addresses": ["31w1a4iTbqy9YaVywAoxrPdEjMZHPN6S9c"], "asm": "OP_HASH160 02a5875a87ad0aa4f6a48e4c00391c877a14ac84 OP_EQUAL", "type": "scripthash"}, "value": 0.0026156, "n": 0}, {"scriptPubKey": {"reqSigs": 1, "hex": "a914b0f85278ed1262ba5bd20f16e7a4d8aeedbf0e2d87", "addresses": ["3HpkL2oa5P4ak2RUWesNQxZczdwPekUAcz"], "asm": "OP_HASH160 b0f85278ed1262ba5bd20f16e7a4d8aeedbf0e2d OP_EQUAL", "type": "scripthash"}, "value": 0.02715748, "n": 1}], "hex": "010000000001010eeefa0e3b82b4333b498e9161bb263b748cee8c0b35cb79b6b9f7ced83d62fe0100000023220020cd458d5b72141a997c72f8c1f12613459d2b858d968d5d706322fce1e139dfaeffffffff02b8fd03000000000017a91402a5875a87ad0aa4f6a48e4c00391c877a14ac8487647029000000000017a914b0f85278ed1262ba5bd20f16e7a4d8aeedbf0e2d870400483045022100bf189010267ce4f386509eac1de49e3269242491a84605568efd1d90c5f582e102200f5479936917a247fdf04918ac7aeb9975056c375d9fa4852453c6e3c5b0afe501483045022100871f5448abd7abd05e10915235a9ba44ed9230b3c4bbdaa4ba19587ce75e99920220455e0dd1e47adcf7ca45d920de06b411bfe7c8da8781500a28419871a6137fd70147522103862cd2d7a47e5f462155914ab010417d56a2d83e57b09344b12f693e1350b30f2102fe148860bf4c8d44d75e23a5c2725d8753409e0b3427bbe5a1cc1a3cb2b72ca652ae00000000", "vin": [{"txinwitness": ["", "3045022100bf189010267ce4f386509eac1de49e3269242491a84605568efd1d90c5f582e102200f5479936917a247fdf04918ac7aeb9975056c375d9fa4852453c6e3c5b0afe501", "3045022100871f5448abd7abd05e10915235a9ba44ed9230b3c4bbdaa4ba19587ce75e99920220455e0dd1e47adcf7ca45d920de06b411bfe7c8da8781500a28419871a6137fd701", "522103862cd2d7a47e5f462155914ab010417d56a2d83e57b09344b12f693e1350b30f2102fe148860bf4c8d44d75e23a5c2725d8753409e0b3427bbe5a1cc1a3cb2b72ca652ae"], "sequence": 4294967295, "scriptSig": {"hex": "220020cd458d5b72141a997c72f8c1f12613459d2b858d968d5d706322fce1e139dfae", "asm": "0020cd458d5b72141a997c72f8c1f12613459d2b858d968d5d706322fce1e139dfae"}, "vout": 1, "txid": "fe623dd8cef7b9b679cb350b8cee8c743b26bb61918e493b33b4823b0efaee0e"}], "txid": "9a871420a595e71cdb684b9c203fcaf25fbedb1a02f8d99f4a90b2328f2df4b6", "blocktime": 1537875543, "version": 1, "confirmations": 11464, "time": 1537875543, "locktime": 0, "vsize": 206, "size": 372}