{"hash": "a0b858517b0352bcb03af7a1c01a63edcbbd6b72dfdb4c03f2adffd6e22acf41", "blockhash": "0000000000000000001f76057863aec43deb6fa401d9628bb513d65a8098bfab", "vout": [{"scriptPubKey": {"reqSigs": 1, "hex": "a9144bff9173159abe1e4dc3fc14b92868e57eb335db87", "addresses": ["38crm7p4riaG4V7ZjJTP6VY7CrxogUhqC7"], "asm": "OP_HASH160 4bff9173159abe1e4dc3fc14b92868e57eb335db OP_EQUAL", "type": "scripthash"}, "value": 0.03054769, "n": 0}, {"scriptPubKey": {"reqSigs": 1, "hex": "76a9149831f2d866859eb9ea376758b8ca45bfcba1aaa688ac", "addresses": ["1EsjYedZzXdaDMizBnLrnLHzGVTjs8anRE"], "asm": "OP_DUP OP_HASH160 9831f2d866859eb9ea376758b8ca45bfcba1aaa6 OP_EQUALVERIFY OP_CHECKSIG", "type": "pubkeyhash"}, "value": 0.0101, "n": 1}], "hex": "01000000000101676b994260a19faf8470c4365ed49869975023e48c7c27526258d8a8216061ea2300000023220020786c7c4f6066097a142d855e68e2676033afc9189a8efa4fd86eb3add2bd8ed8ffffffff02b19c2e000000000017a9144bff9173159abe1e4dc3fc14b92868e57eb335db8750690f00000000001976a9149831f2d866859eb9ea376758b8ca45bfcba1aaa688ac0400483045022100df55e987a6351eba5266a4310077331b09b74dddb3b61ad0b975acbcff1e450d0220752a2b1a77c69a71aaccfc807623f964fee7ab81dd086e7a4c5608fd0856b5840147304402205ce58bd906a3066ae41cb261532e722db2b277dbca007221e7ff20ef4c7518f5022007982e8a41b03bf648c35941dc06d55e0a1683d5a2bfaf10534d88541c7e807a0169522102a8020e34515dac3d858af2af23dddceb67c0d2d26b4878b43e5a700a895f9f272102c647f18d5e3c29ca6e861ba93aa0e7529381f5118f2d53863f4a6ed44d4e519c210282479106352b0d031fd41bd5570db9f227169af94536ca5f14fd06a47613978353ae00000000", "vin": [{"txinwitness": ["", "3045022100df55e987a6351eba5266a4310077331b09b74dddb3b61ad0b975acbcff1e450d0220752a2b1a77c69a71aaccfc807623f964fee7ab81dd086e7a4c5608fd0856b58401", "304402205ce58bd906a3066ae41cb261532e722db2b277dbca007221e7ff20ef4c7518f5022007982e8a41b03bf648c35941dc06d55e0a1683d5a2bfaf10534d88541c7e807a01", "522102a8020e34515dac3d858af2af23dddceb67c0d2d26b4878b43e5a700a895f9f272102c647f18d5e3c29ca6e861ba93aa0e7529381f5118f2d53863f4a6ed44d4e519c210282479106352b0d031fd41bd5570db9f227169af94536ca5f14fd06a47613978353ae"], "sequence": 4294967295, "scriptSig": {"hex": "220020786c7c4f6066097a142d855e68e2676033afc9189a8efa4fd86eb3add2bd8ed8", "asm": "0020786c7c4f6066097a142d855e68e2676033afc9189a8efa4fd86eb3add2bd8ed8"}, "vout": 35, "txid": "ea616021a8d8586252277c8ce42350976998d45e36c47084af9fa16042996b67"}], "txid": "9a8c87c029f046bd488d0fad648fc5b49255e66171113484c86cd2936463a47d", "blocktime": 1537873891, "version": 1, "confirmations": 11478, "time": 1537873891, "locktime": 0, "vsize": 216, "size": 407}