{"hash": "e23ad8bd7c3f1126e1903d7b5e9428b6b6195c0ba85a9dd19499a89d303c67db", "blockhash": "0000000000000000001f76057863aec43deb6fa401d9628bb513d65a8098bfab", "vout": [{"scriptPubKey": {"reqSigs": 1, "hex": "76a914d87165e2507234164da2bd9f6e893c15329ead9088ac", "addresses": ["1LjSoTzpijeYz5ujVsubMGidiqUzu6i4sK"], "asm": "OP_DUP OP_HASH160 d87165e2507234164da2bd9f6e893c15329ead90 OP_EQUALVERIFY OP_CHECKSIG", "type": "pubkeyhash"}, "value": 0.0018315, "n": 0}, {"scriptPubKey": {"reqSigs": 1, "hex": "a91408c364340a91e77e4376b26fdad3b5aedc5661f787", "addresses": ["32VMQ7Th4qGhbDYY68FZrfSF9hTbsPivgt"], "asm": "OP_HASH160 08c364340a91e77e4376b26fdad3b5aedc5661f7 OP_EQUAL", "type": "scripthash"}, "value": 0.02659841, "n": 1}], "hex": "01000000000101330ffb1b0bfd3b8070f020092e33d6c024126c0859ad029fc13c322bab123a01010000002322002027561ef61439ff4994ea3793249bbb358319edb59fff63c1eeada48f299e81b5ffffffff026ecb0200000000001976a914d87165e2507234164da2bd9f6e893c15329ead9088ac019628000000000017a91408c364340a91e77e4376b26fdad3b5aedc5661f7870400483045022100fc4cdf28bd265306600060f4310812e89a62faded394baa06b7879c5d352fb3502202c33b82e75aae4f98ee953e144ad4f36071c1af10c4be7c226727afb3492939e0148304502210090268613bc682ee363664a4163a5a87b7c882462f6433c7d709b53e761fb52b8022003f2f27fe2f8116475eb9e10b8f0c36022b3eb5be43fc1169bc93a9d9d3065470147522102f484437eae67e7d1f9cf7235bd52510c99f379408a1f6fe737011d4bc259358a2103871fc2ca08e6950b38867e8e6a0e94ee625223d3aa0df5c65f414c6d784467e252ae00000000", "vin": [{"txinwitness": ["", "3045022100fc4cdf28bd265306600060f4310812e89a62faded394baa06b7879c5d352fb3502202c33b82e75aae4f98ee953e144ad4f36071c1af10c4be7c226727afb3492939e01", "304502210090268613bc682ee363664a4163a5a87b7c882462f6433c7d709b53e761fb52b8022003f2f27fe2f8116475eb9e10b8f0c36022b3eb5be43fc1169bc93a9d9d30654701", "522102f484437eae67e7d1f9cf7235bd52510c99f379408a1f6fe737011d4bc259358a2103871fc2ca08e6950b38867e8e6a0e94ee625223d3aa0df5c65f414c6d784467e252ae"], "sequence": 4294967295, "scriptSig": {"hex": "22002027561ef61439ff4994ea3793249bbb358319edb59fff63c1eeada48f299e81b5", "asm": "002027561ef61439ff4994ea3793249bbb358319edb59fff63c1eeada48f299e81b5"}, "vout": 1, "txid": "013a12ab2b323cc19f02ad59086c1224c0d6332e0920f070803bfd0b1bfb0f33"}], "txid": "9a9837f2b81a2ae076fd6016e92eed678254352c6fbfd2327d13618b5e5ab13b", "blocktime": 1537873891, "version": 1, "confirmations": 11478, "time": 1537873891, "locktime": 0, "vsize": 208, "size": 374}