{"hash": "9a9f47bd4275d7020c75fa4e5af240e8b7cb769e2a764e4f8544c71846649d87", "blockhash": "0000000000000000000baef3f32e3676a92c3b2e5da21b426e4f302fc371ce76", "vout": [{"scriptPubKey": {"reqSigs": 1, "hex": "76a914e8978f670599a752c39a8b935692e6e04957cbeb88ac", "addresses": ["1NCqL6CNPq95U2WELs3do9yCt3U4XZnThd"], "asm": "OP_DUP OP_HASH160 e8978f670599a752c39a8b935692e6e04957cbeb OP_EQUALVERIFY OP_CHECKSIG", "type": "pubkeyhash"}, "value": 2.04799427, "n": 0}], "hex": "0100000001095e3c148c17ed1cdf16b5f1ce8fe329d641cb12908c0c92d6c0af91195002dc040000006b48304502210098d289667a58cb6e99c62a895ec1b3b4e19c4ebf980dabebb76e5542e2b52826022066828a177c03f83e8724025357d67cb9302f6e05959389be31d47fd0c5de97eb012103746e98c035ff11d08ac57277fd51882f9b9de23d0391d8ddf436e4b54c5f28e1ffffffff01c3fd340c000000001976a914e8978f670599a752c39a8b935692e6e04957cbeb88ac00000000", "vin": [{"sequence": 4294967295, "scriptSig": {"hex": "48304502210098d289667a58cb6e99c62a895ec1b3b4e19c4ebf980dabebb76e5542e2b52826022066828a177c03f83e8724025357d67cb9302f6e05959389be31d47fd0c5de97eb012103746e98c035ff11d08ac57277fd51882f9b9de23d0391d8ddf436e4b54c5f28e1", "asm": "304502210098d289667a58cb6e99c62a895ec1b3b4e19c4ebf980dabebb76e5542e2b52826022066828a177c03f83e8724025357d67cb9302f6e05959389be31d47fd0c5de97eb[ALL] 03746e98c035ff11d08ac57277fd51882f9b9de23d0391d8ddf436e4b54c5f28e1"}, "vout": 4, "txid": "dc02501991afc0d6920c8c9012cb41d629e38fcef1b516df1ced178c143c5e09"}], "txid": "9a9f47bd4275d7020c75fa4e5af240e8b7cb769e2a764e4f8544c71846649d87", "blocktime": 1537876114, "version": 1, "confirmations": 11460, "time": 1537876114, "locktime": 0, "vsize": 192, "size": 192}