{"hash": "f3cbf009522cb52751a2f8722c49e9d9bdeb8f80391dc7417649e1fbee8f67cc", "blockhash": "00000000000000000018f53835495a110e01622372bf6ae95dc86f2b0ab887b0", "vout": [{"scriptPubKey": {"reqSigs": 1, "hex": "a914d2612685714e058093e8ff001b8b085dfd53acaa87", "addresses": ["3LsQCxiNUbqznK4FoxRvSyWpRLv3KbrXJL"], "asm": "OP_HASH160 d2612685714e058093e8ff001b8b085dfd53acaa OP_EQUAL", "type": "scripthash"}, "value": 0.01008146, "n": 0}, {"scriptPubKey": {"reqSigs": 1, "hex": "76a914c8da398170152d787bf913e94557df6ae567e8a988ac", "addresses": ["1KK1Zszuw28WHWnDoZzq23RHttL7Gxc1ET"], "asm": "OP_DUP OP_HASH160 c8da398170152d787bf913e94557df6ae567e8a9 OP_EQUALVERIFY OP_CHECKSIG", "type": "pubkeyhash"}, "value": 0.95, "n": 1}], "hex": "020000000001043e4731b6b14cae349b4676accfd0c53c93d90598b3c890317ec04b459b81a16d0000000017160014ae11e3bfafef23f4f99f1429b066752a8da6b7c4feffffff696661237cd0a45933bdfeea7b4d4d6056a44cfaf093fe82ef71a1967d18af2502000000171600145adf24aff3daaeb3a2edcdeb5dc21a94aeaeb5b4feffffffb142b739224490c4941a4f8dd6596001e08b69bbfb777a63e7183655be736922010000001716001441930e5259ef7b63288aa6321b8d95e5b5eb76c9feffffffedff0a9a48f5780cec53300fa1db46561fb178f63a717989217bec238287a53700000000171600141ffd70a32db8d6100f8983359d282901490f43fefeffffff0212620f000000000017a914d2612685714e058093e8ff001b8b085dfd53acaa87c095a905000000001976a914c8da398170152d787bf913e94557df6ae567e8a988ac024730440220211af0137748674fd3af24177a1e3faf83712e8e6a67085efa9652c35b8cff9802201f67949484cf598e2be044882b10d2f9d382386999ad8dc5a91c445a27047349012103cbba2eea3a00edc50c53a49e1480363885715aa95ef7f54f7f5997fd1423d8fe0247304402204b5e49b9a78663749e98fd3cbc9ef6f97ad5fd043d19f5bf6d67b6892e9fd99302204f6a5b3e5227a9ba749e61972ef175121f6a389ebcb03fc28e565e9235d06f1c012103805a9619a43f6273f2d69fadce8cce6e31c3b79a9d37f34266197e1b44bb8311024730440220285a8e06225bcb8b7c8304cd506f4a361382039ea44cb39be86a47f86ed80630022050b2a6891775b50cc60992266fc5d1f4ef4196a7b56a533e50332990da1d469a0121029858f427ca5ea25ae1fd137cd9c3ac57f80c436bc9040e001123c880a27da15702483045022100dcacc0ed6bdd8ee580540a426e5ba7e89e90a25e70d6eac0b0540c5c6fedef73022054011d477456b2ae57defce15da9a56ee056b00adc5b0bb151a42f0162510e1e0121038371e68f9e5c7ce1d994a18d20edfa2d41276164bfb9ca637e890d5c9748de5b0e490800", "vin": [{"txinwitness": ["30440220211af0137748674fd3af24177a1e3faf83712e8e6a67085efa9652c35b8cff9802201f67949484cf598e2be044882b10d2f9d382386999ad8dc5a91c445a2704734901", "03cbba2eea3a00edc50c53a49e1480363885715aa95ef7f54f7f5997fd1423d8fe"], "sequence": 4294967294, "scriptSig": {"hex": "160014ae11e3bfafef23f4f99f1429b066752a8da6b7c4", "asm": "0014ae11e3bfafef23f4f99f1429b066752a8da6b7c4"}, "vout": 0, "txid": "6da1819b454bc07e3190c8b39805d9933cc5d0cfac76469b34ae4cb1b631473e"}, {"txinwitness": ["304402204b5e49b9a78663749e98fd3cbc9ef6f97ad5fd043d19f5bf6d67b6892e9fd99302204f6a5b3e5227a9ba749e61972ef175121f6a389ebcb03fc28e565e9235d06f1c01", "03805a9619a43f6273f2d69fadce8cce6e31c3b79a9d37f34266197e1b44bb8311"], "sequence": 4294967294, "scriptSig": {"hex": "1600145adf24aff3daaeb3a2edcdeb5dc21a94aeaeb5b4", "asm": "00145adf24aff3daaeb3a2edcdeb5dc21a94aeaeb5b4"}, "vout": 2, "txid": "25af187d96a171ef82fe93f0fa4ca456604d4d7beafebd3359a4d07c23616669"}, {"txinwitness": ["30440220285a8e06225bcb8b7c8304cd506f4a361382039ea44cb39be86a47f86ed80630022050b2a6891775b50cc60992266fc5d1f4ef4196a7b56a533e50332990da1d469a01", "029858f427ca5ea25ae1fd137cd9c3ac57f80c436bc9040e001123c880a27da157"], "sequence": 4294967294, "scriptSig": {"hex": "16001441930e5259ef7b63288aa6321b8d95e5b5eb76c9", "asm": "001441930e5259ef7b63288aa6321b8d95e5b5eb76c9"}, "vout": 1, "txid": "226973be553618e7637a77fbbb698be0016059d68d4f1a94c490442239b742b1"}, {"txinwitness": ["3045022100dcacc0ed6bdd8ee580540a426e5ba7e89e90a25e70d6eac0b0540c5c6fedef73022054011d477456b2ae57defce15da9a56ee056b00adc5b0bb151a42f0162510e1e01", "038371e68f9e5c7ce1d994a18d20edfa2d41276164bfb9ca637e890d5c9748de5b"], "sequence": 4294967294, "scriptSig": {"hex": "1600141ffd70a32db8d6100f8983359d282901490f43fe", "asm": "00141ffd70a32db8d6100f8983359d282901490f43fe"}, "vout": 0, "txid": "37a5878223ec7b218979713af678b11f5646dba10f3053ec0c78f5489a0affed"}], "txid": "9a9f6b9d2734370cc8b1f57a14e325b04fb8028d514226b209aee43ca72df4e4", "blocktime": 1537870928, "version": 2, "confirmations": 11514, "time": 1537870928, "locktime": 542990, "vsize": 440, "size": 763}