{"hash": "068192b768d5204c35795443f9a5b8794752ec222746a175bb238e21ea804672", "blockhash": "00000000000000000024a2167bbff67b0be802c0b01cdd79e6331c2be6459f87", "vout": [{"scriptPubKey": {"reqSigs": 1, "hex": "76a91468f8ab18e52f08376275644e5a27b6ef24975f8188ac", "addresses": ["1Aa3AjM9HLRuzo3BBY1cRhhK6AyUq8eBUE"], "asm": "OP_DUP OP_HASH160 68f8ab18e52f08376275644e5a27b6ef24975f81 OP_EQUALVERIFY OP_CHECKSIG", "type": "pubkeyhash"}, "value": 0.000525, "n": 0}, {"scriptPubKey": {"reqSigs": 1, "hex": "a914627aa52932456d89054bd84f86246af3b71b93a887", "addresses": ["3Afj4stdiLG9EktGrMbm252ySonnhYaz8v"], "asm": "OP_HASH160 627aa52932456d89054bd84f86246af3b71b93a8 OP_EQUAL", "type": "scripthash"}, "value": 0.50353803, "n": 1}], "hex": "010000000001018542ace2cd8e65522e72ae66d79b48e4df2f11d030351683804f0fce41afe25a01000000232200205fdd641234b13964b223bd85ad2a4a667ca2099df3d42a1d3b45706a8d81abf0ffffffff0214cd0000000000001976a91468f8ab18e52f08376275644e5a27b6ef24975f8188ac8b5600030000000017a914627aa52932456d89054bd84f86246af3b71b93a8870400473044022060363adc778d23ab3626dce454b9add1bb7f68f0f77b528c3f1b2e22ae7b6ba902206757b9824a6d2b7f0464a0bcce394dcbe8ce072a1c6afb2f54b42655ab8ac4070147304402204677be4aa80055d86df383c1a0587916c954ed315fc03f416951ecd8d1b39be8022004dd446e07380636f21740e25f6faf8616a386e52584b35238657d9e39416ea30147522103dcde3832fa56def7b4e783faad1b8af85c3cdd74a5ff4f3c7c216b1075c18da12103c70ae8ded79be1afda73b9ce5ea14a3878908ee160d66a9a717e792bb6db276952ae00000000", "vin": [{"txinwitness": ["", "3044022060363adc778d23ab3626dce454b9add1bb7f68f0f77b528c3f1b2e22ae7b6ba902206757b9824a6d2b7f0464a0bcce394dcbe8ce072a1c6afb2f54b42655ab8ac40701", "304402204677be4aa80055d86df383c1a0587916c954ed315fc03f416951ecd8d1b39be8022004dd446e07380636f21740e25f6faf8616a386e52584b35238657d9e39416ea301", "522103dcde3832fa56def7b4e783faad1b8af85c3cdd74a5ff4f3c7c216b1075c18da12103c70ae8ded79be1afda73b9ce5ea14a3878908ee160d66a9a717e792bb6db276952ae"], "sequence": 4294967295, "scriptSig": {"hex": "2200205fdd641234b13964b223bd85ad2a4a667ca2099df3d42a1d3b45706a8d81abf0", "asm": "00205fdd641234b13964b223bd85ad2a4a667ca2099df3d42a1d3b45706a8d81abf0"}, "vout": 1, "txid": "5ae2af41ce0f4f8083163530d0112fdfe4489bd766ae722e52658ecde2ac4285"}], "txid": "9aa0a14c9488827ecb1a0d14e3266313cb886141662719fddc67d6678b154f45", "blocktime": 1537870564, "version": 1, "confirmations": 11515, "time": 1537870564, "locktime": 0, "vsize": 207, "size": 372}