{"hash": "9aa15704c73dce80d85b3f4c4fb0564b07f68aa40ceec15a016da915deca0719", "blockhash": "0000000000000000000baef3f32e3676a92c3b2e5da21b426e4f302fc371ce76", "vout": [{"scriptPubKey": {"reqSigs": 1, "hex": "76a9145210e67594686d8b9defd6ea68b91411bf9cf95388ac", "addresses": ["18UveymbUiPrcZX2AMxd1vVHdbS2hxw7na"], "asm": "OP_DUP OP_HASH160 5210e67594686d8b9defd6ea68b91411bf9cf953 OP_EQUALVERIFY OP_CHECKSIG", "type": "pubkeyhash"}, "value": 2.016, "n": 0}, {"scriptPubKey": {"reqSigs": 1, "hex": "76a91405545f20c091a5618e2e5cf26aa47f0563b87d5888ac", "addresses": ["1VBTCccSjPnPQ8MsJnG4nyyBtsqRWSUZM"], "asm": "OP_DUP OP_HASH160 05545f20c091a5618e2e5cf26aa47f0563b87d58 OP_EQUALVERIFY OP_CHECKSIG", "type": "pubkeyhash"}, "value": 0.81719179, "n": 1}], "hex": "01000000011f41a085214cd5940712b970d0aab9d7a561a09be3a5536cc8068d8840c546b3010000008b483045022100e99592bb81812b3577f0babbe1868627b5159bcac781f2ac3add2ea23cdb386002204eefc662ca2a3edc3a077f010db5d71280cf577c2ebf2b2bfbe184ad8da2f23b014104529d65c72590ef60623b0291d4e1286ab42670c07644f8fbdb86303d51f790567e57eb523a4558aca8d7e4947eabe0178ab180cdb059e31f9af5c02278394373ffffffff02002c040c000000001976a9145210e67594686d8b9defd6ea68b91411bf9cf95388ac8befde04000000001976a91405545f20c091a5618e2e5cf26aa47f0563b87d5888ac00000000", "vin": [{"sequence": 4294967295, "scriptSig": {"hex": "483045022100e99592bb81812b3577f0babbe1868627b5159bcac781f2ac3add2ea23cdb386002204eefc662ca2a3edc3a077f010db5d71280cf577c2ebf2b2bfbe184ad8da2f23b014104529d65c72590ef60623b0291d4e1286ab42670c07644f8fbdb86303d51f790567e57eb523a4558aca8d7e4947eabe0178ab180cdb059e31f9af5c02278394373", "asm": "3045022100e99592bb81812b3577f0babbe1868627b5159bcac781f2ac3add2ea23cdb386002204eefc662ca2a3edc3a077f010db5d71280cf577c2ebf2b2bfbe184ad8da2f23b[ALL] 04529d65c72590ef60623b0291d4e1286ab42670c07644f8fbdb86303d51f790567e57eb523a4558aca8d7e4947eabe0178ab180cdb059e31f9af5c02278394373"}, "vout": 1, "txid": "b346c540888d06c86c53a5e39ba061a5d7b9aad070b9120794d54c2185a0411f"}], "txid": "9aa15704c73dce80d85b3f4c4fb0564b07f68aa40ceec15a016da915deca0719", "blocktime": 1537876114, "version": 1, "confirmations": 11459, "time": 1537876114, "locktime": 0, "vsize": 258, "size": 258}