{"hash": "2200199ff6b609acf4701c130a20b70771e6b2746ea5c918cf53ccccaabc389e", "blockhash": "0000000000000000001f76057863aec43deb6fa401d9628bb513d65a8098bfab", "vout": [{"scriptPubKey": {"reqSigs": 1, "hex": "76a914618d9f1c653a16af28465468bac2cee74c94b97f88ac", "addresses": ["19tpCeLbYu1vtmik5LHXKq9YosrUYepzHt"], "asm": "OP_DUP OP_HASH160 618d9f1c653a16af28465468bac2cee74c94b97f OP_EQUALVERIFY OP_CHECKSIG", "type": "pubkeyhash"}, "value": 0.0003, "n": 0}, {"scriptPubKey": {"reqSigs": 1, "hex": "a9146900cb0911647d517e7c29f5f7d19c38d9e3a65e87", "addresses": ["3BGDpntXecVCLxVhjjcPnAGxUsu8SBySYS"], "asm": "OP_HASH160 6900cb0911647d517e7c29f5f7d19c38d9e3a65e OP_EQUAL", "type": "scripthash"}, "value": 6.003e-05, "n": 1}], "hex": "01000000000101943c8cc78f602ddb34db10b3d15a65f0df182577be709a476c46b92e1ca88310010000002322002085b6780e417983095b0b42128666bb7c9f389af16f1cedff74e2685e0dc39420fdffffff0230750000000000001976a914618d9f1c653a16af28465468bac2cee74c94b97f88ac731700000000000017a9146900cb0911647d517e7c29f5f7d19c38d9e3a65e87040048304502210087a90c5d3d5df08b993872e9e15f6e29a3bcf45d3191c4b56577b77b442ad0c502203e79794c334d3d4dcd6f611e9650f494b78d83039fd0ffae07910763c3d02b5601483045022100ab011c166d8174e52c1394cdafcda22160262ca178d849a8307566a9efec574702202b3f9565afa0f8fa7b6d43489806da269e81ecb188c609d799dd0241a5352b74014752210386ea8617bb776ab20b0fe32a81c9cbf5924b5f7090a2de6a61aa348fc76edb96210347d13db51344210b54fb930a9b7cbe43f45af3930999260848cd8d4a7589c10752ae13490800", "vin": [{"txinwitness": ["", "304502210087a90c5d3d5df08b993872e9e15f6e29a3bcf45d3191c4b56577b77b442ad0c502203e79794c334d3d4dcd6f611e9650f494b78d83039fd0ffae07910763c3d02b5601", "3045022100ab011c166d8174e52c1394cdafcda22160262ca178d849a8307566a9efec574702202b3f9565afa0f8fa7b6d43489806da269e81ecb188c609d799dd0241a5352b7401", "52210386ea8617bb776ab20b0fe32a81c9cbf5924b5f7090a2de6a61aa348fc76edb96210347d13db51344210b54fb930a9b7cbe43f45af3930999260848cd8d4a7589c10752ae"], "sequence": 4294967293, "scriptSig": {"hex": "22002085b6780e417983095b0b42128666bb7c9f389af16f1cedff74e2685e0dc39420", "asm": "002085b6780e417983095b0b42128666bb7c9f389af16f1cedff74e2685e0dc39420"}, "vout": 1, "txid": "1083a81c2eb9466c479a70be772518dff0655ad1b310db34db2d608fc78c3c94"}], "txid": "9aa42c5541be4168de97f3a3901408879e514c77fd10639bf991ae976a2e45ab", "blocktime": 1537873891, "version": 1, "confirmations": 11478, "time": 1537873891, "locktime": 542995, "vsize": 208, "size": 374}