{"hash": "9aa93663745fb687cedf7bc7733616608fce8af617c8e3fbedbc7dccc185ba15", "blockhash": "00000000000000000017f5eb5941039fbcee6240d03bc1f2f8e35350df66a1d8", "vout": [{"scriptPubKey": {"reqSigs": 1, "hex": "76a9141f42caccc9b08ed8fb6d4f954757d7875447eeda88ac", "addresses": ["13rHxkTZowvoTcd3R1saLhkGgV2R7FNjJq"], "asm": "OP_DUP OP_HASH160 1f42caccc9b08ed8fb6d4f954757d7875447eeda OP_EQUALVERIFY OP_CHECKSIG", "type": "pubkeyhash"}, "value": 0.00149, "n": 0}, {"scriptPubKey": {"reqSigs": 1, "hex": "76a91452460d1cfb4dd6b29742f7a0afcc1a28db4f086f88ac", "addresses": ["18W2KyWyywLQo2ybamAQDTyHVCdmBcwkso"], "asm": "OP_DUP OP_HASH160 52460d1cfb4dd6b29742f7a0afcc1a28db4f086f OP_EQUALVERIFY OP_CHECKSIG", "type": "pubkeyhash"}, "value": 0.00163042, "n": 1}], "hex": "0100000001e15a2de0b34269468fc3b448321ba87ba66c597475925667c99889b40e2fe60d000000006b483045022100b03822d7c896ac6a6499ebf79f1870480f78fb953a88ef49baebea6e033ecc9902205dc26332215f9f78a01e6698a539f68502498d1326a0a7ab0a5012ded23e942a012102bc6604a265cf9ad41f961700ad46969ff9439e936256ab5be36d12f4a0b17ddaffffffff0208460200000000001976a9141f42caccc9b08ed8fb6d4f954757d7875447eeda88ace27c0200000000001976a91452460d1cfb4dd6b29742f7a0afcc1a28db4f086f88ac00000000", "vin": [{"sequence": 4294967295, "scriptSig": {"hex": "483045022100b03822d7c896ac6a6499ebf79f1870480f78fb953a88ef49baebea6e033ecc9902205dc26332215f9f78a01e6698a539f68502498d1326a0a7ab0a5012ded23e942a012102bc6604a265cf9ad41f961700ad46969ff9439e936256ab5be36d12f4a0b17dda", "asm": "3045022100b03822d7c896ac6a6499ebf79f1870480f78fb953a88ef49baebea6e033ecc9902205dc26332215f9f78a01e6698a539f68502498d1326a0a7ab0a5012ded23e942a[ALL] 02bc6604a265cf9ad41f961700ad46969ff9439e936256ab5be36d12f4a0b17dda"}, "vout": 0, "txid": "0de62f0eb48998c96756927574596ca67ba81b3248b4c38f466942b3e02d5ae1"}], "txid": "9aa93663745fb687cedf7bc7733616608fce8af617c8e3fbedbc7dccc185ba15", "blocktime": 1537874412, "version": 1, "confirmations": 11468, "time": 1537874412, "locktime": 0, "vsize": 226, "size": 226}