{"hash": "9aaaeddca39c933fe424a2e8b1ee891e053852b1ab106581d59fd392abc5b57c", "blockhash": "00000000000000000024a2167bbff67b0be802c0b01cdd79e6331c2be6459f87", "vout": [{"scriptPubKey": {"reqSigs": 1, "hex": "76a914bd363cdf6aab1d119e4cdcce60e284845f56377288ac", "addresses": ["1JFTgmGamM46PG8sP6UEsGTUMhQ9jg3DNV"], "asm": "OP_DUP OP_HASH160 bd363cdf6aab1d119e4cdcce60e284845f563772 OP_EQUALVERIFY OP_CHECKSIG", "type": "pubkeyhash"}, "value": 0.0059967, "n": 0}, {"scriptPubKey": {"reqSigs": 1, "hex": "76a914d22674434d2bc99b817c9e1341f868bd7b3a7f0188ac", "addresses": ["1LAAy8Hsd22CP6g3DLpo3ijwZ7uyTHc1NR"], "asm": "OP_DUP OP_HASH160 d22674434d2bc99b817c9e1341f868bd7b3a7f01 OP_EQUALVERIFY OP_CHECKSIG", "type": "pubkeyhash"}, "value": 0.1451406, "n": 1}], "hex": "010000000afa97c076ba3bdb4c8f5490496b1c6fffef2d90e06b3ff2c55d2c9bb83a7e6508000000006a47304402202822df449cc461744e2129d717098cac2b5630f0e5a369b6f30c3be88be6d60a022060a526cf474d1d1fe3497d538e5ca1c97fff0ff2d0ee7ded6f3d5c292df62000012102a108c22c475baad98904ae5978ef2bec18803434b1825e128ebe4a4f45e42e09ffffffff2a02f252a3c8ef1788e81c531849ce46c4603a9b012d0e10b66245922429623a000000006a47304402200f9f07f0705fde42ac72c7192c15c1389335e6f218dbcbf03270cd667a8285ad02200537864b2727bf92ed71b7ac76371422c9694b3f8d0c4ad839d5576271ff531a012103e4d399a9c4dbd04b30bc21e8a694ae442876d852fbb9e89b60f8f7715feb26fbffffffff3027493df183d6050caae4936e117e53a1013f82cdf41d5d0b7f8de5668ed649000000006a4730440220184a98805311172f89eb5b0b409d01a3226035cf78e97d559bd1c5167e0f053802200ab2ca6db15e1fa095285513647f133618852fe0578ad3d57bec94e49ebefc470121038ea83c9de5e9bb8637e0eb5c64771f6bccf586b4e35cb856761c6d14c6a515e8ffffffffe3b8a1b57bcd574bd4bd9e7b86e955bef6ec6517156c015bc52bdaab31878353010000006b483045022100bff9889954ab6e1f3c71f8b0b9a2937ef10a2ed7700037a08dc30c5d64f36b01022000a0c9cf1e2909a6003bfe06bb923e0862c9ab907c230c198a09e7730c969c6201210317ed917581f14cdc76ccc0334e6eb2415a4b57f0e55788f85093e655a814ac34ffffffffa1d3c78be91fb2087b3fec82e1f3357c7abc5231189973784c9fd4b7cc2c946c000000006a4730440220763fb8be801cb5c03750924e0403e04fbd6b83cfed82d5b6de2514532b485bcf022014fdd1304e9a8ba25ea19c75d2944be8a5e31316167145dc961bdccd8746fcc001210327c5e0bd73132fa1dfd7e475205c4afd7082fb653b79e1f383ef47b12e8b4429ffffffff7a3aa656972ed9e620ed86cd7c7daf364b61b54af1555f8dd2fb9d9b17583f95000000006b483045022100b3fb91a618bb902d904b7db129c0cc9dac8453b6fce29fc873c5fe85fd3a203b02205f1e129a19abfc161dc7a5104c8c4e3e195073edb886d3bb28b0ac842cbea79301210260eeaa097d112e2d0f7a4bbb53cb6cb067f61bb0c50a0849f5433dc8863c42d6ffffffffffec425811b0d036c5c89a9b2414742e938bd4803b79d1e1977c30972c2f95a1000000006b483045022100d3db19ca416082dd2f5760185ca7812f1ef1a597f19914eac566852ddb33513c0220594281e55eda84e2f2e951c6bd5972f8d797eb9cc0bcb53ddc672a606d2c7759012103e39c4d4361674688a13a19ca13c7d20a9a86725ed03090f9c9ccc447c3981d45ffffffff29b4ed0643ba81cf1f7f7b301f8fb68ef73acfa3e68b41d81b908f627ef786ba010000006a473044022000dea27986a9fa75441ee535d295a38198985f01166017706ed3553634f0e1760220500f2fe45c420fad3da936524cff37e3c63f3920b7d8264e2b0b668bd15e5fec0121020c4f0efa4fbbdb06fc27e60b04d17ebdd953b9dc35cd4e3684dd909ec1fefd1dffffffff4bc81bb331eafe2f6919c5885a81712bfb26322cd99a96976fb54084846100ce000000006a4730440220196c6c97a5fc9c7c1826906c07ca572347d86251e61af3f6203d8eaad87ea1c802205b97243e83e1414f553b358613e7f1475644e3af231e2afa0c42e6eeff60d578012103e4d399a9c4dbd04b30bc21e8a694ae442876d852fbb9e89b60f8f7715feb26fbffffffffb64ef5bebb36db8b0d05c671fc989621e1f621b4da1c6f94d87e56237f2786d2000000006a47304402203a7530278c4b63eea319e7e3a0c69db7b02fc96b05d9e9521f4439a625fb4b7a0220639b4e6e51bcdad8833ce1a4b0ca5c9f4429822f771bc06f818f183b32a0a11901210367b737b8cd0832c3eba36ca2d2b6f79bb3d2a6c273a4ca2eb59e6d1d4ef50e36ffffffff0276260900000000001976a914bd363cdf6aab1d119e4cdcce60e284845f56377288ac8c77dd00000000001976a914d22674434d2bc99b817c9e1341f868bd7b3a7f0188ac00000000", "vin": [{"sequence": 4294967295, "scriptSig": {"hex": "47304402202822df449cc461744e2129d717098cac2b5630f0e5a369b6f30c3be88be6d60a022060a526cf474d1d1fe3497d538e5ca1c97fff0ff2d0ee7ded6f3d5c292df62000012102a108c22c475baad98904ae5978ef2bec18803434b1825e128ebe4a4f45e42e09", "asm": "304402202822df449cc461744e2129d717098cac2b5630f0e5a369b6f30c3be88be6d60a022060a526cf474d1d1fe3497d538e5ca1c97fff0ff2d0ee7ded6f3d5c292df62000[ALL] 02a108c22c475baad98904ae5978ef2bec18803434b1825e128ebe4a4f45e42e09"}, "vout": 0, "txid": "08657e3ab89b2c5dc5f23f6be0902defff6f1c6b4990548f4cdb3bba76c097fa"}, {"sequence": 4294967295, "scriptSig": {"hex": "47304402200f9f07f0705fde42ac72c7192c15c1389335e6f218dbcbf03270cd667a8285ad02200537864b2727bf92ed71b7ac76371422c9694b3f8d0c4ad839d5576271ff531a012103e4d399a9c4dbd04b30bc21e8a694ae442876d852fbb9e89b60f8f7715feb26fb", "asm": "304402200f9f07f0705fde42ac72c7192c15c1389335e6f218dbcbf03270cd667a8285ad02200537864b2727bf92ed71b7ac76371422c9694b3f8d0c4ad839d5576271ff531a[ALL] 03e4d399a9c4dbd04b30bc21e8a694ae442876d852fbb9e89b60f8f7715feb26fb"}, "vout": 0, "txid": "3a622924924562b6100e2d019b3a60c446ce4918531ce88817efc8a352f2022a"}, {"sequence": 4294967295, "scriptSig": {"hex": "4730440220184a98805311172f89eb5b0b409d01a3226035cf78e97d559bd1c5167e0f053802200ab2ca6db15e1fa095285513647f133618852fe0578ad3d57bec94e49ebefc470121038ea83c9de5e9bb8637e0eb5c64771f6bccf586b4e35cb856761c6d14c6a515e8", "asm": "30440220184a98805311172f89eb5b0b409d01a3226035cf78e97d559bd1c5167e0f053802200ab2ca6db15e1fa095285513647f133618852fe0578ad3d57bec94e49ebefc47[ALL] 038ea83c9de5e9bb8637e0eb5c64771f6bccf586b4e35cb856761c6d14c6a515e8"}, "vout": 0, "txid": "49d68e66e58d7f0b5d1df4cd823f01a1537e116e93e4aa0c05d683f13d492730"}, {"sequence": 4294967295, "scriptSig": {"hex": "483045022100bff9889954ab6e1f3c71f8b0b9a2937ef10a2ed7700037a08dc30c5d64f36b01022000a0c9cf1e2909a6003bfe06bb923e0862c9ab907c230c198a09e7730c969c6201210317ed917581f14cdc76ccc0334e6eb2415a4b57f0e55788f85093e655a814ac34", "asm": "3045022100bff9889954ab6e1f3c71f8b0b9a2937ef10a2ed7700037a08dc30c5d64f36b01022000a0c9cf1e2909a6003bfe06bb923e0862c9ab907c230c198a09e7730c969c62[ALL] 0317ed917581f14cdc76ccc0334e6eb2415a4b57f0e55788f85093e655a814ac34"}, "vout": 1, "txid": "53838731abda2bc55b016c151765ecf6be55e9867b9ebdd44b57cd7bb5a1b8e3"}, {"sequence": 4294967295, "scriptSig": {"hex": "4730440220763fb8be801cb5c03750924e0403e04fbd6b83cfed82d5b6de2514532b485bcf022014fdd1304e9a8ba25ea19c75d2944be8a5e31316167145dc961bdccd8746fcc001210327c5e0bd73132fa1dfd7e475205c4afd7082fb653b79e1f383ef47b12e8b4429", "asm": "30440220763fb8be801cb5c03750924e0403e04fbd6b83cfed82d5b6de2514532b485bcf022014fdd1304e9a8ba25ea19c75d2944be8a5e31316167145dc961bdccd8746fcc0[ALL] 0327c5e0bd73132fa1dfd7e475205c4afd7082fb653b79e1f383ef47b12e8b4429"}, "vout": 0, "txid": "6c942cccb7d49f4c787399183152bc7a7c35f3e182ec3f7b08b21fe98bc7d3a1"}, {"sequence": 4294967295, "scriptSig": {"hex": "483045022100b3fb91a618bb902d904b7db129c0cc9dac8453b6fce29fc873c5fe85fd3a203b02205f1e129a19abfc161dc7a5104c8c4e3e195073edb886d3bb28b0ac842cbea79301210260eeaa097d112e2d0f7a4bbb53cb6cb067f61bb0c50a0849f5433dc8863c42d6", "asm": "3045022100b3fb91a618bb902d904b7db129c0cc9dac8453b6fce29fc873c5fe85fd3a203b02205f1e129a19abfc161dc7a5104c8c4e3e195073edb886d3bb28b0ac842cbea793[ALL] 0260eeaa097d112e2d0f7a4bbb53cb6cb067f61bb0c50a0849f5433dc8863c42d6"}, "vout": 0, "txid": "953f58179b9dfbd28d5f55f14ab5614b36af7d7ccd86ed20e6d92e9756a63a7a"}, {"sequence": 4294967295, "scriptSig": {"hex": "483045022100d3db19ca416082dd2f5760185ca7812f1ef1a597f19914eac566852ddb33513c0220594281e55eda84e2f2e951c6bd5972f8d797eb9cc0bcb53ddc672a606d2c7759012103e39c4d4361674688a13a19ca13c7d20a9a86725ed03090f9c9ccc447c3981d45", "asm": "3045022100d3db19ca416082dd2f5760185ca7812f1ef1a597f19914eac566852ddb33513c0220594281e55eda84e2f2e951c6bd5972f8d797eb9cc0bcb53ddc672a606d2c7759[ALL] 03e39c4d4361674688a13a19ca13c7d20a9a86725ed03090f9c9ccc447c3981d45"}, "vout": 0, "txid": "a1952f2c97307c97e1d1793b80d48b932e7414249b9ac8c536d0b0115842ecff"}, {"sequence": 4294967295, "scriptSig": {"hex": "473044022000dea27986a9fa75441ee535d295a38198985f01166017706ed3553634f0e1760220500f2fe45c420fad3da936524cff37e3c63f3920b7d8264e2b0b668bd15e5fec0121020c4f0efa4fbbdb06fc27e60b04d17ebdd953b9dc35cd4e3684dd909ec1fefd1d", "asm": "3044022000dea27986a9fa75441ee535d295a38198985f01166017706ed3553634f0e1760220500f2fe45c420fad3da936524cff37e3c63f3920b7d8264e2b0b668bd15e5fec[ALL] 020c4f0efa4fbbdb06fc27e60b04d17ebdd953b9dc35cd4e3684dd909ec1fefd1d"}, "vout": 1, "txid": "ba86f77e628f901bd8418be6a3cf3af78eb68f1f307b7f1fcf81ba4306edb429"}, {"sequence": 4294967295, "scriptSig": {"hex": "4730440220196c6c97a5fc9c7c1826906c07ca572347d86251e61af3f6203d8eaad87ea1c802205b97243e83e1414f553b358613e7f1475644e3af231e2afa0c42e6eeff60d578012103e4d399a9c4dbd04b30bc21e8a694ae442876d852fbb9e89b60f8f7715feb26fb", "asm": "30440220196c6c97a5fc9c7c1826906c07ca572347d86251e61af3f6203d8eaad87ea1c802205b97243e83e1414f553b358613e7f1475644e3af231e2afa0c42e6eeff60d578[ALL] 03e4d399a9c4dbd04b30bc21e8a694ae442876d852fbb9e89b60f8f7715feb26fb"}, "vout": 0, "txid": "ce0061848440b56f97969ad92c3226fb2b71815a88c519692ffeea31b31bc84b"}, {"sequence": 4294967295, "scriptSig": {"hex": "47304402203a7530278c4b63eea319e7e3a0c69db7b02fc96b05d9e9521f4439a625fb4b7a0220639b4e6e51bcdad8833ce1a4b0ca5c9f4429822f771bc06f818f183b32a0a11901210367b737b8cd0832c3eba36ca2d2b6f79bb3d2a6c273a4ca2eb59e6d1d4ef50e36", "asm": "304402203a7530278c4b63eea319e7e3a0c69db7b02fc96b05d9e9521f4439a625fb4b7a0220639b4e6e51bcdad8833ce1a4b0ca5c9f4429822f771bc06f818f183b32a0a119[ALL] 0367b737b8cd0832c3eba36ca2d2b6f79bb3d2a6c273a4ca2eb59e6d1d4ef50e36"}, "vout": 0, "txid": "d286277f23567ed8946f1cdab421f6e1219698fc71c6050d8bdb36bbbef54eb6"}], "txid": "9aaaeddca39c933fe424a2e8b1ee891e053852b1ab106581d59fd392abc5b57c", "blocktime": 1537870564, "version": 1, "confirmations": 11515, "time": 1537870564, "locktime": 0, "vsize": 1551, "size": 1551}