{"hash": "9aab585caa27a19e0fe0db9b0c8303cfa6556932653079cd8880057e3b42b165", "blockhash": "00000000000000000004ffacab907a6b429b9a5745fa0b75af4234bf69dd7176", "vout": [{"scriptPubKey": {"reqSigs": 1, "hex": "76a914d243e6abb9a60fbff430b421d2df4b7d59ec186088ac", "addresses": ["1LAnF8h3qMGx3TSwNUHVneBZUEpwE4gu3D"], "asm": "OP_DUP OP_HASH160 d243e6abb9a60fbff430b421d2df4b7d59ec1860 OP_EQUALVERIFY OP_CHECKSIG", "type": "pubkeyhash"}, "value": 0.00077314, "n": 0}, {"scriptPubKey": {"reqSigs": 1, "hex": "76a914dce581e87407386ddaa4cf4253a5fd644bd9a96588ac", "addresses": ["1M8zbfHafHCcMWr3YfFergcqkUaPJQQe94"], "asm": "OP_DUP OP_HASH160 dce581e87407386ddaa4cf4253a5fd644bd9a965 OP_EQUALVERIFY OP_CHECKSIG", "type": "pubkeyhash"}, "value": 5.46e-06, "n": 1}, {"scriptPubKey": {"type": "nulldata", "hex": "6a146f6d6e69000000000000001f00000004bfbffea0", "asm": "OP_RETURN 6f6d6e69000000000000001f00000004bfbffea0"}, "value": 0.0, "n": 2}], "hex": "0100000001a4d16b838063ee9ad46ee4457ad074f1ae85ca5af300b40857021ecd6254734e000000006b483045022100d9ee4749bac19767c491508ab25e45fbfc1cf5f0cd8bc12dc489ea5d38d3afd00220567209eb0a0bb3d878fc7082182f44f0f003528a4d59e45294197cddc432e35501210271977291b74f1f5f5c42157e8aae804664eaaeccfd097918450d37f28fb94d77ffffffff03022e0100000000001976a914d243e6abb9a60fbff430b421d2df4b7d59ec186088ac22020000000000001976a914dce581e87407386ddaa4cf4253a5fd644bd9a96588ac0000000000000000166a146f6d6e69000000000000001f00000004bfbffea000000000", "vin": [{"sequence": 4294967295, "scriptSig": {"hex": "483045022100d9ee4749bac19767c491508ab25e45fbfc1cf5f0cd8bc12dc489ea5d38d3afd00220567209eb0a0bb3d878fc7082182f44f0f003528a4d59e45294197cddc432e35501210271977291b74f1f5f5c42157e8aae804664eaaeccfd097918450d37f28fb94d77", "asm": "3045022100d9ee4749bac19767c491508ab25e45fbfc1cf5f0cd8bc12dc489ea5d38d3afd00220567209eb0a0bb3d878fc7082182f44f0f003528a4d59e45294197cddc432e355[ALL] 0271977291b74f1f5f5c42157e8aae804664eaaeccfd097918450d37f28fb94d77"}, "vout": 0, "txid": "4e735462cd1e025708b400f35aca85aef174d07a45e46ed49aee6380836bd1a4"}], "txid": "9aab585caa27a19e0fe0db9b0c8303cfa6556932653079cd8880057e3b42b165", "blocktime": 1537875543, "version": 1, "confirmations": 11464, "time": 1537875543, "locktime": 0, "vsize": 257, "size": 257}