{"hash": "1cf50322a97675523094b91370c3c5c3eb5a8dd8a827642decd523ae1a74e4fe", "blockhash": "0000000000000000001f0ddff1eddb255c1121bcd4da4f1bc9a0da00cae72433", "vout": [{"scriptPubKey": {"reqSigs": 1, "hex": "a9146aafaf5743817b3833702b43fa3ea4045467dad787", "addresses": ["3BR81gR5KG5gT3WMZtyVm7jJhonrwgrufW"], "asm": "OP_HASH160 6aafaf5743817b3833702b43fa3ea4045467dad7 OP_EQUAL", "type": "scripthash"}, "value": 0.02732692, "n": 0}], "hex": "0100000000010170f270367ebfb2b14c8d1ec18277476357822ad0bedbc9835d1a72c2e862a3530100000017160014274a780c7390aaa90667efd6a684fcd437973ad4ffffffff0194b229000000000017a9146aafaf5743817b3833702b43fa3ea4045467dad787024830450221009744df85331d43e3afbf3cd4775c45bd511e3705ce067065fa7d4fe13d2ab083022029c7e624b3a9c123b0533584a048936c0d05063304f1aad545e595f6ae2a8d9e012103a20fa96d074f8312e4cec4a4b189155e81b79a258013ec3eaee9799deaebf49a00000000", "vin": [{"txinwitness": ["30450221009744df85331d43e3afbf3cd4775c45bd511e3705ce067065fa7d4fe13d2ab083022029c7e624b3a9c123b0533584a048936c0d05063304f1aad545e595f6ae2a8d9e01", "03a20fa96d074f8312e4cec4a4b189155e81b79a258013ec3eaee9799deaebf49a"], "sequence": 4294967295, "scriptSig": {"hex": "160014274a780c7390aaa90667efd6a684fcd437973ad4", "asm": "0014274a780c7390aaa90667efd6a684fcd437973ad4"}, "vout": 1, "txid": "53a362e8c2721a5d83c9dbbed02a825763477782c11e8d4cb1b2bf7e3670f270"}], "txid": "9aad5d7b9844090c5219ce61516f5523039bafd731991f9459fa2f18d1c9e21a", "blocktime": 1537872018, "version": 1, "confirmations": 11489, "time": 1537872018, "locktime": 0, "vsize": 134, "size": 216}