{"hash": "9ac42862b025cf458d87546db36ff7b125f1eae800bde09c2db7afd081526888", "blockhash": "0000000000000000001cda96e906b7601b7a6fb1a3b62bca570a9e5d8f4b3de1", "vout": [{"scriptPubKey": {"reqSigs": 1, "hex": "76a9145a1a64a7b52015c10106d2249423501475204b8c88ac", "addresses": ["19DRS6XdZfmTkhpCstJFpdhoH3KxAcHag1"], "asm": "OP_DUP OP_HASH160 5a1a64a7b52015c10106d2249423501475204b8c OP_EQUALVERIFY OP_CHECKSIG", "type": "pubkeyhash"}, "value": 0.00154283, "n": 0}, {"scriptPubKey": {"reqSigs": 1, "hex": "76a914b319380206fb1624c5c1e33890e65afdef757f7688ac", "addresses": ["1HKzAa214FaHe4RQRTRJ8rYxLxfAaqRYc3"], "asm": "OP_DUP OP_HASH160 b319380206fb1624c5c1e33890e65afdef757f76 OP_EQUALVERIFY OP_CHECKSIG", "type": "pubkeyhash"}, "value": 12.06711686, "n": 1}], "hex": "0100000001113c5fb84739b2b567d564d23890f0e1dd97b9ecb236cbb7c1201b070cbbe006010000006b4830450221009eb1028bcfebc1808c3471b1ee6ff5b16eb75c7d6daafa6148d4f47c76576fa3022045c9c384933a4ca20a07dd7fdf8ba4089d3e7a7356f2f47cf05747d52536241f012102fcac66cd41c7686a84e00a93272ac1a9ddc08f0cf9f1b791f4fd4c17c5f798fbffffffff02ab5a0200000000001976a9145a1a64a7b52015c10106d2249423501475204b8c88ac86f5ec47000000001976a914b319380206fb1624c5c1e33890e65afdef757f7688ac00000000", "vin": [{"sequence": 4294967295, "scriptSig": {"hex": "4830450221009eb1028bcfebc1808c3471b1ee6ff5b16eb75c7d6daafa6148d4f47c76576fa3022045c9c384933a4ca20a07dd7fdf8ba4089d3e7a7356f2f47cf05747d52536241f012102fcac66cd41c7686a84e00a93272ac1a9ddc08f0cf9f1b791f4fd4c17c5f798fb", "asm": "30450221009eb1028bcfebc1808c3471b1ee6ff5b16eb75c7d6daafa6148d4f47c76576fa3022045c9c384933a4ca20a07dd7fdf8ba4089d3e7a7356f2f47cf05747d52536241f[ALL] 02fcac66cd41c7686a84e00a93272ac1a9ddc08f0cf9f1b791f4fd4c17c5f798fb"}, "vout": 1, "txid": "06e0bb0c071b20c1b7cb36b2ecb997dde1f09038d264d567b5b23947b85f3c11"}], "txid": "9ac42862b025cf458d87546db36ff7b125f1eae800bde09c2db7afd081526888", "blocktime": 1537873282, "version": 1, "confirmations": 11480, "time": 1537873282, "locktime": 0, "vsize": 226, "size": 226}