{"hash": "4e7a7aebe2ac4466cc568518938a590d0124626866c40161f37e08fad550c89e", "blockhash": "0000000000000000000dcc0f55137456b1a82d3642486a52398922ac4d620174", "vout": [{"scriptPubKey": {"reqSigs": 1, "hex": "00143620ab6d2e851437536c1131726eb372eb514aa3", "addresses": ["bc1qxcs2kmfws52rw5mvzychym4nwt44zj4rq0lutl"], "asm": "0 3620ab6d2e851437536c1131726eb372eb514aa3", "type": "witness_v0_keyhash"}, "value": 0.00213699, "n": 0}, {"scriptPubKey": {"reqSigs": 1, "hex": "76a9149bb802d47c1226bf1df458b12b1c8b6ef427896788ac", "addresses": ["1FCNB3fYgtbxWhfa8oWZapEvMNoFq5pBZn"], "asm": "OP_DUP OP_HASH160 9bb802d47c1226bf1df458b12b1c8b6ef4278967 OP_EQUALVERIFY OP_CHECKSIG", "type": "pubkeyhash"}, "value": 0.034034, "n": 1}], "hex": "010000000001012e0d34b6671d159a4e2338c811937dfc88ed0ccf27a59fc95225dc1f1265d5960100000000ffffffff02c3420300000000001600143620ab6d2e851437536c1131726eb372eb514aa388ee3300000000001976a9149bb802d47c1226bf1df458b12b1c8b6ef427896788ac02473044022065b84b5c6dfaa613a1cdd422cd12294217c89522f6f45ca9a0b2b5158f707247022045d0c26a0edf41c51b5fff8782c6a0cd9a2c49b714fcaf2e22f38b4376b578e2012102723f3ba98c84ba2fdd9d72e38a612103873a31e8f4542504514f30eed097d35000000000", "vin": [{"txinwitness": ["3044022065b84b5c6dfaa613a1cdd422cd12294217c89522f6f45ca9a0b2b5158f707247022045d0c26a0edf41c51b5fff8782c6a0cd9a2c49b714fcaf2e22f38b4376b578e201", "02723f3ba98c84ba2fdd9d72e38a612103873a31e8f4542504514f30eed097d350"], "sequence": 4294967295, "scriptSig": {"hex": "", "asm": ""}, "vout": 1, "txid": "96d565121fdc2552c99fa527cf0ced88fc7d9311c838234e9a151d67b6340d2e"}], "txid": "9ac94e1e4690975d2bce292aca707b89e70a5ffebce6f06fbde685fd31c35fcc", "blocktime": 1537870268, "version": 1, "confirmations": 11518, "time": 1537870268, "locktime": 0, "vsize": 144, "size": 225}