{"hash": "0fc822a5fe74716739372bb882f4e32bd8c18626d473083477b29bb5a2d82908", "blockhash": "00000000000000000024a2167bbff67b0be802c0b01cdd79e6331c2be6459f87", "vout": [{"scriptPubKey": {"reqSigs": 1, "hex": "a9140e542f54d28e0e867e842c54defdf95cd1c1e62787", "addresses": ["32znEVqLjSDnDZghV14BZTXi3rpkgT27bR"], "asm": "OP_HASH160 0e542f54d28e0e867e842c54defdf95cd1c1e627 OP_EQUAL", "type": "scripthash"}, "value": 0.25418192, "n": 0}, {"scriptPubKey": {"reqSigs": 1, "hex": "76a914b1d6e34cd5988054488608e8bde17b8957e0765c88ac", "addresses": ["1HDL2dLFoxzXuvEpYPx8K1VimfGWPvCQ1b"], "asm": "OP_DUP OP_HASH160 b1d6e34cd5988054488608e8bde17b8957e0765c OP_EQUALVERIFY OP_CHECKSIG", "type": "pubkeyhash"}, "value": 0.18268814, "n": 1}], "hex": "02000000000101c61bb7e2660f7bc66f51db1e0011f70e07bc703ac0e222785542da4871aca4a60000000017160014640053e16f193f3b80e20601e23cf1318377affafeffffff02d0d983010000000017a9140e542f54d28e0e867e842c54defdf95cd1c1e627878ec21601000000001976a914b1d6e34cd5988054488608e8bde17b8957e0765c88ac02483045022100ad36bbbf1505f1fdf28f1ddb1a3a40ce9b85be2f42e5de9f5935c18ffb783d0e022045367728064d3a7762195fa28cc00ac48c61a624f4135448e9e6825194c813ac01210256e11e2d933c4966479837b53f077fcd264df69300c9f2b6a5936ce71749ff320d490800", "vin": [{"txinwitness": ["3045022100ad36bbbf1505f1fdf28f1ddb1a3a40ce9b85be2f42e5de9f5935c18ffb783d0e022045367728064d3a7762195fa28cc00ac48c61a624f4135448e9e6825194c813ac01", "0256e11e2d933c4966479837b53f077fcd264df69300c9f2b6a5936ce71749ff32"], "sequence": 4294967294, "scriptSig": {"hex": "160014640053e16f193f3b80e20601e23cf1318377affa", "asm": "0014640053e16f193f3b80e20601e23cf1318377affa"}, "vout": 0, "txid": "a6a4ac7148da42557822e2c03a70bc070ef711001edb516fc67b0f66e2b71bc6"}], "txid": "9acbf54e626db3fb93a6c673c6118f13458aa7f596236ed7c7b75d4cfaeafc77", "blocktime": 1537870564, "version": 2, "confirmations": 11515, "time": 1537870564, "locktime": 542989, "vsize": 168, "size": 250}