{"hash": "b43e33edac20c89baf69a90ca6d6e4cca1f4434bb9aa3a43e7e1484b9fa30da4", "blockhash": "0000000000000000001cda96e906b7601b7a6fb1a3b62bca570a9e5d8f4b3de1", "vout": [{"scriptPubKey": {"reqSigs": 1, "hex": "a9141de5f22d63648adc836ac8f56671af88a23fef0487", "addresses": ["34R6z31DKobjAnvTG2BWanS2SCwCWeMhia"], "asm": "OP_HASH160 1de5f22d63648adc836ac8f56671af88a23fef04 OP_EQUAL", "type": "scripthash"}, "value": 0.01, "n": 0}, {"scriptPubKey": {"reqSigs": 1, "hex": "a9143e9f9c9d66c3314a9a104362ce2c46716eeb994787", "addresses": ["37Q92TWfNVjYsTZLYAXsWkX3QrNzPVEHgc"], "asm": "OP_HASH160 3e9f9c9d66c3314a9a104362ce2c46716eeb9947 OP_EQUAL", "type": "scripthash"}, "value": 0.01210481, "n": 1}], "hex": "020000000001029e4eac835ed39c3a41eb637c5def220a51a330aba186301861bd25722e812acc0000000017160014c26d689f2cdf2698f3e72ceace0907bbd8caf669feffffffc3e8968408cdf7ebdbb39cc107471aaafa53d36de75f5c735f7b3dd03d4d69560000000017160014e3e5b791b872e2ce6ed93f33583c1a861125bdc1feffffff0240420f000000000017a9141de5f22d63648adc836ac8f56671af88a23fef0487717812000000000017a9143e9f9c9d66c3314a9a104362ce2c46716eeb994787024730440220380634f4512855ac90ddcfdff775b70f1c00adb46c004867bdd1e50f3ec8b33302203d258abe88b67febf469d832a8ebf04cb01a74d40a60a267a5eff993552476a501210293ec1ece461a5a2f5d0341052b155fc808edbf95a47b2051d37906fdcd6a71020247304402202f05676834913fe3799b80c96fd84d59909540ea54f06dfcec155c0faf3baed102204b8a851f4a351153c09c7d4c3d9f5fddb1eebc47512a122ed4755c013e0006d20121035ade27b20c0dd295fb55c7d5fc96941d5d7f29302b0aa57b807929a9f7541288fc480800", "vin": [{"txinwitness": ["30440220380634f4512855ac90ddcfdff775b70f1c00adb46c004867bdd1e50f3ec8b33302203d258abe88b67febf469d832a8ebf04cb01a74d40a60a267a5eff993552476a501", "0293ec1ece461a5a2f5d0341052b155fc808edbf95a47b2051d37906fdcd6a7102"], "sequence": 4294967294, "scriptSig": {"hex": "160014c26d689f2cdf2698f3e72ceace0907bbd8caf669", "asm": "0014c26d689f2cdf2698f3e72ceace0907bbd8caf669"}, "vout": 0, "txid": "cc2a812e7225bd61183086a1ab30a3510a22ef5d7c63eb413a9cd35e83ac4e9e"}, {"txinwitness": ["304402202f05676834913fe3799b80c96fd84d59909540ea54f06dfcec155c0faf3baed102204b8a851f4a351153c09c7d4c3d9f5fddb1eebc47512a122ed4755c013e0006d201", "035ade27b20c0dd295fb55c7d5fc96941d5d7f29302b0aa57b807929a9f7541288"], "sequence": 4294967294, "scriptSig": {"hex": "160014e3e5b791b872e2ce6ed93f33583c1a861125bdc1", "asm": "0014e3e5b791b872e2ce6ed93f33583c1a861125bdc1"}, "vout": 0, "txid": "56694d3dd03d7b5f735c5fe76dd353faaa1a4707c19cb3dbebf7cd088496e8c3"}], "txid": "9ace94135b9077fe2bdbeaaf4f3e8d7dbe0cec6ceaf139c84181863313af27eb", "blocktime": 1537873282, "version": 2, "confirmations": 11485, "time": 1537873282, "locktime": 542972, "vsize": 256, "size": 418}