{"hash": "9ad191d9b31dc2eb35aba9a355cc6c6c69180feb35cb4d60870efca8e9a2d95a", "blockhash": "0000000000000000000baef3f32e3676a92c3b2e5da21b426e4f302fc371ce76", "vout": [{"scriptPubKey": {"reqSigs": 1, "hex": "76a914b93d232c68e936370555ef13995a3c17fc4ac74488ac", "addresses": ["1HtTFPawWxAfMEVM5cs659Kqjd9nzsdMMz"], "asm": "OP_DUP OP_HASH160 b93d232c68e936370555ef13995a3c17fc4ac744 OP_EQUALVERIFY OP_CHECKSIG", "type": "pubkeyhash"}, "value": 0.00910631, "n": 0}, {"scriptPubKey": {"reqSigs": 1, "hex": "76a9142220f92e8b1f12615f2f786ee6e4be806d4f6ad788ac", "addresses": ["147TUZ1bCd5LTeBPa1BihoH8CQqPkSmLkg"], "asm": "OP_DUP OP_HASH160 2220f92e8b1f12615f2f786ee6e4be806d4f6ad7 OP_EQUALVERIFY OP_CHECKSIG", "type": "pubkeyhash"}, "value": 0.01548343, "n": 1}, {"scriptPubKey": {"reqSigs": 1, "hex": "76a914a0e1d436dbc93b4fcf7cb23a0e01c8d738db080e88ac", "addresses": ["1FffeZj5MAVGc1Mi5twLv4XyPgwBZ5obt3"], "asm": "OP_DUP OP_HASH160 a0e1d436dbc93b4fcf7cb23a0e01c8d738db080e OP_EQUALVERIFY OP_CHECKSIG", "type": "pubkeyhash"}, "value": 0.01567738, "n": 2}, {"scriptPubKey": {"reqSigs": 1, "hex": "76a914a2f65e92a612df421f338c14adecafebc4e0385788ac", "addresses": ["1Frfc8D7JnWGatcaBvJM7z3y6XMLuVgiCU"], "asm": "OP_DUP OP_HASH160 a2f65e92a612df421f338c14adecafebc4e03857 OP_EQUALVERIFY OP_CHECKSIG", "type": "pubkeyhash"}, "value": 0.0165629, "n": 3}], "hex": "0100000001a51380425e08d7ce45ac4840e2fbf2c9ad2c2c267c41ffac6f4801d6e77747eb010000006a47304402203c8caae2326a1363eceee0f10f977acc1c11ce3a14d57191bd9146c343b9ba1b022057799ec8ba9172d3e0927b10bd447eed7059884c8c31fcb33d81de9f0d07ddf201210300efdcfdf267a48247bb30ee54dfa90c492a5765ea81a27fd29be575da42a29cfdffffff0427e50d00000000001976a914b93d232c68e936370555ef13995a3c17fc4ac74488ac37a01700000000001976a9142220f92e8b1f12615f2f786ee6e4be806d4f6ad788acfaeb1700000000001976a914a0e1d436dbc93b4fcf7cb23a0e01c8d738db080e88ace2451900000000001976a914a2f65e92a612df421f338c14adecafebc4e0385788ac17490800", "vin": [{"sequence": 4294967293, "scriptSig": {"hex": "47304402203c8caae2326a1363eceee0f10f977acc1c11ce3a14d57191bd9146c343b9ba1b022057799ec8ba9172d3e0927b10bd447eed7059884c8c31fcb33d81de9f0d07ddf201210300efdcfdf267a48247bb30ee54dfa90c492a5765ea81a27fd29be575da42a29c", "asm": "304402203c8caae2326a1363eceee0f10f977acc1c11ce3a14d57191bd9146c343b9ba1b022057799ec8ba9172d3e0927b10bd447eed7059884c8c31fcb33d81de9f0d07ddf2[ALL] 0300efdcfdf267a48247bb30ee54dfa90c492a5765ea81a27fd29be575da42a29c"}, "vout": 1, "txid": "eb4777e7d601486facff417c262c2cadc9f2fbe24048ac45ced7085e428013a5"}], "txid": "9ad191d9b31dc2eb35aba9a355cc6c6c69180feb35cb4d60870efca8e9a2d95a", "blocktime": 1537876114, "version": 1, "confirmations": 11460, "time": 1537876114, "locktime": 542999, "vsize": 293, "size": 293}