{"hash": "9ae3631de89fc2538f4020c716b4790dffb098cc909b8c5fa74abcb7788943dc", "blockhash": "0000000000000000000e13cef7c366c0283d82e591d1acd082e914b08063cdf1", "vout": [{"scriptPubKey": {"reqSigs": 1, "hex": "a9148cb19d6e796f9d2c26547f1c4e5cafbda4f2ad6887", "addresses": ["3EWwJJboqLVpfA1TaJk653WUzDA8MwaGDY"], "asm": "OP_HASH160 8cb19d6e796f9d2c26547f1c4e5cafbda4f2ad68 OP_EQUAL", "type": "scripthash"}, "value": 0.0003, "n": 0}, {"scriptPubKey": {"reqSigs": 1, "hex": "76a914bef24e2269e51dbb5ec069a9796c8302b9c2da6488ac", "addresses": ["1JQdf7L1tmjsV85uJeAj9ag3JUN8uveLfn"], "asm": "OP_DUP OP_HASH160 bef24e2269e51dbb5ec069a9796c8302b9c2da64 OP_EQUALVERIFY OP_CHECKSIG", "type": "pubkeyhash"}, "value": 0.23064608, "n": 1}], "hex": "0100000001e068fa434c8b9416b5ac886235e1ea58aeeccb06569a6c47ecaaaf63fc7b40bf010000006a473044022043b251279e9bd2afb9c7f3d29e4b52544628a4416f13e754fb9fe7d423eafdee022027b287a2576bedfa3750a0cc99c19badc41172c1be12a03cea3fe1594da94f4e0121021a1b40752496dd64bbdc5e5bf945932ae278749b81b1ddcb2a1fb8d77e50231dfdffffff02307500000000000017a9148cb19d6e796f9d2c26547f1c4e5cafbda4f2ad688720f05f01000000001976a914bef24e2269e51dbb5ec069a9796c8302b9c2da6488ac10490800", "vin": [{"sequence": 4294967293, "scriptSig": {"hex": "473044022043b251279e9bd2afb9c7f3d29e4b52544628a4416f13e754fb9fe7d423eafdee022027b287a2576bedfa3750a0cc99c19badc41172c1be12a03cea3fe1594da94f4e0121021a1b40752496dd64bbdc5e5bf945932ae278749b81b1ddcb2a1fb8d77e50231d", "asm": "3044022043b251279e9bd2afb9c7f3d29e4b52544628a4416f13e754fb9fe7d423eafdee022027b287a2576bedfa3750a0cc99c19badc41172c1be12a03cea3fe1594da94f4e[ALL] 021a1b40752496dd64bbdc5e5bf945932ae278749b81b1ddcb2a1fb8d77e50231d"}, "vout": 1, "txid": "bf407bfc63afaaec476c9a5606cbecae58eae1356288acb516948b4c43fa68e0"}], "txid": "9ae3631de89fc2538f4020c716b4790dffb098cc909b8c5fa74abcb7788943dc", "blocktime": 1537871767, "version": 1, "confirmations": 11491, "time": 1537871767, "locktime": 542992, "vsize": 223, "size": 223}