{"hash": "9aef93f0f41519de81b637b348e686f40776423071bdd41b7761f1c8ed52ca55", "blockhash": "0000000000000000001f76057863aec43deb6fa401d9628bb513d65a8098bfab", "vout": [{"scriptPubKey": {"reqSigs": 1, "hex": "a914e20f1afbce8d89f396811b859836fc34993ee6ba87", "addresses": ["3NJJjSSERkrJArXJP7Pb7yGTuB9pnu8Wza"], "asm": "OP_HASH160 e20f1afbce8d89f396811b859836fc34993ee6ba OP_EQUAL", "type": "scripthash"}, "value": 0.00787984, "n": 0}, {"scriptPubKey": {"reqSigs": 1, "hex": "a91444523b5a149ef4564bce174791f413d9a8c4604e87", "addresses": ["37vGPA3vbrtkSRM4YvEJhHfNB11iLLTcRP"], "asm": "OP_HASH160 44523b5a149ef4564bce174791f413d9a8c4604e OP_EQUAL", "type": "scripthash"}, "value": 0.0037996, "n": 1}, {"scriptPubKey": {"reqSigs": 1, "hex": "a91481f72d5ad4649ce039d31c429ed1596ea5885c4487", "addresses": ["3DYDCTfWEwh64aTBL6NLBLygzgbaVe84iw"], "asm": "OP_HASH160 81f72d5ad4649ce039d31c429ed1596ea5885c44 OP_EQUAL", "type": "scripthash"}, "value": 0.002245, "n": 2}, {"scriptPubKey": {"reqSigs": 1, "hex": "a91499b99aa70e573a2d77ddad8a8798b9c3a587175b87", "addresses": ["3FhqetnCMSVEi48LjVX9QnV7WAg7bBw594"], "asm": "OP_HASH160 99b99aa70e573a2d77ddad8a8798b9c3a587175b OP_EQUAL", "type": "scripthash"}, "value": 0.00124793, "n": 3}, {"scriptPubKey": {"reqSigs": 1, "hex": "a914581f38d03155991551b02c40587e06d4a8b2824b87", "addresses": ["39ixnmAk6ytF7WC18YKUtkjK1NXAUT95z6"], "asm": "OP_HASH160 581f38d03155991551b02c40587e06d4a8b2824b OP_EQUAL", "type": "scripthash"}, "value": 0.0047076, "n": 4}], "hex": "0200000003618555ced92c0bd9d2f7d40c000b62a51135a4c21c73afbe41edf89452fe05f6000000006b483045022100f3105becdf4d4df2b74874c5ea90c0eeb70f703193ae40d1ac06661adf6ba43b022009ad6553e98792ab2508cdb589f6d3b9a0dc02da98ee8fadc0c66b86cbe1eada0121027b8d92639e3bf6f47de27c3b8ad8cdc99d6885ec1511f041c645a9b3a3d4b9e1feffffff82f7bf7379d433fde9d335a02696e4d6642b00c479145120dea2fcebc771d032010000006a47304402203a152a73786adb1b4f3489b9e7c521ccfad9359781ad066b49a2d4dda6f96b6902205458d244ff7568346823686d043a7eacb76381cb00917cfe3adedd91439aa0f20121032861c6e79ff87d4f4ee68ad8eed6402d74f34142e289a2836f91d99ba06c83b3feffffffc0ffe871618f097d6ab6a25e524768eda604752123a3d4d5c350203265c05169020100006b483045022100d9345011a8da4c1774183b342e97be11c134e08cb8cd0a97d0a16d006c95864902205655b439c0d010b42a2dd2f24bf065441762d32855f8d63e74fe7007fd32ecf20121039fde734d258e19838c707edc184e3e42e03a316b21aa4bd3bdad27c662531f63feffffff0510060c000000000017a914e20f1afbce8d89f396811b859836fc34993ee6ba8738cc05000000000017a91444523b5a149ef4564bce174791f413d9a8c4604e87f46c03000000000017a91481f72d5ad4649ce039d31c429ed1596ea5885c448779e701000000000017a91499b99aa70e573a2d77ddad8a8798b9c3a587175b87e82e07000000000017a914581f38d03155991551b02c40587e06d4a8b2824b8714490800", "vin": [{"sequence": 4294967294, "scriptSig": {"hex": "483045022100f3105becdf4d4df2b74874c5ea90c0eeb70f703193ae40d1ac06661adf6ba43b022009ad6553e98792ab2508cdb589f6d3b9a0dc02da98ee8fadc0c66b86cbe1eada0121027b8d92639e3bf6f47de27c3b8ad8cdc99d6885ec1511f041c645a9b3a3d4b9e1", "asm": "3045022100f3105becdf4d4df2b74874c5ea90c0eeb70f703193ae40d1ac06661adf6ba43b022009ad6553e98792ab2508cdb589f6d3b9a0dc02da98ee8fadc0c66b86cbe1eada[ALL] 027b8d92639e3bf6f47de27c3b8ad8cdc99d6885ec1511f041c645a9b3a3d4b9e1"}, "vout": 0, "txid": "f605fe5294f8ed41beaf731cc2a43511a5620b000cd4f7d2d90b2cd9ce558561"}, {"sequence": 4294967294, "scriptSig": {"hex": "47304402203a152a73786adb1b4f3489b9e7c521ccfad9359781ad066b49a2d4dda6f96b6902205458d244ff7568346823686d043a7eacb76381cb00917cfe3adedd91439aa0f20121032861c6e79ff87d4f4ee68ad8eed6402d74f34142e289a2836f91d99ba06c83b3", "asm": "304402203a152a73786adb1b4f3489b9e7c521ccfad9359781ad066b49a2d4dda6f96b6902205458d244ff7568346823686d043a7eacb76381cb00917cfe3adedd91439aa0f2[ALL] 032861c6e79ff87d4f4ee68ad8eed6402d74f34142e289a2836f91d99ba06c83b3"}, "vout": 1, "txid": "32d071c7ebfca2de20511479c4002b64d6e49626a035d3e9fd33d47973bff782"}, {"sequence": 4294967294, "scriptSig": {"hex": "483045022100d9345011a8da4c1774183b342e97be11c134e08cb8cd0a97d0a16d006c95864902205655b439c0d010b42a2dd2f24bf065441762d32855f8d63e74fe7007fd32ecf20121039fde734d258e19838c707edc184e3e42e03a316b21aa4bd3bdad27c662531f63", "asm": "3045022100d9345011a8da4c1774183b342e97be11c134e08cb8cd0a97d0a16d006c95864902205655b439c0d010b42a2dd2f24bf065441762d32855f8d63e74fe7007fd32ecf2[ALL] 039fde734d258e19838c707edc184e3e42e03a316b21aa4bd3bdad27c662531f63"}, "vout": 258, "txid": "6951c065322050c3d5d4a323217504a6ed6847525ea2b66a7d098f6171e8ffc0"}], "txid": "9aef93f0f41519de81b637b348e686f40776423071bdd41b7761f1c8ed52ca55", "blocktime": 1537873891, "version": 2, "confirmations": 11478, "time": 1537873891, "locktime": 542996, "vsize": 613, "size": 613}