{"hash": "4db1aa4aef064a02759d32c72d428e84781faafab99d94ec85b4e1097b1ed2e5", "blockhash": "0000000000000000001cda96e906b7601b7a6fb1a3b62bca570a9e5d8f4b3de1", "vout": [{"scriptPubKey": {"reqSigs": 1, "hex": "001474b480513fb7b8107eac6f7eb500ebb4aba0fa39", "addresses": ["bc1qwj6gq5flk7upql4vdalt2q8tkj46p73em96h98"], "asm": "0 74b480513fb7b8107eac6f7eb500ebb4aba0fa39", "type": "witness_v0_keyhash"}, "value": 1.818e-05, "n": 0}, {"scriptPubKey": {"reqSigs": 1, "hex": "a91413aaf952a6f508720a2b9a566db4332f3dc8dad487", "addresses": ["33V1afVtJpErXx5tXfjyQeRS4xfk2hdZkj"], "asm": "OP_HASH160 13aaf952a6f508720a2b9a566db4332f3dc8dad4 OP_EQUAL", "type": "scripthash"}, "value": 0.000931, "n": 1}], "hex": "01000000000101576a8b41343c8caa68f3dada603a541647280d94dc023e86225627495fad6b590000000000ffffffff021a0700000000000016001474b480513fb7b8107eac6f7eb500ebb4aba0fa39ac6b01000000000017a91413aaf952a6f508720a2b9a566db4332f3dc8dad4870247304402201941d25791b8ef1e07061910d4b0dad5230f1c3be15681b0adc0184b0126c4f8022058a436a6608ab0bc3f82309a8805429bcccecd21a824a6fbf2b7be90635f85f801210277f92399b8d47a939b1262a746b7c4d85a451e675eb3cc2ab42706edbb21c13900000000", "vin": [{"txinwitness": ["304402201941d25791b8ef1e07061910d4b0dad5230f1c3be15681b0adc0184b0126c4f8022058a436a6608ab0bc3f82309a8805429bcccecd21a824a6fbf2b7be90635f85f801", "0277f92399b8d47a939b1262a746b7c4d85a451e675eb3cc2ab42706edbb21c139"], "sequence": 4294967295, "scriptSig": {"hex": "", "asm": ""}, "vout": 0, "txid": "596bad5f49275622863e02dc940d284716543a60dadaf368aa8c3c34418b6a57"}], "txid": "9af9235791099e47686a70da24ea139045b7c0e15ccf8f75d6ac3466fbcf9fa6", "blocktime": 1537873282, "version": 1, "confirmations": 11484, "time": 1537873282, "locktime": 0, "vsize": 142, "size": 223}