{"hash": "9af92e28aa2c1ef68a1c7007efd4651fa525a268db089e14a99dab5fd8ee0378", "blockhash": "00000000000000000018f53835495a110e01622372bf6ae95dc86f2b0ab887b0", "vout": [{"scriptPubKey": {"reqSigs": 1, "hex": "76a91480c19f6adec63d6d0b9354bcc32235f9d6008ae488ac", "addresses": ["1CjoShRqbtFQESfkSHLbs4tcKbZZwvDY5K"], "asm": "OP_DUP OP_HASH160 80c19f6adec63d6d0b9354bcc32235f9d6008ae4 OP_EQUALVERIFY OP_CHECKSIG", "type": "pubkeyhash"}, "value": 0.00241313, "n": 0}, {"scriptPubKey": {"reqSigs": 1, "hex": "76a914231ff32bbb085409d0f4cdc25353ce66f5202db888ac", "addresses": ["14Civdbu4u3qD93Xf1fdM7Cvd6pVwijiGM"], "asm": "OP_DUP OP_HASH160 231ff32bbb085409d0f4cdc25353ce66f5202db8 OP_EQUALVERIFY OP_CHECKSIG", "type": "pubkeyhash"}, "value": 0.0037496, "n": 1}], "hex": "010000000211a1be579d7e995ff0e9eef9e6661c17d0b2a73e44c2fb80e18da6c56f62941d000000006b483045022100868c58bb4984c841bddbf7adb8801295f8f0c4dd57c56cf37f8ee3bc9c6c7549022072deb2bb743568e475a5ae8d5ce8960191f5dc52de5d8b793f78a605e58d00610121025138dadcc26e583ac5e4cb8b6e2a834aa68b1292021522c39de72da080e48c61ffffffff20f39162ea3648151f062f685a199538c04b1771d80e6e6a05e9fd4704e5dc2d010000006a473044022041243cbf5cb4cdde97557abc8bed68774c4a5dd55dc7fc4bed2a1f0bb5dc30cf02202051def5b76f0bb7246b452a4c7945714a7121b07b60949639c5df1f25e447af012102f9b64da48b430f0ca405cfb681a0586632dbd6c96d9aaff0c2ea9acafc9839d7ffffffff02a1ae0300000000001976a91480c19f6adec63d6d0b9354bcc32235f9d6008ae488acb0b80500000000001976a914231ff32bbb085409d0f4cdc25353ce66f5202db888ac00000000", "vin": [{"sequence": 4294967295, "scriptSig": {"hex": "483045022100868c58bb4984c841bddbf7adb8801295f8f0c4dd57c56cf37f8ee3bc9c6c7549022072deb2bb743568e475a5ae8d5ce8960191f5dc52de5d8b793f78a605e58d00610121025138dadcc26e583ac5e4cb8b6e2a834aa68b1292021522c39de72da080e48c61", "asm": "3045022100868c58bb4984c841bddbf7adb8801295f8f0c4dd57c56cf37f8ee3bc9c6c7549022072deb2bb743568e475a5ae8d5ce8960191f5dc52de5d8b793f78a605e58d0061[ALL] 025138dadcc26e583ac5e4cb8b6e2a834aa68b1292021522c39de72da080e48c61"}, "vout": 0, "txid": "1d94626fc5a68de180fbc2443ea7b2d0171c66e6f9eee9f05f997e9d57bea111"}, {"sequence": 4294967295, "scriptSig": {"hex": "473044022041243cbf5cb4cdde97557abc8bed68774c4a5dd55dc7fc4bed2a1f0bb5dc30cf02202051def5b76f0bb7246b452a4c7945714a7121b07b60949639c5df1f25e447af012102f9b64da48b430f0ca405cfb681a0586632dbd6c96d9aaff0c2ea9acafc9839d7", "asm": "3044022041243cbf5cb4cdde97557abc8bed68774c4a5dd55dc7fc4bed2a1f0bb5dc30cf02202051def5b76f0bb7246b452a4c7945714a7121b07b60949639c5df1f25e447af[ALL] 02f9b64da48b430f0ca405cfb681a0586632dbd6c96d9aaff0c2ea9acafc9839d7"}, "vout": 1, "txid": "2ddce50447fde9056a6e0ed871174bc03895195a682f061f154836ea6291f320"}], "txid": "9af92e28aa2c1ef68a1c7007efd4651fa525a268db089e14a99dab5fd8ee0378", "blocktime": 1537870928, "version": 1, "confirmations": 11514, "time": 1537870928, "locktime": 0, "vsize": 373, "size": 373}