{"hash": "9afabe5e28d4ab9485ddd2e6eac3248463a8c363d739f8da2250d19dd0037fae", "blockhash": "0000000000000000000dcc0f55137456b1a82d3642486a52398922ac4d620174", "vout": [{"scriptPubKey": {"reqSigs": 1, "hex": "76a9148676d65e5339f2f6fa070020d6c10e9461badab288ac", "addresses": ["1DFyufv9F5nckHNkgu4koSP8MK2cDRsgZu"], "asm": "OP_DUP OP_HASH160 8676d65e5339f2f6fa070020d6c10e9461badab2 OP_EQUALVERIFY OP_CHECKSIG", "type": "pubkeyhash"}, "value": 0.00036051, "n": 0}, {"scriptPubKey": {"reqSigs": 1, "hex": "a914c630c65ddc53591ba09474a9af9172578dfe6f0b87", "addresses": ["3Kkx9Tqb32EbSuTt4Pe5JrMDSUsnbbg16R"], "asm": "OP_HASH160 c630c65ddc53591ba09474a9af9172578dfe6f0b OP_EQUAL", "type": "scripthash"}, "value": 0.00202593, "n": 1}], "hex": "010000000102a658c8b2f9b7089b8c32bd5bdf07f0eaf43951570eebe86a15cd8e89d19aa8010000006a4730440220341dfefaaaaed04f4a0d160fca50da46c1b30bdc2eac918c8d7b6e16d7ea3c1e02205dbbdbdcaba645922e669a2a97b45b796e5656de184d5e1a64eb365636aa1e1a012102496592079e472c1dc69ca11455a87a378ef295a96aaf4dda456937095b503af7ffffffff02d38c0000000000001976a9148676d65e5339f2f6fa070020d6c10e9461badab288ac611703000000000017a914c630c65ddc53591ba09474a9af9172578dfe6f0b8700000000", "vin": [{"sequence": 4294967295, "scriptSig": {"hex": "4730440220341dfefaaaaed04f4a0d160fca50da46c1b30bdc2eac918c8d7b6e16d7ea3c1e02205dbbdbdcaba645922e669a2a97b45b796e5656de184d5e1a64eb365636aa1e1a012102496592079e472c1dc69ca11455a87a378ef295a96aaf4dda456937095b503af7", "asm": "30440220341dfefaaaaed04f4a0d160fca50da46c1b30bdc2eac918c8d7b6e16d7ea3c1e02205dbbdbdcaba645922e669a2a97b45b796e5656de184d5e1a64eb365636aa1e1a[ALL] 02496592079e472c1dc69ca11455a87a378ef295a96aaf4dda456937095b503af7"}, "vout": 1, "txid": "a89ad1898ecd156ae8eb0e575139f4eaf007df5bbd328c9b08b7f9b2c858a602"}], "txid": "9afabe5e28d4ab9485ddd2e6eac3248463a8c363d739f8da2250d19dd0037fae", "blocktime": 1537870268, "version": 1, "confirmations": 11518, "time": 1537870268, "locktime": 0, "vsize": 223, "size": 223}