{"hash": "9cec439c5eb81690bffce8c3b077fe00162e3ee14f9c29eb6acac5a40cc1a883", "blockhash": "0000000000000000001cda96e906b7601b7a6fb1a3b62bca570a9e5d8f4b3de1", "vout": [{"scriptPubKey": {"reqSigs": 1, "hex": "00145396ee3e4be17c6183a1c2bb3236fe3e71360598", "addresses": ["bc1q2wtwu0jtu97xrqapc2anydh78ecnvpvcqythqq"], "asm": "0 5396ee3e4be17c6183a1c2bb3236fe3e71360598", "type": "witness_v0_keyhash"}, "value": 0.02667662, "n": 0}, {"scriptPubKey": {"reqSigs": 1, "hex": "76a914f253df97584de85ad32665a79324d65fc766ab8588ac", "addresses": ["1P6K13rRKvVdSJWciRUiMCQHfPUF7PuSxX"], "asm": "OP_DUP OP_HASH160 f253df97584de85ad32665a79324d65fc766ab85 OP_EQUALVERIFY OP_CHECKSIG", "type": "pubkeyhash"}, "value": 1.56176792, "n": 1}], "hex": "010000000001017c51977df84581752834cb6faf6f75d61a97a0c84697a3e1ffd7f6dcbbff122b0100000000ffffffff028eb42800000000001600145396ee3e4be17c6183a1c2bb3236fe3e7136059898114f09000000001976a914f253df97584de85ad32665a79324d65fc766ab8588ac0247304402207f048d6014ff2f408bd020ff1e472b7076d4953ee1ec58ed8fc73cd4312f58a50220569b7a9b9be5f4f56cb085058b5384071c3ecd305e998cb4ccd3625773d63dd10121031e4993a81fb4b3c2ed79dd009c9cff7547c9e6bf9d1d7cfd51d7dc221d2fa5b800000000", "vin": [{"txinwitness": ["304402207f048d6014ff2f408bd020ff1e472b7076d4953ee1ec58ed8fc73cd4312f58a50220569b7a9b9be5f4f56cb085058b5384071c3ecd305e998cb4ccd3625773d63dd101", "031e4993a81fb4b3c2ed79dd009c9cff7547c9e6bf9d1d7cfd51d7dc221d2fa5b8"], "sequence": 4294967295, "scriptSig": {"hex": "", "asm": ""}, "vout": 1, "txid": "2b12ffbbdcf6d7ffe1a39746c8a0971ad6756faf6fcb3428758145f87d97517c"}], "txid": "9afc9ab8280f5a431043246bcab9649335111e3085c88abc937de7f9919a4d51", "blocktime": 1537873282, "version": 1, "confirmations": 11484, "time": 1537873282, "locktime": 0, "vsize": 144, "size": 225}