{"hash": "9aff0627323e731b85b81aabd0c44fd38ba9b129652e7c090163fcd1ca716192", "blockhash": "0000000000000000000baef3f32e3676a92c3b2e5da21b426e4f302fc371ce76", "vout": [{"scriptPubKey": {"reqSigs": 1, "hex": "a914b0bca1f31623ea8b5ab9a562e45069574e23b48787", "addresses": ["3HoWpjHJW8FJ3w7HPmBwoWgSUMNM9tEien"], "asm": "OP_HASH160 b0bca1f31623ea8b5ab9a562e45069574e23b487 OP_EQUAL", "type": "scripthash"}, "value": 0.003527, "n": 0}, {"scriptPubKey": {"reqSigs": 1, "hex": "76a914865e7e98d1b51272ac6954d14bda645b680257ab88ac", "addresses": ["1DFUkJNo6Scf1p46TiWzQ3QvbGrSYCwZUU"], "asm": "OP_DUP OP_HASH160 865e7e98d1b51272ac6954d14bda645b680257ab OP_EQUALVERIFY OP_CHECKSIG", "type": "pubkeyhash"}, "value": 0.15847902, "n": 1}], "hex": "0100000001393b22b5e08c1b035c60ede131066f4ad96968886e260f07ab5e07da5aa05860010000006b483045022100baacc39dd901ca7d2aa6d0193e035a05ba7c46b7b4121b81ca0dbb02db1c8d9502200c720d2bc59ec001fc353690a7661b15f9577bc92834dbff648a2a5189ee63750121030a601257c607a2bbec8e183b3b4419616077726d134acce7112e2293b3bfd77dfdffffff02bc6105000000000017a914b0bca1f31623ea8b5ab9a562e45069574e23b48787ded1f100000000001976a914865e7e98d1b51272ac6954d14bda645b680257ab88ac16490800", "vin": [{"sequence": 4294967293, "scriptSig": {"hex": "483045022100baacc39dd901ca7d2aa6d0193e035a05ba7c46b7b4121b81ca0dbb02db1c8d9502200c720d2bc59ec001fc353690a7661b15f9577bc92834dbff648a2a5189ee63750121030a601257c607a2bbec8e183b3b4419616077726d134acce7112e2293b3bfd77d", "asm": "3045022100baacc39dd901ca7d2aa6d0193e035a05ba7c46b7b4121b81ca0dbb02db1c8d9502200c720d2bc59ec001fc353690a7661b15f9577bc92834dbff648a2a5189ee6375[ALL] 030a601257c607a2bbec8e183b3b4419616077726d134acce7112e2293b3bfd77d"}, "vout": 1, "txid": "6058a05ada075eab070f266e886869d94a6f0631e1ed605c031b8ce0b5223b39"}], "txid": "9aff0627323e731b85b81aabd0c44fd38ba9b129652e7c090163fcd1ca716192", "blocktime": 1537876114, "version": 1, "confirmations": 11460, "time": 1537876114, "locktime": 542998, "vsize": 224, "size": 224}