{"hash": "9b0b8ba9764c15981a575d59a31fa134a3076caea069df26dd90199f9000d70f", "blockhash": "00000000000000000004ffacab907a6b429b9a5745fa0b75af4234bf69dd7176", "vout": [{"scriptPubKey": {"reqSigs": 1, "hex": "76a9142452b46cb44341da6fca3c7aac697cc8bacc5c4f88ac", "addresses": ["14K4QLRy3cB81FfY6TDaWvKopwkiWpeUe3"], "asm": "OP_DUP OP_HASH160 2452b46cb44341da6fca3c7aac697cc8bacc5c4f OP_EQUALVERIFY OP_CHECKSIG", "type": "pubkeyhash"}, "value": 0.002322, "n": 0}, {"scriptPubKey": {"reqSigs": 1, "hex": "76a9144c364023eded248808e4677dfbdeab2bd819a97288ac", "addresses": ["17wyLyT8g5qfBVbiWJ3WnmCogXfwzDPasr"], "asm": "OP_DUP OP_HASH160 4c364023eded248808e4677dfbdeab2bd819a972 OP_EQUALVERIFY OP_CHECKSIG", "type": "pubkeyhash"}, "value": 0.01046687, "n": 1}], "hex": "010000000121208567b5edba075f3f61615e6161e78908f37612eb3cc6d5cf4da24e1ffc75010000006b483045022100e2baaa403bbec0d74bb465c467c0a889e2133dd7d14fd6c57901eb97f90ab9ca02202f2612e853df6fea5564983c2fb4fde0d4028fc8fe2f789499508c7c6df70fba012103363c4cbc69b1e632009fa678edb2c8a40236a6bba646270358ebb7e01a8746ceffffffff02088b0300000000001976a9142452b46cb44341da6fca3c7aac697cc8bacc5c4f88ac9ff80f00000000001976a9144c364023eded248808e4677dfbdeab2bd819a97288ac00000000", "vin": [{"sequence": 4294967295, "scriptSig": {"hex": "483045022100e2baaa403bbec0d74bb465c467c0a889e2133dd7d14fd6c57901eb97f90ab9ca02202f2612e853df6fea5564983c2fb4fde0d4028fc8fe2f789499508c7c6df70fba012103363c4cbc69b1e632009fa678edb2c8a40236a6bba646270358ebb7e01a8746ce", "asm": "3045022100e2baaa403bbec0d74bb465c467c0a889e2133dd7d14fd6c57901eb97f90ab9ca02202f2612e853df6fea5564983c2fb4fde0d4028fc8fe2f789499508c7c6df70fba[ALL] 03363c4cbc69b1e632009fa678edb2c8a40236a6bba646270358ebb7e01a8746ce"}, "vout": 1, "txid": "75fc1f4ea24dcfd5c63ceb1276f30889e761615e61613f5f07baedb567852021"}], "txid": "9b0b8ba9764c15981a575d59a31fa134a3076caea069df26dd90199f9000d70f", "blocktime": 1537875543, "version": 1, "confirmations": 11464, "time": 1537875543, "locktime": 0, "vsize": 226, "size": 226}