{"hash": "9b15bc0eecd2ea34513ad1d51c113bc3271fe1ae9b81d4e7376d105a087105cf", "blockhash": "0000000000000000001e0dab787dd257d1dbfcb92a98c2207d5e1078be1f4165", "vout": [{"scriptPubKey": {"reqSigs": 1, "hex": "76a9144ded18b4f4039157d0acf86ec84fa88c34760fe788ac", "addresses": ["18734XUF5V6XwpaSijhCQr77m2od6Bmvk6"], "asm": "OP_DUP OP_HASH160 4ded18b4f4039157d0acf86ec84fa88c34760fe7 OP_EQUALVERIFY OP_CHECKSIG", "type": "pubkeyhash"}, "value": 0.00023418, "n": 0}, {"scriptPubKey": {"reqSigs": 1, "hex": "a914c599d2a607409ba219e672fbbce34f4b9bb47ec787", "addresses": ["3KhqK8fq4B5MiCC19akcqkhZ1DNvK5ebaw"], "asm": "OP_HASH160 c599d2a607409ba219e672fbbce34f4b9bb47ec7 OP_EQUAL", "type": "scripthash"}, "value": 0.02465, "n": 1}], "hex": "010000000199995aeaf4e14addc42352a39f1ac324dead778dafb200d01ebdb54ebde48283040000006b483045022100c67d88be65e4ed3dd738c452d75eb9d3c3483aa449dc4d1d168cab7fa4391e360220699f00b6e19e9171d5c63f0948f94d8635ab03671bf89c583de2c196e61fccce0121032a630a977c89c11b00b3a853a77f94be7be3ab5100a9106a5322bcb41935bcfeffffffff027a5b0000000000001976a9144ded18b4f4039157d0acf86ec84fa88c34760fe788ace89c25000000000017a914c599d2a607409ba219e672fbbce34f4b9bb47ec78700000000", "vin": [{"sequence": 4294967295, "scriptSig": {"hex": "483045022100c67d88be65e4ed3dd738c452d75eb9d3c3483aa449dc4d1d168cab7fa4391e360220699f00b6e19e9171d5c63f0948f94d8635ab03671bf89c583de2c196e61fccce0121032a630a977c89c11b00b3a853a77f94be7be3ab5100a9106a5322bcb41935bcfe", "asm": "3045022100c67d88be65e4ed3dd738c452d75eb9d3c3483aa449dc4d1d168cab7fa4391e360220699f00b6e19e9171d5c63f0948f94d8635ab03671bf89c583de2c196e61fccce[ALL] 032a630a977c89c11b00b3a853a77f94be7be3ab5100a9106a5322bcb41935bcfe"}, "vout": 4, "txid": "8382e4bd4eb5bd1ed000b2af8d77adde24c31a9fa35223c4dd4ae1f4ea5a9999"}], "txid": "9b15bc0eecd2ea34513ad1d51c113bc3271fe1ae9b81d4e7376d105a087105cf", "blocktime": 1537872475, "version": 1, "confirmations": 11486, "time": 1537872475, "locktime": 0, "vsize": 224, "size": 224}