{"hash": "9b212c30e1d063bbef9485c7fb809fc1896a2cf4112075ba689ed6a00998930f", "blockhash": "0000000000000000000baef3f32e3676a92c3b2e5da21b426e4f302fc371ce76", "vout": [{"scriptPubKey": {"reqSigs": 1, "hex": "76a914c5b7fd920dce5f61934e792c7e6fcc829aff533d88ac", "addresses": ["1K2SXgApmo9uZoyahvsbSanpVWbzZWVVMF"], "asm": "OP_DUP OP_HASH160 c5b7fd920dce5f61934e792c7e6fcc829aff533d OP_EQUALVERIFY OP_CHECKSIG", "type": "pubkeyhash"}, "value": 0.0015049, "n": 0}, {"scriptPubKey": {"type": "nulldata", "hex": "6a28466100000002708087f9ce840bed326db240a82863708eee5eabb88628016708045718b6fc24bef5", "asm": "OP_RETURN 466100000002708087f9ce840bed326db240a82863708eee5eabb88628016708045718b6fc24bef5"}, "value": 0.0, "n": 1}], "hex": "020000000185f758b1b4df7c366b196fce8e1d58aab0174801994090ff628a695077bc3922000000006b483045022100fcbadf7594ae0fe1686c13ab33037e24e5f7011feba74ca4b86f385cf8a535cc02201de2fdbfc13633aeff5f6a4234a95a480147c4337feb959c7ed638d33b4ea2ab0121027e706cd1c919431b693a0247e4a239e632659a8723a621a91ec610c64f4173acffffffff02da4b0200000000001976a914c5b7fd920dce5f61934e792c7e6fcc829aff533d88ac00000000000000002a6a28466100000002708087f9ce840bed326db240a82863708eee5eabb88628016708045718b6fc24bef500000000", "vin": [{"sequence": 4294967295, "scriptSig": {"hex": "483045022100fcbadf7594ae0fe1686c13ab33037e24e5f7011feba74ca4b86f385cf8a535cc02201de2fdbfc13633aeff5f6a4234a95a480147c4337feb959c7ed638d33b4ea2ab0121027e706cd1c919431b693a0247e4a239e632659a8723a621a91ec610c64f4173ac", "asm": "3045022100fcbadf7594ae0fe1686c13ab33037e24e5f7011feba74ca4b86f385cf8a535cc02201de2fdbfc13633aeff5f6a4234a95a480147c4337feb959c7ed638d33b4ea2ab[ALL] 027e706cd1c919431b693a0247e4a239e632659a8723a621a91ec610c64f4173ac"}, "vout": 0, "txid": "2239bc7750698a62ff904099014817b0aa581d8ece6f196b367cdfb4b158f785"}], "txid": "9b212c30e1d063bbef9485c7fb809fc1896a2cf4112075ba689ed6a00998930f", "blocktime": 1537876114, "version": 2, "confirmations": 11460, "time": 1537876114, "locktime": 0, "vsize": 243, "size": 243}