{"hash": "9b24deb2019f463c9fb3e97ce61376aef4e8988f28ac49fd1784bb9eddb91292", "blockhash": "00000000000000000004ffacab907a6b429b9a5745fa0b75af4234bf69dd7176", "vout": [{"scriptPubKey": {"reqSigs": 1, "hex": "a91486ed17bfa7bd80cf87cf7e80abd9289079b78c5b87", "addresses": ["3DzSVk4veMCkNbNT9CdETeE26uWxmNbBnD"], "asm": "OP_HASH160 86ed17bfa7bd80cf87cf7e80abd9289079b78c5b OP_EQUAL", "type": "scripthash"}, "value": 1.52056729, "n": 0}, {"scriptPubKey": {"reqSigs": 1, "hex": "76a914516f3ce45177136cc9d34be74ad16aafef96bb6788ac", "addresses": ["18RazUrNouiv8CLFCLXrCm73AmRW6zoTFP"], "asm": "OP_DUP OP_HASH160 516f3ce45177136cc9d34be74ad16aafef96bb67 OP_EQUALVERIFY OP_CHECKSIG", "type": "pubkeyhash"}, "value": 0.0394, "n": 1}], "hex": "02000000013fef74b57ef23c4e9a33b9ea245eb7b4e9656bc00c737eb57d4204863b96de9902000000d90047304402207121aba90ea6a6b4d75acf022606066cd71fa253763252310db1bf59128b9e1d0220603c7d31efcec9831374f6494794372404dfd33c87e3872f9a46e1cd5d820dc801473044022079676fcb748682a23b039ebee5583c3aac25494f965c3b94ff01db566e7164b602204c4a5e3b20929f0234d7688ac91d960a83625e19e0afaeea23213cab3ee2af3601475221020a2f9930648133ae82f79fc024de10f8a34fda4cd589da06a6c2162935f0f89d2102566a6cede1027ae8a754748c7041bde2861c1a4c202997177229f9bb9e13000452aeffffffff02993310090000000017a91486ed17bfa7bd80cf87cf7e80abd9289079b78c5b87a01e3c00000000001976a914516f3ce45177136cc9d34be74ad16aafef96bb6788ac00000000", "vin": [{"sequence": 4294967295, "scriptSig": {"hex": "0047304402207121aba90ea6a6b4d75acf022606066cd71fa253763252310db1bf59128b9e1d0220603c7d31efcec9831374f6494794372404dfd33c87e3872f9a46e1cd5d820dc801473044022079676fcb748682a23b039ebee5583c3aac25494f965c3b94ff01db566e7164b602204c4a5e3b20929f0234d7688ac91d960a83625e19e0afaeea23213cab3ee2af3601475221020a2f9930648133ae82f79fc024de10f8a34fda4cd589da06a6c2162935f0f89d2102566a6cede1027ae8a754748c7041bde2861c1a4c202997177229f9bb9e13000452ae", "asm": "0 304402207121aba90ea6a6b4d75acf022606066cd71fa253763252310db1bf59128b9e1d0220603c7d31efcec9831374f6494794372404dfd33c87e3872f9a46e1cd5d820dc8[ALL] 3044022079676fcb748682a23b039ebee5583c3aac25494f965c3b94ff01db566e7164b602204c4a5e3b20929f0234d7688ac91d960a83625e19e0afaeea23213cab3ee2af36[ALL] 5221020a2f9930648133ae82f79fc024de10f8a34fda4cd589da06a6c2162935f0f89d2102566a6cede1027ae8a754748c7041bde2861c1a4c202997177229f9bb9e13000452ae"}, "vout": 2, "txid": "99de963b8604427db57e730cc06b65e9b4b75e24eab9339a4e3cf27eb574ef3f"}], "txid": "9b24deb2019f463c9fb3e97ce61376aef4e8988f28ac49fd1784bb9eddb91292", "blocktime": 1537875543, "version": 2, "confirmations": 11464, "time": 1537875543, "locktime": 0, "vsize": 334, "size": 334}