{"hash": "9b2b3b4deb1cc2d242d9385cd7e25279713da6fa8ddd3facc881a1f38b87e621", "blockhash": "0000000000000000001e0dab787dd257d1dbfcb92a98c2207d5e1078be1f4165", "vout": [{"scriptPubKey": {"reqSigs": 1, "hex": "a914b7e3c0c60e6255de6e590877b7ccc32fb4ef2ced87", "addresses": ["3JTLRCudxjGNTC7rNW5ouLqsYkYQZyap3x"], "asm": "OP_HASH160 b7e3c0c60e6255de6e590877b7ccc32fb4ef2ced OP_EQUAL", "type": "scripthash"}, "value": 0.02292, "n": 0}, {"scriptPubKey": {"reqSigs": 1, "hex": "a914e370231feecbfc25e2e2423a5a79bf79bfdca59887", "addresses": ["3NRbeX3vD5VaVE4TDU9ivCDsEf7NPPte6J"], "asm": "OP_HASH160 e370231feecbfc25e2e2423a5a79bf79bfdca598 OP_EQUAL", "type": "scripthash"}, "value": 11.55561678, "n": 1}], "hex": "0100000001e3c3e883c784a6d2790bcba295827135cbe4ca39648d9fe0d6a2746d27afc83f01000000d90047304402200f3be671cb9091c88c72969fbd9496e56f0edb5caee6487ac88cf8c1d56dd98c02202dc6a8a953f2335932ec403af5bd92d81290e84e017139fbb9077b599884cdb201473044022042030f4831271b71557508267c5c37cf5fb9966f219e847844f8d607d38f5c09022001aa7ea921b7a661ba663711cb350221765101571221e439a0869d3198dbd22a014752210327881b6abce6535553a3ce21fad12a7d74fd237ce7c4cd270a267162344e3082210256141f8eb687f5a68c5cc65054652dc25116fa285e44d72b44368827ffe77d9a52aeffffffff0220f922000000000017a914b7e3c0c60e6255de6e590877b7ccc32fb4ef2ced87ce78e0440000000017a914e370231feecbfc25e2e2423a5a79bf79bfdca5988700000000", "vin": [{"sequence": 4294967295, "scriptSig": {"hex": "0047304402200f3be671cb9091c88c72969fbd9496e56f0edb5caee6487ac88cf8c1d56dd98c02202dc6a8a953f2335932ec403af5bd92d81290e84e017139fbb9077b599884cdb201473044022042030f4831271b71557508267c5c37cf5fb9966f219e847844f8d607d38f5c09022001aa7ea921b7a661ba663711cb350221765101571221e439a0869d3198dbd22a014752210327881b6abce6535553a3ce21fad12a7d74fd237ce7c4cd270a267162344e3082210256141f8eb687f5a68c5cc65054652dc25116fa285e44d72b44368827ffe77d9a52ae", "asm": "0 304402200f3be671cb9091c88c72969fbd9496e56f0edb5caee6487ac88cf8c1d56dd98c02202dc6a8a953f2335932ec403af5bd92d81290e84e017139fbb9077b599884cdb2[ALL] 3044022042030f4831271b71557508267c5c37cf5fb9966f219e847844f8d607d38f5c09022001aa7ea921b7a661ba663711cb350221765101571221e439a0869d3198dbd22a[ALL] 52210327881b6abce6535553a3ce21fad12a7d74fd237ce7c4cd270a267162344e3082210256141f8eb687f5a68c5cc65054652dc25116fa285e44d72b44368827ffe77d9a52ae"}, "vout": 1, "txid": "3fc8af276d74a2d6e09f8d6439cae4cb35718295a2cb0b79d2a684c783e8c3e3"}], "txid": "9b2b3b4deb1cc2d242d9385cd7e25279713da6fa8ddd3facc881a1f38b87e621", "blocktime": 1537872475, "version": 1, "confirmations": 11487, "time": 1537872475, "locktime": 0, "vsize": 332, "size": 332}