{"hash": "9b2ee0153f026246c12fd4a9c98349c15a685195bb77d0bc8f51419dd10229f7", "blockhash": "0000000000000000001cda96e906b7601b7a6fb1a3b62bca570a9e5d8f4b3de1", "vout": [{"scriptPubKey": {"reqSigs": 1, "hex": "76a914daa35647238331d9ac2e9bac48d57087efb00b9188ac", "addresses": ["1Lw3yg7WKmb797KebW7m46BKxSr9WyMg7m"], "asm": "OP_DUP OP_HASH160 daa35647238331d9ac2e9bac48d57087efb00b91 OP_EQUALVERIFY OP_CHECKSIG", "type": "pubkeyhash"}, "value": 0.002319, "n": 0}, {"scriptPubKey": {"reqSigs": 1, "hex": "76a914ee721af615c44cbeea90049c10b95b5b34b1373f88ac", "addresses": ["1NjnWqG9CoqrYxhdx8PduAfjZKiqBpPQFM"], "asm": "OP_DUP OP_HASH160 ee721af615c44cbeea90049c10b95b5b34b1373f OP_EQUALVERIFY OP_CHECKSIG", "type": "pubkeyhash"}, "value": 0.01311268, "n": 1}], "hex": "0100000001427b40ad9d2b887ac26195436c5b801f34174c80ac4d6ae5afe417da0ab69e5f010000006a473044022042ea68f25c4825e875836566043ba2f7668bc87a201485dd13b19c947d758e9602203f321ec2eda6dc364a5e7fc3587bcfb67acf2d4c3c55e57df5facda0dfc51c65012103db561b8efbaa7b53894a31386ae8c17f8db2d1824fcb44c52e990ea0fc07a25dffffffff02dc890300000000001976a914daa35647238331d9ac2e9bac48d57087efb00b9188ac24021400000000001976a914ee721af615c44cbeea90049c10b95b5b34b1373f88ac00000000", "vin": [{"sequence": 4294967295, "scriptSig": {"hex": "473044022042ea68f25c4825e875836566043ba2f7668bc87a201485dd13b19c947d758e9602203f321ec2eda6dc364a5e7fc3587bcfb67acf2d4c3c55e57df5facda0dfc51c65012103db561b8efbaa7b53894a31386ae8c17f8db2d1824fcb44c52e990ea0fc07a25d", "asm": "3044022042ea68f25c4825e875836566043ba2f7668bc87a201485dd13b19c947d758e9602203f321ec2eda6dc364a5e7fc3587bcfb67acf2d4c3c55e57df5facda0dfc51c65[ALL] 03db561b8efbaa7b53894a31386ae8c17f8db2d1824fcb44c52e990ea0fc07a25d"}, "vout": 1, "txid": "5f9eb60ada17e4afe56a4dac804c17341f805b6c439561c27a882b9dad407b42"}], "txid": "9b2ee0153f026246c12fd4a9c98349c15a685195bb77d0bc8f51419dd10229f7", "blocktime": 1537873282, "version": 1, "confirmations": 11483, "time": 1537873282, "locktime": 0, "vsize": 225, "size": 225}