{"hash": "9b2fabedf3f1b33c84724924d8ba7365f36df55b151ce93372cf23f562a4959a", "blockhash": "00000000000000000018f53835495a110e01622372bf6ae95dc86f2b0ab887b0", "vout": [{"scriptPubKey": {"reqSigs": 1, "hex": "76a9141fe0ef6a285b02dbeb9f48ba90de079b2bf07cd588ac", "addresses": ["13uZQiiyU11WQwKvze25LyRasDosDzJjoF"], "asm": "OP_DUP OP_HASH160 1fe0ef6a285b02dbeb9f48ba90de079b2bf07cd5 OP_EQUALVERIFY OP_CHECKSIG", "type": "pubkeyhash"}, "value": 0.00129666, "n": 0}, {"scriptPubKey": {"reqSigs": 1, "hex": "76a914a5c308756b7e94d0768fbb7b950efb6ac8c106e088ac", "addresses": ["1G7U8nYpv9dxASB7bJ674BuK6feRddYXfb"], "asm": "OP_DUP OP_HASH160 a5c308756b7e94d0768fbb7b950efb6ac8c106e0 OP_EQUALVERIFY OP_CHECKSIG", "type": "pubkeyhash"}, "value": 0.02528218, "n": 1}], "hex": "0100000001879fd9e895cbb0dcf3e7638309045afbe4ea3314a13bd4de5c114cac9a13d827010000006a473044022059a0ee99639e7132285e5eb13673745116e08fea6c4e3199b613af8b4b9adc5302200d19abcea769d24c4af46e6dacac5d35852b154c151134f2c0a545af040a18690121025fd1d7fe74dc1ae7ed0d111b918b84f8abcb70b5fc312807d222949739efa19fffffffff0282fa0100000000001976a9141fe0ef6a285b02dbeb9f48ba90de079b2bf07cd588acda932600000000001976a914a5c308756b7e94d0768fbb7b950efb6ac8c106e088ac00000000", "vin": [{"sequence": 4294967295, "scriptSig": {"hex": "473044022059a0ee99639e7132285e5eb13673745116e08fea6c4e3199b613af8b4b9adc5302200d19abcea769d24c4af46e6dacac5d35852b154c151134f2c0a545af040a18690121025fd1d7fe74dc1ae7ed0d111b918b84f8abcb70b5fc312807d222949739efa19f", "asm": "3044022059a0ee99639e7132285e5eb13673745116e08fea6c4e3199b613af8b4b9adc5302200d19abcea769d24c4af46e6dacac5d35852b154c151134f2c0a545af040a1869[ALL] 025fd1d7fe74dc1ae7ed0d111b918b84f8abcb70b5fc312807d222949739efa19f"}, "vout": 1, "txid": "27d8139aac4c115cded43ba11433eae4fb5a04098363e7f3dcb0cb95e8d99f87"}], "txid": "9b2fabedf3f1b33c84724924d8ba7365f36df55b151ce93372cf23f562a4959a", "blocktime": 1537870928, "version": 1, "confirmations": 11514, "time": 1537870928, "locktime": 0, "vsize": 225, "size": 225}