{"hash": "96711c851c43025a18c4dd238fff57a2263627684104b9da397a891731f776f3", "blockhash": "0000000000000000000e13cef7c366c0283d82e591d1acd082e914b08063cdf1", "vout": [{"scriptPubKey": {"reqSigs": 1, "hex": "00147c33186596a907483fc499f8c9aacf66b2a3e0d8", "addresses": ["bc1q0se3sevk4yr5s07yn8uvn2k0v6e28cxcf6r7r9"], "asm": "0 7c33186596a907483fc499f8c9aacf66b2a3e0d8", "type": "witness_v0_keyhash"}, "value": 0.00029136, "n": 0}, {"scriptPubKey": {"reqSigs": 1, "hex": "76a91490269a382fcba5316fb7a92d09700f2c43f0f17688ac", "addresses": ["1E9CYmUHdrSjQUW5hncUXm6c2zhUjRSM33"], "asm": "OP_DUP OP_HASH160 90269a382fcba5316fb7a92d09700f2c43f0f176 OP_EQUALVERIFY OP_CHECKSIG", "type": "pubkeyhash"}, "value": 0.00156055, "n": 1}], "hex": "010000000001012b6d2a2aba2caee9e53101944ce84099aedfc6f27d3ab2516fb8c338504a44070000000000ffffffff02d0710000000000001600147c33186596a907483fc499f8c9aacf66b2a3e0d897610200000000001976a91490269a382fcba5316fb7a92d09700f2c43f0f17688ac024730440220361c653defcaab1ae05c238e79f0f25e671a82bff6f469a842950c03cbed0af902203e326eb8eefc6f5f9d5010d21b19d4dd5e5f5c21979da87f9e9b71e4d571a84101210313b94ddd435d20749d76e9a98ebaf746e5b0e7405c9dea9515627cb2124cb89200000000", "vin": [{"txinwitness": ["30440220361c653defcaab1ae05c238e79f0f25e671a82bff6f469a842950c03cbed0af902203e326eb8eefc6f5f9d5010d21b19d4dd5e5f5c21979da87f9e9b71e4d571a84101", "0313b94ddd435d20749d76e9a98ebaf746e5b0e7405c9dea9515627cb2124cb892"], "sequence": 4294967295, "scriptSig": {"hex": "", "asm": ""}, "vout": 0, "txid": "07444a5038c3b86f51b23a7df2c6dfae9940e84c940131e5e9ae2cba2a2a6d2b"}], "txid": "9b48faa4836c6d5a091dbadedda5032e53272381dd3363e0b40555c5d91a92b0", "blocktime": 1537871767, "version": 1, "confirmations": 11495, "time": 1537871767, "locktime": 0, "vsize": 144, "size": 225}