{"hash": "9b4b6a85e616127ba51d43d496ed78b216a54a62d557e75bef58a921c34caa64", "blockhash": "00000000000000000018f53835495a110e01622372bf6ae95dc86f2b0ab887b0", "vout": [{"scriptPubKey": {"reqSigs": 1, "hex": "a9143f538b29ffd80472c75c2c331270b730e3d7558d87", "addresses": ["37TraLioZJTuin8fJdnDYA26TF39rUUtH4"], "asm": "OP_HASH160 3f538b29ffd80472c75c2c331270b730e3d7558d OP_EQUAL", "type": "scripthash"}, "value": 9.99e-06, "n": 0}, {"scriptPubKey": {"reqSigs": 1, "hex": "76a91486dd1951037010b46ef38ad9290f657dc3ea017c88ac", "addresses": ["1DJ6QvgrJvHWmccw3NUum3iyChoALMi8j2"], "asm": "OP_DUP OP_HASH160 86dd1951037010b46ef38ad9290f657dc3ea017c OP_EQUALVERIFY OP_CHECKSIG", "type": "pubkeyhash"}, "value": 0.00121246, "n": 1}, {"scriptPubKey": {"reqSigs": 1, "hex": "76a914b1c035bea0b55703a15574f7bb7f2b932caab0ea88ac", "addresses": ["1HCrrwDUm3BJcP5dZmxw9JyK8ooPm4MyBv"], "asm": "OP_DUP OP_HASH160 b1c035bea0b55703a15574f7bb7f2b932caab0ea OP_EQUALVERIFY OP_CHECKSIG", "type": "pubkeyhash"}, "value": 0.00077469, "n": 2}], "hex": "0100000001fa09022a34b91c6ca89a2a6bbff966b977897ecf5bba74a19a41ca6aad706ac9000000006b483045022100c449316b149e176a7572c88a47c2d500910a6262475672005585dd7c1b3b22d8022056a7b637912176f9e95107b8f19fd26adff02af9cac07a25ebdc3983b2ac51c4012103fb66f546a41072cecd742795f2f28bea6f7bce415b3f73c3ac48084d0aa33398ffffffff03e70300000000000017a9143f538b29ffd80472c75c2c331270b730e3d7558d879ed90100000000001976a91486dd1951037010b46ef38ad9290f657dc3ea017c88ac9d2e0100000000001976a914b1c035bea0b55703a15574f7bb7f2b932caab0ea88ac00000000", "vin": [{"sequence": 4294967295, "scriptSig": {"hex": "483045022100c449316b149e176a7572c88a47c2d500910a6262475672005585dd7c1b3b22d8022056a7b637912176f9e95107b8f19fd26adff02af9cac07a25ebdc3983b2ac51c4012103fb66f546a41072cecd742795f2f28bea6f7bce415b3f73c3ac48084d0aa33398", "asm": "3045022100c449316b149e176a7572c88a47c2d500910a6262475672005585dd7c1b3b22d8022056a7b637912176f9e95107b8f19fd26adff02af9cac07a25ebdc3983b2ac51c4[ALL] 03fb66f546a41072cecd742795f2f28bea6f7bce415b3f73c3ac48084d0aa33398"}, "vout": 0, "txid": "c96a70ad6aca419aa174ba5bcf7e8977b966f9bf6b2a9aa86c1cb9342a0209fa"}], "txid": "9b4b6a85e616127ba51d43d496ed78b216a54a62d557e75bef58a921c34caa64", "blocktime": 1537870928, "version": 1, "confirmations": 11514, "time": 1537870928, "locktime": 0, "vsize": 258, "size": 258}