{"hash": "c9d7e4558b010ee11ff5dd0ec6ddc94693786a0fb869f2bdc3172248f7f97367", "blockhash": "0000000000000000000e13cef7c366c0283d82e591d1acd082e914b08063cdf1", "vout": [{"scriptPubKey": {"reqSigs": 1, "hex": "a914fc98691165d30a4dbfd4ba5223b296fae4158fa787", "addresses": ["3QicnYfb1SnCLd8AuAk3ciyWbPt8rBchwP"], "asm": "OP_HASH160 fc98691165d30a4dbfd4ba5223b296fae4158fa7 OP_EQUAL", "type": "scripthash"}, "value": 0.91901921, "n": 0}, {"scriptPubKey": {"reqSigs": 1, "hex": "a9141db7fc08c1daa4881881cd406c47c5c96a87695a87", "addresses": ["34Q9vaHDtRERCQWbb6FN493UmJH8E7WzZd"], "asm": "OP_HASH160 1db7fc08c1daa4881881cd406c47c5c96a87695a OP_EQUAL", "type": "scripthash"}, "value": 0.008, "n": 1}], "hex": "02000000000101138987869ea53f9a5aff2ee1f0f1ca882d53c584d034734b9d682a79cfe446e20100000017160014e74cc055544386f9dfcff5acc28a5e498a657b60fdffffff02e14f7a050000000017a914fc98691165d30a4dbfd4ba5223b296fae4158fa78700350c000000000017a9141db7fc08c1daa4881881cd406c47c5c96a87695a870247304402206f3025c6c657c0d58e278fd91450fd678c1752fd09b8fec877182c4c33d793e0022009541787edf80064982710bf78f58a96d56f3dc13a29473b4fe17968beaf3860012103001853b34b84f5d8b0516c376041cce07c53d3267aa8ac09f234c17323f9fb1210490800", "vin": [{"txinwitness": ["304402206f3025c6c657c0d58e278fd91450fd678c1752fd09b8fec877182c4c33d793e0022009541787edf80064982710bf78f58a96d56f3dc13a29473b4fe17968beaf386001", "03001853b34b84f5d8b0516c376041cce07c53d3267aa8ac09f234c17323f9fb12"], "sequence": 4294967293, "scriptSig": {"hex": "160014e74cc055544386f9dfcff5acc28a5e498a657b60", "asm": "0014e74cc055544386f9dfcff5acc28a5e498a657b60"}, "vout": 1, "txid": "e246e4cf792a689d4b7334d084c5532d88caf1f0e12eff5a9a3fa59e86878913"}], "txid": "9b4c12a396a4b02c95f85bfad611e3cc8050850c5a0ec542f56df42363e547ac", "blocktime": 1537871767, "version": 2, "confirmations": 11493, "time": 1537871767, "locktime": 542992, "vsize": 166, "size": 247}