{"hash": "71f73c2b4125641dbefb138f801856f2a5cb23580eae88571598c0f559b4049d", "blockhash": "00000000000000000017f5eb5941039fbcee6240d03bc1f2f8e35350df66a1d8", "vout": [{"scriptPubKey": {"reqSigs": 1, "hex": "76a9148334993dc55d1b312dc4c7e75e3b24efca55123c88ac", "addresses": ["1CxkXkBVkFLYoCn9VTatgkAXM61DhtuKMm"], "asm": "OP_DUP OP_HASH160 8334993dc55d1b312dc4c7e75e3b24efca55123c OP_EQUALVERIFY OP_CHECKSIG", "type": "pubkeyhash"}, "value": 0.22, "n": 0}, {"scriptPubKey": {"reqSigs": 1, "hex": "a9146878b2240bba6a033b8a8729b7848fb8a7c6de9087", "addresses": ["3BDQnb9t1qvaemAu7hoCFHHPtwHscTc7Hf"], "asm": "OP_HASH160 6878b2240bba6a033b8a8729b7848fb8a7c6de90 OP_EQUAL", "type": "scripthash"}, "value": 7.17497256, "n": 1}], "hex": "02000000000101d06aaea268b98fe219cf144ebab4a0b48605b53e9e3270ac9093e4aea7e750b10000000017160014f3615811523cc552cd0d3bffd99fd9bec7c881d0feffffff0280b14f01000000001976a9148334993dc55d1b312dc4c7e75e3b24efca55123c88aca823c42a0000000017a9146878b2240bba6a033b8a8729b7848fb8a7c6de908702483045022100bbceba72ac2e1072c239ada020f1afacd62c656f15613c8416e7ca6c7a0e0c57022019a83ac8b265a9c04f621f6fe492b6682a54f023044f372e073acfca7f21bc7d0121032ff80e31a93789a68daec837b1c849ae296b94f5c6a5a63c73ca54bf7fb49b3315490800", "vin": [{"txinwitness": ["3045022100bbceba72ac2e1072c239ada020f1afacd62c656f15613c8416e7ca6c7a0e0c57022019a83ac8b265a9c04f621f6fe492b6682a54f023044f372e073acfca7f21bc7d01", "032ff80e31a93789a68daec837b1c849ae296b94f5c6a5a63c73ca54bf7fb49b33"], "sequence": 4294967294, "scriptSig": {"hex": "160014f3615811523cc552cd0d3bffd99fd9bec7c881d0", "asm": "0014f3615811523cc552cd0d3bffd99fd9bec7c881d0"}, "vout": 0, "txid": "b150e7a7aee49390ac70329e3eb50586b4a0b4ba4e14cf19e28fb968a2ae6ad0"}], "txid": "9b502b2ebe521a1cfe2b8737c71ea455259342e471dfa40ccc6653ec257d0e88", "blocktime": 1537874412, "version": 2, "confirmations": 11467, "time": 1537874412, "locktime": 542997, "vsize": 168, "size": 250}