{"hash": "37e3cfa2c2e475df1b8ff7157a7ea180f090458d25d9990b4a9af3351efae545", "blockhash": "0000000000000000001cda96e906b7601b7a6fb1a3b62bca570a9e5d8f4b3de1", "vout": [{"scriptPubKey": {"reqSigs": 1, "hex": "a914d20603a3a698f1211bc57c800a4c04afa6de2eb887", "addresses": ["3LqX2hjmfc9pW7LoGHa1A5QkxsN7A2uLyh"], "asm": "OP_HASH160 d20603a3a698f1211bc57c800a4c04afa6de2eb8 OP_EQUAL", "type": "scripthash"}, "value": 0.0025146, "n": 0}, {"scriptPubKey": {"reqSigs": 1, "hex": "a91482c857296f14574913d8dd3e3092e49b1167554787", "addresses": ["3DcXmP7LjtGWgCnP59adfH1umRA2Zp7nzN"], "asm": "OP_HASH160 82c857296f14574913d8dd3e3092e49b11675547 OP_EQUAL", "type": "scripthash"}, "value": 0.01001285, "n": 1}], "hex": "020000000001029ef32be16b608b9d302d67db5ca6ba711ba3446420e038a8475255f925416bf50b0000001716001496ed541c45f96b7f2e1b8dc6abfae6d9300a6dc5feffffffd6ce004624ae1f1dd981e63b2d0036ad961b8bb93424a1a8f2b0056aaf7e7a940000000017160014435f62da52cd655c31f5ea3bb8942de4363d9107feffffff0244d603000000000017a914d20603a3a698f1211bc57c800a4c04afa6de2eb88745470f000000000017a91482c857296f14574913d8dd3e3092e49b11675547870247304402201e280bd068d5927f8feda2968d1735c0fe09fcab861bc996db2a40037b21564702205c03a3c71c57ecf0f30bac466ac4713404161bce4e3e561b646e8c27f40dd6e4012102ddda925fcea24f5b152fd674db87cb9ce27a5eb9b726cbee728421b3ae7c152c0247304402202324d6a8c79628433479bd9a86aaeb03301ddf9447928d7eca7b8acd7d79703d022022b6ec7b7f1c4fa4b354f067bf26f5b1b4c1c96328ba02fb8af6f1ddbc1d1849012103029f17219f6a0432afe1566e1277cdc748ebdda4b5494c0116d07cb41e8192ce13490800", "vin": [{"txinwitness": ["304402201e280bd068d5927f8feda2968d1735c0fe09fcab861bc996db2a40037b21564702205c03a3c71c57ecf0f30bac466ac4713404161bce4e3e561b646e8c27f40dd6e401", "02ddda925fcea24f5b152fd674db87cb9ce27a5eb9b726cbee728421b3ae7c152c"], "sequence": 4294967294, "scriptSig": {"hex": "16001496ed541c45f96b7f2e1b8dc6abfae6d9300a6dc5", "asm": "001496ed541c45f96b7f2e1b8dc6abfae6d9300a6dc5"}, "vout": 11, "txid": "f56b4125f9555247a838e0206444a31b71baa65cdb672d309d8b606be12bf39e"}, {"txinwitness": ["304402202324d6a8c79628433479bd9a86aaeb03301ddf9447928d7eca7b8acd7d79703d022022b6ec7b7f1c4fa4b354f067bf26f5b1b4c1c96328ba02fb8af6f1ddbc1d184901", "03029f17219f6a0432afe1566e1277cdc748ebdda4b5494c0116d07cb41e8192ce"], "sequence": 4294967294, "scriptSig": {"hex": "160014435f62da52cd655c31f5ea3bb8942de4363d9107", "asm": "0014435f62da52cd655c31f5ea3bb8942de4363d9107"}, "vout": 0, "txid": "947a7eaf6a05b0f2a8a12434b98b1b96ad36002d3be681d91d1fae244600ced6"}], "txid": "9b5297a53aaf5074567399ef243a7e33449c8fe3470121f7b90ede55133a2c98", "blocktime": 1537873282, "version": 2, "confirmations": 11484, "time": 1537873282, "locktime": 542995, "vsize": 256, "size": 418}