{"hash": "9b53bead3d1296809be9f3c39b9c34acb2b1456b43cfaa8f57d24654581c42d2", "blockhash": "000000000000000000022b45ed06c6f4ccd3cf7fb5ba4856ebd2e58215665228", "vout": [{"scriptPubKey": {"reqSigs": 1, "hex": "76a914926feea9b50df304c8dc3ba495fa13a26fbee73888ac", "addresses": ["1EMHkCViikJw6eZcHX97pJw5M7QQTvaXPJ"], "asm": "OP_DUP OP_HASH160 926feea9b50df304c8dc3ba495fa13a26fbee738 OP_EQUALVERIFY OP_CHECKSIG", "type": "pubkeyhash"}, "value": 0.00777866, "n": 0}, {"scriptPubKey": {"reqSigs": 1, "hex": "76a9147b33271fb62205032e437983785b6cd623a174f188ac", "addresses": ["1CERPkqtsCT8Hk73Q9aDCYT3RxaSaXRvft"], "asm": "OP_DUP OP_HASH160 7b33271fb62205032e437983785b6cd623a174f1 OP_EQUALVERIFY OP_CHECKSIG", "type": "pubkeyhash"}, "value": 0.00779233, "n": 1}], "hex": "0100000001e3ec7cb9de7d3c63ecf276191b8c39eec4e64adf78b8a8f2f95dc07727c774c3010000006b483045022100ee681ca616e6ae97ae4e092c03758286ab3949da42fd3c55e246935d398be1c60220197b18e482ae53d7fb119357d6b8ebf5d6f4cb285cad21e9ed1c60027b271a5801210242e21dddcdf04efd4ef7ad24b7581a414d6d7ca4c162dabafabb6a29078d6220ffffffff028ade0b00000000001976a914926feea9b50df304c8dc3ba495fa13a26fbee73888ace1e30b00000000001976a9147b33271fb62205032e437983785b6cd623a174f188ac00000000", "vin": [{"sequence": 4294967295, "scriptSig": {"hex": "483045022100ee681ca616e6ae97ae4e092c03758286ab3949da42fd3c55e246935d398be1c60220197b18e482ae53d7fb119357d6b8ebf5d6f4cb285cad21e9ed1c60027b271a5801210242e21dddcdf04efd4ef7ad24b7581a414d6d7ca4c162dabafabb6a29078d6220", "asm": "3045022100ee681ca616e6ae97ae4e092c03758286ab3949da42fd3c55e246935d398be1c60220197b18e482ae53d7fb119357d6b8ebf5d6f4cb285cad21e9ed1c60027b271a58[ALL] 0242e21dddcdf04efd4ef7ad24b7581a414d6d7ca4c162dabafabb6a29078d6220"}, "vout": 1, "txid": "c374c72777c05df9f2a8b878df4ae6c4ee398c1b1976f2ec633c7ddeb97cece3"}], "txid": "9b53bead3d1296809be9f3c39b9c34acb2b1456b43cfaa8f57d24654581c42d2", "blocktime": 1537869901, "version": 1, "confirmations": 11524, "time": 1537869901, "locktime": 0, "vsize": 226, "size": 226}