{"hash": "97cc4fb96b8f09bb517289a5f695f07f9531f49fab8fd40a03b5a6e816fa6553", "blockhash": "0000000000000000000baef3f32e3676a92c3b2e5da21b426e4f302fc371ce76", "vout": [{"scriptPubKey": {"reqSigs": 1, "hex": "76a9148f0ef35d5a4bfb5a28d766193c19eefdcd22cd7088ac", "addresses": ["1E3RYDoGbnBubPaCkgYVVEtYccEffskKFm"], "asm": "OP_DUP OP_HASH160 8f0ef35d5a4bfb5a28d766193c19eefdcd22cd70 OP_EQUALVERIFY OP_CHECKSIG", "type": "pubkeyhash"}, "value": 0.00228, "n": 0}, {"scriptPubKey": {"reqSigs": 1, "hex": "a914773acf96a1b0929c2c1f88056637f951036821b887", "addresses": ["3CZSnd9PkBQh7n3xeKx3QnttupKfs4V4MG"], "asm": "OP_HASH160 773acf96a1b0929c2c1f88056637f951036821b8 OP_EQUAL", "type": "scripthash"}, "value": 0.01005307, "n": 1}], "hex": "020000000001028a1fc94cf929a76c82aeafddc82fe627fe868a408b24a40a93f5ce02a110a1ae0100000017160014d39e4a26f873be0d373261efd330c2d7b51050d2feffffff9b6d510d3c38835fdb3ac3f2fa72349126bbaa31192f5ab5124455823a74a21311000000171600147c2c329f2f3db0fe5a9345e02e38b60544726096feffffff02a07a0300000000001976a9148f0ef35d5a4bfb5a28d766193c19eefdcd22cd7088acfb560f000000000017a914773acf96a1b0929c2c1f88056637f951036821b8870247304402205138298338293a703586e395d6b463cac8cbe3df91b61ee332568b9d676d749002206a47324ea63becb09f4d96d482a2a4f1505718362fc5aee0f40adfcb2fae4c4301210331dda46a0a2a949520bec77c9c47632fdc0c1557a1ae6bd508a83195b15f057002473044022017448365536c710db2f199fbf87ddd54ce9511744989d0d2c545b9725f6074b5022006c37e4a59751d7b536331914fe9868899fc2721f996d074e1c67ffe4e1966a60121039aea41add322e8f4d99df8cdddcc43f74af2afe54f4dcc7a8c1e98295697610017490800", "vin": [{"txinwitness": ["304402205138298338293a703586e395d6b463cac8cbe3df91b61ee332568b9d676d749002206a47324ea63becb09f4d96d482a2a4f1505718362fc5aee0f40adfcb2fae4c4301", "0331dda46a0a2a949520bec77c9c47632fdc0c1557a1ae6bd508a83195b15f0570"], "sequence": 4294967294, "scriptSig": {"hex": "160014d39e4a26f873be0d373261efd330c2d7b51050d2", "asm": "0014d39e4a26f873be0d373261efd330c2d7b51050d2"}, "vout": 1, "txid": "aea110a102cef5930aa4248b408a86fe27e62fc8ddafae826ca729f94cc91f8a"}, {"txinwitness": ["3044022017448365536c710db2f199fbf87ddd54ce9511744989d0d2c545b9725f6074b5022006c37e4a59751d7b536331914fe9868899fc2721f996d074e1c67ffe4e1966a601", "039aea41add322e8f4d99df8cdddcc43f74af2afe54f4dcc7a8c1e982956976100"], "sequence": 4294967294, "scriptSig": {"hex": "1600147c2c329f2f3db0fe5a9345e02e38b60544726096", "asm": "00147c2c329f2f3db0fe5a9345e02e38b60544726096"}, "vout": 17, "txid": "13a2743a82554412b55a2f1931aabb26913472faf2c33adb5f83383c0d516d9b"}], "txid": "9b5a584a8779eb0dc5c6112ab8ed604a3a818c4033f2c91fd69ab05af65fa835", "blocktime": 1537876114, "version": 2, "confirmations": 11461, "time": 1537876114, "locktime": 542999, "vsize": 258, "size": 420}