{"hash": "9b5edad8cbcc18cf38f614c2b1f69e158b8f36c8308842c77bee7e7604ff9d2e", "blockhash": "00000000000000000017f5eb5941039fbcee6240d03bc1f2f8e35350df66a1d8", "vout": [{"scriptPubKey": {"reqSigs": 1, "hex": "76a914e8cea30989bd15530f819b766684b00dc7ba7cfa88ac", "addresses": ["1NDyJtNTjmwk5xPNhjgAMu4HDHigtobu1s"], "asm": "OP_DUP OP_HASH160 e8cea30989bd15530f819b766684b00dc7ba7cfa OP_EQUALVERIFY OP_CHECKSIG", "type": "pubkeyhash"}, "value": 4.60960412, "n": 0}, {"scriptPubKey": {"reqSigs": 1, "hex": "76a9140b3d1075d6370115cee5f8ddc26b77b2b29d574288ac", "addresses": ["122Raw44ZnWtatEA7PkzBkyfyJjHH3kCKP"], "asm": "OP_DUP OP_HASH160 0b3d1075d6370115cee5f8ddc26b77b2b29d5742 OP_EQUALVERIFY OP_CHECKSIG", "type": "pubkeyhash"}, "value": 0.00844285, "n": 1}], "hex": "020000000a122afcc293810da690ec127d1d392149ad1dbd776a825148e29b88ec6e825afd000000006b483045022100e2ad2a476a658b392e807975754280637236a2ab56d886da49c93d373a8a694602202a029bac04351126ddb838aff14bc81502c775186cb8a224665b399c7178500201210279a662a3c9eab271e3484bf18edfff568236744b95cb6a0e860f7853f2c249d9feffffff3caa1bd92bfb776a56b0caf094844d653cb157cafd091bcaa786a5b4876a01340e0000006b483045022100f37790acaf20701412ea82648bc49cc418acec1f41bfb9b4bc45723c04b7a7b702202fd31cdd15f8ddc73ba7549ff4eb956d80e5a0f1b0cb349291e5a31a601ee523012102ef76d9eb3bc9394740e263b7f1d6ec6063ad6cbd7c3c61d36d4f2ce03ab63bfbfeffffff5ae5b8f94edb0320cf96d436d5633deb1b199e4c09cc79cd1c3cfc96a0ba8d11000000006a473044022014d40b4226754d6173973e6292b41379db99b2dbbf10137b1d1594813e894ff2022077219f8a1895d1aaf68500450dab19ee73b6f4cda945df01199e89d961d887bf012103fc7675b47f739a5342c25b3a77e02c86a2b38a4ee7b471b681f296bf0d0e8c4bfeffffff70156af845006e1513231d9c29c04867b4ca5b8788a41df47da3e5a007da95c1000000006b4830450221008a912649c39cf370fea0f44f89daf9d676737320dc380b2f4c48eb0d12d2eeb402207180872802c4d8a160aec0956752434f468136068fae160a59ac1c11fa9e0f2e012103fc5cee4cf86520de08d2f45e700263a90b03fd6623b186e04da1adb28f636dc4feffffff89b090e9701f9cb0110c59a610face4f672416fd9b626d5a28cbb3a9a4becebb000000006a4730440220781d58b913a1f4c14d4fef82defec52cb3d0be2628f19f3236630a4c45d62f3802202819043c546762e8a9a14fbc11c943aec8df7f5bb4ea3d0184be2f73f10649eb012102eeb398010afe5a0a756dbb259d19375e2a4198324c44925bf884e200f50c6f35feffffff9cf05997c8289f2f31007c438454af9f728eb1c7d4a7686148040157868b978b860000006b4830450221009c8bfd751a6313d740c71ca1905956fe0c2c6823cffb6a9991c868735eb139e002205e57d5c09d2d0836e3d503d0431f2ce30a41d268c889bcb5ace273b5551ee85e01210201e960cf2b2922319bc323a5a26ba99806ad42a216cc2556ebd8ade27b879ac7feffffffb0af81d6467833c1c79647985c9f9bdd6b4b50e97d6a0bbd20a5c632aa7d43f9000000006a473044022003a3f126eb167be9866876794428d7056f3c05053f09b9748b3461fd5334b6e0022056eddd1f3a68942657fce04a09ab17166d686f07ee76adf5ea7347dcd93636f00121024b9e55321628503fd291898d0cd0ad97fc9183311072bd2e30180c0fe23beb2dfeffffffbeee0023d7c1d07eb12e4b3ba59990ec3f05f027f7a94ce897b4b1e3720f245d000000006b483045022100a5bf9fdb22f73c44cf0dbf51004ad51ff4f5e741777b3b29dbd6f13d35c5bce702207656d282b2b984895e645fc67f9e3b6f8353e2052f4564d891030978055c7eac01210217a598066f760259e9050d0b1d29a728821ff7af7f1ddb4e8a5b62c25d8a8317feffffffc02c32932fd619c21838d0b03b1f81e6a2dbd0592cdf24d95cdafd68272bdd9b000000006a473044022062ddb86539aa51d2b1ecbe05682ac1c9afb0849318687785de6a115f0db85dbb022010652eb4897ebb38230070387ef44f5bb02d1a14fc218970b0670cffbc943eeb012103c19437bdd6cf37cda004b71317ff393bec50ae32620cc3c5b0b6e3dfc969d24efeffffffe1599924edea0942e8586ddde20f462512c7473de0744d6ae231b9f9f3512e79060000006a473044022072ceca8f128e3f15cc6abea43c10aa64859d935216a75e397fa75f95701384a4022018e920999c53ead9d314fbc3ec7c03a904903298a271aa9ece8cbe281bab2b950121021e3a52b5056fbde7410531e3a320373b4b35d403f883d17d46dd0131830a7f35feffffff029cb2791b000000001976a914e8cea30989bd15530f819b766684b00dc7ba7cfa88acfde10c00000000001976a9140b3d1075d6370115cee5f8ddc26b77b2b29d574288ac15490800", "vin": [{"sequence": 4294967294, "scriptSig": {"hex": "483045022100e2ad2a476a658b392e807975754280637236a2ab56d886da49c93d373a8a694602202a029bac04351126ddb838aff14bc81502c775186cb8a224665b399c7178500201210279a662a3c9eab271e3484bf18edfff568236744b95cb6a0e860f7853f2c249d9", "asm": "3045022100e2ad2a476a658b392e807975754280637236a2ab56d886da49c93d373a8a694602202a029bac04351126ddb838aff14bc81502c775186cb8a224665b399c71785002[ALL] 0279a662a3c9eab271e3484bf18edfff568236744b95cb6a0e860f7853f2c249d9"}, "vout": 0, "txid": "fd5a826eec889be24851826a77bd1dad4921391d7d12ec90a60d8193c2fc2a12"}, {"sequence": 4294967294, "scriptSig": {"hex": "483045022100f37790acaf20701412ea82648bc49cc418acec1f41bfb9b4bc45723c04b7a7b702202fd31cdd15f8ddc73ba7549ff4eb956d80e5a0f1b0cb349291e5a31a601ee523012102ef76d9eb3bc9394740e263b7f1d6ec6063ad6cbd7c3c61d36d4f2ce03ab63bfb", "asm": "3045022100f37790acaf20701412ea82648bc49cc418acec1f41bfb9b4bc45723c04b7a7b702202fd31cdd15f8ddc73ba7549ff4eb956d80e5a0f1b0cb349291e5a31a601ee523[ALL] 02ef76d9eb3bc9394740e263b7f1d6ec6063ad6cbd7c3c61d36d4f2ce03ab63bfb"}, "vout": 14, "txid": "34016a87b4a586a7ca1b09fdca57b13c654d8494f0cab0566a77fb2bd91baa3c"}, {"sequence": 4294967294, "scriptSig": {"hex": "473044022014d40b4226754d6173973e6292b41379db99b2dbbf10137b1d1594813e894ff2022077219f8a1895d1aaf68500450dab19ee73b6f4cda945df01199e89d961d887bf012103fc7675b47f739a5342c25b3a77e02c86a2b38a4ee7b471b681f296bf0d0e8c4b", "asm": "3044022014d40b4226754d6173973e6292b41379db99b2dbbf10137b1d1594813e894ff2022077219f8a1895d1aaf68500450dab19ee73b6f4cda945df01199e89d961d887bf[ALL] 03fc7675b47f739a5342c25b3a77e02c86a2b38a4ee7b471b681f296bf0d0e8c4b"}, "vout": 0, "txid": "118dbaa096fc3c1ccd79cc094c9e191beb3d63d536d496cf2003db4ef9b8e55a"}, {"sequence": 4294967294, "scriptSig": {"hex": "4830450221008a912649c39cf370fea0f44f89daf9d676737320dc380b2f4c48eb0d12d2eeb402207180872802c4d8a160aec0956752434f468136068fae160a59ac1c11fa9e0f2e012103fc5cee4cf86520de08d2f45e700263a90b03fd6623b186e04da1adb28f636dc4", "asm": "30450221008a912649c39cf370fea0f44f89daf9d676737320dc380b2f4c48eb0d12d2eeb402207180872802c4d8a160aec0956752434f468136068fae160a59ac1c11fa9e0f2e[ALL] 03fc5cee4cf86520de08d2f45e700263a90b03fd6623b186e04da1adb28f636dc4"}, "vout": 0, "txid": "c195da07a0e5a37df41da488875bcab46748c0299c1d2313156e0045f86a1570"}, {"sequence": 4294967294, "scriptSig": {"hex": "4730440220781d58b913a1f4c14d4fef82defec52cb3d0be2628f19f3236630a4c45d62f3802202819043c546762e8a9a14fbc11c943aec8df7f5bb4ea3d0184be2f73f10649eb012102eeb398010afe5a0a756dbb259d19375e2a4198324c44925bf884e200f50c6f35", "asm": "30440220781d58b913a1f4c14d4fef82defec52cb3d0be2628f19f3236630a4c45d62f3802202819043c546762e8a9a14fbc11c943aec8df7f5bb4ea3d0184be2f73f10649eb[ALL] 02eeb398010afe5a0a756dbb259d19375e2a4198324c44925bf884e200f50c6f35"}, "vout": 0, "txid": "bbcebea4a9b3cb285a6d629bfd1624674fcefa10a6590c11b09c1f70e990b089"}, {"sequence": 4294967294, "scriptSig": {"hex": "4830450221009c8bfd751a6313d740c71ca1905956fe0c2c6823cffb6a9991c868735eb139e002205e57d5c09d2d0836e3d503d0431f2ce30a41d268c889bcb5ace273b5551ee85e01210201e960cf2b2922319bc323a5a26ba99806ad42a216cc2556ebd8ade27b879ac7", "asm": "30450221009c8bfd751a6313d740c71ca1905956fe0c2c6823cffb6a9991c868735eb139e002205e57d5c09d2d0836e3d503d0431f2ce30a41d268c889bcb5ace273b5551ee85e[ALL] 0201e960cf2b2922319bc323a5a26ba99806ad42a216cc2556ebd8ade27b879ac7"}, "vout": 134, "txid": "8b978b86570104486168a7d4c7b18e729faf5484437c00312f9f28c89759f09c"}, {"sequence": 4294967294, "scriptSig": {"hex": "473044022003a3f126eb167be9866876794428d7056f3c05053f09b9748b3461fd5334b6e0022056eddd1f3a68942657fce04a09ab17166d686f07ee76adf5ea7347dcd93636f00121024b9e55321628503fd291898d0cd0ad97fc9183311072bd2e30180c0fe23beb2d", "asm": "3044022003a3f126eb167be9866876794428d7056f3c05053f09b9748b3461fd5334b6e0022056eddd1f3a68942657fce04a09ab17166d686f07ee76adf5ea7347dcd93636f0[ALL] 024b9e55321628503fd291898d0cd0ad97fc9183311072bd2e30180c0fe23beb2d"}, "vout": 0, "txid": "f9437daa32c6a520bd0b6a7de9504b6bdd9b9f5c984796c7c1337846d681afb0"}, {"sequence": 4294967294, "scriptSig": {"hex": "483045022100a5bf9fdb22f73c44cf0dbf51004ad51ff4f5e741777b3b29dbd6f13d35c5bce702207656d282b2b984895e645fc67f9e3b6f8353e2052f4564d891030978055c7eac01210217a598066f760259e9050d0b1d29a728821ff7af7f1ddb4e8a5b62c25d8a8317", "asm": "3045022100a5bf9fdb22f73c44cf0dbf51004ad51ff4f5e741777b3b29dbd6f13d35c5bce702207656d282b2b984895e645fc67f9e3b6f8353e2052f4564d891030978055c7eac[ALL] 0217a598066f760259e9050d0b1d29a728821ff7af7f1ddb4e8a5b62c25d8a8317"}, "vout": 0, "txid": "5d240f72e3b1b497e84ca9f727f0053fec9099a53b4b2eb17ed0c1d72300eebe"}, {"sequence": 4294967294, "scriptSig": {"hex": "473044022062ddb86539aa51d2b1ecbe05682ac1c9afb0849318687785de6a115f0db85dbb022010652eb4897ebb38230070387ef44f5bb02d1a14fc218970b0670cffbc943eeb012103c19437bdd6cf37cda004b71317ff393bec50ae32620cc3c5b0b6e3dfc969d24e", "asm": "3044022062ddb86539aa51d2b1ecbe05682ac1c9afb0849318687785de6a115f0db85dbb022010652eb4897ebb38230070387ef44f5bb02d1a14fc218970b0670cffbc943eeb[ALL] 03c19437bdd6cf37cda004b71317ff393bec50ae32620cc3c5b0b6e3dfc969d24e"}, "vout": 0, "txid": "9bdd2b2768fdda5cd924df2c59d0dba2e6811f3bb0d03818c219d62f93322cc0"}, {"sequence": 4294967294, "scriptSig": {"hex": "473044022072ceca8f128e3f15cc6abea43c10aa64859d935216a75e397fa75f95701384a4022018e920999c53ead9d314fbc3ec7c03a904903298a271aa9ece8cbe281bab2b950121021e3a52b5056fbde7410531e3a320373b4b35d403f883d17d46dd0131830a7f35", "asm": "3044022072ceca8f128e3f15cc6abea43c10aa64859d935216a75e397fa75f95701384a4022018e920999c53ead9d314fbc3ec7c03a904903298a271aa9ece8cbe281bab2b95[ALL] 021e3a52b5056fbde7410531e3a320373b4b35d403f883d17d46dd0131830a7f35"}, "vout": 6, "txid": "792e51f3f9b931e26a4d74e03d47c71225460fe2dd6d58e84209eaed249959e1"}], "txid": "9b5edad8cbcc18cf38f614c2b1f69e158b8f36c8308842c77bee7e7604ff9d2e", "blocktime": 1537874412, "version": 2, "confirmations": 11466, "time": 1537874412, "locktime": 542997, "vsize": 1553, "size": 1553}