{"hash": "9b5e428f0731a866d139aeaf89f91ea7354311294521a1a4986babfc5d8d55f4", "blockhash": "0000000000000000000e13cef7c366c0283d82e591d1acd082e914b08063cdf1", "vout": [{"scriptPubKey": {"reqSigs": 1, "hex": "76a9145de956023209cfcd41389d630fee0ea6f4d5b28688ac", "addresses": ["19ZZNJrARoXmoPPyZFKD29ja6GVVAE231R"], "asm": "OP_DUP OP_HASH160 5de956023209cfcd41389d630fee0ea6f4d5b286 OP_EQUALVERIFY OP_CHECKSIG", "type": "pubkeyhash"}, "value": 0.01547073, "n": 0}, {"scriptPubKey": {"reqSigs": 1, "hex": "a9146fb6f700686a42e362233d2e8e020cda07439e6d87", "addresses": ["3Bsi7TVXnoGxbY4YL2MSPJkEF8aJ9bHEDW"], "asm": "OP_HASH160 6fb6f700686a42e362233d2e8e020cda07439e6d OP_EQUAL", "type": "scripthash"}, "value": 0.00793021, "n": 1}, {"scriptPubKey": {"reqSigs": 1, "hex": "76a914b24627325439bd090b81347ed4710d39e0a5bf7888ac", "addresses": ["1HFdKUEJ28i6x8f3Jae49b3PDxs2gmmaAh"], "asm": "OP_DUP OP_HASH160 b24627325439bd090b81347ed4710d39e0a5bf78 OP_EQUALVERIFY OP_CHECKSIG", "type": "pubkeyhash"}, "value": 0.00426743, "n": 2}, {"scriptPubKey": {"reqSigs": 1, "hex": "76a914d78d277174253dd632769b22c2b1ee665998871688ac", "addresses": ["1LejNoSELGiagkEWcJzv2UPXEDRUa8cYnG"], "asm": "OP_DUP OP_HASH160 d78d277174253dd632769b22c2b1ee6659988716 OP_EQUALVERIFY OP_CHECKSIG", "type": "pubkeyhash"}, "value": 5.70416423, "n": 3}], "hex": "010000001482693576955bbd2a3b94d7e39c279d0966ebca0cdeab357bc6f35f5fae314c98020000006b483045022100dc21cd7d0b4d4d1a0d705a1e0838faaca5b82fa2f5adab083bc2c9f39314b8b2022074e20eae09a2913e6e3f74314243ac962e2da67bf567d1b6ffd9d4ceaff3ed950121022fd98603cbf24501813c0a24b998eb64f868999bd1be88ba6de51935ad60b88fffffffffc94e8c74799a572d24733441d7acd5866318465b896cb2281c09bcbeded89f05c90000006a4730440220469b7e105f0988d0e67284d0a07407aabdc2d4a84a15a70bafe5bbb422540537022039b50d36299042f7e866b7b78a6c1c02657239d19bcf58c4e632f2d73cb942b4012103b7cbf3a93814eae452a5dba9e59f04cb87e62fbc2042eae261582b9cc018a010ffffffff3f8f56f13efaf8612f2e264b2700fe833b3ef0fb5ec76bed5de1592b9033016f0c0000006b483045022100fa4aa29bdc4f87b3505e592819ab96861195b33e70e98055719dced4aae1d6980220795f84e7eda4da77e7a021e66c202851097ee324a367ba0269f4a4b4180f62b80121021b9cf20e6a475152a3ee20bed5276edbe8e02408747b7b51e98eb92d128068b3ffffffffc94e8c74799a572d24733441d7acd5866318465b896cb2281c09bcbeded89f05960000006a47304402203ee0bf1ecfd7fdd4000d50c128e1ff7377197b669b665b9ae1e9602434eaa6800220071c78e0a085caac3ad50e4abb48ca3ba2180483d529bab82f78d0788b534f1c012103ff1ca9fceb5a8c327e0c9593c6af8f3f9308461de40596f35645e05ca3e4f9f3ffffffffc94e8c74799a572d24733441d7acd5866318465b896cb2281c09bcbeded89f05950000006b483045022100c3ec71521b0083f92139465892d951b9076ccb2a66d50658c63764000c34e895022015f12e3ffadfe80ecebb4215185c1b49154ef73802c073392481d30d126b7d360121030acf37399fc6894b4c809070d09eb3b0265d448e85c592bdf34c4e063c5e5cb8ffffffff273884a0289b07c00e77466215ee177c575f7449265107e8b9eb2513b06347ab000000006b483045022100a4b19c4071e81f903706df0c01c4f66f685b799ad590781bb85bcfd992c51b020220400a82bf7af04e094901452437c2c7344ed8df269b9f1ca6f2a6926ce2257a1a012103a633d74adf43afc91593e80be0fb670724a20cf805d5da01c2a77ed293d64884ffffffffc8deca19e9761b47203b3362ad6b2157314154fa78536d52d2899451da05aab43c0100006b483045022100d28f295971e5293f2bd726cf1d16d4a102fa15e65c0eee0350739b7808608bea0220315dbe3a63718c250550606b02df06cad40775621283179afca0dc1a2904489501210319c6279cb9592eaf083d170b32ce27f83dacb8f6387c8cc8e680312cf7fc6382ffffffffc8deca19e9761b47203b3362ad6b2157314154fa78536d52d2899451da05aab4390100006b483045022100ec09c342e1809cbeb95442a54eaeeaf08006d0481e768e28327d3fb37e1dc54a02205039e396fb881d0e0b86001479ca01c0717d923767189619dcc652c02723b7a6012102ee444c56f5c3d04baddf59285f775b5ca014b64be4c32011a58b11418fd91cd7ffffffffaabf585634afc1240298159338dae2ff4c05bfb16ca5ff329b03192d8b0a1194000000006a4730440220566b0b27dac326342b2438ef5b4a45d4b114dd9209fb7a99b4d2bbf2568c4e8b02206cab632cce130a3ab0667aa07b6cb72fd4ceee824fcd3cd47dd78603fa3a2cd701210386c98b28628fa10d9d149620f77985251dd32c71258f367ac1dcb25c0ad2350bffffffff9b04b85c41beec5399ba0e4e5bbc0e996870cb9af1072b637223e85b38c05d33000000006a47304402206226dd2812677e72e28bce4c75379b0ed04b2065ba5d712575fd8e46b47b71cb0220101951eaea17359f9361fdfc80f06af9305465b291ca6020e1863e4c7cc0e393012102a7b349239e8ef6b3b1919863e3ba0299a6f29735ad008a3ce689ccf4e18b59e1ffffffffb7ad33cc3ba552348136d3154dd19d51a8c7bd3390da380e3cafd1fa797b7385270900006a473044022049e429d63e57c7b26936369d7111ef6f6d9b3a7e5afdbf4887a6e7bf8966ab69022076f245d026b8c65bf2155ecaa1e9bfc6c0189250689ff6b34cddf13a75652de1012103b7c5631d22cfae7ccba464985dedd22ebdf2af082d29b9e959cb0bddbf4cd21dffffffff7f803f7e022f5381cb54a48f56fb174bb943e9639b68b1fe02838007b741ee9e370200006b483045022100faa73e9e6e18e0b52defc283f5cb583fb22d0026359080377c81ec45bcd83dff022072971cc9149840cd39ce4a0a64a32e60f278cc885611886942acfde8f884617801210206d6bc4c444183a528929409b160674612e6dd6684ffc16ab1f234a76cd6f3e5ffffffff7f803f7e022f5381cb54a48f56fb174bb943e9639b68b1fe02838007b741ee9e220200006b48304502210081f8b1169aeedb6d2b1b55887413d40e436e06d559c97494377c3afa010e445202202b348fbefaa331302f71df97d2647d4a2eba874bcb91c150b161aed8f7d783eb012103329243653c435e8250701e866cb57b400571c26ecf33d6ab793b618487e52ce0ffffffffb7ad33cc3ba552348136d3154dd19d51a8c7bd3390da380e3cafd1fa797b73854b0600006b483045022100f3697951221ff1b5d8d8c7772abd94fde528cf451c3295c36af2508d143f6daf0220035bf72acabaded9b17e82a4c75145ca3cd6b8c7ccd16e0d61e0978926364f0c012102a2602939a97f26e80bb49822a6ef92a28031ad352cc4e284928feca085744c40ffffffffb7ad33cc3ba552348136d3154dd19d51a8c7bd3390da380e3cafd1fa797b7385f00600006b483045022100b9c9f536abd907639fac76fbd6c835301a35652e364697185c380c670c73e8c202200d31529270e3099559e13b4de1050a43a5be812f7bf58f34f8176ad21d68e964012102ea849f2591c62fe1d2b15be56afa8ff3fea59641cefdbfa84f16d9ff658180a7ffffffffb7ad33cc3ba552348136d3154dd19d51a8c7bd3390da380e3cafd1fa797b7385240800006a4730440220325280ef4a1859682daecbaa3e865120550cbd33ca8bb0d413164cc95cf4b8b602206b4ef4bc8246a773f12eac4b2f3dd22fe298f346573f7fbc7252a751cca5eef6012103bd69371f744db4fcf0a04864049c9feaa51649b5e0a139556d9154e2001c9e44ffffffffb7ad33cc3ba552348136d3154dd19d51a8c7bd3390da380e3cafd1fa797b7385010600006b483045022100e596ffaf7c72a8532420bf3e797b0f183ef3a7e1ab8ce654f170693584c16dd202201a60897cf73d3370e5fb65aa124389153347a7fbc1220a36b5a09e4ff3b5ff4b0121037bf9b11ed202cf45c33e0321afa51dc7a57df1816e63c73b89a0e03555912a7dffffffff7f803f7e022f5381cb54a48f56fb174bb943e9639b68b1fe02838007b741ee9e880000006b483045022100a62370fb602dc0de9f0a80d3f3371fe326134a5b921e28f25315736493e0818402200a15603e4ae0a2e05600cb3a3409abc4a9d8282513c9717e0c10a05b90fbd5f3012103f07ee5b71f31222a8aa6f3ef1f8042c150e09db5940d58e740427bb9120a07f2ffffffff7f803f7e022f5381cb54a48f56fb174bb943e9639b68b1fe02838007b741ee9e870000006b483045022100d4fb6f57257f8e408206d3ee8af43d6d976608e04bc04850e92835f70bacbc3402205d939b7dc36e44e636360d75a4c17f07d6bfcdb8af1867cbc4e2fa9440601e20012102c437acac57d6217fc5389f7aa8e550fb450908833c792e12ae2c9f8161ce144bffffffff7f803f7e022f5381cb54a48f56fb174bb943e9639b68b1fe02838007b741ee9e470000006b4830450221009937ffd1153b08214e28c0a047cc9f7bd58cfddf68901b6b90325e2ff742c7f0022033302239fd4154b080960acfc21c746b6d19643653436778784e097613106aca012102fec88ff677056f8953f6457fe321a1f47d97082944c1dc388c47d9330879f5e6ffffffff04419b1700000000001976a9145de956023209cfcd41389d630fee0ea6f4d5b28688acbd190c000000000017a9146fb6f700686a42e362233d2e8e020cda07439e6d87f7820600000000001976a914b24627325439bd090b81347ed4710d39e0a5bf7888ac27ddff21000000001976a914d78d277174253dd632769b22c2b1ee665998871688ac00000000", "vin": [{"sequence": 4294967295, "scriptSig": {"hex": "483045022100dc21cd7d0b4d4d1a0d705a1e0838faaca5b82fa2f5adab083bc2c9f39314b8b2022074e20eae09a2913e6e3f74314243ac962e2da67bf567d1b6ffd9d4ceaff3ed950121022fd98603cbf24501813c0a24b998eb64f868999bd1be88ba6de51935ad60b88f", "asm": "3045022100dc21cd7d0b4d4d1a0d705a1e0838faaca5b82fa2f5adab083bc2c9f39314b8b2022074e20eae09a2913e6e3f74314243ac962e2da67bf567d1b6ffd9d4ceaff3ed95[ALL] 022fd98603cbf24501813c0a24b998eb64f868999bd1be88ba6de51935ad60b88f"}, "vout": 2, "txid": "984c31ae5f5ff3c67b35abde0ccaeb66099d279ce3d7943b2abd5b9576356982"}, {"sequence": 4294967295, "scriptSig": {"hex": "4730440220469b7e105f0988d0e67284d0a07407aabdc2d4a84a15a70bafe5bbb422540537022039b50d36299042f7e866b7b78a6c1c02657239d19bcf58c4e632f2d73cb942b4012103b7cbf3a93814eae452a5dba9e59f04cb87e62fbc2042eae261582b9cc018a010", "asm": "30440220469b7e105f0988d0e67284d0a07407aabdc2d4a84a15a70bafe5bbb422540537022039b50d36299042f7e866b7b78a6c1c02657239d19bcf58c4e632f2d73cb942b4[ALL] 03b7cbf3a93814eae452a5dba9e59f04cb87e62fbc2042eae261582b9cc018a010"}, "vout": 201, "txid": "059fd8debebc091c28b26c895b46186386d5acd7413473242d579a79748c4ec9"}, {"sequence": 4294967295, "scriptSig": {"hex": "483045022100fa4aa29bdc4f87b3505e592819ab96861195b33e70e98055719dced4aae1d6980220795f84e7eda4da77e7a021e66c202851097ee324a367ba0269f4a4b4180f62b80121021b9cf20e6a475152a3ee20bed5276edbe8e02408747b7b51e98eb92d128068b3", "asm": "3045022100fa4aa29bdc4f87b3505e592819ab96861195b33e70e98055719dced4aae1d6980220795f84e7eda4da77e7a021e66c202851097ee324a367ba0269f4a4b4180f62b8[ALL] 021b9cf20e6a475152a3ee20bed5276edbe8e02408747b7b51e98eb92d128068b3"}, "vout": 12, "txid": "6f0133902b59e15ded6bc75efbf03e3b83fe00274b262e2f61f8fa3ef1568f3f"}, {"sequence": 4294967295, "scriptSig": {"hex": "47304402203ee0bf1ecfd7fdd4000d50c128e1ff7377197b669b665b9ae1e9602434eaa6800220071c78e0a085caac3ad50e4abb48ca3ba2180483d529bab82f78d0788b534f1c012103ff1ca9fceb5a8c327e0c9593c6af8f3f9308461de40596f35645e05ca3e4f9f3", "asm": "304402203ee0bf1ecfd7fdd4000d50c128e1ff7377197b669b665b9ae1e9602434eaa6800220071c78e0a085caac3ad50e4abb48ca3ba2180483d529bab82f78d0788b534f1c[ALL] 03ff1ca9fceb5a8c327e0c9593c6af8f3f9308461de40596f35645e05ca3e4f9f3"}, "vout": 150, "txid": "059fd8debebc091c28b26c895b46186386d5acd7413473242d579a79748c4ec9"}, {"sequence": 4294967295, "scriptSig": {"hex": "483045022100c3ec71521b0083f92139465892d951b9076ccb2a66d50658c63764000c34e895022015f12e3ffadfe80ecebb4215185c1b49154ef73802c073392481d30d126b7d360121030acf37399fc6894b4c809070d09eb3b0265d448e85c592bdf34c4e063c5e5cb8", "asm": "3045022100c3ec71521b0083f92139465892d951b9076ccb2a66d50658c63764000c34e895022015f12e3ffadfe80ecebb4215185c1b49154ef73802c073392481d30d126b7d36[ALL] 030acf37399fc6894b4c809070d09eb3b0265d448e85c592bdf34c4e063c5e5cb8"}, "vout": 149, "txid": "059fd8debebc091c28b26c895b46186386d5acd7413473242d579a79748c4ec9"}, {"sequence": 4294967295, "scriptSig": {"hex": "483045022100a4b19c4071e81f903706df0c01c4f66f685b799ad590781bb85bcfd992c51b020220400a82bf7af04e094901452437c2c7344ed8df269b9f1ca6f2a6926ce2257a1a012103a633d74adf43afc91593e80be0fb670724a20cf805d5da01c2a77ed293d64884", "asm": "3045022100a4b19c4071e81f903706df0c01c4f66f685b799ad590781bb85bcfd992c51b020220400a82bf7af04e094901452437c2c7344ed8df269b9f1ca6f2a6926ce2257a1a[ALL] 03a633d74adf43afc91593e80be0fb670724a20cf805d5da01c2a77ed293d64884"}, "vout": 0, "txid": "ab4763b01325ebb9e807512649745f577c17ee156246770ec0079b28a0843827"}, {"sequence": 4294967295, "scriptSig": {"hex": "483045022100d28f295971e5293f2bd726cf1d16d4a102fa15e65c0eee0350739b7808608bea0220315dbe3a63718c250550606b02df06cad40775621283179afca0dc1a2904489501210319c6279cb9592eaf083d170b32ce27f83dacb8f6387c8cc8e680312cf7fc6382", "asm": "3045022100d28f295971e5293f2bd726cf1d16d4a102fa15e65c0eee0350739b7808608bea0220315dbe3a63718c250550606b02df06cad40775621283179afca0dc1a29044895[ALL] 0319c6279cb9592eaf083d170b32ce27f83dacb8f6387c8cc8e680312cf7fc6382"}, "vout": 316, "txid": "b4aa05da519489d2526d5378fa54413157216bad62333b20471b76e919cadec8"}, {"sequence": 4294967295, "scriptSig": {"hex": "483045022100ec09c342e1809cbeb95442a54eaeeaf08006d0481e768e28327d3fb37e1dc54a02205039e396fb881d0e0b86001479ca01c0717d923767189619dcc652c02723b7a6012102ee444c56f5c3d04baddf59285f775b5ca014b64be4c32011a58b11418fd91cd7", "asm": "3045022100ec09c342e1809cbeb95442a54eaeeaf08006d0481e768e28327d3fb37e1dc54a02205039e396fb881d0e0b86001479ca01c0717d923767189619dcc652c02723b7a6[ALL] 02ee444c56f5c3d04baddf59285f775b5ca014b64be4c32011a58b11418fd91cd7"}, "vout": 313, "txid": "b4aa05da519489d2526d5378fa54413157216bad62333b20471b76e919cadec8"}, {"sequence": 4294967295, "scriptSig": {"hex": "4730440220566b0b27dac326342b2438ef5b4a45d4b114dd9209fb7a99b4d2bbf2568c4e8b02206cab632cce130a3ab0667aa07b6cb72fd4ceee824fcd3cd47dd78603fa3a2cd701210386c98b28628fa10d9d149620f77985251dd32c71258f367ac1dcb25c0ad2350b", "asm": "30440220566b0b27dac326342b2438ef5b4a45d4b114dd9209fb7a99b4d2bbf2568c4e8b02206cab632cce130a3ab0667aa07b6cb72fd4ceee824fcd3cd47dd78603fa3a2cd7[ALL] 0386c98b28628fa10d9d149620f77985251dd32c71258f367ac1dcb25c0ad2350b"}, "vout": 0, "txid": "94110a8b2d19039b32ffa56cb1bf054cffe2da389315980224c1af345658bfaa"}, {"sequence": 4294967295, "scriptSig": {"hex": "47304402206226dd2812677e72e28bce4c75379b0ed04b2065ba5d712575fd8e46b47b71cb0220101951eaea17359f9361fdfc80f06af9305465b291ca6020e1863e4c7cc0e393012102a7b349239e8ef6b3b1919863e3ba0299a6f29735ad008a3ce689ccf4e18b59e1", "asm": "304402206226dd2812677e72e28bce4c75379b0ed04b2065ba5d712575fd8e46b47b71cb0220101951eaea17359f9361fdfc80f06af9305465b291ca6020e1863e4c7cc0e393[ALL] 02a7b349239e8ef6b3b1919863e3ba0299a6f29735ad008a3ce689ccf4e18b59e1"}, "vout": 0, "txid": "335dc0385be82372632b07f19acb7068990ebc5b4e0eba9953ecbe415cb8049b"}, {"sequence": 4294967295, "scriptSig": {"hex": "473044022049e429d63e57c7b26936369d7111ef6f6d9b3a7e5afdbf4887a6e7bf8966ab69022076f245d026b8c65bf2155ecaa1e9bfc6c0189250689ff6b34cddf13a75652de1012103b7c5631d22cfae7ccba464985dedd22ebdf2af082d29b9e959cb0bddbf4cd21d", "asm": "3044022049e429d63e57c7b26936369d7111ef6f6d9b3a7e5afdbf4887a6e7bf8966ab69022076f245d026b8c65bf2155ecaa1e9bfc6c0189250689ff6b34cddf13a75652de1[ALL] 03b7c5631d22cfae7ccba464985dedd22ebdf2af082d29b9e959cb0bddbf4cd21d"}, "vout": 2343, "txid": "85737b79fad1af3c0e38da9033bdc7a8519dd14d15d336813452a53bcc33adb7"}, {"sequence": 4294967295, "scriptSig": {"hex": "483045022100faa73e9e6e18e0b52defc283f5cb583fb22d0026359080377c81ec45bcd83dff022072971cc9149840cd39ce4a0a64a32e60f278cc885611886942acfde8f884617801210206d6bc4c444183a528929409b160674612e6dd6684ffc16ab1f234a76cd6f3e5", "asm": "3045022100faa73e9e6e18e0b52defc283f5cb583fb22d0026359080377c81ec45bcd83dff022072971cc9149840cd39ce4a0a64a32e60f278cc885611886942acfde8f8846178[ALL] 0206d6bc4c444183a528929409b160674612e6dd6684ffc16ab1f234a76cd6f3e5"}, "vout": 567, "txid": "9eee41b707808302feb1689b63e943b94b17fb568fa454cb81532f027e3f807f"}, {"sequence": 4294967295, "scriptSig": {"hex": "48304502210081f8b1169aeedb6d2b1b55887413d40e436e06d559c97494377c3afa010e445202202b348fbefaa331302f71df97d2647d4a2eba874bcb91c150b161aed8f7d783eb012103329243653c435e8250701e866cb57b400571c26ecf33d6ab793b618487e52ce0", "asm": "304502210081f8b1169aeedb6d2b1b55887413d40e436e06d559c97494377c3afa010e445202202b348fbefaa331302f71df97d2647d4a2eba874bcb91c150b161aed8f7d783eb[ALL] 03329243653c435e8250701e866cb57b400571c26ecf33d6ab793b618487e52ce0"}, "vout": 546, "txid": "9eee41b707808302feb1689b63e943b94b17fb568fa454cb81532f027e3f807f"}, {"sequence": 4294967295, "scriptSig": {"hex": "483045022100f3697951221ff1b5d8d8c7772abd94fde528cf451c3295c36af2508d143f6daf0220035bf72acabaded9b17e82a4c75145ca3cd6b8c7ccd16e0d61e0978926364f0c012102a2602939a97f26e80bb49822a6ef92a28031ad352cc4e284928feca085744c40", "asm": "3045022100f3697951221ff1b5d8d8c7772abd94fde528cf451c3295c36af2508d143f6daf0220035bf72acabaded9b17e82a4c75145ca3cd6b8c7ccd16e0d61e0978926364f0c[ALL] 02a2602939a97f26e80bb49822a6ef92a28031ad352cc4e284928feca085744c40"}, "vout": 1611, "txid": "85737b79fad1af3c0e38da9033bdc7a8519dd14d15d336813452a53bcc33adb7"}, {"sequence": 4294967295, "scriptSig": {"hex": "483045022100b9c9f536abd907639fac76fbd6c835301a35652e364697185c380c670c73e8c202200d31529270e3099559e13b4de1050a43a5be812f7bf58f34f8176ad21d68e964012102ea849f2591c62fe1d2b15be56afa8ff3fea59641cefdbfa84f16d9ff658180a7", "asm": "3045022100b9c9f536abd907639fac76fbd6c835301a35652e364697185c380c670c73e8c202200d31529270e3099559e13b4de1050a43a5be812f7bf58f34f8176ad21d68e964[ALL] 02ea849f2591c62fe1d2b15be56afa8ff3fea59641cefdbfa84f16d9ff658180a7"}, "vout": 1776, "txid": "85737b79fad1af3c0e38da9033bdc7a8519dd14d15d336813452a53bcc33adb7"}, {"sequence": 4294967295, "scriptSig": {"hex": "4730440220325280ef4a1859682daecbaa3e865120550cbd33ca8bb0d413164cc95cf4b8b602206b4ef4bc8246a773f12eac4b2f3dd22fe298f346573f7fbc7252a751cca5eef6012103bd69371f744db4fcf0a04864049c9feaa51649b5e0a139556d9154e2001c9e44", "asm": "30440220325280ef4a1859682daecbaa3e865120550cbd33ca8bb0d413164cc95cf4b8b602206b4ef4bc8246a773f12eac4b2f3dd22fe298f346573f7fbc7252a751cca5eef6[ALL] 03bd69371f744db4fcf0a04864049c9feaa51649b5e0a139556d9154e2001c9e44"}, "vout": 2084, "txid": "85737b79fad1af3c0e38da9033bdc7a8519dd14d15d336813452a53bcc33adb7"}, {"sequence": 4294967295, "scriptSig": {"hex": "483045022100e596ffaf7c72a8532420bf3e797b0f183ef3a7e1ab8ce654f170693584c16dd202201a60897cf73d3370e5fb65aa124389153347a7fbc1220a36b5a09e4ff3b5ff4b0121037bf9b11ed202cf45c33e0321afa51dc7a57df1816e63c73b89a0e03555912a7d", "asm": "3045022100e596ffaf7c72a8532420bf3e797b0f183ef3a7e1ab8ce654f170693584c16dd202201a60897cf73d3370e5fb65aa124389153347a7fbc1220a36b5a09e4ff3b5ff4b[ALL] 037bf9b11ed202cf45c33e0321afa51dc7a57df1816e63c73b89a0e03555912a7d"}, "vout": 1537, "txid": "85737b79fad1af3c0e38da9033bdc7a8519dd14d15d336813452a53bcc33adb7"}, {"sequence": 4294967295, "scriptSig": {"hex": "483045022100a62370fb602dc0de9f0a80d3f3371fe326134a5b921e28f25315736493e0818402200a15603e4ae0a2e05600cb3a3409abc4a9d8282513c9717e0c10a05b90fbd5f3012103f07ee5b71f31222a8aa6f3ef1f8042c150e09db5940d58e740427bb9120a07f2", "asm": "3045022100a62370fb602dc0de9f0a80d3f3371fe326134a5b921e28f25315736493e0818402200a15603e4ae0a2e05600cb3a3409abc4a9d8282513c9717e0c10a05b90fbd5f3[ALL] 03f07ee5b71f31222a8aa6f3ef1f8042c150e09db5940d58e740427bb9120a07f2"}, "vout": 136, "txid": "9eee41b707808302feb1689b63e943b94b17fb568fa454cb81532f027e3f807f"}, {"sequence": 4294967295, "scriptSig": {"hex": "483045022100d4fb6f57257f8e408206d3ee8af43d6d976608e04bc04850e92835f70bacbc3402205d939b7dc36e44e636360d75a4c17f07d6bfcdb8af1867cbc4e2fa9440601e20012102c437acac57d6217fc5389f7aa8e550fb450908833c792e12ae2c9f8161ce144b", "asm": "3045022100d4fb6f57257f8e408206d3ee8af43d6d976608e04bc04850e92835f70bacbc3402205d939b7dc36e44e636360d75a4c17f07d6bfcdb8af1867cbc4e2fa9440601e20[ALL] 02c437acac57d6217fc5389f7aa8e550fb450908833c792e12ae2c9f8161ce144b"}, "vout": 135, "txid": "9eee41b707808302feb1689b63e943b94b17fb568fa454cb81532f027e3f807f"}, {"sequence": 4294967295, "scriptSig": {"hex": "4830450221009937ffd1153b08214e28c0a047cc9f7bd58cfddf68901b6b90325e2ff742c7f0022033302239fd4154b080960acfc21c746b6d19643653436778784e097613106aca012102fec88ff677056f8953f6457fe321a1f47d97082944c1dc388c47d9330879f5e6", "asm": "30450221009937ffd1153b08214e28c0a047cc9f7bd58cfddf68901b6b90325e2ff742c7f0022033302239fd4154b080960acfc21c746b6d19643653436778784e097613106aca[ALL] 02fec88ff677056f8953f6457fe321a1f47d97082944c1dc388c47d9330879f5e6"}, "vout": 71, "txid": "9eee41b707808302feb1689b63e943b94b17fb568fa454cb81532f027e3f807f"}], "txid": "9b5e428f0731a866d139aeaf89f91ea7354311294521a1a4986babfc5d8d55f4", "blocktime": 1537871767, "version": 1, "confirmations": 11490, "time": 1537871767, "locktime": 0, "vsize": 3098, "size": 3098}