{"hash": "8c6474e5ad161ab5d5db98b4839dae8a154f17c3e6d4fc535ba483a87f1b85ff", "blockhash": "0000000000000000000e13cef7c366c0283d82e591d1acd082e914b08063cdf1", "vout": [{"scriptPubKey": {"reqSigs": 1, "hex": "a914e13c44ea579d637efec0c1d31818ca03e75d3e0187", "addresses": ["3NDxAHNYFrzVtVJfNRV8Y21F4fjCAYGL7W"], "asm": "OP_HASH160 e13c44ea579d637efec0c1d31818ca03e75d3e01 OP_EQUAL", "type": "scripthash"}, "value": 0.01720258, "n": 0}, {"scriptPubKey": {"reqSigs": 1, "hex": "76a914a9fe6a270995b7a90c7b76306e07a17d2f93509588ac", "addresses": ["1GVqyTfPwJju6kphWzMCGxDkzACUPEAk1a"], "asm": "OP_DUP OP_HASH160 a9fe6a270995b7a90c7b76306e07a17d2f935095 OP_EQUALVERIFY OP_CHECKSIG", "type": "pubkeyhash"}, "value": 0.00392032, "n": 1}], "hex": "0200000000010207c059f825679612d7a310222d2d3058f164a4883731984658591ee3af966af7000000001716001491eb4d3d26827bf6882266e8bf7514d251e8d8d1feffffffb3f6fb3b706f74a9b686f36ca32712f121e8b1790b441a058216091a602f42b3000000001716001472d702af07166e089380bb91cac965ffd5767d93feffffff02c23f1a000000000017a914e13c44ea579d637efec0c1d31818ca03e75d3e018760fb0500000000001976a914a9fe6a270995b7a90c7b76306e07a17d2f93509588ac02483045022100d3be290d51eafc279feab4721542efa2686b3e40c90ef376b21bca411e7981e8022005af18563ab562a88d8b28856e4315e81097412fa0b0547f6800caca342a43e8012103f952d9792ac456d21e3723082111b73bc8cea39705830c349948b888ac5b027e02473044022024872e7cc18b1055a4a94003f4858267897ce7db87688f64f8aff0be54b3dbc902206d9b68e8dea5372b586d85e10773fa3e2200fb9c2698a04fd3ec46ff14bee3dd0121030baf7753e8a8535d3205c71472133c0db55fc4f72449b48082ef0ac7e6f32f4d0f490800", "vin": [{"txinwitness": ["3045022100d3be290d51eafc279feab4721542efa2686b3e40c90ef376b21bca411e7981e8022005af18563ab562a88d8b28856e4315e81097412fa0b0547f6800caca342a43e801", "03f952d9792ac456d21e3723082111b73bc8cea39705830c349948b888ac5b027e"], "sequence": 4294967294, "scriptSig": {"hex": "16001491eb4d3d26827bf6882266e8bf7514d251e8d8d1", "asm": "001491eb4d3d26827bf6882266e8bf7514d251e8d8d1"}, "vout": 0, "txid": "f76a96afe31e59584698313788a464f158302d2d2210a3d712966725f859c007"}, {"txinwitness": ["3044022024872e7cc18b1055a4a94003f4858267897ce7db87688f64f8aff0be54b3dbc902206d9b68e8dea5372b586d85e10773fa3e2200fb9c2698a04fd3ec46ff14bee3dd01", "030baf7753e8a8535d3205c71472133c0db55fc4f72449b48082ef0ac7e6f32f4d"], "sequence": 4294967294, "scriptSig": {"hex": "16001472d702af07166e089380bb91cac965ffd5767d93", "asm": "001472d702af07166e089380bb91cac965ffd5767d93"}, "vout": 0, "txid": "b3422f601a091682051a440b79b1e821f11227a36cf386b6a9746f703bfbf6b3"}], "txid": "9b64a267a483568004f741d12901b8270a95b168f9a51d6af40bdd6ab31ff5e1", "blocktime": 1537871767, "version": 2, "confirmations": 11495, "time": 1537871767, "locktime": 542991, "vsize": 259, "size": 421}