{"hash": "9b669aa797c049372ad3d3d9dc28ce9d4a5908e8c0bb16c78b46996c7718b40f", "blockhash": "0000000000000000001cda96e906b7601b7a6fb1a3b62bca570a9e5d8f4b3de1", "vout": [{"scriptPubKey": {"reqSigs": 1, "hex": "76a91423c2f147474cb911d86886b16dce9d791ab3a22388ac", "addresses": ["14G6BZFNWJXAYdS5mGKSwmbCgpEMPpCnqn"], "asm": "OP_DUP OP_HASH160 23c2f147474cb911d86886b16dce9d791ab3a223 OP_EQUALVERIFY OP_CHECKSIG", "type": "pubkeyhash"}, "value": 0.00015484, "n": 0}, {"scriptPubKey": {"reqSigs": 1, "hex": "a914ec8669e84dafc77a942d29f61263d4f287a86a9587", "addresses": ["3PFeR3UFbTvitWog12qFLeYozejnyefvpE"], "asm": "OP_HASH160 ec8669e84dafc77a942d29f61263d4f287a86a95 OP_EQUAL", "type": "scripthash"}, "value": 0.01545607, "n": 1}], "hex": "0100000001437598a6660ebfd87efee1b7e14604bdbf9b52fde94dcec6a7d14eade0fdbea5010000006a47304402200c30b9fe192b666e16010709fdeb8dd1ccf27bde5ff76adaa2e52357e53005bc022035b358c7a8f0cc80be53c898f27c7939d080478656048bbde245aa91b4c4551f0121033d50685c403dd97e353268cdb927f7c421be26b3841cb2ceff3f8d9b4018bb64ffffffff027c3c0000000000001976a91423c2f147474cb911d86886b16dce9d791ab3a22388ac879517000000000017a914ec8669e84dafc77a942d29f61263d4f287a86a958700000000", "vin": [{"sequence": 4294967295, "scriptSig": {"hex": "47304402200c30b9fe192b666e16010709fdeb8dd1ccf27bde5ff76adaa2e52357e53005bc022035b358c7a8f0cc80be53c898f27c7939d080478656048bbde245aa91b4c4551f0121033d50685c403dd97e353268cdb927f7c421be26b3841cb2ceff3f8d9b4018bb64", "asm": "304402200c30b9fe192b666e16010709fdeb8dd1ccf27bde5ff76adaa2e52357e53005bc022035b358c7a8f0cc80be53c898f27c7939d080478656048bbde245aa91b4c4551f[ALL] 033d50685c403dd97e353268cdb927f7c421be26b3841cb2ceff3f8d9b4018bb64"}, "vout": 1, "txid": "a5befde0ad4ed1a7c6ce4de9fd529bbfbd0446e1b7e1fe7ed8bf0e66a6987543"}], "txid": "9b669aa797c049372ad3d3d9dc28ce9d4a5908e8c0bb16c78b46996c7718b40f", "blocktime": 1537873282, "version": 1, "confirmations": 11484, "time": 1537873282, "locktime": 0, "vsize": 223, "size": 223}