{"hash": "9b69a527dff4127814dffe4b88c22b45314c003fd7b023f4aad7ad125407ee75", "blockhash": "00000000000000000004ffacab907a6b429b9a5745fa0b75af4234bf69dd7176", "vout": [{"scriptPubKey": {"reqSigs": 1, "hex": "76a9140f826bc3ded085aab281f028d64cda65b581897788ac", "addresses": ["12R1NghUrftTsNKNENRVB7pqPqWSdqHFHZ"], "asm": "OP_DUP OP_HASH160 0f826bc3ded085aab281f028d64cda65b5818977 OP_EQUALVERIFY OP_CHECKSIG", "type": "pubkeyhash"}, "value": 0.03096496, "n": 0}, {"scriptPubKey": {"reqSigs": 1, "hex": "76a9144a0f1e2f2b0d7daeec5265f10bbbbe08ed725e8988ac", "addresses": ["17kb7c9ndg7ioSuzMWEHWECdEVUegNkcGc"], "asm": "OP_DUP OP_HASH160 4a0f1e2f2b0d7daeec5265f10bbbbe08ed725e89 OP_EQUALVERIFY OP_CHECKSIG", "type": "pubkeyhash"}, "value": 0.001094, "n": 1}], "hex": "010000000180bb91fe6eee3822491f948eb9c6eff6c192d54119eda515db86765935d4ed18000000006a47304402200214122d84d1aaea90757a1a3d5f942420f53650c68c836431bdd3fb37e13cee02201b758d753f2f1e08a8156e9f13f96132b741b3ccccdc4b946b553cb7877b934d01210363e1776495149c5a4e92acf453a3caa19000fc804e4ba2024b600ba25e09c943ffffffff02b03f2f00000000001976a9140f826bc3ded085aab281f028d64cda65b581897788ac58ab0100000000001976a9144a0f1e2f2b0d7daeec5265f10bbbbe08ed725e8988ac00000000", "vin": [{"sequence": 4294967295, "scriptSig": {"hex": "47304402200214122d84d1aaea90757a1a3d5f942420f53650c68c836431bdd3fb37e13cee02201b758d753f2f1e08a8156e9f13f96132b741b3ccccdc4b946b553cb7877b934d01210363e1776495149c5a4e92acf453a3caa19000fc804e4ba2024b600ba25e09c943", "asm": "304402200214122d84d1aaea90757a1a3d5f942420f53650c68c836431bdd3fb37e13cee02201b758d753f2f1e08a8156e9f13f96132b741b3ccccdc4b946b553cb7877b934d[ALL] 0363e1776495149c5a4e92acf453a3caa19000fc804e4ba2024b600ba25e09c943"}, "vout": 0, "txid": "18edd435597686db15a5ed1941d592c1f6efc6b98e941f492238ee6efe91bb80"}], "txid": "9b69a527dff4127814dffe4b88c22b45314c003fd7b023f4aad7ad125407ee75", "blocktime": 1537875543, "version": 1, "confirmations": 11464, "time": 1537875543, "locktime": 0, "vsize": 225, "size": 225}