{"hash": "24f13c5897dff16f51e440637518a4dd0213f22f37ce1e67bd6cc4b41512e596", "blockhash": "0000000000000000001cda96e906b7601b7a6fb1a3b62bca570a9e5d8f4b3de1", "vout": [{"scriptPubKey": {"reqSigs": 1, "hex": "76a9142e1b944fe7ffbe969fc1df8d662fd7b5d6303c9b88ac", "addresses": ["15Co856cRnFRCKwSSzECoyT3ozVhuFoJZ6"], "asm": "OP_DUP OP_HASH160 2e1b944fe7ffbe969fc1df8d662fd7b5d6303c9b OP_EQUALVERIFY OP_CHECKSIG", "type": "pubkeyhash"}, "value": 0.0028546, "n": 0}, {"scriptPubKey": {"reqSigs": 1, "hex": "a9142bf684d67eda17a7dbb67040d4c19ccabbbf6d2587", "addresses": ["35hUJE3kaDdjVP3SMikYKTBR2EtHmowKeL"], "asm": "OP_HASH160 2bf684d67eda17a7dbb67040d4c19ccabbbf6d25 OP_EQUAL", "type": "scripthash"}, "value": 0.01000411, "n": 1}], "hex": "0200000000010287411bbf370b413f6c573b6a07490daaa2401274364cbe6a13cc73716a3e0ae915000000171600146c8180ee742b5751882c3f4c106c63aa12bbd35efeffffffc66ef9e715ca2a21d002d7383dbc9662c54c0362f9e397bda21ecd6cfdf65d6100000000171600144dbad0bd1492c8a01754eb5de68ff3b9dfb85cdbfeffffff02145b0400000000001976a9142e1b944fe7ffbe969fc1df8d662fd7b5d6303c9b88acdb430f000000000017a9142bf684d67eda17a7dbb67040d4c19ccabbbf6d258702473044022047432ac2f09de7f7bea71f7adcb902f86cab338959e6264090007eed571a19b60220769e69c310d25b43d78e6ba2e98debf254c51090b28549cf2e9fa79d85ef7ed401210262aa83ecda6bf5ffd94ff18818fb85b7eb040f93ebe303699be551b9e1b9d69702483045022100e2fd3a3f74ce574fb80d988a202be04d615a9f619cbce45599cb0fee06d8226b022000eff163f64e960982de4ce9e5df6533e60e5d1cb7120302568296811cec45a60121039f2302f169140aa3c42600e4ec5db5a0d8d45ac864d885b1b196481c3e7866ff13490800", "vin": [{"txinwitness": ["3044022047432ac2f09de7f7bea71f7adcb902f86cab338959e6264090007eed571a19b60220769e69c310d25b43d78e6ba2e98debf254c51090b28549cf2e9fa79d85ef7ed401", "0262aa83ecda6bf5ffd94ff18818fb85b7eb040f93ebe303699be551b9e1b9d697"], "sequence": 4294967294, "scriptSig": {"hex": "1600146c8180ee742b5751882c3f4c106c63aa12bbd35e", "asm": "00146c8180ee742b5751882c3f4c106c63aa12bbd35e"}, "vout": 21, "txid": "e90a3e6a7173cc136abe4c36741240a2aa0d49076a3b576c3f410b37bf1b4187"}, {"txinwitness": ["3045022100e2fd3a3f74ce574fb80d988a202be04d615a9f619cbce45599cb0fee06d8226b022000eff163f64e960982de4ce9e5df6533e60e5d1cb7120302568296811cec45a601", "039f2302f169140aa3c42600e4ec5db5a0d8d45ac864d885b1b196481c3e7866ff"], "sequence": 4294967294, "scriptSig": {"hex": "1600144dbad0bd1492c8a01754eb5de68ff3b9dfb85cdb", "asm": "00144dbad0bd1492c8a01754eb5de68ff3b9dfb85cdb"}, "vout": 0, "txid": "615df6fd6ccd1ea2bd97e3f962034cc56296bc3d38d702d0212aca15e7f96ec6"}], "txid": "9b6fd0bdf6af69a4f2fb587e88570d82a7a54472248efc697627637a638371f8", "blocktime": 1537873282, "version": 2, "confirmations": 11485, "time": 1537873282, "locktime": 542995, "vsize": 259, "size": 421}