{"hash": "9b74f26621838fc232f593a8bfe1d992a9b19fa78c0d4703bf932b42bac75882", "blockhash": "0000000000000000000baef3f32e3676a92c3b2e5da21b426e4f302fc371ce76", "vout": [{"scriptPubKey": {"type": "nulldata", "hex": "6a146f6d6e69000000000000001f0000006e17d15f80", "asm": "OP_RETURN 6f6d6e69000000000000001f0000006e17d15f80"}, "value": 0.0, "n": 0}, {"scriptPubKey": {"reqSigs": 1, "hex": "76a9147a6457d8ad04bbb3554b4ffb9797ae099ed9728988ac", "addresses": ["1CA9eNKbdhUSoR8yqLkzFovwLuFU2vtLzD"], "asm": "OP_DUP OP_HASH160 7a6457d8ad04bbb3554b4ffb9797ae099ed97289 OP_EQUALVERIFY OP_CHECKSIG", "type": "pubkeyhash"}, "value": 5.46e-06, "n": 1}, {"scriptPubKey": {"reqSigs": 1, "hex": "76a9147772194e882117de3717689a7569a120f389d82e88ac", "addresses": ["1Bta6ZCkPXrwDHzXtNKDrKvDwmixX5JTNi"], "asm": "OP_DUP OP_HASH160 7772194e882117de3717689a7569a120f389d82e OP_EQUALVERIFY OP_CHECKSIG", "type": "pubkeyhash"}, "value": 0.04746294, "n": 2}], "hex": "0100000001082312e53a07fdab8968b05a347d8d8c2c068139f15d55aa7300a39af4b5ba50000000006a47304402202d3bbdfc820a03d6a4e9ee7537005aa6c42caa225b1a7d39cc5308fec66ae36002206f24c9d47e13ae2c3aea0913b94a3810646e35ec631624a26c28153be7ad5bfb01210314ecc5b6203367a70a1c669434f06a1e256d88e4aff5a34e8f51e90b1d7b7a43feffffff030000000000000000166a146f6d6e69000000000000001f0000006e17d15f8022020000000000001976a9147a6457d8ad04bbb3554b4ffb9797ae099ed9728988ac366c4800000000001976a9147772194e882117de3717689a7569a120f389d82e88ac17490800", "vin": [{"sequence": 4294967294, "scriptSig": {"hex": "47304402202d3bbdfc820a03d6a4e9ee7537005aa6c42caa225b1a7d39cc5308fec66ae36002206f24c9d47e13ae2c3aea0913b94a3810646e35ec631624a26c28153be7ad5bfb01210314ecc5b6203367a70a1c669434f06a1e256d88e4aff5a34e8f51e90b1d7b7a43", "asm": "304402202d3bbdfc820a03d6a4e9ee7537005aa6c42caa225b1a7d39cc5308fec66ae36002206f24c9d47e13ae2c3aea0913b94a3810646e35ec631624a26c28153be7ad5bfb[ALL] 0314ecc5b6203367a70a1c669434f06a1e256d88e4aff5a34e8f51e90b1d7b7a43"}, "vout": 0, "txid": "50bab5f49aa30073aa555df13981062c8c8d7d345ab06889abfd073ae5122308"}], "txid": "9b74f26621838fc232f593a8bfe1d992a9b19fa78c0d4703bf932b42bac75882", "blocktime": 1537876114, "version": 1, "confirmations": 11459, "time": 1537876114, "locktime": 542999, "vsize": 256, "size": 256}