{"hash": "9b79e9347b95daac1d95876ecda78b09cd115aec1d02248a1d41ccd6f9613df5", "blockhash": "0000000000000000001cda96e906b7601b7a6fb1a3b62bca570a9e5d8f4b3de1", "vout": [{"scriptPubKey": {"reqSigs": 1, "hex": "76a914d51909ffa79210e002e43c976557da8d7a03772888ac", "addresses": ["1LRkvc37NCokKwCwXCFiSKWihVo52kUXma"], "asm": "OP_DUP OP_HASH160 d51909ffa79210e002e43c976557da8d7a037728 OP_EQUALVERIFY OP_CHECKSIG", "type": "pubkeyhash"}, "value": 0.01397464, "n": 0}, {"scriptPubKey": {"type": "nulldata", "hex": "6a4c50000077ca000156ad56564651153b13e171da5b23cc0f42c2fc38c5e5bf9ae76da98a211af20c93f69a8b1c3b9601b103f5867b205baa13d90612c0ea5619812ebc9a9526289ac0f6612cd74e33776ee4", "asm": "OP_RETURN 000077ca000156ad56564651153b13e171da5b23cc0f42c2fc38c5e5bf9ae76da98a211af20c93f69a8b1c3b9601b103f5867b205baa13d90612c0ea5619812ebc9a9526289ac0f6612cd74e33776ee4"}, "value": 0.0, "n": 1}], "hex": "0100000001a3b0a14f5b1c2864576f1637b6f5c0a4ce9d2c7242a80ee531b9007e2a64b639000000006a473044022016f05f2ec68d8217870a45de3e559bcc5b8f08e41e8d5f25e516d3a5fdbb748f022022ca0c1789aca735800ccd2564e0f856433e436944e4e1472d0b23c694fae90f01210287523f33ef6e5a028af6a26f8c5ea3dcda3a4f488b0625ae5f12100ab3b770e1ffffffff02d8521500000000001976a914d51909ffa79210e002e43c976557da8d7a03772888ac0000000000000000536a4c50000077ca000156ad56564651153b13e171da5b23cc0f42c2fc38c5e5bf9ae76da98a211af20c93f69a8b1c3b9601b103f5867b205baa13d90612c0ea5619812ebc9a9526289ac0f6612cd74e33776ee400000000", "vin": [{"sequence": 4294967295, "scriptSig": {"hex": "473044022016f05f2ec68d8217870a45de3e559bcc5b8f08e41e8d5f25e516d3a5fdbb748f022022ca0c1789aca735800ccd2564e0f856433e436944e4e1472d0b23c694fae90f01210287523f33ef6e5a028af6a26f8c5ea3dcda3a4f488b0625ae5f12100ab3b770e1", "asm": "3044022016f05f2ec68d8217870a45de3e559bcc5b8f08e41e8d5f25e516d3a5fdbb748f022022ca0c1789aca735800ccd2564e0f856433e436944e4e1472d0b23c694fae90f[ALL] 0287523f33ef6e5a028af6a26f8c5ea3dcda3a4f488b0625ae5f12100ab3b770e1"}, "vout": 0, "txid": "39b6642a7e00b931e50ea842722c9dcea4c0f5b637166f5764281c5b4fa1b0a3"}], "txid": "9b79e9347b95daac1d95876ecda78b09cd115aec1d02248a1d41ccd6f9613df5", "blocktime": 1537873282, "version": 1, "confirmations": 11484, "time": 1537873282, "locktime": 0, "vsize": 283, "size": 283}