{"hash": "e61c3dc7fe47df88e2f17f925be762c103aecbeeb8b9dbfb0f121739a0e4a4a1", "blockhash": "00000000000000000018f53835495a110e01622372bf6ae95dc86f2b0ab887b0", "vout": [{"scriptPubKey": {"reqSigs": 1, "hex": "a914441d880b236d8a59d3092c366c5ed0ec57c07dcb87", "addresses": ["37uBFU46JjpvPyzSr1xXsB4M3r7zgusGs9"], "asm": "OP_HASH160 441d880b236d8a59d3092c366c5ed0ec57c07dcb OP_EQUAL", "type": "scripthash"}, "value": 0.02062155, "n": 0}, {"scriptPubKey": {"reqSigs": 1, "hex": "0014187efb96950a62336bd25526a3afb035c7f6e5f5", "addresses": ["bc1qrpl0h954pf3rx67j25n28tasxhrlde042a0cx5"], "asm": "0 187efb96950a62336bd25526a3afb035c7f6e5f5", "type": "witness_v0_keyhash"}, "value": 0.19600064, "n": 1}], "hex": "0100000000010140446fa331c646ef081dced2909e04c31597de0dadf00a942f7e27a4293b25090100000000ffffffff024b771f000000000017a914441d880b236d8a59d3092c366c5ed0ec57c07dcb87c0122b0100000000160014187efb96950a62336bd25526a3afb035c7f6e5f50247304402201788f0089e249a0c0be7b648df1e7a584bc6ce270095549a8e86fc1cb437afd202200502af4286e58c7c005e2a85296ee08dacf39afe046af1da9748f933a5351e4e0121022d8a032b6397ed1489c744315258ea0b62580681670e868c67062b3aa7b6ca6a00000000", "vin": [{"txinwitness": ["304402201788f0089e249a0c0be7b648df1e7a584bc6ce270095549a8e86fc1cb437afd202200502af4286e58c7c005e2a85296ee08dacf39afe046af1da9748f933a5351e4e01", "022d8a032b6397ed1489c744315258ea0b62580681670e868c67062b3aa7b6ca6a"], "sequence": 4294967295, "scriptSig": {"hex": "", "asm": ""}, "vout": 1, "txid": "09253b29a4277e2f940af0ad0dde9715c3049e90d2ce1d08ef46c631a36f4440"}], "txid": "9b7beb3baf612a2359fa3c68c478561fe5c1b6adee1b5425cf016d9e43497787", "blocktime": 1537870928, "version": 1, "confirmations": 11513, "time": 1537870928, "locktime": 0, "vsize": 142, "size": 223}