{"hash": "d640d0cbcdf6223ace0ff1eb5ecfcb6ec993b51d9e012f163e863f8ea773e9bd", "blockhash": "00000000000000000004ffacab907a6b429b9a5745fa0b75af4234bf69dd7176", "vout": [{"scriptPubKey": {"reqSigs": 1, "hex": "76a91443cf2f10c07261ac907c3e738bd1e56597d13aad88ac", "addresses": ["17BYUErXR9EDRmeFAGHFQpQZF7tAhofLpJ"], "asm": "OP_DUP OP_HASH160 43cf2f10c07261ac907c3e738bd1e56597d13aad OP_EQUALVERIFY OP_CHECKSIG", "type": "pubkeyhash"}, "value": 6.2e-05, "n": 0}, {"scriptPubKey": {"reqSigs": 1, "hex": "a9141d7370ccde4590204155e4074f69743a8e4fac0287", "addresses": ["34Njp4ZKtmCDfqqps26wHBYQQGUo2pGkLi"], "asm": "OP_HASH160 1d7370ccde4590204155e4074f69743a8e4fac02 OP_EQUAL", "type": "scripthash"}, "value": 0.0003495, "n": 1}], "hex": "010000000001019696952f49a30686bd750eb97e3f33d32f91430a7fd2f5232575acc2c4f464660100000023220020f63dfc12340f6360d0251c22746d6b56093e3243e96ca012a65484a5d9cf0ec0ffffffff0238180000000000001976a91443cf2f10c07261ac907c3e738bd1e56597d13aad88ac868800000000000017a9141d7370ccde4590204155e4074f69743a8e4fac028704004830450221009719d2157c22c3ffa7346cd0eb04ada3aa6161a25b0609ead7541304ae11f11502204f2639be8726455de0660392b7f3fcc9ad5f89acbcde8e05d8883c3371d6088f01483045022100cded602c119c1521a0ea35ab4063f03f79f5ea9f0609e00b4f041f54bdbc01bc02207471685970c442b54b64812883b2aede6b765e50c049c1bff0e8f12e5af28cba0147522102097067a6a0cc130a9a6f6577b47bf369b840a79de31cd7457187994266b1bb7c2103338f346cab6ba87fe940591a03ac234be06520c5ab386d4b6632e8eef0d0db7652ae00000000", "vin": [{"txinwitness": ["", "30450221009719d2157c22c3ffa7346cd0eb04ada3aa6161a25b0609ead7541304ae11f11502204f2639be8726455de0660392b7f3fcc9ad5f89acbcde8e05d8883c3371d6088f01", "3045022100cded602c119c1521a0ea35ab4063f03f79f5ea9f0609e00b4f041f54bdbc01bc02207471685970c442b54b64812883b2aede6b765e50c049c1bff0e8f12e5af28cba01", "522102097067a6a0cc130a9a6f6577b47bf369b840a79de31cd7457187994266b1bb7c2103338f346cab6ba87fe940591a03ac234be06520c5ab386d4b6632e8eef0d0db7652ae"], "sequence": 4294967295, "scriptSig": {"hex": "220020f63dfc12340f6360d0251c22746d6b56093e3243e96ca012a65484a5d9cf0ec0", "asm": "0020f63dfc12340f6360d0251c22746d6b56093e3243e96ca012a65484a5d9cf0ec0"}, "vout": 1, "txid": "6664f4c4c2ac752523f5d27f0a43912fd3333f7eb90e75bd8606a3492f959696"}], "txid": "9b81423c51d8a68d8f336f863700e86efee600acc0c711c9419f0f36df6b235a", "blocktime": 1537875543, "version": 1, "confirmations": 11464, "time": 1537875543, "locktime": 0, "vsize": 208, "size": 374}