{"hash": "9b8404ea0e67b5881e1a6e9c04675438df6b56f0862cc731afb797ec279271ba", "blockhash": "00000000000000000017f5eb5941039fbcee6240d03bc1f2f8e35350df66a1d8", "vout": [{"scriptPubKey": {"reqSigs": 1, "hex": "76a9145276ee0fec20cffaec60bc79458ae5eb978c0a4f88ac", "addresses": ["18X2t8LeSSPPhhBDsqJdzpvdsEXAfrMStQ"], "asm": "OP_DUP OP_HASH160 5276ee0fec20cffaec60bc79458ae5eb978c0a4f OP_EQUALVERIFY OP_CHECKSIG", "type": "pubkeyhash"}, "value": 0.01563947, "n": 0}, {"scriptPubKey": {"reqSigs": 1, "hex": "76a914875c72f6c451e12d5be93ed0c1c744d6a15fb56f88ac", "addresses": ["1DLiyNZDvdUpRYs6s5hWSijsf21uPvRaaX"], "asm": "OP_DUP OP_HASH160 875c72f6c451e12d5be93ed0c1c744d6a15fb56f OP_EQUALVERIFY OP_CHECKSIG", "type": "pubkeyhash"}, "value": 0.3745431, "n": 1}], "hex": "01000000019ffbe20fbf01b54a7f71537bf7e165cbeb500a50a9ecf22aea1a8f01d4f10a93010000006b483045022100ce81cad03fc3e6497bf47a39e8ba156e0c13ba114e4c50d58759e3e0220c942902205d21632b2e056bf037c3c37589f612a4323a02bdea88f5fbd44aa5f3803b91fb0121028c8c1c77b360d129c469be78d0f680057d74e294c95e565c66e9d2835bf57adcffffffff022bdd1700000000001976a9145276ee0fec20cffaec60bc79458ae5eb978c0a4f88ace6813b02000000001976a914875c72f6c451e12d5be93ed0c1c744d6a15fb56f88ac00000000", "vin": [{"sequence": 4294967295, "scriptSig": {"hex": "483045022100ce81cad03fc3e6497bf47a39e8ba156e0c13ba114e4c50d58759e3e0220c942902205d21632b2e056bf037c3c37589f612a4323a02bdea88f5fbd44aa5f3803b91fb0121028c8c1c77b360d129c469be78d0f680057d74e294c95e565c66e9d2835bf57adc", "asm": "3045022100ce81cad03fc3e6497bf47a39e8ba156e0c13ba114e4c50d58759e3e0220c942902205d21632b2e056bf037c3c37589f612a4323a02bdea88f5fbd44aa5f3803b91fb[ALL] 028c8c1c77b360d129c469be78d0f680057d74e294c95e565c66e9d2835bf57adc"}, "vout": 1, "txid": "930af1d4018f1aea2af2eca9500a50ebcb65e1f77b53717f4ab501bf0fe2fb9f"}], "txid": "9b8404ea0e67b5881e1a6e9c04675438df6b56f0862cc731afb797ec279271ba", "blocktime": 1537874412, "version": 1, "confirmations": 11468, "time": 1537874412, "locktime": 0, "vsize": 226, "size": 226}