{"hash": "9b87a17f213bef409bbfee7fd510596d2f0bd27facfaddc2db45e1090174cfb3", "blockhash": "00000000000000000017f5eb5941039fbcee6240d03bc1f2f8e35350df66a1d8", "vout": [{"scriptPubKey": {"reqSigs": 1, "hex": "a914e32189121a181e98ca4327e95dc53744fa81247f87", "addresses": ["3NPyVAviHPg7JSeofyEYZsKGefrEakZCUL"], "asm": "OP_HASH160 e32189121a181e98ca4327e95dc53744fa81247f OP_EQUAL", "type": "scripthash"}, "value": 0.01547865, "n": 0}], "hex": "01000000015320cdb78d7d104afcbb2d6a2499a113c8dd5b91e2a40231e3ab4e3270eaf10b010000006b483045022100ba7ba035c794b1b63f115947750524cb5f6a79db83a6bf9f3e111dddd894a71e02201a3cc40ddd605788a4bcd115a167d3d0945e162f0b4c7b08827a52d469844e2f01210320962232a6d1feb730cdfa41451994d87cba44e9ecbbd9efef4c2154f8335a80ffffffff01599e17000000000017a914e32189121a181e98ca4327e95dc53744fa81247f8700000000", "vin": [{"sequence": 4294967295, "scriptSig": {"hex": "483045022100ba7ba035c794b1b63f115947750524cb5f6a79db83a6bf9f3e111dddd894a71e02201a3cc40ddd605788a4bcd115a167d3d0945e162f0b4c7b08827a52d469844e2f01210320962232a6d1feb730cdfa41451994d87cba44e9ecbbd9efef4c2154f8335a80", "asm": "3045022100ba7ba035c794b1b63f115947750524cb5f6a79db83a6bf9f3e111dddd894a71e02201a3cc40ddd605788a4bcd115a167d3d0945e162f0b4c7b08827a52d469844e2f[ALL] 0320962232a6d1feb730cdfa41451994d87cba44e9ecbbd9efef4c2154f8335a80"}, "vout": 1, "txid": "0bf1ea70324eabe33102a4e2915bddc813a199246a2dbbfc4a107d8db7cd2053"}], "txid": "9b87a17f213bef409bbfee7fd510596d2f0bd27facfaddc2db45e1090174cfb3", "blocktime": 1537874412, "version": 1, "confirmations": 11467, "time": 1537874412, "locktime": 0, "vsize": 190, "size": 190}