{"hash": "9b8a740db8a50b0752745424bb79c1f282248b46a2e5068899e0ee8e0f4657f6", "blockhash": "0000000000000000001cda96e906b7601b7a6fb1a3b62bca570a9e5d8f4b3de1", "vout": [{"scriptPubKey": {"type": "nulldata", "hex": "6a146f6d6e69000000000000001f0000574fbde60000", "asm": "OP_RETURN 6f6d6e69000000000000001f0000574fbde60000"}, "value": 0.0, "n": 0}, {"scriptPubKey": {"reqSigs": 1, "hex": "76a9146e60ba513b7ee0fdef8fe72e792a30562375dfc888ac", "addresses": ["1B4dCsH6MC9XoZ6ob2nngvJesYEfNNtMQS"], "asm": "OP_DUP OP_HASH160 6e60ba513b7ee0fdef8fe72e792a30562375dfc8 OP_EQUALVERIFY OP_CHECKSIG", "type": "pubkeyhash"}, "value": 0.00355212, "n": 1}, {"scriptPubKey": {"reqSigs": 1, "hex": "76a914a25dec4d0011064ef106a983c39c7a540699f22088ac", "addresses": ["1FoWyxwPXuj4C6abqwhjDWdz6D4PZgYRjA"], "asm": "OP_DUP OP_HASH160 a25dec4d0011064ef106a983c39c7a540699f220 OP_EQUALVERIFY OP_CHECKSIG", "type": "pubkeyhash"}, "value": 5.46e-06, "n": 2}], "hex": "010000000179ae68eca9272c5301c550e54e9553b24e7d95690078561bce05c3af1cc92613010000006a473044022008932e4404aa5256c20448853a2cb6ee86afe2eb7b420bbd002fd28af25130d00220455a740d7f70ed51cb9070e166282cb22ef49768617611fa48e945cbd28f7d6a012103d3fd3652ca10a5d03b78c618d410fa7d86b6f47eecffdfa89d993a221f7d5541feffffff030000000000000000166a146f6d6e69000000000000001f0000574fbde600008c6b0500000000001976a9146e60ba513b7ee0fdef8fe72e792a30562375dfc888ac22020000000000001976a914a25dec4d0011064ef106a983c39c7a540699f22088ac13490800", "vin": [{"sequence": 4294967294, "scriptSig": {"hex": "473044022008932e4404aa5256c20448853a2cb6ee86afe2eb7b420bbd002fd28af25130d00220455a740d7f70ed51cb9070e166282cb22ef49768617611fa48e945cbd28f7d6a012103d3fd3652ca10a5d03b78c618d410fa7d86b6f47eecffdfa89d993a221f7d5541", "asm": "3044022008932e4404aa5256c20448853a2cb6ee86afe2eb7b420bbd002fd28af25130d00220455a740d7f70ed51cb9070e166282cb22ef49768617611fa48e945cbd28f7d6a[ALL] 03d3fd3652ca10a5d03b78c618d410fa7d86b6f47eecffdfa89d993a221f7d5541"}, "vout": 1, "txid": "1326c91cafc305ce1b56780069957d4eb253954ee550c501532c27a9ec68ae79"}], "txid": "9b8a740db8a50b0752745424bb79c1f282248b46a2e5068899e0ee8e0f4657f6", "blocktime": 1537873282, "version": 1, "confirmations": 11485, "time": 1537873282, "locktime": 542995, "vsize": 256, "size": 256}