{"hash": "888c108f61fa4b45816106dd5a3ea94e410a61a85e23d1c703d91d2329729d7d", "blockhash": "0000000000000000000baef3f32e3676a92c3b2e5da21b426e4f302fc371ce76", "vout": [{"scriptPubKey": {"reqSigs": 1, "hex": "76a914bfc30efbd8dda64638c1c5611185aed5d70e670988ac", "addresses": ["1JUwjYYgKKdGe3qkBCCZHTuAWFUxzT564Y"], "asm": "OP_DUP OP_HASH160 bfc30efbd8dda64638c1c5611185aed5d70e6709 OP_EQUALVERIFY OP_CHECKSIG", "type": "pubkeyhash"}, "value": 0.02599497, "n": 0}, {"scriptPubKey": {"reqSigs": 1, "hex": "00140c114293a3a210d630c15a24efbd7e0089556cec", "addresses": ["bc1qpsg59yar5ggdvvxptgjwl0t7qzy42m8vwwtytk"], "asm": "0 0c114293a3a210d630c15a24efbd7e0089556cec", "type": "witness_v0_keyhash"}, "value": 1.38464672, "n": 1}], "hex": "01000000000101f9698ad540bf0b36460629279d9209fa67ceff6f166afa5ded7544e65ee3af930000000000ffffffff0249aa2700000000001976a914bfc30efbd8dda64638c1c5611185aed5d70e670988aca0cd4008000000001600140c114293a3a210d630c15a24efbd7e0089556cec02483045022100b847d246489e0687a11bd2525a5a3cd7f9d21138fbbfe6bbe3f16fc6ceb2838b02205ca2929b5cd19a5b1b8123623d7c70479b934f875ab14eaac9e489e7cb5ef9e801210333cefad1fe45631848e565412361a81c2286f5bec76c1ba40ee37726a15e109200000000", "vin": [{"txinwitness": ["3045022100b847d246489e0687a11bd2525a5a3cd7f9d21138fbbfe6bbe3f16fc6ceb2838b02205ca2929b5cd19a5b1b8123623d7c70479b934f875ab14eaac9e489e7cb5ef9e801", "0333cefad1fe45631848e565412361a81c2286f5bec76c1ba40ee37726a15e1092"], "sequence": 4294967295, "scriptSig": {"hex": "", "asm": ""}, "vout": 0, "txid": "93afe35ee64475ed5dfa6a166fffce67fa09929d27290646360bbf40d58a69f9"}], "txid": "9b8fa8c3c7abac7b9119a9e39824cebe05908fa5be2899db4e3123f86f910997", "blocktime": 1537876114, "version": 1, "confirmations": 11460, "time": 1537876114, "locktime": 0, "vsize": 144, "size": 226}