{"hash": "9b98d797d850f8418f157b319eee95d9780674856f52f7450d092f64fafe080c", "blockhash": "00000000000000000004ffacab907a6b429b9a5745fa0b75af4234bf69dd7176", "vout": [{"scriptPubKey": {"reqSigs": 1, "hex": "76a9142c3c0a5729620f5cbc93994bffec17bf4ecd14a388ac", "addresses": ["152tf7yAFLM3wQ8m4oijiqNuzKiBu7AhRw"], "asm": "OP_DUP OP_HASH160 2c3c0a5729620f5cbc93994bffec17bf4ecd14a3 OP_EQUALVERIFY OP_CHECKSIG", "type": "pubkeyhash"}, "value": 0.00067999, "n": 0}], "hex": "0200000001616606ad7694c8995222fb76e49d80f7523be9b0bed5b23f3960e6202d71d89f000000006a47304402203d55c523378234d66513d24be15570093980e95b7844dc82b3e70d369e420fb7022067ae1cabdd8d849b039ef2f92cc2d2cd1b7b403b23f319a7e1c7e0468bd75a550121035ea3271b255b9f0feaba01351d1beb0d56aa87f518498218be23f3a935fba865ffffffff019f090100000000001976a9142c3c0a5729620f5cbc93994bffec17bf4ecd14a388ac00000000", "vin": [{"sequence": 4294967295, "scriptSig": {"hex": "47304402203d55c523378234d66513d24be15570093980e95b7844dc82b3e70d369e420fb7022067ae1cabdd8d849b039ef2f92cc2d2cd1b7b403b23f319a7e1c7e0468bd75a550121035ea3271b255b9f0feaba01351d1beb0d56aa87f518498218be23f3a935fba865", "asm": "304402203d55c523378234d66513d24be15570093980e95b7844dc82b3e70d369e420fb7022067ae1cabdd8d849b039ef2f92cc2d2cd1b7b403b23f319a7e1c7e0468bd75a55[ALL] 035ea3271b255b9f0feaba01351d1beb0d56aa87f518498218be23f3a935fba865"}, "vout": 0, "txid": "9fd8712d20e660393fb2d5beb0e93b52f7809de476fb225299c89476ad066661"}], "txid": "9b98d797d850f8418f157b319eee95d9780674856f52f7450d092f64fafe080c", "blocktime": 1537875543, "version": 2, "confirmations": 11464, "time": 1537875543, "locktime": 0, "vsize": 191, "size": 191}