{"hash": "9b9fa1fe8160b75e9f1fc114e3ef13c01142629df126070cf09e597babb110e7", "blockhash": "0000000000000000000dcc0f55137456b1a82d3642486a52398922ac4d620174", "vout": [{"scriptPubKey": {"reqSigs": 1, "hex": "a9140a1f1399b2a9c5f22548b07df02189f070c6fe7d87", "addresses": ["32cXuhXdmsNSb9nVC6BPChjKpHatFgxNMD"], "asm": "OP_HASH160 0a1f1399b2a9c5f22548b07df02189f070c6fe7d OP_EQUAL", "type": "scripthash"}, "value": 0.00795381, "n": 0}, {"scriptPubKey": {"reqSigs": 1, "hex": "76a91449338fd3ccaa562d5c958024916a5c055c0b040788ac", "addresses": ["17g46am5ErbaiVvTPM5LoahUAsqxhH1no5"], "asm": "OP_DUP OP_HASH160 49338fd3ccaa562d5c958024916a5c055c0b0407 OP_EQUALVERIFY OP_CHECKSIG", "type": "pubkeyhash"}, "value": 0.03154052, "n": 1}], "hex": "01000000012a50fe3904fdc976ac09b3c23bb09d21a5106c89c9a0c8c7c740f09b20db072d030000006b483045022100ebb6159b8da8031dac4e3b57f7337b24ecb8b9dc964ccba119261aea687f4e1502203df0445b804604fc135efe3d7654259d9270afb779ee9f1a81cabbe6165983da012103e531776c4af3e71bab30de6b398d9255f1c460b0d40649bd0555bf8aa18e82f9ffffffff02f5220c000000000017a9140a1f1399b2a9c5f22548b07df02189f070c6fe7d8784203000000000001976a91449338fd3ccaa562d5c958024916a5c055c0b040788ac00000000", "vin": [{"sequence": 4294967295, "scriptSig": {"hex": "483045022100ebb6159b8da8031dac4e3b57f7337b24ecb8b9dc964ccba119261aea687f4e1502203df0445b804604fc135efe3d7654259d9270afb779ee9f1a81cabbe6165983da012103e531776c4af3e71bab30de6b398d9255f1c460b0d40649bd0555bf8aa18e82f9", "asm": "3045022100ebb6159b8da8031dac4e3b57f7337b24ecb8b9dc964ccba119261aea687f4e1502203df0445b804604fc135efe3d7654259d9270afb779ee9f1a81cabbe6165983da[ALL] 03e531776c4af3e71bab30de6b398d9255f1c460b0d40649bd0555bf8aa18e82f9"}, "vout": 3, "txid": "2d07db209bf040c7c7c8a0c9896c10a5219db03bc2b309ac76c9fd0439fe502a"}], "txid": "9b9fa1fe8160b75e9f1fc114e3ef13c01142629df126070cf09e597babb110e7", "blocktime": 1537870268, "version": 1, "confirmations": 11518, "time": 1537870268, "locktime": 0, "vsize": 224, "size": 224}