{"hash": "fafdd872a5786cd56ab9beb3d59be6d3998f94907235d0c0688f0b9ba8c501be", "blockhash": "0000000000000000000e13cef7c366c0283d82e591d1acd082e914b08063cdf1", "vout": [{"scriptPubKey": {"reqSigs": 1, "hex": "a91430897cc6c9d69f6a2c2f1c651d51f22219f1a4f687", "addresses": ["367f4YWz1VCFaqBqwbTrzwi2b1h2U3w1AF"], "asm": "OP_HASH160 30897cc6c9d69f6a2c2f1c651d51f22219f1a4f6 OP_EQUAL", "type": "scripthash"}, "value": 3.98955795, "n": 0}, {"scriptPubKey": {"reqSigs": 1, "hex": "a914b4cd141840d89770c7189830320e9600df1c371f87", "addresses": ["3JB1EBDFGkJzYudvtsgeaG2FfkVDZCYJaB"], "asm": "OP_HASH160 b4cd141840d89770c7189830320e9600df1c371f OP_EQUAL", "type": "scripthash"}, "value": 0.06804086, "n": 1}], "hex": "01000000000101d5f23835cfcad631a81616b8879559770452e2f50efa4fdace47520a899dafa40000000023220020bcf9f822194145acea0f3235f4107b5bf1a91b6b9f8489f63bf79ec29b360913ffffffff021395c7170000000017a91430897cc6c9d69f6a2c2f1c651d51f22219f1a4f68776d267000000000017a914b4cd141840d89770c7189830320e9600df1c371f870400483045022100912e144c645e8fa68fa81eca5177e4c05da261f7b5e19f07ec3b1fdd82d825b502200b8b3360e3624035c40ef85a830aab2e2abd819754431563d4b6c025e0922be901483045022100848ef9d7969ab9f05e14c56460f20d4ca2f8b936e249cc1c34607ce9a45d57cb022079ba2b9384724d16eeb1acac3246be376cf4a78d9a153f92063dde1cf841ca6001695221026c8f72b9e63db63907115e65d4da86eaae595b22fdc85ec75301bb4adbf203582103806535be3e3920e5eedee92de5714188fd6a784f2bf7b04f87de0b9c3ae1ecdb21024b23bfdce2afcae7e28c42f7f79aa100f22931712c52d7414a526ba494d44a2553ae00000000", "vin": [{"txinwitness": ["", "3045022100912e144c645e8fa68fa81eca5177e4c05da261f7b5e19f07ec3b1fdd82d825b502200b8b3360e3624035c40ef85a830aab2e2abd819754431563d4b6c025e0922be901", "3045022100848ef9d7969ab9f05e14c56460f20d4ca2f8b936e249cc1c34607ce9a45d57cb022079ba2b9384724d16eeb1acac3246be376cf4a78d9a153f92063dde1cf841ca6001", "5221026c8f72b9e63db63907115e65d4da86eaae595b22fdc85ec75301bb4adbf203582103806535be3e3920e5eedee92de5714188fd6a784f2bf7b04f87de0b9c3ae1ecdb21024b23bfdce2afcae7e28c42f7f79aa100f22931712c52d7414a526ba494d44a2553ae"], "sequence": 4294967295, "scriptSig": {"hex": "220020bcf9f822194145acea0f3235f4107b5bf1a91b6b9f8489f63bf79ec29b360913", "asm": "0020bcf9f822194145acea0f3235f4107b5bf1a91b6b9f8489f63bf79ec29b360913"}, "vout": 0, "txid": "a4af9d890a5247ceda4ffa0ef5e2520477599587b81616a831d6cacf3538f2d5"}], "txid": "9ba225001355e8f016f0685e18d06ddba9ef76b1d2b358c40c742f6053f8742c", "blocktime": 1537871767, "version": 1, "confirmations": 11493, "time": 1537871767, "locktime": 0, "vsize": 214, "size": 406}