{"hash": "9ba3f9db7f3fafdc9f5acd716575eb6dabd5d7ea5fa07ef8a22c3c4d079f2cca", "blockhash": "0000000000000000000baef3f32e3676a92c3b2e5da21b426e4f302fc371ce76", "vout": [{"scriptPubKey": {"reqSigs": 1, "hex": "a91486ed17bfa7bd80cf87cf7e80abd9289079b78c5b87", "addresses": ["3DzSVk4veMCkNbNT9CdETeE26uWxmNbBnD"], "asm": "OP_HASH160 86ed17bfa7bd80cf87cf7e80abd9289079b78c5b OP_EQUAL", "type": "scripthash"}, "value": 4.88001496, "n": 0}, {"scriptPubKey": {"reqSigs": 1, "hex": "76a9145872b90fa9fe5840348aa80dbaec405f581aecd888ac", "addresses": ["194fty7wwbWhd6x3GucKC1HXSGVBmAe94p"], "asm": "OP_DUP OP_HASH160 5872b90fa9fe5840348aa80dbaec405f581aecd8 OP_EQUALVERIFY OP_CHECKSIG", "type": "pubkeyhash"}, "value": 0.07842, "n": 1}], "hex": "0200000001adb66dc240e218350800c966d19e2b4ca6535b28ae1067433099c231ea22015d00000000d9004730440220087546deab0f0de71f772643201be452a57c270ddcf0710ffcd3743112346e5d0220575345240867abf1e65709d02025870ec0a3367619cafa721fdf901b57a9610d0147304402205efa870f6536220af91fcdc19aae4fa4f0bf0d5b046e95c568e77e59f679a1cb0220435604135a906faca6e2809b3fed7bbe5a31a081132c500ecd689c41b6417e8201475221038934160de8ad1dd529329f5bf51e3086cc0f6d19e10fb4120385f23d871c0c1d21021659435e23e3891d39ec2b0266b3c14a68cb4e45adb8543f31508310c98722d952aeffffffff02d84f161d0000000017a91486ed17bfa7bd80cf87cf7e80abd9289079b78c5b87d0a87700000000001976a9145872b90fa9fe5840348aa80dbaec405f581aecd888ac00000000", "vin": [{"sequence": 4294967295, "scriptSig": {"hex": "004730440220087546deab0f0de71f772643201be452a57c270ddcf0710ffcd3743112346e5d0220575345240867abf1e65709d02025870ec0a3367619cafa721fdf901b57a9610d0147304402205efa870f6536220af91fcdc19aae4fa4f0bf0d5b046e95c568e77e59f679a1cb0220435604135a906faca6e2809b3fed7bbe5a31a081132c500ecd689c41b6417e8201475221038934160de8ad1dd529329f5bf51e3086cc0f6d19e10fb4120385f23d871c0c1d21021659435e23e3891d39ec2b0266b3c14a68cb4e45adb8543f31508310c98722d952ae", "asm": "0 30440220087546deab0f0de71f772643201be452a57c270ddcf0710ffcd3743112346e5d0220575345240867abf1e65709d02025870ec0a3367619cafa721fdf901b57a9610d[ALL] 304402205efa870f6536220af91fcdc19aae4fa4f0bf0d5b046e95c568e77e59f679a1cb0220435604135a906faca6e2809b3fed7bbe5a31a081132c500ecd689c41b6417e82[ALL] 5221038934160de8ad1dd529329f5bf51e3086cc0f6d19e10fb4120385f23d871c0c1d21021659435e23e3891d39ec2b0266b3c14a68cb4e45adb8543f31508310c98722d952ae"}, "vout": 0, "txid": "5d0122ea31c29930436710ae285b53a64c2b9ed166c900083518e240c26db6ad"}], "txid": "9ba3f9db7f3fafdc9f5acd716575eb6dabd5d7ea5fa07ef8a22c3c4d079f2cca", "blocktime": 1537876114, "version": 2, "confirmations": 11460, "time": 1537876114, "locktime": 0, "vsize": 334, "size": 334}