{"hash": "9babf1caf422cca8890de335a071ca66685d14e07643c14e31218a2c7c113e0b", "blockhash": "0000000000000000001f0ddff1eddb255c1121bcd4da4f1bc9a0da00cae72433", "vout": [{"scriptPubKey": {"reqSigs": 1, "hex": "a9143a9bc0b9b454b8332f428feb98dae342d827bb7b87", "addresses": ["372uhZp2JnR8Y1TEK4wGceoMZvPGbc1HFw"], "asm": "OP_HASH160 3a9bc0b9b454b8332f428feb98dae342d827bb7b OP_EQUAL", "type": "scripthash"}, "value": 0.48552066, "n": 0}], "hex": "0100000003573cf03d3dd98f325c7e3f28399dca359c8111988063f2ba670912ffad0cae0a000000006b483045022100ef362897e1c7bdfcbadec1eb85e1b344ca52b5608fb5721f60b9981f72ab877f02202374254677a0ee097318345d8017d013d478c2ebc24fa995e48ecf321dba89a90121031c4c0893030329f05f62e0375d5f217e317c1469f1ede53eb83339d3cd7ac0fbffffffff7c8f4250bc007d7b9da7538c34ce9b80b3aa667dda17b21ad35028b04e30720e010000006a47304402206c3494a0bb16489f382e131c9113d18ccd5db5b768ccc0bb2d96d8c01bf0640c022020c460ed5f5a8bc417df7492022f5683774088d0139fe255858f61dcaffe66d50121025229bb1d3f5563aa2b9965e20348124a624e93ed6e42d49a4ef3da9d0a9d551dffffffffdb0ba235e861d5f7945a10d27a9c4347b055fabefca9ab5ebe0f49e31b39cb3b010000006a47304402203d0eba39f42250cb3dd0e5ffde410fa60f39a6c17acdbcf4304e43e6d8d2db1802201d833b0e5371c3c56c79938e8e747ebb37d2a94e0a2b0bf6879cb8b53ec7a21d012103527effd86205e3f82f29bd223f44d4e0d1e23e0d6310c96572326aa8f9874427ffffffff0182d8e4020000000017a9143a9bc0b9b454b8332f428feb98dae342d827bb7b8700000000", "vin": [{"sequence": 4294967295, "scriptSig": {"hex": "483045022100ef362897e1c7bdfcbadec1eb85e1b344ca52b5608fb5721f60b9981f72ab877f02202374254677a0ee097318345d8017d013d478c2ebc24fa995e48ecf321dba89a90121031c4c0893030329f05f62e0375d5f217e317c1469f1ede53eb83339d3cd7ac0fb", "asm": "3045022100ef362897e1c7bdfcbadec1eb85e1b344ca52b5608fb5721f60b9981f72ab877f02202374254677a0ee097318345d8017d013d478c2ebc24fa995e48ecf321dba89a9[ALL] 031c4c0893030329f05f62e0375d5f217e317c1469f1ede53eb83339d3cd7ac0fb"}, "vout": 0, "txid": "0aae0cadff120967baf263809811819c35ca9d39283f7e5c328fd93d3df03c57"}, {"sequence": 4294967295, "scriptSig": {"hex": "47304402206c3494a0bb16489f382e131c9113d18ccd5db5b768ccc0bb2d96d8c01bf0640c022020c460ed5f5a8bc417df7492022f5683774088d0139fe255858f61dcaffe66d50121025229bb1d3f5563aa2b9965e20348124a624e93ed6e42d49a4ef3da9d0a9d551d", "asm": "304402206c3494a0bb16489f382e131c9113d18ccd5db5b768ccc0bb2d96d8c01bf0640c022020c460ed5f5a8bc417df7492022f5683774088d0139fe255858f61dcaffe66d5[ALL] 025229bb1d3f5563aa2b9965e20348124a624e93ed6e42d49a4ef3da9d0a9d551d"}, "vout": 1, "txid": "0e72304eb02850d31ab217da7d66aab3809bce348c53a79d7b7d00bc50428f7c"}, {"sequence": 4294967295, "scriptSig": {"hex": "47304402203d0eba39f42250cb3dd0e5ffde410fa60f39a6c17acdbcf4304e43e6d8d2db1802201d833b0e5371c3c56c79938e8e747ebb37d2a94e0a2b0bf6879cb8b53ec7a21d012103527effd86205e3f82f29bd223f44d4e0d1e23e0d6310c96572326aa8f9874427", "asm": "304402203d0eba39f42250cb3dd0e5ffde410fa60f39a6c17acdbcf4304e43e6d8d2db1802201d833b0e5371c3c56c79938e8e747ebb37d2a94e0a2b0bf6879cb8b53ec7a21d[ALL] 03527effd86205e3f82f29bd223f44d4e0d1e23e0d6310c96572326aa8f9874427"}, "vout": 1, "txid": "3bcb391be3490fbe5eaba9fcbefa55b047439c7ad2105a94f7d561e835a20bdb"}], "txid": "9babf1caf422cca8890de335a071ca66685d14e07643c14e31218a2c7c113e0b", "blocktime": 1537872018, "version": 1, "confirmations": 11489, "time": 1537872018, "locktime": 0, "vsize": 484, "size": 484}