{"hash": "c19ee7ac692272cfb70ee7f140ef20178ed99524f9d8bffa53f26e6926d5dd6c", "blockhash": "0000000000000000000baef3f32e3676a92c3b2e5da21b426e4f302fc371ce76", "vout": [{"scriptPubKey": {"reqSigs": 1, "hex": "a914bafb562b1b82d6bec36cb9ab76ca5a0ead80dda387", "addresses": ["3JjghPymKrUymwPFs7UQ1HT3jS8HPTraTK"], "asm": "OP_HASH160 bafb562b1b82d6bec36cb9ab76ca5a0ead80dda3 OP_EQUAL", "type": "scripthash"}, "value": 1.10450576, "n": 0}, {"scriptPubKey": {"reqSigs": 1, "hex": "76a914635078c29f34379a4920b5f093b9502a420420bc88ac", "addresses": ["1A48JGLAX4KHEmH8FvDxT7tZgWBKEyMtSo"], "asm": "OP_DUP OP_HASH160 635078c29f34379a4920b5f093b9502a420420bc OP_EQUALVERIFY OP_CHECKSIG", "type": "pubkeyhash"}, "value": 0.046, "n": 1}], "hex": "0200000000010188ab01c1fed76d149a276b54225aa650debde8d81ac292a8bbe36d8f32baf09901000000171600144a66b65e3aaafeb3fb9443c20ef17ad160149989ffffffff02905795060000000017a914bafb562b1b82d6bec36cb9ab76ca5a0ead80dda387c0304600000000001976a914635078c29f34379a4920b5f093b9502a420420bc88ac0247304402201c28f8fe3f9d2ebec203aa68e1b45f5190b792d4549f457edebf81704bdf289202205d03c18037a5cc391e6f4954d929faaf7620ca5a16f4f9c80d1aac65ac84316f012103b078ac3b2243178ce8cddc069cbf598821459db51cf9d63a206298cf0bc4eea300000000", "vin": [{"txinwitness": ["304402201c28f8fe3f9d2ebec203aa68e1b45f5190b792d4549f457edebf81704bdf289202205d03c18037a5cc391e6f4954d929faaf7620ca5a16f4f9c80d1aac65ac84316f01", "03b078ac3b2243178ce8cddc069cbf598821459db51cf9d63a206298cf0bc4eea3"], "sequence": 4294967295, "scriptSig": {"hex": "1600144a66b65e3aaafeb3fb9443c20ef17ad160149989", "asm": "00144a66b65e3aaafeb3fb9443c20ef17ad160149989"}, "vout": 1, "txid": "99f0ba328f6de3bba892c21ad8e8bdde50a65a22546b279a146dd7fec101ab88"}], "txid": "9bb0a02b2161ba766e8feda47af00e7d07a24a76f9191ee76cc65d445a5f98c7", "blocktime": 1537876114, "version": 2, "confirmations": 11460, "time": 1537876114, "locktime": 0, "vsize": 168, "size": 249}