{"hash": "9bb2e9b87180cb59c73a00a89d294da203c5347cfac9b41c3c136852d51a980e", "blockhash": "0000000000000000001cda96e906b7601b7a6fb1a3b62bca570a9e5d8f4b3de1", "vout": [{"scriptPubKey": {"reqSigs": 1, "hex": "76a914f11a2c539ee259cd12204a23966b844381d682cf88ac", "addresses": ["1NyqCmsBzpKfGf8WrBGRP9c9qYA52YVpa5"], "asm": "OP_DUP OP_HASH160 f11a2c539ee259cd12204a23966b844381d682cf OP_EQUALVERIFY OP_CHECKSIG", "type": "pubkeyhash"}, "value": 0.318, "n": 0}, {"scriptPubKey": {"reqSigs": 1, "hex": "76a914aa477d2cdd2a5e1527782913c8bdb7ed0d224b5488ac", "addresses": ["1GXMWkbNTGoWvpk3JyXhnxBKQddhVBzdjS"], "asm": "OP_DUP OP_HASH160 aa477d2cdd2a5e1527782913c8bdb7ed0d224b54 OP_EQUALVERIFY OP_CHECKSIG", "type": "pubkeyhash"}, "value": 0.05625547, "n": 1}], "hex": "02000000011f1699768888a926b86518a06d19a67089cd0e7d1bca200b220eb32fb949e1b9010000006b483045022100cd558e06eb02190b1d8ebf3abe101f171bf03802e4faf7dee836ccb09dc57cb5022049bc224d4e89c83d862e66cac9a51186c22e91c1a3904d22ef562241a518497a012102af9b66334febe7eb3641f9bbbc900e92c9580edc67df75ec9496839b19415726feffffff02c03ae501000000001976a914f11a2c539ee259cd12204a23966b844381d682cf88accbd65500000000001976a914aa477d2cdd2a5e1527782913c8bdb7ed0d224b5488ac13490800", "vin": [{"sequence": 4294967294, "scriptSig": {"hex": "483045022100cd558e06eb02190b1d8ebf3abe101f171bf03802e4faf7dee836ccb09dc57cb5022049bc224d4e89c83d862e66cac9a51186c22e91c1a3904d22ef562241a518497a012102af9b66334febe7eb3641f9bbbc900e92c9580edc67df75ec9496839b19415726", "asm": "3045022100cd558e06eb02190b1d8ebf3abe101f171bf03802e4faf7dee836ccb09dc57cb5022049bc224d4e89c83d862e66cac9a51186c22e91c1a3904d22ef562241a518497a[ALL] 02af9b66334febe7eb3641f9bbbc900e92c9580edc67df75ec9496839b19415726"}, "vout": 1, "txid": "b9e149b92fb30e220b20ca1b7d0ecd8970a6196da01865b826a988887699161f"}], "txid": "9bb2e9b87180cb59c73a00a89d294da203c5347cfac9b41c3c136852d51a980e", "blocktime": 1537873282, "version": 2, "confirmations": 11485, "time": 1537873282, "locktime": 542995, "vsize": 226, "size": 226}