{"hash": "baa663ef7af0bcd4a0fe68e4f0cf1587927989d06b960fd39d6829eda6a93544", "blockhash": "00000000000000000018f53835495a110e01622372bf6ae95dc86f2b0ab887b0", "vout": [{"scriptPubKey": {"reqSigs": 1, "hex": "76a914d07a053eb6dcc1f5facf05b9a0f2410d2a987e4288ac", "addresses": ["1L1Kj2uc2LJRSstMFdBnrrmyJHeKFHhCyt"], "asm": "OP_DUP OP_HASH160 d07a053eb6dcc1f5facf05b9a0f2410d2a987e42 OP_EQUALVERIFY OP_CHECKSIG", "type": "pubkeyhash"}, "value": 0.02822913, "n": 0}, {"scriptPubKey": {"reqSigs": 1, "hex": "76a91437dd289118c0aa18274cabe7c59b6f0e019ae79e88ac", "addresses": ["166P6unif99Rqr3WYGKK3SzfLaZKukwtr8"], "asm": "OP_DUP OP_HASH160 37dd289118c0aa18274cabe7c59b6f0e019ae79e OP_EQUALVERIFY OP_CHECKSIG", "type": "pubkeyhash"}, "value": 0.00466915, "n": 1}, {"scriptPubKey": {"reqSigs": 1, "hex": "a9140deaa3cb8e08fcd0e319e2c2c8629e872333320487", "addresses": ["32xbo6fDhq4TqgHb4UeE5Jqk8PNdDDYWNo"], "asm": "OP_HASH160 0deaa3cb8e08fcd0e319e2c2c8629e8723333204 OP_EQUAL", "type": "scripthash"}, "value": 0.00523736, "n": 2}, {"scriptPubKey": {"reqSigs": 1, "hex": "a91421f209898822451cfe1b3662d4106db2c769545f87", "addresses": ["34nWAvAYBqwx4ndSCujXATj5vmjVJZjzBs"], "asm": "OP_HASH160 21f209898822451cfe1b3662d4106db2c769545f OP_EQUAL", "type": "scripthash"}, "value": 0.00366746, "n": 3}, {"scriptPubKey": {"reqSigs": 1, "hex": "a914b6fa012a5aa6b3b58b153121b595807baff50eda87", "addresses": ["3JNWQ5Tj6zCePaERtWhvcncRe4f63juTbG"], "asm": "OP_HASH160 b6fa012a5aa6b3b58b153121b595807baff50eda OP_EQUAL", "type": "scripthash"}, "value": 0.00687377, "n": 4}, {"scriptPubKey": {"reqSigs": 1, "hex": "a91476df9b86bf2a60cca7845fbf3579d3e00dcfbb6887", "addresses": ["3CXZXhiwyv4jzVDeDjAQoE92wzhhhBJyTB"], "asm": "OP_HASH160 76df9b86bf2a60cca7845fbf3579d3e00dcfbb68 OP_EQUAL", "type": "scripthash"}, "value": 0.0020361, "n": 5}, {"scriptPubKey": {"reqSigs": 1, "hex": "a9145a6e1ddaedc65d1bc9c120813752fc70d59c7f6887", "addresses": ["39wAeqzYXqXRaX2qFELS9JHk5Tg3y7P8sq"], "asm": "OP_HASH160 5a6e1ddaedc65d1bc9c120813752fc70d59c7f68 OP_EQUAL", "type": "scripthash"}, "value": 0.00965, "n": 6}, {"scriptPubKey": {"reqSigs": 1, "hex": "a9148c4f901892bc7ed6d57581eeeec5a9596afb1de687", "addresses": ["3EUuqXRxwYA363AghXcMft227UTWDaPyfu"], "asm": "OP_HASH160 8c4f901892bc7ed6d57581eeeec5a9596afb1de6 OP_EQUAL", "type": "scripthash"}, "value": 0.004239, "n": 7}, {"scriptPubKey": {"reqSigs": 1, "hex": "76a914380d84c10b81fd678137c3a5f62b0a1004138ad188ac", "addresses": ["167P32hRZ6ZEmnYCn6moRJ5VPH81hnmd29"], "asm": "OP_DUP OP_HASH160 380d84c10b81fd678137c3a5f62b0a1004138ad1 OP_EQUALVERIFY OP_CHECKSIG", "type": "pubkeyhash"}, "value": 0.02548626, "n": 8}, {"scriptPubKey": {"reqSigs": 1, "hex": "a9144adc1590a0bf2ea648964302c7a32b3b3c31974a87", "addresses": ["38WqaTeCPSr8Vr1EitQy3omAYoziHdxJv8"], "asm": "OP_HASH160 4adc1590a0bf2ea648964302c7a32b3b3c31974a OP_EQUAL", "type": "scripthash"}, "value": 0.00438808, "n": 9}, {"scriptPubKey": {"reqSigs": 1, "hex": "76a914f45a7a5bff701a1f3ded3cbcbf211b07bf05623188ac", "addresses": ["1PH2GKuRiHwZggEGuPvNP6ipqLwZaJL6Rw"], "asm": "OP_DUP OP_HASH160 f45a7a5bff701a1f3ded3cbcbf211b07bf056231 OP_EQUALVERIFY OP_CHECKSIG", "type": "pubkeyhash"}, "value": 0.0014, "n": 10}, {"scriptPubKey": {"reqSigs": 1, "hex": "a914f78b36b36dd8867f7a8d0670960b78fe8bc8740287", "addresses": ["3QFubfKu49sGFAkG31HPSs9uXbRi6Y8Ve9"], "asm": "OP_HASH160 f78b36b36dd8867f7a8d0670960b78fe8bc87402 OP_EQUAL", "type": "scripthash"}, "value": 0.0038226, "n": 11}, {"scriptPubKey": {"reqSigs": 1, "hex": "a914d68f350a0c8f69458b58269a0aaad19107fddf3387", "addresses": ["3MFW5oeZuS3Cb21EWciaHDCC8e6eDz4ra3"], "asm": "OP_HASH160 d68f350a0c8f69458b58269a0aaad19107fddf33 OP_EQUAL", "type": "scripthash"}, "value": 0.00571037, "n": 12}, {"scriptPubKey": {"reqSigs": 1, "hex": "76a914bab08e2a73b64caa2fae5be9de46f366c353d2f388ac", "addresses": ["1J28Bxh9vYyd5a5tcWtZdtJ1raYFMNPxC3"], "asm": "OP_DUP OP_HASH160 bab08e2a73b64caa2fae5be9de46f366c353d2f3 OP_EQUALVERIFY OP_CHECKSIG", "type": "pubkeyhash"}, "value": 0.00465002, "n": 13}, {"scriptPubKey": {"reqSigs": 1, "hex": "a914c3c653894d6c940cdf06588664167b96fbdaebbf87", "addresses": ["3KYBGuR9wgCmYmBHygjkyUA5QVLjfw3Dd7"], "asm": "OP_HASH160 c3c653894d6c940cdf06588664167b96fbdaebbf OP_EQUAL", "type": "scripthash"}, "value": 0.00372706, "n": 14}, {"scriptPubKey": {"reqSigs": 1, "hex": "a914f45efb5382ecb24ab84be11902e4c4f1823856da87", "addresses": ["3Py8aoDJjvvttUSidx3NAWj4ZgW194GLNW"], "asm": "OP_HASH160 f45efb5382ecb24ab84be11902e4c4f1823856da OP_EQUAL", "type": "scripthash"}, "value": 0.00360165, "n": 15}, {"scriptPubKey": {"reqSigs": 1, "hex": "76a914a16ba50616c03d1cf8171be82230ee2145535d1388ac", "addresses": ["1FiWkAXipQq17oJAZ4uzjEzjynMF6SELnx"], "asm": "OP_DUP OP_HASH160 a16ba50616c03d1cf8171be82230ee2145535d13 OP_EQUALVERIFY OP_CHECKSIG", "type": "pubkeyhash"}, "value": 0.00238368, "n": 16}, {"scriptPubKey": {"reqSigs": 1, "hex": "a914d2ccf2c89f83a8e77575004ac9049c58073441e987", "addresses": ["3LudLtcth8DjRMduxpDRWm94XBzVx86Yms"], "asm": "OP_HASH160 d2ccf2c89f83a8e77575004ac9049c58073441e9 OP_EQUAL", "type": "scripthash"}, "value": 0.00254194, "n": 17}, {"scriptPubKey": {"reqSigs": 1, "hex": "a914cdf1d9071fd38d76aa9076eab6bede1d04711fa287", "addresses": ["3LTxAkEmyCeA8HDsxEH7Ngx5kACLhMdCa4"], "asm": "OP_HASH160 cdf1d9071fd38d76aa9076eab6bede1d04711fa2 OP_EQUAL", "type": "scripthash"}, "value": 0.00456067, "n": 18}, {"scriptPubKey": {"reqSigs": 1, "hex": "a9149a7b245b5a86f78b55e03d393ad1716b1f761dc087", "addresses": ["3FmqW9Fgdap6HG3qiKqFSFbZWFwG4QdMP2"], "asm": "OP_HASH160 9a7b245b5a86f78b55e03d393ad1716b1f761dc0 OP_EQUAL", "type": "scripthash"}, "value": 0.00968648, "n": 19}, {"scriptPubKey": {"reqSigs": 1, "hex": "a9141ccc14250466dae40e2e6c0d4f8e78225c77e31087", "addresses": ["34KHKYugoCBtF6rNZKKKtZJ2fbi7zUZjt4"], "asm": "OP_HASH160 1ccc14250466dae40e2e6c0d4f8e78225c77e310 OP_EQUAL", "type": "scripthash"}, "value": 0.00171142, "n": 20}, {"scriptPubKey": {"reqSigs": 1, "hex": "a91461df18e60cb725952049f6ad3b38cc3c8cd2922887", "addresses": ["3AcWjDkh1z4Hwc7Sd4mLsQv9bex28ZyFRQ"], "asm": "OP_HASH160 61df18e60cb725952049f6ad3b38cc3c8cd29228 OP_EQUAL", "type": "scripthash"}, "value": 0.01486169, "n": 21}, {"scriptPubKey": {"reqSigs": 1, "hex": "a91420e9da18b1b458107e6ef0b8ee907a8aa6a787af87", "addresses": ["34h3gzwzU6ApmrYsb9sMeb1QAePE81ca2y"], "asm": "OP_HASH160 20e9da18b1b458107e6ef0b8ee907a8aa6a787af OP_EQUAL", "type": "scripthash"}, "value": 0.10995704, "n": 22}, {"scriptPubKey": {"reqSigs": 1, "hex": "76a9148362aff531346ab689cf4cb57b8f62950cc45e3b88ac", "addresses": ["1Cyhk3fsHiZbJtcCMpdy2EBTtTeg6wRu1n"], "asm": "OP_DUP OP_HASH160 8362aff531346ab689cf4cb57b8f62950cc45e3b OP_EQUALVERIFY OP_CHECKSIG", "type": "pubkeyhash"}, "value": 0.00148414, "n": 23}, {"scriptPubKey": {"reqSigs": 1, "hex": "76a914cca20239e0a3448c8cd852602cc1ecada984713a88ac", "addresses": ["1KezvhJi8YRC5dwXT93rHTHeaXaekbM68J"], "asm": "OP_DUP OP_HASH160 cca20239e0a3448c8cd852602cc1ecada984713a OP_EQUALVERIFY OP_CHECKSIG", "type": "pubkeyhash"}, "value": 0.00011589, "n": 24}], "hex": "02000000000101476713e49cb99c02dda451bda87fc481fc1402ed0ca32839f7d6efd197b73df701000000171600141bacd7c929abe5e2d80830fdbaa4954b37879c20feffffff1901132b00000000001976a914d07a053eb6dcc1f5facf05b9a0f2410d2a987e4288ace31f0700000000001976a91437dd289118c0aa18274cabe7c59b6f0e019ae79e88acd8fd07000000000017a9140deaa3cb8e08fcd0e319e2c2c8629e8723333204879a9805000000000017a91421f209898822451cfe1b3662d4106db2c769545f87117d0a000000000017a914b6fa012a5aa6b3b58b153121b595807baff50eda875a1b03000000000017a91476df9b86bf2a60cca7845fbf3579d3e00dcfbb688788b90e000000000017a9145a6e1ddaedc65d1bc9c120813752fc70d59c7f6887dc7706000000000017a9148c4f901892bc7ed6d57581eeeec5a9596afb1de68792e32600000000001976a914380d84c10b81fd678137c3a5f62b0a1004138ad188ac18b206000000000017a9144adc1590a0bf2ea648964302c7a32b3b3c31974a87e0220200000000001976a914f45a7a5bff701a1f3ded3cbcbf211b07bf05623188ac34d505000000000017a914f78b36b36dd8867f7a8d0670960b78fe8bc87402879db608000000000017a914d68f350a0c8f69458b58269a0aaad19107fddf33876a180700000000001976a914bab08e2a73b64caa2fae5be9de46f366c353d2f388ace2af05000000000017a914c3c653894d6c940cdf06588664167b96fbdaebbf87e57e05000000000017a914f45efb5382ecb24ab84be11902e4c4f1823856da8720a30300000000001976a914a16ba50616c03d1cf8171be82230ee2145535d1388acf2e003000000000017a914d2ccf2c89f83a8e77575004ac9049c58073441e98783f506000000000017a914cdf1d9071fd38d76aa9076eab6bede1d04711fa287c8c70e000000000017a9149a7b245b5a86f78b55e03d393ad1716b1f761dc087869c02000000000017a9141ccc14250466dae40e2e6c0d4f8e78225c77e3108759ad16000000000017a91461df18e60cb725952049f6ad3b38cc3c8cd2922887f8c7a7000000000017a91420e9da18b1b458107e6ef0b8ee907a8aa6a787af87be430200000000001976a9148362aff531346ab689cf4cb57b8f62950cc45e3b88ac452d0000000000001976a914cca20239e0a3448c8cd852602cc1ecada984713a88ac02483045022100ef0daf4b9da47a32c58b81c3741a9236d6257dd902e34175a0a9bf9495e022b902207762fac6f2dd249dbf60f3f869a9eb6bf23f8da6bfb568d5592b286c8e518362012103317c37e433eb57f1c00ebddf7d7449178a9ff10fb2f2cc1fa4907e275cbc680a0e490800", "vin": [{"txinwitness": ["3045022100ef0daf4b9da47a32c58b81c3741a9236d6257dd902e34175a0a9bf9495e022b902207762fac6f2dd249dbf60f3f869a9eb6bf23f8da6bfb568d5592b286c8e51836201", "03317c37e433eb57f1c00ebddf7d7449178a9ff10fb2f2cc1fa4907e275cbc680a"], "sequence": 4294967294, "scriptSig": {"hex": "1600141bacd7c929abe5e2d80830fdbaa4954b37879c20", "asm": "00141bacd7c929abe5e2d80830fdbaa4954b37879c20"}, "vout": 1, "txid": "f73db797d1efd6f73928a30ced0214fc81c47fa8bd51a4dd029cb99ce4136747"}], "txid": "9bb83711e62f7810863f8dcc41ee9312967d85c8b590d75b49c92ad095360665", "blocktime": 1537870928, "version": 2, "confirmations": 11512, "time": 1537870928, "locktime": 542990, "vsize": 918, "size": 1000}