{"hash": "7e99e4f8212a8ff881ae288ef590a3078c5668632c0a5bfae557f9fbde70376f", "blockhash": "0000000000000000000baef3f32e3676a92c3b2e5da21b426e4f302fc371ce76", "vout": [{"scriptPubKey": {"reqSigs": 1, "hex": "a91492c58947c1f72fe0326a2e11075a767f4b4969a187", "addresses": ["3F55DcMT5CTdrbQotJUxoYKQoBs1SvXHMw"], "asm": "OP_HASH160 92c58947c1f72fe0326a2e11075a767f4b4969a1 OP_EQUAL", "type": "scripthash"}, "value": 0.00362486, "n": 0}, {"scriptPubKey": {"reqSigs": 1, "hex": "a914cfaabfe8c271f99a4364b5197ba50c6cddb7adb987", "addresses": ["3Ld4M9RPwEG3VeQbHcC1PsKUndQL7VYLZP"], "asm": "OP_HASH160 cfaabfe8c271f99a4364b5197ba50c6cddb7adb9 OP_EQUAL", "type": "scripthash"}, "value": 0.90753718, "n": 1}], "hex": "0100000000010100c75a1473913bca4d370e94e2b73f014935da0a7f47b2ffd2022c1eb7ce2c6201000000232200202f7b4024602241b47d3306a6733d9889e4b6761d9f1cb82a18aa8b9ac4506e51ffffffff02f68705000000000017a91492c58947c1f72fe0326a2e11075a767f4b4969a187b6ca68050000000017a914cfaabfe8c271f99a4364b5197ba50c6cddb7adb9870400483045022100b6ff219c6bf1689918f5c05aecdd28b86840af53a4630e3ccddefa0ba418135802203aa8fb8be358aed3e26789e395a558d564c7dba720b25a88c15d165210fd537401483045022100c53bb7d8047277693fded5af4c081ea5bfcf0fca01477122edc4f6be3fb2deaa02201ea8365ffbe973acd2464e5c24898c694946976e3fc4710448a72a2eb848ed610147522102973cd851fecff3a20f08377b072729f303801eee1b7678668338adcaec770ec221033e4af03ed09dbd8a417ba042650d5bd1db7f14f271a8f660974e3abf1fdfa4da52ae00000000", "vin": [{"txinwitness": ["", "3045022100b6ff219c6bf1689918f5c05aecdd28b86840af53a4630e3ccddefa0ba418135802203aa8fb8be358aed3e26789e395a558d564c7dba720b25a88c15d165210fd537401", "3045022100c53bb7d8047277693fded5af4c081ea5bfcf0fca01477122edc4f6be3fb2deaa02201ea8365ffbe973acd2464e5c24898c694946976e3fc4710448a72a2eb848ed6101", "522102973cd851fecff3a20f08377b072729f303801eee1b7678668338adcaec770ec221033e4af03ed09dbd8a417ba042650d5bd1db7f14f271a8f660974e3abf1fdfa4da52ae"], "sequence": 4294967295, "scriptSig": {"hex": "2200202f7b4024602241b47d3306a6733d9889e4b6761d9f1cb82a18aa8b9ac4506e51", "asm": "00202f7b4024602241b47d3306a6733d9889e4b6761d9f1cb82a18aa8b9ac4506e51"}, "vout": 1, "txid": "622cceb71e2c02d2ffb2477f0ada3549013fb7e2940e374dca3b9173145ac700"}], "txid": "9bb92d1efb37977ea5d39226fc0de9aa03baddf211b27a2694d4dd96eb26a517", "blocktime": 1537876114, "version": 1, "confirmations": 11462, "time": 1537876114, "locktime": 0, "vsize": 206, "size": 372}