{"hash": "9bbb6a32932d0dbb71e44c9b993129bd5983e28d3a191d0b46f51a8780fb0031", "blockhash": "0000000000000000001f0ddff1eddb255c1121bcd4da4f1bc9a0da00cae72433", "vout": [{"scriptPubKey": {"reqSigs": 1, "hex": "a9143076165aa54807a8481df07cf4dbbb449a4dcd1f87", "addresses": ["367Fpbu3FXWr6dP2Jc1ytXaKLNbDH976BJ"], "asm": "OP_HASH160 3076165aa54807a8481df07cf4dbbb449a4dcd1f OP_EQUAL", "type": "scripthash"}, "value": 0.0049981, "n": 0}], "hex": "0100000001248b19d43e12745f3200a4fc7076f409217fab6d392d427eaa1593ab7d4658ac020000006b483045022100d6571bd11a0fca0084de47a909a7f6f50951406770f87fe4e6616160bad97e3e02205535c8edbf0977f43e082b9e295dd4e9388050c25a33575e25891682d2c4cc91012102ee120da767c486545be33211025531b4bb792c4965bcdbcde4b4c98a69922f88fdffffff0162a007000000000017a9143076165aa54807a8481df07cf4dbbb449a4dcd1f8711490800", "vin": [{"sequence": 4294967293, "scriptSig": {"hex": "483045022100d6571bd11a0fca0084de47a909a7f6f50951406770f87fe4e6616160bad97e3e02205535c8edbf0977f43e082b9e295dd4e9388050c25a33575e25891682d2c4cc91012102ee120da767c486545be33211025531b4bb792c4965bcdbcde4b4c98a69922f88", "asm": "3045022100d6571bd11a0fca0084de47a909a7f6f50951406770f87fe4e6616160bad97e3e02205535c8edbf0977f43e082b9e295dd4e9388050c25a33575e25891682d2c4cc91[ALL] 02ee120da767c486545be33211025531b4bb792c4965bcdbcde4b4c98a69922f88"}, "vout": 2, "txid": "ac58467dab9315aa7e422d396dab7f2109f47670fca400325f74123ed4198b24"}], "txid": "9bbb6a32932d0dbb71e44c9b993129bd5983e28d3a191d0b46f51a8780fb0031", "blocktime": 1537872018, "version": 1, "confirmations": 11489, "time": 1537872018, "locktime": 542993, "vsize": 190, "size": 190}