{"hash": "eeeb2d7bff0f029f9b3b846e760f6e618026786e6cff62c6957273dd6695c0bb", "blockhash": "0000000000000000000dcc0f55137456b1a82d3642486a52398922ac4d620174", "vout": [{"scriptPubKey": {"reqSigs": 1, "hex": "00143d0bef67308cb0dc4ed79d1c3b3bbe15554e8b7a", "addresses": ["bc1q85977ees3jcdcnkhn5wrkwa7z425azm667jsg9"], "asm": "0 3d0bef67308cb0dc4ed79d1c3b3bbe15554e8b7a", "type": "witness_v0_keyhash"}, "value": 1.542e-05, "n": 0}, {"scriptPubKey": {"reqSigs": 1, "hex": "76a91497b7344b6f72eb0df7cf280e1bea062d51c0853288ac", "addresses": ["1EqCWDv192LiBCeWWCmniS6ykV6T9dZhrV"], "asm": "OP_DUP OP_HASH160 97b7344b6f72eb0df7cf280e1bea062d51c08532 OP_EQUALVERIFY OP_CHECKSIG", "type": "pubkeyhash"}, "value": 0.00337167, "n": 1}], "hex": "010000000001018573fd914b39287379f9ece44e67619cabeaf4281b5515ee8fe30a8f82ead6500100000000ffffffff0206060000000000001600143d0bef67308cb0dc4ed79d1c3b3bbe15554e8b7a0f250500000000001976a91497b7344b6f72eb0df7cf280e1bea062d51c0853288ac02473044022024e0cd85ee2ff7001bf2772adb1402e77cae4f65374a7a065ba2aa318756028c02202f87825c8f282f31e097d20a169eb3e85cc6f112ee556b5af1d6cc3da4530a4e012102c253e87c5d5d407e54180a0abaf5789294fd635803ff5b0a52ffef7f56a9a24900000000", "vin": [{"txinwitness": ["3044022024e0cd85ee2ff7001bf2772adb1402e77cae4f65374a7a065ba2aa318756028c02202f87825c8f282f31e097d20a169eb3e85cc6f112ee556b5af1d6cc3da4530a4e01", "02c253e87c5d5d407e54180a0abaf5789294fd635803ff5b0a52ffef7f56a9a249"], "sequence": 4294967295, "scriptSig": {"hex": "", "asm": ""}, "vout": 1, "txid": "50d6ea828f0ae38fee15551b28f4eaab9c61674ee4ecf9797328394b91fd7385"}], "txid": "9bbc5f249d67f8fec3368eb60f1d9ce6f49e929d72cac51d9327c9a50e6ded98", "blocktime": 1537870268, "version": 1, "confirmations": 11518, "time": 1537870268, "locktime": 0, "vsize": 144, "size": 225}