{"hash": "9a70b02dc0e82c4b6c3bf6a190f84f0e26d4c5175de54d7478845fe209f699cf", "blockhash": "0000000000000000001cda96e906b7601b7a6fb1a3b62bca570a9e5d8f4b3de1", "vout": [{"scriptPubKey": {"reqSigs": 1, "hex": "a9147dd143f44ea0903a99e557b08469f1ec14a6d7f887", "addresses": ["3DAH5YK8SjSshqhPQn7Qu548YzerfQgknm"], "asm": "OP_HASH160 7dd143f44ea0903a99e557b08469f1ec14a6d7f8 OP_EQUAL", "type": "scripthash"}, "value": 0.01, "n": 0}, {"scriptPubKey": {"reqSigs": 1, "hex": "a91498d48594d25516c10837489c33e36e10cd3cbb5887", "addresses": ["3Fd7DyYN1RhVmfdue6iAfRw1t99BbBgCV4"], "asm": "OP_HASH160 98d48594d25516c10837489c33e36e10cd3cbb58 OP_EQUAL", "type": "scripthash"}, "value": 0.0104483, "n": 1}], "hex": "0100000000010137ff05ef5f6dca64fcc20a6c3e4edae6f79902abbe76536e57e8ed87e89289e80000000023220020c85160bc91d59b87843b251f44df0756cd4560eadf48d8fd640630b6f3fede93ffffffff0240420f000000000017a9147dd143f44ea0903a99e557b08469f1ec14a6d7f8875ef10f000000000017a91498d48594d25516c10837489c33e36e10cd3cbb58870400483045022100fd2afd551cc20528754bed91a6ead448b8ad21fbcb9b197e84ad386c9b4f940802205ccbe11408e5ab4f86dcfccc8ae3fb38dc2b5f5459e801e391da1cf0bfa7967201483045022100d433eb2f64bdc17c4d8797e7ad09ba12dc21ca97fe2c3d35ae013cd53fe3881a02205316b6fa2bc7d5b421adf3d03d2f32c547738885eddb41bf74b1a3b140a4246c01475221034f1b630fc019d6ac3417ce880bb93397b832f005daa7aa6470f27f9394d8143021038f2c7ecee34c843be9d886e50ce79e5dc40a1694c0417d60b35340f292ff73fc52ae00000000", "vin": [{"txinwitness": ["", "3045022100fd2afd551cc20528754bed91a6ead448b8ad21fbcb9b197e84ad386c9b4f940802205ccbe11408e5ab4f86dcfccc8ae3fb38dc2b5f5459e801e391da1cf0bfa7967201", "3045022100d433eb2f64bdc17c4d8797e7ad09ba12dc21ca97fe2c3d35ae013cd53fe3881a02205316b6fa2bc7d5b421adf3d03d2f32c547738885eddb41bf74b1a3b140a4246c01", "5221034f1b630fc019d6ac3417ce880bb93397b832f005daa7aa6470f27f9394d8143021038f2c7ecee34c843be9d886e50ce79e5dc40a1694c0417d60b35340f292ff73fc52ae"], "sequence": 4294967295, "scriptSig": {"hex": "220020c85160bc91d59b87843b251f44df0756cd4560eadf48d8fd640630b6f3fede93", "asm": "0020c85160bc91d59b87843b251f44df0756cd4560eadf48d8fd640630b6f3fede93"}, "vout": 0, "txid": "e88992e887ede8576e5376beab0299f7e6da4e3e6c0ac2fc64ca6d5fef05ff37"}], "txid": "9bc1f01640f02d4e7d8272d79f57e75338338f0e622bc0ed6e62c4c0df6ce73f", "blocktime": 1537873282, "version": 1, "confirmations": 11484, "time": 1537873282, "locktime": 0, "vsize": 206, "size": 372}