{"hash": "9bc5dd0da2cd05e83384920fad01e0ddaed3e5d986b31ae29ccf1c9cb912b91d", "blockhash": "0000000000000000000e13cef7c366c0283d82e591d1acd082e914b08063cdf1", "vout": [{"scriptPubKey": {"reqSigs": 1, "hex": "76a914d1816019d81f8b7187ee8a4d3d06892fb04a87d088ac", "addresses": ["1L6mDFea7P7L2Q1tZxDGmYTrasCkLEKsJB"], "asm": "OP_DUP OP_HASH160 d1816019d81f8b7187ee8a4d3d06892fb04a87d0 OP_EQUALVERIFY OP_CHECKSIG", "type": "pubkeyhash"}, "value": 0.005925, "n": 0}, {"scriptPubKey": {"reqSigs": 1, "hex": "76a914b9e453d10c2924d4debad9d0c22465480963144388ac", "addresses": ["1HwuXxPwwadMXFUzHvvXkQgFoAF13WejEv"], "asm": "OP_DUP OP_HASH160 b9e453d10c2924d4debad9d0c224654809631443 OP_EQUALVERIFY OP_CHECKSIG", "type": "pubkeyhash"}, "value": 0.01594328, "n": 1}], "hex": "010000000113403d78e335490e0569acac13513526ddb40a49b267dba287c0271043de1c19040000006b4830450221009e7430b7860f9c660fbe87011806010f60f0de78f5fcb3f07e91fae0692ddc7a022053fe0b17bba112cd6605cb148b335608a719da4317ab136c686670d10e6f9de00121039fe7056d8a9c6de76c59034a4bd0009eb365178adec5fadfa92cb789afb208c0ffffffff02740a0900000000001976a914d1816019d81f8b7187ee8a4d3d06892fb04a87d088acd8531800000000001976a914b9e453d10c2924d4debad9d0c22465480963144388ac00000000", "vin": [{"sequence": 4294967295, "scriptSig": {"hex": "4830450221009e7430b7860f9c660fbe87011806010f60f0de78f5fcb3f07e91fae0692ddc7a022053fe0b17bba112cd6605cb148b335608a719da4317ab136c686670d10e6f9de00121039fe7056d8a9c6de76c59034a4bd0009eb365178adec5fadfa92cb789afb208c0", "asm": "30450221009e7430b7860f9c660fbe87011806010f60f0de78f5fcb3f07e91fae0692ddc7a022053fe0b17bba112cd6605cb148b335608a719da4317ab136c686670d10e6f9de0[ALL] 039fe7056d8a9c6de76c59034a4bd0009eb365178adec5fadfa92cb789afb208c0"}, "vout": 4, "txid": "191cde431027c087a2db67b2490ab4dd26355113acac69050e4935e3783d4013"}], "txid": "9bc5dd0da2cd05e83384920fad01e0ddaed3e5d986b31ae29ccf1c9cb912b91d", "blocktime": 1537871767, "version": 1, "confirmations": 11492, "time": 1537871767, "locktime": 0, "vsize": 226, "size": 226}