{"hash": "48c43981752e0436df5b2bdf7a6eb5144657a1a2fc971b2b14b4582b83fe4f8f", "blockhash": "00000000000000000018f53835495a110e01622372bf6ae95dc86f2b0ab887b0", "vout": [{"scriptPubKey": {"reqSigs": 1, "hex": "a914a5259e7b14542fc5b56f175d312e096b68d83c4387", "addresses": ["3GkEV1nFxcY9hqvqo5bCQgv83RrCfmME63"], "asm": "OP_HASH160 a5259e7b14542fc5b56f175d312e096b68d83c43 OP_EQUAL", "type": "scripthash"}, "value": 0.0020303, "n": 0}, {"scriptPubKey": {"reqSigs": 1, "hex": "a91470966c4580a5e82ad8c84f224d7b3ed8beaa009087", "addresses": ["3BxKobcQi1W7sn8DiFzYnHRujxzY5N6Fvq"], "asm": "OP_HASH160 70966c4580a5e82ad8c84f224d7b3ed8beaa0090 OP_EQUAL", "type": "scripthash"}, "value": 0.0799006, "n": 1}, {"scriptPubKey": {"reqSigs": 1, "hex": "a914bddce1db77593a7ac8d67f0d488c4311d5103ffa87", "addresses": ["3JzvEy64J63pDv7KjyKsVzupMgKcwdgQU4"], "asm": "OP_HASH160 bddce1db77593a7ac8d67f0d488c4311d5103ffa OP_EQUAL", "type": "scripthash"}, "value": 0.05677184, "n": 2}, {"scriptPubKey": {"reqSigs": 1, "hex": "a9145b0ec0ac38829947749f8672e6f790169b3fc2e187", "addresses": ["39zV62k89ZgHxSzM9XTAAHnyP7tpLq8FfN"], "asm": "OP_HASH160 5b0ec0ac38829947749f8672e6f790169b3fc2e1 OP_EQUAL", "type": "scripthash"}, "value": 0.03108, "n": 3}], "hex": "02000000000101c61f4a29f90135960ba44c5d18104dad46555f3326e0ba5050a19ac547cdefd50300000017160014394c1d55120fea8442873d75d93263e22518f914ffffffff04161903000000000017a914a5259e7b14542fc5b56f175d312e096b68d83c43872ceb79000000000017a91470966c4580a5e82ad8c84f224d7b3ed8beaa00908780a056000000000017a914bddce1db77593a7ac8d67f0d488c4311d5103ffa87a06c2f000000000017a9145b0ec0ac38829947749f8672e6f790169b3fc2e18702473044022065f78216be84b4f2ef21a34bd002d96c444bcd59838d24b1ba58e6162c7dcbf802206acb22bc7481e40e640829b8b84fef49f426bdac82d4e64a8aafd7e9a483dc7a012103e196163b6d30d0fef27eff5bae2754a7ccba75d466b78c87116b6535bacce31b00000000", "vin": [{"txinwitness": ["3044022065f78216be84b4f2ef21a34bd002d96c444bcd59838d24b1ba58e6162c7dcbf802206acb22bc7481e40e640829b8b84fef49f426bdac82d4e64a8aafd7e9a483dc7a01", "03e196163b6d30d0fef27eff5bae2754a7ccba75d466b78c87116b6535bacce31b"], "sequence": 4294967295, "scriptSig": {"hex": "160014394c1d55120fea8442873d75d93263e22518f914", "asm": "0014394c1d55120fea8442873d75d93263e22518f914"}, "vout": 3, "txid": "d5efcd47c59aa15050bae026335f5546ad4d10185d4ca40b963501f9294a1fc6"}], "txid": "9bce5ae891c0b71aeee494d64fa32612561b8fd274a85a93b383e5f24fe22dbf", "blocktime": 1537870928, "version": 2, "confirmations": 11512, "time": 1537870928, "locktime": 0, "vsize": 230, "size": 311}