{"hash": "13e88150bb046893b62900ac5f0fac1cc08f2feac7ec557a069e2196dedbe222", "blockhash": "00000000000000000017f5eb5941039fbcee6240d03bc1f2f8e35350df66a1d8", "vout": [{"scriptPubKey": {"reqSigs": 1, "hex": "001412ff21ad65d22eb96068fd2039dcd18512fd0afa", "addresses": ["bc1qztljrtt96ghtjcrgl5srnhx3s5f06zh6h3y8pc"], "asm": "0 12ff21ad65d22eb96068fd2039dcd18512fd0afa", "type": "witness_v0_keyhash"}, "value": 0.00257227, "n": 0}, {"scriptPubKey": {"reqSigs": 1, "hex": "a914886206e9d904ccddf30760bec94506468b7a6dff87", "addresses": ["3E89FfiwC26ZdZ6mc3kV1Ud1JW2LamumjU"], "asm": "OP_HASH160 886206e9d904ccddf30760bec94506468b7a6dff OP_EQUAL", "type": "scripthash"}, "value": 0.03384, "n": 1}], "hex": "0100000000010116b8ce04630fe630aa183cccca7971c320cc96455ce0b967af97f899a1a4dc290000000000ffffffff02cbec03000000000016001412ff21ad65d22eb96068fd2039dcd18512fd0afac0a233000000000017a914886206e9d904ccddf30760bec94506468b7a6dff8702483045022100cb812c0564fe16deadd656f2b7e10eb4cbe9c9481b22d7f0b2b07ffb5e8f52b802206149e1e9b873ae98137a53d7e502102e8bf3984f1617d07db55ff761d1b0aa51012103ddbabf1659f84e8ec1caf2c05a0e24dc111129f9f368bb1ac7c2cc56fe3dec8000000000", "vin": [{"txinwitness": ["3045022100cb812c0564fe16deadd656f2b7e10eb4cbe9c9481b22d7f0b2b07ffb5e8f52b802206149e1e9b873ae98137a53d7e502102e8bf3984f1617d07db55ff761d1b0aa5101", "03ddbabf1659f84e8ec1caf2c05a0e24dc111129f9f368bb1ac7c2cc56fe3dec80"], "sequence": 4294967295, "scriptSig": {"hex": "", "asm": ""}, "vout": 0, "txid": "29dca4a199f897af67b9e05c4596cc20c37179cacc3c18aa30e60f6304ceb816"}], "txid": "9bcf7d9237b2abacff2e85550f0afca2f8ca53981317b669825875e4f776444f", "blocktime": 1537874412, "version": 1, "confirmations": 11467, "time": 1537874412, "locktime": 0, "vsize": 142, "size": 224}