{"hash": "9bcfcde1e03c014efaf7dde4f3cd34faa8e83b6111ca9c673d13fd80341b13aa", "blockhash": "0000000000000000000e13cef7c366c0283d82e591d1acd082e914b08063cdf1", "vout": [{"scriptPubKey": {"reqSigs": 1, "hex": "76a9140710a3804530530709a90eaad9d25ce6d6af9c0b88ac", "addresses": ["1eMfRG89X9HXW3EWi4VhPEAaRCp8Hv9pu"], "asm": "OP_DUP OP_HASH160 0710a3804530530709a90eaad9d25ce6d6af9c0b OP_EQUALVERIFY OP_CHECKSIG", "type": "pubkeyhash"}, "value": 0.00304993, "n": 0}, {"scriptPubKey": {"reqSigs": 1, "hex": "76a91457181ca77b362a999db21c7ecb01742c92211a8688ac", "addresses": ["18wWg1uKTUKXdwaejeayCJmEvyiDL2iQhV"], "asm": "OP_DUP OP_HASH160 57181ca77b362a999db21c7ecb01742c92211a86 OP_EQUALVERIFY OP_CHECKSIG", "type": "pubkeyhash"}, "value": 0.02264667, "n": 1}], "hex": "010000000182fbd55f1bed299a21edc71aa68acc4050485f31ad78307e7fdc164ad9ab6a63010000006b483045022100f641ef059e658335470b6299fc22f1dd709989f7a2fba933b5ca2236adbf950802205886fd35ea6a193a166cf6dbc6895631b20ccf0e9fb87bab9b145fc40021376b012102d5de97be9c530de44b859e7b7bf2fdb2814d449d9ec7e17c1f09fec75956aa5fffffffff0261a70400000000001976a9140710a3804530530709a90eaad9d25ce6d6af9c0b88ac5b8e2200000000001976a91457181ca77b362a999db21c7ecb01742c92211a8688ac00000000", "vin": [{"sequence": 4294967295, "scriptSig": {"hex": "483045022100f641ef059e658335470b6299fc22f1dd709989f7a2fba933b5ca2236adbf950802205886fd35ea6a193a166cf6dbc6895631b20ccf0e9fb87bab9b145fc40021376b012102d5de97be9c530de44b859e7b7bf2fdb2814d449d9ec7e17c1f09fec75956aa5f", "asm": "3045022100f641ef059e658335470b6299fc22f1dd709989f7a2fba933b5ca2236adbf950802205886fd35ea6a193a166cf6dbc6895631b20ccf0e9fb87bab9b145fc40021376b[ALL] 02d5de97be9c530de44b859e7b7bf2fdb2814d449d9ec7e17c1f09fec75956aa5f"}, "vout": 1, "txid": "636aabd94a16dc7f7e3078ad315f485040cc8aa61ac7ed219a29ed1b5fd5fb82"}], "txid": "9bcfcde1e03c014efaf7dde4f3cd34faa8e83b6111ca9c673d13fd80341b13aa", "blocktime": 1537871767, "version": 1, "confirmations": 11495, "time": 1537871767, "locktime": 0, "vsize": 226, "size": 226}