{"hash": "2c4768231b6465f8c5c90fa403f28676f2fd1a5e86eeeeb5905497f83a5e5a05", "blockhash": "0000000000000000001cda96e906b7601b7a6fb1a3b62bca570a9e5d8f4b3de1", "vout": [{"scriptPubKey": {"reqSigs": 1, "hex": "76a91451d61910d2dc47777a3fd3eac28162259726f14788ac", "addresses": ["18TiDKgN7bSpai3dvSFrcUAi6e7HoomQHD"], "asm": "OP_DUP OP_HASH160 51d61910d2dc47777a3fd3eac28162259726f147 OP_EQUALVERIFY OP_CHECKSIG", "type": "pubkeyhash"}, "value": 0.0297, "n": 0}, {"scriptPubKey": {"reqSigs": 1, "hex": "a9140155874553c527f049c0ae3d5a778b0e04e347bb87", "addresses": ["31p54MS7MSBGATPf7L9k6okpqGURCLuP5X"], "asm": "OP_HASH160 0155874553c527f049c0ae3d5a778b0e04e347bb OP_EQUAL", "type": "scripthash"}, "value": 0.26800512, "n": 1}], "hex": "01000000000101a9ec134bfa9a31fdda61ffb2cf8a70b174fa7fa01ab86554912987db3595a37c0100000023220020ead9813ef71a14a1fc550cfb5c5dd853d1e6bbccfde25f8f3c1124c6b47fda22ffffffff0290512d00000000001976a91451d61910d2dc47777a3fd3eac28162259726f14788ac80f198010000000017a9140155874553c527f049c0ae3d5a778b0e04e347bb87040047304402201b148c7cf8c0ac2382bca1aae5133537f55a7c87f20d2eb1d0bf0b0f71b271640220222a3a3d815a1fa1eb0645bbb9c4360bb133026c82a19ee418badd836cfe084b01473044022042bd42975b04f5c50fc53bac41dceee0a4a1e0796afebff7cbdcb4725e1867f3022035173a8c00e7ac71f40f75c515a5c9edbe4f1ad948d1a6d3e7433c1e312eaa340147522103baf82ab85653fe1a4c26c826d6e71ff0f794cef0ba8d4b9c350b7cd8a099295c210374d34c43195a03910cd16cba2c089b5a40de35ab5857ec656bdacade80fb67c052ae00000000", "vin": [{"txinwitness": ["", "304402201b148c7cf8c0ac2382bca1aae5133537f55a7c87f20d2eb1d0bf0b0f71b271640220222a3a3d815a1fa1eb0645bbb9c4360bb133026c82a19ee418badd836cfe084b01", "3044022042bd42975b04f5c50fc53bac41dceee0a4a1e0796afebff7cbdcb4725e1867f3022035173a8c00e7ac71f40f75c515a5c9edbe4f1ad948d1a6d3e7433c1e312eaa3401", "522103baf82ab85653fe1a4c26c826d6e71ff0f794cef0ba8d4b9c350b7cd8a099295c210374d34c43195a03910cd16cba2c089b5a40de35ab5857ec656bdacade80fb67c052ae"], "sequence": 4294967295, "scriptSig": {"hex": "220020ead9813ef71a14a1fc550cfb5c5dd853d1e6bbccfde25f8f3c1124c6b47fda22", "asm": "0020ead9813ef71a14a1fc550cfb5c5dd853d1e6bbccfde25f8f3c1124c6b47fda22"}, "vout": 1, "txid": "7ca39535db8729915465b81aa07ffa74b1708acfb2ff61dafd319afa4b13eca9"}], "txid": "9bcf8e385bdce52cf517457a21b15b4d827d3baeecd0ef4ebb99b068262ab27e", "blocktime": 1537873282, "version": 1, "confirmations": 11484, "time": 1537873282, "locktime": 0, "vsize": 207, "size": 372}