{"hash": "6c2ef1c09e314818b71f551d8396f438895873882e1f34050ff085c9a9f8a11a", "blockhash": "0000000000000000001cda96e906b7601b7a6fb1a3b62bca570a9e5d8f4b3de1", "vout": [{"scriptPubKey": {"reqSigs": 1, "hex": "76a914f2722c6d39e343b8e6c83dc85a2f8d3d054a8a5188ac", "addresses": ["1P6wJLhnNVXN1dhUqkSYT4BqU6SfxpXrJE"], "asm": "OP_DUP OP_HASH160 f2722c6d39e343b8e6c83dc85a2f8d3d054a8a51 OP_EQUALVERIFY OP_CHECKSIG", "type": "pubkeyhash"}, "value": 0.069, "n": 0}, {"scriptPubKey": {"reqSigs": 1, "hex": "a9145cc391931306d8381e034dbc25d4e68a341c015787", "addresses": ["3A9WNYHVtpL3x7T2k6PWSBexbUxLvRnAC7"], "asm": "OP_HASH160 5cc391931306d8381e034dbc25d4e68a341c0157 OP_EQUAL", "type": "scripthash"}, "value": 0.09631102, "n": 1}], "hex": "01000000000101028155785a735932f030b3f7c91ca1f1b8c1d9c720ad02f3ddbed5f3278e05d401000000232200204a5db67497c8fffd22258b45a0632e2f62f0413f93bc32bc76f59b3cd8b8d533ffffffff0220496900000000001976a914f2722c6d39e343b8e6c83dc85a2f8d3d054a8a5188ac7ef592000000000017a9145cc391931306d8381e034dbc25d4e68a341c01578704004730440220102281336fecaba66468b702ed88407c45d39e92cda2034130086cfb76c45b47022071e7627be2b2fa944db9570e6dbe37507507953a99eeb71c8405586d070d834b014730440220321457d899a2e4ad83156f1afbcea137fe0c6b96f1f17e41b2bdac0020fd80020220044ce42f06cab9b040d907218983f58a97297165d1c25a76daeff98d94ef3760014752210344177476959ce581e4e19ad42fbc604b35104bfd6b40a91ed53a2e218a0c37cc21033cd5fcc68f940f6921c548e8539485080ee4267f6a52c9ffdc268036306f5cff52ae00000000", "vin": [{"txinwitness": ["", "30440220102281336fecaba66468b702ed88407c45d39e92cda2034130086cfb76c45b47022071e7627be2b2fa944db9570e6dbe37507507953a99eeb71c8405586d070d834b01", "30440220321457d899a2e4ad83156f1afbcea137fe0c6b96f1f17e41b2bdac0020fd80020220044ce42f06cab9b040d907218983f58a97297165d1c25a76daeff98d94ef376001", "52210344177476959ce581e4e19ad42fbc604b35104bfd6b40a91ed53a2e218a0c37cc21033cd5fcc68f940f6921c548e8539485080ee4267f6a52c9ffdc268036306f5cff52ae"], "sequence": 4294967295, "scriptSig": {"hex": "2200204a5db67497c8fffd22258b45a0632e2f62f0413f93bc32bc76f59b3cd8b8d533", "asm": "00204a5db67497c8fffd22258b45a0632e2f62f0413f93bc32bc76f59b3cd8b8d533"}, "vout": 1, "txid": "d4058e27f3d5beddf302ad20c7d9c1b8f1a11cc9f7b330f03259735a78558102"}], "txid": "9bd2b5ef939254c9ba00301042156b567bf3b03d549260426b8295893cfd2739", "blocktime": 1537873282, "version": 1, "confirmations": 11484, "time": 1537873282, "locktime": 0, "vsize": 207, "size": 372}