{"hash": "9bde7e3c5744bed6f62e57fd65e2ca7a0ad477bf9e6eb0b66120ae6d5c21c2e7", "blockhash": "00000000000000000024a2167bbff67b0be802c0b01cdd79e6331c2be6459f87", "vout": [{"scriptPubKey": {"reqSigs": 1, "hex": "a9147f7de5e125f0fd78eaded775d3ec818eaa7f06b087", "addresses": ["3DK8ZT54mCJQEFkMaZXmA5VexEUdi3Sk55"], "asm": "OP_HASH160 7f7de5e125f0fd78eaded775d3ec818eaa7f06b0 OP_EQUAL", "type": "scripthash"}, "value": 0.03127027, "n": 0}, {"scriptPubKey": {"reqSigs": 1, "hex": "a914b5ac92a064fdc4cc5374a77a1f614684d8dd9b9087", "addresses": ["3JFcxq8VB9ieuVqCaiNfwfyfMQXtzLx5xY"], "asm": "OP_HASH160 b5ac92a064fdc4cc5374a77a1f614684d8dd9b90 OP_EQUAL", "type": "scripthash"}, "value": 0.03080078, "n": 1}, {"scriptPubKey": {"reqSigs": 1, "hex": "76a9145df090d163a8aa561f3af0623373d107fe47e24c88ac", "addresses": ["19Zi2dzPbgTjXLXWMS2srsJmyKazNZREmF"], "asm": "OP_DUP OP_HASH160 5df090d163a8aa561f3af0623373d107fe47e24c OP_EQUALVERIFY OP_CHECKSIG", "type": "pubkeyhash"}, "value": 9.379e-05, "n": 2}], "hex": "010000000211e556b077ac9787e1190d8f229ac7721eff047d4c4b6459d559e3e974ff54de30000000d90047304402203746857e2da2b5d938653b085e35a1ee1736ae81807be543cc62cf0490c65d59022028c1f61be9f65640ce8e96441736b07b346871c4587d5244ebfa24b1b9cd0aad0147304402203e43ab6abcd9c1851360c3f15dcb5087064da5cdf5d69a8a9f9bf9b2c4ef668f02204262a1a6647fb3866bbc54db8161c08b6b2805f84ea4d5b1bee34a0ff58b9afe0147522102907a54bed8ad74b3f35638c60114ca240a308cb986f3f2f306178869a8880b612102a5cdca47b5a8276516ed8af647bd963dace206d647115a12c1ebd34d14bcb97552aeffffffff3676e05419731b8e914f65661bae82442f228732bba219b282107d3e1d0a2e49010000006a47304402207f6cb86772a2b926d542e28f2bdddf1475dbb131f1eb1e5fe7d7dc04f229dbc102206fef6b9d0ae6178bd39e0c7628bafb366eab1de919bbe3cda7521d663819aa92012102e7b3fc0d6634b83c8f2550bec85f2aa5799a0fca24b9b723c46925a9ff44b181ffffffff03f3b62f000000000017a9147f7de5e125f0fd78eaded775d3ec818eaa7f06b0878eff2e000000000017a914b5ac92a064fdc4cc5374a77a1f614684d8dd9b9087a3240000000000001976a9145df090d163a8aa561f3af0623373d107fe47e24c88ac00000000", "vin": [{"sequence": 4294967295, "scriptSig": {"hex": "0047304402203746857e2da2b5d938653b085e35a1ee1736ae81807be543cc62cf0490c65d59022028c1f61be9f65640ce8e96441736b07b346871c4587d5244ebfa24b1b9cd0aad0147304402203e43ab6abcd9c1851360c3f15dcb5087064da5cdf5d69a8a9f9bf9b2c4ef668f02204262a1a6647fb3866bbc54db8161c08b6b2805f84ea4d5b1bee34a0ff58b9afe0147522102907a54bed8ad74b3f35638c60114ca240a308cb986f3f2f306178869a8880b612102a5cdca47b5a8276516ed8af647bd963dace206d647115a12c1ebd34d14bcb97552ae", "asm": "0 304402203746857e2da2b5d938653b085e35a1ee1736ae81807be543cc62cf0490c65d59022028c1f61be9f65640ce8e96441736b07b346871c4587d5244ebfa24b1b9cd0aad[ALL] 304402203e43ab6abcd9c1851360c3f15dcb5087064da5cdf5d69a8a9f9bf9b2c4ef668f02204262a1a6647fb3866bbc54db8161c08b6b2805f84ea4d5b1bee34a0ff58b9afe[ALL] 522102907a54bed8ad74b3f35638c60114ca240a308cb986f3f2f306178869a8880b612102a5cdca47b5a8276516ed8af647bd963dace206d647115a12c1ebd34d14bcb97552ae"}, "vout": 48, "txid": "de54ff74e9e359d559644b4c7d04ff1e72c79a228f0d19e18797ac77b056e511"}, {"sequence": 4294967295, "scriptSig": {"hex": "47304402207f6cb86772a2b926d542e28f2bdddf1475dbb131f1eb1e5fe7d7dc04f229dbc102206fef6b9d0ae6178bd39e0c7628bafb366eab1de919bbe3cda7521d663819aa92012102e7b3fc0d6634b83c8f2550bec85f2aa5799a0fca24b9b723c46925a9ff44b181", "asm": "304402207f6cb86772a2b926d542e28f2bdddf1475dbb131f1eb1e5fe7d7dc04f229dbc102206fef6b9d0ae6178bd39e0c7628bafb366eab1de919bbe3cda7521d663819aa92[ALL] 02e7b3fc0d6634b83c8f2550bec85f2aa5799a0fca24b9b723c46925a9ff44b181"}, "vout": 1, "txid": "492e0a1d3e7d1082b219a2bb3287222f4482ae1b66654f918e1b731954e07636"}], "txid": "9bde7e3c5744bed6f62e57fd65e2ca7a0ad477bf9e6eb0b66120ae6d5c21c2e7", "blocktime": 1537870564, "version": 1, "confirmations": 11515, "time": 1537870564, "locktime": 0, "vsize": 513, "size": 513}