{"hash": "9c064bcec705af61b0d56c25de17bdfa03fe9608d1a732f999ed02594af49542", "blockhash": "0000000000000000000baef3f32e3676a92c3b2e5da21b426e4f302fc371ce76", "vout": [{"scriptPubKey": {"reqSigs": 1, "hex": "76a9149e2990a39eac758a067ba57da06130ca7bf00dd288ac", "addresses": ["1FRHZJA5eowxVkEuuX5i93SmBSh1DkG53h"], "asm": "OP_DUP OP_HASH160 9e2990a39eac758a067ba57da06130ca7bf00dd2 OP_EQUALVERIFY OP_CHECKSIG", "type": "pubkeyhash"}, "value": 1.0, "n": 0}, {"scriptPubKey": {"reqSigs": 1, "hex": "76a9145701946cd250e60ba820909e56e9f9be8b2b4a1388ac", "addresses": ["18w3gTNVremBXVBQftrT4xfbZsB2mRw1Ej"], "asm": "OP_DUP OP_HASH160 5701946cd250e60ba820909e56e9f9be8b2b4a13 OP_EQUALVERIFY OP_CHECKSIG", "type": "pubkeyhash"}, "value": 1.03858496, "n": 1}], "hex": "010000000250b261c1a6e341db5ddf3e15b8cfcdcf73017b8d8ac28b9e1cd15ef589f46ea2010000006b483045022100f6c12c107cd34ce61ddcc82fa3979f42fcc8b09540d6ce25a73e8c7b5e09c54102203fcf9bfd1f23bbabced507dbe27603f78bba6aa644c9b386d59e54cd0759c13d01210240a368044744f59fdc17d54f29dba5b79963e224bbeabb2c94fe4a77895f4fa5ffffffff26625f801e04e4c48ef73a107e31cb0f75fe86b69bebdca5aa030cf1c54efb55010000006b483045022100cddacae2417e032587ea838a9644dc1e4d8e896ffd9826a75dea30eb67d6aa5b022026a305185ff33c00374472243f84f09422455b56093fddbe08fd777112f57319012103dd09666ecbc3ab930d85fd91f8dbcdca0c4e25385a1de3a0eeed1f2f329b272dffffffff0200e1f505000000001976a9149e2990a39eac758a067ba57da06130ca7bf00dd288ac40c13006000000001976a9145701946cd250e60ba820909e56e9f9be8b2b4a1388ac00000000", "vin": [{"sequence": 4294967295, "scriptSig": {"hex": "483045022100f6c12c107cd34ce61ddcc82fa3979f42fcc8b09540d6ce25a73e8c7b5e09c54102203fcf9bfd1f23bbabced507dbe27603f78bba6aa644c9b386d59e54cd0759c13d01210240a368044744f59fdc17d54f29dba5b79963e224bbeabb2c94fe4a77895f4fa5", "asm": "3045022100f6c12c107cd34ce61ddcc82fa3979f42fcc8b09540d6ce25a73e8c7b5e09c54102203fcf9bfd1f23bbabced507dbe27603f78bba6aa644c9b386d59e54cd0759c13d[ALL] 0240a368044744f59fdc17d54f29dba5b79963e224bbeabb2c94fe4a77895f4fa5"}, "vout": 1, "txid": "a26ef489f55ed11c9e8bc28a8d7b0173cfcdcfb8153edf5ddb41e3a6c161b250"}, {"sequence": 4294967295, "scriptSig": {"hex": "483045022100cddacae2417e032587ea838a9644dc1e4d8e896ffd9826a75dea30eb67d6aa5b022026a305185ff33c00374472243f84f09422455b56093fddbe08fd777112f57319012103dd09666ecbc3ab930d85fd91f8dbcdca0c4e25385a1de3a0eeed1f2f329b272d", "asm": "3045022100cddacae2417e032587ea838a9644dc1e4d8e896ffd9826a75dea30eb67d6aa5b022026a305185ff33c00374472243f84f09422455b56093fddbe08fd777112f57319[ALL] 03dd09666ecbc3ab930d85fd91f8dbcdca0c4e25385a1de3a0eeed1f2f329b272d"}, "vout": 1, "txid": "55fb4ec5f10c03aaa5dceb9bb686fe750fcb317e103af78ec4e4041e805f6226"}], "txid": "9c064bcec705af61b0d56c25de17bdfa03fe9608d1a732f999ed02594af49542", "blocktime": 1537876114, "version": 1, "confirmations": 11459, "time": 1537876114, "locktime": 0, "vsize": 374, "size": 374}