{"hash": "f5fbcfa6432d35c17f872636b48321107143dec8826fc79a7d9d1b09810c7632", "blockhash": "000000000000000000022b45ed06c6f4ccd3cf7fb5ba4856ebd2e58215665228", "vout": [{"scriptPubKey": {"reqSigs": 1, "hex": "76a914fca9b91de900319a1b30d75af05ec15f81c6523488ac", "addresses": ["1Q2xbumoWnodZVmjJSB4CMBF3q7Gd8VNSg"], "asm": "OP_DUP OP_HASH160 fca9b91de900319a1b30d75af05ec15f81c65234 OP_EQUALVERIFY OP_CHECKSIG", "type": "pubkeyhash"}, "value": 0.03505503, "n": 0}, {"scriptPubKey": {"reqSigs": 1, "hex": "a914bcd449ffa8c33da675213bb80942a2896a14cd8487", "addresses": ["3JuTGi9EWX7wmX5aEf987nvJazC7FYiQq3"], "asm": "OP_HASH160 bcd449ffa8c33da675213bb80942a2896a14cd84 OP_EQUAL", "type": "scripthash"}, "value": 0.21458179, "n": 1}], "hex": "010000000001016a2197f893421d66735f5b88166af1e98fc9bc4a5ac799be24c8cd97d5724b040100000023220020280184c80e5410c17ac8b636772e88c53a10dc43533c198c94ec0838fa40c3cbffffffff025f7d3500000000001976a914fca9b91de900319a1b30d75af05ec15f81c6523488ac036d47010000000017a914bcd449ffa8c33da675213bb80942a2896a14cd8487040047304402205f4a8333bf5041081550ecc6c50652bca607a4b7149edbb3a2e4f74dd620968f02207ce7505738fc043721eabb4ef8a4bad0b0105a3400e9db5d7a1d2f31fc1a64ea01483045022100f8341988c89c281e0459201a9cb7b8dc2ad47a0058eac92e3959830a7458e35902201e85f472a18da1e5bcbca3578e6d96231f265e1b761852ac589df0270cde64880169522103a3e5730e9598d3b10c98e491061416444c6d78e9d3ac08aad520b2660c57e1132102c20f0188cb6130dab0a7a9173ca3d717e65f5e6cbb230909d91a0635fa1bd4a6210394a0be15432ec265f6e05e8e1080726b7a6d23638298c79158b282f4328343bc53ae00000000", "vin": [{"txinwitness": ["", "304402205f4a8333bf5041081550ecc6c50652bca607a4b7149edbb3a2e4f74dd620968f02207ce7505738fc043721eabb4ef8a4bad0b0105a3400e9db5d7a1d2f31fc1a64ea01", "3045022100f8341988c89c281e0459201a9cb7b8dc2ad47a0058eac92e3959830a7458e35902201e85f472a18da1e5bcbca3578e6d96231f265e1b761852ac589df0270cde648801", "522103a3e5730e9598d3b10c98e491061416444c6d78e9d3ac08aad520b2660c57e1132102c20f0188cb6130dab0a7a9173ca3d717e65f5e6cbb230909d91a0635fa1bd4a6210394a0be15432ec265f6e05e8e1080726b7a6d23638298c79158b282f4328343bc53ae"], "sequence": 4294967295, "scriptSig": {"hex": "220020280184c80e5410c17ac8b636772e88c53a10dc43533c198c94ec0838fa40c3cb", "asm": "0020280184c80e5410c17ac8b636772e88c53a10dc43533c198c94ec0838fa40c3cb"}, "vout": 1, "txid": "044b72d597cdc824be99c75a4abcc98fe9f16a16885b5f73661d4293f897216a"}], "txid": "9c094aabc83427fe24567453173a4bc7be6294d1f47ef2a8d900d80a8466c2f8", "blocktime": 1537869901, "version": 1, "confirmations": 11523, "time": 1537869901, "locktime": 0, "vsize": 216, "size": 407}