{"hash": "f475a4b81f7f94ead267d289b90a88f6d9210a035f7bab011c11a8e0288fd057", "blockhash": "00000000000000000004ffacab907a6b429b9a5745fa0b75af4234bf69dd7176", "vout": [{"scriptPubKey": {"reqSigs": 1, "hex": "76a914a5c369d9aa18565263bd6222ec3e90d8ff2f1a0988ac", "addresses": ["1G7UbDfw67DU9FXpdHNVKesaZsgaT21n8b"], "asm": "OP_DUP OP_HASH160 a5c369d9aa18565263bd6222ec3e90d8ff2f1a09 OP_EQUALVERIFY OP_CHECKSIG", "type": "pubkeyhash"}, "value": 0.00969896, "n": 0}, {"scriptPubKey": {"reqSigs": 1, "hex": "76a914159090e83250f99153dce8f22d97735e880eb8e488ac", "addresses": ["12y2NetNnSmtiQV3Wf2nLYNzJEC5SinCVh"], "asm": "OP_DUP OP_HASH160 159090e83250f99153dce8f22d97735e880eb8e4 OP_EQUALVERIFY OP_CHECKSIG", "type": "pubkeyhash"}, "value": 1.9995, "n": 1}, {"scriptPubKey": {"reqSigs": 1, "hex": "a91429e61cfa23e65882fc465b4f9d14e3e1d0e4468287", "addresses": ["35WZHxGPhmePaCuH73mmLhtvgcDf5ABtBK"], "asm": "OP_HASH160 29e61cfa23e65882fc465b4f9d14e3e1d0e44682 OP_EQUAL", "type": "scripthash"}, "value": 0.03000022, "n": 2}], "hex": "01000000000103ad28421c9bcb0c14ce1e43dfc645303d70e9930bc94cdf2e977f915212f61cbb070000002322002085d5306d724eb3fc783e8c5f86923a8fe20a5a3ad96a310b8734184e1ebe970100000000e419d1396775a643b8e7352ac64c0b3e8e425756c9e8dc244469f741c492e2220000000023220020c14cc8555a2a7dfcc3393ccbb356462fa3efa62159f51c475c6cd46b9513ada00000000052a4173718769ffc08f317a740f80c2b32aebac89afe2e5a5a912012933fdca6680000002322002070a116226bf4853f6d2afe04260d81e9de4c01a8ec0a699d868395fae9f979780000000003a8cc0e00000000001976a914a5c369d9aa18565263bd6222ec3e90d8ff2f1a0988acb0feea0b000000001976a914159090e83250f99153dce8f22d97735e880eb8e488acd6c62d000000000017a91429e61cfa23e65882fc465b4f9d14e3e1d0e44682870400483045022100f05023b8ee4129ec517842c4f4839083a85e9e7e7572b24d58622a7cfa7316070220333ac9912936fdc83838b6a7b7e7819ad376a85e82178deef2ac76c9eee5cfb20147304402202bcd83926b100daf41b401df351a171ebad14313550c4d8776d00a0b04c6858f022031985e0b6ebcd5c531a0c5b01ecaeaded2042959713613d0491d6e3eb35997db014752210244862be5773f0366757181eb30f0f93635e19048f7f8eb4e02b76f0053dd8dac2103ad30c0a68b4ad6e1922e875bdfa18308b684789668747601ce6543f2d6c2794f52ae0400473044022051d25160537cf6bf7b9ff41c11cb85060f6f551fee5d4dea64ced6ae8635f5e602204fd7092887ed6aae1547a1511bad7588b26cbe9f3ee44da2fc284ad9e912e8500147304402200c6d1ff7994a02f2446ad4e46e6451cf665db3abeff9805a801290f5b7a804e50220283780f9cad61f869de8fa41cdf55f4ea5b772d6b755964c9c3070abbd79c72301475221039c7b3cac10727f2766ab33f647b7ee4e576081990d2a0d1124a5fabe184708f42102a111f4860116528e846fd8ebeda62ef8d11d379cbc11de576d255275952c4dec52ae0400483045022100e051e60c5f6461cd7e13c03c990e2edbcde6376281863d97a53c60b02e16c43a0220490a0e0564d5063d4f8a4731b053b534c8ee62d82e57085999788e75fb52b8400147304402204c5c6aad9a1f282547188a43f3cc8e1158a2692e229f9bff5d2d4053a73c8d0b02206c683f96e5400b0b295d2445b43fa82837634e664235ab45afb0cdd9f253a26101475221032e1c643d1605d3305208be7b7910fa7fa229aaba9eb278c77f18893f72a19bfc21021eaf1577f6c66cc2365295ff4687e665afc03ab167e617ee413ffaa33daa7a4c52ae00000000", "vin": [{"txinwitness": ["", "3045022100f05023b8ee4129ec517842c4f4839083a85e9e7e7572b24d58622a7cfa7316070220333ac9912936fdc83838b6a7b7e7819ad376a85e82178deef2ac76c9eee5cfb201", "304402202bcd83926b100daf41b401df351a171ebad14313550c4d8776d00a0b04c6858f022031985e0b6ebcd5c531a0c5b01ecaeaded2042959713613d0491d6e3eb35997db01", "52210244862be5773f0366757181eb30f0f93635e19048f7f8eb4e02b76f0053dd8dac2103ad30c0a68b4ad6e1922e875bdfa18308b684789668747601ce6543f2d6c2794f52ae"], "sequence": 0, "scriptSig": {"hex": "22002085d5306d724eb3fc783e8c5f86923a8fe20a5a3ad96a310b8734184e1ebe9701", "asm": "002085d5306d724eb3fc783e8c5f86923a8fe20a5a3ad96a310b8734184e1ebe9701"}, "vout": 7, "txid": "bb1cf61252917f972edf4cc90b93e9703d3045c6df431ece140ccb9b1c4228ad"}, {"txinwitness": ["", "3044022051d25160537cf6bf7b9ff41c11cb85060f6f551fee5d4dea64ced6ae8635f5e602204fd7092887ed6aae1547a1511bad7588b26cbe9f3ee44da2fc284ad9e912e85001", "304402200c6d1ff7994a02f2446ad4e46e6451cf665db3abeff9805a801290f5b7a804e50220283780f9cad61f869de8fa41cdf55f4ea5b772d6b755964c9c3070abbd79c72301", "5221039c7b3cac10727f2766ab33f647b7ee4e576081990d2a0d1124a5fabe184708f42102a111f4860116528e846fd8ebeda62ef8d11d379cbc11de576d255275952c4dec52ae"], "sequence": 0, "scriptSig": {"hex": "220020c14cc8555a2a7dfcc3393ccbb356462fa3efa62159f51c475c6cd46b9513ada0", "asm": "0020c14cc8555a2a7dfcc3393ccbb356462fa3efa62159f51c475c6cd46b9513ada0"}, "vout": 0, "txid": "22e292c441f7694424dce8c95657428e3e0b4cc62a35e7b843a6756739d119e4"}, {"txinwitness": ["", "3045022100e051e60c5f6461cd7e13c03c990e2edbcde6376281863d97a53c60b02e16c43a0220490a0e0564d5063d4f8a4731b053b534c8ee62d82e57085999788e75fb52b84001", "304402204c5c6aad9a1f282547188a43f3cc8e1158a2692e229f9bff5d2d4053a73c8d0b02206c683f96e5400b0b295d2445b43fa82837634e664235ab45afb0cdd9f253a26101", "5221032e1c643d1605d3305208be7b7910fa7fa229aaba9eb278c77f18893f72a19bfc21021eaf1577f6c66cc2365295ff4687e665afc03ab167e617ee413ffaa33daa7a4c52ae"], "sequence": 0, "scriptSig": {"hex": "22002070a116226bf4853f6d2afe04260d81e9de4c01a8ec0a699d868395fae9f97978", "asm": "002070a116226bf4853f6d2afe04260d81e9de4c01a8ec0a699d868395fae9f97978"}, "vout": 104, "txid": "a6dc3f931220915a5a2efe9ac8baae322b0cf840a717f308fc9f76183717a452"}], "txid": "9c0ad4b71389c09d0843b3f3a25f221575de48499c72ce9ecbb94b81c3c34c61", "blocktime": 1537875543, "version": 1, "confirmations": 11464, "time": 1537875543, "locktime": 0, "vsize": 503, "size": 996}