{"hash": "9c0f268a2ee6ff4e6584f6c47e7bcc8e2e01981dff6f2c31c9aab7977bd67588", "blockhash": "0000000000000000000e13cef7c366c0283d82e591d1acd082e914b08063cdf1", "vout": [{"scriptPubKey": {"reqSigs": 1, "hex": "a9144e1a14fee250f6d40aae52ae8d38f4e234ca2e6f87", "addresses": ["38oysiX3fkyKEAw37j3FYFsQbi7BA6zixm"], "asm": "OP_HASH160 4e1a14fee250f6d40aae52ae8d38f4e234ca2e6f OP_EQUAL", "type": "scripthash"}, "value": 0.01149077, "n": 0}, {"scriptPubKey": {"reqSigs": 1, "hex": "76a9142545ce74026c79cf475a6d1dcd1d4ae37e76693f88ac", "addresses": ["14Q5dLTQH3b5jUzDC9eyJ35hEvUmwHn57d"], "asm": "OP_DUP OP_HASH160 2545ce74026c79cf475a6d1dcd1d4ae37e76693f OP_EQUALVERIFY OP_CHECKSIG", "type": "pubkeyhash"}, "value": 0.51426652, "n": 1}], "hex": "0100000001128fdabcbf8f0e1b41f7eda54c17cff87e5998c18bfe0317c3ae189fa6b0a0f7010000006b483045022100e4d75a94526dbad18a3661ae3ef629b2d82d307d3d3fd5c1c207d666826c7de002201fb1c0f2f1b96eca3c6f12749008cf0052f7975c57d4330d584977e7f7bb8b8901210213908f456551ccd42134bb278b23275a7586f7a6f84f06f67579709e421df87affffffff02958811000000000017a9144e1a14fee250f6d40aae52ae8d38f4e234ca2e6f875cb51003000000001976a9142545ce74026c79cf475a6d1dcd1d4ae37e76693f88ac00000000", "vin": [{"sequence": 4294967295, "scriptSig": {"hex": "483045022100e4d75a94526dbad18a3661ae3ef629b2d82d307d3d3fd5c1c207d666826c7de002201fb1c0f2f1b96eca3c6f12749008cf0052f7975c57d4330d584977e7f7bb8b8901210213908f456551ccd42134bb278b23275a7586f7a6f84f06f67579709e421df87a", "asm": "3045022100e4d75a94526dbad18a3661ae3ef629b2d82d307d3d3fd5c1c207d666826c7de002201fb1c0f2f1b96eca3c6f12749008cf0052f7975c57d4330d584977e7f7bb8b89[ALL] 0213908f456551ccd42134bb278b23275a7586f7a6f84f06f67579709e421df87a"}, "vout": 1, "txid": "f7a0b0a69f18aec31703fe8bc198597ef8cf174ca5edf7411b0e8fbfbcda8f12"}], "txid": "9c0f268a2ee6ff4e6584f6c47e7bcc8e2e01981dff6f2c31c9aab7977bd67588", "blocktime": 1537871767, "version": 1, "confirmations": 11493, "time": 1537871767, "locktime": 0, "vsize": 224, "size": 224}