{"hash": "9c14bdf0e854ee7604ca11ebda6a4fab9b9e0fb63650f172eca2ed6c62aca3b7", "blockhash": "00000000000000000004ffacab907a6b429b9a5745fa0b75af4234bf69dd7176", "vout": [{"scriptPubKey": {"reqSigs": 1, "hex": "a914e679aceccc49cb5810ca130e753de6176c1aec3a87", "addresses": ["3Nhf6prXonXqo8d4Kyv2rvnTvsez59G1Ri"], "asm": "OP_HASH160 e679aceccc49cb5810ca130e753de6176c1aec3a OP_EQUAL", "type": "scripthash"}, "value": 0.00485481, "n": 0}, {"scriptPubKey": {"reqSigs": 1, "hex": "76a9148927883e9bf6321487178b1f28064963686e824288ac", "addresses": ["1DWCw2YJtNgUBstn1ScwZKZgfryvF8S9zW"], "asm": "OP_DUP OP_HASH160 8927883e9bf6321487178b1f28064963686e8242 OP_EQUALVERIFY OP_CHECKSIG", "type": "pubkeyhash"}, "value": 0.45359162, "n": 1}], "hex": "0100000001534a71561dff55b3b6f2663b66e8f67059dd5d31fea7fed14f2b9d119ce85a56010000006a47304402201b9dbc966ca2014f03e68576247b7dc9c271a333d230abc5d033cd9c0cbfbcdb02200dafd3deb5ce81dd48055ccc82817b1a1b6b7421def3423b8cbb625d276cb2600121038dcdd7b73b6afd324ada3ebc80e96ef046755c2116ffcb78fba185167e05dd76ffffffff02696807000000000017a914e679aceccc49cb5810ca130e753de6176c1aec3a873a20b402000000001976a9148927883e9bf6321487178b1f28064963686e824288ac00000000", "vin": [{"sequence": 4294967295, "scriptSig": {"hex": "47304402201b9dbc966ca2014f03e68576247b7dc9c271a333d230abc5d033cd9c0cbfbcdb02200dafd3deb5ce81dd48055ccc82817b1a1b6b7421def3423b8cbb625d276cb2600121038dcdd7b73b6afd324ada3ebc80e96ef046755c2116ffcb78fba185167e05dd76", "asm": "304402201b9dbc966ca2014f03e68576247b7dc9c271a333d230abc5d033cd9c0cbfbcdb02200dafd3deb5ce81dd48055ccc82817b1a1b6b7421def3423b8cbb625d276cb260[ALL] 038dcdd7b73b6afd324ada3ebc80e96ef046755c2116ffcb78fba185167e05dd76"}, "vout": 1, "txid": "565ae89c119d2b4fd1fea7fe315ddd5970f6e8663b66f2b6b355ff1d56714a53"}], "txid": "9c14bdf0e854ee7604ca11ebda6a4fab9b9e0fb63650f172eca2ed6c62aca3b7", "blocktime": 1537875543, "version": 1, "confirmations": 11464, "time": 1537875543, "locktime": 0, "vsize": 223, "size": 223}