{"hash": "9c15f20331249333b5a021f1d06e21fc582a8f35f64f1ffc8feba232ef33829c", "blockhash": "00000000000000000004ffacab907a6b429b9a5745fa0b75af4234bf69dd7176", "vout": [{"scriptPubKey": {"reqSigs": 1, "hex": "a914c11fad2d4d38313882c8be147f4dfa54eddc428987", "addresses": ["3KJAHVCFLUncvbh74ZAg2u83sSjH3q8GnZ"], "asm": "OP_HASH160 c11fad2d4d38313882c8be147f4dfa54eddc4289 OP_EQUAL", "type": "scripthash"}, "value": 0.02135394, "n": 0}], "hex": "010000000dc7bdfa356b36a0efa97f9ede8074d059315388ad46d79ff6e8cef33e81797fd5360300006a473044022077e8ee478c863c2ea44e193c9bf25654bd4a3aacd07694826a2105b2f955111c02202a7b0fadd8eeb5dd2f490b9167e3c9d83e84be9d7f55f76ca4cf5b17c783f17701210201ab1749eb753f7d0783c6bad31475b3a9f97b6a81d8e2fffb257f8f47d8ad4fffffffff1cc32d615f0374e4e202b260a61ef41c37d89a56fab211c6ac18901b56828df8000000006b4830450221009b6fc8d2a91bc10e09caeaa5f5a4f24116ed1a044e3cce9244c30d7ab0a1a0e00220617640827c58c8cc410c84ba556121827f8710b5dbdd7282639d4e262385067001210248b2b23a925d552f6729a87204fc70ab46a861ecfd8222cce43622a9e5582893ffffffffc82b8acd22f2781e4951a33e81b84b6bcd4da3338d74d1bbd52dc46647ae0121050000006b483045022100b362350537ec237cc953e3c4c4e70768cd738b0abb6d8bf186894b9561108ea6022053190bfe105a7859244078d340adb0e53c1669bbd51cb7744630b7e18808fdd201210248b2b23a925d552f6729a87204fc70ab46a861ecfd8222cce43622a9e5582893ffffffff48b1cc8e3a451773f7178cbefd5ffb897284d127b64cfc12017e94cb7edef0110a0000006a47304402200aa26e25e9e788d63b0203ac60263d3fb5b31ca37b74dce8d30686339bc80c6f02205a086e8bec5327e52bdc5e439dce0bb4fb1d50194a70e49bea41d1252b73edb801210248b2b23a925d552f6729a87204fc70ab46a861ecfd8222cce43622a9e5582893ffffffff1ae086c30e3006850c86a9f0825e4f8b1ec3f4c2d49d5c874a99e252ccae8068100000006b483045022100d2a433c5e0290dd030cf3d5cd92a44e281c005c9b74fb8f4dbbfa2afb6c4e54f02201eac9b20d4e31e4dd7e9ae7a936c5bb9835963bdd36eb3a5f4bb86bf6e92074101210248b2b23a925d552f6729a87204fc70ab46a861ecfd8222cce43622a9e5582893ffffffff912203d6d790a774bcb7e4632cd0e8909baf286a7ebf556cca668fb7796f2941080000006b483045022100e00f1e5aca5d8b8da363dfa35a6c21806d5d0965d458cdb9be9ce1dfa1ebc27302202521d057b37913ea66a6212770a6ee56caa5de53bcaff74ca42640076f65ff8c01210248b2b23a925d552f6729a87204fc70ab46a861ecfd8222cce43622a9e5582893ffffffff9ee80e70c8de5a29ac7d61ab05703799da823deb4965c404c155e020bf32e847050000006b483045022100c716a4e96c3a57e912ef599dc049961b25d28d681cc7d31b13cf50c1a47f84170220521190c908fec65844b1494bf0506f6eb9be8396b99ce86c5ca2946d85e6dd2b01210248b2b23a925d552f6729a87204fc70ab46a861ecfd8222cce43622a9e5582893ffffffff7b18d202cd4222c5a54bd7ae3918b4f3650b46d83387fc63363b08f1340ae32c010000006a473044022054c4fc29d571cd3f3e8ac17c1afc06d75bea4cc0637f5d1ce27436aa6a49490f022023097cede2bf709dc28d8669a1b5a9c03e46ddd1ce9c13490a6256fb883bdc9d01210248b2b23a925d552f6729a87204fc70ab46a861ecfd8222cce43622a9e5582893ffffffff6c3be301974cdd16e02489a1fa29b607f8bfd7993a1c0f76012cbed46e2a9ced300000006b4830450221009ffa1ac9b9e54455209986307da371368d6c009df521c5d053305b30e8725c640220724787f3db9ff1204c1a37bf8607ff6eda9325eda867b35644622bd2a9f87f7f01210248b2b23a925d552f6729a87204fc70ab46a861ecfd8222cce43622a9e5582893ffffffffec0c4a1d21034c89856346e5ca990a2cce6d1b7c8cb554cd0b75ff3a47f915220b0000006a47304402204f7f0af56b3aef04df2dfda751d09fb80e4c88c0d15aee645a0a9341b4b8f4f8022036dbba313782c8008d6357c125abc97efe1cf74436a23492d5c428b56992906601210248b2b23a925d552f6729a87204fc70ab46a861ecfd8222cce43622a9e5582893ffffffff0485dbc7c4850cb7325f6c8286d6110f577ff3debe4d2a8e09d7fb84f956de77420000006a473044022014c3d6dc307cf02473108fad22d8bf6251166e6310685fc947d23a194cbddb10022001d70d06c9a8821f3e0cd5a575b22c780398147b84adc11acc8a14050c3d553801210248b2b23a925d552f6729a87204fc70ab46a861ecfd8222cce43622a9e5582893ffffffffbb2db409511378ea6424b471f98d282ac97b4aa559ab05401a4d5a3380a6479f090000006a47304402203d385f110834137332547b9362a934e2139c97d99e67a1c90e05b87b2c143cd7022003c0c02849fff8e9a0946f6959c989908ed491bae84df5faf84568d0a0fd6edd01210248b2b23a925d552f6729a87204fc70ab46a861ecfd8222cce43622a9e5582893ffffffffadb024ec59eae488a4b7a7aaf71ea325ea87420d478ef719506de0ef0a32d0ff080000006b483045022100ebecb1852b92763ca3f980f6baada6be7dbd849ad0e5c58cf30e4973918a4e8a02205cb8d589c3b554dbf59a1d53b0ac4333c9055076b0e275acd47be52a5c322baf01210248b2b23a925d552f6729a87204fc70ab46a861ecfd8222cce43622a9e5582893ffffffff01629520000000000017a914c11fad2d4d38313882c8be147f4dfa54eddc42898700000000", "vin": [{"sequence": 4294967295, "scriptSig": {"hex": "473044022077e8ee478c863c2ea44e193c9bf25654bd4a3aacd07694826a2105b2f955111c02202a7b0fadd8eeb5dd2f490b9167e3c9d83e84be9d7f55f76ca4cf5b17c783f17701210201ab1749eb753f7d0783c6bad31475b3a9f97b6a81d8e2fffb257f8f47d8ad4f", "asm": "3044022077e8ee478c863c2ea44e193c9bf25654bd4a3aacd07694826a2105b2f955111c02202a7b0fadd8eeb5dd2f490b9167e3c9d83e84be9d7f55f76ca4cf5b17c783f177[ALL] 0201ab1749eb753f7d0783c6bad31475b3a9f97b6a81d8e2fffb257f8f47d8ad4f"}, "vout": 822, "txid": "d57f79813ef3cee8f69fd746ad88533159d07480de9e7fa9efa0366b35fabdc7"}, {"sequence": 4294967295, "scriptSig": {"hex": "4830450221009b6fc8d2a91bc10e09caeaa5f5a4f24116ed1a044e3cce9244c30d7ab0a1a0e00220617640827c58c8cc410c84ba556121827f8710b5dbdd7282639d4e262385067001210248b2b23a925d552f6729a87204fc70ab46a861ecfd8222cce43622a9e5582893", "asm": "30450221009b6fc8d2a91bc10e09caeaa5f5a4f24116ed1a044e3cce9244c30d7ab0a1a0e00220617640827c58c8cc410c84ba556121827f8710b5dbdd7282639d4e2623850670[ALL] 0248b2b23a925d552f6729a87204fc70ab46a861ecfd8222cce43622a9e5582893"}, "vout": 0, "txid": "f88d82561b9018acc611b2fa569ad8371cf41ea660b202e2e474035f612dc31c"}, {"sequence": 4294967295, "scriptSig": {"hex": "483045022100b362350537ec237cc953e3c4c4e70768cd738b0abb6d8bf186894b9561108ea6022053190bfe105a7859244078d340adb0e53c1669bbd51cb7744630b7e18808fdd201210248b2b23a925d552f6729a87204fc70ab46a861ecfd8222cce43622a9e5582893", "asm": "3045022100b362350537ec237cc953e3c4c4e70768cd738b0abb6d8bf186894b9561108ea6022053190bfe105a7859244078d340adb0e53c1669bbd51cb7744630b7e18808fdd2[ALL] 0248b2b23a925d552f6729a87204fc70ab46a861ecfd8222cce43622a9e5582893"}, "vout": 5, "txid": "2101ae4766c42dd5bbd1748d33a34dcd6b4bb8813ea351491e78f222cd8a2bc8"}, {"sequence": 4294967295, "scriptSig": {"hex": "47304402200aa26e25e9e788d63b0203ac60263d3fb5b31ca37b74dce8d30686339bc80c6f02205a086e8bec5327e52bdc5e439dce0bb4fb1d50194a70e49bea41d1252b73edb801210248b2b23a925d552f6729a87204fc70ab46a861ecfd8222cce43622a9e5582893", "asm": "304402200aa26e25e9e788d63b0203ac60263d3fb5b31ca37b74dce8d30686339bc80c6f02205a086e8bec5327e52bdc5e439dce0bb4fb1d50194a70e49bea41d1252b73edb8[ALL] 0248b2b23a925d552f6729a87204fc70ab46a861ecfd8222cce43622a9e5582893"}, "vout": 10, "txid": "11f0de7ecb947e0112fc4cb627d1847289fb5ffdbe8c17f77317453a8eccb148"}, {"sequence": 4294967295, "scriptSig": {"hex": "483045022100d2a433c5e0290dd030cf3d5cd92a44e281c005c9b74fb8f4dbbfa2afb6c4e54f02201eac9b20d4e31e4dd7e9ae7a936c5bb9835963bdd36eb3a5f4bb86bf6e92074101210248b2b23a925d552f6729a87204fc70ab46a861ecfd8222cce43622a9e5582893", "asm": "3045022100d2a433c5e0290dd030cf3d5cd92a44e281c005c9b74fb8f4dbbfa2afb6c4e54f02201eac9b20d4e31e4dd7e9ae7a936c5bb9835963bdd36eb3a5f4bb86bf6e920741[ALL] 0248b2b23a925d552f6729a87204fc70ab46a861ecfd8222cce43622a9e5582893"}, "vout": 16, "txid": "6880aecc52e2994a875c9dd4c2f4c31e8b4f5e82f0a9860c8506300ec386e01a"}, {"sequence": 4294967295, "scriptSig": {"hex": "483045022100e00f1e5aca5d8b8da363dfa35a6c21806d5d0965d458cdb9be9ce1dfa1ebc27302202521d057b37913ea66a6212770a6ee56caa5de53bcaff74ca42640076f65ff8c01210248b2b23a925d552f6729a87204fc70ab46a861ecfd8222cce43622a9e5582893", "asm": "3045022100e00f1e5aca5d8b8da363dfa35a6c21806d5d0965d458cdb9be9ce1dfa1ebc27302202521d057b37913ea66a6212770a6ee56caa5de53bcaff74ca42640076f65ff8c[ALL] 0248b2b23a925d552f6729a87204fc70ab46a861ecfd8222cce43622a9e5582893"}, "vout": 8, "txid": "41296f79b78f66ca6c55bf7e6a28af9b90e8d02c63e4b7bc74a790d7d6032291"}, {"sequence": 4294967295, "scriptSig": {"hex": "483045022100c716a4e96c3a57e912ef599dc049961b25d28d681cc7d31b13cf50c1a47f84170220521190c908fec65844b1494bf0506f6eb9be8396b99ce86c5ca2946d85e6dd2b01210248b2b23a925d552f6729a87204fc70ab46a861ecfd8222cce43622a9e5582893", "asm": "3045022100c716a4e96c3a57e912ef599dc049961b25d28d681cc7d31b13cf50c1a47f84170220521190c908fec65844b1494bf0506f6eb9be8396b99ce86c5ca2946d85e6dd2b[ALL] 0248b2b23a925d552f6729a87204fc70ab46a861ecfd8222cce43622a9e5582893"}, "vout": 5, "txid": "47e832bf20e055c104c46549eb3d82da99377005ab617dac295adec8700ee89e"}, {"sequence": 4294967295, "scriptSig": {"hex": "473044022054c4fc29d571cd3f3e8ac17c1afc06d75bea4cc0637f5d1ce27436aa6a49490f022023097cede2bf709dc28d8669a1b5a9c03e46ddd1ce9c13490a6256fb883bdc9d01210248b2b23a925d552f6729a87204fc70ab46a861ecfd8222cce43622a9e5582893", "asm": "3044022054c4fc29d571cd3f3e8ac17c1afc06d75bea4cc0637f5d1ce27436aa6a49490f022023097cede2bf709dc28d8669a1b5a9c03e46ddd1ce9c13490a6256fb883bdc9d[ALL] 0248b2b23a925d552f6729a87204fc70ab46a861ecfd8222cce43622a9e5582893"}, "vout": 1, "txid": "2ce30a34f1083b3663fc8733d8460b65f3b41839aed74ba5c52242cd02d2187b"}, {"sequence": 4294967295, "scriptSig": {"hex": "4830450221009ffa1ac9b9e54455209986307da371368d6c009df521c5d053305b30e8725c640220724787f3db9ff1204c1a37bf8607ff6eda9325eda867b35644622bd2a9f87f7f01210248b2b23a925d552f6729a87204fc70ab46a861ecfd8222cce43622a9e5582893", "asm": "30450221009ffa1ac9b9e54455209986307da371368d6c009df521c5d053305b30e8725c640220724787f3db9ff1204c1a37bf8607ff6eda9325eda867b35644622bd2a9f87f7f[ALL] 0248b2b23a925d552f6729a87204fc70ab46a861ecfd8222cce43622a9e5582893"}, "vout": 48, "txid": "ed9c2a6ed4be2c01760f1c3a99d7bff807b629faa18924e016dd4c9701e33b6c"}, {"sequence": 4294967295, "scriptSig": {"hex": "47304402204f7f0af56b3aef04df2dfda751d09fb80e4c88c0d15aee645a0a9341b4b8f4f8022036dbba313782c8008d6357c125abc97efe1cf74436a23492d5c428b56992906601210248b2b23a925d552f6729a87204fc70ab46a861ecfd8222cce43622a9e5582893", "asm": "304402204f7f0af56b3aef04df2dfda751d09fb80e4c88c0d15aee645a0a9341b4b8f4f8022036dbba313782c8008d6357c125abc97efe1cf74436a23492d5c428b569929066[ALL] 0248b2b23a925d552f6729a87204fc70ab46a861ecfd8222cce43622a9e5582893"}, "vout": 11, "txid": "2215f9473aff750bcd54b58c7c1b6dce2c0a99cae5466385894c03211d4a0cec"}, {"sequence": 4294967295, "scriptSig": {"hex": "473044022014c3d6dc307cf02473108fad22d8bf6251166e6310685fc947d23a194cbddb10022001d70d06c9a8821f3e0cd5a575b22c780398147b84adc11acc8a14050c3d553801210248b2b23a925d552f6729a87204fc70ab46a861ecfd8222cce43622a9e5582893", "asm": "3044022014c3d6dc307cf02473108fad22d8bf6251166e6310685fc947d23a194cbddb10022001d70d06c9a8821f3e0cd5a575b22c780398147b84adc11acc8a14050c3d5538[ALL] 0248b2b23a925d552f6729a87204fc70ab46a861ecfd8222cce43622a9e5582893"}, "vout": 66, "txid": "77de56f984fbd7098e2a4dbedef37f570f11d686826c5f32b70c85c4c7db8504"}, {"sequence": 4294967295, "scriptSig": {"hex": "47304402203d385f110834137332547b9362a934e2139c97d99e67a1c90e05b87b2c143cd7022003c0c02849fff8e9a0946f6959c989908ed491bae84df5faf84568d0a0fd6edd01210248b2b23a925d552f6729a87204fc70ab46a861ecfd8222cce43622a9e5582893", "asm": "304402203d385f110834137332547b9362a934e2139c97d99e67a1c90e05b87b2c143cd7022003c0c02849fff8e9a0946f6959c989908ed491bae84df5faf84568d0a0fd6edd[ALL] 0248b2b23a925d552f6729a87204fc70ab46a861ecfd8222cce43622a9e5582893"}, "vout": 9, "txid": "9f47a680335a4d1a4005ab59a54a7bc92a288df971b42464ea78135109b42dbb"}, {"sequence": 4294967295, "scriptSig": {"hex": "483045022100ebecb1852b92763ca3f980f6baada6be7dbd849ad0e5c58cf30e4973918a4e8a02205cb8d589c3b554dbf59a1d53b0ac4333c9055076b0e275acd47be52a5c322baf01210248b2b23a925d552f6729a87204fc70ab46a861ecfd8222cce43622a9e5582893", "asm": "3045022100ebecb1852b92763ca3f980f6baada6be7dbd849ad0e5c58cf30e4973918a4e8a02205cb8d589c3b554dbf59a1d53b0ac4333c9055076b0e275acd47be52a5c322baf[ALL] 0248b2b23a925d552f6729a87204fc70ab46a861ecfd8222cce43622a9e5582893"}, "vout": 8, "txid": "ffd0320aefe06d5019f78e470d4287ea25a31ef7aaa7b7a488e4ea59ec24b0ad"}], "txid": "9c15f20331249333b5a021f1d06e21fc582a8f35f64f1ffc8feba232ef33829c", "blocktime": 1537875543, "version": 1, "confirmations": 11464, "time": 1537875543, "locktime": 0, "vsize": 1960, "size": 1960}