{"hash": "9c1c74eb74db4663520efef3a6ed86e3612ceb1dcab4e4c51cc8c6c6c5171b04", "blockhash": "0000000000000000001cda96e906b7601b7a6fb1a3b62bca570a9e5d8f4b3de1", "vout": [{"scriptPubKey": {"reqSigs": 1, "hex": "a914dfb202e671a961da79c0d2aa88a5c4798e8efd2287", "addresses": ["3N5ormNj4uKiQ5XbGPmi1EwMZsQKzT8c4W"], "asm": "OP_HASH160 dfb202e671a961da79c0d2aa88a5c4798e8efd22 OP_EQUAL", "type": "scripthash"}, "value": 0.00085519, "n": 0}, {"scriptPubKey": {"reqSigs": 1, "hex": "76a914e00bfb9adb65c8a3b3d891e5001f7301a92d18b388ac", "addresses": ["1MReiZ175j53TfKXzGZ46YxjGvmP3hxizm"], "asm": "OP_DUP OP_HASH160 e00bfb9adb65c8a3b3d891e5001f7301a92d18b3 OP_EQUALVERIFY OP_CHECKSIG", "type": "pubkeyhash"}, "value": 0.05216763, "n": 1}], "hex": "0100000001aae47e472bd9644614847318b0a2ca8788de098100438b89c21b9df9d8ab0f8b010000006b4830450221009934051bdcb5c26b6f9bfc2107a3efcd9160d5416187fd99a0377c9b7482e15c022022bffffde628870029e74363e383803b15b4fb5f7407b9fa5d83a6074e9bb16101210286c68fd0f9347fe75ae73570ce0e1e3a329766c25ce90bf517d7421390ef570fffffffff020f4e01000000000017a914dfb202e671a961da79c0d2aa88a5c4798e8efd2287fb994f00000000001976a914e00bfb9adb65c8a3b3d891e5001f7301a92d18b388ac00000000", "vin": [{"sequence": 4294967295, "scriptSig": {"hex": "4830450221009934051bdcb5c26b6f9bfc2107a3efcd9160d5416187fd99a0377c9b7482e15c022022bffffde628870029e74363e383803b15b4fb5f7407b9fa5d83a6074e9bb16101210286c68fd0f9347fe75ae73570ce0e1e3a329766c25ce90bf517d7421390ef570f", "asm": "30450221009934051bdcb5c26b6f9bfc2107a3efcd9160d5416187fd99a0377c9b7482e15c022022bffffde628870029e74363e383803b15b4fb5f7407b9fa5d83a6074e9bb161[ALL] 0286c68fd0f9347fe75ae73570ce0e1e3a329766c25ce90bf517d7421390ef570f"}, "vout": 1, "txid": "8b0fabd8f99d1bc2898b43008109de8887caa2b0187384144664d92b477ee4aa"}], "txid": "9c1c74eb74db4663520efef3a6ed86e3612ceb1dcab4e4c51cc8c6c6c5171b04", "blocktime": 1537873282, "version": 1, "confirmations": 11484, "time": 1537873282, "locktime": 0, "vsize": 224, "size": 224}