{"hash": "9c1ee93d7c8d132a69fd2e8dbc0beaab9f459e4b7cf8f1a0d853be0d582e35c2", "blockhash": "0000000000000000001cda96e906b7601b7a6fb1a3b62bca570a9e5d8f4b3de1", "vout": [{"scriptPubKey": {"reqSigs": 1, "hex": "a914f4289b5a807eeea252c2d9b34189a43498351df887", "addresses": ["3Px1SmFXdQyoGXctWcmkPp6SrYgTSkKMEm"], "asm": "OP_HASH160 f4289b5a807eeea252c2d9b34189a43498351df8 OP_EQUAL", "type": "scripthash"}, "value": 0.01852116, "n": 0}], "hex": "0100000001c8045495dcb3ea43a09b609ce1a51138af939e2f732c42fdc559f0b4a2b58943000000006b483045022100938ba04d0c0afe34640afa4ab502849bef13774b111d301e2d09302c5c6058a402203d81a3c16c944cc88de3bdb384c86417f53b2fdcc22f25dea506c357ce1e605301210241a554de14547d5ef662921ff3106bfec2ac7bfea211a1c026aa1e5b7c079907ffffffff01d4421c000000000017a914f4289b5a807eeea252c2d9b34189a43498351df88700000000", "vin": [{"sequence": 4294967295, "scriptSig": {"hex": "483045022100938ba04d0c0afe34640afa4ab502849bef13774b111d301e2d09302c5c6058a402203d81a3c16c944cc88de3bdb384c86417f53b2fdcc22f25dea506c357ce1e605301210241a554de14547d5ef662921ff3106bfec2ac7bfea211a1c026aa1e5b7c079907", "asm": "3045022100938ba04d0c0afe34640afa4ab502849bef13774b111d301e2d09302c5c6058a402203d81a3c16c944cc88de3bdb384c86417f53b2fdcc22f25dea506c357ce1e6053[ALL] 0241a554de14547d5ef662921ff3106bfec2ac7bfea211a1c026aa1e5b7c079907"}, "vout": 0, "txid": "4389b5a2b4f059c5fd422c732f9e93af3811a5e19c609ba043eab3dc955404c8"}], "txid": "9c1ee93d7c8d132a69fd2e8dbc0beaab9f459e4b7cf8f1a0d853be0d582e35c2", "blocktime": 1537873282, "version": 1, "confirmations": 11484, "time": 1537873282, "locktime": 0, "vsize": 190, "size": 190}