{"hash": "9c24f0e6c5a4e6aa8053eaae93c2bd336a74fc7039696a0337e57f8a60d86dba", "blockhash": "0000000000000000001cda96e906b7601b7a6fb1a3b62bca570a9e5d8f4b3de1", "vout": [{"scriptPubKey": {"reqSigs": 1, "hex": "a9148daee9e29bfc37b3cdd9b79ab1a1588665e01c3187", "addresses": ["3EcAjoWtmcuMNLCSTDTzSctb231vYXSgQQ"], "asm": "OP_HASH160 8daee9e29bfc37b3cdd9b79ab1a1588665e01c31 OP_EQUAL", "type": "scripthash"}, "value": 0.0052556, "n": 0}, {"scriptPubKey": {"reqSigs": 1, "hex": "76a9146601d035b564bd65de99df20f6ae914391fb25ff88ac", "addresses": ["1AJN6ZPJFNMDEa69npps4D3R622oXoVv7h"], "asm": "OP_DUP OP_HASH160 6601d035b564bd65de99df20f6ae914391fb25ff OP_EQUALVERIFY OP_CHECKSIG", "type": "pubkeyhash"}, "value": 0.02068968, "n": 1}], "hex": "0100000001bac900b8fea46b5005ea3799841979c65cf32a82f1d8db840bb76f8c1d69365e010000006b483045022100f0e1337a79922fb1e846967d68d8f4aafd68c74598944efa057288e0631adbb102202e3ed1d2549694fd7dd527552047a67b7ce6d4c66a49ba4bfc9bc2173ae942ca0121034b7ab5b11f6156e3e40e7f3ea9233ca1e7031c32e9d0e330e3e0d0de73876072ffffffff02f80408000000000017a9148daee9e29bfc37b3cdd9b79ab1a1588665e01c3187e8911f00000000001976a9146601d035b564bd65de99df20f6ae914391fb25ff88ac00000000", "vin": [{"sequence": 4294967295, "scriptSig": {"hex": "483045022100f0e1337a79922fb1e846967d68d8f4aafd68c74598944efa057288e0631adbb102202e3ed1d2549694fd7dd527552047a67b7ce6d4c66a49ba4bfc9bc2173ae942ca0121034b7ab5b11f6156e3e40e7f3ea9233ca1e7031c32e9d0e330e3e0d0de73876072", "asm": "3045022100f0e1337a79922fb1e846967d68d8f4aafd68c74598944efa057288e0631adbb102202e3ed1d2549694fd7dd527552047a67b7ce6d4c66a49ba4bfc9bc2173ae942ca[ALL] 034b7ab5b11f6156e3e40e7f3ea9233ca1e7031c32e9d0e330e3e0d0de73876072"}, "vout": 1, "txid": "5e36691d8c6fb70b84dbd8f1822af35cc67919849937ea05506ba4feb800c9ba"}], "txid": "9c24f0e6c5a4e6aa8053eaae93c2bd336a74fc7039696a0337e57f8a60d86dba", "blocktime": 1537873282, "version": 1, "confirmations": 11482, "time": 1537873282, "locktime": 0, "vsize": 224, "size": 224}