{"hash": "9c27a0e130f8c69bd6e9b4bec1e968ffbb790d6339ef059e6cb4d331de4b1aff", "blockhash": "00000000000000000017f5eb5941039fbcee6240d03bc1f2f8e35350df66a1d8", "vout": [{"scriptPubKey": {"reqSigs": 1, "hex": "76a91495665032991b5da3b14c5247c01e156b2dfd870288ac", "addresses": ["1EcxFS9JUMfBbX1a47nQmfXe8prnUYNm89"], "asm": "OP_DUP OP_HASH160 95665032991b5da3b14c5247c01e156b2dfd8702 OP_EQUALVERIFY OP_CHECKSIG", "type": "pubkeyhash"}, "value": 0.00635753, "n": 0}, {"scriptPubKey": {"reqSigs": 1, "hex": "76a9144ef6ce90ce946269118511363346357ecf9741bc88ac", "addresses": ["18CXNQarJhzzWMJ6Pa8uMnAaXhu9fbCGeC"], "asm": "OP_DUP OP_HASH160 4ef6ce90ce946269118511363346357ecf9741bc OP_EQUALVERIFY OP_CHECKSIG", "type": "pubkeyhash"}, "value": 0.04690556, "n": 1}], "hex": "0100000002f0458621c238802dc6ed92c18ad5265395a49b22317e8a33ebd03a98f6a46d400000000069463043021f0de3aaebf8aed9a9155473d38f77e8479b9d17f6c49a4328065724bd00b0f1022041666da09796fd99353c9dacf8268812103b83b0199ab3765d3177b41479a935012103173b0bceedb864d2f80fa34c1cb5224fd7016ed1956f0ed7473e02230fc24d20ffffffff5adb363c35575c7edc7c1219837f3240fa0e690a7869133c0b0ff39d89ddf5b1010000006b483045022100b0749a6523fe0727aa261e95e5a8a730ad79f4078fbd8ae6471e0af7746cba7a0220607eb5a5fb05b7c8384a893709c50bbe0ec06ef0b9db3e425e624f99b4b8844a01210229688282fe43e864dccaaf60e6b88ffa20f8ecd45a8a0205bac49f5914bb4538ffffffff0269b30900000000001976a91495665032991b5da3b14c5247c01e156b2dfd870288ac7c924700000000001976a9144ef6ce90ce946269118511363346357ecf9741bc88ac00000000", "vin": [{"sequence": 4294967295, "scriptSig": {"hex": "463043021f0de3aaebf8aed9a9155473d38f77e8479b9d17f6c49a4328065724bd00b0f1022041666da09796fd99353c9dacf8268812103b83b0199ab3765d3177b41479a935012103173b0bceedb864d2f80fa34c1cb5224fd7016ed1956f0ed7473e02230fc24d20", "asm": "3043021f0de3aaebf8aed9a9155473d38f77e8479b9d17f6c49a4328065724bd00b0f1022041666da09796fd99353c9dacf8268812103b83b0199ab3765d3177b41479a935[ALL] 03173b0bceedb864d2f80fa34c1cb5224fd7016ed1956f0ed7473e02230fc24d20"}, "vout": 0, "txid": "406da4f6983ad0eb338a7e31229ba4955326d58ac192edc62d8038c2218645f0"}, {"sequence": 4294967295, "scriptSig": {"hex": "483045022100b0749a6523fe0727aa261e95e5a8a730ad79f4078fbd8ae6471e0af7746cba7a0220607eb5a5fb05b7c8384a893709c50bbe0ec06ef0b9db3e425e624f99b4b8844a01210229688282fe43e864dccaaf60e6b88ffa20f8ecd45a8a0205bac49f5914bb4538", "asm": "3045022100b0749a6523fe0727aa261e95e5a8a730ad79f4078fbd8ae6471e0af7746cba7a0220607eb5a5fb05b7c8384a893709c50bbe0ec06ef0b9db3e425e624f99b4b8844a[ALL] 0229688282fe43e864dccaaf60e6b88ffa20f8ecd45a8a0205bac49f5914bb4538"}, "vout": 1, "txid": "b1f5dd899df30f0b3c1369780a690efa40327f8319127cdc7e5c57353c36db5a"}], "txid": "9c27a0e130f8c69bd6e9b4bec1e968ffbb790d6339ef059e6cb4d331de4b1aff", "blocktime": 1537874412, "version": 1, "confirmations": 11467, "time": 1537874412, "locktime": 0, "vsize": 372, "size": 372}