{"hash": "9c2818f5421284d80023e9944d15537c2d2073a0c6d7e99d021cfa25386c49e1", "blockhash": "00000000000000000024a2167bbff67b0be802c0b01cdd79e6331c2be6459f87", "vout": [{"scriptPubKey": {"reqSigs": 1, "hex": "001489bfaad129b9ffce0034a76ac4455af8a239cb51", "addresses": ["bc1q3xl645ffh8luuqp55a4vg326lz3rnj63kwn5ts"], "asm": "0 89bfaad129b9ffce0034a76ac4455af8a239cb51", "type": "witness_v0_keyhash"}, "value": 1.223e-05, "n": 0}, {"scriptPubKey": {"reqSigs": 1, "hex": "a914772c440e2e2062bc7ecc918a70767109e6b19d1e87", "addresses": ["3CZ9N1tb6pUVKMkT2wEVwifYyU77ykugD9"], "asm": "OP_HASH160 772c440e2e2062bc7ecc918a70767109e6b19d1e OP_EQUAL", "type": "scripthash"}, "value": 0.0004, "n": 1}], "hex": "0100000001dbcd57a19cad2c726e763a8946ec0b1d8a8eacc34cc2ac27fda2ed8a600fc8ba020000006b483045022100fd91f98ac0e60acce2f7a778a74fe054eeb882170c5c8e6c12bbe0b8b84428e00220422180b56415917ff5bc14bfb96f5fdfd47def7aebc1ae849c79d10336bf3fad0121038f3db91ee4001f2a5fea61d46555926265fc2e637370d55499b37d0b24f58f8dffffffff02c70400000000000016001489bfaad129b9ffce0034a76ac4455af8a239cb51409c00000000000017a914772c440e2e2062bc7ecc918a70767109e6b19d1e8700000000", "vin": [{"sequence": 4294967295, "scriptSig": {"hex": "483045022100fd91f98ac0e60acce2f7a778a74fe054eeb882170c5c8e6c12bbe0b8b84428e00220422180b56415917ff5bc14bfb96f5fdfd47def7aebc1ae849c79d10336bf3fad0121038f3db91ee4001f2a5fea61d46555926265fc2e637370d55499b37d0b24f58f8d", "asm": "3045022100fd91f98ac0e60acce2f7a778a74fe054eeb882170c5c8e6c12bbe0b8b84428e00220422180b56415917ff5bc14bfb96f5fdfd47def7aebc1ae849c79d10336bf3fad[ALL] 038f3db91ee4001f2a5fea61d46555926265fc2e637370d55499b37d0b24f58f8d"}, "vout": 2, "txid": "bac80f608aeda2fd27acc24cc3ac8e8a1d0bec46893a766e722cad9ca157cddb"}], "txid": "9c2818f5421284d80023e9944d15537c2d2073a0c6d7e99d021cfa25386c49e1", "blocktime": 1537870564, "version": 1, "confirmations": 11515, "time": 1537870564, "locktime": 0, "vsize": 221, "size": 221}