{"hash": "962b765d62d111b4f2f77169202f8caa2acf8c667643c6fc3e0712abcb4393da", "blockhash": "00000000000000000017f5eb5941039fbcee6240d03bc1f2f8e35350df66a1d8", "vout": [{"scriptPubKey": {"reqSigs": 1, "hex": "76a9144f4e167d34386a84007fa890adea2fb83a483ea988ac", "addresses": ["18EKvo1zLkbo1WUe7LfSpuvgJEx7LRka9o"], "asm": "OP_DUP OP_HASH160 4f4e167d34386a84007fa890adea2fb83a483ea9 OP_EQUALVERIFY OP_CHECKSIG", "type": "pubkeyhash"}, "value": 0.00010019, "n": 0}, {"scriptPubKey": {"reqSigs": 1, "hex": "a914bfe3b9b006bd60d821de4768216fbcf3cb0629a487", "addresses": ["3KBdnpNRSUC6xH7oL58GWg3f1QzPQs9FWq"], "asm": "OP_HASH160 bfe3b9b006bd60d821de4768216fbcf3cb0629a4 OP_EQUAL", "type": "scripthash"}, "value": 0.00894923, "n": 1}], "hex": "010000000001010426ec41d5059805c95e21d738761c5b583b2d286cfebed33e42cad414d3c7ef01000000232200204ac72bc93353695ed44de9eabe5eab31fde46c3e5524f6f6c253b37df4627817ffffffff0223270000000000001976a9144f4e167d34386a84007fa890adea2fb83a483ea988accba70d000000000017a914bfe3b9b006bd60d821de4768216fbcf3cb0629a487040047304402202647cd74bdbd601670cc4b4b5a14c5c7c558b77be8f8685648c6068887ec2c2402200c88386549df5b1fa486431cc83290c86c8bbe1e4a4f532cac89bb4ae45e437d01483045022100e2bd7901855c64da964853f2bcd4962b063eef2446b04ce271c6a3e2f0acb3c4022044daa57e145b28cf68c36b17a883b8714ae1b2e3ef425b2d63b0e1503994ea8a014752210383dd989bbcdccf0b79b07f5bbd82921af5ac4762329b0aa9346994805e5cd8fc2103871fc2ca08e6950b38867e8e6a0e94ee625223d3aa0df5c65f414c6d784467e252ae00000000", "vin": [{"txinwitness": ["", "304402202647cd74bdbd601670cc4b4b5a14c5c7c558b77be8f8685648c6068887ec2c2402200c88386549df5b1fa486431cc83290c86c8bbe1e4a4f532cac89bb4ae45e437d01", "3045022100e2bd7901855c64da964853f2bcd4962b063eef2446b04ce271c6a3e2f0acb3c4022044daa57e145b28cf68c36b17a883b8714ae1b2e3ef425b2d63b0e1503994ea8a01", "52210383dd989bbcdccf0b79b07f5bbd82921af5ac4762329b0aa9346994805e5cd8fc2103871fc2ca08e6950b38867e8e6a0e94ee625223d3aa0df5c65f414c6d784467e252ae"], "sequence": 4294967295, "scriptSig": {"hex": "2200204ac72bc93353695ed44de9eabe5eab31fde46c3e5524f6f6c253b37df4627817", "asm": "00204ac72bc93353695ed44de9eabe5eab31fde46c3e5524f6f6c253b37df4627817"}, "vout": 1, "txid": "efc7d314d4ca423ed3befe6c282d3b585b1c7638d7215ec9059805d541ec2604"}], "txid": "9c2fb31d345f9be4af3b9e252744588494626affecc3c699fee841bc12d579b2", "blocktime": 1537874412, "version": 1, "confirmations": 11468, "time": 1537874412, "locktime": 0, "vsize": 208, "size": 373}