{"hash": "9c3108246e4a8c184e541cccf7b801a3832c641f27ab26bf0f6339411fcaa442", "blockhash": "00000000000000000004ffacab907a6b429b9a5745fa0b75af4234bf69dd7176", "vout": [{"scriptPubKey": {"reqSigs": 1, "hex": "76a9148b4f3488819e0f669c0335eb710c513156caafcc88ac", "addresses": ["1DhbowSy5ztSMq1BRhKna4Z6mnpUr2Bjip"], "asm": "OP_DUP OP_HASH160 8b4f3488819e0f669c0335eb710c513156caafcc OP_EQUALVERIFY OP_CHECKSIG", "type": "pubkeyhash"}, "value": 0.001, "n": 0}, {"scriptPubKey": {"reqSigs": 1, "hex": "76a914e163d073e054266d0f5e025eebd6100b0c946b5b88ac", "addresses": ["1MYkcNyCtPmxivKoMy5v5VBkv6LuBrgrAy"], "asm": "OP_DUP OP_HASH160 e163d073e054266d0f5e025eebd6100b0c946b5b OP_EQUALVERIFY OP_CHECKSIG", "type": "pubkeyhash"}, "value": 0.0806032, "n": 1}], "hex": "010000000190211238ac6a3c1f05d0969ee42d8876d780e791f6e7c5b34e0b5615c04224a2010000006a4730440220421da69b8d2be528ac7870b4dcb5bb80cf8966a66fee657991fd637c90ae76ab022019d74416f4454410913ed36c0a588a679f226d9def9e75e35b1c819a182abb4c0121033387315522fd785dc6a3184e4f2acbd937f90409a105c06583c94e6554220085ffffffff02a0860100000000001976a9148b4f3488819e0f669c0335eb710c513156caafcc88aca0fd7a00000000001976a914e163d073e054266d0f5e025eebd6100b0c946b5b88ac00000000", "vin": [{"sequence": 4294967295, "scriptSig": {"hex": "4730440220421da69b8d2be528ac7870b4dcb5bb80cf8966a66fee657991fd637c90ae76ab022019d74416f4454410913ed36c0a588a679f226d9def9e75e35b1c819a182abb4c0121033387315522fd785dc6a3184e4f2acbd937f90409a105c06583c94e6554220085", "asm": "30440220421da69b8d2be528ac7870b4dcb5bb80cf8966a66fee657991fd637c90ae76ab022019d74416f4454410913ed36c0a588a679f226d9def9e75e35b1c819a182abb4c[ALL] 033387315522fd785dc6a3184e4f2acbd937f90409a105c06583c94e6554220085"}, "vout": 1, "txid": "a22442c015560b4eb3c5e7f691e780d776882de49e96d0051f3c6aac38122190"}], "txid": "9c3108246e4a8c184e541cccf7b801a3832c641f27ab26bf0f6339411fcaa442", "blocktime": 1537875543, "version": 1, "confirmations": 11464, "time": 1537875543, "locktime": 0, "vsize": 225, "size": 225}