{"hash": "9c35c17637f8bb85deb7e69f90ebfe89d818fdc26fc5d0041dfe53b82128f8e2", "blockhash": "00000000000000000018f53835495a110e01622372bf6ae95dc86f2b0ab887b0", "vout": [{"scriptPubKey": {"reqSigs": 1, "hex": "76a9141ff185e3b9e8d603aeda6cf96ce1907bd3df30f388ac", "addresses": ["13uuHG3dKQGENV5v4CEKJngsouy17HHnQD"], "asm": "OP_DUP OP_HASH160 1ff185e3b9e8d603aeda6cf96ce1907bd3df30f3 OP_EQUALVERIFY OP_CHECKSIG", "type": "pubkeyhash"}, "value": 0.00896856, "n": 0}, {"scriptPubKey": {"reqSigs": 1, "hex": "76a9144214d8cccf48f809ac6dba5504eb198a29de0e7188ac", "addresses": ["172Qa8NX4ggRcfAvXMNom8imZEuuSWfr3E"], "asm": "OP_DUP OP_HASH160 4214d8cccf48f809ac6dba5504eb198a29de0e71 OP_EQUALVERIFY OP_CHECKSIG", "type": "pubkeyhash"}, "value": 0.01702513, "n": 1}], "hex": "02000000030a36cf30e7a8241ce29a8a0cd58cb962ded386b060df3f286ff8e40ae1d87e62000000006b483045022100893d407dfe02d95f05efeb0cc2cff3b0c639cc1a9c595127fe2485715b13100702207c1bcef06acad20eba14d4a2d66c035f6e0291e58c226e5c4b47f3777ad73f15012103d77ff9221e96c5f1fc8de1eae3887da489c5521efdbb41b8825162ad8532c28ffeffffffc0ffe871618f097d6ab6a25e524768eda604752123a3d4d5c350203265c051696a0100006a47304402202975887c712604a2d934b8bfa32d106079cff75219f03dc3c53d24a670de25e802205e37286890cdaf93dc8e7288948329e0372df937c15c5ebf559c18e0ae26476c012103efee7ae3bd91a0d523ef89001c048979f9db33c919179c8df0468291adc2ecf3feffffffed24bf93b3a1fa87bd0a915faf7bd6d898c4cd9634f8c96ab41bf327cc33f0f63c0100006a473044022006da9fee6ec324150ffeeba0bc710a4c1ae90fffe74df8a22ef1a80359e862010220498e04e110e85c7d40a45c12aefbd225b32dd68ef2caa74d5bfdf309091848f501210350a69c0b7d9458c12a00f85ed4b8bcb29965e79fd596c94118a7f84d9b1788a1feffffff0258af0d00000000001976a9141ff185e3b9e8d603aeda6cf96ce1907bd3df30f388ac71fa1900000000001976a9144214d8cccf48f809ac6dba5504eb198a29de0e7188ac05490800", "vin": [{"sequence": 4294967294, "scriptSig": {"hex": "483045022100893d407dfe02d95f05efeb0cc2cff3b0c639cc1a9c595127fe2485715b13100702207c1bcef06acad20eba14d4a2d66c035f6e0291e58c226e5c4b47f3777ad73f15012103d77ff9221e96c5f1fc8de1eae3887da489c5521efdbb41b8825162ad8532c28f", "asm": "3045022100893d407dfe02d95f05efeb0cc2cff3b0c639cc1a9c595127fe2485715b13100702207c1bcef06acad20eba14d4a2d66c035f6e0291e58c226e5c4b47f3777ad73f15[ALL] 03d77ff9221e96c5f1fc8de1eae3887da489c5521efdbb41b8825162ad8532c28f"}, "vout": 0, "txid": "627ed8e10ae4f86f283fdf60b086d3de62b98cd50c8a9ae21c24a8e730cf360a"}, {"sequence": 4294967294, "scriptSig": {"hex": "47304402202975887c712604a2d934b8bfa32d106079cff75219f03dc3c53d24a670de25e802205e37286890cdaf93dc8e7288948329e0372df937c15c5ebf559c18e0ae26476c012103efee7ae3bd91a0d523ef89001c048979f9db33c919179c8df0468291adc2ecf3", "asm": "304402202975887c712604a2d934b8bfa32d106079cff75219f03dc3c53d24a670de25e802205e37286890cdaf93dc8e7288948329e0372df937c15c5ebf559c18e0ae26476c[ALL] 03efee7ae3bd91a0d523ef89001c048979f9db33c919179c8df0468291adc2ecf3"}, "vout": 362, "txid": "6951c065322050c3d5d4a323217504a6ed6847525ea2b66a7d098f6171e8ffc0"}, {"sequence": 4294967294, "scriptSig": {"hex": "473044022006da9fee6ec324150ffeeba0bc710a4c1ae90fffe74df8a22ef1a80359e862010220498e04e110e85c7d40a45c12aefbd225b32dd68ef2caa74d5bfdf309091848f501210350a69c0b7d9458c12a00f85ed4b8bcb29965e79fd596c94118a7f84d9b1788a1", "asm": "3044022006da9fee6ec324150ffeeba0bc710a4c1ae90fffe74df8a22ef1a80359e862010220498e04e110e85c7d40a45c12aefbd225b32dd68ef2caa74d5bfdf309091848f5[ALL] 0350a69c0b7d9458c12a00f85ed4b8bcb29965e79fd596c94118a7f84d9b1788a1"}, "vout": 316, "txid": "f6f033cc27f31bb46ac9f83496cdc498d8d67baf5f910abd87faa1b393bf24ed"}], "txid": "9c35c17637f8bb85deb7e69f90ebfe89d818fdc26fc5d0041dfe53b82128f8e2", "blocktime": 1537870928, "version": 2, "confirmations": 11512, "time": 1537870928, "locktime": 542981, "vsize": 520, "size": 520}