{"hash": "d8bbfa5acc22702329d51ba452b05bb6131c1118fe4b776bbc9e0748faed3acc", "blockhash": "000000000000000000022b45ed06c6f4ccd3cf7fb5ba4856ebd2e58215665228", "vout": [{"scriptPubKey": {"reqSigs": 1, "hex": "a914b4642dfc4c99499b1e15479cc28277d65ab5b40a87", "addresses": ["3J8qZgAPSyPNhHWYAs4kaV5aKBK87UPZi8"], "asm": "OP_HASH160 b4642dfc4c99499b1e15479cc28277d65ab5b40a OP_EQUAL", "type": "scripthash"}, "value": 0.00843727, "n": 0}, {"scriptPubKey": {"reqSigs": 1, "hex": "a9141ae73725b392f4add99adca826cc474f4055f1f287", "addresses": ["349GUfFW1HXLzGW55i8Cq2EA8HQ1J9WYCY"], "asm": "OP_HASH160 1ae73725b392f4add99adca826cc474f4055f1f2 OP_EQUAL", "type": "scripthash"}, "value": 0.23146306, "n": 1}], "hex": "010000000001019c5f0e4c03e66cf223b7fdccfc24151b384b1a2cd0388155f776a46d4ef8c6c300000000232200204a5da083ca74ceb4c9517c82d23a513e16c1f0fdde6e52a7de834e5d09f21bd5ffffffff02cfdf0c000000000017a914b4642dfc4c99499b1e15479cc28277d65ab5b40a87422f61010000000017a9141ae73725b392f4add99adca826cc474f4055f1f2870400473044022018504a5313d4f03b10740686c267de21177ee53473c7a20b3c5508abf25f67a202206899a7f2e1cfbcd40aff6011b5030cb726968262f9b91ab3bbaa558288b1e1cd01483045022100940c7495c47cd476278f71de0c9d035a77a927842fd9cf9be975af71a4e7e3c3022052fa302bd79f57ce46148efbe02e1e6ca78ce7efc3b3a1de0b7a22e089c3831a0147522103b16d1d7e5168f18252eb7f9e1e85b823948edb36304e756f9f63a609d4a162722103f62b1d27158b53be9caeae920614d9c61c0d4e3ab8a2b8afbc8e020933c6e68352ae00000000", "vin": [{"txinwitness": ["", "3044022018504a5313d4f03b10740686c267de21177ee53473c7a20b3c5508abf25f67a202206899a7f2e1cfbcd40aff6011b5030cb726968262f9b91ab3bbaa558288b1e1cd01", "3045022100940c7495c47cd476278f71de0c9d035a77a927842fd9cf9be975af71a4e7e3c3022052fa302bd79f57ce46148efbe02e1e6ca78ce7efc3b3a1de0b7a22e089c3831a01", "522103b16d1d7e5168f18252eb7f9e1e85b823948edb36304e756f9f63a609d4a162722103f62b1d27158b53be9caeae920614d9c61c0d4e3ab8a2b8afbc8e020933c6e68352ae"], "sequence": 4294967295, "scriptSig": {"hex": "2200204a5da083ca74ceb4c9517c82d23a513e16c1f0fdde6e52a7de834e5d09f21bd5", "asm": "00204a5da083ca74ceb4c9517c82d23a513e16c1f0fdde6e52a7de834e5d09f21bd5"}, "vout": 0, "txid": "c3c6f84e6da476f7558138d02c1a4b381b1524fcccfdb723f26ce6034c0e5f9c"}], "txid": "9c3759342f3bd2e9703577a5fc689a5edd4dfbf611423069172ab867e692c41d", "blocktime": 1537869901, "version": 1, "confirmations": 11524, "time": 1537869901, "locktime": 0, "vsize": 206, "size": 371}