{"hash": "9c373e81e3c97fb9b21430abf3965ed0f498a2ca4b64b0efacd43fa36ec6db83", "blockhash": "0000000000000000000e13cef7c366c0283d82e591d1acd082e914b08063cdf1", "vout": [{"scriptPubKey": {"type": "nulldata", "hex": "6a146f6d6e69000000000000001f00000022d906f580", "asm": "OP_RETURN 6f6d6e69000000000000001f00000022d906f580"}, "value": 0.0, "n": 0}, {"scriptPubKey": {"reqSigs": 1, "hex": "76a91441e7f5565792dbd2613b843a7b4f50cd0607245888ac", "addresses": ["171UoDcysbUsu7FaQtbAgAjFc1HSoQxsZy"], "asm": "OP_DUP OP_HASH160 41e7f5565792dbd2613b843a7b4f50cd06072458 OP_EQUALVERIFY OP_CHECKSIG", "type": "pubkeyhash"}, "value": 0.00475142, "n": 1}, {"scriptPubKey": {"reqSigs": 1, "hex": "76a914a25dec4d0011064ef106a983c39c7a540699f22088ac", "addresses": ["1FoWyxwPXuj4C6abqwhjDWdz6D4PZgYRjA"], "asm": "OP_DUP OP_HASH160 a25dec4d0011064ef106a983c39c7a540699f220 OP_EQUALVERIFY OP_CHECKSIG", "type": "pubkeyhash"}, "value": 5.46e-06, "n": 2}], "hex": "01000000020a3f3c1bd4f7a0c93dc66f65f6cdcd273f3727137925b3c9a7d563325f9b0085020000006a47304402201424ff82ac6c4753db2032860b706739a084d449527017f80aac6b1cb78f49d102203771fec296d4789a10185655b498cca331272b70d89a3e111edef0661576ef76012102b8e0b414b5959447dca6ecae5892bde9ca24a2866ce7eac86cb13430d0ff9251feffffff9c457b6c25fc59cd340598f246f6b2987ddc745db7c52a26da5dd99e26488cfb010000006b483045022100ab30da06fdb88c0f671b7e56734ad2f8abf2c500748f1f21294512aaf6638b17022035ffe0149a066a082e3e9f12f7e0d7ec5000b73bb9b8e858be9dca119ae9ff37012102b8e0b414b5959447dca6ecae5892bde9ca24a2866ce7eac86cb13430d0ff9251feffffff030000000000000000166a146f6d6e69000000000000001f00000022d906f58006400700000000001976a91441e7f5565792dbd2613b843a7b4f50cd0607245888ac22020000000000001976a914a25dec4d0011064ef106a983c39c7a540699f22088acdd480800", "vin": [{"sequence": 4294967294, "scriptSig": {"hex": "47304402201424ff82ac6c4753db2032860b706739a084d449527017f80aac6b1cb78f49d102203771fec296d4789a10185655b498cca331272b70d89a3e111edef0661576ef76012102b8e0b414b5959447dca6ecae5892bde9ca24a2866ce7eac86cb13430d0ff9251", "asm": "304402201424ff82ac6c4753db2032860b706739a084d449527017f80aac6b1cb78f49d102203771fec296d4789a10185655b498cca331272b70d89a3e111edef0661576ef76[ALL] 02b8e0b414b5959447dca6ecae5892bde9ca24a2866ce7eac86cb13430d0ff9251"}, "vout": 2, "txid": "85009b5f3263d5a7c9b325791327373f27cdcdf6656fc63dc9a0f7d41b3c3f0a"}, {"sequence": 4294967294, "scriptSig": {"hex": "483045022100ab30da06fdb88c0f671b7e56734ad2f8abf2c500748f1f21294512aaf6638b17022035ffe0149a066a082e3e9f12f7e0d7ec5000b73bb9b8e858be9dca119ae9ff37012102b8e0b414b5959447dca6ecae5892bde9ca24a2866ce7eac86cb13430d0ff9251", "asm": "3045022100ab30da06fdb88c0f671b7e56734ad2f8abf2c500748f1f21294512aaf6638b17022035ffe0149a066a082e3e9f12f7e0d7ec5000b73bb9b8e858be9dca119ae9ff37[ALL] 02b8e0b414b5959447dca6ecae5892bde9ca24a2866ce7eac86cb13430d0ff9251"}, "vout": 1, "txid": "fb8c48269ed95dda262ac5b75d74dc7d98b2f646f2980534cd59fc256c7b459c"}], "txid": "9c373e81e3c97fb9b21430abf3965ed0f498a2ca4b64b0efacd43fa36ec6db83", "blocktime": 1537871767, "version": 1, "confirmations": 11495, "time": 1537871767, "locktime": 542941, "vsize": 404, "size": 404}