{"hash": "9c3aa2ef4d44ef4cdcbd200ab4cc23d3bc0d9c1516f0d216c7df386980efe488", "blockhash": "0000000000000000001cda96e906b7601b7a6fb1a3b62bca570a9e5d8f4b3de1", "vout": [{"scriptPubKey": {"reqSigs": 1, "hex": "76a914aba929b5d2225d81d2894d9ca4d0082ad52e4ad088ac", "addresses": ["1GefCT53ChrNKSJUsMpN9s23pvujc4qsCG"], "asm": "OP_DUP OP_HASH160 aba929b5d2225d81d2894d9ca4d0082ad52e4ad0 OP_EQUALVERIFY OP_CHECKSIG", "type": "pubkeyhash"}, "value": 0.2, "n": 0}, {"scriptPubKey": {"reqSigs": 1, "hex": "76a9149b08730e03d0e32c8ff1922ee5219f1d6423917088ac", "addresses": ["1F8jrp1oihrutrHTnodBzuumsbSvz3SLfH"], "asm": "OP_DUP OP_HASH160 9b08730e03d0e32c8ff1922ee5219f1d64239170 OP_EQUALVERIFY OP_CHECKSIG", "type": "pubkeyhash"}, "value": 0.27955913, "n": 1}], "hex": "0100000001f51a481d1bea9f4e858c0bedcdad76406c6ccdc60ead5307debe6aca6daccf9a010000006a473044022047d2fdcf3ccd10cb995149893f8d5f7c53378b351b64a786825fc169c6a504b602206ab5a74742c12a26069b5035b617fd0215d049ae825f99a3904865ce7f9a136b012103fe7950ae079c8731fee54c75f282b008e207777e8ce5dab22ae5815c9bb2c5efffffffff02002d3101000000001976a914aba929b5d2225d81d2894d9ca4d0082ad52e4ad088acc992aa01000000001976a9149b08730e03d0e32c8ff1922ee5219f1d6423917088ac00000000", "vin": [{"sequence": 4294967295, "scriptSig": {"hex": "473044022047d2fdcf3ccd10cb995149893f8d5f7c53378b351b64a786825fc169c6a504b602206ab5a74742c12a26069b5035b617fd0215d049ae825f99a3904865ce7f9a136b012103fe7950ae079c8731fee54c75f282b008e207777e8ce5dab22ae5815c9bb2c5ef", "asm": "3044022047d2fdcf3ccd10cb995149893f8d5f7c53378b351b64a786825fc169c6a504b602206ab5a74742c12a26069b5035b617fd0215d049ae825f99a3904865ce7f9a136b[ALL] 03fe7950ae079c8731fee54c75f282b008e207777e8ce5dab22ae5815c9bb2c5ef"}, "vout": 1, "txid": "9acfac6dca6abede0753ad0ec6cd6c6c4076adcded0b8c854e9fea1b1d481af5"}], "txid": "9c3aa2ef4d44ef4cdcbd200ab4cc23d3bc0d9c1516f0d216c7df386980efe488", "blocktime": 1537873282, "version": 1, "confirmations": 11484, "time": 1537873282, "locktime": 0, "vsize": 225, "size": 225}