{"hash": "6c5b3613db74dbd2f72a8af958f775d0071670ccbf9ecf7ea4069cc748529ed5", "blockhash": "0000000000000000001cda96e906b7601b7a6fb1a3b62bca570a9e5d8f4b3de1", "vout": [{"scriptPubKey": {"reqSigs": 1, "hex": "a91453b1d132778c220f819ed9ddf75439db04afe35887", "addresses": ["39KZ2RJ5QuzCFVBDPsvcUV7FUuQPgftVW8"], "asm": "OP_HASH160 53b1d132778c220f819ed9ddf75439db04afe358 OP_EQUAL", "type": "scripthash"}, "value": 0.01859882, "n": 0}, {"scriptPubKey": {"reqSigs": 1, "hex": "a91481a07c52791c2ed8bef1075feae93055de2f964587", "addresses": ["3DWRM2XfoQKXzBtoxF7bFwXvPm77zr1f5W"], "asm": "OP_HASH160 81a07c52791c2ed8bef1075feae93055de2f9645 OP_EQUAL", "type": "scripthash"}, "value": 0.01789764, "n": 1}], "hex": "0200000000010155616a7127fa1ab439321918f78b6ba9d436e98671c0e26c9e5680d7292c0c31000000001716001410e8186d7b90a4075edab5ce39fe7771873e6637feffffff022a611c000000000017a91453b1d132778c220f819ed9ddf75439db04afe35887444f1b000000000017a91481a07c52791c2ed8bef1075feae93055de2f9645870247304402204669a14216796a43683a5a68e6393755adbb8250d8cd034dea6f0c7a8024aace0220261889b66d0fe0a497bf488c941b812ff2bafd0d95d6e2d62ca5dc061591c3e2012102638e37bdab37148fd636d6ce2936c665a0371d8557eb9fc2e5c26c51a7dc946c13490800", "vin": [{"txinwitness": ["304402204669a14216796a43683a5a68e6393755adbb8250d8cd034dea6f0c7a8024aace0220261889b66d0fe0a497bf488c941b812ff2bafd0d95d6e2d62ca5dc061591c3e201", "02638e37bdab37148fd636d6ce2936c665a0371d8557eb9fc2e5c26c51a7dc946c"], "sequence": 4294967294, "scriptSig": {"hex": "16001410e8186d7b90a4075edab5ce39fe7771873e6637", "asm": "001410e8186d7b90a4075edab5ce39fe7771873e6637"}, "vout": 0, "txid": "310c2c29d780569e6ce2c07186e936d4a96b8bf718193239b41afa27716a6155"}], "txid": "9c3ca541d19d3b483aacaef9c2d9d920d54fd3c72a6c07736e55981a2675f92b", "blocktime": 1537873282, "version": 2, "confirmations": 11484, "time": 1537873282, "locktime": 542995, "vsize": 166, "size": 247}