{"hash": "9c41717cd286bd6bfa42a2f097670bf25b7d5049ad71ffa00085b4393124f4c0", "blockhash": "0000000000000000001e0dab787dd257d1dbfcb92a98c2207d5e1078be1f4165", "vout": [{"scriptPubKey": {"reqSigs": 1, "hex": "76a9140bbf80c26364a558302337f3316c3b37547f828788ac", "addresses": ["1257qyEMseBB8omd489Tpp2etKkXD4eSbX"], "asm": "OP_DUP OP_HASH160 0bbf80c26364a558302337f3316c3b37547f8287 OP_EQUALVERIFY OP_CHECKSIG", "type": "pubkeyhash"}, "value": 0.00187, "n": 0}, {"scriptPubKey": {"reqSigs": 1, "hex": "a914e8a85a19ab821a92d14c69f687494df908a5464a87", "addresses": ["3NuCNM6RSqvGofcG8Q4w3kXaoZT6J6qs2r"], "asm": "OP_HASH160 e8a85a19ab821a92d14c69f687494df908a5464a OP_EQUAL", "type": "scripthash"}, "value": 0.12272709, "n": 1}], "hex": "01000000017848f61b47b2b1e134974f7ea585c304c352c158d07384014ec67e3072ed22fb01000000fdfd000047304402204e547380de9767c0cf08ba6c5b07979a88e5256c1babcc97041d90104535eed20220309edf3bb5072de16baa96e137bb7ff9b1eee3c99e570cce2c66b5485286b77e01483045022100b320bdb182b3947383159b945d3d531469b03d81ba2b3d36dd110bc259fc67d002202d47a5ed24fa88ee701709597fabed2d0f23a092a7c8607fd8f7e6a5ca4ece56014c695221030d5f84470363bb8feb6ef1b848475152b3fb7268a93d02e52fe8c2916d91419e2102777eef2bb169eafe8309a44ac7d58ceb0e250b2b33ca4627af3dc42713fcdb6f2103b071dab814b2260dd10e710e8840dc43013bbb4d3d78e125f9a6d4aacac999df53aeffffffff0278da0200000000001976a9140bbf80c26364a558302337f3316c3b37547f828788ac4544bb000000000017a914e8a85a19ab821a92d14c69f687494df908a5464a8700000000", "vin": [{"sequence": 4294967295, "scriptSig": {"hex": "0047304402204e547380de9767c0cf08ba6c5b07979a88e5256c1babcc97041d90104535eed20220309edf3bb5072de16baa96e137bb7ff9b1eee3c99e570cce2c66b5485286b77e01483045022100b320bdb182b3947383159b945d3d531469b03d81ba2b3d36dd110bc259fc67d002202d47a5ed24fa88ee701709597fabed2d0f23a092a7c8607fd8f7e6a5ca4ece56014c695221030d5f84470363bb8feb6ef1b848475152b3fb7268a93d02e52fe8c2916d91419e2102777eef2bb169eafe8309a44ac7d58ceb0e250b2b33ca4627af3dc42713fcdb6f2103b071dab814b2260dd10e710e8840dc43013bbb4d3d78e125f9a6d4aacac999df53ae", "asm": "0 304402204e547380de9767c0cf08ba6c5b07979a88e5256c1babcc97041d90104535eed20220309edf3bb5072de16baa96e137bb7ff9b1eee3c99e570cce2c66b5485286b77e[ALL] 3045022100b320bdb182b3947383159b945d3d531469b03d81ba2b3d36dd110bc259fc67d002202d47a5ed24fa88ee701709597fabed2d0f23a092a7c8607fd8f7e6a5ca4ece56[ALL] 5221030d5f84470363bb8feb6ef1b848475152b3fb7268a93d02e52fe8c2916d91419e2102777eef2bb169eafe8309a44ac7d58ceb0e250b2b33ca4627af3dc42713fcdb6f2103b071dab814b2260dd10e710e8840dc43013bbb4d3d78e125f9a6d4aacac999df53ae"}, "vout": 1, "txid": "fb22ed72307ec64e018473d058c152c304c385a57e4f9734e1b1b2471bf64878"}], "txid": "9c41717cd286bd6bfa42a2f097670bf25b7d5049ad71ffa00085b4393124f4c0", "blocktime": 1537872475, "version": 1, "confirmations": 11486, "time": 1537872475, "locktime": 0, "vsize": 372, "size": 372}