{"hash": "9c4283eb99d7d818bd6fbda1e4a909319810c1869355c34de3731f6e48a580ac", "blockhash": "0000000000000000001cda96e906b7601b7a6fb1a3b62bca570a9e5d8f4b3de1", "vout": [{"scriptPubKey": {"reqSigs": 1, "hex": "a914cc321266d7cf4705d04313612454250ec53871b687", "addresses": ["3LJhkjSNRN7dtAE7tRPRw1gQEoFGQrVCPy"], "asm": "OP_HASH160 cc321266d7cf4705d04313612454250ec53871b6 OP_EQUAL", "type": "scripthash"}, "value": 0.07107321, "n": 0}, {"scriptPubKey": {"reqSigs": 1, "hex": "76a91486421daa918aadeab4cf287f8871890cbe59f28e88ac", "addresses": ["1DEtkX1czkvsmtiD1nsLvSvVQS1y3AcBza"], "asm": "OP_DUP OP_HASH160 86421daa918aadeab4cf287f8871890cbe59f28e OP_EQUALVERIFY OP_CHECKSIG", "type": "pubkeyhash"}, "value": 0.32030208, "n": 1}], "hex": "01000000027dd0c2b7dd04b74f4d51f58f839002f9e0d549292a15610779d422cadc94497e000000006b483045022100fba821e9971d17cb008136497ffcc4ee396665a79fa7bcf65fd5e56a55783b4f0220353c1f996756ce44122e4a6c66a13b6111464f3fc30d809f3ea53ed369b9a80e012102ca8a1e538e87dad6b665a555c01f7985561c6befbcac6e53e006790002402135ffffffffe836e0cda6776d8ba0b10f536050c9ed79597843d9bff587524dcf500a74b4dc000000006a473044022100f4dd6a4a600f9b5b3b58b13ae960621403f212e18a4e01f34f59de6e22de0dbf021f2c3d4556c38c0bde95c319b15cdae648441d37eba4fbf7773e323ffc83c748012102deb5b2b501511432cc5f51564157f23ee83623316801b8bfff9612deaafe366effffffff02f9726c000000000017a914cc321266d7cf4705d04313612454250ec53871b68700bee801000000001976a91486421daa918aadeab4cf287f8871890cbe59f28e88ac00000000", "vin": [{"sequence": 4294967295, "scriptSig": {"hex": "483045022100fba821e9971d17cb008136497ffcc4ee396665a79fa7bcf65fd5e56a55783b4f0220353c1f996756ce44122e4a6c66a13b6111464f3fc30d809f3ea53ed369b9a80e012102ca8a1e538e87dad6b665a555c01f7985561c6befbcac6e53e006790002402135", "asm": "3045022100fba821e9971d17cb008136497ffcc4ee396665a79fa7bcf65fd5e56a55783b4f0220353c1f996756ce44122e4a6c66a13b6111464f3fc30d809f3ea53ed369b9a80e[ALL] 02ca8a1e538e87dad6b665a555c01f7985561c6befbcac6e53e006790002402135"}, "vout": 0, "txid": "7e4994dcca22d4790761152a2949d5e0f90290838ff5514d4fb704ddb7c2d07d"}, {"sequence": 4294967295, "scriptSig": {"hex": "473044022100f4dd6a4a600f9b5b3b58b13ae960621403f212e18a4e01f34f59de6e22de0dbf021f2c3d4556c38c0bde95c319b15cdae648441d37eba4fbf7773e323ffc83c748012102deb5b2b501511432cc5f51564157f23ee83623316801b8bfff9612deaafe366e", "asm": "3044022100f4dd6a4a600f9b5b3b58b13ae960621403f212e18a4e01f34f59de6e22de0dbf021f2c3d4556c38c0bde95c319b15cdae648441d37eba4fbf7773e323ffc83c748[ALL] 02deb5b2b501511432cc5f51564157f23ee83623316801b8bfff9612deaafe366e"}, "vout": 0, "txid": "dcb4740a50cf4d5287f5bfd943785979edc95060530fb1a08b6d77a6cde036e8"}], "txid": "9c4283eb99d7d818bd6fbda1e4a909319810c1869355c34de3731f6e48a580ac", "blocktime": 1537873282, "version": 1, "confirmations": 11480, "time": 1537873282, "locktime": 0, "vsize": 371, "size": 371}