{"hash": "9c4395132b730080a50de5a2d7cb7bf8acd9e3fa0e8ac305667a00bdd45b579e", "blockhash": "0000000000000000000e13cef7c366c0283d82e591d1acd082e914b08063cdf1", "vout": [{"scriptPubKey": {"reqSigs": 1, "hex": "76a914b117ea26d8aab74d8f18712a046e042842cc9c2b88ac", "addresses": ["1H9PFaFndJedYVptmf57FD3FmzHgmBoCN2"], "asm": "OP_DUP OP_HASH160 b117ea26d8aab74d8f18712a046e042842cc9c2b OP_EQUALVERIFY OP_CHECKSIG", "type": "pubkeyhash"}, "value": 0.00012498, "n": 0}, {"scriptPubKey": {"reqSigs": 1, "hex": "76a91469b4a913b3fa2ea4235638e3fae7d153d0b0781488ac", "addresses": ["1AdvNekHmDd46m2N752pJ3GNRiJu5UuXec"], "asm": "OP_DUP OP_HASH160 69b4a913b3fa2ea4235638e3fae7d153d0b07814 OP_EQUALVERIFY OP_CHECKSIG", "type": "pubkeyhash"}, "value": 0.00132317, "n": 1}], "hex": "010000000143fb65b3a2709321e42c2d9e0b3923a78cfe469291b898f0ded3b25b0de550ec000000006a4730440220146105bb8d9fc8dfc5457a17920cc77228eeb4466b7c6cd4cce5a45e68d5e011022077703802fe7e1eda7c15fa536f04e4ae9e7f10fd948530d0a3ed74276b41c71401210359c34f1c8a0fc68e90d235e041d9f055e4719c0c9fe5b4e4e1ca3452984c6fe7ffffffff02d2300000000000001976a914b117ea26d8aab74d8f18712a046e042842cc9c2b88acdd040200000000001976a91469b4a913b3fa2ea4235638e3fae7d153d0b0781488ac00000000", "vin": [{"sequence": 4294967295, "scriptSig": {"hex": "4730440220146105bb8d9fc8dfc5457a17920cc77228eeb4466b7c6cd4cce5a45e68d5e011022077703802fe7e1eda7c15fa536f04e4ae9e7f10fd948530d0a3ed74276b41c71401210359c34f1c8a0fc68e90d235e041d9f055e4719c0c9fe5b4e4e1ca3452984c6fe7", "asm": "30440220146105bb8d9fc8dfc5457a17920cc77228eeb4466b7c6cd4cce5a45e68d5e011022077703802fe7e1eda7c15fa536f04e4ae9e7f10fd948530d0a3ed74276b41c714[ALL] 0359c34f1c8a0fc68e90d235e041d9f055e4719c0c9fe5b4e4e1ca3452984c6fe7"}, "vout": 0, "txid": "ec50e50d5bb2d3def098b8919246fe8ca723390b9e2d2ce4219370a2b365fb43"}], "txid": "9c4395132b730080a50de5a2d7cb7bf8acd9e3fa0e8ac305667a00bdd45b579e", "blocktime": 1537871767, "version": 1, "confirmations": 11492, "time": 1537871767, "locktime": 0, "vsize": 225, "size": 225}