{"hash": "9c440fb4eca2ad0d9351e4f5dfb1762c6919c31038b1f94e92fbdc0801318b21", "blockhash": "0000000000000000001cda96e906b7601b7a6fb1a3b62bca570a9e5d8f4b3de1", "vout": [{"scriptPubKey": {"reqSigs": 1, "hex": "76a914f4905ede81398bbc41869d0f0208144ccd9e93a188ac", "addresses": ["1PJ8prLHh8M7Ec7QSPaPj4thPCZ83nX4Zj"], "asm": "OP_DUP OP_HASH160 f4905ede81398bbc41869d0f0208144ccd9e93a1 OP_EQUALVERIFY OP_CHECKSIG", "type": "pubkeyhash"}, "value": 0.00232, "n": 0}, {"scriptPubKey": {"reqSigs": 1, "hex": "76a9146ae59bb8cc77573e398b09eaaa6b89fb32dc247788ac", "addresses": ["1AkDgoG7besmnupP35pvt4MiWyXpT9amxy"], "asm": "OP_DUP OP_HASH160 6ae59bb8cc77573e398b09eaaa6b89fb32dc2477 OP_EQUALVERIFY OP_CHECKSIG", "type": "pubkeyhash"}, "value": 0.01529899, "n": 1}], "hex": "0100000001f1272799ca64c66d4e051f63e2db2e15a1f8edde1030c77100af8217a47a21d4000000006b483045022100ff748e9582b3261d79217dcd7e4b42a70b685ed622ac270e413ba0779035987502205af53b42722bc51796a2425f762e963a859bd76878fcc9386ad79a8139e1e215012103db561b8efbaa7b53894a31386ae8c17f8db2d1824fcb44c52e990ea0fc07a25dffffffff02408a0300000000001976a914f4905ede81398bbc41869d0f0208144ccd9e93a188ac2b581700000000001976a9146ae59bb8cc77573e398b09eaaa6b89fb32dc247788ac00000000", "vin": [{"sequence": 4294967295, "scriptSig": {"hex": "483045022100ff748e9582b3261d79217dcd7e4b42a70b685ed622ac270e413ba0779035987502205af53b42722bc51796a2425f762e963a859bd76878fcc9386ad79a8139e1e215012103db561b8efbaa7b53894a31386ae8c17f8db2d1824fcb44c52e990ea0fc07a25d", "asm": "3045022100ff748e9582b3261d79217dcd7e4b42a70b685ed622ac270e413ba0779035987502205af53b42722bc51796a2425f762e963a859bd76878fcc9386ad79a8139e1e215[ALL] 03db561b8efbaa7b53894a31386ae8c17f8db2d1824fcb44c52e990ea0fc07a25d"}, "vout": 0, "txid": "d4217aa41782af0071c73010deedf8a1152edbe2631f054e6dc664ca992727f1"}], "txid": "9c440fb4eca2ad0d9351e4f5dfb1762c6919c31038b1f94e92fbdc0801318b21", "blocktime": 1537873282, "version": 1, "confirmations": 11482, "time": 1537873282, "locktime": 0, "vsize": 226, "size": 226}