{"hash": "9c543cae1a0de66c8c652ed601f74f4a44b9f756c022af01dec1f2c66f58599e", "blockhash": "00000000000000000004ffacab907a6b429b9a5745fa0b75af4234bf69dd7176", "vout": [{"scriptPubKey": {"reqSigs": 1, "hex": "76a9148021d02f32237b6d05877a80515606fd3454909d88ac", "addresses": ["1CgVzwQVS7wfA92y7PweAp6AV4KjFSnfLG"], "asm": "OP_DUP OP_HASH160 8021d02f32237b6d05877a80515606fd3454909d OP_EQUALVERIFY OP_CHECKSIG", "type": "pubkeyhash"}, "value": 0.00243658, "n": 0}, {"scriptPubKey": {"reqSigs": 1, "hex": "a91481734f5758f6954c31c19b252487a45d8071c02e87", "addresses": ["3DVVEAU4YhGRipwNPHSEryz3uNvNaHE4kR"], "asm": "OP_HASH160 81734f5758f6954c31c19b252487a45d8071c02e OP_EQUAL", "type": "scripthash"}, "value": 0.0051056, "n": 1}], "hex": "0100000001681b5cf4212bfde5792fd58a52ba8b3d56af828e59badc3bcd6735e0b819de70010000006b483045022100b9d2883d5862a85d2a4ebc5832d0abd72bbf1b9bfd0aa13a6e60cb951440537102202f4d183aaed29f7980b61f1adb88a120c8a16598546eaf18c0c607983f0f7687012103a7dac43ad2b203a273b3e5d36d9c95451f8f675cfd575bd1675cf7f140ceab0cffffffff02cab70300000000001976a9148021d02f32237b6d05877a80515606fd3454909d88ac60ca07000000000017a91481734f5758f6954c31c19b252487a45d8071c02e8700000000", "vin": [{"sequence": 4294967295, "scriptSig": {"hex": "483045022100b9d2883d5862a85d2a4ebc5832d0abd72bbf1b9bfd0aa13a6e60cb951440537102202f4d183aaed29f7980b61f1adb88a120c8a16598546eaf18c0c607983f0f7687012103a7dac43ad2b203a273b3e5d36d9c95451f8f675cfd575bd1675cf7f140ceab0c", "asm": "3045022100b9d2883d5862a85d2a4ebc5832d0abd72bbf1b9bfd0aa13a6e60cb951440537102202f4d183aaed29f7980b61f1adb88a120c8a16598546eaf18c0c607983f0f7687[ALL] 03a7dac43ad2b203a273b3e5d36d9c95451f8f675cfd575bd1675cf7f140ceab0c"}, "vout": 1, "txid": "70de19b8e03567cd3bdcba598e82af563d8bba528ad52f79e5fd2b21f45c1b68"}], "txid": "9c543cae1a0de66c8c652ed601f74f4a44b9f756c022af01dec1f2c66f58599e", "blocktime": 1537875543, "version": 1, "confirmations": 11464, "time": 1537875543, "locktime": 0, "vsize": 224, "size": 224}