{"hash": "9c567011bc8d4f6fd597fffaa91a74a9a153480d21d067924f13e1e6fcbd2a36", "blockhash": "0000000000000000000e13cef7c366c0283d82e591d1acd082e914b08063cdf1", "vout": [{"scriptPubKey": {"reqSigs": 1, "hex": "76a9140b557995dc578e7356edfdf1f7f6cc85244fe7ca88ac", "addresses": ["122vq1mhJupSKYVBP1ejJNcGaFsVDUEiA4"], "asm": "OP_DUP OP_HASH160 0b557995dc578e7356edfdf1f7f6cc85244fe7ca OP_EQUALVERIFY OP_CHECKSIG", "type": "pubkeyhash"}, "value": 0.00087851, "n": 0}, {"scriptPubKey": {"reqSigs": 1, "hex": "76a914a9f32e341cf3ce120610057eeab6073cc66d63ed88ac", "addresses": ["1GVcWtwSQ8fEY7kuUU3qX3CM4vw87y3wT6"], "asm": "OP_DUP OP_HASH160 a9f32e341cf3ce120610057eeab6073cc66d63ed OP_EQUALVERIFY OP_CHECKSIG", "type": "pubkeyhash"}, "value": 0.04686921, "n": 1}], "hex": "01000000072715cf7412f364a3b4dd910aa62362681774604b6d6449183fd37377ee679209000000006b4830450221009be1b2b07d13a8f24f3d31b1b150667931d3c8d5432b3b9e1be80eccdb3e43880220403caa4b3b3a2dd99b46693cdd68d4ff40ade3651ea919e6acbf77921a55c909012102d9b8ed3f5898c19d50808dc21ff19def28bffb389b1c8a172b334495338b51b2ffffffffe3b418b38d95cb96e5efb450f1b9e05b886648e66231d43ab829b0264277bc1b000000006b483045022100f31bfb2149427f195606830fe60999075c110e298a85b51d8dbc3cadd673b8d002207f4f9e5f7938f82a0c64620be0a39c0dee60ea6c900dfafbb52f53daecfc60200121029833819653e2f04e2b6003ecdbf8034626d0f65afa07fd256daa176fbab0941effffffff66bd164c7ca7c7b8f5c1683ef7421e910c35962d63ad8356ef10d017a34bac66000000006a473044022003c3084a1ad30e5922ac6e644d67dd4e7d672b5cc80492e6c2258b70a9fc342a0220544a9599e6ed4ba16bedb5d02a889a8538aa2d3d1b158836f629893eec478e05012102d9b8ed3f5898c19d50808dc21ff19def28bffb389b1c8a172b334495338b51b2ffffffff4f5d33c758281283b73a1b87c6eaedcf6dffa670354d3d38d0fd798895d2ebc3000000006a4730440220440bbf87dd953a4f4c03efb1082e8df660b7717cbb1afae94c36ff2073a50cf402207006ae4e89c628643eef9f7cd23d3297e14c3308a976a0014755a2492b9c4220012102d9b8ed3f5898c19d50808dc21ff19def28bffb389b1c8a172b334495338b51b2ffffffff0b43f564572185e50d314c7a1ee2a18663a14168acb5d2fcf2064870d6f8c7c9000000006a4730440220390178e17cacf09e9132ba9fc8fbaa8d1e08541c2b5649624088892786da1b640220373e3b1b5204fb19abf42500d4efad07e203c46880102e45a2a16ee2fb4d0ab2012102d9b8ed3f5898c19d50808dc21ff19def28bffb389b1c8a172b334495338b51b2ffffffff7e374ded79f83562c88023c4f9e2acb575cd23dc4a4f385f5e4ca0da23475fe5000000006a47304402204f84119bc7afcdbd869478eb21a16e75063b27e6438f336ecb974b41a715be4e02203888fde2701682d5efa6525a822e7b1856a2693ec66acfb4c9929b8597ebdfb5012102d9b8ed3f5898c19d50808dc21ff19def28bffb389b1c8a172b334495338b51b2ffffffffe3a59d001082f474e32487c9a62b39ee76a408c8ff7fe874fc3dd47e308a49ea010000006b483045022100b9261ee03c2af3d0bc1dd979b1a22467e6be02e4fedd29581b7da429c1f596f8022073475e3d183dc4aeda43141c486acf1c01f3a1467466b3ff670be706d330d42d012102babc9ced52f6c8938cee30b3d01cf1b5d9d70ea9d1fc479cb792c367160f80c3ffffffff022b570100000000001976a9140b557995dc578e7356edfdf1f7f6cc85244fe7ca88ac49844700000000001976a914a9f32e341cf3ce120610057eeab6073cc66d63ed88ac00000000", "vin": [{"sequence": 4294967295, "scriptSig": {"hex": "4830450221009be1b2b07d13a8f24f3d31b1b150667931d3c8d5432b3b9e1be80eccdb3e43880220403caa4b3b3a2dd99b46693cdd68d4ff40ade3651ea919e6acbf77921a55c909012102d9b8ed3f5898c19d50808dc21ff19def28bffb389b1c8a172b334495338b51b2", "asm": "30450221009be1b2b07d13a8f24f3d31b1b150667931d3c8d5432b3b9e1be80eccdb3e43880220403caa4b3b3a2dd99b46693cdd68d4ff40ade3651ea919e6acbf77921a55c909[ALL] 02d9b8ed3f5898c19d50808dc21ff19def28bffb389b1c8a172b334495338b51b2"}, "vout": 0, "txid": "099267ee7773d33f1849646d4b607417686223a60a91ddb4a364f31274cf1527"}, {"sequence": 4294967295, "scriptSig": {"hex": "483045022100f31bfb2149427f195606830fe60999075c110e298a85b51d8dbc3cadd673b8d002207f4f9e5f7938f82a0c64620be0a39c0dee60ea6c900dfafbb52f53daecfc60200121029833819653e2f04e2b6003ecdbf8034626d0f65afa07fd256daa176fbab0941e", "asm": "3045022100f31bfb2149427f195606830fe60999075c110e298a85b51d8dbc3cadd673b8d002207f4f9e5f7938f82a0c64620be0a39c0dee60ea6c900dfafbb52f53daecfc6020[ALL] 029833819653e2f04e2b6003ecdbf8034626d0f65afa07fd256daa176fbab0941e"}, "vout": 0, "txid": "1bbc774226b029b83ad43162e64866885be0b9f150b4efe596cb958db318b4e3"}, {"sequence": 4294967295, "scriptSig": {"hex": "473044022003c3084a1ad30e5922ac6e644d67dd4e7d672b5cc80492e6c2258b70a9fc342a0220544a9599e6ed4ba16bedb5d02a889a8538aa2d3d1b158836f629893eec478e05012102d9b8ed3f5898c19d50808dc21ff19def28bffb389b1c8a172b334495338b51b2", "asm": "3044022003c3084a1ad30e5922ac6e644d67dd4e7d672b5cc80492e6c2258b70a9fc342a0220544a9599e6ed4ba16bedb5d02a889a8538aa2d3d1b158836f629893eec478e05[ALL] 02d9b8ed3f5898c19d50808dc21ff19def28bffb389b1c8a172b334495338b51b2"}, "vout": 0, "txid": "66ac4ba317d010ef5683ad632d96350c911e42f73e68c1f5b8c7a77c4c16bd66"}, {"sequence": 4294967295, "scriptSig": {"hex": "4730440220440bbf87dd953a4f4c03efb1082e8df660b7717cbb1afae94c36ff2073a50cf402207006ae4e89c628643eef9f7cd23d3297e14c3308a976a0014755a2492b9c4220012102d9b8ed3f5898c19d50808dc21ff19def28bffb389b1c8a172b334495338b51b2", "asm": "30440220440bbf87dd953a4f4c03efb1082e8df660b7717cbb1afae94c36ff2073a50cf402207006ae4e89c628643eef9f7cd23d3297e14c3308a976a0014755a2492b9c4220[ALL] 02d9b8ed3f5898c19d50808dc21ff19def28bffb389b1c8a172b334495338b51b2"}, "vout": 0, "txid": "c3ebd2958879fdd0383d4d3570a6ff6dcfedeac6871b3ab783122858c7335d4f"}, {"sequence": 4294967295, "scriptSig": {"hex": "4730440220390178e17cacf09e9132ba9fc8fbaa8d1e08541c2b5649624088892786da1b640220373e3b1b5204fb19abf42500d4efad07e203c46880102e45a2a16ee2fb4d0ab2012102d9b8ed3f5898c19d50808dc21ff19def28bffb389b1c8a172b334495338b51b2", "asm": "30440220390178e17cacf09e9132ba9fc8fbaa8d1e08541c2b5649624088892786da1b640220373e3b1b5204fb19abf42500d4efad07e203c46880102e45a2a16ee2fb4d0ab2[ALL] 02d9b8ed3f5898c19d50808dc21ff19def28bffb389b1c8a172b334495338b51b2"}, "vout": 0, "txid": "c9c7f8d6704806f2fcd2b5ac6841a16386a1e21e7a4c310de585215764f5430b"}, {"sequence": 4294967295, "scriptSig": {"hex": "47304402204f84119bc7afcdbd869478eb21a16e75063b27e6438f336ecb974b41a715be4e02203888fde2701682d5efa6525a822e7b1856a2693ec66acfb4c9929b8597ebdfb5012102d9b8ed3f5898c19d50808dc21ff19def28bffb389b1c8a172b334495338b51b2", "asm": "304402204f84119bc7afcdbd869478eb21a16e75063b27e6438f336ecb974b41a715be4e02203888fde2701682d5efa6525a822e7b1856a2693ec66acfb4c9929b8597ebdfb5[ALL] 02d9b8ed3f5898c19d50808dc21ff19def28bffb389b1c8a172b334495338b51b2"}, "vout": 0, "txid": "e55f4723daa04c5e5f384f4adc23cd75b5ace2f9c42380c86235f879ed4d377e"}, {"sequence": 4294967295, "scriptSig": {"hex": "483045022100b9261ee03c2af3d0bc1dd979b1a22467e6be02e4fedd29581b7da429c1f596f8022073475e3d183dc4aeda43141c486acf1c01f3a1467466b3ff670be706d330d42d012102babc9ced52f6c8938cee30b3d01cf1b5d9d70ea9d1fc479cb792c367160f80c3", "asm": "3045022100b9261ee03c2af3d0bc1dd979b1a22467e6be02e4fedd29581b7da429c1f596f8022073475e3d183dc4aeda43141c486acf1c01f3a1467466b3ff670be706d330d42d[ALL] 02babc9ced52f6c8938cee30b3d01cf1b5d9d70ea9d1fc479cb792c367160f80c3"}, "vout": 1, "txid": "ea498a307ed43dfc74e87fffc808a476ee392ba6c98724e374f48210009da5e3"}], "txid": "9c567011bc8d4f6fd597fffaa91a74a9a153480d21d067924f13e1e6fcbd2a36", "blocktime": 1537871767, "version": 1, "confirmations": 11495, "time": 1537871767, "locktime": 0, "vsize": 1110, "size": 1110}