{"hash": "3503e9c0aef6bd9274c7b71c868fe2c3167695f3675c0758b364f9291a060bd5", "blockhash": "0000000000000000000dcc0f55137456b1a82d3642486a52398922ac4d620174", "vout": [{"scriptPubKey": {"reqSigs": 1, "hex": "a91469f375657490266133ff3220aa56711453b5e4e687", "addresses": ["3BMEXV4RkmLeRHhaKFTn72nYDrfutQKnB6"], "asm": "OP_HASH160 69f375657490266133ff3220aa56711453b5e4e6 OP_EQUAL", "type": "scripthash"}, "value": 0.28, "n": 0}, {"scriptPubKey": {"reqSigs": 1, "hex": "0020701a8d401c84fb13e6baf169d59684e17abd9fa216c8cc5b9fc63d622ff8c58d", "addresses": ["bc1qwqdg6squsna38e46795at95yu9atm8azzmyvckulcc7kytlcckxswvvzej"], "asm": "0 701a8d401c84fb13e6baf169d59684e17abd9fa216c8cc5b9fc63d622ff8c58d", "type": "witness_v0_scripthash"}, "value": 0.2123, "n": 1}], "hex": "010000000001018cb087cc32a1437e9c2d80c885fde2575caa768c4ec30c9e876e68f544937e550100000000ffffffff02003fab010000000017a91469f375657490266133ff3220aa56711453b5e4e687b0f1430100000000220020701a8d401c84fb13e6baf169d59684e17abd9fa216c8cc5b9fc63d622ff8c58d0400483045022100984c80eedaa47ad888aade6c72ec0ba3e149d93f38173839cbc5c16a6e566f3a02201f8ead1cb7a74fd6134ab60e863b1ce52303687522b41f177d6e8a6b39d25ad60147304402200629af8b450d65fbb2bd35e85d91708b06b2b8efa7424d84d0ae2765b70ef701022076d760acfb30011c1624a252fd9b9ad171b2b98a15eb8067f493b394e6452f66016952210375e00eb72e29da82b89367947f29ef34afb75e8654f6ea368e0acdfd92976b7c2103a1b26313f430c4b15bb1fdce663207659d8cac749a0e53d70eff01874496feff2103c96d495bfdd5ba4145e3e046fee45e84a8a48ad05bd8dbb395c011a32cf9f88053ae00000000", "vin": [{"txinwitness": ["", "3045022100984c80eedaa47ad888aade6c72ec0ba3e149d93f38173839cbc5c16a6e566f3a02201f8ead1cb7a74fd6134ab60e863b1ce52303687522b41f177d6e8a6b39d25ad601", "304402200629af8b450d65fbb2bd35e85d91708b06b2b8efa7424d84d0ae2765b70ef701022076d760acfb30011c1624a252fd9b9ad171b2b98a15eb8067f493b394e6452f6601", "52210375e00eb72e29da82b89367947f29ef34afb75e8654f6ea368e0acdfd92976b7c2103a1b26313f430c4b15bb1fdce663207659d8cac749a0e53d70eff01874496feff2103c96d495bfdd5ba4145e3e046fee45e84a8a48ad05bd8dbb395c011a32cf9f88053ae"], "sequence": 4294967295, "scriptSig": {"hex": "", "asm": ""}, "vout": 1, "txid": "557e9344f5686e879e0cc34e8c76aa5c57e2fd85c8802d9c7e43a132cc87b08c"}], "txid": "9c587968ab720ffb366259f43c2c7b4b7607dff0c17449d308abd16fe155e041", "blocktime": 1537870268, "version": 1, "confirmations": 11516, "time": 1537870268, "locktime": 0, "vsize": 190, "size": 381}