{"hash": "cdc9f34a67eb1232c10724a58c3d2137c2bf3954228a15c9fc47141364ee1e64", "blockhash": "00000000000000000017f5eb5941039fbcee6240d03bc1f2f8e35350df66a1d8", "vout": [{"scriptPubKey": {"reqSigs": 1, "hex": "a9149ba5409d0d0a4d0d3dcaef3891b26fa9f5f2fd2b87", "addresses": ["3FszdDSQ5EzmevUnzjP9vWzHx8cnSx2QA7"], "asm": "OP_HASH160 9ba5409d0d0a4d0d3dcaef3891b26fa9f5f2fd2b OP_EQUAL", "type": "scripthash"}, "value": 0.14379651, "n": 0}, {"scriptPubKey": {"reqSigs": 1, "hex": "a914386bafaff77f1aff85961d41fff530982066235787", "addresses": ["36qLmTdxanbcJwCEKDZmCYGrZCUQ7N2AqN"], "asm": "OP_HASH160 386bafaff77f1aff85961d41fff5309820662357 OP_EQUAL", "type": "scripthash"}, "value": 0.14518948, "n": 1}, {"scriptPubKey": {"reqSigs": 1, "hex": "76a91492f138c91459f0c4d37b04ac66ea1e1dce3e0a3588ac", "addresses": ["1EPxdPo4F5Sd8SR3WzHG6S6smWEbZDzCN1"], "asm": "OP_DUP OP_HASH160 92f138c91459f0c4d37b04ac66ea1e1dce3e0a35 OP_EQUALVERIFY OP_CHECKSIG", "type": "pubkeyhash"}, "value": 0.01831, "n": 2}], "hex": "020000000001017ce22d56ad8b95f6abd3fcdff4595726d03eae4983ed98c6d2348d4721be22c1000000001716001420f7cda824ac92d836ed6768df01df6c19b8c0b0feffffff03836adb000000000017a9149ba5409d0d0a4d0d3dcaef3891b26fa9f5f2fd2b87a48add000000000017a914386bafaff77f1aff85961d41fff53098206623578758f01b00000000001976a91492f138c91459f0c4d37b04ac66ea1e1dce3e0a3588ac02473044022061e4d349da0cc7a5b323f0dfc91cdd181e82cf291bff7d9a1090c69024bb80a80220011983d6e5998953e1820b389e4633a4b73ed1276c1227ae92fecf9823b79862012102f29ae0dbd1a6abaf42c130b23487063cabb25103ee7262e58b0249e91b2cdc9115490800", "vin": [{"txinwitness": ["3044022061e4d349da0cc7a5b323f0dfc91cdd181e82cf291bff7d9a1090c69024bb80a80220011983d6e5998953e1820b389e4633a4b73ed1276c1227ae92fecf9823b7986201", "02f29ae0dbd1a6abaf42c130b23487063cabb25103ee7262e58b0249e91b2cdc91"], "sequence": 4294967294, "scriptSig": {"hex": "16001420f7cda824ac92d836ed6768df01df6c19b8c0b0", "asm": "001420f7cda824ac92d836ed6768df01df6c19b8c0b0"}, "vout": 0, "txid": "c122be21478d34d2c698ed8349ae3ed0265759f4dffcd3abf6958bad562de27c"}], "txid": "9c5cbaa7e6436f48802f91319c72f55982e99d8bdff7ce5edbe6e060c00e3875", "blocktime": 1537874412, "version": 2, "confirmations": 11466, "time": 1537874412, "locktime": 542997, "vsize": 200, "size": 281}