{"hash": "9c5de1e6bd178db48d494fa7602d66100fd06fea6e2df99f349faca89df11304", "blockhash": "0000000000000000000dcc0f55137456b1a82d3642486a52398922ac4d620174", "vout": [{"scriptPubKey": {"reqSigs": 1, "hex": "a914628908267754123796ffe9b67b8adbf9635bc15487", "addresses": ["3Ag2JUuynfi6SAhUw2As69xx1UynHFZzp6"], "asm": "OP_HASH160 628908267754123796ffe9b67b8adbf9635bc154 OP_EQUAL", "type": "scripthash"}, "value": 0.000708, "n": 0}, {"scriptPubKey": {"reqSigs": 1, "hex": "a914062b5509e2eca513bf4761665571b9bc56aa676187", "addresses": ["32FdtU52duxkwGGSRJ5NuLqYUi2qJfqot1"], "asm": "OP_HASH160 062b5509e2eca513bf4761665571b9bc56aa6761 OP_EQUAL", "type": "scripthash"}, "value": 0.5069139, "n": 1}], "hex": "010000000104e7a3ea71de9b1e0dea33b49f507cd3359fbcd46b14515908b8373673377a5001000000da00473044022047d6e675de6cc4d873a21ebe6be7019bceccee32f9ed39eeda9ab8adba61d24902203d7afa59d43b50c8f902a6a9259a76ed5c47a66b1f7b0399bdd9748fe7b479da01483045022100bf1a6bcd20704eb0348ac3f03b3ea84bb38086a9f146a6b82318244bc8fb390302204d6f898b6b13bf00810dfaa7fa23c33f1d235bd6f2d912374d43c24be2a620950147522103abc8a801f5fbb4fd5f6510ba530d534b0efb584b4298cea1e6e2d45cd1000aef2102a29577404fa42d6d12e0d867249d4ee805afecc9e10879ed668da9958dc7b65052aeffffffff02901401000000000017a914628908267754123796ffe9b67b8adbf9635bc154873e7d05030000000017a914062b5509e2eca513bf4761665571b9bc56aa67618700000000", "vin": [{"sequence": 4294967295, "scriptSig": {"hex": "00473044022047d6e675de6cc4d873a21ebe6be7019bceccee32f9ed39eeda9ab8adba61d24902203d7afa59d43b50c8f902a6a9259a76ed5c47a66b1f7b0399bdd9748fe7b479da01483045022100bf1a6bcd20704eb0348ac3f03b3ea84bb38086a9f146a6b82318244bc8fb390302204d6f898b6b13bf00810dfaa7fa23c33f1d235bd6f2d912374d43c24be2a620950147522103abc8a801f5fbb4fd5f6510ba530d534b0efb584b4298cea1e6e2d45cd1000aef2102a29577404fa42d6d12e0d867249d4ee805afecc9e10879ed668da9958dc7b65052ae", "asm": "0 3044022047d6e675de6cc4d873a21ebe6be7019bceccee32f9ed39eeda9ab8adba61d24902203d7afa59d43b50c8f902a6a9259a76ed5c47a66b1f7b0399bdd9748fe7b479da[ALL] 3045022100bf1a6bcd20704eb0348ac3f03b3ea84bb38086a9f146a6b82318244bc8fb390302204d6f898b6b13bf00810dfaa7fa23c33f1d235bd6f2d912374d43c24be2a62095[ALL] 522103abc8a801f5fbb4fd5f6510ba530d534b0efb584b4298cea1e6e2d45cd1000aef2102a29577404fa42d6d12e0d867249d4ee805afecc9e10879ed668da9958dc7b65052ae"}, "vout": 1, "txid": "507a37733637b8085951146bd4bc9f35d37c509fb433ea0d1e9bde71eaa3e704"}], "txid": "9c5de1e6bd178db48d494fa7602d66100fd06fea6e2df99f349faca89df11304", "blocktime": 1537870268, "version": 1, "confirmations": 11518, "time": 1537870268, "locktime": 0, "vsize": 333, "size": 333}