{"hash": "283b54a53e1273ad2af57759a34c6b427a08adce439f6fc577e18497d8845a5b", "blockhash": "0000000000000000000baef3f32e3676a92c3b2e5da21b426e4f302fc371ce76", "vout": [{"scriptPubKey": {"reqSigs": 1, "hex": "a9147266ecdf251439bd937b38d0654cb86a3bbcc9dc87", "addresses": ["3C7vFnZB1Ai2f8AwKgYrykasAtGZenDEsG"], "asm": "OP_HASH160 7266ecdf251439bd937b38d0654cb86a3bbcc9dc OP_EQUAL", "type": "scripthash"}, "value": 0.00163655, "n": 0}, {"scriptPubKey": {"reqSigs": 1, "hex": "a9140136c10502ae5684e49b302f1af10f145f74b6b787", "addresses": ["31oSC7GvQMTZoouyNLBEHVRDhXEFbVhSmh"], "asm": "OP_HASH160 0136c10502ae5684e49b302f1af10f145f74b6b7 OP_EQUAL", "type": "scripthash"}, "value": 0.02910917, "n": 1}], "hex": "0100000000010163a5e8110baf31750334c31d7d23b0708a5f170280364c96f059746d567fe7e10100000023220020efd02f10cc1074c68ec89b458572a71ce6bfc8a17595d8fde80232e47279444bffffffff02477f02000000000017a9147266ecdf251439bd937b38d0654cb86a3bbcc9dc87c56a2c000000000017a9140136c10502ae5684e49b302f1af10f145f74b6b787040047304402207e42627d33603b0c7f9287ef6bf96dd5865fe677348f7c2113ae7af46fe4d6de022011d53aa6f405bf5564bd35f565118557302119a06f33aec6e22712a21917c15c0147304402202f951cd1bf4afd745759d4fa893e2ec1ef8b313522b77880910879215725b6b402206fad3fcbb766e465295f3ef1db1993d1cba2492d3d8c47bdd293057e3fb857f20147522103f985ea61f461801f3abc09ebed98ce7e20804639a64616f639f492883ea4e8d62103871fc2ca08e6950b38867e8e6a0e94ee625223d3aa0df5c65f414c6d784467e252ae00000000", "vin": [{"txinwitness": ["", "304402207e42627d33603b0c7f9287ef6bf96dd5865fe677348f7c2113ae7af46fe4d6de022011d53aa6f405bf5564bd35f565118557302119a06f33aec6e22712a21917c15c01", "304402202f951cd1bf4afd745759d4fa893e2ec1ef8b313522b77880910879215725b6b402206fad3fcbb766e465295f3ef1db1993d1cba2492d3d8c47bdd293057e3fb857f201", "522103f985ea61f461801f3abc09ebed98ce7e20804639a64616f639f492883ea4e8d62103871fc2ca08e6950b38867e8e6a0e94ee625223d3aa0df5c65f414c6d784467e252ae"], "sequence": 4294967295, "scriptSig": {"hex": "220020efd02f10cc1074c68ec89b458572a71ce6bfc8a17595d8fde80232e47279444b", "asm": "0020efd02f10cc1074c68ec89b458572a71ce6bfc8a17595d8fde80232e47279444b"}, "vout": 1, "txid": "e1e77f566d7459f0964c368002175f8a70b0237d1dc334037531af0b11e8a563"}], "txid": "9c5e71a6f0d93e20b0663e8acf0b02ca37565dc45929bc4a73ebfaa984383de9", "blocktime": 1537876114, "version": 1, "confirmations": 11460, "time": 1537876114, "locktime": 0, "vsize": 205, "size": 370}