{"hash": "9c68b5bbed9ef139a986d0b0870854624bf8570100d7675a3cd86fcfb6eedd7a", "blockhash": "00000000000000000017f5eb5941039fbcee6240d03bc1f2f8e35350df66a1d8", "vout": [{"scriptPubKey": {"reqSigs": 1, "hex": "a914e4ce3afc236e6345b138fc3538a60c81fff9fb4287", "addresses": ["3NYq3RP5ARPdN5Ko5pz162kfHaxNqCRZMn"], "asm": "OP_HASH160 e4ce3afc236e6345b138fc3538a60c81fff9fb42 OP_EQUAL", "type": "scripthash"}, "value": 0.04768732, "n": 0}, {"scriptPubKey": {"reqSigs": 1, "hex": "76a9142449fb1a3af3a09753857f24fdfd9c6666b15f1e88ac", "addresses": ["14JsxBqMZBcpMHu5fsnVTvPeycYqu8TWa2"], "asm": "OP_DUP OP_HASH160 2449fb1a3af3a09753857f24fdfd9c6666b15f1e OP_EQUALVERIFY OP_CHECKSIG", "type": "pubkeyhash"}, "value": 1.94783683, "n": 1}], "hex": "01000000011a27f78c097b8ee482004fa3398630b34327f63c4fd74a7a964b5408c4b5081f010000006a47304402200e5e03b53dc3fb4bb34fd1d8963bbf23ef4a00ef0a42ba721cb7958e1f41da5302204bf79d46c14160c181137eed6a02d6f26a11ea25e4e2ae75efc0f467f095639c0121038da92c595dfaa70536f54e070e961791004019b76da6c2940c189f179e3563abffffffff02dcc348000000000017a914e4ce3afc236e6345b138fc3538a60c81fff9fb4287c3299c0b000000001976a9142449fb1a3af3a09753857f24fdfd9c6666b15f1e88ac00000000", "vin": [{"sequence": 4294967295, "scriptSig": {"hex": "47304402200e5e03b53dc3fb4bb34fd1d8963bbf23ef4a00ef0a42ba721cb7958e1f41da5302204bf79d46c14160c181137eed6a02d6f26a11ea25e4e2ae75efc0f467f095639c0121038da92c595dfaa70536f54e070e961791004019b76da6c2940c189f179e3563ab", "asm": "304402200e5e03b53dc3fb4bb34fd1d8963bbf23ef4a00ef0a42ba721cb7958e1f41da5302204bf79d46c14160c181137eed6a02d6f26a11ea25e4e2ae75efc0f467f095639c[ALL] 038da92c595dfaa70536f54e070e961791004019b76da6c2940c189f179e3563ab"}, "vout": 1, "txid": "1f08b5c408544b967a4ad74f3cf62743b3308639a34f0082e48e7b098cf7271a"}], "txid": "9c68b5bbed9ef139a986d0b0870854624bf8570100d7675a3cd86fcfb6eedd7a", "blocktime": 1537874412, "version": 1, "confirmations": 11468, "time": 1537874412, "locktime": 0, "vsize": 223, "size": 223}