{"hash": "9c69e4161274a3a047409ebc759ede2fcf79c6c2841645e41b05b56299deb42d", "blockhash": "00000000000000000004ffacab907a6b429b9a5745fa0b75af4234bf69dd7176", "vout": [{"scriptPubKey": {"reqSigs": 1, "hex": "76a914b50e604a9afdb56373d86b1d93ced18e3eca094488ac", "addresses": ["1HWLXbPZMvwvEDcn8kPJsYqcDGVwdw5jVQ"], "asm": "OP_DUP OP_HASH160 b50e604a9afdb56373d86b1d93ced18e3eca0944 OP_EQUALVERIFY OP_CHECKSIG", "type": "pubkeyhash"}, "value": 0.0156248, "n": 0}, {"scriptPubKey": {"reqSigs": 1, "hex": "76a914b55231061f3993fb10866eeb4dc3f49256aa688288ac", "addresses": ["1HXjmVEfEnEoKakM6zN68dVkvL3dniwSon"], "asm": "OP_DUP OP_HASH160 b55231061f3993fb10866eeb4dc3f49256aa6882 OP_EQUALVERIFY OP_CHECKSIG", "type": "pubkeyhash"}, "value": 0.01646991, "n": 1}], "hex": "010000000136eadf0ae9ebbdd0ba5f2ad08e25bf4392c0a9dad27d799184ab555c4bab0fe9000000006b483045022100aa9ccc0b8ada33b33ba65224f461880736e4f6fb7521649b7f146b08a4cac57802205b8e685eedee9a88ed4ef386972e3f3afa05b546aebe3beb7c7bdccfb8d9333f0121038fb9eb6aa17bccf02ed6d562b5d7cb9f0a4dd5a7ddbe0d06dd4a82db1aba9765ffffffff0270d71700000000001976a914b50e604a9afdb56373d86b1d93ced18e3eca094488ac8f211900000000001976a914b55231061f3993fb10866eeb4dc3f49256aa688288ac00000000", "vin": [{"sequence": 4294967295, "scriptSig": {"hex": "483045022100aa9ccc0b8ada33b33ba65224f461880736e4f6fb7521649b7f146b08a4cac57802205b8e685eedee9a88ed4ef386972e3f3afa05b546aebe3beb7c7bdccfb8d9333f0121038fb9eb6aa17bccf02ed6d562b5d7cb9f0a4dd5a7ddbe0d06dd4a82db1aba9765", "asm": "3045022100aa9ccc0b8ada33b33ba65224f461880736e4f6fb7521649b7f146b08a4cac57802205b8e685eedee9a88ed4ef386972e3f3afa05b546aebe3beb7c7bdccfb8d9333f[ALL] 038fb9eb6aa17bccf02ed6d562b5d7cb9f0a4dd5a7ddbe0d06dd4a82db1aba9765"}, "vout": 0, "txid": "e90fab4b5c55ab8491797dd2daa9c09243bf258ed02a5fbad0bdebe90adfea36"}], "txid": "9c69e4161274a3a047409ebc759ede2fcf79c6c2841645e41b05b56299deb42d", "blocktime": 1537875543, "version": 1, "confirmations": 11464, "time": 1537875543, "locktime": 0, "vsize": 226, "size": 226}