{"hash": "9c6fbae777b01b71f766e31c5c6fc4cda5601b22fb809e7f8dc150344061c1be", "blockhash": "0000000000000000000e13cef7c366c0283d82e591d1acd082e914b08063cdf1", "vout": [{"scriptPubKey": {"reqSigs": 1, "hex": "76a914dfdc0b928b1b205d7029ab5b3af8bcd6e04610fe88ac", "addresses": ["1MQfHnedjDYdG5DRgSWgTb3rSDsKmLSUuS"], "asm": "OP_DUP OP_HASH160 dfdc0b928b1b205d7029ab5b3af8bcd6e04610fe OP_EQUALVERIFY OP_CHECKSIG", "type": "pubkeyhash"}, "value": 0.00308244, "n": 0}], "hex": "01000000012d4bf6c72fc9bb636a86809d130adcaa27f3bfa27cd23c10f6b30ba90b897f95000000006a47304402201ebcf2a373a3d272c56102ebf7fa210376498d66f57a6528457317003c06009602206e8c734121765513ab3648d4ab0dadfaf6cdcd987790018af22bb189a1043a18012103d9f0e569a5dab93bfcaf683d54379c0984ebe12976442150ec51a222ffe823deffffffff0114b40400000000001976a914dfdc0b928b1b205d7029ab5b3af8bcd6e04610fe88ac00000000", "vin": [{"sequence": 4294967295, "scriptSig": {"hex": "47304402201ebcf2a373a3d272c56102ebf7fa210376498d66f57a6528457317003c06009602206e8c734121765513ab3648d4ab0dadfaf6cdcd987790018af22bb189a1043a18012103d9f0e569a5dab93bfcaf683d54379c0984ebe12976442150ec51a222ffe823de", "asm": "304402201ebcf2a373a3d272c56102ebf7fa210376498d66f57a6528457317003c06009602206e8c734121765513ab3648d4ab0dadfaf6cdcd987790018af22bb189a1043a18[ALL] 03d9f0e569a5dab93bfcaf683d54379c0984ebe12976442150ec51a222ffe823de"}, "vout": 0, "txid": "957f890ba90bb3f6103cd27ca2bff327aadc0a139d80866a63bbc92fc7f64b2d"}], "txid": "9c6fbae777b01b71f766e31c5c6fc4cda5601b22fb809e7f8dc150344061c1be", "blocktime": 1537871767, "version": 1, "confirmations": 11495, "time": 1537871767, "locktime": 0, "vsize": 191, "size": 191}