{"hash": "9c74567082bbf05bf152a512d35ebafbec1a01bf7939d014ebfcf097597e09a5", "blockhash": "0000000000000000000baef3f32e3676a92c3b2e5da21b426e4f302fc371ce76", "vout": [{"scriptPubKey": {"reqSigs": 1, "hex": "a914599c35e936e5441152d9b523acd3edf2b2505abe87", "addresses": ["39rqCKSRkwRKD7wCVSufaT6uoEhqvHWC12"], "asm": "OP_HASH160 599c35e936e5441152d9b523acd3edf2b2505abe OP_EQUAL", "type": "scripthash"}, "value": 0.00486101, "n": 0}, {"scriptPubKey": {"reqSigs": 1, "hex": "76a9140836af0dc6ee7c76fead7cee5afcf37984cf938388ac", "addresses": ["1kRv2rVQYD5yionRWqXcDBtTUY49mFiEu"], "asm": "OP_DUP OP_HASH160 0836af0dc6ee7c76fead7cee5afcf37984cf9383 OP_EQUALVERIFY OP_CHECKSIG", "type": "pubkeyhash"}, "value": 0.10854618, "n": 1}], "hex": "01000000010edc014d9b887007def27bffc4a936d072587161ce67d2ba0093435177b0b630010000006a473044022019e9584fa2a92a3886671fa99ea54f2e097990431e43fd66b625ae47ccfb9a0f022058aae370dfb320eaa36dd2f9db9472426761de6b54514156cc83751931a43a660121038dc1c3321d7b3de86707745cb7352dc1d908a77eba175c2c5f53307cffb45563ffffffff02d56a07000000000017a914599c35e936e5441152d9b523acd3edf2b2505abe87daa0a500000000001976a9140836af0dc6ee7c76fead7cee5afcf37984cf938388ac00000000", "vin": [{"sequence": 4294967295, "scriptSig": {"hex": "473044022019e9584fa2a92a3886671fa99ea54f2e097990431e43fd66b625ae47ccfb9a0f022058aae370dfb320eaa36dd2f9db9472426761de6b54514156cc83751931a43a660121038dc1c3321d7b3de86707745cb7352dc1d908a77eba175c2c5f53307cffb45563", "asm": "3044022019e9584fa2a92a3886671fa99ea54f2e097990431e43fd66b625ae47ccfb9a0f022058aae370dfb320eaa36dd2f9db9472426761de6b54514156cc83751931a43a66[ALL] 038dc1c3321d7b3de86707745cb7352dc1d908a77eba175c2c5f53307cffb45563"}, "vout": 1, "txid": "30b6b07751439300bad267ce61715872d036a9c4ff7bf2de0770889b4d01dc0e"}], "txid": "9c74567082bbf05bf152a512d35ebafbec1a01bf7939d014ebfcf097597e09a5", "blocktime": 1537876114, "version": 1, "confirmations": 11460, "time": 1537876114, "locktime": 0, "vsize": 223, "size": 223}