{"hash": "9c758993b61d36c0d5026935ae6ac7fd664513b500b5754ccbcdc1faf2ec2fb1", "blockhash": "0000000000000000001cda96e906b7601b7a6fb1a3b62bca570a9e5d8f4b3de1", "vout": [{"scriptPubKey": {"reqSigs": 1, "hex": "76a914c489b317cf5b56d1470a75e84feea3233614c91688ac", "addresses": ["1JvCQ8jwV5WP62kP73aB7cVmrGRE1TuToy"], "asm": "OP_DUP OP_HASH160 c489b317cf5b56d1470a75e84feea3233614c916 OP_EQUALVERIFY OP_CHECKSIG", "type": "pubkeyhash"}, "value": 0.00010817, "n": 0}, {"scriptPubKey": {"reqSigs": 1, "hex": "76a91497cceeb7783ca620c3d22fc7071cab0bb2a0696788ac", "addresses": ["1EqeXvfS462GTNv2DWau8QgvSJFR78wsug"], "asm": "OP_DUP OP_HASH160 97cceeb7783ca620c3d22fc7071cab0bb2a06967 OP_EQUALVERIFY OP_CHECKSIG", "type": "pubkeyhash"}, "value": 0.00093677, "n": 1}], "hex": "0100000002557131f7ef19db1a26d467a041ace3db61da30bed92d0f85f93c9f6468310dcf000000006a47304402200abd27049089a545402dfdb90cfb9183ae40491947ebfbe13af7f248ce324fb3022032f77d266c0e23ed6f96192dcf589280ed3162ccba9e710114ebfc88de08674d0121037c64b7c235dd5d9eca9e3a100fdc66e04171d09a3d0b673c80969ae18a802681ffffffffc116ab7356b719665c2378d6f6f9b77a9f8116b0380435067cd29defda46fff4000000006b483045022100a5112d55b232ef9f6660b0785f6422bb851b426738f9b777cf27641763b025e202206ab04c6161c74d3cd34e20d9eaf5f235a745c968f8dc455fecab59696e5482be012102f5d6a28a8ca70d82789cc8230beacb586978399ac53674da686288775d025f99ffffffff02412a0000000000001976a914c489b317cf5b56d1470a75e84feea3233614c91688aced6d0100000000001976a91497cceeb7783ca620c3d22fc7071cab0bb2a0696788ac00000000", "vin": [{"sequence": 4294967295, "scriptSig": {"hex": "47304402200abd27049089a545402dfdb90cfb9183ae40491947ebfbe13af7f248ce324fb3022032f77d266c0e23ed6f96192dcf589280ed3162ccba9e710114ebfc88de08674d0121037c64b7c235dd5d9eca9e3a100fdc66e04171d09a3d0b673c80969ae18a802681", "asm": "304402200abd27049089a545402dfdb90cfb9183ae40491947ebfbe13af7f248ce324fb3022032f77d266c0e23ed6f96192dcf589280ed3162ccba9e710114ebfc88de08674d[ALL] 037c64b7c235dd5d9eca9e3a100fdc66e04171d09a3d0b673c80969ae18a802681"}, "vout": 0, "txid": "cf0d3168649f3cf9850f2dd9be30da61dbe3ac41a067d4261adb19eff7317155"}, {"sequence": 4294967295, "scriptSig": {"hex": "483045022100a5112d55b232ef9f6660b0785f6422bb851b426738f9b777cf27641763b025e202206ab04c6161c74d3cd34e20d9eaf5f235a745c968f8dc455fecab59696e5482be012102f5d6a28a8ca70d82789cc8230beacb586978399ac53674da686288775d025f99", "asm": "3045022100a5112d55b232ef9f6660b0785f6422bb851b426738f9b777cf27641763b025e202206ab04c6161c74d3cd34e20d9eaf5f235a745c968f8dc455fecab59696e5482be[ALL] 02f5d6a28a8ca70d82789cc8230beacb586978399ac53674da686288775d025f99"}, "vout": 0, "txid": "f4ff46daef9dd27c06350438b016819f7ab7f9f6d678235c6619b75673ab16c1"}], "txid": "9c758993b61d36c0d5026935ae6ac7fd664513b500b5754ccbcdc1faf2ec2fb1", "blocktime": 1537873282, "version": 1, "confirmations": 11485, "time": 1537873282, "locktime": 0, "vsize": 373, "size": 373}