{"hash": "9c7643ac81d2a83a62ce9f011cd8f8202332fbb284321383fa8d39487bab3bf0", "blockhash": "00000000000000000017f5eb5941039fbcee6240d03bc1f2f8e35350df66a1d8", "vout": [{"scriptPubKey": {"reqSigs": 1, "hex": "76a914ac96a0cf54262246748b9a017953db4ec71a91c388ac", "addresses": ["1GjZfpjxsyawLxnADCS86pN1whFb9GyF4M"], "asm": "OP_DUP OP_HASH160 ac96a0cf54262246748b9a017953db4ec71a91c3 OP_EQUALVERIFY OP_CHECKSIG", "type": "pubkeyhash"}, "value": 7.43e-05, "n": 0}, {"scriptPubKey": {"reqSigs": 1, "hex": "a9148e7440abad8066851ce655d082acfbfd36de9f6487", "addresses": ["3EgF9A5NZvnKiyEZ61VUben7YSarCN15NQ"], "asm": "OP_HASH160 8e7440abad8066851ce655d082acfbfd36de9f64 OP_EQUAL", "type": "scripthash"}, "value": 0.0311, "n": 1}], "hex": "01000000040ac01d8109f087b3a37f18e0a0e80db570a19f179ef48839c581868ab30db52b000000006a47304402206691b7eb0d60365a880d3a1f5a5c9ea56bba7017ffbdda55f19cfc1ef958f92b02204a115abb3157cccf1f256da15dacabe467a004281d884fb332c7a610952c59a3012102fbcd6b207ba62a48941ec05963d1414afad8f81ad500c9e73b5c29ef0d460e70ffffffff1ddb444409e868e10771fe6c933f0d16e8cbd135f9994e955877179f47a4ac82010000006b4830450221009eff7ab385eab9f0174fac98e19d1cd80dc2e28ac327dbce07396836b80c1f3602202460031dc76cb58fccbeef7daaf5fa8199c38b3d2959a47af2f7117e05b1fbed012103bb4751a8187e60f20bbaabaaf6d522633014474368ac1a0c52ef2d18f0c67074ffffffff4e506ef53d7c399c341cc4a8a19ad651f2abbe1bfd987052718ee126ed13f3da000000006b483045022100b9154dcb972e2d1946c9274ef359294e7edf3fd361007e2768e991e78dfd541d022016cdf993e52b46a17fe156cd57308b6d6ecb76a078b46af904271b9037d956ee012102e14a792666e740e00763a16da56d66bab09522fcc353a9e1e8ca05e0ebb66774ffffffff72e87520f787b1bad7e45ac25ff32585afe398bf55835ae2c5a5b6bfee4388f1000000006b483045022100bbe31137fb1dfee8c5277fb0aa5f59eb3b705f24b92017475be6d1f4cd8e9a6002202a8f5eadc9ba1b2fd1183ee357b73f6918caa2a656cb12f3ba35ea3d9743a598012103df5bfee52bf83e3f96f8c8c6501ec3c871ffb1f398085af49b128704bf103d33ffffffff02061d0000000000001976a914ac96a0cf54262246748b9a017953db4ec71a91c388ac70742f000000000017a9148e7440abad8066851ce655d082acfbfd36de9f648700000000", "vin": [{"sequence": 4294967295, "scriptSig": {"hex": "47304402206691b7eb0d60365a880d3a1f5a5c9ea56bba7017ffbdda55f19cfc1ef958f92b02204a115abb3157cccf1f256da15dacabe467a004281d884fb332c7a610952c59a3012102fbcd6b207ba62a48941ec05963d1414afad8f81ad500c9e73b5c29ef0d460e70", "asm": "304402206691b7eb0d60365a880d3a1f5a5c9ea56bba7017ffbdda55f19cfc1ef958f92b02204a115abb3157cccf1f256da15dacabe467a004281d884fb332c7a610952c59a3[ALL] 02fbcd6b207ba62a48941ec05963d1414afad8f81ad500c9e73b5c29ef0d460e70"}, "vout": 0, "txid": "2bb50db38a8681c53988f49e179fa170b50de8a0e0187fa3b387f009811dc00a"}, {"sequence": 4294967295, "scriptSig": {"hex": "4830450221009eff7ab385eab9f0174fac98e19d1cd80dc2e28ac327dbce07396836b80c1f3602202460031dc76cb58fccbeef7daaf5fa8199c38b3d2959a47af2f7117e05b1fbed012103bb4751a8187e60f20bbaabaaf6d522633014474368ac1a0c52ef2d18f0c67074", "asm": "30450221009eff7ab385eab9f0174fac98e19d1cd80dc2e28ac327dbce07396836b80c1f3602202460031dc76cb58fccbeef7daaf5fa8199c38b3d2959a47af2f7117e05b1fbed[ALL] 03bb4751a8187e60f20bbaabaaf6d522633014474368ac1a0c52ef2d18f0c67074"}, "vout": 1, "txid": "82aca4479f177758954e99f935d1cbe8160d3f936cfe7107e168e8094444db1d"}, {"sequence": 4294967295, "scriptSig": {"hex": "483045022100b9154dcb972e2d1946c9274ef359294e7edf3fd361007e2768e991e78dfd541d022016cdf993e52b46a17fe156cd57308b6d6ecb76a078b46af904271b9037d956ee012102e14a792666e740e00763a16da56d66bab09522fcc353a9e1e8ca05e0ebb66774", "asm": "3045022100b9154dcb972e2d1946c9274ef359294e7edf3fd361007e2768e991e78dfd541d022016cdf993e52b46a17fe156cd57308b6d6ecb76a078b46af904271b9037d956ee[ALL] 02e14a792666e740e00763a16da56d66bab09522fcc353a9e1e8ca05e0ebb66774"}, "vout": 0, "txid": "daf313ed26e18e71527098fd1bbeabf251d69aa1a8c41c349c397c3df56e504e"}, {"sequence": 4294967295, "scriptSig": {"hex": "483045022100bbe31137fb1dfee8c5277fb0aa5f59eb3b705f24b92017475be6d1f4cd8e9a6002202a8f5eadc9ba1b2fd1183ee357b73f6918caa2a656cb12f3ba35ea3d9743a598012103df5bfee52bf83e3f96f8c8c6501ec3c871ffb1f398085af49b128704bf103d33", "asm": "3045022100bbe31137fb1dfee8c5277fb0aa5f59eb3b705f24b92017475be6d1f4cd8e9a6002202a8f5eadc9ba1b2fd1183ee357b73f6918caa2a656cb12f3ba35ea3d9743a598[ALL] 03df5bfee52bf83e3f96f8c8c6501ec3c871ffb1f398085af49b128704bf103d33"}, "vout": 0, "txid": "f18843eebfb6a5c5e25a8355bf98e3af8525f35fc25ae4d7bab187f72075e872"}], "txid": "9c7643ac81d2a83a62ce9f011cd8f8202332fbb284321383fa8d39487bab3bf0", "blocktime": 1537874412, "version": 1, "confirmations": 11467, "time": 1537874412, "locktime": 0, "vsize": 667, "size": 667}