{"hash": "9c7956d85ac005b7d10e0a8330d92b57157d68c32abf7c9571284fa125bbb558", "blockhash": "00000000000000000024a2167bbff67b0be802c0b01cdd79e6331c2be6459f87", "vout": [{"scriptPubKey": {"reqSigs": 1, "hex": "a9144ae84f0a68e669cf637fbcededfd1996f09fe59087", "addresses": ["38X6DqLs1kmhimSJfg4XcnUpeKgs8fF5Sk"], "asm": "OP_HASH160 4ae84f0a68e669cf637fbcededfd1996f09fe590 OP_EQUAL", "type": "scripthash"}, "value": 0.00192, "n": 0}, {"scriptPubKey": {"reqSigs": 1, "hex": "76a914eeadf4ac66937302e70cb37bd8bb35c6797d0f4388ac", "addresses": ["1Nm2DKBPkfWUyKd2z9nRHZ8gp923J2MJ14"], "asm": "OP_DUP OP_HASH160 eeadf4ac66937302e70cb37bd8bb35c6797d0f43 OP_EQUALVERIFY OP_CHECKSIG", "type": "pubkeyhash"}, "value": 0.00196826, "n": 1}], "hex": "0100000001b78a8a3344f65ecbe07a85d96180d1c4cf81efc4448030c591e322bf1893edcb000000006a47304402207cc63fc25c19eaa9a6c2233b185df68b949385acf2bc027fe4160fdd1254b9ae02204d610f551297c966eb26bbd6dab5abd97389a308203f63d20b0aad81af514344012103a15e721e9ca1a5c30e8996de3b25e626373c80dc25f0df5db2de16a4ab1fc723feffffff0200ee02000000000017a9144ae84f0a68e669cf637fbcededfd1996f09fe59087da000300000000001976a914eeadf4ac66937302e70cb37bd8bb35c6797d0f4388ac0d490800", "vin": [{"sequence": 4294967294, "scriptSig": {"hex": "47304402207cc63fc25c19eaa9a6c2233b185df68b949385acf2bc027fe4160fdd1254b9ae02204d610f551297c966eb26bbd6dab5abd97389a308203f63d20b0aad81af514344012103a15e721e9ca1a5c30e8996de3b25e626373c80dc25f0df5db2de16a4ab1fc723", "asm": "304402207cc63fc25c19eaa9a6c2233b185df68b949385acf2bc027fe4160fdd1254b9ae02204d610f551297c966eb26bbd6dab5abd97389a308203f63d20b0aad81af514344[ALL] 03a15e721e9ca1a5c30e8996de3b25e626373c80dc25f0df5db2de16a4ab1fc723"}, "vout": 0, "txid": "cbed9318bf22e391c5308044c4ef81cfc4d18061d9857ae0cb5ef644338a8ab7"}], "txid": "9c7956d85ac005b7d10e0a8330d92b57157d68c32abf7c9571284fa125bbb558", "blocktime": 1537870564, "version": 1, "confirmations": 11515, "time": 1537870564, "locktime": 542989, "vsize": 223, "size": 223}