{"hash": "6aba5534a6044a4b9ae55b71e1a07ec837321f583460c766d473afe3ebfd7259", "blockhash": "0000000000000000001cda96e906b7601b7a6fb1a3b62bca570a9e5d8f4b3de1", "vout": [{"scriptPubKey": {"reqSigs": 1, "hex": "00144ab08df96fb11e1bd6127f6deb6a513a44be3f13", "addresses": ["bc1qf2cgm7t0ky0ph4sj0ak7k6j38fztu0cn853rs8"], "asm": "0 4ab08df96fb11e1bd6127f6deb6a513a44be3f13", "type": "witness_v0_keyhash"}, "value": 0.39444951, "n": 0}, {"scriptPubKey": {"reqSigs": 1, "hex": "76a914b69d6c6ef84b2cd24719216518d51a2ed65c046a88ac", "addresses": ["1HeaZtsp96e7bDCbnBKs7b34B7W9hz4twK"], "asm": "OP_DUP OP_HASH160 b69d6c6ef84b2cd24719216518d51a2ed65c046a OP_EQUALVERIFY OP_CHECKSIG", "type": "pubkeyhash"}, "value": 0.08358354, "n": 1}], "hex": "01000000000101797a710c73846a5cdb5ae56a306d762889ab9765d398f9ec3cfb23975c0c1e6b0100000000ffffffff02d7e15902000000001600144ab08df96fb11e1bd6127f6deb6a513a44be3f13d2897f00000000001976a914b69d6c6ef84b2cd24719216518d51a2ed65c046a88ac0247304402204203dcca6b1b0d4b8a3ab889070c37868d237e8c0e6891c3015dc5594b11ce68022030197a061fae2986328e4a0ecd3e6cd24877fdff2409d90c7052259b45ee5c2b012103eb569b0c09781fb1ad4ba693a5709a0f6009379833ea05a0a155c05acf16ce6400000000", "vin": [{"txinwitness": ["304402204203dcca6b1b0d4b8a3ab889070c37868d237e8c0e6891c3015dc5594b11ce68022030197a061fae2986328e4a0ecd3e6cd24877fdff2409d90c7052259b45ee5c2b01", "03eb569b0c09781fb1ad4ba693a5709a0f6009379833ea05a0a155c05acf16ce64"], "sequence": 4294967295, "scriptSig": {"hex": "", "asm": ""}, "vout": 1, "txid": "6b1e0c5c9723fb3cecf998d36597ab8928766d306ae55adb5c6a84730c717a79"}], "txid": "9c7c67f1a2be33d267259a687b22ba44f143d28dacace23c46a36d084d3785d4", "blocktime": 1537873282, "version": 1, "confirmations": 11484, "time": 1537873282, "locktime": 0, "vsize": 144, "size": 225}