{"hash": "9c8c8a3fa7bf472ebd034a9946aaeacd15b3e0d3b59a54ffca639ec8eb4582d7", "blockhash": "00000000000000000004ffacab907a6b429b9a5745fa0b75af4234bf69dd7176", "vout": [{"scriptPubKey": {"reqSigs": 1, "hex": "76a91406742d56a4265eb0569a1f0617edc522870088b288ac", "addresses": ["1b8EH6xXd4ktAQqSTY9gUwWC3XSiFApRa"], "asm": "OP_DUP OP_HASH160 06742d56a4265eb0569a1f0617edc522870088b2 OP_EQUALVERIFY OP_CHECKSIG", "type": "pubkeyhash"}, "value": 0.00981408, "n": 0}], "hex": "0100000001cf841838acb9f4d9528b728f124084c6613aff3ff35011cec1969883055a597a110000006b4830450221009c2325045922d5c78a05d1380122876ee7193a671babb3695a7c6dab01812bcf0220525ec011efc6ca8b6e9567b2b61b8beafefe7a3a6e872cb2a04b414a3dde95220121036374e32bd7fd5b4179b4cb32ddebc874aa8b73480f087880c6d35529de5378a5ffffffff01a0f90e00000000001976a91406742d56a4265eb0569a1f0617edc522870088b288ac00000000", "vin": [{"sequence": 4294967295, "scriptSig": {"hex": "4830450221009c2325045922d5c78a05d1380122876ee7193a671babb3695a7c6dab01812bcf0220525ec011efc6ca8b6e9567b2b61b8beafefe7a3a6e872cb2a04b414a3dde95220121036374e32bd7fd5b4179b4cb32ddebc874aa8b73480f087880c6d35529de5378a5", "asm": "30450221009c2325045922d5c78a05d1380122876ee7193a671babb3695a7c6dab01812bcf0220525ec011efc6ca8b6e9567b2b61b8beafefe7a3a6e872cb2a04b414a3dde9522[ALL] 036374e32bd7fd5b4179b4cb32ddebc874aa8b73480f087880c6d35529de5378a5"}, "vout": 17, "txid": "7a595a05839896c1ce1150f33fff3a61c68440128f728b52d9f4b9ac381884cf"}], "txid": "9c8c8a3fa7bf472ebd034a9946aaeacd15b3e0d3b59a54ffca639ec8eb4582d7", "blocktime": 1537875543, "version": 1, "confirmations": 11464, "time": 1537875543, "locktime": 0, "vsize": 192, "size": 192}