{"hash": "9c8e104a7d59f323dc5e67167e49ea18ad6d51c719c8d484f6bc1af264804fe4", "blockhash": "0000000000000000000baef3f32e3676a92c3b2e5da21b426e4f302fc371ce76", "vout": [{"scriptPubKey": {"reqSigs": 1, "hex": "76a914ed3795b243031bf0644bc78ea3aa2ab1ab711b1c88ac", "addresses": ["1NdHjZUy2rwAmqj2ephxBQq7GkyHsmhAoG"], "asm": "OP_DUP OP_HASH160 ed3795b243031bf0644bc78ea3aa2ab1ab711b1c OP_EQUALVERIFY OP_CHECKSIG", "type": "pubkeyhash"}, "value": 0.00759068, "n": 0}, {"scriptPubKey": {"reqSigs": 1, "hex": "76a914dc2462bbc0328d5dfcd322da2f48884541b2507188ac", "addresses": ["1M51FKnWzng729xbWy5SZR7D9gQ3nrtSmF"], "asm": "OP_DUP OP_HASH160 dc2462bbc0328d5dfcd322da2f48884541b25071 OP_EQUALVERIFY OP_CHECKSIG", "type": "pubkeyhash"}, "value": 0.00833, "n": 1}], "hex": "01000000011db912b99c1ccf9ce21ab386d9e5d3aedde001ad0f928433e805cda20dddc59b010000006a47304402203369de3710d5acdb5862259cab268bfa250965e4714f73b74cf505547bebe7ce02207ae90e8f684249ba6c2ae91e887001d36aea530a201350f4d28d0c2472020b19012102f77711f08a93db448178baab5e89f1883708dd721357c23a60f6f8378a5ea343ffffffff021c950b00000000001976a914ed3795b243031bf0644bc78ea3aa2ab1ab711b1c88ace8b50c00000000001976a914dc2462bbc0328d5dfcd322da2f48884541b2507188ac00000000", "vin": [{"sequence": 4294967295, "scriptSig": {"hex": "47304402203369de3710d5acdb5862259cab268bfa250965e4714f73b74cf505547bebe7ce02207ae90e8f684249ba6c2ae91e887001d36aea530a201350f4d28d0c2472020b19012102f77711f08a93db448178baab5e89f1883708dd721357c23a60f6f8378a5ea343", "asm": "304402203369de3710d5acdb5862259cab268bfa250965e4714f73b74cf505547bebe7ce02207ae90e8f684249ba6c2ae91e887001d36aea530a201350f4d28d0c2472020b19[ALL] 02f77711f08a93db448178baab5e89f1883708dd721357c23a60f6f8378a5ea343"}, "vout": 1, "txid": "9bc5dd0da2cd05e83384920fad01e0ddaed3e5d986b31ae29ccf1c9cb912b91d"}], "txid": "9c8e104a7d59f323dc5e67167e49ea18ad6d51c719c8d484f6bc1af264804fe4", "blocktime": 1537876114, "version": 1, "confirmations": 11460, "time": 1537876114, "locktime": 0, "vsize": 225, "size": 225}