{"hash": "65c897e0c2751f1edc736d3798865e476c3a0d10fdd57a17d5bd43522fb9e018", "blockhash": "0000000000000000000dcc0f55137456b1a82d3642486a52398922ac4d620174", "vout": [{"scriptPubKey": {"reqSigs": 1, "hex": "a9140e2518490451a981640eba9a1b31e1c1d6074ed887", "addresses": ["32yopdFCDoaQAb6xKB9njsekH1y3FAikKj"], "asm": "OP_HASH160 0e2518490451a981640eba9a1b31e1c1d6074ed8 OP_EQUAL", "type": "scripthash"}, "value": 0.00434, "n": 0}, {"scriptPubKey": {"reqSigs": 1, "hex": "a91435f31642b0628bf9560c0bca85778d371db6280f87", "addresses": ["36cGwgtPfR7ToMmyJFmoSWBjBvm1dkLvtt"], "asm": "OP_HASH160 35f31642b0628bf9560c0bca85778d371db6280f OP_EQUAL", "type": "scripthash"}, "value": 0.0187732, "n": 1}], "hex": "01000000000101022574443ef9ccfd136ac97085728fa5dd350e7b67b165103d6cb1643244511400000000232200206a78796f2d1ebbd75443b11872d6bbe16763300eab1e04d68bce100836fce52bffffffff02509f06000000000017a9140e2518490451a981640eba9a1b31e1c1d6074ed88748a51c000000000017a91435f31642b0628bf9560c0bca85778d371db6280f870400473044022063f22a472f3aff1e734e35c3641bb83df099544e50bb8bdccdb7e5cd3644e29f02207cc846da6cbfa7529359a4f0301390e5c2b49df3a7b9c8fb401442f020a0c719014830450221008e409e2bdad20c0caea80f507023762d204161eff3209bea7897b9df418e866e022058c18308f5011a2b11121336de2db64a1f85cf154b1f27a5e45fe704586523ec0169522103f4108d88a65d42a005516dfc712f634e108b821a2f39aa5ad2aba2a82f4702a52103884a6ed67c8af199a33a3d68a341f18a623a4be02c98b5c645193efbbb1bab3521022a40b78f324bb59d98145a2b100e3ec19bd45a0dab9e25e7cfddae85770ff93553ae0d490800", "vin": [{"txinwitness": ["", "3044022063f22a472f3aff1e734e35c3641bb83df099544e50bb8bdccdb7e5cd3644e29f02207cc846da6cbfa7529359a4f0301390e5c2b49df3a7b9c8fb401442f020a0c71901", "30450221008e409e2bdad20c0caea80f507023762d204161eff3209bea7897b9df418e866e022058c18308f5011a2b11121336de2db64a1f85cf154b1f27a5e45fe704586523ec01", "522103f4108d88a65d42a005516dfc712f634e108b821a2f39aa5ad2aba2a82f4702a52103884a6ed67c8af199a33a3d68a341f18a623a4be02c98b5c645193efbbb1bab3521022a40b78f324bb59d98145a2b100e3ec19bd45a0dab9e25e7cfddae85770ff93553ae"], "sequence": 4294967295, "scriptSig": {"hex": "2200206a78796f2d1ebbd75443b11872d6bbe16763300eab1e04d68bce100836fce52b", "asm": "00206a78796f2d1ebbd75443b11872d6bbe16763300eab1e04d68bce100836fce52b"}, "vout": 0, "txid": "1451443264b16c3d1065b1677b0e35dda58f728570c96a13fdccf93e44742502"}], "txid": "9c919c848ba00da07f3f7cc39d05709131dd00f3c834158541aa5870085c223a", "blocktime": 1537870268, "version": 1, "confirmations": 11516, "time": 1537870268, "locktime": 542989, "vsize": 214, "size": 405}