{"hash": "8cb5d2a9a4b58b1b44497b7229a848784d10bbbaa5c14f402c1bcc73efc5ecce", "blockhash": "00000000000000000017f5eb5941039fbcee6240d03bc1f2f8e35350df66a1d8", "vout": [{"scriptPubKey": {"reqSigs": 1, "hex": "a9145cb769db4894913b1cf9ee4f7d338db17d759d2287", "addresses": ["3A9Foz8A3hyUyzFasF9DyP2x4w7WAM8RwF"], "asm": "OP_HASH160 5cb769db4894913b1cf9ee4f7d338db17d759d22 OP_EQUAL", "type": "scripthash"}, "value": 0.00998958, "n": 0}, {"scriptPubKey": {"reqSigs": 1, "hex": "76a9142e1b944fe7ffbe969fc1df8d662fd7b5d6303c9b88ac", "addresses": ["15Co856cRnFRCKwSSzECoyT3ozVhuFoJZ6"], "asm": "OP_DUP OP_HASH160 2e1b944fe7ffbe969fc1df8d662fd7b5d6303c9b OP_EQUALVERIFY OP_CHECKSIG", "type": "pubkeyhash"}, "value": 0.0535096, "n": 1}], "hex": "020000000001031a8fe2b248204cd28b05713e24b0b23468371e354a0c2c7669871be5e75b9cde010000001716001413d7ba519cdba9fd9ace3773472199e30cab1f89feffffff6f187df990eb7584534d1d1b77e80d9316cdb06d121711851b9cdcf41bde11e10400000017160014686f1eaf19cf8c66414cf94ed55ba284eaacac99feffffff80e74caf259ec52051ebedf7c7af7898fb0a8312512dd318230142ce8712bb500000000017160014b8924decfe3189c7cb480dca2b0a459716254409feffffff022e3e0f000000000017a9145cb769db4894913b1cf9ee4f7d338db17d759d228730a65100000000001976a9142e1b944fe7ffbe969fc1df8d662fd7b5d6303c9b88ac02483045022100d876e270d5d07c15286bcd9c4768d303784f9cc13bfe727d802fddaecde77f160220506b0193bb0eafcbe92589eadd6159eb238f726eefd8ed832c0396515c55fe98012102c994ba467a746cbc7f32e35819813681870ce8621199eabdc54edd61fcf135730247304402201c9873dfe7a190335d6894d16517322249fca8dae0b058d53ce50bd7642296830220629395fb693b40143fc71c78af796f38c254d36fca6c629321da20d0aa34f848012103730f4836dd0c8415fc53c3b55a86f1c44db8569bd334e7e2b2c18cb7d4136f4302483045022100893703294541ad04436c4228d3bbe7fe1f874647549a0f746fef812d1f50d80c02205289fc4d1c2d8c8228f1fa04124ba48ea750daa65c48dcd5413e4c7c1459fdaa01210243c110eccd7799f48dc52227d3849fed6791cfd6b8d39c2191714d629413175415490800", "vin": [{"txinwitness": ["3045022100d876e270d5d07c15286bcd9c4768d303784f9cc13bfe727d802fddaecde77f160220506b0193bb0eafcbe92589eadd6159eb238f726eefd8ed832c0396515c55fe9801", "02c994ba467a746cbc7f32e35819813681870ce8621199eabdc54edd61fcf13573"], "sequence": 4294967294, "scriptSig": {"hex": "16001413d7ba519cdba9fd9ace3773472199e30cab1f89", "asm": "001413d7ba519cdba9fd9ace3773472199e30cab1f89"}, "vout": 1, "txid": "de9c5be7e51b8769762c0c4a351e376834b2b0243e71058bd24c2048b2e28f1a"}, {"txinwitness": ["304402201c9873dfe7a190335d6894d16517322249fca8dae0b058d53ce50bd7642296830220629395fb693b40143fc71c78af796f38c254d36fca6c629321da20d0aa34f84801", "03730f4836dd0c8415fc53c3b55a86f1c44db8569bd334e7e2b2c18cb7d4136f43"], "sequence": 4294967294, "scriptSig": {"hex": "160014686f1eaf19cf8c66414cf94ed55ba284eaacac99", "asm": "0014686f1eaf19cf8c66414cf94ed55ba284eaacac99"}, "vout": 4, "txid": "e111de1bf4dc9c1b851117126db0cd16930de8771b1d4d538475eb90f97d186f"}, {"txinwitness": ["3045022100893703294541ad04436c4228d3bbe7fe1f874647549a0f746fef812d1f50d80c02205289fc4d1c2d8c8228f1fa04124ba48ea750daa65c48dcd5413e4c7c1459fdaa01", "0243c110eccd7799f48dc52227d3849fed6791cfd6b8d39c2191714d6294131754"], "sequence": 4294967294, "scriptSig": {"hex": "160014b8924decfe3189c7cb480dca2b0a459716254409", "asm": "0014b8924decfe3189c7cb480dca2b0a459716254409"}, "vout": 0, "txid": "50bb1287ce42012318d32d5112830afb9878afc7f7edeb5120c59e25af4ce780"}], "txid": "9c92247904550d956df95b8ecc508b19440e5e27e7c5bc2581e2e294cd479cec", "blocktime": 1537874412, "version": 2, "confirmations": 11468, "time": 1537874412, "locktime": 542997, "vsize": 350, "size": 593}