{"hash": "7aa554be5a4125926caf7b84dbd959f80955d486b6cdbf6cb495f16ad63ae209", "blockhash": "000000000000000000022b45ed06c6f4ccd3cf7fb5ba4856ebd2e58215665228", "vout": [{"scriptPubKey": {"reqSigs": 1, "hex": "a9147dfc1f569daeb44e3fbe05df1971f12fee88d56f87", "addresses": ["3DBARJ4vRnJn1x7dzXKRs9MjLGwFFeFhp5"], "asm": "OP_HASH160 7dfc1f569daeb44e3fbe05df1971f12fee88d56f OP_EQUAL", "type": "scripthash"}, "value": 0.01011196, "n": 0}, {"scriptPubKey": {"reqSigs": 1, "hex": "76a914bbaec083b5e6b2619a44122d11954d363152fd0488ac", "addresses": ["1J7NhraWXwxB5EzsPgHjvHxXqAAYgWV397"], "asm": "OP_DUP OP_HASH160 bbaec083b5e6b2619a44122d11954d363152fd04 OP_EQUALVERIFY OP_CHECKSIG", "type": "pubkeyhash"}, "value": 0.0028856, "n": 1}], "hex": "02000000000102525ecfe94098baf253e3e59d5dec4fa2562982dcf42a41f0eb1384f863a3394a0000000017160014368367888a54be9e1154b259b3162c66b64b9854feffffffbdc71ab6d2f69fb2774cdf91106f794e6fd1badb2c4059a0b375d21e6a4c43690e000000171600143f3e7ea1495b678b84310ed3f0e3061ae69f570afeffffff02fc6d0f000000000017a9147dfc1f569daeb44e3fbe05df1971f12fee88d56f8730670400000000001976a914bbaec083b5e6b2619a44122d11954d363152fd0488ac02473044022056f95a14622ad47ce3b12227eb956a3d0c496699fdba857ff4df59d32077c658022000ca01ec072fe8d8287811c4c1a17f494def1dc03c20b48ae0d82cd8c035b115012102e381ede3d4ccee51d55050ab06de6b69dede9d5f36875d10524936f04de7b91602473044022074f7d9a7cca9713bbca7f9dbe43ba2a17f4a7d116a9f1620b9f1cf93ffdfb18102202a1bf95825346087b9476abb86da6cd1fb50a1d9f605e7deb7f8d93d9b920adc0121030e68dba1851c68bd2a4a7bb60806ffb3e309074484855bb606697efeaba98d6c0b490800", "vin": [{"txinwitness": ["3044022056f95a14622ad47ce3b12227eb956a3d0c496699fdba857ff4df59d32077c658022000ca01ec072fe8d8287811c4c1a17f494def1dc03c20b48ae0d82cd8c035b11501", "02e381ede3d4ccee51d55050ab06de6b69dede9d5f36875d10524936f04de7b916"], "sequence": 4294967294, "scriptSig": {"hex": "160014368367888a54be9e1154b259b3162c66b64b9854", "asm": "0014368367888a54be9e1154b259b3162c66b64b9854"}, "vout": 0, "txid": "4a39a363f88413ebf0412af4dc822956a24fec5d9de5e353f2ba9840e9cf5e52"}, {"txinwitness": ["3044022074f7d9a7cca9713bbca7f9dbe43ba2a17f4a7d116a9f1620b9f1cf93ffdfb18102202a1bf95825346087b9476abb86da6cd1fb50a1d9f605e7deb7f8d93d9b920adc01", "030e68dba1851c68bd2a4a7bb60806ffb3e309074484855bb606697efeaba98d6c"], "sequence": 4294967294, "scriptSig": {"hex": "1600143f3e7ea1495b678b84310ed3f0e3061ae69f570a", "asm": "00143f3e7ea1495b678b84310ed3f0e3061ae69f570a"}, "vout": 14, "txid": "69434c6a1ed275b3a059402cdbbad16f4e796f1091df4c77b29ff6d2b61ac7bd"}], "txid": "9c92734fc5141cd6a2d71d97dc50c06450ef7f0042b0a2ed65e71182e5157633", "blocktime": 1537869901, "version": 2, "confirmations": 11524, "time": 1537869901, "locktime": 542987, "vsize": 258, "size": 420}