{"hash": "9c96ce79366fd2d6437b7ae74d96443fb3864aeb83907a43b1dc1d642dfcb5a0", "blockhash": "000000000000000000022b45ed06c6f4ccd3cf7fb5ba4856ebd2e58215665228", "vout": [{"scriptPubKey": {"reqSigs": 1, "hex": "76a914c53efcb9cbec5ed2b8ad624058df39a35a1da84788ac", "addresses": ["1JywaDgc41XYjdpRf2V2Vf13gH88qhpyqD"], "asm": "OP_DUP OP_HASH160 c53efcb9cbec5ed2b8ad624058df39a35a1da847 OP_EQUALVERIFY OP_CHECKSIG", "type": "pubkeyhash"}, "value": 0.06345936, "n": 0}, {"scriptPubKey": {"reqSigs": 1, "hex": "76a914b95bda4b3d55408a288a9f048cd7c8e8a0328a9788ac", "addresses": ["1Hu63XZJG6spAcmozXZJ1YVdcZic6msqPy"], "asm": "OP_DUP OP_HASH160 b95bda4b3d55408a288a9f048cd7c8e8a0328a97 OP_EQUALVERIFY OP_CHECKSIG", "type": "pubkeyhash"}, "value": 0.389775, "n": 1}], "hex": "010000000119bb78fdc71616559821b149614e4422c2cd989ddfe6e2cb3368f51da5bb4309010000006a47304402203e4f2e42462c9c429ebe8916f2eb9bbdc81be41ae2bce64d2c0e2fc0c136475402200c2420963bdd1c34a9af8805f56a24d40b43caf514aad1aec2803d1d965b01af012102a458d17343a583add1fed53ecba002cdcead067bf35fb1b9dfa6b527c9c495cfffffffff02d0d46000000000001976a914c53efcb9cbec5ed2b8ad624058df39a35a1da84788acdcbf5202000000001976a914b95bda4b3d55408a288a9f048cd7c8e8a0328a9788ac00000000", "vin": [{"sequence": 4294967295, "scriptSig": {"hex": "47304402203e4f2e42462c9c429ebe8916f2eb9bbdc81be41ae2bce64d2c0e2fc0c136475402200c2420963bdd1c34a9af8805f56a24d40b43caf514aad1aec2803d1d965b01af012102a458d17343a583add1fed53ecba002cdcead067bf35fb1b9dfa6b527c9c495cf", "asm": "304402203e4f2e42462c9c429ebe8916f2eb9bbdc81be41ae2bce64d2c0e2fc0c136475402200c2420963bdd1c34a9af8805f56a24d40b43caf514aad1aec2803d1d965b01af[ALL] 02a458d17343a583add1fed53ecba002cdcead067bf35fb1b9dfa6b527c9c495cf"}, "vout": 1, "txid": "0943bba51df56833cbe2e6df9d98cdc222444e6149b12198551616c7fd78bb19"}], "txid": "9c96ce79366fd2d6437b7ae74d96443fb3864aeb83907a43b1dc1d642dfcb5a0", "blocktime": 1537869901, "version": 1, "confirmations": 11524, "time": 1537869901, "locktime": 0, "vsize": 225, "size": 225}