{"hash": "9c991cf4054bf6ee60e114269df4ff5f82778735c459ca62e2eb991a214d84fe", "blockhash": "00000000000000000004ffacab907a6b429b9a5745fa0b75af4234bf69dd7176", "vout": [{"scriptPubKey": {"reqSigs": 1, "hex": "76a91489e8cd1842f92b60737492315036231d1321305e88ac", "addresses": ["1DaCTb8Bhxu8WsPFMJQDRwfqUnaACJiVx3"], "asm": "OP_DUP OP_HASH160 89e8cd1842f92b60737492315036231d1321305e OP_EQUALVERIFY OP_CHECKSIG", "type": "pubkeyhash"}, "value": 1.2, "n": 0}, {"scriptPubKey": {"reqSigs": 1, "hex": "76a914c528a607380017759d45c624599123a3b338039b88ac", "addresses": ["1JyUp6sRidhRHKHmxEPvtCMY1KpC3XW8jY"], "asm": "OP_DUP OP_HASH160 c528a607380017759d45c624599123a3b338039b OP_EQUALVERIFY OP_CHECKSIG", "type": "pubkeyhash"}, "value": 1.76392, "n": 1}], "hex": "01000000016048c20e171209d98a40fe94e2d18049dafa7487aee209da96d107b4cca2793d010000006a4730440220764ab4efd66ae9c4e6f5821fb6586e134c7f8ff050f15aea724c7317b39b66d2022017ae76569a430b768cd9ec88935fd38b7754384d55e8e052c1beab2d579e1ec00121036dfb8806984abdb8ef620a0691291c664864c1bce92869c32a341ccae3b9dc21ffffffff02000e2707000000001976a91489e8cd1842f92b60737492315036231d1321305e88ac4087830a000000001976a914c528a607380017759d45c624599123a3b338039b88ac00000000", "vin": [{"sequence": 4294967295, "scriptSig": {"hex": "4730440220764ab4efd66ae9c4e6f5821fb6586e134c7f8ff050f15aea724c7317b39b66d2022017ae76569a430b768cd9ec88935fd38b7754384d55e8e052c1beab2d579e1ec00121036dfb8806984abdb8ef620a0691291c664864c1bce92869c32a341ccae3b9dc21", "asm": "30440220764ab4efd66ae9c4e6f5821fb6586e134c7f8ff050f15aea724c7317b39b66d2022017ae76569a430b768cd9ec88935fd38b7754384d55e8e052c1beab2d579e1ec0[ALL] 036dfb8806984abdb8ef620a0691291c664864c1bce92869c32a341ccae3b9dc21"}, "vout": 1, "txid": "3d79a2ccb407d196da09e2ae8774fada4980d1e294fe408ad90912170ec24860"}], "txid": "9c991cf4054bf6ee60e114269df4ff5f82778735c459ca62e2eb991a214d84fe", "blocktime": 1537875543, "version": 1, "confirmations": 11464, "time": 1537875543, "locktime": 0, "vsize": 225, "size": 225}