{"hash": "9c9c4ba1f7b94ceff6ac9230f68fd906899e41ca84b0a410bdd4c60365730947", "blockhash": "0000000000000000000e13cef7c366c0283d82e591d1acd082e914b08063cdf1", "vout": [{"scriptPubKey": {"reqSigs": 1, "hex": "a9143292d286d219c662105f01a29ccfbe0836368e7a87", "addresses": ["36JRbXq8HKBtuU6xztN3FZZNL7cUMbXyb4"], "asm": "OP_HASH160 3292d286d219c662105f01a29ccfbe0836368e7a OP_EQUAL", "type": "scripthash"}, "value": 0.00250002, "n": 0}, {"scriptPubKey": {"reqSigs": 1, "hex": "76a914475f18cfa3b003cb0d42180ef8173333f0e7451d88ac", "addresses": ["17WNu53Qgrmt1DSysVebzmbGb4HfYfVLdK"], "asm": "OP_DUP OP_HASH160 475f18cfa3b003cb0d42180ef8173333f0e7451d OP_EQUALVERIFY OP_CHECKSIG", "type": "pubkeyhash"}, "value": 0.00459076, "n": 1}], "hex": "0100000001e66ad5b9d65b230f5b2f89370a9d7686de2e32ba999709215f55735f440590a7030000006b48304502210080e5e020b91ba4f638dcaedd71b46abf480c375636d352617b596e13b775775002207013ec1e0b0ff582d3875a89d3161df80f6df06ebf6018cb8b5941fe77059a11012102d103df478fa0f4b18872110fd18a45486f9c4697c6b9d4f88032b3c301a1b401ffffffff0292d003000000000017a9143292d286d219c662105f01a29ccfbe0836368e7a8744010700000000001976a914475f18cfa3b003cb0d42180ef8173333f0e7451d88ac00000000", "vin": [{"sequence": 4294967295, "scriptSig": {"hex": "48304502210080e5e020b91ba4f638dcaedd71b46abf480c375636d352617b596e13b775775002207013ec1e0b0ff582d3875a89d3161df80f6df06ebf6018cb8b5941fe77059a11012102d103df478fa0f4b18872110fd18a45486f9c4697c6b9d4f88032b3c301a1b401", "asm": "304502210080e5e020b91ba4f638dcaedd71b46abf480c375636d352617b596e13b775775002207013ec1e0b0ff582d3875a89d3161df80f6df06ebf6018cb8b5941fe77059a11[ALL] 02d103df478fa0f4b18872110fd18a45486f9c4697c6b9d4f88032b3c301a1b401"}, "vout": 3, "txid": "a79005445f73555f21099799ba322ede86769d0a37892f5b0f235bd6b9d56ae6"}], "txid": "9c9c4ba1f7b94ceff6ac9230f68fd906899e41ca84b0a410bdd4c60365730947", "blocktime": 1537871767, "version": 1, "confirmations": 11490, "time": 1537871767, "locktime": 0, "vsize": 224, "size": 224}