{"hash": "9ca4fa8cd8eff385b6517bbc1a80bbc9a9e1c4e4be2fbd110e5eaa1ca53899a8", "blockhash": "0000000000000000001cda96e906b7601b7a6fb1a3b62bca570a9e5d8f4b3de1", "vout": [{"scriptPubKey": {"reqSigs": 1, "hex": "a9149a72be593df2ce19e9314a58363e13a9a770715787", "addresses": ["3FmfScAttEJCfgzRbtoyLwZirdcPuYBrQF"], "asm": "OP_HASH160 9a72be593df2ce19e9314a58363e13a9a7707157 OP_EQUAL", "type": "scripthash"}, "value": 0.00238712, "n": 0}, {"scriptPubKey": {"reqSigs": 1, "hex": "76a914f55f4def713fac3a465f40fa32bd9e8a074f587088ac", "addresses": ["1PNQisGVmZZ3KMmrYLQCy7hRvnnXnZW6RV"], "asm": "OP_DUP OP_HASH160 f55f4def713fac3a465f40fa32bd9e8a074f5870 OP_EQUALVERIFY OP_CHECKSIG", "type": "pubkeyhash"}, "value": 0.00509528, "n": 1}], "hex": "01000000016cba2a9b3fc3b413695f8ee784cd5a0ae094c7353932f0b244fda6b00054c7cd010000006a47304402200aa7895c7a8bb03233b2a84bff1895eff61bffa067506bdb2d4d8e65079a644f022023cc2ca9d37742ef9f91eb92be766b158f7b0034efcf33e4bcec63d900c874f00121024cc62bd0fe1294d283890d03326f1b75a4d2d408af27ead4abd81de80675bc87feffffff0278a403000000000017a9149a72be593df2ce19e9314a58363e13a9a77071578758c60700000000001976a914f55f4def713fac3a465f40fa32bd9e8a074f587088ac13490800", "vin": [{"sequence": 4294967294, "scriptSig": {"hex": "47304402200aa7895c7a8bb03233b2a84bff1895eff61bffa067506bdb2d4d8e65079a644f022023cc2ca9d37742ef9f91eb92be766b158f7b0034efcf33e4bcec63d900c874f00121024cc62bd0fe1294d283890d03326f1b75a4d2d408af27ead4abd81de80675bc87", "asm": "304402200aa7895c7a8bb03233b2a84bff1895eff61bffa067506bdb2d4d8e65079a644f022023cc2ca9d37742ef9f91eb92be766b158f7b0034efcf33e4bcec63d900c874f0[ALL] 024cc62bd0fe1294d283890d03326f1b75a4d2d408af27ead4abd81de80675bc87"}, "vout": 1, "txid": "cdc75400b0a6fd44b2f0323935c794e00a5acd84e78e5f6913b4c33f9b2aba6c"}], "txid": "9ca4fa8cd8eff385b6517bbc1a80bbc9a9e1c4e4be2fbd110e5eaa1ca53899a8", "blocktime": 1537873282, "version": 1, "confirmations": 11482, "time": 1537873282, "locktime": 542995, "vsize": 223, "size": 223}