{"hash": "d20446099abff60546e03406ba15ac41f6e7c86dbfadf7d67c20cec4a45580e5", "blockhash": "0000000000000000001e0dab787dd257d1dbfcb92a98c2207d5e1078be1f4165", "vout": [{"scriptPubKey": {"reqSigs": 1, "hex": "a914b818655f26090f24b9d02e83eba0dbcf23c583e987", "addresses": ["3JURUuLXdDsXow164LvUXDh3Rtog7AWrih"], "asm": "OP_HASH160 b818655f26090f24b9d02e83eba0dbcf23c583e9 OP_EQUAL", "type": "scripthash"}, "value": 0.34, "n": 0}, {"scriptPubKey": {"reqSigs": 1, "hex": "0014b29b30ddbdc9a2c291ba32dbe6f6f26aeb1003f6", "addresses": ["bc1qk2dnphdaex3v9yd6xtd7dahjdt43qqlk9r5d8r"], "asm": "0 b29b30ddbdc9a2c291ba32dbe6f6f26aeb1003f6", "type": "witness_v0_keyhash"}, "value": 0.00090315, "n": 1}], "hex": "01000000000104464fdf491375859cbfdd0504b57490d01cbbca649346b18138eeba995ecd5ab0000000001716001473398c7c2acd3910ed2c0a0efe23cf4b0fe25b44ffffffff4b266c1a37cdd93d3cc0189c46a11e402097975437dbfedc3f3635d24d576d8b1a0000006b483045022100a1aa4ced8dffc74cdbc79b9c103d52dcb88556767ae1dda4c5ccbc75eea4810002202205dc85af61f3c237d9ad80a021e6466892f869df8e06d6608e2f22e711c2a70121020de4680b93032aadb5940430d6e8f700b09202b2b284f5c9c0775d926adaa140ffffffff40dbdececfcffdbb15e38dbe90200ae2971da9e7526c9ef24649fd5cf8a45921880000006a47304402200695742eaebac21b5c4aa2676ba3cf954735ba68b7255606f8f7aafc2eb687d50220022afff68f54e15ec9bb2d1b03eef2dc044fd52b5afb037f8911b5adbf89d2290121020de4680b93032aadb5940430d6e8f700b09202b2b284f5c9c0775d926adaa140ffffffff1ad76a1738b035af93b136a5ef7e5ff7a8bb3c504f82281cf533ca68fde85e42040000001716001453bd24b1c3d230d3b54cf5eb86b095b3133f7fe5ffffffff0280cc06020000000017a914b818655f26090f24b9d02e83eba0dbcf23c583e987cb60010000000000160014b29b30ddbdc9a2c291ba32dbe6f6f26aeb1003f602473044022005a05923c6237b5726f3cfbf27f53d9875682ef665791aa3f8b13d0dfa01b8c0022034ea6a78a7896d5142414e7a7f7329378ffce738780e2813556c699f1d19b6620121020abe168e862f5724f853afe9f29b98299cc255a7838163066a6e34791f48f047000002473044022029030115b9a0908b022e69d007bc6248cf7d1c100e267a683ce5d5fc8546685d022067fb7d36e2d032453ea99f90e752b8fa1c441a902930f9bf3961a8b767fc5dc601210343ce0c9c5c43770c16c2a9a8b0df5117435bef366af679ed1416886167a829ea00000000", "vin": [{"txinwitness": ["3044022005a05923c6237b5726f3cfbf27f53d9875682ef665791aa3f8b13d0dfa01b8c0022034ea6a78a7896d5142414e7a7f7329378ffce738780e2813556c699f1d19b66201", "020abe168e862f5724f853afe9f29b98299cc255a7838163066a6e34791f48f047"], "sequence": 4294967295, "scriptSig": {"hex": "16001473398c7c2acd3910ed2c0a0efe23cf4b0fe25b44", "asm": "001473398c7c2acd3910ed2c0a0efe23cf4b0fe25b44"}, "vout": 0, "txid": "b05acd5e99baee3881b1469364cabb1cd09074b50405ddbf9c85751349df4f46"}, {"sequence": 4294967295, "scriptSig": {"hex": "483045022100a1aa4ced8dffc74cdbc79b9c103d52dcb88556767ae1dda4c5ccbc75eea4810002202205dc85af61f3c237d9ad80a021e6466892f869df8e06d6608e2f22e711c2a70121020de4680b93032aadb5940430d6e8f700b09202b2b284f5c9c0775d926adaa140", "asm": "3045022100a1aa4ced8dffc74cdbc79b9c103d52dcb88556767ae1dda4c5ccbc75eea4810002202205dc85af61f3c237d9ad80a021e6466892f869df8e06d6608e2f22e711c2a7[ALL] 020de4680b93032aadb5940430d6e8f700b09202b2b284f5c9c0775d926adaa140"}, "vout": 26, "txid": "8b6d574dd235363fdcfedb3754979720401ea1469c18c03c3dd9cd371a6c264b"}, {"sequence": 4294967295, "scriptSig": {"hex": "47304402200695742eaebac21b5c4aa2676ba3cf954735ba68b7255606f8f7aafc2eb687d50220022afff68f54e15ec9bb2d1b03eef2dc044fd52b5afb037f8911b5adbf89d2290121020de4680b93032aadb5940430d6e8f700b09202b2b284f5c9c0775d926adaa140", "asm": "304402200695742eaebac21b5c4aa2676ba3cf954735ba68b7255606f8f7aafc2eb687d50220022afff68f54e15ec9bb2d1b03eef2dc044fd52b5afb037f8911b5adbf89d229[ALL] 020de4680b93032aadb5940430d6e8f700b09202b2b284f5c9c0775d926adaa140"}, "vout": 136, "txid": "2159a4f85cfd4946f29e6c52e7a91d97e20a2090be8de315bbfdcfcfcededb40"}, {"txinwitness": ["3044022029030115b9a0908b022e69d007bc6248cf7d1c100e267a683ce5d5fc8546685d022067fb7d36e2d032453ea99f90e752b8fa1c441a902930f9bf3961a8b767fc5dc601", "0343ce0c9c5c43770c16c2a9a8b0df5117435bef366af679ed1416886167a829ea"], "sequence": 4294967295, "scriptSig": {"hex": "16001453bd24b1c3d230d3b54cf5eb86b095b3133f7fe5", "asm": "001453bd24b1c3d230d3b54cf5eb86b095b3133f7fe5"}, "vout": 4, "txid": "425ee8fd68ca33f51c28824f503cbba8f75f7eefa536b193af35b038176ad71a"}], "txid": "9ca96b55c7eeb4ab95b6821bb6d728310fb670124c2b69841efe5fbe608ffb16", "blocktime": 1537872475, "version": 1, "confirmations": 11487, "time": 1537872475, "locktime": 0, "vsize": 551, "size": 714}