{"hash": "9cacac8af8f6c301cf2ab891a07290de264370a0f1c9434199d14a35661a9aa4", "blockhash": "00000000000000000024a2167bbff67b0be802c0b01cdd79e6331c2be6459f87", "vout": [{"scriptPubKey": {"reqSigs": 1, "hex": "a9142e4b2a155891e7c1314be0493e72c3e0c6919beb87", "addresses": ["35uo3t4cwSyZttpFUj3JmLVA4ewvdLZ6yN"], "asm": "OP_HASH160 2e4b2a155891e7c1314be0493e72c3e0c6919beb OP_EQUAL", "type": "scripthash"}, "value": 0.00640295, "n": 0}], "hex": "0100000001eb58d535788ed2a7f539bd37b0292537e893d9f15f21bd5d0079ebae93328986010000006b483045022100bfff17bb38b0f78e4672b276bb59e1a5a3f41c39f6a4fd006b36dbf6f194d10e02205d97815a08011837c8a165357ba730c5ace4c9406864f669c20d7f8f0717c4f9012103d9e6ad97a9e93e4cfa55e9f65b248d19e4149c38096fb5e8a987f156205c00a8ffffffff0127c509000000000017a9142e4b2a155891e7c1314be0493e72c3e0c6919beb8700000000", "vin": [{"sequence": 4294967295, "scriptSig": {"hex": "483045022100bfff17bb38b0f78e4672b276bb59e1a5a3f41c39f6a4fd006b36dbf6f194d10e02205d97815a08011837c8a165357ba730c5ace4c9406864f669c20d7f8f0717c4f9012103d9e6ad97a9e93e4cfa55e9f65b248d19e4149c38096fb5e8a987f156205c00a8", "asm": "3045022100bfff17bb38b0f78e4672b276bb59e1a5a3f41c39f6a4fd006b36dbf6f194d10e02205d97815a08011837c8a165357ba730c5ace4c9406864f669c20d7f8f0717c4f9[ALL] 03d9e6ad97a9e93e4cfa55e9f65b248d19e4149c38096fb5e8a987f156205c00a8"}, "vout": 1, "txid": "86893293aeeb79005dbd215ff1d993e8372529b037bd39f5a7d28e7835d558eb"}], "txid": "9cacac8af8f6c301cf2ab891a07290de264370a0f1c9434199d14a35661a9aa4", "blocktime": 1537870564, "version": 1, "confirmations": 11515, "time": 1537870564, "locktime": 0, "vsize": 190, "size": 190}