{"hash": "9caf2c2f1729bf404192c40ab097dc39a12817f8428bbb6cd0029f6926ee6bb1", "blockhash": "0000000000000000000baef3f32e3676a92c3b2e5da21b426e4f302fc371ce76", "vout": [{"scriptPubKey": {"reqSigs": 1, "hex": "76a914ea70940c731dd760c6d2a2a88bf56e36faa3343588ac", "addresses": ["1NNbyy5DtP12a5FoBnJF2azu6NLBtVrktW"], "asm": "OP_DUP OP_HASH160 ea70940c731dd760c6d2a2a88bf56e36faa33435 OP_EQUALVERIFY OP_CHECKSIG", "type": "pubkeyhash"}, "value": 0.00305984, "n": 0}], "hex": "01000000015cb71070096bd30af4ff50022482e939a0e58ba40268fc1755433d9ddf34c987010000006b48304502210086a28553b3153297d8848c200ba90ea1586279ef8d94d55f264efa3af0849d7e022017ccd4408e38422b953c0797023f8016086fbe89bf7c4bd24de3335f675cd1f9012102c8e4652ef2a570d16d8ede3f86c7e9e2104159e9f917f5dabd0e3d53c0432a0effffffff0140ab0400000000001976a914ea70940c731dd760c6d2a2a88bf56e36faa3343588ac00000000", "vin": [{"sequence": 4294967295, "scriptSig": {"hex": "48304502210086a28553b3153297d8848c200ba90ea1586279ef8d94d55f264efa3af0849d7e022017ccd4408e38422b953c0797023f8016086fbe89bf7c4bd24de3335f675cd1f9012102c8e4652ef2a570d16d8ede3f86c7e9e2104159e9f917f5dabd0e3d53c0432a0e", "asm": "304502210086a28553b3153297d8848c200ba90ea1586279ef8d94d55f264efa3af0849d7e022017ccd4408e38422b953c0797023f8016086fbe89bf7c4bd24de3335f675cd1f9[ALL] 02c8e4652ef2a570d16d8ede3f86c7e9e2104159e9f917f5dabd0e3d53c0432a0e"}, "vout": 1, "txid": "87c934df9d3d435517fc6802a48be5a039e982240250fff40ad36b097010b75c"}], "txid": "9caf2c2f1729bf404192c40ab097dc39a12817f8428bbb6cd0029f6926ee6bb1", "blocktime": 1537876114, "version": 1, "confirmations": 11460, "time": 1537876114, "locktime": 0, "vsize": 192, "size": 192}