{"hash": "9cb2a390d5d1d976af121fec1f3dbb9a33623d9a160bc0beb144982dd2110cc7", "blockhash": "0000000000000000001cda96e906b7601b7a6fb1a3b62bca570a9e5d8f4b3de1", "vout": [{"scriptPubKey": {"reqSigs": 1, "hex": "76a9143b679df00207e96c7b79cbcc31fe88c00a7253f088ac", "addresses": ["16R6zkU8BgMB1SiJtw1FqNdvhKJrpqLRCr"], "asm": "OP_DUP OP_HASH160 3b679df00207e96c7b79cbcc31fe88c00a7253f0 OP_EQUALVERIFY OP_CHECKSIG", "type": "pubkeyhash"}, "value": 0.01000256, "n": 0}, {"scriptPubKey": {"reqSigs": 1, "hex": "a914c9f8a51da6a1ca7494f3e7a37f539e29d60e21ef87", "addresses": ["3L6wcFvBjyGtbbVYKw72PKgGjFshD53pGY"], "asm": "OP_HASH160 c9f8a51da6a1ca7494f3e7a37f539e29d60e21ef OP_EQUAL", "type": "scripthash"}, "value": 0.01413, "n": 1}], "hex": "020000000200fa90e549db149180fa7bc674bd30f636fbf871e5123220c7de06b0de3a66c1140000006b483045022100949652fde11944fb5420d445669ebc71fe54323346a9ad0a680e8fbd9a590f9d022076dde8493d1ca0f3431e9a29518f353fa2af635a4e0bc5fe26e967cead19b4dd0121035c17560d58e6e8f29dc8296f99d031b7890a094ce1157e6e78ed2e0d0d919fb3feffffff2350060516c9c775f78bd78a4f04eb8675a2630238fdd274970eb712a3c3aa4a120000006a473044022061c346463739031e942840c59eb7cfdb74f94ec18ca8101501af87eaf2f87d6502203e7e68560d237b4f81de5ee4920eabcf109a297bd0378f9a6274699cb555effb012102298a95c230c9897786902cfa7668fe83c284888c378b92c39e67050502a65ca7feffffff0240430f00000000001976a9143b679df00207e96c7b79cbcc31fe88c00a7253f088ac888f15000000000017a914c9f8a51da6a1ca7494f3e7a37f539e29d60e21ef8713490800", "vin": [{"sequence": 4294967294, "scriptSig": {"hex": "483045022100949652fde11944fb5420d445669ebc71fe54323346a9ad0a680e8fbd9a590f9d022076dde8493d1ca0f3431e9a29518f353fa2af635a4e0bc5fe26e967cead19b4dd0121035c17560d58e6e8f29dc8296f99d031b7890a094ce1157e6e78ed2e0d0d919fb3", "asm": "3045022100949652fde11944fb5420d445669ebc71fe54323346a9ad0a680e8fbd9a590f9d022076dde8493d1ca0f3431e9a29518f353fa2af635a4e0bc5fe26e967cead19b4dd[ALL] 035c17560d58e6e8f29dc8296f99d031b7890a094ce1157e6e78ed2e0d0d919fb3"}, "vout": 20, "txid": "c1663adeb006dec7203212e571f8fb36f630bd74c67bfa809114db49e590fa00"}, {"sequence": 4294967294, "scriptSig": {"hex": "473044022061c346463739031e942840c59eb7cfdb74f94ec18ca8101501af87eaf2f87d6502203e7e68560d237b4f81de5ee4920eabcf109a297bd0378f9a6274699cb555effb012102298a95c230c9897786902cfa7668fe83c284888c378b92c39e67050502a65ca7", "asm": "3044022061c346463739031e942840c59eb7cfdb74f94ec18ca8101501af87eaf2f87d6502203e7e68560d237b4f81de5ee4920eabcf109a297bd0378f9a6274699cb555effb[ALL] 02298a95c230c9897786902cfa7668fe83c284888c378b92c39e67050502a65ca7"}, "vout": 18, "txid": "4aaac3a312b70e9774d2fd380263a27586eb044f8ad78bf775c7c91605065023"}], "txid": "9cb2a390d5d1d976af121fec1f3dbb9a33623d9a160bc0beb144982dd2110cc7", "blocktime": 1537873282, "version": 2, "confirmations": 11485, "time": 1537873282, "locktime": 542995, "vsize": 371, "size": 371}