{"hash": "9cb2e9a8f8fb173386097986f7008ab84261cd16bdc8f6f2182bfcc4d2615aa6", "blockhash": "000000000000000000022b45ed06c6f4ccd3cf7fb5ba4856ebd2e58215665228", "vout": [{"scriptPubKey": {"type": "nulldata", "hex": "6a146f6d6e69000000000000001f00000011b1f3f800", "asm": "OP_RETURN 6f6d6e69000000000000001f00000011b1f3f800"}, "value": 0.0, "n": 0}, {"scriptPubKey": {"reqSigs": 1, "hex": "76a914d1763339f9e597c84b288eca0188ea67aa6b011988ac", "addresses": ["1L6XpnDygG2VySVEVmaqHtYTYwJAHhvRYZ"], "asm": "OP_DUP OP_HASH160 d1763339f9e597c84b288eca0188ea67aa6b0119 OP_EQUALVERIFY OP_CHECKSIG", "type": "pubkeyhash"}, "value": 5.46e-06, "n": 1}, {"scriptPubKey": {"reqSigs": 1, "hex": "76a914284b1f894ca72430de8f19952125b6016a9dc7c688ac", "addresses": ["14g42KnXkRFfR8cUtS5tReprjeNvGQKW9v"], "asm": "OP_DUP OP_HASH160 284b1f894ca72430de8f19952125b6016a9dc7c6 OP_EQUALVERIFY OP_CHECKSIG", "type": "pubkeyhash"}, "value": 0.14513534, "n": 2}], "hex": "01000000018201afc216bfaf2991624c66e214a704fc2ddcd5e3738e9ec0c064fec485f456010000006a47304402203e0f25fff8b2512174a3fa85ef256513b034735e4296ca4afc425f49d611d5640220709759b815d9575feb8996a0059c0c52114db6df2604fc82e36fd4124690c76101210392260b2475e9dec1855e89404d00787579055270f3f1619ec29bd64ed6a6dd7dfeffffff030000000000000000166a146f6d6e69000000000000001f00000011b1f3f80022020000000000001976a914d1763339f9e597c84b288eca0188ea67aa6b011988ac7e75dd00000000001976a914284b1f894ca72430de8f19952125b6016a9dc7c688ac0b490800", "vin": [{"sequence": 4294967294, "scriptSig": {"hex": "47304402203e0f25fff8b2512174a3fa85ef256513b034735e4296ca4afc425f49d611d5640220709759b815d9575feb8996a0059c0c52114db6df2604fc82e36fd4124690c76101210392260b2475e9dec1855e89404d00787579055270f3f1619ec29bd64ed6a6dd7d", "asm": "304402203e0f25fff8b2512174a3fa85ef256513b034735e4296ca4afc425f49d611d5640220709759b815d9575feb8996a0059c0c52114db6df2604fc82e36fd4124690c761[ALL] 0392260b2475e9dec1855e89404d00787579055270f3f1619ec29bd64ed6a6dd7d"}, "vout": 1, "txid": "56f485c4fe64c0c09e8e73e3d5dc2dfc04a714e2664c629129afbf16c2af0182"}], "txid": "9cb2e9a8f8fb173386097986f7008ab84261cd16bdc8f6f2182bfcc4d2615aa6", "blocktime": 1537869901, "version": 1, "confirmations": 11522, "time": 1537869901, "locktime": 542987, "vsize": 256, "size": 256}