{"hash": "9cb588854ecc93958ca6b58b9e8b992aee2fe30b3562e788522622135e12c27b", "blockhash": "00000000000000000024a2167bbff67b0be802c0b01cdd79e6331c2be6459f87", "vout": [{"scriptPubKey": {"reqSigs": 1, "hex": "76a91432e1c637d4e6b61ce23e41afa20b5105d6f159b888ac", "addresses": ["15e3FfXFAbFDaEQBWDat1u2Lp1FQvMNct9"], "asm": "OP_DUP OP_HASH160 32e1c637d4e6b61ce23e41afa20b5105d6f159b8 OP_EQUALVERIFY OP_CHECKSIG", "type": "pubkeyhash"}, "value": 0.07954703, "n": 0}, {"scriptPubKey": {"reqSigs": 1, "hex": "76a91412e7361c337e5bbb4b6508ef0480c1717ab07f6488ac", "addresses": ["12ix9JRcN5SWYoGKYfyz3LVtGQ6reakrrf"], "asm": "OP_DUP OP_HASH160 12e7361c337e5bbb4b6508ef0480c1717ab07f64 OP_EQUALVERIFY OP_CHECKSIG", "type": "pubkeyhash"}, "value": 0.00253143, "n": 1}], "hex": "0100000003b2aac41b79cae7d11138278e3ab9cd214d3c698aa570459a8a8b6b60d1895c72030000008a47304402203ae545bb6299b53a3926346f2e9a6e2cb6ba05924e8aa9b590b33c806d7c25bf02200ab90587940b4b43e841b8d8e81c106e4e064d302a1c3ba7611806b4bb67b1590141042f4b8bbb83d23689b448d49ff6b7d1c83ccc142b05c61c98c39bc268098dcfd529c58f0e60ad59e1673e476c92cd16f2890dc2a0d322d7d3f3a5ac85b771c202ffffffff056909b41184d0ec3db3f740975a5c88c1ce4ac3ca303d2fdd515992f784ac37040000008b483045022100ec8c41df8ccb212eab5979f3b702d7133cfcea5f3a0c76d65dd21442fd7af7a1022000eb176bd3bfb88df796853e503f5d594c795de1142809d499d456d566f4fec40141042f4b8bbb83d23689b448d49ff6b7d1c83ccc142b05c61c98c39bc268098dcfd529c58f0e60ad59e1673e476c92cd16f2890dc2a0d322d7d3f3a5ac85b771c202ffffffff8e8c92c33372e3501a05baa24995e8379eff1dde04ed5e1fb8e315cbc08cea55010000008b483045022100fe02268036fa46480f1fe4486fd32e24e250ff57bfd971744a8084ebe7a16deb022010a0bef4074aaf5304dad3a0d5684a745f65b0874c69a451bad83803e697f3d60141042f4b8bbb83d23689b448d49ff6b7d1c83ccc142b05c61c98c39bc268098dcfd529c58f0e60ad59e1673e476c92cd16f2890dc2a0d322d7d3f3a5ac85b771c202ffffffff020f617900000000001976a91432e1c637d4e6b61ce23e41afa20b5105d6f159b888acd7dc0300000000001976a91412e7361c337e5bbb4b6508ef0480c1717ab07f6488ac00000000", "vin": [{"sequence": 4294967295, "scriptSig": {"hex": "47304402203ae545bb6299b53a3926346f2e9a6e2cb6ba05924e8aa9b590b33c806d7c25bf02200ab90587940b4b43e841b8d8e81c106e4e064d302a1c3ba7611806b4bb67b1590141042f4b8bbb83d23689b448d49ff6b7d1c83ccc142b05c61c98c39bc268098dcfd529c58f0e60ad59e1673e476c92cd16f2890dc2a0d322d7d3f3a5ac85b771c202", "asm": "304402203ae545bb6299b53a3926346f2e9a6e2cb6ba05924e8aa9b590b33c806d7c25bf02200ab90587940b4b43e841b8d8e81c106e4e064d302a1c3ba7611806b4bb67b159[ALL] 042f4b8bbb83d23689b448d49ff6b7d1c83ccc142b05c61c98c39bc268098dcfd529c58f0e60ad59e1673e476c92cd16f2890dc2a0d322d7d3f3a5ac85b771c202"}, "vout": 3, "txid": "725c89d1606b8b8a9a4570a58a693c4d21cdb93a8e273811d1e7ca791bc4aab2"}, {"sequence": 4294967295, "scriptSig": {"hex": "483045022100ec8c41df8ccb212eab5979f3b702d7133cfcea5f3a0c76d65dd21442fd7af7a1022000eb176bd3bfb88df796853e503f5d594c795de1142809d499d456d566f4fec40141042f4b8bbb83d23689b448d49ff6b7d1c83ccc142b05c61c98c39bc268098dcfd529c58f0e60ad59e1673e476c92cd16f2890dc2a0d322d7d3f3a5ac85b771c202", "asm": "3045022100ec8c41df8ccb212eab5979f3b702d7133cfcea5f3a0c76d65dd21442fd7af7a1022000eb176bd3bfb88df796853e503f5d594c795de1142809d499d456d566f4fec4[ALL] 042f4b8bbb83d23689b448d49ff6b7d1c83ccc142b05c61c98c39bc268098dcfd529c58f0e60ad59e1673e476c92cd16f2890dc2a0d322d7d3f3a5ac85b771c202"}, "vout": 4, "txid": "37ac84f7925951dd2f3d30cac34acec1885c5a9740f7b33decd08411b4096905"}, {"sequence": 4294967295, "scriptSig": {"hex": "483045022100fe02268036fa46480f1fe4486fd32e24e250ff57bfd971744a8084ebe7a16deb022010a0bef4074aaf5304dad3a0d5684a745f65b0874c69a451bad83803e697f3d60141042f4b8bbb83d23689b448d49ff6b7d1c83ccc142b05c61c98c39bc268098dcfd529c58f0e60ad59e1673e476c92cd16f2890dc2a0d322d7d3f3a5ac85b771c202", "asm": "3045022100fe02268036fa46480f1fe4486fd32e24e250ff57bfd971744a8084ebe7a16deb022010a0bef4074aaf5304dad3a0d5684a745f65b0874c69a451bad83803e697f3d6[ALL] 042f4b8bbb83d23689b448d49ff6b7d1c83ccc142b05c61c98c39bc268098dcfd529c58f0e60ad59e1673e476c92cd16f2890dc2a0d322d7d3f3a5ac85b771c202"}, "vout": 1, "txid": "55ea8cc0cb15e3b81f5eed04de1dff9e37e89549a2ba051a50e37233c3928c8e"}], "txid": "9cb588854ecc93958ca6b58b9e8b992aee2fe30b3562e788522622135e12c27b", "blocktime": 1537870564, "version": 1, "confirmations": 11515, "time": 1537870564, "locktime": 0, "vsize": 617, "size": 617}