{"hash": "6c76ef329582a2ec80992d1c2b98d094b5c49116ea470a1343cc277c23653e52", "blockhash": "0000000000000000001cda96e906b7601b7a6fb1a3b62bca570a9e5d8f4b3de1", "vout": [{"scriptPubKey": {"reqSigs": 1, "hex": "a914190c86c90b7348ac3fceeefe7620a7b76618dda187", "addresses": ["33yTphLnfNb94GGAhVDUfzJ5YcoodFTxhg"], "asm": "OP_HASH160 190c86c90b7348ac3fceeefe7620a7b76618dda1 OP_EQUAL", "type": "scripthash"}, "value": 0.00999706, "n": 0}, {"scriptPubKey": {"reqSigs": 1, "hex": "76a9142ac0ac7197805c7269c340d6ea926741910b340388ac", "addresses": ["14u4CFj2pgWtULkSuHM3rFdhzD5eRev4tv"], "asm": "OP_DUP OP_HASH160 2ac0ac7197805c7269c340d6ea926741910b3403 OP_EQUALVERIFY OP_CHECKSIG", "type": "pubkeyhash"}, "value": 0.0049746, "n": 1}], "hex": "02000000000102372a49aaf8d81a6a2bc18503a4f7a2ca6ede743a98a77d086e91f1635ccf3f15050000001716001434c8d576b1623df42baa8bddcbd12d3df67e0fb8feffffff41eec14a1aba3fcf7b83c529ab3419bbdff3fe071f1cb3775e13857c057fa2420100000017160014a5d15b29542989aee65495d6980d3e1f8cf1f915feffffff021a410f000000000017a914190c86c90b7348ac3fceeefe7620a7b76618dda18734970700000000001976a9142ac0ac7197805c7269c340d6ea926741910b340388ac024730440220391061796ea75f2c2142392c929831759eb1cde47ba6415d78b9520b3ce49b9902206cde24bc1e4a006c19bd11e1cbef67d414102f73ca6dab42fd042797269f04d201210388d64c6cf369a514bce59919b00258d98a7cf62e10b488ebe4bdda664b77303b02483045022100fdcc04dd8f7796875b0292f8b7fbc18ed4e4955da580ae77438605f03f9b4b3b0220186c06f5d61363f517cde8e6f2065eb5c0aa0a90f89f4cd857c749bdbef137b2012102693ac50b6d9f1d18c39f94698bac42935eee2069733b82447f258f3810b5e83c12490800", "vin": [{"txinwitness": ["30440220391061796ea75f2c2142392c929831759eb1cde47ba6415d78b9520b3ce49b9902206cde24bc1e4a006c19bd11e1cbef67d414102f73ca6dab42fd042797269f04d201", "0388d64c6cf369a514bce59919b00258d98a7cf62e10b488ebe4bdda664b77303b"], "sequence": 4294967294, "scriptSig": {"hex": "16001434c8d576b1623df42baa8bddcbd12d3df67e0fb8", "asm": "001434c8d576b1623df42baa8bddcbd12d3df67e0fb8"}, "vout": 5, "txid": "153fcf5c63f1916e087da7983a74de6ecaa2f7a40385c12b6a1ad8f8aa492a37"}, {"txinwitness": ["3045022100fdcc04dd8f7796875b0292f8b7fbc18ed4e4955da580ae77438605f03f9b4b3b0220186c06f5d61363f517cde8e6f2065eb5c0aa0a90f89f4cd857c749bdbef137b201", "02693ac50b6d9f1d18c39f94698bac42935eee2069733b82447f258f3810b5e83c"], "sequence": 4294967294, "scriptSig": {"hex": "160014a5d15b29542989aee65495d6980d3e1f8cf1f915", "asm": "0014a5d15b29542989aee65495d6980d3e1f8cf1f915"}, "vout": 1, "txid": "42a27f057c85135e77b31c1f07fef3dfbb1934ab29c5837bcf3fba1a4ac1ee41"}], "txid": "9cbc29fd37dd89c0a0228adfe0964ef9976642c657c1276e85ffb5ab071846c5", "blocktime": 1537873282, "version": 2, "confirmations": 11485, "time": 1537873282, "locktime": 542994, "vsize": 259, "size": 421}