{"hash": "b63ce2ca28ce0333735b76c7dd44c61a27bc0013df12d8ec62b259cd900c7ddb", "blockhash": "0000000000000000001f0ddff1eddb255c1121bcd4da4f1bc9a0da00cae72433", "vout": [{"scriptPubKey": {"reqSigs": 1, "hex": "0014414609c26d51d22dc4f689320f48f75ffd52e0ae", "addresses": ["bc1qg9rqnsnd28fzm38k3yeq7j8htl749c9wp6tuaz"], "asm": "0 414609c26d51d22dc4f689320f48f75ffd52e0ae", "type": "witness_v0_keyhash"}, "value": 1.568e-05, "n": 0}, {"scriptPubKey": {"reqSigs": 1, "hex": "a91483473f695d4782c3bc7d31979734c65024fe03d887", "addresses": ["3Df9o3tYxU6xmXkCxvpiNs1V3piTGx5aCw"], "asm": "OP_HASH160 83473f695d4782c3bc7d31979734c65024fe03d8 OP_EQUAL", "type": "scripthash"}, "value": 0.00240231, "n": 1}], "hex": "01000000000101ec3d8f3e97d6386403ad429217a704d3e504f2ba0a6ce22d6fe242a794deebd50000000000ffffffff022006000000000000160014414609c26d51d22dc4f689320f48f75ffd52e0ae67aa03000000000017a91483473f695d4782c3bc7d31979734c65024fe03d88702473044022079a1bf2962ed0ccdb3fef9e30913126e843a7b1ccb17ef371572ee007e471d0f022021433336681e13a3e161c0eeed25f55a2c68213c7affef3408667c3d5dde76eb012102ad25c6adec32c6a87cacae701c007770646ac7797841c01595893ad4d333017100000000", "vin": [{"txinwitness": ["3044022079a1bf2962ed0ccdb3fef9e30913126e843a7b1ccb17ef371572ee007e471d0f022021433336681e13a3e161c0eeed25f55a2c68213c7affef3408667c3d5dde76eb01", "02ad25c6adec32c6a87cacae701c007770646ac7797841c01595893ad4d3330171"], "sequence": 4294967295, "scriptSig": {"hex": "", "asm": ""}, "vout": 0, "txid": "d5ebde94a742e26f2de26c0abaf204e5d304a7179242ad036438d6973e8f3dec"}], "txid": "9cbd22236135f16bc0dfe8d947abdf5e49603a6c98cc44f4c7d1fe3ae5a699c1", "blocktime": 1537872018, "version": 1, "confirmations": 11489, "time": 1537872018, "locktime": 0, "vsize": 142, "size": 223}