{"hash": "9cc8bc1fe38e944b92931e36721eeaafe365723ecc9636109e08a897c21002c2", "blockhash": "0000000000000000000baef3f32e3676a92c3b2e5da21b426e4f302fc371ce76", "vout": [{"scriptPubKey": {"reqSigs": 1, "hex": "a914ebbb98535afa5bd454b776078a6a77f48bc50a7987", "addresses": ["3PBTSxKJBM77KEXTgoGBqj4p7X1vmTH91u"], "asm": "OP_HASH160 ebbb98535afa5bd454b776078a6a77f48bc50a79 OP_EQUAL", "type": "scripthash"}, "value": 0.00476585, "n": 0}, {"scriptPubKey": {"reqSigs": 1, "hex": "76a9144beb91746e0c06c0197d074c7d8dc0317f838b9d88ac", "addresses": ["17vRsxC5AFiwFnT1Jt3w9ERS83tjzFGZeD"], "asm": "OP_DUP OP_HASH160 4beb91746e0c06c0197d074c7d8dc0317f838b9d OP_EQUALVERIFY OP_CHECKSIG", "type": "pubkeyhash"}, "value": 0.0465804, "n": 1}], "hex": "01000000015f855fdc0760b5422bc2809cc417a476a63cb3bd64292f5c05d46dfe9b047e97030000006a473044022068b62c179df104225ad2284c8772682b6db1277ec840b514c9701dece9874aa902204f16008b999e9e98f83a12741ee5a8c34c46b7f2341d718c6ab66d0e71ee111c012103856c16cc0d6c517f6b893f83f15ad0671e961a33a10bd0c5a9da7523c2c74fcdffffffff02a94507000000000017a914ebbb98535afa5bd454b776078a6a77f48bc50a798778134700000000001976a9144beb91746e0c06c0197d074c7d8dc0317f838b9d88ac00000000", "vin": [{"sequence": 4294967295, "scriptSig": {"hex": "473044022068b62c179df104225ad2284c8772682b6db1277ec840b514c9701dece9874aa902204f16008b999e9e98f83a12741ee5a8c34c46b7f2341d718c6ab66d0e71ee111c012103856c16cc0d6c517f6b893f83f15ad0671e961a33a10bd0c5a9da7523c2c74fcd", "asm": "3044022068b62c179df104225ad2284c8772682b6db1277ec840b514c9701dece9874aa902204f16008b999e9e98f83a12741ee5a8c34c46b7f2341d718c6ab66d0e71ee111c[ALL] 03856c16cc0d6c517f6b893f83f15ad0671e961a33a10bd0c5a9da7523c2c74fcd"}, "vout": 3, "txid": "977e049bfe6dd4055c2f2964bdb33ca676a417c49c80c22b42b56007dc5f855f"}], "txid": "9cc8bc1fe38e944b92931e36721eeaafe365723ecc9636109e08a897c21002c2", "blocktime": 1537876114, "version": 1, "confirmations": 11459, "time": 1537876114, "locktime": 0, "vsize": 223, "size": 223}