{"hash": "9ccc3efb8d12ac0b3ea58405cb3eaa30d005b3ed4a355094395b866449af6b7e", "blockhash": "000000000000000000022b45ed06c6f4ccd3cf7fb5ba4856ebd2e58215665228", "vout": [{"scriptPubKey": {"reqSigs": 1, "hex": "76a91422aecdc170ba10b627d0361fa0f76df4082e381988ac", "addresses": ["14APP6iS7a4UF6RqjKn23VR3TuDBzCR7bv"], "asm": "OP_DUP OP_HASH160 22aecdc170ba10b627d0361fa0f76df4082e3819 OP_EQUALVERIFY OP_CHECKSIG", "type": "pubkeyhash"}, "value": 0.00016098, "n": 0}, {"scriptPubKey": {"reqSigs": 1, "hex": "76a914c20166fa9856750566cbdd4eef40ab841c87068588ac", "addresses": ["1JgomeTtLRVytrUNNFBTH4LZJGtQC9iPfr"], "asm": "OP_DUP OP_HASH160 c20166fa9856750566cbdd4eef40ab841c870685 OP_EQUALVERIFY OP_CHECKSIG", "type": "pubkeyhash"}, "value": 0.00764623, "n": 1}], "hex": "0100000002671b5ea42c61ab4009244674a9ca0739ed27d817c067a3fa560a1aa3e631b8a8000000006b483045022100931e68a0c393881cacfe7b57d7550ed0c189f6cc66835d0346d023c98f40b647022028be13e642b28ae11a6b88a564a8442f972ad18ec7fb593bb6e534ccf154496f012102ea0ffceb8a5c24420b4d5e3a2013b94889df2e58f7f6c9fd1fad7397aa030c12ffffffffc73853807682181c3e8bd0414a97a8917125ef7b6131659aaa413f05350f8af7000000006b483045022100999f3c39469efb4dfb73b49ae3a21d005fe0872721fdcef7de17d8d361428a7a02205942bbae9eded2dea4cf56a145721393940e589152ccc84b8abd8a9b1c1db5bd0121027e3fb6baff6934c6a92e8c7932ee4830a5e628cb098526584b301450d2f824feffffffff02e23e0000000000001976a91422aecdc170ba10b627d0361fa0f76df4082e381988accfaa0b00000000001976a914c20166fa9856750566cbdd4eef40ab841c87068588ac00000000", "vin": [{"sequence": 4294967295, "scriptSig": {"hex": "483045022100931e68a0c393881cacfe7b57d7550ed0c189f6cc66835d0346d023c98f40b647022028be13e642b28ae11a6b88a564a8442f972ad18ec7fb593bb6e534ccf154496f012102ea0ffceb8a5c24420b4d5e3a2013b94889df2e58f7f6c9fd1fad7397aa030c12", "asm": "3045022100931e68a0c393881cacfe7b57d7550ed0c189f6cc66835d0346d023c98f40b647022028be13e642b28ae11a6b88a564a8442f972ad18ec7fb593bb6e534ccf154496f[ALL] 02ea0ffceb8a5c24420b4d5e3a2013b94889df2e58f7f6c9fd1fad7397aa030c12"}, "vout": 0, "txid": "a8b831e6a31a0a56faa367c017d827ed3907caa97446240940ab612ca45e1b67"}, {"sequence": 4294967295, "scriptSig": {"hex": "483045022100999f3c39469efb4dfb73b49ae3a21d005fe0872721fdcef7de17d8d361428a7a02205942bbae9eded2dea4cf56a145721393940e589152ccc84b8abd8a9b1c1db5bd0121027e3fb6baff6934c6a92e8c7932ee4830a5e628cb098526584b301450d2f824fe", "asm": "3045022100999f3c39469efb4dfb73b49ae3a21d005fe0872721fdcef7de17d8d361428a7a02205942bbae9eded2dea4cf56a145721393940e589152ccc84b8abd8a9b1c1db5bd[ALL] 027e3fb6baff6934c6a92e8c7932ee4830a5e628cb098526584b301450d2f824fe"}, "vout": 0, "txid": "f78a0f35053f41aa9a6531617bef257191a8974a41d08b3e1c188276805338c7"}], "txid": "9ccc3efb8d12ac0b3ea58405cb3eaa30d005b3ed4a355094395b866449af6b7e", "blocktime": 1537869901, "version": 1, "confirmations": 11522, "time": 1537869901, "locktime": 0, "vsize": 374, "size": 374}