{"hash": "9ccd38afe12e3b66a442bf3c4b574d310515101e2c7efea95904374d755e8a46", "blockhash": "0000000000000000001e0dab787dd257d1dbfcb92a98c2207d5e1078be1f4165", "vout": [{"scriptPubKey": {"reqSigs": 1, "hex": "76a91402a344e4aa93126f954066047aee9e752a3058e188ac", "addresses": ["1EwwXCGGAznJuzCsYcd98YmsaXtezvQqv"], "asm": "OP_DUP OP_HASH160 02a344e4aa93126f954066047aee9e752a3058e1 OP_EQUALVERIFY OP_CHECKSIG", "type": "pubkeyhash"}, "value": 0.00781152, "n": 0}], "hex": "0100000001e6ad57bfca074cc4edb4bea08def52d00639a0042c4598c0fc5316897a506817000000006a473044022013b3003c77d062cde87c2b0bd622f3834f1a56ec2ae6c03a29a7071d36c4f1e40220312e174b51f67fd6541581429ca6b43b7f37a18d41023aaeceb80ed39a474b73012102ee2c99926347008ce0871f85a9a36701d3b30a2e7fa8a1a1274e4b8bce5dd514ffffffff0160eb0b00000000001976a91402a344e4aa93126f954066047aee9e752a3058e188ac00000000", "vin": [{"sequence": 4294967295, "scriptSig": {"hex": "473044022013b3003c77d062cde87c2b0bd622f3834f1a56ec2ae6c03a29a7071d36c4f1e40220312e174b51f67fd6541581429ca6b43b7f37a18d41023aaeceb80ed39a474b73012102ee2c99926347008ce0871f85a9a36701d3b30a2e7fa8a1a1274e4b8bce5dd514", "asm": "3044022013b3003c77d062cde87c2b0bd622f3834f1a56ec2ae6c03a29a7071d36c4f1e40220312e174b51f67fd6541581429ca6b43b7f37a18d41023aaeceb80ed39a474b73[ALL] 02ee2c99926347008ce0871f85a9a36701d3b30a2e7fa8a1a1274e4b8bce5dd514"}, "vout": 0, "txid": "1768507a891653fcc098452c04a03906d052ef8da0beb4edc44c07cabf57ade6"}], "txid": "9ccd38afe12e3b66a442bf3c4b574d310515101e2c7efea95904374d755e8a46", "blocktime": 1537872475, "version": 1, "confirmations": 11486, "time": 1537872475, "locktime": 0, "vsize": 191, "size": 191}