{"hash": "9cd787ae9fd501948c56af7f47f4eb223cd6a5b138dfb7cab35eefdf08a855b6", "blockhash": "0000000000000000001f0ddff1eddb255c1121bcd4da4f1bc9a0da00cae72433", "vout": [{"scriptPubKey": {"reqSigs": 1, "hex": "a914bd9547af1060eb96e92283a01b98f7b28e2414e687", "addresses": ["3JySTxTYR8nPbxnicv7KqiGB5q1N26iKHE"], "asm": "OP_HASH160 bd9547af1060eb96e92283a01b98f7b28e2414e6 OP_EQUAL", "type": "scripthash"}, "value": 0.00093876, "n": 0}], "hex": "010000000167ad8fd536c7a696120e6fdaed86cc29157a73680c660e60000283a370132ca7010000006a4730440220284e1492eb36e05630d75818308390e6e57a37eb81340e96a461ce8f8ff3850802206b9a2351cc9a634f6059ba9c364720dcd99eb535a892cfb237c4c1699e3d43540121030054a6bb7b174b220f5a2f70b838e6e21137e4c50d4462f33738f9bdcf5dd33fffffffff01b46e01000000000017a914bd9547af1060eb96e92283a01b98f7b28e2414e68700000000", "vin": [{"sequence": 4294967295, "scriptSig": {"hex": "4730440220284e1492eb36e05630d75818308390e6e57a37eb81340e96a461ce8f8ff3850802206b9a2351cc9a634f6059ba9c364720dcd99eb535a892cfb237c4c1699e3d43540121030054a6bb7b174b220f5a2f70b838e6e21137e4c50d4462f33738f9bdcf5dd33f", "asm": "30440220284e1492eb36e05630d75818308390e6e57a37eb81340e96a461ce8f8ff3850802206b9a2351cc9a634f6059ba9c364720dcd99eb535a892cfb237c4c1699e3d4354[ALL] 030054a6bb7b174b220f5a2f70b838e6e21137e4c50d4462f33738f9bdcf5dd33f"}, "vout": 1, "txid": "a72c1370a3830200600e660c68737a1529cc86edda6f0e1296a6c736d58fad67"}], "txid": "9cd787ae9fd501948c56af7f47f4eb223cd6a5b138dfb7cab35eefdf08a855b6", "blocktime": 1537872018, "version": 1, "confirmations": 11489, "time": 1537872018, "locktime": 0, "vsize": 189, "size": 189}