{"hash": "9cd89e251e8fabf6bcdc4923ae952c13daceb40ecf3a9577b4a3eb71e0a7c72b", "blockhash": "0000000000000000000baef3f32e3676a92c3b2e5da21b426e4f302fc371ce76", "vout": [{"scriptPubKey": {"reqSigs": 1, "hex": "76a91406eb73d2ca639610b8da57da576feb883f6e344b88ac", "addresses": ["1db7g2uHmL1A7fL9PL61QLyStnAEsLiE9"], "asm": "OP_DUP OP_HASH160 06eb73d2ca639610b8da57da576feb883f6e344b OP_EQUALVERIFY OP_CHECKSIG", "type": "pubkeyhash"}, "value": 0.00851319, "n": 0}, {"scriptPubKey": {"reqSigs": 1, "hex": "76a91420f7a2c2cde46564e03d9c4bf19e194a2cf12bed88ac", "addresses": ["141KHB8Cv5tRtKgzhnR7Z2heBLzsVyxge8"], "asm": "OP_DUP OP_HASH160 20f7a2c2cde46564e03d9c4bf19e194a2cf12bed OP_EQUALVERIFY OP_CHECKSIG", "type": "pubkeyhash"}, "value": 108.35529878, "n": 1}], "hex": "01000000012140dc599763d3ecff8c9b76837ec21384076db962cdb23043b602338833e2a7000000006a4730440220480240f5322755152e0affc6e8839aa318ce910943755b8855faf96bd00fe12102207c53da1f0a186df974aa0e09203e95f8b837b7cdae6ed5b2c117e5d6a568da6b01210293275c7355640b60981e4dd65bdabb0c06d27754355439805e34dd7417d7a9ceffffffff0277fd0c00000000001976a91406eb73d2ca639610b8da57da576feb883f6e344b88ac9610d985020000001976a91420f7a2c2cde46564e03d9c4bf19e194a2cf12bed88ac00000000", "vin": [{"sequence": 4294967295, "scriptSig": {"hex": "4730440220480240f5322755152e0affc6e8839aa318ce910943755b8855faf96bd00fe12102207c53da1f0a186df974aa0e09203e95f8b837b7cdae6ed5b2c117e5d6a568da6b01210293275c7355640b60981e4dd65bdabb0c06d27754355439805e34dd7417d7a9ce", "asm": "30440220480240f5322755152e0affc6e8839aa318ce910943755b8855faf96bd00fe12102207c53da1f0a186df974aa0e09203e95f8b837b7cdae6ed5b2c117e5d6a568da6b[ALL] 0293275c7355640b60981e4dd65bdabb0c06d27754355439805e34dd7417d7a9ce"}, "vout": 0, "txid": "a7e233883302b64330b2cd62b96d078413c27e83769b8cffecd3639759dc4021"}], "txid": "9cd89e251e8fabf6bcdc4923ae952c13daceb40ecf3a9577b4a3eb71e0a7c72b", "blocktime": 1537876114, "version": 1, "confirmations": 11459, "time": 1537876114, "locktime": 0, "vsize": 225, "size": 225}