{"hash": "9ce16acaa9f319d2a0eb740f7568d726a77d9342e5e93febb5fefe2c2eb03f41", "blockhash": "0000000000000000001f76057863aec43deb6fa401d9628bb513d65a8098bfab", "vout": [{"scriptPubKey": {"reqSigs": 1, "hex": "76a9146ca609250d97acfbcca2e0d63b7467818a800f8b88ac", "addresses": ["1AuUt5kQwGnsqXgSYdSDyshnGwLj3eVtwE"], "asm": "OP_DUP OP_HASH160 6ca609250d97acfbcca2e0d63b7467818a800f8b OP_EQUALVERIFY OP_CHECKSIG", "type": "pubkeyhash"}, "value": 10.87484693, "n": 0}, {"scriptPubKey": {"reqSigs": 1, "hex": "a914e7a04c511e78a4522c149bba4d728991e5068bf387", "addresses": ["3Nok3Zhx5Y9xQuXnMf4RjcTznjZFzcvmjm"], "asm": "OP_HASH160 e7a04c511e78a4522c149bba4d728991e5068bf3 OP_EQUAL", "type": "scripthash"}, "value": 0.02106684, "n": 1}], "hex": "02000000015926b0194852d4392c3b74bad8f5d264c41b33f58c84e30bf8d7d72cabd7a9b7010000006b483045022100dfdf61a7e3c242db4ca5ffc465a2accabe945f220960a755d0e95a58aa56286402205a06710f0eea18eee4a93f05a83d3bc6e6ce77a24dfcd47fca87c06a5fb77b690121039f420574bac385a540a981200a07881e5017872cd8c2499e023bb9044bd2cb19feffffff0215b3d140000000001976a9146ca609250d97acfbcca2e0d63b7467818a800f8b88ac3c2520000000000017a914e7a04c511e78a4522c149bba4d728991e5068bf38713490800", "vin": [{"sequence": 4294967294, "scriptSig": {"hex": "483045022100dfdf61a7e3c242db4ca5ffc465a2accabe945f220960a755d0e95a58aa56286402205a06710f0eea18eee4a93f05a83d3bc6e6ce77a24dfcd47fca87c06a5fb77b690121039f420574bac385a540a981200a07881e5017872cd8c2499e023bb9044bd2cb19", "asm": "3045022100dfdf61a7e3c242db4ca5ffc465a2accabe945f220960a755d0e95a58aa56286402205a06710f0eea18eee4a93f05a83d3bc6e6ce77a24dfcd47fca87c06a5fb77b69[ALL] 039f420574bac385a540a981200a07881e5017872cd8c2499e023bb9044bd2cb19"}, "vout": 1, "txid": "b7a9d7ab2cd7d7f80be3848cf5331bc464d2f5d8ba743b2c39d4524819b02659"}], "txid": "9ce16acaa9f319d2a0eb740f7568d726a77d9342e5e93febb5fefe2c2eb03f41", "blocktime": 1537873891, "version": 2, "confirmations": 11478, "time": 1537873891, "locktime": 542995, "vsize": 224, "size": 224}