{"hash": "9ce2a84c681a7ab4521c21b25ccdc39b62f69b5e27b4b31ebe79f4aa0ab6cc3f", "blockhash": "0000000000000000001f76057863aec43deb6fa401d9628bb513d65a8098bfab", "vout": [{"scriptPubKey": {"reqSigs": 1, "hex": "76a914d243e6abb9a60fbff430b421d2df4b7d59ec186088ac", "addresses": ["1LAnF8h3qMGx3TSwNUHVneBZUEpwE4gu3D"], "asm": "OP_DUP OP_HASH160 d243e6abb9a60fbff430b421d2df4b7d59ec1860 OP_EQUALVERIFY OP_CHECKSIG", "type": "pubkeyhash"}, "value": 0.00076972, "n": 0}, {"scriptPubKey": {"reqSigs": 1, "hex": "76a9143851f34d13937b673a7d24a1950bb5b21ce94af388ac", "addresses": ["168o1kqNquEJeR9vosUB5fw4eAwcVAgh8P"], "asm": "OP_DUP OP_HASH160 3851f34d13937b673a7d24a1950bb5b21ce94af3 OP_EQUALVERIFY OP_CHECKSIG", "type": "pubkeyhash"}, "value": 5.46e-06, "n": 1}, {"scriptPubKey": {"type": "nulldata", "hex": "6a146f6d6e69000000000000001f0000008628324200", "asm": "OP_RETURN 6f6d6e69000000000000001f0000008628324200"}, "value": 0.0, "n": 2}], "hex": "0100000002383552edbed4f65dd516bbac69077220f0fa8dffa0f2cc5c9a25213be9a7eb2e010000006a473044022020866a223b7a74e7dee723f9b2541edc28647da585955f049f18c1aacd05f0f102202c6a3e4470556d634bceb753c30450e84cf4af9fc26a6c740dcd8a1c77b946fa0121036df9277da3c36bb949d4de62e2903298a225cdc6f4011734694bbe376392dbccffffffff60c6c3fbb843170415309cff5759a9d8a8747b1759b0f258eb056faa66d404a1000000006b483045022100eeb43dffffeb7cf67894590086799c9ebe06e6e4a46e3a4719fecfd5af3c9d3f02207a69d111c4a8dc2bb8e0c5af2e61e5efaaf94814dac25bde57eea7867ecc06a301210271977291b74f1f5f5c42157e8aae804664eaaeccfd097918450d37f28fb94d77ffffffff03ac2c0100000000001976a914d243e6abb9a60fbff430b421d2df4b7d59ec186088ac22020000000000001976a9143851f34d13937b673a7d24a1950bb5b21ce94af388ac0000000000000000166a146f6d6e69000000000000001f000000862832420000000000", "vin": [{"sequence": 4294967295, "scriptSig": {"hex": "473044022020866a223b7a74e7dee723f9b2541edc28647da585955f049f18c1aacd05f0f102202c6a3e4470556d634bceb753c30450e84cf4af9fc26a6c740dcd8a1c77b946fa0121036df9277da3c36bb949d4de62e2903298a225cdc6f4011734694bbe376392dbcc", "asm": "3044022020866a223b7a74e7dee723f9b2541edc28647da585955f049f18c1aacd05f0f102202c6a3e4470556d634bceb753c30450e84cf4af9fc26a6c740dcd8a1c77b946fa[ALL] 036df9277da3c36bb949d4de62e2903298a225cdc6f4011734694bbe376392dbcc"}, "vout": 1, "txid": "2eeba7e93b21259a5cccf2a0ff8dfaf020720769acbb16d55df6d4beed523538"}, {"sequence": 4294967295, "scriptSig": {"hex": "483045022100eeb43dffffeb7cf67894590086799c9ebe06e6e4a46e3a4719fecfd5af3c9d3f02207a69d111c4a8dc2bb8e0c5af2e61e5efaaf94814dac25bde57eea7867ecc06a301210271977291b74f1f5f5c42157e8aae804664eaaeccfd097918450d37f28fb94d77", "asm": "3045022100eeb43dffffeb7cf67894590086799c9ebe06e6e4a46e3a4719fecfd5af3c9d3f02207a69d111c4a8dc2bb8e0c5af2e61e5efaaf94814dac25bde57eea7867ecc06a3[ALL] 0271977291b74f1f5f5c42157e8aae804664eaaeccfd097918450d37f28fb94d77"}, "vout": 0, "txid": "a104d466aa6f05eb58f2b059177b74a8d8a95957ff9c3015041743b8fbc3c660"}], "txid": "9ce2a84c681a7ab4521c21b25ccdc39b62f69b5e27b4b31ebe79f4aa0ab6cc3f", "blocktime": 1537873891, "version": 1, "confirmations": 11475, "time": 1537873891, "locktime": 0, "vsize": 404, "size": 404}