{"hash": "1742042e263ac93e720d3e82fb28e1dfcf532123d4b7088050175f55dd3253eb", "blockhash": "00000000000000000024a2167bbff67b0be802c0b01cdd79e6331c2be6459f87", "vout": [{"scriptPubKey": {"reqSigs": 1, "hex": "a914d54aee0be13fcb59acee825abae0a42a9d95500987", "addresses": ["3M8ocd3HjrvNLUeYWCHyUUXr6N2YUAS2F1"], "asm": "OP_HASH160 d54aee0be13fcb59acee825abae0a42a9d955009 OP_EQUAL", "type": "scripthash"}, "value": 0.01019867, "n": 0}, {"scriptPubKey": {"reqSigs": 1, "hex": "76a9140a5f7a70f55aa316e1f55c85cd0dbe2a061c976688ac", "addresses": ["1wr8sDy9mj2Wqf2n9XvTefr9FHAKujmuC"], "asm": "OP_DUP OP_HASH160 0a5f7a70f55aa316e1f55c85cd0dbe2a061c9766 OP_EQUALVERIFY OP_CHECKSIG", "type": "pubkeyhash"}, "value": 0.00940931, "n": 1}], "hex": "020000000001020514209282886e2c54aded8400a209994a19cc47659f0b3eeaf4acc965b9b87a0000000017160014cd4af6b3f370bd54ce60f486c38122a594dfe387feffffff487734f5ab392f1126565f42b0c9eaa84fd08fa48308ce762de12a4e9867040a010000001716001404bb13c3e9ed6a9766d76730a67acf567571e86efeffffff02db8f0f000000000017a914d54aee0be13fcb59acee825abae0a42a9d95500987835b0e00000000001976a9140a5f7a70f55aa316e1f55c85cd0dbe2a061c976688ac02483045022100c447784bcf082639e353d3e3c31e5beb3daf7a621d3d3e73f97dbe8fa2694c6102203e1c7fc3d483ac9c1563dfafdb1c1db51821983061dd5a3b22bc0110f3b2a747012103645b4694fb389ad3bb8f3426bb7e865ee1b207a89af99ef269cfee34be0abd7e02483045022100ecb6d2284ee94f63c6a709baf8908b0b55ae11ece48a64e6ed9a85e5522ef8980220530b9e34a12242c83b955419ad91a544448e8cdf3fe94600aab47463eabc251c0121038064f7fe15cd30e2f48949c026ae28ee31ce47949bbceb30916f453f1a554638e3480800", "vin": [{"txinwitness": ["3045022100c447784bcf082639e353d3e3c31e5beb3daf7a621d3d3e73f97dbe8fa2694c6102203e1c7fc3d483ac9c1563dfafdb1c1db51821983061dd5a3b22bc0110f3b2a74701", "03645b4694fb389ad3bb8f3426bb7e865ee1b207a89af99ef269cfee34be0abd7e"], "sequence": 4294967294, "scriptSig": {"hex": "160014cd4af6b3f370bd54ce60f486c38122a594dfe387", "asm": "0014cd4af6b3f370bd54ce60f486c38122a594dfe387"}, "vout": 0, "txid": "7ab8b965c9acf4ea3e0b9f6547cc194a9909a20084edad542c6e888292201405"}, {"txinwitness": ["3045022100ecb6d2284ee94f63c6a709baf8908b0b55ae11ece48a64e6ed9a85e5522ef8980220530b9e34a12242c83b955419ad91a544448e8cdf3fe94600aab47463eabc251c01", "038064f7fe15cd30e2f48949c026ae28ee31ce47949bbceb30916f453f1a554638"], "sequence": 4294967294, "scriptSig": {"hex": "16001404bb13c3e9ed6a9766d76730a67acf567571e86e", "asm": "001404bb13c3e9ed6a9766d76730a67acf567571e86e"}, "vout": 1, "txid": "0a0467984e2ae12d76ce0883a48fd04fa8eac9b0425f5626112f39abf5347748"}], "txid": "9ce84986ef94896f9f25d5a06ca525be0528324845886f84d5874df96e575b12", "blocktime": 1537870564, "version": 2, "confirmations": 11515, "time": 1537870564, "locktime": 542947, "vsize": 259, "size": 422}