{"hash": "9cea3f95b8fe052de1c6fed1a8988e27e1386e75f6ffbe6769b85c64e201888c", "blockhash": "0000000000000000000e13cef7c366c0283d82e591d1acd082e914b08063cdf1", "vout": [{"scriptPubKey": {"reqSigs": 1, "hex": "a914e0a1afc28f5cca6db3d6736101a3d0c67214161c87", "addresses": ["3NAkyh9mdZBaxeWXXtXm6pdft21UiZ5ehV"], "asm": "OP_HASH160 e0a1afc28f5cca6db3d6736101a3d0c67214161c OP_EQUAL", "type": "scripthash"}, "value": 0.1728194, "n": 0}, {"scriptPubKey": {"reqSigs": 1, "hex": "76a914e1c06138adf06884441070723a1a56b9c20068bd88ac", "addresses": ["1MafVwgAWDxLmbvyDatHSb4WpF67EzqRUp"], "asm": "OP_DUP OP_HASH160 e1c06138adf06884441070723a1a56b9c20068bd OP_EQUALVERIFY OP_CHECKSIG", "type": "pubkeyhash"}, "value": 0.8366, "n": 1}], "hex": "0200000001b8edcd9a8946a31c78a555c272917aa0ccd9a2430952534ddf5641aec5860ad802000000fdfd00004730440220012d0bc4da48c9e3e0c5f4a06f41a137e0ce25d2885e377e7855368a834ced7e02207a8c472fa8c812710f9bbc93c96e25f2ee7587f14a2dd2a24a620fcb1e7ae61101483045022100ccbc722e54dd138ca46f23d6ea52aa562c69360c8252dc59f253099915927675022077f96dce55a0ece1ce9acbf41ec22b0ad067a0a187d50172857106ba749d10fa014c695221028107984d3d7ad267c8d63ce15bec389551ed8b861f84c0cf2e484089115b65d921027b263db71ea4bacff379582775599a3d8e4491b53ad5c9389daeac8f429aa5b521021a9b9c14ea40b79bdf6c3f0b9c5aef8430b6c91bec0cdae47624e5708743923d53ae000000000294b307010000000017a914e0a1afc28f5cca6db3d6736101a3d0c67214161c87e08cfc04000000001976a914e1c06138adf06884441070723a1a56b9c20068bd88ac00000000", "vin": [{"sequence": 0, "scriptSig": {"hex": "004730440220012d0bc4da48c9e3e0c5f4a06f41a137e0ce25d2885e377e7855368a834ced7e02207a8c472fa8c812710f9bbc93c96e25f2ee7587f14a2dd2a24a620fcb1e7ae61101483045022100ccbc722e54dd138ca46f23d6ea52aa562c69360c8252dc59f253099915927675022077f96dce55a0ece1ce9acbf41ec22b0ad067a0a187d50172857106ba749d10fa014c695221028107984d3d7ad267c8d63ce15bec389551ed8b861f84c0cf2e484089115b65d921027b263db71ea4bacff379582775599a3d8e4491b53ad5c9389daeac8f429aa5b521021a9b9c14ea40b79bdf6c3f0b9c5aef8430b6c91bec0cdae47624e5708743923d53ae", "asm": "0 30440220012d0bc4da48c9e3e0c5f4a06f41a137e0ce25d2885e377e7855368a834ced7e02207a8c472fa8c812710f9bbc93c96e25f2ee7587f14a2dd2a24a620fcb1e7ae611[ALL] 3045022100ccbc722e54dd138ca46f23d6ea52aa562c69360c8252dc59f253099915927675022077f96dce55a0ece1ce9acbf41ec22b0ad067a0a187d50172857106ba749d10fa[ALL] 5221028107984d3d7ad267c8d63ce15bec389551ed8b861f84c0cf2e484089115b65d921027b263db71ea4bacff379582775599a3d8e4491b53ad5c9389daeac8f429aa5b521021a9b9c14ea40b79bdf6c3f0b9c5aef8430b6c91bec0cdae47624e5708743923d53ae"}, "vout": 2, "txid": "d80a86c5ae4156df4d53520943a2d9cca07a9172c255a5781ca346899acdedb8"}], "txid": "9cea3f95b8fe052de1c6fed1a8988e27e1386e75f6ffbe6769b85c64e201888c", "blocktime": 1537871767, "version": 2, "confirmations": 11491, "time": 1537871767, "locktime": 0, "vsize": 372, "size": 372}