{"hash": "abb7526d50437adaf38a1d58e9adf00944b42bb6da695970c2f9c705b2dea3cb", "blockhash": "0000000000000000000dcc0f55137456b1a82d3642486a52398922ac4d620174", "vout": [{"scriptPubKey": {"reqSigs": 1, "hex": "76a91492a9b000905a7b1c84c36d88fc7b40f48ca951fb88ac", "addresses": ["1ENUw6vEvkbZjNqpgfu2Y4dFphcZRbLxNn"], "asm": "OP_DUP OP_HASH160 92a9b000905a7b1c84c36d88fc7b40f48ca951fb OP_EQUALVERIFY OP_CHECKSIG", "type": "pubkeyhash"}, "value": 0.003324, "n": 0}, {"scriptPubKey": {"reqSigs": 1, "hex": "a9148ce1786180aedc08a99425a7b996157ff05c0b9787", "addresses": ["3EXvdM4oid6MaAmcYkomfddK9hGqHsez1A"], "asm": "OP_HASH160 8ce1786180aedc08a99425a7b996157ff05c0b97 OP_EQUAL", "type": "scripthash"}, "value": 0.01844449, "n": 1}], "hex": "010000000001011d8177ce4c316b8b4697e763e21e8c1d60b9d295e950a09126457275cfee81ef01000000232200201e8b08ff6f6dcea25be4ec787f2846e636a7049b9ed468a7eb12472595bd3edcffffffff0270120500000000001976a91492a9b000905a7b1c84c36d88fc7b40f48ca951fb88ace1241c000000000017a9148ce1786180aedc08a99425a7b996157ff05c0b97870400483045022100a05782f26edcfbe981c196eb3a617e7293ce45087b86b1611ae090aa61101f84022057ce08631f644f8106df5f52ea5e0a7426b8be56922835d20201eefd80c7801c01483045022100cb77f5978441728371603651875a5b720dd8f7c294233141998386a52ec64829022014317c52b6797c59361ed59ded6ac27175294461a1a76b5d0b7fb9ef7d2b932201475221027a268c4dbdee5466d9c4cdfce92221cf8bb23f7fcc7f1e73f7d7f2b350e288532103110e7eeb5380c93eb2fc9f5997e64e68bf4de158d120ecbb26a6336a25382c2d52ae00000000", "vin": [{"txinwitness": ["", "3045022100a05782f26edcfbe981c196eb3a617e7293ce45087b86b1611ae090aa61101f84022057ce08631f644f8106df5f52ea5e0a7426b8be56922835d20201eefd80c7801c01", "3045022100cb77f5978441728371603651875a5b720dd8f7c294233141998386a52ec64829022014317c52b6797c59361ed59ded6ac27175294461a1a76b5d0b7fb9ef7d2b932201", "5221027a268c4dbdee5466d9c4cdfce92221cf8bb23f7fcc7f1e73f7d7f2b350e288532103110e7eeb5380c93eb2fc9f5997e64e68bf4de158d120ecbb26a6336a25382c2d52ae"], "sequence": 4294967295, "scriptSig": {"hex": "2200201e8b08ff6f6dcea25be4ec787f2846e636a7049b9ed468a7eb12472595bd3edc", "asm": "00201e8b08ff6f6dcea25be4ec787f2846e636a7049b9ed468a7eb12472595bd3edc"}, "vout": 1, "txid": "ef81eecf7572452691a050e995d2b9601d8c1ee263e797468b6b314cce77811d"}], "txid": "9cebe680e8fced1f77564e402f75bad9ea166fbc1a057d1a8490538a9c846c3e", "blocktime": 1537870268, "version": 1, "confirmations": 11518, "time": 1537870268, "locktime": 0, "vsize": 208, "size": 374}