{"hash": "9ceb801f451b4eb3e447267341089777230e4373b5586263341d3ac402baf2f9", "blockhash": "0000000000000000001cda96e906b7601b7a6fb1a3b62bca570a9e5d8f4b3de1", "vout": [{"scriptPubKey": {"reqSigs": 1, "hex": "76a91432b52a2e89393edd0cf75e6859a52c6d10fcd67f88ac", "addresses": ["15d7p99xhgCVEXwgopqgQjYXL5nJqZdaA8"], "asm": "OP_DUP OP_HASH160 32b52a2e89393edd0cf75e6859a52c6d10fcd67f OP_EQUALVERIFY OP_CHECKSIG", "type": "pubkeyhash"}, "value": 0.00639916, "n": 0}, {"scriptPubKey": {"type": "nulldata", "hex": "6a4c50000077cb0001c21fbf9a798d46f81900506e5b23cc0f42c2fc38c5e5bf9ae76da98a211a04021f5b90bca51fe984b4018d1b81565baa13dc0612f1fba82f48b81d100759d4ba30d2c37bb011d97e02cf", "asm": "OP_RETURN 000077cb0001c21fbf9a798d46f81900506e5b23cc0f42c2fc38c5e5bf9ae76da98a211a04021f5b90bca51fe984b4018d1b81565baa13dc0612f1fba82f48b81d100759d4ba30d2c37bb011d97e02cf"}, "value": 0.0, "n": 1}], "hex": "0100000001fe243d97922a1a2d416edbcd54995fc3c1d5e6d04f6343dd00c018154c22d240010000006a4730440220083f2c650032f0b8771741dc82a866a83e720c903bf44a348f7f6ad8ad75c367022005b37dcf917e9bc2e5f86882de92b8e9ef3a4f79c12f6c24f262a81a50ca41d0012102b045ca8558034fded2613c44fbddb9a29f3e812229d72151b4b569bcf26a69cbffffffff02acc30900000000001976a91432b52a2e89393edd0cf75e6859a52c6d10fcd67f88ac0000000000000000536a4c50000077cb0001c21fbf9a798d46f81900506e5b23cc0f42c2fc38c5e5bf9ae76da98a211a04021f5b90bca51fe984b4018d1b81565baa13dc0612f1fba82f48b81d100759d4ba30d2c37bb011d97e02cf00000000", "vin": [{"sequence": 4294967295, "scriptSig": {"hex": "4730440220083f2c650032f0b8771741dc82a866a83e720c903bf44a348f7f6ad8ad75c367022005b37dcf917e9bc2e5f86882de92b8e9ef3a4f79c12f6c24f262a81a50ca41d0012102b045ca8558034fded2613c44fbddb9a29f3e812229d72151b4b569bcf26a69cb", "asm": "30440220083f2c650032f0b8771741dc82a866a83e720c903bf44a348f7f6ad8ad75c367022005b37dcf917e9bc2e5f86882de92b8e9ef3a4f79c12f6c24f262a81a50ca41d0[ALL] 02b045ca8558034fded2613c44fbddb9a29f3e812229d72151b4b569bcf26a69cb"}, "vout": 1, "txid": "40d2224c1518c000dd43634fd0e6d5c1c35f9954cddb6e412d1a2a92973d24fe"}], "txid": "9ceb801f451b4eb3e447267341089777230e4373b5586263341d3ac402baf2f9", "blocktime": 1537873282, "version": 1, "confirmations": 11484, "time": 1537873282, "locktime": 0, "vsize": 283, "size": 283}