{"hash": "1593e7694085ee3922c9a5a24a47a5aabca9765da2fae915dafe03c783c56747", "blockhash": "0000000000000000001e0dab787dd257d1dbfcb92a98c2207d5e1078be1f4165", "vout": [{"scriptPubKey": {"reqSigs": 1, "hex": "a914135c99f8d282db756f943dd578e765227856827b87", "addresses": ["33TPhFUCYa4K3JBhKLN9sMhBtjcWEByMrf"], "asm": "OP_HASH160 135c99f8d282db756f943dd578e765227856827b OP_EQUAL", "type": "scripthash"}, "value": 1.0, "n": 0}, {"scriptPubKey": {"reqSigs": 1, "hex": "a91428fa1eabc171770ced2713edc0fc7c361c7f57fb87", "addresses": ["35Rgar1vPzAhynq15wcNpD5FurR3ugMbRM"], "asm": "OP_HASH160 28fa1eabc171770ced2713edc0fc7c361c7f57fb OP_EQUAL", "type": "scripthash"}, "value": 0.33768877, "n": 1}], "hex": "01000000000101d43fda30790f9694dcd38e9b38d123d4104e3bc748a337a020007522d7a476f90100000017160014f4f0d276d56077616c1e50b21629ef4007145360ffffffff0200e1f5050000000017a914135c99f8d282db756f943dd578e765227856827b87ad4503020000000017a91428fa1eabc171770ced2713edc0fc7c361c7f57fb8702483045022100a86027dc20d3a10d353d02a3dc0c5033cead0cf8c3bbf5e66290ecd19fad76fc022018c24daa233c47be9b1d0931f6280f40f6cdda4307ccf4f7f4272cb512c8c12e012102016b58c136afa9d7fc8b8e1c10f6e7482a9dd4c2e72dc6f869c2663a083fd99300000000", "vin": [{"txinwitness": ["3045022100a86027dc20d3a10d353d02a3dc0c5033cead0cf8c3bbf5e66290ecd19fad76fc022018c24daa233c47be9b1d0931f6280f40f6cdda4307ccf4f7f4272cb512c8c12e01", "02016b58c136afa9d7fc8b8e1c10f6e7482a9dd4c2e72dc6f869c2663a083fd993"], "sequence": 4294967295, "scriptSig": {"hex": "160014f4f0d276d56077616c1e50b21629ef4007145360", "asm": "0014f4f0d276d56077616c1e50b21629ef4007145360"}, "vout": 1, "txid": "f976a4d722750020a037a348c73b4e10d423d1389b8ed3dc94960f7930da3fd4"}], "txid": "9cecea1bc54cb3d31a12aa8909b1c3c316d92ab21dc5bacd6e0a9764d8ff2c88", "blocktime": 1537872475, "version": 1, "confirmations": 11486, "time": 1537872475, "locktime": 0, "vsize": 166, "size": 248}