{"hash": "adce7860ba2fa95263e75e5c3ed7e99edf4fc278a345373f2ff7df669caf32f7", "blockhash": "0000000000000000001cda96e906b7601b7a6fb1a3b62bca570a9e5d8f4b3de1", "vout": [{"scriptPubKey": {"reqSigs": 1, "hex": "0014878985caeb83644910993bc76048b3f5f65e29bb", "addresses": ["bc1qs7yctjhtsdjyjyye80rkqj9n7hm9u2dmaznwn7"], "asm": "0 878985caeb83644910993bc76048b3f5f65e29bb", "type": "witness_v0_keyhash"}, "value": 0.14812436, "n": 0}, {"scriptPubKey": {"reqSigs": 1, "hex": "a91469f3758a55410dd1b838d4826eea3ec5c0be548387", "addresses": ["3BMEXXKxBqPb55ztFuUZZHD2r1xHRVAvUv"], "asm": "OP_HASH160 69f3758a55410dd1b838d4826eea3ec5c0be5483 OP_EQUAL", "type": "scripthash"}, "value": 0.01312953, "n": 1}], "hex": "010000000001011aca103abb744419be1ca7c5221b047a69ede15f0347fef82b2a80e192eb46f10100000000ffffffff021405e20000000000160014878985caeb83644910993bc76048b3f5f65e29bbb90814000000000017a91469f3758a55410dd1b838d4826eea3ec5c0be54838702483045022100898b8a6b9e43b952076eeb0b855ba728e41c0556793acd7200b8f110110715e40220580e7022ea12ed370950f4a5ccda6b569a39271521ee1a1d30bdbc4eb537237201210396956e6d0e4a716b8c939529fe7da2e86e3e126d991edb5d87516fde9a892d3900000000", "vin": [{"txinwitness": ["3045022100898b8a6b9e43b952076eeb0b855ba728e41c0556793acd7200b8f110110715e40220580e7022ea12ed370950f4a5ccda6b569a39271521ee1a1d30bdbc4eb537237201", "0396956e6d0e4a716b8c939529fe7da2e86e3e126d991edb5d87516fde9a892d39"], "sequence": 4294967295, "scriptSig": {"hex": "", "asm": ""}, "vout": 1, "txid": "f146eb92e1802a2bf8fe47035fe1ed697a041b22c5a71cbe194474bb3a10ca1a"}], "txid": "9cee3479e4a094a8314a91ff9092be0d4083395ee4afdc7709f674fef1197849", "blocktime": 1537873282, "version": 1, "confirmations": 11484, "time": 1537873282, "locktime": 0, "vsize": 142, "size": 224}