{"hash": "9cf0c1b3d08ef63cb6a79810ee34acd9cfb91a6183c1c1d43e0432fe2487c515", "blockhash": "00000000000000000004ffacab907a6b429b9a5745fa0b75af4234bf69dd7176", "vout": [{"scriptPubKey": {"reqSigs": 1, "hex": "21029d19215440d8cb9cc6c6b7a4744ae7fb9fb18d986e371b06aeb34b64845f9325ac", "addresses": ["1NTsRpptKGYkSLSnqRjteTNPD4S9FhqZyy"], "asm": "029d19215440d8cb9cc6c6b7a4744ae7fb9fb18d986e371b06aeb34b64845f9325 OP_CHECKSIG", "type": "pubkey"}, "value": 0.0001, "n": 0}, {"scriptPubKey": {"reqSigs": 1, "hex": "21029d19215440d8cb9cc6c6b7a4744ae7fb9fb18d986e371b06aeb34b64845f9325ac", "addresses": ["1NTsRpptKGYkSLSnqRjteTNPD4S9FhqZyy"], "asm": "029d19215440d8cb9cc6c6b7a4744ae7fb9fb18d986e371b06aeb34b64845f9325 OP_CHECKSIG", "type": "pubkey"}, "value": 0.0001, "n": 1}, {"scriptPubKey": {"reqSigs": 1, "hex": "21029d19215440d8cb9cc6c6b7a4744ae7fb9fb18d986e371b06aeb34b64845f9325ac", "addresses": ["1NTsRpptKGYkSLSnqRjteTNPD4S9FhqZyy"], "asm": "029d19215440d8cb9cc6c6b7a4744ae7fb9fb18d986e371b06aeb34b64845f9325 OP_CHECKSIG", "type": "pubkey"}, "value": 0.0001, "n": 2}, {"scriptPubKey": {"reqSigs": 1, "hex": "21029d19215440d8cb9cc6c6b7a4744ae7fb9fb18d986e371b06aeb34b64845f9325ac", "addresses": ["1NTsRpptKGYkSLSnqRjteTNPD4S9FhqZyy"], "asm": "029d19215440d8cb9cc6c6b7a4744ae7fb9fb18d986e371b06aeb34b64845f9325 OP_CHECKSIG", "type": "pubkey"}, "value": 0.0001, "n": 3}, {"scriptPubKey": {"reqSigs": 1, "hex": "21029d19215440d8cb9cc6c6b7a4744ae7fb9fb18d986e371b06aeb34b64845f9325ac", "addresses": ["1NTsRpptKGYkSLSnqRjteTNPD4S9FhqZyy"], "asm": "029d19215440d8cb9cc6c6b7a4744ae7fb9fb18d986e371b06aeb34b64845f9325 OP_CHECKSIG", "type": "pubkey"}, "value": 0.0001, "n": 4}, {"scriptPubKey": {"reqSigs": 1, "hex": "21029d19215440d8cb9cc6c6b7a4744ae7fb9fb18d986e371b06aeb34b64845f9325ac", "addresses": ["1NTsRpptKGYkSLSnqRjteTNPD4S9FhqZyy"], "asm": "029d19215440d8cb9cc6c6b7a4744ae7fb9fb18d986e371b06aeb34b64845f9325 OP_CHECKSIG", "type": "pubkey"}, "value": 0.0001, "n": 5}, {"scriptPubKey": {"reqSigs": 1, "hex": "21029d19215440d8cb9cc6c6b7a4744ae7fb9fb18d986e371b06aeb34b64845f9325ac", "addresses": ["1NTsRpptKGYkSLSnqRjteTNPD4S9FhqZyy"], "asm": "029d19215440d8cb9cc6c6b7a4744ae7fb9fb18d986e371b06aeb34b64845f9325 OP_CHECKSIG", "type": "pubkey"}, "value": 0.0001, "n": 6}, {"scriptPubKey": {"reqSigs": 1, "hex": "21029d19215440d8cb9cc6c6b7a4744ae7fb9fb18d986e371b06aeb34b64845f9325ac", "addresses": ["1NTsRpptKGYkSLSnqRjteTNPD4S9FhqZyy"], "asm": "029d19215440d8cb9cc6c6b7a4744ae7fb9fb18d986e371b06aeb34b64845f9325 OP_CHECKSIG", "type": "pubkey"}, "value": 0.0001, "n": 7}, {"scriptPubKey": {"reqSigs": 1, "hex": "21029d19215440d8cb9cc6c6b7a4744ae7fb9fb18d986e371b06aeb34b64845f9325ac", "addresses": ["1NTsRpptKGYkSLSnqRjteTNPD4S9FhqZyy"], "asm": "029d19215440d8cb9cc6c6b7a4744ae7fb9fb18d986e371b06aeb34b64845f9325 OP_CHECKSIG", "type": "pubkey"}, "value": 0.0001, "n": 8}, {"scriptPubKey": {"reqSigs": 1, "hex": "21029d19215440d8cb9cc6c6b7a4744ae7fb9fb18d986e371b06aeb34b64845f9325ac", "addresses": ["1NTsRpptKGYkSLSnqRjteTNPD4S9FhqZyy"], "asm": "029d19215440d8cb9cc6c6b7a4744ae7fb9fb18d986e371b06aeb34b64845f9325 OP_CHECKSIG", "type": "pubkey"}, "value": 0.0001, "n": 9}, {"scriptPubKey": {"reqSigs": 1, "hex": "76a914eb6f8d38d93ba6826ea82f797d6014e3cfd54f9d88ac", "addresses": ["1NTsRpptKGYkSLSnqRjteTNPD4S9FhqZyy"], "asm": "OP_DUP OP_HASH160 eb6f8d38d93ba6826ea82f797d6014e3cfd54f9d OP_EQUALVERIFY OP_CHECKSIG", "type": "pubkeyhash"}, "value": 0.18114, "n": 10}], "hex": "0100000001704cf182546917c3e578d780f0272c21db73358d2ce1ce67b82c841ec351f9931f0000006a473044022065d4411ac74011aee6f0e5153275cd28b621ed87892db4160a777b7caa86dd3c022005b8b34c314451cedb5c6177c730f5fbd23a21a7de61c51aaca528438bf5738a0121029d19215440d8cb9cc6c6b7a4744ae7fb9fb18d986e371b06aeb34b64845f9325ffffffff0b10270000000000002321029d19215440d8cb9cc6c6b7a4744ae7fb9fb18d986e371b06aeb34b64845f9325ac10270000000000002321029d19215440d8cb9cc6c6b7a4744ae7fb9fb18d986e371b06aeb34b64845f9325ac10270000000000002321029d19215440d8cb9cc6c6b7a4744ae7fb9fb18d986e371b06aeb34b64845f9325ac10270000000000002321029d19215440d8cb9cc6c6b7a4744ae7fb9fb18d986e371b06aeb34b64845f9325ac10270000000000002321029d19215440d8cb9cc6c6b7a4744ae7fb9fb18d986e371b06aeb34b64845f9325ac10270000000000002321029d19215440d8cb9cc6c6b7a4744ae7fb9fb18d986e371b06aeb34b64845f9325ac10270000000000002321029d19215440d8cb9cc6c6b7a4744ae7fb9fb18d986e371b06aeb34b64845f9325ac10270000000000002321029d19215440d8cb9cc6c6b7a4744ae7fb9fb18d986e371b06aeb34b64845f9325ac10270000000000002321029d19215440d8cb9cc6c6b7a4744ae7fb9fb18d986e371b06aeb34b64845f9325ac10270000000000002321029d19215440d8cb9cc6c6b7a4744ae7fb9fb18d986e371b06aeb34b64845f9325acd0651401000000001976a914eb6f8d38d93ba6826ea82f797d6014e3cfd54f9d88ac00000000", "vin": [{"sequence": 4294967295, "scriptSig": {"hex": "473044022065d4411ac74011aee6f0e5153275cd28b621ed87892db4160a777b7caa86dd3c022005b8b34c314451cedb5c6177c730f5fbd23a21a7de61c51aaca528438bf5738a0121029d19215440d8cb9cc6c6b7a4744ae7fb9fb18d986e371b06aeb34b64845f9325", "asm": "3044022065d4411ac74011aee6f0e5153275cd28b621ed87892db4160a777b7caa86dd3c022005b8b34c314451cedb5c6177c730f5fbd23a21a7de61c51aaca528438bf5738a[ALL] 029d19215440d8cb9cc6c6b7a4744ae7fb9fb18d986e371b06aeb34b64845f9325"}, "vout": 31, "txid": "93f951c31e842cb867cee12c8d3573db212c27f080d778e5c317695482f14c70"}], "txid": "9cf0c1b3d08ef63cb6a79810ee34acd9cfb91a6183c1c1d43e0432fe2487c515", "blocktime": 1537875543, "version": 1, "confirmations": 11464, "time": 1537875543, "locktime": 0, "vsize": 631, "size": 631}