{"hash": "9cf120a0297819b2746bc19f68bb88fad16238753e8dcf5e565dedf0bb637760", "blockhash": "0000000000000000001f76057863aec43deb6fa401d9628bb513d65a8098bfab", "vout": [{"scriptPubKey": {"reqSigs": 1, "hex": "76a9143a7bdc09e1d5a9895ef2ac9b2c224da964fdbb9b88ac", "addresses": ["16LEa396HZyLX7cJiWFxXVHXhzjijRvn7Q"], "asm": "OP_DUP OP_HASH160 3a7bdc09e1d5a9895ef2ac9b2c224da964fdbb9b OP_EQUALVERIFY OP_CHECKSIG", "type": "pubkeyhash"}, "value": 0.04645699, "n": 0}, {"scriptPubKey": {"reqSigs": 1, "hex": "76a914b7888cc82fdecaf88856880550ac43fe948b8cae88ac", "addresses": ["1HjSEm71Kqt31Va9JhJk2SvztwotZkQJFN"], "asm": "OP_DUP OP_HASH160 b7888cc82fdecaf88856880550ac43fe948b8cae OP_EQUALVERIFY OP_CHECKSIG", "type": "pubkeyhash"}, "value": 0.00854301, "n": 1}], "hex": "0200000001ef8c1d1dea1fcb85b4bf8a97389baac033ff854dbbb0f8a40bcf16aa34b87ec5000000006b483045022100ac46d6796af85ded99308f77519fb2fceea82fc489c43ed7f6434cd87842a0f502200aae83b98dc44bc50442a7a58ce2913a8116135739f851279963fb3b39bc17e8012102dfaf2be32c8a705d7bb04aea8a59104fe494717d4bc41e799a0bd811395ba522ffffffff0243e34600000000001976a9143a7bdc09e1d5a9895ef2ac9b2c224da964fdbb9b88ac1d090d00000000001976a914b7888cc82fdecaf88856880550ac43fe948b8cae88ac00000000", "vin": [{"sequence": 4294967295, "scriptSig": {"hex": "483045022100ac46d6796af85ded99308f77519fb2fceea82fc489c43ed7f6434cd87842a0f502200aae83b98dc44bc50442a7a58ce2913a8116135739f851279963fb3b39bc17e8012102dfaf2be32c8a705d7bb04aea8a59104fe494717d4bc41e799a0bd811395ba522", "asm": "3045022100ac46d6796af85ded99308f77519fb2fceea82fc489c43ed7f6434cd87842a0f502200aae83b98dc44bc50442a7a58ce2913a8116135739f851279963fb3b39bc17e8[ALL] 02dfaf2be32c8a705d7bb04aea8a59104fe494717d4bc41e799a0bd811395ba522"}, "vout": 0, "txid": "c57eb834aa16cf0ba4f8b0bb4d85ff33c0aa9b38978abfb485cb1fea1d1d8cef"}], "txid": "9cf120a0297819b2746bc19f68bb88fad16238753e8dcf5e565dedf0bb637760", "blocktime": 1537873891, "version": 2, "confirmations": 11474, "time": 1537873891, "locktime": 0, "vsize": 226, "size": 226}