{"hash": "9cf4cc62a4ef525d274f3b094ddccaae7357e39a429c6509644030f920833bbf", "blockhash": "00000000000000000017f5eb5941039fbcee6240d03bc1f2f8e35350df66a1d8", "vout": [{"scriptPubKey": {"reqSigs": 1, "hex": "76a914f6ff61f68ede51e379f8a3bc4fd67d814c14dd7e88ac", "addresses": ["1PX1AVNYmxYGrxhYTvNNifBJEWA4brnHng"], "asm": "OP_DUP OP_HASH160 f6ff61f68ede51e379f8a3bc4fd67d814c14dd7e OP_EQUALVERIFY OP_CHECKSIG", "type": "pubkeyhash"}, "value": 0.00131332, "n": 0}], "hex": "0100000002f11ad16aeb8dcb0f3a2b276cf90407d7009987f586bc03253c89bb30b8defd00000000006b483045022100cb91c2c570638116e2d321fb046c73a37ef0cfc3e0865e31668fc8b0d33e7cc002200b00f37c9e313584fca4731f3942d7df84a5a1689e47d6c0dd7f4ee295d00d93012103aa517f6ed0c03665235eb395a6ed3bfc200e0917d572b12c42e14949fbca011fffffffffd89e5697560411f05b5f8dc6fd34dc794c47c7edb97d702bc4bc2f3d969c03c2000000006b483045022100a4e56da143835acb749ae75cf595b73f4e451d0d31afefd3764f7fd7f90d0fa5022011035e9b2d42c9dad31c5562a4762549cc45231a8fd6a459e7bbe778cb2aed3e012102f0efcd2b0e502022e3c2eca68dad84328e7cbc1a5a0ab2b01bf5f36e1da37ebeffffffff0104010200000000001976a914f6ff61f68ede51e379f8a3bc4fd67d814c14dd7e88ac00000000", "vin": [{"sequence": 4294967295, "scriptSig": {"hex": "483045022100cb91c2c570638116e2d321fb046c73a37ef0cfc3e0865e31668fc8b0d33e7cc002200b00f37c9e313584fca4731f3942d7df84a5a1689e47d6c0dd7f4ee295d00d93012103aa517f6ed0c03665235eb395a6ed3bfc200e0917d572b12c42e14949fbca011f", "asm": "3045022100cb91c2c570638116e2d321fb046c73a37ef0cfc3e0865e31668fc8b0d33e7cc002200b00f37c9e313584fca4731f3942d7df84a5a1689e47d6c0dd7f4ee295d00d93[ALL] 03aa517f6ed0c03665235eb395a6ed3bfc200e0917d572b12c42e14949fbca011f"}, "vout": 0, "txid": "00fddeb830bb893c2503bc86f5879900d70704f96c272b3a0fcb8deb6ad11af1"}, {"sequence": 4294967295, "scriptSig": {"hex": "483045022100a4e56da143835acb749ae75cf595b73f4e451d0d31afefd3764f7fd7f90d0fa5022011035e9b2d42c9dad31c5562a4762549cc45231a8fd6a459e7bbe778cb2aed3e012102f0efcd2b0e502022e3c2eca68dad84328e7cbc1a5a0ab2b01bf5f36e1da37ebe", "asm": "3045022100a4e56da143835acb749ae75cf595b73f4e451d0d31afefd3764f7fd7f90d0fa5022011035e9b2d42c9dad31c5562a4762549cc45231a8fd6a459e7bbe778cb2aed3e[ALL] 02f0efcd2b0e502022e3c2eca68dad84328e7cbc1a5a0ab2b01bf5f36e1da37ebe"}, "vout": 0, "txid": "c2039c963d2fbcc42b707db9edc7474c79dc34fdc68d5f5bf011045697569ed8"}], "txid": "9cf4cc62a4ef525d274f3b094ddccaae7357e39a429c6509644030f920833bbf", "blocktime": 1537874412, "version": 1, "confirmations": 11467, "time": 1537874412, "locktime": 0, "vsize": 340, "size": 340}