{"hash": "9cf5dc860dad333a50de4370f2e8eb280939de9ac4ea84105dce1b40f7f20d95", "blockhash": "00000000000000000017f5eb5941039fbcee6240d03bc1f2f8e35350df66a1d8", "vout": [{"scriptPubKey": {"reqSigs": 1, "hex": "76a9149432d46b7b0e665742f886a6822276ca1e50022d88ac", "addresses": ["1EWbu75rXPACzUdyDbUACVdT2ywTmSHGFB"], "asm": "OP_DUP OP_HASH160 9432d46b7b0e665742f886a6822276ca1e50022d OP_EQUALVERIFY OP_CHECKSIG", "type": "pubkeyhash"}, "value": 0.00231978, "n": 0}, {"scriptPubKey": {"reqSigs": 1, "hex": "76a9140c1ae5752e5f60bf116bf6c6887707f9602857f988ac", "addresses": ["1271L6H6YQ26VFUUdFc5hFTgQfS2tbA1XZ"], "asm": "OP_DUP OP_HASH160 0c1ae5752e5f60bf116bf6c6887707f9602857f9 OP_EQUALVERIFY OP_CHECKSIG", "type": "pubkeyhash"}, "value": 0.0077, "n": 1}], "hex": "01000000025ebb110e20376b7325ae77c9b62a50f9257c5c5bf5e15631a73271367da27405010000006a4730440220198118e149d002157d12bc7d8594e64887cc735c0120f85291b5db7bbe870cb502204ecf972110fa836ee031a938b2f20792468154dd6e76c35a2fea80cc73a61658012102b2cbf53e0ba683f300eb2f26bab80f5dec20ed63a05a9e5ea22c18284760223bffffffff604fbe8ba7e2812fc64945e268d86a94e3fb5278ae7e21dc145f15baa5f84962010000006a473044022016249d1c73b7d8b986c93a6abe46a33d854f50789fa9f611977e357c20af2c3602206e17910d213e3b3f2af7791d33d67f631a58fc0a1fd42c19f03f270dbe07b8d2012102b2cbf53e0ba683f300eb2f26bab80f5dec20ed63a05a9e5ea22c18284760223bffffffff022a8a0300000000001976a9149432d46b7b0e665742f886a6822276ca1e50022d88acd0bf0b00000000001976a9140c1ae5752e5f60bf116bf6c6887707f9602857f988ac00000000", "vin": [{"sequence": 4294967295, "scriptSig": {"hex": "4730440220198118e149d002157d12bc7d8594e64887cc735c0120f85291b5db7bbe870cb502204ecf972110fa836ee031a938b2f20792468154dd6e76c35a2fea80cc73a61658012102b2cbf53e0ba683f300eb2f26bab80f5dec20ed63a05a9e5ea22c18284760223b", "asm": "30440220198118e149d002157d12bc7d8594e64887cc735c0120f85291b5db7bbe870cb502204ecf972110fa836ee031a938b2f20792468154dd6e76c35a2fea80cc73a61658[ALL] 02b2cbf53e0ba683f300eb2f26bab80f5dec20ed63a05a9e5ea22c18284760223b"}, "vout": 1, "txid": "0574a27d367132a73156e1f55b5c7c25f9502ab6c977ae25736b37200e11bb5e"}, {"sequence": 4294967295, "scriptSig": {"hex": "473044022016249d1c73b7d8b986c93a6abe46a33d854f50789fa9f611977e357c20af2c3602206e17910d213e3b3f2af7791d33d67f631a58fc0a1fd42c19f03f270dbe07b8d2012102b2cbf53e0ba683f300eb2f26bab80f5dec20ed63a05a9e5ea22c18284760223b", "asm": "3044022016249d1c73b7d8b986c93a6abe46a33d854f50789fa9f611977e357c20af2c3602206e17910d213e3b3f2af7791d33d67f631a58fc0a1fd42c19f03f270dbe07b8d2[ALL] 02b2cbf53e0ba683f300eb2f26bab80f5dec20ed63a05a9e5ea22c18284760223b"}, "vout": 1, "txid": "6249f8a5ba155f14dc217eae7852fbe3946ad868e24549c62f81e2a78bbe4f60"}], "txid": "9cf5dc860dad333a50de4370f2e8eb280939de9ac4ea84105dce1b40f7f20d95", "blocktime": 1537874412, "version": 1, "confirmations": 11467, "time": 1537874412, "locktime": 0, "vsize": 372, "size": 372}