{"hash": "5c6ac6cb17f5d70c81dd8369120e3a3795b254be5cf8d3572ac2b0c16b42f360", "blockhash": "0000000000000000001f0ddff1eddb255c1121bcd4da4f1bc9a0da00cae72433", "vout": [{"scriptPubKey": {"reqSigs": 1, "hex": "76a91464e38dc991f6b51cba4c695a69f2576f8385133c88ac", "addresses": ["1ACTAuL1w37pwxZk2jm3c5h4DW4BCnvekU"], "asm": "OP_DUP OP_HASH160 64e38dc991f6b51cba4c695a69f2576f8385133c OP_EQUALVERIFY OP_CHECKSIG", "type": "pubkeyhash"}, "value": 0.0005705, "n": 0}], "hex": "01000000000101ee7277ff98c95df2bd80e1ec324953f23dee28eb4b8c373c054658456cafbb470000000017160014bae00a1931929ed832949d5e04a15c81a75ee460ffffffff01dade0000000000001976a91464e38dc991f6b51cba4c695a69f2576f8385133c88ac02483045022100a77d5a687aa99e663a1391239b252e828f5ddfb12e92d8b0f68ff6d35788dab8022053a1747a0682a3ac398a5635f6e3bb17df6dc62f2b724677eff5597a29420696012103d3c2e79cdd913b0b4532df4657183471083cde48168590f1ed85a0be02197fea00000000", "vin": [{"txinwitness": ["3045022100a77d5a687aa99e663a1391239b252e828f5ddfb12e92d8b0f68ff6d35788dab8022053a1747a0682a3ac398a5635f6e3bb17df6dc62f2b724677eff5597a2942069601", "03d3c2e79cdd913b0b4532df4657183471083cde48168590f1ed85a0be02197fea"], "sequence": 4294967295, "scriptSig": {"hex": "160014bae00a1931929ed832949d5e04a15c81a75ee460", "asm": "0014bae00a1931929ed832949d5e04a15c81a75ee460"}, "vout": 0, "txid": "47bbaf6c455846053c378c4beb28ee3df2534932ece180bdf25dc998ff7772ee"}], "txid": "9cf92c89efb99875e8ab356e8c02d770ddf0e7013972d4d2e7a5d150fe5e84e6", "blocktime": 1537872018, "version": 1, "confirmations": 11489, "time": 1537872018, "locktime": 0, "vsize": 136, "size": 218}