{"hash": "3fb57735f125fc7e5a2f3300aa8c6344911ffa0c011c9185a2cd725c7b025fd9", "blockhash": "00000000000000000018f53835495a110e01622372bf6ae95dc86f2b0ab887b0", "vout": [{"scriptPubKey": {"reqSigs": 1, "hex": "76a914b1714545e7e250995495594872500fbf1ffcc01788ac", "addresses": ["1HBEJ8ikm5WW3Y7qMe4UVe643XX2nhJyGM"], "asm": "OP_DUP OP_HASH160 b1714545e7e250995495594872500fbf1ffcc017 OP_EQUALVERIFY OP_CHECKSIG", "type": "pubkeyhash"}, "value": 0.0949, "n": 0}, {"scriptPubKey": {"reqSigs": 1, "hex": "a914226320215b8d2b57d62332370bfbf309512c344787", "addresses": ["34pqeRj1MarMA2Nscdrda6GZxQdr5Eox6U"], "asm": "OP_HASH160 226320215b8d2b57d62332370bfbf309512c3447 OP_EQUAL", "type": "scripthash"}, "value": 0.01033547, "n": 1}], "hex": "02000000000102295e933631039c4c0d7bcbcfbb3cd61e986b59ba47fc203e0a8185fc093f4c790000000017160014ea6983b6a6f9e670ad911fc593aad0cdfe8f3993feffffffb0892a8daf339408da7a45170ed05e11052143c635a280c2242c7df87b5ec03501000000171600143271c60d338ea1e15804e67cc8a6b003d6710b65feffffff0250ce9000000000001976a914b1714545e7e250995495594872500fbf1ffcc01788ac4bc50f000000000017a914226320215b8d2b57d62332370bfbf309512c3447870247304402203f73d6ae11b712526ada5734b6f084528a42294f91107bc832de4f7af0301ac6022022cf4a9bb145ac89387604123b138b0cf2687781982c0123c4088a68924cb3eb012102f4baa9c2bfba8c4892e093a49c52a61e408f7657092fc9eee8cb6161420e85ee02483045022100b472a877d8d4094537a315a51c122f4af8cd44659b8105bac97da90fc92617230220771c5536991de5db367eee5eddbe538637ad02cfc1af569900475d0a902c75f50121025c4e8f5e787587f138a98bac65f4c4b389e6e35f5347d1cc828977f8003a8c890e490800", "vin": [{"txinwitness": ["304402203f73d6ae11b712526ada5734b6f084528a42294f91107bc832de4f7af0301ac6022022cf4a9bb145ac89387604123b138b0cf2687781982c0123c4088a68924cb3eb01", "02f4baa9c2bfba8c4892e093a49c52a61e408f7657092fc9eee8cb6161420e85ee"], "sequence": 4294967294, "scriptSig": {"hex": "160014ea6983b6a6f9e670ad911fc593aad0cdfe8f3993", "asm": "0014ea6983b6a6f9e670ad911fc593aad0cdfe8f3993"}, "vout": 0, "txid": "794c3f09fc85810a3e20fc47ba596b981ed63cbbcfcb7b0d4c9c033136935e29"}, {"txinwitness": ["3045022100b472a877d8d4094537a315a51c122f4af8cd44659b8105bac97da90fc92617230220771c5536991de5db367eee5eddbe538637ad02cfc1af569900475d0a902c75f501", "025c4e8f5e787587f138a98bac65f4c4b389e6e35f5347d1cc828977f8003a8c89"], "sequence": 4294967294, "scriptSig": {"hex": "1600143271c60d338ea1e15804e67cc8a6b003d6710b65", "asm": "00143271c60d338ea1e15804e67cc8a6b003d6710b65"}, "vout": 1, "txid": "35c05e7bf87d2c24c280a235c6432105115ed00e17457ada089433af8d2a89b0"}], "txid": "9cfa325aea5f5229df9a61b4f2fe37f0c571d0623f6edc8c0125c2f837888435", "blocktime": 1537870928, "version": 2, "confirmations": 11514, "time": 1537870928, "locktime": 542990, "vsize": 259, "size": 421}