{"hash": "9cfae564ec3fa43c8b093751279ad8fcc07da936cc5fd285aa821133ecc5e585", "blockhash": "0000000000000000000dcc0f55137456b1a82d3642486a52398922ac4d620174", "vout": [{"scriptPubKey": {"reqSigs": 1, "hex": "76a914c4ea871ff260a92f3ab54e1f5be611bece757e6688ac", "addresses": ["1JxCPsw6m3Z2kjEW9juWAY5T8cKQevijyR"], "asm": "OP_DUP OP_HASH160 c4ea871ff260a92f3ab54e1f5be611bece757e66 OP_EQUALVERIFY OP_CHECKSIG", "type": "pubkeyhash"}, "value": 0.00648999, "n": 0}, {"scriptPubKey": {"type": "nulldata", "hex": "6a4c500000777500018bdb47bcbefa6b8351586b4e86aeaeacb577c031fc3a016b46dc7dc7d096a6113f1ce4f05d25b7db32a4dfe90b7d5baa0941061473625010671e1d100759d4ba30d2c37bb011d97e02cf", "asm": "OP_RETURN 0000777500018bdb47bcbefa6b8351586b4e86aeaeacb577c031fc3a016b46dc7dc7d096a6113f1ce4f05d25b7db32a4dfe90b7d5baa0941061473625010671e1d100759d4ba30d2c37bb011d97e02cf"}, "value": 0.0, "n": 1}], "hex": "01000000014a2dd3c8bc678d9795c2acc9112e151149cfb79d1508e0e89c8628eae3cb7f8d010000006b483045022100b4c3f3ea68549176e1d9c60a4684a017eafe8e85927229a00866d529efc5aec7022032531cc3c2c60d44bc1f3343842cb6c6ac0be4e5d4dd40fe01c40c57791a360601210324ef8c9c421331919d960d81acceef4857b4e88285c84ab3af2a4f65f2ea0388ffffffff0227e70900000000001976a914c4ea871ff260a92f3ab54e1f5be611bece757e6688ac0000000000000000536a4c500000777500018bdb47bcbefa6b8351586b4e86aeaeacb577c031fc3a016b46dc7dc7d096a6113f1ce4f05d25b7db32a4dfe90b7d5baa0941061473625010671e1d100759d4ba30d2c37bb011d97e02cf00000000", "vin": [{"sequence": 4294967295, "scriptSig": {"hex": "483045022100b4c3f3ea68549176e1d9c60a4684a017eafe8e85927229a00866d529efc5aec7022032531cc3c2c60d44bc1f3343842cb6c6ac0be4e5d4dd40fe01c40c57791a360601210324ef8c9c421331919d960d81acceef4857b4e88285c84ab3af2a4f65f2ea0388", "asm": "3045022100b4c3f3ea68549176e1d9c60a4684a017eafe8e85927229a00866d529efc5aec7022032531cc3c2c60d44bc1f3343842cb6c6ac0be4e5d4dd40fe01c40c57791a3606[ALL] 0324ef8c9c421331919d960d81acceef4857b4e88285c84ab3af2a4f65f2ea0388"}, "vout": 1, "txid": "8d7fcbe3ea28869ce8e008159db7cf4911152e11c9acc295978d67bcc8d32d4a"}], "txid": "9cfae564ec3fa43c8b093751279ad8fcc07da936cc5fd285aa821133ecc5e585", "blocktime": 1537870268, "version": 1, "confirmations": 11518, "time": 1537870268, "locktime": 0, "vsize": 284, "size": 284}