{"hash": "9d089571f9795e0940216f3afc22061589dea5cb60f8bec8bb587372b6cb2435", "blockhash": "0000000000000000000dcc0f55137456b1a82d3642486a52398922ac4d620174", "vout": [{"scriptPubKey": {"reqSigs": 1, "hex": "76a914af73af61a357bf54354068695912d981b819338088ac", "addresses": ["1GzhqWdV8fRHV3FexXJ1dCDFYPCfHjb88h"], "asm": "OP_DUP OP_HASH160 af73af61a357bf54354068695912d981b8193380 OP_EQUALVERIFY OP_CHECKSIG", "type": "pubkeyhash"}, "value": 1.0, "n": 0}, {"scriptPubKey": {"reqSigs": 1, "hex": "a914a3e4383945c3f5ee6cb729e414cc1c4ab3dfbe0887", "addresses": ["3GdbTnkNosDck7tcqPjwQTvDqMuKFGb68N"], "asm": "OP_HASH160 a3e4383945c3f5ee6cb729e414cc1c4ab3dfbe08 OP_EQUAL", "type": "scripthash"}, "value": 19.35463355, "n": 1}], "hex": "0200000001da3955acafa8d6b53299268111ed0fee6d139cd797b551aca7d9caf8417e26e000000000da00483045022100a7764888c2471b2fa560bf641bb865debe3cdb4f8f17fa6dcf80065dd395485e02200583e8125eac4ab05c33c6c7d4427bcb77f6c3e318180ec992c817465632f47701473044022039140f52b8790cf365caff693a90e5950048925e09c023016c7fe8ec3991224b0220099f75a5f2b007e824c6128dbbde0e1a686c6cdd375569651903ebc6884a19240147522103071ea2f6e7e5af0b01e482b84f8e14124e37f119897713bdedd4a86d85aa8406210319ac7f304828d720179de7c08f935623d176cc0a8984affc988e640f5eb069b552aeffffffff0200e1f505000000001976a914af73af61a357bf54354068695912d981b819338088acbbd35c730000000017a914a3e4383945c3f5ee6cb729e414cc1c4ab3dfbe088700000000", "vin": [{"sequence": 4294967295, "scriptSig": {"hex": "00483045022100a7764888c2471b2fa560bf641bb865debe3cdb4f8f17fa6dcf80065dd395485e02200583e8125eac4ab05c33c6c7d4427bcb77f6c3e318180ec992c817465632f47701473044022039140f52b8790cf365caff693a90e5950048925e09c023016c7fe8ec3991224b0220099f75a5f2b007e824c6128dbbde0e1a686c6cdd375569651903ebc6884a19240147522103071ea2f6e7e5af0b01e482b84f8e14124e37f119897713bdedd4a86d85aa8406210319ac7f304828d720179de7c08f935623d176cc0a8984affc988e640f5eb069b552ae", "asm": "0 3045022100a7764888c2471b2fa560bf641bb865debe3cdb4f8f17fa6dcf80065dd395485e02200583e8125eac4ab05c33c6c7d4427bcb77f6c3e318180ec992c817465632f477[ALL] 3044022039140f52b8790cf365caff693a90e5950048925e09c023016c7fe8ec3991224b0220099f75a5f2b007e824c6128dbbde0e1a686c6cdd375569651903ebc6884a1924[ALL] 522103071ea2f6e7e5af0b01e482b84f8e14124e37f119897713bdedd4a86d85aa8406210319ac7f304828d720179de7c08f935623d176cc0a8984affc988e640f5eb069b552ae"}, "vout": 0, "txid": "e0267e41f8cad9a7ac51b597d79c136dee0fed1181269932b5d6a8afac5539da"}], "txid": "9d089571f9795e0940216f3afc22061589dea5cb60f8bec8bb587372b6cb2435", "blocktime": 1537870268, "version": 2, "confirmations": 11516, "time": 1537870268, "locktime": 0, "vsize": 335, "size": 335}