{"hash": "639aa98512fed17a9c2d99f0a631fedfa015fa37f63209b98e2226aae52b45b0", "blockhash": "0000000000000000001f0ddff1eddb255c1121bcd4da4f1bc9a0da00cae72433", "vout": [{"scriptPubKey": {"reqSigs": 1, "hex": "a914e80223adad7d5c0946ee8dbfab28e07acc9d9bdb87", "addresses": ["3NqmFhE6iUbq985PafH8AFCuFZqXw9CvUN"], "asm": "OP_HASH160 e80223adad7d5c0946ee8dbfab28e07acc9d9bdb OP_EQUAL", "type": "scripthash"}, "value": 0.00997322, "n": 0}, {"scriptPubKey": {"reqSigs": 1, "hex": "76a91492aa18168473136cabbc1f1aeba43843c6de3dae88ac", "addresses": ["1ENVRMRJpKWr34rJYE4NBBCGsYQD57DXah"], "asm": "OP_DUP OP_HASH160 92aa18168473136cabbc1f1aeba43843c6de3dae OP_EQUALVERIFY OP_CHECKSIG", "type": "pubkeyhash"}, "value": 0.0589637, "n": 1}], "hex": "020000000001027b7859d12c5b7f2a070fa15dcdc40bffbdcad8f4207fee99619ea48772941d2f0400000017160014783b2198969d4ccbd32d6fe4a68121dfbd6a2144feffffffa56f163c8ba16dd1743c96cddc611f8bfb336c4e246eb124f20cd57da5d1aebf0000000017160014b2392bb20a16e64ebd1603050135cf63aafef3fefeffffff02ca370f000000000017a914e80223adad7d5c0946ee8dbfab28e07acc9d9bdb87b2f85900000000001976a91492aa18168473136cabbc1f1aeba43843c6de3dae88ac02483045022100fac1550c2f1629ce5f1588b89b858b25b172cc7f482ab0baa26058a16cfa7d26022034ac244403a944aa2315a11c79898d174ae2b323f578200427dbc28ab35ab9cd0121021c56426da4f6751bd6f07051ca8ad2142af9e2b4268ffed603dbd494313539e902483045022100e53a63be299f275ea8c9f8845e35cf0c348a4bab43211e827ea955f0f43d400c02205f2070047dd170c99b46f22ec14b771b63f9a7e438dd43e04b27f38f14b9d13c012103bc97bb45143df8ac45707eb9ed0634023ed1255fb1db11f0f49712fb1127d69711490800", "vin": [{"txinwitness": ["3045022100fac1550c2f1629ce5f1588b89b858b25b172cc7f482ab0baa26058a16cfa7d26022034ac244403a944aa2315a11c79898d174ae2b323f578200427dbc28ab35ab9cd01", "021c56426da4f6751bd6f07051ca8ad2142af9e2b4268ffed603dbd494313539e9"], "sequence": 4294967294, "scriptSig": {"hex": "160014783b2198969d4ccbd32d6fe4a68121dfbd6a2144", "asm": "0014783b2198969d4ccbd32d6fe4a68121dfbd6a2144"}, "vout": 4, "txid": "2f1d947287a49e6199ee7f20f4d8cabdff0bc4cd5da10f072a7f5b2cd159787b"}, {"txinwitness": ["3045022100e53a63be299f275ea8c9f8845e35cf0c348a4bab43211e827ea955f0f43d400c02205f2070047dd170c99b46f22ec14b771b63f9a7e438dd43e04b27f38f14b9d13c01", "03bc97bb45143df8ac45707eb9ed0634023ed1255fb1db11f0f49712fb1127d697"], "sequence": 4294967294, "scriptSig": {"hex": "160014b2392bb20a16e64ebd1603050135cf63aafef3fe", "asm": "0014b2392bb20a16e64ebd1603050135cf63aafef3fe"}, "vout": 0, "txid": "bfaed1a57dd50cf224b16e244e6c33fb8b1f61dccd963c74d16da18b3c166fa5"}], "txid": "9d0ae45d19fb14e6cacf152c4ceec55712f80614af6bc91b685ef42411d3adbc", "blocktime": 1537872018, "version": 2, "confirmations": 11489, "time": 1537872018, "locktime": 542993, "vsize": 259, "size": 422}