{"hash": "9d10014ef0aea0f3036e9f5e61bfea653f207c73aeec505ee625447eff0d6047", "blockhash": "00000000000000000017f5eb5941039fbcee6240d03bc1f2f8e35350df66a1d8", "vout": [{"scriptPubKey": {"reqSigs": 1, "hex": "76a9146e60ba513b7ee0fdef8fe72e792a30562375dfc888ac", "addresses": ["1B4dCsH6MC9XoZ6ob2nngvJesYEfNNtMQS"], "asm": "OP_DUP OP_HASH160 6e60ba513b7ee0fdef8fe72e792a30562375dfc8 OP_EQUALVERIFY OP_CHECKSIG", "type": "pubkeyhash"}, "value": 0.00495833, "n": 0}, {"scriptPubKey": {"type": "nulldata", "hex": "6a146f6d6e69000000000000001f0000574fbde60000", "asm": "OP_RETURN 6f6d6e69000000000000001f0000574fbde60000"}, "value": 0.0, "n": 1}, {"scriptPubKey": {"reqSigs": 1, "hex": "76a914a25dec4d0011064ef106a983c39c7a540699f22088ac", "addresses": ["1FoWyxwPXuj4C6abqwhjDWdz6D4PZgYRjA"], "asm": "OP_DUP OP_HASH160 a25dec4d0011064ef106a983c39c7a540699f220 OP_EQUALVERIFY OP_CHECKSIG", "type": "pubkeyhash"}, "value": 5.46e-06, "n": 2}], "hex": "0100000001f3c10e42ea849114114d32d7c865c8365f48b9d4930d30bfdbd2ae2c3bf05501020000006a4730440220402c09761ca931086c2f954d214b571d0888acf93ce6491c02c771dd2647eb0d02207c0ae0c64d14adccd56d760e4cfc8ab27465b537f6a0c0a7bf5e4307aa2804fb012103d3fd3652ca10a5d03b78c618d410fa7d86b6f47eecffdfa89d993a221f7d5541feffffff03d9900700000000001976a9146e60ba513b7ee0fdef8fe72e792a30562375dfc888ac0000000000000000166a146f6d6e69000000000000001f0000574fbde6000022020000000000001976a914a25dec4d0011064ef106a983c39c7a540699f22088ac15490800", "vin": [{"sequence": 4294967294, "scriptSig": {"hex": "4730440220402c09761ca931086c2f954d214b571d0888acf93ce6491c02c771dd2647eb0d02207c0ae0c64d14adccd56d760e4cfc8ab27465b537f6a0c0a7bf5e4307aa2804fb012103d3fd3652ca10a5d03b78c618d410fa7d86b6f47eecffdfa89d993a221f7d5541", "asm": "30440220402c09761ca931086c2f954d214b571d0888acf93ce6491c02c771dd2647eb0d02207c0ae0c64d14adccd56d760e4cfc8ab27465b537f6a0c0a7bf5e4307aa2804fb[ALL] 03d3fd3652ca10a5d03b78c618d410fa7d86b6f47eecffdfa89d993a221f7d5541"}, "vout": 2, "txid": "0155f03b2caed2dbbf300d93d4b9485f36c865c8d7324d11149184ea420ec1f3"}], "txid": "9d10014ef0aea0f3036e9f5e61bfea653f207c73aeec505ee625447eff0d6047", "blocktime": 1537874412, "version": 1, "confirmations": 11468, "time": 1537874412, "locktime": 542997, "vsize": 256, "size": 256}