{"hash": "233dd818cf8cd8b7cbe6566b0a18457b75e8b51e73e45bd040d81333bcf992f4", "blockhash": "0000000000000000000e13cef7c366c0283d82e591d1acd082e914b08063cdf1", "vout": [{"scriptPubKey": {"reqSigs": 1, "hex": "a9143ef613e0bbc26f04d8ca196685194d69287e135e87", "addresses": ["37RvcDFHk2KMM8TqkyR1AAPkEhbkoTiYkg"], "asm": "OP_HASH160 3ef613e0bbc26f04d8ca196685194d69287e135e OP_EQUAL", "type": "scripthash"}, "value": 0.1747703, "n": 0}, {"scriptPubKey": {"reqSigs": 1, "hex": "76a914e61c141027f47128d1e3a630c4dc5558307d86c988ac", "addresses": ["1Myi43M5dWEqzsFzb1y6r4aFGumAjqpDVa"], "asm": "OP_DUP OP_HASH160 e61c141027f47128d1e3a630c4dc5558307d86c9 OP_EQUALVERIFY OP_CHECKSIG", "type": "pubkeyhash"}, "value": 0.09194446, "n": 1}], "hex": "01000000000101fbd284a99bb86fcdfa8759fa75488337e3a59bdff7555e22a9b3a2427789e55500000000232200203e47db801f5f1a41d0e0a6c9681cf67e6ec7e853a1033c1069d068d715e44b33ffffffff02a6ad0a010000000017a9143ef613e0bbc26f04d8ca196685194d69287e135e87ce4b8c00000000001976a914e61c141027f47128d1e3a630c4dc5558307d86c988ac0400473044022009e91b44a95c44408ec5aabd2ed186dd9388036342a2b8997c9e3c2c0adb6da302206cb91544904be565bf132fea2b09d6288c6b42cf3e09f5b5ec43f3139b4ecbef0147304402203e4e01e686b7d90bc185409826c97eb041f42c935252533b4781e39d39e0ea0902205986f978b5f918f583059932c48480dce18a8b3422c0765d7a556f04588109480169522103e6973bb784b86c7150b7dc85dbdea236ce9331cb3e3b62098b1acca1bd1a90a121037fdc1020fba6075bdb2cbea413886a4b0c4fcc0957260a9253ecae7c7a3d5b6b2102ea57ef428046c71c7947e70d33a008d105648e723c673b2f1ed85715b900191d53ae00000000", "vin": [{"txinwitness": ["", "3044022009e91b44a95c44408ec5aabd2ed186dd9388036342a2b8997c9e3c2c0adb6da302206cb91544904be565bf132fea2b09d6288c6b42cf3e09f5b5ec43f3139b4ecbef01", "304402203e4e01e686b7d90bc185409826c97eb041f42c935252533b4781e39d39e0ea0902205986f978b5f918f583059932c48480dce18a8b3422c0765d7a556f045881094801", "522103e6973bb784b86c7150b7dc85dbdea236ce9331cb3e3b62098b1acca1bd1a90a121037fdc1020fba6075bdb2cbea413886a4b0c4fcc0957260a9253ecae7c7a3d5b6b2102ea57ef428046c71c7947e70d33a008d105648e723c673b2f1ed85715b900191d53ae"], "sequence": 4294967295, "scriptSig": {"hex": "2200203e47db801f5f1a41d0e0a6c9681cf67e6ec7e853a1033c1069d068d715e44b33", "asm": "00203e47db801f5f1a41d0e0a6c9681cf67e6ec7e853a1033c1069d068d715e44b33"}, "vout": 0, "txid": "55e5897742a2b3a9225e55f7df9ba5e337834875fa5987facd6fb89ba984d2fb"}], "txid": "9d11f168ca77b9a36c374eec550f94ac4128745ca55d89464745c37856ed6159", "blocktime": 1537871767, "version": 1, "confirmations": 11495, "time": 1537871767, "locktime": 0, "vsize": 216, "size": 406}