{"hash": "9d13740018d9e79d35ff76792938085008838830c81f9f82f19ba8fdabb83750", "blockhash": "00000000000000000024a2167bbff67b0be802c0b01cdd79e6331c2be6459f87", "vout": [{"scriptPubKey": {"reqSigs": 1, "hex": "76a9143b9bfa02a0fc61cce1c96f2354525dfbcaf0417588ac", "addresses": ["16SBimDWC1puX4Eew52CNttzkEgtHaCyMq"], "asm": "OP_DUP OP_HASH160 3b9bfa02a0fc61cce1c96f2354525dfbcaf04175 OP_EQUALVERIFY OP_CHECKSIG", "type": "pubkeyhash"}, "value": 0.00131293, "n": 0}, {"scriptPubKey": {"reqSigs": 1, "hex": "76a914589bccaabd25b0c5d6e3f4691da6e4b6daa8c26788ac", "addresses": ["195X72644K1UgB8PdREyzrzsH8CWgH6C5d"], "asm": "OP_DUP OP_HASH160 589bccaabd25b0c5d6e3f4691da6e4b6daa8c267 OP_EQUALVERIFY OP_CHECKSIG", "type": "pubkeyhash"}, "value": 0.030811, "n": 1}], "hex": "010000000322397b970dcb94df83cf96f66a2e6a3b6c13fc819a8f948a0be8553cf330b3d2010000006b483045022100b7fdc94314e58dc590619015e00fa842488cccd4c25416c97706f993575a2f9d022031a4ff564cf90f361fdb67c1e15cb29cd022a1b4a146ba07238c1a15a5935960012103029b0020057914810fa10ce37604d6066d760d44c1a7f4375b09feab27678657fffffffffe6a8e6e141b7abbe82fdb5744192b01a4e52fbe6127e3e39ea85481851772fc000000006a4730440220146520f885aaf9e52fb1314435d051e2e336baead6ce13dcba6b1320dd8f378102200408ccb8a9d14be1b13fc8dc2516b149fd997ea5203a6de171a95fec9afbaada0121028dee2d868441e40f52a58a9e1baac0c36a2814a46c709c0758e818c5d7429424ffffffff31db0786614c3d03c88fd20f07177ad4d27eaa47d313c95622f5d8b32380ce87000000006a473044022015ee3cd975f52db955b75d6eb70e4cce8c48a18a04f77fdd7fc992254bd90ebf022074e815185c10d6772ad1f54c283d044c8a20693f6ecedb8568ba121be4273467012102f9aabe1e08ab39ca3af330bd0bdfd7c4a3b2e6d2d4743136155fcacb4125d6c2ffffffff02dd000200000000001976a9143b9bfa02a0fc61cce1c96f2354525dfbcaf0417588ac8c032f00000000001976a914589bccaabd25b0c5d6e3f4691da6e4b6daa8c26788ac00000000", "vin": [{"sequence": 4294967295, "scriptSig": {"hex": "483045022100b7fdc94314e58dc590619015e00fa842488cccd4c25416c97706f993575a2f9d022031a4ff564cf90f361fdb67c1e15cb29cd022a1b4a146ba07238c1a15a5935960012103029b0020057914810fa10ce37604d6066d760d44c1a7f4375b09feab27678657", "asm": "3045022100b7fdc94314e58dc590619015e00fa842488cccd4c25416c97706f993575a2f9d022031a4ff564cf90f361fdb67c1e15cb29cd022a1b4a146ba07238c1a15a5935960[ALL] 03029b0020057914810fa10ce37604d6066d760d44c1a7f4375b09feab27678657"}, "vout": 1, "txid": "d2b330f33c55e80b8a948f9a81fc136c3b6a2e6af696cf83df94cb0d977b3922"}, {"sequence": 4294967295, "scriptSig": {"hex": "4730440220146520f885aaf9e52fb1314435d051e2e336baead6ce13dcba6b1320dd8f378102200408ccb8a9d14be1b13fc8dc2516b149fd997ea5203a6de171a95fec9afbaada0121028dee2d868441e40f52a58a9e1baac0c36a2814a46c709c0758e818c5d7429424", "asm": "30440220146520f885aaf9e52fb1314435d051e2e336baead6ce13dcba6b1320dd8f378102200408ccb8a9d14be1b13fc8dc2516b149fd997ea5203a6de171a95fec9afbaada[ALL] 028dee2d868441e40f52a58a9e1baac0c36a2814a46c709c0758e818c5d7429424"}, "vout": 0, "txid": "fc7217858154a89ee3e32761be2fe5a4012b194457db2fe8bb7a1b146e8e6afe"}, {"sequence": 4294967295, "scriptSig": {"hex": "473044022015ee3cd975f52db955b75d6eb70e4cce8c48a18a04f77fdd7fc992254bd90ebf022074e815185c10d6772ad1f54c283d044c8a20693f6ecedb8568ba121be4273467012102f9aabe1e08ab39ca3af330bd0bdfd7c4a3b2e6d2d4743136155fcacb4125d6c2", "asm": "3044022015ee3cd975f52db955b75d6eb70e4cce8c48a18a04f77fdd7fc992254bd90ebf022074e815185c10d6772ad1f54c283d044c8a20693f6ecedb8568ba121be4273467[ALL] 02f9aabe1e08ab39ca3af330bd0bdfd7c4a3b2e6d2d4743136155fcacb4125d6c2"}, "vout": 0, "txid": "87ce8023b3d8f52256c913d347aa7ed2d47a17070fd28fc8033d4c618607db31"}], "txid": "9d13740018d9e79d35ff76792938085008838830c81f9f82f19ba8fdabb83750", "blocktime": 1537870564, "version": 1, "confirmations": 11515, "time": 1537870564, "locktime": 0, "vsize": 520, "size": 520}