{"hash": "e4d468260b5338ee89269900b47eb32c0ea1029b3e3b1b6a448cd8b61032c684", "blockhash": "0000000000000000001cda96e906b7601b7a6fb1a3b62bca570a9e5d8f4b3de1", "vout": [{"scriptPubKey": {"reqSigs": 1, "hex": "76a91442dbc61f44561ecfdbe24b23103520b7ef5ce00c88ac", "addresses": ["176WspZou4aWtY5jg4B211PVhnZgegXr6y"], "asm": "OP_DUP OP_HASH160 42dbc61f44561ecfdbe24b23103520b7ef5ce00c OP_EQUALVERIFY OP_CHECKSIG", "type": "pubkeyhash"}, "value": 0.600776, "n": 0}], "hex": "0200000000010a12ad947bc840ebbfd1effe4eff1d4654e45467f2960ace26684c6a26570ed6ef00000000171600146c6f97726dc8040af57bba666ec1914648d23cdffeffffff16149b35a2c881fc98e692c66bcecc2be6d21300ee1db607d03a6e25ddf3bf082000000017160014e7ae8b254aefe2630bf68af4cf02a1aa833394c0feffffff34dcef483fa45922a52138b9166404c28f448c9efe1bedb21bffc122f44711300300000017160014528be910c210c009be9ed5441d00b0015e520156feffffff356bd46034e06719359cdc760d96579b0fb8f2acc806dad64d5bcf0550f66d4f0500000017160014d92f7d7db695336eb1bb5c7a59e0a9e1f088d88efeffffff7316ca755742c235b9864c48d5078d4be6f32df082dbb09b2afad5434aa6b9cc0000000017160014dcbcf27dd1a65c1357cb003ddb9394d980d58e5dfeffffff8675facd43d4ced01fb58006b4350b36a8dee709c219da2fd65ea6f16b19519801000000171600148a765340e462179fc41445f2d7aa30084ae14b4afeffffffb7266dc8eff3c4582069fcdb65c51dd6302b0949126fdb1ccf5debe92556c64d0200000017160014ba0f94eeb7a563081f818e34b510441e98ecfe43feffffffd4e03ba9f64d639215174ae3c00bc38f212438bf8542f770442231cf3183f2990800000017160014b5b2debc6a2c16464620b4bccc872358e9c80baffeffffffe4e7531e236fd1c4fd347b895175d1e22118640977d419f9c6c5bdcf54a072eb000000001716001409cc98457283e93d8552e91b1021a88816db65c3fefffffffa453c187ecb369760c4ee191dc60833b9619beeb26240d6ddfba58c6fd3ec1e01000000171600143a022c8f43d550b011fd376377291ff4985b64fdfeffffff0120b69403000000001976a91442dbc61f44561ecfdbe24b23103520b7ef5ce00c88ac024730440220018d05e19e618a3b9d5ad3936a6b36f4374de45ab1544ea8008a8b049c567d4d02204351431b6806447ef2087c68bcb92dc335556df86af8a4d18fe686bbf1f5878c012103c505dc0ee22d0987d31069d16e308fb8103228368ed4b5f0cac73e317dac435b02483045022100ba6bada9359750d353dfef05ee8ac787cf8a14cdd83ea7ad51db041c052c00f50220787332dffa042d768339173d405b0c64d136013ec2124c83491fa37c2832e49f0121029685ca756475bf745a8c0c7434a7da1183718da539e523bc02641c28b94a11dd02483045022100bd156ba0da8f0d3820a219c7ee8b642ec8373597a237d07deaed653d65dd612902203a1c2f8a6abda0e8f31b62eda64fbf84edce9456fe4a0bf28bb5e52b942738bd0121025c1213e6a1c997995d45082144a09d1008634a522e5aa14f99c698205216ae220247304402203eefe289d4ee0867faf3b672cd398044fc91bd8fc0631f5451b0c2be72383fa6022070463782cf584eadbdf1ebeae12e4a1c863a554365322ba10af2bb66f47bf094012102fa40d0531feb3beb6150af7baf8b3ec65cb02b0e932449da356572aeb77d2ebc02473044022019aadc7910a90bb937aa54b6002eda74758cf212760595e52318e8553261e66602207e930b6c8743275180bbe9375ec90b022dc0ea1e3b1c0adc35b6c271d275c5a50121025d8b9995a6b8af2f7e31ff58b167024661ef02d4e71852823a77033de6be8fb7024730440220307dc5e19502eb4731c477c290ff6f94db46ecdf400d91c4682c40094da89be602203c3bab2d20fcfc30c93a2c843407358b9381f094055df83d75646c6f1ca207cb01210304a5ea84ed321a06b00db1b1c120f2a550f9afc80f5d00b76307d1b178fe27e20247304402200de694c8913b04f4d5698caa8bf345947f25bbb31d8bb881ad310371bb46caa6022071ee2aa7184376d4ef1f2a617065e7f939f20d1f694088572e701bb0794e726a012102f05786b246fd2e1711a3c1c5940f34d13850c6bd30d62602120a8308256f66010247304402204fe3149c9015e27b16bb391fae5d07874f5c3277d032d810cfd1ba8fbdcf6e7a02200c3296e6241877b5fcebe0c9713178b8dbb49a4f1dffe8cee77164b24683f768012103899412a488a2cd2376016222484a74c1d2789922b4d1f0d96e05b12930d839c0024830450221009ba1c8483f1b2cae2343da1f44af62bd039471b2d2bf49dc53ecb52cf83906370220061c91ec71b99a7415f2a683d515eab077d69d5d7f0ca23c9e2d434c4e1cb958012103bc962505dbfbc97e8c2b5a7f9101493a070c16dcb9a99b8dd8bb0bc4a730145202483045022100dc49f89cb6ceb1ddf462e62edd2533792ac250fdd8a33ac1926d2ef6a86ac0d6022022496c27e65cffa2877fdacc63907d798323ad3fa434403f2f1fe9d94281267e012103d9a78db91c408bf25c4854d132344f48abafb88b09ac5a450807c1cebc43923813490800", "vin": [{"txinwitness": ["30440220018d05e19e618a3b9d5ad3936a6b36f4374de45ab1544ea8008a8b049c567d4d02204351431b6806447ef2087c68bcb92dc335556df86af8a4d18fe686bbf1f5878c01", "03c505dc0ee22d0987d31069d16e308fb8103228368ed4b5f0cac73e317dac435b"], "sequence": 4294967294, "scriptSig": {"hex": "1600146c6f97726dc8040af57bba666ec1914648d23cdf", "asm": "00146c6f97726dc8040af57bba666ec1914648d23cdf"}, "vout": 0, "txid": "efd60e57266a4c6826ce0a96f26754e454461dff4efeefd1bfeb40c87b94ad12"}, {"txinwitness": ["3045022100ba6bada9359750d353dfef05ee8ac787cf8a14cdd83ea7ad51db041c052c00f50220787332dffa042d768339173d405b0c64d136013ec2124c83491fa37c2832e49f01", "029685ca756475bf745a8c0c7434a7da1183718da539e523bc02641c28b94a11dd"], "sequence": 4294967294, "scriptSig": {"hex": "160014e7ae8b254aefe2630bf68af4cf02a1aa833394c0", "asm": "0014e7ae8b254aefe2630bf68af4cf02a1aa833394c0"}, "vout": 32, "txid": "08bff3dd256e3ad007b61dee0013d2e62bccce6bc692e698fc81c8a2359b1416"}, {"txinwitness": ["3045022100bd156ba0da8f0d3820a219c7ee8b642ec8373597a237d07deaed653d65dd612902203a1c2f8a6abda0e8f31b62eda64fbf84edce9456fe4a0bf28bb5e52b942738bd01", "025c1213e6a1c997995d45082144a09d1008634a522e5aa14f99c698205216ae22"], "sequence": 4294967294, "scriptSig": {"hex": "160014528be910c210c009be9ed5441d00b0015e520156", "asm": "0014528be910c210c009be9ed5441d00b0015e520156"}, "vout": 3, "txid": "301147f422c1ff1bb2ed1bfe9e8c448fc2046416b93821a52259a43f48efdc34"}, {"txinwitness": ["304402203eefe289d4ee0867faf3b672cd398044fc91bd8fc0631f5451b0c2be72383fa6022070463782cf584eadbdf1ebeae12e4a1c863a554365322ba10af2bb66f47bf09401", "02fa40d0531feb3beb6150af7baf8b3ec65cb02b0e932449da356572aeb77d2ebc"], "sequence": 4294967294, "scriptSig": {"hex": "160014d92f7d7db695336eb1bb5c7a59e0a9e1f088d88e", "asm": "0014d92f7d7db695336eb1bb5c7a59e0a9e1f088d88e"}, "vout": 5, "txid": "4f6df65005cf5b4dd6da06c8acf2b80f9b57960d76dc9c351967e03460d46b35"}, {"txinwitness": ["3044022019aadc7910a90bb937aa54b6002eda74758cf212760595e52318e8553261e66602207e930b6c8743275180bbe9375ec90b022dc0ea1e3b1c0adc35b6c271d275c5a501", "025d8b9995a6b8af2f7e31ff58b167024661ef02d4e71852823a77033de6be8fb7"], "sequence": 4294967294, "scriptSig": {"hex": "160014dcbcf27dd1a65c1357cb003ddb9394d980d58e5d", "asm": "0014dcbcf27dd1a65c1357cb003ddb9394d980d58e5d"}, "vout": 0, "txid": "ccb9a64a43d5fa2a9bb0db82f02df3e64b8d07d5484c86b935c2425775ca1673"}, {"txinwitness": ["30440220307dc5e19502eb4731c477c290ff6f94db46ecdf400d91c4682c40094da89be602203c3bab2d20fcfc30c93a2c843407358b9381f094055df83d75646c6f1ca207cb01", "0304a5ea84ed321a06b00db1b1c120f2a550f9afc80f5d00b76307d1b178fe27e2"], "sequence": 4294967294, "scriptSig": {"hex": "1600148a765340e462179fc41445f2d7aa30084ae14b4a", "asm": "00148a765340e462179fc41445f2d7aa30084ae14b4a"}, "vout": 1, "txid": "9851196bf1a65ed62fda19c209e7dea8360b35b40680b51fd0ced443cdfa7586"}, {"txinwitness": ["304402200de694c8913b04f4d5698caa8bf345947f25bbb31d8bb881ad310371bb46caa6022071ee2aa7184376d4ef1f2a617065e7f939f20d1f694088572e701bb0794e726a01", "02f05786b246fd2e1711a3c1c5940f34d13850c6bd30d62602120a8308256f6601"], "sequence": 4294967294, "scriptSig": {"hex": "160014ba0f94eeb7a563081f818e34b510441e98ecfe43", "asm": "0014ba0f94eeb7a563081f818e34b510441e98ecfe43"}, "vout": 2, "txid": "4dc65625e9eb5dcf1cdb6f1249092b30d61dc565dbfc692058c4f3efc86d26b7"}, {"txinwitness": ["304402204fe3149c9015e27b16bb391fae5d07874f5c3277d032d810cfd1ba8fbdcf6e7a02200c3296e6241877b5fcebe0c9713178b8dbb49a4f1dffe8cee77164b24683f76801", "03899412a488a2cd2376016222484a74c1d2789922b4d1f0d96e05b12930d839c0"], "sequence": 4294967294, "scriptSig": {"hex": "160014b5b2debc6a2c16464620b4bccc872358e9c80baf", "asm": "0014b5b2debc6a2c16464620b4bccc872358e9c80baf"}, "vout": 8, "txid": "99f28331cf31224470f74285bf3824218fc30bc0e34a171592634df6a93be0d4"}, {"txinwitness": ["30450221009ba1c8483f1b2cae2343da1f44af62bd039471b2d2bf49dc53ecb52cf83906370220061c91ec71b99a7415f2a683d515eab077d69d5d7f0ca23c9e2d434c4e1cb95801", "03bc962505dbfbc97e8c2b5a7f9101493a070c16dcb9a99b8dd8bb0bc4a7301452"], "sequence": 4294967294, "scriptSig": {"hex": "16001409cc98457283e93d8552e91b1021a88816db65c3", "asm": "001409cc98457283e93d8552e91b1021a88816db65c3"}, "vout": 0, "txid": "eb72a054cfbdc5c6f919d47709641821e2d17551897b34fdc4d16f231e53e7e4"}, {"txinwitness": ["3045022100dc49f89cb6ceb1ddf462e62edd2533792ac250fdd8a33ac1926d2ef6a86ac0d6022022496c27e65cffa2877fdacc63907d798323ad3fa434403f2f1fe9d94281267e01", "03d9a78db91c408bf25c4854d132344f48abafb88b09ac5a450807c1cebc439238"], "sequence": 4294967294, "scriptSig": {"hex": "1600143a022c8f43d550b011fd376377291ff4985b64fd", "asm": "00143a022c8f43d550b011fd376377291ff4985b64fd"}, "vout": 1, "txid": "1eecd36f8ca5fbddd64062b2ee9b61b93308c61d19eec4609736cb7e183c45fa"}], "txid": "9d15ef5b743f08160b95fb4ff6a5f27fc1ad04586a554dcc408b99455cfafcac", "blocktime": 1537873282, "version": 2, "confirmations": 11481, "time": 1537873282, "locktime": 542995, "vsize": 953, "size": 1760}