{"hash": "9d1978d9591e9790afc252891407cd46f7350a1f1c3d4f8c190bfb42ebc5a646", "blockhash": "00000000000000000004ffacab907a6b429b9a5745fa0b75af4234bf69dd7176", "vout": [{"scriptPubKey": {"reqSigs": 1, "hex": "a91434f0c04c437cc59e19e002f3c9b42468dc6ef67f87", "addresses": ["36WwUCjJ9KxhSk6f2yTkmqPDshXp1Mu77p"], "asm": "OP_HASH160 34f0c04c437cc59e19e002f3c9b42468dc6ef67f OP_EQUAL", "type": "scripthash"}, "value": 0.0015, "n": 0}, {"scriptPubKey": {"reqSigs": 1, "hex": "76a914bd228f8e224938fe6d79a074ad965ccc46b7430e88ac", "addresses": ["1JF47adYYdFQP7G1YdsWVVzoQBBDFjXakG"], "asm": "OP_DUP OP_HASH160 bd228f8e224938fe6d79a074ad965ccc46b7430e OP_EQUALVERIFY OP_CHECKSIG", "type": "pubkeyhash"}, "value": 0.12079267, "n": 1}, {"scriptPubKey": {"reqSigs": 1, "hex": "76a91443849383122ebb8a28268a89700c9f723663b5b888ac", "addresses": ["17A16QmavnUfCW11DAApiJxp7ARnxN5pGX"], "asm": "OP_DUP OP_HASH160 43849383122ebb8a28268a89700c9f723663b5b8 OP_EQUALVERIFY OP_CHECKSIG", "type": "pubkeyhash"}, "value": 84.82195833, "n": 2}], "hex": "02000000019cadb5ccda9d6fc42fb2266896c2c82049149cb4a23b490875f0cd206eb20097030000008b483045022100ec7bc8a3ece28edcd2eb88057675baef7381006d16b31858139aab08549472c302202c41f3488d2a5ff1c3661dd8ac012d52cd49df88fc4b21af44c91b1b9cc522be0141047146f0e0fcb3139947cf0beb870fe251930ca10d4545793d31033e801b5219abf56c11a3cf3406ca590e4c14b0dab749d20862b3adc4709153c280c2a78be10cffffffff03f04902000000000017a91434f0c04c437cc59e19e002f3c9b42468dc6ef67f87a350b800000000001976a914bd228f8e224938fe6d79a074ad965ccc46b7430e88ac790994f9010000001976a91443849383122ebb8a28268a89700c9f723663b5b888ac00000000", "vin": [{"sequence": 4294967295, "scriptSig": {"hex": "483045022100ec7bc8a3ece28edcd2eb88057675baef7381006d16b31858139aab08549472c302202c41f3488d2a5ff1c3661dd8ac012d52cd49df88fc4b21af44c91b1b9cc522be0141047146f0e0fcb3139947cf0beb870fe251930ca10d4545793d31033e801b5219abf56c11a3cf3406ca590e4c14b0dab749d20862b3adc4709153c280c2a78be10c", "asm": "3045022100ec7bc8a3ece28edcd2eb88057675baef7381006d16b31858139aab08549472c302202c41f3488d2a5ff1c3661dd8ac012d52cd49df88fc4b21af44c91b1b9cc522be[ALL] 047146f0e0fcb3139947cf0beb870fe251930ca10d4545793d31033e801b5219abf56c11a3cf3406ca590e4c14b0dab749d20862b3adc4709153c280c2a78be10c"}, "vout": 3, "txid": "9700b26e20cdf07508493ba2b49c144920c8c2966826b22fc46f9ddaccb5ad9c"}], "txid": "9d1978d9591e9790afc252891407cd46f7350a1f1c3d4f8c190bfb42ebc5a646", "blocktime": 1537875543, "version": 2, "confirmations": 11464, "time": 1537875543, "locktime": 0, "vsize": 290, "size": 290}