{"hash": "9d19d44728c15f72bdc0077992e92db971675edf2962a2894e114147ab5bf626", "blockhash": "00000000000000000018f53835495a110e01622372bf6ae95dc86f2b0ab887b0", "vout": [{"scriptPubKey": {"reqSigs": 1, "hex": "76a914f3457189fbf42a47506058796a6c3aab03ac735b88ac", "addresses": ["1PBJPdoi8muWEHXmFJkABvkBebc47tvNTB"], "asm": "OP_DUP OP_HASH160 f3457189fbf42a47506058796a6c3aab03ac735b OP_EQUALVERIFY OP_CHECKSIG", "type": "pubkeyhash"}, "value": 0.01900692, "n": 0}, {"scriptPubKey": {"reqSigs": 1, "hex": "76a9144a0f1e2f2b0d7daeec5265f10bbbbe08ed725e8988ac", "addresses": ["17kb7c9ndg7ioSuzMWEHWECdEVUegNkcGc"], "asm": "OP_DUP OP_HASH160 4a0f1e2f2b0d7daeec5265f10bbbbe08ed725e89 OP_EQUALVERIFY OP_CHECKSIG", "type": "pubkeyhash"}, "value": 0.00379389, "n": 1}], "hex": "010000000141fca82a36ec2fc047ac6e33fcfdf03a32ef8abc7816fac57e6a91a50bc01cf8000000006b483045022100cc07e1643f03339123908bd545dda4cdc8bf164c006ad0eeb94d351aa4f770d702206715692553a6057f8402b4680a55730cd5ab757167f2645b3ae37a298a13029501210363e1776495149c5a4e92acf453a3caa19000fc804e4ba2024b600ba25e09c943ffffffff0294001d00000000001976a914f3457189fbf42a47506058796a6c3aab03ac735b88acfdc90500000000001976a9144a0f1e2f2b0d7daeec5265f10bbbbe08ed725e8988ac00000000", "vin": [{"sequence": 4294967295, "scriptSig": {"hex": "483045022100cc07e1643f03339123908bd545dda4cdc8bf164c006ad0eeb94d351aa4f770d702206715692553a6057f8402b4680a55730cd5ab757167f2645b3ae37a298a13029501210363e1776495149c5a4e92acf453a3caa19000fc804e4ba2024b600ba25e09c943", "asm": "3045022100cc07e1643f03339123908bd545dda4cdc8bf164c006ad0eeb94d351aa4f770d702206715692553a6057f8402b4680a55730cd5ab757167f2645b3ae37a298a130295[ALL] 0363e1776495149c5a4e92acf453a3caa19000fc804e4ba2024b600ba25e09c943"}, "vout": 0, "txid": "f81cc00ba5916a7ec5fa1678bc8aef323af0fdfc336eac47c02fec362aa8fc41"}], "txid": "9d19d44728c15f72bdc0077992e92db971675edf2962a2894e114147ab5bf626", "blocktime": 1537870928, "version": 1, "confirmations": 11512, "time": 1537870928, "locktime": 0, "vsize": 226, "size": 226}