{"hash": "f2edcf6e046867bd3a06f0ae934fb57e549547e826445451ec2a73465eb90c29", "blockhash": "0000000000000000000baef3f32e3676a92c3b2e5da21b426e4f302fc371ce76", "vout": [{"scriptPubKey": {"reqSigs": 1, "hex": "76a9149ccedaa67cb4cdb331dd2969752d652edd3ccc4888ac", "addresses": ["1FJ8DQEZ8CrLGcEEzHUVzucPBhgtHvJYpB"], "asm": "OP_DUP OP_HASH160 9ccedaa67cb4cdb331dd2969752d652edd3ccc48 OP_EQUALVERIFY OP_CHECKSIG", "type": "pubkeyhash"}, "value": 0.01108043, "n": 0}, {"scriptPubKey": {"reqSigs": 1, "hex": "a9145d1bc309e3b3b6c52046a484162cd5144b5e79a787", "addresses": ["3ABL2K5WfPvhm226CMG29HrzyeQh9Wu4Mb"], "asm": "OP_HASH160 5d1bc309e3b3b6c52046a484162cd5144b5e79a7 OP_EQUAL", "type": "scripthash"}, "value": 0.09566014, "n": 1}], "hex": "01000000000103f01d5422b9ff9c3307b749c9864eea8175c90c81d14d74da9f1739c1a14bd031010000002322002080fc7ebaf755bd33e91178e08a2f26fef24ed7f42f180790c1aad2dd45aef4f6ffffffff4de44d0809054856b45b6a7e071efa7e68e3aaf1b1ac3f3bd432195fafd20bb903000000232200208590593a813fd801a67e1cf85f0dfd6d27f965c2b953f74fc6da9c1098459adbffffffff69546d0e09a1ebd113a8a42330d21c6b5d67116b7c0d8d5d0a1134e442c807520200000023220020994df1a7c09fcc00c74d815dbd2431a9024a4754447eff8fc975e999dddd5f22ffffffff024be81000000000001976a9149ccedaa67cb4cdb331dd2969752d652edd3ccc4888ac3ef791000000000017a9145d1bc309e3b3b6c52046a484162cd5144b5e79a7870400483045022100c63c4354333352626d4f8380caefa5cdddece8c20f1d20aacc38a23a0d3ff53c02204a0d393d97688ef89f1a83495c82ea54b8185950d95827acce9b3d1610bda09701483045022100f26b7637ff36f0d8f8b2c84db3a3894b6673417650142ad8989004039c9588f702200e6ff73eb4f26817fa237b5c782f76f9a74ff849f95802a7ddc16c682115d7fe0147522103ac2d270803fa2cb5152009c6a00ca0ee56de1c4f92c6ca7c9ab86ed26cabba7b21038407424ead2b88063db2d589e50c34e1572f6b82eb9e266dec536939ee0db9eb52ae04004830450221009c8e616a39d99a237c6d0878dd4ce7d7195fc2ec103cbea15bf72b4eab3b5b5b02202818374aa68c3f7bf17efea8f968b0db81da84c1837074cd67d91c903b61868e0148304502210097e60f327dc623f8ef20897e9b7f5d37083c0c3df86b512b339bdb99232c43b8022060818b69a2d724a9a57e22d41ff5747ba608500da04480035c6fe9b2a272d5010147522102e35f6ad6c976f11e346cc763aecede3524ec37a783c44a75caff73284b4e8bbf21038407424ead2b88063db2d589e50c34e1572f6b82eb9e266dec536939ee0db9eb52ae0400473044022008d7eeaf1bd836db6d0acc7364d54511bd37e0642fdba4a108f80a9e3390805c02207ab331a3b386a060c2c4b447d0bad15e35383dac175f6645f5ecfb56f9b6f17401473044022073a7f11eb9a9a4470d34df8f5bb003fb654a50622cb68ebd864467771836ad8202205c98aa3b1955545169e353309d59d7760b6190b0fff6253a08fa55378115f1100147522102639570c7e0a68c480c7480c6765a1dbebdc0eb35941a345a11f035004fb3a1d621038407424ead2b88063db2d589e50c34e1572f6b82eb9e266dec536939ee0db9eb52ae00000000", "vin": [{"txinwitness": ["", "3045022100c63c4354333352626d4f8380caefa5cdddece8c20f1d20aacc38a23a0d3ff53c02204a0d393d97688ef89f1a83495c82ea54b8185950d95827acce9b3d1610bda09701", "3045022100f26b7637ff36f0d8f8b2c84db3a3894b6673417650142ad8989004039c9588f702200e6ff73eb4f26817fa237b5c782f76f9a74ff849f95802a7ddc16c682115d7fe01", "522103ac2d270803fa2cb5152009c6a00ca0ee56de1c4f92c6ca7c9ab86ed26cabba7b21038407424ead2b88063db2d589e50c34e1572f6b82eb9e266dec536939ee0db9eb52ae"], "sequence": 4294967295, "scriptSig": {"hex": "22002080fc7ebaf755bd33e91178e08a2f26fef24ed7f42f180790c1aad2dd45aef4f6", "asm": "002080fc7ebaf755bd33e91178e08a2f26fef24ed7f42f180790c1aad2dd45aef4f6"}, "vout": 1, "txid": "31d04ba1c139179fda744dd1810cc97581ea4e86c949b707339cffb922541df0"}, {"txinwitness": ["", "30450221009c8e616a39d99a237c6d0878dd4ce7d7195fc2ec103cbea15bf72b4eab3b5b5b02202818374aa68c3f7bf17efea8f968b0db81da84c1837074cd67d91c903b61868e01", "304502210097e60f327dc623f8ef20897e9b7f5d37083c0c3df86b512b339bdb99232c43b8022060818b69a2d724a9a57e22d41ff5747ba608500da04480035c6fe9b2a272d50101", "522102e35f6ad6c976f11e346cc763aecede3524ec37a783c44a75caff73284b4e8bbf21038407424ead2b88063db2d589e50c34e1572f6b82eb9e266dec536939ee0db9eb52ae"], "sequence": 4294967295, "scriptSig": {"hex": "2200208590593a813fd801a67e1cf85f0dfd6d27f965c2b953f74fc6da9c1098459adb", "asm": "00208590593a813fd801a67e1cf85f0dfd6d27f965c2b953f74fc6da9c1098459adb"}, "vout": 3, "txid": "b90bd2af5f1932d43b3facb1f1aae3687efa1e077e6a5bb456480509084de44d"}, {"txinwitness": ["", "3044022008d7eeaf1bd836db6d0acc7364d54511bd37e0642fdba4a108f80a9e3390805c02207ab331a3b386a060c2c4b447d0bad15e35383dac175f6645f5ecfb56f9b6f17401", "3044022073a7f11eb9a9a4470d34df8f5bb003fb654a50622cb68ebd864467771836ad8202205c98aa3b1955545169e353309d59d7760b6190b0fff6253a08fa55378115f11001", "522102639570c7e0a68c480c7480c6765a1dbebdc0eb35941a345a11f035004fb3a1d621038407424ead2b88063db2d589e50c34e1572f6b82eb9e266dec536939ee0db9eb52ae"], "sequence": 4294967295, "scriptSig": {"hex": "220020994df1a7c09fcc00c74d815dbd2431a9024a4754447eff8fc975e999dddd5f22", "asm": "0020994df1a7c09fcc00c74d815dbd2431a9024a4754447eff8fc975e999dddd5f22"}, "vout": 2, "txid": "5207c842e434110a5d8d0d7c6b11675d6b1cd23023a4a813d1eba1090e6d5469"}], "txid": "9d1a69d6e0788e7c20258c46c86f30e98013dd47d86ea2edaba1115e156609b2", "blocktime": 1537876114, "version": 1, "confirmations": 11459, "time": 1537876114, "locktime": 0, "vsize": 469, "size": 964}