{"hash": "9d1d9288b6581bee2043e7bb89092af6e7a8f662b17f072dfa0779400ead0115", "blockhash": "0000000000000000000e13cef7c366c0283d82e591d1acd082e914b08063cdf1", "vout": [{"scriptPubKey": {"reqSigs": 1, "hex": "a914620e75e39e88b76e4172ba730b8f1184a653d21087", "addresses": ["3AdVU5PvptdCtcYYMhoSpseNz5fm5zq8Dp"], "asm": "OP_HASH160 620e75e39e88b76e4172ba730b8f1184a653d210 OP_EQUAL", "type": "scripthash"}, "value": 0.0012, "n": 0}, {"scriptPubKey": {"reqSigs": 1, "hex": "76a914a260304b819e6f21472e96654cb85cbc93e9978088ac", "addresses": ["1FoZhP7WPAyo614qa8TuaKqDTGiYbHmHhk"], "asm": "OP_DUP OP_HASH160 a260304b819e6f21472e96654cb85cbc93e99780 OP_EQUALVERIFY OP_CHECKSIG", "type": "pubkeyhash"}, "value": 0.14888866, "n": 1}], "hex": "010000000103d4993830c386eb1c0230f7b99e44ffcd0a3a39831dd0a56696d350b5bebfc3010000006b483045022100e0ad871a02897c94df70401b9a725393d8e9cb007d55029ab8361d805f9a1a21022006ebb711aa630ab5a24125dbf043d4d82edbaf5d06b557ea3cf86c64e7d44e06012103143388b4efc99db07cc92efdf53dc059cfd904c8446861806ae8b00f6b451335ffffffff02c0d401000000000017a914620e75e39e88b76e4172ba730b8f1184a653d21087a22fe300000000001976a914a260304b819e6f21472e96654cb85cbc93e9978088ac00000000", "vin": [{"sequence": 4294967295, "scriptSig": {"hex": "483045022100e0ad871a02897c94df70401b9a725393d8e9cb007d55029ab8361d805f9a1a21022006ebb711aa630ab5a24125dbf043d4d82edbaf5d06b557ea3cf86c64e7d44e06012103143388b4efc99db07cc92efdf53dc059cfd904c8446861806ae8b00f6b451335", "asm": "3045022100e0ad871a02897c94df70401b9a725393d8e9cb007d55029ab8361d805f9a1a21022006ebb711aa630ab5a24125dbf043d4d82edbaf5d06b557ea3cf86c64e7d44e06[ALL] 03143388b4efc99db07cc92efdf53dc059cfd904c8446861806ae8b00f6b451335"}, "vout": 1, "txid": "c3bfbeb550d39666a5d01d83393a0acdff449eb9f730021ceb86c3303899d403"}], "txid": "9d1d9288b6581bee2043e7bb89092af6e7a8f662b17f072dfa0779400ead0115", "blocktime": 1537871767, "version": 1, "confirmations": 11495, "time": 1537871767, "locktime": 0, "vsize": 224, "size": 224}