{"hash": "b2a72a12d6b43d4bb6896fecfd73fef08c08a355140b77dbf50898fb1999273b", "blockhash": "0000000000000000001cda96e906b7601b7a6fb1a3b62bca570a9e5d8f4b3de1", "vout": [{"scriptPubKey": {"reqSigs": 1, "hex": "00140bee90f2f51d8e8dc1b400c20f767179583f4bf5", "addresses": ["bc1qp0hfpuh4rk8gmsd5qrpq7an309vr7jl49p7dyj"], "asm": "0 0bee90f2f51d8e8dc1b400c20f767179583f4bf5", "type": "witness_v0_keyhash"}, "value": 1.047e-05, "n": 0}, {"scriptPubKey": {"reqSigs": 1, "hex": "76a914db24504ba708c5931df0b96f78dec6b5e695f11888ac", "addresses": ["1LyiV8QvPn3QJbuf7u3KZsKx6znPU9ceWS"], "asm": "OP_DUP OP_HASH160 db24504ba708c5931df0b96f78dec6b5e695f118 OP_EQUALVERIFY OP_CHECKSIG", "type": "pubkeyhash"}, "value": 0.000183, "n": 1}], "hex": "0100000000010144eacfbad4100eb14fae246022550392b06133525a708903a1055e80a7142d1c0000000000ffffffff0217040000000000001600140bee90f2f51d8e8dc1b400c20f767179583f4bf57c470000000000001976a914db24504ba708c5931df0b96f78dec6b5e695f11888ac02483045022100c61ec67b02b77de1535b259475af43c5517d98415d783166b84969293f9756cc02204e22639f7a71c5cd5d976b9518e872204ee4769e6225f5184283cc92c11568a601210362167dcbcb117cf147b99622c13525442f5b3e4be87fddd8d0051479eee3a5a700000000", "vin": [{"txinwitness": ["3045022100c61ec67b02b77de1535b259475af43c5517d98415d783166b84969293f9756cc02204e22639f7a71c5cd5d976b9518e872204ee4769e6225f5184283cc92c11568a601", "0362167dcbcb117cf147b99622c13525442f5b3e4be87fddd8d0051479eee3a5a7"], "sequence": 4294967295, "scriptSig": {"hex": "", "asm": ""}, "vout": 0, "txid": "1c2d14a7805e05a10389705a523361b0920355226024ae4fb10e10d4bacfea44"}], "txid": "9d1fee39660ed878c1efc72e84990cbebeb89e46a4cec2573984f52fb34ee721", "blocktime": 1537873282, "version": 1, "confirmations": 11484, "time": 1537873282, "locktime": 0, "vsize": 144, "size": 226}