{"hash": "68b07249d57f42552ccdc10e19b947aaf3989e936faecaf2e1b21402230a087b", "blockhash": "0000000000000000001f76057863aec43deb6fa401d9628bb513d65a8098bfab", "vout": [{"scriptPubKey": {"reqSigs": 1, "hex": "76a9140b0ed97b3e76204d2b642f8fa96e2cf648499c0d88ac", "addresses": ["121UDshGesXxzz6a4JWZzxKcvfEN17qjBM"], "asm": "OP_DUP OP_HASH160 0b0ed97b3e76204d2b642f8fa96e2cf648499c0d OP_EQUALVERIFY OP_CHECKSIG", "type": "pubkeyhash"}, "value": 0.001, "n": 0}, {"scriptPubKey": {"reqSigs": 1, "hex": "a9140f81d8c9ce08c81550025dde89891a3b54efc8da87", "addresses": ["3371cLWAw8nfKuE3W2Q6hVMSGE1vijLQeL"], "asm": "OP_HASH160 0f81d8c9ce08c81550025dde89891a3b54efc8da OP_EQUAL", "type": "scripthash"}, "value": 0.02948251, "n": 1}], "hex": "01000000000101580f662b35df34d482a9e7d57c3852ffdca0c45a1c6fe7c4fcc584529589959c6f000000232200204758259ed4dafa22daaea94fd4b634d0d0782c16fff9583a34b1fd59d5ca3894ffffffff02a0860100000000001976a9140b0ed97b3e76204d2b642f8fa96e2cf648499c0d88ac9bfc2c000000000017a9140f81d8c9ce08c81550025dde89891a3b54efc8da870400483045022100c9f7581ec7c8fede55141f71fa59ddc7952dd500f361edbba537da9a22e291530220400bb7b10a20a5131cc311a4e85c20913e3f2037062c97e80759b94734c9f7f10148304502210092aef306930e51a83a82f175e15e9a1385f9c9935f77bc78634dcaf5a1462961022022f28fb884e1ea55b066925e29e05f954a954ec605f4c187893684fe0d3980300169522103c8caa59a1f4ca84582437febb2ed5de17555e8e887c71d472ba69d5ff47368382103cf1d3d275a971aa289c6c7b1ba49f9c0ea4010b3e36aa2d5868b0482b0b32c3021031f98f1ab44f3efade0d2a77d83764ed2eaa7a3e7625e757a3c824b3759d6d12953ae00000000", "vin": [{"txinwitness": ["", "3045022100c9f7581ec7c8fede55141f71fa59ddc7952dd500f361edbba537da9a22e291530220400bb7b10a20a5131cc311a4e85c20913e3f2037062c97e80759b94734c9f7f101", "304502210092aef306930e51a83a82f175e15e9a1385f9c9935f77bc78634dcaf5a1462961022022f28fb884e1ea55b066925e29e05f954a954ec605f4c187893684fe0d39803001", "522103c8caa59a1f4ca84582437febb2ed5de17555e8e887c71d472ba69d5ff47368382103cf1d3d275a971aa289c6c7b1ba49f9c0ea4010b3e36aa2d5868b0482b0b32c3021031f98f1ab44f3efade0d2a77d83764ed2eaa7a3e7625e757a3c824b3759d6d12953ae"], "sequence": 4294967295, "scriptSig": {"hex": "2200204758259ed4dafa22daaea94fd4b634d0d0782c16fff9583a34b1fd59d5ca3894", "asm": "00204758259ed4dafa22daaea94fd4b634d0d0782c16fff9583a34b1fd59d5ca3894"}, "vout": 111, "txid": "9c9589955284c5fcc4e76f1c5ac4a0dcff52387cd5e7a982d434df352b660f58"}], "txid": "9d282d44d65cf57cf73f7a486907a0594ed33d27151054b1e92949d0b529aa72", "blocktime": 1537873891, "version": 1, "confirmations": 11478, "time": 1537873891, "locktime": 0, "vsize": 216, "size": 408}