{"hash": "36b66ba6dd8da0ef555e011aad23b042f2c70d75d3876cbfc2e0d879472959a6", "blockhash": "0000000000000000001e0dab787dd257d1dbfcb92a98c2207d5e1078be1f4165", "vout": [{"scriptPubKey": {"reqSigs": 1, "hex": "0014d8f7d5622f9ed3cde5f103cda97755b93584a6be", "addresses": ["bc1qmrma2c30nmfume03q0x6ja64hy6cff47kxkhdg"], "asm": "0 d8f7d5622f9ed3cde5f103cda97755b93584a6be", "type": "witness_v0_keyhash"}, "value": 0.01318741, "n": 0}, {"scriptPubKey": {"reqSigs": 1, "hex": "76a914417b823364f24236e09897e0c93c49b4fa68974788ac", "addresses": ["16yEszoyHwUVygrbKE7CVRJ5US6jVQJtQr"], "asm": "OP_DUP OP_HASH160 417b823364f24236e09897e0c93c49b4fa689747 OP_EQUALVERIFY OP_CHECKSIG", "type": "pubkeyhash"}, "value": 0.03895846, "n": 1}], "hex": "010000000001016e2277552fad27a62638b2c238346b698d1077cc1752dd04577f4070a78a50d33d000000171600149852bf3644c7b8bd9c2a4b841baa6c86be1b54cfffffffff02551f140000000000160014d8f7d5622f9ed3cde5f103cda97755b93584a6be26723b00000000001976a914417b823364f24236e09897e0c93c49b4fa68974788ac02483045022100db6bfba8ad3dd2f68441d3dcb4b5e9fc5f9a5e21805f2335c48fa87ebcac024c02200a738279ec1d31e5805435ea18dfa8145fe8a497532864cfd997db310460c2ec012103506775f2a5411b9934575ab5abdf02cac88012654beff81480a28dba6ff6fa6f00000000", "vin": [{"txinwitness": ["3045022100db6bfba8ad3dd2f68441d3dcb4b5e9fc5f9a5e21805f2335c48fa87ebcac024c02200a738279ec1d31e5805435ea18dfa8145fe8a497532864cfd997db310460c2ec01", "03506775f2a5411b9934575ab5abdf02cac88012654beff81480a28dba6ff6fa6f"], "sequence": 4294967295, "scriptSig": {"hex": "1600149852bf3644c7b8bd9c2a4b841baa6c86be1b54cf", "asm": "00149852bf3644c7b8bd9c2a4b841baa6c86be1b54cf"}, "vout": 61, "txid": "d3508aa770407f5704dd5217cc77108d696b3438c2b23826a627ad2f5577226e"}], "txid": "9d2925de25ac519e7d166b1a64fc8e1959939a09f9f49925d02f6811ae01c8df", "blocktime": 1537872475, "version": 1, "confirmations": 11487, "time": 1537872475, "locktime": 0, "vsize": 167, "size": 249}