{"hash": "9d2b98df1535865d4da8441f7f2bfe6ae14b456c4a3ad0b87b140c2dcabec421", "blockhash": "0000000000000000000baef3f32e3676a92c3b2e5da21b426e4f302fc371ce76", "vout": [{"scriptPubKey": {"reqSigs": 1, "hex": "76a914d7efc2ad7fa02e380a48ee02976499b4abd7cf1e88ac", "addresses": ["1LgmW6Mdz6TNhb62XNKD1c16YN9xNKnHyb"], "asm": "OP_DUP OP_HASH160 d7efc2ad7fa02e380a48ee02976499b4abd7cf1e OP_EQUALVERIFY OP_CHECKSIG", "type": "pubkeyhash"}, "value": 0.02261, "n": 0}, {"scriptPubKey": {"reqSigs": 1, "hex": "a914e370231feecbfc25e2e2423a5a79bf79bfdca59887", "addresses": ["3NRbeX3vD5VaVE4TDU9ivCDsEf7NPPte6J"], "asm": "OP_HASH160 e370231feecbfc25e2e2423a5a79bf79bfdca598 OP_EQUAL", "type": "scripthash"}, "value": 2.69470187, "n": 1}], "hex": "010000000159ad1a279de610b449dca1a4d4b055a46b19645dcadb6db50229c22ee52ebe4e01000000da0047304402201dab6a2579795687847665c44830b45cb408a436aa8d5843bcfab1bb12d32cbd02202fe2d6e6c16d8ba7eb1abc084e458f654d3a410ad60312f3b4dff30c40c4d13d01483045022100c971f44bf55569a9732191935f17d551976f41580bd6f57cd0ea60a59d8cebfd022051081952bd4c905c3a5e176edf4fef476b78580b9b9c781c3c6c7637ec558833014752210327881b6abce6535553a3ce21fad12a7d74fd237ce7c4cd270a267162344e3082210256141f8eb687f5a68c5cc65054652dc25116fa285e44d72b44368827ffe77d9a52aeffffffff0208802200000000001976a914d7efc2ad7fa02e380a48ee02976499b4abd7cf1e88acebc90f100000000017a914e370231feecbfc25e2e2423a5a79bf79bfdca5988700000000", "vin": [{"sequence": 4294967295, "scriptSig": {"hex": "0047304402201dab6a2579795687847665c44830b45cb408a436aa8d5843bcfab1bb12d32cbd02202fe2d6e6c16d8ba7eb1abc084e458f654d3a410ad60312f3b4dff30c40c4d13d01483045022100c971f44bf55569a9732191935f17d551976f41580bd6f57cd0ea60a59d8cebfd022051081952bd4c905c3a5e176edf4fef476b78580b9b9c781c3c6c7637ec558833014752210327881b6abce6535553a3ce21fad12a7d74fd237ce7c4cd270a267162344e3082210256141f8eb687f5a68c5cc65054652dc25116fa285e44d72b44368827ffe77d9a52ae", "asm": "0 304402201dab6a2579795687847665c44830b45cb408a436aa8d5843bcfab1bb12d32cbd02202fe2d6e6c16d8ba7eb1abc084e458f654d3a410ad60312f3b4dff30c40c4d13d[ALL] 3045022100c971f44bf55569a9732191935f17d551976f41580bd6f57cd0ea60a59d8cebfd022051081952bd4c905c3a5e176edf4fef476b78580b9b9c781c3c6c7637ec558833[ALL] 52210327881b6abce6535553a3ce21fad12a7d74fd237ce7c4cd270a267162344e3082210256141f8eb687f5a68c5cc65054652dc25116fa285e44d72b44368827ffe77d9a52ae"}, "vout": 1, "txid": "4ebe2ee52ec22902b56ddbca5d64196ba455b0d4a4a1dc49b410e69d271aad59"}], "txid": "9d2b98df1535865d4da8441f7f2bfe6ae14b456c4a3ad0b87b140c2dcabec421", "blocktime": 1537876114, "version": 1, "confirmations": 11460, "time": 1537876114, "locktime": 0, "vsize": 335, "size": 335}