{"hash": "9d3038dc7749087ce950fb2357f30b817e44b681666b7bf9020b391d2ec6423f", "blockhash": "00000000000000000004ffacab907a6b429b9a5745fa0b75af4234bf69dd7176", "vout": [{"scriptPubKey": {"reqSigs": 1, "hex": "76a914061f5b05d4c3a60d96334955290c1ca45a9dc23b88ac", "addresses": ["1ZNcmrUQBtR26uoTiF4KderpAW2pK4nEm"], "asm": "OP_DUP OP_HASH160 061f5b05d4c3a60d96334955290c1ca45a9dc23b OP_EQUALVERIFY OP_CHECKSIG", "type": "pubkeyhash"}, "value": 0.27994704, "n": 0}, {"scriptPubKey": {"reqSigs": 1, "hex": "76a91439bfcfc522db9e569890b8a5a1d7d9317223646e88ac", "addresses": ["16GMJEosVvY3yY5AiB5sEk8UN3bubi6YfM"], "asm": "OP_DUP OP_HASH160 39bfcfc522db9e569890b8a5a1d7d9317223646e OP_EQUALVERIFY OP_CHECKSIG", "type": "pubkeyhash"}, "value": 0.095, "n": 1}], "hex": "010000000134203966ebbf9ed826765a0275078fd1b4a421ed48ca5480424819f2d33d5e3e000000006a473044022001588923a2ad3b2c88e571ab1c4f9a34139c9496f576d79b441198aca6d096f6022014e1cd88e2b86fdd8175274a8c614c27b0b76e4ee793094fbdcd71d2c761e771012103c6f12d68619da078432ab970921eda83220e4396d8463e5a95bdc7d186a463cdffffffff02502aab01000000001976a914061f5b05d4c3a60d96334955290c1ca45a9dc23b88ac60f59000000000001976a91439bfcfc522db9e569890b8a5a1d7d9317223646e88ac00000000", "vin": [{"sequence": 4294967295, "scriptSig": {"hex": "473044022001588923a2ad3b2c88e571ab1c4f9a34139c9496f576d79b441198aca6d096f6022014e1cd88e2b86fdd8175274a8c614c27b0b76e4ee793094fbdcd71d2c761e771012103c6f12d68619da078432ab970921eda83220e4396d8463e5a95bdc7d186a463cd", "asm": "3044022001588923a2ad3b2c88e571ab1c4f9a34139c9496f576d79b441198aca6d096f6022014e1cd88e2b86fdd8175274a8c614c27b0b76e4ee793094fbdcd71d2c761e771[ALL] 03c6f12d68619da078432ab970921eda83220e4396d8463e5a95bdc7d186a463cd"}, "vout": 0, "txid": "3e5e3dd3f21948428054ca48ed21a4b4d18f0775025a7626d89ebfeb66392034"}], "txid": "9d3038dc7749087ce950fb2357f30b817e44b681666b7bf9020b391d2ec6423f", "blocktime": 1537875543, "version": 1, "confirmations": 11464, "time": 1537875543, "locktime": 0, "vsize": 225, "size": 225}