{"hash": "468361278d8ccbb09292119e6d30a01aadaab597e5548f14c1a4dbe81c19947f", "blockhash": "0000000000000000000baef3f32e3676a92c3b2e5da21b426e4f302fc371ce76", "vout": [{"scriptPubKey": {"reqSigs": 1, "hex": "a914aa57dc3704e220e614fc7cfcd2467fb447ec161e87", "addresses": ["3HDi3nkeBtQz1EdUrTN34WhTubycRzmJAU"], "asm": "OP_HASH160 aa57dc3704e220e614fc7cfcd2467fb447ec161e OP_EQUAL", "type": "scripthash"}, "value": 9.98e-05, "n": 0}, {"scriptPubKey": {"reqSigs": 1, "hex": "a9140be7846be16b05bea00dbec2fcd7e045a793cb1787", "addresses": ["32mxhko5mJHfkbkDPpz7SfdJwEJi21P1WK"], "asm": "OP_HASH160 0be7846be16b05bea00dbec2fcd7e045a793cb17 OP_EQUAL", "type": "scripthash"}, "value": 0.17708117, "n": 1}], "hex": "01000000000101b492fa954af96a818a17ad37135ab04f658f97f133f9fe222c4ed22f6488e00b01000000232200202c66ece6da72bcbfeadf83a91236f4891c13e14d8ecebdcaa81666fc1aa73a31ffffffff02fc2600000000000017a914aa57dc3704e220e614fc7cfcd2467fb447ec161e8755340e010000000017a9140be7846be16b05bea00dbec2fcd7e045a793cb17870400483045022100e06f69fef49f1ddacd5728d3295b4e5a364a410337f3a9762d4c29bb7d0b40ae022019b6183d0bd48aa6c04737bc87833f294baa20ba0df9e099d7765b654f19313d01483045022100d0514680284c9b3489ac6491028cec7e32fc592b92e9cb586b2c09600306509f022034a2539040a2923517ff9f5c0882c0c94c9b9c6c7ba959bde99c436222af066201475221029e6fbb942d34a473faaa5557c1bfe08d72102f0b9754ad140fd369d7a3ba3cdc2103871fc2ca08e6950b38867e8e6a0e94ee625223d3aa0df5c65f414c6d784467e252ae00000000", "vin": [{"txinwitness": ["", "3045022100e06f69fef49f1ddacd5728d3295b4e5a364a410337f3a9762d4c29bb7d0b40ae022019b6183d0bd48aa6c04737bc87833f294baa20ba0df9e099d7765b654f19313d01", "3045022100d0514680284c9b3489ac6491028cec7e32fc592b92e9cb586b2c09600306509f022034a2539040a2923517ff9f5c0882c0c94c9b9c6c7ba959bde99c436222af066201", "5221029e6fbb942d34a473faaa5557c1bfe08d72102f0b9754ad140fd369d7a3ba3cdc2103871fc2ca08e6950b38867e8e6a0e94ee625223d3aa0df5c65f414c6d784467e252ae"], "sequence": 4294967295, "scriptSig": {"hex": "2200202c66ece6da72bcbfeadf83a91236f4891c13e14d8ecebdcaa81666fc1aa73a31", "asm": "00202c66ece6da72bcbfeadf83a91236f4891c13e14d8ecebdcaa81666fc1aa73a31"}, "vout": 1, "txid": "0be088642fd24e2c22fef933f1978f654fb05a1337ad178a816af94a95fa92b4"}], "txid": "9d38564a7a6f1a5cf0af97e29d500ba776288a8494ad1354f060d037a5569f45", "blocktime": 1537876114, "version": 1, "confirmations": 11462, "time": 1537876114, "locktime": 0, "vsize": 206, "size": 372}