{"hash": "9d3ca0c89f6efb753f1b61ad6d3e1e6488bb3cb0e7e9a46fe74a350fec5f7803", "blockhash": "00000000000000000004ffacab907a6b429b9a5745fa0b75af4234bf69dd7176", "vout": [{"scriptPubKey": {"reqSigs": 1, "hex": "76a91479199beb28bf8eeec2b61227cfd81546a8e4423c88ac", "addresses": ["1C3KSZUguMADEpa37QA11whsDhWXeMmVkZ"], "asm": "OP_DUP OP_HASH160 79199beb28bf8eeec2b61227cfd81546a8e4423c OP_EQUALVERIFY OP_CHECKSIG", "type": "pubkeyhash"}, "value": 0.00186114, "n": 0}, {"scriptPubKey": {"reqSigs": 1, "hex": "76a91430951dcb96dce97945b11f90928a0197a7115c7388ac", "addresses": ["15Rt4zmwu9dEQV6xMpWhUArnzKz3KHxkhH"], "asm": "OP_DUP OP_HASH160 30951dcb96dce97945b11f90928a0197a7115c73 OP_EQUALVERIFY OP_CHECKSIG", "type": "pubkeyhash"}, "value": 4.02282976, "n": 1}], "hex": "0100000001831d9d842060f4dfcc888b79086d424c7069d58b00a720e8a5ba2dd3853b593e010000006b48304502210089c4cbcf20c3a7ef154750b635e35376a67bb3c15377d0ffaf5019d610147dcf02200a44bebb7870d0d6b41f68728c7e2adbdc67622e7b4ccdd094f10738d8a6ca5401210272f629b97f02655ae2819a1f56e6482b3d1703a8c326aec448cc23456542a949ffffffff0202d70200000000001976a91479199beb28bf8eeec2b61227cfd81546a8e4423c88ace059fa17000000001976a91430951dcb96dce97945b11f90928a0197a7115c7388ac00000000", "vin": [{"sequence": 4294967295, "scriptSig": {"hex": "48304502210089c4cbcf20c3a7ef154750b635e35376a67bb3c15377d0ffaf5019d610147dcf02200a44bebb7870d0d6b41f68728c7e2adbdc67622e7b4ccdd094f10738d8a6ca5401210272f629b97f02655ae2819a1f56e6482b3d1703a8c326aec448cc23456542a949", "asm": "304502210089c4cbcf20c3a7ef154750b635e35376a67bb3c15377d0ffaf5019d610147dcf02200a44bebb7870d0d6b41f68728c7e2adbdc67622e7b4ccdd094f10738d8a6ca54[ALL] 0272f629b97f02655ae2819a1f56e6482b3d1703a8c326aec448cc23456542a949"}, "vout": 1, "txid": "3e593b85d32dbaa5e820a7008bd569704c426d08798b88ccdff46020849d1d83"}], "txid": "9d3ca0c89f6efb753f1b61ad6d3e1e6488bb3cb0e7e9a46fe74a350fec5f7803", "blocktime": 1537875543, "version": 1, "confirmations": 11464, "time": 1537875543, "locktime": 0, "vsize": 226, "size": 226}