{"hash": "9d3d7ee617617cdbc63d45024103cac60e9c873e6f93f4bbbde04d2a4853b6bf", "blockhash": "0000000000000000001f76057863aec43deb6fa401d9628bb513d65a8098bfab", "vout": [{"scriptPubKey": {"reqSigs": 1, "hex": "76a914bc0a8341ee94dba01616ad74afbf4d31c535230d88ac", "addresses": ["1J9GdW4WUPxkRecma7q5xCjzDQ66o1xsS5"], "asm": "OP_DUP OP_HASH160 bc0a8341ee94dba01616ad74afbf4d31c535230d OP_EQUALVERIFY OP_CHECKSIG", "type": "pubkeyhash"}, "value": 0.00998514, "n": 0}, {"scriptPubKey": {"reqSigs": 1, "hex": "76a914b050f318f7bd40d9da4bdf56200414d14bfab1f188ac", "addresses": ["1H5GuErpMQBqqyrX3afmgNPmbfvvKpB3r8"], "asm": "OP_DUP OP_HASH160 b050f318f7bd40d9da4bdf56200414d14bfab1f1 OP_EQUALVERIFY OP_CHECKSIG", "type": "pubkeyhash"}, "value": 0.03460525, "n": 1}], "hex": "0200000003b14ff119e233914a1485fa907143dca37f508564272d4818ab9e081536e8e691010000006a473044022010fb2e53b09b43cf96f9188e1b6b2e8dab184099cec34d996d4262911187af4c02205ca1573239090c350738d905075ecf497e41d485b5d45bf0e6535b1339c443ab012102337c8ca6f73a52bb6b691f4ce2291b4201eafc8db538168fcaf1b8c9f9da0a4bfeffffff9506c73bbcb794777a4748c8b0f25f7d74265f67abf99b879361900733b3ac49010000006b483045022100a2dc31f2c4336aaa5ea3a88da79034f45199dc0d9b75f6ac69ac857978389e07022008a61d7e3b9096afc3137871573b71bb47b9de08b26ccf2b54d69cc769a8dbc6012103792e4ab896224eb92141b32d13c8f8a70f08b7567e8f54c4dd6f048e299ff60cfefffffff10fc550f52c29200dc159c4e566a12c6d711cb60338c9b7f7ca69ab35c05a19000000006b4830450221009519efefd940d3b97c68fac06ec400c59c232c639e2305ec866bd9548c8162c80220010655fba706edc57ae337e482844ee0f8ed7e81a5c9c1d62017198003cc3a380121033798c7df44c875d319388578c31a2d230d272ad00045da991c79270e2b9d01cafeffffff02723c0f00000000001976a914bc0a8341ee94dba01616ad74afbf4d31c535230d88acadcd3400000000001976a914b050f318f7bd40d9da4bdf56200414d14bfab1f188ac13490800", "vin": [{"sequence": 4294967294, "scriptSig": {"hex": "473044022010fb2e53b09b43cf96f9188e1b6b2e8dab184099cec34d996d4262911187af4c02205ca1573239090c350738d905075ecf497e41d485b5d45bf0e6535b1339c443ab012102337c8ca6f73a52bb6b691f4ce2291b4201eafc8db538168fcaf1b8c9f9da0a4b", "asm": "3044022010fb2e53b09b43cf96f9188e1b6b2e8dab184099cec34d996d4262911187af4c02205ca1573239090c350738d905075ecf497e41d485b5d45bf0e6535b1339c443ab[ALL] 02337c8ca6f73a52bb6b691f4ce2291b4201eafc8db538168fcaf1b8c9f9da0a4b"}, "vout": 1, "txid": "91e6e83615089eab18482d276485507fa3dc437190fa85144a9133e219f14fb1"}, {"sequence": 4294967294, "scriptSig": {"hex": "483045022100a2dc31f2c4336aaa5ea3a88da79034f45199dc0d9b75f6ac69ac857978389e07022008a61d7e3b9096afc3137871573b71bb47b9de08b26ccf2b54d69cc769a8dbc6012103792e4ab896224eb92141b32d13c8f8a70f08b7567e8f54c4dd6f048e299ff60c", "asm": "3045022100a2dc31f2c4336aaa5ea3a88da79034f45199dc0d9b75f6ac69ac857978389e07022008a61d7e3b9096afc3137871573b71bb47b9de08b26ccf2b54d69cc769a8dbc6[ALL] 03792e4ab896224eb92141b32d13c8f8a70f08b7567e8f54c4dd6f048e299ff60c"}, "vout": 1, "txid": "49acb33307906193879bf9ab675f26747d5ff2b0c848477a7794b7bc3bc70695"}, {"sequence": 4294967294, "scriptSig": {"hex": "4830450221009519efefd940d3b97c68fac06ec400c59c232c639e2305ec866bd9548c8162c80220010655fba706edc57ae337e482844ee0f8ed7e81a5c9c1d62017198003cc3a380121033798c7df44c875d319388578c31a2d230d272ad00045da991c79270e2b9d01ca", "asm": "30450221009519efefd940d3b97c68fac06ec400c59c232c639e2305ec866bd9548c8162c80220010655fba706edc57ae337e482844ee0f8ed7e81a5c9c1d62017198003cc3a38[ALL] 033798c7df44c875d319388578c31a2d230d272ad00045da991c79270e2b9d01ca"}, "vout": 0, "txid": "195ac035ab69caf7b7c93803b61c716d2ca166e5c459c10d20292cf550c50ff1"}], "txid": "9d3d7ee617617cdbc63d45024103cac60e9c873e6f93f4bbbde04d2a4853b6bf", "blocktime": 1537873891, "version": 2, "confirmations": 11478, "time": 1537873891, "locktime": 542995, "vsize": 521, "size": 521}