{"hash": "0b45f5640215b2a18566d4423e8fa48479e0088e2d3a1024c36c09b954994d1d", "blockhash": "0000000000000000000dcc0f55137456b1a82d3642486a52398922ac4d620174", "vout": [{"scriptPubKey": {"reqSigs": 1, "hex": "76a914c04f593b1f1be68a8d1096d5f3ca969db3bbc95b88ac", "addresses": ["1JXqo4pnhNjto8HTgjPuJVkXEqvLPtTVEm"], "asm": "OP_DUP OP_HASH160 c04f593b1f1be68a8d1096d5f3ca969db3bbc95b OP_EQUALVERIFY OP_CHECKSIG", "type": "pubkeyhash"}, "value": 0.04759408, "n": 0}, {"scriptPubKey": {"reqSigs": 1, "hex": "a91443afc8d57193d1dbfd46dcb78d5b4c8d7e3d72a087", "addresses": ["37run7oNxbVR6SWqEx4HofaJVHramB6C6E"], "asm": "OP_HASH160 43afc8d57193d1dbfd46dcb78d5b4c8d7e3d72a0 OP_EQUAL", "type": "scripthash"}, "value": 0.01001631, "n": 1}], "hex": "0200000000010132066abfc507d0f360b1b10b666bde34684582ab8d1508e9a049aee19b52a02e000000001716001441ca3709daa475c054ab2a9ac956021339c37d97feffffff02709f4800000000001976a914c04f593b1f1be68a8d1096d5f3ca969db3bbc95b88ac9f480f000000000017a91443afc8d57193d1dbfd46dcb78d5b4c8d7e3d72a08702483045022100d350a8e37e85d91d576b216801ef5ec8382b7bc9f1320fd8d1e63b7705686c7202206bc053a073ded63009d9bbd5a08966d27ab4c810ff7a75f3eed3d963c7e394be012103975be55b9d3ff1147cad100f848082eb2ee91d753c1fc0bb9f0b64f24f64aa6f0b490800", "vin": [{"txinwitness": ["3045022100d350a8e37e85d91d576b216801ef5ec8382b7bc9f1320fd8d1e63b7705686c7202206bc053a073ded63009d9bbd5a08966d27ab4c810ff7a75f3eed3d963c7e394be01", "03975be55b9d3ff1147cad100f848082eb2ee91d753c1fc0bb9f0b64f24f64aa6f"], "sequence": 4294967294, "scriptSig": {"hex": "16001441ca3709daa475c054ab2a9ac956021339c37d97", "asm": "001441ca3709daa475c054ab2a9ac956021339c37d97"}, "vout": 0, "txid": "2ea0529be1ae49a0e908158dab82456834de6b660bb1b160f3d007c5bf6a0632"}], "txid": "9d3e23dfc7d75d97c4ec772e0b42c01bb00aace8ec1f7935e79b249e5e0f6db5", "blocktime": 1537870268, "version": 2, "confirmations": 11519, "time": 1537870268, "locktime": 542987, "vsize": 168, "size": 250}