{"hash": "9d4eb8eed74bfeabef2b74ed2d8dd0acc9b06dfaf4dee8a8d7547dd12f00c674", "blockhash": "000000000000000000022b45ed06c6f4ccd3cf7fb5ba4856ebd2e58215665228", "vout": [{"scriptPubKey": {"reqSigs": 1, "hex": "a91492a912acfdcb43daa72f8fc9fd9dbdd9d77eba0387", "addresses": ["3F4V7woSNAk3fYDxTX1WTk7wsDjFH1GsST"], "asm": "OP_HASH160 92a912acfdcb43daa72f8fc9fd9dbdd9d77eba03 OP_EQUAL", "type": "scripthash"}, "value": 0.000366, "n": 0}, {"scriptPubKey": {"reqSigs": 1, "hex": "0014c6433f30540318646c917146575c1b69d585444d", "addresses": ["bc1qcepn7vz5qvvxgmy3w9r9whqmd82c23zdyqlfqt"], "asm": "0 c6433f30540318646c917146575c1b69d585444d", "type": "witness_v0_keyhash"}, "value": 1.056e-05, "n": 1}], "hex": "0100000001351f242c7f05f37b5345712e03afab6368095005e45faf51291292513ec73f1cb80000006a473044022037f6f74fc6b00ab5b1174782c4a3d62370b05ed5542ba2dbe25489ff927e3f7c02201070a1d49b76a9d06a77d81e6b16c8eb85b1fbd3926076b6c7ecc675c0d658ca01210353f392ece5e965af121c68e8089a9e47fcd22a90b3b76681feb777ac835fe401ffffffff02f88e00000000000017a91492a912acfdcb43daa72f8fc9fd9dbdd9d77eba03872004000000000000160014c6433f30540318646c917146575c1b69d585444d00000000", "vin": [{"sequence": 4294967295, "scriptSig": {"hex": "473044022037f6f74fc6b00ab5b1174782c4a3d62370b05ed5542ba2dbe25489ff927e3f7c02201070a1d49b76a9d06a77d81e6b16c8eb85b1fbd3926076b6c7ecc675c0d658ca01210353f392ece5e965af121c68e8089a9e47fcd22a90b3b76681feb777ac835fe401", "asm": "3044022037f6f74fc6b00ab5b1174782c4a3d62370b05ed5542ba2dbe25489ff927e3f7c02201070a1d49b76a9d06a77d81e6b16c8eb85b1fbd3926076b6c7ecc675c0d658ca[ALL] 0353f392ece5e965af121c68e8089a9e47fcd22a90b3b76681feb777ac835fe401"}, "vout": 184, "txid": "1c3fc73e5192122951af5fe40550096863abaf032e7145537bf3057f2c241f35"}], "txid": "9d4eb8eed74bfeabef2b74ed2d8dd0acc9b06dfaf4dee8a8d7547dd12f00c674", "blocktime": 1537869901, "version": 1, "confirmations": 11523, "time": 1537869901, "locktime": 0, "vsize": 220, "size": 220}