{"hash": "9d4f19125f303f690770d1ef51d309448db43c6b85ed9822b4557f3648d30be6", "blockhash": "0000000000000000000e13cef7c366c0283d82e591d1acd082e914b08063cdf1", "vout": [{"scriptPubKey": {"reqSigs": 1, "hex": "76a9145945c4ec6e1b4cecc193232182a65eba8a3840d388ac", "addresses": ["1992ij18Rtxq5tt8hkfRijWpvoqLUX4grC"], "asm": "OP_DUP OP_HASH160 5945c4ec6e1b4cecc193232182a65eba8a3840d3 OP_EQUALVERIFY OP_CHECKSIG", "type": "pubkeyhash"}, "value": 0.06776263, "n": 0}], "hex": "01000000025f92a2491d7536d07acd0c01bb90756f139a5ab1f08a9c32bf885fa8a45042d7010000006b483045022100e35bf99f42af1332addbf2701a298b331a4c0ef91a5cb976e847c065ccbaf26002203b34aa8eed30e9fc5b2bf10b457e42aa2332ac6c0c7a119b832c551f9bd45c360121030ced0d26214ba9bce74b66f74afc6114abfde93765595e52aca152683b9bce8fffffffffa5c95143433e1639b4bc31869281ea17ec97fdad7bb4b0dc1dca5777c9ec9efd120000006a473044022067181783f828611674a32cc0c0bef1cf8db9e87693d2d0b891924ed740d54ef702202959353466ed3ca4f4613ecf1db3a3357a62770b48afdb1445703a4ad62fce4a0121030ced0d26214ba9bce74b66f74afc6114abfde93765595e52aca152683b9bce8fffffffff01c7656700000000001976a9145945c4ec6e1b4cecc193232182a65eba8a3840d388ac00000000", "vin": [{"sequence": 4294967295, "scriptSig": {"hex": "483045022100e35bf99f42af1332addbf2701a298b331a4c0ef91a5cb976e847c065ccbaf26002203b34aa8eed30e9fc5b2bf10b457e42aa2332ac6c0c7a119b832c551f9bd45c360121030ced0d26214ba9bce74b66f74afc6114abfde93765595e52aca152683b9bce8f", "asm": "3045022100e35bf99f42af1332addbf2701a298b331a4c0ef91a5cb976e847c065ccbaf26002203b34aa8eed30e9fc5b2bf10b457e42aa2332ac6c0c7a119b832c551f9bd45c36[ALL] 030ced0d26214ba9bce74b66f74afc6114abfde93765595e52aca152683b9bce8f"}, "vout": 1, "txid": "d74250a4a85f88bf329c8af0b15a9a136f7590bb010ccd7ad036751d49a2925f"}, {"sequence": 4294967295, "scriptSig": {"hex": "473044022067181783f828611674a32cc0c0bef1cf8db9e87693d2d0b891924ed740d54ef702202959353466ed3ca4f4613ecf1db3a3357a62770b48afdb1445703a4ad62fce4a0121030ced0d26214ba9bce74b66f74afc6114abfde93765595e52aca152683b9bce8f", "asm": "3044022067181783f828611674a32cc0c0bef1cf8db9e87693d2d0b891924ed740d54ef702202959353466ed3ca4f4613ecf1db3a3357a62770b48afdb1445703a4ad62fce4a[ALL] 030ced0d26214ba9bce74b66f74afc6114abfde93765595e52aca152683b9bce8f"}, "vout": 18, "txid": "fd9eecc97757ca1ddcb0b47badfd97ec17ea81928631bcb439163e434351c9a5"}], "txid": "9d4f19125f303f690770d1ef51d309448db43c6b85ed9822b4557f3648d30be6", "blocktime": 1537871767, "version": 1, "confirmations": 11495, "time": 1537871767, "locktime": 0, "vsize": 339, "size": 339}