{"hash": "1c7b5e176330b4d138210c4c5bc36ad5d749d8405dc8456f866bbe85d611283f", "blockhash": "0000000000000000000dcc0f55137456b1a82d3642486a52398922ac4d620174", "vout": [{"scriptPubKey": {"reqSigs": 1, "hex": "0014d35f1329624dc9a1b7c1572003faabe68b40d069", "addresses": ["bc1q6d03x2tzfhy6rd7p2usq874tu695p5rf7yum0l"], "asm": "0 d35f1329624dc9a1b7c1572003faabe68b40d069", "type": "witness_v0_keyhash"}, "value": 1.348e-05, "n": 0}, {"scriptPubKey": {"reqSigs": 1, "hex": "a914f5f85fe52178e2c2f0b77e6755dc872f670655cb87", "addresses": ["3Q7b1uojszYEf23MrjyZAG5eAYg8XF8xc7"], "asm": "OP_HASH160 f5f85fe52178e2c2f0b77e6755dc872f670655cb OP_EQUAL", "type": "scripthash"}, "value": 0.00217514, "n": 1}], "hex": "010000000001016c17d742b7679f5fbc1c2c213255f41947a78055f954babe4e9fc2c10e7837780000000000ffffffff024405000000000000160014d35f1329624dc9a1b7c1572003faabe68b40d069aa5103000000000017a914f5f85fe52178e2c2f0b77e6755dc872f670655cb8702483045022100c2d424ba76c0db015f2a56966c9faff2e743dd38efcacd766e0a18a2d62096c402204614aeedc6eea6c3713918d23db174df13fc323d0641b1430ce5101e50e66267012103c662a4f050a224ac50b9452907ec0582e9590390497c8be1ad788b8a26c80a2a00000000", "vin": [{"txinwitness": ["3045022100c2d424ba76c0db015f2a56966c9faff2e743dd38efcacd766e0a18a2d62096c402204614aeedc6eea6c3713918d23db174df13fc323d0641b1430ce5101e50e6626701", "03c662a4f050a224ac50b9452907ec0582e9590390497c8be1ad788b8a26c80a2a"], "sequence": 4294967295, "scriptSig": {"hex": "", "asm": ""}, "vout": 0, "txid": "7837780ec1c29f4ebeba54f95580a74719f45532212c1cbc5f9f67b742d7176c"}], "txid": "9d50ca484b1927155b5a56af6b7858825f2609e915971d505a638a6409f7d478", "blocktime": 1537870268, "version": 1, "confirmations": 11518, "time": 1537870268, "locktime": 0, "vsize": 142, "size": 224}