{"hash": "9d5474955f4fe44229da8e0cd6ee40b72902bf5359a7edf64b8a42e97ba07faa", "blockhash": "00000000000000000018f53835495a110e01622372bf6ae95dc86f2b0ab887b0", "vout": [{"scriptPubKey": {"reqSigs": 1, "hex": "a9141d4158936df625ae68ea67078110b7b2ea65857e87", "addresses": ["34MhoRgx1izSKhoAsqBK8VTK1yrGcMPXW5"], "asm": "OP_HASH160 1d4158936df625ae68ea67078110b7b2ea65857e OP_EQUAL", "type": "scripthash"}, "value": 0.07596881, "n": 0}], "hex": "0100000001637dca9e227678d42b2ccf02d87208b542fce67db9f24f0ba42184689d2264f8010000006b483045022100c3b4ae88db187941cad131c7a72c5573c2dd1bb26ccff80f0a4252bb7524cf67022032b2040cba72fca683959b3af01be303b5228c6a6fa35795b3ddbc54c71bc2240121026975e2fc2f27834c40b832db44c8f271a40ea57aa06df8e58de3e496f888bf84fdffffff0151eb73000000000017a9141d4158936df625ae68ea67078110b7b2ea65857e870e490800", "vin": [{"sequence": 4294967293, "scriptSig": {"hex": "483045022100c3b4ae88db187941cad131c7a72c5573c2dd1bb26ccff80f0a4252bb7524cf67022032b2040cba72fca683959b3af01be303b5228c6a6fa35795b3ddbc54c71bc2240121026975e2fc2f27834c40b832db44c8f271a40ea57aa06df8e58de3e496f888bf84", "asm": "3045022100c3b4ae88db187941cad131c7a72c5573c2dd1bb26ccff80f0a4252bb7524cf67022032b2040cba72fca683959b3af01be303b5228c6a6fa35795b3ddbc54c71bc224[ALL] 026975e2fc2f27834c40b832db44c8f271a40ea57aa06df8e58de3e496f888bf84"}, "vout": 1, "txid": "f864229d688421a40b4ff2b97de6fc42b50872d802cf2c2bd47876229eca7d63"}], "txid": "9d5474955f4fe44229da8e0cd6ee40b72902bf5359a7edf64b8a42e97ba07faa", "blocktime": 1537870928, "version": 1, "confirmations": 11514, "time": 1537870928, "locktime": 542990, "vsize": 190, "size": 190}