{"hash": "e02314513106d818baf89cbc399a2c4208cfccc350490e4dae6c2ef18509abe3", "blockhash": "0000000000000000001f76057863aec43deb6fa401d9628bb513d65a8098bfab", "vout": [{"scriptPubKey": {"reqSigs": 1, "hex": "00144a7c3e7ffaf99fcf6bd9abdb391f52d6ad1e2b2b", "addresses": ["bc1qff7rull6lx0u767e40dnj86j66k3u2etrm56j0"], "asm": "0 4a7c3e7ffaf99fcf6bd9abdb391f52d6ad1e2b2b", "type": "witness_v0_keyhash"}, "value": 3.495e-05, "n": 0}, {"scriptPubKey": {"reqSigs": 1, "hex": "76a91496260187a52681a88d078a89d000ac7ae41f5b0c88ac", "addresses": ["1EgutUcWPQhBrJ2bdCe9Lnp7xFWBvuojhv"], "asm": "OP_DUP OP_HASH160 96260187a52681a88d078a89d000ac7ae41f5b0c OP_EQUALVERIFY OP_CHECKSIG", "type": "pubkeyhash"}, "value": 0.003294, "n": 1}], "hex": "0100000000010176c3e321f21f9c7116c3107fd9abec34d42c2ee0f4d24505d399e97742c397bc0100000000ffffffff02a70d0000000000001600144a7c3e7ffaf99fcf6bd9abdb391f52d6ad1e2b2bb8060500000000001976a91496260187a52681a88d078a89d000ac7ae41f5b0c88ac02483045022100e75614ecf8d8498cae272de039de4d3c5b8cc3f1f0745532b08cd371005ea0ce022009a81562cb3404ab4ad310a2909753fb912d1c17f92263162fe7a3338540a63b01210389a0220095e4ae56d335e0cc1fb49db85a03cb6c078e697144b9d7e86f10db3c00000000", "vin": [{"txinwitness": ["3045022100e75614ecf8d8498cae272de039de4d3c5b8cc3f1f0745532b08cd371005ea0ce022009a81562cb3404ab4ad310a2909753fb912d1c17f92263162fe7a3338540a63b01", "0389a0220095e4ae56d335e0cc1fb49db85a03cb6c078e697144b9d7e86f10db3c"], "sequence": 4294967295, "scriptSig": {"hex": "", "asm": ""}, "vout": 1, "txid": "bc97c34277e999d30545d2f4e02e2cd434ecabd97f10c316719c1ff221e3c376"}], "txid": "9d5cadb8725c606fbbe8f273a5b48dc972bc8459bdcd245e700c7f3d231ed62b", "blocktime": 1537873891, "version": 1, "confirmations": 11478, "time": 1537873891, "locktime": 0, "vsize": 144, "size": 226}