{"hash": "057fb068deaaf984bf8795a2be2ff1d9fc59da1db72cdac5ce21f2e713ba4d7e", "blockhash": "0000000000000000001cda96e906b7601b7a6fb1a3b62bca570a9e5d8f4b3de1", "vout": [{"scriptPubKey": {"reqSigs": 1, "hex": "a914d5d8d453cdd5f05de1ed620b8d3324ca7d8a5d8387", "addresses": ["3MBjbyVDn2atEV5azCvDtL5snz32kaAn4Z"], "asm": "OP_HASH160 d5d8d453cdd5f05de1ed620b8d3324ca7d8a5d83 OP_EQUAL", "type": "scripthash"}, "value": 0.0020386, "n": 0}, {"scriptPubKey": {"reqSigs": 1, "hex": "a9141385c651b4bfa9e5906cc15ba841824731630c7b87", "addresses": ["33UF21uu9bd4nfphg2owtNpqmkAqDFqHp5"], "asm": "OP_HASH160 1385c651b4bfa9e5906cc15ba841824731630c7b OP_EQUAL", "type": "scripthash"}, "value": 0.01011001, "n": 1}], "hex": "02000000000102476713e49cb99c02dda451bda87fc481fc1402ed0ca32839f7d6efd197b73df70900000017160014e1afc9bba86f3b75f9c1e8bc190a9e487a7d3020feffffff87b632748579004701672effe966cff4c278f08204dad9a7101c09f2f84790d300000000171600141cf4059afb22a3e375587c1bce20600a23793de2feffffff02541c03000000000017a914d5d8d453cdd5f05de1ed620b8d3324ca7d8a5d8387396d0f000000000017a9141385c651b4bfa9e5906cc15ba841824731630c7b8702473044022043e2447df4593e5e2dabf5df0d7b4f2b76ce2ac9042538fdba6507fcde161c23022070269075f3d81f9297164efcf31978a999e14c1c81878e322bb48b1392fcabc30121035943efe544db78c8d61671d066d733caf50de7e22431f170755f34592f47d8b302483045022100c8b934cac5f497d949c3d252165b3e9c08dbfe3aca4ef7316e2d686455ad0e21022036e5e9150ebd27fe437c942e6a638ca6e5c3b63e912f0c9e50bf8b63c11d93f0012103173799b4678916b5923fb7fc51cc749a3d27038a674cd97a06b625020072543eef480800", "vin": [{"txinwitness": ["3044022043e2447df4593e5e2dabf5df0d7b4f2b76ce2ac9042538fdba6507fcde161c23022070269075f3d81f9297164efcf31978a999e14c1c81878e322bb48b1392fcabc301", "035943efe544db78c8d61671d066d733caf50de7e22431f170755f34592f47d8b3"], "sequence": 4294967294, "scriptSig": {"hex": "160014e1afc9bba86f3b75f9c1e8bc190a9e487a7d3020", "asm": "0014e1afc9bba86f3b75f9c1e8bc190a9e487a7d3020"}, "vout": 9, "txid": "f73db797d1efd6f73928a30ced0214fc81c47fa8bd51a4dd029cb99ce4136747"}, {"txinwitness": ["3045022100c8b934cac5f497d949c3d252165b3e9c08dbfe3aca4ef7316e2d686455ad0e21022036e5e9150ebd27fe437c942e6a638ca6e5c3b63e912f0c9e50bf8b63c11d93f001", "03173799b4678916b5923fb7fc51cc749a3d27038a674cd97a06b625020072543e"], "sequence": 4294967294, "scriptSig": {"hex": "1600141cf4059afb22a3e375587c1bce20600a23793de2", "asm": "00141cf4059afb22a3e375587c1bce20600a23793de2"}, "vout": 0, "txid": "d39047f8f2091c10a7d9da0482f078c2f4cf66e9ff2e6701470079857432b687"}], "txid": "9d5dc5bc58e964e5a4fcb1dfe64e4ca5bc2fed7ff100c0221f56a07b12f82e46", "blocktime": 1537873282, "version": 2, "confirmations": 11485, "time": 1537873282, "locktime": 542959, "vsize": 257, "size": 419}