{"hash": "afcd40050fa33e8dcf18ee6c333b287df4bf4f59320e3b96364fbb4adb296ebd", "blockhash": "0000000000000000001f76057863aec43deb6fa401d9628bb513d65a8098bfab", "vout": [{"scriptPubKey": {"reqSigs": 1, "hex": "a914372161b0013c942aa40c3882abedbe264ccf5ebb87", "addresses": ["36iX5VGCDYQpD19x1W3gv25WJtQkpkkTnp"], "asm": "OP_HASH160 372161b0013c942aa40c3882abedbe264ccf5ebb OP_EQUAL", "type": "scripthash"}, "value": 0.00999268, "n": 0}, {"scriptPubKey": {"reqSigs": 1, "hex": "76a914367a3e75cf51d015d36bf99697d74de111caa24688ac", "addresses": ["15y3w29iodNpdZeUBCYqaeYhGrpb9UyWGQ"], "asm": "OP_DUP OP_HASH160 367a3e75cf51d015d36bf99697d74de111caa246 OP_EQUALVERIFY OP_CHECKSIG", "type": "pubkeyhash"}, "value": 0.01483258, "n": 1}], "hex": "020000000001027bbf54179727dc1969a2c22e02927de28da674d28944e075aae86f998790583f00000000171600140572d9acc9b261ec9163b24db1e7f35bb0ad725ffdffffff927c2f049d81fd977a1528b9d4e6b181ac5cbcce12cdb0689664e0b20203f5f00100000017160014555cdcfd8ff4228005f8c6debc7956859dc6108efdffffff02643f0f000000000017a914372161b0013c942aa40c3882abedbe264ccf5ebb87faa11600000000001976a914367a3e75cf51d015d36bf99697d74de111caa24688ac02483045022100ce1da4360452c19f8f9600908b65274d0e8a1000bcd4dfcf32cf06c0172dc5a00220495ac3ab52a1d6e2cd51f4fe0e878855a354d34f89779eab769bac2e1a9e774b01210237c2b5a3059eb528ed60bd829a614a391f7149e4f474d590e3ec2fd4aead9cee0247304402206f591a5a8afac6cafd95d40c570d050dcda8d8bf74da69c0bd4634bf5308abaa02201822c646b3f7d1664cf0fce8a9db835e127e07774e2c20d028852c11781a6538012103a9426829ce1b6adbee0f13888ca072182bb6811d68431704f9403d1e3323bc3500000000", "vin": [{"txinwitness": ["3045022100ce1da4360452c19f8f9600908b65274d0e8a1000bcd4dfcf32cf06c0172dc5a00220495ac3ab52a1d6e2cd51f4fe0e878855a354d34f89779eab769bac2e1a9e774b01", "0237c2b5a3059eb528ed60bd829a614a391f7149e4f474d590e3ec2fd4aead9cee"], "sequence": 4294967293, "scriptSig": {"hex": "1600140572d9acc9b261ec9163b24db1e7f35bb0ad725f", "asm": "00140572d9acc9b261ec9163b24db1e7f35bb0ad725f"}, "vout": 0, "txid": "3f589087996fe8aa75e04489d274a68de27d92022ec2a26919dc27971754bf7b"}, {"txinwitness": ["304402206f591a5a8afac6cafd95d40c570d050dcda8d8bf74da69c0bd4634bf5308abaa02201822c646b3f7d1664cf0fce8a9db835e127e07774e2c20d028852c11781a653801", "03a9426829ce1b6adbee0f13888ca072182bb6811d68431704f9403d1e3323bc35"], "sequence": 4294967293, "scriptSig": {"hex": "160014555cdcfd8ff4228005f8c6debc7956859dc6108e", "asm": "0014555cdcfd8ff4228005f8c6debc7956859dc6108e"}, "vout": 1, "txid": "f0f50302b2e0649668b0cd12cebc5cac81b1e6d4b928157a97fd819d042f7c92"}], "txid": "9d62538d985bfdf400d19b88d1d92cb5c8a49b5c069bcf8cfa6416acf2963804", "blocktime": 1537873891, "version": 2, "confirmations": 11478, "time": 1537873891, "locktime": 0, "vsize": 259, "size": 421}