{"hash": "3d0ab54c9fbe98632dad836c8955e0757a5dc101cd44f6b11308e742a655f9a6", "blockhash": "000000000000000000205f8b0775d31398ef75b89a5e8ec8d2c57b4dc0ac4c20", "vout": [{"scriptPubKey": {"reqSigs": 1, "hex": "76a91443a10932fc57c229ebd81c8e5a7e3400cae9384988ac", "addresses": ["17AbBpszoAQQiRmVdCETBT6eiR3zfQicVw"], "asm": "OP_DUP OP_HASH160 43a10932fc57c229ebd81c8e5a7e3400cae93849 OP_EQUALVERIFY OP_CHECKSIG", "type": "pubkeyhash"}, "value": 9.34, "n": 0}, {"scriptPubKey": {"reqSigs": 1, "hex": "76a91479f95b1f39235a3b3af944a711ab94ddc229a81c88ac", "addresses": ["1C7wUmSoCurmBStdY5yHRV3WMbgXwcGsfe"], "asm": "OP_DUP OP_HASH160 79f95b1f39235a3b3af944a711ab94ddc229a81c OP_EQUALVERIFY OP_CHECKSIG", "type": "pubkeyhash"}, "value": 4.9996, "n": 1}, {"scriptPubKey": {"reqSigs": 1, "hex": "76a914cebb2851a9c7cfe2582c12ecaf7f3ff4383d1dc088ac", "addresses": ["1Kr6QSydW9bFQG1mXiPNNu6WpJGmUa9i1g"], "asm": "OP_DUP OP_HASH160 cebb2851a9c7cfe2582c12ecaf7f3ff4383d1dc0 OP_EQUALVERIFY OP_CHECKSIG", "type": "pubkeyhash"}, "value": 142.79770835, "n": 2}], "hex": "02000000000102d2c686ed94084f658ef0f9158e3af107519cffe89f82c07b7ca851ff13c44f66040000006a47304402201e804309a7a999e12f3d6d0dfb5e9cc323eb89f32c18d3e3dfefe3ea5b56de2902201a722375361f7bd0c4b5abc8160b75027f2db8f829225ad49ef01d4d5bba5ef3012103786af4b32017ec640dba2d2a7e1fd5aa4a231a658e4cbc114d51c031576e19bcffffffff724b3dffa2377736ed096a1ce53f46952f9d92ed75ed9dae31354673d6bc6dbd000000001716001452a4f1e7310629af72e318ad6bef5a709d1dbd45ffffffff0380b5ab37000000001976a91443a10932fc57c229ebd81c8e5a7e3400cae9384988acc0c8cc1d000000001976a91479f95b1f39235a3b3af944a711ab94ddc229a81c88acd3022453030000001976a914cebb2851a9c7cfe2582c12ecaf7f3ff4383d1dc088ac00024830450221009645ddddc8c92a32c9e870e7167ca02037b4bb5107dc82beea6c78569dcba4f502205c87bef1285fe2b3bc419438330adf6bdc372c79504c3a80c5d5a16af3a54964012103d2db136a5799d31766051a76752ae75f5acac855fb4fcabbc9c7f0a906bd0e7100000000", "vin": [{"sequence": 4294967295, "scriptSig": {"hex": "47304402201e804309a7a999e12f3d6d0dfb5e9cc323eb89f32c18d3e3dfefe3ea5b56de2902201a722375361f7bd0c4b5abc8160b75027f2db8f829225ad49ef01d4d5bba5ef3012103786af4b32017ec640dba2d2a7e1fd5aa4a231a658e4cbc114d51c031576e19bc", "asm": "304402201e804309a7a999e12f3d6d0dfb5e9cc323eb89f32c18d3e3dfefe3ea5b56de2902201a722375361f7bd0c4b5abc8160b75027f2db8f829225ad49ef01d4d5bba5ef3[ALL] 03786af4b32017ec640dba2d2a7e1fd5aa4a231a658e4cbc114d51c031576e19bc"}, "vout": 4, "txid": "664fc413ff51a87c7bc0829fe8ff9c5107f13a8e15f9f08e654f0894ed86c6d2"}, {"txinwitness": ["30450221009645ddddc8c92a32c9e870e7167ca02037b4bb5107dc82beea6c78569dcba4f502205c87bef1285fe2b3bc419438330adf6bdc372c79504c3a80c5d5a16af3a5496401", "03d2db136a5799d31766051a76752ae75f5acac855fb4fcabbc9c7f0a906bd0e71"], "sequence": 4294967295, "scriptSig": {"hex": "16001452a4f1e7310629af72e318ad6bef5a709d1dbd45", "asm": "001452a4f1e7310629af72e318ad6bef5a709d1dbd45"}, "vout": 0, "txid": "bd6dbcd673463531ae9ded75ed929d2f95463fe51c6a09ed367737a2ff3d4b72"}], "txid": "9d633ae4f50ce604516d5aee1fbad98b3933c614b67b43610c4e11630d1c224e", "blocktime": 1537871175, "version": 2, "confirmations": 11511, "time": 1537871175, "locktime": 0, "vsize": 351, "size": 434}