{"hash": "ba5442b67092c904110788eb11c8980f4aa5a147c9fe4ff3e1c6db0947e8ed8e", "blockhash": "0000000000000000001cda96e906b7601b7a6fb1a3b62bca570a9e5d8f4b3de1", "vout": [{"scriptPubKey": {"reqSigs": 1, "hex": "a9140ce409a1b1496e1e49ff82e83723ad650a617eda87", "addresses": ["32sBDBFbLi8hJYHVUD5AfKPS3ftvbPfJBM"], "asm": "OP_HASH160 0ce409a1b1496e1e49ff82e83723ad650a617eda OP_EQUAL", "type": "scripthash"}, "value": 0.032627, "n": 0}, {"scriptPubKey": {"reqSigs": 1, "hex": "a914f2c545f268f12ac1aaccd7926520f34f44d19f5887", "addresses": ["3PpfmkWkmbU2zNNEeJMPh29Vm6K1isHHtJ"], "asm": "OP_HASH160 f2c545f268f12ac1aaccd7926520f34f44d19f58 OP_EQUAL", "type": "scripthash"}, "value": 0.00998439, "n": 1}], "hex": "020000000001012a7379f04ea6c99ac4c726f13fd3b874700f967671fe76baf11de39b4ee90d810000000017160014a59bdc2b911c618d52d0409eb4554e3dcc7287eafeffffff02ecc831000000000017a9140ce409a1b1496e1e49ff82e83723ad650a617eda87273c0f000000000017a914f2c545f268f12ac1aaccd7926520f34f44d19f5887024730440220193db1cbe2c14c92ec70bf93e4a8e241af231fa85eb7b46107a022bac3a952ed02203306200f6411854c38ee0c2df49ac521280292c5691615b3014af439b3ab30330121039188f0e8b1bca3715bb2bb5568c1e2cb2bc4dfc1c16f6c71246282ca8255bc3b13490800", "vin": [{"txinwitness": ["30440220193db1cbe2c14c92ec70bf93e4a8e241af231fa85eb7b46107a022bac3a952ed02203306200f6411854c38ee0c2df49ac521280292c5691615b3014af439b3ab303301", "039188f0e8b1bca3715bb2bb5568c1e2cb2bc4dfc1c16f6c71246282ca8255bc3b"], "sequence": 4294967294, "scriptSig": {"hex": "160014a59bdc2b911c618d52d0409eb4554e3dcc7287ea", "asm": "0014a59bdc2b911c618d52d0409eb4554e3dcc7287ea"}, "vout": 0, "txid": "810de94e9be31df1ba76fe7176960f7074b8d33ff126c7c49ac9a64ef079732a"}], "txid": "9d6644481f1d4c702cbb02ceae3581bc3b1fb9532d3d83deeb2ad5cd97198236", "blocktime": 1537873282, "version": 2, "confirmations": 11481, "time": 1537873282, "locktime": 542995, "vsize": 166, "size": 247}