{"hash": "9d6db49ea8c32921a0ccad1439d62a814b66751db4603ff431d32bcdabe3efdb", "blockhash": "0000000000000000000e13cef7c366c0283d82e591d1acd082e914b08063cdf1", "vout": [{"scriptPubKey": {"reqSigs": 1, "hex": "76a914662c1ea6c6028f82a4b01d339fe982b99f50b22088ac", "addresses": ["1AKEn4SxrLLKheWSNswXKAJLEqLSqZZBmW"], "asm": "OP_DUP OP_HASH160 662c1ea6c6028f82a4b01d339fe982b99f50b220 OP_EQUALVERIFY OP_CHECKSIG", "type": "pubkeyhash"}, "value": 0.1685012, "n": 0}, {"scriptPubKey": {"reqSigs": 1, "hex": "76a9140460833f3714d19f119e7c34da7647d4c143c79f88ac", "addresses": ["1Q9KaziCvgMMVqK5MQff4EG6RMNf9Y4hL"], "asm": "OP_DUP OP_HASH160 0460833f3714d19f119e7c34da7647d4c143c79f OP_EQUALVERIFY OP_CHECKSIG", "type": "pubkeyhash"}, "value": 0.00026, "n": 1}], "hex": "010000000155688d8a1794a3dfaecc81e930c371a9abd4f65f040f07912e6a5ae1cf16caec010000006b483045022100a769f9f4b448e0748833dbf67d640b1ae745476fe889d2d5ca784f67d52e8ca20220165e078d32a8f220a9c038943fc6b84338b8b9607013c3b7d8865548a58ceedd012103ca2d3bbf9c4520b3d851a3c5ed79bf9c0f6db72781f55f32f3dd77ba6a4228bcfeffffff02c81c0101000000001976a914662c1ea6c6028f82a4b01d339fe982b99f50b22088ac90650000000000001976a9140460833f3714d19f119e7c34da7647d4c143c79f88ac10490800", "vin": [{"sequence": 4294967294, "scriptSig": {"hex": "483045022100a769f9f4b448e0748833dbf67d640b1ae745476fe889d2d5ca784f67d52e8ca20220165e078d32a8f220a9c038943fc6b84338b8b9607013c3b7d8865548a58ceedd012103ca2d3bbf9c4520b3d851a3c5ed79bf9c0f6db72781f55f32f3dd77ba6a4228bc", "asm": "3045022100a769f9f4b448e0748833dbf67d640b1ae745476fe889d2d5ca784f67d52e8ca20220165e078d32a8f220a9c038943fc6b84338b8b9607013c3b7d8865548a58ceedd[ALL] 03ca2d3bbf9c4520b3d851a3c5ed79bf9c0f6db72781f55f32f3dd77ba6a4228bc"}, "vout": 1, "txid": "ecca16cfe15a6a2e91070f045ff6d4aba971c330e981ccaedfa394178a8d6855"}], "txid": "9d6db49ea8c32921a0ccad1439d62a814b66751db4603ff431d32bcdabe3efdb", "blocktime": 1537871767, "version": 1, "confirmations": 11490, "time": 1537871767, "locktime": 542992, "vsize": 226, "size": 226}