{"hash": "9d6dc2dd3b8f8deae3fffc0415e6943085092d3c5779669ad2ef5e22cd5a4063", "blockhash": "0000000000000000000e13cef7c366c0283d82e591d1acd082e914b08063cdf1", "vout": [{"scriptPubKey": {"reqSigs": 1, "hex": "76a914bcfd1afaf23b4a18443477fe1fd23d52ba8c3b6388ac", "addresses": ["1JEHF8qFoa7H8qVqrUJFXX879BmVW2c4Te"], "asm": "OP_DUP OP_HASH160 bcfd1afaf23b4a18443477fe1fd23d52ba8c3b63 OP_EQUALVERIFY OP_CHECKSIG", "type": "pubkeyhash"}, "value": 0.01361984, "n": 0}, {"scriptPubKey": {"reqSigs": 1, "hex": "76a91447685f7b72428464980c26a9e5a30d216a3e4f9f88ac", "addresses": ["17Wa1ajPBzHSw6SU2UqdjFPB5ZiuR6wJWD"], "asm": "OP_DUP OP_HASH160 47685f7b72428464980c26a9e5a30d216a3e4f9f OP_EQUALVERIFY OP_CHECKSIG", "type": "pubkeyhash"}, "value": 5.46e-06, "n": 1}, {"scriptPubKey": {"type": "nulldata", "hex": "6a146f6d6e69000000000000001f00000915fa66bc00", "asm": "OP_RETURN 6f6d6e69000000000000001f00000915fa66bc00"}, "value": 0.0, "n": 2}], "hex": "0100000002f89e27f09f71903e3e8eb18f6060e7bcecaeafbeee7cb4f047d232b46bdd9618010000008a473044022051f9965da34a25f56b22673fe33af479dbb416a1580ca4efc067600d62db604b02201d2e5238cb90ce9677adf874052e8066d012216ddda6d5ae3e1015be1cd96fe00141046d64233d2374fa1bd129e4aba5cf2134e1e9074a5f8bad771e640c74c4a645b27840baaeba1ae06252a97324a72838238c374c28c55b28c9a498c0cda54ec726ffffffff0795d2a513bc2e5c8daac0785f0463e8e4e518173f6a8793acfb7f51aa012651000000008b483045022100911f1b307adc26a10bb4b30fcdb09cff23fc9832bf33ca4215930a325c24912d022039ffe5dbaae0547ba34e7e6d41271433153e51a1db93821b397c6814a2223c510141046d64233d2374fa1bd129e4aba5cf2134e1e9074a5f8bad771e640c74c4a645b27840baaeba1ae06252a97324a72838238c374c28c55b28c9a498c0cda54ec726ffffffff0340c81400000000001976a914bcfd1afaf23b4a18443477fe1fd23d52ba8c3b6388ac22020000000000001976a91447685f7b72428464980c26a9e5a30d216a3e4f9f88ac0000000000000000166a146f6d6e69000000000000001f00000915fa66bc0000000000", "vin": [{"sequence": 4294967295, "scriptSig": {"hex": "473044022051f9965da34a25f56b22673fe33af479dbb416a1580ca4efc067600d62db604b02201d2e5238cb90ce9677adf874052e8066d012216ddda6d5ae3e1015be1cd96fe00141046d64233d2374fa1bd129e4aba5cf2134e1e9074a5f8bad771e640c74c4a645b27840baaeba1ae06252a97324a72838238c374c28c55b28c9a498c0cda54ec726", "asm": "3044022051f9965da34a25f56b22673fe33af479dbb416a1580ca4efc067600d62db604b02201d2e5238cb90ce9677adf874052e8066d012216ddda6d5ae3e1015be1cd96fe0[ALL] 046d64233d2374fa1bd129e4aba5cf2134e1e9074a5f8bad771e640c74c4a645b27840baaeba1ae06252a97324a72838238c374c28c55b28c9a498c0cda54ec726"}, "vout": 1, "txid": "1896dd6bb432d247f0b47ceebeafaeecbce760608fb18e3e3e90719ff0279ef8"}, {"sequence": 4294967295, "scriptSig": {"hex": "483045022100911f1b307adc26a10bb4b30fcdb09cff23fc9832bf33ca4215930a325c24912d022039ffe5dbaae0547ba34e7e6d41271433153e51a1db93821b397c6814a2223c510141046d64233d2374fa1bd129e4aba5cf2134e1e9074a5f8bad771e640c74c4a645b27840baaeba1ae06252a97324a72838238c374c28c55b28c9a498c0cda54ec726", "asm": "3045022100911f1b307adc26a10bb4b30fcdb09cff23fc9832bf33ca4215930a325c24912d022039ffe5dbaae0547ba34e7e6d41271433153e51a1db93821b397c6814a2223c51[ALL] 046d64233d2374fa1bd129e4aba5cf2134e1e9074a5f8bad771e640c74c4a645b27840baaeba1ae06252a97324a72838238c374c28c55b28c9a498c0cda54ec726"}, "vout": 0, "txid": "512601aa517ffbac93876a3f1718e5e4e863045f78c0aa8d5c2ebc13a5d29507"}], "txid": "9d6dc2dd3b8f8deae3fffc0415e6943085092d3c5779669ad2ef5e22cd5a4063", "blocktime": 1537871767, "version": 1, "confirmations": 11491, "time": 1537871767, "locktime": 0, "vsize": 468, "size": 468}