{"hash": "9d6ebe2895ca18919250ec037436c422721306ad1c11539970158d08eafe43f4", "blockhash": "00000000000000000018f53835495a110e01622372bf6ae95dc86f2b0ab887b0", "vout": [{"scriptPubKey": {"reqSigs": 1, "hex": "76a914798e170935f9586cabbfe4447b3bcad238a07e7488ac", "addresses": ["1C5iyoCzS5MzK6rS6NRvri71Aw6UBWb899"], "asm": "OP_DUP OP_HASH160 798e170935f9586cabbfe4447b3bcad238a07e74 OP_EQUALVERIFY OP_CHECKSIG", "type": "pubkeyhash"}, "value": 0.00046848, "n": 0}, {"scriptPubKey": {"reqSigs": 1, "hex": "76a914a021f50733e8d424aae9fbad328060f1aae264d788ac", "addresses": ["1Fbho5S13uBtiBdoC7nRUQ9dgeJ9tVj7uH"], "asm": "OP_DUP OP_HASH160 a021f50733e8d424aae9fbad328060f1aae264d7 OP_EQUALVERIFY OP_CHECKSIG", "type": "pubkeyhash"}, "value": 0.08058199, "n": 1}], "hex": "01000000013324f90eb1071d73a3033a6a8036609b7c987af7a35783f3f45619b30ef976bf010000008a47304402201ad81479db44a6f605f3ac17ba03946cf7752e4055bc21dc682610ca3d88ca6d0220762ae21ec28025bfdbc0cafa87e78bcd3309efe7584eafd7aad449fd5f1de0980141040ebad9fab5730003693fdfea65f6e8a022e18032b5a4a4c47ed622a5ecc5658fc02aed86bb55b1eef8f5ae8cf5c59acac262c83e5692375bf1179b1932f779c2ffffffff0200b70000000000001976a914798e170935f9586cabbfe4447b3bcad238a07e7488ac57f57a00000000001976a914a021f50733e8d424aae9fbad328060f1aae264d788ac00000000", "vin": [{"sequence": 4294967295, "scriptSig": {"hex": "47304402201ad81479db44a6f605f3ac17ba03946cf7752e4055bc21dc682610ca3d88ca6d0220762ae21ec28025bfdbc0cafa87e78bcd3309efe7584eafd7aad449fd5f1de0980141040ebad9fab5730003693fdfea65f6e8a022e18032b5a4a4c47ed622a5ecc5658fc02aed86bb55b1eef8f5ae8cf5c59acac262c83e5692375bf1179b1932f779c2", "asm": "304402201ad81479db44a6f605f3ac17ba03946cf7752e4055bc21dc682610ca3d88ca6d0220762ae21ec28025bfdbc0cafa87e78bcd3309efe7584eafd7aad449fd5f1de098[ALL] 040ebad9fab5730003693fdfea65f6e8a022e18032b5a4a4c47ed622a5ecc5658fc02aed86bb55b1eef8f5ae8cf5c59acac262c83e5692375bf1179b1932f779c2"}, "vout": 1, "txid": "bf76f90eb31956f4f38357a3f77a987c9b6036806a3a03a3731d07b10ef92433"}], "txid": "9d6ebe2895ca18919250ec037436c422721306ad1c11539970158d08eafe43f4", "blocktime": 1537870928, "version": 1, "confirmations": 11514, "time": 1537870928, "locktime": 0, "vsize": 257, "size": 257}