{"hash": "9d71254c885880475927a93bda678da7f949db69dd7c0e1b89bbaa41d93a0953", "blockhash": "0000000000000000001f0ddff1eddb255c1121bcd4da4f1bc9a0da00cae72433", "vout": [{"scriptPubKey": {"reqSigs": 1, "hex": "76a91421b78bcf65a2feb65fdd7f596075acd908b234c988ac", "addresses": ["145HBLgVcGBn91VpUn3MsKo3By8dpaae4U"], "asm": "OP_DUP OP_HASH160 21b78bcf65a2feb65fdd7f596075acd908b234c9 OP_EQUALVERIFY OP_CHECKSIG", "type": "pubkeyhash"}, "value": 0.01597635, "n": 0}, {"scriptPubKey": {"reqSigs": 1, "hex": "a914e93f06f062e6cb61374c1369e77d7c3368d79c8587", "addresses": ["3NxJsSVSMuhuhpzCM51Sot7ixbsZwXUuoK"], "asm": "OP_HASH160 e93f06f062e6cb61374c1369e77d7c3368d79c85 OP_EQUAL", "type": "scripthash"}, "value": 0.00927159, "n": 1}], "hex": "020000000209e3a1c97361e5bf7c6a945502d5c13259693d89953f23ef8ab51c015c11adff010000006a4730440220706eed9ec98ecb6aa467cc1dda16fce003d0907ba290fdd2918bb42d133affbd0220728673fd6fc0d5c44538187553e9a2923f6843daf1f5c39fe865ad9d797527be01210203c203188c12213ce904ddb8792a010bd6c2621efd9296e846a0626d70ec60b3fefffffff767aa360a914ca260e7dc9d75f020d59928698a35f380d8895c3eb954cff1f5010000006a47304402200632c0ace2eec1dedaa40f5d8b126eeb3cd847ca198aa12a85b59a9e6d8281dc022009de9116a85ca599bad638f3829f0dd9185ff638d639e8a9b9ac724a08a7fcf90121036e333c3307be008ef3d87de30c40005f55c8e8305125b30b6dc3fa781708ed5dfeffffff02c3601800000000001976a91421b78bcf65a2feb65fdd7f596075acd908b234c988acb7250e000000000017a914e93f06f062e6cb61374c1369e77d7c3368d79c858711490800", "vin": [{"sequence": 4294967294, "scriptSig": {"hex": "4730440220706eed9ec98ecb6aa467cc1dda16fce003d0907ba290fdd2918bb42d133affbd0220728673fd6fc0d5c44538187553e9a2923f6843daf1f5c39fe865ad9d797527be01210203c203188c12213ce904ddb8792a010bd6c2621efd9296e846a0626d70ec60b3", "asm": "30440220706eed9ec98ecb6aa467cc1dda16fce003d0907ba290fdd2918bb42d133affbd0220728673fd6fc0d5c44538187553e9a2923f6843daf1f5c39fe865ad9d797527be[ALL] 0203c203188c12213ce904ddb8792a010bd6c2621efd9296e846a0626d70ec60b3"}, "vout": 1, "txid": "ffad115c011cb58aef233f95893d695932c1d50255946a7cbfe56173c9a1e309"}, {"sequence": 4294967294, "scriptSig": {"hex": "47304402200632c0ace2eec1dedaa40f5d8b126eeb3cd847ca198aa12a85b59a9e6d8281dc022009de9116a85ca599bad638f3829f0dd9185ff638d639e8a9b9ac724a08a7fcf90121036e333c3307be008ef3d87de30c40005f55c8e8305125b30b6dc3fa781708ed5d", "asm": "304402200632c0ace2eec1dedaa40f5d8b126eeb3cd847ca198aa12a85b59a9e6d8281dc022009de9116a85ca599bad638f3829f0dd9185ff638d639e8a9b9ac724a08a7fcf9[ALL] 036e333c3307be008ef3d87de30c40005f55c8e8305125b30b6dc3fa781708ed5d"}, "vout": 1, "txid": "f5f1cf54b93e5c89d880f3358a692899d520f0759ddce760a24c910a36aa67f7"}], "txid": "9d71254c885880475927a93bda678da7f949db69dd7c0e1b89bbaa41d93a0953", "blocktime": 1537872018, "version": 2, "confirmations": 11489, "time": 1537872018, "locktime": 542993, "vsize": 370, "size": 370}