{"hash": "ef3e6a0f37fa3ae232727cd149ea12ff83b331c9bb271e310dad4e2921f40134", "blockhash": "0000000000000000001e0dab787dd257d1dbfcb92a98c2207d5e1078be1f4165", "vout": [{"scriptPubKey": {"reqSigs": 1, "hex": "a91430897cc6c9d69f6a2c2f1c651d51f22219f1a4f687", "addresses": ["367f4YWz1VCFaqBqwbTrzwi2b1h2U3w1AF"], "asm": "OP_HASH160 30897cc6c9d69f6a2c2f1c651d51f22219f1a4f6 OP_EQUAL", "type": "scripthash"}, "value": 0.01483867, "n": 0}, {"scriptPubKey": {"reqSigs": 1, "hex": "a91469f376319ae5bb0bea73e0d84ac69f42bf9ae1d387", "addresses": ["3BMEXhcXgRcvwoYw2dif76BafAkhkn4z7b"], "asm": "OP_HASH160 69f376319ae5bb0bea73e0d84ac69f42bf9ae1d3 OP_EQUAL", "type": "scripthash"}, "value": 0.05, "n": 1}], "hex": "010000000001017d50b6904339ce6446bc23862c77ea59214132efae3f76cc3d4666b30170de150000000023220020bcf9f822194145acea0f3235f4107b5bf1a91b6b9f8489f63bf79ec29b360913ffffffff025ba416000000000017a91430897cc6c9d69f6a2c2f1c651d51f22219f1a4f687404b4c000000000017a91469f376319ae5bb0bea73e0d84ac69f42bf9ae1d3870400483045022100cb4825d0125a55a9c2761a0670366f1fa73280c5797e8b21d66b2cf0a8c5096202204cc6103844a2e9224948349cc78e65cc235bf99eeff7155bc5a89394d247c8c601483045022100f449219b768f25d7df27b4a5a0e24430c057542b5ff7cc2b9af83e41adf4df5e02204bd5847b7ed674538be87e998aa3ac233b2ec70ff1877b00d735982763db5fff01695221026c8f72b9e63db63907115e65d4da86eaae595b22fdc85ec75301bb4adbf203582103806535be3e3920e5eedee92de5714188fd6a784f2bf7b04f87de0b9c3ae1ecdb21024b23bfdce2afcae7e28c42f7f79aa100f22931712c52d7414a526ba494d44a2553ae00000000", "vin": [{"txinwitness": ["", "3045022100cb4825d0125a55a9c2761a0670366f1fa73280c5797e8b21d66b2cf0a8c5096202204cc6103844a2e9224948349cc78e65cc235bf99eeff7155bc5a89394d247c8c601", "3045022100f449219b768f25d7df27b4a5a0e24430c057542b5ff7cc2b9af83e41adf4df5e02204bd5847b7ed674538be87e998aa3ac233b2ec70ff1877b00d735982763db5fff01", "5221026c8f72b9e63db63907115e65d4da86eaae595b22fdc85ec75301bb4adbf203582103806535be3e3920e5eedee92de5714188fd6a784f2bf7b04f87de0b9c3ae1ecdb21024b23bfdce2afcae7e28c42f7f79aa100f22931712c52d7414a526ba494d44a2553ae"], "sequence": 4294967295, "scriptSig": {"hex": "220020bcf9f822194145acea0f3235f4107b5bf1a91b6b9f8489f63bf79ec29b360913", "asm": "0020bcf9f822194145acea0f3235f4107b5bf1a91b6b9f8489f63bf79ec29b360913"}, "vout": 0, "txid": "15de7001b366463dcc763faeef32412159ea772c8623bc4664ce394390b6507d"}], "txid": "9d74c351a46b0907891e928bf7f651f1521de2f874b09356ab42da19ccb594fe", "blocktime": 1537872475, "version": 1, "confirmations": 11486, "time": 1537872475, "locktime": 0, "vsize": 214, "size": 406}