{"hash": "9d751acfa2b6984efe132fcca203a0042295c0619bbfe1472ff5a50b81ed387b", "blockhash": "0000000000000000001f0ddff1eddb255c1121bcd4da4f1bc9a0da00cae72433", "vout": [{"scriptPubKey": {"reqSigs": 1, "hex": "76a91481c0abcddc3d323d19bac4df58ac2a18881e167a88ac", "addresses": ["1Cq4ymdhz3wiyBmGSKkaUq1iQYyajsQHMg"], "asm": "OP_DUP OP_HASH160 81c0abcddc3d323d19bac4df58ac2a18881e167a OP_EQUALVERIFY OP_CHECKSIG", "type": "pubkeyhash"}, "value": 0.00156486, "n": 0}, {"scriptPubKey": {"reqSigs": 1, "hex": "76a914c10f4bf3e2b15352e94cd29df44a3adcfb021c1a88ac", "addresses": ["1JbojreNDoM3HtTHbiMRe1duqS9PUMorss"], "asm": "OP_DUP OP_HASH160 c10f4bf3e2b15352e94cd29df44a3adcfb021c1a OP_EQUALVERIFY OP_CHECKSIG", "type": "pubkeyhash"}, "value": 0.01265453, "n": 1}], "hex": "0100000001591f6f3f6c6eb313d68a6107fac18ed9b97d33724d5098cd314f49ecb52ad05f000000006b483045022100a671b17605dd1f807583dc3e4109326cb39e2b55ea1eba1b8fd5cfb5a3b37c4702204d86017755d462e2a34967991614c42a8d8429ba36d06965811d905425282e7701210342e6fa1959f5341a392553657ffba0d11261d230a9a2beb3bdf95f3fda705f98ffffffff0246630200000000001976a91481c0abcddc3d323d19bac4df58ac2a18881e167a88ac2d4f1300000000001976a914c10f4bf3e2b15352e94cd29df44a3adcfb021c1a88ac00000000", "vin": [{"sequence": 4294967295, "scriptSig": {"hex": "483045022100a671b17605dd1f807583dc3e4109326cb39e2b55ea1eba1b8fd5cfb5a3b37c4702204d86017755d462e2a34967991614c42a8d8429ba36d06965811d905425282e7701210342e6fa1959f5341a392553657ffba0d11261d230a9a2beb3bdf95f3fda705f98", "asm": "3045022100a671b17605dd1f807583dc3e4109326cb39e2b55ea1eba1b8fd5cfb5a3b37c4702204d86017755d462e2a34967991614c42a8d8429ba36d06965811d905425282e77[ALL] 0342e6fa1959f5341a392553657ffba0d11261d230a9a2beb3bdf95f3fda705f98"}, "vout": 0, "txid": "5fd02ab5ec494f31cd98504d72337db9d98ec1fa07618ad613b36e6c3f6f1f59"}], "txid": "9d751acfa2b6984efe132fcca203a0042295c0619bbfe1472ff5a50b81ed387b", "blocktime": 1537872018, "version": 1, "confirmations": 11489, "time": 1537872018, "locktime": 0, "vsize": 226, "size": 226}