{"hash": "9d7550cc90faedf35b2b5b2593b83d1be9d8172b5f62d5578af44d0c44fb72b4", "blockhash": "00000000000000000024a2167bbff67b0be802c0b01cdd79e6331c2be6459f87", "vout": [{"scriptPubKey": {"reqSigs": 1, "hex": "a91480aeb3d2dba053aa0611ea64a6f713e4a958cd8487", "addresses": ["3DRRhdr9eL4Uw1TiDMN7vWogs3h5jVM59Y"], "asm": "OP_HASH160 80aeb3d2dba053aa0611ea64a6f713e4a958cd84 OP_EQUAL", "type": "scripthash"}, "value": 0.0058, "n": 0}, {"scriptPubKey": {"reqSigs": 1, "hex": "76a9144f1e6fa1ae35429f7598a7cc7f40518b8e3267af88ac", "addresses": ["18DLqtaCvpWnmCjHokTZPaUdn9gnaxvPHB"], "asm": "OP_DUP OP_HASH160 4f1e6fa1ae35429f7598a7cc7f40518b8e3267af OP_EQUALVERIFY OP_CHECKSIG", "type": "pubkeyhash"}, "value": 0.04310508, "n": 1}], "hex": "010000000150e45410113a9e5f9b0eee79cc237ea6dd996997e1dd8fa9d8854d42bceb47fa010000006b483045022100e2508fee68ff84578e8a4644ae56c96f0edfcdd73c1cda6ee1ebcd786903a8e1022047d8d114e1b84249f6ed0d99562e142f4956fd71e45cdaff920b0817abd99f2b0121038edc96a1ca51ec0143fb60c6eaa5ed63f7ef03e78c27eab2876ab7e0c48fda95ffffffff02a0d908000000000017a91480aeb3d2dba053aa0611ea64a6f713e4a958cd8487ecc54100000000001976a9144f1e6fa1ae35429f7598a7cc7f40518b8e3267af88ac00000000", "vin": [{"sequence": 4294967295, "scriptSig": {"hex": "483045022100e2508fee68ff84578e8a4644ae56c96f0edfcdd73c1cda6ee1ebcd786903a8e1022047d8d114e1b84249f6ed0d99562e142f4956fd71e45cdaff920b0817abd99f2b0121038edc96a1ca51ec0143fb60c6eaa5ed63f7ef03e78c27eab2876ab7e0c48fda95", "asm": "3045022100e2508fee68ff84578e8a4644ae56c96f0edfcdd73c1cda6ee1ebcd786903a8e1022047d8d114e1b84249f6ed0d99562e142f4956fd71e45cdaff920b0817abd99f2b[ALL] 038edc96a1ca51ec0143fb60c6eaa5ed63f7ef03e78c27eab2876ab7e0c48fda95"}, "vout": 1, "txid": "fa47ebbc424d85d8a98fdde1976999dda67e23cc79ee0e9b5f9e3a111054e450"}], "txid": "9d7550cc90faedf35b2b5b2593b83d1be9d8172b5f62d5578af44d0c44fb72b4", "blocktime": 1537870564, "version": 1, "confirmations": 11515, "time": 1537870564, "locktime": 0, "vsize": 224, "size": 224}