{"hash": "9d805495cbc2535ae87692e1f1c7df76fcc8fd7ceb0fbbabc07e1814f7fbd002", "blockhash": "0000000000000000000e13cef7c366c0283d82e591d1acd082e914b08063cdf1", "vout": [{"scriptPubKey": {"reqSigs": 1, "hex": "76a914dc7e66c30cbf88ac3f0155c417c68a0fd4c310f688ac", "addresses": ["1M6s5jAF9ehffwfxYauG8DRQSdShu7YUek"], "asm": "OP_DUP OP_HASH160 dc7e66c30cbf88ac3f0155c417c68a0fd4c310f6 OP_EQUALVERIFY OP_CHECKSIG", "type": "pubkeyhash"}, "value": 5.46e-05, "n": 0}, {"scriptPubKey": {"type": "nulldata", "hex": "6a146f6d6e69000000000000001f000012309ce54000", "asm": "OP_RETURN 6f6d6e69000000000000001f000012309ce54000"}, "value": 0.0, "n": 1}, {"scriptPubKey": {"reqSigs": 1, "hex": "76a914c40e6b4569d373ed039df202e615d0a4357099d688ac", "addresses": ["1JseiT86bAcQhasGjArkWs5k4obVwg5w1P"], "asm": "OP_DUP OP_HASH160 c40e6b4569d373ed039df202e615d0a4357099d6 OP_EQUALVERIFY OP_CHECKSIG", "type": "pubkeyhash"}, "value": 0.0001055, "n": 2}], "hex": "01000000038a425bcb4d883b888f3783e06cc665df007c0c3b9ac3efd03074d964804d8d51020000006b483045022100a08d72aa44fc4ba3b8f208e4e4c624563fd4b0a9bfff6d509335e5c68c0a9b3e02201b02c1e309ed65a721f3f679fad3d6c07ad1f1ef16f8c8093592012894f809b201210289f2fed83dc970284482ae8fb68da88260f2940cb95f0fecc540dc2192b89a64ffffffff6b4e3847f3050f006192265dd80206b7c1c4f79aad9995c29ee723f24bcd29ab020000006b483045022100951e6b4f52206b338ce1399d693f8b8ed5dbca2902d0ce50c3a90bb16f0a53b0022064ec6a4b3608a15f9f494fe5eafd936f7f85f4e677e876df3122fdfa51063f5501210289f2fed83dc970284482ae8fb68da88260f2940cb95f0fecc540dc2192b89a64ffffffff2e4281539e36496ee2e19230b07cc6b84dc1341b03ad62a0b7f3e31bc837b498020000006a4730440220511d0d0b469ace85df149e966aef52e70993617ce07b4db8ae6697be5c8b46ed022059895490dfcaa23d7c4c3b84f496722e36ce19c9eb56699a358e940a1456c18601210289f2fed83dc970284482ae8fb68da88260f2940cb95f0fecc540dc2192b89a64ffffffff0354150000000000001976a914dc7e66c30cbf88ac3f0155c417c68a0fd4c310f688ac0000000000000000166a146f6d6e69000000000000001f000012309ce5400036290000000000001976a914c40e6b4569d373ed039df202e615d0a4357099d688ac00000000", "vin": [{"sequence": 4294967295, "scriptSig": {"hex": "483045022100a08d72aa44fc4ba3b8f208e4e4c624563fd4b0a9bfff6d509335e5c68c0a9b3e02201b02c1e309ed65a721f3f679fad3d6c07ad1f1ef16f8c8093592012894f809b201210289f2fed83dc970284482ae8fb68da88260f2940cb95f0fecc540dc2192b89a64", "asm": "3045022100a08d72aa44fc4ba3b8f208e4e4c624563fd4b0a9bfff6d509335e5c68c0a9b3e02201b02c1e309ed65a721f3f679fad3d6c07ad1f1ef16f8c8093592012894f809b2[ALL] 0289f2fed83dc970284482ae8fb68da88260f2940cb95f0fecc540dc2192b89a64"}, "vout": 2, "txid": "518d4d8064d97430d0efc39a3b0c7c00df65c66ce083378f883b884dcb5b428a"}, {"sequence": 4294967295, "scriptSig": {"hex": "483045022100951e6b4f52206b338ce1399d693f8b8ed5dbca2902d0ce50c3a90bb16f0a53b0022064ec6a4b3608a15f9f494fe5eafd936f7f85f4e677e876df3122fdfa51063f5501210289f2fed83dc970284482ae8fb68da88260f2940cb95f0fecc540dc2192b89a64", "asm": "3045022100951e6b4f52206b338ce1399d693f8b8ed5dbca2902d0ce50c3a90bb16f0a53b0022064ec6a4b3608a15f9f494fe5eafd936f7f85f4e677e876df3122fdfa51063f55[ALL] 0289f2fed83dc970284482ae8fb68da88260f2940cb95f0fecc540dc2192b89a64"}, "vout": 2, "txid": "ab29cd4bf223e79ec29599ad9af7c4c1b70602d85d269261000f05f347384e6b"}, {"sequence": 4294967295, "scriptSig": {"hex": "4730440220511d0d0b469ace85df149e966aef52e70993617ce07b4db8ae6697be5c8b46ed022059895490dfcaa23d7c4c3b84f496722e36ce19c9eb56699a358e940a1456c18601210289f2fed83dc970284482ae8fb68da88260f2940cb95f0fecc540dc2192b89a64", "asm": "30440220511d0d0b469ace85df149e966aef52e70993617ce07b4db8ae6697be5c8b46ed022059895490dfcaa23d7c4c3b84f496722e36ce19c9eb56699a358e940a1456c186[ALL] 0289f2fed83dc970284482ae8fb68da88260f2940cb95f0fecc540dc2192b89a64"}, "vout": 2, "txid": "98b437c81be3f3b7a062ad031b34c14db8c67cb03092e1e26e49369e5381422e"}], "txid": "9d805495cbc2535ae87692e1f1c7df76fcc8fd7ceb0fbbabc07e1814f7fbd002", "blocktime": 1537871767, "version": 1, "confirmations": 11495, "time": 1537871767, "locktime": 0, "vsize": 552, "size": 552}