{"hash": "ecac3a083007f66f9e99375be2a0c016b0b23ecd1abf62f157510ae733d74223", "blockhash": "0000000000000000001e0dab787dd257d1dbfcb92a98c2207d5e1078be1f4165", "vout": [{"scriptPubKey": {"reqSigs": 1, "hex": "00146174325c3408cb357ddb6d3d204035a039beb61a", "addresses": ["bc1qv96ryhp5pr9n2lwmd57jqsp45qumads6pz3kag"], "asm": "0 6174325c3408cb357ddb6d3d204035a039beb61a", "type": "witness_v0_keyhash"}, "value": 0.0001416, "n": 0}, {"scriptPubKey": {"reqSigs": 1, "hex": "76a91468b2100f8a2a190cbcaa21807153d37d084dfc1588ac", "addresses": ["1AYaay3QxMtEReRYZyNiy8pTgS7WozzK48"], "asm": "OP_DUP OP_HASH160 68b2100f8a2a190cbcaa21807153d37d084dfc15 OP_EQUALVERIFY OP_CHECKSIG", "type": "pubkeyhash"}, "value": 0.00359507, "n": 1}], "hex": "01000000000101721f700d16d9821dc6bab43cff7b59341027f235871696addd2fb74a826a3cc71700000017160014baf3150ec160701e9cfd5d94cc2abaf72631a130ffffffff0250370000000000001600146174325c3408cb357ddb6d3d204035a039beb61a537c0500000000001976a91468b2100f8a2a190cbcaa21807153d37d084dfc1588ac02483045022100f270858767ca053e86a91c4c28b5b32e4db9000abd9edad61fb940ba9c99ecac022063cc10b5c6629b354ef00433c33d20aae3ac08efba979d2ad0b2a46f545ab6200121031a1f22e9ba7b4edb977fe7fa58399b8032a0cafa208750e640662e792e29bca600000000", "vin": [{"txinwitness": ["3045022100f270858767ca053e86a91c4c28b5b32e4db9000abd9edad61fb940ba9c99ecac022063cc10b5c6629b354ef00433c33d20aae3ac08efba979d2ad0b2a46f545ab62001", "031a1f22e9ba7b4edb977fe7fa58399b8032a0cafa208750e640662e792e29bca6"], "sequence": 4294967295, "scriptSig": {"hex": "160014baf3150ec160701e9cfd5d94cc2abaf72631a130", "asm": "0014baf3150ec160701e9cfd5d94cc2abaf72631a130"}, "vout": 23, "txid": "c73c6a824ab72fddad96168735f2271034597bff3cb4bac61d82d9160d701f72"}], "txid": "9d82db7d377744eb1186d9abf00b30c4c38429e759df34e189b4fe3cbadb0ab3", "blocktime": 1537872475, "version": 1, "confirmations": 11487, "time": 1537872475, "locktime": 0, "vsize": 167, "size": 249}