{"hash": "372013dd62b7368ea897b2aba8f265d2bd6f342834ed4ea70c2e8dafe4bcffe3", "blockhash": "00000000000000000018f53835495a110e01622372bf6ae95dc86f2b0ab887b0", "vout": [{"scriptPubKey": {"reqSigs": 1, "hex": "76a9148fc08dcbc9e8fea3a97342ea4245a083083ff57688ac", "addresses": ["1E76JK1xxPdtHtsE9vCXYNzJT72y4TH3jo"], "asm": "OP_DUP OP_HASH160 8fc08dcbc9e8fea3a97342ea4245a083083ff576 OP_EQUALVERIFY OP_CHECKSIG", "type": "pubkeyhash"}, "value": 0.01852392, "n": 0}, {"scriptPubKey": {"reqSigs": 1, "hex": "0014b0315bc8e84b9f43e96a3fcbd1c08e9196084943", "addresses": ["bc1qkqc4hj8gfw0586t28l9arsywjxtqsj2rfaemxe"], "asm": "0 b0315bc8e84b9f43e96a3fcbd1c08e9196084943", "type": "witness_v0_keyhash"}, "value": 0.00027827, "n": 1}], "hex": "01000000000101b532f68c8b99300cf7498ac820bcfa2d77370635a2f15552b566d43a3fc138fe0000000000ffffffff02e8431c00000000001976a9148fc08dcbc9e8fea3a97342ea4245a083083ff57688acb36c000000000000160014b0315bc8e84b9f43e96a3fcbd1c08e91960849430247304402200fa597ae8721ff79ceeb31c42e0897eb8dcaa8444640dc153fd0d756b398520d02205f0e83492b9310c179d817507b0f33ad39c4823bb3efbc5da88d7ce0c523e8e30121039f7ced4cfbeaf91dc7ca4cf7b1bb47a29891a9b2a2204e0f022c1763b471d5c200000000", "vin": [{"txinwitness": ["304402200fa597ae8721ff79ceeb31c42e0897eb8dcaa8444640dc153fd0d756b398520d02205f0e83492b9310c179d817507b0f33ad39c4823bb3efbc5da88d7ce0c523e8e301", "039f7ced4cfbeaf91dc7ca4cf7b1bb47a29891a9b2a2204e0f022c1763b471d5c2"], "sequence": 4294967295, "scriptSig": {"hex": "", "asm": ""}, "vout": 0, "txid": "fe38c13f3ad466b55255f1a2350637772dfabc20c88a49f70c30998b8cf632b5"}], "txid": "9d83ac777c9e33f5fd05c266d2b35c8ad021cd9c14559b50d0d2e0c3814e3d2d", "blocktime": 1537870928, "version": 1, "confirmations": 11514, "time": 1537870928, "locktime": 0, "vsize": 144, "size": 225}