{"hash": "9d88a36eaac40b78fac8c98046970fbebce11d5c7a2c7af445fd450f5d4f9464", "blockhash": "0000000000000000001cda96e906b7601b7a6fb1a3b62bca570a9e5d8f4b3de1", "vout": [{"scriptPubKey": {"reqSigs": 1, "hex": "76a9143483d965784b2455ca3eff5e523a7033f35dfcd688ac", "addresses": ["15ng625JA5SYWWeeTwzJqnG71Nntq6iCno"], "asm": "OP_DUP OP_HASH160 3483d965784b2455ca3eff5e523a7033f35dfcd6 OP_EQUALVERIFY OP_CHECKSIG", "type": "pubkeyhash"}, "value": 0.03817278, "n": 0}, {"scriptPubKey": {"reqSigs": 1, "hex": "76a914ded9d33a5373c0a4cd8dc5efcd80b6313db04b3188ac", "addresses": ["1MKKxLjZXXWDkiXmafsMCBYhBWRc521WAV"], "asm": "OP_DUP OP_HASH160 ded9d33a5373c0a4cd8dc5efcd80b6313db04b31 OP_EQUALVERIFY OP_CHECKSIG", "type": "pubkeyhash"}, "value": 0.0780651, "n": 1}], "hex": "0100000001f3e186d85bd2fd197b52c5158d41a2410b7be7b1e824e13b44a20c3bf112f7e7010000006a4730440220704980f8f94de90ed533cad6d5282c3f4974097a07a28180ca21256fde395bf002201068d42e6e5cfa741d66f0394f82c9e49476bed5cb866b01000b541efc70dee6012102ead2e285a68bbef07d64cc04676a36066122d9e29970426ea6061a93bc6703acffffffff023e3f3a00000000001976a9143483d965784b2455ca3eff5e523a7033f35dfcd688ac2e1e7700000000001976a914ded9d33a5373c0a4cd8dc5efcd80b6313db04b3188ac00000000", "vin": [{"sequence": 4294967295, "scriptSig": {"hex": "4730440220704980f8f94de90ed533cad6d5282c3f4974097a07a28180ca21256fde395bf002201068d42e6e5cfa741d66f0394f82c9e49476bed5cb866b01000b541efc70dee6012102ead2e285a68bbef07d64cc04676a36066122d9e29970426ea6061a93bc6703ac", "asm": "30440220704980f8f94de90ed533cad6d5282c3f4974097a07a28180ca21256fde395bf002201068d42e6e5cfa741d66f0394f82c9e49476bed5cb866b01000b541efc70dee6[ALL] 02ead2e285a68bbef07d64cc04676a36066122d9e29970426ea6061a93bc6703ac"}, "vout": 1, "txid": "e7f712f13b0ca2443be124e8b1e77b0b41a2418d15c5527b19fdd25bd886e1f3"}], "txid": "9d88a36eaac40b78fac8c98046970fbebce11d5c7a2c7af445fd450f5d4f9464", "blocktime": 1537873282, "version": 1, "confirmations": 11484, "time": 1537873282, "locktime": 0, "vsize": 225, "size": 225}