{"hash": "9d8ab29220c72a503c1e2abddeb5219ce2610425a377a8ce95df006e878bebd0", "blockhash": "000000000000000000022b45ed06c6f4ccd3cf7fb5ba4856ebd2e58215665228", "vout": [{"scriptPubKey": {"reqSigs": 1, "hex": "76a91443e2694c92f157ec2c0431cdf32089dcfa99620988ac", "addresses": ["17BwWBrxjniSqhEP9chaXukBsuivdqHJ6m"], "asm": "OP_DUP OP_HASH160 43e2694c92f157ec2c0431cdf32089dcfa996209 OP_EQUALVERIFY OP_CHECKSIG", "type": "pubkeyhash"}, "value": 0.07895588, "n": 0}], "hex": "0100000001fefb0d46111754fb01a66a86a504917743a0a9b0944a61889f81b98aa61c2994000000009200483045022100cffe3c48a6240a3f26368dd29fbccbbc6ec0d990ba1fdd43fa09db79ddda06660220665f86aa7b324b5e97365779dd5811a08196a65c069effbde3ca9d60cf35707c014751210369048fb7de48028ad1a9073a389de624895fec4630ec5313479e396b6fd75e002103be15838c890e0f93e3289bdb454feb27f1a3645b8166a8666722cea1ec5a650852aefeffffff01247a7800000000001976a91443e2694c92f157ec2c0431cdf32089dcfa99620988ac0b490800", "vin": [{"sequence": 4294967294, "scriptSig": {"hex": "00483045022100cffe3c48a6240a3f26368dd29fbccbbc6ec0d990ba1fdd43fa09db79ddda06660220665f86aa7b324b5e97365779dd5811a08196a65c069effbde3ca9d60cf35707c014751210369048fb7de48028ad1a9073a389de624895fec4630ec5313479e396b6fd75e002103be15838c890e0f93e3289bdb454feb27f1a3645b8166a8666722cea1ec5a650852ae", "asm": "0 3045022100cffe3c48a6240a3f26368dd29fbccbbc6ec0d990ba1fdd43fa09db79ddda06660220665f86aa7b324b5e97365779dd5811a08196a65c069effbde3ca9d60cf35707c[ALL] 51210369048fb7de48028ad1a9073a389de624895fec4630ec5313479e396b6fd75e002103be15838c890e0f93e3289bdb454feb27f1a3645b8166a8666722cea1ec5a650852ae"}, "vout": 0, "txid": "94291ca68ab9819f88614a94b0a9a043779104a5866aa601fb541711460dfbfe"}], "txid": "9d8ab29220c72a503c1e2abddeb5219ce2610425a377a8ce95df006e878bebd0", "blocktime": 1537869901, "version": 1, "confirmations": 11522, "time": 1537869901, "locktime": 542987, "vsize": 231, "size": 231}