{"hash": "4ce8fada9ead0e70c4aa49a115f0f7be41148528134953e6b8c54c5bd2ebc3fa", "blockhash": "0000000000000000001f76057863aec43deb6fa401d9628bb513d65a8098bfab", "vout": [{"scriptPubKey": {"reqSigs": 1, "hex": "76a914e2e935237afbbfe00bd99aaa81246024105058c788ac", "addresses": ["1Mgo5uCE8xnPyzaSukNvFp2KYQNQKmaVky"], "asm": "OP_DUP OP_HASH160 e2e935237afbbfe00bd99aaa81246024105058c7 OP_EQUALVERIFY OP_CHECKSIG", "type": "pubkeyhash"}, "value": 0.0083776, "n": 0}, {"scriptPubKey": {"reqSigs": 1, "hex": "a914b4a65eb6a308b22aafb75b34dff8f064c086885587", "addresses": ["3JACrfLCu1SKe6LdHryr3XLofjTFKzm6pH"], "asm": "OP_HASH160 b4a65eb6a308b22aafb75b34dff8f064c0868855 OP_EQUAL", "type": "scripthash"}, "value": 0.00999572, "n": 1}], "hex": "0200000000010315a94c97d38f7c5c0983cd9e969b748ac2f2999775be2b1a8c10cd91263fbfef00000000171600149e7b3e738f9bc094050c588dba0a627f3324e17ffeffffff2a27d465d0a2ab312486b3802ee18b358f506a8e3e03a3113e6cebd4644a94a40000000017160014cae20eda7d5caa56d33869d8e294d8918bc9d805feffffffa5ebdbd3d98228774007ff18c5e3bbb108122c4340b92b8bea3fad0c4b670cec0200000017160014a6fe000244b00149a043dcde9aaa953125c25932feffffff0280c80c00000000001976a914e2e935237afbbfe00bd99aaa81246024105058c788ac94400f000000000017a914b4a65eb6a308b22aafb75b34dff8f064c086885587024730440221008c937d73031dc43ca78bce350a4f1e86f0d562b46f2a0c664e7c4f2827e043a2021f218d0a4e32f67d8cefe3fc48825d6007cb88819b6a18b1fe2aa61562f9c8a7012103b0062155a075113b1ea2b0e9a1271cbe3849a49b6ee1dbd82eaefd74558feb8102483045022100e87d1057ec8f4e32113c1d24c07036cbf9e535f9a0612b3d002b6779b2961b810220484369cc053a9faa4f97c5103e485257a9a2bbf5e515828805c94f76671bbd7b012102db9da47078d50f538b2f6e380f28d1f42f6bbebe4b3bb2285a2b3668edbe1b2c0247304402207df6711432a10df2f4e15124f9b94f4b71f92d93fb9107eb1ce8cd530a2c3c3a0220018420d1b7ea4475e2bbd6fbe408de28c53577df8d1543579987130b7b337b77012102732d0b49e76ce2ef9be475bdf3f4e623fe6ece561846c4bcedf7852959e224d814490800", "vin": [{"txinwitness": ["30440221008c937d73031dc43ca78bce350a4f1e86f0d562b46f2a0c664e7c4f2827e043a2021f218d0a4e32f67d8cefe3fc48825d6007cb88819b6a18b1fe2aa61562f9c8a701", "03b0062155a075113b1ea2b0e9a1271cbe3849a49b6ee1dbd82eaefd74558feb81"], "sequence": 4294967294, "scriptSig": {"hex": "1600149e7b3e738f9bc094050c588dba0a627f3324e17f", "asm": "00149e7b3e738f9bc094050c588dba0a627f3324e17f"}, "vout": 0, "txid": "efbf3f2691cd108c1a2bbe759799f2c28a749b969ecd83095c7c8fd3974ca915"}, {"txinwitness": ["3045022100e87d1057ec8f4e32113c1d24c07036cbf9e535f9a0612b3d002b6779b2961b810220484369cc053a9faa4f97c5103e485257a9a2bbf5e515828805c94f76671bbd7b01", "02db9da47078d50f538b2f6e380f28d1f42f6bbebe4b3bb2285a2b3668edbe1b2c"], "sequence": 4294967294, "scriptSig": {"hex": "160014cae20eda7d5caa56d33869d8e294d8918bc9d805", "asm": "0014cae20eda7d5caa56d33869d8e294d8918bc9d805"}, "vout": 0, "txid": "a4944a64d4eb6c3e11a3033e8e6a508f358be12e80b3862431aba2d065d4272a"}, {"txinwitness": ["304402207df6711432a10df2f4e15124f9b94f4b71f92d93fb9107eb1ce8cd530a2c3c3a0220018420d1b7ea4475e2bbd6fbe408de28c53577df8d1543579987130b7b337b7701", "02732d0b49e76ce2ef9be475bdf3f4e623fe6ece561846c4bcedf7852959e224d8"], "sequence": 4294967294, "scriptSig": {"hex": "160014a6fe000244b00149a043dcde9aaa953125c25932", "asm": "0014a6fe000244b00149a043dcde9aaa953125c25932"}, "vout": 2, "txid": "ec0c674b0cad3fea8b2bb940432c1208b1bbe3c518ff0740772882d9d3dbeba5"}], "txid": "9d8d26894dce98300dbdfd9a20a6a2582cc5b16401a156eef7ade84b7fdf5613", "blocktime": 1537873891, "version": 2, "confirmations": 11478, "time": 1537873891, "locktime": 542996, "vsize": 349, "size": 592}