{"hash": "ff00536055b4c04bc4c4fa3ae31343eb4cf32aff014b6598879482808653c82d", "blockhash": "0000000000000000001f76057863aec43deb6fa401d9628bb513d65a8098bfab", "vout": [{"scriptPubKey": {"type": "nulldata", "hex": "6a146f6d6e69000000000000001f000000057a49ff40", "asm": "OP_RETURN 6f6d6e69000000000000001f000000057a49ff40"}, "value": 0.0, "n": 0}, {"scriptPubKey": {"reqSigs": 1, "hex": "a914e818e90b8e6b38dba66f74b35cb708bbc73e2ea787", "addresses": ["3NrEXrB9qAxXYfRt6jKtBD8QzoU2qtNWDR"], "asm": "OP_HASH160 e818e90b8e6b38dba66f74b35cb708bbc73e2ea7 OP_EQUAL", "type": "scripthash"}, "value": 2.73e-05, "n": 1}, {"scriptPubKey": {"reqSigs": 1, "hex": "a914e818e90b8e6b38dba66f74b35cb708bbc73e2ea787", "addresses": ["3NrEXrB9qAxXYfRt6jKtBD8QzoU2qtNWDR"], "asm": "OP_HASH160 e818e90b8e6b38dba66f74b35cb708bbc73e2ea7 OP_EQUAL", "type": "scripthash"}, "value": 0.05348496, "n": 2}], "hex": "010000000001026b32c0f28cd25183838e052e1b77a9465cb2034030ac4103800cf8c4052bbb300200000017160014164986af6f13101177515fc817b71f45ef82f025fffffffff166cecf5dd3766dc0f22d941317aa5da6432f3ffa8b94dbce09a037791b613f0100000017160014831d0cc4dfdeb71f97efe8834334909876598e91ffffffff030000000000000000166a146f6d6e69000000000000001f000000057a49ff40aa0a00000000000017a914e818e90b8e6b38dba66f74b35cb708bbc73e2ea787909c51000000000017a914e818e90b8e6b38dba66f74b35cb708bbc73e2ea787024830450221009f64c64e22bf66a0aa233df30d48c4ad0ce811e61daf3e60fc0bdd743681e2fa02206ccf1952b383834e621822ea6d1dd08cdf7c4c5a8decc106b662c6e0815345180121022fc1cddef018d552b64cb9e893a2bcc9034b375bb4af6ea77b40067fafa4731c0247304402207ed63c5381bd3753a32fb4053c41fc828093a1b69ac0de6d57561d83b94d98340220448a9a121b5aee2c5cff88ba7d084f310050b8378d3370d74159db41460d76e4012103efa98c9e902194e3a7c8991d5d34ee10c72f85a0b32bb2301f0d10a28bf558de00000000", "vin": [{"txinwitness": ["30450221009f64c64e22bf66a0aa233df30d48c4ad0ce811e61daf3e60fc0bdd743681e2fa02206ccf1952b383834e621822ea6d1dd08cdf7c4c5a8decc106b662c6e08153451801", "022fc1cddef018d552b64cb9e893a2bcc9034b375bb4af6ea77b40067fafa4731c"], "sequence": 4294967295, "scriptSig": {"hex": "160014164986af6f13101177515fc817b71f45ef82f025", "asm": "0014164986af6f13101177515fc817b71f45ef82f025"}, "vout": 2, "txid": "30bb2b05c4f80c800341ac304003b25c46a9771b2e058e838351d28cf2c0326b"}, {"txinwitness": ["304402207ed63c5381bd3753a32fb4053c41fc828093a1b69ac0de6d57561d83b94d98340220448a9a121b5aee2c5cff88ba7d084f310050b8378d3370d74159db41460d76e401", "03efa98c9e902194e3a7c8991d5d34ee10c72f85a0b32bb2301f0d10a28bf558de"], "sequence": 4294967295, "scriptSig": {"hex": "160014831d0cc4dfdeb71f97efe8834334909876598e91", "asm": "0014831d0cc4dfdeb71f97efe8834334909876598e91"}, "vout": 1, "txid": "3f611b7937a009cedb948bfa3f2f43a65daa1713942df2c06d76d35dcfce66f1"}], "txid": "9d90f2339d5bcbb86cc3af3e551ca11b3f52765e5a342525e98f74f415cb87da", "blocktime": 1537873891, "version": 1, "confirmations": 11474, "time": 1537873891, "locktime": 0, "vsize": 288, "size": 450}