{"hash": "9d935ee9b6a09fb3e364aae42d1d4d67842a11b1437a9f8ce86eee0eedddfc70", "blockhash": "0000000000000000000e13cef7c366c0283d82e591d1acd082e914b08063cdf1", "vout": [{"scriptPubKey": {"reqSigs": 1, "hex": "76a914c8e8cea3672dee7314ede77450285c2458a7403f88ac", "addresses": ["1KKK36NTyTEwVoqdrz6ti1WCb61PW8BTnQ"], "asm": "OP_DUP OP_HASH160 c8e8cea3672dee7314ede77450285c2458a7403f OP_EQUALVERIFY OP_CHECKSIG", "type": "pubkeyhash"}, "value": 0.03041548, "n": 0}, {"scriptPubKey": {"reqSigs": 1, "hex": "a9144fb1b46d7e4054d2afaf835ada3ef593e580049787", "addresses": ["38xQBquYy2rGyMrusuFoMw3UtZ422bmKxj"], "asm": "OP_HASH160 4fb1b46d7e4054d2afaf835ada3ef593e5800497 OP_EQUAL", "type": "scripthash"}, "value": 0.04037656, "n": 1}], "hex": "0100000002c50bca60e98e018fd8448f9074837ad130b91dda8a500def7200d06c369db227010000006b483045022100885b5f7aea17f8068e26d7a52cdb0d997bcca6ae4ca806e1918c37caa5de08a902204cec506772d9e00a7cfaaf888206bb1bb4abbade5fa535a4826fa45ab86563590121026a326ebd26095cdf3053e490906fe8a083d89e867e6337d140fe8d347bffc269fffffffff6e85d801a237aa15afcd13487161e197ad8a44ea4588a23451b7f5eb6ff1658010000006a47304402200e888f50c3ec3e8fb1d4955376ed0d7f38a9741ec2100277f7a8b771817518bd022015e036655ea037c4d5d9bd45ffef1176c18e77ab71afb4c859bd1ece85da75a701210203ee9fc361adf75070c3635c5c22535ec8daf1d1b39573231e6fcf2e39d4b767ffffffff020c692e00000000001976a914c8e8cea3672dee7314ede77450285c2458a7403f88ac189c3d000000000017a9144fb1b46d7e4054d2afaf835ada3ef593e58004978700000000", "vin": [{"sequence": 4294967295, "scriptSig": {"hex": "483045022100885b5f7aea17f8068e26d7a52cdb0d997bcca6ae4ca806e1918c37caa5de08a902204cec506772d9e00a7cfaaf888206bb1bb4abbade5fa535a4826fa45ab86563590121026a326ebd26095cdf3053e490906fe8a083d89e867e6337d140fe8d347bffc269", "asm": "3045022100885b5f7aea17f8068e26d7a52cdb0d997bcca6ae4ca806e1918c37caa5de08a902204cec506772d9e00a7cfaaf888206bb1bb4abbade5fa535a4826fa45ab8656359[ALL] 026a326ebd26095cdf3053e490906fe8a083d89e867e6337d140fe8d347bffc269"}, "vout": 1, "txid": "27b29d366cd00072ef0d508ada1db930d17a8374908f44d88f018ee960ca0bc5"}, {"sequence": 4294967295, "scriptSig": {"hex": "47304402200e888f50c3ec3e8fb1d4955376ed0d7f38a9741ec2100277f7a8b771817518bd022015e036655ea037c4d5d9bd45ffef1176c18e77ab71afb4c859bd1ece85da75a701210203ee9fc361adf75070c3635c5c22535ec8daf1d1b39573231e6fcf2e39d4b767", "asm": "304402200e888f50c3ec3e8fb1d4955376ed0d7f38a9741ec2100277f7a8b771817518bd022015e036655ea037c4d5d9bd45ffef1176c18e77ab71afb4c859bd1ece85da75a7[ALL] 0203ee9fc361adf75070c3635c5c22535ec8daf1d1b39573231e6fcf2e39d4b767"}, "vout": 1, "txid": "5816ffb65e7f1b45238a58a44ea4d87a191e168734d1fc5aa17a231a805de8f6"}], "txid": "9d935ee9b6a09fb3e364aae42d1d4d67842a11b1437a9f8ce86eee0eedddfc70", "blocktime": 1537871767, "version": 1, "confirmations": 11491, "time": 1537871767, "locktime": 0, "vsize": 371, "size": 371}