{"hash": "9d9dab99b341e85f2708243fd67cefa00fe890f202f6174e83008e074c497d82", "blockhash": "0000000000000000000e13cef7c366c0283d82e591d1acd082e914b08063cdf1", "vout": [{"scriptPubKey": {"reqSigs": 1, "hex": "76a914a25dec4d0011064ef106a983c39c7a540699f22088ac", "addresses": ["1FoWyxwPXuj4C6abqwhjDWdz6D4PZgYRjA"], "asm": "OP_DUP OP_HASH160 a25dec4d0011064ef106a983c39c7a540699f220 OP_EQUALVERIFY OP_CHECKSIG", "type": "pubkeyhash"}, "value": 0.01985603, "n": 0}, {"scriptPubKey": {"type": "nulldata", "hex": "6a146f6d6e69000000000000001f000000174876e800", "asm": "OP_RETURN 6f6d6e69000000000000001f000000174876e800"}, "value": 0.0, "n": 1}, {"scriptPubKey": {"reqSigs": 1, "hex": "76a9142622e8a2bd97dbfbacffb39b6cbb75f55f83117988ac", "addresses": ["14UeVnsTinW1Vp4cmNufCqc5o3qFe71etp"], "asm": "OP_DUP OP_HASH160 2622e8a2bd97dbfbacffb39b6cbb75f55f831179 OP_EQUALVERIFY OP_CHECKSIG", "type": "pubkeyhash"}, "value": 5.46e-06, "n": 2}], "hex": "0100000001a282beec48736d94acc1891deed8d0066d124c80730507cf4bcbc594d5f060c6000000006a473044022021f1947e8808cb03972667dee7b82bd233d42d00b2b7cc19324c34ff86f6347d022075390750df5b8e1f86008b33bc939120701cce77b41804b3750942f5fc3f4df5012103da5bac7b36d5aa38f531c6b9601e21bb598a4b6716ebed38b009a55dabde9440feffffff03434c1e00000000001976a914a25dec4d0011064ef106a983c39c7a540699f22088ac0000000000000000166a146f6d6e69000000000000001f000000174876e80022020000000000001976a9142622e8a2bd97dbfbacffb39b6cbb75f55f83117988ac10490800", "vin": [{"sequence": 4294967294, "scriptSig": {"hex": "473044022021f1947e8808cb03972667dee7b82bd233d42d00b2b7cc19324c34ff86f6347d022075390750df5b8e1f86008b33bc939120701cce77b41804b3750942f5fc3f4df5012103da5bac7b36d5aa38f531c6b9601e21bb598a4b6716ebed38b009a55dabde9440", "asm": "3044022021f1947e8808cb03972667dee7b82bd233d42d00b2b7cc19324c34ff86f6347d022075390750df5b8e1f86008b33bc939120701cce77b41804b3750942f5fc3f4df5[ALL] 03da5bac7b36d5aa38f531c6b9601e21bb598a4b6716ebed38b009a55dabde9440"}, "vout": 0, "txid": "c660f0d594c5cb4bcf070573804c126d06d0d8ee1d89c1ac946d7348ecbe82a2"}], "txid": "9d9dab99b341e85f2708243fd67cefa00fe890f202f6174e83008e074c497d82", "blocktime": 1537871767, "version": 1, "confirmations": 11490, "time": 1537871767, "locktime": 542992, "vsize": 256, "size": 256}