{"hash": "3326c2cd01d95d5ebfcc985ab4ce71dc7443528479ffcc55685ccab9ffc09fae", "blockhash": "00000000000000000004ffacab907a6b429b9a5745fa0b75af4234bf69dd7176", "vout": [{"scriptPubKey": {"reqSigs": 1, "hex": "a9142b9ac78a395b9788849c34787d9ae6b85295827d87", "addresses": ["35faQ4HHmbrtxSnAGwBfV89cryYnaSAsvV"], "asm": "OP_HASH160 2b9ac78a395b9788849c34787d9ae6b85295827d OP_EQUAL", "type": "scripthash"}, "value": 0.16660013, "n": 0}, {"scriptPubKey": {"reqSigs": 1, "hex": "a914720d15fd9ccd5aca23daa9ed041a3da43826461987", "addresses": ["3C64ddtLgn7YmGfNa9ut3UKoo8euKAWeiE"], "asm": "OP_HASH160 720d15fd9ccd5aca23daa9ed041a3da438264619 OP_EQUAL", "type": "scripthash"}, "value": 20.73304693, "n": 1}], "hex": "02000000000101ca6dffb745b6140575f9cccf40772784b8c341ffea2a404ef29631d79bb6773a0100000017160014947f4613842b80b86d6848b91369c8f463b20f68feffffff022d36fe000000000017a9142b9ac78a395b9788849c34787d9ae6b85295827d87751e947b0000000017a914720d15fd9ccd5aca23daa9ed041a3da4382646198702473044022009c2b46d650c8338b9e07d7b59ee6140c9b681588705fce98c8cb8d9cc767ed80220263a305d350c21ff2b7f50c0e08b719697d62b0811e9b8c604b8e1a81d0c415f01210253df9f9b24c626f4825a1a50a1e2a0501079644a2ae5b22435bf4d9914f52a7e16490800", "vin": [{"txinwitness": ["3044022009c2b46d650c8338b9e07d7b59ee6140c9b681588705fce98c8cb8d9cc767ed80220263a305d350c21ff2b7f50c0e08b719697d62b0811e9b8c604b8e1a81d0c415f01", "0253df9f9b24c626f4825a1a50a1e2a0501079644a2ae5b22435bf4d9914f52a7e"], "sequence": 4294967294, "scriptSig": {"hex": "160014947f4613842b80b86d6848b91369c8f463b20f68", "asm": "0014947f4613842b80b86d6848b91369c8f463b20f68"}, "vout": 1, "txid": "3a77b69bd73196f24e402aeaff41c3b884277740cfccf9750514b645b7ff6dca"}], "txid": "9d9da5a905149580091e9220165e1ffecd333633ed5a07df4e25b44744347126", "blocktime": 1537875543, "version": 2, "confirmations": 11464, "time": 1537875543, "locktime": 542998, "vsize": 166, "size": 247}