{"hash": "9da27d2adf12632acfe6d911b15a96016a91888a1732d45f0f48f3d771f5e412", "blockhash": "0000000000000000001f76057863aec43deb6fa401d9628bb513d65a8098bfab", "vout": [{"scriptPubKey": {"reqSigs": 1, "hex": "a91417a83f2da38e06855573ac1bb7253fdcb32fb9ca87", "addresses": ["33r71wvZM9HWg3NAZPg2qru9Zw4yaqWR7B"], "asm": "OP_HASH160 17a83f2da38e06855573ac1bb7253fdcb32fb9ca OP_EQUAL", "type": "scripthash"}, "value": 0.22835, "n": 0}, {"scriptPubKey": {"reqSigs": 1, "hex": "76a9147b8dae3ac061c9697502645780844031b35424bb88ac", "addresses": ["1CGHqjcWwcdYXCbwg6H52Ns7yMvZHpdpvB"], "asm": "OP_DUP OP_HASH160 7b8dae3ac061c9697502645780844031b35424bb OP_EQUALVERIFY OP_CHECKSIG", "type": "pubkeyhash"}, "value": 15.93519318, "n": 1}], "hex": "020000000122264bf66dba83eefccc790b58cbcdeb7abbdffe3a2ff207aa5c2f609355d1fe010000006b483045022100c667aa193fe21923dfd27cdca9a2ad17096f3369638ab89bbebf178af2febf4202204082f6a8e3ec56e9d5572aabcdedbeb906694cba0475df5c9fa9e3b9804500ba012102c9f3788e619535579c21e8ff3acf792dc7f72c6344adeff39a59c4c827c11509ffffffff02386f5c010000000017a91417a83f2da38e06855573ac1bb7253fdcb32fb9ca87d62cfb5e000000001976a9147b8dae3ac061c9697502645780844031b35424bb88ac00000000", "vin": [{"sequence": 4294967295, "scriptSig": {"hex": "483045022100c667aa193fe21923dfd27cdca9a2ad17096f3369638ab89bbebf178af2febf4202204082f6a8e3ec56e9d5572aabcdedbeb906694cba0475df5c9fa9e3b9804500ba012102c9f3788e619535579c21e8ff3acf792dc7f72c6344adeff39a59c4c827c11509", "asm": "3045022100c667aa193fe21923dfd27cdca9a2ad17096f3369638ab89bbebf178af2febf4202204082f6a8e3ec56e9d5572aabcdedbeb906694cba0475df5c9fa9e3b9804500ba[ALL] 02c9f3788e619535579c21e8ff3acf792dc7f72c6344adeff39a59c4c827c11509"}, "vout": 1, "txid": "fed15593602f5caa07f22f3afedfbb7aebcdcb580b79ccfcee83ba6df64b2622"}], "txid": "9da27d2adf12632acfe6d911b15a96016a91888a1732d45f0f48f3d771f5e412", "blocktime": 1537873891, "version": 2, "confirmations": 11478, "time": 1537873891, "locktime": 0, "vsize": 224, "size": 224}