{"hash": "48e977ac92b5ceb5ea55247e78084af937995ab3c46b3bf994a680e4ffa6c63b", "blockhash": "0000000000000000001cda96e906b7601b7a6fb1a3b62bca570a9e5d8f4b3de1", "vout": [{"scriptPubKey": {"reqSigs": 1, "hex": "76a914ddc5d8ff8126587422b028c29fe89d3b60ba3d2688ac", "addresses": ["1MDdM6EGEbR768ubPffmbgNiizrJxV7qL6"], "asm": "OP_DUP OP_HASH160 ddc5d8ff8126587422b028c29fe89d3b60ba3d26 OP_EQUALVERIFY OP_CHECKSIG", "type": "pubkeyhash"}, "value": 0.40393998, "n": 0}, {"scriptPubKey": {"reqSigs": 1, "hex": "a914ee7d44dbcc2bd1bbfda32ac90036e684553142b587", "addresses": ["3PS2p3JwXCwveSCS3qs81tgYt9GbjURRpv"], "asm": "OP_HASH160 ee7d44dbcc2bd1bbfda32ac90036e684553142b5 OP_EQUAL", "type": "scripthash"}, "value": 9.42554711, "n": 1}], "hex": "02000000000101a7fa98bf9cfc6f3e6824d5286bd5daae9264ccfbd5be79ffb3f9285923730a9e0100000017160014efbbd1fde8d39ac419b7a5528d4fea449e2e6318feffffff020e5d6802000000001976a914ddc5d8ff8126587422b028c29fe89d3b60ba3d2688ac573e2e380000000017a914ee7d44dbcc2bd1bbfda32ac90036e684553142b5870247304402200bcfb5b160c96ce3600f357a60e3fab7f609074dedc37bea66e968efae6ab39f02204c0c78e45188c5a43d1eed3edc7d15ef1aa8870281c5dd82c56b0390756f00030121036f34839a838dfefbd676d4f7a3881a9cfe215f27cf01404b56438e6a41cd045913490800", "vin": [{"txinwitness": ["304402200bcfb5b160c96ce3600f357a60e3fab7f609074dedc37bea66e968efae6ab39f02204c0c78e45188c5a43d1eed3edc7d15ef1aa8870281c5dd82c56b0390756f000301", "036f34839a838dfefbd676d4f7a3881a9cfe215f27cf01404b56438e6a41cd0459"], "sequence": 4294967294, "scriptSig": {"hex": "160014efbbd1fde8d39ac419b7a5528d4fea449e2e6318", "asm": "0014efbbd1fde8d39ac419b7a5528d4fea449e2e6318"}, "vout": 1, "txid": "9e0a73235928f9b3ff79bed5fbcc6492aedad56b28d524683e6ffc9cbf98faa7"}], "txid": "9da2dc503e1bf9e63e5b54eaf7844bb5929c5e89f004c826d1ae9b6fe728f022", "blocktime": 1537873282, "version": 2, "confirmations": 11483, "time": 1537873282, "locktime": 542995, "vsize": 168, "size": 249}