{"hash": "9da75b17a602f573d6fe66625903c900d8e3b95572cce698cb8cd780237a2e01", "blockhash": "00000000000000000017f5eb5941039fbcee6240d03bc1f2f8e35350df66a1d8", "vout": [{"scriptPubKey": {"reqSigs": 1, "hex": "a914467a183bf52892112da5c91ab8438826da3f4a1e87", "addresses": ["387fVFuuAR3WDe7Uk32qKfRe5LUhk5KR36"], "asm": "OP_HASH160 467a183bf52892112da5c91ab8438826da3f4a1e OP_EQUAL", "type": "scripthash"}, "value": 0.00365973, "n": 0}, {"scriptPubKey": {"reqSigs": 1, "hex": "76a914bd1597aca58d9f47fff992a5a5a5980a6a43c20988ac", "addresses": ["1JEnaXbxCDaAdb1mihYqACfuVcwazHhn8q"], "asm": "OP_DUP OP_HASH160 bd1597aca58d9f47fff992a5a5a5980a6a43c209 OP_EQUALVERIFY OP_CHECKSIG", "type": "pubkeyhash"}, "value": 0.03155209, "n": 1}], "hex": "01000000013735f6d7e95fc0a8af463a42bdbf5a0921f6d6bdb2f7d2baa10d78893b44b171010000006b483045022100ac5215754ca10a8233a00cdbbdb01d42e9e6011849c4fa7120b1d9e6faa82373022057e13b79f8f79117a6478902b9186e8a8ac40a7602723e9cc1afeb7650e9cf8b0121022975654161fa436e9c3b8cbe7180f782e53661c177f57f204a1cf79ed03a6666ffffffff02959505000000000017a914467a183bf52892112da5c91ab8438826da3f4a1e8709253000000000001976a914bd1597aca58d9f47fff992a5a5a5980a6a43c20988ac00000000", "vin": [{"sequence": 4294967295, "scriptSig": {"hex": "483045022100ac5215754ca10a8233a00cdbbdb01d42e9e6011849c4fa7120b1d9e6faa82373022057e13b79f8f79117a6478902b9186e8a8ac40a7602723e9cc1afeb7650e9cf8b0121022975654161fa436e9c3b8cbe7180f782e53661c177f57f204a1cf79ed03a6666", "asm": "3045022100ac5215754ca10a8233a00cdbbdb01d42e9e6011849c4fa7120b1d9e6faa82373022057e13b79f8f79117a6478902b9186e8a8ac40a7602723e9cc1afeb7650e9cf8b[ALL] 022975654161fa436e9c3b8cbe7180f782e53661c177f57f204a1cf79ed03a6666"}, "vout": 1, "txid": "71b1443b89780da1bad2f7b2bdd6f621095abfbd423a46afa8c05fe9d7f63537"}], "txid": "9da75b17a602f573d6fe66625903c900d8e3b95572cce698cb8cd780237a2e01", "blocktime": 1537874412, "version": 1, "confirmations": 11467, "time": 1537874412, "locktime": 0, "vsize": 224, "size": 224}