{"hash": "9da752ad94eddf6ac7b1c33fd1ce14d29c07fccafa6fd166c84dc72286fde8c8", "blockhash": "0000000000000000001cda96e906b7601b7a6fb1a3b62bca570a9e5d8f4b3de1", "vout": [{"scriptPubKey": {"reqSigs": 1, "hex": "76a91480be7c928fb7cc469bfd34361ebcca7fb67ac29f88ac", "addresses": ["1CjjgoB1hAKZt9vE6bekxHxnL6jrDL8t6Y"], "asm": "OP_DUP OP_HASH160 80be7c928fb7cc469bfd34361ebcca7fb67ac29f OP_EQUALVERIFY OP_CHECKSIG", "type": "pubkeyhash"}, "value": 0.00048, "n": 0}], "hex": "0100000001c6d0c6775fb059687cb932babf00550090fc5e1fa36aee8547e0dfe16c3a6fa3000000006a473044022014730a775b108252aed96f19808df7d4f2ceb9981a2e6b5b14afd9c43f84b9e202202f730323fac55d88d0da413d354f4742fd3986d0ef322fe0055bdbe4b6a4f52e01210204853ec9c75a85e73cad776bee84557c26aa72c6bec1dc81cc99e1773eaca34effffffff0180bb0000000000001976a91480be7c928fb7cc469bfd34361ebcca7fb67ac29f88ac00000000", "vin": [{"sequence": 4294967295, "scriptSig": {"hex": "473044022014730a775b108252aed96f19808df7d4f2ceb9981a2e6b5b14afd9c43f84b9e202202f730323fac55d88d0da413d354f4742fd3986d0ef322fe0055bdbe4b6a4f52e01210204853ec9c75a85e73cad776bee84557c26aa72c6bec1dc81cc99e1773eaca34e", "asm": "3044022014730a775b108252aed96f19808df7d4f2ceb9981a2e6b5b14afd9c43f84b9e202202f730323fac55d88d0da413d354f4742fd3986d0ef322fe0055bdbe4b6a4f52e[ALL] 0204853ec9c75a85e73cad776bee84557c26aa72c6bec1dc81cc99e1773eaca34e"}, "vout": 0, "txid": "a36f3a6ce1dfe04785ee6aa31f5efc90005500bfba32b97c6859b05f77c6d0c6"}], "txid": "9da752ad94eddf6ac7b1c33fd1ce14d29c07fccafa6fd166c84dc72286fde8c8", "blocktime": 1537873282, "version": 1, "confirmations": 11485, "time": 1537873282, "locktime": 0, "vsize": 191, "size": 191}