{"hash": "263dd4f713c47381107e64af7359d1d40e9234d0f447a17a7dd500924baf35c7", "blockhash": "0000000000000000000dcc0f55137456b1a82d3642486a52398922ac4d620174", "vout": [{"scriptPubKey": {"reqSigs": 1, "hex": "a914e3b8c6ae59a904fb4a8ad2e4cc7bbffd9198240787", "addresses": ["3NT6fZJ4bwEocZbWc29qdWQYAkj4dHNgNr"], "asm": "OP_HASH160 e3b8c6ae59a904fb4a8ad2e4cc7bbffd91982407 OP_EQUAL", "type": "scripthash"}, "value": 0.0026468, "n": 0}, {"scriptPubKey": {"reqSigs": 1, "hex": "0014bc31aa05379c0f4d27107175bbfc9de0f683df7f", "addresses": ["bc1qhsc65pfhns856fcsw96mhlyaurmg8hmlnluctp"], "asm": "0 bc31aa05379c0f4d27107175bbfc9de0f683df7f", "type": "witness_v0_keyhash"}, "value": 1.14e-05, "n": 1}], "hex": "0100000000010172aa8d54b83e81afe44687d789e9b01f33b59c7753170b96a01a948f77932a810100000017160014c67da0277dc0dde5374a4c5b718c370f0411b793ffffffff02e80904000000000017a914e3b8c6ae59a904fb4a8ad2e4cc7bbffd91982407877404000000000000160014bc31aa05379c0f4d27107175bbfc9de0f683df7f02483045022100f92d55d6b82f8b2dba1be1291c61a7b6646c7d9bde55f3664c254e1c1e4106530220373557d9f52872b39c0b529c674e0737d636a1a698ec9b9996727e9e30a413f6012102654b97b7ad96bf854cf3ef37fa44954b918ee866971f07c9af673c65efabd23f00000000", "vin": [{"txinwitness": ["3045022100f92d55d6b82f8b2dba1be1291c61a7b6646c7d9bde55f3664c254e1c1e4106530220373557d9f52872b39c0b529c674e0737d636a1a698ec9b9996727e9e30a413f601", "02654b97b7ad96bf854cf3ef37fa44954b918ee866971f07c9af673c65efabd23f"], "sequence": 4294967295, "scriptSig": {"hex": "160014c67da0277dc0dde5374a4c5b718c370f0411b793", "asm": "0014c67da0277dc0dde5374a4c5b718c370f0411b793"}, "vout": 1, "txid": "812a93778f941aa0960b1753779cb5331fb0e989d78746e4af813eb8548daa72"}], "txid": "9da87e416eb63dfc08cd1a61670883952680b77c124665c429731c8d21a09eb7", "blocktime": 1537870268, "version": 1, "confirmations": 11518, "time": 1537870268, "locktime": 0, "vsize": 165, "size": 247}