{"hash": "9dae80cf1f36b176fddf81350361450c1f3b7b0df126d28761e46e85cadce7b4", "blockhash": "0000000000000000001f76057863aec43deb6fa401d9628bb513d65a8098bfab", "vout": [{"scriptPubKey": {"type": "nulldata", "hex": "6a146f6d6e69000000000000001f0000005d21dba000", "asm": "OP_RETURN 6f6d6e69000000000000001f0000005d21dba000"}, "value": 0.0, "n": 0}, {"scriptPubKey": {"reqSigs": 1, "hex": "76a91454965f1a9e419f0062714ea2fc503e31f4f563eb88ac", "addresses": ["18iFu7JnTJQm6QozHT3AeZKGRKnEjMqwv4"], "asm": "OP_DUP OP_HASH160 54965f1a9e419f0062714ea2fc503e31f4f563eb OP_EQUALVERIFY OP_CHECKSIG", "type": "pubkeyhash"}, "value": 5.46e-06, "n": 1}, {"scriptPubKey": {"reqSigs": 1, "hex": "76a914a25dec4d0011064ef106a983c39c7a540699f22088ac", "addresses": ["1FoWyxwPXuj4C6abqwhjDWdz6D4PZgYRjA"], "asm": "OP_DUP OP_HASH160 a25dec4d0011064ef106a983c39c7a540699f220 OP_EQUALVERIFY OP_CHECKSIG", "type": "pubkeyhash"}, "value": 0.0197594, "n": 2}], "hex": "010000000166270cfe81cfcc2d1fee02e8bf5891980276819a25eb022321eebc0f7d238b83020000006b483045022100ad6e0f8014b5ef81016372d7bcfbf4514ec8b48d9619efd0b76364f542f0271b022004c7c54b34c525147a7a23d7cf22fa7d05d403a5ae2f450c195532834523398a012103da5bac7b36d5aa38f531c6b9601e21bb598a4b6716ebed38b009a55dabde9440feffffff030000000000000000166a146f6d6e69000000000000001f0000005d21dba00022020000000000001976a91454965f1a9e419f0062714ea2fc503e31f4f563eb88ac84261e00000000001976a914a25dec4d0011064ef106a983c39c7a540699f22088ac14490800", "vin": [{"sequence": 4294967294, "scriptSig": {"hex": "483045022100ad6e0f8014b5ef81016372d7bcfbf4514ec8b48d9619efd0b76364f542f0271b022004c7c54b34c525147a7a23d7cf22fa7d05d403a5ae2f450c195532834523398a012103da5bac7b36d5aa38f531c6b9601e21bb598a4b6716ebed38b009a55dabde9440", "asm": "3045022100ad6e0f8014b5ef81016372d7bcfbf4514ec8b48d9619efd0b76364f542f0271b022004c7c54b34c525147a7a23d7cf22fa7d05d403a5ae2f450c195532834523398a[ALL] 03da5bac7b36d5aa38f531c6b9601e21bb598a4b6716ebed38b009a55dabde9440"}, "vout": 2, "txid": "838b237d0fbcee212302eb259a817602989158bfe802ee1f2dcccf81fe0c2766"}], "txid": "9dae80cf1f36b176fddf81350361450c1f3b7b0df126d28761e46e85cadce7b4", "blocktime": 1537873891, "version": 1, "confirmations": 11475, "time": 1537873891, "locktime": 542996, "vsize": 257, "size": 257}