{"hash": "9daf9539381af6e5ea41e5e17dc9ee9923ada8475e38367a1c24ee20288e3b15", "blockhash": "0000000000000000000baef3f32e3676a92c3b2e5da21b426e4f302fc371ce76", "vout": [{"scriptPubKey": {"reqSigs": 1, "hex": "76a914b37e7e2464741f425565ddcbc220aa5bdd2f123b88ac", "addresses": ["1HN5VD31eCJzXriBKbNLxp1sCeorgDCbsw"], "asm": "OP_DUP OP_HASH160 b37e7e2464741f425565ddcbc220aa5bdd2f123b OP_EQUALVERIFY OP_CHECKSIG", "type": "pubkeyhash"}, "value": 0.00397, "n": 0}], "hex": "0100000003a2a47dacb6e584503147494de7fc43ba7803b32abf348c706b0c152fbb07b2af010000006a4730440220710a61531589a9cab23ebe9c50f3ef6eb5af225a4db3be4a32e6909df67a091902204915c6efc84011246cca5eb0ca9b1c4711e3035a7493627ffaf4e531b04bf50701210317b300d7c7dcfaa50f52c90c7a996103ce9700f95149cd92ad1615dda9b8ab55ffffffff7d41b88bbb2f17797c2bc758d2d1e86e7450ee6888f7d3275fa1ed7692d884b01f0000006b483045022100de24beb481933a77588e475ff732ee8fd6fdb2468eb7093458fac7fa6425e02302205145d694c12d86c227a1ac84092356ac23d75274c08a02faf2cb1a6481b6b8050121030da6e4d03c64d36cbdbe8c2743c6cf87102e8527c1e68b21ddacea45cdf95537ffffffffa9694430a66797d38a6d0634407d4379e1252eeae89e0cadeb1035b7df08387d180000006b483045022100c90f28adb9b5057eaa5d948a9f22f9c41c600058b7521f7facfdb12a852ae09202201bb1190aa42c532fcfde9ecb7c849c36f106e2c0b2c12f298300d775ba5df37c0121030da6e4d03c64d36cbdbe8c2743c6cf87102e8527c1e68b21ddacea45cdf95537ffffffff01c80e0600000000001976a914b37e7e2464741f425565ddcbc220aa5bdd2f123b88ac00000000", "vin": [{"sequence": 4294967295, "scriptSig": {"hex": "4730440220710a61531589a9cab23ebe9c50f3ef6eb5af225a4db3be4a32e6909df67a091902204915c6efc84011246cca5eb0ca9b1c4711e3035a7493627ffaf4e531b04bf50701210317b300d7c7dcfaa50f52c90c7a996103ce9700f95149cd92ad1615dda9b8ab55", "asm": "30440220710a61531589a9cab23ebe9c50f3ef6eb5af225a4db3be4a32e6909df67a091902204915c6efc84011246cca5eb0ca9b1c4711e3035a7493627ffaf4e531b04bf507[ALL] 0317b300d7c7dcfaa50f52c90c7a996103ce9700f95149cd92ad1615dda9b8ab55"}, "vout": 1, "txid": "afb207bb2f150c6b708c34bf2ab30378ba43fce74d4947315084e5b6ac7da4a2"}, {"sequence": 4294967295, "scriptSig": {"hex": "483045022100de24beb481933a77588e475ff732ee8fd6fdb2468eb7093458fac7fa6425e02302205145d694c12d86c227a1ac84092356ac23d75274c08a02faf2cb1a6481b6b8050121030da6e4d03c64d36cbdbe8c2743c6cf87102e8527c1e68b21ddacea45cdf95537", "asm": "3045022100de24beb481933a77588e475ff732ee8fd6fdb2468eb7093458fac7fa6425e02302205145d694c12d86c227a1ac84092356ac23d75274c08a02faf2cb1a6481b6b805[ALL] 030da6e4d03c64d36cbdbe8c2743c6cf87102e8527c1e68b21ddacea45cdf95537"}, "vout": 31, "txid": "b084d89276eda15f27d3f78868ee50746ee8d1d258c72b7c79172fbb8bb8417d"}, {"sequence": 4294967295, "scriptSig": {"hex": "483045022100c90f28adb9b5057eaa5d948a9f22f9c41c600058b7521f7facfdb12a852ae09202201bb1190aa42c532fcfde9ecb7c849c36f106e2c0b2c12f298300d775ba5df37c0121030da6e4d03c64d36cbdbe8c2743c6cf87102e8527c1e68b21ddacea45cdf95537", "asm": "3045022100c90f28adb9b5057eaa5d948a9f22f9c41c600058b7521f7facfdb12a852ae09202201bb1190aa42c532fcfde9ecb7c849c36f106e2c0b2c12f298300d775ba5df37c[ALL] 030da6e4d03c64d36cbdbe8c2743c6cf87102e8527c1e68b21ddacea45cdf95537"}, "vout": 24, "txid": "7d3808dfb73510ebad0c9ee8ea2e25e179437d4034066d8ad39767a6304469a9"}], "txid": "9daf9539381af6e5ea41e5e17dc9ee9923ada8475e38367a1c24ee20288e3b15", "blocktime": 1537876114, "version": 1, "confirmations": 11460, "time": 1537876114, "locktime": 0, "vsize": 487, "size": 487}