{"hash": "9dba9586b7abfebf55c6138c310468ae09e8677aadca504ce907af79a655e1a9", "blockhash": "0000000000000000000e13cef7c366c0283d82e591d1acd082e914b08063cdf1", "vout": [{"scriptPubKey": {"reqSigs": 1, "hex": "76a9141ff694960c12f8af6ad5e8a17b855bc749b11cd588ac", "addresses": ["13v1Lex571p7xPxicmxLYLzQUPy8uLzbQ1"], "asm": "OP_DUP OP_HASH160 1ff694960c12f8af6ad5e8a17b855bc749b11cd5 OP_EQUALVERIFY OP_CHECKSIG", "type": "pubkeyhash"}, "value": 5.46e-06, "n": 0}, {"scriptPubKey": {"reqSigs": 1, "hex": "76a914c9ee94836c8bbfe86434135e8d6db67a17edf77b88ac", "addresses": ["1KQidPy6EhpdQ1c8PPSkKd14sMtdi1jcGv"], "asm": "OP_DUP OP_HASH160 c9ee94836c8bbfe86434135e8d6db67a17edf77b OP_EQUALVERIFY OP_CHECKSIG", "type": "pubkeyhash"}, "value": 7.382e-05, "n": 1}, {"scriptPubKey": {"type": "nulldata", "hex": "6a146f6d6e69000000000000001f0000000360447100", "asm": "OP_RETURN 6f6d6e69000000000000001f0000000360447100"}, "value": 0.0, "n": 2}], "hex": "0100000001c11579852e49b2a29d700b50208958ef7d8f82b7a720fa70e9e1a15341be25f4010000006a473044022067dad7d933f5dc8809760d3ead4c607864fe402faf034787cec90c3c3726c83f02200e9965f55b3a4a896a7131e560b52206b1a4c023b876587eb5ede63a1f74495b0121039e0d5c475dbbff740e6ccbea3aff7594af6303a73c926045bb6e6aca7190964effffffff0322020000000000001976a9141ff694960c12f8af6ad5e8a17b855bc749b11cd588acd61c0000000000001976a914c9ee94836c8bbfe86434135e8d6db67a17edf77b88ac0000000000000000166a146f6d6e69000000000000001f000000036044710000000000", "vin": [{"sequence": 4294967295, "scriptSig": {"hex": "473044022067dad7d933f5dc8809760d3ead4c607864fe402faf034787cec90c3c3726c83f02200e9965f55b3a4a896a7131e560b52206b1a4c023b876587eb5ede63a1f74495b0121039e0d5c475dbbff740e6ccbea3aff7594af6303a73c926045bb6e6aca7190964e", "asm": "3044022067dad7d933f5dc8809760d3ead4c607864fe402faf034787cec90c3c3726c83f02200e9965f55b3a4a896a7131e560b52206b1a4c023b876587eb5ede63a1f74495b[ALL] 039e0d5c475dbbff740e6ccbea3aff7594af6303a73c926045bb6e6aca7190964e"}, "vout": 1, "txid": "f425be4153a1e1e970fa20a7b7828f7def588920500b709da2b2492e857915c1"}], "txid": "9dba9586b7abfebf55c6138c310468ae09e8677aadca504ce907af79a655e1a9", "blocktime": 1537871767, "version": 1, "confirmations": 11491, "time": 1537871767, "locktime": 0, "vsize": 256, "size": 256}