{"hash": "9dbb428c5c68abca57d04dd4cde3bec72ba274e970d106c94606299698684711", "blockhash": "00000000000000000018f53835495a110e01622372bf6ae95dc86f2b0ab887b0", "vout": [{"scriptPubKey": {"reqSigs": 1, "hex": "76a91493b4d26997391b17b9c5e56991e909c3df56794588ac", "addresses": ["1ETzwvk37qN8bJEq3URQU4yt5jQadjfudh"], "asm": "OP_DUP OP_HASH160 93b4d26997391b17b9c5e56991e909c3df567945 OP_EQUALVERIFY OP_CHECKSIG", "type": "pubkeyhash"}, "value": 0.01096358, "n": 0}, {"scriptPubKey": {"reqSigs": 1, "hex": "a9148e6d2aac289e8030b2ba005b359a7e61c02e96a687", "addresses": ["3Eg6epQn76ZM18H93GRyXHe16Pus37beyK"], "asm": "OP_HASH160 8e6d2aac289e8030b2ba005b359a7e61c02e96a6 OP_EQUAL", "type": "scripthash"}, "value": 0.02466328, "n": 1}], "hex": "0100000002f07cb5f6fedbc37a216bed116ff7914e47e10932e8090654f6d58d47e0114e8c010000006a47304402200483d3b281bd8edaeb28f1bd87fdea1b7d43eac7761a17cbf986fc9592cc2747022044e8ec30e0fab3f481de7d02abdb332451b492d2243a61a2bac16316d1d9694401210395ec86fd788e248deb938f102871c65758a21d021e8752ba1e2d428cfe8d6b8afdffffff9e6dc92f2a6dfa30f3aab2555c2939b0b7a2fe8f967578ff89a34354b8c544d9000000006b48304502210088b1575e653f0200ca04b4d982aef1607a889f91fe0e92fc59bd4ddb6181f95f02200c64e61a23b07e2bbcd8571125dbd8089d9ab3047324bbf8497d2a942be2bfb5012103a58aa169cce05cf441f63c3da2ef0b2e77b507a68d8fb04afad734d2da4f1c93fdffffff02a6ba1000000000001976a91493b4d26997391b17b9c5e56991e909c3df56794588ac18a225000000000017a9148e6d2aac289e8030b2ba005b359a7e61c02e96a6870e490800", "vin": [{"sequence": 4294967293, "scriptSig": {"hex": "47304402200483d3b281bd8edaeb28f1bd87fdea1b7d43eac7761a17cbf986fc9592cc2747022044e8ec30e0fab3f481de7d02abdb332451b492d2243a61a2bac16316d1d9694401210395ec86fd788e248deb938f102871c65758a21d021e8752ba1e2d428cfe8d6b8a", "asm": "304402200483d3b281bd8edaeb28f1bd87fdea1b7d43eac7761a17cbf986fc9592cc2747022044e8ec30e0fab3f481de7d02abdb332451b492d2243a61a2bac16316d1d96944[ALL] 0395ec86fd788e248deb938f102871c65758a21d021e8752ba1e2d428cfe8d6b8a"}, "vout": 1, "txid": "8c4e11e0478dd5f6540609e83209e1474e91f76f11ed6b217ac3dbfef6b57cf0"}, {"sequence": 4294967293, "scriptSig": {"hex": "48304502210088b1575e653f0200ca04b4d982aef1607a889f91fe0e92fc59bd4ddb6181f95f02200c64e61a23b07e2bbcd8571125dbd8089d9ab3047324bbf8497d2a942be2bfb5012103a58aa169cce05cf441f63c3da2ef0b2e77b507a68d8fb04afad734d2da4f1c93", "asm": "304502210088b1575e653f0200ca04b4d982aef1607a889f91fe0e92fc59bd4ddb6181f95f02200c64e61a23b07e2bbcd8571125dbd8089d9ab3047324bbf8497d2a942be2bfb5[ALL] 03a58aa169cce05cf441f63c3da2ef0b2e77b507a68d8fb04afad734d2da4f1c93"}, "vout": 0, "txid": "d944c5b85443a389ff7875968ffea2b7b039295c55b2aaf330fa6d2a2fc96d9e"}], "txid": "9dbb428c5c68abca57d04dd4cde3bec72ba274e970d106c94606299698684711", "blocktime": 1537870928, "version": 1, "confirmations": 11512, "time": 1537870928, "locktime": 542990, "vsize": 371, "size": 371}