{"hash": "9dbd749a2fb4580b149c583497d97fa2a0776ea33793c2c86d201bcfdc22918c", "blockhash": "0000000000000000000e13cef7c366c0283d82e591d1acd082e914b08063cdf1", "vout": [{"scriptPubKey": {"type": "nulldata", "hex": "6a146f6d6e69000000000000001f0000018bbc3a0180", "asm": "OP_RETURN 6f6d6e69000000000000001f0000018bbc3a0180"}, "value": 0.0, "n": 0}, {"scriptPubKey": {"reqSigs": 1, "hex": "76a9144d11e4053781c9696f560217f5d48cd2c5e3f01188ac", "addresses": ["182WTqf2cMyZXVRoXqMGRgXtZ6Jbbbn8po"], "asm": "OP_DUP OP_HASH160 4d11e4053781c9696f560217f5d48cd2c5e3f011 OP_EQUALVERIFY OP_CHECKSIG", "type": "pubkeyhash"}, "value": 5.46e-06, "n": 1}, {"scriptPubKey": {"reqSigs": 1, "hex": "76a914a25dec4d0011064ef106a983c39c7a540699f22088ac", "addresses": ["1FoWyxwPXuj4C6abqwhjDWdz6D4PZgYRjA"], "asm": "OP_DUP OP_HASH160 a25dec4d0011064ef106a983c39c7a540699f220 OP_EQUALVERIFY OP_CHECKSIG", "type": "pubkeyhash"}, "value": 0.01971215, "n": 2}], "hex": "010000000125fcff2cc51943ed67e20f6b9421f2f6f76610d3873264d84214cdddfa023827020000006b48304502210096f7b4f30360a1f48849acd4462e302b0ae3a116f445d5388dd062fe1a6eff1e0220410ebe4128e8d41577805e6b56c70ce6e03fa9cd47c43d0122752669455aaa82012103da5bac7b36d5aa38f531c6b9601e21bb598a4b6716ebed38b009a55dabde9440feffffff030000000000000000166a146f6d6e69000000000000001f0000018bbc3a018022020000000000001976a9144d11e4053781c9696f560217f5d48cd2c5e3f01188ac0f141e00000000001976a914a25dec4d0011064ef106a983c39c7a540699f22088ac10490800", "vin": [{"sequence": 4294967294, "scriptSig": {"hex": "48304502210096f7b4f30360a1f48849acd4462e302b0ae3a116f445d5388dd062fe1a6eff1e0220410ebe4128e8d41577805e6b56c70ce6e03fa9cd47c43d0122752669455aaa82012103da5bac7b36d5aa38f531c6b9601e21bb598a4b6716ebed38b009a55dabde9440", "asm": "304502210096f7b4f30360a1f48849acd4462e302b0ae3a116f445d5388dd062fe1a6eff1e0220410ebe4128e8d41577805e6b56c70ce6e03fa9cd47c43d0122752669455aaa82[ALL] 03da5bac7b36d5aa38f531c6b9601e21bb598a4b6716ebed38b009a55dabde9440"}, "vout": 2, "txid": "273802faddcd1442d8643287d31066f7f6f221946b0fe267ed4319c52cfffc25"}], "txid": "9dbd749a2fb4580b149c583497d97fa2a0776ea33793c2c86d201bcfdc22918c", "blocktime": 1537871767, "version": 1, "confirmations": 11490, "time": 1537871767, "locktime": 542992, "vsize": 257, "size": 257}