{"hash": "9dbdfd0e811223050b1e5a54d3f92d5616c22ad09f356e30aa3653c3817c2056", "blockhash": "00000000000000000024a2167bbff67b0be802c0b01cdd79e6331c2be6459f87", "vout": [{"scriptPubKey": {"reqSigs": 1, "hex": "76a914be67ee16c30d94a4cea70794f9949c50cc460d7a88ac", "addresses": ["1JMmtdj4vCdMW1oWo53FU1Qmq8yK9V92v9"], "asm": "OP_DUP OP_HASH160 be67ee16c30d94a4cea70794f9949c50cc460d7a OP_EQUALVERIFY OP_CHECKSIG", "type": "pubkeyhash"}, "value": 0.0162, "n": 0}, {"scriptPubKey": {"reqSigs": 1, "hex": "76a91433591d7433fa630a808645ee25e16a021912e0b588ac", "addresses": ["15gWDc9BE6sTaXG4BswtA6dtTGujH3dWm9"], "asm": "OP_DUP OP_HASH160 33591d7433fa630a808645ee25e16a021912e0b5 OP_EQUALVERIFY OP_CHECKSIG", "type": "pubkeyhash"}, "value": 0.09517294, "n": 1}], "hex": "0100000001deca15b0b6175b3641faa5df48bc0802db2f878a76f17015f11321315b2ed607010000006b48304502210081fd462e51b25138979a4fe4dcdf448614ddb30ae3b88e9acda47e50ba8f7b7002205e62a87ea7c7109c3d8878f3d41810a931eff2a76a9d6d2476c12acc703299dd0121031393110b24b21de287dda272a89ece32d894a107ff80b2eb62dd2bae9bfdeef2ffffffff0220b81800000000001976a914be67ee16c30d94a4cea70794f9949c50cc460d7a88acee389100000000001976a91433591d7433fa630a808645ee25e16a021912e0b588ac00000000", "vin": [{"sequence": 4294967295, "scriptSig": {"hex": "48304502210081fd462e51b25138979a4fe4dcdf448614ddb30ae3b88e9acda47e50ba8f7b7002205e62a87ea7c7109c3d8878f3d41810a931eff2a76a9d6d2476c12acc703299dd0121031393110b24b21de287dda272a89ece32d894a107ff80b2eb62dd2bae9bfdeef2", "asm": "304502210081fd462e51b25138979a4fe4dcdf448614ddb30ae3b88e9acda47e50ba8f7b7002205e62a87ea7c7109c3d8878f3d41810a931eff2a76a9d6d2476c12acc703299dd[ALL] 031393110b24b21de287dda272a89ece32d894a107ff80b2eb62dd2bae9bfdeef2"}, "vout": 1, "txid": "07d62e5b312113f11570f1768a872fdb0208bc48dfa5fa41365b17b6b015cade"}], "txid": "9dbdfd0e811223050b1e5a54d3f92d5616c22ad09f356e30aa3653c3817c2056", "blocktime": 1537870564, "version": 1, "confirmations": 11515, "time": 1537870564, "locktime": 0, "vsize": 226, "size": 226}