{"hash": "9dbfa4474e7e6997d652f314700b1d4770ff511db137502232d22c2d15195884", "blockhash": "0000000000000000000e13cef7c366c0283d82e591d1acd082e914b08063cdf1", "vout": [{"scriptPubKey": {"reqSigs": 1, "hex": "76a9147b874ce26e46b8896143fffb58e72c53dc2d222b88ac", "addresses": ["1CGACRm2m2xDat7E5s1wKPA1yzobatpAbE"], "asm": "OP_DUP OP_HASH160 7b874ce26e46b8896143fffb58e72c53dc2d222b OP_EQUALVERIFY OP_CHECKSIG", "type": "pubkeyhash"}, "value": 0.07453242, "n": 0}, {"scriptPubKey": {"reqSigs": 1, "hex": "76a91429a7e9296a07195f39977e641acb35759c6ed6ed88ac", "addresses": ["14oFrWeUYoYHzhNUVbfXnfmGqdkJAQnCu7"], "asm": "OP_DUP OP_HASH160 29a7e9296a07195f39977e641acb35759c6ed6ed OP_EQUALVERIFY OP_CHECKSIG", "type": "pubkeyhash"}, "value": 0.00150039, "n": 1}], "hex": "0100000001d8ae444513a76c1932367d12a4e0b9e2db9d1ece5832c1df90d265721d243f1d010000006a47304402203487ed1905fc60e0b29fed82b9b9b787d287a1a3e8212f2aa322a1a62b0d59fd0220572756d600e1fd88766f293c3c9d7290907e68e55494426fbc4ced06ae46d8f7012103183ba06a22b879fce607ec31cfa638b377a37f602dec8bbdc2f22acdcccbe956ffffffff023aba7100000000001976a9147b874ce26e46b8896143fffb58e72c53dc2d222b88ac174a0200000000001976a91429a7e9296a07195f39977e641acb35759c6ed6ed88ac00000000", "vin": [{"sequence": 4294967295, "scriptSig": {"hex": "47304402203487ed1905fc60e0b29fed82b9b9b787d287a1a3e8212f2aa322a1a62b0d59fd0220572756d600e1fd88766f293c3c9d7290907e68e55494426fbc4ced06ae46d8f7012103183ba06a22b879fce607ec31cfa638b377a37f602dec8bbdc2f22acdcccbe956", "asm": "304402203487ed1905fc60e0b29fed82b9b9b787d287a1a3e8212f2aa322a1a62b0d59fd0220572756d600e1fd88766f293c3c9d7290907e68e55494426fbc4ced06ae46d8f7[ALL] 03183ba06a22b879fce607ec31cfa638b377a37f602dec8bbdc2f22acdcccbe956"}, "vout": 1, "txid": "1d3f241d7265d290dfc13258ce1e9ddbe2b9e0a4127d3632196ca7134544aed8"}], "txid": "9dbfa4474e7e6997d652f314700b1d4770ff511db137502232d22c2d15195884", "blocktime": 1537871767, "version": 1, "confirmations": 11492, "time": 1537871767, "locktime": 0, "vsize": 225, "size": 225}