{"hash": "9dbf460514377aae2adb14fdc59b0232d647a15d70be5883dafe965e46f4f1f1", "blockhash": "0000000000000000001cda96e906b7601b7a6fb1a3b62bca570a9e5d8f4b3de1", "vout": [{"scriptPubKey": {"reqSigs": 1, "hex": "76a914c3cf5371ef0743796e9713840020cb6ea636791b88ac", "addresses": ["1JrM8fgjCqnZnAM8Td28RJ9ArTYnFXBsA7"], "asm": "OP_DUP OP_HASH160 c3cf5371ef0743796e9713840020cb6ea636791b OP_EQUALVERIFY OP_CHECKSIG", "type": "pubkeyhash"}, "value": 0.00015038, "n": 0}, {"scriptPubKey": {"reqSigs": 1, "hex": "76a91454a5846dc4c450cc240982b4d58c69e1abe5c1c388ac", "addresses": ["18ia3TXbFpT8uPEUqHxXFNuC8AUhknLjyx"], "asm": "OP_DUP OP_HASH160 54a5846dc4c450cc240982b4d58c69e1abe5c1c3 OP_EQUALVERIFY OP_CHECKSIG", "type": "pubkeyhash"}, "value": 0.0001945, "n": 1}], "hex": "010000000285fe3c8d0fb9312d9ba2180f9f4dc04471d85775df1f7aa13ac69555a0bfbb6d000000006a47304402207e0dda159bb6e94da744fe8f06eb124973b401a63f8ab7dfb7fe5f625c764e2902207a7b5606483936392ce1a0bcea1740217eb3019f1395591ac50cac29bbf78c830121023aebf81df51d74a8b84a6a56508ab64e727dbd122a5fa6e9fa0425427810d754ffffffffd5c7b0e653774c0de6603a61cf81abd55b2dd2e0f667a553bc2dce79aab842b4000000006b483045022100bd786ef9684028b2fb382617e245dc1d10a8793278203a5dd0c51e1eb350b0a102203ce6242bc815bcb0dedcf3b4fe83f17ca2bc66992aad30c87efdc3931563fb5c01210336197b758c6eaadab4510cf07dd10b6eaf27212597fbb61c23820ff6e0ebeeabffffffff02be3a0000000000001976a914c3cf5371ef0743796e9713840020cb6ea636791b88acfa4b0000000000001976a91454a5846dc4c450cc240982b4d58c69e1abe5c1c388ac00000000", "vin": [{"sequence": 4294967295, "scriptSig": {"hex": "47304402207e0dda159bb6e94da744fe8f06eb124973b401a63f8ab7dfb7fe5f625c764e2902207a7b5606483936392ce1a0bcea1740217eb3019f1395591ac50cac29bbf78c830121023aebf81df51d74a8b84a6a56508ab64e727dbd122a5fa6e9fa0425427810d754", "asm": "304402207e0dda159bb6e94da744fe8f06eb124973b401a63f8ab7dfb7fe5f625c764e2902207a7b5606483936392ce1a0bcea1740217eb3019f1395591ac50cac29bbf78c83[ALL] 023aebf81df51d74a8b84a6a56508ab64e727dbd122a5fa6e9fa0425427810d754"}, "vout": 0, "txid": "6dbbbfa05595c63aa17a1fdf7557d87144c04d9f0f18a29b2d31b90f8d3cfe85"}, {"sequence": 4294967295, "scriptSig": {"hex": "483045022100bd786ef9684028b2fb382617e245dc1d10a8793278203a5dd0c51e1eb350b0a102203ce6242bc815bcb0dedcf3b4fe83f17ca2bc66992aad30c87efdc3931563fb5c01210336197b758c6eaadab4510cf07dd10b6eaf27212597fbb61c23820ff6e0ebeeab", "asm": "3045022100bd786ef9684028b2fb382617e245dc1d10a8793278203a5dd0c51e1eb350b0a102203ce6242bc815bcb0dedcf3b4fe83f17ca2bc66992aad30c87efdc3931563fb5c[ALL] 0336197b758c6eaadab4510cf07dd10b6eaf27212597fbb61c23820ff6e0ebeeab"}, "vout": 0, "txid": "b442b8aa79ce2dbc53a567f6e0d22d5bd5ab81cf613a60e60d4c7753e6b0c7d5"}], "txid": "9dbf460514377aae2adb14fdc59b0232d647a15d70be5883dafe965e46f4f1f1", "blocktime": 1537873282, "version": 1, "confirmations": 11483, "time": 1537873282, "locktime": 0, "vsize": 373, "size": 373}