{"hash": "9dc08f6ddca39ea3d5c0e29997e9155f0894b8cb5518a33afa625aa9617e7a7a", "blockhash": "0000000000000000001cda96e906b7601b7a6fb1a3b62bca570a9e5d8f4b3de1", "vout": [{"scriptPubKey": {"reqSigs": 1, "hex": "76a91424d9023644fcc35e491a44b24af6633be314125d88ac", "addresses": ["14MqHvyU3uaffTmbjUJAq7zq4hHFS5SjZ3"], "asm": "OP_DUP OP_HASH160 24d9023644fcc35e491a44b24af6633be314125d OP_EQUALVERIFY OP_CHECKSIG", "type": "pubkeyhash"}, "value": 0.00702945, "n": 0}, {"scriptPubKey": {"reqSigs": 1, "hex": "a914a50e8ef0da99a32c9d224eed188f72e8078f65b687", "addresses": ["3GjkrjD547bgtiLekwvPPu1qcxi5m4Zexn"], "asm": "OP_HASH160 a50e8ef0da99a32c9d224eed188f72e8078f65b6 OP_EQUAL", "type": "scripthash"}, "value": 0.01514501, "n": 1}], "hex": "01000000013c552fb2f635c8e76055aaa8b2e806ed0ad96d413250a51bc690f7877d1de6f3000000006a47304402203551edac9058de000d5ff5ffedd2773c97f322ed4c3edc90aee1069a38c1ffd402206cb698fd063cc6e67261ebafa9541077beb085e381e709712639d22c4820198b012103074cf730bfc1d5f2f1c9acf1fbb61edd8d6293643a3c28f274d37ca430638828ffffffff02e1b90a00000000001976a91424d9023644fcc35e491a44b24af6633be314125d88ac051c17000000000017a914a50e8ef0da99a32c9d224eed188f72e8078f65b68700000000", "vin": [{"sequence": 4294967295, "scriptSig": {"hex": "47304402203551edac9058de000d5ff5ffedd2773c97f322ed4c3edc90aee1069a38c1ffd402206cb698fd063cc6e67261ebafa9541077beb085e381e709712639d22c4820198b012103074cf730bfc1d5f2f1c9acf1fbb61edd8d6293643a3c28f274d37ca430638828", "asm": "304402203551edac9058de000d5ff5ffedd2773c97f322ed4c3edc90aee1069a38c1ffd402206cb698fd063cc6e67261ebafa9541077beb085e381e709712639d22c4820198b[ALL] 03074cf730bfc1d5f2f1c9acf1fbb61edd8d6293643a3c28f274d37ca430638828"}, "vout": 0, "txid": "f3e61d7d87f790c61ba55032416dd90aed06e8b2a8aa5560e7c835f6b22f553c"}], "txid": "9dc08f6ddca39ea3d5c0e29997e9155f0894b8cb5518a33afa625aa9617e7a7a", "blocktime": 1537873282, "version": 1, "confirmations": 11484, "time": 1537873282, "locktime": 0, "vsize": 223, "size": 223}