{"hash": "9dc0627b5412408828c9b1a6c30594381634975172fecaa16c15cfde6291d053", "blockhash": "00000000000000000024a2167bbff67b0be802c0b01cdd79e6331c2be6459f87", "vout": [{"scriptPubKey": {"reqSigs": 1, "hex": "76a9140a6b825daa1b89f8e100ed8eec6d79b592500f4988ac", "addresses": ["1x6YnuBVeeE65dQRZztRWgUPwyBjHCA5g"], "asm": "OP_DUP OP_HASH160 0a6b825daa1b89f8e100ed8eec6d79b592500f49 OP_EQUALVERIFY OP_CHECKSIG", "type": "pubkeyhash"}, "value": 0.4479289, "n": 0}, {"scriptPubKey": {"reqSigs": 1, "hex": "76a91445207e2d97f113ec1aaa8f98a149db98d88f42ef88ac", "addresses": ["17JWYt83JZLmioBuPMdwwqqjr9rD6DVESw"], "asm": "OP_DUP OP_HASH160 45207e2d97f113ec1aaa8f98a149db98d88f42ef OP_EQUALVERIFY OP_CHECKSIG", "type": "pubkeyhash"}, "value": 5.46e-06, "n": 1}, {"scriptPubKey": {"type": "nulldata", "hex": "6a146f6d6e69000000000000001f00000030c72c4f00", "asm": "OP_RETURN 6f6d6e69000000000000001f00000030c72c4f00"}, "value": 0.0, "n": 2}], "hex": "01000000010598acf8e823f4f5967e7cf6c20cfb74819fd105d5bb876e1087c1724eb70efc000000006a473044022071dfb55b2418ddb415cb297a5fcc038bb1bc0f9b015a363f4304cba460a5d3de022078473928b6bcc8dd76bfec0c816a26964214406177b82451622462a608df4286012103fe02b06a6bfd9b5a83e0417430a3235a39a0b4c7973591ca27ac58f6474d9120ffffffff033a7cab02000000001976a9140a6b825daa1b89f8e100ed8eec6d79b592500f4988ac22020000000000001976a91445207e2d97f113ec1aaa8f98a149db98d88f42ef88ac0000000000000000166a146f6d6e69000000000000001f00000030c72c4f0000000000", "vin": [{"sequence": 4294967295, "scriptSig": {"hex": "473044022071dfb55b2418ddb415cb297a5fcc038bb1bc0f9b015a363f4304cba460a5d3de022078473928b6bcc8dd76bfec0c816a26964214406177b82451622462a608df4286012103fe02b06a6bfd9b5a83e0417430a3235a39a0b4c7973591ca27ac58f6474d9120", "asm": "3044022071dfb55b2418ddb415cb297a5fcc038bb1bc0f9b015a363f4304cba460a5d3de022078473928b6bcc8dd76bfec0c816a26964214406177b82451622462a608df4286[ALL] 03fe02b06a6bfd9b5a83e0417430a3235a39a0b4c7973591ca27ac58f6474d9120"}, "vout": 0, "txid": "fc0eb74e72c187106e87bbd505d19f8174fb0cc2f67c7e96f5f423e8f8ac9805"}], "txid": "9dc0627b5412408828c9b1a6c30594381634975172fecaa16c15cfde6291d053", "blocktime": 1537870564, "version": 1, "confirmations": 11515, "time": 1537870564, "locktime": 0, "vsize": 256, "size": 256}