{"hash": "9dc21ae966b930b91c68a29bf467be3ff77905f2865a9e287f93a8ddf5911b3f", "blockhash": "0000000000000000000dcc0f55137456b1a82d3642486a52398922ac4d620174", "vout": [{"scriptPubKey": {"type": "nulldata", "hex": "6a146f6d6e69000000000000001f00000002a46ad780", "asm": "OP_RETURN 6f6d6e69000000000000001f00000002a46ad780"}, "value": 0.0, "n": 0}, {"scriptPubKey": {"reqSigs": 1, "hex": "76a91417b8790bb2cd1176dd7866818ad0e6e1b97281e688ac", "addresses": ["13ARXowhKieZdYX4YCyMAJfykn2jJMhFor"], "asm": "OP_DUP OP_HASH160 17b8790bb2cd1176dd7866818ad0e6e1b97281e6 OP_EQUALVERIFY OP_CHECKSIG", "type": "pubkeyhash"}, "value": 5.46e-06, "n": 1}, {"scriptPubKey": {"reqSigs": 1, "hex": "76a914388256b4fb33f6155727017f7d5cce7e0d2a65f388ac", "addresses": ["169nyqNqauSUMcS3rAExS3rhhrwz9mVA4i"], "asm": "OP_DUP OP_HASH160 388256b4fb33f6155727017f7d5cce7e0d2a65f3 OP_EQUALVERIFY OP_CHECKSIG", "type": "pubkeyhash"}, "value": 0.00171093, "n": 2}], "hex": "01000000012d237fad8862046e9fbc032c6de0bcd77f64d8f505d2348b1ac94daaeaaf6abe010000006b4830450221008adabcd8bfe96603e5a0b551e7588d07c08edfcebc38ef066251022a54b64ba002200b7f9c44000d3cc084295bd0c93227954d5e5dd171ab379b494bdfd6d06722e5012102cca43b3082ae7d70499eba1e028fba08cb647209c0be3dee55eeb6b51b623f1ffeffffff030000000000000000166a146f6d6e69000000000000001f00000002a46ad78022020000000000001976a91417b8790bb2cd1176dd7866818ad0e6e1b97281e688ac559c0200000000001976a914388256b4fb33f6155727017f7d5cce7e0d2a65f388ac0c490800", "vin": [{"sequence": 4294967294, "scriptSig": {"hex": "4830450221008adabcd8bfe96603e5a0b551e7588d07c08edfcebc38ef066251022a54b64ba002200b7f9c44000d3cc084295bd0c93227954d5e5dd171ab379b494bdfd6d06722e5012102cca43b3082ae7d70499eba1e028fba08cb647209c0be3dee55eeb6b51b623f1f", "asm": "30450221008adabcd8bfe96603e5a0b551e7588d07c08edfcebc38ef066251022a54b64ba002200b7f9c44000d3cc084295bd0c93227954d5e5dd171ab379b494bdfd6d06722e5[ALL] 02cca43b3082ae7d70499eba1e028fba08cb647209c0be3dee55eeb6b51b623f1f"}, "vout": 1, "txid": "be6aafeaaa4dc91a8b34d205f5d8647fd7bce06d2c03bc9f6e046288ad7f232d"}], "txid": "9dc21ae966b930b91c68a29bf467be3ff77905f2865a9e287f93a8ddf5911b3f", "blocktime": 1537870268, "version": 1, "confirmations": 11519, "time": 1537870268, "locktime": 542988, "vsize": 257, "size": 257}