{"hash": "9dc4c18c5dad4c8c7c114e1a59f2f80f4a3687854a57c3fa3c416c4475922e54", "blockhash": "0000000000000000000e13cef7c366c0283d82e591d1acd082e914b08063cdf1", "vout": [{"scriptPubKey": {"type": "nulldata", "hex": "6a4c500000779f00011bbada52bea64deb80d417c6af6c953dd567cf27e7e3ef3236678a6250976338b0447b36ee276d347b71a7e1b8ac5baa0e0e061705ecdd3a27bc1d100759d4ba30d2c37bb011d97e02cf", "asm": "OP_RETURN 0000779f00011bbada52bea64deb80d417c6af6c953dd567cf27e7e3ef3236678a6250976338b0447b36ee276d347b71a7e1b8ac5baa0e0e061705ecdd3a27bc1d100759d4ba30d2c37bb011d97e02cf"}, "value": 0.0, "n": 0}, {"scriptPubKey": {"reqSigs": 1, "hex": "76a914296d1cdc7d7b1d4c4c375b6f12e9014f5d448cc988ac", "addresses": ["14n3R9mGZq6LhVcNZ6qNVhpVFSbkKuRbTA"], "asm": "OP_DUP OP_HASH160 296d1cdc7d7b1d4c4c375b6f12e9014f5d448cc9 OP_EQUALVERIFY OP_CHECKSIG", "type": "pubkeyhash"}, "value": 0.00642794, "n": 1}], "hex": "01000000012f8889cc69725dcdc29d9be75ee084b00a0d340ad492eeed62a2c62588d26713000000006b483045022100d539572d2eeef29bbf62a956e4d83f01849cf5a95b2cbcf6edf30ad921a30c6002200a42ba6ffe846adf7b9a4c573c68bf0b48e22cdfff34e27685146b3c3d09cb280121027be49a1bed14b5cdaf2e48a0f4538ade5c4bbb1cb97f3c97a0fba81190c4d021ffffffff020000000000000000536a4c500000779f00011bbada52bea64deb80d417c6af6c953dd567cf27e7e3ef3236678a6250976338b0447b36ee276d347b71a7e1b8ac5baa0e0e061705ecdd3a27bc1d100759d4ba30d2c37bb011d97e02cfeace0900000000001976a914296d1cdc7d7b1d4c4c375b6f12e9014f5d448cc988ac00000000", "vin": [{"sequence": 4294967295, "scriptSig": {"hex": "483045022100d539572d2eeef29bbf62a956e4d83f01849cf5a95b2cbcf6edf30ad921a30c6002200a42ba6ffe846adf7b9a4c573c68bf0b48e22cdfff34e27685146b3c3d09cb280121027be49a1bed14b5cdaf2e48a0f4538ade5c4bbb1cb97f3c97a0fba81190c4d021", "asm": "3045022100d539572d2eeef29bbf62a956e4d83f01849cf5a95b2cbcf6edf30ad921a30c6002200a42ba6ffe846adf7b9a4c573c68bf0b48e22cdfff34e27685146b3c3d09cb28[ALL] 027be49a1bed14b5cdaf2e48a0f4538ade5c4bbb1cb97f3c97a0fba81190c4d021"}, "vout": 0, "txid": "1367d28825c6a262edee92d40a340d0ab084e05ee79b9dc2cd5d7269cc89882f"}], "txid": "9dc4c18c5dad4c8c7c114e1a59f2f80f4a3687854a57c3fa3c416c4475922e54", "blocktime": 1537871767, "version": 1, "confirmations": 11495, "time": 1537871767, "locktime": 0, "vsize": 284, "size": 284}