{"hash": "9dc6829348c4b316030c8e35afee8a8224fedeb2986ae274c4906fe30e1a3cb9", "blockhash": "0000000000000000001f76057863aec43deb6fa401d9628bb513d65a8098bfab", "vout": [{"scriptPubKey": {"type": "nulldata", "hex": "6a146f6d6e69000000000000001f000001006af33ea4", "asm": "OP_RETURN 6f6d6e69000000000000001f000001006af33ea4"}, "value": 0.0, "n": 0}, {"scriptPubKey": {"reqSigs": 1, "hex": "a914fe18b37462bccbd5737570278f33c524d6730aec87", "addresses": ["3QrZ9XLaLsvFrDJdP42hUcaQqxU5HGTRUC"], "asm": "OP_HASH160 fe18b37462bccbd5737570278f33c524d6730aec OP_EQUAL", "type": "scripthash"}, "value": 5.4e-06, "n": 1}, {"scriptPubKey": {"reqSigs": 1, "hex": "76a914a4950ed15935e5d32cc176d0ccf76c9ba3253e6a88ac", "addresses": ["1G1EPBdvQqASsCczXZnamUxuz92u3bjjKj"], "asm": "OP_DUP OP_HASH160 a4950ed15935e5d32cc176d0ccf76c9ba3253e6a OP_EQUALVERIFY OP_CHECKSIG", "type": "pubkeyhash"}, "value": 0.40432749, "n": 2}], "hex": "0100000001486c46480aa9a3c91358f817f9c1630b8e8b598cde56eb42112a9e97f0f9f544000000006a4730440220055392628cb19d98005d24a4fa604303cc5af72ab47acc199679ddb108fc0a7802201d82f3619c2f5a121112bbcf7b8e874bb3bb25a2302e5fc7ca8d104b100b840501210307698abae2b47d5eba1fc0cb0c49a8f1fb7e7c895b977ac436fed836856aafa1feffffff030000000000000000166a146f6d6e69000000000000001f000001006af33ea41c0200000000000017a914fe18b37462bccbd5737570278f33c524d6730aec876df46802000000001976a914a4950ed15935e5d32cc176d0ccf76c9ba3253e6a88ac14490800", "vin": [{"sequence": 4294967294, "scriptSig": {"hex": "4730440220055392628cb19d98005d24a4fa604303cc5af72ab47acc199679ddb108fc0a7802201d82f3619c2f5a121112bbcf7b8e874bb3bb25a2302e5fc7ca8d104b100b840501210307698abae2b47d5eba1fc0cb0c49a8f1fb7e7c895b977ac436fed836856aafa1", "asm": "30440220055392628cb19d98005d24a4fa604303cc5af72ab47acc199679ddb108fc0a7802201d82f3619c2f5a121112bbcf7b8e874bb3bb25a2302e5fc7ca8d104b100b8405[ALL] 0307698abae2b47d5eba1fc0cb0c49a8f1fb7e7c895b977ac436fed836856aafa1"}, "vout": 0, "txid": "44f5f9f0979e2a1142eb56de8c598b8e0b63c1f917f85813c9a3a90a48466c48"}], "txid": "9dc6829348c4b316030c8e35afee8a8224fedeb2986ae274c4906fe30e1a3cb9", "blocktime": 1537873891, "version": 1, "confirmations": 11475, "time": 1537873891, "locktime": 542996, "vsize": 254, "size": 254}