{"hash": "9dc80898bfc110afc6f62915ad78deba1ea575984bb81ca0417128ec543e76be", "blockhash": "00000000000000000017f5eb5941039fbcee6240d03bc1f2f8e35350df66a1d8", "vout": [{"scriptPubKey": {"reqSigs": 1, "hex": "76a9140a24ac8985d5e166b3eebca9b7acdea2b31ae4a988ac", "addresses": ["1vdh56fj1sgwqV5zFdVob8SSMeqzTS6Ju"], "asm": "OP_DUP OP_HASH160 0a24ac8985d5e166b3eebca9b7acdea2b31ae4a9 OP_EQUALVERIFY OP_CHECKSIG", "type": "pubkeyhash"}, "value": 51.63065902, "n": 0}, {"scriptPubKey": {"reqSigs": 1, "hex": "a91440fede366ffab5540fb5aefdd7068b5f272bab1187", "addresses": ["37cgVMuWVrAnVenaX7cj9Trn6Zd6Bsddtt"], "asm": "OP_HASH160 40fede366ffab5540fb5aefdd7068b5f272bab11 OP_EQUAL", "type": "scripthash"}, "value": 0.00611251, "n": 1}], "hex": "01000000015a4504d02817333522a0ebc262f95cea0e78ba64e2cacb34674f70cb3ecee779010000006b483045022100b6304ceca5c1cf4977c8a1f98639c407159a09a86ebfa8d2bd5f197c78ff52e402203260c7332fa676575273a46ea70ff92dc76f1b8a419624c43c07c0f16a8e6ca5012102a54b190e89c13002f022e93c17a6c3ad4e7d0e4313bfafbc97c90036ce561072ffffffff022e22be33010000001976a9140a24ac8985d5e166b3eebca9b7acdea2b31ae4a988acb35309000000000017a91440fede366ffab5540fb5aefdd7068b5f272bab118700000000", "vin": [{"sequence": 4294967295, "scriptSig": {"hex": "483045022100b6304ceca5c1cf4977c8a1f98639c407159a09a86ebfa8d2bd5f197c78ff52e402203260c7332fa676575273a46ea70ff92dc76f1b8a419624c43c07c0f16a8e6ca5012102a54b190e89c13002f022e93c17a6c3ad4e7d0e4313bfafbc97c90036ce561072", "asm": "3045022100b6304ceca5c1cf4977c8a1f98639c407159a09a86ebfa8d2bd5f197c78ff52e402203260c7332fa676575273a46ea70ff92dc76f1b8a419624c43c07c0f16a8e6ca5[ALL] 02a54b190e89c13002f022e93c17a6c3ad4e7d0e4313bfafbc97c90036ce561072"}, "vout": 1, "txid": "79e7ce3ecb704f6734cbcae264ba780eea5cf962c2eba02235331728d004455a"}], "txid": "9dc80898bfc110afc6f62915ad78deba1ea575984bb81ca0417128ec543e76be", "blocktime": 1537874412, "version": 1, "confirmations": 11466, "time": 1537874412, "locktime": 0, "vsize": 224, "size": 224}