{"hash": "9dcf6ac46b8de86d0d5f5ebef22d1ddacae6271ed7caa8ec5630f7467e091df8", "blockhash": "0000000000000000001e0dab787dd257d1dbfcb92a98c2207d5e1078be1f4165", "vout": [{"scriptPubKey": {"reqSigs": 1, "hex": "76a91486fc7dce5306a0ffc165238aa9c70987ed63d03988ac", "addresses": ["1DJk27onQkoeRa8hZb4RrJyaxVjXCxLbp2"], "asm": "OP_DUP OP_HASH160 86fc7dce5306a0ffc165238aa9c70987ed63d039 OP_EQUALVERIFY OP_CHECKSIG", "type": "pubkeyhash"}, "value": 0.078115, "n": 0}, {"scriptPubKey": {"reqSigs": 1, "hex": "76a9148894a362d2d047f7fbee3ec4caa50eb93034433488ac", "addresses": ["1DTAxevzXpo4JnoPvUxP21y3rEs7zWMqP8"], "asm": "OP_DUP OP_HASH160 8894a362d2d047f7fbee3ec4caa50eb930344334 OP_EQUALVERIFY OP_CHECKSIG", "type": "pubkeyhash"}, "value": 0.50585138, "n": 1}], "hex": "010000000183ce5da79e6e91d9b85c5c75d90b9bba314ac49c8bd7eeaf80497d1d63c96d2b010000006b483045022100c543d1d8e81497029185670dd657f7c6f1161a4a3d752b1117ebfa6e342b6c8502206eeafb28a802ec94acd9d61daf33987c04a8c10b88ad96e77984600bd98dba4a0121028e83da49b45c7acae4043aa526a15ac72f10223491c8c7c5dc583e20abd76a71ffffffff02ac317700000000001976a91486fc7dce5306a0ffc165238aa9c70987ed63d03988ac32de0303000000001976a9148894a362d2d047f7fbee3ec4caa50eb93034433488ac00000000", "vin": [{"sequence": 4294967295, "scriptSig": {"hex": "483045022100c543d1d8e81497029185670dd657f7c6f1161a4a3d752b1117ebfa6e342b6c8502206eeafb28a802ec94acd9d61daf33987c04a8c10b88ad96e77984600bd98dba4a0121028e83da49b45c7acae4043aa526a15ac72f10223491c8c7c5dc583e20abd76a71", "asm": "3045022100c543d1d8e81497029185670dd657f7c6f1161a4a3d752b1117ebfa6e342b6c8502206eeafb28a802ec94acd9d61daf33987c04a8c10b88ad96e77984600bd98dba4a[ALL] 028e83da49b45c7acae4043aa526a15ac72f10223491c8c7c5dc583e20abd76a71"}, "vout": 1, "txid": "2b6dc9631d7d4980afeed78b9cc44a31ba9b0bd9755c5cb8d9916e9ea75dce83"}], "txid": "9dcf6ac46b8de86d0d5f5ebef22d1ddacae6271ed7caa8ec5630f7467e091df8", "blocktime": 1537872475, "version": 1, "confirmations": 11487, "time": 1537872475, "locktime": 0, "vsize": 226, "size": 226}