{"hash": "9dd36f1c62085319d1c272b3a689a789ddfcdde4403df71c2ea06fcec8617237", "blockhash": "00000000000000000004ffacab907a6b429b9a5745fa0b75af4234bf69dd7176", "vout": [{"scriptPubKey": {"reqSigs": 1, "hex": "a9144e65933930c1ab81a839baf7afdc95e61b2ca75b87", "addresses": ["38qYK4sgBFZBoLPykcmfdUys6htj4EHuCM"], "asm": "OP_HASH160 4e65933930c1ab81a839baf7afdc95e61b2ca75b OP_EQUAL", "type": "scripthash"}, "value": 0.00273595, "n": 0}, {"scriptPubKey": {"reqSigs": 1, "hex": "76a914e620cd5d21bbbd230729c5d7854d48edef79779e88ac", "addresses": ["1MyoiFxp61XcqD7QmvJ3JXHGZBM4kjkExy"], "asm": "OP_DUP OP_HASH160 e620cd5d21bbbd230729c5d7854d48edef79779e OP_EQUALVERIFY OP_CHECKSIG", "type": "pubkeyhash"}, "value": 0.09224704, "n": 1}], "hex": "01000000013f42c62e1d390b02f97b6b6681b6447e810bf35723fb50e97c084977dc38309d010000006a47304402207a6e6367890319f9b3d67ca3a86d7455da6701177fabaf130c7b978d64ca78cc022007433561eb49a941df0706765524f707fa5c581701a929488ddd18742e9f0005012103b34085fb02a3fcf8afdd54958878f1e8ea41f8b50fdc49c044a80a8bc4c4f403ffffffff02bb2c04000000000017a9144e65933930c1ab81a839baf7afdc95e61b2ca75b8700c28c00000000001976a914e620cd5d21bbbd230729c5d7854d48edef79779e88ac00000000", "vin": [{"sequence": 4294967295, "scriptSig": {"hex": "47304402207a6e6367890319f9b3d67ca3a86d7455da6701177fabaf130c7b978d64ca78cc022007433561eb49a941df0706765524f707fa5c581701a929488ddd18742e9f0005012103b34085fb02a3fcf8afdd54958878f1e8ea41f8b50fdc49c044a80a8bc4c4f403", "asm": "304402207a6e6367890319f9b3d67ca3a86d7455da6701177fabaf130c7b978d64ca78cc022007433561eb49a941df0706765524f707fa5c581701a929488ddd18742e9f0005[ALL] 03b34085fb02a3fcf8afdd54958878f1e8ea41f8b50fdc49c044a80a8bc4c4f403"}, "vout": 1, "txid": "9d3038dc7749087ce950fb2357f30b817e44b681666b7bf9020b391d2ec6423f"}], "txid": "9dd36f1c62085319d1c272b3a689a789ddfcdde4403df71c2ea06fcec8617237", "blocktime": 1537875543, "version": 1, "confirmations": 11464, "time": 1537875543, "locktime": 0, "vsize": 223, "size": 223}