{"hash": "9dde07ae8a469e15070e1bb56af3ca5d091c883f9df9fbd95f58f88e568481bf", "blockhash": "00000000000000000018f53835495a110e01622372bf6ae95dc86f2b0ab887b0", "vout": [{"scriptPubKey": {"reqSigs": 1, "hex": "a914f215171536b19def2a1603788c4fb006433eb78587", "addresses": ["3Pm2iLWj3orVtN59A3Mj2FhFeWH2MhoZpo"], "asm": "OP_HASH160 f215171536b19def2a1603788c4fb006433eb785 OP_EQUAL", "type": "scripthash"}, "value": 0.00550926, "n": 0}, {"scriptPubKey": {"reqSigs": 1, "hex": "76a91457e08e1b73e9b4d6fc1bfe59e674e275d0b61c0388ac", "addresses": ["191eo3zUHR4AnSDVHC5EcQqBRpybbegYvE"], "asm": "OP_DUP OP_HASH160 57e08e1b73e9b4d6fc1bfe59e674e275d0b61c03 OP_EQUALVERIFY OP_CHECKSIG", "type": "pubkeyhash"}, "value": 0.04064551, "n": 1}], "hex": "010000000168046e612a4daf7bcf914d17173c964f2340c5bc39f76b798c41309425d2ec9b000000006a473044022020b8cb0faa38d1a86aa5924492882f17b7f2e49ee3f20aab5dc932e53e69fd0902201fb69999eada06ce9c73a5d4271b4ae94b2eac9dbeee6aca82ab6710a66f27ab012103064344c049982626cf53e67808ab7a9f2d972be4b4775ceba2932145d0dc67f4ffffffff020e6808000000000017a914f215171536b19def2a1603788c4fb006433eb7858727053e00000000001976a91457e08e1b73e9b4d6fc1bfe59e674e275d0b61c0388ac00000000", "vin": [{"sequence": 4294967295, "scriptSig": {"hex": "473044022020b8cb0faa38d1a86aa5924492882f17b7f2e49ee3f20aab5dc932e53e69fd0902201fb69999eada06ce9c73a5d4271b4ae94b2eac9dbeee6aca82ab6710a66f27ab012103064344c049982626cf53e67808ab7a9f2d972be4b4775ceba2932145d0dc67f4", "asm": "3044022020b8cb0faa38d1a86aa5924492882f17b7f2e49ee3f20aab5dc932e53e69fd0902201fb69999eada06ce9c73a5d4271b4ae94b2eac9dbeee6aca82ab6710a66f27ab[ALL] 03064344c049982626cf53e67808ab7a9f2d972be4b4775ceba2932145d0dc67f4"}, "vout": 0, "txid": "9becd2259430418c796bf739bcc540234f963c17174d91cf7baf4d2a616e0468"}], "txid": "9dde07ae8a469e15070e1bb56af3ca5d091c883f9df9fbd95f58f88e568481bf", "blocktime": 1537870928, "version": 1, "confirmations": 11512, "time": 1537870928, "locktime": 0, "vsize": 223, "size": 223}