{"hash": "9ddfd40624ca6d7facaa61f991e16dca43ac0fa28f0c96d50656232cc89c2318", "blockhash": "0000000000000000001f0ddff1eddb255c1121bcd4da4f1bc9a0da00cae72433", "vout": [{"scriptPubKey": {"reqSigs": 1, "hex": "a9147483d46d2e9ac0183f705728234c616b7df4311787", "addresses": ["3CK6EVQRyjccxdNp5RATcTWvzymwRvGQp8"], "asm": "OP_HASH160 7483d46d2e9ac0183f705728234c616b7df43117 OP_EQUAL", "type": "scripthash"}, "value": 0.01005, "n": 0}, {"scriptPubKey": {"reqSigs": 1, "hex": "76a9149f989ec2d337208c42383885e8153b0b5c5dcf5588ac", "addresses": ["1FYsGjfpk7uAo8eRCDpgsYkFKLNtLi3kpj"], "asm": "OP_DUP OP_HASH160 9f989ec2d337208c42383885e8153b0b5c5dcf55 OP_EQUALVERIFY OP_CHECKSIG", "type": "pubkeyhash"}, "value": 0.03069128, "n": 1}], "hex": "010000000118486288526b88e5ceddf74388f8a87a42cda83aea8f0d31a2d39cf7f5d62114410000006a473044022066a587af9061fcb8eee4d893f04684897c95ba7f3609477fec3b1b759d0f647202200157b91083f5417358387c3b15c60b0eac4814f0cc3720f55cec4502dfdd713e0121029f299b5c9fb36873fc1a6cfeafaa0dc962cc366471f1b0eb5c0d35278ae22fbdffffffff02c8550f000000000017a9147483d46d2e9ac0183f705728234c616b7df4311787c8d42e00000000001976a9149f989ec2d337208c42383885e8153b0b5c5dcf5588ac00000000", "vin": [{"sequence": 4294967295, "scriptSig": {"hex": "473044022066a587af9061fcb8eee4d893f04684897c95ba7f3609477fec3b1b759d0f647202200157b91083f5417358387c3b15c60b0eac4814f0cc3720f55cec4502dfdd713e0121029f299b5c9fb36873fc1a6cfeafaa0dc962cc366471f1b0eb5c0d35278ae22fbd", "asm": "3044022066a587af9061fcb8eee4d893f04684897c95ba7f3609477fec3b1b759d0f647202200157b91083f5417358387c3b15c60b0eac4814f0cc3720f55cec4502dfdd713e[ALL] 029f299b5c9fb36873fc1a6cfeafaa0dc962cc366471f1b0eb5c0d35278ae22fbd"}, "vout": 65, "txid": "1421d6f5f79cd3a2310d8fea3aa8cd427aa8f88843f7ddcee5886b5288624818"}], "txid": "9ddfd40624ca6d7facaa61f991e16dca43ac0fa28f0c96d50656232cc89c2318", "blocktime": 1537872018, "version": 1, "confirmations": 11489, "time": 1537872018, "locktime": 0, "vsize": 223, "size": 223}