{"hash": "9dec0f6661c11f172ce881721620cc40fd0dea2313d757dfc7ddd3e48af32643", "blockhash": "0000000000000000001f76057863aec43deb6fa401d9628bb513d65a8098bfab", "vout": [{"scriptPubKey": {"reqSigs": 1, "hex": "76a9144b46f92eb02fc9c524f14db337c078ab10993c1f88ac", "addresses": ["17s2hhoCLNLMw1136gcuQhFWRPyjpAesqB"], "asm": "OP_DUP OP_HASH160 4b46f92eb02fc9c524f14db337c078ab10993c1f OP_EQUALVERIFY OP_CHECKSIG", "type": "pubkeyhash"}, "value": 0.001009, "n": 0}, {"scriptPubKey": {"reqSigs": 1, "hex": "a91455cea3311b0e2d3072a61315ca278a00caa8421d87", "addresses": ["39WiuGkLt4K7enDYB5P3oMSDNdiRD5TaYF"], "asm": "OP_HASH160 55cea3311b0e2d3072a61315ca278a00caa8421d OP_EQUAL", "type": "scripthash"}, "value": 0.00187, "n": 1}], "hex": "010000000203a3d372d834141a2977ac59b35d799e07659cd2c8374c7860f8476de8ae295c000000006a47304402202406437f68c726c766fd9a360516930a8eebdc385e500f1fce424ccf88154e45022044adf14456e27018f7f1c42939ed2356b6a631d81aea462ad1615105788fa65d0121029047665621d73def3c8d21330f9e28def190e53be2e59e2ffe47d8b4817f41b9feffffff62df455b17edf1febb69946f4efc3d3d6141943a41891442f04593635db8506d000000006a47304402203da4c7a0c511941cbbfb016384301c59a2c949c613c0a36238b7c4379e1a22cb022056dc9342b33462a7e4e74c8bf6834ac851094bd4c4b7db6bc2cabf1898b0715f01210285889dd232b736a3a6ae0fef7cc3d0472ddba59e2ab3b565e410179244276484feffffff02248a0100000000001976a9144b46f92eb02fc9c524f14db337c078ab10993c1f88ac78da02000000000017a91455cea3311b0e2d3072a61315ca278a00caa8421d8714490800", "vin": [{"sequence": 4294967294, "scriptSig": {"hex": "47304402202406437f68c726c766fd9a360516930a8eebdc385e500f1fce424ccf88154e45022044adf14456e27018f7f1c42939ed2356b6a631d81aea462ad1615105788fa65d0121029047665621d73def3c8d21330f9e28def190e53be2e59e2ffe47d8b4817f41b9", "asm": "304402202406437f68c726c766fd9a360516930a8eebdc385e500f1fce424ccf88154e45022044adf14456e27018f7f1c42939ed2356b6a631d81aea462ad1615105788fa65d[ALL] 029047665621d73def3c8d21330f9e28def190e53be2e59e2ffe47d8b4817f41b9"}, "vout": 0, "txid": "5c29aee86d47f860784c37c8d29c65079e795db359ac77291a1434d872d3a303"}, {"sequence": 4294967294, "scriptSig": {"hex": "47304402203da4c7a0c511941cbbfb016384301c59a2c949c613c0a36238b7c4379e1a22cb022056dc9342b33462a7e4e74c8bf6834ac851094bd4c4b7db6bc2cabf1898b0715f01210285889dd232b736a3a6ae0fef7cc3d0472ddba59e2ab3b565e410179244276484", "asm": "304402203da4c7a0c511941cbbfb016384301c59a2c949c613c0a36238b7c4379e1a22cb022056dc9342b33462a7e4e74c8bf6834ac851094bd4c4b7db6bc2cabf1898b0715f[ALL] 0285889dd232b736a3a6ae0fef7cc3d0472ddba59e2ab3b565e410179244276484"}, "vout": 0, "txid": "6d50b85d639345f0421489413a9441613d3dfc4e6f9469bbfef1ed175b45df62"}], "txid": "9dec0f6661c11f172ce881721620cc40fd0dea2313d757dfc7ddd3e48af32643", "blocktime": 1537873891, "version": 1, "confirmations": 11479, "time": 1537873891, "locktime": 542996, "vsize": 370, "size": 370}