{"hash": "9df3605501fa3623e3467f9f0a6365ba76f7c5df698aedf83801a99e0b8d10a5", "blockhash": "000000000000000000022b45ed06c6f4ccd3cf7fb5ba4856ebd2e58215665228", "vout": [{"scriptPubKey": {"reqSigs": 1, "hex": "76a9140ea2c16f9786cdfea33384770c72f226ae93ef3f88ac", "addresses": ["12LPS9L3BtpHJxCw7CBABQHFsKc7wFRjAR"], "asm": "OP_DUP OP_HASH160 0ea2c16f9786cdfea33384770c72f226ae93ef3f OP_EQUALVERIFY OP_CHECKSIG", "type": "pubkeyhash"}, "value": 0.3618037, "n": 0}, {"scriptPubKey": {"type": "nulldata", "hex": "6a146f6d6e69000000000000001f0000000f97d10f50", "asm": "OP_RETURN 6f6d6e69000000000000001f0000000f97d10f50"}, "value": 0.0, "n": 1}, {"scriptPubKey": {"reqSigs": 1, "hex": "76a9140f9fc445186cf2ebad817c1d42b1398027b99e5688ac", "addresses": ["12RcXfLRFJZkBPDibBA7xNSFez6LH1VkNt"], "asm": "OP_DUP OP_HASH160 0f9fc445186cf2ebad817c1d42b1398027b99e56 OP_EQUALVERIFY OP_CHECKSIG", "type": "pubkeyhash"}, "value": 5.46e-06, "n": 2}], "hex": "01000000016d3a954d3c4e56fc0acf022085c09c86351631c3eb5d08e092fa700900b5d3ff020000006b483045022100e992c43f3ded67c8e6e782403c49a600d254b1cb73a499e3d5d8c5c4afea743002204a0fced03b526c792356883d4c9f4af98cad1083df696f9c323dbe859d234e7f01210242604bdd2261b6188326b9f490e074dda990f5bb746eb9716e491b86b498f4c5feffffff0392112802000000001976a9140ea2c16f9786cdfea33384770c72f226ae93ef3f88ac0000000000000000166a146f6d6e69000000000000001f0000000f97d10f5022020000000000001976a9140f9fc445186cf2ebad817c1d42b1398027b99e5688ac0b490800", "vin": [{"sequence": 4294967294, "scriptSig": {"hex": "483045022100e992c43f3ded67c8e6e782403c49a600d254b1cb73a499e3d5d8c5c4afea743002204a0fced03b526c792356883d4c9f4af98cad1083df696f9c323dbe859d234e7f01210242604bdd2261b6188326b9f490e074dda990f5bb746eb9716e491b86b498f4c5", "asm": "3045022100e992c43f3ded67c8e6e782403c49a600d254b1cb73a499e3d5d8c5c4afea743002204a0fced03b526c792356883d4c9f4af98cad1083df696f9c323dbe859d234e7f[ALL] 0242604bdd2261b6188326b9f490e074dda990f5bb746eb9716e491b86b498f4c5"}, "vout": 2, "txid": "ffd3b5000970fa92e0085debc3311635869cc0852002cf0afc564e3c4d953a6d"}], "txid": "9df3605501fa3623e3467f9f0a6365ba76f7c5df698aedf83801a99e0b8d10a5", "blocktime": 1537869901, "version": 1, "confirmations": 11522, "time": 1537869901, "locktime": 542987, "vsize": 257, "size": 257}