{"hash": "9df5089485bd16ccd65ea4753509e226a6a70d24901308092614cf2354126011", "blockhash": "00000000000000000024a2167bbff67b0be802c0b01cdd79e6331c2be6459f87", "vout": [{"scriptPubKey": {"reqSigs": 1, "hex": "76a91436dcbc190f74fab42150aabcf9555f451d2d563088ac", "addresses": ["1615vHAQzvcWSqDqPh9KntuGGYcdEghB6T"], "asm": "OP_DUP OP_HASH160 36dcbc190f74fab42150aabcf9555f451d2d5630 OP_EQUALVERIFY OP_CHECKSIG", "type": "pubkeyhash"}, "value": 0.05930417, "n": 0}, {"scriptPubKey": {"reqSigs": 1, "hex": "76a914fd4f098d40741f83b1e00b5d58977e6ddb0f50cb88ac", "addresses": ["1Q6Ne9DwpYzm4FA47Zft5ih2gfcnMt145C"], "asm": "OP_DUP OP_HASH160 fd4f098d40741f83b1e00b5d58977e6ddb0f50cb OP_EQUALVERIFY OP_CHECKSIG", "type": "pubkeyhash"}, "value": 1.0, "n": 1}], "hex": "01000000021923a9e4ad196d8844fc879536d0d819bec7ef208974470bd865eb13c4f78225010000006b483045022100806d2b24160b71f4afb0d440f6b6563e29459add84b992594a29c306a1480b2f02201e69ccd380a09f4fe2146e9bdd11c10145cbd367058e854f36102fc533fb71a401210362c31aba502def3ce35950a5b86b602f94cc482a9a5eff51ab5ce72fcda3790dffffffff26a80e1eefff54a725c637d84c8dc88f85fcc921664cc64ba477b2f04910af76200000006a4730440220702d163392e63aff9f35c455a711b8f6cba63ae0054eae59f9426c22af83acda022008905c148422f869aca039583af4286cbb6bc9ca844b60c7d44bb333e17538e9012102f8b54de628a3a8515ef6d3917182ecb9b6be48ae582bc8e2fece04b8034d5279ffffffff02b17d5a00000000001976a91436dcbc190f74fab42150aabcf9555f451d2d563088ac00e1f505000000001976a914fd4f098d40741f83b1e00b5d58977e6ddb0f50cb88ac00000000", "vin": [{"sequence": 4294967295, "scriptSig": {"hex": "483045022100806d2b24160b71f4afb0d440f6b6563e29459add84b992594a29c306a1480b2f02201e69ccd380a09f4fe2146e9bdd11c10145cbd367058e854f36102fc533fb71a401210362c31aba502def3ce35950a5b86b602f94cc482a9a5eff51ab5ce72fcda3790d", "asm": "3045022100806d2b24160b71f4afb0d440f6b6563e29459add84b992594a29c306a1480b2f02201e69ccd380a09f4fe2146e9bdd11c10145cbd367058e854f36102fc533fb71a4[ALL] 0362c31aba502def3ce35950a5b86b602f94cc482a9a5eff51ab5ce72fcda3790d"}, "vout": 1, "txid": "2582f7c413eb65d80b47748920efc7be19d8d0369587fc44886d19ade4a92319"}, {"sequence": 4294967295, "scriptSig": {"hex": "4730440220702d163392e63aff9f35c455a711b8f6cba63ae0054eae59f9426c22af83acda022008905c148422f869aca039583af4286cbb6bc9ca844b60c7d44bb333e17538e9012102f8b54de628a3a8515ef6d3917182ecb9b6be48ae582bc8e2fece04b8034d5279", "asm": "30440220702d163392e63aff9f35c455a711b8f6cba63ae0054eae59f9426c22af83acda022008905c148422f869aca039583af4286cbb6bc9ca844b60c7d44bb333e17538e9[ALL] 02f8b54de628a3a8515ef6d3917182ecb9b6be48ae582bc8e2fece04b8034d5279"}, "vout": 32, "txid": "76af1049f0b277a44bc64c6621c9fc858fc88d4cd837c625a754ffef1e0ea826"}], "txid": "9df5089485bd16ccd65ea4753509e226a6a70d24901308092614cf2354126011", "blocktime": 1537870564, "version": 1, "confirmations": 11515, "time": 1537870564, "locktime": 0, "vsize": 373, "size": 373}