{"hash": "3f2e236997ffa14f1c179c4eadabcd3f2790f1df8ad94c795fb8299260136363", "blockhash": "00000000000000000018f53835495a110e01622372bf6ae95dc86f2b0ab887b0", "vout": [{"scriptPubKey": {"reqSigs": 1, "hex": "a914358601cf6f80dec9d0f1db91cf46f852407234ef87", "addresses": ["36a2GghgZMEPZ8kSMTguFksnQWoVaahVFA"], "asm": "OP_HASH160 358601cf6f80dec9d0f1db91cf46f852407234ef OP_EQUAL", "type": "scripthash"}, "value": 0.04282209, "n": 0}, {"scriptPubKey": {"reqSigs": 1, "hex": "76a914d4ff2fbd12ed5089280e814e071293980390c36e88ac", "addresses": ["1LRDxLTQLgFQvLjePmfC7bKcnDPggx8yj2"], "asm": "OP_DUP OP_HASH160 d4ff2fbd12ed5089280e814e071293980390c36e OP_EQUALVERIFY OP_CHECKSIG", "type": "pubkeyhash"}, "value": 0.00874563, "n": 1}], "hex": "02000000000101bbe464f83c6bcbce380706226b520be89f35e6ecf7d4ff309e9c4daa61af3870010000001716001474d22f7bb277a7c0b7e9bb31fe380b00fe25b249feffffff02615741000000000017a914358601cf6f80dec9d0f1db91cf46f852407234ef8743580d00000000001976a914d4ff2fbd12ed5089280e814e071293980390c36e88ac02483045022100c9c5b83f1d21c867d4601b08cecb64429533cbf4407295da3761df30076c80f302207439ae66e56db903a42f3e5a0f5e905225e53a7ce2e4f309b6ba173b7ce527ed01210270ebbb308c5ae3fbf688168644d3b1f3d270c61d94494b1741d46cc31513e0700e490800", "vin": [{"txinwitness": ["3045022100c9c5b83f1d21c867d4601b08cecb64429533cbf4407295da3761df30076c80f302207439ae66e56db903a42f3e5a0f5e905225e53a7ce2e4f309b6ba173b7ce527ed01", "0270ebbb308c5ae3fbf688168644d3b1f3d270c61d94494b1741d46cc31513e070"], "sequence": 4294967294, "scriptSig": {"hex": "16001474d22f7bb277a7c0b7e9bb31fe380b00fe25b249", "asm": "001474d22f7bb277a7c0b7e9bb31fe380b00fe25b249"}, "vout": 1, "txid": "7038af61aa4d9c9e30ffd4f7ece6359fe80b526b22060738cecb6b3cf864e4bb"}], "txid": "9df53edd03b25d378a75fa372d800d398342b94aaac88be93b8f8d0c7db622e8", "blocktime": 1537870928, "version": 2, "confirmations": 11512, "time": 1537870928, "locktime": 542990, "vsize": 168, "size": 250}