{"hash": "570969d83409af5749ecda80fb7827a5cf4251c31ae39e1d627b4176771191c7", "blockhash": "0000000000000000001f76057863aec43deb6fa401d9628bb513d65a8098bfab", "vout": [{"scriptPubKey": {"reqSigs": 1, "hex": "a914227698965eebdba8c48cea3a7764e41aa0cffb4587", "addresses": ["34qEyGF4pScvtcpsBG9UDQyBpqLd8pBi3T"], "asm": "OP_HASH160 227698965eebdba8c48cea3a7764e41aa0cffb45 OP_EQUAL", "type": "scripthash"}, "value": 185.14516909, "n": 0}, {"scriptPubKey": {"reqSigs": 1, "hex": "76a914390580e59d9b03652748943c7e1743b82f20d86b88ac", "addresses": ["16CW7KpXL7pMdXaHhTKgraxwAH1dqxStzR"], "asm": "OP_DUP OP_HASH160 390580e59d9b03652748943c7e1743b82f20d86b OP_EQUALVERIFY OP_CHECKSIG", "type": "pubkeyhash"}, "value": 0.03, "n": 1}], "hex": "01000000000101265903999327035c2e40061453c361e3deb0bad25a5e0e5140b5df5c12e3128f0300000023220020ceb7544caa2cc5eec5999cb6ca9ca18588c0b048e0d856dddbf842488c699da1ffffffff02ad1b8d4f0400000017a914227698965eebdba8c48cea3a7764e41aa0cffb4587c0c62d00000000001976a914390580e59d9b03652748943c7e1743b82f20d86b88ac04004730440220104478c167c9ab214fc8a4d45d1e294afbf25ceb734e5e3a54fb0c0e736f87ee022053ea74867dbf4415025a55492f6715beb2b683a5f392d7056fb024dc0c8ba5720147304402202713510140cfc46d8fc2c170b24a05c1e1e07fb90911a2de9410d8664c33687e02200857f27ba3709b523b5d4d48c71feaee81a46aa26c1bd612b2874e46847c273b0169522103a6706386a25753d53dfdbf119918b5b8d6d40d5ed6b35d72471cafcede9225ce21024c89f613fd5edfef560be0e28d9cab96805335be6807b1cdebcb49157e83a6642103b30aa6e10ab77862055d05a88f76906fe346b3d0b203260b32e6646821c7b65753ae00000000", "vin": [{"txinwitness": ["", "30440220104478c167c9ab214fc8a4d45d1e294afbf25ceb734e5e3a54fb0c0e736f87ee022053ea74867dbf4415025a55492f6715beb2b683a5f392d7056fb024dc0c8ba57201", "304402202713510140cfc46d8fc2c170b24a05c1e1e07fb90911a2de9410d8664c33687e02200857f27ba3709b523b5d4d48c71feaee81a46aa26c1bd612b2874e46847c273b01", "522103a6706386a25753d53dfdbf119918b5b8d6d40d5ed6b35d72471cafcede9225ce21024c89f613fd5edfef560be0e28d9cab96805335be6807b1cdebcb49157e83a6642103b30aa6e10ab77862055d05a88f76906fe346b3d0b203260b32e6646821c7b65753ae"], "sequence": 4294967295, "scriptSig": {"hex": "220020ceb7544caa2cc5eec5999cb6ca9ca18588c0b048e0d856dddbf842488c699da1", "asm": "0020ceb7544caa2cc5eec5999cb6ca9ca18588c0b048e0d856dddbf842488c699da1"}, "vout": 3, "txid": "8f12e3125cdfb540510e5e5ad2bab0dee361c3531406402e5c03279399035926"}], "txid": "9df7bb3be7fad6ba2db31f496468b38ed09129f5749d60e7a3bb097f86ee4758", "blocktime": 1537873891, "version": 1, "confirmations": 11478, "time": 1537873891, "locktime": 0, "vsize": 216, "size": 406}