{"hash": "9dfb16b8b7fcd6db930501f492d1ce51925bc1371f5c36b91a245d53105bbbe6", "blockhash": "0000000000000000001cda96e906b7601b7a6fb1a3b62bca570a9e5d8f4b3de1", "vout": [{"scriptPubKey": {"reqSigs": 1, "hex": "76a914ebfa82c9fe95e46bcf861aab0ed5ed45666f429a88ac", "addresses": ["1NWjttAuj32MaaZxDMcczE6vqYjnBZBnXU"], "asm": "OP_DUP OP_HASH160 ebfa82c9fe95e46bcf861aab0ed5ed45666f429a OP_EQUALVERIFY OP_CHECKSIG", "type": "pubkeyhash"}, "value": 0.0780662, "n": 0}, {"scriptPubKey": {"reqSigs": 1, "hex": "76a914305ac3de24e009641b5689eed359e04f48cf35f488ac", "addresses": ["15QgAgLJWT8ZzDWDVfVZNLz9D6C7vDhSo3"], "asm": "OP_DUP OP_HASH160 305ac3de24e009641b5689eed359e04f48cf35f4 OP_EQUALVERIFY OP_CHECKSIG", "type": "pubkeyhash"}, "value": 0.43769575, "n": 1}], "hex": "0100000001f543058fd91ab0d2408908d0fa7e16172d80eaf5dafab387e7c3bbaa6caeac8f000000006b483045022100ec708f933efe02ff97c6a448fefa2d3407ca6d137e1b695bad63d04b0dfe901b0220175660c8e77e2414876693fafd4883a04489cae0394269b5f347b0af07a452fb0121023f7ff542965a057a46ec1b5387580afc56f1986e11a5e81819f51fbee6d44a7cffffffff029c1e7700000000001976a914ebfa82c9fe95e46bcf861aab0ed5ed45666f429a88ace7de9b02000000001976a914305ac3de24e009641b5689eed359e04f48cf35f488ac00000000", "vin": [{"sequence": 4294967295, "scriptSig": {"hex": "483045022100ec708f933efe02ff97c6a448fefa2d3407ca6d137e1b695bad63d04b0dfe901b0220175660c8e77e2414876693fafd4883a04489cae0394269b5f347b0af07a452fb0121023f7ff542965a057a46ec1b5387580afc56f1986e11a5e81819f51fbee6d44a7c", "asm": "3045022100ec708f933efe02ff97c6a448fefa2d3407ca6d137e1b695bad63d04b0dfe901b0220175660c8e77e2414876693fafd4883a04489cae0394269b5f347b0af07a452fb[ALL] 023f7ff542965a057a46ec1b5387580afc56f1986e11a5e81819f51fbee6d44a7c"}, "vout": 0, "txid": "8facae6caabbc3e787b3fadaf5ea802d17167efad0088940d2b01ad98f0543f5"}], "txid": "9dfb16b8b7fcd6db930501f492d1ce51925bc1371f5c36b91a245d53105bbbe6", "blocktime": 1537873282, "version": 1, "confirmations": 11485, "time": 1537873282, "locktime": 0, "vsize": 226, "size": 226}