{"hash": "b3487d34ccad13cd7c350bdede213f132ae950a4be69b8a8bfe4a9d54161b614", "blockhash": "0000000000000000001f76057863aec43deb6fa401d9628bb513d65a8098bfab", "vout": [{"scriptPubKey": {"reqSigs": 1, "hex": "a914aa59327a5414b7d9cb9796d7ac89cc38cc2c2ac487", "addresses": ["3HDjegbouLaGdjhFRTBzCkLaiUxLTbkvJc"], "asm": "OP_HASH160 aa59327a5414b7d9cb9796d7ac89cc38cc2c2ac4 OP_EQUAL", "type": "scripthash"}, "value": 4.0, "n": 0}, {"scriptPubKey": {"reqSigs": 1, "hex": "a914039b62e9dfa89c64e484c75fa10d5e115e14b66887", "addresses": ["32266Z6rMwgLmibmGAnJGcYuaaSyGjmJ3p"], "asm": "OP_HASH160 039b62e9dfa89c64e484c75fa10d5e115e14b668 OP_EQUAL", "type": "scripthash"}, "value": 0.93928574, "n": 1}], "hex": "0100000000010281686910bb8fd5fdf2c34b70118047024073b246d15d791cfcbbbf421fec05f501000000171600148135d1e5fe8aaa3a3854aa3790463eb6e6418240ffffff004150e7e1d5acebb98b9b3f2d6f3de2ebba493772fd62cdc77e3ef2a835f5f8360100000017160014508c490f83e188abb8ec8674009f2f0def406a37ffffff00020084d7170000000017a914aa59327a5414b7d9cb9796d7ac89cc38cc2c2ac4877e3c99050000000017a914039b62e9dfa89c64e484c75fa10d5e115e14b6688702483045022100f5be36cc99f9ab8f5e3fe22c516aba0d5973aeea6691a1bc4346ca3a564a553602206692e358635211ba9935e192a1c4447d351ef672682c66ebd25d9838f545f6410121038ae05dfb4b1128d7dc2ad2be50db8d23b4746122b934c1a52e79c55406c1659e02473044022018e2a701ad5d2d2609a4ec2d68667fbf00962a51eb35d492f0c18c862901ac97022077cfabf2dbd733f1f2a982155e798001be4e3a4806bf711765b6a28103a8a43c0121023e4cb1d238f943b3b3568a3cd394413982f4c6c2e51e08cddbf4848e18c041bf00000000", "vin": [{"txinwitness": ["3045022100f5be36cc99f9ab8f5e3fe22c516aba0d5973aeea6691a1bc4346ca3a564a553602206692e358635211ba9935e192a1c4447d351ef672682c66ebd25d9838f545f64101", "038ae05dfb4b1128d7dc2ad2be50db8d23b4746122b934c1a52e79c55406c1659e"], "sequence": 16777215, "scriptSig": {"hex": "1600148135d1e5fe8aaa3a3854aa3790463eb6e6418240", "asm": "00148135d1e5fe8aaa3a3854aa3790463eb6e6418240"}, "vout": 1, "txid": "f505ec1f42bfbbfc1c795dd146b2734002478011704bc3f2fdd58fbb10696881"}, {"txinwitness": ["3044022018e2a701ad5d2d2609a4ec2d68667fbf00962a51eb35d492f0c18c862901ac97022077cfabf2dbd733f1f2a982155e798001be4e3a4806bf711765b6a28103a8a43c01", "023e4cb1d238f943b3b3568a3cd394413982f4c6c2e51e08cddbf4848e18c041bf"], "sequence": 16777215, "scriptSig": {"hex": "160014508c490f83e188abb8ec8674009f2f0def406a37", "asm": "0014508c490f83e188abb8ec8674009f2f0def406a37"}, "vout": 1, "txid": "36f8f535a8f23e7ec7cd62fd723749baebe23d6f2d3f9b8bb9ebacd5e1e75041"}], "txid": "9dff883a76ed72496f53529c39c1aba8f35a034343542e8f930b1fd64c4e6812", "blocktime": 1537873891, "version": 1, "confirmations": 11478, "time": 1537873891, "locktime": 0, "vsize": 257, "size": 419}