{"hash": "7866d5bcf1341f60598e2dbc47c7c256fdc2a74734a12e077a49f497efca4289", "blockhash": "0000000000000000001cda96e906b7601b7a6fb1a3b62bca570a9e5d8f4b3de1", "vout": [{"scriptPubKey": {"reqSigs": 1, "hex": "76a9149a1b8f9b1fa2d2297863adb1cb11c71df455684888ac", "addresses": ["1F3r5We2zwNiSzG6GQUTTWnnPMCz2HJbJu"], "asm": "OP_DUP OP_HASH160 9a1b8f9b1fa2d2297863adb1cb11c71df4556848 OP_EQUALVERIFY OP_CHECKSIG", "type": "pubkeyhash"}, "value": 2.713e-05, "n": 0}, {"scriptPubKey": {"reqSigs": 1, "hex": "a9148ddb66c3371910a0ef8f38021cc4094e61e69f3a87", "addresses": ["3Ed62sPENkraPwpovPty9YMFGJ8FtTyv63"], "asm": "OP_HASH160 8ddb66c3371910a0ef8f38021cc4094e61e69f3a OP_EQUAL", "type": "scripthash"}, "value": 0.0004067, "n": 1}], "hex": "01000000000101f547643e73365936cb339e642098a186b3c1e5add598cece09f9ad4a05b56b860100000023220020fdd23d707f55451c4e006c77b5e8df35a185a8e99f9bda70bf0ded7913bb1eb3ffffffff02990a0000000000001976a9149a1b8f9b1fa2d2297863adb1cb11c71df455684888acde9e00000000000017a9148ddb66c3371910a0ef8f38021cc4094e61e69f3a8704004730440220184bd2554ce4c1c4e1e1c2aa4b04db529f1aec334d86790a45af5adbb793cf8302201d96576eac38dc8d058d3bbfac8a8055c05d3aac9b95a41ef6992acd0702ccdf01483045022100e18309b9a201ae8c95b3b0177f9d36cbcaa8df69267bbd3deec2b8724d0049a60220418a3d009c2556a3e8dd0f2f152329ed23ba3643f6f4894b3ced01cc2b81bebe014752210286c104577b978160849865bc23f9a6df9b53d41c8ffb486754b97b2a474a181c2103148c80a5bdfddb05ff5bcffc397c8ca748d8b435ec6a175bc9d7bfc7fc6f853752ae00000000", "vin": [{"txinwitness": ["", "30440220184bd2554ce4c1c4e1e1c2aa4b04db529f1aec334d86790a45af5adbb793cf8302201d96576eac38dc8d058d3bbfac8a8055c05d3aac9b95a41ef6992acd0702ccdf01", "3045022100e18309b9a201ae8c95b3b0177f9d36cbcaa8df69267bbd3deec2b8724d0049a60220418a3d009c2556a3e8dd0f2f152329ed23ba3643f6f4894b3ced01cc2b81bebe01", "52210286c104577b978160849865bc23f9a6df9b53d41c8ffb486754b97b2a474a181c2103148c80a5bdfddb05ff5bcffc397c8ca748d8b435ec6a175bc9d7bfc7fc6f853752ae"], "sequence": 4294967295, "scriptSig": {"hex": "220020fdd23d707f55451c4e006c77b5e8df35a185a8e99f9bda70bf0ded7913bb1eb3", "asm": "0020fdd23d707f55451c4e006c77b5e8df35a185a8e99f9bda70bf0ded7913bb1eb3"}, "vout": 1, "txid": "866bb5054aadf909cece98d5ade5c1b386a19820649e33cb365936733e6447f5"}], "txid": "9e06be7ebac7bfee7c4b3dabf6b6bd114ab7f2bb0b74ef976267713449c16d42", "blocktime": 1537873282, "version": 1, "confirmations": 11484, "time": 1537873282, "locktime": 0, "vsize": 208, "size": 373}