{"hash": "9e08606e99afa54610788f8fea0815ca76d6bcf0a5ef22e8c803fd7b9c21f592", "blockhash": "000000000000000000022b45ed06c6f4ccd3cf7fb5ba4856ebd2e58215665228", "vout": [{"scriptPubKey": {"reqSigs": 1, "hex": "76a9149bcfa9a8132ac09ff350e0ab03fcc6fb54c6d44988ac", "addresses": ["1FCrWPmQt2rhFiEgt79UyX1DCQXXNF47QY"], "asm": "OP_DUP OP_HASH160 9bcfa9a8132ac09ff350e0ab03fcc6fb54c6d449 OP_EQUALVERIFY OP_CHECKSIG", "type": "pubkeyhash"}, "value": 5.83, "n": 0}, {"scriptPubKey": {"reqSigs": 1, "hex": "76a91481e31fd3eb7ee8bdec50884ba7b679dbed8877eb88ac", "addresses": ["1CqnFd2D2takwwCZNM9rYTNhVmYgFYkMGm"], "asm": "OP_DUP OP_HASH160 81e31fd3eb7ee8bdec50884ba7b679dbed8877eb OP_EQUALVERIFY OP_CHECKSIG", "type": "pubkeyhash"}, "value": 1.76162, "n": 1}], "hex": "0100000003f7e297a2fb6b6c04e161ca4e77a88876dddb59f82ab1aa7c7c54cd9758f992b2010000006b48304502210083f00a8eecf4a9aeb51fecc144711d63cea5294e92fd6f233757bec3252beb0702200946210dc51c3ed9d396f73656dd9d6c279e968ed09c74906d8cd44938dfb1fb01210360df53d9abc01cb0a03523cc11b9642d5889ee508695dbeebfd0eb536847b7faffffffffaa801e5a7fb61ef887b48ecdd3eda0d0e29d09e21e67210d9314934de050051b000000006b483045022100da2483809375ea7118b497e502444c014329038802ac3f016efad9a7f693af54022056d0f468a7fb78553b7b79fe6fd937a5c3f9176a73e17e814210ee8c21f9fc9d0121035f06ee0bec986e24e60a3e3fde4129e6c901f8610b21d6a9cb3edfaeffbdeaf1fffffffffa36fdfb186ae409a4d61b02d9eea7adba24166b12448caa313a29f643245a44000000006a47304402204c0a0cbf556f5f2d0adea264352562d7076c277953e17c34f7f3da1c12753f3f02205ef50df1358c5502bc55a0b1bd331c5918264046ad3156a436177d2527a2d721012103a2bbd93e8f237837c7e6891ff89770be47358950db1b742299722eb18a741192ffffffff02c0dfbf22000000001976a9149bcfa9a8132ac09ff350e0ab03fcc6fb54c6d44988acd004800a000000001976a91481e31fd3eb7ee8bdec50884ba7b679dbed8877eb88ac00000000", "vin": [{"sequence": 4294967295, "scriptSig": {"hex": "48304502210083f00a8eecf4a9aeb51fecc144711d63cea5294e92fd6f233757bec3252beb0702200946210dc51c3ed9d396f73656dd9d6c279e968ed09c74906d8cd44938dfb1fb01210360df53d9abc01cb0a03523cc11b9642d5889ee508695dbeebfd0eb536847b7fa", "asm": "304502210083f00a8eecf4a9aeb51fecc144711d63cea5294e92fd6f233757bec3252beb0702200946210dc51c3ed9d396f73656dd9d6c279e968ed09c74906d8cd44938dfb1fb[ALL] 0360df53d9abc01cb0a03523cc11b9642d5889ee508695dbeebfd0eb536847b7fa"}, "vout": 1, "txid": "b292f95897cd547c7caab12af859dbdd7688a8774eca61e1046c6bfba297e2f7"}, {"sequence": 4294967295, "scriptSig": {"hex": "483045022100da2483809375ea7118b497e502444c014329038802ac3f016efad9a7f693af54022056d0f468a7fb78553b7b79fe6fd937a5c3f9176a73e17e814210ee8c21f9fc9d0121035f06ee0bec986e24e60a3e3fde4129e6c901f8610b21d6a9cb3edfaeffbdeaf1", "asm": "3045022100da2483809375ea7118b497e502444c014329038802ac3f016efad9a7f693af54022056d0f468a7fb78553b7b79fe6fd937a5c3f9176a73e17e814210ee8c21f9fc9d[ALL] 035f06ee0bec986e24e60a3e3fde4129e6c901f8610b21d6a9cb3edfaeffbdeaf1"}, "vout": 0, "txid": "1b0550e04d9314930d21671ee2099de2d0a0edd3cd8eb487f81eb67f5a1e80aa"}, {"sequence": 4294967295, "scriptSig": {"hex": "47304402204c0a0cbf556f5f2d0adea264352562d7076c277953e17c34f7f3da1c12753f3f02205ef50df1358c5502bc55a0b1bd331c5918264046ad3156a436177d2527a2d721012103a2bbd93e8f237837c7e6891ff89770be47358950db1b742299722eb18a741192", "asm": "304402204c0a0cbf556f5f2d0adea264352562d7076c277953e17c34f7f3da1c12753f3f02205ef50df1358c5502bc55a0b1bd331c5918264046ad3156a436177d2527a2d721[ALL] 03a2bbd93e8f237837c7e6891ff89770be47358950db1b742299722eb18a741192"}, "vout": 0, "txid": "445a2443f6293a31aa8c44126b1624baada7eed9021bd6a409e46a18fbfd36fa"}], "txid": "9e08606e99afa54610788f8fea0815ca76d6bcf0a5ef22e8c803fd7b9c21f592", "blocktime": 1537869901, "version": 1, "confirmations": 11522, "time": 1537869901, "locktime": 0, "vsize": 521, "size": 521}