{"hash": "ef32978fada3ed0a1ef3bda6c2ac8a004a2b94e79e5e86ae4abfe350c4b2e298", "blockhash": "0000000000000000001cda96e906b7601b7a6fb1a3b62bca570a9e5d8f4b3de1", "vout": [{"scriptPubKey": {"reqSigs": 1, "hex": "76a91431e7c7998d9c09b7c473fe16dde24d6840a3daff88ac", "addresses": ["15YsmjcPGnmJ7hWE6TUNSGhjpGt34xYgxw"], "asm": "OP_DUP OP_HASH160 31e7c7998d9c09b7c473fe16dde24d6840a3daff OP_EQUALVERIFY OP_CHECKSIG", "type": "pubkeyhash"}, "value": 1.73559534, "n": 0}, {"scriptPubKey": {"reqSigs": 1, "hex": "a9145b9fd470633067a660bb30b93643ae4c1b44189387", "addresses": ["3A3UtAwpUkcyJ1mzGoTpZALEi2kyV8toH9"], "asm": "OP_HASH160 5b9fd470633067a660bb30b93643ae4c1b441893 OP_EQUAL", "type": "scripthash"}, "value": 9.82949717, "n": 1}], "hex": "02000000000101030edbb89d59e4fdee868236ed24aaf4e86dcc7c15ee78f1aa5804e5c23abd8b01000000171600146c685b85500a90009f00e2e450f6b5e188011d86feffffff02ee4e580a000000001976a91431e7c7998d9c09b7c473fe16dde24d6840a3daff88ac559f963a0000000017a9145b9fd470633067a660bb30b93643ae4c1b44189387024830450221008ad98e6a7529d7786f6086302698becbfbbf6a4a91575fadd5c4e23204000722022062beffc40327e1ba177f4d55afb14a07e97ffc1dd5c881e6671890251731aeff012102d1389d71ee19a5d878e55155543c96986e3d72a9fffa59a5bfdda9135b8ca1dc13490800", "vin": [{"txinwitness": ["30450221008ad98e6a7529d7786f6086302698becbfbbf6a4a91575fadd5c4e23204000722022062beffc40327e1ba177f4d55afb14a07e97ffc1dd5c881e6671890251731aeff01", "02d1389d71ee19a5d878e55155543c96986e3d72a9fffa59a5bfdda9135b8ca1dc"], "sequence": 4294967294, "scriptSig": {"hex": "1600146c685b85500a90009f00e2e450f6b5e188011d86", "asm": "00146c685b85500a90009f00e2e450f6b5e188011d86"}, "vout": 1, "txid": "8bbd3ac2e50458aaf178ee157ccc6de8f4aa24ed368286eefde4599db8db0e03"}], "txid": "9e0a73235928f9b3ff79bed5fbcc6492aedad56b28d524683e6ffc9cbf98faa7", "blocktime": 1537873282, "version": 2, "confirmations": 11483, "time": 1537873282, "locktime": 542995, "vsize": 168, "size": 250}