{"hash": "9e0e8a3c33c73a00eae21cd9402d92c7261a0064545e56c4cbcb861c63814524", "blockhash": "0000000000000000001f76057863aec43deb6fa401d9628bb513d65a8098bfab", "vout": [{"scriptPubKey": {"reqSigs": 1, "hex": "a914860bdcae3002c3a1c0f3be16f1bcf8dedb9a83f387", "addresses": ["3DungSL5u5cbFrciWjZJ1VZnpAzykGtH6F"], "asm": "OP_HASH160 860bdcae3002c3a1c0f3be16f1bcf8dedb9a83f3 OP_EQUAL", "type": "scripthash"}, "value": 0.00321016, "n": 0}, {"scriptPubKey": {"reqSigs": 1, "hex": "76a914ff600ee0fbcfd34ecfe15041a1941cdb88f7757888ac", "addresses": ["1QHJP9pF9ei8gnYyuGbByUSpnrJav3pJaQ"], "asm": "OP_DUP OP_HASH160 ff600ee0fbcfd34ecfe15041a1941cdb88f77578 OP_EQUALVERIFY OP_CHECKSIG", "type": "pubkeyhash"}, "value": 0.00576149, "n": 1}], "hex": "0100000001aa906cf4a76b930900cc30faaa60c82c2ad9b0759f866c81dba8d5b681f29cfc000000006b483045022100cf19ba756631dcc58b08fc6be79222d4c19dd822fc927dcf32bc3b78e58559d902203d05a802ff4066ee0c3ecbcb50f032ffb30d1df309a664efa93309dce07e03aa012102d080db77f28a7b572e7d904bb074a107b65afdfbc665509224c8c5baf2c49796ffffffff02f8e504000000000017a914860bdcae3002c3a1c0f3be16f1bcf8dedb9a83f38795ca0800000000001976a914ff600ee0fbcfd34ecfe15041a1941cdb88f7757888ac00000000", "vin": [{"sequence": 4294967295, "scriptSig": {"hex": "483045022100cf19ba756631dcc58b08fc6be79222d4c19dd822fc927dcf32bc3b78e58559d902203d05a802ff4066ee0c3ecbcb50f032ffb30d1df309a664efa93309dce07e03aa012102d080db77f28a7b572e7d904bb074a107b65afdfbc665509224c8c5baf2c49796", "asm": "3045022100cf19ba756631dcc58b08fc6be79222d4c19dd822fc927dcf32bc3b78e58559d902203d05a802ff4066ee0c3ecbcb50f032ffb30d1df309a664efa93309dce07e03aa[ALL] 02d080db77f28a7b572e7d904bb074a107b65afdfbc665509224c8c5baf2c49796"}, "vout": 0, "txid": "fc9cf281b6d5a8db816c869f75b0d92a2cc860aafa30cc0009936ba7f46c90aa"}], "txid": "9e0e8a3c33c73a00eae21cd9402d92c7261a0064545e56c4cbcb861c63814524", "blocktime": 1537873891, "version": 1, "confirmations": 11475, "time": 1537873891, "locktime": 0, "vsize": 224, "size": 224}