{"hash": "9e1d717e66181976b8f5090a7b7986ab0dfbb8706e91867f318d475dac0c6428", "blockhash": "0000000000000000000dcc0f55137456b1a82d3642486a52398922ac4d620174", "vout": [{"scriptPubKey": {"reqSigs": 1, "hex": "76a9149b5a9bf27e4931307b9260eed87536a9aa9d141988ac", "addresses": ["1FASHNQnixjqdM3LJ3MKvQmqYafcPd4r8U"], "asm": "OP_DUP OP_HASH160 9b5a9bf27e4931307b9260eed87536a9aa9d1419 OP_EQUALVERIFY OP_CHECKSIG", "type": "pubkeyhash"}, "value": 0.00779719, "n": 0}, {"scriptPubKey": {"reqSigs": 1, "hex": "76a914598681e24cdf3deaf4b4ad7622fcd07f9c93d15588ac", "addresses": ["19ANGosN37akuMQUSdfvYNRy5fwG9NKGNL"], "asm": "OP_DUP OP_HASH160 598681e24cdf3deaf4b4ad7622fcd07f9c93d155 OP_EQUALVERIFY OP_CHECKSIG", "type": "pubkeyhash"}, "value": 0.01145756, "n": 1}], "hex": "0100000001fea44b409ce40ded80259d1c535312b8b91a1ace527d06b63c0fe31e99ec0ded010000006b483045022100f9bed61a9d0d83cb9b85f199962f6220c2362f21f8cb7348500b56540044f78102204dadde22c6ed161526c39ed090d90064f15de30313e0b3dee8cb089b29fd929f012103efd2970b61010e95eb85bdaba3b4354a971fca08eb347a9e2a9ceb4baedbb932fdffffff02c7e50b00000000001976a9149b5a9bf27e4931307b9260eed87536a9aa9d141988ac9c7b1100000000001976a914598681e24cdf3deaf4b4ad7622fcd07f9c93d15588ac0c490800", "vin": [{"sequence": 4294967293, "scriptSig": {"hex": "483045022100f9bed61a9d0d83cb9b85f199962f6220c2362f21f8cb7348500b56540044f78102204dadde22c6ed161526c39ed090d90064f15de30313e0b3dee8cb089b29fd929f012103efd2970b61010e95eb85bdaba3b4354a971fca08eb347a9e2a9ceb4baedbb932", "asm": "3045022100f9bed61a9d0d83cb9b85f199962f6220c2362f21f8cb7348500b56540044f78102204dadde22c6ed161526c39ed090d90064f15de30313e0b3dee8cb089b29fd929f[ALL] 03efd2970b61010e95eb85bdaba3b4354a971fca08eb347a9e2a9ceb4baedbb932"}, "vout": 1, "txid": "ed0dec991ee30f3cb6067d52ce1a1ab9b81253531c9d2580ed0de49c404ba4fe"}], "txid": "9e1d717e66181976b8f5090a7b7986ab0dfbb8706e91867f318d475dac0c6428", "blocktime": 1537870268, "version": 1, "confirmations": 11516, "time": 1537870268, "locktime": 542988, "vsize": 226, "size": 226}