{"hash": "9e24730159c6b98ad9614d4f51c35cbeee10b5986b0f91fb3e4a410dcb00608b", "blockhash": "0000000000000000000e13cef7c366c0283d82e591d1acd082e914b08063cdf1", "vout": [{"scriptPubKey": {"reqSigs": 1, "hex": "76a914ab27b2c4c6087ef15ee16e33bffe416a09804b5888ac", "addresses": ["1Gbz76Eir3WJyXGJjr14cb6EhjDv8zvxGh"], "asm": "OP_DUP OP_HASH160 ab27b2c4c6087ef15ee16e33bffe416a09804b58 OP_EQUALVERIFY OP_CHECKSIG", "type": "pubkeyhash"}, "value": 0.002651, "n": 0}, {"scriptPubKey": {"reqSigs": 1, "hex": "a9141c0098132be3751a7092b389d83ce2d59b38f1ef87", "addresses": ["34F5ZBxkmCUbERM1GpwMBckPLbgrB4d8ad"], "asm": "OP_HASH160 1c0098132be3751a7092b389d83ce2d59b38f1ef OP_EQUAL", "type": "scripthash"}, "value": 0.046344, "n": 1}], "hex": "01000000029d10c9e50b78a1584fc6999cca04d405fc32d62f3bc256d983c5941a34b94d94010000006a4730440220008ab404b65d5f447e7a2df31405b531933c1b9a8be9b6aff396e411b63e2a7802204d9823c74aafca242d5ad3b13dec86a2efafa28abb5eea838a06d1b372cfdb28012102f07a1175a498ffafb15ec379ac00bcfac42b39f21977f40514df9f3eb4c31980ffffffff3cdc071aed2b7465d745ab10208fc946902723b7333727e9c3c8a0cb948299a4020000006b483045022100e3cd5d3882e1b05ab9efdf708613fc83a0531df74c17d76bae0280ae588596b2022073cc291ecf4ef6fa8f468d1ef827fa404a1c745606162dc4a992abfebbb996e201210321e03a107d6416577fb8d4f210da7796dde14460773b39142d5bbb3c20776c46ffffffff028c0b0400000000001976a914ab27b2c4c6087ef15ee16e33bffe416a09804b5888ac20b746000000000017a9141c0098132be3751a7092b389d83ce2d59b38f1ef8700000000", "vin": [{"sequence": 4294967295, "scriptSig": {"hex": "4730440220008ab404b65d5f447e7a2df31405b531933c1b9a8be9b6aff396e411b63e2a7802204d9823c74aafca242d5ad3b13dec86a2efafa28abb5eea838a06d1b372cfdb28012102f07a1175a498ffafb15ec379ac00bcfac42b39f21977f40514df9f3eb4c31980", "asm": "30440220008ab404b65d5f447e7a2df31405b531933c1b9a8be9b6aff396e411b63e2a7802204d9823c74aafca242d5ad3b13dec86a2efafa28abb5eea838a06d1b372cfdb28[ALL] 02f07a1175a498ffafb15ec379ac00bcfac42b39f21977f40514df9f3eb4c31980"}, "vout": 1, "txid": "944db9341a94c583d956c23b2fd632fc05d404ca9c99c64f58a1780be5c9109d"}, {"sequence": 4294967295, "scriptSig": {"hex": "483045022100e3cd5d3882e1b05ab9efdf708613fc83a0531df74c17d76bae0280ae588596b2022073cc291ecf4ef6fa8f468d1ef827fa404a1c745606162dc4a992abfebbb996e201210321e03a107d6416577fb8d4f210da7796dde14460773b39142d5bbb3c20776c46", "asm": "3045022100e3cd5d3882e1b05ab9efdf708613fc83a0531df74c17d76bae0280ae588596b2022073cc291ecf4ef6fa8f468d1ef827fa404a1c745606162dc4a992abfebbb996e2[ALL] 0321e03a107d6416577fb8d4f210da7796dde14460773b39142d5bbb3c20776c46"}, "vout": 2, "txid": "a4998294cba0c8c3e9273733b723279046c98f2010ab45d765742bed1a07dc3c"}], "txid": "9e24730159c6b98ad9614d4f51c35cbeee10b5986b0f91fb3e4a410dcb00608b", "blocktime": 1537871767, "version": 1, "confirmations": 11495, "time": 1537871767, "locktime": 0, "vsize": 371, "size": 371}