{"hash": "9e2cebdef0591ba0cbe0485cf8323730e5c1cbd3af19d5612b38976d6f63f020", "blockhash": "0000000000000000000baef3f32e3676a92c3b2e5da21b426e4f302fc371ce76", "vout": [{"scriptPubKey": {"reqSigs": 1, "hex": "76a9144b916611f2dc1e4d8d217748afc9f46778f8452188ac", "addresses": ["17tZrsH73Pdd1RrRnbFVZ5T4RSiwrrpR8A"], "asm": "OP_DUP OP_HASH160 4b916611f2dc1e4d8d217748afc9f46778f84521 OP_EQUALVERIFY OP_CHECKSIG", "type": "pubkeyhash"}, "value": 0.06998, "n": 0}, {"scriptPubKey": {"reqSigs": 1, "hex": "76a9140cb6c275be7f179883bb821ef1dfd6b520fc656988ac", "addresses": ["12AE3fQj1CsSGL9c3aZpkSDz991KUxntvB"], "asm": "OP_DUP OP_HASH160 0cb6c275be7f179883bb821ef1dfd6b520fc6569 OP_EQUALVERIFY OP_CHECKSIG", "type": "pubkeyhash"}, "value": 0.00132274, "n": 1}], "hex": "0100000004d032e1e8036ea3ceddce4a4d157bb530fe19f6ad81cde3f064d2d18a06da6bfe400000008b483045022100d8e89e6683639f7baf5fef5789c7ccaecba23a242a845331be680be63164be6202205c2e0daa4b687b3d8f02ab9667fcb2fbd41296ec273f8440b81e954c082f5dae0141045b32904a9257a0e686d99affab1c4e724c2e09a21f86a54ada773dad5ba34f4a47c27fa8692e2b4d30318eb9539ee35359b2dfe7017dfd8c2b8bb5cf1cdc5465ffffffff7cb217c6c365006d74932651ebe727e725a82e0079a821fe3a67032f72bfaf9d3e0000008a47304402202b8a328babe6e6cc27f5280de166b139cdea9904f0aa9bcf33e2e11d6c8cad710220494f9289475a18bc8eb03c8cb715a267f56f5bace0acde85fc5c6a498c70723d01410472ac3e13daf77eeda055ba9cf6a6c0f40f1ba40166a97aa653939c2aa5012b131a73e170a6aa7db8db141e572294bbedb65942364cdb9ca8d9ee3eba5fb35aa4ffffffff7cb217c6c365006d74932651ebe727e725a82e0079a821fe3a67032f72bfaf9d0d0000008b48304502210089ca1caa7564a902ee7fddc439cf47ed14569db315bfddbe3ad54c03b8f7cbfa02206a29e800d80c81812dd198114d97d6159b6dd1f9a9c3cfa540d4f1df8cc81018014104d0ea28fda6d498a5097b29aaa07b930caad9a7dd64b98573c9dddab055a9885f9916f951d44f8b35abb8460413e6df26e061f054ab4526102367f83085045b16ffffffffd14ff638722d4063319a1982f220d6d029b2e7690ef7fdc1f3441ef1ddc69459490000008a4730440220100f582215d3e84c003fc274044a0009ddc029a3705739a25e3e55c93f55129f02203b8e92c522075d72420dfaf77ba2aec72812c64154e595bea89453ac1fa7176d014104e11d536b7f72d13bbe66fbc5c9b4e0ff99c12a6ad511cb5f5a0dac11583b1102d3b2a8c1cd2cad10756b5618acc72e4a849db27b7e4715b368b9c6d76209869dffffffff02f0c76a00000000001976a9144b916611f2dc1e4d8d217748afc9f46778f8452188acb2040200000000001976a9140cb6c275be7f179883bb821ef1dfd6b520fc656988ac00000000", "vin": [{"sequence": 4294967295, "scriptSig": {"hex": "483045022100d8e89e6683639f7baf5fef5789c7ccaecba23a242a845331be680be63164be6202205c2e0daa4b687b3d8f02ab9667fcb2fbd41296ec273f8440b81e954c082f5dae0141045b32904a9257a0e686d99affab1c4e724c2e09a21f86a54ada773dad5ba34f4a47c27fa8692e2b4d30318eb9539ee35359b2dfe7017dfd8c2b8bb5cf1cdc5465", "asm": "3045022100d8e89e6683639f7baf5fef5789c7ccaecba23a242a845331be680be63164be6202205c2e0daa4b687b3d8f02ab9667fcb2fbd41296ec273f8440b81e954c082f5dae[ALL] 045b32904a9257a0e686d99affab1c4e724c2e09a21f86a54ada773dad5ba34f4a47c27fa8692e2b4d30318eb9539ee35359b2dfe7017dfd8c2b8bb5cf1cdc5465"}, "vout": 64, "txid": "fe6bda068ad1d264f0e3cd81adf619fe30b57b154d4aceddcea36e03e8e132d0"}, {"sequence": 4294967295, "scriptSig": {"hex": "47304402202b8a328babe6e6cc27f5280de166b139cdea9904f0aa9bcf33e2e11d6c8cad710220494f9289475a18bc8eb03c8cb715a267f56f5bace0acde85fc5c6a498c70723d01410472ac3e13daf77eeda055ba9cf6a6c0f40f1ba40166a97aa653939c2aa5012b131a73e170a6aa7db8db141e572294bbedb65942364cdb9ca8d9ee3eba5fb35aa4", "asm": "304402202b8a328babe6e6cc27f5280de166b139cdea9904f0aa9bcf33e2e11d6c8cad710220494f9289475a18bc8eb03c8cb715a267f56f5bace0acde85fc5c6a498c70723d[ALL] 0472ac3e13daf77eeda055ba9cf6a6c0f40f1ba40166a97aa653939c2aa5012b131a73e170a6aa7db8db141e572294bbedb65942364cdb9ca8d9ee3eba5fb35aa4"}, "vout": 62, "txid": "9dafbf722f03673afe21a879002ea825e727e7eb512693746d0065c3c617b27c"}, {"sequence": 4294967295, "scriptSig": {"hex": "48304502210089ca1caa7564a902ee7fddc439cf47ed14569db315bfddbe3ad54c03b8f7cbfa02206a29e800d80c81812dd198114d97d6159b6dd1f9a9c3cfa540d4f1df8cc81018014104d0ea28fda6d498a5097b29aaa07b930caad9a7dd64b98573c9dddab055a9885f9916f951d44f8b35abb8460413e6df26e061f054ab4526102367f83085045b16", "asm": "304502210089ca1caa7564a902ee7fddc439cf47ed14569db315bfddbe3ad54c03b8f7cbfa02206a29e800d80c81812dd198114d97d6159b6dd1f9a9c3cfa540d4f1df8cc81018[ALL] 04d0ea28fda6d498a5097b29aaa07b930caad9a7dd64b98573c9dddab055a9885f9916f951d44f8b35abb8460413e6df26e061f054ab4526102367f83085045b16"}, "vout": 13, "txid": "9dafbf722f03673afe21a879002ea825e727e7eb512693746d0065c3c617b27c"}, {"sequence": 4294967295, "scriptSig": {"hex": "4730440220100f582215d3e84c003fc274044a0009ddc029a3705739a25e3e55c93f55129f02203b8e92c522075d72420dfaf77ba2aec72812c64154e595bea89453ac1fa7176d014104e11d536b7f72d13bbe66fbc5c9b4e0ff99c12a6ad511cb5f5a0dac11583b1102d3b2a8c1cd2cad10756b5618acc72e4a849db27b7e4715b368b9c6d76209869d", "asm": "30440220100f582215d3e84c003fc274044a0009ddc029a3705739a25e3e55c93f55129f02203b8e92c522075d72420dfaf77ba2aec72812c64154e595bea89453ac1fa7176d[ALL] 04e11d536b7f72d13bbe66fbc5c9b4e0ff99c12a6ad511cb5f5a0dac11583b1102d3b2a8c1cd2cad10756b5618acc72e4a849db27b7e4715b368b9c6d76209869d"}, "vout": 73, "txid": "5994c6ddf11e44f3c1fdf70e69e7b229d0d620f282199a3163402d7238f64fd1"}], "txid": "9e2cebdef0591ba0cbe0485cf8323730e5c1cbd3af19d5612b38976d6f63f020", "blocktime": 1537876114, "version": 1, "confirmations": 11459, "time": 1537876114, "locktime": 0, "vsize": 796, "size": 796}