{"hash": "9e2db6e7ee2f8c6adeb7a8f4251ffc2342416f44b83c91e25c9271efc74ff868", "blockhash": "0000000000000000001cda96e906b7601b7a6fb1a3b62bca570a9e5d8f4b3de1", "vout": [{"scriptPubKey": {"reqSigs": 1, "hex": "76a9146434e345602a447a84f23f3ac00034712966971a88ac", "addresses": ["1A8qvtdkDS54vN7mZaSDaUZBznhwck3jF7"], "asm": "OP_DUP OP_HASH160 6434e345602a447a84f23f3ac00034712966971a OP_EQUALVERIFY OP_CHECKSIG", "type": "pubkeyhash"}, "value": 0.00693248, "n": 0}, {"scriptPubKey": {"reqSigs": 1, "hex": "76a914ab397b38d852b439396e4dabea53de1c87ee114e88ac", "addresses": ["1GcMQgDvEL49ZY5emK4hnUGWbjP59CNcLY"], "asm": "OP_DUP OP_HASH160 ab397b38d852b439396e4dabea53de1c87ee114e OP_EQUALVERIFY OP_CHECKSIG", "type": "pubkeyhash"}, "value": 0.10117224, "n": 1}], "hex": "0100000001d8f6ecdf4962cd528a3a1ec509ef993ec0702155148b83a3c6639601e517a850010000006a47304402200578f5d29046739f8a1064b8034d7477e06c8ae82d18f76b19cea79f2aa8bd7c02200b60a1a06127bdbca4ec97fd919a63879279e2b39e86df53319cdd01ccdd49570121029799c90a7eedd63f4d2ceadbe1477e6e84e8c497464df94c81d1e4af09837effffffffff0200940a00000000001976a9146434e345602a447a84f23f3ac00034712966971a88ac68609a00000000001976a914ab397b38d852b439396e4dabea53de1c87ee114e88ac00000000", "vin": [{"sequence": 4294967295, "scriptSig": {"hex": "47304402200578f5d29046739f8a1064b8034d7477e06c8ae82d18f76b19cea79f2aa8bd7c02200b60a1a06127bdbca4ec97fd919a63879279e2b39e86df53319cdd01ccdd49570121029799c90a7eedd63f4d2ceadbe1477e6e84e8c497464df94c81d1e4af09837eff", "asm": "304402200578f5d29046739f8a1064b8034d7477e06c8ae82d18f76b19cea79f2aa8bd7c02200b60a1a06127bdbca4ec97fd919a63879279e2b39e86df53319cdd01ccdd4957[ALL] 029799c90a7eedd63f4d2ceadbe1477e6e84e8c497464df94c81d1e4af09837eff"}, "vout": 1, "txid": "50a817e5019663c6a3838b14552170c03e99ef09c51e3a8a52cd6249dfecf6d8"}], "txid": "9e2db6e7ee2f8c6adeb7a8f4251ffc2342416f44b83c91e25c9271efc74ff868", "blocktime": 1537873282, "version": 1, "confirmations": 11482, "time": 1537873282, "locktime": 0, "vsize": 225, "size": 225}