{"hash": "9e2ddcdbc256255473063fca371ac17ff808edfcc82aae5ba580de84d37636a7", "blockhash": "0000000000000000000e13cef7c366c0283d82e591d1acd082e914b08063cdf1", "vout": [{"scriptPubKey": {"reqSigs": 1, "hex": "a91479e41a377100fc927e6a98bc634df1c4ae16680287", "addresses": ["3CoWwb5iBkFXCSk24iQP7QimwWfjnrhTk3"], "asm": "OP_HASH160 79e41a377100fc927e6a98bc634df1c4ae166802 OP_EQUAL", "type": "scripthash"}, "value": 0.019724, "n": 0}, {"scriptPubKey": {"reqSigs": 1, "hex": "76a914bae025140c454518b8cba0c25d45a6dc87f4b9ce88ac", "addresses": ["1J37CY8hcdUXQ1KfBhMCsUVafa8XjDsdCn"], "asm": "OP_DUP OP_HASH160 bae025140c454518b8cba0c25d45a6dc87f4b9ce OP_EQUALVERIFY OP_CHECKSIG", "type": "pubkeyhash"}, "value": 0.06862874, "n": 1}], "hex": "010000000aa8bb4386868a1ce5cb5f954b8bd53f1b8e04d185401d9454f3010b61e8f47376080000006a473044022012aff987c0d9863fea12b3e62c47d674e2ecc196321134fceb5aa005c892ae3f02204ebd10186c81b1c5a32cd0d0bb7e1307942528149facb611a3c4ccf9159fbe290121037220f5c09c88b1943fcf8f5c32a2e04a23978b49962747946fc80f061ebe88a5ffffffff0b9f7ac715fca3c6b20ac3c183e7c4cb011856784ce90dcf6420927412dd0a12010000008a47304402206212013d2c4a09a3fd1e27538b46fbb7e086eab1591472b372a82a3044698ef1022041a2655a6404140303d0dc50ee18f6f08dd4ce9760a5bbaf06813dc55054a399014104025a1cffe502a80dfa1f543ae14c082aff24d5ecadab160ca904d288eed8e3d8cacef0985f690868df4f416c3890909b4c0c843da153d41382ac20c80170240affffffff30004eb46a7e47a5811e5cff1589deece22825a21a70f58a83e222b41338dbe7000000006a47304402203c357ac985dfd203625b73db0f7532ffe2171750a0e19cce890382898c657a3102204c12d2293f1c3390fae53286ca7e583b15622ade00622b827a7945de4678f5b10121032cbf4074788a40e784bde80a15c09d0f390b6a2cbb6e88ccbff669ee90e3bea3ffffffff682465f846cc4cb5fbf0b386935e88f9520059a85876817cda479439c7d4de7e000000006b483045022100bd83264338a853b303dfe65c6157c8882d6515f98c808b8920cdb93d1dcda3c3022079f55caa5e20293f74feaf9d072bec444509398ed9bb19c2a0ac727109efcaf60121032cbf4074788a40e784bde80a15c09d0f390b6a2cbb6e88ccbff669ee90e3bea3ffffffff3f234e9376e2e6e7c68f6e638c376288e49bcd685dc15162f29c0b81d2796291010000006a473044022054efe9f8ba76ba97cd7dac3c51a2075cd98171082f5d98d4875487a3542cd101022047f04ccffa05890942eb86344f98d35d70f90f240341ab5e92c2cb33ae66c1b301210236d0b89f8db4df2c738ddd62b8b55c5601abb0b32a1f90501276fd436e167cd1ffffffffea0791668b19bcbd00b07e9cb9b1e95eb766a2aa8028edfdcce21869972133be010000008a473044022047cbbedc053a0ab04f20b0d55649a7845273c7571e456d9f94fad9c38361cee70220542f1ac6ceede778c246dd6faab1e1f8719553cf7e6e2a73b3cacf1a98d7f21d014104025a1cffe502a80dfa1f543ae14c082aff24d5ecadab160ca904d288eed8e3d8cacef0985f690868df4f416c3890909b4c0c843da153d41382ac20c80170240affffffffea7b36b5474037407ced5093be6117f33d9ef69419501a8b05990464b12bfa97010000008b483045022100b04c1070122fa3208525e216fc2843590a952510f9afd92af1a2490f9193c0600220188fb68f8941e301b6ae4e7582ee247e23f90488f4471b899b5ec44ec8d1c235014104025a1cffe502a80dfa1f543ae14c082aff24d5ecadab160ca904d288eed8e3d8cacef0985f690868df4f416c3890909b4c0c843da153d41382ac20c80170240affffffff272afbf55100220ed91a9a75317c7246efcec86166b5ea1ad7724f0937fd66e3010000008b483045022100a06739b19afefc8059389826aa3c4380258b7422ff4f0ebf51591b015cbc3ec202204b66a84cc82939a20a5b7bca31c99b0de16c7036aa6ecc55437bb99671d24d31014104025a1cffe502a80dfa1f543ae14c082aff24d5ecadab160ca904d288eed8e3d8cacef0985f690868df4f416c3890909b4c0c843da153d41382ac20c80170240affffffff50dd9d47e13034780663bfb14bbaf29a23629406bdcf462dd130e0729e48c010010000008b483045022100c9c15b49f9be4e9d3ac349585d2aa0226dde932b07e96efdd0896c51141fe3030220088b1978deb39c8089c64e8575c4ab6092d2194fea146d08118f6dac68830d19014104025a1cffe502a80dfa1f543ae14c082aff24d5ecadab160ca904d288eed8e3d8cacef0985f690868df4f416c3890909b4c0c843da153d41382ac20c80170240affffffff1fcaf7fcc010abf2c6e97f34fedef81fab691cbd3f9305aa685622b71e7602ad010000008a47304402201f1f75ce493a530d9a8d32e5da545aaf6468a9421d2ef33ff4c88c76d50caf0202203070a32fe1336bd82f184070e62844ee8228b4ef56bd355cacf4cd7d19b483f3014104025a1cffe502a80dfa1f543ae14c082aff24d5ecadab160ca904d288eed8e3d8cacef0985f690868df4f416c3890909b4c0c843da153d41382ac20c80170240affffffff02b0181e000000000017a91479e41a377100fc927e6a98bc634df1c4ae166802871ab86800000000001976a914bae025140c454518b8cba0c25d45a6dc87f4b9ce88ac00000000", "vin": [{"sequence": 4294967295, "scriptSig": {"hex": "473044022012aff987c0d9863fea12b3e62c47d674e2ecc196321134fceb5aa005c892ae3f02204ebd10186c81b1c5a32cd0d0bb7e1307942528149facb611a3c4ccf9159fbe290121037220f5c09c88b1943fcf8f5c32a2e04a23978b49962747946fc80f061ebe88a5", "asm": "3044022012aff987c0d9863fea12b3e62c47d674e2ecc196321134fceb5aa005c892ae3f02204ebd10186c81b1c5a32cd0d0bb7e1307942528149facb611a3c4ccf9159fbe29[ALL] 037220f5c09c88b1943fcf8f5c32a2e04a23978b49962747946fc80f061ebe88a5"}, "vout": 8, "txid": "7673f4e8610b01f354941d4085d1048e1b3fd58b4b955fcbe51c8a868643bba8"}, {"sequence": 4294967295, "scriptSig": {"hex": "47304402206212013d2c4a09a3fd1e27538b46fbb7e086eab1591472b372a82a3044698ef1022041a2655a6404140303d0dc50ee18f6f08dd4ce9760a5bbaf06813dc55054a399014104025a1cffe502a80dfa1f543ae14c082aff24d5ecadab160ca904d288eed8e3d8cacef0985f690868df4f416c3890909b4c0c843da153d41382ac20c80170240a", "asm": "304402206212013d2c4a09a3fd1e27538b46fbb7e086eab1591472b372a82a3044698ef1022041a2655a6404140303d0dc50ee18f6f08dd4ce9760a5bbaf06813dc55054a399[ALL] 04025a1cffe502a80dfa1f543ae14c082aff24d5ecadab160ca904d288eed8e3d8cacef0985f690868df4f416c3890909b4c0c843da153d41382ac20c80170240a"}, "vout": 1, "txid": "120add1274922064cf0de94c78561801cbc4e783c1c30ab2c6a3fc15c77a9f0b"}, {"sequence": 4294967295, "scriptSig": {"hex": "47304402203c357ac985dfd203625b73db0f7532ffe2171750a0e19cce890382898c657a3102204c12d2293f1c3390fae53286ca7e583b15622ade00622b827a7945de4678f5b10121032cbf4074788a40e784bde80a15c09d0f390b6a2cbb6e88ccbff669ee90e3bea3", "asm": "304402203c357ac985dfd203625b73db0f7532ffe2171750a0e19cce890382898c657a3102204c12d2293f1c3390fae53286ca7e583b15622ade00622b827a7945de4678f5b1[ALL] 032cbf4074788a40e784bde80a15c09d0f390b6a2cbb6e88ccbff669ee90e3bea3"}, "vout": 0, "txid": "e7db3813b422e2838af5701aa22528e2ecde8915ff5c1e81a5477e6ab44e0030"}, {"sequence": 4294967295, "scriptSig": {"hex": "483045022100bd83264338a853b303dfe65c6157c8882d6515f98c808b8920cdb93d1dcda3c3022079f55caa5e20293f74feaf9d072bec444509398ed9bb19c2a0ac727109efcaf60121032cbf4074788a40e784bde80a15c09d0f390b6a2cbb6e88ccbff669ee90e3bea3", "asm": "3045022100bd83264338a853b303dfe65c6157c8882d6515f98c808b8920cdb93d1dcda3c3022079f55caa5e20293f74feaf9d072bec444509398ed9bb19c2a0ac727109efcaf6[ALL] 032cbf4074788a40e784bde80a15c09d0f390b6a2cbb6e88ccbff669ee90e3bea3"}, "vout": 0, "txid": "7eded4c7399447da7c817658a8590052f9885e9386b3f0fbb54ccc46f8652468"}, {"sequence": 4294967295, "scriptSig": {"hex": "473044022054efe9f8ba76ba97cd7dac3c51a2075cd98171082f5d98d4875487a3542cd101022047f04ccffa05890942eb86344f98d35d70f90f240341ab5e92c2cb33ae66c1b301210236d0b89f8db4df2c738ddd62b8b55c5601abb0b32a1f90501276fd436e167cd1", "asm": "3044022054efe9f8ba76ba97cd7dac3c51a2075cd98171082f5d98d4875487a3542cd101022047f04ccffa05890942eb86344f98d35d70f90f240341ab5e92c2cb33ae66c1b3[ALL] 0236d0b89f8db4df2c738ddd62b8b55c5601abb0b32a1f90501276fd436e167cd1"}, "vout": 1, "txid": "916279d2810b9cf26251c15d68cd9be48862378c636e8fc6e7e6e276934e233f"}, {"sequence": 4294967295, "scriptSig": {"hex": "473044022047cbbedc053a0ab04f20b0d55649a7845273c7571e456d9f94fad9c38361cee70220542f1ac6ceede778c246dd6faab1e1f8719553cf7e6e2a73b3cacf1a98d7f21d014104025a1cffe502a80dfa1f543ae14c082aff24d5ecadab160ca904d288eed8e3d8cacef0985f690868df4f416c3890909b4c0c843da153d41382ac20c80170240a", "asm": "3044022047cbbedc053a0ab04f20b0d55649a7845273c7571e456d9f94fad9c38361cee70220542f1ac6ceede778c246dd6faab1e1f8719553cf7e6e2a73b3cacf1a98d7f21d[ALL] 04025a1cffe502a80dfa1f543ae14c082aff24d5ecadab160ca904d288eed8e3d8cacef0985f690868df4f416c3890909b4c0c843da153d41382ac20c80170240a"}, "vout": 1, "txid": "be3321976918e2ccfded2880aaa266b75ee9b1b99c7eb000bdbc198b669107ea"}, {"sequence": 4294967295, "scriptSig": {"hex": "483045022100b04c1070122fa3208525e216fc2843590a952510f9afd92af1a2490f9193c0600220188fb68f8941e301b6ae4e7582ee247e23f90488f4471b899b5ec44ec8d1c235014104025a1cffe502a80dfa1f543ae14c082aff24d5ecadab160ca904d288eed8e3d8cacef0985f690868df4f416c3890909b4c0c843da153d41382ac20c80170240a", "asm": "3045022100b04c1070122fa3208525e216fc2843590a952510f9afd92af1a2490f9193c0600220188fb68f8941e301b6ae4e7582ee247e23f90488f4471b899b5ec44ec8d1c235[ALL] 04025a1cffe502a80dfa1f543ae14c082aff24d5ecadab160ca904d288eed8e3d8cacef0985f690868df4f416c3890909b4c0c843da153d41382ac20c80170240a"}, "vout": 1, "txid": "97fa2bb1640499058b1a501994f69e3df31761be9350ed7c40374047b5367bea"}, {"sequence": 4294967295, "scriptSig": {"hex": "483045022100a06739b19afefc8059389826aa3c4380258b7422ff4f0ebf51591b015cbc3ec202204b66a84cc82939a20a5b7bca31c99b0de16c7036aa6ecc55437bb99671d24d31014104025a1cffe502a80dfa1f543ae14c082aff24d5ecadab160ca904d288eed8e3d8cacef0985f690868df4f416c3890909b4c0c843da153d41382ac20c80170240a", "asm": "3045022100a06739b19afefc8059389826aa3c4380258b7422ff4f0ebf51591b015cbc3ec202204b66a84cc82939a20a5b7bca31c99b0de16c7036aa6ecc55437bb99671d24d31[ALL] 04025a1cffe502a80dfa1f543ae14c082aff24d5ecadab160ca904d288eed8e3d8cacef0985f690868df4f416c3890909b4c0c843da153d41382ac20c80170240a"}, "vout": 1, "txid": "e366fd37094f72d71aeab56661c8ceef46727c31759a1ad90e220051f5fb2a27"}, {"sequence": 4294967295, "scriptSig": {"hex": "483045022100c9c15b49f9be4e9d3ac349585d2aa0226dde932b07e96efdd0896c51141fe3030220088b1978deb39c8089c64e8575c4ab6092d2194fea146d08118f6dac68830d19014104025a1cffe502a80dfa1f543ae14c082aff24d5ecadab160ca904d288eed8e3d8cacef0985f690868df4f416c3890909b4c0c843da153d41382ac20c80170240a", "asm": "3045022100c9c15b49f9be4e9d3ac349585d2aa0226dde932b07e96efdd0896c51141fe3030220088b1978deb39c8089c64e8575c4ab6092d2194fea146d08118f6dac68830d19[ALL] 04025a1cffe502a80dfa1f543ae14c082aff24d5ecadab160ca904d288eed8e3d8cacef0985f690868df4f416c3890909b4c0c843da153d41382ac20c80170240a"}, "vout": 1, "txid": "10c0489e72e030d12d46cfbd069462239af2ba4bb1bf6306783430e1479ddd50"}, {"sequence": 4294967295, "scriptSig": {"hex": "47304402201f1f75ce493a530d9a8d32e5da545aaf6468a9421d2ef33ff4c88c76d50caf0202203070a32fe1336bd82f184070e62844ee8228b4ef56bd355cacf4cd7d19b483f3014104025a1cffe502a80dfa1f543ae14c082aff24d5ecadab160ca904d288eed8e3d8cacef0985f690868df4f416c3890909b4c0c843da153d41382ac20c80170240a", "asm": "304402201f1f75ce493a530d9a8d32e5da545aaf6468a9421d2ef33ff4c88c76d50caf0202203070a32fe1336bd82f184070e62844ee8228b4ef56bd355cacf4cd7d19b483f3[ALL] 04025a1cffe502a80dfa1f543ae14c082aff24d5ecadab160ca904d288eed8e3d8cacef0985f690868df4f416c3890909b4c0c843da153d41382ac20c80170240a"}, "vout": 1, "txid": "ad02761eb7225668aa05933fbd1c69ab1ff8defe347fe9c6f2ab10c0fcf7ca1f"}], "txid": "9e2ddcdbc256255473063fca371ac17ff808edfcc82aae5ba580de84d37636a7", "blocktime": 1537871767, "version": 1, "confirmations": 11491, "time": 1537871767, "locktime": 0, "vsize": 1742, "size": 1742}