{"hash": "9e33618dde4c2a9091fc45a6e6ff8cb1f7a1228f14a8e13345dd0ae537d135a0", "blockhash": "0000000000000000000e13cef7c366c0283d82e591d1acd082e914b08063cdf1", "vout": [{"scriptPubKey": {"reqSigs": 1, "hex": "76a914a6d9b694693f5b4dfabfdc5ee12f0edf4d04698588ac", "addresses": ["1GDDyphJBhk8iVcqqEDg1buTBFMwrDa7ZW"], "asm": "OP_DUP OP_HASH160 a6d9b694693f5b4dfabfdc5ee12f0edf4d046985 OP_EQUALVERIFY OP_CHECKSIG", "type": "pubkeyhash"}, "value": 0.00020829, "n": 0}, {"scriptPubKey": {"reqSigs": 1, "hex": "a914ce13b725ca39777ba22a440b190669cfc4adf0c687", "addresses": ["3LUejus3GUfU4wRj6XfrqfKniP9VwLrmM6"], "asm": "OP_HASH160 ce13b725ca39777ba22a440b190669cfc4adf0c6 OP_EQUAL", "type": "scripthash"}, "value": 0.0061, "n": 1}], "hex": "0100000003d0811fe53fbad226c89d7670b05e191e93742a516b4aff7398bd3e74cbd2145b070000006b483045022100bb026fb8eb411c59b0fcc38f4521fd4f1528a82a42a47e916bd530a6f0c09ce20220462639149d30982bb97c5b39eb2317e9615a73cad78c261c605089bd714418590121027828d933795db8b1280f8efebdf5ecd0579d263a4e53a8f4a37a84f03bc41dd0fffffffff72db536aad1250309d5bc9cdbf0b9ce160683c15e586760ef51e5550a942796050000006b483045022100f7fb958379f70d5378e9f0b62744e1099c44238ffc1641baaae8f71feff656650220341604a08186dce15984f9a90cdcb6d6488defb7c27a8eb2d71db21a3297eb370121027828d933795db8b1280f8efebdf5ecd0579d263a4e53a8f4a37a84f03bc41dd0fffffffff1ca12542fdaadf13746806aff1f4bef7b80d241e6543db1d183ebfd264203fa0a0000006a4730440220047dc571a51fcfbfbdddb6e93edb763bbedfaa65290e0265a4f555af17e4945802205ebb5799e215522533703df710969435d435c7d3220f82b99d5c0cf1fa974d940121027828d933795db8b1280f8efebdf5ecd0579d263a4e53a8f4a37a84f03bc41dd0ffffffff025d510000000000001976a914a6d9b694693f5b4dfabfdc5ee12f0edf4d04698588acd04e09000000000017a914ce13b725ca39777ba22a440b190669cfc4adf0c68700000000", "vin": [{"sequence": 4294967295, "scriptSig": {"hex": "483045022100bb026fb8eb411c59b0fcc38f4521fd4f1528a82a42a47e916bd530a6f0c09ce20220462639149d30982bb97c5b39eb2317e9615a73cad78c261c605089bd714418590121027828d933795db8b1280f8efebdf5ecd0579d263a4e53a8f4a37a84f03bc41dd0", "asm": "3045022100bb026fb8eb411c59b0fcc38f4521fd4f1528a82a42a47e916bd530a6f0c09ce20220462639149d30982bb97c5b39eb2317e9615a73cad78c261c605089bd71441859[ALL] 027828d933795db8b1280f8efebdf5ecd0579d263a4e53a8f4a37a84f03bc41dd0"}, "vout": 7, "txid": "5b14d2cb743ebd9873ff4a6b512a74931e195eb070769dc826d2ba3fe51f81d0"}, {"sequence": 4294967295, "scriptSig": {"hex": "483045022100f7fb958379f70d5378e9f0b62744e1099c44238ffc1641baaae8f71feff656650220341604a08186dce15984f9a90cdcb6d6488defb7c27a8eb2d71db21a3297eb370121027828d933795db8b1280f8efebdf5ecd0579d263a4e53a8f4a37a84f03bc41dd0", "asm": "3045022100f7fb958379f70d5378e9f0b62744e1099c44238ffc1641baaae8f71feff656650220341604a08186dce15984f9a90cdcb6d6488defb7c27a8eb2d71db21a3297eb37[ALL] 027828d933795db8b1280f8efebdf5ecd0579d263a4e53a8f4a37a84f03bc41dd0"}, "vout": 5, "txid": "9627940a55e551ef6067585ec1830616ceb9f0db9cbcd5090325d1aa36b52df7"}, {"sequence": 4294967295, "scriptSig": {"hex": "4730440220047dc571a51fcfbfbdddb6e93edb763bbedfaa65290e0265a4f555af17e4945802205ebb5799e215522533703df710969435d435c7d3220f82b99d5c0cf1fa974d940121027828d933795db8b1280f8efebdf5ecd0579d263a4e53a8f4a37a84f03bc41dd0", "asm": "30440220047dc571a51fcfbfbdddb6e93edb763bbedfaa65290e0265a4f555af17e4945802205ebb5799e215522533703df710969435d435c7d3220f82b99d5c0cf1fa974d94[ALL] 027828d933795db8b1280f8efebdf5ecd0579d263a4e53a8f4a37a84f03bc41dd0"}, "vout": 10, "txid": "fa034226fdeb83d1b13d54e641d2807bef4b1fff6a804637f1adda2f5412caf1"}], "txid": "9e33618dde4c2a9091fc45a6e6ff8cb1f7a1228f14a8e13345dd0ae537d135a0", "blocktime": 1537871767, "version": 1, "confirmations": 11492, "time": 1537871767, "locktime": 0, "vsize": 519, "size": 519}