{"hash": "9e380039aad10b20a311f01062a83e5fcbb99296b3adc66ce8c4c59f580f1600", "blockhash": "00000000000000000024a2167bbff67b0be802c0b01cdd79e6331c2be6459f87", "vout": [{"scriptPubKey": {"reqSigs": 1, "hex": "a9145332b625a5f8a0eedcfcbda65c8c760c093a37d587", "addresses": ["39GvkxpoHb5vyCxwvCEeuCvK7vApSbWSqT"], "asm": "OP_HASH160 5332b625a5f8a0eedcfcbda65c8c760c093a37d5 OP_EQUAL", "type": "scripthash"}, "value": 0.03535032, "n": 0}], "hex": "0100000001d7513696938cf9c201e878ef38510e57ad36ecc8b6a997b82c955d8b745f3f1a000000006b4830450221008d809625a7f954efa6bdfd0b619906c1352f034749de61a71b27a52b4044c89a02205084306854582ec07968aa8dd40b304e75f02db6a32d8f8f32ccf59b1ffa151901210367d5aed93ec24f75eb1a04ca0fb1d4ed1cf1e9b17c000fc748991fa7407fb866fdffffff01b8f035000000000017a9145332b625a5f8a0eedcfcbda65c8c760c093a37d5870d490800", "vin": [{"sequence": 4294967293, "scriptSig": {"hex": "4830450221008d809625a7f954efa6bdfd0b619906c1352f034749de61a71b27a52b4044c89a02205084306854582ec07968aa8dd40b304e75f02db6a32d8f8f32ccf59b1ffa151901210367d5aed93ec24f75eb1a04ca0fb1d4ed1cf1e9b17c000fc748991fa7407fb866", "asm": "30450221008d809625a7f954efa6bdfd0b619906c1352f034749de61a71b27a52b4044c89a02205084306854582ec07968aa8dd40b304e75f02db6a32d8f8f32ccf59b1ffa1519[ALL] 0367d5aed93ec24f75eb1a04ca0fb1d4ed1cf1e9b17c000fc748991fa7407fb866"}, "vout": 0, "txid": "1a3f5f748b5d952cb897a9b6c8ec36ad570e5138ef78e801c2f98c93963651d7"}], "txid": "9e380039aad10b20a311f01062a83e5fcbb99296b3adc66ce8c4c59f580f1600", "blocktime": 1537870564, "version": 1, "confirmations": 11515, "time": 1537870564, "locktime": 542989, "vsize": 190, "size": 190}