{"hash": "9e414ebbfaa46f1b382f6d11ef6cb588d62c3b527bec39d075de7c89852bbc31", "blockhash": "0000000000000000001e0dab787dd257d1dbfcb92a98c2207d5e1078be1f4165", "vout": [{"scriptPubKey": {"reqSigs": 1, "hex": "76a91468c9e40befdc20ec7e1c94f69a9bab25bc4faa5b88ac", "addresses": ["1AZ58a31u7W64jwSxgu2m4Z7yCeUXxmRHa"], "asm": "OP_DUP OP_HASH160 68c9e40befdc20ec7e1c94f69a9bab25bc4faa5b OP_EQUALVERIFY OP_CHECKSIG", "type": "pubkeyhash"}, "value": 0.00022748, "n": 0}, {"scriptPubKey": {"reqSigs": 1, "hex": "a9149038b950ae2a62214975a3d93e4e92fcd3d9b32d87", "addresses": ["3EqbBQrdPP2aBYfWwHxmRMbWcrnCpHXBn1"], "asm": "OP_HASH160 9038b950ae2a62214975a3d93e4e92fcd3d9b32d OP_EQUAL", "type": "scripthash"}, "value": 0.00469, "n": 1}], "hex": "0100000002aab3469506d70faeabf99ecfa502aeff43875a9b10daba179a40bff90523eb51010000006a473044022059dae0b0ff12e3d5f236d8b5429ece22b9973f11ae55d688686b213ea05b6bac02200e7ff35860f9e30c5253598a8864dcb60be01a4addb98099251af440eb799df101210311d6f3eb52037d2815349bae3cfa78bd9cc3847bee37b3d0e174cd15fcfb1765ffffffffcb7467fd624e01a397cbf2e3a220c190fd6228665cd2f137a07ecfea28145a57000000006a473044022061479c71ba80a162fbcd7ce6cf061c322d0c5bb806422f2b7c3308f33e27a18302206961c106b40ff54e8149e1cf2a5b5b6e60f076952a8ea603cbd576cd66dc304f012102eacd968ede1c61d5b61031b77ef65e9e7ba18f879efe62b7bec0b63f78d88139ffffffff02dc580000000000001976a91468c9e40befdc20ec7e1c94f69a9bab25bc4faa5b88ac082807000000000017a9149038b950ae2a62214975a3d93e4e92fcd3d9b32d8700000000", "vin": [{"sequence": 4294967295, "scriptSig": {"hex": "473044022059dae0b0ff12e3d5f236d8b5429ece22b9973f11ae55d688686b213ea05b6bac02200e7ff35860f9e30c5253598a8864dcb60be01a4addb98099251af440eb799df101210311d6f3eb52037d2815349bae3cfa78bd9cc3847bee37b3d0e174cd15fcfb1765", "asm": "3044022059dae0b0ff12e3d5f236d8b5429ece22b9973f11ae55d688686b213ea05b6bac02200e7ff35860f9e30c5253598a8864dcb60be01a4addb98099251af440eb799df1[ALL] 0311d6f3eb52037d2815349bae3cfa78bd9cc3847bee37b3d0e174cd15fcfb1765"}, "vout": 1, "txid": "51eb2305f9bf409a17bada109b5a8743ffae02a5cf9ef9abae0fd7069546b3aa"}, {"sequence": 4294967295, "scriptSig": {"hex": "473044022061479c71ba80a162fbcd7ce6cf061c322d0c5bb806422f2b7c3308f33e27a18302206961c106b40ff54e8149e1cf2a5b5b6e60f076952a8ea603cbd576cd66dc304f012102eacd968ede1c61d5b61031b77ef65e9e7ba18f879efe62b7bec0b63f78d88139", "asm": "3044022061479c71ba80a162fbcd7ce6cf061c322d0c5bb806422f2b7c3308f33e27a18302206961c106b40ff54e8149e1cf2a5b5b6e60f076952a8ea603cbd576cd66dc304f[ALL] 02eacd968ede1c61d5b61031b77ef65e9e7ba18f879efe62b7bec0b63f78d88139"}, "vout": 0, "txid": "575a1428eacf7ea037f1d25c662862fd90c120a2e3f2cb97a3014e62fd6774cb"}], "txid": "9e414ebbfaa46f1b382f6d11ef6cb588d62c3b527bec39d075de7c89852bbc31", "blocktime": 1537872475, "version": 1, "confirmations": 11487, "time": 1537872475, "locktime": 0, "vsize": 370, "size": 370}