{"hash": "9e458b296b35f5059797c53f287dcc7a99eb32c91bf577e3a5a867f39f016184", "blockhash": "0000000000000000001cda96e906b7601b7a6fb1a3b62bca570a9e5d8f4b3de1", "vout": [{"scriptPubKey": {"reqSigs": 1, "hex": "76a9146e1d3b9eadaf38dbe4f79f39301de8972fca7f7d88ac", "addresses": ["1B3EMEp97PFkffDuoM3wfzm2hVv5cXgJqc"], "asm": "OP_DUP OP_HASH160 6e1d3b9eadaf38dbe4f79f39301de8972fca7f7d OP_EQUALVERIFY OP_CHECKSIG", "type": "pubkeyhash"}, "value": 0.00038221, "n": 0}, {"scriptPubKey": {"reqSigs": 1, "hex": "a9147536919b1993efec336b6b34f5732419f8a2cbcd87", "addresses": ["3CNnMVXmkmfa7mGEHUMQgoqA88go8Yf9kr"], "asm": "OP_HASH160 7536919b1993efec336b6b34f5732419f8a2cbcd OP_EQUAL", "type": "scripthash"}, "value": 0.00081779, "n": 1}], "hex": "0200000001f0ec46a9f63c8aadd27c1d412815199dd0b55b8dbf31b2c7138b97d0b9f9eeb5010000006a47304402206b07b884087dc9791e8f14e6f93893e3d3dc0c0731f89ab8ef95ddef6bbf912f0220681be5476adc705bfd602510b87d68e4dd5c01353a1b5687d3d163ba0252eff6012103d5fbc9c5ddb44c1f79c5be768f9e339494ec0601f3c6fb5dd5fec8b929a5c63dffffffff024d950000000000001976a9146e1d3b9eadaf38dbe4f79f39301de8972fca7f7d88ac733f01000000000017a9147536919b1993efec336b6b34f5732419f8a2cbcd8700000000", "vin": [{"sequence": 4294967295, "scriptSig": {"hex": "47304402206b07b884087dc9791e8f14e6f93893e3d3dc0c0731f89ab8ef95ddef6bbf912f0220681be5476adc705bfd602510b87d68e4dd5c01353a1b5687d3d163ba0252eff6012103d5fbc9c5ddb44c1f79c5be768f9e339494ec0601f3c6fb5dd5fec8b929a5c63d", "asm": "304402206b07b884087dc9791e8f14e6f93893e3d3dc0c0731f89ab8ef95ddef6bbf912f0220681be5476adc705bfd602510b87d68e4dd5c01353a1b5687d3d163ba0252eff6[ALL] 03d5fbc9c5ddb44c1f79c5be768f9e339494ec0601f3c6fb5dd5fec8b929a5c63d"}, "vout": 1, "txid": "b5eef9b9d0978b13c7b231bf8d5bb5d09d191528411d7cd2ad8a3cf6a946ecf0"}], "txid": "9e458b296b35f5059797c53f287dcc7a99eb32c91bf577e3a5a867f39f016184", "blocktime": 1537873282, "version": 2, "confirmations": 11480, "time": 1537873282, "locktime": 0, "vsize": 223, "size": 223}