{"hash": "c158081078cd2957529ae1597d7398ffb214a66afa21c4033dfa69e09b3fa187", "blockhash": "0000000000000000000e13cef7c366c0283d82e591d1acd082e914b08063cdf1", "vout": [{"scriptPubKey": {"reqSigs": 1, "hex": "76a9146c8cf9d8ac9035cc8a28d22688eaa8b561d4937588ac", "addresses": ["1AtxruAAbhehtGLfqrVmbbnbk5z4NgbQQF"], "asm": "OP_DUP OP_HASH160 6c8cf9d8ac9035cc8a28d22688eaa8b561d49375 OP_EQUALVERIFY OP_CHECKSIG", "type": "pubkeyhash"}, "value": 0.00861015, "n": 0}, {"scriptPubKey": {"reqSigs": 1, "hex": "00148f80415fd38efd26e6370854ed508571d3972447", "addresses": ["bc1q37qyzh7n3m7jde3hpp2w65y9w8fewfz8m9pxn6"], "asm": "0 8f80415fd38efd26e6370854ed508571d3972447", "type": "witness_v0_keyhash"}, "value": 0.76916328, "n": 1}], "hex": "0100000000010180dfebb840cd9f2e6000bdde0bfb48acfdb6abb2c973d3de6d76de3a2c4ea53b0000000000ffffffff0257230d00000000001976a9146c8cf9d8ac9035cc8a28d22688eaa8b561d4937588ac68a69504000000001600148f80415fd38efd26e6370854ed508571d3972447024730440220117ec8c671349e28d12f182226c3799b0e9949ecfeba4d924ea538227b29837902207453dd0ac14da5d2d15ef72921c31788686ce72d8237dd70dc91f7a1a831098b012102bee8eb99cd62d390d4e15f943371ff27c1c5c2241c46b26c1f1ac65d10c1181300000000", "vin": [{"txinwitness": ["30440220117ec8c671349e28d12f182226c3799b0e9949ecfeba4d924ea538227b29837902207453dd0ac14da5d2d15ef72921c31788686ce72d8237dd70dc91f7a1a831098b01", "02bee8eb99cd62d390d4e15f943371ff27c1c5c2241c46b26c1f1ac65d10c11813"], "sequence": 4294967295, "scriptSig": {"hex": "", "asm": ""}, "vout": 0, "txid": "3ba54e2c3ade766dded373c9b2abb6fdac48fb0bdebd00602e9fcd40b8ebdf80"}], "txid": "9e50b3836de51233ed0b5afb9e2ab54755b092e27b1c9874e0e366fc86fca726", "blocktime": 1537871767, "version": 1, "confirmations": 11495, "time": 1537871767, "locktime": 0, "vsize": 144, "size": 225}