{"hash": "9e53c2df6b2ba6e2c91e695f4ee34eb2cd83dba69783e9e62a3b1f806d1f678c", "blockhash": "0000000000000000001f76057863aec43deb6fa401d9628bb513d65a8098bfab", "vout": [{"scriptPubKey": {"reqSigs": 1, "hex": "76a9146941e7b0c5366a4e72b8e191b5023e00f79b9b3b88ac", "addresses": ["1AbYuJg6PwQkG6UmzAxwiqhG9ZjRvPRcaX"], "asm": "OP_DUP OP_HASH160 6941e7b0c5366a4e72b8e191b5023e00f79b9b3b OP_EQUALVERIFY OP_CHECKSIG", "type": "pubkeyhash"}, "value": 0.01308, "n": 0}, {"scriptPubKey": {"reqSigs": 1, "hex": "a914e370231feecbfc25e2e2423a5a79bf79bfdca59887", "addresses": ["3NRbeX3vD5VaVE4TDU9ivCDsEf7NPPte6J"], "asm": "OP_HASH160 e370231feecbfc25e2e2423a5a79bf79bfdca598 OP_EQUAL", "type": "scripthash"}, "value": 10.27957646, "n": 1}], "hex": "010000000194f78396682385aa6cedd7850e68b5010de3a2b087281df0e393835dcbdb8d8901000000da00483045022100a933e6e128e1b55bf519a0e4aea6e8bc03bcc3b1e07906137a800933c163e1b702204cdd3b2fb24dbe8cb199114ab9d54ffef7cb5b50e29a5ad8052ca8a3c3382bfe014730440220723dc3ad33081ddf8c601e99aba40516f87c777f519aeea0eb17e8cccfa32902022030c6a69e34d383124c780bf3471cbee8e747579b445578be35e1384300f06d89014752210327881b6abce6535553a3ce21fad12a7d74fd237ce7c4cd270a267162344e3082210256141f8eb687f5a68c5cc65054652dc25116fa285e44d72b44368827ffe77d9a52aeffffffff0260f51300000000001976a9146941e7b0c5366a4e72b8e191b5023e00f79b9b3b88ac8e63453d0000000017a914e370231feecbfc25e2e2423a5a79bf79bfdca5988700000000", "vin": [{"sequence": 4294967295, "scriptSig": {"hex": "00483045022100a933e6e128e1b55bf519a0e4aea6e8bc03bcc3b1e07906137a800933c163e1b702204cdd3b2fb24dbe8cb199114ab9d54ffef7cb5b50e29a5ad8052ca8a3c3382bfe014730440220723dc3ad33081ddf8c601e99aba40516f87c777f519aeea0eb17e8cccfa32902022030c6a69e34d383124c780bf3471cbee8e747579b445578be35e1384300f06d89014752210327881b6abce6535553a3ce21fad12a7d74fd237ce7c4cd270a267162344e3082210256141f8eb687f5a68c5cc65054652dc25116fa285e44d72b44368827ffe77d9a52ae", "asm": "0 3045022100a933e6e128e1b55bf519a0e4aea6e8bc03bcc3b1e07906137a800933c163e1b702204cdd3b2fb24dbe8cb199114ab9d54ffef7cb5b50e29a5ad8052ca8a3c3382bfe[ALL] 30440220723dc3ad33081ddf8c601e99aba40516f87c777f519aeea0eb17e8cccfa32902022030c6a69e34d383124c780bf3471cbee8e747579b445578be35e1384300f06d89[ALL] 52210327881b6abce6535553a3ce21fad12a7d74fd237ce7c4cd270a267162344e3082210256141f8eb687f5a68c5cc65054652dc25116fa285e44d72b44368827ffe77d9a52ae"}, "vout": 1, "txid": "898ddbcb5d8393e3f01d2887b0a2e30d01b5680e85d7ed6caa8523689683f794"}], "txid": "9e53c2df6b2ba6e2c91e695f4ee34eb2cd83dba69783e9e62a3b1f806d1f678c", "blocktime": 1537873891, "version": 1, "confirmations": 11478, "time": 1537873891, "locktime": 0, "vsize": 335, "size": 335}