{"hash": "9e6489ef09d9b03faa96ced79c090df35657ff75b78050d50f1a877158b522d6", "blockhash": "0000000000000000001f76057863aec43deb6fa401d9628bb513d65a8098bfab", "vout": [{"scriptPubKey": {"reqSigs": 1, "hex": "76a914a4f5cac48c56fd522245ff6cab25e5d7c71d45a288ac", "addresses": ["1G3EGPjmd5AwsCEnj8Scuq7C3sLGbENM57"], "asm": "OP_DUP OP_HASH160 a4f5cac48c56fd522245ff6cab25e5d7c71d45a2 OP_EQUALVERIFY OP_CHECKSIG", "type": "pubkeyhash"}, "value": 0.00280522, "n": 0}, {"scriptPubKey": {"reqSigs": 1, "hex": "76a9148c07abdcf1d297fb1356354c835f2e711e39460388ac", "addresses": ["1DmQnsUjXT9Fk9bRUGPKkFYyGLaJSXy5go"], "asm": "OP_DUP OP_HASH160 8c07abdcf1d297fb1356354c835f2e711e394603 OP_EQUALVERIFY OP_CHECKSIG", "type": "pubkeyhash"}, "value": 0.003, "n": 1}], "hex": "0100000001ffdc5943c6fabc4621241dd3b9a8ab6658e688168b9d13b72b72ae62ba4235190c0000006a473044022039d8a7438880b5197cf52eca398e6151628ba594cfa6bb747b3baf6d4fbc9f960220353c72868b3bd772c97b61e334e2ab9dd1ed2eb0297721ebeb0e03873543bb1201210239bbe99cfd7c2c0734559311a8c4da2a0db0dd76f7e0355dda82b2b0b33133ecffffffff02ca470400000000001976a914a4f5cac48c56fd522245ff6cab25e5d7c71d45a288ace0930400000000001976a9148c07abdcf1d297fb1356354c835f2e711e39460388ac00000000", "vin": [{"sequence": 4294967295, "scriptSig": {"hex": "473044022039d8a7438880b5197cf52eca398e6151628ba594cfa6bb747b3baf6d4fbc9f960220353c72868b3bd772c97b61e334e2ab9dd1ed2eb0297721ebeb0e03873543bb1201210239bbe99cfd7c2c0734559311a8c4da2a0db0dd76f7e0355dda82b2b0b33133ec", "asm": "3044022039d8a7438880b5197cf52eca398e6151628ba594cfa6bb747b3baf6d4fbc9f960220353c72868b3bd772c97b61e334e2ab9dd1ed2eb0297721ebeb0e03873543bb12[ALL] 0239bbe99cfd7c2c0734559311a8c4da2a0db0dd76f7e0355dda82b2b0b33133ec"}, "vout": 12, "txid": "193542ba62ae722bb7139d8b1688e65866aba8b9d31d242146bcfac64359dcff"}], "txid": "9e6489ef09d9b03faa96ced79c090df35657ff75b78050d50f1a877158b522d6", "blocktime": 1537873891, "version": 1, "confirmations": 11478, "time": 1537873891, "locktime": 0, "vsize": 225, "size": 225}