{"hash": "4982e8c92e0d12772ff3aa98542a208260cf90a9f2e08fc6ba26d2cd87c7d7fc", "blockhash": "000000000000000000022b45ed06c6f4ccd3cf7fb5ba4856ebd2e58215665228", "vout": [{"scriptPubKey": {"reqSigs": 1, "hex": "a9142a9e76bff99585a44e96087b118b0724a20d55a687", "addresses": ["35aN8s1niCaTu4Qfmkr169nvTfLM3WeuSB"], "asm": "OP_HASH160 2a9e76bff99585a44e96087b118b0724a20d55a6 OP_EQUAL", "type": "scripthash"}, "value": 0.01048949, "n": 0}, {"scriptPubKey": {"reqSigs": 1, "hex": "a91480a9e80ea1d515cb9491451f95b367f7d212031387", "addresses": ["3DRKxQYdbxA2rDFykphtZKKpZXCmoC3Keo"], "asm": "OP_HASH160 80a9e80ea1d515cb9491451f95b367f7d2120313 OP_EQUAL", "type": "scripthash"}, "value": 0.0098, "n": 1}], "hex": "020000000001023e717e7a13bdd74a0b5b5967238229b911529bd21ffabfd84ba40b821956e2f00000000017160014c0fbb0b810b0a58ecbd9f3d60bfb3dceadfdeaa8feffffffe834463a1f229b55d097116db2893630db969a3ec78afa1b39a5e8f6660932c00000000017160014418a0facfbbf5d553318ffc5d604ee483f01ce18feffffff02750110000000000017a9142a9e76bff99585a44e96087b118b0724a20d55a68720f40e000000000017a91480a9e80ea1d515cb9491451f95b367f7d2120313870248304502210096a325557825bc4e55d6de3142304ec0e8a75071ff78d4b72ec89acdb6b2c0d9022011369d8da4783f348eca4c7ca623121507696b6134df3773aaaacd35609390e40121032b1eb223b5dd31db6336ccbb1b42f19975db603463c795da29cf368b3bf8f1070247304402206e9e7e44ae0a4ed7c3b892e0b65cfd17c47914c1e731fe831cbe619d51e0b23a022065254e93343efe6ee3a237eabf3ea223e686de5f9556cc33f22311a4f1b933e20121026fe47778d574a88b4087d35b12482bd1ba55e5c01c5c84a23ff91fc22a1e45020b490800", "vin": [{"txinwitness": ["304502210096a325557825bc4e55d6de3142304ec0e8a75071ff78d4b72ec89acdb6b2c0d9022011369d8da4783f348eca4c7ca623121507696b6134df3773aaaacd35609390e401", "032b1eb223b5dd31db6336ccbb1b42f19975db603463c795da29cf368b3bf8f107"], "sequence": 4294967294, "scriptSig": {"hex": "160014c0fbb0b810b0a58ecbd9f3d60bfb3dceadfdeaa8", "asm": "0014c0fbb0b810b0a58ecbd9f3d60bfb3dceadfdeaa8"}, "vout": 0, "txid": "f0e25619820ba44bd8bffa1fd29b5211b929822367595b0b4ad7bd137a7e713e"}, {"txinwitness": ["304402206e9e7e44ae0a4ed7c3b892e0b65cfd17c47914c1e731fe831cbe619d51e0b23a022065254e93343efe6ee3a237eabf3ea223e686de5f9556cc33f22311a4f1b933e201", "026fe47778d574a88b4087d35b12482bd1ba55e5c01c5c84a23ff91fc22a1e4502"], "sequence": 4294967294, "scriptSig": {"hex": "160014418a0facfbbf5d553318ffc5d604ee483f01ce18", "asm": "0014418a0facfbbf5d553318ffc5d604ee483f01ce18"}, "vout": 0, "txid": "c0320966f6e8a5391bfa8ac73e9a96db303689b26d1197d0559b221f3a4634e8"}], "txid": "9e6df56624947761110c2d1103487735ac74849a9986a0c8f47ae557c31453e0", "blocktime": 1537869901, "version": 2, "confirmations": 11524, "time": 1537869901, "locktime": 542987, "vsize": 257, "size": 419}