{"hash": "9e778fea66c09efdb8ac5232d6eb21edb49e5c8c04af819ea3caaadeb5225d65", "blockhash": "0000000000000000001e0dab787dd257d1dbfcb92a98c2207d5e1078be1f4165", "vout": [{"scriptPubKey": {"reqSigs": 1, "hex": "76a9149c5e43e8aae41901483906e7306a930bfb4d403888ac", "addresses": ["1FFoLbHzNhXZvUxw5xycPUHe8ZpnBTKUoi"], "asm": "OP_DUP OP_HASH160 9c5e43e8aae41901483906e7306a930bfb4d4038 OP_EQUALVERIFY OP_CHECKSIG", "type": "pubkeyhash"}, "value": 0.00646597, "n": 0}, {"scriptPubKey": {"reqSigs": 1, "hex": "76a91401fbe6afd4548b9259f7dbd900fb20cda589354988ac", "addresses": ["1BVSb8mdWxqGXxRy5Tcx1YbwX9Zr9RSio"], "asm": "OP_DUP OP_HASH160 01fbe6afd4548b9259f7dbd900fb20cda5893549 OP_EQUALVERIFY OP_CHECKSIG", "type": "pubkeyhash"}, "value": 0.00012302, "n": 1}], "hex": "0100000001be97c1080aef6e236254a83adfd26762ec9125ee01037450e4920bb93a4af805000000006b483045022100dc80c950416929e17d4668b5c76ee10674d60aa89b6c10a154724773afab030202207dc54db57b59f2686752e16d9ea46986e00fc2dc1bc61102c33eaedcbc16a96c012103ba71d1da90c7f11f7e4305dc9674fd801663eb287b42eb25b2b527a47474d24bffffffff02c5dd0900000000001976a9149c5e43e8aae41901483906e7306a930bfb4d403888ac0e300000000000001976a91401fbe6afd4548b9259f7dbd900fb20cda589354988ac00000000", "vin": [{"sequence": 4294967295, "scriptSig": {"hex": "483045022100dc80c950416929e17d4668b5c76ee10674d60aa89b6c10a154724773afab030202207dc54db57b59f2686752e16d9ea46986e00fc2dc1bc61102c33eaedcbc16a96c012103ba71d1da90c7f11f7e4305dc9674fd801663eb287b42eb25b2b527a47474d24b", "asm": "3045022100dc80c950416929e17d4668b5c76ee10674d60aa89b6c10a154724773afab030202207dc54db57b59f2686752e16d9ea46986e00fc2dc1bc61102c33eaedcbc16a96c[ALL] 03ba71d1da90c7f11f7e4305dc9674fd801663eb287b42eb25b2b527a47474d24b"}, "vout": 0, "txid": "05f84a3ab90b92e450740301ee2591ec6267d2df3aa85462236eef0a08c197be"}], "txid": "9e778fea66c09efdb8ac5232d6eb21edb49e5c8c04af819ea3caaadeb5225d65", "blocktime": 1537872475, "version": 1, "confirmations": 11486, "time": 1537872475, "locktime": 0, "vsize": 226, "size": 226}