{"hash": "9e7812a5ecfa71c135e454becf133b14b28f23347a8511c83adc42e5612c1236", "blockhash": "00000000000000000004ffacab907a6b429b9a5745fa0b75af4234bf69dd7176", "vout": [{"scriptPubKey": {"reqSigs": 1, "hex": "a914426c8b37d0cb79a8615a57a6e90523d5f6b9119d87", "addresses": ["37kEYxiUPGnNauk2GWKHsk7SpAEbqxWMvS"], "asm": "OP_HASH160 426c8b37d0cb79a8615a57a6e90523d5f6b9119d OP_EQUAL", "type": "scripthash"}, "value": 0.0034, "n": 0}, {"scriptPubKey": {"reqSigs": 1, "hex": "76a914335cbea978be3804b886f455e25aa905c67601f488ac", "addresses": ["15gaZoauCUzM1Y6mBTcobWx1yC9G9fUpjj"], "asm": "OP_DUP OP_HASH160 335cbea978be3804b886f455e25aa905c67601f4 OP_EQUALVERIFY OP_CHECKSIG", "type": "pubkeyhash"}, "value": 0.07964085, "n": 1}], "hex": "0100000001b381082dc28fc1b7b75e67ebf01604d5a2a5dc6132d3fe7f8ca34b92f1b80b10010000006b483045022100970ba43de291480d63806bbb221841d34ecba9a1c1402ab760d9a90cdc90bb53022038d28e5415a6baf831135673baae51fce2ac8a8f37e34716ca44cffa25f5cf5a012102d11ea08cd36c33733bdc3c56493f6aae3aec788618192bfd2c61251461df777afdffffff02203005000000000017a914426c8b37d0cb79a8615a57a6e90523d5f6b9119d87b5857900000000001976a914335cbea978be3804b886f455e25aa905c67601f488ac16490800", "vin": [{"sequence": 4294967293, "scriptSig": {"hex": "483045022100970ba43de291480d63806bbb221841d34ecba9a1c1402ab760d9a90cdc90bb53022038d28e5415a6baf831135673baae51fce2ac8a8f37e34716ca44cffa25f5cf5a012102d11ea08cd36c33733bdc3c56493f6aae3aec788618192bfd2c61251461df777a", "asm": "3045022100970ba43de291480d63806bbb221841d34ecba9a1c1402ab760d9a90cdc90bb53022038d28e5415a6baf831135673baae51fce2ac8a8f37e34716ca44cffa25f5cf5a[ALL] 02d11ea08cd36c33733bdc3c56493f6aae3aec788618192bfd2c61251461df777a"}, "vout": 1, "txid": "100bb8f1924ba38c7ffed33261dca5a2d50416f0eb675eb7b7c18fc22d0881b3"}], "txid": "9e7812a5ecfa71c135e454becf133b14b28f23347a8511c83adc42e5612c1236", "blocktime": 1537875543, "version": 1, "confirmations": 11464, "time": 1537875543, "locktime": 542998, "vsize": 224, "size": 224}