{"hash": "9e8781c696cc749f66199afb23cb3883ed02af56c534e93a5dc64e130b2d8ac1", "blockhash": "00000000000000000018f53835495a110e01622372bf6ae95dc86f2b0ab887b0", "vout": [{"scriptPubKey": {"reqSigs": 1, "hex": "a914333755ea955e5ea11b4d1b9fe6377b9217e2b58a87", "addresses": ["36Mpg7VWmW6Nkw8qwbEaWHnC4MnhEHJFgm"], "asm": "OP_HASH160 333755ea955e5ea11b4d1b9fe6377b9217e2b58a OP_EQUAL", "type": "scripthash"}, "value": 0.017, "n": 0}, {"scriptPubKey": {"reqSigs": 1, "hex": "76a9146b1b532fe21caa68674474a2dcb75519ad5c22d388ac", "addresses": ["1AmL36c3FiXMp7BATH81JcUzaARKQatuDp"], "asm": "OP_DUP OP_HASH160 6b1b532fe21caa68674474a2dcb75519ad5c22d3 OP_EQUALVERIFY OP_CHECKSIG", "type": "pubkeyhash"}, "value": 0.01026876, "n": 1}], "hex": "02000000029e14cb51e8da1fc8a18c24fbd07d6eca187d10004da085ac0d45a6d372a2bb43010000006b483045022100e57248c121c36ef2d04ccb4c203d26123dadc58da2735b03065338e37fb723da02206626eeb80b25077f514ff1ad441a9359516534a55b9c7063db02c54b3ce97851012102ce58a8927a93035403b38b2b917d4eef1d581cb72dafd02dfc9fcce38b8dd47afeffffffa2c2b29288534783dfd03cc6f7c8358a8442bf6d85e7b2e2fdd2e985964ad391000000006b48304502210081eff52a0c0d4557fe4b13326d5f66e541a2e5d802437c40d582ba7f97dc2ac902205d1b490af51876d3e87d3695c488819844dec884d6434bdb9269dcaf0850c094012102c47d1ee29d2709a66b7e0e8c8ee38a33fe52052dc56b34c30b949c93fa683632feffffff02a0f019000000000017a914333755ea955e5ea11b4d1b9fe6377b9217e2b58a873cab0f00000000001976a9146b1b532fe21caa68674474a2dcb75519ad5c22d388acdc480800", "vin": [{"sequence": 4294967294, "scriptSig": {"hex": "483045022100e57248c121c36ef2d04ccb4c203d26123dadc58da2735b03065338e37fb723da02206626eeb80b25077f514ff1ad441a9359516534a55b9c7063db02c54b3ce97851012102ce58a8927a93035403b38b2b917d4eef1d581cb72dafd02dfc9fcce38b8dd47a", "asm": "3045022100e57248c121c36ef2d04ccb4c203d26123dadc58da2735b03065338e37fb723da02206626eeb80b25077f514ff1ad441a9359516534a55b9c7063db02c54b3ce97851[ALL] 02ce58a8927a93035403b38b2b917d4eef1d581cb72dafd02dfc9fcce38b8dd47a"}, "vout": 1, "txid": "43bba272d3a6450dac85a04d00107d18ca6e7dd0fb248ca1c81fdae851cb149e"}, {"sequence": 4294967294, "scriptSig": {"hex": "48304502210081eff52a0c0d4557fe4b13326d5f66e541a2e5d802437c40d582ba7f97dc2ac902205d1b490af51876d3e87d3695c488819844dec884d6434bdb9269dcaf0850c094012102c47d1ee29d2709a66b7e0e8c8ee38a33fe52052dc56b34c30b949c93fa683632", "asm": "304502210081eff52a0c0d4557fe4b13326d5f66e541a2e5d802437c40d582ba7f97dc2ac902205d1b490af51876d3e87d3695c488819844dec884d6434bdb9269dcaf0850c094[ALL] 02c47d1ee29d2709a66b7e0e8c8ee38a33fe52052dc56b34c30b949c93fa683632"}, "vout": 0, "txid": "91d34a9685e9d2fde2b2e7856dbf42848a35c8f7c63cd0df8347538892b2c2a2"}], "txid": "9e8781c696cc749f66199afb23cb3883ed02af56c534e93a5dc64e130b2d8ac1", "blocktime": 1537870928, "version": 2, "confirmations": 11514, "time": 1537870928, "locktime": 542940, "vsize": 372, "size": 372}