{"hash": "941d9b2c229d09b5e6502ac88c748d7032c148000b2a46d0e7f4334dd33209e2", "blockhash": "0000000000000000001f76057863aec43deb6fa401d9628bb513d65a8098bfab", "vout": [{"scriptPubKey": {"reqSigs": 1, "hex": "a914e828e0cb02d301fc1c55dc1cc3c2d435a09bed9b87", "addresses": ["3NrZfJqpZpMANwP8paGa6fWNoWq58jiwKG"], "asm": "OP_HASH160 e828e0cb02d301fc1c55dc1cc3c2d435a09bed9b OP_EQUAL", "type": "scripthash"}, "value": 0.00735, "n": 0}, {"scriptPubKey": {"reqSigs": 1, "hex": "a91482fa5d9a5ff627d55c4df8081f7c1edcdb6c3ab987", "addresses": ["3DdZhC3BsjrkwZc2JaWtCQhixcLxDJaZCN"], "asm": "OP_HASH160 82fa5d9a5ff627d55c4df8081f7c1edcdb6c3ab9 OP_EQUAL", "type": "scripthash"}, "value": 0.01007464, "n": 1}], "hex": "01000000000101b089359c1e0726c51d76f0eb5ce91aec1834ee12cc2746283a0fdc6c681781401400000017160014e2872a39162b910ac3385c3e608bbb995c16daa6ffffffff0218370b000000000017a914e828e0cb02d301fc1c55dc1cc3c2d435a09bed9b87685f0f000000000017a91482fa5d9a5ff627d55c4df8081f7c1edcdb6c3ab98702483045022100ebe22b06871fde2aa5aa0b017ce75c5ad03a5a65223ae3ca87f117edc743bc6702203d6cf1e1bbf7b9bed2d709981cfaa73731ed08184d3a9900386325687c8dbacd012103f180d1291b924932e832e762ff2696c45240078b1b25d8312dd9733f0e6a7d1b00000000", "vin": [{"txinwitness": ["3045022100ebe22b06871fde2aa5aa0b017ce75c5ad03a5a65223ae3ca87f117edc743bc6702203d6cf1e1bbf7b9bed2d709981cfaa73731ed08184d3a9900386325687c8dbacd01", "03f180d1291b924932e832e762ff2696c45240078b1b25d8312dd9733f0e6a7d1b"], "sequence": 4294967295, "scriptSig": {"hex": "160014e2872a39162b910ac3385c3e608bbb995c16daa6", "asm": "0014e2872a39162b910ac3385c3e608bbb995c16daa6"}, "vout": 20, "txid": "408117686cdc0f3a284627cc12ee3418ec1ae95cebf0761dc526071e9c3589b0"}], "txid": "9e88844b3974e3ee24a0a71347bc997cc5c19e983e794a48d38a69e429dc0bf6", "blocktime": 1537873891, "version": 1, "confirmations": 11478, "time": 1537873891, "locktime": 0, "vsize": 166, "size": 248}