{"hash": "9dc5489a6eb419a3888abfef288c1f25679243d5d88b154442f43dca52ba0dbc", "blockhash": "0000000000000000000baef3f32e3676a92c3b2e5da21b426e4f302fc371ce76", "vout": [{"scriptPubKey": {"reqSigs": 1, "hex": "76a9141848ff36c7d1e34bb3c486299bf853bbad0a6aba88ac", "addresses": ["13DQfX8f9Yb9Y83yFwW8ozNHuaHWAYafSv"], "asm": "OP_DUP OP_HASH160 1848ff36c7d1e34bb3c486299bf853bbad0a6aba OP_EQUALVERIFY OP_CHECKSIG", "type": "pubkeyhash"}, "value": 2.1299, "n": 0}, {"scriptPubKey": {"reqSigs": 1, "hex": "a914d0b495318f734f2e3bc2a9f6e21105e8c35a2fa487", "addresses": ["3LiYoZEPZsxyrdPFH5rYG9DVZLwBEaqLSg"], "asm": "OP_HASH160 d0b495318f734f2e3bc2a9f6e21105e8c35a2fa4 OP_EQUAL", "type": "scripthash"}, "value": 189.35637641, "n": 1}], "hex": "01000000000101e0adb405cc6f50447f0aa6b6fb34c35231ed445872c182286740c8bda7280507020000001716001480395b92d165fc1dc5470ffa0706ea66e15757b6ffffffff0230f8b10c000000001976a9141848ff36c7d1e34bb3c486299bf853bbad0a6aba88ac89e6a6680400000017a914d0b495318f734f2e3bc2a9f6e21105e8c35a2fa4870247304402205f70a6675ce052ccac652cd79aab8d72b45aff57c02f493d736160c0ca799aa202201f8960b9b1c6daddda511a77dc2ed162f16037d51e5fc2ca8673291616d045ab012103f166ff75d4382bb77a58c574ba3e426624712bf205c410af7858f842df68486a00000000", "vin": [{"txinwitness": ["304402205f70a6675ce052ccac652cd79aab8d72b45aff57c02f493d736160c0ca799aa202201f8960b9b1c6daddda511a77dc2ed162f16037d51e5fc2ca8673291616d045ab01", "03f166ff75d4382bb77a58c574ba3e426624712bf205c410af7858f842df68486a"], "sequence": 4294967295, "scriptSig": {"hex": "16001480395b92d165fc1dc5470ffa0706ea66e15757b6", "asm": "001480395b92d165fc1dc5470ffa0706ea66e15757b6"}, "vout": 2, "txid": "070528a7bdc840672882c1725844ed3152c334fbb6a60a7f44506fcc05b4ade0"}], "txid": "9e93d846dcc86dabf099b2ff7d01aab24d9fac4170af70857510d2318b51089f", "blocktime": 1537876114, "version": 1, "confirmations": 11460, "time": 1537876114, "locktime": 0, "vsize": 168, "size": 249}