{"hash": "9e94ccf157ba2b72c79aa934e899c8d734b88899205bc493924a894eaf9e2939", "blockhash": "00000000000000000018f53835495a110e01622372bf6ae95dc86f2b0ab887b0", "vout": [{"scriptPubKey": {"reqSigs": 1, "hex": "76a914db0852b4055ccf6803194a384d1ab6f3c0b8044f88ac", "addresses": ["1Ly8xJpK31Xasbypw79Nkj7UJs6oTxStFB"], "asm": "OP_DUP OP_HASH160 db0852b4055ccf6803194a384d1ab6f3c0b8044f OP_EQUALVERIFY OP_CHECKSIG", "type": "pubkeyhash"}, "value": 0.00362021, "n": 0}, {"scriptPubKey": {"reqSigs": 1, "hex": "76a9144bf9ca43d3c052079a539c7f7ee85aeab639d6cb88ac", "addresses": ["17viv7EhHs86SfizCKgjmtohXbdvMSFEBa"], "asm": "OP_DUP OP_HASH160 4bf9ca43d3c052079a539c7f7ee85aeab639d6cb OP_EQUALVERIFY OP_CHECKSIG", "type": "pubkeyhash"}, "value": 0.012496, "n": 1}], "hex": "0100000003bb884565073a2051196ad813fd81832cc46607dacce0f47d91cf13fa9a45c987010000006a47304402205e63951114c27b28e50f9c4ea4148bbda1dc45a93481ee6599295decbc895992022008d93c76fbbe89ede77bc1d80ed0743899987d966a6201651fc8744d0479bdbf012103cfec065dc9d0ecb62223804a49ba646d26b1adf6f5de64f476412bebf95076f6ffffffffd6bbf9ec3683ced71f32f48dfff76a08578b0256115e7dfca4d4228fc4db3196000000006a47304402202e22a2ffbd07e53454c24c6335bb26471485a3906b184abfdbca2d2d190b91260220765767bacfc9c544418859b8ff73a7cfbce4401f478fa48bc7ec2df6df2f75e0012103cfec065dc9d0ecb62223804a49ba646d26b1adf6f5de64f476412bebf95076f6ffffffff2e0c5530d6580ce2de9ac7271a2db10792a37c15c87af1a836fe1e788ac14cb8000000006b483045022100b5484eca7c1be8a576ba149d91078ffe2316eea0e0ca8dc3342d312f4a643e1a02205c17e542a786a79f359609ed004efc574dbbccea8ceca77e047635278fbd2231012102060834d7068811d5f0c50a4c4bb567f0e753134e135853863967a30b7afa9b0fffffffff0225860500000000001976a914db0852b4055ccf6803194a384d1ab6f3c0b8044f88ac40111300000000001976a9144bf9ca43d3c052079a539c7f7ee85aeab639d6cb88ac00000000", "vin": [{"sequence": 4294967295, "scriptSig": {"hex": "47304402205e63951114c27b28e50f9c4ea4148bbda1dc45a93481ee6599295decbc895992022008d93c76fbbe89ede77bc1d80ed0743899987d966a6201651fc8744d0479bdbf012103cfec065dc9d0ecb62223804a49ba646d26b1adf6f5de64f476412bebf95076f6", "asm": "304402205e63951114c27b28e50f9c4ea4148bbda1dc45a93481ee6599295decbc895992022008d93c76fbbe89ede77bc1d80ed0743899987d966a6201651fc8744d0479bdbf[ALL] 03cfec065dc9d0ecb62223804a49ba646d26b1adf6f5de64f476412bebf95076f6"}, "vout": 1, "txid": "87c9459afa13cf917df4e0ccda0766c42c8381fd13d86a1951203a07654588bb"}, {"sequence": 4294967295, "scriptSig": {"hex": "47304402202e22a2ffbd07e53454c24c6335bb26471485a3906b184abfdbca2d2d190b91260220765767bacfc9c544418859b8ff73a7cfbce4401f478fa48bc7ec2df6df2f75e0012103cfec065dc9d0ecb62223804a49ba646d26b1adf6f5de64f476412bebf95076f6", "asm": "304402202e22a2ffbd07e53454c24c6335bb26471485a3906b184abfdbca2d2d190b91260220765767bacfc9c544418859b8ff73a7cfbce4401f478fa48bc7ec2df6df2f75e0[ALL] 03cfec065dc9d0ecb62223804a49ba646d26b1adf6f5de64f476412bebf95076f6"}, "vout": 0, "txid": "9631dbc48f22d4a4fc7d5e1156028b57086af7ff8df4321fd7ce8336ecf9bbd6"}, {"sequence": 4294967295, "scriptSig": {"hex": "483045022100b5484eca7c1be8a576ba149d91078ffe2316eea0e0ca8dc3342d312f4a643e1a02205c17e542a786a79f359609ed004efc574dbbccea8ceca77e047635278fbd2231012102060834d7068811d5f0c50a4c4bb567f0e753134e135853863967a30b7afa9b0f", "asm": "3045022100b5484eca7c1be8a576ba149d91078ffe2316eea0e0ca8dc3342d312f4a643e1a02205c17e542a786a79f359609ed004efc574dbbccea8ceca77e047635278fbd2231[ALL] 02060834d7068811d5f0c50a4c4bb567f0e753134e135853863967a30b7afa9b0f"}, "vout": 0, "txid": "b84cc18a781efe36a8f17ac8157ca39207b12d1a27c79adee20c58d630550c2e"}], "txid": "9e94ccf157ba2b72c79aa934e899c8d734b88899205bc493924a894eaf9e2939", "blocktime": 1537870928, "version": 1, "confirmations": 11514, "time": 1537870928, "locktime": 0, "vsize": 520, "size": 520}