{"hash": "9e980e62e3a4140541b715330a0fde542f36f2ba99549a0b42d2b8c7cbc512ce", "blockhash": "0000000000000000001cda96e906b7601b7a6fb1a3b62bca570a9e5d8f4b3de1", "vout": [{"scriptPubKey": {"type": "nulldata", "hex": "6a4c50000077cb0001c21fbf9a798d46f81900506e5b23cc0f42c2fc38c5e5bf9ae76da98a211a04021f5b90bca51fe984b4018d1b81565baa13dc0612f1fba82f48b81d100759d4ba30d2c37bb011d97e02cf", "asm": "OP_RETURN 000077cb0001c21fbf9a798d46f81900506e5b23cc0f42c2fc38c5e5bf9ae76da98a211a04021f5b90bca51fe984b4018d1b81565baa13dc0612f1fba82f48b81d100759d4ba30d2c37bb011d97e02cf"}, "value": 0.0, "n": 0}, {"scriptPubKey": {"reqSigs": 1, "hex": "76a914256ad7e6b61816272970d2be914b37760a3a1d0c88ac", "addresses": ["14Qqzhsyo4i6byovkP2gKet1SDHWCKdZ4b"], "asm": "OP_DUP OP_HASH160 256ad7e6b61816272970d2be914b37760a3a1d0c OP_EQUALVERIFY OP_CHECKSIG", "type": "pubkeyhash"}, "value": 0.00639999, "n": 1}], "hex": "010000000183c9b1a9ad89c21f316ad52d9b0a63b569d4089b7b351107a2a1950a41260e87000000006a473044022006a850cc5406209d6e6617ecb3923dd3817e07341ce1bea834431f8c8bcc301602200ca266ac279258f56a0887a354926e918c58b15afe24eab572d4014917e2f52c0121029676e219f86f223a85baf4dac6fa488ee3e06a92a5168f23c50e5dbc0b82ec4bffffffff020000000000000000536a4c50000077cb0001c21fbf9a798d46f81900506e5b23cc0f42c2fc38c5e5bf9ae76da98a211a04021f5b90bca51fe984b4018d1b81565baa13dc0612f1fba82f48b81d100759d4ba30d2c37bb011d97e02cfffc30900000000001976a914256ad7e6b61816272970d2be914b37760a3a1d0c88ac00000000", "vin": [{"sequence": 4294967295, "scriptSig": {"hex": "473044022006a850cc5406209d6e6617ecb3923dd3817e07341ce1bea834431f8c8bcc301602200ca266ac279258f56a0887a354926e918c58b15afe24eab572d4014917e2f52c0121029676e219f86f223a85baf4dac6fa488ee3e06a92a5168f23c50e5dbc0b82ec4b", "asm": "3044022006a850cc5406209d6e6617ecb3923dd3817e07341ce1bea834431f8c8bcc301602200ca266ac279258f56a0887a354926e918c58b15afe24eab572d4014917e2f52c[ALL] 029676e219f86f223a85baf4dac6fa488ee3e06a92a5168f23c50e5dbc0b82ec4b"}, "vout": 0, "txid": "870e26410a95a1a20711357b9b08d469b5630a9b2dd56a311fc289ada9b1c983"}], "txid": "9e980e62e3a4140541b715330a0fde542f36f2ba99549a0b42d2b8c7cbc512ce", "blocktime": 1537873282, "version": 1, "confirmations": 11484, "time": 1537873282, "locktime": 0, "vsize": 283, "size": 283}