{"hash": "632cbeb63b395190fa5d2830fd773cfa4beb704e150d808f5135e4ef81f33470", "blockhash": "00000000000000000017f5eb5941039fbcee6240d03bc1f2f8e35350df66a1d8", "vout": [{"scriptPubKey": {"reqSigs": 1, "hex": "76a9141ae6f73f9da5ea402967d0100f4389ffcb91893188ac", "addresses": ["13TFFmsnBQuZGPK55uz4KD3vQNmQdqYe5L"], "asm": "OP_DUP OP_HASH160 1ae6f73f9da5ea402967d0100f4389ffcb918931 OP_EQUALVERIFY OP_CHECKSIG", "type": "pubkeyhash"}, "value": 0.01717945, "n": 0}, {"scriptPubKey": {"reqSigs": 1, "hex": "001417424709bd8073368ece6ccb70842b566217bd23", "addresses": ["bc1qzapywzdaspendrkwdn9hpppt2e3p00frelfnqk"], "asm": "0 17424709bd8073368ece6ccb70842b566217bd23", "type": "witness_v0_keyhash"}, "value": 0.022844, "n": 1}], "hex": "010000000001013e262235409e48a1b8321a8bfecdde0a14dd8446b867f867a3cb2d319254daae0000000000ffffffff02b9361a00000000001976a9141ae6f73f9da5ea402967d0100f4389ffcb91893188ac70db22000000000016001417424709bd8073368ece6ccb70842b566217bd230247304402205b5c8f7bf98e4a731c620719f7da3cb349eeb1358e5cf914e4dce0fa913130ec022068629d7759770ea0095b24b6cbf6a447ad318c232364033523688f3fac7b31b201210299dc4794a8341102c671ceb3036a626b9fa0fed1035345de7e9e0ea031de34f600000000", "vin": [{"txinwitness": ["304402205b5c8f7bf98e4a731c620719f7da3cb349eeb1358e5cf914e4dce0fa913130ec022068629d7759770ea0095b24b6cbf6a447ad318c232364033523688f3fac7b31b201", "0299dc4794a8341102c671ceb3036a626b9fa0fed1035345de7e9e0ea031de34f6"], "sequence": 4294967295, "scriptSig": {"hex": "", "asm": ""}, "vout": 0, "txid": "aeda5492312dcba367f867b84684dd140adecdfe8b1a32b8a1489e403522263e"}], "txid": "9e9c005b5a5d06d6c098dcc1320bb7976a6a2691f687371672b6ca52ae6d5bc5", "blocktime": 1537874412, "version": 1, "confirmations": 11467, "time": 1537874412, "locktime": 0, "vsize": 144, "size": 225}