{"hash": "8f09a33608e55ef16b788ae67683a5bfc1c7b3fb70890ff8efc0e9108c2e732f", "blockhash": "0000000000000000001f76057863aec43deb6fa401d9628bb513d65a8098bfab", "vout": [{"scriptPubKey": {"reqSigs": 1, "hex": "a914576872298183459f45c0f9bd964f1c2e7922a28687", "addresses": ["39fBqGJAm1ThntVe6b1gBfbgbxxHqtYihz"], "asm": "OP_HASH160 576872298183459f45c0f9bd964f1c2e7922a286 OP_EQUAL", "type": "scripthash"}, "value": 0.00015511, "n": 0}, {"scriptPubKey": {"reqSigs": 1, "hex": "a9141da0a54978b621c7f635aa5699d1ac5f100f387a87", "addresses": ["34PfxxmuQX7xWRGHa2rfGEg8PaPKmhydPL"], "asm": "OP_HASH160 1da0a54978b621c7f635aa5699d1ac5f100f387a OP_EQUAL", "type": "scripthash"}, "value": 0.03952215, "n": 1}], "hex": "01000000000101db04d7e9ca44a8bb79a84cff6616c4b8bd87c789accd9c224322eac146f82890010000001716001485fd2e39044a314cb17aa9d16072058e9c3b9144ffffffff02973c00000000000017a914576872298183459f45c0f9bd964f1c2e7922a28687574e3c000000000017a9141da0a54978b621c7f635aa5699d1ac5f100f387a870247304402200b25a9b43fa4bb0adee3e9d9864710e6257f77e397c359a22d7a9b1a7328025f022057353ec1f4e5d3d059b6bacd719ab5b0226ffbf492eb76b14752ab04ce1c19dd012102ed76cf1bc8fa5127fa4e5bdbf6edfacfde29c8b6aae8b1aa6fbf3a534d2ee44e00000000", "vin": [{"txinwitness": ["304402200b25a9b43fa4bb0adee3e9d9864710e6257f77e397c359a22d7a9b1a7328025f022057353ec1f4e5d3d059b6bacd719ab5b0226ffbf492eb76b14752ab04ce1c19dd01", "02ed76cf1bc8fa5127fa4e5bdbf6edfacfde29c8b6aae8b1aa6fbf3a534d2ee44e"], "sequence": 4294967295, "scriptSig": {"hex": "16001485fd2e39044a314cb17aa9d16072058e9c3b9144", "asm": "001485fd2e39044a314cb17aa9d16072058e9c3b9144"}, "vout": 1, "txid": "9028f846c1ea2243229ccdac89c787bdb8c41666ff4ca879bba844cae9d704db"}], "txid": "9ea2d1cfe9aeba1f0fc6ee951423ae0592a4af259e738899c3f60c7456bd8bbc", "blocktime": 1537873891, "version": 1, "confirmations": 11475, "time": 1537873891, "locktime": 0, "vsize": 166, "size": 247}