{"hash": "9ea2f04f85187584a05952ad9d305f75d4618eaca70ec5cacfa7c3a4b56b2b90", "blockhash": "00000000000000000018f53835495a110e01622372bf6ae95dc86f2b0ab887b0", "vout": [{"scriptPubKey": {"reqSigs": 1, "hex": "76a91476c78e4f2942d7590b1c60286bb92c9dde6f9a2b88ac", "addresses": ["1Bq3o2KHtfvYpnwRA8nzTrpxrqYeHXfNVo"], "asm": "OP_DUP OP_HASH160 76c78e4f2942d7590b1c60286bb92c9dde6f9a2b OP_EQUALVERIFY OP_CHECKSIG", "type": "pubkeyhash"}, "value": 0.02103562, "n": 0}], "hex": "010000000293cef4fd3a3ea023a013b61f415acd63082ae4d5dfa7fd44856a66ce60bb56d2040000006b4830450221008e150f47b5fdf76932abfe40bed5d95739f8144035e35950c20c9302c64eabf202205a1d9564f42a7b0d89ee41014e9008446ac12ce83708709bdbace5e05bd7bdde01210210bdba8e62ff2e933d2dfb5aea61730ccfe5bfc3cb7798535d7a79dbfbd39d77ffffffff7d5a970260db2cf09fbcd6810d1917ccff8b621b91a5076313b7dcae8724ea81010000006a47304402203eb049d06ce96923f32cc2e80c70c0e45cc1756a9e4608acc5456a4ac99bcd6502207127736137ae6356f124e750d19c3cc61d1a5fabea78b032cf1aa925f0dcb4f60121026f5a13074780415b1ad9c30d0c80a6753cbe01165eb5701046760a2d722453f7ffffffff010a192000000000001976a91476c78e4f2942d7590b1c60286bb92c9dde6f9a2b88ac00000000", "vin": [{"sequence": 4294967295, "scriptSig": {"hex": "4830450221008e150f47b5fdf76932abfe40bed5d95739f8144035e35950c20c9302c64eabf202205a1d9564f42a7b0d89ee41014e9008446ac12ce83708709bdbace5e05bd7bdde01210210bdba8e62ff2e933d2dfb5aea61730ccfe5bfc3cb7798535d7a79dbfbd39d77", "asm": "30450221008e150f47b5fdf76932abfe40bed5d95739f8144035e35950c20c9302c64eabf202205a1d9564f42a7b0d89ee41014e9008446ac12ce83708709bdbace5e05bd7bdde[ALL] 0210bdba8e62ff2e933d2dfb5aea61730ccfe5bfc3cb7798535d7a79dbfbd39d77"}, "vout": 4, "txid": "d256bb60ce666a8544fda7dfd5e42a0863cd5a411fb613a023a03e3afdf4ce93"}, {"sequence": 4294967295, "scriptSig": {"hex": "47304402203eb049d06ce96923f32cc2e80c70c0e45cc1756a9e4608acc5456a4ac99bcd6502207127736137ae6356f124e750d19c3cc61d1a5fabea78b032cf1aa925f0dcb4f60121026f5a13074780415b1ad9c30d0c80a6753cbe01165eb5701046760a2d722453f7", "asm": "304402203eb049d06ce96923f32cc2e80c70c0e45cc1756a9e4608acc5456a4ac99bcd6502207127736137ae6356f124e750d19c3cc61d1a5fabea78b032cf1aa925f0dcb4f6[ALL] 026f5a13074780415b1ad9c30d0c80a6753cbe01165eb5701046760a2d722453f7"}, "vout": 1, "txid": "81ea2487aedcb7136307a5911b628bffcc17190d81d6bc9ff02cdb6002975a7d"}], "txid": "9ea2f04f85187584a05952ad9d305f75d4618eaca70ec5cacfa7c3a4b56b2b90", "blocktime": 1537870928, "version": 1, "confirmations": 11512, "time": 1537870928, "locktime": 0, "vsize": 339, "size": 339}