{"hash": "9ea3700ebfab1fb030b5034cbaf2453c2d01a864ec33e71ef936f652091c2ed2", "blockhash": "00000000000000000004ffacab907a6b429b9a5745fa0b75af4234bf69dd7176", "vout": [{"scriptPubKey": {"reqSigs": 1, "hex": "76a9141189fb07ebc3099a609313f68818a5e2bff7410888ac", "addresses": ["12bjnKbMKDnQYowLAATyjLhi7mcVxk3NcZ"], "asm": "OP_DUP OP_HASH160 1189fb07ebc3099a609313f68818a5e2bff74108 OP_EQUALVERIFY OP_CHECKSIG", "type": "pubkeyhash"}, "value": 0.0195, "n": 0}, {"scriptPubKey": {"reqSigs": 1, "hex": "a9143bae776600f257dca86bbca559e19aa62097a3dc87", "addresses": ["378anzwQtCn1d7KxsjWKaaoeTfRBrevC22"], "asm": "OP_HASH160 3bae776600f257dca86bbca559e19aa62097a3dc OP_EQUAL", "type": "scripthash"}, "value": 0.009888, "n": 1}], "hex": "020000000126a80e1eefff54a725c637d84c8dc88f85fcc921664cc64ba477b2f04910af76260000006b4830450221008f14f10b84f865c06dfd914528c9f2cbe79c9bccc5530c29a15832613344bc42022056417f6b05acfd4f7a46959fa086ad93752417d5965f6d866fe7bcf8b9149e090121027139fb68a3848ae759fcdae822390472a20de5a5d36b78627a32a9fb29c8a03dfeffffff0230c11d00000000001976a9141189fb07ebc3099a609313f68818a5e2bff7410888ac80160f000000000017a9143bae776600f257dca86bbca559e19aa62097a3dc8716490800", "vin": [{"sequence": 4294967294, "scriptSig": {"hex": "4830450221008f14f10b84f865c06dfd914528c9f2cbe79c9bccc5530c29a15832613344bc42022056417f6b05acfd4f7a46959fa086ad93752417d5965f6d866fe7bcf8b9149e090121027139fb68a3848ae759fcdae822390472a20de5a5d36b78627a32a9fb29c8a03d", "asm": "30450221008f14f10b84f865c06dfd914528c9f2cbe79c9bccc5530c29a15832613344bc42022056417f6b05acfd4f7a46959fa086ad93752417d5965f6d866fe7bcf8b9149e09[ALL] 027139fb68a3848ae759fcdae822390472a20de5a5d36b78627a32a9fb29c8a03d"}, "vout": 38, "txid": "76af1049f0b277a44bc64c6621c9fc858fc88d4cd837c625a754ffef1e0ea826"}], "txid": "9ea3700ebfab1fb030b5034cbaf2453c2d01a864ec33e71ef936f652091c2ed2", "blocktime": 1537875543, "version": 2, "confirmations": 11464, "time": 1537875543, "locktime": 542998, "vsize": 224, "size": 224}