{"hash": "6b7894f49a0fd176008bbeb23a667023c48452c02485c86f7f9ccf65efba6cfd", "blockhash": "0000000000000000001cda96e906b7601b7a6fb1a3b62bca570a9e5d8f4b3de1", "vout": [{"scriptPubKey": {"reqSigs": 1, "hex": "76a9145ab02ab956d9fd2531bca565bf9b643f102b2d8088ac", "addresses": ["19GWrZBcm7WoE6EeBaoExKoP3cFQTLU4mN"], "asm": "OP_DUP OP_HASH160 5ab02ab956d9fd2531bca565bf9b643f102b2d80 OP_EQUALVERIFY OP_CHECKSIG", "type": "pubkeyhash"}, "value": 0.00347768, "n": 0}, {"scriptPubKey": {"reqSigs": 1, "hex": "a914c2fbd5c1619a23e34960e5b4b9c410d9231ded8387", "addresses": ["3KTzhZSe6wiBmHMG5bEckN99k8Cmb5DkTh"], "asm": "OP_HASH160 c2fbd5c1619a23e34960e5b4b9c410d9231ded83 OP_EQUAL", "type": "scripthash"}, "value": 0.01064908, "n": 1}], "hex": "020000000001015c4059f5afbe69d0a4c74e48b58e3548651873cbcbb03164036ec6d31465666b00000000171600148ce7c6817057ca11068185ea2394f2569fe692e4feffffff02784e0500000000001976a9145ab02ab956d9fd2531bca565bf9b643f102b2d8088accc3f10000000000017a914c2fbd5c1619a23e34960e5b4b9c410d9231ded838702473044022012632faf3c3ef00e7e796b70960b3ff58e9d5bbcc86d7aaf69abf4ffdd26af1902203a4ca0e521ebafa6cd2a8931adb518ee1cc086a0d671480f0bb3d82b63762a17012103d1b530d04cad4e4254ed602d0a0360975673407d74e1e59ba2c7e568163ca60813490800", "vin": [{"txinwitness": ["3044022012632faf3c3ef00e7e796b70960b3ff58e9d5bbcc86d7aaf69abf4ffdd26af1902203a4ca0e521ebafa6cd2a8931adb518ee1cc086a0d671480f0bb3d82b63762a1701", "03d1b530d04cad4e4254ed602d0a0360975673407d74e1e59ba2c7e568163ca608"], "sequence": 4294967294, "scriptSig": {"hex": "1600148ce7c6817057ca11068185ea2394f2569fe692e4", "asm": "00148ce7c6817057ca11068185ea2394f2569fe692e4"}, "vout": 0, "txid": "6b666514d3c66e036431b0cbcb73186548358eb5484ec7a4d069beaff559405c"}], "txid": "9ea885d0f720d356c85f6afcfb44f1f92ab90da102d789c3b8ddcf13c7f30fcc", "blocktime": 1537873282, "version": 2, "confirmations": 11485, "time": 1537873282, "locktime": 542995, "vsize": 168, "size": 249}