{"hash": "9ea94323f7c21ecf44afd313ba7580c43a52aa93cf2be1ebf4166ec936c137dd", "blockhash": "0000000000000000001cda96e906b7601b7a6fb1a3b62bca570a9e5d8f4b3de1", "vout": [{"scriptPubKey": {"reqSigs": 1, "hex": "76a914ce29ad6099500c918c5d730171b6ad4cb4b2313888ac", "addresses": ["1Ko68Jc4fUESdL8F6vmHN4CKUQtDAKBZqR"], "asm": "OP_DUP OP_HASH160 ce29ad6099500c918c5d730171b6ad4cb4b23138 OP_EQUALVERIFY OP_CHECKSIG", "type": "pubkeyhash"}, "value": 0.01269081, "n": 0}, {"scriptPubKey": {"reqSigs": 1, "hex": "a91457b61b5410c51b09439b6394d6848ed922dabf2a87", "addresses": ["39gnsEQRBniU56B5cYfGDYYbzqqUmkjC7T"], "asm": "OP_HASH160 57b61b5410c51b09439b6394d6848ed922dabf2a OP_EQUAL", "type": "scripthash"}, "value": 0.03123, "n": 1}], "hex": "010000000264c4e8857a84a0e75bccfdbc6a0314dc38d149e31aa6e32ea3741b322bfe640c010000006b483045022100cc72193439e4e8ff1416a074ab57c77a28ee4244b2c7c0f16519c23cc14a7b82022039f25cfb02a08743e7d6593046d8e8c85725783a6e4c6f197b94d225582891d501210306bd10995cf8321569d5ca3e494271948eebd54ae8db275719f6512449f9080effffffff14d2e94ea7f0e83483865eaf33c1543da11238fa7d6328b4a38c4056b46a5c48010000006a473044022028c791cce9d8603b2b56cb2a38931854e11bf8d72a8f7ef695cb841ec157fc0b02206ece07d7ad8dd5c4481e2674b1120dac5647c176692c60803a7fc910fccce39e012102869b97d06e4040ebf90078fda445444273f0699b39269f855df216122a165d62ffffffff02595d1300000000001976a914ce29ad6099500c918c5d730171b6ad4cb4b2313888ac38a72f000000000017a91457b61b5410c51b09439b6394d6848ed922dabf2a8700000000", "vin": [{"sequence": 4294967295, "scriptSig": {"hex": "483045022100cc72193439e4e8ff1416a074ab57c77a28ee4244b2c7c0f16519c23cc14a7b82022039f25cfb02a08743e7d6593046d8e8c85725783a6e4c6f197b94d225582891d501210306bd10995cf8321569d5ca3e494271948eebd54ae8db275719f6512449f9080e", "asm": "3045022100cc72193439e4e8ff1416a074ab57c77a28ee4244b2c7c0f16519c23cc14a7b82022039f25cfb02a08743e7d6593046d8e8c85725783a6e4c6f197b94d225582891d5[ALL] 0306bd10995cf8321569d5ca3e494271948eebd54ae8db275719f6512449f9080e"}, "vout": 1, "txid": "0c64fe2b321b74a32ee3a61ae349d138dc14036abcfdcc5be7a0847a85e8c464"}, {"sequence": 4294967295, "scriptSig": {"hex": "473044022028c791cce9d8603b2b56cb2a38931854e11bf8d72a8f7ef695cb841ec157fc0b02206ece07d7ad8dd5c4481e2674b1120dac5647c176692c60803a7fc910fccce39e012102869b97d06e4040ebf90078fda445444273f0699b39269f855df216122a165d62", "asm": "3044022028c791cce9d8603b2b56cb2a38931854e11bf8d72a8f7ef695cb841ec157fc0b02206ece07d7ad8dd5c4481e2674b1120dac5647c176692c60803a7fc910fccce39e[ALL] 02869b97d06e4040ebf90078fda445444273f0699b39269f855df216122a165d62"}, "vout": 1, "txid": "485c6ab456408ca3b428637dfa3812a13d54c133af5e868334e8f0a74ee9d214"}], "txid": "9ea94323f7c21ecf44afd313ba7580c43a52aa93cf2be1ebf4166ec936c137dd", "blocktime": 1537873282, "version": 1, "confirmations": 11484, "time": 1537873282, "locktime": 0, "vsize": 371, "size": 371}