{"hash": "0b18e2b4cc20edf0a4551ba79a741d913ed310ad988a2d87927713a91296f994", "blockhash": "0000000000000000000e13cef7c366c0283d82e591d1acd082e914b08063cdf1", "vout": [{"scriptPubKey": {"reqSigs": 1, "hex": "76a9148f4badfc353f791b4ecc8e5a42ada947f2bedbfd88ac", "addresses": ["1E4gHkBqjNuGZEMoY87tTHe1FaTp5dKqTW"], "asm": "OP_DUP OP_HASH160 8f4badfc353f791b4ecc8e5a42ada947f2bedbfd OP_EQUALVERIFY OP_CHECKSIG", "type": "pubkeyhash"}, "value": 20.0, "n": 0}, {"scriptPubKey": {"reqSigs": 1, "hex": "a914940123d338c3b2ece5b0ea6cb89fc724b69efaf187", "addresses": ["3FBbJ92WYmM4HwchsfAB8MX6j8b6gpK2sz"], "asm": "OP_HASH160 940123d338c3b2ece5b0ea6cb89fc724b69efaf1 OP_EQUAL", "type": "scripthash"}, "value": 19.99992209, "n": 1}], "hex": "01000000000101af596689b5b160cb8193f29c9f072adad31ee41ed590f2aa76b4901c6edad0e601000000232200201e73b48a0bda2b7682afbd26dfd80b5a57dd829c087d0cd13cc3634209a74601ffffffff0200943577000000001976a9148f4badfc353f791b4ecc8e5a42ada947f2bedbfd88ac917535770000000017a914940123d338c3b2ece5b0ea6cb89fc724b69efaf187040047304402205c5cb4b28dd650f69845715076cd8e72751161ca4c4c43be60ab8bf91bfb7dd1022002d6862a01f985530d1388fa9c66126b6b70d5a0f39cce72471d39d6416d9bad01483045022100b773a3961d36731ce3ac83a0770a61701bb9365f39c0aa8e32c096310dfd8dc102207ce15658b787bfa1395fb1603346d285f2c963355a75cb8f8fceb16bb42f6acc0169522102c10bab77d4eec1db56c0069845a6ae7c0d4ce5c98d176efffe3ee7190ba7aeac2102d9e1732983e5c687b207e8847fd5f7ff730f404d5154ae7e15500acbed4ff24e2103b6e2cc488d35b58e8900ac67ed840ecda2c71bd59682456979c1c165f9b2b3e853ae00000000", "vin": [{"txinwitness": ["", "304402205c5cb4b28dd650f69845715076cd8e72751161ca4c4c43be60ab8bf91bfb7dd1022002d6862a01f985530d1388fa9c66126b6b70d5a0f39cce72471d39d6416d9bad01", "3045022100b773a3961d36731ce3ac83a0770a61701bb9365f39c0aa8e32c096310dfd8dc102207ce15658b787bfa1395fb1603346d285f2c963355a75cb8f8fceb16bb42f6acc01", "522102c10bab77d4eec1db56c0069845a6ae7c0d4ce5c98d176efffe3ee7190ba7aeac2102d9e1732983e5c687b207e8847fd5f7ff730f404d5154ae7e15500acbed4ff24e2103b6e2cc488d35b58e8900ac67ed840ecda2c71bd59682456979c1c165f9b2b3e853ae"], "sequence": 4294967295, "scriptSig": {"hex": "2200201e73b48a0bda2b7682afbd26dfd80b5a57dd829c087d0cd13cc3634209a74601", "asm": "00201e73b48a0bda2b7682afbd26dfd80b5a57dd829c087d0cd13cc3634209a74601"}, "vout": 1, "txid": "e6d0da6e1c90b476aaf290d51ee41ed3da2a079f9cf29381cb60b1b5896659af"}], "txid": "9ead9a82f3cdedc49f764775102ce6137713ae097e2ffd0ca9eaf781dc62b469", "blocktime": 1537871767, "version": 1, "confirmations": 11493, "time": 1537871767, "locktime": 0, "vsize": 216, "size": 407}