{"hash": "9ebd10835cb4a8515ed1bad23991707f8a5257c1b0521234b8b2def426d22b1b", "blockhash": "0000000000000000000dcc0f55137456b1a82d3642486a52398922ac4d620174", "vout": [{"scriptPubKey": {"type": "nulldata", "hex": "6a4c50000077730001ee7b645c8358686cfded758086aeaeacb577c031fc3a016b46dc7dc7d0964b64bfe9d87d04855645d1eaa33a6dce5baa091b0614226c0856bdd4bc9a9526289ac0f6612cd74e33776ee4", "asm": "OP_RETURN 000077730001ee7b645c8358686cfded758086aeaeacb577c031fc3a016b46dc7dc7d0964b64bfe9d87d04855645d1eaa33a6dce5baa091b0614226c0856bdd4bc9a9526289ac0f6612cd74e33776ee4"}, "value": 0.0, "n": 0}, {"scriptPubKey": {"reqSigs": 1, "hex": "76a9144bb79a4de0202e3e46b2842bedfd331d4259b3ec88ac", "addresses": ["17uMdL9Hmp7AwBKzZx2ktY91sThBYsZG6f"], "asm": "OP_DUP OP_HASH160 4bb79a4de0202e3e46b2842bedfd331d4259b3ec OP_EQUALVERIFY OP_CHECKSIG", "type": "pubkeyhash"}, "value": 0.000847, "n": 1}], "hex": "0100000001fe85e431968a95b8c671c485daa6dbf04fb94ab0a0ae54580d8a9c369a3cce59000000006a473044022061f4e0a79d5d138253f13b8f2c9c8fe8e947589f271cf7ab772498925c52a7fa02203a24bb38860fa985c8a03db8b9beaf2ec13c82618dd4e4652e389eee48e741bd012102ac8ebdd942f0c4ba2813bf80a7de783f4501d14d0407c450950eb89264a4eb2dffffffff020000000000000000536a4c50000077730001ee7b645c8358686cfded758086aeaeacb577c031fc3a016b46dc7dc7d0964b64bfe9d87d04855645d1eaa33a6dce5baa091b0614226c0856bdd4bc9a9526289ac0f6612cd74e33776ee4dc4a0100000000001976a9144bb79a4de0202e3e46b2842bedfd331d4259b3ec88ac00000000", "vin": [{"sequence": 4294967295, "scriptSig": {"hex": "473044022061f4e0a79d5d138253f13b8f2c9c8fe8e947589f271cf7ab772498925c52a7fa02203a24bb38860fa985c8a03db8b9beaf2ec13c82618dd4e4652e389eee48e741bd012102ac8ebdd942f0c4ba2813bf80a7de783f4501d14d0407c450950eb89264a4eb2d", "asm": "3044022061f4e0a79d5d138253f13b8f2c9c8fe8e947589f271cf7ab772498925c52a7fa02203a24bb38860fa985c8a03db8b9beaf2ec13c82618dd4e4652e389eee48e741bd[ALL] 02ac8ebdd942f0c4ba2813bf80a7de783f4501d14d0407c450950eb89264a4eb2d"}, "vout": 0, "txid": "59ce3c9a369c8a0d5854aea0b04ab94ff0dba6da85c471c6b8958a9631e485fe"}], "txid": "9ebd10835cb4a8515ed1bad23991707f8a5257c1b0521234b8b2def426d22b1b", "blocktime": 1537870268, "version": 1, "confirmations": 11518, "time": 1537870268, "locktime": 0, "vsize": 283, "size": 283}