{"hash": "9e36585f051d5cdb9f3200aee327a3a91a0a6e4793fa335a5b7c191c9c337372", "blockhash": "0000000000000000001f76057863aec43deb6fa401d9628bb513d65a8098bfab", "vout": [{"scriptPubKey": {"reqSigs": 1, "hex": "76a91487217ef2c3faa256cd2a69b0ee1eae93edea8b6088ac", "addresses": ["1DKWMEV2mXPkrqxm1CWs36gkhyV65EPqe4"], "asm": "OP_DUP OP_HASH160 87217ef2c3faa256cd2a69b0ee1eae93edea8b60 OP_EQUALVERIFY OP_CHECKSIG", "type": "pubkeyhash"}, "value": 0.03, "n": 0}, {"scriptPubKey": {"reqSigs": 1, "hex": "76a914dbfa56367fbacf37ce2b8cfb7281fd153b21ba7588ac", "addresses": ["1M48siScXDtyfzAxVLMpgaobTPKfk8uS2Z"], "asm": "OP_DUP OP_HASH160 dbfa56367fbacf37ce2b8cfb7281fd153b21ba75 OP_EQUALVERIFY OP_CHECKSIG", "type": "pubkeyhash"}, "value": 0.0745, "n": 1}, {"scriptPubKey": {"reqSigs": 1, "hex": "76a9145ddbae006df6324bb2d731cd09696f45a77a5ca388ac", "addresses": ["19ZH1TGm8aBDRH8uAopE3bA3Ny4k89MmxQ"], "asm": "OP_DUP OP_HASH160 5ddbae006df6324bb2d731cd09696f45a77a5ca3 OP_EQUALVERIFY OP_CHECKSIG", "type": "pubkeyhash"}, "value": 0.0608, "n": 2}, {"scriptPubKey": {"reqSigs": 1, "hex": "a914fde30f310b3f88c63c7be72712ced94ecd873e2e87", "addresses": ["3QqStSGhRffLc8HeCCY6piL4LCLXmXwPry"], "asm": "OP_HASH160 fde30f310b3f88c63c7be72712ced94ecd873e2e OP_EQUAL", "type": "scripthash"}, "value": 0.125, "n": 3}, {"scriptPubKey": {"reqSigs": 1, "hex": "76a9149cbbd6b4c3e483bcfd6f6462becbc368fd8e6d5488ac", "addresses": ["1FHjSBqqRkdEyHK31SFb6CVA8hGMr5Q1oQ"], "asm": "OP_DUP OP_HASH160 9cbbd6b4c3e483bcfd6f6462becbc368fd8e6d54 OP_EQUALVERIFY OP_CHECKSIG", "type": "pubkeyhash"}, "value": 0.0089, "n": 4}, {"scriptPubKey": {"reqSigs": 1, "hex": "a914848f65d821320b330e2af27fa0e1a72fa902c4b587", "addresses": ["3DmvuKaoCr6NZ8WwMwtFqQjkDMinbxMLHg"], "asm": "OP_HASH160 848f65d821320b330e2af27fa0e1a72fa902c4b5 OP_EQUAL", "type": "scripthash"}, "value": 198.20235357, "n": 5}], "hex": "0100000000010141e7e889b924d0cefae48eead41e7c054795db68d62b2f0f547c2f4ab1718b0003000000171600142a1fb4f21b604dd19b016069ed27100044e91962ffffffff06c0c62d00000000001976a91487217ef2c3faa256cd2a69b0ee1eae93edea8b6088ac90ad7100000000001976a914dbfa56367fbacf37ce2b8cfb7281fd153b21ba7588ac00c65c00000000001976a9145ddbae006df6324bb2d731cd09696f45a77a5ca388ac20bcbe000000000017a914fde30f310b3f88c63c7be72712ced94ecd873e2e8790940d00000000001976a9149cbbd6b4c3e483bcfd6f6462becbc368fd8e6d5488ac5dca609d0400000017a914848f65d821320b330e2af27fa0e1a72fa902c4b587024730440220419f3463a2305e7fc95eeeec33577556d2233ac8cca2e893616c7db7b401462802206fca9171a53014c8ef0c3d06b1950d0ccdf78573483ecd50bdaf8f349a4b870001210276e2e2e95b3a442a0d2e655454a70a03167adda61a6bce61444ffae3c04cdc3b00000000", "vin": [{"txinwitness": ["30440220419f3463a2305e7fc95eeeec33577556d2233ac8cca2e893616c7db7b401462802206fca9171a53014c8ef0c3d06b1950d0ccdf78573483ecd50bdaf8f349a4b870001", "0276e2e2e95b3a442a0d2e655454a70a03167adda61a6bce61444ffae3c04cdc3b"], "sequence": 4294967295, "scriptSig": {"hex": "1600142a1fb4f21b604dd19b016069ed27100044e91962", "asm": "00142a1fb4f21b604dd19b016069ed27100044e91962"}, "vout": 3, "txid": "008b71b14a2f7c540f2f2bd668db9547057c1ed4ea8ee4faced024b989e8e741"}], "txid": "9ec40d6f3ee546014982f60973f5657e29d6ba3f9addba52311973798fc34719", "blocktime": 1537873891, "version": 1, "confirmations": 11477, "time": 1537873891, "locktime": 0, "vsize": 302, "size": 383}