{"hash": "9ec53113cd275fadc78f47990037bc96256f5fa95552839ceca121b129e10dbc", "blockhash": "0000000000000000000e13cef7c366c0283d82e591d1acd082e914b08063cdf1", "vout": [{"scriptPubKey": {"reqSigs": 1, "hex": "a91482eef3b1286357b3c0845664c2ccbd35264c4fd687", "addresses": ["3DdL29ndJidgxqdZSr2PEUMD2BwbNYoPzm"], "asm": "OP_HASH160 82eef3b1286357b3c0845664c2ccbd35264c4fd6 OP_EQUAL", "type": "scripthash"}, "value": 0.27995369, "n": 0}, {"scriptPubKey": {"reqSigs": 1, "hex": "76a914a6e673014ebd1081297bb075a48e23869ba9b71888ac", "addresses": ["1GDVEjnViP4jEQCCAotkbAGDgaV41rLEi9"], "asm": "OP_DUP OP_HASH160 a6e673014ebd1081297bb075a48e23869ba9b718 OP_EQUALVERIFY OP_CHECKSIG", "type": "pubkeyhash"}, "value": 0.01589641, "n": 1}], "hex": "0100000004f0a2677cbe49b68c06a5ce9c35a524200364ef7290aaf45476c947a5ea43ee9e00000000db00483045022100de7294a7d4fd1250cb9d5e02ac095960977c7857f8150e7d3d451e2f90e109e402205493f16de11234d0305a0efabd4bd880df586b9004f3b6aa88c710621b3e03b701483045022100ce4c93e6833ae52c268800a1d1ad4f103ff39df3ef36a5b4d110325aab271b44022063b98fb93e07f36c05938fb4abc5bedafe34334cfcecdd923baed38e303d0da40147522102907a54bed8ad74b3f35638c60114ca240a308cb986f3f2f306178869a8880b612103e57a15d8169813b8a40dc728592b648247276583e9b917036721e92a4684170d52aeffffffff9c2e31052ba053f78017ecea7d8c840e294de98237c8ebb3aec4de3bd5e9d3b900000000da00483045022100c349b29eb6cbcb0577dda5fb231c74b328d3d727aeba4294cae61b6febc5eded022008d979fe79300c5672cf187332b9adab9ddb2bb19b9bcccd488a11147f2c0b460147304402201865adc1654eac1486e6ce5948e141e78ed17c34e75616b49bf066964b9140e60220737a398c1cf4bc511f3ca212c7d51b2a982327af3ca938d2352318edef024f740147522102907a54bed8ad74b3f35638c60114ca240a308cb986f3f2f306178869a8880b612103948b36768dae83cb50e11774c8e110be852085aff5156eafaba860ef6168e02852aeffffffff68abee53c9767f0a861142fc17802905bf611a809f10c6ca0a8c05838e2f0e3600000000db00483045022100af201873081585a4212d3e046db7360687b8c06dcb30b4c9dfb839a850335d93022024c5841ca231b5a1698deaf239db793bcbadbf8dba3417e9736673d1b95867c301483045022100b72b1375bc971ceeb677c14b655d4fceb7997590874e070dc84c04f1152610450220648b98ecab1d7034354b880a75d2277340cc6c0a9e459a565fec121e215c815b0147522102907a54bed8ad74b3f35638c60114ca240a308cb986f3f2f306178869a8880b612103370319dd0e259fd56bc0dd61ef6c2e9cc2da302761dce485eb74c6c574752d6952aeffffffff17006d77987109056471ad01b226483cbce5f25924977899511e30ce9a0aeba8010000006a473044022036e26f02dbcf6cde0cc645d3c29be040b24f38c0c6b7322e37a3c8a1aa7cd00d0220674301d195ee6278508248bfebf3d7646277a12c5d21abcff72e0548c26be706012103a458d259101f24a1e3f4576c21d162ab8800a2c26c481248046a4b726d17deb9ffffffff02e92cab010000000017a91482eef3b1286357b3c0845664c2ccbd35264c4fd68789411800000000001976a914a6e673014ebd1081297bb075a48e23869ba9b71888ac00000000", "vin": [{"sequence": 4294967295, "scriptSig": {"hex": "00483045022100de7294a7d4fd1250cb9d5e02ac095960977c7857f8150e7d3d451e2f90e109e402205493f16de11234d0305a0efabd4bd880df586b9004f3b6aa88c710621b3e03b701483045022100ce4c93e6833ae52c268800a1d1ad4f103ff39df3ef36a5b4d110325aab271b44022063b98fb93e07f36c05938fb4abc5bedafe34334cfcecdd923baed38e303d0da40147522102907a54bed8ad74b3f35638c60114ca240a308cb986f3f2f306178869a8880b612103e57a15d8169813b8a40dc728592b648247276583e9b917036721e92a4684170d52ae", "asm": "0 3045022100de7294a7d4fd1250cb9d5e02ac095960977c7857f8150e7d3d451e2f90e109e402205493f16de11234d0305a0efabd4bd880df586b9004f3b6aa88c710621b3e03b7[ALL] 3045022100ce4c93e6833ae52c268800a1d1ad4f103ff39df3ef36a5b4d110325aab271b44022063b98fb93e07f36c05938fb4abc5bedafe34334cfcecdd923baed38e303d0da4[ALL] 522102907a54bed8ad74b3f35638c60114ca240a308cb986f3f2f306178869a8880b612103e57a15d8169813b8a40dc728592b648247276583e9b917036721e92a4684170d52ae"}, "vout": 0, "txid": "9eee43eaa547c97654f4aa9072ef64032024a5359ccea5068cb649be7c67a2f0"}, {"sequence": 4294967295, "scriptSig": {"hex": "00483045022100c349b29eb6cbcb0577dda5fb231c74b328d3d727aeba4294cae61b6febc5eded022008d979fe79300c5672cf187332b9adab9ddb2bb19b9bcccd488a11147f2c0b460147304402201865adc1654eac1486e6ce5948e141e78ed17c34e75616b49bf066964b9140e60220737a398c1cf4bc511f3ca212c7d51b2a982327af3ca938d2352318edef024f740147522102907a54bed8ad74b3f35638c60114ca240a308cb986f3f2f306178869a8880b612103948b36768dae83cb50e11774c8e110be852085aff5156eafaba860ef6168e02852ae", "asm": "0 3045022100c349b29eb6cbcb0577dda5fb231c74b328d3d727aeba4294cae61b6febc5eded022008d979fe79300c5672cf187332b9adab9ddb2bb19b9bcccd488a11147f2c0b46[ALL] 304402201865adc1654eac1486e6ce5948e141e78ed17c34e75616b49bf066964b9140e60220737a398c1cf4bc511f3ca212c7d51b2a982327af3ca938d2352318edef024f74[ALL] 522102907a54bed8ad74b3f35638c60114ca240a308cb986f3f2f306178869a8880b612103948b36768dae83cb50e11774c8e110be852085aff5156eafaba860ef6168e02852ae"}, "vout": 0, "txid": "b9d3e9d53bdec4aeb3ebc83782e94d290e848c7deaec1780f753a02b05312e9c"}, {"sequence": 4294967295, "scriptSig": {"hex": "00483045022100af201873081585a4212d3e046db7360687b8c06dcb30b4c9dfb839a850335d93022024c5841ca231b5a1698deaf239db793bcbadbf8dba3417e9736673d1b95867c301483045022100b72b1375bc971ceeb677c14b655d4fceb7997590874e070dc84c04f1152610450220648b98ecab1d7034354b880a75d2277340cc6c0a9e459a565fec121e215c815b0147522102907a54bed8ad74b3f35638c60114ca240a308cb986f3f2f306178869a8880b612103370319dd0e259fd56bc0dd61ef6c2e9cc2da302761dce485eb74c6c574752d6952ae", "asm": "0 3045022100af201873081585a4212d3e046db7360687b8c06dcb30b4c9dfb839a850335d93022024c5841ca231b5a1698deaf239db793bcbadbf8dba3417e9736673d1b95867c3[ALL] 3045022100b72b1375bc971ceeb677c14b655d4fceb7997590874e070dc84c04f1152610450220648b98ecab1d7034354b880a75d2277340cc6c0a9e459a565fec121e215c815b[ALL] 522102907a54bed8ad74b3f35638c60114ca240a308cb986f3f2f306178869a8880b612103370319dd0e259fd56bc0dd61ef6c2e9cc2da302761dce485eb74c6c574752d6952ae"}, "vout": 0, "txid": "360e2f8e83058c0acac6109f801a61bf05298017fc4211860a7f76c953eeab68"}, {"sequence": 4294967295, "scriptSig": {"hex": "473044022036e26f02dbcf6cde0cc645d3c29be040b24f38c0c6b7322e37a3c8a1aa7cd00d0220674301d195ee6278508248bfebf3d7646277a12c5d21abcff72e0548c26be706012103a458d259101f24a1e3f4576c21d162ab8800a2c26c481248046a4b726d17deb9", "asm": "3044022036e26f02dbcf6cde0cc645d3c29be040b24f38c0c6b7322e37a3c8a1aa7cd00d0220674301d195ee6278508248bfebf3d7646277a12c5d21abcff72e0548c26be706[ALL] 03a458d259101f24a1e3f4576c21d162ab8800a2c26c481248046a4b726d17deb9"}, "vout": 1, "txid": "a8eb0a9ace301e519978972459f2e5bc3c4826b201ad716405097198776d0017"}], "txid": "9ec53113cd275fadc78f47990037bc96256f5fa95552839ceca121b129e10dbc", "blocktime": 1537871767, "version": 1, "confirmations": 11495, "time": 1537871767, "locktime": 0, "vsize": 1002, "size": 1002}