{"hash": "b2b5cdb03d94a33f6516352c8bb0c7547442e2cf05c1f4270167cb3a9865cfdc", "blockhash": "0000000000000000001cda96e906b7601b7a6fb1a3b62bca570a9e5d8f4b3de1", "vout": [{"scriptPubKey": {"reqSigs": 1, "hex": "76a91423915ed9c19ed983799e6b89240813e09325e49388ac", "addresses": ["14F4oEaok5mybcBXGBGXjs1xN2GHxnC6fj"], "asm": "OP_DUP OP_HASH160 23915ed9c19ed983799e6b89240813e09325e493 OP_EQUALVERIFY OP_CHECKSIG", "type": "pubkeyhash"}, "value": 0.00993049, "n": 0}, {"scriptPubKey": {"reqSigs": 1, "hex": "a91450b56b17f390c49315ee83e1f4908670d988f32a87", "addresses": ["393mK4G7MuWSPPMs6sgVFhwdSA16rAG8nw"], "asm": "OP_HASH160 50b56b17f390c49315ee83e1f4908670d988f32a OP_EQUAL", "type": "scripthash"}, "value": 0.67658576, "n": 1}], "hex": "020000000001041f67e30573c52c0c6143671b7442d564f099e7a899bfa782550db55261fb3d2d0000000017160014bed2a8f0717940646ba6f87b021e7e5edcb6320ffeffffff469b89bff2dcf34e4bf8f19a98e02d0716c0b17c658cbca96cddd5324660ee2c00000000171600148a4ccaeed1d84a0a4dfeb1751d729ea5fd8e0d08feffffff85062a795680750eb6b7a20587d2fe9a4c1d24c73b375fd9d2620a624c9545dc000000006b483045022100f28a36d621af3224ee261847df8bdbb7330cda498b71b54c1f3d6788bcab95560220649613cda2dd0219747db08b83ec061326a026ff295d245ab87c3dac9a7aea86012103e5a5a1a7e6ea9c7502142884f20f7ec018300e8c7cededaecad448cab00d853bfefffffff2fb3e70be347ec1d6c818a77e89ac56c5cf29ef6dfbfd488e7b2f422cb75f0301000000171600144794296722171371858bea9200d8bf0e7f3eac57feffffff0219270f00000000001976a91423915ed9c19ed983799e6b89240813e09325e49388ac506308040000000017a91450b56b17f390c49315ee83e1f4908670d988f32a870247304402204c899700f16642b0db71d412de6150c7d4bbef367b4733756d38cdd9c39e3a6f02202a459823672bec9636eb92b4d8eeba693fbab558a8eac09d39d2760a170ec79601210308bc99446cc44217eddd0c57566c105337e52a69df7fc3aa54ceb7609348190d02473044022056698834d3bf4bb113538787f259a11a239c20793bdfc9712b0fece3874d2a000220747d28d7eb02fb50ed74b0d28655db02c4349033e477fee70167b413b6a230370121037a47069b8c68dba77aecfd8085b3cf76eaee79d2cf389216cba6a256c127dad60002483045022100c1305b867d4592d50b3202b77e5c6b4b52b21804af7bc2a36ac211a100671db2022076c1f0f4a2fa49d1d0725556e01b2848aa90e45e0d3ec6a4f9214ed3fa8edfa0012103084a7c12c6ec8429a8444689e8926e24e7b075783000ee6f821667586af059a913490800", "vin": [{"txinwitness": ["304402204c899700f16642b0db71d412de6150c7d4bbef367b4733756d38cdd9c39e3a6f02202a459823672bec9636eb92b4d8eeba693fbab558a8eac09d39d2760a170ec79601", "0308bc99446cc44217eddd0c57566c105337e52a69df7fc3aa54ceb7609348190d"], "sequence": 4294967294, "scriptSig": {"hex": "160014bed2a8f0717940646ba6f87b021e7e5edcb6320f", "asm": "0014bed2a8f0717940646ba6f87b021e7e5edcb6320f"}, "vout": 0, "txid": "2d3dfb6152b50d5582a7bf99a8e799f064d542741b6743610c2cc57305e3671f"}, {"txinwitness": ["3044022056698834d3bf4bb113538787f259a11a239c20793bdfc9712b0fece3874d2a000220747d28d7eb02fb50ed74b0d28655db02c4349033e477fee70167b413b6a2303701", "037a47069b8c68dba77aecfd8085b3cf76eaee79d2cf389216cba6a256c127dad6"], "sequence": 4294967294, "scriptSig": {"hex": "1600148a4ccaeed1d84a0a4dfeb1751d729ea5fd8e0d08", "asm": "00148a4ccaeed1d84a0a4dfeb1751d729ea5fd8e0d08"}, "vout": 0, "txid": "2cee604632d5dd6ca9bc8c657cb1c016072de0989af1f84b4ef3dcf2bf899b46"}, {"sequence": 4294967294, "scriptSig": {"hex": "483045022100f28a36d621af3224ee261847df8bdbb7330cda498b71b54c1f3d6788bcab95560220649613cda2dd0219747db08b83ec061326a026ff295d245ab87c3dac9a7aea86012103e5a5a1a7e6ea9c7502142884f20f7ec018300e8c7cededaecad448cab00d853b", "asm": "3045022100f28a36d621af3224ee261847df8bdbb7330cda498b71b54c1f3d6788bcab95560220649613cda2dd0219747db08b83ec061326a026ff295d245ab87c3dac9a7aea86[ALL] 03e5a5a1a7e6ea9c7502142884f20f7ec018300e8c7cededaecad448cab00d853b"}, "vout": 0, "txid": "dc45954c620a62d2d95f373bc7241d4c9afed28705a2b7b60e758056792a0685"}, {"txinwitness": ["3045022100c1305b867d4592d50b3202b77e5c6b4b52b21804af7bc2a36ac211a100671db2022076c1f0f4a2fa49d1d0725556e01b2848aa90e45e0d3ec6a4f9214ed3fa8edfa001", "03084a7c12c6ec8429a8444689e8926e24e7b075783000ee6f821667586af059a9"], "sequence": 4294967294, "scriptSig": {"hex": "1600144794296722171371858bea9200d8bf0e7f3eac57", "asm": "00144794296722171371858bea9200d8bf0e7f3eac57"}, "vout": 1, "txid": "035fb72c422f7b8e48fdfb6def29cfc556ac897ea718c8d6c17e34be703efbf2"}], "txid": "9ec7f086687f7ff90c30bd5b46f6e242620afcb4697e7188d3077ad58b47195f", "blocktime": 1537873282, "version": 2, "confirmations": 11480, "time": 1537873282, "locktime": 542995, "vsize": 498, "size": 741}