{"hash": "9eca69bf392f5b3715710dc3dfece10aabdf65cc1e8c011d6985b08c81916347", "blockhash": "0000000000000000000baef3f32e3676a92c3b2e5da21b426e4f302fc371ce76", "vout": [{"scriptPubKey": {"reqSigs": 1, "hex": "76a9149b2df0966e8cb97b9299a8377bf1e8495abb948088ac", "addresses": ["1F9WmgpvLyry8y45pUCZ59pse3c1Q9MYvG"], "asm": "OP_DUP OP_HASH160 9b2df0966e8cb97b9299a8377bf1e8495abb9480 OP_EQUALVERIFY OP_CHECKSIG", "type": "pubkeyhash"}, "value": 0.0434661, "n": 0}, {"scriptPubKey": {"reqSigs": 1, "hex": "76a914f7502ebc146d5a5b525eca745e9add39fefd383b88ac", "addresses": ["1PYfxZhrdGqovVYifDeExUQj6QB988vaR4"], "asm": "OP_DUP OP_HASH160 f7502ebc146d5a5b525eca745e9add39fefd383b OP_EQUALVERIFY OP_CHECKSIG", "type": "pubkeyhash"}, "value": 0.0265, "n": 1}], "hex": "0200000001f5c5bbe81e59e808064436b7fd350c0c0213fcde68d11bc225f360bc9f53fc51000000006b483045022100d0a64468601f20cf23dfe41b03b72ea2b7e550d3ba7f5a66dd7bce8b6ca700ee02206402c3a88f443e6fcf89df5c9da38ad0f49e6ab61de0c4b031e64ef6daca0fd2012102a5c1949f150a98475ec0444243358b3e49c97a5c919e7592ae65e5703c388457feffffff02f2524200000000001976a9149b2df0966e8cb97b9299a8377bf1e8495abb948088ac906f2800000000001976a914f7502ebc146d5a5b525eca745e9add39fefd383b88ac17490800", "vin": [{"sequence": 4294967294, "scriptSig": {"hex": "483045022100d0a64468601f20cf23dfe41b03b72ea2b7e550d3ba7f5a66dd7bce8b6ca700ee02206402c3a88f443e6fcf89df5c9da38ad0f49e6ab61de0c4b031e64ef6daca0fd2012102a5c1949f150a98475ec0444243358b3e49c97a5c919e7592ae65e5703c388457", "asm": "3045022100d0a64468601f20cf23dfe41b03b72ea2b7e550d3ba7f5a66dd7bce8b6ca700ee02206402c3a88f443e6fcf89df5c9da38ad0f49e6ab61de0c4b031e64ef6daca0fd2[ALL] 02a5c1949f150a98475ec0444243358b3e49c97a5c919e7592ae65e5703c388457"}, "vout": 0, "txid": "51fc539fbc60f325c21bd168defc13020c0c35fdb736440608e8591ee8bbc5f5"}], "txid": "9eca69bf392f5b3715710dc3dfece10aabdf65cc1e8c011d6985b08c81916347", "blocktime": 1537876114, "version": 2, "confirmations": 11459, "time": 1537876114, "locktime": 542999, "vsize": 226, "size": 226}