{"hash": "9ecbcd55752d4030c7c15fe8b25646144308e5c925f91d6ff6da5939ffbbe47a", "blockhash": "000000000000000000205f8b0775d31398ef75b89a5e8ec8d2c57b4dc0ac4c20", "vout": [{"scriptPubKey": {"reqSigs": 1, "hex": "76a914ab858292b6a542168d517ea2e1a1c9605b00a92288ac", "addresses": ["1GdvVF9mCZfyMoPR8Uoqt76MddRMLjkZNW"], "asm": "OP_DUP OP_HASH160 ab858292b6a542168d517ea2e1a1c9605b00a922 OP_EQUALVERIFY OP_CHECKSIG", "type": "pubkeyhash"}, "value": 0.0225, "n": 0}, {"scriptPubKey": {"reqSigs": 1, "hex": "76a91447f319d188a48558daa509f6e23392b5c410202688ac", "addresses": ["17ZSCZgCmnjotqTpwYW3bdugAkNxxT2hYb"], "asm": "OP_DUP OP_HASH160 47f319d188a48558daa509f6e23392b5c4102026 OP_EQUALVERIFY OP_CHECKSIG", "type": "pubkeyhash"}, "value": 0.13128909, "n": 1}], "hex": "02000000060a25b63da647701cb8c33df3208305fced07987834b6cc613c806c97a66db930000000006a4730440220153bd46803dd72912ea5667622cd45b08928dc64f7b91a37c37f46c9376a49ce022016f563de82d32f3e0e5d8bd2b05483c26073b0a570fc530139f5676d7736f8420121038d9f8443bd8da858ace629e6f741e3a05260793d25a898095292d2b6add9aa0fffffffff7f803f7e022f5381cb54a48f56fb174bb943e9639b68b1fe02838007b741ee9eb00300006a47304402202b8f14f08039a8bbef0a2ee1b05fa3891755b032ea39836353704e4f442e32e90220231be23103d761da928a21e9915b04c2a15d7baea0fcfe3072012c309061cfab012102bbf855bc131b26e5e23baebaa304b996a70d7c813ad4c7ef4678e4d1ae6f663affffffffb85b775c3d502365a42a4000aef31fbd877ed4e353c64026cccb5e5701fe950f000000006a473044022017075825aff06e878045ae41cda9deb594ee4e0e6c55f3882dc6b25fd8f9ffd602203f6293eae13b12e6812012623661f5d4c4131eee65529ebb33ae793fa9234ca601210286dcc461c0dbd23daddb889b788e19c2647729868d221b6d4aca8cd6af52e05affffffff9f600c8992482d3b45368625f030987ca4ab7548e25a9183ce2828bc614c64f5010000006a473044022061b39c2397630bc8b9a868ce7b0fc851d0b3d93349f225d83461fb1e56fdc65302204e5a43f61004d3e1ff5e7c8b406de7a9f0fc03c05528c28bbcd4d0b69d7c26860121033a445acbae9c8862de6723b9f5d36ce74a35f1d219c4f91aeb0d093ebfdd4730ffffffff301d909f1e2fdd3a9e393e5d30cb7593514b051838f9f189742fe4dd4f8b3f46010000006a47304402206d5c99e86510d07235bf009cd1eb8a69c7209fe4815483ac95faf12f1ad4b4ec0220701bdee2e3aa09f040cd3aa3ba4410101b74a6ceb1c269d886abc9895128a187012103430ec9dc822fb4d76b96cc9980f4b1059108c5a4b6e0348447fa52b32468691fffffffffcf841838acb9f4d9528b728f124084c6613aff3ff35011cec1969883055a597a2a0000006b4830450221008931a7e800b567385729e568cd9312cfcf470b5d87360d907681360c22e6cd7d02205b764e43a3d4d5ea5874c91f9369e8d14265c0912171355153c9def09a14c235012103e3c818ec95d8c680495d53624aa6d3d116fa33a2cc8fb882a85784951e055aa4ffffffff0210552200000000001976a914ab858292b6a542168d517ea2e1a1c9605b00a92288accd54c800000000001976a91447f319d188a48558daa509f6e23392b5c410202688ac00000000", "vin": [{"sequence": 4294967295, "scriptSig": {"hex": "4730440220153bd46803dd72912ea5667622cd45b08928dc64f7b91a37c37f46c9376a49ce022016f563de82d32f3e0e5d8bd2b05483c26073b0a570fc530139f5676d7736f8420121038d9f8443bd8da858ace629e6f741e3a05260793d25a898095292d2b6add9aa0f", "asm": "30440220153bd46803dd72912ea5667622cd45b08928dc64f7b91a37c37f46c9376a49ce022016f563de82d32f3e0e5d8bd2b05483c26073b0a570fc530139f5676d7736f842[ALL] 038d9f8443bd8da858ace629e6f741e3a05260793d25a898095292d2b6add9aa0f"}, "vout": 0, "txid": "30b96da6976c803c61ccb634789807edfc058320f33dc3b81c7047a63db6250a"}, {"sequence": 4294967295, "scriptSig": {"hex": "47304402202b8f14f08039a8bbef0a2ee1b05fa3891755b032ea39836353704e4f442e32e90220231be23103d761da928a21e9915b04c2a15d7baea0fcfe3072012c309061cfab012102bbf855bc131b26e5e23baebaa304b996a70d7c813ad4c7ef4678e4d1ae6f663a", "asm": "304402202b8f14f08039a8bbef0a2ee1b05fa3891755b032ea39836353704e4f442e32e90220231be23103d761da928a21e9915b04c2a15d7baea0fcfe3072012c309061cfab[ALL] 02bbf855bc131b26e5e23baebaa304b996a70d7c813ad4c7ef4678e4d1ae6f663a"}, "vout": 944, "txid": "9eee41b707808302feb1689b63e943b94b17fb568fa454cb81532f027e3f807f"}, {"sequence": 4294967295, "scriptSig": {"hex": "473044022017075825aff06e878045ae41cda9deb594ee4e0e6c55f3882dc6b25fd8f9ffd602203f6293eae13b12e6812012623661f5d4c4131eee65529ebb33ae793fa9234ca601210286dcc461c0dbd23daddb889b788e19c2647729868d221b6d4aca8cd6af52e05a", "asm": "3044022017075825aff06e878045ae41cda9deb594ee4e0e6c55f3882dc6b25fd8f9ffd602203f6293eae13b12e6812012623661f5d4c4131eee65529ebb33ae793fa9234ca6[ALL] 0286dcc461c0dbd23daddb889b788e19c2647729868d221b6d4aca8cd6af52e05a"}, "vout": 0, "txid": "0f95fe01575ecbcc2640c653e3d47e87bd1ff3ae00402aa46523503d5c775bb8"}, {"sequence": 4294967295, "scriptSig": {"hex": "473044022061b39c2397630bc8b9a868ce7b0fc851d0b3d93349f225d83461fb1e56fdc65302204e5a43f61004d3e1ff5e7c8b406de7a9f0fc03c05528c28bbcd4d0b69d7c26860121033a445acbae9c8862de6723b9f5d36ce74a35f1d219c4f91aeb0d093ebfdd4730", "asm": "3044022061b39c2397630bc8b9a868ce7b0fc851d0b3d93349f225d83461fb1e56fdc65302204e5a43f61004d3e1ff5e7c8b406de7a9f0fc03c05528c28bbcd4d0b69d7c2686[ALL] 033a445acbae9c8862de6723b9f5d36ce74a35f1d219c4f91aeb0d093ebfdd4730"}, "vout": 1, "txid": "f5644c61bc2828ce83915ae24875aba47c9830f0258636453b2d4892890c609f"}, {"sequence": 4294967295, "scriptSig": {"hex": "47304402206d5c99e86510d07235bf009cd1eb8a69c7209fe4815483ac95faf12f1ad4b4ec0220701bdee2e3aa09f040cd3aa3ba4410101b74a6ceb1c269d886abc9895128a187012103430ec9dc822fb4d76b96cc9980f4b1059108c5a4b6e0348447fa52b32468691f", "asm": "304402206d5c99e86510d07235bf009cd1eb8a69c7209fe4815483ac95faf12f1ad4b4ec0220701bdee2e3aa09f040cd3aa3ba4410101b74a6ceb1c269d886abc9895128a187[ALL] 03430ec9dc822fb4d76b96cc9980f4b1059108c5a4b6e0348447fa52b32468691f"}, "vout": 1, "txid": "463f8b4fdde42f7489f1f93818054b519375cb305d3e399e3add2f1e9f901d30"}, {"sequence": 4294967295, "scriptSig": {"hex": "4830450221008931a7e800b567385729e568cd9312cfcf470b5d87360d907681360c22e6cd7d02205b764e43a3d4d5ea5874c91f9369e8d14265c0912171355153c9def09a14c235012103e3c818ec95d8c680495d53624aa6d3d116fa33a2cc8fb882a85784951e055aa4", "asm": "30450221008931a7e800b567385729e568cd9312cfcf470b5d87360d907681360c22e6cd7d02205b764e43a3d4d5ea5874c91f9369e8d14265c0912171355153c9def09a14c235[ALL] 03e3c818ec95d8c680495d53624aa6d3d116fa33a2cc8fb882a85784951e055aa4"}, "vout": 42, "txid": "7a595a05839896c1ce1150f33fff3a61c68440128f728b52d9f4b9ac381884cf"}], "txid": "9ecbcd55752d4030c7c15fe8b25646144308e5c925f91d6ff6da5939ffbbe47a", "blocktime": 1537871175, "version": 2, "confirmations": 11511, "time": 1537871175, "locktime": 0, "vsize": 961, "size": 961}