{"hash": "9eced3a538f501ddc55ef3b270c0c4fa6a912a7f39d2d749722460d16947bd9b", "blockhash": "0000000000000000001cda96e906b7601b7a6fb1a3b62bca570a9e5d8f4b3de1", "vout": [{"scriptPubKey": {"type": "nulldata", "hex": "6a146f6d6e69000000000000001f00000075e6010480", "asm": "OP_RETURN 6f6d6e69000000000000001f00000075e6010480"}, "value": 0.0, "n": 0}, {"scriptPubKey": {"reqSigs": 1, "hex": "76a914a25dec4d0011064ef106a983c39c7a540699f22088ac", "addresses": ["1FoWyxwPXuj4C6abqwhjDWdz6D4PZgYRjA"], "asm": "OP_DUP OP_HASH160 a25dec4d0011064ef106a983c39c7a540699f220 OP_EQUALVERIFY OP_CHECKSIG", "type": "pubkeyhash"}, "value": 0.01995188, "n": 1}, {"scriptPubKey": {"reqSigs": 1, "hex": "76a914c63ce524f370e0b9a72d28f7418872f1bcd3630288ac", "addresses": ["1K5Bk3mpFE3SbALhsABaPZNKrNwh4DEof6"], "asm": "OP_DUP OP_HASH160 c63ce524f370e0b9a72d28f7418872f1bcd36302 OP_EQUALVERIFY OP_CHECKSIG", "type": "pubkeyhash"}, "value": 5.46e-06, "n": 2}], "hex": "0100000001a44813c76173a4fe9689194c29809e35be05f1741d9b5e1e9e8bd44070ac1fea7e0000006a47304402202a234d502124ab2f5f1f120b30bfa46905ace20aeef4c123a29d52d5ab040c1c022010b82211f126fde15fc90777df95e2884ba858e37b0b180ec3988048e2108aba012103da5bac7b36d5aa38f531c6b9601e21bb598a4b6716ebed38b009a55dabde9440feffffff030000000000000000166a146f6d6e69000000000000001f00000075e6010480b4711e00000000001976a914a25dec4d0011064ef106a983c39c7a540699f22088ac22020000000000001976a914c63ce524f370e0b9a72d28f7418872f1bcd3630288ac13490800", "vin": [{"sequence": 4294967294, "scriptSig": {"hex": "47304402202a234d502124ab2f5f1f120b30bfa46905ace20aeef4c123a29d52d5ab040c1c022010b82211f126fde15fc90777df95e2884ba858e37b0b180ec3988048e2108aba012103da5bac7b36d5aa38f531c6b9601e21bb598a4b6716ebed38b009a55dabde9440", "asm": "304402202a234d502124ab2f5f1f120b30bfa46905ace20aeef4c123a29d52d5ab040c1c022010b82211f126fde15fc90777df95e2884ba858e37b0b180ec3988048e2108aba[ALL] 03da5bac7b36d5aa38f531c6b9601e21bb598a4b6716ebed38b009a55dabde9440"}, "vout": 126, "txid": "ea1fac7040d48b9e1e5e9b1d74f105be359e80294c198996fea47361c71348a4"}], "txid": "9eced3a538f501ddc55ef3b270c0c4fa6a912a7f39d2d749722460d16947bd9b", "blocktime": 1537873282, "version": 1, "confirmations": 11481, "time": 1537873282, "locktime": 542995, "vsize": 256, "size": 256}