{"hash": "9ecf18175227effe7872d67527a07b27a6eb6b654f5c039fb958858bdbfff3fb", "blockhash": "0000000000000000001e0dab787dd257d1dbfcb92a98c2207d5e1078be1f4165", "vout": [{"scriptPubKey": {"reqSigs": 1, "hex": "a914cc7e847c82667bc33fed0dc79140c8d4e37a521e87", "addresses": ["3LLHLGYpYhShuCr9zSocf272EmfmHvoacN"], "asm": "OP_HASH160 cc7e847c82667bc33fed0dc79140c8d4e37a521e OP_EQUAL", "type": "scripthash"}, "value": 0.00267467, "n": 0}, {"scriptPubKey": {"reqSigs": 1, "hex": "76a914211cb7f4f2a55dbf57ab9fcdb2c7f19c29a3e27888ac", "addresses": ["1425hjUrbp5AdgszvMJoPjMsj746CogB4w"], "asm": "OP_DUP OP_HASH160 211cb7f4f2a55dbf57ab9fcdb2c7f19c29a3e278 OP_EQUALVERIFY OP_CHECKSIG", "type": "pubkeyhash"}, "value": 0.05155223, "n": 1}], "hex": "01000000014f91ea5d94089af07e5ce1fc950b1d8876bdee101074471e98999b2bb2778b41010000006b483045022100f1dd760b8ca851fc9b83d144ffe5d5ca48ca8caf169f59a008fe70aa2bf0738102207ebaa2525d442b8e02a74e17aec87503ddc47cba41230e46067a4c9c41a94fe6012103e8a0d148cc028b4b6b5f50ce0e9bbac4237d73aacc20df8ea9f9a6de6afa6f81ffffffff02cb1404000000000017a914cc7e847c82667bc33fed0dc79140c8d4e37a521e8797a94e00000000001976a914211cb7f4f2a55dbf57ab9fcdb2c7f19c29a3e27888ac00000000", "vin": [{"sequence": 4294967295, "scriptSig": {"hex": "483045022100f1dd760b8ca851fc9b83d144ffe5d5ca48ca8caf169f59a008fe70aa2bf0738102207ebaa2525d442b8e02a74e17aec87503ddc47cba41230e46067a4c9c41a94fe6012103e8a0d148cc028b4b6b5f50ce0e9bbac4237d73aacc20df8ea9f9a6de6afa6f81", "asm": "3045022100f1dd760b8ca851fc9b83d144ffe5d5ca48ca8caf169f59a008fe70aa2bf0738102207ebaa2525d442b8e02a74e17aec87503ddc47cba41230e46067a4c9c41a94fe6[ALL] 03e8a0d148cc028b4b6b5f50ce0e9bbac4237d73aacc20df8ea9f9a6de6afa6f81"}, "vout": 1, "txid": "418b77b22b9b99981e47741010eebd76881d0b95fce15c7ef09a08945dea914f"}], "txid": "9ecf18175227effe7872d67527a07b27a6eb6b654f5c039fb958858bdbfff3fb", "blocktime": 1537872475, "version": 1, "confirmations": 11486, "time": 1537872475, "locktime": 0, "vsize": 224, "size": 224}