{"hash": "9edfefecd5cdd9e1e06c032be5282e1f4e3283c848a1b608a4305bb9c28b04b9", "blockhash": "0000000000000000000baef3f32e3676a92c3b2e5da21b426e4f302fc371ce76", "vout": [{"scriptPubKey": {"type": "nulldata", "hex": "6a4c500000782e0001a6b11546b730e919c79435fb27b7256b4774d339f6019d6ddc0f1b8ff117b259e1565ec32df7897c670b0d45c17a5baa1f5a06138dcb101615ee1d100759d4ba30d2c37bb011d97e02cf", "asm": "OP_RETURN 0000782e0001a6b11546b730e919c79435fb27b7256b4774d339f6019d6ddc0f1b8ff117b259e1565ec32df7897c670b0d45c17a5baa1f5a06138dcb101615ee1d100759d4ba30d2c37bb011d97e02cf"}, "value": 0.0, "n": 0}, {"scriptPubKey": {"reqSigs": 1, "hex": "76a914f93a9fd28d69c1d65f7c2851acfa5be3694ecf5488ac", "addresses": ["1PioV48fK8wpd3Y1tgKEz6sXmQRVd3YnSn"], "asm": "OP_DUP OP_HASH160 f93a9fd28d69c1d65f7c2851acfa5be3694ecf54 OP_EQUALVERIFY OP_CHECKSIG", "type": "pubkeyhash"}, "value": 0.00627831, "n": 1}], "hex": "01000000012e12e89fabe4c264c4dced108ad7511098fe6f0bd4f173d42afe8ec1ac5a7ed5010000006b483045022100ad99c2715f7c84e3e833d21b696284d728c90859493c36bd8ccfd52e31a4c6450220525a6e50141addaa30b9a46d6f6bdfd5d760e3face9b837f92b7eb31de555a78012102ad064b8bc4db2ade6a82030aba19c6ebff00952f61ef6359585042fd5cb02056ffffffff020000000000000000536a4c500000782e0001a6b11546b730e919c79435fb27b7256b4774d339f6019d6ddc0f1b8ff117b259e1565ec32df7897c670b0d45c17a5baa1f5a06138dcb101615ee1d100759d4ba30d2c37bb011d97e02cf77940900000000001976a914f93a9fd28d69c1d65f7c2851acfa5be3694ecf5488ac00000000", "vin": [{"sequence": 4294967295, "scriptSig": {"hex": "483045022100ad99c2715f7c84e3e833d21b696284d728c90859493c36bd8ccfd52e31a4c6450220525a6e50141addaa30b9a46d6f6bdfd5d760e3face9b837f92b7eb31de555a78012102ad064b8bc4db2ade6a82030aba19c6ebff00952f61ef6359585042fd5cb02056", "asm": "3045022100ad99c2715f7c84e3e833d21b696284d728c90859493c36bd8ccfd52e31a4c6450220525a6e50141addaa30b9a46d6f6bdfd5d760e3face9b837f92b7eb31de555a78[ALL] 02ad064b8bc4db2ade6a82030aba19c6ebff00952f61ef6359585042fd5cb02056"}, "vout": 1, "txid": "d57e5aacc18efe2ad473f1d40b6ffe981051d78a10eddcc464c2e4ab9fe8122e"}], "txid": "9edfefecd5cdd9e1e06c032be5282e1f4e3283c848a1b608a4305bb9c28b04b9", "blocktime": 1537876114, "version": 1, "confirmations": 11462, "time": 1537876114, "locktime": 0, "vsize": 284, "size": 284}