{"hash": "558531bbd5e6b83eae6d5bf0176a80d9111f7304d790b310aed1a0b6cab86503", "blockhash": "00000000000000000017f5eb5941039fbcee6240d03bc1f2f8e35350df66a1d8", "vout": [{"scriptPubKey": {"reqSigs": 1, "hex": "a91402a42ee6aba310676bfb905c536f23742d8a453c87", "addresses": ["31vyxaQ5pyU18ZjXtVxd8EgiwocoCQY9BT"], "asm": "OP_HASH160 02a42ee6aba310676bfb905c536f23742d8a453c OP_EQUAL", "type": "scripthash"}, "value": 0.01000903, "n": 0}, {"scriptPubKey": {"reqSigs": 1, "hex": "76a914381ea480d014a101835697c0413ed17a9980389d88ac", "addresses": ["167jYpy6GyAKBTzveiB7iLbrDfuKYA5u7q"], "asm": "OP_DUP OP_HASH160 381ea480d014a101835697c0413ed17a9980389d OP_EQUALVERIFY OP_CHECKSIG", "type": "pubkeyhash"}, "value": 0.10450841, "n": 1}], "hex": "02000000000102087fd32c60efd598fb8592aa145738c5cacb44bebc6a6edefa8f1641568419010100000017160014ccc732ef26c0e97739ef71bf6dfacce8c9d0b4cbfeffffffbed3b06e563a1799d19c449b46aad3024374b2e0edbbca57fc915a7485c2c4310000000017160014f05591e643f7897531957e9c09d777261598f13cfeffffff02c7450f000000000017a91402a42ee6aba310676bfb905c536f23742d8a453c8799779f00000000001976a914381ea480d014a101835697c0413ed17a9980389d88ac02483045022100e35ed6502fa72de1289dc04b11876fc26058636f628f10722ea93ba4cb58dea902203975c1df90ad4807f224d270d5a17a0376fef623d52479dcce2e1291dec1b28b012103f7c0fdd4196e783819e082ade17ab5f2f6225ba2e40a8a082e2d7632b3d6f56902473044022007214604c2dcac14ba3d3c7e6f6f539bd402520ff423920cfb0681dabf0882f002203715f7a4336b22e90bee73e56a1a57f3cc65b9da8e33b023cbbf38b83a6bc5be012102bfba2ebdc7567f29235c2a2613dcfebee157e5cbd2896ee15c2ae16f534ac85515490800", "vin": [{"txinwitness": ["3045022100e35ed6502fa72de1289dc04b11876fc26058636f628f10722ea93ba4cb58dea902203975c1df90ad4807f224d270d5a17a0376fef623d52479dcce2e1291dec1b28b01", "03f7c0fdd4196e783819e082ade17ab5f2f6225ba2e40a8a082e2d7632b3d6f569"], "sequence": 4294967294, "scriptSig": {"hex": "160014ccc732ef26c0e97739ef71bf6dfacce8c9d0b4cb", "asm": "0014ccc732ef26c0e97739ef71bf6dfacce8c9d0b4cb"}, "vout": 1, "txid": "0119845641168ffade6e6abcbe44cbcac5385714aa9285fb98d5ef602cd37f08"}, {"txinwitness": ["3044022007214604c2dcac14ba3d3c7e6f6f539bd402520ff423920cfb0681dabf0882f002203715f7a4336b22e90bee73e56a1a57f3cc65b9da8e33b023cbbf38b83a6bc5be01", "02bfba2ebdc7567f29235c2a2613dcfebee157e5cbd2896ee15c2ae16f534ac855"], "sequence": 4294967294, "scriptSig": {"hex": "160014f05591e643f7897531957e9c09d777261598f13c", "asm": "0014f05591e643f7897531957e9c09d777261598f13c"}, "vout": 0, "txid": "31c4c285745a91fc57cabbede0b2744302d3aa469b449cd199173a566eb0d3be"}], "txid": "9edfd69d7467a0199519772ae8087b7587e0988eaa1877da651670b20c781851", "blocktime": 1537874412, "version": 2, "confirmations": 11467, "time": 1537874412, "locktime": 542997, "vsize": 259, "size": 421}