{"hash": "9ee1d24e96109accd2b747def12efd530f9cf6e68d81a78e21e8a25b0a722e2e", "blockhash": "0000000000000000001cda96e906b7601b7a6fb1a3b62bca570a9e5d8f4b3de1", "vout": [{"scriptPubKey": {"reqSigs": 1, "hex": "76a9140573fbf13115d5540037279de83864b62a35771088ac", "addresses": ["1VqKgPWqC4gSSa3V4WYF1T4jveh7quaS8"], "asm": "OP_DUP OP_HASH160 0573fbf13115d5540037279de83864b62a357710 OP_EQUALVERIFY OP_CHECKSIG", "type": "pubkeyhash"}, "value": 0.13544898, "n": 0}, {"scriptPubKey": {"reqSigs": 1, "hex": "a914ca86fdcc1e37b6ccda550dbc6830b42ae60fba9287", "addresses": ["3L9t8fEsf5iGiR3C9AzddPJ1NxMqyoN3vB"], "asm": "OP_HASH160 ca86fdcc1e37b6ccda550dbc6830b42ae60fba92 OP_EQUAL", "type": "scripthash"}, "value": 0.10489145, "n": 1}], "hex": "01000000019db3a06301ae01cc83a8fbb95ee0bb7f0e446b8bde63b9ee2f8391b647a4102700000000fdfe000048304502210084bce1e6d01cb92bd21e1a126dffba891a44897af16d22fd993eea81c55f42c00220330c9b0ed309b23c6a5ba1a37c6ae03996286cb7ddec14d39f54f7b46145d9d501483045022100d2e65369b3ece74043b8e1f04d5f6c60d7b7e1df9324f81e71c70d54852f828202206594733a6721c0195919f347b445ebe931b1430c288f65ed7b8bc5de829b484c014c6952210211f16aaf30213fd6915ae0b7208f3d27dcb1488cb050bad65be587b46a58a5f42103a4f3775b62be05eaa71b3495dd4191ff59db9536e2133bf3a72f1d7e4ec720982103fe10dd6d6172d98038df812e51d054ad2f5d440286bb679a8a97de298fc8cd1d53aeffffffff02c2adce00000000001976a9140573fbf13115d5540037279de83864b62a35771088ac390da0000000000017a914ca86fdcc1e37b6ccda550dbc6830b42ae60fba928700000000", "vin": [{"sequence": 4294967295, "scriptSig": {"hex": "0048304502210084bce1e6d01cb92bd21e1a126dffba891a44897af16d22fd993eea81c55f42c00220330c9b0ed309b23c6a5ba1a37c6ae03996286cb7ddec14d39f54f7b46145d9d501483045022100d2e65369b3ece74043b8e1f04d5f6c60d7b7e1df9324f81e71c70d54852f828202206594733a6721c0195919f347b445ebe931b1430c288f65ed7b8bc5de829b484c014c6952210211f16aaf30213fd6915ae0b7208f3d27dcb1488cb050bad65be587b46a58a5f42103a4f3775b62be05eaa71b3495dd4191ff59db9536e2133bf3a72f1d7e4ec720982103fe10dd6d6172d98038df812e51d054ad2f5d440286bb679a8a97de298fc8cd1d53ae", "asm": "0 304502210084bce1e6d01cb92bd21e1a126dffba891a44897af16d22fd993eea81c55f42c00220330c9b0ed309b23c6a5ba1a37c6ae03996286cb7ddec14d39f54f7b46145d9d5[ALL] 3045022100d2e65369b3ece74043b8e1f04d5f6c60d7b7e1df9324f81e71c70d54852f828202206594733a6721c0195919f347b445ebe931b1430c288f65ed7b8bc5de829b484c[ALL] 52210211f16aaf30213fd6915ae0b7208f3d27dcb1488cb050bad65be587b46a58a5f42103a4f3775b62be05eaa71b3495dd4191ff59db9536e2133bf3a72f1d7e4ec720982103fe10dd6d6172d98038df812e51d054ad2f5d440286bb679a8a97de298fc8cd1d53ae"}, "vout": 0, "txid": "2710a447b691832feeb963de8b6b440e7fbbe05eb9fba883cc01ae0163a0b39d"}], "txid": "9ee1d24e96109accd2b747def12efd530f9cf6e68d81a78e21e8a25b0a722e2e", "blocktime": 1537873282, "version": 1, "confirmations": 11481, "time": 1537873282, "locktime": 0, "vsize": 373, "size": 373}