{"hash": "9ee9aca83f8fe5f105662f15aea6fa8174ece15c270b82fb7e4593b5d1fc4e50", "blockhash": "000000000000000000205f8b0775d31398ef75b89a5e8ec8d2c57b4dc0ac4c20", "vout": [{"scriptPubKey": {"reqSigs": 1, "hex": "a9143be3c3fa538644cf2f280536614e712270c4476687", "addresses": ["379geHhmNTscwP28Tkpzt3fzRdSdxBdcsM"], "asm": "OP_HASH160 3be3c3fa538644cf2f280536614e712270c44766 OP_EQUAL", "type": "scripthash"}, "value": 0.01195903, "n": 0}, {"scriptPubKey": {"reqSigs": 1, "hex": "76a91440f3a6d958113aa60dac53116acc2f0912887e8a88ac", "addresses": ["16vS8VsbFs7SeUdtycGJL3GZGyETW7mDca"], "asm": "OP_DUP OP_HASH160 40f3a6d958113aa60dac53116acc2f0912887e8a OP_EQUALVERIFY OP_CHECKSIG", "type": "pubkeyhash"}, "value": 0.20802741, "n": 1}], "hex": "0100000001dad9e81239d768d31332a5322a8f454f565c0462844fcbf3d2a0dc7adeeec74f010000006a473044022021fb973e61b64d093f44336bc17ee173f77ac2604fcaffd4aee5200f3f2f08f302201604c4912903e0e86b019dc9a103fa56bb4b39ba971c30d2ba1a3983fadb2da0012103e567d94a1ffdde4731f0ae373e5c728f70b86aeed0100e8e5039095c41436d31ffffffff027f3f12000000000017a9143be3c3fa538644cf2f280536614e712270c4476687b56c3d01000000001976a91440f3a6d958113aa60dac53116acc2f0912887e8a88ac00000000", "vin": [{"sequence": 4294967295, "scriptSig": {"hex": "473044022021fb973e61b64d093f44336bc17ee173f77ac2604fcaffd4aee5200f3f2f08f302201604c4912903e0e86b019dc9a103fa56bb4b39ba971c30d2ba1a3983fadb2da0012103e567d94a1ffdde4731f0ae373e5c728f70b86aeed0100e8e5039095c41436d31", "asm": "3044022021fb973e61b64d093f44336bc17ee173f77ac2604fcaffd4aee5200f3f2f08f302201604c4912903e0e86b019dc9a103fa56bb4b39ba971c30d2ba1a3983fadb2da0[ALL] 03e567d94a1ffdde4731f0ae373e5c728f70b86aeed0100e8e5039095c41436d31"}, "vout": 1, "txid": "4fc7eede7adca0d2f3cb4f8462045c564f458f2a32a53213d368d73912e8d9da"}], "txid": "9ee9aca83f8fe5f105662f15aea6fa8174ece15c270b82fb7e4593b5d1fc4e50", "blocktime": 1537871175, "version": 1, "confirmations": 11511, "time": 1537871175, "locktime": 0, "vsize": 223, "size": 223}