{"hash": "219df557be59e40dd0dba26617a8279fc425c3bf0131b823116e41aa5747ba15", "blockhash": "0000000000000000001e0dab787dd257d1dbfcb92a98c2207d5e1078be1f4165", "vout": [{"scriptPubKey": {"reqSigs": 1, "hex": "a91448d3763dc8aa51b533cb5776ddcb30eb0aaa0d7d87", "addresses": ["38L5tz4KeS6yuFAhkH7Avk5b97eaVFbB7w"], "asm": "OP_HASH160 48d3763dc8aa51b533cb5776ddcb30eb0aaa0d7d OP_EQUAL", "type": "scripthash"}, "value": 0.00998048, "n": 0}, {"scriptPubKey": {"reqSigs": 1, "hex": "a914b4294c1d446a7c9d3fd97bcf8ef2f43977858a7887", "addresses": ["3J7d2TiXVL8zJcnQjpvZzQHu3vG3kPCLJg"], "asm": "OP_HASH160 b4294c1d446a7c9d3fd97bcf8ef2f43977858a78 OP_EQUAL", "type": "scripthash"}, "value": 0.04942563, "n": 1}], "hex": "020000000001054bfee7d7653118471297cae0e8504da2f74823d8b1b6feb4d49ea98a5656fa6303000000171600146902f794aef99ca0abbf467f1627c0d58b6ee05efeffffff64dda19e7243318109d489597907a2c112eefe48c1685fe9c241726a40550e3c0a0000001716001411053aa8d3ed547c35d508186621fb089eed14dffeffffff7f803f7e022f5381cb54a48f56fb174bb943e9639b68b1fe02838007b741ee9ec60200001716001493d4a5ce062708e0a249d7e898841a111aa90b1afeffffffb7ad33cc3ba552348136d3154dd19d51a8c7bd3390da380e3cafd1fa797b7385c30600006a47304402200bbaf332f6fcc27f321f630257947d92160bee1e03787f9f433e909715cfcf340220557fd24b03145041ace933cbe42b57adb538002f2149aac5b923b1225a5f95950121020c0eeadd731d82e55f9f3f02e425507f1c11d328817dcab9a38804531fe4302bfeffffffee70be8e10d12d0742b4e40aa42296643a338c62b7e1e01e128b05d9183f6984560000006b48304502210096401c0a5e8f80bb73fd9f4d3644282fc15055f6aa67e0bccefbee7421977c6902207caf56d3efe65d48999a1099fc69facc70039818f45453ab91ec29a9364fce400121038eddbd6bd8a66f6d2881b658dff1ef009055c4b19c96377c0090ca28838c414bfeffffff02a03a0f000000000017a91448d3763dc8aa51b533cb5776ddcb30eb0aaa0d7d87e36a4b000000000017a914b4294c1d446a7c9d3fd97bcf8ef2f43977858a78870247304402205bd462a465c017326e17c1f1c712789cf13010a35a5cd8b2b122e3d18b89d59e02201561a5c88162c1a5ac06d98e1da9e37145006fd6370e48ebd52b37946da481eb012102ae22f2dff8a4351e277e15020a713f11d123faadc985c5770a18a4bd374cb5e40247304402207e9405aaa8ba291696ae11ad91df74964ba5ed3511da052241362537309de966022017e5dbf1a61585beee9bf7f753c87e1443925f87c0c89824fc0b8c2928c78b2701210346a54314947933d9ae0df6b57e48dfb3a1c2c08ad6548eab29a2be36f0dc2af002483045022100e744f26c993a38bc5aea7df83c2bbcaca951a5ff036d5dbf6d82f7d24bf8c0dd02205b0225d82c8f35f262c81283a095887a2dbb53091ba4adf8817ff92b54d94f470121039925dbd19d88146958463f89a1f6bc10a9099f59a9f63d4d2ae5a02c50870d01000012490800", "vin": [{"txinwitness": ["304402205bd462a465c017326e17c1f1c712789cf13010a35a5cd8b2b122e3d18b89d59e02201561a5c88162c1a5ac06d98e1da9e37145006fd6370e48ebd52b37946da481eb01", "02ae22f2dff8a4351e277e15020a713f11d123faadc985c5770a18a4bd374cb5e4"], "sequence": 4294967294, "scriptSig": {"hex": "1600146902f794aef99ca0abbf467f1627c0d58b6ee05e", "asm": "00146902f794aef99ca0abbf467f1627c0d58b6ee05e"}, "vout": 3, "txid": "63fa56568aa99ed4b4feb6b1d82348f7a24d50e8e0ca971247183165d7e7fe4b"}, {"txinwitness": ["304402207e9405aaa8ba291696ae11ad91df74964ba5ed3511da052241362537309de966022017e5dbf1a61585beee9bf7f753c87e1443925f87c0c89824fc0b8c2928c78b2701", "0346a54314947933d9ae0df6b57e48dfb3a1c2c08ad6548eab29a2be36f0dc2af0"], "sequence": 4294967294, "scriptSig": {"hex": "16001411053aa8d3ed547c35d508186621fb089eed14df", "asm": "001411053aa8d3ed547c35d508186621fb089eed14df"}, "vout": 10, "txid": "3c0e55406a7241c2e95f68c148feee12c1a207795989d409813143729ea1dd64"}, {"txinwitness": ["3045022100e744f26c993a38bc5aea7df83c2bbcaca951a5ff036d5dbf6d82f7d24bf8c0dd02205b0225d82c8f35f262c81283a095887a2dbb53091ba4adf8817ff92b54d94f4701", "039925dbd19d88146958463f89a1f6bc10a9099f59a9f63d4d2ae5a02c50870d01"], "sequence": 4294967294, "scriptSig": {"hex": "16001493d4a5ce062708e0a249d7e898841a111aa90b1a", "asm": "001493d4a5ce062708e0a249d7e898841a111aa90b1a"}, "vout": 710, "txid": "9eee41b707808302feb1689b63e943b94b17fb568fa454cb81532f027e3f807f"}, {"sequence": 4294967294, "scriptSig": {"hex": "47304402200bbaf332f6fcc27f321f630257947d92160bee1e03787f9f433e909715cfcf340220557fd24b03145041ace933cbe42b57adb538002f2149aac5b923b1225a5f95950121020c0eeadd731d82e55f9f3f02e425507f1c11d328817dcab9a38804531fe4302b", "asm": "304402200bbaf332f6fcc27f321f630257947d92160bee1e03787f9f433e909715cfcf340220557fd24b03145041ace933cbe42b57adb538002f2149aac5b923b1225a5f9595[ALL] 020c0eeadd731d82e55f9f3f02e425507f1c11d328817dcab9a38804531fe4302b"}, "vout": 1731, "txid": "85737b79fad1af3c0e38da9033bdc7a8519dd14d15d336813452a53bcc33adb7"}, {"sequence": 4294967294, "scriptSig": {"hex": "48304502210096401c0a5e8f80bb73fd9f4d3644282fc15055f6aa67e0bccefbee7421977c6902207caf56d3efe65d48999a1099fc69facc70039818f45453ab91ec29a9364fce400121038eddbd6bd8a66f6d2881b658dff1ef009055c4b19c96377c0090ca28838c414b", "asm": "304502210096401c0a5e8f80bb73fd9f4d3644282fc15055f6aa67e0bccefbee7421977c6902207caf56d3efe65d48999a1099fc69facc70039818f45453ab91ec29a9364fce40[ALL] 038eddbd6bd8a66f6d2881b658dff1ef009055c4b19c96377c0090ca28838c414b"}, "vout": 86, "txid": "84693f18d9058b121ee0e1b7628c333a649622a40ae4b442072dd1108ebe70ee"}], "txid": "9eec064c1d1a49e892d88639c14b864b9891ea20739666059ab213274c087b8a", "blocktime": 1537872475, "version": 2, "confirmations": 11486, "time": 1537872475, "locktime": 542994, "vsize": 643, "size": 887}