{"hash": "ce21b7774a5b508672a3c8a5f326d4d4ded0aa9a79bacace9376f7a32bade47c", "blockhash": "0000000000000000001cda96e906b7601b7a6fb1a3b62bca570a9e5d8f4b3de1", "vout": [{"scriptPubKey": {"reqSigs": 1, "hex": "76a9149a1b8f9b1fa2d2297863adb1cb11c71df455684888ac", "addresses": ["1F3r5We2zwNiSzG6GQUTTWnnPMCz2HJbJu"], "asm": "OP_DUP OP_HASH160 9a1b8f9b1fa2d2297863adb1cb11c71df4556848 OP_EQUALVERIFY OP_CHECKSIG", "type": "pubkeyhash"}, "value": 2.713e-05, "n": 0}, {"scriptPubKey": {"reqSigs": 1, "hex": "a914e8db75c900cf08f06518e96d167331f2a4abfb3387", "addresses": ["3NvFbQMAkkqEFj4i1sYPPLkSWzxTFUchjA"], "asm": "OP_HASH160 e8db75c900cf08f06518e96d167331f2a4abfb33 OP_EQUAL", "type": "scripthash"}, "value": 0.00035064, "n": 1}], "hex": "010000000001014c4b7bc8282bd053daa67ed10270361b684b35ed6c526835bd47e9d8eeb44f680100000023220020941cfaff8837763dc1f69ff82b6d6553fdea17a41cfc29a04403293eedd8ccc7ffffffff02990a0000000000001976a9149a1b8f9b1fa2d2297863adb1cb11c71df455684888acf88800000000000017a914e8db75c900cf08f06518e96d167331f2a4abfb338704004830450221008427de08bc281394920b4e577ff5c856e77eeb740f98b8d89ba43e4401445f29022079d05279035f2540d4b4065cc249d6036c3b52e8e2a34738012d999fa8ff4a8f014830450221009fff4b506ac49682c7ea673e69df27d3cd51b4cdbd9396a2d633b42cbd3b538c02202e3ed6b77d023ed48533e9a40c89f09c40d8c0a93f5a8f00ab8379277956a80f0147522102531db3a5883f29bab4241dd0cd726936667bcda445d89bdd22244e828b6993342103148c80a5bdfddb05ff5bcffc397c8ca748d8b435ec6a175bc9d7bfc7fc6f853752ae00000000", "vin": [{"txinwitness": ["", "30450221008427de08bc281394920b4e577ff5c856e77eeb740f98b8d89ba43e4401445f29022079d05279035f2540d4b4065cc249d6036c3b52e8e2a34738012d999fa8ff4a8f01", "30450221009fff4b506ac49682c7ea673e69df27d3cd51b4cdbd9396a2d633b42cbd3b538c02202e3ed6b77d023ed48533e9a40c89f09c40d8c0a93f5a8f00ab8379277956a80f01", "522102531db3a5883f29bab4241dd0cd726936667bcda445d89bdd22244e828b6993342103148c80a5bdfddb05ff5bcffc397c8ca748d8b435ec6a175bc9d7bfc7fc6f853752ae"], "sequence": 4294967295, "scriptSig": {"hex": "220020941cfaff8837763dc1f69ff82b6d6553fdea17a41cfc29a04403293eedd8ccc7", "asm": "0020941cfaff8837763dc1f69ff82b6d6553fdea17a41cfc29a04403293eedd8ccc7"}, "vout": 1, "txid": "684fb4eed8e947bd3568526ced354b681b367002d17ea6da53d02b28c87b4b4c"}], "txid": "9ef62d642d474a003bb67448698f1c3ca10d7e369eb4d2224cdfd862a5410b01", "blocktime": 1537873282, "version": 1, "confirmations": 11484, "time": 1537873282, "locktime": 0, "vsize": 208, "size": 374}