{"hash": "9ef7dc6ba63bb1c75f2bc1fb4462719e95f73a2c95c4e501c69fd64fe3a089a4", "blockhash": "0000000000000000001e0dab787dd257d1dbfcb92a98c2207d5e1078be1f4165", "vout": [{"scriptPubKey": {"reqSigs": 1, "hex": "76a9143bb09e0117d572422b0534be733e91e26686d5fc88ac", "addresses": ["16ScStzkJCVXzd2Hd82KV8RT9KBxFiYCts"], "asm": "OP_DUP OP_HASH160 3bb09e0117d572422b0534be733e91e26686d5fc OP_EQUALVERIFY OP_CHECKSIG", "type": "pubkeyhash"}, "value": 5.46e-06, "n": 0}, {"scriptPubKey": {"reqSigs": 1, "hex": "a9143f4eecba122ad73039d481c8d37f99cb4f887cd887", "addresses": ["37Tm3Qz8Zw2VJrheUUhArDAoq58S6YrS3g"], "asm": "OP_HASH160 3f4eecba122ad73039d481c8d37f99cb4f887cd8 OP_EQUAL", "type": "scripthash"}, "value": 0.99997454, "n": 1}, {"scriptPubKey": {"type": "nulldata", "hex": "6a146f6d6e69000000000000001f0000000a7a358200", "asm": "OP_RETURN 6f6d6e69000000000000001f0000000a7a358200"}, "value": 0.0, "n": 2}], "hex": "0100000001b62612d9a94df5e35172d16354b84fff6ed0a775e48f860503e3dea1c629b30e00000000fdfe0000483045022100ccc31075fc15903b0a21a0b2bae90e9ee0a586bf0ab2abcd60dae74f642c0be502201895ef38522d3aa886be04320cd89c6c7a4fbd467a132be84f64c70c7447e81e014830450221009e1a843ebca4805facdf92d9f5dc4038df67d1725ce4324c845bddb7ce367f2d022033d01afd76b968e4d1b8b4ae81ef055463e4884232a50c7a977de8a43dc6e279014c6952210246ccf4de0c54cc7f3354cdd993c2c50cf965fd82238b89659fbd73a1b4bf05a121024fc59f72272a897fe43803374969f396058152fe4765a8d15216f94624257b1b21022593bc69ecbf3bbcc3c58082267cb49dadaf4ca8dbf1b2297338a9d628c4297653aeffffffff0322020000000000001976a9143bb09e0117d572422b0534be733e91e26686d5fc88ac0ed7f5050000000017a9143f4eecba122ad73039d481c8d37f99cb4f887cd8870000000000000000166a146f6d6e69000000000000001f0000000a7a35820000000000", "vin": [{"sequence": 4294967295, "scriptSig": {"hex": "00483045022100ccc31075fc15903b0a21a0b2bae90e9ee0a586bf0ab2abcd60dae74f642c0be502201895ef38522d3aa886be04320cd89c6c7a4fbd467a132be84f64c70c7447e81e014830450221009e1a843ebca4805facdf92d9f5dc4038df67d1725ce4324c845bddb7ce367f2d022033d01afd76b968e4d1b8b4ae81ef055463e4884232a50c7a977de8a43dc6e279014c6952210246ccf4de0c54cc7f3354cdd993c2c50cf965fd82238b89659fbd73a1b4bf05a121024fc59f72272a897fe43803374969f396058152fe4765a8d15216f94624257b1b21022593bc69ecbf3bbcc3c58082267cb49dadaf4ca8dbf1b2297338a9d628c4297653ae", "asm": "0 3045022100ccc31075fc15903b0a21a0b2bae90e9ee0a586bf0ab2abcd60dae74f642c0be502201895ef38522d3aa886be04320cd89c6c7a4fbd467a132be84f64c70c7447e81e[ALL] 30450221009e1a843ebca4805facdf92d9f5dc4038df67d1725ce4324c845bddb7ce367f2d022033d01afd76b968e4d1b8b4ae81ef055463e4884232a50c7a977de8a43dc6e279[ALL] 52210246ccf4de0c54cc7f3354cdd993c2c50cf965fd82238b89659fbd73a1b4bf05a121024fc59f72272a897fe43803374969f396058152fe4765a8d15216f94624257b1b21022593bc69ecbf3bbcc3c58082267cb49dadaf4ca8dbf1b2297338a9d628c4297653ae"}, "vout": 0, "txid": "0eb329c6a1dee30305868fe475a7d06eff4fb85463d17251e3f54da9d91226b6"}], "txid": "9ef7dc6ba63bb1c75f2bc1fb4462719e95f73a2c95c4e501c69fd64fe3a089a4", "blocktime": 1537872475, "version": 1, "confirmations": 11486, "time": 1537872475, "locktime": 0, "vsize": 404, "size": 404}