{"hash": "9efdb71f81a2d57676340905f8a391864b1fd92b05dfbd37357f286dd0658135", "blockhash": "0000000000000000001cda96e906b7601b7a6fb1a3b62bca570a9e5d8f4b3de1", "vout": [{"scriptPubKey": {"reqSigs": 1, "hex": "76a914ed57911dc746b857527293d0b3d8e0e96f37c8e988ac", "addresses": ["1Ndx3iXTVu1sDJVX5kcFSboaKMfPAyLk52"], "asm": "OP_DUP OP_HASH160 ed57911dc746b857527293d0b3d8e0e96f37c8e9 OP_EQUALVERIFY OP_CHECKSIG", "type": "pubkeyhash"}, "value": 0.00082111, "n": 0}, {"scriptPubKey": {"reqSigs": 1, "hex": "a9144bd1ce63fb3fe06124701b1e7baeb5d0c56810a787", "addresses": ["38buwXFDSRVagr6SKqqt73J6CFdLanGZnL"], "asm": "OP_HASH160 4bd1ce63fb3fe06124701b1e7baeb5d0c56810a7 OP_EQUAL", "type": "scripthash"}, "value": 0.0124904, "n": 1}], "hex": "010000000299a6b78e82269dafda1b98e5e4914b234706807b39e179ded81737e6047ca11c000000006b4830450221009b9a9d2dd977517bf1bd6a162c5124347f43611546b668e36499dd32e738823102202497b4f83bcc33725a56248b736ae175c6443746f57c9b8e9357838f270f6373012103ecfacceda90a0876739f8954ca76472b0cf70f343fb1e8dae85e4a7a20edb391ffffffff7ba32f4b92df7cd16f78f3f1b1510e3617b325e01d897d78da102b9642f181f2000000006a473044022001b87c259fc58e22ad79b69e7bc87b753e9045fb941f05a392453531b65f6ef40220088a803d3bd86e7df350ff5939dc63994d93d8591b3b47c6b943eafee8847268012103ecfacceda90a0876739f8954ca76472b0cf70f343fb1e8dae85e4a7a20edb391ffffffff02bf400100000000001976a914ed57911dc746b857527293d0b3d8e0e96f37c8e988ac100f13000000000017a9144bd1ce63fb3fe06124701b1e7baeb5d0c56810a78700000000", "vin": [{"sequence": 4294967295, "scriptSig": {"hex": "4830450221009b9a9d2dd977517bf1bd6a162c5124347f43611546b668e36499dd32e738823102202497b4f83bcc33725a56248b736ae175c6443746f57c9b8e9357838f270f6373012103ecfacceda90a0876739f8954ca76472b0cf70f343fb1e8dae85e4a7a20edb391", "asm": "30450221009b9a9d2dd977517bf1bd6a162c5124347f43611546b668e36499dd32e738823102202497b4f83bcc33725a56248b736ae175c6443746f57c9b8e9357838f270f6373[ALL] 03ecfacceda90a0876739f8954ca76472b0cf70f343fb1e8dae85e4a7a20edb391"}, "vout": 0, "txid": "1ca17c04e63717d8de79e1397b800647234b91e4e5981bdaaf9d26828eb7a699"}, {"sequence": 4294967295, "scriptSig": {"hex": "473044022001b87c259fc58e22ad79b69e7bc87b753e9045fb941f05a392453531b65f6ef40220088a803d3bd86e7df350ff5939dc63994d93d8591b3b47c6b943eafee8847268012103ecfacceda90a0876739f8954ca76472b0cf70f343fb1e8dae85e4a7a20edb391", "asm": "3044022001b87c259fc58e22ad79b69e7bc87b753e9045fb941f05a392453531b65f6ef40220088a803d3bd86e7df350ff5939dc63994d93d8591b3b47c6b943eafee8847268[ALL] 03ecfacceda90a0876739f8954ca76472b0cf70f343fb1e8dae85e4a7a20edb391"}, "vout": 0, "txid": "f281f142962b10da787d891de025b317360e51b1f1f3786fd17cdf924b2fa37b"}], "txid": "9efdb71f81a2d57676340905f8a391864b1fd92b05dfbd37357f286dd0658135", "blocktime": 1537873282, "version": 1, "confirmations": 11484, "time": 1537873282, "locktime": 0, "vsize": 371, "size": 371}