{"hash": "3302f381eaf17dc042b55cc68885762b582dc41bc6deeeb14c2f95b16eeab5e3", "blockhash": "0000000000000000000e13cef7c366c0283d82e591d1acd082e914b08063cdf1", "vout": [{"scriptPubKey": {"reqSigs": 1, "hex": "a91454da5801c77254fd82e58266da4131eb81e2980687", "addresses": ["39RgFT13qJJZYq5SCdDauEyA1xe6LRPspm"], "asm": "OP_HASH160 54da5801c77254fd82e58266da4131eb81e29806 OP_EQUAL", "type": "scripthash"}, "value": 0.1578317, "n": 0}, {"scriptPubKey": {"reqSigs": 1, "hex": "a914c90890bfc543759d69d8ec7691a68c28901fcda687", "addresses": ["3L1z1EkbM1ZcgKPvq7ekrEgzzNRhpoSfdq"], "asm": "OP_HASH160 c90890bfc543759d69d8ec7691a68c28901fcda6 OP_EQUAL", "type": "scripthash"}, "value": 0.13617957, "n": 1}], "hex": "010000000001021915b7ff2c24b8dbbc575003013681f22f552d1338e0003d1c078c3d6ab7b1190000000023220020ca350a05846568d6fedca3e05a1bbdb91f33ab109785c79cacb1c1c152f51f1fffffffffe5f7e10a2dfab044ec74f1f8457aa5b14cf8b9e82d2bc78cf018e5a61ae7bff80000000023220020da120c7c641d646caa119613c9af4be91d1533fba6cf76aff5468751545dd4b9ffffffff0202d5f0000000000017a91454da5801c77254fd82e58266da4131eb81e298068725cbcf000000000017a914c90890bfc543759d69d8ec7691a68c28901fcda687040048304502210091c0c6d5bbc25fb547becae5e427751b08057c47ac5735040f1a4ffacd288d0d02205ab274bcf0c638c4899647e422fbcdfd14332f1707a290ce63db4aa36e6cb3870147304402204b75ff3d89030784a96a6982e601a407435a22b2f50626d953303c7f22ee0cfb0220752361679b7570dfd485e3defec3e981af5e13e20ec8de0be343bc35b95f010e0169522103cff83c7ae01cfb1f6749865e814e6686442e070c5d5a2d7fe33a06ab92425c652102b3dfb40d2b910c385fc08122240d645a3eacc4c99504310803b502cfd399fe742103b67b7ec1993f70bc7b360577fad7adc4786c61c9cacded7cb3057d7fde6f3d8253ae04004730440220296c22b7c1d36015c1cb5bad5ad9b9decb326bf2560c4557e1871e0b0090e0d10220335280a9e784d4a980e81de1359baf7cebe58085fd282e1cbf68b55981f0f7f901463043021f6fc8c509b8905a960eb6eac32eabb4931b47eade2720fd9dd79b011ecf4bb70220586c63b83b0caae099583b92c318f7dc040a59724a0881b671918fa04b1545dd0169522103257c9613574dabf0b77008224d060a42c7dcd4d5f3b2e2c68e78594883070c6821029f394d130c69a6fcc6bb764928ac42c02e1939b0df65e64a05643ca6ba00a0262103119a085c75ab4a84d84ef8fcfcedad448253697725260148402f21cf75dfef2f53ae00000000", "vin": [{"txinwitness": ["", "304502210091c0c6d5bbc25fb547becae5e427751b08057c47ac5735040f1a4ffacd288d0d02205ab274bcf0c638c4899647e422fbcdfd14332f1707a290ce63db4aa36e6cb38701", "304402204b75ff3d89030784a96a6982e601a407435a22b2f50626d953303c7f22ee0cfb0220752361679b7570dfd485e3defec3e981af5e13e20ec8de0be343bc35b95f010e01", "522103cff83c7ae01cfb1f6749865e814e6686442e070c5d5a2d7fe33a06ab92425c652102b3dfb40d2b910c385fc08122240d645a3eacc4c99504310803b502cfd399fe742103b67b7ec1993f70bc7b360577fad7adc4786c61c9cacded7cb3057d7fde6f3d8253ae"], "sequence": 4294967295, "scriptSig": {"hex": "220020ca350a05846568d6fedca3e05a1bbdb91f33ab109785c79cacb1c1c152f51f1f", "asm": "0020ca350a05846568d6fedca3e05a1bbdb91f33ab109785c79cacb1c1c152f51f1f"}, "vout": 0, "txid": "19b1b76a3d8c071c3d00e038132d552ff2813601035057bcdbb8242cffb71519"}, {"txinwitness": ["", "30440220296c22b7c1d36015c1cb5bad5ad9b9decb326bf2560c4557e1871e0b0090e0d10220335280a9e784d4a980e81de1359baf7cebe58085fd282e1cbf68b55981f0f7f901", "3043021f6fc8c509b8905a960eb6eac32eabb4931b47eade2720fd9dd79b011ecf4bb70220586c63b83b0caae099583b92c318f7dc040a59724a0881b671918fa04b1545dd01", "522103257c9613574dabf0b77008224d060a42c7dcd4d5f3b2e2c68e78594883070c6821029f394d130c69a6fcc6bb764928ac42c02e1939b0df65e64a05643ca6ba00a0262103119a085c75ab4a84d84ef8fcfcedad448253697725260148402f21cf75dfef2f53ae"], "sequence": 4294967295, "scriptSig": {"hex": "220020da120c7c641d646caa119613c9af4be91d1533fba6cf76aff5468751545dd4b9", "asm": "0020da120c7c641d646caa119613c9af4be91d1533fba6cf76aff5468751545dd4b9"}, "vout": 0, "txid": "f8bfe71aa6e518f08cc72b2de8b9f84cb1a57a45f8f174ec44b0fa2d0ae1f7e5"}], "txid": "9f021d76107157a0dc0106c2354caece6487ca917666b41a49fe4e4ae3400e2c", "blocktime": 1537871767, "version": 1, "confirmations": 11495, "time": 1537871767, "locktime": 0, "vsize": 353, "size": 732}