{"hash": "9f0373b38db2f799dc23b24e93acb20a590beec1653ef97e132e5a1a2b9f1c74", "blockhash": "00000000000000000017f5eb5941039fbcee6240d03bc1f2f8e35350df66a1d8", "vout": [{"scriptPubKey": {"reqSigs": 1, "hex": "76a914137205eaee4d0b392b3e8207e4c267ce805a4e3a88ac", "addresses": ["12mpS7NGA3id38NeYUknJxojgkEXUCsKKc"], "asm": "OP_DUP OP_HASH160 137205eaee4d0b392b3e8207e4c267ce805a4e3a OP_EQUALVERIFY OP_CHECKSIG", "type": "pubkeyhash"}, "value": 0.02301, "n": 0}, {"scriptPubKey": {"reqSigs": 1, "hex": "76a914cc5238d35ab8e16141bb3ebacfda9505f1c2c84e88ac", "addresses": ["1KdMM1x7XBhDWhykqXRzB947PEHzE4fF1d"], "asm": "OP_DUP OP_HASH160 cc5238d35ab8e16141bb3ebacfda9505f1c2c84e OP_EQUALVERIFY OP_CHECKSIG", "type": "pubkeyhash"}, "value": 0.0104849, "n": 1}], "hex": "020000000258be298e43c46e5ec19a827849a6bc2becb56157cef24d30ad179f4ae28e67c5010000006a4730440220748445afe18f841b2a0a6b2713097a19b0b9c543ff87fce9ed8f672cc04ed755022075e0fc256e5c9d4be093ce7faeed958bfdeeb36fca0aa028efd670350da4929501210237f02979fb3151cdade7b003aa9f165b11e988a9a8e6e198e1c61c971161b3a8feffffff67c2eebb2b36ccc421b9d9bc126d148a95bd54f5d1c58cec12e87f221c138670010000006b483045022100aa6253c0ded4cee497e6fdc16dfde34b88747ca5ff877de31112bb55742dd485022022a3601b9893f0cd1fd8e52c668e547e3745d53a237bcc262858307ca5ce634f012103df4d41137034c6d860a94c8a81b9afa8315625d23cf78ff455e1c035182b4633feffffff02481c2300000000001976a914137205eaee4d0b392b3e8207e4c267ce805a4e3a88acaaff0f00000000001976a914cc5238d35ab8e16141bb3ebacfda9505f1c2c84e88ac15490800", "vin": [{"sequence": 4294967294, "scriptSig": {"hex": "4730440220748445afe18f841b2a0a6b2713097a19b0b9c543ff87fce9ed8f672cc04ed755022075e0fc256e5c9d4be093ce7faeed958bfdeeb36fca0aa028efd670350da4929501210237f02979fb3151cdade7b003aa9f165b11e988a9a8e6e198e1c61c971161b3a8", "asm": "30440220748445afe18f841b2a0a6b2713097a19b0b9c543ff87fce9ed8f672cc04ed755022075e0fc256e5c9d4be093ce7faeed958bfdeeb36fca0aa028efd670350da49295[ALL] 0237f02979fb3151cdade7b003aa9f165b11e988a9a8e6e198e1c61c971161b3a8"}, "vout": 1, "txid": "c5678ee24a9f17ad304df2ce5761b5ec2bbca64978829ac15e6ec4438e29be58"}, {"sequence": 4294967294, "scriptSig": {"hex": "483045022100aa6253c0ded4cee497e6fdc16dfde34b88747ca5ff877de31112bb55742dd485022022a3601b9893f0cd1fd8e52c668e547e3745d53a237bcc262858307ca5ce634f012103df4d41137034c6d860a94c8a81b9afa8315625d23cf78ff455e1c035182b4633", "asm": "3045022100aa6253c0ded4cee497e6fdc16dfde34b88747ca5ff877de31112bb55742dd485022022a3601b9893f0cd1fd8e52c668e547e3745d53a237bcc262858307ca5ce634f[ALL] 03df4d41137034c6d860a94c8a81b9afa8315625d23cf78ff455e1c035182b4633"}, "vout": 1, "txid": "7086131c227fe812ec8cc5d1f554bd958a146d12bcd9b921c4cc362bbbeec267"}], "txid": "9f0373b38db2f799dc23b24e93acb20a590beec1653ef97e132e5a1a2b9f1c74", "blocktime": 1537874412, "version": 2, "confirmations": 11467, "time": 1537874412, "locktime": 542997, "vsize": 373, "size": 373}