{"hash": "9f03ead9ab38124c78cf5d137f8ac32095e81bc07b19f396333b024162c677e0", "blockhash": "00000000000000000024a2167bbff67b0be802c0b01cdd79e6331c2be6459f87", "vout": [{"scriptPubKey": {"reqSigs": 1, "hex": "a9149bb9e7b55dd11a9d7bd5db67a618fe0456d99d9887", "addresses": ["3FtRNC2vMBqqmi2pZpW2rycxAPFPyNxUwS"], "asm": "OP_HASH160 9bb9e7b55dd11a9d7bd5db67a618fe0456d99d98 OP_EQUAL", "type": "scripthash"}, "value": 0.00542572, "n": 0}, {"scriptPubKey": {"reqSigs": 1, "hex": "76a9147563c007b36549663a372a11f92301755402aa2e88ac", "addresses": ["1BhhZCpgE6jdWMMBNmtEMHLb8kErsi4e8T"], "asm": "OP_DUP OP_HASH160 7563c007b36549663a372a11f92301755402aa2e OP_EQUALVERIFY OP_CHECKSIG", "type": "pubkeyhash"}, "value": 0.04848458, "n": 1}], "hex": "0100000001c65b38fc7a90f227695123b083d3c1bf28f571c78f4b3cb2f11e3dacb9297e5c010000006b483045022100e66b59ae4a59c30feb37184c6c9fc94a7ea506609970f6a6e8adee7c55d41f850220494243e324a2aef15a42b2cda71661056cc97e676268bb4d57a5415118037e2d0121026232b74344aabcd17dcab385b1ef8d66a52a74a096cbf04f677a27fdc3f40b48ffffffff026c4708000000000017a9149bb9e7b55dd11a9d7bd5db67a618fe0456d99d98874afb4900000000001976a9147563c007b36549663a372a11f92301755402aa2e88ac00000000", "vin": [{"sequence": 4294967295, "scriptSig": {"hex": "483045022100e66b59ae4a59c30feb37184c6c9fc94a7ea506609970f6a6e8adee7c55d41f850220494243e324a2aef15a42b2cda71661056cc97e676268bb4d57a5415118037e2d0121026232b74344aabcd17dcab385b1ef8d66a52a74a096cbf04f677a27fdc3f40b48", "asm": "3045022100e66b59ae4a59c30feb37184c6c9fc94a7ea506609970f6a6e8adee7c55d41f850220494243e324a2aef15a42b2cda71661056cc97e676268bb4d57a5415118037e2d[ALL] 026232b74344aabcd17dcab385b1ef8d66a52a74a096cbf04f677a27fdc3f40b48"}, "vout": 1, "txid": "5c7e29b9ac3d1ef1b23c4b8fc771f528bfc1d383b023516927f2907afc385bc6"}], "txid": "9f03ead9ab38124c78cf5d137f8ac32095e81bc07b19f396333b024162c677e0", "blocktime": 1537870564, "version": 1, "confirmations": 11515, "time": 1537870564, "locktime": 0, "vsize": 224, "size": 224}