{"hash": "69b5c96bee9692a7ee8f42de5dd112dc987a6cf9cb1f727891b136ca01b9afd9", "blockhash": "0000000000000000001e0dab787dd257d1dbfcb92a98c2207d5e1078be1f4165", "vout": [{"scriptPubKey": {"reqSigs": 1, "hex": "00143e6bb1a9cec4c59579810366b75654180a07a34b", "addresses": ["bc1q8e4mr2wwcnze27vpqdntw4j5rq9q0g6ts04p0d"], "asm": "0 3e6bb1a9cec4c59579810366b75654180a07a34b", "type": "witness_v0_keyhash"}, "value": 0.00120721, "n": 0}, {"scriptPubKey": {"reqSigs": 1, "hex": "76a91485d8e9a2f47fe99f798773d6d97e135b08072fef88ac", "addresses": ["1DCiisMEJtuQ3SaC1BuopXx4NVqXwCLMb6"], "asm": "OP_DUP OP_HASH160 85d8e9a2f47fe99f798773d6d97e135b08072fef OP_EQUALVERIFY OP_CHECKSIG", "type": "pubkeyhash"}, "value": 0.0069, "n": 1}], "hex": "0100000000010143fdd4606b497b434d807528b5309669e3638020624fd0c5c7d1092cad5f3e5a0100000017160014aea31d3a30b627c7334b2c76b987297de87f378bffffffff0291d70100000000001600143e6bb1a9cec4c59579810366b75654180a07a34b50870a00000000001976a91485d8e9a2f47fe99f798773d6d97e135b08072fef88ac0248304502210092cafa5847eff44a75ec6f36809c9034c1295acfa4283da817f4b1da5cf80069022071bded96d0d534458aa85d4830293771b6f60700e9a45975a578fae1b204c3f6012103b5839a6582e4786616deda71d512fe8bfd13019262f732635f2c4d6a869bbaa900000000", "vin": [{"txinwitness": ["304502210092cafa5847eff44a75ec6f36809c9034c1295acfa4283da817f4b1da5cf80069022071bded96d0d534458aa85d4830293771b6f60700e9a45975a578fae1b204c3f601", "03b5839a6582e4786616deda71d512fe8bfd13019262f732635f2c4d6a869bbaa9"], "sequence": 4294967295, "scriptSig": {"hex": "160014aea31d3a30b627c7334b2c76b987297de87f378b", "asm": "0014aea31d3a30b627c7334b2c76b987297de87f378b"}, "vout": 1, "txid": "5a3e5fad2c09d1c7c5d04f62208063e3699630b52875804d437b496b60d4fd43"}], "txid": "9f06c739a156599751eef9ad8f45fdd2500c64eeb4e11b15830cc2142fb85b57", "blocktime": 1537872475, "version": 1, "confirmations": 11487, "time": 1537872475, "locktime": 0, "vsize": 167, "size": 249}