{"hash": "9f086d1779ad15baf0ea54f1309ef747348aa554889bc6a1131dbffcf8f12eca", "blockhash": "00000000000000000017f5eb5941039fbcee6240d03bc1f2f8e35350df66a1d8", "vout": [{"scriptPubKey": {"reqSigs": 1, "hex": "a91480309690c102497037910308388e13159f42c7ec87", "addresses": ["3DNpd4XbNyp7V1yweaNtfiDBWsVZKuKtiw"], "asm": "OP_HASH160 80309690c102497037910308388e13159f42c7ec OP_EQUAL", "type": "scripthash"}, "value": 0.00312855, "n": 0}, {"scriptPubKey": {"reqSigs": 1, "hex": "76a9144841703c01e6e4f52e57e9c359485a03f5ed66d788ac", "addresses": ["17b43Z41XktNMtYaQAeZcj4aAsT5d7tiVT"], "asm": "OP_DUP OP_HASH160 4841703c01e6e4f52e57e9c359485a03f5ed66d7 OP_EQUALVERIFY OP_CHECKSIG", "type": "pubkeyhash"}, "value": 0.11599161, "n": 1}], "hex": "010000000139d9909d101d9f2bb792d7dbb51cea75d841032997f503917e7a13e8ace9c7e1010000006b4830450221008d3b449b0b710c710cdd5e93a2060e0d3c84bb254bd133cbbf2b63a8bc8d7d8c022048c7dc0af34a77934fde75b27e90d0efde8f5bc80433b442f72e72a224cb34890121039664361c175a5b0e78ff8fc03a25c02c17ab04e5add7f83534967d3bc12c7eafffffffff0217c604000000000017a91480309690c102497037910308388e13159f42c7ec8739fdb000000000001976a9144841703c01e6e4f52e57e9c359485a03f5ed66d788ac00000000", "vin": [{"sequence": 4294967295, "scriptSig": {"hex": "4830450221008d3b449b0b710c710cdd5e93a2060e0d3c84bb254bd133cbbf2b63a8bc8d7d8c022048c7dc0af34a77934fde75b27e90d0efde8f5bc80433b442f72e72a224cb34890121039664361c175a5b0e78ff8fc03a25c02c17ab04e5add7f83534967d3bc12c7eaf", "asm": "30450221008d3b449b0b710c710cdd5e93a2060e0d3c84bb254bd133cbbf2b63a8bc8d7d8c022048c7dc0af34a77934fde75b27e90d0efde8f5bc80433b442f72e72a224cb3489[ALL] 039664361c175a5b0e78ff8fc03a25c02c17ab04e5add7f83534967d3bc12c7eaf"}, "vout": 1, "txid": "e1c7e9ace8137a7e9103f597290341d875ea1cb5dbd792b72b9f1d109d90d939"}], "txid": "9f086d1779ad15baf0ea54f1309ef747348aa554889bc6a1131dbffcf8f12eca", "blocktime": 1537874412, "version": 1, "confirmations": 11467, "time": 1537874412, "locktime": 0, "vsize": 224, "size": 224}