{"hash": "9f082b6a2ceb297bfaf5115b3375e8f469ce33fdcb033aa2a63eec0c3336e669", "blockhash": "0000000000000000001f0ddff1eddb255c1121bcd4da4f1bc9a0da00cae72433", "vout": [{"scriptPubKey": {"reqSigs": 1, "hex": "76a9147b9057c2e1d008d4a4c206bd195bcc255e5cad3a88ac", "addresses": ["1CGM2iBAUd3pG8Egryo9Gyd5XYsJxxTzcA"], "asm": "OP_DUP OP_HASH160 7b9057c2e1d008d4a4c206bd195bcc255e5cad3a OP_EQUALVERIFY OP_CHECKSIG", "type": "pubkeyhash"}, "value": 0.00171778, "n": 0}, {"scriptPubKey": {"reqSigs": 1, "hex": "76a914565b721366e980df52fdc5c2d840a52f6ae0a6cb88ac", "addresses": ["18scfFUwveMwDm3z1Zx1qhVvHmuptq7UQn"], "asm": "OP_DUP OP_HASH160 565b721366e980df52fdc5c2d840a52f6ae0a6cb OP_EQUALVERIFY OP_CHECKSIG", "type": "pubkeyhash"}, "value": 0.00781651, "n": 1}], "hex": "010000000190fd6196dc62ec61b6262e5b907ff7f7040ca0b4389d4eb59d6caf262b185bae000000006a4730440220244180b53e6511130744ecf42e970d871c95f012add2cc90822c9ab48832f390022063884b59f83afc69fed6421a6d7ccababe7d1052de2a3082f4661df51f1a05a501210200c443af910a8aa6bf61f4a4f74c887cd5e040b10bd7519f5a600168d307ba8dffffffff02029f0200000000001976a9147b9057c2e1d008d4a4c206bd195bcc255e5cad3a88ac53ed0b00000000001976a914565b721366e980df52fdc5c2d840a52f6ae0a6cb88ac00000000", "vin": [{"sequence": 4294967295, "scriptSig": {"hex": "4730440220244180b53e6511130744ecf42e970d871c95f012add2cc90822c9ab48832f390022063884b59f83afc69fed6421a6d7ccababe7d1052de2a3082f4661df51f1a05a501210200c443af910a8aa6bf61f4a4f74c887cd5e040b10bd7519f5a600168d307ba8d", "asm": "30440220244180b53e6511130744ecf42e970d871c95f012add2cc90822c9ab48832f390022063884b59f83afc69fed6421a6d7ccababe7d1052de2a3082f4661df51f1a05a5[ALL] 0200c443af910a8aa6bf61f4a4f74c887cd5e040b10bd7519f5a600168d307ba8d"}, "vout": 0, "txid": "ae5b182b26af6c9db54e9d38b4a00c04f7f77f905b2e26b661ec62dc9661fd90"}], "txid": "9f082b6a2ceb297bfaf5115b3375e8f469ce33fdcb033aa2a63eec0c3336e669", "blocktime": 1537872018, "version": 1, "confirmations": 11489, "time": 1537872018, "locktime": 0, "vsize": 225, "size": 225}