{"hash": "9f09ce26155eca874d80ba2565708a0011444cf8d5fa31d3307df66ab0fe22b7", "blockhash": "0000000000000000001f76057863aec43deb6fa401d9628bb513d65a8098bfab", "vout": [{"scriptPubKey": {"reqSigs": 1, "hex": "a91421865477c6408bac45bed5c7a2e22c08db43a55087", "addresses": ["34kH9HMu43bX7aTDMaAscZ4nNCsvfXJnkR"], "asm": "OP_HASH160 21865477c6408bac45bed5c7a2e22c08db43a550 OP_EQUAL", "type": "scripthash"}, "value": 0.00074, "n": 0}, {"scriptPubKey": {"reqSigs": 1, "hex": "76a914182e29d235cfeadbcb34bde8bc9e23d7c56c938d88ac", "addresses": ["13CrX6G3PkQeAjKBccQ26Xb46oVZDMFxi3"], "asm": "OP_DUP OP_HASH160 182e29d235cfeadbcb34bde8bc9e23d7c56c938d OP_EQUALVERIFY OP_CHECKSIG", "type": "pubkeyhash"}, "value": 0.67090701, "n": 1}], "hex": "010000000151e180f9a985467b18b16678284bdc4432c7472867f8ff63793e8e2d298eddc4010000006b4830450221009fe792b6858c4f170ab41ba2bbaf8206c69fba92a3fb49c0b72d217ed59f5b4c022057b54fce3434595f3e477bc05335044be7002f9193595b26781dfc83e92fd29601210306793e59c5c0bea28ef1ddb9efa185efa06567b8153506b3c9a35bc0bf503e79ffffffff02102101000000000017a91421865477c6408bac45bed5c7a2e22c08db43a550870db9ff03000000001976a914182e29d235cfeadbcb34bde8bc9e23d7c56c938d88ac00000000", "vin": [{"sequence": 4294967295, "scriptSig": {"hex": "4830450221009fe792b6858c4f170ab41ba2bbaf8206c69fba92a3fb49c0b72d217ed59f5b4c022057b54fce3434595f3e477bc05335044be7002f9193595b26781dfc83e92fd29601210306793e59c5c0bea28ef1ddb9efa185efa06567b8153506b3c9a35bc0bf503e79", "asm": "30450221009fe792b6858c4f170ab41ba2bbaf8206c69fba92a3fb49c0b72d217ed59f5b4c022057b54fce3434595f3e477bc05335044be7002f9193595b26781dfc83e92fd296[ALL] 0306793e59c5c0bea28ef1ddb9efa185efa06567b8153506b3c9a35bc0bf503e79"}, "vout": 1, "txid": "c4dd8e292d8e3e7963fff8672847c73244dc4b287866b1187b4685a9f980e151"}], "txid": "9f09ce26155eca874d80ba2565708a0011444cf8d5fa31d3307df66ab0fe22b7", "blocktime": 1537873891, "version": 1, "confirmations": 11478, "time": 1537873891, "locktime": 0, "vsize": 224, "size": 224}