{"hash": "9f0d4fc0bf4d847872ace8dc9503aaa4aaac3fffa7fdb6ac9c89f4fa0362b19c", "blockhash": "0000000000000000000baef3f32e3676a92c3b2e5da21b426e4f302fc371ce76", "vout": [{"scriptPubKey": {"reqSigs": 1, "hex": "76a9145dfe75ead861cb23a805c99c3efdb6e280c40cec88ac", "addresses": ["19Zzg5GuaZvGXMGtV4fpZFHgwLy3KgJbeZ"], "asm": "OP_DUP OP_HASH160 5dfe75ead861cb23a805c99c3efdb6e280c40cec OP_EQUALVERIFY OP_CHECKSIG", "type": "pubkeyhash"}, "value": 0.04671597, "n": 0}, {"scriptPubKey": {"reqSigs": 1, "hex": "a9146c289305644c1bc476ab79e2aa0949ecfb4920a787", "addresses": ["3BYuWQvauCbGBaCQ8oGjvAUwLNnkg4pmiZ"], "asm": "OP_HASH160 6c289305644c1bc476ab79e2aa0949ecfb4920a7 OP_EQUAL", "type": "scripthash"}, "value": 0.01973581, "n": 1}], "hex": "01000000025ac7301c3f18b306936ba01c9ee2ea28e3ab7eeda0c02f781873a11203403aab03000000fb00463043021f3bd9ceee5755e7ce8ee390e9f95c0610c5effd2c6633f4f25cded674dc90e002206f4e5e1cd9b96239a0395e91f407fff96b983453bf12d2e4cd2fb5cd25f5bb280147304402204ab3f86e3cbaba73756872a9c7f1389a7931c04fbb9185f1a6a1fdc0092c731e0220241f11626b10f37fc42ab12f890dd0087ff75c9130816db6597472214a50909d014c695221026958c730f6bc7ea2343a9c6ef86566c7af037b3aac49600cccb01cd9120361ff210281ee7a043816ea0ef5c23a2b3967eb0216fb342970eb77091c30ab20b23a791521021d0a81eaaf22499cfd200464592bfe345feaf36ad3c743b915346935898bec6e53aeffffffff4f956c2f48261a421388c2ae831a6280d852f4e3ffbd497fcb5b17ea90b4922f01000000fdfd00004830450221008a58d82e5781ac1960b1c65bf413517d71a8eac7500040438788606611edecf402203cde1f45bbd1dc06326ce9afe6e537d1cf6ce90e410684c53d705c55487526310147304402201cd03d490bbe8fd6efc1c333f7b91aa99fd39522115da1c146fc56095d4a321d02201ed88a15ec5ffefbbafb521065bf3670fb3aee725e5131d31ed8983aefbf6e62014c695221026958c730f6bc7ea2343a9c6ef86566c7af037b3aac49600cccb01cd9120361ff210281ee7a043816ea0ef5c23a2b3967eb0216fb342970eb77091c30ab20b23a791521021d0a81eaaf22499cfd200464592bfe345feaf36ad3c743b915346935898bec6e53aeffffffff026d484700000000001976a9145dfe75ead861cb23a805c99c3efdb6e280c40cec88ac4d1d1e000000000017a9146c289305644c1bc476ab79e2aa0949ecfb4920a78700000000", "vin": [{"sequence": 4294967295, "scriptSig": {"hex": "00463043021f3bd9ceee5755e7ce8ee390e9f95c0610c5effd2c6633f4f25cded674dc90e002206f4e5e1cd9b96239a0395e91f407fff96b983453bf12d2e4cd2fb5cd25f5bb280147304402204ab3f86e3cbaba73756872a9c7f1389a7931c04fbb9185f1a6a1fdc0092c731e0220241f11626b10f37fc42ab12f890dd0087ff75c9130816db6597472214a50909d014c695221026958c730f6bc7ea2343a9c6ef86566c7af037b3aac49600cccb01cd9120361ff210281ee7a043816ea0ef5c23a2b3967eb0216fb342970eb77091c30ab20b23a791521021d0a81eaaf22499cfd200464592bfe345feaf36ad3c743b915346935898bec6e53ae", "asm": "0 3043021f3bd9ceee5755e7ce8ee390e9f95c0610c5effd2c6633f4f25cded674dc90e002206f4e5e1cd9b96239a0395e91f407fff96b983453bf12d2e4cd2fb5cd25f5bb28[ALL] 304402204ab3f86e3cbaba73756872a9c7f1389a7931c04fbb9185f1a6a1fdc0092c731e0220241f11626b10f37fc42ab12f890dd0087ff75c9130816db6597472214a50909d[ALL] 5221026958c730f6bc7ea2343a9c6ef86566c7af037b3aac49600cccb01cd9120361ff210281ee7a043816ea0ef5c23a2b3967eb0216fb342970eb77091c30ab20b23a791521021d0a81eaaf22499cfd200464592bfe345feaf36ad3c743b915346935898bec6e53ae"}, "vout": 3, "txid": "ab3a400312a17318782fc0a0ed7eabe328eae29e1ca06b9306b3183f1c30c75a"}, {"sequence": 4294967295, "scriptSig": {"hex": "004830450221008a58d82e5781ac1960b1c65bf413517d71a8eac7500040438788606611edecf402203cde1f45bbd1dc06326ce9afe6e537d1cf6ce90e410684c53d705c55487526310147304402201cd03d490bbe8fd6efc1c333f7b91aa99fd39522115da1c146fc56095d4a321d02201ed88a15ec5ffefbbafb521065bf3670fb3aee725e5131d31ed8983aefbf6e62014c695221026958c730f6bc7ea2343a9c6ef86566c7af037b3aac49600cccb01cd9120361ff210281ee7a043816ea0ef5c23a2b3967eb0216fb342970eb77091c30ab20b23a791521021d0a81eaaf22499cfd200464592bfe345feaf36ad3c743b915346935898bec6e53ae", "asm": "0 30450221008a58d82e5781ac1960b1c65bf413517d71a8eac7500040438788606611edecf402203cde1f45bbd1dc06326ce9afe6e537d1cf6ce90e410684c53d705c5548752631[ALL] 304402201cd03d490bbe8fd6efc1c333f7b91aa99fd39522115da1c146fc56095d4a321d02201ed88a15ec5ffefbbafb521065bf3670fb3aee725e5131d31ed8983aefbf6e62[ALL] 5221026958c730f6bc7ea2343a9c6ef86566c7af037b3aac49600cccb01cd9120361ff210281ee7a043816ea0ef5c23a2b3967eb0216fb342970eb77091c30ab20b23a791521021d0a81eaaf22499cfd200464592bfe345feaf36ad3c743b915346935898bec6e53ae"}, "vout": 1, "txid": "2f92b490ea175bcb7f49bdffe3f452d880621a83aec28813421a26482f6c954f"}], "txid": "9f0d4fc0bf4d847872ace8dc9503aaa4aaac3fffa7fdb6ac9c89f4fa0362b19c", "blocktime": 1537876114, "version": 1, "confirmations": 11459, "time": 1537876114, "locktime": 0, "vsize": 664, "size": 664}