{"hash": "9f0f4c37e8f5e11de7a174a1d4f933b56d1c49c556f9360684161ca443d5a718", "blockhash": "000000000000000000022b45ed06c6f4ccd3cf7fb5ba4856ebd2e58215665228", "vout": [{"scriptPubKey": {"reqSigs": 1, "hex": "a91490caec444ffb708847c5430dcfd97b60482ba66c87", "addresses": ["3EtcKVtFbhYjuMBgYXjDKa3TsMGCLoQhET"], "asm": "OP_HASH160 90caec444ffb708847c5430dcfd97b60482ba66c OP_EQUAL", "type": "scripthash"}, "value": 0.00467, "n": 0}, {"scriptPubKey": {"reqSigs": 1, "hex": "76a914f5fe43327d2b2379f77ec2e00d2872fb2d0f463988ac", "addresses": ["1PRh9U2LCtmMvHuwoG55rDHuYkF6qXXSxa"], "asm": "OP_DUP OP_HASH160 f5fe43327d2b2379f77ec2e00d2872fb2d0f4639 OP_EQUALVERIFY OP_CHECKSIG", "type": "pubkeyhash"}, "value": 0.00041615, "n": 1}], "hex": "0100000003232793557603669642bd011166bfd8c5c56ca526b7e9b6b9570684f5554c23bc000000006b483045022100bf7b80fa6b69c50b7292998a871f3643cdfa8016f523948a117e25a47ec4f0ad0220174dd97269c9fda6a5495b2a1960914605796e449b100671e560896543127f10012103496a905164d90f89a2b03081bd20e80b5859473c0d62398e957f83608599494bffffffff925b4fdc437333ffd4ddd373db0f94f1df224896ec69932e3651165309ad5ba1000000006b48304502210093a54bc4512c1c0b234f86643b4d57cc4852127d2417deef8c67474f87485cd702202658a641cd60ee790908a0d4a2b10af013f4b23aadca26483e89f75b56f1382b0121031134c824a1f995cab7c8825b086ce022031a5665af48941ffa41ac4b1e740469ffffffff3929871078465f98b2db16a89d2e9bbf603a03728556d7a95f35a3e2a162e6fe010000006a4730440220133be21fead91aa9286415b6443b5540b8ce34e039999cc73273b7ada8e9c263022026d7d434953f8f5ae5b63e0081da09e09df9e98af80b516ca21b0bff5a5e4fdc012102783e98559e7a13b80d399e3ff478e45839e2c8c604a7290d75ea35d55deed235ffffffff02382007000000000017a91490caec444ffb708847c5430dcfd97b60482ba66c878fa20000000000001976a914f5fe43327d2b2379f77ec2e00d2872fb2d0f463988ac00000000", "vin": [{"sequence": 4294967295, "scriptSig": {"hex": "483045022100bf7b80fa6b69c50b7292998a871f3643cdfa8016f523948a117e25a47ec4f0ad0220174dd97269c9fda6a5495b2a1960914605796e449b100671e560896543127f10012103496a905164d90f89a2b03081bd20e80b5859473c0d62398e957f83608599494b", "asm": "3045022100bf7b80fa6b69c50b7292998a871f3643cdfa8016f523948a117e25a47ec4f0ad0220174dd97269c9fda6a5495b2a1960914605796e449b100671e560896543127f10[ALL] 03496a905164d90f89a2b03081bd20e80b5859473c0d62398e957f83608599494b"}, "vout": 0, "txid": "bc234c55f5840657b9b6e9b726a56cc5c5d8bf661101bd429666037655932723"}, {"sequence": 4294967295, "scriptSig": {"hex": "48304502210093a54bc4512c1c0b234f86643b4d57cc4852127d2417deef8c67474f87485cd702202658a641cd60ee790908a0d4a2b10af013f4b23aadca26483e89f75b56f1382b0121031134c824a1f995cab7c8825b086ce022031a5665af48941ffa41ac4b1e740469", "asm": "304502210093a54bc4512c1c0b234f86643b4d57cc4852127d2417deef8c67474f87485cd702202658a641cd60ee790908a0d4a2b10af013f4b23aadca26483e89f75b56f1382b[ALL] 031134c824a1f995cab7c8825b086ce022031a5665af48941ffa41ac4b1e740469"}, "vout": 0, "txid": "a15bad09531651362e9369ec964822dff1940fdb73d3ddd4ff337343dc4f5b92"}, {"sequence": 4294967295, "scriptSig": {"hex": "4730440220133be21fead91aa9286415b6443b5540b8ce34e039999cc73273b7ada8e9c263022026d7d434953f8f5ae5b63e0081da09e09df9e98af80b516ca21b0bff5a5e4fdc012102783e98559e7a13b80d399e3ff478e45839e2c8c604a7290d75ea35d55deed235", "asm": "30440220133be21fead91aa9286415b6443b5540b8ce34e039999cc73273b7ada8e9c263022026d7d434953f8f5ae5b63e0081da09e09df9e98af80b516ca21b0bff5a5e4fdc[ALL] 02783e98559e7a13b80d399e3ff478e45839e2c8c604a7290d75ea35d55deed235"}, "vout": 1, "txid": "fee662a1e2a3355fa9d7568572033a60bf9b2e9da816dbb2985f467810872939"}], "txid": "9f0f4c37e8f5e11de7a174a1d4f933b56d1c49c556f9360684161ca443d5a718", "blocktime": 1537869901, "version": 1, "confirmations": 11522, "time": 1537869901, "locktime": 0, "vsize": 519, "size": 519}