{"hash": "0b31f0ece0799c142adf26c07308e152d037aa9975d2d309c7f589466a5480a5", "blockhash": "0000000000000000000e13cef7c366c0283d82e591d1acd082e914b08063cdf1", "vout": [{"scriptPubKey": {"reqSigs": 1, "hex": "a914f6e522d0bee016e9b6059e89622663d8a619dcd787", "addresses": ["3QCUeP8CCvVkgwWcUdG73D4y5EBAoSqxsu"], "asm": "OP_HASH160 f6e522d0bee016e9b6059e89622663d8a619dcd7 OP_EQUAL", "type": "scripthash"}, "value": 8.47532329, "n": 0}, {"scriptPubKey": {"reqSigs": 1, "hex": "a914fd90f468a343c403103a19e04de16264df62ee4587", "addresses": ["3QokXhzCzmgBXE8uo15NBYG1Yc6j1s66kP"], "asm": "OP_HASH160 fd90f468a343c403103a19e04de16264df62ee45 OP_EQUAL", "type": "scripthash"}, "value": 0.0195, "n": 1}], "hex": "020000000001012b53c080db1dec4c41f8b60beceffc8c908813b7abd59b442a1dd659967196700000000017160014671d294934073125d8755fd00e569cb755fb67ccfeffffff02295184320000000017a914f6e522d0bee016e9b6059e89622663d8a619dcd78730c11d000000000017a914fd90f468a343c403103a19e04de16264df62ee458702483045022100a7268ac04c451c4d9da9d8945dfb87d83ab9186fc720c0bd87507fed0a18e01e02207e353323f65b64ae14ca5edb8b8f7c5f413f1930248fac8da80320622076a0b5012103761a2dd3f52492177b3f99d1b330c1ab4a15d10e769c0c40116f8d00fe20fc4610490800", "vin": [{"txinwitness": ["3045022100a7268ac04c451c4d9da9d8945dfb87d83ab9186fc720c0bd87507fed0a18e01e02207e353323f65b64ae14ca5edb8b8f7c5f413f1930248fac8da80320622076a0b501", "03761a2dd3f52492177b3f99d1b330c1ab4a15d10e769c0c40116f8d00fe20fc46"], "sequence": 4294967294, "scriptSig": {"hex": "160014671d294934073125d8755fd00e569cb755fb67cc", "asm": "0014671d294934073125d8755fd00e569cb755fb67cc"}, "vout": 0, "txid": "7096719659d61d2a449bd5abb71388908cfcefec0bb6f8414cec1ddb80c0532b"}], "txid": "9f1079b793a0939b91734822fa47282e48ad867fe088a1a3a82243f26e7b37c0", "blocktime": 1537871767, "version": 2, "confirmations": 11490, "time": 1537871767, "locktime": 542992, "vsize": 166, "size": 248}