{"hash": "9f11781e8cac24ecb90b7187e144f7b971ba9836c0ca6dcc7f91f4841d5ea073", "blockhash": "0000000000000000001e0dab787dd257d1dbfcb92a98c2207d5e1078be1f4165", "vout": [{"scriptPubKey": {"reqSigs": 1, "hex": "76a914f12774829603559c0afe36a911f1a09c6258259388ac", "addresses": ["1Nz77d1ErXvmpcFHwCsbmRYUu76mRvU5ZJ"], "asm": "OP_DUP OP_HASH160 f12774829603559c0afe36a911f1a09c62582593 OP_EQUALVERIFY OP_CHECKSIG", "type": "pubkeyhash"}, "value": 0.00659433, "n": 0}, {"scriptPubKey": {"reqSigs": 1, "hex": "a914c8c213579349e0331290b3c7a8c386adf624736f87", "addresses": ["3KzXZWsR3v57Hcizh77ZNQ8qpKdjpHh6cC"], "asm": "OP_HASH160 c8c213579349e0331290b3c7a8c386adf624736f OP_EQUAL", "type": "scripthash"}, "value": 0.0134, "n": 1}], "hex": "0100000001e92f354f606775809b2fd82fe154ceeb4de8c630bf8a5d074cec35b2803469b4010000006b483045022100844836bd36fa6e32d96182d72c23b21c952eff62506948f31984e2cdb02453cb02200f4136554b98cf487f62fb9f36bf2b75990f5df1eb281e3a2cd4c8052d79c2a0012102f36fab7a729076cd4865c1f71b4f2d54924afa9bde2ffe1c08425e2d9356023cffffffff02e90f0a00000000001976a914f12774829603559c0afe36a911f1a09c6258259388ac607214000000000017a914c8c213579349e0331290b3c7a8c386adf624736f8700000000", "vin": [{"sequence": 4294967295, "scriptSig": {"hex": "483045022100844836bd36fa6e32d96182d72c23b21c952eff62506948f31984e2cdb02453cb02200f4136554b98cf487f62fb9f36bf2b75990f5df1eb281e3a2cd4c8052d79c2a0012102f36fab7a729076cd4865c1f71b4f2d54924afa9bde2ffe1c08425e2d9356023c", "asm": "3045022100844836bd36fa6e32d96182d72c23b21c952eff62506948f31984e2cdb02453cb02200f4136554b98cf487f62fb9f36bf2b75990f5df1eb281e3a2cd4c8052d79c2a0[ALL] 02f36fab7a729076cd4865c1f71b4f2d54924afa9bde2ffe1c08425e2d9356023c"}, "vout": 1, "txid": "b4693480b235ec4c075d8abf30c6e84debce54e12fd82f9b807567604f352fe9"}], "txid": "9f11781e8cac24ecb90b7187e144f7b971ba9836c0ca6dcc7f91f4841d5ea073", "blocktime": 1537872475, "version": 1, "confirmations": 11487, "time": 1537872475, "locktime": 0, "vsize": 224, "size": 224}