{"hash": "9f122925e742ecfa6221b1a0ff79b9745ecb292623f32b33bb93db976997bf6a", "blockhash": "0000000000000000001f76057863aec43deb6fa401d9628bb513d65a8098bfab", "vout": [{"scriptPubKey": {"reqSigs": 1, "hex": "76a9142aacdc90206f927506139a69fcb9ff4623c5d2c588ac", "addresses": ["14teTgzrsTYqu5NbR4tKjj9mztaV9sC26e"], "asm": "OP_DUP OP_HASH160 2aacdc90206f927506139a69fcb9ff4623c5d2c5 OP_EQUALVERIFY OP_CHECKSIG", "type": "pubkeyhash"}, "value": 1e-05, "n": 0}, {"scriptPubKey": {"reqSigs": 1, "hex": "76a914ca30bcfd71a56c9ebc2dcfff72bee3d2ff266cae88ac", "addresses": ["1KS5t9FJinLBZgHyhVPZFaBRbLbkKLaqss"], "asm": "OP_DUP OP_HASH160 ca30bcfd71a56c9ebc2dcfff72bee3d2ff266cae OP_EQUALVERIFY OP_CHECKSIG", "type": "pubkeyhash"}, "value": 0.026342, "n": 1}], "hex": "0100000001d591c661677c95f2eba9045446dbd7754e6e76fa369a9f6ce05a84b15ec9eaea010000006b48304502210093612675ea5b027df12b7d1b772c8e2bb6fae09e14a58657d76ca1f4c700c5670220749796b11942efc182127c013915a896f9097696b47e764e160a91de682e479601210336de466cd358f0ba2011ff88af9b4b5a339167d34290aadde5b5145756c1cf66fdffffff02e8030000000000001976a9142aacdc90206f927506139a69fcb9ff4623c5d2c588acd8312800000000001976a914ca30bcfd71a56c9ebc2dcfff72bee3d2ff266cae88ac14490800", "vin": [{"sequence": 4294967293, "scriptSig": {"hex": "48304502210093612675ea5b027df12b7d1b772c8e2bb6fae09e14a58657d76ca1f4c700c5670220749796b11942efc182127c013915a896f9097696b47e764e160a91de682e479601210336de466cd358f0ba2011ff88af9b4b5a339167d34290aadde5b5145756c1cf66", "asm": "304502210093612675ea5b027df12b7d1b772c8e2bb6fae09e14a58657d76ca1f4c700c5670220749796b11942efc182127c013915a896f9097696b47e764e160a91de682e4796[ALL] 0336de466cd358f0ba2011ff88af9b4b5a339167d34290aadde5b5145756c1cf66"}, "vout": 1, "txid": "eaeac95eb1845ae06c9f9a36fa766e4e75d7db465404a9ebf2957c6761c691d5"}], "txid": "9f122925e742ecfa6221b1a0ff79b9745ecb292623f32b33bb93db976997bf6a", "blocktime": 1537873891, "version": 1, "confirmations": 11478, "time": 1537873891, "locktime": 542996, "vsize": 226, "size": 226}