{"hash": "f69dfb7e94d2c2371893743d535a4aeeef91998170bc3d927ff6ea75dec265b0", "blockhash": "0000000000000000001cda96e906b7601b7a6fb1a3b62bca570a9e5d8f4b3de1", "vout": [{"scriptPubKey": {"reqSigs": 1, "hex": "76a914e66fee2ec0bf83e6e039efeab42ac714e07f9e4388ac", "addresses": ["1N1SWBXshWtxSJtvbrQHrr9aDPxfPhtQFj"], "asm": "OP_DUP OP_HASH160 e66fee2ec0bf83e6e039efeab42ac714e07f9e43 OP_EQUALVERIFY OP_CHECKSIG", "type": "pubkeyhash"}, "value": 0.3, "n": 0}, {"scriptPubKey": {"reqSigs": 1, "hex": "76a91492cbc799278f0b71b72ed2df68f84878bd6be3cd88ac", "addresses": ["1EPBmsKsPQodZBn2ZZApxYhkEVdqx3k7pu"], "asm": "OP_DUP OP_HASH160 92cbc799278f0b71b72ed2df68f84878bd6be3cd OP_EQUALVERIFY OP_CHECKSIG", "type": "pubkeyhash"}, "value": 0.2, "n": 1}, {"scriptPubKey": {"reqSigs": 1, "hex": "a914d90516da435a6c40f9f89a38a7062a8449a35d9487", "addresses": ["3MUWenATUzJppHR87ioRqd5JGSYy7gHebY"], "asm": "OP_HASH160 d90516da435a6c40f9f89a38a7062a8449a35d94 OP_EQUAL", "type": "scripthash"}, "value": 2.1203023, "n": 2}], "hex": "0100000000010107f180d2628a97f89eade9272ae075226b18aa8569661545a776c8acda566cca0100000017160014c505b1a1987a64e580888c24f1789b53b5bae127ffffffff0380c3c901000000001976a914e66fee2ec0bf83e6e039efeab42ac714e07f9e4388ac002d3101000000001976a91492cbc799278f0b71b72ed2df68f84878bd6be3cd88ac1653a30c0000000017a914d90516da435a6c40f9f89a38a7062a8449a35d9487024730440220633c5195f40b758b3593cb8a959a66b75969d58c10ed0474087556c1c532fbb902203b7bd9e8aedd35033b30c3584c81d1edc53a88aca64c3a8909c412d004da74fa01210201ed48a10fa21fcbe162e8839522441637e6e82fc0b747e42135f791c4e4cb0b00000000", "vin": [{"txinwitness": ["30440220633c5195f40b758b3593cb8a959a66b75969d58c10ed0474087556c1c532fbb902203b7bd9e8aedd35033b30c3584c81d1edc53a88aca64c3a8909c412d004da74fa01", "0201ed48a10fa21fcbe162e8839522441637e6e82fc0b747e42135f791c4e4cb0b"], "sequence": 4294967295, "scriptSig": {"hex": "160014c505b1a1987a64e580888c24f1789b53b5bae127", "asm": "0014c505b1a1987a64e580888c24f1789b53b5bae127"}, "vout": 1, "txid": "ca6c56daacc876a74515666985aa186b2275e02a27e9ad9ef8978a62d280f107"}], "txid": "9f13a440e32c36b91041390258f46b4ba4d480c903b67688892cb3e30412c540", "blocktime": 1537873282, "version": 1, "confirmations": 11480, "time": 1537873282, "locktime": 0, "vsize": 202, "size": 283}