{"hash": "9f14c6aefb910c3e5a9221498c69b37c72642519524801a7891b0bdcd1513958", "blockhash": "00000000000000000004ffacab907a6b429b9a5745fa0b75af4234bf69dd7176", "vout": [{"scriptPubKey": {"reqSigs": 1, "hex": "76a9143859d179aeaeb6afdcdfa006925021ff1597fc9d88ac", "addresses": ["168xSRe6nEkeRoZbsKZSPwozTnMMGNfDZD"], "asm": "OP_DUP OP_HASH160 3859d179aeaeb6afdcdfa006925021ff1597fc9d OP_EQUALVERIFY OP_CHECKSIG", "type": "pubkeyhash"}, "value": 10.0, "n": 0}, {"scriptPubKey": {"reqSigs": 1, "hex": "76a914fa7d61f29fdd0334b3db15917f915fcd6287723288ac", "addresses": ["1PqU8hFVgyPVAGRHik9acLGu5FCiB6MyNN"], "asm": "OP_DUP OP_HASH160 fa7d61f29fdd0334b3db15917f915fcd62877232 OP_EQUALVERIFY OP_CHECKSIG", "type": "pubkeyhash"}, "value": 22.50282843, "n": 1}], "hex": "0100000001d777a9408ab8a89ae5db8a505ac1d226cc3f1f18f3e7bcbeaba4a0d01ca8a788010000006b483045022100a3616567a2398cb4fae8f7ef547ea1e07182873cc0dfe3dc4de3180c591c0a730220531e29697663297b14c3a1d951c918e490cf2b2f9f2164dd4b7c6f0b3814eae10121029fcc0f0c8472c2831a48b3ae6d0ef10c52e2082ff8e50990942dc31b6539ad24ffffffff0200ca9a3b000000001976a9143859d179aeaeb6afdcdfa006925021ff1597fc9d88ac5b972086000000001976a914fa7d61f29fdd0334b3db15917f915fcd6287723288ac00000000", "vin": [{"sequence": 4294967295, "scriptSig": {"hex": "483045022100a3616567a2398cb4fae8f7ef547ea1e07182873cc0dfe3dc4de3180c591c0a730220531e29697663297b14c3a1d951c918e490cf2b2f9f2164dd4b7c6f0b3814eae10121029fcc0f0c8472c2831a48b3ae6d0ef10c52e2082ff8e50990942dc31b6539ad24", "asm": "3045022100a3616567a2398cb4fae8f7ef547ea1e07182873cc0dfe3dc4de3180c591c0a730220531e29697663297b14c3a1d951c918e490cf2b2f9f2164dd4b7c6f0b3814eae1[ALL] 029fcc0f0c8472c2831a48b3ae6d0ef10c52e2082ff8e50990942dc31b6539ad24"}, "vout": 1, "txid": "88a7a81cd0a0a4abbebce7f3181f3fcc26d2c15a508adbe59aa8b88a40a977d7"}], "txid": "9f14c6aefb910c3e5a9221498c69b37c72642519524801a7891b0bdcd1513958", "blocktime": 1537875543, "version": 1, "confirmations": 11464, "time": 1537875543, "locktime": 0, "vsize": 226, "size": 226}