{"hash": "9f150facec40155c457099b30f74e86f7bb0efd92d8d6b00827687f8e1c840ca", "blockhash": "00000000000000000024a2167bbff67b0be802c0b01cdd79e6331c2be6459f87", "vout": [{"scriptPubKey": {"reqSigs": 1, "hex": "76a9142107141b8559e3e2a4c68c6ef1b5de1b1e4d7b8488ac", "addresses": ["141dnA4tXBZrLRD1BeYnUcSysC1X9bkfU9"], "asm": "OP_DUP OP_HASH160 2107141b8559e3e2a4c68c6ef1b5de1b1e4d7b84 OP_EQUALVERIFY OP_CHECKSIG", "type": "pubkeyhash"}, "value": 0.0031072, "n": 0}, {"scriptPubKey": {"reqSigs": 1, "hex": "76a914e0c81b3deca91c9b51c4adc50df82f9cb4601c2788ac", "addresses": ["1MVY5cEEKbw7cz7jDDvQjM9sYwCt6uwJae"], "asm": "OP_DUP OP_HASH160 e0c81b3deca91c9b51c4adc50df82f9cb4601c27 OP_EQUALVERIFY OP_CHECKSIG", "type": "pubkeyhash"}, "value": 0.01184107, "n": 1}], "hex": "01000000019d3f1eb86bf375add7402112f7755f37437d4fbd3ed0151958a9cd50aafb8a0a010000006b483045022100d3fadb537adc6967ba65e2730624def7d41f0b2876940a763ea7e56c082517d402204dfe1b8c160ab3f06535d658f5be9f2150c44b5292d21acef36d4483447cb1f5012102fa79981dbabe9c384d7e9d2730e27b726d43b832f95e2cee3bf0f98e81d1c864ffffffff02c0bd0400000000001976a9142107141b8559e3e2a4c68c6ef1b5de1b1e4d7b8488ac6b111200000000001976a914e0c81b3deca91c9b51c4adc50df82f9cb4601c2788ac00000000", "vin": [{"sequence": 4294967295, "scriptSig": {"hex": "483045022100d3fadb537adc6967ba65e2730624def7d41f0b2876940a763ea7e56c082517d402204dfe1b8c160ab3f06535d658f5be9f2150c44b5292d21acef36d4483447cb1f5012102fa79981dbabe9c384d7e9d2730e27b726d43b832f95e2cee3bf0f98e81d1c864", "asm": "3045022100d3fadb537adc6967ba65e2730624def7d41f0b2876940a763ea7e56c082517d402204dfe1b8c160ab3f06535d658f5be9f2150c44b5292d21acef36d4483447cb1f5[ALL] 02fa79981dbabe9c384d7e9d2730e27b726d43b832f95e2cee3bf0f98e81d1c864"}, "vout": 1, "txid": "0a8afbaa50cda9581915d03ebd4f7d43375f75f7122140d7ad75f36bb81e3f9d"}], "txid": "9f150facec40155c457099b30f74e86f7bb0efd92d8d6b00827687f8e1c840ca", "blocktime": 1537870564, "version": 1, "confirmations": 11515, "time": 1537870564, "locktime": 0, "vsize": 226, "size": 226}