{"hash": "f9ed91135b7729338fdcadbd792d23ea9bb77b63692c84e41076c77527b42988", "blockhash": "00000000000000000017f5eb5941039fbcee6240d03bc1f2f8e35350df66a1d8", "vout": [{"scriptPubKey": {"reqSigs": 1, "hex": "0014e303adc44187afca7630c94e464344e76dbb167a", "addresses": ["bc1quvp6m3zps7hu5a3se98yvs6yuakmk9n6ph9d7k"], "asm": "0 e303adc44187afca7630c94e464344e76dbb167a", "type": "witness_v0_keyhash"}, "value": 0.00506172, "n": 0}, {"scriptPubKey": {"reqSigs": 1, "hex": "a914749ee5e64a2dd588aa369e9b57c80fbd8e0cbc5f87", "addresses": ["3CKefE3tis31AFi8i5DdXdeRm4wFUDH4HF"], "asm": "OP_HASH160 749ee5e64a2dd588aa369e9b57c80fbd8e0cbc5f OP_EQUAL", "type": "scripthash"}, "value": 0.04418332, "n": 1}], "hex": "0100000000010197be6a8a9169769b7415ba2e32d7df4cf42f48f3f38ac712767cdf43ee0558c20000000000ffffffff023cb9070000000000160014e303adc44187afca7630c94e464344e76dbb167a1c6b43000000000017a914749ee5e64a2dd588aa369e9b57c80fbd8e0cbc5f8702483045022100b86329f45a863f12e47cd294abef43f513a91d70a40e88a7901559062263459002207b5a4b6cd19176dfc8fbced442ec73af3cecdecf08fe1c793d456823c0afa4ac012103d4dbd1b16607cf88cc22899878daa762325ace9f85b844b4a36eed44eba28b0c00000000", "vin": [{"txinwitness": ["3045022100b86329f45a863f12e47cd294abef43f513a91d70a40e88a7901559062263459002207b5a4b6cd19176dfc8fbced442ec73af3cecdecf08fe1c793d456823c0afa4ac01", "03d4dbd1b16607cf88cc22899878daa762325ace9f85b844b4a36eed44eba28b0c"], "sequence": 4294967295, "scriptSig": {"hex": "", "asm": ""}, "vout": 0, "txid": "c25805ee43df7c7612c78af3f3482ff44cdfd7322eba15749b7669918a6abe97"}], "txid": "9f163632c909d791830d88578964cfcf1c62333c8f0e5ff44e3798953e58993e", "blocktime": 1537874412, "version": 1, "confirmations": 11467, "time": 1537874412, "locktime": 0, "vsize": 142, "size": 224}