{"hash": "1eea70ca3caeed906527f878b21af4b0dc88a0cac8fda10360d5b2d88b6d72c5", "blockhash": "0000000000000000001f76057863aec43deb6fa401d9628bb513d65a8098bfab", "vout": [{"scriptPubKey": {"reqSigs": 1, "hex": "001451adcb8f816fca057c76567f4c4b78315504660b", "addresses": ["bc1q2xkuhrupdl9q2lrk2el5cjmcx92sgestz246g4"], "asm": "0 51adcb8f816fca057c76567f4c4b78315504660b", "type": "witness_v0_keyhash"}, "value": 2.316e-05, "n": 0}, {"scriptPubKey": {"reqSigs": 1, "hex": "76a9140b67850c9f11b756b53836a35c2b393dd5f081eb88ac", "addresses": ["123JSndGU2Q1v9gc3k2qTnUtuHakTGfc9B"], "asm": "OP_DUP OP_HASH160 0b67850c9f11b756b53836a35c2b393dd5f081eb OP_EQUALVERIFY OP_CHECKSIG", "type": "pubkeyhash"}, "value": 0.00221522, "n": 1}], "hex": "01000000000101c8deca19e9761b47203b3362ad6b2157314154fa78536d52d2899451da05aab4e100000017160014bc1b1aa4abc957f9b8c1fb630d08a8e67b5cbecdffffffff020c0900000000000016001451adcb8f816fca057c76567f4c4b78315504660b52610300000000001976a9140b67850c9f11b756b53836a35c2b393dd5f081eb88ac0247304402200696d279861623c2dc7f2eeb6b101ed3fa0741d2abca8f781944c38feef699c802207b6642ca2c4445d1cb3c0c2dd8e107b0ab3f76038343fc1b5a60c5cc31cec36a01210254be01013af9f58c6c030c3f1edccbf5e76944aad0487dd2639a13cd6d522a7e00000000", "vin": [{"txinwitness": ["304402200696d279861623c2dc7f2eeb6b101ed3fa0741d2abca8f781944c38feef699c802207b6642ca2c4445d1cb3c0c2dd8e107b0ab3f76038343fc1b5a60c5cc31cec36a01", "0254be01013af9f58c6c030c3f1edccbf5e76944aad0487dd2639a13cd6d522a7e"], "sequence": 4294967295, "scriptSig": {"hex": "160014bc1b1aa4abc957f9b8c1fb630d08a8e67b5cbecd", "asm": "0014bc1b1aa4abc957f9b8c1fb630d08a8e67b5cbecd"}, "vout": 225, "txid": "b4aa05da519489d2526d5378fa54413157216bad62333b20471b76e919cadec8"}], "txid": "9f1cd8a6fda214e2752f66a631051ce0d106653f41265ed01f3e855854842faa", "blocktime": 1537873891, "version": 1, "confirmations": 11478, "time": 1537873891, "locktime": 0, "vsize": 167, "size": 248}