{"hash": "9f1d96c0671e7d07edf65ac8ae635b493ee4c794095dc2307318dfca2e766c97", "blockhash": "0000000000000000001cda96e906b7601b7a6fb1a3b62bca570a9e5d8f4b3de1", "vout": [{"scriptPubKey": {"reqSigs": 1, "hex": "76a9141fd8d97d72090081eed92a11412bde5eb7eb502f88ac", "addresses": ["13uPivJdviBQPFAiMRdDoiveqsCD1tZvBF"], "asm": "OP_DUP OP_HASH160 1fd8d97d72090081eed92a11412bde5eb7eb502f OP_EQUALVERIFY OP_CHECKSIG", "type": "pubkeyhash"}, "value": 0.0102181, "n": 0}, {"scriptPubKey": {"reqSigs": 1, "hex": "a914c9095019d2c682672fbb41bc4779fde8601bda2987", "addresses": ["3L1zuAyrUFNPjiM92pYpDvyhm7So6QGbaF"], "asm": "OP_HASH160 c9095019d2c682672fbb41bc4779fde8601bda29 OP_EQUAL", "type": "scripthash"}, "value": 0.0349246, "n": 1}], "hex": "010000000360d20f97ebd691f61acb9f4bbbdb1169025431a949f605f1a619f71b9a0f5fed000000006b483045022100d73af5b9f740108319159f89f2b1e766411e01387fe72f6f53d8e587b364d7e902207e35b0e6a9dae7aecef2132b7222b050c4cd88a01f654b0f9e324f2c9999f92001210338bf8c8bc7ea9031192cd0eb364eaa8549df5c24f92b12953e5722cc4d13730affffffffe9a7fd83ecc237b111436a8d3277d35a1bdcbae7a564e897f07f8087e7b3ce75990000006a47304402207b57c929fffb71849448d9254b1ff5157a6987a5ab936e9054a75a1e25fad9660220688a8ede6565ac0ea264854481f5c6981def863281db7a7fcd1c4d18261b3c2f012102d11254e38d36ae7f848d726e657b9810c41a2920b66e941bfb800fc477d7d5d8ffffffff35cb4b48050e0f8db6805a0fc2bc20e46432fd6fce2ea5f3398f59b87a76f9ae9e0000006a4730440220483310187d6f92f59b886ad92d39af4da5d275c9c51bdc33a4b9f1e229c6a1a702202accb109c920537a6716ef79905fccca97c628501c2136380e8481db8ad7800f012102d11254e38d36ae7f848d726e657b9810c41a2920b66e941bfb800fc477d7d5d8ffffffff0272970f00000000001976a9141fd8d97d72090081eed92a11412bde5eb7eb502f88ac6c4a35000000000017a914c9095019d2c682672fbb41bc4779fde8601bda298700000000", "vin": [{"sequence": 4294967295, "scriptSig": {"hex": "483045022100d73af5b9f740108319159f89f2b1e766411e01387fe72f6f53d8e587b364d7e902207e35b0e6a9dae7aecef2132b7222b050c4cd88a01f654b0f9e324f2c9999f92001210338bf8c8bc7ea9031192cd0eb364eaa8549df5c24f92b12953e5722cc4d13730a", "asm": "3045022100d73af5b9f740108319159f89f2b1e766411e01387fe72f6f53d8e587b364d7e902207e35b0e6a9dae7aecef2132b7222b050c4cd88a01f654b0f9e324f2c9999f920[ALL] 0338bf8c8bc7ea9031192cd0eb364eaa8549df5c24f92b12953e5722cc4d13730a"}, "vout": 0, "txid": "ed5f0f9a1bf719a6f105f649a93154026911dbbb4b9fcb1af691d6eb970fd260"}, {"sequence": 4294967295, "scriptSig": {"hex": "47304402207b57c929fffb71849448d9254b1ff5157a6987a5ab936e9054a75a1e25fad9660220688a8ede6565ac0ea264854481f5c6981def863281db7a7fcd1c4d18261b3c2f012102d11254e38d36ae7f848d726e657b9810c41a2920b66e941bfb800fc477d7d5d8", "asm": "304402207b57c929fffb71849448d9254b1ff5157a6987a5ab936e9054a75a1e25fad9660220688a8ede6565ac0ea264854481f5c6981def863281db7a7fcd1c4d18261b3c2f[ALL] 02d11254e38d36ae7f848d726e657b9810c41a2920b66e941bfb800fc477d7d5d8"}, "vout": 153, "txid": "75ceb3e787807ff097e864a5e7badc1b5ad377328d6a4311b137c2ec83fda7e9"}, {"sequence": 4294967295, "scriptSig": {"hex": "4730440220483310187d6f92f59b886ad92d39af4da5d275c9c51bdc33a4b9f1e229c6a1a702202accb109c920537a6716ef79905fccca97c628501c2136380e8481db8ad7800f012102d11254e38d36ae7f848d726e657b9810c41a2920b66e941bfb800fc477d7d5d8", "asm": "30440220483310187d6f92f59b886ad92d39af4da5d275c9c51bdc33a4b9f1e229c6a1a702202accb109c920537a6716ef79905fccca97c628501c2136380e8481db8ad7800f[ALL] 02d11254e38d36ae7f848d726e657b9810c41a2920b66e941bfb800fc477d7d5d8"}, "vout": 158, "txid": "aef9767ab8598f39f3a52ece6ffd3264e420bcc20f5a80b68d0f0e05484bcb35"}], "txid": "9f1d96c0671e7d07edf65ac8ae635b493ee4c794095dc2307318dfca2e766c97", "blocktime": 1537873282, "version": 1, "confirmations": 11485, "time": 1537873282, "locktime": 0, "vsize": 518, "size": 518}