{"hash": "e6a39a5a98102df149c953429f9e7dc88eef8b76e70bcae4e5cf6825d99e07b1", "blockhash": "0000000000000000001cda96e906b7601b7a6fb1a3b62bca570a9e5d8f4b3de1", "vout": [{"scriptPubKey": {"reqSigs": 1, "hex": "76a9142dce215a26ee37b34d084e999a6cc8e9fbe5526888ac", "addresses": ["15BCLpJ8cYbrt3u3ccgYRmsDbUZaKYKD2L"], "asm": "OP_DUP OP_HASH160 2dce215a26ee37b34d084e999a6cc8e9fbe55268 OP_EQUALVERIFY OP_CHECKSIG", "type": "pubkeyhash"}, "value": 0.1895, "n": 0}, {"scriptPubKey": {"reqSigs": 1, "hex": "a914a7c05235e2f72dcf7830fb7461ecf58ca560478987", "addresses": ["3Gz1AHYpyzYWMNvKCbF93KhiiuMo23E7wF"], "asm": "OP_HASH160 a7c05235e2f72dcf7830fb7461ecf58ca5604789 OP_EQUAL", "type": "scripthash"}, "value": 0.00999832, "n": 1}], "hex": "02000000000101a8bb4386868a1ce5cb5f954b8bd53f1b8e04d185401d9454f3010b61e8f47376070000001716001403bc74d996ec7e7f4b8b212762188e731f0d3640fdffffff0270272101000000001976a9142dce215a26ee37b34d084e999a6cc8e9fbe5526888ac98410f000000000017a914a7c05235e2f72dcf7830fb7461ecf58ca56047898702473044022024be591d4dbaa8969a60c1ac06692ce05b9e66401f1a355cd29a5778045792b1022064e4e6f3de16a33bb499b289bdfe0c5c417ab7e3d1c58fe6d3df96007d48aa4f012102e997ba55c91f9a2f484a1bb032771725d8173064795882d5beb29a7155333e4813490800", "vin": [{"txinwitness": ["3044022024be591d4dbaa8969a60c1ac06692ce05b9e66401f1a355cd29a5778045792b1022064e4e6f3de16a33bb499b289bdfe0c5c417ab7e3d1c58fe6d3df96007d48aa4f01", "02e997ba55c91f9a2f484a1bb032771725d8173064795882d5beb29a7155333e48"], "sequence": 4294967293, "scriptSig": {"hex": "16001403bc74d996ec7e7f4b8b212762188e731f0d3640", "asm": "001403bc74d996ec7e7f4b8b212762188e731f0d3640"}, "vout": 7, "txid": "7673f4e8610b01f354941d4085d1048e1b3fd58b4b955fcbe51c8a868643bba8"}], "txid": "9f1fa4b3be1cf106376e0afdcd1c53056733c2d69027fe8cc6800cb94d9fdc23", "blocktime": 1537873282, "version": 2, "confirmations": 11485, "time": 1537873282, "locktime": 542995, "vsize": 168, "size": 249}