{"hash": "9f22b64cae5bfd07fbcc16c4f1c2e00eadf1ac45b6b1eaa19b33397d1ed6e045", "blockhash": "00000000000000000018f53835495a110e01622372bf6ae95dc86f2b0ab887b0", "vout": [{"scriptPubKey": {"reqSigs": 1, "hex": "76a914ab48b0901fba7a4f7f8148ac9700424620e5288b88ac", "addresses": ["1GcfdNZsksiE4ouqAGva5gQkWsHsNwhf3G"], "asm": "OP_DUP OP_HASH160 ab48b0901fba7a4f7f8148ac9700424620e5288b OP_EQUALVERIFY OP_CHECKSIG", "type": "pubkeyhash"}, "value": 0.00645784, "n": 0}, {"scriptPubKey": {"type": "nulldata", "hex": "6a4c500000778b0001ff92ec952c90c61a89457c40e3ef3236678a625097bcbefa6b8351586b4ef91c4b25dab5f9ade75bb888c7948e425baa0bed06142d45a2d56b271d100759d4ba30d2c37bb011d97e02cf", "asm": "OP_RETURN 0000778b0001ff92ec952c90c61a89457c40e3ef3236678a625097bcbefa6b8351586b4ef91c4b25dab5f9ade75bb888c7948e425baa0bed06142d45a2d56b271d100759d4ba30d2c37bb011d97e02cf"}, "value": 0.0, "n": 1}], "hex": "01000000016e964b49f402cd250aed0c48048093316afdfdda18751aacf5ddea5b9d627dc3000000006a47304402200e190e4255d524cbec834b1fb9d07fe35f6af01da2e6d839427e6eb431740605022049e4fa2cb03fc432138059bfe28b6b65f689296f932ca22adde3560dded3750601210296cb92437e4262e8fd301d06667db14af319b09481b77f6193e2008dc1fb6767ffffffff0298da0900000000001976a914ab48b0901fba7a4f7f8148ac9700424620e5288b88ac0000000000000000536a4c500000778b0001ff92ec952c90c61a89457c40e3ef3236678a625097bcbefa6b8351586b4ef91c4b25dab5f9ade75bb888c7948e425baa0bed06142d45a2d56b271d100759d4ba30d2c37bb011d97e02cf00000000", "vin": [{"sequence": 4294967295, "scriptSig": {"hex": "47304402200e190e4255d524cbec834b1fb9d07fe35f6af01da2e6d839427e6eb431740605022049e4fa2cb03fc432138059bfe28b6b65f689296f932ca22adde3560dded3750601210296cb92437e4262e8fd301d06667db14af319b09481b77f6193e2008dc1fb6767", "asm": "304402200e190e4255d524cbec834b1fb9d07fe35f6af01da2e6d839427e6eb431740605022049e4fa2cb03fc432138059bfe28b6b65f689296f932ca22adde3560dded37506[ALL] 0296cb92437e4262e8fd301d06667db14af319b09481b77f6193e2008dc1fb6767"}, "vout": 0, "txid": "c37d629d5beaddf5ac1a7518dafdfd6a31938004480ced0a25cd02f4494b966e"}], "txid": "9f22b64cae5bfd07fbcc16c4f1c2e00eadf1ac45b6b1eaa19b33397d1ed6e045", "blocktime": 1537870928, "version": 1, "confirmations": 11512, "time": 1537870928, "locktime": 0, "vsize": 283, "size": 283}