{"hash": "9f2ba909ba2a7806ba690637be9943733c585bcaf38ce68ec8b77eca6efcc4ed", "blockhash": "0000000000000000000e13cef7c366c0283d82e591d1acd082e914b08063cdf1", "vout": [{"scriptPubKey": {"reqSigs": 1, "hex": "a914da1245bd352b167044d5b4eb493726203fb2a51d87", "addresses": ["3Ma57xD2frrVvb69fCctQc2f6vpqbxtN2S"], "asm": "OP_HASH160 da1245bd352b167044d5b4eb493726203fb2a51d OP_EQUAL", "type": "scripthash"}, "value": 0.00137697, "n": 0}, {"scriptPubKey": {"reqSigs": 1, "hex": "76a914d5ccaa302e76ab7ec434c3877953f40bdb5a882288ac", "addresses": ["1LVU7DioUamujbScrRqbK1UJSFBkreHYxG"], "asm": "OP_DUP OP_HASH160 d5ccaa302e76ab7ec434c3877953f40bdb5a8822 OP_EQUALVERIFY OP_CHECKSIG", "type": "pubkeyhash"}, "value": 8.356e-05, "n": 1}], "hex": "0100000003b7658791a8006aa3dc7ff2c599b43f7258ca4a0e37279f93ec56385d6bce6d0200000000da0047304402205adb188bbb2a0e85ea4affb8221c87f1795c46c0226250b28b2fa26b42dc11f7022061e004eee2df83e4bec17526f0f7e649cc54aceb1654661c0bef05e117fe917001483045022100b53b4d82c4f9a0b93c29677126bbe820e6bc0dfe978dd50de83d52a73812b2d102200c23b209e1c84522c149f37ea78aacc25ecfea9ad0044a9096acc26e735b8664014752210243aa9456f02302e817c1ee04441c309007f9c0744f81fe65de764d072b2413ca2102907a54bed8ad74b3f35638c60114ca240a308cb986f3f2f306178869a8880b6152aeffffffff8f79bcf3f1f5c961f2e51bda1290683b5ddac724248120df5c6f4fac46e7beae00000000d90047304402207368a79e126ecc5815327ddac7029e0924c0719c34d1e32e31ee97e2d1585f47022003782540da0b1ce1565169718a2989f5196ada1ef3433c008a03819496ae91b00147304402207f6243f15d6658a0d0fc6724e2abc9de516f73b911b249e2ae909119aee41a3b022039ab930c628770ae8c5e758b6aa9ebff23ff4369e3f152e89674e774dc7cffb00147522102907a54bed8ad74b3f35638c60114ca240a308cb986f3f2f306178869a8880b6121032f15ab475b5a0ce1c0adbe9df88c7184d050cf845c0098451d28c0a81c5a491052aeffffffff50e07aa5399a15c367eeb5f67f763284c1467931f4981c2b005b00bb74978781010000006b483045022100870bbcf24aaeae5b03edf9e54b08334325dbd50793b946eec080db652074167402203882310f5f264b656044181ecd612e8330af3e13367712551b7479528f89a2d20121022ee04d192fc125e000ae80e691c207230ed2919b4fb8fed56ed0b61eeedfa8e0ffffffff02e11902000000000017a914da1245bd352b167044d5b4eb493726203fb2a51d87a4200000000000001976a914d5ccaa302e76ab7ec434c3877953f40bdb5a882288ac00000000", "vin": [{"sequence": 4294967295, "scriptSig": {"hex": "0047304402205adb188bbb2a0e85ea4affb8221c87f1795c46c0226250b28b2fa26b42dc11f7022061e004eee2df83e4bec17526f0f7e649cc54aceb1654661c0bef05e117fe917001483045022100b53b4d82c4f9a0b93c29677126bbe820e6bc0dfe978dd50de83d52a73812b2d102200c23b209e1c84522c149f37ea78aacc25ecfea9ad0044a9096acc26e735b8664014752210243aa9456f02302e817c1ee04441c309007f9c0744f81fe65de764d072b2413ca2102907a54bed8ad74b3f35638c60114ca240a308cb986f3f2f306178869a8880b6152ae", "asm": "0 304402205adb188bbb2a0e85ea4affb8221c87f1795c46c0226250b28b2fa26b42dc11f7022061e004eee2df83e4bec17526f0f7e649cc54aceb1654661c0bef05e117fe9170[ALL] 3045022100b53b4d82c4f9a0b93c29677126bbe820e6bc0dfe978dd50de83d52a73812b2d102200c23b209e1c84522c149f37ea78aacc25ecfea9ad0044a9096acc26e735b8664[ALL] 52210243aa9456f02302e817c1ee04441c309007f9c0744f81fe65de764d072b2413ca2102907a54bed8ad74b3f35638c60114ca240a308cb986f3f2f306178869a8880b6152ae"}, "vout": 0, "txid": "026dce6b5d3856ec939f27370e4aca58723fb499c5f27fdca36a00a8918765b7"}, {"sequence": 4294967295, "scriptSig": {"hex": "0047304402207368a79e126ecc5815327ddac7029e0924c0719c34d1e32e31ee97e2d1585f47022003782540da0b1ce1565169718a2989f5196ada1ef3433c008a03819496ae91b00147304402207f6243f15d6658a0d0fc6724e2abc9de516f73b911b249e2ae909119aee41a3b022039ab930c628770ae8c5e758b6aa9ebff23ff4369e3f152e89674e774dc7cffb00147522102907a54bed8ad74b3f35638c60114ca240a308cb986f3f2f306178869a8880b6121032f15ab475b5a0ce1c0adbe9df88c7184d050cf845c0098451d28c0a81c5a491052ae", "asm": "0 304402207368a79e126ecc5815327ddac7029e0924c0719c34d1e32e31ee97e2d1585f47022003782540da0b1ce1565169718a2989f5196ada1ef3433c008a03819496ae91b0[ALL] 304402207f6243f15d6658a0d0fc6724e2abc9de516f73b911b249e2ae909119aee41a3b022039ab930c628770ae8c5e758b6aa9ebff23ff4369e3f152e89674e774dc7cffb0[ALL] 522102907a54bed8ad74b3f35638c60114ca240a308cb986f3f2f306178869a8880b6121032f15ab475b5a0ce1c0adbe9df88c7184d050cf845c0098451d28c0a81c5a491052ae"}, "vout": 0, "txid": "aebee746ac4f6f5cdf20812424c7da5d3b689012da1be5f261c9f5f1f3bc798f"}, {"sequence": 4294967295, "scriptSig": {"hex": "483045022100870bbcf24aaeae5b03edf9e54b08334325dbd50793b946eec080db652074167402203882310f5f264b656044181ecd612e8330af3e13367712551b7479528f89a2d20121022ee04d192fc125e000ae80e691c207230ed2919b4fb8fed56ed0b61eeedfa8e0", "asm": "3045022100870bbcf24aaeae5b03edf9e54b08334325dbd50793b946eec080db652074167402203882310f5f264b656044181ecd612e8330af3e13367712551b7479528f89a2d2[ALL] 022ee04d192fc125e000ae80e691c207230ed2919b4fb8fed56ed0b61eeedfa8e0"}, "vout": 1, "txid": "81879774bb005b002b1c98f4317946c18432767ff6b5ee67c3159a39a57ae050"}], "txid": "9f2ba909ba2a7806ba690637be9943733c585bcaf38ce68ec8b77eca6efcc4ed", "blocktime": 1537871767, "version": 1, "confirmations": 11495, "time": 1537871767, "locktime": 0, "vsize": 741, "size": 741}