{"hash": "9f2b140f3e216a138d0eef42d5c24750899685ebf5286ee83c263e29919da1c2", "blockhash": "0000000000000000000e13cef7c366c0283d82e591d1acd082e914b08063cdf1", "vout": [{"scriptPubKey": {"reqSigs": 1, "hex": "a914c65c2527ade94ecc2bc963fd47d39d8932a2f23087", "addresses": ["3Kmr6t93As5EnjhPa9zXtj9qd1h6f1ZM17"], "asm": "OP_HASH160 c65c2527ade94ecc2bc963fd47d39d8932a2f230 OP_EQUAL", "type": "scripthash"}, "value": 0.00245999, "n": 0}, {"scriptPubKey": {"reqSigs": 1, "hex": "76a9144da73583a527fe81fa3c65351b192630eb90352388ac", "addresses": ["185bLfCvV53H6eZiJXk8b7XQGdxUq1GHc2"], "asm": "OP_DUP OP_HASH160 4da73583a527fe81fa3c65351b192630eb903523 OP_EQUALVERIFY OP_CHECKSIG", "type": "pubkeyhash"}, "value": 0.0160254, "n": 1}], "hex": "0100000001d0b99d8c8301d64c6cb4d85fbb656c3d6d15fa3ab9f18c5ac4bc0e4ec67149cf010000006b48304502210090e83159f2eb95a90c99c6f77eeec6575e3b1d3cba6b394d6a048140f461bf070220729c3e3cfb3e114afc3931d15e6b91536f86bdc07dadafb861ccccfa1a033fc301210339e22edbe72d033c189950110b3b0c5f2cc0cdf6b7ec51ab0295f992d1130facffffffff02efc003000000000017a914c65c2527ade94ecc2bc963fd47d39d8932a2f23087ec731800000000001976a9144da73583a527fe81fa3c65351b192630eb90352388ac00000000", "vin": [{"sequence": 4294967295, "scriptSig": {"hex": "48304502210090e83159f2eb95a90c99c6f77eeec6575e3b1d3cba6b394d6a048140f461bf070220729c3e3cfb3e114afc3931d15e6b91536f86bdc07dadafb861ccccfa1a033fc301210339e22edbe72d033c189950110b3b0c5f2cc0cdf6b7ec51ab0295f992d1130fac", "asm": "304502210090e83159f2eb95a90c99c6f77eeec6575e3b1d3cba6b394d6a048140f461bf070220729c3e3cfb3e114afc3931d15e6b91536f86bdc07dadafb861ccccfa1a033fc3[ALL] 0339e22edbe72d033c189950110b3b0c5f2cc0cdf6b7ec51ab0295f992d1130fac"}, "vout": 1, "txid": "cf4971c64e0ebcc45a8cf1b93afa156d3d6c65bb5fd8b46c4cd601838c9db9d0"}], "txid": "9f2b140f3e216a138d0eef42d5c24750899685ebf5286ee83c263e29919da1c2", "blocktime": 1537871767, "version": 1, "confirmations": 11492, "time": 1537871767, "locktime": 0, "vsize": 224, "size": 224}