{"hash": "7420493cbace44206d8436f2b0705cdf1de034167bd3972c93ca6163756247f3", "blockhash": "0000000000000000001cda96e906b7601b7a6fb1a3b62bca570a9e5d8f4b3de1", "vout": [{"scriptPubKey": {"reqSigs": 1, "hex": "a9141085c571b325852e1a1912861aae013813aeadd187", "addresses": ["33CNzCm2W6N86vWWMbxu59LRNWtTS1zNLq"], "asm": "OP_HASH160 1085c571b325852e1a1912861aae013813aeadd1 OP_EQUAL", "type": "scripthash"}, "value": 0.01509924, "n": 0}, {"scriptPubKey": {"reqSigs": 1, "hex": "0014020c1b819834454851fc72b958927dd46ee9add5", "addresses": ["bc1qqgxphqvcx3z5s50uw2u43yna63hwntw47c5nxh"], "asm": "0 020c1b819834454851fc72b958927dd46ee9add5", "type": "witness_v0_keyhash"}, "value": 0.00026199, "n": 1}], "hex": "0100000000010193a4683577237296b96eb736d72157980b9e60763bca1cc73d7f882ba101caa10100000000ffffffff02240a17000000000017a9141085c571b325852e1a1912861aae013813aeadd1875766000000000000160014020c1b819834454851fc72b958927dd46ee9add50247304402205b17cd5cfb74852ada272f7d39bbe5deea7b028dd3dcbec9da09642e8151062502205a2455951796d0163451a8ab52c3bc6f1c9714f8ef339ccaa15a966abe4950a001210306511efe5e8a9db4581d1fb3172135dff1daa37e4a8a4d36fc9bc886dd58b0b500000000", "vin": [{"txinwitness": ["304402205b17cd5cfb74852ada272f7d39bbe5deea7b028dd3dcbec9da09642e8151062502205a2455951796d0163451a8ab52c3bc6f1c9714f8ef339ccaa15a966abe4950a001", "0306511efe5e8a9db4581d1fb3172135dff1daa37e4a8a4d36fc9bc886dd58b0b5"], "sequence": 4294967295, "scriptSig": {"hex": "", "asm": ""}, "vout": 1, "txid": "a1ca01a12b887f3dc71cca3b76609e0b985721d736b76eb9967223773568a493"}], "txid": "9f2c989907715e7bb8ee8d52eafd35ad64cc566d676ab7fb7b734dd0ba35bb83", "blocktime": 1537873282, "version": 1, "confirmations": 11484, "time": 1537873282, "locktime": 0, "vsize": 142, "size": 223}