{"hash": "9f40fd157f4e203629a6c12c2cc7bbfbe7df5cdf71eee9eb4d134919e82c8bf4", "blockhash": "0000000000000000001cda96e906b7601b7a6fb1a3b62bca570a9e5d8f4b3de1", "vout": [{"scriptPubKey": {"reqSigs": 1, "hex": "a9140feb3a8e5648a1911593b65a00b66f72d1234f8c87", "addresses": ["339BrQAYQxiQH41Y1D94SwHNioq2Kfr78B"], "asm": "OP_HASH160 0feb3a8e5648a1911593b65a00b66f72d1234f8c OP_EQUAL", "type": "scripthash"}, "value": 0.0099387, "n": 0}, {"scriptPubKey": {"reqSigs": 1, "hex": "76a91409bb7de30874422042185d218038f3ef0ffde1fc88ac", "addresses": ["1tTgt7oXkHNYFGNejRpGENdEQMdvp5aXz"], "asm": "OP_DUP OP_HASH160 09bb7de30874422042185d218038f3ef0ffde1fc OP_EQUALVERIFY OP_CHECKSIG", "type": "pubkeyhash"}, "value": 0.0079, "n": 1}], "hex": "02000000028f4d3379a782fef51e2c574860f295611420978e99d264650ecb178765b28884240000006b483045022100e1f7dee5d0ea4fb968e5d701817249b0dd50cb16c281e7c2317376a9ed8b1bbb02203c76244a79c500bb5a6fff186960e6882c03e1511647ab6002b842fff7e92d230121027139fb68a3848ae759fcdae822390472a20de5a5d36b78627a32a9fb29c8a03dfeffffffc0ffe871618f097d6ab6a25e524768eda604752123a3d4d5c350203265c05169010100006a473044022031c2cfdcbe191cef966bd4a373297bbb5921669a79a4e52edd8d34613a3d82b002203e5d317ef3efbd514a7f7bba0cd884df4136d13783892b151be97f40f7b8d91f012102acfa6ee11885eebeb77a6603b60a273dcc4b6e86de98ea6510e77b01318ac28efeffffff024e2a0f000000000017a9140feb3a8e5648a1911593b65a00b66f72d1234f8c87f00d0c00000000001976a91409bb7de30874422042185d218038f3ef0ffde1fc88ac13490800", "vin": [{"sequence": 4294967294, "scriptSig": {"hex": "483045022100e1f7dee5d0ea4fb968e5d701817249b0dd50cb16c281e7c2317376a9ed8b1bbb02203c76244a79c500bb5a6fff186960e6882c03e1511647ab6002b842fff7e92d230121027139fb68a3848ae759fcdae822390472a20de5a5d36b78627a32a9fb29c8a03d", "asm": "3045022100e1f7dee5d0ea4fb968e5d701817249b0dd50cb16c281e7c2317376a9ed8b1bbb02203c76244a79c500bb5a6fff186960e6882c03e1511647ab6002b842fff7e92d23[ALL] 027139fb68a3848ae759fcdae822390472a20de5a5d36b78627a32a9fb29c8a03d"}, "vout": 36, "txid": "8488b2658717cb0e6564d2998e9720146195f26048572c1ef5fe82a779334d8f"}, {"sequence": 4294967294, "scriptSig": {"hex": "473044022031c2cfdcbe191cef966bd4a373297bbb5921669a79a4e52edd8d34613a3d82b002203e5d317ef3efbd514a7f7bba0cd884df4136d13783892b151be97f40f7b8d91f012102acfa6ee11885eebeb77a6603b60a273dcc4b6e86de98ea6510e77b01318ac28e", "asm": "3044022031c2cfdcbe191cef966bd4a373297bbb5921669a79a4e52edd8d34613a3d82b002203e5d317ef3efbd514a7f7bba0cd884df4136d13783892b151be97f40f7b8d91f[ALL] 02acfa6ee11885eebeb77a6603b60a273dcc4b6e86de98ea6510e77b01318ac28e"}, "vout": 257, "txid": "6951c065322050c3d5d4a323217504a6ed6847525ea2b66a7d098f6171e8ffc0"}], "txid": "9f40fd157f4e203629a6c12c2cc7bbfbe7df5cdf71eee9eb4d134919e82c8bf4", "blocktime": 1537873282, "version": 2, "confirmations": 11480, "time": 1537873282, "locktime": 542995, "vsize": 371, "size": 371}