{"hash": "95cec222155ca819c1d641d0ad3ef985ee91f4e47943e28be81aa98c2adce31a", "blockhash": "00000000000000000018f53835495a110e01622372bf6ae95dc86f2b0ab887b0", "vout": [{"scriptPubKey": {"reqSigs": 1, "hex": "76a914951488c657012866a9f2ae1b680c017c398178b788ac", "addresses": ["1EbGHL6fkkXwSsCH9NuJDQtmSwpkVxkoch"], "asm": "OP_DUP OP_HASH160 951488c657012866a9f2ae1b680c017c398178b7 OP_EQUALVERIFY OP_CHECKSIG", "type": "pubkeyhash"}, "value": 0.00156, "n": 0}, {"scriptPubKey": {"reqSigs": 1, "hex": "0014a817c19e36189d91d664a30316036fe464f06fd2", "addresses": ["bc1q4qtur83krzwer4ny5vp3vqm0u3j0qm7jxyqpqf"], "asm": "0 a817c19e36189d91d664a30316036fe464f06fd2", "type": "witness_v0_keyhash"}, "value": 2.62e-05, "n": 1}], "hex": "010000000001010705524bcbfd59179b00ad0e3242a6d3f5d36a925685c4f4d8bed2ead07d01cf0000000000ffffffff0260610200000000001976a914951488c657012866a9f2ae1b680c017c398178b788ac3c0a000000000000160014a817c19e36189d91d664a30316036fe464f06fd202473044022026b06f7e5ba31758f33f4157bea9f0d4daaaf407f6d309e369b52de6d6413012022057c891be06625648cd3d0b11c048f394aea2f06838f570fab8d6878e6a71b6360121021fa41dd5a89c68795bd04b86558ceba748339b1dcf1e4e50eef3c8f12e511e2000000000", "vin": [{"txinwitness": ["3044022026b06f7e5ba31758f33f4157bea9f0d4daaaf407f6d309e369b52de6d6413012022057c891be06625648cd3d0b11c048f394aea2f06838f570fab8d6878e6a71b63601", "021fa41dd5a89c68795bd04b86558ceba748339b1dcf1e4e50eef3c8f12e511e20"], "sequence": 4294967295, "scriptSig": {"hex": "", "asm": ""}, "vout": 0, "txid": "cf017dd0ead2bed8f4c48556926ad3f5d3a642320ead009b1759fdcb4b520507"}], "txid": "9f4432930798558dd0d4312a7ea75212bda5809426e2931b04e3ccf9a87fe391", "blocktime": 1537870928, "version": 1, "confirmations": 11514, "time": 1537870928, "locktime": 0, "vsize": 144, "size": 225}