{"hash": "9f4f0c2da5ae7c13ddb717d865c4fa6ec15bb3443a3a5d34bf876ce21f91f0c1", "blockhash": "0000000000000000001e0dab787dd257d1dbfcb92a98c2207d5e1078be1f4165", "vout": [{"scriptPubKey": {"reqSigs": 1, "hex": "a914dd57a2f74161467e948b857f7bbb9f900cc3c1be87", "addresses": ["3MsNF2yuQDPu4YS4Hed5AuWmjjnC25K8Jr"], "asm": "OP_HASH160 dd57a2f74161467e948b857f7bbb9f900cc3c1be OP_EQUAL", "type": "scripthash"}, "value": 0.01247444, "n": 0}], "hex": "0100000001b76a50da29d5510daad27d98e48ea0ad010a168805cfff7f1b8be2aed82a716e000000006b483045022100d7ca22f66858df319a039fa8bb599183500fa0c6f31a6664143ba71e9c6c3d170220412707d1ab2c9ad51be3ab67d2159aa76cee8ba5d37e654e9e13e8100f7327a20121024286f62cc1077a3ae8c10a238fe49028dfba9d8a9a06f3da68569964cfee9cbeffffffff01d40813000000000017a914dd57a2f74161467e948b857f7bbb9f900cc3c1be8700000000", "vin": [{"sequence": 4294967295, "scriptSig": {"hex": "483045022100d7ca22f66858df319a039fa8bb599183500fa0c6f31a6664143ba71e9c6c3d170220412707d1ab2c9ad51be3ab67d2159aa76cee8ba5d37e654e9e13e8100f7327a20121024286f62cc1077a3ae8c10a238fe49028dfba9d8a9a06f3da68569964cfee9cbe", "asm": "3045022100d7ca22f66858df319a039fa8bb599183500fa0c6f31a6664143ba71e9c6c3d170220412707d1ab2c9ad51be3ab67d2159aa76cee8ba5d37e654e9e13e8100f7327a2[ALL] 024286f62cc1077a3ae8c10a238fe49028dfba9d8a9a06f3da68569964cfee9cbe"}, "vout": 0, "txid": "6e712ad8aee28b1b7fffcf0588160a01ada08ee4987dd2aa0d51d529da506ab7"}], "txid": "9f4f0c2da5ae7c13ddb717d865c4fa6ec15bb3443a3a5d34bf876ce21f91f0c1", "blocktime": 1537872475, "version": 1, "confirmations": 11486, "time": 1537872475, "locktime": 0, "vsize": 190, "size": 190}