{"hash": "f575c505477c93ed2a76b2888f356913f127514b7375f47f802427f28ea70afa", "blockhash": "0000000000000000001f76057863aec43deb6fa401d9628bb513d65a8098bfab", "vout": [{"scriptPubKey": {"reqSigs": 1, "hex": "a91430af07ccc44873a9833087c16ce53ac4f8a8ec8e87", "addresses": ["368S35hG3AJkfMqkwthjw4dCV3Wv2GhjFB"], "asm": "OP_HASH160 30af07ccc44873a9833087c16ce53ac4f8a8ec8e OP_EQUAL", "type": "scripthash"}, "value": 0.01037807, "n": 0}, {"scriptPubKey": {"reqSigs": 1, "hex": "76a9148053654f9858ee7f6cfbef207f983124f192322988ac", "addresses": ["1ChXPzZ5NBYYQC6zNoA79L1CejG5yGrP2h"], "asm": "OP_DUP OP_HASH160 8053654f9858ee7f6cfbef207f983124f1923229 OP_EQUALVERIFY OP_CHECKSIG", "type": "pubkeyhash"}, "value": 0.00198205, "n": 1}], "hex": "020000000001024fa80dee78befcd018ab711071616bf6651a9f4f14a752d7f6ee684911fd7880000000001716001432b19879c6da7ac44de132ea36d655aae29d0381feffffff5daf002bf5f2a752d6eef94a3e1f0c6acc2267c1004e77a3e5ed528fb96f90b70100000017160014e4317e4d01db520caa838ee85ce73cc87268d192feffffff02efd50f000000000017a91430af07ccc44873a9833087c16ce53ac4f8a8ec8e873d060300000000001976a9148053654f9858ee7f6cfbef207f983124f192322988ac02483045022100f3e278dfef2f68aa546f3148b8266665390067ba42612a5236ee04c1748beab3022042283c1592f8e80d00559c6f348e8f83d582afe3b1a9b2e63089580df8efb4a301210304545b26e9ceb1bd486f5e4f9df1ea7958677f0f74e70cd4d294a1e1721e6b0202473044022017ccc85755d5d7488c073ca68c8c4a543c4ff3fab184398205f313e729ba6e27022006cde7c9a79978794e10a10c40bf95cf23243b272ff4cd0520ab8b58ffb5458501210390354ed5ea72373ef6d98fd01575547928c5a837115c09f9500ab2561bb4e20c14490800", "vin": [{"txinwitness": ["3045022100f3e278dfef2f68aa546f3148b8266665390067ba42612a5236ee04c1748beab3022042283c1592f8e80d00559c6f348e8f83d582afe3b1a9b2e63089580df8efb4a301", "0304545b26e9ceb1bd486f5e4f9df1ea7958677f0f74e70cd4d294a1e1721e6b02"], "sequence": 4294967294, "scriptSig": {"hex": "16001432b19879c6da7ac44de132ea36d655aae29d0381", "asm": "001432b19879c6da7ac44de132ea36d655aae29d0381"}, "vout": 0, "txid": "8078fd114968eef6d752a7144f9f1a65f66b61711071ab18d0fcbe78ee0da84f"}, {"txinwitness": ["3044022017ccc85755d5d7488c073ca68c8c4a543c4ff3fab184398205f313e729ba6e27022006cde7c9a79978794e10a10c40bf95cf23243b272ff4cd0520ab8b58ffb5458501", "0390354ed5ea72373ef6d98fd01575547928c5a837115c09f9500ab2561bb4e20c"], "sequence": 4294967294, "scriptSig": {"hex": "160014e4317e4d01db520caa838ee85ce73cc87268d192", "asm": "0014e4317e4d01db520caa838ee85ce73cc87268d192"}, "vout": 1, "txid": "b7906fb98f52ede5a3774e00c16722cc6a0c1f3e4af9eed652a7f2f52b00af5d"}], "txid": "9f5ff5feff26ddd4313c8f975abfe6928b99bb1ccd4d5f22d3c862648be26cc5", "blocktime": 1537873891, "version": 2, "confirmations": 11478, "time": 1537873891, "locktime": 542996, "vsize": 259, "size": 421}