{"hash": "9f686dc78d0aac95653c7b8bcc03fb6bb1157f980ab8bf78726f315c4b46ac26", "blockhash": "00000000000000000004ffacab907a6b429b9a5745fa0b75af4234bf69dd7176", "vout": [{"scriptPubKey": {"reqSigs": 1, "hex": "a914001f0780cd8a6ecebd9b6ec1ce75af2e1e16c9eb87", "addresses": ["31hf6VqMMBUigXVPj6we3WFoTCT3smZ3gj"], "asm": "OP_HASH160 001f0780cd8a6ecebd9b6ec1ce75af2e1e16c9eb OP_EQUAL", "type": "scripthash"}, "value": 0.43991463, "n": 0}, {"scriptPubKey": {"reqSigs": 1, "hex": "76a91406880fd66d699f974cdc688d5401e79416ea860588ac", "addresses": ["1bY3tvGCi59usVVNeWgn4gXSk86XfSCg8"], "asm": "OP_DUP OP_HASH160 06880fd66d699f974cdc688d5401e79416ea8605 OP_EQUALVERIFY OP_CHECKSIG", "type": "pubkeyhash"}, "value": 0.00953172, "n": 1}], "hex": "02000000071c0132d455a23b8b82579030c301c7770c10923c429394cc79101463e232903c000000006a4730440220331a604c981eb81dc3bf7f6d5d1163cbdf2d0bdd8f78e064b19e197cde81e01f022012395bfb74ecdda70a8d83e7237f6a4eeed3bf8396a589320d2976241af7c7cb012103a579cd1f44fb74b83b6310fdd8af017efd7e300267c04e8d60e6deac0e4f0d05feffffff2f02033420c22784191abfc87f158d2bbafc650a626e98a29a435e213a5fd572010000006a473044022061dc91e831d4cf1a6a7b7256f861cd33727896f671fe16bee1de8a08f3a24e3302205ac5fe7527196f3138af1d217e4d3257ac9de31b6980f2a855723697df4abefc01210328f79ae89326d43d05ebbbb52b66a9255b3e13992d5ae3bf3a7578d6f6d701fdfeffffff5570df61823935d017cda09a2acd6051282c9b65b8ea6863c4e41e273d8e567d000000006a47304402204aa40158953188130eac39ee086e96c2cff9e7c33db27ea261f57ac3fb30a3af022001e03fb47095064da75159d47596631e8c695a0d1c6f2ff34e7d35ec04b8ab95012102168f746c32ee62aa4b33416f644d1604b2415e098c5da30b1ff702c533402c92feffffff5bd66c5f1af51c8e6eb5946dedd2a843966b220ef3f4cec53523a5c182a5df35000000006b48304502210095d8cbda92759e01c63ef03ff01a69fff500d2b733a0e2ca3b0504b8645ec3c502200b4b5ed84c8d5a2e65084b6cdfb724d88f8ab75f802fc09c92ebcada85011275012103beb9a656db18a8ffdfe6db6e7e27c4989cd61e8aaefb3a93bec35dfd6d83142cfeffffff96cb2104db2b348857016986f52fd98ca632b8e822a8a2a64b88b9d378d2f1f3000000006b483045022100cf1be598c23934e330af5be7675215db43d713efca7dbcf65a0d5a169fd160ce022041fe52dee96747d64fcf186584642064a514f764b71a44d2e8ff0bf30fe53af7012102781c893705d500c91bf7b548e7b50176bd27c0aa618541d7005314d3d6eeb900feffffffaaed69dd2742c9c9376303c0102def84f48a3398e422cc7f5d284cb531673abc010000006a473044022042d20887e80641a6c47391edb105a11f748705f9d9a094d0aab673bbc6cc211702206d1f6decf290c76552cbd9a546d58bc96a7a1728410a4ee3e7964290f20836c601210284e3bfddab2af631e2fd0b15f5a4f3584743ba2661cc17b7c99bb694fbcf957bfefffffff5043a6e704f314fa105ba63e3bd1088b7249c3171b8a2f8dbbd4500df955c5c010000006a47304402205fc0196fe44c293aa05e516f50272d7a1c1c57aea5506ef43f9302690b3efce6022046bbe311f7872b95945de230af0e19bf19bfcc29a12dbc45fd31b7ffdc80ed070121021f222e00440994ba67c88fd55143fdaba58116e95d6aed2cd1c15ddec585ca35feffffff02a7419f020000000017a914001f0780cd8a6ecebd9b6ec1ce75af2e1e16c9eb87548b0e00000000001976a91406880fd66d699f974cdc688d5401e79416ea860588ac16490800", "vin": [{"sequence": 4294967294, "scriptSig": {"hex": "4730440220331a604c981eb81dc3bf7f6d5d1163cbdf2d0bdd8f78e064b19e197cde81e01f022012395bfb74ecdda70a8d83e7237f6a4eeed3bf8396a589320d2976241af7c7cb012103a579cd1f44fb74b83b6310fdd8af017efd7e300267c04e8d60e6deac0e4f0d05", "asm": "30440220331a604c981eb81dc3bf7f6d5d1163cbdf2d0bdd8f78e064b19e197cde81e01f022012395bfb74ecdda70a8d83e7237f6a4eeed3bf8396a589320d2976241af7c7cb[ALL] 03a579cd1f44fb74b83b6310fdd8af017efd7e300267c04e8d60e6deac0e4f0d05"}, "vout": 0, "txid": "3c9032e263141079cc9493423c92100c77c701c3309057828b3ba255d432011c"}, {"sequence": 4294967294, "scriptSig": {"hex": "473044022061dc91e831d4cf1a6a7b7256f861cd33727896f671fe16bee1de8a08f3a24e3302205ac5fe7527196f3138af1d217e4d3257ac9de31b6980f2a855723697df4abefc01210328f79ae89326d43d05ebbbb52b66a9255b3e13992d5ae3bf3a7578d6f6d701fd", "asm": "3044022061dc91e831d4cf1a6a7b7256f861cd33727896f671fe16bee1de8a08f3a24e3302205ac5fe7527196f3138af1d217e4d3257ac9de31b6980f2a855723697df4abefc[ALL] 0328f79ae89326d43d05ebbbb52b66a9255b3e13992d5ae3bf3a7578d6f6d701fd"}, "vout": 1, "txid": "72d55f3a215e439aa2986e620a65fcba2b8d157fc8bf1a198427c2203403022f"}, {"sequence": 4294967294, "scriptSig": {"hex": "47304402204aa40158953188130eac39ee086e96c2cff9e7c33db27ea261f57ac3fb30a3af022001e03fb47095064da75159d47596631e8c695a0d1c6f2ff34e7d35ec04b8ab95012102168f746c32ee62aa4b33416f644d1604b2415e098c5da30b1ff702c533402c92", "asm": "304402204aa40158953188130eac39ee086e96c2cff9e7c33db27ea261f57ac3fb30a3af022001e03fb47095064da75159d47596631e8c695a0d1c6f2ff34e7d35ec04b8ab95[ALL] 02168f746c32ee62aa4b33416f644d1604b2415e098c5da30b1ff702c533402c92"}, "vout": 0, "txid": "7d568e3d271ee4c46368eab8659b2c285160cd2a9aa0cd17d035398261df7055"}, {"sequence": 4294967294, "scriptSig": {"hex": "48304502210095d8cbda92759e01c63ef03ff01a69fff500d2b733a0e2ca3b0504b8645ec3c502200b4b5ed84c8d5a2e65084b6cdfb724d88f8ab75f802fc09c92ebcada85011275012103beb9a656db18a8ffdfe6db6e7e27c4989cd61e8aaefb3a93bec35dfd6d83142c", "asm": "304502210095d8cbda92759e01c63ef03ff01a69fff500d2b733a0e2ca3b0504b8645ec3c502200b4b5ed84c8d5a2e65084b6cdfb724d88f8ab75f802fc09c92ebcada85011275[ALL] 03beb9a656db18a8ffdfe6db6e7e27c4989cd61e8aaefb3a93bec35dfd6d83142c"}, "vout": 0, "txid": "35dfa582c1a52335c5cef4f30e226b9643a8d2ed6d94b56e8e1cf51a5f6cd65b"}, {"sequence": 4294967294, "scriptSig": {"hex": "483045022100cf1be598c23934e330af5be7675215db43d713efca7dbcf65a0d5a169fd160ce022041fe52dee96747d64fcf186584642064a514f764b71a44d2e8ff0bf30fe53af7012102781c893705d500c91bf7b548e7b50176bd27c0aa618541d7005314d3d6eeb900", "asm": "3045022100cf1be598c23934e330af5be7675215db43d713efca7dbcf65a0d5a169fd160ce022041fe52dee96747d64fcf186584642064a514f764b71a44d2e8ff0bf30fe53af7[ALL] 02781c893705d500c91bf7b548e7b50176bd27c0aa618541d7005314d3d6eeb900"}, "vout": 0, "txid": "f3f1d278d3b9884ba6a2a822e8b832a68cd92ff58669015788342bdb0421cb96"}, {"sequence": 4294967294, "scriptSig": {"hex": "473044022042d20887e80641a6c47391edb105a11f748705f9d9a094d0aab673bbc6cc211702206d1f6decf290c76552cbd9a546d58bc96a7a1728410a4ee3e7964290f20836c601210284e3bfddab2af631e2fd0b15f5a4f3584743ba2661cc17b7c99bb694fbcf957b", "asm": "3044022042d20887e80641a6c47391edb105a11f748705f9d9a094d0aab673bbc6cc211702206d1f6decf290c76552cbd9a546d58bc96a7a1728410a4ee3e7964290f20836c6[ALL] 0284e3bfddab2af631e2fd0b15f5a4f3584743ba2661cc17b7c99bb694fbcf957b"}, "vout": 1, "txid": "bc3a6731b54c285d7fcc22e498338af484ef2d10c0036337c9c94227dd69edaa"}, {"sequence": 4294967294, "scriptSig": {"hex": "47304402205fc0196fe44c293aa05e516f50272d7a1c1c57aea5506ef43f9302690b3efce6022046bbe311f7872b95945de230af0e19bf19bfcc29a12dbc45fd31b7ffdc80ed070121021f222e00440994ba67c88fd55143fdaba58116e95d6aed2cd1c15ddec585ca35", "asm": "304402205fc0196fe44c293aa05e516f50272d7a1c1c57aea5506ef43f9302690b3efce6022046bbe311f7872b95945de230af0e19bf19bfcc29a12dbc45fd31b7ffdc80ed07[ALL] 021f222e00440994ba67c88fd55143fdaba58116e95d6aed2cd1c15ddec585ca35"}, "vout": 1, "txid": "5c5c95df0045bddbf8a2b871319c24b78810bde363ba05a14f314f706e3a04f5"}], "txid": "9f686dc78d0aac95653c7b8bcc03fb6bb1157f980ab8bf78726f315c4b46ac26", "blocktime": 1537875543, "version": 2, "confirmations": 11464, "time": 1537875543, "locktime": 542998, "vsize": 1107, "size": 1107}