{"hash": "e2761fac8edddba501d2d1e74ac5cf6bb892947b5c279e74dabdd1b98afe3be5", "blockhash": "0000000000000000000dcc0f55137456b1a82d3642486a52398922ac4d620174", "vout": [{"scriptPubKey": {"reqSigs": 1, "hex": "76a914c9c9e228afa05e75487bbf75196c7abf581c2bc888ac", "addresses": ["1KPxffZJDA4vYAptYB3qWNhMXHXigh5kYh"], "asm": "OP_DUP OP_HASH160 c9c9e228afa05e75487bbf75196c7abf581c2bc8 OP_EQUALVERIFY OP_CHECKSIG", "type": "pubkeyhash"}, "value": 0.00078, "n": 0}, {"scriptPubKey": {"reqSigs": 1, "hex": "a91469094b369ed2a1ce42e7e3bae95831a33a9b393d87", "addresses": ["3BGQ1Rvwd28NwdB7W1JdUJjRTW9RN5mQCJ"], "asm": "OP_HASH160 69094b369ed2a1ce42e7e3bae95831a33a9b393d OP_EQUAL", "type": "scripthash"}, "value": 0.01068476, "n": 1}], "hex": "02000000000101299eb45b61d502d7a711104d9bf5a148f5df1bd33e1136f91bc370c028174f640000000017160014f58b3cd7dec947bfa76e1092ab23d83468f93d2bfeffffff02b0300100000000001976a914c9c9e228afa05e75487bbf75196c7abf581c2bc888acbc4d10000000000017a91469094b369ed2a1ce42e7e3bae95831a33a9b393d8702483045022100ce1cebf0c141193e3c9645822cd10f7b2837d768e0cb1acc65a2c8a51532ed8e02200d07bf21998353085b2291864f870b3a67ac643433ddc2685cc6791e2a5388c10121024b22b8ac1728602b6a1c81872f415b1667db25895b6cbe864f53b6f607ddd22b0c490800", "vin": [{"txinwitness": ["3045022100ce1cebf0c141193e3c9645822cd10f7b2837d768e0cb1acc65a2c8a51532ed8e02200d07bf21998353085b2291864f870b3a67ac643433ddc2685cc6791e2a5388c101", "024b22b8ac1728602b6a1c81872f415b1667db25895b6cbe864f53b6f607ddd22b"], "sequence": 4294967294, "scriptSig": {"hex": "160014f58b3cd7dec947bfa76e1092ab23d83468f93d2b", "asm": "0014f58b3cd7dec947bfa76e1092ab23d83468f93d2b"}, "vout": 0, "txid": "644f1728c070c31bf936113ed31bdff548a1f59b4d1011a7d702d5615bb49e29"}], "txid": "9f6db6e31bb73a7d3b7ac325aa9c5cf6d6fee18bf00628ab69108bc462b188cd", "blocktime": 1537870268, "version": 2, "confirmations": 11518, "time": 1537870268, "locktime": 542988, "vsize": 168, "size": 250}