{"hash": "9f738304f969e9f04767432b114f2008c41f7556d61a01fefc25e84eff7f7d76", "blockhash": "00000000000000000017f5eb5941039fbcee6240d03bc1f2f8e35350df66a1d8", "vout": [{"scriptPubKey": {"reqSigs": 1, "hex": "76a914586edd3862f7090bb635b3d2b4187afcae818cc288ac", "addresses": ["194bGrgsd3ToX9f6Nm1ewvuiBxqLkU12Un"], "asm": "OP_DUP OP_HASH160 586edd3862f7090bb635b3d2b4187afcae818cc2 OP_EQUALVERIFY OP_CHECKSIG", "type": "pubkeyhash"}, "value": 0.09246, "n": 0}, {"scriptPubKey": {"reqSigs": 1, "hex": "76a914900820e0eb2dd5a8671c3e6b970d8bd056239e6888ac", "addresses": ["1E8a3Q2Hya9FdMyXmwDVC1X9pzi2zfr9Km"], "asm": "OP_DUP OP_HASH160 900820e0eb2dd5a8671c3e6b970d8bd056239e68 OP_EQUALVERIFY OP_CHECKSIG", "type": "pubkeyhash"}, "value": 0.16302151, "n": 1}], "hex": "0100000001b963df103e18343f3f66230e25fa848bfc3a5d854cb4e31198d3efed0817947e5c0000006b483045022100b37097f9e944831d12f9a676b3ce6cfc4485f83f7a17d4a745bb28d6cec808f002207094d8c843865d46515c97e4faa1387d4c7c1854732942119ccebb796b3ac95001210286c2f9a7c88cd71b17ae034968bce2bf85311634988148f09ad58eafffa6922fffffffff0230158d00000000001976a914586edd3862f7090bb635b3d2b4187afcae818cc288ac47c0f800000000001976a914900820e0eb2dd5a8671c3e6b970d8bd056239e6888ac00000000", "vin": [{"sequence": 4294967295, "scriptSig": {"hex": "483045022100b37097f9e944831d12f9a676b3ce6cfc4485f83f7a17d4a745bb28d6cec808f002207094d8c843865d46515c97e4faa1387d4c7c1854732942119ccebb796b3ac95001210286c2f9a7c88cd71b17ae034968bce2bf85311634988148f09ad58eafffa6922f", "asm": "3045022100b37097f9e944831d12f9a676b3ce6cfc4485f83f7a17d4a745bb28d6cec808f002207094d8c843865d46515c97e4faa1387d4c7c1854732942119ccebb796b3ac950[ALL] 0286c2f9a7c88cd71b17ae034968bce2bf85311634988148f09ad58eafffa6922f"}, "vout": 92, "txid": "7e941708edefd39811e3b44c855d3afc8b84fa250e23663f3f34183e10df63b9"}], "txid": "9f738304f969e9f04767432b114f2008c41f7556d61a01fefc25e84eff7f7d76", "blocktime": 1537874412, "version": 1, "confirmations": 11468, "time": 1537874412, "locktime": 0, "vsize": 226, "size": 226}