{"hash": "9f80508fe9cb64f6405de6692bcb2e3219e794cc779d8ff700e1d9cfa8deaf02", "blockhash": "0000000000000000001cda96e906b7601b7a6fb1a3b62bca570a9e5d8f4b3de1", "vout": [{"scriptPubKey": {"reqSigs": 1, "hex": "76a9149e0bc372fbf7003343916e084928a1570cfd85f588ac", "addresses": ["1FQfregT5pcvC1akBCHQrRigczjPJM6YYj"], "asm": "OP_DUP OP_HASH160 9e0bc372fbf7003343916e084928a1570cfd85f5 OP_EQUALVERIFY OP_CHECKSIG", "type": "pubkeyhash"}, "value": 0.04262456, "n": 0}, {"scriptPubKey": {"reqSigs": 1, "hex": "76a91497a3da0eebd27e37891cadcdc806bbfb184fd7df88ac", "addresses": ["1EpoKb8FG7oxkxWNKejWgmWZDEmpL8aKi4"], "asm": "OP_DUP OP_HASH160 97a3da0eebd27e37891cadcdc806bbfb184fd7df OP_EQUALVERIFY OP_CHECKSIG", "type": "pubkeyhash"}, "value": 0.15528703, "n": 1}], "hex": "0200000002e64ecbb5fefe4d9c5b8885d931ecc30e84533cafbb61f97c721e2a2f42357a6a000000006a47304402207820fea00f5cd88ffd1f4a7be406451cf9a713d79a64b3f4deb0f3632a9e8093022070399cd8bcdc3944ce6946fdf83fe80feefbb0782126f4e17511bb91dc50c14b0121023209dc2e3fcbfb3e769424a771d0cb87cb5140d99bf2c02a3abb5657877ad1c2fefffffff6b5ac32f6517e624ed57fbe36c142841c47079ad8955ace1d67bd0d796cb60b000000006b483045022100aa27feaa1cf5fb04cca28989683449b498d405b41b3ccd7752447ff543a4852802201d77141a37ed9dfc9c5e2e58670f664e1356226c8f3898d4418f5c5b5e8485730121031f4156dab296856fbb09e2f0fd8a775f9ce630537b7f58edadf86cbde34aded0feffffff02380a4100000000001976a9149e0bc372fbf7003343916e084928a1570cfd85f588acfff2ec00000000001976a91497a3da0eebd27e37891cadcdc806bbfb184fd7df88ac13490800", "vin": [{"sequence": 4294967294, "scriptSig": {"hex": "47304402207820fea00f5cd88ffd1f4a7be406451cf9a713d79a64b3f4deb0f3632a9e8093022070399cd8bcdc3944ce6946fdf83fe80feefbb0782126f4e17511bb91dc50c14b0121023209dc2e3fcbfb3e769424a771d0cb87cb5140d99bf2c02a3abb5657877ad1c2", "asm": "304402207820fea00f5cd88ffd1f4a7be406451cf9a713d79a64b3f4deb0f3632a9e8093022070399cd8bcdc3944ce6946fdf83fe80feefbb0782126f4e17511bb91dc50c14b[ALL] 023209dc2e3fcbfb3e769424a771d0cb87cb5140d99bf2c02a3abb5657877ad1c2"}, "vout": 0, "txid": "6a7a35422f2a1e727cf961bbaf3c53840ec3ec31d985885b9c4dfefeb5cb4ee6"}, {"sequence": 4294967294, "scriptSig": {"hex": "483045022100aa27feaa1cf5fb04cca28989683449b498d405b41b3ccd7752447ff543a4852802201d77141a37ed9dfc9c5e2e58670f664e1356226c8f3898d4418f5c5b5e8485730121031f4156dab296856fbb09e2f0fd8a775f9ce630537b7f58edadf86cbde34aded0", "asm": "3045022100aa27feaa1cf5fb04cca28989683449b498d405b41b3ccd7752447ff543a4852802201d77141a37ed9dfc9c5e2e58670f664e1356226c8f3898d4418f5c5b5e848573[ALL] 031f4156dab296856fbb09e2f0fd8a775f9ce630537b7f58edadf86cbde34aded0"}, "vout": 0, "txid": "0bb66c790dbd671dce5a95d89a07471c8442c136be7fd54e627e51f632acb5f6"}], "txid": "9f80508fe9cb64f6405de6692bcb2e3219e794cc779d8ff700e1d9cfa8deaf02", "blocktime": 1537873282, "version": 2, "confirmations": 11480, "time": 1537873282, "locktime": 542995, "vsize": 373, "size": 373}