{"hash": "9f813cbe0c12e3f64c4c24c030fb99d391687e60d81354ab8820e628b3eb74dc", "blockhash": "0000000000000000000e13cef7c366c0283d82e591d1acd082e914b08063cdf1", "vout": [{"scriptPubKey": {"reqSigs": 1, "hex": "a9145a13f487b1e89335f38aa055f118a04e6f3873b087", "addresses": ["39uJeKW1XruyUEdZTjUGJhYowrjAeZUqvS"], "asm": "OP_HASH160 5a13f487b1e89335f38aa055f118a04e6f3873b0 OP_EQUAL", "type": "scripthash"}, "value": 9e-05, "n": 0}], "hex": "010000000149ca2a27a6cae80109678ec4a792a485609d09715f70b649a9307ef8194be234010000006b48304502210095679fbbe1da55c2135d5b4f3f2becc7b2b8eebbc47bc3e62834239679fa280702200d31890fa3b4e5c1f3c62aef422fc04bd3b19139a6ffcc322cbb57957e4e4f5e012102ad0b962fd6f30de28d137df60ca2f7213c051a184a9af05c1478df1ef65091d1ffffffff01282300000000000017a9145a13f487b1e89335f38aa055f118a04e6f3873b08700000000", "vin": [{"sequence": 4294967295, "scriptSig": {"hex": "48304502210095679fbbe1da55c2135d5b4f3f2becc7b2b8eebbc47bc3e62834239679fa280702200d31890fa3b4e5c1f3c62aef422fc04bd3b19139a6ffcc322cbb57957e4e4f5e012102ad0b962fd6f30de28d137df60ca2f7213c051a184a9af05c1478df1ef65091d1", "asm": "304502210095679fbbe1da55c2135d5b4f3f2becc7b2b8eebbc47bc3e62834239679fa280702200d31890fa3b4e5c1f3c62aef422fc04bd3b19139a6ffcc322cbb57957e4e4f5e[ALL] 02ad0b962fd6f30de28d137df60ca2f7213c051a184a9af05c1478df1ef65091d1"}, "vout": 1, "txid": "34e24b19f87e30a949b6705f71099d6085a492a7c48e670901e8caa6272aca49"}], "txid": "9f813cbe0c12e3f64c4c24c030fb99d391687e60d81354ab8820e628b3eb74dc", "blocktime": 1537871767, "version": 1, "confirmations": 11493, "time": 1537871767, "locktime": 0, "vsize": 190, "size": 190}