{"hash": "9f8818e806da9dd50ab0c8b21eb1aa2f9d1cd955df982ba0b41b47a52b275aa0", "blockhash": "0000000000000000000e13cef7c366c0283d82e591d1acd082e914b08063cdf1", "vout": [{"scriptPubKey": {"reqSigs": 1, "hex": "76a9141b23c739a87cef0a93bd5e06cdb64a131a0bfe7788ac", "addresses": ["13UW76T8V7rFZXmbTyTbCT6hwmjcph4cYu"], "asm": "OP_DUP OP_HASH160 1b23c739a87cef0a93bd5e06cdb64a131a0bfe77 OP_EQUALVERIFY OP_CHECKSIG", "type": "pubkeyhash"}, "value": 6.17e-06, "n": 0}, {"scriptPubKey": {"reqSigs": 1, "hex": "76a914ea91f61c539172e19096eb2a7b46a49039eca3ed88ac", "addresses": ["1NPHyToSTu6BoeJtxF7L9goskrz8YrdEUZ"], "asm": "OP_DUP OP_HASH160 ea91f61c539172e19096eb2a7b46a49039eca3ed OP_EQUALVERIFY OP_CHECKSIG", "type": "pubkeyhash"}, "value": 0.15627027, "n": 1}], "hex": "01000000017ffcff9be2221f6e0065af2abfeddc6e9d9fd01734457fcee61cc65bc394061d010000006b483045022100e502f1a1163b76d8e47572e90090dd6cf5221f788354b1d16af8f55565b5ee2402206523b9e1fd1ebf17c93bd10014364db577a035bded8bd416c34114f3d6039ef101210336e5eeaf3b207a3cdddbd33cce860808c61b496b6e8c895b0db63848e2f9e273ffffffff0269020000000000001976a9141b23c739a87cef0a93bd5e06cdb64a131a0bfe7788ac1373ee00000000001976a914ea91f61c539172e19096eb2a7b46a49039eca3ed88ac00000000", "vin": [{"sequence": 4294967295, "scriptSig": {"hex": "483045022100e502f1a1163b76d8e47572e90090dd6cf5221f788354b1d16af8f55565b5ee2402206523b9e1fd1ebf17c93bd10014364db577a035bded8bd416c34114f3d6039ef101210336e5eeaf3b207a3cdddbd33cce860808c61b496b6e8c895b0db63848e2f9e273", "asm": "3045022100e502f1a1163b76d8e47572e90090dd6cf5221f788354b1d16af8f55565b5ee2402206523b9e1fd1ebf17c93bd10014364db577a035bded8bd416c34114f3d6039ef1[ALL] 0336e5eeaf3b207a3cdddbd33cce860808c61b496b6e8c895b0db63848e2f9e273"}, "vout": 1, "txid": "1d0694c35bc61ce6ce7f453417d09f9d6edcedbf2aaf65006e1f22e29bfffc7f"}], "txid": "9f8818e806da9dd50ab0c8b21eb1aa2f9d1cd955df982ba0b41b47a52b275aa0", "blocktime": 1537871767, "version": 1, "confirmations": 11492, "time": 1537871767, "locktime": 0, "vsize": 226, "size": 226}