{"hash": "9f8f281e655328cb06340993c93ab2282188bc35a7a7c3445ed2d5779949037a", "blockhash": "0000000000000000000baef3f32e3676a92c3b2e5da21b426e4f302fc371ce76", "vout": [{"scriptPubKey": {"reqSigs": 1, "hex": "a9142eaf3f884cde6e60197b259d7d5e2b49c6d874d187", "addresses": ["35wrwpmvtuBvUWqUruz5Y8JmJ9jM65NcJk"], "asm": "OP_HASH160 2eaf3f884cde6e60197b259d7d5e2b49c6d874d1 OP_EQUAL", "type": "scripthash"}, "value": 0.00191615, "n": 0}, {"scriptPubKey": {"reqSigs": 1, "hex": "76a914d55eaabcb30e715cd25433fc839f2dbf8e776d3588ac", "addresses": ["1LTCLSC26S6bpKMtyTV4Keb2dJe2HLuJsU"], "asm": "OP_DUP OP_HASH160 d55eaabcb30e715cd25433fc839f2dbf8e776d35 OP_EQUALVERIFY OP_CHECKSIG", "type": "pubkeyhash"}, "value": 0.01239266, "n": 1}], "hex": "0200000003d26c12df5bde001080571eb289eedd7a18141948c23c093e9b051d6c3721a0e6200000006b483045022100ae16fbbb09c7f0cb896d602715f10d249ffa84d6b2aa6b4aef946ca4dc59317b0220792758777562de750eb0b33fec8de9785f7678b5523066c0b8a7c777740b3205012103a51ea4beafa9e26b22abbfcfe2485b44ef091eed5a56b37bf57732923390da09fdffffffd26c12df5bde001080571eb289eedd7a18141948c23c093e9b051d6c3721a0e61e0000006a473044022015fd919593914c37563d7594c136a5c88399c182662196a3a6f43b5909523c89022040d0a2e5460ce4d02f4234cff60f4c4455790c4399ab3cb3d9ca634f926c1d6b012102726e1f43d5b8bdf7f363d1dd9ed5da2afd51ce3c6ad0d20c88a1a02f723e48a5fdffffffd79123d0405bc359fe86356e7d8ede41ef617f8129c0910287f1be612e620a4b000000006a473044022059b7da863950a56422e705b90473c6b8d44d1afeb7299f6b2baae270d1c1f41802206259c2a89fc2fe31fa2bc5417581cd47851c9a68742c2ffd6112b2745cd242e8012102ed94fe5a8b283329a80532f9f572ddcaf641f5ac84348ec6a13053b3f3ddd165fdffffff027fec02000000000017a9142eaf3f884cde6e60197b259d7d5e2b49c6d874d187e2e81200000000001976a914d55eaabcb30e715cd25433fc839f2dbf8e776d3588ac00000000", "vin": [{"sequence": 4294967293, "scriptSig": {"hex": "483045022100ae16fbbb09c7f0cb896d602715f10d249ffa84d6b2aa6b4aef946ca4dc59317b0220792758777562de750eb0b33fec8de9785f7678b5523066c0b8a7c777740b3205012103a51ea4beafa9e26b22abbfcfe2485b44ef091eed5a56b37bf57732923390da09", "asm": "3045022100ae16fbbb09c7f0cb896d602715f10d249ffa84d6b2aa6b4aef946ca4dc59317b0220792758777562de750eb0b33fec8de9785f7678b5523066c0b8a7c777740b3205[ALL] 03a51ea4beafa9e26b22abbfcfe2485b44ef091eed5a56b37bf57732923390da09"}, "vout": 32, "txid": "e6a021376c1d059b3e093cc2481914187addee89b21e57801000de5bdf126cd2"}, {"sequence": 4294967293, "scriptSig": {"hex": "473044022015fd919593914c37563d7594c136a5c88399c182662196a3a6f43b5909523c89022040d0a2e5460ce4d02f4234cff60f4c4455790c4399ab3cb3d9ca634f926c1d6b012102726e1f43d5b8bdf7f363d1dd9ed5da2afd51ce3c6ad0d20c88a1a02f723e48a5", "asm": "3044022015fd919593914c37563d7594c136a5c88399c182662196a3a6f43b5909523c89022040d0a2e5460ce4d02f4234cff60f4c4455790c4399ab3cb3d9ca634f926c1d6b[ALL] 02726e1f43d5b8bdf7f363d1dd9ed5da2afd51ce3c6ad0d20c88a1a02f723e48a5"}, "vout": 30, "txid": "e6a021376c1d059b3e093cc2481914187addee89b21e57801000de5bdf126cd2"}, {"sequence": 4294967293, "scriptSig": {"hex": "473044022059b7da863950a56422e705b90473c6b8d44d1afeb7299f6b2baae270d1c1f41802206259c2a89fc2fe31fa2bc5417581cd47851c9a68742c2ffd6112b2745cd242e8012102ed94fe5a8b283329a80532f9f572ddcaf641f5ac84348ec6a13053b3f3ddd165", "asm": "3044022059b7da863950a56422e705b90473c6b8d44d1afeb7299f6b2baae270d1c1f41802206259c2a89fc2fe31fa2bc5417581cd47851c9a68742c2ffd6112b2745cd242e8[ALL] 02ed94fe5a8b283329a80532f9f572ddcaf641f5ac84348ec6a13053b3f3ddd165"}, "vout": 0, "txid": "4b0a622e61bef1870291c029817f61ef41de8e7d6e3586fe59c35b40d02391d7"}], "txid": "9f8f281e655328cb06340993c93ab2282188bc35a7a7c3445ed2d5779949037a", "blocktime": 1537876114, "version": 2, "confirmations": 11459, "time": 1537876114, "locktime": 0, "vsize": 518, "size": 518}