{"hash": "9f909064868892999f2c5b38161a59d6855fa74f15c2d095bc71f890705e5639", "blockhash": "0000000000000000001f76057863aec43deb6fa401d9628bb513d65a8098bfab", "vout": [{"scriptPubKey": {"reqSigs": 1, "hex": "76a914bfce203d443ea51f6b34a8c3fb2ab5a34f42de3088ac", "addresses": ["1JVAzXCSk6DGnha37JosJdNuxe8atSyRec"], "asm": "OP_DUP OP_HASH160 bfce203d443ea51f6b34a8c3fb2ab5a34f42de30 OP_EQUALVERIFY OP_CHECKSIG", "type": "pubkeyhash"}, "value": 0.09814095, "n": 0}, {"scriptPubKey": {"reqSigs": 1, "hex": "76a9148cd1e3beafb9d22e76b9d1dc0f10caf75ed2126c88ac", "addresses": ["1Dqb3F7USEP1Ar7SGUzSgp7efnPiYqUR2R"], "asm": "OP_DUP OP_HASH160 8cd1e3beafb9d22e76b9d1dc0f10caf75ed2126c OP_EQUALVERIFY OP_CHECKSIG", "type": "pubkeyhash"}, "value": 3e-05, "n": 1}], "hex": "010000000154e4b334b41c8ed82b440af28fecd99b8df379df7f7dbbe43fdc8a609f9429ca000000006a473044022072a7cf25f29374f83fa04c113d5227dcb363a1b79aece50edf04f34c21a0a390022075352b46b65269a3150a6a16121076c46881944cdb9fc9979ed3305b09b69eb101210260cdeb941c7a0513351aea27e340c6ccaac687a1833188704aa441e389f19624feffffff024fc09500000000001976a914bfce203d443ea51f6b34a8c3fb2ab5a34f42de3088acb80b0000000000001976a9148cd1e3beafb9d22e76b9d1dc0f10caf75ed2126c88ac14490800", "vin": [{"sequence": 4294967294, "scriptSig": {"hex": "473044022072a7cf25f29374f83fa04c113d5227dcb363a1b79aece50edf04f34c21a0a390022075352b46b65269a3150a6a16121076c46881944cdb9fc9979ed3305b09b69eb101210260cdeb941c7a0513351aea27e340c6ccaac687a1833188704aa441e389f19624", "asm": "3044022072a7cf25f29374f83fa04c113d5227dcb363a1b79aece50edf04f34c21a0a390022075352b46b65269a3150a6a16121076c46881944cdb9fc9979ed3305b09b69eb1[ALL] 0260cdeb941c7a0513351aea27e340c6ccaac687a1833188704aa441e389f19624"}, "vout": 0, "txid": "ca29949f608adc3fe4bb7d7fdf79f38d9bd9ec8ff20a442bd88e1cb434b3e454"}], "txid": "9f909064868892999f2c5b38161a59d6855fa74f15c2d095bc71f890705e5639", "blocktime": 1537873891, "version": 1, "confirmations": 11479, "time": 1537873891, "locktime": 542996, "vsize": 225, "size": 225}