{"hash": "97988a0aaf056d544a2b8a758c7998f109411fc326950a164851b7e5a3177514", "blockhash": "0000000000000000000e13cef7c366c0283d82e591d1acd082e914b08063cdf1", "vout": [{"scriptPubKey": {"reqSigs": 1, "hex": "76a91489a4e5b316add67cbf56ee3543b6314bda81157888ac", "addresses": ["1DYo7YXR7fpAQ1SkyxdALtzEtBC7zDCXUT"], "asm": "OP_DUP OP_HASH160 89a4e5b316add67cbf56ee3543b6314bda811578 OP_EQUALVERIFY OP_CHECKSIG", "type": "pubkeyhash"}, "value": 0.5, "n": 0}, {"scriptPubKey": {"reqSigs": 1, "hex": "0014efd9c1292e4c25f672153cf01eafd0150ac2ba91", "addresses": ["bc1qalvuz2fwfsjlvus48ncpat7sz59v9w53kmmrzd"], "asm": "0 efd9c1292e4c25f672153cf01eafd0150ac2ba91", "type": "witness_v0_keyhash"}, "value": 1.18269266, "n": 1}], "hex": "010000000001012f3931a5043e4a3bc9750542979366789fd22abb9a409fe6ef4f41d052a3f45d0000000000ffffffff0280f0fa02000000001976a91489a4e5b316add67cbf56ee3543b6314bda81157888ac52a50c0700000000160014efd9c1292e4c25f672153cf01eafd0150ac2ba9102483045022100baefb8bff8e52adfac1119d074871b689cd96cb3b177e27ea820c4e636b9128c022045795041c0ff20dffad6051e2cce68b41f3f1d8977405f98e1eed32662b397a6012102a08b6c2a00070b4ae419bbd457c1c30ac587bd0111652c3e9736d500946ed17700000000", "vin": [{"txinwitness": ["3045022100baefb8bff8e52adfac1119d074871b689cd96cb3b177e27ea820c4e636b9128c022045795041c0ff20dffad6051e2cce68b41f3f1d8977405f98e1eed32662b397a601", "02a08b6c2a00070b4ae419bbd457c1c30ac587bd0111652c3e9736d500946ed177"], "sequence": 4294967295, "scriptSig": {"hex": "", "asm": ""}, "vout": 0, "txid": "5df4a352d0414fefe69f409abb2ad29f78669397420575c93b4a3e04a531392f"}], "txid": "9f979bfa3268331a8f4e5608b180cbd4d5ba953af7bbca584a59576ab4003d30", "blocktime": 1537871767, "version": 1, "confirmations": 11495, "time": 1537871767, "locktime": 0, "vsize": 144, "size": 226}