{"hash": "9f97b968694ada837b181fb240227724db35b1c82eb0e88926902d6865de1a5f", "blockhash": "00000000000000000017f5eb5941039fbcee6240d03bc1f2f8e35350df66a1d8", "vout": [{"scriptPubKey": {"reqSigs": 1, "hex": "a914f6c630b8054b308b344ddccdfa97e1937fc2428f87", "addresses": ["3QBqaEm3ARUkRXrKwoaTheaYh7rz6po4Rr"], "asm": "OP_HASH160 f6c630b8054b308b344ddccdfa97e1937fc2428f OP_EQUAL", "type": "scripthash"}, "value": 0.015589, "n": 0}, {"scriptPubKey": {"reqSigs": 1, "hex": "76a9149c36edc38944320efc0532460d5363996a04f08788ac", "addresses": ["1FEzDShP7txvZ4GeEoAe6CHFo1shx4UGde"], "asm": "OP_DUP OP_HASH160 9c36edc38944320efc0532460d5363996a04f087 OP_EQUALVERIFY OP_CHECKSIG", "type": "pubkeyhash"}, "value": 0.18508457, "n": 1}], "hex": "01000000019a79efddc8838882aca8cbb60a90a339bd390185f9b68f538fc1a577a0fc3993010000006b483045022100ecefa06c8752b95d4ab2e88af1c7a1c5736a07f4e356cd485fbbf2b995eaa6650220039259fe676fa2c8cc70736da69b89979b8c59b683400ed4853cee8e84bbd580012102a1cdd2ad2e46006021ec40425b5eb2323352eddd584ac92eab491a1ad3c4008affffffff0274c917000000000017a914f6c630b8054b308b344ddccdfa97e1937fc2428f87a96a1a01000000001976a9149c36edc38944320efc0532460d5363996a04f08788ac00000000", "vin": [{"sequence": 4294967295, "scriptSig": {"hex": "483045022100ecefa06c8752b95d4ab2e88af1c7a1c5736a07f4e356cd485fbbf2b995eaa6650220039259fe676fa2c8cc70736da69b89979b8c59b683400ed4853cee8e84bbd580012102a1cdd2ad2e46006021ec40425b5eb2323352eddd584ac92eab491a1ad3c4008a", "asm": "3045022100ecefa06c8752b95d4ab2e88af1c7a1c5736a07f4e356cd485fbbf2b995eaa6650220039259fe676fa2c8cc70736da69b89979b8c59b683400ed4853cee8e84bbd580[ALL] 02a1cdd2ad2e46006021ec40425b5eb2323352eddd584ac92eab491a1ad3c4008a"}, "vout": 1, "txid": "9339fca077a5c18f538fb6f9850139bd39a3900ab6cba8ac828883c8ddef799a"}], "txid": "9f97b968694ada837b181fb240227724db35b1c82eb0e88926902d6865de1a5f", "blocktime": 1537874412, "version": 1, "confirmations": 11468, "time": 1537874412, "locktime": 0, "vsize": 224, "size": 224}