{"hash": "9f97fb2d1faaa5f6a63c82c51b0d17009c23366e2dd49b2a5eeb12148f921bd1", "blockhash": "0000000000000000000e13cef7c366c0283d82e591d1acd082e914b08063cdf1", "vout": [{"scriptPubKey": {"reqSigs": 1, "hex": "76a914d243e6abb9a60fbff430b421d2df4b7d59ec186088ac", "addresses": ["1LAnF8h3qMGx3TSwNUHVneBZUEpwE4gu3D"], "asm": "OP_DUP OP_HASH160 d243e6abb9a60fbff430b421d2df4b7d59ec1860 OP_EQUALVERIFY OP_CHECKSIG", "type": "pubkeyhash"}, "value": 0.00077314, "n": 0}, {"scriptPubKey": {"reqSigs": 1, "hex": "76a914b87c492200e4e51c7792652d7ef313f5fc228ee488ac", "addresses": ["1HpUDpP2rKwowK5dFxQWQj7wvTH1KKfrWF"], "asm": "OP_DUP OP_HASH160 b87c492200e4e51c7792652d7ef313f5fc228ee4 OP_EQUALVERIFY OP_CHECKSIG", "type": "pubkeyhash"}, "value": 5.46e-06, "n": 1}, {"scriptPubKey": {"type": "nulldata", "hex": "6a146f6d6e69000000000000001f00000004fd309a10", "asm": "OP_RETURN 6f6d6e69000000000000001f00000004fd309a10"}, "value": 0.0, "n": 2}], "hex": "01000000011d1f004a81204bcdb80c7e727c9d2b175b35db0a431016f9808f0a2e4fa03786000000006b483045022100f47186ccc690c27c8dd4ede5aa260a41d3e1a6a8a9c928fe50fc091be1f8485702204440fde66bc2738c91d41ace3c1096efdfc46f7dc0f2006e29a0c47ef0a3c2dc01210271977291b74f1f5f5c42157e8aae804664eaaeccfd097918450d37f28fb94d77ffffffff03022e0100000000001976a914d243e6abb9a60fbff430b421d2df4b7d59ec186088ac22020000000000001976a914b87c492200e4e51c7792652d7ef313f5fc228ee488ac0000000000000000166a146f6d6e69000000000000001f00000004fd309a1000000000", "vin": [{"sequence": 4294967295, "scriptSig": {"hex": "483045022100f47186ccc690c27c8dd4ede5aa260a41d3e1a6a8a9c928fe50fc091be1f8485702204440fde66bc2738c91d41ace3c1096efdfc46f7dc0f2006e29a0c47ef0a3c2dc01210271977291b74f1f5f5c42157e8aae804664eaaeccfd097918450d37f28fb94d77", "asm": "3045022100f47186ccc690c27c8dd4ede5aa260a41d3e1a6a8a9c928fe50fc091be1f8485702204440fde66bc2738c91d41ace3c1096efdfc46f7dc0f2006e29a0c47ef0a3c2dc[ALL] 0271977291b74f1f5f5c42157e8aae804664eaaeccfd097918450d37f28fb94d77"}, "vout": 0, "txid": "8637a04f2e0a8f80f91610430adb355b172b9d7c727e0cb8cd4b20814a001f1d"}], "txid": "9f97fb2d1faaa5f6a63c82c51b0d17009c23366e2dd49b2a5eeb12148f921bd1", "blocktime": 1537871767, "version": 1, "confirmations": 11491, "time": 1537871767, "locktime": 0, "vsize": 257, "size": 257}