{"hash": "6c8030a93d414a1727449a002f95d8647cd7b25fce1cebd90b5c4672b98d0703", "blockhash": "0000000000000000000e13cef7c366c0283d82e591d1acd082e914b08063cdf1", "vout": [{"scriptPubKey": {"reqSigs": 1, "hex": "76a9148d3ea1a917d300e0b527fa1e7ad4fc2222d9f33288ac", "addresses": ["1DsqJm5puCeVDWDfNDptpGHkVQrtG5a3aQ"], "asm": "OP_DUP OP_HASH160 8d3ea1a917d300e0b527fa1e7ad4fc2222d9f332 OP_EQUALVERIFY OP_CHECKSIG", "type": "pubkeyhash"}, "value": 0.0031866, "n": 0}, {"scriptPubKey": {"reqSigs": 1, "hex": "a914fd38384a3780cd5bce8b5394d18ec1efab0b718e87", "addresses": ["3QmvEJWkY3sssgczqDq2pccLHAVNarB963"], "asm": "OP_HASH160 fd38384a3780cd5bce8b5394d18ec1efab0b718e OP_EQUAL", "type": "scripthash"}, "value": 0.00999622, "n": 1}], "hex": "020000000001021e68e9364bc3ee7025ddcec8d3314297186a8f8de0ae05fb1295e059c6d8e0b20800000017160014f2977f03919277007d8b327b8e48fc2a5bb1f986feffffffaa26486179619c4f330650431152f979b05f0310a0046bcc4d110d617b42934b0000000017160014c0debdd388fc9e2c4d5e4782ae7e313fd997de08feffffff02c4dc0400000000001976a9148d3ea1a917d300e0b527fa1e7ad4fc2222d9f33288acc6400f000000000017a914fd38384a3780cd5bce8b5394d18ec1efab0b718e8702483045022100816a5efed3e9c55f0724243d5feeee805ef9b5aa5c493f153517e49827137e7f02203109e22dd99fde8d82a9342e44a6edf47be5d42b7563d12b588dc394aec8e68f012103c9e08e90b84fcb04b1ffd4d478524865560ebe7ea1884a4384923323d96e92d202483045022100ae97feaf9e305445ab9e258deb6365401538caab900e210c00a01ba04efabd1f02202bbb3c09297433ef9ceeae0ec6500978427c70efce3cbaf8b1bb88a2b4c233520121021d7c3ccd0e7bf7c40a517767df722052e758ac384b3ab04d6f08579f3f9f85820f490800", "vin": [{"txinwitness": ["3045022100816a5efed3e9c55f0724243d5feeee805ef9b5aa5c493f153517e49827137e7f02203109e22dd99fde8d82a9342e44a6edf47be5d42b7563d12b588dc394aec8e68f01", "03c9e08e90b84fcb04b1ffd4d478524865560ebe7ea1884a4384923323d96e92d2"], "sequence": 4294967294, "scriptSig": {"hex": "160014f2977f03919277007d8b327b8e48fc2a5bb1f986", "asm": "0014f2977f03919277007d8b327b8e48fc2a5bb1f986"}, "vout": 8, "txid": "b2e0d8c659e09512fb05aee08d8f6a18974231d3c8cedd2570eec34b36e9681e"}, {"txinwitness": ["3045022100ae97feaf9e305445ab9e258deb6365401538caab900e210c00a01ba04efabd1f02202bbb3c09297433ef9ceeae0ec6500978427c70efce3cbaf8b1bb88a2b4c2335201", "021d7c3ccd0e7bf7c40a517767df722052e758ac384b3ab04d6f08579f3f9f8582"], "sequence": 4294967294, "scriptSig": {"hex": "160014c0debdd388fc9e2c4d5e4782ae7e313fd997de08", "asm": "0014c0debdd388fc9e2c4d5e4782ae7e313fd997de08"}, "vout": 0, "txid": "4b93427b610d114dcc6b04a010035fb079f95211435006334f9c6179614826aa"}], "txid": "9f998a7c3b06bce2ac798de1fb10942f4ca76546ce7d1089169a51a14c054598", "blocktime": 1537871767, "version": 2, "confirmations": 11495, "time": 1537871767, "locktime": 542991, "vsize": 259, "size": 422}