{"hash": "6cd2234e3b817f39418e909bedbaaf4fa94f90efe4014b625a8ecf76b56e02d0", "blockhash": "00000000000000000017f5eb5941039fbcee6240d03bc1f2f8e35350df66a1d8", "vout": [{"scriptPubKey": {"reqSigs": 1, "hex": "001487aefa59514e7dacc5bce5e84f6568a15b10270c", "addresses": ["bc1qs7h05k23fe76e3duuh5y7etg59d3qfcv3rdwqj"], "asm": "0 87aefa59514e7dacc5bce5e84f6568a15b10270c", "type": "witness_v0_keyhash"}, "value": 8.923e-05, "n": 0}, {"scriptPubKey": {"reqSigs": 1, "hex": "76a91472f317ebd234a54cd0f83865ee82772d234286ae88ac", "addresses": ["1BUoFJEZM5BLdPafUhaRQKxbZzQTEmwHhs"], "asm": "OP_DUP OP_HASH160 72f317ebd234a54cd0f83865ee82772d234286ae OP_EQUALVERIFY OP_CHECKSIG", "type": "pubkeyhash"}, "value": 0.01143253, "n": 1}], "hex": "0100000000010112fefbdcf1c54f825d6f1fa2ab274de438db63b2248f21ee3ad05594bf50c20a0000000000ffffffff02db2200000000000016001487aefa59514e7dacc5bce5e84f6568a15b10270cd5711100000000001976a91472f317ebd234a54cd0f83865ee82772d234286ae88ac0247304402201263c91347a8e3dbb74d9938242698bcadce772e3dccda35f5a27c54204959a3022026774f8a9d5cf0b2ae613be532f30249a2d9cc2709512ce741579045b7aae86401210327ab1d0183987eb90614ffcb82f6be963fa428855bbb1db38a66a7a97b57749200000000", "vin": [{"txinwitness": ["304402201263c91347a8e3dbb74d9938242698bcadce772e3dccda35f5a27c54204959a3022026774f8a9d5cf0b2ae613be532f30249a2d9cc2709512ce741579045b7aae86401", "0327ab1d0183987eb90614ffcb82f6be963fa428855bbb1db38a66a7a97b577492"], "sequence": 4294967295, "scriptSig": {"hex": "", "asm": ""}, "vout": 0, "txid": "0ac250bf9455d03aee218f24b263db38e44d27aba21f6f5d824fc5f1dcfbfe12"}], "txid": "9f9aab9d6498ddfbc438b6297a119dee5de825a0b11c0d2bf7947cb573cd9a07", "blocktime": 1537874412, "version": 1, "confirmations": 11467, "time": 1537874412, "locktime": 0, "vsize": 144, "size": 225}