{"hash": "9f9f056577f6bd030d29f26f0f93bd9664166888bd056f59dc8aff9796b962bb", "blockhash": "0000000000000000000e13cef7c366c0283d82e591d1acd082e914b08063cdf1", "vout": [{"scriptPubKey": {"reqSigs": 1, "hex": "76a914aba8a8278fcd6b67b86c6b243c1a4f5a1c4cd9b488ac", "addresses": ["1GeebHdEZxKiaXyRY7sCMkXG4KFM3FTYiM"], "asm": "OP_DUP OP_HASH160 aba8a8278fcd6b67b86c6b243c1a4f5a1c4cd9b4 OP_EQUALVERIFY OP_CHECKSIG", "type": "pubkeyhash"}, "value": 0.05933425, "n": 0}, {"scriptPubKey": {"reqSigs": 1, "hex": "a914ed990201f9510b5d5cdd79303df84628b49a353787", "addresses": ["3PMKNBKtYL3FQatC4mGULt1qYSuMh3ofvs"], "asm": "OP_HASH160 ed990201f9510b5d5cdd79303df84628b49a3537 OP_EQUAL", "type": "scripthash"}, "value": 0.640953, "n": 1}], "hex": "01000000015f1b61c764f709fae75f4fd993e53757cef42d7c04b79c47ade055b7387d8953010000006b483045022100c6fe897a6fd15829fc94930019a854ea3f5f53ea4c41172e07455aa63ff1497402204259402008b306791905ac91c74cce43bcd074b8aa33c190874042c159b3e93101210310c5de16562fb7f4724a670985f486d6d2b76f0c43d07edbe96074da5ce57196ffffffff0271895a00000000001976a914aba8a8278fcd6b67b86c6b243c1a4f5a1c4cd9b488ac4404d2030000000017a914ed990201f9510b5d5cdd79303df84628b49a35378700000000", "vin": [{"sequence": 4294967295, "scriptSig": {"hex": "483045022100c6fe897a6fd15829fc94930019a854ea3f5f53ea4c41172e07455aa63ff1497402204259402008b306791905ac91c74cce43bcd074b8aa33c190874042c159b3e93101210310c5de16562fb7f4724a670985f486d6d2b76f0c43d07edbe96074da5ce57196", "asm": "3045022100c6fe897a6fd15829fc94930019a854ea3f5f53ea4c41172e07455aa63ff1497402204259402008b306791905ac91c74cce43bcd074b8aa33c190874042c159b3e931[ALL] 0310c5de16562fb7f4724a670985f486d6d2b76f0c43d07edbe96074da5ce57196"}, "vout": 1, "txid": "53897d38b755e0ad479cb7047c2df4ce5737e593d94f5fe7fa09f764c7611b5f"}], "txid": "9f9f056577f6bd030d29f26f0f93bd9664166888bd056f59dc8aff9796b962bb", "blocktime": 1537871767, "version": 1, "confirmations": 11492, "time": 1537871767, "locktime": 0, "vsize": 224, "size": 224}