{"hash": "9fa4e4b162fcad90f6304a478591b28fbc51f641743ad881eaf5cc3512063ab7", "blockhash": "0000000000000000000baef3f32e3676a92c3b2e5da21b426e4f302fc371ce76", "vout": [{"scriptPubKey": {"reqSigs": 1, "hex": "76a9144b9919343fdddc14d9e55962bc721f97baa22c7c88ac", "addresses": ["17tj5rYvsoaH8LYo4dVFn575PRsaqcVd7M"], "asm": "OP_DUP OP_HASH160 4b9919343fdddc14d9e55962bc721f97baa22c7c OP_EQUALVERIFY OP_CHECKSIG", "type": "pubkeyhash"}, "value": 0.00631784, "n": 0}, {"scriptPubKey": {"type": "nulldata", "hex": "6a4c50000078110001db80ba6639eaeb451665eaab702940d64fa54d8eb2d19ed074892d00f8e8d3fcb27058bd9834bcfc9581734d96c25baa1b9306149aff4b7d8a521d100759d4ba30d2c37bb011d97e02cf", "asm": "OP_RETURN 000078110001db80ba6639eaeb451665eaab702940d64fa54d8eb2d19ed074892d00f8e8d3fcb27058bd9834bcfc9581734d96c25baa1b9306149aff4b7d8a521d100759d4ba30d2c37bb011d97e02cf"}, "value": 0.0, "n": 1}], "hex": "01000000016ea5e0243526971c6565c096ae09f07fa0cfb193f3c1527a1c347998b998c84d010000006b483045022100fc148274cf9e1243aa9981e6996d8a93e5aa3188117529b7ca4fbfb8e06941db022065129cb9db0ea7c1ce3d127dc89a4a7cfc68c0e4fc1efed8c7d49aa7d28044ad012103eee8e268b55ff57685c9587fe543d03548344178cea23eb80739920671a1245bffffffff02e8a30900000000001976a9144b9919343fdddc14d9e55962bc721f97baa22c7c88ac0000000000000000536a4c50000078110001db80ba6639eaeb451665eaab702940d64fa54d8eb2d19ed074892d00f8e8d3fcb27058bd9834bcfc9581734d96c25baa1b9306149aff4b7d8a521d100759d4ba30d2c37bb011d97e02cf00000000", "vin": [{"sequence": 4294967295, "scriptSig": {"hex": "483045022100fc148274cf9e1243aa9981e6996d8a93e5aa3188117529b7ca4fbfb8e06941db022065129cb9db0ea7c1ce3d127dc89a4a7cfc68c0e4fc1efed8c7d49aa7d28044ad012103eee8e268b55ff57685c9587fe543d03548344178cea23eb80739920671a1245b", "asm": "3045022100fc148274cf9e1243aa9981e6996d8a93e5aa3188117529b7ca4fbfb8e06941db022065129cb9db0ea7c1ce3d127dc89a4a7cfc68c0e4fc1efed8c7d49aa7d28044ad[ALL] 03eee8e268b55ff57685c9587fe543d03548344178cea23eb80739920671a1245b"}, "vout": 1, "txid": "4dc898b99879341c7a52c1f393b1cfa07ff009ae96c065651c97263524e0a56e"}], "txid": "9fa4e4b162fcad90f6304a478591b28fbc51f641743ad881eaf5cc3512063ab7", "blocktime": 1537876114, "version": 1, "confirmations": 11460, "time": 1537876114, "locktime": 0, "vsize": 284, "size": 284}