{"hash": "8c284fd3f98c514e5535862f333c0ebb377193a48ada987e79e05bf107222d6b", "blockhash": "0000000000000000000e13cef7c366c0283d82e591d1acd082e914b08063cdf1", "vout": [{"scriptPubKey": {"reqSigs": 1, "hex": "a91499f2e4d7bb9ce98e0c6bce3a7314d02cf59a022a87", "addresses": ["3Fj2HTaNyDZgVrCjV3oBYpMM2o3CvgAgL6"], "asm": "OP_HASH160 99f2e4d7bb9ce98e0c6bce3a7314d02cf59a022a OP_EQUAL", "type": "scripthash"}, "value": 0.00175441, "n": 0}, {"scriptPubKey": {"reqSigs": 1, "hex": "a914f3872d99d67b25b0651d298a2c868df614d7a07d87", "addresses": ["3Ptg4Vvr3VxnKeVzeqdfyaR439p92CxtWd"], "asm": "OP_HASH160 f3872d99d67b25b0651d298a2c868df614d7a07d OP_EQUAL", "type": "scripthash"}, "value": 4.683e-05, "n": 1}], "hex": "0100000000010120e3cb965baf37349eff05dc3174ff7690060e22215a612daf79a8e10c5a09e500000000171600145a931a983f220936f6917abda70dcbb93609375effffffff0251ad02000000000017a91499f2e4d7bb9ce98e0c6bce3a7314d02cf59a022a874b1200000000000017a914f3872d99d67b25b0651d298a2c868df614d7a07d870247304402202398493c140bd0acda6bf9bb1a057bd38c361c8e0c103f04ef3975b7b5e5f475022074901361323093397547fc93894b54daee6072c92c9b5678b8ed457509f7563b01210342e1cfce8b3e01eeb00ce63219aaccddfc33ddabdbc5199358794b0fbce65d3800000000", "vin": [{"txinwitness": ["304402202398493c140bd0acda6bf9bb1a057bd38c361c8e0c103f04ef3975b7b5e5f475022074901361323093397547fc93894b54daee6072c92c9b5678b8ed457509f7563b01", "0342e1cfce8b3e01eeb00ce63219aaccddfc33ddabdbc5199358794b0fbce65d38"], "sequence": 4294967295, "scriptSig": {"hex": "1600145a931a983f220936f6917abda70dcbb93609375e", "asm": "00145a931a983f220936f6917abda70dcbb93609375e"}, "vout": 0, "txid": "e5095a0ce1a879af2d615a21220e069076ff7431dc05ff9e3437af5b96cbe320"}], "txid": "9faaaf86ce1537ce934cf23d98bc8c14786b32efae0ea3d1196fd10c980ed857", "blocktime": 1537871767, "version": 1, "confirmations": 11490, "time": 1537871767, "locktime": 0, "vsize": 166, "size": 247}