{"hash": "50e4f3a4fae0d6514f18a6a658e4a5793c6db71df0c160e79417be684f0285de", "blockhash": "00000000000000000004ffacab907a6b429b9a5745fa0b75af4234bf69dd7176", "vout": [{"scriptPubKey": {"reqSigs": 1, "hex": "a914abbe526e4ab311e781454691f44fc2b64535090987", "addresses": ["3HM7U9hdef8ZfRvuSfsAqYEePswu5ABdms"], "asm": "OP_HASH160 abbe526e4ab311e781454691f44fc2b645350909 OP_EQUAL", "type": "scripthash"}, "value": 0.01662882, "n": 0}, {"scriptPubKey": {"reqSigs": 1, "hex": "a9142b09fd66543b89ed0506a1a8a10154c3737488c187", "addresses": ["35cawu69cZEwBpTqeq773h4FwzWFSr6BAC"], "asm": "OP_HASH160 2b09fd66543b89ed0506a1a8a10154c3737488c1 OP_EQUAL", "type": "scripthash"}, "value": 0.00436081, "n": 1}], "hex": "010000000001010685e882caadd7b828f7ad081a1e717682711065a668f8731343948beead92a30000000017160014121fad01d783d8e288ac9d3082206eca5971fb3fffffff0002a25f19000000000017a914abbe526e4ab311e781454691f44fc2b6453509098771a706000000000017a9142b09fd66543b89ed0506a1a8a10154c3737488c187024830450221008c1f3f096f326e14bb2bfbce1435d85406a3eb13e1296e0fc3c61c5a95355f8a02202f0e58e3489a334e926d9170cd54d284384eafa6a0de02a82208633bd19fa99d0121026c198e7c4299fee2698f6f68a7385370fc1af69727d2b3aab7880b08b2db9e5800000000", "vin": [{"txinwitness": ["30450221008c1f3f096f326e14bb2bfbce1435d85406a3eb13e1296e0fc3c61c5a95355f8a02202f0e58e3489a334e926d9170cd54d284384eafa6a0de02a82208633bd19fa99d01", "026c198e7c4299fee2698f6f68a7385370fc1af69727d2b3aab7880b08b2db9e58"], "sequence": 16777215, "scriptSig": {"hex": "160014121fad01d783d8e288ac9d3082206eca5971fb3f", "asm": "0014121fad01d783d8e288ac9d3082206eca5971fb3f"}, "vout": 0, "txid": "a392adee8b94431373f868a66510718276711e1a08adf728b8d7adca82e88506"}], "txid": "9fb1d8226b8255c91155b1ea65d591c30c059a6fdc27574198a72f99cef24bf3", "blocktime": 1537875543, "version": 1, "confirmations": 11464, "time": 1537875543, "locktime": 0, "vsize": 166, "size": 248}