{"hash": "061780cbe81d6dec1ddccb3131930c30198c3dfbd2f117c8efc91ac3184fdc8b", "blockhash": "00000000000000000004ffacab907a6b429b9a5745fa0b75af4234bf69dd7176", "vout": [{"scriptPubKey": {"reqSigs": 1, "hex": "a914a12e0d7a710ee3881a67e73336b0edbab962cb3587", "addresses": ["3GPFtDsDCpigBnREZbejkCXZMkCGuDtXyP"], "asm": "OP_HASH160 a12e0d7a710ee3881a67e73336b0edbab962cb35 OP_EQUAL", "type": "scripthash"}, "value": 4.79272326, "n": 0}, {"scriptPubKey": {"reqSigs": 1, "hex": "76a914357a62174a4f41d22396c85f5d7d8b5e90282e6388ac", "addresses": ["15smRVvFuLjTMXRTgKriGEc5AqyzePKaHH"], "asm": "OP_DUP OP_HASH160 357a62174a4f41d22396c85f5d7d8b5e90282e63 OP_EQUALVERIFY OP_CHECKSIG", "type": "pubkeyhash"}, "value": 0.0168246, "n": 1}], "hex": "02000000000101e7e22e42d9d14b02c0fd81380212195286f03c29eaa903ebe411660bc676048e0200000017160014ceb9cc2ee4a654ecf07296cca21e117d31b4a01afeffffff02861d911c0000000017a914a12e0d7a710ee3881a67e73336b0edbab962cb35871cac1900000000001976a914357a62174a4f41d22396c85f5d7d8b5e90282e6388ac02473044022077f49c8fc7fcc74585ebf0d883f69d97d7e4392a7adab2aff9d4e268c406440702201a821acce66c0a7bb0cd1f58f21330e3a9af136434e51b56f57187fa04d905190121024281f73be6b62c05d7a98a2014b3ffe50fd1799c6cd92eba00a19ae02f794a7416490800", "vin": [{"txinwitness": ["3044022077f49c8fc7fcc74585ebf0d883f69d97d7e4392a7adab2aff9d4e268c406440702201a821acce66c0a7bb0cd1f58f21330e3a9af136434e51b56f57187fa04d9051901", "024281f73be6b62c05d7a98a2014b3ffe50fd1799c6cd92eba00a19ae02f794a74"], "sequence": 4294967294, "scriptSig": {"hex": "160014ceb9cc2ee4a654ecf07296cca21e117d31b4a01a", "asm": "0014ceb9cc2ee4a654ecf07296cca21e117d31b4a01a"}, "vout": 2, "txid": "8e0476c60b6611e4eb03a9ea293cf086521912023881fdc0024bd1d9422ee2e7"}], "txid": "9fbca4b85262c4e03fbfdb68d05f77d88111c9b7d78f2c6c4c94c3635495df22", "blocktime": 1537875543, "version": 2, "confirmations": 11464, "time": 1537875543, "locktime": 542998, "vsize": 168, "size": 249}