{"hash": "9fbdb8c1e3961e075ed8c4383d158f9ae2b7c06ac3431914a1fb72a24e386f53", "blockhash": "0000000000000000001cda96e906b7601b7a6fb1a3b62bca570a9e5d8f4b3de1", "vout": [{"scriptPubKey": {"reqSigs": 1, "hex": "76a91416b325c55137460892cb9fca86d79cc370f312ec88ac", "addresses": ["1352UcN4hdQoyt2tKDGBJbHYqSC5HA94kv"], "asm": "OP_DUP OP_HASH160 16b325c55137460892cb9fca86d79cc370f312ec OP_EQUALVERIFY OP_CHECKSIG", "type": "pubkeyhash"}, "value": 2.464e-05, "n": 0}, {"scriptPubKey": {"reqSigs": 1, "hex": "a9146fc43e911581d85dc3fd8713044ea233fd66051587", "addresses": ["3Bsz28u3KgnsWQWfG1jJFDoS6vhUsH1DZZ"], "asm": "OP_HASH160 6fc43e911581d85dc3fd8713044ea233fd660515 OP_EQUAL", "type": "scripthash"}, "value": 0.012, "n": 1}], "hex": "01000000088a10f29d8e79b4a27444bb63c3cb10ed64db9439fbf94c0fde101e2a2ddad96b140100006a47304402204c10a48fa7399ac0c1834c98b8d3e402b0a396c2584b059abedde624e4e639ce0220535742c706eff6e49624571670f67d0114536bad981e4673674bb9566b23cce6012102f4bff3d8e8a8eda104fcd21ab4f5a689d724f6ce211d2be0b9d21f8d1137a49effffffff9b307602093b57c999aa5bb18498f41d27f777401d9312561a2e2f3810898878000000006b48304502210099954185783a93a2ebf750362b246a2858c80395ed169532111f4832727188f302206bbf472788823b5a676ca97a5f8aecff3bac3200ec6cb8ca09e5a3c87029f793012103a681ccf1b9256533261c3cca8b733505da504829cabcfc50689b933873e8281ffffffffffe52559cf8aaa79e536db7d4842c7e227ff6d0614bdbd9ad7d38b1c96e077f86000000006b483045022100f7f313e4252b1cfb94638e7291d5c3b42503ac0e9e9abf027d5ada9b1486dba602201df64e70101c93200b9e626abc9cb0b01d5e3f13a74ae393d3b7fec43775f20c012102e7e26ce5eb50b59f8dbc2a092ea9453557c54920ec2ac15653050b60221d1f3affffffff5d500b81072d828b3e8679e89099ca64f4286111edd7f47f90bb2e06f9fd459c4f0100006a473044022077b297482f8b13e3091435f33fce302e79824cb348b843d6cab8c1c97ca909b202207a0420a0c25e4812d3e4137ffe0412ee25097d16ff980ea41f493b74bc5e2152012103492fa4884057ad41ea30553fe7f12332a57f0ce3dab83cfeae711068f162feceffffffff1fc189aea2d45c3b47f48303895107f4c76288ac928c00db0f3a47a1fa4ca9b96a0100006b483045022100c01aa7eaf966a7d051e0adf40f8f6637a5af587edd9d7e8ca4fabccacead0bf102207ba31311878b3e8bcc0b88967c74060a5f9a4ba7bf2855655ebd8a44be6c8b7701210339ee426ad09431ea6b944f954b00065db1e41638b9171f674a134cb50d3c1b8effffffff739cf89d23f56df2023d420883fdcf2da4af7b63210a66c7c8a6db65873476d7df0000006a47304402202c987ca5aae152ecebb325b4ff4232094b595e53835ccf8702a9e72f71024b5f02200a82ebb225c8f423430897c396ad88e9c46af046608864d9153866396de374530121033675e15ec8eef0ae88ec80c7881f8200e2b16af66005e62bd2d0f3f38c980147ffffffff084267c709a2d3325cae6da1f587eb32946e27f5a28624fe52af7c2c38b1f4fc000000006b483045022100a3494c35484d864a0c2f19a3b1266d653fdf5f37e0297f71c8345f0e853b269102202fbd538fd6b0b5e4168e01f618bbe787a7d8c0ae29663bf3b0cfb9b139995039012103c05f48ede4d70c0f0a1c30eb37ca6d0a4dfc2c25b651a2c0e1550317603052dfffffffffb10223c3d7dc9ca2ee8d9b58dc4c66ec34331157a3c7b8bf298b45303a4f3fff290000006b483045022100845c51c2778b7769062562615081aeaba2f9da5bd6010d72e88f8c54dd9f9e8402204cd6929c9b4d14e0de6d894c938231d47b8d3526f30c08d4cc4b5c9d02c17e9301210218727ce1c8327fb885c92e76fa86c1e8e289b08505ce48e3439809c42ae4de53ffffffff02a0090000000000001976a91416b325c55137460892cb9fca86d79cc370f312ec88ac804f12000000000017a9146fc43e911581d85dc3fd8713044ea233fd6605158700000000", "vin": [{"sequence": 4294967295, "scriptSig": {"hex": "47304402204c10a48fa7399ac0c1834c98b8d3e402b0a396c2584b059abedde624e4e639ce0220535742c706eff6e49624571670f67d0114536bad981e4673674bb9566b23cce6012102f4bff3d8e8a8eda104fcd21ab4f5a689d724f6ce211d2be0b9d21f8d1137a49e", "asm": "304402204c10a48fa7399ac0c1834c98b8d3e402b0a396c2584b059abedde624e4e639ce0220535742c706eff6e49624571670f67d0114536bad981e4673674bb9566b23cce6[ALL] 02f4bff3d8e8a8eda104fcd21ab4f5a689d724f6ce211d2be0b9d21f8d1137a49e"}, "vout": 276, "txid": "6bd9da2d2a1e10de0f4cf9fb3994db64ed10cbc363bb4474a2b4798e9df2108a"}, {"sequence": 4294967295, "scriptSig": {"hex": "48304502210099954185783a93a2ebf750362b246a2858c80395ed169532111f4832727188f302206bbf472788823b5a676ca97a5f8aecff3bac3200ec6cb8ca09e5a3c87029f793012103a681ccf1b9256533261c3cca8b733505da504829cabcfc50689b933873e8281f", "asm": "304502210099954185783a93a2ebf750362b246a2858c80395ed169532111f4832727188f302206bbf472788823b5a676ca97a5f8aecff3bac3200ec6cb8ca09e5a3c87029f793[ALL] 03a681ccf1b9256533261c3cca8b733505da504829cabcfc50689b933873e8281f"}, "vout": 0, "txid": "78888910382f2e1a5612931d4077f7271df49884b15baa99c9573b090276309b"}, {"sequence": 4294967295, "scriptSig": {"hex": "483045022100f7f313e4252b1cfb94638e7291d5c3b42503ac0e9e9abf027d5ada9b1486dba602201df64e70101c93200b9e626abc9cb0b01d5e3f13a74ae393d3b7fec43775f20c012102e7e26ce5eb50b59f8dbc2a092ea9453557c54920ec2ac15653050b60221d1f3a", "asm": "3045022100f7f313e4252b1cfb94638e7291d5c3b42503ac0e9e9abf027d5ada9b1486dba602201df64e70101c93200b9e626abc9cb0b01d5e3f13a74ae393d3b7fec43775f20c[ALL] 02e7e26ce5eb50b59f8dbc2a092ea9453557c54920ec2ac15653050b60221d1f3a"}, "vout": 0, "txid": "867f076ec9b1387dadd9db4b61d0f67f227e2c84d4b76d539ea7aaf89c5552fe"}, {"sequence": 4294967295, "scriptSig": {"hex": "473044022077b297482f8b13e3091435f33fce302e79824cb348b843d6cab8c1c97ca909b202207a0420a0c25e4812d3e4137ffe0412ee25097d16ff980ea41f493b74bc5e2152012103492fa4884057ad41ea30553fe7f12332a57f0ce3dab83cfeae711068f162fece", "asm": "3044022077b297482f8b13e3091435f33fce302e79824cb348b843d6cab8c1c97ca909b202207a0420a0c25e4812d3e4137ffe0412ee25097d16ff980ea41f493b74bc5e2152[ALL] 03492fa4884057ad41ea30553fe7f12332a57f0ce3dab83cfeae711068f162fece"}, "vout": 335, "txid": "9c45fdf9062ebb907ff4d7ed116128f464ca9990e879863e8b822d07810b505d"}, {"sequence": 4294967295, "scriptSig": {"hex": "483045022100c01aa7eaf966a7d051e0adf40f8f6637a5af587edd9d7e8ca4fabccacead0bf102207ba31311878b3e8bcc0b88967c74060a5f9a4ba7bf2855655ebd8a44be6c8b7701210339ee426ad09431ea6b944f954b00065db1e41638b9171f674a134cb50d3c1b8e", "asm": "3045022100c01aa7eaf966a7d051e0adf40f8f6637a5af587edd9d7e8ca4fabccacead0bf102207ba31311878b3e8bcc0b88967c74060a5f9a4ba7bf2855655ebd8a44be6c8b77[ALL] 0339ee426ad09431ea6b944f954b00065db1e41638b9171f674a134cb50d3c1b8e"}, "vout": 362, "txid": "b9a94cfaa1473a0fdb008c92ac8862c7f40751890383f4473b5cd4a2ae89c11f"}, {"sequence": 4294967295, "scriptSig": {"hex": "47304402202c987ca5aae152ecebb325b4ff4232094b595e53835ccf8702a9e72f71024b5f02200a82ebb225c8f423430897c396ad88e9c46af046608864d9153866396de374530121033675e15ec8eef0ae88ec80c7881f8200e2b16af66005e62bd2d0f3f38c980147", "asm": "304402202c987ca5aae152ecebb325b4ff4232094b595e53835ccf8702a9e72f71024b5f02200a82ebb225c8f423430897c396ad88e9c46af046608864d9153866396de37453[ALL] 033675e15ec8eef0ae88ec80c7881f8200e2b16af66005e62bd2d0f3f38c980147"}, "vout": 223, "txid": "d776348765dba6c8c7660a21637bafa42dcffd8308423d02f26df5239df89c73"}, {"sequence": 4294967295, "scriptSig": {"hex": "483045022100a3494c35484d864a0c2f19a3b1266d653fdf5f37e0297f71c8345f0e853b269102202fbd538fd6b0b5e4168e01f618bbe787a7d8c0ae29663bf3b0cfb9b139995039012103c05f48ede4d70c0f0a1c30eb37ca6d0a4dfc2c25b651a2c0e1550317603052df", "asm": "3045022100a3494c35484d864a0c2f19a3b1266d653fdf5f37e0297f71c8345f0e853b269102202fbd538fd6b0b5e4168e01f618bbe787a7d8c0ae29663bf3b0cfb9b139995039[ALL] 03c05f48ede4d70c0f0a1c30eb37ca6d0a4dfc2c25b651a2c0e1550317603052df"}, "vout": 0, "txid": "fcf4b1382c7caf52fe2486a2f5276e9432eb87f5a16dae5c32d3a209c7674208"}, {"sequence": 4294967295, "scriptSig": {"hex": "483045022100845c51c2778b7769062562615081aeaba2f9da5bd6010d72e88f8c54dd9f9e8402204cd6929c9b4d14e0de6d894c938231d47b8d3526f30c08d4cc4b5c9d02c17e9301210218727ce1c8327fb885c92e76fa86c1e8e289b08505ce48e3439809c42ae4de53", "asm": "3045022100845c51c2778b7769062562615081aeaba2f9da5bd6010d72e88f8c54dd9f9e8402204cd6929c9b4d14e0de6d894c938231d47b8d3526f30c08d4cc4b5c9d02c17e93[ALL] 0218727ce1c8327fb885c92e76fa86c1e8e289b08505ce48e3439809c42ae4de53"}, "vout": 41, "txid": "ff3f4f3a30458b29bfb8c7a357113334ec664cdc589b8deea29cdcd7c32302b1"}], "txid": "9fbdb8c1e3961e075ed8c4383d158f9ae2b7c06ac3431914a1fb72a24e386f53", "blocktime": 1537873282, "version": 1, "confirmations": 11485, "time": 1537873282, "locktime": 0, "vsize": 1257, "size": 1257}