{"hash": "9fc44983909c805de5607f6ac4c3f836ec18150ed36cd4c8dfcb60781dd163cd", "blockhash": "0000000000000000000dcc0f55137456b1a82d3642486a52398922ac4d620174", "vout": [{"scriptPubKey": {"reqSigs": 1, "hex": "a914f1e6c8917ab9774f88c4607fec128f30237777fb87", "addresses": ["3Pk5EtfCrcCEkMZSBqBFgseRZHUvxyN114"], "asm": "OP_HASH160 f1e6c8917ab9774f88c4607fec128f30237777fb OP_EQUAL", "type": "scripthash"}, "value": 0.00743386, "n": 0}, {"scriptPubKey": {"reqSigs": 1, "hex": "a9140276526ecfeb35e1cfcf9a13d4b05b07787f3f1387", "addresses": ["31v325qxMm7Q5KyAkabz7m4CuX6evdTjzG"], "asm": "OP_HASH160 0276526ecfeb35e1cfcf9a13d4b05b07787f3f13 OP_EQUAL", "type": "scripthash"}, "value": 0.00746224, "n": 1}, {"scriptPubKey": {"reqSigs": 1, "hex": "a914c2af28fe65b4d5d3a21d9965b474a9821cbab97787", "addresses": ["3KSQr6eWKvNXQ7VsmUchzewiA32c39wMeQ"], "asm": "OP_HASH160 c2af28fe65b4d5d3a21d9965b474a9821cbab977 OP_EQUAL", "type": "scripthash"}, "value": 0.01781211, "n": 2}, {"scriptPubKey": {"reqSigs": 1, "hex": "a9148a5ff4c1c6427d9681a41b76d2392d624d4c306087", "addresses": ["3EJg8ALXusbJbSq6krWYNqJBwLVqcA3ERv"], "asm": "OP_HASH160 8a5ff4c1c6427d9681a41b76d2392d624d4c3060 OP_EQUAL", "type": "scripthash"}, "value": 0.02915653, "n": 3}, {"scriptPubKey": {"reqSigs": 1, "hex": "76a9140fc40403943954416a9382b91c977d0951210c9b88ac", "addresses": ["12SMxHZtnJ9y1mVsWpVk6ERezFfp9WgT6X"], "asm": "OP_DUP OP_HASH160 0fc40403943954416a9382b91c977d0951210c9b OP_EQUALVERIFY OP_CHECKSIG", "type": "pubkeyhash"}, "value": 0.0523764, "n": 4}, {"scriptPubKey": {"reqSigs": 1, "hex": "76a914bba3127f64f4a56f69247a14d1d31fbf0bad4ef188ac", "addresses": ["1J78iLDVGrAqMYVZS5oZaWdPQUxq2vKwA5"], "asm": "OP_DUP OP_HASH160 bba3127f64f4a56f69247a14d1d31fbf0bad4ef1 OP_EQUALVERIFY OP_CHECKSIG", "type": "pubkeyhash"}, "value": 5.38920905, "n": 5}], "hex": "0100000001a1594e3845dd1d6ddf78a5fb3d5a6e768bc900a300dfa1740a6c18e12fadee62070000006a4730440220383a232111262e244ca1604fb74f06489359e4aaf79e02da7e2a62a5f7bfac1f022036cf416cb76361f65b9b118d39231f6c29ec7a27baac724c03f9e20abb77e05a012103e8cc38e4c29bbbac7845d8fe189ee56d524f276e92bb916dbfc4c804111f2c76ffffffff06da570b000000000017a914f1e6c8917ab9774f88c4607fec128f30237777fb87f0620b000000000017a9140276526ecfeb35e1cfcf9a13d4b05b07787f3f1387db2d1b000000000017a914c2af28fe65b4d5d3a21d9965b474a9821cbab97787457d2c000000000017a9148a5ff4c1c6427d9681a41b76d2392d624d4c30608788eb4f00000000001976a9140fc40403943954416a9382b91c977d0951210c9b88acc9471f20000000001976a914bba3127f64f4a56f69247a14d1d31fbf0bad4ef188ac00000000", "vin": [{"sequence": 4294967295, "scriptSig": {"hex": "4730440220383a232111262e244ca1604fb74f06489359e4aaf79e02da7e2a62a5f7bfac1f022036cf416cb76361f65b9b118d39231f6c29ec7a27baac724c03f9e20abb77e05a012103e8cc38e4c29bbbac7845d8fe189ee56d524f276e92bb916dbfc4c804111f2c76", "asm": "30440220383a232111262e244ca1604fb74f06489359e4aaf79e02da7e2a62a5f7bfac1f022036cf416cb76361f65b9b118d39231f6c29ec7a27baac724c03f9e20abb77e05a[ALL] 03e8cc38e4c29bbbac7845d8fe189ee56d524f276e92bb916dbfc4c804111f2c76"}, "vout": 7, "txid": "62eead2fe1186c0a74a1df00a300c98b766e5a3dfba578df6d1ddd45384e59a1"}], "txid": "9fc44983909c805de5607f6ac4c3f836ec18150ed36cd4c8dfcb60781dd163cd", "blocktime": 1537870268, "version": 1, "confirmations": 11516, "time": 1537870268, "locktime": 0, "vsize": 353, "size": 353}