{"hash": "9fc6f8cdc4623af83c7fa6a0877617e149ab5921414c87902c860dd54b014f62", "blockhash": "0000000000000000001f76057863aec43deb6fa401d9628bb513d65a8098bfab", "vout": [{"scriptPubKey": {"reqSigs": 1, "hex": "a914c32a2e9247b671c07600f770888e86c204571c5987", "addresses": ["3KUxDoTdq3o3M37MbuPqVPcdChMi8poam1"], "asm": "OP_HASH160 c32a2e9247b671c07600f770888e86c204571c59 OP_EQUAL", "type": "scripthash"}, "value": 0.00121097, "n": 0}, {"scriptPubKey": {"reqSigs": 1, "hex": "76a91446f8af9a6d7f84a18bf5a3a5f2117084c0be50b688ac", "addresses": ["17UGDRzS4krBmvoV1q8sGq4KQXmSduT9fc"], "asm": "OP_DUP OP_HASH160 46f8af9a6d7f84a18bf5a3a5f2117084c0be50b6 OP_EQUALVERIFY OP_CHECKSIG", "type": "pubkeyhash"}, "value": 0.00689838, "n": 1}], "hex": "01000000017ac63152f99dbcf4b4ebd584c063bc340f453783f4690976c3d45cb4cc903940010000006a4730440220785081761a861f22de2f239c2d8fd3d65644989730c6b14ead452ed5e204d7b9022028e51e80b2053389f7e2c06fac4ed5b5ae350448dcafb0bbe775d94814edbcc301210262d01d678d3f2efea59fd3e08b3fe7ed6a6e4066a8f679e5dab8cc435c94a791ffffffff0209d901000000000017a914c32a2e9247b671c07600f770888e86c204571c5987ae860a00000000001976a91446f8af9a6d7f84a18bf5a3a5f2117084c0be50b688ac00000000", "vin": [{"sequence": 4294967295, "scriptSig": {"hex": "4730440220785081761a861f22de2f239c2d8fd3d65644989730c6b14ead452ed5e204d7b9022028e51e80b2053389f7e2c06fac4ed5b5ae350448dcafb0bbe775d94814edbcc301210262d01d678d3f2efea59fd3e08b3fe7ed6a6e4066a8f679e5dab8cc435c94a791", "asm": "30440220785081761a861f22de2f239c2d8fd3d65644989730c6b14ead452ed5e204d7b9022028e51e80b2053389f7e2c06fac4ed5b5ae350448dcafb0bbe775d94814edbcc3[ALL] 0262d01d678d3f2efea59fd3e08b3fe7ed6a6e4066a8f679e5dab8cc435c94a791"}, "vout": 1, "txid": "403990ccb45cd4c3760969f48337450f34bc63c084d5ebb4f4bc9df95231c67a"}], "txid": "9fc6f8cdc4623af83c7fa6a0877617e149ab5921414c87902c860dd54b014f62", "blocktime": 1537873891, "version": 1, "confirmations": 11475, "time": 1537873891, "locktime": 0, "vsize": 223, "size": 223}