{"hash": "c8aaa876fd1352a307697fa15bda56ba940a1eaf5d3715c5ec8eb7a0a89fdf13", "blockhash": "0000000000000000001e0dab787dd257d1dbfcb92a98c2207d5e1078be1f4165", "vout": [{"scriptPubKey": {"reqSigs": 1, "hex": "00143f21fff2c8202048ef7dfdece62d587788cc93b0", "addresses": ["bc1q8usllukgyqsy3mmalhkwvt2cw7yveyas0rxqv7"], "asm": "0 3f21fff2c8202048ef7dfdece62d587788cc93b0", "type": "witness_v0_keyhash"}, "value": 6.136e-05, "n": 0}, {"scriptPubKey": {"reqSigs": 1, "hex": "76a91486a2a05080614b17bca94183b944ec81b52d1f9488ac", "addresses": ["1DGtNB5Nwv8JCjzNRF5mvyLbzJxusXh6sc"], "asm": "OP_DUP OP_HASH160 86a2a05080614b17bca94183b944ec81b52d1f94 OP_EQUALVERIFY OP_CHECKSIG", "type": "pubkeyhash"}, "value": 0.00337276, "n": 1}], "hex": "01000000000101cf74f7cf4d9e6dc548a294dee079e9a3bf903b3bd04688b812d5501d77108ea50000000017160014364ae6329b0f12e1e464ddd94943319ea993b0f5ffffffff02f8170000000000001600143f21fff2c8202048ef7dfdece62d587788cc93b07c250500000000001976a91486a2a05080614b17bca94183b944ec81b52d1f9488ac024730440220054639c62dbda4d47122be09d4926f4dbb2f90b4d6a13158ee36f8ed2de28417022037c99eb1438176379f51a751e28878b28e1ebfdb5d5273373475f63f4f78aa8c0121037bea4c9eb31fe046ee2d4043b67d811b9a0a27ff4830ee48717a2df4d4be496900000000", "vin": [{"txinwitness": ["30440220054639c62dbda4d47122be09d4926f4dbb2f90b4d6a13158ee36f8ed2de28417022037c99eb1438176379f51a751e28878b28e1ebfdb5d5273373475f63f4f78aa8c01", "037bea4c9eb31fe046ee2d4043b67d811b9a0a27ff4830ee48717a2df4d4be4969"], "sequence": 4294967295, "scriptSig": {"hex": "160014364ae6329b0f12e1e464ddd94943319ea993b0f5", "asm": "0014364ae6329b0f12e1e464ddd94943319ea993b0f5"}, "vout": 0, "txid": "a58e10771d50d512b88846d03b3b90bfa3e979e0de94a248c56d9e4dcff774cf"}], "txid": "9fc60e6936548f1627f64b019eeda6efbbbc40089c4c9375d3f48b413f6bbc88", "blocktime": 1537872475, "version": 1, "confirmations": 11487, "time": 1537872475, "locktime": 0, "vsize": 167, "size": 248}