{"hash": "9fc668798d660eceecaffb46ba0a2d8669d92adcae3a4c7378b7313bcc6f7b86", "blockhash": "00000000000000000004ffacab907a6b429b9a5745fa0b75af4234bf69dd7176", "vout": [{"scriptPubKey": {"reqSigs": 1, "hex": "76a914a335728ad8168e6d94af12d0c6eb2f99ff9e67e088ac", "addresses": ["1FsyArwKS6316ib8SDdkjSudg6FGp51vdm"], "asm": "OP_DUP OP_HASH160 a335728ad8168e6d94af12d0c6eb2f99ff9e67e0 OP_EQUALVERIFY OP_CHECKSIG", "type": "pubkeyhash"}, "value": 0.00994392, "n": 0}, {"scriptPubKey": {"reqSigs": 1, "hex": "76a91409c672f2479aa1837a05f0a1edadc99f4253f41e88ac", "addresses": ["1tgpCut6B7cTgBB7my17EpYcfxRrRvAH3"], "asm": "OP_DUP OP_HASH160 09c672f2479aa1837a05f0a1edadc99f4253f41e OP_EQUALVERIFY OP_CHECKSIG", "type": "pubkeyhash"}, "value": 0.02674087, "n": 1}], "hex": "0200000002c27e1614d6658f58a2d90a1c16aea788fa6aac9cc6f0f7ec8062daaa3bcc2f81040000006a47304402203e45d72a1f1a37c13d546858ead1af116007672f6e109471c2c922e83993701e022028444b4f282540194bf01e5fd9321c8d44a29ef71fa9e7cd8153afed5a3826d5012102aff77bad533f86cdb9c9fd0f2d7e2973b527839f1732eb1c88c6a630a0a87918fefffffffb9906cad768bacde039724a5123addef442d1f0e33e0e6b2f1f7f20b728d5bc000000006a47304402205c0c114b0e3de521911f80e05afd94c9caacab70ffa9f1407af9e478c0f8c9e6022005b8c3564d3e79c407be38de6bf478f84fe9cc27242a6afa2667383b62237c63012102811b3cb989a9c899c99179c38c168f4097b8e123c8cb52485c8fc61e13509044feffffff02582c0f00000000001976a914a335728ad8168e6d94af12d0c6eb2f99ff9e67e088aca7cd2800000000001976a91409c672f2479aa1837a05f0a1edadc99f4253f41e88ac16490800", "vin": [{"sequence": 4294967294, "scriptSig": {"hex": "47304402203e45d72a1f1a37c13d546858ead1af116007672f6e109471c2c922e83993701e022028444b4f282540194bf01e5fd9321c8d44a29ef71fa9e7cd8153afed5a3826d5012102aff77bad533f86cdb9c9fd0f2d7e2973b527839f1732eb1c88c6a630a0a87918", "asm": "304402203e45d72a1f1a37c13d546858ead1af116007672f6e109471c2c922e83993701e022028444b4f282540194bf01e5fd9321c8d44a29ef71fa9e7cd8153afed5a3826d5[ALL] 02aff77bad533f86cdb9c9fd0f2d7e2973b527839f1732eb1c88c6a630a0a87918"}, "vout": 4, "txid": "812fcc3baada6280ecf7f0c69cac6afa88a7ae161c0ad9a2588f65d614167ec2"}, {"sequence": 4294967294, "scriptSig": {"hex": "47304402205c0c114b0e3de521911f80e05afd94c9caacab70ffa9f1407af9e478c0f8c9e6022005b8c3564d3e79c407be38de6bf478f84fe9cc27242a6afa2667383b62237c63012102811b3cb989a9c899c99179c38c168f4097b8e123c8cb52485c8fc61e13509044", "asm": "304402205c0c114b0e3de521911f80e05afd94c9caacab70ffa9f1407af9e478c0f8c9e6022005b8c3564d3e79c407be38de6bf478f84fe9cc27242a6afa2667383b62237c63[ALL] 02811b3cb989a9c899c99179c38c168f4097b8e123c8cb52485c8fc61e13509044"}, "vout": 0, "txid": "bcd528b7207f1f2f6b0e3ee3f0d142f4dead23514a7239e0cdba68d7ca0699fb"}], "txid": "9fc668798d660eceecaffb46ba0a2d8669d92adcae3a4c7378b7313bcc6f7b86", "blocktime": 1537875543, "version": 2, "confirmations": 11464, "time": 1537875543, "locktime": 542998, "vsize": 372, "size": 372}