{"hash": "9fcc2d1e79d4c83096bcae03f1fde08b681ebdeabe7c7b92c99f78895a6e75e9", "blockhash": "0000000000000000001e0dab787dd257d1dbfcb92a98c2207d5e1078be1f4165", "vout": [{"scriptPubKey": {"reqSigs": 1, "hex": "a9140ee38d4a67469d65e73b30285b90f8809e96143287", "addresses": ["333jyp9cE6FNa1SDN2x9qCRS6bBwd1Zi9T"], "asm": "OP_HASH160 0ee38d4a67469d65e73b30285b90f8809e961432 OP_EQUAL", "type": "scripthash"}, "value": 0.00579999, "n": 0}, {"scriptPubKey": {"reqSigs": 1, "hex": "76a91494fa8dfa6af14ea366ae08804038381e2b348b1188ac", "addresses": ["1EajAELHAyr8Kj4SqLcGz4dTcAkktGg1Ui"], "asm": "OP_DUP OP_HASH160 94fa8dfa6af14ea366ae08804038381e2b348b11 OP_EQUALVERIFY OP_CHECKSIG", "type": "pubkeyhash"}, "value": 0.0089548, "n": 1}], "hex": "02000000037f803f7e022f5381cb54a48f56fb174bb943e9639b68b1fe02838007b741ee9e920100006b483045022100cbdc508ec95f4237bb7b72ad9b560bb3584faf4bec7f837a95bd98aa66955e51022005c2948ca4c138924efd37b30404a74580a53ad04251bd7383e70bef07822f5b01210340a9b74ce45d03f707730987619427999aaeb5136afa08fb0e57515fdcf0c10ffeffffffc94e8c74799a572d24733441d7acd5866318465b896cb2281c09bcbeded89f05130000006b483045022100efa1e95aa0888c749d8847dd8353d6a30d582dcc3200ee0328b9569c4a2074d00220645b5e5065f50b1dce7b656ba9dd1a0013ba037f193673c3bbfe8552051f7f9201210319ef78d36f6211a2b9be70e4d607542d7285b0a35af999c8a46d05ff6013f991feffffffc0ffe871618f097d6ab6a25e524768eda604752123a3d4d5c350203265c051696d0000006a473044022011b656d388ec9bb3c1c9de84b17d3bcc44cae3fc20ae9fa6c9104b4dc9e6768f022008fca1232ca94091c343ced441874078db39d78b0d2b85e884bea5f0b528ed7301210247c0b5942d5c4d0c0ec9307813b8705dbbc6464276cfe910ddf2ed5178b753e0feffffff029fd908000000000017a9140ee38d4a67469d65e73b30285b90f8809e96143287f8a90d00000000001976a91494fa8dfa6af14ea366ae08804038381e2b348b1188ac12490800", "vin": [{"sequence": 4294967294, "scriptSig": {"hex": "483045022100cbdc508ec95f4237bb7b72ad9b560bb3584faf4bec7f837a95bd98aa66955e51022005c2948ca4c138924efd37b30404a74580a53ad04251bd7383e70bef07822f5b01210340a9b74ce45d03f707730987619427999aaeb5136afa08fb0e57515fdcf0c10f", "asm": "3045022100cbdc508ec95f4237bb7b72ad9b560bb3584faf4bec7f837a95bd98aa66955e51022005c2948ca4c138924efd37b30404a74580a53ad04251bd7383e70bef07822f5b[ALL] 0340a9b74ce45d03f707730987619427999aaeb5136afa08fb0e57515fdcf0c10f"}, "vout": 402, "txid": "9eee41b707808302feb1689b63e943b94b17fb568fa454cb81532f027e3f807f"}, {"sequence": 4294967294, "scriptSig": {"hex": "483045022100efa1e95aa0888c749d8847dd8353d6a30d582dcc3200ee0328b9569c4a2074d00220645b5e5065f50b1dce7b656ba9dd1a0013ba037f193673c3bbfe8552051f7f9201210319ef78d36f6211a2b9be70e4d607542d7285b0a35af999c8a46d05ff6013f991", "asm": "3045022100efa1e95aa0888c749d8847dd8353d6a30d582dcc3200ee0328b9569c4a2074d00220645b5e5065f50b1dce7b656ba9dd1a0013ba037f193673c3bbfe8552051f7f92[ALL] 0319ef78d36f6211a2b9be70e4d607542d7285b0a35af999c8a46d05ff6013f991"}, "vout": 19, "txid": "059fd8debebc091c28b26c895b46186386d5acd7413473242d579a79748c4ec9"}, {"sequence": 4294967294, "scriptSig": {"hex": "473044022011b656d388ec9bb3c1c9de84b17d3bcc44cae3fc20ae9fa6c9104b4dc9e6768f022008fca1232ca94091c343ced441874078db39d78b0d2b85e884bea5f0b528ed7301210247c0b5942d5c4d0c0ec9307813b8705dbbc6464276cfe910ddf2ed5178b753e0", "asm": "3044022011b656d388ec9bb3c1c9de84b17d3bcc44cae3fc20ae9fa6c9104b4dc9e6768f022008fca1232ca94091c343ced441874078db39d78b0d2b85e884bea5f0b528ed73[ALL] 0247c0b5942d5c4d0c0ec9307813b8705dbbc6464276cfe910ddf2ed5178b753e0"}, "vout": 109, "txid": "6951c065322050c3d5d4a323217504a6ed6847525ea2b66a7d098f6171e8ffc0"}], "txid": "9fcc2d1e79d4c83096bcae03f1fde08b681ebdeabe7c7b92c99f78895a6e75e9", "blocktime": 1537872475, "version": 2, "confirmations": 11486, "time": 1537872475, "locktime": 542994, "vsize": 519, "size": 519}