{"hash": "9fcf6413f7a4589ce79600f9f1d20f5ef339dfe5d0c6c1bcbc7773f349827c2b", "blockhash": "0000000000000000001cda96e906b7601b7a6fb1a3b62bca570a9e5d8f4b3de1", "vout": [{"scriptPubKey": {"type": "nulldata", "hex": "6a4c50000077c90001db65804adc182e8cd795d1175b23cc0f42c2fc38c5e5bf9ae76da98a211a634654a82f0f016ba6b57aabdf94f9705baa13ce0612e741fbc5b96f1d100759d4ba30d2c37bb011d97e02cf", "asm": "OP_RETURN 000077c90001db65804adc182e8cd795d1175b23cc0f42c2fc38c5e5bf9ae76da98a211a634654a82f0f016ba6b57aabdf94f9705baa13ce0612e741fbc5b96f1d100759d4ba30d2c37bb011d97e02cf"}, "value": 0.0, "n": 0}, {"scriptPubKey": {"reqSigs": 1, "hex": "76a914532d31b9dd1856dc01d7123362ea629f4850a79e88ac", "addresses": ["18aoE5ELehUtvBvExFkrhoRiRpT89cS8x3"], "asm": "OP_DUP OP_HASH160 532d31b9dd1856dc01d7123362ea629f4850a79e OP_EQUALVERIFY OP_CHECKSIG", "type": "pubkeyhash"}, "value": 0.0063852, "n": 1}], "hex": "01000000014848138d29174677dd0677d9338a0fa42d67c6bec071b9c364150e4ae8e591ed000000006b4830450221009cf586aac887dd59fc612d862995f8f971876c27c83906f670aa82194b6dd86f02206fc45ac6addf435aef0fadd5eea281421ac579aa9fb07d7178b1ff19dba7255c01210289b339f8a3b501316d8ac4fb3293815f15c5a4719e2ca93df564856e6f5745e9ffffffff020000000000000000536a4c50000077c90001db65804adc182e8cd795d1175b23cc0f42c2fc38c5e5bf9ae76da98a211a634654a82f0f016ba6b57aabdf94f9705baa13ce0612e741fbc5b96f1d100759d4ba30d2c37bb011d97e02cf38be0900000000001976a914532d31b9dd1856dc01d7123362ea629f4850a79e88ac00000000", "vin": [{"sequence": 4294967295, "scriptSig": {"hex": "4830450221009cf586aac887dd59fc612d862995f8f971876c27c83906f670aa82194b6dd86f02206fc45ac6addf435aef0fadd5eea281421ac579aa9fb07d7178b1ff19dba7255c01210289b339f8a3b501316d8ac4fb3293815f15c5a4719e2ca93df564856e6f5745e9", "asm": "30450221009cf586aac887dd59fc612d862995f8f971876c27c83906f670aa82194b6dd86f02206fc45ac6addf435aef0fadd5eea281421ac579aa9fb07d7178b1ff19dba7255c[ALL] 0289b339f8a3b501316d8ac4fb3293815f15c5a4719e2ca93df564856e6f5745e9"}, "vout": 0, "txid": "ed91e5e84a0e1564c3b971c0bec6672da40f8a33d97706dd774617298d134848"}], "txid": "9fcf6413f7a4589ce79600f9f1d20f5ef339dfe5d0c6c1bcbc7773f349827c2b", "blocktime": 1537873282, "version": 1, "confirmations": 11484, "time": 1537873282, "locktime": 0, "vsize": 284, "size": 284}