{"hash": "9fd1963f6ad616b61fa53474d81968d15c642b3ed3c75f7024159968ecc0d51a", "blockhash": "0000000000000000000e13cef7c366c0283d82e591d1acd082e914b08063cdf1", "vout": [{"scriptPubKey": {"reqSigs": 1, "hex": "a914a749fdf2e0cbc8d77b7013dd7d8d6aa2a156463c87", "addresses": ["3GwZQdf83qYAzBjZBTDonGmzUsbHsEbiHa"], "asm": "OP_HASH160 a749fdf2e0cbc8d77b7013dd7d8d6aa2a156463c OP_EQUAL", "type": "scripthash"}, "value": 0.008884, "n": 0}, {"scriptPubKey": {"reqSigs": 1, "hex": "76a914e574b67cf3596f641e0b000a7961abf3aa4fdb5e88ac", "addresses": ["1MvFZHE3gULWL8HtKAdSQVpQatNVAWgwin"], "asm": "OP_DUP OP_HASH160 e574b67cf3596f641e0b000a7961abf3aa4fdb5e OP_EQUALVERIFY OP_CHECKSIG", "type": "pubkeyhash"}, "value": 0.23127242, "n": 1}], "hex": "01000000018f7872766cb08fbb2637c3998c1198a50cf409acabd15cf085467f90d743f4e2010000006b483045022100db3f7d7fd5803e8c93f1e0ef89dd2abb994e630543cea40da24f37b60c75710b02206688a16e0d59b20886e03be8db10cf10687a2f8dec804a1730c321bd57d2b2780121024e44557f95b78682855d55daa0378318089bb21ffb5e581e6162d4fa10304496ffffffff02508e0d000000000017a914a749fdf2e0cbc8d77b7013dd7d8d6aa2a156463c87cae46001000000001976a914e574b67cf3596f641e0b000a7961abf3aa4fdb5e88ac00000000", "vin": [{"sequence": 4294967295, "scriptSig": {"hex": "483045022100db3f7d7fd5803e8c93f1e0ef89dd2abb994e630543cea40da24f37b60c75710b02206688a16e0d59b20886e03be8db10cf10687a2f8dec804a1730c321bd57d2b2780121024e44557f95b78682855d55daa0378318089bb21ffb5e581e6162d4fa10304496", "asm": "3045022100db3f7d7fd5803e8c93f1e0ef89dd2abb994e630543cea40da24f37b60c75710b02206688a16e0d59b20886e03be8db10cf10687a2f8dec804a1730c321bd57d2b278[ALL] 024e44557f95b78682855d55daa0378318089bb21ffb5e581e6162d4fa10304496"}, "vout": 1, "txid": "e2f443d7907f4685f05cd1abac09f40ca598118c99c33726bb8fb06c7672788f"}], "txid": "9fd1963f6ad616b61fa53474d81968d15c642b3ed3c75f7024159968ecc0d51a", "blocktime": 1537871767, "version": 1, "confirmations": 11495, "time": 1537871767, "locktime": 0, "vsize": 224, "size": 224}