{"hash": "9fd8712d20e660393fb2d5beb0e93b52f7809de476fb225299c89476ad066661", "blockhash": "00000000000000000017f5eb5941039fbcee6240d03bc1f2f8e35350df66a1d8", "vout": [{"scriptPubKey": {"reqSigs": 1, "hex": "76a914f0ff4b74a5b18fd3625852a48449bb83c5a7c57f88ac", "addresses": ["1NyH1EJjFQvgZSyfy2VCuyqjFrdYKJ7YLW"], "asm": "OP_DUP OP_HASH160 f0ff4b74a5b18fd3625852a48449bb83c5a7c57f OP_EQUALVERIFY OP_CHECKSIG", "type": "pubkeyhash"}, "value": 0.0007, "n": 0}, {"scriptPubKey": {"reqSigs": 1, "hex": "76a914309e4db914b20d22bc2753068203b4bf7363a3ea88ac", "addresses": ["15S55LSaEfmVvJSrPKksJNzbw23md74jF7"], "asm": "OP_DUP OP_HASH160 309e4db914b20d22bc2753068203b4bf7363a3ea OP_EQUALVERIFY OP_CHECKSIG", "type": "pubkeyhash"}, "value": 4.423e-05, "n": 1}], "hex": "0100000001462a31cb1a26c395baef886b8368d82675b3badd7ef66901eb70d125cc43db28010000006b483045022100c542dc5a3b76ee8e4358158c326bc9e63408bdd24536563ad3af37963d9cea0602200f3b48bdbd7b594be130e10e07b2c94af10d5ff598045c5b1f1b3dc940604a29012103ce638b3f592759ffef7a9d76e54e68362536c0a40aec4fc34d076bec1dc78199ffffffff0270110100000000001976a914f0ff4b74a5b18fd3625852a48449bb83c5a7c57f88ac47110000000000001976a914309e4db914b20d22bc2753068203b4bf7363a3ea88ac00000000", "vin": [{"sequence": 4294967295, "scriptSig": {"hex": "483045022100c542dc5a3b76ee8e4358158c326bc9e63408bdd24536563ad3af37963d9cea0602200f3b48bdbd7b594be130e10e07b2c94af10d5ff598045c5b1f1b3dc940604a29012103ce638b3f592759ffef7a9d76e54e68362536c0a40aec4fc34d076bec1dc78199", "asm": "3045022100c542dc5a3b76ee8e4358158c326bc9e63408bdd24536563ad3af37963d9cea0602200f3b48bdbd7b594be130e10e07b2c94af10d5ff598045c5b1f1b3dc940604a29[ALL] 03ce638b3f592759ffef7a9d76e54e68362536c0a40aec4fc34d076bec1dc78199"}, "vout": 1, "txid": "28db43cc25d170eb0169f67eddbab37526d868836b88efba95c3261acb312a46"}], "txid": "9fd8712d20e660393fb2d5beb0e93b52f7809de476fb225299c89476ad066661", "blocktime": 1537874412, "version": 1, "confirmations": 11466, "time": 1537874412, "locktime": 0, "vsize": 226, "size": 226}