{"hash": "9fd99b72d1a07bcd9944c259100f02810c078296eddcbb2d8907c439d1981825", "blockhash": "00000000000000000017f5eb5941039fbcee6240d03bc1f2f8e35350df66a1d8", "vout": [{"scriptPubKey": {"reqSigs": 1, "hex": "76a91410003b003809c7b475682ed51ed0867196eda94188ac", "addresses": ["12Tc65oS5pZnCTp3fzi4ZgSztMWMp7H6w2"], "asm": "OP_DUP OP_HASH160 10003b003809c7b475682ed51ed0867196eda941 OP_EQUALVERIFY OP_CHECKSIG", "type": "pubkeyhash"}, "value": 0.00010479, "n": 0}, {"scriptPubKey": {"reqSigs": 1, "hex": "76a914211d84712e9c21917e113e49ad15c2dfb5a4ba0e88ac", "addresses": ["1426fETNVuPCwLSWipVZEripSMWCnH8iuc"], "asm": "OP_DUP OP_HASH160 211d84712e9c21917e113e49ad15c2dfb5a4ba0e OP_EQUALVERIFY OP_CHECKSIG", "type": "pubkeyhash"}, "value": 0.00829268, "n": 1}], "hex": "01000000013f843fb2b1d448c7bb16871a2433aac43f60e4d7781475f23740d16252b419de010000006b483045022100aa1dac496f6acb3353feafb50a5f414e00fc4d222f23bc4b7a245cd9220cd47a02204187e16471fef551a056a0cdc39d4b1f555948fe1ebe36edd23ba875d50053c0012102e6d36f274028284e7b7e795f172a3e49147bebf8781a16e451be0d7dd57a4688ffffffff02ef280000000000001976a91410003b003809c7b475682ed51ed0867196eda94188ac54a70c00000000001976a914211d84712e9c21917e113e49ad15c2dfb5a4ba0e88ac00000000", "vin": [{"sequence": 4294967295, "scriptSig": {"hex": "483045022100aa1dac496f6acb3353feafb50a5f414e00fc4d222f23bc4b7a245cd9220cd47a02204187e16471fef551a056a0cdc39d4b1f555948fe1ebe36edd23ba875d50053c0012102e6d36f274028284e7b7e795f172a3e49147bebf8781a16e451be0d7dd57a4688", "asm": "3045022100aa1dac496f6acb3353feafb50a5f414e00fc4d222f23bc4b7a245cd9220cd47a02204187e16471fef551a056a0cdc39d4b1f555948fe1ebe36edd23ba875d50053c0[ALL] 02e6d36f274028284e7b7e795f172a3e49147bebf8781a16e451be0d7dd57a4688"}, "vout": 1, "txid": "de19b45262d14037f2751478d7e4603fc4aa33241a8716bbc748d4b1b23f843f"}], "txid": "9fd99b72d1a07bcd9944c259100f02810c078296eddcbb2d8907c439d1981825", "blocktime": 1537874412, "version": 1, "confirmations": 11468, "time": 1537874412, "locktime": 0, "vsize": 226, "size": 226}