{"hash": "9fdf459188d316d5627f725179c06b79fee87df7e406d2727309a3500d2950b1", "blockhash": "0000000000000000001e0dab787dd257d1dbfcb92a98c2207d5e1078be1f4165", "vout": [{"scriptPubKey": {"reqSigs": 1, "hex": "76a9141b90e9244bdadfde893dbcd285c045106a6240e388ac", "addresses": ["13WkqkcyJbSpsXXUQg8MPnM1FM8FZX7ooV"], "asm": "OP_DUP OP_HASH160 1b90e9244bdadfde893dbcd285c045106a6240e3 OP_EQUALVERIFY OP_CHECKSIG", "type": "pubkeyhash"}, "value": 0.0064282, "n": 0}, {"scriptPubKey": {"type": "nulldata", "hex": "6a4c50000077b90001d6d5c92c0fd00b78d3393bafe5bf9ae76da98a211aaf6c953dd567cf27e73c0877eeca33786294573d0bc4a4cecf5baa11f506127da7d21178371d100759d4ba30d2c37bb011d97e02cf", "asm": "OP_RETURN 000077b90001d6d5c92c0fd00b78d3393bafe5bf9ae76da98a211aaf6c953dd567cf27e73c0877eeca33786294573d0bc4a4cecf5baa11f506127da7d21178371d100759d4ba30d2c37bb011d97e02cf"}, "value": 0.0, "n": 1}], "hex": "01000000013073a8afddfea27a784c3c1acb3228dfb3dce75cdefb6482962174658a3e9320000000006a47304402203f064f14bb9f7a0a8e1e62c6960cf1a26747ae4a235113ac550ac5e0025b021602201bb7222a5fae72b8410255097a2c412d5ed076bedd1138c5a8a3dcf8473db109012103da63a172ca58eecede523945b93fe43e73974e14a844f0fac5f0544da74b51f5ffffffff0204cf0900000000001976a9141b90e9244bdadfde893dbcd285c045106a6240e388ac0000000000000000536a4c50000077b90001d6d5c92c0fd00b78d3393bafe5bf9ae76da98a211aaf6c953dd567cf27e73c0877eeca33786294573d0bc4a4cecf5baa11f506127da7d21178371d100759d4ba30d2c37bb011d97e02cf00000000", "vin": [{"sequence": 4294967295, "scriptSig": {"hex": "47304402203f064f14bb9f7a0a8e1e62c6960cf1a26747ae4a235113ac550ac5e0025b021602201bb7222a5fae72b8410255097a2c412d5ed076bedd1138c5a8a3dcf8473db109012103da63a172ca58eecede523945b93fe43e73974e14a844f0fac5f0544da74b51f5", "asm": "304402203f064f14bb9f7a0a8e1e62c6960cf1a26747ae4a235113ac550ac5e0025b021602201bb7222a5fae72b8410255097a2c412d5ed076bedd1138c5a8a3dcf8473db109[ALL] 03da63a172ca58eecede523945b93fe43e73974e14a844f0fac5f0544da74b51f5"}, "vout": 0, "txid": "20933e8a657421968264fbde5ce7dcb3df2832cb1a3c4c787aa2feddafa87330"}], "txid": "9fdf459188d316d5627f725179c06b79fee87df7e406d2727309a3500d2950b1", "blocktime": 1537872475, "version": 1, "confirmations": 11486, "time": 1537872475, "locktime": 0, "vsize": 283, "size": 283}