{"hash": "9fe3e9b4424ce553290f6a4789882b388ca5a440681aba8edaf1f6d09283baae", "blockhash": "0000000000000000001e0dab787dd257d1dbfcb92a98c2207d5e1078be1f4165", "vout": [{"scriptPubKey": {"type": "nulldata", "hex": "6a4c50000077b00001f2289f724a7e0bbbfb737760af6c953dd567cf27e7e3ef3236678a6250979402b35ca0835fc3b2e4fcfe24b3cddc5baa11790611b99a0107d7ec1d100759d4ba30d2c37bb011d97e02cf", "asm": "OP_RETURN 000077b00001f2289f724a7e0bbbfb737760af6c953dd567cf27e7e3ef3236678a6250979402b35ca0835fc3b2e4fcfe24b3cddc5baa11790611b99a0107d7ec1d100759d4ba30d2c37bb011d97e02cf"}, "value": 0.0, "n": 0}, {"scriptPubKey": {"reqSigs": 1, "hex": "76a9149273f45dce187a8bdd4ee31f53d3832d237b1cfc88ac", "addresses": ["1EMNZfvSjpvfHe6HY3XwDsA76vvojk9by8"], "asm": "OP_DUP OP_HASH160 9273f45dce187a8bdd4ee31f53d3832d237b1cfc OP_EQUALVERIFY OP_CHECKSIG", "type": "pubkeyhash"}, "value": 0.00647145, "n": 1}], "hex": "010000000190f806dd3ec2dab9f83f642d96625395a0f8d70e615f09b390879325a49cbe23010000006b483045022100bc8275f504570057be494b9c071a59594de3c5ab0f2cd71b39b040123f22c8c502201bf6edc2e82522627ed2b2201f2efd1852a21229ebd5a7a391b0dad5711e35e5012103f71bf15439a25dfeb654e566958538566724c41df6b6440643a41a641cf2a844ffffffff020000000000000000536a4c50000077b00001f2289f724a7e0bbbfb737760af6c953dd567cf27e7e3ef3236678a6250979402b35ca0835fc3b2e4fcfe24b3cddc5baa11790611b99a0107d7ec1d100759d4ba30d2c37bb011d97e02cfe9df0900000000001976a9149273f45dce187a8bdd4ee31f53d3832d237b1cfc88ac00000000", "vin": [{"sequence": 4294967295, "scriptSig": {"hex": "483045022100bc8275f504570057be494b9c071a59594de3c5ab0f2cd71b39b040123f22c8c502201bf6edc2e82522627ed2b2201f2efd1852a21229ebd5a7a391b0dad5711e35e5012103f71bf15439a25dfeb654e566958538566724c41df6b6440643a41a641cf2a844", "asm": "3045022100bc8275f504570057be494b9c071a59594de3c5ab0f2cd71b39b040123f22c8c502201bf6edc2e82522627ed2b2201f2efd1852a21229ebd5a7a391b0dad5711e35e5[ALL] 03f71bf15439a25dfeb654e566958538566724c41df6b6440643a41a641cf2a844"}, "vout": 1, "txid": "23be9ca425938790b3095f610ed7f8a0955362962d643ff8b9dac23edd06f890"}], "txid": "9fe3e9b4424ce553290f6a4789882b388ca5a440681aba8edaf1f6d09283baae", "blocktime": 1537872475, "version": 1, "confirmations": 11486, "time": 1537872475, "locktime": 0, "vsize": 284, "size": 284}