{"hash": "c2119ad1bd26b0153c9998fdee776ed9408caca835149c5900dc4ad09e505889", "blockhash": "0000000000000000001cda96e906b7601b7a6fb1a3b62bca570a9e5d8f4b3de1", "vout": [{"scriptPubKey": {"reqSigs": 1, "hex": "a914f48f25bd072845e1af410b5266f6c0e10f77258f87", "addresses": ["3Pz8HQZzqfhKKg2dTdNBR4fmMYqRmHmrHV"], "asm": "OP_HASH160 f48f25bd072845e1af410b5266f6c0e10f77258f OP_EQUAL", "type": "scripthash"}, "value": 0.0116174, "n": 0}, {"scriptPubKey": {"reqSigs": 1, "hex": "0014e333e5da58f59b9e60a33eabbc7997d3214c6141", "addresses": ["bc1quve7tkjc7kdeuc9r864mc7vh6vs5cc2p6zmeeg"], "asm": "0 e333e5da58f59b9e60a33eabbc7997d3214c6141", "type": "witness_v0_keyhash"}, "value": 0.53589726, "n": 1}], "hex": "01000000000101872cb3809bcab728c5871890a9be84a5b66b80322a5b1865085e73abb54cf0a30100000017160014d6d03a4803eae9e9512ac2e829f055b62944b08fffffffff020cba11000000000017a914f48f25bd072845e1af410b5266f6c0e10f77258f87deb6310300000000160014e333e5da58f59b9e60a33eabbc7997d3214c614102483045022100cb3dae5e4f3fa0a1e68ef884e2168d872f373bdd5312490fef6f131500d3a94e02201c9691e1b8cb16779a0a456bb836c343dbfe917a58c4034af27ce8e0b3dc596c0121037a5e73e97039423bc0cd9955004aa6f37b309f574a40834a2f4ce8afeeebe39500000000", "vin": [{"txinwitness": ["3045022100cb3dae5e4f3fa0a1e68ef884e2168d872f373bdd5312490fef6f131500d3a94e02201c9691e1b8cb16779a0a456bb836c343dbfe917a58c4034af27ce8e0b3dc596c01", "037a5e73e97039423bc0cd9955004aa6f37b309f574a40834a2f4ce8afeeebe395"], "sequence": 4294967295, "scriptSig": {"hex": "160014d6d03a4803eae9e9512ac2e829f055b62944b08f", "asm": "0014d6d03a4803eae9e9512ac2e829f055b62944b08f"}, "vout": 1, "txid": "a3f04cb5ab735e0865185b2a32806bb6a584bea9901887c528b7ca9b80b32c87"}], "txid": "9fe495b720f5386edb746026ef2f43c5564c2fbe97a5612714a36bb415c557d2", "blocktime": 1537873282, "version": 1, "confirmations": 11484, "time": 1537873282, "locktime": 0, "vsize": 165, "size": 247}