{"hash": "9fe6404cd399347262c41a45650ab714e7e28b0de1eac2977e568cded6795f61", "blockhash": "00000000000000000018f53835495a110e01622372bf6ae95dc86f2b0ab887b0", "vout": [{"scriptPubKey": {"type": "nulldata", "hex": "6a4c50000077880001b8a47c9880c65efa6e67733fbcbefa6b8351586b4e86aeaeacb577c031fc802d33e46e26b0999c6db454cec3cc255baa0bc006141f93731ddc680117e706f8a4c9d02528a348b20ac714", "asm": "OP_RETURN 000077880001b8a47c9880c65efa6e67733fbcbefa6b8351586b4e86aeaeacb577c031fc802d33e46e26b0999c6db454cec3cc255baa0bc006141f93731ddc680117e706f8a4c9d02528a348b20ac714"}, "value": 0.0, "n": 0}, {"scriptPubKey": {"reqSigs": 1, "hex": "76a9141962329da62c9025cd173dfbe25001e53e73617f88ac", "addresses": ["13KDXhBf5E5jhGoLKaWx1ennfmLjgKKawF"], "asm": "OP_DUP OP_HASH160 1962329da62c9025cd173dfbe25001e53e73617f OP_EQUALVERIFY OP_CHECKSIG", "type": "pubkeyhash"}, "value": 0.00011365, "n": 1}], "hex": "0100000001289f03b1fd396ed393919d8c903c576c9a472b7c89640d044a2801a6199d02b8010000006b483045022100d588a8592139bf7f1fe742954b3e93ffdc93b47a70d34ba846ecf0a3116c4a2202206b59e9bb0a7875b2c32aa5c735ec6ec24c1a121d731179bbd8b3ee26990c5932012103a542b2fcde01a3db8f6f2df92d03949520c423c0c08490372c35ca2ee75bc7e5ffffffff020000000000000000536a4c50000077880001b8a47c9880c65efa6e67733fbcbefa6b8351586b4e86aeaeacb577c031fc802d33e46e26b0999c6db454cec3cc255baa0bc006141f93731ddc680117e706f8a4c9d02528a348b20ac714652c0000000000001976a9141962329da62c9025cd173dfbe25001e53e73617f88ac00000000", "vin": [{"sequence": 4294967295, "scriptSig": {"hex": "483045022100d588a8592139bf7f1fe742954b3e93ffdc93b47a70d34ba846ecf0a3116c4a2202206b59e9bb0a7875b2c32aa5c735ec6ec24c1a121d731179bbd8b3ee26990c5932012103a542b2fcde01a3db8f6f2df92d03949520c423c0c08490372c35ca2ee75bc7e5", "asm": "3045022100d588a8592139bf7f1fe742954b3e93ffdc93b47a70d34ba846ecf0a3116c4a2202206b59e9bb0a7875b2c32aa5c735ec6ec24c1a121d731179bbd8b3ee26990c5932[ALL] 03a542b2fcde01a3db8f6f2df92d03949520c423c0c08490372c35ca2ee75bc7e5"}, "vout": 1, "txid": "b8029d19a601284a040d64897c2b479a6c573c908c9d9193d36e39fdb1039f28"}], "txid": "9fe6404cd399347262c41a45650ab714e7e28b0de1eac2977e568cded6795f61", "blocktime": 1537870928, "version": 1, "confirmations": 11512, "time": 1537870928, "locktime": 0, "vsize": 284, "size": 284}