{"hash": "9fe773e8bbd096c46573d88aeb08ce138bf61e6c7cd638a8393a336fcb977c6a", "blockhash": "0000000000000000000e13cef7c366c0283d82e591d1acd082e914b08063cdf1", "vout": [{"scriptPubKey": {"reqSigs": 1, "hex": "76a9140a3515851df85e994b7b7acf8521aec71ecc97b188ac", "addresses": ["1vyMGHqL3uNkCKC8a3fKvRCUDwiTo8uLF"], "asm": "OP_DUP OP_HASH160 0a3515851df85e994b7b7acf8521aec71ecc97b1 OP_EQUALVERIFY OP_CHECKSIG", "type": "pubkeyhash"}, "value": 22.65540358, "n": 0}, {"scriptPubKey": {"reqSigs": 1, "hex": "76a91446999a3085ddd3022e4be5660cc25b69db2b545a88ac", "addresses": ["17SJJuPVBTKCMkE7HcqMnD9cfj5T8rhf2U"], "asm": "OP_DUP OP_HASH160 46999a3085ddd3022e4be5660cc25b69db2b545a OP_EQUALVERIFY OP_CHECKSIG", "type": "pubkeyhash"}, "value": 2.138, "n": 1}], "hex": "0200000001356548c3cbf2fcbe56a6e51d583fb02b8454fc95553973111a1154c3447d60f3010000006a473044022049af9071ded26b89a076401a2d25907a573dfe7a9aaee27d9a24e41c3b2a289402202124ef191dd0d74ab5b8b805537f70633b378c141d2975530578471c8c5e367d012103dc0b3fcc63c4af4b647a3f386e566d523e679be1b37a1fc7773b504296d4958efeffffff0206670987000000001976a9140a3515851df85e994b7b7acf8521aec71ecc97b188ac4054be0c000000001976a91446999a3085ddd3022e4be5660cc25b69db2b545a88ac10490800", "vin": [{"sequence": 4294967294, "scriptSig": {"hex": "473044022049af9071ded26b89a076401a2d25907a573dfe7a9aaee27d9a24e41c3b2a289402202124ef191dd0d74ab5b8b805537f70633b378c141d2975530578471c8c5e367d012103dc0b3fcc63c4af4b647a3f386e566d523e679be1b37a1fc7773b504296d4958e", "asm": "3044022049af9071ded26b89a076401a2d25907a573dfe7a9aaee27d9a24e41c3b2a289402202124ef191dd0d74ab5b8b805537f70633b378c141d2975530578471c8c5e367d[ALL] 03dc0b3fcc63c4af4b647a3f386e566d523e679be1b37a1fc7773b504296d4958e"}, "vout": 1, "txid": "f3607d44c354111a1173395595fc54842bb03f581de5a656befcf2cbc3486535"}], "txid": "9fe773e8bbd096c46573d88aeb08ce138bf61e6c7cd638a8393a336fcb977c6a", "blocktime": 1537871767, "version": 2, "confirmations": 11490, "time": 1537871767, "locktime": 542992, "vsize": 225, "size": 225}