{"hash": "c65583fd42d7c18f4fdd759be5c2bdab7b8411250f93579337c4541dd50ddde7", "blockhash": "0000000000000000000baef3f32e3676a92c3b2e5da21b426e4f302fc371ce76", "vout": [{"scriptPubKey": {"reqSigs": 1, "hex": "a914c8948f84ab8bc2187580e4fb86ecf2a0a06e11cf87", "addresses": ["3Kyb35jwJ7YCiAF7JRfW5VZdpyywKap5YB"], "asm": "OP_HASH160 c8948f84ab8bc2187580e4fb86ecf2a0a06e11cf OP_EQUAL", "type": "scripthash"}, "value": 1.959e-05, "n": 0}, {"scriptPubKey": {"reqSigs": 1, "hex": "a9148ddb66c3371910a0ef8f38021cc4094e61e69f3a87", "addresses": ["3Ed62sPENkraPwpovPty9YMFGJ8FtTyv63"], "asm": "OP_HASH160 8ddb66c3371910a0ef8f38021cc4094e61e69f3a OP_EQUAL", "type": "scripthash"}, "value": 0.02297993, "n": 1}], "hex": "010000000001015cbd4d4f3441ca6998d85b0960a2eea8a7958897946001ab72675a5926126bae0100000023220020fdd23d707f55451c4e006c77b5e8df35a185a8e99f9bda70bf0ded7913bb1eb3ffffffff02a70700000000000017a914c8948f84ab8bc2187580e4fb86ecf2a0a06e11cf87891023000000000017a9148ddb66c3371910a0ef8f38021cc4094e61e69f3a8704004730440220680c4f174c058028b6605e9ab932079d5bedcf8e22bfe9a99776c5eea1385e4e022028960fe99a443e1907afe97255deac15684b4c79a49568297912a543ef99eca20147304402202a00bee4410c98e4c242757a9bc028b7f6435de64f3cd0606f8cf8af1f31f2ed02200f66a5267d618d6ece5319d01da42cd40e2083f889219966cff65f707ed5f9e6014752210286c104577b978160849865bc23f9a6df9b53d41c8ffb486754b97b2a474a181c2103148c80a5bdfddb05ff5bcffc397c8ca748d8b435ec6a175bc9d7bfc7fc6f853752ae00000000", "vin": [{"txinwitness": ["", "30440220680c4f174c058028b6605e9ab932079d5bedcf8e22bfe9a99776c5eea1385e4e022028960fe99a443e1907afe97255deac15684b4c79a49568297912a543ef99eca201", "304402202a00bee4410c98e4c242757a9bc028b7f6435de64f3cd0606f8cf8af1f31f2ed02200f66a5267d618d6ece5319d01da42cd40e2083f889219966cff65f707ed5f9e601", "52210286c104577b978160849865bc23f9a6df9b53d41c8ffb486754b97b2a474a181c2103148c80a5bdfddb05ff5bcffc397c8ca748d8b435ec6a175bc9d7bfc7fc6f853752ae"], "sequence": 4294967295, "scriptSig": {"hex": "220020fdd23d707f55451c4e006c77b5e8df35a185a8e99f9bda70bf0ded7913bb1eb3", "asm": "0020fdd23d707f55451c4e006c77b5e8df35a185a8e99f9bda70bf0ded7913bb1eb3"}, "vout": 1, "txid": "ae6b1226595a6772ab016094978895a7a8eea260095bd89869ca41344f4dbd5c"}], "txid": "9fe9e9251ea3076253f2d81781ecadacad25bf18937a3083334f9b6fc1e8202f", "blocktime": 1537876114, "version": 1, "confirmations": 11460, "time": 1537876114, "locktime": 0, "vsize": 205, "size": 370}