{"hash": "a00146a7ace6b6987fa925bc1afb9df550286b4c1b9327ca16903c72900fc93a", "blockhash": "00000000000000000024a2167bbff67b0be802c0b01cdd79e6331c2be6459f87", "vout": [{"scriptPubKey": {"reqSigs": 1, "hex": "a914167cd682097aeff0952e789ba4580359517b1ac287", "addresses": ["33jvLewHw4QJ2TydBxdsMzepkVCuCqEBzZ"], "asm": "OP_HASH160 167cd682097aeff0952e789ba4580359517b1ac2 OP_EQUAL", "type": "scripthash"}, "value": 7.78e-06, "n": 0}, {"scriptPubKey": {"reqSigs": 1, "hex": "76a9143a8c197f6d6e192aea8236128498096146dd776388ac", "addresses": ["16La2RC2RQguiRu9Yg1mCpopGect3GtGML"], "asm": "OP_DUP OP_HASH160 3a8c197f6d6e192aea8236128498096146dd7763 OP_EQUALVERIFY OP_CHECKSIG", "type": "pubkeyhash"}, "value": 0.0072691, "n": 1}], "hex": "010000000103618559a4052b4fca3fa6c1d85165acd17c6262208388cdf56ead0f3cef22cc010000006b48304502210087505fdb8a55618d7d3e24168008917d713500e4721b41e23abf08c378fbfe3e02205f4268c27ea170cf522e408a30addc1cef34a5ec44a48b829a175cad2d2e5a1b0121030a52cfdd011f611c48950c938df87a1d372581810f0c0bdddcabcfb01263121fffffffff020a0300000000000017a914167cd682097aeff0952e789ba4580359517b1ac2877e170b00000000001976a9143a8c197f6d6e192aea8236128498096146dd776388ac00000000", "vin": [{"sequence": 4294967295, "scriptSig": {"hex": "48304502210087505fdb8a55618d7d3e24168008917d713500e4721b41e23abf08c378fbfe3e02205f4268c27ea170cf522e408a30addc1cef34a5ec44a48b829a175cad2d2e5a1b0121030a52cfdd011f611c48950c938df87a1d372581810f0c0bdddcabcfb01263121f", "asm": "304502210087505fdb8a55618d7d3e24168008917d713500e4721b41e23abf08c378fbfe3e02205f4268c27ea170cf522e408a30addc1cef34a5ec44a48b829a175cad2d2e5a1b[ALL] 030a52cfdd011f611c48950c938df87a1d372581810f0c0bdddcabcfb01263121f"}, "vout": 1, "txid": "cc22ef3c0fad6ef5cd88832062627cd1ac6551d8c1a63fca4f2b05a459856103"}], "txid": "a00146a7ace6b6987fa925bc1afb9df550286b4c1b9327ca16903c72900fc93a", "blocktime": 1537870564, "version": 1, "confirmations": 11515, "time": 1537870564, "locktime": 0, "vsize": 224, "size": 224}