{"hash": "31f4e13d492b7f6edc7415d57cd5e894d8fe3ba725b36a0afcfdd31c25d8f0ec", "blockhash": "00000000000000000024a2167bbff67b0be802c0b01cdd79e6331c2be6459f87", "vout": [{"scriptPubKey": {"reqSigs": 1, "hex": "76a914386d7efe03a30c469fdd39712f8bea44627cbef188ac", "addresses": ["169N1fRCtvzzDakM8Pg21fuZSyZvXk43XT"], "asm": "OP_DUP OP_HASH160 386d7efe03a30c469fdd39712f8bea44627cbef1 OP_EQUALVERIFY OP_CHECKSIG", "type": "pubkeyhash"}, "value": 0.01558405, "n": 0}], "hex": "01000000000101bb4dd4f84dd7dfe8d4c9178f011c7bcd896708ca12b4d6ccb1de703600ce8b690000000017160014b88e5f2fe8a82eef6d6d50934ccd8de77e447891ffffffff0185c71700000000001976a914386d7efe03a30c469fdd39712f8bea44627cbef188ac02483045022100bc505cbc0909626ab39b0843b551bf9e4c030cbb1bbf72de5347a5f6345b3ca502204f5e87ce01c604aee4f39e6e1fa24492db62d664bdbb09fb18cea1060142d9e00121038167570b40350d625360d9efd55a100359d6c3f90d132056cd6f7496a9f8d17d00000000", "vin": [{"txinwitness": ["3045022100bc505cbc0909626ab39b0843b551bf9e4c030cbb1bbf72de5347a5f6345b3ca502204f5e87ce01c604aee4f39e6e1fa24492db62d664bdbb09fb18cea1060142d9e001", "038167570b40350d625360d9efd55a100359d6c3f90d132056cd6f7496a9f8d17d"], "sequence": 4294967295, "scriptSig": {"hex": "160014b88e5f2fe8a82eef6d6d50934ccd8de77e447891", "asm": "0014b88e5f2fe8a82eef6d6d50934ccd8de77e447891"}, "vout": 0, "txid": "698bce003670deb1ccd6b412ca086789cd7b1c018f17c9d4e8dfd74df8d44dbb"}], "txid": "a00bd5c0bf778e2cb3cfc3e7564f1828f440456e0114635709383d900b0ef84f", "blocktime": 1537870564, "version": 1, "confirmations": 11515, "time": 1537870564, "locktime": 0, "vsize": 136, "size": 218}