{"hash": "3a4c500ebd22eab84d7aa5acfc26e0afb20241ff58546d43bb41c2a958200034", "blockhash": "0000000000000000000e13cef7c366c0283d82e591d1acd082e914b08063cdf1", "vout": [{"scriptPubKey": {"reqSigs": 1, "hex": "76a914b6c61b4f4239d5aacdd93f536cfcc7f179fa819088ac", "addresses": ["1HfRJcB5gmpPNhaMpabN8sCc5ZECpDLK4F"], "asm": "OP_DUP OP_HASH160 b6c61b4f4239d5aacdd93f536cfcc7f179fa8190 OP_EQUALVERIFY OP_CHECKSIG", "type": "pubkeyhash"}, "value": 0.00209996, "n": 0}, {"scriptPubKey": {"reqSigs": 1, "hex": "a914412a5a9d44d5834123b7756088f409b7b3a36da687", "addresses": ["37daapNiiDgPEaARWMQCfhGXJo4yF1nTaW"], "asm": "OP_HASH160 412a5a9d44d5834123b7756088f409b7b3a36da6 OP_EQUAL", "type": "scripthash"}, "value": 0.02621182, "n": 1}], "hex": "010000000001011e597be9f66b5b24be88370b9a4ff70ed28c377ab72c77d0e6200fabf994d060010000002322002083f5850b1b9ae687f7cf8d5c77fefcbd87cde420155cd43c20d50f5f293b7ed6ffffffff024c340300000000001976a914b6c61b4f4239d5aacdd93f536cfcc7f179fa819088acfefe27000000000017a914412a5a9d44d5834123b7756088f409b7b3a36da6870400483045022100c2cadc6e116f90a0899add0536b214f138d956b2b47feb1014465df2ebb2891f02200a1299baf3f173013af16df828ab92bb63e560d7001d49f4422ee472a076f7840147304402206b985975b3db4f65034c94d29dcf38fa5e566ba22022a935e826d59cdcc751d9022074bdca4f3ac0cb46914cf7bf867a2b965100c64f2c91dbe7d01bd08b90e5181d01475221020511070566b8412d1941b8dc0ded10caa6a6915b609dfa65bb8111255071d3a22103871fc2ca08e6950b38867e8e6a0e94ee625223d3aa0df5c65f414c6d784467e252ae00000000", "vin": [{"txinwitness": ["", "3045022100c2cadc6e116f90a0899add0536b214f138d956b2b47feb1014465df2ebb2891f02200a1299baf3f173013af16df828ab92bb63e560d7001d49f4422ee472a076f78401", "304402206b985975b3db4f65034c94d29dcf38fa5e566ba22022a935e826d59cdcc751d9022074bdca4f3ac0cb46914cf7bf867a2b965100c64f2c91dbe7d01bd08b90e5181d01", "5221020511070566b8412d1941b8dc0ded10caa6a6915b609dfa65bb8111255071d3a22103871fc2ca08e6950b38867e8e6a0e94ee625223d3aa0df5c65f414c6d784467e252ae"], "sequence": 4294967295, "scriptSig": {"hex": "22002083f5850b1b9ae687f7cf8d5c77fefcbd87cde420155cd43c20d50f5f293b7ed6", "asm": "002083f5850b1b9ae687f7cf8d5c77fefcbd87cde420155cd43c20d50f5f293b7ed6"}, "vout": 1, "txid": "60d094f9ab0f20e6d0772cb77a378cd20ef74f9a0b3788be245b6bf6e97b591e"}], "txid": "a00f9141e6c6373db73efb97af437bde88f1dfc7d36427786776915b519dfb8a", "blocktime": 1537871767, "version": 1, "confirmations": 11495, "time": 1537871767, "locktime": 0, "vsize": 208, "size": 373}