{"hash": "a010c310500a64588ab39ac31d8765c237cd2abedfc8a33d99c98c1607b510be", "blockhash": "0000000000000000001cda96e906b7601b7a6fb1a3b62bca570a9e5d8f4b3de1", "vout": [{"scriptPubKey": {"reqSigs": 1, "hex": "a914837aecd2401c18239fdac7309d466d8d321a6d1287", "addresses": ["3DgDhf7wFdc9B8AiBaHRXG64iZ7B32JEJo"], "asm": "OP_HASH160 837aecd2401c18239fdac7309d466d8d321a6d12 OP_EQUAL", "type": "scripthash"}, "value": 0.02389184, "n": 0}], "hex": "0100000001270e51b03f4f917c7629f35acb97eee829523a0fe2ae44c2c6f28034da965c47000000006a47304402201a5014af04f47f884c9c8a9eb893c2bc3b20214707b25364df0b99dbfbe56c94022057180d78959e8e618829659da3f045cde188a14976df4a8e465d8c82e351ae04012102ea8e894bcec74450e4732f29ff1abd5fb0698ee181b3f4b115e6552bbfa2e0c0ffffffff01c07424000000000017a914837aecd2401c18239fdac7309d466d8d321a6d128700000000", "vin": [{"sequence": 4294967295, "scriptSig": {"hex": "47304402201a5014af04f47f884c9c8a9eb893c2bc3b20214707b25364df0b99dbfbe56c94022057180d78959e8e618829659da3f045cde188a14976df4a8e465d8c82e351ae04012102ea8e894bcec74450e4732f29ff1abd5fb0698ee181b3f4b115e6552bbfa2e0c0", "asm": "304402201a5014af04f47f884c9c8a9eb893c2bc3b20214707b25364df0b99dbfbe56c94022057180d78959e8e618829659da3f045cde188a14976df4a8e465d8c82e351ae04[ALL] 02ea8e894bcec74450e4732f29ff1abd5fb0698ee181b3f4b115e6552bbfa2e0c0"}, "vout": 0, "txid": "475c96da3480f2c6c244aee20f3a5229e8ee97cb5af329767c914f3fb0510e27"}], "txid": "a010c310500a64588ab39ac31d8765c237cd2abedfc8a33d99c98c1607b510be", "blocktime": 1537873282, "version": 1, "confirmations": 11484, "time": 1537873282, "locktime": 0, "vsize": 189, "size": 189}