{"hash": "a0134dbc921c9970f8fe41e217cebec69f7ac28bad208f128c0d5418a07c229b", "blockhash": "0000000000000000000e13cef7c366c0283d82e591d1acd082e914b08063cdf1", "vout": [{"scriptPubKey": {"reqSigs": 1, "hex": "76a91489fdd18ff66c6273c59851f688bd02360fb1d96588ac", "addresses": ["1DadduaNqQmqYFDVmX58PXrb6KkexXSv2B"], "asm": "OP_DUP OP_HASH160 89fdd18ff66c6273c59851f688bd02360fb1d965 OP_EQUALVERIFY OP_CHECKSIG", "type": "pubkeyhash"}, "value": 0.00078177, "n": 0}, {"scriptPubKey": {"reqSigs": 1, "hex": "76a914a6d4a52af2d2ebbb0fbcaa5a4062ac5ac940f9ad88ac", "addresses": ["1GD7uh3d54uqMxQe1rori13cS1suxGnQVg"], "asm": "OP_DUP OP_HASH160 a6d4a52af2d2ebbb0fbcaa5a4062ac5ac940f9ad OP_EQUALVERIFY OP_CHECKSIG", "type": "pubkeyhash"}, "value": 0.4470795, "n": 1}], "hex": "0100000001c079546401d6718a52cb0515f550d86200ba12874a09d4970e6b6bb073841d58010000006b4830450221008c421de3589f7861d4a1cb6f6261a12782d593ba7baff27e1f1797646a3ddca302205fdf6a019d75bf330444ef4742919ea1337abf0572dd97be8cf96f642feb053b012102bb03d31b54fa67652e4c5c2359e7ccaf58a8dae21ce01e2f9cfc47c6d1d83225ffffffff0261310100000000001976a91489fdd18ff66c6273c59851f688bd02360fb1d96588ac6e30aa02000000001976a914a6d4a52af2d2ebbb0fbcaa5a4062ac5ac940f9ad88ac00000000", "vin": [{"sequence": 4294967295, "scriptSig": {"hex": "4830450221008c421de3589f7861d4a1cb6f6261a12782d593ba7baff27e1f1797646a3ddca302205fdf6a019d75bf330444ef4742919ea1337abf0572dd97be8cf96f642feb053b012102bb03d31b54fa67652e4c5c2359e7ccaf58a8dae21ce01e2f9cfc47c6d1d83225", "asm": "30450221008c421de3589f7861d4a1cb6f6261a12782d593ba7baff27e1f1797646a3ddca302205fdf6a019d75bf330444ef4742919ea1337abf0572dd97be8cf96f642feb053b[ALL] 02bb03d31b54fa67652e4c5c2359e7ccaf58a8dae21ce01e2f9cfc47c6d1d83225"}, "vout": 1, "txid": "581d8473b06b6b0e97d4094a8712ba0062d850f51505cb528a71d601645479c0"}], "txid": "a0134dbc921c9970f8fe41e217cebec69f7ac28bad208f128c0d5418a07c229b", "blocktime": 1537871767, "version": 1, "confirmations": 11495, "time": 1537871767, "locktime": 0, "vsize": 226, "size": 226}