{"hash": "a017aa992d0c41b181723224bc5923d5f226808c27605dc99cebe59cad878bbf", "blockhash": "00000000000000000004ffacab907a6b429b9a5745fa0b75af4234bf69dd7176", "vout": [{"scriptPubKey": {"reqSigs": 1, "hex": "76a9146239107908c2604f23f9c31268487ce9f92ee6f888ac", "addresses": ["19xMahapYw39tdUkTSkj2mLq7FpZW6nE6L"], "asm": "OP_DUP OP_HASH160 6239107908c2604f23f9c31268487ce9f92ee6f8 OP_EQUALVERIFY OP_CHECKSIG", "type": "pubkeyhash"}, "value": 0.00139854, "n": 0}, {"scriptPubKey": {"reqSigs": 1, "hex": "a91421469e11dd2da120ed93d8abcc04c3ebf461699487", "addresses": ["34ixpTi5JSgUswpjAaLDGvujEiXeCeGmcv"], "asm": "OP_HASH160 21469e11dd2da120ed93d8abcc04c3ebf4616994 OP_EQUAL", "type": "scripthash"}, "value": 0.28011059, "n": 1}], "hex": "01000000011835149944bc1b210d5bd94f5fc3dfee9a316c872028ed7b05d4c43ba1d00a70130000006a47304402207052f9744e43e8a4da6d475d84c7e5e86776f309b200472bd59aa4a731d6982302200fe028e40df97ed5b0b0ada969af0898d4db31576baa5545c295bef4e3821153012103dbb7bc094c18d2dd1d1d55284cdf7f2c76c49b60089122b69a4d0ab2cdcc6b96ffffffff024e220200000000001976a9146239107908c2604f23f9c31268487ce9f92ee6f888ac336aab010000000017a91421469e11dd2da120ed93d8abcc04c3ebf46169948700000000", "vin": [{"sequence": 4294967295, "scriptSig": {"hex": "47304402207052f9744e43e8a4da6d475d84c7e5e86776f309b200472bd59aa4a731d6982302200fe028e40df97ed5b0b0ada969af0898d4db31576baa5545c295bef4e3821153012103dbb7bc094c18d2dd1d1d55284cdf7f2c76c49b60089122b69a4d0ab2cdcc6b96", "asm": "304402207052f9744e43e8a4da6d475d84c7e5e86776f309b200472bd59aa4a731d6982302200fe028e40df97ed5b0b0ada969af0898d4db31576baa5545c295bef4e3821153[ALL] 03dbb7bc094c18d2dd1d1d55284cdf7f2c76c49b60089122b69a4d0ab2cdcc6b96"}, "vout": 19, "txid": "700ad0a13bc4d4057bed2820876c319aeedfc35f4fd95b0d211bbc4499143518"}], "txid": "a017aa992d0c41b181723224bc5923d5f226808c27605dc99cebe59cad878bbf", "blocktime": 1537875543, "version": 1, "confirmations": 11464, "time": 1537875543, "locktime": 0, "vsize": 223, "size": 223}