{"hash": "ddc689e3d71d9344551ac7c7ca98bf3afe27d31f2de8d1383aca2c347c504089", "blockhash": "0000000000000000001f76057863aec43deb6fa401d9628bb513d65a8098bfab", "vout": [{"scriptPubKey": {"reqSigs": 1, "hex": "a914e66a5d5113f6a7d4d595d86ff2d963b2e963977287", "addresses": ["3NhLm11nZVKfnXDAxGArheZnTgUFUwkLyF"], "asm": "OP_HASH160 e66a5d5113f6a7d4d595d86ff2d963b2e9639772 OP_EQUAL", "type": "scripthash"}, "value": 0.0101868, "n": 0}, {"scriptPubKey": {"reqSigs": 1, "hex": "76a914f1eedb44830b3290348a2c9e2831f639bd1ac94188ac", "addresses": ["1P4DzGpJjFe4E9aHHDM3LomYCbjAZP7gja"], "asm": "OP_DUP OP_HASH160 f1eedb44830b3290348a2c9e2831f639bd1ac941 OP_EQUALVERIFY OP_CHECKSIG", "type": "pubkeyhash"}, "value": 0.0031106, "n": 1}], "hex": "020000000001024293a4a4c9750600ff480ca4bdd5a20eac1fae0fcc8fc0bf29f05ba3110ad97c1500000017160014077d624a0060a3ec70e6819774d0120caf05e9b1feffffffa7acca81a2a13194f674be999321576d5fb98ccd2d611e12e4d5360259d4e5e8010000001716001441307365da871aaabd5924e39119626cdf539eeafeffffff02388b0f000000000017a914e66a5d5113f6a7d4d595d86ff2d963b2e96397728714bf0400000000001976a914f1eedb44830b3290348a2c9e2831f639bd1ac94188ac024730440220669b859b66276311e248aa425fc844804f859c5215bcd86c18268ad9dd38a97402203e5e5e48d09a2a938a4aaf9508c5ae6e3316fd97a8b41e73882da9ed4a0400fd0121027bb9b3b9308edd9ab3f12fa9f3fdd465e154bdf2e1aaf3b3aea533c00ce99fa30248304502210093758b3c6a9aa97477e7caec5547aa06cc71afb538d90f7404cd887e6a31542f0220755e5d160ce2446d2d46361131f3d3bcc4df6a275752b2c881b55492372bf8ac0121021c53ea8f3bc2d1c7c35df6edb7399f72d261272cdec3ad138c0460c2688dc3d414490800", "vin": [{"txinwitness": ["30440220669b859b66276311e248aa425fc844804f859c5215bcd86c18268ad9dd38a97402203e5e5e48d09a2a938a4aaf9508c5ae6e3316fd97a8b41e73882da9ed4a0400fd01", "027bb9b3b9308edd9ab3f12fa9f3fdd465e154bdf2e1aaf3b3aea533c00ce99fa3"], "sequence": 4294967294, "scriptSig": {"hex": "160014077d624a0060a3ec70e6819774d0120caf05e9b1", "asm": "0014077d624a0060a3ec70e6819774d0120caf05e9b1"}, "vout": 21, "txid": "7cd90a11a35bf029bfc08fcc0fae1fac0ea2d5bda40c48ff000675c9a4a49342"}, {"txinwitness": ["304502210093758b3c6a9aa97477e7caec5547aa06cc71afb538d90f7404cd887e6a31542f0220755e5d160ce2446d2d46361131f3d3bcc4df6a275752b2c881b55492372bf8ac01", "021c53ea8f3bc2d1c7c35df6edb7399f72d261272cdec3ad138c0460c2688dc3d4"], "sequence": 4294967294, "scriptSig": {"hex": "16001441307365da871aaabd5924e39119626cdf539eea", "asm": "001441307365da871aaabd5924e39119626cdf539eea"}, "vout": 1, "txid": "e8e5d4590236d5e4121e612dcd8cb95f6d57219399be74f69431a1a281caaca7"}], "txid": "a0232c2365b0fc7f2655d63ff285ff9e0e007fc39959486a6683fef68f4c41c7", "blocktime": 1537873891, "version": 2, "confirmations": 11478, "time": 1537873891, "locktime": 542996, "vsize": 259, "size": 421}