{"hash": "a031d190cccf3d6e0c89bb07c8db55fcf7af61527d4b053e28d33838326baf3d", "blockhash": "0000000000000000001f76057863aec43deb6fa401d9628bb513d65a8098bfab", "vout": [{"scriptPubKey": {"type": "nulldata", "hex": "6a4c50000077dd0001df7f9b25c367783ad17e05127af8e8e963c7cfd5b95b23cc0f42c2fc38c574de08ad8eb88e5b1ec203ef39f6eff25baa161e06130a5f4f340673bc9a9526289ac0f6612cd74e33776ee4", "asm": "OP_RETURN 000077dd0001df7f9b25c367783ad17e05127af8e8e963c7cfd5b95b23cc0f42c2fc38c574de08ad8eb88e5b1ec203ef39f6eff25baa161e06130a5f4f340673bc9a9526289ac0f6612cd74e33776ee4"}, "value": 0.0, "n": 0}, {"scriptPubKey": {"reqSigs": 1, "hex": "76a914cbf6587d50628e7524a273eb40dff98878c5a35488ac", "addresses": ["1KbTHLcst37ZCvvMqpGSYGhHeaGrhrVBoY"], "asm": "OP_DUP OP_HASH160 cbf6587d50628e7524a273eb40dff98878c5a354 OP_EQUALVERIFY OP_CHECKSIG", "type": "pubkeyhash"}, "value": 0.00131364, "n": 1}], "hex": "01000000014011f2ecce6245a5e9e65d1e9cee79439165f3999be3d966396fae8d85369109000000006b483045022100e4706b9d0ebdc831681fe22b09ff44c58b76406570ff4318704cf4a8fcab07ee02206486bea4809fad9391161ca49ff1553ead5bb260a4571152ff18817c958f3b11012102e06c093c73aa5b3c915fc6659b6c0781a718a8b432985548bd74d144d3bf95feffffffff020000000000000000536a4c50000077dd0001df7f9b25c367783ad17e05127af8e8e963c7cfd5b95b23cc0f42c2fc38c574de08ad8eb88e5b1ec203ef39f6eff25baa161e06130a5f4f340673bc9a9526289ac0f6612cd74e33776ee424010200000000001976a914cbf6587d50628e7524a273eb40dff98878c5a35488ac00000000", "vin": [{"sequence": 4294967295, "scriptSig": {"hex": "483045022100e4706b9d0ebdc831681fe22b09ff44c58b76406570ff4318704cf4a8fcab07ee02206486bea4809fad9391161ca49ff1553ead5bb260a4571152ff18817c958f3b11012102e06c093c73aa5b3c915fc6659b6c0781a718a8b432985548bd74d144d3bf95fe", "asm": "3045022100e4706b9d0ebdc831681fe22b09ff44c58b76406570ff4318704cf4a8fcab07ee02206486bea4809fad9391161ca49ff1553ead5bb260a4571152ff18817c958f3b11[ALL] 02e06c093c73aa5b3c915fc6659b6c0781a718a8b432985548bd74d144d3bf95fe"}, "vout": 0, "txid": "099136858dae6f3966d9e39b99f365914379ee9c1e5de6e9a54562ceecf21140"}], "txid": "a031d190cccf3d6e0c89bb07c8db55fcf7af61527d4b053e28d33838326baf3d", "blocktime": 1537873891, "version": 1, "confirmations": 11478, "time": 1537873891, "locktime": 0, "vsize": 284, "size": 284}