{"hash": "d9426f8282cac4474311a28741eae49741e25b88dba3ebb9f2219088796a76bb", "blockhash": "0000000000000000000e13cef7c366c0283d82e591d1acd082e914b08063cdf1", "vout": [{"scriptPubKey": {"reqSigs": 1, "hex": "76a914f99a597268949c088558eee786e49260ea1ddae088ac", "addresses": ["1PknA9iPkjc6P6yFz1KsVHpaX9wSZ8AhWL"], "asm": "OP_DUP OP_HASH160 f99a597268949c088558eee786e49260ea1ddae0 OP_EQUALVERIFY OP_CHECKSIG", "type": "pubkeyhash"}, "value": 0.043255, "n": 0}, {"scriptPubKey": {"reqSigs": 1, "hex": "0014f45543eecd901f17de41c5c5215196e7bc005342", "addresses": ["bc1q73258mkdjq030hjpchzjz5vku77qq56zf5w438"], "asm": "0 f45543eecd901f17de41c5c5215196e7bc005342", "type": "witness_v0_keyhash"}, "value": 1.36325211, "n": 1}], "hex": "0100000000010199fb9b9872802863846656bb2e326d240d6795169e3fabaad2ba9e7c12e4d6200000000000ffffffff027c004200000000001976a914f99a597268949c088558eee786e49260ea1ddae088ac5b28200800000000160014f45543eecd901f17de41c5c5215196e7bc0053420247304402201bd2b2b16bbaff28dce9e903f7361d246d9d868edacb2521b917d82632efa4af02206833c197a5e1e1e6a442d2b6d0df193074ff0fe70701c24ac9531f4f74d84673012103bc19ba5a0758fb40c3bdc561a5e6c84bfaecf93cede7c7680e1757677c1483ad00000000", "vin": [{"txinwitness": ["304402201bd2b2b16bbaff28dce9e903f7361d246d9d868edacb2521b917d82632efa4af02206833c197a5e1e1e6a442d2b6d0df193074ff0fe70701c24ac9531f4f74d8467301", "03bc19ba5a0758fb40c3bdc561a5e6c84bfaecf93cede7c7680e1757677c1483ad"], "sequence": 4294967295, "scriptSig": {"hex": "", "asm": ""}, "vout": 0, "txid": "20d6e4127c9ebad2aaab3f9e1695670d246d322ebb56668463288072989bfb99"}], "txid": "a036109b481cf75be60253b55d6d5d28cae7284327f0a45f17ff2104a05f9ef8", "blocktime": 1537871767, "version": 1, "confirmations": 11495, "time": 1537871767, "locktime": 0, "vsize": 144, "size": 225}