{"hash": "a0379b5942d59f0a100a9dfd1065e8bf8e9239f46326f65ab318615d380b600f", "blockhash": "0000000000000000000e13cef7c366c0283d82e591d1acd082e914b08063cdf1", "vout": [{"scriptPubKey": {"reqSigs": 1, "hex": "a914222dbf46fb150d330bcd5f2d0d6712cb0783422987", "addresses": ["34ojhdpGighXL9PThn86wwEECni3c8WcjC"], "asm": "OP_HASH160 222dbf46fb150d330bcd5f2d0d6712cb07834229 OP_EQUAL", "type": "scripthash"}, "value": 0.0021346, "n": 0}, {"scriptPubKey": {"reqSigs": 1, "hex": "76a9144a76314a3fb92b06ad0ee51b9767180574de7e2588ac", "addresses": ["17nibMi6Tc8huM2r4SuRdVU1zHhLVPvRKF"], "asm": "OP_DUP OP_HASH160 4a76314a3fb92b06ad0ee51b9767180574de7e25 OP_EQUALVERIFY OP_CHECKSIG", "type": "pubkeyhash"}, "value": 0.01005668, "n": 1}], "hex": "010000000158df882c9114e22a74aa467b97ad2cde313622445f8b0a402dfbee5020729d69010000006b483045022100bd13391e65c4c176a5edae53d997385f585678db4bc88624d34c9a0e5d05ea770220060b3c58dc84174cd90c28abfa75528c5994087b93925799005ace2442a37fd601210244f6da788b488b87a58b04b61e1f9c691a102c8a6e9a319999cf7240e9488917ffffffff02d44103000000000017a914222dbf46fb150d330bcd5f2d0d6712cb078342298764580f00000000001976a9144a76314a3fb92b06ad0ee51b9767180574de7e2588ac00000000", "vin": [{"sequence": 4294967295, "scriptSig": {"hex": "483045022100bd13391e65c4c176a5edae53d997385f585678db4bc88624d34c9a0e5d05ea770220060b3c58dc84174cd90c28abfa75528c5994087b93925799005ace2442a37fd601210244f6da788b488b87a58b04b61e1f9c691a102c8a6e9a319999cf7240e9488917", "asm": "3045022100bd13391e65c4c176a5edae53d997385f585678db4bc88624d34c9a0e5d05ea770220060b3c58dc84174cd90c28abfa75528c5994087b93925799005ace2442a37fd6[ALL] 0244f6da788b488b87a58b04b61e1f9c691a102c8a6e9a319999cf7240e9488917"}, "vout": 1, "txid": "699d722050eefb2d400a8b5f44223631de2cad977b46aa742ae214912c88df58"}], "txid": "a0379b5942d59f0a100a9dfd1065e8bf8e9239f46326f65ab318615d380b600f", "blocktime": 1537871767, "version": 1, "confirmations": 11495, "time": 1537871767, "locktime": 0, "vsize": 224, "size": 224}