{"hash": "a03830a3c49f7c71a10c3c36476832b6c481273b5ffeb37de3f8da9b1282914b", "blockhash": "00000000000000000004ffacab907a6b429b9a5745fa0b75af4234bf69dd7176", "vout": [{"scriptPubKey": {"reqSigs": 1, "hex": "76a914cb5a223c951513800ca8e6f904925ae098e6f90588ac", "addresses": ["1KYE9YX2As5iACXRoxnqFG5ZsYcNK6UVhu"], "asm": "OP_DUP OP_HASH160 cb5a223c951513800ca8e6f904925ae098e6f905 OP_EQUALVERIFY OP_CHECKSIG", "type": "pubkeyhash"}, "value": 9.27494337, "n": 0}, {"scriptPubKey": {"reqSigs": 1, "hex": "76a9142145a764333e9b357aad4c83178582d6548ef3d488ac", "addresses": ["142vjy3i6bdzKRHCZV2soYQ6oBXwbDXR78"], "asm": "OP_DUP OP_HASH160 2145a764333e9b357aad4c83178582d6548ef3d4 OP_EQUALVERIFY OP_CHECKSIG", "type": "pubkeyhash"}, "value": 0.00781991, "n": 1}], "hex": "010000000102577bc6580d055d19eb6bf26d0afb6cd22c04e8c7b20993e2b2d91d673878e0000000006a4730440220577a856a42f6b100da6610fa4e68a36b50736b6e366c8c3a79e0c983a1249d0702200f5b176785305d1898bcd2cc64244691c714aa694139b4922c13c010445eae44012102e2f15e722e6b49fd5d30dc4bf79e60e7e8d77736d4147240ae7221fc243c7c3effffffff02c1704837000000001976a914cb5a223c951513800ca8e6f904925ae098e6f90588aca7ee0b00000000001976a9142145a764333e9b357aad4c83178582d6548ef3d488ac00000000", "vin": [{"sequence": 4294967295, "scriptSig": {"hex": "4730440220577a856a42f6b100da6610fa4e68a36b50736b6e366c8c3a79e0c983a1249d0702200f5b176785305d1898bcd2cc64244691c714aa694139b4922c13c010445eae44012102e2f15e722e6b49fd5d30dc4bf79e60e7e8d77736d4147240ae7221fc243c7c3e", "asm": "30440220577a856a42f6b100da6610fa4e68a36b50736b6e366c8c3a79e0c983a1249d0702200f5b176785305d1898bcd2cc64244691c714aa694139b4922c13c010445eae44[ALL] 02e2f15e722e6b49fd5d30dc4bf79e60e7e8d77736d4147240ae7221fc243c7c3e"}, "vout": 0, "txid": "e07838671dd9b2e29309b2c7e8042cd26cfb0a6df26beb195d050d58c67b5702"}], "txid": "a03830a3c49f7c71a10c3c36476832b6c481273b5ffeb37de3f8da9b1282914b", "blocktime": 1537875543, "version": 1, "confirmations": 11464, "time": 1537875543, "locktime": 0, "vsize": 225, "size": 225}