{"hash": "341d27fb9f8825753d3cf9935c9835cd560f263d3fc549aad63f37947b385edd", "blockhash": "0000000000000000001cda96e906b7601b7a6fb1a3b62bca570a9e5d8f4b3de1", "vout": [{"scriptPubKey": {"reqSigs": 1, "hex": "76a91479d52ed9997e36948964640b669f8a47f4edd86888ac", "addresses": ["1C7C9RjsphsTQLot18a3f1dF3mPHhRbgeh"], "asm": "OP_DUP OP_HASH160 79d52ed9997e36948964640b669f8a47f4edd868 OP_EQUALVERIFY OP_CHECKSIG", "type": "pubkeyhash"}, "value": 0.00075432, "n": 0}, {"scriptPubKey": {"reqSigs": 1, "hex": "0014805ff5e0e6fc7401db11f4fde8a294cda7b4254d", "addresses": ["bc1qsp0ltc8xl36qrkc37n773g55eknmgf2d5rn66u"], "asm": "0 805ff5e0e6fc7401db11f4fde8a294cda7b4254d", "type": "witness_v0_keyhash"}, "value": 1.098e-05, "n": 1}], "hex": "010000000001015474d8b5ad4038ceea56df0f10c189c96cf32f1faf7e0a9d2f04a2f18d06928b0000000017160014ddf53a3fe322ea104ea11445e7fb0e81691d312affffffff02a8260100000000001976a91479d52ed9997e36948964640b669f8a47f4edd86888ac4a04000000000000160014805ff5e0e6fc7401db11f4fde8a294cda7b4254d02483045022100984e4c28787315fcab633f945d4afda3f840bcb3e43bf2a15fe86489cf4ea60f022033c410978e67fb9c391eb9ab198e84c865c3ea5f0b11c9b46b32dc896eabba1b0121036218691e8eb42bfbe6adc7b464e93ae98bbb617ad6c65b309c9d07549da8566b00000000", "vin": [{"txinwitness": ["3045022100984e4c28787315fcab633f945d4afda3f840bcb3e43bf2a15fe86489cf4ea60f022033c410978e67fb9c391eb9ab198e84c865c3ea5f0b11c9b46b32dc896eabba1b01", "036218691e8eb42bfbe6adc7b464e93ae98bbb617ad6c65b309c9d07549da8566b"], "sequence": 4294967295, "scriptSig": {"hex": "160014ddf53a3fe322ea104ea11445e7fb0e81691d312a", "asm": "0014ddf53a3fe322ea104ea11445e7fb0e81691d312a"}, "vout": 0, "txid": "8b92068df1a2042f9d0a7eaf1f2ff36cc989c1100fdf56eace3840adb5d87454"}], "txid": "a03b130409488750e0b6344ac7ecdba0e38ddbc9bfe9edf0c4d3d26e7fd97f52", "blocktime": 1537873282, "version": 1, "confirmations": 11484, "time": 1537873282, "locktime": 0, "vsize": 167, "size": 249}