{"hash": "e83d885e92058cc2092ca3d3b4483a37d2f74dab38700f598b0cba9183a6b72c", "blockhash": "0000000000000000001cda96e906b7601b7a6fb1a3b62bca570a9e5d8f4b3de1", "vout": [{"scriptPubKey": {"reqSigs": 1, "hex": "76a914c2567dbefc4abb3dd171cc5b4e0105e3bcb8e4a988ac", "addresses": ["1JiZhjGQArh2d4GXy2cFEC1P5oVuJ9Po1Y"], "asm": "OP_DUP OP_HASH160 c2567dbefc4abb3dd171cc5b4e0105e3bcb8e4a9 OP_EQUALVERIFY OP_CHECKSIG", "type": "pubkeyhash"}, "value": 0.00745581, "n": 0}, {"scriptPubKey": {"reqSigs": 1, "hex": "0014a3751fe4b1cdde7503c39a5bd0806155dc832277", "addresses": ["bc1q5d63le93eh082q7rnfdapqrp2hwgxgnh4p2rte"], "asm": "0 a3751fe4b1cdde7503c39a5bd0806155dc832277", "type": "witness_v0_keyhash"}, "value": 0.00160872, "n": 1}], "hex": "01000000000101f40060e5ac5a763b9a8d5de48d69c6e6a74f69031c961d1db748f2af7faf25720000000000ffffffff026d600b00000000001976a914c2567dbefc4abb3dd171cc5b4e0105e3bcb8e4a988ac6874020000000000160014a3751fe4b1cdde7503c39a5bd0806155dc83227702483045022100ceca2801145570fb33fd3154094ee43b8f707d6a87c252b7f2025ed09fc545ef0220710dcd3c134554a12d7854de2c6ddf9ec1efc96a4c0145ac60ae6efd821c43bb012102030a3fbc66a6b30e6d7b18f36ff35ff3f382664103cab2c633e6c9f2254525e100000000", "vin": [{"txinwitness": ["3045022100ceca2801145570fb33fd3154094ee43b8f707d6a87c252b7f2025ed09fc545ef0220710dcd3c134554a12d7854de2c6ddf9ec1efc96a4c0145ac60ae6efd821c43bb01", "02030a3fbc66a6b30e6d7b18f36ff35ff3f382664103cab2c633e6c9f2254525e1"], "sequence": 4294967295, "scriptSig": {"hex": "", "asm": ""}, "vout": 0, "txid": "7225af7faff248b71d1d961c03694fa7e6c6698de45d8d9a3b765aace56000f4"}], "txid": "a040be5706d1935c32ec7b77e9b5bde811d97e2d0d266bf2a9c8ab59af54a3b2", "blocktime": 1537873282, "version": 1, "confirmations": 11484, "time": 1537873282, "locktime": 0, "vsize": 144, "size": 226}