{"hash": "a046ca28f7aa9e7d76c9eb5157d0206bb53ebae637487e08034bbce939b37bfb", "blockhash": "0000000000000000001f76057863aec43deb6fa401d9628bb513d65a8098bfab", "vout": [{"scriptPubKey": {"reqSigs": 1, "hex": "76a914422b83051c7a001737ba7132c00c19ad49db8dac88ac", "addresses": ["172siuyqNChanjaHUhJGVxZ4gpVnsa9Mqr"], "asm": "OP_DUP OP_HASH160 422b83051c7a001737ba7132c00c19ad49db8dac OP_EQUALVERIFY OP_CHECKSIG", "type": "pubkeyhash"}, "value": 0.00063409, "n": 0}, {"scriptPubKey": {"reqSigs": 1, "hex": "76a914a2cdac0d1e389bddecfafae5374fa1bd69d1832788ac", "addresses": ["1FqprRXRbBToB63FXPqyZE6PDiHCDXBLz9"], "asm": "OP_DUP OP_HASH160 a2cdac0d1e389bddecfafae5374fa1bd69d18327 OP_EQUALVERIFY OP_CHECKSIG", "type": "pubkeyhash"}, "value": 0.00780399, "n": 1}], "hex": "01000000026c9bb0aefb55a77d374cab610d874e229501bbb53640aff86de986e91b987140010000006a473044022006cc7fe8f55d931f6035d6f1983d435341d5f242adbe6fd445be0da6358d274002204e79dbc592e1b46d1a7fca93386ca85b11843c84a3dd33b396e70c9efdb39620012103ce3152fb7c6e89a3d212f9f77a343ad01cbe5333ac887d7c570f92036d2a7c38ffffffff1b6c1b0b7af31e77eab8fd5fa5b249f76cc25476da0334f69e6c688d40a73c8c010000006b483045022100a69003c4420540035e5680bfcea590349717d917a329661afde04ac5d668b70502200a673332d5b00c590f87119520c1328a62e281faa720da461665340fe0ccd1c401210362bbdaf03cc17549344a100ad34d0e259969ade33fd6a8cb7c9f25108ce2f2e8ffffffff02b1f70000000000001976a914422b83051c7a001737ba7132c00c19ad49db8dac88ac6fe80b00000000001976a914a2cdac0d1e389bddecfafae5374fa1bd69d1832788ac00000000", "vin": [{"sequence": 4294967295, "scriptSig": {"hex": "473044022006cc7fe8f55d931f6035d6f1983d435341d5f242adbe6fd445be0da6358d274002204e79dbc592e1b46d1a7fca93386ca85b11843c84a3dd33b396e70c9efdb39620012103ce3152fb7c6e89a3d212f9f77a343ad01cbe5333ac887d7c570f92036d2a7c38", "asm": "3044022006cc7fe8f55d931f6035d6f1983d435341d5f242adbe6fd445be0da6358d274002204e79dbc592e1b46d1a7fca93386ca85b11843c84a3dd33b396e70c9efdb39620[ALL] 03ce3152fb7c6e89a3d212f9f77a343ad01cbe5333ac887d7c570f92036d2a7c38"}, "vout": 1, "txid": "4071981be986e96df8af4036b5bb0195224e870d61ab4c377da755fbaeb09b6c"}, {"sequence": 4294967295, "scriptSig": {"hex": "483045022100a69003c4420540035e5680bfcea590349717d917a329661afde04ac5d668b70502200a673332d5b00c590f87119520c1328a62e281faa720da461665340fe0ccd1c401210362bbdaf03cc17549344a100ad34d0e259969ade33fd6a8cb7c9f25108ce2f2e8", "asm": "3045022100a69003c4420540035e5680bfcea590349717d917a329661afde04ac5d668b70502200a673332d5b00c590f87119520c1328a62e281faa720da461665340fe0ccd1c4[ALL] 0362bbdaf03cc17549344a100ad34d0e259969ade33fd6a8cb7c9f25108ce2f2e8"}, "vout": 1, "txid": "8c3ca7408d686c9ef63403da7654c26cf749b2a55ffdb8ea771ef37a0b1b6c1b"}], "txid": "a046ca28f7aa9e7d76c9eb5157d0206bb53ebae637487e08034bbce939b37bfb", "blocktime": 1537873891, "version": 1, "confirmations": 11478, "time": 1537873891, "locktime": 0, "vsize": 373, "size": 373}