{"hash": "a048f5c82e9aa6813b0c8fdeb68dd6fcd689320653d0b10d660fdf3cdb651984", "blockhash": "0000000000000000000baef3f32e3676a92c3b2e5da21b426e4f302fc371ce76", "vout": [{"scriptPubKey": {"reqSigs": 1, "hex": "76a9140679e6f22becac85717bdbb90051de2d3a4716ba88ac", "addresses": ["1bF64Tg3GfcoLbkEY6ZJHkBofkaDSdVbc"], "asm": "OP_DUP OP_HASH160 0679e6f22becac85717bdbb90051de2d3a4716ba OP_EQUALVERIFY OP_CHECKSIG", "type": "pubkeyhash"}, "value": 0.00027132, "n": 0}, {"scriptPubKey": {"reqSigs": 1, "hex": "a914aeb1a0594ba66d72917719891a5c668ea6009e5787", "addresses": ["3HciHcp9djuMiuLmCSca1stjVorRzqij2V"], "asm": "OP_HASH160 aeb1a0594ba66d72917719891a5c668ea6009e57 OP_EQUAL", "type": "scripthash"}, "value": 0.00224257, "n": 1}], "hex": "0100000001049081fa9274d8f4d877fcb239c5cfd76ef5306ce69cc4b01dd88bb5b7f7757f010000006b4830450221009e9a3c02152a3a762ec22b288fad98154e7790cee03879ee5c8a1407780406ed02200b79749c34d50b92e6af74ae4473fc7ed49b5f190d78ec12943af8a69d0660c40121029cdc908a0dc9e2cef0cdae64c6bb4906c3009c55b77f8af30e921519cd3fb11fffffffff02fc690000000000001976a9140679e6f22becac85717bdbb90051de2d3a4716ba88ac016c03000000000017a914aeb1a0594ba66d72917719891a5c668ea6009e578700000000", "vin": [{"sequence": 4294967295, "scriptSig": {"hex": "4830450221009e9a3c02152a3a762ec22b288fad98154e7790cee03879ee5c8a1407780406ed02200b79749c34d50b92e6af74ae4473fc7ed49b5f190d78ec12943af8a69d0660c40121029cdc908a0dc9e2cef0cdae64c6bb4906c3009c55b77f8af30e921519cd3fb11f", "asm": "30450221009e9a3c02152a3a762ec22b288fad98154e7790cee03879ee5c8a1407780406ed02200b79749c34d50b92e6af74ae4473fc7ed49b5f190d78ec12943af8a69d0660c4[ALL] 029cdc908a0dc9e2cef0cdae64c6bb4906c3009c55b77f8af30e921519cd3fb11f"}, "vout": 1, "txid": "7f75f7b7b58bd81db0c49ce66c30f56ed7cfc539b2fc77d8f4d87492fa819004"}], "txid": "a048f5c82e9aa6813b0c8fdeb68dd6fcd689320653d0b10d660fdf3cdb651984", "blocktime": 1537876114, "version": 1, "confirmations": 11460, "time": 1537876114, "locktime": 0, "vsize": 224, "size": 224}