{"hash": "ca04bc64ffe2d8f9b67c87a7b527cfc82e2bb5cda24bebb8598192806303602f", "blockhash": "000000000000000000022b45ed06c6f4ccd3cf7fb5ba4856ebd2e58215665228", "vout": [{"scriptPubKey": {"reqSigs": 1, "hex": "76a914e5448c89def4ada18ea581343e1a41df1e62144688ac", "addresses": ["1MuFro9m9bW1UF5cwFVCJs2CLbDBKWSTQm"], "asm": "OP_DUP OP_HASH160 e5448c89def4ada18ea581343e1a41df1e621446 OP_EQUALVERIFY OP_CHECKSIG", "type": "pubkeyhash"}, "value": 0.00593359, "n": 0}, {"scriptPubKey": {"reqSigs": 1, "hex": "a914627aa52932456d89054bd84f86246af3b71b93a887", "addresses": ["3Afj4stdiLG9EktGrMbm252ySonnhYaz8v"], "asm": "OP_HASH160 627aa52932456d89054bd84f86246af3b71b93a8 OP_EQUAL", "type": "scripthash"}, "value": 0.8650513, "n": 1}], "hex": "0100000000010116338a2034cd5b5177cbb99c492cbdf403463eb3a0f3c831f8a77f20a5d013bb01000000232200205fdd641234b13964b223bd85ad2a4a667ca2099df3d42a1d3b45706a8d81abf0ffffffff02cf0d0900000000001976a914e5448c89def4ada18ea581343e1a41df1e62144688acaaf627050000000017a914627aa52932456d89054bd84f86246af3b71b93a88704004730440220220ce23f95a1c535895418feec7212fdd24005b5432992228a492b71102ed4be022053631a4cdedc4fa46f9aa162f4111936eeaeed4789025361a6445824d483c70d01483045022100f0c955c53927041018b85ed22938d223cf633e5dff430637cb54c1f50f984e80022028de4352d9d7c6755917acb40cbf26c37797d5697dc05225891d4ebed8f40db00147522103dcde3832fa56def7b4e783faad1b8af85c3cdd74a5ff4f3c7c216b1075c18da12103c70ae8ded79be1afda73b9ce5ea14a3878908ee160d66a9a717e792bb6db276952ae00000000", "vin": [{"txinwitness": ["", "30440220220ce23f95a1c535895418feec7212fdd24005b5432992228a492b71102ed4be022053631a4cdedc4fa46f9aa162f4111936eeaeed4789025361a6445824d483c70d01", "3045022100f0c955c53927041018b85ed22938d223cf633e5dff430637cb54c1f50f984e80022028de4352d9d7c6755917acb40cbf26c37797d5697dc05225891d4ebed8f40db001", "522103dcde3832fa56def7b4e783faad1b8af85c3cdd74a5ff4f3c7c216b1075c18da12103c70ae8ded79be1afda73b9ce5ea14a3878908ee160d66a9a717e792bb6db276952ae"], "sequence": 4294967295, "scriptSig": {"hex": "2200205fdd641234b13964b223bd85ad2a4a667ca2099df3d42a1d3b45706a8d81abf0", "asm": "00205fdd641234b13964b223bd85ad2a4a667ca2099df3d42a1d3b45706a8d81abf0"}, "vout": 1, "txid": "bb13d0a5207fa7f831c8f3a0b33e4603f4bd2c499cb9cb77515bcd34208a3316"}], "txid": "a04c154cc8b00a64e326380b4ae1d95d26d3906013c96002cf4c9034ea5ca5ea", "blocktime": 1537869901, "version": 1, "confirmations": 11523, "time": 1537869901, "locktime": 0, "vsize": 208, "size": 373}