{"hash": "4626871f36bee7bbcd8a1c2e24af7c7bbcb82f57b855d1f4cdb59b0564f65ee1", "blockhash": "0000000000000000000e13cef7c366c0283d82e591d1acd082e914b08063cdf1", "vout": [{"scriptPubKey": {"reqSigs": 1, "hex": "00146c7fb5a04ffbfeb50aca00b3a31d01c446e2f056", "addresses": ["bc1qd3lmtgz0l0lt2zk2qze6x8gpc3rw9uzkj42g3u"], "asm": "0 6c7fb5a04ffbfeb50aca00b3a31d01c446e2f056", "type": "witness_v0_keyhash"}, "value": 1.38578348, "n": 0}, {"scriptPubKey": {"reqSigs": 1, "hex": "a91432582287de6245ab1673543e92859ad51dcbdc0587", "addresses": ["36HDHrWkeYWMkkeh1TWYpfzAQZHZfoN2zW"], "asm": "OP_HASH160 32582287de6245ab1673543e92859ad51dcbdc05 OP_EQUAL", "type": "scripthash"}, "value": 0.00784578, "n": 1}], "hex": "01000000000101bdd32ab2765fedbb5390ad7d967f667a6f84592661b7ef1363897ff8fc63c8740100000000ffffffff02ac894208000000001600146c7fb5a04ffbfeb50aca00b3a31d01c446e2f056c2f80b000000000017a91432582287de6245ab1673543e92859ad51dcbdc058702483045022100f6d4cbbb85b5538ec5dbb04eb38839eefff844737669518a45d11feea23bcdfd0220650d7c24b69c85652fdc512ad5cd8982eab31b204b4c88c8d5fbeb470a71c2ff01210293ae85159a8c8e9396fa66e4ad0c6e68496105e93c983b8087874d62b38040ef00000000", "vin": [{"txinwitness": ["3045022100f6d4cbbb85b5538ec5dbb04eb38839eefff844737669518a45d11feea23bcdfd0220650d7c24b69c85652fdc512ad5cd8982eab31b204b4c88c8d5fbeb470a71c2ff01", "0293ae85159a8c8e9396fa66e4ad0c6e68496105e93c983b8087874d62b38040ef"], "sequence": 4294967295, "scriptSig": {"hex": "", "asm": ""}, "vout": 1, "txid": "74c863fcf87f896313efb7612659846f7a667f967dad9053bbed5f76b22ad3bd"}], "txid": "a04e9dc007d7d6d45ea6b5f20bb3c431fc31e99a7b88df948b7346b65deaf918", "blocktime": 1537871767, "version": 1, "confirmations": 11495, "time": 1537871767, "locktime": 0, "vsize": 142, "size": 224}