{"hash": "a059367f2bc9611d7a368a4afa4cf971e26a84e08ef396cd7e2faeaf92334fbc", "blockhash": "00000000000000000004ffacab907a6b429b9a5745fa0b75af4234bf69dd7176", "vout": [{"scriptPubKey": {"type": "nulldata", "hex": "6a146f6d6e69000000000000001f0000048c27395000", "asm": "OP_RETURN 6f6d6e69000000000000001f0000048c27395000"}, "value": 0.0, "n": 0}, {"scriptPubKey": {"reqSigs": 1, "hex": "76a914ca5f81870d1f3871c1de89ad7be4cd0879b8e9aa88ac", "addresses": ["1KT3uczv4yf5HiqFvZBtf3XryDGVyXc1Lw"], "asm": "OP_DUP OP_HASH160 ca5f81870d1f3871c1de89ad7be4cd0879b8e9aa OP_EQUALVERIFY OP_CHECKSIG", "type": "pubkeyhash"}, "value": 5.46e-06, "n": 1}, {"scriptPubKey": {"reqSigs": 1, "hex": "76a914a25dec4d0011064ef106a983c39c7a540699f22088ac", "addresses": ["1FoWyxwPXuj4C6abqwhjDWdz6D4PZgYRjA"], "asm": "OP_DUP OP_HASH160 a25dec4d0011064ef106a983c39c7a540699f220 OP_EQUALVERIFY OP_CHECKSIG", "type": "pubkeyhash"}, "value": 0.01990376, "n": 2}], "hex": "01000000017d145aba355e6cc4b7d7fc07674593d38358918a588eecaa9af1a6fb9c7110ed000000006b483045022100a5da11868ce7965a84b04f918dcdd149f6bb629500ee2052a63b5b4ab2753483022012a7a49cab8e7384a8a6438bd150976617515e86733887bf81fc3a593520bc62012103da5bac7b36d5aa38f531c6b9601e21bb598a4b6716ebed38b009a55dabde9440feffffff030000000000000000166a146f6d6e69000000000000001f0000048c2739500022020000000000001976a914ca5f81870d1f3871c1de89ad7be4cd0879b8e9aa88ace85e1e00000000001976a914a25dec4d0011064ef106a983c39c7a540699f22088ac16490800", "vin": [{"sequence": 4294967294, "scriptSig": {"hex": "483045022100a5da11868ce7965a84b04f918dcdd149f6bb629500ee2052a63b5b4ab2753483022012a7a49cab8e7384a8a6438bd150976617515e86733887bf81fc3a593520bc62012103da5bac7b36d5aa38f531c6b9601e21bb598a4b6716ebed38b009a55dabde9440", "asm": "3045022100a5da11868ce7965a84b04f918dcdd149f6bb629500ee2052a63b5b4ab2753483022012a7a49cab8e7384a8a6438bd150976617515e86733887bf81fc3a593520bc62[ALL] 03da5bac7b36d5aa38f531c6b9601e21bb598a4b6716ebed38b009a55dabde9440"}, "vout": 0, "txid": "ed10719cfba6f19aaaec8e588a915883d393456707fcd7b7c46c5e35ba5a147d"}], "txid": "a059367f2bc9611d7a368a4afa4cf971e26a84e08ef396cd7e2faeaf92334fbc", "blocktime": 1537875543, "version": 1, "confirmations": 11464, "time": 1537875543, "locktime": 542998, "vsize": 257, "size": 257}