{"hash": "e68ea43240145e4fd41161ffa66ebb898d5b274d33fd4390fd3806280c5a43bc", "blockhash": "0000000000000000001f76057863aec43deb6fa401d9628bb513d65a8098bfab", "vout": [{"scriptPubKey": {"reqSigs": 1, "hex": "a91496c9e03dd2c5406120970b5fed49923003d98e9287", "addresses": ["3FSK7uRspW6amVBVhphWwcz6dGDN1yv3qu"], "asm": "OP_HASH160 96c9e03dd2c5406120970b5fed49923003d98e92 OP_EQUAL", "type": "scripthash"}, "value": 0.08054533, "n": 0}, {"scriptPubKey": {"type": "nulldata", "hex": "6a20d62107ecba72a7dfc0e48d3afd67c514b178e869abb1085c4f92752a7d885610", "asm": "OP_RETURN d62107ecba72a7dfc0e48d3afd67c514b178e869abb1085c4f92752a7d885610"}, "value": 0.0, "n": 1}], "hex": "010000000001010aef27c69e63523d209026e4bb0f2bc88b627adf2a725546010bf55ab578c07d0000000017160014b3f52aa515ce503bd10c3500d32961aeeea8a302fdffffff0205e77a000000000017a91496c9e03dd2c5406120970b5fed49923003d98e92870000000000000000226a20d62107ecba72a7dfc0e48d3afd67c514b178e869abb1085c4f92752a7d8856100247304402202e9fe32f72a63902fba962ab5dcca1957fe24dff3190f96e704dc77aa80f8bbe022033669be8e747438b12cc67a2ef7d1f7bf81a46ef8b42af3bb0e45b10b7098c1e012102745807fba761183d46fc603b3868b787eae1c426e5a24025e52888d26c78141d14490800", "vin": [{"txinwitness": ["304402202e9fe32f72a63902fba962ab5dcca1957fe24dff3190f96e704dc77aa80f8bbe022033669be8e747438b12cc67a2ef7d1f7bf81a46ef8b42af3bb0e45b10b7098c1e01", "02745807fba761183d46fc603b3868b787eae1c426e5a24025e52888d26c78141d"], "sequence": 4294967293, "scriptSig": {"hex": "160014b3f52aa515ce503bd10c3500d32961aeeea8a302", "asm": "0014b3f52aa515ce503bd10c3500d32961aeeea8a302"}, "vout": 0, "txid": "7dc078b55af50b014655722adf7a628bc82b0fbbe42690203d52639ec627ef0a"}], "txid": "a063dd7463c0020260cea4363b1dcd9c56629173efeee178384d8a9fc4102d5d", "blocktime": 1537873891, "version": 1, "confirmations": 11479, "time": 1537873891, "locktime": 542996, "vsize": 177, "size": 258}