{"hash": "5f15a2c7b04d583a3e7b9c44beb026756a70d64a5ce54f9ab2581b5a99ab3bed", "blockhash": "0000000000000000000e13cef7c366c0283d82e591d1acd082e914b08063cdf1", "vout": [{"scriptPubKey": {"reqSigs": 1, "hex": "a914a1c9d46ddadfb5c5ab86b3891bfd5e10113f419787", "addresses": ["3GSUVosMahy4WmAmpnRm4mmrKhfTXpaRZC"], "asm": "OP_HASH160 a1c9d46ddadfb5c5ab86b3891bfd5e10113f4197 OP_EQUAL", "type": "scripthash"}, "value": 0.0100328, "n": 0}, {"scriptPubKey": {"reqSigs": 1, "hex": "76a9142ac0ac7197805c7269c340d6ea926741910b340388ac", "addresses": ["14u4CFj2pgWtULkSuHM3rFdhzD5eRev4tv"], "asm": "OP_DUP OP_HASH160 2ac0ac7197805c7269c340d6ea926741910b3403 OP_EQUALVERIFY OP_CHECKSIG", "type": "pubkeyhash"}, "value": 0.00186927, "n": 1}], "hex": "02000000000102d799c53698d4064fd0a60f93b792026c5148157c62f36c0943ce0ea6df78ef9701000000171600141591561db6af1156dc037ba4f4916a369c8e141ffeffffffdf01e1088aea1506d73b11bd39bebaf85e1fa2c770a0bb06be26aee1869dfcc11600000017160014400e04cd6dc93b52fdbc210668205cfe643245d5feffffff02104f0f000000000017a914a1c9d46ddadfb5c5ab86b3891bfd5e10113f4197872fda0200000000001976a9142ac0ac7197805c7269c340d6ea926741910b340388ac024730440220579fc5c9b7222458ab79a84c606ba1081f955b5f0661b56df82ddb7637d870ab022071de85dbc8b0e378129f38929567b0c49bb72888d839e67f5b050fb12c24f3fa01210358978f4a835f7276526b848309c2c86cef00dc1ff5facbbcc0d8fc32ac5598f302483045022100f235466220b8d87db104322a90637a82e1ec60b221e5ca280b87c706c08a1e9202202f94d47b191a246034c12a4244291ba41d3e0fe87b82ab1cf8435ab5df949d8b012102454dffb7cc3548daffb0aec9cc5fe210590fdae982540a81e4eed63d12d46e970f490800", "vin": [{"txinwitness": ["30440220579fc5c9b7222458ab79a84c606ba1081f955b5f0661b56df82ddb7637d870ab022071de85dbc8b0e378129f38929567b0c49bb72888d839e67f5b050fb12c24f3fa01", "0358978f4a835f7276526b848309c2c86cef00dc1ff5facbbcc0d8fc32ac5598f3"], "sequence": 4294967294, "scriptSig": {"hex": "1600141591561db6af1156dc037ba4f4916a369c8e141f", "asm": "00141591561db6af1156dc037ba4f4916a369c8e141f"}, "vout": 1, "txid": "97ef78dfa60ece43096cf3627c1548516c0292b7930fa6d04f06d49836c599d7"}, {"txinwitness": ["3045022100f235466220b8d87db104322a90637a82e1ec60b221e5ca280b87c706c08a1e9202202f94d47b191a246034c12a4244291ba41d3e0fe87b82ab1cf8435ab5df949d8b01", "02454dffb7cc3548daffb0aec9cc5fe210590fdae982540a81e4eed63d12d46e97"], "sequence": 4294967294, "scriptSig": {"hex": "160014400e04cd6dc93b52fdbc210668205cfe643245d5", "asm": "0014400e04cd6dc93b52fdbc210668205cfe643245d5"}, "vout": 22, "txid": "c1fc9d86e1ae26be06bba070c7a21f5ef8babe39bd113bd70615ea8a08e101df"}], "txid": "a07296fb3b39597a8a5675019921be1f4f6617d5f3502d254d995a58638fcfdf", "blocktime": 1537871767, "version": 2, "confirmations": 11495, "time": 1537871767, "locktime": 542991, "vsize": 259, "size": 421}