{"hash": "a07b910d1896080e88c24217bda89ce4e04e4b2e8025e561b2e9f92a9d2a61dc", "blockhash": "00000000000000000004ffacab907a6b429b9a5745fa0b75af4234bf69dd7176", "vout": [{"scriptPubKey": {"reqSigs": 1, "hex": "76a914697839c4cdcca35032ad7f3f62bdab41a180df9388ac", "addresses": ["1AcfyZut1pZPrM6PG5Dk7NyCg9ReAKUujM"], "asm": "OP_DUP OP_HASH160 697839c4cdcca35032ad7f3f62bdab41a180df93 OP_EQUALVERIFY OP_CHECKSIG", "type": "pubkeyhash"}, "value": 0.00055555, "n": 0}, {"scriptPubKey": {"reqSigs": 1, "hex": "76a91404804e0773fa686554b392f4e01180294d07601f88ac", "addresses": ["1QoQYPb5JiKyeK2jj47Rv9YTRGn6FVFCX"], "asm": "OP_DUP OP_HASH160 04804e0773fa686554b392f4e01180294d07601f OP_EQUALVERIFY OP_CHECKSIG", "type": "pubkeyhash"}, "value": 0.00633845, "n": 1}], "hex": "0100000001f5d0103f0ddc5e804c162bd9c84d91105db97372f4e82433a3a0cfcbcdbdd9e1010000006a473044022055909e5300b775ae2688183313f241d1c6d40c8a6a775e1b619a17549ea02c9a02202a757b74f221869805fba949fc8ea6616d86c0768de5ff3ff6d3cf33a6c73461012102355ec030075ff36cd91b814894ce05a2ca712f97366a0713ffb58ca01059bb88ffffffff0203d90000000000001976a914697839c4cdcca35032ad7f3f62bdab41a180df9388acf5ab0900000000001976a91404804e0773fa686554b392f4e01180294d07601f88ac00000000", "vin": [{"sequence": 4294967295, "scriptSig": {"hex": "473044022055909e5300b775ae2688183313f241d1c6d40c8a6a775e1b619a17549ea02c9a02202a757b74f221869805fba949fc8ea6616d86c0768de5ff3ff6d3cf33a6c73461012102355ec030075ff36cd91b814894ce05a2ca712f97366a0713ffb58ca01059bb88", "asm": "3044022055909e5300b775ae2688183313f241d1c6d40c8a6a775e1b619a17549ea02c9a02202a757b74f221869805fba949fc8ea6616d86c0768de5ff3ff6d3cf33a6c73461[ALL] 02355ec030075ff36cd91b814894ce05a2ca712f97366a0713ffb58ca01059bb88"}, "vout": 1, "txid": "e1d9bdcdcbcfa0a33324e8f47273b95d10914dc8d92b164c805edc0d3f10d0f5"}], "txid": "a07b910d1896080e88c24217bda89ce4e04e4b2e8025e561b2e9f92a9d2a61dc", "blocktime": 1537875543, "version": 1, "confirmations": 11464, "time": 1537875543, "locktime": 0, "vsize": 225, "size": 225}