{"hash": "a07d36987eb7fed0837e8f88b5162a57f732686310643c368847ff4e067936de", "blockhash": "0000000000000000001f0ddff1eddb255c1121bcd4da4f1bc9a0da00cae72433", "vout": [{"scriptPubKey": {"reqSigs": 1, "hex": "76a9147dd2dab4091b6a0f6b820b04a7abcad6cd263d6a88ac", "addresses": ["1CUJ4PoJVfTEsZcrRVJ4863u7R7eGifrKM"], "asm": "OP_DUP OP_HASH160 7dd2dab4091b6a0f6b820b04a7abcad6cd263d6a OP_EQUALVERIFY OP_CHECKSIG", "type": "pubkeyhash"}, "value": 0.04686058, "n": 0}, {"scriptPubKey": {"reqSigs": 1, "hex": "76a9143d0649af5d2b85cb048afde7c58c1319f9f5aabb88ac", "addresses": ["16Zfkb6f6CiYdP96cxKx3CRqPpTR3uV2rp"], "asm": "OP_DUP OP_HASH160 3d0649af5d2b85cb048afde7c58c1319f9f5aabb OP_EQUALVERIFY OP_CHECKSIG", "type": "pubkeyhash"}, "value": 0.18642387, "n": 1}], "hex": "010000000196c181746fbb9a95fa91cee462ba51afc81dc01a01f23750725fe1faabe5d5ec010000006a47304402202182e24331f700b610dbb946a41dccda4ba7cc70b29eb1bb0b7edfc0cccc994a02202cfb6bbef7ce7bcb32bd4d886c5803c3bffb7bcd3ba492883e1116ffb534e9b2012103938321392f709c026e7e4daed6c567d90b2f7db8d0697f0026d6e3cf185255e1ffffffff02ea804700000000001976a9147dd2dab4091b6a0f6b820b04a7abcad6cd263d6a88acd3751c01000000001976a9143d0649af5d2b85cb048afde7c58c1319f9f5aabb88ac00000000", "vin": [{"sequence": 4294967295, "scriptSig": {"hex": "47304402202182e24331f700b610dbb946a41dccda4ba7cc70b29eb1bb0b7edfc0cccc994a02202cfb6bbef7ce7bcb32bd4d886c5803c3bffb7bcd3ba492883e1116ffb534e9b2012103938321392f709c026e7e4daed6c567d90b2f7db8d0697f0026d6e3cf185255e1", "asm": "304402202182e24331f700b610dbb946a41dccda4ba7cc70b29eb1bb0b7edfc0cccc994a02202cfb6bbef7ce7bcb32bd4d886c5803c3bffb7bcd3ba492883e1116ffb534e9b2[ALL] 03938321392f709c026e7e4daed6c567d90b2f7db8d0697f0026d6e3cf185255e1"}, "vout": 1, "txid": "ecd5e5abfae15f725037f2011ac01dc8af51ba62e4ce91fa959abb6f7481c196"}], "txid": "a07d36987eb7fed0837e8f88b5162a57f732686310643c368847ff4e067936de", "blocktime": 1537872018, "version": 1, "confirmations": 11489, "time": 1537872018, "locktime": 0, "vsize": 225, "size": 225}