{"hash": "038a7bd6617e146038779319c1aec9f360d61b54b6ed4680f3ac8009bdd4f9ae", "blockhash": "0000000000000000000baef3f32e3676a92c3b2e5da21b426e4f302fc371ce76", "vout": [{"scriptPubKey": {"reqSigs": 1, "hex": "a91466ad6a2e8833f5cc9c8e0fd9dfcc0de2b98d681487", "addresses": ["3B3vbBQ4a4HTcyHGqENSqGJuYvve4f5h4S"], "asm": "OP_HASH160 66ad6a2e8833f5cc9c8e0fd9dfcc0de2b98d6814 OP_EQUAL", "type": "scripthash"}, "value": 0.00108886, "n": 0}, {"scriptPubKey": {"reqSigs": 1, "hex": "a914948dd183980b273ab06a105f76b0ea7df02d3d0987", "addresses": ["3FEVpehcz4yMukxj4yseCQEzgqpzmX2d7o"], "asm": "OP_HASH160 948dd183980b273ab06a105f76b0ea7df02d3d09 OP_EQUAL", "type": "scripthash"}, "value": 0.01148025, "n": 1}], "hex": "0200000000010164e00502f5e0f0f684e28855ef52145f728bf4f59c74019781bdc05360614c990100000017160014388e735e15f93ff93b09d65eeb54946a0d4520b8feffffff0256a901000000000017a91466ad6a2e8833f5cc9c8e0fd9dfcc0de2b98d681487798411000000000017a914948dd183980b273ab06a105f76b0ea7df02d3d098702473044022027638e5e9d80055c7bb900a3262fe3efd79d32a2e322a931aa2880dec7d16bb00220357eb7d32bf96c003eb2e64df30f56be54993c5df39da67e5f68854d34c7bf980121025f315d994371015b95428db58df657e460ae7d4cd9ac5efa9995ee2642a2cdb417490800", "vin": [{"txinwitness": ["3044022027638e5e9d80055c7bb900a3262fe3efd79d32a2e322a931aa2880dec7d16bb00220357eb7d32bf96c003eb2e64df30f56be54993c5df39da67e5f68854d34c7bf9801", "025f315d994371015b95428db58df657e460ae7d4cd9ac5efa9995ee2642a2cdb4"], "sequence": 4294967294, "scriptSig": {"hex": "160014388e735e15f93ff93b09d65eeb54946a0d4520b8", "asm": "0014388e735e15f93ff93b09d65eeb54946a0d4520b8"}, "vout": 1, "txid": "994c616053c0bd819701749cf5f48b725f1452ef5588e284f6f0e0f50205e064"}], "txid": "a07f408e2bf8c2308734df5c813027da48580c49c1d87312ab1826ec9cf553ec", "blocktime": 1537876114, "version": 2, "confirmations": 11460, "time": 1537876114, "locktime": 542999, "vsize": 166, "size": 247}