{"hash": "a084d3d079fe6de3dee2ebe596ffb8acfb64ab22330f3cb8ad182f07e97e2d34", "blockhash": "0000000000000000000e13cef7c366c0283d82e591d1acd082e914b08063cdf1", "vout": [{"scriptPubKey": {"reqSigs": 1, "hex": "76a9145e0220b4e7f6395ab39fd13bcebed984d9d9d5e588ac", "addresses": ["19a54sYYG1CAuCBv7PB145VjQ8f62kmuFa"], "asm": "OP_DUP OP_HASH160 5e0220b4e7f6395ab39fd13bcebed984d9d9d5e5 OP_EQUALVERIFY OP_CHECKSIG", "type": "pubkeyhash"}, "value": 0.00027444, "n": 0}, {"scriptPubKey": {"reqSigs": 1, "hex": "a9148ade1e85849781c246998d377a2b0411335a3a3f87", "addresses": ["3EMHG8XmdVsHpQs79nB2jLRPksThYhQ2fP"], "asm": "OP_HASH160 8ade1e85849781c246998d377a2b0411335a3a3f OP_EQUAL", "type": "scripthash"}, "value": 0.00531028, "n": 1}], "hex": "0100000001a87ec13cc898916a2ac183bebed8a230afc33a5f714bfcee0ea1e6b9afe2e444000000006b483045022100ce4fb286fa72df40612b4e8ebe60e5f6e7c29a10b897c2b1ca04967997acecdd022061e12661978194b7890efcfdf8e3f888f5898e819569d13cd974c6e5c5c8ca7c0121030c0aa246d1e8b693a92e1b8c60b4771aa6a7520e165c88f9b8c96206ed801bfaffffffff02346b0000000000001976a9145e0220b4e7f6395ab39fd13bcebed984d9d9d5e588ac541a08000000000017a9148ade1e85849781c246998d377a2b0411335a3a3f8700000000", "vin": [{"sequence": 4294967295, "scriptSig": {"hex": "483045022100ce4fb286fa72df40612b4e8ebe60e5f6e7c29a10b897c2b1ca04967997acecdd022061e12661978194b7890efcfdf8e3f888f5898e819569d13cd974c6e5c5c8ca7c0121030c0aa246d1e8b693a92e1b8c60b4771aa6a7520e165c88f9b8c96206ed801bfa", "asm": "3045022100ce4fb286fa72df40612b4e8ebe60e5f6e7c29a10b897c2b1ca04967997acecdd022061e12661978194b7890efcfdf8e3f888f5898e819569d13cd974c6e5c5c8ca7c[ALL] 030c0aa246d1e8b693a92e1b8c60b4771aa6a7520e165c88f9b8c96206ed801bfa"}, "vout": 0, "txid": "44e4e2afb9e6a10eeefc4b715f3ac3af30a2d8bebe83c12a6a9198c83cc17ea8"}], "txid": "a084d3d079fe6de3dee2ebe596ffb8acfb64ab22330f3cb8ad182f07e97e2d34", "blocktime": 1537871767, "version": 1, "confirmations": 11493, "time": 1537871767, "locktime": 0, "vsize": 224, "size": 224}