{"hash": "a087ebd1668d9dece427b0104481ea00256a5e62beca98786c0815c7e4908395", "blockhash": "0000000000000000001f76057863aec43deb6fa401d9628bb513d65a8098bfab", "vout": [{"scriptPubKey": {"reqSigs": 1, "hex": "a914b0d78df9f9d7a291ac0f97eff094fdf460fc1f6687", "addresses": ["3Hp55JTRBY1S9m8Wnwxf2WgWbSMGE4ZeC8"], "asm": "OP_HASH160 b0d78df9f9d7a291ac0f97eff094fdf460fc1f66 OP_EQUAL", "type": "scripthash"}, "value": 0.006666, "n": 0}, {"scriptPubKey": {"reqSigs": 1, "hex": "76a91440d25f240b29090d7161b80d94d2ee3b6370f29e88ac", "addresses": ["16ukGA17F94pBVUbEwsC9HWzuA3YkAHAP5"], "asm": "OP_DUP OP_HASH160 40d25f240b29090d7161b80d94d2ee3b6370f29e OP_EQUALVERIFY OP_CHECKSIG", "type": "pubkeyhash"}, "value": 0.20086125, "n": 1}], "hex": "0100000001a9a7ec577c46c5035f1303d768f3aa45e0dfd98ed3aa6a448f754eae2fb7e333010000006a473044022052b5130b016a4cd1fc9b03fe18e7508b291a1ce4448d12514e013f44c7ffa40e02206c22c04269987f589d0ea9aa9e69daec650eb8ca6dc18af65f7a846e0bfb5e66012103868ddc9981a83929c5303be5df48eba15fdee10cb6171836fbddab9dae0a1734ffffffff02e82b0a000000000017a914b0d78df9f9d7a291ac0f97eff094fdf460fc1f66876d7d3201000000001976a91440d25f240b29090d7161b80d94d2ee3b6370f29e88ac00000000", "vin": [{"sequence": 4294967295, "scriptSig": {"hex": "473044022052b5130b016a4cd1fc9b03fe18e7508b291a1ce4448d12514e013f44c7ffa40e02206c22c04269987f589d0ea9aa9e69daec650eb8ca6dc18af65f7a846e0bfb5e66012103868ddc9981a83929c5303be5df48eba15fdee10cb6171836fbddab9dae0a1734", "asm": "3044022052b5130b016a4cd1fc9b03fe18e7508b291a1ce4448d12514e013f44c7ffa40e02206c22c04269987f589d0ea9aa9e69daec650eb8ca6dc18af65f7a846e0bfb5e66[ALL] 03868ddc9981a83929c5303be5df48eba15fdee10cb6171836fbddab9dae0a1734"}, "vout": 1, "txid": "33e3b72fae4e758f446aaad38ed9dfe045aaf368d703135f03c5467c57eca7a9"}], "txid": "a087ebd1668d9dece427b0104481ea00256a5e62beca98786c0815c7e4908395", "blocktime": 1537873891, "version": 1, "confirmations": 11478, "time": 1537873891, "locktime": 0, "vsize": 223, "size": 223}