{"hash": "a0891eabe263222c790fc83bf9bab51a2f42bad6c763c86485d2f7603a343ace", "blockhash": "0000000000000000001e0dab787dd257d1dbfcb92a98c2207d5e1078be1f4165", "vout": [{"scriptPubKey": {"reqSigs": 1, "hex": "a914c9d8951ad59f17b05c4a18d74641fe00f3014bd687", "addresses": ["3L6HCWjYsXt9rfLxQpM88u6XrK7X7fBKHz"], "asm": "OP_HASH160 c9d8951ad59f17b05c4a18d74641fe00f3014bd6 OP_EQUAL", "type": "scripthash"}, "value": 0.00676418, "n": 0}, {"scriptPubKey": {"reqSigs": 1, "hex": "76a9142c3b643f122a784d87e30b127027443399c08f3788ac", "addresses": ["152st3LpVq8oSa29r9DsXtJjEYMpm4Fx5W"], "asm": "OP_DUP OP_HASH160 2c3b643f122a784d87e30b127027443399c08f37 OP_EQUALVERIFY OP_CHECKSIG", "type": "pubkeyhash"}, "value": 0.22154592, "n": 1}], "hex": "0100000001478cd636791bfcca2dd51545b87df59f7930be26fc4a310c67fe7e835a891765010000006a473044022047189ef9f07ebb42fdc4d84d713d9b9618d689f869d6a4e9d778d8c5ee6bcc470220502b154a3f5bb1b2d3aaf1f6050bfa408de52ea44db72879a660f7360654ad71012103ec32e614c311ae633e6f92d872670cf27377978c8123f3fc353316b551ac8fe5ffffffff0242520a000000000017a914c9d8951ad59f17b05c4a18d74641fe00f3014bd687600d5201000000001976a9142c3b643f122a784d87e30b127027443399c08f3788ac00000000", "vin": [{"sequence": 4294967295, "scriptSig": {"hex": "473044022047189ef9f07ebb42fdc4d84d713d9b9618d689f869d6a4e9d778d8c5ee6bcc470220502b154a3f5bb1b2d3aaf1f6050bfa408de52ea44db72879a660f7360654ad71012103ec32e614c311ae633e6f92d872670cf27377978c8123f3fc353316b551ac8fe5", "asm": "3044022047189ef9f07ebb42fdc4d84d713d9b9618d689f869d6a4e9d778d8c5ee6bcc470220502b154a3f5bb1b2d3aaf1f6050bfa408de52ea44db72879a660f7360654ad71[ALL] 03ec32e614c311ae633e6f92d872670cf27377978c8123f3fc353316b551ac8fe5"}, "vout": 1, "txid": "6517895a837efe670c314afc26be30799ff57db84515d52dcafc1b7936d68c47"}], "txid": "a0891eabe263222c790fc83bf9bab51a2f42bad6c763c86485d2f7603a343ace", "blocktime": 1537872475, "version": 1, "confirmations": 11487, "time": 1537872475, "locktime": 0, "vsize": 223, "size": 223}