{"hash": "a0912c1f8e13e147f7d439124789d826383a8b0971d9d68dea6c9f62e713db40", "blockhash": "00000000000000000018f53835495a110e01622372bf6ae95dc86f2b0ab887b0", "vout": [{"scriptPubKey": {"reqSigs": 1, "hex": "a91401bba03ebc2092a802499ad08d09b4dc0c8cc76d87", "addresses": ["31rBNDTfVDZu3S6W6hC6q5xFZTX2kEFgC6"], "asm": "OP_HASH160 01bba03ebc2092a802499ad08d09b4dc0c8cc76d OP_EQUAL", "type": "scripthash"}, "value": 0.008092, "n": 0}, {"scriptPubKey": {"reqSigs": 1, "hex": "76a914547c87a45364dfcf0d10741c812725b25ac5bd8a88ac", "addresses": ["18hiwbmj5sf16TS2vZxLhLjVN9kHtfmKt1"], "asm": "OP_DUP OP_HASH160 547c87a45364dfcf0d10741c812725b25ac5bd8a OP_EQUALVERIFY OP_CHECKSIG", "type": "pubkeyhash"}, "value": 0.28024932, "n": 1}], "hex": "0100000001f65637b420be418fb1179d615a3448aad2fbd47316d0d3141f6dfa02c0204a3f010000006b483045022100baf41f32a7a72392c1b77ed4b37489cc99aa72bdf197a3c1958af59b5a166b0c022041da52b3b7f4154ecf6a64cbdeffc478a067fcf054fdc77dd03920eec5abd4840121036c5b8bff6c77b20f5463513f96c9762240b135cd3e391664214b172d41c75380ffffffff02f0580c000000000017a91401bba03ebc2092a802499ad08d09b4dc0c8cc76d8764a0ab01000000001976a914547c87a45364dfcf0d10741c812725b25ac5bd8a88ac00000000", "vin": [{"sequence": 4294967295, "scriptSig": {"hex": "483045022100baf41f32a7a72392c1b77ed4b37489cc99aa72bdf197a3c1958af59b5a166b0c022041da52b3b7f4154ecf6a64cbdeffc478a067fcf054fdc77dd03920eec5abd4840121036c5b8bff6c77b20f5463513f96c9762240b135cd3e391664214b172d41c75380", "asm": "3045022100baf41f32a7a72392c1b77ed4b37489cc99aa72bdf197a3c1958af59b5a166b0c022041da52b3b7f4154ecf6a64cbdeffc478a067fcf054fdc77dd03920eec5abd484[ALL] 036c5b8bff6c77b20f5463513f96c9762240b135cd3e391664214b172d41c75380"}, "vout": 1, "txid": "3f4a20c002fa6d1f14d3d01673d4fbd2aa48345a619d17b18f41be20b43756f6"}], "txid": "a0912c1f8e13e147f7d439124789d826383a8b0971d9d68dea6c9f62e713db40", "blocktime": 1537870928, "version": 1, "confirmations": 11514, "time": 1537870928, "locktime": 0, "vsize": 224, "size": 224}