{"hash": "a0a65f62f42f892d9b70df1136d63ee7ff99e76a89503130a97b2bb6d5054c4b", "blockhash": "0000000000000000000baef3f32e3676a92c3b2e5da21b426e4f302fc371ce76", "vout": [{"scriptPubKey": {"reqSigs": 1, "hex": "76a914f303f48cfa8fcabcadfa2d85316c81cf3c04978588ac", "addresses": ["1P9wwS4uydXtxK6xCUFLV1H96GZ1gG4ibk"], "asm": "OP_DUP OP_HASH160 f303f48cfa8fcabcadfa2d85316c81cf3c049785 OP_EQUALVERIFY OP_CHECKSIG", "type": "pubkeyhash"}, "value": 0.09, "n": 0}, {"scriptPubKey": {"reqSigs": 1, "hex": "76a91403c9afc2c66457b1af2e08fd09021727e198399888ac", "addresses": ["1M2e1DdNCYt9UxTDf4YcDLiqfzBj8g2uw"], "asm": "OP_DUP OP_HASH160 03c9afc2c66457b1af2e08fd09021727e1983998 OP_EQUALVERIFY OP_CHECKSIG", "type": "pubkeyhash"}, "value": 0.00999773, "n": 1}], "hex": "020000000145424e574dab49d6f18eaa64613966e0f56aff929482b960fc7480112bb470c7010000006b483045022100e73bcb9eb85e940c28409d3ed0093887be362cfba870787e7f081872f713f3b402205edffafe52433def49730067d36dbe26ded3fe455706cd3825269abd7ab6caf70121036d64fda2110fbc9e81326b4a4ef2728cdd21014eedc04e46a3595dcb383bb90afeffffff0240548900000000001976a914f303f48cfa8fcabcadfa2d85316c81cf3c04978588ac5d410f00000000001976a91403c9afc2c66457b1af2e08fd09021727e198399888ac16490800", "vin": [{"sequence": 4294967294, "scriptSig": {"hex": "483045022100e73bcb9eb85e940c28409d3ed0093887be362cfba870787e7f081872f713f3b402205edffafe52433def49730067d36dbe26ded3fe455706cd3825269abd7ab6caf70121036d64fda2110fbc9e81326b4a4ef2728cdd21014eedc04e46a3595dcb383bb90a", "asm": "3045022100e73bcb9eb85e940c28409d3ed0093887be362cfba870787e7f081872f713f3b402205edffafe52433def49730067d36dbe26ded3fe455706cd3825269abd7ab6caf7[ALL] 036d64fda2110fbc9e81326b4a4ef2728cdd21014eedc04e46a3595dcb383bb90a"}, "vout": 1, "txid": "c770b42b118074fc60b9829492ff6af5e066396164aa8ef1d649ab4d574e4245"}], "txid": "a0a65f62f42f892d9b70df1136d63ee7ff99e76a89503130a97b2bb6d5054c4b", "blocktime": 1537876114, "version": 2, "confirmations": 11460, "time": 1537876114, "locktime": 542998, "vsize": 226, "size": 226}