{"hash": "a0aface3b94240879c88765d8056253e75e0b21658ecd350402629442f40eb22", "blockhash": "0000000000000000001f0ddff1eddb255c1121bcd4da4f1bc9a0da00cae72433", "vout": [{"scriptPubKey": {"reqSigs": 1, "hex": "76a9149dc0e2aef315ec7e508335fba99c8c3b64ebcc0c88ac", "addresses": ["1FP8A34pV7ddpxMiuWGynGnTXm9AcbXpPu"], "asm": "OP_DUP OP_HASH160 9dc0e2aef315ec7e508335fba99c8c3b64ebcc0c OP_EQUALVERIFY OP_CHECKSIG", "type": "pubkeyhash"}, "value": 0.00077426, "n": 0}, {"scriptPubKey": {"reqSigs": 1, "hex": "a9144ab9cfe4ba181fc1f50e51f6ed8a4ae7bc8d5bbc87", "addresses": ["38W8XBvUPGr4yw8vRnv6zQT1D9xaiMHcq3"], "asm": "OP_HASH160 4ab9cfe4ba181fc1f50e51f6ed8a4ae7bc8d5bbc OP_EQUAL", "type": "scripthash"}, "value": 0.00129, "n": 1}], "hex": "01000000011c7c5296224db2d2fd57e2d61d7a78b9f95bf831fe9195ff85c2ceae4d1dcb01000000006a473044022066411654502f4996196c550cf0fe08fdd1ceaef30f18fcf99f1e1daba7a68e4902206475864f322539f66b8689f1a1a25f691843ff8ae0827da9d47e007da4bd3f6401210241487e37bbc3c9ed00e0dff1f935c4d5b4250703437a26dd44029fd1ec90d080ffffffff02722e0100000000001976a9149dc0e2aef315ec7e508335fba99c8c3b64ebcc0c88ace8f701000000000017a9144ab9cfe4ba181fc1f50e51f6ed8a4ae7bc8d5bbc8700000000", "vin": [{"sequence": 4294967295, "scriptSig": {"hex": "473044022066411654502f4996196c550cf0fe08fdd1ceaef30f18fcf99f1e1daba7a68e4902206475864f322539f66b8689f1a1a25f691843ff8ae0827da9d47e007da4bd3f6401210241487e37bbc3c9ed00e0dff1f935c4d5b4250703437a26dd44029fd1ec90d080", "asm": "3044022066411654502f4996196c550cf0fe08fdd1ceaef30f18fcf99f1e1daba7a68e4902206475864f322539f66b8689f1a1a25f691843ff8ae0827da9d47e007da4bd3f64[ALL] 0241487e37bbc3c9ed00e0dff1f935c4d5b4250703437a26dd44029fd1ec90d080"}, "vout": 0, "txid": "01cb1d4daecec285ff9591fe31f85bf9b9787a1dd6e257fdd2b24d2296527c1c"}], "txid": "a0aface3b94240879c88765d8056253e75e0b21658ecd350402629442f40eb22", "blocktime": 1537872018, "version": 1, "confirmations": 11489, "time": 1537872018, "locktime": 0, "vsize": 223, "size": 223}