{"hash": "a0b3275d4442a76343f023fad571ec4172ee50a86e74ff2597ef513d8614dc31", "blockhash": "0000000000000000001cda96e906b7601b7a6fb1a3b62bca570a9e5d8f4b3de1", "vout": [{"scriptPubKey": {"reqSigs": 1, "hex": "76a914ee5ad0aae8b65dec48359860b4e6ad4789ea597e88ac", "addresses": ["1NjJcboFSG69pEBf6GAxa13uFenitH7siB"], "asm": "OP_DUP OP_HASH160 ee5ad0aae8b65dec48359860b4e6ad4789ea597e OP_EQUALVERIFY OP_CHECKSIG", "type": "pubkeyhash"}, "value": 0.01435896, "n": 0}, {"scriptPubKey": {"reqSigs": 1, "hex": "76a91492f4e93cdca1f120b1e66ebd01403603867ab18188ac", "addresses": ["1EQ33jD8prwgvd27HJKKCrgGrNqS5XPnrW"], "asm": "OP_DUP OP_HASH160 92f4e93cdca1f120b1e66ebd01403603867ab181 OP_EQUALVERIFY OP_CHECKSIG", "type": "pubkeyhash"}, "value": 0.0039, "n": 1}], "hex": "02000000017cd09896aa5625e3f4870d804ec6a20cb0bf598629fb97c49c097dc402e54bd1010000006a473044022006ad89f5d7ab2bbaa353ffa9082e85b26b60e38a03311765f6073732b03c05ae0220290a1d7ed6d19b8c002902dab7efcd80c4c4e1946a3ddd8985a2138b6109e7610121037f30204e3c18919d885b8e84894f0318731ef3d3f6e12bc384c1e9e5c800a6e0feffffff02f8e81500000000001976a914ee5ad0aae8b65dec48359860b4e6ad4789ea597e88ac70f30500000000001976a91492f4e93cdca1f120b1e66ebd01403603867ab18188ac12490800", "vin": [{"sequence": 4294967294, "scriptSig": {"hex": "473044022006ad89f5d7ab2bbaa353ffa9082e85b26b60e38a03311765f6073732b03c05ae0220290a1d7ed6d19b8c002902dab7efcd80c4c4e1946a3ddd8985a2138b6109e7610121037f30204e3c18919d885b8e84894f0318731ef3d3f6e12bc384c1e9e5c800a6e0", "asm": "3044022006ad89f5d7ab2bbaa353ffa9082e85b26b60e38a03311765f6073732b03c05ae0220290a1d7ed6d19b8c002902dab7efcd80c4c4e1946a3ddd8985a2138b6109e761[ALL] 037f30204e3c18919d885b8e84894f0318731ef3d3f6e12bc384c1e9e5c800a6e0"}, "vout": 1, "txid": "d14be502c47d099cc497fb298659bfb00ca2c64e800d87f4e32556aa9698d07c"}], "txid": "a0b3275d4442a76343f023fad571ec4172ee50a86e74ff2597ef513d8614dc31", "blocktime": 1537873282, "version": 2, "confirmations": 11485, "time": 1537873282, "locktime": 542994, "vsize": 225, "size": 225}