{"hash": "4a4653295613d630672c37e2573d1a85ccca359e4df3a1414ff0694f6d3c6cf1", "blockhash": "0000000000000000000dcc0f55137456b1a82d3642486a52398922ac4d620174", "vout": [{"scriptPubKey": {"reqSigs": 1, "hex": "a914992905e317ff65f78238a4ab4e977dc5665ffcc787", "addresses": ["3FerTDocUj4aaC3dRhiiSoaEqDAdggA1AX"], "asm": "OP_HASH160 992905e317ff65f78238a4ab4e977dc5665ffcc7 OP_EQUAL", "type": "scripthash"}, "value": 0.01028894, "n": 0}, {"scriptPubKey": {"reqSigs": 1, "hex": "76a91477f0f47e315ff709108c59c8bddb50d688160fcd88ac", "addresses": ["1BwC4gLb5zoogUnzuK6ECeSY9GDDEDDWh3"], "asm": "OP_DUP OP_HASH160 77f0f47e315ff709108c59c8bddb50d688160fcd OP_EQUALVERIFY OP_CHECKSIG", "type": "pubkeyhash"}, "value": 0.00919306, "n": 1}], "hex": "02000000000102309f9cc977fc89dfa3ee0be7a9218415e406d058c3277f1a91adfba05a9357f447000000171600148988f0da9cf3ea0d026f47b721028f161e9fe7f3feffffff7ef4fa392335b590c1cd4cffe618c30a82860b8f36456a81a1ba6976e64d466901000000171600147d4b5e71c645343aaad73087c40a4e77777d5ebefeffffff021eb30f000000000017a914992905e317ff65f78238a4ab4e977dc5665ffcc7870a070e00000000001976a91477f0f47e315ff709108c59c8bddb50d688160fcd88ac0247304402207fa78d65d383788075b226165ce85a1f6de36ca051e0d775c0e2aaefd81975c902202c7dcf6b6c11ea2ee9471450ca39bea360ae91f0274f72de41b2b233ce8c74f6012103d1e40e2dd079728549fd4ec848744c62e981bfcea3de25ccf1c81bab752dfbf102473044022078bcef94da15511e890adf7c656a78aa09b5829e0140ad671bab7bf8098adbde02206d7d1d24b9b950519ab693cb15f09f502f0e2711ed2c4f3d14fbdde74561bad7012103a52e14d04885276ef1a452ee414e1b487abcb11dfa1b8457b35f43b9b8a2f212a9480800", "vin": [{"txinwitness": ["304402207fa78d65d383788075b226165ce85a1f6de36ca051e0d775c0e2aaefd81975c902202c7dcf6b6c11ea2ee9471450ca39bea360ae91f0274f72de41b2b233ce8c74f601", "03d1e40e2dd079728549fd4ec848744c62e981bfcea3de25ccf1c81bab752dfbf1"], "sequence": 4294967294, "scriptSig": {"hex": "1600148988f0da9cf3ea0d026f47b721028f161e9fe7f3", "asm": "00148988f0da9cf3ea0d026f47b721028f161e9fe7f3"}, "vout": 71, "txid": "f457935aa0fbad911a7f27c358d006e4158421a9e70beea3df89fc77c99c9f30"}, {"txinwitness": ["3044022078bcef94da15511e890adf7c656a78aa09b5829e0140ad671bab7bf8098adbde02206d7d1d24b9b950519ab693cb15f09f502f0e2711ed2c4f3d14fbdde74561bad701", "03a52e14d04885276ef1a452ee414e1b487abcb11dfa1b8457b35f43b9b8a2f212"], "sequence": 4294967294, "scriptSig": {"hex": "1600147d4b5e71c645343aaad73087c40a4e77777d5ebe", "asm": "00147d4b5e71c645343aaad73087c40a4e77777d5ebe"}, "vout": 1, "txid": "69464de67669baa1816a45368f0b86820ac318e6ff4ccdc190b5352339faf47e"}], "txid": "a0b57dc80b41be5027c20a1bc8f07d2c14204f773837740b4a56a5ca8b92cd8d", "blocktime": 1537870268, "version": 2, "confirmations": 11516, "time": 1537870268, "locktime": 542889, "vsize": 258, "size": 420}