{"hash": "f76e45db2f7bac96af8f80d5f516f318af2ebacc54192bb2238d8cbd2dcda1a1", "blockhash": "0000000000000000001f0ddff1eddb255c1121bcd4da4f1bc9a0da00cae72433", "vout": [{"scriptPubKey": {"reqSigs": 1, "hex": "a914094974f3e49671ff496015a26568962d8072a3ba87", "addresses": ["32Y8199vVpRa8FB4kNdV5JzSgzHpQ8MKVY"], "asm": "OP_HASH160 094974f3e49671ff496015a26568962d8072a3ba OP_EQUAL", "type": "scripthash"}, "value": 0.27018571, "n": 0}, {"scriptPubKey": {"reqSigs": 1, "hex": "a9144e2663484dfc72dcb1724c6b55e7b7655e43ad8a87", "addresses": ["38pEcjpnqXccYyyt6U6hJe13ifTgQQn7rJ"], "asm": "OP_HASH160 4e2663484dfc72dcb1724c6b55e7b7655e43ad8a OP_EQUAL", "type": "scripthash"}, "value": 0.00058629, "n": 1}], "hex": "020000000001011228a03ba736c79f307d485a88ea5fb3ef9be08cff3f902d66a920aae2ca9b630000000017160014dcfdb3c27fa44685e324ce834a3664f139cb2a58ffffffff024b459c010000000017a914094974f3e49671ff496015a26568962d8072a3ba8705e500000000000017a9144e2663484dfc72dcb1724c6b55e7b7655e43ad8a8702473044022075e107aa8e4f2abcbbfd37e332494600d91c2c6386772efa0569c188d971dc75022001e954302b98f133d4eb865c927582d50b5cfe83cdba58a0c295495123464d5d01210256dd79a5d92833a719be7b51d190adafe7a0294a97df073019d7d55142152c7300000000", "vin": [{"txinwitness": ["3044022075e107aa8e4f2abcbbfd37e332494600d91c2c6386772efa0569c188d971dc75022001e954302b98f133d4eb865c927582d50b5cfe83cdba58a0c295495123464d5d01", "0256dd79a5d92833a719be7b51d190adafe7a0294a97df073019d7d55142152c73"], "sequence": 4294967295, "scriptSig": {"hex": "160014dcfdb3c27fa44685e324ce834a3664f139cb2a58", "asm": "0014dcfdb3c27fa44685e324ce834a3664f139cb2a58"}, "vout": 0, "txid": "639bcae2aa20a9662d903fff8ce09befb35fea885a487d309fc736a73ba02812"}], "txid": "a0bc31b4e120820aeb9495636dbaa6d26e8eb7962a461a5969f3acff1094cbb5", "blocktime": 1537872018, "version": 2, "confirmations": 11489, "time": 1537872018, "locktime": 0, "vsize": 166, "size": 247}