{"hash": "a0bc7c37217d892df04b0e634e49785950c94a6ad5657f0b9ac7f5e965b1e840", "blockhash": "0000000000000000001cda96e906b7601b7a6fb1a3b62bca570a9e5d8f4b3de1", "vout": [{"scriptPubKey": {"reqSigs": 1, "hex": "76a914b43d5b7472364fc771b6a9d0c201ab292502d49788ac", "addresses": ["1HS28hvmCEiEQYJk4aqTdtkaVixU6GpNVU"], "asm": "OP_DUP OP_HASH160 b43d5b7472364fc771b6a9d0c201ab292502d497 OP_EQUALVERIFY OP_CHECKSIG", "type": "pubkeyhash"}, "value": 0.00314945, "n": 0}, {"scriptPubKey": {"reqSigs": 1, "hex": "76a914665bfc4d34bf3aaef605ed6f2dc965f2da4e0f2388ac", "addresses": ["1ALE7qRrxY841r9hf3VFHQcJ5soytTzHBQ"], "asm": "OP_DUP OP_HASH160 665bfc4d34bf3aaef605ed6f2dc965f2da4e0f23 OP_EQUALVERIFY OP_CHECKSIG", "type": "pubkeyhash"}, "value": 0.04371305, "n": 1}], "hex": "0100000001740e289a7f719a7679c603b003fdbbcf20e499f1b03a3b1d9843eeec77db41bb000000006a473044022069aed911f1bf960bff1c25ffefe6fdf1b30415ba18b8110fe85892d9362e50ce022006000551fe207c15fc6aa960523c53c0d1d45c17a3c11d9fe0a5693566e9bf7a012103ddfb4658f8073e8a4a288ee331962162fd2b886e5a577ba7d175500e47000559ffffffff0241ce0400000000001976a914b43d5b7472364fc771b6a9d0c201ab292502d49788ac69b34200000000001976a914665bfc4d34bf3aaef605ed6f2dc965f2da4e0f2388ac00000000", "vin": [{"sequence": 4294967295, "scriptSig": {"hex": "473044022069aed911f1bf960bff1c25ffefe6fdf1b30415ba18b8110fe85892d9362e50ce022006000551fe207c15fc6aa960523c53c0d1d45c17a3c11d9fe0a5693566e9bf7a012103ddfb4658f8073e8a4a288ee331962162fd2b886e5a577ba7d175500e47000559", "asm": "3044022069aed911f1bf960bff1c25ffefe6fdf1b30415ba18b8110fe85892d9362e50ce022006000551fe207c15fc6aa960523c53c0d1d45c17a3c11d9fe0a5693566e9bf7a[ALL] 03ddfb4658f8073e8a4a288ee331962162fd2b886e5a577ba7d175500e47000559"}, "vout": 0, "txid": "bb41db77ecee43981d3b3ab0f199e420cfbbfd03b003c679769a717f9a280e74"}], "txid": "a0bc7c37217d892df04b0e634e49785950c94a6ad5657f0b9ac7f5e965b1e840", "blocktime": 1537873282, "version": 1, "confirmations": 11484, "time": 1537873282, "locktime": 0, "vsize": 225, "size": 225}