{"hash": "c3d8b0a583f087f8107e25e48b748e1191f7583c2b44b897862d0a9e12e41197", "blockhash": "0000000000000000000e13cef7c366c0283d82e591d1acd082e914b08063cdf1", "vout": [{"scriptPubKey": {"reqSigs": 1, "hex": "a914797ca384084708877b06b642b72c83aa4147f56087", "addresses": ["3CmNzoiVAecyA5iYxXbNdGXquT6TDFzyDv"], "asm": "OP_HASH160 797ca384084708877b06b642b72c83aa4147f560 OP_EQUAL", "type": "scripthash"}, "value": 0.01266009, "n": 0}, {"scriptPubKey": {"reqSigs": 1, "hex": "0014a6cd2d34b0ee5fe620caceebdb6d9f2d4ed51d8d", "addresses": ["bc1q5mxj6d9sae07vgx2em4akmvl948d28vd9nzz05"], "asm": "0 a6cd2d34b0ee5fe620caceebdb6d9f2d4ed51d8d", "type": "witness_v0_keyhash"}, "value": 0.59482427, "n": 1}], "hex": "010000000001017ab58f2dd928b4ba3c0015aa7288146b12b6fc038e8e2dbe15bc083c5a6d22320100000000ffffffff02595113000000000017a914797ca384084708877b06b642b72c83aa4147f560873ba18b0300000000160014a6cd2d34b0ee5fe620caceebdb6d9f2d4ed51d8d02483045022100e4f3ecfe7d4c3c72973b92eaa3755aefb1ad9ff088e6688d012c712cd4d6fa5c022004127612e433a6160bff8eae0ee4994bce09c23bf564eb7f772f6c8e3f3555dd01210210a2bd6f2cb0fd72929e1504604ed46f759413393742400c9582ba56efef91e700000000", "vin": [{"txinwitness": ["3045022100e4f3ecfe7d4c3c72973b92eaa3755aefb1ad9ff088e6688d012c712cd4d6fa5c022004127612e433a6160bff8eae0ee4994bce09c23bf564eb7f772f6c8e3f3555dd01", "0210a2bd6f2cb0fd72929e1504604ed46f759413393742400c9582ba56efef91e7"], "sequence": 4294967295, "scriptSig": {"hex": "", "asm": ""}, "vout": 1, "txid": "32226d5a3c08bc15be2d8e8e03fcb6126b148872aa15003cbab428d92d8fb57a"}], "txid": "a0bd719eaf5cdad7aacc63c8578729179dfe7b1ba4d540d5d4e8a0e9330dfb61", "blocktime": 1537871767, "version": 1, "confirmations": 11495, "time": 1537871767, "locktime": 0, "vsize": 142, "size": 224}