{"hash": "794313a17ee4f12657032851af19044131e77af69237144c5dbb0627fd9ce10b", "blockhash": "0000000000000000000dcc0f55137456b1a82d3642486a52398922ac4d620174", "vout": [{"scriptPubKey": {"reqSigs": 1, "hex": "76a9146ba452f274ecf452cc8597681459d964805ee7a688ac", "addresses": ["1ApA9xayjYuLWjCW4kjFziMwXQj3W4Tokk"], "asm": "OP_DUP OP_HASH160 6ba452f274ecf452cc8597681459d964805ee7a6 OP_EQUALVERIFY OP_CHECKSIG", "type": "pubkeyhash"}, "value": 0.0062, "n": 0}, {"scriptPubKey": {"reqSigs": 1, "hex": "a914979b3fccd6f2dd96256c19bd59ba4f78161f10a987", "addresses": ["3FWdwR2N5oN4YUK5TJWYdA3uHbQkDg6cg8"], "asm": "OP_HASH160 979b3fccd6f2dd96256c19bd59ba4f78161f10a9 OP_EQUAL", "type": "scripthash"}, "value": 0.01000348, "n": 1}], "hex": "020000000001030de44e28df2081eb0781e4b88212d2c2698f031310c2d33e00ad340f9f091d13000000001716001410e3be8a13ab5449f41c202ad9c6c9cc507e8cfdfdffffff94cd670984a51d9f1b563e74f760b67d828bc6e40f56c0a4bdfcd4f7a4f34dfe000000001716001465bd43b2d2daf2e830cf1234c74f5683d64083dffdffffffb8b1281c75c16c5c10bf4625173acfa27a3089c36b74fb8199120bdac3de980f000000001716001416ec177731aa23691028dff896437651e2a6e304fdffffff02e0750900000000001976a9146ba452f274ecf452cc8597681459d964805ee7a688ac9c430f000000000017a914979b3fccd6f2dd96256c19bd59ba4f78161f10a987024830450221009b555bf7c9e102092877a0d2f231485789970466603273b2326efdfdb982ef820220746201b372a0bf47dcbe0a71898944e36b641da853ced8bf462e753786e35f460121026ecd0752f789a9b353fefbd73d50d2a372cef64fcc9920e7d46685757b22263f024730440220272df0b6380181b77342d80c034ac9ea820a52959d40c0bc40c1a463260a72810220459c6a8d2b0738342bdd7c1107425924435dc6112d9f67b94e9d464167afe1f30121028539f4d0d0ad6906685fa75b58a492a98de65c7a9b3c522c47a392548e8025cf0247304402203dab054941b0ae2cc8f9c24691e1cc31bc6706c57a9ffcbd3b812ff2324b2c5002203b1dcb2c34af3fc3c5ff2602a0338d2e3518a64ba9ddb38022ae7da61444ea6c012103189c569f2963bd68093cc7911774c2e9bc2c37c8063050958bb066fe8242241300000000", "vin": [{"txinwitness": ["30450221009b555bf7c9e102092877a0d2f231485789970466603273b2326efdfdb982ef820220746201b372a0bf47dcbe0a71898944e36b641da853ced8bf462e753786e35f4601", "026ecd0752f789a9b353fefbd73d50d2a372cef64fcc9920e7d46685757b22263f"], "sequence": 4294967293, "scriptSig": {"hex": "16001410e3be8a13ab5449f41c202ad9c6c9cc507e8cfd", "asm": "001410e3be8a13ab5449f41c202ad9c6c9cc507e8cfd"}, "vout": 0, "txid": "131d099f0f34ad003ed3c21013038f69c2d21282b8e48107eb8120df284ee40d"}, {"txinwitness": ["30440220272df0b6380181b77342d80c034ac9ea820a52959d40c0bc40c1a463260a72810220459c6a8d2b0738342bdd7c1107425924435dc6112d9f67b94e9d464167afe1f301", "028539f4d0d0ad6906685fa75b58a492a98de65c7a9b3c522c47a392548e8025cf"], "sequence": 4294967293, "scriptSig": {"hex": "16001465bd43b2d2daf2e830cf1234c74f5683d64083df", "asm": "001465bd43b2d2daf2e830cf1234c74f5683d64083df"}, "vout": 0, "txid": "fe4df3a4f7d4fcbda4c0560fe4c68b827db660f7743e561b9f1da5840967cd94"}, {"txinwitness": ["304402203dab054941b0ae2cc8f9c24691e1cc31bc6706c57a9ffcbd3b812ff2324b2c5002203b1dcb2c34af3fc3c5ff2602a0338d2e3518a64ba9ddb38022ae7da61444ea6c01", "03189c569f2963bd68093cc7911774c2e9bc2c37c8063050958bb066fe82422413"], "sequence": 4294967293, "scriptSig": {"hex": "16001416ec177731aa23691028dff896437651e2a6e304", "asm": "001416ec177731aa23691028dff896437651e2a6e304"}, "vout": 0, "txid": "0f98dec3da0b129981fb746bc389307aa2cf3a172546bf105c6cc1751c28b1b8"}], "txid": "a0c4f76b5d58a5d734e42105ea0cf56a7eb58ed6606bffa762e9e57fa6e2a7f3", "blocktime": 1537870268, "version": 2, "confirmations": 11518, "time": 1537870268, "locktime": 0, "vsize": 349, "size": 592}