{"hash": "0f07e3ba5e5aacf0f8812d72608377d02fe4714369db8d4638955dc9043446e4", "blockhash": "00000000000000000018f53835495a110e01622372bf6ae95dc86f2b0ab887b0", "vout": [{"scriptPubKey": {"reqSigs": 1, "hex": "a914909e57bec994020ef37c01523ac275f5414ad0ab87", "addresses": ["3Esgv1p7hNjqQiK6MTC6hX2TC3CrqR2e6g"], "asm": "OP_HASH160 909e57bec994020ef37c01523ac275f5414ad0ab OP_EQUAL", "type": "scripthash"}, "value": 0.02478758, "n": 0}, {"scriptPubKey": {"reqSigs": 1, "hex": "76a9147990f4cdfd85851dcd659000acff7084d7c25c4b88ac", "addresses": ["1C5nQx5KyN7GQQRkVCDWabHRFWQrRGb9fC"], "asm": "OP_DUP OP_HASH160 7990f4cdfd85851dcd659000acff7084d7c25c4b OP_EQUALVERIFY OP_CHECKSIG", "type": "pubkeyhash"}, "value": 0.008905, "n": 1}], "hex": "020000000001011782c2e1c80029bf6d864a99c7c161eb8f5cabcd738323ef9f3fb6cee3a803ec000000001716001479fd6aef7ce16a43f08529715f2ee1fffbb09e86feffffff02a6d225000000000017a914909e57bec994020ef37c01523ac275f5414ad0ab8784960d00000000001976a9147990f4cdfd85851dcd659000acff7084d7c25c4b88ac024730440220705d43fd02ce3960c803fad55c8dbca375f146f0bb7b1365c87580e7a7bb9c8c022051ff15585e98feeae5bc2346900956e9f20c6d536edd82dfd4df73f257dc720001210217bd61f4a62d562688bf22dca0d1cdd98fde3840e4651773ba55a2e336f2f20e0e490800", "vin": [{"txinwitness": ["30440220705d43fd02ce3960c803fad55c8dbca375f146f0bb7b1365c87580e7a7bb9c8c022051ff15585e98feeae5bc2346900956e9f20c6d536edd82dfd4df73f257dc720001", "0217bd61f4a62d562688bf22dca0d1cdd98fde3840e4651773ba55a2e336f2f20e"], "sequence": 4294967294, "scriptSig": {"hex": "16001479fd6aef7ce16a43f08529715f2ee1fffbb09e86", "asm": "001479fd6aef7ce16a43f08529715f2ee1fffbb09e86"}, "vout": 0, "txid": "ec03a8e3ceb63f9fef238373cdab5c8feb61c1c7994a866dbf2900c8e1c28217"}], "txid": "a0c735c34fbbbfa1e10a54ce65d0e6a5daa50c278d1bef9dab1c38088b8512bb", "blocktime": 1537870928, "version": 2, "confirmations": 11514, "time": 1537870928, "locktime": 542990, "vsize": 168, "size": 249}