{"hash": "a0c87cf770c39b721105aec471a136763907ba6de1dcb200878aa3c1b02009d6", "blockhash": "0000000000000000000baef3f32e3676a92c3b2e5da21b426e4f302fc371ce76", "vout": [{"scriptPubKey": {"reqSigs": 1, "hex": "76a914906aaad248dceeb31f87c7dc47f85af90a58191c88ac", "addresses": ["1EAc5zjuURp6za5JmUS9VbkXeFPmMbqzq8"], "asm": "OP_DUP OP_HASH160 906aaad248dceeb31f87c7dc47f85af90a58191c OP_EQUALVERIFY OP_CHECKSIG", "type": "pubkeyhash"}, "value": 0.01988343, "n": 0}, {"scriptPubKey": {"reqSigs": 1, "hex": "a914ac5a590b06e63cb6e44a4c2f898048d6a655826b87", "addresses": ["3HQLP1rLqnMmUR4xMoSfEPU3vafsVNThFf"], "asm": "OP_HASH160 ac5a590b06e63cb6e44a4c2f898048d6a655826b OP_EQUAL", "type": "scripthash"}, "value": 0.15, "n": 1}], "hex": "01000000012da402a87bd8222958adf818a1cf5bac17963097d313371f4b80ff05dfc1a2d2000000006b48304502210081ec598ef60b9cac2427246f2194a0d8aeed5d7c162b6a171055597e243440c30220560d07c4812648654bd7cc1ee44a309df77920f7adb96f959a14c8045b4a1816012103d96cf682125d31c38b7710905081548ece6684adea9992d92092e378c96d84d2fdffffff02f7561e00000000001976a914906aaad248dceeb31f87c7dc47f85af90a58191c88acc0e1e4000000000017a914ac5a590b06e63cb6e44a4c2f898048d6a655826b8717490800", "vin": [{"sequence": 4294967293, "scriptSig": {"hex": "48304502210081ec598ef60b9cac2427246f2194a0d8aeed5d7c162b6a171055597e243440c30220560d07c4812648654bd7cc1ee44a309df77920f7adb96f959a14c8045b4a1816012103d96cf682125d31c38b7710905081548ece6684adea9992d92092e378c96d84d2", "asm": "304502210081ec598ef60b9cac2427246f2194a0d8aeed5d7c162b6a171055597e243440c30220560d07c4812648654bd7cc1ee44a309df77920f7adb96f959a14c8045b4a1816[ALL] 03d96cf682125d31c38b7710905081548ece6684adea9992d92092e378c96d84d2"}, "vout": 0, "txid": "d2a2c1df05ff804b1f3713d397309617ac5bcfa118f8ad582922d87ba802a42d"}], "txid": "a0c87cf770c39b721105aec471a136763907ba6de1dcb200878aa3c1b02009d6", "blocktime": 1537876114, "version": 1, "confirmations": 11460, "time": 1537876114, "locktime": 542999, "vsize": 224, "size": 224}