{"hash": "a0caffc5b20e18560503e68c17a6c274ba9f7e1a2350e9c7904e00635adc84a5", "blockhash": "0000000000000000001f76057863aec43deb6fa401d9628bb513d65a8098bfab", "vout": [{"scriptPubKey": {"reqSigs": 1, "hex": "76a9147c7c75e28780b893e6f1946914bd8efd51ab815c88ac", "addresses": ["1CMDtTHoEQGcoQw9tYdCHF2APbXsdn5gEv"], "asm": "OP_DUP OP_HASH160 7c7c75e28780b893e6f1946914bd8efd51ab815c OP_EQUALVERIFY OP_CHECKSIG", "type": "pubkeyhash"}, "value": 0.06418486, "n": 0}, {"scriptPubKey": {"reqSigs": 1, "hex": "76a9140360536689ff66c918c0e01bd77da00bdb2b28e688ac", "addresses": ["1JrRQgN6NcDLJKn8JLc5giCb4xQ4su9Xt"], "asm": "OP_DUP OP_HASH160 0360536689ff66c918c0e01bd77da00bdb2b28e6 OP_EQUALVERIFY OP_CHECKSIG", "type": "pubkeyhash"}, "value": 0.19118131, "n": 1}], "hex": "01000000025ad41cf536472eaa5a8231d76f879bb3e054a5b04d0535979b4134826a8b0520000000006a47304402203d9b6c072f0d3fb3e24826a96dfb1482127cb00ad8c7a410df372003081edb5b02207383c055354ccb6cc25452fc2ba5ee07a5fdeb7205adfd1ffe796e29b01d591a01210348b48f2b214b7f7513905eee1927c239a0093fff6686515f408cc1e4210f3cf9ffffffff407f39101e4273a701f542695d28685ac2f2a94df9b69e90e3a231c66a9538a0010000006a473044022017d153d7c426a867ded61564ad271275d6a5cda065a0d10841ac560850645ac80220376529adc7b9088742f97e2dc28a7dd076d9093d3ee770993c95a3f540e3d4e4012103f187300ccb8a83f818c60bf529f51a7e8bcec445a52dae5079022de009d97b4cffffffff0236f06100000000001976a9147c7c75e28780b893e6f1946914bd8efd51ab815c88ac33b82301000000001976a9140360536689ff66c918c0e01bd77da00bdb2b28e688ac00000000", "vin": [{"sequence": 4294967295, "scriptSig": {"hex": "47304402203d9b6c072f0d3fb3e24826a96dfb1482127cb00ad8c7a410df372003081edb5b02207383c055354ccb6cc25452fc2ba5ee07a5fdeb7205adfd1ffe796e29b01d591a01210348b48f2b214b7f7513905eee1927c239a0093fff6686515f408cc1e4210f3cf9", "asm": "304402203d9b6c072f0d3fb3e24826a96dfb1482127cb00ad8c7a410df372003081edb5b02207383c055354ccb6cc25452fc2ba5ee07a5fdeb7205adfd1ffe796e29b01d591a[ALL] 0348b48f2b214b7f7513905eee1927c239a0093fff6686515f408cc1e4210f3cf9"}, "vout": 0, "txid": "20058b6a8234419b9735054db0a554e0b39b876fd731825aaa2e4736f51cd45a"}, {"sequence": 4294967295, "scriptSig": {"hex": "473044022017d153d7c426a867ded61564ad271275d6a5cda065a0d10841ac560850645ac80220376529adc7b9088742f97e2dc28a7dd076d9093d3ee770993c95a3f540e3d4e4012103f187300ccb8a83f818c60bf529f51a7e8bcec445a52dae5079022de009d97b4c", "asm": "3044022017d153d7c426a867ded61564ad271275d6a5cda065a0d10841ac560850645ac80220376529adc7b9088742f97e2dc28a7dd076d9093d3ee770993c95a3f540e3d4e4[ALL] 03f187300ccb8a83f818c60bf529f51a7e8bcec445a52dae5079022de009d97b4c"}, "vout": 1, "txid": "a038956ac631a2e3909eb6f94da9f2c25a68285d6942f501a773421e10397f40"}], "txid": "a0caffc5b20e18560503e68c17a6c274ba9f7e1a2350e9c7904e00635adc84a5", "blocktime": 1537873891, "version": 1, "confirmations": 11475, "time": 1537873891, "locktime": 0, "vsize": 372, "size": 372}