{"hash": "a0ccc85d0c5066b51686146f1bc3cbb8a5e794966911f90bdb905c691efdba87", "blockhash": "00000000000000000018f53835495a110e01622372bf6ae95dc86f2b0ab887b0", "vout": [{"scriptPubKey": {"reqSigs": 1, "hex": "76a914ac50ad9f53f7a7ab0de55f1f7bd5c146a87029e088ac", "addresses": ["1Gi7scgt19CidGz8ZpHTrtsMUfXLS6Wt8Q"], "asm": "OP_DUP OP_HASH160 ac50ad9f53f7a7ab0de55f1f7bd5c146a87029e0 OP_EQUALVERIFY OP_CHECKSIG", "type": "pubkeyhash"}, "value": 0.08600719, "n": 0}, {"scriptPubKey": {"type": "nulldata", "hex": "6a146f6d6e69000000000000001f0000005d15efde00", "asm": "OP_RETURN 6f6d6e69000000000000001f0000005d15efde00"}, "value": 0.0, "n": 1}, {"scriptPubKey": {"reqSigs": 1, "hex": "76a914ac50ad9f53f7a7ab0de55f1f7bd5c146a87029e088ac", "addresses": ["1Gi7scgt19CidGz8ZpHTrtsMUfXLS6Wt8Q"], "asm": "OP_DUP OP_HASH160 ac50ad9f53f7a7ab0de55f1f7bd5c146a87029e0 OP_EQUALVERIFY OP_CHECKSIG", "type": "pubkeyhash"}, "value": 5.46e-06, "n": 2}], "hex": "0100000002846a30d3663c3eefa670186b372b5f944c60f64c260f6276093c66ef762670f7000000006b483045022100ea40ba0fd8f0a5aa4f9b04a4985fd2cdf83e186730d19f55b3ea36a61530f03502202de89e553d9acdf9737e8691665088fc9c58c62cb0ba0741bf29fa77cbcbad22012102f01c4c8727cae47721e6d188ba5650434238172aa71957e8c49bcbffa863dc62ffffffffab75c880d79ebb974796a2f661db92ef530c706aa437edde5879c9e51b98a464000000006b483045022100e07790075b7a958a635c768867bdf73765591abad960407381e37d8677342b1502207febf6c80b5927d6c98ec083d1690c8d6a55ab665a83a9cb21fe12882ada67660121035261cbee3658f2d5eda72974ecb86224ec61e3b879b7a7e0f69e87ddfd028580ffffffff038f3c8300000000001976a914ac50ad9f53f7a7ab0de55f1f7bd5c146a87029e088ac0000000000000000166a146f6d6e69000000000000001f0000005d15efde0022020000000000001976a914ac50ad9f53f7a7ab0de55f1f7bd5c146a87029e088ac00000000", "vin": [{"sequence": 4294967295, "scriptSig": {"hex": "483045022100ea40ba0fd8f0a5aa4f9b04a4985fd2cdf83e186730d19f55b3ea36a61530f03502202de89e553d9acdf9737e8691665088fc9c58c62cb0ba0741bf29fa77cbcbad22012102f01c4c8727cae47721e6d188ba5650434238172aa71957e8c49bcbffa863dc62", "asm": "3045022100ea40ba0fd8f0a5aa4f9b04a4985fd2cdf83e186730d19f55b3ea36a61530f03502202de89e553d9acdf9737e8691665088fc9c58c62cb0ba0741bf29fa77cbcbad22[ALL] 02f01c4c8727cae47721e6d188ba5650434238172aa71957e8c49bcbffa863dc62"}, "vout": 0, "txid": "f7702676ef663c0976620f264cf6604c945f2b376b1870a6ef3e3c66d3306a84"}, {"sequence": 4294967295, "scriptSig": {"hex": "483045022100e07790075b7a958a635c768867bdf73765591abad960407381e37d8677342b1502207febf6c80b5927d6c98ec083d1690c8d6a55ab665a83a9cb21fe12882ada67660121035261cbee3658f2d5eda72974ecb86224ec61e3b879b7a7e0f69e87ddfd028580", "asm": "3045022100e07790075b7a958a635c768867bdf73765591abad960407381e37d8677342b1502207febf6c80b5927d6c98ec083d1690c8d6a55ab665a83a9cb21fe12882ada6766[ALL] 035261cbee3658f2d5eda72974ecb86224ec61e3b879b7a7e0f69e87ddfd028580"}, "vout": 0, "txid": "64a4981be5c97958deed37a46a700c53ef92db61f6a2964797bb9ed780c875ab"}], "txid": "a0ccc85d0c5066b51686146f1bc3cbb8a5e794966911f90bdb905c691efdba87", "blocktime": 1537870928, "version": 1, "confirmations": 11512, "time": 1537870928, "locktime": 0, "vsize": 405, "size": 405}