{"hash": "a0ce3410c4e9230c2b2a1fdc0a6553a8ea339d9ce4249fa48bca9971c22b04fb", "blockhash": "00000000000000000024a2167bbff67b0be802c0b01cdd79e6331c2be6459f87", "vout": [{"scriptPubKey": {"reqSigs": 1, "hex": "76a914c5cbff898dafc3d01641a1dcec741c670ff0530688ac", "addresses": ["1K2rVqLuwqaQHHq6NjGFYkWwaM58v8kkZa"], "asm": "OP_DUP OP_HASH160 c5cbff898dafc3d01641a1dcec741c670ff05306 OP_EQUALVERIFY OP_CHECKSIG", "type": "pubkeyhash"}, "value": 1.453e-05, "n": 0}, {"scriptPubKey": {"reqSigs": 1, "hex": "a914240c09c72c56dfa6f82296db098c7d91b36ed0a387", "addresses": ["34ycfstH2hUfd7NsK3GpcyWA195oqNvWQc"], "asm": "OP_HASH160 240c09c72c56dfa6f82296db098c7d91b36ed0a3 OP_EQUAL", "type": "scripthash"}, "value": 0.00311826, "n": 1}], "hex": "010000000531f88d950f22ff85fe693dfd239a8779b189e5ab88a955f2b52fc19d16bdd448000000006b483045022100eaa9e95178e23399709bb90be276990d5984062ca95530f4780e6005a826a8f70220304c3432b3438a18b478895eb1a4a065c64e579eea3a523839e92b36eb40935f012102309acd2277e9bd9dea23dac153710dda1f0dfc08dce048ca4546427160f651b2ffffffffdd35586f8a42ee9d2beb114380af3b6e291a67c8c31146f9f14885855dc1ee6f010000006a47304402206b08254c784a0e9263d2407d0c659ef1be1abca77eeabf14a607983f1933bc6402200b9e6962f0260508c64eb0ef726240ca79ecd279435412ed274cafb2c7fef3d9012102d6aa2f3b5a990ff969af8c3db635489f3029df2751704e03e7dc8f27b80ef764ffffffffd17e9dbc1c640b11e760177bd67aa4c40ccf2cb746dfad03ce4692f63590b79c010000006b483045022100ac5efe5b5664f623427327f82a6a22c394bd0a1b22cf1e653fa5533da50eca8e02200a39eada50b1b0e6066b73e1fbfd46ebc7f6aef0607100564ca07393f5c6c7560121035b9a59fd709a170707f5744d4570caf5a5ede38800d5c7a637e326104aeca79dfffffffffe70c4d9d07788aaf3f8f2763493984dfef2776a347170a0c2a2a5f1b545e9c6010000006a47304402200a87c759ac1872a47c8677a07944f756e96b9164f2c0f97b6834bb6567d9801902200a72a482119f80e5da0f8fc6638037441cc0825e493519e54a47148d6031623c012103b7b45d97aa541e30bb582a0126ae08fc9f18b197d6fb3c7d3563b7462c822ee7ffffffffd380ce32497bca46b9daafb6ae50e5b8c0294e9017ceb0fa7ca92af273387fd1010000006a4730440220270a8e66705eec96022a4f975c7fe32b8d5924b9ffcb94155b44a571f3ff4ce402200254521eeb4d3c7e68da0fc59a16a3c3f62cf961de390a4169d7d8ee87dc79b60121035b9a59fd709a170707f5744d4570caf5a5ede38800d5c7a637e326104aeca79dffffffff02ad050000000000001976a914c5cbff898dafc3d01641a1dcec741c670ff0530688ac12c204000000000017a914240c09c72c56dfa6f82296db098c7d91b36ed0a38700000000", "vin": [{"sequence": 4294967295, "scriptSig": {"hex": "483045022100eaa9e95178e23399709bb90be276990d5984062ca95530f4780e6005a826a8f70220304c3432b3438a18b478895eb1a4a065c64e579eea3a523839e92b36eb40935f012102309acd2277e9bd9dea23dac153710dda1f0dfc08dce048ca4546427160f651b2", "asm": "3045022100eaa9e95178e23399709bb90be276990d5984062ca95530f4780e6005a826a8f70220304c3432b3438a18b478895eb1a4a065c64e579eea3a523839e92b36eb40935f[ALL] 02309acd2277e9bd9dea23dac153710dda1f0dfc08dce048ca4546427160f651b2"}, "vout": 0, "txid": "48d4bd169dc12fb5f255a988abe589b179879a23fd3d69fe85ff220f958df831"}, {"sequence": 4294967295, "scriptSig": {"hex": "47304402206b08254c784a0e9263d2407d0c659ef1be1abca77eeabf14a607983f1933bc6402200b9e6962f0260508c64eb0ef726240ca79ecd279435412ed274cafb2c7fef3d9012102d6aa2f3b5a990ff969af8c3db635489f3029df2751704e03e7dc8f27b80ef764", "asm": "304402206b08254c784a0e9263d2407d0c659ef1be1abca77eeabf14a607983f1933bc6402200b9e6962f0260508c64eb0ef726240ca79ecd279435412ed274cafb2c7fef3d9[ALL] 02d6aa2f3b5a990ff969af8c3db635489f3029df2751704e03e7dc8f27b80ef764"}, "vout": 1, "txid": "6feec15d858548f1f94611c3c8671a296e3baf804311eb2b9dee428a6f5835dd"}, {"sequence": 4294967295, "scriptSig": {"hex": "483045022100ac5efe5b5664f623427327f82a6a22c394bd0a1b22cf1e653fa5533da50eca8e02200a39eada50b1b0e6066b73e1fbfd46ebc7f6aef0607100564ca07393f5c6c7560121035b9a59fd709a170707f5744d4570caf5a5ede38800d5c7a637e326104aeca79d", "asm": "3045022100ac5efe5b5664f623427327f82a6a22c394bd0a1b22cf1e653fa5533da50eca8e02200a39eada50b1b0e6066b73e1fbfd46ebc7f6aef0607100564ca07393f5c6c756[ALL] 035b9a59fd709a170707f5744d4570caf5a5ede38800d5c7a637e326104aeca79d"}, "vout": 1, "txid": "9cb79035f69246ce03addf46b72ccf0cc4a47ad67b1760e7110b641cbc9d7ed1"}, {"sequence": 4294967295, "scriptSig": {"hex": "47304402200a87c759ac1872a47c8677a07944f756e96b9164f2c0f97b6834bb6567d9801902200a72a482119f80e5da0f8fc6638037441cc0825e493519e54a47148d6031623c012103b7b45d97aa541e30bb582a0126ae08fc9f18b197d6fb3c7d3563b7462c822ee7", "asm": "304402200a87c759ac1872a47c8677a07944f756e96b9164f2c0f97b6834bb6567d9801902200a72a482119f80e5da0f8fc6638037441cc0825e493519e54a47148d6031623c[ALL] 03b7b45d97aa541e30bb582a0126ae08fc9f18b197d6fb3c7d3563b7462c822ee7"}, "vout": 1, "txid": "c6e945b5f1a5a2c2a07071346a77f2fe4d98933476f2f8f3aa8877d0d9c470fe"}, {"sequence": 4294967295, "scriptSig": {"hex": "4730440220270a8e66705eec96022a4f975c7fe32b8d5924b9ffcb94155b44a571f3ff4ce402200254521eeb4d3c7e68da0fc59a16a3c3f62cf961de390a4169d7d8ee87dc79b60121035b9a59fd709a170707f5744d4570caf5a5ede38800d5c7a637e326104aeca79d", "asm": "30440220270a8e66705eec96022a4f975c7fe32b8d5924b9ffcb94155b44a571f3ff4ce402200254521eeb4d3c7e68da0fc59a16a3c3f62cf961de390a4169d7d8ee87dc79b6[ALL] 035b9a59fd709a170707f5744d4570caf5a5ede38800d5c7a637e326104aeca79d"}, "vout": 1, "txid": "d17f3873f22aa97cfab0ce17904e29c0b8e550aeb6afdab946ca7b4932ce80d3"}], "txid": "a0ce3410c4e9230c2b2a1fdc0a6553a8ea339d9ce4249fa48bca9971c22b04fb", "blocktime": 1537870564, "version": 1, "confirmations": 11515, "time": 1537870564, "locktime": 0, "vsize": 813, "size": 813}