{"hash": "a0d37b47624c0d365c2e406840dd5258877e11f73d6341535117da0011cf063a", "blockhash": "00000000000000000004ffacab907a6b429b9a5745fa0b75af4234bf69dd7176", "vout": [{"scriptPubKey": {"reqSigs": 1, "hex": "76a914595f08680325442940b0f8c8943a0c3395802a9088ac", "addresses": ["199Yz557RMfywMbUJNAWAofiCfEAKThSnP"], "asm": "OP_DUP OP_HASH160 595f08680325442940b0f8c8943a0c3395802a90 OP_EQUALVERIFY OP_CHECKSIG", "type": "pubkeyhash"}, "value": 0.004, "n": 0}, {"scriptPubKey": {"reqSigs": 1, "hex": "76a914a950fcde32be461b2de674a93d28f1f14ed23fed88ac", "addresses": ["1GSGDYnFxeH5NRoKGdQppbavRjtUk5P4nw"], "asm": "OP_DUP OP_HASH160 a950fcde32be461b2de674a93d28f1f14ed23fed OP_EQUALVERIFY OP_CHECKSIG", "type": "pubkeyhash"}, "value": 0.00413293, "n": 1}], "hex": "01000000016a38d0d709fd46fc3135e7f093b61e222cc8ec2a719730eb274bc765b29a89a2000000008a473044022077bf543516f625038453af48c8d058e3451e8974d55765b0dfd018de4e5e4a9a02203ecbefbd43cf64bee6614648bf587d3e490cddfbdf6f37b51b3c21605fc8c059014104148ebcade208652fcef35c7c4f6232d2a78c7fdb8aba0e1546d3eab284cd46db3da99ff5e4f4477f045cec9f2193134c058d2a224dbdc9b2a9be23508917b3c1ffffffff02801a0600000000001976a914595f08680325442940b0f8c8943a0c3395802a9088ac6d4e0600000000001976a914a950fcde32be461b2de674a93d28f1f14ed23fed88ac00000000", "vin": [{"sequence": 4294967295, "scriptSig": {"hex": "473044022077bf543516f625038453af48c8d058e3451e8974d55765b0dfd018de4e5e4a9a02203ecbefbd43cf64bee6614648bf587d3e490cddfbdf6f37b51b3c21605fc8c059014104148ebcade208652fcef35c7c4f6232d2a78c7fdb8aba0e1546d3eab284cd46db3da99ff5e4f4477f045cec9f2193134c058d2a224dbdc9b2a9be23508917b3c1", "asm": "3044022077bf543516f625038453af48c8d058e3451e8974d55765b0dfd018de4e5e4a9a02203ecbefbd43cf64bee6614648bf587d3e490cddfbdf6f37b51b3c21605fc8c059[ALL] 04148ebcade208652fcef35c7c4f6232d2a78c7fdb8aba0e1546d3eab284cd46db3da99ff5e4f4477f045cec9f2193134c058d2a224dbdc9b2a9be23508917b3c1"}, "vout": 0, "txid": "a2899ab265c74b27eb3097712aecc82c221eb693f0e73531fc46fd09d7d0386a"}], "txid": "a0d37b47624c0d365c2e406840dd5258877e11f73d6341535117da0011cf063a", "blocktime": 1537875543, "version": 1, "confirmations": 11464, "time": 1537875543, "locktime": 0, "vsize": 257, "size": 257}