{"hash": "a0d3d915c0b753d2e9ad619d1aca52c70941e41e4f95730b8a835f03896e3fec", "blockhash": "0000000000000000000dcc0f55137456b1a82d3642486a52398922ac4d620174", "vout": [{"scriptPubKey": {"reqSigs": 1, "hex": "76a9142388477d411ff01f6352dd66810f9db76ac23de388ac", "addresses": ["14EsuZdvgFSxRmT6xuGmg7xsv4BvWYTvne"], "asm": "OP_DUP OP_HASH160 2388477d411ff01f6352dd66810f9db76ac23de3 OP_EQUALVERIFY OP_CHECKSIG", "type": "pubkeyhash"}, "value": 0.022475, "n": 0}, {"scriptPubKey": {"type": "nulldata", "hex": "6a4c500000777400012aa17d2e0f5049a186e3222b86aeaeacb577c031fc3a016b46dc7dc7d096e02a39400554f6e38461c97c4f8427f65baa092c06144f1be050ace3bc9a9526289ac0f6612cd74e33776ee4", "asm": "OP_RETURN 0000777400012aa17d2e0f5049a186e3222b86aeaeacb577c031fc3a016b46dc7dc7d096e02a39400554f6e38461c97c4f8427f65baa092c06144f1be050ace3bc9a9526289ac0f6612cd74e33776ee4"}, "value": 0.0, "n": 1}], "hex": "010000000154b89c383a9ab597c330f472c2ad5b234214f54f664cf90cd5119aca299bcb78010000006b483045022100e741149c6b338f2aeefcbbef49ee1b28847624ceb88222a2c74cf0c21ad0557c02200c2615a423dec9108f355d12f20ee3f896cd0ee04a84b84d0640b86059d6e7290121028c9aacc6732529fc4f3eab169c6e0e99175cbc59bf93edacc13bc6e44007ea50ffffffff024c4b2200000000001976a9142388477d411ff01f6352dd66810f9db76ac23de388ac0000000000000000536a4c500000777400012aa17d2e0f5049a186e3222b86aeaeacb577c031fc3a016b46dc7dc7d096e02a39400554f6e38461c97c4f8427f65baa092c06144f1be050ace3bc9a9526289ac0f6612cd74e33776ee400000000", "vin": [{"sequence": 4294967295, "scriptSig": {"hex": "483045022100e741149c6b338f2aeefcbbef49ee1b28847624ceb88222a2c74cf0c21ad0557c02200c2615a423dec9108f355d12f20ee3f896cd0ee04a84b84d0640b86059d6e7290121028c9aacc6732529fc4f3eab169c6e0e99175cbc59bf93edacc13bc6e44007ea50", "asm": "3045022100e741149c6b338f2aeefcbbef49ee1b28847624ceb88222a2c74cf0c21ad0557c02200c2615a423dec9108f355d12f20ee3f896cd0ee04a84b84d0640b86059d6e729[ALL] 028c9aacc6732529fc4f3eab169c6e0e99175cbc59bf93edacc13bc6e44007ea50"}, "vout": 1, "txid": "78cb9b29ca9a11d50cf94c664ff51442235badc272f430c397b59a3a389cb854"}], "txid": "a0d3d915c0b753d2e9ad619d1aca52c70941e41e4f95730b8a835f03896e3fec", "blocktime": 1537870268, "version": 1, "confirmations": 11518, "time": 1537870268, "locktime": 0, "vsize": 284, "size": 284}