{"hash": "c6d9d4b1968400d529538e4b5b96480a48d6130af91dee487b157f154c36c602", "blockhash": "0000000000000000000dcc0f55137456b1a82d3642486a52398922ac4d620174", "vout": [{"scriptPubKey": {"reqSigs": 1, "hex": "76a91457e2cd66d9191cb15b192c9c18fac68e4b8bacc688ac", "addresses": ["191hVCBgXJN4jui3RoEC9zvwWehAYPpw1n"], "asm": "OP_DUP OP_HASH160 57e2cd66d9191cb15b192c9c18fac68e4b8bacc6 OP_EQUALVERIFY OP_CHECKSIG", "type": "pubkeyhash"}, "value": 0.0385284, "n": 0}, {"scriptPubKey": {"reqSigs": 1, "hex": "a914158adc70e0eb97327886d9019b788fa19308411387", "addresses": ["33evToxPMpLmowNVaqcAgN7kfnVuiBvRep"], "asm": "OP_HASH160 158adc70e0eb97327886d9019b788fa193084113 OP_EQUAL", "type": "scripthash"}, "value": 0.66811275, "n": 1}], "hex": "0200000000010141e546fd1d967372be8c0760081c729c2620fa8796e4df565f63e38f3c37aff9020000001716001401140e5be679403efc026203d7d64d7158d2822dfeffffff0228ca3a00000000001976a91457e2cd66d9191cb15b192c9c18fac68e4b8bacc688ac8b75fb030000000017a914158adc70e0eb97327886d9019b788fa19308411387024830450221008e45940cf3c4ec8482741106ff2e4492ee4bfd37523f26f2f189d3c895e725c00220650bb0f0dd78e93eb63d5dd7f766a2f86c3badb7657a5b6491f8bc2ef5e2b1f4012102fa57c23c5b69a273ab67a8c08b8bc55bb45e01767371d2c24a91160d66e8c0080c490800", "vin": [{"txinwitness": ["30450221008e45940cf3c4ec8482741106ff2e4492ee4bfd37523f26f2f189d3c895e725c00220650bb0f0dd78e93eb63d5dd7f766a2f86c3badb7657a5b6491f8bc2ef5e2b1f401", "02fa57c23c5b69a273ab67a8c08b8bc55bb45e01767371d2c24a91160d66e8c008"], "sequence": 4294967294, "scriptSig": {"hex": "16001401140e5be679403efc026203d7d64d7158d2822d", "asm": "001401140e5be679403efc026203d7d64d7158d2822d"}, "vout": 2, "txid": "f9af373c8fe3635f56dfe49687fa20269c721c0860078cbe7273961dfd46e541"}], "txid": "a0dcb61be1bd28491923ea1b33cc1ad14a38418678ee414e8f404f8e1b4148dd", "blocktime": 1537870268, "version": 2, "confirmations": 11516, "time": 1537870268, "locktime": 542988, "vsize": 168, "size": 250}