{"hash": "0235da8834ecc16fa436e0465b17ec3f01996aabd17701a7fe9b033650169f99", "blockhash": "0000000000000000000dcc0f55137456b1a82d3642486a52398922ac4d620174", "vout": [{"scriptPubKey": {"reqSigs": 1, "hex": "a914acf22dd1e3fa5bbb06de44c06178ef8ea149049987", "addresses": ["3HTUGRrhhFapx13s6XoutzuTycHMRSgwbt"], "asm": "OP_HASH160 acf22dd1e3fa5bbb06de44c06178ef8ea1490499 OP_EQUAL", "type": "scripthash"}, "value": 0.00288558, "n": 0}, {"scriptPubKey": {"reqSigs": 1, "hex": "a914bddce1db77593a7ac8d67f0d488c4311d5103ffa87", "addresses": ["3JzvEy64J63pDv7KjyKsVzupMgKcwdgQU4"], "asm": "OP_HASH160 bddce1db77593a7ac8d67f0d488c4311d5103ffa OP_EQUAL", "type": "scripthash"}, "value": 2.07864634, "n": 1}], "hex": "0200000000010168dd308626b03c82f65309baba276fc57ee03cc168284f3712d2ff10b0cee59a0300000017160014394c1d55120fea8442873d75d93263e22518f914ffffffff022e6704000000000017a914acf22dd1e3fa5bbb06de44c06178ef8ea1490499873ac3630c0000000017a914bddce1db77593a7ac8d67f0d488c4311d5103ffa870247304402203f3eaba95c896dbf4cd43fc5ea6efd849a5c8d24428e1fa399c9e2b4157eb88b02206c1edbb095b37467e6cfeb1ea7c74d5b77a042c7bb23af384b09953fa2309106012103e196163b6d30d0fef27eff5bae2754a7ccba75d466b78c87116b6535bacce31b00000000", "vin": [{"txinwitness": ["304402203f3eaba95c896dbf4cd43fc5ea6efd849a5c8d24428e1fa399c9e2b4157eb88b02206c1edbb095b37467e6cfeb1ea7c74d5b77a042c7bb23af384b09953fa230910601", "03e196163b6d30d0fef27eff5bae2754a7ccba75d466b78c87116b6535bacce31b"], "sequence": 4294967295, "scriptSig": {"hex": "160014394c1d55120fea8442873d75d93263e22518f914", "asm": "0014394c1d55120fea8442873d75d93263e22518f914"}, "vout": 3, "txid": "9ae5ceb010ffd212374f2868c13ce07ec56f27baba0953f6823cb0268630dd68"}], "txid": "a0df9ebbde5ada0bb59c5ecf6e47e2b36786ba68a1bcdcbf088da33d7a174ab3", "blocktime": 1537870268, "version": 2, "confirmations": 11516, "time": 1537870268, "locktime": 0, "vsize": 166, "size": 247}