{"hash": "a0e30b18034c96d4ce5595dbc68b2ebdcc0221fd5ac4be850baa5195ef1efc78", "blockhash": "0000000000000000001cda96e906b7601b7a6fb1a3b62bca570a9e5d8f4b3de1", "vout": [{"scriptPubKey": {"reqSigs": 1, "hex": "76a9147464035d41aad52b8fe77ac8871bca78d8d9623988ac", "addresses": ["1BcRCHfHA1K4Me6SW4rFmccnLy4fTLEKnh"], "asm": "OP_DUP OP_HASH160 7464035d41aad52b8fe77ac8871bca78d8d96239 OP_EQUALVERIFY OP_CHECKSIG", "type": "pubkeyhash"}, "value": 0.09937624, "n": 0}, {"scriptPubKey": {"reqSigs": 1, "hex": "a9143fe135bae27a3bd280d0a0234afe606c530c667d87", "addresses": ["37WnHV9MUnpRBRsomdYFd9LRcaEGhWN294"], "asm": "OP_HASH160 3fe135bae27a3bd280d0a0234afe606c530c667d OP_EQUAL", "type": "scripthash"}, "value": 0.4, "n": 1}], "hex": "0100000001828267bb9bce72a6a82a3e20c620db524092f819fff8b8fc8cdf8912824539b4000000006a473044022069b18ab25bef810ca22ee4c20faf3801eeaf0128a8fae171086052e4b5d6548502204b2549306338f17daa6480c47eff7c30ca48113cc6e62a80217cd9b1ed5931ef012103dbd351135325cc15add3baea94bfbfb4d176187e8c99eca72d5890188bbf5bd6ffffffff02d8a29700000000001976a9147464035d41aad52b8fe77ac8871bca78d8d9623988ac005a62020000000017a9143fe135bae27a3bd280d0a0234afe606c530c667d8700000000", "vin": [{"sequence": 4294967295, "scriptSig": {"hex": "473044022069b18ab25bef810ca22ee4c20faf3801eeaf0128a8fae171086052e4b5d6548502204b2549306338f17daa6480c47eff7c30ca48113cc6e62a80217cd9b1ed5931ef012103dbd351135325cc15add3baea94bfbfb4d176187e8c99eca72d5890188bbf5bd6", "asm": "3044022069b18ab25bef810ca22ee4c20faf3801eeaf0128a8fae171086052e4b5d6548502204b2549306338f17daa6480c47eff7c30ca48113cc6e62a80217cd9b1ed5931ef[ALL] 03dbd351135325cc15add3baea94bfbfb4d176187e8c99eca72d5890188bbf5bd6"}, "vout": 0, "txid": "b43945821289df8cfcb8f8ff19f8924052db20c6203e2aa8a672ce9bbb678282"}], "txid": "a0e30b18034c96d4ce5595dbc68b2ebdcc0221fd5ac4be850baa5195ef1efc78", "blocktime": 1537873282, "version": 1, "confirmations": 11483, "time": 1537873282, "locktime": 0, "vsize": 223, "size": 223}