{"hash": "a0e5965dbdf3719ece25a2d32867a6bd8a47717900b3d84514ba57bca6dfc71a", "blockhash": "0000000000000000001e0dab787dd257d1dbfcb92a98c2207d5e1078be1f4165", "vout": [{"scriptPubKey": {"reqSigs": 1, "hex": "76a914b87d688c5f5241aaa5f49b24dee0374e3813876188ac", "addresses": ["1HpVZpq3N4kizFixT5z2ps5hZHWRnp1G1m"], "asm": "OP_DUP OP_HASH160 b87d688c5f5241aaa5f49b24dee0374e38138761 OP_EQUALVERIFY OP_CHECKSIG", "type": "pubkeyhash"}, "value": 0.00361161, "n": 0}, {"scriptPubKey": {"reqSigs": 1, "hex": "76a91476677ebd79b91fa0d14c7dccbacf9d15ef179bcd88ac", "addresses": ["1Bo4ibooscAnvG1NQ9XDmRvhCYAW2o11J3"], "asm": "OP_DUP OP_HASH160 76677ebd79b91fa0d14c7dccbacf9d15ef179bcd OP_EQUALVERIFY OP_CHECKSIG", "type": "pubkeyhash"}, "value": 0.025, "n": 1}], "hex": "0100000006dfc2b0dd556b3baddeb770b3667dcf2d5589c8fad36019d5c641c06d96e0e134000000006b483045022100d3741a4277de2336564edfb206d37a37d3e7451b9266ea06aee57159fcdd784802203256ae1ca2ea8eb848da872b9feea5a33e1fccc705485e5161c68d7cb94bc923012102eab0e19e57d522472a21e9d9718725ed1d3fb1d4b4e28e76731cb33971c7d1a5fdffffff9ce196ebece1a3b28a5dd6937ee01cf6cdae1acf0937a0f02c4af9ebb8f254b5000000006b483045022100b0fa2666ee7a20890de66d8e1a900e2e72b87c0d0cd0972e0fd84a64ea63300302201aae29ab0ed40a9e71e580b2329f197818b68255f89de964de010a99a9b49c09012102eab0e19e57d522472a21e9d9718725ed1d3fb1d4b4e28e76731cb33971c7d1a5fdfffffff63dd170c3a7ae113cc02cafd1f0ff9e06cbbe8765bb59c6f6440dfccf708bbb000000006b483045022100a1e32159f8ca9e893584b3c6f769b728856cb22339dd86ad01d50b2c64c75ccc0220056f2a2f29b00c5c4ba9a9b7871ea52070aa74a3dee9a024dc70784434efa3e9012102eab0e19e57d522472a21e9d9718725ed1d3fb1d4b4e28e76731cb33971c7d1a5fdffffffba7bd7a9f5495b06e94ea1b18aabd4d84f2270520c80c6b022139b3b9ec319c7000000006b483045022100b7ab5d06e9789319896f944451973671b1277a77f30743f5c1f289d9f0fe2c7102203caebbff1a58994c75aa1a37120a55c9fa35e7070abafa3c1e7c9361715a10ca012102eab0e19e57d522472a21e9d9718725ed1d3fb1d4b4e28e76731cb33971c7d1a5fdffffffd66d6180c1758f49f5c16d7108a8e36d28fda6723f06459a413e66fb275bc5ce000000006b483045022100fce447aad903e489e789acb1af82c2c6d04ab46044eb185ae60539c892ed877b0220633c786a9c242afcc14606a8d4eade9f0b529472cc4b0abc8af9ad8a0c47eae6012102eab0e19e57d522472a21e9d9718725ed1d3fb1d4b4e28e76731cb33971c7d1a5fdffffffbbc32f2b82c65367e89c500d56682934a190fe5b913f4d478c462f1015218fd9000000006a4730440220473e2a4f2b848d91879e400a256c5fc6fe19872c4021876f0988b63b3cefc88002201713a16e1a219b84c0f60d6519f3b746178de0ebe021a4afae13223848881f2d012102eab0e19e57d522472a21e9d9718725ed1d3fb1d4b4e28e76731cb33971c7d1a5fdffffff02c9820500000000001976a914b87d688c5f5241aaa5f49b24dee0374e3813876188aca0252600000000001976a91476677ebd79b91fa0d14c7dccbacf9d15ef179bcd88ac12490800", "vin": [{"sequence": 4294967293, "scriptSig": {"hex": "483045022100d3741a4277de2336564edfb206d37a37d3e7451b9266ea06aee57159fcdd784802203256ae1ca2ea8eb848da872b9feea5a33e1fccc705485e5161c68d7cb94bc923012102eab0e19e57d522472a21e9d9718725ed1d3fb1d4b4e28e76731cb33971c7d1a5", "asm": "3045022100d3741a4277de2336564edfb206d37a37d3e7451b9266ea06aee57159fcdd784802203256ae1ca2ea8eb848da872b9feea5a33e1fccc705485e5161c68d7cb94bc923[ALL] 02eab0e19e57d522472a21e9d9718725ed1d3fb1d4b4e28e76731cb33971c7d1a5"}, "vout": 0, "txid": "34e1e0966dc041c6d51960d3fac889552dcf7d66b370b7dead3b6b55ddb0c2df"}, {"sequence": 4294967293, "scriptSig": {"hex": "483045022100b0fa2666ee7a20890de66d8e1a900e2e72b87c0d0cd0972e0fd84a64ea63300302201aae29ab0ed40a9e71e580b2329f197818b68255f89de964de010a99a9b49c09012102eab0e19e57d522472a21e9d9718725ed1d3fb1d4b4e28e76731cb33971c7d1a5", "asm": "3045022100b0fa2666ee7a20890de66d8e1a900e2e72b87c0d0cd0972e0fd84a64ea63300302201aae29ab0ed40a9e71e580b2329f197818b68255f89de964de010a99a9b49c09[ALL] 02eab0e19e57d522472a21e9d9718725ed1d3fb1d4b4e28e76731cb33971c7d1a5"}, "vout": 0, "txid": "b554f2b8ebf94a2cf0a03709cf1aaecdf61ce07e93d65d8ab2a3e1eceb96e19c"}, {"sequence": 4294967293, "scriptSig": {"hex": "483045022100a1e32159f8ca9e893584b3c6f769b728856cb22339dd86ad01d50b2c64c75ccc0220056f2a2f29b00c5c4ba9a9b7871ea52070aa74a3dee9a024dc70784434efa3e9012102eab0e19e57d522472a21e9d9718725ed1d3fb1d4b4e28e76731cb33971c7d1a5", "asm": "3045022100a1e32159f8ca9e893584b3c6f769b728856cb22339dd86ad01d50b2c64c75ccc0220056f2a2f29b00c5c4ba9a9b7871ea52070aa74a3dee9a024dc70784434efa3e9[ALL] 02eab0e19e57d522472a21e9d9718725ed1d3fb1d4b4e28e76731cb33971c7d1a5"}, "vout": 0, "txid": "bb8b70cffc0d44f6c659bb6587becb069efff0d1af2cc03c11aea7c370d13df6"}, {"sequence": 4294967293, "scriptSig": {"hex": "483045022100b7ab5d06e9789319896f944451973671b1277a77f30743f5c1f289d9f0fe2c7102203caebbff1a58994c75aa1a37120a55c9fa35e7070abafa3c1e7c9361715a10ca012102eab0e19e57d522472a21e9d9718725ed1d3fb1d4b4e28e76731cb33971c7d1a5", "asm": "3045022100b7ab5d06e9789319896f944451973671b1277a77f30743f5c1f289d9f0fe2c7102203caebbff1a58994c75aa1a37120a55c9fa35e7070abafa3c1e7c9361715a10ca[ALL] 02eab0e19e57d522472a21e9d9718725ed1d3fb1d4b4e28e76731cb33971c7d1a5"}, "vout": 0, "txid": "c719c39e3b9b1322b0c6800c5270224fd8d4ab8ab1a14ee9065b49f5a9d77bba"}, {"sequence": 4294967293, "scriptSig": {"hex": "483045022100fce447aad903e489e789acb1af82c2c6d04ab46044eb185ae60539c892ed877b0220633c786a9c242afcc14606a8d4eade9f0b529472cc4b0abc8af9ad8a0c47eae6012102eab0e19e57d522472a21e9d9718725ed1d3fb1d4b4e28e76731cb33971c7d1a5", "asm": "3045022100fce447aad903e489e789acb1af82c2c6d04ab46044eb185ae60539c892ed877b0220633c786a9c242afcc14606a8d4eade9f0b529472cc4b0abc8af9ad8a0c47eae6[ALL] 02eab0e19e57d522472a21e9d9718725ed1d3fb1d4b4e28e76731cb33971c7d1a5"}, "vout": 0, "txid": "cec55b27fb663e419a45063f72a6fd286de3a808716dc1f5498f75c180616dd6"}, {"sequence": 4294967293, "scriptSig": {"hex": "4730440220473e2a4f2b848d91879e400a256c5fc6fe19872c4021876f0988b63b3cefc88002201713a16e1a219b84c0f60d6519f3b746178de0ebe021a4afae13223848881f2d012102eab0e19e57d522472a21e9d9718725ed1d3fb1d4b4e28e76731cb33971c7d1a5", "asm": "30440220473e2a4f2b848d91879e400a256c5fc6fe19872c4021876f0988b63b3cefc88002201713a16e1a219b84c0f60d6519f3b746178de0ebe021a4afae13223848881f2d[ALL] 02eab0e19e57d522472a21e9d9718725ed1d3fb1d4b4e28e76731cb33971c7d1a5"}, "vout": 0, "txid": "d98f2115102f468c474d3f915bfe90a1342968560d509ce86753c6822b2fc3bb"}], "txid": "a0e5965dbdf3719ece25a2d32867a6bd8a47717900b3d84514ba57bca6dfc71a", "blocktime": 1537872475, "version": 1, "confirmations": 11488, "time": 1537872475, "locktime": 542994, "vsize": 965, "size": 965}