{"hash": "a0ea4124940b7affa9619d9f11a9b77351f213fb63dd331a54121b5d4e1cee17", "blockhash": "00000000000000000024a2167bbff67b0be802c0b01cdd79e6331c2be6459f87", "vout": [{"scriptPubKey": {"reqSigs": 1, "hex": "76a9143821c90f641a76b2f9694065958a08cda81dcaaa88ac", "addresses": ["167oKCB1YFnYBB7Q8f1X9xd2xsRgrpB2Sw"], "asm": "OP_DUP OP_HASH160 3821c90f641a76b2f9694065958a08cda81dcaaa OP_EQUALVERIFY OP_CHECKSIG", "type": "pubkeyhash"}, "value": 0.0019056, "n": 0}, {"scriptPubKey": {"type": "nulldata", "hex": "6a4c500000777c0001b5e35f1de28bd9246c8a4ea5bcbefa6b8351586b4e86aeaeacb577c031fc188e23a49bea01f4b5f926be4d26c66a5baa0a0d0614ac97a78d2db7c288b2720c27cdda35b5f050e1b42260", "asm": "OP_RETURN 0000777c0001b5e35f1de28bd9246c8a4ea5bcbefa6b8351586b4e86aeaeacb577c031fc188e23a49bea01f4b5f926be4d26c66a5baa0a0d0614ac97a78d2db7c288b2720c27cdda35b5f050e1b42260"}, "value": 0.0, "n": 1}], "hex": "0100000001bf493abe547fd6f19fd223e37ccf291a20fc9efc60eac1c39e3126ebe439e89b000000006a4730440220026cf12411655e68af6a68fe4398c9e6de5b514d308871ef7916d52f0b9501b8022032446183cdb97eb1468867e5b812a2eb3f00e7df8420ddb62eaeca1b375d8ffd01210373d9f4aa123d9b4dc5d205e9b6c233464717674916abfa49584e75eeac0ea7aeffffffff0260e80200000000001976a9143821c90f641a76b2f9694065958a08cda81dcaaa88ac0000000000000000536a4c500000777c0001b5e35f1de28bd9246c8a4ea5bcbefa6b8351586b4e86aeaeacb577c031fc188e23a49bea01f4b5f926be4d26c66a5baa0a0d0614ac97a78d2db7c288b2720c27cdda35b5f050e1b4226000000000", "vin": [{"sequence": 4294967295, "scriptSig": {"hex": "4730440220026cf12411655e68af6a68fe4398c9e6de5b514d308871ef7916d52f0b9501b8022032446183cdb97eb1468867e5b812a2eb3f00e7df8420ddb62eaeca1b375d8ffd01210373d9f4aa123d9b4dc5d205e9b6c233464717674916abfa49584e75eeac0ea7ae", "asm": "30440220026cf12411655e68af6a68fe4398c9e6de5b514d308871ef7916d52f0b9501b8022032446183cdb97eb1468867e5b812a2eb3f00e7df8420ddb62eaeca1b375d8ffd[ALL] 0373d9f4aa123d9b4dc5d205e9b6c233464717674916abfa49584e75eeac0ea7ae"}, "vout": 0, "txid": "9be839e4eb26319ec3c1ea60fc9efc201a29cf7ce323d29ff1d67f54be3a49bf"}], "txid": "a0ea4124940b7affa9619d9f11a9b77351f213fb63dd331a54121b5d4e1cee17", "blocktime": 1537870564, "version": 1, "confirmations": 11515, "time": 1537870564, "locktime": 0, "vsize": 283, "size": 283}