{"hash": "a0ecefd15691fb80d8cfb3c19e9fc46a34af4df9df275c4999fe2ec0309c6c27", "blockhash": "0000000000000000001e0dab787dd257d1dbfcb92a98c2207d5e1078be1f4165", "vout": [{"scriptPubKey": {"reqSigs": 1, "hex": "76a9145c268eda3fc5eceecdfa76853368d0a1b44316fa88ac", "addresses": ["19QFMhyTGQNa3ytzWU4xkPSmQyV6Sn353Y"], "asm": "OP_DUP OP_HASH160 5c268eda3fc5eceecdfa76853368d0a1b44316fa OP_EQUALVERIFY OP_CHECKSIG", "type": "pubkeyhash"}, "value": 0.03048422, "n": 0}], "hex": "0100000001a9f0ce5f1e52fc41a64d169192d624ae054a94aa684b00bcd15a3d752e3e14816f0000006b483045022100903ea8a18296cf5d70493700f92e0dbcb9c566ffb7371401dac1d90fb5eac8df02205f6511aeea88f8dc03c29fd58d84406df6ab391fb7eb16ce15d71892c510b68c012103f0b1bb6faba11f6143debbd5d666db587aee0c9016a75a3679a39fc2c43dc35cffffffff01e6832e00000000001976a9145c268eda3fc5eceecdfa76853368d0a1b44316fa88ac00000000", "vin": [{"sequence": 4294967295, "scriptSig": {"hex": "483045022100903ea8a18296cf5d70493700f92e0dbcb9c566ffb7371401dac1d90fb5eac8df02205f6511aeea88f8dc03c29fd58d84406df6ab391fb7eb16ce15d71892c510b68c012103f0b1bb6faba11f6143debbd5d666db587aee0c9016a75a3679a39fc2c43dc35c", "asm": "3045022100903ea8a18296cf5d70493700f92e0dbcb9c566ffb7371401dac1d90fb5eac8df02205f6511aeea88f8dc03c29fd58d84406df6ab391fb7eb16ce15d71892c510b68c[ALL] 03f0b1bb6faba11f6143debbd5d666db587aee0c9016a75a3679a39fc2c43dc35c"}, "vout": 111, "txid": "81143e2e753d5ad1bc004b68aa944a05ae24d69291164da641fc521e5fcef0a9"}], "txid": "a0ecefd15691fb80d8cfb3c19e9fc46a34af4df9df275c4999fe2ec0309c6c27", "blocktime": 1537872475, "version": 1, "confirmations": 11486, "time": 1537872475, "locktime": 0, "vsize": 192, "size": 192}