{"hash": "90f8457679b052e60c8d94f2b389e99270a32314f134dbf74742fef8281c8482", "blockhash": "0000000000000000001f76057863aec43deb6fa401d9628bb513d65a8098bfab", "vout": [{"scriptPubKey": {"reqSigs": 1, "hex": "a914a34233d9e268e6d77469a28b68bb0cfc500243ed87", "addresses": ["3GaFNePcGW1R5HLRVtkoMdcnbJ8mMTSCy2"], "asm": "OP_HASH160 a34233d9e268e6d77469a28b68bb0cfc500243ed OP_EQUAL", "type": "scripthash"}, "value": 0.00040349, "n": 0}, {"scriptPubKey": {"reqSigs": 1, "hex": "a91449d7e96499e76d96ef877a2fcb98823c8bccba2187", "addresses": ["38RTuMXR3rjgmqC2TwiJHrCLzc9nbGoNw7"], "asm": "OP_HASH160 49d7e96499e76d96ef877a2fcb98823c8bccba21 OP_EQUAL", "type": "scripthash"}, "value": 0.00061884, "n": 1}], "hex": "01000000000102dfe2b757624bee9a57a93d463a9e5fb8d8c82b463ba14b27fdc653e9a3f883c00100000023220020f63dfc12340f6360d0251c22746d6b56093e3243e96ca012a65484a5d9cf0ec0ffffffff248b2a42bfd31fb1387e9b2b00b826a950667f1887d722af568c2a594d39e72b00000000232200202a9a1aa43dd52fca361d638a9bb1c7c7a7b32bed598a04104268b8ecbdbfe96fffffffff029d9d00000000000017a914a34233d9e268e6d77469a28b68bb0cfc500243ed87bcf100000000000017a91449d7e96499e76d96ef877a2fcb98823c8bccba2187040047304402203185f2d82dcf265a7f9030b7534e6e2994e3032d4bc7f4ea0526bb7fe66e55b9022026d8774ee2d35d9fa5340636d0a3d4bd0f78e49766eb056983f984c2bb0290f2014730440220145fd7beeb7762e58475d840a290fe0a460e5a3f675facd1cb5ce1dc718a6239022071125b3272380d4c1395e5dd2ddc390a2e50c90c885d63e45f245e23238ad33a0147522102097067a6a0cc130a9a6f6577b47bf369b840a79de31cd7457187994266b1bb7c2103338f346cab6ba87fe940591a03ac234be06520c5ab386d4b6632e8eef0d0db7652ae040047304402202fd5364f5b4060b068ce4871544b506728c60be64304c14859d1d5213feeb2110220567581eac67a158c35bdaf4cf5f93e25a694f118996a37c63f4e692d8e91b5fb01473044022068369287fe55c630bc39211a32ecfba2c9f00242d6d6cd813a69193a798295ba022009a07b0ec149503c810dc59787122838ab05e822a2229348b739e63df06c2fed0147522103ea39afa13bfc0b16775c1ffdd58dbb69a77441d8211cfd208f16ac7437c451312103338f346cab6ba87fe940591a03ac234be06520c5ab386d4b6632e8eef0d0db7652ae00000000", "vin": [{"txinwitness": ["", "304402203185f2d82dcf265a7f9030b7534e6e2994e3032d4bc7f4ea0526bb7fe66e55b9022026d8774ee2d35d9fa5340636d0a3d4bd0f78e49766eb056983f984c2bb0290f201", "30440220145fd7beeb7762e58475d840a290fe0a460e5a3f675facd1cb5ce1dc718a6239022071125b3272380d4c1395e5dd2ddc390a2e50c90c885d63e45f245e23238ad33a01", "522102097067a6a0cc130a9a6f6577b47bf369b840a79de31cd7457187994266b1bb7c2103338f346cab6ba87fe940591a03ac234be06520c5ab386d4b6632e8eef0d0db7652ae"], "sequence": 4294967295, "scriptSig": {"hex": "220020f63dfc12340f6360d0251c22746d6b56093e3243e96ca012a65484a5d9cf0ec0", "asm": "0020f63dfc12340f6360d0251c22746d6b56093e3243e96ca012a65484a5d9cf0ec0"}, "vout": 1, "txid": "c083f8a3e953c6fd274ba13b462bc8d8b85f9e3a463da9579aee4b6257b7e2df"}, {"txinwitness": ["", "304402202fd5364f5b4060b068ce4871544b506728c60be64304c14859d1d5213feeb2110220567581eac67a158c35bdaf4cf5f93e25a694f118996a37c63f4e692d8e91b5fb01", "3044022068369287fe55c630bc39211a32ecfba2c9f00242d6d6cd813a69193a798295ba022009a07b0ec149503c810dc59787122838ab05e822a2229348b739e63df06c2fed01", "522103ea39afa13bfc0b16775c1ffdd58dbb69a77441d8211cfd208f16ac7437c451312103338f346cab6ba87fe940591a03ac234be06520c5ab386d4b6632e8eef0d0db7652ae"], "sequence": 4294967295, "scriptSig": {"hex": "2200202a9a1aa43dd52fca361d638a9bb1c7c7a7b32bed598a04104268b8ecbdbfe96f", "asm": "00202a9a1aa43dd52fca361d638a9bb1c7c7a7b32bed598a04104268b8ecbdbfe96f"}, "vout": 0, "txid": "2be7394d592a8c56af22d787187f6650a926b8002b9b7e38b11fd3bf422a8b24"}], "txid": "a0ee93eebec3caddf2dce89d6d4ae5e581955e0b84357893c924444d2de154e7", "blocktime": 1537873891, "version": 1, "confirmations": 11478, "time": 1537873891, "locktime": 0, "vsize": 336, "size": 664}