{"hash": "c09d02f92db814b69ea021319a15e0d76c5e2e391b40bc0d397f607f502bfba9", "blockhash": "00000000000000000024a2167bbff67b0be802c0b01cdd79e6331c2be6459f87", "vout": [{"scriptPubKey": {"reqSigs": 1, "hex": "a9144b61e1323343e47a3f4b9e84ee229d06f32149a187", "addresses": ["38ZbrjHbjjSWcsCf6VpGp7z9DwRdyLu4Rh"], "asm": "OP_HASH160 4b61e1323343e47a3f4b9e84ee229d06f32149a1 OP_EQUAL", "type": "scripthash"}, "value": 0.01233453, "n": 0}, {"scriptPubKey": {"reqSigs": 1, "hex": "a914425a42b93a420a05903a816deee2a6c382cac8bd87", "addresses": ["37jred8MrPaJkiGVBRkerpTYq87LgH4BEd"], "asm": "OP_HASH160 425a42b93a420a05903a816deee2a6c382cac8bd OP_EQUAL", "type": "scripthash"}, "value": 0.01021504, "n": 1}], "hex": "010000000001038b032091ce14b42353b1bbc3083e61987a91712d45366c2bd53858d03718eb590100000023220020a708bfb7c7bbbbeadf3340beb77182d43a192cb7e6667dbefaf895e3339ea1c6ffffffff19b90d9814f5b7d1868d3dd8a0a40404a6a8678c3e70624d3db40c85ad7e3cc40100000023220020a708bfb7c7bbbbeadf3340beb77182d43a192cb7e6667dbefaf895e3339ea1c6fffffffff1219205ddcbbf5614346c32afe52f101770d9428bc0c7562ac47fa31e027fc40100000023220020a708bfb7c7bbbbeadf3340beb77182d43a192cb7e6667dbefaf895e3339ea1c6ffffffff022dd212000000000017a9144b61e1323343e47a3f4b9e84ee229d06f32149a18740960f000000000017a914425a42b93a420a05903a816deee2a6c382cac8bd87040048304502210081c237930fe8a3ef20b5f43528782baa87e7133c33c56db2f7c92c704cb99b9d0220660f586ab91800dca6a3f2c4cd6d3c6732b5a06bed86a2a64d512b6751f5bd8d01483045022100f98670f8adb8b5f07751b0de6427da2afce2846e0d3636f66be1f11f52391698022032728884c134acea74a6460360aa59bfd2de3721d0ec4c06a9b9c605b77480d401475221029149f4b7a7fb02698b40b8c259b0cacc26d9c8dbec0785cc1bb475a30d709eaa21021ba7504f95428868171458363223dad7ab925c81ca917cb158e60901e81a582352ae0400483045022100d5615d72eebd3bebb69faad1052c02536dc8b331420c2dd30d6fb24573c02268022044c7f9559af2e287f6266fe61cd2826ef70373574b242a2f16121e53c973f90a01483045022100d41c64906da0289fce953286155aa6e7fcc0913994fb3f3b8d6344cd6baf07e402202387d3a467cbc3472a3a160e5381b601d1d1360f0219a756999c79b5361fcca801475221029149f4b7a7fb02698b40b8c259b0cacc26d9c8dbec0785cc1bb475a30d709eaa21021ba7504f95428868171458363223dad7ab925c81ca917cb158e60901e81a582352ae040047304402206c295c335b95c6a6397135f9abfdfb5dd2060a6e44921b614e46d36b8a11f3f602203298bf66a29556658266ce3ff6f312f18d4208d57e99e09afb786d327149dbef0148304502210086892b84565414df49683730d70d2382e2e50890c4fa8647d215c6e143692c8a022032b3b2eb8c88dae4f9ee9de7a3fb1cc4b1f62c138c6f4b2a5f6a9e50625fc07001475221029149f4b7a7fb02698b40b8c259b0cacc26d9c8dbec0785cc1bb475a30d709eaa21021ba7504f95428868171458363223dad7ab925c81ca917cb158e60901e81a582352ae00000000", "vin": [{"txinwitness": ["", "304502210081c237930fe8a3ef20b5f43528782baa87e7133c33c56db2f7c92c704cb99b9d0220660f586ab91800dca6a3f2c4cd6d3c6732b5a06bed86a2a64d512b6751f5bd8d01", "3045022100f98670f8adb8b5f07751b0de6427da2afce2846e0d3636f66be1f11f52391698022032728884c134acea74a6460360aa59bfd2de3721d0ec4c06a9b9c605b77480d401", "5221029149f4b7a7fb02698b40b8c259b0cacc26d9c8dbec0785cc1bb475a30d709eaa21021ba7504f95428868171458363223dad7ab925c81ca917cb158e60901e81a582352ae"], "sequence": 4294967295, "scriptSig": {"hex": "220020a708bfb7c7bbbbeadf3340beb77182d43a192cb7e6667dbefaf895e3339ea1c6", "asm": "0020a708bfb7c7bbbbeadf3340beb77182d43a192cb7e6667dbefaf895e3339ea1c6"}, "vout": 1, "txid": "59eb1837d05838d52b6c36452d71917a98613e08c3bbb15323b414ce9120038b"}, {"txinwitness": ["", "3045022100d5615d72eebd3bebb69faad1052c02536dc8b331420c2dd30d6fb24573c02268022044c7f9559af2e287f6266fe61cd2826ef70373574b242a2f16121e53c973f90a01", "3045022100d41c64906da0289fce953286155aa6e7fcc0913994fb3f3b8d6344cd6baf07e402202387d3a467cbc3472a3a160e5381b601d1d1360f0219a756999c79b5361fcca801", "5221029149f4b7a7fb02698b40b8c259b0cacc26d9c8dbec0785cc1bb475a30d709eaa21021ba7504f95428868171458363223dad7ab925c81ca917cb158e60901e81a582352ae"], "sequence": 4294967295, "scriptSig": {"hex": "220020a708bfb7c7bbbbeadf3340beb77182d43a192cb7e6667dbefaf895e3339ea1c6", "asm": "0020a708bfb7c7bbbbeadf3340beb77182d43a192cb7e6667dbefaf895e3339ea1c6"}, "vout": 1, "txid": "c43c7ead850cb43d4d62703e8c67a8a60404a4a0d83d8d86d1b7f514980db919"}, {"txinwitness": ["", "304402206c295c335b95c6a6397135f9abfdfb5dd2060a6e44921b614e46d36b8a11f3f602203298bf66a29556658266ce3ff6f312f18d4208d57e99e09afb786d327149dbef01", "304502210086892b84565414df49683730d70d2382e2e50890c4fa8647d215c6e143692c8a022032b3b2eb8c88dae4f9ee9de7a3fb1cc4b1f62c138c6f4b2a5f6a9e50625fc07001", "5221029149f4b7a7fb02698b40b8c259b0cacc26d9c8dbec0785cc1bb475a30d709eaa21021ba7504f95428868171458363223dad7ab925c81ca917cb158e60901e81a582352ae"], "sequence": 4294967295, "scriptSig": {"hex": "220020a708bfb7c7bbbbeadf3340beb77182d43a192cb7e6667dbefaf895e3339ea1c6", "asm": "0020a708bfb7c7bbbbeadf3340beb77182d43a192cb7e6667dbefaf895e3339ea1c6"}, "vout": 1, "txid": "c47f021ea37fc42a56c7c08b42d97017102fe5af326c341456bfcbdd059221f1"}], "txid": "a0fadd7f0f8310e0dc8d86c0df613241721829c199b548f77ca74792ed17b88a", "blocktime": 1537870564, "version": 1, "confirmations": 11515, "time": 1537870564, "locktime": 0, "vsize": 468, "size": 963}