{"hash": "3d11f479953331d9140bd6592cf71aac481318855ded94e3ef89b69d197f5da2", "blockhash": "00000000000000000004ffacab907a6b429b9a5745fa0b75af4234bf69dd7176", "vout": [{"scriptPubKey": {"reqSigs": 1, "hex": "a91469d48312e4936b0df02aed59c8c786ef2bfe532e87", "addresses": ["3BLbTH8zagWw4Lp3zg7WkXozm6awe65xcA"], "asm": "OP_HASH160 69d48312e4936b0df02aed59c8c786ef2bfe532e OP_EQUAL", "type": "scripthash"}, "value": 0.04971442, "n": 0}, {"scriptPubKey": {"reqSigs": 1, "hex": "76a91453ef9747cc237e94e41283aabb3a220d0ba580af88ac", "addresses": ["18ep6zYrtqbwA9FD6pBbsVWtrDvapyNgBs"], "asm": "OP_DUP OP_HASH160 53ef9747cc237e94e41283aabb3a220d0ba580af OP_EQUALVERIFY OP_CHECKSIG", "type": "pubkeyhash"}, "value": 0.01521858, "n": 1}, {"scriptPubKey": {"reqSigs": 1, "hex": "a9142a2499d1b9370eaffe19e09c7c0d9924c6bde44087", "addresses": ["35Xr9fyGXgFtJDn2cBHH5iTYAoSexjgdUR"], "asm": "OP_HASH160 2a2499d1b9370eaffe19e09c7c0d9924c6bde440 OP_EQUAL", "type": "scripthash"}, "value": 0.02092302, "n": 2}], "hex": "020000000001027774243cc092629deafd552f83ce904fca1eebd990121e6b03da8019b7757cf001000000171600141f1a29f0fca98af84d8ad5b3fddd86323043ce45feffffffc38d5e36e1ed4c40682ce2eaa24b9b241de2b5e066a15827713800b6ca082d2b0000000017160014f265ce5235749d92b61a462e997c62b0f55f5232feffffff03b2db4b000000000017a91469d48312e4936b0df02aed59c8c786ef2bfe532e87c2381700000000001976a91453ef9747cc237e94e41283aabb3a220d0ba580af88ac0eed1f000000000017a9142a2499d1b9370eaffe19e09c7c0d9924c6bde440870247304402201d52f6004934f9a00fffff6f45b4037801131bd295e111fb9eb3d9978c828d1f0220673c1a9ae6c0eba43dd35809f37cbb05fd34c0d75d38f446601f10265bd5f9b4012103caf142159333593e8dcc790f03b4e599cd1a0799b8c2b7069fb2b08108e67a540247304402207897dbba7694325ab097f0707a363ad6d30c12567bc165c7d942104b2b7f194502205babb213d3943eeaea7e81d6a1fa356499365f38cced7630d724e2a41423399f0121036f13df69cf7c041a3c8b61de850491d4c4f85436e90a99d509d151dd71cf849a16490800", "vin": [{"txinwitness": ["304402201d52f6004934f9a00fffff6f45b4037801131bd295e111fb9eb3d9978c828d1f0220673c1a9ae6c0eba43dd35809f37cbb05fd34c0d75d38f446601f10265bd5f9b401", "03caf142159333593e8dcc790f03b4e599cd1a0799b8c2b7069fb2b08108e67a54"], "sequence": 4294967294, "scriptSig": {"hex": "1600141f1a29f0fca98af84d8ad5b3fddd86323043ce45", "asm": "00141f1a29f0fca98af84d8ad5b3fddd86323043ce45"}, "vout": 1, "txid": "f07c75b71980da036b1e1290d9eb1eca4f90ce832f55fdea9d6292c03c247477"}, {"txinwitness": ["304402207897dbba7694325ab097f0707a363ad6d30c12567bc165c7d942104b2b7f194502205babb213d3943eeaea7e81d6a1fa356499365f38cced7630d724e2a41423399f01", "036f13df69cf7c041a3c8b61de850491d4c4f85436e90a99d509d151dd71cf849a"], "sequence": 4294967294, "scriptSig": {"hex": "160014f265ce5235749d92b61a462e997c62b0f55f5232", "asm": "0014f265ce5235749d92b61a462e997c62b0f55f5232"}, "vout": 0, "txid": "2b2d08cab60038712758a166e0b5e21d249b4ba2eae22c68404cede1365e8dc3"}], "txid": "a0fd09fa2d55230221f1e0130621a9126992344cbcf0106aae6e72090a385c0a", "blocktime": 1537875543, "version": 2, "confirmations": 11464, "time": 1537875543, "locktime": 542998, "vsize": 290, "size": 452}