{"hash": "a0ffb5bb068ddfde84ad88cdc4f4be139dbe840cc958def20f329b6cefd69977", "blockhash": "0000000000000000000dcc0f55137456b1a82d3642486a52398922ac4d620174", "vout": [{"scriptPubKey": {"reqSigs": 1, "hex": "a914ccb8bc335278ac9cd81b191d451d5d4b7227147187", "addresses": ["3LMV5JQiGzPys9Qtd56f6iQNrDbyD5rbkN"], "asm": "OP_HASH160 ccb8bc335278ac9cd81b191d451d5d4b72271471 OP_EQUAL", "type": "scripthash"}, "value": 0.00296506, "n": 0}, {"scriptPubKey": {"reqSigs": 1, "hex": "76a914717fdcba81decde8bc266a1f9ed5ea55304e34a588ac", "addresses": ["1BM8XhamA8cjVTgs3Doxcbqaqf8V5RpLuY"], "asm": "OP_DUP OP_HASH160 717fdcba81decde8bc266a1f9ed5ea55304e34a5 OP_EQUALVERIFY OP_CHECKSIG", "type": "pubkeyhash"}, "value": 0.02348355, "n": 1}, {"scriptPubKey": {"reqSigs": 1, "hex": "76a9149927f669d6c55a7d924baccec6b4771a6e706e8d88ac", "addresses": ["1ExpFzpVruDX94cVcahdvpyEm5yyHTsXEy"], "asm": "OP_DUP OP_HASH160 9927f669d6c55a7d924baccec6b4771a6e706e8d OP_EQUALVERIFY OP_CHECKSIG", "type": "pubkeyhash"}, "value": 0.04609, "n": 2}, {"scriptPubKey": {"reqSigs": 1, "hex": "a914f3d3db8cbb522bb48e698d64387b5ddda8dbeec787", "addresses": ["3PvFvHQsu84oXqfrjTebe1w7eHYCYRo12q"], "asm": "OP_HASH160 f3d3db8cbb522bb48e698d64387b5ddda8dbeec7 OP_EQUAL", "type": "scripthash"}, "value": 0.07917443, "n": 3}, {"scriptPubKey": {"reqSigs": 1, "hex": "a914c39d5f6a77139ca995b128ab4068c8e5f994624c87", "addresses": ["3KXLDQ5yBn4sKSACzHXfqaMuEUfB4YgFSp"], "asm": "OP_HASH160 c39d5f6a77139ca995b128ab4068c8e5f994624c OP_EQUAL", "type": "scripthash"}, "value": 0.135727, "n": 4}, {"scriptPubKey": {"reqSigs": 1, "hex": "76a914b57eaea12407ec56321e106d360eafd85b45c05a88ac", "addresses": ["1HYf4kZqm7FEPpHQyp1d3aJMkHoGpT3SF7"], "asm": "OP_DUP OP_HASH160 b57eaea12407ec56321e106d360eafd85b45c05a OP_EQUALVERIFY OP_CHECKSIG", "type": "pubkeyhash"}, "value": 0.3243, "n": 5}, {"scriptPubKey": {"reqSigs": 1, "hex": "a9146f7658386fcd41139b20621367844bd0d6a4e7d787", "addresses": ["3BrNhZho5u6dp91ttrSuceQmT6Nq4FNvoy"], "asm": "OP_HASH160 6f7658386fcd41139b20621367844bd0d6a4e7d7 OP_EQUAL", "type": "scripthash"}, "value": 0.4995, "n": 6}, {"scriptPubKey": {"reqSigs": 1, "hex": "76a91443849383122ebb8a28268a89700c9f723663b5b888ac", "addresses": ["17A16QmavnUfCW11DAApiJxp7ARnxN5pGX"], "asm": "OP_DUP OP_HASH160 43849383122ebb8a28268a89700c9f723663b5b8 OP_EQUALVERIFY OP_CHECKSIG", "type": "pubkeyhash"}, "value": 3.07190142, "n": 7}], "hex": "02000000019024f1fbe4984878355fa22ebc69385ea1f0378d87200248fd818bd9c6d74a8a050000008a4730440220550e0c71ffb42aa3d5020a237ef269b7727c2bd465a50ab2b43037783f3674ec022051024d53de78b1abce6fff8bcdc2efddf16b1bed6b21a6593013b738d7aa705d0141047146f0e0fcb3139947cf0beb870fe251930ca10d4545793d31033e801b5219abf56c11a3cf3406ca590e4c14b0dab749d20862b3adc4709153c280c2a78be10cffffffff083a8604000000000017a914ccb8bc335278ac9cd81b191d451d5d4b722714718743d52300000000001976a914717fdcba81decde8bc266a1f9ed5ea55304e34a588ace8534600000000001976a9149927f669d6c55a7d924baccec6b4771a6e706e8d88ac83cf78000000000017a914f3d3db8cbb522bb48e698d64387b5ddda8dbeec7875c1acf000000000017a914c39d5f6a77139ca995b128ab4068c8e5f994624c87b0d7ee01000000001976a914b57eaea12407ec56321e106d360eafd85b45c05a88ac302dfa020000000017a9146f7658386fcd41139b20621367844bd0d6a4e7d7877e594f12000000001976a91443849383122ebb8a28268a89700c9f723663b5b888ac00000000", "vin": [{"sequence": 4294967295, "scriptSig": {"hex": "4730440220550e0c71ffb42aa3d5020a237ef269b7727c2bd465a50ab2b43037783f3674ec022051024d53de78b1abce6fff8bcdc2efddf16b1bed6b21a6593013b738d7aa705d0141047146f0e0fcb3139947cf0beb870fe251930ca10d4545793d31033e801b5219abf56c11a3cf3406ca590e4c14b0dab749d20862b3adc4709153c280c2a78be10c", "asm": "30440220550e0c71ffb42aa3d5020a237ef269b7727c2bd465a50ab2b43037783f3674ec022051024d53de78b1abce6fff8bcdc2efddf16b1bed6b21a6593013b738d7aa705d[ALL] 047146f0e0fcb3139947cf0beb870fe251930ca10d4545793d31033e801b5219abf56c11a3cf3406ca590e4c14b0dab749d20862b3adc4709153c280c2a78be10c"}, "vout": 5, "txid": "8a4ad7c6d98b81fd480220878d37f0a15e3869bc2ea25f35784898e4fbf12490"}], "txid": "a0ffb5bb068ddfde84ad88cdc4f4be139dbe840cc958def20f329b6cefd69977", "blocktime": 1537870268, "version": 2, "confirmations": 11516, "time": 1537870268, "locktime": 0, "vsize": 453, "size": 453}