{"hash": "1109ca3f177f7d358e6c58bfdbca9731693f30a72150d36325d6bcf3e246a668", "blockhash": "0000000000000000001f76057863aec43deb6fa401d9628bb513d65a8098bfab", "vout": [{"scriptPubKey": {"reqSigs": 1, "hex": "a9149e0cdc1532bf239f86ae74b7124db74441e96da387", "addresses": ["3G6i6MrtKniWnQRH9Hhm9wig7UQo7henHL"], "asm": "OP_HASH160 9e0cdc1532bf239f86ae74b7124db74441e96da3 OP_EQUAL", "type": "scripthash"}, "value": 0.01623, "n": 0}], "hex": "0100000000010116c74b1df130f706dc27f3ecc1f19c52cbbf4c9e0b2d457f30e94a2e89847bd3010000001716001446b97e50ea0341a506e177e4ae185d51e49d1091ffffff0001d8c318000000000017a9149e0cdc1532bf239f86ae74b7124db74441e96da387024830450221009f1a0a6961ec42a689f0705ed5b8f215cbdef5d5ab5c113323c8943e15f95bb102203c4fdb1df5307b7941a2b2e1ffc9d1032876aac8043638bdfbf96c523f90fcac01210283530ef0cb8de87f141601c6d7281a613579ee59009210b69230bb12e1fe71fa00000000", "vin": [{"txinwitness": ["30450221009f1a0a6961ec42a689f0705ed5b8f215cbdef5d5ab5c113323c8943e15f95bb102203c4fdb1df5307b7941a2b2e1ffc9d1032876aac8043638bdfbf96c523f90fcac01", "0283530ef0cb8de87f141601c6d7281a613579ee59009210b69230bb12e1fe71fa"], "sequence": 16777215, "scriptSig": {"hex": "16001446b97e50ea0341a506e177e4ae185d51e49d1091", "asm": "001446b97e50ea0341a506e177e4ae185d51e49d1091"}, "vout": 1, "txid": "d37b84892e4ae9307f452d0b9e4cbfcb529cf1c1ecf327dc06f730f11d4bc716"}], "txid": "a100caae637dc149bafa7a6862a3c2bb19cca3056b31db68494378fd3a2f1917", "blocktime": 1537873891, "version": 1, "confirmations": 11477, "time": 1537873891, "locktime": 0, "vsize": 134, "size": 216}