{"hash": "a1019847e6cc068c121d2d62fdf3f755cfc06ab44d0695955ed1e9867e9ce2f6", "blockhash": "0000000000000000001f76057863aec43deb6fa401d9628bb513d65a8098bfab", "vout": [{"scriptPubKey": {"reqSigs": 1, "hex": "76a914afb298ae22ed18dc33092d3b32bdeb110b34b20588ac", "addresses": ["1H21CfeDZFG521irmeyC8a1LBPhk8AJeXD"], "asm": "OP_DUP OP_HASH160 afb298ae22ed18dc33092d3b32bdeb110b34b205 OP_EQUALVERIFY OP_CHECKSIG", "type": "pubkeyhash"}, "value": 0.00788588, "n": 0}, {"scriptPubKey": {"reqSigs": 1, "hex": "76a914d9dd68d0d10cfdf105e0fbe73dda1618ba60f95a88ac", "addresses": ["1LrxsRd7zNuxPJcL5rttnoeJFy1y4AffYY"], "asm": "OP_DUP OP_HASH160 d9dd68d0d10cfdf105e0fbe73dda1618ba60f95a OP_EQUALVERIFY OP_CHECKSIG", "type": "pubkeyhash"}, "value": 2.5, "n": 1}], "hex": "01000000031594ded3111815692ea4344fbc0c660f7416a2669b48f39a8bf11ffd1393b939010000006b483045022100b4e27e77dc94f77ea89ee9e31b223d0a5489f92b7f865e40f20a1c3ab70d0fe6022062bc4137beb7165523aa406d3f9c5b4b764300b1c54614369897ae29b342d9b201210313194533dd554df243ebbe01f983b6dd8c966661e9760bcf0d98344dd48427f3ffffffff0d63dd1573221ee3804f21e8baf3da57bb2eab55f1fa86a7baa23ba4d5451e77000000006b483045022100e4a5d134510fdef49170c8d81c9cecff5cd833443d03c355bab76d159d6a58070220090ffcd16f4076712fff72b556696dcd2e447e6f91ac76d6744ed0c6c261170f012103a3a65cd3d4950fed79688a175de6b344b862b3e301ffa79825efbd5eeb7eb31affffffff7954032583755de35d5acacd2825d4c5561fa835f63cf2763f93964fd71d51e3010000006a47304402205e39f53d5b6df58b994066d3ebb14c109e5f02ec13d4ccb27178a295f812b6de022007282ac33dfbcb9eb6becf2c1d28c5726219a30030ed76d1d3aef3b21f18b06c01210313194533dd554df243ebbe01f983b6dd8c966661e9760bcf0d98344dd48427f3ffffffff026c080c00000000001976a914afb298ae22ed18dc33092d3b32bdeb110b34b20588ac80b2e60e000000001976a914d9dd68d0d10cfdf105e0fbe73dda1618ba60f95a88ac00000000", "vin": [{"sequence": 4294967295, "scriptSig": {"hex": "483045022100b4e27e77dc94f77ea89ee9e31b223d0a5489f92b7f865e40f20a1c3ab70d0fe6022062bc4137beb7165523aa406d3f9c5b4b764300b1c54614369897ae29b342d9b201210313194533dd554df243ebbe01f983b6dd8c966661e9760bcf0d98344dd48427f3", "asm": "3045022100b4e27e77dc94f77ea89ee9e31b223d0a5489f92b7f865e40f20a1c3ab70d0fe6022062bc4137beb7165523aa406d3f9c5b4b764300b1c54614369897ae29b342d9b2[ALL] 0313194533dd554df243ebbe01f983b6dd8c966661e9760bcf0d98344dd48427f3"}, "vout": 1, "txid": "39b99313fd1ff18b9af3489b66a216740f660cbc4f34a42e69151811d3de9415"}, {"sequence": 4294967295, "scriptSig": {"hex": "483045022100e4a5d134510fdef49170c8d81c9cecff5cd833443d03c355bab76d159d6a58070220090ffcd16f4076712fff72b556696dcd2e447e6f91ac76d6744ed0c6c261170f012103a3a65cd3d4950fed79688a175de6b344b862b3e301ffa79825efbd5eeb7eb31a", "asm": "3045022100e4a5d134510fdef49170c8d81c9cecff5cd833443d03c355bab76d159d6a58070220090ffcd16f4076712fff72b556696dcd2e447e6f91ac76d6744ed0c6c261170f[ALL] 03a3a65cd3d4950fed79688a175de6b344b862b3e301ffa79825efbd5eeb7eb31a"}, "vout": 0, "txid": "771e45d5a43ba2baa786faf155ab2ebb57daf3bae8214f80e31e227315dd630d"}, {"sequence": 4294967295, "scriptSig": {"hex": "47304402205e39f53d5b6df58b994066d3ebb14c109e5f02ec13d4ccb27178a295f812b6de022007282ac33dfbcb9eb6becf2c1d28c5726219a30030ed76d1d3aef3b21f18b06c01210313194533dd554df243ebbe01f983b6dd8c966661e9760bcf0d98344dd48427f3", "asm": "304402205e39f53d5b6df58b994066d3ebb14c109e5f02ec13d4ccb27178a295f812b6de022007282ac33dfbcb9eb6becf2c1d28c5726219a30030ed76d1d3aef3b21f18b06c[ALL] 0313194533dd554df243ebbe01f983b6dd8c966661e9760bcf0d98344dd48427f3"}, "vout": 1, "txid": "e3511dd74f96933f76f23cf635a81f56c5d42528cdca5a5de35d758325035479"}], "txid": "a1019847e6cc068c121d2d62fdf3f755cfc06ab44d0695955ed1e9867e9ce2f6", "blocktime": 1537873891, "version": 1, "confirmations": 11475, "time": 1537873891, "locktime": 0, "vsize": 521, "size": 521}