{"hash": "a1080fe26aadd5cc9a38eec473f89d42d345bec75a278188ec450fac1ff60333", "blockhash": "0000000000000000001e0dab787dd257d1dbfcb92a98c2207d5e1078be1f4165", "vout": [{"scriptPubKey": {"reqSigs": 1, "hex": "a914629eb3dfc21378002706d869f1d2ea978b0d8afd87", "addresses": ["3AgUGCHYsD8bwcsjToc2UiTk7TmjAH7DgA"], "asm": "OP_HASH160 629eb3dfc21378002706d869f1d2ea978b0d8afd OP_EQUAL", "type": "scripthash"}, "value": 0.002345, "n": 0}, {"scriptPubKey": {"reqSigs": 1, "hex": "a914a452b47ef4ffd79653bf2b9f0283f99e7ed64a5287", "addresses": ["3GfspTC9hPYT5V9QtHsMR1EUfqesq6iFPA"], "asm": "OP_HASH160 a452b47ef4ffd79653bf2b9f0283f99e7ed64a52 OP_EQUAL", "type": "scripthash"}, "value": 0.09761492, "n": 1}], "hex": "0100000001b832de9fad5eb7630d3752c748da146a32a662bc8b2460a87735096ef1d82f5e01000000da00483045022100ec87a69d48e59a7f988e3fa1bf2f9056a5755fa8fe871c476619815c426275d3022047f1ebf9667b4141e37c715380dfe8ab4e520226d118fbdf5a4674df158165570147304402200a3203d4a9888ec4bfdf10c46340713502a7cb0fa89c9f63cd5ec8b67efbe9ab02201dad85cd6f43f9e18e6880bbc2992a8589b25357fbb4c99e73eac1082e4e401601475221027d8561fdebe84da8d6f986b36c3f7e77df1dc5ff5c5cd78402e744ec570b635f21035837eb1d7f94331efdf224b879f8ec2a2ab953717b8b841003cbcd781a57a45e52aeffffffff02049403000000000017a914629eb3dfc21378002706d869f1d2ea978b0d8afd87d4f294000000000017a914a452b47ef4ffd79653bf2b9f0283f99e7ed64a528700000000", "vin": [{"sequence": 4294967295, "scriptSig": {"hex": "00483045022100ec87a69d48e59a7f988e3fa1bf2f9056a5755fa8fe871c476619815c426275d3022047f1ebf9667b4141e37c715380dfe8ab4e520226d118fbdf5a4674df158165570147304402200a3203d4a9888ec4bfdf10c46340713502a7cb0fa89c9f63cd5ec8b67efbe9ab02201dad85cd6f43f9e18e6880bbc2992a8589b25357fbb4c99e73eac1082e4e401601475221027d8561fdebe84da8d6f986b36c3f7e77df1dc5ff5c5cd78402e744ec570b635f21035837eb1d7f94331efdf224b879f8ec2a2ab953717b8b841003cbcd781a57a45e52ae", "asm": "0 3045022100ec87a69d48e59a7f988e3fa1bf2f9056a5755fa8fe871c476619815c426275d3022047f1ebf9667b4141e37c715380dfe8ab4e520226d118fbdf5a4674df15816557[ALL] 304402200a3203d4a9888ec4bfdf10c46340713502a7cb0fa89c9f63cd5ec8b67efbe9ab02201dad85cd6f43f9e18e6880bbc2992a8589b25357fbb4c99e73eac1082e4e4016[ALL] 5221027d8561fdebe84da8d6f986b36c3f7e77df1dc5ff5c5cd78402e744ec570b635f21035837eb1d7f94331efdf224b879f8ec2a2ab953717b8b841003cbcd781a57a45e52ae"}, "vout": 1, "txid": "5e2fd8f16e093577a860248bbc62a6326a14da48c752370d63b75ead9fde32b8"}], "txid": "a1080fe26aadd5cc9a38eec473f89d42d345bec75a278188ec450fac1ff60333", "blocktime": 1537872475, "version": 1, "confirmations": 11486, "time": 1537872475, "locktime": 0, "vsize": 333, "size": 333}