{"hash": "bd9902703db86cd088d7d0c3972ffb5b71806a2f103e9bf654f2952913b88eba", "blockhash": "0000000000000000000e13cef7c366c0283d82e591d1acd082e914b08063cdf1", "vout": [{"scriptPubKey": {"reqSigs": 1, "hex": "76a914a1bab835fd90830c98878d96c45af92f722a0a3588ac", "addresses": ["1Fk9UPWfSEYEa54QCWs6WWYgX29Wm3GPUY"], "asm": "OP_DUP OP_HASH160 a1bab835fd90830c98878d96c45af92f722a0a35 OP_EQUALVERIFY OP_CHECKSIG", "type": "pubkeyhash"}, "value": 0.00737, "n": 0}, {"scriptPubKey": {"reqSigs": 1, "hex": "a914c042a06babc4fd8fc9af635180eb2b44befb864587", "addresses": ["3KDbUg8eEUtEcxFMkPG87jEjQu82ghXz4U"], "asm": "OP_HASH160 c042a06babc4fd8fc9af635180eb2b44befb8645 OP_EQUAL", "type": "scripthash"}, "value": 0.02246519, "n": 1}], "hex": "010000000001019538b5ac4658b37a061f2100b882b9ed595d5c81a2fa59084b9e3f74412a662c0100000023220020440078b05a2bc6b41fcce8725aa4de3462086a212bf1d8847254066ab5037b92ffffffff02e83e0b00000000001976a914a1bab835fd90830c98878d96c45af92f722a0a3588ac774722000000000017a914c042a06babc4fd8fc9af635180eb2b44befb8645870400483045022100ada11f178ee6c103fccf1d0d0658b2a04a43a379813a5bf700e17948de596e4f02207be4b72523b9b4851255297c7f2acd10c5481b70a1f2e5c39f88b9c6d0d434d901483045022100e1ee11edc5e40660ea784707aaa83379e2e49de3b9dcc0d39d0343033bb4f3a402204693ecb0254c604005c7432d195203200d18d1bbbe23ba80d52c309dbbaaf849014752210294e85d763e5b925f653e62be404ec0be1ff7a7172c59eceba9b1c692ef6727fe2102dd2332c0512dee4ea813748993f8056f254166d97719c8c2e4e8f542e54e1af152ae00000000", "vin": [{"txinwitness": ["", "3045022100ada11f178ee6c103fccf1d0d0658b2a04a43a379813a5bf700e17948de596e4f02207be4b72523b9b4851255297c7f2acd10c5481b70a1f2e5c39f88b9c6d0d434d901", "3045022100e1ee11edc5e40660ea784707aaa83379e2e49de3b9dcc0d39d0343033bb4f3a402204693ecb0254c604005c7432d195203200d18d1bbbe23ba80d52c309dbbaaf84901", "52210294e85d763e5b925f653e62be404ec0be1ff7a7172c59eceba9b1c692ef6727fe2102dd2332c0512dee4ea813748993f8056f254166d97719c8c2e4e8f542e54e1af152ae"], "sequence": 4294967295, "scriptSig": {"hex": "220020440078b05a2bc6b41fcce8725aa4de3462086a212bf1d8847254066ab5037b92", "asm": "0020440078b05a2bc6b41fcce8725aa4de3462086a212bf1d8847254066ab5037b92"}, "vout": 1, "txid": "2c662a41743f9e4b0859faa2815c5d59edb982b800211f067ab35846acb53895"}], "txid": "a10ba69703ca1db3ff9e43b11599ac21e572b3d9741a0b1fc7f4da969891b5a7", "blocktime": 1537871767, "version": 1, "confirmations": 11495, "time": 1537871767, "locktime": 0, "vsize": 208, "size": 374}