{"hash": "a11b08c7d1b0fe9f9aa8704f6ce432b79ef9d398eb768056758788c68f6a0997", "blockhash": "00000000000000000017f5eb5941039fbcee6240d03bc1f2f8e35350df66a1d8", "vout": [{"scriptPubKey": {"reqSigs": 1, "hex": "76a914b58e08d7446adb8fbad3e17201dcc5f1cc504fe388ac", "addresses": ["1HYyTTKYcJucSkBD8PuHPUawkc2xmaBDTK"], "asm": "OP_DUP OP_HASH160 b58e08d7446adb8fbad3e17201dcc5f1cc504fe3 OP_EQUALVERIFY OP_CHECKSIG", "type": "pubkeyhash"}, "value": 0.00634999, "n": 0}, {"scriptPubKey": {"type": "nulldata", "hex": "6a4c50000077fb0001ad94c442498fb31b8879f8e9d19ed074892d00f8e87af8e8e963c7cfd5b918f65a97f0b75e2091fc33d1d8c176d15baa195706140ff80b1625e11d100759d4ba30d2c37bb011d97e02cf", "asm": "OP_RETURN 000077fb0001ad94c442498fb31b8879f8e9d19ed074892d00f8e87af8e8e963c7cfd5b918f65a97f0b75e2091fc33d1d8c176d15baa195706140ff80b1625e11d100759d4ba30d2c37bb011d97e02cf"}, "value": 0.0, "n": 1}], "hex": "010000000170ff6e922ab0f0e4d216f4465dfcbeb9455fe2f3d5321278da8a2e0ac1af84b3000000006b483045022100d83ef3b5feab6084af68765e6830fafb0b8d50c8b38cca10bedddfd6e124a571022040f1d4e2e6cd32ee63b1f1e9f9cf6a6aa6316fc3742a85b36d399b3a70a265ae0121020bd1bde07fe4144a89cb102fa8fd1930504e111d5ea829134dba819dc29db884ffffffff0277b00900000000001976a914b58e08d7446adb8fbad3e17201dcc5f1cc504fe388ac0000000000000000536a4c50000077fb0001ad94c442498fb31b8879f8e9d19ed074892d00f8e87af8e8e963c7cfd5b918f65a97f0b75e2091fc33d1d8c176d15baa195706140ff80b1625e11d100759d4ba30d2c37bb011d97e02cf00000000", "vin": [{"sequence": 4294967295, "scriptSig": {"hex": "483045022100d83ef3b5feab6084af68765e6830fafb0b8d50c8b38cca10bedddfd6e124a571022040f1d4e2e6cd32ee63b1f1e9f9cf6a6aa6316fc3742a85b36d399b3a70a265ae0121020bd1bde07fe4144a89cb102fa8fd1930504e111d5ea829134dba819dc29db884", "asm": "3045022100d83ef3b5feab6084af68765e6830fafb0b8d50c8b38cca10bedddfd6e124a571022040f1d4e2e6cd32ee63b1f1e9f9cf6a6aa6316fc3742a85b36d399b3a70a265ae[ALL] 020bd1bde07fe4144a89cb102fa8fd1930504e111d5ea829134dba819dc29db884"}, "vout": 0, "txid": "b384afc10a2e8ada781232d5f3e25f45b9befc5d46f416d2e4f0b02a926eff70"}], "txid": "a11b08c7d1b0fe9f9aa8704f6ce432b79ef9d398eb768056758788c68f6a0997", "blocktime": 1537874412, "version": 1, "confirmations": 11467, "time": 1537874412, "locktime": 0, "vsize": 284, "size": 284}