{"hash": "a11ddef4a5b740fe6c5811ffea0ffa3aa7c81f1f65350b96a3ffb32f48a14109", "blockhash": "0000000000000000000e13cef7c366c0283d82e591d1acd082e914b08063cdf1", "vout": [{"scriptPubKey": {"reqSigs": 1, "hex": "76a914f393a33490ed6c441595281d01d9211c044b189988ac", "addresses": ["1PCv4egB2FFhJ63SHjLbsD5QhpdFmWzUEA"], "asm": "OP_DUP OP_HASH160 f393a33490ed6c441595281d01d9211c044b1899 OP_EQUALVERIFY OP_CHECKSIG", "type": "pubkeyhash"}, "value": 0.0013242, "n": 0}, {"scriptPubKey": {"type": "nulldata", "hex": "6a4c500000778b0001ff92ec952c90c61a89457c40e3ef3236678a625097bcbefa6b8351586b4ef91c4b25dab5f9ade75bb888c7948e425baa0bed06142d45a2d56b27c288b2720c27cdda35b5f050e1b42260", "asm": "OP_RETURN 0000778b0001ff92ec952c90c61a89457c40e3ef3236678a625097bcbefa6b8351586b4ef91c4b25dab5f9ade75bb888c7948e425baa0bed06142d45a2d56b27c288b2720c27cdda35b5f050e1b42260"}, "value": 0.0, "n": 1}], "hex": "01000000015006603aa53f8a9999961e9b3950cac12af6dede810e99ef075981deab6f6fdf000000006b483045022100d8d274f023ed9a92ed83fcba677334d54b592fb0d25a3177afffd6d648e88419022050b71c24c553b12687e64c7c8e819d7a21703467e4557e47c7f1f894b76b85140121028f5fa5e2d0008e00fb4c3b2a83a043643ca3e8f394d6c46ba9ab5bd93959475bffffffff0244050200000000001976a914f393a33490ed6c441595281d01d9211c044b189988ac0000000000000000536a4c500000778b0001ff92ec952c90c61a89457c40e3ef3236678a625097bcbefa6b8351586b4ef91c4b25dab5f9ade75bb888c7948e425baa0bed06142d45a2d56b27c288b2720c27cdda35b5f050e1b4226000000000", "vin": [{"sequence": 4294967295, "scriptSig": {"hex": "483045022100d8d274f023ed9a92ed83fcba677334d54b592fb0d25a3177afffd6d648e88419022050b71c24c553b12687e64c7c8e819d7a21703467e4557e47c7f1f894b76b85140121028f5fa5e2d0008e00fb4c3b2a83a043643ca3e8f394d6c46ba9ab5bd93959475b", "asm": "3045022100d8d274f023ed9a92ed83fcba677334d54b592fb0d25a3177afffd6d648e88419022050b71c24c553b12687e64c7c8e819d7a21703467e4557e47c7f1f894b76b8514[ALL] 028f5fa5e2d0008e00fb4c3b2a83a043643ca3e8f394d6c46ba9ab5bd93959475b"}, "vout": 0, "txid": "df6f6fabde815907ef990e81dedef62ac1ca50399b1e9699998a3fa53a600650"}], "txid": "a11ddef4a5b740fe6c5811ffea0ffa3aa7c81f1f65350b96a3ffb32f48a14109", "blocktime": 1537871767, "version": 1, "confirmations": 11492, "time": 1537871767, "locktime": 0, "vsize": 284, "size": 284}