{"hash": "928f5d12c91f73704d7c812a4f4f655601130b180ca288fc0bbf6b231d13fac5", "blockhash": "00000000000000000004ffacab907a6b429b9a5745fa0b75af4234bf69dd7176", "vout": [{"scriptPubKey": {"reqSigs": 1, "hex": "a9147aacc18dac90ba880d944ed9e77e8625f61db17e87", "addresses": ["3CsfKFQEiiGi1o7vUqT24zQVPJeMZjjqyD"], "asm": "OP_HASH160 7aacc18dac90ba880d944ed9e77e8625f61db17e OP_EQUAL", "type": "scripthash"}, "value": 0.00998781, "n": 0}, {"scriptPubKey": {"reqSigs": 1, "hex": "76a9148943c7f746460541aba9111d33949c8d66d911c988ac", "addresses": ["1DWnmo8VUKssSGGVq4bwkMqHjHL9LL8FLY"], "asm": "OP_DUP OP_HASH160 8943c7f746460541aba9111d33949c8d66d911c9 OP_EQUALVERIFY OP_CHECKSIG", "type": "pubkeyhash"}, "value": 0.0101924, "n": 1}], "hex": "0200000000010196d21d862b1fc9c2624526a24a694ff048e10e57f377b610b85329d82466dd8300000000171600140e4d512a843cc6d2367e3fff811a1dc1a3ef2cd7feffffff027d3d0f000000000017a9147aacc18dac90ba880d944ed9e77e8625f61db17e87688d0f00000000001976a9148943c7f746460541aba9111d33949c8d66d911c988ac02483045022100af8f82312139b470f9cc4ba9d43eca0370c3f9ff2da19f4f9e3bce6d90f1368f022060b63ec1456b57132d81c6d9ef363188e96fb1d7f74f9f5885238d8cc90cc0d7012103159ff6b24d8567f6d266f4a90724ee14a0a010c00f4bd1590493d4e95d6f413316490800", "vin": [{"txinwitness": ["3045022100af8f82312139b470f9cc4ba9d43eca0370c3f9ff2da19f4f9e3bce6d90f1368f022060b63ec1456b57132d81c6d9ef363188e96fb1d7f74f9f5885238d8cc90cc0d701", "03159ff6b24d8567f6d266f4a90724ee14a0a010c00f4bd1590493d4e95d6f4133"], "sequence": 4294967294, "scriptSig": {"hex": "1600140e4d512a843cc6d2367e3fff811a1dc1a3ef2cd7", "asm": "00140e4d512a843cc6d2367e3fff811a1dc1a3ef2cd7"}, "vout": 0, "txid": "83dd6624d82953b810b677f3570ee148f04f694aa2264562c2c91f2b861dd296"}], "txid": "a11f39ffa73c7de44cfba8ec7080d70cc209b939611f7c0fb2fe8342210cf3e6", "blocktime": 1537875543, "version": 2, "confirmations": 11464, "time": 1537875543, "locktime": 542998, "vsize": 168, "size": 250}