{"hash": "a122916ac522b0d165b9fd9fb0bd99109e08f51894432c4db2efad3d96a1a332", "blockhash": "0000000000000000000dcc0f55137456b1a82d3642486a52398922ac4d620174", "vout": [{"scriptPubKey": {"reqSigs": 1, "hex": "a9143c997db7063b3b9c5611b03f247413767a79752d87", "addresses": ["37DSLoNgQk6kqj3UzP4hoL9x6efQA7Zky9"], "asm": "OP_HASH160 3c997db7063b3b9c5611b03f247413767a79752d OP_EQUAL", "type": "scripthash"}, "value": 0.00390297, "n": 0}], "hex": "010000000129fbf32745fc1a7f3c4aa8539966c6329c3b0b43eb7c3d703f1705c2a7c56035100000006b4830450221009c5ecb2226a0998902410e7cdfa3ff2ba9653650f7db003e73e280197cc7e63a0220601e719dab170c6422150430fea0e7ac15ced6a4b905d2f97352f2fd80b740db0121023d3ba9b8b50d9d049ff0a12e3340ade13150a6e3b7822f5a5a0234bb57cef009feffffff0199f405000000000017a9143c997db7063b3b9c5611b03f247413767a79752d870c490800", "vin": [{"sequence": 4294967294, "scriptSig": {"hex": "4830450221009c5ecb2226a0998902410e7cdfa3ff2ba9653650f7db003e73e280197cc7e63a0220601e719dab170c6422150430fea0e7ac15ced6a4b905d2f97352f2fd80b740db0121023d3ba9b8b50d9d049ff0a12e3340ade13150a6e3b7822f5a5a0234bb57cef009", "asm": "30450221009c5ecb2226a0998902410e7cdfa3ff2ba9653650f7db003e73e280197cc7e63a0220601e719dab170c6422150430fea0e7ac15ced6a4b905d2f97352f2fd80b740db[ALL] 023d3ba9b8b50d9d049ff0a12e3340ade13150a6e3b7822f5a5a0234bb57cef009"}, "vout": 16, "txid": "3560c5a7c205173f703d7ceb430b3b9c32c6669953a84a3c7f1afc4527f3fb29"}], "txid": "a122916ac522b0d165b9fd9fb0bd99109e08f51894432c4db2efad3d96a1a332", "blocktime": 1537870268, "version": 1, "confirmations": 11516, "time": 1537870268, "locktime": 542988, "vsize": 190, "size": 190}