{"hash": "a1297df515eb78dc073235b2b7750c5ee9d7bb2d58cce6647ab60be6899a89b6", "blockhash": "0000000000000000000e13cef7c366c0283d82e591d1acd082e914b08063cdf1", "vout": [{"scriptPubKey": {"reqSigs": 1, "hex": "76a914fcadc4c9b0eaf9bc68885cb30ccab3d95cf5125088ac", "addresses": ["1Q33T192PW5UT8XNkctNsSYxaYKVvdw5ev"], "asm": "OP_DUP OP_HASH160 fcadc4c9b0eaf9bc68885cb30ccab3d95cf51250 OP_EQUALVERIFY OP_CHECKSIG", "type": "pubkeyhash"}, "value": 1.45908133, "n": 0}, {"scriptPubKey": {"reqSigs": 1, "hex": "76a914c2a0236c4aedbaeaf31a60d614332daa2a35e90988ac", "addresses": ["1Jk5vpoarXzGSib3LaSJKqj1nRbrDth9kz"], "asm": "OP_DUP OP_HASH160 c2a0236c4aedbaeaf31a60d614332daa2a35e909 OP_EQUALVERIFY OP_CHECKSIG", "type": "pubkeyhash"}, "value": 0.001558, "n": 1}], "hex": "02000000012374a96c6be27daa1009100a3ee0cdbe44b7ad9acaf7a5e50f61cdddcf7cfc95000000006a47304402207c9bb56c8308ff7bdab76b0eae8c67d5e05113c9dd01e55325ecb3537f0c392502203f748259db85f189fbcce94bb8cf8c4d4281154453423dc7bd1f361d06b37295012103265b650dbb5aff478b19796ebd4fc23b5e3c5497410ce46545826e0a4af062b8feffffff02a561b208000000001976a914fcadc4c9b0eaf9bc68885cb30ccab3d95cf5125088ac98600200000000001976a914c2a0236c4aedbaeaf31a60d614332daa2a35e90988ac0f490800", "vin": [{"sequence": 4294967294, "scriptSig": {"hex": "47304402207c9bb56c8308ff7bdab76b0eae8c67d5e05113c9dd01e55325ecb3537f0c392502203f748259db85f189fbcce94bb8cf8c4d4281154453423dc7bd1f361d06b37295012103265b650dbb5aff478b19796ebd4fc23b5e3c5497410ce46545826e0a4af062b8", "asm": "304402207c9bb56c8308ff7bdab76b0eae8c67d5e05113c9dd01e55325ecb3537f0c392502203f748259db85f189fbcce94bb8cf8c4d4281154453423dc7bd1f361d06b37295[ALL] 03265b650dbb5aff478b19796ebd4fc23b5e3c5497410ce46545826e0a4af062b8"}, "vout": 0, "txid": "95fc7ccfddcd610fe5a5f7ca9aadb744becde03e0a100910aa7de26b6ca97423"}], "txid": "a1297df515eb78dc073235b2b7750c5ee9d7bb2d58cce6647ab60be6899a89b6", "blocktime": 1537871767, "version": 2, "confirmations": 11495, "time": 1537871767, "locktime": 542991, "vsize": 225, "size": 225}