{"hash": "a12b7c702d5863e92d758eba13a1a80b822e7250f64a068b36c09a7ae3173543", "blockhash": "0000000000000000000e13cef7c366c0283d82e591d1acd082e914b08063cdf1", "vout": [{"scriptPubKey": {"reqSigs": 1, "hex": "76a9149da3fb6326e15ce4ac1ab87eb04e1d0b6593fea088ac", "addresses": ["1FNXXnYSVcxbmyX6uTf5pTYzHwpT3uh9Sc"], "asm": "OP_DUP OP_HASH160 9da3fb6326e15ce4ac1ab87eb04e1d0b6593fea0 OP_EQUALVERIFY OP_CHECKSIG", "type": "pubkeyhash"}, "value": 0.00157577, "n": 0}, {"scriptPubKey": {"reqSigs": 1, "hex": "76a91438dc7715de74028d0b7a81133470886986574a7f88ac", "addresses": ["16Beww2q5rYDfhiKHUwZm41q41FRBkdAa5"], "asm": "OP_DUP OP_HASH160 38dc7715de74028d0b7a81133470886986574a7f OP_EQUALVERIFY OP_CHECKSIG", "type": "pubkeyhash"}, "value": 48.52231877, "n": 1}], "hex": "0200000001ae083b401bf2c719cab800f35026a06939c8d30fd9aa16a0ebe688708d3f97c0000000006a47304402201736652c5214fe296c47770d4deb1237e99933bf32e2551f20c97b8219b62d44022021172e3037f416de98ef8aa8d67d9ced97827fb71a497fbe6810c0997b4fcfdc012103f4c3e5dd54bd8fcd53bdbada0893a15119778f50ada8f8b8a10608d66910c249ffffffff0289670200000000001976a9149da3fb6326e15ce4ac1ab87eb04e1d0b6593fea088acc52e3721010000001976a91438dc7715de74028d0b7a81133470886986574a7f88ac00000000", "vin": [{"sequence": 4294967295, "scriptSig": {"hex": "47304402201736652c5214fe296c47770d4deb1237e99933bf32e2551f20c97b8219b62d44022021172e3037f416de98ef8aa8d67d9ced97827fb71a497fbe6810c0997b4fcfdc012103f4c3e5dd54bd8fcd53bdbada0893a15119778f50ada8f8b8a10608d66910c249", "asm": "304402201736652c5214fe296c47770d4deb1237e99933bf32e2551f20c97b8219b62d44022021172e3037f416de98ef8aa8d67d9ced97827fb71a497fbe6810c0997b4fcfdc[ALL] 03f4c3e5dd54bd8fcd53bdbada0893a15119778f50ada8f8b8a10608d66910c249"}, "vout": 0, "txid": "c0973f8d7088e6eba016aad90fd3c83969a02650f300b8ca19c7f21b403b08ae"}], "txid": "a12b7c702d5863e92d758eba13a1a80b822e7250f64a068b36c09a7ae3173543", "blocktime": 1537871767, "version": 2, "confirmations": 11491, "time": 1537871767, "locktime": 0, "vsize": 225, "size": 225}