{"hash": "43630d21ef90fdba266b88f8391b5d02e0849ed0e93c6004934f79e0b2776601", "blockhash": "0000000000000000000baef3f32e3676a92c3b2e5da21b426e4f302fc371ce76", "vout": [{"scriptPubKey": {"reqSigs": 1, "hex": "0014728dc78f9fe4293afe5e9fd825de92b59d6530a1", "addresses": ["bc1qw2xu0rulus5n4lj7nlvzth5jkkwk2v9p3n4ft8"], "asm": "0 728dc78f9fe4293afe5e9fd825de92b59d6530a1", "type": "witness_v0_keyhash"}, "value": 0.00199457, "n": 0}], "hex": "02000000000101aa0f0efb813d2d3907777dfbed035114dc1cd2eb1a7e4282e792666f96b239580000000000de34978001210b030000000000160014728dc78f9fe4293afe5e9fd825de92b59d6530a1040047304402202d60b379f7bbaef853be309c7e57c7723b660b370cb9fc85ebfe4499f54bb2a802200880c6c00eb95d7cddb084718e9aeb47c310b75a900cc37fc4235b439dfee5ab01483045022100a45d21a99dc6b4108aa7ca19fb474d246871a893467f54f0fb653fb9bd730bfc0220622e340fbe7eadc53a14c83432e747b376d8689bcba3d460da91f664ed80513d0147522102e48a54b113cc911a68f77ea1d09df6140d09e0b4b60a6fd634a9a1cc484efd492103f16ef19b6fd2a16a9cc1a0d901555b1b6ee28fa4a31fead4c403ab95af62137e52ae26f46420", "vin": [{"txinwitness": ["", "304402202d60b379f7bbaef853be309c7e57c7723b660b370cb9fc85ebfe4499f54bb2a802200880c6c00eb95d7cddb084718e9aeb47c310b75a900cc37fc4235b439dfee5ab01", "3045022100a45d21a99dc6b4108aa7ca19fb474d246871a893467f54f0fb653fb9bd730bfc0220622e340fbe7eadc53a14c83432e747b376d8689bcba3d460da91f664ed80513d01", "522102e48a54b113cc911a68f77ea1d09df6140d09e0b4b60a6fd634a9a1cc484efd492103f16ef19b6fd2a16a9cc1a0d901555b1b6ee28fa4a31fead4c403ab95af62137e52ae"], "sequence": 2157393118, "scriptSig": {"hex": "", "asm": ""}, "vout": 0, "txid": "5839b2966f6692e782427e1aebd21cdc145103edfb7d7707392d3d81fb0e0faa"}], "txid": "a13190bceba879c35a8438f8b5415d90e8d6bbb47b9de2c6fbcfa42c3a86a323", "blocktime": 1537876114, "version": 2, "confirmations": 11462, "time": 1537876114, "locktime": 543487014, "vsize": 138, "size": 303}