{"hash": "a1327704ca8ae63cc0c885dd35971157c726c301045697b2ff9e4894bdb8604b", "blockhash": "0000000000000000000e13cef7c366c0283d82e591d1acd082e914b08063cdf1", "vout": [{"scriptPubKey": {"type": "nulldata", "hex": "6a146f6d6e69000000000000001f0000002439563880", "asm": "OP_RETURN 6f6d6e69000000000000001f0000002439563880"}, "value": 0.0, "n": 0}, {"scriptPubKey": {"reqSigs": 1, "hex": "76a914b1c36cdbc8488828fdf7c51a01ffdc5fad795f3f88ac", "addresses": ["1HCviLYNqHAyeZxGTj9Mtgvj1NJgQuSo91"], "asm": "OP_DUP OP_HASH160 b1c36cdbc8488828fdf7c51a01ffdc5fad795f3f OP_EQUALVERIFY OP_CHECKSIG", "type": "pubkeyhash"}, "value": 0.03979999, "n": 1}], "hex": "0100000002377a02ac8c61d231ad795f9a6a7c56e5fd3933c0c073eb68106a1bb99eb2b175020000006b483045022100e76736f9c19bac492c4fba3f64e796e2e796ba5c5e3caa850c3a2af358bfc31502201fe2c324a89603fc1c0f1ae86278b29fd260a72675a252590983006ac78f01930121029ea2f0236e0439d2ac14ec92c7b7819f00c34e2dc3eabb0ec1b71b8f613fc3dcffffffff0de7caaf51e377884111b7cea3f1ebc6a5f4831f891a6c6ac26a98ec71e88696000000006b483045022100fc7b8247ac592070d356ac3ce87840946a3184352d80751297c41d6f278265420220674a6c1b01a69bd5bb5e5f8dba7b0081ff7035b4a297a79f82fd794822985860012103f9505760eeb051814fabbf18a635c085cb62ba3fae6b155d97e2bed851a5c0d8ffffffff020000000000000000166a146f6d6e69000000000000001f0000002439563880dfba3c00000000001976a914b1c36cdbc8488828fdf7c51a01ffdc5fad795f3f88ac00000000", "vin": [{"sequence": 4294967295, "scriptSig": {"hex": "483045022100e76736f9c19bac492c4fba3f64e796e2e796ba5c5e3caa850c3a2af358bfc31502201fe2c324a89603fc1c0f1ae86278b29fd260a72675a252590983006ac78f01930121029ea2f0236e0439d2ac14ec92c7b7819f00c34e2dc3eabb0ec1b71b8f613fc3dc", "asm": "3045022100e76736f9c19bac492c4fba3f64e796e2e796ba5c5e3caa850c3a2af358bfc31502201fe2c324a89603fc1c0f1ae86278b29fd260a72675a252590983006ac78f0193[ALL] 029ea2f0236e0439d2ac14ec92c7b7819f00c34e2dc3eabb0ec1b71b8f613fc3dc"}, "vout": 2, "txid": "75b1b29eb91b6a1068eb73c0c03339fde5567c6a9a5f79ad31d2618cac027a37"}, {"sequence": 4294967295, "scriptSig": {"hex": "483045022100fc7b8247ac592070d356ac3ce87840946a3184352d80751297c41d6f278265420220674a6c1b01a69bd5bb5e5f8dba7b0081ff7035b4a297a79f82fd794822985860012103f9505760eeb051814fabbf18a635c085cb62ba3fae6b155d97e2bed851a5c0d8", "asm": "3045022100fc7b8247ac592070d356ac3ce87840946a3184352d80751297c41d6f278265420220674a6c1b01a69bd5bb5e5f8dba7b0081ff7035b4a297a79f82fd794822985860[ALL] 03f9505760eeb051814fabbf18a635c085cb62ba3fae6b155d97e2bed851a5c0d8"}, "vout": 0, "txid": "9686e871ec986ac26a6c1a891f83f4a5c6ebf1a3ceb711418877e351afcae70d"}], "txid": "a1327704ca8ae63cc0c885dd35971157c726c301045697b2ff9e4894bdb8604b", "blocktime": 1537871767, "version": 1, "confirmations": 11495, "time": 1537871767, "locktime": 0, "vsize": 371, "size": 371}