{"hash": "dc68792cc67c19b5d20ec98e024e34ae293028eee8b4ce2016af4ccf082dc399", "blockhash": "0000000000000000000e13cef7c366c0283d82e591d1acd082e914b08063cdf1", "vout": [{"scriptPubKey": {"reqSigs": 1, "hex": "76a914296f5514cf04e49af0af24f94cec9aee64e1399288ac", "addresses": ["14n65NbFpkKxYnrS1t8vu7a77swAbNZZGr"], "asm": "OP_DUP OP_HASH160 296f5514cf04e49af0af24f94cec9aee64e13992 OP_EQUALVERIFY OP_CHECKSIG", "type": "pubkeyhash"}, "value": 0.2, "n": 0}, {"scriptPubKey": {"reqSigs": 1, "hex": "a914743413705bbaa4fb4d103f4f0a374df35e917f4387", "addresses": ["3CHSh6V2Smhbiv4n2FSBKUCgf2yxXGb51X"], "asm": "OP_HASH160 743413705bbaa4fb4d103f4f0a374df35e917f43 OP_EQUAL", "type": "scripthash"}, "value": 0.30817512, "n": 1}], "hex": "010000000001016ebe8c53edca3f9d9e3a36a0b5bc5695fe5faf7fb4e9409eb914981be755faa81f00000017160014902a5f56361283301e4db7be4c0b197ff452bfd7ffffff0002002d3101000000001976a914296f5514cf04e49af0af24f94cec9aee64e1399288ace83cd6010000000017a914743413705bbaa4fb4d103f4f0a374df35e917f438702483045022100b0870671d9b3975306ebe08a1a6726447256868ad4c7f5250db8490651fc4deb0220717c64b3ffeada19e5f59fec23550939280b68e41f44145abe44c14dd5d8a832012103415d205dd61e8f7a84b619f5bea4fba4090cc251ee56b6d49d5a22ac8267925200000000", "vin": [{"txinwitness": ["3045022100b0870671d9b3975306ebe08a1a6726447256868ad4c7f5250db8490651fc4deb0220717c64b3ffeada19e5f59fec23550939280b68e41f44145abe44c14dd5d8a83201", "03415d205dd61e8f7a84b619f5bea4fba4090cc251ee56b6d49d5a22ac82679252"], "sequence": 16777215, "scriptSig": {"hex": "160014902a5f56361283301e4db7be4c0b197ff452bfd7", "asm": "0014902a5f56361283301e4db7be4c0b197ff452bfd7"}, "vout": 31, "txid": "a8fa55e71b9814b99e40e9b47faf5ffe9556bcb5a0363a9e9d3fcaed538cbe6e"}], "txid": "a133aa6c2b1da1cd71fc82aba7f05949b022f064875033e83ed2d3426672a706", "blocktime": 1537871767, "version": 1, "confirmations": 11495, "time": 1537871767, "locktime": 0, "vsize": 168, "size": 250}