{"hash": "a13501b82ba8aa64d994f4ed430b4866486917668a7b993f708edd10f4dba639", "blockhash": "0000000000000000001e0dab787dd257d1dbfcb92a98c2207d5e1078be1f4165", "vout": [{"scriptPubKey": {"type": "nulldata", "hex": "6a146f6d6e69000000000000001f0000003a1fcd3345", "asm": "OP_RETURN 6f6d6e69000000000000001f0000003a1fcd3345"}, "value": 0.0, "n": 0}, {"scriptPubKey": {"reqSigs": 1, "hex": "76a914a25dec4d0011064ef106a983c39c7a540699f22088ac", "addresses": ["1FoWyxwPXuj4C6abqwhjDWdz6D4PZgYRjA"], "asm": "OP_DUP OP_HASH160 a25dec4d0011064ef106a983c39c7a540699f220 OP_EQUALVERIFY OP_CHECKSIG", "type": "pubkeyhash"}, "value": 5.46e-06, "n": 1}, {"scriptPubKey": {"reqSigs": 1, "hex": "76a914b615d7e03d1835906a7287a2c206e24e6c37eb1688ac", "addresses": ["1Hbn9cNSKZCn4da3fr4uZLBX9FDM4bB1PA"], "asm": "OP_DUP OP_HASH160 b615d7e03d1835906a7287a2c206e24e6c37eb16 OP_EQUALVERIFY OP_CHECKSIG", "type": "pubkeyhash"}, "value": 0.00457233, "n": 2}], "hex": "010000000306ad834c320cbb4210f5e319f22255f82b629245581e3c3b9d961c6464d01e88020000006b483045022100ea2730212e60ec46e3186b27fdfc41fbea5f69cc688087a7aef0e87bc2da3b4b022053e9b480c9f0293efa1aa4135a82e4dc38b534071f852f95a3ab29358c378dbe01210235a37630045b6be158d83fd606665e40e6694be2d913abcc67e13196cb0abadbfeffffff008fc58f815d30a1c54316d1cbbfe65ffc50c9efa507bb52ed1bab7c156b11ad020000006b483045022100b82041d0cf86e28920ce8b7197cf9535a7e9200828b15933719d0dc1cd66f23b022039456aa7fe1fd26d469325ff7454a83d802f38525fe495404a02651fa1b29ecc01210235a37630045b6be158d83fd606665e40e6694be2d913abcc67e13196cb0abadbfeffffff09318f4a7667c1adf8a020898913c614c17cc6235233685272184adb5450e937020000006a47304402203dbbcbe693593ca6339fdb48fa31af651957aa955d37ce38d3da47000a600dc602201b936614a121af983453205baaa12c059529d1ac0876235330165d6a0f42336801210235a37630045b6be158d83fd606665e40e6694be2d913abcc67e13196cb0abadbfeffffff030000000000000000166a146f6d6e69000000000000001f0000003a1fcd334522020000000000001976a914a25dec4d0011064ef106a983c39c7a540699f22088ac11fa0600000000001976a914b615d7e03d1835906a7287a2c206e24e6c37eb1688ac12490800", "vin": [{"sequence": 4294967294, "scriptSig": {"hex": "483045022100ea2730212e60ec46e3186b27fdfc41fbea5f69cc688087a7aef0e87bc2da3b4b022053e9b480c9f0293efa1aa4135a82e4dc38b534071f852f95a3ab29358c378dbe01210235a37630045b6be158d83fd606665e40e6694be2d913abcc67e13196cb0abadb", "asm": "3045022100ea2730212e60ec46e3186b27fdfc41fbea5f69cc688087a7aef0e87bc2da3b4b022053e9b480c9f0293efa1aa4135a82e4dc38b534071f852f95a3ab29358c378dbe[ALL] 0235a37630045b6be158d83fd606665e40e6694be2d913abcc67e13196cb0abadb"}, "vout": 2, "txid": "881ed064641c969d3b3c1e584592622bf85522f219e3f51042bb0c324c83ad06"}, {"sequence": 4294967294, "scriptSig": {"hex": "483045022100b82041d0cf86e28920ce8b7197cf9535a7e9200828b15933719d0dc1cd66f23b022039456aa7fe1fd26d469325ff7454a83d802f38525fe495404a02651fa1b29ecc01210235a37630045b6be158d83fd606665e40e6694be2d913abcc67e13196cb0abadb", "asm": "3045022100b82041d0cf86e28920ce8b7197cf9535a7e9200828b15933719d0dc1cd66f23b022039456aa7fe1fd26d469325ff7454a83d802f38525fe495404a02651fa1b29ecc[ALL] 0235a37630045b6be158d83fd606665e40e6694be2d913abcc67e13196cb0abadb"}, "vout": 2, "txid": "ad116b157cab1bed52bb07a5efc950fc5fe6bfcbd11643c5a1305d818fc58f00"}, {"sequence": 4294967294, "scriptSig": {"hex": "47304402203dbbcbe693593ca6339fdb48fa31af651957aa955d37ce38d3da47000a600dc602201b936614a121af983453205baaa12c059529d1ac0876235330165d6a0f42336801210235a37630045b6be158d83fd606665e40e6694be2d913abcc67e13196cb0abadb", "asm": "304402203dbbcbe693593ca6339fdb48fa31af651957aa955d37ce38d3da47000a600dc602201b936614a121af983453205baaa12c059529d1ac0876235330165d6a0f423368[ALL] 0235a37630045b6be158d83fd606665e40e6694be2d913abcc67e13196cb0abadb"}, "vout": 2, "txid": "37e95054db4a18725268335223c67cc114c613898920a0f8adc167764a8f3109"}], "txid": "a13501b82ba8aa64d994f4ed430b4866486917668a7b993f708edd10f4dba639", "blocktime": 1537872475, "version": 1, "confirmations": 11487, "time": 1537872475, "locktime": 542994, "vsize": 552, "size": 552}