{"hash": "a137b63984ab32c90e57365afb92a218d29d58985d347bf51f3fbd06775942d7", "blockhash": "00000000000000000017f5eb5941039fbcee6240d03bc1f2f8e35350df66a1d8", "vout": [{"scriptPubKey": {"reqSigs": 1, "hex": "76a91413b6843f55a40a5848d801d00d5cba2da75e243588ac", "addresses": ["12oEV7xF7oQh4voRPsrjWgwu1dNha3uPqp"], "asm": "OP_DUP OP_HASH160 13b6843f55a40a5848d801d00d5cba2da75e2435 OP_EQUALVERIFY OP_CHECKSIG", "type": "pubkeyhash"}, "value": 0.29999887, "n": 0}], "hex": "01000000037374386e1213d52dedfb77c59d96174fb708023c32f4ae647a224fc21de35863000000006a473044022047776b4689194ceeb3a058849d7d66fae8ae0a0faea6e60597a4eee6e0394a25022002dc523c7516bea327ad46ee4dadbfa72a01cc3e402de4e7c802e6fb6f71ebdc0121034d0ea65994c568d6110f75759d227566eb413f333011c2c558ec5b8a84f19d54ffffffffe08fb3421f6078bbbd258edf28c6d7e5893b4a5a80df2468395da9da89b71af0000000006b4830450221009f469d2b878b7bdc340ae71643d0ceb16722afc170fa2326186ede8c9e34ca94022016b5e6c7024605be5fc8fca5beec240bdcd919d3cc9be58aa06e9381d7b76e9001210397272f0bd9cbe790ab2c4c22cbce686e9ad923fe98f1257f296c65f04a46b787ffffffff8ae1c0414c590e9b6b8e40dde3af545e1bb55d36e329594e04ad2c3940a7c3fc010000006b483045022100c588c07e9484ed10187c56afb12a2d7b9daec890e4b077f2e055691257177374022070824dc3ced6bf20e4b99e26e4e6743dd7f41d9afa7d158ec5f78d59ef0887590121023ea8b8d583e64ac2b97ba1f206fe6c056cb64e5a7684ea07bb3a12b96efb70a5ffffffff010fc3c901000000001976a91413b6843f55a40a5848d801d00d5cba2da75e243588ac00000000", "vin": [{"sequence": 4294967295, "scriptSig": {"hex": "473044022047776b4689194ceeb3a058849d7d66fae8ae0a0faea6e60597a4eee6e0394a25022002dc523c7516bea327ad46ee4dadbfa72a01cc3e402de4e7c802e6fb6f71ebdc0121034d0ea65994c568d6110f75759d227566eb413f333011c2c558ec5b8a84f19d54", "asm": "3044022047776b4689194ceeb3a058849d7d66fae8ae0a0faea6e60597a4eee6e0394a25022002dc523c7516bea327ad46ee4dadbfa72a01cc3e402de4e7c802e6fb6f71ebdc[ALL] 034d0ea65994c568d6110f75759d227566eb413f333011c2c558ec5b8a84f19d54"}, "vout": 0, "txid": "6358e31dc24f227a64aef4323c0208b74f17969dc577fbed2dd513126e387473"}, {"sequence": 4294967295, "scriptSig": {"hex": "4830450221009f469d2b878b7bdc340ae71643d0ceb16722afc170fa2326186ede8c9e34ca94022016b5e6c7024605be5fc8fca5beec240bdcd919d3cc9be58aa06e9381d7b76e9001210397272f0bd9cbe790ab2c4c22cbce686e9ad923fe98f1257f296c65f04a46b787", "asm": "30450221009f469d2b878b7bdc340ae71643d0ceb16722afc170fa2326186ede8c9e34ca94022016b5e6c7024605be5fc8fca5beec240bdcd919d3cc9be58aa06e9381d7b76e90[ALL] 0397272f0bd9cbe790ab2c4c22cbce686e9ad923fe98f1257f296c65f04a46b787"}, "vout": 0, "txid": "f01ab789daa95d396824df805a4a3b89e5d7c628df8e25bdbb78601f42b38fe0"}, {"sequence": 4294967295, "scriptSig": {"hex": "483045022100c588c07e9484ed10187c56afb12a2d7b9daec890e4b077f2e055691257177374022070824dc3ced6bf20e4b99e26e4e6743dd7f41d9afa7d158ec5f78d59ef0887590121023ea8b8d583e64ac2b97ba1f206fe6c056cb64e5a7684ea07bb3a12b96efb70a5", "asm": "3045022100c588c07e9484ed10187c56afb12a2d7b9daec890e4b077f2e055691257177374022070824dc3ced6bf20e4b99e26e4e6743dd7f41d9afa7d158ec5f78d59ef088759[ALL] 023ea8b8d583e64ac2b97ba1f206fe6c056cb64e5a7684ea07bb3a12b96efb70a5"}, "vout": 1, "txid": "fcc3a740392cad044e5929e3365db51b5e54afe3dd408e6b9b0e594c41c0e18a"}], "txid": "a137b63984ab32c90e57365afb92a218d29d58985d347bf51f3fbd06775942d7", "blocktime": 1537874412, "version": 1, "confirmations": 11467, "time": 1537874412, "locktime": 0, "vsize": 487, "size": 487}