{"hash": "8e4389cee4747eaf23e4e46146b88f848255a806f119d8370b7ee79e68aae194", "blockhash": "0000000000000000001f0ddff1eddb255c1121bcd4da4f1bc9a0da00cae72433", "vout": [{"scriptPubKey": {"reqSigs": 1, "hex": "76a91400702b92a23cb01e6ec00d92d581703c6dd6323588ac", "addresses": ["113KNiuh9vUguTTRChrZUhHChZrTumvBts"], "asm": "OP_DUP OP_HASH160 00702b92a23cb01e6ec00d92d581703c6dd63235 OP_EQUALVERIFY OP_CHECKSIG", "type": "pubkeyhash"}, "value": 0.00340768, "n": 0}, {"scriptPubKey": {"reqSigs": 1, "hex": "a9140e409c8c43b6a647c047f9efad92adff0e8b6eed87", "addresses": ["32zNnWtdEKVmEnFCEJU4HXuox2mnmoBxvN"], "asm": "OP_HASH160 0e409c8c43b6a647c047f9efad92adff0e8b6eed OP_EQUAL", "type": "scripthash"}, "value": 2.26857794, "n": 1}], "hex": "02000000000101db1d98d2c76065986faaccf5216447e839c1b0d04357202dd96288ffac781ebb000000001716001424eb4e819d9ae0a581d1da2401c0e316dbb66f03feffffff0220330500000000001976a91400702b92a23cb01e6ec00d92d581703c6dd6323588ac4293850d0000000017a9140e409c8c43b6a647c047f9efad92adff0e8b6eed8702483045022100e5694602113bd8bdda37477e3463ae4efd380cbe9c22dc53025a2e52f06cf5f7022009f42034d828847a5173b71c43e391ecc853b81355f338100528650ad773889d0121036bc4b888101cf82add1ba5b7e2509ebf5e2885130cb536e48c9a12d0d80fd5d010490800", "vin": [{"txinwitness": ["3045022100e5694602113bd8bdda37477e3463ae4efd380cbe9c22dc53025a2e52f06cf5f7022009f42034d828847a5173b71c43e391ecc853b81355f338100528650ad773889d01", "036bc4b888101cf82add1ba5b7e2509ebf5e2885130cb536e48c9a12d0d80fd5d0"], "sequence": 4294967294, "scriptSig": {"hex": "16001424eb4e819d9ae0a581d1da2401c0e316dbb66f03", "asm": "001424eb4e819d9ae0a581d1da2401c0e316dbb66f03"}, "vout": 0, "txid": "bb1e78acff8862d92d205743d0b0c139e8476421f5ccaa6f986560c7d2981ddb"}], "txid": "a13b1b6c2da171ae4777a3788d0bfefab2d8d9f79f0d7ef9e579820aa36d60d0", "blocktime": 1537872018, "version": 2, "confirmations": 11489, "time": 1537872018, "locktime": 542992, "vsize": 168, "size": 250}