{"hash": "601ad504fc952d2fc9b452985394ac75b7173127269f2ccf0701b212ce892bb4", "blockhash": "0000000000000000001cda96e906b7601b7a6fb1a3b62bca570a9e5d8f4b3de1", "vout": [{"scriptPubKey": {"reqSigs": 1, "hex": "76a91462f9a19bb360a0c3c690c954a73ac93b0defb7bb88ac", "addresses": ["1A2LGV8JrkBhHwfUaMMLy55eF2uQ2wYnWE"], "asm": "OP_DUP OP_HASH160 62f9a19bb360a0c3c690c954a73ac93b0defb7bb OP_EQUALVERIFY OP_CHECKSIG", "type": "pubkeyhash"}, "value": 0.010543, "n": 0}, {"scriptPubKey": {"reqSigs": 1, "hex": "0014233023517fb94315d5f58417a42660ed4b689db6", "addresses": ["bc1qyvczx5tlh9p3t404sst6gfnqa49k38dkwx9ztu"], "asm": "0 233023517fb94315d5f58417a42660ed4b689db6", "type": "witness_v0_keyhash"}, "value": 0.00082471, "n": 1}], "hex": "010000000001018e4f7f2d2b153b55e2a1e14caed533a936c1c3f2ab8417599b5d4cbfff1513200000000017160014ffec319c8f3209057d77375521395f9da2d73c66ffffffff025c161000000000001976a91462f9a19bb360a0c3c690c954a73ac93b0defb7bb88ac2742010000000000160014233023517fb94315d5f58417a42660ed4b689db60247304402206420182c68354daae528e1b8c23e8afc72cae26b8e6aea50390072c18f8303d40220492d773bc58ca832a5a17fe5a822622e9998df61fff07efd57986130fe6a336e01210248733647e1d51ae79a3353f401fe43bc44053f549b6aaf536179e58a5772e09800000000", "vin": [{"txinwitness": ["304402206420182c68354daae528e1b8c23e8afc72cae26b8e6aea50390072c18f8303d40220492d773bc58ca832a5a17fe5a822622e9998df61fff07efd57986130fe6a336e01", "0248733647e1d51ae79a3353f401fe43bc44053f549b6aaf536179e58a5772e098"], "sequence": 4294967295, "scriptSig": {"hex": "160014ffec319c8f3209057d77375521395f9da2d73c66", "asm": "0014ffec319c8f3209057d77375521395f9da2d73c66"}, "vout": 0, "txid": "201315ffbf4c5d9b591784abf2c3c136a933d5ae4ce1a1e2553b152b2d7f4f8e"}], "txid": "a13bada276c0680ca976f59efef767ab1915ba81444cc94a4a7a2470f46cc5c8", "blocktime": 1537873282, "version": 1, "confirmations": 11484, "time": 1537873282, "locktime": 0, "vsize": 167, "size": 248}