{"hash": "a13c414d6c7fe481c1bd54ee2e0e8e49f0b717103e2a6714762e998775a10db9", "blockhash": "00000000000000000018f53835495a110e01622372bf6ae95dc86f2b0ab887b0", "vout": [{"scriptPubKey": {"reqSigs": 1, "hex": "a914e208475001b872efb388ee57147523d845c1312d87", "addresses": ["3NJAZ6syovzLiJqCUWEHxdSjXbSdXmtYHv"], "asm": "OP_HASH160 e208475001b872efb388ee57147523d845c1312d OP_EQUAL", "type": "scripthash"}, "value": 0.00164071, "n": 0}], "hex": "01000000013c31ab23555f05b8acf016ab95bcadf943ee5367aaac4272e326f1ef134ce6a00a0000006b483045022100a7bf6702a9135fd429cce7e4e048c0af312374401f907b70b591145c44806deb022029bc626d4c937dbb49a33f44d0a18d7b8f64b6086eb4a3a03e619dfa6b56d99e01210236110deed8aaefec888317394a760455712a81b3390460aa4642d576887f53eeffffffff01e78002000000000017a914e208475001b872efb388ee57147523d845c1312d8700000000", "vin": [{"sequence": 4294967295, "scriptSig": {"hex": "483045022100a7bf6702a9135fd429cce7e4e048c0af312374401f907b70b591145c44806deb022029bc626d4c937dbb49a33f44d0a18d7b8f64b6086eb4a3a03e619dfa6b56d99e01210236110deed8aaefec888317394a760455712a81b3390460aa4642d576887f53ee", "asm": "3045022100a7bf6702a9135fd429cce7e4e048c0af312374401f907b70b591145c44806deb022029bc626d4c937dbb49a33f44d0a18d7b8f64b6086eb4a3a03e619dfa6b56d99e[ALL] 0236110deed8aaefec888317394a760455712a81b3390460aa4642d576887f53ee"}, "vout": 10, "txid": "a0e64c13eff126e37242acaa6753ee43f9adbc95ab16f0acb8055f5523ab313c"}], "txid": "a13c414d6c7fe481c1bd54ee2e0e8e49f0b717103e2a6714762e998775a10db9", "blocktime": 1537870928, "version": 1, "confirmations": 11512, "time": 1537870928, "locktime": 0, "vsize": 190, "size": 190}