{"hash": "de4c3b84d3e83ac32d303a9ecde3514447f6eb2cafc7be3ff927b61486e37289", "blockhash": "0000000000000000000dcc0f55137456b1a82d3642486a52398922ac4d620174", "vout": [{"scriptPubKey": {"reqSigs": 1, "hex": "a9142a421c04eb749a8d27cd9db6924237aad9a354d087", "addresses": ["35YTVxy2wp9A3XStZ28VKi2euP2KDZSURT"], "asm": "OP_HASH160 2a421c04eb749a8d27cd9db6924237aad9a354d0 OP_EQUAL", "type": "scripthash"}, "value": 5e-05, "n": 0}, {"scriptPubKey": {"reqSigs": 1, "hex": "a91429e920841111c46e2719bfa45f8ada28da80a34487", "addresses": ["35WcuMhqjv6i76u7qPrJZMhB7qmhps8zna"], "asm": "OP_HASH160 29e920841111c46e2719bfa45f8ada28da80a344 OP_EQUAL", "type": "scripthash"}, "value": 0.00207041, "n": 1}], "hex": "01000000000101ffef71bbb24c241d4550dfc25502af22001528e4d6ac53aaac1b68ff455f09b50100000017160014c0df8f675679dde9ac63cd75d7de8d509290a341ffffffff02881300000000000017a9142a421c04eb749a8d27cd9db6924237aad9a354d087c12803000000000017a91429e920841111c46e2719bfa45f8ada28da80a34487024730440220413413558e370b8c42c238af0bd642f07960256e5898061e33fe25b9f246172a022023c52dda9332bd0854aef9781ad58e0c95fe2fe651133bc5184e250e1a0048870121025f92ea05efe73d2979d58e7b87a9d93edb84f4abb6bbfa6f05f55ac039f68f1000000000", "vin": [{"txinwitness": ["30440220413413558e370b8c42c238af0bd642f07960256e5898061e33fe25b9f246172a022023c52dda9332bd0854aef9781ad58e0c95fe2fe651133bc5184e250e1a00488701", "025f92ea05efe73d2979d58e7b87a9d93edb84f4abb6bbfa6f05f55ac039f68f10"], "sequence": 4294967295, "scriptSig": {"hex": "160014c0df8f675679dde9ac63cd75d7de8d509290a341", "asm": "0014c0df8f675679dde9ac63cd75d7de8d509290a341"}, "vout": 1, "txid": "b5095f45ff681bacaa53acd6e428150022af0255c2df50451d244cb2bb71efff"}], "txid": "a13d924cf05f08416c227dbfb503c495f9a174a8aef81953cbf8d4c7a78eb1eb", "blocktime": 1537870268, "version": 1, "confirmations": 11518, "time": 1537870268, "locktime": 0, "vsize": 166, "size": 247}