{"hash": "06261e3cbeb2be5488f0b461d5c227c5a2c5cc4992ef6d44e8dbc4e150c6b15b", "blockhash": "000000000000000000022b45ed06c6f4ccd3cf7fb5ba4856ebd2e58215665228", "vout": [{"scriptPubKey": {"reqSigs": 1, "hex": "76a9149c49d321eb656303453d768c55ff9a669aa4b7b288ac", "addresses": ["1FFNrMmpNHyR2PJMz4edx39q1ym14A4dGU"], "asm": "OP_DUP OP_HASH160 9c49d321eb656303453d768c55ff9a669aa4b7b2 OP_EQUALVERIFY OP_CHECKSIG", "type": "pubkeyhash"}, "value": 0.00658293, "n": 0}, {"scriptPubKey": {"reqSigs": 1, "hex": "a9140a06d8910ebbd8ea17d85fef39ce94978a64682f87", "addresses": ["32c2t8Nd9z3JPD5bYkJj8aHAU4pim5G454"], "asm": "OP_HASH160 0a06d8910ebbd8ea17d85fef39ce94978a64682f OP_EQUAL", "type": "scripthash"}, "value": 0.00333443, "n": 1}, {"scriptPubKey": {"reqSigs": 1, "hex": "a9148ce1786180aedc08a99425a7b996157ff05c0b9787", "addresses": ["3EXvdM4oid6MaAmcYkomfddK9hGqHsez1A"], "asm": "OP_HASH160 8ce1786180aedc08a99425a7b996157ff05c0b97 OP_EQUAL", "type": "scripthash"}, "value": 0.04749905, "n": 2}, {"scriptPubKey": {"reqSigs": 1, "hex": "a914fbc5c5c51911f4282a27b963b3e6f873d404f9ef87", "addresses": ["3QeGTApR6r6knHYdiN4A5r2mS3cUsyDQVf"], "asm": "OP_HASH160 fbc5c5c51911f4282a27b963b3e6f873d404f9ef OP_EQUAL", "type": "scripthash"}, "value": 0.00293416, "n": 3}, {"scriptPubKey": {"reqSigs": 1, "hex": "a914b943861174945e69b87d6165c716dcd7f0738c7787", "addresses": ["3JabpfKnoKoE6TtTLb9L8AgesvyybjbnST"], "asm": "OP_HASH160 b943861174945e69b87d6165c716dcd7f0738c77 OP_EQUAL", "type": "scripthash"}, "value": 0.00339037, "n": 4}, {"scriptPubKey": {"reqSigs": 1, "hex": "a914155ffd4a39c9e799cac5c8a94eda65a13846092387", "addresses": ["33e372uFV3mE43bFFia8LxHiYucEMKdfgP"], "asm": "OP_HASH160 155ffd4a39c9e799cac5c8a94eda65a138460923 OP_EQUAL", "type": "scripthash"}, "value": 1.97587425, "n": 5}, {"scriptPubKey": {"reqSigs": 1, "hex": "a9146e8a798110abaab831c1063e2e5ffb68ab456ff387", "addresses": ["3BmW92jjr2DJTpCJQC256C569Pa3egLkB7"], "asm": "OP_HASH160 6e8a798110abaab831c1063e2e5ffb68ab456ff3 OP_EQUAL", "type": "scripthash"}, "value": 0.00749394, "n": 6}, {"scriptPubKey": {"reqSigs": 1, "hex": "a9148cfe1e26c66e49862c23f42e2ed7979f4bb592a187", "addresses": ["3EYWwp6fk953z6PxjVydtpXuDpHu5VRbpd"], "asm": "OP_HASH160 8cfe1e26c66e49862c23f42e2ed7979f4bb592a1 OP_EQUAL", "type": "scripthash"}, "value": 0.0027696, "n": 7}, {"scriptPubKey": {"reqSigs": 1, "hex": "a914af40b2ee169a9b9542d60538c202e039b08c9d2987", "addresses": ["3HffgUYDv8yBrkmDU1hbTiguWrttT8yhdC"], "asm": "OP_HASH160 af40b2ee169a9b9542d60538c202e039b08c9d29 OP_EQUAL", "type": "scripthash"}, "value": 0.0059367, "n": 8}, {"scriptPubKey": {"reqSigs": 1, "hex": "a914d39df1d43c12d722c76c5bcf05b2471571c840df87", "addresses": ["3LywiCvAbj2mmkqqQP7SmN8foqfu5CVj71"], "asm": "OP_HASH160 d39df1d43c12d722c76c5bcf05b2471571c840df OP_EQUAL", "type": "scripthash"}, "value": 0.00234712, "n": 9}, {"scriptPubKey": {"reqSigs": 1, "hex": "76a914723ead203b4673e521a353a2762078024637aef288ac", "addresses": ["1BR57hATLVARmYLThp27PmNTSv74EfJZZy"], "asm": "OP_DUP OP_HASH160 723ead203b4673e521a353a2762078024637aef2 OP_EQUALVERIFY OP_CHECKSIG", "type": "pubkeyhash"}, "value": 0.095, "n": 10}, {"scriptPubKey": {"reqSigs": 1, "hex": "76a91468ca6852a4073613bb564197fd11e06c0c80e48f88ac", "addresses": ["1AZ5kUJhQPM3oUVbJSqot1DPCE3gaJqoCq"], "asm": "OP_DUP OP_HASH160 68ca6852a4073613bb564197fd11e06c0c80e48f OP_EQUALVERIFY OP_CHECKSIG", "type": "pubkeyhash"}, "value": 0.0051671, "n": 11}, {"scriptPubKey": {"reqSigs": 1, "hex": "a914cf803ad9fb8c5b660ee87bff9b825497b12c459687", "addresses": ["3LcBQpbozSqL19pMtzTC7ndCerLYE49Hde"], "asm": "OP_HASH160 cf803ad9fb8c5b660ee87bff9b825497b12c4596 OP_EQUAL", "type": "scripthash"}, "value": 0.00328333, "n": 12}, {"scriptPubKey": {"reqSigs": 1, "hex": "76a9144723c03228031db61d21b0f35f8fffdbbbb3547488ac", "addresses": ["17V9odMACQqD3BSdpVJmKJmHjrv8u4MewS"], "asm": "OP_DUP OP_HASH160 4723c03228031db61d21b0f35f8fffdbbbb35474 OP_EQUALVERIFY OP_CHECKSIG", "type": "pubkeyhash"}, "value": 0.017997, "n": 13}, {"scriptPubKey": {"reqSigs": 1, "hex": "76a914ec094bc9e0e76ed761924993513d3503775d03b988ac", "addresses": ["1NX3cB2J95WKG5vJPKsqbCNG4NmPodkacu"], "asm": "OP_DUP OP_HASH160 ec094bc9e0e76ed761924993513d3503775d03b9 OP_EQUALVERIFY OP_CHECKSIG", "type": "pubkeyhash"}, "value": 0.02825932, "n": 14}, {"scriptPubKey": {"reqSigs": 1, "hex": "a9147ae134e2dd0a9ed4872efaf52064ba1a67d5747487", "addresses": ["3Ctk9aJeSUUFcYxE8aNCuofEXrwQNrNbYN"], "asm": "OP_HASH160 7ae134e2dd0a9ed4872efaf52064ba1a67d57474 OP_EQUAL", "type": "scripthash"}, "value": 0.00593802, "n": 15}, {"scriptPubKey": {"reqSigs": 1, "hex": "a91476cc72b11683b20a8ef2d2d164289bb1b5a2a9de87", "addresses": ["3CXAaUcLCuz9ipc34DVWnoWKp9eNFzZoFK"], "asm": "OP_HASH160 76cc72b11683b20a8ef2d2d164289bb1b5a2a9de OP_EQUAL", "type": "scripthash"}, "value": 0.0023786, "n": 16}, {"scriptPubKey": {"reqSigs": 1, "hex": "a9148ea6cbafb36861792fa21349a3f5cf377864111a87", "addresses": ["3EhHgwyJebo2cdQk8maDZ2CJtLqU1KHYmH"], "asm": "OP_HASH160 8ea6cbafb36861792fa21349a3f5cf377864111a OP_EQUAL", "type": "scripthash"}, "value": 0.0032956, "n": 17}, {"scriptPubKey": {"reqSigs": 1, "hex": "a9144fe85d56c5f37022cb467a5129f751d5dc05a3c687", "addresses": ["38yXfg4B66S1ZAKGDbAZzC2Jz8Y3u4QSpB"], "asm": "OP_HASH160 4fe85d56c5f37022cb467a5129f751d5dc05a3c6 OP_EQUAL", "type": "scripthash"}, "value": 0.0026, "n": 18}, {"scriptPubKey": {"reqSigs": 1, "hex": "a914c3a33111d72894bfa5a593e252b8f82fff8fb72787", "addresses": ["3KXTBhyZzBYpY3tP7aK8z1rjEDjaeaD2su"], "asm": "OP_HASH160 c3a33111d72894bfa5a593e252b8f82fff8fb727 OP_EQUAL", "type": "scripthash"}, "value": 0.24, "n": 19}, {"scriptPubKey": {"reqSigs": 1, "hex": "76a914b05a4527096cd77f28f30a83bf90f03ddf225dec88ac", "addresses": ["1H5U4qkY7wAs12sjTkApED2763q8yJ7cZS"], "asm": "OP_DUP OP_HASH160 b05a4527096cd77f28f30a83bf90f03ddf225dec OP_EQUALVERIFY OP_CHECKSIG", "type": "pubkeyhash"}, "value": 0.00234567, "n": 20}, {"scriptPubKey": {"reqSigs": 1, "hex": "76a914636860c9b509a1d21292d2bf022ed7ee285aafd288ac", "addresses": ["1A4cwJpRFuKyYKHbM9A6f8XcPHeFAagvou"], "asm": "OP_DUP OP_HASH160 636860c9b509a1d21292d2bf022ed7ee285aafd2 OP_EQUALVERIFY OP_CHECKSIG", "type": "pubkeyhash"}, "value": 0.02992566, "n": 21}, {"scriptPubKey": {"reqSigs": 1, "hex": "a9142848007adcadfc222fca7afa53af561a1e9792e187", "addresses": ["35N1CzfCfGkcRnUmTiC8PaKCK4Tqogw17d"], "asm": "OP_HASH160 2848007adcadfc222fca7afa53af561a1e9792e1 OP_EQUAL", "type": "scripthash"}, "value": 0.00479174, "n": 22}, {"scriptPubKey": {"reqSigs": 1, "hex": "a914951f91ee74699ba2c9c7310f256352452b69de0a87", "addresses": ["3FHWRekQw1HUs9FhtgeF4wgFJJYK5tg5gG"], "asm": "OP_HASH160 951f91ee74699ba2c9c7310f256352452b69de0a OP_EQUAL", "type": "scripthash"}, "value": 0.00156314, "n": 23}, {"scriptPubKey": {"reqSigs": 1, "hex": "76a9143740a0f8b6f102d2c4f72e04e4a99bc50dad09d788ac", "addresses": ["1639b3D6gHNDyqfGN2NQEPAp1u6iejdsWK"], "asm": "OP_DUP OP_HASH160 3740a0f8b6f102d2c4f72e04e4a99bc50dad09d7 OP_EQUALVERIFY OP_CHECKSIG", "type": "pubkeyhash"}, "value": 0.00750589, "n": 24}, {"scriptPubKey": {"reqSigs": 1, "hex": "a914792e4d7da4c6ee53775939c175b121038bd7ae1987", "addresses": ["3Cjm9vVdkVd7AJiUyWVsZtxzoW3Hu4VHhd"], "asm": "OP_HASH160 792e4d7da4c6ee53775939c175b121038bd7ae19 OP_EQUAL", "type": "scripthash"}, "value": 0.00501446, "n": 25}, {"scriptPubKey": {"reqSigs": 1, "hex": "a914f55123061281a7f01fc0691187c64a9ea34896e887", "addresses": ["3Q48g2W497g9hCZT4LhDowM7Lmbr7uebs1"], "asm": "OP_HASH160 f55123061281a7f01fc0691187c64a9ea34896e8 OP_EQUAL", "type": "scripthash"}, "value": 0.00016654, "n": 26}], "hex": "02000000000101d06cdaa1b7eaaf11e3bf115eacd6c6787bab6231369605455fd5f0fae1e06e7e03000000171600146d3644abe263f72e35ad0287c21c8ed7011cb0b7feffffff1b750b0a00000000001976a9149c49d321eb656303453d768c55ff9a669aa4b7b288ac831605000000000017a9140a06d8910ebbd8ea17d85fef39ce94978a64682f87517a48000000000017a9148ce1786180aedc08a99425a7b996157ff05c0b9787287a04000000000017a914fbc5c5c51911f4282a27b963b3e6f873d404f9ef875d2c05000000000017a914b943861174945e69b87d6165c716dcd7f0738c7787e1f1c60b0000000017a914155ffd4a39c9e799cac5c8a94eda65a13846092387526f0b000000000017a9146e8a798110abaab831c1063e2e5ffb68ab456ff387e03904000000000017a9148cfe1e26c66e49862c23f42e2ed7979f4bb592a187060f09000000000017a914af40b2ee169a9b9542d60538c202e039b08c9d2987d89403000000000017a914d39df1d43c12d722c76c5bcf05b2471571c840df8760f59000000000001976a914723ead203b4673e521a353a2762078024637aef288ac66e20700000000001976a91468ca6852a4073613bb564197fd11e06c0c80e48f88ac8d0205000000000017a914cf803ad9fb8c5b660ee87bff9b825497b12c45968714761b00000000001976a9144723c03228031db61d21b0f35f8fffdbbbb3547488accc1e2b00000000001976a914ec094bc9e0e76ed761924993513d3503775d03b988ac8a0f09000000000017a9147ae134e2dd0a9ed4872efaf52064ba1a67d574748724a103000000000017a91476cc72b11683b20a8ef2d2d164289bb1b5a2a9de87580705000000000017a9148ea6cbafb36861792fa21349a3f5cf377864111a87a0f703000000000017a9144fe85d56c5f37022cb467a5129f751d5dc05a3c68700366e010000000017a914c3a33111d72894bfa5a593e252b8f82fff8fb7278747940300000000001976a914b05a4527096cd77f28f30a83bf90f03ddf225dec88acb6a92d00000000001976a914636860c9b509a1d21292d2bf022ed7ee285aafd288acc64f07000000000017a9142848007adcadfc222fca7afa53af561a1e9792e1879a6202000000000017a914951f91ee74699ba2c9c7310f256352452b69de0a87fd730b00000000001976a9143740a0f8b6f102d2c4f72e04e4a99bc50dad09d788acc6a607000000000017a914792e4d7da4c6ee53775939c175b121038bd7ae19870e4100000000000017a914f55123061281a7f01fc0691187c64a9ea34896e88702483045022100e532bb962cb1579478c5daaceedbe37ce7bf664dd494799bd3c5c56fbbd8ac6902206b15bb2ff8b432ab67c149002e69a9aaca1ecb83ec5d2d6ec530d38e8aa2dacc012103fd64e906b651c6da324110b80e326c7219653214f52328316ca70d937673df9c0b490800", "vin": [{"txinwitness": ["3045022100e532bb962cb1579478c5daaceedbe37ce7bf664dd494799bd3c5c56fbbd8ac6902206b15bb2ff8b432ab67c149002e69a9aaca1ecb83ec5d2d6ec530d38e8aa2dacc01", "03fd64e906b651c6da324110b80e326c7219653214f52328316ca70d937673df9c"], "sequence": 4294967294, "scriptSig": {"hex": "1600146d3644abe263f72e35ad0287c21c8ed7011cb0b7", "asm": "00146d3644abe263f72e35ad0287c21c8ed7011cb0b7"}, "vout": 3, "txid": "7e6ee0e1faf0d55f450596363162ab7b78c6d6ac5e11bfe311afeab7a1da6cd0"}], "txid": "a140c2655fecacd61c499928c73dbdadd6665dd206a98e8322c840f64c6bfa0b", "blocktime": 1537869901, "version": 2, "confirmations": 11522, "time": 1537869901, "locktime": 542987, "vsize": 982, "size": 1064}