{"hash": "a1412f24037e3b14736a870bc7782abe7b0aa6046385b25908e733da9bb5869a", "blockhash": "0000000000000000001cda96e906b7601b7a6fb1a3b62bca570a9e5d8f4b3de1", "vout": [{"scriptPubKey": {"reqSigs": 1, "hex": "76a914d243e6abb9a60fbff430b421d2df4b7d59ec186088ac", "addresses": ["1LAnF8h3qMGx3TSwNUHVneBZUEpwE4gu3D"], "asm": "OP_DUP OP_HASH160 d243e6abb9a60fbff430b421d2df4b7d59ec1860 OP_EQUALVERIFY OP_CHECKSIG", "type": "pubkeyhash"}, "value": 0.00077314, "n": 0}, {"scriptPubKey": {"reqSigs": 1, "hex": "76a914e559371d1ceae4cc1718e17df9c009fd0b7c85cf88ac", "addresses": ["1MugciXnLcsvarNDQUHZTYSJnZmvzSGGzD"], "asm": "OP_DUP OP_HASH160 e559371d1ceae4cc1718e17df9c009fd0b7c85cf OP_EQUALVERIFY OP_CHECKSIG", "type": "pubkeyhash"}, "value": 5.46e-06, "n": 1}, {"scriptPubKey": {"type": "nulldata", "hex": "6a146f6d6e69000000000000001f0000000a4a867a00", "asm": "OP_RETURN 6f6d6e69000000000000001f0000000a4a867a00"}, "value": 0.0, "n": 2}], "hex": "0100000001a3ab5255d18fdbb68dcaccc1c69798eb0b1a9c77f26e7cd994951be969c652f6000000006a47304402201036c06087d1d4d74dd5e26c0ce684df99ccf7ffcfeb7201ac8cf5f550436303022035bf08ee0a22311793613cf50b7fa4750d17eba0fe88eb5fe7005553970afb5001210271977291b74f1f5f5c42157e8aae804664eaaeccfd097918450d37f28fb94d77ffffffff03022e0100000000001976a914d243e6abb9a60fbff430b421d2df4b7d59ec186088ac22020000000000001976a914e559371d1ceae4cc1718e17df9c009fd0b7c85cf88ac0000000000000000166a146f6d6e69000000000000001f0000000a4a867a0000000000", "vin": [{"sequence": 4294967295, "scriptSig": {"hex": "47304402201036c06087d1d4d74dd5e26c0ce684df99ccf7ffcfeb7201ac8cf5f550436303022035bf08ee0a22311793613cf50b7fa4750d17eba0fe88eb5fe7005553970afb5001210271977291b74f1f5f5c42157e8aae804664eaaeccfd097918450d37f28fb94d77", "asm": "304402201036c06087d1d4d74dd5e26c0ce684df99ccf7ffcfeb7201ac8cf5f550436303022035bf08ee0a22311793613cf50b7fa4750d17eba0fe88eb5fe7005553970afb50[ALL] 0271977291b74f1f5f5c42157e8aae804664eaaeccfd097918450d37f28fb94d77"}, "vout": 0, "txid": "f652c669e91b9594d97c6ef2779c1a0beb9897c6c1ccca8db6db8fd15552aba3"}], "txid": "a1412f24037e3b14736a870bc7782abe7b0aa6046385b25908e733da9bb5869a", "blocktime": 1537873282, "version": 1, "confirmations": 11483, "time": 1537873282, "locktime": 0, "vsize": 256, "size": 256}