{"hash": "a14208c0cb01eae10cbf601f2f4d3b54122c4211562b0d1bb4fd54822bd060ef", "blockhash": "0000000000000000000e13cef7c366c0283d82e591d1acd082e914b08063cdf1", "vout": [{"scriptPubKey": {"reqSigs": 1, "hex": "76a91482ecec346f7ce1e5f9aa91c92496944da28cb33188ac", "addresses": ["1CwGfccYMB6bt5YTxkkTD2BJugKZCFETcw"], "asm": "OP_DUP OP_HASH160 82ecec346f7ce1e5f9aa91c92496944da28cb331 OP_EQUALVERIFY OP_CHECKSIG", "type": "pubkeyhash"}, "value": 0.00117167, "n": 0}, {"scriptPubKey": {"reqSigs": 1, "hex": "76a914f39433c3bf5d8d246890023d6a8ee2731c4f0b4788ac", "addresses": ["1PCvjtJfcDHNLebTD4y5WXEcvM1AtYkESc"], "asm": "OP_DUP OP_HASH160 f39433c3bf5d8d246890023d6a8ee2731c4f0b47 OP_EQUALVERIFY OP_CHECKSIG", "type": "pubkeyhash"}, "value": 0.00243179, "n": 1}], "hex": "01000000018ec342e69e8d171b4bc9db716a18a68c88760dd7eacf25126085e955e53a54fc010000006b483045022100921a1ad9beecb263bacabacc289e29c11f7e6c4866d6999a92de9ca291d86dbc0220571615540d2bc4c908ca9379e271e41bf1b4b2fcf4a828c8f05f8d6e2bc2e89d012103faf680d93964672936c7f34a809beb623da5f326789bd99b4c662c7c65c4966dffffffff02afc90100000000001976a91482ecec346f7ce1e5f9aa91c92496944da28cb33188acebb50300000000001976a914f39433c3bf5d8d246890023d6a8ee2731c4f0b4788ac00000000", "vin": [{"sequence": 4294967295, "scriptSig": {"hex": "483045022100921a1ad9beecb263bacabacc289e29c11f7e6c4866d6999a92de9ca291d86dbc0220571615540d2bc4c908ca9379e271e41bf1b4b2fcf4a828c8f05f8d6e2bc2e89d012103faf680d93964672936c7f34a809beb623da5f326789bd99b4c662c7c65c4966d", "asm": "3045022100921a1ad9beecb263bacabacc289e29c11f7e6c4866d6999a92de9ca291d86dbc0220571615540d2bc4c908ca9379e271e41bf1b4b2fcf4a828c8f05f8d6e2bc2e89d[ALL] 03faf680d93964672936c7f34a809beb623da5f326789bd99b4c662c7c65c4966d"}, "vout": 1, "txid": "fc543ae555e985601225cfead70d76888ca6186a71dbc94b1b178d9ee642c38e"}], "txid": "a14208c0cb01eae10cbf601f2f4d3b54122c4211562b0d1bb4fd54822bd060ef", "blocktime": 1537871767, "version": 1, "confirmations": 11495, "time": 1537871767, "locktime": 0, "vsize": 226, "size": 226}