{"hash": "a14486625474e0c460eb016970d6cebe0d5e95df297dd47c9ba77c5762d11389", "blockhash": "0000000000000000001e0dab787dd257d1dbfcb92a98c2207d5e1078be1f4165", "vout": [{"scriptPubKey": {"reqSigs": 1, "hex": "76a914d77818afa89f0ddb407947f48f149436c70968f888ac", "addresses": ["1LeJ9h1Wqszi3r8bPHURd4qV197MSjYzqg"], "asm": "OP_DUP OP_HASH160 d77818afa89f0ddb407947f48f149436c70968f8 OP_EQUALVERIFY OP_CHECKSIG", "type": "pubkeyhash"}, "value": 0.00280704, "n": 0}, {"scriptPubKey": {"reqSigs": 1, "hex": "76a9147d156184a9c43331353af582acd87ab8be7dfc7d88ac", "addresses": ["1CQP5Z1bCzjVYL7KzMCiFuxMehqYgiWXz5"], "asm": "OP_DUP OP_HASH160 7d156184a9c43331353af582acd87ab8be7dfc7d OP_EQUALVERIFY OP_CHECKSIG", "type": "pubkeyhash"}, "value": 0.03152856, "n": 1}], "hex": "01000000013771a6292003c2be89ae794fc1a095913a99edf366341a8437d6e21176f7e970080000006a473044022050cd457d0d1e5e3c905e4b9283817a3fbb26da23e6e6ada7131a2b6c1e74249a022065c84e45d0e79954d0f7c3c51e6d1132d7f32527f240a1283cd53d65c4013e4c0121025d9a417bdc502442fb140b6ed0ca457fefc464ce789c05ba06a63ebd7c85f682ffffffff0280480400000000001976a914d77818afa89f0ddb407947f48f149436c70968f888acd81b3000000000001976a9147d156184a9c43331353af582acd87ab8be7dfc7d88ac00000000", "vin": [{"sequence": 4294967295, "scriptSig": {"hex": "473044022050cd457d0d1e5e3c905e4b9283817a3fbb26da23e6e6ada7131a2b6c1e74249a022065c84e45d0e79954d0f7c3c51e6d1132d7f32527f240a1283cd53d65c4013e4c0121025d9a417bdc502442fb140b6ed0ca457fefc464ce789c05ba06a63ebd7c85f682", "asm": "3044022050cd457d0d1e5e3c905e4b9283817a3fbb26da23e6e6ada7131a2b6c1e74249a022065c84e45d0e79954d0f7c3c51e6d1132d7f32527f240a1283cd53d65c4013e4c[ALL] 025d9a417bdc502442fb140b6ed0ca457fefc464ce789c05ba06a63ebd7c85f682"}, "vout": 8, "txid": "70e9f77611e2d637841a3466f3ed993a9195a0c14f79ae89bec2032029a67137"}], "txid": "a14486625474e0c460eb016970d6cebe0d5e95df297dd47c9ba77c5762d11389", "blocktime": 1537872475, "version": 1, "confirmations": 11487, "time": 1537872475, "locktime": 0, "vsize": 225, "size": 225}