{"hash": "a1485ab6fb721d458666d048018d88c5f41b1c3d08e0560f94ac166c6ebb329c", "blockhash": "0000000000000000001f76057863aec43deb6fa401d9628bb513d65a8098bfab", "vout": [{"scriptPubKey": {"reqSigs": 1, "hex": "a9144b83720c733f9c627ee504c5717c4ed4df18f97287", "addresses": ["38aJ4vaoo7AKhFrLzcbpjXXhNNxFTELqXz"], "asm": "OP_HASH160 4b83720c733f9c627ee504c5717c4ed4df18f972 OP_EQUAL", "type": "scripthash"}, "value": 0.1624455, "n": 0}, {"scriptPubKey": {"reqSigs": 1, "hex": "76a9146dd61557354772f8a99359bb6f57ae8777a512e988ac", "addresses": ["1B1m7gaBAXdvgV4YvaSPNT6w3N7qhZDY8q"], "asm": "OP_DUP OP_HASH160 6dd61557354772f8a99359bb6f57ae8777a512e9 OP_EQUALVERIFY OP_CHECKSIG", "type": "pubkeyhash"}, "value": 0.01213084, "n": 1}], "hex": "01000000012acc53a7b5a15622917f70cab04f64470135021b3b49e3517bd3b1105c8a6a9d000000006a4730440220411ec873cc996181cd55131c62da29092548ffc008affd031f782d4aa0ff2f4b02204bf35fbdba9655b93aff9ebb4b9b70698cfeb82810076a6104baca3d727b763c0121031534d58cf76dd72bce5bc693d932611a148f7dea813ae21bf02a14afe6676f83ffffffff0246dff7000000000017a9144b83720c733f9c627ee504c5717c4ed4df18f972879c821200000000001976a9146dd61557354772f8a99359bb6f57ae8777a512e988ac00000000", "vin": [{"sequence": 4294967295, "scriptSig": {"hex": "4730440220411ec873cc996181cd55131c62da29092548ffc008affd031f782d4aa0ff2f4b02204bf35fbdba9655b93aff9ebb4b9b70698cfeb82810076a6104baca3d727b763c0121031534d58cf76dd72bce5bc693d932611a148f7dea813ae21bf02a14afe6676f83", "asm": "30440220411ec873cc996181cd55131c62da29092548ffc008affd031f782d4aa0ff2f4b02204bf35fbdba9655b93aff9ebb4b9b70698cfeb82810076a6104baca3d727b763c[ALL] 031534d58cf76dd72bce5bc693d932611a148f7dea813ae21bf02a14afe6676f83"}, "vout": 0, "txid": "9d6a8a5c10b1d37b51e3493b1b02350147644fb0ca707f912256a1b5a753cc2a"}], "txid": "a1485ab6fb721d458666d048018d88c5f41b1c3d08e0560f94ac166c6ebb329c", "blocktime": 1537873891, "version": 1, "confirmations": 11478, "time": 1537873891, "locktime": 0, "vsize": 223, "size": 223}