{"hash": "a14902a4c480c3d36ce9f4d56c27c63570ec30845fda7cc408b2cfabbad464b4", "blockhash": "00000000000000000017f5eb5941039fbcee6240d03bc1f2f8e35350df66a1d8", "vout": [{"scriptPubKey": {"reqSigs": 1, "hex": "76a9140424c837837ad1c89fd741c868efd4dacaab633b88ac", "addresses": ["1NumS52FJ2anEQfstwBMzmwGwvT8qvnkC"], "asm": "OP_DUP OP_HASH160 0424c837837ad1c89fd741c868efd4dacaab633b OP_EQUALVERIFY OP_CHECKSIG", "type": "pubkeyhash"}, "value": 0.183, "n": 0}, {"scriptPubKey": {"reqSigs": 1, "hex": "76a9148b8a5cad83e6f71f0a792f3836c4ab3d8fd8e21d88ac", "addresses": ["1DipgE8GSEUTb5ek3qL4wDtcJrpFtCdsxa"], "asm": "OP_DUP OP_HASH160 8b8a5cad83e6f71f0a792f3836c4ab3d8fd8e21d OP_EQUALVERIFY OP_CHECKSIG", "type": "pubkeyhash"}, "value": 0.21151867, "n": 1}], "hex": "0100000001ee7830eeca3ab02f560ab3c756c99ed1bd5b4993eebe4ba430f73a066f4545d6010000006b483045022100c0944f81448e06428a08cccdfa845a734c4de99274e39113a34159fba796c9cc022025a830dc47c03891b8d28c838a498dfb74b81d6f69928860777a9fa40e34fc6e012103ad9db817f543610ee94fdf58142ecfaea6b7b7028471a2544535525e3eb5876dfdffffff02603c1701000000001976a9140424c837837ad1c89fd741c868efd4dacaab633b88ac7bc04201000000001976a9148b8a5cad83e6f71f0a792f3836c4ab3d8fd8e21d88ac15490800", "vin": [{"sequence": 4294967293, "scriptSig": {"hex": "483045022100c0944f81448e06428a08cccdfa845a734c4de99274e39113a34159fba796c9cc022025a830dc47c03891b8d28c838a498dfb74b81d6f69928860777a9fa40e34fc6e012103ad9db817f543610ee94fdf58142ecfaea6b7b7028471a2544535525e3eb5876d", "asm": "3045022100c0944f81448e06428a08cccdfa845a734c4de99274e39113a34159fba796c9cc022025a830dc47c03891b8d28c838a498dfb74b81d6f69928860777a9fa40e34fc6e[ALL] 03ad9db817f543610ee94fdf58142ecfaea6b7b7028471a2544535525e3eb5876d"}, "vout": 1, "txid": "d645456f063af730a44bbeee93495bbdd19ec956c7b30a562fb03acaee3078ee"}], "txid": "a14902a4c480c3d36ce9f4d56c27c63570ec30845fda7cc408b2cfabbad464b4", "blocktime": 1537874412, "version": 1, "confirmations": 11467, "time": 1537874412, "locktime": 542997, "vsize": 226, "size": 226}