{"hash": "7086c242164317dc2a828dc5b39f3e515e173266b32924fec0f1fa8901f4241f", "blockhash": "0000000000000000001f76057863aec43deb6fa401d9628bb513d65a8098bfab", "vout": [{"scriptPubKey": {"reqSigs": 1, "hex": "76a914685353c074b2650643dd396a42cd32b7a583358088ac", "addresses": ["1AWd6d7VfEyE97hC2BDPcpmTSxDT9r4JKA"], "asm": "OP_DUP OP_HASH160 685353c074b2650643dd396a42cd32b7a5833580 OP_EQUALVERIFY OP_CHECKSIG", "type": "pubkeyhash"}, "value": 0.00015682, "n": 0}, {"scriptPubKey": {"reqSigs": 1, "hex": "a9140136c10502ae5684e49b302f1af10f145f74b6b787", "addresses": ["31oSC7GvQMTZoouyNLBEHVRDhXEFbVhSmh"], "asm": "OP_HASH160 0136c10502ae5684e49b302f1af10f145f74b6b7 OP_EQUAL", "type": "scripthash"}, "value": 0.05869572, "n": 1}], "hex": "01000000000101ab7ac81eb3cef430c3363362655718e3b2784dd931c85dbea2e1317959c28f940100000023220020efd02f10cc1074c68ec89b458572a71ce6bfc8a17595d8fde80232e47279444bffffffff02423d0000000000001976a914685353c074b2650643dd396a42cd32b7a583358088ac049059000000000017a9140136c10502ae5684e49b302f1af10f145f74b6b7870400483045022100adf1acfc55ae49175b9f219f36a7f9934508d6d55f6494fea21fc5a383d7f76902206376c711eaba155fed7a81fae6cc75c37f2657ee0b21c11cf9f6c08b3d110f690147304402201ae22a648c4bf6d9888df1a338123c4a1948efdbdf6152398f34697e27d3b61a02202b597f61e8c472e56678672a9a0588cfb6b5792b5aac616d16d4dceeac120e4f0147522103f985ea61f461801f3abc09ebed98ce7e20804639a64616f639f492883ea4e8d62103871fc2ca08e6950b38867e8e6a0e94ee625223d3aa0df5c65f414c6d784467e252ae00000000", "vin": [{"txinwitness": ["", "3045022100adf1acfc55ae49175b9f219f36a7f9934508d6d55f6494fea21fc5a383d7f76902206376c711eaba155fed7a81fae6cc75c37f2657ee0b21c11cf9f6c08b3d110f6901", "304402201ae22a648c4bf6d9888df1a338123c4a1948efdbdf6152398f34697e27d3b61a02202b597f61e8c472e56678672a9a0588cfb6b5792b5aac616d16d4dceeac120e4f01", "522103f985ea61f461801f3abc09ebed98ce7e20804639a64616f639f492883ea4e8d62103871fc2ca08e6950b38867e8e6a0e94ee625223d3aa0df5c65f414c6d784467e252ae"], "sequence": 4294967295, "scriptSig": {"hex": "220020efd02f10cc1074c68ec89b458572a71ce6bfc8a17595d8fde80232e47279444b", "asm": "0020efd02f10cc1074c68ec89b458572a71ce6bfc8a17595d8fde80232e47279444b"}, "vout": 1, "txid": "948fc2597931e1a2be5dc831d94d78b2e3185765623336c330f4ceb31ec87aab"}], "txid": "a14caf92bca95db9b954736d00288e2592c8e03de90f5d3cef7d1ca2789974df", "blocktime": 1537873891, "version": 1, "confirmations": 11478, "time": 1537873891, "locktime": 0, "vsize": 208, "size": 373}