{"hash": "f44170264f6981a589d72ac280e8d46557742270c6baabbc1abea520d6b45225", "blockhash": "00000000000000000017f5eb5941039fbcee6240d03bc1f2f8e35350df66a1d8", "vout": [{"scriptPubKey": {"reqSigs": 1, "hex": "001423892d022ffdf64a27d3852102cf7b62e6187867", "addresses": ["bc1qywyj6q30lhmy5f7ns5ss9nmmvtnps7r82sk5gv"], "asm": "0 23892d022ffdf64a27d3852102cf7b62e6187867", "type": "witness_v0_keyhash"}, "value": 0.48514457, "n": 0}, {"scriptPubKey": {"reqSigs": 1, "hex": "a914daeca1fb78dda7c63b241aa52db4582aae58cb6087", "addresses": ["3MeahtonyPFQ5RZkbJySUJ3kpG2Jtuz9hJ"], "asm": "OP_HASH160 daeca1fb78dda7c63b241aa52db4582aae58cb60 OP_EQUAL", "type": "scripthash"}, "value": 0.015, "n": 1}], "hex": "010000000001016ef99554ac4e7de58fd741095c240152b75c2dd578e5dcdf1eed2fdba41dd2660000000000ffffffff029945e4020000000016001423892d022ffdf64a27d3852102cf7b62e618786760e316000000000017a914daeca1fb78dda7c63b241aa52db4582aae58cb6087024830450221008475e67db34a49b5645ccb08fd32cac9c80f12a0049bff000e2f7e6f72b01d280220789269b7bd6dc9b42940d6097800d3ba635e468301a76016ae69da8b478d43a70121021dc32098bfd65bd72d7a9fa1aab2872df29a0559f1bb8222e16ffaa568b9d46500000000", "vin": [{"txinwitness": ["30450221008475e67db34a49b5645ccb08fd32cac9c80f12a0049bff000e2f7e6f72b01d280220789269b7bd6dc9b42940d6097800d3ba635e468301a76016ae69da8b478d43a701", "021dc32098bfd65bd72d7a9fa1aab2872df29a0559f1bb8222e16ffaa568b9d465"], "sequence": 4294967295, "scriptSig": {"hex": "", "asm": ""}, "vout": 0, "txid": "66d21da4db2fed1edfdce578d52d5cb75201245c0941d78fe57d4eac5495f96e"}], "txid": "a151815ff7d66d729b5f86f166169d622a7749d54b12f736f22f539c1e6f81d3", "blocktime": 1537874412, "version": 1, "confirmations": 11467, "time": 1537874412, "locktime": 0, "vsize": 142, "size": 224}