{"hash": "a156c62dde967645180e00edb68d8f6f9a5203a30cd57b5318d4064f22490c31", "blockhash": "0000000000000000001e0dab787dd257d1dbfcb92a98c2207d5e1078be1f4165", "vout": [{"scriptPubKey": {"reqSigs": 1, "hex": "a9142b0805920f29ccd8f6ae4bc2ac657af54b169b3887", "addresses": ["35cYb9th3hz3Wt9zZA251uNrMqMFwbCnJv"], "asm": "OP_HASH160 2b0805920f29ccd8f6ae4bc2ac657af54b169b38 OP_EQUAL", "type": "scripthash"}, "value": 0.000525, "n": 0}, {"scriptPubKey": {"reqSigs": 1, "hex": "76a91404804e0773fa686554b392f4e01180294d07601f88ac", "addresses": ["1QoQYPb5JiKyeK2jj47Rv9YTRGn6FVFCX"], "asm": "OP_DUP OP_HASH160 04804e0773fa686554b392f4e01180294d07601f OP_EQUALVERIFY OP_CHECKSIG", "type": "pubkeyhash"}, "value": 0.53196062, "n": 1}], "hex": "0100000001626557d0aa552e3a6452b704e70330963c72d20e646c1d4445288d52c0ad184a010000006a473044022064d4cd6e3c3ea2cc82ff91faea9555744bd5ecff089f4658f50b2a83704982cd02205b6baa6a8e50d1c6f1810a60a7dbab8da20d9d66369f64d9a5bfbd40d65d1302012102355ec030075ff36cd91b814894ce05a2ca712f97366a0713ffb58ca01059bb88ffffffff0214cd00000000000017a9142b0805920f29ccd8f6ae4bc2ac657af54b169b38871eb52b03000000001976a91404804e0773fa686554b392f4e01180294d07601f88ac00000000", "vin": [{"sequence": 4294967295, "scriptSig": {"hex": "473044022064d4cd6e3c3ea2cc82ff91faea9555744bd5ecff089f4658f50b2a83704982cd02205b6baa6a8e50d1c6f1810a60a7dbab8da20d9d66369f64d9a5bfbd40d65d1302012102355ec030075ff36cd91b814894ce05a2ca712f97366a0713ffb58ca01059bb88", "asm": "3044022064d4cd6e3c3ea2cc82ff91faea9555744bd5ecff089f4658f50b2a83704982cd02205b6baa6a8e50d1c6f1810a60a7dbab8da20d9d66369f64d9a5bfbd40d65d1302[ALL] 02355ec030075ff36cd91b814894ce05a2ca712f97366a0713ffb58ca01059bb88"}, "vout": 1, "txid": "4a18adc0528d2845441d6c640ed2723c963003e704b752643a2e55aad0576562"}], "txid": "a156c62dde967645180e00edb68d8f6f9a5203a30cd57b5318d4064f22490c31", "blocktime": 1537872475, "version": 1, "confirmations": 11486, "time": 1537872475, "locktime": 0, "vsize": 223, "size": 223}