{"hash": "3b7575a7b1203809e6f9492f82f444c31f3201ccd3054170aa811a56001e8b3f", "blockhash": "000000000000000000022b45ed06c6f4ccd3cf7fb5ba4856ebd2e58215665228", "vout": [{"scriptPubKey": {"reqSigs": 1, "hex": "00142391f516856d6fb163fdbd2e6a0734543dd95ff9", "addresses": ["bc1qywgl2959d4hmzclah5hx5pe52s7ajhlehm2rqr"], "asm": "0 2391f516856d6fb163fdbd2e6a0734543dd95ff9", "type": "witness_v0_keyhash"}, "value": 0.00016335, "n": 0}, {"scriptPubKey": {"reqSigs": 1, "hex": "a91400dd644c25662191638d4a052a530c17722a44bc87", "addresses": ["31mb97cP1DCQNuCEJxCMEksVTvKeKiKSh7"], "asm": "OP_HASH160 00dd644c25662191638d4a052a530c17722a44bc OP_EQUAL", "type": "scripthash"}, "value": 0.15409804, "n": 1}], "hex": "0100000000010176f8a9044cf4865cc746850660ea09cbbe104374b93dadb9ec74cb174cf3b01d01000000232200201e413c4456c7d48e50992a7e85f62b4804d4dbcff3ddf375a944dd6e49f2d3f6ffffffff02cf3f0000000000001600142391f516856d6fb163fdbd2e6a0734543dd95ff98c22eb000000000017a91400dd644c25662191638d4a052a530c17722a44bc870400483045022100d13a658b115cd1f61b2da2c2a41cb23c64e72ab36aa570ae0aa50c4fad1bb97402207d3af61aa77276955ed2a7f2f0f229863db017004613db477291e4c28c4e996701483045022100ccf50b98be5da73831915d1f84b7719df1f6279bee8435a7e74dfc1ae9f07a1d0220064f9a971c6efcaf3ff8aff3b5507371ddbccffc7032ed7181fb0a222246a9fb0147522103b4ac1f8801533cdc9a0b9f52122a1b675bb437b86b6cd5127432c1166a0bd3ca2103871fc2ca08e6950b38867e8e6a0e94ee625223d3aa0df5c65f414c6d784467e252ae00000000", "vin": [{"txinwitness": ["", "3045022100d13a658b115cd1f61b2da2c2a41cb23c64e72ab36aa570ae0aa50c4fad1bb97402207d3af61aa77276955ed2a7f2f0f229863db017004613db477291e4c28c4e996701", "3045022100ccf50b98be5da73831915d1f84b7719df1f6279bee8435a7e74dfc1ae9f07a1d0220064f9a971c6efcaf3ff8aff3b5507371ddbccffc7032ed7181fb0a222246a9fb01", "522103b4ac1f8801533cdc9a0b9f52122a1b675bb437b86b6cd5127432c1166a0bd3ca2103871fc2ca08e6950b38867e8e6a0e94ee625223d3aa0df5c65f414c6d784467e252ae"], "sequence": 4294967295, "scriptSig": {"hex": "2200201e413c4456c7d48e50992a7e85f62b4804d4dbcff3ddf375a944dd6e49f2d3f6", "asm": "00201e413c4456c7d48e50992a7e85f62b4804d4dbcff3ddf375a944dd6e49f2d3f6"}, "vout": 1, "txid": "1db0f34c17cb74ecb9ad3db9744310becb09ea60068546c75c86f44c04a9f876"}], "txid": "a1597ac866a2fc8df13bc8024732c2664611031fb8ed1091475911724272ef21", "blocktime": 1537869901, "version": 1, "confirmations": 11524, "time": 1537869901, "locktime": 0, "vsize": 205, "size": 371}