{"hash": "a15e40813eb17589ad76a00dbcf81cd0dc24e31e2f2086bdb6093f2180aec502", "blockhash": "0000000000000000001cda96e906b7601b7a6fb1a3b62bca570a9e5d8f4b3de1", "vout": [{"scriptPubKey": {"reqSigs": 1, "hex": "a91454e2b8b1628898b39c4299a383e8c2650256856d87", "addresses": ["39RrHYJSuCZN2pi2m1bmxDU8ybRzd4vWN3"], "asm": "OP_HASH160 54e2b8b1628898b39c4299a383e8c2650256856d OP_EQUAL", "type": "scripthash"}, "value": 0.01747734, "n": 0}, {"scriptPubKey": {"reqSigs": 1, "hex": "76a914684e1f054efe41c9f7770edc9e704963b5cdbb3988ac", "addresses": ["1AWWruUZPKyTd9V8VHnWrQwQH2kjmTBbHn"], "asm": "OP_DUP OP_HASH160 684e1f054efe41c9f7770edc9e704963b5cdbb39 OP_EQUALVERIFY OP_CHECKSIG", "type": "pubkeyhash"}, "value": 1.74692534, "n": 1}], "hex": "0100000001c79deb31023fecfaa95b781e9c5de94bfbc902da7e8e3fbb7ef2a06e75970707010000006b483045022100e0ede23019293aee522edacdd664d5ce54b234e59c781fd5f769ec2fedcc039b02200641ca6b1ea5ec0b3ee53c15ee28a366cc1d7f7cd26baff6744e76e7db356d670121027bc645929cb08440925a0fbeedacc1e7ddf29bdcd094bc0eb8d9042c052be2d7ffffffff0216ab1a000000000017a91454e2b8b1628898b39c4299a383e8c2650256856d87b698690a000000001976a914684e1f054efe41c9f7770edc9e704963b5cdbb3988ac00000000", "vin": [{"sequence": 4294967295, "scriptSig": {"hex": "483045022100e0ede23019293aee522edacdd664d5ce54b234e59c781fd5f769ec2fedcc039b02200641ca6b1ea5ec0b3ee53c15ee28a366cc1d7f7cd26baff6744e76e7db356d670121027bc645929cb08440925a0fbeedacc1e7ddf29bdcd094bc0eb8d9042c052be2d7", "asm": "3045022100e0ede23019293aee522edacdd664d5ce54b234e59c781fd5f769ec2fedcc039b02200641ca6b1ea5ec0b3ee53c15ee28a366cc1d7f7cd26baff6744e76e7db356d67[ALL] 027bc645929cb08440925a0fbeedacc1e7ddf29bdcd094bc0eb8d9042c052be2d7"}, "vout": 1, "txid": "070797756ea0f27ebb3f8e7eda02c9fb4be95d9c1e785ba9faec3f0231eb9dc7"}], "txid": "a15e40813eb17589ad76a00dbcf81cd0dc24e31e2f2086bdb6093f2180aec502", "blocktime": 1537873282, "version": 1, "confirmations": 11485, "time": 1537873282, "locktime": 0, "vsize": 224, "size": 224}