{"hash": "3364137c66074f20f2dd17ac338cb19903254d1837615d6f75882d4490e4c61c", "blockhash": "00000000000000000018f53835495a110e01622372bf6ae95dc86f2b0ab887b0", "vout": [{"scriptPubKey": {"reqSigs": 1, "hex": "76a9144d3f84073b2173fa83256b5ef252150aefc66b2e88ac", "addresses": ["183T7vTGT7nvnK3rGX3sNgtGzt2ax7yiud"], "asm": "OP_DUP OP_HASH160 4d3f84073b2173fa83256b5ef252150aefc66b2e OP_EQUALVERIFY OP_CHECKSIG", "type": "pubkeyhash"}, "value": 0.640011, "n": 0}, {"scriptPubKey": {"reqSigs": 1, "hex": "a9149fedd0435a5346d19e10dbf067501f04f6a02d3687", "addresses": ["3GGeFcpTvbKcU9so2Fz4C8o4V2C9Du9Ngp"], "asm": "OP_HASH160 9fedd0435a5346d19e10dbf067501f04f6a02d36 OP_EQUAL", "type": "scripthash"}, "value": 6.56844552, "n": 1}], "hex": "0100000000010158559052f9f86ef55fb182d0aa485b636fb739e41818f98ed6c716fb028aef880100000023220020bdce0b87be1099509aee666bf280d91936d77265b9626a3811efa68c794ec6d9ffffffff024c94d003000000001976a9144d3f84073b2173fa83256b5ef252150aefc66b2e88ac08a726270000000017a9149fedd0435a5346d19e10dbf067501f04f6a02d3687040047304402207fb0d9cf95aab019061d736b2d257c81fbcbdeb071cf2565d9321436aaf8f036022020d151bafa2f9a43ff36ed29dc98f1316b926cf339ee16b5d0ee9e6bfe4a506f014730440220188ded73a4b0dbf26771e1ed9c6bcb486a465382a38dbcfd3f29d4772c4342ab02202bbefe8c1f321d5b0c5c2f82e92d9dbe7b93bb57bcfdfea8b5bd5d16ae654a200147522103eb143395e1f431f678a743f1647f1b19b73b3255e6eb16378dc614c75af6729821022a8a912ad76544ca20f666a2071879d22db3f19b68028bfb6e15e148dbbe91a252ae00000000", "vin": [{"txinwitness": ["", "304402207fb0d9cf95aab019061d736b2d257c81fbcbdeb071cf2565d9321436aaf8f036022020d151bafa2f9a43ff36ed29dc98f1316b926cf339ee16b5d0ee9e6bfe4a506f01", "30440220188ded73a4b0dbf26771e1ed9c6bcb486a465382a38dbcfd3f29d4772c4342ab02202bbefe8c1f321d5b0c5c2f82e92d9dbe7b93bb57bcfdfea8b5bd5d16ae654a2001", "522103eb143395e1f431f678a743f1647f1b19b73b3255e6eb16378dc614c75af6729821022a8a912ad76544ca20f666a2071879d22db3f19b68028bfb6e15e148dbbe91a252ae"], "sequence": 4294967295, "scriptSig": {"hex": "220020bdce0b87be1099509aee666bf280d91936d77265b9626a3811efa68c794ec6d9", "asm": "0020bdce0b87be1099509aee666bf280d91936d77265b9626a3811efa68c794ec6d9"}, "vout": 1, "txid": "88ef8a02fb16c7d68ef91818e439b76f635b48aad082b15ff56ef8f952905558"}], "txid": "a1635572e8bbd07553f8136c57dcb43a6c91f70b0062f4cf0247ec6e71c03166", "blocktime": 1537870928, "version": 1, "confirmations": 11514, "time": 1537870928, "locktime": 0, "vsize": 207, "size": 372}