{"hash": "e9467b6d5635d3af2b07cb73c1fb9d5375041c736391028cd3fb98bee6ed2532", "blockhash": "0000000000000000001cda96e906b7601b7a6fb1a3b62bca570a9e5d8f4b3de1", "vout": [{"scriptPubKey": {"reqSigs": 1, "hex": "76a9148cfbbfff9eb2d7efba45f1e7566442c1a3a4c37c88ac", "addresses": ["1DrTBkeSbr8AJN9pLWumQhHgkZgDbR98eM"], "asm": "OP_DUP OP_HASH160 8cfbbfff9eb2d7efba45f1e7566442c1a3a4c37c OP_EQUALVERIFY OP_CHECKSIG", "type": "pubkeyhash"}, "value": 0.00206793, "n": 0}, {"scriptPubKey": {"reqSigs": 1, "hex": "a91418f9333d37f4d64bcb6194a416436bc0098d596787", "addresses": ["33y4fssMK1FSxPExB3K6xB21nVUhp7qmP2"], "asm": "OP_HASH160 18f9333d37f4d64bcb6194a416436bc0098d5967 OP_EQUAL", "type": "scripthash"}, "value": 0.01037812, "n": 1}], "hex": "02000000000101b9b09edd0629717bed86ee8008c99f5d7e66f9f02416b4940eb56b7a65dc2f060100000017160014e7813e388c1d713c3c6e67e25095fb4f1707255afeffffff02c9270300000000001976a9148cfbbfff9eb2d7efba45f1e7566442c1a3a4c37c88acf4d50f000000000017a91418f9333d37f4d64bcb6194a416436bc0098d5967870247304402203ae19d72580aeb1034b9633c2aba80f774b48416a08e7b5937491d5b65432a8a022034f4b9bb0ef8184fdfcb19c70e7cd6cef17c1d0589c2d59b37ccf206f37f673f01210297dd976394a27f6ae3a3adef9ed18968e533380f548284ae68e9a7ad4f0ab6e913490800", "vin": [{"txinwitness": ["304402203ae19d72580aeb1034b9633c2aba80f774b48416a08e7b5937491d5b65432a8a022034f4b9bb0ef8184fdfcb19c70e7cd6cef17c1d0589c2d59b37ccf206f37f673f01", "0297dd976394a27f6ae3a3adef9ed18968e533380f548284ae68e9a7ad4f0ab6e9"], "sequence": 4294967294, "scriptSig": {"hex": "160014e7813e388c1d713c3c6e67e25095fb4f1707255a", "asm": "0014e7813e388c1d713c3c6e67e25095fb4f1707255a"}, "vout": 1, "txid": "062fdc657a6bb50e94b41624f0f9667e5d9fc90880ee86ed7b712906dd9eb0b9"}], "txid": "a166410cafe7663eb2ba4c37c9ccd63de4be9fbd27f8b2312e3b3087ea118bc1", "blocktime": 1537873282, "version": 2, "confirmations": 11485, "time": 1537873282, "locktime": 542995, "vsize": 168, "size": 249}