{"hash": "a16a7a82c582ce79b62a98486ab921f95f808e8ad06b7e3522230e272bae590e", "blockhash": "0000000000000000000baef3f32e3676a92c3b2e5da21b426e4f302fc371ce76", "vout": [{"scriptPubKey": {"reqSigs": 1, "hex": "76a914c967f936f2158169b2f8fcc6020c0fdb07fc605888ac", "addresses": ["1KMwNmFdwUJtph34YURBbtgN4Lw8K3e8pW"], "asm": "OP_DUP OP_HASH160 c967f936f2158169b2f8fcc6020c0fdb07fc6058 OP_EQUALVERIFY OP_CHECKSIG", "type": "pubkeyhash"}, "value": 0.00086244, "n": 0}, {"scriptPubKey": {"type": "nulldata", "hex": "6a4c500000783400010a53450cfc10e8d6c32ccfec27b7256b4774d339f6019d6ddc0f1b8ff11780309731b4121d73dcd1c4c53523ba425baa1f680614324c36cb570ebc9a9526289ac0f6612cd74e33776ee4", "asm": "OP_RETURN 0000783400010a53450cfc10e8d6c32ccfec27b7256b4774d339f6019d6ddc0f1b8ff11780309731b4121d73dcd1c4c53523ba425baa1f680614324c36cb570ebc9a9526289ac0f6612cd74e33776ee4"}, "value": 0.0, "n": 1}], "hex": "01000000019cb580ae08c4bc649548716ed9fc1cb7896827ed65857f2a66acbda7e712af68000000006b483045022100bdeed1d09811ffb2767bc13e97f12db5cadf0912821ba3bd102b487d3a2fa91c0220172f2dd7d9e8c70c73c888268e032354bf5fd75cc8253b7007c8f604b55230ff012102294be81c0310922860916093181cda4b69851ca75d441597a3ffcc672292b79cffffffff02e4500100000000001976a914c967f936f2158169b2f8fcc6020c0fdb07fc605888ac0000000000000000536a4c500000783400010a53450cfc10e8d6c32ccfec27b7256b4774d339f6019d6ddc0f1b8ff11780309731b4121d73dcd1c4c53523ba425baa1f680614324c36cb570ebc9a9526289ac0f6612cd74e33776ee400000000", "vin": [{"sequence": 4294967295, "scriptSig": {"hex": "483045022100bdeed1d09811ffb2767bc13e97f12db5cadf0912821ba3bd102b487d3a2fa91c0220172f2dd7d9e8c70c73c888268e032354bf5fd75cc8253b7007c8f604b55230ff012102294be81c0310922860916093181cda4b69851ca75d441597a3ffcc672292b79c", "asm": "3045022100bdeed1d09811ffb2767bc13e97f12db5cadf0912821ba3bd102b487d3a2fa91c0220172f2dd7d9e8c70c73c888268e032354bf5fd75cc8253b7007c8f604b55230ff[ALL] 02294be81c0310922860916093181cda4b69851ca75d441597a3ffcc672292b79c"}, "vout": 0, "txid": "68af12e7a7bdac662a7f8565ed276889b71cfcd96e71489564bcc408ae80b59c"}], "txid": "a16a7a82c582ce79b62a98486ab921f95f808e8ad06b7e3522230e272bae590e", "blocktime": 1537876114, "version": 1, "confirmations": 11461, "time": 1537876114, "locktime": 0, "vsize": 284, "size": 284}