{"hash": "bc4f49b7fdebab4891cac8c18bfc48f18eae3116147cf0e207f0699c1556d556", "blockhash": "0000000000000000000dcc0f55137456b1a82d3642486a52398922ac4d620174", "vout": [{"scriptPubKey": {"reqSigs": 1, "hex": "a9140eb40cda9e27ba28236760678a2f1b61a20c18fa87", "addresses": ["332m5LX5uNzLwC3aaULd7BTrEszPee1aHM"], "asm": "OP_HASH160 0eb40cda9e27ba28236760678a2f1b61a20c18fa OP_EQUAL", "type": "scripthash"}, "value": 0.52551103, "n": 0}, {"scriptPubKey": {"reqSigs": 1, "hex": "76a9143f96e1870f1be95580a525ff99340e0119b4881d88ac", "addresses": ["16oEKUmLK1VUEa4vktKWDgC4Py5usyWf8L"], "asm": "OP_DUP OP_HASH160 3f96e1870f1be95580a525ff99340e0119b4881d OP_EQUALVERIFY OP_CHECKSIG", "type": "pubkeyhash"}, "value": 0.0077, "n": 1}, {"scriptPubKey": {"reqSigs": 1, "hex": "a91457c009350f419f14ba4f5e7349be76002ca78cfe87", "addresses": ["39gzm8FXowSHu7hGfbrfxYTk9wT1xFR87U"], "asm": "OP_HASH160 57c009350f419f14ba4f5e7349be76002ca78cfe OP_EQUAL", "type": "scripthash"}, "value": 0.039, "n": 2}], "hex": "02000000000101c447cb801248eaa4f80a9cce8807904ea266de806c1762a99965713c4ef60e8d00000000171600145e1410b16fbf7e0f45f4372aac0163436000d05ffeffffff03bfdd21030000000017a9140eb40cda9e27ba28236760678a2f1b61a20c18fa87d0bf0b00000000001976a9143f96e1870f1be95580a525ff99340e0119b4881d88ac60823b000000000017a91457c009350f419f14ba4f5e7349be76002ca78cfe8702483045022100ca4e8820751edd6a18f70efa0afe047d42613efb687edde5baffd9077c65c67902205fed7bdf25c34cb19e90c13adac43a2333e6155e94e035d2b4125fa76a95f2a60121032931226a03efc09e08a9a63e25164b339d676f14c18d095be7d0aa4089757cff0c490800", "vin": [{"txinwitness": ["3045022100ca4e8820751edd6a18f70efa0afe047d42613efb687edde5baffd9077c65c67902205fed7bdf25c34cb19e90c13adac43a2333e6155e94e035d2b4125fa76a95f2a601", "032931226a03efc09e08a9a63e25164b339d676f14c18d095be7d0aa4089757cff"], "sequence": 4294967294, "scriptSig": {"hex": "1600145e1410b16fbf7e0f45f4372aac0163436000d05f", "asm": "00145e1410b16fbf7e0f45f4372aac0163436000d05f"}, "vout": 0, "txid": "8d0ef64e3c716599a962176c80de66a24e900788ce9c0af8a4ea481280cb47c4"}], "txid": "a16cd311e82cfaf6f173126a2a7ac42f0228b058b1da8a32d6b8a1774c924789", "blocktime": 1537870268, "version": 2, "confirmations": 11516, "time": 1537870268, "locktime": 542988, "vsize": 200, "size": 282}