{"hash": "91975006b76b30d177c33d30fab38da487d5e87a298bab168e5e21ebdbcf73dd", "blockhash": "0000000000000000001cda96e906b7601b7a6fb1a3b62bca570a9e5d8f4b3de1", "vout": [{"scriptPubKey": {"reqSigs": 1, "hex": "76a9143ad07876e2dc3c96dbf91f59bf168be3781cd1d288ac", "addresses": ["16Myvv4h8RHNLx4cE6HK9fAePdNJXcdiUi"], "asm": "OP_DUP OP_HASH160 3ad07876e2dc3c96dbf91f59bf168be3781cd1d2 OP_EQUALVERIFY OP_CHECKSIG", "type": "pubkeyhash"}, "value": 0.01368408, "n": 0}, {"scriptPubKey": {"reqSigs": 1, "hex": "a9140de60ed9d29ef7c8f20579fc970c7657ae4d3f0a87", "addresses": ["32xWJkMsHfmQ42yFJYDiXFS17C9RenqRoJ"], "asm": "OP_HASH160 0de60ed9d29ef7c8f20579fc970c7657ae4d3f0a OP_EQUAL", "type": "scripthash"}, "value": 0.08068088, "n": 1}], "hex": "01000000000101375e5411a4685ecc10964e9c29428f0f231b78029b1bc7546f5e96eec0984d8a0100000023220020d98f34b1e89c21024bec93b198e50e167e3383dc0bb71ba6f36707f6ab0f35f9ffffffff0258e11400000000001976a9143ad07876e2dc3c96dbf91f59bf168be3781cd1d288acf81b7b000000000017a9140de60ed9d29ef7c8f20579fc970c7657ae4d3f0a87040047304402203f55af37f950361a691e035b873f34652005264b546ee3d7b7f8a24065245467022062cb5edc9b1ba12a50746fd8f45e83d7f42fee621564f20d4a57a019199e895d014730440220415890aee20b13e7df4bd550fcfcb408f32fbf0890ebb3e5446a3bbf290bafa10220252ac5e0584bda00c5fdebf4b5278677ee7296587f4ea58889347645d4397a890147522102dc23be3a45982c708852a35de0d2826583bc72c45d52fa4356a49d4d6283330421038f2c7ecee34c843be9d886e50ce79e5dc40a1694c0417d60b35340f292ff73fc52ae00000000", "vin": [{"txinwitness": ["", "304402203f55af37f950361a691e035b873f34652005264b546ee3d7b7f8a24065245467022062cb5edc9b1ba12a50746fd8f45e83d7f42fee621564f20d4a57a019199e895d01", "30440220415890aee20b13e7df4bd550fcfcb408f32fbf0890ebb3e5446a3bbf290bafa10220252ac5e0584bda00c5fdebf4b5278677ee7296587f4ea58889347645d4397a8901", "522102dc23be3a45982c708852a35de0d2826583bc72c45d52fa4356a49d4d6283330421038f2c7ecee34c843be9d886e50ce79e5dc40a1694c0417d60b35340f292ff73fc52ae"], "sequence": 4294967295, "scriptSig": {"hex": "220020d98f34b1e89c21024bec93b198e50e167e3383dc0bb71ba6f36707f6ab0f35f9", "asm": "0020d98f34b1e89c21024bec93b198e50e167e3383dc0bb71ba6f36707f6ab0f35f9"}, "vout": 1, "txid": "8a4d98c0ee965e6f54c71b9b02781b230f8f42299c4e9610cc5e68a411545e37"}], "txid": "a1738298a50fb60fcf9a2b15b6a8c435588965c1cd90ec91c776d9991b9545f8", "blocktime": 1537873282, "version": 1, "confirmations": 11484, "time": 1537873282, "locktime": 0, "vsize": 207, "size": 372}