{"hash": "a17458731f5d58016dfe92ff0645d1f3db06a6a55e3f47ee93b183175687a012", "blockhash": "0000000000000000001e0dab787dd257d1dbfcb92a98c2207d5e1078be1f4165", "vout": [{"scriptPubKey": {"reqSigs": 1, "hex": "76a914a25dec4d0011064ef106a983c39c7a540699f22088ac", "addresses": ["1FoWyxwPXuj4C6abqwhjDWdz6D4PZgYRjA"], "asm": "OP_DUP OP_HASH160 a25dec4d0011064ef106a983c39c7a540699f220 OP_EQUALVERIFY OP_CHECKSIG", "type": "pubkeyhash"}, "value": 0.01975995, "n": 0}, {"scriptPubKey": {"type": "nulldata", "hex": "6a146f6d6e69000000000000001f00000008304b9c80", "asm": "OP_RETURN 6f6d6e69000000000000001f00000008304b9c80"}, "value": 0.0, "n": 1}, {"scriptPubKey": {"reqSigs": 1, "hex": "76a9144c14c4205221a852de58c08ef5c77705eb86c72688ac", "addresses": ["17wHESByhqccbJPnCCNy38Bq3fwM3z8i8D"], "asm": "OP_DUP OP_HASH160 4c14c4205221a852de58c08ef5c77705eb86c726 OP_EQUALVERIFY OP_CHECKSIG", "type": "pubkeyhash"}, "value": 5.46e-06, "n": 2}], "hex": "01000000014d96260d1131cbc42c8648d786961e184f3abe14b4234ad0073c668c8bb1d05a000000006b483045022100fab69e4c4fa7fef5fb1249de4a4a3bfdc9037b68b0e49623601080951e92e81f022052e73bf8f050de3e011c37a3e7e34e5f3927c30d54938130ed872809cd826e77012103da5bac7b36d5aa38f531c6b9601e21bb598a4b6716ebed38b009a55dabde9440feffffff03bb261e00000000001976a914a25dec4d0011064ef106a983c39c7a540699f22088ac0000000000000000166a146f6d6e69000000000000001f00000008304b9c8022020000000000001976a9144c14c4205221a852de58c08ef5c77705eb86c72688ac12490800", "vin": [{"sequence": 4294967294, "scriptSig": {"hex": "483045022100fab69e4c4fa7fef5fb1249de4a4a3bfdc9037b68b0e49623601080951e92e81f022052e73bf8f050de3e011c37a3e7e34e5f3927c30d54938130ed872809cd826e77012103da5bac7b36d5aa38f531c6b9601e21bb598a4b6716ebed38b009a55dabde9440", "asm": "3045022100fab69e4c4fa7fef5fb1249de4a4a3bfdc9037b68b0e49623601080951e92e81f022052e73bf8f050de3e011c37a3e7e34e5f3927c30d54938130ed872809cd826e77[ALL] 03da5bac7b36d5aa38f531c6b9601e21bb598a4b6716ebed38b009a55dabde9440"}, "vout": 0, "txid": "5ad0b18b8c663c07d04a23b414be3a4f181e9686d748862cc4cb31110d26964d"}], "txid": "a17458731f5d58016dfe92ff0645d1f3db06a6a55e3f47ee93b183175687a012", "blocktime": 1537872475, "version": 1, "confirmations": 11486, "time": 1537872475, "locktime": 542994, "vsize": 257, "size": 257}