{"hash": "a17752d061d309ba40419860dfb922145f866a7415e15d06ea14b3ef437fcf09", "blockhash": "0000000000000000001cda96e906b7601b7a6fb1a3b62bca570a9e5d8f4b3de1", "vout": [{"scriptPubKey": {"type": "nulldata", "hex": "6a146f6d6e69000000000000001f000000e42c8d4800", "asm": "OP_RETURN 6f6d6e69000000000000001f000000e42c8d4800"}, "value": 0.0, "n": 0}, {"scriptPubKey": {"reqSigs": 1, "hex": "76a914a25dec4d0011064ef106a983c39c7a540699f22088ac", "addresses": ["1FoWyxwPXuj4C6abqwhjDWdz6D4PZgYRjA"], "asm": "OP_DUP OP_HASH160 a25dec4d0011064ef106a983c39c7a540699f220 OP_EQUALVERIFY OP_CHECKSIG", "type": "pubkeyhash"}, "value": 0.01995204, "n": 1}, {"scriptPubKey": {"reqSigs": 1, "hex": "76a914945d901d0d16579a6ba3975dfa56a162081f0ab588ac", "addresses": ["1EXV6FyUx1uRJQjRyNxWA9tPzNFCU9Qgs9"], "asm": "OP_DUP OP_HASH160 945d901d0d16579a6ba3975dfa56a162081f0ab5 OP_EQUALVERIFY OP_CHECKSIG", "type": "pubkeyhash"}, "value": 5.46e-06, "n": 2}], "hex": "0100000001a44813c76173a4fe9689194c29809e35be05f1741d9b5e1e9e8bd44070ac1fea780000006a473044022017a69ad46d16d0a6af52dd044ef251312358bc066c23aa17012319df7820213102202f56f20a60e0923b6de89356351afba21207bcab160c3822c0e1f2316a29fc36012103da5bac7b36d5aa38f531c6b9601e21bb598a4b6716ebed38b009a55dabde9440feffffff030000000000000000166a146f6d6e69000000000000001f000000e42c8d4800c4711e00000000001976a914a25dec4d0011064ef106a983c39c7a540699f22088ac22020000000000001976a914945d901d0d16579a6ba3975dfa56a162081f0ab588acf4480800", "vin": [{"sequence": 4294967294, "scriptSig": {"hex": "473044022017a69ad46d16d0a6af52dd044ef251312358bc066c23aa17012319df7820213102202f56f20a60e0923b6de89356351afba21207bcab160c3822c0e1f2316a29fc36012103da5bac7b36d5aa38f531c6b9601e21bb598a4b6716ebed38b009a55dabde9440", "asm": "3044022017a69ad46d16d0a6af52dd044ef251312358bc066c23aa17012319df7820213102202f56f20a60e0923b6de89356351afba21207bcab160c3822c0e1f2316a29fc36[ALL] 03da5bac7b36d5aa38f531c6b9601e21bb598a4b6716ebed38b009a55dabde9440"}, "vout": 120, "txid": "ea1fac7040d48b9e1e5e9b1d74f105be359e80294c198996fea47361c71348a4"}], "txid": "a17752d061d309ba40419860dfb922145f866a7415e15d06ea14b3ef437fcf09", "blocktime": 1537873282, "version": 1, "confirmations": 11481, "time": 1537873282, "locktime": 542964, "vsize": 256, "size": 256}