{"hash": "0c3e196892af4fd36e614a6a1a4d31210b276d3264a27e0fc84635d8e896925a", "blockhash": "000000000000000000022b45ed06c6f4ccd3cf7fb5ba4856ebd2e58215665228", "vout": [{"scriptPubKey": {"reqSigs": 1, "hex": "a9141dbfc3dc4e2da59601a4da8c6fa695ffb484d26587", "addresses": ["34QKFBHja841cnftrZKfceHPSqtg5jdxRq"], "asm": "OP_HASH160 1dbfc3dc4e2da59601a4da8c6fa695ffb484d265 OP_EQUAL", "type": "scripthash"}, "value": 0.00307335, "n": 0}, {"scriptPubKey": {"reqSigs": 1, "hex": "a914b8a9a8ba8cf965b7df6b05afd948e53c351b2c0d87", "addresses": ["3JXRVxhrk2o9f4w3cQchBLwUeegJBj6BEp"], "asm": "OP_HASH160 b8a9a8ba8cf965b7df6b05afd948e53c351b2c0d OP_EQUAL", "type": "scripthash"}, "value": 2.35034987, "n": 1}], "hex": "01000000000101cf4be5b64baf77970a5f92af73fb5816b48b6c36fd33e94c121c29c8fcd49c01010000002322002065d416c48a8072e0ac51c2d111eb194f009caef0332446c1bf2097316cf07fa9ffffffff0287b004000000000017a9141dbfc3dc4e2da59601a4da8c6fa695ffb484d265876b59020e0000000017a914b8a9a8ba8cf965b7df6b05afd948e53c351b2c0d87040048304502210090efe5d2037a668816fddea397d648e378b1e793df060fe5927d37ebd612fa39022001f87493a42aaf54e735b201de6f3ea867b50870d627f10f7d5e43ed2dc16b8d01473044022047b333f4f8ba7d0f3fdc20ed86805f131ee391c80004408bdfa6d6ca2acbf50d02200d8698346413768fcdf0fa581d496998b98295460d1cf82d2c665a944b687ec70169522102f44abcf9e23c9a460da309ccca56c619c04eed3bde2c2cff5e7d78fbcd980b9c2103c9443cf3047bb6c2c82f1b0c44c36109cdc3d0d601d16d1189a1602bf8d1a0a02103bfe867059274412412e088af5572b92168c2ef495cfe6c9b7a753a009eb37c4853ae00000000", "vin": [{"txinwitness": ["", "304502210090efe5d2037a668816fddea397d648e378b1e793df060fe5927d37ebd612fa39022001f87493a42aaf54e735b201de6f3ea867b50870d627f10f7d5e43ed2dc16b8d01", "3044022047b333f4f8ba7d0f3fdc20ed86805f131ee391c80004408bdfa6d6ca2acbf50d02200d8698346413768fcdf0fa581d496998b98295460d1cf82d2c665a944b687ec701", "522102f44abcf9e23c9a460da309ccca56c619c04eed3bde2c2cff5e7d78fbcd980b9c2103c9443cf3047bb6c2c82f1b0c44c36109cdc3d0d601d16d1189a1602bf8d1a0a02103bfe867059274412412e088af5572b92168c2ef495cfe6c9b7a753a009eb37c4853ae"], "sequence": 4294967295, "scriptSig": {"hex": "22002065d416c48a8072e0ac51c2d111eb194f009caef0332446c1bf2097316cf07fa9", "asm": "002065d416c48a8072e0ac51c2d111eb194f009caef0332446c1bf2097316cf07fa9"}, "vout": 1, "txid": "019cd4fcc8291c124ce933fd366c8bb41658fb73af925f0a9777af4bb6e54bcf"}], "txid": "a1784ced33f0d5263147d25177d5288e6f3de46a7ce0a1c7759c81ba40fee149", "blocktime": 1537869901, "version": 1, "confirmations": 11522, "time": 1537869901, "locktime": 0, "vsize": 214, "size": 405}