{"hash": "24b5c879f7d19b894cf449fe9e93ae9bf88cc3510259b99eb9c2f6dde7fcf8db", "blockhash": "00000000000000000017f5eb5941039fbcee6240d03bc1f2f8e35350df66a1d8", "vout": [{"scriptPubKey": {"reqSigs": 1, "hex": "a914e5fc05a94e47ebef6c781ad77d0a3a56340e48dd87", "addresses": ["3Nf4aGzAe4wFwcsimoxodFzTPNfcRi7nwL"], "asm": "OP_HASH160 e5fc05a94e47ebef6c781ad77d0a3a56340e48dd OP_EQUAL", "type": "scripthash"}, "value": 0.09924071, "n": 0}, {"scriptPubKey": {"reqSigs": 1, "hex": "a914b6204602202e76e8e224ff53fc2c67a0dc5bafc387", "addresses": ["3JJ1ZreqovK6QMVNBonqd9ifwht2iiUv56"], "asm": "OP_HASH160 b6204602202e76e8e224ff53fc2c67a0dc5bafc3 OP_EQUAL", "type": "scripthash"}, "value": 0.00350379, "n": 1}], "hex": "02000000000101703ab0d09b88659f3c0ba83d4add76113756c8664c79f419eee05fd120e1a01802000000171600148353bda6bfcf3a33992411ddf597f10b4ab1918cfeffffff02e76d97000000000017a914e5fc05a94e47ebef6c781ad77d0a3a56340e48dd87ab5805000000000017a914b6204602202e76e8e224ff53fc2c67a0dc5bafc3870247304402207911951aa9a169f8308d5a831fc11a95f255cfdb324f537e41d8f2e36bf4bbb202206181eafd540058d6c607eca35075c916f73b85ab42784e6dde94aba66577a29d0121035ed1a23a7a0ebf713249a8a1cb3fecd44cdf70d7cc6ffe1f11bb2ca04d4f54d115490800", "vin": [{"txinwitness": ["304402207911951aa9a169f8308d5a831fc11a95f255cfdb324f537e41d8f2e36bf4bbb202206181eafd540058d6c607eca35075c916f73b85ab42784e6dde94aba66577a29d01", "035ed1a23a7a0ebf713249a8a1cb3fecd44cdf70d7cc6ffe1f11bb2ca04d4f54d1"], "sequence": 4294967294, "scriptSig": {"hex": "1600148353bda6bfcf3a33992411ddf597f10b4ab1918c", "asm": "00148353bda6bfcf3a33992411ddf597f10b4ab1918c"}, "vout": 2, "txid": "18a0e120d15fe0ee19f4794c66c856371176dd4a3da80b3c9f65889bd0b03a70"}], "txid": "a17cd2fbef4ccd21eb2b22540445b6e155520a34ea5f95e98040b3a1596cd9b6", "blocktime": 1537874412, "version": 2, "confirmations": 11466, "time": 1537874412, "locktime": 542997, "vsize": 166, "size": 247}