{"hash": "a17e9ee2ba9ea70c56ac23c73383bd75fcc0055afc907b38ea71b6d76b019985", "blockhash": "0000000000000000001f0ddff1eddb255c1121bcd4da4f1bc9a0da00cae72433", "vout": [{"scriptPubKey": {"reqSigs": 1, "hex": "76a914a744ee6d3bb4830a40722c16a41be805c4da129e88ac", "addresses": ["1GFSRUGYkczeRCZt1nrKEh6z5bVbaCfm7V"], "asm": "OP_DUP OP_HASH160 a744ee6d3bb4830a40722c16a41be805c4da129e OP_EQUALVERIFY OP_CHECKSIG", "type": "pubkeyhash"}, "value": 0.00052786, "n": 0}, {"scriptPubKey": {"reqSigs": 1, "hex": "76a914a87c8c0d4663a918de783089a12524ca786d868188ac", "addresses": ["1GMsiunopL5sZuTMaPbCjfwXdJEvC62KSG"], "asm": "OP_DUP OP_HASH160 a87c8c0d4663a918de783089a12524ca786d8681 OP_EQUALVERIFY OP_CHECKSIG", "type": "pubkeyhash"}, "value": 0.12423307, "n": 1}], "hex": "01000000010c7f70c62998b76226194aee23cfe62d9cac6ab7dca07cbf0a115e8946b09549010000006b483045022100c5dfb1a8d109ceea5213c683828d6a90710c6630114029e2c11a8bb08e9af28a0220482d4f4e06ef85f2aa8401bd2e5bb0386fe05c071cbad83580bed36525975fd90121028a529b882ca97682e7f83cc2e44a1f6deb15c78dea47747c1d1b17aece1e91a8ffffffff0232ce0000000000001976a914a744ee6d3bb4830a40722c16a41be805c4da129e88ac8b90bd00000000001976a914a87c8c0d4663a918de783089a12524ca786d868188ac00000000", "vin": [{"sequence": 4294967295, "scriptSig": {"hex": "483045022100c5dfb1a8d109ceea5213c683828d6a90710c6630114029e2c11a8bb08e9af28a0220482d4f4e06ef85f2aa8401bd2e5bb0386fe05c071cbad83580bed36525975fd90121028a529b882ca97682e7f83cc2e44a1f6deb15c78dea47747c1d1b17aece1e91a8", "asm": "3045022100c5dfb1a8d109ceea5213c683828d6a90710c6630114029e2c11a8bb08e9af28a0220482d4f4e06ef85f2aa8401bd2e5bb0386fe05c071cbad83580bed36525975fd9[ALL] 028a529b882ca97682e7f83cc2e44a1f6deb15c78dea47747c1d1b17aece1e91a8"}, "vout": 1, "txid": "4995b046895e110abf7ca0dcb76aac9c2de6cf23ee4a192662b79829c6707f0c"}], "txid": "a17e9ee2ba9ea70c56ac23c73383bd75fcc0055afc907b38ea71b6d76b019985", "blocktime": 1537872018, "version": 1, "confirmations": 11489, "time": 1537872018, "locktime": 0, "vsize": 226, "size": 226}