{"hash": "33e239766c1daf0a927dc4ee02cd05f5712b2cfeddb8ebf9bc1dcdd5fbe123c4", "blockhash": "0000000000000000001f76057863aec43deb6fa401d9628bb513d65a8098bfab", "vout": [{"scriptPubKey": {"reqSigs": 1, "hex": "a914b63b232e4113c06dcf1b59e90f3bba8769d6d71a87", "addresses": ["3JJZkPzNVpXG7HR3p7VWiYfzSauWfMeZha"], "asm": "OP_HASH160 b63b232e4113c06dcf1b59e90f3bba8769d6d71a OP_EQUAL", "type": "scripthash"}, "value": 0.00189021, "n": 0}, {"scriptPubKey": {"reqSigs": 1, "hex": "a9148629e57cb7407b5eaf04144086fa43e79f4e338187", "addresses": ["3DvQfGHQuUN22sobJko2q1SNzvZcXg4drS"], "asm": "OP_HASH160 8629e57cb7407b5eaf04144086fa43e79f4e3381 OP_EQUAL", "type": "scripthash"}, "value": 0.63953443, "n": 1}], "hex": "01000000000101a20efa73c1bf978f7474dd3adf69c23ae4800227c6b221475a86f18858d5247b01000000232200207057577097420455245031ecbecb7734eec7c0ee6f0e2dc7561f31a462afb107ffffffff025de202000000000017a914b63b232e4113c06dcf1b59e90f3bba8769d6d71a8723dacf030000000017a9148629e57cb7407b5eaf04144086fa43e79f4e3381870400483045022100c83d5adedbed7a6ca5d2e31783785010c1e91377bc49a37a2843069bf7e0e97c02206e94398306298e73996f838945d7b2e78bfda486824aa7c6584ce6d4e5ed0568014730440220428ec22e4edff9060927249c7c9acc787d0e2edf12490607449c96ddf5e7d518022016d24453779d0e21104cd63b1965c574c40c2f8c51b6a245127b7703b045b3e20169522102ee3518bf3c193f0731179b7a1313249bad3a9ab93cbfd29bb90d362dc30a74b3210330a7444cf8a8f975a351ef6444269b4a8725c5e5b187abc4f29aaf5e8e31041d21037fdbf38266375a096750704dfbdfb51ad4ad74cf6fc78b2d865b663860e05dc253ae00000000", "vin": [{"txinwitness": ["", "3045022100c83d5adedbed7a6ca5d2e31783785010c1e91377bc49a37a2843069bf7e0e97c02206e94398306298e73996f838945d7b2e78bfda486824aa7c6584ce6d4e5ed056801", "30440220428ec22e4edff9060927249c7c9acc787d0e2edf12490607449c96ddf5e7d518022016d24453779d0e21104cd63b1965c574c40c2f8c51b6a245127b7703b045b3e201", "522102ee3518bf3c193f0731179b7a1313249bad3a9ab93cbfd29bb90d362dc30a74b3210330a7444cf8a8f975a351ef6444269b4a8725c5e5b187abc4f29aaf5e8e31041d21037fdbf38266375a096750704dfbdfb51ad4ad74cf6fc78b2d865b663860e05dc253ae"], "sequence": 4294967295, "scriptSig": {"hex": "2200207057577097420455245031ecbecb7734eec7c0ee6f0e2dc7561f31a462afb107", "asm": "00207057577097420455245031ecbecb7734eec7c0ee6f0e2dc7561f31a462afb107"}, "vout": 1, "txid": "7b24d55888f1865a4721b2c6270280e43ac269df3add74748f97bfc173fa0ea2"}], "txid": "a18056a6d8d982f45355a2fec43a7905b32fa21a0726872edf06fa236a0ea352", "blocktime": 1537873891, "version": 1, "confirmations": 11478, "time": 1537873891, "locktime": 0, "vsize": 214, "size": 405}