{"hash": "26c13edd68bf9457a3d87f673df9e93319e9efe1d1eca4f8b016f0f955af029f", "blockhash": "0000000000000000001cda96e906b7601b7a6fb1a3b62bca570a9e5d8f4b3de1", "vout": [{"scriptPubKey": {"reqSigs": 1, "hex": "a914ad7f45c3ff6d9f1ba3c815b72a65dcb1742bd58a87", "addresses": ["3HWPHnD5etzSmNL8cTVvUQzozyxoFkMV4Q"], "asm": "OP_HASH160 ad7f45c3ff6d9f1ba3c815b72a65dcb1742bd58a OP_EQUAL", "type": "scripthash"}, "value": 0.01000064, "n": 0}, {"scriptPubKey": {"reqSigs": 1, "hex": "76a9145f93530797c10438c666e5965651679cc216a8dc88ac", "addresses": ["19iMgVteggasMA3RTCAWDHQVWprDmSVFTP"], "asm": "OP_DUP OP_HASH160 5f93530797c10438c666e5965651679cc216a8dc OP_EQUALVERIFY OP_CHECKSIG", "type": "pubkeyhash"}, "value": 0.0024626, "n": 1}], "hex": "02000000000102809d4306e258dc26ea7724679c082ef3e68e5b30929ca52fcf3a7ab6cfc21a2f0e000000171600149c0a56544f7498bb1b99739cc7532644092022d8feffffffae7a95518f5f6778556adc12f6aa2b34310d2cdc7e3ce00ab78dc48f67f088cd0100000017160014a90e8aae5edcf4832a1b7b4cb42d6c3a4c20d8ecfeffffff0280420f000000000017a914ad7f45c3ff6d9f1ba3c815b72a65dcb1742bd58a87f4c10300000000001976a9145f93530797c10438c666e5965651679cc216a8dc88ac02473044022069deefa412fb6ffbc05872748cfbe8474aefcbd8df54f40cb9ace097f4a9018502207e43a7a62d6f4de16647e73bf9fa13caa387b02b40ad2209ddb2eaf1d560f5d9012102f36559eabd5844a6271681836aeafa8e64e32525723fdd60151c8d300bb1b72502483045022100ab0f5d997c4b99438a15200f6e18fa8a64e8d6e74ed706cf14cafa8dd3bb30ae0220450274f67d09925889be6b7f806ac0ce491113025d22a2a394eeb09dfca83265012102baf142c44989cb4a2fb34350b6100ee23a1cae5d59cdc5f52d23d3c8fdff5f8013490800", "vin": [{"txinwitness": ["3044022069deefa412fb6ffbc05872748cfbe8474aefcbd8df54f40cb9ace097f4a9018502207e43a7a62d6f4de16647e73bf9fa13caa387b02b40ad2209ddb2eaf1d560f5d901", "02f36559eabd5844a6271681836aeafa8e64e32525723fdd60151c8d300bb1b725"], "sequence": 4294967294, "scriptSig": {"hex": "1600149c0a56544f7498bb1b99739cc7532644092022d8", "asm": "00149c0a56544f7498bb1b99739cc7532644092022d8"}, "vout": 14, "txid": "2f1ac2cfb67a3acf2fa59c92305b8ee6f32e089c672477ea26dc58e206439d80"}, {"txinwitness": ["3045022100ab0f5d997c4b99438a15200f6e18fa8a64e8d6e74ed706cf14cafa8dd3bb30ae0220450274f67d09925889be6b7f806ac0ce491113025d22a2a394eeb09dfca8326501", "02baf142c44989cb4a2fb34350b6100ee23a1cae5d59cdc5f52d23d3c8fdff5f80"], "sequence": 4294967294, "scriptSig": {"hex": "160014a90e8aae5edcf4832a1b7b4cb42d6c3a4c20d8ec", "asm": "0014a90e8aae5edcf4832a1b7b4cb42d6c3a4c20d8ec"}, "vout": 1, "txid": "cd88f0678fc48db70ae03c7edc2c0d31342baaf612dc6a5578675f8f51957aae"}], "txid": "a1898a300e1ba4b59b0c7d9477130292bfd75f750f475a4ce52e284b4c200956", "blocktime": 1537873282, "version": 2, "confirmations": 11485, "time": 1537873282, "locktime": 542995, "vsize": 259, "size": 421}