{"hash": "caf1baf6ce8f07b6d22ca856d718972ee0a59f174c3eecd69e078e6d94c57adf", "blockhash": "0000000000000000001e0dab787dd257d1dbfcb92a98c2207d5e1078be1f4165", "vout": [{"scriptPubKey": {"reqSigs": 1, "hex": "a9142e170002d78e58ee0856fc35d27d66b9024ce64b87", "addresses": ["35tiZSQzMk35pYHJpfdQveBv98GcY9V4Z7"], "asm": "OP_HASH160 2e170002d78e58ee0856fc35d27d66b9024ce64b OP_EQUAL", "type": "scripthash"}, "value": 0.01203975, "n": 0}, {"scriptPubKey": {"reqSigs": 1, "hex": "76a9148bbd11f5b7d5b5837f0c9711c54db1ea2c3da58988ac", "addresses": ["1DjsRVNUu3oJ8FDjzC6668h4XUb5m4RiaB"], "asm": "OP_DUP OP_HASH160 8bbd11f5b7d5b5837f0c9711c54db1ea2c3da589 OP_EQUALVERIFY OP_CHECKSIG", "type": "pubkeyhash"}, "value": 0.00990048, "n": 1}], "hex": "020000000001012cd8311933b8dcd8fbf5f7537207f99925a9461f1298fe3c241327220da55dc301000000171600144b735b08e473f013e59e96312e5b20f13c101438feffffff02075f12000000000017a9142e170002d78e58ee0856fc35d27d66b9024ce64b87601b0f00000000001976a9148bbd11f5b7d5b5837f0c9711c54db1ea2c3da58988ac024730440220784c9b2b2b95aafd0dee46c88e6a419467c1d05e94e44474f95b1d61b55de4710220518391a4acca9851c2a3dc5fcd6429352c3612019bcbaa9aee8226778d4b1b9f01210377e57f1d8c7d0506333de1447234a22f50053b86090b5af8321c0bc0d87a5d4812490800", "vin": [{"txinwitness": ["30440220784c9b2b2b95aafd0dee46c88e6a419467c1d05e94e44474f95b1d61b55de4710220518391a4acca9851c2a3dc5fcd6429352c3612019bcbaa9aee8226778d4b1b9f01", "0377e57f1d8c7d0506333de1447234a22f50053b86090b5af8321c0bc0d87a5d48"], "sequence": 4294967294, "scriptSig": {"hex": "1600144b735b08e473f013e59e96312e5b20f13c101438", "asm": "00144b735b08e473f013e59e96312e5b20f13c101438"}, "vout": 1, "txid": "c35da50d222713243cfe98121f46a92599f9077253f7f5fbd8dcb8331931d82c"}], "txid": "a18aea6b2974f8f876c1e1715965af9aa3238caf872ce4be02004882176b41a1", "blocktime": 1537872475, "version": 2, "confirmations": 11486, "time": 1537872475, "locktime": 542994, "vsize": 168, "size": 249}