{"hash": "a18c4f45a974cf2208b2f08fddbe504fc531f6918f761745e34f0b3aa0d698cb", "blockhash": "0000000000000000000baef3f32e3676a92c3b2e5da21b426e4f302fc371ce76", "vout": [{"scriptPubKey": {"reqSigs": 1, "hex": "76a914b9b005a97d96bcfd29783b7eade28f5879758db288ac", "addresses": ["1HvpsikGnjmDWw7hDsddtL95wA7b19Gc2t"], "asm": "OP_DUP OP_HASH160 b9b005a97d96bcfd29783b7eade28f5879758db2 OP_EQUALVERIFY OP_CHECKSIG", "type": "pubkeyhash"}, "value": 0.0045, "n": 0}, {"scriptPubKey": {"reqSigs": 1, "hex": "76a914c3dc28ccd0769ec021a75a9229fc1108dc34584388ac", "addresses": ["1JrcWMDLdoQXQ2MiWpRUmWaNaAaherAYhs"], "asm": "OP_DUP OP_HASH160 c3dc28ccd0769ec021a75a9229fc1108dc345843 OP_EQUALVERIFY OP_CHECKSIG", "type": "pubkeyhash"}, "value": 5.544e-05, "n": 1}], "hex": "010000000166df19fdceb470995d226db1eedf9023c19928ceb365e24e555fd66ee97d4fbf0000000069463043021f17c64f8fbd5b4241290af07494e490268bdc00bb9214231b9572ea5c4ebf54022019e57ca821dc65e59532a746fb38e33fc5d1b5c2396cfa29fc84ac5ad003bbdc0121026ac8b09cfda4d85db5eddf5c0125ac7de0ea7eea44cd6c7dd3608af019efc7b8ffffffff02d0dd0600000000001976a914b9b005a97d96bcfd29783b7eade28f5879758db288aca8150000000000001976a914c3dc28ccd0769ec021a75a9229fc1108dc34584388ac00000000", "vin": [{"sequence": 4294967295, "scriptSig": {"hex": "463043021f17c64f8fbd5b4241290af07494e490268bdc00bb9214231b9572ea5c4ebf54022019e57ca821dc65e59532a746fb38e33fc5d1b5c2396cfa29fc84ac5ad003bbdc0121026ac8b09cfda4d85db5eddf5c0125ac7de0ea7eea44cd6c7dd3608af019efc7b8", "asm": "3043021f17c64f8fbd5b4241290af07494e490268bdc00bb9214231b9572ea5c4ebf54022019e57ca821dc65e59532a746fb38e33fc5d1b5c2396cfa29fc84ac5ad003bbdc[ALL] 026ac8b09cfda4d85db5eddf5c0125ac7de0ea7eea44cd6c7dd3608af019efc7b8"}, "vout": 0, "txid": "bf4f7de96ed65f554ee265b3ce2899c12390dfeeb16d225d9970b4cefd19df66"}], "txid": "a18c4f45a974cf2208b2f08fddbe504fc531f6918f761745e34f0b3aa0d698cb", "blocktime": 1537876114, "version": 1, "confirmations": 11460, "time": 1537876114, "locktime": 0, "vsize": 224, "size": 224}