{"hash": "6463feb21e760d902f2a2197419104d03f70c3e21bcd4bd3bb01f3c94b3070fd", "blockhash": "00000000000000000017f5eb5941039fbcee6240d03bc1f2f8e35350df66a1d8", "vout": [{"scriptPubKey": {"reqSigs": 1, "hex": "76a914357fbbfce3627eac00a9404c64f0c7b1454fc28688ac", "addresses": ["15ssqJcaa95yDkKoTF7gEBdFg3k3PVLHGb"], "asm": "OP_DUP OP_HASH160 357fbbfce3627eac00a9404c64f0c7b1454fc286 OP_EQUALVERIFY OP_CHECKSIG", "type": "pubkeyhash"}, "value": 0.00392155, "n": 0}], "hex": "02000000000101ec8d9eb6118bdf22249a7597d752c115b4f2cec1aaeb203284474f82604008a40000000017160014d5142b294b41ed69e8d78b025bacbc953d176728ffffffff01dbfb0500000000001976a914357fbbfce3627eac00a9404c64f0c7b1454fc28688ac02473044022017a7a028dd3b94ec6cea82827f679cd3ef61ac7122b8016ad35e34f1e96f440902204c8ed439c65f81eb295eba784da0dde7554132e75998fe3aac1bf106bd6eb41401210276d758e0afb4efca5e415c94576610197391dcee962f7ba1eea0a0a62d7b690200000000", "vin": [{"txinwitness": ["3044022017a7a028dd3b94ec6cea82827f679cd3ef61ac7122b8016ad35e34f1e96f440902204c8ed439c65f81eb295eba784da0dde7554132e75998fe3aac1bf106bd6eb41401", "0276d758e0afb4efca5e415c94576610197391dcee962f7ba1eea0a0a62d7b6902"], "sequence": 4294967295, "scriptSig": {"hex": "160014d5142b294b41ed69e8d78b025bacbc953d176728", "asm": "0014d5142b294b41ed69e8d78b025bacbc953d176728"}, "vout": 0, "txid": "a4084060824f47843220ebaac1cef2b415c152d797759a2422df8b11b69e8dec"}], "txid": "a19254f8694634bc159e1d63bc65753024170d877cace55e3051b75742b2aa0f", "blocktime": 1537874412, "version": 2, "confirmations": 11467, "time": 1537874412, "locktime": 0, "vsize": 136, "size": 217}