{"hash": "1033f5e607407f3591bf6f367ba957679ff4db9b3ead3b3888e8d122f538b339", "blockhash": "0000000000000000001f76057863aec43deb6fa401d9628bb513d65a8098bfab", "vout": [{"scriptPubKey": {"reqSigs": 1, "hex": "76a914df16d336a387b3f7b4d101b84f54b1499046244088ac", "addresses": ["1MLb2h4Hds91v6BqjYv9zWtJx2xumAprdU"], "asm": "OP_DUP OP_HASH160 df16d336a387b3f7b4d101b84f54b14990462440 OP_EQUALVERIFY OP_CHECKSIG", "type": "pubkeyhash"}, "value": 0.045899, "n": 0}], "hex": "01000000000106dd2c695d8c991691e13c32cec6bc3bb3dbcc0ffca23da860781dc24d0c55139600000000171600149abf30bf0a8fa34847c8c6ba66f753ef616e7d05fdffffffcfb9aedfd27ee0654d5520f8a115296a9bdd233376d9abc0d65213f20c1e05800000000017160014dc7524262d532348f15c9c9575634664bb47d879fdffffff643da5dae7643b8a28e44a2f3f02b9cd19326cadaf7e93bddcb917bffc8c2edd0000000017160014465ed7bf0683d5634da5909a2896cd238248ecd7fdffffff0f9a5a4bc88215d2f0c1821a2be8192df3b9f0a4aff9f5de96d8ee172bb2598301000000171600140501d258843247ae2483eb57fb458c9ee2ae88c6fdffffff79e60a33d11a989e9d77ac5a2a7a5e9b1f17f82819f2177e10c9f2569af3a05c000000001716001486ecafd31d60c71dd8c9d53744e6da8725dee97afdffffff3db05fa886ac2cb6d218188fa30e78f934f278194bcf76b4d1228b45ea72132301000000171600145abba63c0b2e9dd67c256bd13b2cb6cb83e602d3fdffffff014c094600000000001976a914df16d336a387b3f7b4d101b84f54b1499046244088ac02473044022053b36b6baf36d6ec35bc140bc3e71bf5cf6d8a62f6d8b9e4fb05a9ea2312ab2f02202e40bd911660f1b3bb1cfcce4b81c63ba1f79347d75dd460063d26d85831623d01210340676bbbe17c1cb92ab399a8c5e3f505c1c43b6e4f1a72165aa744eb20f628e00248304502210094c38363b36040c32e5ce6eec3ab41810bad366b010b8435beef713bf94906ee02200d3e78acfdab346a2189198d1c18efa2f073d917c52a89cbf4637c952bd4a07b012103d3f3aeddf0071330db1d8cd1fee0a45421ea18f76c1f722e2416b4dcdd89847202483045022100d4c3054658f6f0ed44ed8dc3cb1f85589820f6d070bc9173228b5e39b172d45f022070c86021f26fd178043d924a14bb8ec122515bfc774e7d53e61da360fc879f15012102541124dd84c728646204141e142a5f3d38648c947d68dcc6c84afbc693a1608302483045022100f6ea1873ec76aa2fb86785b41fde82adfe00907404b0c4fc2429e74578efe4b802200cb6ac297cf4ca3fe97d9a27c4d03e54d0a5d66f1329b6dba3dcd86214e58abb012103116df07721bde3306e9b672bf7fdeedee99e705b7eb1c19f55732374c68c63d6024730440220636a82f6974507637d2af2ff3f911132d9eb67ada11018d020a2c466863e8f5c02203e462d26fd0101e6716e9ea1e2a726cca933d7584aac5acd41a1bf0a0ae33835012102d49d428d07409959c8b966975734e93344e883ac58a5de6575d00948f7876f32024730440220084e781eca6da0230b021cd0d2405d5bc7d86d0ff5401490ee99f54d6fec0c70022053852b04889657f5ccd815d4ab358b553111f871cbd297349dbe860890db6b6e01210282aab5f0b68a4f2ab0832cbb2a5a66e9e991a22d1fbe8196cd82360fbab6765214490800", "vin": [{"txinwitness": ["3044022053b36b6baf36d6ec35bc140bc3e71bf5cf6d8a62f6d8b9e4fb05a9ea2312ab2f02202e40bd911660f1b3bb1cfcce4b81c63ba1f79347d75dd460063d26d85831623d01", "0340676bbbe17c1cb92ab399a8c5e3f505c1c43b6e4f1a72165aa744eb20f628e0"], "sequence": 4294967293, "scriptSig": {"hex": "1600149abf30bf0a8fa34847c8c6ba66f753ef616e7d05", "asm": "00149abf30bf0a8fa34847c8c6ba66f753ef616e7d05"}, "vout": 0, "txid": "9613550c4dc21d7860a83da2fc0fccdbb33bbcc6ce323ce19116998c5d692cdd"}, {"txinwitness": ["304502210094c38363b36040c32e5ce6eec3ab41810bad366b010b8435beef713bf94906ee02200d3e78acfdab346a2189198d1c18efa2f073d917c52a89cbf4637c952bd4a07b01", "03d3f3aeddf0071330db1d8cd1fee0a45421ea18f76c1f722e2416b4dcdd898472"], "sequence": 4294967293, "scriptSig": {"hex": "160014dc7524262d532348f15c9c9575634664bb47d879", "asm": "0014dc7524262d532348f15c9c9575634664bb47d879"}, "vout": 0, "txid": "80051e0cf21352d6c0abd9763323dd9b6a2915a1f820554d65e07ed2dfaeb9cf"}, {"txinwitness": ["3045022100d4c3054658f6f0ed44ed8dc3cb1f85589820f6d070bc9173228b5e39b172d45f022070c86021f26fd178043d924a14bb8ec122515bfc774e7d53e61da360fc879f1501", "02541124dd84c728646204141e142a5f3d38648c947d68dcc6c84afbc693a16083"], "sequence": 4294967293, "scriptSig": {"hex": "160014465ed7bf0683d5634da5909a2896cd238248ecd7", "asm": "0014465ed7bf0683d5634da5909a2896cd238248ecd7"}, "vout": 0, "txid": "dd2e8cfcbf17b9dcbd937eafad6c3219cdb9023f2f4ae4288a3b64e7daa53d64"}, {"txinwitness": ["3045022100f6ea1873ec76aa2fb86785b41fde82adfe00907404b0c4fc2429e74578efe4b802200cb6ac297cf4ca3fe97d9a27c4d03e54d0a5d66f1329b6dba3dcd86214e58abb01", "03116df07721bde3306e9b672bf7fdeedee99e705b7eb1c19f55732374c68c63d6"], "sequence": 4294967293, "scriptSig": {"hex": "1600140501d258843247ae2483eb57fb458c9ee2ae88c6", "asm": "00140501d258843247ae2483eb57fb458c9ee2ae88c6"}, "vout": 1, "txid": "8359b22b17eed896def5f9afa4f0b9f32d19e82b1a82c1f0d21582c84b5a9a0f"}, {"txinwitness": ["30440220636a82f6974507637d2af2ff3f911132d9eb67ada11018d020a2c466863e8f5c02203e462d26fd0101e6716e9ea1e2a726cca933d7584aac5acd41a1bf0a0ae3383501", "02d49d428d07409959c8b966975734e93344e883ac58a5de6575d00948f7876f32"], "sequence": 4294967293, "scriptSig": {"hex": "16001486ecafd31d60c71dd8c9d53744e6da8725dee97a", "asm": "001486ecafd31d60c71dd8c9d53744e6da8725dee97a"}, "vout": 0, "txid": "5ca0f39a56f2c9107e17f21928f8171f9b5e7a2a5aac779d9e981ad1330ae679"}, {"txinwitness": ["30440220084e781eca6da0230b021cd0d2405d5bc7d86d0ff5401490ee99f54d6fec0c70022053852b04889657f5ccd815d4ab358b553111f871cbd297349dbe860890db6b6e01", "0282aab5f0b68a4f2ab0832cbb2a5a66e9e991a22d1fbe8196cd82360fbab67652"], "sequence": 4294967293, "scriptSig": {"hex": "1600145abba63c0b2e9dd67c256bd13b2cb6cb83e602d3", "asm": "00145abba63c0b2e9dd67c256bd13b2cb6cb83e602d3"}, "vout": 1, "txid": "231372ea458b22d1b476cf4b1978f234f9780ea38f1818d2b62cac86a85fb03d"}], "txid": "a196be2617965ce1e4c8d3a3821851c5d8328d08b7c35cd6633032475afe7dac", "blocktime": 1537873891, "version": 1, "confirmations": 11479, "time": 1537873891, "locktime": 542996, "vsize": 590, "size": 1075}