{"hash": "a197e9298b79343cb93e85d771c0165dc12256ebd921cb498bad5e5ccf828fac", "blockhash": "0000000000000000001cda96e906b7601b7a6fb1a3b62bca570a9e5d8f4b3de1", "vout": [{"scriptPubKey": {"reqSigs": 1, "hex": "76a9146fdd4d53288e69150cba99567d379df0a0fa5ec888ac", "addresses": ["1BCV7dVakXbrnqxAfTDs9bdEqfTAMgUVZp"], "asm": "OP_DUP OP_HASH160 6fdd4d53288e69150cba99567d379df0a0fa5ec8 OP_EQUALVERIFY OP_CHECKSIG", "type": "pubkeyhash"}, "value": 0.00046859, "n": 0}, {"scriptPubKey": {"reqSigs": 1, "hex": "76a91493c97ae7cd9fb3ec2f6ad63617bbbf33f5ba418a88ac", "addresses": ["1EURhHM16msNyNXiEKQmyNrjs1EPkzTKXx"], "asm": "OP_DUP OP_HASH160 93c97ae7cd9fb3ec2f6ad63617bbbf33f5ba418a OP_EQUALVERIFY OP_CHECKSIG", "type": "pubkeyhash"}, "value": 0.00206456, "n": 1}], "hex": "010000000102d873703ae08d7330d536e9b2d3aeff52f9aa16b55c0c67a6f09d1a29b598c8000000006b483045022100841d0777af14337ea27520f20ac9f5f4c1fb55e15cdd307c08b34976e69d7d13022065dfea6e55ca702f1fe7a50452e56894676ceb1c3931a3612612496298b41198012103a9a08ff7fcd4eb87f97e7eddc02361a4a67b520465f5c393b5d9880e835699f0ffffffff020bb70000000000001976a9146fdd4d53288e69150cba99567d379df0a0fa5ec888ac78260300000000001976a91493c97ae7cd9fb3ec2f6ad63617bbbf33f5ba418a88ac00000000", "vin": [{"sequence": 4294967295, "scriptSig": {"hex": "483045022100841d0777af14337ea27520f20ac9f5f4c1fb55e15cdd307c08b34976e69d7d13022065dfea6e55ca702f1fe7a50452e56894676ceb1c3931a3612612496298b41198012103a9a08ff7fcd4eb87f97e7eddc02361a4a67b520465f5c393b5d9880e835699f0", "asm": "3045022100841d0777af14337ea27520f20ac9f5f4c1fb55e15cdd307c08b34976e69d7d13022065dfea6e55ca702f1fe7a50452e56894676ceb1c3931a3612612496298b41198[ALL] 03a9a08ff7fcd4eb87f97e7eddc02361a4a67b520465f5c393b5d9880e835699f0"}, "vout": 0, "txid": "c898b5291a9df0a6670c5cb516aaf952ffaed3b2e936d530738de03a7073d802"}], "txid": "a197e9298b79343cb93e85d771c0165dc12256ebd921cb498bad5e5ccf828fac", "blocktime": 1537873282, "version": 1, "confirmations": 11484, "time": 1537873282, "locktime": 0, "vsize": 226, "size": 226}