{"hash": "a1a25403beab8ba55e05769bc8d1e9e0b6e51a94a0f65ea7c2f1a3337601dadc", "blockhash": "0000000000000000001cda96e906b7601b7a6fb1a3b62bca570a9e5d8f4b3de1", "vout": [{"scriptPubKey": {"reqSigs": 1, "hex": "76a914de3bbfbae27b65df1c23f5701299bedf2372cc6f88ac", "addresses": ["1MG4b1vM4qUtshQXBpBLuvbMDGUX12Mu4i"], "asm": "OP_DUP OP_HASH160 de3bbfbae27b65df1c23f5701299bedf2372cc6f OP_EQUALVERIFY OP_CHECKSIG", "type": "pubkeyhash"}, "value": 0.00780629, "n": 0}, {"scriptPubKey": {"reqSigs": 1, "hex": "76a9140c992121d54b1e15292f83505cba5404656c6dfa88ac", "addresses": ["129cYvQTRP4Zd9e4KMrt69Bm6ftguL2kLX"], "asm": "OP_DUP OP_HASH160 0c992121d54b1e15292f83505cba5404656c6dfa OP_EQUALVERIFY OP_CHECKSIG", "type": "pubkeyhash"}, "value": 0.01058445, "n": 1}], "hex": "0100000001be5e4833bd1e28e50e44fb2c2040700328695262cde9b5c4bc0393859e09ed83130000006a47304402204240d1a8555ee848bd4a2c77991c9dc59ea4303ae5163f6693284288e39af37c02205499e05d7b6817f412c1b508b476462a20fd0a257878928eda5831421d7b01a0012102e4180337bdfe482d6e494ed06f086e04c499462f96ccf1f2f6c21efb765bd26cffffffff0255e90b00000000001976a914de3bbfbae27b65df1c23f5701299bedf2372cc6f88ac8d261000000000001976a9140c992121d54b1e15292f83505cba5404656c6dfa88ac00000000", "vin": [{"sequence": 4294967295, "scriptSig": {"hex": "47304402204240d1a8555ee848bd4a2c77991c9dc59ea4303ae5163f6693284288e39af37c02205499e05d7b6817f412c1b508b476462a20fd0a257878928eda5831421d7b01a0012102e4180337bdfe482d6e494ed06f086e04c499462f96ccf1f2f6c21efb765bd26c", "asm": "304402204240d1a8555ee848bd4a2c77991c9dc59ea4303ae5163f6693284288e39af37c02205499e05d7b6817f412c1b508b476462a20fd0a257878928eda5831421d7b01a0[ALL] 02e4180337bdfe482d6e494ed06f086e04c499462f96ccf1f2f6c21efb765bd26c"}, "vout": 19, "txid": "83ed099e859303bcc4b5e9cd62526928037040202cfb440ee5281ebd33485ebe"}], "txid": "a1a25403beab8ba55e05769bc8d1e9e0b6e51a94a0f65ea7c2f1a3337601dadc", "blocktime": 1537873282, "version": 1, "confirmations": 11484, "time": 1537873282, "locktime": 0, "vsize": 225, "size": 225}