{"hash": "a1a6795a5419ab43e4bbbbc0b1c1c71da08b6aef267227cd1e60001476fc0fae", "blockhash": "0000000000000000001cda96e906b7601b7a6fb1a3b62bca570a9e5d8f4b3de1", "vout": [{"scriptPubKey": {"reqSigs": 1, "hex": "76a914528f409b9e9e23fe2f0d4cbc622698af8bff6b0988ac", "addresses": ["18XY25cghFCpEWebaGCeux8KgJMARSS3m4"], "asm": "OP_DUP OP_HASH160 528f409b9e9e23fe2f0d4cbc622698af8bff6b09 OP_EQUALVERIFY OP_CHECKSIG", "type": "pubkeyhash"}, "value": 0.04092661, "n": 0}, {"scriptPubKey": {"reqSigs": 1, "hex": "76a91401ff8c636fa190b3c59355c6e852721f14c21bc388ac", "addresses": ["1BZp1KBmAqNmYZhJq1AEoViQ6u1Q3XQc3"], "asm": "OP_DUP OP_HASH160 01ff8c636fa190b3c59355c6e852721f14c21bc3 OP_EQUALVERIFY OP_CHECKSIG", "type": "pubkeyhash"}, "value": 0.07806706, "n": 1}], "hex": "0100000002740e9270248589befedff0283be6cc14024ccb0916eb2c065746bc76ddb27a35010000006a4730440220351edd980322d77e73349f03698c6a1e689c625fc9e2d0644fe323803a42cc6e0220747857223551bfd8b102f9064388eefeb07ff6b3bb132f74ec1fd34ba64b6cba01210348f333aeb7a50ccf0c27d88f61d96b0e280339f2ef5c6fc43fe60090dc0d84cdfffffffffe04fbce7c76925055a107fc5d3aa6d60da5b8a2c116d55021da3794cc9cd9bf080000006a47304402203ca2fe2242e6f4bafe791ae2e2474191f73cbd350cc7e11376c9e8f8d0dc81d302201b7ee0ca6d6070842a80611227d22c57b973cbad24f80783dabd18fc24c37a82012103f8d3ec7c2695b492101215c1d8024d1ecc8787deef4f5bb46f49d776973560afffffffff02f5723e00000000001976a914528f409b9e9e23fe2f0d4cbc622698af8bff6b0988acf21e7700000000001976a91401ff8c636fa190b3c59355c6e852721f14c21bc388ac00000000", "vin": [{"sequence": 4294967295, "scriptSig": {"hex": "4730440220351edd980322d77e73349f03698c6a1e689c625fc9e2d0644fe323803a42cc6e0220747857223551bfd8b102f9064388eefeb07ff6b3bb132f74ec1fd34ba64b6cba01210348f333aeb7a50ccf0c27d88f61d96b0e280339f2ef5c6fc43fe60090dc0d84cd", "asm": "30440220351edd980322d77e73349f03698c6a1e689c625fc9e2d0644fe323803a42cc6e0220747857223551bfd8b102f9064388eefeb07ff6b3bb132f74ec1fd34ba64b6cba[ALL] 0348f333aeb7a50ccf0c27d88f61d96b0e280339f2ef5c6fc43fe60090dc0d84cd"}, "vout": 1, "txid": "357ab2dd76bc4657062ceb1609cb4c0214cce63b28f0dffebe89852470920e74"}, {"sequence": 4294967295, "scriptSig": {"hex": "47304402203ca2fe2242e6f4bafe791ae2e2474191f73cbd350cc7e11376c9e8f8d0dc81d302201b7ee0ca6d6070842a80611227d22c57b973cbad24f80783dabd18fc24c37a82012103f8d3ec7c2695b492101215c1d8024d1ecc8787deef4f5bb46f49d776973560af", "asm": "304402203ca2fe2242e6f4bafe791ae2e2474191f73cbd350cc7e11376c9e8f8d0dc81d302201b7ee0ca6d6070842a80611227d22c57b973cbad24f80783dabd18fc24c37a82[ALL] 03f8d3ec7c2695b492101215c1d8024d1ecc8787deef4f5bb46f49d776973560af"}, "vout": 8, "txid": "bfd99ccc9437da2150d516c1a2b8a50dd6a63a5dfc07a1555092767ccefb04fe"}], "txid": "a1a6795a5419ab43e4bbbbc0b1c1c71da08b6aef267227cd1e60001476fc0fae", "blocktime": 1537873282, "version": 1, "confirmations": 11484, "time": 1537873282, "locktime": 0, "vsize": 372, "size": 372}