{"hash": "a1ab5572323d92c2eeeb2e99c1f6d367b05b7bf43aaa162d18ae4295db769bde", "blockhash": "000000000000000000022b45ed06c6f4ccd3cf7fb5ba4856ebd2e58215665228", "vout": [{"scriptPubKey": {"reqSigs": 1, "hex": "76a9143cd075e7cc7c1c758f3602dd80c98f4722a77b1888ac", "addresses": ["16YZGc2xA3G9E1zvYrSg5wV5HRNa5rGLyz"], "asm": "OP_DUP OP_HASH160 3cd075e7cc7c1c758f3602dd80c98f4722a77b18 OP_EQUALVERIFY OP_CHECKSIG", "type": "pubkeyhash"}, "value": 0.000608, "n": 0}, {"scriptPubKey": {"reqSigs": 1, "hex": "76a91404804e0773fa686554b392f4e01180294d07601f88ac", "addresses": ["1QoQYPb5JiKyeK2jj47Rv9YTRGn6FVFCX"], "asm": "OP_DUP OP_HASH160 04804e0773fa686554b392f4e01180294d07601f OP_EQUALVERIFY OP_CHECKSIG", "type": "pubkeyhash"}, "value": 0.064493, "n": 1}], "hex": "0100000001786359befcd856b7ceaae721f62bf7f90a54a32078da13a6f4c24753f09b8fa6010000006b483045022100d933f9716cde5a50c70f2ba699ecc6c918cb414551b361da0a5b3168763d322c0220189c6ab7bde70c3b4fc3dd4a7aadce43600661d5851e0a6fca43c820e8eb43a2012102355ec030075ff36cd91b814894ce05a2ca712f97366a0713ffb58ca01059bb88ffffffff0280ed0000000000001976a9143cd075e7cc7c1c758f3602dd80c98f4722a77b1888ac94686200000000001976a91404804e0773fa686554b392f4e01180294d07601f88ac00000000", "vin": [{"sequence": 4294967295, "scriptSig": {"hex": "483045022100d933f9716cde5a50c70f2ba699ecc6c918cb414551b361da0a5b3168763d322c0220189c6ab7bde70c3b4fc3dd4a7aadce43600661d5851e0a6fca43c820e8eb43a2012102355ec030075ff36cd91b814894ce05a2ca712f97366a0713ffb58ca01059bb88", "asm": "3045022100d933f9716cde5a50c70f2ba699ecc6c918cb414551b361da0a5b3168763d322c0220189c6ab7bde70c3b4fc3dd4a7aadce43600661d5851e0a6fca43c820e8eb43a2[ALL] 02355ec030075ff36cd91b814894ce05a2ca712f97366a0713ffb58ca01059bb88"}, "vout": 1, "txid": "a68f9bf05347c2f4a613da7820a3540af9f72bf621e7aaceb756d8fcbe596378"}], "txid": "a1ab5572323d92c2eeeb2e99c1f6d367b05b7bf43aaa162d18ae4295db769bde", "blocktime": 1537869901, "version": 1, "confirmations": 11522, "time": 1537869901, "locktime": 0, "vsize": 226, "size": 226}