{"hash": "a1badbfae8d7622c3493f37f900f5197c58ac6b9d644b35d16a9b2746dc1c30c", "blockhash": "0000000000000000000dcc0f55137456b1a82d3642486a52398922ac4d620174", "vout": [{"scriptPubKey": {"reqSigs": 1, "hex": "76a91465396be48c57653ed4858ef6cf2284e5cab37e5088ac", "addresses": ["1AEE365eSyTnBHugqZVxW5fwXB2gqrS6Kn"], "asm": "OP_DUP OP_HASH160 65396be48c57653ed4858ef6cf2284e5cab37e50 OP_EQUALVERIFY OP_CHECKSIG", "type": "pubkeyhash"}, "value": 0.00491881, "n": 0}, {"scriptPubKey": {"reqSigs": 1, "hex": "76a914c9dc5bcb4ff37f187886e17ab4dd2fe11b7d001088ac", "addresses": ["1KQLoLiFDEpN3wVvr8x6h5HebhZRkGGYQr"], "asm": "OP_DUP OP_HASH160 c9dc5bcb4ff37f187886e17ab4dd2fe11b7d0010 OP_EQUALVERIFY OP_CHECKSIG", "type": "pubkeyhash"}, "value": 0.14212358, "n": 1}], "hex": "0100000001231cccca2c3786d83f5fbdea701cfd65cca53039b8a6c169742a4e76a27dfcb9010000006a47304402204046f6912e9214010ff21ff10f8a189130880829f872c07f12c3a721459f7ee602205dd6acf51621c10ca48e820cd86fac5d560096a5c452d5515294f40a98df5b9c012103085f66f30dd2976e811c0ef85c12873dc54a777fefe65ac70bdb48469b58e01dffffffff0269810700000000001976a91465396be48c57653ed4858ef6cf2284e5cab37e5088ac06ddd800000000001976a914c9dc5bcb4ff37f187886e17ab4dd2fe11b7d001088ac00000000", "vin": [{"sequence": 4294967295, "scriptSig": {"hex": "47304402204046f6912e9214010ff21ff10f8a189130880829f872c07f12c3a721459f7ee602205dd6acf51621c10ca48e820cd86fac5d560096a5c452d5515294f40a98df5b9c012103085f66f30dd2976e811c0ef85c12873dc54a777fefe65ac70bdb48469b58e01d", "asm": "304402204046f6912e9214010ff21ff10f8a189130880829f872c07f12c3a721459f7ee602205dd6acf51621c10ca48e820cd86fac5d560096a5c452d5515294f40a98df5b9c[ALL] 03085f66f30dd2976e811c0ef85c12873dc54a777fefe65ac70bdb48469b58e01d"}, "vout": 1, "txid": "b9fc7da2764e2a7469c1a6b83930a5cc65fd1c70eabd5f3fd886372ccacc1c23"}], "txid": "a1badbfae8d7622c3493f37f900f5197c58ac6b9d644b35d16a9b2746dc1c30c", "blocktime": 1537870268, "version": 1, "confirmations": 11516, "time": 1537870268, "locktime": 0, "vsize": 225, "size": 225}