{"hash": "a1baee311108fcd0b302de32b3e5b8ee3573950805ae9344c33cc4d0f48d6549", "blockhash": "0000000000000000000baef3f32e3676a92c3b2e5da21b426e4f302fc371ce76", "vout": [{"scriptPubKey": {"reqSigs": 1, "hex": "76a914bbf676c726d241beafc244296f7969827012eec788ac", "addresses": ["1J8rcVPwRjJdi1jhk95AsjMfsLBbP7x7pS"], "asm": "OP_DUP OP_HASH160 bbf676c726d241beafc244296f7969827012eec7 OP_EQUALVERIFY OP_CHECKSIG", "type": "pubkeyhash"}, "value": 0.02635826, "n": 0}, {"scriptPubKey": {"type": "nulldata", "hex": "6a146f6d6e69000000000000001f00000002540be400", "asm": "OP_RETURN 6f6d6e69000000000000001f00000002540be400"}, "value": 0.0, "n": 1}, {"scriptPubKey": {"reqSigs": 1, "hex": "76a91419876be9aa669cb4150b20f60c79636af066263e88ac", "addresses": ["13Kz83qYNxs55WWfMPLJa1tbGXihu5Eyzy"], "asm": "OP_DUP OP_HASH160 19876be9aa669cb4150b20f60c79636af066263e OP_EQUALVERIFY OP_CHECKSIG", "type": "pubkeyhash"}, "value": 5.46e-06, "n": 2}], "hex": "0100000001077a0b4a05b26ab021a18dcd90e6e1981cdd858816600aedee3d8c351c596e40010000006a4730440220047f0ab030943b230887f0201bd857ca3d717f1190c3505f116b325aa8186daa02205e94fc20ee7e3af664881e55ad42c9528dac1d976220a3294bf0fd63f75a51d1012102061af1d6ec220f4ce39a77205368245c29cd0d340edeb4ced8fd2bd0bc788d42ffffffff0332382800000000001976a914bbf676c726d241beafc244296f7969827012eec788ac0000000000000000166a146f6d6e69000000000000001f00000002540be40022020000000000001976a91419876be9aa669cb4150b20f60c79636af066263e88ac00000000", "vin": [{"sequence": 4294967295, "scriptSig": {"hex": "4730440220047f0ab030943b230887f0201bd857ca3d717f1190c3505f116b325aa8186daa02205e94fc20ee7e3af664881e55ad42c9528dac1d976220a3294bf0fd63f75a51d1012102061af1d6ec220f4ce39a77205368245c29cd0d340edeb4ced8fd2bd0bc788d42", "asm": "30440220047f0ab030943b230887f0201bd857ca3d717f1190c3505f116b325aa8186daa02205e94fc20ee7e3af664881e55ad42c9528dac1d976220a3294bf0fd63f75a51d1[ALL] 02061af1d6ec220f4ce39a77205368245c29cd0d340edeb4ced8fd2bd0bc788d42"}, "vout": 1, "txid": "406e591c358c3deeed0a60168885dd1c98e1e690cd8da121b06ab2054a0b7a07"}], "txid": "a1baee311108fcd0b302de32b3e5b8ee3573950805ae9344c33cc4d0f48d6549", "blocktime": 1537876114, "version": 1, "confirmations": 11459, "time": 1537876114, "locktime": 0, "vsize": 256, "size": 256}