{"hash": "a1c00c62d31f85fdf97c69cbed252daedb8c0124b1349dc45d25c044270cb429", "blockhash": "000000000000000000022b45ed06c6f4ccd3cf7fb5ba4856ebd2e58215665228", "vout": [{"scriptPubKey": {"type": "nulldata", "hex": "6a4c500000775f0001f76f0f71b697c2d4765c059d3a016b46dc7dc7d0968d120d670c1906f999d5071489fc5a0da764ec84b34e3d7cba5baa077e06125119424c35b7bc9a9526289ac0f6612cd74e33776ee4", "asm": "OP_RETURN 0000775f0001f76f0f71b697c2d4765c059d3a016b46dc7dc7d0968d120d670c1906f999d5071489fc5a0da764ec84b34e3d7cba5baa077e06125119424c35b7bc9a9526289ac0f6612cd74e33776ee4"}, "value": 0.0, "n": 0}, {"scriptPubKey": {"reqSigs": 1, "hex": "76a91465b77b226056a78bce96eaadef3d718b8e98d42d88ac", "addresses": ["1AGq3rkabRhw5FqGcNkiT9Jy5HBeQbREFN"], "asm": "OP_DUP OP_HASH160 65b77b226056a78bce96eaadef3d718b8e98d42d OP_EQUALVERIFY OP_CHECKSIG", "type": "pubkeyhash"}, "value": 0.00134124, "n": 1}], "hex": "0100000001beb2a6cc0f26711ac63aa98503c36107a05a5486d98137498cf235a8ce6ae0dc000000006b483045022100e520850a436390e79db5c9db025d16403a3c95437b3004e643d8a7f670f391aa0220277607a55e3ab575bbb205c0b686c54baba62cd835a56aab2cd749b0fcf91aee012102c23e3ea9ca465e5d9972ee148fd044e2fa5c93810208d680b12a7b2a9f88d0aaffffffff020000000000000000536a4c500000775f0001f76f0f71b697c2d4765c059d3a016b46dc7dc7d0968d120d670c1906f999d5071489fc5a0da764ec84b34e3d7cba5baa077e06125119424c35b7bc9a9526289ac0f6612cd74e33776ee4ec0b0200000000001976a91465b77b226056a78bce96eaadef3d718b8e98d42d88ac00000000", "vin": [{"sequence": 4294967295, "scriptSig": {"hex": "483045022100e520850a436390e79db5c9db025d16403a3c95437b3004e643d8a7f670f391aa0220277607a55e3ab575bbb205c0b686c54baba62cd835a56aab2cd749b0fcf91aee012102c23e3ea9ca465e5d9972ee148fd044e2fa5c93810208d680b12a7b2a9f88d0aa", "asm": "3045022100e520850a436390e79db5c9db025d16403a3c95437b3004e643d8a7f670f391aa0220277607a55e3ab575bbb205c0b686c54baba62cd835a56aab2cd749b0fcf91aee[ALL] 02c23e3ea9ca465e5d9972ee148fd044e2fa5c93810208d680b12a7b2a9f88d0aa"}, "vout": 0, "txid": "dce06acea835f28c493781d986545aa00761c30385a93ac61a71260fcca6b2be"}], "txid": "a1c00c62d31f85fdf97c69cbed252daedb8c0124b1349dc45d25c044270cb429", "blocktime": 1537869901, "version": 1, "confirmations": 11523, "time": 1537869901, "locktime": 0, "vsize": 284, "size": 284}