{"hash": "a1c2703a9b3a9b237d47be7e1fc22a663022c0e282489da103f2514c42159bf3", "blockhash": "0000000000000000000e13cef7c366c0283d82e591d1acd082e914b08063cdf1", "vout": [{"scriptPubKey": {"reqSigs": 1, "hex": "a91488d93fabd274152ea7586eae992cdb599346e0f187", "addresses": ["3EAc5LZY9xSCaafyhMSjfAPKuCVG64QJJA"], "asm": "OP_HASH160 88d93fabd274152ea7586eae992cdb599346e0f1 OP_EQUAL", "type": "scripthash"}, "value": 0.0194137, "n": 0}, {"scriptPubKey": {"reqSigs": 1, "hex": "a914a3042e88d988a20571087b521c1211312ccbd4c887", "addresses": ["3GYy5NEmefmCajHU2fJ5zrZokiDUvWk19K"], "asm": "OP_HASH160 a3042e88d988a20571087b521c1211312ccbd4c8 OP_EQUAL", "type": "scripthash"}, "value": 0.08045432, "n": 1}], "hex": "01000000043ac93e98d958c816374a785761072383ae34703436eeb6c53ef4b3c4f70e13fe01000000fd880100473044022063d55e03735975a1cf56c2bdaee61b7fe27f3a9ca61c1c3a0786552fc996b33d0220215d4be23ba011e9f0a61ed7b12ef12e058190aa18638d01ffe6f96561f19b43014730440220294005d928cb4c9ea037ec60ae99d7d85b293aec365a526895993968300f1aab02205f46722eb5e47ec053c516e1ba50055fa9e1ccb940b3ca88601965d11ddabae70147304402204384c2d65767951e1da79e7f129649763c83545405832118f44b6a7f6ceeecca022065c916f44273f8f153e9edb271aa4a18ae81242f2b234a949debb674c1999f39014cad5321022e3768e84b83aa63f4457a6a9b7596312d7316b490b90da5165aa1f4f6c606f4210314726b42643edd132159bdd95bc3692d7a520128a71f48a933eac08cb9b8323921032f36c5a0bdef6afed9b157230ae62b9acf3b27b15d29aa0d6b27c22e0f43a6fb21039039e5fa1125029369ebf489c4a82cf4048cc96995de58cf95cc853aa755883c2103b45654c2a2ca41e3b8e0067088feb0563f47f4f2becbb585f240cd9786c0015455aeffffffff55531e77148ff543f7ad88c30da3ef06707753d3846b533a9b9dbd46b4e9529800000000fd890100483045022100d1b9b052aacaa02d2397cdd58329aa6a75f714d3e5bdd1244c30947061b601de02202f656d8d7eaee7bfdf076d35b64b933272e76322c21958c0753473500c26b57c0147304402202bdcafcd3ecbd4a7c8faf913c8bb0eb59ac2c29ed20b264f5add938ada8985e10220331d210128da0a057692b829936f9703d1f72e57ee8639659e9d16cdbf4cc32101473044022027cccb2954a9c7afb515fb41c086aef69a661e20b7037aa5fb7cc8c44ff6ba9302204fdf22c2a33147bff7395182d30576aaa6cf5acf5a4eea581ee8b8bde66df065014cad5321024ec9602c17e97ec55939b21830fa348986bc8e39133767537717ace2af40db0721028c0202c0668406e71779a1c2b158040b3827599a3127f139ffaa19d46b7395392102d501e6757279dee7db3d2923f5eec676dea15bde7b7cc67f69460c204cf3c439210338ee2247e90c44132c4acd0667ec999ec1930e10def2d3e98adb0539fe8957b2210377a77623f7d6c87f5dff83c42be14d7b1541bbfe41bf97984d064b2061bec9d255aeffffffffa498523b0fd7e0a733d508b0ca3feaeff381f39c052677385526938ca23994e400000000fd8a010047304402202b766ba94343920280fc37697609c17e757c1994ab3c1b64361669b56605047302204e6f31a5829df38b29a64ec6d36ca024b5bd771cbc6c8e64455dc46555e31f4c01483045022100a58dae93807431a9b16227237c4a8f2953f5ed7a4f547e9bfe164ecb2bb2ae9d02200afa64c11f6d4fc2a013299154f1f27957a729de847684571ca9425b7ce475ef014830450221009f5bd363bfd252bd9bd1d22efad9ce3803731bbe92b26c625f3321d17be682480220456213123b5987b71aedf98d437c20c41b5bd2b78a1500f4ec20073ec7e62d6b014cad5321020dacc51bd85be0a6284d423054cabe831c16c21e6be4f23195440719846992ee210238cd797903abcdc5317bc295fbcb2ca3336352d1318a419adb53f3148020e5ca21029ef723393576e0073e31fba3775f10629a88a9042dd237ab9a7aefe0e8b655c22103310b068bf17af2be66393335325cfe889699dab509f8f2bccedb1474cc7befc821035b77c5f8b2af3a628a1c67cb251d95945a65249313ea1f6b3be4a772fba33ba355aeffffffffef9202504b6cf7389ceae48bb1b08a1e8b5d9d9c4d030979e29a8de87264a0ee00000000fd8b010048304502210088316cf50ac5d38e61e1b216f4fa017541671743aaab3fd28de7f175ca01089f02202e9b42b4f3256ccacfe2f17fad46bd358ab2c85b4128caf9f94d39cb606dadc301483045022100f92eb3329baa4f2ef167b73ca2bd74e53702403baaed2b955fab7b92b6408b5d022000b729e666c3c2e7cea20833521f804acc7e08653cf9b5e767ebb8780839651b01483045022100e57e47e1bf47d9b0f48532b966860aa32ec85d835aa59f8ca88cb9a4b72a38130220157196f08db59a1f21729e10fac033cc1c1dfd1931c09bd2906f058b56353152014cad5321021c2f8c37193a727010da67b2f98c021cbbd044f712e19323072a4093037866f321023f8f3f78774c14542f107a533ac60682cf76eacda5152bd881c7aed5a2e27fa7210287d88e12545747e163b203466a158bbe362b833abdf468739538e9b1b05af89c2103af82728121f2c97c4d6f4c885173128f3ebc74eafb847aee597bd1444f995e112103c894885afc5a4c2aee6d78bd3790ccc6256b47be2a81043b9b596daa7aa1047655aeffffffff027a9f1d000000000017a91488d93fabd274152ea7586eae992cdb599346e0f18778c37a000000000017a914a3042e88d988a20571087b521c1211312ccbd4c88700000000", "vin": [{"sequence": 4294967295, "scriptSig": {"hex": "00473044022063d55e03735975a1cf56c2bdaee61b7fe27f3a9ca61c1c3a0786552fc996b33d0220215d4be23ba011e9f0a61ed7b12ef12e058190aa18638d01ffe6f96561f19b43014730440220294005d928cb4c9ea037ec60ae99d7d85b293aec365a526895993968300f1aab02205f46722eb5e47ec053c516e1ba50055fa9e1ccb940b3ca88601965d11ddabae70147304402204384c2d65767951e1da79e7f129649763c83545405832118f44b6a7f6ceeecca022065c916f44273f8f153e9edb271aa4a18ae81242f2b234a949debb674c1999f39014cad5321022e3768e84b83aa63f4457a6a9b7596312d7316b490b90da5165aa1f4f6c606f4210314726b42643edd132159bdd95bc3692d7a520128a71f48a933eac08cb9b8323921032f36c5a0bdef6afed9b157230ae62b9acf3b27b15d29aa0d6b27c22e0f43a6fb21039039e5fa1125029369ebf489c4a82cf4048cc96995de58cf95cc853aa755883c2103b45654c2a2ca41e3b8e0067088feb0563f47f4f2becbb585f240cd9786c0015455ae", "asm": "0 3044022063d55e03735975a1cf56c2bdaee61b7fe27f3a9ca61c1c3a0786552fc996b33d0220215d4be23ba011e9f0a61ed7b12ef12e058190aa18638d01ffe6f96561f19b43[ALL] 30440220294005d928cb4c9ea037ec60ae99d7d85b293aec365a526895993968300f1aab02205f46722eb5e47ec053c516e1ba50055fa9e1ccb940b3ca88601965d11ddabae7[ALL] 304402204384c2d65767951e1da79e7f129649763c83545405832118f44b6a7f6ceeecca022065c916f44273f8f153e9edb271aa4a18ae81242f2b234a949debb674c1999f39[ALL] 5321022e3768e84b83aa63f4457a6a9b7596312d7316b490b90da5165aa1f4f6c606f4210314726b42643edd132159bdd95bc3692d7a520128a71f48a933eac08cb9b8323921032f36c5a0bdef6afed9b157230ae62b9acf3b27b15d29aa0d6b27c22e0f43a6fb21039039e5fa1125029369ebf489c4a82cf4048cc96995de58cf95cc853aa755883c2103b45654c2a2ca41e3b8e0067088feb0563f47f4f2becbb585f240cd9786c0015455ae"}, "vout": 1, "txid": "fe130ef7c4b3f43ec5b6ee36347034ae8323076157784a3716c858d9983ec93a"}, {"sequence": 4294967295, "scriptSig": {"hex": "00483045022100d1b9b052aacaa02d2397cdd58329aa6a75f714d3e5bdd1244c30947061b601de02202f656d8d7eaee7bfdf076d35b64b933272e76322c21958c0753473500c26b57c0147304402202bdcafcd3ecbd4a7c8faf913c8bb0eb59ac2c29ed20b264f5add938ada8985e10220331d210128da0a057692b829936f9703d1f72e57ee8639659e9d16cdbf4cc32101473044022027cccb2954a9c7afb515fb41c086aef69a661e20b7037aa5fb7cc8c44ff6ba9302204fdf22c2a33147bff7395182d30576aaa6cf5acf5a4eea581ee8b8bde66df065014cad5321024ec9602c17e97ec55939b21830fa348986bc8e39133767537717ace2af40db0721028c0202c0668406e71779a1c2b158040b3827599a3127f139ffaa19d46b7395392102d501e6757279dee7db3d2923f5eec676dea15bde7b7cc67f69460c204cf3c439210338ee2247e90c44132c4acd0667ec999ec1930e10def2d3e98adb0539fe8957b2210377a77623f7d6c87f5dff83c42be14d7b1541bbfe41bf97984d064b2061bec9d255ae", "asm": "0 3045022100d1b9b052aacaa02d2397cdd58329aa6a75f714d3e5bdd1244c30947061b601de02202f656d8d7eaee7bfdf076d35b64b933272e76322c21958c0753473500c26b57c[ALL] 304402202bdcafcd3ecbd4a7c8faf913c8bb0eb59ac2c29ed20b264f5add938ada8985e10220331d210128da0a057692b829936f9703d1f72e57ee8639659e9d16cdbf4cc321[ALL] 3044022027cccb2954a9c7afb515fb41c086aef69a661e20b7037aa5fb7cc8c44ff6ba9302204fdf22c2a33147bff7395182d30576aaa6cf5acf5a4eea581ee8b8bde66df065[ALL] 5321024ec9602c17e97ec55939b21830fa348986bc8e39133767537717ace2af40db0721028c0202c0668406e71779a1c2b158040b3827599a3127f139ffaa19d46b7395392102d501e6757279dee7db3d2923f5eec676dea15bde7b7cc67f69460c204cf3c439210338ee2247e90c44132c4acd0667ec999ec1930e10def2d3e98adb0539fe8957b2210377a77623f7d6c87f5dff83c42be14d7b1541bbfe41bf97984d064b2061bec9d255ae"}, "vout": 0, "txid": "9852e9b446bd9d9b3a536b84d353777006efa30dc388adf743f58f14771e5355"}, {"sequence": 4294967295, "scriptSig": {"hex": "0047304402202b766ba94343920280fc37697609c17e757c1994ab3c1b64361669b56605047302204e6f31a5829df38b29a64ec6d36ca024b5bd771cbc6c8e64455dc46555e31f4c01483045022100a58dae93807431a9b16227237c4a8f2953f5ed7a4f547e9bfe164ecb2bb2ae9d02200afa64c11f6d4fc2a013299154f1f27957a729de847684571ca9425b7ce475ef014830450221009f5bd363bfd252bd9bd1d22efad9ce3803731bbe92b26c625f3321d17be682480220456213123b5987b71aedf98d437c20c41b5bd2b78a1500f4ec20073ec7e62d6b014cad5321020dacc51bd85be0a6284d423054cabe831c16c21e6be4f23195440719846992ee210238cd797903abcdc5317bc295fbcb2ca3336352d1318a419adb53f3148020e5ca21029ef723393576e0073e31fba3775f10629a88a9042dd237ab9a7aefe0e8b655c22103310b068bf17af2be66393335325cfe889699dab509f8f2bccedb1474cc7befc821035b77c5f8b2af3a628a1c67cb251d95945a65249313ea1f6b3be4a772fba33ba355ae", "asm": "0 304402202b766ba94343920280fc37697609c17e757c1994ab3c1b64361669b56605047302204e6f31a5829df38b29a64ec6d36ca024b5bd771cbc6c8e64455dc46555e31f4c[ALL] 3045022100a58dae93807431a9b16227237c4a8f2953f5ed7a4f547e9bfe164ecb2bb2ae9d02200afa64c11f6d4fc2a013299154f1f27957a729de847684571ca9425b7ce475ef[ALL] 30450221009f5bd363bfd252bd9bd1d22efad9ce3803731bbe92b26c625f3321d17be682480220456213123b5987b71aedf98d437c20c41b5bd2b78a1500f4ec20073ec7e62d6b[ALL] 5321020dacc51bd85be0a6284d423054cabe831c16c21e6be4f23195440719846992ee210238cd797903abcdc5317bc295fbcb2ca3336352d1318a419adb53f3148020e5ca21029ef723393576e0073e31fba3775f10629a88a9042dd237ab9a7aefe0e8b655c22103310b068bf17af2be66393335325cfe889699dab509f8f2bccedb1474cc7befc821035b77c5f8b2af3a628a1c67cb251d95945a65249313ea1f6b3be4a772fba33ba355ae"}, "vout": 0, "txid": "e49439a28c932655387726059cf381f3efea3fcab008d533a7e0d70f3b5298a4"}, {"sequence": 4294967295, "scriptSig": {"hex": "0048304502210088316cf50ac5d38e61e1b216f4fa017541671743aaab3fd28de7f175ca01089f02202e9b42b4f3256ccacfe2f17fad46bd358ab2c85b4128caf9f94d39cb606dadc301483045022100f92eb3329baa4f2ef167b73ca2bd74e53702403baaed2b955fab7b92b6408b5d022000b729e666c3c2e7cea20833521f804acc7e08653cf9b5e767ebb8780839651b01483045022100e57e47e1bf47d9b0f48532b966860aa32ec85d835aa59f8ca88cb9a4b72a38130220157196f08db59a1f21729e10fac033cc1c1dfd1931c09bd2906f058b56353152014cad5321021c2f8c37193a727010da67b2f98c021cbbd044f712e19323072a4093037866f321023f8f3f78774c14542f107a533ac60682cf76eacda5152bd881c7aed5a2e27fa7210287d88e12545747e163b203466a158bbe362b833abdf468739538e9b1b05af89c2103af82728121f2c97c4d6f4c885173128f3ebc74eafb847aee597bd1444f995e112103c894885afc5a4c2aee6d78bd3790ccc6256b47be2a81043b9b596daa7aa1047655ae", "asm": "0 304502210088316cf50ac5d38e61e1b216f4fa017541671743aaab3fd28de7f175ca01089f02202e9b42b4f3256ccacfe2f17fad46bd358ab2c85b4128caf9f94d39cb606dadc3[ALL] 3045022100f92eb3329baa4f2ef167b73ca2bd74e53702403baaed2b955fab7b92b6408b5d022000b729e666c3c2e7cea20833521f804acc7e08653cf9b5e767ebb8780839651b[ALL] 3045022100e57e47e1bf47d9b0f48532b966860aa32ec85d835aa59f8ca88cb9a4b72a38130220157196f08db59a1f21729e10fac033cc1c1dfd1931c09bd2906f058b56353152[ALL] 5321021c2f8c37193a727010da67b2f98c021cbbd044f712e19323072a4093037866f321023f8f3f78774c14542f107a533ac60682cf76eacda5152bd881c7aed5a2e27fa7210287d88e12545747e163b203466a158bbe362b833abdf468739538e9b1b05af89c2103af82728121f2c97c4d6f4c885173128f3ebc74eafb847aee597bd1444f995e112103c894885afc5a4c2aee6d78bd3790ccc6256b47be2a81043b9b596daa7aa1047655ae"}, "vout": 0, "txid": "eea06472e88d9ae27909034d9c9d5d8b1e8ab0b18be4ea9c38f76c4b500292ef"}], "txid": "a1c2703a9b3a9b237d47be7e1fc22a663022c0e282489da103f2514c42159bf3", "blocktime": 1537871767, "version": 1, "confirmations": 11494, "time": 1537871767, "locktime": 0, "vsize": 1820, "size": 1820}