{"hash": "a1c7f634381e15efb0536ad7d746d3482656d2a863cd82dab6bfc32aeb8c9428", "blockhash": "0000000000000000001f0ddff1eddb255c1121bcd4da4f1bc9a0da00cae72433", "vout": [{"scriptPubKey": {"reqSigs": 1, "hex": "76a914299bcd33076c0038e77b6631f6253266dfaae2df88ac", "addresses": ["14o1M9YD7hmwy4YrJpsrURm1Kzt6gXXSBj"], "asm": "OP_DUP OP_HASH160 299bcd33076c0038e77b6631f6253266dfaae2df OP_EQUALVERIFY OP_CHECKSIG", "type": "pubkeyhash"}, "value": 0.00096885, "n": 0}, {"scriptPubKey": {"reqSigs": 1, "hex": "76a91421617b2cf414f9ede805747a58f5d41b5a1f9c3088ac", "addresses": ["143W5SWPnZrRPRCvr82KyBGAbTx9HUgnFQ"], "asm": "OP_DUP OP_HASH160 21617b2cf414f9ede805747a58f5d41b5a1f9c30 OP_EQUALVERIFY OP_CHECKSIG", "type": "pubkeyhash"}, "value": 0.004649, "n": 1}], "hex": "0100000002f6ac873932ee65f91530c1cbb98d30b3e88ec707bea76adeb7e6481dc81b8248000000006a473044022031ee013e9de754294f6b4d78e5cf8e5b236b756c0af1f95878c5c2f192a475b20220010b4b219e89d09db10eeb291f43a69a35a112fdf674b532cee515d981dacbf60121037300710d5c5ebb33aba33282e565fc4b94650b8b97bf2bf966f23fe0e6d74325fdffffff65fe6f31f7dee687cd74d519bdd99b398650321dcd4d8a47d5a208552d82e393000000006b48304502210094d60067ea6d86d4f3830e7dcef78ad7b0154652d44d02c25159be2064a2c07b022023c9e7e326d45407c69e05f37ddb686c150fc40f2dedc08cbdca25f5e571a7f9012103bcffb6e6943e2f60758e7ba0f7a6f10e768deca4bd1f409c61b554fc119ffd16fdffffff02757a0100000000001976a914299bcd33076c0038e77b6631f6253266dfaae2df88ac04180700000000001976a91421617b2cf414f9ede805747a58f5d41b5a1f9c3088ac10490800", "vin": [{"sequence": 4294967293, "scriptSig": {"hex": "473044022031ee013e9de754294f6b4d78e5cf8e5b236b756c0af1f95878c5c2f192a475b20220010b4b219e89d09db10eeb291f43a69a35a112fdf674b532cee515d981dacbf60121037300710d5c5ebb33aba33282e565fc4b94650b8b97bf2bf966f23fe0e6d74325", "asm": "3044022031ee013e9de754294f6b4d78e5cf8e5b236b756c0af1f95878c5c2f192a475b20220010b4b219e89d09db10eeb291f43a69a35a112fdf674b532cee515d981dacbf6[ALL] 037300710d5c5ebb33aba33282e565fc4b94650b8b97bf2bf966f23fe0e6d74325"}, "vout": 0, "txid": "48821bc81d48e6b7de6aa7be07c78ee8b3308db9cbc13015f965ee323987acf6"}, {"sequence": 4294967293, "scriptSig": {"hex": "48304502210094d60067ea6d86d4f3830e7dcef78ad7b0154652d44d02c25159be2064a2c07b022023c9e7e326d45407c69e05f37ddb686c150fc40f2dedc08cbdca25f5e571a7f9012103bcffb6e6943e2f60758e7ba0f7a6f10e768deca4bd1f409c61b554fc119ffd16", "asm": "304502210094d60067ea6d86d4f3830e7dcef78ad7b0154652d44d02c25159be2064a2c07b022023c9e7e326d45407c69e05f37ddb686c150fc40f2dedc08cbdca25f5e571a7f9[ALL] 03bcffb6e6943e2f60758e7ba0f7a6f10e768deca4bd1f409c61b554fc119ffd16"}, "vout": 0, "txid": "93e3822d5508a2d5478a4dcd1d325086399bd9bd19d574cd87e6def7316ffe65"}], "txid": "a1c7f634381e15efb0536ad7d746d3482656d2a863cd82dab6bfc32aeb8c9428", "blocktime": 1537872018, "version": 1, "confirmations": 11489, "time": 1537872018, "locktime": 542992, "vsize": 373, "size": 373}