{"hash": "a1c94d8536d0bbc3c4e3b6bc7a553b457c2a88b85709ab4a02ce0b29d57281bf", "blockhash": "0000000000000000000baef3f32e3676a92c3b2e5da21b426e4f302fc371ce76", "vout": [{"scriptPubKey": {"type": "nulldata", "hex": "6a146f6d6e69000000000000001f000000120c809e18", "asm": "OP_RETURN 6f6d6e69000000000000001f000000120c809e18"}, "value": 0.0, "n": 0}, {"scriptPubKey": {"reqSigs": 1, "hex": "76a9140ea2c16f9786cdfea33384770c72f226ae93ef3f88ac", "addresses": ["12LPS9L3BtpHJxCw7CBABQHFsKc7wFRjAR"], "asm": "OP_DUP OP_HASH160 0ea2c16f9786cdfea33384770c72f226ae93ef3f OP_EQUALVERIFY OP_CHECKSIG", "type": "pubkeyhash"}, "value": 0.36163857, "n": 1}, {"scriptPubKey": {"reqSigs": 1, "hex": "76a9143fc1ff08ccd783dee8ed6babc75f1f6f174c802888ac", "addresses": ["16p7yBQzFsLkcZRz4TXm7yqjDerM1oTYPi"], "asm": "OP_DUP OP_HASH160 3fc1ff08ccd783dee8ed6babc75f1f6f174c8028 OP_EQUALVERIFY OP_CHECKSIG", "type": "pubkeyhash"}, "value": 5.46e-06, "n": 2}], "hex": "01000000016f3a68b426e9200750d32497196bcab9544549e7a2937a34e56618d9f0db351b000000006a47304402206dbe78a245e05a6262533c4908af70b5defd46e703c3a3a4b4801da4d9ad2a450220511a1b000a999a57e1e454e1776e34d3f6b33b3fe54b2d5c4ece2a8aaa5e1e7001210242604bdd2261b6188326b9f490e074dda990f5bb746eb9716e491b86b498f4c5feffffff030000000000000000166a146f6d6e69000000000000001f000000120c809e1811d12702000000001976a9140ea2c16f9786cdfea33384770c72f226ae93ef3f88ac22020000000000001976a9143fc1ff08ccd783dee8ed6babc75f1f6f174c802888ac16490800", "vin": [{"sequence": 4294967294, "scriptSig": {"hex": "47304402206dbe78a245e05a6262533c4908af70b5defd46e703c3a3a4b4801da4d9ad2a450220511a1b000a999a57e1e454e1776e34d3f6b33b3fe54b2d5c4ece2a8aaa5e1e7001210242604bdd2261b6188326b9f490e074dda990f5bb746eb9716e491b86b498f4c5", "asm": "304402206dbe78a245e05a6262533c4908af70b5defd46e703c3a3a4b4801da4d9ad2a450220511a1b000a999a57e1e454e1776e34d3f6b33b3fe54b2d5c4ece2a8aaa5e1e70[ALL] 0242604bdd2261b6188326b9f490e074dda990f5bb746eb9716e491b86b498f4c5"}, "vout": 0, "txid": "1b35dbf0d91866e5347a93a2e7494554b9ca6b199724d3500720e926b4683a6f"}], "txid": "a1c94d8536d0bbc3c4e3b6bc7a553b457c2a88b85709ab4a02ce0b29d57281bf", "blocktime": 1537876114, "version": 1, "confirmations": 11460, "time": 1537876114, "locktime": 542998, "vsize": 256, "size": 256}