{"hash": "9d72d5795a03ef6d69dc962a16016dcd999cd1c8c92d5fc6d777faea5d67e1c9", "blockhash": "0000000000000000001cda96e906b7601b7a6fb1a3b62bca570a9e5d8f4b3de1", "vout": [{"scriptPubKey": {"reqSigs": 1, "hex": "a9148c903290495d5980f43cb26d5d2b72bef2088b0687", "addresses": ["3EWFGRFZu5dbE7xVVwKX922kbzx5hLUZye"], "asm": "OP_HASH160 8c903290495d5980f43cb26d5d2b72bef2088b06 OP_EQUAL", "type": "scripthash"}, "value": 1.0, "n": 0}, {"scriptPubKey": {"reqSigs": 1, "hex": "a914d0a277100a011587a1b54c7dd3a3ffbd508e208787", "addresses": ["3LiB6iXKUYeQFEe9PWbo163zuAdHvS31E2"], "asm": "OP_HASH160 d0a277100a011587a1b54c7dd3a3ffbd508e2087 OP_EQUAL", "type": "scripthash"}, "value": 4.92155149, "n": 1}], "hex": "010000000001018473012896a44aea2d26fa0dc974a644c362b3ceaccb65484ffe8e99687b73130100000017160014d342b83cb84b20163384ad4cea1ef0baa4c3b444ffffffff0200e1f5050000000017a9148c903290495d5980f43cb26d5d2b72bef2088b06870db1551d0000000017a914d0a277100a011587a1b54c7dd3a3ffbd508e208787024730440220581572396c673aa986d354be6596abc5355f64be927f4fe7c940d25c647a90f002205ce81090b0567a84d4bdb3babf9d5b301304760a3ba76c5ebb41ab2c9243c663012102304557a7593bb0971f156c0280ebff2848b252f3ef4c9bc52b4a931e8edee30400000000", "vin": [{"txinwitness": ["30440220581572396c673aa986d354be6596abc5355f64be927f4fe7c940d25c647a90f002205ce81090b0567a84d4bdb3babf9d5b301304760a3ba76c5ebb41ab2c9243c66301", "02304557a7593bb0971f156c0280ebff2848b252f3ef4c9bc52b4a931e8edee304"], "sequence": 4294967295, "scriptSig": {"hex": "160014d342b83cb84b20163384ad4cea1ef0baa4c3b444", "asm": "0014d342b83cb84b20163384ad4cea1ef0baa4c3b444"}, "vout": 1, "txid": "13737b68998efe4f4865cbacceb362c344a674c90dfa262dea4aa49628017384"}], "txid": "a1c949a33eb0a5b5c75721b6fb78b0cd06d5f2678cd816ba5841bf9152938922", "blocktime": 1537873282, "version": 1, "confirmations": 11485, "time": 1537873282, "locktime": 0, "vsize": 166, "size": 247}