{"hash": "a1ca01a12b887f3dc71cca3b76609e0b985721d736b76eb9967223773568a493", "blockhash": "0000000000000000001e0dab787dd257d1dbfcb92a98c2207d5e1078be1f4165", "vout": [{"scriptPubKey": {"reqSigs": 1, "hex": "76a9146eb9555fd5bf86153ba2c06478aee35670322a2788ac", "addresses": ["1B6TMJJFgWSrdaTXSGNmdw3PGnteN2XtVo"], "asm": "OP_DUP OP_HASH160 6eb9555fd5bf86153ba2c06478aee35670322a27 OP_EQUALVERIFY OP_CHECKSIG", "type": "pubkeyhash"}, "value": 0.03594439, "n": 0}, {"scriptPubKey": {"reqSigs": 1, "hex": "0014879e17c71fcea9657aec2b24ee956fcd8e91a3e6", "addresses": ["bc1qs70p03cle65k27hv9vjwa9t0ek8frglx8a6jhk"], "asm": "0 879e17c71fcea9657aec2b24ee956fcd8e91a3e6", "type": "witness_v0_keyhash"}, "value": 0.01536623, "n": 1}], "hex": "01000000016e2277552fad27a62638b2c238346b698d1077cc1752dd04577f4070a78a50d3250000006b483045022100a01bfb5f436b5360ded182b052617d9e7bb5d07e622c80ec929aecbf57d8424802201e541fe62cfde79569b4e8d1ff446476f0b54f970ca7e729fc5d4996e81f5373012103930a034b7eee695842e537751a112cc1bbd708efd5c90011bd4e7b9223630e10ffffffff02c7d83600000000001976a9146eb9555fd5bf86153ba2c06478aee35670322a2788ac6f72170000000000160014879e17c71fcea9657aec2b24ee956fcd8e91a3e600000000", "vin": [{"sequence": 4294967295, "scriptSig": {"hex": "483045022100a01bfb5f436b5360ded182b052617d9e7bb5d07e622c80ec929aecbf57d8424802201e541fe62cfde79569b4e8d1ff446476f0b54f970ca7e729fc5d4996e81f5373012103930a034b7eee695842e537751a112cc1bbd708efd5c90011bd4e7b9223630e10", "asm": "3045022100a01bfb5f436b5360ded182b052617d9e7bb5d07e622c80ec929aecbf57d8424802201e541fe62cfde79569b4e8d1ff446476f0b54f970ca7e729fc5d4996e81f5373[ALL] 03930a034b7eee695842e537751a112cc1bbd708efd5c90011bd4e7b9223630e10"}, "vout": 37, "txid": "d3508aa770407f5704dd5217cc77108d696b3438c2b23826a627ad2f5577226e"}], "txid": "a1ca01a12b887f3dc71cca3b76609e0b985721d736b76eb9967223773568a493", "blocktime": 1537872475, "version": 1, "confirmations": 11487, "time": 1537872475, "locktime": 0, "vsize": 223, "size": 223}