{"hash": "dd03784adf0378637efe61ec6199fea9686fb72e41e028b5e2e46a6522debb44", "blockhash": "0000000000000000001e0dab787dd257d1dbfcb92a98c2207d5e1078be1f4165", "vout": [{"scriptPubKey": {"reqSigs": 1, "hex": "76a9147596bd3ba1e9c09b1d23e0d03f66f57bc5c24f5688ac", "addresses": ["1BikdzEWfE9cwJraekyoWnv6tfHkEi7PWQ"], "asm": "OP_DUP OP_HASH160 7596bd3ba1e9c09b1d23e0d03f66f57bc5c24f56 OP_EQUALVERIFY OP_CHECKSIG", "type": "pubkeyhash"}, "value": 1e-05, "n": 0}, {"scriptPubKey": {"reqSigs": 1, "hex": "00149566f7206bcaa6a4956b00d485e36e3fa8299b3c", "addresses": ["bc1qj4n0wgrte2n2f9ttqr2gtcmw875znxeupra2yn"], "asm": "0 9566f7206bcaa6a4956b00d485e36e3fa8299b3c", "type": "witness_v0_keyhash"}, "value": 0.01230812, "n": 1}], "hex": "020000000001018d2e595f3eaf3dd09f570e881a070032349138a2a35dc73618005b0aeb602bd30100000000feffffff02e8030000000000001976a9147596bd3ba1e9c09b1d23e0d03f66f57bc5c24f5688acdcc71200000000001600149566f7206bcaa6a4956b00d485e36e3fa8299b3c0247304402200aab981b80b13d1375be428ad4535e15bb4ad18a46cf564bfbe02bd36446cf46022043408a2227294434fa1981ef907cd2c791ea2eec1c2188cc84c12ca7ab8f210a012102759c2d2b423cdc0f6b3533edf0fc15fd2682bcda362961a5bfb683235595295e12490800", "vin": [{"txinwitness": ["304402200aab981b80b13d1375be428ad4535e15bb4ad18a46cf564bfbe02bd36446cf46022043408a2227294434fa1981ef907cd2c791ea2eec1c2188cc84c12ca7ab8f210a01", "02759c2d2b423cdc0f6b3533edf0fc15fd2682bcda362961a5bfb683235595295e"], "sequence": 4294967294, "scriptSig": {"hex": "", "asm": ""}, "vout": 1, "txid": "d32b60eb0a5b001836c75da3a23891343200071a880e579fd03daf3e5f592e8d"}], "txid": "a1d0e6c5d42354dc7b39b38521cd803ed03233e4454df8a6a271fb70874a4c28", "blocktime": 1537872475, "version": 2, "confirmations": 11487, "time": 1537872475, "locktime": 542994, "vsize": 144, "size": 225}