{"hash": "6f6a1d2f10ccd2dab314854696d0e1ec63e1dff0c42f70aea3e4f918f468057f", "blockhash": "0000000000000000000e13cef7c366c0283d82e591d1acd082e914b08063cdf1", "vout": [{"scriptPubKey": {"reqSigs": 1, "hex": "a91417108fa219cbf720d743f6499663e3589fb73c6587", "addresses": ["33nyJe1ma3ZQEAXsM456rAiRNirPoKiWdQ"], "asm": "OP_HASH160 17108fa219cbf720d743f6499663e3589fb73c65 OP_EQUAL", "type": "scripthash"}, "value": 0.05816278, "n": 0}, {"scriptPubKey": {"reqSigs": 1, "hex": "a9149351095aedf2a48329d81da7bb7578cf8519754b87", "addresses": ["3F7xLG4tV7ZpdQLZv9z5iommyVkyka7WQD"], "asm": "OP_HASH160 9351095aedf2a48329d81da7bb7578cf8519754b OP_EQUAL", "type": "scripthash"}, "value": 0.13290553, "n": 1}], "hex": "0100000000010187e128c26aed4563eb6649f9833aba7f009ecf36a5e3919f49f88b2a8369654c00000000232200200ada15d67a7402227acfe50edf23095d1a37f812cf4d02dc7977603f361205cfffffffff02d6bf58000000000017a91417108fa219cbf720d743f6499663e3589fb73c658739ccca000000000017a9149351095aedf2a48329d81da7bb7578cf8519754b87040047304402202b2272d5a2068cc7f8cfd1e5042dc6cf21958ff17a3d3acf1e8b81a5020caf9b02203500e880d214a9b63200063faae98389324c40cfda748cf26903b594d657a9bf01473044022052d0ba1652d3a58feaccc401a1c8c250d0ad331e0fb5607e9b83b5d595b76f9102201f300736d38b523c0367053a2da36579510e6fa74da4270ab3f78d610c5ee19b01695221020a5af886bfd2790d63be7a3b14d3fc42e0c9182bb5bd5289aa1cd473849b634b2102f9a6b0f7d98230d26c8dba65b69b6153f5fe7b53806c5e367720a5f611155d3c21038fa6c18a3bbaf0b29de584d840a41f2cbe3d91871cc6bb290b9b7728eb80663153ae11490800", "vin": [{"txinwitness": ["", "304402202b2272d5a2068cc7f8cfd1e5042dc6cf21958ff17a3d3acf1e8b81a5020caf9b02203500e880d214a9b63200063faae98389324c40cfda748cf26903b594d657a9bf01", "3044022052d0ba1652d3a58feaccc401a1c8c250d0ad331e0fb5607e9b83b5d595b76f9102201f300736d38b523c0367053a2da36579510e6fa74da4270ab3f78d610c5ee19b01", "5221020a5af886bfd2790d63be7a3b14d3fc42e0c9182bb5bd5289aa1cd473849b634b2102f9a6b0f7d98230d26c8dba65b69b6153f5fe7b53806c5e367720a5f611155d3c21038fa6c18a3bbaf0b29de584d840a41f2cbe3d91871cc6bb290b9b7728eb80663153ae"], "sequence": 4294967295, "scriptSig": {"hex": "2200200ada15d67a7402227acfe50edf23095d1a37f812cf4d02dc7977603f361205cf", "asm": "00200ada15d67a7402227acfe50edf23095d1a37f812cf4d02dc7977603f361205cf"}, "vout": 0, "txid": "4c6569832a8bf8499f91e3a536cf9e007fba3a83f94966eb6345ed6ac228e187"}], "txid": "a1d0607c96ade1ab6cce514ea8b1291c4984271ccc6743dd52b4111df48a0ba0", "blocktime": 1537871767, "version": 1, "confirmations": 11494, "time": 1537871767, "locktime": 542993, "vsize": 214, "size": 404}