{"hash": "1aed82a1d37827b8f5119a4c8fa9fe45a5ac1a1fa2ec5a3e4471586ea5706106", "blockhash": "0000000000000000001e0dab787dd257d1dbfcb92a98c2207d5e1078be1f4165", "vout": [{"scriptPubKey": {"reqSigs": 1, "hex": "a914d18c7affb55a93976e333adef5e2380aa518301287", "addresses": ["3Lo1SPaWdbSobtMQyDQGszDd4wdrdYCbpN"], "asm": "OP_HASH160 d18c7affb55a93976e333adef5e2380aa5183012 OP_EQUAL", "type": "scripthash"}, "value": 0.00999632, "n": 0}, {"scriptPubKey": {"reqSigs": 1, "hex": "76a914909796d8a946ac42e081c57e379f0a65acb13b6c88ac", "addresses": ["1EBXuEGugxqmJuEFCAqd3X17wDL3DbsrEm"], "asm": "OP_DUP OP_HASH160 909796d8a946ac42e081c57e379f0a65acb13b6c OP_EQUALVERIFY OP_CHECKSIG", "type": "pubkeyhash"}, "value": 0.0061976, "n": 1}], "hex": "0200000000010225c10a553a5b05f03c7235db3d822da9ee057c87ce5c440d536c722b68ef604a02000000171600148bd59c63537578aabeb6ca4acbfdb6aa485c41c4fefffffffc77b587401aab14df9566d801e086d98cc45dd873df85d8332094b0acc66bb200000000171600142182347143576101a6fd7906ebf86467b4591326feffffff02d0400f000000000017a914d18c7affb55a93976e333adef5e2380aa518301287f0740900000000001976a914909796d8a946ac42e081c57e379f0a65acb13b6c88ac02473044022026b1af0424a519a980759d9a728251d758758dd22ac17780f5e5d237225d5656022023227fc5895b9b50a684cf9a22ca566f3f5b313e91764b98d5eec76808c09c69012103b6d39486e45b540c70431f7799542a7a7f099922983143362f5572a937c4a77402473044022058d098ad9d7ef7f4b79fd3255b30cc2e6947208f890197a9b2c662ea3254bd44022051067989d619e9b6630a7b70e831032b70e39f10f95fc6e9d826465da160254901210261bb22220803d5eb5a53271da0e657af1c432f3bb1b01fed719d5f474f11fe3912490800", "vin": [{"txinwitness": ["3044022026b1af0424a519a980759d9a728251d758758dd22ac17780f5e5d237225d5656022023227fc5895b9b50a684cf9a22ca566f3f5b313e91764b98d5eec76808c09c6901", "03b6d39486e45b540c70431f7799542a7a7f099922983143362f5572a937c4a774"], "sequence": 4294967294, "scriptSig": {"hex": "1600148bd59c63537578aabeb6ca4acbfdb6aa485c41c4", "asm": "00148bd59c63537578aabeb6ca4acbfdb6aa485c41c4"}, "vout": 2, "txid": "4a60ef682b726c530d445cce877c05eea92d823ddb35723cf0055b3a550ac125"}, {"txinwitness": ["3044022058d098ad9d7ef7f4b79fd3255b30cc2e6947208f890197a9b2c662ea3254bd44022051067989d619e9b6630a7b70e831032b70e39f10f95fc6e9d826465da160254901", "0261bb22220803d5eb5a53271da0e657af1c432f3bb1b01fed719d5f474f11fe39"], "sequence": 4294967294, "scriptSig": {"hex": "1600142182347143576101a6fd7906ebf86467b4591326", "asm": "00142182347143576101a6fd7906ebf86467b4591326"}, "vout": 0, "txid": "b26bc6acb0942033d885df73d85dc48cd986e001d86695df14ab1a4087b577fc"}], "txid": "a1d323477fa4e3006c3fb52e0945e8821d4223814d4f9581ca0c788a8f4f2ee1", "blocktime": 1537872475, "version": 2, "confirmations": 11487, "time": 1537872475, "locktime": 542994, "vsize": 258, "size": 420}