{"hash": "a1d84a81bbdc9805afca34ae49850fcbfd17cdf86692bdbf240a1c5a3b53132a", "blockhash": "0000000000000000001f0ddff1eddb255c1121bcd4da4f1bc9a0da00cae72433", "vout": [{"scriptPubKey": {"reqSigs": 1, "hex": "76a914237f6eb055c2896192bf5c5332706b64a129c2f088ac", "addresses": ["14EhJsWnWyiUJBJSBd7skUy53dYdu3y27T"], "asm": "OP_DUP OP_HASH160 237f6eb055c2896192bf5c5332706b64a129c2f0 OP_EQUALVERIFY OP_CHECKSIG", "type": "pubkeyhash"}, "value": 0.008112, "n": 0}, {"scriptPubKey": {"reqSigs": 1, "hex": "001485cf377411d49f998d4abd45b540ed5d9f3e3938", "addresses": ["bc1qsh8nwaq36j0enr22h4zm2s8dtk0nuwfcmfvpnk"], "asm": "0 85cf377411d49f998d4abd45b540ed5d9f3e3938", "type": "witness_v0_keyhash"}, "value": 0.00070148, "n": 1}], "hex": "01000000019f0905014e62c4213e65d1aa4d9f6cc911ecba4fbb47f0356a60ee216ff86561580000006b483045022100cd1380fee1a96c9c5b974d220fa626b1bcd2ffc50a12014a5ed4f6accfd1203202207f2242e838313af8a9bff136d9bfccbe945c93b653017af0bc81741275c1a26a0121034810302ce61d328a9a0852c66900675b7085a320a8c7e6768d2a2bd64db5a648ffffffff02c0600c00000000001976a914237f6eb055c2896192bf5c5332706b64a129c2f088ac041201000000000016001485cf377411d49f998d4abd45b540ed5d9f3e393800000000", "vin": [{"sequence": 4294967295, "scriptSig": {"hex": "483045022100cd1380fee1a96c9c5b974d220fa626b1bcd2ffc50a12014a5ed4f6accfd1203202207f2242e838313af8a9bff136d9bfccbe945c93b653017af0bc81741275c1a26a0121034810302ce61d328a9a0852c66900675b7085a320a8c7e6768d2a2bd64db5a648", "asm": "3045022100cd1380fee1a96c9c5b974d220fa626b1bcd2ffc50a12014a5ed4f6accfd1203202207f2242e838313af8a9bff136d9bfccbe945c93b653017af0bc81741275c1a26a[ALL] 034810302ce61d328a9a0852c66900675b7085a320a8c7e6768d2a2bd64db5a648"}, "vout": 88, "txid": "6165f86f21ee606a35f047bb4fbaec11c96c9f4daad1653e21c4624e0105099f"}], "txid": "a1d84a81bbdc9805afca34ae49850fcbfd17cdf86692bdbf240a1c5a3b53132a", "blocktime": 1537872018, "version": 1, "confirmations": 11489, "time": 1537872018, "locktime": 0, "vsize": 223, "size": 223}