{"hash": "a1d97b8871289e085c4615d6ad511ef8d12e72950b3552731ce750e563f2b202", "blockhash": "000000000000000000022b45ed06c6f4ccd3cf7fb5ba4856ebd2e58215665228", "vout": [{"scriptPubKey": {"reqSigs": 1, "hex": "a91457177b5b1f35d69b901e08e62c86b8338055c34387", "addresses": ["39dWqnG8oekSwtLpXbYdgozT6MewRaQoBT"], "asm": "OP_HASH160 57177b5b1f35d69b901e08e62c86b8338055c343 OP_EQUAL", "type": "scripthash"}, "value": 0.24540257, "n": 0}, {"scriptPubKey": {"reqSigs": 1, "hex": "a914a6acdefae56e8c077248911849a6e345a034ac8487", "addresses": ["3GtKBgBXHNUaAiwHbzzPvkrHwsmnBQD4F5"], "asm": "OP_HASH160 a6acdefae56e8c077248911849a6e345a034ac84 OP_EQUAL", "type": "scripthash"}, "value": 0.05955259, "n": 1}], "hex": "010000000118cf1494856e28dd2d2dc53b62ed036f251e53d7418e01b712a96800bb1a134000000000fdfe0000483045022100d1e889433f96960d45f1cf7ff26d4707a837aaf381245d36f2d1f85df8150a140220641ea09819ef0150202073d8c04fee60c726fe00e6486553348d9af165d868df01483045022100aa5dae81966f81580c9cc257b94b2c2c9a1975fc99b368dd204291019484eb280220794a28deb4023f0a4a9c499fb5be2d3915450008c39c88f2c53a9f98126685cb014c6952210309aaab26d711145e5f58efbfa695441e12f729bbd999010c8670fa73446ac97721034b9cade0cc27ed10d77771128531fbd72db9a00d7e40338a9b8a7bcc1db8ebd521038524f99aae1dfda30da53f70eaeeadc9a3fb19d465ecfa1acb197515a3ddc74d53aeffffffff02617476010000000017a91457177b5b1f35d69b901e08e62c86b8338055c34387bbde5a000000000017a914a6acdefae56e8c077248911849a6e345a034ac848700000000", "vin": [{"sequence": 4294967295, "scriptSig": {"hex": "00483045022100d1e889433f96960d45f1cf7ff26d4707a837aaf381245d36f2d1f85df8150a140220641ea09819ef0150202073d8c04fee60c726fe00e6486553348d9af165d868df01483045022100aa5dae81966f81580c9cc257b94b2c2c9a1975fc99b368dd204291019484eb280220794a28deb4023f0a4a9c499fb5be2d3915450008c39c88f2c53a9f98126685cb014c6952210309aaab26d711145e5f58efbfa695441e12f729bbd999010c8670fa73446ac97721034b9cade0cc27ed10d77771128531fbd72db9a00d7e40338a9b8a7bcc1db8ebd521038524f99aae1dfda30da53f70eaeeadc9a3fb19d465ecfa1acb197515a3ddc74d53ae", "asm": "0 3045022100d1e889433f96960d45f1cf7ff26d4707a837aaf381245d36f2d1f85df8150a140220641ea09819ef0150202073d8c04fee60c726fe00e6486553348d9af165d868df[ALL] 3045022100aa5dae81966f81580c9cc257b94b2c2c9a1975fc99b368dd204291019484eb280220794a28deb4023f0a4a9c499fb5be2d3915450008c39c88f2c53a9f98126685cb[ALL] 52210309aaab26d711145e5f58efbfa695441e12f729bbd999010c8670fa73446ac97721034b9cade0cc27ed10d77771128531fbd72db9a00d7e40338a9b8a7bcc1db8ebd521038524f99aae1dfda30da53f70eaeeadc9a3fb19d465ecfa1acb197515a3ddc74d53ae"}, "vout": 0, "txid": "40131abb0068a912b7018e41d7531e256f03ed623bc52d2ddd286e859414cf18"}], "txid": "a1d97b8871289e085c4615d6ad511ef8d12e72950b3552731ce750e563f2b202", "blocktime": 1537869901, "version": 1, "confirmations": 11522, "time": 1537869901, "locktime": 0, "vsize": 371, "size": 371}