{"hash": "6c1ddf4f52c86df72157407a56fd22c0c6d7829c146615cbfdde3ad0a89dff62", "blockhash": "00000000000000000017f5eb5941039fbcee6240d03bc1f2f8e35350df66a1d8", "vout": [{"scriptPubKey": {"reqSigs": 1, "hex": "a914108eb08e908d0fe928eefaab767a715f9c91c3dd87", "addresses": ["33CZfs9mnvjnZj4r6TCGdvairK2ow1Le3s"], "asm": "OP_HASH160 108eb08e908d0fe928eefaab767a715f9c91c3dd OP_EQUAL", "type": "scripthash"}, "value": 0.0015, "n": 0}, {"scriptPubKey": {"reqSigs": 1, "hex": "a914ea645e5e20987adfaa9d5fa4a915d008965f102387", "addresses": ["3P4NHAbib3uvj6QNYmPWqEJMZnx4HzszTp"], "asm": "OP_HASH160 ea645e5e20987adfaa9d5fa4a915d008965f1023 OP_EQUAL", "type": "scripthash"}, "value": 0.02070042, "n": 1}], "hex": "020000000001023653989fb0df399585468bce096e7032b43ba216ec8523895e707944aa6f1a2a0a0000001716001404d31ba72f526e669ff5cbde1d03dc1ff42b5fdbfffffffff4a01f5390dfa96666325f00d1ce5aa6b689c20e157050ae9b3abde4dd3c394818000000171600149773c87bd3be859a65c945a0cbb910def68d534affffffff02f04902000000000017a914108eb08e908d0fe928eefaab767a715f9c91c3dd871a961f000000000017a914ea645e5e20987adfaa9d5fa4a915d008965f10238702483045022100f3aea8110fd469dc5b225bdb5391531c2a3ca2711baf403ece0268f810a3d8720220398a44498418e523f73a6984945b7929bc2e67943e1868e94fe39dcd80a7970301210288777b58d533cc2d4ab7ba7b1b83da255893da169d66e516d1e0629db512a52502483045022100e582e55ef22bc4cc236e3925030083551faaa70cc42b31495627dfbc5b27852502204e4d99064adff6b5044b58a5fab7a30ed79c98cd46119a91c9dd701c62392d59012102efc9c7667a9f20ba40a704a551c1ca4cc8b6d49bf42a9a3b978c8f71e25b09ce00000000", "vin": [{"txinwitness": ["3045022100f3aea8110fd469dc5b225bdb5391531c2a3ca2711baf403ece0268f810a3d8720220398a44498418e523f73a6984945b7929bc2e67943e1868e94fe39dcd80a7970301", "0288777b58d533cc2d4ab7ba7b1b83da255893da169d66e516d1e0629db512a525"], "sequence": 4294967295, "scriptSig": {"hex": "16001404d31ba72f526e669ff5cbde1d03dc1ff42b5fdb", "asm": "001404d31ba72f526e669ff5cbde1d03dc1ff42b5fdb"}, "vout": 10, "txid": "2a1a6faa4479705e892385ec16a23bb432706e09ce8b46859539dfb09f985336"}, {"txinwitness": ["3045022100e582e55ef22bc4cc236e3925030083551faaa70cc42b31495627dfbc5b27852502204e4d99064adff6b5044b58a5fab7a30ed79c98cd46119a91c9dd701c62392d5901", "02efc9c7667a9f20ba40a704a551c1ca4cc8b6d49bf42a9a3b978c8f71e25b09ce"], "sequence": 4294967295, "scriptSig": {"hex": "1600149773c87bd3be859a65c945a0cbb910def68d534a", "asm": "00149773c87bd3be859a65c945a0cbb910def68d534a"}, "vout": 24, "txid": "48393cdde4bd3a9bae5070150ec289b6a65aced1005f326666a9df90531fa0f4"}], "txid": "a1de71d2a71daa7aed73e36ece6d635af9d64b35886283970919b683f15fa5ba", "blocktime": 1537874412, "version": 2, "confirmations": 11466, "time": 1537874412, "locktime": 0, "vsize": 257, "size": 420}