{"hash": "a1e55d8882e4c118a66dfd3b163818eadad037f237187de1b58f6a669fac85d4", "blockhash": "00000000000000000017f5eb5941039fbcee6240d03bc1f2f8e35350df66a1d8", "vout": [{"scriptPubKey": {"type": "nulldata", "hex": "6a146f6d6e69000000000000001f0000001600a39100", "asm": "OP_RETURN 6f6d6e69000000000000001f0000001600a39100"}, "value": 0.0, "n": 0}, {"scriptPubKey": {"reqSigs": 1, "hex": "76a914a25dec4d0011064ef106a983c39c7a540699f22088ac", "addresses": ["1FoWyxwPXuj4C6abqwhjDWdz6D4PZgYRjA"], "asm": "OP_DUP OP_HASH160 a25dec4d0011064ef106a983c39c7a540699f220 OP_EQUALVERIFY OP_CHECKSIG", "type": "pubkeyhash"}, "value": 5.46e-06, "n": 1}, {"scriptPubKey": {"reqSigs": 1, "hex": "76a91455c4ae917ba82a1d1de1f110314515470b51fa0d88ac", "addresses": ["18pW41EkUS3HU7mtCPUoiuY3EBDYmr58di"], "asm": "OP_DUP OP_HASH160 55c4ae917ba82a1d1de1f110314515470b51fa0d OP_EQUALVERIFY OP_CHECKSIG", "type": "pubkeyhash"}, "value": 0.00499064, "n": 2}], "hex": "01000000013a4c1d798db6bc890731bb89fb16f82f1d6cbe6a01b7d47d30c65bc3d1988db3080000006b483045022100e796a8a172ec83809ca19aba4fb0e8e01fa0a00356f6f2a0643d8957973dde4f02203dcedbd9ba5a81d844f829652b69aadba454652a8f6f1d73c0ea89c5a05ee0fa0121026d8729dbc8a877b038793b50f143b22fd046f81237def909f4d87394f2bb595efeffffff030000000000000000166a146f6d6e69000000000000001f0000001600a3910022020000000000001976a914a25dec4d0011064ef106a983c39c7a540699f22088ac789d0700000000001976a91455c4ae917ba82a1d1de1f110314515470b51fa0d88ac15490800", "vin": [{"sequence": 4294967294, "scriptSig": {"hex": "483045022100e796a8a172ec83809ca19aba4fb0e8e01fa0a00356f6f2a0643d8957973dde4f02203dcedbd9ba5a81d844f829652b69aadba454652a8f6f1d73c0ea89c5a05ee0fa0121026d8729dbc8a877b038793b50f143b22fd046f81237def909f4d87394f2bb595e", "asm": "3045022100e796a8a172ec83809ca19aba4fb0e8e01fa0a00356f6f2a0643d8957973dde4f02203dcedbd9ba5a81d844f829652b69aadba454652a8f6f1d73c0ea89c5a05ee0fa[ALL] 026d8729dbc8a877b038793b50f143b22fd046f81237def909f4d87394f2bb595e"}, "vout": 8, "txid": "b38d98d1c35bc6307dd4b7016abe6c1d2ff816fb89bb310789bcb68d791d4c3a"}], "txid": "a1e55d8882e4c118a66dfd3b163818eadad037f237187de1b58f6a669fac85d4", "blocktime": 1537874412, "version": 1, "confirmations": 11468, "time": 1537874412, "locktime": 542997, "vsize": 257, "size": 257}