{"hash": "a1e61ddc56ded0da1cf5e047cd92a9b24b9c4ea726bfeba338b116e9fc01508a", "blockhash": "0000000000000000001cda96e906b7601b7a6fb1a3b62bca570a9e5d8f4b3de1", "vout": [{"scriptPubKey": {"reqSigs": 1, "hex": "a914217e9010a8e3c5e6acc6a521ed3eee40311c47fd87", "addresses": ["34k7qcFCHSoWx4XJRko2L7pJ25SusjTcGJ"], "asm": "OP_HASH160 217e9010a8e3c5e6acc6a521ed3eee40311c47fd OP_EQUAL", "type": "scripthash"}, "value": 0.0007806, "n": 0}, {"scriptPubKey": {"reqSigs": 1, "hex": "76a914a87c8c0d4663a918de783089a12524ca786d868188ac", "addresses": ["1GMsiunopL5sZuTMaPbCjfwXdJEvC62KSG"], "asm": "OP_DUP OP_HASH160 a87c8c0d4663a918de783089a12524ca786d8681 OP_EQUALVERIFY OP_CHECKSIG", "type": "pubkeyhash"}, "value": 0.10072763, "n": 1}], "hex": "0100000001b2aa704d040b6408127924f726d018541d9d3ab734e33e50b4f516c8ea0654c0010000006a47304402204ec322de712371989ee983b4e773cb63533317b95c1b856fbf0c76f9db65d30902203f17a42af93c7e0851dc5a1ebe7398831e682d9a590c4bebc8e54ffd371ea4c80121028a529b882ca97682e7f83cc2e44a1f6deb15c78dea47747c1d1b17aece1e91a8ffffffff02ec3001000000000017a914217e9010a8e3c5e6acc6a521ed3eee40311c47fd87bbb29900000000001976a914a87c8c0d4663a918de783089a12524ca786d868188ac00000000", "vin": [{"sequence": 4294967295, "scriptSig": {"hex": "47304402204ec322de712371989ee983b4e773cb63533317b95c1b856fbf0c76f9db65d30902203f17a42af93c7e0851dc5a1ebe7398831e682d9a590c4bebc8e54ffd371ea4c80121028a529b882ca97682e7f83cc2e44a1f6deb15c78dea47747c1d1b17aece1e91a8", "asm": "304402204ec322de712371989ee983b4e773cb63533317b95c1b856fbf0c76f9db65d30902203f17a42af93c7e0851dc5a1ebe7398831e682d9a590c4bebc8e54ffd371ea4c8[ALL] 028a529b882ca97682e7f83cc2e44a1f6deb15c78dea47747c1d1b17aece1e91a8"}, "vout": 1, "txid": "c05406eac816f5b4503ee334b73a9d1d5418d026f724791208640b044d70aab2"}], "txid": "a1e61ddc56ded0da1cf5e047cd92a9b24b9c4ea726bfeba338b116e9fc01508a", "blocktime": 1537873282, "version": 1, "confirmations": 11480, "time": 1537873282, "locktime": 0, "vsize": 223, "size": 223}