{"hash": "a1ea236979623e5ee158e72eafa8635f1adc324bebcace7f8659e068d19d6402", "blockhash": "000000000000000000022b45ed06c6f4ccd3cf7fb5ba4856ebd2e58215665228", "vout": [{"scriptPubKey": {"reqSigs": 1, "hex": "a91479902bc5c2e5471ce80d2ea08deabb315faa7de087", "addresses": ["3CmnPvx4pZ1ZNVEVhLExuDB7gSyTPmt1kc"], "asm": "OP_HASH160 79902bc5c2e5471ce80d2ea08deabb315faa7de0 OP_EQUAL", "type": "scripthash"}, "value": 0.00348541, "n": 0}], "hex": "0100000003cc4bf9ec4676445edc27b885cb1aa2d467aa47ce27d0aace81c6471d80311919000000006b483045022100b9b71bd608cc4b5f24ede5ca533819d9587637fcae8b39f577b23abbc4ac125602204441edec63350299d81359b0590400d1008d34386a111597dbbd4c0b81053ef70121038c416946e9d2d74afd3e9326bd791f73fa7963354c14294add4f0d7520c7e113ffffffffe4c8fa51a3f25b0ddd7ae8a3a9dbdf4da31c709524fdc7055068075e2571fd1e000000006a473044022058513c4a6f605675260af5cf367a1124450b13be8931aa17ab6afaf8c136249302207fbbceb3ae68c8c25eb0cbe10418737c248cb919fc99c8678f707b50488f8e9c01210273e19ee1678f0839c1395362d05ce376a751d31283273710aecbfc3117863f5dffffffff9093c35c017c446deeef7120de97240bbf53041670fb26c380ab2d83975414a0000000006a4730440220487c730e6d05cd788bdf982236a337bf5506a2f42d8539c6ce583e381b6283cc022005e2263573ad014c96ae8c35d55aab0e2b5dfbc57efdfd8fde22e0a01a9a9869012103d07842ae452e573d28c2b25672dcdfb4fb5214210c4febafa087515ed336e90cffffffff017d5105000000000017a91479902bc5c2e5471ce80d2ea08deabb315faa7de08700000000", "vin": [{"sequence": 4294967295, "scriptSig": {"hex": "483045022100b9b71bd608cc4b5f24ede5ca533819d9587637fcae8b39f577b23abbc4ac125602204441edec63350299d81359b0590400d1008d34386a111597dbbd4c0b81053ef70121038c416946e9d2d74afd3e9326bd791f73fa7963354c14294add4f0d7520c7e113", "asm": "3045022100b9b71bd608cc4b5f24ede5ca533819d9587637fcae8b39f577b23abbc4ac125602204441edec63350299d81359b0590400d1008d34386a111597dbbd4c0b81053ef7[ALL] 038c416946e9d2d74afd3e9326bd791f73fa7963354c14294add4f0d7520c7e113"}, "vout": 0, "txid": "191931801d47c681ceaad027ce47aa67d4a21acb85b827dc5e447646ecf94bcc"}, {"sequence": 4294967295, "scriptSig": {"hex": "473044022058513c4a6f605675260af5cf367a1124450b13be8931aa17ab6afaf8c136249302207fbbceb3ae68c8c25eb0cbe10418737c248cb919fc99c8678f707b50488f8e9c01210273e19ee1678f0839c1395362d05ce376a751d31283273710aecbfc3117863f5d", "asm": "3044022058513c4a6f605675260af5cf367a1124450b13be8931aa17ab6afaf8c136249302207fbbceb3ae68c8c25eb0cbe10418737c248cb919fc99c8678f707b50488f8e9c[ALL] 0273e19ee1678f0839c1395362d05ce376a751d31283273710aecbfc3117863f5d"}, "vout": 0, "txid": "1efd71255e07685005c7fd2495701ca34ddfdba9a3e87add0d5bf2a351fac8e4"}, {"sequence": 4294967295, "scriptSig": {"hex": "4730440220487c730e6d05cd788bdf982236a337bf5506a2f42d8539c6ce583e381b6283cc022005e2263573ad014c96ae8c35d55aab0e2b5dfbc57efdfd8fde22e0a01a9a9869012103d07842ae452e573d28c2b25672dcdfb4fb5214210c4febafa087515ed336e90c", "asm": "30440220487c730e6d05cd788bdf982236a337bf5506a2f42d8539c6ce583e381b6283cc022005e2263573ad014c96ae8c35d55aab0e2b5dfbc57efdfd8fde22e0a01a9a9869[ALL] 03d07842ae452e573d28c2b25672dcdfb4fb5214210c4febafa087515ed336e90c"}, "vout": 0, "txid": "a0145497832dab80c326fb70160453bf0b2497de2071efee6d447c015cc39390"}], "txid": "a1ea236979623e5ee158e72eafa8635f1adc324bebcace7f8659e068d19d6402", "blocktime": 1537869901, "version": 1, "confirmations": 11523, "time": 1537869901, "locktime": 0, "vsize": 484, "size": 484}