{"hash": "a1ec3869906f4a8e92677620e97e947d1b4663011d5e7b91d1b4d059d6495703", "blockhash": "0000000000000000001cda96e906b7601b7a6fb1a3b62bca570a9e5d8f4b3de1", "vout": [{"scriptPubKey": {"reqSigs": 1, "hex": "76a9142cdf2fb7f4601422c5e8157956be716f67d6151288ac", "addresses": ["156G6hodnTiieWL33FjUV8uaJsjTAqdXmC"], "asm": "OP_DUP OP_HASH160 2cdf2fb7f4601422c5e8157956be716f67d61512 OP_EQUALVERIFY OP_CHECKSIG", "type": "pubkeyhash"}, "value": 0.01838561, "n": 0}, {"scriptPubKey": {"reqSigs": 1, "hex": "a914addc47aae2f125a17e5394c90537b9a225182de087", "addresses": ["3HYJi3qcftsHhKxqwi1f7vTKqyHcX6TBAy"], "asm": "OP_HASH160 addc47aae2f125a17e5394c90537b9a225182de0 OP_EQUAL", "type": "scripthash"}, "value": 0.0428, "n": 1}], "hex": "010000000166a56ccea9a4a5e25aa3616b590869a768f4e80c89e9ec7a384c2afab43cac03000000006a4730440220114100f13ee36ec61fa1b51e74ff9dbc00219df260d053e2cacadccaf89a368802204dc79ba2c16dd05dc75e15ea03632e6061398b61768fb22870bf17e54f5805cc01210369375b06940cf7fdaa5877c1f74f821701adeee3496416630d1aa06eb8101b31ffffffff02e10d1c00000000001976a9142cdf2fb7f4601422c5e8157956be716f67d6151288acc04e41000000000017a914addc47aae2f125a17e5394c90537b9a225182de08700000000", "vin": [{"sequence": 4294967295, "scriptSig": {"hex": "4730440220114100f13ee36ec61fa1b51e74ff9dbc00219df260d053e2cacadccaf89a368802204dc79ba2c16dd05dc75e15ea03632e6061398b61768fb22870bf17e54f5805cc01210369375b06940cf7fdaa5877c1f74f821701adeee3496416630d1aa06eb8101b31", "asm": "30440220114100f13ee36ec61fa1b51e74ff9dbc00219df260d053e2cacadccaf89a368802204dc79ba2c16dd05dc75e15ea03632e6061398b61768fb22870bf17e54f5805cc[ALL] 0369375b06940cf7fdaa5877c1f74f821701adeee3496416630d1aa06eb8101b31"}, "vout": 0, "txid": "03ac3cb4fa2a4c387aece9890ce8f468a76908596b61a35ae2a5a4a9ce6ca566"}], "txid": "a1ec3869906f4a8e92677620e97e947d1b4663011d5e7b91d1b4d059d6495703", "blocktime": 1537873282, "version": 1, "confirmations": 11484, "time": 1537873282, "locktime": 0, "vsize": 223, "size": 223}