{"hash": "023f1c78dac3c53b6f7ea15c0cdde90e11cfd5d21e7b79d8340d7df2f33ae469", "blockhash": "0000000000000000000dcc0f55137456b1a82d3642486a52398922ac4d620174", "vout": [{"scriptPubKey": {"reqSigs": 1, "hex": "a914b44337f216fcdcf0a5895a72e8c4169a68ef293e87", "addresses": ["3J8A5VuG2KUQmCweiwHBDfv67VqWTciCM2"], "asm": "OP_HASH160 b44337f216fcdcf0a5895a72e8c4169a68ef293e OP_EQUAL", "type": "scripthash"}, "value": 0.01169154, "n": 0}], "hex": "01000000000101b55a80142953486decbe19e7dba8a5baee902b4ba1eed62a1e5a8d242b7295b102000000171600147776b84dc7b6d58acf4effabdba9b2c285af7e83ffffffff0102d711000000000017a914b44337f216fcdcf0a5895a72e8c4169a68ef293e870247304402203de7f3ad50c99549da112883b929416baa0522a2da9601d3360718655afac6f202205d9360697fe3141e624083747e82ae6402e575fbe05612f39e4ceadc073d0c7d0121026e2c85ff0206d961d6b566737936ac5f85d2d0f60f1903678706a9ae7bbcb82600000000", "vin": [{"txinwitness": ["304402203de7f3ad50c99549da112883b929416baa0522a2da9601d3360718655afac6f202205d9360697fe3141e624083747e82ae6402e575fbe05612f39e4ceadc073d0c7d01", "026e2c85ff0206d961d6b566737936ac5f85d2d0f60f1903678706a9ae7bbcb826"], "sequence": 4294967295, "scriptSig": {"hex": "1600147776b84dc7b6d58acf4effabdba9b2c285af7e83", "asm": "00147776b84dc7b6d58acf4effabdba9b2c285af7e83"}, "vout": 2, "txid": "b195722b248d5a1e2ad6eea14b2b90eebaa5a8dbe719beec6d48532914805ab5"}], "txid": "a1f0799f85b4b0258613916e46585176b9751d4f8f3f6d38075d0bb271cb9bdf", "blocktime": 1537870268, "version": 1, "confirmations": 11518, "time": 1537870268, "locktime": 0, "vsize": 134, "size": 215}