{"hash": "a1f8a42262563b814845c697209d82d25d7cd1a0bd0f41eaadbff651297b983e", "blockhash": "0000000000000000001e0dab787dd257d1dbfcb92a98c2207d5e1078be1f4165", "vout": [{"scriptPubKey": {"type": "nulldata", "hex": "6a4c50000077b00001f2289f724a7e0bbbfb737760af6c953dd567cf27e7e3ef3236678a6250979402b35ca0835fc3b2e4fcfe24b3cddc5baa11790611b99a0107d7ec0117e706f8a4c9d02528a348b20ac714", "asm": "OP_RETURN 000077b00001f2289f724a7e0bbbfb737760af6c953dd567cf27e7e3ef3236678a6250979402b35ca0835fc3b2e4fcfe24b3cddc5baa11790611b99a0107d7ec0117e706f8a4c9d02528a348b20ac714"}, "value": 0.0, "n": 0}, {"scriptPubKey": {"reqSigs": 1, "hex": "76a9141aa4df3ccf1ca6579da89258d7c2e2a1d2a550ab88ac", "addresses": ["13Rt5VoAZ5smf9Qg7EgCqAuFAPveiYcppr"], "asm": "OP_DUP OP_HASH160 1aa4df3ccf1ca6579da89258d7c2e2a1d2a550ab OP_EQUALVERIFY OP_CHECKSIG", "type": "pubkeyhash"}, "value": 0.0002476, "n": 1}], "hex": "0100000001fe601a9884af93a24c66b5fd67cf80fa6f2a31021adc07468f7dd71f47ba63ed000000006a4730440220558b36414c7f1ce5ad09a8f8af9d75141c21c265e75335c6ebcf0656ef530c9302204be8b5ab6ac8f2e78ab818c2aa1236dc5bf3056ed21fa5653e86512971c97d6201210334814d416c5647824f74088a54c631c101186bdc1316013205a13edf3ab8a0a7ffffffff020000000000000000536a4c50000077b00001f2289f724a7e0bbbfb737760af6c953dd567cf27e7e3ef3236678a6250979402b35ca0835fc3b2e4fcfe24b3cddc5baa11790611b99a0107d7ec0117e706f8a4c9d02528a348b20ac714b8600000000000001976a9141aa4df3ccf1ca6579da89258d7c2e2a1d2a550ab88ac00000000", "vin": [{"sequence": 4294967295, "scriptSig": {"hex": "4730440220558b36414c7f1ce5ad09a8f8af9d75141c21c265e75335c6ebcf0656ef530c9302204be8b5ab6ac8f2e78ab818c2aa1236dc5bf3056ed21fa5653e86512971c97d6201210334814d416c5647824f74088a54c631c101186bdc1316013205a13edf3ab8a0a7", "asm": "30440220558b36414c7f1ce5ad09a8f8af9d75141c21c265e75335c6ebcf0656ef530c9302204be8b5ab6ac8f2e78ab818c2aa1236dc5bf3056ed21fa5653e86512971c97d62[ALL] 0334814d416c5647824f74088a54c631c101186bdc1316013205a13edf3ab8a0a7"}, "vout": 0, "txid": "ed63ba471fd77d8f4607dc1a02312a6ffa80cf67fdb5664ca293af84981a60fe"}], "txid": "a1f8a42262563b814845c697209d82d25d7cd1a0bd0f41eaadbff651297b983e", "blocktime": 1537872475, "version": 1, "confirmations": 11486, "time": 1537872475, "locktime": 0, "vsize": 283, "size": 283}