{"hash": "a1f9676284db21cd6a98f18fffd277a48083a141b6b2e9330c948ebb4f12240a", "blockhash": "0000000000000000000e13cef7c366c0283d82e591d1acd082e914b08063cdf1", "vout": [{"scriptPubKey": {"reqSigs": 1, "hex": "a91482e7f13a4847aa5d1c30e6487635d40f0b98f9a487", "addresses": ["3DdBd7csy82BAKSSRCRb5vWQmR7i1RJAiz"], "asm": "OP_HASH160 82e7f13a4847aa5d1c30e6487635d40f0b98f9a4 OP_EQUAL", "type": "scripthash"}, "value": 0.00237091, "n": 0}, {"scriptPubKey": {"reqSigs": 1, "hex": "76a9140cb8eb6dd65fa7a0e5ef026e4c5908fa4125ff0e88ac", "addresses": ["12AGdkAFcZ56XtmBR3CKk2ER3xLs9SQxtv"], "asm": "OP_DUP OP_HASH160 0cb8eb6dd65fa7a0e5ef026e4c5908fa4125ff0e OP_EQUALVERIFY OP_CHECKSIG", "type": "pubkeyhash"}, "value": 0.02803323, "n": 1}], "hex": "010000000170fcdded0eee6ee88c9f7a43b1112a84674d1d2de4aa64e3b39fa0b6e95e939d000000006a473044022021135a51af987846f5953f6043216b7c1811fa05d401539c517633867eb86ff302201644b919d8065cbf2c31469ec3fea867b998a8fa3be321fd06a1240b91cdf1ba0121029aadafbfbdf4290f42099469b9765e8f525c18a9a2482caf42372f237319c63effffffff02239e03000000000017a91482e7f13a4847aa5d1c30e6487635d40f0b98f9a4877bc62a00000000001976a9140cb8eb6dd65fa7a0e5ef026e4c5908fa4125ff0e88ac00000000", "vin": [{"sequence": 4294967295, "scriptSig": {"hex": "473044022021135a51af987846f5953f6043216b7c1811fa05d401539c517633867eb86ff302201644b919d8065cbf2c31469ec3fea867b998a8fa3be321fd06a1240b91cdf1ba0121029aadafbfbdf4290f42099469b9765e8f525c18a9a2482caf42372f237319c63e", "asm": "3044022021135a51af987846f5953f6043216b7c1811fa05d401539c517633867eb86ff302201644b919d8065cbf2c31469ec3fea867b998a8fa3be321fd06a1240b91cdf1ba[ALL] 029aadafbfbdf4290f42099469b9765e8f525c18a9a2482caf42372f237319c63e"}, "vout": 0, "txid": "9d935ee9b6a09fb3e364aae42d1d4d67842a11b1437a9f8ce86eee0eedddfc70"}], "txid": "a1f9676284db21cd6a98f18fffd277a48083a141b6b2e9330c948ebb4f12240a", "blocktime": 1537871767, "version": 1, "confirmations": 11493, "time": 1537871767, "locktime": 0, "vsize": 223, "size": 223}