{"hash": "a203763f0b771f872e11e87f8ea75e00ff06e554128a3dbb947207c9438a2811", "blockhash": "000000000000000000022b45ed06c6f4ccd3cf7fb5ba4856ebd2e58215665228", "vout": [{"scriptPubKey": {"reqSigs": 1, "hex": "a914a1a68713637972d9b10274c1e929c54c56bf753287", "addresses": ["3GRkCyK3AG6LSWpawj7ut948H5ZmJYTPJo"], "asm": "OP_HASH160 a1a68713637972d9b10274c1e929c54c56bf7532 OP_EQUAL", "type": "scripthash"}, "value": 0.00581677, "n": 0}, {"scriptPubKey": {"reqSigs": 1, "hex": "76a914e9773df292b989becac946d5df3c1502abcabd7288ac", "addresses": ["1NHTHmw3qfatqNA6oLfATiqTfNNHwmZ6Rs"], "asm": "OP_DUP OP_HASH160 e9773df292b989becac946d5df3c1502abcabd72 OP_EQUALVERIFY OP_CHECKSIG", "type": "pubkeyhash"}, "value": 0.0016957, "n": 1}], "hex": "01000000011f9d68ed5ae9e85972b9b5e0182e1e9d669e28df385d6d4c7c2dc233847140ab010000006b483045022100a54413ff45fc9c3ce9cc36c61f41f9aa3567e3eed2dc1dcdfdb2d3b47abd241e02205361539f64c2ed7ddafef9afd547e06c9ab1bdcc596459268f4f95d566aefd54012102842c3db79577f10e57b712d75530060af0827a7e928d8f795c8882113ccc318bffffffff022de008000000000017a914a1a68713637972d9b10274c1e929c54c56bf75328762960200000000001976a914e9773df292b989becac946d5df3c1502abcabd7288ac00000000", "vin": [{"sequence": 4294967295, "scriptSig": {"hex": "483045022100a54413ff45fc9c3ce9cc36c61f41f9aa3567e3eed2dc1dcdfdb2d3b47abd241e02205361539f64c2ed7ddafef9afd547e06c9ab1bdcc596459268f4f95d566aefd54012102842c3db79577f10e57b712d75530060af0827a7e928d8f795c8882113ccc318b", "asm": "3045022100a54413ff45fc9c3ce9cc36c61f41f9aa3567e3eed2dc1dcdfdb2d3b47abd241e02205361539f64c2ed7ddafef9afd547e06c9ab1bdcc596459268f4f95d566aefd54[ALL] 02842c3db79577f10e57b712d75530060af0827a7e928d8f795c8882113ccc318b"}, "vout": 1, "txid": "ab40718433c22d7c4c6d5d38df289e669d1e2e18e0b5b97259e8e95aed689d1f"}], "txid": "a203763f0b771f872e11e87f8ea75e00ff06e554128a3dbb947207c9438a2811", "blocktime": 1537869901, "version": 1, "confirmations": 11522, "time": 1537869901, "locktime": 0, "vsize": 224, "size": 224}