{"hash": "a204d20a9a9bdc807b0eccfd5830b8d0d52e86e20c84d4e62d49ec234f864f55", "blockhash": "00000000000000000004ffacab907a6b429b9a5745fa0b75af4234bf69dd7176", "vout": [{"scriptPubKey": {"type": "nulldata", "hex": "6a146f6d6e69000000000000001f0000003820e44780", "asm": "OP_RETURN 6f6d6e69000000000000001f0000003820e44780"}, "value": 0.0, "n": 0}, {"scriptPubKey": {"reqSigs": 1, "hex": "76a914a25dec4d0011064ef106a983c39c7a540699f22088ac", "addresses": ["1FoWyxwPXuj4C6abqwhjDWdz6D4PZgYRjA"], "asm": "OP_DUP OP_HASH160 a25dec4d0011064ef106a983c39c7a540699f220 OP_EQUALVERIFY OP_CHECKSIG", "type": "pubkeyhash"}, "value": 0.01956724, "n": 1}, {"scriptPubKey": {"reqSigs": 1, "hex": "76a914176470b934fb29aed1909859e6f2d88a6b24375988ac", "addresses": ["138gs8SbQH92LCzPdCYewEhs8teUzx4EtG"], "asm": "OP_DUP OP_HASH160 176470b934fb29aed1909859e6f2d88a6b243759 OP_EQUALVERIFY OP_CHECKSIG", "type": "pubkeyhash"}, "value": 5.46e-06, "n": 2}], "hex": "01000000019ed683a049ec073c3aa405915c89e3a3273d7dd8b7fe3d698979d908491f4ac7000000006b483045022100b59177829ea38513d35b11d77570429f411159cf7c124755b1d3fdb6e80ba17902200accb4bbef363995a724b4a023ada784c2470f90c5428818124a3a26b4b5afd8012103da5bac7b36d5aa38f531c6b9601e21bb598a4b6716ebed38b009a55dabde9440feffffff030000000000000000166a146f6d6e69000000000000001f0000003820e4478074db1d00000000001976a914a25dec4d0011064ef106a983c39c7a540699f22088ac22020000000000001976a914176470b934fb29aed1909859e6f2d88a6b24375988ac16490800", "vin": [{"sequence": 4294967294, "scriptSig": {"hex": "483045022100b59177829ea38513d35b11d77570429f411159cf7c124755b1d3fdb6e80ba17902200accb4bbef363995a724b4a023ada784c2470f90c5428818124a3a26b4b5afd8012103da5bac7b36d5aa38f531c6b9601e21bb598a4b6716ebed38b009a55dabde9440", "asm": "3045022100b59177829ea38513d35b11d77570429f411159cf7c124755b1d3fdb6e80ba17902200accb4bbef363995a724b4a023ada784c2470f90c5428818124a3a26b4b5afd8[ALL] 03da5bac7b36d5aa38f531c6b9601e21bb598a4b6716ebed38b009a55dabde9440"}, "vout": 0, "txid": "c74a1f4908d97989693dfeb7d87d3d27a3e3895c9105a43a3c07ec49a083d69e"}], "txid": "a204d20a9a9bdc807b0eccfd5830b8d0d52e86e20c84d4e62d49ec234f864f55", "blocktime": 1537875543, "version": 1, "confirmations": 11464, "time": 1537875543, "locktime": 542998, "vsize": 257, "size": 257}