{"hash": "a2074334a06ea7cd8cfa5875c141cc99dc5ab77c28409a0d054c51e8dc5a3a7e", "blockhash": "0000000000000000001f76057863aec43deb6fa401d9628bb513d65a8098bfab", "vout": [{"scriptPubKey": {"reqSigs": 1, "hex": "76a914a2834c62cefea9d6cf502a32b2c3895535cdc85388ac", "addresses": ["1FpHkrByhhRst8DaPuNxQ9b4wrrDEmG6uq"], "asm": "OP_DUP OP_HASH160 a2834c62cefea9d6cf502a32b2c3895535cdc853 OP_EQUALVERIFY OP_CHECKSIG", "type": "pubkeyhash"}, "value": 0.00124863, "n": 0}, {"scriptPubKey": {"reqSigs": 1, "hex": "76a914b3e779c40fa5b2738e84a89c700ae65f88640cc288ac", "addresses": ["1HQFFYmC5LJHv8Smhg24edi83ivpEp8bpT"], "asm": "OP_DUP OP_HASH160 b3e779c40fa5b2738e84a89c700ae65f88640cc2 OP_EQUALVERIFY OP_CHECKSIG", "type": "pubkeyhash"}, "value": 0.00386532, "n": 1}], "hex": "010000000188505bf42ff9366d4bcb552aeb7f99a654a4b8e82d9b20654792dd91a1d4633d000000006a473044022007e8346943358f0c9a5898efa7f105c3147346d49494d3338a8cfc7fc8cab1e10220750b6955c2ba475d77a024a497dc4d474a002dc8ddf86183b36c6e0b3343101801210283d1635ae85c5dc78289e81fea2b5a30532dbd74d1bcbe012be4031ce5ab328affffffff02bfe70100000000001976a914a2834c62cefea9d6cf502a32b2c3895535cdc85388ace4e50500000000001976a914b3e779c40fa5b2738e84a89c700ae65f88640cc288ac00000000", "vin": [{"sequence": 4294967295, "scriptSig": {"hex": "473044022007e8346943358f0c9a5898efa7f105c3147346d49494d3338a8cfc7fc8cab1e10220750b6955c2ba475d77a024a497dc4d474a002dc8ddf86183b36c6e0b3343101801210283d1635ae85c5dc78289e81fea2b5a30532dbd74d1bcbe012be4031ce5ab328a", "asm": "3044022007e8346943358f0c9a5898efa7f105c3147346d49494d3338a8cfc7fc8cab1e10220750b6955c2ba475d77a024a497dc4d474a002dc8ddf86183b36c6e0b33431018[ALL] 0283d1635ae85c5dc78289e81fea2b5a30532dbd74d1bcbe012be4031ce5ab328a"}, "vout": 0, "txid": "3d63d4a191dd924765209b2de8b8a454a6997feb2a55cb4b6d36f92ff45b5088"}], "txid": "a2074334a06ea7cd8cfa5875c141cc99dc5ab77c28409a0d054c51e8dc5a3a7e", "blocktime": 1537873891, "version": 1, "confirmations": 11475, "time": 1537873891, "locktime": 0, "vsize": 225, "size": 225}