{"hash": "b778b27c35fc82a2ff824fea1b35302c895cd1a4a5367a90eb02c6dd8d9e3ffc", "blockhash": "0000000000000000000e13cef7c366c0283d82e591d1acd082e914b08063cdf1", "vout": [{"scriptPubKey": {"reqSigs": 1, "hex": "0014e5265c631157aa00dd34517f61ba7c6c6fba90b9", "addresses": ["bc1qu5n9ccc3274qphf529lkrwnud3hm4y9eva3lu8"], "asm": "0 e5265c631157aa00dd34517f61ba7c6c6fba90b9", "type": "witness_v0_keyhash"}, "value": 0.00132713, "n": 0}, {"scriptPubKey": {"reqSigs": 1, "hex": "a914fe4f5918b8508c5661240dac6c886013238bd10287", "addresses": ["3QsgcU2DsTmrbCrAiVGdjD28qMcmVwM9PN"], "asm": "OP_HASH160 fe4f5918b8508c5661240dac6c886013238bd102 OP_EQUAL", "type": "scripthash"}, "value": 0.5, "n": 1}], "hex": "010000000001018eed9b845f6203c637e6f5e81dcfba37b068950996ff59e412fe39f19dbc63180100000000ffffffff026906020000000000160014e5265c631157aa00dd34517f61ba7c6c6fba90b980f0fa020000000017a914fe4f5918b8508c5661240dac6c886013238bd10287024830450221009d45fd6b69aa819e1d27038e2a1927a1b4797bef3bbfcfa44b19458d187a92300220008a884073bea09ecd585b73c2eb84afa407ed5fc693faead8f20ea3cb522caa0121023da51f0a052e2beaf377e3daf16003560de78ad607b70a02b68e8d25e291e1a000000000", "vin": [{"txinwitness": ["30450221009d45fd6b69aa819e1d27038e2a1927a1b4797bef3bbfcfa44b19458d187a92300220008a884073bea09ecd585b73c2eb84afa407ed5fc693faead8f20ea3cb522caa01", "023da51f0a052e2beaf377e3daf16003560de78ad607b70a02b68e8d25e291e1a0"], "sequence": 4294967295, "scriptSig": {"hex": "", "asm": ""}, "vout": 1, "txid": "1863bc9df139fe12e459ff96099568b037bacf1de8f5e637c603625f849bed8e"}], "txid": "a20d63cbcdea86eed3804f1fad71a276cc6f6d411ced342978d1a7bd915a095e", "blocktime": 1537871767, "version": 1, "confirmations": 11495, "time": 1537871767, "locktime": 0, "vsize": 142, "size": 224}