{"hash": "a211b7371880fde2ca43cc79e6e9ce353d7266b5fd5219470982badc2bb9a087", "blockhash": "0000000000000000001e0dab787dd257d1dbfcb92a98c2207d5e1078be1f4165", "vout": [{"scriptPubKey": {"reqSigs": 1, "hex": "a914fcef476b6ae1e7c8f6fdd559b3bc4f03471cf44a87", "addresses": ["3QkQrHCsc9gGUUmQnowQ5mB2PQgc1uqkJm"], "asm": "OP_HASH160 fcef476b6ae1e7c8f6fdd559b3bc4f03471cf44a OP_EQUAL", "type": "scripthash"}, "value": 0.002187, "n": 0}, {"scriptPubKey": {"reqSigs": 1, "hex": "76a914b69fd3491b5107df47b22b9d4cad5efd88d0193588ac", "addresses": ["1HedSmn9o3n5vEepWbq4ufXV338C9Qjw5s"], "asm": "OP_DUP OP_HASH160 b69fd3491b5107df47b22b9d4cad5efd88d01935 OP_EQUALVERIFY OP_CHECKSIG", "type": "pubkeyhash"}, "value": 0.15435967, "n": 1}], "hex": "0100000001c8ddc446b827851ff2cbc7bf20cfe978cafbd560a7fc883b2a3f6ce1699fd70a010000006a47304402206a7eaf34dbc10fef4eea08473ca02e2ae018663a5f140d01b97b1db5457430ab0220486833caf0e66ca43c845571aa3428b4279c0f3291a4220f09b5145e1190882e0121037236b794112e88a6eea1a1a5040be2215b087b059a52fc55a9485ef662d1ef40ffffffff024c5603000000000017a914fcef476b6ae1e7c8f6fdd559b3bc4f03471cf44a87bf88eb00000000001976a914b69fd3491b5107df47b22b9d4cad5efd88d0193588ac00000000", "vin": [{"sequence": 4294967295, "scriptSig": {"hex": "47304402206a7eaf34dbc10fef4eea08473ca02e2ae018663a5f140d01b97b1db5457430ab0220486833caf0e66ca43c845571aa3428b4279c0f3291a4220f09b5145e1190882e0121037236b794112e88a6eea1a1a5040be2215b087b059a52fc55a9485ef662d1ef40", "asm": "304402206a7eaf34dbc10fef4eea08473ca02e2ae018663a5f140d01b97b1db5457430ab0220486833caf0e66ca43c845571aa3428b4279c0f3291a4220f09b5145e1190882e[ALL] 037236b794112e88a6eea1a1a5040be2215b087b059a52fc55a9485ef662d1ef40"}, "vout": 1, "txid": "0ad79f69e16c3f2a3b88fca760d5fbca78e9cf20bfc7cbf21f8527b846c4ddc8"}], "txid": "a211b7371880fde2ca43cc79e6e9ce353d7266b5fd5219470982badc2bb9a087", "blocktime": 1537872475, "version": 1, "confirmations": 11486, "time": 1537872475, "locktime": 0, "vsize": 223, "size": 223}