{"hash": "a21239886a5c88f8759e48fc304db0693c74c85352f5455682c25fdb364af646", "blockhash": "0000000000000000001f76057863aec43deb6fa401d9628bb513d65a8098bfab", "vout": [{"scriptPubKey": {"reqSigs": 1, "hex": "76a91404d3972c64365750522d34ea2f93e7f68a2f25e588ac", "addresses": ["1SXBLQ8yVw14XuWFcEr4YWtnztgcN6NgG"], "asm": "OP_DUP OP_HASH160 04d3972c64365750522d34ea2f93e7f68a2f25e5 OP_EQUALVERIFY OP_CHECKSIG", "type": "pubkeyhash"}, "value": 0.00801303, "n": 0}, {"scriptPubKey": {"reqSigs": 1, "hex": "76a9142a10da8d522e3f38c66611c0c07ef8a9e2c8b7f588ac", "addresses": ["14qRa5HFLZ16jyBmyL1X1D9Ven6eRpap8N"], "asm": "OP_DUP OP_HASH160 2a10da8d522e3f38c66611c0c07ef8a9e2c8b7f5 OP_EQUALVERIFY OP_CHECKSIG", "type": "pubkeyhash"}, "value": 0.01003021, "n": 1}], "hex": "020000000320270d71ab97cc5d4a01cfae2a0ccd5c7870b99f9d7a5899365fc88a96b7331e000000006b483045022100b6f73ecaf3438adcff955f09d6ad7a4b0c0a9478d556f3b29a497db69dccc9a3022060ed5e84535ea39a66d4473313d96b4e496a374a2a468a4e90da618d6ceec9ef012102c6eea3aced23220446e12e6246a6f175bbefbae04a7a01efc2d636ab2e37551afeffffffcc43c569ab9e27b7e021fc692f7b41f5620aa1a6fa5bf33bf24bb3148248a5de0d0000006b483045022100dec0fed2344388bc9e47d60dba36abadce2b21d4e127735e2984e26f75f2d378022036b73b33911d4904e1976d353ff2c4a3133dd769a0d94b337cf3aba245d6f732012103c2c512a585434c21543c2b2e1a0ed045a6e5fa591b289b81c997b19044a3757bfeffffff2c2f3512b3492ef97150f9fc8bfec81f6a113c39ad9ec9a4f05714cf2b340600000000006b483045022100f7ed87ce789d003b1ddc47ebd7d89eb8c49f1a0be9a378faf55c3356a65319770220653b74745f39d6e77d19d9cc065db17d6da5e549edfe632b2d895d8eea3547d701210347088c93cf47f67f702fdc7a61b70d270ba5767a9fb36ea2abd796c4a5ef2aa9feffffff02173a0c00000000001976a91404d3972c64365750522d34ea2f93e7f68a2f25e588ac0d4e0f00000000001976a9142a10da8d522e3f38c66611c0c07ef8a9e2c8b7f588ac13490800", "vin": [{"sequence": 4294967294, "scriptSig": {"hex": "483045022100b6f73ecaf3438adcff955f09d6ad7a4b0c0a9478d556f3b29a497db69dccc9a3022060ed5e84535ea39a66d4473313d96b4e496a374a2a468a4e90da618d6ceec9ef012102c6eea3aced23220446e12e6246a6f175bbefbae04a7a01efc2d636ab2e37551a", "asm": "3045022100b6f73ecaf3438adcff955f09d6ad7a4b0c0a9478d556f3b29a497db69dccc9a3022060ed5e84535ea39a66d4473313d96b4e496a374a2a468a4e90da618d6ceec9ef[ALL] 02c6eea3aced23220446e12e6246a6f175bbefbae04a7a01efc2d636ab2e37551a"}, "vout": 0, "txid": "1e33b7968ac85f3699587a9d9fb970785ccd0c2aaecf014a5dcc97ab710d2720"}, {"sequence": 4294967294, "scriptSig": {"hex": "483045022100dec0fed2344388bc9e47d60dba36abadce2b21d4e127735e2984e26f75f2d378022036b73b33911d4904e1976d353ff2c4a3133dd769a0d94b337cf3aba245d6f732012103c2c512a585434c21543c2b2e1a0ed045a6e5fa591b289b81c997b19044a3757b", "asm": "3045022100dec0fed2344388bc9e47d60dba36abadce2b21d4e127735e2984e26f75f2d378022036b73b33911d4904e1976d353ff2c4a3133dd769a0d94b337cf3aba245d6f732[ALL] 03c2c512a585434c21543c2b2e1a0ed045a6e5fa591b289b81c997b19044a3757b"}, "vout": 13, "txid": "dea5488214b34bf23bf35bfaa6a10a62f5417b2f69fc21e0b7279eab69c543cc"}, {"sequence": 4294967294, "scriptSig": {"hex": "483045022100f7ed87ce789d003b1ddc47ebd7d89eb8c49f1a0be9a378faf55c3356a65319770220653b74745f39d6e77d19d9cc065db17d6da5e549edfe632b2d895d8eea3547d701210347088c93cf47f67f702fdc7a61b70d270ba5767a9fb36ea2abd796c4a5ef2aa9", "asm": "3045022100f7ed87ce789d003b1ddc47ebd7d89eb8c49f1a0be9a378faf55c3356a65319770220653b74745f39d6e77d19d9cc065db17d6da5e549edfe632b2d895d8eea3547d7[ALL] 0347088c93cf47f67f702fdc7a61b70d270ba5767a9fb36ea2abd796c4a5ef2aa9"}, "vout": 0, "txid": "0006342bcf1457f0a4c99ead393c116a1fc8fe8bfcf95071f92e49b312352f2c"}], "txid": "a21239886a5c88f8759e48fc304db0693c74c85352f5455682c25fdb364af646", "blocktime": 1537873891, "version": 2, "confirmations": 11478, "time": 1537873891, "locktime": 542995, "vsize": 522, "size": 522}