{"hash": "a21b09bc3089eb43e517e67cb93bbe62d20114af0aff09ba223346476ef7778e", "blockhash": "0000000000000000001f76057863aec43deb6fa401d9628bb513d65a8098bfab", "vout": [{"scriptPubKey": {"reqSigs": 1, "hex": "76a914b41b061b80d2c46a1bf5e7cc66afdb3478194e8588ac", "addresses": ["1HRK1BSUyxKDcWWhce8bZZF8Ff2AgV7Tf9"], "asm": "OP_DUP OP_HASH160 b41b061b80d2c46a1bf5e7cc66afdb3478194e85 OP_EQUALVERIFY OP_CHECKSIG", "type": "pubkeyhash"}, "value": 6.51e-06, "n": 0}, {"scriptPubKey": {"reqSigs": 1, "hex": "a9141218c1ffda46cf5823b4a1e09813d0a61d06577a87", "addresses": ["33LhkCXRPk57wbXgbEdfGt4T2aydFDL8SJ"], "asm": "OP_HASH160 1218c1ffda46cf5823b4a1e09813d0a61d06577a OP_EQUAL", "type": "scripthash"}, "value": 0.01562469, "n": 1}], "hex": "0100000005a330cd34004d24f67b6a5de35ddc57cc369b3a6d1df301c01c25924a4e53ed2d000000006b483045022100f8afcd28dac1f4480c6e712ac66e87407522b90adea85444e45aa6819f56d46b022018036bacaf548478853c38fb5d9ce3321f745cbbdff9d54947dd3ac03e1a9e56012103a248e30d59d8f1aed0d87962403fe91762a772f31987b2ca3221dcc7a4ac52beffffffffad969fdd497c4aaf31fa23ecd54d028e575dfe8722fcd44ea0a876fe8340b753000000006a473044022039317d8e2db566e2a7f2cd02c6d0d09453635c7eda4b0127498364835748d6f102200a76cebe484197205e6a9463f37d9445cc6d4a9573de1ffb6bc0b29e4d7eed7e0121038531deaf024c2b8f3d6344b7f743129a2ebae6851ba8ea0afdf46c3b93c42b9bffffffff77eb2062a091469e009e30cb876cf2cd0baafa4e8983e791ecc2ed5e8fa4a65e000000006a47304402202724fa6ed3b08f575f3e49251f634b9a868243c6da748590ea04d605a526509102205aabeaaf01b635e034b18986a854e697736ad08879b3504ead5e1a35ffb91fb80121022514a58683623ec9b7e61b605f1a99575f84c37ea3d9d8707df1edb142efe628ffffffffc30091a369391dd657c0647917aa52c6a33c1bdc2ce68f488adcb1d225538c72010000006a47304402205125578eb7f5007b6b7ef56fe9653fb45d00f63a9c3b17b2f68ccb0a332d17ac022052cdfb869adca14c92b0adc675e4a9200fd3e8bbd54c13ab8a3546165145847c01210210240f21f4c02fa272f498f9863c2b86752a21a3bca0f0bdbb6a0b348d3c5512ffffffffeda7743b1ea041704e3241401ff23908c4502149836f4dd7a703d232817295b3000000006b483045022100cff9442a10fe5d2b868e7ede2b4dabd1ab102a373023da95fc5815e429e9535202203ea355dc8789b09911ca28170eb76815b45cd6b2096a2987a601b653b007c768012102add5263eb61f5a934b2524db35de05878ae82922a9797cef95d39e3ac38b926fffffffff028b020000000000001976a914b41b061b80d2c46a1bf5e7cc66afdb3478194e8588ac65d717000000000017a9141218c1ffda46cf5823b4a1e09813d0a61d06577a8700000000", "vin": [{"sequence": 4294967295, "scriptSig": {"hex": "483045022100f8afcd28dac1f4480c6e712ac66e87407522b90adea85444e45aa6819f56d46b022018036bacaf548478853c38fb5d9ce3321f745cbbdff9d54947dd3ac03e1a9e56012103a248e30d59d8f1aed0d87962403fe91762a772f31987b2ca3221dcc7a4ac52be", "asm": "3045022100f8afcd28dac1f4480c6e712ac66e87407522b90adea85444e45aa6819f56d46b022018036bacaf548478853c38fb5d9ce3321f745cbbdff9d54947dd3ac03e1a9e56[ALL] 03a248e30d59d8f1aed0d87962403fe91762a772f31987b2ca3221dcc7a4ac52be"}, "vout": 0, "txid": "2ded534e4a92251cc001f31d6d3a9b36cc57dc5de35d6a7bf6244d0034cd30a3"}, {"sequence": 4294967295, "scriptSig": {"hex": "473044022039317d8e2db566e2a7f2cd02c6d0d09453635c7eda4b0127498364835748d6f102200a76cebe484197205e6a9463f37d9445cc6d4a9573de1ffb6bc0b29e4d7eed7e0121038531deaf024c2b8f3d6344b7f743129a2ebae6851ba8ea0afdf46c3b93c42b9b", "asm": "3044022039317d8e2db566e2a7f2cd02c6d0d09453635c7eda4b0127498364835748d6f102200a76cebe484197205e6a9463f37d9445cc6d4a9573de1ffb6bc0b29e4d7eed7e[ALL] 038531deaf024c2b8f3d6344b7f743129a2ebae6851ba8ea0afdf46c3b93c42b9b"}, "vout": 0, "txid": "53b74083fe76a8a04ed4fc2287fe5d578e024dd5ec23fa31af4a7c49dd9f96ad"}, {"sequence": 4294967295, "scriptSig": {"hex": "47304402202724fa6ed3b08f575f3e49251f634b9a868243c6da748590ea04d605a526509102205aabeaaf01b635e034b18986a854e697736ad08879b3504ead5e1a35ffb91fb80121022514a58683623ec9b7e61b605f1a99575f84c37ea3d9d8707df1edb142efe628", "asm": "304402202724fa6ed3b08f575f3e49251f634b9a868243c6da748590ea04d605a526509102205aabeaaf01b635e034b18986a854e697736ad08879b3504ead5e1a35ffb91fb8[ALL] 022514a58683623ec9b7e61b605f1a99575f84c37ea3d9d8707df1edb142efe628"}, "vout": 0, "txid": "5ea6a48f5eedc2ec91e783894efaaa0bcdf26c87cb309e009e4691a06220eb77"}, {"sequence": 4294967295, "scriptSig": {"hex": "47304402205125578eb7f5007b6b7ef56fe9653fb45d00f63a9c3b17b2f68ccb0a332d17ac022052cdfb869adca14c92b0adc675e4a9200fd3e8bbd54c13ab8a3546165145847c01210210240f21f4c02fa272f498f9863c2b86752a21a3bca0f0bdbb6a0b348d3c5512", "asm": "304402205125578eb7f5007b6b7ef56fe9653fb45d00f63a9c3b17b2f68ccb0a332d17ac022052cdfb869adca14c92b0adc675e4a9200fd3e8bbd54c13ab8a3546165145847c[ALL] 0210240f21f4c02fa272f498f9863c2b86752a21a3bca0f0bdbb6a0b348d3c5512"}, "vout": 1, "txid": "728c5325d2b1dc8a488fe62cdc1b3ca3c652aa177964c057d61d3969a39100c3"}, {"sequence": 4294967295, "scriptSig": {"hex": "483045022100cff9442a10fe5d2b868e7ede2b4dabd1ab102a373023da95fc5815e429e9535202203ea355dc8789b09911ca28170eb76815b45cd6b2096a2987a601b653b007c768012102add5263eb61f5a934b2524db35de05878ae82922a9797cef95d39e3ac38b926f", "asm": "3045022100cff9442a10fe5d2b868e7ede2b4dabd1ab102a373023da95fc5815e429e9535202203ea355dc8789b09911ca28170eb76815b45cd6b2096a2987a601b653b007c768[ALL] 02add5263eb61f5a934b2524db35de05878ae82922a9797cef95d39e3ac38b926f"}, "vout": 0, "txid": "b395728132d203a7d74d6f83492150c40839f21f4041324e7041a01e3b74a7ed"}], "txid": "a21b09bc3089eb43e517e67cb93bbe62d20114af0aff09ba223346476ef7778e", "blocktime": 1537873891, "version": 1, "confirmations": 11478, "time": 1537873891, "locktime": 0, "vsize": 813, "size": 813}