{"hash": "a22442c015560b4eb3c5e7f691e780d776882de49e96d0051f3c6aac38122190", "blockhash": "00000000000000000004ffacab907a6b429b9a5745fa0b75af4234bf69dd7176", "vout": [{"scriptPubKey": {"reqSigs": 1, "hex": "76a9147e394df003637eec7f273ec934b3c6cd223a0be888ac", "addresses": ["1CWQnkggABK8v2gr5r491CBDFVQ3o6drmM"], "asm": "OP_DUP OP_HASH160 7e394df003637eec7f273ec934b3c6cd223a0be8 OP_EQUALVERIFY OP_CHECKSIG", "type": "pubkeyhash"}, "value": 0.001, "n": 0}, {"scriptPubKey": {"reqSigs": 1, "hex": "76a914e163d073e054266d0f5e025eebd6100b0c946b5b88ac", "addresses": ["1MYkcNyCtPmxivKoMy5v5VBkv6LuBrgrAy"], "asm": "OP_DUP OP_HASH160 e163d073e054266d0f5e025eebd6100b0c946b5b OP_EQUALVERIFY OP_CHECKSIG", "type": "pubkeyhash"}, "value": 0.0817032, "n": 1}], "hex": "01000000013311c4cda8ef39d0d70b461883cc312af494f5dba9fda7da2fe8d1f655ad693b010000006b4830450221009ed16e86e090523142c41c87288ad9ac79ff5e2eebc90b50f17d48e147a1502102204a3bc67a6a066bb4bece697291989b2df86bd500470d557ec1564b645ef24f2b0121033387315522fd785dc6a3184e4f2acbd937f90409a105c06583c94e6554220085ffffffff02a0860100000000001976a9147e394df003637eec7f273ec934b3c6cd223a0be888ac50ab7c00000000001976a914e163d073e054266d0f5e025eebd6100b0c946b5b88ac00000000", "vin": [{"sequence": 4294967295, "scriptSig": {"hex": "4830450221009ed16e86e090523142c41c87288ad9ac79ff5e2eebc90b50f17d48e147a1502102204a3bc67a6a066bb4bece697291989b2df86bd500470d557ec1564b645ef24f2b0121033387315522fd785dc6a3184e4f2acbd937f90409a105c06583c94e6554220085", "asm": "30450221009ed16e86e090523142c41c87288ad9ac79ff5e2eebc90b50f17d48e147a1502102204a3bc67a6a066bb4bece697291989b2df86bd500470d557ec1564b645ef24f2b[ALL] 033387315522fd785dc6a3184e4f2acbd937f90409a105c06583c94e6554220085"}, "vout": 1, "txid": "3b69ad55f6d1e82fdaa7fda9dbf594f42a31cc8318460bd7d039efa8cdc41133"}], "txid": "a22442c015560b4eb3c5e7f691e780d776882de49e96d0051f3c6aac38122190", "blocktime": 1537875543, "version": 1, "confirmations": 11464, "time": 1537875543, "locktime": 0, "vsize": 226, "size": 226}