{"hash": "a229ff05d874bfd7ec34bfa73aa05c9e2659cb8c45adbdb357f352569ba7ab15", "blockhash": "000000000000000000022b45ed06c6f4ccd3cf7fb5ba4856ebd2e58215665228", "vout": [{"scriptPubKey": {"reqSigs": 1, "hex": "76a91465db36d8717a9ace98c9f164b7d9fd52efe0827488ac", "addresses": ["1AHZreYXCDErxh9HJjuig6eiZuDHbi7PhB"], "asm": "OP_DUP OP_HASH160 65db36d8717a9ace98c9f164b7d9fd52efe08274 OP_EQUALVERIFY OP_CHECKSIG", "type": "pubkeyhash"}, "value": 0.00421323, "n": 0}, {"scriptPubKey": {"reqSigs": 1, "hex": "76a9140953c254ae20ccd3e950522bb325ce4f910a889788ac", "addresses": ["1rKRQquJMr5QWDRMPSLMEB9kmPmfGMnU1"], "asm": "OP_DUP OP_HASH160 0953c254ae20ccd3e950522bb325ce4f910a8897 OP_EQUALVERIFY OP_CHECKSIG", "type": "pubkeyhash"}, "value": 0.0059412, "n": 1}], "hex": "010000000103f223b4a279b5faad09f125900a6542a87e98ff3e159ab2aff6d67f252853d0010000006a47304402207cd7ab4b7a0cba6b08d3a5001efbae31c353e5b692e213669011aa9f26fc838c02200649f9e3d98b6b33b02e9336a5e3b98d64642068b8ab0e175756c801918d11f30121029d72b4e065112c435f7359bc57d0fe7089012461698b4293b7c3c3b5f5ed5b51ffffffff02cb6d0600000000001976a91465db36d8717a9ace98c9f164b7d9fd52efe0827488acc8100900000000001976a9140953c254ae20ccd3e950522bb325ce4f910a889788ac00000000", "vin": [{"sequence": 4294967295, "scriptSig": {"hex": "47304402207cd7ab4b7a0cba6b08d3a5001efbae31c353e5b692e213669011aa9f26fc838c02200649f9e3d98b6b33b02e9336a5e3b98d64642068b8ab0e175756c801918d11f30121029d72b4e065112c435f7359bc57d0fe7089012461698b4293b7c3c3b5f5ed5b51", "asm": "304402207cd7ab4b7a0cba6b08d3a5001efbae31c353e5b692e213669011aa9f26fc838c02200649f9e3d98b6b33b02e9336a5e3b98d64642068b8ab0e175756c801918d11f3[ALL] 029d72b4e065112c435f7359bc57d0fe7089012461698b4293b7c3c3b5f5ed5b51"}, "vout": 1, "txid": "d05328257fd6f6afb29a153eff987ea842650a9025f109adfab579a2b423f203"}], "txid": "a229ff05d874bfd7ec34bfa73aa05c9e2659cb8c45adbdb357f352569ba7ab15", "blocktime": 1537869901, "version": 1, "confirmations": 11524, "time": 1537869901, "locktime": 0, "vsize": 225, "size": 225}