{"hash": "7bd414a27d554f74e97db773c828dc59e1c49759e16f9bbc3fe8b3108128ebfe", "blockhash": "0000000000000000000dcc0f55137456b1a82d3642486a52398922ac4d620174", "vout": [{"scriptPubKey": {"reqSigs": 1, "hex": "a91469f37474d54b86f88de57d2dacfd104c55ac146587", "addresses": ["3BMEXEGFEjyxf1gm45zszXc8ruvTL1d3sT"], "asm": "OP_HASH160 69f37474d54b86f88de57d2dacfd104c55ac1465 OP_EQUAL", "type": "scripthash"}, "value": 0.12564725, "n": 0}, {"scriptPubKey": {"reqSigs": 1, "hex": "a914fe338045ecf0eafbea1c1a6a6c2d28759139e4f587", "addresses": ["3Qs7FdEbNMdvoVXTMiKjTggPwFoBKRjf42"], "asm": "OP_HASH160 fe338045ecf0eafbea1c1a6a6c2d28759139e4f5 OP_EQUAL", "type": "scripthash"}, "value": 0.00999372, "n": 1}], "hex": "020000000001021ea7ba969a05c3097d749b9b06c0112310588c8f81e7eee43ac7b89a7f31e0300000000017160014e563a6efebbeda5309d9d196d8c7491f1a49902ffdffffff4aa175b10ffcf53285638835f63eaa7622da42d961cf2aea7097db5e734bb71e010000001716001477d11988530bf3ba11d95bf339b7075a62051236fdffffff02f5b8bf000000000017a91469f37474d54b86f88de57d2dacfd104c55ac146587cc3f0f000000000017a914fe338045ecf0eafbea1c1a6a6c2d28759139e4f58702473044022063a997e62b25833ecce06577dfdc8f937a43e6e5b3640d2a73ea515fa80029c602203ca3a6d44273c6df77e1f2ace60465ef4cf8e5eabc046c9edf130bd89f797f3b0121028611a078c12f801245acc14d1c467cc54506fbdc50be23c7280b25d9a56995eb02483045022100a6b88c24ab5f4c0523f3e21603f7e6bec210286fec234912fa8894d4b58a7aac022030cc9d380dcdb845b1ec7f4e7887e96dbaada1b4a32426289a84f36c11b0e0b9012103945d28e23452627ae14a844c8c55ec632082d30e6cbb5034ee75bbacc38a835900000000", "vin": [{"txinwitness": ["3044022063a997e62b25833ecce06577dfdc8f937a43e6e5b3640d2a73ea515fa80029c602203ca3a6d44273c6df77e1f2ace60465ef4cf8e5eabc046c9edf130bd89f797f3b01", "028611a078c12f801245acc14d1c467cc54506fbdc50be23c7280b25d9a56995eb"], "sequence": 4294967293, "scriptSig": {"hex": "160014e563a6efebbeda5309d9d196d8c7491f1a49902f", "asm": "0014e563a6efebbeda5309d9d196d8c7491f1a49902f"}, "vout": 0, "txid": "30e0317f9ab8c73ae4eee7818f8c58102311c0069b9b747d09c3059a96baa71e"}, {"txinwitness": ["3045022100a6b88c24ab5f4c0523f3e21603f7e6bec210286fec234912fa8894d4b58a7aac022030cc9d380dcdb845b1ec7f4e7887e96dbaada1b4a32426289a84f36c11b0e0b901", "03945d28e23452627ae14a844c8c55ec632082d30e6cbb5034ee75bbacc38a8359"], "sequence": 4294967293, "scriptSig": {"hex": "16001477d11988530bf3ba11d95bf339b7075a62051236", "asm": "001477d11988530bf3ba11d95bf339b7075a62051236"}, "vout": 1, "txid": "1eb74b735edb9770ea2acf61d942da2276aa3ef63588638532f5fc0fb175a14a"}], "txid": "a22b17bad5599ea7ae377dad1b9f5c7f41f855fa2db7ce71bcfc97724d72afd4", "blocktime": 1537870268, "version": 2, "confirmations": 11518, "time": 1537870268, "locktime": 0, "vsize": 257, "size": 419}