{"hash": "a22c982ec67a5b213f9eba0a8ce80f2432848039ce0df60287cafe1f66cef22d", "blockhash": "0000000000000000000baef3f32e3676a92c3b2e5da21b426e4f302fc371ce76", "vout": [{"scriptPubKey": {"reqSigs": 1, "hex": "76a9142b197340c749da532979ca4da1c9915666e88c5188ac", "addresses": ["14vtYZVC4bFEM5XWr487TSi2zbeFFJsTNv"], "asm": "OP_DUP OP_HASH160 2b197340c749da532979ca4da1c9915666e88c51 OP_EQUALVERIFY OP_CHECKSIG", "type": "pubkeyhash"}, "value": 0.0075, "n": 0}, {"scriptPubKey": {"reqSigs": 1, "hex": "76a9147711eab6ffcc99e4376ac39f4022de413e1ea2a988ac", "addresses": ["1BrasiLb2KMbdtuhb1chAVnS2FvcNGfV9J"], "asm": "OP_DUP OP_HASH160 7711eab6ffcc99e4376ac39f4022de413e1ea2a9 OP_EQUALVERIFY OP_CHECKSIG", "type": "pubkeyhash"}, "value": 0.08658846, "n": 1}], "hex": "0200000001fb8c6d4c22f2e764a826bf0015e9cc82b993f76a90071ea131a3601a63604769010000008b48304502210094ee70c46258f79bcce26faf00037819b647a24c31b4ac5c6bc84576de549ce002203f4c09636e0e90359554d9db65d162d8b2f968df4e63260813ce95589c633b1501410470584e87f314924f00c5ca78dd0d7147a3d125135f0a9f89eaf5615fcd1899f0cec436790e08c3947b07b36039bb36e6e1283e39459242d48249c4e5fbc6de7effffffff02b0710b00000000001976a9142b197340c749da532979ca4da1c9915666e88c5188ac9e1f8400000000001976a9147711eab6ffcc99e4376ac39f4022de413e1ea2a988ac00000000", "vin": [{"sequence": 4294967295, "scriptSig": {"hex": "48304502210094ee70c46258f79bcce26faf00037819b647a24c31b4ac5c6bc84576de549ce002203f4c09636e0e90359554d9db65d162d8b2f968df4e63260813ce95589c633b1501410470584e87f314924f00c5ca78dd0d7147a3d125135f0a9f89eaf5615fcd1899f0cec436790e08c3947b07b36039bb36e6e1283e39459242d48249c4e5fbc6de7e", "asm": "304502210094ee70c46258f79bcce26faf00037819b647a24c31b4ac5c6bc84576de549ce002203f4c09636e0e90359554d9db65d162d8b2f968df4e63260813ce95589c633b15[ALL] 0470584e87f314924f00c5ca78dd0d7147a3d125135f0a9f89eaf5615fcd1899f0cec436790e08c3947b07b36039bb36e6e1283e39459242d48249c4e5fbc6de7e"}, "vout": 1, "txid": "694760631a60a331a11e07906af793b982cce91500bf26a864e7f2224c6d8cfb"}], "txid": "a22c982ec67a5b213f9eba0a8ce80f2432848039ce0df60287cafe1f66cef22d", "blocktime": 1537876114, "version": 2, "confirmations": 11460, "time": 1537876114, "locktime": 0, "vsize": 258, "size": 258}