{"hash": "a239eb0946ab7928e50d01566d4f70e2c320429b58d5766bc516bdd183b883f4", "blockhash": "0000000000000000001f76057863aec43deb6fa401d9628bb513d65a8098bfab", "vout": [{"scriptPubKey": {"reqSigs": 1, "hex": "76a91465e321c5e11e67d19c7f2bbfa566ff39ae32a38d88ac", "addresses": ["1AHjLn7J4Rmy4mGRQCDY6SHKKCrscJQCmq"], "asm": "OP_DUP OP_HASH160 65e321c5e11e67d19c7f2bbfa566ff39ae32a38d OP_EQUALVERIFY OP_CHECKSIG", "type": "pubkeyhash"}, "value": 0.01506766, "n": 0}, {"scriptPubKey": {"reqSigs": 1, "hex": "76a9143e24bb5a2202bfafcf08dc82129f07dad380d1fa88ac", "addresses": ["16fau4sZbodELrwt3CUtXih5YVfiCayJ9P"], "asm": "OP_DUP OP_HASH160 3e24bb5a2202bfafcf08dc82129f07dad380d1fa OP_EQUALVERIFY OP_CHECKSIG", "type": "pubkeyhash"}, "value": 0.62078898, "n": 1}], "hex": "020000000167ad8fd536c7a696120e6fdaed86cc29157a73680c660e60000283a370132ca7000000006a473044022063da47e9e3898c04cc40b5579a28cd4a6cd65a0ee943cd5535a1c6ea6718c0cd02202f408040db1ca9f2f305741b397e2e4cffbaef590f993d6f8a4f17cc75a48c48012102d3958b6bc45abea19f24586c1a0290303c17b4a6f98fe10313654ca89ecda3d5feffffff02cefd1600000000001976a91465e321c5e11e67d19c7f2bbfa566ff39ae32a38d88acb23fb303000000001976a9143e24bb5a2202bfafcf08dc82129f07dad380d1fa88ac14490800", "vin": [{"sequence": 4294967294, "scriptSig": {"hex": "473044022063da47e9e3898c04cc40b5579a28cd4a6cd65a0ee943cd5535a1c6ea6718c0cd02202f408040db1ca9f2f305741b397e2e4cffbaef590f993d6f8a4f17cc75a48c48012102d3958b6bc45abea19f24586c1a0290303c17b4a6f98fe10313654ca89ecda3d5", "asm": "3044022063da47e9e3898c04cc40b5579a28cd4a6cd65a0ee943cd5535a1c6ea6718c0cd02202f408040db1ca9f2f305741b397e2e4cffbaef590f993d6f8a4f17cc75a48c48[ALL] 02d3958b6bc45abea19f24586c1a0290303c17b4a6f98fe10313654ca89ecda3d5"}, "vout": 0, "txid": "a72c1370a3830200600e660c68737a1529cc86edda6f0e1296a6c736d58fad67"}], "txid": "a239eb0946ab7928e50d01566d4f70e2c320429b58d5766bc516bdd183b883f4", "blocktime": 1537873891, "version": 2, "confirmations": 11474, "time": 1537873891, "locktime": 542996, "vsize": 225, "size": 225}