{"hash": "d96a1b3eea35544af758c8f78a28b9bdeb92591ca43de5d94bc8c1a7bfadbe68", "blockhash": "0000000000000000000e13cef7c366c0283d82e591d1acd082e914b08063cdf1", "vout": [{"scriptPubKey": {"reqSigs": 1, "hex": "76a91409b89d8213ea32bb5da0faaa217a60491e13d5fd88ac", "addresses": ["1tQF2AQmAJ1qLE9xyZSbgV3QaEkP6uaQg"], "asm": "OP_DUP OP_HASH160 09b89d8213ea32bb5da0faaa217a60491e13d5fd OP_EQUALVERIFY OP_CHECKSIG", "type": "pubkeyhash"}, "value": 0.40942983, "n": 0}, {"scriptPubKey": {"reqSigs": 1, "hex": "a9146a1738c7b11330cd057308a691e8fc493773bc2887", "addresses": ["3BMyNMdbihb92KX5De6T78uqgcJja6r31M"], "asm": "OP_HASH160 6a1738c7b11330cd057308a691e8fc493773bc28 OP_EQUAL", "type": "scripthash"}, "value": 12.64528904, "n": 1}], "hex": "020000000001014a44c0da1806a3d26d544b64c3864f090fcff6375c92e0005f706f2ad62d6f6d0000000017160014ca998cf1d419a33f7d73bbe9f5f43d79bdef4b09feffffff0287bd7002000000001976a91409b89d8213ea32bb5da0faaa217a60491e13d5fd88ac082e5f4b0000000017a9146a1738c7b11330cd057308a691e8fc493773bc288702473044022065d451f7dd1f6bd0cbf700ad741a269c7a513df5f6d266ea3984f87483156524022063d8c5b9e379ee1a1d469c01e782e679eee48827589804c11cc0f425108264b00121025d7ab88dd6c0d5e548c58fda764673cfe47657432a0b08ecd14a5f712c66689010490800", "vin": [{"txinwitness": ["3044022065d451f7dd1f6bd0cbf700ad741a269c7a513df5f6d266ea3984f87483156524022063d8c5b9e379ee1a1d469c01e782e679eee48827589804c11cc0f425108264b001", "025d7ab88dd6c0d5e548c58fda764673cfe47657432a0b08ecd14a5f712c666890"], "sequence": 4294967294, "scriptSig": {"hex": "160014ca998cf1d419a33f7d73bbe9f5f43d79bdef4b09", "asm": "0014ca998cf1d419a33f7d73bbe9f5f43d79bdef4b09"}, "vout": 0, "txid": "6d6f2dd62a6f705f00e0925c37f6cf0f094f86c3644b546dd2a30618dac0444a"}], "txid": "a23a6cb6abb72f7c38f74b03d5b025cafd8bccecb3e04a0f255d05d3d7cd6fcf", "blocktime": 1537871767, "version": 2, "confirmations": 11490, "time": 1537871767, "locktime": 542992, "vsize": 168, "size": 249}