{"hash": "a23f4f8eb50a6af5b9f6a550eba7b12da28392f0feefb64c2625a90507a0affc", "blockhash": "00000000000000000024a2167bbff67b0be802c0b01cdd79e6331c2be6459f87", "vout": [{"scriptPubKey": {"reqSigs": 1, "hex": "a91456fb43e49199ef203d6891e03b4353cde69b384387", "addresses": ["39cw3FfxNUUDKBr9F77qe8qY8ecRmzAQoW"], "asm": "OP_HASH160 56fb43e49199ef203d6891e03b4353cde69b3843 OP_EQUAL", "type": "scripthash"}, "value": 0.01199427, "n": 0}], "hex": "0100000001c43a86b8ac0d7f007aa8056d93641063373ab5413200c09413b605533b30b78d000000006a473044022046724532bca66a9e980cca94e4312a6ebfcaa856331fa75c05c88a59dbca893402202b8255753d8520ed547443e9018b54ea12ea8b555723ee1d34b3855a650b7d300121031cfe8858d4de17f3220c0dcf7c7c2c6fafd50958e3e2a4a8fa64409d786bc94bffffffff01434d12000000000017a91456fb43e49199ef203d6891e03b4353cde69b38438700000000", "vin": [{"sequence": 4294967295, "scriptSig": {"hex": "473044022046724532bca66a9e980cca94e4312a6ebfcaa856331fa75c05c88a59dbca893402202b8255753d8520ed547443e9018b54ea12ea8b555723ee1d34b3855a650b7d300121031cfe8858d4de17f3220c0dcf7c7c2c6fafd50958e3e2a4a8fa64409d786bc94b", "asm": "3044022046724532bca66a9e980cca94e4312a6ebfcaa856331fa75c05c88a59dbca893402202b8255753d8520ed547443e9018b54ea12ea8b555723ee1d34b3855a650b7d30[ALL] 031cfe8858d4de17f3220c0dcf7c7c2c6fafd50958e3e2a4a8fa64409d786bc94b"}, "vout": 0, "txid": "8db7303b5305b61394c0003241b53a37631064936d05a87a007f0dacb8863ac4"}], "txid": "a23f4f8eb50a6af5b9f6a550eba7b12da28392f0feefb64c2625a90507a0affc", "blocktime": 1537870564, "version": 1, "confirmations": 11515, "time": 1537870564, "locktime": 0, "vsize": 189, "size": 189}