{"hash": "a2418a8190dfaa9556172e481a98fcdf021cb8b41677ff188013e66c42d23cf8", "blockhash": "0000000000000000001f76057863aec43deb6fa401d9628bb513d65a8098bfab", "vout": [{"scriptPubKey": {"reqSigs": 1, "hex": "76a9143ab94c8cdff50a85b963d8baf522b65936189ffb88ac", "addresses": ["16MWAvq8wphfdw16RAYsMvRMSeg4JruTAJ"], "asm": "OP_DUP OP_HASH160 3ab94c8cdff50a85b963d8baf522b65936189ffb OP_EQUALVERIFY OP_CHECKSIG", "type": "pubkeyhash"}, "value": 0.07806084, "n": 0}, {"scriptPubKey": {"reqSigs": 1, "hex": "76a9146f2621f2471d775b6c949672ac14ee7559577caa88ac", "addresses": ["1B8hgnzHLWj1Nz8djG4eLbm1dntjrwLdeu"], "asm": "OP_DUP OP_HASH160 6f2621f2471d775b6c949672ac14ee7559577caa OP_EQUALVERIFY OP_CHECKSIG", "type": "pubkeyhash"}, "value": 1.79413719, "n": 1}], "hex": "0100000001f251dbbf6c9387730c7cda24a1863becf5f420b658b96490611d8a1c3563a10b010000006a4730440220442124cff716c9c5c150d5f7744a100cf2bac03bc7efdf2b9a3effd2ada1ae5b0220420b955ea7688b1e118bcc707b8eadee997368d7671be20a87d8c9e29bf7ca5f012102227de73d4af91f52983824e91ae639def863fc31dd705670d10ba50942c388efffffffff02841c7700000000001976a9143ab94c8cdff50a85b963d8baf522b65936189ffb88acd7a2b10a000000001976a9146f2621f2471d775b6c949672ac14ee7559577caa88ac00000000", "vin": [{"sequence": 4294967295, "scriptSig": {"hex": "4730440220442124cff716c9c5c150d5f7744a100cf2bac03bc7efdf2b9a3effd2ada1ae5b0220420b955ea7688b1e118bcc707b8eadee997368d7671be20a87d8c9e29bf7ca5f012102227de73d4af91f52983824e91ae639def863fc31dd705670d10ba50942c388ef", "asm": "30440220442124cff716c9c5c150d5f7744a100cf2bac03bc7efdf2b9a3effd2ada1ae5b0220420b955ea7688b1e118bcc707b8eadee997368d7671be20a87d8c9e29bf7ca5f[ALL] 02227de73d4af91f52983824e91ae639def863fc31dd705670d10ba50942c388ef"}, "vout": 1, "txid": "0ba163351c8a1d619064b958b620f4f5ec3b86a124da7c0c7387936cbfdb51f2"}], "txid": "a2418a8190dfaa9556172e481a98fcdf021cb8b41677ff188013e66c42d23cf8", "blocktime": 1537873891, "version": 1, "confirmations": 11478, "time": 1537873891, "locktime": 0, "vsize": 225, "size": 225}