{"hash": "a241c4242193ccfd37a160b6f113b06ee35bbad435c5a58e11d4b32d70a358d7", "blockhash": "0000000000000000001e0dab787dd257d1dbfcb92a98c2207d5e1078be1f4165", "vout": [{"scriptPubKey": {"reqSigs": 1, "hex": "76a9149868f191ae6ec8e3b019e39cff6577ce511ccb0788ac", "addresses": ["1EtsRmdHxX4n6Q1ARFF2mhGAV8AT54B2qi"], "asm": "OP_DUP OP_HASH160 9868f191ae6ec8e3b019e39cff6577ce511ccb07 OP_EQUALVERIFY OP_CHECKSIG", "type": "pubkeyhash"}, "value": 0.00062509, "n": 0}, {"scriptPubKey": {"reqSigs": 1, "hex": "76a9144a4178d7c4b048592048db55bbe53ee773a9384688ac", "addresses": ["17mdSGpP3WcTmPGsXNcDMeT3V21gaZS2NF"], "asm": "OP_DUP OP_HASH160 4a4178d7c4b048592048db55bbe53ee773a93846 OP_EQUALVERIFY OP_CHECKSIG", "type": "pubkeyhash"}, "value": 0.00418998, "n": 1}], "hex": "010000000140b5453715c60d67bc43b381693faf991f156ec2c9984cbff1369c552da6d1cf3c0000006b483045022100e7e981585ebc1774403a3a7f67bb07797556e96888d9ba80a4faca584b59c9cc02207746bac5cd169cbfc7ffe0f354c4c8c5ff758c78a0b412f1c10f4280d2549147012103c2d21c169436103b5d2facf98f4e9946c3cce07853a9c93e6ef717957630c062ffffffff022df40000000000001976a9149868f191ae6ec8e3b019e39cff6577ce511ccb0788acb6640600000000001976a9144a4178d7c4b048592048db55bbe53ee773a9384688ac00000000", "vin": [{"sequence": 4294967295, "scriptSig": {"hex": "483045022100e7e981585ebc1774403a3a7f67bb07797556e96888d9ba80a4faca584b59c9cc02207746bac5cd169cbfc7ffe0f354c4c8c5ff758c78a0b412f1c10f4280d2549147012103c2d21c169436103b5d2facf98f4e9946c3cce07853a9c93e6ef717957630c062", "asm": "3045022100e7e981585ebc1774403a3a7f67bb07797556e96888d9ba80a4faca584b59c9cc02207746bac5cd169cbfc7ffe0f354c4c8c5ff758c78a0b412f1c10f4280d2549147[ALL] 03c2d21c169436103b5d2facf98f4e9946c3cce07853a9c93e6ef717957630c062"}, "vout": 60, "txid": "cfd1a62d559c36f1bf4c98c9c26e151f99af3f6981b343bc670dc6153745b540"}], "txid": "a241c4242193ccfd37a160b6f113b06ee35bbad435c5a58e11d4b32d70a358d7", "blocktime": 1537872475, "version": 1, "confirmations": 11487, "time": 1537872475, "locktime": 0, "vsize": 226, "size": 226}