{"hash": "a25351fd3b2ded2669ec3257946bd83b4c548111d43651beb9a20f6c78f6c42d", "blockhash": "000000000000000000022b45ed06c6f4ccd3cf7fb5ba4856ebd2e58215665228", "vout": [{"scriptPubKey": {"reqSigs": 1, "hex": "a91467409fea554845b52c299639d7a79eb6a20e19f487", "addresses": ["3B6xwW8TmnmvNR5g8uVL3svqVN4kXpWNsR"], "asm": "OP_HASH160 67409fea554845b52c299639d7a79eb6a20e19f4 OP_EQUAL", "type": "scripthash"}, "value": 0.001723, "n": 0}, {"scriptPubKey": {"reqSigs": 1, "hex": "76a914347818d2168ec7b70a26406aa69a75616e24702388ac", "addresses": ["15nS1TZYtbJy2N1NcGHQk2VvZMPyYpAibT"], "asm": "OP_DUP OP_HASH160 347818d2168ec7b70a26406aa69a75616e247023 OP_EQUALVERIFY OP_CHECKSIG", "type": "pubkeyhash"}, "value": 0.0018159, "n": 1}], "hex": "01000000017aad97e5ac486d41bca9b0d0d393aeb9a5145878bfcb0c657e9e414ca8a4db0b010000006a473044022040e68241d73baf9e59e6733e6801301e927a00bf5795b057755f0c5197f5328602206a5f237dd185bf5ee1aa882efb2eb7d97d5cbb7a3983d05ad816a6d02f42fac9012102a0e6d1caafec951080f7ed55fc4e295880799e13d08af873c178c565d27f9775ffffffff020ca102000000000017a91467409fea554845b52c299639d7a79eb6a20e19f48756c50200000000001976a914347818d2168ec7b70a26406aa69a75616e24702388ac00000000", "vin": [{"sequence": 4294967295, "scriptSig": {"hex": "473044022040e68241d73baf9e59e6733e6801301e927a00bf5795b057755f0c5197f5328602206a5f237dd185bf5ee1aa882efb2eb7d97d5cbb7a3983d05ad816a6d02f42fac9012102a0e6d1caafec951080f7ed55fc4e295880799e13d08af873c178c565d27f9775", "asm": "3044022040e68241d73baf9e59e6733e6801301e927a00bf5795b057755f0c5197f5328602206a5f237dd185bf5ee1aa882efb2eb7d97d5cbb7a3983d05ad816a6d02f42fac9[ALL] 02a0e6d1caafec951080f7ed55fc4e295880799e13d08af873c178c565d27f9775"}, "vout": 1, "txid": "0bdba4a84c419e7e650ccbbf785814a5b9ae93d3d0b0a9bc416d48ace597ad7a"}], "txid": "a25351fd3b2ded2669ec3257946bd83b4c548111d43651beb9a20f6c78f6c42d", "blocktime": 1537869901, "version": 1, "confirmations": 11524, "time": 1537869901, "locktime": 0, "vsize": 223, "size": 223}