{"hash": "049f98d0493bbd31af259d4ea809e9aed5896c624fb1895ab3bc2e0c17331fdc", "blockhash": "00000000000000000024a2167bbff67b0be802c0b01cdd79e6331c2be6459f87", "vout": [{"scriptPubKey": {"reqSigs": 1, "hex": "76a91444c54e13c5174c8f732485a0ba1993b24019d57788ac", "addresses": ["17GdK34FooDJQCzfQ2aNgUd8Q6WiQVXxpH"], "asm": "OP_DUP OP_HASH160 44c54e13c5174c8f732485a0ba1993b24019d577 OP_EQUALVERIFY OP_CHECKSIG", "type": "pubkeyhash"}, "value": 0.17156, "n": 0}], "hex": "0200000000010116102626ae22925a94ea5b69f4f6588b2198c9955ae69d1ba6b6fb77852f694d0100000017160014ae6464444b7ba4ebd3e1d0d44fae5278808beac5ffffffff01a0c70501000000001976a91444c54e13c5174c8f732485a0ba1993b24019d57788ac0247304402205e08307f790a313981191fd0668dd793996a0908bf279c0e47f214597e7ef02f022052c67bf30cb830341edf49278f0e536a90b5c024c604108e8615079e8fa6c8fa0121033642573e5220cb6d81304ddd6e23854435774f8998ec02070d6e5418d399292b00000000", "vin": [{"txinwitness": ["304402205e08307f790a313981191fd0668dd793996a0908bf279c0e47f214597e7ef02f022052c67bf30cb830341edf49278f0e536a90b5c024c604108e8615079e8fa6c8fa01", "033642573e5220cb6d81304ddd6e23854435774f8998ec02070d6e5418d399292b"], "sequence": 4294967295, "scriptSig": {"hex": "160014ae6464444b7ba4ebd3e1d0d44fae5278808beac5", "asm": "0014ae6464444b7ba4ebd3e1d0d44fae5278808beac5"}, "vout": 1, "txid": "4d692f8577fbb6a61b9de65a95c998218b58f6f4695bea945a9222ae26261016"}], "txid": "a2538b35f3882fa26445bafbae2219393b9f503ed7e236a8ebe64077fbe6b55f", "blocktime": 1537870564, "version": 2, "confirmations": 11515, "time": 1537870564, "locktime": 0, "vsize": 136, "size": 217}