{"hash": "a2582ec3a8aa25a84122e6e7378ae524d3271f5561c3e24450f9afa79eace140", "blockhash": "00000000000000000024a2167bbff67b0be802c0b01cdd79e6331c2be6459f87", "vout": [{"scriptPubKey": {"reqSigs": 1, "hex": "76a9140410570aa704b7222147cf6a3d2f2ff6b0f87aa688ac", "addresses": ["1NVH6GfMohBHVkSjMRHGKc9WSCXUMhFPT"], "asm": "OP_DUP OP_HASH160 0410570aa704b7222147cf6a3d2f2ff6b0f87aa6 OP_EQUALVERIFY OP_CHECKSIG", "type": "pubkeyhash"}, "value": 1.53e-05, "n": 0}, {"scriptPubKey": {"reqSigs": 1, "hex": "76a9146ebbcffd0728660ab04de93aa730a46ad321770088ac", "addresses": ["1B6WKYHmYJPPRahyBzD9hDPossxhh5qCf9"], "asm": "OP_DUP OP_HASH160 6ebbcffd0728660ab04de93aa730a46ad3217700 OP_EQUALVERIFY OP_CHECKSIG", "type": "pubkeyhash"}, "value": 0.0389, "n": 1}], "hex": "010000000201bce813169d98a027e3c696f261b22579e74997fdac6d7e42eaa05bb7c05579010000006b483045022100fb9aef599bb7ecb52a953185d54dc61d560391679f9119257c606427c1245fe0022037751faa323dce484b56e2b12ef7af396963083707276ef090201b54dca3204f0121036ca85cd896b3d29d86fead77e13146dacbddd9b8c6478a2d0b8469d7ed6e1a3affffffffaf941217b33824723d680b2216eec7d0fc33f129d8241ab5c6fe6dbdfc33e0bc000000006b483045022100cecea8f3bad0d9fbcc24f835a795d13acd129669f8ea6955803e30c6561d9747022023281f0d1904cb864c9ab82956d8d0126d15ae737f9fc469d278b43b96210129012103ead41af014d36fe9fac94ff5a7f2a44f8d3ac76c280e98e27ded970752d05ef9ffffffff02fa050000000000001976a9140410570aa704b7222147cf6a3d2f2ff6b0f87aa688ac505b3b00000000001976a9146ebbcffd0728660ab04de93aa730a46ad321770088ac00000000", "vin": [{"sequence": 4294967295, "scriptSig": {"hex": "483045022100fb9aef599bb7ecb52a953185d54dc61d560391679f9119257c606427c1245fe0022037751faa323dce484b56e2b12ef7af396963083707276ef090201b54dca3204f0121036ca85cd896b3d29d86fead77e13146dacbddd9b8c6478a2d0b8469d7ed6e1a3a", "asm": "3045022100fb9aef599bb7ecb52a953185d54dc61d560391679f9119257c606427c1245fe0022037751faa323dce484b56e2b12ef7af396963083707276ef090201b54dca3204f[ALL] 036ca85cd896b3d29d86fead77e13146dacbddd9b8c6478a2d0b8469d7ed6e1a3a"}, "vout": 1, "txid": "7955c0b75ba0ea427e6dacfd9749e77925b261f296c6e327a0989d1613e8bc01"}, {"sequence": 4294967295, "scriptSig": {"hex": "483045022100cecea8f3bad0d9fbcc24f835a795d13acd129669f8ea6955803e30c6561d9747022023281f0d1904cb864c9ab82956d8d0126d15ae737f9fc469d278b43b96210129012103ead41af014d36fe9fac94ff5a7f2a44f8d3ac76c280e98e27ded970752d05ef9", "asm": "3045022100cecea8f3bad0d9fbcc24f835a795d13acd129669f8ea6955803e30c6561d9747022023281f0d1904cb864c9ab82956d8d0126d15ae737f9fc469d278b43b96210129[ALL] 03ead41af014d36fe9fac94ff5a7f2a44f8d3ac76c280e98e27ded970752d05ef9"}, "vout": 0, "txid": "bce033fcbd6dfec6b51a24d829f133fcd0c7ee16220b683d722438b3171294af"}], "txid": "a2582ec3a8aa25a84122e6e7378ae524d3271f5561c3e24450f9afa79eace140", "blocktime": 1537870564, "version": 1, "confirmations": 11515, "time": 1537870564, "locktime": 0, "vsize": 374, "size": 374}