{"hash": "a25ac9d5125701df53cab44ae62f82b48d9493511fbb1b1879c7b94988a580d4", "blockhash": "000000000000000000022b45ed06c6f4ccd3cf7fb5ba4856ebd2e58215665228", "vout": [{"scriptPubKey": {"type": "nulldata", "hex": "6a146f6d6e69000000000000001f00000002457997fa", "asm": "OP_RETURN 6f6d6e69000000000000001f00000002457997fa"}, "value": 0.0, "n": 0}, {"scriptPubKey": {"reqSigs": 1, "hex": "76a9142df93b3f5d63348b1f181fb79b89bc5adf1539f688ac", "addresses": ["15C5yY6SqFQb9uksHBipTWfzvzZfi3dPGa"], "asm": "OP_DUP OP_HASH160 2df93b3f5d63348b1f181fb79b89bc5adf1539f6 OP_EQUALVERIFY OP_CHECKSIG", "type": "pubkeyhash"}, "value": 5.46e-06, "n": 1}, {"scriptPubKey": {"reqSigs": 1, "hex": "76a914a25dec4d0011064ef106a983c39c7a540699f22088ac", "addresses": ["1FoWyxwPXuj4C6abqwhjDWdz6D4PZgYRjA"], "asm": "OP_DUP OP_HASH160 a25dec4d0011064ef106a983c39c7a540699f220 OP_EQUALVERIFY OP_CHECKSIG", "type": "pubkeyhash"}, "value": 0.01990376, "n": 2}], "hex": "01000000017471d19b6ec8e6a1ba01d3bca66b19579edc822367e5c6b800255113452a8834020000006a4730440220756721d845816e7328492f6858749ea7c536f8818d91bc90f11e46a5425325df0220178276e4f74964a11747e9e1be045f883c323abebb710c514d7b420b0362a61a012103da5bac7b36d5aa38f531c6b9601e21bb598a4b6716ebed38b009a55dabde9440feffffff030000000000000000166a146f6d6e69000000000000001f00000002457997fa22020000000000001976a9142df93b3f5d63348b1f181fb79b89bc5adf1539f688ace85e1e00000000001976a914a25dec4d0011064ef106a983c39c7a540699f22088ac0b490800", "vin": [{"sequence": 4294967294, "scriptSig": {"hex": "4730440220756721d845816e7328492f6858749ea7c536f8818d91bc90f11e46a5425325df0220178276e4f74964a11747e9e1be045f883c323abebb710c514d7b420b0362a61a012103da5bac7b36d5aa38f531c6b9601e21bb598a4b6716ebed38b009a55dabde9440", "asm": "30440220756721d845816e7328492f6858749ea7c536f8818d91bc90f11e46a5425325df0220178276e4f74964a11747e9e1be045f883c323abebb710c514d7b420b0362a61a[ALL] 03da5bac7b36d5aa38f531c6b9601e21bb598a4b6716ebed38b009a55dabde9440"}, "vout": 2, "txid": "34882a4513512500b8c6e5672382dc9e57196ba6bcd301baa1e6c86e9bd17174"}], "txid": "a25ac9d5125701df53cab44ae62f82b48d9493511fbb1b1879c7b94988a580d4", "blocktime": 1537869901, "version": 1, "confirmations": 11522, "time": 1537869901, "locktime": 542987, "vsize": 256, "size": 256}