{"hash": "a25d43abac722acf050219f461e2e33e9bd66b86f77120255df5632c36f069d7", "blockhash": "0000000000000000001e0dab787dd257d1dbfcb92a98c2207d5e1078be1f4165", "vout": [{"scriptPubKey": {"reqSigs": 1, "hex": "a914447e1cd57db5c2c674c16fc2cf22ae90eba1586487", "addresses": ["37wAx3iDkd8YfGg7vjKhrhicK1XpdcJPkm"], "asm": "OP_HASH160 447e1cd57db5c2c674c16fc2cf22ae90eba15864 OP_EQUAL", "type": "scripthash"}, "value": 1.0, "n": 0}, {"scriptPubKey": {"reqSigs": 1, "hex": "76a9148909bdd6bc36877cb3171224fb781d49ab884ec588ac", "addresses": ["1DVbF8tkTiL2nzVN2HAkpZkLnUB6YBYozw"], "asm": "OP_DUP OP_HASH160 8909bdd6bc36877cb3171224fb781d49ab884ec5 OP_EQUALVERIFY OP_CHECKSIG", "type": "pubkeyhash"}, "value": 7.69851744, "n": 1}], "hex": "01000000018f55103520d8cbb2d4db81d90da8c417c3c1b1d8d9665d9dba5683876d43cc23010000006a47304402200264f25680b41afdb5a0e5f2160c53c76b03fb4cfe725c8c7d0519b8d8faa463022041e07362b30a5e73e0312f87cf057c18f60401fa4b2863bf3ae7f81cef8962e801210319a0f4f2a4b715d19e317a21512b19b18c07d294ab4f1ba16374568243e4a7f4ffffffff0200e1f5050000000017a914447e1cd57db5c2c674c16fc2cf22ae90eba15864876001e32d000000001976a9148909bdd6bc36877cb3171224fb781d49ab884ec588ac00000000", "vin": [{"sequence": 4294967295, "scriptSig": {"hex": "47304402200264f25680b41afdb5a0e5f2160c53c76b03fb4cfe725c8c7d0519b8d8faa463022041e07362b30a5e73e0312f87cf057c18f60401fa4b2863bf3ae7f81cef8962e801210319a0f4f2a4b715d19e317a21512b19b18c07d294ab4f1ba16374568243e4a7f4", "asm": "304402200264f25680b41afdb5a0e5f2160c53c76b03fb4cfe725c8c7d0519b8d8faa463022041e07362b30a5e73e0312f87cf057c18f60401fa4b2863bf3ae7f81cef8962e8[ALL] 0319a0f4f2a4b715d19e317a21512b19b18c07d294ab4f1ba16374568243e4a7f4"}, "vout": 1, "txid": "23cc436d878356ba9d5d66d9d8b1c1c317c4a80dd981dbd4b2cbd8203510558f"}], "txid": "a25d43abac722acf050219f461e2e33e9bd66b86f77120255df5632c36f069d7", "blocktime": 1537872475, "version": 1, "confirmations": 11486, "time": 1537872475, "locktime": 0, "vsize": 223, "size": 223}