{"hash": "a25e572becb0720a77dd6facf227376da0269b10d56e51fd2f09d926e503e53b", "blockhash": "00000000000000000004ffacab907a6b429b9a5745fa0b75af4234bf69dd7176", "vout": [{"scriptPubKey": {"reqSigs": 1, "hex": "76a914e4d812c6f53f88d794afa8697c6524abf333ab0388ac", "addresses": ["1Ms1un45HxG41jBaj5q8AEQXhmLufsyrzE"], "asm": "OP_DUP OP_HASH160 e4d812c6f53f88d794afa8697c6524abf333ab03 OP_EQUALVERIFY OP_CHECKSIG", "type": "pubkeyhash"}, "value": 2.71974468, "n": 0}, {"scriptPubKey": {"reqSigs": 1, "hex": "76a914b0a229003a17773276a7f90ece0f19f7129a5d3d88ac", "addresses": ["1H6xBrAFEwrjYgezT2JYqeqExKa1jg6R2W"], "asm": "OP_DUP OP_HASH160 b0a229003a17773276a7f90ece0f19f7129a5d3d OP_EQUALVERIFY OP_CHECKSIG", "type": "pubkeyhash"}, "value": 0.02751177, "n": 1}], "hex": "0100000001b8cc02d4937d79ef76a27f0a1c4f85c518030b42722d7d98b8e567e839689912000000006b483045022100fd0b1482b1adfa4c2c6f0defec326bc282bad32ac329227513fea2eb0bec6c0b022030ef1c8efe2025a97d642a1a4577d3d181fe56155087911014c4b0cff0740e77012102a5bbf2aa0ebe49cbd57b367b518ab7d3dbde32f04170287ac05b5c47a1af6315ffffffff0244003610000000001976a914e4d812c6f53f88d794afa8697c6524abf333ab0388acc9fa2900000000001976a914b0a229003a17773276a7f90ece0f19f7129a5d3d88ac00000000", "vin": [{"sequence": 4294967295, "scriptSig": {"hex": "483045022100fd0b1482b1adfa4c2c6f0defec326bc282bad32ac329227513fea2eb0bec6c0b022030ef1c8efe2025a97d642a1a4577d3d181fe56155087911014c4b0cff0740e77012102a5bbf2aa0ebe49cbd57b367b518ab7d3dbde32f04170287ac05b5c47a1af6315", "asm": "3045022100fd0b1482b1adfa4c2c6f0defec326bc282bad32ac329227513fea2eb0bec6c0b022030ef1c8efe2025a97d642a1a4577d3d181fe56155087911014c4b0cff0740e77[ALL] 02a5bbf2aa0ebe49cbd57b367b518ab7d3dbde32f04170287ac05b5c47a1af6315"}, "vout": 0, "txid": "12996839e867e5b8987d2d72420b0318c5854f1c0a7fa276ef797d93d402ccb8"}], "txid": "a25e572becb0720a77dd6facf227376da0269b10d56e51fd2f09d926e503e53b", "blocktime": 1537875543, "version": 1, "confirmations": 11464, "time": 1537875543, "locktime": 0, "vsize": 226, "size": 226}