{"hash": "a261f66c1f68c497ed71a0a852187aa7fa99f230b9140daf56c72de885eb3199", "blockhash": "000000000000000000022b45ed06c6f4ccd3cf7fb5ba4856ebd2e58215665228", "vout": [{"scriptPubKey": {"reqSigs": 1, "hex": "a9149cfe9a83e9dc9b339d8adef25fdf3bd90f9242cc87", "addresses": ["3G18LdqELH8UaR4Rm2ckrGdxhZLDin4CpB"], "asm": "OP_HASH160 9cfe9a83e9dc9b339d8adef25fdf3bd90f9242cc OP_EQUAL", "type": "scripthash"}, "value": 0.043289, "n": 0}, {"scriptPubKey": {"reqSigs": 1, "hex": "a914b115bd8e23360e9a60dfc1a5e9b8f11775e7952e87", "addresses": ["3HqMa3tnPVyQjsjMcnsgq9bDX6Ds7pLnE8"], "asm": "OP_HASH160 b115bd8e23360e9a60dfc1a5e9b8f11775e7952e OP_EQUAL", "type": "scripthash"}, "value": 0.0084, "n": 1}, {"scriptPubKey": {"reqSigs": 1, "hex": "a914e2adc271397ab5b02e59826afe441fa993d3ace987", "addresses": ["3NManvRe2qjMnzdZTEkBhHofArkce2QwRo"], "asm": "OP_HASH160 e2adc271397ab5b02e59826afe441fa993d3ace9 OP_EQUAL", "type": "scripthash"}, "value": 0.0168, "n": 2}, {"scriptPubKey": {"reqSigs": 1, "hex": "a914b659c1fb3db17bab7b9e6074846c8ed3814dd0b587", "addresses": ["3JKCRw8CKsW647KxVAxkRFjgTq6SxJV6Qu"], "asm": "OP_HASH160 b659c1fb3db17bab7b9e6074846c8ed3814dd0b5 OP_EQUAL", "type": "scripthash"}, "value": 0.02, "n": 3}, {"scriptPubKey": {"reqSigs": 1, "hex": "a91460f758f3581f571840ac00c6f7b0ed24e9e8dcf287", "addresses": ["3AXj6xn7hdYDCvq5EZjGfqby9GW5WHGGbw"], "asm": "OP_HASH160 60f758f3581f571840ac00c6f7b0ed24e9e8dcf2 OP_EQUAL", "type": "scripthash"}, "value": 0.0168, "n": 4}, {"scriptPubKey": {"reqSigs": 1, "hex": "a914033da2222d32ba08248076dcd7c062eb1616a72387", "addresses": ["31z9nUhUYWVE7fJBuhfPLNX4pED2Me5snG"], "asm": "OP_HASH160 033da2222d32ba08248076dcd7c062eb1616a723 OP_EQUAL", "type": "scripthash"}, "value": 0.054, "n": 5}, {"scriptPubKey": {"reqSigs": 1, "hex": "76a914956d4ce4db3f92d3bec7601913c2f775da9783a188ac", "addresses": ["1Ed6cuWgMZmo6fo2cFSp2wVMf364wDDdR8"], "asm": "OP_DUP OP_HASH160 956d4ce4db3f92d3bec7601913c2f775da9783a1 OP_EQUALVERIFY OP_CHECKSIG", "type": "pubkeyhash"}, "value": 0.8946, "n": 6}, {"scriptPubKey": {"reqSigs": 1, "hex": "76a914e34a86d4f715439bcf98326d2b0f4eb96e4414ca88ac", "addresses": ["1MiofkXhQPaWjiWNZ6X7cThdj4G4VSRxPA"], "asm": "OP_DUP OP_HASH160 e34a86d4f715439bcf98326d2b0f4eb96e4414ca OP_EQUALVERIFY OP_CHECKSIG", "type": "pubkeyhash"}, "value": 52.12627653, "n": 7}], "hex": "0200000005727051080a2327829cf0f38b484edd9e1605f4edc7a6a718256123a798388e4b000000006a473044022076634ca722f1d08a62edea16580dfc755bcadc78d15794ac15cfea6787479964022053c8f2d18f8bf1d1b97d15bcf26ef871fc0fd7ccc3679783f6f441251a7f8cbb012102954ddd2b7970b8319daaf04f5c627b36ad92cafc328aacf3c0d2a76617567c6affffffff65371bf6948814d30bf4691866754d8a2b192d35f8eb9e1f85f5154a3297572c000000006b483045022100b222f26d330d799de7aae245e6c92a4c20425147550078957138a95cb2a97ff502205d8d50be7506662d547f72f8d413bf14fbc8181ce0f8cdfee875e28b0b0bd427012102127f6439c3d9ae2abbb818d7f1c3ec2b229179808f119ece504ab6ca116a3bb8ffffffff5df42bb8af223bf4633b995fa83bf2b6c3a069bf2394faec1f51d20b1a9f7299050000006b483045022100e5033780552bc4b12c9e21180e858e0e00bd44205bf726e4da950abd94751bb50220420bfb00d5d8f6127451489a14ccf0a96a486f1ed168e653d71af08af32b1bfc012103f851ae7616c80766e4b6847b11b35a30364dd2cbcc7868bcd54a7be49162f02dffffffff0d0e120f11ee72470dc5da10b407c86beb7695706f2811cef3d3559c917f8f4b020000006a4730440220111700eddcaab926512cac76eaa7a5254efab96b05f61fc3cfd9ca3bbe5c5f9d02202d14b0edf0cd1e289036a168e79304c0ecaea9c726cbd439c109e70219f0d96f012103f851ae7616c80766e4b6847b11b35a30364dd2cbcc7868bcd54a7be49162f02dffffffffc1089964e3094272c7a5ba945533f777355ee1eece8960b6189206e7b71980d8030000006b483045022100802ebbcb88d3062f9879abc1f4cfdb94ff50ebca8b2c021c781102e05267796b02202afce6fe24c3150d779a730f8b05c616c466dfe17afb6466295d9be15ded9e12012103f851ae7616c80766e4b6847b11b35a30364dd2cbcc7868bcd54a7be49162f02dffffffff08c40d42000000000017a9149cfe9a83e9dc9b339d8adef25fdf3bd90f9242cc8740d10c000000000017a914b115bd8e23360e9a60dfc1a5e9b8f11775e7952e8780a219000000000017a914e2adc271397ab5b02e59826afe441fa993d3ace98780841e000000000017a914b659c1fb3db17bab7b9e6074846c8ed3814dd0b58780a219000000000017a91460f758f3581f571840ac00c6f7b0ed24e9e8dcf287c06552000000000017a914033da2222d32ba08248076dcd7c062eb1616a72387200d5505000000001976a914956d4ce4db3f92d3bec7601913c2f775da9783a188acc562b236010000001976a914e34a86d4f715439bcf98326d2b0f4eb96e4414ca88ac00000000", "vin": [{"sequence": 4294967295, "scriptSig": {"hex": "473044022076634ca722f1d08a62edea16580dfc755bcadc78d15794ac15cfea6787479964022053c8f2d18f8bf1d1b97d15bcf26ef871fc0fd7ccc3679783f6f441251a7f8cbb012102954ddd2b7970b8319daaf04f5c627b36ad92cafc328aacf3c0d2a76617567c6a", "asm": "3044022076634ca722f1d08a62edea16580dfc755bcadc78d15794ac15cfea6787479964022053c8f2d18f8bf1d1b97d15bcf26ef871fc0fd7ccc3679783f6f441251a7f8cbb[ALL] 02954ddd2b7970b8319daaf04f5c627b36ad92cafc328aacf3c0d2a76617567c6a"}, "vout": 0, "txid": "4b8e3898a723612518a7a6c7edf405169edd4e488bf3f09c8227230a08517072"}, {"sequence": 4294967295, "scriptSig": {"hex": "483045022100b222f26d330d799de7aae245e6c92a4c20425147550078957138a95cb2a97ff502205d8d50be7506662d547f72f8d413bf14fbc8181ce0f8cdfee875e28b0b0bd427012102127f6439c3d9ae2abbb818d7f1c3ec2b229179808f119ece504ab6ca116a3bb8", "asm": "3045022100b222f26d330d799de7aae245e6c92a4c20425147550078957138a95cb2a97ff502205d8d50be7506662d547f72f8d413bf14fbc8181ce0f8cdfee875e28b0b0bd427[ALL] 02127f6439c3d9ae2abbb818d7f1c3ec2b229179808f119ece504ab6ca116a3bb8"}, "vout": 0, "txid": "2c5797324a15f5851f9eebf8352d192b8a4d75661869f40bd3148894f61b3765"}, {"sequence": 4294967295, "scriptSig": {"hex": "483045022100e5033780552bc4b12c9e21180e858e0e00bd44205bf726e4da950abd94751bb50220420bfb00d5d8f6127451489a14ccf0a96a486f1ed168e653d71af08af32b1bfc012103f851ae7616c80766e4b6847b11b35a30364dd2cbcc7868bcd54a7be49162f02d", "asm": "3045022100e5033780552bc4b12c9e21180e858e0e00bd44205bf726e4da950abd94751bb50220420bfb00d5d8f6127451489a14ccf0a96a486f1ed168e653d71af08af32b1bfc[ALL] 03f851ae7616c80766e4b6847b11b35a30364dd2cbcc7868bcd54a7be49162f02d"}, "vout": 5, "txid": "99729f1a0bd2511fecfa9423bf69a0c3b6f23ba85f993b63f43b22afb82bf45d"}, {"sequence": 4294967295, "scriptSig": {"hex": "4730440220111700eddcaab926512cac76eaa7a5254efab96b05f61fc3cfd9ca3bbe5c5f9d02202d14b0edf0cd1e289036a168e79304c0ecaea9c726cbd439c109e70219f0d96f012103f851ae7616c80766e4b6847b11b35a30364dd2cbcc7868bcd54a7be49162f02d", "asm": "30440220111700eddcaab926512cac76eaa7a5254efab96b05f61fc3cfd9ca3bbe5c5f9d02202d14b0edf0cd1e289036a168e79304c0ecaea9c726cbd439c109e70219f0d96f[ALL] 03f851ae7616c80766e4b6847b11b35a30364dd2cbcc7868bcd54a7be49162f02d"}, "vout": 2, "txid": "4b8f7f919c55d3f3ce11286f709576eb6bc807b410dac50d4772ee110f120e0d"}, {"sequence": 4294967295, "scriptSig": {"hex": "483045022100802ebbcb88d3062f9879abc1f4cfdb94ff50ebca8b2c021c781102e05267796b02202afce6fe24c3150d779a730f8b05c616c466dfe17afb6466295d9be15ded9e12012103f851ae7616c80766e4b6847b11b35a30364dd2cbcc7868bcd54a7be49162f02d", "asm": "3045022100802ebbcb88d3062f9879abc1f4cfdb94ff50ebca8b2c021c781102e05267796b02202afce6fe24c3150d779a730f8b05c616c466dfe17afb6466295d9be15ded9e12[ALL] 03f851ae7616c80766e4b6847b11b35a30364dd2cbcc7868bcd54a7be49162f02d"}, "vout": 3, "txid": "d88019b7e7069218b66089ceeee15e3577f7335594baa5c7724209e3649908c1"}], "txid": "a261f66c1f68c497ed71a0a852187aa7fa99f230b9140daf56c72de885eb3199", "blocktime": 1537869901, "version": 2, "confirmations": 11522, "time": 1537869901, "locktime": 0, "vsize": 1008, "size": 1008}