{"hash": "a265aa798bca7db10147c6abbed32209db8ac7d781acc00a5d7a9061f826f194", "blockhash": "00000000000000000017f5eb5941039fbcee6240d03bc1f2f8e35350df66a1d8", "vout": [{"scriptPubKey": {"reqSigs": 1, "hex": "a9148effbd3d89bfb623858ad0ba5195ebf99dad47e387", "addresses": ["3Ej8ErcYHfzVW2bpAGyvxRAwj9BC1FxfMq"], "asm": "OP_HASH160 8effbd3d89bfb623858ad0ba5195ebf99dad47e3 OP_EQUAL", "type": "scripthash"}, "value": 0.00569325, "n": 0}, {"scriptPubKey": {"reqSigs": 1, "hex": "0014dc3bafc787300cde0eee85e4a6564c341eb60f76", "addresses": ["bc1qmsa6l3u8xqxdurhwshj2v4jvxs0tvrmkern202"], "asm": "0 dc3bafc787300cde0eee85e4a6564c341eb60f76", "type": "witness_v0_keyhash"}, "value": 5.825e-05, "n": 1}], "hex": "0100000001d25b90341e09880cc43211cc30d6a41f2ba9bb792981216779eb0540a4e5f0fe5c0000006b483045022100d40e193627979301d939a3b66a4757f280c0c3147b714cde8b1ae842e94b0945022052bd8adf25ed7571989bbeee80e76c2bdf75e715dc6eaf747e67ded13c6d3bf30121023cda1762b0513e007cf42213870bbd0c9eb691a8a6df8463780795cbf4be8d72ffffffff02edaf08000000000017a9148effbd3d89bfb623858ad0ba5195ebf99dad47e387c116000000000000160014dc3bafc787300cde0eee85e4a6564c341eb60f7600000000", "vin": [{"sequence": 4294967295, "scriptSig": {"hex": "483045022100d40e193627979301d939a3b66a4757f280c0c3147b714cde8b1ae842e94b0945022052bd8adf25ed7571989bbeee80e76c2bdf75e715dc6eaf747e67ded13c6d3bf30121023cda1762b0513e007cf42213870bbd0c9eb691a8a6df8463780795cbf4be8d72", "asm": "3045022100d40e193627979301d939a3b66a4757f280c0c3147b714cde8b1ae842e94b0945022052bd8adf25ed7571989bbeee80e76c2bdf75e715dc6eaf747e67ded13c6d3bf3[ALL] 023cda1762b0513e007cf42213870bbd0c9eb691a8a6df8463780795cbf4be8d72"}, "vout": 92, "txid": "fef0e5a44005eb796721812979bba92b1fa4d630cc1132c40c88091e34905bd2"}], "txid": "a265aa798bca7db10147c6abbed32209db8ac7d781acc00a5d7a9061f826f194", "blocktime": 1537874412, "version": 1, "confirmations": 11467, "time": 1537874412, "locktime": 0, "vsize": 221, "size": 221}