{"hash": "a26ef8edf8b43229b3f994c42b3e3cf19ea7e9c71a75675e41b250826253f4b7", "blockhash": "00000000000000000017f5eb5941039fbcee6240d03bc1f2f8e35350df66a1d8", "vout": [{"scriptPubKey": {"reqSigs": 1, "hex": "76a91445a2435e13445b6e725e3ca4866683e09ed9a1b788ac", "addresses": ["17MC1Uig3QWZEYHwNWHXXBJ9ZQsh15PBP8"], "asm": "OP_DUP OP_HASH160 45a2435e13445b6e725e3ca4866683e09ed9a1b7 OP_EQUALVERIFY OP_CHECKSIG", "type": "pubkeyhash"}, "value": 0.22230582, "n": 0}, {"scriptPubKey": {"reqSigs": 1, "hex": "76a914ba042ede8c3ea5fae6bdc09a247bb28b2d328b6d88ac", "addresses": ["1HxZhKvGzGyU9KoVAwKEN2M77YEViSCAki"], "asm": "OP_DUP OP_HASH160 ba042ede8c3ea5fae6bdc09a247bb28b2d328b6d OP_EQUALVERIFY OP_CHECKSIG", "type": "pubkeyhash"}, "value": 0.02527623, "n": 1}], "hex": "0200000001280e7185f0c87956f8cb7d35005b63c323795bb60969f5be34bf1f42f26e7f22040000006b483045022100b8dc7530badb43e2c261659eb2111c3607b224ba31abb12380dcd3ec5c123eac022055419ed901597cf58f362a6b86ef7b1f22db7e42e9ab4dd56ee0fff90c345f210121034cb4af9bba3f3b0fd71f0bd7ef17c881ec93a0a1c87a5f3279f3c7a52fac941efeffffff0236365301000000001976a91445a2435e13445b6e725e3ca4866683e09ed9a1b788ac87912600000000001976a914ba042ede8c3ea5fae6bdc09a247bb28b2d328b6d88ac14490800", "vin": [{"sequence": 4294967294, "scriptSig": {"hex": "483045022100b8dc7530badb43e2c261659eb2111c3607b224ba31abb12380dcd3ec5c123eac022055419ed901597cf58f362a6b86ef7b1f22db7e42e9ab4dd56ee0fff90c345f210121034cb4af9bba3f3b0fd71f0bd7ef17c881ec93a0a1c87a5f3279f3c7a52fac941e", "asm": "3045022100b8dc7530badb43e2c261659eb2111c3607b224ba31abb12380dcd3ec5c123eac022055419ed901597cf58f362a6b86ef7b1f22db7e42e9ab4dd56ee0fff90c345f21[ALL] 034cb4af9bba3f3b0fd71f0bd7ef17c881ec93a0a1c87a5f3279f3c7a52fac941e"}, "vout": 4, "txid": "227f6ef2421fbf34bef56909b65b7923c3635b00357dcbf85679c8f085710e28"}], "txid": "a26ef8edf8b43229b3f994c42b3e3cf19ea7e9c71a75675e41b250826253f4b7", "blocktime": 1537874412, "version": 2, "confirmations": 11466, "time": 1537874412, "locktime": 542996, "vsize": 226, "size": 226}