{"hash": "a26e5b0ae6d28be39d901652e44be8380e8158535367d56dd407131b15e1c357", "blockhash": "0000000000000000000dcc0f55137456b1a82d3642486a52398922ac4d620174", "vout": [{"scriptPubKey": {"reqSigs": 1, "hex": "a914a804419fe87ec830e74bf6932bf4eb996b9b3ed487", "addresses": ["3H1QYWP6twybubsP97LngoVErEmVbPtRE2"], "asm": "OP_HASH160 a804419fe87ec830e74bf6932bf4eb996b9b3ed4 OP_EQUAL", "type": "scripthash"}, "value": 0.00808, "n": 0}, {"scriptPubKey": {"reqSigs": 1, "hex": "76a914b387ed099983cded9b9853ee11a14075dbd4368488ac", "addresses": ["1HNGndvmdL7bL2eitVgg9ZfwmfU7F6ZcBZ"], "asm": "OP_DUP OP_HASH160 b387ed099983cded9b9853ee11a14075dbd43684 OP_EQUALVERIFY OP_CHECKSIG", "type": "pubkeyhash"}, "value": 0.08170142, "n": 1}], "hex": "0100000001eaef8a89b11d91480efe8754402659c66b83cab9c667859b7928692a540c86c7010000006a473044022058386484b8d27b5ad483bb4fc300658375b1d20bc6069083cf5797ba531609fa022068a50191992b43b7f185a9f0085e2b612781be7fb7edfc156a0934ef710fdb890121028c9e994e1dd97233333882ead8233175c9e11fe360467de32ae6592f50972313ffffffff0240540c000000000017a914a804419fe87ec830e74bf6932bf4eb996b9b3ed4879eaa7c00000000001976a914b387ed099983cded9b9853ee11a14075dbd4368488ac00000000", "vin": [{"sequence": 4294967295, "scriptSig": {"hex": "473044022058386484b8d27b5ad483bb4fc300658375b1d20bc6069083cf5797ba531609fa022068a50191992b43b7f185a9f0085e2b612781be7fb7edfc156a0934ef710fdb890121028c9e994e1dd97233333882ead8233175c9e11fe360467de32ae6592f50972313", "asm": "3044022058386484b8d27b5ad483bb4fc300658375b1d20bc6069083cf5797ba531609fa022068a50191992b43b7f185a9f0085e2b612781be7fb7edfc156a0934ef710fdb89[ALL] 028c9e994e1dd97233333882ead8233175c9e11fe360467de32ae6592f50972313"}, "vout": 1, "txid": "c7860c542a6928799b8567c6b9ca836bc65926405487fe0e48911db1898aefea"}], "txid": "a26e5b0ae6d28be39d901652e44be8380e8158535367d56dd407131b15e1c357", "blocktime": 1537870268, "version": 1, "confirmations": 11516, "time": 1537870268, "locktime": 0, "vsize": 223, "size": 223}