{"hash": "a26ef489f55ed11c9e8bc28a8d7b0173cfcdcfb8153edf5ddb41e3a6c161b250", "blockhash": "0000000000000000001f76057863aec43deb6fa401d9628bb513d65a8098bfab", "vout": [{"scriptPubKey": {"reqSigs": 1, "hex": "76a9149e2990a39eac758a067ba57da06130ca7bf00dd288ac", "addresses": ["1FRHZJA5eowxVkEuuX5i93SmBSh1DkG53h"], "asm": "OP_DUP OP_HASH160 9e2990a39eac758a067ba57da06130ca7bf00dd2 OP_EQUALVERIFY OP_CHECKSIG", "type": "pubkeyhash"}, "value": 3.8, "n": 0}, {"scriptPubKey": {"reqSigs": 1, "hex": "76a91412006cb4270467dd84bfcbf8bddc488dca6429b788ac", "addresses": ["12eBfxU7Db41u5d86fA9ffC1AvFKQFW3ru"], "asm": "OP_DUP OP_HASH160 12006cb4270467dd84bfcbf8bddc488dca6429b7 OP_EQUALVERIFY OP_CHECKSIG", "type": "pubkeyhash"}, "value": 0.99976, "n": 1}], "hex": "01000000033b988d972321b5de8d4f9dddbc3a7d7d96ce439ee688c913fcd39b5cfa18fa0f010000006a47304402200b641e6b5f438934cf564442248fc1062abd23bc8af8a697447092418528c4370220495077c2c75775244d86634d22f158ec0742b4040c9ba093a92636142e03a2550121032a1674b497cf7327c14038899e4a24817772fc4d75abf891eb101c8ee1bf6961ffffffffee4630a609fbc65c52fc2ccae4593fcbabd33fb3ee029a2220b6cf0be109d386010000006b483045022100ae344f9e0fb07da13f26caa18d29e2d50a5d272da3ff0d899c744674c965375e02206f096e2aa50cbefa3dd6c91b158592c8f77f27b396c58e0742c5868eff3d8b22012102f864ef48f2b51aae5e442e666a0e3b886780fa21894996d1838ca078055220feffffffff1e8746a9e77ff36974fa7cb087193cb738fc54087382d4a80db1a688b7daea82050000006a47304402207fa0d9d2728c8de67661cd0823732cd0c3fc0da6b53275e744683f5a2910f03d022034807f09d1d9f1ef8a089a007ae6ca5da730884b1c766849e245f7b26d94f0ac012102f864ef48f2b51aae5e442e666a0e3b886780fa21894996d1838ca078055220feffffffff020057a616000000001976a9149e2990a39eac758a067ba57da06130ca7bf00dd288ac4083f505000000001976a91412006cb4270467dd84bfcbf8bddc488dca6429b788ac00000000", "vin": [{"sequence": 4294967295, "scriptSig": {"hex": "47304402200b641e6b5f438934cf564442248fc1062abd23bc8af8a697447092418528c4370220495077c2c75775244d86634d22f158ec0742b4040c9ba093a92636142e03a2550121032a1674b497cf7327c14038899e4a24817772fc4d75abf891eb101c8ee1bf6961", "asm": "304402200b641e6b5f438934cf564442248fc1062abd23bc8af8a697447092418528c4370220495077c2c75775244d86634d22f158ec0742b4040c9ba093a92636142e03a255[ALL] 032a1674b497cf7327c14038899e4a24817772fc4d75abf891eb101c8ee1bf6961"}, "vout": 1, "txid": "0ffa18fa5c9bd3fc13c988e69e43ce967d7d3abcdd9d4f8ddeb52123978d983b"}, {"sequence": 4294967295, "scriptSig": {"hex": "483045022100ae344f9e0fb07da13f26caa18d29e2d50a5d272da3ff0d899c744674c965375e02206f096e2aa50cbefa3dd6c91b158592c8f77f27b396c58e0742c5868eff3d8b22012102f864ef48f2b51aae5e442e666a0e3b886780fa21894996d1838ca078055220fe", "asm": "3045022100ae344f9e0fb07da13f26caa18d29e2d50a5d272da3ff0d899c744674c965375e02206f096e2aa50cbefa3dd6c91b158592c8f77f27b396c58e0742c5868eff3d8b22[ALL] 02f864ef48f2b51aae5e442e666a0e3b886780fa21894996d1838ca078055220fe"}, "vout": 1, "txid": "86d309e10bcfb620229a02eeb33fd3abcb3f59e4ca2cfc525cc6fb09a63046ee"}, {"sequence": 4294967295, "scriptSig": {"hex": "47304402207fa0d9d2728c8de67661cd0823732cd0c3fc0da6b53275e744683f5a2910f03d022034807f09d1d9f1ef8a089a007ae6ca5da730884b1c766849e245f7b26d94f0ac012102f864ef48f2b51aae5e442e666a0e3b886780fa21894996d1838ca078055220fe", "asm": "304402207fa0d9d2728c8de67661cd0823732cd0c3fc0da6b53275e744683f5a2910f03d022034807f09d1d9f1ef8a089a007ae6ca5da730884b1c766849e245f7b26d94f0ac[ALL] 02f864ef48f2b51aae5e442e666a0e3b886780fa21894996d1838ca078055220fe"}, "vout": 5, "txid": "82eadab788a6b10da8d482730854fc38b73c1987b07cfa7469f37fe7a946871e"}], "txid": "a26ef489f55ed11c9e8bc28a8d7b0173cfcdcfb8153edf5ddb41e3a6c161b250", "blocktime": 1537873891, "version": 1, "confirmations": 11474, "time": 1537873891, "locktime": 0, "vsize": 520, "size": 520}