{"hash": "a270daa39fd81f1bbb16a44af02f0d5e3bcac80d1fb6c528b1f6f991567b7ebb", "blockhash": "00000000000000000018f53835495a110e01622372bf6ae95dc86f2b0ab887b0", "vout": [{"scriptPubKey": {"reqSigs": 1, "hex": "76a9149e8388e11a93a9ed19e4d655b5dcf4a36e05e1c188ac", "addresses": ["1FT9LVxjqqK6cthXw6Si6wQu4qRGYBe4aj"], "asm": "OP_DUP OP_HASH160 9e8388e11a93a9ed19e4d655b5dcf4a36e05e1c1 OP_EQUALVERIFY OP_CHECKSIG", "type": "pubkeyhash"}, "value": 0.03105674, "n": 0}, {"scriptPubKey": {"reqSigs": 1, "hex": "76a9140377efe0d2b830b0b930994eb688cca04e662d4488ac", "addresses": ["1KLhwsTBcxQmgv364gPFB1to1MxvBzeEb"], "asm": "OP_DUP OP_HASH160 0377efe0d2b830b0b930994eb688cca04e662d44 OP_EQUALVERIFY OP_CHECKSIG", "type": "pubkeyhash"}, "value": 0.07, "n": 1}], "hex": "0100000001c932173a404064e3947ede7798a9e124a0eb48f2f600a70b5b5c08ed5b5a6560000000006a47304402200a9634b8a374a551e9b21e96ed24df614ec44fc085c5f1257c5b5681e48107b002201b5e0b7c6abfc1e54f1c5d692e6ad46e420a3775416837ca27adbba9fd45de8c012102e3c6984a80d9b8deb953b3bcb0f6aea2fa8a94fd349b9200820a014a24449cc7ffffffff028a632f00000000001976a9149e8388e11a93a9ed19e4d655b5dcf4a36e05e1c188acc0cf6a00000000001976a9140377efe0d2b830b0b930994eb688cca04e662d4488ac00000000", "vin": [{"sequence": 4294967295, "scriptSig": {"hex": "47304402200a9634b8a374a551e9b21e96ed24df614ec44fc085c5f1257c5b5681e48107b002201b5e0b7c6abfc1e54f1c5d692e6ad46e420a3775416837ca27adbba9fd45de8c012102e3c6984a80d9b8deb953b3bcb0f6aea2fa8a94fd349b9200820a014a24449cc7", "asm": "304402200a9634b8a374a551e9b21e96ed24df614ec44fc085c5f1257c5b5681e48107b002201b5e0b7c6abfc1e54f1c5d692e6ad46e420a3775416837ca27adbba9fd45de8c[ALL] 02e3c6984a80d9b8deb953b3bcb0f6aea2fa8a94fd349b9200820a014a24449cc7"}, "vout": 0, "txid": "60655a5bed085c5b0ba700f6f248eba024e1a99877de7e94e36440403a1732c9"}], "txid": "a270daa39fd81f1bbb16a44af02f0d5e3bcac80d1fb6c528b1f6f991567b7ebb", "blocktime": 1537870928, "version": 1, "confirmations": 11512, "time": 1537870928, "locktime": 0, "vsize": 225, "size": 225}