{"hash": "a27f2e08c0f27052037be49d80d3ce89ab45e5f6f6c672be43ceca731cf6c2da", "blockhash": "00000000000000000017f5eb5941039fbcee6240d03bc1f2f8e35350df66a1d8", "vout": [{"scriptPubKey": {"reqSigs": 1, "hex": "76a914094d8d90eefa37292b37e77006c09077cba1103388ac", "addresses": ["1rBzCmUkUv7S3ARpRp3EtCnNCakSXoxE5"], "asm": "OP_DUP OP_HASH160 094d8d90eefa37292b37e77006c09077cba11033 OP_EQUALVERIFY OP_CHECKSIG", "type": "pubkeyhash"}, "value": 0.1474705, "n": 0}], "hex": "01000000011cbaec57c8de014a98681188439c2ffddea5219c3f3c2fdf7cbcff16012b836e010000006b483045022100b0fccd51e07858350ace3ed40278f2e5be9f90802334bf623ead1e52865df3e602205d2c1e8476eb72e16e41c03d3e2c57e0d3bd4ba3ec2925cb641fcfa0a595f2d4012102382b72adce3d4516456b400325f59d269dc966434bc14f02686f78226f1deda7ffffffff01aa05e100000000001976a914094d8d90eefa37292b37e77006c09077cba1103388ac00000000", "vin": [{"sequence": 4294967295, "scriptSig": {"hex": "483045022100b0fccd51e07858350ace3ed40278f2e5be9f90802334bf623ead1e52865df3e602205d2c1e8476eb72e16e41c03d3e2c57e0d3bd4ba3ec2925cb641fcfa0a595f2d4012102382b72adce3d4516456b400325f59d269dc966434bc14f02686f78226f1deda7", "asm": "3045022100b0fccd51e07858350ace3ed40278f2e5be9f90802334bf623ead1e52865df3e602205d2c1e8476eb72e16e41c03d3e2c57e0d3bd4ba3ec2925cb641fcfa0a595f2d4[ALL] 02382b72adce3d4516456b400325f59d269dc966434bc14f02686f78226f1deda7"}, "vout": 1, "txid": "6e832b0116ffbc7cdf2f3c3f9c21a5defd2f9c43881168984a01dec857ecba1c"}], "txid": "a27f2e08c0f27052037be49d80d3ce89ab45e5f6f6c672be43ceca731cf6c2da", "blocktime": 1537874412, "version": 1, "confirmations": 11467, "time": 1537874412, "locktime": 0, "vsize": 192, "size": 192}