{"hash": "109494e14fec63e9ccb51c9feb2f184c964b683b4c6f0293022d161d56fac7e8", "blockhash": "0000000000000000001f76057863aec43deb6fa401d9628bb513d65a8098bfab", "vout": [{"scriptPubKey": {"reqSigs": 1, "hex": "76a914d3ecc4c5dbab11305721e8b17d257add42d1581d88ac", "addresses": ["1LKZDT6r6L8F53toCyFHeErwnBUbU26Vg3"], "asm": "OP_DUP OP_HASH160 d3ecc4c5dbab11305721e8b17d257add42d1581d OP_EQUALVERIFY OP_CHECKSIG", "type": "pubkeyhash"}, "value": 0.03252752, "n": 0}, {"scriptPubKey": {"reqSigs": 1, "hex": "76a914392210c9905dde6413233fed0e860584d900e3d288ac", "addresses": ["16D6KrRCuPXTLudHjMXyG6ryJNLNuyUGBG"], "asm": "OP_DUP OP_HASH160 392210c9905dde6413233fed0e860584d900e3d2 OP_EQUALVERIFY OP_CHECKSIG", "type": "pubkeyhash"}, "value": 0.0113012, "n": 1}], "hex": "0200000000010360d1dfb99df9d6e19c2423062c1bdf6e8b3f025b165c4b15af527559bb602308000000006a47304402203f365b0a829272bdcedf827973c002aecf7fe9869acdaff710ad5df22385064d02203c4af00a0b8f5985faffd536bc40815fa651526fdb46dcb6d1b1362379dbcb47012102408fee249da1dce80cd08fbb2a301196dd9c5785e59a975de2b3d481e4eaffdefeffffffa7a048739649ba012cd3ee5681bef7816ed0f3a5e02c8ba16ee75312bbe722f9010000001716001453a131de08ce5c4a63820864697360444f70c7bdfeffffffbab4bbc7fb07158a511119ac9d7048a063bab2c4ea5f3fe91c537564173ac1db000000006a473044022071356dc7bac90d56b39e9b63c69e47fd5650e3430396e9caae73cfb38f76766d02205215d80a1d52e7173987ddbbb794cdcfbc1e4c8da1b9390b55950f5de5dd5580012103f5a2f3e3fedb519e3173df192c35c53dc6cc1f3e4abd494b5238b596f3d41f76feffffff0210a23100000000001976a914d3ecc4c5dbab11305721e8b17d257add42d1581d88ac883e1100000000001976a914392210c9905dde6413233fed0e860584d900e3d288ac0002473044022020aded61f7693adad98f9dd8fffad8ae4693d8259405a64dfea37f9e45098491022045f9ed435170d8f038d6bf45d25972237dfe303a372ea1d65aa7ed96a85dc40901210224219cc08fe5acf38a3e4cbdead8d5bdda55cf1ffe91d6175d6b8c564e9041160014490800", "vin": [{"sequence": 4294967294, "scriptSig": {"hex": "47304402203f365b0a829272bdcedf827973c002aecf7fe9869acdaff710ad5df22385064d02203c4af00a0b8f5985faffd536bc40815fa651526fdb46dcb6d1b1362379dbcb47012102408fee249da1dce80cd08fbb2a301196dd9c5785e59a975de2b3d481e4eaffde", "asm": "304402203f365b0a829272bdcedf827973c002aecf7fe9869acdaff710ad5df22385064d02203c4af00a0b8f5985faffd536bc40815fa651526fdb46dcb6d1b1362379dbcb47[ALL] 02408fee249da1dce80cd08fbb2a301196dd9c5785e59a975de2b3d481e4eaffde"}, "vout": 0, "txid": "082360bb597552af154b5c165b023f8b6edf1b2c0623249ce1d6f99db9dfd160"}, {"txinwitness": ["3044022020aded61f7693adad98f9dd8fffad8ae4693d8259405a64dfea37f9e45098491022045f9ed435170d8f038d6bf45d25972237dfe303a372ea1d65aa7ed96a85dc40901", "0224219cc08fe5acf38a3e4cbdead8d5bdda55cf1ffe91d6175d6b8c564e904116"], "sequence": 4294967294, "scriptSig": {"hex": "16001453a131de08ce5c4a63820864697360444f70c7bd", "asm": "001453a131de08ce5c4a63820864697360444f70c7bd"}, "vout": 1, "txid": "f922e7bb1253e76ea18b2ce0a5f3d06e81f7be8156eed32c01ba49967348a0a7"}, {"sequence": 4294967294, "scriptSig": {"hex": "473044022071356dc7bac90d56b39e9b63c69e47fd5650e3430396e9caae73cfb38f76766d02205215d80a1d52e7173987ddbbb794cdcfbc1e4c8da1b9390b55950f5de5dd5580012103f5a2f3e3fedb519e3173df192c35c53dc6cc1f3e4abd494b5238b596f3d41f76", "asm": "3044022071356dc7bac90d56b39e9b63c69e47fd5650e3430396e9caae73cfb38f76766d02205215d80a1d52e7173987ddbbb794cdcfbc1e4c8da1b9390b55950f5de5dd5580[ALL] 03f5a2f3e3fedb519e3173df192c35c53dc6cc1f3e4abd494b5238b596f3d41f76"}, "vout": 0, "txid": "dbc13a176475531ce93f5feac4b2ba63a048709dac1911518a1507fbc7bbb4ba"}], "txid": "a28048a85ff79012af59187418afddafb89fbd02e2ba3e00feda1a114f3b3a09", "blocktime": 1537873891, "version": 2, "confirmations": 11474, "time": 1537873891, "locktime": 542996, "vsize": 464, "size": 547}