{"hash": "d1917c8efcebea3f51f30cffd757c98d0529e2261f4cfcf9af45c4a2b688b9dc", "blockhash": "0000000000000000001cda96e906b7601b7a6fb1a3b62bca570a9e5d8f4b3de1", "vout": [{"scriptPubKey": {"reqSigs": 1, "hex": "a914322355ded6e34df98027a8d383d0aa30f75e009487", "addresses": ["36G83HRxXp7LxDgAQB6CoSpKKTUNrvzZ3L"], "asm": "OP_HASH160 322355ded6e34df98027a8d383d0aa30f75e0094 OP_EQUAL", "type": "scripthash"}, "value": 0.00234872, "n": 0}, {"scriptPubKey": {"reqSigs": 1, "hex": "a91493e80ba6d3f1b225e738e849cb9288018f967a0287", "addresses": ["3FB5EYj6gvRx72hVBEJL4Wxu3MgDWCwJ37"], "asm": "OP_HASH160 93e80ba6d3f1b225e738e849cb9288018f967a02 OP_EQUAL", "type": "scripthash"}, "value": 0.0038136, "n": 1}, {"scriptPubKey": {"reqSigs": 1, "hex": "a9140f442be5630ec87fc6030546c8444fa19a43e89b87", "addresses": ["335jj4K4TBoTJQEVXWjBTJZ4PRwo1TvPEZ"], "asm": "OP_HASH160 0f442be5630ec87fc6030546c8444fa19a43e89b OP_EQUAL", "type": "scripthash"}, "value": 0.0025646, "n": 2}, {"scriptPubKey": {"reqSigs": 1, "hex": "a914f4af0a39193f5c083b7afacbf6b21c72058f151587", "addresses": ["3PznVLZv6sW8yVP3FX3K8kX8xGFpvmppbU"], "asm": "OP_HASH160 f4af0a39193f5c083b7afacbf6b21c72058f1515 OP_EQUAL", "type": "scripthash"}, "value": 0.0012, "n": 3}, {"scriptPubKey": {"reqSigs": 1, "hex": "a914ae8bd763a0a7b9167fd19bb3ca26b71d92615d1487", "addresses": ["3Hbw2GePkxKdye2XUm25obqjU13JnGABpc"], "asm": "OP_HASH160 ae8bd763a0a7b9167fd19bb3ca26b71d92615d14 OP_EQUAL", "type": "scripthash"}, "value": 0.0029686, "n": 4}, {"scriptPubKey": {"reqSigs": 1, "hex": "a9140d9cd76f9f7d85b35513d3cd202ce9ba02a645a987", "addresses": ["32vzbaYxCQiLBnKoZh8FHqJ5e8W3viRAfu"], "asm": "OP_HASH160 0d9cd76f9f7d85b35513d3cd202ce9ba02a645a9 OP_EQUAL", "type": "scripthash"}, "value": 0.0038136, "n": 5}, {"scriptPubKey": {"reqSigs": 1, "hex": "a9143a6a72cc4415a6cf48582daa17ef7129a5c664c687", "addresses": ["371tdqU5fptNVbyWhmrzJXuWQK5mJuzhTS"], "asm": "OP_HASH160 3a6a72cc4415a6cf48582daa17ef7129a5c664c6 OP_EQUAL", "type": "scripthash"}, "value": 0.0090756, "n": 6}, {"scriptPubKey": {"reqSigs": 1, "hex": "76a914832fdf1100982a5b0ce2ab88bade1932a56d381288ac", "addresses": ["1CxesHoc2C5y9FhE2us9Vcoweq7nF65qac"], "asm": "OP_DUP OP_HASH160 832fdf1100982a5b0ce2ab88bade1932a56d3812 OP_EQUALVERIFY OP_CHECKSIG", "type": "pubkeyhash"}, "value": 0.00296517, "n": 7}, {"scriptPubKey": {"reqSigs": 1, "hex": "a914127c4d9b669b39abcaa45b76c783eb9e185e71fa87", "addresses": ["33NkzjMqLkwLhKspK1dDkEcuESpSF7xbDe"], "asm": "OP_HASH160 127c4d9b669b39abcaa45b76c783eb9e185e71fa OP_EQUAL", "type": "scripthash"}, "value": 0.0019236, "n": 8}, {"scriptPubKey": {"reqSigs": 1, "hex": "a914c0d375f897da20fb048cf65196d22d79f074ecb787", "addresses": ["3KGayvwf3pdcQee1ahi7zd12m1HwnHjcMW"], "asm": "OP_HASH160 c0d375f897da20fb048cf65196d22d79f074ecb7 OP_EQUAL", "type": "scripthash"}, "value": 0.0032066, "n": 9}, {"scriptPubKey": {"reqSigs": 1, "hex": "a9147d9cb1907f22fc3c1d111b4c92cb76d28c93600987", "addresses": ["3D9C6nWkLyRjhJBDXHcmvoNbRUmqHrxXHZ"], "asm": "OP_HASH160 7d9cb1907f22fc3c1d111b4c92cb76d28c936009 OP_EQUAL", "type": "scripthash"}, "value": 0.00412168, "n": 10}, {"scriptPubKey": {"reqSigs": 1, "hex": "a914afb1754a388d6d17bfad75113dc8f3e59ec2d68887", "addresses": ["3Hhzm87ZLV2grS8sYed19xhVmSBRL8fzvu"], "asm": "OP_HASH160 afb1754a388d6d17bfad75113dc8f3e59ec2d688 OP_EQUAL", "type": "scripthash"}, "value": 0.0028236, "n": 11}, {"scriptPubKey": {"reqSigs": 1, "hex": "a914220cac49f62e97405337740cc10827c3e137ecf487", "addresses": ["34o45brR1VUbZdBtBeaM9dXhqTEnZLhNHb"], "asm": "OP_HASH160 220cac49f62e97405337740cc10827c3e137ecf4 OP_EQUAL", "type": "scripthash"}, "value": 2.73039312, "n": 12}, {"scriptPubKey": {"reqSigs": 1, "hex": "76a91493cb14b86c9d354d865c2d974afdd4ec19d842f288ac", "addresses": ["1EUTcWawhdNpYR1pEvjDcyrDHtTYEo5yKT"], "asm": "OP_DUP OP_HASH160 93cb14b86c9d354d865c2d974afdd4ec19d842f2 OP_EQUALVERIFY OP_CHECKSIG", "type": "pubkeyhash"}, "value": 0.00401739, "n": 13}, {"scriptPubKey": {"reqSigs": 1, "hex": "a914647567aabf40c7795f8e95916c6fc60e6e14eba887", "addresses": ["3ArC9AZaDDgtFj3hvzehAMrVceW4K8741j"], "asm": "OP_HASH160 647567aabf40c7795f8e95916c6fc60e6e14eba8 OP_EQUAL", "type": "scripthash"}, "value": 0.00690838, "n": 14}, {"scriptPubKey": {"reqSigs": 1, "hex": "a914d9ea6265a5535ffb68d3280a6114bf5383f7917b87", "addresses": ["3MZFLUuogc2jtGDAkZff7aDT59scuMKzRa"], "asm": "OP_HASH160 d9ea6265a5535ffb68d3280a6114bf5383f7917b OP_EQUAL", "type": "scripthash"}, "value": 0.0042776, "n": 15}, {"scriptPubKey": {"reqSigs": 1, "hex": "a914838e8c473613809bf33aaa79cf58aad51b4f990887", "addresses": ["3DgdD5Zr8G11Hx33FGqdYCdRwgfRrS6pa3"], "asm": "OP_HASH160 838e8c473613809bf33aaa79cf58aad51b4f9908 OP_EQUAL", "type": "scripthash"}, "value": 0.00370451, "n": 16}, {"scriptPubKey": {"reqSigs": 1, "hex": "a9147866ec00450d5606e114c2bb3fccba07088dd0d987", "addresses": ["3CfeJhcC6XwrJmD346CH1EgsHJPEwJ9ftx"], "asm": "OP_HASH160 7866ec00450d5606e114c2bb3fccba07088dd0d9 OP_EQUAL", "type": "scripthash"}, "value": 0.00412168, "n": 17}, {"scriptPubKey": {"reqSigs": 1, "hex": "a914687ca33fc3f930c384167f75df5a81cce84ba28587", "addresses": ["3BDVWUNca92bqwBfu97CMw2NSr7n3J7UXt"], "asm": "OP_HASH160 687ca33fc3f930c384167f75df5a81cce84ba285 OP_EQUAL", "type": "scripthash"}, "value": 0.0024596, "n": 18}, {"scriptPubKey": {"reqSigs": 1, "hex": "a914dd0bcac1a3a01561f2578d86a456f9556c941bf987", "addresses": ["3MqoPG9c5L5gFWvb1KqKw6mL7ZPxuEhPTP"], "asm": "OP_HASH160 dd0bcac1a3a01561f2578d86a456f9556c941bf9 OP_EQUAL", "type": "scripthash"}, "value": 0.0052246, "n": 19}, {"scriptPubKey": {"reqSigs": 1, "hex": "a91492190e01369da25e0904cf8bdd363da36f5b11c787", "addresses": ["3F1WbP8wcMamCeLPybqX8yx8c5vKifgxSL"], "asm": "OP_HASH160 92190e01369da25e0904cf8bdd363da36f5b11c7 OP_EQUAL", "type": "scripthash"}, "value": 0.00314, "n": 20}, {"scriptPubKey": {"reqSigs": 1, "hex": "a914728776ae36e58dceb0cbd8ecd8205510efff33aa87", "addresses": ["3C8bEb4W67SGesQ2HhVwkjdMir8SdZN8wk"], "asm": "OP_HASH160 728776ae36e58dceb0cbd8ecd8205510efff33aa OP_EQUAL", "type": "scripthash"}, "value": 0.0028406, "n": 21}], "hex": "020000000001012ee2a0f431500c9a339fb565adee54823861a99066ef8e7e3212323fccf70c4e020000001716001478f60813d08036b6db002d7f88b4baf4003e6fdbfeffffff16789503000000000017a914322355ded6e34df98027a8d383d0aa30f75e009487b0d105000000000017a91493e80ba6d3f1b225e738e849cb9288018f967a0287cce903000000000017a9140f442be5630ec87fc6030546c8444fa19a43e89b87c0d401000000000017a914f4af0a39193f5c083b7afacbf6b21c72058f1515879c8704000000000017a914ae8bd763a0a7b9167fd19bb3ca26b71d92615d1487b0d105000000000017a9140d9cd76f9f7d85b35513d3cd202ce9ba02a645a98728d90d000000000017a9143a6a72cc4415a6cf48582daa17ef7129a5c664c68745860400000000001976a914832fdf1100982a5b0ce2ab88bade1932a56d381288ac68ef02000000000017a914127c4d9b669b39abcaa45b76c783eb9e185e71fa8794e404000000000017a914c0d375f897da20fb048cf65196d22d79f074ecb787084a06000000000017a9147d9cb1907f22fc3c1d111b4c92cb76d28c93600987f84e04000000000017a914afb1754a388d6d17bfad75113dc8f3e59ec2d68887d03f46100000000017a914220cac49f62e97405337740cc10827c3e137ecf4874b210600000000001976a91493cb14b86c9d354d865c2d974afdd4ec19d842f288ac968a0a000000000017a914647567aabf40c7795f8e95916c6fc60e6e14eba887f08606000000000017a914d9ea6265a5535ffb68d3280a6114bf5383f7917b8713a705000000000017a914838e8c473613809bf33aaa79cf58aad51b4f990887084a06000000000017a9147866ec00450d5606e114c2bb3fccba07088dd0d987c8c003000000000017a914687ca33fc3f930c384167f75df5a81cce84ba28587dcf807000000000017a914dd0bcac1a3a01561f2578d86a456f9556c941bf98790ca04000000000017a91492190e01369da25e0904cf8bdd363da36f5b11c7879c5504000000000017a914728776ae36e58dceb0cbd8ecd8205510efff33aa8702483045022100ee4916c4e73dbfe60eb10331a663afca1317df2795ececf53afe54f3694b15a502206aeb6e76d6e0d5057f2818460122e1858f847be9d68fdb1bfc1313f96c6d109b01210266728137c8b40cd3ddb3cd2c33ddff51ee1af7d05f50954608be277c2cda54d213490800", "vin": [{"txinwitness": ["3045022100ee4916c4e73dbfe60eb10331a663afca1317df2795ececf53afe54f3694b15a502206aeb6e76d6e0d5057f2818460122e1858f847be9d68fdb1bfc1313f96c6d109b01", "0266728137c8b40cd3ddb3cd2c33ddff51ee1af7d05f50954608be277c2cda54d2"], "sequence": 4294967294, "scriptSig": {"hex": "16001478f60813d08036b6db002d7f88b4baf4003e6fdb", "asm": "001478f60813d08036b6db002d7f88b4baf4003e6fdb"}, "vout": 2, "txid": "4e0cf7cc3f3212327e8eef6690a961388254eead65b59f339a0c5031f4a0e22e"}], "txid": "a280d3029ff77167e8bfb557a1e20722d86f7efb245d092207883d151bda52b7", "blocktime": 1537873282, "version": 2, "confirmations": 11480, "time": 1537873282, "locktime": 542995, "vsize": 810, "size": 892}