{"hash": "ebec4754530a16480ad7f8a4d47ac66a518083f0988a3a15922a78a6909685f6", "blockhash": "0000000000000000001cda96e906b7601b7a6fb1a3b62bca570a9e5d8f4b3de1", "vout": [{"scriptPubKey": {"reqSigs": 1, "hex": "a9142a0df4b192d4c4b88f49fc00ee8e9c851a53e96a87", "addresses": ["35XP2GZDtdwtC96s2efFrsMTf3WgCjdUbu"], "asm": "OP_HASH160 2a0df4b192d4c4b88f49fc00ee8e9c851a53e96a OP_EQUAL", "type": "scripthash"}, "value": 0.015, "n": 0}, {"scriptPubKey": {"reqSigs": 1, "hex": "a9140cc48cbff5ee620eac03601dd11c376286e5013687", "addresses": ["32rXVN9sL3otLhLMAC1QFV8Bcy8xKjCEjP"], "asm": "OP_HASH160 0cc48cbff5ee620eac03601dd11c376286e50136 OP_EQUAL", "type": "scripthash"}, "value": 0.18499382, "n": 1}], "hex": "0100000000010179b1fd88e0e0c6e43cf654a36efe5ee2c989688114eca786d300950f8f677cc90000000023220020f33b102f4c41be41857bb8a68dd58495516dd99bd977968df14370fd2cce3e7dffffffff0260e316000000000017a9142a0df4b192d4c4b88f49fc00ee8e9c851a53e96a8736471a010000000017a9140cc48cbff5ee620eac03601dd11c376286e5013687040047304402204d49bc2125bdd620fc6f69fe5d2398f7181d176b6902165c71c23660619112be02202ad6574be34597b6db68fcadd39dfadf4630de4c2bc9775757a5beaf83e8b59a01483045022100e751c43abbf1bd6883a809376fe5faa5c76c281683bb38a6a5e365c3cbfe28d402202ce7fced68d938c76d2659dcc0ade6df1afa95fa5c7aa237c44023fe0188405501475221020317b3881331ddbf65ba5447815f37e20d60672a2ed00b658dd144daf82641b821038f2c7ecee34c843be9d886e50ce79e5dc40a1694c0417d60b35340f292ff73fc52ae00000000", "vin": [{"txinwitness": ["", "304402204d49bc2125bdd620fc6f69fe5d2398f7181d176b6902165c71c23660619112be02202ad6574be34597b6db68fcadd39dfadf4630de4c2bc9775757a5beaf83e8b59a01", "3045022100e751c43abbf1bd6883a809376fe5faa5c76c281683bb38a6a5e365c3cbfe28d402202ce7fced68d938c76d2659dcc0ade6df1afa95fa5c7aa237c44023fe0188405501", "5221020317b3881331ddbf65ba5447815f37e20d60672a2ed00b658dd144daf82641b821038f2c7ecee34c843be9d886e50ce79e5dc40a1694c0417d60b35340f292ff73fc52ae"], "sequence": 4294967295, "scriptSig": {"hex": "220020f33b102f4c41be41857bb8a68dd58495516dd99bd977968df14370fd2cce3e7d", "asm": "0020f33b102f4c41be41857bb8a68dd58495516dd99bd977968df14370fd2cce3e7d"}, "vout": 0, "txid": "c97c678f0f9500d386a7ec14816889c9e25efe6ea354f63ce4c6e0e088fdb179"}], "txid": "a2838b150dc9d10766627e521fc2641719f5322aeb81f7d9d4e7f2cb819e95fe", "blocktime": 1537873282, "version": 1, "confirmations": 11480, "time": 1537873282, "locktime": 0, "vsize": 206, "size": 371}