{"hash": "554e9abc156af757c164e416e0c5877e45e6f0d91b8cae917192d206723c5e95", "blockhash": "0000000000000000000e13cef7c366c0283d82e591d1acd082e914b08063cdf1", "vout": [{"scriptPubKey": {"reqSigs": 1, "hex": "a91476ae01b73b55e4f5e7096f9463fa70da7bec241d87", "addresses": ["3CWY7NqhrfbNHxTzsKjGzhJGk6vuwtt6aD"], "asm": "OP_HASH160 76ae01b73b55e4f5e7096f9463fa70da7bec241d OP_EQUAL", "type": "scripthash"}, "value": 0.01036748, "n": 0}, {"scriptPubKey": {"reqSigs": 1, "hex": "76a9146f4b18ea32188c2c6c117c6be7d98ca1c5ea3b4288ac", "addresses": ["1B9Ty9WUG3Typ6tQDdnR6nVr6zQML7R3kK"], "asm": "OP_DUP OP_HASH160 6f4b18ea32188c2c6c117c6be7d98ca1c5ea3b42 OP_EQUALVERIFY OP_CHECKSIG", "type": "pubkeyhash"}, "value": 0.0021786, "n": 1}], "hex": "020000000001029f4879f287804fd9c96a4d6ae033d1a0a39af65414f8399ca41a155136e6c7751800000017160014b74686c046247e64d455736bb11acc96ea60388efeffffffd91e880bdd2f5fb81558d0031cce8650a2240f517af3c9b2440e38a0769bb4470000000017160014e5b74a0510abab45139ba38b170964f25745565cfeffffff02ccd10f000000000017a91476ae01b73b55e4f5e7096f9463fa70da7bec241d8704530300000000001976a9146f4b18ea32188c2c6c117c6be7d98ca1c5ea3b4288ac02483045022100c6891db1438ab03a4e83f3c7c70971809984e94cbb60970b6d327c513d1a3f1802206bfe5ae17edb2a9d4dfce7755de7844cf0dc719c7b1e0bdd28b9999713c211fb012103aa2ab1ea5edd9bd4fa923fd7efce35585f33ba43d4f3bc11770412885c1a9743024730440220474365d52626c6e88eff4ee2741712689b357eb905f50197a3b0cd5872489bbf02200e42893feecb9b779de5e2db17f7a6e5728b2057198578a5bcd0b3b46fdf306c012103cc05f507ce73472f72c10a1f6820e336c9b35e9917e9ae882fe401f01e481b6c10490800", "vin": [{"txinwitness": ["3045022100c6891db1438ab03a4e83f3c7c70971809984e94cbb60970b6d327c513d1a3f1802206bfe5ae17edb2a9d4dfce7755de7844cf0dc719c7b1e0bdd28b9999713c211fb01", "03aa2ab1ea5edd9bd4fa923fd7efce35585f33ba43d4f3bc11770412885c1a9743"], "sequence": 4294967294, "scriptSig": {"hex": "160014b74686c046247e64d455736bb11acc96ea60388e", "asm": "0014b74686c046247e64d455736bb11acc96ea60388e"}, "vout": 24, "txid": "75c7e63651151aa49c39f81454f69aa3a0d133e06a4d6ac9d94f8087f279489f"}, {"txinwitness": ["30440220474365d52626c6e88eff4ee2741712689b357eb905f50197a3b0cd5872489bbf02200e42893feecb9b779de5e2db17f7a6e5728b2057198578a5bcd0b3b46fdf306c01", "03cc05f507ce73472f72c10a1f6820e336c9b35e9917e9ae882fe401f01e481b6c"], "sequence": 4294967294, "scriptSig": {"hex": "160014e5b74a0510abab45139ba38b170964f25745565c", "asm": "0014e5b74a0510abab45139ba38b170964f25745565c"}, "vout": 0, "txid": "47b49b76a0380e44b2c9f37a510f24a25086ce1c03d05815b85f2fdd0b881ed9"}], "txid": "a2877062da4bfad0ead56d6f7e48422190d61685e4fec4984de893e3a77dcc7f", "blocktime": 1537871767, "version": 2, "confirmations": 11495, "time": 1537871767, "locktime": 542992, "vsize": 259, "size": 421}