{"hash": "a292dd205ad35b000b79a5df34e038c115cdb1f85e9b897a16a8244925109524", "blockhash": "0000000000000000001e0dab787dd257d1dbfcb92a98c2207d5e1078be1f4165", "vout": [{"scriptPubKey": {"reqSigs": 1, "hex": "76a914b7d1ed949676ac937a20bb6aa718a007c3b4527d88ac", "addresses": ["1Hkx9ANFNegQ8h1yzGQV5HepfPRbXQ5kwP"], "asm": "OP_DUP OP_HASH160 b7d1ed949676ac937a20bb6aa718a007c3b4527d OP_EQUALVERIFY OP_CHECKSIG", "type": "pubkeyhash"}, "value": 0.00533776, "n": 0}, {"scriptPubKey": {"reqSigs": 1, "hex": "a914080984a262aeb84025346fe860a470eef5db1ad487", "addresses": ["32RWjQc1FrygA6tNUuaUwHH7kDQkCcxV35"], "asm": "OP_HASH160 080984a262aeb84025346fe860a470eef5db1ad4 OP_EQUAL", "type": "scripthash"}, "value": 0.17203003, "n": 1}], "hex": "01000000087fc4e0029247933a21af45bd7573fd4e9b266faa016bf2519c79b94cff5c2f1f000000006a47304402207b6d2c4afba0052998b260c85e07a5c9ba8bc8a7a5a9188ea774d32cf6d50b7f0220772a2a8a5ee6305783867bfcfed469c111551edb88744eda0394a00ffa819ddb0121038caf4edec4342173d4ae2d93da621b4a44082f191902181cbfd60b43e23482f8ffffffffe4b203d0f84f0832d177ca73f71ec3bae573f44e4992dd6803c95d4d43787fa3000000006a47304402205853e22a6ea7436a7b63bbe41bc51985cc9a729908b005b0a43ba9e517d814a302205cef196501380017bcf06bf08d0976295dfa2718134dba30ba4e1d8af07eb39a0121038caf4edec4342173d4ae2d93da621b4a44082f191902181cbfd60b43e23482f8ffffffff5505b46137d7b01e6646373688dca9c7b8314064ff93dfaa93484cb5cb0b9ea9000000006b4830450221008dd924a8dd9e6f68df57803a1c0ab53a54adf07c484d93db1e8bf8a36f58940f022032b5e3543293fbf3aa3e753c14a4b3eaf78336d1b01020e3b4fe0a6792722afb0121038caf4edec4342173d4ae2d93da621b4a44082f191902181cbfd60b43e23482f8ffffffffb7bb2de7aae024c239f5da38a2e651f935841c86da3fc9ff71a37aa7ddb93dae000000006a473044022069935fc8d4709f68b46c64ac37e3ec0f4a1105bcc972bbeb54ede31fdefcb8c80220674a26af6308b0b55564fb5f2b2370fb8d5b2557b86ff91112d2b24c02cc34f40121038caf4edec4342173d4ae2d93da621b4a44082f191902181cbfd60b43e23482f8ffffffff28900c22e88a106b4c43279b41db0dc8354cc76b6d2cecc39c2808db7fac57b0000000006b483045022100e9b3a0ed3c7863314483c4c0665f4e3a0e107d557fef010a9c70990211530db802200c44e370de7d61eb631c905e0bffd781c1372089f3b21c5548b5c951d4d453d80121038caf4edec4342173d4ae2d93da621b4a44082f191902181cbfd60b43e23482f8ffffffffc17d1b4d489ba198cddcb3d0c3cecdb16a06f55ab289687edec78091e54474b4010000006a47304402201a61ad4c8d0b8420b926a197a0fe531c8b9616685c5aba89df18d75d94ebad5e022003b146a59c88c92952ce0a474ecc619ee6cf25e6bc9d94addc02b9788951bb490121038caf4edec4342173d4ae2d93da621b4a44082f191902181cbfd60b43e23482f8fffffffff8ecd41f1bd07c119d973a5c3bd23e582d62aa5c092ceaef1aef0966fc822cd4000000006b483045022100db7438d4a90147692ccc22b8642dc0396fdf39800e1dfaab8305372550a4f9cf022066150564f32bf42687c44dd16ed00e68b5659cf985719ac95d2f53e1f8535034012103dc96e20fad5014d5869bd4687f3d2cbf1c1efcdc7df5f110a925af75b3cd8d5dfffffffff9f6e58f223652c3f06662e6932b65058cfbb3ddc98b0b1be6da2c59471ccdd7000000006b483045022100f05e67f6137b2aa7d6b5f74ee3edb021feaa081c21400ac0f67b3acde75f674402203a2ca42dd585cdd3f19b3c783d58ea81a864b3ad611e0df17a7fe684883a7e0a0121038caf4edec4342173d4ae2d93da621b4a44082f191902181cbfd60b43e23482f8ffffffff0210250800000000001976a914b7d1ed949676ac937a20bb6aa718a007c3b4527d88ac3b7f06010000000017a914080984a262aeb84025346fe860a470eef5db1ad48700000000", "vin": [{"sequence": 4294967295, "scriptSig": {"hex": "47304402207b6d2c4afba0052998b260c85e07a5c9ba8bc8a7a5a9188ea774d32cf6d50b7f0220772a2a8a5ee6305783867bfcfed469c111551edb88744eda0394a00ffa819ddb0121038caf4edec4342173d4ae2d93da621b4a44082f191902181cbfd60b43e23482f8", "asm": "304402207b6d2c4afba0052998b260c85e07a5c9ba8bc8a7a5a9188ea774d32cf6d50b7f0220772a2a8a5ee6305783867bfcfed469c111551edb88744eda0394a00ffa819ddb[ALL] 038caf4edec4342173d4ae2d93da621b4a44082f191902181cbfd60b43e23482f8"}, "vout": 0, "txid": "1f2f5cff4cb9799c51f26b01aa6f269b4efd7375bd45af213a93479202e0c47f"}, {"sequence": 4294967295, "scriptSig": {"hex": "47304402205853e22a6ea7436a7b63bbe41bc51985cc9a729908b005b0a43ba9e517d814a302205cef196501380017bcf06bf08d0976295dfa2718134dba30ba4e1d8af07eb39a0121038caf4edec4342173d4ae2d93da621b4a44082f191902181cbfd60b43e23482f8", "asm": "304402205853e22a6ea7436a7b63bbe41bc51985cc9a729908b005b0a43ba9e517d814a302205cef196501380017bcf06bf08d0976295dfa2718134dba30ba4e1d8af07eb39a[ALL] 038caf4edec4342173d4ae2d93da621b4a44082f191902181cbfd60b43e23482f8"}, "vout": 0, "txid": "a37f78434d5dc90368dd92494ef473e5bac31ef773ca77d132084ff8d003b2e4"}, {"sequence": 4294967295, "scriptSig": {"hex": "4830450221008dd924a8dd9e6f68df57803a1c0ab53a54adf07c484d93db1e8bf8a36f58940f022032b5e3543293fbf3aa3e753c14a4b3eaf78336d1b01020e3b4fe0a6792722afb0121038caf4edec4342173d4ae2d93da621b4a44082f191902181cbfd60b43e23482f8", "asm": "30450221008dd924a8dd9e6f68df57803a1c0ab53a54adf07c484d93db1e8bf8a36f58940f022032b5e3543293fbf3aa3e753c14a4b3eaf78336d1b01020e3b4fe0a6792722afb[ALL] 038caf4edec4342173d4ae2d93da621b4a44082f191902181cbfd60b43e23482f8"}, "vout": 0, "txid": "a99e0bcbb54c4893aadf93ff644031b8c7a9dc88363746661eb0d73761b40555"}, {"sequence": 4294967295, "scriptSig": {"hex": "473044022069935fc8d4709f68b46c64ac37e3ec0f4a1105bcc972bbeb54ede31fdefcb8c80220674a26af6308b0b55564fb5f2b2370fb8d5b2557b86ff91112d2b24c02cc34f40121038caf4edec4342173d4ae2d93da621b4a44082f191902181cbfd60b43e23482f8", "asm": "3044022069935fc8d4709f68b46c64ac37e3ec0f4a1105bcc972bbeb54ede31fdefcb8c80220674a26af6308b0b55564fb5f2b2370fb8d5b2557b86ff91112d2b24c02cc34f4[ALL] 038caf4edec4342173d4ae2d93da621b4a44082f191902181cbfd60b43e23482f8"}, "vout": 0, "txid": "ae3db9dda77aa371ffc93fda861c8435f951e6a238daf539c224e0aae72dbbb7"}, {"sequence": 4294967295, "scriptSig": {"hex": "483045022100e9b3a0ed3c7863314483c4c0665f4e3a0e107d557fef010a9c70990211530db802200c44e370de7d61eb631c905e0bffd781c1372089f3b21c5548b5c951d4d453d80121038caf4edec4342173d4ae2d93da621b4a44082f191902181cbfd60b43e23482f8", "asm": "3045022100e9b3a0ed3c7863314483c4c0665f4e3a0e107d557fef010a9c70990211530db802200c44e370de7d61eb631c905e0bffd781c1372089f3b21c5548b5c951d4d453d8[ALL] 038caf4edec4342173d4ae2d93da621b4a44082f191902181cbfd60b43e23482f8"}, "vout": 0, "txid": "b057ac7fdb08289cc3ec2c6d6bc74c35c80ddb419b27434c6b108ae8220c9028"}, {"sequence": 4294967295, "scriptSig": {"hex": "47304402201a61ad4c8d0b8420b926a197a0fe531c8b9616685c5aba89df18d75d94ebad5e022003b146a59c88c92952ce0a474ecc619ee6cf25e6bc9d94addc02b9788951bb490121038caf4edec4342173d4ae2d93da621b4a44082f191902181cbfd60b43e23482f8", "asm": "304402201a61ad4c8d0b8420b926a197a0fe531c8b9616685c5aba89df18d75d94ebad5e022003b146a59c88c92952ce0a474ecc619ee6cf25e6bc9d94addc02b9788951bb49[ALL] 038caf4edec4342173d4ae2d93da621b4a44082f191902181cbfd60b43e23482f8"}, "vout": 1, "txid": "b47444e59180c7de7e6889b25af5066ab1cdcec3d0b3dccd98a19b484d1b7dc1"}, {"sequence": 4294967295, "scriptSig": {"hex": "483045022100db7438d4a90147692ccc22b8642dc0396fdf39800e1dfaab8305372550a4f9cf022066150564f32bf42687c44dd16ed00e68b5659cf985719ac95d2f53e1f8535034012103dc96e20fad5014d5869bd4687f3d2cbf1c1efcdc7df5f110a925af75b3cd8d5d", "asm": "3045022100db7438d4a90147692ccc22b8642dc0396fdf39800e1dfaab8305372550a4f9cf022066150564f32bf42687c44dd16ed00e68b5659cf985719ac95d2f53e1f8535034[ALL] 03dc96e20fad5014d5869bd4687f3d2cbf1c1efcdc7df5f110a925af75b3cd8d5d"}, "vout": 0, "txid": "d42c82fc6609ef1aefea2c095caa622d583ed23b5c3a979d117cd01b1fd4ecf8"}, {"sequence": 4294967295, "scriptSig": {"hex": "483045022100f05e67f6137b2aa7d6b5f74ee3edb021feaa081c21400ac0f67b3acde75f674402203a2ca42dd585cdd3f19b3c783d58ea81a864b3ad611e0df17a7fe684883a7e0a0121038caf4edec4342173d4ae2d93da621b4a44082f191902181cbfd60b43e23482f8", "asm": "3045022100f05e67f6137b2aa7d6b5f74ee3edb021feaa081c21400ac0f67b3acde75f674402203a2ca42dd585cdd3f19b3c783d58ea81a864b3ad611e0df17a7fe684883a7e0a[ALL] 038caf4edec4342173d4ae2d93da621b4a44082f191902181cbfd60b43e23482f8"}, "vout": 0, "txid": "d7cd1c47592cdae61b0b8bc9ddb3fb8c05652b93e66266f0c35236228fe5f6f9"}], "txid": "a292dd205ad35b000b79a5df34e038c115cdb1f85e9b897a16a8244925109524", "blocktime": 1537872475, "version": 1, "confirmations": 11487, "time": 1537872475, "locktime": 0, "vsize": 1256, "size": 1256}