{"hash": "a29d2a6d2a072438744ef6c646c5788b5389c0fd35e008da80d8e399f9494724", "blockhash": "000000000000000000022b45ed06c6f4ccd3cf7fb5ba4856ebd2e58215665228", "vout": [{"scriptPubKey": {"type": "nulldata", "hex": "6a146f6d6e69000000000000001f00000c20413cf240", "asm": "OP_RETURN 6f6d6e69000000000000001f00000c20413cf240"}, "value": 0.0, "n": 0}, {"scriptPubKey": {"reqSigs": 1, "hex": "76a914a25dec4d0011064ef106a983c39c7a540699f22088ac", "addresses": ["1FoWyxwPXuj4C6abqwhjDWdz6D4PZgYRjA"], "asm": "OP_DUP OP_HASH160 a25dec4d0011064ef106a983c39c7a540699f220 OP_EQUALVERIFY OP_CHECKSIG", "type": "pubkeyhash"}, "value": 5.46e-06, "n": 1}, {"scriptPubKey": {"reqSigs": 1, "hex": "76a9140c8506c4a8924029d4d85fd021d3fe49b26a45db88ac", "addresses": ["129CU9B6tzkmKCKsxpK44QCMLzQy52wVz7"], "asm": "OP_DUP OP_HASH160 0c8506c4a8924029d4d85fd021d3fe49b26a45db OP_EQUALVERIFY OP_CHECKSIG", "type": "pubkeyhash"}, "value": 0.00653334, "n": 2}], "hex": "0100000002304c75d726a5446118e92e0bcef1b6224c26d8695d4e445af57b1f664b16d8ed020000006b483045022100ca16323035da0c3e431a309197365109475cc99b9de8816773e9cb3a4c85170a02201d4f3a80a180ab76bf40c25d65ca53442d0087d350d76255235c3e77f63ab86601210371a22ba9b75e043486eae6f4c10df4063b4248033230890d1bd4de61b2259e17feffffff7a565d29414e7385374406e956252db7e15c4b79776dd3b55fb6d50901e41afd010000006a473044022065d480783b6a4ba7ea90c5f978643bff3f7d6dc5b7519092029333c47bb0e53d02202d213778d7e9cf1771d6b58aa0fccfa08aca18f4b162f2e7b0b79ee19d4affe401210371a22ba9b75e043486eae6f4c10df4063b4248033230890d1bd4de61b2259e17feffffff030000000000000000166a146f6d6e69000000000000001f00000c20413cf24022020000000000001976a914a25dec4d0011064ef106a983c39c7a540699f22088ac16f80900000000001976a9140c8506c4a8924029d4d85fd021d3fe49b26a45db88ac0b490800", "vin": [{"sequence": 4294967294, "scriptSig": {"hex": "483045022100ca16323035da0c3e431a309197365109475cc99b9de8816773e9cb3a4c85170a02201d4f3a80a180ab76bf40c25d65ca53442d0087d350d76255235c3e77f63ab86601210371a22ba9b75e043486eae6f4c10df4063b4248033230890d1bd4de61b2259e17", "asm": "3045022100ca16323035da0c3e431a309197365109475cc99b9de8816773e9cb3a4c85170a02201d4f3a80a180ab76bf40c25d65ca53442d0087d350d76255235c3e77f63ab866[ALL] 0371a22ba9b75e043486eae6f4c10df4063b4248033230890d1bd4de61b2259e17"}, "vout": 2, "txid": "edd8164b661f7bf55a444e5d69d8264c22b6f1ce0b2ee9186144a526d7754c30"}, {"sequence": 4294967294, "scriptSig": {"hex": "473044022065d480783b6a4ba7ea90c5f978643bff3f7d6dc5b7519092029333c47bb0e53d02202d213778d7e9cf1771d6b58aa0fccfa08aca18f4b162f2e7b0b79ee19d4affe401210371a22ba9b75e043486eae6f4c10df4063b4248033230890d1bd4de61b2259e17", "asm": "3044022065d480783b6a4ba7ea90c5f978643bff3f7d6dc5b7519092029333c47bb0e53d02202d213778d7e9cf1771d6b58aa0fccfa08aca18f4b162f2e7b0b79ee19d4affe4[ALL] 0371a22ba9b75e043486eae6f4c10df4063b4248033230890d1bd4de61b2259e17"}, "vout": 1, "txid": "fd1ae40109d5b65fb5d36d77794b5ce1b72d2556e906443785734e41295d567a"}], "txid": "a29d2a6d2a072438744ef6c646c5788b5389c0fd35e008da80d8e399f9494724", "blocktime": 1537869901, "version": 1, "confirmations": 11524, "time": 1537869901, "locktime": 542987, "vsize": 404, "size": 404}