{"hash": "a29f85940bd6b11ea8322e7c5ef59635ca9f9eae93cacb5f21b40ca3fbf9bf72", "blockhash": "0000000000000000001f0ddff1eddb255c1121bcd4da4f1bc9a0da00cae72433", "vout": [{"scriptPubKey": {"reqSigs": 1, "hex": "76a91460c231ea7888ef2ed643d6d5491b4779769e3d2a88ac", "addresses": ["19pcWKYewKrkKPaVkRYqDoXoscQrMaYvTo"], "asm": "OP_DUP OP_HASH160 60c231ea7888ef2ed643d6d5491b4779769e3d2a OP_EQUALVERIFY OP_CHECKSIG", "type": "pubkeyhash"}, "value": 0.002808, "n": 0}, {"scriptPubKey": {"reqSigs": 1, "hex": "00140af4c5e9c7300b0c5adce8b8115dfb02ae4b64d4", "addresses": ["bc1qpt6vt6w8xq9sckkuazupzh0mq2hykex5yx4lh8"], "asm": "0 0af4c5e9c7300b0c5adce8b8115dfb02ae4b64d4", "type": "witness_v0_keyhash"}, "value": 5.415e-05, "n": 1}], "hex": "010000000111b75230d973d0ba58de8bfb55617ffba425da7a6d3d58b04d5e6abc60146382000000006a47304402204c3bde0aac89cebe76a4765582eff73b9a13b3d4e3de24e827d791608bd3aa930220649876a98ebfd922e70aebe05766b4a45838d96f4139e4f138c01cefbf434bbd012102f10c182df21f6ffb60de4f390ae97500053633b3d65be1e18185a1715af28f7cffffffff02e0480400000000001976a91460c231ea7888ef2ed643d6d5491b4779769e3d2a88ac27150000000000001600140af4c5e9c7300b0c5adce8b8115dfb02ae4b64d400000000", "vin": [{"sequence": 4294967295, "scriptSig": {"hex": "47304402204c3bde0aac89cebe76a4765582eff73b9a13b3d4e3de24e827d791608bd3aa930220649876a98ebfd922e70aebe05766b4a45838d96f4139e4f138c01cefbf434bbd012102f10c182df21f6ffb60de4f390ae97500053633b3d65be1e18185a1715af28f7c", "asm": "304402204c3bde0aac89cebe76a4765582eff73b9a13b3d4e3de24e827d791608bd3aa930220649876a98ebfd922e70aebe05766b4a45838d96f4139e4f138c01cefbf434bbd[ALL] 02f10c182df21f6ffb60de4f390ae97500053633b3d65be1e18185a1715af28f7c"}, "vout": 0, "txid": "82631460bc6a5e4db0583d6d7ada25a4fb7f6155fb8bde58bad073d93052b711"}], "txid": "a29f85940bd6b11ea8322e7c5ef59635ca9f9eae93cacb5f21b40ca3fbf9bf72", "blocktime": 1537872018, "version": 1, "confirmations": 11489, "time": 1537872018, "locktime": 0, "vsize": 222, "size": 222}