{"hash": "a2a218a6db69b1203812e673e9ed21334de3ca9dfcaca20ef39e722dc44a6839", "blockhash": "0000000000000000000e13cef7c366c0283d82e591d1acd082e914b08063cdf1", "vout": [{"scriptPubKey": {"reqSigs": 1, "hex": "76a914f41ee967c471f4b2d70b4057cf2ce59e117b671588ac", "addresses": ["1PFnubLJNuYsTbVxXy7p15kDB8ZZDYVx9o"], "asm": "OP_DUP OP_HASH160 f41ee967c471f4b2d70b4057cf2ce59e117b6715 OP_EQUALVERIFY OP_CHECKSIG", "type": "pubkeyhash"}, "value": 0.08047905, "n": 0}, {"scriptPubKey": {"reqSigs": 1, "hex": "76a9142de8d51928072713ae06e55b8e94cdb0d0912a9888ac", "addresses": ["15BkL7WNoM4p2iKwuQ1QEoNpSHfTWyUhP1"], "asm": "OP_DUP OP_HASH160 2de8d51928072713ae06e55b8e94cdb0d0912a98 OP_EQUALVERIFY OP_CHECKSIG", "type": "pubkeyhash"}, "value": 0.15176691, "n": 1}], "hex": "01000000017f93d0e83135645c07d7eccdf1bdfc22bb976aafb2270a58b78c1dfb5aad0a72010000006a47304402205dccde4e5e644e610e78693043ee4b5c2a9fd4eb24faf880b9f5e9e88ea0706a02203f6b0f756f6c3f0ad9bca50f44ba2d5947b51a8baec28a2fbc8ac71174a4fce7012102e258417fe8544718832fd3e1a0eece5d083deb059c86a0612c43fce9331f9a14ffffffff0221cd7a00000000001976a914f41ee967c471f4b2d70b4057cf2ce59e117b671588acf393e700000000001976a9142de8d51928072713ae06e55b8e94cdb0d0912a9888ac00000000", "vin": [{"sequence": 4294967295, "scriptSig": {"hex": "47304402205dccde4e5e644e610e78693043ee4b5c2a9fd4eb24faf880b9f5e9e88ea0706a02203f6b0f756f6c3f0ad9bca50f44ba2d5947b51a8baec28a2fbc8ac71174a4fce7012102e258417fe8544718832fd3e1a0eece5d083deb059c86a0612c43fce9331f9a14", "asm": "304402205dccde4e5e644e610e78693043ee4b5c2a9fd4eb24faf880b9f5e9e88ea0706a02203f6b0f756f6c3f0ad9bca50f44ba2d5947b51a8baec28a2fbc8ac71174a4fce7[ALL] 02e258417fe8544718832fd3e1a0eece5d083deb059c86a0612c43fce9331f9a14"}, "vout": 1, "txid": "720aad5afb1d8cb7580a27b2af6a97bb22fcbdf1cdecd7075c643531e8d0937f"}], "txid": "a2a218a6db69b1203812e673e9ed21334de3ca9dfcaca20ef39e722dc44a6839", "blocktime": 1537871767, "version": 1, "confirmations": 11495, "time": 1537871767, "locktime": 0, "vsize": 225, "size": 225}