{"hash": "a2a39f8bfef621b04c6e32fafc4c4a6457d749c80d7df09757a823013bdb36b3", "blockhash": "00000000000000000018f53835495a110e01622372bf6ae95dc86f2b0ab887b0", "vout": [{"scriptPubKey": {"reqSigs": 1, "hex": "a914b386b413d66c60850e906a411cfaf14ad762cbb487", "addresses": ["3J4GFErPW6gvAMXq6DLippa45rDaFRuVr3"], "asm": "OP_HASH160 b386b413d66c60850e906a411cfaf14ad762cbb4 OP_EQUAL", "type": "scripthash"}, "value": 0.016413, "n": 0}, {"scriptPubKey": {"reqSigs": 1, "hex": "76a91460552623464b8c4a591c46feee64a97f11b8095f88ac", "addresses": ["19nMsfsoXYfxsYsEkuHBPLvXrXarvZiFmS"], "asm": "OP_DUP OP_HASH160 60552623464b8c4a591c46feee64a97f11b8095f OP_EQUALVERIFY OP_CHECKSIG", "type": "pubkeyhash"}, "value": 0.26382954, "n": 1}], "hex": "010000000140db13e7629f6cea8dd6d971098b3a3826d889471239d4f747e1138e1f2c91a0010000006b483045022100e8d2a6a352f18407ae26e5fc1626b143f0880ed07736b27f06ac45a1f22a80c402200ea941e3ed434c9247547071f76346bb56de77d577005e620a02d65d7b1ef6500121034a900d205fb3331c9b422d5bc22bed88c0d5814bc2459544908969e19e2d8cf3ffffffff02540b19000000000017a914b386b413d66c60850e906a411cfaf14ad762cbb4876a929201000000001976a91460552623464b8c4a591c46feee64a97f11b8095f88ac00000000", "vin": [{"sequence": 4294967295, "scriptSig": {"hex": "483045022100e8d2a6a352f18407ae26e5fc1626b143f0880ed07736b27f06ac45a1f22a80c402200ea941e3ed434c9247547071f76346bb56de77d577005e620a02d65d7b1ef6500121034a900d205fb3331c9b422d5bc22bed88c0d5814bc2459544908969e19e2d8cf3", "asm": "3045022100e8d2a6a352f18407ae26e5fc1626b143f0880ed07736b27f06ac45a1f22a80c402200ea941e3ed434c9247547071f76346bb56de77d577005e620a02d65d7b1ef650[ALL] 034a900d205fb3331c9b422d5bc22bed88c0d5814bc2459544908969e19e2d8cf3"}, "vout": 1, "txid": "a0912c1f8e13e147f7d439124789d826383a8b0971d9d68dea6c9f62e713db40"}], "txid": "a2a39f8bfef621b04c6e32fafc4c4a6457d749c80d7df09757a823013bdb36b3", "blocktime": 1537870928, "version": 1, "confirmations": 11514, "time": 1537870928, "locktime": 0, "vsize": 224, "size": 224}