{"hash": "a2a7b9dcc3ad30ee3d8cc1e8ddb7ac754b29957a7415712222a5184989357eda", "blockhash": "00000000000000000024a2167bbff67b0be802c0b01cdd79e6331c2be6459f87", "vout": [{"scriptPubKey": {"reqSigs": 1, "hex": "76a914bb37a75ed56d033f21580aa9d21bfd2ec0ee005388ac", "addresses": ["1J4v2mQ2GGJPcMpAMSyp3E2aBrMpYqR1wj"], "asm": "OP_DUP OP_HASH160 bb37a75ed56d033f21580aa9d21bfd2ec0ee0053 OP_EQUALVERIFY OP_CHECKSIG", "type": "pubkeyhash"}, "value": 0.00029322, "n": 0}, {"scriptPubKey": {"reqSigs": 1, "hex": "a9142e66124360e6ab09cea72253009358f938db77b687", "addresses": ["35vMHQgEV42ucQmPRuR3MtCdaypQ7JdPNx"], "asm": "OP_HASH160 2e66124360e6ab09cea72253009358f938db77b6 OP_EQUAL", "type": "scripthash"}, "value": 0.0022, "n": 1}], "hex": "010000000155fff6011d7c3879f4f0c95acedb6f086f0e8260fbe199a298f9df8d18a72eae010000006b483045022100e6f48ada219e1a92315bbf7aff9dc9afd0304aba4e1b9e9a7011042f93906180022006cde129f2e942bcd80257789dd8423050e22677e2e92a149e34b7cd8138f6a6012103d1d8f6c3ccf7ecd823ba4278114d26256eadcb7a1452e9b04f1613a86eccc26dffffffff028a720000000000001976a914bb37a75ed56d033f21580aa9d21bfd2ec0ee005388ac605b03000000000017a9142e66124360e6ab09cea72253009358f938db77b68700000000", "vin": [{"sequence": 4294967295, "scriptSig": {"hex": "483045022100e6f48ada219e1a92315bbf7aff9dc9afd0304aba4e1b9e9a7011042f93906180022006cde129f2e942bcd80257789dd8423050e22677e2e92a149e34b7cd8138f6a6012103d1d8f6c3ccf7ecd823ba4278114d26256eadcb7a1452e9b04f1613a86eccc26d", "asm": "3045022100e6f48ada219e1a92315bbf7aff9dc9afd0304aba4e1b9e9a7011042f93906180022006cde129f2e942bcd80257789dd8423050e22677e2e92a149e34b7cd8138f6a6[ALL] 03d1d8f6c3ccf7ecd823ba4278114d26256eadcb7a1452e9b04f1613a86eccc26d"}, "vout": 1, "txid": "ae2ea7188ddff998a299e1fb60820e6f086fdbce5ac9f0f479387c1d01f6ff55"}], "txid": "a2a7b9dcc3ad30ee3d8cc1e8ddb7ac754b29957a7415712222a5184989357eda", "blocktime": 1537870564, "version": 1, "confirmations": 11515, "time": 1537870564, "locktime": 0, "vsize": 224, "size": 224}