{"hash": "a2b98de2115c2103e01be0ad4a28f6ae48baacf44a707f5e12f6d29ba32fd302", "blockhash": "0000000000000000001f76057863aec43deb6fa401d9628bb513d65a8098bfab", "vout": [{"scriptPubKey": {"type": "nulldata", "hex": "6a4c50000077ee0001ab0c9dba3ac280be113ad72cd19ed074892d00f8e87af8e8e963c7cfd5b9c5b4bc5aea6a81de856dad7fc7696b3f5baa17bb0613a7bfd3fe3d4f1d100759d4ba30d2c37bb011d97e02cf", "asm": "OP_RETURN 000077ee0001ab0c9dba3ac280be113ad72cd19ed074892d00f8e87af8e8e963c7cfd5b9c5b4bc5aea6a81de856dad7fc7696b3f5baa17bb0613a7bfd3fe3d4f1d100759d4ba30d2c37bb011d97e02cf"}, "value": 0.0, "n": 0}, {"scriptPubKey": {"reqSigs": 1, "hex": "76a914c30ce02fb9e384f85a32e0e2ba03562578bff57788ac", "addresses": ["1JnLC2duscp595YUhAtrQ2abXdDbEjEoKZ"], "asm": "OP_DUP OP_HASH160 c30ce02fb9e384f85a32e0e2ba03562578bff577 OP_EQUALVERIFY OP_CHECKSIG", "type": "pubkeyhash"}, "value": 0.00634761, "n": 1}], "hex": "01000000015581c7c29826fecea1a88ffa01da2e0ee6694b07a086b3a87c60f6aeb36e7881000000006b483045022100acd6bc4304d6c4b7a6762a3b004c2908e3ee763d00dfe1021232755b1a6f77fa02205b3ec7c12afdb1c83dc9db477ac42f406361fc51c58da6c895a0358eb38208c40121023609bf319f9bc6c8638c84c4c718f83d1e420c6ff118c2cdc3cfee8504706509ffffffff020000000000000000536a4c50000077ee0001ab0c9dba3ac280be113ad72cd19ed074892d00f8e87af8e8e963c7cfd5b9c5b4bc5aea6a81de856dad7fc7696b3f5baa17bb0613a7bfd3fe3d4f1d100759d4ba30d2c37bb011d97e02cf89af0900000000001976a914c30ce02fb9e384f85a32e0e2ba03562578bff57788ac00000000", "vin": [{"sequence": 4294967295, "scriptSig": {"hex": "483045022100acd6bc4304d6c4b7a6762a3b004c2908e3ee763d00dfe1021232755b1a6f77fa02205b3ec7c12afdb1c83dc9db477ac42f406361fc51c58da6c895a0358eb38208c40121023609bf319f9bc6c8638c84c4c718f83d1e420c6ff118c2cdc3cfee8504706509", "asm": "3045022100acd6bc4304d6c4b7a6762a3b004c2908e3ee763d00dfe1021232755b1a6f77fa02205b3ec7c12afdb1c83dc9db477ac42f406361fc51c58da6c895a0358eb38208c4[ALL] 023609bf319f9bc6c8638c84c4c718f83d1e420c6ff118c2cdc3cfee8504706509"}, "vout": 0, "txid": "81786eb3aef6607ca8b386a0074b69e60e2eda01fa8fa8a1cefe2698c2c78155"}], "txid": "a2b98de2115c2103e01be0ad4a28f6ae48baacf44a707f5e12f6d29ba32fd302", "blocktime": 1537873891, "version": 1, "confirmations": 11478, "time": 1537873891, "locktime": 0, "vsize": 284, "size": 284}