{"hash": "a2c43dce710c1cf19dcd5f3f32627fc6d2950459fae19286e00927a7cf446d68", "blockhash": "0000000000000000001e0dab787dd257d1dbfcb92a98c2207d5e1078be1f4165", "vout": [{"scriptPubKey": {"reqSigs": 1, "hex": "76a914c88ea84ee0eaaf09df00b4b57850aade125272ef88ac", "addresses": ["1KHT3P2Qdq67Soy51faVSQ84E7L7JmVvP5"], "asm": "OP_DUP OP_HASH160 c88ea84ee0eaaf09df00b4b57850aade125272ef OP_EQUALVERIFY OP_CHECKSIG", "type": "pubkeyhash"}, "value": 0.00725997, "n": 0}, {"scriptPubKey": {"reqSigs": 1, "hex": "76a914e8cea30989bd15530f819b766684b00dc7ba7cfa88ac", "addresses": ["1NDyJtNTjmwk5xPNhjgAMu4HDHigtobu1s"], "asm": "OP_DUP OP_HASH160 e8cea30989bd15530f819b766684b00dc7ba7cfa OP_EQUALVERIFY OP_CHECKSIG", "type": "pubkeyhash"}, "value": 4.26912099, "n": 1}], "hex": "020000001206900ddb635897f1e58cc45a8cd1cc8dee3e3123bfa96430337311d677934e7e000000006b483045022100dd41f3815a3cdf8dd49ccb53bb5ebd91ac7541b396643db396b7da1fa757692e02201ac3ff8f168b9572a6028fe748751ad4e5acf87d9c87a2200e5400f17ff8c4bd01210284db0cc44c712f3ad6d4f4a9f3a87e4bbca2bfb9240c07f50d003fc5e37d8a9ffeffffff1bd6bf3878b291760ad2fb821182e9aa1a0f2d0d18d398ad36240307e1b23e3c000000006a473044022053b77237db6c23f628f5ed5930a87f564cffd96731db1d7c1846f3babf58a2ba02205520a6add879e531a87d8005ca46e3b364d6f55331696f083e857f71c7b5d7a3012102725746cda7162fd9fd9fd956aa2fc673eb35ba732ea09a2da35498d16784f7acfeffffff29509a9d15fca94c82dc998ac8243d9f3bd44f293f5dd391846454c8779ff44f020000006b4830450221008d9ac5f15ef0c6b3ebd724b0c7440d16b258ab31c411d7e00e4970b835ce0fb602206cdfa947674f26c4c7a8f849a3c33b18ee61b6c8815c93dc326e07ff816adfc10121028c5eef960262ee95665cc98353e49208282cf0d3ea54edb29aa8627b9b65390efeffffff2ed1ab0acca5161f8b8461b358e847a45212fdec6897cdf8f81d48ba9de2682c010000006a4730440220410a9d1339492f43f364f6affdb93da13edb02dcdc20a17303faeaed1370a9a7022006047c9bb82cad2a4ed36bce501d0dcd17416eccc7a3775229996a32b9ba913c012102529dbe3deef323b83ecb649d9d7573a8a9d35aa30967d85ca09ef7a513137f05feffffff3ba34f25c73676e9b8e9f3684425efb8a9c3bea204c5f7a325d62c73f24d04f9010000006a47304402200e6da9bd373f96e08bbacd0737a10ed27b5700af8ed4060c74be03e2f0dbadbb02204a1b15efd39253d58c0504e421617d017d097fe86484b5f3b2284838416417450121033e4b9604974874f5656712326a9ef5df2ec37675d77cc9d07aa5863058a1773efeffffff4fcf7bd2f569a593734a2ea3819b4c8e80f9e2515503adde8bff7728a45370311b0000006a47304402206fc2d1f3d8b265eee7efd2ff9d8c666fc49a283c16613d086e4b0b33562fcc4002203b106465e6d8c2f516633df9f098533fabc79ee0a30ab13871f16e30d488121f01210278c3c2016ca6e205106b2bd562dc25834e6d54141327b5433515dd706c496648feffffff4fcf7bd2f569a593734a2ea3819b4c8e80f9e2515503adde8bff7728a45370311e0000006b4830450221008f2f5966dba62699762437690b56788821ebe00fc41fc5571a72105acf93bddb0220691819457c9aea0289c418822b5f8de7d10e524e382a85245174a05d238e24470121034607f30cece4167b76ed3352547ec96dcdcd29698819ca7a3c51f6cee335a805feffffff5a4f2e98e791de749f83b1c8f2fbda804c0ada3a2e43ac4146276a1afada6a85010000006b483045022100f161e03403f55c33a4711a5f179e2d5a7ad962d01b00e268b984e72ae51ddfc502204042cbec3b43a893574f61a7480e001982d996ff1434fad9237991f2dcc94ddb01210369b0fae9e871de3c752851d053e3ce69b8ed87035883ce7a0bac099def166c32feffffff69e0f16ffa27cdd822a9e85b6e41e7d07bba9dea22fddce41038de890bd6f6fb000000006b483045022100c6cd104fdad6d7118c99dda62c93c34318af3f251ab2a6888a4eb7859f4df47b0220420c783d5b949f3f2ec42d356ca4699eb150413d8b8f224a25b303b9779fdb3e012102dc183823fee7edbb77ce52c367d314e4cfead74dd43a174b970597d94049ac62feffffff766e661cd95c377f43df3d25a276a9399f55e1ba35e73a916703495be4f521f4050000006a473044022045f6fac58a8df4d910ffcdff9afa7f92e505d15449c20320f4bef2d6671d8ce602204e05b7720f7f0bfb2c9e417328f9e13d95b19c86bafbfb26e10436b657bec2b5012103e965478d0a1eeddfa9b3f85e4c15bd0412d8c785e7c161bf889c6ed301601cebfeffffff7f803f7e022f5381cb54a48f56fb174bb943e9639b68b1fe02838007b741ee9e210100006b48304502210090d13486b269d66702111f18b76bcc8ddb147a8d64f19a0a5b7b9ca267c59cf402206449a763746e11e3755355d444c2482e914b8b8d8cb6984ab8f7aa29f5ddcf2b012103bcddc35383ed7d1fce7b12533c47151deb402fa89dd6add3ffb1575ec0e61086feffffff9bf67b89c245dd44d6eeedf21e7b69d220cbb01eeb845eb91fe494e5e3064c69000000006a473044022049503b8959f70371067bc778204e438a5dc949f351c1080b48be16d53c82b9b20220566d4f168c83e41f3214b20a6e396ffab0b24a87aa0361d4d51ecd4c1d993f53012102538912d9e991b4a6a40b7dd26d0a21bfbdd76ca1c881c020f252c0101ed6a953feffffffa6667e283324329b9ff7de20df3afadc2cca338ed364b6ca3dd99afa483a13bd010000006b483045022100bf173368b4f942a9f2418ef0e0bdfba9ee9ebbb4c966d2cebc53f06a44f725b902202de29b25ef0a637fdcdd839addae71da6e76d8ecf9f359394b84bf0909204f4201210269ce9e633bd4187b6de9d4451b63fac8eefa8a1e49f00ff6cc61008432a70b69feffffffaf6d35197f1b46e676de942e2dd1077b32797354b47725a2ea52b9c2e962d0aa000000006a47304402200fabfb3a037456a51feaddd6aac5fd49fc59c698b498987b9e883244fae3948a022012ede04fea08d91b222e8f70d2721069afaaf2585c26a9a99140321d59808f230121027a44ed0d4816f53e039f0b22539319a764d1baae2f9c0aac9343a29b81819aadfeffffffdd21146da36ad742e10ea13839729c101ecffd8952e0c4bba8ff3939f5056405000000006b483045022100fb66b86c402b559d22e1f943b2088ea17d6158b940c9bf03cbb79db3737358130220088101a76d1d074c3235155469f91bf32ae39637acbaddb5f444f36ec84f66b3012103a4a02569c8ab80953ac650c1e1cc961cbc18ca257a986088a8f4eef40dd4d210feffffffe522e1d896e179c9e13a8f59684f3848c7c5c96383520b362bb43cc356e22a32030000006b483045022100bc41d786883583e3df3615d59393557e27786410547b4e626f36a0a6f722594702202cab8f209a172cafc64c8ee9610ed926de960b8a08a1b72addecf9b286fe64400121028102330d19d00c8f50a30d70672f4a5d4ebca9be05eeee33d757954ffa21530afefffffff251d501de0a4df7037ffa3241d84d2ed450b5907cce368eae20a1b8077fc0e4040000006a473044022050223b6b50e2fd1e3ed018a3103151c235dcbe493ee93c967560d4ee2589e14a02201d93b1e8ca85fbb665ddb5258f7f8365bbef34ddd4c7f2357ad40c7b5ab6efb20121029e4394c3caf87c04d6944758e9d4d4e44af8a897c694110d2b0e74c6817bc15efefffffffdaf774666801474f24d653ec9bcff010816d1f42d13146a8e907227e1536524000000006a473044022004da738b5e118a063115ecee8c9249123dae096e238d487706a98133a039922302200c6bdc221095792ca90eb013b208caca5e2e6304502c82905e3af3fdec1be2f601210228b9c11c60c1c26d20035b44347903ed5afbe70e191c26892c6c2354b9f99fa3feffffff02ed130b00000000001976a914c88ea84ee0eaaf09df00b4b57850aade125272ef88ac63297219000000001976a914e8cea30989bd15530f819b766684b00dc7ba7cfa88ac12490800", "vin": [{"sequence": 4294967294, "scriptSig": {"hex": "483045022100dd41f3815a3cdf8dd49ccb53bb5ebd91ac7541b396643db396b7da1fa757692e02201ac3ff8f168b9572a6028fe748751ad4e5acf87d9c87a2200e5400f17ff8c4bd01210284db0cc44c712f3ad6d4f4a9f3a87e4bbca2bfb9240c07f50d003fc5e37d8a9f", "asm": "3045022100dd41f3815a3cdf8dd49ccb53bb5ebd91ac7541b396643db396b7da1fa757692e02201ac3ff8f168b9572a6028fe748751ad4e5acf87d9c87a2200e5400f17ff8c4bd[ALL] 0284db0cc44c712f3ad6d4f4a9f3a87e4bbca2bfb9240c07f50d003fc5e37d8a9f"}, "vout": 0, "txid": "7e4e9377d61173333064a9bf23313eee8dccd18c5ac48ce5f1975863db0d9006"}, {"sequence": 4294967294, "scriptSig": {"hex": "473044022053b77237db6c23f628f5ed5930a87f564cffd96731db1d7c1846f3babf58a2ba02205520a6add879e531a87d8005ca46e3b364d6f55331696f083e857f71c7b5d7a3012102725746cda7162fd9fd9fd956aa2fc673eb35ba732ea09a2da35498d16784f7ac", "asm": "3044022053b77237db6c23f628f5ed5930a87f564cffd96731db1d7c1846f3babf58a2ba02205520a6add879e531a87d8005ca46e3b364d6f55331696f083e857f71c7b5d7a3[ALL] 02725746cda7162fd9fd9fd956aa2fc673eb35ba732ea09a2da35498d16784f7ac"}, "vout": 0, "txid": "3c3eb2e107032436ad98d3180d2d0f1aaae9821182fbd20a7691b27838bfd61b"}, {"sequence": 4294967294, "scriptSig": {"hex": "4830450221008d9ac5f15ef0c6b3ebd724b0c7440d16b258ab31c411d7e00e4970b835ce0fb602206cdfa947674f26c4c7a8f849a3c33b18ee61b6c8815c93dc326e07ff816adfc10121028c5eef960262ee95665cc98353e49208282cf0d3ea54edb29aa8627b9b65390e", "asm": "30450221008d9ac5f15ef0c6b3ebd724b0c7440d16b258ab31c411d7e00e4970b835ce0fb602206cdfa947674f26c4c7a8f849a3c33b18ee61b6c8815c93dc326e07ff816adfc1[ALL] 028c5eef960262ee95665cc98353e49208282cf0d3ea54edb29aa8627b9b65390e"}, "vout": 2, "txid": "4ff49f77c854648491d35d3f294fd43b9f3d24c88a99dc824ca9fc159d9a5029"}, {"sequence": 4294967294, "scriptSig": {"hex": "4730440220410a9d1339492f43f364f6affdb93da13edb02dcdc20a17303faeaed1370a9a7022006047c9bb82cad2a4ed36bce501d0dcd17416eccc7a3775229996a32b9ba913c012102529dbe3deef323b83ecb649d9d7573a8a9d35aa30967d85ca09ef7a513137f05", "asm": "30440220410a9d1339492f43f364f6affdb93da13edb02dcdc20a17303faeaed1370a9a7022006047c9bb82cad2a4ed36bce501d0dcd17416eccc7a3775229996a32b9ba913c[ALL] 02529dbe3deef323b83ecb649d9d7573a8a9d35aa30967d85ca09ef7a513137f05"}, "vout": 1, "txid": "2c68e29dba481df8f8cd9768ecfd1252a447e858b361848b1f16a5cc0aabd12e"}, {"sequence": 4294967294, "scriptSig": {"hex": "47304402200e6da9bd373f96e08bbacd0737a10ed27b5700af8ed4060c74be03e2f0dbadbb02204a1b15efd39253d58c0504e421617d017d097fe86484b5f3b2284838416417450121033e4b9604974874f5656712326a9ef5df2ec37675d77cc9d07aa5863058a1773e", "asm": "304402200e6da9bd373f96e08bbacd0737a10ed27b5700af8ed4060c74be03e2f0dbadbb02204a1b15efd39253d58c0504e421617d017d097fe86484b5f3b228483841641745[ALL] 033e4b9604974874f5656712326a9ef5df2ec37675d77cc9d07aa5863058a1773e"}, "vout": 1, "txid": "f9044df2732cd625a3f7c504a2bec3a9b8ef254468f3e9b8e97636c7254fa33b"}, {"sequence": 4294967294, "scriptSig": {"hex": "47304402206fc2d1f3d8b265eee7efd2ff9d8c666fc49a283c16613d086e4b0b33562fcc4002203b106465e6d8c2f516633df9f098533fabc79ee0a30ab13871f16e30d488121f01210278c3c2016ca6e205106b2bd562dc25834e6d54141327b5433515dd706c496648", "asm": "304402206fc2d1f3d8b265eee7efd2ff9d8c666fc49a283c16613d086e4b0b33562fcc4002203b106465e6d8c2f516633df9f098533fabc79ee0a30ab13871f16e30d488121f[ALL] 0278c3c2016ca6e205106b2bd562dc25834e6d54141327b5433515dd706c496648"}, "vout": 27, "txid": "317053a42877ff8bdead035551e2f9808e4c9b81a32e4a7393a569f5d27bcf4f"}, {"sequence": 4294967294, "scriptSig": {"hex": "4830450221008f2f5966dba62699762437690b56788821ebe00fc41fc5571a72105acf93bddb0220691819457c9aea0289c418822b5f8de7d10e524e382a85245174a05d238e24470121034607f30cece4167b76ed3352547ec96dcdcd29698819ca7a3c51f6cee335a805", "asm": "30450221008f2f5966dba62699762437690b56788821ebe00fc41fc5571a72105acf93bddb0220691819457c9aea0289c418822b5f8de7d10e524e382a85245174a05d238e2447[ALL] 034607f30cece4167b76ed3352547ec96dcdcd29698819ca7a3c51f6cee335a805"}, "vout": 30, "txid": "317053a42877ff8bdead035551e2f9808e4c9b81a32e4a7393a569f5d27bcf4f"}, {"sequence": 4294967294, "scriptSig": {"hex": "483045022100f161e03403f55c33a4711a5f179e2d5a7ad962d01b00e268b984e72ae51ddfc502204042cbec3b43a893574f61a7480e001982d996ff1434fad9237991f2dcc94ddb01210369b0fae9e871de3c752851d053e3ce69b8ed87035883ce7a0bac099def166c32", "asm": "3045022100f161e03403f55c33a4711a5f179e2d5a7ad962d01b00e268b984e72ae51ddfc502204042cbec3b43a893574f61a7480e001982d996ff1434fad9237991f2dcc94ddb[ALL] 0369b0fae9e871de3c752851d053e3ce69b8ed87035883ce7a0bac099def166c32"}, "vout": 1, "txid": "856adafa1a6a274641ac432e3ada0a4c80dafbf2c8b1839f74de91e7982e4f5a"}, {"sequence": 4294967294, "scriptSig": {"hex": "483045022100c6cd104fdad6d7118c99dda62c93c34318af3f251ab2a6888a4eb7859f4df47b0220420c783d5b949f3f2ec42d356ca4699eb150413d8b8f224a25b303b9779fdb3e012102dc183823fee7edbb77ce52c367d314e4cfead74dd43a174b970597d94049ac62", "asm": "3045022100c6cd104fdad6d7118c99dda62c93c34318af3f251ab2a6888a4eb7859f4df47b0220420c783d5b949f3f2ec42d356ca4699eb150413d8b8f224a25b303b9779fdb3e[ALL] 02dc183823fee7edbb77ce52c367d314e4cfead74dd43a174b970597d94049ac62"}, "vout": 0, "txid": "fbf6d60b89de3810e4dcfd22ea9dba7bd0e7416e5be8a922d8cd27fa6ff1e069"}, {"sequence": 4294967294, "scriptSig": {"hex": "473044022045f6fac58a8df4d910ffcdff9afa7f92e505d15449c20320f4bef2d6671d8ce602204e05b7720f7f0bfb2c9e417328f9e13d95b19c86bafbfb26e10436b657bec2b5012103e965478d0a1eeddfa9b3f85e4c15bd0412d8c785e7c161bf889c6ed301601ceb", "asm": "3044022045f6fac58a8df4d910ffcdff9afa7f92e505d15449c20320f4bef2d6671d8ce602204e05b7720f7f0bfb2c9e417328f9e13d95b19c86bafbfb26e10436b657bec2b5[ALL] 03e965478d0a1eeddfa9b3f85e4c15bd0412d8c785e7c161bf889c6ed301601ceb"}, "vout": 5, "txid": "f421f5e45b490367913ae735bae1559f39a976a2253ddf437f375cd91c666e76"}, {"sequence": 4294967294, "scriptSig": {"hex": "48304502210090d13486b269d66702111f18b76bcc8ddb147a8d64f19a0a5b7b9ca267c59cf402206449a763746e11e3755355d444c2482e914b8b8d8cb6984ab8f7aa29f5ddcf2b012103bcddc35383ed7d1fce7b12533c47151deb402fa89dd6add3ffb1575ec0e61086", "asm": "304502210090d13486b269d66702111f18b76bcc8ddb147a8d64f19a0a5b7b9ca267c59cf402206449a763746e11e3755355d444c2482e914b8b8d8cb6984ab8f7aa29f5ddcf2b[ALL] 03bcddc35383ed7d1fce7b12533c47151deb402fa89dd6add3ffb1575ec0e61086"}, "vout": 289, "txid": "9eee41b707808302feb1689b63e943b94b17fb568fa454cb81532f027e3f807f"}, {"sequence": 4294967294, "scriptSig": {"hex": "473044022049503b8959f70371067bc778204e438a5dc949f351c1080b48be16d53c82b9b20220566d4f168c83e41f3214b20a6e396ffab0b24a87aa0361d4d51ecd4c1d993f53012102538912d9e991b4a6a40b7dd26d0a21bfbdd76ca1c881c020f252c0101ed6a953", "asm": "3044022049503b8959f70371067bc778204e438a5dc949f351c1080b48be16d53c82b9b20220566d4f168c83e41f3214b20a6e396ffab0b24a87aa0361d4d51ecd4c1d993f53[ALL] 02538912d9e991b4a6a40b7dd26d0a21bfbdd76ca1c881c020f252c0101ed6a953"}, "vout": 0, "txid": "694c06e3e594e41fb95e84eb1eb0cb20d2697b1ef2edeed644dd45c2897bf69b"}, {"sequence": 4294967294, "scriptSig": {"hex": "483045022100bf173368b4f942a9f2418ef0e0bdfba9ee9ebbb4c966d2cebc53f06a44f725b902202de29b25ef0a637fdcdd839addae71da6e76d8ecf9f359394b84bf0909204f4201210269ce9e633bd4187b6de9d4451b63fac8eefa8a1e49f00ff6cc61008432a70b69", "asm": "3045022100bf173368b4f942a9f2418ef0e0bdfba9ee9ebbb4c966d2cebc53f06a44f725b902202de29b25ef0a637fdcdd839addae71da6e76d8ecf9f359394b84bf0909204f42[ALL] 0269ce9e633bd4187b6de9d4451b63fac8eefa8a1e49f00ff6cc61008432a70b69"}, "vout": 1, "txid": "bd133a48fa9ad93dcab664d38e33ca2cdcfa3adf20def79f9b322433287e66a6"}, {"sequence": 4294967294, "scriptSig": {"hex": "47304402200fabfb3a037456a51feaddd6aac5fd49fc59c698b498987b9e883244fae3948a022012ede04fea08d91b222e8f70d2721069afaaf2585c26a9a99140321d59808f230121027a44ed0d4816f53e039f0b22539319a764d1baae2f9c0aac9343a29b81819aad", "asm": "304402200fabfb3a037456a51feaddd6aac5fd49fc59c698b498987b9e883244fae3948a022012ede04fea08d91b222e8f70d2721069afaaf2585c26a9a99140321d59808f23[ALL] 027a44ed0d4816f53e039f0b22539319a764d1baae2f9c0aac9343a29b81819aad"}, "vout": 0, "txid": "aad062e9c2b952eaa22577b4547379327b07d12d2e94de76e6461b7f19356daf"}, {"sequence": 4294967294, "scriptSig": {"hex": "483045022100fb66b86c402b559d22e1f943b2088ea17d6158b940c9bf03cbb79db3737358130220088101a76d1d074c3235155469f91bf32ae39637acbaddb5f444f36ec84f66b3012103a4a02569c8ab80953ac650c1e1cc961cbc18ca257a986088a8f4eef40dd4d210", "asm": "3045022100fb66b86c402b559d22e1f943b2088ea17d6158b940c9bf03cbb79db3737358130220088101a76d1d074c3235155469f91bf32ae39637acbaddb5f444f36ec84f66b3[ALL] 03a4a02569c8ab80953ac650c1e1cc961cbc18ca257a986088a8f4eef40dd4d210"}, "vout": 0, "txid": "056405f53939ffa8bbc4e05289fdcf1e109c723938a10ee142d76aa36d1421dd"}, {"sequence": 4294967294, "scriptSig": {"hex": "483045022100bc41d786883583e3df3615d59393557e27786410547b4e626f36a0a6f722594702202cab8f209a172cafc64c8ee9610ed926de960b8a08a1b72addecf9b286fe64400121028102330d19d00c8f50a30d70672f4a5d4ebca9be05eeee33d757954ffa21530a", "asm": "3045022100bc41d786883583e3df3615d59393557e27786410547b4e626f36a0a6f722594702202cab8f209a172cafc64c8ee9610ed926de960b8a08a1b72addecf9b286fe6440[ALL] 028102330d19d00c8f50a30d70672f4a5d4ebca9be05eeee33d757954ffa21530a"}, "vout": 3, "txid": "322ae256c33cb42b360b528363c9c5c748384f68598f3ae1c979e196d8e122e5"}, {"sequence": 4294967294, "scriptSig": {"hex": "473044022050223b6b50e2fd1e3ed018a3103151c235dcbe493ee93c967560d4ee2589e14a02201d93b1e8ca85fbb665ddb5258f7f8365bbef34ddd4c7f2357ad40c7b5ab6efb20121029e4394c3caf87c04d6944758e9d4d4e44af8a897c694110d2b0e74c6817bc15e", "asm": "3044022050223b6b50e2fd1e3ed018a3103151c235dcbe493ee93c967560d4ee2589e14a02201d93b1e8ca85fbb665ddb5258f7f8365bbef34ddd4c7f2357ad40c7b5ab6efb2[ALL] 029e4394c3caf87c04d6944758e9d4d4e44af8a897c694110d2b0e74c6817bc15e"}, "vout": 4, "txid": "e4c07f07b8a120ae8e36ce7c90b550d42e4dd84132fa7f03f74d0ade01d551f2"}, {"sequence": 4294967294, "scriptSig": {"hex": "473044022004da738b5e118a063115ecee8c9249123dae096e238d487706a98133a039922302200c6bdc221095792ca90eb013b208caca5e2e6304502c82905e3af3fdec1be2f601210228b9c11c60c1c26d20035b44347903ed5afbe70e191c26892c6c2354b9f99fa3", "asm": "3044022004da738b5e118a063115ecee8c9249123dae096e238d487706a98133a039922302200c6bdc221095792ca90eb013b208caca5e2e6304502c82905e3af3fdec1be2f6[ALL] 0228b9c11c60c1c26d20035b44347903ed5afbe70e191c26892c6c2354b9f99fa3"}, "vout": 0, "txid": "246553e12772908e6a14132df4d1160801ffbcc93e654df2741480664677affd"}], "txid": "a2c43dce710c1cf19dcd5f3f32627fc6d2950459fae19286e00927a7cf446d68", "blocktime": 1537872475, "version": 2, "confirmations": 11486, "time": 1537872475, "locktime": 542994, "vsize": 2733, "size": 2733}