{"hash": "a2c8834d5a04076b2738afd08740ced77492eb333aba6a9d864f999581a420af", "blockhash": "0000000000000000000baef3f32e3676a92c3b2e5da21b426e4f302fc371ce76", "vout": [{"scriptPubKey": {"reqSigs": 1, "hex": "76a914cb1deacd5ce864c65179c4877dc3234b3afd875688ac", "addresses": ["1KWz1dEqDqQDffYDcsyDHoehrg4VRoLTUG"], "asm": "OP_DUP OP_HASH160 cb1deacd5ce864c65179c4877dc3234b3afd8756 OP_EQUALVERIFY OP_CHECKSIG", "type": "pubkeyhash"}, "value": 0.0004936, "n": 0}, {"scriptPubKey": {"type": "nulldata", "hex": "6a4c50000078160001a866cb9994d8243e6e7ae9c5019d6ddc0f1b8ff117702940d64fa54d8eb2005c72d44dae95c4c3b8196aa08f2acd5baa1bdb0615687d9ad1047abc9a9526289ac0f6612cd74e33776ee4", "asm": "OP_RETURN 000078160001a866cb9994d8243e6e7ae9c5019d6ddc0f1b8ff117702940d64fa54d8eb2005c72d44dae95c4c3b8196aa08f2acd5baa1bdb0615687d9ad1047abc9a9526289ac0f6612cd74e33776ee4"}, "value": 0.0, "n": 1}], "hex": "0100000001550512499fa4059b6e4371b8b4afb7def63ed924e60e72fe6b357d81febd60b5010000006a473044022078647c864dd5c9a69143febe209d827ee224b6d2ee3e6a210e7a5397c6f70e6c02206c1d7f90b6d96d9834f4fa1f96e48f90bf23e48e6bf6152c93debb21e0a39875012102a72653c3731ba3c5d07d21ab82b47a220a1e453bdb9f869c1f5d18016d81f101ffffffff02d0c00000000000001976a914cb1deacd5ce864c65179c4877dc3234b3afd875688ac0000000000000000536a4c50000078160001a866cb9994d8243e6e7ae9c5019d6ddc0f1b8ff117702940d64fa54d8eb2005c72d44dae95c4c3b8196aa08f2acd5baa1bdb0615687d9ad1047abc9a9526289ac0f6612cd74e33776ee400000000", "vin": [{"sequence": 4294967295, "scriptSig": {"hex": "473044022078647c864dd5c9a69143febe209d827ee224b6d2ee3e6a210e7a5397c6f70e6c02206c1d7f90b6d96d9834f4fa1f96e48f90bf23e48e6bf6152c93debb21e0a39875012102a72653c3731ba3c5d07d21ab82b47a220a1e453bdb9f869c1f5d18016d81f101", "asm": "3044022078647c864dd5c9a69143febe209d827ee224b6d2ee3e6a210e7a5397c6f70e6c02206c1d7f90b6d96d9834f4fa1f96e48f90bf23e48e6bf6152c93debb21e0a39875[ALL] 02a72653c3731ba3c5d07d21ab82b47a220a1e453bdb9f869c1f5d18016d81f101"}, "vout": 1, "txid": "b560bdfe817d356bfe720ee624d93ef6deb7afb4b871436e9b05a49f49120555"}], "txid": "a2c8834d5a04076b2738afd08740ced77492eb333aba6a9d864f999581a420af", "blocktime": 1537876114, "version": 1, "confirmations": 11460, "time": 1537876114, "locktime": 0, "vsize": 283, "size": 283}