{"hash": "a2cc9c0b59c05c78f046446ec2e6d69caa8121acee1538f8197846fc66813c88", "blockhash": "00000000000000000004ffacab907a6b429b9a5745fa0b75af4234bf69dd7176", "vout": [{"scriptPubKey": {"reqSigs": 1, "hex": "76a9145da9be00a4e33b852cd14c4fbb2281d2750bdb3388ac", "addresses": ["19YFBjd53zTETPHSReDbiLfYed7rjVMXin"], "asm": "OP_DUP OP_HASH160 5da9be00a4e33b852cd14c4fbb2281d2750bdb33 OP_EQUALVERIFY OP_CHECKSIG", "type": "pubkeyhash"}, "value": 0.002976, "n": 0}], "hex": "0100000001191dd827ba4bce60fc9ba1d3eb02c5c4dbeacd8fb1f21e0ddb42b71732440a36050000006a473044022079108ef6d29e93f79c2b73306cbb61870938c81394311815f31bbb2d155c061e02206aefbfb27be14f2a62973ebcc33191eceae8a4f4ea9b57d4f66535bdb83ecf8a012103f0108b56eb4cbd9bf8aee641db18484eae47b6d1b41a39811a996dd3b6cfeeafffffffff01808a0400000000001976a9145da9be00a4e33b852cd14c4fbb2281d2750bdb3388ac00000000", "vin": [{"sequence": 4294967295, "scriptSig": {"hex": "473044022079108ef6d29e93f79c2b73306cbb61870938c81394311815f31bbb2d155c061e02206aefbfb27be14f2a62973ebcc33191eceae8a4f4ea9b57d4f66535bdb83ecf8a012103f0108b56eb4cbd9bf8aee641db18484eae47b6d1b41a39811a996dd3b6cfeeaf", "asm": "3044022079108ef6d29e93f79c2b73306cbb61870938c81394311815f31bbb2d155c061e02206aefbfb27be14f2a62973ebcc33191eceae8a4f4ea9b57d4f66535bdb83ecf8a[ALL] 03f0108b56eb4cbd9bf8aee641db18484eae47b6d1b41a39811a996dd3b6cfeeaf"}, "vout": 5, "txid": "360a443217b742db0d1ef2b18fcdeadbc4c502ebd3a19bfc60ce4bba27d81d19"}], "txid": "a2cc9c0b59c05c78f046446ec2e6d69caa8121acee1538f8197846fc66813c88", "blocktime": 1537875543, "version": 1, "confirmations": 11464, "time": 1537875543, "locktime": 0, "vsize": 191, "size": 191}