{"hash": "a475320636bc18039a0dd60ad8140439f7b562356742a86c67e079abb0371127", "blockhash": "0000000000000000001cda96e906b7601b7a6fb1a3b62bca570a9e5d8f4b3de1", "vout": [{"scriptPubKey": {"reqSigs": 1, "hex": "a9144615af8d080aa7a597cbef9432933d921976c4d087", "addresses": ["385bCiwVMJuHiwBovHVV7PRKKY9tRerivX"], "asm": "OP_HASH160 4615af8d080aa7a597cbef9432933d921976c4d0 OP_EQUAL", "type": "scripthash"}, "value": 0.00995352, "n": 0}, {"scriptPubKey": {"reqSigs": 1, "hex": "a91484ca4fdbebf67eefff05e58c31c7493f24b6bc2187", "addresses": ["3Do9UkDydHmm2uCpD9TUySUng9RSdaNZ5x"], "asm": "OP_HASH160 84ca4fdbebf67eefff05e58c31c7493f24b6bc21 OP_EQUAL", "type": "scripthash"}, "value": 0.01, "n": 1}], "hex": "020000000001019931eb85e82dc756af0d14b930f299faa77a1852a8a071ed97c4681f6cf661a20300000017160014ece2582d3ad1d215d52d569f0153ce88c6f73ba7feffffff0218300f000000000017a9144615af8d080aa7a597cbef9432933d921976c4d08740420f000000000017a91484ca4fdbebf67eefff05e58c31c7493f24b6bc21870248304502210092e30dcfc04d4471761b8c34916fb31142ecc1b8dd75ce03d41bcc3b53721246022078885c8d0bd29aad3e3a74c31c01da09920772988b0da5f60f2ec101a649290c012103899632fb42688fba094978f1165926b6965025ae62f9f7a848178ab7331eb97213490800", "vin": [{"txinwitness": ["304502210092e30dcfc04d4471761b8c34916fb31142ecc1b8dd75ce03d41bcc3b53721246022078885c8d0bd29aad3e3a74c31c01da09920772988b0da5f60f2ec101a649290c01", "03899632fb42688fba094978f1165926b6965025ae62f9f7a848178ab7331eb972"], "sequence": 4294967294, "scriptSig": {"hex": "160014ece2582d3ad1d215d52d569f0153ce88c6f73ba7", "asm": "0014ece2582d3ad1d215d52d569f0153ce88c6f73ba7"}, "vout": 3, "txid": "a261f66c1f68c497ed71a0a852187aa7fa99f230b9140daf56c72de885eb3199"}], "txid": "a2d057c78beedda2500ef88e0999f9a46d228290dc54443915e7b6d2f336c4f6", "blocktime": 1537873282, "version": 2, "confirmations": 11480, "time": 1537873282, "locktime": 542995, "vsize": 166, "size": 248}