{"hash": "5b50c26af2876f3bf6e8aa8cafa087fcbce83693d9d8b30280ab8cd5ca5f048f", "blockhash": "0000000000000000000baef3f32e3676a92c3b2e5da21b426e4f302fc371ce76", "vout": [{"scriptPubKey": {"reqSigs": 1, "hex": "76a9147c69f09085c5993adfa6544f4e6051c3749566eb88ac", "addresses": ["1CLqhcC4TC69bE34VXToRpRmhYFte6AdN8"], "asm": "OP_DUP OP_HASH160 7c69f09085c5993adfa6544f4e6051c3749566eb OP_EQUALVERIFY OP_CHECKSIG", "type": "pubkeyhash"}, "value": 0.05, "n": 0}, {"scriptPubKey": {"reqSigs": 1, "hex": "a914050e9b73041b548fc5c0102c08177fb3285ad59b87", "addresses": ["329koRvovTyNnd4ADrpR2uJHzXxfvKxta5"], "asm": "OP_HASH160 050e9b73041b548fc5c0102c08177fb3285ad59b OP_EQUAL", "type": "scripthash"}, "value": 47.89158861, "n": 1}], "hex": "02000000000101b021083f15e743e41158369d8b530efc57dc2cbe2c8ae4cc6ed1c20e8a92ac72060000001716001437de5da24ea7c8a3122ff93038f95492bd3834e5feffffff02404b4c00000000001976a9147c69f09085c5993adfa6544f4e6051c3749566eb88accdc3741d0100000017a914050e9b73041b548fc5c0102c08177fb3285ad59b8702483045022100aa7eb835aa1f9423ab78d1d8ac225af086e2c884cdeb385497a59b383d668d95022068535e1842205c4fb911e3c16ab0a1488bd656f1612b608355d88158908421b80121036f4dd476664e417eab722cf99a991c471d38a6a7562275be1bc2dc9a606b468d16490800", "vin": [{"txinwitness": ["3045022100aa7eb835aa1f9423ab78d1d8ac225af086e2c884cdeb385497a59b383d668d95022068535e1842205c4fb911e3c16ab0a1488bd656f1612b608355d88158908421b801", "036f4dd476664e417eab722cf99a991c471d38a6a7562275be1bc2dc9a606b468d"], "sequence": 4294967294, "scriptSig": {"hex": "16001437de5da24ea7c8a3122ff93038f95492bd3834e5", "asm": "001437de5da24ea7c8a3122ff93038f95492bd3834e5"}, "vout": 6, "txid": "72ac928a0ec2d16ecce48a2cbe2cdc57fc0e538b9d365811e443e7153f0821b0"}], "txid": "a2d3a418c9427c0db84bc3e321be3dc8032a4e38a1628377216ef246b4b113ea", "blocktime": 1537876114, "version": 2, "confirmations": 11462, "time": 1537876114, "locktime": 542998, "vsize": 168, "size": 250}