{"hash": "a2dab9b28a2fcb103c529db7f590e0ea14da98129f31532ac728c05b0dc511ae", "blockhash": "00000000000000000017f5eb5941039fbcee6240d03bc1f2f8e35350df66a1d8", "vout": [{"scriptPubKey": {"reqSigs": 1, "hex": "76a9142c3c0a5729620f5cbc93994bffec17bf4ecd14a388ac", "addresses": ["152tf7yAFLM3wQ8m4oijiqNuzKiBu7AhRw"], "asm": "OP_DUP OP_HASH160 2c3c0a5729620f5cbc93994bffec17bf4ecd14a3 OP_EQUALVERIFY OP_CHECKSIG", "type": "pubkeyhash"}, "value": 0.00319039, "n": 0}, {"scriptPubKey": {"reqSigs": 1, "hex": "a91493ed3c1fcc811fa5d32a2f25d425f9a13ef0c1be87", "addresses": ["3FBBT7KuhuYEkLDGXXVohKKBBoLkgT2A4d"], "asm": "OP_HASH160 93ed3c1fcc811fa5d32a2f25d425f9a13ef0c1be OP_EQUAL", "type": "scripthash"}, "value": 0.0056289, "n": 1}], "hex": "0100000001c6222bb4a31327a9d1871b75f991dee67f55a05a934bc08966e19d703c7d9a2b000000006a4730440220766b08daf66b3405181593876adcb8f6e6957ecad867f74052069fa9bfb223fe02200be0d45babf7ff43b34f9e56d228891d979b00fdc275bd6af185e7a5b1110983012103b7410ac7e2f0416f3f601b00bfe59f69f98e42b155affe85a75834df65559603ffffffff023fde0400000000001976a9142c3c0a5729620f5cbc93994bffec17bf4ecd14a388acca9608000000000017a91493ed3c1fcc811fa5d32a2f25d425f9a13ef0c1be8700000000", "vin": [{"sequence": 4294967295, "scriptSig": {"hex": "4730440220766b08daf66b3405181593876adcb8f6e6957ecad867f74052069fa9bfb223fe02200be0d45babf7ff43b34f9e56d228891d979b00fdc275bd6af185e7a5b1110983012103b7410ac7e2f0416f3f601b00bfe59f69f98e42b155affe85a75834df65559603", "asm": "30440220766b08daf66b3405181593876adcb8f6e6957ecad867f74052069fa9bfb223fe02200be0d45babf7ff43b34f9e56d228891d979b00fdc275bd6af185e7a5b1110983[ALL] 03b7410ac7e2f0416f3f601b00bfe59f69f98e42b155affe85a75834df65559603"}, "vout": 0, "txid": "2b9a7d3c709de16689c04b935aa0557fe6de91f9751b87d1a92713a3b42b22c6"}], "txid": "a2dab9b28a2fcb103c529db7f590e0ea14da98129f31532ac728c05b0dc511ae", "blocktime": 1537874412, "version": 1, "confirmations": 11468, "time": 1537874412, "locktime": 0, "vsize": 223, "size": 223}