{"hash": "a2e22edf04184f607d6b14aa4105d357b997f9e09ba312d6445be67ef858b093", "blockhash": "0000000000000000001f76057863aec43deb6fa401d9628bb513d65a8098bfab", "vout": [{"scriptPubKey": {"reqSigs": 1, "hex": "76a914bc7eb8a486f052e0669f41519201c9942ac9843d88ac", "addresses": ["1JBfqp5QcssQvgiip7m6nyw9e5LxAxfspr"], "asm": "OP_DUP OP_HASH160 bc7eb8a486f052e0669f41519201c9942ac9843d OP_EQUALVERIFY OP_CHECKSIG", "type": "pubkeyhash"}, "value": 0.005, "n": 0}, {"scriptPubKey": {"reqSigs": 1, "hex": "76a9147173836f5a329b392dc67101086b86358b9a361988ac", "addresses": ["1BLsjh1YEBT3nooowf5RxtjCSRckc7bFCq"], "asm": "OP_DUP OP_HASH160 7173836f5a329b392dc67101086b86358b9a3619 OP_EQUALVERIFY OP_CHECKSIG", "type": "pubkeyhash"}, "value": 0.00997618, "n": 1}, {"scriptPubKey": {"reqSigs": 1, "hex": "76a914540ceea06e7e1b0d3779d81850523da76416bd8388ac", "addresses": ["18fRFex1DREcMtDNgtf3fEppWTGazjeyiA"], "asm": "OP_DUP OP_HASH160 540ceea06e7e1b0d3779d81850523da76416bd83 OP_EQUALVERIFY OP_CHECKSIG", "type": "pubkeyhash"}, "value": 0.005, "n": 2}, {"scriptPubKey": {"reqSigs": 1, "hex": "76a91405fa354e8557e62869b738fc199d240e53653d4688ac", "addresses": ["1Yc7jSTTujJf6a9Y7JbdCiWqUk87HmoxL"], "asm": "OP_DUP OP_HASH160 05fa354e8557e62869b738fc199d240e53653d46 OP_EQUALVERIFY OP_CHECKSIG", "type": "pubkeyhash"}, "value": 0.005, "n": 3}, {"scriptPubKey": {"reqSigs": 1, "hex": "76a91426e0a8ea8d1387efba48fc0d183b3ed649959ace88ac", "addresses": ["14YZovqDsfqDJaJv382PdLaksgkemhCyGS"], "asm": "OP_DUP OP_HASH160 26e0a8ea8d1387efba48fc0d183b3ed649959ace OP_EQUALVERIFY OP_CHECKSIG", "type": "pubkeyhash"}, "value": 0.005, "n": 4}], "hex": "02000000072bf03647701c8d3724aa30dc5f9e8c99de3a042636686047c263862010fe10ebc80700006b483045022100e567bffdbb13bbab156fbfcdd252389ede1de072c7496e093373445b744a1bc4022038b6990dd1754f128a95a663c69ff55d10475184321c10703c131d56879dc56e01210325ad5c98377a4251c6c1cad1051a52c5a0ecb32106fbad74976bbaa447fe6c18feffffff5d500b81072d828b3e8679e89099ca64f4286111edd7f47f90bb2e06f9fd459ce50000006a473044022022d44cc42e5180930a17db70932525b51d4ff350ed369c412bfb34f3cb37d23602201e0577894da99c1768097464d95a29bace484167de8319c298ac130856b78c84012102192d7b3b9fa8f028658fb1215766770a12bb2ee5de445ee5767cb6abd2c9f521feffffff7bbdf1940d4d5dc88ef85a94ab961c5bc736e1ce609e16a5a89efa5565838fa7010000006a473044022074106d5fb6cfa74ffe7f2fef576c13157ecfa1b7a115b6c6f6301c01ba0d02fe02202b6aaaecbe319db49944ceebad6ca6f99a2c99327af53e4ceb53855c59fb766e0121022cf2a0026ac2a1428717d60085d793d22fde6148f16a5e3feb5988ff6edef964feffffff813ad2a4e5340fe399d020767909b4981090973b990dddb75ff6ef5d1d1ccd6e000000006b483045022100d6ab324c9a2ea8ac1dc1c429649669c6dc1fb6f657d18c2cad7aa78f46d74fd402201f64a0400d3a22be9707c6927c8fbd362ab74dede80888a375fc7165ad260e9c012103e3157584947517dee13e66ece4684325a0ca6d63fe23acc11c4c4f4285f2ab63feffffffa5c90ece6c9092c41013178f6ca1fb5ebeaa7f34eb6ddd38f471c1af47cb631f010000006a473044022005f7bffb0741491929530f3da8f89dd8d5bf59fb8e07ab24c48795e784af984802207ef69368113ae184fe3a7e9d20b0abf55c9189e55cb7fb06945ef4292539a5a7012103e3157584947517dee13e66ece4684325a0ca6d63fe23acc11c4c4f4285f2ab63feffffffb662435d2adf766b16c17b2d0f92626be5d0a223a608ecb5ac7096db0460c1561e0000006b483045022100e3af1d3fb530577bfcfde7e448a505d04d172e9a2e96b339bc24951613f5ed620220161712ac9650613023f75bd4035b1d2c9632286ecb25fca7ca67d3e4819a72c1012102f061936e916ba7b8302eced9f3c0d9ffbc3b1282caa611243f2efd7b3497aa95feffffffc0ffe871618f097d6ab6a25e524768eda604752123a3d4d5c350203265c05169e30000006b483045022100c266d799dfdca32be71c3d6e214b0022f2ba5cddcdf97d2fc008f1cf946557ae022006da866bcf24390e84b068e47d3c659357c2ef9fb475edad80febca0c03778b10121021e9d594e4c62268d0e4cba2cb2f98dda5d0d44f40b315fd3080e7ed7f55fb12dfeffffff0520a10700000000001976a914bc7eb8a486f052e0669f41519201c9942ac9843d88acf2380f00000000001976a9147173836f5a329b392dc67101086b86358b9a361988ac20a10700000000001976a914540ceea06e7e1b0d3779d81850523da76416bd8388ac20a10700000000001976a91405fa354e8557e62869b738fc199d240e53653d4688ac20a10700000000001976a91426e0a8ea8d1387efba48fc0d183b3ed649959ace88ac14490800", "vin": [{"sequence": 4294967294, "scriptSig": {"hex": "483045022100e567bffdbb13bbab156fbfcdd252389ede1de072c7496e093373445b744a1bc4022038b6990dd1754f128a95a663c69ff55d10475184321c10703c131d56879dc56e01210325ad5c98377a4251c6c1cad1051a52c5a0ecb32106fbad74976bbaa447fe6c18", "asm": "3045022100e567bffdbb13bbab156fbfcdd252389ede1de072c7496e093373445b744a1bc4022038b6990dd1754f128a95a663c69ff55d10475184321c10703c131d56879dc56e[ALL] 0325ad5c98377a4251c6c1cad1051a52c5a0ecb32106fbad74976bbaa447fe6c18"}, "vout": 1992, "txid": "eb10fe10208663c24760683626043ade998c9e5fdc30aa24378d1c704736f02b"}, {"sequence": 4294967294, "scriptSig": {"hex": "473044022022d44cc42e5180930a17db70932525b51d4ff350ed369c412bfb34f3cb37d23602201e0577894da99c1768097464d95a29bace484167de8319c298ac130856b78c84012102192d7b3b9fa8f028658fb1215766770a12bb2ee5de445ee5767cb6abd2c9f521", "asm": "3044022022d44cc42e5180930a17db70932525b51d4ff350ed369c412bfb34f3cb37d23602201e0577894da99c1768097464d95a29bace484167de8319c298ac130856b78c84[ALL] 02192d7b3b9fa8f028658fb1215766770a12bb2ee5de445ee5767cb6abd2c9f521"}, "vout": 229, "txid": "9c45fdf9062ebb907ff4d7ed116128f464ca9990e879863e8b822d07810b505d"}, {"sequence": 4294967294, "scriptSig": {"hex": "473044022074106d5fb6cfa74ffe7f2fef576c13157ecfa1b7a115b6c6f6301c01ba0d02fe02202b6aaaecbe319db49944ceebad6ca6f99a2c99327af53e4ceb53855c59fb766e0121022cf2a0026ac2a1428717d60085d793d22fde6148f16a5e3feb5988ff6edef964", "asm": "3044022074106d5fb6cfa74ffe7f2fef576c13157ecfa1b7a115b6c6f6301c01ba0d02fe02202b6aaaecbe319db49944ceebad6ca6f99a2c99327af53e4ceb53855c59fb766e[ALL] 022cf2a0026ac2a1428717d60085d793d22fde6148f16a5e3feb5988ff6edef964"}, "vout": 1, "txid": "a78f836555fa9ea8a5169e60cee136c75b1c96ab945af88ec85d4d0d94f1bd7b"}, {"sequence": 4294967294, "scriptSig": {"hex": "483045022100d6ab324c9a2ea8ac1dc1c429649669c6dc1fb6f657d18c2cad7aa78f46d74fd402201f64a0400d3a22be9707c6927c8fbd362ab74dede80888a375fc7165ad260e9c012103e3157584947517dee13e66ece4684325a0ca6d63fe23acc11c4c4f4285f2ab63", "asm": "3045022100d6ab324c9a2ea8ac1dc1c429649669c6dc1fb6f657d18c2cad7aa78f46d74fd402201f64a0400d3a22be9707c6927c8fbd362ab74dede80888a375fc7165ad260e9c[ALL] 03e3157584947517dee13e66ece4684325a0ca6d63fe23acc11c4c4f4285f2ab63"}, "vout": 0, "txid": "6ecd1c1d5deff65fb7dd0d993b97901098b409797620d099e30f34e5a4d23a81"}, {"sequence": 4294967294, "scriptSig": {"hex": "473044022005f7bffb0741491929530f3da8f89dd8d5bf59fb8e07ab24c48795e784af984802207ef69368113ae184fe3a7e9d20b0abf55c9189e55cb7fb06945ef4292539a5a7012103e3157584947517dee13e66ece4684325a0ca6d63fe23acc11c4c4f4285f2ab63", "asm": "3044022005f7bffb0741491929530f3da8f89dd8d5bf59fb8e07ab24c48795e784af984802207ef69368113ae184fe3a7e9d20b0abf55c9189e55cb7fb06945ef4292539a5a7[ALL] 03e3157584947517dee13e66ece4684325a0ca6d63fe23acc11c4c4f4285f2ab63"}, "vout": 1, "txid": "1f63cb47afc171f438dd6deb347faabe5efba16c8f171310c492906cce0ec9a5"}, {"sequence": 4294967294, "scriptSig": {"hex": "483045022100e3af1d3fb530577bfcfde7e448a505d04d172e9a2e96b339bc24951613f5ed620220161712ac9650613023f75bd4035b1d2c9632286ecb25fca7ca67d3e4819a72c1012102f061936e916ba7b8302eced9f3c0d9ffbc3b1282caa611243f2efd7b3497aa95", "asm": "3045022100e3af1d3fb530577bfcfde7e448a505d04d172e9a2e96b339bc24951613f5ed620220161712ac9650613023f75bd4035b1d2c9632286ecb25fca7ca67d3e4819a72c1[ALL] 02f061936e916ba7b8302eced9f3c0d9ffbc3b1282caa611243f2efd7b3497aa95"}, "vout": 30, "txid": "56c16004db9670acb5ec08a623a2d0e56b62920f2d7bc1166b76df2a5d4362b6"}, {"sequence": 4294967294, "scriptSig": {"hex": "483045022100c266d799dfdca32be71c3d6e214b0022f2ba5cddcdf97d2fc008f1cf946557ae022006da866bcf24390e84b068e47d3c659357c2ef9fb475edad80febca0c03778b10121021e9d594e4c62268d0e4cba2cb2f98dda5d0d44f40b315fd3080e7ed7f55fb12d", "asm": "3045022100c266d799dfdca32be71c3d6e214b0022f2ba5cddcdf97d2fc008f1cf946557ae022006da866bcf24390e84b068e47d3c659357c2ef9fb475edad80febca0c03778b1[ALL] 021e9d594e4c62268d0e4cba2cb2f98dda5d0d44f40b315fd3080e7ed7f55fb12d"}, "vout": 227, "txid": "6951c065322050c3d5d4a323217504a6ed6847525ea2b66a7d098f6171e8ffc0"}], "txid": "a2e22edf04184f607d6b14aa4105d357b997f9e09ba312d6445be67ef858b093", "blocktime": 1537873891, "version": 2, "confirmations": 11478, "time": 1537873891, "locktime": 542996, "vsize": 1213, "size": 1213}