{"hash": "a2e7ee5a24bf611e73b40fef0f83e5501b467bd4fccca91cf390c3246833d862", "blockhash": "0000000000000000001cda96e906b7601b7a6fb1a3b62bca570a9e5d8f4b3de1", "vout": [{"scriptPubKey": {"reqSigs": 1, "hex": "76a914aabdf2bd31210c70a423082f141333745a84f81a88ac", "addresses": ["1GZoRSiiVEjdjLgqoBHgCrZXg2jUecd9mn"], "asm": "OP_DUP OP_HASH160 aabdf2bd31210c70a423082f141333745a84f81a OP_EQUALVERIFY OP_CHECKSIG", "type": "pubkeyhash"}, "value": 0.0009, "n": 0}, {"scriptPubKey": {"reqSigs": 1, "hex": "76a914e55d1f383ad0242e7490f8d4004f96c7ac22fab188ac", "addresses": ["1MumJA38GqgR9HTgFBwnXr6fvnqhRXcz56"], "asm": "OP_DUP OP_HASH160 e55d1f383ad0242e7490f8d4004f96c7ac22fab1 OP_EQUALVERIFY OP_CHECKSIG", "type": "pubkeyhash"}, "value": 0.00854344, "n": 1}], "hex": "0100000001936c0d0cda8e023e0404230dc3c605e9767efc1224515e9ebadf63831b8a189b000000006a4730440220726ea52c8a62dc6ca2418b3cfd5d2d54c874812ee8ae0e7ee1994fce873b37c8022046179c168469922a0a8cf61ad747bbb1153c90ede2b1c2cfeb77b56873da8f800121020cab09cbded3f2d70fb4e7269dedc69f5ec16276717d139ffe67c85bf52a048dfdffffff02905f0100000000001976a914aabdf2bd31210c70a423082f141333745a84f81a88ac48090d00000000001976a914e55d1f383ad0242e7490f8d4004f96c7ac22fab188ac13490800", "vin": [{"sequence": 4294967293, "scriptSig": {"hex": "4730440220726ea52c8a62dc6ca2418b3cfd5d2d54c874812ee8ae0e7ee1994fce873b37c8022046179c168469922a0a8cf61ad747bbb1153c90ede2b1c2cfeb77b56873da8f800121020cab09cbded3f2d70fb4e7269dedc69f5ec16276717d139ffe67c85bf52a048d", "asm": "30440220726ea52c8a62dc6ca2418b3cfd5d2d54c874812ee8ae0e7ee1994fce873b37c8022046179c168469922a0a8cf61ad747bbb1153c90ede2b1c2cfeb77b56873da8f80[ALL] 020cab09cbded3f2d70fb4e7269dedc69f5ec16276717d139ffe67c85bf52a048d"}, "vout": 0, "txid": "9b188a1b8363dfba9e5e512412fc7e76e905c6c30d2304043e028eda0c0d6c93"}], "txid": "a2e7ee5a24bf611e73b40fef0f83e5501b467bd4fccca91cf390c3246833d862", "blocktime": 1537873282, "version": 1, "confirmations": 11485, "time": 1537873282, "locktime": 542995, "vsize": 225, "size": 225}