{"hash": "f42b50cda1e04c7959238f63b07a9f1fbde3596bbdf4b33061f7e1948239eb74", "blockhash": "0000000000000000000dcc0f55137456b1a82d3642486a52398922ac4d620174", "vout": [{"scriptPubKey": {"reqSigs": 1, "hex": "76a914713de8e4d602e1c8ef58028bcf0f75da5ab6618388ac", "addresses": ["1BKmXEz5kVCSvvK8eqNrP8mYFHWsLZqvoC"], "asm": "OP_DUP OP_HASH160 713de8e4d602e1c8ef58028bcf0f75da5ab66183 OP_EQUALVERIFY OP_CHECKSIG", "type": "pubkeyhash"}, "value": 0.00662277, "n": 0}, {"scriptPubKey": {"reqSigs": 1, "hex": "00147a83637d1677e67985d978cce7d83f2120f73aad", "addresses": ["bc1q02pkxlgkwln8npwe0rxw0kplyys0ww4d8za7gy"], "asm": "0 7a83637d1677e67985d978cce7d83f2120f73aad", "type": "witness_v0_keyhash"}, "value": 0.00037135, "n": 1}], "hex": "0100000000010114169bea69ccbb393419c8981707e872ff18bca1b51f8fdfc3b9b82b2d1811980000000017160014d142cf18175abce119ba2d626b31bf63b6e1438cffffffff02051b0a00000000001976a914713de8e4d602e1c8ef58028bcf0f75da5ab6618388ac0f910000000000001600147a83637d1677e67985d978cce7d83f2120f73aad02473044022070bf934912cf7a2832126806d26c977631f7f73354917a7594dd47e015e2dfbe0220764e34b4eb220d56c2f3b6fd9a0ec98b5e72d8264da0b9100661e2d1cd870958012103e3515a10f34183c95b20ded6b359ac20df07c91f396c65df9141335fc580141c00000000", "vin": [{"txinwitness": ["3044022070bf934912cf7a2832126806d26c977631f7f73354917a7594dd47e015e2dfbe0220764e34b4eb220d56c2f3b6fd9a0ec98b5e72d8264da0b9100661e2d1cd87095801", "03e3515a10f34183c95b20ded6b359ac20df07c91f396c65df9141335fc580141c"], "sequence": 4294967295, "scriptSig": {"hex": "160014d142cf18175abce119ba2d626b31bf63b6e1438c", "asm": "0014d142cf18175abce119ba2d626b31bf63b6e1438c"}, "vout": 0, "txid": "9811182d2bb8b9c3df8f1fb5a1bc18ff72e8071798c8193439bbcc69ea9b1614"}], "txid": "a2e93176cc2dcd28c9eb09b9a9dfe0687b2569687bbb699e9d3f9a4a3919449f", "blocktime": 1537870268, "version": 1, "confirmations": 11518, "time": 1537870268, "locktime": 0, "vsize": 167, "size": 248}