{"hash": "6d8e71c870270ac741535996f47b0e9e697ab85418bd378ae41f1538b3fdff9f", "blockhash": "0000000000000000000e13cef7c366c0283d82e591d1acd082e914b08063cdf1", "vout": [{"scriptPubKey": {"reqSigs": 1, "hex": "a914f2f1b0bb8ea28a13277813ce444e0bba98424a3b87", "addresses": ["3Pqayuawy6Ryb57kS845zJu5JzUgDT7g5R"], "asm": "OP_HASH160 f2f1b0bb8ea28a13277813ce444e0bba98424a3b OP_EQUAL", "type": "scripthash"}, "value": 0.001, "n": 0}, {"scriptPubKey": {"reqSigs": 1, "hex": "76a914472dc41752de6166eb715fa7d9f35f98e995bbb488ac", "addresses": ["17VMoVmk5vMnDziyQdKuHc2m5uhDjLNccn"], "asm": "OP_DUP OP_HASH160 472dc41752de6166eb715fa7d9f35f98e995bbb4 OP_EQUALVERIFY OP_CHECKSIG", "type": "pubkeyhash"}, "value": 5.0, "n": 1}, {"scriptPubKey": {"reqSigs": 1, "hex": "76a91438ed2bbeb4990b1cfd2d6a099cdeecbd3b9aa28c88ac", "addresses": ["16BzxfWs1HiCqmUKXBDUkHxwNP5pLcPk81"], "asm": "OP_DUP OP_HASH160 38ed2bbeb4990b1cfd2d6a099cdeecbd3b9aa28c OP_EQUALVERIFY OP_CHECKSIG", "type": "pubkeyhash"}, "value": 0.04607, "n": 2}, {"scriptPubKey": {"reqSigs": 1, "hex": "a91472c86877743ae03b75ce59a281b275c6e938cab687", "addresses": ["3C9w31VyPD8UwQV4bLZt1bB3psgu6kXARS"], "asm": "OP_HASH160 72c86877743ae03b75ce59a281b275c6e938cab6 OP_EQUAL", "type": "scripthash"}, "value": 0.003, "n": 3}, {"scriptPubKey": {"reqSigs": 1, "hex": "a91486c3fd19c6c9a0b596046179f8c72dcbdf95c96387", "addresses": ["3DybFnF6r6riDz1W1wSmv2rvjo8NCGH4xi"], "asm": "OP_HASH160 86c3fd19c6c9a0b596046179f8c72dcbdf95c963 OP_EQUAL", "type": "scripthash"}, "value": 31.91219072, "n": 4}], "hex": "010000000001034eb30ed1300026445db7745914a090f3001da66a037ec97b2a36ae88d59b5cd60200000017160014000b814f2c1a19852357ed615a08ec572a781ed1ffffffff4e17c9c271742a2338557a4492fc2cfe75ec61b949ad40340c8f31e62f469d040200000017160014000b814f2c1a19852357ed615a08ec572a781ed1ffffffffb1a9cd65428e7f7477d52ff5f878173b398511fc0c188f1729f4f6f8029bde400200000017160014000b814f2c1a19852357ed615a08ec572a781ed1ffffffff05a08601000000000017a914f2f1b0bb8ea28a13277813ce444e0bba98424a3b870065cd1d000000001976a914472dc41752de6166eb715fa7d9f35f98e995bbb488ac184c4600000000001976a91438ed2bbeb4990b1cfd2d6a099cdeecbd3b9aa28c88ace09304000000000017a91472c86877743ae03b75ce59a281b275c6e938cab687802336be0000000017a91486c3fd19c6c9a0b596046179f8c72dcbdf95c9638702473044022050aecb1ca923fd13dac7c01af6e908b3ecff6d76f4e19d81db8b0e817a33e493022034cdfca551828a734dc7c0dc0b945bed03d76619f98a628751dc62dac77a3963012102aad79950b2c2af3689e8644c89e9d10dff06c2d8926200496b92e9f7ccb0304c02483045022100ba86b73ea26def46d868b4ceae5d6142b33319d03a9796f3c7ecbec978988c9b0220774ac086566f5c7a33290c0173d512a296ea387ca61cbe1280f994ac35444e83012102aad79950b2c2af3689e8644c89e9d10dff06c2d8926200496b92e9f7ccb0304c0247304402203f067d95166741cc6d3c1a16700f2b2f2c86273fb657aaba1c3d331b97c3e07c0220541f7fc1a36bde8213b58d71ada41e38298f1bb318c2a7f09ade2fc4d101969e012102aad79950b2c2af3689e8644c89e9d10dff06c2d8926200496b92e9f7ccb0304c00000000", "vin": [{"txinwitness": ["3044022050aecb1ca923fd13dac7c01af6e908b3ecff6d76f4e19d81db8b0e817a33e493022034cdfca551828a734dc7c0dc0b945bed03d76619f98a628751dc62dac77a396301", "02aad79950b2c2af3689e8644c89e9d10dff06c2d8926200496b92e9f7ccb0304c"], "sequence": 4294967295, "scriptSig": {"hex": "160014000b814f2c1a19852357ed615a08ec572a781ed1", "asm": "0014000b814f2c1a19852357ed615a08ec572a781ed1"}, "vout": 2, "txid": "d65c9bd588ae362a7bc97e036aa61d00f390a0145974b75d44260030d10eb34e"}, {"txinwitness": ["3045022100ba86b73ea26def46d868b4ceae5d6142b33319d03a9796f3c7ecbec978988c9b0220774ac086566f5c7a33290c0173d512a296ea387ca61cbe1280f994ac35444e8301", "02aad79950b2c2af3689e8644c89e9d10dff06c2d8926200496b92e9f7ccb0304c"], "sequence": 4294967295, "scriptSig": {"hex": "160014000b814f2c1a19852357ed615a08ec572a781ed1", "asm": "0014000b814f2c1a19852357ed615a08ec572a781ed1"}, "vout": 2, "txid": "049d462fe6318f0c3440ad49b961ec75fe2cfc92447a5538232a7471c2c9174e"}, {"txinwitness": ["304402203f067d95166741cc6d3c1a16700f2b2f2c86273fb657aaba1c3d331b97c3e07c0220541f7fc1a36bde8213b58d71ada41e38298f1bb318c2a7f09ade2fc4d101969e01", "02aad79950b2c2af3689e8644c89e9d10dff06c2d8926200496b92e9f7ccb0304c"], "sequence": 4294967295, "scriptSig": {"hex": "160014000b814f2c1a19852357ed615a08ec572a781ed1", "asm": "0014000b814f2c1a19852357ed615a08ec572a781ed1"}, "vout": 2, "txid": "40de9b02f8f6f429178f180cfc1185393b1778f8f52fd577747f8e4265cda9b1"}], "txid": "a2f2acb5f5e65ff1a137663df1f7b18b4c4b1497e0e18bacd61380b6fa7f1979", "blocktime": 1537871767, "version": 1, "confirmations": 11493, "time": 1537871767, "locktime": 0, "vsize": 447, "size": 690}