{"hash": "a2f7f4235911e65430b88bbd4740700d3704039ed6d561c41b53ef758753e337", "blockhash": "000000000000000000022b45ed06c6f4ccd3cf7fb5ba4856ebd2e58215665228", "vout": [{"scriptPubKey": {"reqSigs": 1, "hex": "76a91425a136bc3752bc69d816f2e7e50609a48c39b92d88ac", "addresses": ["14Ry8Rv6wyiPkttfMJGFXJRGBnVqpdgWBP"], "asm": "OP_DUP OP_HASH160 25a136bc3752bc69d816f2e7e50609a48c39b92d OP_EQUALVERIFY OP_CHECKSIG", "type": "pubkeyhash"}, "value": 0.0325335, "n": 0}, {"scriptPubKey": {"reqSigs": 1, "hex": "76a9141584c1795b8e1ae95552520c604cc4436b6f707a88ac", "addresses": ["12xnE4VZX1HZzkAzrpPeHi2UxJXFSRXKZE"], "asm": "OP_DUP OP_HASH160 1584c1795b8e1ae95552520c604cc4436b6f707a OP_EQUALVERIFY OP_CHECKSIG", "type": "pubkeyhash"}, "value": 0.12931008, "n": 1}], "hex": "0100000001c265fae08a777807ae486d0a3b599d3b33b332722260c19a7bb3d10a9f7496e4010000006a47304402201b416a9465158693e76d1d949aa639cba83b370240969a0954b625d549f6b5ec022041f713fee379a499c954d9793d42d598011d30d76f971f11173a4f5fec01aadd012102f3175ea353c81f28d5f8037371c028125fdf75f0bce88fd3e77328cfa3693737ffffffff0266a43100000000001976a91425a136bc3752bc69d816f2e7e50609a48c39b92d88acc04fc500000000001976a9141584c1795b8e1ae95552520c604cc4436b6f707a88ac00000000", "vin": [{"sequence": 4294967295, "scriptSig": {"hex": "47304402201b416a9465158693e76d1d949aa639cba83b370240969a0954b625d549f6b5ec022041f713fee379a499c954d9793d42d598011d30d76f971f11173a4f5fec01aadd012102f3175ea353c81f28d5f8037371c028125fdf75f0bce88fd3e77328cfa3693737", "asm": "304402201b416a9465158693e76d1d949aa639cba83b370240969a0954b625d549f6b5ec022041f713fee379a499c954d9793d42d598011d30d76f971f11173a4f5fec01aadd[ALL] 02f3175ea353c81f28d5f8037371c028125fdf75f0bce88fd3e77328cfa3693737"}, "vout": 1, "txid": "e496749f0ad1b37b9ac160227232b3333b9d593b0a6d48ae0778778ae0fa65c2"}], "txid": "a2f7f4235911e65430b88bbd4740700d3704039ed6d561c41b53ef758753e337", "blocktime": 1537869901, "version": 1, "confirmations": 11523, "time": 1537869901, "locktime": 0, "vsize": 225, "size": 225}