{"hash": "786680ebc11c5245c2503495109c95c1cc656768b0510f5ca8521922b4f07d55", "blockhash": "00000000000000000017f5eb5941039fbcee6240d03bc1f2f8e35350df66a1d8", "vout": [{"scriptPubKey": {"reqSigs": 1, "hex": "a9147bd43fd4a35953829c9e8770f9c6650b669a014787", "addresses": ["3CymJUstibqkVGugoF2YMEqCgVbEcAixbS"], "asm": "OP_HASH160 7bd43fd4a35953829c9e8770f9c6650b669a0147 OP_EQUAL", "type": "scripthash"}, "value": 0.00123569, "n": 0}, {"scriptPubKey": {"reqSigs": 1, "hex": "a914048b5342ceed508e2f07192c77a6e1d111b94f1687", "addresses": ["3273XoFr6Toowd3okP6kS7UtUHu4dMohtk"], "asm": "OP_HASH160 048b5342ceed508e2f07192c77a6e1d111b94f16 OP_EQUAL", "type": "scripthash"}, "value": 0.002755, "n": 1}], "hex": "01000000000102cff6077d6c3f3d8c4566d340708ac62e1d9589b4ff9327baa50c25a91257b0c4000000002322002035b48faacc16adddd9dc8ff9408ad73319c59f21744552e0e07d386816bf91f5fdfffffffbc80cff287b1ac18db3faf39519b7f05f01936bbfa2b53da5bad3b7450f4b33000000002322002058ed1f616c7b7ce01ca5d29d272eea36c51843bd3b299b505fa63e733febb0e3fdffffff02b1e201000000000017a9147bd43fd4a35953829c9e8770f9c6650b669a0147872c3404000000000017a914048b5342ceed508e2f07192c77a6e1d111b94f16870400483045022100e86b6afbfc6db38a6ef1387527f69a99d39e3bca3b302faa59538997c52f7e4002205e8538743f1602d1e82a56cda9533020fcb62acb08ebf4673d81edb79b89c1a60147304402203f66bb0833d0fb6feb89463182c84b443ef9508993a15d171ae44289320714e802200709892826316a0729face4808f22c32f5489ba0f092935578773d7ae7958824014752210358b8d97d05a576d23fa0159ece841341427f6740100744787731772c3f6853052102a76cefa69f9af946f3f26e33767a9076724b9524315a7dadfb13210f37a785c752ae04004830450221008f0ceb69a991489e30fafaf7ee69c18e37f08b1eee01f49045219ca42af6d2e60220644196626d601aa397066bb7848ce9dd8cdc14690ccf55309a8e5d49bbe5f20201473044022037ec1a97b68b0d5dab5419d64889e866769cfc2feb617d8f80b3a3f07afe69d30220691e658cbd28e2b84f045f3bc5b864794b65e1fb63df6450f295c9713d2e8ae601475221022dc93634b92582336c81e245eadc4202d9d50f0a04aa0e006e619dc038d96ae32102cbf05be328d6b1064777686884beb551da1826886aba6a0ca00152380dca8dbc52ae0c490800", "vin": [{"txinwitness": ["", "3045022100e86b6afbfc6db38a6ef1387527f69a99d39e3bca3b302faa59538997c52f7e4002205e8538743f1602d1e82a56cda9533020fcb62acb08ebf4673d81edb79b89c1a601", "304402203f66bb0833d0fb6feb89463182c84b443ef9508993a15d171ae44289320714e802200709892826316a0729face4808f22c32f5489ba0f092935578773d7ae795882401", "52210358b8d97d05a576d23fa0159ece841341427f6740100744787731772c3f6853052102a76cefa69f9af946f3f26e33767a9076724b9524315a7dadfb13210f37a785c752ae"], "sequence": 4294967293, "scriptSig": {"hex": "22002035b48faacc16adddd9dc8ff9408ad73319c59f21744552e0e07d386816bf91f5", "asm": "002035b48faacc16adddd9dc8ff9408ad73319c59f21744552e0e07d386816bf91f5"}, "vout": 0, "txid": "c4b05712a9250ca5ba2793ffb489951d2ec68a7040d366458c3d3f6c7d07f6cf"}, {"txinwitness": ["", "30450221008f0ceb69a991489e30fafaf7ee69c18e37f08b1eee01f49045219ca42af6d2e60220644196626d601aa397066bb7848ce9dd8cdc14690ccf55309a8e5d49bbe5f20201", "3044022037ec1a97b68b0d5dab5419d64889e866769cfc2feb617d8f80b3a3f07afe69d30220691e658cbd28e2b84f045f3bc5b864794b65e1fb63df6450f295c9713d2e8ae601", "5221022dc93634b92582336c81e245eadc4202d9d50f0a04aa0e006e619dc038d96ae32102cbf05be328d6b1064777686884beb551da1826886aba6a0ca00152380dca8dbc52ae"], "sequence": 4294967293, "scriptSig": {"hex": "22002058ed1f616c7b7ce01ca5d29d272eea36c51843bd3b299b505fa63e733febb0e3", "asm": "002058ed1f616c7b7ce01ca5d29d272eea36c51843bd3b299b505fa63e733febb0e3"}, "vout": 0, "txid": "334b0f45b7d3baa53db5a2bf6b93015ff0b71995f3fab38dc11a7b28ff0cc8fb"}], "txid": "a2f9f904d0684763d49816fd2d7a20271d7f2ed0ae1ee22aaf71c1f700516c20", "blocktime": 1537874412, "version": 1, "confirmations": 11467, "time": 1537874412, "locktime": 542988, "vsize": 336, "size": 666}