{"hash": "a2f979bd88ac2e8acf311cbc2014a67f0e835b910808683c13fc95c76017a625", "blockhash": "0000000000000000000baef3f32e3676a92c3b2e5da21b426e4f302fc371ce76", "vout": [{"scriptPubKey": {"reqSigs": 1, "hex": "a914f4e79f9086f4edd6d4e9af14a202b79bb693be1887", "addresses": ["3Q1xGpUVE8GP6MrMYkbXiMs7GFejMo2v1p"], "asm": "OP_HASH160 f4e79f9086f4edd6d4e9af14a202b79bb693be18 OP_EQUAL", "type": "scripthash"}, "value": 0.001, "n": 0}, {"scriptPubKey": {"reqSigs": 1, "hex": "76a914e980406100f1b02d9023620d15858ca5a5fb144c88ac", "addresses": ["1NHe5mQK8w5uu6QxqnWsd6M8fPLPiYGWzA"], "asm": "OP_DUP OP_HASH160 e980406100f1b02d9023620d15858ca5a5fb144c OP_EQUALVERIFY OP_CHECKSIG", "type": "pubkeyhash"}, "value": 0.06243384, "n": 1}], "hex": "0100000001d61739b96d8543bd7d8297dda517b5871ef288ec490f1cafe96834a2658930db010000006a47304402205f75d326813856e0f77537be9c708ada63f99d15cde2068a88b1846c5df151a502203ab91742bf9acba695e30b4bf36eae6fc0057062fca98a4302b9bb4e1487b1f9012103ad603f5d3610dce0c476cc5ff31b70d340cb842f4285d362fdb63d990e4c8e16ffffffff02a08601000000000017a914f4e79f9086f4edd6d4e9af14a202b79bb693be188738445f00000000001976a914e980406100f1b02d9023620d15858ca5a5fb144c88ac00000000", "vin": [{"sequence": 4294967295, "scriptSig": {"hex": "47304402205f75d326813856e0f77537be9c708ada63f99d15cde2068a88b1846c5df151a502203ab91742bf9acba695e30b4bf36eae6fc0057062fca98a4302b9bb4e1487b1f9012103ad603f5d3610dce0c476cc5ff31b70d340cb842f4285d362fdb63d990e4c8e16", "asm": "304402205f75d326813856e0f77537be9c708ada63f99d15cde2068a88b1846c5df151a502203ab91742bf9acba695e30b4bf36eae6fc0057062fca98a4302b9bb4e1487b1f9[ALL] 03ad603f5d3610dce0c476cc5ff31b70d340cb842f4285d362fdb63d990e4c8e16"}, "vout": 1, "txid": "db308965a23468e9af1c0f49ec88f21e87b517a5dd97827dbd43856db93917d6"}], "txid": "a2f979bd88ac2e8acf311cbc2014a67f0e835b910808683c13fc95c76017a625", "blocktime": 1537876114, "version": 1, "confirmations": 11459, "time": 1537876114, "locktime": 0, "vsize": 223, "size": 223}