{"hash": "a2ff5e452c3f7b02d931cefd9dad0e4b9b84e43ae9b0bd49249f4a844f630b00", "blockhash": "00000000000000000017f5eb5941039fbcee6240d03bc1f2f8e35350df66a1d8", "vout": [{"scriptPubKey": {"reqSigs": 1, "hex": "a914f9e2d573451f82f1baa5f8b8410a60ac8a74c0c787", "addresses": ["3QUHuzp5Y6wpb9LLXCtG2u2S8DaNDsL2Cw"], "asm": "OP_HASH160 f9e2d573451f82f1baa5f8b8410a60ac8a74c0c7 OP_EQUAL", "type": "scripthash"}, "value": 0.11727619, "n": 0}, {"scriptPubKey": {"reqSigs": 1, "hex": "76a914cbeaaf1bba490fe05752bba6b4edc6cb641a507388ac", "addresses": ["1KbDK5ELi1xkFi6Ereh6znZEZ4KYrPg7Qw"], "asm": "OP_DUP OP_HASH160 cbeaaf1bba490fe05752bba6b4edc6cb641a5073 OP_EQUALVERIFY OP_CHECKSIG", "type": "pubkeyhash"}, "value": 0.00777782, "n": 1}], "hex": "0100000001a89ee2b44c3947855069374ae2825c6324cd896c18aa15c435b95a725e84346b000000006b483045022100d61cd565a4e1394c84cabc2bbb1a802a628b96e96f3dc38194ab8add8d3c129b022029c01acc4dab64cabaace7ecf84c30106d22ea1745196aaa4ab686e65425124001210294a2b4e2c7ca182a0c46a1d07b0ded4d80c2c77add9d954ffbf75ddc01260908ffffffff0203f3b2000000000017a914f9e2d573451f82f1baa5f8b8410a60ac8a74c0c78736de0b00000000001976a914cbeaaf1bba490fe05752bba6b4edc6cb641a507388ac00000000", "vin": [{"sequence": 4294967295, "scriptSig": {"hex": "483045022100d61cd565a4e1394c84cabc2bbb1a802a628b96e96f3dc38194ab8add8d3c129b022029c01acc4dab64cabaace7ecf84c30106d22ea1745196aaa4ab686e65425124001210294a2b4e2c7ca182a0c46a1d07b0ded4d80c2c77add9d954ffbf75ddc01260908", "asm": "3045022100d61cd565a4e1394c84cabc2bbb1a802a628b96e96f3dc38194ab8add8d3c129b022029c01acc4dab64cabaace7ecf84c30106d22ea1745196aaa4ab686e654251240[ALL] 0294a2b4e2c7ca182a0c46a1d07b0ded4d80c2c77add9d954ffbf75ddc01260908"}, "vout": 0, "txid": "6b34845e725ab935c415aa186c89cd24635c82e24a3769508547394cb4e29ea8"}], "txid": "a2ff5e452c3f7b02d931cefd9dad0e4b9b84e43ae9b0bd49249f4a844f630b00", "blocktime": 1537874412, "version": 1, "confirmations": 11467, "time": 1537874412, "locktime": 0, "vsize": 224, "size": 224}