{"hash": "a3051c292e5e2b744c832f8848ae8a4519a19045c898349111504f1edac5e3c3", "blockhash": "00000000000000000018f53835495a110e01622372bf6ae95dc86f2b0ab887b0", "vout": [{"scriptPubKey": {"reqSigs": 1, "hex": "76a9141c2351a3df47766373a757ed94db8bb672a4795288ac", "addresses": ["13ZnENa7pFHJiWQQU3j5ZJJypr4aDuj7io"], "asm": "OP_DUP OP_HASH160 1c2351a3df47766373a757ed94db8bb672a47952 OP_EQUALVERIFY OP_CHECKSIG", "type": "pubkeyhash"}, "value": 0.03311, "n": 0}, {"scriptPubKey": {"reqSigs": 1, "hex": "76a91419809733e5c56e68fbfef9c17db66339f7f01a4a88ac", "addresses": ["13KqwRviGaSGwxPCAAt9ppobSPKR4SCUNy"], "asm": "OP_DUP OP_HASH160 19809733e5c56e68fbfef9c17db66339f7f01a4a OP_EQUALVERIFY OP_CHECKSIG", "type": "pubkeyhash"}, "value": 0.30256013, "n": 1}], "hex": "0100000002aac54e11b800d873d9659dafdbc973cd361ba6dacb2ec229c226fd2a5d3d4164000000006b483045022100b4e1b543ddb784935fd7e4aeff019ca1563a21bc767783a750d44c2cad2299460220396dedf2a8c2791cc8a1dc223317ec55ee8532f146d0ccbcb5954e3ed86f54a6012102dd21525cab390c5a79bb2d29d753c8e960a9bef0f762dab9fd070cb3b01ecbe3ffffffff122c0ab5a1605dd144f722664d22262124698bcbe302334117521aa43ef577d2010000006b483045022100ada83daf7a3dba1c997c7d6be1a8b72a1123712b675be577ff3800baa87acb2b02205531d3d6fa0ef4d5d0fc3ae7564030ec174f48419018422ee751fc722e2cbb360121032b20d00e968d9211a18394ee41024e2059a5cfbcdad6e30592995097c0152916ffffffff0298853200000000001976a9141c2351a3df47766373a757ed94db8bb672a4795288ac8dabcd01000000001976a91419809733e5c56e68fbfef9c17db66339f7f01a4a88ac00000000", "vin": [{"sequence": 4294967295, "scriptSig": {"hex": "483045022100b4e1b543ddb784935fd7e4aeff019ca1563a21bc767783a750d44c2cad2299460220396dedf2a8c2791cc8a1dc223317ec55ee8532f146d0ccbcb5954e3ed86f54a6012102dd21525cab390c5a79bb2d29d753c8e960a9bef0f762dab9fd070cb3b01ecbe3", "asm": "3045022100b4e1b543ddb784935fd7e4aeff019ca1563a21bc767783a750d44c2cad2299460220396dedf2a8c2791cc8a1dc223317ec55ee8532f146d0ccbcb5954e3ed86f54a6[ALL] 02dd21525cab390c5a79bb2d29d753c8e960a9bef0f762dab9fd070cb3b01ecbe3"}, "vout": 0, "txid": "64413d5d2afd26c229c22ecbdaa61b36cd73c9dbaf9d65d973d800b8114ec5aa"}, {"sequence": 4294967295, "scriptSig": {"hex": "483045022100ada83daf7a3dba1c997c7d6be1a8b72a1123712b675be577ff3800baa87acb2b02205531d3d6fa0ef4d5d0fc3ae7564030ec174f48419018422ee751fc722e2cbb360121032b20d00e968d9211a18394ee41024e2059a5cfbcdad6e30592995097c0152916", "asm": "3045022100ada83daf7a3dba1c997c7d6be1a8b72a1123712b675be577ff3800baa87acb2b02205531d3d6fa0ef4d5d0fc3ae7564030ec174f48419018422ee751fc722e2cbb36[ALL] 032b20d00e968d9211a18394ee41024e2059a5cfbcdad6e30592995097c0152916"}, "vout": 1, "txid": "d277f53ea41a5217413302e3cb8b69242126224d6622f744d15d60a1b50a2c12"}], "txid": "a3051c292e5e2b744c832f8848ae8a4519a19045c898349111504f1edac5e3c3", "blocktime": 1537870928, "version": 1, "confirmations": 11514, "time": 1537870928, "locktime": 0, "vsize": 374, "size": 374}