{"hash": "a306147084e07fba57609b20a19fdbb583a12eec7c6fb21d5da2728c971637dd", "blockhash": "0000000000000000000baef3f32e3676a92c3b2e5da21b426e4f302fc371ce76", "vout": [{"scriptPubKey": {"reqSigs": 1, "hex": "76a914d004cb23873163e8b28bde324a418cdb9551e28888ac", "addresses": ["1KxuHxfSDFU55C7GqVwCBpLkuJs98BzWPz"], "asm": "OP_DUP OP_HASH160 d004cb23873163e8b28bde324a418cdb9551e288 OP_EQUALVERIFY OP_CHECKSIG", "type": "pubkeyhash"}, "value": 0.01024369, "n": 0}, {"scriptPubKey": {"reqSigs": 1, "hex": "76a91496aea66de6cf18fad77a82a7fd02d39f135505e588ac", "addresses": ["1EjjagHHbxQoJirhHk6GqBwU56rJ6wquCk"], "asm": "OP_DUP OP_HASH160 96aea66de6cf18fad77a82a7fd02d39f135505e5 OP_EQUALVERIFY OP_CHECKSIG", "type": "pubkeyhash"}, "value": 0.01815623, "n": 1}], "hex": "020000000468feae7bd6a9d20c726587d6414efdf387cd4c14f18211f1deaab3845a2e87e8010000006b483045022100dce8adf01c3f2a39547786e9b675eb0538285694ed6f4d5723b0e5a4981f05cf022052c57fe709ab0757de4a050c934a4a5dd1da7023b799bbf87b2f5923e9136d8a0121023405c2d40974af31b29e5bcd259428db2ca6337a85bb8d44d062fdc0081eddc1feffffff9c7fb808fefd10477c5a6d81d5b3ab2e84ecf1e1ceeb543e15de8a2c80d9f427010000006a473044022029c8b17fa16d36a5bfec0cfce45fb06ae5d4d6eb03794932683cb6c7457c6186022038271bb9e44ad2add85687669c9fa147412043fb76d2ac402038f875944550d8012102668c5b1d06d03aa3fd184c16c02ee60d50f01c0d17dd3e84c5d2d5d075119fa3feffffffa28754eaae18345bb31644547a6b820266ee06518a34d10b9e17496d4e39bb6c080000006a473044022001032be0f6d59c4a4c6a001519365cc91f3fa3a3b5ae0a1971531d32900ee96402201a8684da713427f127833fe016889b92b01199896420b4fa5a8a16d4b89b2582012103d7559dbb76bb1abb5b04f3dfad3f4e86c01c9ed5a6aa97479117cf64603e00b2feffffffb8ec5252bc6e6e826b53aaf202241c4dc4fcf93194f3e537630b28542bb93f2b010000006b483045022100edc7bb035da292cadb51fcb20a7dceddb4110e7fb3171a81d94ef0703bbb54dd0220702e162ff4cccf5f2a78178658eba582d693ca864b3b2db810fed9621f065fce0121028c87a603d9b5cd32a4a1a0372d5af401507c4c43b2552560d684b00a56b1f18cfeffffff0271a10f00000000001976a914d004cb23873163e8b28bde324a418cdb9551e28888ac47b41b00000000001976a91496aea66de6cf18fad77a82a7fd02d39f135505e588ac15490800", "vin": [{"sequence": 4294967294, "scriptSig": {"hex": "483045022100dce8adf01c3f2a39547786e9b675eb0538285694ed6f4d5723b0e5a4981f05cf022052c57fe709ab0757de4a050c934a4a5dd1da7023b799bbf87b2f5923e9136d8a0121023405c2d40974af31b29e5bcd259428db2ca6337a85bb8d44d062fdc0081eddc1", "asm": "3045022100dce8adf01c3f2a39547786e9b675eb0538285694ed6f4d5723b0e5a4981f05cf022052c57fe709ab0757de4a050c934a4a5dd1da7023b799bbf87b2f5923e9136d8a[ALL] 023405c2d40974af31b29e5bcd259428db2ca6337a85bb8d44d062fdc0081eddc1"}, "vout": 1, "txid": "e8872e5a84b3aadef11182f1144ccd87f3fd4e41d68765720cd2a9d67baefe68"}, {"sequence": 4294967294, "scriptSig": {"hex": "473044022029c8b17fa16d36a5bfec0cfce45fb06ae5d4d6eb03794932683cb6c7457c6186022038271bb9e44ad2add85687669c9fa147412043fb76d2ac402038f875944550d8012102668c5b1d06d03aa3fd184c16c02ee60d50f01c0d17dd3e84c5d2d5d075119fa3", "asm": "3044022029c8b17fa16d36a5bfec0cfce45fb06ae5d4d6eb03794932683cb6c7457c6186022038271bb9e44ad2add85687669c9fa147412043fb76d2ac402038f875944550d8[ALL] 02668c5b1d06d03aa3fd184c16c02ee60d50f01c0d17dd3e84c5d2d5d075119fa3"}, "vout": 1, "txid": "27f4d9802c8ade153e54ebcee1f1ec842eabb3d5816d5a7c4710fdfe08b87f9c"}, {"sequence": 4294967294, "scriptSig": {"hex": "473044022001032be0f6d59c4a4c6a001519365cc91f3fa3a3b5ae0a1971531d32900ee96402201a8684da713427f127833fe016889b92b01199896420b4fa5a8a16d4b89b2582012103d7559dbb76bb1abb5b04f3dfad3f4e86c01c9ed5a6aa97479117cf64603e00b2", "asm": "3044022001032be0f6d59c4a4c6a001519365cc91f3fa3a3b5ae0a1971531d32900ee96402201a8684da713427f127833fe016889b92b01199896420b4fa5a8a16d4b89b2582[ALL] 03d7559dbb76bb1abb5b04f3dfad3f4e86c01c9ed5a6aa97479117cf64603e00b2"}, "vout": 8, "txid": "6cbb394e6d49179e0bd1348a5106ee6602826b7a544416b35b3418aeea5487a2"}, {"sequence": 4294967294, "scriptSig": {"hex": "483045022100edc7bb035da292cadb51fcb20a7dceddb4110e7fb3171a81d94ef0703bbb54dd0220702e162ff4cccf5f2a78178658eba582d693ca864b3b2db810fed9621f065fce0121028c87a603d9b5cd32a4a1a0372d5af401507c4c43b2552560d684b00a56b1f18c", "asm": "3045022100edc7bb035da292cadb51fcb20a7dceddb4110e7fb3171a81d94ef0703bbb54dd0220702e162ff4cccf5f2a78178658eba582d693ca864b3b2db810fed9621f065fce[ALL] 028c87a603d9b5cd32a4a1a0372d5af401507c4c43b2552560d684b00a56b1f18c"}, "vout": 1, "txid": "2b3fb92b54280b6337e5f39431f9fcc44d1c2402f2aa536b826e6ebc5252ecb8"}], "txid": "a306147084e07fba57609b20a19fdbb583a12eec7c6fb21d5da2728c971637dd", "blocktime": 1537876114, "version": 2, "confirmations": 11459, "time": 1537876114, "locktime": 542997, "vsize": 668, "size": 668}