{"hash": "0ffa382cfaab4fde8aa54a287fd4a03efe2cda93237da32cec2b62ece018be49", "blockhash": "0000000000000000001e0dab787dd257d1dbfcb92a98c2207d5e1078be1f4165", "vout": [{"scriptPubKey": {"reqSigs": 1, "hex": "a9142dff1532625a2e2317c9896737394b0503d29d1687", "addresses": ["35tDue4V6ERbGhUJvTPhuMWcAcRJoN1BJY"], "asm": "OP_HASH160 2dff1532625a2e2317c9896737394b0503d29d16 OP_EQUAL", "type": "scripthash"}, "value": 0.19860747, "n": 0}, {"scriptPubKey": {"reqSigs": 1, "hex": "00147c86743aca1f45e05489044149218595028561e9", "addresses": ["bc1q0jr8gwk2raz7q4yfq3q5jgv9j5pg2c0fzs9gg9"], "asm": "0 7c86743aca1f45e05489044149218595028561e9", "type": "witness_v0_keyhash"}, "value": 0.06306972, "n": 1}], "hex": "010000000001016f3cad55dd26ed7b64352e3aefba4856daaddda76e38742000924827b6e4ce6701000000171600148fb91036a0256256dc9d4150605226ebc5041d52ffffffff020b0d2f010000000017a9142dff1532625a2e2317c9896737394b0503d29d16879c3c6000000000001600147c86743aca1f45e05489044149218595028561e90247304402205f0951316bd35ac585b0f5a61d19fdae8e4ab9356fc237fda28726eb43fc94fd02203f3228d749a58356be84e188513324e5cf11f706223c53c433e9ce754ad28fdc01210305f5ac8ae02b0efd295f5a6cc4264a3c0fb411475020d49894a4e84cd726cc2e00000000", "vin": [{"txinwitness": ["304402205f0951316bd35ac585b0f5a61d19fdae8e4ab9356fc237fda28726eb43fc94fd02203f3228d749a58356be84e188513324e5cf11f706223c53c433e9ce754ad28fdc01", "0305f5ac8ae02b0efd295f5a6cc4264a3c0fb411475020d49894a4e84cd726cc2e"], "sequence": 4294967295, "scriptSig": {"hex": "1600148fb91036a0256256dc9d4150605226ebc5041d52", "asm": "00148fb91036a0256256dc9d4150605226ebc5041d52"}, "vout": 1, "txid": "67cee4b6274892002074386ea7ddadda5648baef3a2e35647bed26dd55ad3c6f"}], "txid": "a307cdcfccbbe381c0be3c8e92957c337df5df229760d63021341c34bc4b0c02", "blocktime": 1537872475, "version": 1, "confirmations": 11486, "time": 1537872475, "locktime": 0, "vsize": 165, "size": 246}