{"hash": "a308aa9872f09656febe12ff648a0b20235c86d99f7866a26be652156842a8c7", "blockhash": "00000000000000000017f5eb5941039fbcee6240d03bc1f2f8e35350df66a1d8", "vout": [{"scriptPubKey": {"reqSigs": 1, "hex": "76a914fd58b4577bf356cb3550a74be650f4ce7eba966688ac", "addresses": ["1Q6aDpy6XbUggMk8obcMuB2BQVL7zxc5h9"], "asm": "OP_DUP OP_HASH160 fd58b4577bf356cb3550a74be650f4ce7eba9666 OP_EQUALVERIFY OP_CHECKSIG", "type": "pubkeyhash"}, "value": 0.0108, "n": 0}, {"scriptPubKey": {"reqSigs": 1, "hex": "76a914ed6c36661dbb135460b423bb394251cca43ce6b588ac", "addresses": ["1NeNnCbCSKQ8RPAUpavPKH6QXH4acUxjr1"], "asm": "OP_DUP OP_HASH160 ed6c36661dbb135460b423bb394251cca43ce6b5 OP_EQUALVERIFY OP_CHECKSIG", "type": "pubkeyhash"}, "value": 0.02869427, "n": 1}], "hex": "0100000001c36eff121c0321c3cfa56787bb59dc1f9078434ac32cd9ef706b4f6570f4985e000000006b483045022100bac1fee48f338f09651ff7f1f55de61501decfc22ab3bdfbe42baaa57b2646e602206365a3a75f1749d20635dc54b93d1f51d612e84e543ab3edd608cbd8b177aa5101210319c4a168d69309d50c279e376b275936770c74a908a95e713ff40802b508a138ffffffff02c07a1000000000001976a914fd58b4577bf356cb3550a74be650f4ce7eba966688acb3c82b00000000001976a914ed6c36661dbb135460b423bb394251cca43ce6b588ac00000000", "vin": [{"sequence": 4294967295, "scriptSig": {"hex": "483045022100bac1fee48f338f09651ff7f1f55de61501decfc22ab3bdfbe42baaa57b2646e602206365a3a75f1749d20635dc54b93d1f51d612e84e543ab3edd608cbd8b177aa5101210319c4a168d69309d50c279e376b275936770c74a908a95e713ff40802b508a138", "asm": "3045022100bac1fee48f338f09651ff7f1f55de61501decfc22ab3bdfbe42baaa57b2646e602206365a3a75f1749d20635dc54b93d1f51d612e84e543ab3edd608cbd8b177aa51[ALL] 0319c4a168d69309d50c279e376b275936770c74a908a95e713ff40802b508a138"}, "vout": 0, "txid": "5e98f470654f6b70efd92cc34a4378901fdc59bb8767a5cfc321031c12ff6ec3"}], "txid": "a308aa9872f09656febe12ff648a0b20235c86d99f7866a26be652156842a8c7", "blocktime": 1537874412, "version": 1, "confirmations": 11468, "time": 1537874412, "locktime": 0, "vsize": 226, "size": 226}