{"hash": "89e00278c0959ea8fa60b96e4061d0ec05ebd6d8695616db6e06c07fc45c1a87", "blockhash": "00000000000000000017f5eb5941039fbcee6240d03bc1f2f8e35350df66a1d8", "vout": [{"scriptPubKey": {"reqSigs": 1, "hex": "76a91442faea12c811dd3001e74556e6da87f06467875188ac", "addresses": ["177ABVjavuW8yYNkgsuqgxjtrAF6FYgM2s"], "asm": "OP_DUP OP_HASH160 42faea12c811dd3001e74556e6da87f064678751 OP_EQUALVERIFY OP_CHECKSIG", "type": "pubkeyhash"}, "value": 0.00847681, "n": 0}, {"scriptPubKey": {"reqSigs": 1, "hex": "00145f748945e3b22a7be8e9a78adf6181c740cc2fa2", "addresses": ["bc1qta6gj30rkg48h68f579d7cvpcaqvctaz0v5spa"], "asm": "0 5f748945e3b22a7be8e9a78adf6181c740cc2fa2", "type": "witness_v0_keyhash"}, "value": 0.00095692, "n": 1}], "hex": "010000000001012dc19d1ea944679d3a79fc5819ed6be354872e2e2a9455734e83c8b8fa2e10b80000000017160014b37e0d9d862f49a6c9f3bf30edba8d1413737698ffffffff0241ef0c00000000001976a91442faea12c811dd3001e74556e6da87f06467875188accc750100000000001600145f748945e3b22a7be8e9a78adf6181c740cc2fa202473044022045a319d5164d5759f2bf71c232f0307f910d17ad58404067a9a5db4ec8a60f1c02201e7a502c5068c4c186be2669136ccb979c94190c2ff73312f21bb1e95aa1e25b0121022ca03c9411dd3c547e2513beb39138c9f1312e49fa89fe96b6287a2032d4ef7900000000", "vin": [{"txinwitness": ["3044022045a319d5164d5759f2bf71c232f0307f910d17ad58404067a9a5db4ec8a60f1c02201e7a502c5068c4c186be2669136ccb979c94190c2ff73312f21bb1e95aa1e25b01", "022ca03c9411dd3c547e2513beb39138c9f1312e49fa89fe96b6287a2032d4ef79"], "sequence": 4294967295, "scriptSig": {"hex": "160014b37e0d9d862f49a6c9f3bf30edba8d1413737698", "asm": "0014b37e0d9d862f49a6c9f3bf30edba8d1413737698"}, "vout": 0, "txid": "b8102efab8c8834e7355942a2e2e8754e36bed1958fc793a9d6744a91e9dc12d"}], "txid": "a3160d0602687a333e323aeee3b2b4b9cc71e441e80fcbde0d0ea0e189d530cf", "blocktime": 1537874412, "version": 1, "confirmations": 11468, "time": 1537874412, "locktime": 0, "vsize": 167, "size": 248}