{"hash": "a317d06471610edfceda84301242e18ed1efb0bd6fdbae1c2d1253654d283ad4", "blockhash": "0000000000000000000e13cef7c366c0283d82e591d1acd082e914b08063cdf1", "vout": [{"scriptPubKey": {"reqSigs": 1, "hex": "a9145125fd0ab0a8bf92aa4d06a31e63c5c2ad2f487b87", "addresses": ["3966AZkH6acWb9ygYiKFx2y9JgUnbFBeZh"], "asm": "OP_HASH160 5125fd0ab0a8bf92aa4d06a31e63c5c2ad2f487b OP_EQUAL", "type": "scripthash"}, "value": 0.00037855, "n": 0}], "hex": "0100000001f478a5ff301590badffcae814e4f7e44d1cb954aa63893613975332d90e5c7a4000000006b483045022100b3490a26315e1706d05d07e3d0bbf62a49c25a7eaf2b81a4bac1b0f75f817bb902203fed76eab5dc952e51302a99050b91a9b7605f60f9bd9222cef7e2994fc11859012102e9d1eec5bd86a66311639977da75aa3e38ee64931f116424ed4db28660509e93ffffffff01df9300000000000017a9145125fd0ab0a8bf92aa4d06a31e63c5c2ad2f487b8700000000", "vin": [{"sequence": 4294967295, "scriptSig": {"hex": "483045022100b3490a26315e1706d05d07e3d0bbf62a49c25a7eaf2b81a4bac1b0f75f817bb902203fed76eab5dc952e51302a99050b91a9b7605f60f9bd9222cef7e2994fc11859012102e9d1eec5bd86a66311639977da75aa3e38ee64931f116424ed4db28660509e93", "asm": "3045022100b3490a26315e1706d05d07e3d0bbf62a49c25a7eaf2b81a4bac1b0f75f817bb902203fed76eab5dc952e51302a99050b91a9b7605f60f9bd9222cef7e2994fc11859[ALL] 02e9d1eec5bd86a66311639977da75aa3e38ee64931f116424ed4db28660509e93"}, "vout": 0, "txid": "a4c7e5902d337539619338a64a95cbd1447e4f4e81aefcdfba901530ffa578f4"}], "txid": "a317d06471610edfceda84301242e18ed1efb0bd6fdbae1c2d1253654d283ad4", "blocktime": 1537871767, "version": 1, "confirmations": 11495, "time": 1537871767, "locktime": 0, "vsize": 190, "size": 190}