{"hash": "a3184e0a75de52b6ad08e52531ee707b31013781619819f603a70d87a853d8fe", "blockhash": "0000000000000000001f0ddff1eddb255c1121bcd4da4f1bc9a0da00cae72433", "vout": [{"scriptPubKey": {"reqSigs": 1, "hex": "76a9141acc73ac40784910ca61aec5229b141270688fc988ac", "addresses": ["13ShVYxTTx8ZejE5MwsGK7nVMZD2J6gfEq"], "asm": "OP_DUP OP_HASH160 1acc73ac40784910ca61aec5229b141270688fc9 OP_EQUALVERIFY OP_CHECKSIG", "type": "pubkeyhash"}, "value": 0.01094874, "n": 0}, {"scriptPubKey": {"reqSigs": 1, "hex": "76a9147716ffddd45d5803022c864dd55cf02f3183300788ac", "addresses": ["1Brgxrrivke39ESF7oADRkCRgJTABUcedt"], "asm": "OP_DUP OP_HASH160 7716ffddd45d5803022c864dd55cf02f31833007 OP_EQUALVERIFY OP_CHECKSIG", "type": "pubkeyhash"}, "value": 0.0116864, "n": 1}], "hex": "020000000362e6cfb85348fde3c2e7f2dba914bcdddc42cd0983ca250eea64e822121b514e010000006b4830450221008c00393498eb7a76159b51821b2bfd9f5a426b931b34b3a973acde670c45192502202e14ea28894ad2a35bb84f007f04c97b8ae792426b199584072f0851334349dd0121036585f8bf6d5f5425418f01a6feb6515dbed60917e6f03855d29309483147b3d6feffffff9ef32be16b608b9d302d67db5ca6ba711ba3446420e038a8475255f925416bf5130000006b483045022100cc9fb6006aaa57d2e7c0447e582a147dfb86ca204622ef75ce272637994f25e6022010a7b9df0922b8d90b7ebef42e0605d19a81c27dd512fd15976b5f7fd1ed20c6012102f3255d034911f8486e0334f78871d337294cf4fadde3219d6c04cfda194506b8feffffffddc5eeab6e8268188b1b7a720008aac834f7f5db56e3f705f4e171482f1ca1ca000000006a473044022002a2a89524e4428c2735038e5004eaba8c07e51bfcd6e7c46f8e33608698972202203ed7b3709238a80e5c6170030f547c88cb18acab8c17a326265e32e496dce2bc0121035457f7b938e49caeac5780db44c2285fa1ce3d573c8fca638b218191155622ddfeffffff02dab41000000000001976a9141acc73ac40784910ca61aec5229b141270688fc988ac00d51100000000001976a9147716ffddd45d5803022c864dd55cf02f3183300788ac11490800", "vin": [{"sequence": 4294967294, "scriptSig": {"hex": "4830450221008c00393498eb7a76159b51821b2bfd9f5a426b931b34b3a973acde670c45192502202e14ea28894ad2a35bb84f007f04c97b8ae792426b199584072f0851334349dd0121036585f8bf6d5f5425418f01a6feb6515dbed60917e6f03855d29309483147b3d6", "asm": "30450221008c00393498eb7a76159b51821b2bfd9f5a426b931b34b3a973acde670c45192502202e14ea28894ad2a35bb84f007f04c97b8ae792426b199584072f0851334349dd[ALL] 036585f8bf6d5f5425418f01a6feb6515dbed60917e6f03855d29309483147b3d6"}, "vout": 1, "txid": "4e511b1222e864ea0e25ca8309cd42dcddbc14a9dbf2e7c2e3fd4853b8cfe662"}, {"sequence": 4294967294, "scriptSig": {"hex": "483045022100cc9fb6006aaa57d2e7c0447e582a147dfb86ca204622ef75ce272637994f25e6022010a7b9df0922b8d90b7ebef42e0605d19a81c27dd512fd15976b5f7fd1ed20c6012102f3255d034911f8486e0334f78871d337294cf4fadde3219d6c04cfda194506b8", "asm": "3045022100cc9fb6006aaa57d2e7c0447e582a147dfb86ca204622ef75ce272637994f25e6022010a7b9df0922b8d90b7ebef42e0605d19a81c27dd512fd15976b5f7fd1ed20c6[ALL] 02f3255d034911f8486e0334f78871d337294cf4fadde3219d6c04cfda194506b8"}, "vout": 19, "txid": "f56b4125f9555247a838e0206444a31b71baa65cdb672d309d8b606be12bf39e"}, {"sequence": 4294967294, "scriptSig": {"hex": "473044022002a2a89524e4428c2735038e5004eaba8c07e51bfcd6e7c46f8e33608698972202203ed7b3709238a80e5c6170030f547c88cb18acab8c17a326265e32e496dce2bc0121035457f7b938e49caeac5780db44c2285fa1ce3d573c8fca638b218191155622dd", "asm": "3044022002a2a89524e4428c2735038e5004eaba8c07e51bfcd6e7c46f8e33608698972202203ed7b3709238a80e5c6170030f547c88cb18acab8c17a326265e32e496dce2bc[ALL] 035457f7b938e49caeac5780db44c2285fa1ce3d573c8fca638b218191155622dd"}, "vout": 0, "txid": "caa11c2f4871e1f405f7e356dbf5f734c8aa0800727a1b8b1868826eabeec5dd"}], "txid": "a3184e0a75de52b6ad08e52531ee707b31013781619819f603a70d87a853d8fe", "blocktime": 1537872018, "version": 2, "confirmations": 11489, "time": 1537872018, "locktime": 542993, "vsize": 521, "size": 521}