{"hash": "a318a27fec7ce7af4445c1e21381ea072673048f257d409a89c8b7e0259bc959", "blockhash": "0000000000000000000baef3f32e3676a92c3b2e5da21b426e4f302fc371ce76", "vout": [{"scriptPubKey": {"reqSigs": 1, "hex": "a9140ee92f6d3820ef68a4ee428396ffe3c58369123287", "addresses": ["333rjE2BVVowgrR2j8DEbgsdzMqsgYSuM3"], "asm": "OP_HASH160 0ee92f6d3820ef68a4ee428396ffe3c583691232 OP_EQUAL", "type": "scripthash"}, "value": 0.0015816, "n": 0}, {"scriptPubKey": {"reqSigs": 1, "hex": "76a914fee955f60b793e98cc937afb2837d3ecdddabf2588ac", "addresses": ["1QErABQx5x2z73Up5U5iWyrUXsh3iTr2JX"], "asm": "OP_DUP OP_HASH160 fee955f60b793e98cc937afb2837d3ecdddabf25 OP_EQUALVERIFY OP_CHECKSIG", "type": "pubkeyhash"}, "value": 0.02643783, "n": 1}], "hex": "010000000196307c4e3e336bf87b057fad02f31096eed703c0d61537f785e26f1b4600ca47010000006a473044022011b8f35d6c45392886b4a37c337822b717c8a767604549cd07c821077769b567022045afacd0c5507d39734c44b114c200cf5a4bbf1c427531df3377cb39ad910547012102313cd6d848e492ec64aca82d22ef4518725c75518e2f80745b65bf71443bf04bffffffff02d06902000000000017a9140ee92f6d3820ef68a4ee428396ffe3c5836912328747572800000000001976a914fee955f60b793e98cc937afb2837d3ecdddabf2588ac00000000", "vin": [{"sequence": 4294967295, "scriptSig": {"hex": "473044022011b8f35d6c45392886b4a37c337822b717c8a767604549cd07c821077769b567022045afacd0c5507d39734c44b114c200cf5a4bbf1c427531df3377cb39ad910547012102313cd6d848e492ec64aca82d22ef4518725c75518e2f80745b65bf71443bf04b", "asm": "3044022011b8f35d6c45392886b4a37c337822b717c8a767604549cd07c821077769b567022045afacd0c5507d39734c44b114c200cf5a4bbf1c427531df3377cb39ad910547[ALL] 02313cd6d848e492ec64aca82d22ef4518725c75518e2f80745b65bf71443bf04b"}, "vout": 1, "txid": "47ca00461b6fe285f73715d6c003d7ee9610f302ad7f057bf86b333e4e7c3096"}], "txid": "a318a27fec7ce7af4445c1e21381ea072673048f257d409a89c8b7e0259bc959", "blocktime": 1537876114, "version": 1, "confirmations": 11460, "time": 1537876114, "locktime": 0, "vsize": 223, "size": 223}