{"hash": "a31c97ed275a82b4f9049b35e6d8756099fbe877375d3887779856188733c5bc", "blockhash": "00000000000000000018f53835495a110e01622372bf6ae95dc86f2b0ab887b0", "vout": [{"scriptPubKey": {"reqSigs": 1, "hex": "a9148fcfc74c3bd5587f2bf25ec31e523740d0402d0787", "addresses": ["3EoRTgMHjCshUTV2svPt1fCkhKtoFd26V4"], "asm": "OP_HASH160 8fcfc74c3bd5587f2bf25ec31e523740d0402d07 OP_EQUAL", "type": "scripthash"}, "value": 0.0109326, "n": 0}, {"scriptPubKey": {"reqSigs": 1, "hex": "76a9141b77944d67167ea20b7ae8d5d065a8e8f39d0e4c88ac", "addresses": ["13WEVhKsbBt93wZEve848Wy4FU7Zsgi5E8"], "asm": "OP_DUP OP_HASH160 1b77944d67167ea20b7ae8d5d065a8e8f39d0e4c OP_EQUALVERIFY OP_CHECKSIG", "type": "pubkeyhash"}, "value": 0.01482903, "n": 1}], "hex": "010000000137088255d01cfeebee1c0c053922aa0b4085b6f1470f00ff33ae081903817537030000006a473044022055b84413aed82f3b03c0d50dc7d17eaab2868da17d23a18efbfbaf68e4a4cacc022011507449e7ae9d49aaf645b79a6ba2b4eb6c23278295ac8a60b1b488114ba27b012102133ada183a74a1a16487292a5e9e0a06aa009fe4999b25e1a7eaf33aeba028f1ffffffff028cae10000000000017a9148fcfc74c3bd5587f2bf25ec31e523740d0402d078797a01600000000001976a9141b77944d67167ea20b7ae8d5d065a8e8f39d0e4c88ac00000000", "vin": [{"sequence": 4294967295, "scriptSig": {"hex": "473044022055b84413aed82f3b03c0d50dc7d17eaab2868da17d23a18efbfbaf68e4a4cacc022011507449e7ae9d49aaf645b79a6ba2b4eb6c23278295ac8a60b1b488114ba27b012102133ada183a74a1a16487292a5e9e0a06aa009fe4999b25e1a7eaf33aeba028f1", "asm": "3044022055b84413aed82f3b03c0d50dc7d17eaab2868da17d23a18efbfbaf68e4a4cacc022011507449e7ae9d49aaf645b79a6ba2b4eb6c23278295ac8a60b1b488114ba27b[ALL] 02133ada183a74a1a16487292a5e9e0a06aa009fe4999b25e1a7eaf33aeba028f1"}, "vout": 3, "txid": "377581031908ae33ff000f47f1b685400baa2239050c1ceeebfe1cd055820837"}], "txid": "a31c97ed275a82b4f9049b35e6d8756099fbe877375d3887779856188733c5bc", "blocktime": 1537870928, "version": 1, "confirmations": 11514, "time": 1537870928, "locktime": 0, "vsize": 223, "size": 223}