{"hash": "e602addb24d1ecf7274fb233a49880f87b4d6f9d08dab4fb7f932cdfffe971c2", "blockhash": "0000000000000000001cda96e906b7601b7a6fb1a3b62bca570a9e5d8f4b3de1", "vout": [{"scriptPubKey": {"reqSigs": 1, "hex": "a91485f58bd27d694f8a90fabb2a2d1f50fb6d0f9cce87", "addresses": ["3DuKwuSQtBRmsjo8q48u4UVi95xT57md38"], "asm": "OP_HASH160 85f58bd27d694f8a90fabb2a2d1f50fb6d0f9cce OP_EQUAL", "type": "scripthash"}, "value": 0.01033351, "n": 0}, {"scriptPubKey": {"reqSigs": 1, "hex": "76a91497cb5830dd80d7db2f76e420b00b80aa93fffa5a88ac", "addresses": ["1EqcdbCYzHyR9f7a7X3Z7nWF3AVz4XgTUP"], "asm": "OP_DUP OP_HASH160 97cb5830dd80d7db2f76e420b00b80aa93fffa5a OP_EQUALVERIFY OP_CHECKSIG", "type": "pubkeyhash"}, "value": 7.92e-05, "n": 1}], "hex": "020000000001012cadb79e110f3edc6ab961281d030597bd73ff2ff4f50a3e35193d94a89a11f501000000171600140e13085fe9d4c4f0a7e6022f0b4e83f19748bc3efeffffff0287c40f000000000017a91485f58bd27d694f8a90fabb2a2d1f50fb6d0f9cce87f01e0000000000001976a91497cb5830dd80d7db2f76e420b00b80aa93fffa5a88ac02473044022045205d28b451acf09821b03b6919baf288ec80816ee4193a950ed7e08ee52dce02203701e5fd47b62a14851b6d8dcb88fa59b3dc4ec79776eb6669fe472b72e3ee8f01210362bc082f7c486977bf42a5b96e828bfd02d2b2ed72e0b6600111230f774c92f1b3480800", "vin": [{"txinwitness": ["3044022045205d28b451acf09821b03b6919baf288ec80816ee4193a950ed7e08ee52dce02203701e5fd47b62a14851b6d8dcb88fa59b3dc4ec79776eb6669fe472b72e3ee8f01", "0362bc082f7c486977bf42a5b96e828bfd02d2b2ed72e0b6600111230f774c92f1"], "sequence": 4294967294, "scriptSig": {"hex": "1600140e13085fe9d4c4f0a7e6022f0b4e83f19748bc3e", "asm": "00140e13085fe9d4c4f0a7e6022f0b4e83f19748bc3e"}, "vout": 1, "txid": "f5119aa8943d19353e0af5f42fff73bd9705031d2861b96adc3e0f119eb7ad2c"}], "txid": "a320d4c807e12c4f720504f4e2bf1240e9adbe2705b021e56962d20d940512b3", "blocktime": 1537873282, "version": 2, "confirmations": 11485, "time": 1537873282, "locktime": 542899, "vsize": 168, "size": 249}