{"hash": "a322f28f7f6cbdbbc0217acec2d37aa90932e4abef7b4274e76a1c7eb31c93d4", "blockhash": "0000000000000000000e13cef7c366c0283d82e591d1acd082e914b08063cdf1", "vout": [{"scriptPubKey": {"reqSigs": 1, "hex": "a91469f377003899c988a30ea2cf2e7544050afad4f487", "addresses": ["3BMEXvKRmwJEKgKEYnhmCgdKqxtLXheG4Q"], "asm": "OP_HASH160 69f377003899c988a30ea2cf2e7544050afad4f4 OP_EQUAL", "type": "scripthash"}, "value": 0.75, "n": 0}, {"scriptPubKey": {"reqSigs": 1, "hex": "76a914bed01eb7114bd9b834f8694076a6baf25b6ce50988ac", "addresses": ["1JPvhsu7YTVRVBSiH2VzCn1tQ9cKhbuXXX"], "asm": "OP_DUP OP_HASH160 bed01eb7114bd9b834f8694076a6baf25b6ce509 OP_EQUALVERIFY OP_CHECKSIG", "type": "pubkeyhash"}, "value": 3.249497, "n": 1}], "hex": "0100000001d1b2600a17491f080f355b1fb8b51e5ad4106def4a8cb80e37679faa70a20470340000006a473044022067af6bd2291fe8048cb08bbc0e5822808b1af7f0107ca5b21e2f7fc3d777a4ed02204e7a202c8045a05a877773af831805d17fd391a95846a162b7ba58634cee3e9a01210283f13ab20843ca96284853bc71f54252875e05b1284e063706ec41b43384507efeffffff02c06878040000000017a91469f377003899c988a30ea2cf2e7544050afad4f487c4565e13000000001976a914bed01eb7114bd9b834f8694076a6baf25b6ce50988ac10490800", "vin": [{"sequence": 4294967294, "scriptSig": {"hex": "473044022067af6bd2291fe8048cb08bbc0e5822808b1af7f0107ca5b21e2f7fc3d777a4ed02204e7a202c8045a05a877773af831805d17fd391a95846a162b7ba58634cee3e9a01210283f13ab20843ca96284853bc71f54252875e05b1284e063706ec41b43384507e", "asm": "3044022067af6bd2291fe8048cb08bbc0e5822808b1af7f0107ca5b21e2f7fc3d777a4ed02204e7a202c8045a05a877773af831805d17fd391a95846a162b7ba58634cee3e9a[ALL] 0283f13ab20843ca96284853bc71f54252875e05b1284e063706ec41b43384507e"}, "vout": 52, "txid": "7004a270aa9f67370eb88c4aef6d10d45a1eb5b81f5b350f081f49170a60b2d1"}], "txid": "a322f28f7f6cbdbbc0217acec2d37aa90932e4abef7b4274e76a1c7eb31c93d4", "blocktime": 1537871767, "version": 1, "confirmations": 11495, "time": 1537871767, "locktime": 542992, "vsize": 223, "size": 223}