{"hash": "a3250487efcf2c1d241371afe5c3acbc1fcbcac5a06f886d08f37a49eea3e7d1", "blockhash": "0000000000000000001cda96e906b7601b7a6fb1a3b62bca570a9e5d8f4b3de1", "vout": [{"scriptPubKey": {"reqSigs": 1, "hex": "76a9145ee1aed484688a5537ac8dc5d9848a1baaf91d5688ac", "addresses": ["19egskuQ37uvpHwDk5a8onSoM7ZsqkWsRr"], "asm": "OP_DUP OP_HASH160 5ee1aed484688a5537ac8dc5d9848a1baaf91d56 OP_EQUALVERIFY OP_CHECKSIG", "type": "pubkeyhash"}, "value": 0.0009, "n": 0}, {"scriptPubKey": {"reqSigs": 1, "hex": "76a9147ef3b0e1ce92b8ea03810cdf3c9d0d3ac8fd442a88ac", "addresses": ["1CaG57djAXaE2dMaN8m79MbpzZHQs4BBFh"], "asm": "OP_DUP OP_HASH160 7ef3b0e1ce92b8ea03810cdf3c9d0d3ac8fd442a OP_EQUALVERIFY OP_CHECKSIG", "type": "pubkeyhash"}, "value": 1.27135315, "n": 1}], "hex": "010000000107e11064f2ea0932265b90348be17a4e1785ac589ee796cbe3664b32c986f446010000006b483045022100aa796c02a63e6dfe591e85a7712a78f967990d3502410451b12e079953e3f89f02206fc6e9f056c9acee219c5aefaebd2e5c1df53bf4a848074c0a253e25a1200907012102464fbe63e98ea08c43650fc3175fd3d82e296d19a7c9834eaa84b1e3be7df440ffffffff02905f0100000000001976a9145ee1aed484688a5537ac8dc5d9848a1baaf91d5688ac53ee9307000000001976a9147ef3b0e1ce92b8ea03810cdf3c9d0d3ac8fd442a88ac00000000", "vin": [{"sequence": 4294967295, "scriptSig": {"hex": "483045022100aa796c02a63e6dfe591e85a7712a78f967990d3502410451b12e079953e3f89f02206fc6e9f056c9acee219c5aefaebd2e5c1df53bf4a848074c0a253e25a1200907012102464fbe63e98ea08c43650fc3175fd3d82e296d19a7c9834eaa84b1e3be7df440", "asm": "3045022100aa796c02a63e6dfe591e85a7712a78f967990d3502410451b12e079953e3f89f02206fc6e9f056c9acee219c5aefaebd2e5c1df53bf4a848074c0a253e25a1200907[ALL] 02464fbe63e98ea08c43650fc3175fd3d82e296d19a7c9834eaa84b1e3be7df440"}, "vout": 1, "txid": "46f486c9324b66e3cb96e79e58ac85174e7ae18b34905b263209eaf26410e107"}], "txid": "a3250487efcf2c1d241371afe5c3acbc1fcbcac5a06f886d08f37a49eea3e7d1", "blocktime": 1537873282, "version": 1, "confirmations": 11485, "time": 1537873282, "locktime": 0, "vsize": 226, "size": 226}