{"hash": "f0e3a0b213a6f369eb4984ced81f275ce922822f92ef94aadbb92cd513645da4", "blockhash": "0000000000000000001f0ddff1eddb255c1121bcd4da4f1bc9a0da00cae72433", "vout": [{"scriptPubKey": {"reqSigs": 1, "hex": "00140452e26d2dfc44742aa5b1fae888973823f9f561", "addresses": ["bc1qq3fwymfdl3z8g249k8aw3zyh8q3lnatp9r3mg2"], "asm": "0 0452e26d2dfc44742aa5b1fae888973823f9f561", "type": "witness_v0_keyhash"}, "value": 0.00991716, "n": 0}, {"scriptPubKey": {"reqSigs": 1, "hex": "76a914c2a9f745220badc9d20b72a024792eeb64cdeb9d88ac", "addresses": ["1JkHherveNkz3hNCuFx9fJk9pi96PDEUx4"], "asm": "OP_DUP OP_HASH160 c2a9f745220badc9d20b72a024792eeb64cdeb9d OP_EQUALVERIFY OP_CHECKSIG", "type": "pubkeyhash"}, "value": 0.4010678, "n": 1}], "hex": "01000000000101afa885464c7fc91a9724d84df962f7146cdfee2a8a8e4d7e7579e65ad185531d0000000000ffffffff02e4210f00000000001600140452e26d2dfc44742aa5b1fae888973823f9f5611cfb6302000000001976a914c2a9f745220badc9d20b72a024792eeb64cdeb9d88ac0247304402205e1fe08c2467ec65f99064b5a39e6f94990057288c700678029a983527d016e30220442f8b5d036b63ceeb83147953ea866d1da3706ee5a83688625f4e6e9197909e01210361714a0e567beb5821c17377cb6f0af47e288b3bf4adb99c294f08639eb088a300000000", "vin": [{"txinwitness": ["304402205e1fe08c2467ec65f99064b5a39e6f94990057288c700678029a983527d016e30220442f8b5d036b63ceeb83147953ea866d1da3706ee5a83688625f4e6e9197909e01", "0361714a0e567beb5821c17377cb6f0af47e288b3bf4adb99c294f08639eb088a3"], "sequence": 4294967295, "scriptSig": {"hex": "", "asm": ""}, "vout": 0, "txid": "1d5385d15ae679757e4d8e8a2aeedf6c14f762f94dd824971ac97f4c4685a8af"}], "txid": "a328990484669cb75e6067e832a95534986b8bd9e965fb58a57ed14e44dc763d", "blocktime": 1537872018, "version": 1, "confirmations": 11489, "time": 1537872018, "locktime": 0, "vsize": 144, "size": 225}