{"hash": "a32be98d0ff2f079e3f1581f2ec62fef0e46a65786e699d6b37790a3d996d832", "blockhash": "0000000000000000001cda96e906b7601b7a6fb1a3b62bca570a9e5d8f4b3de1", "vout": [{"scriptPubKey": {"reqSigs": 1, "hex": "a91405953c5848a7a5877de6feb035fc3ea6d7410acb87", "addresses": ["32CY5akKbDSvY1FvoQYhy87VCFXfMyeu2k"], "asm": "OP_HASH160 05953c5848a7a5877de6feb035fc3ea6d7410acb OP_EQUAL", "type": "scripthash"}, "value": 0.00491749, "n": 0}, {"scriptPubKey": {"reqSigs": 1, "hex": "76a9143ea36b666af9fda17182a1b7a34b489a43df6b4588ac", "addresses": ["16iCfUw64nx7R98MMpWL7Wg84rPhw8DqSu"], "asm": "OP_DUP OP_HASH160 3ea36b666af9fda17182a1b7a34b489a43df6b45 OP_EQUALVERIFY OP_CHECKSIG", "type": "pubkeyhash"}, "value": 0.00554169, "n": 1}], "hex": "01000000022d9021e5fdad9d4bd7d0a24165886c1986a8f325f0c5368f04ec282feec42ff0010000006b483045022100f3df1965110960d0f10f0cd37fa0f3b8c34d24ed765f51178039342fbc4e7e1d02204ecbe506b63dc4015fe64f005457ff9648c79f76ff80b89a2c417b00d5d5c036012102792a093df0a78310eb29faa017ac4c283bf0cb73e31d60ccc464a98046b4f3cbffffffff8ae3a3057c88d8e6ce4fc1c7df69ae757a87aab33f00b65c530791a8ebe0eceb000000006a473044022060468700fe1a8b6aa28131a54cd24a0e543191c449fdac11b74f93f1d0c9d75302203feed9570f1c1d09351428ad5319f399ca8a827936fbb874cdb4527b16a103aa012103fa9d9eb5b7f44c50f22102205bf8b517baa6214615ac7b80401294af702bc391ffffffff02e58007000000000017a91405953c5848a7a5877de6feb035fc3ea6d7410acb87b9740800000000001976a9143ea36b666af9fda17182a1b7a34b489a43df6b4588ac00000000", "vin": [{"sequence": 4294967295, "scriptSig": {"hex": "483045022100f3df1965110960d0f10f0cd37fa0f3b8c34d24ed765f51178039342fbc4e7e1d02204ecbe506b63dc4015fe64f005457ff9648c79f76ff80b89a2c417b00d5d5c036012102792a093df0a78310eb29faa017ac4c283bf0cb73e31d60ccc464a98046b4f3cb", "asm": "3045022100f3df1965110960d0f10f0cd37fa0f3b8c34d24ed765f51178039342fbc4e7e1d02204ecbe506b63dc4015fe64f005457ff9648c79f76ff80b89a2c417b00d5d5c036[ALL] 02792a093df0a78310eb29faa017ac4c283bf0cb73e31d60ccc464a98046b4f3cb"}, "vout": 1, "txid": "f02fc4ee2f28ec048f36c5f025f3a886196c886541a2d0d74b9dadfde521902d"}, {"sequence": 4294967295, "scriptSig": {"hex": "473044022060468700fe1a8b6aa28131a54cd24a0e543191c449fdac11b74f93f1d0c9d75302203feed9570f1c1d09351428ad5319f399ca8a827936fbb874cdb4527b16a103aa012103fa9d9eb5b7f44c50f22102205bf8b517baa6214615ac7b80401294af702bc391", "asm": "3044022060468700fe1a8b6aa28131a54cd24a0e543191c449fdac11b74f93f1d0c9d75302203feed9570f1c1d09351428ad5319f399ca8a827936fbb874cdb4527b16a103aa[ALL] 03fa9d9eb5b7f44c50f22102205bf8b517baa6214615ac7b80401294af702bc391"}, "vout": 0, "txid": "ebece0eba89107535cb6003fb3aa877a75ae69dfc7c14fcee6d8887c05a3e38a"}], "txid": "a32be98d0ff2f079e3f1581f2ec62fef0e46a65786e699d6b37790a3d996d832", "blocktime": 1537873282, "version": 1, "confirmations": 11481, "time": 1537873282, "locktime": 0, "vsize": 371, "size": 371}