{"hash": "a32c565c7e32d3ffa59f3ea0c53798c6996baf9f3b97ce5fbc135aa68211c4d0", "blockhash": "0000000000000000000e13cef7c366c0283d82e591d1acd082e914b08063cdf1", "vout": [{"scriptPubKey": {"reqSigs": 1, "hex": "76a9146edd540bab15a71a3512acede1baea9dee4bb0f288ac", "addresses": ["1B7CUGAUsWTstazegbLjumRNBtTzGNVyWT"], "asm": "OP_DUP OP_HASH160 6edd540bab15a71a3512acede1baea9dee4bb0f2 OP_EQUALVERIFY OP_CHECKSIG", "type": "pubkeyhash"}, "value": 0.01562415, "n": 0}, {"scriptPubKey": {"reqSigs": 1, "hex": "76a9144845911e3372f89e070141dab965c2b8f71c594988ac", "addresses": ["17b8zQLrWHerLfRfWyEgx8XgEHw6gC4Zv8"], "asm": "OP_DUP OP_HASH160 4845911e3372f89e070141dab965c2b8f71c5949 OP_EQUALVERIFY OP_CHECKSIG", "type": "pubkeyhash"}, "value": 0.16503905, "n": 1}], "hex": "01000000015be199316c9715b1210e3747ad6b0ca54a96cb551b6dabf0cb549fa5fe651f2a010000006a47304402203bf69054c8779c1c612925c0cffd8d227c39ad4d1ced7d81ae92b61fc2fb8a5802206976e51a2ae61538aac9aaeeaf90a4e3ff613594e41b64b8bf73e463353178e70121031815bb3c3128d7c6089754ba949c135ffe148786a9b0ea3e43f60dad589c9715ffffffff022fd71700000000001976a9146edd540bab15a71a3512acede1baea9dee4bb0f288ac61d4fb00000000001976a9144845911e3372f89e070141dab965c2b8f71c594988ac00000000", "vin": [{"sequence": 4294967295, "scriptSig": {"hex": "47304402203bf69054c8779c1c612925c0cffd8d227c39ad4d1ced7d81ae92b61fc2fb8a5802206976e51a2ae61538aac9aaeeaf90a4e3ff613594e41b64b8bf73e463353178e70121031815bb3c3128d7c6089754ba949c135ffe148786a9b0ea3e43f60dad589c9715", "asm": "304402203bf69054c8779c1c612925c0cffd8d227c39ad4d1ced7d81ae92b61fc2fb8a5802206976e51a2ae61538aac9aaeeaf90a4e3ff613594e41b64b8bf73e463353178e7[ALL] 031815bb3c3128d7c6089754ba949c135ffe148786a9b0ea3e43f60dad589c9715"}, "vout": 1, "txid": "2a1f65fea59f54cbf0ab6d1b55cb964aa50c6bad47370e21b115976c3199e15b"}], "txid": "a32c565c7e32d3ffa59f3ea0c53798c6996baf9f3b97ce5fbc135aa68211c4d0", "blocktime": 1537871767, "version": 1, "confirmations": 11495, "time": 1537871767, "locktime": 0, "vsize": 225, "size": 225}