{"hash": "2d8d0d6c25a9c29724f311042a8fbcf5dd5efb51f529ab6391638cc7efaaec01", "blockhash": "0000000000000000001cda96e906b7601b7a6fb1a3b62bca570a9e5d8f4b3de1", "vout": [{"scriptPubKey": {"reqSigs": 1, "hex": "00146ba5412f2b90191b7154a46fc8d04bd13b43576e", "addresses": ["bc1qdwj5ztetjqv3ku2553hu35zt6ya5x4mwyt44v8"], "asm": "0 6ba5412f2b90191b7154a46fc8d04bd13b43576e", "type": "witness_v0_keyhash"}, "value": 0.21064062, "n": 0}, {"scriptPubKey": {"reqSigs": 1, "hex": "a91456b975b75813abaaf152d4346e770fbd342d4a8587", "addresses": ["39baD1t2aS585tuQftBGhD1B8pGm6uWVGQ"], "asm": "OP_HASH160 56b975b75813abaaf152d4346e770fbd342d4a85 OP_EQUAL", "type": "scripthash"}, "value": 0.17988826, "n": 1}], "hex": "01000000000101c9922a649ce8538eec570b67233738fe68dde8beb15c78f36bdeae530139e8940000000000ffffffff027e694101000000001600146ba5412f2b90191b7154a46fc8d04bd13b43576eda7c12010000000017a91456b975b75813abaaf152d4346e770fbd342d4a85870247304402205f33857f3756a485b840969fd677896e01db3b89a4988b315147501cea28510802206ab2dc0f73741d8b0eaa167cf538ca990974b2c3ae42012c467a3e1137e3992f012103d697d979f69e765d195538f30be22edb67b39aa8eae62e9af09ae52f946bba8a00000000", "vin": [{"txinwitness": ["304402205f33857f3756a485b840969fd677896e01db3b89a4988b315147501cea28510802206ab2dc0f73741d8b0eaa167cf538ca990974b2c3ae42012c467a3e1137e3992f01", "03d697d979f69e765d195538f30be22edb67b39aa8eae62e9af09ae52f946bba8a"], "sequence": 4294967295, "scriptSig": {"hex": "", "asm": ""}, "vout": 0, "txid": "94e8390153aede6bf3785cb1bee8dd68fe383723670b57ec8e53e89c642a92c9"}], "txid": "a3421f9e4bb71a8ee1d41305444198bf508b2fd73de524f5ea8f2b5efee2000f", "blocktime": 1537873282, "version": 1, "confirmations": 11484, "time": 1537873282, "locktime": 0, "vsize": 142, "size": 223}