{"hash": "250974d2a60a3e20e6e9a3ab57c156d7ad0588a7bdbf562666e52378f8879d39", "blockhash": "0000000000000000001cda96e906b7601b7a6fb1a3b62bca570a9e5d8f4b3de1", "vout": [{"scriptPubKey": {"reqSigs": 1, "hex": "a9143100572c073338ad2bec926bce3c32307616081387", "addresses": ["36A7SbvLuk8Xg1iTyG5jN5YUAvGDFGQAij"], "asm": "OP_HASH160 3100572c073338ad2bec926bce3c323076160813 OP_EQUAL", "type": "scripthash"}, "value": 0.00877642, "n": 0}, {"scriptPubKey": {"reqSigs": 1, "hex": "a914f0bcd1334c7947b8427e4ea71c09c5fd8bb10d1e87", "addresses": ["3PdvHqAtZrv593cD5xqFQuEUybKNHffRtv"], "asm": "OP_HASH160 f0bcd1334c7947b8427e4ea71c09c5fd8bb10d1e OP_EQUAL", "type": "scripthash"}, "value": 0.00918028, "n": 1}], "hex": "0200000000010254c00f2acd2fc9b80f9598fd884132de6626b188a354e06b7310d75674950b6201000000171600141b4eebcaa149ab0ab124e5d4bb41e7f6674b4bbdfeffffff5bb2a04d5a1adc1f5aa927b8a56da273c5638a9b21a585a15714b83d162c61f70000000017160014275b5713cb2d2e1fef32a6c2b3c5cd185990d8b2feffffff024a640d000000000017a9143100572c073338ad2bec926bce3c323076160813870c020e000000000017a914f0bcd1334c7947b8427e4ea71c09c5fd8bb10d1e8702473044022033f76799bc7cc92ab9570553dc3d96083b43ae1f93c3a6b2d1eb93dead90baad022046ab1cf1d87c5fccb8c71712ab697ac606246a3ad65ec33dc3c9ebe1e19733b001210333027ad73b48393006c2597a594952a081b774b7dba83619c205d322aecbfba002483045022100e215b362dffcffadb85d877d5deea3b27bb06ee908bed62e7e4337fc170a60900220619b5d318d28ad07b51941f5565f5324f5b67e49d2be38f5e52343bc002e4a5e0121037b90a4505100daf7678dc4d1bc16615afcf5a2a0f805a7262a4363d2186ada2513490800", "vin": [{"txinwitness": ["3044022033f76799bc7cc92ab9570553dc3d96083b43ae1f93c3a6b2d1eb93dead90baad022046ab1cf1d87c5fccb8c71712ab697ac606246a3ad65ec33dc3c9ebe1e19733b001", "0333027ad73b48393006c2597a594952a081b774b7dba83619c205d322aecbfba0"], "sequence": 4294967294, "scriptSig": {"hex": "1600141b4eebcaa149ab0ab124e5d4bb41e7f6674b4bbd", "asm": "00141b4eebcaa149ab0ab124e5d4bb41e7f6674b4bbd"}, "vout": 1, "txid": "620b957456d710736be054a388b12666de324188fd98950fb8c92fcd2a0fc054"}, {"txinwitness": ["3045022100e215b362dffcffadb85d877d5deea3b27bb06ee908bed62e7e4337fc170a60900220619b5d318d28ad07b51941f5565f5324f5b67e49d2be38f5e52343bc002e4a5e01", "037b90a4505100daf7678dc4d1bc16615afcf5a2a0f805a7262a4363d2186ada25"], "sequence": 4294967294, "scriptSig": {"hex": "160014275b5713cb2d2e1fef32a6c2b3c5cd185990d8b2", "asm": "0014275b5713cb2d2e1fef32a6c2b3c5cd185990d8b2"}, "vout": 0, "txid": "f7612c163db81457a185a5219b8a63c573a26da5b827a95a1fdc1a5a4da0b25b"}], "txid": "a34384861e889019685c24edde6cd0f0bb2b674f9487dc56b52a1e126635047e", "blocktime": 1537873282, "version": 2, "confirmations": 11480, "time": 1537873282, "locktime": 542995, "vsize": 257, "size": 419}