{"hash": "74d219734e405bd7e69dd284653cedabf47874b983f5b7b31c26d0d60df3162c", "blockhash": "0000000000000000000baef3f32e3676a92c3b2e5da21b426e4f302fc371ce76", "vout": [{"scriptPubKey": {"reqSigs": 1, "hex": "76a914871b56d8ccbd16687d0e7a18594bd65ad24fe14788ac", "addresses": ["1DKNyTkTDtmMX9sSqSfL6xEzJt2sACibac"], "asm": "OP_DUP OP_HASH160 871b56d8ccbd16687d0e7a18594bd65ad24fe147 OP_EQUALVERIFY OP_CHECKSIG", "type": "pubkeyhash"}, "value": 0.109696, "n": 0}, {"scriptPubKey": {"reqSigs": 1, "hex": "a9149fedd0435a5346d19e10dbf067501f04f6a02d3687", "addresses": ["3GGeFcpTvbKcU9so2Fz4C8o4V2C9Du9Ngp"], "asm": "OP_HASH160 9fedd0435a5346d19e10dbf067501f04f6a02d36 OP_EQUAL", "type": "scripthash"}, "value": 4.63827614, "n": 1}], "hex": "01000000000101cdd15f9e80081db49653e057fa5cd943d6c0664cf4be07f608b15213cab3db670100000023220020bdce0b87be1099509aee666bf280d91936d77265b9626a3811efa68c794ec6d9ffffffff020062a700000000001976a914871b56d8ccbd16687d0e7a18594bd65ad24fe14788ac9e72a51b0000000017a9149fedd0435a5346d19e10dbf067501f04f6a02d368704004730440220469cdfa281e446249fb36e63b4ce315377ac478795b66bcbaa723cac0ac54d2f02206927b0568855391ea1ab8d3ba3df83abbf780c4474d1a9182ad2a09fc421ec0f01483045022100a8ff7635d57eff04973235114bf3c48efe20ed2622fcacf24456762e68d598ef02206e9ca4e48f022804a5ee4f83ed974ed6de14c02531fb0a27d1e496b2c166fb4f0147522103eb143395e1f431f678a743f1647f1b19b73b3255e6eb16378dc614c75af6729821022a8a912ad76544ca20f666a2071879d22db3f19b68028bfb6e15e148dbbe91a252ae00000000", "vin": [{"txinwitness": ["", "30440220469cdfa281e446249fb36e63b4ce315377ac478795b66bcbaa723cac0ac54d2f02206927b0568855391ea1ab8d3ba3df83abbf780c4474d1a9182ad2a09fc421ec0f01", "3045022100a8ff7635d57eff04973235114bf3c48efe20ed2622fcacf24456762e68d598ef02206e9ca4e48f022804a5ee4f83ed974ed6de14c02531fb0a27d1e496b2c166fb4f01", "522103eb143395e1f431f678a743f1647f1b19b73b3255e6eb16378dc614c75af6729821022a8a912ad76544ca20f666a2071879d22db3f19b68028bfb6e15e148dbbe91a252ae"], "sequence": 4294967295, "scriptSig": {"hex": "220020bdce0b87be1099509aee666bf280d91936d77265b9626a3811efa68c794ec6d9", "asm": "0020bdce0b87be1099509aee666bf280d91936d77265b9626a3811efa68c794ec6d9"}, "vout": 1, "txid": "67dbb3ca1352b108f607bef44c66c0d643d95cfa57e05396b41d08809e5fd1cd"}], "txid": "a344cf9be989b9c2d9c4b9e8e703a4b09d160712e202adcf1d6113b3b909ac1d", "blocktime": 1537876114, "version": 1, "confirmations": 11460, "time": 1537876114, "locktime": 0, "vsize": 208, "size": 373}