{"hash": "a3474a003d7fa024c312b110c855489abe16973a8853726078a3032428188883", "blockhash": "0000000000000000000baef3f32e3676a92c3b2e5da21b426e4f302fc371ce76", "vout": [{"scriptPubKey": {"reqSigs": 1, "hex": "a914fbeb50290e22c1cfa816bb5b35c8d825d3a52cc187", "addresses": ["3Qf3RY2qrTK9PHMVMP3j75vSN3V7e28zAP"], "asm": "OP_HASH160 fbeb50290e22c1cfa816bb5b35c8d825d3a52cc1 OP_EQUAL", "type": "scripthash"}, "value": 0.0059, "n": 0}, {"scriptPubKey": {"reqSigs": 1, "hex": "76a9141e82d1ee911fc557361a16d2bdccde60af2c120788ac", "addresses": ["13nKzHtEm6knhg2ZxYBbjSQzxnNZZ2oVbZ"], "asm": "OP_DUP OP_HASH160 1e82d1ee911fc557361a16d2bdccde60af2c1207 OP_EQUALVERIFY OP_CHECKSIG", "type": "pubkeyhash"}, "value": 6.92e-06, "n": 1}], "hex": "01000000011db912b99c1ccf9ce21ab386d9e5d3aedde001ad0f928433e805cda20dddc59b000000006b483045022100a9bdd6ff53741c7557db81e254c3ccebe17bf1e9b67935c3730ed2ee19da5c4d02202bac698545d545549bc5d952bbe0bf2dadfc2cf2fe8e94bcacf34cc844213140012102a3ca0c96b1ebe5da6b8dc91a43ef129aabfc541243cb745f31eb69367ec428c4ffffffff02b00009000000000017a914fbeb50290e22c1cfa816bb5b35c8d825d3a52cc187b4020000000000001976a9141e82d1ee911fc557361a16d2bdccde60af2c120788ac00000000", "vin": [{"sequence": 4294967295, "scriptSig": {"hex": "483045022100a9bdd6ff53741c7557db81e254c3ccebe17bf1e9b67935c3730ed2ee19da5c4d02202bac698545d545549bc5d952bbe0bf2dadfc2cf2fe8e94bcacf34cc844213140012102a3ca0c96b1ebe5da6b8dc91a43ef129aabfc541243cb745f31eb69367ec428c4", "asm": "3045022100a9bdd6ff53741c7557db81e254c3ccebe17bf1e9b67935c3730ed2ee19da5c4d02202bac698545d545549bc5d952bbe0bf2dadfc2cf2fe8e94bcacf34cc844213140[ALL] 02a3ca0c96b1ebe5da6b8dc91a43ef129aabfc541243cb745f31eb69367ec428c4"}, "vout": 0, "txid": "9bc5dd0da2cd05e83384920fad01e0ddaed3e5d986b31ae29ccf1c9cb912b91d"}], "txid": "a3474a003d7fa024c312b110c855489abe16973a8853726078a3032428188883", "blocktime": 1537876114, "version": 1, "confirmations": 11460, "time": 1537876114, "locktime": 0, "vsize": 224, "size": 224}