{"hash": "a347eb9818d4a21733622d55b3587cad7804ae1f17bec3142c56c4d16a8a20c9", "blockhash": "0000000000000000000baef3f32e3676a92c3b2e5da21b426e4f302fc371ce76", "vout": [{"scriptPubKey": {"reqSigs": 1, "hex": "76a914a520c86a08366941cd90d22e11ac1c7eefa2db3788ac", "addresses": ["1G47mSr3oANXMafVrR8UC4pzV7FEAzo3r9"], "asm": "OP_DUP OP_HASH160 a520c86a08366941cd90d22e11ac1c7eefa2db37 OP_EQUALVERIFY OP_CHECKSIG", "type": "pubkeyhash"}, "value": 0.4062234, "n": 0}, {"scriptPubKey": {"reqSigs": 1, "hex": "76a914271991039618953f5e3ac463884f3001d966dd1688ac", "addresses": ["14ZjysUUftg1yN94MJNg9RLmX7pHYMqqBU"], "asm": "OP_DUP OP_HASH160 271991039618953f5e3ac463884f3001d966dd16 OP_EQUALVERIFY OP_CHECKSIG", "type": "pubkeyhash"}, "value": 5.46e-06, "n": 1}, {"scriptPubKey": {"type": "nulldata", "hex": "6a146f6d6e69000000000000001f000000170cdc1e00", "asm": "OP_RETURN 6f6d6e69000000000000001f000000170cdc1e00"}, "value": 0.0, "n": 2}], "hex": "010000000105ac088c8b1477340b88b5a41bfa9018e7879398072fdc9f6ac41e317e254101020000006a47304402207795b2f63c043ee7b7871a74ba83b99c81f38950bdf3d98b2f72658f68327ee4022020c4aed79ac1c2bcdf3be3a938694749baea7c38b916fca3c083793b1580001e012103f3f44c9e80e2cedc1a2909631a3adea8866ee32187f74d0912387359b0ff36a2ffffffff0304d96b02000000001976a914a520c86a08366941cd90d22e11ac1c7eefa2db3788ac22020000000000001976a914271991039618953f5e3ac463884f3001d966dd1688ac0000000000000000166a146f6d6e69000000000000001f000000170cdc1e0000000000", "vin": [{"sequence": 4294967295, "scriptSig": {"hex": "47304402207795b2f63c043ee7b7871a74ba83b99c81f38950bdf3d98b2f72658f68327ee4022020c4aed79ac1c2bcdf3be3a938694749baea7c38b916fca3c083793b1580001e012103f3f44c9e80e2cedc1a2909631a3adea8866ee32187f74d0912387359b0ff36a2", "asm": "304402207795b2f63c043ee7b7871a74ba83b99c81f38950bdf3d98b2f72658f68327ee4022020c4aed79ac1c2bcdf3be3a938694749baea7c38b916fca3c083793b1580001e[ALL] 03f3f44c9e80e2cedc1a2909631a3adea8866ee32187f74d0912387359b0ff36a2"}, "vout": 2, "txid": "0141257e311ec46a9fdc2f07989387e71890fa1ba4b5880b3477148b8c08ac05"}], "txid": "a347eb9818d4a21733622d55b3587cad7804ae1f17bec3142c56c4d16a8a20c9", "blocktime": 1537876114, "version": 1, "confirmations": 11460, "time": 1537876114, "locktime": 0, "vsize": 256, "size": 256}