{"hash": "92cf4e19d67ec918820996837f5998e40a30fa5ac94cdef9d756a323eda6c97d", "blockhash": "0000000000000000000e13cef7c366c0283d82e591d1acd082e914b08063cdf1", "vout": [{"scriptPubKey": {"reqSigs": 1, "hex": "76a914e20958815ce09566b78f4da1b428438d2123d71b88ac", "addresses": ["1McAuhwqd3nbMgkHQBWUMhDun33Eo56397"], "asm": "OP_DUP OP_HASH160 e20958815ce09566b78f4da1b428438d2123d71b OP_EQUALVERIFY OP_CHECKSIG", "type": "pubkeyhash"}, "value": 0.00744318, "n": 0}], "hex": "01000000000101c4ac614ba45509b84721bc3e7b61bfd825fee2e0707b3ff3ad7837636d3dab970000000023220020ad18c8a0b1b7ad7189b32cf0e601088d2c0c6fbcc02fbef082ff9c2912fd3825fdffffff017e5b0b00000000001976a914e20958815ce09566b78f4da1b428438d2123d71b88ac0400483045022100c77b530e35382facfa7a3bd730ebc64536d23087653e923fddad61d683634bda0220181b810d00d1859dcb7bf541fc97b305c70ce526ab4799bb4a02fef02234499a01473044022052debd813f25842d1af31882100e089e629a50e3009814203129724df4b9b3b9022065398314d9e174f0009aac3a9564daafd7c671bb82df9a8c060f142ab941e86b01475221039e387966906cc284573288216a005a82164aa2d569ed3c48617052758333c44c210334fb33730ad319033f90cebcd81678f23d470929058148f8a8280f95c05cd8c752ae10490800", "vin": [{"txinwitness": ["", "3045022100c77b530e35382facfa7a3bd730ebc64536d23087653e923fddad61d683634bda0220181b810d00d1859dcb7bf541fc97b305c70ce526ab4799bb4a02fef02234499a01", "3044022052debd813f25842d1af31882100e089e629a50e3009814203129724df4b9b3b9022065398314d9e174f0009aac3a9564daafd7c671bb82df9a8c060f142ab941e86b01", "5221039e387966906cc284573288216a005a82164aa2d569ed3c48617052758333c44c210334fb33730ad319033f90cebcd81678f23d470929058148f8a8280f95c05cd8c752ae"], "sequence": 4294967293, "scriptSig": {"hex": "220020ad18c8a0b1b7ad7189b32cf0e601088d2c0c6fbcc02fbef082ff9c2912fd3825", "asm": "0020ad18c8a0b1b7ad7189b32cf0e601088d2c0c6fbcc02fbef082ff9c2912fd3825"}, "vout": 0, "txid": "97ab3d6d633778adf33f7b70e0e2fe25d8bf617b3ebc2147b80955a44b61acc4"}], "txid": "a34775b2f02c925ba316065c640400718840bbd16493cf15bbba4632b503e28f", "blocktime": 1537871767, "version": 1, "confirmations": 11491, "time": 1537871767, "locktime": 542992, "vsize": 176, "size": 341}