{"hash": "85368d23460b858ed3d9e46f09c19b0934169c11f3e64ff1ed3ae7b16bca9ed3", "blockhash": "0000000000000000001e0dab787dd257d1dbfcb92a98c2207d5e1078be1f4165", "vout": [{"scriptPubKey": {"reqSigs": 1, "hex": "76a914d7a6162529c0b2343b8e1dd0a2b9d5e977688c8e88ac", "addresses": ["1LfFF8u8NZkBiyVG2TKeHszVEgqnoKAdWW"], "asm": "OP_DUP OP_HASH160 d7a6162529c0b2343b8e1dd0a2b9d5e977688c8e OP_EQUALVERIFY OP_CHECKSIG", "type": "pubkeyhash"}, "value": 0.00035937, "n": 0}, {"scriptPubKey": {"reqSigs": 1, "hex": "a91408c364340a91e77e4376b26fdad3b5aedc5661f787", "addresses": ["32VMQ7Th4qGhbDYY68FZrfSF9hTbsPivgt"], "asm": "OP_HASH160 08c364340a91e77e4376b26fdad3b5aedc5661f7 OP_EQUAL", "type": "scripthash"}, "value": 0.03286802, "n": 1}], "hex": "01000000000101de86046a9d6e3b7803a5f3db3deddef226c11d29471448981d8a269c29babe95010000002322002027561ef61439ff4994ea3793249bbb358319edb59fff63c1eeada48f299e81b5ffffffff02618c0000000000001976a914d7a6162529c0b2343b8e1dd0a2b9d5e977688c8e88ac122732000000000017a91408c364340a91e77e4376b26fdad3b5aedc5661f7870400473044022023598ca5eab5a1d856ea3c9d8777e7b4a02da9feb7149b8841edee0ec91d0781022029385b2bffe18f60adc36c796da3efddc66ef897f99f534322c76e9e68b8aff101473044022047ef6f11e6a63d43ae9a43a1249a4b9f36b5df6220dcd91bd38f2afbcafe375e0220187d6946ae921db93b358b223bf54b6f83306b4b451bfac04077d7bc70edda5a0147522102f484437eae67e7d1f9cf7235bd52510c99f379408a1f6fe737011d4bc259358a2103871fc2ca08e6950b38867e8e6a0e94ee625223d3aa0df5c65f414c6d784467e252ae00000000", "vin": [{"txinwitness": ["", "3044022023598ca5eab5a1d856ea3c9d8777e7b4a02da9feb7149b8841edee0ec91d0781022029385b2bffe18f60adc36c796da3efddc66ef897f99f534322c76e9e68b8aff101", "3044022047ef6f11e6a63d43ae9a43a1249a4b9f36b5df6220dcd91bd38f2afbcafe375e0220187d6946ae921db93b358b223bf54b6f83306b4b451bfac04077d7bc70edda5a01", "522102f484437eae67e7d1f9cf7235bd52510c99f379408a1f6fe737011d4bc259358a2103871fc2ca08e6950b38867e8e6a0e94ee625223d3aa0df5c65f414c6d784467e252ae"], "sequence": 4294967295, "scriptSig": {"hex": "22002027561ef61439ff4994ea3793249bbb358319edb59fff63c1eeada48f299e81b5", "asm": "002027561ef61439ff4994ea3793249bbb358319edb59fff63c1eeada48f299e81b5"}, "vout": 1, "txid": "95beba299c268a1d98481447291dc126f2deed3ddbf3a503783b6e9d6a0486de"}], "txid": "a34ed7fd9ff3e7c3469261023f6495d0abc171fdb4f9a4b68aa0c94d07ec79bc", "blocktime": 1537872475, "version": 1, "confirmations": 11487, "time": 1537872475, "locktime": 0, "vsize": 207, "size": 372}