{"hash": "e5dd482bd89c69713930bc6475005345da2ea1a4602bab5222387e993b9a84d0", "blockhash": "0000000000000000000e13cef7c366c0283d82e591d1acd082e914b08063cdf1", "vout": [{"scriptPubKey": {"reqSigs": 1, "hex": "a9141a0b40d162795ea8550345340418f8411e54a83087", "addresses": ["344iyR9AiDHZKvHjHf5xUU6bz4UVCVAKF4"], "asm": "OP_HASH160 1a0b40d162795ea8550345340418f8411e54a830 OP_EQUAL", "type": "scripthash"}, "value": 0.15207506, "n": 0}, {"scriptPubKey": {"reqSigs": 1, "hex": "a914379136d20335de889d8cda1f3fa6e9c74e4cb05f87", "addresses": ["36kq3kSuz1jHkYN36ZRHEKfZ2seVNtyXrw"], "asm": "OP_HASH160 379136d20335de889d8cda1f3fa6e9c74e4cb05f OP_EQUAL", "type": "scripthash"}, "value": 0.00175241, "n": 1}], "hex": "02000000000101040661d9de6e3920a838fd376c19085a25ee2e108739f1127af2ce5a59ff73ee00000000171600148cde3706fbb821115f66a4b2dc1800e0d026ce54feffffff02520ce8000000000017a9141a0b40d162795ea8550345340418f8411e54a8308789ac02000000000017a914379136d20335de889d8cda1f3fa6e9c74e4cb05f8702483045022100adb99c454dfe1fb6bd4144299a1fb34e60466db55a6dead76f62ced27f1665e302206a34310ae2665144256bf95b4d5f7bc880ee8707aabe66ce33f55b7a48180929012102450ec54a047dd521ccb6e543100d3d84882536f96c8e0bb556fcfccb44c6a5f110490800", "vin": [{"txinwitness": ["3045022100adb99c454dfe1fb6bd4144299a1fb34e60466db55a6dead76f62ced27f1665e302206a34310ae2665144256bf95b4d5f7bc880ee8707aabe66ce33f55b7a4818092901", "02450ec54a047dd521ccb6e543100d3d84882536f96c8e0bb556fcfccb44c6a5f1"], "sequence": 4294967294, "scriptSig": {"hex": "1600148cde3706fbb821115f66a4b2dc1800e0d026ce54", "asm": "00148cde3706fbb821115f66a4b2dc1800e0d026ce54"}, "vout": 0, "txid": "ee73ff595acef27a12f13987102eee255a08196c37fd38a820396eded9610604"}], "txid": "a35090667353dd971232858fc589d3bc17c3c70f5a86032c59aa502bd3fe0735", "blocktime": 1537871767, "version": 2, "confirmations": 11492, "time": 1537871767, "locktime": 542992, "vsize": 166, "size": 248}