{"hash": "a3527864151e898e1a5f2f4b85588557247614726cdf5bdb40c967ec6f8552f2", "blockhash": "0000000000000000001e0dab787dd257d1dbfcb92a98c2207d5e1078be1f4165", "vout": [{"scriptPubKey": {"reqSigs": 1, "hex": "a914dc40419886e82412d0c5020d92093ceda3d283b187", "addresses": ["3MmbZM8M88rxGuZmjkpKjTpvWry9JUoB1s"], "asm": "OP_HASH160 dc40419886e82412d0c5020d92093ceda3d283b1 OP_EQUAL", "type": "scripthash"}, "value": 0.0032, "n": 0}, {"scriptPubKey": {"reqSigs": 1, "hex": "76a9140179ee0d1b72726e1854db0be2f8b5b1ac8874b888ac", "addresses": ["18ok2gLcGPMnb8qZjCRFoRstU8EgPJkC1"], "asm": "OP_DUP OP_HASH160 0179ee0d1b72726e1854db0be2f8b5b1ac8874b8 OP_EQUALVERIFY OP_CHECKSIG", "type": "pubkeyhash"}, "value": 0.00516993, "n": 1}], "hex": "010000000189d7bee6da078493b38d1d67f7d847e60376c5e6aec8c73b0029585b2a5bb2a6000000006b483045022100e56b90592e09edf2c8def0061a2494a105ac08176b0cbd700a015ae2b5921c51022027f4e782e4525c8cc50feb12b9940c0d0c2e7526b532eb40cc93e1a62e7aa7290121036b97451744c1fd2f0fae5bd070aeb9bbea9c58e66299be72c0bb3d0b6d312c09ffffffff0200e204000000000017a914dc40419886e82412d0c5020d92093ceda3d283b18781e30700000000001976a9140179ee0d1b72726e1854db0be2f8b5b1ac8874b888ac00000000", "vin": [{"sequence": 4294967295, "scriptSig": {"hex": "483045022100e56b90592e09edf2c8def0061a2494a105ac08176b0cbd700a015ae2b5921c51022027f4e782e4525c8cc50feb12b9940c0d0c2e7526b532eb40cc93e1a62e7aa7290121036b97451744c1fd2f0fae5bd070aeb9bbea9c58e66299be72c0bb3d0b6d312c09", "asm": "3045022100e56b90592e09edf2c8def0061a2494a105ac08176b0cbd700a015ae2b5921c51022027f4e782e4525c8cc50feb12b9940c0d0c2e7526b532eb40cc93e1a62e7aa729[ALL] 036b97451744c1fd2f0fae5bd070aeb9bbea9c58e66299be72c0bb3d0b6d312c09"}, "vout": 0, "txid": "a6b25b2a5b5829003bc7c8aee6c57603e647d8f7671d8db3938407dae6bed789"}], "txid": "a3527864151e898e1a5f2f4b85588557247614726cdf5bdb40c967ec6f8552f2", "blocktime": 1537872475, "version": 1, "confirmations": 11486, "time": 1537872475, "locktime": 0, "vsize": 224, "size": 224}