{"hash": "a355ccfb80f069cee7b1cd1bfd077b4356eaf97a7c789579472345681ad5c31a", "blockhash": "00000000000000000004ffacab907a6b429b9a5745fa0b75af4234bf69dd7176", "vout": [{"scriptPubKey": {"reqSigs": 1, "hex": "76a914b2ec86be148c591ca6d6ed268c22f6f5939d016388ac", "addresses": ["1HK4dHTyfs9tFbju9nA3w9WX4VFjDfYWZM"], "asm": "OP_DUP OP_HASH160 b2ec86be148c591ca6d6ed268c22f6f5939d0163 OP_EQUALVERIFY OP_CHECKSIG", "type": "pubkeyhash"}, "value": 0.86700081, "n": 0}, {"scriptPubKey": {"type": "nulldata", "hex": "6a146f6d6e69000000000000001f00000006c088e200", "asm": "OP_RETURN 6f6d6e69000000000000001f00000006c088e200"}, "value": 0.0, "n": 1}, {"scriptPubKey": {"reqSigs": 1, "hex": "76a914f3ac3b48978892ba1fadbc0f963994d183bd1e9088ac", "addresses": ["1PDRXUXGTa8u31vsUXnoiPuMMiQs1epBBC"], "asm": "OP_DUP OP_HASH160 f3ac3b48978892ba1fadbc0f963994d183bd1e90 OP_EQUALVERIFY OP_CHECKSIG", "type": "pubkeyhash"}, "value": 5.46e-06, "n": 2}], "hex": "01000000038e4a13bb1b539b6b5e3480e0fbe964c184ef67cefea5230cb26c70876b9480cc020000006b483045022100d4f5bb76e1f6c4b5fa4291d930a6368ec0714430fdd386954fd20c3cd0cc71e3022078030388c7198714594e99d38f0fb1e76f19c697df207af0f0d2eca45d420afa0121021302f3a783a3051cc1df90e9bc8615d07b9cfd77b92c4abca90b52d181be0b2bffffffff5f1fe4b4a1b5281391d847e0b88cefef0e12b274076edb715988a7d71d47a624020000006b483045022100890471e79b165884cd519cd7f01a743d84b04d2161ea5549573eb908e3b39932022035f4728f9a6b8346f8ed3f75ca0b505aca5583abc939f2e53964747d75312c3d0121021302f3a783a3051cc1df90e9bc8615d07b9cfd77b92c4abca90b52d181be0b2bffffffff5f1fe4b4a1b5281391d847e0b88cefef0e12b274076edb715988a7d71d47a624000000006b4830450221009cbaa22b3fca235c8d4e4eb2565d2e221d21052ae6136df0078687dd92f70c1102204ee6dcd44bf45f74225a49130e06b6cf471184c85abe8fd758c22ffd19ff525a0121025a2fab6fb38dc2318cfc50415da4adac7ae54c79b243270068766c793fccb062ffffffff0331f02a05000000001976a914b2ec86be148c591ca6d6ed268c22f6f5939d016388ac0000000000000000166a146f6d6e69000000000000001f00000006c088e20022020000000000001976a914f3ac3b48978892ba1fadbc0f963994d183bd1e9088ac00000000", "vin": [{"sequence": 4294967295, "scriptSig": {"hex": "483045022100d4f5bb76e1f6c4b5fa4291d930a6368ec0714430fdd386954fd20c3cd0cc71e3022078030388c7198714594e99d38f0fb1e76f19c697df207af0f0d2eca45d420afa0121021302f3a783a3051cc1df90e9bc8615d07b9cfd77b92c4abca90b52d181be0b2b", "asm": "3045022100d4f5bb76e1f6c4b5fa4291d930a6368ec0714430fdd386954fd20c3cd0cc71e3022078030388c7198714594e99d38f0fb1e76f19c697df207af0f0d2eca45d420afa[ALL] 021302f3a783a3051cc1df90e9bc8615d07b9cfd77b92c4abca90b52d181be0b2b"}, "vout": 2, "txid": "cc80946b87706cb20c23a5fece67ef84c164e9fbe080345e6b9b531bbb134a8e"}, {"sequence": 4294967295, "scriptSig": {"hex": "483045022100890471e79b165884cd519cd7f01a743d84b04d2161ea5549573eb908e3b39932022035f4728f9a6b8346f8ed3f75ca0b505aca5583abc939f2e53964747d75312c3d0121021302f3a783a3051cc1df90e9bc8615d07b9cfd77b92c4abca90b52d181be0b2b", "asm": "3045022100890471e79b165884cd519cd7f01a743d84b04d2161ea5549573eb908e3b39932022035f4728f9a6b8346f8ed3f75ca0b505aca5583abc939f2e53964747d75312c3d[ALL] 021302f3a783a3051cc1df90e9bc8615d07b9cfd77b92c4abca90b52d181be0b2b"}, "vout": 2, "txid": "24a6471dd7a7885971db6e0774b2120eefef8cb8e047d8911328b5a1b4e41f5f"}, {"sequence": 4294967295, "scriptSig": {"hex": "4830450221009cbaa22b3fca235c8d4e4eb2565d2e221d21052ae6136df0078687dd92f70c1102204ee6dcd44bf45f74225a49130e06b6cf471184c85abe8fd758c22ffd19ff525a0121025a2fab6fb38dc2318cfc50415da4adac7ae54c79b243270068766c793fccb062", "asm": "30450221009cbaa22b3fca235c8d4e4eb2565d2e221d21052ae6136df0078687dd92f70c1102204ee6dcd44bf45f74225a49130e06b6cf471184c85abe8fd758c22ffd19ff525a[ALL] 025a2fab6fb38dc2318cfc50415da4adac7ae54c79b243270068766c793fccb062"}, "vout": 0, "txid": "24a6471dd7a7885971db6e0774b2120eefef8cb8e047d8911328b5a1b4e41f5f"}], "txid": "a355ccfb80f069cee7b1cd1bfd077b4356eaf97a7c789579472345681ad5c31a", "blocktime": 1537875543, "version": 1, "confirmations": 11464, "time": 1537875543, "locktime": 0, "vsize": 553, "size": 553}