{"hash": "a3599a2dd61d55cf8f86915ccee5a8d3785a7390516e7fd73fa93ad703bb79f8", "blockhash": "0000000000000000001e0dab787dd257d1dbfcb92a98c2207d5e1078be1f4165", "vout": [{"scriptPubKey": {"reqSigs": 1, "hex": "a914ce6bb36f993b1854a2f42eac4b67338c2972468287", "addresses": ["3LWU9Fa8ELvP2bE4ynunecKfGubhZWVjBF"], "asm": "OP_HASH160 ce6bb36f993b1854a2f42eac4b67338c29724682 OP_EQUAL", "type": "scripthash"}, "value": 0.01453016, "n": 0}, {"scriptPubKey": {"reqSigs": 1, "hex": "76a914add994a5403d86ce996452f1f05df8e9ed7b58d088ac", "addresses": ["1GrEYxPg2gcBD1qaEtCmEModmBXLx1psUC"], "asm": "OP_DUP OP_HASH160 add994a5403d86ce996452f1f05df8e9ed7b58d0 OP_EQUALVERIFY OP_CHECKSIG", "type": "pubkeyhash"}, "value": 0.03145603, "n": 1}], "hex": "0100000001313928482181abbb0be21d88ce249b4b3c0c70d1d7bb848301b2a2948c920941010000006a4730440220688701b8cea11aa6f542f37f05543c866a59062223349d4990464e9bd4d773a7022033d837c770a902f4209ea6aa19adb61a706310196b2f063042374bc615dee3c90121033e969bb0e05dfa66dc583f8ad3b5ac8f0b1831790d881095d6cdf755479379d0ffffffff02d82b16000000000017a914ce6bb36f993b1854a2f42eac4b67338c297246828783ff2f00000000001976a914add994a5403d86ce996452f1f05df8e9ed7b58d088ac00000000", "vin": [{"sequence": 4294967295, "scriptSig": {"hex": "4730440220688701b8cea11aa6f542f37f05543c866a59062223349d4990464e9bd4d773a7022033d837c770a902f4209ea6aa19adb61a706310196b2f063042374bc615dee3c90121033e969bb0e05dfa66dc583f8ad3b5ac8f0b1831790d881095d6cdf755479379d0", "asm": "30440220688701b8cea11aa6f542f37f05543c866a59062223349d4990464e9bd4d773a7022033d837c770a902f4209ea6aa19adb61a706310196b2f063042374bc615dee3c9[ALL] 033e969bb0e05dfa66dc583f8ad3b5ac8f0b1831790d881095d6cdf755479379d0"}, "vout": 1, "txid": "4109928c94a2b2018384bbd7d1700c3c4b9b24ce881de20bbbab812148283931"}], "txid": "a3599a2dd61d55cf8f86915ccee5a8d3785a7390516e7fd73fa93ad703bb79f8", "blocktime": 1537872475, "version": 1, "confirmations": 11487, "time": 1537872475, "locktime": 0, "vsize": 223, "size": 223}