{"hash": "a35c9d13e31671d96aca8720a13570913b6178ac39bef41d5b3896c5b8ef1ac5", "blockhash": "00000000000000000024a2167bbff67b0be802c0b01cdd79e6331c2be6459f87", "vout": [{"scriptPubKey": {"reqSigs": 1, "hex": "76a9141d597ab24a57b61813ec20b90e1da3a0661636cd88ac", "addresses": ["13gBnhB6wyNpLjZBGqAx6XHvWkoPCbs7eE"], "asm": "OP_DUP OP_HASH160 1d597ab24a57b61813ec20b90e1da3a0661636cd OP_EQUALVERIFY OP_CHECKSIG", "type": "pubkeyhash"}, "value": 0.00935081, "n": 0}, {"scriptPubKey": {"reqSigs": 1, "hex": "76a9143ccd1d0caa9deade709f9acfc26aca71d56892a888ac", "addresses": ["16YVG3Ycn9Ssgp8i1xmtKhzNLJYQ5BpD5C"], "asm": "OP_DUP OP_HASH160 3ccd1d0caa9deade709f9acfc26aca71d56892a8 OP_EQUALVERIFY OP_CHECKSIG", "type": "pubkeyhash"}, "value": 0.02040607, "n": 1}], "hex": "0100000001d50445112bbe58e25b27246313bf8d6362825d2b4eeff8dadc2b2dfe4d030bae000000006a473044022008040e585aff666570d0bac48387d38a2b2efb090f26f84f8457b1780fbb6e0b0220553b1f0dde5f8e00515c5810fdf678dfece0cc0c23081af8a8b2ced56a15e625012103a49fa94640d633848b5bc9027df51386894e0dc58ca5e59280cde5b7d42cdafcffffffff02a9440e00000000001976a9141d597ab24a57b61813ec20b90e1da3a0661636cd88ac1f231f00000000001976a9143ccd1d0caa9deade709f9acfc26aca71d56892a888ac00000000", "vin": [{"sequence": 4294967295, "scriptSig": {"hex": "473044022008040e585aff666570d0bac48387d38a2b2efb090f26f84f8457b1780fbb6e0b0220553b1f0dde5f8e00515c5810fdf678dfece0cc0c23081af8a8b2ced56a15e625012103a49fa94640d633848b5bc9027df51386894e0dc58ca5e59280cde5b7d42cdafc", "asm": "3044022008040e585aff666570d0bac48387d38a2b2efb090f26f84f8457b1780fbb6e0b0220553b1f0dde5f8e00515c5810fdf678dfece0cc0c23081af8a8b2ced56a15e625[ALL] 03a49fa94640d633848b5bc9027df51386894e0dc58ca5e59280cde5b7d42cdafc"}, "vout": 0, "txid": "ae0b034dfe2d2bdcdaf8ef4e2b5d8262638dbf136324275be258be2b114504d5"}], "txid": "a35c9d13e31671d96aca8720a13570913b6178ac39bef41d5b3896c5b8ef1ac5", "blocktime": 1537870564, "version": 1, "confirmations": 11515, "time": 1537870564, "locktime": 0, "vsize": 225, "size": 225}