{"hash": "2e6c1cedd3bba240ccc9554256f2f6579f8ead79c5213cf212c222a52cf1895a", "blockhash": "00000000000000000024a2167bbff67b0be802c0b01cdd79e6331c2be6459f87", "vout": [{"scriptPubKey": {"reqSigs": 1, "hex": "76a9142d2c1203b4bd54c25cd940667f8a875bb1f1fcac88ac", "addresses": ["157rChKxp6xmuExYwQU3HNKKFypsFwq974"], "asm": "OP_DUP OP_HASH160 2d2c1203b4bd54c25cd940667f8a875bb1f1fcac OP_EQUALVERIFY OP_CHECKSIG", "type": "pubkeyhash"}, "value": 0.0154292, "n": 0}, {"scriptPubKey": {"reqSigs": 1, "hex": "a9149d6a7027e70f36748a1bd94821fd9c27e269c07887", "addresses": ["3G3MX7NG2w9Zww31hLSyxWBGLGog3xcgkw"], "asm": "OP_HASH160 9d6a7027e70f36748a1bd94821fd9c27e269c078 OP_EQUAL", "type": "scripthash"}, "value": 0.0005, "n": 1}, {"scriptPubKey": {"reqSigs": 1, "hex": "a9141988a27e3c2df4ddee7fad5a2303d086179b2a3087", "addresses": ["3422VtS7UtCvXYxoXMVp6eZupR252z85oC"], "asm": "OP_HASH160 1988a27e3c2df4ddee7fad5a2303d086179b2a30 OP_EQUAL", "type": "scripthash"}, "value": 1.05168543, "n": 2}], "hex": "01000000000101d0ab7dd2b3b77d76a920012150af936c6075b50329ec13dce0f9cff8c7adebab020000002322002065d416c48a8072e0ac51c2d111eb194f009caef0332446c1bf2097316cf07fa9ffffffff03088b1700000000001976a9142d2c1203b4bd54c25cd940667f8a875bb1f1fcac88ac50c300000000000017a9149d6a7027e70f36748a1bd94821fd9c27e269c078879fbe44060000000017a9141988a27e3c2df4ddee7fad5a2303d086179b2a3087040047304402200f26f18b12dececdac313721e487873b9f7e5a3cce18fd6d469e0d78503a9e250220380d97db352349f48c2197d88f069df85c88cc6b894bd7a04ab32139eca369c601473044022075e02ff0561b6e464bda82953f2c3d1ada7c3bdf2a3b40164df4246d71c549c502206468ee3a6bab83c0621e89d00672337699609654eeeefe26747b61d0c2a550da0169522102f44abcf9e23c9a460da309ccca56c619c04eed3bde2c2cff5e7d78fbcd980b9c2103c9443cf3047bb6c2c82f1b0c44c36109cdc3d0d601d16d1189a1602bf8d1a0a02103bfe867059274412412e088af5572b92168c2ef495cfe6c9b7a753a009eb37c4853ae00000000", "vin": [{"txinwitness": ["", "304402200f26f18b12dececdac313721e487873b9f7e5a3cce18fd6d469e0d78503a9e250220380d97db352349f48c2197d88f069df85c88cc6b894bd7a04ab32139eca369c601", "3044022075e02ff0561b6e464bda82953f2c3d1ada7c3bdf2a3b40164df4246d71c549c502206468ee3a6bab83c0621e89d00672337699609654eeeefe26747b61d0c2a550da01", "522102f44abcf9e23c9a460da309ccca56c619c04eed3bde2c2cff5e7d78fbcd980b9c2103c9443cf3047bb6c2c82f1b0c44c36109cdc3d0d601d16d1189a1602bf8d1a0a02103bfe867059274412412e088af5572b92168c2ef495cfe6c9b7a753a009eb37c4853ae"], "sequence": 4294967295, "scriptSig": {"hex": "22002065d416c48a8072e0ac51c2d111eb194f009caef0332446c1bf2097316cf07fa9", "asm": "002065d416c48a8072e0ac51c2d111eb194f009caef0332446c1bf2097316cf07fa9"}, "vout": 2, "txid": "abebadc7f8cff9e0dc13ec2903b575606c93af50210120a9767db7b3d27dabd0"}], "txid": "a36481ce6fb851a7d2b03baa11af6e2ea7725b94ff45cc197568128ca5fc7e1c", "blocktime": 1537870564, "version": 1, "confirmations": 11515, "time": 1537870564, "locktime": 0, "vsize": 248, "size": 438}