{"hash": "4393be7b94d018a19cf129377918cb1888da22ed8df4c5852cd9494678d4e31b", "blockhash": "0000000000000000001e0dab787dd257d1dbfcb92a98c2207d5e1078be1f4165", "vout": [{"scriptPubKey": {"reqSigs": 1, "hex": "a914bd038b58b965f4a464e9e64bb7450056c99ad6ac87", "addresses": ["3JvRt4e3an48LjKT5NuMEkFL5inLCt4FVf"], "asm": "OP_HASH160 bd038b58b965f4a464e9e64bb7450056c99ad6ac OP_EQUAL", "type": "scripthash"}, "value": 0.00602209, "n": 0}, {"scriptPubKey": {"reqSigs": 1, "hex": "00141c4b69c48946ad83560fa1a45a8b174da2f76e14", "addresses": ["bc1qr39kn3yfg6kcx4s05xj94zchfk30wms5wmqe56"], "asm": "0 1c4b69c48946ad83560fa1a45a8b174da2f76e14", "type": "witness_v0_keyhash"}, "value": 6.398e-05, "n": 1}], "hex": "01000000000101c16ee77bd0e19802018bcdbb1ff2440fa2de087bfc9e2baa1be37bcdf765a4390000000017160014bdf9546be25dfd11b70777b7c12d621075205920ffffffff02613009000000000017a914bd038b58b965f4a464e9e64bb7450056c99ad6ac87fe180000000000001600141c4b69c48946ad83560fa1a45a8b174da2f76e1402483045022100e5322740e86ed628d31bf202d689899b3063696d710fb096ef74fe824ca162dd02200aae5f5137fb1fbe49b9c3b9d3e51fafcfdf209a3ef5c8ae5e74c9b1cab0afc1012102b1b27a14c0561d83236a688259a8d264d05e1b3feb7cb00999f5122ee966289800000000", "vin": [{"txinwitness": ["3045022100e5322740e86ed628d31bf202d689899b3063696d710fb096ef74fe824ca162dd02200aae5f5137fb1fbe49b9c3b9d3e51fafcfdf209a3ef5c8ae5e74c9b1cab0afc101", "02b1b27a14c0561d83236a688259a8d264d05e1b3feb7cb00999f5122ee9662898"], "sequence": 4294967295, "scriptSig": {"hex": "160014bdf9546be25dfd11b70777b7c12d621075205920", "asm": "0014bdf9546be25dfd11b70777b7c12d621075205920"}, "vout": 0, "txid": "39a465f7cd7be31baa2b9efc7b08dea20f44f21fbbcd8b010298e1d07be76ec1"}], "txid": "a365ffadbbe8de1d69d4fd66ec83d5db39f6bdffb5882e4384fc7742274c14d3", "blocktime": 1537872475, "version": 1, "confirmations": 11486, "time": 1537872475, "locktime": 0, "vsize": 165, "size": 247}