{"hash": "aff07edee1091f7b14a2e5781ecab08442277db7b896ff797af72d114983f4ab", "blockhash": "0000000000000000001f0ddff1eddb255c1121bcd4da4f1bc9a0da00cae72433", "vout": [{"scriptPubKey": {"reqSigs": 1, "hex": "0014b94e7fbf529e98d0454baa858226e75967683db1", "addresses": ["bc1qh988l06jn6vdq32t42zcyfh8t9nks0d3g4es54"], "asm": "0 b94e7fbf529e98d0454baa858226e75967683db1", "type": "witness_v0_keyhash"}, "value": 0.00116132, "n": 0}, {"scriptPubKey": {"reqSigs": 1, "hex": "76a914a25b4946eacf28980c7b1449cbca3bfa6d6cb9f788ac", "addresses": ["1FoTpkpibE3osN3QyDhwa6wi9ikhgLEwm3"], "asm": "OP_DUP OP_HASH160 a25b4946eacf28980c7b1449cbca3bfa6d6cb9f7 OP_EQUALVERIFY OP_CHECKSIG", "type": "pubkeyhash"}, "value": 0.0185328, "n": 1}], "hex": "010000000001014749b0ee75a52820ca24e5e071a1e30cb6e52e94f89b69881f20716f0e72b8ba0100000017160014958f538c447b9bb0d92ca5d344390ebfe3b91909ffffffff02a4c5010000000000160014b94e7fbf529e98d0454baa858226e75967683db160471c00000000001976a914a25b4946eacf28980c7b1449cbca3bfa6d6cb9f788ac0247304402204657df85b647d1027ec6ef46c9b2fbb0c495947fe5cc82d83314ea0e857b7bcc0220535e94e762095352eb07c19055c70b61ed7239237bd7b7e9f97cd1b001bfab020121020ddb8ba99f715bb6c019aa8b38cbe8b09c0ba233e7af7333d3be01b5fa56042e00000000", "vin": [{"txinwitness": ["304402204657df85b647d1027ec6ef46c9b2fbb0c495947fe5cc82d83314ea0e857b7bcc0220535e94e762095352eb07c19055c70b61ed7239237bd7b7e9f97cd1b001bfab0201", "020ddb8ba99f715bb6c019aa8b38cbe8b09c0ba233e7af7333d3be01b5fa56042e"], "sequence": 4294967295, "scriptSig": {"hex": "160014958f538c447b9bb0d92ca5d344390ebfe3b91909", "asm": "0014958f538c447b9bb0d92ca5d344390ebfe3b91909"}, "vout": 1, "txid": "bab8720e6f71201f88699bf8942ee5b60ce3a171e0e524ca2028a575eeb04947"}], "txid": "a36b65fd2324e36600f62e7d899891152a9f78c8b07e1accf287071063701168", "blocktime": 1537872018, "version": 1, "confirmations": 11489, "time": 1537872018, "locktime": 0, "vsize": 167, "size": 248}