{"hash": "718528e3d09eb5f52f84f2236147fffee6562a9459cd92b40b8cfb556c99f58f", "blockhash": "000000000000000000022b45ed06c6f4ccd3cf7fb5ba4856ebd2e58215665228", "vout": [{"scriptPubKey": {"reqSigs": 1, "hex": "76a9145c4648dc2fc0b0a0f86c0ce10223fcd6ca79bd2788ac", "addresses": ["19QuN7JfTvKWG2dqMMf3rRc7hNu2F2Mk7n"], "asm": "OP_DUP OP_HASH160 5c4648dc2fc0b0a0f86c0ce10223fcd6ca79bd27 OP_EQUALVERIFY OP_CHECKSIG", "type": "pubkeyhash"}, "value": 0.00678, "n": 0}, {"scriptPubKey": {"reqSigs": 1, "hex": "a914623bc71aae031839add7304b814c43bfc2e9051487", "addresses": ["3AeRkmrFg14XjcZxLiKsxWCsmmwrcjXezc"], "asm": "OP_HASH160 623bc71aae031839add7304b814c43bfc2e90514 OP_EQUAL", "type": "scripthash"}, "value": 0.01600576, "n": 1}], "hex": "01000000000101c82dfb273b342ec74f6ae6f8bddc5e0bc18ad6219bb15d62597c902aa54314cd01000000232200208b29cdff4436c9fd09e2bb3722ba65a440fbfc66964301c4902832d27a4f2b12ffffffff0270580a00000000001976a9145c4648dc2fc0b0a0f86c0ce10223fcd6ca79bd2788ac406c18000000000017a914623bc71aae031839add7304b814c43bfc2e90514870400483045022100e3641a8c65164795c708ff00a4aae5b583ec898490711429d70e6f3f8509c37002207082f8160c8d7583ebdb0907c89a7ed1d00864553df8e9fef4bd665a5b65e610014830450221009ce9d15560414dbed27bb6f2070fbada19c50230c46b438d196d97c6e2d497eb02206a8e03017b2a569561040ccdb5ccb6bd145958eb204cd2bf5e7f74a2402e2fb101475221036b4dd4bc8657eba03286a3a3f74fb599cc514153059dbb023dfb32b0268d8daf21032f41ceae151fd1826ff863e0017da5158aa4c8f6dc701d11b13794695089210b52ae00000000", "vin": [{"txinwitness": ["", "3045022100e3641a8c65164795c708ff00a4aae5b583ec898490711429d70e6f3f8509c37002207082f8160c8d7583ebdb0907c89a7ed1d00864553df8e9fef4bd665a5b65e61001", "30450221009ce9d15560414dbed27bb6f2070fbada19c50230c46b438d196d97c6e2d497eb02206a8e03017b2a569561040ccdb5ccb6bd145958eb204cd2bf5e7f74a2402e2fb101", "5221036b4dd4bc8657eba03286a3a3f74fb599cc514153059dbb023dfb32b0268d8daf21032f41ceae151fd1826ff863e0017da5158aa4c8f6dc701d11b13794695089210b52ae"], "sequence": 4294967295, "scriptSig": {"hex": "2200208b29cdff4436c9fd09e2bb3722ba65a440fbfc66964301c4902832d27a4f2b12", "asm": "00208b29cdff4436c9fd09e2bb3722ba65a440fbfc66964301c4902832d27a4f2b12"}, "vout": 1, "txid": "cd1443a52a907c59625db19b21d68ac10b5edcbdf8e66a4fc72e343b27fb2dc8"}], "txid": "a36dbaaaff77a2c872060e8db28ab16b1a7dc16841f91c214c7accc7947a9675", "blocktime": 1537869901, "version": 1, "confirmations": 11524, "time": 1537869901, "locktime": 0, "vsize": 208, "size": 374}