{"hash": "a36f3a6ce1dfe04785ee6aa31f5efc90005500bfba32b97c6859b05f77c6d0c6", "blockhash": "0000000000000000000e13cef7c366c0283d82e591d1acd082e914b08063cdf1", "vout": [{"scriptPubKey": {"reqSigs": 1, "hex": "76a9146da1e838d28cd27c9b05ec958de2cfd42778dc6e88ac", "addresses": ["1AzgcQy68WTCY6C5DwK1P5A6UZxZwbiB7b"], "asm": "OP_DUP OP_HASH160 6da1e838d28cd27c9b05ec958de2cfd42778dc6e OP_EQUALVERIFY OP_CHECKSIG", "type": "pubkeyhash"}, "value": 0.00048322, "n": 0}], "hex": "0100000001b50ff00a990bf1fb605f4c75d1dec5dec2733952799bae04eb6368eb4aece746000000006b483045022100b1904523ea70b3ec4149c86821c4e6af8d967280957cdb635682dc9947475fa002202dc16eede289d424f51019454d90e633c40bd1ea5877346598e0e262f5113dde01210287f82b21456391076b927a8fe406a5d116990de40d86abdb3defd1eeb25622fdffffffff01c2bc0000000000001976a9146da1e838d28cd27c9b05ec958de2cfd42778dc6e88ac00000000", "vin": [{"sequence": 4294967295, "scriptSig": {"hex": "483045022100b1904523ea70b3ec4149c86821c4e6af8d967280957cdb635682dc9947475fa002202dc16eede289d424f51019454d90e633c40bd1ea5877346598e0e262f5113dde01210287f82b21456391076b927a8fe406a5d116990de40d86abdb3defd1eeb25622fd", "asm": "3045022100b1904523ea70b3ec4149c86821c4e6af8d967280957cdb635682dc9947475fa002202dc16eede289d424f51019454d90e633c40bd1ea5877346598e0e262f5113dde[ALL] 0287f82b21456391076b927a8fe406a5d116990de40d86abdb3defd1eeb25622fd"}, "vout": 0, "txid": "46e7ec4aeb6863eb04ae9b79523973c2dec5ded1754c5f60fbf10b990af00fb5"}], "txid": "a36f3a6ce1dfe04785ee6aa31f5efc90005500bfba32b97c6859b05f77c6d0c6", "blocktime": 1537871767, "version": 1, "confirmations": 11495, "time": 1537871767, "locktime": 0, "vsize": 192, "size": 192}