{"hash": "bed7e3fe33feae88e44c95f9df26111ff5acf258aa83662f2c1dbfa5c66a30c1", "blockhash": "00000000000000000017f5eb5941039fbcee6240d03bc1f2f8e35350df66a1d8", "vout": [{"scriptPubKey": {"reqSigs": 1, "hex": "a91449a454b6fb4bc1209e09993908af4e2dc84284b687", "addresses": ["38QQ7TcZKchjR4HB95kPYnqQcxATKbkbSZ"], "asm": "OP_HASH160 49a454b6fb4bc1209e09993908af4e2dc84284b6 OP_EQUAL", "type": "scripthash"}, "value": 0.075, "n": 0}, {"scriptPubKey": {"reqSigs": 1, "hex": "a9149fabae78f0f80311f427b26c7ca4955f678cfa4e87", "addresses": ["3GFH2gnidm4N2apQtgTYNkwzBUK9F4ZLex"], "asm": "OP_HASH160 9fabae78f0f80311f427b26c7ca4955f678cfa4e OP_EQUAL", "type": "scripthash"}, "value": 0.04158421, "n": 1}], "hex": "010000000001015290e5deefef316cf7a74b1b807167564e4038daa17aca6a444836118fd6219901000000171600147f51fa65e0f827dedefc565eca5b485327c2fc44ffffff0002e07072000000000017a91449a454b6fb4bc1209e09993908af4e2dc84284b687d5733f000000000017a9149fabae78f0f80311f427b26c7ca4955f678cfa4e870247304402202653e39c9cb9a11f9543739d0b813eef8fd3940e4ca72c69e3fd74a1e9a163f1022054c7608d52952e458b3cbdb365ee12a8c9b00a9cbe778e82e22f2fabc889465301210204912fffa8fdd14133e099ba5958f08b2c42457206a669fe1bf9e9d84537f4cb00000000", "vin": [{"txinwitness": ["304402202653e39c9cb9a11f9543739d0b813eef8fd3940e4ca72c69e3fd74a1e9a163f1022054c7608d52952e458b3cbdb365ee12a8c9b00a9cbe778e82e22f2fabc889465301", "0204912fffa8fdd14133e099ba5958f08b2c42457206a669fe1bf9e9d84537f4cb"], "sequence": 16777215, "scriptSig": {"hex": "1600147f51fa65e0f827dedefc565eca5b485327c2fc44", "asm": "00147f51fa65e0f827dedefc565eca5b485327c2fc44"}, "vout": 1, "txid": "9921d68f113648446aca7aa1da38404e566771801b4ba7f76c31efefdee59052"}], "txid": "a37743c20a679ae0a5b8eaf3cd7148c8269c660c1ce8d445ebb63a038153f8b0", "blocktime": 1537874412, "version": 1, "confirmations": 11466, "time": 1537874412, "locktime": 0, "vsize": 166, "size": 247}