{"hash": "b59e810a119d162fb3d10358f79b0d8f86106fc54f7276ba764d020aae509fc1", "blockhash": "0000000000000000001cda96e906b7601b7a6fb1a3b62bca570a9e5d8f4b3de1", "vout": [{"scriptPubKey": {"reqSigs": 1, "hex": "76a914a09486cb1429a99c5014020e7164355c710b637388ac", "addresses": ["1Fe53VrfjgvdZk8g9aD2gLqJJ8zcTvESQE"], "asm": "OP_DUP OP_HASH160 a09486cb1429a99c5014020e7164355c710b6373 OP_EQUALVERIFY OP_CHECKSIG", "type": "pubkeyhash"}, "value": 0.006256, "n": 0}, {"scriptPubKey": {"reqSigs": 1, "hex": "a9142dd6556dba61797a6a5a7ffe5232ea552679e8e987", "addresses": ["35sP6LrKK2zTDvHiAZaPH2vvdUy9Hc4P7E"], "asm": "OP_HASH160 2dd6556dba61797a6a5a7ffe5232ea552679e8e9 OP_EQUAL", "type": "scripthash"}, "value": 0.00219317, "n": 1}], "hex": "01000000000101ecaf3856b5ee41f5138644d150d3bcde10872c1b607ebd4b67d4f472e04966cb0200000023220020470a6aa33e1edcaebee9455c4c7699df29afd185c124f1313c788fd9b8ccef9bffffffff02c08b0900000000001976a914a09486cb1429a99c5014020e7164355c710b637388acb55803000000000017a9142dd6556dba61797a6a5a7ffe5232ea552679e8e9870400483045022100c02b6ca10973b00c57e54e8c5550b4af1d8a8bcb098d98bb51cb7a16091c9d140220727b7f7ec6b1e14d1800cc838d422a6f7e1f0a90c4e956530a979fa100716bba01473044022031fbad61f0a5d1fa4edbd25b4e1939110511ff85cf118c9a4ad65c2d4a6a94ef02201a3e399f2ddf82c64c3b833fea77ad6763b57e441cbe8b2c9ee9e29e831a12cd01695221035acbc2c4fcb9b02c6e3f555cd27a6d677eddaaae03ba6e05107aac1ac51e3fbc21026ce82ba10c54f19ae24e7ec3d63cf353084053b8fdc37b3e0c575908f01560ae2102ab37d1cfa6bef5a51414d8cc57f113c0bf32d37b41ebadfeb8303a42a4a5ff8253ae00000000", "vin": [{"txinwitness": ["", "3045022100c02b6ca10973b00c57e54e8c5550b4af1d8a8bcb098d98bb51cb7a16091c9d140220727b7f7ec6b1e14d1800cc838d422a6f7e1f0a90c4e956530a979fa100716bba01", "3044022031fbad61f0a5d1fa4edbd25b4e1939110511ff85cf118c9a4ad65c2d4a6a94ef02201a3e399f2ddf82c64c3b833fea77ad6763b57e441cbe8b2c9ee9e29e831a12cd01", "5221035acbc2c4fcb9b02c6e3f555cd27a6d677eddaaae03ba6e05107aac1ac51e3fbc21026ce82ba10c54f19ae24e7ec3d63cf353084053b8fdc37b3e0c575908f01560ae2102ab37d1cfa6bef5a51414d8cc57f113c0bf32d37b41ebadfeb8303a42a4a5ff8253ae"], "sequence": 4294967295, "scriptSig": {"hex": "220020470a6aa33e1edcaebee9455c4c7699df29afd185c124f1313c788fd9b8ccef9b", "asm": "0020470a6aa33e1edcaebee9455c4c7699df29afd185c124f1313c788fd9b8ccef9b"}, "vout": 2, "txid": "cb6649e072f4d4674bbd7e601b2c8710debcd350d1448613f541eeb55638afec"}], "txid": "a37ca0c6a30f11b887f6b511b9c70d163bcf4b0e567e925ff713c047e9e6ddbe", "blocktime": 1537873282, "version": 1, "confirmations": 11485, "time": 1537873282, "locktime": 0, "vsize": 216, "size": 407}