{"hash": "a387fc4ecbf11e3b211b93cc609349f902837cc0ce1746ab851507549f24e036", "blockhash": "0000000000000000000e13cef7c366c0283d82e591d1acd082e914b08063cdf1", "vout": [{"scriptPubKey": {"reqSigs": 1, "hex": "a914e7219a9df19ed27e07b920951bf2b7950c79343e87", "addresses": ["3Nm8GheBZvYp7CnCkxv6w5HqM1PeAwksuX"], "asm": "OP_HASH160 e7219a9df19ed27e07b920951bf2b7950c79343e OP_EQUAL", "type": "scripthash"}, "value": 0.034, "n": 0}, {"scriptPubKey": {"reqSigs": 1, "hex": "76a914b2183ea37c236bafb3fab1298a7b652c841ca9ea88ac", "addresses": ["1HEgKhMsDzzvAwPzqu1FDRAVqfJMvPqRJD"], "asm": "OP_DUP OP_HASH160 b2183ea37c236bafb3fab1298a7b652c841ca9ea OP_EQUALVERIFY OP_CHECKSIG", "type": "pubkeyhash"}, "value": 0.89804598, "n": 1}], "hex": "0100000001cb812a2ae86daf5aa6114faa8141709205305aed48f6018d241d1be491a8ccee010000006b483045022100ca119015347f23471b92b5f1c094a498870559064e063db40b57942c91e73cd4022078aa46a482117a303f0fc3fc97f2e671f4e73dbb00c4b0b077dbc475e60ef3c90121036ddd78403eb0d895650ab6797b049d0a0b62c4ecb592b1120d0c5983477bb936ffffffff0240e133000000000017a914e7219a9df19ed27e07b920951bf2b7950c79343e87364f5a05000000001976a914b2183ea37c236bafb3fab1298a7b652c841ca9ea88ac00000000", "vin": [{"sequence": 4294967295, "scriptSig": {"hex": "483045022100ca119015347f23471b92b5f1c094a498870559064e063db40b57942c91e73cd4022078aa46a482117a303f0fc3fc97f2e671f4e73dbb00c4b0b077dbc475e60ef3c90121036ddd78403eb0d895650ab6797b049d0a0b62c4ecb592b1120d0c5983477bb936", "asm": "3045022100ca119015347f23471b92b5f1c094a498870559064e063db40b57942c91e73cd4022078aa46a482117a303f0fc3fc97f2e671f4e73dbb00c4b0b077dbc475e60ef3c9[ALL] 036ddd78403eb0d895650ab6797b049d0a0b62c4ecb592b1120d0c5983477bb936"}, "vout": 1, "txid": "eecca891e41b1d248d01f648ed5a300592704181aa4f11a65aaf6de82a2a81cb"}], "txid": "a387fc4ecbf11e3b211b93cc609349f902837cc0ce1746ab851507549f24e036", "blocktime": 1537871767, "version": 1, "confirmations": 11493, "time": 1537871767, "locktime": 0, "vsize": 224, "size": 224}