{"hash": "a388e3cb704badab1e612149e748c7260539434406adc3b336a3899f3a84fb8a", "blockhash": "0000000000000000000dcc0f55137456b1a82d3642486a52398922ac4d620174", "vout": [{"scriptPubKey": {"reqSigs": 1, "hex": "76a914f503c23627e9766412e36aa0dc7e73a204010a1b88ac", "addresses": ["1PLX49tZcYJ19XNXpuGQX3hksdrFUaCMaU"], "asm": "OP_DUP OP_HASH160 f503c23627e9766412e36aa0dc7e73a204010a1b OP_EQUALVERIFY OP_CHECKSIG", "type": "pubkeyhash"}, "value": 0.11780385, "n": 0}, {"scriptPubKey": {"reqSigs": 1, "hex": "76a914456767db04b6acd4bbeb03603ec31e1f3340090e88ac", "addresses": ["17KyVzP16rmmeDcEHMA9oLJRDSTe9voQim"], "asm": "OP_DUP OP_HASH160 456767db04b6acd4bbeb03603ec31e1f3340090e OP_EQUALVERIFY OP_CHECKSIG", "type": "pubkeyhash"}, "value": 0.83517344, "n": 1}], "hex": "0100000001355660b6624255b1f4d6700a5db03435dca4a92c19b958e6a736ef1a14d9b4df010000006a4730440220720e3f14f14956cdeafe77034eb76126ca95350becc4f65660141660d278b36502204e699b114f8b7c04d967f4e29cf3bb677d9730ddb2743c8a7556d8138688511c012102602a968c2ec4766d47a077a53bd10a2f27daeb120689db5bbb8231615f0d781bffffffff0221c1b300000000001976a914f503c23627e9766412e36aa0dc7e73a204010a1b88aca05ffa04000000001976a914456767db04b6acd4bbeb03603ec31e1f3340090e88ac00000000", "vin": [{"sequence": 4294967295, "scriptSig": {"hex": "4730440220720e3f14f14956cdeafe77034eb76126ca95350becc4f65660141660d278b36502204e699b114f8b7c04d967f4e29cf3bb677d9730ddb2743c8a7556d8138688511c012102602a968c2ec4766d47a077a53bd10a2f27daeb120689db5bbb8231615f0d781b", "asm": "30440220720e3f14f14956cdeafe77034eb76126ca95350becc4f65660141660d278b36502204e699b114f8b7c04d967f4e29cf3bb677d9730ddb2743c8a7556d8138688511c[ALL] 02602a968c2ec4766d47a077a53bd10a2f27daeb120689db5bbb8231615f0d781b"}, "vout": 1, "txid": "dfb4d9141aef36a7e658b9192ca9a4dc3534b05d0a70d6f4b1554262b6605635"}], "txid": "a388e3cb704badab1e612149e748c7260539434406adc3b336a3899f3a84fb8a", "blocktime": 1537870268, "version": 1, "confirmations": 11518, "time": 1537870268, "locktime": 0, "vsize": 225, "size": 225}