{"hash": "a388bc3fa145ca30d5f880285d5996c4e17c3914dd8a68b5760d5c9b585fc450", "blockhash": "0000000000000000001e0dab787dd257d1dbfcb92a98c2207d5e1078be1f4165", "vout": [{"scriptPubKey": {"type": "nulldata", "hex": "6a4c50000077ac0001822e42dd8bd1a4fd87de89c8af6c953dd567cf27e7e3ef3236678a625097a1e44d6c54af0dabd960e864e2dc6a695baa10a50612e85f7aeb84a5bc9a9526289ac0f6612cd74e33776ee4", "asm": "OP_RETURN 000077ac0001822e42dd8bd1a4fd87de89c8af6c953dd567cf27e7e3ef3236678a625097a1e44d6c54af0dabd960e864e2dc6a695baa10a50612e85f7aeb84a5bc9a9526289ac0f6612cd74e33776ee4"}, "value": 0.0, "n": 0}, {"scriptPubKey": {"reqSigs": 1, "hex": "76a9145853f7eb9d7c0867c1abff169290279e184ec2f288ac", "addresses": ["194347Qi9H6m97goSmYWUi4kczD5mtqrJE"], "asm": "OP_DUP OP_HASH160 5853f7eb9d7c0867c1abff169290279e184ec2f2 OP_EQUALVERIFY OP_CHECKSIG", "type": "pubkeyhash"}, "value": 0.0147948, "n": 1}], "hex": "0100000001cf9cd19c656c6a6d9ca39dfdf374975dffa67fb8f994690980d3ea093f9193b4000000006b483045022100b5bf6f95917abcc1635ceb6399e476a6e5e4be672b86e88e40f6b73ac17426ec0220320375df6141509a75cb0fd64d348acb6743b31b4b064b7cfb0af89afc75112c01210300021bf95f552fb5de6f6407398367326e416fff024b528a408274a7f4e2937bffffffff020000000000000000536a4c50000077ac0001822e42dd8bd1a4fd87de89c8af6c953dd567cf27e7e3ef3236678a625097a1e44d6c54af0dabd960e864e2dc6a695baa10a50612e85f7aeb84a5bc9a9526289ac0f6612cd74e33776ee438931600000000001976a9145853f7eb9d7c0867c1abff169290279e184ec2f288ac00000000", "vin": [{"sequence": 4294967295, "scriptSig": {"hex": "483045022100b5bf6f95917abcc1635ceb6399e476a6e5e4be672b86e88e40f6b73ac17426ec0220320375df6141509a75cb0fd64d348acb6743b31b4b064b7cfb0af89afc75112c01210300021bf95f552fb5de6f6407398367326e416fff024b528a408274a7f4e2937b", "asm": "3045022100b5bf6f95917abcc1635ceb6399e476a6e5e4be672b86e88e40f6b73ac17426ec0220320375df6141509a75cb0fd64d348acb6743b31b4b064b7cfb0af89afc75112c[ALL] 0300021bf95f552fb5de6f6407398367326e416fff024b528a408274a7f4e2937b"}, "vout": 0, "txid": "b493913f09ead380096994f9b87fa6ff5d9774f3fd9da39c6d6a6c659cd19ccf"}], "txid": "a388bc3fa145ca30d5f880285d5996c4e17c3914dd8a68b5760d5c9b585fc450", "blocktime": 1537872475, "version": 1, "confirmations": 11486, "time": 1537872475, "locktime": 0, "vsize": 284, "size": 284}