{"hash": "9cd21ef25cda0f6e366d231c36810f00d7227a20f8f287cc22a262d863cd54a8", "blockhash": "000000000000000000022b45ed06c6f4ccd3cf7fb5ba4856ebd2e58215665228", "vout": [{"scriptPubKey": {"reqSigs": 1, "hex": "00141509b34cf9f07b6318ab7dfa72f7bb3a90195b45", "addresses": ["bc1qz5ymxn8e7pakxx9t0ha89aam82gpjk69qt6487"], "asm": "0 1509b34cf9f07b6318ab7dfa72f7bb3a90195b45", "type": "witness_v0_keyhash"}, "value": 0.00176116, "n": 0}, {"scriptPubKey": {"reqSigs": 1, "hex": "a91460d919ecf064d3378aaa9b495bea43c90d56970787", "addresses": ["3AX6sRL4isrEZTMCn2sNQydRncfaqVaMdf"], "asm": "OP_HASH160 60d919ecf064d3378aaa9b495bea43c90d569707 OP_EQUAL", "type": "scripthash"}, "value": 0.00570043, "n": 1}], "hex": "01000000000101fc14f626e8c0177d3ea1d74698d6277bdd40c5bc190b6fc47888d8f2095bf3b00100000000ffffffff02f4af0200000000001600141509b34cf9f07b6318ab7dfa72f7bb3a90195b45bbb208000000000017a91460d919ecf064d3378aaa9b495bea43c90d569707870247304402200a82a3d6fbfc8ee12a575b6defa70755740e591d1401cff03cf3b204db5e0e94022062a59115523e2063f371be9c8082cb9c8a95517e5a9c1531d351eaa7d8a5df3401210203899a05550e5b148ba0e1a9f96a5a4595fa9962432130a1f1fe7dc8ca02dd3300000000", "vin": [{"txinwitness": ["304402200a82a3d6fbfc8ee12a575b6defa70755740e591d1401cff03cf3b204db5e0e94022062a59115523e2063f371be9c8082cb9c8a95517e5a9c1531d351eaa7d8a5df3401", "0203899a05550e5b148ba0e1a9f96a5a4595fa9962432130a1f1fe7dc8ca02dd33"], "sequence": 4294967295, "scriptSig": {"hex": "", "asm": ""}, "vout": 1, "txid": "b0f35b09f2d88878c46f0b19bcc540dd7b27d69846d7a13e7d17c0e826f614fc"}], "txid": "a38a9c4c5075971e98c4ffdc7aa301b9572bf2ad00a6267bdcd4b08eaeae7592", "blocktime": 1537869901, "version": 1, "confirmations": 11523, "time": 1537869901, "locktime": 0, "vsize": 142, "size": 223}