{"hash": "0555884036ef53d79502f3922c65a3c45ba1fc4f96e1c334235a2f8baa884ce6", "blockhash": "0000000000000000001e0dab787dd257d1dbfcb92a98c2207d5e1078be1f4165", "vout": [{"scriptPubKey": {"reqSigs": 1, "hex": "76a9140f83353f1d8a97aee293f18c44cbeababa8b980188ac", "addresses": ["12R2KNPPVkAMaSs9n9MGE3CLYPnkRQbDon"], "asm": "OP_DUP OP_HASH160 0f83353f1d8a97aee293f18c44cbeababa8b9801 OP_EQUALVERIFY OP_CHECKSIG", "type": "pubkeyhash"}, "value": 0.027735, "n": 0}, {"scriptPubKey": {"reqSigs": 1, "hex": "76a91403abdb2515a9f1f73793390b83f9af56e3718c4588ac", "addresses": ["1LQuLqsBLivVdGqKzEeBHBVHrgw7gCrZF"], "asm": "OP_DUP OP_HASH160 03abdb2515a9f1f73793390b83f9af56e3718c45 OP_EQUALVERIFY OP_CHECKSIG", "type": "pubkeyhash"}, "value": 0.03715, "n": 1}, {"scriptPubKey": {"reqSigs": 1, "hex": "a9144f84dcdb2e8a520a624f7078325a905feed0a68c87", "addresses": ["38wUUAM2cvseqxj5cpqPBy3jLMVJv76NBg"], "asm": "OP_HASH160 4f84dcdb2e8a520a624f7078325a905feed0a68c OP_EQUAL", "type": "scripthash"}, "value": 19.12604666, "n": 2}], "hex": "020000000001014c9943168f38fa92b42094f1a7f5e6ee9cba8c1b2b84516d379393b527c6c19101000000171600144dac56beb04e34e2091d94ece5b35c7024ec3ab7fdffffff03fc512a00000000001976a9140f83353f1d8a97aee293f18c44cbeababa8b980188acb8af3800000000001976a91403abdb2515a9f1f73793390b83f9af56e3718c4588acfa0700720000000017a9144f84dcdb2e8a520a624f7078325a905feed0a68c8702483045022100e2e83cbac9465754521aa2752c3b08878b12f0801c8fbe9069badfed54c6eb9602201398000b0fe8d4c5cb7442c976c9d0d3871a7a1088da719ded31c589fad3ac8f012103314cce74586aba7e4f5e7259480457d29a414578349e92fb23c0106b11ac11aa11490800", "vin": [{"txinwitness": ["3045022100e2e83cbac9465754521aa2752c3b08878b12f0801c8fbe9069badfed54c6eb9602201398000b0fe8d4c5cb7442c976c9d0d3871a7a1088da719ded31c589fad3ac8f01", "03314cce74586aba7e4f5e7259480457d29a414578349e92fb23c0106b11ac11aa"], "sequence": 4294967293, "scriptSig": {"hex": "1600144dac56beb04e34e2091d94ece5b35c7024ec3ab7", "asm": "00144dac56beb04e34e2091d94ece5b35c7024ec3ab7"}, "vout": 1, "txid": "91c1c627b59393376d51842b1b8cba9ceee6f5a7f19420b492fa388f1643994c"}], "txid": "a391a0f075901bd32000bfdb79083851a6b2d5069cc11299b2095802d473a366", "blocktime": 1537872475, "version": 2, "confirmations": 11488, "time": 1537872475, "locktime": 542993, "vsize": 202, "size": 284}