{"hash": "a2d8dd8cf67755c99c248d54b5e15d5f86275802e3d8c3d2148423d17ed5486d", "blockhash": "00000000000000000017f5eb5941039fbcee6240d03bc1f2f8e35350df66a1d8", "vout": [{"scriptPubKey": {"reqSigs": 1, "hex": "a914551e034c0e363805bf660d350cffccd33ffe226587", "addresses": ["39T5KBSHyuBgowSmc6jZmo6mB8ctxbfiGp"], "asm": "OP_HASH160 551e034c0e363805bf660d350cffccd33ffe2265 OP_EQUAL", "type": "scripthash"}, "value": 0.0027536, "n": 0}, {"scriptPubKey": {"reqSigs": 1, "hex": "a9141bc6cee49abdbd81c6b31e41db43e6079840a13b87", "addresses": ["34DtLA5iRKC6c9MRMuhpwaJ25v7YKrYz7L"], "asm": "OP_HASH160 1bc6cee49abdbd81c6b31e41db43e6079840a13b OP_EQUAL", "type": "scripthash"}, "value": 0.00999536, "n": 1}], "hex": "020000000001022ae5b5ab96c2161a0d35123204ab77d29e457f9b87860db56e94854e93e83a16000000001716001499f2b790eb7e595f9c6f335dc7eec803b377814bfeffffffc56ce28b6462c8d3225f4dcd1cbb998b92e6bf5a978f3c31d4dd26fffef55f9f000000001716001474bd7dd2b0fef34ee2c43b57f5cf3efd607a6fa4feffffff02a03304000000000017a914551e034c0e363805bf660d350cffccd33ffe22658770400f000000000017a9141bc6cee49abdbd81c6b31e41db43e6079840a13b8702483045022100edac1a30257d1965092ea2c511963d92765f59db2c82956bab36c14fe11a6d4302204aec55c1ca29edc1bc9832d6b81be4daeb9abbdba243830b57cde8ef760f518d01210214aa127b922e631d65861bad74081eb72335589e324a99e4d11d5339fcb64f51024730440220776334b62c14d74e75a27705f6b570eb91682fe711a7f487c7dfbe7c7614668802202d87994a0a3c423cafec01efc4760ccc1ddbbafacb9fd9bc228a83344c219893012103c997afb0a8c909e62b7601928a6137cb560280fb83439d4e6aca322c17a1634515490800", "vin": [{"txinwitness": ["3045022100edac1a30257d1965092ea2c511963d92765f59db2c82956bab36c14fe11a6d4302204aec55c1ca29edc1bc9832d6b81be4daeb9abbdba243830b57cde8ef760f518d01", "0214aa127b922e631d65861bad74081eb72335589e324a99e4d11d5339fcb64f51"], "sequence": 4294967294, "scriptSig": {"hex": "16001499f2b790eb7e595f9c6f335dc7eec803b377814b", "asm": "001499f2b790eb7e595f9c6f335dc7eec803b377814b"}, "vout": 0, "txid": "163ae8934e85946eb50d86879b7f459ed277ab043212350d1a16c296abb5e52a"}, {"txinwitness": ["30440220776334b62c14d74e75a27705f6b570eb91682fe711a7f487c7dfbe7c7614668802202d87994a0a3c423cafec01efc4760ccc1ddbbafacb9fd9bc228a83344c21989301", "03c997afb0a8c909e62b7601928a6137cb560280fb83439d4e6aca322c17a16345"], "sequence": 4294967294, "scriptSig": {"hex": "16001474bd7dd2b0fef34ee2c43b57f5cf3efd607a6fa4", "asm": "001474bd7dd2b0fef34ee2c43b57f5cf3efd607a6fa4"}, "vout": 0, "txid": "9f5ff5feff26ddd4313c8f975abfe6928b99bb1ccd4d5f22d3c862648be26cc5"}], "txid": "a396b6280026ef9c76c9aee86a8e33552ec1e8b77fe8a7f5e51251adc4927db7", "blocktime": 1537874412, "version": 2, "confirmations": 11468, "time": 1537874412, "locktime": 542997, "vsize": 257, "size": 419}