{"hash": "a39822ef497c5153833cdaae3958e363987409c5a767b306cdb7afac7214cd87", "blockhash": "0000000000000000001cda96e906b7601b7a6fb1a3b62bca570a9e5d8f4b3de1", "vout": [{"scriptPubKey": {"reqSigs": 1, "hex": "76a914d2d07be12a35486d636c276c33d6e604238230c388ac", "addresses": ["1LDgf115gK1FuUaqjEuvGANYgyLpvomACN"], "asm": "OP_DUP OP_HASH160 d2d07be12a35486d636c276c33d6e604238230c3 OP_EQUALVERIFY OP_CHECKSIG", "type": "pubkeyhash"}, "value": 0.0008926, "n": 0}, {"scriptPubKey": {"type": "nulldata", "hex": "6a4c50000077c500011ac8685b23cc0f42c2fc38c5e5bf9ae76da98a211aaf6c953dd567cf27e7dd8adcd0cd4bfb78da54f1f70f6253cd5baa134c06136d4758d12efcbc9a9526289ac0f6612cd74e33776ee4", "asm": "OP_RETURN 000077c500011ac8685b23cc0f42c2fc38c5e5bf9ae76da98a211aaf6c953dd567cf27e7dd8adcd0cd4bfb78da54f1f70f6253cd5baa134c06136d4758d12efcbc9a9526289ac0f6612cd74e33776ee4"}, "value": 0.0, "n": 1}], "hex": "0100000001fc2d192b4c3261bac581d809f6b6630e5501534e8da94bf91637da8b21981bad000000006a4730440220388071fed67b73f2c488f023e629831a2941943b13259bfbef45ffdcc8d4ac7f0220403a80b563aa43c5597a6adc6a5f335fdd4c076c91873b16fdfd979a2bf8b0910121036a5227851e5bd9222a9bff5c177a0b179ef45513bde6a4a23884359e956e2afcffffffff02ac5c0100000000001976a914d2d07be12a35486d636c276c33d6e604238230c388ac0000000000000000536a4c50000077c500011ac8685b23cc0f42c2fc38c5e5bf9ae76da98a211aaf6c953dd567cf27e7dd8adcd0cd4bfb78da54f1f70f6253cd5baa134c06136d4758d12efcbc9a9526289ac0f6612cd74e33776ee400000000", "vin": [{"sequence": 4294967295, "scriptSig": {"hex": "4730440220388071fed67b73f2c488f023e629831a2941943b13259bfbef45ffdcc8d4ac7f0220403a80b563aa43c5597a6adc6a5f335fdd4c076c91873b16fdfd979a2bf8b0910121036a5227851e5bd9222a9bff5c177a0b179ef45513bde6a4a23884359e956e2afc", "asm": "30440220388071fed67b73f2c488f023e629831a2941943b13259bfbef45ffdcc8d4ac7f0220403a80b563aa43c5597a6adc6a5f335fdd4c076c91873b16fdfd979a2bf8b091[ALL] 036a5227851e5bd9222a9bff5c177a0b179ef45513bde6a4a23884359e956e2afc"}, "vout": 0, "txid": "ad1b98218bda3716f94ba98d4e5301550e63b6f609d881c5ba61324c2b192dfc"}], "txid": "a39822ef497c5153833cdaae3958e363987409c5a767b306cdb7afac7214cd87", "blocktime": 1537873282, "version": 1, "confirmations": 11484, "time": 1537873282, "locktime": 0, "vsize": 283, "size": 283}