{"hash": "a3a6d6446e3ec68c6edba190e0c0fdcb53baa43c4e10a034efac89831346f1c6", "blockhash": "00000000000000000004ffacab907a6b429b9a5745fa0b75af4234bf69dd7176", "vout": [{"scriptPubKey": {"reqSigs": 1, "hex": "76a9140a6b825daa1b89f8e100ed8eec6d79b592500f4988ac", "addresses": ["1x6YnuBVeeE65dQRZztRWgUPwyBjHCA5g"], "asm": "OP_DUP OP_HASH160 0a6b825daa1b89f8e100ed8eec6d79b592500f49 OP_EQUALVERIFY OP_CHECKSIG", "type": "pubkeyhash"}, "value": 0.44287976, "n": 0}, {"scriptPubKey": {"reqSigs": 1, "hex": "76a91453646d98648f3af8ac200f8846f7a449da816ae188ac", "addresses": ["18bwPnmXvUtvCcCuTZ7z4AwgTbaD7oWRT8"], "asm": "OP_DUP OP_HASH160 53646d98648f3af8ac200f8846f7a449da816ae1 OP_EQUALVERIFY OP_CHECKSIG", "type": "pubkeyhash"}, "value": 5.46e-06, "n": 1}, {"scriptPubKey": {"type": "nulldata", "hex": "6a146f6d6e69000000000000001f00000053d1ac1000", "asm": "OP_RETURN 6f6d6e69000000000000001f00000053d1ac1000"}, "value": 0.0, "n": 2}], "hex": "01000000016912b72b02edf2288d3bd38d4f437123ef55ced6e66e2c93c494db40e2521ce1000000006a47304402207df5415c73ee2d9a15ded17586adea55b1e4b0d7ab11aac205356723c8d9e8680220270a4678f98d5cb2f4b6f207b2e28a1e7de6df19fc1cdfb71d3a28b5b895ce7d012103fe02b06a6bfd9b5a83e0417430a3235a39a0b4c7973591ca27ac58f6474d9120ffffffff03e8c7a302000000001976a9140a6b825daa1b89f8e100ed8eec6d79b592500f4988ac22020000000000001976a91453646d98648f3af8ac200f8846f7a449da816ae188ac0000000000000000166a146f6d6e69000000000000001f00000053d1ac100000000000", "vin": [{"sequence": 4294967295, "scriptSig": {"hex": "47304402207df5415c73ee2d9a15ded17586adea55b1e4b0d7ab11aac205356723c8d9e8680220270a4678f98d5cb2f4b6f207b2e28a1e7de6df19fc1cdfb71d3a28b5b895ce7d012103fe02b06a6bfd9b5a83e0417430a3235a39a0b4c7973591ca27ac58f6474d9120", "asm": "304402207df5415c73ee2d9a15ded17586adea55b1e4b0d7ab11aac205356723c8d9e8680220270a4678f98d5cb2f4b6f207b2e28a1e7de6df19fc1cdfb71d3a28b5b895ce7d[ALL] 03fe02b06a6bfd9b5a83e0417430a3235a39a0b4c7973591ca27ac58f6474d9120"}, "vout": 0, "txid": "e11c52e240db94c4932c6ee6d6ce55ef2371434f8dd33b8d28f2ed022bb71269"}], "txid": "a3a6d6446e3ec68c6edba190e0c0fdcb53baa43c4e10a034efac89831346f1c6", "blocktime": 1537875543, "version": 1, "confirmations": 11464, "time": 1537875543, "locktime": 0, "vsize": 256, "size": 256}