{"hash": "a3af89350bf7ec254918dbc86024e7c1234ec29bf6a9a0360991e3b601e3cb7b", "blockhash": "0000000000000000000baef3f32e3676a92c3b2e5da21b426e4f302fc371ce76", "vout": [{"scriptPubKey": {"reqSigs": 1, "hex": "76a914ef1412480f906b2ebc3e7602c25b772dbcec9adf88ac", "addresses": ["1No8YS9jDnSsGsmJkNexDBSzd6BBV88SFP"], "asm": "OP_DUP OP_HASH160 ef1412480f906b2ebc3e7602c25b772dbcec9adf OP_EQUALVERIFY OP_CHECKSIG", "type": "pubkeyhash"}, "value": 0.0212, "n": 0}, {"scriptPubKey": {"reqSigs": 1, "hex": "76a914e8e3f47b35b758a7ec7c18db6c3a575f815fdf8788ac", "addresses": ["1NEQr6aCcrmYghx8mxcnnZPTsxLKPMZmwo"], "asm": "OP_DUP OP_HASH160 e8e3f47b35b758a7ec7c18db6c3a575f815fdf87 OP_EQUALVERIFY OP_CHECKSIG", "type": "pubkeyhash"}, "value": 4.57856, "n": 1}], "hex": "01000000019c34c4264a4d90cf22630869c5e6fc6cd45f079cbf8cc46f7e4a352313cf42f3010000006b483045022100b142d8398a7e5a25a3b1cec3341d455f1d717f09305b6fbf9da4388d032c0883022054e3b4292bb673691d3250618c9e9fc84cd91d73308957995046e900a8136abb012102315c53282ffbeea41190a11bdd2c8a63f4ee79b544738e22f1f27ba885c18280ffffffff0240592000000000001976a914ef1412480f906b2ebc3e7602c25b772dbcec9adf88ac00544a1b000000001976a914e8e3f47b35b758a7ec7c18db6c3a575f815fdf8788ac00000000", "vin": [{"sequence": 4294967295, "scriptSig": {"hex": "483045022100b142d8398a7e5a25a3b1cec3341d455f1d717f09305b6fbf9da4388d032c0883022054e3b4292bb673691d3250618c9e9fc84cd91d73308957995046e900a8136abb012102315c53282ffbeea41190a11bdd2c8a63f4ee79b544738e22f1f27ba885c18280", "asm": "3045022100b142d8398a7e5a25a3b1cec3341d455f1d717f09305b6fbf9da4388d032c0883022054e3b4292bb673691d3250618c9e9fc84cd91d73308957995046e900a8136abb[ALL] 02315c53282ffbeea41190a11bdd2c8a63f4ee79b544738e22f1f27ba885c18280"}, "vout": 1, "txid": "f342cf1323354a7e6fc48cbf9c075fd46cfce6c569086322cf904d4a26c4349c"}], "txid": "a3af89350bf7ec254918dbc86024e7c1234ec29bf6a9a0360991e3b601e3cb7b", "blocktime": 1537876114, "version": 1, "confirmations": 11460, "time": 1537876114, "locktime": 0, "vsize": 226, "size": 226}