{"hash": "a3b5f2a9f6bd2ebda13fcc6ee09b9d2897a649e930135797e01ace77d30c703f", "blockhash": "00000000000000000018f53835495a110e01622372bf6ae95dc86f2b0ab887b0", "vout": [{"scriptPubKey": {"reqSigs": 1, "hex": "76a914d6170034c970b28909af39128218ecfed6c2f2f488ac", "addresses": ["1LX1ABC2Jxv7xh3w1CtFq1LptDW4jfjj7W"], "asm": "OP_DUP OP_HASH160 d6170034c970b28909af39128218ecfed6c2f2f4 OP_EQUALVERIFY OP_CHECKSIG", "type": "pubkeyhash"}, "value": 51.67187153, "n": 0}, {"scriptPubKey": {"reqSigs": 1, "hex": "76a914615be0a9fc2fc66de904265deb7433b37c538a2d88ac", "addresses": ["19sncNjRgHwYgEHruj812Ev8eSAqpdxGHa"], "asm": "OP_DUP OP_HASH160 615be0a9fc2fc66de904265deb7433b37c538a2d OP_EQUALVERIFY OP_CHECKSIG", "type": "pubkeyhash"}, "value": 0.03, "n": 1}], "hex": "01000000019432c50faa0fd9962ea34f6d337bb9cf11cb444a33cec4770d6e22763cf93594010000006b483045022100febfda54c6aacf7449c87df3efa460c3eacb7a7a98376a58e9fe12ce205d4bc002204818068cb290e508a19d8b0f8282380bf297a8ef49e292bc272f18d687c3c140012102ec473ec291774397157c08cfa9e76f8b85f962a5bd8c3f71dc28ef1d1ed9283affffffff02d104fd33010000001976a914d6170034c970b28909af39128218ecfed6c2f2f488acc0c62d00000000001976a914615be0a9fc2fc66de904265deb7433b37c538a2d88ac00000000", "vin": [{"sequence": 4294967295, "scriptSig": {"hex": "483045022100febfda54c6aacf7449c87df3efa460c3eacb7a7a98376a58e9fe12ce205d4bc002204818068cb290e508a19d8b0f8282380bf297a8ef49e292bc272f18d687c3c140012102ec473ec291774397157c08cfa9e76f8b85f962a5bd8c3f71dc28ef1d1ed9283a", "asm": "3045022100febfda54c6aacf7449c87df3efa460c3eacb7a7a98376a58e9fe12ce205d4bc002204818068cb290e508a19d8b0f8282380bf297a8ef49e292bc272f18d687c3c140[ALL] 02ec473ec291774397157c08cfa9e76f8b85f962a5bd8c3f71dc28ef1d1ed9283a"}, "vout": 1, "txid": "9435f93c76226e0d77c4ce334a44cb11cfb97b336d4fa32e96d90faa0fc53294"}], "txid": "a3b5f2a9f6bd2ebda13fcc6ee09b9d2897a649e930135797e01ace77d30c703f", "blocktime": 1537870928, "version": 1, "confirmations": 11512, "time": 1537870928, "locktime": 0, "vsize": 226, "size": 226}