{"hash": "f519dc7ec07e0f2c53f714fc5e3c64e57f4ce7c70f4e3f3ddf63c40a6128e9c4", "blockhash": "00000000000000000018f53835495a110e01622372bf6ae95dc86f2b0ab887b0", "vout": [{"scriptPubKey": {"reqSigs": 1, "hex": "76a914d285d96eaf65737f1f4d43f3125882ff9ed5e54688ac", "addresses": ["1LC9FJPy7D7wMhkG5VVQVQJMsQfEo72DQW"], "asm": "OP_DUP OP_HASH160 d285d96eaf65737f1f4d43f3125882ff9ed5e546 OP_EQUALVERIFY OP_CHECKSIG", "type": "pubkeyhash"}, "value": 0.22980159, "n": 0}, {"scriptPubKey": {"reqSigs": 1, "hex": "a91413c977f83259d4fe561b591caa6263ddb64a592587", "addresses": ["33Ve7UUBms2XwRYGLsmFqDyZxeuz82NfKf"], "asm": "OP_HASH160 13c977f83259d4fe561b591caa6263ddb64a5925 OP_EQUAL", "type": "scripthash"}, "value": 0.01522118, "n": 1}], "hex": "0100000000010a4a8663ee6644a7882b42995b8d826c758c901f3d018d9dd77a6baca7ff4e1e8e0100000023220020a2466e20ad801bbf64941b73f518007033936b02aa07718a369c841f8aa343a0ffffffff8516282041a50e9f39ad5d8be16b6ef1c8175f3b888d1a1dee294cced6bf20aa00000000232200203ed09d0466aebbe384fb7da4392728f5a6e5e04f2d3d235e96dd42059d5495c9ffffffff97daa8ed67281d7bc744779ad90b04e5070c9767d4f4cad1c8870122d2b9bbf10200000023220020951b35a777765463b413caa089b6b7c55e8c3fdf73ee892775a998d6522c8272ffffffff5e50cf17b8a2948264476ce9fcddb6a8965a714e46dbfee759f8be7feebe785d01000000232200208c3a1c6432492892d5683bd3127fe014c22535eaaf93415a67ee3fd9bfa3ddf4ffffffff5b358aac771b8899a0eaa6faf005d7a3eea26b8b28d049c03a312ed574f34553010000002322002005055ce52f414c761a179eeadc0afbfe184254cf8bc834fb5219423eb27d3a4affffffff3d1b77558f1c444b0d1fe9688f9ff469ec04de8a768c2a85c34b5aecc1e72cd90100000023220020e9012664d6634857f48f04c87a68e146c2568ed56ec13e992d4bd5f0d4c11587ffffffffabdd486d61372c262ada0a12a36d92d82112462c36460d1dec34c089500e20af01000000232200206f9c9cbd4a883fe483400bc6633a83050d1a5b7491487a28c1b626501b975aabffffffffbc1bf35ff5bf71e759ab94644cbeefb10fd499d47177e9db2a36c44584a668980100000023220020abdb84de58aa63bd4f58b131e1c91ab51984522835f428378a940a049fa588b3fffffffffdb20969dad0f2295516aa06f3ed0600f0ddb0d9ef8f3cab510ef79ecb7274b5010000002322002046767c3be81ecb8152b40a1ceff4f4054f480a776ccc515e8b0298ff8f2092d9ffffffffcaf512ab6020fe5d63ea2bd1cbd5adfc8436d4e1d5325b289281120a646f2f4e01000000232200209182e7202357958d21ec49c54580aedf6730e571838d2d09e5b6e71e63e70210ffffffff023fa65e01000000001976a914d285d96eaf65737f1f4d43f3125882ff9ed5e54688acc63917000000000017a91413c977f83259d4fe561b591caa6263ddb64a5925870400473044022044da182bc7fa2a7c5a1860623524450617f6e87e56ce23413bfdac50f1d80e0c022072d379ac4939364c52316b3205bd4f6669fd03b0d8c33b3b12d03db1daace6e501483045022100ce2a499e5ea1f89c1aba6b0343c5e8cb639d3c9b08dd6ecf7f4b7e7517dbf0bf022006f1c0cd843a105e3d12ec7a815ccbfd6568199748a398474cecc0a5e11a7bfe0147522103c13fa279abd4300f7572ea29967fc0260885b8d5dc29a0e4fd23029f598b33f221038407424ead2b88063db2d589e50c34e1572f6b82eb9e266dec536939ee0db9eb52ae04004830450221008ad1afc610ccb4cb58baaee03e61530b1eaf6c4961c75677c888b9d3bc2772b902205799955083fbda565eb75ed9a00dd4775cfde5f04696256e8b4b4fa4b06156be01473044022006f361ab392c5faf63a3cd653cd39be81037ebb77c46ad8c25dd34b33fd7ccc80220786889cc93750f3176a74231c0b72c055871ef8370ac2d228cdd9adb6f582d10014752210358f39d76ac3223cfa1b054cb930afe53ecb968c151e594472e978fad480bd36121038407424ead2b88063db2d589e50c34e1572f6b82eb9e266dec536939ee0db9eb52ae040048304502210084408d43f82fe94278650c226f8c566b782ecba2ba6c22866362684526ffb32e0220334a885e0f01fca2f3297b1d9049fdd014791a73a6139f8d95c8ec41a6dd606901483045022100c102d5474c314771307016b75c19dfb531f8696d7dab903c933cf2ba7cb7161a02203ed8eb169845195437308adb522e22b75ea7476296d279833302fefeddfc51eb01475221026cd0c33286625fdc64721d6513bcd57a45b77ba1e0fae7ab754b3d48f255a3a221038407424ead2b88063db2d589e50c34e1572f6b82eb9e266dec536939ee0db9eb52ae0400483045022100ad3dbb08a9b987febbf8c0baf79783a862c139005d52ddfa3bc83f8a08b709ae02204d7eeb3d3f4e5696e421374a4cf3ea523dfa5681f2033811f02c74061f94b43801483045022100c8fe5b4f9ec899940b62f84ff72c1dae0d8ffd3adfadb663bdd8a6ad1bcb450302204332ad257a25ae1e5b6e3bec5639638b3d6fa72cd8cbe2a9678e803f928083ea0147522102cd086c58a4ff250376ba71595a80bf20ed3dc996f9ba647d2e7679cf24f829a121038407424ead2b88063db2d589e50c34e1572f6b82eb9e266dec536939ee0db9eb52ae04004830450221009e768752cb51a5c2b5e0eaa49934f36f822af4cb17887ee3f2401ec40d6b66e702207b5a5a4fe9ee1b5df7e5758578173f91e4d3b92a8b4afadae80db5b1be929b31014730440220368afb15188ce64cfc4e7b8c9f0f6fe0c0c98822ee7b4ac55158cc56979420fe02207a7b2e51394f3286ddbdb9d9c4a6088d4107f82bcfb95b6d5f942180bf8bde560147522103df43639c50517df6e54f0a5cb0c9166f87db4a528e37cd3600a931e833a32aa021038407424ead2b88063db2d589e50c34e1572f6b82eb9e266dec536939ee0db9eb52ae0400483045022100df7ecef29a6535e24b11ace0b85e48545d05fbda4c117b7f550f17515c8273bc022050a5fa65d45957571f7c1fb14a029bc616edbb25ffd4f42f4099c8192144b0c701483045022100eb7dd6b498ec0a36a252e5b505597ebd5c4bc217fa49d595b562a65d14c8fe3302202efd094510bb14bb30ef05e9e44a24c321ceb51e92ab2acf84fde4386b843a1701475221025a0a8d0c0885dedfd838e34f4fb606232653741e8a48ec7440ceb7134ea3f28421038407424ead2b88063db2d589e50c34e1572f6b82eb9e266dec536939ee0db9eb52ae040047304402206df3bf3c8e9a9d391b8d8db0a65975f1995c690215b47e9f2c61d118cafa187c0220675c326f6cf8eae9c0eda42debf9e53f71cf21827fcb054c63c6359117c1354a0147304402207bcaa4568d6e278a983217b290fb93b9d7c66ad10a72a46d878e26b1258cd61d022005856cabad061f287c89d1da1cad2fe8ff44aab43887d7e348927b504eb582900147522103129093c613ee1341dc5d99f8a5328cc6e3af322b99cbf94bb7990bcfcd8e3c7821038407424ead2b88063db2d589e50c34e1572f6b82eb9e266dec536939ee0db9eb52ae0400473044022048ae663f357f0a965ee4efc2281f279a608f66ee2e22278bd8867a314a2da02302204840d7d3ca15b8f5b9575e66dd34077b4888ad1c659da32e08b69f903578e8bc014730440220767458d1eca51c8bbf5d528de516d1413ff201bfb9eff939ce74fbb06d1f30ab02203ce02c0e16a0a944cdeb4015ff60e1dcc5e5b01152d27e78ca2481ff711af36a0147522103fd18b8b5d6b2612310c348d1130c0525a09d66b6e0f3d06553e591d7a19e265421038407424ead2b88063db2d589e50c34e1572f6b82eb9e266dec536939ee0db9eb52ae040047304402202e574a2815e25e8244ac7488ab8a6531fceeba5faa0b8c18aaa952254905de8602200da1806eec4d30941e22713a3837920d3bb1ec99d33fc9a3a402fcd8ad6a78b201483045022100d7c082d85a8455a03e7a8843f69192ede4fd29487460208df34bb948211b1bb8022069938f51afcd147f8d77b770bfcc542cfc13a7660bc0db530588fdf435a27ef80147522103f558cdca57d9ebe5c27bbd7e623695c5b590cfe7f9428edc0013b0726b473e3a21038407424ead2b88063db2d589e50c34e1572f6b82eb9e266dec536939ee0db9eb52ae040047304402204a09296651af6eb018f261808879d5facc905abe88102021f96081878ca20e35022043179d0e43df09578831b652285f7117fc6ea4fdc041186d5ab3e9d550c251d30148304502210087ed2739d4e77b33ac2cbb3fb9f0c956a257bc29256d2609d5ef600c6ed81c490220209f4f5d3b589bcbeb0165b3d7fc6d42d8d488a7a9fcfa9a8db1f7051fff74e40147522102fb11c2cd3fd0a9f95f96bd0eb272547699eef759afb250887f6a0c5e72021d1721038407424ead2b88063db2d589e50c34e1572f6b82eb9e266dec536939ee0db9eb52ae00000000", "vin": [{"txinwitness": ["", "3044022044da182bc7fa2a7c5a1860623524450617f6e87e56ce23413bfdac50f1d80e0c022072d379ac4939364c52316b3205bd4f6669fd03b0d8c33b3b12d03db1daace6e501", "3045022100ce2a499e5ea1f89c1aba6b0343c5e8cb639d3c9b08dd6ecf7f4b7e7517dbf0bf022006f1c0cd843a105e3d12ec7a815ccbfd6568199748a398474cecc0a5e11a7bfe01", "522103c13fa279abd4300f7572ea29967fc0260885b8d5dc29a0e4fd23029f598b33f221038407424ead2b88063db2d589e50c34e1572f6b82eb9e266dec536939ee0db9eb52ae"], "sequence": 4294967295, "scriptSig": {"hex": "220020a2466e20ad801bbf64941b73f518007033936b02aa07718a369c841f8aa343a0", "asm": "0020a2466e20ad801bbf64941b73f518007033936b02aa07718a369c841f8aa343a0"}, "vout": 1, "txid": "8e1e4effa7ac6b7ad79d8d013d1f908c756c828d5b99422b88a74466ee63864a"}, {"txinwitness": ["", "30450221008ad1afc610ccb4cb58baaee03e61530b1eaf6c4961c75677c888b9d3bc2772b902205799955083fbda565eb75ed9a00dd4775cfde5f04696256e8b4b4fa4b06156be01", "3044022006f361ab392c5faf63a3cd653cd39be81037ebb77c46ad8c25dd34b33fd7ccc80220786889cc93750f3176a74231c0b72c055871ef8370ac2d228cdd9adb6f582d1001", "52210358f39d76ac3223cfa1b054cb930afe53ecb968c151e594472e978fad480bd36121038407424ead2b88063db2d589e50c34e1572f6b82eb9e266dec536939ee0db9eb52ae"], "sequence": 4294967295, "scriptSig": {"hex": "2200203ed09d0466aebbe384fb7da4392728f5a6e5e04f2d3d235e96dd42059d5495c9", "asm": "00203ed09d0466aebbe384fb7da4392728f5a6e5e04f2d3d235e96dd42059d5495c9"}, "vout": 0, "txid": "aa20bfd6ce4c29ee1d1a8d883b5f17c8f16e6be18b5dad399f0ea54120281685"}, {"txinwitness": ["", "304502210084408d43f82fe94278650c226f8c566b782ecba2ba6c22866362684526ffb32e0220334a885e0f01fca2f3297b1d9049fdd014791a73a6139f8d95c8ec41a6dd606901", "3045022100c102d5474c314771307016b75c19dfb531f8696d7dab903c933cf2ba7cb7161a02203ed8eb169845195437308adb522e22b75ea7476296d279833302fefeddfc51eb01", "5221026cd0c33286625fdc64721d6513bcd57a45b77ba1e0fae7ab754b3d48f255a3a221038407424ead2b88063db2d589e50c34e1572f6b82eb9e266dec536939ee0db9eb52ae"], "sequence": 4294967295, "scriptSig": {"hex": "220020951b35a777765463b413caa089b6b7c55e8c3fdf73ee892775a998d6522c8272", "asm": "0020951b35a777765463b413caa089b6b7c55e8c3fdf73ee892775a998d6522c8272"}, "vout": 2, "txid": "f1bbb9d2220187c8d1caf4d467970c07e5040bd99a7744c77b1d2867eda8da97"}, {"txinwitness": ["", "3045022100ad3dbb08a9b987febbf8c0baf79783a862c139005d52ddfa3bc83f8a08b709ae02204d7eeb3d3f4e5696e421374a4cf3ea523dfa5681f2033811f02c74061f94b43801", "3045022100c8fe5b4f9ec899940b62f84ff72c1dae0d8ffd3adfadb663bdd8a6ad1bcb450302204332ad257a25ae1e5b6e3bec5639638b3d6fa72cd8cbe2a9678e803f928083ea01", "522102cd086c58a4ff250376ba71595a80bf20ed3dc996f9ba647d2e7679cf24f829a121038407424ead2b88063db2d589e50c34e1572f6b82eb9e266dec536939ee0db9eb52ae"], "sequence": 4294967295, "scriptSig": {"hex": "2200208c3a1c6432492892d5683bd3127fe014c22535eaaf93415a67ee3fd9bfa3ddf4", "asm": "00208c3a1c6432492892d5683bd3127fe014c22535eaaf93415a67ee3fd9bfa3ddf4"}, "vout": 1, "txid": "5d78beee7fbef859e7fedb464e715a96a8b6ddfce96c47648294a2b817cf505e"}, {"txinwitness": ["", "30450221009e768752cb51a5c2b5e0eaa49934f36f822af4cb17887ee3f2401ec40d6b66e702207b5a5a4fe9ee1b5df7e5758578173f91e4d3b92a8b4afadae80db5b1be929b3101", "30440220368afb15188ce64cfc4e7b8c9f0f6fe0c0c98822ee7b4ac55158cc56979420fe02207a7b2e51394f3286ddbdb9d9c4a6088d4107f82bcfb95b6d5f942180bf8bde5601", "522103df43639c50517df6e54f0a5cb0c9166f87db4a528e37cd3600a931e833a32aa021038407424ead2b88063db2d589e50c34e1572f6b82eb9e266dec536939ee0db9eb52ae"], "sequence": 4294967295, "scriptSig": {"hex": "22002005055ce52f414c761a179eeadc0afbfe184254cf8bc834fb5219423eb27d3a4a", "asm": "002005055ce52f414c761a179eeadc0afbfe184254cf8bc834fb5219423eb27d3a4a"}, "vout": 1, "txid": "5345f374d52e313ac049d0288b6ba2eea3d705f0faa6eaa099881b77ac8a355b"}, {"txinwitness": ["", "3045022100df7ecef29a6535e24b11ace0b85e48545d05fbda4c117b7f550f17515c8273bc022050a5fa65d45957571f7c1fb14a029bc616edbb25ffd4f42f4099c8192144b0c701", "3045022100eb7dd6b498ec0a36a252e5b505597ebd5c4bc217fa49d595b562a65d14c8fe3302202efd094510bb14bb30ef05e9e44a24c321ceb51e92ab2acf84fde4386b843a1701", "5221025a0a8d0c0885dedfd838e34f4fb606232653741e8a48ec7440ceb7134ea3f28421038407424ead2b88063db2d589e50c34e1572f6b82eb9e266dec536939ee0db9eb52ae"], "sequence": 4294967295, "scriptSig": {"hex": "220020e9012664d6634857f48f04c87a68e146c2568ed56ec13e992d4bd5f0d4c11587", "asm": "0020e9012664d6634857f48f04c87a68e146c2568ed56ec13e992d4bd5f0d4c11587"}, "vout": 1, "txid": "d92ce7c1ec5a4bc3852a8c768ade04ec69f49f8f68e91f0d4b441c8f55771b3d"}, {"txinwitness": ["", "304402206df3bf3c8e9a9d391b8d8db0a65975f1995c690215b47e9f2c61d118cafa187c0220675c326f6cf8eae9c0eda42debf9e53f71cf21827fcb054c63c6359117c1354a01", "304402207bcaa4568d6e278a983217b290fb93b9d7c66ad10a72a46d878e26b1258cd61d022005856cabad061f287c89d1da1cad2fe8ff44aab43887d7e348927b504eb5829001", "522103129093c613ee1341dc5d99f8a5328cc6e3af322b99cbf94bb7990bcfcd8e3c7821038407424ead2b88063db2d589e50c34e1572f6b82eb9e266dec536939ee0db9eb52ae"], "sequence": 4294967295, "scriptSig": {"hex": "2200206f9c9cbd4a883fe483400bc6633a83050d1a5b7491487a28c1b626501b975aab", "asm": "00206f9c9cbd4a883fe483400bc6633a83050d1a5b7491487a28c1b626501b975aab"}, "vout": 1, "txid": "af200e5089c034ec1d0d46362c461221d8926da3120ada2a262c37616d48ddab"}, {"txinwitness": ["", "3044022048ae663f357f0a965ee4efc2281f279a608f66ee2e22278bd8867a314a2da02302204840d7d3ca15b8f5b9575e66dd34077b4888ad1c659da32e08b69f903578e8bc01", "30440220767458d1eca51c8bbf5d528de516d1413ff201bfb9eff939ce74fbb06d1f30ab02203ce02c0e16a0a944cdeb4015ff60e1dcc5e5b01152d27e78ca2481ff711af36a01", "522103fd18b8b5d6b2612310c348d1130c0525a09d66b6e0f3d06553e591d7a19e265421038407424ead2b88063db2d589e50c34e1572f6b82eb9e266dec536939ee0db9eb52ae"], "sequence": 4294967295, "scriptSig": {"hex": "220020abdb84de58aa63bd4f58b131e1c91ab51984522835f428378a940a049fa588b3", "asm": "0020abdb84de58aa63bd4f58b131e1c91ab51984522835f428378a940a049fa588b3"}, "vout": 1, "txid": "9868a68445c4362adbe97771d499d40fb1efbe4c6494ab59e771bff55ff31bbc"}, {"txinwitness": ["", "304402202e574a2815e25e8244ac7488ab8a6531fceeba5faa0b8c18aaa952254905de8602200da1806eec4d30941e22713a3837920d3bb1ec99d33fc9a3a402fcd8ad6a78b201", "3045022100d7c082d85a8455a03e7a8843f69192ede4fd29487460208df34bb948211b1bb8022069938f51afcd147f8d77b770bfcc542cfc13a7660bc0db530588fdf435a27ef801", "522103f558cdca57d9ebe5c27bbd7e623695c5b590cfe7f9428edc0013b0726b473e3a21038407424ead2b88063db2d589e50c34e1572f6b82eb9e266dec536939ee0db9eb52ae"], "sequence": 4294967295, "scriptSig": {"hex": "22002046767c3be81ecb8152b40a1ceff4f4054f480a776ccc515e8b0298ff8f2092d9", "asm": "002046767c3be81ecb8152b40a1ceff4f4054f480a776ccc515e8b0298ff8f2092d9"}, "vout": 1, "txid": "b57472cb9ef70e51ab3c8fefd9b0ddf00006edf306aa165529f2d0da6909b2fd"}, {"txinwitness": ["", "304402204a09296651af6eb018f261808879d5facc905abe88102021f96081878ca20e35022043179d0e43df09578831b652285f7117fc6ea4fdc041186d5ab3e9d550c251d301", "304502210087ed2739d4e77b33ac2cbb3fb9f0c956a257bc29256d2609d5ef600c6ed81c490220209f4f5d3b589bcbeb0165b3d7fc6d42d8d488a7a9fcfa9a8db1f7051fff74e401", "522102fb11c2cd3fd0a9f95f96bd0eb272547699eef759afb250887f6a0c5e72021d1721038407424ead2b88063db2d589e50c34e1572f6b82eb9e266dec536939ee0db9eb52ae"], "sequence": 4294967295, "scriptSig": {"hex": "2200209182e7202357958d21ec49c54580aedf6730e571838d2d09e5b6e71e63e70210", "asm": "00209182e7202357958d21ec49c54580aedf6730e571838d2d09e5b6e71e63e70210"}, "vout": 1, "txid": "4e2f6f640a128192285b32d5e1d43684fcadd5cbd12bea635dfe2060ab12f5ca"}], "txid": "a3b8beaae61606898c8efd18b7548991d589abea314e0d876278d95291dbe242", "blocktime": 1537870928, "version": 1, "confirmations": 11512, "time": 1537870928, "locktime": 0, "vsize": 1385, "size": 3029}