{"hash": "a3b8f02df0e4e47cd2074219b0724ad6f075aa9f5ebb19a86bf953d0dc2aa059", "blockhash": "00000000000000000004ffacab907a6b429b9a5745fa0b75af4234bf69dd7176", "vout": [{"scriptPubKey": {"reqSigs": 1, "hex": "76a914207f53055096384fbec48d8014215b24809d2e5188ac", "addresses": ["13xq9nbAjVB5kadAmVgH4XsCxbWtifmjvv"], "asm": "OP_DUP OP_HASH160 207f53055096384fbec48d8014215b24809d2e51 OP_EQUALVERIFY OP_CHECKSIG", "type": "pubkeyhash"}, "value": 0.02553042, "n": 0}, {"scriptPubKey": {"reqSigs": 1, "hex": "76a91449c725435890928b2d44cf5df531800ba9a41a7c88ac", "addresses": ["17j6tt24t2eRCeYD6gwC98cKiuCLUgW6sQ"], "asm": "OP_DUP OP_HASH160 49c725435890928b2d44cf5df531800ba9a41a7c OP_EQUALVERIFY OP_CHECKSIG", "type": "pubkeyhash"}, "value": 0.9402, "n": 1}], "hex": "010000000196713f90a89a58a7e9b5079575afb8917a5c1ac5675859e5cab5889d0cee188c010000006b4830450221009a32d371b99459bb2b543f3f1ac103c724757341c5a6d58b032a84c57f5fd1fb02202e6b393ee3575316202fb19551fd8a4c274c888aa3f05a8f82ea23518ea3697e012103aa7550a2b71b8db252c6ffbfb307c14c19f2d77083a05c87ac74efed072ffbd1ffffffff02d2f42600000000001976a914207f53055096384fbec48d8014215b24809d2e5188aca0a19a05000000001976a91449c725435890928b2d44cf5df531800ba9a41a7c88ac00000000", "vin": [{"sequence": 4294967295, "scriptSig": {"hex": "4830450221009a32d371b99459bb2b543f3f1ac103c724757341c5a6d58b032a84c57f5fd1fb02202e6b393ee3575316202fb19551fd8a4c274c888aa3f05a8f82ea23518ea3697e012103aa7550a2b71b8db252c6ffbfb307c14c19f2d77083a05c87ac74efed072ffbd1", "asm": "30450221009a32d371b99459bb2b543f3f1ac103c724757341c5a6d58b032a84c57f5fd1fb02202e6b393ee3575316202fb19551fd8a4c274c888aa3f05a8f82ea23518ea3697e[ALL] 03aa7550a2b71b8db252c6ffbfb307c14c19f2d77083a05c87ac74efed072ffbd1"}, "vout": 1, "txid": "8c18ee0c9d88b5cae5595867c51a5c7a91b8af759507b5e9a7589aa8903f7196"}], "txid": "a3b8f02df0e4e47cd2074219b0724ad6f075aa9f5ebb19a86bf953d0dc2aa059", "blocktime": 1537875543, "version": 1, "confirmations": 11464, "time": 1537875543, "locktime": 0, "vsize": 226, "size": 226}