{"hash": "a3bf54ca2324b498e027520713ffe5e179e6f38dd922c583a337349d990236a2", "blockhash": "0000000000000000000baef3f32e3676a92c3b2e5da21b426e4f302fc371ce76", "vout": [{"scriptPubKey": {"reqSigs": 1, "hex": "76a914bd16870a6cf1441ecc0940c59cdac12fdf9b0a5d88ac", "addresses": ["1JEohVfnEGRmrMwS4ae8UMwdGiBMAPYo4f"], "asm": "OP_DUP OP_HASH160 bd16870a6cf1441ecc0940c59cdac12fdf9b0a5d OP_EQUALVERIFY OP_CHECKSIG", "type": "pubkeyhash"}, "value": 0.0047, "n": 0}, {"scriptPubKey": {"reqSigs": 1, "hex": "76a914b7888cc82fdecaf88856880550ac43fe948b8cae88ac", "addresses": ["1HjSEm71Kqt31Va9JhJk2SvztwotZkQJFN"], "asm": "OP_DUP OP_HASH160 b7888cc82fdecaf88856880550ac43fe948b8cae OP_EQUALVERIFY OP_CHECKSIG", "type": "pubkeyhash"}, "value": 0.00572235, "n": 1}], "hex": "02000000019b38074170338ac52bd3f528982c4087649a12c0cc91a0b07c698bca939e6403000000006b483045022100d170215dd314ac4db88056b7236ba761634c24553293801199f119d9472b19a7022021889ca803888ddcfba543b5951daa75a384f49b9a78c85d73c31c4e9b0f41f4012102bd0bb43ad58b8e2d4c3b79fcc4a04619b36e29409233ef941f26662fea790c7fffffffff02f02b0700000000001976a914bd16870a6cf1441ecc0940c59cdac12fdf9b0a5d88ac4bbb0800000000001976a914b7888cc82fdecaf88856880550ac43fe948b8cae88ac00000000", "vin": [{"sequence": 4294967295, "scriptSig": {"hex": "483045022100d170215dd314ac4db88056b7236ba761634c24553293801199f119d9472b19a7022021889ca803888ddcfba543b5951daa75a384f49b9a78c85d73c31c4e9b0f41f4012102bd0bb43ad58b8e2d4c3b79fcc4a04619b36e29409233ef941f26662fea790c7f", "asm": "3045022100d170215dd314ac4db88056b7236ba761634c24553293801199f119d9472b19a7022021889ca803888ddcfba543b5951daa75a384f49b9a78c85d73c31c4e9b0f41f4[ALL] 02bd0bb43ad58b8e2d4c3b79fcc4a04619b36e29409233ef941f26662fea790c7f"}, "vout": 0, "txid": "03649e93ca8b697cb0a091ccc0129a6487402c9828f5d32bc58a33704107389b"}], "txid": "a3bf54ca2324b498e027520713ffe5e179e6f38dd922c583a337349d990236a2", "blocktime": 1537876114, "version": 2, "confirmations": 11459, "time": 1537876114, "locktime": 0, "vsize": 226, "size": 226}