{"hash": "a3c918e0f5ecde35af3ae56a20566ac290fee21d7cea6c13cb30bbef76ddf0ff", "blockhash": "0000000000000000000baef3f32e3676a92c3b2e5da21b426e4f302fc371ce76", "vout": [{"scriptPubKey": {"type": "nulldata", "hex": "6a4c500000780d0001c78d17027948b65dd7fe9479702940d64fa54d8eb2d19ed074892d00f8e8f7d41f3189e6396d7460ecffa621c2e45baa1b3506145033477435ecbc9a9526289ac0f6612cd74e33776ee4", "asm": "OP_RETURN 0000780d0001c78d17027948b65dd7fe9479702940d64fa54d8eb2d19ed074892d00f8e8f7d41f3189e6396d7460ecffa621c2e45baa1b3506145033477435ecbc9a9526289ac0f6612cd74e33776ee4"}, "value": 0.0, "n": 0}, {"scriptPubKey": {"reqSigs": 1, "hex": "76a91489b568197c84c8aae8a7eaee387ac628c30c71d588ac", "addresses": ["1DZ8tdqATWeHbzSVXokTiTCmMF8M1vTyZK"], "asm": "OP_DUP OP_HASH160 89b568197c84c8aae8a7eaee387ac628c30c71d5 OP_EQUALVERIFY OP_CHECKSIG", "type": "pubkeyhash"}, "value": 0.00097644, "n": 1}], "hex": "010000000173c543099a9d67e2c7fa58f0598941f26f35c084c747f599da5949af22e67990000000006b483045022100b2fe93677265dc8e5d7059afa7146d7b6c5bc2689271d48cbb6084ec8199aa0602201348697f496adf8f9bfa5e55d360aff0571a2b03686667dca03d984f3b15a45c012103bf9bfcdde30548d2a06c7ea2735b8ce0dfad481abeba019d772e050052e41094ffffffff020000000000000000536a4c500000780d0001c78d17027948b65dd7fe9479702940d64fa54d8eb2d19ed074892d00f8e8f7d41f3189e6396d7460ecffa621c2e45baa1b3506145033477435ecbc9a9526289ac0f6612cd74e33776ee46c7d0100000000001976a91489b568197c84c8aae8a7eaee387ac628c30c71d588ac00000000", "vin": [{"sequence": 4294967295, "scriptSig": {"hex": "483045022100b2fe93677265dc8e5d7059afa7146d7b6c5bc2689271d48cbb6084ec8199aa0602201348697f496adf8f9bfa5e55d360aff0571a2b03686667dca03d984f3b15a45c012103bf9bfcdde30548d2a06c7ea2735b8ce0dfad481abeba019d772e050052e41094", "asm": "3045022100b2fe93677265dc8e5d7059afa7146d7b6c5bc2689271d48cbb6084ec8199aa0602201348697f496adf8f9bfa5e55d360aff0571a2b03686667dca03d984f3b15a45c[ALL] 03bf9bfcdde30548d2a06c7ea2735b8ce0dfad481abeba019d772e050052e41094"}, "vout": 0, "txid": "9079e622af4959da99f547c784c0356ff2418959f058fac7e2679d9a0943c573"}], "txid": "a3c918e0f5ecde35af3ae56a20566ac290fee21d7cea6c13cb30bbef76ddf0ff", "blocktime": 1537876114, "version": 1, "confirmations": 11460, "time": 1537876114, "locktime": 0, "vsize": 284, "size": 284}