{"hash": "a3cb32f78501efead023f04207343536653b06cbb411d7b5ccf5ea92a31a2d4c", "blockhash": "00000000000000000004ffacab907a6b429b9a5745fa0b75af4234bf69dd7176", "vout": [{"scriptPubKey": {"reqSigs": 1, "hex": "76a914efaf850aa5aaed9c39d0b39320330c6b4acb521388ac", "addresses": ["1NrLmAqVcaUHYvu8VVCbSG1PxnBeUq69sz"], "asm": "OP_DUP OP_HASH160 efaf850aa5aaed9c39d0b39320330c6b4acb5213 OP_EQUALVERIFY OP_CHECKSIG", "type": "pubkeyhash"}, "value": 0.0031232, "n": 0}, {"scriptPubKey": {"reqSigs": 1, "hex": "76a914368eefb880b25726b857f895d97eb8ed363c733d88ac", "addresses": ["15yUikmebrWtT5CXexmkdGnaRKtKgHtkBs"], "asm": "OP_DUP OP_HASH160 368eefb880b25726b857f895d97eb8ed363c733d OP_EQUALVERIFY OP_CHECKSIG", "type": "pubkeyhash"}, "value": 0.09056863, "n": 1}], "hex": "01000000018602884eeed805d05a79afe8f6ce94c2d73c2150c8aec22ae50aa012624e0034010000006b483045022100d7aac0f94b1f700725a510b4e0fcde61d0d5c201b83865456995309d628936c602202d0431eb4511868d8a2d283ad6af736f48b89bb7df49f09cdce46798ebe57837012102649a66aa766cc2aa68a6016102eadd17c10b6d04c1027115ceba5e0f1cbde99cfdffffff0200c40400000000001976a914efaf850aa5aaed9c39d0b39320330c6b4acb521388ac5f328a00000000001976a914368eefb880b25726b857f895d97eb8ed363c733d88ac16490800", "vin": [{"sequence": 4294967293, "scriptSig": {"hex": "483045022100d7aac0f94b1f700725a510b4e0fcde61d0d5c201b83865456995309d628936c602202d0431eb4511868d8a2d283ad6af736f48b89bb7df49f09cdce46798ebe57837012102649a66aa766cc2aa68a6016102eadd17c10b6d04c1027115ceba5e0f1cbde99c", "asm": "3045022100d7aac0f94b1f700725a510b4e0fcde61d0d5c201b83865456995309d628936c602202d0431eb4511868d8a2d283ad6af736f48b89bb7df49f09cdce46798ebe57837[ALL] 02649a66aa766cc2aa68a6016102eadd17c10b6d04c1027115ceba5e0f1cbde99c"}, "vout": 1, "txid": "34004e6212a00ae52ac2aec850213cd7c294cef6e8af795ad005d8ee4e880286"}], "txid": "a3cb32f78501efead023f04207343536653b06cbb411d7b5ccf5ea92a31a2d4c", "blocktime": 1537875543, "version": 1, "confirmations": 11464, "time": 1537875543, "locktime": 542998, "vsize": 226, "size": 226}