{"hash": "4549fd86bb8e671ce480ba0667b16171dc4c56bedc2c2f979391ea7985b40d83", "blockhash": "0000000000000000000dcc0f55137456b1a82d3642486a52398922ac4d620174", "vout": [{"scriptPubKey": {"reqSigs": 1, "hex": "76a914e340f2a407404cf5a2935fdbefe6422d3aa7d82288ac", "addresses": ["1MicCCXs2j5EMyHAPfMEhSuzUBSC53Sszj"], "asm": "OP_DUP OP_HASH160 e340f2a407404cf5a2935fdbefe6422d3aa7d822 OP_EQUALVERIFY OP_CHECKSIG", "type": "pubkeyhash"}, "value": 0.0027526, "n": 0}, {"scriptPubKey": {"reqSigs": 1, "hex": "a9142dad36e5adc22a6276e49fe5557a1b91a3457a3687", "addresses": ["35rXqKtmn2GKExa7AoWk5sN1vC2Sax8JzF"], "asm": "OP_HASH160 2dad36e5adc22a6276e49fe5557a1b91a3457a36 OP_EQUAL", "type": "scripthash"}, "value": 0.01000456, "n": 1}], "hex": "020000000001028cc82f4cafd27c748754074cde9d850d88dffcf7f80ec9e6f96df62479d01e720100000017160014cb2d665ca6f866f5e851791a21008e6c55dc06d5feffffffce0b0ee88c82a4703d67a0b5bf138fcb213b59a9799d5ddcc79416b37bdb7159100000001716001483274a28522ae780f59cca9aeb0590e6eba33ec7feffffff023c330400000000001976a914e340f2a407404cf5a2935fdbefe6422d3aa7d82288ac08440f000000000017a9142dad36e5adc22a6276e49fe5557a1b91a3457a368702483045022100fb01d9e86ce9890f9573e85fe17b27866e26acc104f4a9603b6174aeb42723ff02202ea982ae0a2b137704c59fcab1e5120dd0abbd44065c42c631dc73f73e490a2a012103e06acd7ab5c3ba4e856c7ba6626a176f8d2abfe459535c9bbc78002c5a02e46502483045022100bcecfbdfc8b9fb09ed2c477c272c16f834ffb5a993da1d712278de18dcd71c3e02201d51441b181e4cc2b5857b0955ae331f5af0ca9a455db45af0c72d4218771f630121039c7f04c8dd572415920b2f1a0c48d9ae45b0863bcdd31fa7338ac2e86ddaf9b00c490800", "vin": [{"txinwitness": ["3045022100fb01d9e86ce9890f9573e85fe17b27866e26acc104f4a9603b6174aeb42723ff02202ea982ae0a2b137704c59fcab1e5120dd0abbd44065c42c631dc73f73e490a2a01", "03e06acd7ab5c3ba4e856c7ba6626a176f8d2abfe459535c9bbc78002c5a02e465"], "sequence": 4294967294, "scriptSig": {"hex": "160014cb2d665ca6f866f5e851791a21008e6c55dc06d5", "asm": "0014cb2d665ca6f866f5e851791a21008e6c55dc06d5"}, "vout": 1, "txid": "721ed07924f66df9e6c90ef8f7fcdf880d859dde4c075487747cd2af4c2fc88c"}, {"txinwitness": ["3045022100bcecfbdfc8b9fb09ed2c477c272c16f834ffb5a993da1d712278de18dcd71c3e02201d51441b181e4cc2b5857b0955ae331f5af0ca9a455db45af0c72d4218771f6301", "039c7f04c8dd572415920b2f1a0c48d9ae45b0863bcdd31fa7338ac2e86ddaf9b0"], "sequence": 4294967294, "scriptSig": {"hex": "16001483274a28522ae780f59cca9aeb0590e6eba33ec7", "asm": "001483274a28522ae780f59cca9aeb0590e6eba33ec7"}, "vout": 16, "txid": "5971db7bb31694c7dc5d9d79a9593b21cb8f13bfb5a0673d70a4828ce80e0bce"}], "txid": "a3ce0d682f78852eb9f5ce09eb1eb9f3e60d5f252f17da3af8a407d876b079b4", "blocktime": 1537870268, "version": 2, "confirmations": 11518, "time": 1537870268, "locktime": 542988, "vsize": 259, "size": 422}