{"hash": "a3d47e4f063b9a76c80f33aef78a9a9d69b3560df77df9e06c4ef32b63f9ae37", "blockhash": "0000000000000000000baef3f32e3676a92c3b2e5da21b426e4f302fc371ce76", "vout": [{"scriptPubKey": {"reqSigs": 1, "hex": "76a9148e9804b281d6667c60122ddab48c2dc7ed628d1f88ac", "addresses": ["1Dzy4fH8Jq3NTzXWhZ9y4nbWDmCoSEb1c4"], "asm": "OP_DUP OP_HASH160 8e9804b281d6667c60122ddab48c2dc7ed628d1f OP_EQUALVERIFY OP_CHECKSIG", "type": "pubkeyhash"}, "value": 0.00631587, "n": 0}, {"scriptPubKey": {"type": "nulldata", "hex": "6a4c5000007807000163d7791cdde48e259720b791702940d64fa54d8eb2d19ed074892d00f8e8b2fb2c1f697233c2de859105462799725baa1abc06137fd16ced59941d100759d4ba30d2c37bb011d97e02cf", "asm": "OP_RETURN 00007807000163d7791cdde48e259720b791702940d64fa54d8eb2d19ed074892d00f8e8b2fb2c1f697233c2de859105462799725baa1abc06137fd16ced59941d100759d4ba30d2c37bb011d97e02cf"}, "value": 0.0, "n": 1}], "hex": "01000000015f0668dfe435a22a62de723ba059210b5b62b671ab694c2dcb4504a0d9fd72dc010000006b483045022100a83081f61763937444b6e25b885a7b91773efdd7a80f6e9e28c739fb7c4c2f73022014714771d86e0f79964309f37c15d1d2fe5c75dd59acf2f328d603f6273079620121021778d471ac72b39d2285cb663f06980cdbd4fa874aef9447e96f70950ccd86a3ffffffff0223a30900000000001976a9148e9804b281d6667c60122ddab48c2dc7ed628d1f88ac0000000000000000536a4c5000007807000163d7791cdde48e259720b791702940d64fa54d8eb2d19ed074892d00f8e8b2fb2c1f697233c2de859105462799725baa1abc06137fd16ced59941d100759d4ba30d2c37bb011d97e02cf00000000", "vin": [{"sequence": 4294967295, "scriptSig": {"hex": "483045022100a83081f61763937444b6e25b885a7b91773efdd7a80f6e9e28c739fb7c4c2f73022014714771d86e0f79964309f37c15d1d2fe5c75dd59acf2f328d603f6273079620121021778d471ac72b39d2285cb663f06980cdbd4fa874aef9447e96f70950ccd86a3", "asm": "3045022100a83081f61763937444b6e25b885a7b91773efdd7a80f6e9e28c739fb7c4c2f73022014714771d86e0f79964309f37c15d1d2fe5c75dd59acf2f328d603f627307962[ALL] 021778d471ac72b39d2285cb663f06980cdbd4fa874aef9447e96f70950ccd86a3"}, "vout": 1, "txid": "dc72fdd9a00445cb2d4c69ab71b6625b0b2159a03b72de622aa235e4df68065f"}], "txid": "a3d47e4f063b9a76c80f33aef78a9a9d69b3560df77df9e06c4ef32b63f9ae37", "blocktime": 1537876114, "version": 1, "confirmations": 11460, "time": 1537876114, "locktime": 0, "vsize": 284, "size": 284}