{"hash": "a3d6662d56c19af33adfb1ca8c1cfed62b86ecba85c5432cd4862dda8d088b62", "blockhash": "0000000000000000000baef3f32e3676a92c3b2e5da21b426e4f302fc371ce76", "vout": [{"scriptPubKey": {"reqSigs": 1, "hex": "76a914059ba334e42851bfc1db236504f68e4a0a89f0e488ac", "addresses": ["1WepqxJTRVa1PMvNLY4dMqKhXZXCLYXKU"], "asm": "OP_DUP OP_HASH160 059ba334e42851bfc1db236504f68e4a0a89f0e4 OP_EQUALVERIFY OP_CHECKSIG", "type": "pubkeyhash"}, "value": 8.081e-05, "n": 0}, {"scriptPubKey": {"reqSigs": 1, "hex": "a914d9e1c679de39de1fd1d0e99e91355fc3935b40e887", "addresses": ["3MZ52K9ETs3gek45y16FiRDTb111Y7e6Bc"], "asm": "OP_HASH160 d9e1c679de39de1fd1d0e99e91355fc3935b40e8 OP_EQUAL", "type": "scripthash"}, "value": 0.05992047, "n": 1}], "hex": "0100000002ad72d7868007cc756df23fe42384cec4741bf1974a56c2856b6c7a72a735c1a5010000006a47304402206627f2056f6104eacc225012535830110908e0a7a10daa406e3184d7b0ee7cd402201db095c95b14c848a478221b88183092531bd04d1628e868ffe2bf4e30a3ee730121037b5d4d87f730d76a99107a1f30a59efd043b35eb6631f469b2585609190c06fafdffffff694baa5fe30bfad2c874afb6636d86fb3a84fccdb8ce506461ceeba19359c4f3000000006b483045022100921ff1e8d519b3ab06e3a62f45acee5ea8bd8a62b2c35f2a679883a6fe0030bf02205324ad47700719e15317ff3d2bc32fa8d5ab6a83ef9ae102776edc3966bd3dd90121037eec125b45c6670a0b46518f2ce5cf7986267b74649831686e28ca9a49768a58fdffffff02911f0000000000001976a914059ba334e42851bfc1db236504f68e4a0a89f0e488ac6f6e5b000000000017a914d9e1c679de39de1fd1d0e99e91355fc3935b40e88717490800", "vin": [{"sequence": 4294967293, "scriptSig": {"hex": "47304402206627f2056f6104eacc225012535830110908e0a7a10daa406e3184d7b0ee7cd402201db095c95b14c848a478221b88183092531bd04d1628e868ffe2bf4e30a3ee730121037b5d4d87f730d76a99107a1f30a59efd043b35eb6631f469b2585609190c06fa", "asm": "304402206627f2056f6104eacc225012535830110908e0a7a10daa406e3184d7b0ee7cd402201db095c95b14c848a478221b88183092531bd04d1628e868ffe2bf4e30a3ee73[ALL] 037b5d4d87f730d76a99107a1f30a59efd043b35eb6631f469b2585609190c06fa"}, "vout": 1, "txid": "a5c135a7727a6c6b85c2564a97f11b74c4ce8423e43ff26d75cc078086d772ad"}, {"sequence": 4294967293, "scriptSig": {"hex": "483045022100921ff1e8d519b3ab06e3a62f45acee5ea8bd8a62b2c35f2a679883a6fe0030bf02205324ad47700719e15317ff3d2bc32fa8d5ab6a83ef9ae102776edc3966bd3dd90121037eec125b45c6670a0b46518f2ce5cf7986267b74649831686e28ca9a49768a58", "asm": "3045022100921ff1e8d519b3ab06e3a62f45acee5ea8bd8a62b2c35f2a679883a6fe0030bf02205324ad47700719e15317ff3d2bc32fa8d5ab6a83ef9ae102776edc3966bd3dd9[ALL] 037eec125b45c6670a0b46518f2ce5cf7986267b74649831686e28ca9a49768a58"}, "vout": 0, "txid": "f3c45993a1ebce616450ceb8cdfc843afb866d63b6af74c8d2fa0be35faa4b69"}], "txid": "a3d6662d56c19af33adfb1ca8c1cfed62b86ecba85c5432cd4862dda8d088b62", "blocktime": 1537876114, "version": 1, "confirmations": 11460, "time": 1537876114, "locktime": 542999, "vsize": 371, "size": 371}