{"hash": "a3d8390312d0c620475178dc8ce5ef24e5793da5197034c940d00c81d5c3fd5e", "blockhash": "00000000000000000017f5eb5941039fbcee6240d03bc1f2f8e35350df66a1d8", "vout": [{"scriptPubKey": {"reqSigs": 1, "hex": "76a914ec3103cc1ccbcb7c6be5ae4603011677cd89337388ac", "addresses": ["1NXsBtB3yemjW1jgzmnx1FSLqtfG6qiTkv"], "asm": "OP_DUP OP_HASH160 ec3103cc1ccbcb7c6be5ae4603011677cd893373 OP_EQUALVERIFY OP_CHECKSIG", "type": "pubkeyhash"}, "value": 0.10846675, "n": 0}, {"scriptPubKey": {"reqSigs": 1, "hex": "76a9141d4f783dd452b2dda42c785f9802fbddde096bf288ac", "addresses": ["13fyoDRWn8ZzaBfWYrB9F9FLJAm3ugCoNG"], "asm": "OP_DUP OP_HASH160 1d4f783dd452b2dda42c785f9802fbddde096bf2 OP_EQUALVERIFY OP_CHECKSIG", "type": "pubkeyhash"}, "value": 1.71, "n": 1}], "hex": "0100000006e4225753bf88ae564ccc5d75c8cfaf8e4317d00171103a5a69c4d6f2d61f8346010000006a473044022039f74f26738428ed26f78648a60b9b9e57e4bee6776fb337b833fb5a717778d102203392603362a451d1e404e6cf4613dcf99c43a2e638ae1e0ea4a99e6b11590af80121030e88252f51c47b7ca48f11f5efe76c9dd2429562b1ef2d4a5d62aef4ff77527fffffffff89e4b9ea9a38e79882e0b6d7cd61c340ddec7edaa0a0926c7a5ba8bf83173079010000006a473044022014933baf5ce308b53b8ca228907ac5ebe4d37fbc5ab7193e714e8017d81742f102205997fcdcddb929d41a69fa51e29970012489b50d5fa92a26af5ea19624a051010121030e88252f51c47b7ca48f11f5efe76c9dd2429562b1ef2d4a5d62aef4ff77527fffffffff18fb0bff19b301b0209934c7fdaed515e5f84b5b342dbd5157f6441800bef47a000000006a4730440220362dd1497daa2d4f857b5a6937dea13c4dad890e37a368d8eed1114bc7180399022024dbac9069793c3c8ba4b8ce89ba071aeb7ba84cf2fa737517c45c9c70e810360121030e88252f51c47b7ca48f11f5efe76c9dd2429562b1ef2d4a5d62aef4ff77527fffffffff9040fce9bcf7a1e840a6adb2625225cc2a271be96930194d6286c6868c4203b1010000006b483045022100c73b178bfc38bb4deec11edfedd2b8e5d58001afd69293bfcae16ab8bcc49c380220287f4a454b7725709e4161802ccce09f42b1293bc1120b3c3cf1e437b78bd5660121030e88252f51c47b7ca48f11f5efe76c9dd2429562b1ef2d4a5d62aef4ff77527fffffffffc543ecafbb7de45817583f16ded41ff3e4816b0c709da77b4aab23401be03dbd010000006b48304502210092fc8d43e40458573da923a62ee9533c2a0db097472a133cda46d936da5143170220700254ca0e6380816e3d9d2013f0ef1b4ba5103c78752bcfba575a52b39dae1a0121030e88252f51c47b7ca48f11f5efe76c9dd2429562b1ef2d4a5d62aef4ff77527fffffffff639703e8f773fb9256b72d5c6c7ecb1ffbfb7d1d605f7f07d8536cb109e345fd010000006b483045022100954a46aea43289b1b61f383d9a181210eb79166802b4953c2426c92b50c191a602201220f4bff0d863c212f6adc2be3a2733a644155ee56fcb074fd64337e82694560121030e88252f51c47b7ca48f11f5efe76c9dd2429562b1ef2d4a5d62aef4ff77527fffffffff02d381a500000000001976a914ec3103cc1ccbcb7c6be5ae4603011677cd89337388acc040310a000000001976a9141d4f783dd452b2dda42c785f9802fbddde096bf288ac00000000", "vin": [{"sequence": 4294967295, "scriptSig": {"hex": "473044022039f74f26738428ed26f78648a60b9b9e57e4bee6776fb337b833fb5a717778d102203392603362a451d1e404e6cf4613dcf99c43a2e638ae1e0ea4a99e6b11590af80121030e88252f51c47b7ca48f11f5efe76c9dd2429562b1ef2d4a5d62aef4ff77527f", "asm": "3044022039f74f26738428ed26f78648a60b9b9e57e4bee6776fb337b833fb5a717778d102203392603362a451d1e404e6cf4613dcf99c43a2e638ae1e0ea4a99e6b11590af8[ALL] 030e88252f51c47b7ca48f11f5efe76c9dd2429562b1ef2d4a5d62aef4ff77527f"}, "vout": 1, "txid": "46831fd6f2d6c4695a3a107101d017438eafcfc8755dcc4c56ae88bf535722e4"}, {"sequence": 4294967295, "scriptSig": {"hex": "473044022014933baf5ce308b53b8ca228907ac5ebe4d37fbc5ab7193e714e8017d81742f102205997fcdcddb929d41a69fa51e29970012489b50d5fa92a26af5ea19624a051010121030e88252f51c47b7ca48f11f5efe76c9dd2429562b1ef2d4a5d62aef4ff77527f", "asm": "3044022014933baf5ce308b53b8ca228907ac5ebe4d37fbc5ab7193e714e8017d81742f102205997fcdcddb929d41a69fa51e29970012489b50d5fa92a26af5ea19624a05101[ALL] 030e88252f51c47b7ca48f11f5efe76c9dd2429562b1ef2d4a5d62aef4ff77527f"}, "vout": 1, "txid": "79301783bfa85b7a6c92a0a0da7eecdd40c361cdd7b6e08298e7389aeab9e489"}, {"sequence": 4294967295, "scriptSig": {"hex": "4730440220362dd1497daa2d4f857b5a6937dea13c4dad890e37a368d8eed1114bc7180399022024dbac9069793c3c8ba4b8ce89ba071aeb7ba84cf2fa737517c45c9c70e810360121030e88252f51c47b7ca48f11f5efe76c9dd2429562b1ef2d4a5d62aef4ff77527f", "asm": "30440220362dd1497daa2d4f857b5a6937dea13c4dad890e37a368d8eed1114bc7180399022024dbac9069793c3c8ba4b8ce89ba071aeb7ba84cf2fa737517c45c9c70e81036[ALL] 030e88252f51c47b7ca48f11f5efe76c9dd2429562b1ef2d4a5d62aef4ff77527f"}, "vout": 0, "txid": "7af4be001844f65751bd2d345b4bf8e515d5aefdc7349920b001b319ff0bfb18"}, {"sequence": 4294967295, "scriptSig": {"hex": "483045022100c73b178bfc38bb4deec11edfedd2b8e5d58001afd69293bfcae16ab8bcc49c380220287f4a454b7725709e4161802ccce09f42b1293bc1120b3c3cf1e437b78bd5660121030e88252f51c47b7ca48f11f5efe76c9dd2429562b1ef2d4a5d62aef4ff77527f", "asm": "3045022100c73b178bfc38bb4deec11edfedd2b8e5d58001afd69293bfcae16ab8bcc49c380220287f4a454b7725709e4161802ccce09f42b1293bc1120b3c3cf1e437b78bd566[ALL] 030e88252f51c47b7ca48f11f5efe76c9dd2429562b1ef2d4a5d62aef4ff77527f"}, "vout": 1, "txid": "b103428c86c686624d193069e91b272acc255262b2ada640e8a1f7bce9fc4090"}, {"sequence": 4294967295, "scriptSig": {"hex": "48304502210092fc8d43e40458573da923a62ee9533c2a0db097472a133cda46d936da5143170220700254ca0e6380816e3d9d2013f0ef1b4ba5103c78752bcfba575a52b39dae1a0121030e88252f51c47b7ca48f11f5efe76c9dd2429562b1ef2d4a5d62aef4ff77527f", "asm": "304502210092fc8d43e40458573da923a62ee9533c2a0db097472a133cda46d936da5143170220700254ca0e6380816e3d9d2013f0ef1b4ba5103c78752bcfba575a52b39dae1a[ALL] 030e88252f51c47b7ca48f11f5efe76c9dd2429562b1ef2d4a5d62aef4ff77527f"}, "vout": 1, "txid": "bd3de01b4023ab4a7ba79d700c6b81e4f31fd4de163f581758e47dbbafec43c5"}, {"sequence": 4294967295, "scriptSig": {"hex": "483045022100954a46aea43289b1b61f383d9a181210eb79166802b4953c2426c92b50c191a602201220f4bff0d863c212f6adc2be3a2733a644155ee56fcb074fd64337e82694560121030e88252f51c47b7ca48f11f5efe76c9dd2429562b1ef2d4a5d62aef4ff77527f", "asm": "3045022100954a46aea43289b1b61f383d9a181210eb79166802b4953c2426c92b50c191a602201220f4bff0d863c212f6adc2be3a2733a644155ee56fcb074fd64337e8269456[ALL] 030e88252f51c47b7ca48f11f5efe76c9dd2429562b1ef2d4a5d62aef4ff77527f"}, "vout": 1, "txid": "fd45e309b16c53d8077f5f601d7dfbfb1fcb7e6c5c2db75692fb73f7e8039763"}], "txid": "a3d8390312d0c620475178dc8ce5ef24e5793da5197034c940d00c81d5c3fd5e", "blocktime": 1537874412, "version": 1, "confirmations": 11467, "time": 1537874412, "locktime": 0, "vsize": 963, "size": 963}