{"hash": "a3dafbae52bde31ba75388e4ee8f92133b9fd643c2b3482606edea30ede71365", "blockhash": "0000000000000000000e13cef7c366c0283d82e591d1acd082e914b08063cdf1", "vout": [{"scriptPubKey": {"reqSigs": 1, "hex": "76a914d243e6abb9a60fbff430b421d2df4b7d59ec186088ac", "addresses": ["1LAnF8h3qMGx3TSwNUHVneBZUEpwE4gu3D"], "asm": "OP_DUP OP_HASH160 d243e6abb9a60fbff430b421d2df4b7d59ec1860 OP_EQUALVERIFY OP_CHECKSIG", "type": "pubkeyhash"}, "value": 0.00077314, "n": 0}, {"scriptPubKey": {"reqSigs": 1, "hex": "76a9142eea16557068184916b5658bcba02ad7b008876e88ac", "addresses": ["15H4WVUEyrws7BXkqt2sUSpVVg1uDNEUXx"], "asm": "OP_DUP OP_HASH160 2eea16557068184916b5658bcba02ad7b008876e OP_EQUALVERIFY OP_CHECKSIG", "type": "pubkeyhash"}, "value": 5.46e-06, "n": 1}, {"scriptPubKey": {"type": "nulldata", "hex": "6a146f6d6e69000000000000001f0000000a5c681d00", "asm": "OP_RETURN 6f6d6e69000000000000001f0000000a5c681d00"}, "value": 0.0, "n": 2}], "hex": "0100000001081eeccb9aa951e8d4058631bafe6132558f0fe67155d850792d63ef39826c91000000006a47304402202a6fbb8e399682182a128159290b06044bfdc5866f0b25a3cb3c9e4ab6ae813002202b67a2a48728e9c75c40aac971b6fcf4dec83371e3636b0e6e0643a24b67eeba01210271977291b74f1f5f5c42157e8aae804664eaaeccfd097918450d37f28fb94d77ffffffff03022e0100000000001976a914d243e6abb9a60fbff430b421d2df4b7d59ec186088ac22020000000000001976a9142eea16557068184916b5658bcba02ad7b008876e88ac0000000000000000166a146f6d6e69000000000000001f0000000a5c681d0000000000", "vin": [{"sequence": 4294967295, "scriptSig": {"hex": "47304402202a6fbb8e399682182a128159290b06044bfdc5866f0b25a3cb3c9e4ab6ae813002202b67a2a48728e9c75c40aac971b6fcf4dec83371e3636b0e6e0643a24b67eeba01210271977291b74f1f5f5c42157e8aae804664eaaeccfd097918450d37f28fb94d77", "asm": "304402202a6fbb8e399682182a128159290b06044bfdc5866f0b25a3cb3c9e4ab6ae813002202b67a2a48728e9c75c40aac971b6fcf4dec83371e3636b0e6e0643a24b67eeba[ALL] 0271977291b74f1f5f5c42157e8aae804664eaaeccfd097918450d37f28fb94d77"}, "vout": 0, "txid": "916c8239ef632d7950d85571e60f8f553261feba318605d4e851a99acbec1e08"}], "txid": "a3dafbae52bde31ba75388e4ee8f92133b9fd643c2b3482606edea30ede71365", "blocktime": 1537871767, "version": 1, "confirmations": 11491, "time": 1537871767, "locktime": 0, "vsize": 256, "size": 256}