{"hash": "a3dcae7deb1ed487f20f8918359b8b8d239e64bd5f8b6374e8a414f6073fd5cb", "blockhash": "00000000000000000004ffacab907a6b429b9a5745fa0b75af4234bf69dd7176", "vout": [{"scriptPubKey": {"reqSigs": 1, "hex": "76a914e104df7c9705627eb2620dea9dad450662be5a9988ac", "addresses": ["1MWnsk81Jj9FCc7tLa2z1Y2p79Pxee1eot"], "asm": "OP_DUP OP_HASH160 e104df7c9705627eb2620dea9dad450662be5a99 OP_EQUALVERIFY OP_CHECKSIG", "type": "pubkeyhash"}, "value": 0.01905637, "n": 0}, {"scriptPubKey": {"reqSigs": 1, "hex": "76a91443d91d8132c65e25b46855e516d16a78c66119f188ac", "addresses": ["17BkNHXGHFaebsqj8MxymaRK3Vjdw7taxE"], "asm": "OP_DUP OP_HASH160 43d91d8132c65e25b46855e516d16a78c66119f1 OP_EQUALVERIFY OP_CHECKSIG", "type": "pubkeyhash"}, "value": 0.0720036, "n": 1}], "hex": "0100000001940f8d53bc86839f6b4a4669c26c95f64d5813c9fc544ad17c07265b809eccb1020000006b48304502210098595929e94df60a1e7d65c235a73169b578bdf9dee53f10b4a7c76c65723ebc0220609156efa4cdd832b8918432dc57246c6d7c4064ba4822c9d5284133b4e827bf01210294dec1b3324391659524756776c68efdf512497d42a107c2232dfbd53498a6edfdffffff02e5131d00000000001976a914e104df7c9705627eb2620dea9dad450662be5a9988ac68de6d00000000001976a91443d91d8132c65e25b46855e516d16a78c66119f188ac16490800", "vin": [{"sequence": 4294967293, "scriptSig": {"hex": "48304502210098595929e94df60a1e7d65c235a73169b578bdf9dee53f10b4a7c76c65723ebc0220609156efa4cdd832b8918432dc57246c6d7c4064ba4822c9d5284133b4e827bf01210294dec1b3324391659524756776c68efdf512497d42a107c2232dfbd53498a6ed", "asm": "304502210098595929e94df60a1e7d65c235a73169b578bdf9dee53f10b4a7c76c65723ebc0220609156efa4cdd832b8918432dc57246c6d7c4064ba4822c9d5284133b4e827bf[ALL] 0294dec1b3324391659524756776c68efdf512497d42a107c2232dfbd53498a6ed"}, "vout": 2, "txid": "b1cc9e805b26077cd14a54fcc913584df6956cc269464a6b9f8386bc538d0f94"}], "txid": "a3dcae7deb1ed487f20f8918359b8b8d239e64bd5f8b6374e8a414f6073fd5cb", "blocktime": 1537875543, "version": 1, "confirmations": 11464, "time": 1537875543, "locktime": 542998, "vsize": 226, "size": 226}