{"hash": "7d60fb2503248a812543562b9c5509514e4ad02dff231fa61d6d22a08fd1d0a8", "blockhash": "0000000000000000000dcc0f55137456b1a82d3642486a52398922ac4d620174", "vout": [{"scriptPubKey": {"reqSigs": 1, "hex": "76a914ee343bb434b530312b2d918972c12be17e81ef4f88ac", "addresses": ["1NiWPtENKWJJEfmrZyxfvH1hPgHRxVTwvp"], "asm": "OP_DUP OP_HASH160 ee343bb434b530312b2d918972c12be17e81ef4f OP_EQUALVERIFY OP_CHECKSIG", "type": "pubkeyhash"}, "value": 0.5277397, "n": 0}, {"scriptPubKey": {"reqSigs": 1, "hex": "a9147278c9613a092a47a50d4da82bbe7d7a5999979e87", "addresses": ["3C8HepEsSaAni21PAnJCSFqELMPtEzim52"], "asm": "OP_HASH160 7278c9613a092a47a50d4da82bbe7d7a5999979e OP_EQUAL", "type": "scripthash"}, "value": 0.36008675, "n": 1}], "hex": "02000000000101b63305b4aae361830b1708bc3bbdb77981de8eebf3c66fee22eeae32fca9ba8a01000000171600141dd0b98aa63b6766e08906e2119509854c4c1ce7fdffffff0252442503000000001976a914ee343bb434b530312b2d918972c12be17e81ef4f88ace37225020000000017a9147278c9613a092a47a50d4da82bbe7d7a5999979e8702483045022100c33d02d5df4821c583d1dd60aaf3c008de57438552d9382789c358aecf37386c022049481abea20491f52319f813217cc9a26929a0fefd0ceb08d937f1c1291aaa3a0121025e5fc885bb3d2cf9d3397c9b48490135079735466716355064e3c0a168bb41c80c490800", "vin": [{"txinwitness": ["3045022100c33d02d5df4821c583d1dd60aaf3c008de57438552d9382789c358aecf37386c022049481abea20491f52319f813217cc9a26929a0fefd0ceb08d937f1c1291aaa3a01", "025e5fc885bb3d2cf9d3397c9b48490135079735466716355064e3c0a168bb41c8"], "sequence": 4294967293, "scriptSig": {"hex": "1600141dd0b98aa63b6766e08906e2119509854c4c1ce7", "asm": "00141dd0b98aa63b6766e08906e2119509854c4c1ce7"}, "vout": 1, "txid": "8abaa9fc32aeee22ee6fc6f3eb8ede8179b7bd3bbc08170b8361e3aab40533b6"}], "txid": "a3eaa99f950e1101e50982f32766b1b8b8b0955392b2ebf56b154eef5f6594b1", "blocktime": 1537870268, "version": 2, "confirmations": 11516, "time": 1537870268, "locktime": 542988, "vsize": 168, "size": 250}