{"hash": "a3eff2eee9f75e8369853eaf5ad9c268cffedac5c89c844ec0225ab4de648d4b", "blockhash": "000000000000000000022b45ed06c6f4ccd3cf7fb5ba4856ebd2e58215665228", "vout": [{"scriptPubKey": {"reqSigs": 1, "hex": "76a91451f3526c4513706284a48fa82263cfe83fe1428f88ac", "addresses": ["18UKDqzjmgixS3LJCR3D9ahnTnY16zeQMz"], "asm": "OP_DUP OP_HASH160 51f3526c4513706284a48fa82263cfe83fe1428f OP_EQUALVERIFY OP_CHECKSIG", "type": "pubkeyhash"}, "value": 0.00106635, "n": 0}, {"scriptPubKey": {"reqSigs": 1, "hex": "76a914d1289cb92a26382e412e88a4201ecca6c14f7c3c88ac", "addresses": ["1L4vssucjYf9atQuAZtMmSdwGX5FJWdEBY"], "asm": "OP_DUP OP_HASH160 d1289cb92a26382e412e88a4201ecca6c14f7c3c OP_EQUALVERIFY OP_CHECKSIG", "type": "pubkeyhash"}, "value": 0.074225, "n": 1}], "hex": "0100000002a8c91b6e076d07c6294bc7aef5a0b4774c08d91d2313773e12a90b5df292f9c4000000006a473044022055fb8c31bbb21ecf57cb5a899ecd7584c323b573794b355db10aee0a0344a0cd02205cc01cc37f3c43726bc3972593456c91a0cde9fcb212cbd373bb278b3bea934f012102f3f440a2355691916d4e474f499623200d194542b4931aaf8225dc7a3dc3a993ffffffff4cbcaff1dfd916ebf3aefa51f76bfaf20cec9e0911484e53d37105b5c97bf25e000000006b48304502210086300b7432618ebf0cbdcf2142c2774adafc3464d61b39acbe9d2d47daba8a9d0220639d4de0c106233012e342870dd430714305a7007e9cc6724fad87ad3b54f604012102c35a251f8aac962070d6199b150e0aa53a772ea712e7f59dfd73f6d82439ae88ffffffff028ba00100000000001976a91451f3526c4513706284a48fa82263cfe83fe1428f88ac24427100000000001976a914d1289cb92a26382e412e88a4201ecca6c14f7c3c88ac00000000", "vin": [{"sequence": 4294967295, "scriptSig": {"hex": "473044022055fb8c31bbb21ecf57cb5a899ecd7584c323b573794b355db10aee0a0344a0cd02205cc01cc37f3c43726bc3972593456c91a0cde9fcb212cbd373bb278b3bea934f012102f3f440a2355691916d4e474f499623200d194542b4931aaf8225dc7a3dc3a993", "asm": "3044022055fb8c31bbb21ecf57cb5a899ecd7584c323b573794b355db10aee0a0344a0cd02205cc01cc37f3c43726bc3972593456c91a0cde9fcb212cbd373bb278b3bea934f[ALL] 02f3f440a2355691916d4e474f499623200d194542b4931aaf8225dc7a3dc3a993"}, "vout": 0, "txid": "c4f992f25d0ba9123e7713231dd9084c77b4a0f5aec74b29c6076d076e1bc9a8"}, {"sequence": 4294967295, "scriptSig": {"hex": "48304502210086300b7432618ebf0cbdcf2142c2774adafc3464d61b39acbe9d2d47daba8a9d0220639d4de0c106233012e342870dd430714305a7007e9cc6724fad87ad3b54f604012102c35a251f8aac962070d6199b150e0aa53a772ea712e7f59dfd73f6d82439ae88", "asm": "304502210086300b7432618ebf0cbdcf2142c2774adafc3464d61b39acbe9d2d47daba8a9d0220639d4de0c106233012e342870dd430714305a7007e9cc6724fad87ad3b54f604[ALL] 02c35a251f8aac962070d6199b150e0aa53a772ea712e7f59dfd73f6d82439ae88"}, "vout": 0, "txid": "5ef27bc9b50571d3534e4811099eec0cf2fa6bf751faaef3eb16d9dff1afbc4c"}], "txid": "a3eff2eee9f75e8369853eaf5ad9c268cffedac5c89c844ec0225ab4de648d4b", "blocktime": 1537869901, "version": 1, "confirmations": 11524, "time": 1537869901, "locktime": 0, "vsize": 373, "size": 373}