{"hash": "1762a5b19387a8ec06f5d3eef5d40cea2dffe7f9222eec1927dac2ecaa0d30bb", "blockhash": "0000000000000000001e0dab787dd257d1dbfcb92a98c2207d5e1078be1f4165", "vout": [{"scriptPubKey": {"reqSigs": 1, "hex": "a9140d7abb4d29d0b3ce73edab375bb5fbf73ef94a4987", "addresses": ["32vHjahWJdfh1XkzkDNtgBpoT9pYLQZ8qY"], "asm": "OP_HASH160 0d7abb4d29d0b3ce73edab375bb5fbf73ef94a49 OP_EQUAL", "type": "scripthash"}, "value": 0.00996212, "n": 0}, {"scriptPubKey": {"reqSigs": 1, "hex": "a914c42f991d98216a5cec3d55aa91fd261262e9d74987", "addresses": ["3KaMPKLjHCefBiQrU121SnLHeuFzbUQWu3"], "asm": "OP_HASH160 c42f991d98216a5cec3d55aa91fd261262e9d749 OP_EQUAL", "type": "scripthash"}, "value": 0.54752047, "n": 1}], "hex": "0200000000012902b4909f5a504530ca4f7e91272652bfae593594ede457150018a249cd22abe500000000171600140f62f2ca20f48affe23852e1abe3d06c5e67b663feffffff051dd9ca21e66f936560b5fc8a451b4990b4f7889c0b43f4fbb0e36db797c40e00000000171600144119039bea99f83fc3213dff3702023e7a7da50dfeffffff07dac78474f21ea9d3828f99eb010225db60604c76d0efe696b651918cc544f600000000171600148c161af41d96477adf0f62e85eef4a9ed474d3fcfeffffff0b6a92c61e54cee5c2c75ab8c61e181f96f82036b9f0444c0a783c8ed16f28d100000000171600141e8802a9c312b57e31b691d2f4db2f7be91e303efeffffff0b777f7c64e65f750edafffaadadc095bd79eb12892394d86b488b430318289700000000171600143fd81ebf413d922c7c22e423fd22c16c5e8156d5feffffff0bcc9a6a1f89f34edc6e15f99e0f2323c07595906e792c88e51cf6c47de812580000000017160014fe65989eb538ceed6d9a0f415993df182f30c8dcfeffffff0c5bf7785abcd2a0c585023ccfefbfb1e293c2d3b6e3351d5911d518089a77940100000017160014e43df912676f7d26cf934cd1c8fe98d1f712cc90feffffff143a27775d81cd8e0eda7be03be0c924b1b7bf8b1c7cee0bbbe225c47441e3f70100000017160014df707c5b7da1377f18e1033a49ea2eb89e06d011feffffff2b57bf95260e8fbe9ef5cacbd6b53dc47cab5fa5716dda6fd40991c8bf61430b0100000017160014763d22896802a65e454e91fc7c95febf87c0bd3ffeffffff2f8b193e7230f20f9bc3f0705d9fc7dfb2806b88e59772fd047f8c0c12247da50100000017160014ab71afd4b7af596889456e560c4bd47abe0e8a7afeffffff302371dfae198dc9095a95c45df8dded7d025f7451d7b259efaafbc6ed0134330100000017160014d090969894e1417f6c9e6e8ca6fe0736df6e5231feffffff33b5c7579d03d3fb24edd8eff2da4183ae823478f0156269583e71c6b6cb7719090000001716001405f76f16140603e46d8056dc05d6a7aaa9d1aaf4feffffff33c5c75bd2c46174a8775b689724a4a7958a12f458666ecfe600f8353e2ab71e000000001716001462f85d9e4175fc3d55c305281102826c0468e0dbfeffffff38707e67428c54b05e0c6d2706b122e062ae75884b417d077b66dee21233181801000000171600141ed94c50e8fabc5d7a8e99d4285e76f73c6eb62ffeffffff4911c4c5ffcb8f3fd17a4c1fd068b691a5bb72fc681b96b0230d305255ae2a480100000017160014e1fdda636ddc90a520b05408a452363993194ef7feffffff49ed99989faa5464bf2bb9d067ee81388243559daa8acef9f3b8cea63c0deaea0000000017160014f4324a2029796b6d0620df4809b2507eb30f3e41feffffff5cb65f7ab3e2e0b2b599097b51e7af7748869ac95c7c2732140089631ab2c2b20000000017160014c04a1de74015b193748cef041716e29d0cc429e5feffffff61a53dc891a809af81d6bb5b95b8a07b2a75a5bdf09e1cde2c38d73c78f598d60600000017160014492008f3b7d73972dcd9ef9a8fc911a5c84e8d84feffffff61a53dc891a809af81d6bb5b95b8a07b2a75a5bdf09e1cde2c38d73c78f598d6090000001716001469519cd1ef2ee46f586fe421d975d967361116cbfeffffff62997f275c2abdf4edd5829f66854be89a8ae1d5fdd0650d37f0265f78203ccd0000000017160014a375af5ef88c728fc97c0facf94be2e4026955f8feffffff648a6f1197ade53e6711a1ee8521bf4bc2754a2100946212d7f68c3f8c7dd1750100000017160014fe981a05a072f38c6c0bfc4b233b4170d4210da3feffffff64e24354e8751abdce2d83967c2aced46d1f79d3b5e74347356bf51caaa54d4100000000171600143186c1e5409aa5f51a8bd252f12d773f67f958eafeffffff6ad4e294e8ca896f4cc9800f786e18cbe9a6d82bbf35b6ec09a2efcd25e5d0e30000000017160014a025ace4a7006689eef551d2202c1b7bea5ac97efeffffff6eb79fcc68649c71480c9b112d8b3e816d04e65c45beb9d8b6734066c61dcc970000000017160014aed711914b4471b28d12bc728708d749b7229ff6feffffff6ff9b2a3a14019d04e686a04b31059f48b49b6b20d9b554b2fb0abb61d100dfb0100000017160014f40847e19822939961386cdbf3f06ae0b7fd219bfeffffff8405f57af1fe842303143d5b5ee2f61dbcf971eedcdc8f76abad33a723ae6c9101000000171600140b2b7d3d7333732e1e3a0ab0825de4dc4aa4b17afeffffff9432c50faa0fd9962ea34f6d337bb9cf11cb444a33cec4770d6e22763cf935940000000017160014aabdc096e2d6dc605890aabe7964bdf01acdaef4feffffffa2eee6c01d8bd577ed0fcb7b7504db53af64c71107dce938a5363bfb98b00716000000001716001486a7a8fe9db461b43fc12427dd23828727cc4f8efeffffffa65bd26d4497006bdd0dbe8aaf88c1676685a1516e24e70afc3fff49e93cdd6d0100000017160014f02b11a1a2946babde6c75b7a6ab0b19137e6d09feffffffa7e25e799ccd7c1579908a6a564852850ec182cd5121fdc79410f0278a27f1f40100000017160014bcd2ff4a451d7f482e925c72b0730379085f273bfeffffffaa2b9907742f4b8f9c95c392ecd0f7313fc4f672010a0bbd7506b85c5accc0e200000000171600142d7ec288b6058a7f33d88e408438edb304cb65d1feffffffafb346e720addaab6b2bca8be1ea376d221ab6cc8d4f69ae2eb7e62dd53361480000000017160014c365bc0da9ab45d7eb055ab7db2c767d5fdd4cd8feffffffb97be26e8b43a485f7fc4d31d8827f722637cace3be33f5cfe79cf947d5f109b00000000171600141f049a4aee336884d37d726d97b81fb65a52740ffeffffffbb286097e028e2a94485a50c3a0cc7924e0576cefc7cf52a66013528a1eae192010000001716001468a77c62e7904a08f044891c4ac1c51e5d98be26feffffffc3041764a5b4aef505679912dfd366c6c530f98556a4093c91860e1f911e9ae7000000001716001422f856065d7c306c87d3f291ce36249682c385dafeffffffc70aa83d45255604578d40b5a4cd8bd98781678f309f3095c8421d35f8e5438a00000000171600144e1528b4becef81b928a429464dbeea09b663d5dfeffffffd351e312ba73f56dc7eb2bda2fd52f61df495c38e7fb2d4c505f95eeb815e01401000000171600148af5dad85235c70af4d38c0400bda13f615a606dfeffffffd568bc77935797e62d3db26360f49a26b056b2c6ef6dfa58fada4f3dcf1fc0d70100000017160014f3dc271d8767e653eb7c3d6b1ed3e656295ccae9feffffffd686974e46413399519687e86652102fce132cd77748a1b8de66d3fe640563be0000000017160014990b73527007a61b779e53e2e92d5a223789d295feffffffe0883bfc905780ba0244c5b363f2c69e9a5b73f772a967fdaa58e339a946e1c90000000017160014ea88334115aef3ac455212a40dae37b692c422e9fefffffff7a534c68b6de6dbef1886622f8f0fa96d55012cbf38497fce20f9b195ef2e050100000017160014e727e0200536192df6d37082ed043a5679cc3625feffffff0274330f000000000017a9140d7abb4d29d0b3ce73edab375bb5fbf73ef94a49872f7343030000000017a914c42f991d98216a5cec3d55aa91fd261262e9d749870247304402207243c28cb9329a3a7db683a9af037d0653c07a71df6a48a531b76ca7f2a0624a022070962edd164e2ec92d3dc1dd08349700918b8344643474bcf5c996a3445d1e2d01210336482f71afcc9db9c5b70578abd155606ee7f5afc4669de3e113b205e42dfa7b0248304502210090a79ade9c5381323a815c6d029e644b3ad33b9fc5102a4245f5511f14cfa49002205f155aaa899c482352fa4a1b1682685f5788c28078f8309ab1b0bc97a18f01ae0121039dd58aa336310839d96b34a5131676350fa5dceaf217e748e0258dd735deb06502473044022010ed2946606601264147e5935b375242a61ec6c69bbd519614d2992989276ee802200601357f754af6624f5957bf7e2259c885df96873e0990f9f1f9c793acf9c7bf012102ad36548afd6c918d60a5538a4505f85f81faf1f105e9ab3e5643e34f3175f9b202483045022100a9c534b7322544368f6116d651e30e3c66b2703ad99fd0cfa66c71ef190bcf4802207ded9fa7621defb177e53cbb8939003b5bd36634eda4f17e9072b510d96afa120121036bb659e82fbac3e1e49577f0e70f593826f339065b418166475f78616447fc1102483045022100f8790fa95cfbde5e64d3f628929523c49ad4ed3c77d2d0a5717bb90d42ba49240220525ad40bade9f6c1c8f24de9ee898ca23c5d6cd808d28b1fe51f9ea47f96b467012102d34262a3b5ad5461880e6ae710fbadfc5d2f6db12acfaf53503e8f203732bd0202483045022100fe695054f6bc6ebc6aa9f6fcedcfeb738f0b1eda2c5bb1187e97fab51cfff5f502206da7b6a11cef15a0462d40ae20f5200aa1871502e66ee6ada8d5848cbf66710c0121039ce682334346dabd592f04ff9e8ed72d40d68c5b56ecdc3841bb7eea449d95780247304402205a31ba12f61b4c671a7fe07e432775bfacaf344209365317fd5aa89a93d63f7a02202f748ca0703a62c43861938f2de97603e57f3f4ef444d0a5941fa7baf4cf3cf1012103e9e9a6b001092ce879de3af1f04cb0e9a0fb4b82ea35a6f8affd7e6676a6bdf5024830450221008d0341eec7712b735d4d221f4f4f4b31c32280c1317ad4712bb5dbfc5572e66202203c5f7334bfcd94a0cbd464d7e7254cbcab6e4ba4a6f73295cb0799399b6965e20121039cc5da49165107efc9d4855a4ce04ce76460d899cb5efb97aea25c0b5c2abad20247304402206762e8fefa93b4823bc487b1ac83efd66799b3ec77c4428bf8422e619261dda302206c12dcd071c088322bd64d3dccbea5644f337a819fabc8e5fe82febf013077b20121031c82a800d92589bd0878144ab922122145018294690f8bde19f034b1cf2dc89202483045022100b508831013269dbca31203aeea29542ff5fd4fe414157f643e0e10077345bdf60220547f7b84299b9104e190ab3ebfe22c1986c26b9082ffaef8d2ed6be74b22b93b012103d30f84843ff0226fa4fa9f83f3ec147fd6e6e842adddbb0b09fec535278000a902473044022027838bd53e1a60eaf71cd43ecfd4e562a5164c6cb9deb1d4746696cb69c11aa8022022ffc5337020259805432f4e261ba247f27b449a3fca2340b748daa8abe6dcb801210239e85b83204535d22777dce2007e3d6582c090bc5478ded86615d9336ac02dc202483045022100f1bd346a404068a1e4222fa80c98d7ad3432aba30d559adcde680f5e4ced454c02202852b77bc8d9bc660d22703a5fd39ee53204ec05d3f12443159617e7f872deeb0121024ee08079b244c6f32adf7d264cb6c64496f354bf218e551d08aead96ebac02590247304402202143fa9ea1d023e46b216384abf36fd2b0dc74d33fd2c33a96fe544a44c636ff02204f0bddf6a8bff783f6c7f84eca86f02f1415ac03bd71d53dbfa3e29479378b4d01210249f1c1e7b1d72defb3e247c84ed829bf18b7b9b199d593dc6c5000da5bd9c31d024830450221009a56d68ce655c6e50e8486d2a07f9704ed8c7f8356387e689830d8ce3c93b9f8022045afab162f8b324e1ee48d92035a250232df0ce7f85480a53dbdc6a00c04553b012102254cdb6940f77a398f2e268972741ecce3e39ac433eb2cbb5814c0b65e5d459702483045022100dd27b760851cc4b3e0011cd0b09233ac6b0a70217a4610b8bd4c617890b5cfa4022076f126835f47572c0de0397a4f34974d398d0c0f827a1e9e777a1fff95453e6601210309fc8662c67bd7a4da14261cdce3bdf4707eba72caf9d7a350734dd7091bbd26024730440220491b0016bb360659f588eb0c87f3369ca89c06d9fdbfb7783a526f3de7d64adc022033935d16d17f2c647c0cabd0260b2b132d22abeb1664d25f8288ba0d2dc21b72012102c0018b293d62c18ef153eb522348266228ef34f0c9e5085e9897d2e6cee9d6c80247304402200187375127639396731aa9ae2727a856f2d2f90353b2bd04fdb4db62ec3f515b0220552b2885a20db050bdd1cbe8dbefe396b88ad8218bac589ef508bb9f605d9093012103b8fd83b8f1c6dafd7e0a3840f3977ca3620452867a178c18218b8b0a1ad4a5ca02483045022100b21cd0cee8db148586e514bbe961fb51358764ab7d316db05d7e637554baad5e02200f25f9ef28bb365516cd96d86e2a6fd2560af7de0d1cfcb43723a583144c4093012102b8be2b7dc5da01fa6d61c0472876163b323ac1342f570ce8c811e9e0f9fe63cd0247304402204ac4eea38ca207ce655ea5010bb1b625584376a901f6aa7f7575b8431b1ad6d20220250a5189a6c15ac565b131e7022175524d70eb4618beed781d5f6547f06776560121020fcea6185a24e973650e43859095dd12f793fee78704b62b2528040dd005dbff02483045022100c7d4dcc5a08b9cd75b9e2c996778eaeb88b24bc5d77d87b48f90753289a9dc1402203902e821e4c7d045b513b4e2ba35fbb81ecb9c416b6882e32fe3c55857cebadc012102697cbc181c6f7211ee04725b89e73f1a0b104a24fc81cb41292f74580f22b3fc02483045022100a9be1c72c5f655bd791b4b747373ff017550ea28d7164bd7d1cb4f8ab2b34215022010a6a9e24865bae0d5f6214fcd3a0ceaf3353c6f99ecac8f6d7c6b26625f8215012103eded5bedead4f4bc677a48ab9dba231f8185be5e9f16a52ba1968d8f40b644bd02473044022066bce744ccec1450cee5e19852e88a38026922fee72006e0eba17ac483aa8051022052cd71332953d54af3a0a95d836bd5e4ad494ad41ed20e01d6a541f2ef6e465b012103c18e75619f9e8049abac1df8d8bf8c19df17e38de939402775930f01918942b502473044022068003195e493b31bb71a9a9ecf3935c9ed7167fbbbe142d1b2e50cbce1cb3e2a0220531a900a25f3dba7b9901d3d129ba96e6ff46f6f6cbf43b9eb17c7fdfd0669d40121034d9782b0422fb6478adb89640b8322e5cb7a7966fd472e2bf44f6e5ec820386e024730440220083c6d722de5302c180f648b01dc0142a61a4a766449578d03aee5ccd97a25df02205fc1e2b63048056c06c4e99bd66c82e99d83b06d914c2c815a30bfc5a1f3f5820121026daee5fc6e3bf8bd6243164df6e87f94f1f4e8c77c05bb95767c70369db92b610247304402200b0d014c6584793c662a85f57bc31719f6d7e7c062aa9e6e6eac7b1f767c286502202ad7f50290172ef942a38796bbaae0d6904e77817be4a3ced57745f85a7e008a012102de272d0c232f980285e578776c5df86eb577908e0a7f6d01f38bc7d2f438939d0247304402201da7b0a1344eb58f3e0eab27c9f4dcf8e0002b17fe6fbc679e19cfa803574b210220481f55869189af657149ee1d8e7957499f364099031d8ba24e67b048e262dbaf0121031b4f05bfb929a7f199356f023997a4753b8c2d655c8c94734fbb2b7a9928603f02473044022006d0d99278585d51d7cd33233036ea2485d5cf2ba23541cb640be152b405cb86022067b65b27634a499afc2f6f916cacb341b5e4ff42948654fb1b5923f4e33826a401210281a702867d8570c070ba4c589f6daf9b042dcc703ab0df96dd2779413196686102483045022100daaf2bf254dac3500e6e8e97679c635f3c5276e3e7972cffdcdaf36aab37d19402203ee6b786e840764f54c0a9f3f8f7118b6a53636fd4f3c92185bc46f5d4868400012103a9f6d2738f62b0f5697340fc43f0f3cbf3a4bac06bdd81ee3e8087e563dcde8802483045022100e596febfb09c4d653857da60df72b9dfab2268688577d782f3662fa12cf4ad8202200619490afc238c272259768f3b822dae51a991aae18aff3802970de0826d453e0121027b481879018bad31e8c590afe36fb260b0c5fa8dad70d88a9fd92031362113180247304402203c39c1a569e1da5f7f3c6710087f6a88363fd7a0d6d23518a9319657c25773ea02203f8204cc1aeea70786e8e5f0caa2a785abf516536f4fcccbc8c534a52b0d4ed5012102dd88a1d4f814d1dabbd0f8ebce6427cba6281d8893d47d9edcc491cd6cd7534f02483045022100ec3d49ff118d28fe8de83c1860ec7ca04104f6c9ea3d3d1d3de3f1698280d59f022049d06438dfd3f88faf69c5710e7cc06e939bddb09c1836e57e8384281ab3f55b012103ed1a3ebc84afdf5ccbfdaa00b85250a65087068a56c75fc57cbbf0c7a056f05002483045022100b3098ccab3b016f06c91aaa671a1495aa89dbb25bea8d3d6de1aa3a37c5a2eba02202f6a409d82998c46e271d963e057a0516a560d0e44b7c9e44ab70922812f29bc012103e13ed25e9f2e4732f3535b1b8ff638ffe9dd28beff3be671dfb690aefb03146d02483045022100f9a4f726b661c2cd9a9446f04b68ff42a1d63b23efd02bcf1f6186a3d956a19b02201e76afcba4bdb44cbc5b57d401199b78c95f8c47a835f4e5f6a3ac2885d0f193012103ff84a15e5a8bec8f08892f33de4c24410d542f3efc43e3147072acb31aed013402483045022100a9232f6f408bdcfaa7bef1ad35e68be6b3611fd0aacf1dcd143f0760bc5ad4c40220090c0431cd124b9e55a5a9ea6bed189a3dd3b284c49be386e012d5a3c3fd403b0121024bb023ce69580814b3e91c655a3e0d176b9caf8f32c410cf2f74ec5b2df475c602483045022100ac2ec815d4c29f85dc6cc67b5fd4a2ec1baa03239076f88d2bb1b69a3589770202200b60acf64fb25897aa40fd766ac95b7c0b7fd44cf871e2656b562c7a4d7f727a01210363f409f7bef28faa6f056ad4174809808deb5f2033e5db94b0bef81ed24df44902483045022100e1a642849bec221149b04b34838e195c75bab2f07f29fe2b4f4934e24aaff0ff022003cf1b46bf43a22c1937a2d1eb07d646b3167469e9c983d51848b83ec17831180121032cf4739c2d8086242188528ceda19da3589510899c6f49c3f2cd473dbef98f9c0247304402200dea2b9232fc63641d0a16a2e74ba39953606adfa188a30589b221f178cfc19f02200a0a372b5299003115e58ac69720286b16d5512b47bfc415a124c6a5307b4bbf012102c9685499add352450056784990e81260ef3481ffdefeb4f157c8bda33c52b38a0247304402204ff8c7b197bab3160856c0f4108815f242bbe8426a453d71bb04ab5f8fc0817b02205674c32ec353fc15ad18a2bc01161ea5caa5e4f03bf4f3a0f434fa035ad248db012102d5f099f676cf1c10f03f6e7ad0d8b158b594e9ad34c10ef7f972676397b2861602473044022060e7f05a4577a1c5ae95178540b6e03a18c61e6a70f310d87955332075e2f02302201273258257d331af3705651f9be252547f894076190ab232291696107270d3bf012103dbc0b0cf638f293a866033e2dbd9b3c295268f9be0a95c88239588c7942ddb4f024830450221009b670d712878fd94f885573ce4adc996ebea82b10a23897cc0e733e8dae50a8202204215fce47e7225e7a30a11d65960ae0226c126a455c01835aa5ae60beb9227fd0121038b35b8afba34723c8eef2c2a7eec3982d4620d87c8e7a14ab8d53fc2826eb67502473044022050d764d9c79de259aedf3740eedf055486c8d9ea6987a574373ae2758013bb0c02206be70e9cae5ac0ffc887877f01db59e0dc49dfe8ceafc134973bb6e212fbdaba0121023ab41a8e1feb8e5c4fba5249208997dea9b85f1940862222b103bf7076cc452600000000", "vin": [{"txinwitness": ["304402207243c28cb9329a3a7db683a9af037d0653c07a71df6a48a531b76ca7f2a0624a022070962edd164e2ec92d3dc1dd08349700918b8344643474bcf5c996a3445d1e2d01", "0336482f71afcc9db9c5b70578abd155606ee7f5afc4669de3e113b205e42dfa7b"], "sequence": 4294967294, "scriptSig": {"hex": "1600140f62f2ca20f48affe23852e1abe3d06c5e67b663", "asm": "00140f62f2ca20f48affe23852e1abe3d06c5e67b663"}, "vout": 0, "txid": "e5ab22cd49a218001557e4ed943559aebf522627917e4fca3045505a9f90b402"}, {"txinwitness": ["304502210090a79ade9c5381323a815c6d029e644b3ad33b9fc5102a4245f5511f14cfa49002205f155aaa899c482352fa4a1b1682685f5788c28078f8309ab1b0bc97a18f01ae01", "039dd58aa336310839d96b34a5131676350fa5dceaf217e748e0258dd735deb065"], "sequence": 4294967294, "scriptSig": {"hex": "1600144119039bea99f83fc3213dff3702023e7a7da50d", "asm": "00144119039bea99f83fc3213dff3702023e7a7da50d"}, "vout": 0, "txid": "0ec497b76de3b0fbf4430b9c88f7b490491b458afcb56065936fe621cad91d05"}, {"txinwitness": ["3044022010ed2946606601264147e5935b375242a61ec6c69bbd519614d2992989276ee802200601357f754af6624f5957bf7e2259c885df96873e0990f9f1f9c793acf9c7bf01", "02ad36548afd6c918d60a5538a4505f85f81faf1f105e9ab3e5643e34f3175f9b2"], "sequence": 4294967294, "scriptSig": {"hex": "1600148c161af41d96477adf0f62e85eef4a9ed474d3fc", "asm": "00148c161af41d96477adf0f62e85eef4a9ed474d3fc"}, "vout": 0, "txid": "f644c58c9151b696e6efd0764c6060db250201eb998f82d3a91ef27484c7da07"}, {"txinwitness": ["3045022100a9c534b7322544368f6116d651e30e3c66b2703ad99fd0cfa66c71ef190bcf4802207ded9fa7621defb177e53cbb8939003b5bd36634eda4f17e9072b510d96afa1201", "036bb659e82fbac3e1e49577f0e70f593826f339065b418166475f78616447fc11"], "sequence": 4294967294, "scriptSig": {"hex": "1600141e8802a9c312b57e31b691d2f4db2f7be91e303e", "asm": "00141e8802a9c312b57e31b691d2f4db2f7be91e303e"}, "vout": 0, "txid": "d1286fd18e3c780a4c44f0b93620f8961f181ec6b85ac7c2e5ce541ec6926a0b"}, {"txinwitness": ["3045022100f8790fa95cfbde5e64d3f628929523c49ad4ed3c77d2d0a5717bb90d42ba49240220525ad40bade9f6c1c8f24de9ee898ca23c5d6cd808d28b1fe51f9ea47f96b46701", "02d34262a3b5ad5461880e6ae710fbadfc5d2f6db12acfaf53503e8f203732bd02"], "sequence": 4294967294, "scriptSig": {"hex": "1600143fd81ebf413d922c7c22e423fd22c16c5e8156d5", "asm": "00143fd81ebf413d922c7c22e423fd22c16c5e8156d5"}, "vout": 0, "txid": "97281803438b486bd894238912eb79bd95c0adadfaffda0e755fe6647c7f770b"}, {"txinwitness": ["3045022100fe695054f6bc6ebc6aa9f6fcedcfeb738f0b1eda2c5bb1187e97fab51cfff5f502206da7b6a11cef15a0462d40ae20f5200aa1871502e66ee6ada8d5848cbf66710c01", "039ce682334346dabd592f04ff9e8ed72d40d68c5b56ecdc3841bb7eea449d9578"], "sequence": 4294967294, "scriptSig": {"hex": "160014fe65989eb538ceed6d9a0f415993df182f30c8dc", "asm": "0014fe65989eb538ceed6d9a0f415993df182f30c8dc"}, "vout": 0, "txid": "5812e87dc4f61ce5882c796e909575c023230f9ef9156edc4ef3891f6a9acc0b"}, {"txinwitness": ["304402205a31ba12f61b4c671a7fe07e432775bfacaf344209365317fd5aa89a93d63f7a02202f748ca0703a62c43861938f2de97603e57f3f4ef444d0a5941fa7baf4cf3cf101", "03e9e9a6b001092ce879de3af1f04cb0e9a0fb4b82ea35a6f8affd7e6676a6bdf5"], "sequence": 4294967294, "scriptSig": {"hex": "160014e43df912676f7d26cf934cd1c8fe98d1f712cc90", "asm": "0014e43df912676f7d26cf934cd1c8fe98d1f712cc90"}, "vout": 1, "txid": "94779a0818d511591d35e3b6d3c293e2b1bfefcf3c0285c5a0d2bc5a78f75b0c"}, {"txinwitness": ["30450221008d0341eec7712b735d4d221f4f4f4b31c32280c1317ad4712bb5dbfc5572e66202203c5f7334bfcd94a0cbd464d7e7254cbcab6e4ba4a6f73295cb0799399b6965e201", "039cc5da49165107efc9d4855a4ce04ce76460d899cb5efb97aea25c0b5c2abad2"], "sequence": 4294967294, "scriptSig": {"hex": "160014df707c5b7da1377f18e1033a49ea2eb89e06d011", "asm": "0014df707c5b7da1377f18e1033a49ea2eb89e06d011"}, "vout": 1, "txid": "f7e34174c425e2bb0bee7c1c8bbfb7b124c9e03be07bda0e8ecd815d77273a14"}, {"txinwitness": ["304402206762e8fefa93b4823bc487b1ac83efd66799b3ec77c4428bf8422e619261dda302206c12dcd071c088322bd64d3dccbea5644f337a819fabc8e5fe82febf013077b201", "031c82a800d92589bd0878144ab922122145018294690f8bde19f034b1cf2dc892"], "sequence": 4294967294, "scriptSig": {"hex": "160014763d22896802a65e454e91fc7c95febf87c0bd3f", "asm": "0014763d22896802a65e454e91fc7c95febf87c0bd3f"}, "vout": 1, "txid": "0b4361bfc89109d46fda6d71a55fab7cc43db5d6cbcaf59ebe8f0e2695bf572b"}, {"txinwitness": ["3045022100b508831013269dbca31203aeea29542ff5fd4fe414157f643e0e10077345bdf60220547f7b84299b9104e190ab3ebfe22c1986c26b9082ffaef8d2ed6be74b22b93b01", "03d30f84843ff0226fa4fa9f83f3ec147fd6e6e842adddbb0b09fec535278000a9"], "sequence": 4294967294, "scriptSig": {"hex": "160014ab71afd4b7af596889456e560c4bd47abe0e8a7a", "asm": "0014ab71afd4b7af596889456e560c4bd47abe0e8a7a"}, "vout": 1, "txid": "a57d24120c8c7f04fd7297e5886b80b2dfc79f5d70f0c39b0ff230723e198b2f"}, {"txinwitness": ["3044022027838bd53e1a60eaf71cd43ecfd4e562a5164c6cb9deb1d4746696cb69c11aa8022022ffc5337020259805432f4e261ba247f27b449a3fca2340b748daa8abe6dcb801", "0239e85b83204535d22777dce2007e3d6582c090bc5478ded86615d9336ac02dc2"], "sequence": 4294967294, "scriptSig": {"hex": "160014d090969894e1417f6c9e6e8ca6fe0736df6e5231", "asm": "0014d090969894e1417f6c9e6e8ca6fe0736df6e5231"}, "vout": 1, "txid": "333401edc6fbaaef59b2d751745f027dedddf85dc4955a09c98d19aedf712330"}, {"txinwitness": ["3045022100f1bd346a404068a1e4222fa80c98d7ad3432aba30d559adcde680f5e4ced454c02202852b77bc8d9bc660d22703a5fd39ee53204ec05d3f12443159617e7f872deeb01", "024ee08079b244c6f32adf7d264cb6c64496f354bf218e551d08aead96ebac0259"], "sequence": 4294967294, "scriptSig": {"hex": "16001405f76f16140603e46d8056dc05d6a7aaa9d1aaf4", "asm": "001405f76f16140603e46d8056dc05d6a7aaa9d1aaf4"}, "vout": 9, "txid": "1977cbb6c6713e58696215f0783482ae8341daf2efd8ed24fbd3039d57c7b533"}, {"txinwitness": ["304402202143fa9ea1d023e46b216384abf36fd2b0dc74d33fd2c33a96fe544a44c636ff02204f0bddf6a8bff783f6c7f84eca86f02f1415ac03bd71d53dbfa3e29479378b4d01", "0249f1c1e7b1d72defb3e247c84ed829bf18b7b9b199d593dc6c5000da5bd9c31d"], "sequence": 4294967294, "scriptSig": {"hex": "16001462f85d9e4175fc3d55c305281102826c0468e0db", "asm": "001462f85d9e4175fc3d55c305281102826c0468e0db"}, "vout": 0, "txid": "1eb72a3e35f800e6cf6e6658f4128a95a7a42497685b77a87461c4d25bc7c533"}, {"txinwitness": ["30450221009a56d68ce655c6e50e8486d2a07f9704ed8c7f8356387e689830d8ce3c93b9f8022045afab162f8b324e1ee48d92035a250232df0ce7f85480a53dbdc6a00c04553b01", "02254cdb6940f77a398f2e268972741ecce3e39ac433eb2cbb5814c0b65e5d4597"], "sequence": 4294967294, "scriptSig": {"hex": "1600141ed94c50e8fabc5d7a8e99d4285e76f73c6eb62f", "asm": "00141ed94c50e8fabc5d7a8e99d4285e76f73c6eb62f"}, "vout": 1, "txid": "18183312e2de667b077d414b8875ae62e022b106276d0c5eb0548c42677e7038"}, {"txinwitness": ["3045022100dd27b760851cc4b3e0011cd0b09233ac6b0a70217a4610b8bd4c617890b5cfa4022076f126835f47572c0de0397a4f34974d398d0c0f827a1e9e777a1fff95453e6601", "0309fc8662c67bd7a4da14261cdce3bdf4707eba72caf9d7a350734dd7091bbd26"], "sequence": 4294967294, "scriptSig": {"hex": "160014e1fdda636ddc90a520b05408a452363993194ef7", "asm": "0014e1fdda636ddc90a520b05408a452363993194ef7"}, "vout": 1, "txid": "482aae5552300d23b0961b68fc72bba591b668d01f4c7ad13f8fcbffc5c41149"}, {"txinwitness": ["30440220491b0016bb360659f588eb0c87f3369ca89c06d9fdbfb7783a526f3de7d64adc022033935d16d17f2c647c0cabd0260b2b132d22abeb1664d25f8288ba0d2dc21b7201", "02c0018b293d62c18ef153eb522348266228ef34f0c9e5085e9897d2e6cee9d6c8"], "sequence": 4294967294, "scriptSig": {"hex": "160014f4324a2029796b6d0620df4809b2507eb30f3e41", "asm": "0014f4324a2029796b6d0620df4809b2507eb30f3e41"}, "vout": 0, "txid": "eaea0d3ca6ceb8f3f9ce8aaa9d5543823881ee67d0b92bbf6454aa9f9899ed49"}, {"txinwitness": ["304402200187375127639396731aa9ae2727a856f2d2f90353b2bd04fdb4db62ec3f515b0220552b2885a20db050bdd1cbe8dbefe396b88ad8218bac589ef508bb9f605d909301", "03b8fd83b8f1c6dafd7e0a3840f3977ca3620452867a178c18218b8b0a1ad4a5ca"], "sequence": 4294967294, "scriptSig": {"hex": "160014c04a1de74015b193748cef041716e29d0cc429e5", "asm": "0014c04a1de74015b193748cef041716e29d0cc429e5"}, "vout": 0, "txid": "b2c2b21a6389001432277c5cc99a864877afe7517b0999b5b2e0e2b37a5fb65c"}, {"txinwitness": ["3045022100b21cd0cee8db148586e514bbe961fb51358764ab7d316db05d7e637554baad5e02200f25f9ef28bb365516cd96d86e2a6fd2560af7de0d1cfcb43723a583144c409301", "02b8be2b7dc5da01fa6d61c0472876163b323ac1342f570ce8c811e9e0f9fe63cd"], "sequence": 4294967294, "scriptSig": {"hex": "160014492008f3b7d73972dcd9ef9a8fc911a5c84e8d84", "asm": "0014492008f3b7d73972dcd9ef9a8fc911a5c84e8d84"}, "vout": 6, "txid": "d698f5783cd7382cde1c9ef0bda5752a7ba0b8955bbbd681af09a891c83da561"}, {"txinwitness": ["304402204ac4eea38ca207ce655ea5010bb1b625584376a901f6aa7f7575b8431b1ad6d20220250a5189a6c15ac565b131e7022175524d70eb4618beed781d5f6547f067765601", "020fcea6185a24e973650e43859095dd12f793fee78704b62b2528040dd005dbff"], "sequence": 4294967294, "scriptSig": {"hex": "16001469519cd1ef2ee46f586fe421d975d967361116cb", "asm": "001469519cd1ef2ee46f586fe421d975d967361116cb"}, "vout": 9, "txid": "d698f5783cd7382cde1c9ef0bda5752a7ba0b8955bbbd681af09a891c83da561"}, {"txinwitness": ["3045022100c7d4dcc5a08b9cd75b9e2c996778eaeb88b24bc5d77d87b48f90753289a9dc1402203902e821e4c7d045b513b4e2ba35fbb81ecb9c416b6882e32fe3c55857cebadc01", "02697cbc181c6f7211ee04725b89e73f1a0b104a24fc81cb41292f74580f22b3fc"], "sequence": 4294967294, "scriptSig": {"hex": "160014a375af5ef88c728fc97c0facf94be2e4026955f8", "asm": "0014a375af5ef88c728fc97c0facf94be2e4026955f8"}, "vout": 0, "txid": "cd3c20785f26f0370d65d0fdd5e18a9ae84b85669f82d5edf4bd2a5c277f9962"}, {"txinwitness": ["3045022100a9be1c72c5f655bd791b4b747373ff017550ea28d7164bd7d1cb4f8ab2b34215022010a6a9e24865bae0d5f6214fcd3a0ceaf3353c6f99ecac8f6d7c6b26625f821501", "03eded5bedead4f4bc677a48ab9dba231f8185be5e9f16a52ba1968d8f40b644bd"], "sequence": 4294967294, "scriptSig": {"hex": "160014fe981a05a072f38c6c0bfc4b233b4170d4210da3", "asm": "0014fe981a05a072f38c6c0bfc4b233b4170d4210da3"}, "vout": 1, "txid": "75d17d8c3f8cf6d712629400214a75c24bbf2185eea111673ee5ad97116f8a64"}, {"txinwitness": ["3044022066bce744ccec1450cee5e19852e88a38026922fee72006e0eba17ac483aa8051022052cd71332953d54af3a0a95d836bd5e4ad494ad41ed20e01d6a541f2ef6e465b01", "03c18e75619f9e8049abac1df8d8bf8c19df17e38de939402775930f01918942b5"], "sequence": 4294967294, "scriptSig": {"hex": "1600143186c1e5409aa5f51a8bd252f12d773f67f958ea", "asm": "00143186c1e5409aa5f51a8bd252f12d773f67f958ea"}, "vout": 0, "txid": "414da5aa1cf56b354743e7b5d3791f6dd4ce2a7c96832dcebd1a75e85443e264"}, {"txinwitness": ["3044022068003195e493b31bb71a9a9ecf3935c9ed7167fbbbe142d1b2e50cbce1cb3e2a0220531a900a25f3dba7b9901d3d129ba96e6ff46f6f6cbf43b9eb17c7fdfd0669d401", "034d9782b0422fb6478adb89640b8322e5cb7a7966fd472e2bf44f6e5ec820386e"], "sequence": 4294967294, "scriptSig": {"hex": "160014a025ace4a7006689eef551d2202c1b7bea5ac97e", "asm": "0014a025ace4a7006689eef551d2202c1b7bea5ac97e"}, "vout": 0, "txid": "e3d0e525cdefa209ecb635bf2bd8a6e9cb186e780f80c94c6f89cae894e2d46a"}, {"txinwitness": ["30440220083c6d722de5302c180f648b01dc0142a61a4a766449578d03aee5ccd97a25df02205fc1e2b63048056c06c4e99bd66c82e99d83b06d914c2c815a30bfc5a1f3f58201", "026daee5fc6e3bf8bd6243164df6e87f94f1f4e8c77c05bb95767c70369db92b61"], "sequence": 4294967294, "scriptSig": {"hex": "160014aed711914b4471b28d12bc728708d749b7229ff6", "asm": "0014aed711914b4471b28d12bc728708d749b7229ff6"}, "vout": 0, "txid": "97cc1dc6664073b6d8b9be455ce6046d813e8b2d119b0c48719c6468cc9fb76e"}, {"txinwitness": ["304402200b0d014c6584793c662a85f57bc31719f6d7e7c062aa9e6e6eac7b1f767c286502202ad7f50290172ef942a38796bbaae0d6904e77817be4a3ced57745f85a7e008a01", "02de272d0c232f980285e578776c5df86eb577908e0a7f6d01f38bc7d2f438939d"], "sequence": 4294967294, "scriptSig": {"hex": "160014f40847e19822939961386cdbf3f06ae0b7fd219b", "asm": "0014f40847e19822939961386cdbf3f06ae0b7fd219b"}, "vout": 1, "txid": "fb0d101db6abb02f4b559b0db2b6498bf45910b3046a684ed01940a1a3b2f96f"}, {"txinwitness": ["304402201da7b0a1344eb58f3e0eab27c9f4dcf8e0002b17fe6fbc679e19cfa803574b210220481f55869189af657149ee1d8e7957499f364099031d8ba24e67b048e262dbaf01", "031b4f05bfb929a7f199356f023997a4753b8c2d655c8c94734fbb2b7a9928603f"], "sequence": 4294967294, "scriptSig": {"hex": "1600140b2b7d3d7333732e1e3a0ab0825de4dc4aa4b17a", "asm": "00140b2b7d3d7333732e1e3a0ab0825de4dc4aa4b17a"}, "vout": 1, "txid": "916cae23a733adab768fdcdcee71f9bc1df6e25e5b3d14032384fef17af50584"}, {"txinwitness": ["3044022006d0d99278585d51d7cd33233036ea2485d5cf2ba23541cb640be152b405cb86022067b65b27634a499afc2f6f916cacb341b5e4ff42948654fb1b5923f4e33826a401", "0281a702867d8570c070ba4c589f6daf9b042dcc703ab0df96dd27794131966861"], "sequence": 4294967294, "scriptSig": {"hex": "160014aabdc096e2d6dc605890aabe7964bdf01acdaef4", "asm": "0014aabdc096e2d6dc605890aabe7964bdf01acdaef4"}, "vout": 0, "txid": "9435f93c76226e0d77c4ce334a44cb11cfb97b336d4fa32e96d90faa0fc53294"}, {"txinwitness": ["3045022100daaf2bf254dac3500e6e8e97679c635f3c5276e3e7972cffdcdaf36aab37d19402203ee6b786e840764f54c0a9f3f8f7118b6a53636fd4f3c92185bc46f5d486840001", "03a9f6d2738f62b0f5697340fc43f0f3cbf3a4bac06bdd81ee3e8087e563dcde88"], "sequence": 4294967294, "scriptSig": {"hex": "16001486a7a8fe9db461b43fc12427dd23828727cc4f8e", "asm": "001486a7a8fe9db461b43fc12427dd23828727cc4f8e"}, "vout": 0, "txid": "1607b098fb3b36a538e9dc0711c764af53db04757bcb0fed77d58b1dc0e6eea2"}, {"txinwitness": ["3045022100e596febfb09c4d653857da60df72b9dfab2268688577d782f3662fa12cf4ad8202200619490afc238c272259768f3b822dae51a991aae18aff3802970de0826d453e01", "027b481879018bad31e8c590afe36fb260b0c5fa8dad70d88a9fd9203136211318"], "sequence": 4294967294, "scriptSig": {"hex": "160014f02b11a1a2946babde6c75b7a6ab0b19137e6d09", "asm": "0014f02b11a1a2946babde6c75b7a6ab0b19137e6d09"}, "vout": 1, "txid": "6ddd3ce949ff3ffc0ae7246e51a1856667c188af8abe0ddd6b0097446dd25ba6"}, {"txinwitness": ["304402203c39c1a569e1da5f7f3c6710087f6a88363fd7a0d6d23518a9319657c25773ea02203f8204cc1aeea70786e8e5f0caa2a785abf516536f4fcccbc8c534a52b0d4ed501", "02dd88a1d4f814d1dabbd0f8ebce6427cba6281d8893d47d9edcc491cd6cd7534f"], "sequence": 4294967294, "scriptSig": {"hex": "160014bcd2ff4a451d7f482e925c72b0730379085f273b", "asm": "0014bcd2ff4a451d7f482e925c72b0730379085f273b"}, "vout": 1, "txid": "f4f1278a27f01094c7fd2151cd82c10e855248566a8a9079157ccd9c795ee2a7"}, {"txinwitness": ["3045022100ec3d49ff118d28fe8de83c1860ec7ca04104f6c9ea3d3d1d3de3f1698280d59f022049d06438dfd3f88faf69c5710e7cc06e939bddb09c1836e57e8384281ab3f55b01", "03ed1a3ebc84afdf5ccbfdaa00b85250a65087068a56c75fc57cbbf0c7a056f050"], "sequence": 4294967294, "scriptSig": {"hex": "1600142d7ec288b6058a7f33d88e408438edb304cb65d1", "asm": "00142d7ec288b6058a7f33d88e408438edb304cb65d1"}, "vout": 0, "txid": "e2c0cc5a5cb80675bd0b0a0172f6c43f31f7d0ec92c3959c8f4b2f7407992baa"}, {"txinwitness": ["3045022100b3098ccab3b016f06c91aaa671a1495aa89dbb25bea8d3d6de1aa3a37c5a2eba02202f6a409d82998c46e271d963e057a0516a560d0e44b7c9e44ab70922812f29bc01", "03e13ed25e9f2e4732f3535b1b8ff638ffe9dd28beff3be671dfb690aefb03146d"], "sequence": 4294967294, "scriptSig": {"hex": "160014c365bc0da9ab45d7eb055ab7db2c767d5fdd4cd8", "asm": "0014c365bc0da9ab45d7eb055ab7db2c767d5fdd4cd8"}, "vout": 0, "txid": "486133d52de6b72eae694f8dccb61a226d37eae18bca2b6babdaad20e746b3af"}, {"txinwitness": ["3045022100f9a4f726b661c2cd9a9446f04b68ff42a1d63b23efd02bcf1f6186a3d956a19b02201e76afcba4bdb44cbc5b57d401199b78c95f8c47a835f4e5f6a3ac2885d0f19301", "03ff84a15e5a8bec8f08892f33de4c24410d542f3efc43e3147072acb31aed0134"], "sequence": 4294967294, "scriptSig": {"hex": "1600141f049a4aee336884d37d726d97b81fb65a52740f", "asm": "00141f049a4aee336884d37d726d97b81fb65a52740f"}, "vout": 0, "txid": "9b105f7d94cf79fe5c3fe33bceca3726727f82d8314dfcf785a4438b6ee27bb9"}, {"txinwitness": ["3045022100a9232f6f408bdcfaa7bef1ad35e68be6b3611fd0aacf1dcd143f0760bc5ad4c40220090c0431cd124b9e55a5a9ea6bed189a3dd3b284c49be386e012d5a3c3fd403b01", "024bb023ce69580814b3e91c655a3e0d176b9caf8f32c410cf2f74ec5b2df475c6"], "sequence": 4294967294, "scriptSig": {"hex": "16001468a77c62e7904a08f044891c4ac1c51e5d98be26", "asm": "001468a77c62e7904a08f044891c4ac1c51e5d98be26"}, "vout": 1, "txid": "92e1eaa1283501662af57cfcce76054e92c70c3a0ca58544a9e228e0976028bb"}, {"txinwitness": ["3045022100ac2ec815d4c29f85dc6cc67b5fd4a2ec1baa03239076f88d2bb1b69a3589770202200b60acf64fb25897aa40fd766ac95b7c0b7fd44cf871e2656b562c7a4d7f727a01", "0363f409f7bef28faa6f056ad4174809808deb5f2033e5db94b0bef81ed24df449"], "sequence": 4294967294, "scriptSig": {"hex": "16001422f856065d7c306c87d3f291ce36249682c385da", "asm": "001422f856065d7c306c87d3f291ce36249682c385da"}, "vout": 0, "txid": "e79a1e911f0e86913c09a45685f930c5c666d3df12996705f5aeb4a5641704c3"}, {"txinwitness": ["3045022100e1a642849bec221149b04b34838e195c75bab2f07f29fe2b4f4934e24aaff0ff022003cf1b46bf43a22c1937a2d1eb07d646b3167469e9c983d51848b83ec178311801", "032cf4739c2d8086242188528ceda19da3589510899c6f49c3f2cd473dbef98f9c"], "sequence": 4294967294, "scriptSig": {"hex": "1600144e1528b4becef81b928a429464dbeea09b663d5d", "asm": "00144e1528b4becef81b928a429464dbeea09b663d5d"}, "vout": 0, "txid": "8a43e5f8351d42c895309f308f678187d98bcda4b5408d57045625453da80ac7"}, {"txinwitness": ["304402200dea2b9232fc63641d0a16a2e74ba39953606adfa188a30589b221f178cfc19f02200a0a372b5299003115e58ac69720286b16d5512b47bfc415a124c6a5307b4bbf01", "02c9685499add352450056784990e81260ef3481ffdefeb4f157c8bda33c52b38a"], "sequence": 4294967294, "scriptSig": {"hex": "1600148af5dad85235c70af4d38c0400bda13f615a606d", "asm": "00148af5dad85235c70af4d38c0400bda13f615a606d"}, "vout": 1, "txid": "14e015b8ee955f504c2dfbe7385c49df612fd52fda2bebc76df573ba12e351d3"}, {"txinwitness": ["304402204ff8c7b197bab3160856c0f4108815f242bbe8426a453d71bb04ab5f8fc0817b02205674c32ec353fc15ad18a2bc01161ea5caa5e4f03bf4f3a0f434fa035ad248db01", "02d5f099f676cf1c10f03f6e7ad0d8b158b594e9ad34c10ef7f972676397b28616"], "sequence": 4294967294, "scriptSig": {"hex": "160014f3dc271d8767e653eb7c3d6b1ed3e656295ccae9", "asm": "0014f3dc271d8767e653eb7c3d6b1ed3e656295ccae9"}, "vout": 1, "txid": "d7c01fcf3d4fdafa58fa6defc6b256b0269af46063b23d2de697579377bc68d5"}, {"txinwitness": ["3044022060e7f05a4577a1c5ae95178540b6e03a18c61e6a70f310d87955332075e2f02302201273258257d331af3705651f9be252547f894076190ab232291696107270d3bf01", "03dbc0b0cf638f293a866033e2dbd9b3c295268f9be0a95c88239588c7942ddb4f"], "sequence": 4294967294, "scriptSig": {"hex": "160014990b73527007a61b779e53e2e92d5a223789d295", "asm": "0014990b73527007a61b779e53e2e92d5a223789d295"}, "vout": 0, "txid": "be630564fed366deb8a14877d72c13ce2f105266e8879651993341464e9786d6"}, {"txinwitness": ["30450221009b670d712878fd94f885573ce4adc996ebea82b10a23897cc0e733e8dae50a8202204215fce47e7225e7a30a11d65960ae0226c126a455c01835aa5ae60beb9227fd01", "038b35b8afba34723c8eef2c2a7eec3982d4620d87c8e7a14ab8d53fc2826eb675"], "sequence": 4294967294, "scriptSig": {"hex": "160014ea88334115aef3ac455212a40dae37b692c422e9", "asm": "0014ea88334115aef3ac455212a40dae37b692c422e9"}, "vout": 0, "txid": "c9e146a939e358aafd67a972f7735b9a9ec6f263b3c54402ba805790fc3b88e0"}, {"txinwitness": ["3044022050d764d9c79de259aedf3740eedf055486c8d9ea6987a574373ae2758013bb0c02206be70e9cae5ac0ffc887877f01db59e0dc49dfe8ceafc134973bb6e212fbdaba01", "023ab41a8e1feb8e5c4fba5249208997dea9b85f1940862222b103bf7076cc4526"], "sequence": 4294967294, "scriptSig": {"hex": "160014e727e0200536192df6d37082ed043a5679cc3625", "asm": "0014e727e0200536192df6d37082ed043a5679cc3625"}, "vout": 1, "txid": "052eef95b1f920ce7f4938bf2c01556da90f8f2f628618efdbe66d8bc634a5f7"}], "txid": "a3f04cb5ab735e0865185b2a32806bb6a584bea9901887c528b7ca9b80b32c87", "blocktime": 1537872475, "version": 2, "confirmations": 11487, "time": 1537872475, "locktime": 0, "vsize": 3801, "size": 7108}