{"hash": "a3f1e9dcd2cfa02f1c428870a2c24cf4e0bcd3e17bc89442a7b1eaed517c6e9e", "blockhash": "000000000000000000022b45ed06c6f4ccd3cf7fb5ba4856ebd2e58215665228", "vout": [{"scriptPubKey": {"reqSigs": 1, "hex": "76a91484085b1d99e5063b0dfda7e8e9894ba820af620c88ac", "addresses": ["1D38CuGTCFaPrsvtvzdgejxHFfoAfC5mZh"], "asm": "OP_DUP OP_HASH160 84085b1d99e5063b0dfda7e8e9894ba820af620c OP_EQUALVERIFY OP_CHECKSIG", "type": "pubkeyhash"}, "value": 0.58, "n": 0}, {"scriptPubKey": {"reqSigs": 1, "hex": "76a914a17b0fb8a7fa4dc7c038964aabff91aa9156bf6c88ac", "addresses": ["1FiqDLofuFUPUmcqX2pcxdrYaRc76T2ypk"], "asm": "OP_DUP OP_HASH160 a17b0fb8a7fa4dc7c038964aabff91aa9156bf6c OP_EQUALVERIFY OP_CHECKSIG", "type": "pubkeyhash"}, "value": 0.58076035, "n": 1}], "hex": "010000000290bf4152108b2bcd43ed1b28116c59b0a7ce1ad7230a1ad06e800edde935c4d9010000006b483045022100d3a75c8b7ab622d30f60f1a13ffab041e06f6f8aa8d1df0228c713eb2e283b2b0220639f46aa40118a17bb3bad1b6fd1446330eef38af4c40cc141ddaa91d3ece371012102ea6bd4dfaa5d4349c1a36f1c431ff5545776e3f8f48ea8ac396ba9ca47261e69ffffffffc6c9fdba3f96a90b3caeb519428fa95ee5badd0d6ee519e684915f92381bbb8b090000006b483045022100e9db06941136b28517eff571939338e95f6231a8058c44a10c23ac103a8351250220031a533c2a582ff22b4e8d2b585b9a9c7ee6f165925d59e774a0916a466cce12012103171125ff1f0d6ee0bcbce991b893f832ee9e361c665c1c87c8f878a094cb206fffffffff0280027503000000001976a91484085b1d99e5063b0dfda7e8e9894ba820af620c88ac832b7603000000001976a914a17b0fb8a7fa4dc7c038964aabff91aa9156bf6c88ac00000000", "vin": [{"sequence": 4294967295, "scriptSig": {"hex": "483045022100d3a75c8b7ab622d30f60f1a13ffab041e06f6f8aa8d1df0228c713eb2e283b2b0220639f46aa40118a17bb3bad1b6fd1446330eef38af4c40cc141ddaa91d3ece371012102ea6bd4dfaa5d4349c1a36f1c431ff5545776e3f8f48ea8ac396ba9ca47261e69", "asm": "3045022100d3a75c8b7ab622d30f60f1a13ffab041e06f6f8aa8d1df0228c713eb2e283b2b0220639f46aa40118a17bb3bad1b6fd1446330eef38af4c40cc141ddaa91d3ece371[ALL] 02ea6bd4dfaa5d4349c1a36f1c431ff5545776e3f8f48ea8ac396ba9ca47261e69"}, "vout": 1, "txid": "d9c435e9dd0e806ed01a0a23d71acea7b0596c11281bed43cd2b8b105241bf90"}, {"sequence": 4294967295, "scriptSig": {"hex": "483045022100e9db06941136b28517eff571939338e95f6231a8058c44a10c23ac103a8351250220031a533c2a582ff22b4e8d2b585b9a9c7ee6f165925d59e774a0916a466cce12012103171125ff1f0d6ee0bcbce991b893f832ee9e361c665c1c87c8f878a094cb206f", "asm": "3045022100e9db06941136b28517eff571939338e95f6231a8058c44a10c23ac103a8351250220031a533c2a582ff22b4e8d2b585b9a9c7ee6f165925d59e774a0916a466cce12[ALL] 03171125ff1f0d6ee0bcbce991b893f832ee9e361c665c1c87c8f878a094cb206f"}, "vout": 9, "txid": "8bbb1b38925f9184e619e56e0dddbae55ea98f4219b5ae3c0ba9963fbafdc9c6"}], "txid": "a3f1e9dcd2cfa02f1c428870a2c24cf4e0bcd3e17bc89442a7b1eaed517c6e9e", "blocktime": 1537869901, "version": 1, "confirmations": 11522, "time": 1537869901, "locktime": 0, "vsize": 374, "size": 374}