{"hash": "a3f7c5674908ce15b03cbbd1fc6c13c2932b81adf549921d8a7193efd99286b6", "blockhash": "000000000000000000022b45ed06c6f4ccd3cf7fb5ba4856ebd2e58215665228", "vout": [{"scriptPubKey": {"reqSigs": 1, "hex": "76a9148395c9f33518ba69ba52551297f67bc58e66955388ac", "addresses": ["1CzkxeHBUeS1PVmCZt4nDdUAL5sL8U8Sgz"], "asm": "OP_DUP OP_HASH160 8395c9f33518ba69ba52551297f67bc58e669553 OP_EQUALVERIFY OP_CHECKSIG", "type": "pubkeyhash"}, "value": 8.12e-05, "n": 0}, {"scriptPubKey": {"reqSigs": 1, "hex": "a914947a195755fabb3865e991b0a221136ebab441ab87", "addresses": ["3FE6CXBLcPhC6BiZqjpe14N9Jwam8hbfgJ"], "asm": "OP_HASH160 947a195755fabb3865e991b0a221136ebab441ab OP_EQUAL", "type": "scripthash"}, "value": 0.000474, "n": 1}], "hex": "01000000020fa08a4a7d9b80f681f7ddc5d9b214d916edc7c5ae8a624f6508071841fe4429000000006b483045022100ebd0e75ed995f47ad941442d692c59c825947acbc9ee1add4db8aabb8527d4e9022015c2640fb5907c31358ab4bb2156014da8cca21111d7bd84ba0ac2720cca8a980121026cc627090ca3d4393524a96abc15f90bc5cbc3b938f2f427022e20bbad6910f1ffffffff62759f2b29352ffedb7d59f7aff63093f16993a3904cb235f060cab791a3e62c000000006b483045022100c104f94b82243faf6c51982010daf53c53ea8935013c6300ddfeeadbe0cb06ad02204150253b1ff51d2dbc0312b595a0981c971448f393f2717e2b4b7669d45b3c900121029f61e4395c6ae6cabc6ebfb67c8944f2b2b5e8dba86c73dddeecae1e224197cbffffffff02b81f0000000000001976a9148395c9f33518ba69ba52551297f67bc58e66955388ac28b900000000000017a914947a195755fabb3865e991b0a221136ebab441ab8700000000", "vin": [{"sequence": 4294967295, "scriptSig": {"hex": "483045022100ebd0e75ed995f47ad941442d692c59c825947acbc9ee1add4db8aabb8527d4e9022015c2640fb5907c31358ab4bb2156014da8cca21111d7bd84ba0ac2720cca8a980121026cc627090ca3d4393524a96abc15f90bc5cbc3b938f2f427022e20bbad6910f1", "asm": "3045022100ebd0e75ed995f47ad941442d692c59c825947acbc9ee1add4db8aabb8527d4e9022015c2640fb5907c31358ab4bb2156014da8cca21111d7bd84ba0ac2720cca8a98[ALL] 026cc627090ca3d4393524a96abc15f90bc5cbc3b938f2f427022e20bbad6910f1"}, "vout": 0, "txid": "2944fe41180708654f628aaec5c7ed16d914b2d9c5ddf781f6809b7d4a8aa00f"}, {"sequence": 4294967295, "scriptSig": {"hex": "483045022100c104f94b82243faf6c51982010daf53c53ea8935013c6300ddfeeadbe0cb06ad02204150253b1ff51d2dbc0312b595a0981c971448f393f2717e2b4b7669d45b3c900121029f61e4395c6ae6cabc6ebfb67c8944f2b2b5e8dba86c73dddeecae1e224197cb", "asm": "3045022100c104f94b82243faf6c51982010daf53c53ea8935013c6300ddfeeadbe0cb06ad02204150253b1ff51d2dbc0312b595a0981c971448f393f2717e2b4b7669d45b3c90[ALL] 029f61e4395c6ae6cabc6ebfb67c8944f2b2b5e8dba86c73dddeecae1e224197cb"}, "vout": 0, "txid": "2ce6a391b7ca60f035b24c90a39369f19330f6aff7597ddbfe2f35292b9f7562"}], "txid": "a3f7c5674908ce15b03cbbd1fc6c13c2932b81adf549921d8a7193efd99286b6", "blocktime": 1537869901, "version": 1, "confirmations": 11523, "time": 1537869901, "locktime": 0, "vsize": 372, "size": 372}