{"hash": "a3f95a359b00bf19b6d7ef62c8209b7070950023e717cb960f86214b11f325c1", "blockhash": "0000000000000000000baef3f32e3676a92c3b2e5da21b426e4f302fc371ce76", "vout": [{"scriptPubKey": {"reqSigs": 1, "hex": "76a9145df5e1bd30c0e9e2d7512895dc776e59d2cb928188ac", "addresses": ["19ZpQ1PbYb7VcsLbaAuEMrCtfTcckTksLi"], "asm": "OP_DUP OP_HASH160 5df5e1bd30c0e9e2d7512895dc776e59d2cb9281 OP_EQUALVERIFY OP_CHECKSIG", "type": "pubkeyhash"}, "value": 0.00360073, "n": 0}, {"scriptPubKey": {"reqSigs": 1, "hex": "76a9146e9fbf41b273b6a4abf9700c3f9d62c88fadbed288ac", "addresses": ["1B5vhXQL9o85mBw9sFzHLwf8AN11XyARNf"], "asm": "OP_DUP OP_HASH160 6e9fbf41b273b6a4abf9700c3f9d62c88fadbed2 OP_EQUALVERIFY OP_CHECKSIG", "type": "pubkeyhash"}, "value": 0.13073551, "n": 1}], "hex": "0100000001cfc0c1a4b2c4fe6182e6bcd91590422232b3cb5ea4cf37731edc909fbf88e383010000006b483045022100d6a6ddde2c514cea8a8d8707226c85c65038396f21b2069568d24d5eea5826af02203650bcce7025cb77d08ba7556750f79ba7144d7ab0f4755470ba43cef3b9d818012103c9b55f4e8265126c1d43a977d8ecffb2278cfc35eb54b0c70d75c1b743b99cddffffffff02897e0500000000001976a9145df5e1bd30c0e9e2d7512895dc776e59d2cb928188ac8f7cc700000000001976a9146e9fbf41b273b6a4abf9700c3f9d62c88fadbed288ac00000000", "vin": [{"sequence": 4294967295, "scriptSig": {"hex": "483045022100d6a6ddde2c514cea8a8d8707226c85c65038396f21b2069568d24d5eea5826af02203650bcce7025cb77d08ba7556750f79ba7144d7ab0f4755470ba43cef3b9d818012103c9b55f4e8265126c1d43a977d8ecffb2278cfc35eb54b0c70d75c1b743b99cdd", "asm": "3045022100d6a6ddde2c514cea8a8d8707226c85c65038396f21b2069568d24d5eea5826af02203650bcce7025cb77d08ba7556750f79ba7144d7ab0f4755470ba43cef3b9d818[ALL] 03c9b55f4e8265126c1d43a977d8ecffb2278cfc35eb54b0c70d75c1b743b99cdd"}, "vout": 1, "txid": "83e388bf9f90dc1e7337cfa45ecbb33222429015d9bce68261fec4b2a4c1c0cf"}], "txid": "a3f95a359b00bf19b6d7ef62c8209b7070950023e717cb960f86214b11f325c1", "blocktime": 1537876114, "version": 1, "confirmations": 11460, "time": 1537876114, "locktime": 0, "vsize": 226, "size": 226}