{"hash": "914ae5c5ccccda9636b2073c39fe6aed8fb689ba7530e29e7b4ba80418c00b10", "blockhash": "0000000000000000001cda96e906b7601b7a6fb1a3b62bca570a9e5d8f4b3de1", "vout": [{"scriptPubKey": {"reqSigs": 1, "hex": "a9141d24e629295fd373c3ba83e7e276ec56926b989687", "addresses": ["34M7iu61jzD8eTw86WaLR8ofyeaPtESR2j"], "asm": "OP_HASH160 1d24e629295fd373c3ba83e7e276ec56926b9896 OP_EQUAL", "type": "scripthash"}, "value": 0.00997463, "n": 0}, {"scriptPubKey": {"reqSigs": 1, "hex": "76a91469afe7f86f8ed2bee29f40f30602cf86453e493288ac", "addresses": ["1AdpgKFdWuTuPxR7S8izVD2ZsCHazS7pka"], "asm": "OP_DUP OP_HASH160 69afe7f86f8ed2bee29f40f30602cf86453e4932 OP_EQUALVERIFY OP_CHECKSIG", "type": "pubkeyhash"}, "value": 0.00527, "n": 1}], "hex": "020000000001023a205b70418b3c73223761bf986f69a59a6f910c7a7e5df2b9296bfde968f5290100000017160014fbf0a9628c8d078773baac1cb14f33de7f8357cbfeffffff84686046b3ae8456ea6697018a15260bcfb773639e267c6f8352e63fa69785af00000000171600147767206b64b928fc056910ea0022391defb9df79feffffff0257380f000000000017a9141d24e629295fd373c3ba83e7e276ec56926b989687980a0800000000001976a91469afe7f86f8ed2bee29f40f30602cf86453e493288ac02473044022032935ab0a216264a580175321aac781cde90dd3e83563a12e1d7c7ae35d9dfe50220608b880546d8da54206c80be5ab9afa91240f019dc3110c3eb943f599350601c0121032b72d3c202446557f565661fa870bee3cef606987d4cc0885c15d1493ebc137e024830450221008eacb6391066f063abe765af040b5b0add226d4b6f39336c370dfaf17665aa67022077deccc3599d5ae0076b23f08429bfb9ff948b26298958b015753273edca9b1901210222e65ae73655eebb861eec7ec955a3047cc4c9fd29cf4bdf7355c7f3e40b390b13490800", "vin": [{"txinwitness": ["3044022032935ab0a216264a580175321aac781cde90dd3e83563a12e1d7c7ae35d9dfe50220608b880546d8da54206c80be5ab9afa91240f019dc3110c3eb943f599350601c01", "032b72d3c202446557f565661fa870bee3cef606987d4cc0885c15d1493ebc137e"], "sequence": 4294967294, "scriptSig": {"hex": "160014fbf0a9628c8d078773baac1cb14f33de7f8357cb", "asm": "0014fbf0a9628c8d078773baac1cb14f33de7f8357cb"}, "vout": 1, "txid": "29f568e9fd6b29b9f25d7e7a0c916f9aa5696f98bf613722733c8b41705b203a"}, {"txinwitness": ["30450221008eacb6391066f063abe765af040b5b0add226d4b6f39336c370dfaf17665aa67022077deccc3599d5ae0076b23f08429bfb9ff948b26298958b015753273edca9b1901", "0222e65ae73655eebb861eec7ec955a3047cc4c9fd29cf4bdf7355c7f3e40b390b"], "sequence": 4294967294, "scriptSig": {"hex": "1600147767206b64b928fc056910ea0022391defb9df79", "asm": "00147767206b64b928fc056910ea0022391defb9df79"}, "vout": 0, "txid": "af8597a63fe652836f7c269e6373b7cf0b26158a019766ea5684aeb346606884"}], "txid": "a3f9af55fa16797db40927f3c34e193ad76813ead0786ec34bfa4695711ae442", "blocktime": 1537873282, "version": 2, "confirmations": 11481, "time": 1537873282, "locktime": 542995, "vsize": 259, "size": 421}