{"hash": "a3fab1507be6730815e5314975bfad7c7bec4a6710d34d0e6f81cf4145f62be6", "blockhash": "0000000000000000000e13cef7c366c0283d82e591d1acd082e914b08063cdf1", "vout": [{"scriptPubKey": {"reqSigs": 1, "hex": "76a9143c6b81245dddeddf196684d7ae1cf4765157a2f188ac", "addresses": ["16WUL3wgJZiDmr3xwSwsCqujS7XRmCdG2k"], "asm": "OP_DUP OP_HASH160 3c6b81245dddeddf196684d7ae1cf4765157a2f1 OP_EQUALVERIFY OP_CHECKSIG", "type": "pubkeyhash"}, "value": 4.713e-05, "n": 0}, {"scriptPubKey": {"reqSigs": 1, "hex": "a914b348b4b3c235be1e5be68c2ea31b205f728eed5187", "addresses": ["3J2yyaE48M9sDxrztvMZKazfGSpMcW81VZ"], "asm": "OP_HASH160 b348b4b3c235be1e5be68c2ea31b205f728eed51 OP_EQUAL", "type": "scripthash"}, "value": 0.00206, "n": 1}], "hex": "01000000026d13cabd302f228adf9f436fb0bc0acb0eee7646d30298db11e08e0debba7d13c00100006a47304402202e926cb80a389b754311c12133654ed3afb001436db81bb2b54fea914e71ab1602202e54092584ecc08a26651b570ccbe8964970b99e97ffe7e1909dd209aba032c2012102bcbe6a1acaea5152a2c4660d4d98797c1d072801f897d71cca10d8fd8408422affffffff9f64c2d676ca1fd4b952f7b772c4d111b3fd8f01ad852ccc570906f83462f11c010000006b483045022100c1d8d961ccc2bf5a9adae62a97f914c189a6fbcc39b339a526aa60fbf9e5858202200c9dc0197564645f95926053cac4c6c94877027e794a2fe7c2311df5349c63a4012102bcbe6a1acaea5152a2c4660d4d98797c1d072801f897d71cca10d8fd8408422affffffff0269120000000000001976a9143c6b81245dddeddf196684d7ae1cf4765157a2f188acb02403000000000017a914b348b4b3c235be1e5be68c2ea31b205f728eed518700000000", "vin": [{"sequence": 4294967295, "scriptSig": {"hex": "47304402202e926cb80a389b754311c12133654ed3afb001436db81bb2b54fea914e71ab1602202e54092584ecc08a26651b570ccbe8964970b99e97ffe7e1909dd209aba032c2012102bcbe6a1acaea5152a2c4660d4d98797c1d072801f897d71cca10d8fd8408422a", "asm": "304402202e926cb80a389b754311c12133654ed3afb001436db81bb2b54fea914e71ab1602202e54092584ecc08a26651b570ccbe8964970b99e97ffe7e1909dd209aba032c2[ALL] 02bcbe6a1acaea5152a2c4660d4d98797c1d072801f897d71cca10d8fd8408422a"}, "vout": 448, "txid": "137dbaeb0d8ee011db9802d34676ee0ecb0abcb06f439fdf8a222f30bdca136d"}, {"sequence": 4294967295, "scriptSig": {"hex": "483045022100c1d8d961ccc2bf5a9adae62a97f914c189a6fbcc39b339a526aa60fbf9e5858202200c9dc0197564645f95926053cac4c6c94877027e794a2fe7c2311df5349c63a4012102bcbe6a1acaea5152a2c4660d4d98797c1d072801f897d71cca10d8fd8408422a", "asm": "3045022100c1d8d961ccc2bf5a9adae62a97f914c189a6fbcc39b339a526aa60fbf9e5858202200c9dc0197564645f95926053cac4c6c94877027e794a2fe7c2311df5349c63a4[ALL] 02bcbe6a1acaea5152a2c4660d4d98797c1d072801f897d71cca10d8fd8408422a"}, "vout": 1, "txid": "1cf16234f8060957cc2c85ad018ffdb311d1c472b7f752b9d41fca76d6c2649f"}], "txid": "a3fab1507be6730815e5314975bfad7c7bec4a6710d34d0e6f81cf4145f62be6", "blocktime": 1537871767, "version": 1, "confirmations": 11495, "time": 1537871767, "locktime": 0, "vsize": 371, "size": 371}