{"hash": "a400b9ac4efe69e11a6a76e016f90ef9cf5022ebb690bb5f34f8c471170c928f", "blockhash": "0000000000000000001e0dab787dd257d1dbfcb92a98c2207d5e1078be1f4165", "vout": [{"scriptPubKey": {"type": "nulldata", "hex": "6a4c50000077bc0001c3bd13c224aaea86eb8b9a95e5bf9ae76da98a211aaf6c953dd567cf27e717bec04e98f481516d0dd5eb94374f945baa121906130c1b5edcf4b44bbf23acfcfaac8058b692fe6808c31d", "asm": "OP_RETURN 000077bc0001c3bd13c224aaea86eb8b9a95e5bf9ae76da98a211aaf6c953dd567cf27e717bec04e98f481516d0dd5eb94374f945baa121906130c1b5edcf4b44bbf23acfcfaac8058b692fe6808c31d"}, "value": 0.0, "n": 0}, {"scriptPubKey": {"reqSigs": 1, "hex": "76a914df3a56a1f759d2501794d0e634dd3d58fd2f741388ac", "addresses": ["1MMKaCiBJDwQ2ErpvbxP3F59sR8mKJAc1X"], "asm": "OP_DUP OP_HASH160 df3a56a1f759d2501794d0e634dd3d58fd2f7413 OP_EQUALVERIFY OP_CHECKSIG", "type": "pubkeyhash"}, "value": 0.00016169, "n": 1}], "hex": "010000000145a96312dfd129dbecb3a1b886a5bc28f00aadb4bde25ed56c1d19dd0c01db64000000006b483045022100bc3a05db583a7410af87a6efd4287f05264591b54bf34231d2b94be63e604f1b022038d7330793b95dbf725907d5af5f4dd33354d8abeb56ed1b7ba33e344073479e012102c93e2899e653e202f796c5c96ebd19e801caf15064d9acd6d60a8035ad661358ffffffff020000000000000000536a4c50000077bc0001c3bd13c224aaea86eb8b9a95e5bf9ae76da98a211aaf6c953dd567cf27e717bec04e98f481516d0dd5eb94374f945baa121906130c1b5edcf4b44bbf23acfcfaac8058b692fe6808c31d293f0000000000001976a914df3a56a1f759d2501794d0e634dd3d58fd2f741388ac00000000", "vin": [{"sequence": 4294967295, "scriptSig": {"hex": "483045022100bc3a05db583a7410af87a6efd4287f05264591b54bf34231d2b94be63e604f1b022038d7330793b95dbf725907d5af5f4dd33354d8abeb56ed1b7ba33e344073479e012102c93e2899e653e202f796c5c96ebd19e801caf15064d9acd6d60a8035ad661358", "asm": "3045022100bc3a05db583a7410af87a6efd4287f05264591b54bf34231d2b94be63e604f1b022038d7330793b95dbf725907d5af5f4dd33354d8abeb56ed1b7ba33e344073479e[ALL] 02c93e2899e653e202f796c5c96ebd19e801caf15064d9acd6d60a8035ad661358"}, "vout": 0, "txid": "64db010cdd191d6cd55ee2bdb4ad0af028bca586b8a1b3ecdb29d1df1263a945"}], "txid": "a400b9ac4efe69e11a6a76e016f90ef9cf5022ebb690bb5f34f8c471170c928f", "blocktime": 1537872475, "version": 1, "confirmations": 11486, "time": 1537872475, "locktime": 0, "vsize": 284, "size": 284}