{"hash": "524117470c8ca10ef52439d266df059e83f44743ec8d71e01b9f0fd09bddc8e9", "blockhash": "0000000000000000001f0ddff1eddb255c1121bcd4da4f1bc9a0da00cae72433", "vout": [{"scriptPubKey": {"reqSigs": 1, "hex": "001480c2044f00e1bd224b6aed44035d71bb14d5ee48", "addresses": ["bc1qsrpqgncqux7jyjm2a4zqxht3hv2dtmjgk9hf0p"], "asm": "0 80c2044f00e1bd224b6aed44035d71bb14d5ee48", "type": "witness_v0_keyhash"}, "value": 1.048e-05, "n": 0}, {"scriptPubKey": {"reqSigs": 1, "hex": "76a9141e5d693f48db19a65f0368149c927fbc04b53c9188ac", "addresses": ["13mZB5G4yZLTkuJzR95XgNBgNaFjkxKtCk"], "asm": "OP_DUP OP_HASH160 1e5d693f48db19a65f0368149c927fbc04b53c91 OP_EQUALVERIFY OP_CHECKSIG", "type": "pubkeyhash"}, "value": 0.00015332, "n": 1}], "hex": "01000000000101923e4e84c44f3d51a8dbe4ae30280206c16c756f01268e8b5fda4367ac63a3e40100000000ffffffff02180400000000000016001480c2044f00e1bd224b6aed44035d71bb14d5ee48e43b0000000000001976a9141e5d693f48db19a65f0368149c927fbc04b53c9188ac02483045022100ff913a26e448cdab6768f1659dc27914aaab81249f3a5c91e82d1351788092e9022079488272ea8f94baefa96d77dcde8ed68a63069a626e73525490ca3b800b25cb012103b897f23692da16ceeee098a217f8103d41fa3a97b269d8e8493749e4ef0c7bbd00000000", "vin": [{"txinwitness": ["3045022100ff913a26e448cdab6768f1659dc27914aaab81249f3a5c91e82d1351788092e9022079488272ea8f94baefa96d77dcde8ed68a63069a626e73525490ca3b800b25cb01", "03b897f23692da16ceeee098a217f8103d41fa3a97b269d8e8493749e4ef0c7bbd"], "sequence": 4294967295, "scriptSig": {"hex": "", "asm": ""}, "vout": 1, "txid": "e4a363ac6743da5f8b8e26016f756cc106022830aee4dba8513d4fc4844e3e92"}], "txid": "a4060b1a409e97f68a44935bfa903eb427b4be2521253ccea98a7bde4ab9b74e", "blocktime": 1537872018, "version": 1, "confirmations": 11489, "time": 1537872018, "locktime": 0, "vsize": 144, "size": 226}