{"hash": "a407c18451120bb1e941964fb921ae7d58a962e3478ee7bea80aff2a018f7020", "blockhash": "00000000000000000017f5eb5941039fbcee6240d03bc1f2f8e35350df66a1d8", "vout": [{"scriptPubKey": {"reqSigs": 1, "hex": "76a9143c2b46cfc35d5fbb06a55b47d8a943cc20eb6bcb88ac", "addresses": ["16V9PRS4jGsopWJjMVZADL1TpDy5JUEHF7"], "asm": "OP_DUP OP_HASH160 3c2b46cfc35d5fbb06a55b47d8a943cc20eb6bcb OP_EQUALVERIFY OP_CHECKSIG", "type": "pubkeyhash"}, "value": 0.00022799, "n": 0}, {"scriptPubKey": {"reqSigs": 1, "hex": "a914b99b3a12b8a5a447d7a5f15fb37fb0dbf91a0bb087", "addresses": ["3JcQtPAEXzMeewkhH8Bxd9bRskyiATQZzn"], "asm": "OP_HASH160 b99b3a12b8a5a447d7a5f15fb37fb0dbf91a0bb0 OP_EQUAL", "type": "scripthash"}, "value": 0.01563822, "n": 1}], "hex": "0100000004cbd3a0e8da2415c68ca462c3cc430bc139461718b671e4040f6986d24a8dc648010000006a473044022030055cc41b0318faf2b26246c9ba4957c1189dd7dc1ff69c1cfb34c6c2988de7022042af58702574ea7bb2e556c5991857b778b4fc9b78e2674ada4e44832fd10ba901210289e136196301c5426198f07a6b3137ad72e3989566b3be0af0b011af17ca9310ffffffff74054192bb17c12172860517c8cd49fde897898ca2694c013d7f4faa7e6edd6a010000006a4730440220291035fe7b7cb9076ddd6680f11aea41634c4ac785784d0f4edc41ac4a5bc66b02204975922c198bc6349cf506356230bc218997f194f002090cc1d33775e180dcd0012102bb27ee50ec9b8b2e3d02efd62d9c2f11c1115aea9c43c05be58311ed368672ebffffffffcf8fdd402f0cc50c229a25424270d1ca2a772c377e1bcf094e99abe9da44b58b010000006b483045022100f404201bb2236943217447d99e49550162eb46b35940fbdb5f7889760f0252d60220077634fc642fa82e7426690d70344989f7183cbeb0f0b0bbe8d09cda8a99e82e012102bb27ee50ec9b8b2e3d02efd62d9c2f11c1115aea9c43c05be58311ed368672ebffffffff60bd161470373622f585abeaf1896498e020633fb38fe637b60cc2efeab84da4000000006b483045022100b33fd5fea34f1a61d93c749b7416be2c35b890fdb42aa740aa5c1bf29e2666a302206c8721a082acf7c44757ec470e86e7c0a1f8a5781249afa096f9c05f4f9697db0121025661517064b895dbae50b1ae609bdc64c4831cf46853f439ba80bc4dd9e84e91ffffffff020f590000000000001976a9143c2b46cfc35d5fbb06a55b47d8a943cc20eb6bcb88acaedc17000000000017a914b99b3a12b8a5a447d7a5f15fb37fb0dbf91a0bb08700000000", "vin": [{"sequence": 4294967295, "scriptSig": {"hex": "473044022030055cc41b0318faf2b26246c9ba4957c1189dd7dc1ff69c1cfb34c6c2988de7022042af58702574ea7bb2e556c5991857b778b4fc9b78e2674ada4e44832fd10ba901210289e136196301c5426198f07a6b3137ad72e3989566b3be0af0b011af17ca9310", "asm": "3044022030055cc41b0318faf2b26246c9ba4957c1189dd7dc1ff69c1cfb34c6c2988de7022042af58702574ea7bb2e556c5991857b778b4fc9b78e2674ada4e44832fd10ba9[ALL] 0289e136196301c5426198f07a6b3137ad72e3989566b3be0af0b011af17ca9310"}, "vout": 1, "txid": "48c68d4ad286690f04e471b618174639c10b43ccc362a48cc61524dae8a0d3cb"}, {"sequence": 4294967295, "scriptSig": {"hex": "4730440220291035fe7b7cb9076ddd6680f11aea41634c4ac785784d0f4edc41ac4a5bc66b02204975922c198bc6349cf506356230bc218997f194f002090cc1d33775e180dcd0012102bb27ee50ec9b8b2e3d02efd62d9c2f11c1115aea9c43c05be58311ed368672eb", "asm": "30440220291035fe7b7cb9076ddd6680f11aea41634c4ac785784d0f4edc41ac4a5bc66b02204975922c198bc6349cf506356230bc218997f194f002090cc1d33775e180dcd0[ALL] 02bb27ee50ec9b8b2e3d02efd62d9c2f11c1115aea9c43c05be58311ed368672eb"}, "vout": 1, "txid": "6add6e7eaa4f7f3d014c69a28c8997e8fd49cdc81705867221c117bb92410574"}, {"sequence": 4294967295, "scriptSig": {"hex": "483045022100f404201bb2236943217447d99e49550162eb46b35940fbdb5f7889760f0252d60220077634fc642fa82e7426690d70344989f7183cbeb0f0b0bbe8d09cda8a99e82e012102bb27ee50ec9b8b2e3d02efd62d9c2f11c1115aea9c43c05be58311ed368672eb", "asm": "3045022100f404201bb2236943217447d99e49550162eb46b35940fbdb5f7889760f0252d60220077634fc642fa82e7426690d70344989f7183cbeb0f0b0bbe8d09cda8a99e82e[ALL] 02bb27ee50ec9b8b2e3d02efd62d9c2f11c1115aea9c43c05be58311ed368672eb"}, "vout": 1, "txid": "8bb544dae9ab994e09cf1b7e372c772acad1704242259a220cc50c2f40dd8fcf"}, {"sequence": 4294967295, "scriptSig": {"hex": "483045022100b33fd5fea34f1a61d93c749b7416be2c35b890fdb42aa740aa5c1bf29e2666a302206c8721a082acf7c44757ec470e86e7c0a1f8a5781249afa096f9c05f4f9697db0121025661517064b895dbae50b1ae609bdc64c4831cf46853f439ba80bc4dd9e84e91", "asm": "3045022100b33fd5fea34f1a61d93c749b7416be2c35b890fdb42aa740aa5c1bf29e2666a302206c8721a082acf7c44757ec470e86e7c0a1f8a5781249afa096f9c05f4f9697db[ALL] 025661517064b895dbae50b1ae609bdc64c4831cf46853f439ba80bc4dd9e84e91"}, "vout": 0, "txid": "a44db8eaefc20cb637e68fb33f6320e0986489f1eaab85f5223637701416bd60"}], "txid": "a407c18451120bb1e941964fb921ae7d58a962e3478ee7bea80aff2a018f7020", "blocktime": 1537874412, "version": 1, "confirmations": 11468, "time": 1537874412, "locktime": 0, "vsize": 666, "size": 666}