{"hash": "9ac9c392fac5546d4f27953b4ea13b5947011eec91af4ebf5c714459bf7e6db9", "blockhash": "0000000000000000001f76057863aec43deb6fa401d9628bb513d65a8098bfab", "vout": [{"scriptPubKey": {"reqSigs": 1, "hex": "a914ddc440a7f1bb6d5a65ba93a2f8b6fd984b54d6d787", "addresses": ["3MucMofZ5fmXiw7eZ9cND6pPBu9DtKej78"], "asm": "OP_HASH160 ddc440a7f1bb6d5a65ba93a2f8b6fd984b54d6d7 OP_EQUAL", "type": "scripthash"}, "value": 0.00393655, "n": 0}, {"scriptPubKey": {"reqSigs": 1, "hex": "a914d0c490c439ce6d4918438a031a1bdf27649caba887", "addresses": ["3Lisx47RV1EtkgKvymbdFPnhSETizRM7cm"], "asm": "OP_HASH160 d0c490c439ce6d4918438a031a1bdf27649caba8 OP_EQUAL", "type": "scripthash"}, "value": 7.39640923, "n": 1}], "hex": "020000000001019dd91532aa75a043d22a184ca119f501216b7ff581dfcbd9679c50769a629aad0100000017160014cf276af310d0cbe30a877176029cc2ace7c8063dfeffffff02b70106000000000017a914ddc440a7f1bb6d5a65ba93a2f8b6fd984b54d6d7875b06162c0000000017a914d0c490c439ce6d4918438a031a1bdf27649caba887024830450221008c7dcd9dbd9e93ad20e2bd6209090ed7b7caebb2fe6500849ee6dce5753a34bd02200c5232136622a4ebb87648b841cdfe39231e8335e6eb03651a4036fcc4fdee1c01210305505ded7246b608c778131d20cc6caf72b6202bdaca7db3571dc1f8470d88ca14490800", "vin": [{"txinwitness": ["30450221008c7dcd9dbd9e93ad20e2bd6209090ed7b7caebb2fe6500849ee6dce5753a34bd02200c5232136622a4ebb87648b841cdfe39231e8335e6eb03651a4036fcc4fdee1c01", "0305505ded7246b608c778131d20cc6caf72b6202bdaca7db3571dc1f8470d88ca"], "sequence": 4294967294, "scriptSig": {"hex": "160014cf276af310d0cbe30a877176029cc2ace7c8063d", "asm": "0014cf276af310d0cbe30a877176029cc2ace7c8063d"}, "vout": 1, "txid": "ad9a629a76509c67d9cbdf81f57f6b2101f519a14c182ad243a075aa3215d99d"}], "txid": "a4084060824f47843220ebaac1cef2b415c152d797759a2422df8b11b69e8dec", "blocktime": 1537873891, "version": 2, "confirmations": 11477, "time": 1537873891, "locktime": 542996, "vsize": 166, "size": 248}