{"hash": "a40cff3d4b41162bd26a4d728574a88ba9642326aed5b61a9c6e385cadcd6369", "blockhash": "00000000000000000024a2167bbff67b0be802c0b01cdd79e6331c2be6459f87", "vout": [{"scriptPubKey": {"reqSigs": 1, "hex": "76a914a25dec4d0011064ef106a983c39c7a540699f22088ac", "addresses": ["1FoWyxwPXuj4C6abqwhjDWdz6D4PZgYRjA"], "asm": "OP_DUP OP_HASH160 a25dec4d0011064ef106a983c39c7a540699f220 OP_EQUALVERIFY OP_CHECKSIG", "type": "pubkeyhash"}, "value": 0.01995204, "n": 0}, {"scriptPubKey": {"type": "nulldata", "hex": "6a146f6d6e69000000000000001f00000007aef40a00", "asm": "OP_RETURN 6f6d6e69000000000000001f00000007aef40a00"}, "value": 0.0, "n": 1}, {"scriptPubKey": {"reqSigs": 1, "hex": "76a91496d8fc7507d7dcfa5e3e97666f269bf7795fc7a988ac", "addresses": ["1EkcJEmLvZaQR9P7LBjHzz4bJJHWPDfA3f"], "asm": "OP_DUP OP_HASH160 96d8fc7507d7dcfa5e3e97666f269bf7795fc7a9 OP_EQUALVERIFY OP_CHECKSIG", "type": "pubkeyhash"}, "value": 5.46e-06, "n": 2}], "hex": "0100000001a44813c76173a4fe9689194c29809e35be05f1741d9b5e1e9e8bd44070ac1fea640000006a4730440220718a355f43e509826b15092dbf52fa704dad8fd3553d1c0f42f24e1c6f8980f302201cc155f8fb5fc4601a1fbc8f4455237df7a3332cd9c80e949fe8e43133ef31c0012103da5bac7b36d5aa38f531c6b9601e21bb598a4b6716ebed38b009a55dabde9440feffffff03c4711e00000000001976a914a25dec4d0011064ef106a983c39c7a540699f22088ac0000000000000000166a146f6d6e69000000000000001f00000007aef40a0022020000000000001976a91496d8fc7507d7dcfa5e3e97666f269bf7795fc7a988ac0d490800", "vin": [{"sequence": 4294967294, "scriptSig": {"hex": "4730440220718a355f43e509826b15092dbf52fa704dad8fd3553d1c0f42f24e1c6f8980f302201cc155f8fb5fc4601a1fbc8f4455237df7a3332cd9c80e949fe8e43133ef31c0012103da5bac7b36d5aa38f531c6b9601e21bb598a4b6716ebed38b009a55dabde9440", "asm": "30440220718a355f43e509826b15092dbf52fa704dad8fd3553d1c0f42f24e1c6f8980f302201cc155f8fb5fc4601a1fbc8f4455237df7a3332cd9c80e949fe8e43133ef31c0[ALL] 03da5bac7b36d5aa38f531c6b9601e21bb598a4b6716ebed38b009a55dabde9440"}, "vout": 100, "txid": "ea1fac7040d48b9e1e5e9b1d74f105be359e80294c198996fea47361c71348a4"}], "txid": "a40cff3d4b41162bd26a4d728574a88ba9642326aed5b61a9c6e385cadcd6369", "blocktime": 1537870564, "version": 1, "confirmations": 11515, "time": 1537870564, "locktime": 542989, "vsize": 256, "size": 256}