{"hash": "a40f1d41119a3ed77bfb5163bc3c6382f1310df02bb7cff60eb61b1924e2e101", "blockhash": "00000000000000000017f5eb5941039fbcee6240d03bc1f2f8e35350df66a1d8", "vout": [{"scriptPubKey": {"reqSigs": 1, "hex": "76a9143c2a94977887689c5ed92c59304b82ef14b575c488ac", "addresses": ["16V8Z3vZHr1zgN9eekGYJHzguQMmYHStgi"], "asm": "OP_DUP OP_HASH160 3c2a94977887689c5ed92c59304b82ef14b575c4 OP_EQUALVERIFY OP_CHECKSIG", "type": "pubkeyhash"}, "value": 0.02276935, "n": 0}], "hex": "010000000320d9ba662fa6b72086e60b6619990235068b7196bf950928bc4a984ec281815a010000006a47304402204690f572564e7656d63c7861bd6f6c444c53e95fc7670f12d4afac12b2b19293022019749b8c2e3e3780720f234ea8b72ac4d538b2e6ff58c8c7b849642d51184b1e0121035372cd2bb40ae29d25a11d3edbd44b411f1fd5d45d4932fb8741b5c90f43d3d7ffffffff4fca29aed29edc9114c48ae8646774243744406c2714bbcb0df10d70f8c967a3010000006a47304402202a0204c8baa98c26e8907523f9be372ff271c29aab504e9a40a812e9892609c202205a6bf943b30afb9ed4ad31d89318d56196f7828ad9c459869376672cfd20a7640121023b037ec54a0463d6face4d008238bdde4548616f557379ef6e5b291b27d70628ffffffff4db5302647cec27f3965cfe75dabce641a0ed7a3083c2a98fb3d41dc619196d7010000006a4730440220349ff2be15d0df05e52fa026863d0073b15794a3eafefc216ba4030a94ce291802204239058e12d85907cfc1358be4cb1eeb771b5833dda582a978d338c885700952012103817aee2cb6375790d719b2788a3f203bbd222a57bdf5b56ac4e6040451c33ce0ffffffff0147be2200000000001976a9143c2a94977887689c5ed92c59304b82ef14b575c488ac00000000", "vin": [{"sequence": 4294967295, "scriptSig": {"hex": "47304402204690f572564e7656d63c7861bd6f6c444c53e95fc7670f12d4afac12b2b19293022019749b8c2e3e3780720f234ea8b72ac4d538b2e6ff58c8c7b849642d51184b1e0121035372cd2bb40ae29d25a11d3edbd44b411f1fd5d45d4932fb8741b5c90f43d3d7", "asm": "304402204690f572564e7656d63c7861bd6f6c444c53e95fc7670f12d4afac12b2b19293022019749b8c2e3e3780720f234ea8b72ac4d538b2e6ff58c8c7b849642d51184b1e[ALL] 035372cd2bb40ae29d25a11d3edbd44b411f1fd5d45d4932fb8741b5c90f43d3d7"}, "vout": 1, "txid": "5a8181c24e984abc280995bf96718b0635029919660be68620b7a62f66bad920"}, {"sequence": 4294967295, "scriptSig": {"hex": "47304402202a0204c8baa98c26e8907523f9be372ff271c29aab504e9a40a812e9892609c202205a6bf943b30afb9ed4ad31d89318d56196f7828ad9c459869376672cfd20a7640121023b037ec54a0463d6face4d008238bdde4548616f557379ef6e5b291b27d70628", "asm": "304402202a0204c8baa98c26e8907523f9be372ff271c29aab504e9a40a812e9892609c202205a6bf943b30afb9ed4ad31d89318d56196f7828ad9c459869376672cfd20a764[ALL] 023b037ec54a0463d6face4d008238bdde4548616f557379ef6e5b291b27d70628"}, "vout": 1, "txid": "a367c9f8700df10dcbbb14276c40443724746764e88ac41491dc9ed2ae29ca4f"}, {"sequence": 4294967295, "scriptSig": {"hex": "4730440220349ff2be15d0df05e52fa026863d0073b15794a3eafefc216ba4030a94ce291802204239058e12d85907cfc1358be4cb1eeb771b5833dda582a978d338c885700952012103817aee2cb6375790d719b2788a3f203bbd222a57bdf5b56ac4e6040451c33ce0", "asm": "30440220349ff2be15d0df05e52fa026863d0073b15794a3eafefc216ba4030a94ce291802204239058e12d85907cfc1358be4cb1eeb771b5833dda582a978d338c885700952[ALL] 03817aee2cb6375790d719b2788a3f203bbd222a57bdf5b56ac4e6040451c33ce0"}, "vout": 1, "txid": "d7969161dc413dfb982a3c08a3d70e1a64ceab5de7cf65397fc2ce472630b54d"}], "txid": "a40f1d41119a3ed77bfb5163bc3c6382f1310df02bb7cff60eb61b1924e2e101", "blocktime": 1537874412, "version": 1, "confirmations": 11467, "time": 1537874412, "locktime": 0, "vsize": 485, "size": 485}