{"hash": "a4120e5fbf31ba516765d559a826f954d004d9dc66348499b3dede6953118c40", "blockhash": "0000000000000000001e0dab787dd257d1dbfcb92a98c2207d5e1078be1f4165", "vout": [{"scriptPubKey": {"reqSigs": 1, "hex": "76a914894211f05f4247355e9edd2e78ca49b6a8bcbf0888ac", "addresses": ["1DWkiunD7WNfwKtHhmoGoXJaRtJTRkt9vh"], "asm": "OP_DUP OP_HASH160 894211f05f4247355e9edd2e78ca49b6a8bcbf08 OP_EQUALVERIFY OP_CHECKSIG", "type": "pubkeyhash"}, "value": 0.39369297, "n": 0}, {"scriptPubKey": {"reqSigs": 1, "hex": "76a914623c59db59e03ceaafc997bb25ebd247bbda916f88ac", "addresses": ["19xRX4WsAm1yeWrXeBK8p7rKDgqwBR42j1"], "asm": "OP_DUP OP_HASH160 623c59db59e03ceaafc997bb25ebd247bbda916f OP_EQUALVERIFY OP_CHECKSIG", "type": "pubkeyhash"}, "value": 0.5, "n": 1}], "hex": "01000000010501f3dcc5ceb6328ea33c6178bbb29ce40647a21bb6a0638ec2e63f32e1db0f000000006b483045022100b7a63c3adb44e5197a93797d022279bfaddb606198a019ecdf10df102eb67a5f022072dd0bf6718bffde543b167d5bd7f49571cd2c82ed2b24d22a1e4dd8175b4361012102cc9c7e88fcd0ce0bd8963cbfc7cf6a522302c3e52a8c23afca3db81b553f0648fdffffff0251ba5802000000001976a914894211f05f4247355e9edd2e78ca49b6a8bcbf0888ac80f0fa02000000001976a914623c59db59e03ceaafc997bb25ebd247bbda916f88ac12490800", "vin": [{"sequence": 4294967293, "scriptSig": {"hex": "483045022100b7a63c3adb44e5197a93797d022279bfaddb606198a019ecdf10df102eb67a5f022072dd0bf6718bffde543b167d5bd7f49571cd2c82ed2b24d22a1e4dd8175b4361012102cc9c7e88fcd0ce0bd8963cbfc7cf6a522302c3e52a8c23afca3db81b553f0648", "asm": "3045022100b7a63c3adb44e5197a93797d022279bfaddb606198a019ecdf10df102eb67a5f022072dd0bf6718bffde543b167d5bd7f49571cd2c82ed2b24d22a1e4dd8175b4361[ALL] 02cc9c7e88fcd0ce0bd8963cbfc7cf6a522302c3e52a8c23afca3db81b553f0648"}, "vout": 0, "txid": "0fdbe1323fe6c28e63a0b61ba24706e49cb2bb78613ca38e32b6cec5dcf30105"}], "txid": "a4120e5fbf31ba516765d559a826f954d004d9dc66348499b3dede6953118c40", "blocktime": 1537872475, "version": 1, "confirmations": 11486, "time": 1537872475, "locktime": 542994, "vsize": 226, "size": 226}