{"hash": "a41baf283080d416b6b8ac8ce3ab81fe4810254fcb93e194b3d0615349054bc9", "blockhash": "0000000000000000001cda96e906b7601b7a6fb1a3b62bca570a9e5d8f4b3de1", "vout": [{"scriptPubKey": {"reqSigs": 1, "hex": "76a914d243e6abb9a60fbff430b421d2df4b7d59ec186088ac", "addresses": ["1LAnF8h3qMGx3TSwNUHVneBZUEpwE4gu3D"], "asm": "OP_DUP OP_HASH160 d243e6abb9a60fbff430b421d2df4b7d59ec1860 OP_EQUALVERIFY OP_CHECKSIG", "type": "pubkeyhash"}, "value": 0.00077314, "n": 0}, {"scriptPubKey": {"reqSigs": 1, "hex": "a9149af1eb5e946dcddd4040c8c52987705482ce387c87", "addresses": ["3FpHnwXyLw3zBEAjdLbJpBPw1XTwtRjxy7"], "asm": "OP_HASH160 9af1eb5e946dcddd4040c8c52987705482ce387c OP_EQUAL", "type": "scripthash"}, "value": 5.46e-06, "n": 1}, {"scriptPubKey": {"type": "nulldata", "hex": "6a146f6d6e69000000000000001f000000172aa98300", "asm": "OP_RETURN 6f6d6e69000000000000001f000000172aa98300"}, "value": 0.0, "n": 2}], "hex": "01000000013ebb935d3ab7aebac65c2c2c336e8ce101d460b16ce3a33921bfd784582341cf000000006a473044022046b38628a99425991740277944a35ac05ae274e152713ff798c49ee2c9f021d002201b93ff935668bcbdd0328a4f0ac0cba664416c695c9e602ff86595c741442b2501210271977291b74f1f5f5c42157e8aae804664eaaeccfd097918450d37f28fb94d77ffffffff03022e0100000000001976a914d243e6abb9a60fbff430b421d2df4b7d59ec186088ac220200000000000017a9149af1eb5e946dcddd4040c8c52987705482ce387c870000000000000000166a146f6d6e69000000000000001f000000172aa9830000000000", "vin": [{"sequence": 4294967295, "scriptSig": {"hex": "473044022046b38628a99425991740277944a35ac05ae274e152713ff798c49ee2c9f021d002201b93ff935668bcbdd0328a4f0ac0cba664416c695c9e602ff86595c741442b2501210271977291b74f1f5f5c42157e8aae804664eaaeccfd097918450d37f28fb94d77", "asm": "3044022046b38628a99425991740277944a35ac05ae274e152713ff798c49ee2c9f021d002201b93ff935668bcbdd0328a4f0ac0cba664416c695c9e602ff86595c741442b25[ALL] 0271977291b74f1f5f5c42157e8aae804664eaaeccfd097918450d37f28fb94d77"}, "vout": 0, "txid": "cf41235884d7bf2139a3e36cb160d401e18c6e332c2c5cc6baaeb73a5d93bb3e"}], "txid": "a41baf283080d416b6b8ac8ce3ab81fe4810254fcb93e194b3d0615349054bc9", "blocktime": 1537873282, "version": 1, "confirmations": 11483, "time": 1537873282, "locktime": 0, "vsize": 254, "size": 254}