{"hash": "82343512a8a84f2e6f59863a9c494fdb16446165e48a3e04ccde75a5b8ad7cea", "blockhash": "0000000000000000000dcc0f55137456b1a82d3642486a52398922ac4d620174", "vout": [{"scriptPubKey": {"reqSigs": 1, "hex": "76a914111586d9651183d0ed4caee7ed6aaa7887e1a6ec88ac", "addresses": ["12ZLGy3Uj2vyd7atrUrdVJsXkMzG73SYev"], "asm": "OP_DUP OP_HASH160 111586d9651183d0ed4caee7ed6aaa7887e1a6ec OP_EQUALVERIFY OP_CHECKSIG", "type": "pubkeyhash"}, "value": 0.00578608, "n": 0}, {"scriptPubKey": {"reqSigs": 1, "hex": "a9149649ad6d2730bb28020a268d9d80df10a9f74ad487", "addresses": ["3FPfYWwfMfKMGY7fuPHvz2b73RhTNGzsm3"], "asm": "OP_HASH160 9649ad6d2730bb28020a268d9d80df10a9f74ad4 OP_EQUAL", "type": "scripthash"}, "value": 13.95777391, "n": 1}], "hex": "0100000000010127562a2a515a385b176b143cfc56a7c02b532266deab912be5b1f229f9eccf1601000000232200207768efcc1e5eb3d28410fac3f45831004c860cc24cddd940a616b34324823fceffffffff0230d40800000000001976a914111586d9651183d0ed4caee7ed6aaa7887e1a6ec88ac6fdf31530000000017a9149649ad6d2730bb28020a268d9d80df10a9f74ad487040047304402201b5fbc6ecbbcb79f4b8d8936d87591deb030088047e35e900bc83398f4324cc702207479362b6e7479e5d851e8101baf9167f4ad335c4837bbe1534d921c677adb23014730440220256859ba5382beeb87a3e7280a5735c8a4812eed40bbbd79dd0ac99cc1ae0a3f022057bccea014c368236072830e83e9d139851feeaea1d7e0a2b536cab395b017690147522102529d5d1f6733ab45d9d50e07db42c7f6b967ae321c38b726c2247f149959b8262103d0c936a5988dd8421c63240496b723b0ec42400c38b9350e32c2eb4f47d8796952ae00000000", "vin": [{"txinwitness": ["", "304402201b5fbc6ecbbcb79f4b8d8936d87591deb030088047e35e900bc83398f4324cc702207479362b6e7479e5d851e8101baf9167f4ad335c4837bbe1534d921c677adb2301", "30440220256859ba5382beeb87a3e7280a5735c8a4812eed40bbbd79dd0ac99cc1ae0a3f022057bccea014c368236072830e83e9d139851feeaea1d7e0a2b536cab395b0176901", "522102529d5d1f6733ab45d9d50e07db42c7f6b967ae321c38b726c2247f149959b8262103d0c936a5988dd8421c63240496b723b0ec42400c38b9350e32c2eb4f47d8796952ae"], "sequence": 4294967295, "scriptSig": {"hex": "2200207768efcc1e5eb3d28410fac3f45831004c860cc24cddd940a616b34324823fce", "asm": "00207768efcc1e5eb3d28410fac3f45831004c860cc24cddd940a616b34324823fce"}, "vout": 1, "txid": "16cfecf929f2b1e52b91abde6622532bc0a756fc3c146b175b385a512a2a5627"}], "txid": "a421e4cfc8bb72e560f095212d80a0105035462c50adafb6f2fcaa35462e86d8", "blocktime": 1537870268, "version": 1, "confirmations": 11518, "time": 1537870268, "locktime": 0, "vsize": 207, "size": 372}