{"hash": "50d428eb89063e5351772221c7e9ca8fbd2f9faf37604aca1754b81b1630000e", "blockhash": "0000000000000000000dcc0f55137456b1a82d3642486a52398922ac4d620174", "vout": [{"scriptPubKey": {"reqSigs": 1, "hex": "76a9142ccf7068a17b45c0462b4c07efee4aee9ec85abe88ac", "addresses": ["155wEZaNgG1eHdGorFvMA5hddU4RLWnUoF"], "asm": "OP_DUP OP_HASH160 2ccf7068a17b45c0462b4c07efee4aee9ec85abe OP_EQUALVERIFY OP_CHECKSIG", "type": "pubkeyhash"}, "value": 0.003, "n": 0}, {"scriptPubKey": {"reqSigs": 1, "hex": "0014b08de8bdad8b479b78511a6b1434cce251de329d", "addresses": ["bc1qkzx730dd3drek7z3rf43gdxvufgauv5a7l9uxk"], "asm": "0 b08de8bdad8b479b78511a6b1434cce251de329d", "type": "witness_v0_keyhash"}, "value": 1.222e-05, "n": 1}], "hex": "010000000001013775c720078db391a39f3c35b667ea3c05c632fcda04d6d792a995ee6626f6d70000000017160014514339c5414c60772418dbc3cb47e1dc2088f62bffffffff02e0930400000000001976a9142ccf7068a17b45c0462b4c07efee4aee9ec85abe88acc604000000000000160014b08de8bdad8b479b78511a6b1434cce251de329d02483045022100be056a6263ed2f6dbb2d9b183d8c6f51fbe2545cb8649527174bb91821dd2b1002206d7fc72a57626307e654cc6b6ea3514003bbd064d9578ff34be1f4ccb005c01001210357db81a078150ba2af9ee873f646392c65e6ea16ddac088de5547922f7cf5aeb00000000", "vin": [{"txinwitness": ["3045022100be056a6263ed2f6dbb2d9b183d8c6f51fbe2545cb8649527174bb91821dd2b1002206d7fc72a57626307e654cc6b6ea3514003bbd064d9578ff34be1f4ccb005c01001", "0357db81a078150ba2af9ee873f646392c65e6ea16ddac088de5547922f7cf5aeb"], "sequence": 4294967295, "scriptSig": {"hex": "160014514339c5414c60772418dbc3cb47e1dc2088f62b", "asm": "0014514339c5414c60772418dbc3cb47e1dc2088f62b"}, "vout": 0, "txid": "d7f62666ee95a992d7d604dafc32c6053cea67b6353c9fa391b38d0720c77537"}], "txid": "a425fc20390af5ad5ccd98732434c5d0cd8ade7daa85b939824a30a7d6f7c1cf", "blocktime": 1537870268, "version": 1, "confirmations": 11518, "time": 1537870268, "locktime": 0, "vsize": 167, "size": 249}