{"hash": "a42539b4750bf4ae6fae4edb8c529dca0ce382870a5eb57d22d0f520790c806e", "blockhash": "0000000000000000001cda96e906b7601b7a6fb1a3b62bca570a9e5d8f4b3de1", "vout": [{"scriptPubKey": {"reqSigs": 1, "hex": "a9141e77482d76e876a4c5ffd3d785f7ecae0d8b01aa87", "addresses": ["34U769rLLevq2mjp2t9vNATB8Biub1A6Vm"], "asm": "OP_HASH160 1e77482d76e876a4c5ffd3d785f7ecae0d8b01aa OP_EQUAL", "type": "scripthash"}, "value": 0.00509175, "n": 0}], "hex": "01000000017b473aee2d16d73a559d1530e0b7b87297c6bed7f6878f30fe39daa7693ad529150000006a47304402204c60a4f8b971384e0a8e3761367a313aef118e0bea1915273a2d1ffd90439ae402205547de88fc2bf6f838c995f80113c20269279a112b90e903aba929ffdf84436b012103da3134e0e00878dbedaf217c73c4b424ccb3b914e895ca1b8e663656992c8ddeffffffff01f7c407000000000017a9141e77482d76e876a4c5ffd3d785f7ecae0d8b01aa8700000000", "vin": [{"sequence": 4294967295, "scriptSig": {"hex": "47304402204c60a4f8b971384e0a8e3761367a313aef118e0bea1915273a2d1ffd90439ae402205547de88fc2bf6f838c995f80113c20269279a112b90e903aba929ffdf84436b012103da3134e0e00878dbedaf217c73c4b424ccb3b914e895ca1b8e663656992c8dde", "asm": "304402204c60a4f8b971384e0a8e3761367a313aef118e0bea1915273a2d1ffd90439ae402205547de88fc2bf6f838c995f80113c20269279a112b90e903aba929ffdf84436b[ALL] 03da3134e0e00878dbedaf217c73c4b424ccb3b914e895ca1b8e663656992c8dde"}, "vout": 21, "txid": "29d53a69a7da39fe308f87f6d7bec69772b8b7e030159d553ad7162dee3a477b"}], "txid": "a42539b4750bf4ae6fae4edb8c529dca0ce382870a5eb57d22d0f520790c806e", "blocktime": 1537873282, "version": 1, "confirmations": 11484, "time": 1537873282, "locktime": 0, "vsize": 189, "size": 189}