{"hash": "a42a4d61ffaef98de478dc8cac0d7f958a5e7574a4dcd9428e756a04e8084101", "blockhash": "00000000000000000017f5eb5941039fbcee6240d03bc1f2f8e35350df66a1d8", "vout": [{"scriptPubKey": {"reqSigs": 1, "hex": "76a91431504230ca5c913a0f693c92e6d48dc9b4209ee888ac", "addresses": ["15VkFrzjvyvLd4FNaBanxnNU5ZmLWcfScn"], "asm": "OP_DUP OP_HASH160 31504230ca5c913a0f693c92e6d48dc9b4209ee8 OP_EQUALVERIFY OP_CHECKSIG", "type": "pubkeyhash"}, "value": 0.00278, "n": 0}, {"scriptPubKey": {"reqSigs": 1, "hex": "76a9144242f4337973301fb45dd4ccb15a258ddfbe410188ac", "addresses": ["173Mohc1DzKZ2cu7fKFKdYDZtmggWjRYZh"], "asm": "OP_DUP OP_HASH160 4242f4337973301fb45dd4ccb15a258ddfbe4101 OP_EQUALVERIFY OP_CHECKSIG", "type": "pubkeyhash"}, "value": 0.00267392, "n": 1}], "hex": "010000000197f3ba3499cef38c3911103eb9b4ebf47e0388e7eaf65a66adc378c19c2071ce010000006a473044022054fea8bad9306c42d0c8200f05d52aaee08df938c64dd67d6832c1dff828393502207c6e7b5c10cc53425b70bf3aa0bc29f720c91de538c8397ae74511bc82c1f7d0012103d7bb037b8635f8ddfb41b6c7305ef6684dd944c6d7bad2683df83c22829950c3ffffffff02f03d0400000000001976a91431504230ca5c913a0f693c92e6d48dc9b4209ee888ac80140400000000001976a9144242f4337973301fb45dd4ccb15a258ddfbe410188ac00000000", "vin": [{"sequence": 4294967295, "scriptSig": {"hex": "473044022054fea8bad9306c42d0c8200f05d52aaee08df938c64dd67d6832c1dff828393502207c6e7b5c10cc53425b70bf3aa0bc29f720c91de538c8397ae74511bc82c1f7d0012103d7bb037b8635f8ddfb41b6c7305ef6684dd944c6d7bad2683df83c22829950c3", "asm": "3044022054fea8bad9306c42d0c8200f05d52aaee08df938c64dd67d6832c1dff828393502207c6e7b5c10cc53425b70bf3aa0bc29f720c91de538c8397ae74511bc82c1f7d0[ALL] 03d7bb037b8635f8ddfb41b6c7305ef6684dd944c6d7bad2683df83c22829950c3"}, "vout": 1, "txid": "ce71209cc178c3ad665af6eae788037ef4ebb4b93e1011398cf3ce9934baf397"}], "txid": "a42a4d61ffaef98de478dc8cac0d7f958a5e7574a4dcd9428e756a04e8084101", "blocktime": 1537874412, "version": 1, "confirmations": 11467, "time": 1537874412, "locktime": 0, "vsize": 225, "size": 225}