{"hash": "a42ca0127301689f72126aaa43b9e73546398fedb9527caa93a61cd8912c6e42", "blockhash": "0000000000000000001e0dab787dd257d1dbfcb92a98c2207d5e1078be1f4165", "vout": [{"scriptPubKey": {"reqSigs": 1, "hex": "76a914f93722906a473f7971b5b40703b0d2105e5962f888ac", "addresses": ["1PijJcbzyRGCJeossYMmtT9VJWU4AbpgHU"], "asm": "OP_DUP OP_HASH160 f93722906a473f7971b5b40703b0d2105e5962f8 OP_EQUALVERIFY OP_CHECKSIG", "type": "pubkeyhash"}, "value": 0.059292, "n": 0}, {"scriptPubKey": {"reqSigs": 1, "hex": "76a91449b3893f99736e08d4f4ade4f5f15822552d8ec888ac", "addresses": ["17ihQPm1samPDADjCikCJfurF6Uqa17WSp"], "asm": "OP_DUP OP_HASH160 49b3893f99736e08d4f4ade4f5f15822552d8ec8 OP_EQUALVERIFY OP_CHECKSIG", "type": "pubkeyhash"}, "value": 10.69029408, "n": 1}], "hex": "0100000001505d79a7db108127761736da47847a55d7ad2f1e280ef8ac9e29dd0c713569ab010000006b483045022100abfd35e0827d4e83a86c00aba1aa53bbbd83092e92d5ea9e19c145f0dd5f46fc022047788b650811e4c26e58a1c7e407d48f84e2b222a19a752838529b5211dc9156012103b33afd8bc152bc58a790e43399d5ccc6f8fbf055390fcc661cf877c47b6c35abffffffff02f0785a00000000001976a914f93722906a473f7971b5b40703b0d2105e5962f888ac2018b83f000000001976a91449b3893f99736e08d4f4ade4f5f15822552d8ec888ac00000000", "vin": [{"sequence": 4294967295, "scriptSig": {"hex": "483045022100abfd35e0827d4e83a86c00aba1aa53bbbd83092e92d5ea9e19c145f0dd5f46fc022047788b650811e4c26e58a1c7e407d48f84e2b222a19a752838529b5211dc9156012103b33afd8bc152bc58a790e43399d5ccc6f8fbf055390fcc661cf877c47b6c35ab", "asm": "3045022100abfd35e0827d4e83a86c00aba1aa53bbbd83092e92d5ea9e19c145f0dd5f46fc022047788b650811e4c26e58a1c7e407d48f84e2b222a19a752838529b5211dc9156[ALL] 03b33afd8bc152bc58a790e43399d5ccc6f8fbf055390fcc661cf877c47b6c35ab"}, "vout": 1, "txid": "ab6935710cdd299eacf80e281e2fadd7557a8447da361776278110dba7795d50"}], "txid": "a42ca0127301689f72126aaa43b9e73546398fedb9527caa93a61cd8912c6e42", "blocktime": 1537872475, "version": 1, "confirmations": 11486, "time": 1537872475, "locktime": 0, "vsize": 226, "size": 226}