{"hash": "a42d2cad9efe0801821c7399c8cb248921685de6c17198f0caf23caf43bee8df", "blockhash": "00000000000000000017f5eb5941039fbcee6240d03bc1f2f8e35350df66a1d8", "vout": [{"scriptPubKey": {"reqSigs": 1, "hex": "76a914e0cee18febbe4b4d68417b4fac8a8fec9757eeb488ac", "addresses": ["1MVgCKcrHAxxV9nDMuZWbzHpL9ougf6TEe"], "asm": "OP_DUP OP_HASH160 e0cee18febbe4b4d68417b4fac8a8fec9757eeb4 OP_EQUALVERIFY OP_CHECKSIG", "type": "pubkeyhash"}, "value": 0.00497, "n": 0}, {"scriptPubKey": {"reqSigs": 1, "hex": "76a914b1461c5ec671fdaa981f633d9959244684a557f188ac", "addresses": ["1HALbLgCe7duAuXdHfVBLdGsdsmm1VKw4f"], "asm": "OP_DUP OP_HASH160 b1461c5ec671fdaa981f633d9959244684a557f1 OP_EQUALVERIFY OP_CHECKSIG", "type": "pubkeyhash"}, "value": 0.0002, "n": 1}], "hex": "0200000001444aeeae446139b5d0f4b02b89f2e50051b4a2640954adc5342af21e14e845d0000000006b483045022100b1a47e8c1123f1910a05a11b3336c13c73b684a11972472aef255b9e42fe3d0e02205b345856a3033621b096613e0115c49f3d991f39f9e642bd48101c160d9bc8f30121022089d425695185841601fc0fedd0b6162fc35dae317689b3c6046b06bd281b8bffffffff0268950700000000001976a914e0cee18febbe4b4d68417b4fac8a8fec9757eeb488ac204e0000000000001976a914b1461c5ec671fdaa981f633d9959244684a557f188ac00000000", "vin": [{"sequence": 4294967295, "scriptSig": {"hex": "483045022100b1a47e8c1123f1910a05a11b3336c13c73b684a11972472aef255b9e42fe3d0e02205b345856a3033621b096613e0115c49f3d991f39f9e642bd48101c160d9bc8f30121022089d425695185841601fc0fedd0b6162fc35dae317689b3c6046b06bd281b8b", "asm": "3045022100b1a47e8c1123f1910a05a11b3336c13c73b684a11972472aef255b9e42fe3d0e02205b345856a3033621b096613e0115c49f3d991f39f9e642bd48101c160d9bc8f3[ALL] 022089d425695185841601fc0fedd0b6162fc35dae317689b3c6046b06bd281b8b"}, "vout": 0, "txid": "d045e8141ef22a34c5ad540964a2b45100e5f2892bb0f4d0b5396144aeee4a44"}], "txid": "a42d2cad9efe0801821c7399c8cb248921685de6c17198f0caf23caf43bee8df", "blocktime": 1537874412, "version": 2, "confirmations": 11467, "time": 1537874412, "locktime": 0, "vsize": 226, "size": 226}