{"hash": "a42eec46ae0fc6e4f2a611fe7a2f50366d7183959356d999e94e52ade5d0fdc3", "blockhash": "0000000000000000000e13cef7c366c0283d82e591d1acd082e914b08063cdf1", "vout": [{"scriptPubKey": {"reqSigs": 1, "hex": "76a91409946d21f8453bc7075bdb3d2cbb725abb6f085388ac", "addresses": ["1setZrvhyPsRc2cQJoPTs3sZ7bCuq1xeT"], "asm": "OP_DUP OP_HASH160 09946d21f8453bc7075bdb3d2cbb725abb6f0853 OP_EQUALVERIFY OP_CHECKSIG", "type": "pubkeyhash"}, "value": 5.46e-06, "n": 0}, {"scriptPubKey": {"reqSigs": 1, "hex": "76a9142bb4bd7956e9efedb69f406ba48f63f59ce8f86988ac", "addresses": ["14z6aJ1d63r792cokxWf4UC1Xg8M6f2iAy"], "asm": "OP_DUP OP_HASH160 2bb4bd7956e9efedb69f406ba48f63f59ce8f869 OP_EQUALVERIFY OP_CHECKSIG", "type": "pubkeyhash"}, "value": 0.00044728, "n": 1}], "hex": "010000000140d2b2663a9a71ef38aa175bca62f75215b6d8d5dc6dd14775996b69fed3cc4b000000006a47304402200fd0267534096004557659636eeb748825f88c071c013dfbddc8932cd9bd96830220195234bddb3c9467966fe595fea2e0d192c8e5b08990d1e827e3f098aa803fea012102f4c108e228cc7d76afd95797193ed68cc78dc5cf8be3ef142fb67e280b13f819ffffffff0222020000000000001976a91409946d21f8453bc7075bdb3d2cbb725abb6f085388acb8ae0000000000001976a9142bb4bd7956e9efedb69f406ba48f63f59ce8f86988ac00000000", "vin": [{"sequence": 4294967295, "scriptSig": {"hex": "47304402200fd0267534096004557659636eeb748825f88c071c013dfbddc8932cd9bd96830220195234bddb3c9467966fe595fea2e0d192c8e5b08990d1e827e3f098aa803fea012102f4c108e228cc7d76afd95797193ed68cc78dc5cf8be3ef142fb67e280b13f819", "asm": "304402200fd0267534096004557659636eeb748825f88c071c013dfbddc8932cd9bd96830220195234bddb3c9467966fe595fea2e0d192c8e5b08990d1e827e3f098aa803fea[ALL] 02f4c108e228cc7d76afd95797193ed68cc78dc5cf8be3ef142fb67e280b13f819"}, "vout": 0, "txid": "4bccd3fe696b997547d16ddcd5d8b61552f762ca5b17aa38ef719a3a66b2d240"}], "txid": "a42eec46ae0fc6e4f2a611fe7a2f50366d7183959356d999e94e52ade5d0fdc3", "blocktime": 1537871767, "version": 1, "confirmations": 11495, "time": 1537871767, "locktime": 0, "vsize": 225, "size": 225}