{"hash": "a43b15308b9b8e1f3fbddc0df70b8396fa1b36001bc0c378a226593952b1ef6a", "blockhash": "0000000000000000000e13cef7c366c0283d82e591d1acd082e914b08063cdf1", "vout": [{"scriptPubKey": {"reqSigs": 1, "hex": "76a91435d7de6dfb7053b17142a311127b56f85fde825088ac", "addresses": ["15uhQzvnhhkTyMeLZoF7kHAvpAsh74kh9z"], "asm": "OP_DUP OP_HASH160 35d7de6dfb7053b17142a311127b56f85fde8250 OP_EQUALVERIFY OP_CHECKSIG", "type": "pubkeyhash"}, "value": 0.00023352, "n": 0}, {"scriptPubKey": {"reqSigs": 1, "hex": "76a914aeca880b9fdbf9b0a25e1b1e9b70b9cc115ee7ff88ac", "addresses": ["1GwDCWWVkbiv623j5FPMKz4LWfRmqNTUSS"], "asm": "OP_DUP OP_HASH160 aeca880b9fdbf9b0a25e1b1e9b70b9cc115ee7ff OP_EQUALVERIFY OP_CHECKSIG", "type": "pubkeyhash"}, "value": 0.00062508, "n": 1}], "hex": "0100000001df9a1fe63b5aec18cfa397b9719761e9c8522e86c9cd3c303eccd527df272d92000000006b483045022100b79777625c72d54b41b3d9703f7006a2190d5f6604a3762e6978abcfa893fc6e02204ac086d03bc6201991df6356e06db5a9feda0893a0ccbf882c53100892dba4110121033f1719997b0e60228740c1379d5bbfc9ddfcc71407a26e23ca8d2bcb40434f2affffffff02385b0000000000001976a91435d7de6dfb7053b17142a311127b56f85fde825088ac2cf40000000000001976a914aeca880b9fdbf9b0a25e1b1e9b70b9cc115ee7ff88ac00000000", "vin": [{"sequence": 4294967295, "scriptSig": {"hex": "483045022100b79777625c72d54b41b3d9703f7006a2190d5f6604a3762e6978abcfa893fc6e02204ac086d03bc6201991df6356e06db5a9feda0893a0ccbf882c53100892dba4110121033f1719997b0e60228740c1379d5bbfc9ddfcc71407a26e23ca8d2bcb40434f2a", "asm": "3045022100b79777625c72d54b41b3d9703f7006a2190d5f6604a3762e6978abcfa893fc6e02204ac086d03bc6201991df6356e06db5a9feda0893a0ccbf882c53100892dba411[ALL] 033f1719997b0e60228740c1379d5bbfc9ddfcc71407a26e23ca8d2bcb40434f2a"}, "vout": 0, "txid": "922d27df27d5cc3e303ccdc9862e52c8e9619771b997a3cf18ec5a3be61f9adf"}], "txid": "a43b15308b9b8e1f3fbddc0df70b8396fa1b36001bc0c378a226593952b1ef6a", "blocktime": 1537871767, "version": 1, "confirmations": 11495, "time": 1537871767, "locktime": 0, "vsize": 226, "size": 226}