{"hash": "a43eaaa21d39ff5fd842db68292cb26a629404cc00e4c1c5f71c7681171141c6", "blockhash": "0000000000000000001cda96e906b7601b7a6fb1a3b62bca570a9e5d8f4b3de1", "vout": [{"scriptPubKey": {"reqSigs": 1, "hex": "a914a8988cc2c285a08c65821bec5325761bd682703687", "addresses": ["3H4UC7wQkfoTrxRndR9UFXXHJ8EBFtuj8j"], "asm": "OP_HASH160 a8988cc2c285a08c65821bec5325761bd6827036 OP_EQUAL", "type": "scripthash"}, "value": 0.0026236, "n": 0}, {"scriptPubKey": {"reqSigs": 1, "hex": "76a914c13013d15d2cb12f54c3e1f9a3d7a40a3fe5d2d188ac", "addresses": ["1JcV1W2jenceUKnx6ozaB5BZNk7vwWwh1P"], "asm": "OP_DUP OP_HASH160 c13013d15d2cb12f54c3e1f9a3d7a40a3fe5d2d1 OP_EQUALVERIFY OP_CHECKSIG", "type": "pubkeyhash"}, "value": 0.02325046, "n": 1}], "hex": "0100000001690e7038842d4794c31922f93c2aa321635c74a69df0c3389081c31ce4264efb010000006a47304402201503a569f1d9f7fcaf02e534b8d628314896094aebeebb2e253b8d4cbae772cc0220628c06d76d754f514b6431ddfbe1a9b2e5c148513b51fef8eb50537598ef4a6b012103dc3e96be3cef862ad0cff1e7a1d3768a01690abcdc93f4c51266f79e1eac9cfcffffffff02d80004000000000017a914a8988cc2c285a08c65821bec5325761bd682703687367a2300000000001976a914c13013d15d2cb12f54c3e1f9a3d7a40a3fe5d2d188ac00000000", "vin": [{"sequence": 4294967295, "scriptSig": {"hex": "47304402201503a569f1d9f7fcaf02e534b8d628314896094aebeebb2e253b8d4cbae772cc0220628c06d76d754f514b6431ddfbe1a9b2e5c148513b51fef8eb50537598ef4a6b012103dc3e96be3cef862ad0cff1e7a1d3768a01690abcdc93f4c51266f79e1eac9cfc", "asm": "304402201503a569f1d9f7fcaf02e534b8d628314896094aebeebb2e253b8d4cbae772cc0220628c06d76d754f514b6431ddfbe1a9b2e5c148513b51fef8eb50537598ef4a6b[ALL] 03dc3e96be3cef862ad0cff1e7a1d3768a01690abcdc93f4c51266f79e1eac9cfc"}, "vout": 1, "txid": "fb4e26e41cc3819038c3f09da6745c6321a32a3cf92219c394472d8438700e69"}], "txid": "a43eaaa21d39ff5fd842db68292cb26a629404cc00e4c1c5f71c7681171141c6", "blocktime": 1537873282, "version": 1, "confirmations": 11484, "time": 1537873282, "locktime": 0, "vsize": 223, "size": 223}