{"hash": "a44fe8018ba9cc679bd42a1e31f1a9bd894279f83ebf761a5003267a25aa33af", "blockhash": "0000000000000000000dcc0f55137456b1a82d3642486a52398922ac4d620174", "vout": [{"scriptPubKey": {"type": "nulldata", "hex": "6a146f6d6e69000000000000001f00000009c7652400", "asm": "OP_RETURN 6f6d6e69000000000000001f00000009c7652400"}, "value": 0.0, "n": 0}, {"scriptPubKey": {"reqSigs": 1, "hex": "76a914284b1f894ca72430de8f19952125b6016a9dc7c688ac", "addresses": ["14g42KnXkRFfR8cUtS5tReprjeNvGQKW9v"], "asm": "OP_DUP OP_HASH160 284b1f894ca72430de8f19952125b6016a9dc7c6 OP_EQUALVERIFY OP_CHECKSIG", "type": "pubkeyhash"}, "value": 0.14444173, "n": 1}, {"scriptPubKey": {"reqSigs": 1, "hex": "76a914f35276d5f0a104911ebadbb6ebd9b4fe8141731d88ac", "addresses": ["1PBZzL2NPa6RxTkxk6Q3Q9oRYnJRMv1Dij"], "asm": "OP_DUP OP_HASH160 f35276d5f0a104911ebadbb6ebd9b4fe8141731d OP_EQUALVERIFY OP_CHECKSIG", "type": "pubkeyhash"}, "value": 5.46e-06, "n": 2}], "hex": "0100000001d641fba14e18053ff03c4d86d703c12ced9055a80ace629f9d1d855c4ba78c6e000000006a47304402203a3efcfa663568c65767a301342154e99f341a67bf387ef77a2a0d64912f47e102207c7baf1b25db69a23f8bb8acb207e58f6a44b5db48e018dad1a730d6ecfe908a01210392260b2475e9dec1855e89404d00787579055270f3f1619ec29bd64ed6a6dd7dfeffffff030000000000000000166a146f6d6e69000000000000001f00000009c76524008d66dc00000000001976a914284b1f894ca72430de8f19952125b6016a9dc7c688ac22020000000000001976a914f35276d5f0a104911ebadbb6ebd9b4fe8141731d88ace9480800", "vin": [{"sequence": 4294967294, "scriptSig": {"hex": "47304402203a3efcfa663568c65767a301342154e99f341a67bf387ef77a2a0d64912f47e102207c7baf1b25db69a23f8bb8acb207e58f6a44b5db48e018dad1a730d6ecfe908a01210392260b2475e9dec1855e89404d00787579055270f3f1619ec29bd64ed6a6dd7d", "asm": "304402203a3efcfa663568c65767a301342154e99f341a67bf387ef77a2a0d64912f47e102207c7baf1b25db69a23f8bb8acb207e58f6a44b5db48e018dad1a730d6ecfe908a[ALL] 0392260b2475e9dec1855e89404d00787579055270f3f1619ec29bd64ed6a6dd7d"}, "vout": 0, "txid": "6e8ca74b5c851d9d9f62ce0aa85590ed2cc103d7864d3cf03f05184ea1fb41d6"}], "txid": "a44fe8018ba9cc679bd42a1e31f1a9bd894279f83ebf761a5003267a25aa33af", "blocktime": 1537870268, "version": 1, "confirmations": 11516, "time": 1537870268, "locktime": 542953, "vsize": 256, "size": 256}