{"hash": "a452c79f123e99c6ee907b8ad052cd8079f09461e8b9255430c002ca983e62af", "blockhash": "0000000000000000001e0dab787dd257d1dbfcb92a98c2207d5e1078be1f4165", "vout": [{"scriptPubKey": {"reqSigs": 1, "hex": "76a914e55924dd83a80730414331f6e567334491b1352b88ac", "addresses": ["1MugXmGUfcNYEGFy7sDA6ZtMBXCDogVE1p"], "asm": "OP_DUP OP_HASH160 e55924dd83a80730414331f6e567334491b1352b OP_EQUALVERIFY OP_CHECKSIG", "type": "pubkeyhash"}, "value": 0.04691995, "n": 0}, {"scriptPubKey": {"reqSigs": 1, "hex": "76a914e5fc7ea85a5ab83639124879a3aa74b04234177688ac", "addresses": ["1My4DaCYtRfrA56dYkT3QsBcHVxvQ6ygHX"], "asm": "OP_DUP OP_HASH160 e5fc7ea85a5ab83639124879a3aa74b042341776 OP_EQUALVERIFY OP_CHECKSIG", "type": "pubkeyhash"}, "value": 0.08175588, "n": 1}], "hex": "010000000165af88d47fa3ae9f02a771d87714b131bea79dd650541bf32f2a01782ad43bbd010000006a47304402207bcb35f86e46c401d96f95c55544984eb6f8ec03fdc00e353a93e07fbf8f280c022015283b37abe44e1a2efe2e1325584f40b1f8765d661304695e2ea6fa1780444f01210255a792763be576698ccbe0d0fd37a0b70d0dbb6b128175c33571f8c97855c9ddfdffffff021b984700000000001976a914e55924dd83a80730414331f6e567334491b1352b88ace4bf7c00000000001976a914e5fc7ea85a5ab83639124879a3aa74b04234177688ac12490800", "vin": [{"sequence": 4294967293, "scriptSig": {"hex": "47304402207bcb35f86e46c401d96f95c55544984eb6f8ec03fdc00e353a93e07fbf8f280c022015283b37abe44e1a2efe2e1325584f40b1f8765d661304695e2ea6fa1780444f01210255a792763be576698ccbe0d0fd37a0b70d0dbb6b128175c33571f8c97855c9dd", "asm": "304402207bcb35f86e46c401d96f95c55544984eb6f8ec03fdc00e353a93e07fbf8f280c022015283b37abe44e1a2efe2e1325584f40b1f8765d661304695e2ea6fa1780444f[ALL] 0255a792763be576698ccbe0d0fd37a0b70d0dbb6b128175c33571f8c97855c9dd"}, "vout": 1, "txid": "bd3bd42a78012a2ff31b5450d69da7be31b11477d871a7029faea37fd488af65"}], "txid": "a452c79f123e99c6ee907b8ad052cd8079f09461e8b9255430c002ca983e62af", "blocktime": 1537872475, "version": 1, "confirmations": 11487, "time": 1537872475, "locktime": 542994, "vsize": 225, "size": 225}