{"hash": "a453bea846db9822fa3079ca0aac58e0df52a73c2b89555ae01ee35f22acf8b8", "blockhash": "00000000000000000004ffacab907a6b429b9a5745fa0b75af4234bf69dd7176", "vout": [{"scriptPubKey": {"reqSigs": 1, "hex": "76a914d243e6abb9a60fbff430b421d2df4b7d59ec186088ac", "addresses": ["1LAnF8h3qMGx3TSwNUHVneBZUEpwE4gu3D"], "asm": "OP_DUP OP_HASH160 d243e6abb9a60fbff430b421d2df4b7d59ec1860 OP_EQUALVERIFY OP_CHECKSIG", "type": "pubkeyhash"}, "value": 0.00077314, "n": 0}, {"scriptPubKey": {"reqSigs": 1, "hex": "76a91456ab215bd6ce1663729bd3020f094fc54f52f46988ac", "addresses": ["18uG7qhYrNi4AvdeJMExg6oX7dEXZDCkuX"], "asm": "OP_DUP OP_HASH160 56ab215bd6ce1663729bd3020f094fc54f52f469 OP_EQUALVERIFY OP_CHECKSIG", "type": "pubkeyhash"}, "value": 5.46e-06, "n": 1}, {"scriptPubKey": {"type": "nulldata", "hex": "6a146f6d6e69000000000000001f00000021c6463290", "asm": "OP_RETURN 6f6d6e69000000000000001f00000021c6463290"}, "value": 0.0, "n": 2}], "hex": "0100000001724df90facd2c4bcdbe8e9061e3f0daaf2bfd18b6d828da8936275aeee668945000000006a4730440220248ceaf4a0691c63e0096e687d31762d2434274d12a4b75991260288e5e5541802203d97c8a896ca6bc73cfbb89d17f3d14040a27993e66320c947c15d7e5a14aab801210271977291b74f1f5f5c42157e8aae804664eaaeccfd097918450d37f28fb94d77ffffffff03022e0100000000001976a914d243e6abb9a60fbff430b421d2df4b7d59ec186088ac22020000000000001976a91456ab215bd6ce1663729bd3020f094fc54f52f46988ac0000000000000000166a146f6d6e69000000000000001f00000021c646329000000000", "vin": [{"sequence": 4294967295, "scriptSig": {"hex": "4730440220248ceaf4a0691c63e0096e687d31762d2434274d12a4b75991260288e5e5541802203d97c8a896ca6bc73cfbb89d17f3d14040a27993e66320c947c15d7e5a14aab801210271977291b74f1f5f5c42157e8aae804664eaaeccfd097918450d37f28fb94d77", "asm": "30440220248ceaf4a0691c63e0096e687d31762d2434274d12a4b75991260288e5e5541802203d97c8a896ca6bc73cfbb89d17f3d14040a27993e66320c947c15d7e5a14aab8[ALL] 0271977291b74f1f5f5c42157e8aae804664eaaeccfd097918450d37f28fb94d77"}, "vout": 0, "txid": "458966eeae756293a88d826d8bd1bff2aa0d3f1e06e9e8dbbcc4d2ac0ff94d72"}], "txid": "a453bea846db9822fa3079ca0aac58e0df52a73c2b89555ae01ee35f22acf8b8", "blocktime": 1537875543, "version": 1, "confirmations": 11464, "time": 1537875543, "locktime": 0, "vsize": 256, "size": 256}