{"hash": "63fe8a583555f6b56cd847547ebaeb2755b025724d55150f2020154756d7f42f", "blockhash": "0000000000000000001cda96e906b7601b7a6fb1a3b62bca570a9e5d8f4b3de1", "vout": [{"scriptPubKey": {"reqSigs": 1, "hex": "76a914ae4e2dea0681a6f8fbb011d58e8f989197b3c07588ac", "addresses": ["1GteENkt1LEGMWQDLhHmZNXv5GqkgtYEb4"], "asm": "OP_DUP OP_HASH160 ae4e2dea0681a6f8fbb011d58e8f989197b3c075 OP_EQUALVERIFY OP_CHECKSIG", "type": "pubkeyhash"}, "value": 0.45939726, "n": 0}, {"scriptPubKey": {"reqSigs": 1, "hex": "a914a756d34b8511db1eabd86e219df31c136fc5a6ce87", "addresses": ["3GwpnK3kLvMdRCEF8P8oiX3QyQSdYMTcqF"], "asm": "OP_HASH160 a756d34b8511db1eabd86e219df31c136fc5a6ce OP_EQUAL", "type": "scripthash"}, "value": 0.1535762, "n": 1}], "hex": "010000000001021d7d57defcc1e210e3896925070381fe8454b7fa80af6cf73443288dc89f8054000000002322002036c40bb310384cb8cbcba364d5080467867d995781e4f951f341ed3d25e35775ffffffff3f50c4af1ec9d2aa676a8cb2f9593ba61d6c1485d83f4ab5b63e7257a16d2e2d0000000023220020b842491619410ec3cd90a8785d5be8d484d185aae2b7d4815720fc1884d5ee07ffffffff020efcbc02000000001976a914ae4e2dea0681a6f8fbb011d58e8f989197b3c07588acb456ea000000000017a914a756d34b8511db1eabd86e219df31c136fc5a6ce8704004730440220702155b6893506c4f7a3c9fa431bea166950290fcbcdc81c13955eebcc152ffe0220448dccc6ef8e5f4a5b8172a629bc064aa0ea657a3d6219cf031e88bc111a1b6c01483045022100ab56bc0674d6f8a145463e47371670a695a3885c38062b20f2ee66f99ab042f40220783f9cb9c747ceb5987e1d88eea54e618082352c1b900d56ca78e80271f15252016952210341a0ae0d92fe7df59033399d582e945325e5d05406623f1b2ccf3a30095bc5632103f1b555f4dedecbc01c85a91e58923eead753565e504e1869493e56655588edfd2102ebc7db3198b78a050ef6221c866f9f53bf71c42904966a1825a931911733084253ae0400473044022017fa7331849e97aaaa9f4bbafdf0cb8f7290cb5bd673c1edefbcd90b7772e76202200e5ca723d00a79de0ac76c7e114c872161e3d0a77ee4f721fe2f85364d1b01060147304402204442027b627faa162bd6160acc88b3390fc6ebdb81deabca03b816f19b7cfa7e02203cc392a41f25a97c50b72767eaca8e7cad547fb97c07230e849efbed8879cf300169522102587f24926c62ddd49dafa0e5664074f13ca9ad992dbed3df3d35df9c9e8815e221030770152d105eb4256da3262a9e9a41e99690ccae31c68bbdc23b07df12770e2321029a1105a6927a391bebf90033b4fb613d957c9f56994686dc88f730ca22c901d953ae00000000", "vin": [{"txinwitness": ["", "30440220702155b6893506c4f7a3c9fa431bea166950290fcbcdc81c13955eebcc152ffe0220448dccc6ef8e5f4a5b8172a629bc064aa0ea657a3d6219cf031e88bc111a1b6c01", "3045022100ab56bc0674d6f8a145463e47371670a695a3885c38062b20f2ee66f99ab042f40220783f9cb9c747ceb5987e1d88eea54e618082352c1b900d56ca78e80271f1525201", "52210341a0ae0d92fe7df59033399d582e945325e5d05406623f1b2ccf3a30095bc5632103f1b555f4dedecbc01c85a91e58923eead753565e504e1869493e56655588edfd2102ebc7db3198b78a050ef6221c866f9f53bf71c42904966a1825a931911733084253ae"], "sequence": 4294967295, "scriptSig": {"hex": "22002036c40bb310384cb8cbcba364d5080467867d995781e4f951f341ed3d25e35775", "asm": "002036c40bb310384cb8cbcba364d5080467867d995781e4f951f341ed3d25e35775"}, "vout": 0, "txid": "54809fc88d284334f76caf80fab75484fe810307256989e310e2c1fcde577d1d"}, {"txinwitness": ["", "3044022017fa7331849e97aaaa9f4bbafdf0cb8f7290cb5bd673c1edefbcd90b7772e76202200e5ca723d00a79de0ac76c7e114c872161e3d0a77ee4f721fe2f85364d1b010601", "304402204442027b627faa162bd6160acc88b3390fc6ebdb81deabca03b816f19b7cfa7e02203cc392a41f25a97c50b72767eaca8e7cad547fb97c07230e849efbed8879cf3001", "522102587f24926c62ddd49dafa0e5664074f13ca9ad992dbed3df3d35df9c9e8815e221030770152d105eb4256da3262a9e9a41e99690ccae31c68bbdc23b07df12770e2321029a1105a6927a391bebf90033b4fb613d957c9f56994686dc88f730ca22c901d953ae"], "sequence": 4294967295, "scriptSig": {"hex": "220020b842491619410ec3cd90a8785d5be8d484d185aae2b7d4815720fc1884d5ee07", "asm": "0020b842491619410ec3cd90a8785d5be8d484d185aae2b7d4815720fc1884d5ee07"}, "vout": 0, "txid": "2d2e6da157723eb6b54a3fd885146c1da63b59f9b28c6a67aad2c91eafc4503f"}], "txid": "a455d34692cd7a782669c3d99ca331a1e97d31798040de3f40e2ee6fe4991681", "blocktime": 1537873282, "version": 1, "confirmations": 11485, "time": 1537873282, "locktime": 0, "vsize": 355, "size": 735}