{"hash": "b55fe265c052712fa2c6d5046cf8f857c0c9b826ae81bfbb565c428be338d3ab", "blockhash": "0000000000000000001cda96e906b7601b7a6fb1a3b62bca570a9e5d8f4b3de1", "vout": [{"scriptPubKey": {"reqSigs": 1, "hex": "76a914749bed6607ba38b71dd899c051e856d66caeb4c488ac", "addresses": ["1BdaBGsmnrG5aFc17azcRJaTdcMKwJ12hw"], "asm": "OP_DUP OP_HASH160 749bed6607ba38b71dd899c051e856d66caeb4c4 OP_EQUALVERIFY OP_CHECKSIG", "type": "pubkeyhash"}, "value": 0.04284525, "n": 0}, {"scriptPubKey": {"reqSigs": 1, "hex": "a914c5ed6f2a7f7ae18b3518c4f4e22878ae2181ef5f87", "addresses": ["3KjZUZ8JX2vuGWkTNB31pBYKnNEQs52x4E"], "asm": "OP_HASH160 c5ed6f2a7f7ae18b3518c4f4e22878ae2181ef5f OP_EQUAL", "type": "scripthash"}, "value": 0.00362485, "n": 1}, {"scriptPubKey": {"reqSigs": 1, "hex": "76a914047a7387b14de5984785282dc1ddf9c9a403235288ac", "addresses": ["1QgPqG31bwf1FQe4FMvvcgKvUH1WqbQwD"], "asm": "OP_DUP OP_HASH160 047a7387b14de5984785282dc1ddf9c9a4032352 OP_EQUALVERIFY OP_CHECKSIG", "type": "pubkeyhash"}, "value": 0.15286272, "n": 2}], "hex": "020000000001022c54850ab8c21c2749cf239ecf3c385be63b67be0ea27e0c6933b9e9339e4d6d010000006b483045022100806be6fbb869ddd2bd5f34f09da8019076e46e81efe65abe7d179f0afa5d076802202b3df820a979e42e5aa3923a8a87fcb24eeaf9eaf9867f14a880b9efbca114370121039db1c7b126c517a5fc4867db5598139f80458cc4c37e9cf10b46c9d72f1c1307fefffffff7600d2a3826ccfd8ec2be97c871f74d999d997a837c8f06f5f5e59e4dc4d6e20100000017160014799f7feaaeeb9435e17563a64b23bec0edd03989feffffff036d604100000000001976a914749bed6607ba38b71dd899c051e856d66caeb4c488acf58705000000000017a914c5ed6f2a7f7ae18b3518c4f4e22878ae2181ef5f870040e900000000001976a914047a7387b14de5984785282dc1ddf9c9a403235288ac0002483045022100d1af89c4f8e76dc5fabe17d3dfc6c431a61c6c439d363ecfc7fdd40d0fedf0ec022023184307baaa0d551fb5cf087337005629a53ab478a5605e8b479ea49b58fbfa01210366375659f48412dfa4770aeabab00c5de05282a0e0c9cbd8f0da2b0e181b854513490800", "vin": [{"sequence": 4294967294, "scriptSig": {"hex": "483045022100806be6fbb869ddd2bd5f34f09da8019076e46e81efe65abe7d179f0afa5d076802202b3df820a979e42e5aa3923a8a87fcb24eeaf9eaf9867f14a880b9efbca114370121039db1c7b126c517a5fc4867db5598139f80458cc4c37e9cf10b46c9d72f1c1307", "asm": "3045022100806be6fbb869ddd2bd5f34f09da8019076e46e81efe65abe7d179f0afa5d076802202b3df820a979e42e5aa3923a8a87fcb24eeaf9eaf9867f14a880b9efbca11437[ALL] 039db1c7b126c517a5fc4867db5598139f80458cc4c37e9cf10b46c9d72f1c1307"}, "vout": 1, "txid": "6d4d9e33e9b933690c7ea20ebe673be65b383ccf9e23cf49271cc2b80a85542c"}, {"txinwitness": ["3045022100d1af89c4f8e76dc5fabe17d3dfc6c431a61c6c439d363ecfc7fdd40d0fedf0ec022023184307baaa0d551fb5cf087337005629a53ab478a5605e8b479ea49b58fbfa01", "0366375659f48412dfa4770aeabab00c5de05282a0e0c9cbd8f0da2b0e181b8545"], "sequence": 4294967294, "scriptSig": {"hex": "160014799f7feaaeeb9435e17563a64b23bec0edd03989", "asm": "0014799f7feaaeeb9435e17563a64b23bec0edd03989"}, "vout": 1, "txid": "e2d6c44d9ee5f5f5068f7c837a999d994df771c897bec28efdcc26382a0d60f7"}], "txid": "a46bc1e8441307236aa3fdb9c508e0ec89c4487477419b47401b8adff4122f0b", "blocktime": 1537873282, "version": 2, "confirmations": 11480, "time": 1537873282, "locktime": 542995, "vsize": 350, "size": 433}