{"hash": "a46d5b7ae607da9c60b6f2a4486a3524125b662d2dbeef679aac74b7a57a0f8b", "blockhash": "000000000000000000022b45ed06c6f4ccd3cf7fb5ba4856ebd2e58215665228", "vout": [{"scriptPubKey": {"reqSigs": 1, "hex": "a91417813670ef6e4e3c5f40384980b90d0a992a790b87", "addresses": ["33qJFosShXXFU3DMT9c4XwrydK2vT1S4WJ"], "asm": "OP_HASH160 17813670ef6e4e3c5f40384980b90d0a992a790b OP_EQUAL", "type": "scripthash"}, "value": 1.091e-05, "n": 0}, {"scriptPubKey": {"reqSigs": 1, "hex": "76a9147fe246ecf4474b12516cfed48f66b34d2c59103488ac", "addresses": ["1CfBtNL5Z3Fvu7aVM6sc7nJGKUuzFg3Cep"], "asm": "OP_DUP OP_HASH160 7fe246ecf4474b12516cfed48f66b34d2c591034 OP_EQUALVERIFY OP_CHECKSIG", "type": "pubkeyhash"}, "value": 0.03391923, "n": 1}], "hex": "01000000015751757bf4072664407a69653d7c7bdb1d47b3900a7fa590dac19010888013fa010000006a4730440220692c18f24400f9f99c9e84cfb200e5027d6df92004aa12e95b96b1c0379f5597022025169bd9e9db39ad778ddaaaddf31b9ba3122b28b5b549bda78eb98021cfa49f012103dea7033cf05161b175f9cb2f8c2a72e8a8175529fd1e06f5c23e41323d6998ceffffffff02430400000000000017a91417813670ef6e4e3c5f40384980b90d0a992a790b87b3c13300000000001976a9147fe246ecf4474b12516cfed48f66b34d2c59103488ac00000000", "vin": [{"sequence": 4294967295, "scriptSig": {"hex": "4730440220692c18f24400f9f99c9e84cfb200e5027d6df92004aa12e95b96b1c0379f5597022025169bd9e9db39ad778ddaaaddf31b9ba3122b28b5b549bda78eb98021cfa49f012103dea7033cf05161b175f9cb2f8c2a72e8a8175529fd1e06f5c23e41323d6998ce", "asm": "30440220692c18f24400f9f99c9e84cfb200e5027d6df92004aa12e95b96b1c0379f5597022025169bd9e9db39ad778ddaaaddf31b9ba3122b28b5b549bda78eb98021cfa49f[ALL] 03dea7033cf05161b175f9cb2f8c2a72e8a8175529fd1e06f5c23e41323d6998ce"}, "vout": 1, "txid": "fa1380881090c1da90a57f0a90b3471ddb7b7c3d65697a40642607f47b755157"}], "txid": "a46d5b7ae607da9c60b6f2a4486a3524125b662d2dbeef679aac74b7a57a0f8b", "blocktime": 1537869901, "version": 1, "confirmations": 11524, "time": 1537869901, "locktime": 0, "vsize": 223, "size": 223}