{"hash": "f655f4bf02bf5dc18e41b7f53b5ab6154607e1b90329e1d736184ccc01d95375", "blockhash": "0000000000000000001e0dab787dd257d1dbfcb92a98c2207d5e1078be1f4165", "vout": [{"scriptPubKey": {"reqSigs": 1, "hex": "a914335b0ea810a599c3f94706c493d3af1e36b9294d87", "addresses": ["36NZU6WpVypVXvdq6kNacCmfgFsHTWuMWP"], "asm": "OP_HASH160 335b0ea810a599c3f94706c493d3af1e36b9294d OP_EQUAL", "type": "scripthash"}, "value": 0.0028526, "n": 0}, {"scriptPubKey": {"reqSigs": 1, "hex": "a914425a42b93a420a05903a816deee2a6c382cac8bd87", "addresses": ["37jred8MrPaJkiGVBRkerpTYq87LgH4BEd"], "asm": "OP_HASH160 425a42b93a420a05903a816deee2a6c382cac8bd OP_EQUAL", "type": "scripthash"}, "value": 0.00616571, "n": 1}], "hex": "0100000000010250036a93e0a168ba298f833a651f1549f3ad874ca2644ae4af873161edf520710100000023220020a708bfb7c7bbbbeadf3340beb77182d43a192cb7e6667dbefaf895e3339ea1c6ffffffff1e2ce5595e62914f36a881085fe0596f5bd4a4544141855e41cfdca434e05bc51400000023220020a708bfb7c7bbbbeadf3340beb77182d43a192cb7e6667dbefaf895e3339ea1c6ffffffff024c5a04000000000017a914335b0ea810a599c3f94706c493d3af1e36b9294d877b6809000000000017a914425a42b93a420a05903a816deee2a6c382cac8bd87040047304402200439ad6019cf15bc92aaae533642650bf9eed0e1f93e36056e12de6205f1436c022030bf5baddeaea923659b79960ee18fbc2e61a015680b2270f25a7a47947d4ac2014830450221009af12456eebe81f057c0c02020f5fc8caf48cafba9104f7e1f515c86971da88002207d3733cf03566e8d7b3703efef7f7839da9ecd79a2e1272cfe81177cd6b196c401475221029149f4b7a7fb02698b40b8c259b0cacc26d9c8dbec0785cc1bb475a30d709eaa21021ba7504f95428868171458363223dad7ab925c81ca917cb158e60901e81a582352ae04004830450221009bbbbd741a66723fce9b20d56ba7a543481b9e78462ed31e8294215906b4ad7f0220775f34d53bc38497a0e323bffdae40dc6a5ed80c6a5e7bee5701e5d7b9178d7101473044022025f17fdb98669826555cd1811bd870cb573341506830212868cd2e6826f0a9010220782a4ba1ea9443b6c3bfdfafbbfa79654138746bcd91359b30c1aba519c53c8701475221029149f4b7a7fb02698b40b8c259b0cacc26d9c8dbec0785cc1bb475a30d709eaa21021ba7504f95428868171458363223dad7ab925c81ca917cb158e60901e81a582352ae00000000", "vin": [{"txinwitness": ["", "304402200439ad6019cf15bc92aaae533642650bf9eed0e1f93e36056e12de6205f1436c022030bf5baddeaea923659b79960ee18fbc2e61a015680b2270f25a7a47947d4ac201", "30450221009af12456eebe81f057c0c02020f5fc8caf48cafba9104f7e1f515c86971da88002207d3733cf03566e8d7b3703efef7f7839da9ecd79a2e1272cfe81177cd6b196c401", "5221029149f4b7a7fb02698b40b8c259b0cacc26d9c8dbec0785cc1bb475a30d709eaa21021ba7504f95428868171458363223dad7ab925c81ca917cb158e60901e81a582352ae"], "sequence": 4294967295, "scriptSig": {"hex": "220020a708bfb7c7bbbbeadf3340beb77182d43a192cb7e6667dbefaf895e3339ea1c6", "asm": "0020a708bfb7c7bbbbeadf3340beb77182d43a192cb7e6667dbefaf895e3339ea1c6"}, "vout": 1, "txid": "7120f5ed613187afe44a64a24c87adf349151f653a838f29ba68a1e0936a0350"}, {"txinwitness": ["", "30450221009bbbbd741a66723fce9b20d56ba7a543481b9e78462ed31e8294215906b4ad7f0220775f34d53bc38497a0e323bffdae40dc6a5ed80c6a5e7bee5701e5d7b9178d7101", "3044022025f17fdb98669826555cd1811bd870cb573341506830212868cd2e6826f0a9010220782a4ba1ea9443b6c3bfdfafbbfa79654138746bcd91359b30c1aba519c53c8701", "5221029149f4b7a7fb02698b40b8c259b0cacc26d9c8dbec0785cc1bb475a30d709eaa21021ba7504f95428868171458363223dad7ab925c81ca917cb158e60901e81a582352ae"], "sequence": 4294967295, "scriptSig": {"hex": "220020a708bfb7c7bbbbeadf3340beb77182d43a192cb7e6667dbefaf895e3339ea1c6", "asm": "0020a708bfb7c7bbbbeadf3340beb77182d43a192cb7e6667dbefaf895e3339ea1c6"}, "vout": 20, "txid": "c55be034a4dccf415e85414154a4d45b6f59e05f0881a8364f91625e59e52c1e"}], "txid": "a47c9c0da4d8032be044a249ef6e812dc3bcba7259954c51157f878740e07f44", "blocktime": 1537872475, "version": 1, "confirmations": 11487, "time": 1537872475, "locktime": 0, "vsize": 336, "size": 666}