{"hash": "a4813ba05b587e82cbb05160d8cd652a030782bf0b80334ac232e7c15405a0af", "blockhash": "000000000000000000022b45ed06c6f4ccd3cf7fb5ba4856ebd2e58215665228", "vout": [{"scriptPubKey": {"reqSigs": 1, "hex": "a914b61034e5fe5a5febf9a12e8989bbd6afbbd8d18387", "addresses": ["3JHgKWjyRmDbiSGSUEA2mcimzt6r4iiCVj"], "asm": "OP_HASH160 b61034e5fe5a5febf9a12e8989bbd6afbbd8d183 OP_EQUAL", "type": "scripthash"}, "value": 0.004635, "n": 0}, {"scriptPubKey": {"reqSigs": 1, "hex": "76a9146646e54386fb7c3a55acd1ba655a8a50fc286dcb88ac", "addresses": ["1AKnrUeZQqNnyUTMm9WdtLJwYB3EGJrWiT"], "asm": "OP_DUP OP_HASH160 6646e54386fb7c3a55acd1ba655a8a50fc286dcb OP_EQUALVERIFY OP_CHECKSIG", "type": "pubkeyhash"}, "value": 0.01411144, "n": 1}], "hex": "01000000012753837b4ade30cefa192493d8dee108c9376d2cc03b8e2ff8f5c4db545de04b000000006a473044022005208ae59271aeb5d0020c683894a10e96352f54ba428dca163d0a1d5d01613602205068ef158f85f3332af2eef0fb95cc6f54bea6f66eb1aa7988e3e4abf6876b0401210321238c56ab2db034f61671b8dd7adc6ed2a6097d8f4508955ee5291549f60c8cffffffff028c1207000000000017a914b61034e5fe5a5febf9a12e8989bbd6afbbd8d1838748881500000000001976a9146646e54386fb7c3a55acd1ba655a8a50fc286dcb88ac00000000", "vin": [{"sequence": 4294967295, "scriptSig": {"hex": "473044022005208ae59271aeb5d0020c683894a10e96352f54ba428dca163d0a1d5d01613602205068ef158f85f3332af2eef0fb95cc6f54bea6f66eb1aa7988e3e4abf6876b0401210321238c56ab2db034f61671b8dd7adc6ed2a6097d8f4508955ee5291549f60c8c", "asm": "3044022005208ae59271aeb5d0020c683894a10e96352f54ba428dca163d0a1d5d01613602205068ef158f85f3332af2eef0fb95cc6f54bea6f66eb1aa7988e3e4abf6876b04[ALL] 0321238c56ab2db034f61671b8dd7adc6ed2a6097d8f4508955ee5291549f60c8c"}, "vout": 0, "txid": "4be05d54dbc4f5f82f8e3bc02c6d37c908e1ded8932419face30de4a7b835327"}], "txid": "a4813ba05b587e82cbb05160d8cd652a030782bf0b80334ac232e7c15405a0af", "blocktime": 1537869901, "version": 1, "confirmations": 11522, "time": 1537869901, "locktime": 0, "vsize": 223, "size": 223}