{"hash": "c07a6e2c34fbe58c239ba25115afae2cacb434aa23c2ff38bb7e1a973c4bd836", "blockhash": "0000000000000000000e13cef7c366c0283d82e591d1acd082e914b08063cdf1", "vout": [{"scriptPubKey": {"reqSigs": 1, "hex": "a91474ed9bbc227e05ff668a9c271ad9b071cdaa977c87", "addresses": ["3CMGx7WAnmAmBgE4j4SU2e4tdGT77acNjp"], "asm": "OP_HASH160 74ed9bbc227e05ff668a9c271ad9b071cdaa977c OP_EQUAL", "type": "scripthash"}, "value": 0.094797, "n": 0}, {"scriptPubKey": {"reqSigs": 1, "hex": "76a9147bbe7a73de3d72e8e9e03297660b54f750e7f15388ac", "addresses": ["1CHJJGAuPB3mYMWZ6DPeJEQ4YRDaVYGLcT"], "asm": "OP_DUP OP_HASH160 7bbe7a73de3d72e8e9e03297660b54f750e7f153 OP_EQUALVERIFY OP_CHECKSIG", "type": "pubkeyhash"}, "value": 0.01830484, "n": 1}, {"scriptPubKey": {"reqSigs": 1, "hex": "a914bb7837582b373147ef6804957d3d685c5e741d0587", "addresses": ["3JnGJBarfMdgkiPqZSGD9SRxban6xoBpfQ"], "asm": "OP_HASH160 bb7837582b373147ef6804957d3d685c5e741d05 OP_EQUAL", "type": "scripthash"}, "value": 2.51186657, "n": 2}], "hex": "0200000000010140c8b726a9f48981a2f7a1123531107a7b11adcc99e169b60ff1740997dcd6d70200000017160014057c1c64fb34554d1fbcc20b7bc9f1722212238bfeffffff0314a690000000000017a91474ed9bbc227e05ff668a9c271ad9b071cdaa977c8754ee1b00000000001976a9147bbe7a73de3d72e8e9e03297660b54f750e7f15388ace1cdf80e0000000017a914bb7837582b373147ef6804957d3d685c5e741d058702473044022062249694f60396ca1b70cbb2d6df98ba29062a351bd4b8ac2e6471cc6709582002207b07724c24678d46861ab328f19e32339ba61e915b04512f86eac241d16f94ab012102ed1516947989cbb30915689fc0cff3f61dd7b963ed786147669382c961c8f1290e490800", "vin": [{"txinwitness": ["3044022062249694f60396ca1b70cbb2d6df98ba29062a351bd4b8ac2e6471cc6709582002207b07724c24678d46861ab328f19e32339ba61e915b04512f86eac241d16f94ab01", "02ed1516947989cbb30915689fc0cff3f61dd7b963ed786147669382c961c8f129"], "sequence": 4294967294, "scriptSig": {"hex": "160014057c1c64fb34554d1fbcc20b7bc9f1722212238b", "asm": "0014057c1c64fb34554d1fbcc20b7bc9f1722212238b"}, "vout": 2, "txid": "d7d6dc970974f10fb669e199ccad117b7a10313512a1f7a28189f4a926b7c840"}], "txid": "a4892b000e588d930e05fafc478f0f702cd0f73217de448d47dce92501892f0c", "blocktime": 1537871767, "version": 2, "confirmations": 11491, "time": 1537871767, "locktime": 542990, "vsize": 200, "size": 281}