{"hash": "a48cc2569c3a055c3d5042f9df21d53f660e5cb3dfbbc15be6aaf4f34514e1b1", "blockhash": "00000000000000000004ffacab907a6b429b9a5745fa0b75af4234bf69dd7176", "vout": [{"scriptPubKey": {"reqSigs": 1, "hex": "76a914a25dec4d0011064ef106a983c39c7a540699f22088ac", "addresses": ["1FoWyxwPXuj4C6abqwhjDWdz6D4PZgYRjA"], "asm": "OP_DUP OP_HASH160 a25dec4d0011064ef106a983c39c7a540699f220 OP_EQUALVERIFY OP_CHECKSIG", "type": "pubkeyhash"}, "value": 0.01985596, "n": 0}, {"scriptPubKey": {"type": "nulldata", "hex": "6a146f6d6e69000000000000001f000000002f7554e8", "asm": "OP_RETURN 6f6d6e69000000000000001f000000002f7554e8"}, "value": 0.0, "n": 1}, {"scriptPubKey": {"reqSigs": 1, "hex": "76a914aa188d18af0d585ca01da942bf6b8aa8a8798fc888ac", "addresses": ["1GWPHTRPrF9rnD1jPpvSviZLCgSUAJmQfg"], "asm": "OP_DUP OP_HASH160 aa188d18af0d585ca01da942bf6b8aa8a8798fc8 OP_EQUALVERIFY OP_CHECKSIG", "type": "pubkeyhash"}, "value": 5.46e-06, "n": 2}], "hex": "010000000128670d93d66abb42fafd0c5effd5613c70713678743f38fc474ddd6146447937010000006a4730440220137cd1ce6ba734fd44474f5001cfba83709f59e7aa8eb21f1509f5bbada0b49902207404e377d0b9cb3408db76dad4859dc3bc6e77cf0d5e50a5902498ffe60ef7d5012103da5bac7b36d5aa38f531c6b9601e21bb598a4b6716ebed38b009a55dabde9440feffffff033c4c1e00000000001976a914a25dec4d0011064ef106a983c39c7a540699f22088ac0000000000000000166a146f6d6e69000000000000001f000000002f7554e822020000000000001976a914aa188d18af0d585ca01da942bf6b8aa8a8798fc888ac16490800", "vin": [{"sequence": 4294967294, "scriptSig": {"hex": "4730440220137cd1ce6ba734fd44474f5001cfba83709f59e7aa8eb21f1509f5bbada0b49902207404e377d0b9cb3408db76dad4859dc3bc6e77cf0d5e50a5902498ffe60ef7d5012103da5bac7b36d5aa38f531c6b9601e21bb598a4b6716ebed38b009a55dabde9440", "asm": "30440220137cd1ce6ba734fd44474f5001cfba83709f59e7aa8eb21f1509f5bbada0b49902207404e377d0b9cb3408db76dad4859dc3bc6e77cf0d5e50a5902498ffe60ef7d5[ALL] 03da5bac7b36d5aa38f531c6b9601e21bb598a4b6716ebed38b009a55dabde9440"}, "vout": 1, "txid": "3779444661dd4d47fc383f74783671703c61d5ff5e0cfdfa42bb6ad6930d6728"}], "txid": "a48cc2569c3a055c3d5042f9df21d53f660e5cb3dfbbc15be6aaf4f34514e1b1", "blocktime": 1537875543, "version": 1, "confirmations": 11464, "time": 1537875543, "locktime": 542998, "vsize": 256, "size": 256}