{"hash": "a490eaa25a2d427c14a1b567c8378a4f1712f7695cf4308686b383d382a4f6d1", "blockhash": "0000000000000000001e0dab787dd257d1dbfcb92a98c2207d5e1078be1f4165", "vout": [{"scriptPubKey": {"reqSigs": 1, "hex": "76a914897d720d04923b0ac18bfe79b030661e96121f9488ac", "addresses": ["1DXyrPVAyVHiHRrBj8vTKyk5VgpUWjVhLP"], "asm": "OP_DUP OP_HASH160 897d720d04923b0ac18bfe79b030661e96121f94 OP_EQUALVERIFY OP_CHECKSIG", "type": "pubkeyhash"}, "value": 0.00619715, "n": 0}, {"scriptPubKey": {"reqSigs": 1, "hex": "76a9149f9840b09a638d752451ff7525f8f1ecaa88e8b488ac", "addresses": ["1FYrqCpLCGMTJsCT4xZ5XPmbf41aSxrTNa"], "asm": "OP_DUP OP_HASH160 9f9840b09a638d752451ff7525f8f1ecaa88e8b4 OP_EQUALVERIFY OP_CHECKSIG", "type": "pubkeyhash"}, "value": 0.06190848, "n": 1}], "hex": "01000000011ba82c43b419e9013b47f7f86a2b99c0b9e0106f6e603d33cec00153487c6d77010000006a47304402203f62427c376298560ab12142412c08b42df5a31c78ce3c7dbe8e26383acd030e0220163dc76e5738e65488185ee93b2701bf49fc6f2bc7175dde0ed26e19e9b714050121030fc2e50f5c3f6592fab7be8e10d9168aa0c469c46bc4361a532b443a65e22259fdffffff02c3740900000000001976a914897d720d04923b0ac18bfe79b030661e96121f9488ac00775e00000000001976a9149f9840b09a638d752451ff7525f8f1ecaa88e8b488ac12490800", "vin": [{"sequence": 4294967293, "scriptSig": {"hex": "47304402203f62427c376298560ab12142412c08b42df5a31c78ce3c7dbe8e26383acd030e0220163dc76e5738e65488185ee93b2701bf49fc6f2bc7175dde0ed26e19e9b714050121030fc2e50f5c3f6592fab7be8e10d9168aa0c469c46bc4361a532b443a65e22259", "asm": "304402203f62427c376298560ab12142412c08b42df5a31c78ce3c7dbe8e26383acd030e0220163dc76e5738e65488185ee93b2701bf49fc6f2bc7175dde0ed26e19e9b71405[ALL] 030fc2e50f5c3f6592fab7be8e10d9168aa0c469c46bc4361a532b443a65e22259"}, "vout": 1, "txid": "776d7c485301c0ce333d606e6f10e0b9c0992b6af8f7473b01e919b4432ca81b"}], "txid": "a490eaa25a2d427c14a1b567c8378a4f1712f7695cf4308686b383d382a4f6d1", "blocktime": 1537872475, "version": 1, "confirmations": 11486, "time": 1537872475, "locktime": 542994, "vsize": 225, "size": 225}