{"hash": "a4972daebb8000ed8e5ac2af2005daed21460110b2a584f6d9e0a8979a2f3e5e", "blockhash": "0000000000000000000baef3f32e3676a92c3b2e5da21b426e4f302fc371ce76", "vout": [{"scriptPubKey": {"reqSigs": 1, "hex": "76a9148e219520c6140723285a001481e5901c596460ff88ac", "addresses": ["1DxXBbWvp9V1MBtTFEuwiLew5Tu7dsBUqL"], "asm": "OP_DUP OP_HASH160 8e219520c6140723285a001481e5901c596460ff OP_EQUALVERIFY OP_CHECKSIG", "type": "pubkeyhash"}, "value": 0.00305984, "n": 0}, {"scriptPubKey": {"reqSigs": 1, "hex": "76a914b6363358942088db54e4f7a444e885431980515e88ac", "addresses": ["1HcSuqRDfrDQeWddSMBvGckKFpqfGrBdRJ"], "asm": "OP_DUP OP_HASH160 b6363358942088db54e4f7a444e885431980515e OP_EQUALVERIFY OP_CHECKSIG", "type": "pubkeyhash"}, "value": 0.01848008, "n": 1}], "hex": "01000000019a5709353a34daf52f60ba2ebc4c84633ce3550ffeb3b1cd4c556c2aa601d222010000006b483045022100b3604ebd8d97a4664eedd360be145827008085a0626a3cb5c61c57028c1d6f3b0220620fc3bf22700ef40c89c67312743325214eb16e6a53c7220464c089ef4619ce012102c8e4652ef2a570d16d8ede3f86c7e9e2104159e9f917f5dabd0e3d53c0432a0effffffff0240ab0400000000001976a9148e219520c6140723285a001481e5901c596460ff88acc8321c00000000001976a914b6363358942088db54e4f7a444e885431980515e88ac00000000", "vin": [{"sequence": 4294967295, "scriptSig": {"hex": "483045022100b3604ebd8d97a4664eedd360be145827008085a0626a3cb5c61c57028c1d6f3b0220620fc3bf22700ef40c89c67312743325214eb16e6a53c7220464c089ef4619ce012102c8e4652ef2a570d16d8ede3f86c7e9e2104159e9f917f5dabd0e3d53c0432a0e", "asm": "3045022100b3604ebd8d97a4664eedd360be145827008085a0626a3cb5c61c57028c1d6f3b0220620fc3bf22700ef40c89c67312743325214eb16e6a53c7220464c089ef4619ce[ALL] 02c8e4652ef2a570d16d8ede3f86c7e9e2104159e9f917f5dabd0e3d53c0432a0e"}, "vout": 1, "txid": "22d201a62a6c554ccdb1b3fe0f55e33c63844cbc2eba602ff5da343a3509579a"}], "txid": "a4972daebb8000ed8e5ac2af2005daed21460110b2a584f6d9e0a8979a2f3e5e", "blocktime": 1537876114, "version": 1, "confirmations": 11460, "time": 1537876114, "locktime": 0, "vsize": 226, "size": 226}