{"hash": "a49858c756d4716358f7c11849db1df61dda3fdda0c409cccd48b5554cb51b9a", "blockhash": "0000000000000000001e0dab787dd257d1dbfcb92a98c2207d5e1078be1f4165", "vout": [{"scriptPubKey": {"reqSigs": 1, "hex": "76a9145f37d3df16c894e74d2ff7ef6b9774646878af7788ac", "addresses": ["19gU5CKQTmKa6RBGZeRFDHdKu523ShgS1t"], "asm": "OP_DUP OP_HASH160 5f37d3df16c894e74d2ff7ef6b9774646878af77 OP_EQUALVERIFY OP_CHECKSIG", "type": "pubkeyhash"}, "value": 0.00881807, "n": 0}, {"scriptPubKey": {"reqSigs": 1, "hex": "a91401b81c0faee64fb93eacd5ef676f8b5a97e9e7cd87", "addresses": ["31r79tutLAFdCBsEXe85uJ8JH6NBDdXBV5"], "asm": "OP_HASH160 01b81c0faee64fb93eacd5ef676f8b5a97e9e7cd OP_EQUAL", "type": "scripthash"}, "value": 0.02053409, "n": 1}], "hex": "01000000037914b5f310ed9cf39379254e93ed95bfd690604fc3029ca4abf138833c5eed05000000006b48304502210081a827d52db5e5fd8e55076b622a8b1f290935a5b9db645e651dad0810bcae390220619e3db86ad4ea5a6e8f00366cc997128196288546e37db95098f9bc8446e6f9012103da16c61ba125e38322258e6cbfce4921041ee365909004abf5044c05fe9f2464ffffffff5d0c09a32abbc4ff5698461b2fd3e583716fc1489d9e108364751fc5eea4c72e010000006a47304402201cea9ebb18dec7dc1657b0f556f4d40033c8b8ca7520d8f91631ce438ec2ef3f022037b5e7c70467b3903fbd0b254a17e1004f17b87b20b5d7ae7d1ccb6d4bf75233012102f194be230acb4213a1139109653f79896102f03394913942a9c823d135bb28a3ffffffffa2a3f5ede5c07317536e6dcc7a63c20e27d81462f6dcd6700d83e60c2bce4d7b000000006b483045022100efd8982d236de756cdc39e2a33cf9fcf2747ad879cb2abe03381578f623d962302202b0c2a01dbe035ef69b0ad8317271688b87d362640f8b1800c42c9570a545f94012103a091848b8e3f81cc494ef5ac83b0f6e27a0968d3942c0cc85ca8c049567fda55ffffffff028f740d00000000001976a9145f37d3df16c894e74d2ff7ef6b9774646878af7788ac21551f000000000017a91401b81c0faee64fb93eacd5ef676f8b5a97e9e7cd8700000000", "vin": [{"sequence": 4294967295, "scriptSig": {"hex": "48304502210081a827d52db5e5fd8e55076b622a8b1f290935a5b9db645e651dad0810bcae390220619e3db86ad4ea5a6e8f00366cc997128196288546e37db95098f9bc8446e6f9012103da16c61ba125e38322258e6cbfce4921041ee365909004abf5044c05fe9f2464", "asm": "304502210081a827d52db5e5fd8e55076b622a8b1f290935a5b9db645e651dad0810bcae390220619e3db86ad4ea5a6e8f00366cc997128196288546e37db95098f9bc8446e6f9[ALL] 03da16c61ba125e38322258e6cbfce4921041ee365909004abf5044c05fe9f2464"}, "vout": 0, "txid": "05ed5e3c8338f1aba49c02c34f6090d6bf95ed934e257993f39ced10f3b51479"}, {"sequence": 4294967295, "scriptSig": {"hex": "47304402201cea9ebb18dec7dc1657b0f556f4d40033c8b8ca7520d8f91631ce438ec2ef3f022037b5e7c70467b3903fbd0b254a17e1004f17b87b20b5d7ae7d1ccb6d4bf75233012102f194be230acb4213a1139109653f79896102f03394913942a9c823d135bb28a3", "asm": "304402201cea9ebb18dec7dc1657b0f556f4d40033c8b8ca7520d8f91631ce438ec2ef3f022037b5e7c70467b3903fbd0b254a17e1004f17b87b20b5d7ae7d1ccb6d4bf75233[ALL] 02f194be230acb4213a1139109653f79896102f03394913942a9c823d135bb28a3"}, "vout": 1, "txid": "2ec7a4eec51f756483109e9d48c16f7183e5d32f1b469856ffc4bb2aa3090c5d"}, {"sequence": 4294967295, "scriptSig": {"hex": "483045022100efd8982d236de756cdc39e2a33cf9fcf2747ad879cb2abe03381578f623d962302202b0c2a01dbe035ef69b0ad8317271688b87d362640f8b1800c42c9570a545f94012103a091848b8e3f81cc494ef5ac83b0f6e27a0968d3942c0cc85ca8c049567fda55", "asm": "3045022100efd8982d236de756cdc39e2a33cf9fcf2747ad879cb2abe03381578f623d962302202b0c2a01dbe035ef69b0ad8317271688b87d362640f8b1800c42c9570a545f94[ALL] 03a091848b8e3f81cc494ef5ac83b0f6e27a0968d3942c0cc85ca8c049567fda55"}, "vout": 0, "txid": "7b4dce2b0ce6830d70d6dcf66214d8270ec2637acc6d6e531773c0e5edf5a3a2"}], "txid": "a49858c756d4716358f7c11849db1df61dda3fdda0c409cccd48b5554cb51b9a", "blocktime": 1537872475, "version": 1, "confirmations": 11486, "time": 1537872475, "locktime": 0, "vsize": 519, "size": 519}