{"hash": "a4a06760b637439753125351c8ea97791d9536da3d17d5d1cbe5ab7ed6affba7", "blockhash": "0000000000000000001cda96e906b7601b7a6fb1a3b62bca570a9e5d8f4b3de1", "vout": [{"scriptPubKey": {"reqSigs": 1, "hex": "76a914c8d87d441c03739bdbc7b4ed823ccc0cf2181e1388ac", "addresses": ["1KJyVJrMsi2g8iaVAmYDPMNhzZWHbBHGr9"], "asm": "OP_DUP OP_HASH160 c8d87d441c03739bdbc7b4ed823ccc0cf2181e13 OP_EQUALVERIFY OP_CHECKSIG", "type": "pubkeyhash"}, "value": 1.225e-05, "n": 0}, {"scriptPubKey": {"reqSigs": 1, "hex": "a9145f5767ed7bcfc0bf855dd77deb2061f45c11a78e87", "addresses": ["3AP8pqiUPLNHFt1LCTYCsCDZs4RpwhNpSL"], "asm": "OP_HASH160 5f5767ed7bcfc0bf855dd77deb2061f45c11a78e OP_EQUAL", "type": "scripthash"}, "value": 0.0081, "n": 1}], "hex": "0100000002edf47ff050a37b4a6bb68b690035eaf06dd4f3ce94bfb777feca8e0a5c8d3b32000000006a4730440220378d581832fb108fdb0a3455035f8c901b9f47e8ee38846d2e3fb0678c7d0ed402203196e514194e2886c8f0619c85b62de7b50f2dc1c965fa098454558223add7d90121023e551837b4ad015d6b809b66b27b0a2b3885bb3ed4be5719f74022d06dc6211bffffffff19496009684a69efec9e8c6701b0499085518145833293c8d3866705a81626be090000006a47304402202ce4fa288017d7130c9055f0c8184cfbe9f527a6051e67d3a6ce347df987c25c0220445e2bf4088f797228655342c7a0535ebadaae12627e6f5bb2204370499079b901210266e7b0f10a65328f383a241bcaa67ad972d6ce85130c74e8275d3d13383204cfffffffff02c9040000000000001976a914c8d87d441c03739bdbc7b4ed823ccc0cf2181e1388ac105c0c000000000017a9145f5767ed7bcfc0bf855dd77deb2061f45c11a78e8700000000", "vin": [{"sequence": 4294967295, "scriptSig": {"hex": "4730440220378d581832fb108fdb0a3455035f8c901b9f47e8ee38846d2e3fb0678c7d0ed402203196e514194e2886c8f0619c85b62de7b50f2dc1c965fa098454558223add7d90121023e551837b4ad015d6b809b66b27b0a2b3885bb3ed4be5719f74022d06dc6211b", "asm": "30440220378d581832fb108fdb0a3455035f8c901b9f47e8ee38846d2e3fb0678c7d0ed402203196e514194e2886c8f0619c85b62de7b50f2dc1c965fa098454558223add7d9[ALL] 023e551837b4ad015d6b809b66b27b0a2b3885bb3ed4be5719f74022d06dc6211b"}, "vout": 0, "txid": "323b8d5c0a8ecafe77b7bf94cef3d46df0ea3500698bb66b4a7ba350f07ff4ed"}, {"sequence": 4294967295, "scriptSig": {"hex": "47304402202ce4fa288017d7130c9055f0c8184cfbe9f527a6051e67d3a6ce347df987c25c0220445e2bf4088f797228655342c7a0535ebadaae12627e6f5bb2204370499079b901210266e7b0f10a65328f383a241bcaa67ad972d6ce85130c74e8275d3d13383204cf", "asm": "304402202ce4fa288017d7130c9055f0c8184cfbe9f527a6051e67d3a6ce347df987c25c0220445e2bf4088f797228655342c7a0535ebadaae12627e6f5bb2204370499079b9[ALL] 0266e7b0f10a65328f383a241bcaa67ad972d6ce85130c74e8275d3d13383204cf"}, "vout": 9, "txid": "be2616a8056786d3c8933283458151859049b001678c9eecef694a6809604919"}], "txid": "a4a06760b637439753125351c8ea97791d9536da3d17d5d1cbe5ab7ed6affba7", "blocktime": 1537873282, "version": 1, "confirmations": 11485, "time": 1537873282, "locktime": 0, "vsize": 370, "size": 370}