{"hash": "1a56428cf41eecc2e0caa18f8e7f3f149dbeb9677abbd1f16390867b677d5938", "blockhash": "0000000000000000001f76057863aec43deb6fa401d9628bb513d65a8098bfab", "vout": [{"scriptPubKey": {"reqSigs": 1, "hex": "76a9143c8814cc6e1d220d52c713d787761915fccb3e5488ac", "addresses": ["16X4ZbptRduSA2mWGH2PZsnZXWXCv5spGt"], "asm": "OP_DUP OP_HASH160 3c8814cc6e1d220d52c713d787761915fccb3e54 OP_EQUALVERIFY OP_CHECKSIG", "type": "pubkeyhash"}, "value": 0.00362725, "n": 0}, {"scriptPubKey": {"reqSigs": 1, "hex": "a914228c0c78d9e16aae218ee6fd1972cac42ea04ee187", "addresses": ["34qgfpc3WuPLjVhnSPy3mZN37e376C6qaY"], "asm": "OP_HASH160 228c0c78d9e16aae218ee6fd1972cac42ea04ee1 OP_EQUAL", "type": "scripthash"}, "value": 0.0165014, "n": 1}], "hex": "02000000000102b7e1e5fc56bd0c9b462bbb3b405531a3140fb271523eaa828807321328a7fbe10100000017160014cc649786f1d448bec69b0b449f3a1714bfc82d19feffffffc46bcf55b6ad7504454b66a042e196bfdb9003eba741b3e5015526e4d2fc05260000000017160014c12b91dc6263cda3c7190c6b18a88f8a9c772510feffffff02e5880500000000001976a9143c8814cc6e1d220d52c713d787761915fccb3e5488acdc2d19000000000017a914228c0c78d9e16aae218ee6fd1972cac42ea04ee1870247304402204ce37f1df4bd27ff5c88a2fd6a61ae66e1895f40299a3760fe5eadce0b0955760220308042b9638c29d05e0250dd7f3b6e5c76c088efef3bed4090f21be48fed68f2012102d06c26e6455f7fe128a2f9e5b8b511c355b7177336a97eef97fad93946e7661e02483045022100d57347f246ea96f8f1ecb41d82e3350d147664106e051da98d5ffb9df0e0d44a022073d7a56b3f57a9d01aca0c8b0d6dcfbce66ea1f63eef668e509754416cee39c901210366bc160edf0b313abbf4699c0f65b385575c4ecdf47e57d45d5e0b20194275cb14490800", "vin": [{"txinwitness": ["304402204ce37f1df4bd27ff5c88a2fd6a61ae66e1895f40299a3760fe5eadce0b0955760220308042b9638c29d05e0250dd7f3b6e5c76c088efef3bed4090f21be48fed68f201", "02d06c26e6455f7fe128a2f9e5b8b511c355b7177336a97eef97fad93946e7661e"], "sequence": 4294967294, "scriptSig": {"hex": "160014cc649786f1d448bec69b0b449f3a1714bfc82d19", "asm": "0014cc649786f1d448bec69b0b449f3a1714bfc82d19"}, "vout": 1, "txid": "e1fba7281332078882aa3e5271b20f14a33155403bbb2b469b0cbd56fce5e1b7"}, {"txinwitness": ["3045022100d57347f246ea96f8f1ecb41d82e3350d147664106e051da98d5ffb9df0e0d44a022073d7a56b3f57a9d01aca0c8b0d6dcfbce66ea1f63eef668e509754416cee39c901", "0366bc160edf0b313abbf4699c0f65b385575c4ecdf47e57d45d5e0b20194275cb"], "sequence": 4294967294, "scriptSig": {"hex": "160014c12b91dc6263cda3c7190c6b18a88f8a9c772510", "asm": "0014c12b91dc6263cda3c7190c6b18a88f8a9c772510"}, "vout": 0, "txid": "2605fcd2e4265501e5b341a7eb0390dbbf96e142a0664b450475adb655cf6bc4"}], "txid": "a4a188d4933842980f1a5a69f41418cdfc2aea68cebf089b3318b55ed5147c05", "blocktime": 1537873891, "version": 2, "confirmations": 11478, "time": 1537873891, "locktime": 542996, "vsize": 259, "size": 421}