{"hash": "a4a14ef287349d9f184efa16168172b88baf1cb17b4901761d88aad43fdb7967", "blockhash": "0000000000000000000baef3f32e3676a92c3b2e5da21b426e4f302fc371ce76", "vout": [{"scriptPubKey": {"reqSigs": 1, "hex": "76a914850429f94dec0a24e04127af6ea76eaf5b206d0588ac", "addresses": ["1D8KrqAjy9jNuopbN6tRELyg9b5PUr4USe"], "asm": "OP_DUP OP_HASH160 850429f94dec0a24e04127af6ea76eaf5b206d05 OP_EQUALVERIFY OP_CHECKSIG", "type": "pubkeyhash"}, "value": 0.00034853, "n": 0}], "hex": "0100000001c10b62e5822871093665ee427e0ab7783c4d7864c15f4e40744c472fdf12081c010000006a47304402201c0ea9b954c5cf3d91fdcc1e6bc4bf5290647bee2429f9edc29d559f0a1f4ca7022005bcb9623833fccf0a45f66be350669436103813a01546f7b07db123defd327f0121034a2700b9769c5ef77a40d9ffb0da2c230a911092842e210cad882bca6cf19cecffffffff0125880000000000001976a914850429f94dec0a24e04127af6ea76eaf5b206d0588ac00000000", "vin": [{"sequence": 4294967295, "scriptSig": {"hex": "47304402201c0ea9b954c5cf3d91fdcc1e6bc4bf5290647bee2429f9edc29d559f0a1f4ca7022005bcb9623833fccf0a45f66be350669436103813a01546f7b07db123defd327f0121034a2700b9769c5ef77a40d9ffb0da2c230a911092842e210cad882bca6cf19cec", "asm": "304402201c0ea9b954c5cf3d91fdcc1e6bc4bf5290647bee2429f9edc29d559f0a1f4ca7022005bcb9623833fccf0a45f66be350669436103813a01546f7b07db123defd327f[ALL] 034a2700b9769c5ef77a40d9ffb0da2c230a911092842e210cad882bca6cf19cec"}, "vout": 1, "txid": "1c0812df2f474c74404e5fc164784d3c78b70a7e42ee653609712882e5620bc1"}], "txid": "a4a14ef287349d9f184efa16168172b88baf1cb17b4901761d88aad43fdb7967", "blocktime": 1537876114, "version": 1, "confirmations": 11460, "time": 1537876114, "locktime": 0, "vsize": 191, "size": 191}