{"hash": "a4a37ad2cead53d677ca6e45f91958f044b99a4e5b8ce7c89b505be12d2147f7", "blockhash": "0000000000000000001e0dab787dd257d1dbfcb92a98c2207d5e1078be1f4165", "vout": [{"scriptPubKey": {"reqSigs": 1, "hex": "76a914062cdb8dcfc3a763635811884b0b7192bd0f046988ac", "addresses": ["1Zenv1VDBQxiUZHDTjJs5RVAhzzEg3P81"], "asm": "OP_DUP OP_HASH160 062cdb8dcfc3a763635811884b0b7192bd0f0469 OP_EQUALVERIFY OP_CHECKSIG", "type": "pubkeyhash"}, "value": 0.00027273, "n": 0}, {"scriptPubKey": {"reqSigs": 1, "hex": "a9143868ddf77f2cc0f41d8f6e7613c6975c14c5117587", "addresses": ["36qHPaRqtTRAMx46fKZGo8kabsyULhBYAA"], "asm": "OP_HASH160 3868ddf77f2cc0f41d8f6e7613c6975c14c51175 OP_EQUAL", "type": "scripthash"}, "value": 0.016, "n": 1}], "hex": "0100000003a28b9d2a1e72879d4a5b38c817427d5ed676aa3909d7bc4fb9ad0e026393ca54010000006a47304402202386b4205f4a02163c92da83740d5ac9023830d761227e1e4e571f1d3a45825a0220071fde42278e74a5713610af5bb9d12e3c5be9488beb193a6cefd113f56aa7f001210324334ad597e534559ddee3538b1b302850a885215c92fb256de920c8388c91faffffffff0d69fc70fd98c9f258dd5b72d1a347b7208fc924006292d72d4b97a0b24dd3bf100000006b483045022100e1c048d20d8b1da54c8c3c1c830eef9973a1dc8ce97f027817f060356b76b07402204bb3d7c37a1774f3021b02ce3a7d09b88babede8d4e07f1a086828107423aded0121030fd9d4095fd81fefee716c7785811648d1a165764e935ac29cc74f761256c84affffffff7331357313acfb5698a4994f145be4a15cc1ff0c88dd79269aa63208c8d0d4d4010000006a47304402207319cf363f8cc4dad98b7ccf39b4d93518a508c9433c5eceff789c744b090ab50220505b3b47c5bfee4bbc8ca2bc7ccffb598f8901957587b2cae0dcb4fb05f9faeb01210233e968e948ed38924cecb34dd9b6b880acff742eafbe6a9a4bcef414a8337c7effffffff02896a0000000000001976a914062cdb8dcfc3a763635811884b0b7192bd0f046988ac006a18000000000017a9143868ddf77f2cc0f41d8f6e7613c6975c14c511758700000000", "vin": [{"sequence": 4294967295, "scriptSig": {"hex": "47304402202386b4205f4a02163c92da83740d5ac9023830d761227e1e4e571f1d3a45825a0220071fde42278e74a5713610af5bb9d12e3c5be9488beb193a6cefd113f56aa7f001210324334ad597e534559ddee3538b1b302850a885215c92fb256de920c8388c91fa", "asm": "304402202386b4205f4a02163c92da83740d5ac9023830d761227e1e4e571f1d3a45825a0220071fde42278e74a5713610af5bb9d12e3c5be9488beb193a6cefd113f56aa7f0[ALL] 0324334ad597e534559ddee3538b1b302850a885215c92fb256de920c8388c91fa"}, "vout": 1, "txid": "54ca9363020eadb94fbcd70939aa76d65e7d4217c8385b4a9d87721e2a9d8ba2"}, {"sequence": 4294967295, "scriptSig": {"hex": "483045022100e1c048d20d8b1da54c8c3c1c830eef9973a1dc8ce97f027817f060356b76b07402204bb3d7c37a1774f3021b02ce3a7d09b88babede8d4e07f1a086828107423aded0121030fd9d4095fd81fefee716c7785811648d1a165764e935ac29cc74f761256c84a", "asm": "3045022100e1c048d20d8b1da54c8c3c1c830eef9973a1dc8ce97f027817f060356b76b07402204bb3d7c37a1774f3021b02ce3a7d09b88babede8d4e07f1a086828107423aded[ALL] 030fd9d4095fd81fefee716c7785811648d1a165764e935ac29cc74f761256c84a"}, "vout": 16, "txid": "bfd34db2a0974b2dd792620024c98f20b747a3d1725bdd58f2c998fd70fc690d"}, {"sequence": 4294967295, "scriptSig": {"hex": "47304402207319cf363f8cc4dad98b7ccf39b4d93518a508c9433c5eceff789c744b090ab50220505b3b47c5bfee4bbc8ca2bc7ccffb598f8901957587b2cae0dcb4fb05f9faeb01210233e968e948ed38924cecb34dd9b6b880acff742eafbe6a9a4bcef414a8337c7e", "asm": "304402207319cf363f8cc4dad98b7ccf39b4d93518a508c9433c5eceff789c744b090ab50220505b3b47c5bfee4bbc8ca2bc7ccffb598f8901957587b2cae0dcb4fb05f9faeb[ALL] 0233e968e948ed38924cecb34dd9b6b880acff742eafbe6a9a4bcef414a8337c7e"}, "vout": 1, "txid": "d4d4d0c80832a69a2679dd880cffc15ca1e45b144f99a49856fbac1373353173"}], "txid": "a4a37ad2cead53d677ca6e45f91958f044b99a4e5b8ce7c89b505be12d2147f7", "blocktime": 1537872475, "version": 1, "confirmations": 11486, "time": 1537872475, "locktime": 0, "vsize": 518, "size": 518}