{"hash": "a4acfd8f6e48afc0e2ee3d63cf06c22c4a917545792d9a6213d699542e55ec73", "blockhash": "0000000000000000001f0ddff1eddb255c1121bcd4da4f1bc9a0da00cae72433", "vout": [{"scriptPubKey": {"reqSigs": 1, "hex": "76a91452e9be0d4a181d220cc07fad4aafbcb5b2fbe9c888ac", "addresses": ["18ZQRSJ1MaeFwJQUCUNiCqPBseSPFbxWJ5"], "asm": "OP_DUP OP_HASH160 52e9be0d4a181d220cc07fad4aafbcb5b2fbe9c8 OP_EQUALVERIFY OP_CHECKSIG", "type": "pubkeyhash"}, "value": 0.00078168, "n": 0}, {"scriptPubKey": {"reqSigs": 1, "hex": "76a9145bb6d0011d6c3d9218bbf8a0b02642f6ad4ca71288ac", "addresses": ["19MwVVbDvZyoZCjmzFPYwuTCfmM3m9vgro"], "asm": "OP_DUP OP_HASH160 5bb6d0011d6c3d9218bbf8a0b02642f6ad4ca712 OP_EQUALVERIFY OP_CHECKSIG", "type": "pubkeyhash"}, "value": 0.02529426, "n": 1}], "hex": "01000000014e10143c715b9d135b0b6ad05aeec114ac02552d31d630bf76e1a433016e2126010000006a473044022004ab5d1822c93f9eb51befddb9bdb465533581f7688b41344b2357fc84518412022068ca3e380ace65d79bc8ac78b1a49f2e043574389674ea81d0705f41ad0ea89a0121028901d3e136d927c70018c05f5dccf0cc3b1f396a3c661ac7bec35d15a4699c6cffffffff0258310100000000001976a91452e9be0d4a181d220cc07fad4aafbcb5b2fbe9c888ac92982600000000001976a9145bb6d0011d6c3d9218bbf8a0b02642f6ad4ca71288ac00000000", "vin": [{"sequence": 4294967295, "scriptSig": {"hex": "473044022004ab5d1822c93f9eb51befddb9bdb465533581f7688b41344b2357fc84518412022068ca3e380ace65d79bc8ac78b1a49f2e043574389674ea81d0705f41ad0ea89a0121028901d3e136d927c70018c05f5dccf0cc3b1f396a3c661ac7bec35d15a4699c6c", "asm": "3044022004ab5d1822c93f9eb51befddb9bdb465533581f7688b41344b2357fc84518412022068ca3e380ace65d79bc8ac78b1a49f2e043574389674ea81d0705f41ad0ea89a[ALL] 028901d3e136d927c70018c05f5dccf0cc3b1f396a3c661ac7bec35d15a4699c6c"}, "vout": 1, "txid": "26216e0133a4e176bf30d6312d5502ac14c1ee5ad06a0b5b139d5b713c14104e"}], "txid": "a4acfd8f6e48afc0e2ee3d63cf06c22c4a917545792d9a6213d699542e55ec73", "blocktime": 1537872018, "version": 1, "confirmations": 11489, "time": 1537872018, "locktime": 0, "vsize": 225, "size": 225}