{"hash": "9b4211b97a3586ec0691aad067e3a1d9d5ec952349052a1405ba5f4b7ce843b6", "blockhash": "0000000000000000000dcc0f55137456b1a82d3642486a52398922ac4d620174", "vout": [{"scriptPubKey": {"reqSigs": 1, "hex": "a91430897cc6c9d69f6a2c2f1c651d51f22219f1a4f687", "addresses": ["367f4YWz1VCFaqBqwbTrzwi2b1h2U3w1AF"], "asm": "OP_HASH160 30897cc6c9d69f6a2c2f1c651d51f22219f1a4f6 OP_EQUAL", "type": "scripthash"}, "value": 4.05760881, "n": 0}, {"scriptPubKey": {"reqSigs": 1, "hex": "a91469f376297f694bf67b05e5764f2e46bcbdf599b987", "addresses": ["3BMEXh7ccLJt5WHaoQESKyzHHwibipaHKa"], "asm": "OP_HASH160 69f376297f694bf67b05e5764f2e46bcbdf599b9 OP_EQUAL", "type": "scripthash"}, "value": 0.61563003, "n": 1}], "hex": "010000000001028459fdb5df47c086f2f2fec5d37112e30647ca93a8a5da3209939266d09273520000000023220020bcf9f822194145acea0f3235f4107b5bf1a91b6b9f8489f63bf79ec29b360913ffffffff03e0c2805db72affbd679c26227a7a39460dbe817c4b29a67430ddffc25d4645010000006b483045022100c4a882434c7fec477cf55c02db1b9fe5b353952ccb4d7176ed529e039fa61fb2022074f9a652bd0f026b1b58912b56c5a909c67a09bcfa33bea63a8a430a9c2b29cf01210351c1ce9cd5b80c99f845b67e4d65cedc325a2e9dad550679c738c99b99aecb97ffffffff02716b2f180000000017a91430897cc6c9d69f6a2c2f1c651d51f22219f1a4f6877b60ab030000000017a91469f376297f694bf67b05e5764f2e46bcbdf599b98704004830450221009f4c77487c22d116d2c2e07d7513d615627ac1ff081dfd446441d753d4a4dab802202683f9d30a339faa56a2e35bc20a9279ab62e6a769efc58719d08c4b62c8d9e101483045022100a2c7fff85c3afd274372d061296f2d0f9f77ee6c06cf6674d2dcdb9b54fd7638022030e4987e516f3fdbb7129bb88e1f318ab1613a09ef946ad824dee68a9312442c01695221026c8f72b9e63db63907115e65d4da86eaae595b22fdc85ec75301bb4adbf203582103806535be3e3920e5eedee92de5714188fd6a784f2bf7b04f87de0b9c3ae1ecdb21024b23bfdce2afcae7e28c42f7f79aa100f22931712c52d7414a526ba494d44a2553ae0000000000", "vin": [{"txinwitness": ["", "30450221009f4c77487c22d116d2c2e07d7513d615627ac1ff081dfd446441d753d4a4dab802202683f9d30a339faa56a2e35bc20a9279ab62e6a769efc58719d08c4b62c8d9e101", "3045022100a2c7fff85c3afd274372d061296f2d0f9f77ee6c06cf6674d2dcdb9b54fd7638022030e4987e516f3fdbb7129bb88e1f318ab1613a09ef946ad824dee68a9312442c01", "5221026c8f72b9e63db63907115e65d4da86eaae595b22fdc85ec75301bb4adbf203582103806535be3e3920e5eedee92de5714188fd6a784f2bf7b04f87de0b9c3ae1ecdb21024b23bfdce2afcae7e28c42f7f79aa100f22931712c52d7414a526ba494d44a2553ae"], "sequence": 4294967295, "scriptSig": {"hex": "220020bcf9f822194145acea0f3235f4107b5bf1a91b6b9f8489f63bf79ec29b360913", "asm": "0020bcf9f822194145acea0f3235f4107b5bf1a91b6b9f8489f63bf79ec29b360913"}, "vout": 0, "txid": "527392d06692930932daa5a893ca4706e31271d3c5fef2f286c047dfb5fd5984"}, {"sequence": 4294967295, "scriptSig": {"hex": "483045022100c4a882434c7fec477cf55c02db1b9fe5b353952ccb4d7176ed529e039fa61fb2022074f9a652bd0f026b1b58912b56c5a909c67a09bcfa33bea63a8a430a9c2b29cf01210351c1ce9cd5b80c99f845b67e4d65cedc325a2e9dad550679c738c99b99aecb97", "asm": "3045022100c4a882434c7fec477cf55c02db1b9fe5b353952ccb4d7176ed529e039fa61fb2022074f9a652bd0f026b1b58912b56c5a909c67a09bcfa33bea63a8a430a9c2b29cf[ALL] 0351c1ce9cd5b80c99f845b67e4d65cedc325a2e9dad550679c738c99b99aecb97"}, "vout": 1, "txid": "45465dc2ffdd3074a6294b7c81be0d46397a7a22269c67bdff2ab75d80c2e003"}], "txid": "a4af9d890a5247ceda4ffa0ef5e2520477599587b81616a831d6cacf3538f2d5", "blocktime": 1537870268, "version": 1, "confirmations": 11517, "time": 1537870268, "locktime": 0, "vsize": 363, "size": 555}