{"hash": "a4ba8803121f1ae53eb26601c779bce501e4bd79e58b6a3c44366ef9f59c01f4", "blockhash": "0000000000000000000e13cef7c366c0283d82e591d1acd082e914b08063cdf1", "vout": [{"scriptPubKey": {"reqSigs": 1, "hex": "76a914f8bed2aa7b05be598c25f05a7e59e9498e93684d88ac", "addresses": ["1PgFBBaiQmp9iN5fezs9xzA4fs6E7jQjYU"], "asm": "OP_DUP OP_HASH160 f8bed2aa7b05be598c25f05a7e59e9498e93684d OP_EQUALVERIFY OP_CHECKSIG", "type": "pubkeyhash"}, "value": 0.02291422, "n": 0}, {"scriptPubKey": {"reqSigs": 1, "hex": "a91441c60e9993460f8765502f697ddc4400b4c92a4d87", "addresses": ["37go7Fq5LaiH1MciJ7XLoznH9Ws6JVaMk5"], "asm": "OP_HASH160 41c60e9993460f8765502f697ddc4400b4c92a4d OP_EQUAL", "type": "scripthash"}, "value": 0.03123613, "n": 1}], "hex": "010000000108262a6f7281f5d3f9fe9cd3521664b730af66027916d879849c1b28ec8b8f9d010000006a47304402205fc9c2d4e860a1d0baa629256b0d81eac59801e355d7d5178b6d1e20a3c82f1c022070684836e7b6aca027c22aa62a8e470f085d6ed09b96dbfb1fbf44f09bd676810121030699bd8278fdc81daae8a82cc6387aa540749326b46d3041a700ebd0c6908f83ffffffff02def62200000000001976a914f8bed2aa7b05be598c25f05a7e59e9498e93684d88ac9da92f000000000017a91441c60e9993460f8765502f697ddc4400b4c92a4d8700000000", "vin": [{"sequence": 4294967295, "scriptSig": {"hex": "47304402205fc9c2d4e860a1d0baa629256b0d81eac59801e355d7d5178b6d1e20a3c82f1c022070684836e7b6aca027c22aa62a8e470f085d6ed09b96dbfb1fbf44f09bd676810121030699bd8278fdc81daae8a82cc6387aa540749326b46d3041a700ebd0c6908f83", "asm": "304402205fc9c2d4e860a1d0baa629256b0d81eac59801e355d7d5178b6d1e20a3c82f1c022070684836e7b6aca027c22aa62a8e470f085d6ed09b96dbfb1fbf44f09bd67681[ALL] 030699bd8278fdc81daae8a82cc6387aa540749326b46d3041a700ebd0c6908f83"}, "vout": 1, "txid": "9d8f8bec281b9c8479d816790266af30b7641652d39cfef9d3f581726f2a2608"}], "txid": "a4ba8803121f1ae53eb26601c779bce501e4bd79e58b6a3c44366ef9f59c01f4", "blocktime": 1537871767, "version": 1, "confirmations": 11495, "time": 1537871767, "locktime": 0, "vsize": 223, "size": 223}