{"hash": "a4ba4d6e51c4157727cc2288694a58a965b9228079d90e8d170367de3d84d4ac", "blockhash": "0000000000000000000baef3f32e3676a92c3b2e5da21b426e4f302fc371ce76", "vout": [{"scriptPubKey": {"reqSigs": 1, "hex": "a91471c9581a5ef118519b21145e2f59432f5e38d6b587", "addresses": ["3C4fUrh4icftLkc7UGHBdVChUHakvhPVam"], "asm": "OP_HASH160 71c9581a5ef118519b21145e2f59432f5e38d6b5 OP_EQUAL", "type": "scripthash"}, "value": 0.024, "n": 0}, {"scriptPubKey": {"reqSigs": 1, "hex": "76a914aa0e1eafd7be3f11b2e577035062ed51776ca3d788ac", "addresses": ["1GWAngGNYBwjCxidnF3pbrX1HmAxtn5Gw3"], "asm": "OP_DUP OP_HASH160 aa0e1eafd7be3f11b2e577035062ed51776ca3d7 OP_EQUALVERIFY OP_CHECKSIG", "type": "pubkeyhash"}, "value": 0.036289, "n": 1}], "hex": "010000000198e27c9a9fa895c53a9f26971e58d7d4fb8cc32846814e90fdec02ab46564957000000006a47304402206cd3af4fc23b6ac7f0fe67dc5dec375571dcf70b2bac18bd99ce45473ad7a7650220125b321b10798c32c8791d6b4c2a973e19c4d41a5749c523ba38bcb1da8bc9d7012102cc1447e50d67e259dda86b29c1fec835b04a9c00d20f29a7b4f3ecebc671d8b2feffffff02009f24000000000017a91471c9581a5ef118519b21145e2f59432f5e38d6b587645f3700000000001976a914aa0e1eafd7be3f11b2e577035062ed51776ca3d788ac17490800", "vin": [{"sequence": 4294967294, "scriptSig": {"hex": "47304402206cd3af4fc23b6ac7f0fe67dc5dec375571dcf70b2bac18bd99ce45473ad7a7650220125b321b10798c32c8791d6b4c2a973e19c4d41a5749c523ba38bcb1da8bc9d7012102cc1447e50d67e259dda86b29c1fec835b04a9c00d20f29a7b4f3ecebc671d8b2", "asm": "304402206cd3af4fc23b6ac7f0fe67dc5dec375571dcf70b2bac18bd99ce45473ad7a7650220125b321b10798c32c8791d6b4c2a973e19c4d41a5749c523ba38bcb1da8bc9d7[ALL] 02cc1447e50d67e259dda86b29c1fec835b04a9c00d20f29a7b4f3ecebc671d8b2"}, "vout": 0, "txid": "57495646ab02ecfd904e814628c38cfbd4d7581e97269f3ac595a89f9a7ce298"}], "txid": "a4ba4d6e51c4157727cc2288694a58a965b9228079d90e8d170367de3d84d4ac", "blocktime": 1537876114, "version": 1, "confirmations": 11460, "time": 1537876114, "locktime": 542999, "vsize": 223, "size": 223}