{"hash": "61d35d5ca842e0bd9b30e25d068f1daeb1e8afc860eef5c323e6fd673a781ec6", "blockhash": "0000000000000000001cda96e906b7601b7a6fb1a3b62bca570a9e5d8f4b3de1", "vout": [{"scriptPubKey": {"reqSigs": 1, "hex": "002058c8797f181e000075cb9a18a9662013b795012e86acc04d56a2d229e7b8d7c4", "addresses": ["bc1qtry8jlccrcqqqawtngv2je3qzwme2qfws6kvqn2k5tfzneac6lzqpgummp"], "asm": "0 58c8797f181e000075cb9a18a9662013b795012e86acc04d56a2d229e7b8d7c4", "type": "witness_v0_scripthash"}, "value": 0.00469574, "n": 0}], "hex": "0100000000010115bcc311158222090ac96276cbd503a6de302a6f47e4c25e6639243e034a483c0300000017160014b4d84a4bfe405c1db3af7056a702977501ebf668ffffffff01462a07000000000022002058c8797f181e000075cb9a18a9662013b795012e86acc04d56a2d229e7b8d7c40247304402203f754bd9e25e2039fe205b0dcf007462fbe5d5545e7b894d380b7ff2eddb30620220294b6b7c9361afaca5ab7ed8080afcab55bbdd7b8de6915a0d720a1a1b2db43a01210229c92bb33d9f856b2b1d4b77242763018b340520078914649838fac99086d91d00000000", "vin": [{"txinwitness": ["304402203f754bd9e25e2039fe205b0dcf007462fbe5d5545e7b894d380b7ff2eddb30620220294b6b7c9361afaca5ab7ed8080afcab55bbdd7b8de6915a0d720a1a1b2db43a01", "0229c92bb33d9f856b2b1d4b77242763018b340520078914649838fac99086d91d"], "sequence": 4294967295, "scriptSig": {"hex": "160014b4d84a4bfe405c1db3af7056a702977501ebf668", "asm": "0014b4d84a4bfe405c1db3af7056a702977501ebf668"}, "vout": 3, "txid": "3c484a033e2439665ec2e4476f2a30dea603d5cb7662c90a0922821511c3bc15"}], "txid": "a4bc661216a79b92f821ef2279145e7cd709db303824ef930b1393f440b77234", "blocktime": 1537873282, "version": 1, "confirmations": 11485, "time": 1537873282, "locktime": 0, "vsize": 145, "size": 226}