{"hash": "a4bd2c41cabf5494b8943452db0a4bf7407298d841b660f46488ab23ef4c5e79", "blockhash": "0000000000000000000dcc0f55137456b1a82d3642486a52398922ac4d620174", "vout": [{"scriptPubKey": {"reqSigs": 1, "hex": "76a914d0de157d3163d0f99a5d85a4f1bd2e930390539188ac", "addresses": ["1L3PbZgdGNq2kjC6oiCNoSjZamW7MzcYYn"], "asm": "OP_DUP OP_HASH160 d0de157d3163d0f99a5d85a4f1bd2e9303905391 OP_EQUALVERIFY OP_CHECKSIG", "type": "pubkeyhash"}, "value": 0.53163344, "n": 0}, {"scriptPubKey": {"reqSigs": 1, "hex": "76a914eced2becbcdbea04c6395101535f06414207d97988ac", "addresses": ["1NbkbF4CAJ2x5RwaC1JaX8v8sFq3fA1BrW"], "asm": "OP_DUP OP_HASH160 eced2becbcdbea04c6395101535f06414207d979 OP_EQUALVERIFY OP_CHECKSIG", "type": "pubkeyhash"}, "value": 0.76835319, "n": 1}], "hex": "01000000018c657c8e30ea7eda4d4a22c09dbbc204ba8e59a110513ece7b79b203561ddad51b0000006a47304402202dd1236d2282f2f1c4fb7e9424295c3f7627d8b0ed923b012898bc3f5d1f0a8c02200cf76129aa41c281de3877711b021fdeb8ec86173370c086bd8fb2f647083a6d012103a1da0b80fa7be1f4c7501ed9dabce5e25c781d11a6bdc2d047cafbb5264eefebffffffff0250352b03000000001976a914d0de157d3163d0f99a5d85a4f1bd2e930390539188acf7699404000000001976a914eced2becbcdbea04c6395101535f06414207d97988ac00000000", "vin": [{"sequence": 4294967295, "scriptSig": {"hex": "47304402202dd1236d2282f2f1c4fb7e9424295c3f7627d8b0ed923b012898bc3f5d1f0a8c02200cf76129aa41c281de3877711b021fdeb8ec86173370c086bd8fb2f647083a6d012103a1da0b80fa7be1f4c7501ed9dabce5e25c781d11a6bdc2d047cafbb5264eefeb", "asm": "304402202dd1236d2282f2f1c4fb7e9424295c3f7627d8b0ed923b012898bc3f5d1f0a8c02200cf76129aa41c281de3877711b021fdeb8ec86173370c086bd8fb2f647083a6d[ALL] 03a1da0b80fa7be1f4c7501ed9dabce5e25c781d11a6bdc2d047cafbb5264eefeb"}, "vout": 27, "txid": "d5da1d5603b2797bce3e5110a1598eba04c2bb9dc0224a4dda7eea308e7c658c"}], "txid": "a4bd2c41cabf5494b8943452db0a4bf7407298d841b660f46488ab23ef4c5e79", "blocktime": 1537870268, "version": 1, "confirmations": 11518, "time": 1537870268, "locktime": 0, "vsize": 225, "size": 225}