{"hash": "a4bec011157954710c6a1595484f4c71866f1fc5153cf8cb13819ad8a41ab001", "blockhash": "00000000000000000017f5eb5941039fbcee6240d03bc1f2f8e35350df66a1d8", "vout": [{"scriptPubKey": {"reqSigs": 1, "hex": "76a914bb2d1776593b6748c706aed03df9071b1eaf9dfc88ac", "addresses": ["1J4hNtusqE8Zjn9VNxbwuvmoZp6H4CXFQf"], "asm": "OP_DUP OP_HASH160 bb2d1776593b6748c706aed03df9071b1eaf9dfc OP_EQUALVERIFY OP_CHECKSIG", "type": "pubkeyhash"}, "value": 6.18e-06, "n": 0}, {"scriptPubKey": {"reqSigs": 1, "hex": "76a9148bb84d531832e347fff2bc2adf5bb1e0d895dbab88ac", "addresses": ["1DjmiCKzY216yzjv1oTtFty2fejrZUW8yi"], "asm": "OP_DUP OP_HASH160 8bb84d531832e347fff2bc2adf5bb1e0d895dbab OP_EQUALVERIFY OP_CHECKSIG", "type": "pubkeyhash"}, "value": 0.00312704, "n": 1}], "hex": "010000000141d28eaad3a0bca3baf0028de5a1195fcc03a8a2dc46ac1ad9a9cdfe4770a319000000006b483045022100f2bbd3020cc1ceb91bab3026ded773a14f3920c46be7fc942b04ee189ea88d71022021e8b56dfd6644bbb456830625296430b0bb809f805910d1c05f2a6167e9bd4f012102c5da4d8b2431cc16b1caa341a878e50fd0924f1854f135ee71591010db49e471ffffffff026a020000000000001976a914bb2d1776593b6748c706aed03df9071b1eaf9dfc88ac80c50400000000001976a9148bb84d531832e347fff2bc2adf5bb1e0d895dbab88ac00000000", "vin": [{"sequence": 4294967295, "scriptSig": {"hex": "483045022100f2bbd3020cc1ceb91bab3026ded773a14f3920c46be7fc942b04ee189ea88d71022021e8b56dfd6644bbb456830625296430b0bb809f805910d1c05f2a6167e9bd4f012102c5da4d8b2431cc16b1caa341a878e50fd0924f1854f135ee71591010db49e471", "asm": "3045022100f2bbd3020cc1ceb91bab3026ded773a14f3920c46be7fc942b04ee189ea88d71022021e8b56dfd6644bbb456830625296430b0bb809f805910d1c05f2a6167e9bd4f[ALL] 02c5da4d8b2431cc16b1caa341a878e50fd0924f1854f135ee71591010db49e471"}, "vout": 0, "txid": "19a37047fecda9d91aac46dca2a803cc5f19a1e58d02f0baa3bca0d3aa8ed241"}], "txid": "a4bec011157954710c6a1595484f4c71866f1fc5153cf8cb13819ad8a41ab001", "blocktime": 1537874412, "version": 1, "confirmations": 11468, "time": 1537874412, "locktime": 0, "vsize": 226, "size": 226}