{"hash": "a4c63032f510ff6d436da8fa2134865f02291c90f591b12e697bcfd40670bf83", "blockhash": "00000000000000000018f53835495a110e01622372bf6ae95dc86f2b0ab887b0", "vout": [{"scriptPubKey": {"reqSigs": 1, "hex": "76a91497d7a37bf592bb7572a4c7f1e186bfb257c6261388ac", "addresses": ["1EqsMoPBgmXkyg7rWUABzjwHaCuE5qckxz"], "asm": "OP_DUP OP_HASH160 97d7a37bf592bb7572a4c7f1e186bfb257c62613 OP_EQUALVERIFY OP_CHECKSIG", "type": "pubkeyhash"}, "value": 0.00312, "n": 0}, {"scriptPubKey": {"reqSigs": 1, "hex": "76a914447c4997e8b9cd08dccdc5f762683593081b96a488ac", "addresses": ["17F7qgziAZmzoKJZtgLqx2sTemqAwkL4SZ"], "asm": "OP_DUP OP_HASH160 447c4997e8b9cd08dccdc5f762683593081b96a4 OP_EQUALVERIFY OP_CHECKSIG", "type": "pubkeyhash"}, "value": 0.03237967, "n": 1}], "hex": "010000000122a85b784fe3d37c421fb3edc0d0e116d94e777ec990e6aeb4bd08dbed627109010000006b4830450221009f94d780a4d8c0bab95ae4666e8dbc22fe3b8c36724d185b774a13ce2801b47902200cb26744b2efa700b66625be138c74b018ff8bdeebffd33b80e0b6bac91f7b7c012102808bdd8e456a2324a2d78aa18941020ca4a251d18816d3cf028ba9d926134518ffffffff02c0c20400000000001976a91497d7a37bf592bb7572a4c7f1e186bfb257c6261388ac4f683100000000001976a914447c4997e8b9cd08dccdc5f762683593081b96a488ac00000000", "vin": [{"sequence": 4294967295, "scriptSig": {"hex": "4830450221009f94d780a4d8c0bab95ae4666e8dbc22fe3b8c36724d185b774a13ce2801b47902200cb26744b2efa700b66625be138c74b018ff8bdeebffd33b80e0b6bac91f7b7c012102808bdd8e456a2324a2d78aa18941020ca4a251d18816d3cf028ba9d926134518", "asm": "30450221009f94d780a4d8c0bab95ae4666e8dbc22fe3b8c36724d185b774a13ce2801b47902200cb26744b2efa700b66625be138c74b018ff8bdeebffd33b80e0b6bac91f7b7c[ALL] 02808bdd8e456a2324a2d78aa18941020ca4a251d18816d3cf028ba9d926134518"}, "vout": 1, "txid": "097162eddb08bdb4aee690c97e774ed916e1d0c0edb31f427cd3e34f785ba822"}], "txid": "a4c63032f510ff6d436da8fa2134865f02291c90f591b12e697bcfd40670bf83", "blocktime": 1537870928, "version": 1, "confirmations": 11512, "time": 1537870928, "locktime": 0, "vsize": 226, "size": 226}