{"hash": "14777afe20ac3d0d95ad18cacaf4d4b3aeee71abf271f8da99c3f8c20fbf6736", "blockhash": "0000000000000000001f0ddff1eddb255c1121bcd4da4f1bc9a0da00cae72433", "vout": [{"scriptPubKey": {"reqSigs": 1, "hex": "a914317a02038a0452a560ba30f79f286e839f8cd55987", "addresses": ["36CdCCURpyrwFeuUszr7X4p5WoBa74bKNj"], "asm": "OP_HASH160 317a02038a0452a560ba30f79f286e839f8cd559 OP_EQUAL", "type": "scripthash"}, "value": 0.00415947, "n": 0}, {"scriptPubKey": {"reqSigs": 1, "hex": "a914c3aac73b19a6df3a3a68ef69a8e9f79c8dff9a9c87", "addresses": ["3KXcGqASXznMituPhPnV7BkSc6CHZRLykC"], "asm": "OP_HASH160 c3aac73b19a6df3a3a68ef69a8e9f79c8dff9a9c OP_EQUAL", "type": "scripthash"}, "value": 0.00265391, "n": 1}], "hex": "0100000000010175f828043d1f5a167f36ab413887b913749b6a29a54f112c258e280e53df770701000000232200200b5c15b2a266c1fd9e615145cf3cd379109fe761c2844ebebbc12b381bddc9faffffffff02cb5806000000000017a914317a02038a0452a560ba30f79f286e839f8cd55987af0c04000000000017a914c3aac73b19a6df3a3a68ef69a8e9f79c8dff9a9c870400483045022100fedc12de1c4d1ff107dfbb15e495c8c184fdd9459e3a975dcbd2fd3bf77138f6022000baaf9d435b86847900df5f5d7e10a80cc09d1121ef6d5c6b275e060c08661b01473044022016af7394acf50b454588f1b541030e007c9845744b2f3822fcd6fe129880690902206f460bce711771233aabbfb0251f25a5a17507579142772894d50c7600dbb9190147522102b590b6826675da568b914aa494372424b69f5fe06067fd7fa568cc41070c8e6b21024c55499905a522129124e75484b7ddea868aee9a7f01d75add901db6cf9b589f52ae00000000", "vin": [{"txinwitness": ["", "3045022100fedc12de1c4d1ff107dfbb15e495c8c184fdd9459e3a975dcbd2fd3bf77138f6022000baaf9d435b86847900df5f5d7e10a80cc09d1121ef6d5c6b275e060c08661b01", "3044022016af7394acf50b454588f1b541030e007c9845744b2f3822fcd6fe129880690902206f460bce711771233aabbfb0251f25a5a17507579142772894d50c7600dbb91901", "522102b590b6826675da568b914aa494372424b69f5fe06067fd7fa568cc41070c8e6b21024c55499905a522129124e75484b7ddea868aee9a7f01d75add901db6cf9b589f52ae"], "sequence": 4294967295, "scriptSig": {"hex": "2200200b5c15b2a266c1fd9e615145cf3cd379109fe761c2844ebebbc12b381bddc9fa", "asm": "00200b5c15b2a266c1fd9e615145cf3cd379109fe761c2844ebebbc12b381bddc9fa"}, "vout": 1, "txid": "0777df530e288e252c114fa5296a9b7413b9873841ab367f165a1f3d0428f875"}], "txid": "a4c7a100aa5ecd9e4afa65d510a946217a4f14a64ef9c10d33b8c7899600478d", "blocktime": 1537872018, "version": 1, "confirmations": 11489, "time": 1537872018, "locktime": 0, "vsize": 206, "size": 371}