{"hash": "a4c767070a980e12acdb487a528cdc3fc3f138a919adc725f8d25f9aa6c585d2", "blockhash": "00000000000000000017f5eb5941039fbcee6240d03bc1f2f8e35350df66a1d8", "vout": [{"scriptPubKey": {"reqSigs": 1, "hex": "76a9144a0f1e2f2b0d7daeec5265f10bbbbe08ed725e8988ac", "addresses": ["17kb7c9ndg7ioSuzMWEHWECdEVUegNkcGc"], "asm": "OP_DUP OP_HASH160 4a0f1e2f2b0d7daeec5265f10bbbbe08ed725e89 OP_EQUALVERIFY OP_CHECKSIG", "type": "pubkeyhash"}, "value": 0.00206708, "n": 0}], "hex": "0100000001ec9e440d9266d0035eb6b39b9919a22ae3675b11d426af7b2e8ede4a3ad9f3d8010000006b483045022100b75a68f062470b53efbe37507220a055019a2ef7e386e40f99285ddb653bcc6b02207d0f5a30b842be3bf4fb254f30b67ca0d0adc597e3ee14a61522ce682e385f7e01210350888242660f8d016862d1e95ea7b8cf51583edf18d1c28cabd6dcb91784c0adffffffff0174270300000000001976a9144a0f1e2f2b0d7daeec5265f10bbbbe08ed725e8988ac00000000", "vin": [{"sequence": 4294967295, "scriptSig": {"hex": "483045022100b75a68f062470b53efbe37507220a055019a2ef7e386e40f99285ddb653bcc6b02207d0f5a30b842be3bf4fb254f30b67ca0d0adc597e3ee14a61522ce682e385f7e01210350888242660f8d016862d1e95ea7b8cf51583edf18d1c28cabd6dcb91784c0ad", "asm": "3045022100b75a68f062470b53efbe37507220a055019a2ef7e386e40f99285ddb653bcc6b02207d0f5a30b842be3bf4fb254f30b67ca0d0adc597e3ee14a61522ce682e385f7e[ALL] 0350888242660f8d016862d1e95ea7b8cf51583edf18d1c28cabd6dcb91784c0ad"}, "vout": 1, "txid": "d8f3d93a4ade8e2e7baf26d4115b67e32aa219999bb3b65e03d066920d449eec"}], "txid": "a4c767070a980e12acdb487a528cdc3fc3f138a919adc725f8d25f9aa6c585d2", "blocktime": 1537874412, "version": 1, "confirmations": 11467, "time": 1537874412, "locktime": 0, "vsize": 192, "size": 192}