{"hash": "a4c7ab7d6be57ef21d1469c2cede0fa444c9c256f86a22290198a91c08289c03", "blockhash": "0000000000000000000e13cef7c366c0283d82e591d1acd082e914b08063cdf1", "vout": [{"scriptPubKey": {"reqSigs": 1, "hex": "76a914a1e7f8a0cefe4c54bc99a3b6545f0360e2bd798a88ac", "addresses": ["1Fm5gXY8UrCC7zLEoEuRKJudo1zRTqT8LF"], "asm": "OP_DUP OP_HASH160 a1e7f8a0cefe4c54bc99a3b6545f0360e2bd798a OP_EQUALVERIFY OP_CHECKSIG", "type": "pubkeyhash"}, "value": 0.12227382, "n": 0}, {"scriptPubKey": {"reqSigs": 1, "hex": "76a914791ef5cbfa174ff03f3a6283576fe8717ca2461188ac", "addresses": ["1C3RrMsxkVbKQRnZpvv3jcjYqCfyf3AecU"], "asm": "OP_DUP OP_HASH160 791ef5cbfa174ff03f3a6283576fe8717ca24611 OP_EQUALVERIFY OP_CHECKSIG", "type": "pubkeyhash"}, "value": 0.28219156, "n": 1}], "hex": "01000000031a23fd1a06b624bd5ca119c584209ef1b4ec90029aa133e72c58b46665321563000000006b483045022100f34f367b0750e74dc123891012fe185e7728d76360bb0c687f07c53cad53644602203f928dc3fd52dca3f2daa0a542d94e2f5e6024bad7f0966cd82fac29a50291f0012102b8918442789f8e3b0ccffd284021cfab8de1c07f5d825ef525cace63e5e361b0ffffffffac094b41bbb19279a0c622ae128a0ab1be9dc4a933ad7a29bfad27f7a9cdf395000000006a473044022062fcf0fad9ff4f729b39fa476eae128e5634265a066bc32e64fd6d285412284102205cbe1bf9b3ea39c38089da450bd6a5eab57475756bb79e840d7b48d4adcd72b601210363882003dd480ccf2f0c2f60686fe5297069e2bd92c0e4e3da718c6f2afd9cacffffffff6c440ba5fc472eeec9c4ff943aa4ea362b0fb9fc6db93f3ec587d62ea8b525a0000000006b483045022100b9a8abba03d09fe694c20cc35b3f2d5f00be8fb8d8946ff5ad15fc443388ab72022030c95198800a7bab0e17165c539ac0696751fb6e5b5def376121124e83c257e5012103de7c8ba918a8fccc12d023f895808eb32232bcde9044856f26c5ad6b1f207313ffffffff023693ba00000000001976a914a1e7f8a0cefe4c54bc99a3b6545f0360e2bd798a88ac1497ae01000000001976a914791ef5cbfa174ff03f3a6283576fe8717ca2461188ac00000000", "vin": [{"sequence": 4294967295, "scriptSig": {"hex": "483045022100f34f367b0750e74dc123891012fe185e7728d76360bb0c687f07c53cad53644602203f928dc3fd52dca3f2daa0a542d94e2f5e6024bad7f0966cd82fac29a50291f0012102b8918442789f8e3b0ccffd284021cfab8de1c07f5d825ef525cace63e5e361b0", "asm": "3045022100f34f367b0750e74dc123891012fe185e7728d76360bb0c687f07c53cad53644602203f928dc3fd52dca3f2daa0a542d94e2f5e6024bad7f0966cd82fac29a50291f0[ALL] 02b8918442789f8e3b0ccffd284021cfab8de1c07f5d825ef525cace63e5e361b0"}, "vout": 0, "txid": "6315326566b4582ce733a19a0290ecb4f19e2084c519a15cbd24b6061afd231a"}, {"sequence": 4294967295, "scriptSig": {"hex": "473044022062fcf0fad9ff4f729b39fa476eae128e5634265a066bc32e64fd6d285412284102205cbe1bf9b3ea39c38089da450bd6a5eab57475756bb79e840d7b48d4adcd72b601210363882003dd480ccf2f0c2f60686fe5297069e2bd92c0e4e3da718c6f2afd9cac", "asm": "3044022062fcf0fad9ff4f729b39fa476eae128e5634265a066bc32e64fd6d285412284102205cbe1bf9b3ea39c38089da450bd6a5eab57475756bb79e840d7b48d4adcd72b6[ALL] 0363882003dd480ccf2f0c2f60686fe5297069e2bd92c0e4e3da718c6f2afd9cac"}, "vout": 0, "txid": "95f3cda9f727adbf297aad33a9c49dbeb10a8a12ae22c6a07992b1bb414b09ac"}, {"sequence": 4294967295, "scriptSig": {"hex": "483045022100b9a8abba03d09fe694c20cc35b3f2d5f00be8fb8d8946ff5ad15fc443388ab72022030c95198800a7bab0e17165c539ac0696751fb6e5b5def376121124e83c257e5012103de7c8ba918a8fccc12d023f895808eb32232bcde9044856f26c5ad6b1f207313", "asm": "3045022100b9a8abba03d09fe694c20cc35b3f2d5f00be8fb8d8946ff5ad15fc443388ab72022030c95198800a7bab0e17165c539ac0696751fb6e5b5def376121124e83c257e5[ALL] 03de7c8ba918a8fccc12d023f895808eb32232bcde9044856f26c5ad6b1f207313"}, "vout": 0, "txid": "a025b5a82ed687c53e3fb96dfcb90f2b36eaa43a94ffc4c9ee2e47fca50b446c"}], "txid": "a4c7ab7d6be57ef21d1469c2cede0fa444c9c256f86a22290198a91c08289c03", "blocktime": 1537871767, "version": 1, "confirmations": 11495, "time": 1537871767, "locktime": 0, "vsize": 521, "size": 521}