{"hash": "a4cfed488b63ed94b9b6381ff22fdfe656c86b7593da363884a3f2a051516426", "blockhash": "0000000000000000001e0dab787dd257d1dbfcb92a98c2207d5e1078be1f4165", "vout": [{"scriptPubKey": {"reqSigs": 1, "hex": "a9140866bdd828336c77ec1d1ee2c5f8cfc02217a50c87", "addresses": ["32TSQgtLjwiRG8M7GYECEnydvLk48wPt2Z"], "asm": "OP_HASH160 0866bdd828336c77ec1d1ee2c5f8cfc02217a50c OP_EQUAL", "type": "scripthash"}, "value": 0.00278788, "n": 0}, {"scriptPubKey": {"reqSigs": 1, "hex": "76a914ed12d61222864c85a0b6fb2a76655294dd4879bb88ac", "addresses": ["1NcXiEAMJCAoDX6DJ4uFTRJ42wj6eEja4Q"], "asm": "OP_DUP OP_HASH160 ed12d61222864c85a0b6fb2a76655294dd4879bb OP_EQUALVERIFY OP_CHECKSIG", "type": "pubkeyhash"}, "value": 0.00751891, "n": 1}], "hex": "0100000001397d6c342fa68c2119966c62eb2f2bc0ff80f809549bdb5067df3fc117c74de5010000006b483045022100b4ecd22c1eac59c9fff91bbe5c96b0915c6e3f4d2b42d0cae64e8fcde2d0f1d30220081db051b8d7f86cb5ffd39e9fff7908d6aa2069d07e2d532d5d3031f8a4f9160121023ec304cc132b96ca36e965ad1eba9d21092978f142dde9b398091373b26bd1d0ffffffff02044104000000000017a9140866bdd828336c77ec1d1ee2c5f8cfc02217a50c8713790b00000000001976a914ed12d61222864c85a0b6fb2a76655294dd4879bb88ac00000000", "vin": [{"sequence": 4294967295, "scriptSig": {"hex": "483045022100b4ecd22c1eac59c9fff91bbe5c96b0915c6e3f4d2b42d0cae64e8fcde2d0f1d30220081db051b8d7f86cb5ffd39e9fff7908d6aa2069d07e2d532d5d3031f8a4f9160121023ec304cc132b96ca36e965ad1eba9d21092978f142dde9b398091373b26bd1d0", "asm": "3045022100b4ecd22c1eac59c9fff91bbe5c96b0915c6e3f4d2b42d0cae64e8fcde2d0f1d30220081db051b8d7f86cb5ffd39e9fff7908d6aa2069d07e2d532d5d3031f8a4f916[ALL] 023ec304cc132b96ca36e965ad1eba9d21092978f142dde9b398091373b26bd1d0"}, "vout": 1, "txid": "e54dc717c13fdf6750db9b5409f880ffc02b2feb626c9619218ca62f346c7d39"}], "txid": "a4cfed488b63ed94b9b6381ff22fdfe656c86b7593da363884a3f2a051516426", "blocktime": 1537872475, "version": 1, "confirmations": 11486, "time": 1537872475, "locktime": 0, "vsize": 224, "size": 224}