{"hash": "a4d529b95fa698cacfa547b5e6919ff58f9276328ca0df993d7bebd2d4720fed", "blockhash": "0000000000000000000baef3f32e3676a92c3b2e5da21b426e4f302fc371ce76", "vout": [{"scriptPubKey": {"reqSigs": 1, "hex": "a9147676db43fea61814cf0e2317b5e9b336054f8a2e87", "addresses": ["3CVQ3UUjD29fVRNRCSRd1jmJ4aSvm24CuY"], "asm": "OP_HASH160 7676db43fea61814cf0e2317b5e9b336054f8a2e OP_EQUAL", "type": "scripthash"}, "value": 0.413756, "n": 0}], "hex": "0100000001b35fa99f9379e3fdf3c442ec577f914cc76edbcc547d992bd04e24a983babfbd00000000fdfd0000483045022100d381c354074ae78c9187f5e5508ac23694fe08d6002bededce27f29295cd1889022027a87b3818ef7ab6a248e510625fca302c8b3da449c0a118fc9f507313148b790147304402202e1a23f1243c43d481b959caaa8661209b541348dda2c08195b913d5fcbc2cf7022024d0d8d8d52e78e64920c16e3a79516ee04226000c7f46f15059df135fe6216b014c69522102522907330e454912c77d2a2dd942d8e8963adbf22892b88f9d7fce10b051d0842103d848970b34b32cfe16155c953eca79cbaa5fd8441b5c184529d6cbf357952dd82102c6434ebd8727665b19bf6fd4cc61ffcbaf87d40cca45b11f1bcb438b3e65f14353aeffffffff01705777020000000017a9147676db43fea61814cf0e2317b5e9b336054f8a2e8718490800", "vin": [{"sequence": 4294967295, "scriptSig": {"hex": "00483045022100d381c354074ae78c9187f5e5508ac23694fe08d6002bededce27f29295cd1889022027a87b3818ef7ab6a248e510625fca302c8b3da449c0a118fc9f507313148b790147304402202e1a23f1243c43d481b959caaa8661209b541348dda2c08195b913d5fcbc2cf7022024d0d8d8d52e78e64920c16e3a79516ee04226000c7f46f15059df135fe6216b014c69522102522907330e454912c77d2a2dd942d8e8963adbf22892b88f9d7fce10b051d0842103d848970b34b32cfe16155c953eca79cbaa5fd8441b5c184529d6cbf357952dd82102c6434ebd8727665b19bf6fd4cc61ffcbaf87d40cca45b11f1bcb438b3e65f14353ae", "asm": "0 3045022100d381c354074ae78c9187f5e5508ac23694fe08d6002bededce27f29295cd1889022027a87b3818ef7ab6a248e510625fca302c8b3da449c0a118fc9f507313148b79[ALL] 304402202e1a23f1243c43d481b959caaa8661209b541348dda2c08195b913d5fcbc2cf7022024d0d8d8d52e78e64920c16e3a79516ee04226000c7f46f15059df135fe6216b[ALL] 522102522907330e454912c77d2a2dd942d8e8963adbf22892b88f9d7fce10b051d0842103d848970b34b32cfe16155c953eca79cbaa5fd8441b5c184529d6cbf357952dd82102c6434ebd8727665b19bf6fd4cc61ffcbaf87d40cca45b11f1bcb438b3e65f14353ae"}, "vout": 0, "txid": "bdbfba83a9244ed02b997d54ccdb6ec74c917f57ec42c4f3fde379939fa95fb3"}], "txid": "a4d529b95fa698cacfa547b5e6919ff58f9276328ca0df993d7bebd2d4720fed", "blocktime": 1537876114, "version": 1, "confirmations": 11460, "time": 1537876114, "locktime": 543000, "vsize": 338, "size": 338}