{"hash": "a4d70734cc2dabab85482f2cbb20e59d2c01f49954770ae43e54917f35c26dc6", "blockhash": "0000000000000000001e0dab787dd257d1dbfcb92a98c2207d5e1078be1f4165", "vout": [{"scriptPubKey": {"reqSigs": 1, "hex": "a914889bc9bd0a3944d360c310f41411bb5c913acd1587", "addresses": ["3E9LSyXvhXi7tGq63uYYjS3vkLSxEkpKqE"], "asm": "OP_HASH160 889bc9bd0a3944d360c310f41411bb5c913acd15 OP_EQUAL", "type": "scripthash"}, "value": 0.0025666, "n": 0}, {"scriptPubKey": {"reqSigs": 1, "hex": "76a9142ba6217f54de2d11c75fc815877215c32a1896b888ac", "addresses": ["14yo5DuPgyS75UcMXpGRxXdiPtwL9njYWs"], "asm": "OP_DUP OP_HASH160 2ba6217f54de2d11c75fc815877215c32a1896b8 OP_EQUALVERIFY OP_CHECKSIG", "type": "pubkeyhash"}, "value": 0.05591391, "n": 1}], "hex": "0100000001b8a86ae725018949bd722701b7e6d6d71b2d9a6b1cebf7e2821ed63cffae2b25010000006a47304402202f56c6787df4656d39164c5c1a55692c606fc8628caf2df1aadaddc263e2586202203c8a1c168568a217ac547d0999f3fd034dfbbfbc58f06a4ef422850c57708412012102e1cde2bb6c524b5bdf926aa4aa396261b41c4994fd59fa17e384a1047219c75effffffff0294ea03000000000017a914889bc9bd0a3944d360c310f41411bb5c913acd15875f515500000000001976a9142ba6217f54de2d11c75fc815877215c32a1896b888ac00000000", "vin": [{"sequence": 4294967295, "scriptSig": {"hex": "47304402202f56c6787df4656d39164c5c1a55692c606fc8628caf2df1aadaddc263e2586202203c8a1c168568a217ac547d0999f3fd034dfbbfbc58f06a4ef422850c57708412012102e1cde2bb6c524b5bdf926aa4aa396261b41c4994fd59fa17e384a1047219c75e", "asm": "304402202f56c6787df4656d39164c5c1a55692c606fc8628caf2df1aadaddc263e2586202203c8a1c168568a217ac547d0999f3fd034dfbbfbc58f06a4ef422850c57708412[ALL] 02e1cde2bb6c524b5bdf926aa4aa396261b41c4994fd59fa17e384a1047219c75e"}, "vout": 1, "txid": "252baeff3cd61e82e2f7eb1c6b9a2d1bd7d6e6b7012772bd49890125e76aa8b8"}], "txid": "a4d70734cc2dabab85482f2cbb20e59d2c01f49954770ae43e54917f35c26dc6", "blocktime": 1537872475, "version": 1, "confirmations": 11486, "time": 1537872475, "locktime": 0, "vsize": 223, "size": 223}