{"hash": "a4e0639e21758cfa21ba46068a142eead7ab3e220c9d0f63c008b0214544eb43", "blockhash": "0000000000000000001cda96e906b7601b7a6fb1a3b62bca570a9e5d8f4b3de1", "vout": [{"scriptPubKey": {"reqSigs": 1, "hex": "76a9143e13ff553d038b6b8015c86fbaee4dfe4517f5e488ac", "addresses": ["16fErLY1y43cyCx3EGZisjBS1AxMubsUF4"], "asm": "OP_DUP OP_HASH160 3e13ff553d038b6b8015c86fbaee4dfe4517f5e4 OP_EQUALVERIFY OP_CHECKSIG", "type": "pubkeyhash"}, "value": 0.03247417, "n": 0}, {"scriptPubKey": {"reqSigs": 1, "hex": "76a9145749b15b249d366dd5ba987da9a4e3370bf4cdaf88ac", "addresses": ["18xY4xN6CvZRK72Phxs49s3NpuNQVaCTy3"], "asm": "OP_DUP OP_HASH160 5749b15b249d366dd5ba987da9a4e3370bf4cdaf OP_EQUALVERIFY OP_CHECKSIG", "type": "pubkeyhash"}, "value": 0.0479396, "n": 1}], "hex": "0100000001bb06f65e44f46bc6a482d54547c7967889fa85278828dfe90ec25a2c07809269010000006b483045022100b382df5dc3ddfd8c72718e7a93f933cb8944426c105f28b3a0b867af27aeb9ad022007f7d5093ddb341e302720e0c19320069b3e06663b80b4492e4c4754e42f0f3f012103f37b52276ae7461f005acfbdfd8a17d1091dc00b614ac20e1e4ca595e354f116ffffffff02398d3100000000001976a9143e13ff553d038b6b8015c86fbaee4dfe4517f5e488ac68264900000000001976a9145749b15b249d366dd5ba987da9a4e3370bf4cdaf88ac00000000", "vin": [{"sequence": 4294967295, "scriptSig": {"hex": "483045022100b382df5dc3ddfd8c72718e7a93f933cb8944426c105f28b3a0b867af27aeb9ad022007f7d5093ddb341e302720e0c19320069b3e06663b80b4492e4c4754e42f0f3f012103f37b52276ae7461f005acfbdfd8a17d1091dc00b614ac20e1e4ca595e354f116", "asm": "3045022100b382df5dc3ddfd8c72718e7a93f933cb8944426c105f28b3a0b867af27aeb9ad022007f7d5093ddb341e302720e0c19320069b3e06663b80b4492e4c4754e42f0f3f[ALL] 03f37b52276ae7461f005acfbdfd8a17d1091dc00b614ac20e1e4ca595e354f116"}, "vout": 1, "txid": "699280072c5ac20ee9df28882785fa897896c74745d582a4c66bf4445ef606bb"}], "txid": "a4e0639e21758cfa21ba46068a142eead7ab3e220c9d0f63c008b0214544eb43", "blocktime": 1537873282, "version": 1, "confirmations": 11484, "time": 1537873282, "locktime": 0, "vsize": 226, "size": 226}