{"hash": "0e3598b71d4174069fce9b273e28e586e40e6aef648fd5d1ed2fb4d135088c3b", "blockhash": "00000000000000000018f53835495a110e01622372bf6ae95dc86f2b0ab887b0", "vout": [{"scriptPubKey": {"reqSigs": 1, "hex": "76a91464fa986d3bd76549bff71bd344b41f2a68af36ac88ac", "addresses": ["1ACvmrkoB6y6ikWtYUg2KRZurKPZUJDbtA"], "asm": "OP_DUP OP_HASH160 64fa986d3bd76549bff71bd344b41f2a68af36ac OP_EQUALVERIFY OP_CHECKSIG", "type": "pubkeyhash"}, "value": 0.012668, "n": 0}, {"scriptPubKey": {"reqSigs": 1, "hex": "a9146d1576b5d2b3d01550e62828544f48284e72231887", "addresses": ["3BdoHn5qdE7GPPxLbwHhxqbYGLx7THrGoM"], "asm": "OP_HASH160 6d1576b5d2b3d01550e62828544f48284e722318 OP_EQUAL", "type": "scripthash"}, "value": 0.284637, "n": 1}], "hex": "01000000000101d1042db0ec29d6c242015ac3a2698fbdb923bcfb619c8b8ae4d9dbf3ff47464000000000232200202e51df034d9336f8429e740303dc7f279b78f4180b209a2f01b742fe78ff7046ffffffff0270541300000000001976a91464fa986d3bd76549bff71bd344b41f2a68af36ac88ac5452b2010000000017a9146d1576b5d2b3d01550e62828544f48284e722318870400483045022100ff7470c5ea2cca7a85ed2c715aa2499e20ec750a83d02473f1031e473b4f3aa302205cc13f716d12fcb1be074634742e7eb454c94c225c8ba95ba9904254c6097e2501483045022100c01728010c783604895d2e9d5ba5761abd4ee5c561200b96f4214c9905069b130220654db1b6e15cdf202834eb019a6392934e9a2bdd5f8a748ed0cce54c193f21b8016952210293b747e042c70f5e76fea58799daa0739198d395546c922b200196875c481bb72102dc16e04b2cfa1431611a29e8dd6a670a5f7dd9b9b704a9e21a315bee683695ca2103ec495fb2d955914eb7ba663b0a5cbb63acf276f86a3df7b0f179372f9b52fe3d53ae00000000", "vin": [{"txinwitness": ["", "3045022100ff7470c5ea2cca7a85ed2c715aa2499e20ec750a83d02473f1031e473b4f3aa302205cc13f716d12fcb1be074634742e7eb454c94c225c8ba95ba9904254c6097e2501", "3045022100c01728010c783604895d2e9d5ba5761abd4ee5c561200b96f4214c9905069b130220654db1b6e15cdf202834eb019a6392934e9a2bdd5f8a748ed0cce54c193f21b801", "52210293b747e042c70f5e76fea58799daa0739198d395546c922b200196875c481bb72102dc16e04b2cfa1431611a29e8dd6a670a5f7dd9b9b704a9e21a315bee683695ca2103ec495fb2d955914eb7ba663b0a5cbb63acf276f86a3df7b0f179372f9b52fe3d53ae"], "sequence": 4294967295, "scriptSig": {"hex": "2200202e51df034d9336f8429e740303dc7f279b78f4180b209a2f01b742fe78ff7046", "asm": "00202e51df034d9336f8429e740303dc7f279b78f4180b209a2f01b742fe78ff7046"}, "vout": 0, "txid": "404647fff3dbd9e48a8b9c61fbbc23b9bd8f69a2c35a0142c2d629ecb02d04d1"}], "txid": "a4e25fbe32324dfc798cd623a08643705d775e216e029cb2e88a09c60f9d5f4f", "blocktime": 1537870928, "version": 1, "confirmations": 11514, "time": 1537870928, "locktime": 0, "vsize": 216, "size": 408}