{"hash": "a4e493e7b41a589cd880c3be7b46f74a9efc3164bb75c33a3ebec5d5ff6b44aa", "blockhash": "0000000000000000001cda96e906b7601b7a6fb1a3b62bca570a9e5d8f4b3de1", "vout": [{"scriptPubKey": {"reqSigs": 1, "hex": "76a9144a795887f48557ce8a2b4d8b6170ae473cc7305d88ac", "addresses": ["17nnNTAfNhUTRRZiqaCHGWoAuHmjZ7CcPs"], "asm": "OP_DUP OP_HASH160 4a795887f48557ce8a2b4d8b6170ae473cc7305d OP_EQUALVERIFY OP_CHECKSIG", "type": "pubkeyhash"}, "value": 0.01645004, "n": 0}, {"scriptPubKey": {"reqSigs": 1, "hex": "76a914e1df6fb4d2435fa4a7580d981add15b5a39a031c88ac", "addresses": ["1MbJhnvdx7tMKiG9d4117tYKgmSXpKgjog"], "asm": "OP_DUP OP_HASH160 e1df6fb4d2435fa4a7580d981add15b5a39a031c OP_EQUALVERIFY OP_CHECKSIG", "type": "pubkeyhash"}, "value": 0.00013, "n": 1}], "hex": "0100000001669294d61fabec9d744479c30c749330f23083ac654550404932fcd40831ee4c010000006a47304402200add152457bc5f37e805231000c2900c2a2142181697c37c0b9f275cf8b012f6022029982881f3cf7f4449e9e61333d1e0ded2a4053861680c50899208f56a6b01fe012103868ec135443990d01c7390c4e8ae8024b4aff8fdc39d6db4676775a45dcc7231feffffff02cc191900000000001976a9144a795887f48557ce8a2b4d8b6170ae473cc7305d88acc8320000000000001976a914e1df6fb4d2435fa4a7580d981add15b5a39a031c88ac12490800", "vin": [{"sequence": 4294967294, "scriptSig": {"hex": "47304402200add152457bc5f37e805231000c2900c2a2142181697c37c0b9f275cf8b012f6022029982881f3cf7f4449e9e61333d1e0ded2a4053861680c50899208f56a6b01fe012103868ec135443990d01c7390c4e8ae8024b4aff8fdc39d6db4676775a45dcc7231", "asm": "304402200add152457bc5f37e805231000c2900c2a2142181697c37c0b9f275cf8b012f6022029982881f3cf7f4449e9e61333d1e0ded2a4053861680c50899208f56a6b01fe[ALL] 03868ec135443990d01c7390c4e8ae8024b4aff8fdc39d6db4676775a45dcc7231"}, "vout": 1, "txid": "4cee3108d4fc324940504565ac8330f23093740cc37944749decab1fd6949266"}], "txid": "a4e493e7b41a589cd880c3be7b46f74a9efc3164bb75c33a3ebec5d5ff6b44aa", "blocktime": 1537873282, "version": 1, "confirmations": 11480, "time": 1537873282, "locktime": 542994, "vsize": 225, "size": 225}