{"hash": "a4e6e3002e358b2d9bee331e67352432b1208170b908cfcb4f7dab74b4b19b66", "blockhash": "000000000000000000022b45ed06c6f4ccd3cf7fb5ba4856ebd2e58215665228", "vout": [{"scriptPubKey": {"reqSigs": 1, "hex": "a91487bb26863564bab83061017e4eee90421180c17f87", "addresses": ["3E4hLtFsmymCXsTwAdTuXE8yqU9ajgHk7i"], "asm": "OP_HASH160 87bb26863564bab83061017e4eee90421180c17f OP_EQUAL", "type": "scripthash"}, "value": 0.5, "n": 0}, {"scriptPubKey": {"reqSigs": 1, "hex": "76a914d4ae5e3300d474be3b121e70f383077875d36b1b88ac", "addresses": ["1LPZ8y4zfMpVZJPLQHQsY6h2xQ51LX8Exb"], "asm": "OP_DUP OP_HASH160 d4ae5e3300d474be3b121e70f383077875d36b1b OP_EQUALVERIFY OP_CHECKSIG", "type": "pubkeyhash"}, "value": 0.10595513, "n": 1}], "hex": "0100000002f49f7bb123cba6337d8733d6c98500dc50230726aa87d5b6ed805f46ac41ae15010000006a4730440220281a05f6aa999d917725fc2881a43d01d7a041cb799bfffbd28167ee94021fbb0220419efe9fd9fc59fc2547708b88dfee8948e5a39d218a201a90a0eddca2068eb70121024a0d437d0936906cf50fd68904b9eb3cbadfc93c5ef8c3b7242a0698fcfd0cd1ffffffffcd2887eb2907ef585fa90708d228e7e850632bcd94a4371963f5958c832cd660010000006b483045022100d2e67f0ff9271f029095fd8b33ae91ff0e1873b049dc29aaa502b51abeb35c05022006b6f9b6c68ce0a74aedf6c8ce6eba1d34084105dce3aeabadd88c81bbe6e9a40121024a0d437d0936906cf50fd68904b9eb3cbadfc93c5ef8c3b7242a0698fcfd0cd1ffffffff0280f0fa020000000017a91487bb26863564bab83061017e4eee90421180c17f87b9aca100000000001976a914d4ae5e3300d474be3b121e70f383077875d36b1b88ac00000000", "vin": [{"sequence": 4294967295, "scriptSig": {"hex": "4730440220281a05f6aa999d917725fc2881a43d01d7a041cb799bfffbd28167ee94021fbb0220419efe9fd9fc59fc2547708b88dfee8948e5a39d218a201a90a0eddca2068eb70121024a0d437d0936906cf50fd68904b9eb3cbadfc93c5ef8c3b7242a0698fcfd0cd1", "asm": "30440220281a05f6aa999d917725fc2881a43d01d7a041cb799bfffbd28167ee94021fbb0220419efe9fd9fc59fc2547708b88dfee8948e5a39d218a201a90a0eddca2068eb7[ALL] 024a0d437d0936906cf50fd68904b9eb3cbadfc93c5ef8c3b7242a0698fcfd0cd1"}, "vout": 1, "txid": "15ae41ac465f80edb6d587aa26072350dc0085c9d633877d33a6cb23b17b9ff4"}, {"sequence": 4294967295, "scriptSig": {"hex": "483045022100d2e67f0ff9271f029095fd8b33ae91ff0e1873b049dc29aaa502b51abeb35c05022006b6f9b6c68ce0a74aedf6c8ce6eba1d34084105dce3aeabadd88c81bbe6e9a40121024a0d437d0936906cf50fd68904b9eb3cbadfc93c5ef8c3b7242a0698fcfd0cd1", "asm": "3045022100d2e67f0ff9271f029095fd8b33ae91ff0e1873b049dc29aaa502b51abeb35c05022006b6f9b6c68ce0a74aedf6c8ce6eba1d34084105dce3aeabadd88c81bbe6e9a4[ALL] 024a0d437d0936906cf50fd68904b9eb3cbadfc93c5ef8c3b7242a0698fcfd0cd1"}, "vout": 1, "txid": "60d62c838c95f5631937a494cd2b6350e8e728d20807a95f58ef0729eb8728cd"}], "txid": "a4e6e3002e358b2d9bee331e67352432b1208170b908cfcb4f7dab74b4b19b66", "blocktime": 1537869901, "version": 1, "confirmations": 11522, "time": 1537869901, "locktime": 0, "vsize": 371, "size": 371}