{"hash": "75b7a6d82c9693c45f79b1749953fa8c32fff6d16c90c0b966ff3def2b11cedf", "blockhash": "0000000000000000000dcc0f55137456b1a82d3642486a52398922ac4d620174", "vout": [{"scriptPubKey": {"reqSigs": 1, "hex": "76a91444590e4dfe4497d066b654648dcdd3aee54e4c8488ac", "addresses": ["17EPdkou9x3TQnvvxFLUXNm5TdDeTMfp72"], "asm": "OP_DUP OP_HASH160 44590e4dfe4497d066b654648dcdd3aee54e4c84 OP_EQUALVERIFY OP_CHECKSIG", "type": "pubkeyhash"}, "value": 0.00129741, "n": 0}, {"scriptPubKey": {"reqSigs": 1, "hex": "a914bd6ede765b044be19581548f5186356b80614de087", "addresses": ["3JxeT7URZmmdK7fYzq7yFqVW3Ei3nsfjaV"], "asm": "OP_HASH160 bd6ede765b044be19581548f5186356b80614de0 OP_EQUAL", "type": "scripthash"}, "value": 0.01320295, "n": 1}], "hex": "02000000000102127c974a84ffce33b10071712495c145f074034d66f063d1b97e9fa8cb53f0f10000000017160014ff655b95bde064345be7b5ab86f260f6ea76a9a9fdffffffa200879fc200c1ae3ca7cb9a9cca46bec1ffb2516c74a9282813cbd6b1276a0f5d000000171600147acbd71d0e42dbacad00e7627d885183c8d91891fdffffff02cdfa0100000000001976a91444590e4dfe4497d066b654648dcdd3aee54e4c8488ac672514000000000017a914bd6ede765b044be19581548f5186356b80614de08702483045022100bfb36c5b3c4364eef260dff95ce871e4287d0b3ab4e0a72e4ae0f8a6a3926295022005432db093e5a2de64f73d34cad1db46b1082283a3eed29d8f5ed2002ec560b4012102082e68256fa76551bd1b0a55e4414e9aafa312d41828a88a033a66f6ba5981a902483045022100d3a8d7904379cfc04f8b798f2050ac756294dc2a56012c0696a1f0e562d95e0a02206ab0d8cf104f107627dd543700659b6e444588857e71067940c6edf2195dce5b012102a5fcd28982ba672ddd3cd7ac9f0053660562b598fa0f65825261d48e9403e3650c490800", "vin": [{"txinwitness": ["3045022100bfb36c5b3c4364eef260dff95ce871e4287d0b3ab4e0a72e4ae0f8a6a3926295022005432db093e5a2de64f73d34cad1db46b1082283a3eed29d8f5ed2002ec560b401", "02082e68256fa76551bd1b0a55e4414e9aafa312d41828a88a033a66f6ba5981a9"], "sequence": 4294967293, "scriptSig": {"hex": "160014ff655b95bde064345be7b5ab86f260f6ea76a9a9", "asm": "0014ff655b95bde064345be7b5ab86f260f6ea76a9a9"}, "vout": 0, "txid": "f1f053cba89f7eb9d163f0664d0374f045c19524717100b133ceff844a977c12"}, {"txinwitness": ["3045022100d3a8d7904379cfc04f8b798f2050ac756294dc2a56012c0696a1f0e562d95e0a02206ab0d8cf104f107627dd543700659b6e444588857e71067940c6edf2195dce5b01", "02a5fcd28982ba672ddd3cd7ac9f0053660562b598fa0f65825261d48e9403e365"], "sequence": 4294967293, "scriptSig": {"hex": "1600147acbd71d0e42dbacad00e7627d885183c8d91891", "asm": "00147acbd71d0e42dbacad00e7627d885183c8d91891"}, "vout": 93, "txid": "0f6a27b1d6cb132828a9746c51b2ffc1be46ca9c9acba73caec100c29f8700a2"}], "txid": "a4ec2428ec21eb0574a812a7074b9142eb042d989ef3908b53752d0284ce64c4", "blocktime": 1537870268, "version": 2, "confirmations": 11520, "time": 1537870268, "locktime": 542988, "vsize": 259, "size": 422}