{"hash": "a4ed15bdd171341b745e8fd4d98955373a2817944317c8b9f6e163a0a6e4023b", "blockhash": "0000000000000000000dcc0f55137456b1a82d3642486a52398922ac4d620174", "vout": [{"scriptPubKey": {"reqSigs": 1, "hex": "76a914b400903c40003ce6263ff2483a32829852f7d80688ac", "addresses": ["1HQmJgEsdNchFeWFjqwNPyx51ndWhpWsgW"], "asm": "OP_DUP OP_HASH160 b400903c40003ce6263ff2483a32829852f7d806 OP_EQUALVERIFY OP_CHECKSIG", "type": "pubkeyhash"}, "value": 0.1042, "n": 0}, {"scriptPubKey": {"reqSigs": 1, "hex": "76a914c6d85c6b96ca1f02517f8fd4b51aa90de3bd71da88ac", "addresses": ["1K8Pz1YeisbWVqAojVnRyy8KHAtzvgdxzr"], "asm": "OP_DUP OP_HASH160 c6d85c6b96ca1f02517f8fd4b51aa90de3bd71da OP_EQUALVERIFY OP_CHECKSIG", "type": "pubkeyhash"}, "value": 0.13190171, "n": 1}], "hex": "010000000155cfa9a03480d675cc08781429a84d332fdb6829067cd722c1cb01f460198549010000006b4830450221009a17d8646c82e79b0e1bfeb4ee1d181625d8fcfc914a4c13cf96871edbf76f0302205c4745ee5204e6a5bc3937c48a10c42ece5b9981ec0b1185ed85777b77f7457d0121036fbcf4fd2c5e44f2b5781e7511b6c939b4a29c81f141c3ca272c20086b3fa8a3ffffffff0220ff9e00000000001976a914b400903c40003ce6263ff2483a32829852f7d80688ac1b44c900000000001976a914c6d85c6b96ca1f02517f8fd4b51aa90de3bd71da88ac00000000", "vin": [{"sequence": 4294967295, "scriptSig": {"hex": "4830450221009a17d8646c82e79b0e1bfeb4ee1d181625d8fcfc914a4c13cf96871edbf76f0302205c4745ee5204e6a5bc3937c48a10c42ece5b9981ec0b1185ed85777b77f7457d0121036fbcf4fd2c5e44f2b5781e7511b6c939b4a29c81f141c3ca272c20086b3fa8a3", "asm": "30450221009a17d8646c82e79b0e1bfeb4ee1d181625d8fcfc914a4c13cf96871edbf76f0302205c4745ee5204e6a5bc3937c48a10c42ece5b9981ec0b1185ed85777b77f7457d[ALL] 036fbcf4fd2c5e44f2b5781e7511b6c939b4a29c81f141c3ca272c20086b3fa8a3"}, "vout": 1, "txid": "49851960f401cbc122d77c062968db2f334da829147808cc75d68034a0a9cf55"}], "txid": "a4ed15bdd171341b745e8fd4d98955373a2817944317c8b9f6e163a0a6e4023b", "blocktime": 1537870268, "version": 1, "confirmations": 11516, "time": 1537870268, "locktime": 0, "vsize": 226, "size": 226}