{"hash": "a4f2ddfb4252cd842e2cdcb7bf6e94ec314f47c07b506bac5410d347a311190e", "blockhash": "00000000000000000017f5eb5941039fbcee6240d03bc1f2f8e35350df66a1d8", "vout": [{"scriptPubKey": {"reqSigs": 1, "hex": "76a9142a40aaefe80738c49d189a4e62fbd3c21a3aa4d388ac", "addresses": ["14rQrFSpeiLVkBbSCzSyS5DnqsWpoE2GWM"], "asm": "OP_DUP OP_HASH160 2a40aaefe80738c49d189a4e62fbd3c21a3aa4d3 OP_EQUALVERIFY OP_CHECKSIG", "type": "pubkeyhash"}, "value": 0.02, "n": 0}, {"scriptPubKey": {"reqSigs": 1, "hex": "76a914f6eb09275f8a4bac94799304d06f5b6dacc3380988ac", "addresses": ["1PWanm8vcYdS9gzHMnb27JWFBw5bKAhZ82"], "asm": "OP_DUP OP_HASH160 f6eb09275f8a4bac94799304d06f5b6dacc33809 OP_EQUALVERIFY OP_CHECKSIG", "type": "pubkeyhash"}, "value": 0.08179427, "n": 1}], "hex": "010000000168fddf0ec3b4432b8e61a263949fc08dd5d6833044dac08f762ee7a557db7f30000000006a473044022050df14d980381a9ae908854972a584b5815fc19121cd39bcd845921f1154f7f9022015274de950f17874bfd8aed48f2c6dbd315106a0c97b2758b8d1a2e5fc7ded900121027308f08f1a17130483670296a9b6ee01691c94525212e635329f552fb9e3f035ffffffff0280841e00000000001976a9142a40aaefe80738c49d189a4e62fbd3c21a3aa4d388ace3ce7c00000000001976a914f6eb09275f8a4bac94799304d06f5b6dacc3380988ac00000000", "vin": [{"sequence": 4294967295, "scriptSig": {"hex": "473044022050df14d980381a9ae908854972a584b5815fc19121cd39bcd845921f1154f7f9022015274de950f17874bfd8aed48f2c6dbd315106a0c97b2758b8d1a2e5fc7ded900121027308f08f1a17130483670296a9b6ee01691c94525212e635329f552fb9e3f035", "asm": "3044022050df14d980381a9ae908854972a584b5815fc19121cd39bcd845921f1154f7f9022015274de950f17874bfd8aed48f2c6dbd315106a0c97b2758b8d1a2e5fc7ded90[ALL] 027308f08f1a17130483670296a9b6ee01691c94525212e635329f552fb9e3f035"}, "vout": 0, "txid": "307fdb57a5e72e768fc0da443083d6d58dc09f9463a2618e2b43b4c30edffd68"}], "txid": "a4f2ddfb4252cd842e2cdcb7bf6e94ec314f47c07b506bac5410d347a311190e", "blocktime": 1537874412, "version": 1, "confirmations": 11468, "time": 1537874412, "locktime": 0, "vsize": 225, "size": 225}