{"hash": "9850e07adf11a4556e054f6a6ee4feed157327ba8b68f1adb5a1a2d98ea44ef3", "blockhash": "0000000000000000001f76057863aec43deb6fa401d9628bb513d65a8098bfab", "vout": [{"scriptPubKey": {"reqSigs": 1, "hex": "76a914d02ad43177d2a9ae3317cea562724a7b5d6e542888ac", "addresses": ["1KygrhoTnyhK6ZbZ25nxSHXpnBaptbEa96"], "asm": "OP_DUP OP_HASH160 d02ad43177d2a9ae3317cea562724a7b5d6e5428 OP_EQUALVERIFY OP_CHECKSIG", "type": "pubkeyhash"}, "value": 0.06068, "n": 0}, {"scriptPubKey": {"reqSigs": 1, "hex": "a9140c54f418c67f6428670a594c0ae6ef9b6dc644fb87", "addresses": ["32pDoX2nzS1udBKLoPVsWNzuuZ9ucvsZot"], "asm": "OP_HASH160 0c54f418c67f6428670a594c0ae6ef9b6dc644fb OP_EQUAL", "type": "scripthash"}, "value": 0.60304242, "n": 1}], "hex": "01000000000102470730eb1d1560c07113a2b35e6a99f4c27c1d08b6606800ea3357b1b376bd9704000000232200200f803f685ccffb4101c4707dfdcb72d55ed7be7f2811a511a955dab1bf31372fffffffffbb7a5fdde41813cd23d00928ab6728cfde851ffbc26a39a62dad175b1cedafcd01000000232200209e9da6891fa95d32e450594cd220706e7ae21de4b263650083984ffd27c02864ffffffff0220975c00000000001976a914d02ad43177d2a9ae3317cea562724a7b5d6e542888ac722b98030000000017a9140c54f418c67f6428670a594c0ae6ef9b6dc644fb87040047304402206c0f90a3f85bfa5d7bee62923191aea1fa06227400e96e4fa99bf6dc9252dd6802206d46cd1b6cb5847001c7f38687822c711dc60f1828379f18e782f49773dc6a1c014730440220136c49bd77c89718b2cb6f6dccf4a8b76d12e45b6f0b6b9f175aeaa42b2a3ead0220630d76bfd1f77f1c7190b6c14ac38949927c6f545c7591a4a372fae022e8eab40147522103e2f505e658b3c5cedb0ddf616706fa9fb3bdcbfe5fbb729000577c813dedbea32103d9d2be3f5a20e2bda8a215b3765d46030eae17d676a304cec3e22e5fcb12136f52ae04004730440220158f086494dac84b53af72a18b595e599d4dbdca64f2c31c2980bbafa7f1982b0220060789f5d0a01d1637ef595d70a33ca47fee91beab76397f8b54a852fde5a1eb01483045022100e1be15e73024e44c930679748b2922a4a6b04f88dd63e6e4515e57f7cc20673a02204020159574ce37adad24a429d9ba940e0e03612c6b03379f4643a8442c420a03014752210248e0a896ac9c991f101c01d620d5c4c1cbd328bc1fe3e9bc1c16537b8779371b2103d9d2be3f5a20e2bda8a215b3765d46030eae17d676a304cec3e22e5fcb12136f52ae00000000", "vin": [{"txinwitness": ["", "304402206c0f90a3f85bfa5d7bee62923191aea1fa06227400e96e4fa99bf6dc9252dd6802206d46cd1b6cb5847001c7f38687822c711dc60f1828379f18e782f49773dc6a1c01", "30440220136c49bd77c89718b2cb6f6dccf4a8b76d12e45b6f0b6b9f175aeaa42b2a3ead0220630d76bfd1f77f1c7190b6c14ac38949927c6f545c7591a4a372fae022e8eab401", "522103e2f505e658b3c5cedb0ddf616706fa9fb3bdcbfe5fbb729000577c813dedbea32103d9d2be3f5a20e2bda8a215b3765d46030eae17d676a304cec3e22e5fcb12136f52ae"], "sequence": 4294967295, "scriptSig": {"hex": "2200200f803f685ccffb4101c4707dfdcb72d55ed7be7f2811a511a955dab1bf31372f", "asm": "00200f803f685ccffb4101c4707dfdcb72d55ed7be7f2811a511a955dab1bf31372f"}, "vout": 4, "txid": "97bd76b3b15733ea006860b6081d7cc2f4996a5eb3a21371c060151deb300747"}, {"txinwitness": ["", "30440220158f086494dac84b53af72a18b595e599d4dbdca64f2c31c2980bbafa7f1982b0220060789f5d0a01d1637ef595d70a33ca47fee91beab76397f8b54a852fde5a1eb01", "3045022100e1be15e73024e44c930679748b2922a4a6b04f88dd63e6e4515e57f7cc20673a02204020159574ce37adad24a429d9ba940e0e03612c6b03379f4643a8442c420a0301", "52210248e0a896ac9c991f101c01d620d5c4c1cbd328bc1fe3e9bc1c16537b8779371b2103d9d2be3f5a20e2bda8a215b3765d46030eae17d676a304cec3e22e5fcb12136f52ae"], "sequence": 4294967295, "scriptSig": {"hex": "2200209e9da6891fa95d32e450594cd220706e7ae21de4b263650083984ffd27c02864", "asm": "00209e9da6891fa95d32e450594cd220706e7ae21de4b263650083984ffd27c02864"}, "vout": 1, "txid": "cdafed1c5b17ad2da6396ac2fb1f85decf2867ab2809d023cd1318e4dd5f7abb"}], "txid": "a4f6b0fdc3608401959cfcab7a34eb03b727e7ce0bc768e81bb04e90fd53fb7e", "blocktime": 1537873891, "version": 1, "confirmations": 11478, "time": 1537873891, "locktime": 0, "vsize": 338, "size": 667}