{"hash": "a4f9e085c9e51325856ba959b42522fe310ee6ee42229b55964e9d6854577ca3", "blockhash": "0000000000000000001cda96e906b7601b7a6fb1a3b62bca570a9e5d8f4b3de1", "vout": [{"scriptPubKey": {"reqSigs": 1, "hex": "a9143e6f15908582f42917ec31e39bf8722fc9d5db3f87", "addresses": ["37P8thrtDXb6Di5E7f4FL3bpzum3fhUvT7"], "asm": "OP_HASH160 3e6f15908582f42917ec31e39bf8722fc9d5db3f OP_EQUAL", "type": "scripthash"}, "value": 0.0002, "n": 0}, {"scriptPubKey": {"reqSigs": 1, "hex": "76a9141a7eff89c572a41bb7788df66923a3b55e600c9388ac", "addresses": ["13R6hyfS7cJGmofqagdx1Vgv8YQWmSmjC7"], "asm": "OP_DUP OP_HASH160 1a7eff89c572a41bb7788df66923a3b55e600c93 OP_EQUALVERIFY OP_CHECKSIG", "type": "pubkeyhash"}, "value": 0.00287948, "n": 1}], "hex": "0100000001eff7c4223854e004e72e4e8f3dfaf971186c8ac127e3e733b262e9ae31943261000000006a47304402203075a33b7b4c2b83ffaf9e0697e2d3947bb3762001fb5d7d024d1c491ffb8cdd022076b2c84f3daa2cd8295812523f4b3325b8d1aba0b0951a9e4e3659ef5cda9eb201210319654359fb9b3caff9c2bb404b8e69ee8c673b03db333448a3a8018d21f7c021ffffffff02204e00000000000017a9143e6f15908582f42917ec31e39bf8722fc9d5db3f87cc640400000000001976a9141a7eff89c572a41bb7788df66923a3b55e600c9388ac00000000", "vin": [{"sequence": 4294967295, "scriptSig": {"hex": "47304402203075a33b7b4c2b83ffaf9e0697e2d3947bb3762001fb5d7d024d1c491ffb8cdd022076b2c84f3daa2cd8295812523f4b3325b8d1aba0b0951a9e4e3659ef5cda9eb201210319654359fb9b3caff9c2bb404b8e69ee8c673b03db333448a3a8018d21f7c021", "asm": "304402203075a33b7b4c2b83ffaf9e0697e2d3947bb3762001fb5d7d024d1c491ffb8cdd022076b2c84f3daa2cd8295812523f4b3325b8d1aba0b0951a9e4e3659ef5cda9eb2[ALL] 0319654359fb9b3caff9c2bb404b8e69ee8c673b03db333448a3a8018d21f7c021"}, "vout": 0, "txid": "61329431aee962b233e7e327c18a6c1871f9fa3d8f4e2ee704e0543822c4f7ef"}], "txid": "a4f9e085c9e51325856ba959b42522fe310ee6ee42229b55964e9d6854577ca3", "blocktime": 1537873282, "version": 1, "confirmations": 11481, "time": 1537873282, "locktime": 0, "vsize": 223, "size": 223}