{"hash": "a4fcb9acf792c03afc0508501c0b378a3e8d17c38f4ad50e1a5529ffbb4a1cba", "blockhash": "0000000000000000001f76057863aec43deb6fa401d9628bb513d65a8098bfab", "vout": [{"scriptPubKey": {"reqSigs": 1, "hex": "76a914c453486e61aba4f4eeb01784827ee5f7f7774d1a88ac", "addresses": ["1Ju5DCWhKb5PSm1ZdZZaFKgVq18kf2ZawF"], "asm": "OP_DUP OP_HASH160 c453486e61aba4f4eeb01784827ee5f7f7774d1a OP_EQUALVERIFY OP_CHECKSIG", "type": "pubkeyhash"}, "value": 0.00152245, "n": 0}], "hex": "0100000001a84fedb032df7fe15071deaf78cea40d81903d40abe6c535f68b3f57f4df5350000000006a47304402202e15245b3db50d07822d425953ac13274a361fc38473c914a68a32e48f6eda4902206499cd61d2df7fad53a145c26a55f44da79121b730ad1fa6918f63e0eb1b3a1701210281703b23bc92d1243045a186b3cc874d537c3b63d070283dbad9debee97f8cd1ffffffff01b5520200000000001976a914c453486e61aba4f4eeb01784827ee5f7f7774d1a88ac00000000", "vin": [{"sequence": 4294967295, "scriptSig": {"hex": "47304402202e15245b3db50d07822d425953ac13274a361fc38473c914a68a32e48f6eda4902206499cd61d2df7fad53a145c26a55f44da79121b730ad1fa6918f63e0eb1b3a1701210281703b23bc92d1243045a186b3cc874d537c3b63d070283dbad9debee97f8cd1", "asm": "304402202e15245b3db50d07822d425953ac13274a361fc38473c914a68a32e48f6eda4902206499cd61d2df7fad53a145c26a55f44da79121b730ad1fa6918f63e0eb1b3a17[ALL] 0281703b23bc92d1243045a186b3cc874d537c3b63d070283dbad9debee97f8cd1"}, "vout": 0, "txid": "5053dff4573f8bf635c5e6ab403d90810da4ce78afde7150e17fdf32b0ed4fa8"}], "txid": "a4fcb9acf792c03afc0508501c0b378a3e8d17c38f4ad50e1a5529ffbb4a1cba", "blocktime": 1537873891, "version": 1, "confirmations": 11478, "time": 1537873891, "locktime": 0, "vsize": 191, "size": 191}