{"hash": "4bb7981cb2b680912a3d5e40a0ae53ade626f711cb673d09310c4fa11a792fc6", "blockhash": "00000000000000000018f53835495a110e01622372bf6ae95dc86f2b0ab887b0", "vout": [{"scriptPubKey": {"reqSigs": 1, "hex": "a91430897cc6c9d69f6a2c2f1c651d51f22219f1a4f687", "addresses": ["367f4YWz1VCFaqBqwbTrzwi2b1h2U3w1AF"], "asm": "OP_HASH160 30897cc6c9d69f6a2c2f1c651d51f22219f1a4f6 OP_EQUAL", "type": "scripthash"}, "value": 1.72884179, "n": 0}, {"scriptPubKey": {"reqSigs": 1, "hex": "a91469f375d0a4062129239f870e226a9b1ffb43a44387", "addresses": ["3BMEXbehsKHMbWLGobqpRJsLcQAgnn1RVZ"], "asm": "OP_HASH160 69f375d0a4062129239f870e226a9b1ffb43a443 OP_EQUAL", "type": "scripthash"}, "value": 1.36887568, "n": 1}], "hex": "01000000000101852282a794ce7a16dfbb18355230472e3cbfd4b783d095c1ed2deecc7fcb0a950000000023220020bcf9f822194145acea0f3235f4107b5bf1a91b6b9f8489f63bf79ec29b360913ffffffff02d3004e0a0000000017a91430897cc6c9d69f6a2c2f1c651d51f22219f1a4f68710bd28080000000017a91469f375d0a4062129239f870e226a9b1ffb43a443870400483045022100e88fc2e631a58bae1566b5e1b590f308770c65b3d187857aef45d88e2dbaf4a302206b623081c99765244f8b5acc42c734d342ef55872641bce45117377709a885f6014830450221009681102454d9d5f3b508f3764d4cda4e47907400166d8931613551a60c48deeb0220518e64bb0337d63da922b6495fd0f19ef711e9bc9b4b533945e342174f9dad4001695221026c8f72b9e63db63907115e65d4da86eaae595b22fdc85ec75301bb4adbf203582103806535be3e3920e5eedee92de5714188fd6a784f2bf7b04f87de0b9c3ae1ecdb21024b23bfdce2afcae7e28c42f7f79aa100f22931712c52d7414a526ba494d44a2553ae00000000", "vin": [{"txinwitness": ["", "3045022100e88fc2e631a58bae1566b5e1b590f308770c65b3d187857aef45d88e2dbaf4a302206b623081c99765244f8b5acc42c734d342ef55872641bce45117377709a885f601", "30450221009681102454d9d5f3b508f3764d4cda4e47907400166d8931613551a60c48deeb0220518e64bb0337d63da922b6495fd0f19ef711e9bc9b4b533945e342174f9dad4001", "5221026c8f72b9e63db63907115e65d4da86eaae595b22fdc85ec75301bb4adbf203582103806535be3e3920e5eedee92de5714188fd6a784f2bf7b04f87de0b9c3ae1ecdb21024b23bfdce2afcae7e28c42f7f79aa100f22931712c52d7414a526ba494d44a2553ae"], "sequence": 4294967295, "scriptSig": {"hex": "220020bcf9f822194145acea0f3235f4107b5bf1a91b6b9f8489f63bf79ec29b360913", "asm": "0020bcf9f822194145acea0f3235f4107b5bf1a91b6b9f8489f63bf79ec29b360913"}, "vout": 0, "txid": "950acb7fccee2dedc195d083b7d4bf3c2e4730523518bbdf167ace94a7822285"}], "txid": "a500ef38e2abf472a21ef7f19cd4096dec16b4e2190be358e53f3f600abcab77", "blocktime": 1537870928, "version": 1, "confirmations": 11512, "time": 1537870928, "locktime": 0, "vsize": 214, "size": 406}