{"hash": "a504ba322639e32426f2b65fb2def9c9ec1b3fabc407af3a96ef1351bd0f57f5", "blockhash": "0000000000000000001cda96e906b7601b7a6fb1a3b62bca570a9e5d8f4b3de1", "vout": [{"scriptPubKey": {"reqSigs": 1, "hex": "76a914fdf8d65bea1ce2266653609546c848cc4f18434a88ac", "addresses": ["1Q9t44AdFYozHKugg2ntcKnEAREDJCdY8b"], "asm": "OP_DUP OP_HASH160 fdf8d65bea1ce2266653609546c848cc4f18434a OP_EQUALVERIFY OP_CHECKSIG", "type": "pubkeyhash"}, "value": 1.041e-05, "n": 0}, {"scriptPubKey": {"reqSigs": 1, "hex": "a91475eadfd55b728d73b2682aa235a79d7b564c94be87", "addresses": ["3CSWMLtoS2dqzgU6GnVMTR8NJMzLJWjU5A"], "asm": "OP_HASH160 75eadfd55b728d73b2682aa235a79d7b564c94be OP_EQUAL", "type": "scripthash"}, "value": 0.00156352, "n": 1}], "hex": "0100000001820c82395920937fc4d8d1cc728c957abb2e10d4c83798866a4dd93616e92d14000000006a47304402201db512cb4a089787bea9530d49f4f626677d678f924aa71b8f6cc89a7bd5d174022053bdc6f1c1949462f3e8ab70835ba2642acab414c435db21127b4edce223df58012103a0516806d3291a200d5659e1b644a768f16c86eb7b8ab1a256476640f92fa68affffffff0211040000000000001976a914fdf8d65bea1ce2266653609546c848cc4f18434a88acc06202000000000017a91475eadfd55b728d73b2682aa235a79d7b564c94be8700000000", "vin": [{"sequence": 4294967295, "scriptSig": {"hex": "47304402201db512cb4a089787bea9530d49f4f626677d678f924aa71b8f6cc89a7bd5d174022053bdc6f1c1949462f3e8ab70835ba2642acab414c435db21127b4edce223df58012103a0516806d3291a200d5659e1b644a768f16c86eb7b8ab1a256476640f92fa68a", "asm": "304402201db512cb4a089787bea9530d49f4f626677d678f924aa71b8f6cc89a7bd5d174022053bdc6f1c1949462f3e8ab70835ba2642acab414c435db21127b4edce223df58[ALL] 03a0516806d3291a200d5659e1b644a768f16c86eb7b8ab1a256476640f92fa68a"}, "vout": 0, "txid": "142de91636d94d6a869837c8d4102ebb7a958c72ccd1d8c47f93205939820c82"}], "txid": "a504ba322639e32426f2b65fb2def9c9ec1b3fabc407af3a96ef1351bd0f57f5", "blocktime": 1537873282, "version": 1, "confirmations": 11485, "time": 1537873282, "locktime": 0, "vsize": 223, "size": 223}