{"hash": "a50a90b5ee9925a98644a68f44b191522e6f58164ba12b71aa59f8328afc02e9", "blockhash": "0000000000000000001f76057863aec43deb6fa401d9628bb513d65a8098bfab", "vout": [{"scriptPubKey": {"reqSigs": 1, "hex": "a914452c5a543c1c513710fa88c8dbb0e9654d2f3d7887", "addresses": ["37zmgUD9aA1gB8A6hS32hXinhHmykf3jLZ"], "asm": "OP_HASH160 452c5a543c1c513710fa88c8dbb0e9654d2f3d78 OP_EQUAL", "type": "scripthash"}, "value": 0.02271412, "n": 0}, {"scriptPubKey": {"reqSigs": 1, "hex": "76a9147fc6f97df49cc35b0dfe7de2facf835a05e42f0988ac", "addresses": ["1CedBMo5FzN9DCWLJm6FmxFAkdErNjofz2"], "asm": "OP_DUP OP_HASH160 7fc6f97df49cc35b0dfe7de2facf835a05e42f09 OP_EQUALVERIFY OP_CHECKSIG", "type": "pubkeyhash"}, "value": 0.04901654, "n": 1}], "hex": "0100000001f573152352902ccb93a633eab1b2aed84aad1706b53aff736cc3abdf0f3e8cdd010000006b483045022100bcb0c318802e1889d5692068521629d4b370b2ad001ad6594ccced1f9b08cce502204e4c5f2e3f1eb42c9506d543216aa9ce6d4edd70202a7339246a992a4d06781d0121023ee76a273b8fe25e4873125d184465fe085d84caa79faf5399550aa4f585999cffffffff02b4a822000000000017a914452c5a543c1c513710fa88c8dbb0e9654d2f3d788716cb4a00000000001976a9147fc6f97df49cc35b0dfe7de2facf835a05e42f0988ac00000000", "vin": [{"sequence": 4294967295, "scriptSig": {"hex": "483045022100bcb0c318802e1889d5692068521629d4b370b2ad001ad6594ccced1f9b08cce502204e4c5f2e3f1eb42c9506d543216aa9ce6d4edd70202a7339246a992a4d06781d0121023ee76a273b8fe25e4873125d184465fe085d84caa79faf5399550aa4f585999c", "asm": "3045022100bcb0c318802e1889d5692068521629d4b370b2ad001ad6594ccced1f9b08cce502204e4c5f2e3f1eb42c9506d543216aa9ce6d4edd70202a7339246a992a4d06781d[ALL] 023ee76a273b8fe25e4873125d184465fe085d84caa79faf5399550aa4f585999c"}, "vout": 1, "txid": "dd8c3e0fdfabc36c73ff3ab50617ad4ad8aeb2b1ea33a693cb2c9052231573f5"}], "txid": "a50a90b5ee9925a98644a68f44b191522e6f58164ba12b71aa59f8328afc02e9", "blocktime": 1537873891, "version": 1, "confirmations": 11475, "time": 1537873891, "locktime": 0, "vsize": 224, "size": 224}