{"hash": "462a8277ea74cfb27762b1b46bffa0a74e94555314669af3be5c7f3b498428f2", "blockhash": "0000000000000000000dcc0f55137456b1a82d3642486a52398922ac4d620174", "vout": [{"scriptPubKey": {"reqSigs": 1, "hex": "a91407d218fcc8de6c4deae5f9cedbd7150754a7d3d587", "addresses": ["32QNLixZu6wJuhQKfEEXrrvNdfbctoXf2W"], "asm": "OP_HASH160 07d218fcc8de6c4deae5f9cedbd7150754a7d3d5 OP_EQUAL", "type": "scripthash"}, "value": 0.10073644, "n": 0}, {"scriptPubKey": {"reqSigs": 1, "hex": "76a914954e4f92276b5c8e7d86a49b5a45092ceb9265ac88ac", "addresses": ["1EcTViRTEFPcK82wtYRr1KGAM9DsCjYLvk"], "asm": "OP_DUP OP_HASH160 954e4f92276b5c8e7d86a49b5a45092ceb9265ac OP_EQUALVERIFY OP_CHECKSIG", "type": "pubkeyhash"}, "value": 0.15475673, "n": 1}, {"scriptPubKey": {"reqSigs": 1, "hex": "76a9140d29661dae2eea6f2001fa75b3410b729a9956e188ac", "addresses": ["12CbNwUDx9zkbwKiMFsGQYS4WePES2w2tS"], "asm": "OP_DUP OP_HASH160 0d29661dae2eea6f2001fa75b3410b729a9956e1 OP_EQUALVERIFY OP_CHECKSIG", "type": "pubkeyhash"}, "value": 0.16283993, "n": 2}], "hex": "01000000000102786b8f60db5c20ce5a14c398ac5bf7c25a553f2184b667791980c44d45a4bd5b010000002322002034715184d2b089e29818a1c3e120f4877c0f3d342bf28a769c403990d8f44546ffffffffe637d25912a456bf4165f26d3f5f3a0efe1cf4e7f0fcb92a132a52a51c2751e90000000023220020d339e282b18d3ac088c615fb7bf27f5b38a08da29c9cc43edd83961c4e48cf91ffffffff032cb699000000000017a91407d218fcc8de6c4deae5f9cedbd7150754a7d3d587d923ec00000000001976a914954e4f92276b5c8e7d86a49b5a45092ceb9265ac88ac5979f800000000001976a9140d29661dae2eea6f2001fa75b3410b729a9956e188ac040048304502210080ed94fa74c83190b00309a08d924a4f24382f2f2e98ceb7050de005c33f63cf02204bdee235617d50c94dd3539d09a96ba4b3f6b4fb0e7698078ed9738b9c05c03d014830450221009033069a3ad46fee9914dc2721b3b08df77c2d066b22a637b14981c32f4b8af9022038829156b0dc89badb6a961373be00e12ac15624e8adf5294ce2ce6200a6cac50169522103c85944468cfcdeb5ccc5fb60f6acbc84962983d9b6bdc60e65f69312ba5aee122103a7e1ef3eceb3837c382bc3d3a10ed149b9f362d11d3b940463e15fa7a9ae4dff2102deb16bc3f02a845566f28da72ad71aca92100d6bd8480d80a7cf212ddd3d377153ae0400473044022041e9ababbd045fa09ffd7d2694499ddc07edc22a4a2285ee14c01093b7d58ddc02204142358b86df32b4e6b0b5421a53306d4f8055ae4790bdde4cc97f52153018fa01483045022100d1b3247b6f738ffcd0382a89d4ae2c83da2a2887cc3351742d95acc18a0380f80220195d5e292094dc10bb467e8762d5ba6d55b4671a91775599502369e468071fcc0169522103411a90bc064630ac9a2ef9cdc644a12ec0aecd6795af21cfd4076f4b218718e3210285c2ab9792aa6ddadf57a87d50c7d66c284ae77325db0c0db00115072b4d83a4210386b3a34a87e6d054cb6cfb8997f0edbe882e1c080a255431dffd434965200c5853ae00000000", "vin": [{"txinwitness": ["", "304502210080ed94fa74c83190b00309a08d924a4f24382f2f2e98ceb7050de005c33f63cf02204bdee235617d50c94dd3539d09a96ba4b3f6b4fb0e7698078ed9738b9c05c03d01", "30450221009033069a3ad46fee9914dc2721b3b08df77c2d066b22a637b14981c32f4b8af9022038829156b0dc89badb6a961373be00e12ac15624e8adf5294ce2ce6200a6cac501", "522103c85944468cfcdeb5ccc5fb60f6acbc84962983d9b6bdc60e65f69312ba5aee122103a7e1ef3eceb3837c382bc3d3a10ed149b9f362d11d3b940463e15fa7a9ae4dff2102deb16bc3f02a845566f28da72ad71aca92100d6bd8480d80a7cf212ddd3d377153ae"], "sequence": 4294967295, "scriptSig": {"hex": "22002034715184d2b089e29818a1c3e120f4877c0f3d342bf28a769c403990d8f44546", "asm": "002034715184d2b089e29818a1c3e120f4877c0f3d342bf28a769c403990d8f44546"}, "vout": 1, "txid": "5bbda4454dc480197967b684213f555ac2f75bac98c3145ace205cdb608f6b78"}, {"txinwitness": ["", "3044022041e9ababbd045fa09ffd7d2694499ddc07edc22a4a2285ee14c01093b7d58ddc02204142358b86df32b4e6b0b5421a53306d4f8055ae4790bdde4cc97f52153018fa01", "3045022100d1b3247b6f738ffcd0382a89d4ae2c83da2a2887cc3351742d95acc18a0380f80220195d5e292094dc10bb467e8762d5ba6d55b4671a91775599502369e468071fcc01", "522103411a90bc064630ac9a2ef9cdc644a12ec0aecd6795af21cfd4076f4b218718e3210285c2ab9792aa6ddadf57a87d50c7d66c284ae77325db0c0db00115072b4d83a4210386b3a34a87e6d054cb6cfb8997f0edbe882e1c080a255431dffd434965200c5853ae"], "sequence": 4294967295, "scriptSig": {"hex": "220020d339e282b18d3ac088c615fb7bf27f5b38a08da29c9cc43edd83961c4e48cf91", "asm": "0020d339e282b18d3ac088c615fb7bf27f5b38a08da29c9cc43edd83961c4e48cf91"}, "vout": 0, "txid": "e951271ca5522a132ab9fcf0e7f41cfe0e3a5f3f6df26541bf56a41259d237e6"}], "txid": "a51312047d26ea0e46b95693ee62d4b2c77c44d6228d286b0325fec21dc8dd1c", "blocktime": 1537870268, "version": 1, "confirmations": 11518, "time": 1537870268, "locktime": 0, "vsize": 390, "size": 771}