{"hash": "73527e2fa043ed18958b3310c885abdda90be63b2270b00c563017f6c40dc60f", "blockhash": "0000000000000000001e0dab787dd257d1dbfcb92a98c2207d5e1078be1f4165", "vout": [{"scriptPubKey": {"reqSigs": 1, "hex": "a9147d072e3008c10e4ea24b624e83e3c584bc226ee287", "addresses": ["3D66zRiPunDGn9HQNAGraWCGpMFiAazBAN"], "asm": "OP_HASH160 7d072e3008c10e4ea24b624e83e3c584bc226ee2 OP_EQUAL", "type": "scripthash"}, "value": 0.0170745, "n": 0}], "hex": "01000000000101baba0e96fdd81da426a5f944f11dacddb2d989d3b7192dfec3ad6476a7a7e48c0000000000feffffff01ba0d1a000000000017a9147d072e3008c10e4ea24b624e83e3c584bc226ee2870248304502210085f90cda68ef745059c70b6bd2c46cbb13c2e8bd2bbfce5ba3be0ae95db7a59202206ab7e37327193b32bd3dae3623a397a1289ba8afaef9b35ac5561e0dc354421301210282e3792310b47fc357db24f74f51d8d5955cab48cf664dff2c7d2cee461d9a7012490800", "vin": [{"txinwitness": ["304502210085f90cda68ef745059c70b6bd2c46cbb13c2e8bd2bbfce5ba3be0ae95db7a59202206ab7e37327193b32bd3dae3623a397a1289ba8afaef9b35ac5561e0dc354421301", "0282e3792310b47fc357db24f74f51d8d5955cab48cf664dff2c7d2cee461d9a70"], "sequence": 4294967294, "scriptSig": {"hex": "", "asm": ""}, "vout": 0, "txid": "8ce4a7a77664adc3fe2d19b7d389d9b2ddac1df144f9a526a41dd8fd960ebaba"}], "txid": "a51de377c01121e1fb72b595e5abb3353cee6148e5c36f2e86574fa9bc5dac4a", "blocktime": 1537872475, "version": 1, "confirmations": 11486, "time": 1537872475, "locktime": 542994, "vsize": 111, "size": 193}