{"hash": "a52b1bb572685f46a4a0f2c9d5a8bb4cde4d816f0baa51ee4c661928af9b7018", "blockhash": "00000000000000000018f53835495a110e01622372bf6ae95dc86f2b0ab887b0", "vout": [{"scriptPubKey": {"reqSigs": 1, "hex": "76a914ca0eeb34918eee3b618edcc2ac894f99acabba1b88ac", "addresses": ["1KRPNKoLL26azNTNrZWZuutdwT64u91uyx"], "asm": "OP_DUP OP_HASH160 ca0eeb34918eee3b618edcc2ac894f99acabba1b OP_EQUALVERIFY OP_CHECKSIG", "type": "pubkeyhash"}, "value": 0.00124887, "n": 0}, {"scriptPubKey": {"reqSigs": 1, "hex": "76a9140861d12a3bd5834662eb6a59cd5db1b3d9e669db88ac", "addresses": ["1mKayz3cFzp6RYUtcmg8PA3GiSUoDLyDh"], "asm": "OP_DUP OP_HASH160 0861d12a3bd5834662eb6a59cd5db1b3d9e669db OP_EQUALVERIFY OP_CHECKSIG", "type": "pubkeyhash"}, "value": 0.00927826, "n": 1}], "hex": "0200000002c94e8c74799a572d24733441d7acd5866318465b896cb2281c09bcbeded89f054f0100006b483045022100f9b493fa017abb62e08dcf7f048da236f5a1077827f8efcafa8d9244d581982f02205141c76577bd480610940391d9200cc25c3485bc8ca0bfcb2a16a5f5efef543f0121021a5bbe85c7bbc9f02f3acd0a0e26ee00501732f0a5c985414829f5ef278a7c14feffffff4799d414873905ec7fc81fc99aeb9052a795b006244aa20b5530937714fbab2e000000006a47304402204767b9f246cf75f1a4d383d7e20971a9951738ee07cbf733a48c287ac8cd2d27022064113d13e404d1d4d7d67767efb0be411a98b8d0fab218b077633f912d1d98dd01210289bea9768ea48efa1b0fbd27304b7ea168ee28e96a7728c1c5bacf5423156368feffffff02d7e70100000000001976a914ca0eeb34918eee3b618edcc2ac894f99acabba1b88ac52280e00000000001976a9140861d12a3bd5834662eb6a59cd5db1b3d9e669db88ac0e490800", "vin": [{"sequence": 4294967294, "scriptSig": {"hex": "483045022100f9b493fa017abb62e08dcf7f048da236f5a1077827f8efcafa8d9244d581982f02205141c76577bd480610940391d9200cc25c3485bc8ca0bfcb2a16a5f5efef543f0121021a5bbe85c7bbc9f02f3acd0a0e26ee00501732f0a5c985414829f5ef278a7c14", "asm": "3045022100f9b493fa017abb62e08dcf7f048da236f5a1077827f8efcafa8d9244d581982f02205141c76577bd480610940391d9200cc25c3485bc8ca0bfcb2a16a5f5efef543f[ALL] 021a5bbe85c7bbc9f02f3acd0a0e26ee00501732f0a5c985414829f5ef278a7c14"}, "vout": 335, "txid": "059fd8debebc091c28b26c895b46186386d5acd7413473242d579a79748c4ec9"}, {"sequence": 4294967294, "scriptSig": {"hex": "47304402204767b9f246cf75f1a4d383d7e20971a9951738ee07cbf733a48c287ac8cd2d27022064113d13e404d1d4d7d67767efb0be411a98b8d0fab218b077633f912d1d98dd01210289bea9768ea48efa1b0fbd27304b7ea168ee28e96a7728c1c5bacf5423156368", "asm": "304402204767b9f246cf75f1a4d383d7e20971a9951738ee07cbf733a48c287ac8cd2d27022064113d13e404d1d4d7d67767efb0be411a98b8d0fab218b077633f912d1d98dd[ALL] 0289bea9768ea48efa1b0fbd27304b7ea168ee28e96a7728c1c5bacf5423156368"}, "vout": 0, "txid": "2eabfb14779330550ba24a2406b095a75290eb9ac91fc87fec05398714d49947"}], "txid": "a52b1bb572685f46a4a0f2c9d5a8bb4cde4d816f0baa51ee4c661928af9b7018", "blocktime": 1537870928, "version": 2, "confirmations": 11512, "time": 1537870928, "locktime": 542990, "vsize": 373, "size": 373}