{"hash": "a52e4dfa508c2b7d866c8f4ca575f27c6b1aa59df3dbec5b046e686429c1615f", "blockhash": "0000000000000000001e0dab787dd257d1dbfcb92a98c2207d5e1078be1f4165", "vout": [{"scriptPubKey": {"reqSigs": 1, "hex": "76a91420f59ab5af01cfc359dc2c1652730e662f18bb3188ac", "addresses": ["141Gr2ZZcADoso7zCoLcALW4mqvxf9LYyF"], "asm": "OP_DUP OP_HASH160 20f59ab5af01cfc359dc2c1652730e662f18bb31 OP_EQUALVERIFY OP_CHECKSIG", "type": "pubkeyhash"}, "value": 0.41002824, "n": 0}, {"scriptPubKey": {"reqSigs": 1, "hex": "76a914a8081c28dc52cad12e36a0fd3e35253d2ad473ca88ac", "addresses": ["1GKUEimMzxkt5Sv73UDjy7eBHp4mVMvBdF"], "asm": "OP_DUP OP_HASH160 a8081c28dc52cad12e36a0fd3e35253d2ad473ca OP_EQUALVERIFY OP_CHECKSIG", "type": "pubkeyhash"}, "value": 1.0, "n": 1}], "hex": "01000000022ceda68e9788405ca0ec83faa94a8db53690099e84c975380852c719742a1584010000006a473044022077d5ed2510ce5a2290df61515e647f838489e36dc7f3b6ee35b3d35f36ace0540220635de1582e822797215758dc89cb051a09ee19cd8e45053ab485df2d31d5e46401210378f1ad19bbd901e12ab042b3e45b766401a5f538cd1c827b8730697cfa91f681ffffffffd501ca4bb2f4cebf3c1ea801105fa970f3849a7919c70f6b2b2c857deb07bcec000000006a4730440220037aad89d63b897ce8c8a59411b2cbb9011541b0d12380a40af32b27e73edd1c0220453bfb9642241509f787f122e77a88ca923db7dc10f3a37240d58ba0e3eaeefb012102a93dd333d37ccecf30d65f37e9deaa300346688e1d859476949dead363e1bf56ffffffff0248a77102000000001976a91420f59ab5af01cfc359dc2c1652730e662f18bb3188ac00e1f505000000001976a914a8081c28dc52cad12e36a0fd3e35253d2ad473ca88ac00000000", "vin": [{"sequence": 4294967295, "scriptSig": {"hex": "473044022077d5ed2510ce5a2290df61515e647f838489e36dc7f3b6ee35b3d35f36ace0540220635de1582e822797215758dc89cb051a09ee19cd8e45053ab485df2d31d5e46401210378f1ad19bbd901e12ab042b3e45b766401a5f538cd1c827b8730697cfa91f681", "asm": "3044022077d5ed2510ce5a2290df61515e647f838489e36dc7f3b6ee35b3d35f36ace0540220635de1582e822797215758dc89cb051a09ee19cd8e45053ab485df2d31d5e464[ALL] 0378f1ad19bbd901e12ab042b3e45b766401a5f538cd1c827b8730697cfa91f681"}, "vout": 1, "txid": "84152a7419c752083875c9849e099036b58d4aa9fa83eca05c4088978ea6ed2c"}, {"sequence": 4294967295, "scriptSig": {"hex": "4730440220037aad89d63b897ce8c8a59411b2cbb9011541b0d12380a40af32b27e73edd1c0220453bfb9642241509f787f122e77a88ca923db7dc10f3a37240d58ba0e3eaeefb012102a93dd333d37ccecf30d65f37e9deaa300346688e1d859476949dead363e1bf56", "asm": "30440220037aad89d63b897ce8c8a59411b2cbb9011541b0d12380a40af32b27e73edd1c0220453bfb9642241509f787f122e77a88ca923db7dc10f3a37240d58ba0e3eaeefb[ALL] 02a93dd333d37ccecf30d65f37e9deaa300346688e1d859476949dead363e1bf56"}, "vout": 0, "txid": "ecbc07eb7d852c2b6b0fc719799a84f370a95f1001a81e3cbfcef4b24bca01d5"}], "txid": "a52e4dfa508c2b7d866c8f4ca575f27c6b1aa59df3dbec5b046e686429c1615f", "blocktime": 1537872475, "version": 1, "confirmations": 11487, "time": 1537872475, "locktime": 0, "vsize": 372, "size": 372}