{"hash": "a5367d40afb7add16af399a046ff5343b15e76a957b25509910239ecad77db40", "blockhash": "0000000000000000001f76057863aec43deb6fa401d9628bb513d65a8098bfab", "vout": [{"scriptPubKey": {"reqSigs": 1, "hex": "76a914c67a70729c7d1282e3aed56846a87e4df8f4138188ac", "addresses": ["1K6TUDDNQyKKpjW6P1c27itM4jHzUk4hWs"], "asm": "OP_DUP OP_HASH160 c67a70729c7d1282e3aed56846a87e4df8f41381 OP_EQUALVERIFY OP_CHECKSIG", "type": "pubkeyhash"}, "value": 3.98206075, "n": 0}, {"scriptPubKey": {"reqSigs": 1, "hex": "76a91476aba0a260b5e4e54504a37d572cabff8ebe150688ac", "addresses": ["1BpULXHfpfCwH5rKWHbcMV7H64poeAWMW4"], "asm": "OP_DUP OP_HASH160 76aba0a260b5e4e54504a37d572cabff8ebe1506 OP_EQUALVERIFY OP_CHECKSIG", "type": "pubkeyhash"}, "value": 1.909, "n": 1}], "hex": "010000000196241d7db0be8dfda736b4f52f8f2a298a7c46e3399433f2685050586c900fc9010000006b483045022100e37a9e56d87564431212447b55a8f84a6ffa9efaef7aac5ba2478f7c01d1f97802203d9a29965781b23758f024403947083a1c99ca40fe126288f3f5f1052e15657a0121026cad172778b28d8f67f308b3e929d1dcb6c2a4b33ebf67d2d625ee88c4109e3dffffffff027b24bc17000000001976a914c67a70729c7d1282e3aed56846a87e4df8f4138188ac20e7600b000000001976a91476aba0a260b5e4e54504a37d572cabff8ebe150688ac00000000", "vin": [{"sequence": 4294967295, "scriptSig": {"hex": "483045022100e37a9e56d87564431212447b55a8f84a6ffa9efaef7aac5ba2478f7c01d1f97802203d9a29965781b23758f024403947083a1c99ca40fe126288f3f5f1052e15657a0121026cad172778b28d8f67f308b3e929d1dcb6c2a4b33ebf67d2d625ee88c4109e3d", "asm": "3045022100e37a9e56d87564431212447b55a8f84a6ffa9efaef7aac5ba2478f7c01d1f97802203d9a29965781b23758f024403947083a1c99ca40fe126288f3f5f1052e15657a[ALL] 026cad172778b28d8f67f308b3e929d1dcb6c2a4b33ebf67d2d625ee88c4109e3d"}, "vout": 1, "txid": "c90f906c58505068f2339439e3467c8a292a8f2ff5b436a7fd8dbeb07d1d2496"}], "txid": "a5367d40afb7add16af399a046ff5343b15e76a957b25509910239ecad77db40", "blocktime": 1537873891, "version": 1, "confirmations": 11475, "time": 1537873891, "locktime": 0, "vsize": 226, "size": 226}