{"hash": "a5397749582ddc370e9af6049ad883f27ae07281c47fc6a2e16a461df2c5c52b", "blockhash": "0000000000000000001f76057863aec43deb6fa401d9628bb513d65a8098bfab", "vout": [{"scriptPubKey": {"reqSigs": 1, "hex": "76a914919737566934b800c5662952b95fd212db946a9f88ac", "addresses": ["1EGp8VvA7GbjqhV1A1qgYcAJxa1pqbMxoY"], "asm": "OP_DUP OP_HASH160 919737566934b800c5662952b95fd212db946a9f OP_EQUALVERIFY OP_CHECKSIG", "type": "pubkeyhash"}, "value": 0.22945064, "n": 0}, {"scriptPubKey": {"reqSigs": 1, "hex": "76a91424882639f4ca27b85e89c274e7a1aac93e1146fa88ac", "addresses": ["14LARj9Lys9q9BUarFqr4KPYEkogxYUiwv"], "asm": "OP_DUP OP_HASH160 24882639f4ca27b85e89c274e7a1aac93e1146fa OP_EQUALVERIFY OP_CHECKSIG", "type": "pubkeyhash"}, "value": 0.27815913, "n": 1}], "hex": "01000000034813bd8e1d258866ba2b4e9e26faedf57e42cda2773bf4d2e4696a04dd49806f000000006b483045022100ec7fe7e1157cf42b7fd95977b8912584f2043d326ca362af74a9fed0392f34c602203e586c73a451def31554de66c56da899855e7485fd780e8e383d43a70e9dd8060121035b8650cd80ae19a7c6f1e88d33230de001e6e0f108f5ecfdddbd8b29e2aa70abffffffffc7ff4b8c24ff31f8be101face66d4e571b8007bf8f7d9632d8df0e2ca90d528c010000006a473044022015cbdcb2a1f31034938f0a0573110f3cbac1189cbd30daaf1e2cdde360b17f57022004292596510414e84ca9fbed5cdc3f6bf8cd5483f9ae9f9ec31f827a26cf51a90121021b12e69cfbd44606c73b3144592c6c2cb3deea618267421335462ab39a554c0bffffffffa584dc5a63004e90c7e950231a7e9fba74c2a6178ce6030556180eb2c5ffcaa0010000006a473044022056c31dd07ca32875a667b2c23fcc9d73dfdcc0ab3ec51137ce289298f82761e10220720bf670ce56d44606288051a4d8c8086ff0ede31f6c93ef28408e581caa8981012102bc4ac7114c5e2d49bc7053eced7631ff35327879844537c176b9a0b7f3ad6f02ffffffff02281d5e01000000001976a914919737566934b800c5662952b95fd212db946a9f88ace96fa801000000001976a91424882639f4ca27b85e89c274e7a1aac93e1146fa88ac00000000", "vin": [{"sequence": 4294967295, "scriptSig": {"hex": "483045022100ec7fe7e1157cf42b7fd95977b8912584f2043d326ca362af74a9fed0392f34c602203e586c73a451def31554de66c56da899855e7485fd780e8e383d43a70e9dd8060121035b8650cd80ae19a7c6f1e88d33230de001e6e0f108f5ecfdddbd8b29e2aa70ab", "asm": "3045022100ec7fe7e1157cf42b7fd95977b8912584f2043d326ca362af74a9fed0392f34c602203e586c73a451def31554de66c56da899855e7485fd780e8e383d43a70e9dd806[ALL] 035b8650cd80ae19a7c6f1e88d33230de001e6e0f108f5ecfdddbd8b29e2aa70ab"}, "vout": 0, "txid": "6f8049dd046a69e4d2f43b77a2cd427ef5edfa269e4e2bba6688251d8ebd1348"}, {"sequence": 4294967295, "scriptSig": {"hex": "473044022015cbdcb2a1f31034938f0a0573110f3cbac1189cbd30daaf1e2cdde360b17f57022004292596510414e84ca9fbed5cdc3f6bf8cd5483f9ae9f9ec31f827a26cf51a90121021b12e69cfbd44606c73b3144592c6c2cb3deea618267421335462ab39a554c0b", "asm": "3044022015cbdcb2a1f31034938f0a0573110f3cbac1189cbd30daaf1e2cdde360b17f57022004292596510414e84ca9fbed5cdc3f6bf8cd5483f9ae9f9ec31f827a26cf51a9[ALL] 021b12e69cfbd44606c73b3144592c6c2cb3deea618267421335462ab39a554c0b"}, "vout": 1, "txid": "8c520da92c0edfd832967d8fbf07801b574e6de6ac1f10bef831ff248c4bffc7"}, {"sequence": 4294967295, "scriptSig": {"hex": "473044022056c31dd07ca32875a667b2c23fcc9d73dfdcc0ab3ec51137ce289298f82761e10220720bf670ce56d44606288051a4d8c8086ff0ede31f6c93ef28408e581caa8981012102bc4ac7114c5e2d49bc7053eced7631ff35327879844537c176b9a0b7f3ad6f02", "asm": "3044022056c31dd07ca32875a667b2c23fcc9d73dfdcc0ab3ec51137ce289298f82761e10220720bf670ce56d44606288051a4d8c8086ff0ede31f6c93ef28408e581caa8981[ALL] 02bc4ac7114c5e2d49bc7053eced7631ff35327879844537c176b9a0b7f3ad6f02"}, "vout": 1, "txid": "a0caffc5b20e18560503e68c17a6c274ba9f7e1a2350e9c7904e00635adc84a5"}], "txid": "a5397749582ddc370e9af6049ad883f27ae07281c47fc6a2e16a461df2c5c52b", "blocktime": 1537873891, "version": 1, "confirmations": 11478, "time": 1537873891, "locktime": 0, "vsize": 520, "size": 520}