{"hash": "5b9522006f5d09a060ab9d4e8624cd2cfb68eadbf74385d4d1ba5d5579d65f38", "blockhash": "000000000000000000022b45ed06c6f4ccd3cf7fb5ba4856ebd2e58215665228", "vout": [{"scriptPubKey": {"reqSigs": 1, "hex": "a914d7566530b257ffa7752bf3696bd30d926b01068387", "addresses": ["3MKchdrPsX8PfGCNtMavD7yXXHDHWPXxQF"], "asm": "OP_HASH160 d7566530b257ffa7752bf3696bd30d926b010683 OP_EQUAL", "type": "scripthash"}, "value": 0.0099748, "n": 0}, {"scriptPubKey": {"reqSigs": 1, "hex": "a914eade9b839c42e864a62d92912dfb65d63e2632a587", "addresses": ["3P6tiUFn8n4aQCTie9UmyQ4QQ4W4PUMb5U"], "asm": "OP_HASH160 eade9b839c42e864a62d92912dfb65d63e2632a5 OP_EQUAL", "type": "scripthash"}, "value": 39.05904697, "n": 1}], "hex": "0200000000011b00f695ae5f199d2dfdcf89a559967fa1e48a1f9e6407ed6f6bf9f3a9ef346f5e01000000171600148a1fa154457cba94b6c2cdb399b3a0fec311ecc5feffffff1d1d9193b1b6e226c77834acf1928838a6b8a996d0cb46d6ab4075ad7c24c66b01000000171600140bf271993359216a8b2ad598852338049234c172feffffff2b85b1f94f9e6a1afc7a036a3156adb9c9683ad2b461b58947ce446953d85ef80000000017160014e6dab9a596cdda096a00703d0c27e2d74e391053feffffff3b6abd6cacdb487d5bdf16fe8c4dfb680e2ebfd38f6381b50be8898a82277b5600000000171600147c78931668f59bf91af5a342eee7bdda4a361760feffffff4435ae7af97d507195e7f209a938497c38533d57ed8d230b99a7a6232f47f6a001000000171600142685bf063430e8359c9c09191fc3fe508eb972bdfeffffff4d67e775c708608df97cbe37e0cdfd88c71a8c7cc5a6919032e78021b9ff12720000000017160014c109c60ce9b43b7861219b10b17ec0da46ecfde1feffffff5b2336423feb6eb4c70f564447d833529339552fa1545468d67a316e842d3292000000001716001464f74c9889cb7921c86408754bb0458c358c5949feffffff61ee4438221d766111f7e72d2e114773c6d65ad2d82abdfc2f4f8e43980acb0f0000000017160014fb1b71d0ef8059fdbce91aba03b7eec5f1226df5feffffff64b25795f93e93a52f40a937137f7b193dc2fa6adc1ac2f8d6f3c22361cc8f2a0000000017160014c88aafc84da68a426ee39ef3e85e466ca4d49e1cfeffffff69adc24d4014e463df224d42664c92cbe24d400aba4c9fa69e471d23dbd7aa040100000017160014a7dacf40e8dde6ffd70042cf6edd1b5cbca3c435feffffff7ed575207e2096d47070245e9849b53f18f7fc0d103b0a5006f0510adaf1b5700000000017160014aa3b89b7e8ee43b2048e4da3d52ed8d8bbdf406dfeffffff80f2daabd02423a915dbf5c2b3e217f4e3b6717cdfcc06f2bec0a54050f2425e01000000171600142bc0e5e3ec36012450625521f874b99996cecceafeffffff823e66c71628b489f0fac3492e1c361b9d314e5214504f034576a2db79a654fb0000000017160014dfb553e489928d6a17689fc02e77d01a2b170976feffffff871c1f59ac5eaf10c02db12a737b4ae0a207de9309e6b0d1542780efd33451ce0000000017160014440d75dd4f3d07a79c7d4a3c5843507b2ad6f5f9feffffff880b70bcc73a172f6765b3e1ec9298c25d6c4d3321b9c66fab6ee77014168118000000001716001488e3bc069d9ec20dc4126c2eddd72b8c3b96937dfeffffff88fd7a5933791b598df3fe23fb8384dfa817bf7544b609aa4af299528e59322c0100000017160014c8f277c8acd7a3898124352b56453bcc95696fc2feffffff91f237b54e48be2f413e7b7ec79f81144ac93d1cf4d7db1ff542dab96f28efa8010000001716001415312adeeeca998e15a54adb13f013b14f643d56feffffff9c2088f6356b940096b8454f10edb0894459aee0b148ee1369cc15700e6dbafb0100000017160014947f8049adbb7943ff1a2da4912e9afe745ccb31feffffff9ce048481892692de5dbe6c1a735b4cff9643c501a6aa4b7eeb8c6859d52c77b00000000171600147d53a2f468b03e12adf6808a2e0392a1ac0ceed2feffffffa60226058d251ecd92d97dba0afab7e4336d7f84d22e97f59618e9c60f1278d5010000001716001492141929235c7a66cf496d8492f3f1a103594864feffffffb661c1cce19a7b7ef407bfb65af9b6233a1788068079ba3a9335d950deca844a0100000017160014dda69e5e485a53bf6b6384b7b118f43d104484cefeffffffb8c58fe560dad3587c58ef3276fa9d0190bb9b8d667a9ba21c6740da238faaf501000000171600149b9b78527608fbbad62eed55bd8bd7a64d075752feffffffcb15b362ae1e5542b572a5c5c7b936045c775f4c007d594f2ee73829b7be461401000000171600142974810edff5614e703e67356e34a696eba1e8b2feffffffccbac0afdd216b63b22e6455a0503e57edf67aa5922d9c5cdeaa248a74694c07000000001716001499fb02140f94414745bc3be73e61dd3ce6bf1c93feffffffcdef62fdf22dbdaaeb6371ea5cc8492ef29f2b09ea4d136e7490b8debace387f0000000017160014698a9a525713f120428821ad21d8a97592030b3dfeffffffeba3de92f5ba0c8774f5b21da119891e293276867f20b5dba12dd54de4c2a60500000000171600142be349fabb41e9a9f98517ecc0d932f3666d94f4fefffffffbcbe6865def5d7f74033c52f1cbcaac437f78e18b09de510d253ebdb49e8ec80000000017160014c5fd4f072df765f32ac81419130b83c75cc03397feffffff0268380f000000000017a914d7566530b257ffa7752bf3696bd30d926b010683873960cfe80000000017a914eade9b839c42e864a62d92912dfb65d63e2632a587024730440220328489eac9c2a7600d3ec2c1166773742377e79454c897f95b4d39c36d8b9e15022068585f9055937563a9882fe1a51fdcf7711dc041a4e768fc00200d2d23ad53fb0121023d3808f0173fa75b41b8441dcd44de408a008772a2ee18b42a6ab79e8069e4f90247304402205ad32bf385e6155c1362665fa564103643984da4682cacf711f6af2eb9459aad0220294e6832ce986bf27d7e8da68015ccac062642bd6a77122a726001f76e1e343c012102ac66eaa0d87fd2ad30047a3fcc65bea6b1f36cb663d5baff1b73b949024724d9024730440220250504f7ca7b07b219c854cab61507314af56efd96e444ded1024642cebd2f7d022002369d7e4cbe304a0f9d69e2f3fb10e3ccbd50bcf370c28261e7f8b211cd41c7012103f51f42ba04d0355816069584c4d11412523ae7738d42e7d8357f0b9ddee100c7024730440220015c4d2438593439958c6bccbe2aa7b058990251a39deb2238b8da41213618ca02202e862f16122edcc802a006dbc104f63a0da8a284cd8e3dedd517e8041c401ad1012103973d39f391d2e118c1e5c69ec40b982c2a4c6432c3cc2ab06a8e3cdbe77dad1402483045022100a1ead8298f52d3d732543a50922344677e636f36bc7d1454995463cbaf34e0dd0220614922ade853d2d157fe95481f32d6b50238ceb4b2796c99702bb885271d95dc01210387ab70d185b7adbeb35fee775255f765c4f72368b0a8e144c8bd823e8578204902483045022100e75c330ea5033d6e7de1f889e7671329ba33a6a443ecf6983c5fad93880a242902202d8dc45df3548e60dae373203cb59aed57c20d1d125f4cff0b2dcf92a8e210be0121025acb681866538ba26d7867b1c339b4716644466b20a3a7a219e61c55d3d3afe50247304402200b76ad10eab8e812c0db24f41df232fdfef14c2bdeae1402b47a41c3e8593fc60220515d81bca6f2f1c8f75b3dd8bd1fc190967a66270947c0051d02f104c498b46d0121032303c6ed17b508f16ea8d0ba479a27db71fc4658d0b2188646fa8db1cf8ce3a80247304402201fa3d7d7de1c99e2b5330d0714ac5a1d9697fc0b5b161080e7fa0e0bb598071d02204492eb558cdf9cd74f45f95984706477c0223a5f46e6d0ba2c88ba28fca00d9e012102c6dcb84967ade983309403589624fca650905c7fbb02a9a15fd32917a3293dee02483045022100b3ef91d50dbbd0806876d6ff57820bc4cca4fb1b6d6a3746b02ff044ab36273c0220334e88df6583620a418a92238da33334060c37a8dd6caa69f13aa28ed85418a10121025ecf3339393141d5ce73dbb37b5e99422aef3bb3935149aee6030f40c852027802473044022051ef2c9dd5f270c41ac280b5991baf588393deb07c3ef75d95d573180969455902202870771db08590c3be8f8b194d5c41847ca8d409a26dc92438c2a35fa018929a0121027635147a645434702cf28633b060609e2331b832c5cbd2c52b7ea4adbd0113840247304402206d91d24724cd126aff69fce87804699085e93d86d188c5df949ab0f57ecc805a02204d608993c740ae24ef7c781b4e54e2e43099b0f8112df7987e9cf13d0d87db1301210365d3af3b6eeb8e8ea3f6cca32dd320721df9cc0e35e178fb8f59d89c4d4120870247304402206d5cece24e7741475e9273bc0497304cf425f30d1b7f7e3decad9649825536be0220244a1f974a4d5045b8150d41556e7acf8378239c130e6963b1507b365051435d01210387eebde0ca664721eeb0343b8c98594672d5a7e624055341550150a2f165acba0247304402200da73f9ea4792d95bf4a7f565a920939f20c2812618b67a0971702575c9c1f1102203c6cdf1daca5b595fd136ada82f43e962256c8e7fe2358268b16079b5bc67a25012102acb3f3d92db37b8e83c1f8d8b758cde929076832c69ff81aedf6e375a05515250247304402205abb7d8e28bd450f8bcc41437d6483ed7761d33ce584c17521913fc36dc3993a02206a0fba6716e81c7b405daa47ad4f0bcd3dfba26e0bc6860f89895f44beb024c3012103e4865e73ad3de8614209d586cf065435588b11cbfd550c045a3a69b4afc16a7602473044022003a596852319e576d33aecf4bac9256ff0138fc20ca55a6f4d4f9acc587dc54702200390eab797d07adabe56aee3b60969aa80c378ff424d3cad26c04c1735b93c580121022e3505626358a3ad43113965bbbbfa0c5e30f09ecac475e573bcbf68c1230d8b02483045022100d8c533686e69efac0eee9d753a646fb2b2c4b42c14f1bee5a5c683e19de9257b0220192f33b78c184eacd191c014c37eba69afcbf697b36e98a9942526a1838ad47d012103acede925cd00fb6137ccde60bf549290e0163aaf1ce78e1fb7630b812e5de81a02483045022100b8a3744dd41f0f7561861509b086b54b9215467f231d28fe17e3148e03dc40b902206164a1330090d10900ca8ace2af8c01a98c0c3b4acb1b12f32ea46727c58b143012102b0f8b2580af8314d588d8cdc32420533ff768c82b8e71a5ba8b88136645f709e0247304402207d09858d7163a44817acf5f0a45cd51cb4c293bb43508cdaa4ef3c4e4d3395ac0220129d18aacbd3406222533d8c45149fef6e465c0007b6850b5c9f990a7a61ef05012102648b0e13c53e4302d02d8a2e122f4b89cf8762964d5f89da4b6a07407745a3bb02483045022100d7c1830b2b9c868c43031dfc545ac6fa9c151f3e1c905190bbb76f26bcbebca002203ae3e1e5f456d306c87922953fad1c3a125af46f1a0ef21a34bdca71783ca5ce01210378b92168919bbd6990bbe1757d36e44be91757787d910d654e5f219ea1faf2f902483045022100cee1ba96caf0d91be0885704058d403b87fb96b162e6b63ad5bcda65c251663c0220251a021451bdf69ff3b3d89acaae55ab38a40a7cf5b612b12687424a23fe50da0121038af4b7435ebb445bb1d2140d95b417f61dc595081bee08177865e60ad6b40d0102483045022100b4cc6f86c10fd4d4441d65e3ef5c08e6117b0599410b44f8e803a132423fa4b002200603c7cad75364b32da4636fa611e43faf60f41b6b00738c4e8f18af831c57940121025cc91e6e0cf1251ca6a1172a75523000cf7797051c792304a114e1edaaaa67f80248304502210091dcf909eebe3822f3a3c2936e861b68a15dd3d9b92d603048ffffcc30a6ea6a02207e967c58a4e62c8b69a327c4d7eaec4efdc0c02d5f36d2c2cfbca6eea33e2b100121027a919a4beb835f127498daa447821414ecb3a7b51898962b8209221f51bf258602483045022100ca57daf08d7dac317e6c0b7301933548540ea8fb9dd7e781508b6f1dd12cda15022070bcbb71708d55bcd8a7bc92f97441d5cf5ee9fb786c4ab4e2aa35710b6ebe9b012102831cd0da9b379186da7cf80867fa03ae9539bb886f278b5f92095dbd803a585d02483045022100cb69543ba939a01e814891204c3420d451f97413343c21d01a4adde6413a8f810220083c8ef31f4cfcf69a7f56c52fd88fce5ec72873efecaecfa9eb83b47294014b0121035c5523caf0c16e8db2eee4d13aab5612db3a568783f13b80e6039cd4893e5eab02483045022100be4dd6f06952a2cb531d0d41e991844e86ba0e7236f0c69a6f516333e853480f022056fa833889031ca87b08e28ed8649ce351b5a7731c3e20a77596a23ecd4bcdcb012102cc0583d813880cce65fac36aa7ecd34446e0a6c0dcdc66235f18403abcacde140248304502210088f3523965efffb536c30b695a1307e93de51db78a117782b2020772c0a93fff022063d08fa7027387662ebd975618c87449d76ba481b4cd968c70866c876a3f50090121024457fc9cfc6086ff2c1edc6fe6f967594a78b346f79ec1349a41921df48a55b702483045022100b2f8a4542a34f7be6f63802506e6cf503aff362a684207a42f5025a88022c1df02206d75f57d0b14407663879f47e5188c8e644ac90410fe1fe54c65c65519cb204b0121021b34eebd4dbbe9e9249f1f8e79a1c8ccd8ae9d2ff7f04817356e9421a708dffe00000000", "vin": [{"txinwitness": ["30440220328489eac9c2a7600d3ec2c1166773742377e79454c897f95b4d39c36d8b9e15022068585f9055937563a9882fe1a51fdcf7711dc041a4e768fc00200d2d23ad53fb01", "023d3808f0173fa75b41b8441dcd44de408a008772a2ee18b42a6ab79e8069e4f9"], "sequence": 4294967294, "scriptSig": {"hex": "1600148a1fa154457cba94b6c2cdb399b3a0fec311ecc5", "asm": "00148a1fa154457cba94b6c2cdb399b3a0fec311ecc5"}, "vout": 1, "txid": "5e6f34efa9f3f96b6fed07649e1f8ae4a17f9659a589cffd2d9d195fae95f600"}, {"txinwitness": ["304402205ad32bf385e6155c1362665fa564103643984da4682cacf711f6af2eb9459aad0220294e6832ce986bf27d7e8da68015ccac062642bd6a77122a726001f76e1e343c01", "02ac66eaa0d87fd2ad30047a3fcc65bea6b1f36cb663d5baff1b73b949024724d9"], "sequence": 4294967294, "scriptSig": {"hex": "1600140bf271993359216a8b2ad598852338049234c172", "asm": "00140bf271993359216a8b2ad598852338049234c172"}, "vout": 1, "txid": "6bc6247cad7540abd646cbd096a9b8a6388892f1ac3478c726e2b6b193911d1d"}, {"txinwitness": ["30440220250504f7ca7b07b219c854cab61507314af56efd96e444ded1024642cebd2f7d022002369d7e4cbe304a0f9d69e2f3fb10e3ccbd50bcf370c28261e7f8b211cd41c701", "03f51f42ba04d0355816069584c4d11412523ae7738d42e7d8357f0b9ddee100c7"], "sequence": 4294967294, "scriptSig": {"hex": "160014e6dab9a596cdda096a00703d0c27e2d74e391053", "asm": "0014e6dab9a596cdda096a00703d0c27e2d74e391053"}, "vout": 0, "txid": "f85ed8536944ce4789b561b4d23a68c9b9ad56316a037afc1a6a9e4ff9b1852b"}, {"txinwitness": ["30440220015c4d2438593439958c6bccbe2aa7b058990251a39deb2238b8da41213618ca02202e862f16122edcc802a006dbc104f63a0da8a284cd8e3dedd517e8041c401ad101", "03973d39f391d2e118c1e5c69ec40b982c2a4c6432c3cc2ab06a8e3cdbe77dad14"], "sequence": 4294967294, "scriptSig": {"hex": "1600147c78931668f59bf91af5a342eee7bdda4a361760", "asm": "00147c78931668f59bf91af5a342eee7bdda4a361760"}, "vout": 0, "txid": "567b27828a89e80bb581638fd3bf2e0e68fb4d8cfe16df5b7d48dbac6cbd6a3b"}, {"txinwitness": ["3045022100a1ead8298f52d3d732543a50922344677e636f36bc7d1454995463cbaf34e0dd0220614922ade853d2d157fe95481f32d6b50238ceb4b2796c99702bb885271d95dc01", "0387ab70d185b7adbeb35fee775255f765c4f72368b0a8e144c8bd823e85782049"], "sequence": 4294967294, "scriptSig": {"hex": "1600142685bf063430e8359c9c09191fc3fe508eb972bd", "asm": "00142685bf063430e8359c9c09191fc3fe508eb972bd"}, "vout": 1, "txid": "a0f6472f23a6a7990b238ded573d53387c4938a909f2e79571507df97aae3544"}, {"txinwitness": ["3045022100e75c330ea5033d6e7de1f889e7671329ba33a6a443ecf6983c5fad93880a242902202d8dc45df3548e60dae373203cb59aed57c20d1d125f4cff0b2dcf92a8e210be01", "025acb681866538ba26d7867b1c339b4716644466b20a3a7a219e61c55d3d3afe5"], "sequence": 4294967294, "scriptSig": {"hex": "160014c109c60ce9b43b7861219b10b17ec0da46ecfde1", "asm": "0014c109c60ce9b43b7861219b10b17ec0da46ecfde1"}, "vout": 0, "txid": "7212ffb92180e7329091a6c57c8c1ac788fdcde037be7cf98d6008c775e7674d"}, {"txinwitness": ["304402200b76ad10eab8e812c0db24f41df232fdfef14c2bdeae1402b47a41c3e8593fc60220515d81bca6f2f1c8f75b3dd8bd1fc190967a66270947c0051d02f104c498b46d01", "032303c6ed17b508f16ea8d0ba479a27db71fc4658d0b2188646fa8db1cf8ce3a8"], "sequence": 4294967294, "scriptSig": {"hex": "16001464f74c9889cb7921c86408754bb0458c358c5949", "asm": "001464f74c9889cb7921c86408754bb0458c358c5949"}, "vout": 0, "txid": "92322d846e317ad6685454a12f5539935233d84744560fc7b46eeb3f4236235b"}, {"txinwitness": ["304402201fa3d7d7de1c99e2b5330d0714ac5a1d9697fc0b5b161080e7fa0e0bb598071d02204492eb558cdf9cd74f45f95984706477c0223a5f46e6d0ba2c88ba28fca00d9e01", "02c6dcb84967ade983309403589624fca650905c7fbb02a9a15fd32917a3293dee"], "sequence": 4294967294, "scriptSig": {"hex": "160014fb1b71d0ef8059fdbce91aba03b7eec5f1226df5", "asm": "0014fb1b71d0ef8059fdbce91aba03b7eec5f1226df5"}, "vout": 0, "txid": "0fcb0a98438e4f2ffcbd2ad8d25ad6c67347112e2de7f71161761d223844ee61"}, {"txinwitness": ["3045022100b3ef91d50dbbd0806876d6ff57820bc4cca4fb1b6d6a3746b02ff044ab36273c0220334e88df6583620a418a92238da33334060c37a8dd6caa69f13aa28ed85418a101", "025ecf3339393141d5ce73dbb37b5e99422aef3bb3935149aee6030f40c8520278"], "sequence": 4294967294, "scriptSig": {"hex": "160014c88aafc84da68a426ee39ef3e85e466ca4d49e1c", "asm": "0014c88aafc84da68a426ee39ef3e85e466ca4d49e1c"}, "vout": 0, "txid": "2a8fcc6123c2f3d6f8c21adc6afac23d197b7f1337a9402fa5933ef99557b264"}, {"txinwitness": ["3044022051ef2c9dd5f270c41ac280b5991baf588393deb07c3ef75d95d573180969455902202870771db08590c3be8f8b194d5c41847ca8d409a26dc92438c2a35fa018929a01", "027635147a645434702cf28633b060609e2331b832c5cbd2c52b7ea4adbd011384"], "sequence": 4294967294, "scriptSig": {"hex": "160014a7dacf40e8dde6ffd70042cf6edd1b5cbca3c435", "asm": "0014a7dacf40e8dde6ffd70042cf6edd1b5cbca3c435"}, "vout": 1, "txid": "04aad7db231d479ea69f4cba0a404de2cb924c66424d22df63e414404dc2ad69"}, {"txinwitness": ["304402206d91d24724cd126aff69fce87804699085e93d86d188c5df949ab0f57ecc805a02204d608993c740ae24ef7c781b4e54e2e43099b0f8112df7987e9cf13d0d87db1301", "0365d3af3b6eeb8e8ea3f6cca32dd320721df9cc0e35e178fb8f59d89c4d412087"], "sequence": 4294967294, "scriptSig": {"hex": "160014aa3b89b7e8ee43b2048e4da3d52ed8d8bbdf406d", "asm": "0014aa3b89b7e8ee43b2048e4da3d52ed8d8bbdf406d"}, "vout": 0, "txid": "70b5f1da0a51f006500a3b100dfcf7183fb549985e247070d496207e2075d57e"}, {"txinwitness": ["304402206d5cece24e7741475e9273bc0497304cf425f30d1b7f7e3decad9649825536be0220244a1f974a4d5045b8150d41556e7acf8378239c130e6963b1507b365051435d01", "0387eebde0ca664721eeb0343b8c98594672d5a7e624055341550150a2f165acba"], "sequence": 4294967294, "scriptSig": {"hex": "1600142bc0e5e3ec36012450625521f874b99996ceccea", "asm": "00142bc0e5e3ec36012450625521f874b99996ceccea"}, "vout": 1, "txid": "5e42f25040a5c0bef206ccdf7c71b6e3f417e2b3c2f5db15a92324d0abdaf280"}, {"txinwitness": ["304402200da73f9ea4792d95bf4a7f565a920939f20c2812618b67a0971702575c9c1f1102203c6cdf1daca5b595fd136ada82f43e962256c8e7fe2358268b16079b5bc67a2501", "02acb3f3d92db37b8e83c1f8d8b758cde929076832c69ff81aedf6e375a0551525"], "sequence": 4294967294, "scriptSig": {"hex": "160014dfb553e489928d6a17689fc02e77d01a2b170976", "asm": "0014dfb553e489928d6a17689fc02e77d01a2b170976"}, "vout": 0, "txid": "fb54a679dba27645034f5014524e319d1b361c2e49c3faf089b42816c7663e82"}, {"txinwitness": ["304402205abb7d8e28bd450f8bcc41437d6483ed7761d33ce584c17521913fc36dc3993a02206a0fba6716e81c7b405daa47ad4f0bcd3dfba26e0bc6860f89895f44beb024c301", "03e4865e73ad3de8614209d586cf065435588b11cbfd550c045a3a69b4afc16a76"], "sequence": 4294967294, "scriptSig": {"hex": "160014440d75dd4f3d07a79c7d4a3c5843507b2ad6f5f9", "asm": "0014440d75dd4f3d07a79c7d4a3c5843507b2ad6f5f9"}, "vout": 0, "txid": "ce5134d3ef802754d1b0e60993de07a2e04a7b732ab12dc010af5eac591f1c87"}, {"txinwitness": ["3044022003a596852319e576d33aecf4bac9256ff0138fc20ca55a6f4d4f9acc587dc54702200390eab797d07adabe56aee3b60969aa80c378ff424d3cad26c04c1735b93c5801", "022e3505626358a3ad43113965bbbbfa0c5e30f09ecac475e573bcbf68c1230d8b"], "sequence": 4294967294, "scriptSig": {"hex": "16001488e3bc069d9ec20dc4126c2eddd72b8c3b96937d", "asm": "001488e3bc069d9ec20dc4126c2eddd72b8c3b96937d"}, "vout": 0, "txid": "1881161470e76eab6fc6b921334d6c5dc29892ece1b365672f173ac7bc700b88"}, {"txinwitness": ["3045022100d8c533686e69efac0eee9d753a646fb2b2c4b42c14f1bee5a5c683e19de9257b0220192f33b78c184eacd191c014c37eba69afcbf697b36e98a9942526a1838ad47d01", "03acede925cd00fb6137ccde60bf549290e0163aaf1ce78e1fb7630b812e5de81a"], "sequence": 4294967294, "scriptSig": {"hex": "160014c8f277c8acd7a3898124352b56453bcc95696fc2", "asm": "0014c8f277c8acd7a3898124352b56453bcc95696fc2"}, "vout": 1, "txid": "2c32598e5299f24aaa09b64475bf17a8df8483fb23fef38d591b7933597afd88"}, {"txinwitness": ["3045022100b8a3744dd41f0f7561861509b086b54b9215467f231d28fe17e3148e03dc40b902206164a1330090d10900ca8ace2af8c01a98c0c3b4acb1b12f32ea46727c58b14301", "02b0f8b2580af8314d588d8cdc32420533ff768c82b8e71a5ba8b88136645f709e"], "sequence": 4294967294, "scriptSig": {"hex": "16001415312adeeeca998e15a54adb13f013b14f643d56", "asm": "001415312adeeeca998e15a54adb13f013b14f643d56"}, "vout": 1, "txid": "a8ef286fb9da42f51fdbd7f41c3dc94a14819fc77e7b3e412fbe484eb537f291"}, {"txinwitness": ["304402207d09858d7163a44817acf5f0a45cd51cb4c293bb43508cdaa4ef3c4e4d3395ac0220129d18aacbd3406222533d8c45149fef6e465c0007b6850b5c9f990a7a61ef0501", "02648b0e13c53e4302d02d8a2e122f4b89cf8762964d5f89da4b6a07407745a3bb"], "sequence": 4294967294, "scriptSig": {"hex": "160014947f8049adbb7943ff1a2da4912e9afe745ccb31", "asm": "0014947f8049adbb7943ff1a2da4912e9afe745ccb31"}, "vout": 1, "txid": "fbba6d0e7015cc6913ee48b1e0ae594489b0ed104f45b89600946b35f688209c"}, {"txinwitness": ["3045022100d7c1830b2b9c868c43031dfc545ac6fa9c151f3e1c905190bbb76f26bcbebca002203ae3e1e5f456d306c87922953fad1c3a125af46f1a0ef21a34bdca71783ca5ce01", "0378b92168919bbd6990bbe1757d36e44be91757787d910d654e5f219ea1faf2f9"], "sequence": 4294967294, "scriptSig": {"hex": "1600147d53a2f468b03e12adf6808a2e0392a1ac0ceed2", "asm": "00147d53a2f468b03e12adf6808a2e0392a1ac0ceed2"}, "vout": 0, "txid": "7bc7529d85c6b8eeb7a46a1a503c64f9cfb435a7c1e6dbe52d6992184848e09c"}, {"txinwitness": ["3045022100cee1ba96caf0d91be0885704058d403b87fb96b162e6b63ad5bcda65c251663c0220251a021451bdf69ff3b3d89acaae55ab38a40a7cf5b612b12687424a23fe50da01", "038af4b7435ebb445bb1d2140d95b417f61dc595081bee08177865e60ad6b40d01"], "sequence": 4294967294, "scriptSig": {"hex": "16001492141929235c7a66cf496d8492f3f1a103594864", "asm": "001492141929235c7a66cf496d8492f3f1a103594864"}, "vout": 1, "txid": "d578120fc6e91896f5972ed2847f6d33e4b7fa0aba7dd992cd1e258d052602a6"}, {"txinwitness": ["3045022100b4cc6f86c10fd4d4441d65e3ef5c08e6117b0599410b44f8e803a132423fa4b002200603c7cad75364b32da4636fa611e43faf60f41b6b00738c4e8f18af831c579401", "025cc91e6e0cf1251ca6a1172a75523000cf7797051c792304a114e1edaaaa67f8"], "sequence": 4294967294, "scriptSig": {"hex": "160014dda69e5e485a53bf6b6384b7b118f43d104484ce", "asm": "0014dda69e5e485a53bf6b6384b7b118f43d104484ce"}, "vout": 1, "txid": "4a84cade50d935933aba79800688173a23b6f95ab6bf07f47e7b9ae1ccc161b6"}, {"txinwitness": ["304502210091dcf909eebe3822f3a3c2936e861b68a15dd3d9b92d603048ffffcc30a6ea6a02207e967c58a4e62c8b69a327c4d7eaec4efdc0c02d5f36d2c2cfbca6eea33e2b1001", "027a919a4beb835f127498daa447821414ecb3a7b51898962b8209221f51bf2586"], "sequence": 4294967294, "scriptSig": {"hex": "1600149b9b78527608fbbad62eed55bd8bd7a64d075752", "asm": "00149b9b78527608fbbad62eed55bd8bd7a64d075752"}, "vout": 1, "txid": "f5aa8f23da40671ca29b7a668d9bbb90019dfa7632ef587c58d3da60e58fc5b8"}, {"txinwitness": ["3045022100ca57daf08d7dac317e6c0b7301933548540ea8fb9dd7e781508b6f1dd12cda15022070bcbb71708d55bcd8a7bc92f97441d5cf5ee9fb786c4ab4e2aa35710b6ebe9b01", "02831cd0da9b379186da7cf80867fa03ae9539bb886f278b5f92095dbd803a585d"], "sequence": 4294967294, "scriptSig": {"hex": "1600142974810edff5614e703e67356e34a696eba1e8b2", "asm": "00142974810edff5614e703e67356e34a696eba1e8b2"}, "vout": 1, "txid": "1446beb72938e72e4f597d004c5f775c0436b9c7c5a572b542551eae62b315cb"}, {"txinwitness": ["3045022100cb69543ba939a01e814891204c3420d451f97413343c21d01a4adde6413a8f810220083c8ef31f4cfcf69a7f56c52fd88fce5ec72873efecaecfa9eb83b47294014b01", "035c5523caf0c16e8db2eee4d13aab5612db3a568783f13b80e6039cd4893e5eab"], "sequence": 4294967294, "scriptSig": {"hex": "16001499fb02140f94414745bc3be73e61dd3ce6bf1c93", "asm": "001499fb02140f94414745bc3be73e61dd3ce6bf1c93"}, "vout": 0, "txid": "074c69748a24aade5c9c2d92a57af6ed573e50a055642eb2636b21ddafc0bacc"}, {"txinwitness": ["3045022100be4dd6f06952a2cb531d0d41e991844e86ba0e7236f0c69a6f516333e853480f022056fa833889031ca87b08e28ed8649ce351b5a7731c3e20a77596a23ecd4bcdcb01", "02cc0583d813880cce65fac36aa7ecd34446e0a6c0dcdc66235f18403abcacde14"], "sequence": 4294967294, "scriptSig": {"hex": "160014698a9a525713f120428821ad21d8a97592030b3d", "asm": "0014698a9a525713f120428821ad21d8a97592030b3d"}, "vout": 0, "txid": "7f38cebadeb890746e134dea092b9ff22e49c85cea7163ebaabd2df2fd62efcd"}, {"txinwitness": ["304502210088f3523965efffb536c30b695a1307e93de51db78a117782b2020772c0a93fff022063d08fa7027387662ebd975618c87449d76ba481b4cd968c70866c876a3f500901", "024457fc9cfc6086ff2c1edc6fe6f967594a78b346f79ec1349a41921df48a55b7"], "sequence": 4294967294, "scriptSig": {"hex": "1600142be349fabb41e9a9f98517ecc0d932f3666d94f4", "asm": "00142be349fabb41e9a9f98517ecc0d932f3666d94f4"}, "vout": 0, "txid": "05a6c2e44dd52da1dbb5207f867632291e8919a11db2f574870cbaf592dea3eb"}, {"txinwitness": ["3045022100b2f8a4542a34f7be6f63802506e6cf503aff362a684207a42f5025a88022c1df02206d75f57d0b14407663879f47e5188c8e644ac90410fe1fe54c65c65519cb204b01", "021b34eebd4dbbe9e9249f1f8e79a1c8ccd8ae9d2ff7f04817356e9421a708dffe"], "sequence": 4294967294, "scriptSig": {"hex": "160014c5fd4f072df765f32ac81419130b83c75cc03397", "asm": "0014c5fd4f072df765f32ac81419130b83c75cc03397"}, "vout": 0, "txid": "c88e9eb4bd3e250d51de098be1787f43accacbf1523c03747f5def5d86e6cbfb"}], "txid": "a53e48d94096abe1ef5a99f298b98279f65b553dd1b2175a50e68149322116d2", "blocktime": 1537869901, "version": 2, "confirmations": 11524, "time": 1537869901, "locktime": 0, "vsize": 2529, "size": 4707}