{"hash": "a5440650e95e2167afaaaf9cf6026025d20f9ef8e484b1ec19fe5e94fd4d38d5", "blockhash": "0000000000000000000baef3f32e3676a92c3b2e5da21b426e4f302fc371ce76", "vout": [{"scriptPubKey": {"reqSigs": 1, "hex": "76a9141050a021d1fb124e413b65a914b080394f2de98488ac", "addresses": ["12VGQ2eNfR2muYbuMHjHj9woE2GXCxp7Rq"], "asm": "OP_DUP OP_HASH160 1050a021d1fb124e413b65a914b080394f2de984 OP_EQUALVERIFY OP_CHECKSIG", "type": "pubkeyhash"}, "value": 7.03e-06, "n": 0}, {"scriptPubKey": {"reqSigs": 1, "hex": "a91492325334cb05fbd29a3bb0acbb7e885321fedfd187", "addresses": ["3F22sCGBS5oH3Df6XuNehYQr2896GnY9a9"], "asm": "OP_HASH160 92325334cb05fbd29a3bb0acbb7e885321fedfd1 OP_EQUAL", "type": "scripthash"}, "value": 0.0019, "n": 1}], "hex": "0100000002e730a2c971a5360f01929d3ffc565d0618a7d110ff1593df999d968061384329000000006b483045022100ab4dc56305bdd1b2d5adf475fac15096b0de4ffcbf9f71268b71dc8e7cfad69702205f35f5bf110e7fd9132a62ab0b67615e8e33a995efeaaa677cf41f1970abdc0b012102056a47ac963b7ebe65f907f8def378b735bca62a8b6cf92d8de5dae074426675ffffffff479174dfc297f0d832e85777bd7f9d6291a405a18a60d1a1ebbeaaee7644f38b0c0000006a473044022067d1e2683fcda0be4b65ce67ed222feb20cddf66666eb92be9510832577656a7022029c8c90310b2e98832c1f5d437aa9460be24a2e1e4b7dc5ae9733f2f409b6f42012102f22d5860112c30be855bf835caae93e246aa9b46f855e94af38a8e5a3b7eb617ffffffff02bf020000000000001976a9141050a021d1fb124e413b65a914b080394f2de98488ac30e602000000000017a91492325334cb05fbd29a3bb0acbb7e885321fedfd18700000000", "vin": [{"sequence": 4294967295, "scriptSig": {"hex": "483045022100ab4dc56305bdd1b2d5adf475fac15096b0de4ffcbf9f71268b71dc8e7cfad69702205f35f5bf110e7fd9132a62ab0b67615e8e33a995efeaaa677cf41f1970abdc0b012102056a47ac963b7ebe65f907f8def378b735bca62a8b6cf92d8de5dae074426675", "asm": "3045022100ab4dc56305bdd1b2d5adf475fac15096b0de4ffcbf9f71268b71dc8e7cfad69702205f35f5bf110e7fd9132a62ab0b67615e8e33a995efeaaa677cf41f1970abdc0b[ALL] 02056a47ac963b7ebe65f907f8def378b735bca62a8b6cf92d8de5dae074426675"}, "vout": 0, "txid": "2943386180969d99df9315ff10d1a718065d56fc3f9d92010f36a571c9a230e7"}, {"sequence": 4294967295, "scriptSig": {"hex": "473044022067d1e2683fcda0be4b65ce67ed222feb20cddf66666eb92be9510832577656a7022029c8c90310b2e98832c1f5d437aa9460be24a2e1e4b7dc5ae9733f2f409b6f42012102f22d5860112c30be855bf835caae93e246aa9b46f855e94af38a8e5a3b7eb617", "asm": "3044022067d1e2683fcda0be4b65ce67ed222feb20cddf66666eb92be9510832577656a7022029c8c90310b2e98832c1f5d437aa9460be24a2e1e4b7dc5ae9733f2f409b6f42[ALL] 02f22d5860112c30be855bf835caae93e246aa9b46f855e94af38a8e5a3b7eb617"}, "vout": 12, "txid": "8bf34476eeaabeeba1d1608aa105a491629d7fbd7757e832d8f097c2df749147"}], "txid": "a5440650e95e2167afaaaf9cf6026025d20f9ef8e484b1ec19fe5e94fd4d38d5", "blocktime": 1537876114, "version": 1, "confirmations": 11461, "time": 1537876114, "locktime": 0, "vsize": 371, "size": 371}