{"hash": "a547e615e0ca0359b6d87effdc9e741a88f902fbd248b6bb40adfd52a35635ab", "blockhash": "0000000000000000000e13cef7c366c0283d82e591d1acd082e914b08063cdf1", "vout": [{"scriptPubKey": {"reqSigs": 1, "hex": "a9142bbb10add9241f78a06690a6660251055521e8c987", "addresses": ["35gF5JmTCuosguJZa4qnGn3ddv8LZgFhSG"], "asm": "OP_HASH160 2bbb10add9241f78a06690a6660251055521e8c9 OP_EQUAL", "type": "scripthash"}, "value": 1.10104093, "n": 0}, {"scriptPubKey": {"reqSigs": 1, "hex": "a914d3ed1bee50bc45b8a145937d3616ef3219fd780f87", "addresses": ["3M1aYectvWsVErF4ZMP6Zcz6aSacJ5X2aq"], "asm": "OP_HASH160 d3ed1bee50bc45b8a145937d3616ef3219fd780f OP_EQUAL", "type": "scripthash"}, "value": 0.005, "n": 1}], "hex": "0200000001bd601fd1ec37013fcd1fe3dd79e320ab6f10c22a5173033ec74ef211690b3a0400000000fdfd00004830450221008c5db2c5fdbeb6329c1c86069a3a32f92930890dad0408962df676d7735cddd8022062410175f2f31cb63d32fa1bc3a57ac6d7c83eceabc0adbb89cb60f8456cd4ff01473044022053f16c5948793d6b7790dfa70039c1b1b4506c4478717639b7dbb52d1e972c0502207d7428ea1c0e720c11e2f4e193dfc4a8550d7476d1815d5eefd62397fcaf0cbb014c69522102351b94b92959b38a350f3a60e885a3589b39f860d3c8e4ed79d5c9f88235185f2103edf26f5d6c7ae803de2facd3e4cdef463380501a476842b9683ea4be311449122102ced6790c1b9a770db1a839c0b072354b9b4a1dcb78fd474d01b7dabfa6c16e4e53ae00000000021d0e90060000000017a9142bbb10add9241f78a06690a6660251055521e8c98720a107000000000017a914d3ed1bee50bc45b8a145937d3616ef3219fd780f8700000000", "vin": [{"sequence": 0, "scriptSig": {"hex": "004830450221008c5db2c5fdbeb6329c1c86069a3a32f92930890dad0408962df676d7735cddd8022062410175f2f31cb63d32fa1bc3a57ac6d7c83eceabc0adbb89cb60f8456cd4ff01473044022053f16c5948793d6b7790dfa70039c1b1b4506c4478717639b7dbb52d1e972c0502207d7428ea1c0e720c11e2f4e193dfc4a8550d7476d1815d5eefd62397fcaf0cbb014c69522102351b94b92959b38a350f3a60e885a3589b39f860d3c8e4ed79d5c9f88235185f2103edf26f5d6c7ae803de2facd3e4cdef463380501a476842b9683ea4be311449122102ced6790c1b9a770db1a839c0b072354b9b4a1dcb78fd474d01b7dabfa6c16e4e53ae", "asm": "0 30450221008c5db2c5fdbeb6329c1c86069a3a32f92930890dad0408962df676d7735cddd8022062410175f2f31cb63d32fa1bc3a57ac6d7c83eceabc0adbb89cb60f8456cd4ff[ALL] 3044022053f16c5948793d6b7790dfa70039c1b1b4506c4478717639b7dbb52d1e972c0502207d7428ea1c0e720c11e2f4e193dfc4a8550d7476d1815d5eefd62397fcaf0cbb[ALL] 522102351b94b92959b38a350f3a60e885a3589b39f860d3c8e4ed79d5c9f88235185f2103edf26f5d6c7ae803de2facd3e4cdef463380501a476842b9683ea4be311449122102ced6790c1b9a770db1a839c0b072354b9b4a1dcb78fd474d01b7dabfa6c16e4e53ae"}, "vout": 0, "txid": "043a0b6911f24ec73e0373512ac2106fab20e379dde31fcd3f0137ecd11f60bd"}], "txid": "a547e615e0ca0359b6d87effdc9e741a88f902fbd248b6bb40adfd52a35635ab", "blocktime": 1537871767, "version": 2, "confirmations": 11491, "time": 1537871767, "locktime": 0, "vsize": 370, "size": 370}