{"hash": "efb7d00f7a1878de0c17664b1b755093b4bbe3e4faffa6ad89212ee9c80de53c", "blockhash": "00000000000000000004ffacab907a6b429b9a5745fa0b75af4234bf69dd7176", "vout": [{"scriptPubKey": {"reqSigs": 1, "hex": "a914470cb118233b830a74a5372af8c5e78faf58171f87", "addresses": ["38Ah71AbgH1UNYYTCtx5ADaXDd9iidUQqH"], "asm": "OP_HASH160 470cb118233b830a74a5372af8c5e78faf58171f OP_EQUAL", "type": "scripthash"}, "value": 0.02063196, "n": 0}, {"scriptPubKey": {"reqSigs": 1, "hex": "a91402aa08f28ca6a8ea77553652ddc1825d0dc9629f87", "addresses": ["31w6yAQLvhSejrdUqbELrhYztWmLJobXiw"], "asm": "OP_HASH160 02aa08f28ca6a8ea77553652ddc1825d0dc9629f OP_EQUAL", "type": "scripthash"}, "value": 0.006, "n": 1}, {"scriptPubKey": {"reqSigs": 1, "hex": "a914d6fe974bbb34fd05a417be5be77492d357779b5187", "addresses": ["3MHoWtUC9kMV3RQTmok2PN2jh85h3UXGNv"], "asm": "OP_HASH160 d6fe974bbb34fd05a417be5be77492d357779b51 OP_EQUAL", "type": "scripthash"}, "value": 0.00886067, "n": 2}, {"scriptPubKey": {"reqSigs": 1, "hex": "76a9140bcc978289df19cff2f5aab0fdc7315fbcaa777f88ac", "addresses": ["125PXQCt7Rf5RNSQ25CozdBcUfLf9Viy1L"], "asm": "OP_DUP OP_HASH160 0bcc978289df19cff2f5aab0fdc7315fbcaa777f OP_EQUALVERIFY OP_CHECKSIG", "type": "pubkeyhash"}, "value": 0.21304676, "n": 3}, {"scriptPubKey": {"reqSigs": 1, "hex": "a91477352886f9b05be8b81fb7ec59a273738234cf8587", "addresses": ["3CZL1sk24Up3UuYhQjqrfvoehAjPEeiL32"], "asm": "OP_HASH160 77352886f9b05be8b81fb7ec59a273738234cf85 OP_EQUAL", "type": "scripthash"}, "value": 0.0035646, "n": 4}, {"scriptPubKey": {"reqSigs": 1, "hex": "76a914a7833b38fdf53db2d3eda12e87094a88e8d7235a88ac", "addresses": ["1GGj49dyTToLkngwLtQk2N57f6pLhMtD6A"], "asm": "OP_DUP OP_HASH160 a7833b38fdf53db2d3eda12e87094a88e8d7235a OP_EQUALVERIFY OP_CHECKSIG", "type": "pubkeyhash"}, "value": 0.00031269, "n": 5}, {"scriptPubKey": {"reqSigs": 1, "hex": "a9140709e66942915262a3bea4560e038c9df893e6a587", "addresses": ["32LEWkfZP1bK12sNcXQJtuyYNMH3MwoSvC"], "asm": "OP_HASH160 0709e66942915262a3bea4560e038c9df893e6a5 OP_EQUAL", "type": "scripthash"}, "value": 0.00230698, "n": 6}, {"scriptPubKey": {"reqSigs": 1, "hex": "a91466efd295efed2a7cbd181f5ed4c4b4d3e72972e487", "addresses": ["3B5J9H1bJo6ampVD5AuLcB3hJJtecKTsja"], "asm": "OP_HASH160 66efd295efed2a7cbd181f5ed4c4b4d3e72972e4 OP_EQUAL", "type": "scripthash"}, "value": 0.012087, "n": 7}, {"scriptPubKey": {"reqSigs": 1, "hex": "76a914566067b9f680c35130008140968a1c635812d2b488ac", "addresses": ["18sibr7nSUtMoYJyKavWAaG2CmHbAJwVEP"], "asm": "OP_DUP OP_HASH160 566067b9f680c35130008140968a1c635812d2b4 OP_EQUALVERIFY OP_CHECKSIG", "type": "pubkeyhash"}, "value": 0.11569074, "n": 8}, {"scriptPubKey": {"reqSigs": 1, "hex": "a914c6b00ac4a1b3b28f0ce7ce0a3567b80b1e8c1a6087", "addresses": ["3Koac9FmpMXAcnTC7REvCZ91uiomMhyrcq"], "asm": "OP_HASH160 c6b00ac4a1b3b28f0ce7ce0a3567b80b1e8c1a60 OP_EQUAL", "type": "scripthash"}, "value": 0.00248345, "n": 9}, {"scriptPubKey": {"reqSigs": 1, "hex": "a91457b574b470d147672d248930a2f48538260f863c87", "addresses": ["39gn61ShB3g1zyba1XaJmEhZPPr1reumpz"], "asm": "OP_HASH160 57b574b470d147672d248930a2f48538260f863c OP_EQUAL", "type": "scripthash"}, "value": 16.14246502, "n": 10}, {"scriptPubKey": {"reqSigs": 1, "hex": "a91413f2f5bbc08a5ffee9ab36bd75203e2a3bd9a66487", "addresses": ["33WVpLZVLmUgcC6x5sJX2LVKUpEjUn5jGn"], "asm": "OP_HASH160 13f2f5bbc08a5ffee9ab36bd75203e2a3bd9a664 OP_EQUAL", "type": "scripthash"}, "value": 0.00023638, "n": 11}, {"scriptPubKey": {"reqSigs": 1, "hex": "a914c858fe9f04d86152d61688f0bdf93c5a32aa18eb87", "addresses": ["3KxMgN4onydgxCSEkoZMgGZbtSqofSVBUa"], "asm": "OP_HASH160 c858fe9f04d86152d61688f0bdf93c5a32aa18eb OP_EQUAL", "type": "scripthash"}, "value": 0.00394113, "n": 12}, {"scriptPubKey": {"reqSigs": 1, "hex": "a914f21b4100f6d8a9611ac66e8e33544a83ec4decaf87", "addresses": ["3PmA6btXinpSBDZmH21AJXpQbUSLLgTuPT"], "asm": "OP_HASH160 f21b4100f6d8a9611ac66e8e33544a83ec4decaf OP_EQUAL", "type": "scripthash"}, "value": 0.00201143, "n": 13}, {"scriptPubKey": {"reqSigs": 1, "hex": "a9149134fd3f0d3972745acd16cad3565e9ded826e9e87", "addresses": ["3EvoP7hcX1d4QwH9foZNRrhXeNsnZEZDzK"], "asm": "OP_HASH160 9134fd3f0d3972745acd16cad3565e9ded826e9e OP_EQUAL", "type": "scripthash"}, "value": 0.00572101, "n": 14}, {"scriptPubKey": {"reqSigs": 1, "hex": "76a914ba692ea1c5818f6f4974b3bb15b08228a82fe19c88ac", "addresses": ["1HzegsA6ic2B42mswKM8W1nXKrZ9MydHUw"], "asm": "OP_DUP OP_HASH160 ba692ea1c5818f6f4974b3bb15b08228a82fe19c OP_EQUALVERIFY OP_CHECKSIG", "type": "pubkeyhash"}, "value": 1.09068769, "n": 15}, {"scriptPubKey": {"reqSigs": 1, "hex": "76a914ffecb8113e64ae0d88b8547cfc67e5f3c9bbc46188ac", "addresses": ["1QLCtSeLSrmgS1YPVBsPh547UXM3DeXWdR"], "asm": "OP_DUP OP_HASH160 ffecb8113e64ae0d88b8547cfc67e5f3c9bbc461 OP_EQUALVERIFY OP_CHECKSIG", "type": "pubkeyhash"}, "value": 0.00078173, "n": 16}, {"scriptPubKey": {"reqSigs": 1, "hex": "a9149c6f2efdff951a576bcc5b0202e38fc53bb1a2a087", "addresses": ["3FxAXdzr8YHWk62TaL1SN1BHH5r24MmU2c"], "asm": "OP_HASH160 9c6f2efdff951a576bcc5b0202e38fc53bb1a2a0 OP_EQUAL", "type": "scripthash"}, "value": 0.0034118, "n": 17}, {"scriptPubKey": {"reqSigs": 1, "hex": "76a914d6708287485dbf1e76d9de8271567cf868e4d44088ac", "addresses": ["1LYrPNkUgos95knWCfSsRUX5Xe8fDcFv98"], "asm": "OP_DUP OP_HASH160 d6708287485dbf1e76d9de8271567cf868e4d440 OP_EQUALVERIFY OP_CHECKSIG", "type": "pubkeyhash"}, "value": 1.2114, "n": 18}, {"scriptPubKey": {"reqSigs": 1, "hex": "76a91424d9a0c8485dadcd4a722dae722725ce6325b11e88ac", "addresses": ["14Mr2yAS3JGdNkWx2ppyKREmDfbh7RFcDJ"], "asm": "OP_DUP OP_HASH160 24d9a0c8485dadcd4a722dae722725ce6325b11e OP_EQUALVERIFY OP_CHECKSIG", "type": "pubkeyhash"}, "value": 0.01434301, "n": 19}, {"scriptPubKey": {"reqSigs": 1, "hex": "76a914a730aa3d7aa0738381b5b5237bee82dc57e55d1c88ac", "addresses": ["1GF29Lg4viJaJ2tj4zBCCihkYDfu7mJtkw"], "asm": "OP_DUP OP_HASH160 a730aa3d7aa0738381b5b5237bee82dc57e55d1c OP_EQUALVERIFY OP_CHECKSIG", "type": "pubkeyhash"}, "value": 0.03126905, "n": 20}, {"scriptPubKey": {"reqSigs": 1, "hex": "76a914e7d92048c9dc2d9b1fd1ae2f4b4429f844e0f68788ac", "addresses": ["1N8uCVyEUXqUCvDK7TsL7NR5tsDDrUmpXC"], "asm": "OP_DUP OP_HASH160 e7d92048c9dc2d9b1fd1ae2f4b4429f844e0f687 OP_EQUALVERIFY OP_CHECKSIG", "type": "pubkeyhash"}, "value": 0.0029302, "n": 21}, {"scriptPubKey": {"reqSigs": 1, "hex": "a91402a1300c994d6556186d5014b2bef2bfc7af615687", "addresses": ["31vvNSjvsju1kY7AN9V68fmEdjKGGHxdAN"], "asm": "OP_HASH160 02a1300c994d6556186d5014b2bef2bfc7af6156 OP_EQUAL", "type": "scripthash"}, "value": 0.00280186, "n": 22}, {"scriptPubKey": {"reqSigs": 1, "hex": "76a91468625cfad9d40d9dc0367e66a17135992862f67788ac", "addresses": ["1AWw7M3GNahST5eqUyzYc6TN7AAcx9qirs"], "asm": "OP_DUP OP_HASH160 68625cfad9d40d9dc0367e66a17135992862f677 OP_EQUALVERIFY OP_CHECKSIG", "type": "pubkeyhash"}, "value": 0.003, "n": 23}, {"scriptPubKey": {"reqSigs": 1, "hex": "a914a4fd27f27cad75f9f924d0fc7517277dfe6793ec87", "addresses": ["3GjQ1bRFaemsFvJvsk7gpdSttqF4kTSPhE"], "asm": "OP_HASH160 a4fd27f27cad75f9f924d0fc7517277dfe6793ec OP_EQUAL", "type": "scripthash"}, "value": 0.000138, "n": 24}, {"scriptPubKey": {"reqSigs": 1, "hex": "a914fe9bfd93ef9d05a6afb0b1d1f1d57553418a9c5187", "addresses": ["3QuGRgUBYT4wyzq9kxYtexgD69iHKcSwrn"], "asm": "OP_HASH160 fe9bfd93ef9d05a6afb0b1d1f1d57553418a9c51 OP_EQUAL", "type": "scripthash"}, "value": 0.00248165, "n": 25}, {"scriptPubKey": {"reqSigs": 1, "hex": "a9145b42dbaef092b089db97ee5d2ee0ee585e0a272087", "addresses": ["3A1ZWPJ4KXrRHsbrgcEMdeeJf2bs4t4rq3"], "asm": "OP_HASH160 5b42dbaef092b089db97ee5d2ee0ee585e0a2720 OP_EQUAL", "type": "scripthash"}, "value": 0.00061, "n": 26}, {"scriptPubKey": {"reqSigs": 1, "hex": "a9143e9142961f2ad3c7da6c9d3e42bad3708162f01f87", "addresses": ["37PqqHYra6wAShfdVWCbyJCE11XZoTH5vf"], "asm": "OP_HASH160 3e9142961f2ad3c7da6c9d3e42bad3708162f01f OP_EQUAL", "type": "scripthash"}, "value": 0.0432, "n": 27}, {"scriptPubKey": {"reqSigs": 1, "hex": "76a914fc7133f4c55c35843e0a963ce45834d3b5aed8b988ac", "addresses": ["1Q1ntpakQL2yK1fc5NSUzvM1zaoU6ubxwG"], "asm": "OP_DUP OP_HASH160 fc7133f4c55c35843e0a963ce45834d3b5aed8b9 OP_EQUALVERIFY OP_CHECKSIG", "type": "pubkeyhash"}, "value": 0.00918148, "n": 28}], "hex": "0200000000010121a3cdc7f3ad47ffec50b0087c554e846e2b7f2c051ff93fc1ae011113d4dad7170000001716001428d17cef9aa1a987258eed0fc15762a8467c6476feffffff1d5c7b1f000000000017a914470cb118233b830a74a5372af8c5e78faf58171f87c02709000000000017a91402aa08f28ca6a8ea77553652ddc1825d0dc9629f8733850d000000000017a914d6fe974bbb34fd05a417be5be77492d357779b518764154501000000001976a9140bcc978289df19cff2f5aab0fdc7315fbcaa777f88ac6c7005000000000017a91477352886f9b05be8b81fb7ec59a273738234cf8587257a0000000000001976a914a7833b38fdf53db2d3eda12e87094a88e8d7235a88ac2a8503000000000017a9140709e66942915262a3bea4560e038c9df893e6a5877c7112000000000017a91466efd295efed2a7cbd181f5ed4c4b4d3e72972e487b287b000000000001976a914566067b9f680c35130008140968a1c635812d2b488ac19ca03000000000017a914c6b00ac4a1b3b28f0ce7ce0a3567b80b1e8c1a6087667237600000000017a91457b574b470d147672d248930a2f48538260f863c87565c00000000000017a91413f2f5bbc08a5ffee9ab36bd75203e2a3bd9a66487810306000000000017a914c858fe9f04d86152d61688f0bdf93c5a32aa18eb87b71103000000000017a914f21b4100f6d8a9611ac66e8e33544a83ec4decaf87c5ba08000000000017a9149134fd3f0d3972745acd16cad3565e9ded826e9e87e1418006000000001976a914ba692ea1c5818f6f4974b3bb15b08228a82fe19c88ac5d310100000000001976a914ffecb8113e64ae0d88b8547cfc67e5f3c9bbc46188acbc3405000000000017a9149c6f2efdff951a576bcc5b0202e38fc53bb1a2a08720733807000000001976a914d6708287485dbf1e76d9de8271567cf868e4d44088acbde21500000000001976a91424d9a0c8485dadcd4a722dae722725ce6325b11e88ac79b62f00000000001976a914a730aa3d7aa0738381b5b5237bee82dc57e55d1c88ac9c780400000000001976a914e7d92048c9dc2d9b1fd1ae2f4b4429f844e0f68788ac7a4604000000000017a91402a1300c994d6556186d5014b2bef2bfc7af615687e0930400000000001976a91468625cfad9d40d9dc0367e66a17135992862f67788ace83500000000000017a914a4fd27f27cad75f9f924d0fc7517277dfe6793ec8765c903000000000017a914fe9bfd93ef9d05a6afb0b1d1f1d57553418a9c518748ee00000000000017a9145b42dbaef092b089db97ee5d2ee0ee585e0a27208700eb41000000000017a9143e9142961f2ad3c7da6c9d3e42bad3708162f01f8784020e00000000001976a914fc7133f4c55c35843e0a963ce45834d3b5aed8b988ac02483045022100893897071a9d0f731cdcd46672eed3c17b4469eba21693b5110b40f0117df8e202207c3e06bd417e18d16a85d7c8af4d6ac376fb2ce6b784b788b45e1160cfc2c958012103a976494dcd394e3cf55972ffced093e4c10ea002d9fa6ff0a08b8652600484db16490800", "vin": [{"txinwitness": ["3045022100893897071a9d0f731cdcd46672eed3c17b4469eba21693b5110b40f0117df8e202207c3e06bd417e18d16a85d7c8af4d6ac376fb2ce6b784b788b45e1160cfc2c95801", "03a976494dcd394e3cf55972ffced093e4c10ea002d9fa6ff0a08b8652600484db"], "sequence": 4294967294, "scriptSig": {"hex": "16001428d17cef9aa1a987258eed0fc15762a8467c6476", "asm": "001428d17cef9aa1a987258eed0fc15762a8467c6476"}, "vout": 23, "txid": "d7dad4131101aec13ff91f052c7f2b6e844e557c08b050ecff47adf3c7cda321"}], "txid": "a54b6383f5e9346d43f3eb7554d07d3d0c8df2328ecfd2943cc9bc517a2c7be8", "blocktime": 1537875543, "version": 2, "confirmations": 11464, "time": 1537875543, "locktime": 542998, "vsize": 1052, "size": 1134}