{"hash": "09bf83edaf4f0130c69dc6c103142fe884a0be7214d662b022fd731727f41d2a", "blockhash": "0000000000000000001f76057863aec43deb6fa401d9628bb513d65a8098bfab", "vout": [{"scriptPubKey": {"reqSigs": 1, "hex": "0014b13169aa38fb1b4a323bf4f11f3cf67c353b7ac5", "addresses": ["bc1qkyckn23clvd55v3m7nc3708k0s6nk7k90h3r8a"], "asm": "0 b13169aa38fb1b4a323bf4f11f3cf67c353b7ac5", "type": "witness_v0_keyhash"}, "value": 1.379e-05, "n": 0}, {"scriptPubKey": {"reqSigs": 1, "hex": "76a914d2ef9d71b935cefdfeac5a493813f20ac7985e0e88ac", "addresses": ["1LEKx2bspnFtTxkNQ6vANew6cJKZ5kPTei"], "asm": "OP_DUP OP_HASH160 d2ef9d71b935cefdfeac5a493813f20ac7985e0e OP_EQUALVERIFY OP_CHECKSIG", "type": "pubkeyhash"}, "value": 0.00195065, "n": 1}], "hex": "010000000001019968475105aba01d9b242b02e9eef69a0a26a928a683808b565414efc1cbc7efb800000017160014bec147e5fbb4c55475c6aa93c44810034bb9dfbcffffffff026305000000000000160014b13169aa38fb1b4a323bf4f11f3cf67c353b7ac5f9f90200000000001976a914d2ef9d71b935cefdfeac5a493813f20ac7985e0e88ac024730440220245af348b22e3aa042f5d46646223f268b798d1c71e4601f17281f4c2800d8fd0220623f86d563ad41dccc78d66bfcc8051538e06447ad25a70c1c4cdfb168458422012102beb5e81366a8e86755fcdda2a8c7568ee3431857d6734b211bd3e2443482db7400000000", "vin": [{"txinwitness": ["30440220245af348b22e3aa042f5d46646223f268b798d1c71e4601f17281f4c2800d8fd0220623f86d563ad41dccc78d66bfcc8051538e06447ad25a70c1c4cdfb16845842201", "02beb5e81366a8e86755fcdda2a8c7568ee3431857d6734b211bd3e2443482db74"], "sequence": 4294967295, "scriptSig": {"hex": "160014bec147e5fbb4c55475c6aa93c44810034bb9dfbc", "asm": "0014bec147e5fbb4c55475c6aa93c44810034bb9dfbc"}, "vout": 184, "txid": "efc7cbc1ef1454568b8083a628a9260a9af6eee9022b249b1da0ab0551476899"}], "txid": "a54f138030f948037d91733faf2b4721dc53b88f1580e3c8c921cf60929c89b9", "blocktime": 1537873891, "version": 1, "confirmations": 11478, "time": 1537873891, "locktime": 0, "vsize": 167, "size": 248}