{"hash": "d54fb235657bc16795f437cccf2285d91a593246a8714df84e060d66b37e24ca", "blockhash": "0000000000000000000e13cef7c366c0283d82e591d1acd082e914b08063cdf1", "vout": [{"scriptPubKey": {"reqSigs": 1, "hex": "a914d9e2abed1924c2562a2c277172b0ab8e655ad62b87", "addresses": ["3MZ66b7JQxGEBkjPzvYbv453AdMoWMvrbU"], "asm": "OP_HASH160 d9e2abed1924c2562a2c277172b0ab8e655ad62b OP_EQUAL", "type": "scripthash"}, "value": 2.96482338, "n": 0}], "hex": "01000000000107c8533e40a10cb1b72ed43fc001ff511205e02a7458b8dbab71f691ddc85c1048000000001716001460fe4c3565b2d71250dfe70eb8d42627e7d918afffffffff6a04d73e4bf046872ab7d6e62aa1dca3f25f69e334303d07dd06d93ef76d98710100000017160014ae86d441cf134c7028891e71eaff153953876b12ffffffff2607c12f79c9cd1d7eb622d5240270dadea4562387768638584c9c85b2458b88000000001716001460fe4c3565b2d71250dfe70eb8d42627e7d918afffffffff4668dda79f18cef1100c8e3fa9266fc9d57bdc2b4e82cb342f14f649be778caa000000001716001460fe4c3565b2d71250dfe70eb8d42627e7d918afffffffff8e3ced5619ce9a563cfbe865886ba52647bb73f999383e0e6549305ca1f8acce000000001716001404c277823b1d400fd743e6ac18ec6205dbdbd31affffffff0be88a44b391bf736f769cfef8cae2931ac66175d540288fddcacc220fd4aed9000000001716001460fe4c3565b2d71250dfe70eb8d42627e7d918afffffffff3f1f2f7898b8570c3fd807c59d8b9fde59f0e476677d5e766e5efd02521132db000000001716001460fe4c3565b2d71250dfe70eb8d42627e7d918afffffffff0122f6ab110000000017a914d9e2abed1924c2562a2c277172b0ab8e655ad62b8702483045022100e2c4ced03770da966bc72c0b8707c80b07932d5ee155a7f0fa602b88cb389d7b022036a916600ed9d665ca35e105b732297c339f53a040613c39422ae1be29275b880121032211e2cb5b11315fdb8ec7f70744d13d94b6ce1e56230aea683e59939957a9eb024730440220778c952d215d1380b2f790a74aee4912b03c1150f9d2002ecb8599cd82538ef1022012431c95d81e86620bbe6dbc9d185f9e3ed2a87a47fac6e06481f038ce6f5b5501210339d2642ba3fdce019edadd9e51caaae40f58a4883025a482be40995e6458502b02483045022100bb2da200621dca66a069c5f5d6540c661e2d368e116b0c832b766177bff51f32022037c7de4ea23862baf5ab8092e62acdd013bd25ee4a86281f927eda0453d5db480121032211e2cb5b11315fdb8ec7f70744d13d94b6ce1e56230aea683e59939957a9eb02483045022100a7f7c62f83b4c627ae21fe38f8cb3b8a47995184f9874607fa7ed2b46cb1d9a202205bae1de823c9037d9afec0a4128ff4a72bb60cb28aa5c5c3dc5763095c3c46160121032211e2cb5b11315fdb8ec7f70744d13d94b6ce1e56230aea683e59939957a9eb02483045022100af9d02a56a5c7325613a4a3a2f8b4f49381a5d82b05cb32200309edcd006682202207b51d0c9830dad9ee0b90bac14f721f91b3c52b455c8d0d38c92342651bebd7a0121036830c35ddc43089f947cd79fa76787d1198fa5a04dc05820b64b88f474826b6b02483045022100d7437958d76e0ab97249c2823e8f28903d02b29bc647b518be3169cb709ddac20220532ddcd65f4afe2f466d24b4a1b17d919bd4aa1c478ef5e3176ca7d586ce11b40121032211e2cb5b11315fdb8ec7f70744d13d94b6ce1e56230aea683e59939957a9eb02473044022100aafe259cca84110219f88387d7a77c42c37abde89ce74fd188b30da55a78f74b021f640b550b9d019e21b6e6e9d546145874c44cbd001b7a02313b183cd4cb606e0121032211e2cb5b11315fdb8ec7f70744d13d94b6ce1e56230aea683e59939957a9eb00000000", "vin": [{"txinwitness": ["3045022100e2c4ced03770da966bc72c0b8707c80b07932d5ee155a7f0fa602b88cb389d7b022036a916600ed9d665ca35e105b732297c339f53a040613c39422ae1be29275b8801", "032211e2cb5b11315fdb8ec7f70744d13d94b6ce1e56230aea683e59939957a9eb"], "sequence": 4294967295, "scriptSig": {"hex": "16001460fe4c3565b2d71250dfe70eb8d42627e7d918af", "asm": "001460fe4c3565b2d71250dfe70eb8d42627e7d918af"}, "vout": 0, "txid": "48105cc8dd91f671abdbb858742ae0051251ff01c03fd42eb7b10ca1403e53c8"}, {"txinwitness": ["30440220778c952d215d1380b2f790a74aee4912b03c1150f9d2002ecb8599cd82538ef1022012431c95d81e86620bbe6dbc9d185f9e3ed2a87a47fac6e06481f038ce6f5b5501", "0339d2642ba3fdce019edadd9e51caaae40f58a4883025a482be40995e6458502b"], "sequence": 4294967295, "scriptSig": {"hex": "160014ae86d441cf134c7028891e71eaff153953876b12", "asm": "0014ae86d441cf134c7028891e71eaff153953876b12"}, "vout": 1, "txid": "71986df73ed906dd073d3034e3695ff2a3dca12ae6d6b72a8746f04b3ed7046a"}, {"txinwitness": ["3045022100bb2da200621dca66a069c5f5d6540c661e2d368e116b0c832b766177bff51f32022037c7de4ea23862baf5ab8092e62acdd013bd25ee4a86281f927eda0453d5db4801", "032211e2cb5b11315fdb8ec7f70744d13d94b6ce1e56230aea683e59939957a9eb"], "sequence": 4294967295, "scriptSig": {"hex": "16001460fe4c3565b2d71250dfe70eb8d42627e7d918af", "asm": "001460fe4c3565b2d71250dfe70eb8d42627e7d918af"}, "vout": 0, "txid": "888b45b2859c4c58388676872356a4deda700224d522b67e1dcdc9792fc10726"}, {"txinwitness": ["3045022100a7f7c62f83b4c627ae21fe38f8cb3b8a47995184f9874607fa7ed2b46cb1d9a202205bae1de823c9037d9afec0a4128ff4a72bb60cb28aa5c5c3dc5763095c3c461601", "032211e2cb5b11315fdb8ec7f70744d13d94b6ce1e56230aea683e59939957a9eb"], "sequence": 4294967295, "scriptSig": {"hex": "16001460fe4c3565b2d71250dfe70eb8d42627e7d918af", "asm": "001460fe4c3565b2d71250dfe70eb8d42627e7d918af"}, "vout": 0, "txid": "aa8c77be49f6142f34cb824e2bdc7bd5c96f26a93f8e0c10f1ce189fa7dd6846"}, {"txinwitness": ["3045022100af9d02a56a5c7325613a4a3a2f8b4f49381a5d82b05cb32200309edcd006682202207b51d0c9830dad9ee0b90bac14f721f91b3c52b455c8d0d38c92342651bebd7a01", "036830c35ddc43089f947cd79fa76787d1198fa5a04dc05820b64b88f474826b6b"], "sequence": 4294967295, "scriptSig": {"hex": "16001404c277823b1d400fd743e6ac18ec6205dbdbd31a", "asm": "001404c277823b1d400fd743e6ac18ec6205dbdbd31a"}, "vout": 0, "txid": "ceacf8a15c3049650e3e3899f973bb4726a56b8865e8fb3c569ace1956ed3c8e"}, {"txinwitness": ["3045022100d7437958d76e0ab97249c2823e8f28903d02b29bc647b518be3169cb709ddac20220532ddcd65f4afe2f466d24b4a1b17d919bd4aa1c478ef5e3176ca7d586ce11b401", "032211e2cb5b11315fdb8ec7f70744d13d94b6ce1e56230aea683e59939957a9eb"], "sequence": 4294967295, "scriptSig": {"hex": "16001460fe4c3565b2d71250dfe70eb8d42627e7d918af", "asm": "001460fe4c3565b2d71250dfe70eb8d42627e7d918af"}, "vout": 0, "txid": "d9aed40f22cccadd8f2840d57561c61a93e2caf8fe9c766f73bf91b3448ae80b"}, {"txinwitness": ["3044022100aafe259cca84110219f88387d7a77c42c37abde89ce74fd188b30da55a78f74b021f640b550b9d019e21b6e6e9d546145874c44cbd001b7a02313b183cd4cb606e01", "032211e2cb5b11315fdb8ec7f70744d13d94b6ce1e56230aea683e59939957a9eb"], "sequence": 4294967295, "scriptSig": {"hex": "16001460fe4c3565b2d71250dfe70eb8d42627e7d918af", "asm": "001460fe4c3565b2d71250dfe70eb8d42627e7d918af"}, "vout": 0, "txid": "db32115202fd5e6e765e7d6776e4f059de9f8b9dc507d83f0c57b898782f1f3f"}], "txid": "a54fd270b0df131426461bc38df19bf07e8ad8e46606042e6e7839dba8675315", "blocktime": 1537871767, "version": 1, "confirmations": 11495, "time": 1537871767, "locktime": 0, "vsize": 679, "size": 1246}