{"hash": "ea8d0bbd703fd5e77e352723c19b92288ff5b14991094eed95d0b2abda6e2de2", "blockhash": "0000000000000000001cda96e906b7601b7a6fb1a3b62bca570a9e5d8f4b3de1", "vout": [{"scriptPubKey": {"reqSigs": 1, "hex": "76a914864ff85af4e92503617f27ef0c527ee7c85b318488ac", "addresses": ["1DFBM8R9TgRg3uhXVVrQ4ma9bCSexW6Nf5"], "asm": "OP_DUP OP_HASH160 864ff85af4e92503617f27ef0c527ee7c85b3184 OP_EQUALVERIFY OP_CHECKSIG", "type": "pubkeyhash"}, "value": 0.46897056, "n": 0}, {"scriptPubKey": {"reqSigs": 1, "hex": "a9145cb1ffb3099e379dac4c539ff06c238fbb70a5a387", "addresses": ["3A99KmTi286saFY4nnKkz5YFDdYQjGGpLg"], "asm": "OP_HASH160 5cb1ffb3099e379dac4c539ff06c238fbb70a5a3 OP_EQUAL", "type": "scripthash"}, "value": 8.95656647, "n": 1}], "hex": "0200000000010122f028e76f9baed126c804f0895e9c92b54b84f7ea545b3ee6f91b3e50dca29d0100000017160014cb0eeef1ff54c88a1948f31b8ba5af0d006c5740feffffff02a097cb02000000001976a914864ff85af4e92503617f27ef0c527ee7c85b318488acc7a262350000000017a9145cb1ffb3099e379dac4c539ff06c238fbb70a5a387024830450221009e6d94ef9b1aefa1fbe37e1a32698788f5d1472dc3258042a43f328fa51152ca022035c8c6d624f79172b864ec778031bfa5dafb79284ba9f73d2ce34bf79cf1a3d40121032865ad8f611c9bad4c013cf5c8c370a7adc22ace5fa05472ba2826d650715af813490800", "vin": [{"txinwitness": ["30450221009e6d94ef9b1aefa1fbe37e1a32698788f5d1472dc3258042a43f328fa51152ca022035c8c6d624f79172b864ec778031bfa5dafb79284ba9f73d2ce34bf79cf1a3d401", "032865ad8f611c9bad4c013cf5c8c370a7adc22ace5fa05472ba2826d650715af8"], "sequence": 4294967294, "scriptSig": {"hex": "160014cb0eeef1ff54c88a1948f31b8ba5af0d006c5740", "asm": "0014cb0eeef1ff54c88a1948f31b8ba5af0d006c5740"}, "vout": 1, "txid": "9da2dc503e1bf9e63e5b54eaf7844bb5929c5e89f004c826d1ae9b6fe728f022"}], "txid": "a5578aa964f850c8a79be057c52607ef3a0f32820c4c1852a0f985b4ba7acacb", "blocktime": 1537873282, "version": 2, "confirmations": 11483, "time": 1537873282, "locktime": 542995, "vsize": 168, "size": 250}