{"hash": "f635deb2f226b5e374e044ddccaf96f1ae8cfe088a2286ec2aee7ddbd1b14cc4", "blockhash": "00000000000000000004ffacab907a6b429b9a5745fa0b75af4234bf69dd7176", "vout": [{"scriptPubKey": {"reqSigs": 1, "hex": "76a91411f627086143870b4e2bc635c00dd53ee6e0a05788ac", "addresses": ["12dyNEcTxni3iZvfLJME5gFAHVq38pR82Z"], "asm": "OP_DUP OP_HASH160 11f627086143870b4e2bc635c00dd53ee6e0a057 OP_EQUALVERIFY OP_CHECKSIG", "type": "pubkeyhash"}, "value": 0.034564, "n": 0}, {"scriptPubKey": {"reqSigs": 1, "hex": "a9144d293bcdc8b44f39bc0c92eb41ca5b5ef1480d4687", "addresses": ["38j1MGxv8M2EzE5QVWzavCTicpwByECqCv"], "asm": "OP_HASH160 4d293bcdc8b44f39bc0c92eb41ca5b5ef1480d46 OP_EQUAL", "type": "scripthash"}, "value": 8.80859774, "n": 1}], "hex": "020000000001010e2af39c916cb0fe5d7d4ed147f78c31aa08e0f86f9818927b8ee998d1c22baf01000000171600143ff816c3a02e013cd7ea4b2c204674768da8a76dffffffff0290bd3400000000001976a91411f627086143870b4e2bc635c00dd53ee6e0a05788ac7eda80340000000017a9144d293bcdc8b44f39bc0c92eb41ca5b5ef1480d468702483045022100984cb46376765220b4e71f2d366e0015729362ca995e3ba0e11e10501e3502a102204c51e7398820b64cf86b40767f6a495332b9cf1cc290d85975cac1c683af49a601210306f6e5c3dfeb94059c2c436c189768eff8f584c499fad5bb8e2f7ab65449bdeb00000000", "vin": [{"txinwitness": ["3045022100984cb46376765220b4e71f2d366e0015729362ca995e3ba0e11e10501e3502a102204c51e7398820b64cf86b40767f6a495332b9cf1cc290d85975cac1c683af49a601", "0306f6e5c3dfeb94059c2c436c189768eff8f584c499fad5bb8e2f7ab65449bdeb"], "sequence": 4294967295, "scriptSig": {"hex": "1600143ff816c3a02e013cd7ea4b2c204674768da8a76d", "asm": "00143ff816c3a02e013cd7ea4b2c204674768da8a76d"}, "vout": 1, "txid": "af2bc2d198e98e7b9218986ff8e008aa318cf747d14e7d5dfeb06c919cf32a0e"}], "txid": "a55c8920acd21a1853ebbe69e44323693f1b144edaf67041bbdc9952443e71ac", "blocktime": 1537875543, "version": 2, "confirmations": 11464, "time": 1537875543, "locktime": 0, "vsize": 168, "size": 250}