{"hash": "a560653b16fad41dd90b028a451bd2893a4db5ea1402dcbbcdcbd994e51ee5c9", "blockhash": "0000000000000000001f0ddff1eddb255c1121bcd4da4f1bc9a0da00cae72433", "vout": [{"scriptPubKey": {"reqSigs": 1, "hex": "76a914476b3a5d736808aeff7305b18abd3317af8bda9888ac", "addresses": ["17WdRxAsWS8CcGMCaLDLUHpvLqTZsjpnLs"], "asm": "OP_DUP OP_HASH160 476b3a5d736808aeff7305b18abd3317af8bda98 OP_EQUALVERIFY OP_CHECKSIG", "type": "pubkeyhash"}, "value": 0.01014326, "n": 0}, {"scriptPubKey": {"reqSigs": 1, "hex": "76a914f6405816ced0d0218ef796e0bbfd8ba384f22dd288ac", "addresses": ["1PT4Ju18ZAk3qWDaxAStsYSyhhmBHUuXz1"], "asm": "OP_DUP OP_HASH160 f6405816ced0d0218ef796e0bbfd8ba384f22dd2 OP_EQUALVERIFY OP_CHECKSIG", "type": "pubkeyhash"}, "value": 0.058, "n": 1}], "hex": "020000000326c5461124de829703bf3b0d9ab4a33b96b6738c7744cec6416b9f9ec0233a0a010000006a473044022003a5dc8c7bb3e1e9623c0ee22f135e7bdeaeec93602c2832ad715b1793309da4022066b8d1bbb8b0bd2cf422cec37f3f16c0acc3073864869a2ac55e1d41f3f0dfd1012103bc91089f24ec2d7aadfc4dfd65eff64c49fe0efe501431704083335bdeebcf11feffffff83bcd402170d3399791b6a0faeeb0df9795ba433e911f4080f5bd52d88bb2d4b030000006a473044022034bdc50cfcd27a5474ee4e3a21cab7fb555c833d66eb2697d28659693e17059602202e78c54d3b245cc8fb6295ba72cc38dffc0f963a270abb39f3c584c3377ea9250121034d7d6fb712a9e820c6a271aeca53582def309b157f994c58b0acebddd4ee2e88feffffffd92e79f2325509e18f62bf384a0c7f3422acb7595c981accdd5a44ab7d3e6387000000006b483045022100e1e8683a3fa0280f7c049d95f0ec19aacd7104ffc5a9c0a58a6e1d36e1a2fa4b02206284c66e024948dd8ee28d04c1f8af33956aabaef95bde9c46be19584fa01605012103d952025ea2962d25e077170433d1ac6ed2a3d99e42aae682ab136bec74fd76befeffffff02367a0f00000000001976a914476b3a5d736808aeff7305b18abd3317af8bda9888ac40805800000000001976a914f6405816ced0d0218ef796e0bbfd8ba384f22dd288ac11490800", "vin": [{"sequence": 4294967294, "scriptSig": {"hex": "473044022003a5dc8c7bb3e1e9623c0ee22f135e7bdeaeec93602c2832ad715b1793309da4022066b8d1bbb8b0bd2cf422cec37f3f16c0acc3073864869a2ac55e1d41f3f0dfd1012103bc91089f24ec2d7aadfc4dfd65eff64c49fe0efe501431704083335bdeebcf11", "asm": "3044022003a5dc8c7bb3e1e9623c0ee22f135e7bdeaeec93602c2832ad715b1793309da4022066b8d1bbb8b0bd2cf422cec37f3f16c0acc3073864869a2ac55e1d41f3f0dfd1[ALL] 03bc91089f24ec2d7aadfc4dfd65eff64c49fe0efe501431704083335bdeebcf11"}, "vout": 1, "txid": "0a3a23c09e9f6b41c6ce44778c73b6963ba3b49a0d3bbf039782de241146c526"}, {"sequence": 4294967294, "scriptSig": {"hex": "473044022034bdc50cfcd27a5474ee4e3a21cab7fb555c833d66eb2697d28659693e17059602202e78c54d3b245cc8fb6295ba72cc38dffc0f963a270abb39f3c584c3377ea9250121034d7d6fb712a9e820c6a271aeca53582def309b157f994c58b0acebddd4ee2e88", "asm": "3044022034bdc50cfcd27a5474ee4e3a21cab7fb555c833d66eb2697d28659693e17059602202e78c54d3b245cc8fb6295ba72cc38dffc0f963a270abb39f3c584c3377ea925[ALL] 034d7d6fb712a9e820c6a271aeca53582def309b157f994c58b0acebddd4ee2e88"}, "vout": 3, "txid": "4b2dbb882dd55b0f08f411e933a45b79f90debae0f6a1b7999330d1702d4bc83"}, {"sequence": 4294967294, "scriptSig": {"hex": "483045022100e1e8683a3fa0280f7c049d95f0ec19aacd7104ffc5a9c0a58a6e1d36e1a2fa4b02206284c66e024948dd8ee28d04c1f8af33956aabaef95bde9c46be19584fa01605012103d952025ea2962d25e077170433d1ac6ed2a3d99e42aae682ab136bec74fd76be", "asm": "3045022100e1e8683a3fa0280f7c049d95f0ec19aacd7104ffc5a9c0a58a6e1d36e1a2fa4b02206284c66e024948dd8ee28d04c1f8af33956aabaef95bde9c46be19584fa01605[ALL] 03d952025ea2962d25e077170433d1ac6ed2a3d99e42aae682ab136bec74fd76be"}, "vout": 0, "txid": "87633e7dab445addcc1a985c59b7ac22347f0c4a38bf628fe1095532f2792ed9"}], "txid": "a560653b16fad41dd90b028a451bd2893a4db5ea1402dcbbcdcbd994e51ee5c9", "blocktime": 1537872018, "version": 2, "confirmations": 11489, "time": 1537872018, "locktime": 542993, "vsize": 520, "size": 520}