{"hash": "a5627f8b0eea47d73d846f1dd1e10bc0e50196334c42e4214539645eecc7ab3b", "blockhash": "000000000000000000022b45ed06c6f4ccd3cf7fb5ba4856ebd2e58215665228", "vout": [{"scriptPubKey": {"reqSigs": 1, "hex": "76a91481f9289647b6e94d7c8ca7cfc076e29752ca70e288ac", "addresses": ["1CrEeawbbbeDQHcEo4cuY3H5P635sZ9tBh"], "asm": "OP_DUP OP_HASH160 81f9289647b6e94d7c8ca7cfc076e29752ca70e2 OP_EQUALVERIFY OP_CHECKSIG", "type": "pubkeyhash"}, "value": 0.11325224, "n": 0}, {"scriptPubKey": {"reqSigs": 1, "hex": "76a914ba315065d1c9c8b6d608b1721ffc27023b6600f988ac", "addresses": ["1HyVm5hPzF7VDQExjtRkjikSxDmUTjszg2"], "asm": "OP_DUP OP_HASH160 ba315065d1c9c8b6d608b1721ffc27023b6600f9 OP_EQUALVERIFY OP_CHECKSIG", "type": "pubkeyhash"}, "value": 0.01292341, "n": 1}], "hex": "0200000001656396706a965b61f0034682251745414e391186a8936f0416e876e2c87daf87010000006b48304502210099d6fb745211c8182e75f98053877a7cf9842e3a6a26ae948f40e9f3a1c7b6c10220332cfa8ffe07ad4dfb58d0a9e20640f69f3acd60e2d301c0417fcf8773b934760121020b87a820c67e6dc57d51dd6a2e33550cdac86920bee3e53d81cdb702949804b2feffffff0228cfac00000000001976a91481f9289647b6e94d7c8ca7cfc076e29752ca70e288ac35b81300000000001976a914ba315065d1c9c8b6d608b1721ffc27023b6600f988ac0b490800", "vin": [{"sequence": 4294967294, "scriptSig": {"hex": "48304502210099d6fb745211c8182e75f98053877a7cf9842e3a6a26ae948f40e9f3a1c7b6c10220332cfa8ffe07ad4dfb58d0a9e20640f69f3acd60e2d301c0417fcf8773b934760121020b87a820c67e6dc57d51dd6a2e33550cdac86920bee3e53d81cdb702949804b2", "asm": "304502210099d6fb745211c8182e75f98053877a7cf9842e3a6a26ae948f40e9f3a1c7b6c10220332cfa8ffe07ad4dfb58d0a9e20640f69f3acd60e2d301c0417fcf8773b93476[ALL] 020b87a820c67e6dc57d51dd6a2e33550cdac86920bee3e53d81cdb702949804b2"}, "vout": 1, "txid": "87af7dc8e276e816046f93a88611394e41451725824603f0615b966a70966365"}], "txid": "a5627f8b0eea47d73d846f1dd1e10bc0e50196334c42e4214539645eecc7ab3b", "blocktime": 1537869901, "version": 2, "confirmations": 11522, "time": 1537869901, "locktime": 542987, "vsize": 226, "size": 226}