{"hash": "a566bb15b03d8c52d8ac0c4e91c739a827cc22a4966421ac20a7dca93f806ed6", "blockhash": "0000000000000000001e0dab787dd257d1dbfcb92a98c2207d5e1078be1f4165", "vout": [{"scriptPubKey": {"reqSigs": 1, "hex": "76a9148b42a4efc8b39b7d0ba94c32b0033d4e9f36f20388ac", "addresses": ["1DhLmC3fMGhMvuPaaPoCikbgDiwiJmezK3"], "asm": "OP_DUP OP_HASH160 8b42a4efc8b39b7d0ba94c32b0033d4e9f36f203 OP_EQUALVERIFY OP_CHECKSIG", "type": "pubkeyhash"}, "value": 0.00698296, "n": 0}, {"scriptPubKey": {"reqSigs": 1, "hex": "a914fd9a12eed92d337417f0f8f7f6211e77d51e446687", "addresses": ["3QowTKh2dN4UVTUeT6cbWqoYE8AuTx4LhN"], "asm": "OP_HASH160 fd9a12eed92d337417f0f8f7f6211e77d51e4466 OP_EQUAL", "type": "scripthash"}, "value": 0.023433, "n": 1}], "hex": "01000000013cadd4e8d68e4f28e59b77b857767c77e7eae68a9b0aa695472ca3ebdc956f82140000006a473044022049226cadcf2d8a3a80a4acbc56015901a62f7a907c0c072abdfe92a73c3564d20220080ffb1149a022bde034f7fdb83184580d5b25cd199eb734e893a6eb4b930215012102325d3bda0e0dbb1e1a8e235e1e4bc6911ea99bf3803fd6dfba80425b9de5f7a8ffffffff02b8a70a00000000001976a9148b42a4efc8b39b7d0ba94c32b0033d4e9f36f20388ac84c123000000000017a914fd9a12eed92d337417f0f8f7f6211e77d51e44668700000000", "vin": [{"sequence": 4294967295, "scriptSig": {"hex": "473044022049226cadcf2d8a3a80a4acbc56015901a62f7a907c0c072abdfe92a73c3564d20220080ffb1149a022bde034f7fdb83184580d5b25cd199eb734e893a6eb4b930215012102325d3bda0e0dbb1e1a8e235e1e4bc6911ea99bf3803fd6dfba80425b9de5f7a8", "asm": "3044022049226cadcf2d8a3a80a4acbc56015901a62f7a907c0c072abdfe92a73c3564d20220080ffb1149a022bde034f7fdb83184580d5b25cd199eb734e893a6eb4b930215[ALL] 02325d3bda0e0dbb1e1a8e235e1e4bc6911ea99bf3803fd6dfba80425b9de5f7a8"}, "vout": 20, "txid": "826f95dceba32c4795a60a9b8ae6eae7777c7657b8779be5284f8ed6e8d4ad3c"}], "txid": "a566bb15b03d8c52d8ac0c4e91c739a827cc22a4966421ac20a7dca93f806ed6", "blocktime": 1537872475, "version": 1, "confirmations": 11486, "time": 1537872475, "locktime": 0, "vsize": 223, "size": 223}