{"hash": "a56bfb29ce0befda74bd3bed2ed2bec004d6c30062e2f9e76b34f2f2c74867a0", "blockhash": "0000000000000000000e13cef7c366c0283d82e591d1acd082e914b08063cdf1", "vout": [{"scriptPubKey": {"reqSigs": 1, "hex": "76a9147ca18aa12acbdfcc4204b1f79d8ed161c27a4a1288ac", "addresses": ["1CMzJtYVgf5ynnsGTKK1e2fp9jYbyGRtwC"], "asm": "OP_DUP OP_HASH160 7ca18aa12acbdfcc4204b1f79d8ed161c27a4a12 OP_EQUALVERIFY OP_CHECKSIG", "type": "pubkeyhash"}, "value": 0.0001, "n": 0}, {"scriptPubKey": {"reqSigs": 1, "hex": "76a9141748a441423da5e15e6b7ba4e9513bbb35e28a7c88ac", "addresses": ["1387Ze9HfexTm8zxZzt1xacSu6GtRkvNkS"], "asm": "OP_DUP OP_HASH160 1748a441423da5e15e6b7ba4e9513bbb35e28a7c OP_EQUALVERIFY OP_CHECKSIG", "type": "pubkeyhash"}, "value": 0.00814164, "n": 1}], "hex": "010000000110cd0e594e9203668d5fcc3464b0dd8ff5acb81d49d534445c3594eef0d9c639010000006b483045022100fc19e784e226b802eedfc5ae3f1b263187ea2dcdd9aeab155998f0eafccb36cd02207b031570ff259b82435d1c328d333c655aca1b6472bfd81db579f369e68d74f7012103d5cfd14d18dda8561f00522c123a72b830be632f450ec569f88be5de194f2d90ffffffff0210270000000000001976a9147ca18aa12acbdfcc4204b1f79d8ed161c27a4a1288ac546c0c00000000001976a9141748a441423da5e15e6b7ba4e9513bbb35e28a7c88ac00000000", "vin": [{"sequence": 4294967295, "scriptSig": {"hex": "483045022100fc19e784e226b802eedfc5ae3f1b263187ea2dcdd9aeab155998f0eafccb36cd02207b031570ff259b82435d1c328d333c655aca1b6472bfd81db579f369e68d74f7012103d5cfd14d18dda8561f00522c123a72b830be632f450ec569f88be5de194f2d90", "asm": "3045022100fc19e784e226b802eedfc5ae3f1b263187ea2dcdd9aeab155998f0eafccb36cd02207b031570ff259b82435d1c328d333c655aca1b6472bfd81db579f369e68d74f7[ALL] 03d5cfd14d18dda8561f00522c123a72b830be632f450ec569f88be5de194f2d90"}, "vout": 1, "txid": "39c6d9f0ee94355c4434d5491db8acf58fddb06434cc5f8d6603924e590ecd10"}], "txid": "a56bfb29ce0befda74bd3bed2ed2bec004d6c30062e2f9e76b34f2f2c74867a0", "blocktime": 1537871767, "version": 1, "confirmations": 11493, "time": 1537871767, "locktime": 0, "vsize": 226, "size": 226}