{"hash": "a5734c3662d280c8c346c34f7c3b5f2857a10b2f649daad49aed8d67213f98b0", "blockhash": "00000000000000000017f5eb5941039fbcee6240d03bc1f2f8e35350df66a1d8", "vout": [{"scriptPubKey": {"reqSigs": 1, "hex": "76a9149faa6718c59338d9a9ab779db4d56c583530d3cc88ac", "addresses": ["1FZEaHoabk9VqkUsmifXrkD8t1MURypve7"], "asm": "OP_DUP OP_HASH160 9faa6718c59338d9a9ab779db4d56c583530d3cc OP_EQUALVERIFY OP_CHECKSIG", "type": "pubkeyhash"}, "value": 0.00028986, "n": 0}, {"scriptPubKey": {"reqSigs": 1, "hex": "76a914edd4682d6ff9b710447002f73b7b3172ceb4e55488ac", "addresses": ["1NgXbkuRHaSc4Eiv9EEiKXhvYjGxc6u5u9"], "asm": "OP_DUP OP_HASH160 edd4682d6ff9b710447002f73b7b3172ceb4e554 OP_EQUALVERIFY OP_CHECKSIG", "type": "pubkeyhash"}, "value": 0.123402, "n": 1}], "hex": "01000000025b27a013b5696f769c2de737e38b8d10e9122e6e5173053c769d6a9765c7c346000000006a473044022060bcfe1f4563480b0e7cc78e606732d83f4a3bf74a2fced44d609d35ba52377c0220226ea74f5b45fe7f3ec3649d014907e30b93d1c44ace7ee551924a1d8d971902012102c76036dd9263f340bd4554c6d9adaa406ab2592c67c335ed661b67e3a52551dfffffffff8be28147bbbe7d73c617a3d5f471c5149d808fbe170d4ca4b03a4abdd0c0a3e9000000006a473044022028d0fe11b8fd68784de2a5a4688297cb895b8fee2c97ad1a5086ef3a918cc94102200bde3700f6cab3c79ce707e9aa0e1609cf28e908068a623c47654683b20f03230121020fd761b269939baf24bdbf088ef0bc5f3c727c874207c26ec14f1d16275d2f61ffffffff023a710000000000001976a9149faa6718c59338d9a9ab779db4d56c583530d3cc88ace84bbc00000000001976a914edd4682d6ff9b710447002f73b7b3172ceb4e55488ac00000000", "vin": [{"sequence": 4294967295, "scriptSig": {"hex": "473044022060bcfe1f4563480b0e7cc78e606732d83f4a3bf74a2fced44d609d35ba52377c0220226ea74f5b45fe7f3ec3649d014907e30b93d1c44ace7ee551924a1d8d971902012102c76036dd9263f340bd4554c6d9adaa406ab2592c67c335ed661b67e3a52551df", "asm": "3044022060bcfe1f4563480b0e7cc78e606732d83f4a3bf74a2fced44d609d35ba52377c0220226ea74f5b45fe7f3ec3649d014907e30b93d1c44ace7ee551924a1d8d971902[ALL] 02c76036dd9263f340bd4554c6d9adaa406ab2592c67c335ed661b67e3a52551df"}, "vout": 0, "txid": "46c3c765976a9d763c0573516e2e12e9108d8be337e72d9c766f69b513a0275b"}, {"sequence": 4294967295, "scriptSig": {"hex": "473044022028d0fe11b8fd68784de2a5a4688297cb895b8fee2c97ad1a5086ef3a918cc94102200bde3700f6cab3c79ce707e9aa0e1609cf28e908068a623c47654683b20f03230121020fd761b269939baf24bdbf088ef0bc5f3c727c874207c26ec14f1d16275d2f61", "asm": "3044022028d0fe11b8fd68784de2a5a4688297cb895b8fee2c97ad1a5086ef3a918cc94102200bde3700f6cab3c79ce707e9aa0e1609cf28e908068a623c47654683b20f0323[ALL] 020fd761b269939baf24bdbf088ef0bc5f3c727c874207c26ec14f1d16275d2f61"}, "vout": 0, "txid": "e9a3c0d0bd4a3ab0a44c0d17be8f809d14c571f4d5a317c6737dbebb4781e28b"}], "txid": "a5734c3662d280c8c346c34f7c3b5f2857a10b2f649daad49aed8d67213f98b0", "blocktime": 1537874412, "version": 1, "confirmations": 11468, "time": 1537874412, "locktime": 0, "vsize": 372, "size": 372}