{"hash": "e48d43468cdfb220e5a56aae0c7d18cb66b8adacfa1b29de4a370452bcafab1a", "blockhash": "0000000000000000001f0ddff1eddb255c1121bcd4da4f1bc9a0da00cae72433", "vout": [{"scriptPubKey": {"reqSigs": 1, "hex": "a9148f9c9cf76fe10afd13369b3f5b097b47e14d69dd87", "addresses": ["3EnNAeY3R1nhqgbzPN1VnJ517gJeMUMYm6"], "asm": "OP_HASH160 8f9c9cf76fe10afd13369b3f5b097b47e14d69dd OP_EQUAL", "type": "scripthash"}, "value": 0.01, "n": 0}, {"scriptPubKey": {"reqSigs": 1, "hex": "a9145aff00b9af9f79f81f022cba1319760d4cc6c4ac87", "addresses": ["39zADiUmdBZXsVjKZtm7HW1WkhR9rnECnw"], "asm": "OP_HASH160 5aff00b9af9f79f81f022cba1319760d4cc6c4ac OP_EQUAL", "type": "scripthash"}, "value": 5.66498822, "n": 1}], "hex": "020000000001013d03e417d8683fa019972143987b7c1cadf412c952da72b7d41c80d3049d92800000000017160014103a2cbd3075a12940baf2a9a32eebbfe1c8729ffeffffff0240420f000000000017a9148f9c9cf76fe10afd13369b3f5b097b47e14d69dd870616c4210000000017a9145aff00b9af9f79f81f022cba1319760d4cc6c4ac87024730440220220d9ed3a7e5dcd0625448b4321455652a5cfb003d3b45abe3b79ee88b973332022011a475e39edb88f3086f38829ff9046f74afee59daa7c8a57506e8f4c210995e012103d249955e798cd709168e03a9bb7719de01d669640be7ee0c37c9ce809c60a65e0e490800", "vin": [{"txinwitness": ["30440220220d9ed3a7e5dcd0625448b4321455652a5cfb003d3b45abe3b79ee88b973332022011a475e39edb88f3086f38829ff9046f74afee59daa7c8a57506e8f4c210995e01", "03d249955e798cd709168e03a9bb7719de01d669640be7ee0c37c9ce809c60a65e"], "sequence": 4294967294, "scriptSig": {"hex": "160014103a2cbd3075a12940baf2a9a32eebbfe1c8729f", "asm": "0014103a2cbd3075a12940baf2a9a32eebbfe1c8729f"}, "vout": 0, "txid": "80929d04d3801cd4b772da52c912f4ad1c7c7b9843219719a03f68d817e4033d"}], "txid": "a5741b556a8b1e9318831432ee37469643f56f3482038ecb917954dfcdd338fb", "blocktime": 1537872018, "version": 2, "confirmations": 11489, "time": 1537872018, "locktime": 542990, "vsize": 166, "size": 247}