{"hash": "a5869e65a17eae4af003ee8076c906e014e96b37fafeed3d94a93fb0f0d4f6ae", "blockhash": "0000000000000000000e13cef7c366c0283d82e591d1acd082e914b08063cdf1", "vout": [{"scriptPubKey": {"type": "nulldata", "hex": "6a4c50000077a000016cc4a30cf5adfb3104be776caf6c953dd567cf27e7e3ef3236678a625097ed41c24f633076f6d60fb134714faf375baa0e4706150276c1383d2fbc9a9526289ac0f6612cd74e33776ee4", "asm": "OP_RETURN 000077a000016cc4a30cf5adfb3104be776caf6c953dd567cf27e7e3ef3236678a625097ed41c24f633076f6d60fb134714faf375baa0e4706150276c1383d2fbc9a9526289ac0f6612cd74e33776ee4"}, "value": 0.0, "n": 0}, {"scriptPubKey": {"reqSigs": 1, "hex": "76a914ecbf19b624297c42f5aa0eeaf9bcee115195e9d888ac", "addresses": ["1NaoQATPBVAjt7ro3rd5dMZZ9nHn2gpUfG"], "asm": "OP_DUP OP_HASH160 ecbf19b624297c42f5aa0eeaf9bcee115195e9d8 OP_EQUALVERIFY OP_CHECKSIG", "type": "pubkeyhash"}, "value": 0.0009838, "n": 1}], "hex": "0100000001e36cc67f482fb6df49233e11f737a3572c25184e067b5499426fd922addc6ad9000000006b483045022100d5142d64c9958b37a0a4a207791756f87ca4dce5773a44e920b5f5864d845df6022000a8fe4df2cf6f2ee5d591b2c153773063c9c71e0ea48381440ea51ec693613e012102253f02c6f0d21371072d0d3345550aac3e655e5180fe680991b76fc994270cd3ffffffff020000000000000000536a4c50000077a000016cc4a30cf5adfb3104be776caf6c953dd567cf27e7e3ef3236678a625097ed41c24f633076f6d60fb134714faf375baa0e4706150276c1383d2fbc9a9526289ac0f6612cd74e33776ee44c800100000000001976a914ecbf19b624297c42f5aa0eeaf9bcee115195e9d888ac00000000", "vin": [{"sequence": 4294967295, "scriptSig": {"hex": "483045022100d5142d64c9958b37a0a4a207791756f87ca4dce5773a44e920b5f5864d845df6022000a8fe4df2cf6f2ee5d591b2c153773063c9c71e0ea48381440ea51ec693613e012102253f02c6f0d21371072d0d3345550aac3e655e5180fe680991b76fc994270cd3", "asm": "3045022100d5142d64c9958b37a0a4a207791756f87ca4dce5773a44e920b5f5864d845df6022000a8fe4df2cf6f2ee5d591b2c153773063c9c71e0ea48381440ea51ec693613e[ALL] 02253f02c6f0d21371072d0d3345550aac3e655e5180fe680991b76fc994270cd3"}, "vout": 0, "txid": "d96adcad22d96f4299547b064e18252c57a337f7113e2349dfb62f487fc66ce3"}], "txid": "a5869e65a17eae4af003ee8076c906e014e96b37fafeed3d94a93fb0f0d4f6ae", "blocktime": 1537871767, "version": 1, "confirmations": 11493, "time": 1537871767, "locktime": 0, "vsize": 284, "size": 284}