{"hash": "f8afd05b0dec17e063350760e7389b6c05dea58d1540dea15a857ec732523d5e", "blockhash": "00000000000000000017f5eb5941039fbcee6240d03bc1f2f8e35350df66a1d8", "vout": [{"scriptPubKey": {"reqSigs": 1, "hex": "a91422e4fc8b5331731e94b53fd592287bb363403ac687", "addresses": ["34sXDKvGxQYxM3fyp6npnte27YYaHBiuyc"], "asm": "OP_HASH160 22e4fc8b5331731e94b53fd592287bb363403ac6 OP_EQUAL", "type": "scripthash"}, "value": 0.0051056, "n": 0}, {"scriptPubKey": {"reqSigs": 1, "hex": "a9146d2be682e8b248a75cf5150bdb61f2286b5b0ec387", "addresses": ["3BeGAi5DyVegxhdipHyJRCPuRXiQ6yfC12"], "asm": "OP_HASH160 6d2be682e8b248a75cf5150bdb61f2286b5b0ec3 OP_EQUAL", "type": "scripthash"}, "value": 0.01108667, "n": 1}], "hex": "020000000001021fa444e3b3ef7e018631352d83353d2d88b381714315efb2b9a811da39b9e05b0000000017160014c9978d464c2d81184a4f4aabf227f17e1c4ec255fdffffff407b07e7f4b033ac582fa5a12199f44a506a71a456e8bf4d7840f7d4a644c6e90000000017160014a0d0b0da96abdd405a31d6a08ffcf2ffcaa39509fdffffff0260ca07000000000017a91422e4fc8b5331731e94b53fd592287bb363403ac687bbea10000000000017a9146d2be682e8b248a75cf5150bdb61f2286b5b0ec38702473044022015d51643df9c228b5f43d59cb17df79b7002d396bdd3cc966dcc6f109cb63b0d022049e864e3150cc6d9cbf348843e367178b57416356eb6b38bd6f4dbc1543eeeec0121023efda9155386ee3d3068b824c20c9a0c2b2e9ace68ec931ddaee8b9eba1a79d602473044022031d346ffbc3702d45c3cadfbc15d667d95b12ea2dd1b9e0ce6b3393263fdcc840220643126763f6c4167c79bbff20dc8f5836e4b9ac298a3dfd05028607049bbf1ce012103f8aced314811fdff99f9fedfd3c23dedb8f33520509b13e3628ec3ea2532a48b15490800", "vin": [{"txinwitness": ["3044022015d51643df9c228b5f43d59cb17df79b7002d396bdd3cc966dcc6f109cb63b0d022049e864e3150cc6d9cbf348843e367178b57416356eb6b38bd6f4dbc1543eeeec01", "023efda9155386ee3d3068b824c20c9a0c2b2e9ace68ec931ddaee8b9eba1a79d6"], "sequence": 4294967293, "scriptSig": {"hex": "160014c9978d464c2d81184a4f4aabf227f17e1c4ec255", "asm": "0014c9978d464c2d81184a4f4aabf227f17e1c4ec255"}, "vout": 0, "txid": "5be0b939da11a8b9b2ef15437181b3882d3d35832d353186017eefb3e344a41f"}, {"txinwitness": ["3044022031d346ffbc3702d45c3cadfbc15d667d95b12ea2dd1b9e0ce6b3393263fdcc840220643126763f6c4167c79bbff20dc8f5836e4b9ac298a3dfd05028607049bbf1ce01", "03f8aced314811fdff99f9fedfd3c23dedb8f33520509b13e3628ec3ea2532a48b"], "sequence": 4294967293, "scriptSig": {"hex": "160014a0d0b0da96abdd405a31d6a08ffcf2ffcaa39509", "asm": "0014a0d0b0da96abdd405a31d6a08ffcf2ffcaa39509"}, "vout": 0, "txid": "e9c644a6d4f740784dbfe856a4716a504af49921a1a52f58ac33b0f4e7077b40"}], "txid": "a58a3d7dfbca406b9a91f2de7820df671aa465cb3f5f99068b324ffa85feaf29", "blocktime": 1537874412, "version": 2, "confirmations": 11467, "time": 1537874412, "locktime": 542997, "vsize": 256, "size": 418}