{"hash": "96bba73439783b37fddc5d546145779b636424df35d48f493fc8fc62e532974e", "blockhash": "0000000000000000000e13cef7c366c0283d82e591d1acd082e914b08063cdf1", "vout": [{"scriptPubKey": {"reqSigs": 1, "hex": "a9148321bac2202c2b1e12fe11bf27bf5f01f34f5b0587", "addresses": ["3DeNrEzKoUdDa6m3FJvp4jPBk1JrUfuUHz"], "asm": "OP_HASH160 8321bac2202c2b1e12fe11bf27bf5f01f34f5b05 OP_EQUAL", "type": "scripthash"}, "value": 0.0022786, "n": 0}, {"scriptPubKey": {"reqSigs": 1, "hex": "a91428f2180a359f6a2e68922a46d35b5cf68c6bc7c487", "addresses": ["35RWyCM4gsDdVg2YCj4Z5s4iRTfoqfhBa8"], "asm": "OP_HASH160 28f2180a359f6a2e68922a46d35b5cf68c6bc7c4 OP_EQUAL", "type": "scripthash"}, "value": 0.01012303, "n": 1}], "hex": "02000000000102ab61fbb119135705d4e20cfbb341d36a9348c5cedc36f033cd21e864b88e715a000000001716001407d6895593e8e803393d2a232429f2d34b6aa2a3feffffffdf01e1088aea1506d73b11bd39bebaf85e1fa2c770a0bb06be26aee1869dfcc1010000001716001485a0b09c10c6f2a26f2e71ad09d999aee4f0c8bbfeffffff02147a03000000000017a9148321bac2202c2b1e12fe11bf27bf5f01f34f5b05874f720f000000000017a91428f2180a359f6a2e68922a46d35b5cf68c6bc7c4870247304402207ff6b450d7e0bce54433d18135e353d59a478258702b4a27f7cad996303cab6b0220300a154542dfe22406fbecc83e4447efb3546885fd0d67f21f145970e7e5d4800121034521fe2f74114da2a821c1b305bb6899b859c2986a0a41dd6a5ab819090d5c6202483045022100dbf52719739c7c0ec18eda06eae1813f70000fc60afb3d4d0cf0b7c217f2388702201763acacd0651e875799210771b647cd263c3c2026ac069b7a933720b9c39f46012102a2ed387cc1762b1dc35bd75074a22d9266c76fe3d5a5c1c07a7c4069ad6c266b0f490800", "vin": [{"txinwitness": ["304402207ff6b450d7e0bce54433d18135e353d59a478258702b4a27f7cad996303cab6b0220300a154542dfe22406fbecc83e4447efb3546885fd0d67f21f145970e7e5d48001", "034521fe2f74114da2a821c1b305bb6899b859c2986a0a41dd6a5ab819090d5c62"], "sequence": 4294967294, "scriptSig": {"hex": "16001407d6895593e8e803393d2a232429f2d34b6aa2a3", "asm": "001407d6895593e8e803393d2a232429f2d34b6aa2a3"}, "vout": 0, "txid": "5a718eb864e821cd33f036dccec548936ad341b3fb0ce2d405571319b1fb61ab"}, {"txinwitness": ["3045022100dbf52719739c7c0ec18eda06eae1813f70000fc60afb3d4d0cf0b7c217f2388702201763acacd0651e875799210771b647cd263c3c2026ac069b7a933720b9c39f4601", "02a2ed387cc1762b1dc35bd75074a22d9266c76fe3d5a5c1c07a7c4069ad6c266b"], "sequence": 4294967294, "scriptSig": {"hex": "16001485a0b09c10c6f2a26f2e71ad09d999aee4f0c8bb", "asm": "001485a0b09c10c6f2a26f2e71ad09d999aee4f0c8bb"}, "vout": 1, "txid": "c1fc9d86e1ae26be06bba070c7a21f5ef8babe39bd113bd70615ea8a08e101df"}], "txid": "a58a12d28fc6374357c8dcaf3fd34029313896059703c1e0303b60f5b26df154", "blocktime": 1537871767, "version": 2, "confirmations": 11495, "time": 1537871767, "locktime": 542991, "vsize": 257, "size": 419}