{"hash": "a58e10771d50d512b88846d03b3b90bfa3e979e0de94a248c56d9e4dcff774cf", "blockhash": "00000000000000000018f53835495a110e01622372bf6ae95dc86f2b0ab887b0", "vout": [{"scriptPubKey": {"reqSigs": 1, "hex": "a914e36506b69a96c2eac2b18ad9291c7c6d89b0275087", "addresses": ["3NRNLWnXD9nV4bN6Di2itjPxrM9rcJ9sjL"], "asm": "OP_HASH160 e36506b69a96c2eac2b18ad9291c7c6d89b02750 OP_EQUAL", "type": "scripthash"}, "value": 0.00344, "n": 0}, {"scriptPubKey": {"reqSigs": 1, "hex": "76a9142e4a1de45dbace2f10118e79f821eb754e1f178b88ac", "addresses": ["15DksYkMaTQ5W2EfMEEtzzZBPkfDgx7VS6"], "asm": "OP_DUP OP_HASH160 2e4a1de45dbace2f10118e79f821eb754e1f178b OP_EQUALVERIFY OP_CHECKSIG", "type": "pubkeyhash"}, "value": 0.02657433, "n": 1}], "hex": "010000000155fc099a3f1c196a9c58616511e8f377bdc056533e0a5a3bc68c9df0cb889b74010000006b48304502210091643d624265e661e2b945c28a99c6b492df57d72df8e6111a15fade88ec063c022020c0f83fa76159b035b25a204e0f80ad529c1e193c278bd2bbb46a3ce8e9a23a012103b2fe2afca5fe67b5758779d083e16d8973c960dac79094e22027cc5f4b9e550dffffffff02c03f05000000000017a914e36506b69a96c2eac2b18ad9291c7c6d89b0275087998c2800000000001976a9142e4a1de45dbace2f10118e79f821eb754e1f178b88ac00000000", "vin": [{"sequence": 4294967295, "scriptSig": {"hex": "48304502210091643d624265e661e2b945c28a99c6b492df57d72df8e6111a15fade88ec063c022020c0f83fa76159b035b25a204e0f80ad529c1e193c278bd2bbb46a3ce8e9a23a012103b2fe2afca5fe67b5758779d083e16d8973c960dac79094e22027cc5f4b9e550d", "asm": "304502210091643d624265e661e2b945c28a99c6b492df57d72df8e6111a15fade88ec063c022020c0f83fa76159b035b25a204e0f80ad529c1e193c278bd2bbb46a3ce8e9a23a[ALL] 03b2fe2afca5fe67b5758779d083e16d8973c960dac79094e22027cc5f4b9e550d"}, "vout": 1, "txid": "749b88cbf09d8cc63b5a0a3e5356c0bd77f3e8116561589c6a191c3f9a09fc55"}], "txid": "a58e10771d50d512b88846d03b3b90bfa3e979e0de94a248c56d9e4dcff774cf", "blocktime": 1537870928, "version": 1, "confirmations": 11514, "time": 1537870928, "locktime": 0, "vsize": 224, "size": 224}