{"hash": "a58fd7f0a711c8399b6ada21d8661cf4f72b337a8e8ece724bb42b8c552b8498", "blockhash": "0000000000000000001f0ddff1eddb255c1121bcd4da4f1bc9a0da00cae72433", "vout": [{"scriptPubKey": {"reqSigs": 1, "hex": "76a914844c3283fa77d12945bc266bacc41f3132d0042888ac", "addresses": ["1D4XUc56AzzF5Bkunh9wDxgmFcSALf3oxo"], "asm": "OP_DUP OP_HASH160 844c3283fa77d12945bc266bacc41f3132d00428 OP_EQUALVERIFY OP_CHECKSIG", "type": "pubkeyhash"}, "value": 0.00651046, "n": 0}, {"scriptPubKey": {"reqSigs": 1, "hex": "76a914694529d7da7af062a5905954f1952d5e6eea870a88ac", "addresses": ["1AbcohmhF4aTHAX2rFyykcA3v4fzkAPyGL"], "asm": "OP_DUP OP_HASH160 694529d7da7af062a5905954f1952d5e6eea870a OP_EQUALVERIFY OP_CHECKSIG", "type": "pubkeyhash"}, "value": 0.0468991, "n": 1}], "hex": "01000000022d84c970b7613b2a5cf611969271b726517db69611f134f6cb990e63c4d8dcd1000000006b483045022100f37b56c5edf998d1487618d10c11a0fed9eeee11a29242fe89dddd7a561ab78f02206fa7bb1052e48a022be4166324403947d16e8e1ed213511c41881cf243cb05a8012102d0706b024079bf00e40fc3d0efd01da05997399078f136557aa1b94178a058eeffffffff394b3a8d27074e3f5d5e4e806dc2a1c3119a3062ed6c8c9da429fa2d03818de0010000006a47304402202c1d131170f5101bfcbc9ef622b41f6e759dcf2a6a3548910a4acdf3d36bd03802203f08535c401b3d050571e5b1863354d4590fdb5dbf3ee8c50e11f71e59a01221012103420c16ac5c3e0ce3b34ceb04906cacaa0fe976a0155962d5d8756861a022273bffffffff0226ef0900000000001976a914844c3283fa77d12945bc266bacc41f3132d0042888acf68f4700000000001976a914694529d7da7af062a5905954f1952d5e6eea870a88ac00000000", "vin": [{"sequence": 4294967295, "scriptSig": {"hex": "483045022100f37b56c5edf998d1487618d10c11a0fed9eeee11a29242fe89dddd7a561ab78f02206fa7bb1052e48a022be4166324403947d16e8e1ed213511c41881cf243cb05a8012102d0706b024079bf00e40fc3d0efd01da05997399078f136557aa1b94178a058ee", "asm": "3045022100f37b56c5edf998d1487618d10c11a0fed9eeee11a29242fe89dddd7a561ab78f02206fa7bb1052e48a022be4166324403947d16e8e1ed213511c41881cf243cb05a8[ALL] 02d0706b024079bf00e40fc3d0efd01da05997399078f136557aa1b94178a058ee"}, "vout": 0, "txid": "d1dcd8c4630e99cbf634f11196b67d5126b771929611f65c2a3b61b770c9842d"}, {"sequence": 4294967295, "scriptSig": {"hex": "47304402202c1d131170f5101bfcbc9ef622b41f6e759dcf2a6a3548910a4acdf3d36bd03802203f08535c401b3d050571e5b1863354d4590fdb5dbf3ee8c50e11f71e59a01221012103420c16ac5c3e0ce3b34ceb04906cacaa0fe976a0155962d5d8756861a022273b", "asm": "304402202c1d131170f5101bfcbc9ef622b41f6e759dcf2a6a3548910a4acdf3d36bd03802203f08535c401b3d050571e5b1863354d4590fdb5dbf3ee8c50e11f71e59a01221[ALL] 03420c16ac5c3e0ce3b34ceb04906cacaa0fe976a0155962d5d8756861a022273b"}, "vout": 1, "txid": "e08d81032dfa29a49d8c6ced62309a11c3a1c26d804e5e5d3f4e07278d3a4b39"}], "txid": "a58fd7f0a711c8399b6ada21d8661cf4f72b337a8e8ece724bb42b8c552b8498", "blocktime": 1537872018, "version": 1, "confirmations": 11489, "time": 1537872018, "locktime": 0, "vsize": 373, "size": 373}