{"hash": "a59677558fd81dcab9b6c5c4baf6d5b363b096280539c843f11241f48f658e85", "blockhash": "0000000000000000001cda96e906b7601b7a6fb1a3b62bca570a9e5d8f4b3de1", "vout": [{"scriptPubKey": {"reqSigs": 1, "hex": "76a914fad23c124b2352116bf099a87e68dd9daff17a2c88ac", "addresses": ["1PsDnKQvySUKzj5yySjawgWskV26YeFT7a"], "asm": "OP_DUP OP_HASH160 fad23c124b2352116bf099a87e68dd9daff17a2c OP_EQUALVERIFY OP_CHECKSIG", "type": "pubkeyhash"}, "value": 0.01093, "n": 0}, {"scriptPubKey": {"reqSigs": 1, "hex": "76a914938fc59571d2ed78c294c6b8d6947226a2750af988ac", "addresses": ["1ETEZe6qtBWeEntN58PXrBKFY5bVmCU1BM"], "asm": "OP_DUP OP_HASH160 938fc59571d2ed78c294c6b8d6947226a2750af9 OP_EQUALVERIFY OP_CHECKSIG", "type": "pubkeyhash"}, "value": 0.03126, "n": 1}], "hex": "010000000266d3a38e0e6438e9a78e5e34ae697aa7e45be4d9bbef9aabcd3789b98ada49cd000000006b483045022100f922f81637d218abf72074e66b36c6ece0d725522f6bd40d5fb6ec29e311ac72022041d5fe5d03cbbad0ab36b4d5f1dd226c262f78cf7e7cf2aa26601c3edd0d4908012103b3caac3653afd6ff54f4d83e9ece2977d2c4a47b7aa2d650b1abedb60f6f7bc5ffffffff81e3bb464af40de07204183d304e02586d6d8f62a2b6a721f0ecbf9b0b7350c5000000006a47304402205a80762e7fc1fc798925cd3a183c01656816263e4fbab3b5a58b58ebcb5c5b53022074df37fe944d80365721aec2419576d1cf6ef2f09729e7a694d08c39ecbd39810121022e87917637b0159ce41620e7cff5cb05f510d7cfddb288dcebef46f5b4dab4aeffffffff0288ad1000000000001976a914fad23c124b2352116bf099a87e68dd9daff17a2c88acf0b22f00000000001976a914938fc59571d2ed78c294c6b8d6947226a2750af988ac00000000", "vin": [{"sequence": 4294967295, "scriptSig": {"hex": "483045022100f922f81637d218abf72074e66b36c6ece0d725522f6bd40d5fb6ec29e311ac72022041d5fe5d03cbbad0ab36b4d5f1dd226c262f78cf7e7cf2aa26601c3edd0d4908012103b3caac3653afd6ff54f4d83e9ece2977d2c4a47b7aa2d650b1abedb60f6f7bc5", "asm": "3045022100f922f81637d218abf72074e66b36c6ece0d725522f6bd40d5fb6ec29e311ac72022041d5fe5d03cbbad0ab36b4d5f1dd226c262f78cf7e7cf2aa26601c3edd0d4908[ALL] 03b3caac3653afd6ff54f4d83e9ece2977d2c4a47b7aa2d650b1abedb60f6f7bc5"}, "vout": 0, "txid": "cd49da8ab98937cdab9aefbbd9e45be4a77a69ae345e8ea7e938640e8ea3d366"}, {"sequence": 4294967295, "scriptSig": {"hex": "47304402205a80762e7fc1fc798925cd3a183c01656816263e4fbab3b5a58b58ebcb5c5b53022074df37fe944d80365721aec2419576d1cf6ef2f09729e7a694d08c39ecbd39810121022e87917637b0159ce41620e7cff5cb05f510d7cfddb288dcebef46f5b4dab4ae", "asm": "304402205a80762e7fc1fc798925cd3a183c01656816263e4fbab3b5a58b58ebcb5c5b53022074df37fe944d80365721aec2419576d1cf6ef2f09729e7a694d08c39ecbd3981[ALL] 022e87917637b0159ce41620e7cff5cb05f510d7cfddb288dcebef46f5b4dab4ae"}, "vout": 0, "txid": "c550730b9bbfecf021a7b6a2628f6d6d58024e303d180472e00df44a46bbe381"}], "txid": "a59677558fd81dcab9b6c5c4baf6d5b363b096280539c843f11241f48f658e85", "blocktime": 1537873282, "version": 1, "confirmations": 11485, "time": 1537873282, "locktime": 0, "vsize": 373, "size": 373}