{"hash": "dc29157111616f1a49eb74197178b9eaa18a993bea500c70fad6d75e58331fb4", "blockhash": "000000000000000000205f8b0775d31398ef75b89a5e8ec8d2c57b4dc0ac4c20", "vout": [{"scriptPubKey": {"reqSigs": 1, "hex": "a91455c8c3e88995e58c8542b3af83ca3d1865ee775887", "addresses": ["39WbsGJW29h5XBSANoLxcTxK2gvVmFNxki"], "asm": "OP_HASH160 55c8c3e88995e58c8542b3af83ca3d1865ee7758 OP_EQUAL", "type": "scripthash"}, "value": 0.00087825, "n": 0}, {"scriptPubKey": {"reqSigs": 1, "hex": "a9148151aeb1eb8a0c17cf21ec891b54cd2f50f90e5587", "addresses": ["3DUnwgYpWXfiuQZKeoY2VuoyoY7rsDhaCP"], "asm": "OP_HASH160 8151aeb1eb8a0c17cf21ec891b54cd2f50f90e55 OP_EQUAL", "type": "scripthash"}, "value": 0.20360728, "n": 1}, {"scriptPubKey": {"reqSigs": 1, "hex": "76a91480c1ac9afd701d4174601484c5a8f27b88993a3088ac", "addresses": ["1CjoWH2odAN65v7CaNS67k3QhMemDfHyk6"], "asm": "OP_DUP OP_HASH160 80c1ac9afd701d4174601484c5a8f27b88993a30 OP_EQUALVERIFY OP_CHECKSIG", "type": "pubkeyhash"}, "value": 0.35130233, "n": 2}], "hex": "01000000000102a97798b4f02eb42d85957768ed6d964f1eafefc5e704d2afdd7ed9d3e21669c80000000023220020fe23eaca29580d53039416f79528a5b9c26f85ea466a34da093b28ed9d65dc78ffffffff7e82a390fe6234a34c6f661ada9088ad15636fc763e3035f3dacd4cb0e4547070100000023220020fcb0907dbb12ccf0569a8726bf67898a62b7049139b228e9ad26eb95111c15b9ffffffff03115701000000000017a91455c8c3e88995e58c8542b3af83ca3d1865ee77588718ae36010000000017a9148151aeb1eb8a0c17cf21ec891b54cd2f50f90e5587790b1802000000001976a91480c1ac9afd701d4174601484c5a8f27b88993a3088ac0400483045022100ba64e2cd9784db1287efc10df826db2a7a2599d335d519f3b674bd292dc5dcca022078ada010f39a81cd8ceaea7685df9c22a302faee64b5c25299641064e142eceb014730440220125911519957716262a82fc153898cc3eb61b66f04469132bbbf9ccdff9d67c0022021f98fcba1752fb3ccdac568b89121aa0a22755bcd01772a7b429830d90faeca016952210227efe22baf53653e9840b2de9d15b8b4dfca74bf8bf2eb08f3a2b0a0a6b91a462102b96f705eb9520328968225034ab8c8e93489abd2b14fae4b769ba4afc3601d69210309b46772a52fb2cc468429f012899f59f509e89a3ea671f6473b9dd67874976f53ae04004830450221008bd362dc7b0b56e58a9cbf3263eecfcd807f51c100cd4b02ca9e7ffc317f332c02200473b12d6804468eddb4b5d957e099530bf2778cace6c0f21054afc19b5f601c0147304402203905d078eed9e473ffe02c6385e498ec645888279224a344172240058a17679402205240e1d84b5d5c70cb36c9a8ca0d372141805f673617232ebd56be6eec56ad230169522102ee559c03cff1613cb89680b9494d1c5e52bc21b719af83896a2ffa11cded78c6210388915a4dc60905a14ea6478d45c8000c5f5bf34999525736fdf16563395c3d032103fcb113b4126b8f3b3bd28cda8bb2eccc82d41e4afb434aedafe7bed9bd112d3153ae00000000", "vin": [{"txinwitness": ["", "3045022100ba64e2cd9784db1287efc10df826db2a7a2599d335d519f3b674bd292dc5dcca022078ada010f39a81cd8ceaea7685df9c22a302faee64b5c25299641064e142eceb01", "30440220125911519957716262a82fc153898cc3eb61b66f04469132bbbf9ccdff9d67c0022021f98fcba1752fb3ccdac568b89121aa0a22755bcd01772a7b429830d90faeca01", "52210227efe22baf53653e9840b2de9d15b8b4dfca74bf8bf2eb08f3a2b0a0a6b91a462102b96f705eb9520328968225034ab8c8e93489abd2b14fae4b769ba4afc3601d69210309b46772a52fb2cc468429f012899f59f509e89a3ea671f6473b9dd67874976f53ae"], "sequence": 4294967295, "scriptSig": {"hex": "220020fe23eaca29580d53039416f79528a5b9c26f85ea466a34da093b28ed9d65dc78", "asm": "0020fe23eaca29580d53039416f79528a5b9c26f85ea466a34da093b28ed9d65dc78"}, "vout": 0, "txid": "c86916e2d3d97eddafd204e7c5efaf1e4f966ded687795852db42ef0b49877a9"}, {"txinwitness": ["", "30450221008bd362dc7b0b56e58a9cbf3263eecfcd807f51c100cd4b02ca9e7ffc317f332c02200473b12d6804468eddb4b5d957e099530bf2778cace6c0f21054afc19b5f601c01", "304402203905d078eed9e473ffe02c6385e498ec645888279224a344172240058a17679402205240e1d84b5d5c70cb36c9a8ca0d372141805f673617232ebd56be6eec56ad2301", "522102ee559c03cff1613cb89680b9494d1c5e52bc21b719af83896a2ffa11cded78c6210388915a4dc60905a14ea6478d45c8000c5f5bf34999525736fdf16563395c3d032103fcb113b4126b8f3b3bd28cda8bb2eccc82d41e4afb434aedafe7bed9bd112d3153ae"], "sequence": 4294967295, "scriptSig": {"hex": "220020fcb0907dbb12ccf0569a8726bf67898a62b7049139b228e9ad26eb95111c15b9", "asm": "0020fcb0907dbb12ccf0569a8726bf67898a62b7049139b228e9ad26eb95111c15b9"}, "vout": 1, "txid": "0747450ecbd4ac3d5f03e363c76f6315ad8890da1a666f4ca33462fe90a3827e"}], "txid": "a5980f37505e3c136db93591d72c4060e48122b8c8919b2a268d7388be7edea9", "blocktime": 1537871175, "version": 1, "confirmations": 11511, "time": 1537871175, "locktime": 0, "vsize": 387, "size": 768}