{"hash": "48d40c0267dc03ca7a9e7d2a206e5e71ca884b3993c910d359c96509f7bc5880", "blockhash": "00000000000000000024a2167bbff67b0be802c0b01cdd79e6331c2be6459f87", "vout": [{"scriptPubKey": {"reqSigs": 1, "hex": "76a91430b6034e42afcf130804e3cb2889863094c7208f88ac", "addresses": ["15SZUgqFVrZ1m2VyKXD1F959yxDd7PvrAJ"], "asm": "OP_DUP OP_HASH160 30b6034e42afcf130804e3cb2889863094c7208f OP_EQUALVERIFY OP_CHECKSIG", "type": "pubkeyhash"}, "value": 0.01118862, "n": 0}, {"scriptPubKey": {"reqSigs": 1, "hex": "a914b37d42607df9d378eefc5b9f9af8d1c48aff192387", "addresses": ["3J44w3oPAp6USWMcAb4jhEp94Jhdz8W4Dg"], "asm": "OP_HASH160 b37d42607df9d378eefc5b9f9af8d1c48aff1923 OP_EQUAL", "type": "scripthash"}, "value": 0.06865484, "n": 1}], "hex": "01000000000101501dbe2aaf17828cf7efd3b5e658dd8720037d4a40725a9feb40d061d33eb41c01000000171600149173b3a88cb268bb35c891db7a0df146f90babc0fdffffff028e121100000000001976a91430b6034e42afcf130804e3cb2889863094c7208f88ac4cc268000000000017a914b37d42607df9d378eefc5b9f9af8d1c48aff1923870247304402202dfa9056e68f9c79e3b006a8cf886cbf52174315e8c97442218086f809310a5a0220117731bad16852d79d3764afb40925f7eb51e537c48803682d4f2bb39b40143e0121031ad0fe4a9dabd8f3172619b7f37488061619c4e7d1f4f2289143ebcc3db6083a0d490800", "vin": [{"txinwitness": ["304402202dfa9056e68f9c79e3b006a8cf886cbf52174315e8c97442218086f809310a5a0220117731bad16852d79d3764afb40925f7eb51e537c48803682d4f2bb39b40143e01", "031ad0fe4a9dabd8f3172619b7f37488061619c4e7d1f4f2289143ebcc3db6083a"], "sequence": 4294967293, "scriptSig": {"hex": "1600149173b3a88cb268bb35c891db7a0df146f90babc0", "asm": "00149173b3a88cb268bb35c891db7a0df146f90babc0"}, "vout": 1, "txid": "1cb43ed361d040eb9f5a72404a7d032087dd58e6b5d3eff78c8217af2abe1d50"}], "txid": "a5a3c8b7f1cc2b5d0d4221a1aecae2874869f10bafda27e237b0e28f85cf1040", "blocktime": 1537870564, "version": 1, "confirmations": 11515, "time": 1537870564, "locktime": 542989, "vsize": 168, "size": 249}