{"hash": "a5a916a43f0dc9c063be2de1fb0d4ea93cf0ad57140756db95ef36af427afab8", "blockhash": "0000000000000000001f76057863aec43deb6fa401d9628bb513d65a8098bfab", "vout": [{"scriptPubKey": {"reqSigs": 1, "hex": "76a914d64c24250205c7e9415d6bc6d64fb40b3de8959d88ac", "addresses": ["1LY6pSC3MwFioPuCjkagngMPwPyFa2rr2v"], "asm": "OP_DUP OP_HASH160 d64c24250205c7e9415d6bc6d64fb40b3de8959d OP_EQUALVERIFY OP_CHECKSIG", "type": "pubkeyhash"}, "value": 0.004358, "n": 0}, {"scriptPubKey": {"reqSigs": 1, "hex": "76a914294fa1f7269d525df0669682aec7513e17327bce88ac", "addresses": ["14mS6qkNG4HShMFwoysHhHSPfVb3sHrPWm"], "asm": "OP_DUP OP_HASH160 294fa1f7269d525df0669682aec7513e17327bce OP_EQUALVERIFY OP_CHECKSIG", "type": "pubkeyhash"}, "value": 0.015634, "n": 1}], "hex": "01000000018b4ee861d2b5a2d7466357fe136eb7b7b0ef3b7c2e5da4f29ed07b7a924cd589000000006a4730440220394eba70516590400b7eb91423238fcc81f65b5764394bcfa381c607868e4f0c022016efcd9e9ff37cd2e91a512661d7093d2216c8da7a56945cc2491aa9c80fb59d012102e187d79e4204deea85dd0d84516c2fd283577ed649a49e9badfb5c64fd8c3e03ffffffff0258a60600000000001976a914d64c24250205c7e9415d6bc6d64fb40b3de8959d88ac08db1700000000001976a914294fa1f7269d525df0669682aec7513e17327bce88ac00000000", "vin": [{"sequence": 4294967295, "scriptSig": {"hex": "4730440220394eba70516590400b7eb91423238fcc81f65b5764394bcfa381c607868e4f0c022016efcd9e9ff37cd2e91a512661d7093d2216c8da7a56945cc2491aa9c80fb59d012102e187d79e4204deea85dd0d84516c2fd283577ed649a49e9badfb5c64fd8c3e03", "asm": "30440220394eba70516590400b7eb91423238fcc81f65b5764394bcfa381c607868e4f0c022016efcd9e9ff37cd2e91a512661d7093d2216c8da7a56945cc2491aa9c80fb59d[ALL] 02e187d79e4204deea85dd0d84516c2fd283577ed649a49e9badfb5c64fd8c3e03"}, "vout": 0, "txid": "89d54c927a7bd09ef2a45d2e7c3befb0b7b76e13fe576346d7a2b5d261e84e8b"}], "txid": "a5a916a43f0dc9c063be2de1fb0d4ea93cf0ad57140756db95ef36af427afab8", "blocktime": 1537873891, "version": 1, "confirmations": 11478, "time": 1537873891, "locktime": 0, "vsize": 225, "size": 225}