{"hash": "a5ad082eb648940f921e0d07d28e00633edfb9f47ce9ec2cfa7682f5a9247a0b", "blockhash": "0000000000000000001cda96e906b7601b7a6fb1a3b62bca570a9e5d8f4b3de1", "vout": [{"scriptPubKey": {"reqSigs": 1, "hex": "76a914fa9f40a89230c5bca6e32ca7f9395231e97315ab88ac", "addresses": ["1PrAi2BJc7n69QKBrZAWQuVoh7mM1rC1VB"], "asm": "OP_DUP OP_HASH160 fa9f40a89230c5bca6e32ca7f9395231e97315ab OP_EQUALVERIFY OP_CHECKSIG", "type": "pubkeyhash"}, "value": 0.090008, "n": 0}], "hex": "0200000001a72ecb4d3adecebe09e589101e06138100c2fa7235d4e6c737f973924ecd336c060000006a47304402204c002c84f879192d3edef53737541a6c0c670b155089bf0cba0ac93ed98abbf8022041357a8569dc218006f06d4276e890d7f01abc1a994eab71ab49ac33aa4a960d012103c4ef3234c5eafa1a866fedc0ce23f1dbe80363454c503f9f0ce8b030755b6540ffffffff0160578900000000001976a914fa9f40a89230c5bca6e32ca7f9395231e97315ab88ac00000000", "vin": [{"sequence": 4294967295, "scriptSig": {"hex": "47304402204c002c84f879192d3edef53737541a6c0c670b155089bf0cba0ac93ed98abbf8022041357a8569dc218006f06d4276e890d7f01abc1a994eab71ab49ac33aa4a960d012103c4ef3234c5eafa1a866fedc0ce23f1dbe80363454c503f9f0ce8b030755b6540", "asm": "304402204c002c84f879192d3edef53737541a6c0c670b155089bf0cba0ac93ed98abbf8022041357a8569dc218006f06d4276e890d7f01abc1a994eab71ab49ac33aa4a960d[ALL] 03c4ef3234c5eafa1a866fedc0ce23f1dbe80363454c503f9f0ce8b030755b6540"}, "vout": 6, "txid": "6c33cd4e9273f937c7e6d43572fac2008113061e1089e509becede3a4dcb2ea7"}], "txid": "a5ad082eb648940f921e0d07d28e00633edfb9f47ce9ec2cfa7682f5a9247a0b", "blocktime": 1537873282, "version": 2, "confirmations": 11480, "time": 1537873282, "locktime": 0, "vsize": 191, "size": 191}