{"hash": "a5afde32422268c71f721e3dd967b088b44ac528274187b21f8bfafc12ceb936", "blockhash": "0000000000000000001f76057863aec43deb6fa401d9628bb513d65a8098bfab", "vout": [{"scriptPubKey": {"reqSigs": 1, "hex": "76a914dac2d87e661cf626017917128c4d478411ccc57788ac", "addresses": ["1LwhiwBQEjdjhbYP1dDKuNxHFA7TDVuYxi"], "asm": "OP_DUP OP_HASH160 dac2d87e661cf626017917128c4d478411ccc577 OP_EQUALVERIFY OP_CHECKSIG", "type": "pubkeyhash"}, "value": 22.58795356, "n": 0}, {"scriptPubKey": {"reqSigs": 1, "hex": "76a914d5e000acec715523a897aaf3016a22e32d3ae22788ac", "addresses": ["1LVsGqVXDHr8HUQhKpJ6W9A5ZZLw3xh3kE"], "asm": "OP_DUP OP_HASH160 d5e000acec715523a897aaf3016a22e32d3ae227 OP_EQUALVERIFY OP_CHECKSIG", "type": "pubkeyhash"}, "value": 0.06479242, "n": 1}], "hex": "01000000019d15c1b79aaac95fd766e9c8e1e850a75e7a71868d5d64d7ec4b5790e10231bf000000006a473044022058b155adaf9c2b9beef73f540577493b1b1eef029684ee8760f5a1b043ae97be022026f5963138b9e97b89384008df9e7859ddba0e7c92d4d740c8e3876ab5746495012103929970db841fe34ffe32ac691c55beed94c06d07dbbc08703153c1cc316b5600ffffffff025c7ba286000000001976a914dac2d87e661cf626017917128c4d478411ccc57788ac8add6200000000001976a914d5e000acec715523a897aaf3016a22e32d3ae22788ac00000000", "vin": [{"sequence": 4294967295, "scriptSig": {"hex": "473044022058b155adaf9c2b9beef73f540577493b1b1eef029684ee8760f5a1b043ae97be022026f5963138b9e97b89384008df9e7859ddba0e7c92d4d740c8e3876ab5746495012103929970db841fe34ffe32ac691c55beed94c06d07dbbc08703153c1cc316b5600", "asm": "3044022058b155adaf9c2b9beef73f540577493b1b1eef029684ee8760f5a1b043ae97be022026f5963138b9e97b89384008df9e7859ddba0e7c92d4d740c8e3876ab5746495[ALL] 03929970db841fe34ffe32ac691c55beed94c06d07dbbc08703153c1cc316b5600"}, "vout": 0, "txid": "bf3102e190574becd7645d8d86717a5ea750e8e1c8e966d75fc9aa9ab7c1159d"}], "txid": "a5afde32422268c71f721e3dd967b088b44ac528274187b21f8bfafc12ceb936", "blocktime": 1537873891, "version": 1, "confirmations": 11474, "time": 1537873891, "locktime": 0, "vsize": 225, "size": 225}