{"hash": "a5b3aa4cedbd33898d2fbab30fb2e4a23908f3cb54ba9b99cda5656b9c708947", "blockhash": "0000000000000000001e0dab787dd257d1dbfcb92a98c2207d5e1078be1f4165", "vout": [{"scriptPubKey": {"reqSigs": 1, "hex": "76a914edfa2a2895138063bf7cca771904ca01e57e8fbb88ac", "addresses": ["1NhJqDDXJacbt3ir3cYG4zf9TZDhEDoW9W"], "asm": "OP_DUP OP_HASH160 edfa2a2895138063bf7cca771904ca01e57e8fbb OP_EQUALVERIFY OP_CHECKSIG", "type": "pubkeyhash"}, "value": 0.00037981, "n": 0}, {"scriptPubKey": {"reqSigs": 1, "hex": "76a914802be80119bbb5a963b3f5ef9a80dcb0be43648388ac", "addresses": ["1Cgi6DUua1qHcTGteGWvkwAE5BpAotL5JB"], "asm": "OP_DUP OP_HASH160 802be80119bbb5a963b3f5ef9a80dcb0be436483 OP_EQUALVERIFY OP_CHECKSIG", "type": "pubkeyhash"}, "value": 0.00910885, "n": 1}], "hex": "02000000014b3eea3c74a20c769d4acced7fce694b52e3af8b6aaacb7fe0fec43b50fd1f21010000006b483045022100e2d17b4bd974688c7c1b94d77afb7d4e2d54b5b45c56591e0805a7676821256f022051feec944e4ea1632ec3e12877a61a5c7d6ddbec5be7b608413f8b4dc9d9f4e9012102c03cea5090164942f178c60550418dd4619fb90b2963ccc325c6e267915e4baeffffffff025d940000000000001976a914edfa2a2895138063bf7cca771904ca01e57e8fbb88ac25e60d00000000001976a914802be80119bbb5a963b3f5ef9a80dcb0be43648388ac00000000", "vin": [{"sequence": 4294967295, "scriptSig": {"hex": "483045022100e2d17b4bd974688c7c1b94d77afb7d4e2d54b5b45c56591e0805a7676821256f022051feec944e4ea1632ec3e12877a61a5c7d6ddbec5be7b608413f8b4dc9d9f4e9012102c03cea5090164942f178c60550418dd4619fb90b2963ccc325c6e267915e4bae", "asm": "3045022100e2d17b4bd974688c7c1b94d77afb7d4e2d54b5b45c56591e0805a7676821256f022051feec944e4ea1632ec3e12877a61a5c7d6ddbec5be7b608413f8b4dc9d9f4e9[ALL] 02c03cea5090164942f178c60550418dd4619fb90b2963ccc325c6e267915e4bae"}, "vout": 1, "txid": "211ffd503bc4fee07fcbaa6a8bafe3524b69ce7fedcc4a9d760ca2743cea3e4b"}], "txid": "a5b3aa4cedbd33898d2fbab30fb2e4a23908f3cb54ba9b99cda5656b9c708947", "blocktime": 1537872475, "version": 2, "confirmations": 11486, "time": 1537872475, "locktime": 0, "vsize": 226, "size": 226}