{"hash": "a5b399c921489adeb8025be841f91f044506332d6c8aafb08c2c6a0b4b20bb31", "blockhash": "0000000000000000000dcc0f55137456b1a82d3642486a52398922ac4d620174", "vout": [{"scriptPubKey": {"type": "nulldata", "hex": "6a4c500000776e0001eae3fea86536b224151bd6ac86aeaeacb577c031fc3a016b46dc7dc7d09600723d621802e12497cb3aad16d48df45baa08dc06137afffcc5f6481d100759d4ba30d2c37bb011d97e02cf", "asm": "OP_RETURN 0000776e0001eae3fea86536b224151bd6ac86aeaeacb577c031fc3a016b46dc7dc7d09600723d621802e12497cb3aad16d48df45baa08dc06137afffcc5f6481d100759d4ba30d2c37bb011d97e02cf"}, "value": 0.0, "n": 0}, {"scriptPubKey": {"reqSigs": 1, "hex": "76a9146a0cd0d5d2fb9282b459567d9ccf050c6363597488ac", "addresses": ["1AfjynkchVe7QBoLL7A1CVDJcrhH3qi1Y5"], "asm": "OP_DUP OP_HASH160 6a0cd0d5d2fb9282b459567d9ccf050c63635974 OP_EQUALVERIFY OP_CHECKSIG", "type": "pubkeyhash"}, "value": 0.00650332, "n": 1}], "hex": "0100000001fedd4e3406b8d7fae2564e015c8a116ad55e6f2429964fadb6b25e3f63f7fd2a000000006b483045022100a3a9de1b2fb98cb1252a87a47c3ccf84ee45373991b455f36d6a2b52efe1a2f6022039cfbf5dd26d8b88eb79aab5b4164195afe9b4ba25e9fde65539941000fe9e9601210270d592407d219e4938bfdc018881385d1934e173d2ece2fb561962abb4976b37ffffffff020000000000000000536a4c500000776e0001eae3fea86536b224151bd6ac86aeaeacb577c031fc3a016b46dc7dc7d09600723d621802e12497cb3aad16d48df45baa08dc06137afffcc5f6481d100759d4ba30d2c37bb011d97e02cf5cec0900000000001976a9146a0cd0d5d2fb9282b459567d9ccf050c6363597488ac00000000", "vin": [{"sequence": 4294967295, "scriptSig": {"hex": "483045022100a3a9de1b2fb98cb1252a87a47c3ccf84ee45373991b455f36d6a2b52efe1a2f6022039cfbf5dd26d8b88eb79aab5b4164195afe9b4ba25e9fde65539941000fe9e9601210270d592407d219e4938bfdc018881385d1934e173d2ece2fb561962abb4976b37", "asm": "3045022100a3a9de1b2fb98cb1252a87a47c3ccf84ee45373991b455f36d6a2b52efe1a2f6022039cfbf5dd26d8b88eb79aab5b4164195afe9b4ba25e9fde65539941000fe9e96[ALL] 0270d592407d219e4938bfdc018881385d1934e173d2ece2fb561962abb4976b37"}, "vout": 0, "txid": "2afdf7633f5eb2b6ad4f9629246f5ed56a118a5c014e56e2fad7b806344eddfe"}], "txid": "a5b399c921489adeb8025be841f91f044506332d6c8aafb08c2c6a0b4b20bb31", "blocktime": 1537870268, "version": 1, "confirmations": 11518, "time": 1537870268, "locktime": 0, "vsize": 284, "size": 284}