{"hash": "a5bc73006622a1d5a54c36e09d5f5bba5d636a40f1808d73dac79dacb5812e36", "blockhash": "00000000000000000018f53835495a110e01622372bf6ae95dc86f2b0ab887b0", "vout": [{"scriptPubKey": {"reqSigs": 1, "hex": "a914be8276a1cf1592bfdda4a6c1ce7eac4c01f587d387", "addresses": ["3K4LbkLJUXjMocaSMagBPZ5C7rD1h22Kzp"], "asm": "OP_HASH160 be8276a1cf1592bfdda4a6c1ce7eac4c01f587d3 OP_EQUAL", "type": "scripthash"}, "value": 0.0863765, "n": 0}], "hex": "01000000018f4fac8576a6e51eb435adb1bc3fd332b5b7afebe19dd1b5c878c77aac4b025e010000006a47304402202d62c7e473dc09e07bc6600cb2c3706e8c73a71d51201fb0b18a0aa6ba2eeabf02202b358991708eb643d58f97bc12c4b3cf2f720ada8b2a1907ccdf04f97821dd9501210386178c31ca33174067c2f71331167ed88e14081aadc2e80acf37b6552d0f4009ffffffff01d2cc83000000000017a914be8276a1cf1592bfdda4a6c1ce7eac4c01f587d38700000000", "vin": [{"sequence": 4294967295, "scriptSig": {"hex": "47304402202d62c7e473dc09e07bc6600cb2c3706e8c73a71d51201fb0b18a0aa6ba2eeabf02202b358991708eb643d58f97bc12c4b3cf2f720ada8b2a1907ccdf04f97821dd9501210386178c31ca33174067c2f71331167ed88e14081aadc2e80acf37b6552d0f4009", "asm": "304402202d62c7e473dc09e07bc6600cb2c3706e8c73a71d51201fb0b18a0aa6ba2eeabf02202b358991708eb643d58f97bc12c4b3cf2f720ada8b2a1907ccdf04f97821dd95[ALL] 0386178c31ca33174067c2f71331167ed88e14081aadc2e80acf37b6552d0f4009"}, "vout": 1, "txid": "5e024bac7ac778c8b5d19de1ebafb7b532d33fbcb1ad35b41ee5a67685ac4f8f"}], "txid": "a5bc73006622a1d5a54c36e09d5f5bba5d636a40f1808d73dac79dacb5812e36", "blocktime": 1537870928, "version": 1, "confirmations": 11512, "time": 1537870928, "locktime": 0, "vsize": 189, "size": 189}