{"hash": "a5befde0ad4ed1a7c6ce4de9fd529bbfbd0446e1b7e1fe7ed8bf0e66a6987543", "blockhash": "0000000000000000000e13cef7c366c0283d82e591d1acd082e914b08063cdf1", "vout": [{"scriptPubKey": {"reqSigs": 1, "hex": "76a914a72872b43b5e0ef61e136fa39ff0e1572b28fe1188ac", "addresses": ["1GErJR9ZygDkofWCDRSZCgqATfFGoPoXpU"], "asm": "OP_DUP OP_HASH160 a72872b43b5e0ef61e136fa39ff0e1572b28fe11 OP_EQUALVERIFY OP_CHECKSIG", "type": "pubkeyhash"}, "value": 7.273e-05, "n": 0}, {"scriptPubKey": {"reqSigs": 1, "hex": "76a9149a45d7a5968d35262b11c8ebaf045962746bc58988ac", "addresses": ["1F4ijGwcfTk4SNB51oFNP6yKn28KKAd27V"], "asm": "OP_DUP OP_HASH160 9a45d7a5968d35262b11c8ebaf045962746bc589 OP_EQUALVERIFY OP_CHECKSIG", "type": "pubkeyhash"}, "value": 0.01562414, "n": 1}], "hex": "0100000002e6855826051864b5eef23bf9dd0fe97ef3b931f57b73f71998baeeac061f5422000000006b483045022100f99ed38ebad4e681695244ec0ca6235212802e09fab17e94cf140f3472b8c80f02203c7820f6ec7342079d4771b5bd744dd985f6544093fc5787fa50c323e13f54de012103e81b2f2545f738f4117550fdf3eaeff43c582653ae3076aed6433d196a27de35ffffffff7cd9f77c597e3d2b88c7ce9a90ddaeabb8af7c8b6f90b6c555aeb7546e38467c000000006a473044022019c868413ba989eced0ba868b179a159d843e52e379bd61b6ac189e99d6c980402200b4268bef692a2b571d7e94ab6d6de7a7e1461bff1745d979a6bb5c2eb1029370121026fa64ed49fc28b5900bd7894ae8cd2e4a7cba135ab8ba1bdb5b2ad130df35f23ffffffff02691c0000000000001976a914a72872b43b5e0ef61e136fa39ff0e1572b28fe1188ac2ed71700000000001976a9149a45d7a5968d35262b11c8ebaf045962746bc58988ac00000000", "vin": [{"sequence": 4294967295, "scriptSig": {"hex": "483045022100f99ed38ebad4e681695244ec0ca6235212802e09fab17e94cf140f3472b8c80f02203c7820f6ec7342079d4771b5bd744dd985f6544093fc5787fa50c323e13f54de012103e81b2f2545f738f4117550fdf3eaeff43c582653ae3076aed6433d196a27de35", "asm": "3045022100f99ed38ebad4e681695244ec0ca6235212802e09fab17e94cf140f3472b8c80f02203c7820f6ec7342079d4771b5bd744dd985f6544093fc5787fa50c323e13f54de[ALL] 03e81b2f2545f738f4117550fdf3eaeff43c582653ae3076aed6433d196a27de35"}, "vout": 0, "txid": "22541f06aceeba9819f7737bf531b9f37ee90fddf93bf2eeb5641805265885e6"}, {"sequence": 4294967295, "scriptSig": {"hex": "473044022019c868413ba989eced0ba868b179a159d843e52e379bd61b6ac189e99d6c980402200b4268bef692a2b571d7e94ab6d6de7a7e1461bff1745d979a6bb5c2eb1029370121026fa64ed49fc28b5900bd7894ae8cd2e4a7cba135ab8ba1bdb5b2ad130df35f23", "asm": "3044022019c868413ba989eced0ba868b179a159d843e52e379bd61b6ac189e99d6c980402200b4268bef692a2b571d7e94ab6d6de7a7e1461bff1745d979a6bb5c2eb102937[ALL] 026fa64ed49fc28b5900bd7894ae8cd2e4a7cba135ab8ba1bdb5b2ad130df35f23"}, "vout": 0, "txid": "7c46386e54b7ae55c5b6906f8b7cafb8abaedd909acec7882b3d7e597cf7d97c"}], "txid": "a5befde0ad4ed1a7c6ce4de9fd529bbfbd0446e1b7e1fe7ed8bf0e66a6987543", "blocktime": 1537871767, "version": 1, "confirmations": 11495, "time": 1537871767, "locktime": 0, "vsize": 373, "size": 373}