{"hash": "a5c75763b821e8c51e96042da374ff6ac22797616addcbbcd4554d6a21f164e8", "blockhash": "0000000000000000000baef3f32e3676a92c3b2e5da21b426e4f302fc371ce76", "vout": [{"scriptPubKey": {"reqSigs": 1, "hex": "76a914b9b4869d47ac15a507eb831e6d55a85433e811c188ac", "addresses": ["1HvvGeLRt7E1P6FPqDrSggnXH3EXCbkPXH"], "asm": "OP_DUP OP_HASH160 b9b4869d47ac15a507eb831e6d55a85433e811c1 OP_EQUALVERIFY OP_CHECKSIG", "type": "pubkeyhash"}, "value": 0.0220304, "n": 0}, {"scriptPubKey": {"type": "nulldata", "hex": "6a4c50000078100001a31935327121c68845066766702940d64fa54d8eb2d19ed074892d00f8e82b058141b0a2ec44eacc0ed6654a8e1b5baa1b7d061488a23f962209bc9a9526289ac0f6612cd74e33776ee4", "asm": "OP_RETURN 000078100001a31935327121c68845066766702940d64fa54d8eb2d19ed074892d00f8e82b058141b0a2ec44eacc0ed6654a8e1b5baa1b7d061488a23f962209bc9a9526289ac0f6612cd74e33776ee4"}, "value": 0.0, "n": 1}], "hex": "0100000001a53043fcbfc014026315d738a03f0e2b56111e0baf9f42ed41348830c0c2f72b010000006b4830450221008b5ab1cfe9481debd51fd01d918c4a094d8653405f1d8347f05012546bd91a4e022067bb3672a1071075c15647eb55cd611319524adc8c4fecc1285b01be4efde5c50121022cf9cbaaf6dc1b7b4ad220e159623d47f34803402840b51a07b91c60fcb655aaffffffff02a09d2100000000001976a914b9b4869d47ac15a507eb831e6d55a85433e811c188ac0000000000000000536a4c50000078100001a31935327121c68845066766702940d64fa54d8eb2d19ed074892d00f8e82b058141b0a2ec44eacc0ed6654a8e1b5baa1b7d061488a23f962209bc9a9526289ac0f6612cd74e33776ee400000000", "vin": [{"sequence": 4294967295, "scriptSig": {"hex": "4830450221008b5ab1cfe9481debd51fd01d918c4a094d8653405f1d8347f05012546bd91a4e022067bb3672a1071075c15647eb55cd611319524adc8c4fecc1285b01be4efde5c50121022cf9cbaaf6dc1b7b4ad220e159623d47f34803402840b51a07b91c60fcb655aa", "asm": "30450221008b5ab1cfe9481debd51fd01d918c4a094d8653405f1d8347f05012546bd91a4e022067bb3672a1071075c15647eb55cd611319524adc8c4fecc1285b01be4efde5c5[ALL] 022cf9cbaaf6dc1b7b4ad220e159623d47f34803402840b51a07b91c60fcb655aa"}, "vout": 1, "txid": "2bf7c2c030883441ed429faf0b1e11562b0e3fa038d715630214c0bffc4330a5"}], "txid": "a5c75763b821e8c51e96042da374ff6ac22797616addcbbcd4554d6a21f164e8", "blocktime": 1537876114, "version": 1, "confirmations": 11460, "time": 1537876114, "locktime": 0, "vsize": 284, "size": 284}