{"hash": "a5cbee4fee9e8adaabded75407f5f6453465ea10c25e894010fd01a2ce96f318", "blockhash": "0000000000000000001f0ddff1eddb255c1121bcd4da4f1bc9a0da00cae72433", "vout": [{"scriptPubKey": {"reqSigs": 1, "hex": "76a9141acd69dde272db484ecfc1a015c68394fe18c94c88ac", "addresses": ["13SieNW2MFL3UhPu1m87smvdohWPMQvn6e"], "asm": "OP_DUP OP_HASH160 1acd69dde272db484ecfc1a015c68394fe18c94c OP_EQUALVERIFY OP_CHECKSIG", "type": "pubkeyhash"}, "value": 0.00325019, "n": 0}, {"scriptPubKey": {"reqSigs": 1, "hex": "76a9147b0d8654ef1f9a9d42778f057b89878d699b7b7288ac", "addresses": ["1CDeKJzB1rHDYduwCgc5rDboLxDCSygtfg"], "asm": "OP_DUP OP_HASH160 7b0d8654ef1f9a9d42778f057b89878d699b7b72 OP_EQUALVERIFY OP_CHECKSIG", "type": "pubkeyhash"}, "value": 0.02003453, "n": 1}], "hex": "010000000102c203a4592528b6e243ca03ba955967c63981eaeb21d193dac7cb052ae3f03c000000006a47304402203fae9c0c6d16c38715d2685ba2f8aa855301e7d6530961f3bd25a4290f3c7ec40220562534267ac9d86117d36fae9495898cf9ee571681c9aec4ac81da9fd0b4d257012103c44718cf43f913ce4369ae629414942355b398f9a23365ae0dbb322e1ab49ff6ffffffff029bf50400000000001976a9141acd69dde272db484ecfc1a015c68394fe18c94c88acfd911e00000000001976a9147b0d8654ef1f9a9d42778f057b89878d699b7b7288ac00000000", "vin": [{"sequence": 4294967295, "scriptSig": {"hex": "47304402203fae9c0c6d16c38715d2685ba2f8aa855301e7d6530961f3bd25a4290f3c7ec40220562534267ac9d86117d36fae9495898cf9ee571681c9aec4ac81da9fd0b4d257012103c44718cf43f913ce4369ae629414942355b398f9a23365ae0dbb322e1ab49ff6", "asm": "304402203fae9c0c6d16c38715d2685ba2f8aa855301e7d6530961f3bd25a4290f3c7ec40220562534267ac9d86117d36fae9495898cf9ee571681c9aec4ac81da9fd0b4d257[ALL] 03c44718cf43f913ce4369ae629414942355b398f9a23365ae0dbb322e1ab49ff6"}, "vout": 0, "txid": "3cf0e32a05cbc7da93d121ebea8139c6675995ba03ca43e2b6282559a403c202"}], "txid": "a5cbee4fee9e8adaabded75407f5f6453465ea10c25e894010fd01a2ce96f318", "blocktime": 1537872018, "version": 1, "confirmations": 11489, "time": 1537872018, "locktime": 0, "vsize": 225, "size": 225}