{"hash": "1a80dc403b56c0d73bcf058c68e04a3cdb67d8131359d157cd324d02dbc0e749", "blockhash": "0000000000000000000e13cef7c366c0283d82e591d1acd082e914b08063cdf1", "vout": [{"scriptPubKey": {"reqSigs": 1, "hex": "76a914bbaec083b5e6b2619a44122d11954d363152fd0488ac", "addresses": ["1J7NhraWXwxB5EzsPgHjvHxXqAAYgWV397"], "asm": "OP_DUP OP_HASH160 bbaec083b5e6b2619a44122d11954d363152fd04 OP_EQUALVERIFY OP_CHECKSIG", "type": "pubkeyhash"}, "value": 0.0028236, "n": 0}, {"scriptPubKey": {"reqSigs": 1, "hex": "a9141f522ad5a8c3e34805159821bb718dd60754f63787", "addresses": ["34YdJaNU7NwWDtJUQfjimyTTDrjE9xx5Gb"], "asm": "OP_HASH160 1f522ad5a8c3e34805159821bb718dd60754f637 OP_EQUAL", "type": "scripthash"}, "value": 0.00999331, "n": 1}], "hex": "0200000000010226ff683e2b9bd2c79db2ae389ddb8c23e66a0795839fc1b101dbafc05fa185d1010000001716001463a5cc978e0769fd394ef10648dec47b38e0cb42feffffffc60f3d9fd9d72b3857d6dfb27bfa8d1926b052a107e4d68c12a26422c6748de80e00000017160014354663616348118bd52ba5e166f1ae88310ee216feffffff02f84e0400000000001976a914bbaec083b5e6b2619a44122d11954d363152fd0488aca33f0f000000000017a9141f522ad5a8c3e34805159821bb718dd60754f637870247304402206c8ef1f3e79ab35f4c8518250138b54b15be6761c0a99756e73565b3edcaba6702200a9d2b039acfc7cf5e2183403ef32f965330fabbe8684a0efec7e22524bb46b1012102a7552f98d74f2bcd06888725f5adf9c6582b4f8e6e535077e3ab76b3c7812a2d0247304402202cf7fa54f52cb6cbc4e823b9df19367b920de8a68b89ae884cbea57521741e0b02203bfb4cde44d373f22f648ed6516538182b2019559199a2f0add917ecfd20845e012102c9f735f4765c76bae71a91c29922ba654ac17f894eb71922c1bf36c857acdc3910490800", "vin": [{"txinwitness": ["304402206c8ef1f3e79ab35f4c8518250138b54b15be6761c0a99756e73565b3edcaba6702200a9d2b039acfc7cf5e2183403ef32f965330fabbe8684a0efec7e22524bb46b101", "02a7552f98d74f2bcd06888725f5adf9c6582b4f8e6e535077e3ab76b3c7812a2d"], "sequence": 4294967294, "scriptSig": {"hex": "16001463a5cc978e0769fd394ef10648dec47b38e0cb42", "asm": "001463a5cc978e0769fd394ef10648dec47b38e0cb42"}, "vout": 1, "txid": "d185a15fc0afdb01b1c19f8395076ae6238cdb9d38aeb29dc7d29b2b3e68ff26"}, {"txinwitness": ["304402202cf7fa54f52cb6cbc4e823b9df19367b920de8a68b89ae884cbea57521741e0b02203bfb4cde44d373f22f648ed6516538182b2019559199a2f0add917ecfd20845e01", "02c9f735f4765c76bae71a91c29922ba654ac17f894eb71922c1bf36c857acdc39"], "sequence": 4294967294, "scriptSig": {"hex": "160014354663616348118bd52ba5e166f1ae88310ee216", "asm": "0014354663616348118bd52ba5e166f1ae88310ee216"}, "vout": 14, "txid": "e88d74c62264a2128cd6e407a152b026198dfa7bb2dfd657382bd7d99f3d0fc6"}], "txid": "a5d576dc95a118463691a21fbddd855e95c957bd6d859ada509484953ae0560c", "blocktime": 1537871767, "version": 2, "confirmations": 11495, "time": 1537871767, "locktime": 542992, "vsize": 258, "size": 420}