{"hash": "a5d899921bde40203115f7cad0cef74f94c4be62e7154c20922d5464f97da221", "blockhash": "0000000000000000000dcc0f55137456b1a82d3642486a52398922ac4d620174", "vout": [{"scriptPubKey": {"reqSigs": 1, "hex": "a91469f3769b111d27c2c90060124f62a333c1d58acc87", "addresses": ["3BMEXp6fFYM1MJsYACJEemiZiLKBaKrSPg"], "asm": "OP_HASH160 69f3769b111d27c2c90060124f62a333c1d58acc OP_EQUAL", "type": "scripthash"}, "value": 0.15003657, "n": 0}, {"scriptPubKey": {"reqSigs": 1, "hex": "a9143bc90761525d29d5adeb7cd83a0ab175f896469f87", "addresses": ["3798cb9opYwNjvvyvuCpZkjUgdPMtPYRWk"], "asm": "OP_HASH160 3bc90761525d29d5adeb7cd83a0ab175f896469f OP_EQUAL", "type": "scripthash"}, "value": 1.84993263, "n": 1}], "hex": "0200000001bba521a82f52ac8073420fbe4eef6b3c17efb8783a9d7d6e9c3ed7ecc64e1b1904000000fdfe00004830450221008195b6721493699defa2e30c5c1498ef128e54794722103d0fe1eef73385590902205f45870713467b22fb5e74475ac11014eec318475765eb95e49991406ab97cb5014830450221009574a17cc0cc5f785751ba4985f9610844702ca63988f844192167dc206b205c022052ed528c37a4dcf7d13ed74bb15684f3c8806db46aef64e7b78b56f63da792c2014c69522103a568dd1285d30fba0739c01be2043d306940c99c82acc066e12c00d76d7f7aad2103944581256dfb9d1baa37e4a8668c2fb8213f92fa169874e531dae518bf1bfd4621022da62daf82f1f23a7efdcf22a9b5b30a46d55b2f2bd2922c1f2a40fc86e57bcc53ae000000000209f0e4000000000017a91469f3769b111d27c2c90060124f62a333c1d58acc87efc5060b0000000017a9143bc90761525d29d5adeb7cd83a0ab175f896469f8700000000", "vin": [{"sequence": 0, "scriptSig": {"hex": "004830450221008195b6721493699defa2e30c5c1498ef128e54794722103d0fe1eef73385590902205f45870713467b22fb5e74475ac11014eec318475765eb95e49991406ab97cb5014830450221009574a17cc0cc5f785751ba4985f9610844702ca63988f844192167dc206b205c022052ed528c37a4dcf7d13ed74bb15684f3c8806db46aef64e7b78b56f63da792c2014c69522103a568dd1285d30fba0739c01be2043d306940c99c82acc066e12c00d76d7f7aad2103944581256dfb9d1baa37e4a8668c2fb8213f92fa169874e531dae518bf1bfd4621022da62daf82f1f23a7efdcf22a9b5b30a46d55b2f2bd2922c1f2a40fc86e57bcc53ae", "asm": "0 30450221008195b6721493699defa2e30c5c1498ef128e54794722103d0fe1eef73385590902205f45870713467b22fb5e74475ac11014eec318475765eb95e49991406ab97cb5[ALL] 30450221009574a17cc0cc5f785751ba4985f9610844702ca63988f844192167dc206b205c022052ed528c37a4dcf7d13ed74bb15684f3c8806db46aef64e7b78b56f63da792c2[ALL] 522103a568dd1285d30fba0739c01be2043d306940c99c82acc066e12c00d76d7f7aad2103944581256dfb9d1baa37e4a8668c2fb8213f92fa169874e531dae518bf1bfd4621022da62daf82f1f23a7efdcf22a9b5b30a46d55b2f2bd2922c1f2a40fc86e57bcc53ae"}, "vout": 4, "txid": "191b4ec6ecd73e9c6e7d9d3a78b8ef173c6bef4ebe0f427380ac522fa821a5bb"}], "txid": "a5d899921bde40203115f7cad0cef74f94c4be62e7154c20922d5464f97da221", "blocktime": 1537870268, "version": 2, "confirmations": 11516, "time": 1537870268, "locktime": 0, "vsize": 371, "size": 371}