{"hash": "99212d659f3adef8a300e2aea1b95acc474e9c52df50d99c82bc6807ed9df278", "blockhash": "0000000000000000000e13cef7c366c0283d82e591d1acd082e914b08063cdf1", "vout": [{"scriptPubKey": {"reqSigs": 1, "hex": "76a914bcbcfe4f4b45207741423bd0af0d88f00bbecc1688ac", "addresses": ["1JCxSZDyta3hwLasdujWLvQRTuyuDua6ry"], "asm": "OP_DUP OP_HASH160 bcbcfe4f4b45207741423bd0af0d88f00bbecc16 OP_EQUALVERIFY OP_CHECKSIG", "type": "pubkeyhash"}, "value": 0.56660105, "n": 0}, {"scriptPubKey": {"reqSigs": 1, "hex": "a914230a9db618e43e8a0ec92c6bb92fc50bed4fc2c887", "addresses": ["34tJHsgN5QbptGq2g9SiBzkXSjTupRewWS"], "asm": "OP_HASH160 230a9db618e43e8a0ec92c6bb92fc50bed4fc2c8 OP_EQUAL", "type": "scripthash"}, "value": 8.12298107, "n": 1}], "hex": "02000000000101bf6e72f18e63959f0a1604c7e88767b594cf8f044fee6d1fc217e089c1aa309501000000171600142b224c55832ee83331628d216df1c607e4f02db6fdffffff0289906003000000001976a914bcbcfe4f4b45207741423bd0af0d88f00bbecc1688ac7baf6a300000000017a914230a9db618e43e8a0ec92c6bb92fc50bed4fc2c88702483045022100a1248fca694d2569a1104f3e82a8a59825022b83c11c8f9532529eebd3c9999202205eacf9e0f4b3ff0d96ece715062d1f16ae19a8fefa918d9b1d314d42648eb256012102bb4cf4777bd0e23978d967a189cfe0947c9c3a287f63a8df7c8bb86b081690d110490800", "vin": [{"txinwitness": ["3045022100a1248fca694d2569a1104f3e82a8a59825022b83c11c8f9532529eebd3c9999202205eacf9e0f4b3ff0d96ece715062d1f16ae19a8fefa918d9b1d314d42648eb25601", "02bb4cf4777bd0e23978d967a189cfe0947c9c3a287f63a8df7c8bb86b081690d1"], "sequence": 4294967293, "scriptSig": {"hex": "1600142b224c55832ee83331628d216df1c607e4f02db6", "asm": "00142b224c55832ee83331628d216df1c607e4f02db6"}, "vout": 1, "txid": "9530aac189e017c21f6dee4f048fcf94b56787e8c704160a9f95638ef1726ebf"}], "txid": "a5e8923a742a011100c5237614bd600489682e7e6b10fac2a33b6d8758e84341", "blocktime": 1537871767, "version": 2, "confirmations": 11495, "time": 1537871767, "locktime": 542992, "vsize": 168, "size": 250}