{"hash": "a5eb08e8ac343c1dbbfc66c40a3ada8746488589ad88f91ed3aee6306bf53383", "blockhash": "0000000000000000001e0dab787dd257d1dbfcb92a98c2207d5e1078be1f4165", "vout": [{"scriptPubKey": {"reqSigs": 1, "hex": "76a9148966d207aad1c111c7244d730882ff19d7738a3888ac", "addresses": ["1DXWkNRqhy3hUMGe7smQ8wYvjvsf22k63f"], "asm": "OP_DUP OP_HASH160 8966d207aad1c111c7244d730882ff19d7738a38 OP_EQUALVERIFY OP_CHECKSIG", "type": "pubkeyhash"}, "value": 0.13527694, "n": 0}], "hex": "01000000018e8efc181fb9125320201a047416fdffeabdc6790d295cdb8a80cc7bf3babefe000000006a4730440220250cc0fa28ed757e31fbdf2c26b19fd946eac142acbfb62da2f69b1d2f87955a02205cb6e319b805d49a69a7b6e086f087cdecd3a2cb262256be55be4a9fab03a206012103d5f39c7ed82e9e6a793503823204f73eeb3381c7aeb1482d26ffc54925e20170ffffffff018e6ace00000000001976a9148966d207aad1c111c7244d730882ff19d7738a3888ac00000000", "vin": [{"sequence": 4294967295, "scriptSig": {"hex": "4730440220250cc0fa28ed757e31fbdf2c26b19fd946eac142acbfb62da2f69b1d2f87955a02205cb6e319b805d49a69a7b6e086f087cdecd3a2cb262256be55be4a9fab03a206012103d5f39c7ed82e9e6a793503823204f73eeb3381c7aeb1482d26ffc54925e20170", "asm": "30440220250cc0fa28ed757e31fbdf2c26b19fd946eac142acbfb62da2f69b1d2f87955a02205cb6e319b805d49a69a7b6e086f087cdecd3a2cb262256be55be4a9fab03a206[ALL] 03d5f39c7ed82e9e6a793503823204f73eeb3381c7aeb1482d26ffc54925e20170"}, "vout": 0, "txid": "febebaf37bcc808adb5c290d79c6bdeafffd1674041a20205312b91f18fc8e8e"}], "txid": "a5eb08e8ac343c1dbbfc66c40a3ada8746488589ad88f91ed3aee6306bf53383", "blocktime": 1537872475, "version": 1, "confirmations": 11486, "time": 1537872475, "locktime": 0, "vsize": 191, "size": 191}