{"hash": "a5ecd1e02d9a0c57cb380360338ffcca9145cb0ed4351a6abfa1ce2578638520", "blockhash": "0000000000000000000e13cef7c366c0283d82e591d1acd082e914b08063cdf1", "vout": [{"scriptPubKey": {"reqSigs": 1, "hex": "76a91474a6ba643c5731b52a7f9b53228954fbc28b40be88ac", "addresses": ["1Bdo7ix1UM6Ln3oRUD2uciWSSVTZg1edXD"], "asm": "OP_DUP OP_HASH160 74a6ba643c5731b52a7f9b53228954fbc28b40be OP_EQUALVERIFY OP_CHECKSIG", "type": "pubkeyhash"}, "value": 0.0078145, "n": 0}, {"scriptPubKey": {"reqSigs": 1, "hex": "76a914aa0d2cdf1816e2f88c1c7d38be6f0e9ca413dfcb88ac", "addresses": ["1GW9f3eT3L6V2cxNaqymXnYmSxJsVp9Cfd"], "asm": "OP_DUP OP_HASH160 aa0d2cdf1816e2f88c1c7d38be6f0e9ca413dfcb OP_EQUALVERIFY OP_CHECKSIG", "type": "pubkeyhash"}, "value": 0.01725394, "n": 1}], "hex": "0100000001a194ae80234ff21ba149543f1e34814e7455f5c87ac5479fae6ba9e38bbbde44000000006b483045022100bd3ff7266a63ded3f33b2698522767309ced88424fe6e2b8f5aad59148b16636022049a999e0f9c6350f22416026afa930131f87469a17eabf568fa3c814accc04ff0121020b960202aae55db0cc291cebed6528fa7148d4ab24b0cfb61f4edd9702efdf69ffffffff028aec0b00000000001976a91474a6ba643c5731b52a7f9b53228954fbc28b40be88acd2531a00000000001976a914aa0d2cdf1816e2f88c1c7d38be6f0e9ca413dfcb88ac00000000", "vin": [{"sequence": 4294967295, "scriptSig": {"hex": "483045022100bd3ff7266a63ded3f33b2698522767309ced88424fe6e2b8f5aad59148b16636022049a999e0f9c6350f22416026afa930131f87469a17eabf568fa3c814accc04ff0121020b960202aae55db0cc291cebed6528fa7148d4ab24b0cfb61f4edd9702efdf69", "asm": "3045022100bd3ff7266a63ded3f33b2698522767309ced88424fe6e2b8f5aad59148b16636022049a999e0f9c6350f22416026afa930131f87469a17eabf568fa3c814accc04ff[ALL] 020b960202aae55db0cc291cebed6528fa7148d4ab24b0cfb61f4edd9702efdf69"}, "vout": 0, "txid": "44debb8be3a96bae9f47c57ac8f555744e81341e3f5449a11bf24f2380ae94a1"}], "txid": "a5ecd1e02d9a0c57cb380360338ffcca9145cb0ed4351a6abfa1ce2578638520", "blocktime": 1537871767, "version": 1, "confirmations": 11493, "time": 1537871767, "locktime": 0, "vsize": 226, "size": 226}