{"hash": "ba69df8e510825e2ff070f0ae81b9bf5499d0783f69b326700cbff7f7955367c", "blockhash": "0000000000000000000dcc0f55137456b1a82d3642486a52398922ac4d620174", "vout": [{"scriptPubKey": {"reqSigs": 1, "hex": "a914218bc58423522881450a4090616d01eeefccfc4d87", "addresses": ["34kPfNW6CzAyRrMLBEKc72oFFzqWQNiWa6"], "asm": "OP_HASH160 218bc58423522881450a4090616d01eeefccfc4d OP_EQUAL", "type": "scripthash"}, "value": 0.172549, "n": 0}, {"scriptPubKey": {"reqSigs": 1, "hex": "a9147bcecc0d217f3e2c826dca89a246e079208ed97087", "addresses": ["3CyemekCP7Xm5ASyBw7CUEgdLzC18sgmBZ"], "asm": "OP_HASH160 7bcecc0d217f3e2c826dca89a246e079208ed970 OP_EQUAL", "type": "scripthash"}, "value": 0.016253, "n": 1}], "hex": "010000000001011490f36cbdc233d610d353b430f891692170d18b18b3a423f1b055741abd65b10000000023220020b4d1dc5180436b70894b9a530de9c871c30347522948c3073a536d312fc8328bffffffff02f44907010000000017a914218bc58423522881450a4090616d01eeefccfc4d87d4cc18000000000017a9147bcecc0d217f3e2c826dca89a246e079208ed970870400473044022068bcc06c659ca39b0215d0a222ef119f919a7236a3a3720aa30b5aaa473865b10220217e941b0e06d6886d5589fdccc352462c798c2572b39417ce288863924b322f01483045022100b59cfe79670da387cb57a5b30059fac1c4d2971e6a6402b387297b54c0ea7d16022066b85d09fed02d7e8f96403586158f23c586b549b1674cf4b25acc5383c14652016952210328873d112c675fb0e6cdbaed28a2170bc2ada5f173c790bdfe93e58996ebcb3a2103a372fc886fc145e0a21f3b848ffbd440b1ed649051523ed0b39514184b83147421033d9dc04e11d2ca3bf65bfcc5cccd998d54d964833504164143d2ea73873ebbda53ae00000000", "vin": [{"txinwitness": ["", "3044022068bcc06c659ca39b0215d0a222ef119f919a7236a3a3720aa30b5aaa473865b10220217e941b0e06d6886d5589fdccc352462c798c2572b39417ce288863924b322f01", "3045022100b59cfe79670da387cb57a5b30059fac1c4d2971e6a6402b387297b54c0ea7d16022066b85d09fed02d7e8f96403586158f23c586b549b1674cf4b25acc5383c1465201", "52210328873d112c675fb0e6cdbaed28a2170bc2ada5f173c790bdfe93e58996ebcb3a2103a372fc886fc145e0a21f3b848ffbd440b1ed649051523ed0b39514184b83147421033d9dc04e11d2ca3bf65bfcc5cccd998d54d964833504164143d2ea73873ebbda53ae"], "sequence": 4294967295, "scriptSig": {"hex": "220020b4d1dc5180436b70894b9a530de9c871c30347522948c3073a536d312fc8328b", "asm": "0020b4d1dc5180436b70894b9a530de9c871c30347522948c3073a536d312fc8328b"}, "vout": 0, "txid": "b165bd1a7455b0f123a4b3188bd170216991f830b453d310d633c2bd6cf39014"}], "txid": "a5f46e35ca6498b9de9524e02b51bf0992ef48c3e9d3bacfea1380c4c74384fb", "blocktime": 1537870268, "version": 1, "confirmations": 11518, "time": 1537870268, "locktime": 0, "vsize": 214, "size": 405}