{"hash": "51f7ba10b060e29689d1f03f1c9d74c3018bfaf653ed7e4142c4aaf0b3d9124d", "blockhash": "0000000000000000001cda96e906b7601b7a6fb1a3b62bca570a9e5d8f4b3de1", "vout": [{"scriptPubKey": {"reqSigs": 1, "hex": "76a91434489efba15ffc50a51e3f6bb7527ee9628c442588ac", "addresses": ["15mT8mp2sZiaffavUgHw8weij2AxcU9Rr1"], "asm": "OP_DUP OP_HASH160 34489efba15ffc50a51e3f6bb7527ee9628c4425 OP_EQUALVERIFY OP_CHECKSIG", "type": "pubkeyhash"}, "value": 0.01043724, "n": 0}, {"scriptPubKey": {"reqSigs": 1, "hex": "a91491b63d45fd216a7a5364f4d628a5dea1e5257d3787", "addresses": ["3EyUDa5Y1EGhd9Jsjv3qLKxBX1TrTfyJaV"], "asm": "OP_HASH160 91b63d45fd216a7a5364f4d628a5dea1e5257d37 OP_EQUAL", "type": "scripthash"}, "value": 0.18075769, "n": 1}], "hex": "02000000000101ea0e2ccee4f7c53af9c792178a41bc0e28b57d563cea0b457d312956126293eb0100000017160014298abe12fb0501fde653bb5feffb0d390c2138d7feffffff020ced0f00000000001976a91434489efba15ffc50a51e3f6bb7527ee9628c442588ac79d013010000000017a91491b63d45fd216a7a5364f4d628a5dea1e5257d378702483045022100ff0bf45d549da3b77293d1f963509cf812f78ee863754e3e94a567300da8ffda0220669a86a583e774d3b7c4acfcfc18d6548a402d93cc5647595d7fa9b5fd377b1f012103fa7573383bfd06e7bfbdee08f0d4e702fa65eec9608f7fdf03206c2ae3addfc613490800", "vin": [{"txinwitness": ["3045022100ff0bf45d549da3b77293d1f963509cf812f78ee863754e3e94a567300da8ffda0220669a86a583e774d3b7c4acfcfc18d6548a402d93cc5647595d7fa9b5fd377b1f01", "03fa7573383bfd06e7bfbdee08f0d4e702fa65eec9608f7fdf03206c2ae3addfc6"], "sequence": 4294967294, "scriptSig": {"hex": "160014298abe12fb0501fde653bb5feffb0d390c2138d7", "asm": "0014298abe12fb0501fde653bb5feffb0d390c2138d7"}, "vout": 1, "txid": "eb9362125629317d450bea3c567db5280ebc418a1792c7f93ac5f7e4ce2c0eea"}], "txid": "a5fa8d06644e91121ec048d2991f3f61689e2334262156ab53e42c4c11c54dc4", "blocktime": 1537873282, "version": 2, "confirmations": 11484, "time": 1537873282, "locktime": 542995, "vsize": 168, "size": 250}