{"hash": "b574c12131a8d723f883ae79f8d49541b501d0317fa81a65dca03b803fade898", "blockhash": "0000000000000000001f76057863aec43deb6fa401d9628bb513d65a8098bfab", "vout": [{"scriptPubKey": {"reqSigs": 1, "hex": "76a9145765d151ed725076ca70edb9a867a436b6c7233a88ac", "addresses": ["18y7m72yCMavcJEG7DPQstZkUSUV5vt2hB"], "asm": "OP_DUP OP_HASH160 5765d151ed725076ca70edb9a867a436b6c7233a OP_EQUALVERIFY OP_CHECKSIG", "type": "pubkeyhash"}, "value": 0.0026826, "n": 0}, {"scriptPubKey": {"reqSigs": 1, "hex": "a914e77d326fbd726f1ae7445b4de14849720862f3ed87", "addresses": ["3No1zhRrHLX1gQXabQQ3owK3xycBgVnkDs"], "asm": "OP_HASH160 e77d326fbd726f1ae7445b4de14849720862f3ed OP_EQUAL", "type": "scripthash"}, "value": 0.00999242, "n": 1}], "hex": "020000000001020bad862195a797e591653126f3dd6365b5eb89546cece46021c416f9617bf7850c00000017160014571beeddfeb76958905e759f395931287b762e9dfeffffffb4fa46e3130fb6c1fb66a212d78a8862203ee87b31706e7090a620a447b518ed01000000171600144d98e375d5f1b8438582fa87372a7d2986a652cbfeffffff02e4170400000000001976a9145765d151ed725076ca70edb9a867a436b6c7233a88ac4a3f0f000000000017a914e77d326fbd726f1ae7445b4de14849720862f3ed8702473044022067d4cc30cea99814eaeff090343ca1025424049bd6f75de2d6a59e4caef3f18b02202931641c2ae754c40f125ae85a12742505068dcc4ddac299961f4c207111ba260121038b79fb280791b1ff03cca021fe397548f4c2ee38c900f2b4c2ea1a33da26550002483045022100ae0f6e85990cb3ef4050e7410c332b8bc2c6676268eaef8aaa121ef98945004202203354e4980742f91c95956658af05016d6418029d21563585808b6916a8ff0ae00121032aaf0dea1aca18785fb992d5afad25011cacc3a8981d89b285df99cf280251f813490800", "vin": [{"txinwitness": ["3044022067d4cc30cea99814eaeff090343ca1025424049bd6f75de2d6a59e4caef3f18b02202931641c2ae754c40f125ae85a12742505068dcc4ddac299961f4c207111ba2601", "038b79fb280791b1ff03cca021fe397548f4c2ee38c900f2b4c2ea1a33da265500"], "sequence": 4294967294, "scriptSig": {"hex": "160014571beeddfeb76958905e759f395931287b762e9d", "asm": "0014571beeddfeb76958905e759f395931287b762e9d"}, "vout": 12, "txid": "85f77b61f916c42160e4ec6c5489ebb56563ddf326316591e597a7952186ad0b"}, {"txinwitness": ["3045022100ae0f6e85990cb3ef4050e7410c332b8bc2c6676268eaef8aaa121ef98945004202203354e4980742f91c95956658af05016d6418029d21563585808b6916a8ff0ae001", "032aaf0dea1aca18785fb992d5afad25011cacc3a8981d89b285df99cf280251f8"], "sequence": 4294967294, "scriptSig": {"hex": "1600144d98e375d5f1b8438582fa87372a7d2986a652cb", "asm": "00144d98e375d5f1b8438582fa87372a7d2986a652cb"}, "vout": 1, "txid": "ed18b547a420a690706e70317be83e2062888ad712a266fbc1b60f13e346fab4"}], "txid": "a5fb7696c04c42fb890131260ad7d393fbe024297065d8f95594ee9f35be2407", "blocktime": 1537873891, "version": 2, "confirmations": 11478, "time": 1537873891, "locktime": 542995, "vsize": 259, "size": 421}