{"hash": "b5eff9d2f4530a56ad4d64fa8498a06c20ea9475a2df105f22557b78578585ca", "blockhash": "0000000000000000001f76057863aec43deb6fa401d9628bb513d65a8098bfab", "vout": [{"scriptPubKey": {"reqSigs": 1, "hex": "a914ee8baf2be5318885b9b0431a1c4954d5b7c3bcef87", "addresses": ["3PSL5dct1P34F5rz6GaZXg9y5iHKhtHVVx"], "asm": "OP_HASH160 ee8baf2be5318885b9b0431a1c4954d5b7c3bcef OP_EQUAL", "type": "scripthash"}, "value": 0.00999049, "n": 0}, {"scriptPubKey": {"reqSigs": 1, "hex": "76a914809ef0f0b0e6469eeb1749992cafa98ef11ad43488ac", "addresses": ["1Cj5tysek52iD1sKC69tcoA8bp6o3HBTY2"], "asm": "OP_DUP OP_HASH160 809ef0f0b0e6469eeb1749992cafa98ef11ad434 OP_EQUALVERIFY OP_CHECKSIG", "type": "pubkeyhash"}, "value": 0.0058446, "n": 1}], "hex": "020000000001024bd4692cfeba3314d8ef24b1885abf726e2aed11d9211c8eed33b423e6ba765a0000000017160014e61552eb5299b91ded631af3239398efc21902eafeffffffc00b9697ee65c7d22731e3bb867cac0138974714f04607e88e47fdec375be69a0f00000017160014cf6c11bc46b6a1f08c5d679cf6466c82dfd8cadefeffffff02893e0f000000000017a914ee8baf2be5318885b9b0431a1c4954d5b7c3bcef870ceb0800000000001976a914809ef0f0b0e6469eeb1749992cafa98ef11ad43488ac02473044022072cf65d44daa1f6f3eed80be9ff8ca1696e3da7d8185915d114ecd82c76d330f0220541e266e8ecc91801e1b87f50fffefdcf8458b8f35244ec9a7ea6ddc754882dd012103b29ea292954f49173dbcad0df4418e5c8861fc9298782355a86e94e30f37703602473044022035d8c2fb2b0c0089a7f113a978b1b683d17c202a7acb88719d5a18a14a9244fd022054090d41b02700498fd518ae985881c308af8bd14c10e2c8e300dad43f9bc578012103dc5854c2e96108e3f0f34660bd655d7cfa97fb070f3b3a6bb6d83e8c9ef0315514490800", "vin": [{"txinwitness": ["3044022072cf65d44daa1f6f3eed80be9ff8ca1696e3da7d8185915d114ecd82c76d330f0220541e266e8ecc91801e1b87f50fffefdcf8458b8f35244ec9a7ea6ddc754882dd01", "03b29ea292954f49173dbcad0df4418e5c8861fc9298782355a86e94e30f377036"], "sequence": 4294967294, "scriptSig": {"hex": "160014e61552eb5299b91ded631af3239398efc21902ea", "asm": "0014e61552eb5299b91ded631af3239398efc21902ea"}, "vout": 0, "txid": "5a76bae623b433ed8e1c21d911ed2a6e72bf5a88b124efd81433bafe2c69d44b"}, {"txinwitness": ["3044022035d8c2fb2b0c0089a7f113a978b1b683d17c202a7acb88719d5a18a14a9244fd022054090d41b02700498fd518ae985881c308af8bd14c10e2c8e300dad43f9bc57801", "03dc5854c2e96108e3f0f34660bd655d7cfa97fb070f3b3a6bb6d83e8c9ef03155"], "sequence": 4294967294, "scriptSig": {"hex": "160014cf6c11bc46b6a1f08c5d679cf6466c82dfd8cade", "asm": "0014cf6c11bc46b6a1f08c5d679cf6466c82dfd8cade"}, "vout": 15, "txid": "9ae65b37ecfd478ee80746f01447973801ac7c86bbe33127d2c765ee97960bc0"}], "txid": "a5fdd64a84a8224e304130795fe12fa68e236d0de1f7efd4c7e9fd1922062737", "blocktime": 1537873891, "version": 2, "confirmations": 11478, "time": 1537873891, "locktime": 542996, "vsize": 258, "size": 420}