{"hash": "61c39d5e3843adc829eaf581c75a2395a7965e3041f8d55fdd3c3d45921f504e", "blockhash": "0000000000000000001f0ddff1eddb255c1121bcd4da4f1bc9a0da00cae72433", "vout": [{"scriptPubKey": {"reqSigs": 1, "hex": "a91409ec2ab2a07705387a977669e293caa8cd40744487", "addresses": ["32bUvRgTSJghiu4kGoLVN5xjyKgS9VGJhK"], "asm": "OP_HASH160 09ec2ab2a07705387a977669e293caa8cd407444 OP_EQUAL", "type": "scripthash"}, "value": 0.02163834, "n": 0}, {"scriptPubKey": {"reqSigs": 1, "hex": "a9147278366d34bc56399a36da5b3dcc73c181c85aea87", "addresses": ["3C8GxvvgPcBwn95cngkffx4YJvyDaepPWE"], "asm": "OP_HASH160 7278366d34bc56399a36da5b3dcc73c181c85aea OP_EQUAL", "type": "scripthash"}, "value": 0.29641, "n": 1}], "hex": "0200000000010432afc80096f3d318350e69ddd7d6ab175988f0c81e735bae07899222ce63cdca0000000017160014082292a93fa93f2b90c36bd2b3c6b41af9232aeafeffffff5591711dfa84795d3be4786551bca955b5e6404c22d7d7bb4ad466d6be662ed60000000017160014d75d1dc40e8554d2e21562ed893c924427afe52bfeffffffd15b206c6c76ae6167ec1d8c26e1473ae055e5aede860f98eaf0903e89661f39010000001716001442e57a3ab13af74a189622d946bbbc662d651499feffffffda4b0ddb3ad9f695c2e8775c12e22354a9cdac369722c78d7e71a54229c0ee0f010000001716001489184cc529284a942c2e7ad6c6dbd6708b89817cfeffffff027a0421000000000017a91409ec2ab2a07705387a977669e293caa8cd407444872849c4010000000017a9147278366d34bc56399a36da5b3dcc73c181c85aea87024730440220713e531d8efba69220fe355ac64bf1496ae227adf32539f0a94f1b4086ee3f73022023ed15fb1cdee0e63f415a2d91cd5fa170835c2bf4b0b63bcdc79e37f21e0855012103f529f0c5ceb2d8cb151a30a4100110b44d2a1d04ebf4bc9d0435c9e8753254d70247304402201e4a20e6a1be92148970c96e093d068566c24b6a1b1beb5b4152a9e299cf9ac7022043d793af644be94e6298623557bd723031a288e3846be768630ed4a97235c56b0121032c6200f9a18a689f4626a141cad86f0a826e641d5a34dd366a81e6ac642e42f40248304502210090fc781fa8b2abe58717d1829a5119f66750e19d74a12152ff7002a33188602402206bd4945a920c65fedeb2bd5a30b68aa9fbeb2e987acdc9c80cd2b6f2219f12fb012102d87bd31b4be4a519e5ef7890dd4c01257c43195ac52e1310976a9ed559eed7cc02483045022100f0fe77d232e2d2505c27532eefc5823446ba274dcd7f018c94d3338980a307bd02203dfd3196e1122a4eef9de788db0490309333706ab66f1f191a1d3973538d365b012102e0eb33cc0bd9f9941c0105e43146f4e66a9c53c8693df8457a88b15a572043c711490800", "vin": [{"txinwitness": ["30440220713e531d8efba69220fe355ac64bf1496ae227adf32539f0a94f1b4086ee3f73022023ed15fb1cdee0e63f415a2d91cd5fa170835c2bf4b0b63bcdc79e37f21e085501", "03f529f0c5ceb2d8cb151a30a4100110b44d2a1d04ebf4bc9d0435c9e8753254d7"], "sequence": 4294967294, "scriptSig": {"hex": "160014082292a93fa93f2b90c36bd2b3c6b41af9232aea", "asm": "0014082292a93fa93f2b90c36bd2b3c6b41af9232aea"}, "vout": 0, "txid": "cacd63ce22928907ae5b731ec8f0885917abd6d7dd690e3518d3f39600c8af32"}, {"txinwitness": ["304402201e4a20e6a1be92148970c96e093d068566c24b6a1b1beb5b4152a9e299cf9ac7022043d793af644be94e6298623557bd723031a288e3846be768630ed4a97235c56b01", "032c6200f9a18a689f4626a141cad86f0a826e641d5a34dd366a81e6ac642e42f4"], "sequence": 4294967294, "scriptSig": {"hex": "160014d75d1dc40e8554d2e21562ed893c924427afe52b", "asm": "0014d75d1dc40e8554d2e21562ed893c924427afe52b"}, "vout": 0, "txid": "d62e66bed666d44abbd7d7224c40e6b555a9bc516578e43b5d7984fa1d719155"}, {"txinwitness": ["304502210090fc781fa8b2abe58717d1829a5119f66750e19d74a12152ff7002a33188602402206bd4945a920c65fedeb2bd5a30b68aa9fbeb2e987acdc9c80cd2b6f2219f12fb01", "02d87bd31b4be4a519e5ef7890dd4c01257c43195ac52e1310976a9ed559eed7cc"], "sequence": 4294967294, "scriptSig": {"hex": "16001442e57a3ab13af74a189622d946bbbc662d651499", "asm": "001442e57a3ab13af74a189622d946bbbc662d651499"}, "vout": 1, "txid": "391f66893e90f0ea980f86deaee555e03a47e1268c1dec6761ae766c6c205bd1"}, {"txinwitness": ["3045022100f0fe77d232e2d2505c27532eefc5823446ba274dcd7f018c94d3338980a307bd02203dfd3196e1122a4eef9de788db0490309333706ab66f1f191a1d3973538d365b01", "02e0eb33cc0bd9f9941c0105e43146f4e66a9c53c8693df8457a88b15a572043c7"], "sequence": 4294967294, "scriptSig": {"hex": "16001489184cc529284a942c2e7ad6c6dbd6708b89817c", "asm": "001489184cc529284a942c2e7ad6c6dbd6708b89817c"}, "vout": 1, "txid": "0feec02942a5717e8dc7229736accda95423e2125c77e8c295f6d93adb0d4bda"}], "txid": "a5fe536e04fb3180f98d3f2c4d77f8898d13f690c6c0930d9b41ba07ea140be7", "blocktime": 1537872018, "version": 2, "confirmations": 11489, "time": 1537872018, "locktime": 542993, "vsize": 438, "size": 762}