{"hash": "a60a12d4011800b98e533f129c6fef3e554ccbedb251fdb2b46655f5177c0e3e", "blockhash": "0000000000000000001f0ddff1eddb255c1121bcd4da4f1bc9a0da00cae72433", "vout": [{"scriptPubKey": {"reqSigs": 1, "hex": "76a914fa0692278afe508514b5ffee8fe5e97732ce066988ac", "addresses": ["1Po1oWkD2LmodfkBYiAktwh76vkF93LKnh"], "asm": "OP_DUP OP_HASH160 fa0692278afe508514b5ffee8fe5e97732ce0669 OP_EQUALVERIFY OP_CHECKSIG", "type": "pubkeyhash"}, "value": 2.184e-05, "n": 0}, {"scriptPubKey": {"type": "nulldata", "hex": "6a146f6d6e69000000000000001f000000112ed2a200", "asm": "OP_RETURN 6f6d6e69000000000000001f000000112ed2a200"}, "value": 0.0, "n": 1}, {"scriptPubKey": {"reqSigs": 1, "hex": "76a91457283559a2cd0b122225819d13ef25ec6e99aebb88ac", "addresses": ["18wqxRERwphHYKfSqoxDyLwtkbsWbAejBt"], "asm": "OP_DUP OP_HASH160 57283559a2cd0b122225819d13ef25ec6e99aebb OP_EQUALVERIFY OP_CHECKSIG", "type": "pubkeyhash"}, "value": 5.46e-06, "n": 2}], "hex": "010000000160188ae2e89a6f7ee5925756b57031d2333bb4c3afeaabe85e936278213e6fa7e40000008b483045022100fe515b1bf964e1afc455eff90807f2208c7bd1d5ab31773e723848e05c41dcb2022031d9ead0baa26e06d14b7212f890aed4156295f4faa0d0a0d0a4737a64288c6d014104fcf07bb1222f7925f2b7cc15183a40443c578e62ea17100aa3b44ba66905c95d4980aec4cd2f6eb426d1b1ec45d76724f26901099416b9265b76ba67c8b0b73dffffffff0388080000000000001976a914fa0692278afe508514b5ffee8fe5e97732ce066988ac0000000000000000166a146f6d6e69000000000000001f000000112ed2a20022020000000000001976a91457283559a2cd0b122225819d13ef25ec6e99aebb88ac00000000", "vin": [{"sequence": 4294967295, "scriptSig": {"hex": "483045022100fe515b1bf964e1afc455eff90807f2208c7bd1d5ab31773e723848e05c41dcb2022031d9ead0baa26e06d14b7212f890aed4156295f4faa0d0a0d0a4737a64288c6d014104fcf07bb1222f7925f2b7cc15183a40443c578e62ea17100aa3b44ba66905c95d4980aec4cd2f6eb426d1b1ec45d76724f26901099416b9265b76ba67c8b0b73d", "asm": "3045022100fe515b1bf964e1afc455eff90807f2208c7bd1d5ab31773e723848e05c41dcb2022031d9ead0baa26e06d14b7212f890aed4156295f4faa0d0a0d0a4737a64288c6d[ALL] 04fcf07bb1222f7925f2b7cc15183a40443c578e62ea17100aa3b44ba66905c95d4980aec4cd2f6eb426d1b1ec45d76724f26901099416b9265b76ba67c8b0b73d"}, "vout": 228, "txid": "a76f3e217862935ee8abeaafc3b43b33d23170b5565792e57e6f9ae8e28a1860"}], "txid": "a60a12d4011800b98e533f129c6fef3e554ccbedb251fdb2b46655f5177c0e3e", "blocktime": 1537872018, "version": 1, "confirmations": 11489, "time": 1537872018, "locktime": 0, "vsize": 289, "size": 289}