{"hash": "eb53700f7f76b7127c758992359f0559d5db480ef22ee1c80092d79b67bfb2bc", "blockhash": "0000000000000000000e13cef7c366c0283d82e591d1acd082e914b08063cdf1", "vout": [{"scriptPubKey": {"reqSigs": 1, "hex": "a914b44337f216fcdcf0a5895a72e8c4169a68ef293e87", "addresses": ["3J8A5VuG2KUQmCweiwHBDfv67VqWTciCM2"], "asm": "OP_HASH160 b44337f216fcdcf0a5895a72e8c4169a68ef293e OP_EQUAL", "type": "scripthash"}, "value": 0.01977472, "n": 0}], "hex": "01000000000101e35edd89e944b9a1913a01b948c5d15e7c56a02a51856baca572d9ef707434bf0100000017160014fe250b04dd2f72d58dde7c1daab136396a5b0744ffffffff01802c1e000000000017a914b44337f216fcdcf0a5895a72e8c4169a68ef293e870247304402204287434e78d6c284b59250cd78a3c192a6eca763c5bcf56efa4ef405d1618e18022009712b7cfbfc20dd1a1a753a9e6c5970082036cff803fdf88d10c2c582988a6e0121039d4ed430ec75961a67a3c2435becb4bd8c75622af69d8d3ffc82a70c6ff6024400000000", "vin": [{"txinwitness": ["304402204287434e78d6c284b59250cd78a3c192a6eca763c5bcf56efa4ef405d1618e18022009712b7cfbfc20dd1a1a753a9e6c5970082036cff803fdf88d10c2c582988a6e01", "039d4ed430ec75961a67a3c2435becb4bd8c75622af69d8d3ffc82a70c6ff60244"], "sequence": 4294967295, "scriptSig": {"hex": "160014fe250b04dd2f72d58dde7c1daab136396a5b0744", "asm": "0014fe250b04dd2f72d58dde7c1daab136396a5b0744"}, "vout": 1, "txid": "bf347470efd972a5ac6b85512aa0567c5ed1c548b9013a91a1b944e989dd5ee3"}], "txid": "a60d3e4acf999a368246e002b512a39492b98c1faf5b33abd8cf4f4f2df1d374", "blocktime": 1537871767, "version": 1, "confirmations": 11495, "time": 1537871767, "locktime": 0, "vsize": 134, "size": 215}