{"hash": "ca97cf2da9c2f7b1e93021a012ea125edc9c2a1d04b1b54a56e7b011677527fe", "blockhash": "0000000000000000001e0dab787dd257d1dbfcb92a98c2207d5e1078be1f4165", "vout": [{"scriptPubKey": {"reqSigs": 1, "hex": "a9142d25bc6169eb98fbe30826e05a3c5c32256abe3487", "addresses": ["35ojY7KR9AhaCDydWRug84fQN6k9H4UjBS"], "asm": "OP_HASH160 2d25bc6169eb98fbe30826e05a3c5c32256abe34 OP_EQUAL", "type": "scripthash"}, "value": 0.00120402, "n": 0}, {"scriptPubKey": {"reqSigs": 1, "hex": "76a9147eb0da7aa7519cad2c6cd2da1b38b0d9ef625c7a88ac", "addresses": ["1CYt1ASAcWsTi8WjDqUukAbGgTriXcZyhV"], "asm": "OP_DUP OP_HASH160 7eb0da7aa7519cad2c6cd2da1b38b0d9ef625c7a OP_EQUALVERIFY OP_CHECKSIG", "type": "pubkeyhash"}, "value": 0.0024, "n": 1}, {"scriptPubKey": {"reqSigs": 1, "hex": "76a9140b50718fc6624a22602ad398339331af0cbfb40788ac", "addresses": ["122poRugwrbzcMgXPsJ22HygvSzNEdLZgC"], "asm": "OP_DUP OP_HASH160 0b50718fc6624a22602ad398339331af0cbfb407 OP_EQUALVERIFY OP_CHECKSIG", "type": "pubkeyhash"}, "value": 0.078115, "n": 2}, {"scriptPubKey": {"reqSigs": 1, "hex": "a9141988a27e3c2df4ddee7fad5a2303d086179b2a3087", "addresses": ["3422VtS7UtCvXYxoXMVp6eZupR252z85oC"], "asm": "OP_HASH160 1988a27e3c2df4ddee7fad5a2303d086179b2a30 OP_EQUAL", "type": "scripthash"}, "value": 0.66664869, "n": 3}], "hex": "01000000000101c2b73b34cd12d02ee563019f81472c41e1d0490739a849d5e8a7973e038d7b9c030000002322002065d416c48a8072e0ac51c2d111eb194f009caef0332446c1bf2097316cf07fa9ffffffff0452d601000000000017a9142d25bc6169eb98fbe30826e05a3c5c32256abe348780a90300000000001976a9147eb0da7aa7519cad2c6cd2da1b38b0d9ef625c7a88acac317700000000001976a9140b50718fc6624a22602ad398339331af0cbfb40788aca539f9030000000017a9141988a27e3c2df4ddee7fad5a2303d086179b2a3087040047304402204833156827e5d473724abbf22ea3682cef7adab7f9dee264ab530fbb16c7b552022013c9dc1155436ec16cfc0cc3dde13c7d2e963efab18f102daa1d2a9fed436a8b01483045022100c3b1e00bbc341fa209e0728b85465df580af745e80b67fa05443e93d0c5b0cd002200845c1adbe66011f1a87c88cf17f1fcc229e85597da7b027078bbc5afbe7db330169522102f44abcf9e23c9a460da309ccca56c619c04eed3bde2c2cff5e7d78fbcd980b9c2103c9443cf3047bb6c2c82f1b0c44c36109cdc3d0d601d16d1189a1602bf8d1a0a02103bfe867059274412412e088af5572b92168c2ef495cfe6c9b7a753a009eb37c4853ae00000000", "vin": [{"txinwitness": ["", "304402204833156827e5d473724abbf22ea3682cef7adab7f9dee264ab530fbb16c7b552022013c9dc1155436ec16cfc0cc3dde13c7d2e963efab18f102daa1d2a9fed436a8b01", "3045022100c3b1e00bbc341fa209e0728b85465df580af745e80b67fa05443e93d0c5b0cd002200845c1adbe66011f1a87c88cf17f1fcc229e85597da7b027078bbc5afbe7db3301", "522102f44abcf9e23c9a460da309ccca56c619c04eed3bde2c2cff5e7d78fbcd980b9c2103c9443cf3047bb6c2c82f1b0c44c36109cdc3d0d601d16d1189a1602bf8d1a0a02103bfe867059274412412e088af5572b92168c2ef495cfe6c9b7a753a009eb37c4853ae"], "sequence": 4294967295, "scriptSig": {"hex": "22002065d416c48a8072e0ac51c2d111eb194f009caef0332446c1bf2097316cf07fa9", "asm": "002065d416c48a8072e0ac51c2d111eb194f009caef0332446c1bf2097316cf07fa9"}, "vout": 3, "txid": "9c7b8d033e97a7e8d549a8390749d0e1412c47819f0163e52ed012cd343bb7c2"}], "txid": "a60f6e80830e563c066168eb6058bf18836723d80bdea49f7282d2990c39b6ae", "blocktime": 1537872475, "version": 1, "confirmations": 11486, "time": 1537872475, "locktime": 0, "vsize": 282, "size": 473}