{"hash": "a611037d2418cd2851186185d0f72112ce702ce26fe127ebaf4ea32c23874a60", "blockhash": "0000000000000000001cda96e906b7601b7a6fb1a3b62bca570a9e5d8f4b3de1", "vout": [{"scriptPubKey": {"reqSigs": 1, "hex": "76a914141c17ceac9c6c1004b181fc7e5f6e84a9b053f788ac", "addresses": ["12qLAmnxs1DRMpu7GMmNSutXpKXCb3xFC1"], "asm": "OP_DUP OP_HASH160 141c17ceac9c6c1004b181fc7e5f6e84a9b053f7 OP_EQUALVERIFY OP_CHECKSIG", "type": "pubkeyhash"}, "value": 0.0006532, "n": 0}, {"scriptPubKey": {"type": "nulldata", "hex": "6a4c50000077cc00011fd98323c298a2716baafe825b23cc0f42c2fc38c5e5bf9ae76da98a211a4361990d2ae22babf8c3122f1191b9115baa13e90613397824270e01bc9a9526289ac0f6612cd74e33776ee4", "asm": "OP_RETURN 000077cc00011fd98323c298a2716baafe825b23cc0f42c2fc38c5e5bf9ae76da98a211a4361990d2ae22babf8c3122f1191b9115baa13e90613397824270e01bc9a9526289ac0f6612cd74e33776ee4"}, "value": 0.0, "n": 1}], "hex": "010000000185e9138007d48731d7a1a5012895a0ef13668cc07963b7df85eb4612e2753251000000006b48304502210081eab1a0840508dc2ee24491ef2ef0deaae72a8b809f150315a194e74f3b4b2e022043cffcbab15d0b4de7ab250ca22625a4b0ad937e6446e20262e511a6171d61e70121032323a285671b8ef807d7ab776994818681d3bede7d0a8332853b1acf34135984ffffffff0228ff0000000000001976a914141c17ceac9c6c1004b181fc7e5f6e84a9b053f788ac0000000000000000536a4c50000077cc00011fd98323c298a2716baafe825b23cc0f42c2fc38c5e5bf9ae76da98a211a4361990d2ae22babf8c3122f1191b9115baa13e90613397824270e01bc9a9526289ac0f6612cd74e33776ee400000000", "vin": [{"sequence": 4294967295, "scriptSig": {"hex": "48304502210081eab1a0840508dc2ee24491ef2ef0deaae72a8b809f150315a194e74f3b4b2e022043cffcbab15d0b4de7ab250ca22625a4b0ad937e6446e20262e511a6171d61e70121032323a285671b8ef807d7ab776994818681d3bede7d0a8332853b1acf34135984", "asm": "304502210081eab1a0840508dc2ee24491ef2ef0deaae72a8b809f150315a194e74f3b4b2e022043cffcbab15d0b4de7ab250ca22625a4b0ad937e6446e20262e511a6171d61e7[ALL] 032323a285671b8ef807d7ab776994818681d3bede7d0a8332853b1acf34135984"}, "vout": 0, "txid": "513275e21246eb85dfb76379c08c6613efa0952801a5a1d73187d4078013e985"}], "txid": "a611037d2418cd2851186185d0f72112ce702ce26fe127ebaf4ea32c23874a60", "blocktime": 1537873282, "version": 1, "confirmations": 11484, "time": 1537873282, "locktime": 0, "vsize": 284, "size": 284}