{"hash": "af9c8ed8bc9df434aebea7bdb782792196c76069ef8af1da4caab0676fb43a55", "blockhash": "0000000000000000000baef3f32e3676a92c3b2e5da21b426e4f302fc371ce76", "vout": [{"scriptPubKey": {"reqSigs": 1, "hex": "a91473526abcaa73f1ff18ac04349af2d42865816ed987", "addresses": ["3CCnN2uhuRk8S65csPYtwAZf56F2Zzgkd4"], "asm": "OP_HASH160 73526abcaa73f1ff18ac04349af2d42865816ed9 OP_EQUAL", "type": "scripthash"}, "value": 0.4162, "n": 0}], "hex": "020000000001016fc4f705e881c9f692fd9317d83378da3ccc42594d1ef59e15838571546d0cc80000000017160014c741b8adc01b89750aff0025bb32e8d41d452417ffffffff0120127b020000000017a91473526abcaa73f1ff18ac04349af2d42865816ed98702483045022100b8f6f2b5534ed73e71c3882c724f9b248d0377983a6ef7cfdae750eb7bec1e9e02206bac4d1897382f99f87dd836b60171c3e3c3a627354d9d9e66e7e30cb74213eb0121036d27df6226ef96821167ffb5425d9da01f5849c9cc739f985f27211c8bc7757900000000", "vin": [{"txinwitness": ["3045022100b8f6f2b5534ed73e71c3882c724f9b248d0377983a6ef7cfdae750eb7bec1e9e02206bac4d1897382f99f87dd836b60171c3e3c3a627354d9d9e66e7e30cb74213eb01", "036d27df6226ef96821167ffb5425d9da01f5849c9cc739f985f27211c8bc77579"], "sequence": 4294967295, "scriptSig": {"hex": "160014c741b8adc01b89750aff0025bb32e8d41d452417", "asm": "0014c741b8adc01b89750aff0025bb32e8d41d452417"}, "vout": 0, "txid": "c80c6d54718583159ef51e4d5942cc3cda7833d81793fd92f6c981e805f7c46f"}], "txid": "a613ad64371250845b4e90c0b93e5dd5c9d1741f9542503883ed3025188f8592", "blocktime": 1537876114, "version": 2, "confirmations": 11459, "time": 1537876114, "locktime": 0, "vsize": 134, "size": 216}