{"hash": "a61d54587034868f31f7510ef24b1f6d54d0e78c3cdd9cdaa3ed139c8f270efc", "blockhash": "0000000000000000000e13cef7c366c0283d82e591d1acd082e914b08063cdf1", "vout": [{"scriptPubKey": {"reqSigs": 1, "hex": "76a914694529d7da7af062a5905954f1952d5e6eea870a88ac", "addresses": ["1AbcohmhF4aTHAX2rFyykcA3v4fzkAPyGL"], "asm": "OP_DUP OP_HASH160 694529d7da7af062a5905954f1952d5e6eea870a OP_EQUALVERIFY OP_CHECKSIG", "type": "pubkeyhash"}, "value": 0.03732303, "n": 0}], "hex": "010000000269b6cbde1daf226b40a9de85da34a1901234cb7e155fc76c8915f055f8428d0e010000006a473044022037bf895b5335042b778715ef2275fed3b1b77f3792fa68905927f1d77dd4247002202b2f356eb9fad5b09a2e3e8e728e967fc0eda2fe6501d6efec8046254dada8240121031407efc613c7290ce1792f532331d085cf426eafda23f1c9f694780c873564c9ffffffff38ce18c479c7a7bea2c9a9d1a1a09b1c4ff8589064dfbbb5089ca73ef4475f90000000006b48304502210092dc101bb284c9cbb9cd96d5cd4fb22970961c65693b1fa8a19ce4a26825890802206eddc88bf2a85c9a12fa034e0e293c2e2be5183b067c9463e7ac24672b08b1970121031407efc613c7290ce1792f532331d085cf426eafda23f1c9f694780c873564c9ffffffff014ff33800000000001976a914694529d7da7af062a5905954f1952d5e6eea870a88ac00000000", "vin": [{"sequence": 4294967295, "scriptSig": {"hex": "473044022037bf895b5335042b778715ef2275fed3b1b77f3792fa68905927f1d77dd4247002202b2f356eb9fad5b09a2e3e8e728e967fc0eda2fe6501d6efec8046254dada8240121031407efc613c7290ce1792f532331d085cf426eafda23f1c9f694780c873564c9", "asm": "3044022037bf895b5335042b778715ef2275fed3b1b77f3792fa68905927f1d77dd4247002202b2f356eb9fad5b09a2e3e8e728e967fc0eda2fe6501d6efec8046254dada824[ALL] 031407efc613c7290ce1792f532331d085cf426eafda23f1c9f694780c873564c9"}, "vout": 1, "txid": "0e8d42f855f015896cc75f157ecb341290a134da85dea9406b22af1ddecbb669"}, {"sequence": 4294967295, "scriptSig": {"hex": "48304502210092dc101bb284c9cbb9cd96d5cd4fb22970961c65693b1fa8a19ce4a26825890802206eddc88bf2a85c9a12fa034e0e293c2e2be5183b067c9463e7ac24672b08b1970121031407efc613c7290ce1792f532331d085cf426eafda23f1c9f694780c873564c9", "asm": "304502210092dc101bb284c9cbb9cd96d5cd4fb22970961c65693b1fa8a19ce4a26825890802206eddc88bf2a85c9a12fa034e0e293c2e2be5183b067c9463e7ac24672b08b197[ALL] 031407efc613c7290ce1792f532331d085cf426eafda23f1c9f694780c873564c9"}, "vout": 0, "txid": "905f47f43ea79c08b5bbdf649058f84f1c9ba0a1d1a9c9a2bea7c779c418ce38"}], "txid": "a61d54587034868f31f7510ef24b1f6d54d0e78c3cdd9cdaa3ed139c8f270efc", "blocktime": 1537871767, "version": 1, "confirmations": 11495, "time": 1537871767, "locktime": 0, "vsize": 339, "size": 339}