{"hash": "a626d79384a355a3d88b821ddd609b6fa777a98788bd4f8c47aa7a04b49faf12", "blockhash": "000000000000000000022b45ed06c6f4ccd3cf7fb5ba4856ebd2e58215665228", "vout": [{"scriptPubKey": {"reqSigs": 1, "hex": "76a9145be3e2deca5f721f5866a977c1440b97fec0ec2c88ac", "addresses": ["19NsVGZ74fzXp4X7xVcbpsSAzBqpQncseJ"], "asm": "OP_DUP OP_HASH160 5be3e2deca5f721f5866a977c1440b97fec0ec2c OP_EQUALVERIFY OP_CHECKSIG", "type": "pubkeyhash"}, "value": 0.9555, "n": 0}, {"scriptPubKey": {"reqSigs": 1, "hex": "76a914a5cefbdb6552234b73734ea44a049262898d3a9288ac", "addresses": ["1G7iT96zQU6F7ca8hmeRiT4gHFuCEYMnwy"], "asm": "OP_DUP OP_HASH160 a5cefbdb6552234b73734ea44a049262898d3a92 OP_EQUALVERIFY OP_CHECKSIG", "type": "pubkeyhash"}, "value": 0.01033643, "n": 1}], "hex": "0100000004df863e8faca982bec79b2fc3077a0ddce16950058c6714a36e0d8b010335dc95000000006a47304402200ad958778335ddf105a01bdd76cd6bfb6616e46f05e8bee1b344ece9e34394ee02207121de4b308ecea7e0884a4e5e7a82232c96724a311f8f2f3699484e1d62f2e10121038b66a516c425425785084f5ba65a34a91dda2d3127225af7f5a845d91622deb2fefffffff96ebafb0c65f5946b22f4dcbefc4842b079de1d87e67840c4f91454a41ad642030000006b483045022100c99bc7fba7585007c28c3acf8df475e9d748628353a2a60c39426b17bd0d9ef3022007d81044d039d36022ccfeba433d365f4c9f10b30ad2ea0cec0e350694f97500012102016593e61a22348ed67855d3001fac706363b0095bc116b52ca831e0a29bb66ffeffffff525c2bb6c068276789dbd928e77982c1cee81c5011fa1e8158caa3dd595f4942010000006a47304402206fe5d884b84340d90126b1283cf5bcd19ec3b7754c25511a68b21b6462da1ee802202b8edfeacaffcaad44b768db277700d02a66bc3ab777a9c9bbd350aa3ddcbc820121024a02eca74820a55944599158dda7f08d5cd1bae3423f533cde647ee25f03bccbfeffffff37761272169878b72ad729dc545115b7d2565b86762782eb0d443dbf1d330554000000006a47304402205a7643cd4765f231089ae30fee62731f41cf0b18793af3d9b2c53a6f9a444a3202207381b459b0b66887a6dcea4277522397ebc8f382a2b223638cab4ad4635d4e0c0121039c2250e0c3410970282f790175fc1e26263c022dd994d635d21673a94aeba093feffffff0230fab105000000001976a9145be3e2deca5f721f5866a977c1440b97fec0ec2c88acabc50f00000000001976a914a5cefbdb6552234b73734ea44a049262898d3a9288ac0b490800", "vin": [{"sequence": 4294967294, "scriptSig": {"hex": "47304402200ad958778335ddf105a01bdd76cd6bfb6616e46f05e8bee1b344ece9e34394ee02207121de4b308ecea7e0884a4e5e7a82232c96724a311f8f2f3699484e1d62f2e10121038b66a516c425425785084f5ba65a34a91dda2d3127225af7f5a845d91622deb2", "asm": "304402200ad958778335ddf105a01bdd76cd6bfb6616e46f05e8bee1b344ece9e34394ee02207121de4b308ecea7e0884a4e5e7a82232c96724a311f8f2f3699484e1d62f2e1[ALL] 038b66a516c425425785084f5ba65a34a91dda2d3127225af7f5a845d91622deb2"}, "vout": 0, "txid": "95dc3503018b0d6ea314678c055069e1dc0d7a07c32f9bc7be82a9ac8f3e86df"}, {"sequence": 4294967294, "scriptSig": {"hex": "483045022100c99bc7fba7585007c28c3acf8df475e9d748628353a2a60c39426b17bd0d9ef3022007d81044d039d36022ccfeba433d365f4c9f10b30ad2ea0cec0e350694f97500012102016593e61a22348ed67855d3001fac706363b0095bc116b52ca831e0a29bb66f", "asm": "3045022100c99bc7fba7585007c28c3acf8df475e9d748628353a2a60c39426b17bd0d9ef3022007d81044d039d36022ccfeba433d365f4c9f10b30ad2ea0cec0e350694f97500[ALL] 02016593e61a22348ed67855d3001fac706363b0095bc116b52ca831e0a29bb66f"}, "vout": 3, "txid": "42d61aa45414f9c44078e6871dde79b04248fcbedcf4226b94f5650cfbba6ef9"}, {"sequence": 4294967294, "scriptSig": {"hex": "47304402206fe5d884b84340d90126b1283cf5bcd19ec3b7754c25511a68b21b6462da1ee802202b8edfeacaffcaad44b768db277700d02a66bc3ab777a9c9bbd350aa3ddcbc820121024a02eca74820a55944599158dda7f08d5cd1bae3423f533cde647ee25f03bccb", "asm": "304402206fe5d884b84340d90126b1283cf5bcd19ec3b7754c25511a68b21b6462da1ee802202b8edfeacaffcaad44b768db277700d02a66bc3ab777a9c9bbd350aa3ddcbc82[ALL] 024a02eca74820a55944599158dda7f08d5cd1bae3423f533cde647ee25f03bccb"}, "vout": 1, "txid": "42495f59dda3ca58811efa11501ce8cec18279e728d9db89672768c0b62b5c52"}, {"sequence": 4294967294, "scriptSig": {"hex": "47304402205a7643cd4765f231089ae30fee62731f41cf0b18793af3d9b2c53a6f9a444a3202207381b459b0b66887a6dcea4277522397ebc8f382a2b223638cab4ad4635d4e0c0121039c2250e0c3410970282f790175fc1e26263c022dd994d635d21673a94aeba093", "asm": "304402205a7643cd4765f231089ae30fee62731f41cf0b18793af3d9b2c53a6f9a444a3202207381b459b0b66887a6dcea4277522397ebc8f382a2b223638cab4ad4635d4e0c[ALL] 039c2250e0c3410970282f790175fc1e26263c022dd994d635d21673a94aeba093"}, "vout": 0, "txid": "5405331dbf3d440deb822776865b56d2b7155154dc29d72ab778981672127637"}], "txid": "a626d79384a355a3d88b821ddd609b6fa777a98788bd4f8c47aa7a04b49faf12", "blocktime": 1537869901, "version": 1, "confirmations": 11522, "time": 1537869901, "locktime": 542987, "vsize": 667, "size": 667}