{"hash": "a6281ded2086f8969b108654cd9abe5e8a4de4c472a2e423565170b250f8f6b7", "blockhash": "0000000000000000001f76057863aec43deb6fa401d9628bb513d65a8098bfab", "vout": [{"scriptPubKey": {"type": "nulldata", "hex": "6a4c50000077e30001887ee3febd18774bd779a4b07af8e8e963c7cfd5b95b23cc0f42c2fc38c5522519f5df268510f8e8fa9aa59c00095baa17080612819676dd69bc1d100759d4ba30d2c37bb011d97e02cf", "asm": "OP_RETURN 000077e30001887ee3febd18774bd779a4b07af8e8e963c7cfd5b95b23cc0f42c2fc38c5522519f5df268510f8e8fa9aa59c00095baa17080612819676dd69bc1d100759d4ba30d2c37bb011d97e02cf"}, "value": 0.0, "n": 0}, {"scriptPubKey": {"reqSigs": 1, "hex": "76a9142b7d1c307629eaf87939f7f1d8b5892d513290e988ac", "addresses": ["14xww41SktNT2uUE8KoMq3y3uy98u55qUe"], "asm": "OP_DUP OP_HASH160 2b7d1c307629eaf87939f7f1d8b5892d513290e9 OP_EQUALVERIFY OP_CHECKSIG", "type": "pubkeyhash"}, "value": 0.00635344, "n": 1}], "hex": "0100000001925b7043616853dc2137c58d1899f5c758d67810ab45cecc114a47c423ce012b000000006a47304402202a91df3ba76a0d69ac18d9f0ce8e947a33483cbd7d05f96e70ca701e237b146b02202713fb2c1f5516d16a138c31ac17d5c227903f3fd4a0e8f4046bee651ae051ed012103068b81827a149024a02187df5a6ccfc521c1abb2ca46298a2d64d63a9dfeba0cffffffff020000000000000000536a4c50000077e30001887ee3febd18774bd779a4b07af8e8e963c7cfd5b95b23cc0f42c2fc38c5522519f5df268510f8e8fa9aa59c00095baa17080612819676dd69bc1d100759d4ba30d2c37bb011d97e02cfd0b10900000000001976a9142b7d1c307629eaf87939f7f1d8b5892d513290e988ac00000000", "vin": [{"sequence": 4294967295, "scriptSig": {"hex": "47304402202a91df3ba76a0d69ac18d9f0ce8e947a33483cbd7d05f96e70ca701e237b146b02202713fb2c1f5516d16a138c31ac17d5c227903f3fd4a0e8f4046bee651ae051ed012103068b81827a149024a02187df5a6ccfc521c1abb2ca46298a2d64d63a9dfeba0c", "asm": "304402202a91df3ba76a0d69ac18d9f0ce8e947a33483cbd7d05f96e70ca701e237b146b02202713fb2c1f5516d16a138c31ac17d5c227903f3fd4a0e8f4046bee651ae051ed[ALL] 03068b81827a149024a02187df5a6ccfc521c1abb2ca46298a2d64d63a9dfeba0c"}, "vout": 0, "txid": "2b01ce23c4474a11ccce45ab1078d658c7f599188dc53721dc53686143705b92"}], "txid": "a6281ded2086f8969b108654cd9abe5e8a4de4c472a2e423565170b250f8f6b7", "blocktime": 1537873891, "version": 1, "confirmations": 11478, "time": 1537873891, "locktime": 0, "vsize": 283, "size": 283}