{"hash": "a62b17fdb8f0ebaec4557ca5ce3f4fb9c5609ae957bd5af3d81799b378ceea25", "blockhash": "00000000000000000018f53835495a110e01622372bf6ae95dc86f2b0ab887b0", "vout": [{"scriptPubKey": {"type": "nulldata", "hex": "6a146f6d6e69000000000000001f0000001010b87200", "asm": "OP_RETURN 6f6d6e69000000000000001f0000001010b87200"}, "value": 0.0, "n": 0}, {"scriptPubKey": {"reqSigs": 1, "hex": "76a9141c8055acef0de5a82eaece5f7b9a517a5a0ab79f88ac", "addresses": ["13bhfDnaqxjFsLTW8wMDrmtyPVMPm7Hy93"], "asm": "OP_DUP OP_HASH160 1c8055acef0de5a82eaece5f7b9a517a5a0ab79f OP_EQUALVERIFY OP_CHECKSIG", "type": "pubkeyhash"}, "value": 0.00099198, "n": 1}, {"scriptPubKey": {"reqSigs": 1, "hex": "76a914197467b8a6d9dcf8fe2312ae8706e10c61db66d188ac", "addresses": ["13KbLmZ6GFrUGSZ6HU8P8gbXHktXtz9WDX"], "asm": "OP_DUP OP_HASH160 197467b8a6d9dcf8fe2312ae8706e10c61db66d1 OP_EQUALVERIFY OP_CHECKSIG", "type": "pubkeyhash"}, "value": 5.46e-06, "n": 2}], "hex": "0100000001589cc5fd9e83fd87f79e2b9307c27cec3ecffc15163204d34c5d952739749c38000000006a4730440220788d5673b8d98c5bdccdd663ff69153c77b8f859cf116de94e2bda0d8640e5b202201a9947cc15c3abb150a917fc10e4b208263e6fcb5f6ae18e7ddfdac0e821f2f5012102a2fe3777ac81f5ebe358c43d72c95005f5e69d8eaf7b183738e5627a610e77d2feffffff030000000000000000166a146f6d6e69000000000000001f0000001010b872007e830100000000001976a9141c8055acef0de5a82eaece5f7b9a517a5a0ab79f88ac22020000000000001976a914197467b8a6d9dcf8fe2312ae8706e10c61db66d188ac0e490800", "vin": [{"sequence": 4294967294, "scriptSig": {"hex": "4730440220788d5673b8d98c5bdccdd663ff69153c77b8f859cf116de94e2bda0d8640e5b202201a9947cc15c3abb150a917fc10e4b208263e6fcb5f6ae18e7ddfdac0e821f2f5012102a2fe3777ac81f5ebe358c43d72c95005f5e69d8eaf7b183738e5627a610e77d2", "asm": "30440220788d5673b8d98c5bdccdd663ff69153c77b8f859cf116de94e2bda0d8640e5b202201a9947cc15c3abb150a917fc10e4b208263e6fcb5f6ae18e7ddfdac0e821f2f5[ALL] 02a2fe3777ac81f5ebe358c43d72c95005f5e69d8eaf7b183738e5627a610e77d2"}, "vout": 0, "txid": "389c743927955d4cd304321615fccf3eec7cc207932b9ef787fd839efdc59c58"}], "txid": "a62b17fdb8f0ebaec4557ca5ce3f4fb9c5609ae957bd5af3d81799b378ceea25", "blocktime": 1537870928, "version": 1, "confirmations": 11514, "time": 1537870928, "locktime": 542990, "vsize": 256, "size": 256}