{"hash": "b9a2d902c284c084ec25b015efc936f258f9c9c94c076966f87ad8881f307ac3", "blockhash": "00000000000000000018f53835495a110e01622372bf6ae95dc86f2b0ab887b0", "vout": [{"scriptPubKey": {"reqSigs": 1, "hex": "a914bc23d90e0201e97ba624dd66c14296dec7c78c6887", "addresses": ["3JqouMvVYsRPw5VcS7Mrp6bxAHtZmn6i3Z"], "asm": "OP_HASH160 bc23d90e0201e97ba624dd66c14296dec7c78c68 OP_EQUAL", "type": "scripthash"}, "value": 0.01115784, "n": 0}, {"scriptPubKey": {"reqSigs": 1, "hex": "a9146fec91919525312bfc9d35dba06d331cf59b3bc187", "addresses": ["3BtpKuvjbwMqVQDt6tKuXrcp4j6LcA7xqu"], "asm": "OP_HASH160 6fec91919525312bfc9d35dba06d331cf59b3bc1 OP_EQUAL", "type": "scripthash"}, "value": 0.44437396, "n": 1}], "hex": "010000000001014d9953190d0dd8ae656243576ec6fa123d338589e3aa6951457a7fefcc63086a0100000023220020d262e3e1e23a820a8127ffac7322122c04e1a4fbd4ad1db7187c77419f14e69cffffffff02880611000000000017a914bc23d90e0201e97ba624dd66c14296dec7c78c6887940fa6020000000017a9146fec91919525312bfc9d35dba06d331cf59b3bc1870400473044022061b93844d33acf4f3908c6f9d0f9e84fcc00b214f585a090eb3031db568c3c61022004d84020aae696a6c7fb6cb72fd2e01a546a722ada373f79fe5b0593d13a71cd0147304402200747eb968c9dd0fc29c7e512179a6664d4867f31e4808adb6b9f17d38cb9118302207dc8517ed3daabf2b9863aba3bf32bb430535d68c7a0d136ca8e333f14d85f2901475221035cc03f2595ea2ec32cf2371375129e558793ee0062cf9cb6cd1a8ea98e9d050221038f2c7ecee34c843be9d886e50ce79e5dc40a1694c0417d60b35340f292ff73fc52ae00000000", "vin": [{"txinwitness": ["", "3044022061b93844d33acf4f3908c6f9d0f9e84fcc00b214f585a090eb3031db568c3c61022004d84020aae696a6c7fb6cb72fd2e01a546a722ada373f79fe5b0593d13a71cd01", "304402200747eb968c9dd0fc29c7e512179a6664d4867f31e4808adb6b9f17d38cb9118302207dc8517ed3daabf2b9863aba3bf32bb430535d68c7a0d136ca8e333f14d85f2901", "5221035cc03f2595ea2ec32cf2371375129e558793ee0062cf9cb6cd1a8ea98e9d050221038f2c7ecee34c843be9d886e50ce79e5dc40a1694c0417d60b35340f292ff73fc52ae"], "sequence": 4294967295, "scriptSig": {"hex": "220020d262e3e1e23a820a8127ffac7322122c04e1a4fbd4ad1db7187c77419f14e69c", "asm": "0020d262e3e1e23a820a8127ffac7322122c04e1a4fbd4ad1db7187c77419f14e69c"}, "vout": 1, "txid": "6a0863ccef7f7a455169aae38985333d12fac66e57436265aed80d0d1953994d"}], "txid": "a62e1d3e80ea060a4541dcf8b6c1d6379d165e2e7034939cd5643dbd91ae5044", "blocktime": 1537870928, "version": 1, "confirmations": 11514, "time": 1537870928, "locktime": 0, "vsize": 205, "size": 370}