{"hash": "88c39a1cb04d34ca6bca30ae951c84d92a38795ec4a8723ef4e396c7b5bd2023", "blockhash": "000000000000000000022b45ed06c6f4ccd3cf7fb5ba4856ebd2e58215665228", "vout": [{"scriptPubKey": {"reqSigs": 1, "hex": "76a914bbaec083b5e6b2619a44122d11954d363152fd0488ac", "addresses": ["1J7NhraWXwxB5EzsPgHjvHxXqAAYgWV397"], "asm": "OP_DUP OP_HASH160 bbaec083b5e6b2619a44122d11954d363152fd04 OP_EQUALVERIFY OP_CHECKSIG", "type": "pubkeyhash"}, "value": 0.0028236, "n": 0}, {"scriptPubKey": {"reqSigs": 1, "hex": "a914e0569c8043de0278ada250c8628e71c0d846747487", "addresses": ["3N9D3NgVv6DJW7dVTnNHhxcLnXnMCAjjuX"], "asm": "OP_HASH160 e0569c8043de0278ada250c8628e71c0d8467474 OP_EQUAL", "type": "scripthash"}, "value": 0.01001289, "n": 1}], "hex": "0200000000010222ee06283cb4aed206366325b702cba3d1bf1b6bc940a5fb36dc3053264db27a0100000017160014660bd46c4e7e00e9a28357fa73ae12b078d1b377feffffffe3720af683bb9b1d53982cf39775f50e5fee9162ff275fdfe56131e2e379324f0800000017160014045b43c74d62fbd5c3134801aedfa650bdf185b6feffffff02f84e0400000000001976a914bbaec083b5e6b2619a44122d11954d363152fd0488ac49470f000000000017a914e0569c8043de0278ada250c8628e71c0d84674748702483045022100ea94bbcfa56bf020be92864aac4889710a310a1884a03da4042d4556a447024902201cb96ae92ff0f96939d8daab23f7a7a831528c1f333acb6fca430210596d2b0b012102e4db5284f65da3cd769ced2f6ae660e3ca93556eb1b17951bcc8042076d6df8502483045022100d3e3192a7d1a58b9153c5b10c0b5d7061eb258ab53005d37dabd6ad2d11bddd702202d8aa346ea322eecec0400a237daf0873b21f1448bc3d586d73a386b32c302c301210365caef68ef3ca721287452869f5c11529e26022eaf798a6f6d98bb131ae531980b490800", "vin": [{"txinwitness": ["3045022100ea94bbcfa56bf020be92864aac4889710a310a1884a03da4042d4556a447024902201cb96ae92ff0f96939d8daab23f7a7a831528c1f333acb6fca430210596d2b0b01", "02e4db5284f65da3cd769ced2f6ae660e3ca93556eb1b17951bcc8042076d6df85"], "sequence": 4294967294, "scriptSig": {"hex": "160014660bd46c4e7e00e9a28357fa73ae12b078d1b377", "asm": "0014660bd46c4e7e00e9a28357fa73ae12b078d1b377"}, "vout": 1, "txid": "7ab24d265330dc36fba540c96b1bbfd1a3cb02b725633606d2aeb43c2806ee22"}, {"txinwitness": ["3045022100d3e3192a7d1a58b9153c5b10c0b5d7061eb258ab53005d37dabd6ad2d11bddd702202d8aa346ea322eecec0400a237daf0873b21f1448bc3d586d73a386b32c302c301", "0365caef68ef3ca721287452869f5c11529e26022eaf798a6f6d98bb131ae53198"], "sequence": 4294967294, "scriptSig": {"hex": "160014045b43c74d62fbd5c3134801aedfa650bdf185b6", "asm": "0014045b43c74d62fbd5c3134801aedfa650bdf185b6"}, "vout": 8, "txid": "4f3279e3e23161e5df5f27ff6291ee5f0ef57597f32c98531d9bbb83f60a72e3"}], "txid": "a633eb471dab7ab8d6ecf6ce0a487f635ca380d80dadf18a84fb8910e9a7c9a1", "blocktime": 1537869901, "version": 2, "confirmations": 11524, "time": 1537869901, "locktime": 542987, "vsize": 259, "size": 422}