{"hash": "a633745089c230d622cb5791403013af5034509acd7837ce4dd66e8a2be654f8", "blockhash": "0000000000000000001cda96e906b7601b7a6fb1a3b62bca570a9e5d8f4b3de1", "vout": [{"scriptPubKey": {"reqSigs": 1, "hex": "76a914bac5c3ea7ef3285a3b8e4b1431509b3da0a5389888ac", "addresses": ["1J2ZbewfRQn6r8SxaKaqUu4XEVKYfBpY3t"], "asm": "OP_DUP OP_HASH160 bac5c3ea7ef3285a3b8e4b1431509b3da0a53898 OP_EQUALVERIFY OP_CHECKSIG", "type": "pubkeyhash"}, "value": 0.03552, "n": 0}, {"scriptPubKey": {"reqSigs": 1, "hex": "76a9144a0f1e2f2b0d7daeec5265f10bbbbe08ed725e8988ac", "addresses": ["17kb7c9ndg7ioSuzMWEHWECdEVUegNkcGc"], "asm": "OP_DUP OP_HASH160 4a0f1e2f2b0d7daeec5265f10bbbbe08ed725e89 OP_EQUALVERIFY OP_CHECKSIG", "type": "pubkeyhash"}, "value": 0.00070006, "n": 1}], "hex": "010000000112259c69fe100b4c29b8b2945868b99ccc7f0525793c0e687a78d2a8156aaed1010000006b483045022100a45d77264a45c8011a2a9ab06999759f9ea9b71fbb46e48a247a4565791136a602201bd06d8578a8cca23902a70c43f1ff5b6347e4e265cc50804967261737059c4001210363e1776495149c5a4e92acf453a3caa19000fc804e4ba2024b600ba25e09c943ffffffff0200333600000000001976a914bac5c3ea7ef3285a3b8e4b1431509b3da0a5389888ac76110100000000001976a9144a0f1e2f2b0d7daeec5265f10bbbbe08ed725e8988ac00000000", "vin": [{"sequence": 4294967295, "scriptSig": {"hex": "483045022100a45d77264a45c8011a2a9ab06999759f9ea9b71fbb46e48a247a4565791136a602201bd06d8578a8cca23902a70c43f1ff5b6347e4e265cc50804967261737059c4001210363e1776495149c5a4e92acf453a3caa19000fc804e4ba2024b600ba25e09c943", "asm": "3045022100a45d77264a45c8011a2a9ab06999759f9ea9b71fbb46e48a247a4565791136a602201bd06d8578a8cca23902a70c43f1ff5b6347e4e265cc50804967261737059c40[ALL] 0363e1776495149c5a4e92acf453a3caa19000fc804e4ba2024b600ba25e09c943"}, "vout": 1, "txid": "d1ae6a15a8d2787a680e3c7925057fcc9cb9685894b2b8294c0b10fe699c2512"}], "txid": "a633745089c230d622cb5791403013af5034509acd7837ce4dd66e8a2be654f8", "blocktime": 1537873282, "version": 1, "confirmations": 11481, "time": 1537873282, "locktime": 0, "vsize": 226, "size": 226}