{"hash": "a64237a76b9bd650cebdd0ce834eaebb3fec6db269df80fcde111c15b9c09e17", "blockhash": "000000000000000000022b45ed06c6f4ccd3cf7fb5ba4856ebd2e58215665228", "vout": [{"scriptPubKey": {"reqSigs": 1, "hex": "76a914067a3bdc04b0a6985cf3873c0819d72b18c78d4988ac", "addresses": ["1bFV79vmCb1YBQwwLcDA5CcP6bsArSd5m"], "asm": "OP_DUP OP_HASH160 067a3bdc04b0a6985cf3873c0819d72b18c78d49 OP_EQUALVERIFY OP_CHECKSIG", "type": "pubkeyhash"}, "value": 7.24e-05, "n": 0}, {"scriptPubKey": {"reqSigs": 1, "hex": "76a9143ac4334a90c54cd8a4d71e2cefc243140a99c37c88ac", "addresses": ["16MjENDyQGZ54DLdjZ3d3sUsD6jiVpG6SR"], "asm": "OP_DUP OP_HASH160 3ac4334a90c54cd8a4d71e2cefc243140a99c37c OP_EQUALVERIFY OP_CHECKSIG", "type": "pubkeyhash"}, "value": 0.08254012, "n": 1}], "hex": "01000000026a07052072a1cb584dd8b005caf2ea31b351d60845d933e563267d4c03bacd25000000006b4830450221009ef1f7649f7bfa9b975a3ad45454dbdb71495dca2a16c7fa42ea59ba0eeaffe202203ca231ab6ae1d04898edbd0c347b5b817e83ea4a9bb2afe3728f8469da1237e1012102d9122832be930a7fb0d5cb9a845dad62af3e0f0055032e4891d9898aeebdaeacffffffff380d50b9e081ec5eb7472f969a859be75fdaeff490455b8037b01cc1d2af3c4a000000006a47304402205fe7dc06cb2fe1ba821916ce6654c9c81e257d14bc5428c3a80bdccad111bfc202204eb546637c78bea94c9019b3bfa854b1faf7ca71d17d25736a9dfcf431e4e39c0121028c9730331cfbb1f22d121779ff15a37ce81fe5de661d5a55b5d39290a1052259ffffffff02481c0000000000001976a914067a3bdc04b0a6985cf3873c0819d72b18c78d4988ac3cf27d00000000001976a9143ac4334a90c54cd8a4d71e2cefc243140a99c37c88ac00000000", "vin": [{"sequence": 4294967295, "scriptSig": {"hex": "4830450221009ef1f7649f7bfa9b975a3ad45454dbdb71495dca2a16c7fa42ea59ba0eeaffe202203ca231ab6ae1d04898edbd0c347b5b817e83ea4a9bb2afe3728f8469da1237e1012102d9122832be930a7fb0d5cb9a845dad62af3e0f0055032e4891d9898aeebdaeac", "asm": "30450221009ef1f7649f7bfa9b975a3ad45454dbdb71495dca2a16c7fa42ea59ba0eeaffe202203ca231ab6ae1d04898edbd0c347b5b817e83ea4a9bb2afe3728f8469da1237e1[ALL] 02d9122832be930a7fb0d5cb9a845dad62af3e0f0055032e4891d9898aeebdaeac"}, "vout": 0, "txid": "25cdba034c7d2663e533d94508d651b331eaf2ca05b0d84d58cba1722005076a"}, {"sequence": 4294967295, "scriptSig": {"hex": "47304402205fe7dc06cb2fe1ba821916ce6654c9c81e257d14bc5428c3a80bdccad111bfc202204eb546637c78bea94c9019b3bfa854b1faf7ca71d17d25736a9dfcf431e4e39c0121028c9730331cfbb1f22d121779ff15a37ce81fe5de661d5a55b5d39290a1052259", "asm": "304402205fe7dc06cb2fe1ba821916ce6654c9c81e257d14bc5428c3a80bdccad111bfc202204eb546637c78bea94c9019b3bfa854b1faf7ca71d17d25736a9dfcf431e4e39c[ALL] 028c9730331cfbb1f22d121779ff15a37ce81fe5de661d5a55b5d39290a1052259"}, "vout": 0, "txid": "4a3cafd2c11cb037805b4590f4efda5fe79b859a962f47b75eec81e0b9500d38"}], "txid": "a64237a76b9bd650cebdd0ce834eaebb3fec6db269df80fcde111c15b9c09e17", "blocktime": 1537869901, "version": 1, "confirmations": 11524, "time": 1537869901, "locktime": 0, "vsize": 373, "size": 373}