{"hash": "b6a088d52e2e637d37e35db65142a09c894d0f584da51c459c103f42d0d756b1", "blockhash": "0000000000000000001cda96e906b7601b7a6fb1a3b62bca570a9e5d8f4b3de1", "vout": [{"scriptPubKey": {"reqSigs": 1, "hex": "a914600e1c001048c11a38833dd34f9cf8738d06541587", "addresses": ["3ASuhJ8LuNm2YgK1NfTHkCepah1P4KFACB"], "asm": "OP_HASH160 600e1c001048c11a38833dd34f9cf8738d065415 OP_EQUAL", "type": "scripthash"}, "value": 0.0041148, "n": 0}, {"scriptPubKey": {"reqSigs": 1, "hex": "76a914ab7d89515b12a412825b7c3ac04b9e567c638f1288ac", "addresses": ["1GdkwE3JtNguW28zkpwuz26cFxCEQH8z88"], "asm": "OP_DUP OP_HASH160 ab7d89515b12a412825b7c3ac04b9e567c638f12 OP_EQUALVERIFY OP_CHECKSIG", "type": "pubkeyhash"}, "value": 0.01280972, "n": 1}, {"scriptPubKey": {"reqSigs": 1, "hex": "a914802dee5848d2e497302541dfbb5903a96878459387", "addresses": ["3DNmSSc5txTyPSBDxZ7Sco7FopkTQqnQFW"], "asm": "OP_HASH160 802dee5848d2e497302541dfbb5903a968784593 OP_EQUAL", "type": "scripthash"}, "value": 0.04882131, "n": 2}, {"scriptPubKey": {"reqSigs": 1, "hex": "76a91439fe4436230c31fe66439453b5e09240f0091c8988ac", "addresses": ["16He7gGfzeJPRPdUM4hQWdLQkxs1gcpmvJ"], "asm": "OP_DUP OP_HASH160 39fe4436230c31fe66439453b5e09240f0091c89 OP_EQUALVERIFY OP_CHECKSIG", "type": "pubkeyhash"}, "value": 0.1379526, "n": 3}, {"scriptPubKey": {"reqSigs": 1, "hex": "76a91425174f11fef4e3e8c80bbc15aa92aeaff12f77ac88ac", "addresses": ["14P7vdKqnNqmxr8c39LBebRMbGBrbc5wTe"], "asm": "OP_DUP OP_HASH160 25174f11fef4e3e8c80bbc15aa92aeaff12f77ac OP_EQUALVERIFY OP_CHECKSIG", "type": "pubkeyhash"}, "value": 0.6464759, "n": 4}, {"scriptPubKey": {"reqSigs": 1, "hex": "76a9148d488a8f56e46bd086746acd920194dc4d0f0fe988ac", "addresses": ["1Dt3BJYYGosa2XxD1KtaByFowVK7mkxmgS"], "asm": "OP_DUP OP_HASH160 8d488a8f56e46bd086746acd920194dc4d0f0fe9 OP_EQUALVERIFY OP_CHECKSIG", "type": "pubkeyhash"}, "value": 0.001, "n": 5}, {"scriptPubKey": {"reqSigs": 1, "hex": "76a9148c73eb69f333b7f4ff5306d58a4adf0c687e328688ac", "addresses": ["1DoeU6EccPzNCYVBV6Kju6RLyHm7k7MkvQ"], "asm": "OP_DUP OP_HASH160 8c73eb69f333b7f4ff5306d58a4adf0c687e3286 OP_EQUALVERIFY OP_CHECKSIG", "type": "pubkeyhash"}, "value": 0.009, "n": 6}, {"scriptPubKey": {"reqSigs": 1, "hex": "a91488da071d1225425cbe352182befae9f7a22b93ee87", "addresses": ["3EAd1U9jugkY3sYAqn6jjbwMKEPbQdgNdK"], "asm": "OP_HASH160 88da071d1225425cbe352182befae9f7a22b93ee OP_EQUAL", "type": "scripthash"}, "value": 0.399, "n": 7}, {"scriptPubKey": {"reqSigs": 1, "hex": "a91498f2f180d562abb64dd358aff1d9ac9dbb8384dd87", "addresses": ["3FdjfhkUr7bfjDaBgiwDW7LoAGhaF2xhXf"], "asm": "OP_HASH160 98f2f180d562abb64dd358aff1d9ac9dbb8384dd OP_EQUAL", "type": "scripthash"}, "value": 0.66076054, "n": 8}, {"scriptPubKey": {"reqSigs": 1, "hex": "a914baed1c79cc6325333d5013b44dc17e8256bf5b7187", "addresses": ["3JjPf13Rd8g6WAyvg8yiPnrsdjJt1NP4FC"], "asm": "OP_HASH160 baed1c79cc6325333d5013b44dc17e8256bf5b71 OP_EQUAL", "type": "scripthash"}, "value": 12.78344378, "n": 9}], "hex": "02000000000101e58f38affe97d140096c49f0f7fda879956cfef6e1a74dd319827b555be806dc08000000171600140976ae89087e12920490628529bfe4a9107439b1ffffffff0a584706000000000017a914600e1c001048c11a38833dd34f9cf8738d06541587cc8b1300000000001976a914ab7d89515b12a412825b7c3ac04b9e567c638f1288acd37e4a000000000017a914802dee5848d2e497302541dfbb5903a96878459387bc7fd200000000001976a91439fe4436230c31fe66439453b5e09240f0091c8988aca671da03000000001976a91425174f11fef4e3e8c80bbc15aa92aeaff12f77ac88aca0860100000000001976a9148d488a8f56e46bd086746acd920194dc4d0f0fe988aca0bb0d00000000001976a9148c73eb69f333b7f4ff5306d58a4adf0c687e328688ac60d360020000000017a91488da071d1225425cbe352182befae9f7a22b93ee87963df0030000000017a91498f2f180d562abb64dd358aff1d9ac9dbb8384dd87bafc314c0000000017a914baed1c79cc6325333d5013b44dc17e8256bf5b71870247304402204215eb831ac17222cbaed233f202b3199e8ca3ae9f53cb1eca45bdaf547d64e402206575a6c0e1df78c75f2d07b3d242baa27aa512c1c267edd5c81a45179d9c3efa01210248566d3b6acc09341b00ed637bb5b5c4195352e13edb3402acd7f6c00438e50800000000", "vin": [{"txinwitness": ["304402204215eb831ac17222cbaed233f202b3199e8ca3ae9f53cb1eca45bdaf547d64e402206575a6c0e1df78c75f2d07b3d242baa27aa512c1c267edd5c81a45179d9c3efa01", "0248566d3b6acc09341b00ed637bb5b5c4195352e13edb3402acd7f6c00438e508"], "sequence": 4294967295, "scriptSig": {"hex": "1600140976ae89087e12920490628529bfe4a9107439b1", "asm": "00140976ae89087e12920490628529bfe4a9107439b1"}, "vout": 8, "txid": "dc06e85b557b8219d34da7e1f6fe6c9579a8fdf7f0496c0940d197feaf388fe5"}], "txid": "a6438898081422bafb9af74f0c1d73d86ec78b68f1656deeaedf6ab614db16d2", "blocktime": 1537873282, "version": 2, "confirmations": 11480, "time": 1537873282, "locktime": 0, "vsize": 432, "size": 513}