{"hash": "a6466bb2f7906886d5bb5c69c51e90c6d3810badde6a6d48201560a048a70e84", "blockhash": "0000000000000000000e13cef7c366c0283d82e591d1acd082e914b08063cdf1", "vout": [{"scriptPubKey": {"reqSigs": 1, "hex": "a9148b5025099c66b4a29814f7a98a376a49490bad8187", "addresses": ["3EPdrkvFcqkkNLTCNZPtJafyDhsbjYyh3b"], "asm": "OP_HASH160 8b5025099c66b4a29814f7a98a376a49490bad81 OP_EQUAL", "type": "scripthash"}, "value": 0.00150189, "n": 0}, {"scriptPubKey": {"reqSigs": 1, "hex": "76a9147cf67181200d9372605e7db68811c4e4efbaf9cb88ac", "addresses": ["1CPk1yS3wdJkmbBABjSEPs1HZR15Bai2dQ"], "asm": "OP_DUP OP_HASH160 7cf67181200d9372605e7db68811c4e4efbaf9cb OP_EQUALVERIFY OP_CHECKSIG", "type": "pubkeyhash"}, "value": 0.00195359, "n": 1}], "hex": "01000000012ed1ab0acca5161f8b8461b358e847a45212fdec6897cdf8f81d48ba9de2682c060000006a473044022017b3ab4e855fdc3378a8adc1ab97a50371b2cefd4f9e853432bcdba79c21462f02204369640ca56d7c1ffe7e544334b9b84e445bad5f4718798b7c37bc3df3e281420121026a09c32e9b498420a8b43b0fb07f239bd3ddf94fb51ecb537ba56d7bd1fbc9b0ffffffff02ad4a02000000000017a9148b5025099c66b4a29814f7a98a376a49490bad81871ffb0200000000001976a9147cf67181200d9372605e7db68811c4e4efbaf9cb88ac00000000", "vin": [{"sequence": 4294967295, "scriptSig": {"hex": "473044022017b3ab4e855fdc3378a8adc1ab97a50371b2cefd4f9e853432bcdba79c21462f02204369640ca56d7c1ffe7e544334b9b84e445bad5f4718798b7c37bc3df3e281420121026a09c32e9b498420a8b43b0fb07f239bd3ddf94fb51ecb537ba56d7bd1fbc9b0", "asm": "3044022017b3ab4e855fdc3378a8adc1ab97a50371b2cefd4f9e853432bcdba79c21462f02204369640ca56d7c1ffe7e544334b9b84e445bad5f4718798b7c37bc3df3e28142[ALL] 026a09c32e9b498420a8b43b0fb07f239bd3ddf94fb51ecb537ba56d7bd1fbc9b0"}, "vout": 6, "txid": "2c68e29dba481df8f8cd9768ecfd1252a447e858b361848b1f16a5cc0aabd12e"}], "txid": "a6466bb2f7906886d5bb5c69c51e90c6d3810badde6a6d48201560a048a70e84", "blocktime": 1537871767, "version": 1, "confirmations": 11490, "time": 1537871767, "locktime": 0, "vsize": 223, "size": 223}