{"hash": "847770cf549424010c42ea91ae1e1f65e484d6d6248c7e3674fcf516f7fc2208", "blockhash": "0000000000000000000e13cef7c366c0283d82e591d1acd082e914b08063cdf1", "vout": [{"scriptPubKey": {"reqSigs": 1, "hex": "0014155b3753233e9e87363ad9d0647d284408040bea", "addresses": ["bc1qz4dnw5er860gwd36m8gxglfggsyqgzl28444m6"], "asm": "0 155b3753233e9e87363ad9d0647d284408040bea", "type": "witness_v0_keyhash"}, "value": 0.01439804, "n": 0}], "hex": "02000000000101ae50ba71ff115668cdf162cfeca2c06a6be1382fb8457d5f2bdd1955131a4eb30000000000ffffffff013cf8150000000000160014155b3753233e9e87363ad9d0647d284408040bea040047304402203da01a94168de000660ac6e9ea42ad962dfe338e87aaea937af637108f53600202204d8a79e0bf813fa3ea1d1009881d07d526e32acdf3df5370bb1fff6af68650620147304402203d793d83c24406bdec016469b474b7280416dbd610d38bfa2eb85058a010704e02205c0e2b75908d07976c976a2b40083f27499965861815a93059a45e85d6620b8d01475221021a542f98db6e8a0ada88947864fa0bffe6780e37a458cd2bb5de5ca852a30a162103c8149bf917db09888b901ce495199335a4312e0be396986cfd93c74908cd5cf152ae00000000", "vin": [{"txinwitness": ["", "304402203da01a94168de000660ac6e9ea42ad962dfe338e87aaea937af637108f53600202204d8a79e0bf813fa3ea1d1009881d07d526e32acdf3df5370bb1fff6af686506201", "304402203d793d83c24406bdec016469b474b7280416dbd610d38bfa2eb85058a010704e02205c0e2b75908d07976c976a2b40083f27499965861815a93059a45e85d6620b8d01", "5221021a542f98db6e8a0ada88947864fa0bffe6780e37a458cd2bb5de5ca852a30a162103c8149bf917db09888b901ce495199335a4312e0be396986cfd93c74908cd5cf152ae"], "sequence": 4294967295, "scriptSig": {"hex": "", "asm": ""}, "vout": 0, "txid": "b34e1a135519dd2b5f7d45b82f38e16b6ac0a2eccf62f1cd685611ff71ba50ae"}], "txid": "a6479f6dbbc84cb9b69138c23723f822c4aa6695410671f32dfbcc6f363354ea", "blocktime": 1537871767, "version": 2, "confirmations": 11495, "time": 1537871767, "locktime": 0, "vsize": 137, "size": 302}