{"hash": "54222fb9e0e3eca524b18ec5377e848c154723649a151587364f74668d7f2911", "blockhash": "00000000000000000017f5eb5941039fbcee6240d03bc1f2f8e35350df66a1d8", "vout": [{"scriptPubKey": {"reqSigs": 1, "hex": "a91476bb2cd493b14aff0df4b82e50990b9352e7ce6187", "addresses": ["3CWotLP93i94vxz5TcEKNGJJfhrKZybfk2"], "asm": "OP_HASH160 76bb2cd493b14aff0df4b82e50990b9352e7ce61 OP_EQUAL", "type": "scripthash"}, "value": 0.01820125, "n": 0}, {"scriptPubKey": {"reqSigs": 1, "hex": "a91447f9716f368303e1c5d70eebdde1cdfc60e773c487", "addresses": ["38FaimsEP6A8kXBqLnkJnXiWhSQv7dHyVQ"], "asm": "OP_HASH160 47f9716f368303e1c5d70eebdde1cdfc60e773c4 OP_EQUAL", "type": "scripthash"}, "value": 0.00133164, "n": 1}], "hex": "02000000000101552f81983c8061afc682c808293d89e11cd3b1a3e14ea33f91fb8fe4cf2f994400000000171600142176f03ba8793ea7f9efcac338e6572adddc6a3ffeffffff02ddc51b000000000017a91476bb2cd493b14aff0df4b82e50990b9352e7ce61872c0802000000000017a91447f9716f368303e1c5d70eebdde1cdfc60e773c487024830450221008149ebf77e13a702db91965e2bbf3b87dae182050a1cde1a3de968486d3046f902202fde9848f007ff15fdc2fad4c7ed4f08dd8cec530937eeb965db78531109073801210233c92b02349e8e43459c57c70749e41618f78647dcd8f77811148f7e3f0cfa1215490800", "vin": [{"txinwitness": ["30450221008149ebf77e13a702db91965e2bbf3b87dae182050a1cde1a3de968486d3046f902202fde9848f007ff15fdc2fad4c7ed4f08dd8cec530937eeb965db78531109073801", "0233c92b02349e8e43459c57c70749e41618f78647dcd8f77811148f7e3f0cfa12"], "sequence": 4294967294, "scriptSig": {"hex": "1600142176f03ba8793ea7f9efcac338e6572adddc6a3f", "asm": "00142176f03ba8793ea7f9efcac338e6572adddc6a3f"}, "vout": 0, "txid": "44992fcfe48ffb913fa34ee1a3b1d31ce1893d2908c882c6af61803c98812f55"}], "txid": "a64cb6529735b8b060ff3b7b51ddaaa916347d5151c9a15f2a87b71f8632eb7b", "blocktime": 1537874412, "version": 2, "confirmations": 11468, "time": 1537874412, "locktime": 542997, "vsize": 166, "size": 248}