{"hash": "a653beb9b1cec9cbb29d7e533b1cbf6312858beae68fcdb45d5c5210c6b8d10d", "blockhash": "0000000000000000000e13cef7c366c0283d82e591d1acd082e914b08063cdf1", "vout": [{"scriptPubKey": {"reqSigs": 1, "hex": "76a9149688ebebaf176aa1259d7b148d32416862fd707188ac", "addresses": ["1EixPFbf8BaFcscz5b9wyh7P7kjP8UdDC1"], "asm": "OP_DUP OP_HASH160 9688ebebaf176aa1259d7b148d32416862fd7071 OP_EQUALVERIFY OP_CHECKSIG", "type": "pubkeyhash"}, "value": 0.00013653, "n": 0}, {"scriptPubKey": {"reqSigs": 1, "hex": "a914e4702106c1015cb289e01323e3a8c4fdfc73519287", "addresses": ["3NWtK99P6VUjNn5MXLarb2euLyNvrGUHNw"], "asm": "OP_HASH160 e4702106c1015cb289e01323e3a8c4fdfc735192 OP_EQUAL", "type": "scripthash"}, "value": 0.00781, "n": 1}], "hex": "010000000110d8624c939d63f4c24fb888632f46507da473a3ff0e16daf01e6ebcb1ce2d39000000006b48304502210097634223e016aa240a71ce0e3f13ca5e03584e7dca6765a362ad81770ca77e3e022026719a6ddcdad3e00c51959e9e032030602a746ec3a8bfd977110db61fd5c43a012102232b1b803d71ef893b37d84175d874a3f9e5bf7f7b39b897a9e65bd5f38bec4affffffff0255350000000000001976a9149688ebebaf176aa1259d7b148d32416862fd707188acc8ea0b000000000017a914e4702106c1015cb289e01323e3a8c4fdfc7351928700000000", "vin": [{"sequence": 4294967295, "scriptSig": {"hex": "48304502210097634223e016aa240a71ce0e3f13ca5e03584e7dca6765a362ad81770ca77e3e022026719a6ddcdad3e00c51959e9e032030602a746ec3a8bfd977110db61fd5c43a012102232b1b803d71ef893b37d84175d874a3f9e5bf7f7b39b897a9e65bd5f38bec4a", "asm": "304502210097634223e016aa240a71ce0e3f13ca5e03584e7dca6765a362ad81770ca77e3e022026719a6ddcdad3e00c51959e9e032030602a746ec3a8bfd977110db61fd5c43a[ALL] 02232b1b803d71ef893b37d84175d874a3f9e5bf7f7b39b897a9e65bd5f38bec4a"}, "vout": 0, "txid": "392dceb1bc6e1ef0da160effa373a47d50462f6388b84fc2f4639d934c62d810"}], "txid": "a653beb9b1cec9cbb29d7e533b1cbf6312858beae68fcdb45d5c5210c6b8d10d", "blocktime": 1537871767, "version": 1, "confirmations": 11495, "time": 1537871767, "locktime": 0, "vsize": 224, "size": 224}