{"hash": "a65548c931c328427112cfd6ae668cd5d2384ccc71dc96a6cfe42cddac88dcea", "blockhash": "0000000000000000001cda96e906b7601b7a6fb1a3b62bca570a9e5d8f4b3de1", "vout": [{"scriptPubKey": {"reqSigs": 1, "hex": "a9141a9df3c0962b8a378f0a14546bf2070abc994ff287", "addresses": ["347kiErQDvBUSB3z37BWcJuvnoRQmf74Ad"], "asm": "OP_HASH160 1a9df3c0962b8a378f0a14546bf2070abc994ff2 OP_EQUAL", "type": "scripthash"}, "value": 0.05, "n": 0}, {"scriptPubKey": {"reqSigs": 1, "hex": "76a91458c854e4ed78348142600535215cbbe0f39ee6aa88ac", "addresses": ["196STAdBYiP5rXS3awefA4QHvKREeKtCjV"], "asm": "OP_DUP OP_HASH160 58c854e4ed78348142600535215cbbe0f39ee6aa OP_EQUALVERIFY OP_CHECKSIG", "type": "pubkeyhash"}, "value": 1.849492, "n": 1}], "hex": "0100000001df8534adf91cf99d1f552a224620980ce9eb1aa09892ff91fd7775d1418e4acd010000006b483045022100ea6e70414355c4da82f813681183ddcb3f7c3c9a0720863ad1e4f5c56f0af027022068a1fa574c660b03f35d67a4e3b3dc4fc707542de0496690d2a5cba2fc663602012103b3b698afda157dce4584ab01bf53b50f6d3553588f8820a51e09c2222b500d40feffffff02404b4c000000000017a9141a9df3c0962b8a378f0a14546bf2070abc994ff287d019060b000000001976a91458c854e4ed78348142600535215cbbe0f39ee6aa88ac13490800", "vin": [{"sequence": 4294967294, "scriptSig": {"hex": "483045022100ea6e70414355c4da82f813681183ddcb3f7c3c9a0720863ad1e4f5c56f0af027022068a1fa574c660b03f35d67a4e3b3dc4fc707542de0496690d2a5cba2fc663602012103b3b698afda157dce4584ab01bf53b50f6d3553588f8820a51e09c2222b500d40", "asm": "3045022100ea6e70414355c4da82f813681183ddcb3f7c3c9a0720863ad1e4f5c56f0af027022068a1fa574c660b03f35d67a4e3b3dc4fc707542de0496690d2a5cba2fc663602[ALL] 03b3b698afda157dce4584ab01bf53b50f6d3553588f8820a51e09c2222b500d40"}, "vout": 1, "txid": "cd4a8e41d17577fd91ff9298a01aebe90c982046222a551f9df91cf9ad3485df"}], "txid": "a65548c931c328427112cfd6ae668cd5d2384ccc71dc96a6cfe42cddac88dcea", "blocktime": 1537873282, "version": 1, "confirmations": 11485, "time": 1537873282, "locktime": 542995, "vsize": 224, "size": 224}