{"hash": "a65ed145086429251c72239dbaa069457ab6114298ca582c2511370b1b3c0421", "blockhash": "0000000000000000000e13cef7c366c0283d82e591d1acd082e914b08063cdf1", "vout": [{"scriptPubKey": {"reqSigs": 1, "hex": "a914b658adc86bd43b415dbbde9bc0b7e39a24192c4e87", "addresses": ["3JKB8yFbYyt4ZbsZWUBZNg7qRkYhch891i"], "asm": "OP_HASH160 b658adc86bd43b415dbbde9bc0b7e39a24192c4e OP_EQUAL", "type": "scripthash"}, "value": 0.02310321, "n": 0}, {"scriptPubKey": {"reqSigs": 1, "hex": "76a914af8f4751fef3e806e49f9eb021647b9f4a1fe56788ac", "addresses": ["1H1Gtk1pepvDmK7AhiVEzGCeJ2tY3vh68F"], "asm": "OP_DUP OP_HASH160 af8f4751fef3e806e49f9eb021647b9f4a1fe567 OP_EQUALVERIFY OP_CHECKSIG", "type": "pubkeyhash"}, "value": 0.00028752, "n": 1}], "hex": "01000000065cdf035842b96f97616cad722b6f0ba1cca7102a8d3bd3efed1e0310ff13af0400000000da00473044022032637668f6375e7a183e3bc845e6cc2573469c699b9e06da956a765d28c13c9402202a8a38ea3627a4022c97744ca0a71c3b201fb1372da809a96a1d24828584f81601483045022100c07f66f7ad010edd180a5c37679731910e0f6a87f3e3696cbe30e2cff3bd16dd022008700e98564fce2ad1e0f48f877e625d17bb09b0d31990f7dd3b9618527bd68701475221021e3e0a22e91fd7f80ea6d1bb69d273b95604882749bb0309e621cba6a6b144992102907a54bed8ad74b3f35638c60114ca240a308cb986f3f2f306178869a8880b6152aeffffffff1533753bfa57afcebf3be21af4dec061e6ab4fe1598d80b493fc1a38f0edadee00000000d90047304402203a094b4a9b4e79be0fdf837ded92925b4c2bebf5d670d69cbb6cbf02a3c5c84d02203c5f0ebc98f2b6362b2e92d2d855cfe3f642f216e38fc4ca4f88390347fc606f0147304402207ba2a5964e54ef86e00eb491dc154b29f87507531f367ee1de85447ed9d77ff8022057a4db63f0bf064addfecca42c5c7b72abc227a941f14eab2acd126cbf5b6f52014752210229bf4a10a81e3c5022fa126ccea31d8e2be2f120c06fd634ba53600532efeddd2102907a54bed8ad74b3f35638c60114ca240a308cb986f3f2f306178869a8880b6152aeffffffffe140509c4f4c42438da3e6add526ead78b5f14bd2b7bb265682898b5fff1501600000000da00473044022077f38d1c79a8940955d8e98924f538acda9c66ebd60a7da3093a39d31f104f7702202724661454fcaf8a171b4965bd5a64f39b20d3d24d11519da52e9c4024de3294014830450221008c9cb1987231c80c3130f3a8dc41493ae031662e02430fc3cf744afb1746beb2022017a4178f5b95a416907a30e274bc9e1bd057eefb33b5eddba19615bafec3554701475221022ef4ed499f7b9f723ed027de55db79584d90127411d9ace8a567169ab07132e02102907a54bed8ad74b3f35638c60114ca240a308cb986f3f2f306178869a8880b6152aeffffffff6ccba3d8b242353e40d941dabd363abcce111997b86a7a1f489bbd7ac45f582500000000da00483045022100b4ae6fff6d574e6182f58350c4ccb39fa51061d8b3c79be0ddf61d425aec23ff022052a7fb931d9a75f80a45d92e7096822d300cdb85cc1ce0d54ccf7d7812d9f28e01473044022038c70915d9be34fc910718de609b580caff79d00443c156097a038c6585147ef02206f0d112f35bbc01529fbae57d118031184375c09e55a24f7aba19032bc17a55c0147522102361b2c342d39c0dce950c0b81d1ebe56b7b401637074d15d848b588f0eb5cb482102907a54bed8ad74b3f35638c60114ca240a308cb986f3f2f306178869a8880b6152aeffffffff8d1da4a500cf82edef34f82b5539dc5f77e0c282da2d31282be9a9df246ad9e400000000da0047304402204e55208e5b34373c4aee9963ffdd3abbc3f6346c1defa56ba68f016f716743ac02203ff6eecc0d911669586da904701c9d5ecf72f73e70ffd4fe083481cfd1dacd6f01483045022100e3ae32fe279edc06f7eb8cac89d935092784b751657ba19621a8945eb0c6145302200bd9a308716e56627241558006c968764d54f158e5e7db392377b211de2c0a880147522102907a54bed8ad74b3f35638c60114ca240a308cb986f3f2f306178869a8880b612103979ff19ed3fb6b95bb5bffd45942bcacccca9120c5b4c366208d774e1b63e09252aeffffffff12024e0030a7f57456315355465d9c85e4b077a80e57a68abe7089bad46f632900000000d900473044022045acc8c282935985887d894e5c922924c6faab1deb801236ae2e41416029824402204f3c91cd3ace136224030b5bdcb4a2e3285a9fe72d2a00e9e91f084fb3693622014730440220452cb7e5c75cd976584a51784709402fc073a11d8f4011a135e27f3015664de802203e7a9536a7091f0454d86b17dc23356a75f9dd68cf4d7ba0b2e20725398970bf0147522102907a54bed8ad74b3f35638c60114ca240a308cb986f3f2f306178869a8880b612103d689db650bfe0be0c246d5dbcd7406708c3d24ef03222f34f6491892196920da52aeffffffff02b14023000000000017a914b658adc86bd43b415dbbde9bc0b7e39a24192c4e8750700000000000001976a914af8f4751fef3e806e49f9eb021647b9f4a1fe56788ac00000000", "vin": [{"sequence": 4294967295, "scriptSig": {"hex": "00473044022032637668f6375e7a183e3bc845e6cc2573469c699b9e06da956a765d28c13c9402202a8a38ea3627a4022c97744ca0a71c3b201fb1372da809a96a1d24828584f81601483045022100c07f66f7ad010edd180a5c37679731910e0f6a87f3e3696cbe30e2cff3bd16dd022008700e98564fce2ad1e0f48f877e625d17bb09b0d31990f7dd3b9618527bd68701475221021e3e0a22e91fd7f80ea6d1bb69d273b95604882749bb0309e621cba6a6b144992102907a54bed8ad74b3f35638c60114ca240a308cb986f3f2f306178869a8880b6152ae", "asm": "0 3044022032637668f6375e7a183e3bc845e6cc2573469c699b9e06da956a765d28c13c9402202a8a38ea3627a4022c97744ca0a71c3b201fb1372da809a96a1d24828584f816[ALL] 3045022100c07f66f7ad010edd180a5c37679731910e0f6a87f3e3696cbe30e2cff3bd16dd022008700e98564fce2ad1e0f48f877e625d17bb09b0d31990f7dd3b9618527bd687[ALL] 5221021e3e0a22e91fd7f80ea6d1bb69d273b95604882749bb0309e621cba6a6b144992102907a54bed8ad74b3f35638c60114ca240a308cb986f3f2f306178869a8880b6152ae"}, "vout": 0, "txid": "04af13ff10031eedefd33b8d2a10a7cca10b6f2b72ad6c61976fb9425803df5c"}, {"sequence": 4294967295, "scriptSig": {"hex": "0047304402203a094b4a9b4e79be0fdf837ded92925b4c2bebf5d670d69cbb6cbf02a3c5c84d02203c5f0ebc98f2b6362b2e92d2d855cfe3f642f216e38fc4ca4f88390347fc606f0147304402207ba2a5964e54ef86e00eb491dc154b29f87507531f367ee1de85447ed9d77ff8022057a4db63f0bf064addfecca42c5c7b72abc227a941f14eab2acd126cbf5b6f52014752210229bf4a10a81e3c5022fa126ccea31d8e2be2f120c06fd634ba53600532efeddd2102907a54bed8ad74b3f35638c60114ca240a308cb986f3f2f306178869a8880b6152ae", "asm": "0 304402203a094b4a9b4e79be0fdf837ded92925b4c2bebf5d670d69cbb6cbf02a3c5c84d02203c5f0ebc98f2b6362b2e92d2d855cfe3f642f216e38fc4ca4f88390347fc606f[ALL] 304402207ba2a5964e54ef86e00eb491dc154b29f87507531f367ee1de85447ed9d77ff8022057a4db63f0bf064addfecca42c5c7b72abc227a941f14eab2acd126cbf5b6f52[ALL] 52210229bf4a10a81e3c5022fa126ccea31d8e2be2f120c06fd634ba53600532efeddd2102907a54bed8ad74b3f35638c60114ca240a308cb986f3f2f306178869a8880b6152ae"}, "vout": 0, "txid": "eeadedf0381afc93b4808d59e14fabe661c0def41ae23bbfceaf57fa3b753315"}, {"sequence": 4294967295, "scriptSig": {"hex": "00473044022077f38d1c79a8940955d8e98924f538acda9c66ebd60a7da3093a39d31f104f7702202724661454fcaf8a171b4965bd5a64f39b20d3d24d11519da52e9c4024de3294014830450221008c9cb1987231c80c3130f3a8dc41493ae031662e02430fc3cf744afb1746beb2022017a4178f5b95a416907a30e274bc9e1bd057eefb33b5eddba19615bafec3554701475221022ef4ed499f7b9f723ed027de55db79584d90127411d9ace8a567169ab07132e02102907a54bed8ad74b3f35638c60114ca240a308cb986f3f2f306178869a8880b6152ae", "asm": "0 3044022077f38d1c79a8940955d8e98924f538acda9c66ebd60a7da3093a39d31f104f7702202724661454fcaf8a171b4965bd5a64f39b20d3d24d11519da52e9c4024de3294[ALL] 30450221008c9cb1987231c80c3130f3a8dc41493ae031662e02430fc3cf744afb1746beb2022017a4178f5b95a416907a30e274bc9e1bd057eefb33b5eddba19615bafec35547[ALL] 5221022ef4ed499f7b9f723ed027de55db79584d90127411d9ace8a567169ab07132e02102907a54bed8ad74b3f35638c60114ca240a308cb986f3f2f306178869a8880b6152ae"}, "vout": 0, "txid": "1650f1ffb598286865b27b2bbd145f8bd7ea26d5ade6a38d43424c4f9c5040e1"}, {"sequence": 4294967295, "scriptSig": {"hex": "00483045022100b4ae6fff6d574e6182f58350c4ccb39fa51061d8b3c79be0ddf61d425aec23ff022052a7fb931d9a75f80a45d92e7096822d300cdb85cc1ce0d54ccf7d7812d9f28e01473044022038c70915d9be34fc910718de609b580caff79d00443c156097a038c6585147ef02206f0d112f35bbc01529fbae57d118031184375c09e55a24f7aba19032bc17a55c0147522102361b2c342d39c0dce950c0b81d1ebe56b7b401637074d15d848b588f0eb5cb482102907a54bed8ad74b3f35638c60114ca240a308cb986f3f2f306178869a8880b6152ae", "asm": "0 3045022100b4ae6fff6d574e6182f58350c4ccb39fa51061d8b3c79be0ddf61d425aec23ff022052a7fb931d9a75f80a45d92e7096822d300cdb85cc1ce0d54ccf7d7812d9f28e[ALL] 3044022038c70915d9be34fc910718de609b580caff79d00443c156097a038c6585147ef02206f0d112f35bbc01529fbae57d118031184375c09e55a24f7aba19032bc17a55c[ALL] 522102361b2c342d39c0dce950c0b81d1ebe56b7b401637074d15d848b588f0eb5cb482102907a54bed8ad74b3f35638c60114ca240a308cb986f3f2f306178869a8880b6152ae"}, "vout": 0, "txid": "25585fc47abd9b481f7a6ab8971911cebc3a36bdda41d9403e3542b2d8a3cb6c"}, {"sequence": 4294967295, "scriptSig": {"hex": "0047304402204e55208e5b34373c4aee9963ffdd3abbc3f6346c1defa56ba68f016f716743ac02203ff6eecc0d911669586da904701c9d5ecf72f73e70ffd4fe083481cfd1dacd6f01483045022100e3ae32fe279edc06f7eb8cac89d935092784b751657ba19621a8945eb0c6145302200bd9a308716e56627241558006c968764d54f158e5e7db392377b211de2c0a880147522102907a54bed8ad74b3f35638c60114ca240a308cb986f3f2f306178869a8880b612103979ff19ed3fb6b95bb5bffd45942bcacccca9120c5b4c366208d774e1b63e09252ae", "asm": "0 304402204e55208e5b34373c4aee9963ffdd3abbc3f6346c1defa56ba68f016f716743ac02203ff6eecc0d911669586da904701c9d5ecf72f73e70ffd4fe083481cfd1dacd6f[ALL] 3045022100e3ae32fe279edc06f7eb8cac89d935092784b751657ba19621a8945eb0c6145302200bd9a308716e56627241558006c968764d54f158e5e7db392377b211de2c0a88[ALL] 522102907a54bed8ad74b3f35638c60114ca240a308cb986f3f2f306178869a8880b612103979ff19ed3fb6b95bb5bffd45942bcacccca9120c5b4c366208d774e1b63e09252ae"}, "vout": 0, "txid": "e4d96a24dfa9e92b28312dda82c2e0775fdc39552bf834efed82cf00a5a41d8d"}, {"sequence": 4294967295, "scriptSig": {"hex": "00473044022045acc8c282935985887d894e5c922924c6faab1deb801236ae2e41416029824402204f3c91cd3ace136224030b5bdcb4a2e3285a9fe72d2a00e9e91f084fb3693622014730440220452cb7e5c75cd976584a51784709402fc073a11d8f4011a135e27f3015664de802203e7a9536a7091f0454d86b17dc23356a75f9dd68cf4d7ba0b2e20725398970bf0147522102907a54bed8ad74b3f35638c60114ca240a308cb986f3f2f306178869a8880b612103d689db650bfe0be0c246d5dbcd7406708c3d24ef03222f34f6491892196920da52ae", "asm": "0 3044022045acc8c282935985887d894e5c922924c6faab1deb801236ae2e41416029824402204f3c91cd3ace136224030b5bdcb4a2e3285a9fe72d2a00e9e91f084fb3693622[ALL] 30440220452cb7e5c75cd976584a51784709402fc073a11d8f4011a135e27f3015664de802203e7a9536a7091f0454d86b17dc23356a75f9dd68cf4d7ba0b2e20725398970bf[ALL] 522102907a54bed8ad74b3f35638c60114ca240a308cb986f3f2f306178869a8880b612103d689db650bfe0be0c246d5dbcd7406708c3d24ef03222f34f6491892196920da52ae"}, "vout": 0, "txid": "29636fd4ba8970be8aa6570ea877b0e4859c5d465553315674f5a730004e0212"}], "txid": "a65ed145086429251c72239dbaa069457ab6114298ca582c2511370b1b3c0421", "blocktime": 1537871767, "version": 1, "confirmations": 11495, "time": 1537871767, "locktime": 0, "vsize": 1628, "size": 1628}