{"hash": "a663285ef0460cba3d1bf1fd3c119b56321839630b414388e3c37f5722a555a3", "blockhash": "0000000000000000000baef3f32e3676a92c3b2e5da21b426e4f302fc371ce76", "vout": [{"scriptPubKey": {"reqSigs": 1, "hex": "76a91489ffac3b338b9d81d225867215226b30e563873a88ac", "addresses": ["1Dafrjjj2P3Tb9axwmwNk8AheuaRD1S83M"], "asm": "OP_DUP OP_HASH160 89ffac3b338b9d81d225867215226b30e563873a OP_EQUALVERIFY OP_CHECKSIG", "type": "pubkeyhash"}, "value": 0.00305984, "n": 0}, {"scriptPubKey": {"reqSigs": 1, "hex": "76a914b6363358942088db54e4f7a444e885431980515e88ac", "addresses": ["1HcSuqRDfrDQeWddSMBvGckKFpqfGrBdRJ"], "asm": "OP_DUP OP_HASH160 b6363358942088db54e4f7a444e885431980515e OP_EQUALVERIFY OP_CHECKSIG", "type": "pubkeyhash"}, "value": 0.00924014, "n": 1}], "hex": "0100000001d2caba4024913269a8e1dc0571236abd931af8ad523847b2fd2ef90477983536010000006b4830450221009bd9062fb2cedbc9079c859a71786304b313e940be5b2d540743e2398d4b3f6002203106a0597d9d6137e3ca973a86a020680c930717b0e0e8b0441ee4b75a269639012102c8e4652ef2a570d16d8ede3f86c7e9e2104159e9f917f5dabd0e3d53c0432a0effffffff0240ab0400000000001976a91489ffac3b338b9d81d225867215226b30e563873a88ac6e190e00000000001976a914b6363358942088db54e4f7a444e885431980515e88ac00000000", "vin": [{"sequence": 4294967295, "scriptSig": {"hex": "4830450221009bd9062fb2cedbc9079c859a71786304b313e940be5b2d540743e2398d4b3f6002203106a0597d9d6137e3ca973a86a020680c930717b0e0e8b0441ee4b75a269639012102c8e4652ef2a570d16d8ede3f86c7e9e2104159e9f917f5dabd0e3d53c0432a0e", "asm": "30450221009bd9062fb2cedbc9079c859a71786304b313e940be5b2d540743e2398d4b3f6002203106a0597d9d6137e3ca973a86a020680c930717b0e0e8b0441ee4b75a269639[ALL] 02c8e4652ef2a570d16d8ede3f86c7e9e2104159e9f917f5dabd0e3d53c0432a0e"}, "vout": 1, "txid": "3635987704f92efdb2473852adf81a93bd6a237105dce1a86932912440bacad2"}], "txid": "a663285ef0460cba3d1bf1fd3c119b56321839630b414388e3c37f5722a555a3", "blocktime": 1537876114, "version": 1, "confirmations": 11460, "time": 1537876114, "locktime": 0, "vsize": 226, "size": 226}