{"hash": "a66697d6823993080f5918f6a6994e1c16df00425885fffbe88f49bc6b6f216d", "blockhash": "00000000000000000004ffacab907a6b429b9a5745fa0b75af4234bf69dd7176", "vout": [{"scriptPubKey": {"reqSigs": 1, "hex": "76a914a6e5fe07275c9a20f731ed4c4808ef450548fd0588ac", "addresses": ["1GDUgzMEKa9gwEcnrpsUakCcAisqGPEgfM"], "asm": "OP_DUP OP_HASH160 a6e5fe07275c9a20f731ed4c4808ef450548fd05 OP_EQUALVERIFY OP_CHECKSIG", "type": "pubkeyhash"}, "value": 9.38415952, "n": 0}, {"scriptPubKey": {"reqSigs": 1, "hex": "76a914b9d64db3c1e682b00854979a0fdd63da1887bc1088ac", "addresses": ["1HwcjZPssPrPJmKY4vffksJBrGyvgXvRZM"], "asm": "OP_DUP OP_HASH160 b9d64db3c1e682b00854979a0fdd63da1887bc10 OP_EQUALVERIFY OP_CHECKSIG", "type": "pubkeyhash"}, "value": 0.01061336, "n": 1}], "hex": "010000000110e160ba6c4eeb3fad3f8045053487ee878a19197683228e3b7a251ccef5dbc9000000006a4730440220276bac331482e210760fbae26d95f9f96a8e7a05da9281d3e091a7976e0a904a022000cb6ea0bd140757b3b489dad63fa9bad2de472dbeff81c3fcc02619e79d543a0121033ad2324e7bfbe11704ba111137db6e40f9782a88ac3078683a6f59ea709ed174ffffffff025017ef37000000001976a914a6e5fe07275c9a20f731ed4c4808ef450548fd0588acd8311000000000001976a914b9d64db3c1e682b00854979a0fdd63da1887bc1088ac00000000", "vin": [{"sequence": 4294967295, "scriptSig": {"hex": "4730440220276bac331482e210760fbae26d95f9f96a8e7a05da9281d3e091a7976e0a904a022000cb6ea0bd140757b3b489dad63fa9bad2de472dbeff81c3fcc02619e79d543a0121033ad2324e7bfbe11704ba111137db6e40f9782a88ac3078683a6f59ea709ed174", "asm": "30440220276bac331482e210760fbae26d95f9f96a8e7a05da9281d3e091a7976e0a904a022000cb6ea0bd140757b3b489dad63fa9bad2de472dbeff81c3fcc02619e79d543a[ALL] 033ad2324e7bfbe11704ba111137db6e40f9782a88ac3078683a6f59ea709ed174"}, "vout": 0, "txid": "c9dbf5ce1c257a3b8e22837619198a87ee87340545803fad3feb4e6cba60e110"}], "txid": "a66697d6823993080f5918f6a6994e1c16df00425885fffbe88f49bc6b6f216d", "blocktime": 1537875543, "version": 1, "confirmations": 11464, "time": 1537875543, "locktime": 0, "vsize": 225, "size": 225}