{"hash": "a66725d2b8d3faffa986efb0104c9d178fb0c471e053e70d85c8dfb4a6f92640", "blockhash": "0000000000000000000e13cef7c366c0283d82e591d1acd082e914b08063cdf1", "vout": [{"scriptPubKey": {"reqSigs": 1, "hex": "76a9146fd406f9b5528e73ba7d20dbc6c55ce59aaa301388ac", "addresses": ["1BCJ1CsLNozZdfFQm96BhuCUa1vEGBJu9n"], "asm": "OP_DUP OP_HASH160 6fd406f9b5528e73ba7d20dbc6c55ce59aaa3013 OP_EQUALVERIFY OP_CHECKSIG", "type": "pubkeyhash"}, "value": 0.00880831, "n": 0}, {"scriptPubKey": {"reqSigs": 1, "hex": "76a91406b44117927096d04c3554ee5aab41214919d7b588ac", "addresses": ["1cSzSLtBma9y3fTph2B3gKfmVKRwXMscJ"], "asm": "OP_DUP OP_HASH160 06b44117927096d04c3554ee5aab41214919d7b5 OP_EQUALVERIFY OP_CHECKSIG", "type": "pubkeyhash"}, "value": 0.11781131, "n": 1}], "hex": "0100000001c885216c04a050c329ff6a5b905c9d52e4b131292c06aa23a275afb33a64d17e010000006b483045022100ed464f1c5a7de1d5d1bcbf83cba12b18b29cb5fd6b4c443c74725cf35df47c6602202fd794fe03ab9cdb6707cb57fba45a64200d2054b5c0df4ca6f2d61ae7a1240801210388aa817253e15824c6591a598979645a857d5f68669ce755619c19cf92ba5ac6ffffffff02bf700d00000000001976a9146fd406f9b5528e73ba7d20dbc6c55ce59aaa301388ac0bc4b300000000001976a91406b44117927096d04c3554ee5aab41214919d7b588ac00000000", "vin": [{"sequence": 4294967295, "scriptSig": {"hex": "483045022100ed464f1c5a7de1d5d1bcbf83cba12b18b29cb5fd6b4c443c74725cf35df47c6602202fd794fe03ab9cdb6707cb57fba45a64200d2054b5c0df4ca6f2d61ae7a1240801210388aa817253e15824c6591a598979645a857d5f68669ce755619c19cf92ba5ac6", "asm": "3045022100ed464f1c5a7de1d5d1bcbf83cba12b18b29cb5fd6b4c443c74725cf35df47c6602202fd794fe03ab9cdb6707cb57fba45a64200d2054b5c0df4ca6f2d61ae7a12408[ALL] 0388aa817253e15824c6591a598979645a857d5f68669ce755619c19cf92ba5ac6"}, "vout": 1, "txid": "7ed1643ab3af75a223aa062c2931b1e4529d5c905b6aff29c350a0046c2185c8"}], "txid": "a66725d2b8d3faffa986efb0104c9d178fb0c471e053e70d85c8dfb4a6f92640", "blocktime": 1537871767, "version": 1, "confirmations": 11491, "time": 1537871767, "locktime": 0, "vsize": 226, "size": 226}