{"hash": "a66fc38d22ea14a40a861257265427d3074d1ce9bf50337c42c6a2cad22032a5", "blockhash": "00000000000000000024a2167bbff67b0be802c0b01cdd79e6331c2be6459f87", "vout": [{"scriptPubKey": {"type": "nulldata", "hex": "6a4c500000777f0001697b62b91ca94ca97e027312bcbefa6b8351586b4e86aeaeacb577c031fc23f646fef7818aeb8a3635f57734f1825baa0a860613dabc4d245b7a1d100759d4ba30d2c37bb011d97e02cf", "asm": "OP_RETURN 0000777f0001697b62b91ca94ca97e027312bcbefa6b8351586b4e86aeaeacb577c031fc23f646fef7818aeb8a3635f57734f1825baa0a860613dabc4d245b7a1d100759d4ba30d2c37bb011d97e02cf"}, "value": 0.0, "n": 0}, {"scriptPubKey": {"reqSigs": 1, "hex": "76a91452c28c1b187167b4a60afbb5862a2d1fccefc36788ac", "addresses": ["18YbU7Y2VcfGJ7B2YGtXunnnfdjTm6c95u"], "asm": "OP_DUP OP_HASH160 52c28c1b187167b4a60afbb5862a2d1fccefc367 OP_EQUALVERIFY OP_CHECKSIG", "type": "pubkeyhash"}, "value": 0.00647999, "n": 1}], "hex": "010000000185e5c5ec331182aa85d25fcc36a97dc0fcd89a275137098b3ca43fec64e5fa9c000000006a47304402204f295a95adf43e7c9d6d14e186bb778a51ed311a2414b5bd11320408243f4b4202201b29df0290af06a9c632d24c2c272b9611a9b0a0b01e14792a28846bd899f2b901210363aa013ff125844182198a90c722352e193cbdcf808a954200eb49068dfaf5caffffffff020000000000000000536a4c500000777f0001697b62b91ca94ca97e027312bcbefa6b8351586b4e86aeaeacb577c031fc23f646fef7818aeb8a3635f57734f1825baa0a860613dabc4d245b7a1d100759d4ba30d2c37bb011d97e02cf3fe30900000000001976a91452c28c1b187167b4a60afbb5862a2d1fccefc36788ac00000000", "vin": [{"sequence": 4294967295, "scriptSig": {"hex": "47304402204f295a95adf43e7c9d6d14e186bb778a51ed311a2414b5bd11320408243f4b4202201b29df0290af06a9c632d24c2c272b9611a9b0a0b01e14792a28846bd899f2b901210363aa013ff125844182198a90c722352e193cbdcf808a954200eb49068dfaf5ca", "asm": "304402204f295a95adf43e7c9d6d14e186bb778a51ed311a2414b5bd11320408243f4b4202201b29df0290af06a9c632d24c2c272b9611a9b0a0b01e14792a28846bd899f2b9[ALL] 0363aa013ff125844182198a90c722352e193cbdcf808a954200eb49068dfaf5ca"}, "vout": 0, "txid": "9cfae564ec3fa43c8b093751279ad8fcc07da936cc5fd285aa821133ecc5e585"}], "txid": "a66fc38d22ea14a40a861257265427d3074d1ce9bf50337c42c6a2cad22032a5", "blocktime": 1537870564, "version": 1, "confirmations": 11515, "time": 1537870564, "locktime": 0, "vsize": 283, "size": 283}