{"hash": "02ec6fd23dc8620fa50e71fa114d2bfe2c0f20a68a467d40e92b4a2d9c45bbff", "blockhash": "0000000000000000000dcc0f55137456b1a82d3642486a52398922ac4d620174", "vout": [{"scriptPubKey": {"reqSigs": 1, "hex": "0014207d7201f9935d34f8774ae59963640c8b69f3c6", "addresses": ["bc1qyp7hyq0ejdwnf7rhftjejcmypj9knu7xmpgqtj"], "asm": "0 207d7201f9935d34f8774ae59963640c8b69f3c6", "type": "witness_v0_keyhash"}, "value": 0.00011979, "n": 0}, {"scriptPubKey": {"reqSigs": 1, "hex": "a9140be7846be16b05bea00dbec2fcd7e045a793cb1787", "addresses": ["32mxhko5mJHfkbkDPpz7SfdJwEJi21P1WK"], "asm": "OP_HASH160 0be7846be16b05bea00dbec2fcd7e045a793cb17 OP_EQUAL", "type": "scripthash"}, "value": 0.20284859, "n": 1}], "hex": "01000000000101742d120ab85fc1947a84ca096ffabc7b026b63857eb1a5eaf5d949b54293d0b201000000232200202c66ece6da72bcbfeadf83a91236f4891c13e14d8ecebdcaa81666fc1aa73a31ffffffff02cb2e000000000000160014207d7201f9935d34f8774ae59963640c8b69f3c6bb8535010000000017a9140be7846be16b05bea00dbec2fcd7e045a793cb1787040047304402202952d41bbfa13fd23beb280529921d380c9f625ca3656c39f471f05e31af43fc02207b6a11814e014b41a50c44ce81f4a1bfa49bad9d92a516c47d419b4d41e776d5014730440220642cb8a5578a5d86bffefbaad6d1f8bd08cc14b36b7b98eacec649f82d6b30940220321d920079b160bfd3722d856d31d530749a40d2ff5d3835fa2383b3da017e3f01475221029e6fbb942d34a473faaa5557c1bfe08d72102f0b9754ad140fd369d7a3ba3cdc2103871fc2ca08e6950b38867e8e6a0e94ee625223d3aa0df5c65f414c6d784467e252ae00000000", "vin": [{"txinwitness": ["", "304402202952d41bbfa13fd23beb280529921d380c9f625ca3656c39f471f05e31af43fc02207b6a11814e014b41a50c44ce81f4a1bfa49bad9d92a516c47d419b4d41e776d501", "30440220642cb8a5578a5d86bffefbaad6d1f8bd08cc14b36b7b98eacec649f82d6b30940220321d920079b160bfd3722d856d31d530749a40d2ff5d3835fa2383b3da017e3f01", "5221029e6fbb942d34a473faaa5557c1bfe08d72102f0b9754ad140fd369d7a3ba3cdc2103871fc2ca08e6950b38867e8e6a0e94ee625223d3aa0df5c65f414c6d784467e252ae"], "sequence": 4294967295, "scriptSig": {"hex": "2200202c66ece6da72bcbfeadf83a91236f4891c13e14d8ecebdcaa81666fc1aa73a31", "asm": "00202c66ece6da72bcbfeadf83a91236f4891c13e14d8ecebdcaa81666fc1aa73a31"}, "vout": 1, "txid": "b2d09342b549d9f5eaa5b17e85636b027bbcfa6f09ca847a94c15fb80a122d74"}], "txid": "a6718fd5815586b70ff1b72474888bf1ebac2744edd287c31c04bc34759f5800", "blocktime": 1537870268, "version": 1, "confirmations": 11518, "time": 1537870268, "locktime": 0, "vsize": 204, "size": 369}