{"hash": "c2a7db5720889f4502aa05582808451ce1d4900573d7c3f17ded8d7428d39e2f", "blockhash": "0000000000000000000dcc0f55137456b1a82d3642486a52398922ac4d620174", "vout": [{"scriptPubKey": {"reqSigs": 1, "hex": "76a9147db5832780a4f7c4ac71916b0ad3c5a4a9831f9e88ac", "addresses": ["1CTgugD4VzsKPbTCwVDAXhbuoVziAdmz7e"], "asm": "OP_DUP OP_HASH160 7db5832780a4f7c4ac71916b0ad3c5a4a9831f9e OP_EQUALVERIFY OP_CHECKSIG", "type": "pubkeyhash"}, "value": 0.0143337, "n": 0}, {"scriptPubKey": {"reqSigs": 1, "hex": "00146f06b0cf6677c2785077b80cfef6e8db5b5509f0", "addresses": ["bc1qdurtpnmxwlp8s5rhhqx0aahgmdd42z0sn39k9x"], "asm": "0 6f06b0cf6677c2785077b80cfef6e8db5b5509f0", "type": "witness_v0_keyhash"}, "value": 2.2563424, "n": 1}], "hex": "020000000001019827ef6f70ccb68c7e1c17bc6d24a9e4283162fce86471e431c9185dd3c1341c0000000000ffffffff021adf1500000000001976a9147db5832780a4f7c4ac71916b0ad3c5a4a9831f9e88acc0e7720d000000001600146f06b0cf6677c2785077b80cfef6e8db5b5509f002483045022100fe2664fbfffc2ffdca9d0573bc33491b4a8e22beb3319e79a2906b21122928be02204e9766b569fe2aa9b3ded4f46f56131c048f19696ee0a09972657199e8043f1b012103c3ba72cfd15af504db9addd8b252ec0d3bf3e3b7d31a54bf9be1de70e101236d00000000", "vin": [{"txinwitness": ["3045022100fe2664fbfffc2ffdca9d0573bc33491b4a8e22beb3319e79a2906b21122928be02204e9766b569fe2aa9b3ded4f46f56131c048f19696ee0a09972657199e8043f1b01", "03c3ba72cfd15af504db9addd8b252ec0d3bf3e3b7d31a54bf9be1de70e101236d"], "sequence": 4294967295, "scriptSig": {"hex": "", "asm": ""}, "vout": 0, "txid": "1c34c1d35d18c931e47164e8fc623128e4a9246dbc171c7e8cb6cc706fef2798"}], "txid": "a6713ea9820c180cc9878f1c35d566961bce6c099ba6ecc4cbccaa09b76ecc10", "blocktime": 1537870268, "version": 2, "confirmations": 11516, "time": 1537870268, "locktime": 0, "vsize": 144, "size": 226}