{"hash": "a6738c962bd816f459349d177420b485dcecef8fde6ac7b5b4b0f8f5871588b6", "blockhash": "00000000000000000004ffacab907a6b429b9a5745fa0b75af4234bf69dd7176", "vout": [{"scriptPubKey": {"reqSigs": 1, "hex": "a91468bc29a933e7a2233d8b97727be0cfb7765c50fd87", "addresses": ["3BEocGdjizJ2QCadT9NQRNDYpDscoxe4ZU"], "asm": "OP_HASH160 68bc29a933e7a2233d8b97727be0cfb7765c50fd OP_EQUAL", "type": "scripthash"}, "value": 0.009, "n": 0}, {"scriptPubKey": {"reqSigs": 1, "hex": "76a914131642c1e197ccd4865c5cee31c5ccb3f246167188ac", "addresses": ["12jvWMKFzAx34cbanrHo4eLwi6bY2xXSC7"], "asm": "OP_DUP OP_HASH160 131642c1e197ccd4865c5cee31c5ccb3f2461671 OP_EQUALVERIFY OP_CHECKSIG", "type": "pubkeyhash"}, "value": 0.00991211, "n": 1}], "hex": "0100000001cf2d9dfc2facbed658fbe4d02c8715b2e5b672498f8094d94f9e31172a45627c010000006a4730440220539bfee0a871b6a2147f98cf283768a374045fbe13c704f24be3c604f753b636022074c8938d2c98b5e39b5be313006e0da711b9d47c54219de81f9781fe3f71e84c0121033c6be84e20501dc773c577484f7de0bbb8ee1b0f05dc1231befcf709ba43001cffffffff02a0bb0d000000000017a91468bc29a933e7a2233d8b97727be0cfb7765c50fd87eb1f0f00000000001976a914131642c1e197ccd4865c5cee31c5ccb3f246167188ac00000000", "vin": [{"sequence": 4294967295, "scriptSig": {"hex": "4730440220539bfee0a871b6a2147f98cf283768a374045fbe13c704f24be3c604f753b636022074c8938d2c98b5e39b5be313006e0da711b9d47c54219de81f9781fe3f71e84c0121033c6be84e20501dc773c577484f7de0bbb8ee1b0f05dc1231befcf709ba43001c", "asm": "30440220539bfee0a871b6a2147f98cf283768a374045fbe13c704f24be3c604f753b636022074c8938d2c98b5e39b5be313006e0da711b9d47c54219de81f9781fe3f71e84c[ALL] 033c6be84e20501dc773c577484f7de0bbb8ee1b0f05dc1231befcf709ba43001c"}, "vout": 1, "txid": "7c62452a17319e4fd994808f4972b6e5b215872cd0e4fb58d6beac2ffc9d2dcf"}], "txid": "a6738c962bd816f459349d177420b485dcecef8fde6ac7b5b4b0f8f5871588b6", "blocktime": 1537875543, "version": 1, "confirmations": 11464, "time": 1537875543, "locktime": 0, "vsize": 223, "size": 223}