{"hash": "f97c6d780e140bf83e0918518b09527969bc82ac2bef9ac453a15bb81ed0098b", "blockhash": "0000000000000000000e13cef7c366c0283d82e591d1acd082e914b08063cdf1", "vout": [{"scriptPubKey": {"reqSigs": 1, "hex": "a9140ef05f2d221b910371249bfadfb8d0dba181039a87", "addresses": ["3341LZ4cvEZt92YnxsiJ58mtBW1tguVpSJ"], "asm": "OP_HASH160 0ef05f2d221b910371249bfadfb8d0dba181039a OP_EQUAL", "type": "scripthash"}, "value": 0.01071902, "n": 0}, {"scriptPubKey": {"reqSigs": 1, "hex": "a91431cfdadc2d1937b42e4be4c4cf0ba6a15bebb0bc87", "addresses": ["36EQ2xSKUsDPFSCmoHbHufDUZKRHuDWwkZ"], "asm": "OP_HASH160 31cfdadc2d1937b42e4be4c4cf0ba6a15bebb0bc OP_EQUAL", "type": "scripthash"}, "value": 0.0020356, "n": 1}], "hex": "0200000000010220713e508235e7b8c1f9a3e6639dc6b755dc7e6736d76fcf569554293ce2da660000000017160014c547ee6c10aa7a4debcb0da367e5b99725b5ae6dfeffffff6f5975d2b57acba555f761fce05855261c58e481504b6447c102fc24ad6559a203000000171600149c6492391d2dc3d0f4316a665a1037c1520da48cfeffffff021e5b10000000000017a9140ef05f2d221b910371249bfadfb8d0dba181039a87281b03000000000017a91431cfdadc2d1937b42e4be4c4cf0ba6a15bebb0bc8702473044022033cdd53ab28092b0a6ad091c0ed0bf9a9dc505f2d152936ee89837a63f984e79022001087aed43359215892ead0e3a44c981c51478c6a1746d19a23d5314522525d70121039f960129cf414242f41075c70e7818474b2dcb92ff1d839bf6757260cf17b6b50248304502210082a6d18f157efaa8d1bd9001cbc905851a67acb38daba896ff6b78a079a384db022053ca430fda10afcd795c3fa9b5f529130d5da11dfeb83ce72918595942dbf076012103cce75de26cfb07ce55b577106ec18c8f36e68e8421d64235e8328e2b880b678110490800", "vin": [{"txinwitness": ["3044022033cdd53ab28092b0a6ad091c0ed0bf9a9dc505f2d152936ee89837a63f984e79022001087aed43359215892ead0e3a44c981c51478c6a1746d19a23d5314522525d701", "039f960129cf414242f41075c70e7818474b2dcb92ff1d839bf6757260cf17b6b5"], "sequence": 4294967294, "scriptSig": {"hex": "160014c547ee6c10aa7a4debcb0da367e5b99725b5ae6d", "asm": "0014c547ee6c10aa7a4debcb0da367e5b99725b5ae6d"}, "vout": 0, "txid": "66dae23c29549556cf6fd736677edc55b7c69d63e6a3f9c1b8e73582503e7120"}, {"txinwitness": ["304502210082a6d18f157efaa8d1bd9001cbc905851a67acb38daba896ff6b78a079a384db022053ca430fda10afcd795c3fa9b5f529130d5da11dfeb83ce72918595942dbf07601", "03cce75de26cfb07ce55b577106ec18c8f36e68e8421d64235e8328e2b880b6781"], "sequence": 4294967294, "scriptSig": {"hex": "1600149c6492391d2dc3d0f4316a665a1037c1520da48c", "asm": "00149c6492391d2dc3d0f4316a665a1037c1520da48c"}, "vout": 3, "txid": "a25965ad24fc02c147644b5081e4581c265558e0fc61f755a5cb7ab5d275596f"}], "txid": "a67d6a93df39078a85bd4a50e901d201aa1caa9801d72057bf325b26e59af649", "blocktime": 1537871767, "version": 2, "confirmations": 11495, "time": 1537871767, "locktime": 542992, "vsize": 257, "size": 419}