{"hash": "be88e91881dd2fd5cfefb660643da3191dca7267496969e8cdb00218da258977", "blockhash": "00000000000000000017f5eb5941039fbcee6240d03bc1f2f8e35350df66a1d8", "vout": [{"scriptPubKey": {"reqSigs": 1, "hex": "a914ec5354738da8a941ac3cced67f5ff3a8e93abd4287", "addresses": ["3PEbDgGbuskc7cTV1bJDdKUBk33uS2AdCp"], "asm": "OP_HASH160 ec5354738da8a941ac3cced67f5ff3a8e93abd42 OP_EQUAL", "type": "scripthash"}, "value": 0.03238081, "n": 0}, {"scriptPubKey": {"reqSigs": 1, "hex": "76a914671509fe1abd63fd8e5dd23e0080e01c5c98bcda88ac", "addresses": ["1AQ3oaRPAbff2cYPYQ6bdAWixrRGV2UzbV"], "asm": "OP_DUP OP_HASH160 671509fe1abd63fd8e5dd23e0080e01c5c98bcda OP_EQUALVERIFY OP_CHECKSIG", "type": "pubkeyhash"}, "value": 0.0660199, "n": 1}], "hex": "02000000000101b6d96c59a1b34080e9955fea340a5255e1b6450454222beb21cd4ceffbd27ca10000000017160014826c18934ad4d3d8cde3e5b165620d81e5d80694feffffff02c16831000000000017a914ec5354738da8a941ac3cced67f5ff3a8e93abd428706bd6400000000001976a914671509fe1abd63fd8e5dd23e0080e01c5c98bcda88ac02483045022100924d8fcc5f0250aa758a5a27956841c906a471da5b718e30104c37dadd218758022012c9f03fa4280489ec30db242fc57da5a715002d9ff9a390ae136f43bad456090121035e747db8b818853251861e515b257cf7abf88f88df44658f2ed2cb2d97ad00bc15490800", "vin": [{"txinwitness": ["3045022100924d8fcc5f0250aa758a5a27956841c906a471da5b718e30104c37dadd218758022012c9f03fa4280489ec30db242fc57da5a715002d9ff9a390ae136f43bad4560901", "035e747db8b818853251861e515b257cf7abf88f88df44658f2ed2cb2d97ad00bc"], "sequence": 4294967294, "scriptSig": {"hex": "160014826c18934ad4d3d8cde3e5b165620d81e5d80694", "asm": "0014826c18934ad4d3d8cde3e5b165620d81e5d80694"}, "vout": 0, "txid": "a17cd2fbef4ccd21eb2b22540445b6e155520a34ea5f95e98040b3a1596cd9b6"}], "txid": "a67e1d2005f60f6990f81098186a1c73c3fc1c79838dfd9ddc2af13af9206dcf", "blocktime": 1537874412, "version": 2, "confirmations": 11466, "time": 1537874412, "locktime": 542997, "vsize": 168, "size": 250}