{"hash": "09ca56b055f407e4cdf414c9ceed2138fc56cbda9a4ab176618767e910102794", "blockhash": "0000000000000000001cda96e906b7601b7a6fb1a3b62bca570a9e5d8f4b3de1", "vout": [{"scriptPubKey": {"reqSigs": 1, "hex": "a914895c53afa2b0885cace23f706d2f8be9d0a1b37987", "addresses": ["3EDK6ovnMx38oQz37ErDGMDEAh3RNsJ4h7"], "asm": "OP_HASH160 895c53afa2b0885cace23f706d2f8be9d0a1b379 OP_EQUAL", "type": "scripthash"}, "value": 0.0100004, "n": 0}, {"scriptPubKey": {"reqSigs": 1, "hex": "76a914bca2c263da1c295eda1f197fa8165212948910e488ac", "addresses": ["1JCR1nJSmpBiRrb8oTkxhevp7MHb4y41jN"], "asm": "OP_DUP OP_HASH160 bca2c263da1c295eda1f197fa8165212948910e4 OP_EQUALVERIFY OP_CHECKSIG", "type": "pubkeyhash"}, "value": 0.03667914, "n": 1}], "hex": "0200000000010b0481417e1fa23c29b876085435c103d69f77c94bb369ee43c2b8076c3c49bbdc0000000017160014b0654d0abca686ad7b2d868434bf13b6bd55e041feffffff120feced313fb6512ce0c44a6c007d2c3fea2890e2bb63361f20ea543ebda1530100000017160014632564ef799e2b5132ddf7fa3c819361e79a60a7feffffff6f5320780d134032fb9d5ea5d6d740dbd20e96c456d5bbf50dcb6341262460040000000017160014f96a724f78af2359c08751ada9df45cace7f9194feffffffa3bd487b4a6384d0069130f9e385c0cd6937c0572310bfb6e35ee937e33880b30000000017160014e020f472ba447320069e9e8814b394df93b8fdebfeffffffc2f4179085aca05c10fe0c02a8b0a5e59177af0738d88ca108461a9bb653678a00000000171600147a9413be10145b486f2633c12628ee4feaf52110feffffffcc7056272f0f327aacb98561e0fd2740acef1ee3e86a902299ca9516a4ab4936000000001716001461ecc0024d2d2d3ddf3d07984935c9e31803fb19feffffffd54d4ba4c75141edd8ac99a71fa55929e533c0f01acb77ec4bcb1b5e8ca35b6f0000000017160014449c20f078ff6581db9c9d36e13ce3ebd3b973cafeffffffeb3b4515108fdcd61738d73743c96cf40329d38100082a71f016efda36f45b2d0000000017160014c0e52b613b4a13e870f69931e0c73ab3a1510c68fefffffff0e633bc55798de6aa77ee7d32dfca1fd5071647318e58b9cd114d0ba31001cb0000000017160014e888d7cd66c0e90e87b31ff680d065f8ffb5ef23fefffffff7eb1d5bdc4f84be0789852b8670c36b8b2e94853ca31076d4f97e5d467a36a00000000017160014aa1379d9c92d6099cff8470ec086c6df85ca6733fefffffff981206c48b0fe827afed57f7fbf9eceea07211fc474ec3a7744a870b4f83c960000000017160014e9ac4a9b20e9557eaa6364d263409c92c2e71481feffffff0268420f000000000017a914895c53afa2b0885cace23f706d2f8be9d0a1b37987caf73700000000001976a914bca2c263da1c295eda1f197fa8165212948910e488ac024830450221009e78db54df8453281415f330a223d2fd72ab7869d8ebebb713194c6bf0162f5902200eab20a542d7acf42d8ba906d6d82da59d60f53064693481a6433db36f0da6c90121023e882cd1422f4e5ba8d80fa6bd10d5274b883c4a79b64e67f1643c75f4db9cd502483045022100e19a15821df2df185e1367a8a1f1046b35058f8f2f5d5473188a5cd3cd1ada28022031316cb2819a2239c3c03eb332a48873346ba7c6120f654ebbcff69e303f19e4012102f63989b0cc95a34f08bc7e5724f579d5bec2f79dc7b2003a6c6d40419622b8c20247304402205ee4e12c52c122df90eccc42c7a60b271546ce4bfb11e0da6fa736e6a9fe1d3802203ff9bb97a0d78f62978335ad9ab2f3c9eb79294c49972d826083380b56974a0b012102560e36c1c178c14884106e7381e6c746bd3b7def3f7dfad11aaf0e8837f0bf66024730440220105cfd6e250797ab3980ece4e8ff2cd239efc35b093b30d06415f2b8418bef0702204549697d9fdb2fc8107bac8f51212a630493bdcf7cd2687818caadbf145809430121038ec50fbb1dcbb59ff843da8f828fd2b946e10fb64b408982e2a4d2f41b33bd9f024730440220795d5354d74bb7293b1895472f215934674d7f9fa0c0f303354355edf0f8ff24022011d2f0262acb03b39763310c7817b0b5e2b49d46a6e92003e915fd4fb7551779012103c2590852bd968b0f691e243ae78fd54f53e99fafcaef454f1a551cb8bb081b1602473044022013962efb881c726f3756d77c303456eb6cba8cbc1480c0761fa0c86126599ed302202ecd181e4f810dd424d1d1daaa388d5ac988b5570f641509515833592314bddb0121036cc58cb7e02337857fead87986cc785cb5f7d0c5300c7ecc61ecd692b81cef1502483045022100a705160ff7c489db998497dc567b77dbbaf1fef6133da5fa7db3fbb4b1232ac9022058136b2fe9c0a72e43edd453bdfe16c6f1be02e2c58853d5c1700b28ccfa6a0a0121028f8ba789e4c4863c585f555b2c1df01c9b56cb4b7a031c5ae23212f5dbcd87a402483045022100ba3d6b688d5d1a299825ed3e3a909134486dcc1938ce0ec5b6efdad857ecafca02202c15a77afd049d7742dac6c50fbbd16355f21cb78491c535ab7f121e9bf29c8001210218c09fa6d5183e94bc65ab54efa1bc0315f0a7fad487fede460212c6b3d065e00247304402200bc53519e3e4bc38b015dd80eb892fa4b95d75d297adb769b6ed7f6b39f7cd2d02204653a513fb6d2ef046c4340cd4d7006ff929acf2ad37bd9be71da11eaf9f3760012103b012b0f2f3eb73b75e8aef3447b9dd634d27631c88340ca09cdc5996828a0352024730440220697c8fc9084ec1fe6f9fbc9a41277203fc3b6432045bef5cc512aa9d3e3de2ae022038b369c74b978c157f45a09c784a191c4afcd10d91525e1b93373782a5cbd2480121031f264cd682f05cd7bb5bb7fe1ff8437fac6e335e662913eded8ec1b63e662cfd024730440220407a4ddf99d4fe089444714c301f308838092521907b5349f632c8507598757402207379cbc086ce5ca10b673c1f6b19c993cbf4bf5e716888f770b18b254f6242cf012102bfdb88896112ec27b9b3867dc36edd7236368ea4961acbad4b93154605e6798d13490800", "vin": [{"txinwitness": ["30450221009e78db54df8453281415f330a223d2fd72ab7869d8ebebb713194c6bf0162f5902200eab20a542d7acf42d8ba906d6d82da59d60f53064693481a6433db36f0da6c901", "023e882cd1422f4e5ba8d80fa6bd10d5274b883c4a79b64e67f1643c75f4db9cd5"], "sequence": 4294967294, "scriptSig": {"hex": "160014b0654d0abca686ad7b2d868434bf13b6bd55e041", "asm": "0014b0654d0abca686ad7b2d868434bf13b6bd55e041"}, "vout": 0, "txid": "dcbb493c6c07b8c243ee69b34bc9779fd603c135540876b8293ca21f7e418104"}, {"txinwitness": ["3045022100e19a15821df2df185e1367a8a1f1046b35058f8f2f5d5473188a5cd3cd1ada28022031316cb2819a2239c3c03eb332a48873346ba7c6120f654ebbcff69e303f19e401", "02f63989b0cc95a34f08bc7e5724f579d5bec2f79dc7b2003a6c6d40419622b8c2"], "sequence": 4294967294, "scriptSig": {"hex": "160014632564ef799e2b5132ddf7fa3c819361e79a60a7", "asm": "0014632564ef799e2b5132ddf7fa3c819361e79a60a7"}, "vout": 1, "txid": "53a1bd3e54ea201f3663bbe29028ea3f2c7d006c4ac4e02c51b63f31edec0f12"}, {"txinwitness": ["304402205ee4e12c52c122df90eccc42c7a60b271546ce4bfb11e0da6fa736e6a9fe1d3802203ff9bb97a0d78f62978335ad9ab2f3c9eb79294c49972d826083380b56974a0b01", "02560e36c1c178c14884106e7381e6c746bd3b7def3f7dfad11aaf0e8837f0bf66"], "sequence": 4294967294, "scriptSig": {"hex": "160014f96a724f78af2359c08751ada9df45cace7f9194", "asm": "0014f96a724f78af2359c08751ada9df45cace7f9194"}, "vout": 0, "txid": "046024264163cb0df5bbd556c4960ed2db40d7d6a55e9dfb3240130d7820536f"}, {"txinwitness": ["30440220105cfd6e250797ab3980ece4e8ff2cd239efc35b093b30d06415f2b8418bef0702204549697d9fdb2fc8107bac8f51212a630493bdcf7cd2687818caadbf1458094301", "038ec50fbb1dcbb59ff843da8f828fd2b946e10fb64b408982e2a4d2f41b33bd9f"], "sequence": 4294967294, "scriptSig": {"hex": "160014e020f472ba447320069e9e8814b394df93b8fdeb", "asm": "0014e020f472ba447320069e9e8814b394df93b8fdeb"}, "vout": 0, "txid": "b38038e337e95ee3b6bf102357c03769cdc085e3f9309106d084634a7b48bda3"}, {"txinwitness": ["30440220795d5354d74bb7293b1895472f215934674d7f9fa0c0f303354355edf0f8ff24022011d2f0262acb03b39763310c7817b0b5e2b49d46a6e92003e915fd4fb755177901", "03c2590852bd968b0f691e243ae78fd54f53e99fafcaef454f1a551cb8bb081b16"], "sequence": 4294967294, "scriptSig": {"hex": "1600147a9413be10145b486f2633c12628ee4feaf52110", "asm": "00147a9413be10145b486f2633c12628ee4feaf52110"}, "vout": 0, "txid": "8a6753b69b1a4608a18cd83807af7791e5a5b0a8020cfe105ca0ac859017f4c2"}, {"txinwitness": ["3044022013962efb881c726f3756d77c303456eb6cba8cbc1480c0761fa0c86126599ed302202ecd181e4f810dd424d1d1daaa388d5ac988b5570f641509515833592314bddb01", "036cc58cb7e02337857fead87986cc785cb5f7d0c5300c7ecc61ecd692b81cef15"], "sequence": 4294967294, "scriptSig": {"hex": "16001461ecc0024d2d2d3ddf3d07984935c9e31803fb19", "asm": "001461ecc0024d2d2d3ddf3d07984935c9e31803fb19"}, "vout": 0, "txid": "3649aba41695ca9922906ae8e31eefac4027fde06185b9ac7a320f2f275670cc"}, {"txinwitness": ["3045022100a705160ff7c489db998497dc567b77dbbaf1fef6133da5fa7db3fbb4b1232ac9022058136b2fe9c0a72e43edd453bdfe16c6f1be02e2c58853d5c1700b28ccfa6a0a01", "028f8ba789e4c4863c585f555b2c1df01c9b56cb4b7a031c5ae23212f5dbcd87a4"], "sequence": 4294967294, "scriptSig": {"hex": "160014449c20f078ff6581db9c9d36e13ce3ebd3b973ca", "asm": "0014449c20f078ff6581db9c9d36e13ce3ebd3b973ca"}, "vout": 0, "txid": "6f5ba38c5e1bcb4bec77cb1af0c033e52959a51fa799acd8ed4151c7a44b4dd5"}, {"txinwitness": ["3045022100ba3d6b688d5d1a299825ed3e3a909134486dcc1938ce0ec5b6efdad857ecafca02202c15a77afd049d7742dac6c50fbbd16355f21cb78491c535ab7f121e9bf29c8001", "0218c09fa6d5183e94bc65ab54efa1bc0315f0a7fad487fede460212c6b3d065e0"], "sequence": 4294967294, "scriptSig": {"hex": "160014c0e52b613b4a13e870f69931e0c73ab3a1510c68", "asm": "0014c0e52b613b4a13e870f69931e0c73ab3a1510c68"}, "vout": 0, "txid": "2d5bf436daef16f0712a080081d32903f46cc94337d73817d6dc8f1015453beb"}, {"txinwitness": ["304402200bc53519e3e4bc38b015dd80eb892fa4b95d75d297adb769b6ed7f6b39f7cd2d02204653a513fb6d2ef046c4340cd4d7006ff929acf2ad37bd9be71da11eaf9f376001", "03b012b0f2f3eb73b75e8aef3447b9dd634d27631c88340ca09cdc5996828a0352"], "sequence": 4294967294, "scriptSig": {"hex": "160014e888d7cd66c0e90e87b31ff680d065f8ffb5ef23", "asm": "0014e888d7cd66c0e90e87b31ff680d065f8ffb5ef23"}, "vout": 0, "txid": "cb0110a30b4d11cdb9588e31471607d51fcadf327dee77aae68d7955bc33e6f0"}, {"txinwitness": ["30440220697c8fc9084ec1fe6f9fbc9a41277203fc3b6432045bef5cc512aa9d3e3de2ae022038b369c74b978c157f45a09c784a191c4afcd10d91525e1b93373782a5cbd24801", "031f264cd682f05cd7bb5bb7fe1ff8437fac6e335e662913eded8ec1b63e662cfd"], "sequence": 4294967294, "scriptSig": {"hex": "160014aa1379d9c92d6099cff8470ec086c6df85ca6733", "asm": "0014aa1379d9c92d6099cff8470ec086c6df85ca6733"}, "vout": 0, "txid": "a0367a465d7ef9d47610a33c85942e8b6bc370862b858907be844fdc5b1debf7"}, {"txinwitness": ["30440220407a4ddf99d4fe089444714c301f308838092521907b5349f632c8507598757402207379cbc086ce5ca10b673c1f6b19c993cbf4bf5e716888f770b18b254f6242cf01", "02bfdb88896112ec27b9b3867dc36edd7236368ea4961acbad4b93154605e6798d"], "sequence": 4294967294, "scriptSig": {"hex": "160014e9ac4a9b20e9557eaa6364d263409c92c2e71481", "asm": "0014e9ac4a9b20e9557eaa6364d263409c92c2e71481"}, "vout": 0, "txid": "963cf8b470a844773aec74c41f2107eace9ebf7f7fd5fe7a82feb0486c2081f9"}], "txid": "a68024b97a83e9256f0ebc1ad350b5a0e3c0bb179d1e1e20e86c164e53eeb23e", "blocktime": 1537873282, "version": 2, "confirmations": 11485, "time": 1537873282, "locktime": 542995, "vsize": 1076, "size": 1963}