{"hash": "a6888c22b7705029463e439d08b22a3841bd065e18439da0b59c15d1eba2eb06", "blockhash": "00000000000000000004ffacab907a6b429b9a5745fa0b75af4234bf69dd7176", "vout": [{"scriptPubKey": {"reqSigs": 1, "hex": "76a914b93050fd76e5bfcaccd18989f79095b75908a6b288ac", "addresses": ["1HtBtZz74NRVbxffNTs4qzvUxSKBGXJa3L"], "asm": "OP_DUP OP_HASH160 b93050fd76e5bfcaccd18989f79095b75908a6b2 OP_EQUALVERIFY OP_CHECKSIG", "type": "pubkeyhash"}, "value": 0.24997966, "n": 0}, {"scriptPubKey": {"reqSigs": 1, "hex": "a914c418b57aa10800b1cc4be6ca01a1a1a94a47ed2587", "addresses": ["3KZsxwtUjjUk2KuuLcFEjWfpNtaszyUmmP"], "asm": "OP_HASH160 c418b57aa10800b1cc4be6ca01a1a1a94a47ed25 OP_EQUAL", "type": "scripthash"}, "value": 0.75, "n": 1}], "hex": "010000000151363f799c267395623fdecdf768913525a1fed3f9da965eceb3a9d0e75489e7090000006b483045022100cf9462b7f0876dc1ecfd62417ea538a9365797b730f0a3841281ddbf92a42858022026373c392772f5f7ef518e83dc20085411559fdda15b28cb3f9236cb977279c70121021273ea644735866f6a7c34b61fcd233bdd08a815b8ab838fdacfcee95ea9bc29ffffffff024e707d01000000001976a914b93050fd76e5bfcaccd18989f79095b75908a6b288acc06878040000000017a914c418b57aa10800b1cc4be6ca01a1a1a94a47ed258700000000", "vin": [{"sequence": 4294967295, "scriptSig": {"hex": "483045022100cf9462b7f0876dc1ecfd62417ea538a9365797b730f0a3841281ddbf92a42858022026373c392772f5f7ef518e83dc20085411559fdda15b28cb3f9236cb977279c70121021273ea644735866f6a7c34b61fcd233bdd08a815b8ab838fdacfcee95ea9bc29", "asm": "3045022100cf9462b7f0876dc1ecfd62417ea538a9365797b730f0a3841281ddbf92a42858022026373c392772f5f7ef518e83dc20085411559fdda15b28cb3f9236cb977279c7[ALL] 021273ea644735866f6a7c34b61fcd233bdd08a815b8ab838fdacfcee95ea9bc29"}, "vout": 9, "txid": "e78954e7d0a9b3ce5e96daf9d3fea125359168f7cdde3f629573269c793f3651"}], "txid": "a6888c22b7705029463e439d08b22a3841bd065e18439da0b59c15d1eba2eb06", "blocktime": 1537875543, "version": 1, "confirmations": 11464, "time": 1537875543, "locktime": 0, "vsize": 224, "size": 224}