{"hash": "a6899f994aead8c87b6ba2aa7d85f95af88d0f7c285fd7ed83b26565a279f62b", "blockhash": "0000000000000000001e0dab787dd257d1dbfcb92a98c2207d5e1078be1f4165", "vout": [{"scriptPubKey": {"reqSigs": 1, "hex": "76a914a4d8a12a7ea9a5cc6cced3e5e9caf248fce5aefd88ac", "addresses": ["1G2dL9SXtangaEgH3RzjkoHcsBagPrBXtZ"], "asm": "OP_DUP OP_HASH160 a4d8a12a7ea9a5cc6cced3e5e9caf248fce5aefd OP_EQUALVERIFY OP_CHECKSIG", "type": "pubkeyhash"}, "value": 1.546e-05, "n": 0}, {"scriptPubKey": {"reqSigs": 1, "hex": "76a914a7d5f193b6411429de9c653e32844733c133bb9688ac", "addresses": ["1GJS96uRQbbLJDr4moudVWkKwpskJjuBJY"], "asm": "OP_DUP OP_HASH160 a7d5f193b6411429de9c653e32844733c133bb96 OP_EQUALVERIFY OP_CHECKSIG", "type": "pubkeyhash"}, "value": 0.79880623, "n": 1}], "hex": "0100000002eb3965e9ab9e62cae88a7dbf7499e0a4e43b6d5bd9b97c83da3f79a2021b620b000000006b483045022100f2c3abf1b6e6c7269bed9c672f09add580cf7918b77a5a7c3ce170322157faa802206bacdfb758b6ead6218bda1a94c5815a94d4a3634977d1c2e5edddfc5ca40a0d012103d7809bb185b8c6d292da051a160da79a1a6659b389783031ddbd79eeb065f920ffffffffd63c0ec51876641259ca9238effe89f1bc783f343f402f61b6938f9ac29802c9000000006b4830450221009ff23035c0c46477878448c5c46505ddbd36894f608e18f7e7c2c2749c402c33022054fea69996fcf87b12db0f95e02184bd6cbefba097e08b2bcaf689d32c642974012103e475e57dca841984484a079d9185d1022fefcb9789467158da79af7868b59bf5ffffffff020a060000000000001976a914a4d8a12a7ea9a5cc6cced3e5e9caf248fce5aefd88acafe1c204000000001976a914a7d5f193b6411429de9c653e32844733c133bb9688ac00000000", "vin": [{"sequence": 4294967295, "scriptSig": {"hex": "483045022100f2c3abf1b6e6c7269bed9c672f09add580cf7918b77a5a7c3ce170322157faa802206bacdfb758b6ead6218bda1a94c5815a94d4a3634977d1c2e5edddfc5ca40a0d012103d7809bb185b8c6d292da051a160da79a1a6659b389783031ddbd79eeb065f920", "asm": "3045022100f2c3abf1b6e6c7269bed9c672f09add580cf7918b77a5a7c3ce170322157faa802206bacdfb758b6ead6218bda1a94c5815a94d4a3634977d1c2e5edddfc5ca40a0d[ALL] 03d7809bb185b8c6d292da051a160da79a1a6659b389783031ddbd79eeb065f920"}, "vout": 0, "txid": "0b621b02a2793fda837cb9d95b6d3be4a4e09974bf7d8ae8ca629eabe96539eb"}, {"sequence": 4294967295, "scriptSig": {"hex": "4830450221009ff23035c0c46477878448c5c46505ddbd36894f608e18f7e7c2c2749c402c33022054fea69996fcf87b12db0f95e02184bd6cbefba097e08b2bcaf689d32c642974012103e475e57dca841984484a079d9185d1022fefcb9789467158da79af7868b59bf5", "asm": "30450221009ff23035c0c46477878448c5c46505ddbd36894f608e18f7e7c2c2749c402c33022054fea69996fcf87b12db0f95e02184bd6cbefba097e08b2bcaf689d32c642974[ALL] 03e475e57dca841984484a079d9185d1022fefcb9789467158da79af7868b59bf5"}, "vout": 0, "txid": "c90298c29a8f93b6612f403f343f78bcf189feef3892ca5912647618c50e3cd6"}], "txid": "a6899f994aead8c87b6ba2aa7d85f95af88d0f7c285fd7ed83b26565a279f62b", "blocktime": 1537872475, "version": 1, "confirmations": 11486, "time": 1537872475, "locktime": 0, "vsize": 374, "size": 374}