{"hash": "c27617948e0297694a56edc0056663abd6aa87c297349efb418991e18cb4da80", "blockhash": "00000000000000000018f53835495a110e01622372bf6ae95dc86f2b0ab887b0", "vout": [{"scriptPubKey": {"reqSigs": 1, "hex": "0020ab65ae949b88a2a5d5ee2bfabd46e2bf8c03f4fdc5fdfb95276b67d0e0de6faa", "addresses": ["bc1q4dj6a9ym3z32t40w90at63hzh7xq8a8ach7lh9f8ddnapcx7d74qkuph0c"], "asm": "0 ab65ae949b88a2a5d5ee2bfabd46e2bf8c03f4fdc5fdfb95276b67d0e0de6faa", "type": "witness_v0_scripthash"}, "value": 0.00022641, "n": 0}, {"scriptPubKey": {"reqSigs": 1, "hex": "00142a0eabc27e58e0ee2c8d081ddc1ca0e5e016cbee", "addresses": ["bc1q9g82hsn7trswutydpqwac89quhspdjlw53acgz"], "asm": "0 2a0eabc27e58e0ee2c8d081ddc1ca0e5e016cbee", "type": "witness_v0_keyhash"}, "value": 5.531e-05, "n": 1}], "hex": "0200000000010269836b56300f81cd04a5e9b3d8e5184eb41211b0227ee6664c20db8e910a7eed00000000171600140d5291c6a22086f2a6886ba27ce7462d879d8458feffffffa59a320ff3a7f5f3da18c1bca20488044bdc87ae6cbc6ee4b0d274102aed1c1a0000000000feffffff027158000000000000220020ab65ae949b88a2a5d5ee2bfabd46e2bf8c03f4fdc5fdfb95276b67d0e0de6faa9b150000000000001600142a0eabc27e58e0ee2c8d081ddc1ca0e5e016cbee0247304402203345e153933b3e6b4777c0c13cc7634d60e099f6cd3a64a889a54fd9f14e57f6022074ad28436fb978fa4bb0f058394725ab6b3c8579474fc18196b4fdd0e5c2b5030121039c0abba5274d236d2bd042d116ee3bd40963bfa540a0f0cb2f5027862f0919cf0247304402201702a94611fffee97fa38ebed8b79f6d7d960c2f91026d098eed2f33cd69a5e102207f8f0c6f78e09dedda0849edb8980ae486d37a165a54067a337dcdf021b2082b0121027dc9bfffd8c01fc8d0ef298432899741c7a1145d3ec06d630888d316b486fbff00000000", "vin": [{"txinwitness": ["304402203345e153933b3e6b4777c0c13cc7634d60e099f6cd3a64a889a54fd9f14e57f6022074ad28436fb978fa4bb0f058394725ab6b3c8579474fc18196b4fdd0e5c2b50301", "039c0abba5274d236d2bd042d116ee3bd40963bfa540a0f0cb2f5027862f0919cf"], "sequence": 4294967294, "scriptSig": {"hex": "1600140d5291c6a22086f2a6886ba27ce7462d879d8458", "asm": "00140d5291c6a22086f2a6886ba27ce7462d879d8458"}, "vout": 0, "txid": "ed7e0a918edb204c66e67e22b01112b44e18e5d8b3e9a504cd810f30566b8369"}, {"txinwitness": ["304402201702a94611fffee97fa38ebed8b79f6d7d960c2f91026d098eed2f33cd69a5e102207f8f0c6f78e09dedda0849edb8980ae486d37a165a54067a337dcdf021b2082b01", "027dc9bfffd8c01fc8d0ef298432899741c7a1145d3ec06d630888d316b486fbff"], "sequence": 4294967294, "scriptSig": {"hex": "", "asm": ""}, "vout": 0, "txid": "1a1ced2a1074d2b0e46ebc6cae87dc4b048804a2bcc118daf3f5a7f30f329aa5"}], "txid": "a68a3c55557d30ddd64312ffecf3355f2c987394e24032e272b56fbaf47b98ee", "blocktime": 1537870928, "version": 2, "confirmations": 11514, "time": 1537870928, "locktime": 0, "vsize": 243, "size": 405}