{"hash": "39623e028f899eee461e128952fa309ed58e05d8797888c0a5d3bf33dd377330", "blockhash": "0000000000000000000baef3f32e3676a92c3b2e5da21b426e4f302fc371ce76", "vout": [{"scriptPubKey": {"reqSigs": 1, "hex": "a9149583730034227bf139b2920024cce5fe9b8a59f687", "addresses": ["3FKa5Nuety37Dvu3rh9xTVNB356eL5YWgd"], "asm": "OP_HASH160 9583730034227bf139b2920024cce5fe9b8a59f6 OP_EQUAL", "type": "scripthash"}, "value": 0.04611523, "n": 0}, {"scriptPubKey": {"reqSigs": 1, "hex": "a914172ef9b37032387904b746ac0d8b321543c2474a87", "addresses": ["33objs2xQ5pibmepQ1Ky6cVBUFKHNeABqM"], "asm": "OP_HASH160 172ef9b37032387904b746ac0d8b321543c2474a OP_EQUAL", "type": "scripthash"}, "value": 0.23106062, "n": 1}], "hex": "01000000000101850445a422f82a2cc887261628d745d51d897fbe45f9e93381baed3fe9676d9001000000232200201ebd78ddc43f150398d601209ea39be1ff5c0f840ba4a0a4622513962918cd2affffffff02c35d46000000000017a9149583730034227bf139b2920024cce5fe9b8a59f6870e9260010000000017a914172ef9b37032387904b746ac0d8b321543c2474a870400483045022100d292da0444497695c61049601ee6bbd39a5cac95e60b0fcc2f7d82613ae2c6a1022030d4a62027f426c18558458e5197b7388f9b0753e0eb6d193d1e9085d98ebfc9014830450221008463cc7adf4e3928ca5306f8a0977a939b2bf0ce0c689604056d8341f820957a02205c7ddb2715b8db93dec901795ffa0d43cbe5a7d2328692be51481cd2bef54c8301475221029f41149ff8da480839732a055565e57d05e63fb28c4ea61f8e0f0e85e54539182102772d8966c368a5438ef2583583743e0a16bb07e70604bb07a7fadda121e088f752ae00000000", "vin": [{"txinwitness": ["", "3045022100d292da0444497695c61049601ee6bbd39a5cac95e60b0fcc2f7d82613ae2c6a1022030d4a62027f426c18558458e5197b7388f9b0753e0eb6d193d1e9085d98ebfc901", "30450221008463cc7adf4e3928ca5306f8a0977a939b2bf0ce0c689604056d8341f820957a02205c7ddb2715b8db93dec901795ffa0d43cbe5a7d2328692be51481cd2bef54c8301", "5221029f41149ff8da480839732a055565e57d05e63fb28c4ea61f8e0f0e85e54539182102772d8966c368a5438ef2583583743e0a16bb07e70604bb07a7fadda121e088f752ae"], "sequence": 4294967295, "scriptSig": {"hex": "2200201ebd78ddc43f150398d601209ea39be1ff5c0f840ba4a0a4622513962918cd2a", "asm": "00201ebd78ddc43f150398d601209ea39be1ff5c0f840ba4a0a4622513962918cd2a"}, "vout": 1, "txid": "906d67e93fedba8133e9f945be7f891dd545d728162687c82c2af822a4450485"}], "txid": "a68dc92afcb2329e720c23f56271a4a54ee1c3da239b129765070862f8b8b71e", "blocktime": 1537876114, "version": 1, "confirmations": 11460, "time": 1537876114, "locktime": 0, "vsize": 206, "size": 372}