{"hash": "4babdc42a50f1472c531dbab24388a1c123c7da1ee876b8760b7a57a1ee3a9fa", "blockhash": "00000000000000000018f53835495a110e01622372bf6ae95dc86f2b0ab887b0", "vout": [{"scriptPubKey": {"reqSigs": 1, "hex": "a914029abae5bb96ab3bef5615fa85b8398849a43b5687", "addresses": ["31vndm6HsXjb5XbM9YCX4FFTf7DMx7euXr"], "asm": "OP_HASH160 029abae5bb96ab3bef5615fa85b8398849a43b56 OP_EQUAL", "type": "scripthash"}, "value": 0.11450799, "n": 0}, {"scriptPubKey": {"reqSigs": 1, "hex": "76a91425e9943ae91cb27ddc20958822111ccf15ab2bc488ac", "addresses": ["14TTpTGJopkKESBTKVSxsbBkjnWfpxme4k"], "asm": "OP_DUP OP_HASH160 25e9943ae91cb27ddc20958822111ccf15ab2bc4 OP_EQUALVERIFY OP_CHECKSIG", "type": "pubkeyhash"}, "value": 3.0, "n": 1}], "hex": "010000000001101cc4d35af210e591fc47c650ffe838bc73b04d2d5f499870ab12e528d61dc8020000000017160014c3a46e66a01873d59943147b312236d2ae84654dffffffffaa4358497a95ee7be327f8c73364fea1ab845cb799185102bf6229e15977f41b0100000017160014c3a46e66a01873d59943147b312236d2ae84654dffffffff9a1297e7de1da4f38f2afbee677cc2c24cc4e6d9418da9c71d9a563625ab971c00000000171600140cbeebca6ce37a0c14edac74b296274f75fc73eaffffffffbb6d3a9c3fc8df6b3f22118ba14113dca08328ffcf9c4f7cabb76b65d48dd32c0200000017160014c3a46e66a01873d59943147b312236d2ae84654dfffffffff01d5422b9ff9c3307b749c9864eea8175c90c81d14d74da9f1739c1a14bd0310000000017160014c3a46e66a01873d59943147b312236d2ae84654dffffffff8887ee9b12d8050d6aed61d7bead43d193440b533c8ead58bb8e4444f0b9584d0000000017160014c3a46e66a01873d59943147b312236d2ae84654dffffffff69546d0e09a1ebd113a8a42330d21c6b5d67116b7c0d8d5d0a1134e442c807520100000017160014c3a46e66a01873d59943147b312236d2ae84654dffffffffbae8f6506e3b018d07786db7d3f3c32cc6ae9d9df6a07911e0c5a61287f1306e0200000017160014c3a46e66a01873d59943147b312236d2ae84654dffffffffada2e95769d1cf6b571ddfceb66d2657e2167613a6eed474b434507e38b8ab8a0000000017160014c3a46e66a01873d59943147b312236d2ae84654dffffffff4de44d0809054856b45b6a7e071efa7e68e3aaf1b1ac3f3bd432195fafd20bb90000000017160014c3a46e66a01873d59943147b312236d2ae84654dffffffff389e0b1e1bd3aba1bf777a768f0503bb9aa63c879009067bab03ef5a3ddf17ba0000000017160014c3a46e66a01873d59943147b312236d2ae84654dffffffff68d2f2f789d73bcdf2aae85c85cd2b4fceb2f6a22a5db6ef1a0c8b2d9a8c7fbb0000000017160014c3a46e66a01873d59943147b312236d2ae84654dffffffff4f4c81aec52c82956b37aa5e2df21a3b13ffe6db2ffe5c08bc6b21eb56931ad00000000017160014c3a46e66a01873d59943147b312236d2ae84654dffffffff41fd7fe751c1cbfbdcf4fb29e6cc4ed854199302df3e85f74d6310c8fcb233d80000000017160014c3a46e66a01873d59943147b312236d2ae84654dffffffffe7d27cf9e642594c6c40ae6bcaa8fc3f000d7288aba5c4eae5bb1339f44d9cea0100000017160014c3a46e66a01873d59943147b312236d2ae84654dffffffff4ee3c387c245f5a9407260cbe79a9860d5271bda03eeae2a1573a6ecf9ba4fec0000000017160014c3a46e66a01873d59943147b312236d2ae84654dffffffff02afb9ae000000000017a914029abae5bb96ab3bef5615fa85b8398849a43b568700a3e111000000001976a91425e9943ae91cb27ddc20958822111ccf15ab2bc488ac0247304402203283aac01074d1925a7700f4317dae822db671325ce9afedecf529ef019b36fb022002def6074c67b6a59a9d49732d0286a3758fc70e11cf1afd6deae5ed91bdd638012102e52adbab7094e671ce9763c338b77aa35ebb14b8fcee2af6be447020abdc7b0f0247304402207a9cb49482a04571b8e64ed1c44298c1a164f9ee03f0c322fc7883e7adce055e02204b2632716c1fb59cdeb6e5b407ecc7170936ce781e08c8c7cb366105a86fbb55012102e52adbab7094e671ce9763c338b77aa35ebb14b8fcee2af6be447020abdc7b0f02483045022100f2bb4215021978bb67c83f3a9264733a87bb8c48e3e9a0f123969d6f79520e9202203ecc6d6ac252e0bb91ee70a534a92ce486d9ce18b219c45a1f7eaef84e62d2d7012103616f5aab3fb91712aabf73ac89b4bba9dc40ee6c92ee7bb37f27ff3bd4264882024730440220138c6246a2dc8a176c653f63f1bc3bcb98e403557d2d26d2ff2bad91d5b23e87022030023379c7c5226caa909422292c8d3e32932ae3fdcff21451ee05f41ae5bc67012102e52adbab7094e671ce9763c338b77aa35ebb14b8fcee2af6be447020abdc7b0f02473044022061dc9de67b923f5806ca054bb053b1f0fa9a5d8e43a65df19c2f6731783756d602200a4af6ed529c0337acc48e2a64a07790f7731cb69e8dfa46ead4641c1950fdfe012102e52adbab7094e671ce9763c338b77aa35ebb14b8fcee2af6be447020abdc7b0f02483045022100db439f60a65bad0e7c911f70be2ddc80a24a17813f5702ca6d5a814f3bb8937a02204ecf70cb9e8009a89e0c109c2a7bc5744892bba29e5a65a9577df1fcb9442068012102e52adbab7094e671ce9763c338b77aa35ebb14b8fcee2af6be447020abdc7b0f0247304402202d6711b2ae57c482b100503c555cfd5df41ffaf5cc1422d31c6158cd7c0ea53c0220460e847aa714929eb4b2acb7e4f1349cb8808f91e348aa0891a0912331f39ed1012102e52adbab7094e671ce9763c338b77aa35ebb14b8fcee2af6be447020abdc7b0f024830450221008d017120531deab8077b280fb50ebffa39f16d5ee5bf724e6749332e65d85405022021d27daf2366a467fbaa0cf6af2d032382d077922c81c98e64c3dfa9a6895a23012102e52adbab7094e671ce9763c338b77aa35ebb14b8fcee2af6be447020abdc7b0f02473044022044ef1562c9ad4e1e815debd3e8d9740a45e3cd895019f31a8c9df6e246df809d02202e384089d4086ac90400fdc1f9449c1b8917fa39662ab31b1c8cb62ce14258b9012102e52adbab7094e671ce9763c338b77aa35ebb14b8fcee2af6be447020abdc7b0f02483045022100fe8813a7362d9a0c8ede914b5f9d902f59c78b11800c0bbcee32e9ac25a1516a022070cde1d1b6876a10a39afae51e3f9476d93ad9d4b5af4c65045f4f257b9ffb25012102e52adbab7094e671ce9763c338b77aa35ebb14b8fcee2af6be447020abdc7b0f02483045022100c205ecf599bcf89494dce2c68955b8efcef253b1ef16edc7b200c9f8a90ec0dc0220096addf6435791367b53e3b88d1ad23007af47609ce55d8fc0e8457c87c9b5c1012102e52adbab7094e671ce9763c338b77aa35ebb14b8fcee2af6be447020abdc7b0f024830450221008d9245bf645b15e5a1c996cd91f77027f57bbb0184e72bdcb2c2c9f2edd428c302201a109d99e0b5d86bc0d0ae8f6a5ae101f2dff52ef3a06a6b2fc5d5ffba080712012102e52adbab7094e671ce9763c338b77aa35ebb14b8fcee2af6be447020abdc7b0f024730440220104e9d5f67edca69cc9509026a91c1f130cedd1cee41eb36813b3ee73ee9821d0220605ae7b3e478f8746a2f0b6d24868017e1aff32b6db51a35113f4a5511fc3500012102e52adbab7094e671ce9763c338b77aa35ebb14b8fcee2af6be447020abdc7b0f02483045022100e524aedbb4c9383db78f133d72410cf7dfbcc03710c70f3f4a7346f4ff59d04e022023813e165060187e708022cb1d12ead1d1c88d515ae4d4169caeaa1e25a9f155012102e52adbab7094e671ce9763c338b77aa35ebb14b8fcee2af6be447020abdc7b0f0247304402207109acfa4ef49517cfffbf8a7b9380490687bf6aabc183e24c994b2e66a0afa50220189665de7fa5358239ce0a9ef1fa74accdbb8c8c909d2af96574f835dbed561d012102e52adbab7094e671ce9763c338b77aa35ebb14b8fcee2af6be447020abdc7b0f0247304402201627267ca1a5af987ef26671dfef7a861e6e554a99edfdf8251696a10358f69502200ce99163f8e6ead4a0263947b978da4c346bc61e01d6d8faf10bf251d7d483c6012102e52adbab7094e671ce9763c338b77aa35ebb14b8fcee2af6be447020abdc7b0f00000000", "vin": [{"txinwitness": ["304402203283aac01074d1925a7700f4317dae822db671325ce9afedecf529ef019b36fb022002def6074c67b6a59a9d49732d0286a3758fc70e11cf1afd6deae5ed91bdd63801", "02e52adbab7094e671ce9763c338b77aa35ebb14b8fcee2af6be447020abdc7b0f"], "sequence": 4294967295, "scriptSig": {"hex": "160014c3a46e66a01873d59943147b312236d2ae84654d", "asm": "0014c3a46e66a01873d59943147b312236d2ae84654d"}, "vout": 0, "txid": "02c81dd628e512ab7098495f2d4db073bc38e8ff50c647fc91e510f25ad3c41c"}, {"txinwitness": ["304402207a9cb49482a04571b8e64ed1c44298c1a164f9ee03f0c322fc7883e7adce055e02204b2632716c1fb59cdeb6e5b407ecc7170936ce781e08c8c7cb366105a86fbb5501", "02e52adbab7094e671ce9763c338b77aa35ebb14b8fcee2af6be447020abdc7b0f"], "sequence": 4294967295, "scriptSig": {"hex": "160014c3a46e66a01873d59943147b312236d2ae84654d", "asm": "0014c3a46e66a01873d59943147b312236d2ae84654d"}, "vout": 1, "txid": "1bf47759e12962bf02511899b75c84aba1fe6433c7f827e37bee957a495843aa"}, {"txinwitness": ["3045022100f2bb4215021978bb67c83f3a9264733a87bb8c48e3e9a0f123969d6f79520e9202203ecc6d6ac252e0bb91ee70a534a92ce486d9ce18b219c45a1f7eaef84e62d2d701", "03616f5aab3fb91712aabf73ac89b4bba9dc40ee6c92ee7bb37f27ff3bd4264882"], "sequence": 4294967295, "scriptSig": {"hex": "1600140cbeebca6ce37a0c14edac74b296274f75fc73ea", "asm": "00140cbeebca6ce37a0c14edac74b296274f75fc73ea"}, "vout": 0, "txid": "1c97ab2536569a1dc7a98d41d9e6c44cc2c27c67eefb2a8ff3a41ddee797129a"}, {"txinwitness": ["30440220138c6246a2dc8a176c653f63f1bc3bcb98e403557d2d26d2ff2bad91d5b23e87022030023379c7c5226caa909422292c8d3e32932ae3fdcff21451ee05f41ae5bc6701", "02e52adbab7094e671ce9763c338b77aa35ebb14b8fcee2af6be447020abdc7b0f"], "sequence": 4294967295, "scriptSig": {"hex": "160014c3a46e66a01873d59943147b312236d2ae84654d", "asm": "0014c3a46e66a01873d59943147b312236d2ae84654d"}, "vout": 2, "txid": "2cd38dd4656bb7ab7c4f9ccfff2883a0dc1341a18b11223f6bdfc83f9c3a6dbb"}, {"txinwitness": ["3044022061dc9de67b923f5806ca054bb053b1f0fa9a5d8e43a65df19c2f6731783756d602200a4af6ed529c0337acc48e2a64a07790f7731cb69e8dfa46ead4641c1950fdfe01", "02e52adbab7094e671ce9763c338b77aa35ebb14b8fcee2af6be447020abdc7b0f"], "sequence": 4294967295, "scriptSig": {"hex": "160014c3a46e66a01873d59943147b312236d2ae84654d", "asm": "0014c3a46e66a01873d59943147b312236d2ae84654d"}, "vout": 0, "txid": "31d04ba1c139179fda744dd1810cc97581ea4e86c949b707339cffb922541df0"}, {"txinwitness": ["3045022100db439f60a65bad0e7c911f70be2ddc80a24a17813f5702ca6d5a814f3bb8937a02204ecf70cb9e8009a89e0c109c2a7bc5744892bba29e5a65a9577df1fcb944206801", "02e52adbab7094e671ce9763c338b77aa35ebb14b8fcee2af6be447020abdc7b0f"], "sequence": 4294967295, "scriptSig": {"hex": "160014c3a46e66a01873d59943147b312236d2ae84654d", "asm": "0014c3a46e66a01873d59943147b312236d2ae84654d"}, "vout": 0, "txid": "4d58b9f044448ebb58ad8e3c530b4493d143adbed761ed6a0d05d8129bee8788"}, {"txinwitness": ["304402202d6711b2ae57c482b100503c555cfd5df41ffaf5cc1422d31c6158cd7c0ea53c0220460e847aa714929eb4b2acb7e4f1349cb8808f91e348aa0891a0912331f39ed101", "02e52adbab7094e671ce9763c338b77aa35ebb14b8fcee2af6be447020abdc7b0f"], "sequence": 4294967295, "scriptSig": {"hex": "160014c3a46e66a01873d59943147b312236d2ae84654d", "asm": "0014c3a46e66a01873d59943147b312236d2ae84654d"}, "vout": 1, "txid": "5207c842e434110a5d8d0d7c6b11675d6b1cd23023a4a813d1eba1090e6d5469"}, {"txinwitness": ["30450221008d017120531deab8077b280fb50ebffa39f16d5ee5bf724e6749332e65d85405022021d27daf2366a467fbaa0cf6af2d032382d077922c81c98e64c3dfa9a6895a2301", "02e52adbab7094e671ce9763c338b77aa35ebb14b8fcee2af6be447020abdc7b0f"], "sequence": 4294967295, "scriptSig": {"hex": "160014c3a46e66a01873d59943147b312236d2ae84654d", "asm": "0014c3a46e66a01873d59943147b312236d2ae84654d"}, "vout": 2, "txid": "6e30f18712a6c5e01179a0f69d9daec62cc3f3d3b76d78078d013b6e50f6e8ba"}, {"txinwitness": ["3044022044ef1562c9ad4e1e815debd3e8d9740a45e3cd895019f31a8c9df6e246df809d02202e384089d4086ac90400fdc1f9449c1b8917fa39662ab31b1c8cb62ce14258b901", "02e52adbab7094e671ce9763c338b77aa35ebb14b8fcee2af6be447020abdc7b0f"], "sequence": 4294967295, "scriptSig": {"hex": "160014c3a46e66a01873d59943147b312236d2ae84654d", "asm": "0014c3a46e66a01873d59943147b312236d2ae84654d"}, "vout": 0, "txid": "8aabb8387e5034b474d4eea6137616e257266db6cedf1d576bcfd16957e9a2ad"}, {"txinwitness": ["3045022100fe8813a7362d9a0c8ede914b5f9d902f59c78b11800c0bbcee32e9ac25a1516a022070cde1d1b6876a10a39afae51e3f9476d93ad9d4b5af4c65045f4f257b9ffb2501", "02e52adbab7094e671ce9763c338b77aa35ebb14b8fcee2af6be447020abdc7b0f"], "sequence": 4294967295, "scriptSig": {"hex": "160014c3a46e66a01873d59943147b312236d2ae84654d", "asm": "0014c3a46e66a01873d59943147b312236d2ae84654d"}, "vout": 0, "txid": "b90bd2af5f1932d43b3facb1f1aae3687efa1e077e6a5bb456480509084de44d"}, {"txinwitness": ["3045022100c205ecf599bcf89494dce2c68955b8efcef253b1ef16edc7b200c9f8a90ec0dc0220096addf6435791367b53e3b88d1ad23007af47609ce55d8fc0e8457c87c9b5c101", "02e52adbab7094e671ce9763c338b77aa35ebb14b8fcee2af6be447020abdc7b0f"], "sequence": 4294967295, "scriptSig": {"hex": "160014c3a46e66a01873d59943147b312236d2ae84654d", "asm": "0014c3a46e66a01873d59943147b312236d2ae84654d"}, "vout": 0, "txid": "ba17df3d5aef03ab7b060990873ca69abb03058f767a77bfa1abd31b1e0b9e38"}, {"txinwitness": ["30450221008d9245bf645b15e5a1c996cd91f77027f57bbb0184e72bdcb2c2c9f2edd428c302201a109d99e0b5d86bc0d0ae8f6a5ae101f2dff52ef3a06a6b2fc5d5ffba08071201", "02e52adbab7094e671ce9763c338b77aa35ebb14b8fcee2af6be447020abdc7b0f"], "sequence": 4294967295, "scriptSig": {"hex": "160014c3a46e66a01873d59943147b312236d2ae84654d", "asm": "0014c3a46e66a01873d59943147b312236d2ae84654d"}, "vout": 0, "txid": "bb7f8c9a2d8b0c1aefb65d2aa2f6b2ce4f2bcd855ce8aaf2cd3bd789f7f2d268"}, {"txinwitness": ["30440220104e9d5f67edca69cc9509026a91c1f130cedd1cee41eb36813b3ee73ee9821d0220605ae7b3e478f8746a2f0b6d24868017e1aff32b6db51a35113f4a5511fc350001", "02e52adbab7094e671ce9763c338b77aa35ebb14b8fcee2af6be447020abdc7b0f"], "sequence": 4294967295, "scriptSig": {"hex": "160014c3a46e66a01873d59943147b312236d2ae84654d", "asm": "0014c3a46e66a01873d59943147b312236d2ae84654d"}, "vout": 0, "txid": "d01a9356eb216bbc085cfe2fdbe6ff133b1af22d5eaa376b95822cc5ae814c4f"}, {"txinwitness": ["3045022100e524aedbb4c9383db78f133d72410cf7dfbcc03710c70f3f4a7346f4ff59d04e022023813e165060187e708022cb1d12ead1d1c88d515ae4d4169caeaa1e25a9f15501", "02e52adbab7094e671ce9763c338b77aa35ebb14b8fcee2af6be447020abdc7b0f"], "sequence": 4294967295, "scriptSig": {"hex": "160014c3a46e66a01873d59943147b312236d2ae84654d", "asm": "0014c3a46e66a01873d59943147b312236d2ae84654d"}, "vout": 0, "txid": "d833b2fcc810634df7853edf02931954d84ecce629fbf4dcfbcbc151e77ffd41"}, {"txinwitness": ["304402207109acfa4ef49517cfffbf8a7b9380490687bf6aabc183e24c994b2e66a0afa50220189665de7fa5358239ce0a9ef1fa74accdbb8c8c909d2af96574f835dbed561d01", "02e52adbab7094e671ce9763c338b77aa35ebb14b8fcee2af6be447020abdc7b0f"], "sequence": 4294967295, "scriptSig": {"hex": "160014c3a46e66a01873d59943147b312236d2ae84654d", "asm": "0014c3a46e66a01873d59943147b312236d2ae84654d"}, "vout": 1, "txid": "ea9c4df43913bbe5eac4a5ab88720d003ffca8ca6bae406c4c5942e6f97cd2e7"}, {"txinwitness": ["304402201627267ca1a5af987ef26671dfef7a861e6e554a99edfdf8251696a10358f69502200ce99163f8e6ead4a0263947b978da4c346bc61e01d6d8faf10bf251d7d483c601", "02e52adbab7094e671ce9763c338b77aa35ebb14b8fcee2af6be447020abdc7b0f"], "sequence": 4294967295, "scriptSig": {"hex": "160014c3a46e66a01873d59943147b312236d2ae84654d", "asm": "0014c3a46e66a01873d59943147b312236d2ae84654d"}, "vout": 0, "txid": "ec4fbaf9eca673152aaeee03da1b27d560989ae7cb607240a9f545c287c3e34e"}], "txid": "a68e849466ffd7d30c153c7955ee13a5581e51f59bc4f83cd84ac112cfba142a", "blocktime": 1537870928, "version": 1, "confirmations": 11514, "time": 1537870928, "locktime": 0, "vsize": 1531, "size": 2821}