{"hash": "a697c863ebf34b41822d3ee8018395b3ae7da024eee086cef4a8865149e84e4b", "blockhash": "0000000000000000001f76057863aec43deb6fa401d9628bb513d65a8098bfab", "vout": [{"scriptPubKey": {"reqSigs": 1, "hex": "a9141705891df1aef64057b6d5eea999ef2448b6fdd387", "addresses": ["33nk6aRH2cDXSJRSQ4fVVQmYvhcPJXhE5t"], "asm": "OP_HASH160 1705891df1aef64057b6d5eea999ef2448b6fdd3 OP_EQUAL", "type": "scripthash"}, "value": 0.00397057, "n": 0}], "hex": "0100000001e1c69554117e257feba2f08522ec8d089a43618425292349547b58bf0c70dfda02000000fdfd0000483045022100aebf06f255a218214839ea69fec4cdac48c8bf21b359f7a67acfc1b14fa43e9c02201275dd8140706d21a59f147420def697b178348376d5f4a762efff67d910a4f901473044022063e90d38890e7722556c4825ef969c87becbd400c8e057681a4a59467dbe14f702207faa47e052dca66d8fad9243670e224ac858b8fcc901449b42d4faf3937468b7014c69522102c13b02def3219aaca64d55b39dfe4f0e72efbda34a1454597b07c18985d7ccb42102f1370c2886e372e61d4141e2f22c1c47bc026a9a97eee083b39dc7caf70c44742103afcee9044b3bf721d4f27b210b1d75862f853e916f8fc440269526151f96d3bb53aefdffffff01010f06000000000017a9141705891df1aef64057b6d5eea999ef2448b6fdd38714490800", "vin": [{"sequence": 4294967293, "scriptSig": {"hex": "00483045022100aebf06f255a218214839ea69fec4cdac48c8bf21b359f7a67acfc1b14fa43e9c02201275dd8140706d21a59f147420def697b178348376d5f4a762efff67d910a4f901473044022063e90d38890e7722556c4825ef969c87becbd400c8e057681a4a59467dbe14f702207faa47e052dca66d8fad9243670e224ac858b8fcc901449b42d4faf3937468b7014c69522102c13b02def3219aaca64d55b39dfe4f0e72efbda34a1454597b07c18985d7ccb42102f1370c2886e372e61d4141e2f22c1c47bc026a9a97eee083b39dc7caf70c44742103afcee9044b3bf721d4f27b210b1d75862f853e916f8fc440269526151f96d3bb53ae", "asm": "0 3045022100aebf06f255a218214839ea69fec4cdac48c8bf21b359f7a67acfc1b14fa43e9c02201275dd8140706d21a59f147420def697b178348376d5f4a762efff67d910a4f9[ALL] 3044022063e90d38890e7722556c4825ef969c87becbd400c8e057681a4a59467dbe14f702207faa47e052dca66d8fad9243670e224ac858b8fcc901449b42d4faf3937468b7[ALL] 522102c13b02def3219aaca64d55b39dfe4f0e72efbda34a1454597b07c18985d7ccb42102f1370c2886e372e61d4141e2f22c1c47bc026a9a97eee083b39dc7caf70c44742103afcee9044b3bf721d4f27b210b1d75862f853e916f8fc440269526151f96d3bb53ae"}, "vout": 2, "txid": "dadf700cbf587b54492329258461439a088dec2285f0a2eb7f257e115495c6e1"}], "txid": "a697c863ebf34b41822d3ee8018395b3ae7da024eee086cef4a8865149e84e4b", "blocktime": 1537873891, "version": 1, "confirmations": 11477, "time": 1537873891, "locktime": 542996, "vsize": 338, "size": 338}