{"hash": "a69940d604664ea741c9408214aa5711825793642f5e597a56f582234a6dbad9", "blockhash": "0000000000000000000e13cef7c366c0283d82e591d1acd082e914b08063cdf1", "vout": [{"scriptPubKey": {"reqSigs": 1, "hex": "76a914419fbc64a4d2134eb68e82f4742020cc4f41938d88ac", "addresses": ["16yzH7ebmA9Sug4UgPUrwJU98CifwrpWEe"], "asm": "OP_DUP OP_HASH160 419fbc64a4d2134eb68e82f4742020cc4f41938d OP_EQUALVERIFY OP_CHECKSIG", "type": "pubkeyhash"}, "value": 5.46e-06, "n": 0}, {"scriptPubKey": {"reqSigs": 1, "hex": "a9143f4eecba122ad73039d481c8d37f99cb4f887cd887", "addresses": ["37Tm3Qz8Zw2VJrheUUhArDAoq58S6YrS3g"], "asm": "OP_HASH160 3f4eecba122ad73039d481c8d37f99cb4f887cd8 OP_EQUAL", "type": "scripthash"}, "value": 0.99992362, "n": 1}, {"scriptPubKey": {"type": "nulldata", "hex": "6a146f6d6e69000000000000001f0000000a33830ee0", "asm": "OP_RETURN 6f6d6e69000000000000001f0000000a33830ee0"}, "value": 0.0, "n": 2}], "hex": "010000000109a1e51160ea4cdfc3e506b0f7ddf1d8316bd170b15a0eac0ca9baf7268996ba01000000fc0047304402206add40f6c1547d9dd660522c32c93d15c5e0e4a2661a787766a470fc2c6d4d6702206e538427764cea61d7526b5b3ea6fa73297b3618744953731819479bbce90a6e0147304402202f0b1567ed1c0d216e79e70d1f0e56769b2a50bb490f53d00713ea3267468dc2022056cb31a698153deab8b948dc89598d0eec9d36e5efb764b1020896ddbb1de638014c6952210246ccf4de0c54cc7f3354cdd993c2c50cf965fd82238b89659fbd73a1b4bf05a121024fc59f72272a897fe43803374969f396058152fe4765a8d15216f94624257b1b21022593bc69ecbf3bbcc3c58082267cb49dadaf4ca8dbf1b2297338a9d628c4297653aeffffffff0322020000000000001976a914419fbc64a4d2134eb68e82f4742020cc4f41938d88ac2ac3f5050000000017a9143f4eecba122ad73039d481c8d37f99cb4f887cd8870000000000000000166a146f6d6e69000000000000001f0000000a33830ee000000000", "vin": [{"sequence": 4294967295, "scriptSig": {"hex": "0047304402206add40f6c1547d9dd660522c32c93d15c5e0e4a2661a787766a470fc2c6d4d6702206e538427764cea61d7526b5b3ea6fa73297b3618744953731819479bbce90a6e0147304402202f0b1567ed1c0d216e79e70d1f0e56769b2a50bb490f53d00713ea3267468dc2022056cb31a698153deab8b948dc89598d0eec9d36e5efb764b1020896ddbb1de638014c6952210246ccf4de0c54cc7f3354cdd993c2c50cf965fd82238b89659fbd73a1b4bf05a121024fc59f72272a897fe43803374969f396058152fe4765a8d15216f94624257b1b21022593bc69ecbf3bbcc3c58082267cb49dadaf4ca8dbf1b2297338a9d628c4297653ae", "asm": "0 304402206add40f6c1547d9dd660522c32c93d15c5e0e4a2661a787766a470fc2c6d4d6702206e538427764cea61d7526b5b3ea6fa73297b3618744953731819479bbce90a6e[ALL] 304402202f0b1567ed1c0d216e79e70d1f0e56769b2a50bb490f53d00713ea3267468dc2022056cb31a698153deab8b948dc89598d0eec9d36e5efb764b1020896ddbb1de638[ALL] 52210246ccf4de0c54cc7f3354cdd993c2c50cf965fd82238b89659fbd73a1b4bf05a121024fc59f72272a897fe43803374969f396058152fe4765a8d15216f94624257b1b21022593bc69ecbf3bbcc3c58082267cb49dadaf4ca8dbf1b2297338a9d628c4297653ae"}, "vout": 1, "txid": "ba968926f7baa90cac0e5ab170d16b31d8f1ddf7b006e5c3df4cea6011e5a109"}], "txid": "a69940d604664ea741c9408214aa5711825793642f5e597a56f582234a6dbad9", "blocktime": 1537871767, "version": 1, "confirmations": 11493, "time": 1537871767, "locktime": 0, "vsize": 400, "size": 400}