{"hash": "a69d01e2bcd969bd520d5f3b4480bb7b59cafd2f3df5a13f27327d4413d4d12c", "blockhash": "0000000000000000001f76057863aec43deb6fa401d9628bb513d65a8098bfab", "vout": [{"scriptPubKey": {"reqSigs": 1, "hex": "76a9140a362ba7691ec539e170602af5601d500d4e81d288ac", "addresses": ["1vzekdYcj4CXXJTFKRaQky7MjwHpMeTES"], "asm": "OP_DUP OP_HASH160 0a362ba7691ec539e170602af5601d500d4e81d2 OP_EQUALVERIFY OP_CHECKSIG", "type": "pubkeyhash"}, "value": 0.005, "n": 0}, {"scriptPubKey": {"reqSigs": 1, "hex": "76a914af4adf8c2c0d2781ef5fb2c567a7f3ce9cfcff5e88ac", "addresses": ["1GyrwrWwPvAJtUa7LXnLBeuTcExCpVmMYd"], "asm": "OP_DUP OP_HASH160 af4adf8c2c0d2781ef5fb2c567a7f3ce9cfcff5e OP_EQUALVERIFY OP_CHECKSIG", "type": "pubkeyhash"}, "value": 0.06017796, "n": 1}], "hex": "010000000105a6973cff3374b6f7273f17c9b67fb2631c1a90c81b66f1d5f4a661bf5009f8010000006a4730440220677550ae3d02f40d4741e04cc30765b3500ed0e51d484a11e022b8f5e2288fa0022052d52c41faa8ff3baba3676456ad3a64b14a2ab2bc6babca093c75a329dd4355012102860cb13b6b5199909a744a034864794e14aed0c51c30c55061f968b3af964ea6ffffffff0220a10700000000001976a9140a362ba7691ec539e170602af5601d500d4e81d288ac04d35b00000000001976a914af4adf8c2c0d2781ef5fb2c567a7f3ce9cfcff5e88ac00000000", "vin": [{"sequence": 4294967295, "scriptSig": {"hex": "4730440220677550ae3d02f40d4741e04cc30765b3500ed0e51d484a11e022b8f5e2288fa0022052d52c41faa8ff3baba3676456ad3a64b14a2ab2bc6babca093c75a329dd4355012102860cb13b6b5199909a744a034864794e14aed0c51c30c55061f968b3af964ea6", "asm": "30440220677550ae3d02f40d4741e04cc30765b3500ed0e51d484a11e022b8f5e2288fa0022052d52c41faa8ff3baba3676456ad3a64b14a2ab2bc6babca093c75a329dd4355[ALL] 02860cb13b6b5199909a744a034864794e14aed0c51c30c55061f968b3af964ea6"}, "vout": 1, "txid": "f80950bf61a6f4d5f1661bc8901a1c63b27fb6c9173f27f7b67433ff3c97a605"}], "txid": "a69d01e2bcd969bd520d5f3b4480bb7b59cafd2f3df5a13f27327d4413d4d12c", "blocktime": 1537873891, "version": 1, "confirmations": 11478, "time": 1537873891, "locktime": 0, "vsize": 225, "size": 225}