{"hash": "c3d2f88166f9415208a88962a44588fa3f78780f7ffc1e790bfac556870e5035", "blockhash": "0000000000000000000dcc0f55137456b1a82d3642486a52398922ac4d620174", "vout": [{"scriptPubKey": {"reqSigs": 1, "hex": "a914471941231189ce9dbeb927cec3791c0271fbea9287", "addresses": ["38Ax9sbEKcfU3gCLnFBXShMqTMYdwYibhT"], "asm": "OP_HASH160 471941231189ce9dbeb927cec3791c0271fbea92 OP_EQUAL", "type": "scripthash"}, "value": 0.43687596, "n": 0}, {"scriptPubKey": {"reqSigs": 1, "hex": "76a91444216bfe8fefd7fb72521489c84cbeb1a543855888ac", "addresses": ["17DEzEfKjPvokF3tvn6VDh94GeRUtxgu4n"], "asm": "OP_DUP OP_HASH160 44216bfe8fefd7fb72521489c84cbeb1a5438558 OP_EQUALVERIFY OP_CHECKSIG", "type": "pubkeyhash"}, "value": 0.0065452, "n": 1}], "hex": "0200000000010165e7a5cabee3ad55d8e8cdc84fdd43899108a3e529bea3733be860bdceac5cd80100000017160014b56e1b43d83a0d9eeb0369f32fe3252eae5cf8bafeffffff02ac9e9a020000000017a914471941231189ce9dbeb927cec3791c0271fbea9287b8fc0900000000001976a91444216bfe8fefd7fb72521489c84cbeb1a543855888ac02483045022100aa7d7c09e2291e6ef5cb7548467ba5f9b790a2bec7b11f7adb73a52b475f71fc02202f12e90feab3016fa82b647e10edeaa851750cef5945149c328f1df83c54d320012102a51cc3769ef6fd8a506f1e44411ccf7521cd878650a85c32c34126c6297860960c490800", "vin": [{"txinwitness": ["3045022100aa7d7c09e2291e6ef5cb7548467ba5f9b790a2bec7b11f7adb73a52b475f71fc02202f12e90feab3016fa82b647e10edeaa851750cef5945149c328f1df83c54d32001", "02a51cc3769ef6fd8a506f1e44411ccf7521cd878650a85c32c34126c629786096"], "sequence": 4294967294, "scriptSig": {"hex": "160014b56e1b43d83a0d9eeb0369f32fe3252eae5cf8ba", "asm": "0014b56e1b43d83a0d9eeb0369f32fe3252eae5cf8ba"}, "vout": 1, "txid": "d85caccebd60e83b73a3be29e5a308918943dd4fc8cde8d855ade3becaa5e765"}], "txid": "a6a4ac7148da42557822e2c03a70bc070ef711001edb516fc67b0f66e2b71bc6", "blocktime": 1537870268, "version": 2, "confirmations": 11518, "time": 1537870268, "locktime": 542988, "vsize": 168, "size": 250}