{"hash": "a6a58290a43f6f5bed75b62248292c4289c335e6e3a26cce1f6faabff56e4cfe", "blockhash": "000000000000000000022b45ed06c6f4ccd3cf7fb5ba4856ebd2e58215665228", "vout": [{"scriptPubKey": {"reqSigs": 1, "hex": "76a9141296208b096dae1054ce0c65d394cbb0d914b66888ac", "addresses": ["12hH1UA6HHsA2y39FUN7ubkirwAtFDxxoM"], "asm": "OP_DUP OP_HASH160 1296208b096dae1054ce0c65d394cbb0d914b668 OP_EQUALVERIFY OP_CHECKSIG", "type": "pubkeyhash"}, "value": 0.00165646, "n": 0}, {"scriptPubKey": {"reqSigs": 1, "hex": "76a9140eea5bcde31224fcd19162cf796b96244128a54588ac", "addresses": ["12MsDD2VnYHvgJHZEbTekyg4G63warHTCj"], "asm": "OP_DUP OP_HASH160 0eea5bcde31224fcd19162cf796b96244128a545 OP_EQUALVERIFY OP_CHECKSIG", "type": "pubkeyhash"}, "value": 5.46e-06, "n": 1}, {"scriptPubKey": {"type": "nulldata", "hex": "6a146f6d6e69000000000000001f0000012ee3aeb100", "asm": "OP_RETURN 6f6d6e69000000000000001f0000012ee3aeb100"}, "value": 0.0, "n": 2}], "hex": "01000000025814236d85b4971142ed09daa0cb7668c99c4cdf4182313d715077bd5f03bf69020000006a47304402201597fe469988ebfdda40416bdf78e0227cd6f68cda6e61620c370b5d1860623f022078e511a1948ee48e88eeb0dc42ddd9fd8ac2a49bf5aab6a2cff95916263101bc0121022aa9327e3e7483f0249cf3b9fdfee7b3c1137fe1225c1fd4fa1010aeeb825539ffffffffd9c4fd521021bbe94ed7ad70d7f456e69ceb5ca934d3e2564c74f1cd9e6660bb000000006b483045022100ce96c2c22b63a6b187853ea718ba292b363dec72819ee4f86a09a82544f6e63a02205b3bd45fc20bd91cf8053f7618b5d91b230423920749483a458594301e8afc800121022aa9327e3e7483f0249cf3b9fdfee7b3c1137fe1225c1fd4fa1010aeeb825539ffffffff030e870200000000001976a9141296208b096dae1054ce0c65d394cbb0d914b66888ac22020000000000001976a9140eea5bcde31224fcd19162cf796b96244128a54588ac0000000000000000166a146f6d6e69000000000000001f0000012ee3aeb10000000000", "vin": [{"sequence": 4294967295, "scriptSig": {"hex": "47304402201597fe469988ebfdda40416bdf78e0227cd6f68cda6e61620c370b5d1860623f022078e511a1948ee48e88eeb0dc42ddd9fd8ac2a49bf5aab6a2cff95916263101bc0121022aa9327e3e7483f0249cf3b9fdfee7b3c1137fe1225c1fd4fa1010aeeb825539", "asm": "304402201597fe469988ebfdda40416bdf78e0227cd6f68cda6e61620c370b5d1860623f022078e511a1948ee48e88eeb0dc42ddd9fd8ac2a49bf5aab6a2cff95916263101bc[ALL] 022aa9327e3e7483f0249cf3b9fdfee7b3c1137fe1225c1fd4fa1010aeeb825539"}, "vout": 2, "txid": "69bf035fbd7750713d318241df4c9cc96876cba0da09ed421197b4856d231458"}, {"sequence": 4294967295, "scriptSig": {"hex": "483045022100ce96c2c22b63a6b187853ea718ba292b363dec72819ee4f86a09a82544f6e63a02205b3bd45fc20bd91cf8053f7618b5d91b230423920749483a458594301e8afc800121022aa9327e3e7483f0249cf3b9fdfee7b3c1137fe1225c1fd4fa1010aeeb825539", "asm": "3045022100ce96c2c22b63a6b187853ea718ba292b363dec72819ee4f86a09a82544f6e63a02205b3bd45fc20bd91cf8053f7618b5d91b230423920749483a458594301e8afc80[ALL] 022aa9327e3e7483f0249cf3b9fdfee7b3c1137fe1225c1fd4fa1010aeeb825539"}, "vout": 0, "txid": "bb60669ecdf1744c56e2d334a95ceb9ce656f4d770add74ee9bb211052fdc4d9"}], "txid": "a6a58290a43f6f5bed75b62248292c4289c335e6e3a26cce1f6faabff56e4cfe", "blocktime": 1537869901, "version": 1, "confirmations": 11522, "time": 1537869901, "locktime": 0, "vsize": 404, "size": 404}