{"hash": "7781a45064e6416e491b55b5eef58e5f0742797bd83b819481924a7a35829385", "blockhash": "00000000000000000024a2167bbff67b0be802c0b01cdd79e6331c2be6459f87", "vout": [{"scriptPubKey": {"reqSigs": 1, "hex": "76a914fb54029c7843add2ef2fb8f4d47865ded7d6ace688ac", "addresses": ["1PuuFHGVFeKMWzfbqEY3Kz8486EK6t3RcH"], "asm": "OP_DUP OP_HASH160 fb54029c7843add2ef2fb8f4d47865ded7d6ace6 OP_EQUALVERIFY OP_CHECKSIG", "type": "pubkeyhash"}, "value": 0.038525, "n": 0}, {"scriptPubKey": {"reqSigs": 1, "hex": "a914194fd14b2945d1953600f10f31dc5ea7182c4f6d87", "addresses": ["33zrSAFbvZnEZV31nqRy5iNMWWvY8DJKCK"], "asm": "OP_HASH160 194fd14b2945d1953600f10f31dc5ea7182c4f6d OP_EQUAL", "type": "scripthash"}, "value": 0.65528904, "n": 1}], "hex": "010000000001016634efa89d7450d9e70d4644d1a5b048394fdab40b135eaae6ddf2cd182253b7010000002322002060ef51b7ecfb52ea0c655e306b323f01e7b8de608fc9d4293cd23b3c459cd566ffffffff02d4c83a00000000001976a914fb54029c7843add2ef2fb8f4d47865ded7d6ace688ac48e4e7030000000017a914194fd14b2945d1953600f10f31dc5ea7182c4f6d870400473044022002b8dfbed0d21d7aac8261efaaecb14ac1d917fbe8ba5c97825022014949cfce02202ec37748ef864ad587a63f170b523745f20859a2ec092b83b4a7e86829def2fa01473044022028361c098c04fc41ba950c3098be7c4ba9629529ff0d8a258aa18715b45d7dde022059fa63a6432aaccad3ee4f5e4500e5de3fc79fdc662de8f695bda180debb5b7e0147522102f7802b299d00291172512988640f7140affa943936545523edc5ebbce60d80982102323233173db696435aec5b35a509b03c6f719b7a38acef262648cf9518535adb52ae00000000", "vin": [{"txinwitness": ["", "3044022002b8dfbed0d21d7aac8261efaaecb14ac1d917fbe8ba5c97825022014949cfce02202ec37748ef864ad587a63f170b523745f20859a2ec092b83b4a7e86829def2fa01", "3044022028361c098c04fc41ba950c3098be7c4ba9629529ff0d8a258aa18715b45d7dde022059fa63a6432aaccad3ee4f5e4500e5de3fc79fdc662de8f695bda180debb5b7e01", "522102f7802b299d00291172512988640f7140affa943936545523edc5ebbce60d80982102323233173db696435aec5b35a509b03c6f719b7a38acef262648cf9518535adb52ae"], "sequence": 4294967295, "scriptSig": {"hex": "22002060ef51b7ecfb52ea0c655e306b323f01e7b8de608fc9d4293cd23b3c459cd566", "asm": "002060ef51b7ecfb52ea0c655e306b323f01e7b8de608fc9d4293cd23b3c459cd566"}, "vout": 1, "txid": "b7532218cdf2dde6aa5e130bb4da4f3948b0a5d144460de7d950749da8ef3466"}], "txid": "a6aa8cf27d9300947bf4925ffbc488ce38830ed277b73cb81a6c28c054d2e415", "blocktime": 1537870564, "version": 1, "confirmations": 11515, "time": 1537870564, "locktime": 0, "vsize": 207, "size": 372}