{"hash": "a6b3dc69c8d3c0a58c4c58b427f6b26a1a6d99b0e1ce2372bbccfe07b6de8f7d", "blockhash": "0000000000000000000baef3f32e3676a92c3b2e5da21b426e4f302fc371ce76", "vout": [{"scriptPubKey": {"reqSigs": 1, "hex": "76a914fd9bb021f21a2ac5e84cb83a886af5619365ee0b88ac", "addresses": ["1Q7xTviptJU7vRcCAyq6zfztAePNDPdNvC"], "asm": "OP_DUP OP_HASH160 fd9bb021f21a2ac5e84cb83a886af5619365ee0b OP_EQUALVERIFY OP_CHECKSIG", "type": "pubkeyhash"}, "value": 0.00093084, "n": 0}, {"scriptPubKey": {"type": "nulldata", "hex": "6a4c500000781d0001ad42223ae4f35bb39ba81a5c019d6ddc0f1b8ff117702940d64fa54d8eb2e23c00c15bb4cc6028b3d7279f80780a5baa1cff0614a1619937fb38bc9a9526289ac0f6612cd74e33776ee4", "asm": "OP_RETURN 0000781d0001ad42223ae4f35bb39ba81a5c019d6ddc0f1b8ff117702940d64fa54d8eb2e23c00c15bb4cc6028b3d7279f80780a5baa1cff0614a1619937fb38bc9a9526289ac0f6612cd74e33776ee4"}, "value": 0.0, "n": 1}], "hex": "010000000110d248fc78d0095663ecd1fdf5a14ff42fcc412d977a7ddf685af8d170be742b000000006b4830450221008e7532cec3bd49fd3c4fed7e11798f3ca630ad710ff2df1fd50cc4ede436016e0220376da631596e00155ec136f2102a2df5b228d809d7398630351da407456fefd5012103083f092e8b1b17989521650b827476918b243f593fe878e586e806c43be0a4ffffffffff029c6b0100000000001976a914fd9bb021f21a2ac5e84cb83a886af5619365ee0b88ac0000000000000000536a4c500000781d0001ad42223ae4f35bb39ba81a5c019d6ddc0f1b8ff117702940d64fa54d8eb2e23c00c15bb4cc6028b3d7279f80780a5baa1cff0614a1619937fb38bc9a9526289ac0f6612cd74e33776ee400000000", "vin": [{"sequence": 4294967295, "scriptSig": {"hex": "4830450221008e7532cec3bd49fd3c4fed7e11798f3ca630ad710ff2df1fd50cc4ede436016e0220376da631596e00155ec136f2102a2df5b228d809d7398630351da407456fefd5012103083f092e8b1b17989521650b827476918b243f593fe878e586e806c43be0a4ff", "asm": "30450221008e7532cec3bd49fd3c4fed7e11798f3ca630ad710ff2df1fd50cc4ede436016e0220376da631596e00155ec136f2102a2df5b228d809d7398630351da407456fefd5[ALL] 03083f092e8b1b17989521650b827476918b243f593fe878e586e806c43be0a4ff"}, "vout": 0, "txid": "2b74be70d1f85a68df7d7a972d41cc2ff44fa1f5fdd1ec635609d078fc48d210"}], "txid": "a6b3dc69c8d3c0a58c4c58b427f6b26a1a6d99b0e1ce2372bbccfe07b6de8f7d", "blocktime": 1537876114, "version": 1, "confirmations": 11460, "time": 1537876114, "locktime": 0, "vsize": 284, "size": 284}