{"hash": "5f7a692a418ba1f0ef6ef4a3473c587d056ec6a1362982312cb4f19629a5952f", "blockhash": "0000000000000000001cda96e906b7601b7a6fb1a3b62bca570a9e5d8f4b3de1", "vout": [{"scriptPubKey": {"reqSigs": 1, "hex": "76a91463e9031eacd04d7327e5dc5784b8fcc40a8c387188ac", "addresses": ["1A7H2xnRwo13DnZtf1veXt8cRVq5EGx7Vi"], "asm": "OP_DUP OP_HASH160 63e9031eacd04d7327e5dc5784b8fcc40a8c3871 OP_EQUALVERIFY OP_CHECKSIG", "type": "pubkeyhash"}, "value": 0.034563, "n": 0}, {"scriptPubKey": {"reqSigs": 1, "hex": "a9145e2fa4b1188578bb86d893a0caa0741e045a700a87", "addresses": ["3AH2WthhZirCk7Sp88jzpPxsYXd7u8Tra7"], "asm": "OP_HASH160 5e2fa4b1188578bb86d893a0caa0741e045a700a OP_EQUAL", "type": "scripthash"}, "value": 0.01584043, "n": 1}], "hex": "02000000000102aa1db70a6b36348044b3c715606dcd89dbffdd4768bff406c09fdf5117b045210000000017160014df6b56e2341aec85a943e1a13d228d7851b31568feffffffb0c588631a34c4cdc190aa0877e8a02537b15cc90718b4328ac86eefda474a8b0000000017160014fa24d4da6b146c1667238b786bbc1de9a1ebb7e9feffffff022cbd3400000000001976a91463e9031eacd04d7327e5dc5784b8fcc40a8c387188acab2b18000000000017a9145e2fa4b1188578bb86d893a0caa0741e045a700a87024730440220642c2a840bf2f4cd7763438b3d6430756cf9b225162789e313f790be2c36ce68022020b3d144f37146b07ee010581c0804509503ed1710103b26fff566a26f741f430121037fadfb1a5c0be05c161beecdfc42d41e619056c8b6726c205185c8e65179c015024730440220451dc597e31e3142fb50df5d16e582dee235c425a743aa12867813333ebf72cb02205e215bec28b15b08fa3c8055580a9ea132575c40ed27ccd5e481899cf525c9b5012102bc005c01fe88ce5b7155eb370117b7a876fc3da48fcda9e8c18a657793f4d39513490800", "vin": [{"txinwitness": ["30440220642c2a840bf2f4cd7763438b3d6430756cf9b225162789e313f790be2c36ce68022020b3d144f37146b07ee010581c0804509503ed1710103b26fff566a26f741f4301", "037fadfb1a5c0be05c161beecdfc42d41e619056c8b6726c205185c8e65179c015"], "sequence": 4294967294, "scriptSig": {"hex": "160014df6b56e2341aec85a943e1a13d228d7851b31568", "asm": "0014df6b56e2341aec85a943e1a13d228d7851b31568"}, "vout": 0, "txid": "2145b01751df9fc006f4bf6847ddffdb89cd6d6015c7b3448034366b0ab71daa"}, {"txinwitness": ["30440220451dc597e31e3142fb50df5d16e582dee235c425a743aa12867813333ebf72cb02205e215bec28b15b08fa3c8055580a9ea132575c40ed27ccd5e481899cf525c9b501", "02bc005c01fe88ce5b7155eb370117b7a876fc3da48fcda9e8c18a657793f4d395"], "sequence": 4294967294, "scriptSig": {"hex": "160014fa24d4da6b146c1667238b786bbc1de9a1ebb7e9", "asm": "0014fa24d4da6b146c1667238b786bbc1de9a1ebb7e9"}, "vout": 0, "txid": "8b4a47daef6ec88a32b41807c95cb13725a0e87708aa90c1cdc4341a6388c5b0"}], "txid": "a6b557bd3fee08a9de829a79da93d8d7cfb14c6fe10603d88dd64d1420d519ca", "blocktime": 1537873282, "version": 2, "confirmations": 11485, "time": 1537873282, "locktime": 542995, "vsize": 258, "size": 420}