{"hash": "0c24bd0c3b80ebe18313eeb31c71ae9071016594c5eb0145042517bfde83339d", "blockhash": "0000000000000000000e13cef7c366c0283d82e591d1acd082e914b08063cdf1", "vout": [{"scriptPubKey": {"reqSigs": 1, "hex": "76a91428a10c59b3716e97e7b0a60d2591f94812287d0f88ac", "addresses": ["14hpxW5aiWmx1QdBcxFhiiBHsTwqRjZjwP"], "asm": "OP_DUP OP_HASH160 28a10c59b3716e97e7b0a60d2591f94812287d0f OP_EQUALVERIFY OP_CHECKSIG", "type": "pubkeyhash"}, "value": 0.0026286, "n": 0}, {"scriptPubKey": {"reqSigs": 1, "hex": "a91499a523ba7ec3f479ca784d9d13f2b11c9a665c3987", "addresses": ["3FhR8zV1DB8brjWF4x5XH51cF4WegBwjeh"], "asm": "OP_HASH160 99a523ba7ec3f479ca784d9d13f2b11c9a665c39 OP_EQUAL", "type": "scripthash"}, "value": 0.00999688, "n": 1}], "hex": "0200000000010205b3b1db96e819fe94573cc84c27b6ce792884a448b21d9339d5d97eaf3f8bc401000000171600145bcf3b16f9681148775e7b540a37256ce4a5a7eefeffffffff394952d9cc68bac7c53db33c859efaafd5d76a55b31cb1c6ae6cfddd8466390500000017160014fe7ab230debcfbe058475e3565b16193028c37e2feffffff02cc020400000000001976a91428a10c59b3716e97e7b0a60d2591f94812287d0f88ac08410f000000000017a91499a523ba7ec3f479ca784d9d13f2b11c9a665c39870246304302207f997d94b76cde085dd3e835c4128359fe2c5e41509321dcedbc567955d7bd1a021f0192553a21d2d8998fc5a91f76cbe8a004e4f50cc4b96b18f989b545da08800121031d673ce9abaea6a3207a5ea170dc91eccda1848e7eb3fb690ac2949868fcc92c0247304402206c2e8791f94e5acdcd46078e0e29fc842a09b581a6a7d4bc6706afee35361ba902200a8799829ab09e33d2e4ce7c3c5083ce7b6bb0cdbf7960f1e77b602fa4fb3be80121036273a2d20480ad07a8d35fe85bb49317f0db8a3df3447a79eae926477aa9fa330f490800", "vin": [{"txinwitness": ["304302207f997d94b76cde085dd3e835c4128359fe2c5e41509321dcedbc567955d7bd1a021f0192553a21d2d8998fc5a91f76cbe8a004e4f50cc4b96b18f989b545da088001", "031d673ce9abaea6a3207a5ea170dc91eccda1848e7eb3fb690ac2949868fcc92c"], "sequence": 4294967294, "scriptSig": {"hex": "1600145bcf3b16f9681148775e7b540a37256ce4a5a7ee", "asm": "00145bcf3b16f9681148775e7b540a37256ce4a5a7ee"}, "vout": 1, "txid": "c48b3faf7ed9d539931db248a4842879ceb6274cc83c5794fe19e896dbb1b305"}, {"txinwitness": ["304402206c2e8791f94e5acdcd46078e0e29fc842a09b581a6a7d4bc6706afee35361ba902200a8799829ab09e33d2e4ce7c3c5083ce7b6bb0cdbf7960f1e77b602fa4fb3be801", "036273a2d20480ad07a8d35fe85bb49317f0db8a3df3447a79eae926477aa9fa33"], "sequence": 4294967294, "scriptSig": {"hex": "160014fe7ab230debcfbe058475e3565b16193028c37e2", "asm": "0014fe7ab230debcfbe058475e3565b16193028c37e2"}, "vout": 5, "txid": "396684ddfd6caec6b11cb3556ad7d5affa9e853cb33dc5c7ba68ccd9524939ff"}], "txid": "a6b5c5624e15a14d0cddf466fe91fd517cd792fab992fa0dc663d519341dcccf", "blocktime": 1537871767, "version": 2, "confirmations": 11495, "time": 1537871767, "locktime": 542991, "vsize": 258, "size": 419}