{"hash": "a6bf243a6d1a74b2420cf753aed98a201c664654f2a302568973c7515df3308d", "blockhash": "00000000000000000018f53835495a110e01622372bf6ae95dc86f2b0ab887b0", "vout": [{"scriptPubKey": {"reqSigs": 1, "hex": "76a9147634c6f12b71e6ef47b29c9c85980c87034f7e3588ac", "addresses": ["1Bn1xexPq96MJ2hqhvZEPWCwMVMTYh9U2m"], "asm": "OP_DUP OP_HASH160 7634c6f12b71e6ef47b29c9c85980c87034f7e35 OP_EQUALVERIFY OP_CHECKSIG", "type": "pubkeyhash"}, "value": 5.46e-06, "n": 0}, {"scriptPubKey": {"reqSigs": 1, "hex": "76a914a520c86a08366941cd90d22e11ac1c7eefa2db3788ac", "addresses": ["1G47mSr3oANXMafVrR8UC4pzV7FEAzo3r9"], "asm": "OP_DUP OP_HASH160 a520c86a08366941cd90d22e11ac1c7eefa2db37 OP_EQUALVERIFY OP_CHECKSIG", "type": "pubkeyhash"}, "value": 1.07953274, "n": 1}, {"scriptPubKey": {"type": "nulldata", "hex": "6a146f6d6e69000000000000001f0000009b46566d00", "asm": "OP_RETURN 6f6d6e69000000000000001f0000009b46566d00"}, "value": 0.0, "n": 2}], "hex": "010000000118fcad145142b09e550002839965a62879e7d6492f1898382836236bbb136daf010000006a47304402201545108beac9f2eed388483f3b47ae8799f4497ecd9420563b87cf984dfc05cb0220465a5d77985ec90d3c438f68028a97bdeb7e41b8dcd280ac8cf019250429b86c012103f3f44c9e80e2cedc1a2909631a3adea8866ee32187f74d0912387359b0ff36a2ffffffff0322020000000000001976a9147634c6f12b71e6ef47b29c9c85980c87034f7e3588ac7a3c6f06000000001976a914a520c86a08366941cd90d22e11ac1c7eefa2db3788ac0000000000000000166a146f6d6e69000000000000001f0000009b46566d0000000000", "vin": [{"sequence": 4294967295, "scriptSig": {"hex": "47304402201545108beac9f2eed388483f3b47ae8799f4497ecd9420563b87cf984dfc05cb0220465a5d77985ec90d3c438f68028a97bdeb7e41b8dcd280ac8cf019250429b86c012103f3f44c9e80e2cedc1a2909631a3adea8866ee32187f74d0912387359b0ff36a2", "asm": "304402201545108beac9f2eed388483f3b47ae8799f4497ecd9420563b87cf984dfc05cb0220465a5d77985ec90d3c438f68028a97bdeb7e41b8dcd280ac8cf019250429b86c[ALL] 03f3f44c9e80e2cedc1a2909631a3adea8866ee32187f74d0912387359b0ff36a2"}, "vout": 1, "txid": "af6d13bb6b2336283898182f49d6e77928a66599830200559eb0425114adfc18"}], "txid": "a6bf243a6d1a74b2420cf753aed98a201c664654f2a302568973c7515df3308d", "blocktime": 1537870928, "version": 1, "confirmations": 11512, "time": 1537870928, "locktime": 0, "vsize": 256, "size": 256}