{"hash": "a6c8128227123ad30a5590b98e4c8bcb99d34dca2ab86f369c6ce5ee9a5dba15", "blockhash": "0000000000000000000e13cef7c366c0283d82e591d1acd082e914b08063cdf1", "vout": [{"scriptPubKey": {"reqSigs": 1, "hex": "76a9146b66cd0ee49dc7a8c0a09934a82d169d38a8033688ac", "addresses": ["1AntTGNxBe1zJkmCdDv4JYU1JzcH6atthm"], "asm": "OP_DUP OP_HASH160 6b66cd0ee49dc7a8c0a09934a82d169d38a80336 OP_EQUALVERIFY OP_CHECKSIG", "type": "pubkeyhash"}, "value": 0.025, "n": 0}, {"scriptPubKey": {"reqSigs": 1, "hex": "76a9143b95cfe95cc47d8e4684956af47797c6baa107d888ac", "addresses": ["16S4LT3NDHe7syjrvjv5DqAMQws6BrFzJB"], "asm": "OP_DUP OP_HASH160 3b95cfe95cc47d8e4684956af47797c6baa107d8 OP_EQUALVERIFY OP_CHECKSIG", "type": "pubkeyhash"}, "value": 0.07207643, "n": 1}], "hex": "01000000014f20942f202de91cfd17021e933d1a60dde94b45e3bf7a3332e6afe3860d3764010000006b483045022100f8b1aa7e262a0cf9f30d4ac03d3931abe52fd7dd42cab313750d0687c0c5330e022028bda572b954692bc398c5393844230569fcbbcfb5331e31978dd0fbfa43c562012102e489dd33802b1fcf12b6dd652f04e57ee80592d5abd4146495e55c4dd497c329ffffffff02a0252600000000001976a9146b66cd0ee49dc7a8c0a09934a82d169d38a8033688acdbfa6d00000000001976a9143b95cfe95cc47d8e4684956af47797c6baa107d888ac00000000", "vin": [{"sequence": 4294967295, "scriptSig": {"hex": "483045022100f8b1aa7e262a0cf9f30d4ac03d3931abe52fd7dd42cab313750d0687c0c5330e022028bda572b954692bc398c5393844230569fcbbcfb5331e31978dd0fbfa43c562012102e489dd33802b1fcf12b6dd652f04e57ee80592d5abd4146495e55c4dd497c329", "asm": "3045022100f8b1aa7e262a0cf9f30d4ac03d3931abe52fd7dd42cab313750d0687c0c5330e022028bda572b954692bc398c5393844230569fcbbcfb5331e31978dd0fbfa43c562[ALL] 02e489dd33802b1fcf12b6dd652f04e57ee80592d5abd4146495e55c4dd497c329"}, "vout": 1, "txid": "64370d86e3afe632337abfe3454be9dd601a3d931e0217fd1ce92d202f94204f"}], "txid": "a6c8128227123ad30a5590b98e4c8bcb99d34dca2ab86f369c6ce5ee9a5dba15", "blocktime": 1537871767, "version": 1, "confirmations": 11493, "time": 1537871767, "locktime": 0, "vsize": 226, "size": 226}