{"hash": "8d69edda2c53dc07f766392702d7d093af277c245073f8ad94543af3cf215af5", "blockhash": "0000000000000000001f76057863aec43deb6fa401d9628bb513d65a8098bfab", "vout": [{"scriptPubKey": {"reqSigs": 1, "hex": "76a914de3361d69a7885f3f95e1d35bd02c8cf725bb98f88ac", "addresses": ["1MFtZgcAJtfmmy5MrBNYvHsVnCaY7oWgst"], "asm": "OP_DUP OP_HASH160 de3361d69a7885f3f95e1d35bd02c8cf725bb98f OP_EQUALVERIFY OP_CHECKSIG", "type": "pubkeyhash"}, "value": 0.0013978, "n": 0}, {"scriptPubKey": {"reqSigs": 1, "hex": "a914a5c679defd49547b8133a1367eeadbdeaecec3da87", "addresses": ["3GoZBZ6F8g4UiCt7moPNLDX7KKwgtGgLUT"], "asm": "OP_HASH160 a5c679defd49547b8133a1367eeadbdeaecec3da OP_EQUAL", "type": "scripthash"}, "value": 0.31472228, "n": 1}], "hex": "01000000000101d2a9656edbc2df828a600fab2bde2ff6acbd7ff2a8ce7a84eee0eaf790c6be4101000000232200202d90cd274cea8141a030c0b79acc5b5c0b80b73d028692a1104913808bff6c09ffffffff0204220200000000001976a914de3361d69a7885f3f95e1d35bd02c8cf725bb98f88ac643ae0010000000017a914a5c679defd49547b8133a1367eeadbdeaecec3da870400473044022007b14c176f12eafc9ec2266cdc79de8d6eebdf4f13de0c0a87eaa445ef07b780022017bc4c1d3ed23621607ad00d603c6f2da779a74a52f7b27b5c42f34b91a62e0a0147304402201c30a3455e57538618b96631c986ad3146d42868709900d1f81c409cef7b5bf80220196c63518c23c28b88995db98efd45511c31208b35ad7583d283b75996c0c74c014752210295d70c0f10033e6e119fdc61ddd495bfe23995150af6df4688db5bf235f2853b21023e4b58fb2a91970de56515d11487aabd364f0404f1099bef70493cc56002342352ae00000000", "vin": [{"txinwitness": ["", "3044022007b14c176f12eafc9ec2266cdc79de8d6eebdf4f13de0c0a87eaa445ef07b780022017bc4c1d3ed23621607ad00d603c6f2da779a74a52f7b27b5c42f34b91a62e0a01", "304402201c30a3455e57538618b96631c986ad3146d42868709900d1f81c409cef7b5bf80220196c63518c23c28b88995db98efd45511c31208b35ad7583d283b75996c0c74c01", "52210295d70c0f10033e6e119fdc61ddd495bfe23995150af6df4688db5bf235f2853b21023e4b58fb2a91970de56515d11487aabd364f0404f1099bef70493cc56002342352ae"], "sequence": 4294967295, "scriptSig": {"hex": "2200202d90cd274cea8141a030c0b79acc5b5c0b80b73d028692a1104913808bff6c09", "asm": "00202d90cd274cea8141a030c0b79acc5b5c0b80b73d028692a1104913808bff6c09"}, "vout": 1, "txid": "41bec690f7eae0ee847acea8f27fbdacf62fde2bab0f608a82dfc2db6e65a9d2"}], "txid": "a6d1ec6302b485b52020bfb5f1bdd9f011f476478615a55af9a3bdbc5ea06cff", "blocktime": 1537873891, "version": 1, "confirmations": 11478, "time": 1537873891, "locktime": 0, "vsize": 207, "size": 372}