{"hash": "a6d854d8c31fa7d95e1290023b6301d4731b2f6c7e4f44dd7e8e88d47af098d0", "blockhash": "0000000000000000000dcc0f55137456b1a82d3642486a52398922ac4d620174", "vout": [{"scriptPubKey": {"reqSigs": 1, "hex": "a914cd60dccf2a8215c6b836f4f4939123f8963a723287", "addresses": ["3LQxUzikM2rWBhUFrLFNiuWPbPLLJn84DB"], "asm": "OP_HASH160 cd60dccf2a8215c6b836f4f4939123f8963a7232 OP_EQUAL", "type": "scripthash"}, "value": 0.00400851, "n": 0}], "hex": "0100000001021281d0be8644830cb7d4a532f133ef981deb03359cc3a370c24f598f8a0efb010000008a47304402206811a5c54d9439e7ac5cb763a926760b53ca4205a0965d1386013a74a457f54e02205a491e3c7de6a882e1eda7868e1165dd1b62c11639f17f653a03522f5c17c0ac01410481e00c0699261e9bddcce40a1d55ce71cda8104f8d1d43af0b3265d7a192ab42bacb67f2c923225f728eb94b06323724f494d401da48a6fd032b8219f268f101ffffffff01d31d06000000000017a914cd60dccf2a8215c6b836f4f4939123f8963a72328700000000", "vin": [{"sequence": 4294967295, "scriptSig": {"hex": "47304402206811a5c54d9439e7ac5cb763a926760b53ca4205a0965d1386013a74a457f54e02205a491e3c7de6a882e1eda7868e1165dd1b62c11639f17f653a03522f5c17c0ac01410481e00c0699261e9bddcce40a1d55ce71cda8104f8d1d43af0b3265d7a192ab42bacb67f2c923225f728eb94b06323724f494d401da48a6fd032b8219f268f101", "asm": "304402206811a5c54d9439e7ac5cb763a926760b53ca4205a0965d1386013a74a457f54e02205a491e3c7de6a882e1eda7868e1165dd1b62c11639f17f653a03522f5c17c0ac[ALL] 0481e00c0699261e9bddcce40a1d55ce71cda8104f8d1d43af0b3265d7a192ab42bacb67f2c923225f728eb94b06323724f494d401da48a6fd032b8219f268f101"}, "vout": 1, "txid": "fb0e8a8f594fc270a3c39c3503eb1d98ef33f132a5d4b70c834486bed0811202"}], "txid": "a6d854d8c31fa7d95e1290023b6301d4731b2f6c7e4f44dd7e8e88d47af098d0", "blocktime": 1537870268, "version": 1, "confirmations": 11516, "time": 1537870268, "locktime": 0, "vsize": 221, "size": 221}