{"hash": "ec4e56fb4b8a833c825905611e8ee2ad2d30a62009245a3cb09c59deea624756", "blockhash": "0000000000000000001f76057863aec43deb6fa401d9628bb513d65a8098bfab", "vout": [{"scriptPubKey": {"reqSigs": 1, "hex": "76a914767923ce71141ebee311ac6c18696ddc27915fd688ac", "addresses": ["1BoRrajcXgEGhQr9bA9EshJFrTBNihzmMv"], "asm": "OP_DUP OP_HASH160 767923ce71141ebee311ac6c18696ddc27915fd6 OP_EQUALVERIFY OP_CHECKSIG", "type": "pubkeyhash"}, "value": 0.00240005, "n": 0}, {"scriptPubKey": {"reqSigs": 1, "hex": "a914e2ed14bb7039a7edc88e3431dd6838a2d6c25e8d87", "addresses": ["3NNteaC255iafCzjb3NqGMLRh3DEkJi8RR"], "asm": "OP_HASH160 e2ed14bb7039a7edc88e3431dd6838a2d6c25e8d OP_EQUAL", "type": "scripthash"}, "value": 0.00999546, "n": 1}], "hex": "02000000000105104fa74da6d6ae8082c0433f3c0cbd4cf444a769ee6252d6e09398ad3cc1280a0b000000171600140a609bafdf26837cf9ec9995cfe88828f1bc5781feffffff21707b1e13de6a356293546331fb242255acca27e2087a35b9ff586a0ad81e6b0400000017160014baeaba114a38de0077e7a6d121d1f3429d254b9dfeffffff95aeff8295c6c65627eec7bf36429a342242cf5d646275d957f46db4446ff44e0000000017160014babd73280b49f4ac469e3a7d6e1851b07a8463a5feffffff9b6d510d3c38835fdb3ac3f2fa72349126bbaa31192f5ab5124455823a74a21304000000171600142614c761648ed00282d888819d2689d04f763c2cfefffffff85193ea7437681962790d6773688ad9c199b1c7437437e2a888335effe10deb2a00000017160014bff6f47c5db74b1db8bce7ab0526104b8c0e4ac4feffffff0285a90300000000001976a914767923ce71141ebee311ac6c18696ddc27915fd688ac7a400f000000000017a914e2ed14bb7039a7edc88e3431dd6838a2d6c25e8d8702473044022057d3dc93dfd299633c4276d8325a5c5fe866245dfedec43e528b12529954d46402202a5963a9a9f25dd46973d5591f39785fb22fa97d1b4beee7032b61c90441f85801210328de5e4846b59c788876b23760682df87f7ccfac23fecf63f8c2d0029c667ec0024730440220162cc85b03fe498bcf5abc86090af3275a3089e7c5564bb8fc1eda6240d934bf022055fa22caf3994f33f762c825b11ece8952409734774378ac069756f171e24fff01210246587a24b54312d4b16fcd26cc419e64551655f3b25af40524864feb48d4e36102483045022100e9e0b005742ab194ed116ce9aebf6c80acae02b62d6a179606d6481727411bbe02203187943b651f909c63ec336729707c81fa60e261fcd1aafd2f02261c87a326cf0121037b881b094d9d5537ab0cc02cdb64793047b700679e1be4a39e9f1d78e916a7f60247304402204b0271df5aa5be3fa48304de6761683c78cc1d262ab2e85f9cf57be14756260202204852a545ed7dfbb04f03e16e1a12effc480a5532ba5e262e7808c286c11e5d4a012103bab6ff3a6d0710bc144c11cdaefbd8e445719739ad142a1cffb714b5981973f002483045022100c04e7b8b1fcd423e632b161e8a1340baf0f7b83f514d008a5b1882a745b0a85802200e090771b3ae484502583ba180eda6becf48f8364ffdfb1d8f38a03d6cf0735701210327dcd867e1855179cb1faabe01d65857ab11d6006854755b1467931023ea92a014490800", "vin": [{"txinwitness": ["3044022057d3dc93dfd299633c4276d8325a5c5fe866245dfedec43e528b12529954d46402202a5963a9a9f25dd46973d5591f39785fb22fa97d1b4beee7032b61c90441f85801", "0328de5e4846b59c788876b23760682df87f7ccfac23fecf63f8c2d0029c667ec0"], "sequence": 4294967294, "scriptSig": {"hex": "1600140a609bafdf26837cf9ec9995cfe88828f1bc5781", "asm": "00140a609bafdf26837cf9ec9995cfe88828f1bc5781"}, "vout": 11, "txid": "0a28c13cad9893e0d65262ee69a744f44cbd0c3c3f43c08280aed6a64da74f10"}, {"txinwitness": ["30440220162cc85b03fe498bcf5abc86090af3275a3089e7c5564bb8fc1eda6240d934bf022055fa22caf3994f33f762c825b11ece8952409734774378ac069756f171e24fff01", "0246587a24b54312d4b16fcd26cc419e64551655f3b25af40524864feb48d4e361"], "sequence": 4294967294, "scriptSig": {"hex": "160014baeaba114a38de0077e7a6d121d1f3429d254b9d", "asm": "0014baeaba114a38de0077e7a6d121d1f3429d254b9d"}, "vout": 4, "txid": "6b1ed80a6a58ffb9357a08e227caac552224fb3163549362356ade131e7b7021"}, {"txinwitness": ["3045022100e9e0b005742ab194ed116ce9aebf6c80acae02b62d6a179606d6481727411bbe02203187943b651f909c63ec336729707c81fa60e261fcd1aafd2f02261c87a326cf01", "037b881b094d9d5537ab0cc02cdb64793047b700679e1be4a39e9f1d78e916a7f6"], "sequence": 4294967294, "scriptSig": {"hex": "160014babd73280b49f4ac469e3a7d6e1851b07a8463a5", "asm": "0014babd73280b49f4ac469e3a7d6e1851b07a8463a5"}, "vout": 0, "txid": "4ef46f44b46df457d97562645dcf4222349a4236bfc7ee2756c6c69582ffae95"}, {"txinwitness": ["304402204b0271df5aa5be3fa48304de6761683c78cc1d262ab2e85f9cf57be14756260202204852a545ed7dfbb04f03e16e1a12effc480a5532ba5e262e7808c286c11e5d4a01", "03bab6ff3a6d0710bc144c11cdaefbd8e445719739ad142a1cffb714b5981973f0"], "sequence": 4294967294, "scriptSig": {"hex": "1600142614c761648ed00282d888819d2689d04f763c2c", "asm": "00142614c761648ed00282d888819d2689d04f763c2c"}, "vout": 4, "txid": "13a2743a82554412b55a2f1931aabb26913472faf2c33adb5f83383c0d516d9b"}, {"txinwitness": ["3045022100c04e7b8b1fcd423e632b161e8a1340baf0f7b83f514d008a5b1882a745b0a85802200e090771b3ae484502583ba180eda6becf48f8364ffdfb1d8f38a03d6cf0735701", "0327dcd867e1855179cb1faabe01d65857ab11d6006854755b1467931023ea92a0"], "sequence": 4294967294, "scriptSig": {"hex": "160014bff6f47c5db74b1db8bce7ab0526104b8c0e4ac4", "asm": "0014bff6f47c5db74b1db8bce7ab0526104b8c0e4ac4"}, "vout": 42, "txid": "eb0de1ff5e3388a8e2377443c7b199c1d98a6873670d796219683774ea9351f8"}], "txid": "a6da51e4bd51e2f6273304f869ef4af095ad0073347cd0b495cdcc059f84f39e", "blocktime": 1537873891, "version": 2, "confirmations": 11478, "time": 1537873891, "locktime": 542996, "vsize": 531, "size": 935}