{"hash": "a6dda675c38e10bf11576c00cbccc6570a3d0bf822f91b8b4b38eca1f8880c23", "blockhash": "0000000000000000000baef3f32e3676a92c3b2e5da21b426e4f302fc371ce76", "vout": [{"scriptPubKey": {"reqSigs": 1, "hex": "76a914f88441d2b7023052f725d4768cd07daa2945c6a288ac", "addresses": ["1Pf31xfvemh5sXgZSAeApmUD13vs8HfZCH"], "asm": "OP_DUP OP_HASH160 f88441d2b7023052f725d4768cd07daa2945c6a2 OP_EQUALVERIFY OP_CHECKSIG", "type": "pubkeyhash"}, "value": 0.0059, "n": 0}, {"scriptPubKey": {"reqSigs": 1, "hex": "76a9146586ced214191eaee684bf8787713d2671eff5aa88ac", "addresses": ["1AFpjzWNNtmMamjbbSSNLiVdktzrYMspCQ"], "asm": "OP_DUP OP_HASH160 6586ced214191eaee684bf8787713d2671eff5aa OP_EQUALVERIFY OP_CHECKSIG", "type": "pubkeyhash"}, "value": 0.15260996, "n": 1}], "hex": "02000000014ba460a870bddae1472aad6b88d22813bee96ac7a0e361417d082f483c7c7e6a010000006a47304402203406f94244fdddf3ee126c2b4746bb1cc375e72792155e4dc080db9c302789f8022018ee89a71628385cffe64349634d13b707e39a5d776933910af2f0aeec09871d01210210dac65f236a05432a1dbd2f909aa1c6e1870304203e734e8d07db9b57443d46ffffffff02b0000900000000001976a914f88441d2b7023052f725d4768cd07daa2945c6a288ac44dde800000000001976a9146586ced214191eaee684bf8787713d2671eff5aa88ac00000000", "vin": [{"sequence": 4294967295, "scriptSig": {"hex": "47304402203406f94244fdddf3ee126c2b4746bb1cc375e72792155e4dc080db9c302789f8022018ee89a71628385cffe64349634d13b707e39a5d776933910af2f0aeec09871d01210210dac65f236a05432a1dbd2f909aa1c6e1870304203e734e8d07db9b57443d46", "asm": "304402203406f94244fdddf3ee126c2b4746bb1cc375e72792155e4dc080db9c302789f8022018ee89a71628385cffe64349634d13b707e39a5d776933910af2f0aeec09871d[ALL] 0210dac65f236a05432a1dbd2f909aa1c6e1870304203e734e8d07db9b57443d46"}, "vout": 1, "txid": "6a7e7c3c482f087d4161e3a0c76ae9be1328d2886bad2a47e1dabd70a860a44b"}], "txid": "a6dda675c38e10bf11576c00cbccc6570a3d0bf822f91b8b4b38eca1f8880c23", "blocktime": 1537876114, "version": 2, "confirmations": 11460, "time": 1537876114, "locktime": 0, "vsize": 225, "size": 225}