{"hash": "a6e82a3bf5675b0cfbb043292fbdff09e748b2c4bf70ff1b81fffdb1556b1d93", "blockhash": "0000000000000000000e13cef7c366c0283d82e591d1acd082e914b08063cdf1", "vout": [{"scriptPubKey": {"reqSigs": 1, "hex": "76a914d419c3de9be673011e1c9db9987c91864d7a9fe788ac", "addresses": ["1LLV7rrtX34i4yKtKnxXaeLwCBm1mC434V"], "asm": "OP_DUP OP_HASH160 d419c3de9be673011e1c9db9987c91864d7a9fe7 OP_EQUALVERIFY OP_CHECKSIG", "type": "pubkeyhash"}, "value": 2.73e-05, "n": 0}, {"scriptPubKey": {"reqSigs": 1, "hex": "76a914ab2a9d50d30937548f24999a134f7b21dbb99a2a88ac", "addresses": ["1Gc3biG5hsHAoj4ZNAtnT4sCBbtF9sKEEL"], "asm": "OP_DUP OP_HASH160 ab2a9d50d30937548f24999a134f7b21dbb99a2a OP_EQUALVERIFY OP_CHECKSIG", "type": "pubkeyhash"}, "value": 0.00587607, "n": 1}, {"scriptPubKey": {"type": "nulldata", "hex": "6a146f6d6e69000000000000001f00000417bce6c800", "asm": "OP_RETURN 6f6d6e69000000000000001f00000417bce6c800"}, "value": 0.0, "n": 2}], "hex": "0100000001a117483af9a731b43139d0619f724f3e679b6925e93bf379f61e04c081c8478c010000006a473044022057782e0ff704ddefadb7277144af51d0e90ff386f81a0c9282b565c97fb067f202202434673d5dc800ad025f0b0a2cd7f80acc2b8cc078a82f819456304f871a840201210390424deb98da6c45c0af5063423f08c91c8161cac684e32e1a05023933e974b9ffffffff03aa0a0000000000001976a914d419c3de9be673011e1c9db9987c91864d7a9fe788ac57f70800000000001976a914ab2a9d50d30937548f24999a134f7b21dbb99a2a88ac0000000000000000166a146f6d6e69000000000000001f00000417bce6c80000000000", "vin": [{"sequence": 4294967295, "scriptSig": {"hex": "473044022057782e0ff704ddefadb7277144af51d0e90ff386f81a0c9282b565c97fb067f202202434673d5dc800ad025f0b0a2cd7f80acc2b8cc078a82f819456304f871a840201210390424deb98da6c45c0af5063423f08c91c8161cac684e32e1a05023933e974b9", "asm": "3044022057782e0ff704ddefadb7277144af51d0e90ff386f81a0c9282b565c97fb067f202202434673d5dc800ad025f0b0a2cd7f80acc2b8cc078a82f819456304f871a8402[ALL] 0390424deb98da6c45c0af5063423f08c91c8161cac684e32e1a05023933e974b9"}, "vout": 1, "txid": "8c47c881c0041ef679f33be925699b673e4f729f61d03931b431a7f93a4817a1"}], "txid": "a6e82a3bf5675b0cfbb043292fbdff09e748b2c4bf70ff1b81fffdb1556b1d93", "blocktime": 1537871767, "version": 1, "confirmations": 11494, "time": 1537871767, "locktime": 0, "vsize": 256, "size": 256}