{"hash": "a6ea972c0f07e124b91ba62a66adeaa8de64407abe537e06fdd254ea3203e68e", "blockhash": "0000000000000000000baef3f32e3676a92c3b2e5da21b426e4f302fc371ce76", "vout": [{"scriptPubKey": {"reqSigs": 1, "hex": "a914c17eb26dfdfe3f380a93777d69344b774040b4af87", "addresses": ["3KL87dPn22RSif3g78zDV8meeF1TmxgSHX"], "asm": "OP_HASH160 c17eb26dfdfe3f380a93777d69344b774040b4af OP_EQUAL", "type": "scripthash"}, "value": 0.011, "n": 0}, {"scriptPubKey": {"reqSigs": 1, "hex": "76a9146129a863f862fbf59b835656c16f989b680f637d88ac", "addresses": ["19rkT3MLuGTsJHBZs3BN1Fb1MZQQaw5GsQ"], "asm": "OP_DUP OP_HASH160 6129a863f862fbf59b835656c16f989b680f637d OP_EQUALVERIFY OP_CHECKSIG", "type": "pubkeyhash"}, "value": 0.01037538, "n": 1}], "hex": "0100000001fe58da41f1cc8aeb2439c64e65f6c34a324629b766bc5f8249b00f73a47cb5be000000006a473044022060e9cd64641803947f8f7334330901c5de28698ef34d88c64de0fb38574bb681022031125033687bead3ea07ce60e767f0b1463a0fa450706eabbf8cbfe524ba9094012103d313dc1792d478f70cd7d1e7041a358f84b132a24fadfdebf4213bf12c3a91bfffffffff02e0c810000000000017a914c17eb26dfdfe3f380a93777d69344b774040b4af87e2d40f00000000001976a9146129a863f862fbf59b835656c16f989b680f637d88ac00000000", "vin": [{"sequence": 4294967295, "scriptSig": {"hex": "473044022060e9cd64641803947f8f7334330901c5de28698ef34d88c64de0fb38574bb681022031125033687bead3ea07ce60e767f0b1463a0fa450706eabbf8cbfe524ba9094012103d313dc1792d478f70cd7d1e7041a358f84b132a24fadfdebf4213bf12c3a91bf", "asm": "3044022060e9cd64641803947f8f7334330901c5de28698ef34d88c64de0fb38574bb681022031125033687bead3ea07ce60e767f0b1463a0fa450706eabbf8cbfe524ba9094[ALL] 03d313dc1792d478f70cd7d1e7041a358f84b132a24fadfdebf4213bf12c3a91bf"}, "vout": 0, "txid": "beb57ca4730fb049825fbc66b72946324ac3f6654ec63924eb8accf141da58fe"}], "txid": "a6ea972c0f07e124b91ba62a66adeaa8de64407abe537e06fdd254ea3203e68e", "blocktime": 1537876114, "version": 1, "confirmations": 11459, "time": 1537876114, "locktime": 0, "vsize": 223, "size": 223}