{"hash": "a6ece6df122e87a984a4891c383d559f0f5d4a6fb3e4657277c4a0ff2403f84b", "blockhash": "00000000000000000004ffacab907a6b429b9a5745fa0b75af4234bf69dd7176", "vout": [{"scriptPubKey": {"reqSigs": 1, "hex": "76a9149636d14c30435cd1123f40befe88cebb190ff7ea88ac", "addresses": ["1EhG2Zq5PzuLgkFHzkncNYcqq3wbHbgE6b"], "asm": "OP_DUP OP_HASH160 9636d14c30435cd1123f40befe88cebb190ff7ea OP_EQUALVERIFY OP_CHECKSIG", "type": "pubkeyhash"}, "value": 0.00895601, "n": 0}, {"scriptPubKey": {"reqSigs": 1, "hex": "a914aac979c3da735015b1d16e17c4add7225e6384ef87", "addresses": ["3HG49vnWBcwDKjZhT1oQRzoc86M79RC2Dm"], "asm": "OP_HASH160 aac979c3da735015b1d16e17c4add7225e6384ef OP_EQUAL", "type": "scripthash"}, "value": 0.04097047, "n": 1}], "hex": "0200000003c07264e1a5ae3c35e703df3b1188b6578f1d2701cf65dd06b2c9d8081b6f2318010000006a47304402201430cbe2ed5ae2387a4d4b70039e9f68ddb6ec6e9dacfaf9f5aebe812a85bc7402205121046071c9bedbb6e32896a49af3851045c8ffaf92e7c2f5259dd9a5cc4ec901210392d18c58918f3bf99a6e0c61be907f54aed6f35fc9a41998aa59cdfaab5c3f78feffffffb081efe3ffd17be94c6bbcc7dd9a8405564a7a0e16c3e20d0cc37b3987551fe5010000006a47304402203c59887bea10893bc3fb1e036b848384dfbaa7d40d4e079dad2edf1e487c3edb02203ee1703ce5f635eba06f98276483e768cc53594d469a13430a6563eb93d2990b0121039d475715791f1902af86b90627cb16f42f40ed75bd5ed0b06c9f27a7726ff34efeffffff491b646b208feb207f1c48a4ad34e5f83940e60047da1c8f014418db9ae89ed1520000006a473044022027700905224794095ad1dfb7fb0ec05730b47eafcac46d19a9634894bc38672d02201c8c49107eaadf99b7aaa65454b8c1b2074133b9c66b78e94a7fad64d61b09f2012102e7b2711fc868bbd905e669bd9c98af06d3dccd5d59f8cc9589ddc4739f1e4b18feffffff0271aa0d00000000001976a9149636d14c30435cd1123f40befe88cebb190ff7ea88ac17843e000000000017a914aac979c3da735015b1d16e17c4add7225e6384ef8716490800", "vin": [{"sequence": 4294967294, "scriptSig": {"hex": "47304402201430cbe2ed5ae2387a4d4b70039e9f68ddb6ec6e9dacfaf9f5aebe812a85bc7402205121046071c9bedbb6e32896a49af3851045c8ffaf92e7c2f5259dd9a5cc4ec901210392d18c58918f3bf99a6e0c61be907f54aed6f35fc9a41998aa59cdfaab5c3f78", "asm": "304402201430cbe2ed5ae2387a4d4b70039e9f68ddb6ec6e9dacfaf9f5aebe812a85bc7402205121046071c9bedbb6e32896a49af3851045c8ffaf92e7c2f5259dd9a5cc4ec9[ALL] 0392d18c58918f3bf99a6e0c61be907f54aed6f35fc9a41998aa59cdfaab5c3f78"}, "vout": 1, "txid": "18236f1b08d8c9b206dd65cf01271d8f57b688113bdf03e7353caea5e16472c0"}, {"sequence": 4294967294, "scriptSig": {"hex": "47304402203c59887bea10893bc3fb1e036b848384dfbaa7d40d4e079dad2edf1e487c3edb02203ee1703ce5f635eba06f98276483e768cc53594d469a13430a6563eb93d2990b0121039d475715791f1902af86b90627cb16f42f40ed75bd5ed0b06c9f27a7726ff34e", "asm": "304402203c59887bea10893bc3fb1e036b848384dfbaa7d40d4e079dad2edf1e487c3edb02203ee1703ce5f635eba06f98276483e768cc53594d469a13430a6563eb93d2990b[ALL] 039d475715791f1902af86b90627cb16f42f40ed75bd5ed0b06c9f27a7726ff34e"}, "vout": 1, "txid": "e51f5587397bc30c0de2c3160e7a4a5605849addc7bc6b4ce97bd1ffe3ef81b0"}, {"sequence": 4294967294, "scriptSig": {"hex": "473044022027700905224794095ad1dfb7fb0ec05730b47eafcac46d19a9634894bc38672d02201c8c49107eaadf99b7aaa65454b8c1b2074133b9c66b78e94a7fad64d61b09f2012102e7b2711fc868bbd905e669bd9c98af06d3dccd5d59f8cc9589ddc4739f1e4b18", "asm": "3044022027700905224794095ad1dfb7fb0ec05730b47eafcac46d19a9634894bc38672d02201c8c49107eaadf99b7aaa65454b8c1b2074133b9c66b78e94a7fad64d61b09f2[ALL] 02e7b2711fc868bbd905e669bd9c98af06d3dccd5d59f8cc9589ddc4739f1e4b18"}, "vout": 82, "txid": "d19ee89adb1844018f1cda4700e64039f8e534ada4481c7f20eb8f206b641b49"}], "txid": "a6ece6df122e87a984a4891c383d559f0f5d4a6fb3e4657277c4a0ff2403f84b", "blocktime": 1537875543, "version": 2, "confirmations": 11464, "time": 1537875543, "locktime": 542998, "vsize": 517, "size": 517}