{"hash": "a6f761d8e75a5bf6e691c2478e7793190c2297284ecf0a8dbbc8c922422624cd", "blockhash": "000000000000000000022b45ed06c6f4ccd3cf7fb5ba4856ebd2e58215665228", "vout": [{"scriptPubKey": {"type": "nulldata", "hex": "6a4c50000077620001ab72021cbf7a9755e6aa0aff86aeaeacb577c031fc3a016b46dc7dc7d0965ece4a7c5dd9de064fcf302c11a0c4e25baa07b906127d475b09230fbc9a9526289ac0f6612cd74e33776ee4", "asm": "OP_RETURN 000077620001ab72021cbf7a9755e6aa0aff86aeaeacb577c031fc3a016b46dc7dc7d0965ece4a7c5dd9de064fcf302c11a0c4e25baa07b906127d475b09230fbc9a9526289ac0f6612cd74e33776ee4"}, "value": 0.0, "n": 0}, {"scriptPubKey": {"reqSigs": 1, "hex": "76a914eb995b96761b8cf638dca6b9eeba4873e9bbfde388ac", "addresses": ["1NUjWZjmPW6uAbo6c1z5P7x9UAoLn6Ptso"], "asm": "OP_DUP OP_HASH160 eb995b96761b8cf638dca6b9eeba4873e9bbfde3 OP_EQUALVERIFY OP_CHECKSIG", "type": "pubkeyhash"}, "value": 0.0225092, "n": 1}], "hex": "0100000001fd68c27227ed6b884f992459a851209428ce1725aa264c4b5213a7c908d38568000000006b483045022100ac2f303c38ad74bf6461ddf7a6ee58796d9ad350cb2bb65f1cd95253459f15dc02200c875cdc8ca22cd332d63392dd479faf5910c41b945a7a10d64bcc6e0c5cdcfa012102ba134eb8926baf50c82d75892cebff85951cd1e43945357fdbc78c1642c0cbc7ffffffff020000000000000000536a4c50000077620001ab72021cbf7a9755e6aa0aff86aeaeacb577c031fc3a016b46dc7dc7d0965ece4a7c5dd9de064fcf302c11a0c4e25baa07b906127d475b09230fbc9a9526289ac0f6612cd74e33776ee4a8582200000000001976a914eb995b96761b8cf638dca6b9eeba4873e9bbfde388ac00000000", "vin": [{"sequence": 4294967295, "scriptSig": {"hex": "483045022100ac2f303c38ad74bf6461ddf7a6ee58796d9ad350cb2bb65f1cd95253459f15dc02200c875cdc8ca22cd332d63392dd479faf5910c41b945a7a10d64bcc6e0c5cdcfa012102ba134eb8926baf50c82d75892cebff85951cd1e43945357fdbc78c1642c0cbc7", "asm": "3045022100ac2f303c38ad74bf6461ddf7a6ee58796d9ad350cb2bb65f1cd95253459f15dc02200c875cdc8ca22cd332d63392dd479faf5910c41b945a7a10d64bcc6e0c5cdcfa[ALL] 02ba134eb8926baf50c82d75892cebff85951cd1e43945357fdbc78c1642c0cbc7"}, "vout": 0, "txid": "6885d308c9a713524b4c26aa2517ce28942051a85924994f886bed2772c268fd"}], "txid": "a6f761d8e75a5bf6e691c2478e7793190c2297284ecf0a8dbbc8c922422624cd", "blocktime": 1537869901, "version": 1, "confirmations": 11523, "time": 1537869901, "locktime": 0, "vsize": 284, "size": 284}