{"hash": "6ac3c9b42787ce7dc3332fb1c00bd503e1d71136c826f9ec978a4389351f58f9", "blockhash": "00000000000000000004ffacab907a6b429b9a5745fa0b75af4234bf69dd7176", "vout": [{"scriptPubKey": {"reqSigs": 1, "hex": "001497cfc76442fe717f2a3f0cc9c175f7561b661997", "addresses": ["bc1qjl8uwezzlech723lpnyuza0h2cdkvxvh54v3dn"], "asm": "0 97cfc76442fe717f2a3f0cc9c175f7561b661997", "type": "witness_v0_keyhash"}, "value": 12.73051736, "n": 0}, {"scriptPubKey": {"type": "nulldata", "hex": "6a24aa21a9ed6470346ef5934b89b2e3ebfd985f2a665a6d7c354eb9afe02c9b53854d0c85d0", "asm": "OP_RETURN aa21a9ed6470346ef5934b89b2e3ebfd985f2a665a6d7c354eb9afe02c9b53854d0c85d0"}, "value": 0.0, "n": 1}, {"scriptPubKey": {"type": "nonstandard", "hex": "52534b424c4f434b3af11df58b49831ced191fbd8ce858382daf6ca9790c7b21e565d4c23377033969", "asm": "2 3 [error]"}, "value": 0.0, "n": 2}], "hex": "020000000001010000000000000000000000000000000000000000000000000000000000000000ffffffff4b03174908042e1eaa5b622f4254432e434f4d2ffabe6d6dba91d8348a0f3f2bdf398b73e2545e7f888ec9b07797d3f737279e6618e467d301000000000000002c08ad4e93f63c4f00000000ffffffff03583ae14b0000000016001497cfc76442fe717f2a3f0cc9c175f7561b6619970000000000000000266a24aa21a9ed6470346ef5934b89b2e3ebfd985f2a665a6d7c354eb9afe02c9b53854d0c85d000000000000000002952534b424c4f434b3af11df58b49831ced191fbd8ce858382daf6ca9790c7b21e565d4c233770339690120000000000000000000000000000000000000000000000000000000000000000000000000", "vin": [{"coinbase": "03174908042e1eaa5b622f4254432e434f4d2ffabe6d6dba91d8348a0f3f2bdf398b73e2545e7f888ec9b07797d3f737279e6618e467d301000000000000002c08ad4e93f63c4f00000000", "sequence": 4294967295}], "txid": "a6f8d49fa670c2de44d0c3dd87fea6467b6e860f094bd09bb8dad2f70e3d0006", "blocktime": 1537875543, "version": 2, "confirmations": 11464, "time": 1537875543, "locktime": 0, "vsize": 263, "size": 290}