{"hash": "7f1a496a4e9a4ef5f11345fe02b57a95ebe7701b56bd587f0bd9215a87e73f3d", "blockhash": "0000000000000000000dcc0f55137456b1a82d3642486a52398922ac4d620174", "vout": [{"scriptPubKey": {"reqSigs": 1, "hex": "76a914512a9c3a828f63290b27abe7a785cff87f4661a488ac", "addresses": ["18QAn9ntkWHuCgm2PMjLTaj1KqDvbRs7fn"], "asm": "OP_DUP OP_HASH160 512a9c3a828f63290b27abe7a785cff87f4661a4 OP_EQUALVERIFY OP_CHECKSIG", "type": "pubkeyhash"}, "value": 0.00561588, "n": 0}, {"scriptPubKey": {"reqSigs": 1, "hex": "a914a06b2b844402401243d1290c169bc8547915f76b87", "addresses": ["3GKERY9c8m2iFBd9teMG18UQWtixrrgunM"], "asm": "OP_HASH160 a06b2b844402401243d1290c169bc8547915f76b OP_EQUAL", "type": "scripthash"}, "value": 0.01259935, "n": 1}], "hex": "0200000000010128eb7b2741a60577200b9b01b1be5746b30c10e91a36562a764b6de0dc8a22cd000000001716001467f69fd1e5decea753ba2529b0356adaa2e5224efeffffff02b4910800000000001976a914512a9c3a828f63290b27abe7a785cff87f4661a488ac9f3913000000000017a914a06b2b844402401243d1290c169bc8547915f76b8702483045022100f661930dcb97568d52ae7389ed363cd2a80aed35187aa743801c63775df0d05902203aaf64feaff054dd2aeaf3da6c984e9066fc0cfc054007336ced433e3bc23429012103e90438c7662d9bc9ec8c729e0f875d186dc6d1ef0a537aa27fad98af742130d60c490800", "vin": [{"txinwitness": ["3045022100f661930dcb97568d52ae7389ed363cd2a80aed35187aa743801c63775df0d05902203aaf64feaff054dd2aeaf3da6c984e9066fc0cfc054007336ced433e3bc2342901", "03e90438c7662d9bc9ec8c729e0f875d186dc6d1ef0a537aa27fad98af742130d6"], "sequence": 4294967294, "scriptSig": {"hex": "16001467f69fd1e5decea753ba2529b0356adaa2e5224e", "asm": "001467f69fd1e5decea753ba2529b0356adaa2e5224e"}, "vout": 0, "txid": "cd228adce06d4b762a56361ae9100cb34657beb1019b0b207705a641277beb28"}], "txid": "a705201e2d518b478046c2733884d4879744dce53c807e95eab3c59ebd73d285", "blocktime": 1537870268, "version": 2, "confirmations": 11519, "time": 1537870268, "locktime": 542988, "vsize": 168, "size": 250}