{"hash": "a70ce3d95b5108e8c89d7414e90677122a97c513bb9f5ecdc9be5a9e610ce39d", "blockhash": "0000000000000000001e0dab787dd257d1dbfcb92a98c2207d5e1078be1f4165", "vout": [{"scriptPubKey": {"reqSigs": 1, "hex": "a914a67cfbe4ea0efac2148a21a725cbb80b8d57430187", "addresses": ["3GsKpRdecwGbQMF6KDsxySDarRB5cTF94d"], "asm": "OP_HASH160 a67cfbe4ea0efac2148a21a725cbb80b8d574301 OP_EQUAL", "type": "scripthash"}, "value": 0.0454017, "n": 0}], "hex": "0100000001d8b4e6cb03f66b0bdbe65d2b05fc584a60d129a4c9dda4d4f75cd23cdf82dd3f010000006a4730440220381d78871036f9bf74221d4f34a2653cdbdc8c4ec8c43dbf774052214261e911022034fa8cbf5014984f6102d8d7aa0fd3afb176ebbc585e141dada0e05140f892f60121024c4d875355a858f0c0792a384de91e1ea97f518a0dc73dca81c19f817cb807aaffffffff010a4745000000000017a914a67cfbe4ea0efac2148a21a725cbb80b8d5743018700000000", "vin": [{"sequence": 4294967295, "scriptSig": {"hex": "4730440220381d78871036f9bf74221d4f34a2653cdbdc8c4ec8c43dbf774052214261e911022034fa8cbf5014984f6102d8d7aa0fd3afb176ebbc585e141dada0e05140f892f60121024c4d875355a858f0c0792a384de91e1ea97f518a0dc73dca81c19f817cb807aa", "asm": "30440220381d78871036f9bf74221d4f34a2653cdbdc8c4ec8c43dbf774052214261e911022034fa8cbf5014984f6102d8d7aa0fd3afb176ebbc585e141dada0e05140f892f6[ALL] 024c4d875355a858f0c0792a384de91e1ea97f518a0dc73dca81c19f817cb807aa"}, "vout": 1, "txid": "3fdd82df3cd25cf7d4a4ddc9a429d1604a58fc052b5de6db0b6bf603cbe6b4d8"}], "txid": "a70ce3d95b5108e8c89d7414e90677122a97c513bb9f5ecdc9be5a9e610ce39d", "blocktime": 1537872475, "version": 1, "confirmations": 11486, "time": 1537872475, "locktime": 0, "vsize": 189, "size": 189}