{"hash": "e10a8c1aeaff852b07c90b111ae60138af46b8222443210cd593c44f750a0645", "blockhash": "0000000000000000001e0dab787dd257d1dbfcb92a98c2207d5e1078be1f4165", "vout": [{"scriptPubKey": {"reqSigs": 1, "hex": "a9146bee7a32108cedf326084e9f0c34f0daa3e7174487", "addresses": ["3BXhumJpeGQkQApKQYjFpvXZEF1Eb24tpT"], "asm": "OP_HASH160 6bee7a32108cedf326084e9f0c34f0daa3e71744 OP_EQUAL", "type": "scripthash"}, "value": 0.10005272, "n": 0}, {"scriptPubKey": {"reqSigs": 1, "hex": "a914e6011e343729246a314d838c7cc7b1765b88589c87", "addresses": ["3NfAgLtKMPCTf5rbgGZiPhMZ9TPCwb83MZ"], "asm": "OP_HASH160 e6011e343729246a314d838c7cc7b1765b88589c OP_EQUAL", "type": "scripthash"}, "value": 0.38488569, "n": 1}], "hex": "010000000001040f5b3c6dde15821ad24938ad6fb2bbffa10bab6aabace574aa6dea4f44d95aa000000000fdfd00004730440220488e08e30d732b2837d414e44f7b2c606ce38eac07dce31510e6dcb3a5a3669f02206672ac35679ca87c887f6f3802192b41f4ef3b66d5142197500ab97e8c24af9d01483045022100903adb46f7769e03903b6e241c291d528d4466cbb3ae7fe662dab9c14bfe00ff0220009e372ec4fe53977d689f5dea03ec6e93dbf9002cab34bb88dcc2d7783ccb7e014c69522103eb16a5d5166a9afb57d13bb8dc3495d771c62510a8954ddf7bb4bad17ae5799121021f0813a3e8710ff90bbf3bd9a0af6d9b5e4a5e3748d8cffafc6fe84cb55c844e2102175ae4e2a481f69edd2a9c3980d445e70bcafacf2d44bb82a7c3db6b8e33f1b753aeffffffffa03384a5bdcaa3f2342daeb4d7ab93f130e6995af38d471568733d1358c75bab000000002322002063c9f793955f543d6c441ebd5dd9f86b80b44d8c11e90477f4f2636dc5015c89ffffffff0aa52009fd581b876557d86585c808c765fa1a105a0efadc9720eb9548ec3fcb0100000023220020d2d7ad0e798b7e366035012c418442ed23c9b1d2b3f0687a8ec3762324bd819cffffffff9ba7d8303f6b0ab110b780ceb5f7df6d1dcb967a8805ce81741b01833f91030501000000232200209cdc881adaae8e0efd70adbdc57e77953ec6bc014107274b9bc376dced860b8fffffffff0218ab98000000000017a9146bee7a32108cedf326084e9f0c34f0daa3e7174487f9494b020000000017a914e6011e343729246a314d838c7cc7b1765b88589c87000400483045022100a29ddd809d8a5f48a56d78b78dc032028a34d785a9362dc03a2501fa63e1b55a0220568a3d453c9a5ef3aefd407a97157430a4e40de3995e17ca9e6b3bac074ab46301483045022100e7fcb6ac5df42f69f7ae50236fb577f6ab6aaaa139983c848ec4eb73a98620ea0220298305435dd8f9c1c5f0e4a2324d619d2420470908cf1f60f16c3f9cef30af160169522103cb2f397825cfa88bf908aa12d00f49eda8fd86db621e8f66268fd84a91f17c0c210323470c90faf894a2beb8180bc19568a05a1896264a185b41a6106a446b815d232103fbda4f940f0724a6de5ddeff7c9282752d27d26a19fcb64da87383daf96e76f053ae0400473044022029d3a82f08c7f5ddd3d726ff3b5d6da87dffd5567b6426c21cadab5a5d9affca02204e55629c4ac7517feb2209912b3fc91647603718f09b55dfe82cb35ebcd8cb42014730440220249a6d4374df6f021e572ccd481031b43a01f248bae42c4b403839e78875296e02202dc18cd1780e0bb21e302675576789e3bd24e93703fcfacaecbc6396babfab6c016952210225825cd65b7a4882fcc8ec5c1d7e53fa6754aea47a23ecf3f11cd23c113308502103524e9b9edaf15d7fec1905ae80b54f560344339d6cf616ffeb2848318a8494ae2102411549fc97041bd9797f223a6eeb925d082c33c4a7736f2e91a252ca99b1b4e353ae0400483045022100882736681ce7ab96127e56b56d257de5e7c3f7e722f8a8ac87eb74c56add032702204646efcda4fe11bcc4bbebc199361e81d87675709951f829846f3e64e937836c0147304402202288e1ee9cfeb97829b7d336898e2de56b02413c19d6e6ebf081aec153d8c635022061e001a158931d5fa271b0488ee360b5b40970fc035d3edbd90342854f2bf8040169522103953931f20e3143046fa42f5b7b8aa93245cb6314fb109d9c1307bc2795917dbf2102953c6d339873265584d35c2106e0cf8ffd04fc89037e3ae04b9439e5b4fd0a5421038ab8dbcb6f91a39716348a4ede36a4dc182a9efe77c2963b2c9fbaa4bf7c8a3d53ae00000000", "vin": [{"sequence": 4294967295, "scriptSig": {"hex": "004730440220488e08e30d732b2837d414e44f7b2c606ce38eac07dce31510e6dcb3a5a3669f02206672ac35679ca87c887f6f3802192b41f4ef3b66d5142197500ab97e8c24af9d01483045022100903adb46f7769e03903b6e241c291d528d4466cbb3ae7fe662dab9c14bfe00ff0220009e372ec4fe53977d689f5dea03ec6e93dbf9002cab34bb88dcc2d7783ccb7e014c69522103eb16a5d5166a9afb57d13bb8dc3495d771c62510a8954ddf7bb4bad17ae5799121021f0813a3e8710ff90bbf3bd9a0af6d9b5e4a5e3748d8cffafc6fe84cb55c844e2102175ae4e2a481f69edd2a9c3980d445e70bcafacf2d44bb82a7c3db6b8e33f1b753ae", "asm": "0 30440220488e08e30d732b2837d414e44f7b2c606ce38eac07dce31510e6dcb3a5a3669f02206672ac35679ca87c887f6f3802192b41f4ef3b66d5142197500ab97e8c24af9d[ALL] 3045022100903adb46f7769e03903b6e241c291d528d4466cbb3ae7fe662dab9c14bfe00ff0220009e372ec4fe53977d689f5dea03ec6e93dbf9002cab34bb88dcc2d7783ccb7e[ALL] 522103eb16a5d5166a9afb57d13bb8dc3495d771c62510a8954ddf7bb4bad17ae5799121021f0813a3e8710ff90bbf3bd9a0af6d9b5e4a5e3748d8cffafc6fe84cb55c844e2102175ae4e2a481f69edd2a9c3980d445e70bcafacf2d44bb82a7c3db6b8e33f1b753ae"}, "vout": 0, "txid": "a05ad9444fea6daa74e5acab6aab0ba1ffbbb26fad3849d21a8215de6d3c5b0f"}, {"txinwitness": ["", "3045022100a29ddd809d8a5f48a56d78b78dc032028a34d785a9362dc03a2501fa63e1b55a0220568a3d453c9a5ef3aefd407a97157430a4e40de3995e17ca9e6b3bac074ab46301", "3045022100e7fcb6ac5df42f69f7ae50236fb577f6ab6aaaa139983c848ec4eb73a98620ea0220298305435dd8f9c1c5f0e4a2324d619d2420470908cf1f60f16c3f9cef30af1601", "522103cb2f397825cfa88bf908aa12d00f49eda8fd86db621e8f66268fd84a91f17c0c210323470c90faf894a2beb8180bc19568a05a1896264a185b41a6106a446b815d232103fbda4f940f0724a6de5ddeff7c9282752d27d26a19fcb64da87383daf96e76f053ae"], "sequence": 4294967295, "scriptSig": {"hex": "22002063c9f793955f543d6c441ebd5dd9f86b80b44d8c11e90477f4f2636dc5015c89", "asm": "002063c9f793955f543d6c441ebd5dd9f86b80b44d8c11e90477f4f2636dc5015c89"}, "vout": 0, "txid": "ab5bc758133d736815478df35a99e630f193abd7b4ae2d34f2a3cabda58433a0"}, {"txinwitness": ["", "3044022029d3a82f08c7f5ddd3d726ff3b5d6da87dffd5567b6426c21cadab5a5d9affca02204e55629c4ac7517feb2209912b3fc91647603718f09b55dfe82cb35ebcd8cb4201", "30440220249a6d4374df6f021e572ccd481031b43a01f248bae42c4b403839e78875296e02202dc18cd1780e0bb21e302675576789e3bd24e93703fcfacaecbc6396babfab6c01", "52210225825cd65b7a4882fcc8ec5c1d7e53fa6754aea47a23ecf3f11cd23c113308502103524e9b9edaf15d7fec1905ae80b54f560344339d6cf616ffeb2848318a8494ae2102411549fc97041bd9797f223a6eeb925d082c33c4a7736f2e91a252ca99b1b4e353ae"], "sequence": 4294967295, "scriptSig": {"hex": "220020d2d7ad0e798b7e366035012c418442ed23c9b1d2b3f0687a8ec3762324bd819c", "asm": "0020d2d7ad0e798b7e366035012c418442ed23c9b1d2b3f0687a8ec3762324bd819c"}, "vout": 1, "txid": "cb3fec4895eb2097dcfa0e5a101afa65c708c88565d85765871b58fd0920a50a"}, {"txinwitness": ["", "3045022100882736681ce7ab96127e56b56d257de5e7c3f7e722f8a8ac87eb74c56add032702204646efcda4fe11bcc4bbebc199361e81d87675709951f829846f3e64e937836c01", "304402202288e1ee9cfeb97829b7d336898e2de56b02413c19d6e6ebf081aec153d8c635022061e001a158931d5fa271b0488ee360b5b40970fc035d3edbd90342854f2bf80401", "522103953931f20e3143046fa42f5b7b8aa93245cb6314fb109d9c1307bc2795917dbf2102953c6d339873265584d35c2106e0cf8ffd04fc89037e3ae04b9439e5b4fd0a5421038ab8dbcb6f91a39716348a4ede36a4dc182a9efe77c2963b2c9fbaa4bf7c8a3d53ae"], "sequence": 4294967295, "scriptSig": {"hex": "2200209cdc881adaae8e0efd70adbdc57e77953ec6bc014107274b9bc376dced860b8f", "asm": "00209cdc881adaae8e0efd70adbdc57e77953ec6bc014107274b9bc376dced860b8f"}, "vout": 1, "txid": "0503913f83011b7481ce05887a96cb1d6ddff7b5ce80b710b10a6b3f30d8a79b"}], "txid": "a711317c3b684c4cf2a01edcc8a5ff513b932da53e0ccc5099f34727c2b677d0", "blocktime": 1537872475, "version": 1, "confirmations": 11486, "time": 1537872475, "locktime": 0, "vsize": 789, "size": 1360}