{"hash": "b4d811d13cc8f27d87108c30ce064bff6e79ad497d85361dab0cbfd46a7220f8", "blockhash": "0000000000000000000e13cef7c366c0283d82e591d1acd082e914b08063cdf1", "vout": [{"scriptPubKey": {"reqSigs": 1, "hex": "a914d101b626bb57d423a43a3e64eb4616e1f479e89087", "addresses": ["3Lk9CZAcBb4QhNw74tkRRQ5LBLfYUrNSyz"], "asm": "OP_HASH160 d101b626bb57d423a43a3e64eb4616e1f479e890 OP_EQUAL", "type": "scripthash"}, "value": 0.01009736, "n": 0}, {"scriptPubKey": {"reqSigs": 1, "hex": "76a9142e1b944fe7ffbe969fc1df8d662fd7b5d6303c9b88ac", "addresses": ["15Co856cRnFRCKwSSzECoyT3ozVhuFoJZ6"], "asm": "OP_DUP OP_HASH160 2e1b944fe7ffbe969fc1df8d662fd7b5d6303c9b OP_EQUALVERIFY OP_CHECKSIG", "type": "pubkeyhash"}, "value": 0.0026296, "n": 1}], "hex": "02000000000102398e19079a05144ea93672e9c4451ce9c07284f528708eb839d5db5642a69b8e0100000017160014c718ba6e10aae2373bd917f83723706ace87fc47feffffff3e5f438e817323dd78350a031eded90e6ad0c366dbfa65e74e6c83b54a32458f00000000171600145c2da504ceb19d4444fdbd5213352ff6da5241b0feffffff0248680f000000000017a914d101b626bb57d423a43a3e64eb4616e1f479e8908730030400000000001976a9142e1b944fe7ffbe969fc1df8d662fd7b5d6303c9b88ac02483045022100e87043d9305372f61eafbdc82d40a816a2bb922113b72952b4132d3a70656ea9022074ec538d71df9fd0c687b9d551c36dc3b17c749a4d77406b8a17621194e0d3d2012102dc5cae1e201923685ca23bb78ba5930de7ce216dc30213be9f1509d76986be3a02473044022052c94872669596e293080320cce6178d4dc57174330e1f6d19178c9ddc41516202207aa3ff12c4d3a66e59ca56ad50f4ebba7cfa8834049ab7bedb449297c969ca9901210370e6c8b8cf1c13fb7978e9b40a1917406be2434169bb37fe5e72133eeda9e59c10490800", "vin": [{"txinwitness": ["3045022100e87043d9305372f61eafbdc82d40a816a2bb922113b72952b4132d3a70656ea9022074ec538d71df9fd0c687b9d551c36dc3b17c749a4d77406b8a17621194e0d3d201", "02dc5cae1e201923685ca23bb78ba5930de7ce216dc30213be9f1509d76986be3a"], "sequence": 4294967294, "scriptSig": {"hex": "160014c718ba6e10aae2373bd917f83723706ace87fc47", "asm": "0014c718ba6e10aae2373bd917f83723706ace87fc47"}, "vout": 1, "txid": "8e9ba64256dbd539b88e7028f58472c0e91c45c4e97236a94e14059a07198e39"}, {"txinwitness": ["3044022052c94872669596e293080320cce6178d4dc57174330e1f6d19178c9ddc41516202207aa3ff12c4d3a66e59ca56ad50f4ebba7cfa8834049ab7bedb449297c969ca9901", "0370e6c8b8cf1c13fb7978e9b40a1917406be2434169bb37fe5e72133eeda9e59c"], "sequence": 4294967294, "scriptSig": {"hex": "1600145c2da504ceb19d4444fdbd5213352ff6da5241b0", "asm": "00145c2da504ceb19d4444fdbd5213352ff6da5241b0"}, "vout": 0, "txid": "8f45324ab5836c4ee765fadb66c3d06a0ed9de1e030a3578dd2373818e435f3e"}], "txid": "a71a2e3478fbf687f5077260570acd231fd2c7ace344948b95b5f6e1eb3187c2", "blocktime": 1537871767, "version": 2, "confirmations": 11495, "time": 1537871767, "locktime": 542992, "vsize": 259, "size": 421}