{"hash": "a71b94514fc783bcc4975c98ba8883d65022651e0e1dfdee443a6494fa063360", "blockhash": "0000000000000000000dcc0f55137456b1a82d3642486a52398922ac4d620174", "vout": [{"scriptPubKey": {"type": "nulldata", "hex": "6a146f6d6e69000000000000001f000000c1757fd500", "asm": "OP_RETURN 6f6d6e69000000000000001f000000c1757fd500"}, "value": 0.0, "n": 0}, {"scriptPubKey": {"reqSigs": 1, "hex": "76a914a25dec4d0011064ef106a983c39c7a540699f22088ac", "addresses": ["1FoWyxwPXuj4C6abqwhjDWdz6D4PZgYRjA"], "asm": "OP_DUP OP_HASH160 a25dec4d0011064ef106a983c39c7a540699f220 OP_EQUALVERIFY OP_CHECKSIG", "type": "pubkeyhash"}, "value": 0.01985619, "n": 1}, {"scriptPubKey": {"reqSigs": 1, "hex": "76a9141642c5ca9c55cd9ea997c37896b5c34f1abf954488ac", "addresses": ["132hrfUoyLya7Zq1bCNxGUuENkgNPw81cr"], "asm": "OP_DUP OP_HASH160 1642c5ca9c55cd9ea997c37896b5c34f1abf9544 OP_EQUALVERIFY OP_CHECKSIG", "type": "pubkeyhash"}, "value": 5.46e-06, "n": 2}], "hex": "01000000013b0025d5d23fe062acbe4218a80936fdf3944797cc49adabdeff86b3f5db21fc010000006a47304402202f443a2b929d4b32979a4ed07249e1bb3d336540a2a17eedc7f9baf1cb81287f022054613ee370544d5d2dccc983db37b262a62e253b1e0078cc989f65ece1ca706e012103da5bac7b36d5aa38f531c6b9601e21bb598a4b6716ebed38b009a55dabde9440feffffff030000000000000000166a146f6d6e69000000000000001f000000c1757fd500534c1e00000000001976a914a25dec4d0011064ef106a983c39c7a540699f22088ac22020000000000001976a9141642c5ca9c55cd9ea997c37896b5c34f1abf954488ac0c490800", "vin": [{"sequence": 4294967294, "scriptSig": {"hex": "47304402202f443a2b929d4b32979a4ed07249e1bb3d336540a2a17eedc7f9baf1cb81287f022054613ee370544d5d2dccc983db37b262a62e253b1e0078cc989f65ece1ca706e012103da5bac7b36d5aa38f531c6b9601e21bb598a4b6716ebed38b009a55dabde9440", "asm": "304402202f443a2b929d4b32979a4ed07249e1bb3d336540a2a17eedc7f9baf1cb81287f022054613ee370544d5d2dccc983db37b262a62e253b1e0078cc989f65ece1ca706e[ALL] 03da5bac7b36d5aa38f531c6b9601e21bb598a4b6716ebed38b009a55dabde9440"}, "vout": 1, "txid": "fc21dbf5b386ffdeabad49cc974794f3fd3609a81842beac62e03fd2d525003b"}], "txid": "a71b94514fc783bcc4975c98ba8883d65022651e0e1dfdee443a6494fa063360", "blocktime": 1537870268, "version": 1, "confirmations": 11516, "time": 1537870268, "locktime": 542988, "vsize": 256, "size": 256}