{"hash": "7542f022140a8f9749dde9f9976a9571b17f729ab12c62a3f1cd98a9fcf6692a", "blockhash": "000000000000000000022b45ed06c6f4ccd3cf7fb5ba4856ebd2e58215665228", "vout": [{"scriptPubKey": {"reqSigs": 1, "hex": "a914b99a957a9531b983c3480de8d9040f383ad7c22f87", "addresses": ["3JcQ7i9GDRu1Eu3sJXwQK1smBocuqL3Swo"], "asm": "OP_HASH160 b99a957a9531b983c3480de8d9040f383ad7c22f OP_EQUAL", "type": "scripthash"}, "value": 0.0005464, "n": 0}, {"scriptPubKey": {"reqSigs": 1, "hex": "a914c675441268d6ffd3d734b094ba309920b22e665287", "addresses": ["3KnNCJbSpWKBtxL44oMSKy1LuPHPGcw9h4"], "asm": "OP_HASH160 c675441268d6ffd3d734b094ba309920b22e6652 OP_EQUAL", "type": "scripthash"}, "value": 0.00026911, "n": 1}], "hex": "01000000000102223415a8df1b4c06f10fe93fb101fc91bd00e2e498c7616d403c39f74b6f8e9d01000000232200209de855575c6e683c177143fb8b2d315819fd2fdabef876823719a62cd64d95cdffffffff4a26fb50af7992a3ff3430385a36ad6b5e398cfbc579a8110b788bc29e73501f000000002322002016f95f0da3ec4a3fd7d2e5a03e1e58801eddd447c77e4e44b944ac28d1d3a7e5ffffffff0270d500000000000017a914b99a957a9531b983c3480de8d9040f383ad7c22f871f6900000000000017a914c675441268d6ffd3d734b094ba309920b22e66528704004830450221008bdf3828d74dd0ef015d4c0f16f4a66c5b893f8dd3c381aa045e3e4138d6653f022049499478a5c70521025ca4f649142387d711657a029f54299f235d73b74e4a38014730440220339609f57b8c4edf91e3a378936110f7b2eb22bfbd5ce5db2493cddaaf1420e702202a6b6b6c67cf0a7e57f531cf975614b03b08a0607c0aea3dcbedf9cf22c1eae8014752210213dabd1153af5c3842ed175b6e2f7607ce8180d51e246eccb48b831a08eefe572102726ff74b232948bf3b0b4302934f660ce5f3375e3c0ec0ccd022a4260517f25a52ae0400473044022013d8f392f9ff90e0b9f1e9dbb86dde5787fb4d2d288dfe040c0fdb981ee2034c022075aebfa3b3f718c82ae1919cde10844ab5cafda5ace7fd0d95eb432f3dd1ee2501473044022000d1dff770a708af49941715251c6695226867c0fde36e675d3b44905f6e6474022074536d04c75cffd532ce1782b69133b5d6c37d554f33d6eedb95eef7140483710147522102278924619fc209af2dc6bab67a4c7de613380b9c5f74a09d8052ebb5210273642102726ff74b232948bf3b0b4302934f660ce5f3375e3c0ec0ccd022a4260517f25a52ae00000000", "vin": [{"txinwitness": ["", "30450221008bdf3828d74dd0ef015d4c0f16f4a66c5b893f8dd3c381aa045e3e4138d6653f022049499478a5c70521025ca4f649142387d711657a029f54299f235d73b74e4a3801", "30440220339609f57b8c4edf91e3a378936110f7b2eb22bfbd5ce5db2493cddaaf1420e702202a6b6b6c67cf0a7e57f531cf975614b03b08a0607c0aea3dcbedf9cf22c1eae801", "52210213dabd1153af5c3842ed175b6e2f7607ce8180d51e246eccb48b831a08eefe572102726ff74b232948bf3b0b4302934f660ce5f3375e3c0ec0ccd022a4260517f25a52ae"], "sequence": 4294967295, "scriptSig": {"hex": "2200209de855575c6e683c177143fb8b2d315819fd2fdabef876823719a62cd64d95cd", "asm": "00209de855575c6e683c177143fb8b2d315819fd2fdabef876823719a62cd64d95cd"}, "vout": 1, "txid": "9d8e6f4bf7393c406d61c798e4e200bd91fc01b13fe90ff1064c1bdfa8153422"}, {"txinwitness": ["", "3044022013d8f392f9ff90e0b9f1e9dbb86dde5787fb4d2d288dfe040c0fdb981ee2034c022075aebfa3b3f718c82ae1919cde10844ab5cafda5ace7fd0d95eb432f3dd1ee2501", "3044022000d1dff770a708af49941715251c6695226867c0fde36e675d3b44905f6e6474022074536d04c75cffd532ce1782b69133b5d6c37d554f33d6eedb95eef71404837101", "522102278924619fc209af2dc6bab67a4c7de613380b9c5f74a09d8052ebb5210273642102726ff74b232948bf3b0b4302934f660ce5f3375e3c0ec0ccd022a4260517f25a52ae"], "sequence": 4294967295, "scriptSig": {"hex": "22002016f95f0da3ec4a3fd7d2e5a03e1e58801eddd447c77e4e44b944ac28d1d3a7e5", "asm": "002016f95f0da3ec4a3fd7d2e5a03e1e58801eddd447c77e4e44b944ac28d1d3a7e5"}, "vout": 0, "txid": "1f50739ec28b780b11a879c5fb8c395e6bad365a383034ffa39279af50fb264a"}], "txid": "a7232158a265623b31bd0206b908065ece4bf9325e5e0e9e471c42b936469b48", "blocktime": 1537869901, "version": 1, "confirmations": 11524, "time": 1537869901, "locktime": 0, "vsize": 336, "size": 665}