{"hash": "a72aefffb01574006504db436ef304c97b8550d982b6e106d6415b152d65dbd9", "blockhash": "0000000000000000000e13cef7c366c0283d82e591d1acd082e914b08063cdf1", "vout": [{"scriptPubKey": {"reqSigs": 1, "hex": "76a91497cc61ce437a34a3cd541c22dda7fa4e447cbfdb88ac", "addresses": ["1EqdsgTyMZARbBUJFxW8KvXzEfv1gvPvXn"], "asm": "OP_DUP OP_HASH160 97cc61ce437a34a3cd541c22dda7fa4e447cbfdb OP_EQUALVERIFY OP_CHECKSIG", "type": "pubkeyhash"}, "value": 0.20145355, "n": 0}], "hex": "01000000077520e922a5246b12f9482c7c42ba1d73347d582f640f0780a63c239aa657282a010000006b483045022100ae2f6ed4c383aefec6461e12b0baaaf155e3e8fc412003bba9dd7b8715fff91202201e032f77a6c4f280df5cafebc04a307ecba49ad39e96ab24cf582937e34cfff801210250a4aa56bfcc68d851c401b78a871475a379442cd43e43dac1004655a621e1b7ffffffff5651c26333117250e413b2d7d7334efdb17afeddf59b4f752ca7a42f18c3f830000000006a47304402204bdad57da69fb2fd67e48034f806f14bc708cd7a91cf1f14ac2c485d228a885902204ffe59d475c61b5b707cc6d1e6099220841cc9e64c27b10c13c40fece064761c012102693ad133db5f787b1c56402c48a73f89e85bca3e0d2f060c1b7c51990a02b77fffffffffe239ba4a5ddf40667ce2a1b23e5c7846d06225bcf2ebd3cb10be7c2fc7aa264c030000006b483045022100df799d97fb3d1e587944082650876926d16e1ee3b1bbe48b94fde2f1be963e7f02205631f77ab837a7d2e5606788b332647ee241abf861c87f6be13f54a6ca8f55ad012102e36ca07ab33793e7c3730a81204bd9fe6dc5f3cb5d713517540dc1903a72faabffffffffa1ebb6f2a0a52035013a3b004f8d523b57ac7e8cfecf776f5ad477f2bd9fbf61010000006b483045022100ea8b656185fd40004ba041152aff8a3c0df93f4076e52bac69e86072cf6bd70f022061c0bfee1d044b09386edd8fed55f612d50c10cdb7f34e3b47d6ae42df8677f5012102fcdd98c87c807c1307468a480f444c5984599e423d5fe404b2bb2612b55c4c0effffffff30d8e25079408a47be034306ed96e203cc01a0abb28ccd1794cc2b5252e01168140000006b483045022100a3a58f54ad5cd2278232c54426eeeffc8d5301a961c081a653e0f4b933c55b780220259d7d25260010b7b753ec9ed7ad3c8a808e1b5f0a6084dcb0153d3909a052b40121034bf7aa9f193556aaa0382e88a75700d63c8fc533c3c2bf58f59e36786ed717f0ffffffffac110f525cb9bf5c81d53805966a1f9253d4b971b0147f17424f7f57039fde69010000006b483045022100e43fbdf49bf31da55ae6bfcbae9688ff475356871c192a224488215b7264b7d702205a2d33843348ed8c5b711e3f01fc97646404bf266af0acd4c6ab6af3d6d17a62012102ac65fb419549d4be44f74ba766f2eac8a3395ecb3a1e9b62a1c510341caf22fdffffffff4dc9ab31c96949fdc0f935d373aa721f9b47470f49402334001570f2a7da026a000000006b4830450221009bf494a0ad7ffad221a7f19a2e051b6c433ad5b0da567ebeaf8e156863991037022032550ce2cd045602bc1417a19ad575c55b4c54938a483b81992f9a69894e31af01210210ca776d103cc903c65de9abf0c26098f9e8e50940f2ffc0ffa4d7deb53a3c2cffffffff01cb643301000000001976a91497cc61ce437a34a3cd541c22dda7fa4e447cbfdb88ac00000000", "vin": [{"sequence": 4294967295, "scriptSig": {"hex": "483045022100ae2f6ed4c383aefec6461e12b0baaaf155e3e8fc412003bba9dd7b8715fff91202201e032f77a6c4f280df5cafebc04a307ecba49ad39e96ab24cf582937e34cfff801210250a4aa56bfcc68d851c401b78a871475a379442cd43e43dac1004655a621e1b7", "asm": "3045022100ae2f6ed4c383aefec6461e12b0baaaf155e3e8fc412003bba9dd7b8715fff91202201e032f77a6c4f280df5cafebc04a307ecba49ad39e96ab24cf582937e34cfff8[ALL] 0250a4aa56bfcc68d851c401b78a871475a379442cd43e43dac1004655a621e1b7"}, "vout": 1, "txid": "2a2857a69a233ca680070f642f587d34731dba427c2c48f9126b24a522e92075"}, {"sequence": 4294967295, "scriptSig": {"hex": "47304402204bdad57da69fb2fd67e48034f806f14bc708cd7a91cf1f14ac2c485d228a885902204ffe59d475c61b5b707cc6d1e6099220841cc9e64c27b10c13c40fece064761c012102693ad133db5f787b1c56402c48a73f89e85bca3e0d2f060c1b7c51990a02b77f", "asm": "304402204bdad57da69fb2fd67e48034f806f14bc708cd7a91cf1f14ac2c485d228a885902204ffe59d475c61b5b707cc6d1e6099220841cc9e64c27b10c13c40fece064761c[ALL] 02693ad133db5f787b1c56402c48a73f89e85bca3e0d2f060c1b7c51990a02b77f"}, "vout": 0, "txid": "30f8c3182fa4a72c754f9bf5ddfe7ab1fd4e33d7d7b213e45072113363c25156"}, {"sequence": 4294967295, "scriptSig": {"hex": "483045022100df799d97fb3d1e587944082650876926d16e1ee3b1bbe48b94fde2f1be963e7f02205631f77ab837a7d2e5606788b332647ee241abf861c87f6be13f54a6ca8f55ad012102e36ca07ab33793e7c3730a81204bd9fe6dc5f3cb5d713517540dc1903a72faab", "asm": "3045022100df799d97fb3d1e587944082650876926d16e1ee3b1bbe48b94fde2f1be963e7f02205631f77ab837a7d2e5606788b332647ee241abf861c87f6be13f54a6ca8f55ad[ALL] 02e36ca07ab33793e7c3730a81204bd9fe6dc5f3cb5d713517540dc1903a72faab"}, "vout": 3, "txid": "4c26aac72f7cbe10cbd3ebf2bc2562d046785c3eb2a1e27c6640df5d4aba39e2"}, {"sequence": 4294967295, "scriptSig": {"hex": "483045022100ea8b656185fd40004ba041152aff8a3c0df93f4076e52bac69e86072cf6bd70f022061c0bfee1d044b09386edd8fed55f612d50c10cdb7f34e3b47d6ae42df8677f5012102fcdd98c87c807c1307468a480f444c5984599e423d5fe404b2bb2612b55c4c0e", "asm": "3045022100ea8b656185fd40004ba041152aff8a3c0df93f4076e52bac69e86072cf6bd70f022061c0bfee1d044b09386edd8fed55f612d50c10cdb7f34e3b47d6ae42df8677f5[ALL] 02fcdd98c87c807c1307468a480f444c5984599e423d5fe404b2bb2612b55c4c0e"}, "vout": 1, "txid": "61bf9fbdf277d45a6f77cffe8c7eac573b528d4f003b3a013520a5a0f2b6eba1"}, {"sequence": 4294967295, "scriptSig": {"hex": "483045022100a3a58f54ad5cd2278232c54426eeeffc8d5301a961c081a653e0f4b933c55b780220259d7d25260010b7b753ec9ed7ad3c8a808e1b5f0a6084dcb0153d3909a052b40121034bf7aa9f193556aaa0382e88a75700d63c8fc533c3c2bf58f59e36786ed717f0", "asm": "3045022100a3a58f54ad5cd2278232c54426eeeffc8d5301a961c081a653e0f4b933c55b780220259d7d25260010b7b753ec9ed7ad3c8a808e1b5f0a6084dcb0153d3909a052b4[ALL] 034bf7aa9f193556aaa0382e88a75700d63c8fc533c3c2bf58f59e36786ed717f0"}, "vout": 20, "txid": "6811e052522bcc9417cd8cb2aba001cc03e296ed064303be478a407950e2d830"}, {"sequence": 4294967295, "scriptSig": {"hex": "483045022100e43fbdf49bf31da55ae6bfcbae9688ff475356871c192a224488215b7264b7d702205a2d33843348ed8c5b711e3f01fc97646404bf266af0acd4c6ab6af3d6d17a62012102ac65fb419549d4be44f74ba766f2eac8a3395ecb3a1e9b62a1c510341caf22fd", "asm": "3045022100e43fbdf49bf31da55ae6bfcbae9688ff475356871c192a224488215b7264b7d702205a2d33843348ed8c5b711e3f01fc97646404bf266af0acd4c6ab6af3d6d17a62[ALL] 02ac65fb419549d4be44f74ba766f2eac8a3395ecb3a1e9b62a1c510341caf22fd"}, "vout": 1, "txid": "69de9f03577f4f42177f14b071b9d453921f6a960538d5815cbfb95c520f11ac"}, {"sequence": 4294967295, "scriptSig": {"hex": "4830450221009bf494a0ad7ffad221a7f19a2e051b6c433ad5b0da567ebeaf8e156863991037022032550ce2cd045602bc1417a19ad575c55b4c54938a483b81992f9a69894e31af01210210ca776d103cc903c65de9abf0c26098f9e8e50940f2ffc0ffa4d7deb53a3c2c", "asm": "30450221009bf494a0ad7ffad221a7f19a2e051b6c433ad5b0da567ebeaf8e156863991037022032550ce2cd045602bc1417a19ad575c55b4c54938a483b81992f9a69894e31af[ALL] 0210ca776d103cc903c65de9abf0c26098f9e8e50940f2ffc0ffa4d7deb53a3c2c"}, "vout": 0, "txid": "6a02daa7f2701500342340490f47479b1f72aa73d335f9c0fd4969c931abc94d"}], "txid": "a72aefffb01574006504db436ef304c97b8550d982b6e106d6415b152d65dbd9", "blocktime": 1537871767, "version": 1, "confirmations": 11495, "time": 1537871767, "locktime": 0, "vsize": 1079, "size": 1079}