{"hash": "fdcbf35ba93a4cc73b48e3d89ea2788c719029883200c732591b9e16fc1017b4", "blockhash": "0000000000000000000e13cef7c366c0283d82e591d1acd082e914b08063cdf1", "vout": [{"scriptPubKey": {"reqSigs": 1, "hex": "76a914974240c8ad3b61733a1bbeee4973e12d6627c2f888ac", "addresses": ["1EnnQJyLFJ8mF316Wo4wsY3Ey1Hj9tbjQY"], "asm": "OP_DUP OP_HASH160 974240c8ad3b61733a1bbeee4973e12d6627c2f8 OP_EQUALVERIFY OP_CHECKSIG", "type": "pubkeyhash"}, "value": 0.63592218, "n": 0}, {"scriptPubKey": {"reqSigs": 1, "hex": "76a914503cc75a682583a38a19530abc8dca5b7326ecf888ac", "addresses": ["18KFsKvCUYzQgDvp1zjg9MWYxQ8w4EyKLJ"], "asm": "OP_DUP OP_HASH160 503cc75a682583a38a19530abc8dca5b7326ecf8 OP_EQUALVERIFY OP_CHECKSIG", "type": "pubkeyhash"}, "value": 0.000945, "n": 1}], "hex": "020000000001012ffe55be1eb21ca74bb4b8f9191602666bacff4adb28bac83311f2f84e68f9680000000017160014f6c3050c5f96a124309fefa83664490eae92cd77feffffff021a57ca03000000001976a914974240c8ad3b61733a1bbeee4973e12d6627c2f888ac24710100000000001976a914503cc75a682583a38a19530abc8dca5b7326ecf888ac02473044022048a9bb349edceacd84f05b341eb7c26e279bf2f40213498c771f6d5672c6ba130220398d26f5521f8e6cf140b2234039b6a34126cd4d60b4bf4077acfe25df33ff76012103f7e0232f168bf5779fb19b82e75bce409feefb3ddbfe5f38cd706ea09076570c10490800", "vin": [{"txinwitness": ["3044022048a9bb349edceacd84f05b341eb7c26e279bf2f40213498c771f6d5672c6ba130220398d26f5521f8e6cf140b2234039b6a34126cd4d60b4bf4077acfe25df33ff7601", "03f7e0232f168bf5779fb19b82e75bce409feefb3ddbfe5f38cd706ea09076570c"], "sequence": 4294967294, "scriptSig": {"hex": "160014f6c3050c5f96a124309fefa83664490eae92cd77", "asm": "0014f6c3050c5f96a124309fefa83664490eae92cd77"}, "vout": 0, "txid": "68f9684ef8f21133c8ba28db4affac6b66021619f9b8b44ba71cb21ebe55fe2f"}], "txid": "a72c1370a3830200600e660c68737a1529cc86edda6f0e1296a6c736d58fad67", "blocktime": 1537871767, "version": 2, "confirmations": 11490, "time": 1537871767, "locktime": 542992, "vsize": 170, "size": 251}