{"hash": "a72e78f588dbb3bc5fd321e713a2d862bab8ef45cd5f9ba6a65be154f3b586a3", "blockhash": "0000000000000000001f76057863aec43deb6fa401d9628bb513d65a8098bfab", "vout": [{"scriptPubKey": {"reqSigs": 1, "hex": "76a914d241ea9a0ce99529e3f3deab26169283e25fcef388ac", "addresses": ["1LAjsEkV1VwSHzPf3YGsirjuUE2EMbDDbv"], "asm": "OP_DUP OP_HASH160 d241ea9a0ce99529e3f3deab26169283e25fcef3 OP_EQUALVERIFY OP_CHECKSIG", "type": "pubkeyhash"}, "value": 0.00635375, "n": 0}, {"scriptPubKey": {"type": "nulldata", "hex": "6a4c50000077e700013fcc8379475c62689606f5fb7af8e8e963c7cfd5b95b23cc0f42c2fc38c5c798b574234ebe18c05b7a19b1782f895baa17600612712c07aa5e411d100759d4ba30d2c37bb011d97e02cf", "asm": "OP_RETURN 000077e700013fcc8379475c62689606f5fb7af8e8e963c7cfd5b95b23cc0f42c2fc38c5c798b574234ebe18c05b7a19b1782f895baa17600612712c07aa5e411d100759d4ba30d2c37bb011d97e02cf"}, "value": 0.0, "n": 1}], "hex": "0100000001b21e7e9635324200311bde098d10f1254bd2a8133b8cd385a0fac110190e02e7010000006b4830450221008dd4c37ad8c394ea0de29aded33b5a2a5e7b1259c77042cc465004c9579205a302202cc563ba1a0c2eeb12a028a14a90cef105b0c55a33b4b4bc35c91ee01b15ecb40121020431b3728b0ad224a14931f37858a14798226dcd3fc1b975437401cb17c10c3bffffffff02efb10900000000001976a914d241ea9a0ce99529e3f3deab26169283e25fcef388ac0000000000000000536a4c50000077e700013fcc8379475c62689606f5fb7af8e8e963c7cfd5b95b23cc0f42c2fc38c5c798b574234ebe18c05b7a19b1782f895baa17600612712c07aa5e411d100759d4ba30d2c37bb011d97e02cf00000000", "vin": [{"sequence": 4294967295, "scriptSig": {"hex": "4830450221008dd4c37ad8c394ea0de29aded33b5a2a5e7b1259c77042cc465004c9579205a302202cc563ba1a0c2eeb12a028a14a90cef105b0c55a33b4b4bc35c91ee01b15ecb40121020431b3728b0ad224a14931f37858a14798226dcd3fc1b975437401cb17c10c3b", "asm": "30450221008dd4c37ad8c394ea0de29aded33b5a2a5e7b1259c77042cc465004c9579205a302202cc563ba1a0c2eeb12a028a14a90cef105b0c55a33b4b4bc35c91ee01b15ecb4[ALL] 020431b3728b0ad224a14931f37858a14798226dcd3fc1b975437401cb17c10c3b"}, "vout": 1, "txid": "e7020e1910c1faa085d38c3b13a8d24b25f1108d09de1b3100423235967e1eb2"}], "txid": "a72e78f588dbb3bc5fd321e713a2d862bab8ef45cd5f9ba6a65be154f3b586a3", "blocktime": 1537873891, "version": 1, "confirmations": 11478, "time": 1537873891, "locktime": 0, "vsize": 284, "size": 284}