{"hash": "a7310ab1977888627c8aa900f36962a8f3d95fab953fc9b9a39ab874a5797072", "blockhash": "00000000000000000004ffacab907a6b429b9a5745fa0b75af4234bf69dd7176", "vout": [{"scriptPubKey": {"reqSigs": 1, "hex": "a914b3b6064aef969014f4dbf6740a91ea1029067ad887", "addresses": ["3J5EwAsWZuTUEJfn2YCHEr5JFL4EXPEQt1"], "asm": "OP_HASH160 b3b6064aef969014f4dbf6740a91ea1029067ad8 OP_EQUAL", "type": "scripthash"}, "value": 0.01196617, "n": 0}], "hex": "0100000001dc653dc81e0d35268d7db5e844968a0227a6cf1fd8ce68f33a09ab43fb41a504010000006b483045022100baac13bfc69278b6eaf61336a813bcee28ec41d735e89e06862c791719b50dcf02205dbe3851262297074b47b65ec60af093c972f1647ccadf5d84a96e71c529ae65012102e1e168d97910b38f878964ca21c66088ee81596b9bd12cb320dff3b6535885deffffffff01494212000000000017a914b3b6064aef969014f4dbf6740a91ea1029067ad88700000000", "vin": [{"sequence": 4294967295, "scriptSig": {"hex": "483045022100baac13bfc69278b6eaf61336a813bcee28ec41d735e89e06862c791719b50dcf02205dbe3851262297074b47b65ec60af093c972f1647ccadf5d84a96e71c529ae65012102e1e168d97910b38f878964ca21c66088ee81596b9bd12cb320dff3b6535885de", "asm": "3045022100baac13bfc69278b6eaf61336a813bcee28ec41d735e89e06862c791719b50dcf02205dbe3851262297074b47b65ec60af093c972f1647ccadf5d84a96e71c529ae65[ALL] 02e1e168d97910b38f878964ca21c66088ee81596b9bd12cb320dff3b6535885de"}, "vout": 1, "txid": "04a541fb43ab093af368ced81fcfa627028a9644e8b57d8d26350d1ec83d65dc"}], "txid": "a7310ab1977888627c8aa900f36962a8f3d95fab953fc9b9a39ab874a5797072", "blocktime": 1537875543, "version": 1, "confirmations": 11464, "time": 1537875543, "locktime": 0, "vsize": 190, "size": 190}