{"hash": "a73213705d49a9f2c95e403956f6d576072a32d131406dbc66f48b4519227970", "blockhash": "0000000000000000001cda96e906b7601b7a6fb1a3b62bca570a9e5d8f4b3de1", "vout": [{"scriptPubKey": {"reqSigs": 1, "hex": "76a9146dfa755a28e44e2f0bc96cd59095546a32905bb988ac", "addresses": ["1B2Wh4khFwcMKrGS4hW8Lq3oVoeccuWySo"], "asm": "OP_DUP OP_HASH160 6dfa755a28e44e2f0bc96cd59095546a32905bb9 OP_EQUALVERIFY OP_CHECKSIG", "type": "pubkeyhash"}, "value": 0.01591851, "n": 0}], "hex": "0100000001e632d66fac695bf2ddcac120930a6c622ac3a1348f2fce5a7a5c12a0265fd4b1000000006b483045022100cc18cf7705aa3d5644ffc72a4f23224845eb1d972cba14b6f303cba6d908cf8202201592c4db07f6ba9897b071ad5ad559615ee30aa07ff69213f1c131de33c39e64012103199720f98789ba51737678c99632563b537319f683fce3fa4f01ab9e5599dc85ffffffff012b4a1800000000001976a9146dfa755a28e44e2f0bc96cd59095546a32905bb988ac00000000", "vin": [{"sequence": 4294967295, "scriptSig": {"hex": "483045022100cc18cf7705aa3d5644ffc72a4f23224845eb1d972cba14b6f303cba6d908cf8202201592c4db07f6ba9897b071ad5ad559615ee30aa07ff69213f1c131de33c39e64012103199720f98789ba51737678c99632563b537319f683fce3fa4f01ab9e5599dc85", "asm": "3045022100cc18cf7705aa3d5644ffc72a4f23224845eb1d972cba14b6f303cba6d908cf8202201592c4db07f6ba9897b071ad5ad559615ee30aa07ff69213f1c131de33c39e64[ALL] 03199720f98789ba51737678c99632563b537319f683fce3fa4f01ab9e5599dc85"}, "vout": 0, "txid": "b1d45f26a0125c7a5ace2f8f34a1c32a626c0a9320c1caddf25b69ac6fd632e6"}], "txid": "a73213705d49a9f2c95e403956f6d576072a32d131406dbc66f48b4519227970", "blocktime": 1537873282, "version": 1, "confirmations": 11481, "time": 1537873282, "locktime": 0, "vsize": 192, "size": 192}