{"hash": "a73342bb41f350c06e3d7d4783df5378836116f4e358229e38aa4ee0e2838b17", "blockhash": "00000000000000000018f53835495a110e01622372bf6ae95dc86f2b0ab887b0", "vout": [{"scriptPubKey": {"reqSigs": 1, "hex": "a914bdafc9bdb8a6a7748187552097b26e899bad167287", "addresses": ["3JyzDmUYCtRSvVnUKobWqb9rXPrDjvCwFN"], "asm": "OP_HASH160 bdafc9bdb8a6a7748187552097b26e899bad1672 OP_EQUAL", "type": "scripthash"}, "value": 0.00395932, "n": 0}, {"scriptPubKey": {"reqSigs": 1, "hex": "a914720c6da9ab6d731f6e2aa0cbdf9f2453e09a45b187", "addresses": ["3C63qx6UyCSji9GDTPFu3JFTSnLKtZo91r"], "asm": "OP_HASH160 720c6da9ab6d731f6e2aa0cbdf9f2453e09a45b1 OP_EQUAL", "type": "scripthash"}, "value": 0.12630581, "n": 1}], "hex": "0100000001ee22af20acb9b9e92e1324e55520550f42809d8dcf3064e7b35eeb07791e0f3b01000000d90047304402205c9a6461027da2d6f3c3935dfc612e19c5c15224504e35788e78b79f78faa06a02202fef0d7f98386cf6617cb6ed2db5e45ddfa0714898849214369a95787ff1f84f01473044022041674902deddd2dcf639ada16130c6e411b14a01cb9684381884f8941024916602203024e432c1f7312559674702b075dd7be8486ed3d2b21b4143f2bab7b8b6dd460147522103f2d250ed5140d655fe49f9b9f857ff223c9290b9bbe8b68a50d522cf45e633702102045f2de7b3abee8ca375163a8879a6719ef3e6d7ffc88aa3008e11b5b89eb7ee52aeffffffff029c0a06000000000017a914bdafc9bdb8a6a7748187552097b26e899bad16728735bac0000000000017a914720c6da9ab6d731f6e2aa0cbdf9f2453e09a45b18700000000", "vin": [{"sequence": 4294967295, "scriptSig": {"hex": "0047304402205c9a6461027da2d6f3c3935dfc612e19c5c15224504e35788e78b79f78faa06a02202fef0d7f98386cf6617cb6ed2db5e45ddfa0714898849214369a95787ff1f84f01473044022041674902deddd2dcf639ada16130c6e411b14a01cb9684381884f8941024916602203024e432c1f7312559674702b075dd7be8486ed3d2b21b4143f2bab7b8b6dd460147522103f2d250ed5140d655fe49f9b9f857ff223c9290b9bbe8b68a50d522cf45e633702102045f2de7b3abee8ca375163a8879a6719ef3e6d7ffc88aa3008e11b5b89eb7ee52ae", "asm": "0 304402205c9a6461027da2d6f3c3935dfc612e19c5c15224504e35788e78b79f78faa06a02202fef0d7f98386cf6617cb6ed2db5e45ddfa0714898849214369a95787ff1f84f[ALL] 3044022041674902deddd2dcf639ada16130c6e411b14a01cb9684381884f8941024916602203024e432c1f7312559674702b075dd7be8486ed3d2b21b4143f2bab7b8b6dd46[ALL] 522103f2d250ed5140d655fe49f9b9f857ff223c9290b9bbe8b68a50d522cf45e633702102045f2de7b3abee8ca375163a8879a6719ef3e6d7ffc88aa3008e11b5b89eb7ee52ae"}, "vout": 1, "txid": "3b0f1e7907eb5eb3e76430cf8d9d80420f552055e524132ee9b9b9ac20af22ee"}], "txid": "a73342bb41f350c06e3d7d4783df5378836116f4e358229e38aa4ee0e2838b17", "blocktime": 1537870928, "version": 1, "confirmations": 11512, "time": 1537870928, "locktime": 0, "vsize": 332, "size": 332}