{"hash": "6794baacc9c0b58ee7c2a08f2111c422a0959ccde509cf9ee0861a294a301b02", "blockhash": "0000000000000000001f0ddff1eddb255c1121bcd4da4f1bc9a0da00cae72433", "vout": [{"scriptPubKey": {"reqSigs": 1, "hex": "a914241c0f25baab5426cc7881473ada17d2cc9c56ac87", "addresses": ["34yws2yj9isnUunih9ZaAyE9okhDqUF7ZL"], "asm": "OP_HASH160 241c0f25baab5426cc7881473ada17d2cc9c56ac OP_EQUAL", "type": "scripthash"}, "value": 0.0186025, "n": 0}, {"scriptPubKey": {"reqSigs": 1, "hex": "76a914ccd63fe0d3481f2817cefc0395ef0a3e4dbb4afb88ac", "addresses": ["1Kg5WTBGoSBFCuFAjxZCUjPbYpQyWJmTYa"], "asm": "OP_DUP OP_HASH160 ccd63fe0d3481f2817cefc0395ef0a3e4dbb4afb OP_EQUALVERIFY OP_CHECKSIG", "type": "pubkeyhash"}, "value": 0.15217, "n": 1}], "hex": "010000000001045613769d4e715e9d7fa5cbe193ed11b3716f2fd2d8eac227ba4a5ad55ba274030100000023220020e39ed65c3f400d30f633890a3786afdf552b79e83db5cda0541ca19fa112352fffffffff11e334fd5393469e8611d5554b40a9b01fa5e994fb10b3a9fc48efed1c7adfc90100000023220020bd2a64c4f162fb49032417590bdee9ddb6c8abd56f3667d5634b26b402875969ffffffffe8862eb32bdf1711bf26cca9d03f27aceea72a56926e0988ce412984eadd42620100000023220020882973514f55e4a46641918b6fb58de08a753c235d3bcf8ed085628406441500ffffffff8e51e05d89a933d68abd345c43238b269f6c0897c3967824f9e2da7c5c5445e40000000023220020c6d11fe9035a3fb91f30820998807a1d0895144e580ac1fd9bdb89c969baccd7ffffffff029a621c000000000017a914241c0f25baab5426cc7881473ada17d2cc9c56ac876831e800000000001976a914ccd63fe0d3481f2817cefc0395ef0a3e4dbb4afb88ac0400483045022100f4887b217df7f6370537981e5eaf5c77804f80f39512e2f33e4189b842b05df702200383f72d7787c2d77294df2fbe5007e008f769ddbe95c010cf3e4dd51ef5df7b0148304502210089d9072093e553de516710f707e803b85afd232bdb67de58a64104d958086a6d02205a5b628a010bb9cd82694c492720d20146061c7565e3b70008a4872f650e1b9701695221039dabca6c327b0aabcc952727dd734d2c4d153eea72accdce5d0946926485c67d21039d5314caa972299a926eeb7e23d904ea001848e8a6a0cbdb1d393b71d9f82f17210340b8c0673018ceb9e95904eaee26f567eadef9354b788deff76c64073d4f7f7c53ae0400483045022100b733ec6b2ce340f0b9570d8569e9c55a7f06f23e1713b14cd4a22e8a8d35145502201f4969ea4c1e4c86a4c2f3d13332a8b186e9e30eaf41738479d720b41d6324cb01483045022100e8a4ed924ef5b8984e1c89741cc15efba092594d271e783ef3898bb592033cc202206d8c3f7c0bdbd3e5d6bff3f68c2dc33f1c68e6c687771b1793b683ee0837090201695221027a6c89d8344c1b163ee44b559f41bb3a10539feaf1d4135a2dfe0b3bda0c3e0d2102ebbdfaabcbee471cb972c996e85e3ce4db8e1db37c81782b4fa3766597767e1021029155586e3a41d399274de61b4c85f95abb97f1503cc184513ef6145ab30a7b6353ae04004730440220486711e1082334bc2efcb5140c1851025197b54c670ae6581c421787ad0d58420220091b0b236be7af9d57981591310d1fcf61fb6b035a015ee556bf68b4cdd26cd701483045022100d5e6d3f643562b3cd4f90d8e5e2762433f9a9e82e16e126d3fbd719603aa0ca8022073425993ee5b9a7264004ebe04467187e1d0d3a731aec5ede5f9a0aede6d1df901695221027adebabecd04d1868954d0a96f0c36ab4fbd95e10de7bab05a71855f07fb823c210211f3ef73484dd5c0926bfaa8302276af6e596ea9b104c2061c7fbeb05ed381f421030eeca2404af0788ac0b1e10f482b1e5704ef9e2aa7a382b000374a95e6a7e2cc53ae0400483045022100afd85d15b34b0810e47ee45f641d327ac1933276da3f909c453e0a65e17df5f00220172ccfebc344db682f322d54d7c5aec96462aaa74f04ace7cc02214fc147c65f014830450221009fbb99f54f35c627feb1409837a6fda981b84e34f25254ef414ff073e312c9be02200eb6eaa1340c40ad84b422630dcbaf23cf15e3ff08e9275761578122b38e95ab01695221031d9fa410d15f8d4f6440c0f38f18406fb4bcbc5901ddeffa9f2a80a6e62d1a052102141896207f4e8b8ef7dc23ae47fbd1eb764e29bdfa07343fe55a3a2f7985d76a2102bcbd3969b8cd38a5c02dd5a33f662b36d571d33ee299be7e22810bc9eaa240d053ae12490800", "vin": [{"txinwitness": ["", "3045022100f4887b217df7f6370537981e5eaf5c77804f80f39512e2f33e4189b842b05df702200383f72d7787c2d77294df2fbe5007e008f769ddbe95c010cf3e4dd51ef5df7b01", "304502210089d9072093e553de516710f707e803b85afd232bdb67de58a64104d958086a6d02205a5b628a010bb9cd82694c492720d20146061c7565e3b70008a4872f650e1b9701", "5221039dabca6c327b0aabcc952727dd734d2c4d153eea72accdce5d0946926485c67d21039d5314caa972299a926eeb7e23d904ea001848e8a6a0cbdb1d393b71d9f82f17210340b8c0673018ceb9e95904eaee26f567eadef9354b788deff76c64073d4f7f7c53ae"], "sequence": 4294967295, "scriptSig": {"hex": "220020e39ed65c3f400d30f633890a3786afdf552b79e83db5cda0541ca19fa112352f", "asm": "0020e39ed65c3f400d30f633890a3786afdf552b79e83db5cda0541ca19fa112352f"}, "vout": 1, "txid": "0374a25bd55a4aba27c2ead8d22f6f71b311ed93e1cba57f9d5e714e9d761356"}, {"txinwitness": ["", "3045022100b733ec6b2ce340f0b9570d8569e9c55a7f06f23e1713b14cd4a22e8a8d35145502201f4969ea4c1e4c86a4c2f3d13332a8b186e9e30eaf41738479d720b41d6324cb01", "3045022100e8a4ed924ef5b8984e1c89741cc15efba092594d271e783ef3898bb592033cc202206d8c3f7c0bdbd3e5d6bff3f68c2dc33f1c68e6c687771b1793b683ee0837090201", "5221027a6c89d8344c1b163ee44b559f41bb3a10539feaf1d4135a2dfe0b3bda0c3e0d2102ebbdfaabcbee471cb972c996e85e3ce4db8e1db37c81782b4fa3766597767e1021029155586e3a41d399274de61b4c85f95abb97f1503cc184513ef6145ab30a7b6353ae"], "sequence": 4294967295, "scriptSig": {"hex": "220020bd2a64c4f162fb49032417590bdee9ddb6c8abd56f3667d5634b26b402875969", "asm": "0020bd2a64c4f162fb49032417590bdee9ddb6c8abd56f3667d5634b26b402875969"}, "vout": 1, "txid": "c9df7a1cedef48fca9b310fb94e9a51fb0a9404b55d511869e469353fd34e311"}, {"txinwitness": ["", "30440220486711e1082334bc2efcb5140c1851025197b54c670ae6581c421787ad0d58420220091b0b236be7af9d57981591310d1fcf61fb6b035a015ee556bf68b4cdd26cd701", "3045022100d5e6d3f643562b3cd4f90d8e5e2762433f9a9e82e16e126d3fbd719603aa0ca8022073425993ee5b9a7264004ebe04467187e1d0d3a731aec5ede5f9a0aede6d1df901", "5221027adebabecd04d1868954d0a96f0c36ab4fbd95e10de7bab05a71855f07fb823c210211f3ef73484dd5c0926bfaa8302276af6e596ea9b104c2061c7fbeb05ed381f421030eeca2404af0788ac0b1e10f482b1e5704ef9e2aa7a382b000374a95e6a7e2cc53ae"], "sequence": 4294967295, "scriptSig": {"hex": "220020882973514f55e4a46641918b6fb58de08a753c235d3bcf8ed085628406441500", "asm": "0020882973514f55e4a46641918b6fb58de08a753c235d3bcf8ed085628406441500"}, "vout": 1, "txid": "6242ddea842941ce88096e92562aa7eeac273fd0a9cc26bf1117df2bb32e86e8"}, {"txinwitness": ["", "3045022100afd85d15b34b0810e47ee45f641d327ac1933276da3f909c453e0a65e17df5f00220172ccfebc344db682f322d54d7c5aec96462aaa74f04ace7cc02214fc147c65f01", "30450221009fbb99f54f35c627feb1409837a6fda981b84e34f25254ef414ff073e312c9be02200eb6eaa1340c40ad84b422630dcbaf23cf15e3ff08e9275761578122b38e95ab01", "5221031d9fa410d15f8d4f6440c0f38f18406fb4bcbc5901ddeffa9f2a80a6e62d1a052102141896207f4e8b8ef7dc23ae47fbd1eb764e29bdfa07343fe55a3a2f7985d76a2102bcbd3969b8cd38a5c02dd5a33f662b36d571d33ee299be7e22810bc9eaa240d053ae"], "sequence": 4294967295, "scriptSig": {"hex": "220020c6d11fe9035a3fb91f30820998807a1d0895144e580ac1fd9bdb89c969baccd7", "asm": "0020c6d11fe9035a3fb91f30820998807a1d0895144e580ac1fd9bdb89c969baccd7"}, "vout": 0, "txid": "e445545c7cdae2f9247896c397086c9f268b23435c34bd8ad633a9895de0518e"}], "txid": "a73a55978723181cd9356bf7aa011f9e31afade2021a59b38b75694695d8af80", "blocktime": 1537872018, "version": 1, "confirmations": 11489, "time": 1537872018, "locktime": 542994, "vsize": 635, "size": 1397}