{"hash": "55a440b0c5018febdd789cccf020712e381fc75573fd614a0e2a47264fc800aa", "blockhash": "0000000000000000000dcc0f55137456b1a82d3642486a52398922ac4d620174", "vout": [{"scriptPubKey": {"reqSigs": 1, "hex": "a914d8f0df0407516453b0f29ef7c7b5944436a22f2587", "addresses": ["3MU6Rzya2GcKTu1rCDcu5htiYuzEoJLV6E"], "asm": "OP_HASH160 d8f0df0407516453b0f29ef7c7b5944436a22f25 OP_EQUAL", "type": "scripthash"}, "value": 0.00988048, "n": 0}, {"scriptPubKey": {"reqSigs": 1, "hex": "a914e57f724eff89bb43358fcc4688f47783ff896ba987", "addresses": ["3NcVLcTnFkAW49kw1x3kbyP41cziaJVvyp"], "asm": "OP_HASH160 e57f724eff89bb43358fcc4688f47783ff896ba9 OP_EQUAL", "type": "scripthash"}, "value": 0.44275776, "n": 1}], "hex": "0200000000010123e82205496a8c0238f083bb1f515950e7ecabeef7487f703b8614f1d0a11d51000000001716001423b47c1a2a65a2eb041905350afd38d5d59fd428feffffff0290130f000000000017a914d8f0df0407516453b0f29ef7c7b5944436a22f25874098a3020000000017a914e57f724eff89bb43358fcc4688f47783ff896ba987024730440220052461d6ccb0b11d2e3cedfca557121831671b532c098cd9cbdbbd02590f510902205e51f0205a7e4d68a17307d10347b246160e46b05ac468645d6c31206870deb3012103ffcaf86cfa566d7a833c45f96f1e1ba61d79b3dc6813fb6dde7cac7c1200cf040c490800", "vin": [{"txinwitness": ["30440220052461d6ccb0b11d2e3cedfca557121831671b532c098cd9cbdbbd02590f510902205e51f0205a7e4d68a17307d10347b246160e46b05ac468645d6c31206870deb301", "03ffcaf86cfa566d7a833c45f96f1e1ba61d79b3dc6813fb6dde7cac7c1200cf04"], "sequence": 4294967294, "scriptSig": {"hex": "16001423b47c1a2a65a2eb041905350afd38d5d59fd428", "asm": "001423b47c1a2a65a2eb041905350afd38d5d59fd428"}, "vout": 0, "txid": "511da1d0f114863b707f48f7eeabece75059511fbb83f038028c6a490522e823"}], "txid": "a74275bc64b11060ea53b44260c7d1e1a0131814803bb3f1765f2cfff0ecf1ea", "blocktime": 1537870268, "version": 2, "confirmations": 11516, "time": 1537870268, "locktime": 542988, "vsize": 166, "size": 247}