{"hash": "a74affffaec2036b6253d3fd387a03ee0ce7e02b866219efa52b36514e4eb74f", "blockhash": "00000000000000000004ffacab907a6b429b9a5745fa0b75af4234bf69dd7176", "vout": [{"scriptPubKey": {"reqSigs": 1, "hex": "76a914e642562035d4d44bf54d83ad2b51d9c897ecdac188ac", "addresses": ["1MzVtFuAbupcSdDJSQLLn32g1cPn1JJu9h"], "asm": "OP_DUP OP_HASH160 e642562035d4d44bf54d83ad2b51d9c897ecdac1 OP_EQUALVERIFY OP_CHECKSIG", "type": "pubkeyhash"}, "value": 0.04988203, "n": 0}], "hex": "01000000085c702c46b0878e7925b69967a0787805d3307422643cd69d68fd9bec4dfe031f000000006b483045022100ebaeb647001ccbabe50c065c20bfbb36bb5ca7fcc51b65c42a1728dc57c6cf4402201ee86fa823f9fcf66922bc11bbf07c04a43cf30fe3bbc007483a364851ea600b012102df9168fad30045baf41e76eb1cff2e012d67f24e3632c7a8cc7a6ee3a9864504ffffffffb82277bc072b1ddd429a1e0fe7e09bc4cc39374a8715781d8f7836c26f796c4f000000006b483045022100eef1e5a4590f389f7734a9696dd84395a6480e73f37139341d9edc393b110920022043a6ce9b71b16928dfe9a8f73c8fad31ca3bb7b8586a84b914b79110280ed1c7012103404264f96de19f40d987d675a864597eb9af6a4d0d44337bff8bcdb4e2c4b5faffffffffd8e6ce399fe47869f9e980a9a578b2c4df033f53f173414244723fc28804ae56000000006b483045022100bcffd8d3b80bf4e680788f6e59cbffff0f373bcaba385db15fcf8ec6fcda0536022072e194fed3e30c9b483f1672be36987e702aa7a3de4f5d682270715dfcf0c3d6012103a2edddc7e650d334ff4f36c3d82c657afb346ad167b19740204f46e3b4a1e869ffffffff754000506a65a6f6a4aab76c935313138a62763a1c25649f8eda04bc9bb66b65000000006b48304502210098c1eeffa8360e9aea0fe3e7c7ad52f0958d4de880a98b6d60ae34ff177a4248022035914c6c8a89d1aa4ce9ed5fa49e5bf83e6d38d5de919b8aef80089412c89d4c01210382fabc7641c02d488b6b1f8e89f8123cbd9b9671af058ccda4dfe1328511febbffffffffed21da7685fb75c091b5103325e34a57d377a72a66a431406a6952c2117a0a760d0000006b4830450221008ebf5545ddb21cb6717bd385260903281894062ccff5b61e7bef48211f45b85c022003238931d1f3a1023ab55a6078b23c330b1a6d39892700514820c6d33b6cdf6701210246e2ab33da83785e4b37e0b9c3efb014095daef6e469c5823a8022a5955d21b0ffffffffb4cb4fab2ba6bea5bc974c18c1a510746c7962b1ab63893682edca51daf24ec3000000006a47304402206c09b80802e8da868d259e25d70a59b2b20dfce4dc5073a98a684c10c01a2e6b0220522ddb9c4e3aafc515d934fe896853c1ad123e7357971ae4a79823519f77f5ee0121028f7285a4ddf3cc76eb8c37320e2a00e35ac648fa61ecfa71b4b7b74a4ad2bc12ffffffff1983737bc721b69dfff49c83841e07fdddcd447b2168722483882c9ba1246bdd000000006b483045022100a02ff8d8af438776eb2f9524b056a32e96cb356fa65686479069c8b13090787302200311b455363285467914a182ba8f9be9093f9a51296031a41020b8d9c92b5bb50121036bc6f566970b22683e99aef672d65a0c3d3b95a1c5eb4616ff48ba80efeeb752ffffffff6fabfb67f51bd7eea7469054d3ef6f1fe3daec52c8fe9bd3c90fec4000d325e4000000006a473044022009e031baa98dc4816f10ac37a787740d985365b0561e5c26de9f6be59a5ae4ec022039415768dad4c7da957cf39b4d558f9ef75a8acf7a2468271f30a28c87777efc0121029f318b304c52395223be4b137e67dcde07ba67f074a7ba95f506663111f59fceffffffff012b1d4c00000000001976a914e642562035d4d44bf54d83ad2b51d9c897ecdac188ac00000000", "vin": [{"sequence": 4294967295, "scriptSig": {"hex": "483045022100ebaeb647001ccbabe50c065c20bfbb36bb5ca7fcc51b65c42a1728dc57c6cf4402201ee86fa823f9fcf66922bc11bbf07c04a43cf30fe3bbc007483a364851ea600b012102df9168fad30045baf41e76eb1cff2e012d67f24e3632c7a8cc7a6ee3a9864504", "asm": "3045022100ebaeb647001ccbabe50c065c20bfbb36bb5ca7fcc51b65c42a1728dc57c6cf4402201ee86fa823f9fcf66922bc11bbf07c04a43cf30fe3bbc007483a364851ea600b[ALL] 02df9168fad30045baf41e76eb1cff2e012d67f24e3632c7a8cc7a6ee3a9864504"}, "vout": 0, "txid": "1f03fe4dec9bfd689dd63c64227430d3057878a06799b625798e87b0462c705c"}, {"sequence": 4294967295, "scriptSig": {"hex": "483045022100eef1e5a4590f389f7734a9696dd84395a6480e73f37139341d9edc393b110920022043a6ce9b71b16928dfe9a8f73c8fad31ca3bb7b8586a84b914b79110280ed1c7012103404264f96de19f40d987d675a864597eb9af6a4d0d44337bff8bcdb4e2c4b5fa", "asm": "3045022100eef1e5a4590f389f7734a9696dd84395a6480e73f37139341d9edc393b110920022043a6ce9b71b16928dfe9a8f73c8fad31ca3bb7b8586a84b914b79110280ed1c7[ALL] 03404264f96de19f40d987d675a864597eb9af6a4d0d44337bff8bcdb4e2c4b5fa"}, "vout": 0, "txid": "4f6c796fc236788f1d7815874a3739ccc49be0e70f1e9a42dd1d2b07bc7722b8"}, {"sequence": 4294967295, "scriptSig": {"hex": "483045022100bcffd8d3b80bf4e680788f6e59cbffff0f373bcaba385db15fcf8ec6fcda0536022072e194fed3e30c9b483f1672be36987e702aa7a3de4f5d682270715dfcf0c3d6012103a2edddc7e650d334ff4f36c3d82c657afb346ad167b19740204f46e3b4a1e869", "asm": "3045022100bcffd8d3b80bf4e680788f6e59cbffff0f373bcaba385db15fcf8ec6fcda0536022072e194fed3e30c9b483f1672be36987e702aa7a3de4f5d682270715dfcf0c3d6[ALL] 03a2edddc7e650d334ff4f36c3d82c657afb346ad167b19740204f46e3b4a1e869"}, "vout": 0, "txid": "56ae0488c23f7244424173f1533f03dfc4b278a5a980e9f96978e49f39cee6d8"}, {"sequence": 4294967295, "scriptSig": {"hex": "48304502210098c1eeffa8360e9aea0fe3e7c7ad52f0958d4de880a98b6d60ae34ff177a4248022035914c6c8a89d1aa4ce9ed5fa49e5bf83e6d38d5de919b8aef80089412c89d4c01210382fabc7641c02d488b6b1f8e89f8123cbd9b9671af058ccda4dfe1328511febb", "asm": "304502210098c1eeffa8360e9aea0fe3e7c7ad52f0958d4de880a98b6d60ae34ff177a4248022035914c6c8a89d1aa4ce9ed5fa49e5bf83e6d38d5de919b8aef80089412c89d4c[ALL] 0382fabc7641c02d488b6b1f8e89f8123cbd9b9671af058ccda4dfe1328511febb"}, "vout": 0, "txid": "656bb69bbc04da8e9f64251c3a76628a131353936cb7aaa4f6a6656a50004075"}, {"sequence": 4294967295, "scriptSig": {"hex": "4830450221008ebf5545ddb21cb6717bd385260903281894062ccff5b61e7bef48211f45b85c022003238931d1f3a1023ab55a6078b23c330b1a6d39892700514820c6d33b6cdf6701210246e2ab33da83785e4b37e0b9c3efb014095daef6e469c5823a8022a5955d21b0", "asm": "30450221008ebf5545ddb21cb6717bd385260903281894062ccff5b61e7bef48211f45b85c022003238931d1f3a1023ab55a6078b23c330b1a6d39892700514820c6d33b6cdf67[ALL] 0246e2ab33da83785e4b37e0b9c3efb014095daef6e469c5823a8022a5955d21b0"}, "vout": 13, "txid": "760a7a11c252696a4031a4662aa777d3574ae3253310b591c075fb8576da21ed"}, {"sequence": 4294967295, "scriptSig": {"hex": "47304402206c09b80802e8da868d259e25d70a59b2b20dfce4dc5073a98a684c10c01a2e6b0220522ddb9c4e3aafc515d934fe896853c1ad123e7357971ae4a79823519f77f5ee0121028f7285a4ddf3cc76eb8c37320e2a00e35ac648fa61ecfa71b4b7b74a4ad2bc12", "asm": "304402206c09b80802e8da868d259e25d70a59b2b20dfce4dc5073a98a684c10c01a2e6b0220522ddb9c4e3aafc515d934fe896853c1ad123e7357971ae4a79823519f77f5ee[ALL] 028f7285a4ddf3cc76eb8c37320e2a00e35ac648fa61ecfa71b4b7b74a4ad2bc12"}, "vout": 0, "txid": "c34ef2da51caed82368963abb162796c7410a5c1184c97bca5bea62bab4fcbb4"}, {"sequence": 4294967295, "scriptSig": {"hex": "483045022100a02ff8d8af438776eb2f9524b056a32e96cb356fa65686479069c8b13090787302200311b455363285467914a182ba8f9be9093f9a51296031a41020b8d9c92b5bb50121036bc6f566970b22683e99aef672d65a0c3d3b95a1c5eb4616ff48ba80efeeb752", "asm": "3045022100a02ff8d8af438776eb2f9524b056a32e96cb356fa65686479069c8b13090787302200311b455363285467914a182ba8f9be9093f9a51296031a41020b8d9c92b5bb5[ALL] 036bc6f566970b22683e99aef672d65a0c3d3b95a1c5eb4616ff48ba80efeeb752"}, "vout": 0, "txid": "dd6b24a19b2c8883247268217b44cdddfd071e84839cf4ff9db621c77b738319"}, {"sequence": 4294967295, "scriptSig": {"hex": "473044022009e031baa98dc4816f10ac37a787740d985365b0561e5c26de9f6be59a5ae4ec022039415768dad4c7da957cf39b4d558f9ef75a8acf7a2468271f30a28c87777efc0121029f318b304c52395223be4b137e67dcde07ba67f074a7ba95f506663111f59fce", "asm": "3044022009e031baa98dc4816f10ac37a787740d985365b0561e5c26de9f6be59a5ae4ec022039415768dad4c7da957cf39b4d558f9ef75a8acf7a2468271f30a28c87777efc[ALL] 029f318b304c52395223be4b137e67dcde07ba67f074a7ba95f506663111f59fce"}, "vout": 0, "txid": "e425d30040ec0fc9d39bfec852ecdae31f6fefd3549046a7eed71bf567fbab6f"}], "txid": "a74affffaec2036b6253d3fd387a03ee0ce7e02b866219efa52b36514e4eb74f", "blocktime": 1537875543, "version": 1, "confirmations": 11464, "time": 1537875543, "locktime": 0, "vsize": 1226, "size": 1226}