{"hash": "862a946b26ae4a81a7e0611c03c1e1e3c8994dec4c16dc3adfd6538a6ed2c66e", "blockhash": "00000000000000000018f53835495a110e01622372bf6ae95dc86f2b0ab887b0", "vout": [{"scriptPubKey": {"reqSigs": 1, "hex": "0014059f789c7f92b94657c4e716e3e38ccd288c3a7d", "addresses": ["bc1qqk0h38rlj2u5v47yuutw8cuve55gcwnawp7kex"], "asm": "0 059f789c7f92b94657c4e716e3e38ccd288c3a7d", "type": "witness_v0_keyhash"}, "value": 0.03303046, "n": 0}, {"scriptPubKey": {"reqSigs": 1, "hex": "a914ce79f987b8ba776044e04d0c9ce5b8e4ff7bd2b787", "addresses": ["3LWmF1jUKLn7zgk8SYi8rHWMEuzuFFXUiC"], "asm": "OP_HASH160 ce79f987b8ba776044e04d0c9ce5b8e4ff7bd2b7 OP_EQUAL", "type": "scripthash"}, "value": 0.08421722, "n": 1}], "hex": "0100000000010168bc47c1fdf52ea1e09b678e346b078ac09bedbb782004b2569ee6587385ab460000000000ffffffff028666320000000000160014059f789c7f92b94657c4e716e3e38ccd288c3a7d5a8180000000000017a914ce79f987b8ba776044e04d0c9ce5b8e4ff7bd2b78702483045022100de87e88e518e351067ef9f9cb98c891dcf461d736c63c1e64523881d56e7e9fa02207b91b2b03b8b60f0070465b4b627535f256a0b63203ed8f44ecb94df9718cb3f012103f0e149153f6e8c96059d6ea82825328e0660c231e6b5c3c3653bd9b31971cbe000000000", "vin": [{"txinwitness": ["3045022100de87e88e518e351067ef9f9cb98c891dcf461d736c63c1e64523881d56e7e9fa02207b91b2b03b8b60f0070465b4b627535f256a0b63203ed8f44ecb94df9718cb3f01", "03f0e149153f6e8c96059d6ea82825328e0660c231e6b5c3c3653bd9b31971cbe0"], "sequence": 4294967295, "scriptSig": {"hex": "", "asm": ""}, "vout": 0, "txid": "46ab857358e69e56b2042078bbed9bc08a076b348e679be0a12ef5fdc147bc68"}], "txid": "a74c88b4997b24bab7897203af7a34cf4680015fc4d8cf8115010481e227e9a0", "blocktime": 1537870928, "version": 1, "confirmations": 11513, "time": 1537870928, "locktime": 0, "vsize": 142, "size": 224}