{"hash": "1482a399b1624760a9cf95d5f48ed00f0c310d82f29bbe735610e056647a585a", "blockhash": "00000000000000000017f5eb5941039fbcee6240d03bc1f2f8e35350df66a1d8", "vout": [{"scriptPubKey": {"reqSigs": 1, "hex": "a914699444a0172a810b9b9666ec36d849089cf4cc8787", "addresses": ["3BKGVXoZxyWTcUBCmHrbBe1GVLn93DBkHE"], "asm": "OP_HASH160 699444a0172a810b9b9666ec36d849089cf4cc87 OP_EQUAL", "type": "scripthash"}, "value": 0.007994, "n": 0}, {"scriptPubKey": {"reqSigs": 1, "hex": "a914e4f52a5f48ebd3f4bba4aa9b465ca409ccc0886b87", "addresses": ["3NZdggP7ciaAjgsfVLcEJQ6ewiZaJv1byx"], "asm": "OP_HASH160 e4f52a5f48ebd3f4bba4aa9b465ca409ccc0886b OP_EQUAL", "type": "scripthash"}, "value": 0.101602, "n": 1}], "hex": "01000000000101e307d4b42356df0511a59de48101528a77aec79d40b13b4baf723bcd82f030b4000000002322002083867e2b62b9752acbf9a81e1d811c8d45b864ba541e1cdd02187e4ef6361f34ffffffff02a8320c000000000017a914699444a0172a810b9b9666ec36d849089cf4cc878748089b000000000017a914e4f52a5f48ebd3f4bba4aa9b465ca409ccc0886b870400473044022062cd9310b59a96458c935b89097cd164db8b21ee3545f4f8d91dbb3388f07dc4022021afd8ee44a3f349dd3e3774f6875abde09a2bf790c6154bc30fd4c03212a73001483045022100b74afbb1d39c0cba767b2f912c77fdcb6c40966190d2ea9273d5152720f6767c02207fb23efe871c68f8793d666317995085f24f420b96719362de0f0879076e7cec01695221033d2eb14304607a74f715ff84ba96b2966123ea85b1e85150ac6c8a0fb9805b272102ceb2b69425a4c69648b504a0792327bb78224a65153f73622745211ee1d9ac462103913d70dcda23e666f30c70857a8b345458836fe58ac54896e938872e20cf90e653ae00000000", "vin": [{"txinwitness": ["", "3044022062cd9310b59a96458c935b89097cd164db8b21ee3545f4f8d91dbb3388f07dc4022021afd8ee44a3f349dd3e3774f6875abde09a2bf790c6154bc30fd4c03212a73001", "3045022100b74afbb1d39c0cba767b2f912c77fdcb6c40966190d2ea9273d5152720f6767c02207fb23efe871c68f8793d666317995085f24f420b96719362de0f0879076e7cec01", "5221033d2eb14304607a74f715ff84ba96b2966123ea85b1e85150ac6c8a0fb9805b272102ceb2b69425a4c69648b504a0792327bb78224a65153f73622745211ee1d9ac462103913d70dcda23e666f30c70857a8b345458836fe58ac54896e938872e20cf90e653ae"], "sequence": 4294967295, "scriptSig": {"hex": "22002083867e2b62b9752acbf9a81e1d811c8d45b864ba541e1cdd02187e4ef6361f34", "asm": "002083867e2b62b9752acbf9a81e1d811c8d45b864ba541e1cdd02187e4ef6361f34"}, "vout": 0, "txid": "b430f082cd3b72af4b3bb1409dc7ae778a520181e49da51105df5623b4d407e3"}], "txid": "a7540d45ccfc8ecde8f7821c1f9025191171711c445f00bfbbd55881d83642f6", "blocktime": 1537874412, "version": 1, "confirmations": 11468, "time": 1537874412, "locktime": 0, "vsize": 214, "size": 405}