{"hash": "a7554f72e27cf74d2d550ce275423104243ca47432d486d1a5b230c7a8bb3c89", "blockhash": "00000000000000000004ffacab907a6b429b9a5745fa0b75af4234bf69dd7176", "vout": [{"scriptPubKey": {"reqSigs": 1, "hex": "76a914749873498592ad5af2225eb4032af7c6e8989a2388ac", "addresses": ["1BdW1gtPtq4m3BbSt8MAsUUMRf5QU1NEvr"], "asm": "OP_DUP OP_HASH160 749873498592ad5af2225eb4032af7c6e8989a23 OP_EQUALVERIFY OP_CHECKSIG", "type": "pubkeyhash"}, "value": 0.00124726, "n": 0}, {"scriptPubKey": {"reqSigs": 1, "hex": "76a914e980406100f1b02d9023620d15858ca5a5fb144c88ac", "addresses": ["1NHe5mQK8w5uu6QxqnWsd6M8fPLPiYGWzA"], "asm": "OP_DUP OP_HASH160 e980406100f1b02d9023620d15858ca5a5fb144c OP_EQUALVERIFY OP_CHECKSIG", "type": "pubkeyhash"}, "value": 0.08149264, "n": 1}], "hex": "0100000001c08a2bd7047ea66bdbe0de9e00addfbd8efeee7fc02178e8a9ddea3ec84620ed010000006b483045022100bbab9793be76fc75c740ccf64a02542fc11e537ec838ac902d6d63803f48c9660220376d1468aea561d7d86d9f6b66930df0cf5d26567c9c8871dabba328eb46ccb7012103ad603f5d3610dce0c476cc5ff31b70d340cb842f4285d362fdb63d990e4c8e16ffffffff0236e70100000000001976a914749873498592ad5af2225eb4032af7c6e8989a2388ac10597c00000000001976a914e980406100f1b02d9023620d15858ca5a5fb144c88ac00000000", "vin": [{"sequence": 4294967295, "scriptSig": {"hex": "483045022100bbab9793be76fc75c740ccf64a02542fc11e537ec838ac902d6d63803f48c9660220376d1468aea561d7d86d9f6b66930df0cf5d26567c9c8871dabba328eb46ccb7012103ad603f5d3610dce0c476cc5ff31b70d340cb842f4285d362fdb63d990e4c8e16", "asm": "3045022100bbab9793be76fc75c740ccf64a02542fc11e537ec838ac902d6d63803f48c9660220376d1468aea561d7d86d9f6b66930df0cf5d26567c9c8871dabba328eb46ccb7[ALL] 03ad603f5d3610dce0c476cc5ff31b70d340cb842f4285d362fdb63d990e4c8e16"}, "vout": 1, "txid": "ed2046c83eeadda9e87821c07feefe8ebddfad009edee0db6ba67e04d72b8ac0"}], "txid": "a7554f72e27cf74d2d550ce275423104243ca47432d486d1a5b230c7a8bb3c89", "blocktime": 1537875543, "version": 1, "confirmations": 11464, "time": 1537875543, "locktime": 0, "vsize": 226, "size": 226}