{"hash": "a75702006b0ccbb210867ae3d9b80cbdbb02826345c3bbf9949539bf6e9eb5c5", "blockhash": "0000000000000000001e0dab787dd257d1dbfcb92a98c2207d5e1078be1f4165", "vout": [{"scriptPubKey": {"reqSigs": 1, "hex": "76a9143123e1a8785d2fb80413e63a613d42314df4418e88ac", "addresses": ["15Uq6VL287H1WwyCFrGfKyS3VrHwugTiU1"], "asm": "OP_DUP OP_HASH160 3123e1a8785d2fb80413e63a613d42314df4418e OP_EQUALVERIFY OP_CHECKSIG", "type": "pubkeyhash"}, "value": 0.008858, "n": 0}, {"scriptPubKey": {"reqSigs": 1, "hex": "76a914a2384d0a86f1d227b7c9fa2e06cb95e12b93d48688ac", "addresses": ["1FnjuwCpoAFKseuquv41TXY7bQsPpX2eKT"], "asm": "OP_DUP OP_HASH160 a2384d0a86f1d227b7c9fa2e06cb95e12b93d486 OP_EQUALVERIFY OP_CHECKSIG", "type": "pubkeyhash"}, "value": 0.0092, "n": 1}], "hex": "0100000001826849decf9f564bb98dd95ec661444931fb597dac77b0e0923dd06a628423a4000000006a47304402204b0410e850651baa6b8d304b5d70d9983fd3ba039216e1c4f134420b9feed497022075959613cdd65283176bc47def03b6aa60479f22301d13159df7f65cd4db3cdd012103e5a6406afa6cb8359de6c1f2fcaa428d74a0dfc32bd5be679011b9a885b06130ffffffff0228840d00000000001976a9143123e1a8785d2fb80413e63a613d42314df4418e88acc0090e00000000001976a914a2384d0a86f1d227b7c9fa2e06cb95e12b93d48688ac00000000", "vin": [{"sequence": 4294967295, "scriptSig": {"hex": "47304402204b0410e850651baa6b8d304b5d70d9983fd3ba039216e1c4f134420b9feed497022075959613cdd65283176bc47def03b6aa60479f22301d13159df7f65cd4db3cdd012103e5a6406afa6cb8359de6c1f2fcaa428d74a0dfc32bd5be679011b9a885b06130", "asm": "304402204b0410e850651baa6b8d304b5d70d9983fd3ba039216e1c4f134420b9feed497022075959613cdd65283176bc47def03b6aa60479f22301d13159df7f65cd4db3cdd[ALL] 03e5a6406afa6cb8359de6c1f2fcaa428d74a0dfc32bd5be679011b9a885b06130"}, "vout": 0, "txid": "a42384626ad03d92e0b077ac7d59fb31494461c65ed98db94b569fcfde496882"}], "txid": "a75702006b0ccbb210867ae3d9b80cbdbb02826345c3bbf9949539bf6e9eb5c5", "blocktime": 1537872475, "version": 1, "confirmations": 11487, "time": 1537872475, "locktime": 0, "vsize": 225, "size": 225}