{"hash": "a75a4ff0fa57a7a3a89ea16df4a0721f7210cb90f65b33dddd50d8833efe2764", "blockhash": "0000000000000000000e13cef7c366c0283d82e591d1acd082e914b08063cdf1", "vout": [{"scriptPubKey": {"reqSigs": 1, "hex": "76a9145df16a87fca5e0b368dbfb1c330fd86eb8a0b2e588ac", "addresses": ["19Zj3jCQV78xHa5pbEtbrpb7ZQVZ6YTQJB"], "asm": "OP_DUP OP_HASH160 5df16a87fca5e0b368dbfb1c330fd86eb8a0b2e5 OP_EQUALVERIFY OP_CHECKSIG", "type": "pubkeyhash"}, "value": 0.00518722, "n": 0}, {"scriptPubKey": {"reqSigs": 1, "hex": "76a914e3a8dc01afd27003a69903625119394ed2d50c4d88ac", "addresses": ["1Mkkg6wKWv3AEksZ91WTkn9qc8QBiPUSqt"], "asm": "OP_DUP OP_HASH160 e3a8dc01afd27003a69903625119394ed2d50c4d OP_EQUALVERIFY OP_CHECKSIG", "type": "pubkeyhash"}, "value": 0.01568546, "n": 1}], "hex": "0100000001271e4d506a02c02f1e5eb2442a16300abf1db3519b4dda981674f895240ac09c000000006a4730440220412ce7ff6cd6b7d0638d54e839e4b4a00e0fe812e60329b9e897d4f36089ebec022010c980ba176999e5a0e06abe61ee31b0cf87664bb5084ff761330ebc1aa34de10121037909bc25e0c436b238e1569c23cbb046ffcc551f07b0212fa373ce6fcd492e45ffffffff0242ea0700000000001976a9145df16a87fca5e0b368dbfb1c330fd86eb8a0b2e588ac22ef1700000000001976a914e3a8dc01afd27003a69903625119394ed2d50c4d88ac00000000", "vin": [{"sequence": 4294967295, "scriptSig": {"hex": "4730440220412ce7ff6cd6b7d0638d54e839e4b4a00e0fe812e60329b9e897d4f36089ebec022010c980ba176999e5a0e06abe61ee31b0cf87664bb5084ff761330ebc1aa34de10121037909bc25e0c436b238e1569c23cbb046ffcc551f07b0212fa373ce6fcd492e45", "asm": "30440220412ce7ff6cd6b7d0638d54e839e4b4a00e0fe812e60329b9e897d4f36089ebec022010c980ba176999e5a0e06abe61ee31b0cf87664bb5084ff761330ebc1aa34de1[ALL] 037909bc25e0c436b238e1569c23cbb046ffcc551f07b0212fa373ce6fcd492e45"}, "vout": 0, "txid": "9cc00a2495f8741698da4d9b51b31dbf0a30162a44b25e1e2fc0026a504d1e27"}], "txid": "a75a4ff0fa57a7a3a89ea16df4a0721f7210cb90f65b33dddd50d8833efe2764", "blocktime": 1537871767, "version": 1, "confirmations": 11495, "time": 1537871767, "locktime": 0, "vsize": 225, "size": 225}