{"hash": "a760a3fd3fdd1d7554ea4ac9617ac0639d2c076a24c6c5eecf798bd62ae1fe89", "blockhash": "0000000000000000000e13cef7c366c0283d82e591d1acd082e914b08063cdf1", "vout": [{"scriptPubKey": {"reqSigs": 1, "hex": "76a914bff2f09b56312a24dcfe1054e16c170d5c7111fb88ac", "addresses": ["1JVw6Q4vPSE6EydXRj5CCYKHordn5iYbsM"], "asm": "OP_DUP OP_HASH160 bff2f09b56312a24dcfe1054e16c170d5c7111fb OP_EQUALVERIFY OP_CHECKSIG", "type": "pubkeyhash"}, "value": 0.00108906, "n": 0}, {"scriptPubKey": {"type": "nulldata", "hex": "6a4c500000779c000114a898f23fe1bc665f662dbfe3ef3236678a625097bcbefa6b8351586b4eba21a813ee8def98f42073a9709d8c795baa0d99061567b421566cf6c288b2720c27cdda35b5f050e1b42260", "asm": "OP_RETURN 0000779c000114a898f23fe1bc665f662dbfe3ef3236678a625097bcbefa6b8351586b4eba21a813ee8def98f42073a9709d8c795baa0d99061567b421566cf6c288b2720c27cdda35b5f050e1b42260"}, "value": 0.0, "n": 1}], "hex": "0100000001a0c57ef226cbe8d66f6ce92abd0ebc1a0574f96eb327705ddc0fbbc30100fd34010000006a473044022069393bee30066d6a560e56c79f471e0f0a7ad6a1d99a193b1fc8d022eb1ae85e022007d45b0c17dd1d7ffb3357627cde55a0f69f4b5d9915c8d5ad6e2c5e16e15d9d01210250a12238a5ccc9541263006212ba28d18648e7e798cf8adf366961ff7f9c097cffffffff026aa90100000000001976a914bff2f09b56312a24dcfe1054e16c170d5c7111fb88ac0000000000000000536a4c500000779c000114a898f23fe1bc665f662dbfe3ef3236678a625097bcbefa6b8351586b4eba21a813ee8def98f42073a9709d8c795baa0d99061567b421566cf6c288b2720c27cdda35b5f050e1b4226000000000", "vin": [{"sequence": 4294967295, "scriptSig": {"hex": "473044022069393bee30066d6a560e56c79f471e0f0a7ad6a1d99a193b1fc8d022eb1ae85e022007d45b0c17dd1d7ffb3357627cde55a0f69f4b5d9915c8d5ad6e2c5e16e15d9d01210250a12238a5ccc9541263006212ba28d18648e7e798cf8adf366961ff7f9c097c", "asm": "3044022069393bee30066d6a560e56c79f471e0f0a7ad6a1d99a193b1fc8d022eb1ae85e022007d45b0c17dd1d7ffb3357627cde55a0f69f4b5d9915c8d5ad6e2c5e16e15d9d[ALL] 0250a12238a5ccc9541263006212ba28d18648e7e798cf8adf366961ff7f9c097c"}, "vout": 1, "txid": "34fd0001c3bb0fdc5d7027b36ef974051abc0ebd2ae96c6fd6e8cb26f27ec5a0"}], "txid": "a760a3fd3fdd1d7554ea4ac9617ac0639d2c076a24c6c5eecf798bd62ae1fe89", "blocktime": 1537871767, "version": 1, "confirmations": 11492, "time": 1537871767, "locktime": 0, "vsize": 283, "size": 283}