{"hash": "68201258f6ca5492f091649b73a3eaba4e9bf34053cb68e9f03a4e969305bf16", "blockhash": "0000000000000000001f76057863aec43deb6fa401d9628bb513d65a8098bfab", "vout": [{"scriptPubKey": {"reqSigs": 1, "hex": "76a914d7e605e8436924ee40929605c4d635dd68517fe788ac", "addresses": ["1LgZqXZqBWuAy55ZKyzSuNMjPTsgBcwqUg"], "asm": "OP_DUP OP_HASH160 d7e605e8436924ee40929605c4d635dd68517fe7 OP_EQUALVERIFY OP_CHECKSIG", "type": "pubkeyhash"}, "value": 0.01700766, "n": 0}, {"scriptPubKey": {"reqSigs": 1, "hex": "76a914f8edfa9d3cb71f5b99d61211ca6e9dd013534ce888ac", "addresses": ["1PhDfeEyc3adxXgHxmScgqgY3quDcBKkJy"], "asm": "OP_DUP OP_HASH160 f8edfa9d3cb71f5b99d61211ca6e9dd013534ce8 OP_EQUALVERIFY OP_CHECKSIG", "type": "pubkeyhash"}, "value": 0.00016179, "n": 1}], "hex": "02000000000101c11f25765ae605833e7e38b6404d773cf16b4daed870f14aac7e7c83b60de9420100000017160014b77978131378b16d9b7cb4f73d2d526736272450fdffffff029ef31900000000001976a914d7e605e8436924ee40929605c4d635dd68517fe788ac333f0000000000001976a914f8edfa9d3cb71f5b99d61211ca6e9dd013534ce888ac02473044022001714c159672c5ae97b4b77ab424c52e0bda27befa59000059465167bbb67b4d02200b2e66f4f87b36fb7439fdbf4098f9eb959476f94ee176171444f7d36fb9a563012102b26ce7a79bfa7ad742e617c663cf886a1318dd560786da9864da4682cd43be2100000000", "vin": [{"txinwitness": ["3044022001714c159672c5ae97b4b77ab424c52e0bda27befa59000059465167bbb67b4d02200b2e66f4f87b36fb7439fdbf4098f9eb959476f94ee176171444f7d36fb9a56301", "02b26ce7a79bfa7ad742e617c663cf886a1318dd560786da9864da4682cd43be21"], "sequence": 4294967293, "scriptSig": {"hex": "160014b77978131378b16d9b7cb4f73d2d526736272450", "asm": "0014b77978131378b16d9b7cb4f73d2d526736272450"}, "vout": 1, "txid": "42e90db6837c7eac4af170d8ae4d6bf13c774d40b6387e3e8305e65a76251fc1"}], "txid": "a761cbf27bd0ca1df139d35020c097462ba808099b5c0328dc959aa825b88e77", "blocktime": 1537873891, "version": 2, "confirmations": 11477, "time": 1537873891, "locktime": 0, "vsize": 170, "size": 251}