{"hash": "a7639612f3665534242489a2a41106a1574ccc59a84da7856b3208ba34a18bb0", "blockhash": "0000000000000000000dcc0f55137456b1a82d3642486a52398922ac4d620174", "vout": [{"scriptPubKey": {"reqSigs": 1, "hex": "76a914a7cdaba4230c29ea3b05834ac8f51e5b52c3629188ac", "addresses": ["1GJGEGhbXVnaUvUdSeeFr5b1bEGEZ1bFuQ"], "asm": "OP_DUP OP_HASH160 a7cdaba4230c29ea3b05834ac8f51e5b52c36291 OP_EQUALVERIFY OP_CHECKSIG", "type": "pubkeyhash"}, "value": 0.067847, "n": 0}], "hex": "01000000013be76bf5cee22f69288a764ffc6ee19c2d566697a8d6e3cb7dd3af0060cfa5e2000000006b483045022100ce914df4ed45d77606f0bdc1a580d383cb652b600b1ade1bdc5e69abdc968d5d022063fe5acfb02a5bcd7d5bf7e91d30a2a47dcb68b778979bc3ac0c9b3801ae6a140121028e24916c98cccaf0d3cdadcffc6fc24610e02b1a654bc8233168c2d02df945c5ffffffff01bc866700000000001976a914a7cdaba4230c29ea3b05834ac8f51e5b52c3629188ac00000000", "vin": [{"sequence": 4294967295, "scriptSig": {"hex": "483045022100ce914df4ed45d77606f0bdc1a580d383cb652b600b1ade1bdc5e69abdc968d5d022063fe5acfb02a5bcd7d5bf7e91d30a2a47dcb68b778979bc3ac0c9b3801ae6a140121028e24916c98cccaf0d3cdadcffc6fc24610e02b1a654bc8233168c2d02df945c5", "asm": "3045022100ce914df4ed45d77606f0bdc1a580d383cb652b600b1ade1bdc5e69abdc968d5d022063fe5acfb02a5bcd7d5bf7e91d30a2a47dcb68b778979bc3ac0c9b3801ae6a14[ALL] 028e24916c98cccaf0d3cdadcffc6fc24610e02b1a654bc8233168c2d02df945c5"}, "vout": 0, "txid": "e2a5cf6000afd37dcbe3d6a89766562d9ce16efc4f768a28692fe2cef56be73b"}], "txid": "a7639612f3665534242489a2a41106a1574ccc59a84da7856b3208ba34a18bb0", "blocktime": 1537870268, "version": 1, "confirmations": 11516, "time": 1537870268, "locktime": 0, "vsize": 192, "size": 192}