{"hash": "a7636cd35026aa8c2870997b51085e72af270168aad2564872b7b47116938ed9", "blockhash": "00000000000000000017f5eb5941039fbcee6240d03bc1f2f8e35350df66a1d8", "vout": [{"scriptPubKey": {"reqSigs": 1, "hex": "a914759f0632122b7186b5e56c92d19463f137c2bd9887", "addresses": ["3CQwVBaLVCcC4Bo6ZPcMPk8j4ZKNjeJb2k"], "asm": "OP_HASH160 759f0632122b7186b5e56c92d19463f137c2bd98 OP_EQUAL", "type": "scripthash"}, "value": 0.094384, "n": 0}, {"scriptPubKey": {"reqSigs": 1, "hex": "76a914e05358b7b3351e33ace631bddab2b50c6fe933c588ac", "addresses": ["1MT8CzRWCL65QieDRP5RResTtEAWe8zohe"], "asm": "OP_DUP OP_HASH160 e05358b7b3351e33ace631bddab2b50c6fe933c5 OP_EQUALVERIFY OP_CHECKSIG", "type": "pubkeyhash"}, "value": 0.35706814, "n": 1}], "hex": "01000000010971fdb3b31c8d5c0d5d7926bc1b4b82b8899553095ec18719ef6b2da8d88a46010000006a473044022075050691e4de85d0076c95249d9df033be4fdc6cae3abb099ecb4fab7f03689c02200567c1089351fc031f9975464b3bd409be5d754ef0d41b183131440b2603bca50121020a3a087b3a9d54368da84c5066f84e637734c08223bb3c39997b07ea19493726ffffffff02c00490000000000017a914759f0632122b7186b5e56c92d19463f137c2bd9887bed72002000000001976a914e05358b7b3351e33ace631bddab2b50c6fe933c588ac00000000", "vin": [{"sequence": 4294967295, "scriptSig": {"hex": "473044022075050691e4de85d0076c95249d9df033be4fdc6cae3abb099ecb4fab7f03689c02200567c1089351fc031f9975464b3bd409be5d754ef0d41b183131440b2603bca50121020a3a087b3a9d54368da84c5066f84e637734c08223bb3c39997b07ea19493726", "asm": "3044022075050691e4de85d0076c95249d9df033be4fdc6cae3abb099ecb4fab7f03689c02200567c1089351fc031f9975464b3bd409be5d754ef0d41b183131440b2603bca5[ALL] 020a3a087b3a9d54368da84c5066f84e637734c08223bb3c39997b07ea19493726"}, "vout": 1, "txid": "468ad8a82d6bef1987c15e09539589b8824b1bbc26795d0d5c8d1cb3b3fd7109"}], "txid": "a7636cd35026aa8c2870997b51085e72af270168aad2564872b7b47116938ed9", "blocktime": 1537874412, "version": 1, "confirmations": 11467, "time": 1537874412, "locktime": 0, "vsize": 223, "size": 223}