{"hash": "a76371510bbfb82f4ac58e38d1ef14fd7618e0ad00486d1738e1b2220afc2f4d", "blockhash": "0000000000000000000baef3f32e3676a92c3b2e5da21b426e4f302fc371ce76", "vout": [{"scriptPubKey": {"reqSigs": 1, "hex": "76a9140243958398cdb01dede5dcee5b6842c9d6ee83f488ac", "addresses": ["1CyKCtjB3qYqBRSbLfW57kHGQPbxJbCme"], "asm": "OP_DUP OP_HASH160 0243958398cdb01dede5dcee5b6842c9d6ee83f4 OP_EQUALVERIFY OP_CHECKSIG", "type": "pubkeyhash"}, "value": 0.0145752, "n": 0}, {"scriptPubKey": {"reqSigs": 1, "hex": "76a9140e6f436d0af90335ad0ed7c6db19293d4afd7a0288ac", "addresses": ["12KKkQFtgMzBFNyCCyD1jypi274EDBcqSV"], "asm": "OP_DUP OP_HASH160 0e6f436d0af90335ad0ed7c6db19293d4afd7a02 OP_EQUALVERIFY OP_CHECKSIG", "type": "pubkeyhash"}, "value": 0.11579182, "n": 1}], "hex": "01000000010db4a16f37da58a23342c50192c63988cc1ee952060f42822e4253d79d5e7f38010000006b483045022100c1f3610c6bdee37b8008dd1e987d47869d6678e82ab1e9d36718bf5e6d13b171022001cea9dbdf620bb0957f3712155c0df91312bdc1510c952070bdb24fbf7a0757012102f59285165139b254289f0594cc214021df755d0984aafeb6eb7505525b294f9dffffffff02703d1600000000001976a9140243958398cdb01dede5dcee5b6842c9d6ee83f488ac2eafb000000000001976a9140e6f436d0af90335ad0ed7c6db19293d4afd7a0288ac00000000", "vin": [{"sequence": 4294967295, "scriptSig": {"hex": "483045022100c1f3610c6bdee37b8008dd1e987d47869d6678e82ab1e9d36718bf5e6d13b171022001cea9dbdf620bb0957f3712155c0df91312bdc1510c952070bdb24fbf7a0757012102f59285165139b254289f0594cc214021df755d0984aafeb6eb7505525b294f9d", "asm": "3045022100c1f3610c6bdee37b8008dd1e987d47869d6678e82ab1e9d36718bf5e6d13b171022001cea9dbdf620bb0957f3712155c0df91312bdc1510c952070bdb24fbf7a0757[ALL] 02f59285165139b254289f0594cc214021df755d0984aafeb6eb7505525b294f9d"}, "vout": 1, "txid": "387f5e9dd753422e82420f0652e91ecc8839c69201c54233a258da376fa1b40d"}], "txid": "a76371510bbfb82f4ac58e38d1ef14fd7618e0ad00486d1738e1b2220afc2f4d", "blocktime": 1537876114, "version": 1, "confirmations": 11459, "time": 1537876114, "locktime": 0, "vsize": 226, "size": 226}