{"hash": "a7785dd3192e88c4c70dc0b06f58e791348ae641a735ca315f77f3f98e9c1993", "blockhash": "00000000000000000024a2167bbff67b0be802c0b01cdd79e6331c2be6459f87", "vout": [{"scriptPubKey": {"reqSigs": 1, "hex": "76a9149c2e24ba4b5038497b1677a2a04f3c7487cff15588ac", "addresses": ["1FEoh2jXV1UDo3aUkVMyKfb9cjyZSMv9JW"], "asm": "OP_DUP OP_HASH160 9c2e24ba4b5038497b1677a2a04f3c7487cff155 OP_EQUALVERIFY OP_CHECKSIG", "type": "pubkeyhash"}, "value": 0.00933103, "n": 0}, {"scriptPubKey": {"reqSigs": 1, "hex": "76a914e1f01e6b868f58d36913372e0612164aa053eeb688ac", "addresses": ["1MbeguoyG57KAG3wUaNo2d31wQz8xtZpc2"], "asm": "OP_DUP OP_HASH160 e1f01e6b868f58d36913372e0612164aa053eeb6 OP_EQUALVERIFY OP_CHECKSIG", "type": "pubkeyhash"}, "value": 0.0164682, "n": 1}], "hex": "01000000014dd65bb7c097f0bab82f4385f34eb728d6ec683a1c32e489b38e6a58fcdc0e5c010000006a4730440220364d87e53ef8fa1cd05d95db2567e7168d4e6e19da617bc22dd13cf091703b98022015f9fb4003609dd733f5a7d7c45983bab098cc173f8e1af65e511f3552b6d08f012103f244fdcee8d69d406d44c5ae01ddaa0689d9ccce9fbc361e1e74599275bf4836ffffffff02ef3c0e00000000001976a9149c2e24ba4b5038497b1677a2a04f3c7487cff15588ace4201900000000001976a914e1f01e6b868f58d36913372e0612164aa053eeb688ac00000000", "vin": [{"sequence": 4294967295, "scriptSig": {"hex": "4730440220364d87e53ef8fa1cd05d95db2567e7168d4e6e19da617bc22dd13cf091703b98022015f9fb4003609dd733f5a7d7c45983bab098cc173f8e1af65e511f3552b6d08f012103f244fdcee8d69d406d44c5ae01ddaa0689d9ccce9fbc361e1e74599275bf4836", "asm": "30440220364d87e53ef8fa1cd05d95db2567e7168d4e6e19da617bc22dd13cf091703b98022015f9fb4003609dd733f5a7d7c45983bab098cc173f8e1af65e511f3552b6d08f[ALL] 03f244fdcee8d69d406d44c5ae01ddaa0689d9ccce9fbc361e1e74599275bf4836"}, "vout": 1, "txid": "5c0edcfc586a8eb389e4321c3a68ecd628b74ef385432fb8baf097c0b75bd64d"}], "txid": "a7785dd3192e88c4c70dc0b06f58e791348ae641a735ca315f77f3f98e9c1993", "blocktime": 1537870564, "version": 1, "confirmations": 11515, "time": 1537870564, "locktime": 0, "vsize": 225, "size": 225}