{"hash": "63895c6c215664b9f18f86dd6e2e1c9017be2fade804ff24233b33d1e5779ff5", "blockhash": "0000000000000000001f0ddff1eddb255c1121bcd4da4f1bc9a0da00cae72433", "vout": [{"scriptPubKey": {"reqSigs": 1, "hex": "a914a5a61769c84d227457bb1aea6ab80579830d934d87", "addresses": ["3GntPS3T4A25ChNoRzTzXoYjssM3MEEsWW"], "asm": "OP_HASH160 a5a61769c84d227457bb1aea6ab80579830d934d OP_EQUAL", "type": "scripthash"}, "value": 0.01000677, "n": 0}, {"scriptPubKey": {"reqSigs": 1, "hex": "76a9148dce5fc1e415529841e6909824fe9dd3e626a72788ac", "addresses": ["1DvoWAnFa6f76tfTdUcuDP1yttsDhg2XCw"], "asm": "OP_DUP OP_HASH160 8dce5fc1e415529841e6909824fe9dd3e626a727 OP_EQUALVERIFY OP_CHECKSIG", "type": "pubkeyhash"}, "value": 0.0026096, "n": 1}], "hex": "020000000001024478748c5d28740f04dc2c5229f0ba01105cecfbfd38fae43175b27a1bdb2838000000001716001404ed325a3d9c8c79a224238abe781067fee76670fefffffffdbd818d6cfbde325a665d5405ce601c3ad5093bf478bca96a1fad764896cc200000000017160014bcb5c7b9319d0487fdc87edf7356c402791568fffeffffff02e5440f000000000017a914a5a61769c84d227457bb1aea6ab80579830d934d8760fb0300000000001976a9148dce5fc1e415529841e6909824fe9dd3e626a72788ac024830450221008517e4914ea3384d07d0d5118663b4a9cba369a1aeee432b29dad38b087515a2022041daf3b4d0d2786827fb39827b8f0cc8e3876b138292287e12c2b67a745e82c601210212d51d4a0e5487836bba2e5e76493ae0b858bcb5d968255d47c2a529a44e0d0602483045022100c661d7b1886e2558fddb7deaa03e30060b79e062a29c1a71e446d9a320bd927f02207e500e356a33b57ca8152b7efc1465650e62a9133553b10adcd9eb10a5913af601210328709a3247e1ab422d5889e6c016cfef15917ae43fca2b924bc1a4455641fc1111490800", "vin": [{"txinwitness": ["30450221008517e4914ea3384d07d0d5118663b4a9cba369a1aeee432b29dad38b087515a2022041daf3b4d0d2786827fb39827b8f0cc8e3876b138292287e12c2b67a745e82c601", "0212d51d4a0e5487836bba2e5e76493ae0b858bcb5d968255d47c2a529a44e0d06"], "sequence": 4294967294, "scriptSig": {"hex": "16001404ed325a3d9c8c79a224238abe781067fee76670", "asm": "001404ed325a3d9c8c79a224238abe781067fee76670"}, "vout": 0, "txid": "3828db1b7ab27531e4fa38fdfbec5c1001baf029522cdc040f74285d8c747844"}, {"txinwitness": ["3045022100c661d7b1886e2558fddb7deaa03e30060b79e062a29c1a71e446d9a320bd927f02207e500e356a33b57ca8152b7efc1465650e62a9133553b10adcd9eb10a5913af601", "0328709a3247e1ab422d5889e6c016cfef15917ae43fca2b924bc1a4455641fc11"], "sequence": 4294967294, "scriptSig": {"hex": "160014bcb5c7b9319d0487fdc87edf7356c402791568ff", "asm": "0014bcb5c7b9319d0487fdc87edf7356c402791568ff"}, "vout": 0, "txid": "20cc964876ad1f6aa9bc78f43b09d53a1c60ce05545d665a32defb6c8d81bdfd"}], "txid": "a77a7f92ad76a36efe6aac63d7462951915aee8a25d0eb7e0582a4fa83bf5a92", "blocktime": 1537872018, "version": 2, "confirmations": 11489, "time": 1537872018, "locktime": 542993, "vsize": 259, "size": 422}