{"hash": "cd38c7263a3a1b61b9e573b0d6946c8aff7607c764dcacd6c64d7fa2cf1f9325", "blockhash": "0000000000000000001cda96e906b7601b7a6fb1a3b62bca570a9e5d8f4b3de1", "vout": [{"scriptPubKey": {"reqSigs": 1, "hex": "001465a54f8828cadb400e47e53c78a20df5e5f6d02d", "addresses": ["bc1qvkj5lzpgetd5qrj8u5783gsd7hjld5pdjwn4s5"], "asm": "0 65a54f8828cadb400e47e53c78a20df5e5f6d02d", "type": "witness_v0_keyhash"}, "value": 2.847e-05, "n": 0}, {"scriptPubKey": {"reqSigs": 1, "hex": "76a9145c127f9fbc4a1964f340625cced85b8b1038fba088ac", "addresses": ["19PqKx31eE6N22xLJ19pgabxe8DnqmJbR6"], "asm": "OP_DUP OP_HASH160 5c127f9fbc4a1964f340625cced85b8b1038fba0 OP_EQUALVERIFY OP_CHECKSIG", "type": "pubkeyhash"}, "value": 0.00177569, "n": 1}], "hex": "01000000000101b443d34ffa98b0ba5e70fbebe4326c0574bd2c87b31a9cb6201b61e90cd329e1360000001716001457f1ab7b108078bcab6697326dd651ca37679bd2ffffffff021f0b00000000000016001465a54f8828cadb400e47e53c78a20df5e5f6d02da1b50200000000001976a9145c127f9fbc4a1964f340625cced85b8b1038fba088ac024730440220184571ca07d5f1e758713f5ea006efc890644bcbc7b9b4cc2209fa81a22a829502206867c018d5625f224c264007864cf1b489b0bc2d9fb09c2faf8dd0606173266b012102a84737deed5069db098e67268ab6f95a53d5f19ed66d78e9586b0863eef8f7bc00000000", "vin": [{"txinwitness": ["30440220184571ca07d5f1e758713f5ea006efc890644bcbc7b9b4cc2209fa81a22a829502206867c018d5625f224c264007864cf1b489b0bc2d9fb09c2faf8dd0606173266b01", "02a84737deed5069db098e67268ab6f95a53d5f19ed66d78e9586b0863eef8f7bc"], "sequence": 4294967295, "scriptSig": {"hex": "16001457f1ab7b108078bcab6697326dd651ca37679bd2", "asm": "001457f1ab7b108078bcab6697326dd651ca37679bd2"}, "vout": 54, "txid": "e129d30ce9611b20b69c1ab3872cbd74056c32e4ebfb705ebab098fa4fd343b4"}], "txid": "a77efd6fa32ed323a5d4158109b35658bd5e7178d7c7dfe1332efc098985003c", "blocktime": 1537873282, "version": 1, "confirmations": 11484, "time": 1537873282, "locktime": 0, "vsize": 167, "size": 248}