{"hash": "a77faa59a3e957505f666416ba57ce75fc626cb5f09200a60843cb960f534653", "blockhash": "0000000000000000001e0dab787dd257d1dbfcb92a98c2207d5e1078be1f4165", "vout": [{"scriptPubKey": {"reqSigs": 1, "hex": "76a9144665f315679f83036195dd44010696ce491d76c888ac", "addresses": ["17RES1Pd38AqbtCeQpaiScoNgRjEvojUtM"], "asm": "OP_DUP OP_HASH160 4665f315679f83036195dd44010696ce491d76c8 OP_EQUALVERIFY OP_CHECKSIG", "type": "pubkeyhash"}, "value": 0.0703, "n": 0}, {"scriptPubKey": {"reqSigs": 1, "hex": "76a91423e0be9e410d2a8b660e98af0db8c53fd088fd7a88ac", "addresses": ["14GhtF5jzoSNX212G1aVYLb1WTN8q4fvPp"], "asm": "OP_DUP OP_HASH160 23e0be9e410d2a8b660e98af0db8c53fd088fd7a OP_EQUALVERIFY OP_CHECKSIG", "type": "pubkeyhash"}, "value": 6.13479067, "n": 1}], "hex": "01000000010867e85552b157b68f3f09723316512b380ef44215d65737fcef7a7989480222010000006a47304402207cb197b401b4cbfe59fc3c714ebcd1e26f1a3795bd79d4f690999475a6d695a902202dd0f6207284fe26899ee43cd4c215484a43c2fcf57dea15bb0fb27964c819ff01210294f2dc8a6d9e6d2732ec7cf56cc0327d466f3a31bbbb1809766d6aa6c4447f20ffffffff02f0446b00000000001976a9144665f315679f83036195dd44010696ce491d76c888ac9bf29024000000001976a91423e0be9e410d2a8b660e98af0db8c53fd088fd7a88ac00000000", "vin": [{"sequence": 4294967295, "scriptSig": {"hex": "47304402207cb197b401b4cbfe59fc3c714ebcd1e26f1a3795bd79d4f690999475a6d695a902202dd0f6207284fe26899ee43cd4c215484a43c2fcf57dea15bb0fb27964c819ff01210294f2dc8a6d9e6d2732ec7cf56cc0327d466f3a31bbbb1809766d6aa6c4447f20", "asm": "304402207cb197b401b4cbfe59fc3c714ebcd1e26f1a3795bd79d4f690999475a6d695a902202dd0f6207284fe26899ee43cd4c215484a43c2fcf57dea15bb0fb27964c819ff[ALL] 0294f2dc8a6d9e6d2732ec7cf56cc0327d466f3a31bbbb1809766d6aa6c4447f20"}, "vout": 1, "txid": "22024889797aeffc3757d61542f40e382b51163372093f8fb657b15255e86708"}], "txid": "a77faa59a3e957505f666416ba57ce75fc626cb5f09200a60843cb960f534653", "blocktime": 1537872475, "version": 1, "confirmations": 11486, "time": 1537872475, "locktime": 0, "vsize": 225, "size": 225}