{"hash": "9c2e0f433e437e33cf44a9107aee9d075658248475b7365d643b4db14afd87fa", "blockhash": "0000000000000000001f0ddff1eddb255c1121bcd4da4f1bc9a0da00cae72433", "vout": [{"scriptPubKey": {"reqSigs": 1, "hex": "76a9141bf9ee99fa191c751c90dd0a63707d235c1cecc588ac", "addresses": ["13YvemBfdRfLknxQi2DCqFYYSvrixMVr7w"], "asm": "OP_DUP OP_HASH160 1bf9ee99fa191c751c90dd0a63707d235c1cecc5 OP_EQUALVERIFY OP_CHECKSIG", "type": "pubkeyhash"}, "value": 0.0027176, "n": 0}, {"scriptPubKey": {"reqSigs": 1, "hex": "a914f3a3dccb3239cd58effad78e905859ee92be67d187", "addresses": ["3PuGRXHSNCxwYRExJ9aPJhqJ8kPZF88QjW"], "asm": "OP_HASH160 f3a3dccb3239cd58effad78e905859ee92be67d1 OP_EQUAL", "type": "scripthash"}, "value": 0.01015841, "n": 1}], "hex": "020000000001020c349b9f46ef0d00b9a8ca2b40185f1b56e9c8e9708acd8735ae05f2220c20fc20000000171600144134401c8137b436da49d4c51085077b8f68a68cfeffffff9f19812e0ce54a53259aa9c626fc4869888bc0d9b190e85992a71d3e90ae078100000000171600144d7ee6b1e92aeb5f8200d11e4be0e8480125eadffeffffff0290250400000000001976a9141bf9ee99fa191c751c90dd0a63707d235c1cecc588ac21800f000000000017a914f3a3dccb3239cd58effad78e905859ee92be67d18702483045022100ab63a10168ce4b4b9c2b22d355d7f329d31e4177ea643c3f92741a939d22e966022041e4179d7cde184050167d497eae64174b964d004633080628a2cf657ce6777701210278ef709ce6e9d98b007cf853ce9401a168cd5bc8382e3e257a7bece95111125602483045022100976abb945b124e252f1b37ac312b2ad706ab21f7ec1d6b2142586893828dfd2d022049347242d79709f787c2598243441c9658e3795a7abd0cc3d45198cb7efc2cd4012103b6ada57e7e2c7a9c1bb3ef22a425ebe836aa14eeed989a027f6a38209e241b1411490800", "vin": [{"txinwitness": ["3045022100ab63a10168ce4b4b9c2b22d355d7f329d31e4177ea643c3f92741a939d22e966022041e4179d7cde184050167d497eae64174b964d004633080628a2cf657ce6777701", "0278ef709ce6e9d98b007cf853ce9401a168cd5bc8382e3e257a7bece951111256"], "sequence": 4294967294, "scriptSig": {"hex": "1600144134401c8137b436da49d4c51085077b8f68a68c", "asm": "00144134401c8137b436da49d4c51085077b8f68a68c"}, "vout": 32, "txid": "fc200c22f205ae3587cd8a70e9c8e9561b5f18402bcaa8b9000def469f9b340c"}, {"txinwitness": ["3045022100976abb945b124e252f1b37ac312b2ad706ab21f7ec1d6b2142586893828dfd2d022049347242d79709f787c2598243441c9658e3795a7abd0cc3d45198cb7efc2cd401", "03b6ada57e7e2c7a9c1bb3ef22a425ebe836aa14eeed989a027f6a38209e241b14"], "sequence": 4294967294, "scriptSig": {"hex": "1600144d7ee6b1e92aeb5f8200d11e4be0e8480125eadf", "asm": "00144d7ee6b1e92aeb5f8200d11e4be0e8480125eadf"}, "vout": 0, "txid": "8107ae903e1da79259e890b1d9c08b886948fc26c6a99a25534ae50c2e81199f"}], "txid": "a7841fa0858e23f00da6fda40f8952298896ccda6cf77a1b5d71790ff634edeb", "blocktime": 1537872018, "version": 2, "confirmations": 11489, "time": 1537872018, "locktime": 542993, "vsize": 259, "size": 422}