{"hash": "8b486e9011b4327a8620a0a261fee13b9a639117632d92ea6a18a7aee393f8df", "blockhash": "0000000000000000001f76057863aec43deb6fa401d9628bb513d65a8098bfab", "vout": [{"scriptPubKey": {"reqSigs": 1, "hex": "a914344866f42b06559d2b93d3f2ab65fe51162b629587", "addresses": ["36TTo7JNHj4phKdotNN1HuBJSc2MV82sTm"], "asm": "OP_HASH160 344866f42b06559d2b93d3f2ab65fe51162b6295 OP_EQUAL", "type": "scripthash"}, "value": 0.58550481, "n": 0}, {"scriptPubKey": {"reqSigs": 1, "hex": "a9146cc72af5a05094d3b5b762f856726df9644fe51187", "addresses": ["3BcBVgbbNXCefvfr4Z8TvYfBMZDEEpKLnT"], "asm": "OP_HASH160 6cc72af5a05094d3b5b762f856726df9644fe511 OP_EQUAL", "type": "scripthash"}, "value": 0.00168948, "n": 1}, {"scriptPubKey": {"reqSigs": 1, "hex": "a9146d539d412bcf3b4f4396b8fa840a530fb3ab41d287", "addresses": ["3Bf5k5JXnYTxKecrrUPwzRZS1qerPXjzYJ"], "asm": "OP_HASH160 6d539d412bcf3b4f4396b8fa840a530fb3ab41d2 OP_EQUAL", "type": "scripthash"}, "value": 0.01375, "n": 2}, {"scriptPubKey": {"reqSigs": 1, "hex": "76a9148de68c7806d2833b21f6e5259439073d8b3e034788ac", "addresses": ["1DwJTrUdrN2fV7vZvDwyCVipraPpH9ty7T"], "asm": "OP_DUP OP_HASH160 8de68c7806d2833b21f6e5259439073d8b3e0347 OP_EQUALVERIFY OP_CHECKSIG", "type": "pubkeyhash"}, "value": 0.03498948, "n": 3}], "hex": "020000000001019fb607f9b8cdee0798069efe6e34bbc02a0aff886d283165678335e21833a4f403000000171600147018207571d5e555f002af334e2749c1d1eaf7e6feffffff04d1687d030000000017a914344866f42b06559d2b93d3f2ab65fe51162b629587f49302000000000017a9146cc72af5a05094d3b5b762f856726df9644fe5118718fb14000000000017a9146d539d412bcf3b4f4396b8fa840a530fb3ab41d287c4633500000000001976a9148de68c7806d2833b21f6e5259439073d8b3e034788ac02473044022078afcf1a137d05a5b46be24cd0b16a6f1541081a5739b548b861b7dd5bdb6d3a022009d0be47504a401ecbe036fe801e02c8ada053900c3d4f46670a532ee4b8581d0121028a25257e2b650c5dff171a094e8b6b0f8756768460512caf600f03f045fd3db914490800", "vin": [{"txinwitness": ["3044022078afcf1a137d05a5b46be24cd0b16a6f1541081a5739b548b861b7dd5bdb6d3a022009d0be47504a401ecbe036fe801e02c8ada053900c3d4f46670a532ee4b8581d01", "028a25257e2b650c5dff171a094e8b6b0f8756768460512caf600f03f045fd3db9"], "sequence": 4294967294, "scriptSig": {"hex": "1600147018207571d5e555f002af334e2749c1d1eaf7e6", "asm": "00147018207571d5e555f002af334e2749c1d1eaf7e6"}, "vout": 3, "txid": "f4a43318e23583676531286d88ff0a2ac0bb346efe9e069807eecdb8f907b69f"}], "txid": "a78425d189353b286e3c33645f49aba9f50cc947e11f7dfac933f46e364d3966", "blocktime": 1537873891, "version": 2, "confirmations": 11474, "time": 1537873891, "locktime": 542996, "vsize": 232, "size": 313}