{"hash": "859dbba300ec129c75dfc83e53b9eedbcc3a140fc055d29dead3170a3f0ecaad", "blockhash": "0000000000000000001cda96e906b7601b7a6fb1a3b62bca570a9e5d8f4b3de1", "vout": [{"scriptPubKey": {"reqSigs": 1, "hex": "76a9149a1b8f9b1fa2d2297863adb1cb11c71df455684888ac", "addresses": ["1F3r5We2zwNiSzG6GQUTTWnnPMCz2HJbJu"], "asm": "OP_DUP OP_HASH160 9a1b8f9b1fa2d2297863adb1cb11c71df4556848 OP_EQUALVERIFY OP_CHECKSIG", "type": "pubkeyhash"}, "value": 2.714e-05, "n": 0}, {"scriptPubKey": {"reqSigs": 1, "hex": "a914e8db75c900cf08f06518e96d167331f2a4abfb3387", "addresses": ["3NvFbQMAkkqEFj4i1sYPPLkSWzxTFUchjA"], "asm": "OP_HASH160 e8db75c900cf08f06518e96d167331f2a4abfb33 OP_EQUAL", "type": "scripthash"}, "value": 0.00013051, "n": 1}], "hex": "01000000000101898f8d881ee7061312162ebb6aa9410b8b048ce349f2721c25e2b8cfd9aaa0750100000023220020941cfaff8837763dc1f69ff82b6d6553fdea17a41cfc29a04403293eedd8ccc7ffffffff029a0a0000000000001976a9149a1b8f9b1fa2d2297863adb1cb11c71df455684888acfb3200000000000017a914e8db75c900cf08f06518e96d167331f2a4abfb33870400483045022100e970f91c9ff25bb2c6bbccd5aa09b50f9c7f50183e36e4931c3e88d2765533dc022015675f74d67f5c0f9a4416bd9f40e0d6a52c46c9424230506100d784ce9d06b701483045022100ecab2785a313fc86beeddef5c983c9aa37c96f4c24d8159f8f500c002755ef3c02203d304093690b555ab355ada64d7f919a73dfda9ad590700fab306ee8bcc816f90147522102531db3a5883f29bab4241dd0cd726936667bcda445d89bdd22244e828b6993342103148c80a5bdfddb05ff5bcffc397c8ca748d8b435ec6a175bc9d7bfc7fc6f853752ae00000000", "vin": [{"txinwitness": ["", "3045022100e970f91c9ff25bb2c6bbccd5aa09b50f9c7f50183e36e4931c3e88d2765533dc022015675f74d67f5c0f9a4416bd9f40e0d6a52c46c9424230506100d784ce9d06b701", "3045022100ecab2785a313fc86beeddef5c983c9aa37c96f4c24d8159f8f500c002755ef3c02203d304093690b555ab355ada64d7f919a73dfda9ad590700fab306ee8bcc816f901", "522102531db3a5883f29bab4241dd0cd726936667bcda445d89bdd22244e828b6993342103148c80a5bdfddb05ff5bcffc397c8ca748d8b435ec6a175bc9d7bfc7fc6f853752ae"], "sequence": 4294967295, "scriptSig": {"hex": "220020941cfaff8837763dc1f69ff82b6d6553fdea17a41cfc29a04403293eedd8ccc7", "asm": "0020941cfaff8837763dc1f69ff82b6d6553fdea17a41cfc29a04403293eedd8ccc7"}, "vout": 1, "txid": "75a0aad9cfb8e2251c72f249e38c048b0b41a96abb2e16121306e71e888d8f89"}], "txid": "a78ef24b0a1523f9e17a7ab5ccac473b3dab0a791602889f19e2f2d9a4829bbf", "blocktime": 1537873282, "version": 1, "confirmations": 11485, "time": 1537873282, "locktime": 0, "vsize": 208, "size": 374}