{"hash": "a78fd6cda99c9b6262a8d9fbec1525818f85fed664d00fa385172cf4f484ec2b", "blockhash": "0000000000000000000baef3f32e3676a92c3b2e5da21b426e4f302fc371ce76", "vout": [{"scriptPubKey": {"reqSigs": 1, "hex": "a914e434f7fd3e5da783cd6069f212a75e9e5b52c67487", "addresses": ["3NVfScR8VurJPQwp4CoZoZDfQ2BRQQKhUt"], "asm": "OP_HASH160 e434f7fd3e5da783cd6069f212a75e9e5b52c674 OP_EQUAL", "type": "scripthash"}, "value": 5.46e-06, "n": 0}, {"scriptPubKey": {"reqSigs": 1, "hex": "76a9140a6b825daa1b89f8e100ed8eec6d79b592500f4988ac", "addresses": ["1x6YnuBVeeE65dQRZztRWgUPwyBjHCA5g"], "asm": "OP_DUP OP_HASH160 0a6b825daa1b89f8e100ed8eec6d79b592500f49 OP_EQUALVERIFY OP_CHECKSIG", "type": "pubkeyhash"}, "value": 0.44242344, "n": 1}, {"scriptPubKey": {"type": "nulldata", "hex": "6a146f6d6e69000000000000001f000009186c400500", "asm": "OP_RETURN 6f6d6e69000000000000001f000009186c400500"}, "value": 0.0, "n": 2}], "hex": "0100000001b684a83a70e07e3f64708968ca4fb6216737f5e59ad5a541d07119983c4d86d9010000006a47304402200ee2eb2797f081dbf087083de77fa1523c113c0d0f03e78646af28d05cc398b902201d43517543a43cb17ff2bffe83f24116b2ae95db585beccbca49b87c0d6bad1f012103fe02b06a6bfd9b5a83e0417430a3235a39a0b4c7973591ca27ac58f6474d9120ffffffff03220200000000000017a914e434f7fd3e5da783cd6069f212a75e9e5b52c67487a815a302000000001976a9140a6b825daa1b89f8e100ed8eec6d79b592500f4988ac0000000000000000166a146f6d6e69000000000000001f000009186c40050000000000", "vin": [{"sequence": 4294967295, "scriptSig": {"hex": "47304402200ee2eb2797f081dbf087083de77fa1523c113c0d0f03e78646af28d05cc398b902201d43517543a43cb17ff2bffe83f24116b2ae95db585beccbca49b87c0d6bad1f012103fe02b06a6bfd9b5a83e0417430a3235a39a0b4c7973591ca27ac58f6474d9120", "asm": "304402200ee2eb2797f081dbf087083de77fa1523c113c0d0f03e78646af28d05cc398b902201d43517543a43cb17ff2bffe83f24116b2ae95db585beccbca49b87c0d6bad1f[ALL] 03fe02b06a6bfd9b5a83e0417430a3235a39a0b4c7973591ca27ac58f6474d9120"}, "vout": 1, "txid": "d9864d3c981971d041a5d59ae5f5376721b64fca688970643f7ee0703aa884b6"}], "txid": "a78fd6cda99c9b6262a8d9fbec1525818f85fed664d00fa385172cf4f484ec2b", "blocktime": 1537876114, "version": 1, "confirmations": 11459, "time": 1537876114, "locktime": 0, "vsize": 254, "size": 254}