{"hash": "a78fcfd6352e710a692eeb900e9274723591bb597821ab0a30479aaa78e66ee5", "blockhash": "00000000000000000024a2167bbff67b0be802c0b01cdd79e6331c2be6459f87", "vout": [{"scriptPubKey": {"reqSigs": 1, "hex": "76a91440450863b212bb2df0e2143e8adca4d7e1f3b11088ac", "addresses": ["16rpwkyX3na3r6QSHZ5nUAK7jUarKRrcWx"], "asm": "OP_DUP OP_HASH160 40450863b212bb2df0e2143e8adca4d7e1f3b110 OP_EQUALVERIFY OP_CHECKSIG", "type": "pubkeyhash"}, "value": 0.00725922, "n": 0}, {"scriptPubKey": {"reqSigs": 1, "hex": "76a914e8cea30989bd15530f819b766684b00dc7ba7cfa88ac", "addresses": ["1NDyJtNTjmwk5xPNhjgAMu4HDHigtobu1s"], "asm": "OP_DUP OP_HASH160 e8cea30989bd15530f819b766684b00dc7ba7cfa OP_EQUALVERIFY OP_CHECKSIG", "type": "pubkeyhash"}, "value": 2.21689121, "n": 1}], "hex": "0200000012194d615c121aea74c36140bfeae2ed9f4d915fb31e0d2060c192cf47660761e0010000006a47304402200675296f324cfb3cbeeeb741fc0ff86b5e568679d160c27604f66d8ab487bbd3022005e58d486e7a5729d49f565607d20f08de23fcee4884af4f093355327b7cb03f01210279309147f38a2cfc0c6eea3395c980eb91c06777f5fe4a154d9951fe78161e97feffffff20b1101dfaad57186e38dc1cda327930b66f5ca519ba3df29c8dabd001920f26580000006b4830450221009c5f59e71e5f289604ed0163e31a264f51d0f83b33bf6a33ca1e048f4f393d1602200829a9bdc208c6c33935765d6a1f1d4a3ee100ccf22ab144f29e9e3b69423aa30121038c59dae5d84fd462994a5fc67426b4b4e72ffefea8d6d068f2a33e19fb4a86ddfeffffff2e029b2f18a46a00229a29292a1ae988204f523746e6904ab5f4cab2c3d24ab1010000006a47304402207ba2dccfc4b08afc051de915a7e889837b453cb90ee1c5bab485165f2d99f3ab022026f4299c3913ef4493a94c5d8503f89eddef4317d382eac8d8fcd408f27337d50121029e8de330efe7edd531beb4bc2938b4dbe5f8e884895e6c4a947ec1b4aa068e62feffffff3c47b8d5ba0426eafc8b25dd7411d2e3404bce8d640abd5b982694e34e6255ad000000006a4730440220728b8c724745f3e4cb0f7506890188f24e79c54fd3ab05006d3a80db44f8eb5f0220055746c4249f6f7f20032918c20b686c4256c21c935fccf10d254d3809753c7a0121020f8dbaa178a1e214d61ea05ed5d4d443640d1d068aeb0e369eaccc6ac76ee888feffffff50f0925ac86c313eff89956093c603eb236185853ddc0e6834e9ddd075021cae010000006b483045022100883503dd0330319353a65464ac9758063640314040e4dcf4d682f84ba7fede38022041497af290833a31782f8ddeea5ef7925cad8486c234bedf8e23814b84cee684012102579356affe60d2c0846cbdf300f78ab508d4c918498944a2f2efc5f55db0029afeffffff51b5afaa079411b11c000aab06b8d4b49909b27b687b5362beb81870e7ed4dd0000000006b483045022100f9e98fdda824577e3a7eb0cfd7238c55d64f290a9ffa2f26c41d371bcd2c5f6202200920b338b0848838c559be2c40f5dffd826fc26dcd9b2541c3737537c55e5a3b012102f12fd7fe2e6817668ab96cdf25de97ccb01d3ff3479ba5ccc6f2682bf1830910feffffff7a67dc0b53964568a23113ae7a044405ac1f1c121e810eeef08ac40c9eef9dd1000000006a47304402206c4e2f6c3bed6144342ee02b1bdb377ab4032218007b4b8d18dbf30d0a1a67fb02202ee617748aa464fb2d2fc493bd3a436af52d56cc6e13bd0fab6cc9a65bc3e020012103ec1e0ec3db2bba3d58ff6574f8ade3a47120ebd287c53680dd54f871bfb84bcafeffffff8304a694926397333f1d842f2fff44cc51c40dd9dfed2110d790c907ca2f34ab030000006a4730440220385df9cd6d4fc93482c55b998d0d0479f5c5c1acfbb9afd2cd7282002acee69c02203f81fcc2b3207b5e79e45b1755c37b386360aff249c68da9c985971949f4da060121039174a9243c20e2b9ffa1132e6204c7c0f981d4fd2da6dbf9e169121497aaf171feffffff836e5fdedeabacb9fc297252263cab75d93f34256f27427db85339ba95995d02000000006a473044022046574f5067080bd2367db72b60afd177e4bcb02511bfebdb319af1a0eb2a2f3e022017c411019ae36bfbe7a83fae239fd3c7f1ff901d239efce9298250404e27053b0121032a824ee3b75bbf3ef95dc561e0c5ea1b2e6ac6b7db79036885c8ae8d58767287feffffffa1bf84d8fa79de0a2f486859337fecfb5eac3a31d0faa19def914503e8ac31c6050000006a47304402204992f278033229050463e95982e5d5c3f389ace2563264ccc03ba8cf11091c0002201e11b39cbeaaee90b02da7dd67e0ba0006b0fc6107427de8b07897183aaadee5012103770fe8e86057854e64ea967b9263c23fb369e3eac024ec6617819161c53071befeffffffa65533e3ad7b9e5a622f29125e938cc343d85d963e603789b0a16c86041690db000000006a473044022049808df1020dc63847e4aca4ff3d9fbbe0c3c042010098bd9a8dcf52ea6b576102203ea75869ba2ddf7d206d1f2f46239e1c637192c7f9e1d6330d584b356e5e68c0012102e32356771e42e9235bbfd820eaf3e79b0819d5139031efa8513f3d9c07732e8bfeffffffa8b800a776367af4ec4b64b4dab47d90e71d155bd98939daeb524f0f19916c5e000000006a47304402207454fcf5e389c3a501e65a5556abae8bdbb4f557b6f9b37aa956dce7c6f5d3db02205c6690cf27d11e52c774877a6e595500e75b01c7763d4004f5c62098f5a3a78f012102648fd89ed6e02ea15192bc004401d2ab25da153d3cd00e69b54cfc23d2f28f73feffffffac8dd934135a6d62ab88a6c2f48bf1c1cd9dc551f04f33fdd774ba5e65f0d7b6010000006a4730440220627ec7753ff59012e812f4659e5d6f809896dc4d88f7ed26c7f8c9e1a0afcf3f02203b340e846b04129228bef968f193a12e410acd6c149df9118cd634eda78c0b98012102c0925cbf5f972e016b621d23072b016a60eb67c8a3fa67551e6afdae161e72a3feffffffaed8656df140c2da91f06d725c2cc40a5b948607c724ce946f3b0bdf89abcb2e000000006a47304402205d0893c66ec8e20abe25cebcd532157ee92f7a0415cc8d7a2f3747064fba78e0022058591d47f855b344718e579120ec4b8a8849b7f42c93ccc94c24ea9b58529a87012103fb627b3fda83ff8b018ed3b59f793735e72d02662eb9d45f291b0078a11d4863feffffffb662435d2adf766b16c17b2d0f92626be5d0a223a608ecb5ac7096db0460c1561c0000006a4730440220659a4f677d98deeccd1619e24026bf1842ff4c44acc5caf0d7b1e79c428d124d0220591f2d3f822a4b8049798392fed272c9629cf84532c50e9d3e7554a9ef21abb2012103f54192cf649648f39311ba1366cdf08c4f39b06d87ec2b03f2e94d3f2d1f40eafeffffffdffaed7edc19d39cdea6b5647eb7b098308f5061f481e25ee11dd40f1f42ccb9010000006b483045022100d2ca14023791c654443b6304e922a86de5902baa7db169f061c1c8c30503bb8402206744f76772c54792ea807fec745a41432850d5903c1e6bb20d1eda8c3b1adeda0121030bb33dec0f26704c751631d8146838d11a818d71127a4a1401088c21633397f9feffffffe30ce842c8a72eb9d18ef9c949a358fcff52e495cf998f893d37ccd14857db86010000006a4730440220686f78e6fd2d3f5b50802250f8e37f5ec6899d2d5a5031fe095c3550d7f2f03c022009b98ee2a26490c54813cb305846e26571c3c203256552611e85cf74a37595490121037f8f95b7d292d8465c1d5d7f265a4e556ad26a879895c06bbe0a5d4a003aee28fefffffffbe0d5f2d50a00515cd7e643af62504b33371013699f5e76578e01a0b720cbce000000006a4730440220142ec9195b3b98f810bb34e764ed0c9282227a7390a1573c0c28f50016583e1002203a5ee6b7750edaaccc24fa7aeb66c6696a9b651a399215cd54ee927f0db4632901210216ca60a93124a9cb8681683e4522665792f837b531c338b57f89044524062196feffffff02a2130b00000000001976a91440450863b212bb2df0e2143e8adca4d7e1f3b11088ac21b5360d000000001976a914e8cea30989bd15530f819b766684b00dc7ba7cfa88acc5480800", "vin": [{"sequence": 4294967294, "scriptSig": {"hex": "47304402200675296f324cfb3cbeeeb741fc0ff86b5e568679d160c27604f66d8ab487bbd3022005e58d486e7a5729d49f565607d20f08de23fcee4884af4f093355327b7cb03f01210279309147f38a2cfc0c6eea3395c980eb91c06777f5fe4a154d9951fe78161e97", "asm": "304402200675296f324cfb3cbeeeb741fc0ff86b5e568679d160c27604f66d8ab487bbd3022005e58d486e7a5729d49f565607d20f08de23fcee4884af4f093355327b7cb03f[ALL] 0279309147f38a2cfc0c6eea3395c980eb91c06777f5fe4a154d9951fe78161e97"}, "vout": 1, "txid": "e061076647cf92c160200d1eb35f914d9fede2eabf4061c374ea1a125c614d19"}, {"sequence": 4294967294, "scriptSig": {"hex": "4830450221009c5f59e71e5f289604ed0163e31a264f51d0f83b33bf6a33ca1e048f4f393d1602200829a9bdc208c6c33935765d6a1f1d4a3ee100ccf22ab144f29e9e3b69423aa30121038c59dae5d84fd462994a5fc67426b4b4e72ffefea8d6d068f2a33e19fb4a86dd", "asm": "30450221009c5f59e71e5f289604ed0163e31a264f51d0f83b33bf6a33ca1e048f4f393d1602200829a9bdc208c6c33935765d6a1f1d4a3ee100ccf22ab144f29e9e3b69423aa3[ALL] 038c59dae5d84fd462994a5fc67426b4b4e72ffefea8d6d068f2a33e19fb4a86dd"}, "vout": 88, "txid": "260f9201d0ab8d9cf23dba19a55c6fb6307932da1cdc386e1857adfa1d10b120"}, {"sequence": 4294967294, "scriptSig": {"hex": "47304402207ba2dccfc4b08afc051de915a7e889837b453cb90ee1c5bab485165f2d99f3ab022026f4299c3913ef4493a94c5d8503f89eddef4317d382eac8d8fcd408f27337d50121029e8de330efe7edd531beb4bc2938b4dbe5f8e884895e6c4a947ec1b4aa068e62", "asm": "304402207ba2dccfc4b08afc051de915a7e889837b453cb90ee1c5bab485165f2d99f3ab022026f4299c3913ef4493a94c5d8503f89eddef4317d382eac8d8fcd408f27337d5[ALL] 029e8de330efe7edd531beb4bc2938b4dbe5f8e884895e6c4a947ec1b4aa068e62"}, "vout": 1, "txid": "b14ad2c3b2caf4b54a90e64637524f2088e91a2a29299a22006aa4182f9b022e"}, {"sequence": 4294967294, "scriptSig": {"hex": "4730440220728b8c724745f3e4cb0f7506890188f24e79c54fd3ab05006d3a80db44f8eb5f0220055746c4249f6f7f20032918c20b686c4256c21c935fccf10d254d3809753c7a0121020f8dbaa178a1e214d61ea05ed5d4d443640d1d068aeb0e369eaccc6ac76ee888", "asm": "30440220728b8c724745f3e4cb0f7506890188f24e79c54fd3ab05006d3a80db44f8eb5f0220055746c4249f6f7f20032918c20b686c4256c21c935fccf10d254d3809753c7a[ALL] 020f8dbaa178a1e214d61ea05ed5d4d443640d1d068aeb0e369eaccc6ac76ee888"}, "vout": 0, "txid": "ad55624ee39426985bbd0a648dce4b40e3d21174dd258bfcea2604bad5b8473c"}, {"sequence": 4294967294, "scriptSig": {"hex": "483045022100883503dd0330319353a65464ac9758063640314040e4dcf4d682f84ba7fede38022041497af290833a31782f8ddeea5ef7925cad8486c234bedf8e23814b84cee684012102579356affe60d2c0846cbdf300f78ab508d4c918498944a2f2efc5f55db0029a", "asm": "3045022100883503dd0330319353a65464ac9758063640314040e4dcf4d682f84ba7fede38022041497af290833a31782f8ddeea5ef7925cad8486c234bedf8e23814b84cee684[ALL] 02579356affe60d2c0846cbdf300f78ab508d4c918498944a2f2efc5f55db0029a"}, "vout": 1, "txid": "ae1c0275d0dde934680edc3d85856123eb03c693609589ff3e316cc85a92f050"}, {"sequence": 4294967294, "scriptSig": {"hex": "483045022100f9e98fdda824577e3a7eb0cfd7238c55d64f290a9ffa2f26c41d371bcd2c5f6202200920b338b0848838c559be2c40f5dffd826fc26dcd9b2541c3737537c55e5a3b012102f12fd7fe2e6817668ab96cdf25de97ccb01d3ff3479ba5ccc6f2682bf1830910", "asm": "3045022100f9e98fdda824577e3a7eb0cfd7238c55d64f290a9ffa2f26c41d371bcd2c5f6202200920b338b0848838c559be2c40f5dffd826fc26dcd9b2541c3737537c55e5a3b[ALL] 02f12fd7fe2e6817668ab96cdf25de97ccb01d3ff3479ba5ccc6f2682bf1830910"}, "vout": 0, "txid": "d04dede77018b8be62537b687bb20999b4d4b806ab0a001cb1119407aaafb551"}, {"sequence": 4294967294, "scriptSig": {"hex": "47304402206c4e2f6c3bed6144342ee02b1bdb377ab4032218007b4b8d18dbf30d0a1a67fb02202ee617748aa464fb2d2fc493bd3a436af52d56cc6e13bd0fab6cc9a65bc3e020012103ec1e0ec3db2bba3d58ff6574f8ade3a47120ebd287c53680dd54f871bfb84bca", "asm": "304402206c4e2f6c3bed6144342ee02b1bdb377ab4032218007b4b8d18dbf30d0a1a67fb02202ee617748aa464fb2d2fc493bd3a436af52d56cc6e13bd0fab6cc9a65bc3e020[ALL] 03ec1e0ec3db2bba3d58ff6574f8ade3a47120ebd287c53680dd54f871bfb84bca"}, "vout": 0, "txid": "d19def9e0cc48af0ee0e811e121c1fac0544047aae1331a2684596530bdc677a"}, {"sequence": 4294967294, "scriptSig": {"hex": "4730440220385df9cd6d4fc93482c55b998d0d0479f5c5c1acfbb9afd2cd7282002acee69c02203f81fcc2b3207b5e79e45b1755c37b386360aff249c68da9c985971949f4da060121039174a9243c20e2b9ffa1132e6204c7c0f981d4fd2da6dbf9e169121497aaf171", "asm": "30440220385df9cd6d4fc93482c55b998d0d0479f5c5c1acfbb9afd2cd7282002acee69c02203f81fcc2b3207b5e79e45b1755c37b386360aff249c68da9c985971949f4da06[ALL] 039174a9243c20e2b9ffa1132e6204c7c0f981d4fd2da6dbf9e169121497aaf171"}, "vout": 3, "txid": "ab342fca07c990d71021eddfd90dc451cc44ff2f2f841d3f3397639294a60483"}, {"sequence": 4294967294, "scriptSig": {"hex": "473044022046574f5067080bd2367db72b60afd177e4bcb02511bfebdb319af1a0eb2a2f3e022017c411019ae36bfbe7a83fae239fd3c7f1ff901d239efce9298250404e27053b0121032a824ee3b75bbf3ef95dc561e0c5ea1b2e6ac6b7db79036885c8ae8d58767287", "asm": "3044022046574f5067080bd2367db72b60afd177e4bcb02511bfebdb319af1a0eb2a2f3e022017c411019ae36bfbe7a83fae239fd3c7f1ff901d239efce9298250404e27053b[ALL] 032a824ee3b75bbf3ef95dc561e0c5ea1b2e6ac6b7db79036885c8ae8d58767287"}, "vout": 0, "txid": "025d9995ba3953b87d42276f25343fd975ab3c26527229fcb9acabdede5f6e83"}, {"sequence": 4294967294, "scriptSig": {"hex": "47304402204992f278033229050463e95982e5d5c3f389ace2563264ccc03ba8cf11091c0002201e11b39cbeaaee90b02da7dd67e0ba0006b0fc6107427de8b07897183aaadee5012103770fe8e86057854e64ea967b9263c23fb369e3eac024ec6617819161c53071be", "asm": "304402204992f278033229050463e95982e5d5c3f389ace2563264ccc03ba8cf11091c0002201e11b39cbeaaee90b02da7dd67e0ba0006b0fc6107427de8b07897183aaadee5[ALL] 03770fe8e86057854e64ea967b9263c23fb369e3eac024ec6617819161c53071be"}, "vout": 5, "txid": "c631ace8034591ef9da1fad0313aac5efbec7f335968482f0ade79fad884bfa1"}, {"sequence": 4294967294, "scriptSig": {"hex": "473044022049808df1020dc63847e4aca4ff3d9fbbe0c3c042010098bd9a8dcf52ea6b576102203ea75869ba2ddf7d206d1f2f46239e1c637192c7f9e1d6330d584b356e5e68c0012102e32356771e42e9235bbfd820eaf3e79b0819d5139031efa8513f3d9c07732e8b", "asm": "3044022049808df1020dc63847e4aca4ff3d9fbbe0c3c042010098bd9a8dcf52ea6b576102203ea75869ba2ddf7d206d1f2f46239e1c637192c7f9e1d6330d584b356e5e68c0[ALL] 02e32356771e42e9235bbfd820eaf3e79b0819d5139031efa8513f3d9c07732e8b"}, "vout": 0, "txid": "db901604866ca1b08937603e965dd843c38c935e12292f625a9e7bade33355a6"}, {"sequence": 4294967294, "scriptSig": {"hex": "47304402207454fcf5e389c3a501e65a5556abae8bdbb4f557b6f9b37aa956dce7c6f5d3db02205c6690cf27d11e52c774877a6e595500e75b01c7763d4004f5c62098f5a3a78f012102648fd89ed6e02ea15192bc004401d2ab25da153d3cd00e69b54cfc23d2f28f73", "asm": "304402207454fcf5e389c3a501e65a5556abae8bdbb4f557b6f9b37aa956dce7c6f5d3db02205c6690cf27d11e52c774877a6e595500e75b01c7763d4004f5c62098f5a3a78f[ALL] 02648fd89ed6e02ea15192bc004401d2ab25da153d3cd00e69b54cfc23d2f28f73"}, "vout": 0, "txid": "5e6c91190f4f52ebda3989d95b151de7907db4dab4644becf47a3676a700b8a8"}, {"sequence": 4294967294, "scriptSig": {"hex": "4730440220627ec7753ff59012e812f4659e5d6f809896dc4d88f7ed26c7f8c9e1a0afcf3f02203b340e846b04129228bef968f193a12e410acd6c149df9118cd634eda78c0b98012102c0925cbf5f972e016b621d23072b016a60eb67c8a3fa67551e6afdae161e72a3", "asm": "30440220627ec7753ff59012e812f4659e5d6f809896dc4d88f7ed26c7f8c9e1a0afcf3f02203b340e846b04129228bef968f193a12e410acd6c149df9118cd634eda78c0b98[ALL] 02c0925cbf5f972e016b621d23072b016a60eb67c8a3fa67551e6afdae161e72a3"}, "vout": 1, "txid": "b6d7f0655eba74d7fd334ff051c59dcdc1f18bf4c2a688ab626d5a1334d98dac"}, {"sequence": 4294967294, "scriptSig": {"hex": "47304402205d0893c66ec8e20abe25cebcd532157ee92f7a0415cc8d7a2f3747064fba78e0022058591d47f855b344718e579120ec4b8a8849b7f42c93ccc94c24ea9b58529a87012103fb627b3fda83ff8b018ed3b59f793735e72d02662eb9d45f291b0078a11d4863", "asm": "304402205d0893c66ec8e20abe25cebcd532157ee92f7a0415cc8d7a2f3747064fba78e0022058591d47f855b344718e579120ec4b8a8849b7f42c93ccc94c24ea9b58529a87[ALL] 03fb627b3fda83ff8b018ed3b59f793735e72d02662eb9d45f291b0078a11d4863"}, "vout": 0, "txid": "2ecbab89df0b3b6f94ce24c70786945b0ac42c5c726df091dac240f16d65d8ae"}, {"sequence": 4294967294, "scriptSig": {"hex": "4730440220659a4f677d98deeccd1619e24026bf1842ff4c44acc5caf0d7b1e79c428d124d0220591f2d3f822a4b8049798392fed272c9629cf84532c50e9d3e7554a9ef21abb2012103f54192cf649648f39311ba1366cdf08c4f39b06d87ec2b03f2e94d3f2d1f40ea", "asm": "30440220659a4f677d98deeccd1619e24026bf1842ff4c44acc5caf0d7b1e79c428d124d0220591f2d3f822a4b8049798392fed272c9629cf84532c50e9d3e7554a9ef21abb2[ALL] 03f54192cf649648f39311ba1366cdf08c4f39b06d87ec2b03f2e94d3f2d1f40ea"}, "vout": 28, "txid": "56c16004db9670acb5ec08a623a2d0e56b62920f2d7bc1166b76df2a5d4362b6"}, {"sequence": 4294967294, "scriptSig": {"hex": "483045022100d2ca14023791c654443b6304e922a86de5902baa7db169f061c1c8c30503bb8402206744f76772c54792ea807fec745a41432850d5903c1e6bb20d1eda8c3b1adeda0121030bb33dec0f26704c751631d8146838d11a818d71127a4a1401088c21633397f9", "asm": "3045022100d2ca14023791c654443b6304e922a86de5902baa7db169f061c1c8c30503bb8402206744f76772c54792ea807fec745a41432850d5903c1e6bb20d1eda8c3b1adeda[ALL] 030bb33dec0f26704c751631d8146838d11a818d71127a4a1401088c21633397f9"}, "vout": 1, "txid": "b9cc421f0fd41de15ee281f461508f3098b0b77e64b5a6de9cd319dc7eedfadf"}, {"sequence": 4294967294, "scriptSig": {"hex": "4730440220686f78e6fd2d3f5b50802250f8e37f5ec6899d2d5a5031fe095c3550d7f2f03c022009b98ee2a26490c54813cb305846e26571c3c203256552611e85cf74a37595490121037f8f95b7d292d8465c1d5d7f265a4e556ad26a879895c06bbe0a5d4a003aee28", "asm": "30440220686f78e6fd2d3f5b50802250f8e37f5ec6899d2d5a5031fe095c3550d7f2f03c022009b98ee2a26490c54813cb305846e26571c3c203256552611e85cf74a3759549[ALL] 037f8f95b7d292d8465c1d5d7f265a4e556ad26a879895c06bbe0a5d4a003aee28"}, "vout": 1, "txid": "86db5748d1cc373d898f99cf95e452fffc58a349c9f98ed1b92ea7c842e80ce3"}, {"sequence": 4294967294, "scriptSig": {"hex": "4730440220142ec9195b3b98f810bb34e764ed0c9282227a7390a1573c0c28f50016583e1002203a5ee6b7750edaaccc24fa7aeb66c6696a9b651a399215cd54ee927f0db4632901210216ca60a93124a9cb8681683e4522665792f837b531c338b57f89044524062196", "asm": "30440220142ec9195b3b98f810bb34e764ed0c9282227a7390a1573c0c28f50016583e1002203a5ee6b7750edaaccc24fa7aeb66c6696a9b651a399215cd54ee927f0db46329[ALL] 0216ca60a93124a9cb8681683e4522665792f837b531c338b57f89044524062196"}, "vout": 0, "txid": "cecb20b7a0018e57765e9f69131037334b5062af43e6d75c51000ad5f2d5e0fb"}], "txid": "a78fcfd6352e710a692eeb900e9274723591bb597821ab0a30479aaa78e66ee5", "blocktime": 1537870564, "version": 2, "confirmations": 11515, "time": 1537870564, "locktime": 542917, "vsize": 2728, "size": 2728}