{"hash": "a78f6c91031930b40618deca1d5c22bd8df943968a91f32bdc31a5a5127c6332", "blockhash": "00000000000000000024a2167bbff67b0be802c0b01cdd79e6331c2be6459f87", "vout": [{"scriptPubKey": {"reqSigs": 1, "hex": "76a91446c328aacd66986d63b3d51ef0bd5037249910f188ac", "addresses": ["17TA6JauJwyGwFRskRK9VhY7zhEbGhy6T2"], "asm": "OP_DUP OP_HASH160 46c328aacd66986d63b3d51ef0bd5037249910f1 OP_EQUALVERIFY OP_CHECKSIG", "type": "pubkeyhash"}, "value": 0.00103197, "n": 0}, {"scriptPubKey": {"reqSigs": 1, "hex": "76a91440cad55104710517dc33840d28b81de73b64e3bf88ac", "addresses": ["16ubEP27HUYTw9SqgMjB4PvNdKsN5GuXng"], "asm": "OP_DUP OP_HASH160 40cad55104710517dc33840d28b81de73b64e3bf OP_EQUALVERIFY OP_CHECKSIG", "type": "pubkeyhash"}, "value": 0.00655157, "n": 1}], "hex": "01000000017bc7add726150d5ba17969472590029e433bb440526e68a0866925712dae9a71010000006b483045022100db3a45148c781387e622e325c65aa9686549ed14c47b8d39f9043678311b60250220016b9ca8381bfa730809b9461d9240655ce11875ed257a94041314487779e672012102efc71146c793be73eae2531e566b517d9be7289af94b28acf0bc92a9285a16abffffffff021d930100000000001976a91446c328aacd66986d63b3d51ef0bd5037249910f188ac35ff0900000000001976a91440cad55104710517dc33840d28b81de73b64e3bf88ac00000000", "vin": [{"sequence": 4294967295, "scriptSig": {"hex": "483045022100db3a45148c781387e622e325c65aa9686549ed14c47b8d39f9043678311b60250220016b9ca8381bfa730809b9461d9240655ce11875ed257a94041314487779e672012102efc71146c793be73eae2531e566b517d9be7289af94b28acf0bc92a9285a16ab", "asm": "3045022100db3a45148c781387e622e325c65aa9686549ed14c47b8d39f9043678311b60250220016b9ca8381bfa730809b9461d9240655ce11875ed257a94041314487779e672[ALL] 02efc71146c793be73eae2531e566b517d9be7289af94b28acf0bc92a9285a16ab"}, "vout": 1, "txid": "719aae2d71256986a0686e5240b43b439e029025476979a15b0d1526d7adc77b"}], "txid": "a78f6c91031930b40618deca1d5c22bd8df943968a91f32bdc31a5a5127c6332", "blocktime": 1537870564, "version": 1, "confirmations": 11515, "time": 1537870564, "locktime": 0, "vsize": 226, "size": 226}