{"hash": "bd28953a9487fdd193bbd721c2fdc70e45d63f28f40a7c08ebac4b0104f07ad7", "blockhash": "0000000000000000001cda96e906b7601b7a6fb1a3b62bca570a9e5d8f4b3de1", "vout": [{"scriptPubKey": {"reqSigs": 1, "hex": "76a91489467e39f86df738a6d23d34ca5540a00209d47688ac", "addresses": ["1DWr2E4qzs3e4cZddG7tCLsTVuP2cYgGnL"], "asm": "OP_DUP OP_HASH160 89467e39f86df738a6d23d34ca5540a00209d476 OP_EQUALVERIFY OP_CHECKSIG", "type": "pubkeyhash"}, "value": 0.01445699, "n": 0}, {"scriptPubKey": {"reqSigs": 1, "hex": "a914d6f5eb553ac52d5b77339e8810c8a7643ff47dcc87", "addresses": ["3MHd8NAwt9cHuDYMV9yxiKqFHiz45eLdpb"], "asm": "OP_HASH160 d6f5eb553ac52d5b77339e8810c8a7643ff47dcc OP_EQUAL", "type": "scripthash"}, "value": 0.03971584, "n": 1}], "hex": "010000000001016403c8a4f6658ddef14dd0a3017153758786cb7bc13e214a477b8acaea562579000000002322002009e6c22c04125357bd3707e3b46742378a6260a893116515563d74f54b9b0e37ffffffff02430f1600000000001976a91489467e39f86df738a6d23d34ca5540a00209d47688ac009a3c000000000017a914d6f5eb553ac52d5b77339e8810c8a7643ff47dcc870400483045022100c1b42a0577b986dbf51471e6f3bf010064e1eedc56462defc7dba3f447fabcd20220786a6c525f92bfaf54d8f81e19d51869deaa50fb4cdf0ea49174d7daa2cb538401473044022055d8a475c0aff1a77061af8d9eb5a293b7b7a645fb109ed59566c36aa263014302204169e11baae318381a53d6ed559d40a999e86ac2f34f92504473df1d87d60cef0169522102b94153cc325cd53e118e5ef078d7f3793be2e0e923bd5c27cea5e21704a2052b21021fbcc1a14c40479f3c479875742b61394dcd0e1935bb8ec29cf9c5a4a64361d72103202ffae7509ae758937029a369ae4d42c8ab213997a3655ea8fa5408dea9e44e53ae00000000", "vin": [{"txinwitness": ["", "3045022100c1b42a0577b986dbf51471e6f3bf010064e1eedc56462defc7dba3f447fabcd20220786a6c525f92bfaf54d8f81e19d51869deaa50fb4cdf0ea49174d7daa2cb538401", "3044022055d8a475c0aff1a77061af8d9eb5a293b7b7a645fb109ed59566c36aa263014302204169e11baae318381a53d6ed559d40a999e86ac2f34f92504473df1d87d60cef01", "522102b94153cc325cd53e118e5ef078d7f3793be2e0e923bd5c27cea5e21704a2052b21021fbcc1a14c40479f3c479875742b61394dcd0e1935bb8ec29cf9c5a4a64361d72103202ffae7509ae758937029a369ae4d42c8ab213997a3655ea8fa5408dea9e44e53ae"], "sequence": 4294967295, "scriptSig": {"hex": "22002009e6c22c04125357bd3707e3b46742378a6260a893116515563d74f54b9b0e37", "asm": "002009e6c22c04125357bd3707e3b46742378a6260a893116515563d74f54b9b0e37"}, "vout": 0, "txid": "792556eaca8a7b474a213ec17bcb868775537101a3d04df1de8d65f6a4c80364"}], "txid": "a797001f34ed54591d1118a2d05bdf2798a62d9548eb31d2d202f760b1117885", "blocktime": 1537873282, "version": 1, "confirmations": 11484, "time": 1537873282, "locktime": 0, "vsize": 216, "size": 407}