{"hash": "a7998d20597889afa1f9d0e30902b6ac21e51f86ade2ed97d95f608809502606", "blockhash": "0000000000000000000e13cef7c366c0283d82e591d1acd082e914b08063cdf1", "vout": [{"scriptPubKey": {"reqSigs": 1, "hex": "a9144ad7580a58b057ce6535bae60d888c1a9c532f9d87", "addresses": ["38Wju6XyciYGKmLXMUJumwDBPPtLPaVsRW"], "asm": "OP_HASH160 4ad7580a58b057ce6535bae60d888c1a9c532f9d OP_EQUAL", "type": "scripthash"}, "value": 0.00205655, "n": 0}, {"scriptPubKey": {"reqSigs": 1, "hex": "76a91410746945bab351531420635ce3d314075fe9508b88ac", "addresses": ["12W1GTqR1wmpxwTWnW2SwqDaRs18WFXntm"], "asm": "OP_DUP OP_HASH160 10746945bab351531420635ce3d314075fe9508b OP_EQUALVERIFY OP_CHECKSIG", "type": "pubkeyhash"}, "value": 0.1105275, "n": 1}], "hex": "01000000016449504638d6f5efddebf3521037d95f68cda2811cf4ad44d313693e962d5539010000006b483045022100b1239bb1487f8ff130bd90a1683af1081e37feba2349b5d4ec8620db5a9bcae7022043d598d0101cf6c6ccad71901d7de174c8ef27d7c01eb29fe445ade7c72bb74f0121024001fe3d67dc49247c7c10936934ddedb20a8b77d5ff5f391d57f8893cd2b1feffffffff02572303000000000017a9144ad7580a58b057ce6535bae60d888c1a9c532f9d87cea6a800000000001976a91410746945bab351531420635ce3d314075fe9508b88ac00000000", "vin": [{"sequence": 4294967295, "scriptSig": {"hex": "483045022100b1239bb1487f8ff130bd90a1683af1081e37feba2349b5d4ec8620db5a9bcae7022043d598d0101cf6c6ccad71901d7de174c8ef27d7c01eb29fe445ade7c72bb74f0121024001fe3d67dc49247c7c10936934ddedb20a8b77d5ff5f391d57f8893cd2b1fe", "asm": "3045022100b1239bb1487f8ff130bd90a1683af1081e37feba2349b5d4ec8620db5a9bcae7022043d598d0101cf6c6ccad71901d7de174c8ef27d7c01eb29fe445ade7c72bb74f[ALL] 024001fe3d67dc49247c7c10936934ddedb20a8b77d5ff5f391d57f8893cd2b1fe"}, "vout": 1, "txid": "39552d963e6913d344adf41c81a2cd685fd9371052f3ebddeff5d63846504964"}], "txid": "a7998d20597889afa1f9d0e30902b6ac21e51f86ade2ed97d95f608809502606", "blocktime": 1537871767, "version": 1, "confirmations": 11493, "time": 1537871767, "locktime": 0, "vsize": 224, "size": 224}