{"hash": "a79e709611c1d05bffd6e64db66637adb226e2a8db9758306ea43c993f3f6604", "blockhash": "0000000000000000000dcc0f55137456b1a82d3642486a52398922ac4d620174", "vout": [{"scriptPubKey": {"reqSigs": 1, "hex": "76a91438d72d3e89296570d075310ebc30cc42df6ea9fa88ac", "addresses": ["16BYcV5oubXcNA3DcrZhvTCzREvznpxDXw"], "asm": "OP_DUP OP_HASH160 38d72d3e89296570d075310ebc30cc42df6ea9fa OP_EQUALVERIFY OP_CHECKSIG", "type": "pubkeyhash"}, "value": 8.621e-05, "n": 0}, {"scriptPubKey": {"reqSigs": 1, "hex": "a91468486e7852acaade9633b5a82f2f59e531db54d787", "addresses": ["3BCQy8BQ21S1KMtBcFvi2fygyS7fJvVitP"], "asm": "OP_HASH160 68486e7852acaade9633b5a82f2f59e531db54d7 OP_EQUAL", "type": "scripthash"}, "value": 5.46e-06, "n": 1}, {"scriptPubKey": {"type": "nulldata", "hex": "6a146f6d6e6900000000000001920000000002faf080", "asm": "OP_RETURN 6f6d6e6900000000000001920000000002faf080"}, "value": 0.0, "n": 2}], "hex": "010000000134e67b469ce1f4161adfb340808163afb4fcbb105bb855534d2a8bbb83681e52000000008b483045022100e09b22cd2eb6f7ac91a62a2f8babcb70d71f27156a8976ce6f6ee1918f080aa102200eb42a3d090962c1cded0273721068de8d2a132f4cf0a961900d7ab2ba9a614d014104d2d700b69ec0e57d4bc56de65de775e9b922ae3025d82539758c37cc6a4d7875e081646eeb3117c2416c448ae49a21577804051ab5cbbb420680672133895af3ffffffff03ad210000000000001976a91438d72d3e89296570d075310ebc30cc42df6ea9fa88ac220200000000000017a91468486e7852acaade9633b5a82f2f59e531db54d7870000000000000000166a146f6d6e6900000000000001920000000002faf08000000000", "vin": [{"sequence": 4294967295, "scriptSig": {"hex": "483045022100e09b22cd2eb6f7ac91a62a2f8babcb70d71f27156a8976ce6f6ee1918f080aa102200eb42a3d090962c1cded0273721068de8d2a132f4cf0a961900d7ab2ba9a614d014104d2d700b69ec0e57d4bc56de65de775e9b922ae3025d82539758c37cc6a4d7875e081646eeb3117c2416c448ae49a21577804051ab5cbbb420680672133895af3", "asm": "3045022100e09b22cd2eb6f7ac91a62a2f8babcb70d71f27156a8976ce6f6ee1918f080aa102200eb42a3d090962c1cded0273721068de8d2a132f4cf0a961900d7ab2ba9a614d[ALL] 04d2d700b69ec0e57d4bc56de65de775e9b922ae3025d82539758c37cc6a4d7875e081646eeb3117c2416c448ae49a21577804051ab5cbbb420680672133895af3"}, "vout": 0, "txid": "521e6883bb8b2a4d5355b85b10bbfcb4af63818040b3df1a16f4e19c467be634"}], "txid": "a79e709611c1d05bffd6e64db66637adb226e2a8db9758306ea43c993f3f6604", "blocktime": 1537870268, "version": 1, "confirmations": 11516, "time": 1537870268, "locktime": 0, "vsize": 287, "size": 287}