{"hash": "a79ebe59b6a0aac68f368cb3e73528bc78c0a1d227d1c3c184b68976926f537a", "blockhash": "0000000000000000000baef3f32e3676a92c3b2e5da21b426e4f302fc371ce76", "vout": [{"scriptPubKey": {"reqSigs": 1, "hex": "76a9149ef6308f3b15e19d6eae3679b7355ca3d4c7254088ac", "addresses": ["1FVWgsNRZg2PLi1xigsEuFgfe9TkHVHG4W"], "asm": "OP_DUP OP_HASH160 9ef6308f3b15e19d6eae3679b7355ca3d4c72540 OP_EQUALVERIFY OP_CHECKSIG", "type": "pubkeyhash"}, "value": 0.28940506, "n": 0}, {"scriptPubKey": {"reqSigs": 1, "hex": "76a9140ac95115cf01be3b1ee913ae46e5ffee4409cd4988ac", "addresses": ["1z2vejTgmuyqLFtZz4YZDtt4f79P4AZvg"], "asm": "OP_DUP OP_HASH160 0ac95115cf01be3b1ee913ae46e5ffee4409cd49 OP_EQUALVERIFY OP_CHECKSIG", "type": "pubkeyhash"}, "value": 0.67519318, "n": 1}], "hex": "010000000b73ce42cd3c625496dbac435ec54513505d1ee2d30299c799e3552aa34c3c023c000000006b483045022100e55d1d59623336503ccb006ca07b78c011861a709344f78f25a953f64df25d7902205c56ac0360c18e8f44a667107eee02b78afa4f3b0fb23e92db21bfbf1966fcc4012103726d90d8c7c0cc4b036e99aee9a85933e06d2edb70d6f713acea25f349390122fdffffffc041938c569452e3878deb8494b537af10eaccc0ff83fd58f6737b31aa307a42000000006a47304402200d8edf091fe6ac2ba18badb2d2a37addca84d5f12812fd9e80a3cbbfccc3086502202db5d81f1f263c962b420f5a6cd3f7b04c7d7a4801d186545efcfa35c76143d1012103726d90d8c7c0cc4b036e99aee9a85933e06d2edb70d6f713acea25f349390122fdffffffdefcbea0d5aa0c6fc73203268ca3384bc8793394332daea223cfbcc01431b95e000000006a47304402205dfd113338bd758e3a8e87aa1a700cc6a7289e246d9e9d919d25b8ce883a9d9c022068fe3f61a4c155b14eb9cc845e69c18a8e30eb8d3c61912c10f6d54d16a2cca5012103726d90d8c7c0cc4b036e99aee9a85933e06d2edb70d6f713acea25f349390122fdffffff1df58df5d224b8f63319a644c16277cdca6b295e055521e1b2ed794498c6096a000000006b48304502210084f73306fbb3253d15c7094702dcb73560bd9bcc2f8048b2f006bd5db393dc4202205f5acee76612730044041e9500a6fc081e41d91fbb407a90c4f1127a13f8e5eb012103726d90d8c7c0cc4b036e99aee9a85933e06d2edb70d6f713acea25f349390122fdffffff33b22f7ea75a94d2a420a4729f14ec949ba50831009cbc26942e587c0f230e8e000000006b483045022100f2b7a4b2a1b1de5613c855e2c1706331de575638a6cb275d44fe0f1bfb61c6a8022039a6a25caa92dd93184cfd7cf21f8d71fbfa61de31536b4a272001d0166257b2012103726d90d8c7c0cc4b036e99aee9a85933e06d2edb70d6f713acea25f349390122fdffffff49aa05df8e4eb9bb3c80d00593007653362ea88262e0cce898f61681e4183395000000006b483045022100a4ec944810eb921d1d25cc2ffaff1fa524c8338dcc5fc35dfaabc8534ea5df800220222443c0620134ddd378f58f64b1405f98e9bd757d31a21d5a6499504e941595012103726d90d8c7c0cc4b036e99aee9a85933e06d2edb70d6f713acea25f349390122fdffffffc2d2e1cfbca94317604d132d7364faf9b48cc8245d45f33d55200d065c6ea3ac000000006a47304402202ba350ace5321999d4065858aedf835de5103911a430d61ee0f49dcc9057c15a02205abe035a6f8123627709292534cbd800ee3ac831bde8185f8a0bd809af86d2b4012103726d90d8c7c0cc4b036e99aee9a85933e06d2edb70d6f713acea25f349390122fdffffff488189f8c92b11213f504322a48f2f432a2e6069ecdb32011e4246fb4e4752d0000000006a4730440220326fb2832685b4cd515324c88dffe2135d30b53f0acb1532ee89286bb9833a4602201760ce4b482d794311ed117fbc1cd6ddfb5b7522c9800aa773cbaac3aea236ed012103726d90d8c7c0cc4b036e99aee9a85933e06d2edb70d6f713acea25f349390122fdffffff1a24164a7c329d7d044affeed04dc5156db9b9d92fb4d1b1d820d32a7d82d3d3000000006b4830450221008e7d449aa339874af1442dc3af4723dbca786b476c6b02c7571066145143942a02203333e5f73104655a0e442886fffef084b1d19a443051b2698a822fa0152a216e012103726d90d8c7c0cc4b036e99aee9a85933e06d2edb70d6f713acea25f349390122fdffffffd1233f10770d90a74adb845ccacd3b5b9227410901585428f40b3dcf2317b0e0000000006b483045022100c635a5a3baac30946c323f9219022596ac943775e1421d04aacc6114d0c5e80502203153c7f2be268aa12620152830a2550f4d329e3577fd65896a2dff12ae366bd9012103726d90d8c7c0cc4b036e99aee9a85933e06d2edb70d6f713acea25f349390122fdffffff52e12a0aca6fadc491a9374688ba662d016343badf44bf36eb48ca39041397f1000000006b483045022100c379d25b7a48f15b22fef4be502d152dad39e70229a04ebaea3b0afaa1df746502200a295fbe9d07572bbb4ad2cd85cff01001cd3665901ea08052524918dfd4bd4f012103726d90d8c7c0cc4b036e99aee9a85933e06d2edb70d6f713acea25f349390122fdffffff02da98b901000000001976a9149ef6308f3b15e19d6eae3679b7355ca3d4c7254088ac56430604000000001976a9140ac95115cf01be3b1ee913ae46e5ffee4409cd4988ac16490800", "vin": [{"sequence": 4294967293, "scriptSig": {"hex": "483045022100e55d1d59623336503ccb006ca07b78c011861a709344f78f25a953f64df25d7902205c56ac0360c18e8f44a667107eee02b78afa4f3b0fb23e92db21bfbf1966fcc4012103726d90d8c7c0cc4b036e99aee9a85933e06d2edb70d6f713acea25f349390122", "asm": "3045022100e55d1d59623336503ccb006ca07b78c011861a709344f78f25a953f64df25d7902205c56ac0360c18e8f44a667107eee02b78afa4f3b0fb23e92db21bfbf1966fcc4[ALL] 03726d90d8c7c0cc4b036e99aee9a85933e06d2edb70d6f713acea25f349390122"}, "vout": 0, "txid": "3c023c4ca32a55e399c79902d3e21e5d501345c55e43acdb9654623ccd42ce73"}, {"sequence": 4294967293, "scriptSig": {"hex": "47304402200d8edf091fe6ac2ba18badb2d2a37addca84d5f12812fd9e80a3cbbfccc3086502202db5d81f1f263c962b420f5a6cd3f7b04c7d7a4801d186545efcfa35c76143d1012103726d90d8c7c0cc4b036e99aee9a85933e06d2edb70d6f713acea25f349390122", "asm": "304402200d8edf091fe6ac2ba18badb2d2a37addca84d5f12812fd9e80a3cbbfccc3086502202db5d81f1f263c962b420f5a6cd3f7b04c7d7a4801d186545efcfa35c76143d1[ALL] 03726d90d8c7c0cc4b036e99aee9a85933e06d2edb70d6f713acea25f349390122"}, "vout": 0, "txid": "427a30aa317b73f658fd83ffc0ccea10af37b59484eb8d87e35294568c9341c0"}, {"sequence": 4294967293, "scriptSig": {"hex": "47304402205dfd113338bd758e3a8e87aa1a700cc6a7289e246d9e9d919d25b8ce883a9d9c022068fe3f61a4c155b14eb9cc845e69c18a8e30eb8d3c61912c10f6d54d16a2cca5012103726d90d8c7c0cc4b036e99aee9a85933e06d2edb70d6f713acea25f349390122", "asm": "304402205dfd113338bd758e3a8e87aa1a700cc6a7289e246d9e9d919d25b8ce883a9d9c022068fe3f61a4c155b14eb9cc845e69c18a8e30eb8d3c61912c10f6d54d16a2cca5[ALL] 03726d90d8c7c0cc4b036e99aee9a85933e06d2edb70d6f713acea25f349390122"}, "vout": 0, "txid": "5eb93114c0bccf23a2ae2d33943379c84b38a38c260332c76f0caad5a0befcde"}, {"sequence": 4294967293, "scriptSig": {"hex": "48304502210084f73306fbb3253d15c7094702dcb73560bd9bcc2f8048b2f006bd5db393dc4202205f5acee76612730044041e9500a6fc081e41d91fbb407a90c4f1127a13f8e5eb012103726d90d8c7c0cc4b036e99aee9a85933e06d2edb70d6f713acea25f349390122", "asm": "304502210084f73306fbb3253d15c7094702dcb73560bd9bcc2f8048b2f006bd5db393dc4202205f5acee76612730044041e9500a6fc081e41d91fbb407a90c4f1127a13f8e5eb[ALL] 03726d90d8c7c0cc4b036e99aee9a85933e06d2edb70d6f713acea25f349390122"}, "vout": 0, "txid": "6a09c6984479edb2e12155055e296bcacd7762c144a61933f6b824d2f58df51d"}, {"sequence": 4294967293, "scriptSig": {"hex": "483045022100f2b7a4b2a1b1de5613c855e2c1706331de575638a6cb275d44fe0f1bfb61c6a8022039a6a25caa92dd93184cfd7cf21f8d71fbfa61de31536b4a272001d0166257b2012103726d90d8c7c0cc4b036e99aee9a85933e06d2edb70d6f713acea25f349390122", "asm": "3045022100f2b7a4b2a1b1de5613c855e2c1706331de575638a6cb275d44fe0f1bfb61c6a8022039a6a25caa92dd93184cfd7cf21f8d71fbfa61de31536b4a272001d0166257b2[ALL] 03726d90d8c7c0cc4b036e99aee9a85933e06d2edb70d6f713acea25f349390122"}, "vout": 0, "txid": "8e0e230f7c582e9426bc9c003108a59b94ec149f72a420a4d2945aa77e2fb233"}, {"sequence": 4294967293, "scriptSig": {"hex": "483045022100a4ec944810eb921d1d25cc2ffaff1fa524c8338dcc5fc35dfaabc8534ea5df800220222443c0620134ddd378f58f64b1405f98e9bd757d31a21d5a6499504e941595012103726d90d8c7c0cc4b036e99aee9a85933e06d2edb70d6f713acea25f349390122", "asm": "3045022100a4ec944810eb921d1d25cc2ffaff1fa524c8338dcc5fc35dfaabc8534ea5df800220222443c0620134ddd378f58f64b1405f98e9bd757d31a21d5a6499504e941595[ALL] 03726d90d8c7c0cc4b036e99aee9a85933e06d2edb70d6f713acea25f349390122"}, "vout": 0, "txid": "953318e48116f698e8cce06282a82e365376009305d0803cbbb94e8edf05aa49"}, {"sequence": 4294967293, "scriptSig": {"hex": "47304402202ba350ace5321999d4065858aedf835de5103911a430d61ee0f49dcc9057c15a02205abe035a6f8123627709292534cbd800ee3ac831bde8185f8a0bd809af86d2b4012103726d90d8c7c0cc4b036e99aee9a85933e06d2edb70d6f713acea25f349390122", "asm": "304402202ba350ace5321999d4065858aedf835de5103911a430d61ee0f49dcc9057c15a02205abe035a6f8123627709292534cbd800ee3ac831bde8185f8a0bd809af86d2b4[ALL] 03726d90d8c7c0cc4b036e99aee9a85933e06d2edb70d6f713acea25f349390122"}, "vout": 0, "txid": "aca36e5c060d20553df3455d24c88cb4f9fa64732d134d601743a9bccfe1d2c2"}, {"sequence": 4294967293, "scriptSig": {"hex": "4730440220326fb2832685b4cd515324c88dffe2135d30b53f0acb1532ee89286bb9833a4602201760ce4b482d794311ed117fbc1cd6ddfb5b7522c9800aa773cbaac3aea236ed012103726d90d8c7c0cc4b036e99aee9a85933e06d2edb70d6f713acea25f349390122", "asm": "30440220326fb2832685b4cd515324c88dffe2135d30b53f0acb1532ee89286bb9833a4602201760ce4b482d794311ed117fbc1cd6ddfb5b7522c9800aa773cbaac3aea236ed[ALL] 03726d90d8c7c0cc4b036e99aee9a85933e06d2edb70d6f713acea25f349390122"}, "vout": 0, "txid": "d052474efb46421e0132dbec69602e2a432f8fa42243503f21112bc9f8898148"}, {"sequence": 4294967293, "scriptSig": {"hex": "4830450221008e7d449aa339874af1442dc3af4723dbca786b476c6b02c7571066145143942a02203333e5f73104655a0e442886fffef084b1d19a443051b2698a822fa0152a216e012103726d90d8c7c0cc4b036e99aee9a85933e06d2edb70d6f713acea25f349390122", "asm": "30450221008e7d449aa339874af1442dc3af4723dbca786b476c6b02c7571066145143942a02203333e5f73104655a0e442886fffef084b1d19a443051b2698a822fa0152a216e[ALL] 03726d90d8c7c0cc4b036e99aee9a85933e06d2edb70d6f713acea25f349390122"}, "vout": 0, "txid": "d3d3827d2ad320d8b1d1b42fd9b9b96d15c54dd0eeff4a047d9d327c4a16241a"}, {"sequence": 4294967293, "scriptSig": {"hex": "483045022100c635a5a3baac30946c323f9219022596ac943775e1421d04aacc6114d0c5e80502203153c7f2be268aa12620152830a2550f4d329e3577fd65896a2dff12ae366bd9012103726d90d8c7c0cc4b036e99aee9a85933e06d2edb70d6f713acea25f349390122", "asm": "3045022100c635a5a3baac30946c323f9219022596ac943775e1421d04aacc6114d0c5e80502203153c7f2be268aa12620152830a2550f4d329e3577fd65896a2dff12ae366bd9[ALL] 03726d90d8c7c0cc4b036e99aee9a85933e06d2edb70d6f713acea25f349390122"}, "vout": 0, "txid": "e0b01723cf3d0bf428545801094127925b3bcdca5c84db4aa7900d77103f23d1"}, {"sequence": 4294967293, "scriptSig": {"hex": "483045022100c379d25b7a48f15b22fef4be502d152dad39e70229a04ebaea3b0afaa1df746502200a295fbe9d07572bbb4ad2cd85cff01001cd3665901ea08052524918dfd4bd4f012103726d90d8c7c0cc4b036e99aee9a85933e06d2edb70d6f713acea25f349390122", "asm": "3045022100c379d25b7a48f15b22fef4be502d152dad39e70229a04ebaea3b0afaa1df746502200a295fbe9d07572bbb4ad2cd85cff01001cd3665901ea08052524918dfd4bd4f[ALL] 03726d90d8c7c0cc4b036e99aee9a85933e06d2edb70d6f713acea25f349390122"}, "vout": 0, "txid": "f197130439ca48eb36bf44dfba4363012d66ba884637a991c4ad6fca0a2ae152"}], "txid": "a79ebe59b6a0aac68f368cb3e73528bc78c0a1d227d1c3c184b68976926f537a", "blocktime": 1537876114, "version": 1, "confirmations": 11460, "time": 1537876114, "locktime": 542998, "vsize": 1702, "size": 1702}