{"hash": "2911c623280a66658ac6f837ec2b7453f2f618e3512cff2f4531b562cd8b4222", "blockhash": "0000000000000000000e13cef7c366c0283d82e591d1acd082e914b08063cdf1", "vout": [{"scriptPubKey": {"reqSigs": 1, "hex": "76a914e79020e1d62129a2b3604ac8dbeef6838f678b0288ac", "addresses": ["1N7PkXuPgkXi2hM1nPhV6ofo2RBYXCszU6"], "asm": "OP_DUP OP_HASH160 e79020e1d62129a2b3604ac8dbeef6838f678b02 OP_EQUALVERIFY OP_CHECKSIG", "type": "pubkeyhash"}, "value": 0.00208069, "n": 0}, {"scriptPubKey": {"reqSigs": 1, "hex": "76a9142c72af6cc06b842b51325924adfbb250a4d3ed0788ac", "addresses": ["15427usi2s7jeY2ki9X4njUhJfW13fStXR"], "asm": "OP_DUP OP_HASH160 2c72af6cc06b842b51325924adfbb250a4d3ed07 OP_EQUALVERIFY OP_CHECKSIG", "type": "pubkeyhash"}, "value": 0.02655829, "n": 1}, {"scriptPubKey": {"reqSigs": 1, "hex": "a91424c0bcde3444d51bc933fe973feb5d36c3b4ee6987", "addresses": ["353M971Mt1VTjzy7enVoAyEqHfrrP5SYo2"], "asm": "OP_HASH160 24c0bcde3444d51bc933fe973feb5d36c3b4ee69 OP_EQUAL", "type": "scripthash"}, "value": 0.00735429, "n": 2}, {"scriptPubKey": {"reqSigs": 1, "hex": "76a9149f7a7d26262a25655c218e44ba2075bd252f308f88ac", "addresses": ["1FYFBBEdT4UTPTMVFXkpDAH4AMu98eg65A"], "asm": "OP_DUP OP_HASH160 9f7a7d26262a25655c218e44ba2075bd252f308f OP_EQUALVERIFY OP_CHECKSIG", "type": "pubkeyhash"}, "value": 0.00967654, "n": 3}, {"scriptPubKey": {"reqSigs": 1, "hex": "a9142b23fd1398a452c717150a9b1d26fca310c5d9aa87", "addresses": ["35d86KgLipC1wMhkrgbLJzVSvGxZtqStKL"], "asm": "OP_HASH160 2b23fd1398a452c717150a9b1d26fca310c5d9aa OP_EQUAL", "type": "scripthash"}, "value": 0.43942908, "n": 4}, {"scriptPubKey": {"reqSigs": 1, "hex": "76a914afa5786c2af4c2f15d51e59385dc3c768a2cff5c88ac", "addresses": ["1H1jUf1TWZPD7nw7NhQdAJhWNA3uqrnJ3w"], "asm": "OP_DUP OP_HASH160 afa5786c2af4c2f15d51e59385dc3c768a2cff5c OP_EQUALVERIFY OP_CHECKSIG", "type": "pubkeyhash"}, "value": 0.02252501, "n": 5}, {"scriptPubKey": {"reqSigs": 1, "hex": "76a914df44ff92a6bc421304731b940eb5f84f5436681288ac", "addresses": ["1MMYLsFEa18hAG4eN2L24rFPMGjWCxVKQj"], "asm": "OP_DUP OP_HASH160 df44ff92a6bc421304731b940eb5f84f54366812 OP_EQUALVERIFY OP_CHECKSIG", "type": "pubkeyhash"}, "value": 0.02108896, "n": 6}, {"scriptPubKey": {"reqSigs": 1, "hex": "76a914b3aba53e0cb3bacdb4724946c44682079d782eba88ac", "addresses": ["1HP1aUXML9qPLwVHuYKRDcjpaYhGsPtvJ9"], "asm": "OP_DUP OP_HASH160 b3aba53e0cb3bacdb4724946c44682079d782eba OP_EQUALVERIFY OP_CHECKSIG", "type": "pubkeyhash"}, "value": 0.00293192, "n": 7}, {"scriptPubKey": {"reqSigs": 1, "hex": "76a91428da5b12abd1eef07378c8734bc7b7af7aa1764788ac", "addresses": ["14j1cJDxqEadrinUXd1rKzBuuoFFCrUJaK"], "asm": "OP_DUP OP_HASH160 28da5b12abd1eef07378c8734bc7b7af7aa17647 OP_EQUALVERIFY OP_CHECKSIG", "type": "pubkeyhash"}, "value": 0.01000119, "n": 8}, {"scriptPubKey": {"reqSigs": 1, "hex": "76a914f22e62baf0b23470036e46daba6299977119a3d888ac", "addresses": ["1P5Y6McnjWRhdnpexDDa3u6EYBiEBaJSV5"], "asm": "OP_DUP OP_HASH160 f22e62baf0b23470036e46daba6299977119a3d8 OP_EQUALVERIFY OP_CHECKSIG", "type": "pubkeyhash"}, "value": 0.00393383, "n": 9}, {"scriptPubKey": {"reqSigs": 1, "hex": "a91498fb3be9ec7b734f6e6c444d31985ddd11257f2e87", "addresses": ["3FdubkPoFMvDQBW3jDpg9HcSWweC6sExPb"], "asm": "OP_HASH160 98fb3be9ec7b734f6e6c444d31985ddd11257f2e OP_EQUAL", "type": "scripthash"}, "value": 0.04114431, "n": 10}, {"scriptPubKey": {"reqSigs": 1, "hex": "76a91407d7516e8f7f6e6a7f1470784c5b7d087086aae788ac", "addresses": ["1iTfuZVNciWXWJrQEiJ2X23z4EBWY2WBw"], "asm": "OP_DUP OP_HASH160 07d7516e8f7f6e6a7f1470784c5b7d087086aae7 OP_EQUALVERIFY OP_CHECKSIG", "type": "pubkeyhash"}, "value": 0.02685653, "n": 11}, {"scriptPubKey": {"reqSigs": 1, "hex": "76a91498a74102c8447b2058384e9e8b88fced08e161da88ac", "addresses": ["1EvA5AeU2Mu24m2t2DLSaBsZjv1R6EWYzV"], "asm": "OP_DUP OP_HASH160 98a74102c8447b2058384e9e8b88fced08e161da OP_EQUALVERIFY OP_CHECKSIG", "type": "pubkeyhash"}, "value": 0.00493263, "n": 12}, {"scriptPubKey": {"reqSigs": 1, "hex": "a914c0e91360ba50149805a294ba7d15c740f504a1ca87", "addresses": ["3KH2skwQV3sCrtq2gDY6thHehFMLXG6HBa"], "asm": "OP_HASH160 c0e91360ba50149805a294ba7d15c740f504a1ca OP_EQUAL", "type": "scripthash"}, "value": 0.02502669, "n": 13}], "hex": "02000000000101dfbc026f0f3acee1f64c8bb58435ffde5f2ff8224ba72db620b721e2c144cc170100000017160014ab74adc2ac634994553b9c57cf9ada4acf6898d7feffffff0ec52c0300000000001976a914e79020e1d62129a2b3604ac8dbeef6838f678b0288ac55862800000000001976a9142c72af6cc06b842b51325924adfbb250a4d3ed0788acc5380b000000000017a91424c0bcde3444d51bc933fe973feb5d36c3b4ee6987e6c30e00000000001976a9149f7a7d26262a25655c218e44ba2075bd252f308f88acfc839e020000000017a9142b23fd1398a452c717150a9b1d26fca310c5d9aa87d55e2200000000001976a914afa5786c2af4c2f15d51e59385dc3c768a2cff5c88ace02d2000000000001976a914df44ff92a6bc421304731b940eb5f84f5436681288ac48790400000000001976a914b3aba53e0cb3bacdb4724946c44682079d782eba88acb7420f00000000001976a91428da5b12abd1eef07378c8734bc7b7af7aa1764788aca7000600000000001976a914f22e62baf0b23470036e46daba6299977119a3d888acffc73e000000000017a91498fb3be9ec7b734f6e6c444d31985ddd11257f2e87d5fa2800000000001976a91407d7516e8f7f6e6a7f1470784c5b7d087086aae788accf860700000000001976a91498a74102c8447b2058384e9e8b88fced08e161da88ac0d3026000000000017a914c0e91360ba50149805a294ba7d15c740f504a1ca87024730440220084518c9767ce7b34c759aa000d05d92a3b0c2de02fdfc32c960f51af5956fd402200f98299d7d2ce856948d8499a251eacfb467c589392fc05504f745aa2c004fec0121031f5f3a0d84d26f59ad02f708747e5563333f3fc2aad216d090023061d263ff0010490800", "vin": [{"txinwitness": ["30440220084518c9767ce7b34c759aa000d05d92a3b0c2de02fdfc32c960f51af5956fd402200f98299d7d2ce856948d8499a251eacfb467c589392fc05504f745aa2c004fec01", "031f5f3a0d84d26f59ad02f708747e5563333f3fc2aad216d090023061d263ff00"], "sequence": 4294967294, "scriptSig": {"hex": "160014ab74adc2ac634994553b9c57cf9ada4acf6898d7", "asm": "0014ab74adc2ac634994553b9c57cf9ada4acf6898d7"}, "vout": 1, "txid": "17cc44c1e221b720b62da74b22f82f5fdeff3584b58b4cf6e1ce3a0f6f02bcdf"}], "txid": "a7a1c9eae9428f99e9460a349191588bda000a9170a4c55d78a78304e09b6e15", "blocktime": 1537871767, "version": 2, "confirmations": 11495, "time": 1537871767, "locktime": 542992, "vsize": 570, "size": 651}