{"hash": "a7a7a4121af70f806fec2ccb12398b644eec5e944caffb36bf1e03de33a1df24", "blockhash": "0000000000000000001f76057863aec43deb6fa401d9628bb513d65a8098bfab", "vout": [{"scriptPubKey": {"reqSigs": 1, "hex": "76a9144a26a1cb7449f5619e75a8aa501da80d8efe9aff88ac", "addresses": ["17m5HPtUgWGXfg2j5YdaKSMsjFAec9kdWD"], "asm": "OP_DUP OP_HASH160 4a26a1cb7449f5619e75a8aa501da80d8efe9aff OP_EQUALVERIFY OP_CHECKSIG", "type": "pubkeyhash"}, "value": 0.012578, "n": 0}, {"scriptPubKey": {"reqSigs": 1, "hex": "76a914d5ba2eb2d52670fbe9522748bf642da754eb0d6f88ac", "addresses": ["1LV5y3NkVkmdWnF6xRCEXrAnUkRgge4KSq"], "asm": "OP_DUP OP_HASH160 d5ba2eb2d52670fbe9522748bf642da754eb0d6f OP_EQUALVERIFY OP_CHECKSIG", "type": "pubkeyhash"}, "value": 0.1864737, "n": 1}], "hex": "0100000001dc9a7f16742aec203a39cfa83e4c93d9d22fb554405c7163459bc38c4507ed83010000006b483045022100d2c66c3c738671c07af0e409334a674ddea067a4eb6ce8685956238d8b9fb856022029c776f0f858fb7d6315f79265d3b6de75f97e6c73b4a8c883587f949be7527a012102c19ebc0e7fe714e24c55adaeebc7dbab2dc9a208b511bd1b6e83db85506d4d19ffffffff0248311300000000001976a9144a26a1cb7449f5619e75a8aa501da80d8efe9aff88ac4a891c01000000001976a914d5ba2eb2d52670fbe9522748bf642da754eb0d6f88ac00000000", "vin": [{"sequence": 4294967295, "scriptSig": {"hex": "483045022100d2c66c3c738671c07af0e409334a674ddea067a4eb6ce8685956238d8b9fb856022029c776f0f858fb7d6315f79265d3b6de75f97e6c73b4a8c883587f949be7527a012102c19ebc0e7fe714e24c55adaeebc7dbab2dc9a208b511bd1b6e83db85506d4d19", "asm": "3045022100d2c66c3c738671c07af0e409334a674ddea067a4eb6ce8685956238d8b9fb856022029c776f0f858fb7d6315f79265d3b6de75f97e6c73b4a8c883587f949be7527a[ALL] 02c19ebc0e7fe714e24c55adaeebc7dbab2dc9a208b511bd1b6e83db85506d4d19"}, "vout": 1, "txid": "83ed07458cc39b4563715c4054b52fd2d9934c3ea8cf393a20ec2a74167f9adc"}], "txid": "a7a7a4121af70f806fec2ccb12398b644eec5e944caffb36bf1e03de33a1df24", "blocktime": 1537873891, "version": 1, "confirmations": 11478, "time": 1537873891, "locktime": 0, "vsize": 226, "size": 226}