{"hash": "95d762272611146b9f26e1c3b173dae04e95a4331424420a5cb1667a69f407d9", "blockhash": "0000000000000000001cda96e906b7601b7a6fb1a3b62bca570a9e5d8f4b3de1", "vout": [{"scriptPubKey": {"reqSigs": 1, "hex": "76a914acb19a2ed109b660ff4fb391b1c5e1029470e7f088ac", "addresses": ["1Gk7z21QtVKoyTWSp5966ksjRXr4CyfnEv"], "asm": "OP_DUP OP_HASH160 acb19a2ed109b660ff4fb391b1c5e1029470e7f0 OP_EQUALVERIFY OP_CHECKSIG", "type": "pubkeyhash"}, "value": 0.00078061, "n": 0}, {"scriptPubKey": {"reqSigs": 1, "hex": "a914a53f4c3dc877d5fc6e67f1b4630e7998598138b787", "addresses": ["3GkmFCrihYunvJs4Tfru9mnygy5FRuoKmS"], "asm": "OP_HASH160 a53f4c3dc877d5fc6e67f1b4630e7998598138b7 OP_EQUAL", "type": "scripthash"}, "value": 0.0492177, "n": 1}], "hex": "0200000000010155c12c1e4b3699be58171e26c0d10ef1d1293e3c72ee5cf04f9b188d888712fd0800000017160014a1ff91044ee0b6bd98a7990c33d4b87b975f5c25feffffff02ed300100000000001976a914acb19a2ed109b660ff4fb391b1c5e1029470e7f088acaa194b000000000017a914a53f4c3dc877d5fc6e67f1b4630e7998598138b78702483045022100a8fefc1053bdcedcb7912178c5272372a7d6766ac40082b950b9bcccf5c967ac0220346d3e3ff513201a5a517d899527211cb8674dc2ca2788781c4dd9cf5954aa080121030d3fb9bac8fca16e9bd3ec29812685b7aa934d3441e87855f670e0033c90af2713490800", "vin": [{"txinwitness": ["3045022100a8fefc1053bdcedcb7912178c5272372a7d6766ac40082b950b9bcccf5c967ac0220346d3e3ff513201a5a517d899527211cb8674dc2ca2788781c4dd9cf5954aa0801", "030d3fb9bac8fca16e9bd3ec29812685b7aa934d3441e87855f670e0033c90af27"], "sequence": 4294967294, "scriptSig": {"hex": "160014a1ff91044ee0b6bd98a7990c33d4b87b975f5c25", "asm": "0014a1ff91044ee0b6bd98a7990c33d4b87b975f5c25"}, "vout": 8, "txid": "fd1287888d189b4ff05cee723c3e29d1f10ed1c0261e1758be99364b1e2cc155"}], "txid": "a7b1515537dc5c93ea4e7612a80ec9bdf26efa614527caa255800c6ff7d4d011", "blocktime": 1537873282, "version": 2, "confirmations": 11485, "time": 1537873282, "locktime": 542995, "vsize": 168, "size": 250}