{"hash": "a7b341afecd4be00448b4c2ab6f82c076fad166807010a884abf4ba565ba7148", "blockhash": "00000000000000000004ffacab907a6b429b9a5745fa0b75af4234bf69dd7176", "vout": [{"scriptPubKey": {"reqSigs": 1, "hex": "76a91462520c47a3d17e2d2f5416fabbabc4b7e087b9bb88ac", "addresses": ["19xsWbLzNexCqEJJz6aG5nE3JrB9bDYkbh"], "asm": "OP_DUP OP_HASH160 62520c47a3d17e2d2f5416fabbabc4b7e087b9bb OP_EQUALVERIFY OP_CHECKSIG", "type": "pubkeyhash"}, "value": 0.01557146, "n": 0}, {"scriptPubKey": {"reqSigs": 1, "hex": "76a9144265b0807649fedbbf528278d1ec4c8e559e738d88ac", "addresses": ["1745RAmPVbJdgQ9czjdJKwP7qB5QsNt9JA"], "asm": "OP_DUP OP_HASH160 4265b0807649fedbbf528278d1ec4c8e559e738d OP_EQUALVERIFY OP_CHECKSIG", "type": "pubkeyhash"}, "value": 0.01931283, "n": 1}], "hex": "0100000001bdcac4ffcbedf9adbb140ca82fb29c509c2dd8a74eb03c1aed0b641cd4bfe8d6010000006a47304402200c1d2290a63c75d9a6f717d8b2e6ca1a545e094e052a2ba51a4f3247c2b5f758022011b17806a49cd9660ad26a4ff0956557e46ed2d6ec99eee8288a8c50e3ded8ff0121037f9791752b9210186e6a0b532903f080eb308bf973f988e1df95d10358dac89effffffff029ac21700000000001976a91462520c47a3d17e2d2f5416fabbabc4b7e087b9bb88ac13781d00000000001976a9144265b0807649fedbbf528278d1ec4c8e559e738d88ac00000000", "vin": [{"sequence": 4294967295, "scriptSig": {"hex": "47304402200c1d2290a63c75d9a6f717d8b2e6ca1a545e094e052a2ba51a4f3247c2b5f758022011b17806a49cd9660ad26a4ff0956557e46ed2d6ec99eee8288a8c50e3ded8ff0121037f9791752b9210186e6a0b532903f080eb308bf973f988e1df95d10358dac89e", "asm": "304402200c1d2290a63c75d9a6f717d8b2e6ca1a545e094e052a2ba51a4f3247c2b5f758022011b17806a49cd9660ad26a4ff0956557e46ed2d6ec99eee8288a8c50e3ded8ff[ALL] 037f9791752b9210186e6a0b532903f080eb308bf973f988e1df95d10358dac89e"}, "vout": 1, "txid": "d6e8bfd41c640bed1a3cb04ea7d82d9c509cb22fa80c14bbadf9edcbffc4cabd"}], "txid": "a7b341afecd4be00448b4c2ab6f82c076fad166807010a884abf4ba565ba7148", "blocktime": 1537875543, "version": 1, "confirmations": 11464, "time": 1537875543, "locktime": 0, "vsize": 225, "size": 225}