{"hash": "e44ac79134f0eb856029cbbb369af9428b65adc607bf094f9c3cca5c494ccad9", "blockhash": "0000000000000000001e0dab787dd257d1dbfcb92a98c2207d5e1078be1f4165", "vout": [{"scriptPubKey": {"reqSigs": 1, "hex": "a914ae6d2b68b3f8e22b181b99a179fde27c6a6dfccc87", "addresses": ["3HbJHA3PGvBBoSjGSm2VRCV6q7d6aKLdC3"], "asm": "OP_HASH160 ae6d2b68b3f8e22b181b99a179fde27c6a6dfccc OP_EQUAL", "type": "scripthash"}, "value": 0.002255, "n": 0}, {"scriptPubKey": {"reqSigs": 1, "hex": "0014918c6748ea807a421dcb7a87a253034e6f01b915", "addresses": ["bc1qjxxxwj82spayy8wt02r6y5crfehsrwg4uvmdd3"], "asm": "0 918c6748ea807a421dcb7a87a253034e6f01b915", "type": "witness_v0_keyhash"}, "value": 1.297e-05, "n": 1}], "hex": "01000000000101433d52562cde4a7c27541db6591dc3c01d18ea7a4806de6458acf2ce31b67eee2300000017160014f1682ead4f626d27a29343d1e3755647ee28e7c3ffffffff02dc7003000000000017a914ae6d2b68b3f8e22b181b99a179fde27c6a6dfccc871105000000000000160014918c6748ea807a421dcb7a87a253034e6f01b9150247304402204a88330731d58efb6bdf5a74f9b03b043ee386b553089f0d0b4b5ef6681fe09c022022ee9299a0749a1502adc2514581cc0e22d29f84e30606504194a51f0910d9ab0121034ab3f9268fda32f94bd9440fd38403965871cf874c0a56c5bfd5541000c90d2000000000", "vin": [{"txinwitness": ["304402204a88330731d58efb6bdf5a74f9b03b043ee386b553089f0d0b4b5ef6681fe09c022022ee9299a0749a1502adc2514581cc0e22d29f84e30606504194a51f0910d9ab01", "034ab3f9268fda32f94bd9440fd38403965871cf874c0a56c5bfd5541000c90d20"], "sequence": 4294967295, "scriptSig": {"hex": "160014f1682ead4f626d27a29343d1e3755647ee28e7c3", "asm": "0014f1682ead4f626d27a29343d1e3755647ee28e7c3"}, "vout": 35, "txid": "ee7eb631cef2ac5864de06487aea181dc0c31d59b61d54277c4ade2c56523d43"}], "txid": "a7b4a5e48c3a608fef81f0b3b85554360ba54db2da9701b036ad82ad160e6b65", "blocktime": 1537872475, "version": 1, "confirmations": 11486, "time": 1537872475, "locktime": 0, "vsize": 165, "size": 246}