{"hash": "92a6fc8ea57b0306ee109387df85c33a92c6d70a10a199bb283c38ff640dcfe8", "blockhash": "0000000000000000001f76057863aec43deb6fa401d9628bb513d65a8098bfab", "vout": [{"scriptPubKey": {"reqSigs": 1, "hex": "a914d6cdad3141d5113b8518e4be9ecc27dae6325eda87", "addresses": ["3MGnvFYJ1U8TWJui3h6VUBTGwZ4xWvxiJv"], "asm": "OP_HASH160 d6cdad3141d5113b8518e4be9ecc27dae6325eda OP_EQUAL", "type": "scripthash"}, "value": 0.0105311, "n": 0}, {"scriptPubKey": {"reqSigs": 1, "hex": "a9140c94a7e6ed7cbd8c913f5f38bd8127a04c97d01b87", "addresses": ["32qY7dsKL3XW4219Q5i3adxsqosV3VwX73"], "asm": "OP_HASH160 0c94a7e6ed7cbd8c913f5f38bd8127a04c97d01b OP_EQUAL", "type": "scripthash"}, "value": 0.1, "n": 1}], "hex": "010000000001044620c81635fda7b9f679a255c5729b054f3eb67d76987f4b30bf393d49cfc3280100000017160014ea31d83c5c1cf04d7a9d57dcb2eee095d144fdc2ffffffff3337782e507d0b42f6f283ceed08f357834afb7010c071e63ffa4f23f019854b1400000017160014e64f93ae9ef0754c9ada2d74b6ce11f3b0bee0c0ffffffff54df2cb1e48c7e1f8a9b0bb976049cd07bb4fb60f788fc2920b7823e29f272720c00000017160014e64f93ae9ef0754c9ada2d74b6ce11f3b0bee0c0fffffffff641d1e6eeba064b2522708249ebaf5c06a9351f19ed0e8579acf88049c5f6f00100000017160014ea31d83c5c1cf04d7a9d57dcb2eee095d144fdc2ffffffff02b61110000000000017a914d6cdad3141d5113b8518e4be9ecc27dae6325eda87809698000000000017a9140c94a7e6ed7cbd8c913f5f38bd8127a04c97d01b870247304402201af48f43ae6810a9af5bd63aae948cd64e97c768b96b75f0d1b1b2136260c0770220231213b7017b27d6c892a75c8b4fa67a0211407181d467c61b1fd96e3e469079012102e5ca683d9cdf5fe378bdd5b598ea3589016c604a07c8b773f00f47614c527a5602473044022013822ba123c92567a433815006e0fc6b8e34c3c9566014ccb2207830e932ce4d02200da3747d4d572ef0fff3eb82ed3c152e671e7189254dd1555ebacd68573dab48012102bb9b57ffaf61594d27490564d516b1a07bcb238bb23f614a04af07d4e56620b302483045022100be5d55aaed0f4b1d9b476f63b76eea0733b6c7cd0352041e5101254de219e18302200746ca91ea0a61ee79776cf407ead1d4796d10174d95aa67eb67a3e205f2f946012102bb9b57ffaf61594d27490564d516b1a07bcb238bb23f614a04af07d4e56620b302483045022100e2cfd70f2976460ae9c1821bd3dd7ba3e56748e831fb022be7d36fc08ab1b68602204d07cb1adcbfda1fef807cb5ae046ce02c5b55327d728598783a3f7937fbe9dd012102e5ca683d9cdf5fe378bdd5b598ea3589016c604a07c8b773f00f47614c527a5600000000", "vin": [{"txinwitness": ["304402201af48f43ae6810a9af5bd63aae948cd64e97c768b96b75f0d1b1b2136260c0770220231213b7017b27d6c892a75c8b4fa67a0211407181d467c61b1fd96e3e46907901", "02e5ca683d9cdf5fe378bdd5b598ea3589016c604a07c8b773f00f47614c527a56"], "sequence": 4294967295, "scriptSig": {"hex": "160014ea31d83c5c1cf04d7a9d57dcb2eee095d144fdc2", "asm": "0014ea31d83c5c1cf04d7a9d57dcb2eee095d144fdc2"}, "vout": 1, "txid": "28c3cf493d39bf304b7f98767db63e4f059b72c555a279f6b9a7fd3516c82046"}, {"txinwitness": ["3044022013822ba123c92567a433815006e0fc6b8e34c3c9566014ccb2207830e932ce4d02200da3747d4d572ef0fff3eb82ed3c152e671e7189254dd1555ebacd68573dab4801", "02bb9b57ffaf61594d27490564d516b1a07bcb238bb23f614a04af07d4e56620b3"], "sequence": 4294967295, "scriptSig": {"hex": "160014e64f93ae9ef0754c9ada2d74b6ce11f3b0bee0c0", "asm": "0014e64f93ae9ef0754c9ada2d74b6ce11f3b0bee0c0"}, "vout": 20, "txid": "4b8519f0234ffa3fe671c01070fb4a8357f308edce83f2f6420b7d502e783733"}, {"txinwitness": ["3045022100be5d55aaed0f4b1d9b476f63b76eea0733b6c7cd0352041e5101254de219e18302200746ca91ea0a61ee79776cf407ead1d4796d10174d95aa67eb67a3e205f2f94601", "02bb9b57ffaf61594d27490564d516b1a07bcb238bb23f614a04af07d4e56620b3"], "sequence": 4294967295, "scriptSig": {"hex": "160014e64f93ae9ef0754c9ada2d74b6ce11f3b0bee0c0", "asm": "0014e64f93ae9ef0754c9ada2d74b6ce11f3b0bee0c0"}, "vout": 12, "txid": "7272f2293e82b72029fc88f760fbb47bd09c0476b90b9b8a1f7e8ce4b12cdf54"}, {"txinwitness": ["3045022100e2cfd70f2976460ae9c1821bd3dd7ba3e56748e831fb022be7d36fc08ab1b68602204d07cb1adcbfda1fef807cb5ae046ce02c5b55327d728598783a3f7937fbe9dd01", "02e5ca683d9cdf5fe378bdd5b598ea3589016c604a07c8b773f00f47614c527a56"], "sequence": 4294967295, "scriptSig": {"hex": "160014ea31d83c5c1cf04d7a9d57dcb2eee095d144fdc2", "asm": "0014ea31d83c5c1cf04d7a9d57dcb2eee095d144fdc2"}, "vout": 1, "txid": "f0f6c54980f8ac79850eed191f35a9065cafeb49827022254b06baeee6d141f6"}], "txid": "a7b8832696af352d4382e00a9fb4b17faab07a0958be36948ee17ba0a5c99414", "blocktime": 1537873891, "version": 1, "confirmations": 11478, "time": 1537873891, "locktime": 0, "vsize": 438, "size": 762}