{"hash": "a3a57ddfcdd6fe6ce66094e321f04b298c5f918c7fb6aa7c388a1f19fd810c0f", "blockhash": "0000000000000000000e13cef7c366c0283d82e591d1acd082e914b08063cdf1", "vout": [{"scriptPubKey": {"reqSigs": 1, "hex": "a9146aafaf5743817b3833702b43fa3ea4045467dad787", "addresses": ["3BR81gR5KG5gT3WMZtyVm7jJhonrwgrufW"], "asm": "OP_HASH160 6aafaf5743817b3833702b43fa3ea4045467dad7 OP_EQUAL", "type": "scripthash"}, "value": 0.01187876, "n": 0}], "hex": "010000000001011d63a5df808821de072cc2894f12b773ece69c11c94a047d1621f3f9c9e62783010000001716001434627bbbdd9e0f8c95cb29f6c1b8bbc4949d449affffffff01242012000000000017a9146aafaf5743817b3833702b43fa3ea4045467dad78702483045022100c79574e511ae2c6155bd9f441aaec6c5ad6c97f1446a9c2cbcfdf7e6910df34e02207536e2f30457bc7619b582cc6febb38caa4ac08847dde2a98434206335032b40012103ef7a69f471f97da1b116331cc1b5462d8456e8fdc6e173141ff0de541b885ca600000000", "vin": [{"txinwitness": ["3045022100c79574e511ae2c6155bd9f441aaec6c5ad6c97f1446a9c2cbcfdf7e6910df34e02207536e2f30457bc7619b582cc6febb38caa4ac08847dde2a98434206335032b4001", "03ef7a69f471f97da1b116331cc1b5462d8456e8fdc6e173141ff0de541b885ca6"], "sequence": 4294967295, "scriptSig": {"hex": "16001434627bbbdd9e0f8c95cb29f6c1b8bbc4949d449a", "asm": "001434627bbbdd9e0f8c95cb29f6c1b8bbc4949d449a"}, "vout": 1, "txid": "8327e6c9f9f321167d044ac9119ce6ec73b7124f89c22c07de218880dfa5631d"}], "txid": "a7bb14b93817883cca55191b783e20a96a2d082d96097a242111b754830737fe", "blocktime": 1537871767, "version": 1, "confirmations": 11495, "time": 1537871767, "locktime": 0, "vsize": 134, "size": 216}