{"hash": "a7bff0c75c4ee29637d86871547318dc7f900c7c00ca834d5eeeb2b0af885916", "blockhash": "00000000000000000018f53835495a110e01622372bf6ae95dc86f2b0ab887b0", "vout": [{"scriptPubKey": {"reqSigs": 1, "hex": "76a9148e6db574951ecbd3d55f8813f3e3e948f8d606e688ac", "addresses": ["1Dz6NwcpuWNqYFmk8DEFq45tdhwbmMvGAW"], "asm": "OP_DUP OP_HASH160 8e6db574951ecbd3d55f8813f3e3e948f8d606e6 OP_EQUALVERIFY OP_CHECKSIG", "type": "pubkeyhash"}, "value": 0.06843, "n": 0}], "hex": "010000000778fe6012569a095bd2be7f26a53a158cfab83b143829af4e52f36a69a2fb851d2f0000006b4830450221008f2211306cdd5d9d575cae70c39fa982ca21bfe4dfa0df0ef721e54ecab508e902202f2c02f234b3f45a91e6ef15714bfa779e8ec1e945a35a853306cbf7a753340b012103c245bbee8bc04055be75f1c2c8d32d573793bf19ee4ce5dceaf545cc7027d6d5ffffffff8209f7e7c7cc3cecfd0ede54fca275ffa4971c1be0e2d9f53780e056f527e472020000006b48304502210093e4300aa2549604ceceb1f4022c596c0e9ddaef0ae8a97a87a8d4645b6ba5ec02204e51c2181a38c23bf85adb78c44ab9268ab481db1cf96b5ccaeb6bf9417420a70121023be5fd97515830b9a5b2ea658e73e1d4f5bf4388a475b55e716fb3e3f7bebfb2ffffffff16de26e10ae7cb9c705a9c2285d4f8c64350755fc7f819996fbc457b395ad47f060000006a4730440220748e219d4bba87ec9e46c8c7aacb6d19d5a888a3f42f380ab14d5dd21e6955f6022067f65f512ff1cb2662365a56ebd77694a0161904a97a246fce4aaa09b3042f0b012102a634e2bcd09eca61737bd6ba2b093bc4436e453ace0ea1e90f539eb9bcf80e0affffffff9c0a6f8dbc69ceda2d76adfc51cc5bceef39a9b0f71190e4b243561c43d272c1080000006a47304402203528acf7125725d6097eb92ae916d100c2ca83c111d700538cc5dd64a72a0ff502201d75c902cf7c18ed90fd8262cd7f01946ef0d6601ce4d3fc32cdecc215186aa90121036394a1cda163dbbeb83d1a2b043a8400714f4b8e01a871dec8231de6c17dcc02ffffffffcb3d43d708c6e114fd5db4a4d7dc7c0695676618decffd34887fbe16396010cd030000006b483045022100c7920084a685efccfe54efc8e306adfdd527f673e2c84b7f2ec703def3b50e1602200cc39b2f137053d14a95e9304a225f909f118f846f66b0e070b4b7c27f5464cb012102c483663a5c55cdca7a0663fc13f9f10c0e6b5004b49e9e2e311428a3fe49ff53ffffffffda60db5ecf2a592656c35207fb2bebfe33ae034da1e7a073b8da005510743fd2110000006a47304402207bcb71efd4db77fe46da94f547a92cb7884b713edcfa2b757d68ed857878133f02205a4c38c8d4836b98e7eb6be7f71cef085153329123cca3871f57cec757da29770121036ed0e52a5767368b2210cd2ddc38fbd33246228f5b1bea16be210407c3368bfdffffffffdad19906f98769161a81215bf9bb94f24c3a4eba4ae52e71edd255cfdc4447fa0b0000006b483045022100e2f6c558ee5b0b40dde7be8f0e79d0930a1389bdb2cd6dbda6aa4f5a255cf21b022026cef4319bee2f7af1af28de8c2c0158ddd11677526670da8e328e52fab1db24012103b8907c1fd9f75628320b959976edc546faf0c7e256db9d2c2a3db414ccd955fbffffffff01786a6800000000001976a9148e6db574951ecbd3d55f8813f3e3e948f8d606e688ac00000000", "vin": [{"sequence": 4294967295, "scriptSig": {"hex": "4830450221008f2211306cdd5d9d575cae70c39fa982ca21bfe4dfa0df0ef721e54ecab508e902202f2c02f234b3f45a91e6ef15714bfa779e8ec1e945a35a853306cbf7a753340b012103c245bbee8bc04055be75f1c2c8d32d573793bf19ee4ce5dceaf545cc7027d6d5", "asm": "30450221008f2211306cdd5d9d575cae70c39fa982ca21bfe4dfa0df0ef721e54ecab508e902202f2c02f234b3f45a91e6ef15714bfa779e8ec1e945a35a853306cbf7a753340b[ALL] 03c245bbee8bc04055be75f1c2c8d32d573793bf19ee4ce5dceaf545cc7027d6d5"}, "vout": 47, "txid": "1d85fba2696af3524eaf2938143bb8fa8c153aa5267fbed25b099a561260fe78"}, {"sequence": 4294967295, "scriptSig": {"hex": "48304502210093e4300aa2549604ceceb1f4022c596c0e9ddaef0ae8a97a87a8d4645b6ba5ec02204e51c2181a38c23bf85adb78c44ab9268ab481db1cf96b5ccaeb6bf9417420a70121023be5fd97515830b9a5b2ea658e73e1d4f5bf4388a475b55e716fb3e3f7bebfb2", "asm": "304502210093e4300aa2549604ceceb1f4022c596c0e9ddaef0ae8a97a87a8d4645b6ba5ec02204e51c2181a38c23bf85adb78c44ab9268ab481db1cf96b5ccaeb6bf9417420a7[ALL] 023be5fd97515830b9a5b2ea658e73e1d4f5bf4388a475b55e716fb3e3f7bebfb2"}, "vout": 2, "txid": "72e427f556e08037f5d9e2e01b1c97a4ff75a2fc54de0efdec3cccc7e7f70982"}, {"sequence": 4294967295, "scriptSig": {"hex": "4730440220748e219d4bba87ec9e46c8c7aacb6d19d5a888a3f42f380ab14d5dd21e6955f6022067f65f512ff1cb2662365a56ebd77694a0161904a97a246fce4aaa09b3042f0b012102a634e2bcd09eca61737bd6ba2b093bc4436e453ace0ea1e90f539eb9bcf80e0a", "asm": "30440220748e219d4bba87ec9e46c8c7aacb6d19d5a888a3f42f380ab14d5dd21e6955f6022067f65f512ff1cb2662365a56ebd77694a0161904a97a246fce4aaa09b3042f0b[ALL] 02a634e2bcd09eca61737bd6ba2b093bc4436e453ace0ea1e90f539eb9bcf80e0a"}, "vout": 6, "txid": "7fd45a397b45bc6f9919f8c75f755043c6f8d485229c5a709ccbe70ae126de16"}, {"sequence": 4294967295, "scriptSig": {"hex": "47304402203528acf7125725d6097eb92ae916d100c2ca83c111d700538cc5dd64a72a0ff502201d75c902cf7c18ed90fd8262cd7f01946ef0d6601ce4d3fc32cdecc215186aa90121036394a1cda163dbbeb83d1a2b043a8400714f4b8e01a871dec8231de6c17dcc02", "asm": "304402203528acf7125725d6097eb92ae916d100c2ca83c111d700538cc5dd64a72a0ff502201d75c902cf7c18ed90fd8262cd7f01946ef0d6601ce4d3fc32cdecc215186aa9[ALL] 036394a1cda163dbbeb83d1a2b043a8400714f4b8e01a871dec8231de6c17dcc02"}, "vout": 8, "txid": "c172d2431c5643b2e49011f7b0a939efce5bcc51fcad762ddace69bc8d6f0a9c"}, {"sequence": 4294967295, "scriptSig": {"hex": "483045022100c7920084a685efccfe54efc8e306adfdd527f673e2c84b7f2ec703def3b50e1602200cc39b2f137053d14a95e9304a225f909f118f846f66b0e070b4b7c27f5464cb012102c483663a5c55cdca7a0663fc13f9f10c0e6b5004b49e9e2e311428a3fe49ff53", "asm": "3045022100c7920084a685efccfe54efc8e306adfdd527f673e2c84b7f2ec703def3b50e1602200cc39b2f137053d14a95e9304a225f909f118f846f66b0e070b4b7c27f5464cb[ALL] 02c483663a5c55cdca7a0663fc13f9f10c0e6b5004b49e9e2e311428a3fe49ff53"}, "vout": 3, "txid": "cd10603916be7f8834fdcfde18666795067cdcd7a4b45dfd14e1c608d7433dcb"}, {"sequence": 4294967295, "scriptSig": {"hex": "47304402207bcb71efd4db77fe46da94f547a92cb7884b713edcfa2b757d68ed857878133f02205a4c38c8d4836b98e7eb6be7f71cef085153329123cca3871f57cec757da29770121036ed0e52a5767368b2210cd2ddc38fbd33246228f5b1bea16be210407c3368bfd", "asm": "304402207bcb71efd4db77fe46da94f547a92cb7884b713edcfa2b757d68ed857878133f02205a4c38c8d4836b98e7eb6be7f71cef085153329123cca3871f57cec757da2977[ALL] 036ed0e52a5767368b2210cd2ddc38fbd33246228f5b1bea16be210407c3368bfd"}, "vout": 17, "txid": "d23f74105500dab873a0e7a14d03ae33feeb2bfb0752c35626592acf5edb60da"}, {"sequence": 4294967295, "scriptSig": {"hex": "483045022100e2f6c558ee5b0b40dde7be8f0e79d0930a1389bdb2cd6dbda6aa4f5a255cf21b022026cef4319bee2f7af1af28de8c2c0158ddd11677526670da8e328e52fab1db24012103b8907c1fd9f75628320b959976edc546faf0c7e256db9d2c2a3db414ccd955fb", "asm": "3045022100e2f6c558ee5b0b40dde7be8f0e79d0930a1389bdb2cd6dbda6aa4f5a255cf21b022026cef4319bee2f7af1af28de8c2c0158ddd11677526670da8e328e52fab1db24[ALL] 03b8907c1fd9f75628320b959976edc546faf0c7e256db9d2c2a3db414ccd955fb"}, "vout": 11, "txid": "fa4744dccf55d2ed712ee54aba4e3a4cf294bbf95b21811a166987f90699d1da"}], "txid": "a7bff0c75c4ee29637d86871547318dc7f900c7c00ca834d5eeeb2b0af885916", "blocktime": 1537870928, "version": 1, "confirmations": 11512, "time": 1537870928, "locktime": 0, "vsize": 1077, "size": 1077}