{"hash": "a7c4b962079530b32657652c77f081d9ab82aa005ff0820f004d668e943cbbc3", "blockhash": "0000000000000000001e0dab787dd257d1dbfcb92a98c2207d5e1078be1f4165", "vout": [{"scriptPubKey": {"reqSigs": 1, "hex": "76a914c45b956d7370649165f18c66673b5063524191fc88ac", "addresses": ["1JuF9wry9PDBcKNhtfrCsnun2ZwVCgryv9"], "asm": "OP_DUP OP_HASH160 c45b956d7370649165f18c66673b5063524191fc OP_EQUALVERIFY OP_CHECKSIG", "type": "pubkeyhash"}, "value": 0.00641746, "n": 0}, {"scriptPubKey": {"type": "nulldata", "hex": "6a4c50000077ae0001adaf350a813e09068a8e8f00af6c953dd567cf27e7e3ef3236678a6250975d38637e5e7ea8a59895ad68641c2c5b5baa10f20611f279415e82961d100759d4ba30d2c37bb011d97e02cf", "asm": "OP_RETURN 000077ae0001adaf350a813e09068a8e8f00af6c953dd567cf27e7e3ef3236678a6250975d38637e5e7ea8a59895ad68641c2c5b5baa10f20611f279415e82961d100759d4ba30d2c37bb011d97e02cf"}, "value": 0.0, "n": 1}], "hex": "0100000001295d12018ce7d87b1930465ea639fb78ce96b51fdcebf10ecc86d6edc64b0424000000006a4730440220234cdf64dd9cb2b53bdf73880270ba5de04b766c18a7208d78524b865da3a54f0220695c82022e2d36c47646b7eb902a53f22a5f1ba2dec9e137b471814ac416821a012102a5be9db960ebb5d5b44abbb775e860974fdbc930c4e262cb9af849f53ecf1e82ffffffff02d2ca0900000000001976a914c45b956d7370649165f18c66673b5063524191fc88ac0000000000000000536a4c50000077ae0001adaf350a813e09068a8e8f00af6c953dd567cf27e7e3ef3236678a6250975d38637e5e7ea8a59895ad68641c2c5b5baa10f20611f279415e82961d100759d4ba30d2c37bb011d97e02cf00000000", "vin": [{"sequence": 4294967295, "scriptSig": {"hex": "4730440220234cdf64dd9cb2b53bdf73880270ba5de04b766c18a7208d78524b865da3a54f0220695c82022e2d36c47646b7eb902a53f22a5f1ba2dec9e137b471814ac416821a012102a5be9db960ebb5d5b44abbb775e860974fdbc930c4e262cb9af849f53ecf1e82", "asm": "30440220234cdf64dd9cb2b53bdf73880270ba5de04b766c18a7208d78524b865da3a54f0220695c82022e2d36c47646b7eb902a53f22a5f1ba2dec9e137b471814ac416821a[ALL] 02a5be9db960ebb5d5b44abbb775e860974fdbc930c4e262cb9af849f53ecf1e82"}, "vout": 0, "txid": "24044bc6edd686cc0ef1ebdc1fb596ce78fb39a65e4630197bd8e78c01125d29"}], "txid": "a7c4b962079530b32657652c77f081d9ab82aa005ff0820f004d668e943cbbc3", "blocktime": 1537872475, "version": 1, "confirmations": 11486, "time": 1537872475, "locktime": 0, "vsize": 283, "size": 283}