{"hash": "3d9ae52d6bb55e6d4a62fb64fa5920fb5d94d2c21fcb39f20bf9cefa39ba5b1e", "blockhash": "00000000000000000018f53835495a110e01622372bf6ae95dc86f2b0ab887b0", "vout": [{"scriptPubKey": {"reqSigs": 1, "hex": "a914469b30fe13611b24e933021c37d882eed3f16b1987", "addresses": ["388M8rhr187LXPL45QWoUHc9kPxfvmyXQT"], "asm": "OP_HASH160 469b30fe13611b24e933021c37d882eed3f16b19 OP_EQUAL", "type": "scripthash"}, "value": 0.00835533, "n": 0}, {"scriptPubKey": {"reqSigs": 1, "hex": "00142ecf7902a2a45e3ddd4eb2b57e827fba8630424a", "addresses": ["bc1q9m8hjq4z530rmh2wk26haqnlh2rrqsj2vxw2wu"], "asm": "0 2ecf7902a2a45e3ddd4eb2b57e827fba8630424a", "type": "witness_v0_keyhash"}, "value": 5.169e-05, "n": 1}], "hex": "01000000000101eca9a2bdb4ddd573e4ffc113a4d2d4719243a9944fb321ef57048b6c6e57f0e90000000000ffffffff02cdbf0c000000000017a914469b30fe13611b24e933021c37d882eed3f16b198731140000000000001600142ecf7902a2a45e3ddd4eb2b57e827fba8630424a02483045022100953718af30666cdf0f91764a464fa9df4b8852ae46c13f663809f68b7c9fdad2022039b80f68ec75751c27e53b8c848d1ea06f00252a523895d4090b356af9c9d4ad012102a36bcf900ead016d8178e26c983010c39f32a3eaa0d7af9b443eae57f310876d00000000", "vin": [{"txinwitness": ["3045022100953718af30666cdf0f91764a464fa9df4b8852ae46c13f663809f68b7c9fdad2022039b80f68ec75751c27e53b8c848d1ea06f00252a523895d4090b356af9c9d4ad01", "02a36bcf900ead016d8178e26c983010c39f32a3eaa0d7af9b443eae57f310876d"], "sequence": 4294967295, "scriptSig": {"hex": "", "asm": ""}, "vout": 0, "txid": "e9f0576e6c8b0457ef21b34f94a9439271d4d2a413c1ffe473d5ddb4bda2a9ec"}], "txid": "a7c583125979d301919b716df859b743eba2ea62700f18263028b58e0fd56581", "blocktime": 1537870928, "version": 1, "confirmations": 11513, "time": 1537870928, "locktime": 0, "vsize": 142, "size": 224}