{"hash": "a7c9f2ac026f6e967829c61f6f092bb40fe86ef858526debbb14d8f5e57d5c60", "blockhash": "00000000000000000018f53835495a110e01622372bf6ae95dc86f2b0ab887b0", "vout": [{"scriptPubKey": {"reqSigs": 1, "hex": "76a9145cdccf81bc328c19220cfc4d1f2f44cb03eb0e3488ac", "addresses": ["19U1gqVJxWhChSrdTf7vSgvJUoPkhGFouF"], "asm": "OP_DUP OP_HASH160 5cdccf81bc328c19220cfc4d1f2f44cb03eb0e34 OP_EQUALVERIFY OP_CHECKSIG", "type": "pubkeyhash"}, "value": 0.037, "n": 0}, {"scriptPubKey": {"reqSigs": 1, "hex": "76a9146215ee617b852b00ba090232798ceeece852d30d88ac", "addresses": ["19wdVc3JMrY472WyjEdNup46wVNYq8tfPH"], "asm": "OP_DUP OP_HASH160 6215ee617b852b00ba090232798ceeece852d30d OP_EQUALVERIFY OP_CHECKSIG", "type": "pubkeyhash"}, "value": 0.00376658, "n": 1}], "hex": "0100000001fd8698d0260801289ea1fbdb12418fefcc6beb864281932c026892cc3098d21a100000006b483045022100ebb2dfe894f824de3180febc9e0304a111755eb5daebe2ad52d43609353a87cf022015e5254fa9f016e8fc49a2942405fa5df1dbef989f824da9ab3f0aae15428d41012103ec43952cce4c101c6fc6f5f9673f21c2fb07b7e8f7f6eed889dcc851e51d51caffffffff0220753800000000001976a9145cdccf81bc328c19220cfc4d1f2f44cb03eb0e3488ac52bf0500000000001976a9146215ee617b852b00ba090232798ceeece852d30d88ac00000000", "vin": [{"sequence": 4294967295, "scriptSig": {"hex": "483045022100ebb2dfe894f824de3180febc9e0304a111755eb5daebe2ad52d43609353a87cf022015e5254fa9f016e8fc49a2942405fa5df1dbef989f824da9ab3f0aae15428d41012103ec43952cce4c101c6fc6f5f9673f21c2fb07b7e8f7f6eed889dcc851e51d51ca", "asm": "3045022100ebb2dfe894f824de3180febc9e0304a111755eb5daebe2ad52d43609353a87cf022015e5254fa9f016e8fc49a2942405fa5df1dbef989f824da9ab3f0aae15428d41[ALL] 03ec43952cce4c101c6fc6f5f9673f21c2fb07b7e8f7f6eed889dcc851e51d51ca"}, "vout": 16, "txid": "1ad29830cc9268022c93814286eb6bccef8f4112dbfba19e28010826d09886fd"}], "txid": "a7c9f2ac026f6e967829c61f6f092bb40fe86ef858526debbb14d8f5e57d5c60", "blocktime": 1537870928, "version": 1, "confirmations": 11512, "time": 1537870928, "locktime": 0, "vsize": 226, "size": 226}