{"hash": "a7c99e8987b430eb09c580995283a1b9ef87e9ace200fda0744315dc213af0b3", "blockhash": "0000000000000000001f0ddff1eddb255c1121bcd4da4f1bc9a0da00cae72433", "vout": [{"scriptPubKey": {"reqSigs": 1, "hex": "76a914e4972860ae82ac3e91bf3f9ca211f3c88cbe972b88ac", "addresses": ["1Mqg9Mtk7YDLUyXR8wBb7owMxamnRmTgQr"], "asm": "OP_DUP OP_HASH160 e4972860ae82ac3e91bf3f9ca211f3c88cbe972b OP_EQUALVERIFY OP_CHECKSIG", "type": "pubkeyhash"}, "value": 0.00999632, "n": 0}, {"scriptPubKey": {"reqSigs": 1, "hex": "a914fd31299302de3ccec1fcd3cce662462107fc56aa87", "addresses": ["3QmmmwVFUYeBFYin7hAD6vNrZzAXrREmgy"], "asm": "OP_HASH160 fd31299302de3ccec1fcd3cce662462107fc56aa OP_EQUAL", "type": "scripthash"}, "value": 0.11531181, "n": 1}], "hex": "0200000003090fc07209a395a4808f5a2d7491bfdb95f565bbbfc5aa97074cd4c6331b775b010000006b483045022100b7037abd8ab596f90db5ef5f66849e8867d728d01b4926c1d8003cbd958425cc02205e23840c5f6d3032816c8407b757a0b61fd31e9863dc37c680de05f310075a4601210357ebabfbbe6eff44b2670a4da2c2fe9e5fb7e41b67c4680e6d599c845b60e5c0feffffff2c17e363f5bd33233097613e2b2c81bf7cebf2a3d121a3061bcf12c26fdab052000000006a47304402205bd5ff1a0116ab0690d43ff7a3a1905c8f98bd7299a796fa42105baf9ab73234022019e67cf390e0c791523f2b94b406ab6434147137d7d7dd191159c6358ba19c65012102c694404cfd2cd3855bbd4dba59d0d6d64c6255b51c7610d31e4cb69ba66c7356feffffff9c35bd01c4348c6a53cf39c833a95aa302eefeb8d203a02613c62a86eccc14fc000000006a47304402207b83cfadfacc3cc4b0850ff7715b6f33814ddaa4d7e19e8340b6020273e02f4502205e18d4245211d5cc6e465e2460ca4c69847d69376867f0ad4317f5970656657201210273000bc61a01f9b637bb3c76b71ae0e1e70c25a3e28670152cbd9faccc500218feffffff02d0400f00000000001976a914e4972860ae82ac3e91bf3f9ca211f3c88cbe972b88acadf3af000000000017a914fd31299302de3ccec1fcd3cce662462107fc56aa8710490800", "vin": [{"sequence": 4294967294, "scriptSig": {"hex": "483045022100b7037abd8ab596f90db5ef5f66849e8867d728d01b4926c1d8003cbd958425cc02205e23840c5f6d3032816c8407b757a0b61fd31e9863dc37c680de05f310075a4601210357ebabfbbe6eff44b2670a4da2c2fe9e5fb7e41b67c4680e6d599c845b60e5c0", "asm": "3045022100b7037abd8ab596f90db5ef5f66849e8867d728d01b4926c1d8003cbd958425cc02205e23840c5f6d3032816c8407b757a0b61fd31e9863dc37c680de05f310075a46[ALL] 0357ebabfbbe6eff44b2670a4da2c2fe9e5fb7e41b67c4680e6d599c845b60e5c0"}, "vout": 1, "txid": "5b771b33c6d44c0797aac5bfbb65f595dbbf91742d5a8f80a495a30972c00f09"}, {"sequence": 4294967294, "scriptSig": {"hex": "47304402205bd5ff1a0116ab0690d43ff7a3a1905c8f98bd7299a796fa42105baf9ab73234022019e67cf390e0c791523f2b94b406ab6434147137d7d7dd191159c6358ba19c65012102c694404cfd2cd3855bbd4dba59d0d6d64c6255b51c7610d31e4cb69ba66c7356", "asm": "304402205bd5ff1a0116ab0690d43ff7a3a1905c8f98bd7299a796fa42105baf9ab73234022019e67cf390e0c791523f2b94b406ab6434147137d7d7dd191159c6358ba19c65[ALL] 02c694404cfd2cd3855bbd4dba59d0d6d64c6255b51c7610d31e4cb69ba66c7356"}, "vout": 0, "txid": "52b0da6fc212cf1b06a321d1a3f2eb7cbf812c2b3e6197302333bdf563e3172c"}, {"sequence": 4294967294, "scriptSig": {"hex": "47304402207b83cfadfacc3cc4b0850ff7715b6f33814ddaa4d7e19e8340b6020273e02f4502205e18d4245211d5cc6e465e2460ca4c69847d69376867f0ad4317f5970656657201210273000bc61a01f9b637bb3c76b71ae0e1e70c25a3e28670152cbd9faccc500218", "asm": "304402207b83cfadfacc3cc4b0850ff7715b6f33814ddaa4d7e19e8340b6020273e02f4502205e18d4245211d5cc6e465e2460ca4c69847d69376867f0ad4317f59706566572[ALL] 0273000bc61a01f9b637bb3c76b71ae0e1e70c25a3e28670152cbd9faccc500218"}, "vout": 0, "txid": "fc14ccec862ac61326a003d2b8feee02a35aa933c839cf536a8c34c401bd359c"}], "txid": "a7c99e8987b430eb09c580995283a1b9ef87e9ace200fda0744315dc213af0b3", "blocktime": 1537872018, "version": 2, "confirmations": 11489, "time": 1537872018, "locktime": 542992, "vsize": 518, "size": 518}