{"hash": "87ff6aa4f977a4e43fa3e5c7eb712e5349788ad3aeddc064b53b9660041ab84e", "blockhash": "0000000000000000001f76057863aec43deb6fa401d9628bb513d65a8098bfab", "vout": [{"scriptPubKey": {"reqSigs": 1, "hex": "a9145fdf7ad90e21083cd5ec18d239beae3d9441db5e87", "addresses": ["3ARwqRQKYthmHGc2YYkxiM9gqNPehfPWgC"], "asm": "OP_HASH160 5fdf7ad90e21083cd5ec18d239beae3d9441db5e OP_EQUAL", "type": "scripthash"}, "value": 0.14584516, "n": 0}, {"scriptPubKey": {"reqSigs": 1, "hex": "76a9144986d504d09dc734799905845fd8f833bda3d04c88ac", "addresses": ["17hmrJYbBdr3YwycPo46yUaFE1fQ4KUtLE"], "asm": "OP_DUP OP_HASH160 4986d504d09dc734799905845fd8f833bda3d04c OP_EQUALVERIFY OP_CHECKSIG", "type": "pubkeyhash"}, "value": 0.00215598, "n": 1}], "hex": "0200000000010108c7b7c0c0c644a9e05f807762d82dd007e16c62d6f9ca2b9a3e571453a26fc80000000017160014177642f162f5d60c73bd8df5bae3e5589796bc3afeffffff02c48ade000000000017a9145fdf7ad90e21083cd5ec18d239beae3d9441db5e872e4a0300000000001976a9144986d504d09dc734799905845fd8f833bda3d04c88ac0247304402203ebdf230a233d1c9f0ec99980dd116cc9e93bd7bd191bcee0a50785d348492300220185ec326e4d41934006feebc0206555aca024b8ff16d2ad7bbed7b55530836660121037f0cb59b6aba3d3b35852dad7b7983cc1a43ea9e42357e783ec4d3e7e3e1335114490800", "vin": [{"txinwitness": ["304402203ebdf230a233d1c9f0ec99980dd116cc9e93bd7bd191bcee0a50785d348492300220185ec326e4d41934006feebc0206555aca024b8ff16d2ad7bbed7b555308366601", "037f0cb59b6aba3d3b35852dad7b7983cc1a43ea9e42357e783ec4d3e7e3e13351"], "sequence": 4294967294, "scriptSig": {"hex": "160014177642f162f5d60c73bd8df5bae3e5589796bc3a", "asm": "0014177642f162f5d60c73bd8df5bae3e5589796bc3a"}, "vout": 0, "txid": "c86fa25314573e9a2bcaf9d6626ce107d02dd86277805fe0a944c6c0c0b7c708"}], "txid": "a7ca49ce77b1a727a6248cbd4ad9449c1bdf71fa1efa81e18f117a1b311975bb", "blocktime": 1537873891, "version": 2, "confirmations": 11476, "time": 1537873891, "locktime": 542996, "vsize": 168, "size": 249}