{"hash": "a7d2af75cf4902abf9f46b6178daba19a27bf200aad43ddd6692e369cceddee9", "blockhash": "0000000000000000000baef3f32e3676a92c3b2e5da21b426e4f302fc371ce76", "vout": [{"scriptPubKey": {"reqSigs": 1, "hex": "76a9145fa3da423353ae524c42a369eafd3b8da728de0a88ac", "addresses": ["19ihUuDMS9rSmBKdFqGPYRFMa2YQmLLRnV"], "asm": "OP_DUP OP_HASH160 5fa3da423353ae524c42a369eafd3b8da728de0a OP_EQUALVERIFY OP_CHECKSIG", "type": "pubkeyhash"}, "value": 1.33219463, "n": 0}, {"scriptPubKey": {"reqSigs": 1, "hex": "a9148af94695986de5f9cbd6c14a0af82f068e83a32a87", "addresses": ["3EMqnznFbnWtYz3URDZL55URx7CNhSnwsb"], "asm": "OP_HASH160 8af94695986de5f9cbd6c14a0af82f068e83a32a OP_EQUAL", "type": "scripthash"}, "value": 0.548, "n": 1}], "hex": "0200000001803ceb7b32d7adb3edb3a361d18781f74f9c4b6f507af2af21102d59ed37b9be000000006b483045022100b125cdf7d9e65668b8d9f3467b6876d93e4fffc5b9102fce1c6d90f808d785c702203b1a451d6761b2a09a129a9bae718832301f3fd1713d5bc59fefe33c8e9051040121020d1e184f7ee50eb95aa9b52165963b83ce9aa24ed20aebadc3b810f6d116b456feffffff0287c4f007000000001976a9145fa3da423353ae524c42a369eafd3b8da728de0a88ac802e44030000000017a9148af94695986de5f9cbd6c14a0af82f068e83a32a8717490800", "vin": [{"sequence": 4294967294, "scriptSig": {"hex": "483045022100b125cdf7d9e65668b8d9f3467b6876d93e4fffc5b9102fce1c6d90f808d785c702203b1a451d6761b2a09a129a9bae718832301f3fd1713d5bc59fefe33c8e9051040121020d1e184f7ee50eb95aa9b52165963b83ce9aa24ed20aebadc3b810f6d116b456", "asm": "3045022100b125cdf7d9e65668b8d9f3467b6876d93e4fffc5b9102fce1c6d90f808d785c702203b1a451d6761b2a09a129a9bae718832301f3fd1713d5bc59fefe33c8e905104[ALL] 020d1e184f7ee50eb95aa9b52165963b83ce9aa24ed20aebadc3b810f6d116b456"}, "vout": 0, "txid": "beb937ed592d1021aff27a506f4b9c4ff78187d161a3b3edb3add7327beb3c80"}], "txid": "a7d2af75cf4902abf9f46b6178daba19a27bf200aad43ddd6692e369cceddee9", "blocktime": 1537876114, "version": 2, "confirmations": 11459, "time": 1537876114, "locktime": 542999, "vsize": 224, "size": 224}