{"hash": "a7d3ce5b54ba80edc1a72e0ab43edf4f32d2a12ee90a64fc3f028743b78f9140", "blockhash": "0000000000000000001cda96e906b7601b7a6fb1a3b62bca570a9e5d8f4b3de1", "vout": [{"scriptPubKey": {"reqSigs": 1, "hex": "76a9142bf7b83dd27b2221f2b72f115c094a12587f0d2788ac", "addresses": ["151Up7f18Xd7ji64a98YKrbSwYHwjDa1s6"], "asm": "OP_DUP OP_HASH160 2bf7b83dd27b2221f2b72f115c094a12587f0d27 OP_EQUALVERIFY OP_CHECKSIG", "type": "pubkeyhash"}, "value": 0.00972834, "n": 0}, {"scriptPubKey": {"reqSigs": 1, "hex": "a91447bf0c7af63a8c152780b637ba030f6363c39d1987", "addresses": ["38ENmTr2AD1avJrmmi9iM7PfS6nZVmuMKf"], "asm": "OP_HASH160 47bf0c7af63a8c152780b637ba030f6363c39d19 OP_EQUAL", "type": "scripthash"}, "value": 0.89067496, "n": 1}], "hex": "0100000001d8b69450510f423e0b62e226fd40233cbe72f72b01755557625b62e2a9f239a600000000fd5c0100473044022058b542c9c01eddfbc11bcb9dadd9acbebec5d5f1e5582993e504c5aac48d6768022051078b39b1cc022962da2c995be25c326d4777f386707b4e65b50ae99b2c803a01473044022016c9b6831ec3551cce104044ff850828bd40e7c786241c5bd3d0ed74b06d848402204273fea78b388d921cde34208b04ea89968801bb0c89dd1bd4cb689a99864565014cc9524104f357f15e64159b5991a60a5c19832b776f39c9ce24c8ecfebfdecf4dafb6a130929f7b0fdeeaee1f93626c51b49c08a95ff0b697e5b38b46df979d97fd9e1f8a4104dde3bd2882ff6bc054ac565ea4f3d534b89730615b27d9010fc74d4f226a55d88c6654efa485282260d3efc7cd7cd8af59d63aea603c45c35503936ec97a3b9e410400d9af0340caa4130a9d4b2a4a7d2010e67f2ce68422ff5bfb48a69cf5ff4424a5d6efbd66104af2b7f2e715907a09c49ae8af3b33f634b55d6fca0515f1619c53aeffffffff0222d80e00000000001976a9142bf7b83dd27b2221f2b72f115c094a12587f0d2788ace80f4f050000000017a91447bf0c7af63a8c152780b637ba030f6363c39d198700000000", "vin": [{"sequence": 4294967295, "scriptSig": {"hex": "00473044022058b542c9c01eddfbc11bcb9dadd9acbebec5d5f1e5582993e504c5aac48d6768022051078b39b1cc022962da2c995be25c326d4777f386707b4e65b50ae99b2c803a01473044022016c9b6831ec3551cce104044ff850828bd40e7c786241c5bd3d0ed74b06d848402204273fea78b388d921cde34208b04ea89968801bb0c89dd1bd4cb689a99864565014cc9524104f357f15e64159b5991a60a5c19832b776f39c9ce24c8ecfebfdecf4dafb6a130929f7b0fdeeaee1f93626c51b49c08a95ff0b697e5b38b46df979d97fd9e1f8a4104dde3bd2882ff6bc054ac565ea4f3d534b89730615b27d9010fc74d4f226a55d88c6654efa485282260d3efc7cd7cd8af59d63aea603c45c35503936ec97a3b9e410400d9af0340caa4130a9d4b2a4a7d2010e67f2ce68422ff5bfb48a69cf5ff4424a5d6efbd66104af2b7f2e715907a09c49ae8af3b33f634b55d6fca0515f1619c53ae", "asm": "0 3044022058b542c9c01eddfbc11bcb9dadd9acbebec5d5f1e5582993e504c5aac48d6768022051078b39b1cc022962da2c995be25c326d4777f386707b4e65b50ae99b2c803a[ALL] 3044022016c9b6831ec3551cce104044ff850828bd40e7c786241c5bd3d0ed74b06d848402204273fea78b388d921cde34208b04ea89968801bb0c89dd1bd4cb689a99864565[ALL] 524104f357f15e64159b5991a60a5c19832b776f39c9ce24c8ecfebfdecf4dafb6a130929f7b0fdeeaee1f93626c51b49c08a95ff0b697e5b38b46df979d97fd9e1f8a4104dde3bd2882ff6bc054ac565ea4f3d534b89730615b27d9010fc74d4f226a55d88c6654efa485282260d3efc7cd7cd8af59d63aea603c45c35503936ec97a3b9e410400d9af0340caa4130a9d4b2a4a7d2010e67f2ce68422ff5bfb48a69cf5ff4424a5d6efbd66104af2b7f2e715907a09c49ae8af3b33f634b55d6fca0515f1619c53ae"}, "vout": 0, "txid": "a639f2a9e2625b62575575012bf772be3c2340fd26e2620b3e420f515094b6d8"}], "txid": "a7d3ce5b54ba80edc1a72e0ab43edf4f32d2a12ee90a64fc3f028743b78f9140", "blocktime": 1537873282, "version": 1, "confirmations": 11480, "time": 1537873282, "locktime": 0, "vsize": 467, "size": 467}