{"hash": "0979be7060190b4780efed53111fc47a311db367dc45bfc175b36e5956572126", "blockhash": "0000000000000000001cda96e906b7601b7a6fb1a3b62bca570a9e5d8f4b3de1", "vout": [{"scriptPubKey": {"reqSigs": 1, "hex": "76a914d08ed9016a40758982f0b357454f412c652a8b4588ac", "addresses": ["1L1kg8cyjfUo2QXFyzM6yaJ7fGpddTgJGT"], "asm": "OP_DUP OP_HASH160 d08ed9016a40758982f0b357454f412c652a8b45 OP_EQUALVERIFY OP_CHECKSIG", "type": "pubkeyhash"}, "value": 0.05722444, "n": 0}, {"scriptPubKey": {"reqSigs": 1, "hex": "a914a5c679defd49547b8133a1367eeadbdeaecec3da87", "addresses": ["3GoZBZ6F8g4UiCt7moPNLDX7KKwgtGgLUT"], "asm": "OP_HASH160 a5c679defd49547b8133a1367eeadbdeaecec3da OP_EQUAL", "type": "scripthash"}, "value": 0.33853291, "n": 1}], "hex": "01000000000101e8bc3b1cb90a35fad57d2193d6d99d9cbe708ac8136a068175235b2ad6ab602b01000000232200202d90cd274cea8141a030c0b79acc5b5c0b80b73d028692a1104913808bff6c09ffffffff024c515700000000001976a914d08ed9016a40758982f0b357454f412c652a8b4588ac6b8f04020000000017a914a5c679defd49547b8133a1367eeadbdeaecec3da870400473044022035d05ae1e7ab93852cea509a5d66cbaf3fe56751ba7687587cd04e9678d0753e022011bd4a646751c83a2932331f2c53d4f7eaf60bc1d7cbc251d64fc335cfbc5a970147304402204fca981681916d35e67b5699f60962e36ec4de1f8b82ff7feb7d3172f8c1a74a0220011a5f15012fa4dc71d0fec1a820eab73cecf54dc12086c42c7c130e717b7597014752210295d70c0f10033e6e119fdc61ddd495bfe23995150af6df4688db5bf235f2853b21023e4b58fb2a91970de56515d11487aabd364f0404f1099bef70493cc56002342352ae00000000", "vin": [{"txinwitness": ["", "3044022035d05ae1e7ab93852cea509a5d66cbaf3fe56751ba7687587cd04e9678d0753e022011bd4a646751c83a2932331f2c53d4f7eaf60bc1d7cbc251d64fc335cfbc5a9701", "304402204fca981681916d35e67b5699f60962e36ec4de1f8b82ff7feb7d3172f8c1a74a0220011a5f15012fa4dc71d0fec1a820eab73cecf54dc12086c42c7c130e717b759701", "52210295d70c0f10033e6e119fdc61ddd495bfe23995150af6df4688db5bf235f2853b21023e4b58fb2a91970de56515d11487aabd364f0404f1099bef70493cc56002342352ae"], "sequence": 4294967295, "scriptSig": {"hex": "2200202d90cd274cea8141a030c0b79acc5b5c0b80b73d028692a1104913808bff6c09", "asm": "00202d90cd274cea8141a030c0b79acc5b5c0b80b73d028692a1104913808bff6c09"}, "vout": 1, "txid": "2b60abd62a5b237581066a13c88a70be9c9dd9d693217dd5fa350ab91c3bbce8"}], "txid": "a7d7a11c46833eac31769e234e700becc61b8e75af8c2108ec772501cd5f3965", "blocktime": 1537873282, "version": 1, "confirmations": 11484, "time": 1537873282, "locktime": 0, "vsize": 207, "size": 372}