{"hash": "a7d9e96da2cec21ae6bf2249d7092a81d7bdfa2d965d8033d12760f32d2d2671", "blockhash": "000000000000000000022b45ed06c6f4ccd3cf7fb5ba4856ebd2e58215665228", "vout": [{"scriptPubKey": {"reqSigs": 1, "hex": "76a914099c76a7a736493b4848c698abcf53d427d33feb88ac", "addresses": ["1spX13VR7VyFRn19h1mZAFbkQpjYziNYG"], "asm": "OP_DUP OP_HASH160 099c76a7a736493b4848c698abcf53d427d33feb OP_EQUALVERIFY OP_CHECKSIG", "type": "pubkeyhash"}, "value": 0.009, "n": 0}, {"scriptPubKey": {"reqSigs": 1, "hex": "76a9147f26793c7d4dd56adc580271ead63da7c725ab9688ac", "addresses": ["1CbJuZ7MdwEjfovE2hjTTuqAQcmVgL34tY"], "asm": "OP_DUP OP_HASH160 7f26793c7d4dd56adc580271ead63da7c725ab96 OP_EQUALVERIFY OP_CHECKSIG", "type": "pubkeyhash"}, "value": 0.26120405, "n": 1}], "hex": "0100000001adcdb5fae1cfbaa17df0ee833c5d92ff3d35d4819aa81969f6ddb7a0f08088c4010000006a473044022008bebd3603bf7072458d2527573609cc3f4b7f53e9a975d1dc8d49699ed111c602203e9218d912339465c63fcb0b02cea58a997c13030b923417fed9c42080f8908d012102904f17e9c1ceeae2460aa80d0f95b3998816523d1d2a3d50bbe579b5d058bfbdffffffff02a0bb0d00000000001976a914099c76a7a736493b4848c698abcf53d427d33feb88acd5908e01000000001976a9147f26793c7d4dd56adc580271ead63da7c725ab9688ac00000000", "vin": [{"sequence": 4294967295, "scriptSig": {"hex": "473044022008bebd3603bf7072458d2527573609cc3f4b7f53e9a975d1dc8d49699ed111c602203e9218d912339465c63fcb0b02cea58a997c13030b923417fed9c42080f8908d012102904f17e9c1ceeae2460aa80d0f95b3998816523d1d2a3d50bbe579b5d058bfbd", "asm": "3044022008bebd3603bf7072458d2527573609cc3f4b7f53e9a975d1dc8d49699ed111c602203e9218d912339465c63fcb0b02cea58a997c13030b923417fed9c42080f8908d[ALL] 02904f17e9c1ceeae2460aa80d0f95b3998816523d1d2a3d50bbe579b5d058bfbd"}, "vout": 1, "txid": "c48880f0a0b7ddf66919a89a81d4353dff925d3c83eef07da1bacfe1fab5cdad"}], "txid": "a7d9e96da2cec21ae6bf2249d7092a81d7bdfa2d965d8033d12760f32d2d2671", "blocktime": 1537869901, "version": 1, "confirmations": 11524, "time": 1537869901, "locktime": 0, "vsize": 225, "size": 225}