{"hash": "6ef8a434ee2af237b91e287030646626cd4fd06a89382f22d354eccecfc41dd6", "blockhash": "0000000000000000001f76057863aec43deb6fa401d9628bb513d65a8098bfab", "vout": [{"scriptPubKey": {"reqSigs": 1, "hex": "a914c8948f84ab8bc2187580e4fb86ecf2a0a06e11cf87", "addresses": ["3Kyb35jwJ7YCiAF7JRfW5VZdpyywKap5YB"], "asm": "OP_HASH160 c8948f84ab8bc2187580e4fb86ecf2a0a06e11cf OP_EQUAL", "type": "scripthash"}, "value": 3.887e-05, "n": 0}, {"scriptPubKey": {"reqSigs": 1, "hex": "a9141d7370ccde4590204155e4074f69743a8e4fac0287", "addresses": ["34Njp4ZKtmCDfqqps26wHBYQQGUo2pGkLi"], "asm": "OP_HASH160 1d7370ccde4590204155e4074f69743a8e4fac02 OP_EQUAL", "type": "scripthash"}, "value": 0.00079619, "n": 1}], "hex": "010000000001012a249314f9ea147410dad0393b0ad560d83d491fac6587ce580938fb5d37b6a00100000023220020f63dfc12340f6360d0251c22746d6b56093e3243e96ca012a65484a5d9cf0ec0ffffffff022f0f00000000000017a914c8948f84ab8bc2187580e4fb86ecf2a0a06e11cf87033701000000000017a9141d7370ccde4590204155e4074f69743a8e4fac02870400473044022073161e6c01d6f7fe90437f42456e667a7c07cf429f62c7fbd34dac6fa86ab4cc02204c59c03d2cbcc05893da5cbc7207b4f837486fc0444924c27fdbc4384d428fe50147304402207c6f527d0f0d8ef053ae5a83d42eb3e71b5283c70b0b1ca627f06f081cfd2d4702200f0c9b80d099b4f207845c0c11f1d30a563628099d1da87e8ce54e80719d03f20147522102097067a6a0cc130a9a6f6577b47bf369b840a79de31cd7457187994266b1bb7c2103338f346cab6ba87fe940591a03ac234be06520c5ab386d4b6632e8eef0d0db7652ae00000000", "vin": [{"txinwitness": ["", "3044022073161e6c01d6f7fe90437f42456e667a7c07cf429f62c7fbd34dac6fa86ab4cc02204c59c03d2cbcc05893da5cbc7207b4f837486fc0444924c27fdbc4384d428fe501", "304402207c6f527d0f0d8ef053ae5a83d42eb3e71b5283c70b0b1ca627f06f081cfd2d4702200f0c9b80d099b4f207845c0c11f1d30a563628099d1da87e8ce54e80719d03f201", "522102097067a6a0cc130a9a6f6577b47bf369b840a79de31cd7457187994266b1bb7c2103338f346cab6ba87fe940591a03ac234be06520c5ab386d4b6632e8eef0d0db7652ae"], "sequence": 4294967295, "scriptSig": {"hex": "220020f63dfc12340f6360d0251c22746d6b56093e3243e96ca012a65484a5d9cf0ec0", "asm": "0020f63dfc12340f6360d0251c22746d6b56093e3243e96ca012a65484a5d9cf0ec0"}, "vout": 1, "txid": "a0b6375dfb380958ce8765ac1f493dd860d50a3b39d0da107414eaf91493242a"}], "txid": "a7daa30ad7a040c1be07f85015b46f4e7531d51e74d3bf68613bbc5ad3dd1539", "blocktime": 1537873891, "version": 1, "confirmations": 11478, "time": 1537873891, "locktime": 0, "vsize": 205, "size": 370}