{"hash": "a7e233883302b64330b2cd62b96d078413c27e83769b8cffecd3639759dc4021", "blockhash": "00000000000000000004ffacab907a6b429b9a5745fa0b75af4234bf69dd7176", "vout": [{"scriptPubKey": {"reqSigs": 1, "hex": "76a914f853571628169986646c0de3acc3290c71f3465788ac", "addresses": ["1Pe2R9mxAkyiy7NTr2xZaH9L4EFW7PUTha"], "asm": "OP_DUP OP_HASH160 f853571628169986646c0de3acc3290c71f34657 OP_EQUALVERIFY OP_CHECKSIG", "type": "pubkeyhash"}, "value": 108.36386197, "n": 0}, {"scriptPubKey": {"reqSigs": 1, "hex": "76a914b93031b5a15b200dd85f75e7dade42c8c6dfc07188ac", "addresses": ["1HtBk5a5jgcDpiK3SVEiDiAYTzrvSkK8n6"], "asm": "OP_DUP OP_HASH160 b93031b5a15b200dd85f75e7dade42c8c6dfc071 OP_EQUALVERIFY OP_CHECKSIG", "type": "pubkeyhash"}, "value": 0.00308818, "n": 1}], "hex": "0100000001bc0e6ff137ea99d01b5ad0018d95751cac7d7ef2db9cd1d78c5ff2940b7a44ab010000006b4830450221008df96bf21198990ecb513def6337059ac48b0bc4774e99de9b7c05a9d68affd1022045aab8de8c2671fad352c3fe221c662414fe84d8bfda0928a4304db1668bc0ac012102e2daf162d93640d3785254176f12315989f353956a1364e5653063441db7e7efffffffff029521e685020000001976a914f853571628169986646c0de3acc3290c71f3465788ac52b60400000000001976a914b93031b5a15b200dd85f75e7dade42c8c6dfc07188ac00000000", "vin": [{"sequence": 4294967295, "scriptSig": {"hex": "4830450221008df96bf21198990ecb513def6337059ac48b0bc4774e99de9b7c05a9d68affd1022045aab8de8c2671fad352c3fe221c662414fe84d8bfda0928a4304db1668bc0ac012102e2daf162d93640d3785254176f12315989f353956a1364e5653063441db7e7ef", "asm": "30450221008df96bf21198990ecb513def6337059ac48b0bc4774e99de9b7c05a9d68affd1022045aab8de8c2671fad352c3fe221c662414fe84d8bfda0928a4304db1668bc0ac[ALL] 02e2daf162d93640d3785254176f12315989f353956a1364e5653063441db7e7ef"}, "vout": 1, "txid": "ab447a0b94f25f8cd7d19cdbf27e7dac1c75958d01d05a1bd099ea37f16f0ebc"}], "txid": "a7e233883302b64330b2cd62b96d078413c27e83769b8cffecd3639759dc4021", "blocktime": 1537875543, "version": 1, "confirmations": 11464, "time": 1537875543, "locktime": 0, "vsize": 226, "size": 226}