{"hash": "416d3efc75cd20d8d61d3b1c700bd2bfceae3983381a16a5c3b48833d8844788", "blockhash": "0000000000000000001f76057863aec43deb6fa401d9628bb513d65a8098bfab", "vout": [{"scriptPubKey": {"reqSigs": 1, "hex": "76a91488f5b42a07a83b7c9f4aaf04eb75c6e28f58f71488ac", "addresses": ["1DVBEtPCgpE3tX1YxsoH5Gb839iy3ysUqF"], "asm": "OP_DUP OP_HASH160 88f5b42a07a83b7c9f4aaf04eb75c6e28f58f714 OP_EQUALVERIFY OP_CHECKSIG", "type": "pubkeyhash"}, "value": 0.02108575, "n": 0}, {"scriptPubKey": {"reqSigs": 1, "hex": "0014d85a3becddba6d78b4cd7e36f59e20dd08de0db2", "addresses": ["bc1qmpdrhmxahfkh3dxd0cm0t83qm5ydurdjr9dfcw"], "asm": "0 d85a3becddba6d78b4cd7e36f59e20dd08de0db2", "type": "witness_v0_keyhash"}, "value": 0.00262059, "n": 1}], "hex": "010000000001013881a5a21a473dc358129aa151efd9ec218c8bf0d18e141c3e1dd320b3d486d40000000000ffffffff029f2c2000000000001976a91488f5b42a07a83b7c9f4aaf04eb75c6e28f58f71488acabff030000000000160014d85a3becddba6d78b4cd7e36f59e20dd08de0db20247304402205c5eed2d4543fbc77728fa67ade1afab6f3350e8663c6056326f57b36e20a3b00220613db265ae8a36950e04d67507c94aeb015dd964c89c9d134cac721024f90141012103d32bc056c469dc9332de24edc9ca1de0583cf8ee292d3b52f3d37b1c1713bef400000000", "vin": [{"txinwitness": ["304402205c5eed2d4543fbc77728fa67ade1afab6f3350e8663c6056326f57b36e20a3b00220613db265ae8a36950e04d67507c94aeb015dd964c89c9d134cac721024f9014101", "03d32bc056c469dc9332de24edc9ca1de0583cf8ee292d3b52f3d37b1c1713bef4"], "sequence": 4294967295, "scriptSig": {"hex": "", "asm": ""}, "vout": 0, "txid": "d486d4b320d31d3e1c148ed1f08b8c21ecd9ef51a19a1258c33d471aa2a58138"}], "txid": "a7e3c570d46b399bfe9c0aa3c94d14db95541d88c10ac3e94a2fd183454deb0e", "blocktime": 1537873891, "version": 1, "confirmations": 11478, "time": 1537873891, "locktime": 0, "vsize": 144, "size": 225}