{"hash": "a7e585162307a600d6a24a33d6f50e7a6d45762dae1003bf3535304d1819403d", "blockhash": "0000000000000000001f0ddff1eddb255c1121bcd4da4f1bc9a0da00cae72433", "vout": [{"scriptPubKey": {"reqSigs": 1, "hex": "a914ff0d308df6558208420a087105f9d88a7f5a7c4c87", "addresses": ["3Qwc2tqdTcXGMVrwHEz4Xaa3TUGSzeEjHM"], "asm": "OP_HASH160 ff0d308df6558208420a087105f9d88a7f5a7c4c OP_EQUAL", "type": "scripthash"}, "value": 0.04836, "n": 0}, {"scriptPubKey": {"reqSigs": 1, "hex": "76a914b8443ff6a21ae1b19a510244c305dc894848586088ac", "addresses": ["1HoK6P3KmFK6aaTGjYvu4Hr8p2f1d9L7mY"], "asm": "OP_DUP OP_HASH160 b8443ff6a21ae1b19a510244c305dc8948485860 OP_EQUALVERIFY OP_CHECKSIG", "type": "pubkeyhash"}, "value": 0.30856208, "n": 1}], "hex": "0100000001b6d03e3ddc82bd8845049d8888c42609f3e3018d72fff1cade5cdfa9c8c56997010000006b483045022100a552eb3f2dfdb2d8362e4b2ca8d4764333968b475aee30132f9c5d2ac4019c33022007b30d43386c21336840c6626d74c5f50f9bdbd955753f1ee5b4bba8f6b4eba10121036824b57cc0b6f2b3d57e8489ed7f0bcbc69ed98867786ef79e500d15ba871efaffffffff02a0ca49000000000017a914ff0d308df6558208420a087105f9d88a7f5a7c4c8710d4d601000000001976a914b8443ff6a21ae1b19a510244c305dc894848586088ac00000000", "vin": [{"sequence": 4294967295, "scriptSig": {"hex": "483045022100a552eb3f2dfdb2d8362e4b2ca8d4764333968b475aee30132f9c5d2ac4019c33022007b30d43386c21336840c6626d74c5f50f9bdbd955753f1ee5b4bba8f6b4eba10121036824b57cc0b6f2b3d57e8489ed7f0bcbc69ed98867786ef79e500d15ba871efa", "asm": "3045022100a552eb3f2dfdb2d8362e4b2ca8d4764333968b475aee30132f9c5d2ac4019c33022007b30d43386c21336840c6626d74c5f50f9bdbd955753f1ee5b4bba8f6b4eba1[ALL] 036824b57cc0b6f2b3d57e8489ed7f0bcbc69ed98867786ef79e500d15ba871efa"}, "vout": 1, "txid": "9769c5c8a9df5cdecaf1ff728d01e3f30926c488889d044588bd82dc3d3ed0b6"}], "txid": "a7e585162307a600d6a24a33d6f50e7a6d45762dae1003bf3535304d1819403d", "blocktime": 1537872018, "version": 1, "confirmations": 11489, "time": 1537872018, "locktime": 0, "vsize": 224, "size": 224}