{"hash": "a7efc98949a3e60f4d2d84d4325dad5dc67dbc994004ea7938d78969a7d64fe7", "blockhash": "0000000000000000000baef3f32e3676a92c3b2e5da21b426e4f302fc371ce76", "vout": [{"scriptPubKey": {"reqSigs": 1, "hex": "a914c8bb822fbc4a01c55df207f46fe5350d0d3fbba787", "addresses": ["3KzPhEPZNArhkBb39ERrgDi9gog7T4hftC"], "asm": "OP_HASH160 c8bb822fbc4a01c55df207f46fe5350d0d3fbba7 OP_EQUAL", "type": "scripthash"}, "value": 0.02994, "n": 0}, {"scriptPubKey": {"reqSigs": 1, "hex": "76a9149508e252289bde244f0824c8d6e1b186b0f3d26c88ac", "addresses": ["1Eb2KrntidZDJkf8vBxwpwwcR91Ysp3jY8"], "asm": "OP_DUP OP_HASH160 9508e252289bde244f0824c8d6e1b186b0f3d26c OP_EQUALVERIFY OP_CHECKSIG", "type": "pubkeyhash"}, "value": 0.0151172, "n": 1}], "hex": "02000000025bd305780b6a3e711c816262d861f4b4707795c743f5eccacaeda93bb43ed288010000006b483045022100c3eb1bbf810b26fb40076908768e9260bf0b0e75532e8690a38e211dca51ac1002207117ba760db2304af46786f3d80c6b4ac5b5b810bf64c4628e29227f0a060032012102de587de4b920d97adf82462ffbd4cbf1c76e7bc241c32e6da1c5663bbb9a7b9efeffffffb67ce0ccadea875a7c3d111ffa15938eeb18c258f742e16eb0b82ffeccb91bab000000006a47304402201ac3949b39786ca2107f556ee47336088b2c5f19fa8d8f7357bb109bae88dfa2022018e62de1ede3b276287b4ad3ca05cafb6c4b927d1cc0f9ec283b11aa05025f21012102bbdf66e36d70498f381b63bdee1dc0f4897ef712875418d6cfd6dad947b7909cfeffffff0250af2d000000000017a914c8bb822fbc4a01c55df207f46fe5350d0d3fbba78728111700000000001976a9149508e252289bde244f0824c8d6e1b186b0f3d26c88ac17490800", "vin": [{"sequence": 4294967294, "scriptSig": {"hex": "483045022100c3eb1bbf810b26fb40076908768e9260bf0b0e75532e8690a38e211dca51ac1002207117ba760db2304af46786f3d80c6b4ac5b5b810bf64c4628e29227f0a060032012102de587de4b920d97adf82462ffbd4cbf1c76e7bc241c32e6da1c5663bbb9a7b9e", "asm": "3045022100c3eb1bbf810b26fb40076908768e9260bf0b0e75532e8690a38e211dca51ac1002207117ba760db2304af46786f3d80c6b4ac5b5b810bf64c4628e29227f0a060032[ALL] 02de587de4b920d97adf82462ffbd4cbf1c76e7bc241c32e6da1c5663bbb9a7b9e"}, "vout": 1, "txid": "88d23eb43ba9edcacaecf543c7957770b4f461d86262811c713e6a0b7805d35b"}, {"sequence": 4294967294, "scriptSig": {"hex": "47304402201ac3949b39786ca2107f556ee47336088b2c5f19fa8d8f7357bb109bae88dfa2022018e62de1ede3b276287b4ad3ca05cafb6c4b927d1cc0f9ec283b11aa05025f21012102bbdf66e36d70498f381b63bdee1dc0f4897ef712875418d6cfd6dad947b7909c", "asm": "304402201ac3949b39786ca2107f556ee47336088b2c5f19fa8d8f7357bb109bae88dfa2022018e62de1ede3b276287b4ad3ca05cafb6c4b927d1cc0f9ec283b11aa05025f21[ALL] 02bbdf66e36d70498f381b63bdee1dc0f4897ef712875418d6cfd6dad947b7909c"}, "vout": 0, "txid": "ab1bb9ccfe2fb8b06ee142f758c218eb8e9315fa1f113d7c5a87eaadcce07cb6"}], "txid": "a7efc98949a3e60f4d2d84d4325dad5dc67dbc994004ea7938d78969a7d64fe7", "blocktime": 1537876114, "version": 2, "confirmations": 11459, "time": 1537876114, "locktime": 542999, "vsize": 371, "size": 371}