{"hash": "a7f3051d6cca461a2498d72ad96d374c4c1164ba9b8501940ba7f6add161c7b1", "blockhash": "0000000000000000001cda96e906b7601b7a6fb1a3b62bca570a9e5d8f4b3de1", "vout": [{"scriptPubKey": {"reqSigs": 1, "hex": "76a914d833f26e33422f63c1e99811ddc9bc76bed311cc88ac", "addresses": ["1LiBBmzmBvpnZ3scF6K6TnMXBRs7VwJGv8"], "asm": "OP_DUP OP_HASH160 d833f26e33422f63c1e99811ddc9bc76bed311cc OP_EQUALVERIFY OP_CHECKSIG", "type": "pubkeyhash"}, "value": 0.00029041, "n": 0}, {"scriptPubKey": {"reqSigs": 1, "hex": "76a914cf0387b56a503ac290b3c816d6a077056807374788ac", "addresses": ["1Ksb6z9oDAirGn8YPte1cRLWbmkDgw821b"], "asm": "OP_DUP OP_HASH160 cf0387b56a503ac290b3c816d6a0770568073747 OP_EQUALVERIFY OP_CHECKSIG", "type": "pubkeyhash"}, "value": 0.00718246, "n": 1}], "hex": "01000000015737fa303db68538f01c26b2c9df9e4bd9a63a42efaf0b93ac5c2deb37285d95020000006a473044022043299f4b4ac4657c4e3a3f879cefc1d8d13521546f1e8711e6660f3f2ba6723c022053273f2c9c9acea4a9a8e73d55ec27a4e31d85d43d24b1da133d5feaedec100a012103ba6a48562ef22084c871389c24630e73f720e85c157acc230e5ac855112d8c04ffffffff0271710000000000001976a914d833f26e33422f63c1e99811ddc9bc76bed311cc88aca6f50a00000000001976a914cf0387b56a503ac290b3c816d6a077056807374788ac00000000", "vin": [{"sequence": 4294967295, "scriptSig": {"hex": "473044022043299f4b4ac4657c4e3a3f879cefc1d8d13521546f1e8711e6660f3f2ba6723c022053273f2c9c9acea4a9a8e73d55ec27a4e31d85d43d24b1da133d5feaedec100a012103ba6a48562ef22084c871389c24630e73f720e85c157acc230e5ac855112d8c04", "asm": "3044022043299f4b4ac4657c4e3a3f879cefc1d8d13521546f1e8711e6660f3f2ba6723c022053273f2c9c9acea4a9a8e73d55ec27a4e31d85d43d24b1da133d5feaedec100a[ALL] 03ba6a48562ef22084c871389c24630e73f720e85c157acc230e5ac855112d8c04"}, "vout": 2, "txid": "955d2837eb2d5cac930bafef423aa6d94b9edfc9b2261cf03885b63d30fa3757"}], "txid": "a7f3051d6cca461a2498d72ad96d374c4c1164ba9b8501940ba7f6add161c7b1", "blocktime": 1537873282, "version": 1, "confirmations": 11485, "time": 1537873282, "locktime": 0, "vsize": 225, "size": 225}