{"hash": "a7f983cb240e1ae0f36a836466dc908eb3864ccca6b56afcd396f6f2a9e77150", "blockhash": "00000000000000000004ffacab907a6b429b9a5745fa0b75af4234bf69dd7176", "vout": [{"scriptPubKey": {"reqSigs": 1, "hex": "76a914d243e6abb9a60fbff430b421d2df4b7d59ec186088ac", "addresses": ["1LAnF8h3qMGx3TSwNUHVneBZUEpwE4gu3D"], "asm": "OP_DUP OP_HASH160 d243e6abb9a60fbff430b421d2df4b7d59ec1860 OP_EQUALVERIFY OP_CHECKSIG", "type": "pubkeyhash"}, "value": 0.00077314, "n": 0}, {"scriptPubKey": {"reqSigs": 1, "hex": "76a91464c0fcaeb58148a11d215df464e1206576b1feca88ac", "addresses": ["1ABjmA9Z8JH9ATUfiPbuToqMxZUgu4Pwpa"], "asm": "OP_DUP OP_HASH160 64c0fcaeb58148a11d215df464e1206576b1feca OP_EQUALVERIFY OP_CHECKSIG", "type": "pubkeyhash"}, "value": 5.46e-06, "n": 1}, {"scriptPubKey": {"type": "nulldata", "hex": "6a146f6d6e69000000000000001f0000000590b83db0", "asm": "OP_RETURN 6f6d6e69000000000000001f0000000590b83db0"}, "value": 0.0, "n": 2}], "hex": "0100000001a2095a7d1bb5506cbb43a19c8a4c0a9fa70aeb7c866b028ce2c116346174f503000000006a47304402200ce67f007ea1d0fe5007f86b99d3530d1c90953dff60436a26d4e0350c798ec0022064727b976f21ff9e339b5bbdec531cafc815ce29668443b2eba4518e2fab9c4401210271977291b74f1f5f5c42157e8aae804664eaaeccfd097918450d37f28fb94d77ffffffff03022e0100000000001976a914d243e6abb9a60fbff430b421d2df4b7d59ec186088ac22020000000000001976a91464c0fcaeb58148a11d215df464e1206576b1feca88ac0000000000000000166a146f6d6e69000000000000001f0000000590b83db000000000", "vin": [{"sequence": 4294967295, "scriptSig": {"hex": "47304402200ce67f007ea1d0fe5007f86b99d3530d1c90953dff60436a26d4e0350c798ec0022064727b976f21ff9e339b5bbdec531cafc815ce29668443b2eba4518e2fab9c4401210271977291b74f1f5f5c42157e8aae804664eaaeccfd097918450d37f28fb94d77", "asm": "304402200ce67f007ea1d0fe5007f86b99d3530d1c90953dff60436a26d4e0350c798ec0022064727b976f21ff9e339b5bbdec531cafc815ce29668443b2eba4518e2fab9c44[ALL] 0271977291b74f1f5f5c42157e8aae804664eaaeccfd097918450d37f28fb94d77"}, "vout": 0, "txid": "03f574613416c1e28c026b867ceb0aa79f0a4c8a9ca143bb6c50b51b7d5a09a2"}], "txid": "a7f983cb240e1ae0f36a836466dc908eb3864ccca6b56afcd396f6f2a9e77150", "blocktime": 1537875543, "version": 1, "confirmations": 11464, "time": 1537875543, "locktime": 0, "vsize": 256, "size": 256}