{"hash": "a7f934d7587898b187c4c298c247411c280fcd658b170151e9685a61ba9e119a", "blockhash": "0000000000000000000dcc0f55137456b1a82d3642486a52398922ac4d620174", "vout": [{"scriptPubKey": {"type": "nulldata", "hex": "6a4c500000777100019fbb6c1945afd4bd7a07a7d486aeaeacb577c031fc3a016b46dc7dc7d096d57b0044fceeaf2ace887a27c80c775a5baa090606140e7084a7707d1d100759d4ba30d2c37bb011d97e02cf", "asm": "OP_RETURN 0000777100019fbb6c1945afd4bd7a07a7d486aeaeacb577c031fc3a016b46dc7dc7d096d57b0044fceeaf2ace887a27c80c775a5baa090606140e7084a7707d1d100759d4ba30d2c37bb011d97e02cf"}, "value": 0.0, "n": 0}, {"scriptPubKey": {"reqSigs": 1, "hex": "76a9145cecf6793982b17ef09563c51e5d3d902b91cf7d88ac", "addresses": ["19UM37U5Wjt5ztKWFdjRg2AYFXL9h3jhNg"], "asm": "OP_DUP OP_HASH160 5cecf6793982b17ef09563c51e5d3d902b91cf7d OP_EQUALVERIFY OP_CHECKSIG", "type": "pubkeyhash"}, "value": 0.00647341, "n": 1}], "hex": "010000000177a10c6dcea3d7f7eb1a8785af3e9bd4c05fec623236c8325c727a52522d4ac1010000006b483045022100c516ee18525fc24304964b6606ffcff479c785ff7386d8cf846bee06d4e9e77c022001aea04af1e29d8c91854e095a562ccd5fb02d928da6ba9b64913488093badcd0121036bd12fd3e1ffd0bb677b3312468c04d769bbd26dff877d46a0c37eb67d884791ffffffff020000000000000000536a4c500000777100019fbb6c1945afd4bd7a07a7d486aeaeacb577c031fc3a016b46dc7dc7d096d57b0044fceeaf2ace887a27c80c775a5baa090606140e7084a7707d1d100759d4ba30d2c37bb011d97e02cfade00900000000001976a9145cecf6793982b17ef09563c51e5d3d902b91cf7d88ac00000000", "vin": [{"sequence": 4294967295, "scriptSig": {"hex": "483045022100c516ee18525fc24304964b6606ffcff479c785ff7386d8cf846bee06d4e9e77c022001aea04af1e29d8c91854e095a562ccd5fb02d928da6ba9b64913488093badcd0121036bd12fd3e1ffd0bb677b3312468c04d769bbd26dff877d46a0c37eb67d884791", "asm": "3045022100c516ee18525fc24304964b6606ffcff479c785ff7386d8cf846bee06d4e9e77c022001aea04af1e29d8c91854e095a562ccd5fb02d928da6ba9b64913488093badcd[ALL] 036bd12fd3e1ffd0bb677b3312468c04d769bbd26dff877d46a0c37eb67d884791"}, "vout": 1, "txid": "c14a2d52527a725c32c8363262ec5fc0d49b3eaf85871aebf7d7a3ce6d0ca177"}], "txid": "a7f934d7587898b187c4c298c247411c280fcd658b170151e9685a61ba9e119a", "blocktime": 1537870268, "version": 1, "confirmations": 11518, "time": 1537870268, "locktime": 0, "vsize": 284, "size": 284}