{"hash": "a804d4c4d249738764aad38c333129f09f3d971a46c46409d4485f2d05594b31", "blockhash": "0000000000000000000dcc0f55137456b1a82d3642486a52398922ac4d620174", "vout": [{"scriptPubKey": {"reqSigs": 1, "hex": "a91481ce4bb4eed0473dfdb23737c5d9e49fb8773f8f87", "addresses": ["3DXNDy88kP17pQv26DKW6FBUAAcXR7p1tu"], "asm": "OP_HASH160 81ce4bb4eed0473dfdb23737c5d9e49fb8773f8f OP_EQUAL", "type": "scripthash"}, "value": 0.01846282, "n": 0}], "hex": "01000000012350060516c9c775f78bd78a4f04eb8675a2630238fdd274970eb712a3c3aa4a100000006b483045022100ee3ecdc84d0628a7f31f853198a9daa96a38c6ed9e0c05cc6e28cddff46023b502207d988ad1c8f6cc3bd45f939e8f461bf64ff9bac8682ac68cfee893f63c04ba5e012103d7d4491f0b8b58c624e11f9f2018ab397abc5361a6cf53e2250a5e67b6dca3e7fdffffff010a2c1c000000000017a91481ce4bb4eed0473dfdb23737c5d9e49fb8773f8f870c490800", "vin": [{"sequence": 4294967293, "scriptSig": {"hex": "483045022100ee3ecdc84d0628a7f31f853198a9daa96a38c6ed9e0c05cc6e28cddff46023b502207d988ad1c8f6cc3bd45f939e8f461bf64ff9bac8682ac68cfee893f63c04ba5e012103d7d4491f0b8b58c624e11f9f2018ab397abc5361a6cf53e2250a5e67b6dca3e7", "asm": "3045022100ee3ecdc84d0628a7f31f853198a9daa96a38c6ed9e0c05cc6e28cddff46023b502207d988ad1c8f6cc3bd45f939e8f461bf64ff9bac8682ac68cfee893f63c04ba5e[ALL] 03d7d4491f0b8b58c624e11f9f2018ab397abc5361a6cf53e2250a5e67b6dca3e7"}, "vout": 16, "txid": "4aaac3a312b70e9774d2fd380263a27586eb044f8ad78bf775c7c91605065023"}], "txid": "a804d4c4d249738764aad38c333129f09f3d971a46c46409d4485f2d05594b31", "blocktime": 1537870268, "version": 1, "confirmations": 11518, "time": 1537870268, "locktime": 542988, "vsize": 190, "size": 190}