{"hash": "f87370660f63ce3ba513c8e81711626e32ce647c4d3a729f358ddee7a16dda27", "blockhash": "0000000000000000000e13cef7c366c0283d82e591d1acd082e914b08063cdf1", "vout": [{"scriptPubKey": {"reqSigs": 1, "hex": "a914a913207ba4f60b5baa580e116bdb7fac664c8aba87", "addresses": ["3H712vTUFSKFL1asBo96RqrMwggNU2irpF"], "asm": "OP_HASH160 a913207ba4f60b5baa580e116bdb7fac664c8aba OP_EQUAL", "type": "scripthash"}, "value": 0.0013436, "n": 0}, {"scriptPubKey": {"reqSigs": 1, "hex": "a914e555eeae6c2c86e9330a754bd6623d7954e145ca87", "addresses": ["3NbdcA55Fj1EYQW7DfzGhaeid5Em6jdxGn"], "asm": "OP_HASH160 e555eeae6c2c86e9330a754bd6623d7954e145ca OP_EQUAL", "type": "scripthash"}, "value": 0.01010473, "n": 1}], "hex": "020000000001027e34b2b2535928ecd84f7f358303b6a12b15e547e85148ed0821fe68a1c97cc80100000017160014e27855dbfc1fd04430f06c42a09561815ca2bbd1feffffffb2514191ce350d999d4e428e94bbf2ec633df38bc29dfc5c971be41d8cd942dd02000000171600144e4bdd3dd98d793bffd36845327ee09f7d780e56feffffff02d80c02000000000017a914a913207ba4f60b5baa580e116bdb7fac664c8aba87296b0f000000000017a914e555eeae6c2c86e9330a754bd6623d7954e145ca87024730440220252db13903c779dd5ec272f251af6063de0610dffca8fd7efc78ff40b5c7963102202d25473ae7418821ff6904973d646e8fd4411582faa310b29ebea399150a728b012102218963537e300c2cc92233bbb93e0c6d69bbdea7522ac64c8c0e30c25ec650a90247304402201236a76aee6973471cab31149aa8a245002b02fa0c7e609c7f2c484868e7ddb802200bab161d0d82f2ebd92f7feff92bf5999b72895eaff54a07f54d72cfe13bdaeb012102c4255bcccbac704d01fd02b0fea9d7bb2559540cccb930d8d5390d2c7f11afae10490800", "vin": [{"txinwitness": ["30440220252db13903c779dd5ec272f251af6063de0610dffca8fd7efc78ff40b5c7963102202d25473ae7418821ff6904973d646e8fd4411582faa310b29ebea399150a728b01", "02218963537e300c2cc92233bbb93e0c6d69bbdea7522ac64c8c0e30c25ec650a9"], "sequence": 4294967294, "scriptSig": {"hex": "160014e27855dbfc1fd04430f06c42a09561815ca2bbd1", "asm": "0014e27855dbfc1fd04430f06c42a09561815ca2bbd1"}, "vout": 1, "txid": "c87cc9a168fe2108ed4851e847e5152ba1b60383357f4fd8ec285953b2b2347e"}, {"txinwitness": ["304402201236a76aee6973471cab31149aa8a245002b02fa0c7e609c7f2c484868e7ddb802200bab161d0d82f2ebd92f7feff92bf5999b72895eaff54a07f54d72cfe13bdaeb01", "02c4255bcccbac704d01fd02b0fea9d7bb2559540cccb930d8d5390d2c7f11afae"], "sequence": 4294967294, "scriptSig": {"hex": "1600144e4bdd3dd98d793bffd36845327ee09f7d780e56", "asm": "00144e4bdd3dd98d793bffd36845327ee09f7d780e56"}, "vout": 2, "txid": "dd42d98c1de41b975cfc9dc28bf33d63ecf2bb948e424e9d990d35ce914151b2"}], "txid": "a8051954f842b5ec866d242c89e4883dff5d9c8798a9d064db27a3d623b1375d", "blocktime": 1537871767, "version": 2, "confirmations": 11495, "time": 1537871767, "locktime": 542992, "vsize": 256, "size": 418}