{"hash": "dc03ec69e37264d972946ff27161824df8b2c259535b68f49370dc8d24ce5b22", "blockhash": "00000000000000000018f53835495a110e01622372bf6ae95dc86f2b0ab887b0", "vout": [{"scriptPubKey": {"reqSigs": 1, "hex": "a9149a8cf3daa5a70f0c4f70f154332b635985d6a92887", "addresses": ["3FnCqe86Bo1Z4ryDy1MmMpWygskwCuXJaY"], "asm": "OP_HASH160 9a8cf3daa5a70f0c4f70f154332b635985d6a928 OP_EQUAL", "type": "scripthash"}, "value": 0.006577, "n": 0}, {"scriptPubKey": {"reqSigs": 1, "hex": "a914c07e770354fad0dea9bb1cbedf02d454ab6ee99287", "addresses": ["3KEqAJwUzdqCjgNvuAhAnP74VcLwEtLz1P"], "asm": "OP_HASH160 c07e770354fad0dea9bb1cbedf02d454ab6ee992 OP_EQUAL", "type": "scripthash"}, "value": 0.1032634, "n": 1}], "hex": "01000000000101bdc12fdff630e2e4c3620636a3bff3ef6be3903493ca6338c6751c395d56ebd9000000002322002069cc1818288567c98560aa023480d44b924ac13dd7762b81b302c5ffa82c89d5ffffffff0224090a000000000017a9149a8cf3daa5a70f0c4f70f154332b635985d6a9288744919d000000000017a914c07e770354fad0dea9bb1cbedf02d454ab6ee992870400473044022011e7b96fd7dbbee045b388e115ae9a3914c269ebf4d1a6de78bfbd7ea9c1770802205926b21a6c14ff01decfc78a1a8c3e92ccf1f93f2cb7cb90062a625d70a1f96601473044022003db1c2d3243ba5371987bee6a64371f012a445413e85f86201e46ce31721a35022057035e19c1f3b862c14dc0d2b0554232b5a30d8077a79281860a32ef78995fa70169522103b7fd2b306e5ebfa2b392bfdf46fb50160f845721aacd1867a6b23e094147c08a2102fa506454fa44a6d02774949ae1d2bd0f79f06b013ab42002ee9b7ea16d6935cf210234dc5ae545e333b633b7666945fcd5b1ee1620fe50e3edeedc97dc42ad9f64b153ae0f490800", "vin": [{"txinwitness": ["", "3044022011e7b96fd7dbbee045b388e115ae9a3914c269ebf4d1a6de78bfbd7ea9c1770802205926b21a6c14ff01decfc78a1a8c3e92ccf1f93f2cb7cb90062a625d70a1f96601", "3044022003db1c2d3243ba5371987bee6a64371f012a445413e85f86201e46ce31721a35022057035e19c1f3b862c14dc0d2b0554232b5a30d8077a79281860a32ef78995fa701", "522103b7fd2b306e5ebfa2b392bfdf46fb50160f845721aacd1867a6b23e094147c08a2102fa506454fa44a6d02774949ae1d2bd0f79f06b013ab42002ee9b7ea16d6935cf210234dc5ae545e333b633b7666945fcd5b1ee1620fe50e3edeedc97dc42ad9f64b153ae"], "sequence": 4294967295, "scriptSig": {"hex": "22002069cc1818288567c98560aa023480d44b924ac13dd7762b81b302c5ffa82c89d5", "asm": "002069cc1818288567c98560aa023480d44b924ac13dd7762b81b302c5ffa82c89d5"}, "vout": 0, "txid": "d9eb565d391c75c63863ca933490e36beff3bfa3360662c3e4e230f6df2fc1bd"}], "txid": "a80ce946835e95513288ee8de86e21046dc73bb70aaf274f750e86c05db5154b", "blocktime": 1537870928, "version": 1, "confirmations": 11512, "time": 1537870928, "locktime": 542991, "vsize": 214, "size": 404}