{"hash": "9811004c4297ed19d49d3fbb8be995752e5a4523614c6b603bc126de4da20839", "blockhash": "00000000000000000018f53835495a110e01622372bf6ae95dc86f2b0ab887b0", "vout": [{"scriptPubKey": {"reqSigs": 1, "hex": "a914d1295dbe221aaed9e9f3555d62f7b259d028d96187", "addresses": ["3LkxhosvBcxH4SPn7y57QwLio72eJ8Fi1a"], "asm": "OP_HASH160 d1295dbe221aaed9e9f3555d62f7b259d028d961 OP_EQUAL", "type": "scripthash"}, "value": 0.02649956, "n": 0}, {"scriptPubKey": {"reqSigs": 1, "hex": "00149ff1f061e2e9e572691fb9745f6733a22df406ce", "addresses": ["bc1qnlclqc0za8jhy6glh9697een5gklgpkweave4q"], "asm": "0 9ff1f061e2e9e572691fb9745f6733a22df406ce", "type": "witness_v0_keyhash"}, "value": 0.16976895, "n": 1}], "hex": "010000000001011bf6a24c5ccfea442dcbbe3594a4b8c44786dda36379940c3b8a59c65a6e9cd40000000017160014cf68021b12b5be674cfce0a439eae20348147fa3ffffffff02646f28000000000017a914d1295dbe221aaed9e9f3555d62f7b259d028d96187ff0b0301000000001600149ff1f061e2e9e572691fb9745f6733a22df406ce02483045022100a9d4deaa901b38acf02022e190194ec26d5e24091349b8bdd7ab5b08dce6af3f02200832977ac0524577f64c4b79af49a82068e9895bec57e7a6f3c876aba4555c93012102eebe9510e6cc7ba297ffdfe82c2c25927d3d4095821152f2b73b88302c134c7d00000000", "vin": [{"txinwitness": ["3045022100a9d4deaa901b38acf02022e190194ec26d5e24091349b8bdd7ab5b08dce6af3f02200832977ac0524577f64c4b79af49a82068e9895bec57e7a6f3c876aba4555c9301", "02eebe9510e6cc7ba297ffdfe82c2c25927d3d4095821152f2b73b88302c134c7d"], "sequence": 4294967295, "scriptSig": {"hex": "160014cf68021b12b5be674cfce0a439eae20348147fa3", "asm": "0014cf68021b12b5be674cfce0a439eae20348147fa3"}, "vout": 0, "txid": "d49c6e5ac6598a3b0c947963a3dd8647c4b8a49435becb2d44eacf5c4ca2f61b"}], "txid": "a80d37243d90bc409663a737179e1cb48559cd1b33f5c871474f7e346a5a7547", "blocktime": 1537870928, "version": 1, "confirmations": 11512, "time": 1537870928, "locktime": 0, "vsize": 165, "size": 247}