{"hash": "a8184f3f2b93d69620962e79669a9b5e0cc284ba6aabf2c5f57fadff58e020d5", "blockhash": "00000000000000000004ffacab907a6b429b9a5745fa0b75af4234bf69dd7176", "vout": [{"scriptPubKey": {"reqSigs": 1, "hex": "76a914030f5463287ef2a1b944ab22b7d3b962cf0b8e8288ac", "addresses": ["1HBPhT6yaxohTvg5W7GRk7zhfMMXxF1Uy"], "asm": "OP_DUP OP_HASH160 030f5463287ef2a1b944ab22b7d3b962cf0b8e82 OP_EQUALVERIFY OP_CHECKSIG", "type": "pubkeyhash"}, "value": 0.001, "n": 0}, {"scriptPubKey": {"reqSigs": 1, "hex": "76a914e163d073e054266d0f5e025eebd6100b0c946b5b88ac", "addresses": ["1MYkcNyCtPmxivKoMy5v5VBkv6LuBrgrAy"], "asm": "OP_DUP OP_HASH160 e163d073e054266d0f5e025eebd6100b0c946b5b OP_EQUALVERIFY OP_CHECKSIG", "type": "pubkeyhash"}, "value": 0.0795032, "n": 1}], "hex": "010000000142a4ca1f4139630fbf26ab271f642c83a301b8f7cc1c544e188c4a6e2408319c010000006b483045022100ff17a880d918f8cdcc97206011fe452c30b45ab198c8b88a7237ed37ceb4384e022010a8b5697cef3a15946b810edf6bb8bacac3ae1db1e77703dff93ccda07727960121033387315522fd785dc6a3184e4f2acbd937f90409a105c06583c94e6554220085ffffffff02a0860100000000001976a914030f5463287ef2a1b944ab22b7d3b962cf0b8e8288acf04f7900000000001976a914e163d073e054266d0f5e025eebd6100b0c946b5b88ac00000000", "vin": [{"sequence": 4294967295, "scriptSig": {"hex": "483045022100ff17a880d918f8cdcc97206011fe452c30b45ab198c8b88a7237ed37ceb4384e022010a8b5697cef3a15946b810edf6bb8bacac3ae1db1e77703dff93ccda07727960121033387315522fd785dc6a3184e4f2acbd937f90409a105c06583c94e6554220085", "asm": "3045022100ff17a880d918f8cdcc97206011fe452c30b45ab198c8b88a7237ed37ceb4384e022010a8b5697cef3a15946b810edf6bb8bacac3ae1db1e77703dff93ccda0772796[ALL] 033387315522fd785dc6a3184e4f2acbd937f90409a105c06583c94e6554220085"}, "vout": 1, "txid": "9c3108246e4a8c184e541cccf7b801a3832c641f27ab26bf0f6339411fcaa442"}], "txid": "a8184f3f2b93d69620962e79669a9b5e0cc284ba6aabf2c5f57fadff58e020d5", "blocktime": 1537875543, "version": 1, "confirmations": 11464, "time": 1537875543, "locktime": 0, "vsize": 226, "size": 226}