{"hash": "8728049faf4da67ba9d9c025f579507b959af3324c02db9369d0b4c9171b5d15", "blockhash": "0000000000000000001f76057863aec43deb6fa401d9628bb513d65a8098bfab", "vout": [{"scriptPubKey": {"reqSigs": 1, "hex": "76a9147c154ed1dc59609e3d26abb2df2ea3d587cd8c4188ac", "addresses": ["1CK6KHY6MHgYvmRQ4PAafKYDrg1ejbH1cE"], "asm": "OP_DUP OP_HASH160 7c154ed1dc59609e3d26abb2df2ea3d587cd8c41 OP_EQUALVERIFY OP_CHECKSIG", "type": "pubkeyhash"}, "value": 12.6211754, "n": 0}, {"scriptPubKey": {"type": "nulldata", "hex": "6a4c2952534b424c4f434b3a7fd1235342692ad179e876d11134ab81e38c670572c5605bc46a9bb435476915", "asm": "OP_RETURN 52534b424c4f434b3a7fd1235342692ad179e876d11134ab81e38c670572c5605bc46a9bb435476915"}, "value": 0.0, "n": 1}, {"scriptPubKey": {"type": "nulldata", "hex": "6a24aa21a9ed7cf8135468b4bfda1b480d0d7438ed50d543818ba924f670af8852bb365b365a", "asm": "OP_RETURN aa21a9ed7cf8135468b4bfda1b480d0d7438ed50d543818ba924f670af8852bb365b365a"}, "value": 0.0, "n": 2}], "hex": "010000000001010000000000000000000000000000000000000000000000000000000000000000ffffffff4503154908fabe6d6d017d1b7d1c0ac0b4baa20f91567dcff378d2605538d4182e521b911960d1a0f5010000000000000021650501b6a7fb631700001075122f736c7573682f0000000003a4623a4b000000001976a9147c154ed1dc59609e3d26abb2df2ea3d587cd8c4188ac00000000000000002c6a4c2952534b424c4f434b3a7fd1235342692ad179e876d11134ab81e38c670572c5605bc46a9bb4354769150000000000000000266a24aa21a9ed7cf8135468b4bfda1b480d0d7438ed50d543818ba924f670af8852bb365b365a0120000000000000000000000000000000000000000000000000000000000000000000000000", "vin": [{"coinbase": "03154908fabe6d6d017d1b7d1c0ac0b4baa20f91567dcff378d2605538d4182e521b911960d1a0f5010000000000000021650501b6a7fb631700001075122f736c7573682f", "sequence": 0}], "txid": "a82697513a5bc35ae6c197f260fdaea0095e3277bddb919017e2091402d12307", "blocktime": 1537873891, "version": 1, "confirmations": 11474, "time": 1537873891, "locktime": 0, "vsize": 263, "size": 290}