{"hash": "a829cb934dd0af2a049e7bf2526332db01305266a07d966bd92d7f954eac145d", "blockhash": "0000000000000000001f0ddff1eddb255c1121bcd4da4f1bc9a0da00cae72433", "vout": [{"scriptPubKey": {"reqSigs": 1, "hex": "76a91477806dd0ffc5c8544e53e51e0e6353cc4e2423ec88ac", "addresses": ["1BtsGEHkEKZhchMDZVk4MQRMPpGYW74FhB"], "asm": "OP_DUP OP_HASH160 77806dd0ffc5c8544e53e51e0e6353cc4e2423ec OP_EQUALVERIFY OP_CHECKSIG", "type": "pubkeyhash"}, "value": 0.022304, "n": 0}, {"scriptPubKey": {"type": "nulldata", "hex": "6a4c50000077ab0001de4825a21dd09bb4255e0444af6c953dd567cf27e7e3ef3236678a625097ab00a67cb3161ad038029740894688805baa103a0612e31d5a47cc75bc9a9526289ac0f6612cd74e33776ee4", "asm": "OP_RETURN 000077ab0001de4825a21dd09bb4255e0444af6c953dd567cf27e7e3ef3236678a625097ab00a67cb3161ad038029740894688805baa103a0612e31d5a47cc75bc9a9526289ac0f6612cd74e33776ee4"}, "value": 0.0, "n": 1}], "hex": "01000000013588a262f92054cba3f502541ad485be8f6c1b0913691312f1438724fd02127d000000006a4730440220330de3f5aa5ba8b773e6650f0fd8705ed427382eaaf64726ce34b42b257c834802206797fef43a783bd8078d7bac90d000cba49aae72432b4d79330ec16eb1862455012103cf5319b9b449d41637a0cf6628f4b715ae8a420f98d71f36e7de57b07fe8c44effffffff0280082200000000001976a91477806dd0ffc5c8544e53e51e0e6353cc4e2423ec88ac0000000000000000536a4c50000077ab0001de4825a21dd09bb4255e0444af6c953dd567cf27e7e3ef3236678a625097ab00a67cb3161ad038029740894688805baa103a0612e31d5a47cc75bc9a9526289ac0f6612cd74e33776ee400000000", "vin": [{"sequence": 4294967295, "scriptSig": {"hex": "4730440220330de3f5aa5ba8b773e6650f0fd8705ed427382eaaf64726ce34b42b257c834802206797fef43a783bd8078d7bac90d000cba49aae72432b4d79330ec16eb1862455012103cf5319b9b449d41637a0cf6628f4b715ae8a420f98d71f36e7de57b07fe8c44e", "asm": "30440220330de3f5aa5ba8b773e6650f0fd8705ed427382eaaf64726ce34b42b257c834802206797fef43a783bd8078d7bac90d000cba49aae72432b4d79330ec16eb1862455[ALL] 03cf5319b9b449d41637a0cf6628f4b715ae8a420f98d71f36e7de57b07fe8c44e"}, "vout": 0, "txid": "7d1202fd248743f112136913091b6c8fbe85d41a5402f5a3cb5420f962a28835"}], "txid": "a829cb934dd0af2a049e7bf2526332db01305266a07d966bd92d7f954eac145d", "blocktime": 1537872018, "version": 1, "confirmations": 11489, "time": 1537872018, "locktime": 0, "vsize": 283, "size": 283}