{"hash": "a82ef664111a18deabe467d93001fa74aba7e5b593aa2f49aa6c1c454aaf9f3e", "blockhash": "00000000000000000018f53835495a110e01622372bf6ae95dc86f2b0ab887b0", "vout": [{"scriptPubKey": {"reqSigs": 1, "hex": "76a914c9a4f4dc7ea72c8bd35365cae2cf80efd3a3224588ac", "addresses": ["1KPCRwGp91iAJ3HhCiNVokkhdEvs3Cz1vB"], "asm": "OP_DUP OP_HASH160 c9a4f4dc7ea72c8bd35365cae2cf80efd3a32245 OP_EQUALVERIFY OP_CHECKSIG", "type": "pubkeyhash"}, "value": 0.00015623, "n": 0}, {"scriptPubKey": {"reqSigs": 1, "hex": "76a9149f2f81b46a8fa2992daf999fae0adfd27cedacb888ac", "addresses": ["1FWhMKeoupGUuri6hHiYaqWJWfvAKBCQfK"], "asm": "OP_DUP OP_HASH160 9f2f81b46a8fa2992daf999fae0adfd27cedacb8 OP_EQUALVERIFY OP_CHECKSIG", "type": "pubkeyhash"}, "value": 0.89983699, "n": 1}], "hex": "0100000001048ad5ae947211b1b9ecdf910ddad44c036cd393837c4473ed28c51d177b051a000000006a473044022051b6a0df15d54efc924a91dc0fc9a7ce3f1bd58d3a34b9fa041b4cf9e848fa4d02201adffbf52ebe8a21db4c525d37270e04f6854e51ec2f131fc34a6bc6c123cfbc0121036d9606eed289e516af32d04540cddcf20559db7e54e6237a200a5171683f28c6ffffffff02073d0000000000001976a914c9a4f4dc7ea72c8bd35365cae2cf80efd3a3224588acd30a5d05000000001976a9149f2f81b46a8fa2992daf999fae0adfd27cedacb888ac00000000", "vin": [{"sequence": 4294967295, "scriptSig": {"hex": "473044022051b6a0df15d54efc924a91dc0fc9a7ce3f1bd58d3a34b9fa041b4cf9e848fa4d02201adffbf52ebe8a21db4c525d37270e04f6854e51ec2f131fc34a6bc6c123cfbc0121036d9606eed289e516af32d04540cddcf20559db7e54e6237a200a5171683f28c6", "asm": "3044022051b6a0df15d54efc924a91dc0fc9a7ce3f1bd58d3a34b9fa041b4cf9e848fa4d02201adffbf52ebe8a21db4c525d37270e04f6854e51ec2f131fc34a6bc6c123cfbc[ALL] 036d9606eed289e516af32d04540cddcf20559db7e54e6237a200a5171683f28c6"}, "vout": 0, "txid": "1a057b171dc528ed73447c8393d36c034cd4da0d91dfecb9b1117294aed58a04"}], "txid": "a82ef664111a18deabe467d93001fa74aba7e5b593aa2f49aa6c1c454aaf9f3e", "blocktime": 1537870928, "version": 1, "confirmations": 11514, "time": 1537870928, "locktime": 0, "vsize": 225, "size": 225}