{"hash": "a836dc220e8460e22693702ce5c023e08892f42f1e375de7b813e200bea29527", "blockhash": "0000000000000000001e0dab787dd257d1dbfcb92a98c2207d5e1078be1f4165", "vout": [{"scriptPubKey": {"type": "nulldata", "hex": "6a146f6d6e69000000000000001f0000048c138de980", "asm": "OP_RETURN 6f6d6e69000000000000001f0000048c138de980"}, "value": 0.0, "n": 0}, {"scriptPubKey": {"reqSigs": 1, "hex": "76a914a25dec4d0011064ef106a983c39c7a540699f22088ac", "addresses": ["1FoWyxwPXuj4C6abqwhjDWdz6D4PZgYRjA"], "asm": "OP_DUP OP_HASH160 a25dec4d0011064ef106a983c39c7a540699f220 OP_EQUALVERIFY OP_CHECKSIG", "type": "pubkeyhash"}, "value": 0.01995227, "n": 1}, {"scriptPubKey": {"reqSigs": 1, "hex": "a9147aaf3127213a634c52d8b955ecf3f04a598682d487", "addresses": ["3CsiEW18Vy1MnqjyHztrgA9387rRp6VFnu"], "asm": "OP_HASH160 7aaf3127213a634c52d8b955ecf3f04a598682d4 OP_EQUAL", "type": "scripthash"}, "value": 5.4e-06, "n": 2}], "hex": "0100000001a44813c76173a4fe9689194c29809e35be05f1741d9b5e1e9e8bd44070ac1fea770000006b483045022100b7795e5ee5430fdb3c35fe74aa4b83c73d874c877eb56cfc50ef42aeef53833802204a090e12b2ee40aceadd72e50ee823c23c4590280a54e3471c02d194b7337d51012103da5bac7b36d5aa38f531c6b9601e21bb598a4b6716ebed38b009a55dabde9440feffffff030000000000000000166a146f6d6e69000000000000001f0000048c138de980db711e00000000001976a914a25dec4d0011064ef106a983c39c7a540699f22088ac1c0200000000000017a9147aaf3127213a634c52d8b955ecf3f04a598682d48712490800", "vin": [{"sequence": 4294967294, "scriptSig": {"hex": "483045022100b7795e5ee5430fdb3c35fe74aa4b83c73d874c877eb56cfc50ef42aeef53833802204a090e12b2ee40aceadd72e50ee823c23c4590280a54e3471c02d194b7337d51012103da5bac7b36d5aa38f531c6b9601e21bb598a4b6716ebed38b009a55dabde9440", "asm": "3045022100b7795e5ee5430fdb3c35fe74aa4b83c73d874c877eb56cfc50ef42aeef53833802204a090e12b2ee40aceadd72e50ee823c23c4590280a54e3471c02d194b7337d51[ALL] 03da5bac7b36d5aa38f531c6b9601e21bb598a4b6716ebed38b009a55dabde9440"}, "vout": 119, "txid": "ea1fac7040d48b9e1e5e9b1d74f105be359e80294c198996fea47361c71348a4"}], "txid": "a836dc220e8460e22693702ce5c023e08892f42f1e375de7b813e200bea29527", "blocktime": 1537872475, "version": 1, "confirmations": 11486, "time": 1537872475, "locktime": 542994, "vsize": 255, "size": 255}