{"hash": "a8365ab3f9bdf76eee58795350a9d01821aa8b1dd79088f757a5a48ddd0e2543", "blockhash": "00000000000000000004ffacab907a6b429b9a5745fa0b75af4234bf69dd7176", "vout": [{"scriptPubKey": {"reqSigs": 1, "hex": "a914248bb6769a2b61632e9d3ae482ac580a8c2429aa87", "addresses": ["352FcrvNKJSPG8fmvAnVDou37Kcn3SaD2s"], "asm": "OP_HASH160 248bb6769a2b61632e9d3ae482ac580a8c2429aa OP_EQUAL", "type": "scripthash"}, "value": 0.02968246, "n": 0}], "hex": "0100000001fba8c55b6b66940362ad1dc0491d04530c1d2190089337f6f20f4f288f254d5b0c0000006a47304402206c2bb3bd108ac1b345d9c5d4897f70747e41ab80a40688a3aa1b486a9b3cc71c02201800408711c2b5689b3854f00986d63b0e4b77f9309ea25e6403a1e9ad6a59530121036af73b9ae74127bc6194dcc6e2ab75a97e654ac1a573fdb92a3fe99e9aa26c0affffffff01b64a2d000000000017a914248bb6769a2b61632e9d3ae482ac580a8c2429aa8700000000", "vin": [{"sequence": 4294967295, "scriptSig": {"hex": "47304402206c2bb3bd108ac1b345d9c5d4897f70747e41ab80a40688a3aa1b486a9b3cc71c02201800408711c2b5689b3854f00986d63b0e4b77f9309ea25e6403a1e9ad6a59530121036af73b9ae74127bc6194dcc6e2ab75a97e654ac1a573fdb92a3fe99e9aa26c0a", "asm": "304402206c2bb3bd108ac1b345d9c5d4897f70747e41ab80a40688a3aa1b486a9b3cc71c02201800408711c2b5689b3854f00986d63b0e4b77f9309ea25e6403a1e9ad6a5953[ALL] 036af73b9ae74127bc6194dcc6e2ab75a97e654ac1a573fdb92a3fe99e9aa26c0a"}, "vout": 12, "txid": "5b4d258f284f0ff2f637930890211d0c53041d49c01dad620394666b5bc5a8fb"}], "txid": "a8365ab3f9bdf76eee58795350a9d01821aa8b1dd79088f757a5a48ddd0e2543", "blocktime": 1537875543, "version": 1, "confirmations": 11464, "time": 1537875543, "locktime": 0, "vsize": 189, "size": 189}