{"hash": "a836a4a875deeb61b57b8a836bf781da03e225f7bdf44405ec5f88e7e7d1b552", "blockhash": "0000000000000000000e13cef7c366c0283d82e591d1acd082e914b08063cdf1", "vout": [{"scriptPubKey": {"reqSigs": 1, "hex": "76a91421003998aaa41cbc703a073e9f171ebfe1fab0ae88ac", "addresses": ["141VZxqV3DAB6ny6zQkjexAkbMCd1NVJYc"], "asm": "OP_DUP OP_HASH160 21003998aaa41cbc703a073e9f171ebfe1fab0ae OP_EQUALVERIFY OP_CHECKSIG", "type": "pubkeyhash"}, "value": 0.01323211, "n": 0}, {"scriptPubKey": {"reqSigs": 1, "hex": "a914eb297e476ec4da4e0804fedc82b56fca2f2c0e5187", "addresses": ["3P8SRdLhtUHzSBD22Cs55VTNfD2mzVc37K"], "asm": "OP_HASH160 eb297e476ec4da4e0804fedc82b56fca2f2c0e51 OP_EQUAL", "type": "scripthash"}, "value": 0.01653287, "n": 1}], "hex": "0100000001d1b5cad1f5d42f745c7c3365fae6c7236dd19d6bed1c863aad75165dfad11cf3090000006a47304402200aac40aefdddb72a134c45128d7596316f34c85b6abf7ab3dc225b01815708f802201cdc80317035fef7116e6b84ef1b30b41a0c96530594ee42508bc79f4064abd5012102fb67717c598b385428cd4fd2a81682c0403de39afed80d32604106456c5c121affffffff02cb301400000000001976a91421003998aaa41cbc703a073e9f171ebfe1fab0ae88ac273a19000000000017a914eb297e476ec4da4e0804fedc82b56fca2f2c0e518700000000", "vin": [{"sequence": 4294967295, "scriptSig": {"hex": "47304402200aac40aefdddb72a134c45128d7596316f34c85b6abf7ab3dc225b01815708f802201cdc80317035fef7116e6b84ef1b30b41a0c96530594ee42508bc79f4064abd5012102fb67717c598b385428cd4fd2a81682c0403de39afed80d32604106456c5c121a", "asm": "304402200aac40aefdddb72a134c45128d7596316f34c85b6abf7ab3dc225b01815708f802201cdc80317035fef7116e6b84ef1b30b41a0c96530594ee42508bc79f4064abd5[ALL] 02fb67717c598b385428cd4fd2a81682c0403de39afed80d32604106456c5c121a"}, "vout": 9, "txid": "f31cd1fa5d1675ad3a861ced6b9dd16d23c7e6fa65337c5c742fd4f5d1cab5d1"}], "txid": "a836a4a875deeb61b57b8a836bf781da03e225f7bdf44405ec5f88e7e7d1b552", "blocktime": 1537871767, "version": 1, "confirmations": 11493, "time": 1537871767, "locktime": 0, "vsize": 223, "size": 223}