{"hash": "a8376c1151bcf6596a68538cd5d30e951f8a6a7583fb7f0a9725c4cf20819c47", "blockhash": "0000000000000000000e13cef7c366c0283d82e591d1acd082e914b08063cdf1", "vout": [{"scriptPubKey": {"reqSigs": 1, "hex": "76a91489d289f419be0c2840e3ac0cd60f88ffff36d20188ac", "addresses": ["1DZjnnASiAuwbEASDeeaLgLFXoDFRc1VLj"], "asm": "OP_DUP OP_HASH160 89d289f419be0c2840e3ac0cd60f88ffff36d201 OP_EQUALVERIFY OP_CHECKSIG", "type": "pubkeyhash"}, "value": 0.001584, "n": 0}, {"scriptPubKey": {"reqSigs": 1, "hex": "76a914a531ce4828f78cd93d402b1ebceaebc62cf2a61f88ac", "addresses": ["1G4UADhJaAKV1pisU8YmkVWatsugbesjco"], "asm": "OP_DUP OP_HASH160 a531ce4828f78cd93d402b1ebceaebc62cf2a61f OP_EQUALVERIFY OP_CHECKSIG", "type": "pubkeyhash"}, "value": 0.00391062, "n": 1}], "hex": "01000000018724a966ba7c31fb1026f30697ff7c3660dfe10d09d68042d8237081a2e5411f010000006a473044022043d10cbd2c60818385895fd944f9c5890ceeaa41d5efc59638ee1f5639b6b75302200ce227f3cb7a5e6c3be01ebfc71add25c4e6d3b00bc2d1e02b3ed4bb17dda7200121033422d3ba0ec3a27156b0f379591eeb9fbd5924e7569eb36aa721ef92cfd0331bffffffff02c06a0200000000001976a91489d289f419be0c2840e3ac0cd60f88ffff36d20188ac96f70500000000001976a914a531ce4828f78cd93d402b1ebceaebc62cf2a61f88ac00000000", "vin": [{"sequence": 4294967295, "scriptSig": {"hex": "473044022043d10cbd2c60818385895fd944f9c5890ceeaa41d5efc59638ee1f5639b6b75302200ce227f3cb7a5e6c3be01ebfc71add25c4e6d3b00bc2d1e02b3ed4bb17dda7200121033422d3ba0ec3a27156b0f379591eeb9fbd5924e7569eb36aa721ef92cfd0331b", "asm": "3044022043d10cbd2c60818385895fd944f9c5890ceeaa41d5efc59638ee1f5639b6b75302200ce227f3cb7a5e6c3be01ebfc71add25c4e6d3b00bc2d1e02b3ed4bb17dda720[ALL] 033422d3ba0ec3a27156b0f379591eeb9fbd5924e7569eb36aa721ef92cfd0331b"}, "vout": 1, "txid": "1f41e5a2817023d84280d6090de1df60367cff9706f32610fb317cba66a92487"}], "txid": "a8376c1151bcf6596a68538cd5d30e951f8a6a7583fb7f0a9725c4cf20819c47", "blocktime": 1537871767, "version": 1, "confirmations": 11495, "time": 1537871767, "locktime": 0, "vsize": 225, "size": 225}