{"hash": "030c004f402b27ebb74e27db1c8407138ccf00831931589b28ed02b4a7de0a14", "blockhash": "0000000000000000000e13cef7c366c0283d82e591d1acd082e914b08063cdf1", "vout": [{"scriptPubKey": {"reqSigs": 1, "hex": "a9147ba14d8e20d2ec7c56921e303fe713139cccfdca87", "addresses": ["3CxiGfV6F4h4JT4TraWaWNaKDYC3zgKzub"], "asm": "OP_HASH160 7ba14d8e20d2ec7c56921e303fe713139cccfdca OP_EQUAL", "type": "scripthash"}, "value": 0.18706146, "n": 0}, {"scriptPubKey": {"reqSigs": 1, "hex": "76a914470ac81bd531318238071a5f6e41b9591d81507c88ac", "addresses": ["17Udtk9KBHcjtiHpBQtTXmMym33kHbzGBa"], "asm": "OP_DUP OP_HASH160 470ac81bd531318238071a5f6e41b9591d81507c OP_EQUALVERIFY OP_CHECKSIG", "type": "pubkeyhash"}, "value": 0.02254482, "n": 1}], "hex": "01000000000101d9869f171a7dd3b298b960e624c67ef6713b29f929e7d0c0add1ce246c4964bb01000000232200202680e87fa23b8b6f7062b2e8cd53f9c79c6966879fdb88d1d4f3a0940d2bc1c3ffffffff02e26e1d010000000017a9147ba14d8e20d2ec7c56921e303fe713139cccfdca8792662200000000001976a914470ac81bd531318238071a5f6e41b9591d81507c88ac04004730440220493dd0c11cc5a16f1fb407cb8ac6d9a9124473666b812f680080fc3755e4d1bd022004e5e77d3034262a5e5f1228b3c062d0b3c069ab11ecf72a1fe633fca470266201483045022100e6dd167b46095e16c7cb9edce4b172b0b7f6b43ed79748aa6bb9e740b79f46d602202637d66f405b82f596c2deb8395cf8a312fb48a0b4b886f7e63c9a480b64f6b50169522103243a5a4b7bb4bd5b0ae39f477c73e83be5b6970337458646f3351760c75a5e962103e98f0d4d1e98635320d11ef0f0143630d3f6c6238478e0fa90b6cc031267c6002103a6c859c653ef6f253e5c3b66aa91c7c4e99f6b427619af4ddbd46db6a23d479553ae00000000", "vin": [{"txinwitness": ["", "30440220493dd0c11cc5a16f1fb407cb8ac6d9a9124473666b812f680080fc3755e4d1bd022004e5e77d3034262a5e5f1228b3c062d0b3c069ab11ecf72a1fe633fca470266201", "3045022100e6dd167b46095e16c7cb9edce4b172b0b7f6b43ed79748aa6bb9e740b79f46d602202637d66f405b82f596c2deb8395cf8a312fb48a0b4b886f7e63c9a480b64f6b501", "522103243a5a4b7bb4bd5b0ae39f477c73e83be5b6970337458646f3351760c75a5e962103e98f0d4d1e98635320d11ef0f0143630d3f6c6238478e0fa90b6cc031267c6002103a6c859c653ef6f253e5c3b66aa91c7c4e99f6b427619af4ddbd46db6a23d479553ae"], "sequence": 4294967295, "scriptSig": {"hex": "2200202680e87fa23b8b6f7062b2e8cd53f9c79c6966879fdb88d1d4f3a0940d2bc1c3", "asm": "00202680e87fa23b8b6f7062b2e8cd53f9c79c6966879fdb88d1d4f3a0940d2bc1c3"}, "vout": 1, "txid": "bb64496c24ced1adc0d0e729f9293b71f67ec624e660b998b2d37d1a179f86d9"}], "txid": "a83a4b1bdf12ff06048ee729d90808d7c25b3e95e21d04be0b4c019f5db9c9b5", "blocktime": 1537871767, "version": 1, "confirmations": 11495, "time": 1537871767, "locktime": 0, "vsize": 216, "size": 407}