{"hash": "4348b4b688769e115b1d8a6ff62f5bf3f6d49732da3665e629c98c0f5434e551", "blockhash": "0000000000000000000dcc0f55137456b1a82d3642486a52398922ac4d620174", "vout": [{"scriptPubKey": {"reqSigs": 1, "hex": "a91425e60c07ddd0f3b8199bf191424a4bf6ea02b9b287", "addresses": ["359QWazd9tKTT82q8X9nnDnKjeP2Fvvdbm"], "asm": "OP_HASH160 25e60c07ddd0f3b8199bf191424a4bf6ea02b9b2 OP_EQUAL", "type": "scripthash"}, "value": 0.0485806, "n": 0}, {"scriptPubKey": {"reqSigs": 1, "hex": "a914dbc7d5e6bb4a6f85d0467585b0e8af587d6f9d5d87", "addresses": ["3Mj7JNYGhqSAxw4JHhYCPnaS4dFYgPkoqH"], "asm": "OP_HASH160 dbc7d5e6bb4a6f85d0467585b0e8af587d6f9d5d OP_EQUAL", "type": "scripthash"}, "value": 0.00999308, "n": 1}], "hex": "0200000000010253c0b72817d0daaf08cc44e86ca6fa05e10f90c3c8aab38578baac75d6ddb3560000000017160014cc4222e40bad293220092981ffcc98c84d2bb420feffffff8a89771a271c246fde086f1451aa9a605f801aa8cf251068fec246c1198025c60000000017160014daeea07abf6b82132821db5bfcea838e4f62c641feffffff02cc204a000000000017a91425e60c07ddd0f3b8199bf191424a4bf6ea02b9b2878c3f0f000000000017a914dbc7d5e6bb4a6f85d0467585b0e8af587d6f9d5d8702483045022100de855b58f944b4153e815c42916304bfb8d89a25af1f767f6749be217fe3309102207f1fa2faa0d432e1c2df780f35301d1e728bbecd44bad99792d728877e6c90010121029d8aa1c058e5439817f7a1a542b986cbf4ca09317f179106a67a3f8fe8bac29d02483045022100f3d40439e9d53304d384a27e8096dc0d5275978fc62aae8e9664f6130e790841022066ec6db1a7564d86eb45c9047369ee7795b05dbd996bd642f27e17d9f14ca4900121039124d048bbe552a0a3688a090d44f2814a9675cffc139fb08f139dc6054e1d570c490800", "vin": [{"txinwitness": ["3045022100de855b58f944b4153e815c42916304bfb8d89a25af1f767f6749be217fe3309102207f1fa2faa0d432e1c2df780f35301d1e728bbecd44bad99792d728877e6c900101", "029d8aa1c058e5439817f7a1a542b986cbf4ca09317f179106a67a3f8fe8bac29d"], "sequence": 4294967294, "scriptSig": {"hex": "160014cc4222e40bad293220092981ffcc98c84d2bb420", "asm": "0014cc4222e40bad293220092981ffcc98c84d2bb420"}, "vout": 0, "txid": "56b3ddd675acba7885b3aac8c3900fe105faa66ce844cc08afdad01728b7c053"}, {"txinwitness": ["3045022100f3d40439e9d53304d384a27e8096dc0d5275978fc62aae8e9664f6130e790841022066ec6db1a7564d86eb45c9047369ee7795b05dbd996bd642f27e17d9f14ca49001", "039124d048bbe552a0a3688a090d44f2814a9675cffc139fb08f139dc6054e1d57"], "sequence": 4294967294, "scriptSig": {"hex": "160014daeea07abf6b82132821db5bfcea838e4f62c641", "asm": "0014daeea07abf6b82132821db5bfcea838e4f62c641"}, "vout": 0, "txid": "c6258019c146c2fe681025cfa81a805f609aaa51146f08de6f241c271a77898a"}], "txid": "a846697453cdca3588f8d7c7d17940a608084c28fda59c17027865464508e7cb", "blocktime": 1537870268, "version": 2, "confirmations": 11518, "time": 1537870268, "locktime": 542988, "vsize": 257, "size": 420}