{"hash": "a84ed78dd5a5ae403b6f37d533a088782207e52fa0ed77f564febfefcc4e5a0f", "blockhash": "0000000000000000000baef3f32e3676a92c3b2e5da21b426e4f302fc371ce76", "vout": [{"scriptPubKey": {"reqSigs": 1, "hex": "76a914ebb69cad14d3da9a4629964cba20d1d3aeaf429f88ac", "addresses": ["1NVLZBktBxDZdD8J1eBmdmFSPZ8YYUPKMm"], "asm": "OP_DUP OP_HASH160 ebb69cad14d3da9a4629964cba20d1d3aeaf429f OP_EQUALVERIFY OP_CHECKSIG", "type": "pubkeyhash"}, "value": 0.01194663, "n": 0}], "hex": "01000000017dd7b045a4b848a3109a7c81249ac11029b50f452de26f085e824c1ba236f39e000000006b483045022100dd62256c6dc2dd0fe2a906194b58d15e83fafca5dfb5357f91f9339e4de983ea0220559de426a71cb7f6ce5bb8ebd0ae604f5906ba3db92eca2b3a7b11aafdb07c5c01210373a9b9c1a5afcddce4488102291d406db4e526e4637b2a5678af1addea6264efffffffff01a73a1200000000001976a914ebb69cad14d3da9a4629964cba20d1d3aeaf429f88ac00000000", "vin": [{"sequence": 4294967295, "scriptSig": {"hex": "483045022100dd62256c6dc2dd0fe2a906194b58d15e83fafca5dfb5357f91f9339e4de983ea0220559de426a71cb7f6ce5bb8ebd0ae604f5906ba3db92eca2b3a7b11aafdb07c5c01210373a9b9c1a5afcddce4488102291d406db4e526e4637b2a5678af1addea6264ef", "asm": "3045022100dd62256c6dc2dd0fe2a906194b58d15e83fafca5dfb5357f91f9339e4de983ea0220559de426a71cb7f6ce5bb8ebd0ae604f5906ba3db92eca2b3a7b11aafdb07c5c[ALL] 0373a9b9c1a5afcddce4488102291d406db4e526e4637b2a5678af1addea6264ef"}, "vout": 0, "txid": "9ef336a21b4c825e086fe22d450fb52910c19a24817c9a10a348b8a445b0d77d"}], "txid": "a84ed78dd5a5ae403b6f37d533a088782207e52fa0ed77f564febfefcc4e5a0f", "blocktime": 1537876114, "version": 1, "confirmations": 11460, "time": 1537876114, "locktime": 0, "vsize": 192, "size": 192}