{"hash": "a8542d7fc255c79f83a5c4f2834355af39256ca3160597aca610600bf77f4391", "blockhash": "0000000000000000001f76057863aec43deb6fa401d9628bb513d65a8098bfab", "vout": [{"scriptPubKey": {"reqSigs": 1, "hex": "a9148407b60f92ab9f875fb2a40b77a8d342c5b3f7c287", "addresses": ["3Dj8MeVU3Aug2AQNB1hoCMDaHvG8VheVmj"], "asm": "OP_HASH160 8407b60f92ab9f875fb2a40b77a8d342c5b3f7c2 OP_EQUAL", "type": "scripthash"}, "value": 0.00180839, "n": 0}], "hex": "01000000011ee3e04aa28a18b4048be8897e0941a775a1e8f14967d5b3bbdd46b157a2b401010000006a47304402206df66cbbf663160eef70f11927f3e02c3b2fe22f9ca762e103a66ceacaf829de02201ef0492e176c9eab87b0aba7798284d328d3cea5215e314e4562c4eaf424ebe50121037929df75d29f9aa8f8578ba8e857a7e76d0c15e02c84b8fab3701cf56b490beeffffffff0167c202000000000017a9148407b60f92ab9f875fb2a40b77a8d342c5b3f7c28700000000", "vin": [{"sequence": 4294967295, "scriptSig": {"hex": "47304402206df66cbbf663160eef70f11927f3e02c3b2fe22f9ca762e103a66ceacaf829de02201ef0492e176c9eab87b0aba7798284d328d3cea5215e314e4562c4eaf424ebe50121037929df75d29f9aa8f8578ba8e857a7e76d0c15e02c84b8fab3701cf56b490bee", "asm": "304402206df66cbbf663160eef70f11927f3e02c3b2fe22f9ca762e103a66ceacaf829de02201ef0492e176c9eab87b0aba7798284d328d3cea5215e314e4562c4eaf424ebe5[ALL] 037929df75d29f9aa8f8578ba8e857a7e76d0c15e02c84b8fab3701cf56b490bee"}, "vout": 1, "txid": "01b4a257b146ddbbb3d56749f1e8a175a741097e89e88b04b4188aa24ae0e31e"}], "txid": "a8542d7fc255c79f83a5c4f2834355af39256ca3160597aca610600bf77f4391", "blocktime": 1537873891, "version": 1, "confirmations": 11478, "time": 1537873891, "locktime": 0, "vsize": 189, "size": 189}