{"hash": "a8569242d60d5f5896acfc438a6323123d34b368ed1ca5e25e92e32d9fe4a412", "blockhash": "00000000000000000004ffacab907a6b429b9a5745fa0b75af4234bf69dd7176", "vout": [{"scriptPubKey": {"reqSigs": 1, "hex": "76a914371da19083a87c01029cf60ed58bf3615700b8ed88ac", "addresses": ["162RfMfsmgo2EFn8CSMHMA5mDaLdvSMWEY"], "asm": "OP_DUP OP_HASH160 371da19083a87c01029cf60ed58bf3615700b8ed OP_EQUALVERIFY OP_CHECKSIG", "type": "pubkeyhash"}, "value": 0.15652553, "n": 0}, {"scriptPubKey": {"reqSigs": 1, "hex": "76a9145ac5cdf64d7f4716424dbfc7a83d517ccd859d2188ac", "addresses": ["19GxmxyZBaaD4Fbt9796Gf3K79ybT6x4Ms"], "asm": "OP_DUP OP_HASH160 5ac5cdf64d7f4716424dbfc7a83d517ccd859d21 OP_EQUALVERIFY OP_CHECKSIG", "type": "pubkeyhash"}, "value": 0.00392347, "n": 1}], "hex": "0100000001842ec7d483cbef81f3290d1e489256bd440a9c3db5d2cc6a2e0b6496b6784b72010000006b483045022100aed49a381181ecc9f1192ceefcb6731bec3e4b33118389bc8203e48e5483fd820220187a221d9493a0bad535d89f76b5cf33ae59f342056e66f1aa16be9015bbc19d01210254119c5c62cf0565151312d9f16bf1f1aa96a5472526399101269f2dc0e3bb83ffffffff02c9d6ee00000000001976a914371da19083a87c01029cf60ed58bf3615700b8ed88ac9bfc0500000000001976a9145ac5cdf64d7f4716424dbfc7a83d517ccd859d2188ac00000000", "vin": [{"sequence": 4294967295, "scriptSig": {"hex": "483045022100aed49a381181ecc9f1192ceefcb6731bec3e4b33118389bc8203e48e5483fd820220187a221d9493a0bad535d89f76b5cf33ae59f342056e66f1aa16be9015bbc19d01210254119c5c62cf0565151312d9f16bf1f1aa96a5472526399101269f2dc0e3bb83", "asm": "3045022100aed49a381181ecc9f1192ceefcb6731bec3e4b33118389bc8203e48e5483fd820220187a221d9493a0bad535d89f76b5cf33ae59f342056e66f1aa16be9015bbc19d[ALL] 0254119c5c62cf0565151312d9f16bf1f1aa96a5472526399101269f2dc0e3bb83"}, "vout": 1, "txid": "724b78b696640b2e6accd2b53d9c0a44bd5692481e0d29f381efcb83d4c72e84"}], "txid": "a8569242d60d5f5896acfc438a6323123d34b368ed1ca5e25e92e32d9fe4a412", "blocktime": 1537875543, "version": 1, "confirmations": 11464, "time": 1537875543, "locktime": 0, "vsize": 226, "size": 226}