{"hash": "7b23c00541b22d44085fcd3fd8052ad8fca632bfcc82c875f646cf87b80b0e93", "blockhash": "0000000000000000000e13cef7c366c0283d82e591d1acd082e914b08063cdf1", "vout": [{"scriptPubKey": {"reqSigs": 1, "hex": "a914492ac313839205be9469320d9ee95ed8041e10c087", "addresses": ["38MtUhokaQ7egJa6enc9bcoDt1LFormP9u"], "asm": "OP_HASH160 492ac313839205be9469320d9ee95ed8041e10c0 OP_EQUAL", "type": "scripthash"}, "value": 0.00243854, "n": 0}, {"scriptPubKey": {"reqSigs": 1, "hex": "a9143d32dd393519cf19cb0394ff3d56a53ddf3f364887", "addresses": ["37Gc5MBcJejcERxB25eofGAK64P781x3WU"], "asm": "OP_HASH160 3d32dd393519cf19cb0394ff3d56a53ddf3f3648 OP_EQUAL", "type": "scripthash"}, "value": 0.00498375, "n": 1}, {"scriptPubKey": {"reqSigs": 1, "hex": "76a91419a9c910e44fe6373711f5b65419ac4190f25e6f88ac", "addresses": ["13LhHhCifmic3pjoDJpjUbmvXiWPW6PmuR"], "asm": "OP_DUP OP_HASH160 19a9c910e44fe6373711f5b65419ac4190f25e6f OP_EQUALVERIFY OP_CHECKSIG", "type": "pubkeyhash"}, "value": 0.00849505, "n": 2}, {"scriptPubKey": {"reqSigs": 1, "hex": "76a914fe093e96e0f312eadf096b40c4b8837ecfa518a988ac", "addresses": ["1QADi3WmryGu8RiFaFen5nY7r7HGrb5xYA"], "asm": "OP_DUP OP_HASH160 fe093e96e0f312eadf096b40c4b8837ecfa518a9 OP_EQUALVERIFY OP_CHECKSIG", "type": "pubkeyhash"}, "value": 0.01117862, "n": 3}, {"scriptPubKey": {"reqSigs": 1, "hex": "a91422b1fe47e6bf4a5fa4bb4b6290a2863356a3d73887", "addresses": ["34rU8FpAMo6uJiixw41pGiMVK4ZuFuve31"], "asm": "OP_HASH160 22b1fe47e6bf4a5fa4bb4b6290a2863356a3d738 OP_EQUAL", "type": "scripthash"}, "value": 0.00438957, "n": 4}, {"scriptPubKey": {"reqSigs": 1, "hex": "76a9145d365b26f1f8e17357d0c29e96773e06514daae588ac", "addresses": ["19VrxZp1JoKt5HEDoLfiQo9ZJgq4xCb1wT"], "asm": "OP_DUP OP_HASH160 5d365b26f1f8e17357d0c29e96773e06514daae5 OP_EQUALVERIFY OP_CHECKSIG", "type": "pubkeyhash"}, "value": 0.02393953, "n": 5}, {"scriptPubKey": {"reqSigs": 1, "hex": "76a91475cec90a672af48cb8e16e2bfcc57636f0d0d76d88ac", "addresses": ["1Bjun973RNHtKZ46Wyzg2ztvxwv4NKQkyS"], "asm": "OP_DUP OP_HASH160 75cec90a672af48cb8e16e2bfcc57636f0d0d76d OP_EQUALVERIFY OP_CHECKSIG", "type": "pubkeyhash"}, "value": 0.00178382, "n": 6}, {"scriptPubKey": {"reqSigs": 1, "hex": "a9141f238bd69f1199a7aad12bb2a548ef20ffb4be2587", "addresses": ["34XfTHb44GHAXsPK6vVGCwy9RUfA8VYMVA"], "asm": "OP_HASH160 1f238bd69f1199a7aad12bb2a548ef20ffb4be25 OP_EQUAL", "type": "scripthash"}, "value": 0.00495, "n": 7}, {"scriptPubKey": {"reqSigs": 1, "hex": "a9142e8f6d5850d8068f2a955711821db9f242b45b6e87", "addresses": ["35wCprorSgE85J9uvSwfgChocXyXkXMNhk"], "asm": "OP_HASH160 2e8f6d5850d8068f2a955711821db9f242b45b6e OP_EQUAL", "type": "scripthash"}, "value": 0.00524954, "n": 8}, {"scriptPubKey": {"reqSigs": 1, "hex": "a91414fa710cc6138dfbb133fb138fe4a6d21e6d322a87", "addresses": ["33bwTNHmefAFqhNazapPKivtV31aPzDJQd"], "asm": "OP_HASH160 14fa710cc6138dfbb133fb138fe4a6d21e6d322a OP_EQUAL", "type": "scripthash"}, "value": 0.0074336, "n": 9}, {"scriptPubKey": {"reqSigs": 1, "hex": "a914ad8ff02d9c9f75e747606581d5d9c458525e97f987", "addresses": ["3HWjFjPN5mNMF75pLYcUAHfgmai8UEXQGR"], "asm": "OP_HASH160 ad8ff02d9c9f75e747606581d5d9c458525e97f9 OP_EQUAL", "type": "scripthash"}, "value": 0.00883909, "n": 10}, {"scriptPubKey": {"reqSigs": 1, "hex": "76a914c670ce4a8413b37a65f75af7d4404d3dd8e89c7b88ac", "addresses": ["1K6FvsNhLvVTKbtE4QCVzSgZGPzd5LDwUV"], "asm": "OP_DUP OP_HASH160 c670ce4a8413b37a65f75af7d4404d3dd8e89c7b OP_EQUALVERIFY OP_CHECKSIG", "type": "pubkeyhash"}, "value": 0.00015008, "n": 11}, {"scriptPubKey": {"reqSigs": 1, "hex": "a914b14df3f9b81010bd14eaacdc719e84ca892bd78b87", "addresses": ["3HrWumZhZ9NFeUQuLbGqmdBxeaEG4iPV4d"], "asm": "OP_HASH160 b14df3f9b81010bd14eaacdc719e84ca892bd78b OP_EQUAL", "type": "scripthash"}, "value": 0.00292415, "n": 12}, {"scriptPubKey": {"reqSigs": 1, "hex": "a91483d30c26ac7bab5dda261ccaee9b057e5034fa8f87", "addresses": ["3Di3GWSp1gEmqzVRgZNM67Egbbd7zCHmEs"], "asm": "OP_HASH160 83d30c26ac7bab5dda261ccaee9b057e5034fa8f OP_EQUAL", "type": "scripthash"}, "value": 0.00699063, "n": 13}, {"scriptPubKey": {"reqSigs": 1, "hex": "76a91449a5ad000cd06fa337b6ba95536ed10be682b9d988ac", "addresses": ["17iQoMost7PhY5HYNyRJbensx5RRHDEtXH"], "asm": "OP_DUP OP_HASH160 49a5ad000cd06fa337b6ba95536ed10be682b9d9 OP_EQUALVERIFY OP_CHECKSIG", "type": "pubkeyhash"}, "value": 0.00030963, "n": 14}, {"scriptPubKey": {"reqSigs": 1, "hex": "76a914b87d4221703c399d895232ad2d9350369a1b1cae88ac", "addresses": ["1HpVPQ4eaAaos2LEyHraWVy7L2pbL6NUkK"], "asm": "OP_DUP OP_HASH160 b87d4221703c399d895232ad2d9350369a1b1cae OP_EQUALVERIFY OP_CHECKSIG", "type": "pubkeyhash"}, "value": 1.0, "n": 15}, {"scriptPubKey": {"reqSigs": 1, "hex": "a914252dbf84df127b1eceb745f13b06948634faac0287", "addresses": ["355bjGzxWQZqVdUmQToexhC2XZvh2UcynF"], "asm": "OP_HASH160 252dbf84df127b1eceb745f13b06948634faac02 OP_EQUAL", "type": "scripthash"}, "value": 0.00283191, "n": 16}, {"scriptPubKey": {"reqSigs": 1, "hex": "a914d71aeafd5b19dd4353a058f55a4062b71ebb51c487", "addresses": ["3MJPT5ToD38vLvrTctJaL4jXQ8RRNpSpmF"], "asm": "OP_HASH160 d71aeafd5b19dd4353a058f55a4062b71ebb51c4 OP_EQUAL", "type": "scripthash"}, "value": 0.00392645, "n": 17}, {"scriptPubKey": {"reqSigs": 1, "hex": "a9147ef16162874b03111bd73c8c308d106161c68f2d87", "addresses": ["3DGEE7sVLAH6qqsDyWGhYHe5xN2CPNMPh1"], "asm": "OP_HASH160 7ef16162874b03111bd73c8c308d106161c68f2d OP_EQUAL", "type": "scripthash"}, "value": 0.01334495, "n": 18}, {"scriptPubKey": {"reqSigs": 1, "hex": "a914bb5fdc812527a87c507f89295a3fd4ee837296db87", "addresses": ["3Jmm7yjxCeCuFf696GdFh8SygnBCJ84geA"], "asm": "OP_HASH160 bb5fdc812527a87c507f89295a3fd4ee837296db OP_EQUAL", "type": "scripthash"}, "value": 0.00340842, "n": 19}, {"scriptPubKey": {"reqSigs": 1, "hex": "a91468c1d7378c86a4ae4ce678d8a32e249fd5bd4f8f87", "addresses": ["3BEvQnH7T3jbxmQtkpbLwtNF1UsCLhT72n"], "asm": "OP_HASH160 68c1d7378c86a4ae4ce678d8a32e249fd5bd4f8f OP_EQUAL", "type": "scripthash"}, "value": 0.00050194, "n": 20}, {"scriptPubKey": {"reqSigs": 1, "hex": "a91487bc68b080fa7bb1e1834f5fd702a68f571b3fa387", "addresses": ["3E4irKjJEqq23fJvg6f8KqQBGGPXWzppxt"], "asm": "OP_HASH160 87bc68b080fa7bb1e1834f5fd702a68f571b3fa3 OP_EQUAL", "type": "scripthash"}, "value": 0.00879, "n": 21}, {"scriptPubKey": {"reqSigs": 1, "hex": "76a914f3ac908598ceb2613d59402cdb6ede395a14e0b088ac", "addresses": ["1PDRvcL76Se94nwNj28tZvmM2fBU2PYmvE"], "asm": "OP_DUP OP_HASH160 f3ac908598ceb2613d59402cdb6ede395a14e0b0 OP_EQUALVERIFY OP_CHECKSIG", "type": "pubkeyhash"}, "value": 0.00261405, "n": 22}, {"scriptPubKey": {"reqSigs": 1, "hex": "76a91429dc8a62e7d697ee0703f553b842899211f0275488ac", "addresses": ["14pLuHyKoFTmNbcrw1VPHTd2b7C9x5chsK"], "asm": "OP_DUP OP_HASH160 29dc8a62e7d697ee0703f553b842899211f02754 OP_EQUALVERIFY OP_CHECKSIG", "type": "pubkeyhash"}, "value": 0.00038064, "n": 23}, {"scriptPubKey": {"reqSigs": 1, "hex": "a914ea5ecf935369c7692e1caab039ff8a64de23d9de87", "addresses": ["3P4Fd1EZ71P4jx1zUwQKcqj12YjFYubwQB"], "asm": "OP_HASH160 ea5ecf935369c7692e1caab039ff8a64de23d9de OP_EQUAL", "type": "scripthash"}, "value": 0.00312725, "n": 24}, {"scriptPubKey": {"reqSigs": 1, "hex": "a9145f698fbd83c09f6f419e95e0ae44a6e9e10eb80987", "addresses": ["3APWaJqB3cJABEboDhtzhJbaAmcjjQGJKe"], "asm": "OP_HASH160 5f698fbd83c09f6f419e95e0ae44a6e9e10eb809 OP_EQUAL", "type": "scripthash"}, "value": 0.00571951, "n": 25}, {"scriptPubKey": {"reqSigs": 1, "hex": "a9142651ee2e47a3cde92cc3cf09109fd729d4e1c13b87", "addresses": ["35BdkTT8eksLeSFrV15a8RvjJkULDZdyRs"], "asm": "OP_HASH160 2651ee2e47a3cde92cc3cf09109fd729d4e1c13b OP_EQUAL", "type": "scripthash"}, "value": 26.13400725, "n": 26}, {"scriptPubKey": {"reqSigs": 1, "hex": "a914568a58ea7be924a0aaa80f30453dc2227e47f38e87", "addresses": ["39abmaiDa5DEGqJCyKZ8aFMYkoXjzTrXSE"], "asm": "OP_HASH160 568a58ea7be924a0aaa80f30453dc2227e47f38e OP_EQUAL", "type": "scripthash"}, "value": 0.00641838, "n": 27}, {"scriptPubKey": {"reqSigs": 1, "hex": "a914b47b213c32a56d82026c3df4ff71bc1f5257bd7387", "addresses": ["3J9K4HPk2NyBfB9VjQyk5b4CWpoKFdzsv2"], "asm": "OP_HASH160 b47b213c32a56d82026c3df4ff71bc1f5257bd73 OP_EQUAL", "type": "scripthash"}, "value": 0.00527623, "n": 28}, {"scriptPubKey": {"reqSigs": 1, "hex": "76a914a7ddb2e78ba85f081c890f94b7d038ce3a3b281988ac", "addresses": ["1GJbRwcH6vVR5MHk6rjwg5Vd7KHpnaToCN"], "asm": "OP_DUP OP_HASH160 a7ddb2e78ba85f081c890f94b7d038ce3a3b2819 OP_EQUALVERIFY OP_CHECKSIG", "type": "pubkeyhash"}, "value": 0.00625813, "n": 29}, {"scriptPubKey": {"reqSigs": 1, "hex": "a91444492eb271bdc5d6989d3a8eaee279912eb2b66c87", "addresses": ["37v5YPeNRWk1QzkSu9533yAWfcnurgTnoV"], "asm": "OP_HASH160 44492eb271bdc5d6989d3a8eaee279912eb2b66c OP_EQUAL", "type": "scripthash"}, "value": 0.00386705, "n": 30}, {"scriptPubKey": {"reqSigs": 1, "hex": "76a914d8ef15ab7d9a513c58580e214cdfd2912fe39ed888ac", "addresses": ["1Ln3NL2BqEgSaAASz6e7nR9YbaNY9DmJiL"], "asm": "OP_DUP OP_HASH160 d8ef15ab7d9a513c58580e214cdfd2912fe39ed8 OP_EQUALVERIFY OP_CHECKSIG", "type": "pubkeyhash"}, "value": 0.01143923, "n": 31}, {"scriptPubKey": {"reqSigs": 1, "hex": "a914a6df49d8cf21df21a65f4ba52dcdb92718d9fe8e87", "addresses": ["3GuMajzgZBu6S3TwUfUgHxPT6qmXfyEF8A"], "asm": "OP_HASH160 a6df49d8cf21df21a65f4ba52dcdb92718d9fe8e OP_EQUAL", "type": "scripthash"}, "value": 0.00203858, "n": 32}, {"scriptPubKey": {"reqSigs": 1, "hex": "76a91488d4f13c62f8cc6a34ef23a4bf5d1accdd0af46888ac", "addresses": ["1DUVzaiKA1QMQSNrYEASiP75dhaBxdUdXH"], "asm": "OP_DUP OP_HASH160 88d4f13c62f8cc6a34ef23a4bf5d1accdd0af468 OP_EQUALVERIFY OP_CHECKSIG", "type": "pubkeyhash"}, "value": 0.01588149, "n": 33}, {"scriptPubKey": {"reqSigs": 1, "hex": "76a91490269a382fcba5316fb7a92d09700f2c43f0f17688ac", "addresses": ["1E9CYmUHdrSjQUW5hncUXm6c2zhUjRSM33"], "asm": "OP_DUP OP_HASH160 90269a382fcba5316fb7a92d09700f2c43f0f176 OP_EQUALVERIFY OP_CHECKSIG", "type": "pubkeyhash"}, "value": 0.00156055, "n": 34}, {"scriptPubKey": {"reqSigs": 1, "hex": "76a91476f249240f2adb2e54242c55f713b52cc4e1412788ac", "addresses": ["1BqvywdtZYvUEkboMCbqY9HSBe2tyTbSVN"], "asm": "OP_DUP OP_HASH160 76f249240f2adb2e54242c55f713b52cc4e14127 OP_EQUALVERIFY OP_CHECKSIG", "type": "pubkeyhash"}, "value": 0.00719684, "n": 35}], "hex": "020000000001010bad862195a797e591653126f3dd6365b5eb89546cece46021c416f9617bf78504000000171600146a9bca0fc1c32f5bd01ce06d93b1c262e4d48052feffffff248eb803000000000017a914492ac313839205be9469320d9ee95ed8041e10c087c79a07000000000017a9143d32dd393519cf19cb0394ff3d56a53ddf3f36488761f60c00000000001976a91419a9c910e44fe6373711f5b65419ac4190f25e6f88aca60e1100000000001976a914fe093e96e0f312eadf096b40c4b8837ecfa518a988acadb206000000000017a91422b1fe47e6bf4a5fa4bb4b6290a2863356a3d7388761872400000000001976a9145d365b26f1f8e17357d0c29e96773e06514daae588acceb80200000000001976a91475cec90a672af48cb8e16e2bfcc57636f0d0d76d88ac988d07000000000017a9141f238bd69f1199a7aad12bb2a548ef20ffb4be25879a0208000000000017a9142e8f6d5850d8068f2a955711821db9f242b45b6e87c0570b000000000017a91414fa710cc6138dfbb133fb138fe4a6d21e6d322a87c57c0d000000000017a914ad8ff02d9c9f75e747606581d5d9c458525e97f987a03a0000000000001976a914c670ce4a8413b37a65f75af7d4404d3dd8e89c7b88ac3f7604000000000017a914b14df3f9b81010bd14eaacdc719e84ca892bd78b87b7aa0a000000000017a91483d30c26ac7bab5dda261ccaee9b057e5034fa8f87f3780000000000001976a91449a5ad000cd06fa337b6ba95536ed10be682b9d988ac00e1f505000000001976a914b87d4221703c399d895232ad2d9350369a1b1cae88ac375204000000000017a914252dbf84df127b1eceb745f13b06948634faac0287c5fd05000000000017a914d71aeafd5b19dd4353a058f55a4062b71ebb51c487df5c14000000000017a9147ef16162874b03111bd73c8c308d106161c68f2d876a3305000000000017a914bb5fdc812527a87c507f89295a3fd4ee837296db8712c400000000000017a91468c1d7378c86a4ae4ce678d8a32e249fd5bd4f8f8798690d000000000017a91487bc68b080fa7bb1e1834f5fd702a68f571b3fa3871dfd0300000000001976a914f3ac908598ceb2613d59402cdb6ede395a14e0b088acb0940000000000001976a91429dc8a62e7d697ee0703f553b842899211f0275488ac95c504000000000017a914ea5ecf935369c7692e1caab039ff8a64de23d9de872fba08000000000017a9145f698fbd83c09f6f419e95e0ae44a6e9e10eb809879554c59b0000000017a9142651ee2e47a3cde92cc3cf09109fd729d4e1c13b872ecb09000000000017a914568a58ea7be924a0aaa80f30453dc2227e47f38e87070d08000000000017a914b47b213c32a56d82026c3df4ff71bc1f5257bd7387958c0900000000001976a914a7ddb2e78ba85f081c890f94b7d038ce3a3b281988ac91e605000000000017a91444492eb271bdc5d6989d3a8eaee279912eb2b66c8773741100000000001976a914d8ef15ab7d9a513c58580e214cdfd2912fe39ed888ac521c03000000000017a914a6df49d8cf21df21a65f4ba52dcdb92718d9fe8e87b53b1800000000001976a91488d4f13c62f8cc6a34ef23a4bf5d1accdd0af46888ac97610200000000001976a91490269a382fcba5316fb7a92d09700f2c43f0f17688ac44fb0a00000000001976a91476f249240f2adb2e54242c55f713b52cc4e1412788ac02483045022100bf88dc2a791071c3ccef84dc7d1b8f864138010d8d8d9cb0101a0a3edc19125b02203778fbda7a33f7fa758fd6364d7c09c76abf5d31ae70e0df049ea574a5108bb80121034579e56c963597cd209ced6e9b99943cdf1516aad4102e838d0aa8992651401910490800", "vin": [{"txinwitness": ["3045022100bf88dc2a791071c3ccef84dc7d1b8f864138010d8d8d9cb0101a0a3edc19125b02203778fbda7a33f7fa758fd6364d7c09c76abf5d31ae70e0df049ea574a5108bb801", "034579e56c963597cd209ced6e9b99943cdf1516aad4102e838d0aa89926514019"], "sequence": 4294967294, "scriptSig": {"hex": "1600146a9bca0fc1c32f5bd01ce06d93b1c262e4d48052", "asm": "00146a9bca0fc1c32f5bd01ce06d93b1c262e4d48052"}, "vout": 4, "txid": "85f77b61f916c42160e4ec6c5489ebb56563ddf326316591e597a7952186ad0b"}], "txid": "a85a69fa1515aa906715274ce37e23992b5c527e81684fed56a0a0382abb5c2a", "blocktime": 1537871767, "version": 2, "confirmations": 11490, "time": 1537871767, "locktime": 542992, "vsize": 1282, "size": 1364}