{"hash": "a85b3a7d770249f1ca4db0ea9fef9fc23beeed2dd4d40f3248b89fba1ff64134", "blockhash": "00000000000000000017f5eb5941039fbcee6240d03bc1f2f8e35350df66a1d8", "vout": [{"scriptPubKey": {"type": "nulldata", "hex": "6a4c50000077fc0001024291d4c6f5cc6431af6411d19ed074892d00f8e87af8e8e963c7cfd5b9f682f669bcef1809ebfb471da22bee5d5baa19670613a51606938be4bc9a9526289ac0f6612cd74e33776ee4", "asm": "OP_RETURN 000077fc0001024291d4c6f5cc6431af6411d19ed074892d00f8e87af8e8e963c7cfd5b9f682f669bcef1809ebfb471da22bee5d5baa19670613a51606938be4bc9a9526289ac0f6612cd74e33776ee4"}, "value": 0.0, "n": 0}, {"scriptPubKey": {"reqSigs": 1, "hex": "76a914b362308597d2a9bf14726f23dfac7229c6c16b7788ac", "addresses": ["1HMVafehzsSfZbCP8ZkTtbJbyRD3cokZ2S"], "asm": "OP_DUP OP_HASH160 b362308597d2a9bf14726f23dfac7229c6c16b77 OP_EQUALVERIFY OP_CHECKSIG", "type": "pubkeyhash"}, "value": 0.0012298, "n": 1}], "hex": "01000000013bebb9fc3d417342de9ff74f189e206dd428cf9536a61316258641dfee13c1f4010000006a47304402200ffc7679a8378cd2bb8ec15da7a539f13564739962a08c0e618cdfd0ddc72b84022015310e3d90e2566576beadc848c44f99c49e19e856c19e3a34981c6c07da250d012103b945b35cd6b00d2bc152cd48a9f35ed010b3ff5a4d303aaa1c1775901bdc6b76ffffffff020000000000000000536a4c50000077fc0001024291d4c6f5cc6431af6411d19ed074892d00f8e87af8e8e963c7cfd5b9f682f669bcef1809ebfb471da22bee5d5baa19670613a51606938be4bc9a9526289ac0f6612cd74e33776ee464e00100000000001976a914b362308597d2a9bf14726f23dfac7229c6c16b7788ac00000000", "vin": [{"sequence": 4294967295, "scriptSig": {"hex": "47304402200ffc7679a8378cd2bb8ec15da7a539f13564739962a08c0e618cdfd0ddc72b84022015310e3d90e2566576beadc848c44f99c49e19e856c19e3a34981c6c07da250d012103b945b35cd6b00d2bc152cd48a9f35ed010b3ff5a4d303aaa1c1775901bdc6b76", "asm": "304402200ffc7679a8378cd2bb8ec15da7a539f13564739962a08c0e618cdfd0ddc72b84022015310e3d90e2566576beadc848c44f99c49e19e856c19e3a34981c6c07da250d[ALL] 03b945b35cd6b00d2bc152cd48a9f35ed010b3ff5a4d303aaa1c1775901bdc6b76"}, "vout": 1, "txid": "f4c113eedf4186251613a63695cf28d46d209e184ff79fde4273413dfcb9eb3b"}], "txid": "a85b3a7d770249f1ca4db0ea9fef9fc23beeed2dd4d40f3248b89fba1ff64134", "blocktime": 1537874412, "version": 1, "confirmations": 11467, "time": 1537874412, "locktime": 0, "vsize": 283, "size": 283}