{"hash": "a85e3f8c50a2d3e4728385492369da886408f0050387fb7ff5e32d4267204552", "blockhash": "0000000000000000001f76057863aec43deb6fa401d9628bb513d65a8098bfab", "vout": [{"scriptPubKey": {"reqSigs": 1, "hex": "76a914484e13878a073bca520747c30adafa109e64956188ac", "addresses": ["17bKBeYYheQ2pf5NgLwXfAWBLEuDzeWGnV"], "asm": "OP_DUP OP_HASH160 484e13878a073bca520747c30adafa109e649561 OP_EQUALVERIFY OP_CHECKSIG", "type": "pubkeyhash"}, "value": 0.00714091, "n": 0}, {"scriptPubKey": {"reqSigs": 1, "hex": "76a914f5883d4b82d8c378afeb7e39dd67c2222b4a62d288ac", "addresses": ["1PPFm5evzYE39v1TFLtvSMF7f3zc1nvUUz"], "asm": "OP_DUP OP_HASH160 f5883d4b82d8c378afeb7e39dd67c2222b4a62d2 OP_EQUALVERIFY OP_CHECKSIG", "type": "pubkeyhash"}, "value": 0.21080147, "n": 1}], "hex": "0100000005c7dc0d061e6ec218965bc33b1da13ab7ad0fc9eddd7daf327f916858178d480a000000006a47304402204db965a39de7bf8face84aca0742e513fbd54ba8d9c33626058d79ac774f0e1402202d860fa8853b9856bd87ce2be8365c86ea55e965786c38058822ad17aa172d600121038c1ba69d79372f37599fc8ed8625d8fc6f59a28fbd92dc0d04a655f1a64b0671feffffff23e487d8d88f77b707d0c3857b72ec81dad2798812dc2341074c4fe836ec6313090000006b483045022100af51d7dac1fdf69419857a4ca8d6e2d23d2ea6be04842f7a229899091c82ef8e022054842f5e61e9cca54b311c5a0ef85ff05e32a3c244806f08e7110b74034c959b012103b244fb6d0ccdf1af6725296ac034778f040a88a998c0d6222dadb02f06ed27defefffffff86efa41fd110b73d50e2a3ec5463b1341005a6ffe174950f810719433193c1d010000006b483045022100ea447e8e69ff83b2be3c0247ed0fbb2152ad155e54d82658d8188761967ea59502207cb935cd71d02a6eadc8d8be38360aa23901feb944a86f27f543107b42cb967e0121031173d974871f24bcb5e28e957207639fda909eb82fda590d880cc858f0311af6feffffff6ba2dcd5f39900d71ba13213c984d7f0d0859840ee48d4887d9950e759e5b062010000006a47304402205de14c92eb8ba6a02cb1919d1c685e5c31b724b56f7c57636ad9628bc020848702207815b7ba72fdb22371fc57b9ef19d64e703e22c74f2903ae8aa2ae64588af4410121024ca43ea78961962716e947f547ad6c90779b8d822b1a06ef63852f5535b32f29fefffffffadd97f3268ac12ebc56175240843625f109428364951472f072d7ba7caf10f5010000006a473044022062df0875aeb60067e257d1ce56eb654d240e91407daeacbe9b3ea73a3891c090022048b2e0aa554d9d606471962e00727349dc8a3ed0b1ad3a47293e4c3aa8cd046c0121027ee7835fc8f41f38c1c4038ce7c4a950ac2ac7fc1c0fd702616db18a54b5e94cfeffffff026be50a00000000001976a914484e13878a073bca520747c30adafa109e64956188ac53a84101000000001976a914f5883d4b82d8c378afeb7e39dd67c2222b4a62d288ac00000000", "vin": [{"sequence": 4294967294, "scriptSig": {"hex": "47304402204db965a39de7bf8face84aca0742e513fbd54ba8d9c33626058d79ac774f0e1402202d860fa8853b9856bd87ce2be8365c86ea55e965786c38058822ad17aa172d600121038c1ba69d79372f37599fc8ed8625d8fc6f59a28fbd92dc0d04a655f1a64b0671", "asm": "304402204db965a39de7bf8face84aca0742e513fbd54ba8d9c33626058d79ac774f0e1402202d860fa8853b9856bd87ce2be8365c86ea55e965786c38058822ad17aa172d60[ALL] 038c1ba69d79372f37599fc8ed8625d8fc6f59a28fbd92dc0d04a655f1a64b0671"}, "vout": 0, "txid": "0a488d175868917f32af7dddedc90fadb73aa11d3bc35b9618c26e1e060ddcc7"}, {"sequence": 4294967294, "scriptSig": {"hex": "483045022100af51d7dac1fdf69419857a4ca8d6e2d23d2ea6be04842f7a229899091c82ef8e022054842f5e61e9cca54b311c5a0ef85ff05e32a3c244806f08e7110b74034c959b012103b244fb6d0ccdf1af6725296ac034778f040a88a998c0d6222dadb02f06ed27de", "asm": "3045022100af51d7dac1fdf69419857a4ca8d6e2d23d2ea6be04842f7a229899091c82ef8e022054842f5e61e9cca54b311c5a0ef85ff05e32a3c244806f08e7110b74034c959b[ALL] 03b244fb6d0ccdf1af6725296ac034778f040a88a998c0d6222dadb02f06ed27de"}, "vout": 9, "txid": "1363ec36e84f4c074123dc128879d2da81ec727b85c3d007b7778fd8d887e423"}, {"sequence": 4294967294, "scriptSig": {"hex": "483045022100ea447e8e69ff83b2be3c0247ed0fbb2152ad155e54d82658d8188761967ea59502207cb935cd71d02a6eadc8d8be38360aa23901feb944a86f27f543107b42cb967e0121031173d974871f24bcb5e28e957207639fda909eb82fda590d880cc858f0311af6", "asm": "3045022100ea447e8e69ff83b2be3c0247ed0fbb2152ad155e54d82658d8188761967ea59502207cb935cd71d02a6eadc8d8be38360aa23901feb944a86f27f543107b42cb967e[ALL] 031173d974871f24bcb5e28e957207639fda909eb82fda590d880cc858f0311af6"}, "vout": 1, "txid": "1d3c1933947110f8504917fe6f5a0041133b46c53e2a0ed5730b11fd41fa6ef8"}, {"sequence": 4294967294, "scriptSig": {"hex": "47304402205de14c92eb8ba6a02cb1919d1c685e5c31b724b56f7c57636ad9628bc020848702207815b7ba72fdb22371fc57b9ef19d64e703e22c74f2903ae8aa2ae64588af4410121024ca43ea78961962716e947f547ad6c90779b8d822b1a06ef63852f5535b32f29", "asm": "304402205de14c92eb8ba6a02cb1919d1c685e5c31b724b56f7c57636ad9628bc020848702207815b7ba72fdb22371fc57b9ef19d64e703e22c74f2903ae8aa2ae64588af441[ALL] 024ca43ea78961962716e947f547ad6c90779b8d822b1a06ef63852f5535b32f29"}, "vout": 1, "txid": "62b0e559e750997d88d448ee409885d0f0d784c91332a11bd70099f3d5dca26b"}, {"sequence": 4294967294, "scriptSig": {"hex": "473044022062df0875aeb60067e257d1ce56eb654d240e91407daeacbe9b3ea73a3891c090022048b2e0aa554d9d606471962e00727349dc8a3ed0b1ad3a47293e4c3aa8cd046c0121027ee7835fc8f41f38c1c4038ce7c4a950ac2ac7fc1c0fd702616db18a54b5e94c", "asm": "3044022062df0875aeb60067e257d1ce56eb654d240e91407daeacbe9b3ea73a3891c090022048b2e0aa554d9d606471962e00727349dc8a3ed0b1ad3a47293e4c3aa8cd046c[ALL] 027ee7835fc8f41f38c1c4038ce7c4a950ac2ac7fc1c0fd702616db18a54b5e94c"}, "vout": 1, "txid": "f510af7cbad772f072149564834209f125368440521756bc2ec18a26f397ddfa"}], "txid": "a85e3f8c50a2d3e4728385492369da886408f0050387fb7ff5e32d4267204552", "blocktime": 1537873891, "version": 1, "confirmations": 11479, "time": 1537873891, "locktime": 0, "vsize": 815, "size": 815}