{"hash": "a33e42df0da382d1e3666655d59b6cfad485480ff817cf2ab4e781ea9e8a1ed4", "blockhash": "0000000000000000000baef3f32e3676a92c3b2e5da21b426e4f302fc371ce76", "vout": [{"scriptPubKey": {"reqSigs": 1, "hex": "a9140e74ed114d0fc0384394aa5ef9423ce8ee9b692587", "addresses": ["331TTPmkSG672Baa9gwtJAN6FED2PWhDNc"], "asm": "OP_HASH160 0e74ed114d0fc0384394aa5ef9423ce8ee9b6925 OP_EQUAL", "type": "scripthash"}, "value": 0.00840262, "n": 0}, {"scriptPubKey": {"reqSigs": 1, "hex": "a914dd90f5e9a8be0239af50de1824c440ab8f18316087", "addresses": ["3MtYuydEFxRPFnLmoXFxjQ6HZiGYAAuJX7"], "asm": "OP_HASH160 dd90f5e9a8be0239af50de1824c440ab8f183160 OP_EQUAL", "type": "scripthash"}, "value": 13.6734448, "n": 1}], "hex": "0200000000010157ed9bc330a0de48d9973408b5dbde4563741244a22f74bad58309cbcfb8787401000000171600142e53044a8e273e3ffbdb77091ad2483a7a296114ffffffff0246d20c000000000017a9140e74ed114d0fc0384394aa5ef9423ce8ee9b692587600580510000000017a914dd90f5e9a8be0239af50de1824c440ab8f1831608702473044022013fc2210f13320bab064768591285bb461dfa0a86bacb2bb3a2c4522eeea1e81022068492f63cb6e041af31d97f36fbac298ce7e58b9c4a8767723228bfe700115950121036faa3e1612dc83eb91607a59594eb58c2f6e3e0540708827160a1f0c25fc797f00000000", "vin": [{"txinwitness": ["3044022013fc2210f13320bab064768591285bb461dfa0a86bacb2bb3a2c4522eeea1e81022068492f63cb6e041af31d97f36fbac298ce7e58b9c4a8767723228bfe7001159501", "036faa3e1612dc83eb91607a59594eb58c2f6e3e0540708827160a1f0c25fc797f"], "sequence": 4294967295, "scriptSig": {"hex": "1600142e53044a8e273e3ffbdb77091ad2483a7a296114", "asm": "00142e53044a8e273e3ffbdb77091ad2483a7a296114"}, "vout": 1, "txid": "7478b8cfcb0983d5ba742fa24412746345dedbb5083497d948dea030c39bed57"}], "txid": "a8646b2e77c034dea7eb51cbd3063ea40fadfc4661074d8e7ed4b1a25746cceb", "blocktime": 1537876114, "version": 2, "confirmations": 11460, "time": 1537876114, "locktime": 0, "vsize": 166, "size": 247}