{"hash": "1066117cecf6cb12024d2e6ca43110adc3ddb27eed2ac83e10cfe77c3cb9131f", "blockhash": "0000000000000000000e13cef7c366c0283d82e591d1acd082e914b08063cdf1", "vout": [{"scriptPubKey": {"reqSigs": 1, "hex": "0014f639d970bf5869fd8a38eb408e6af787a133281a", "addresses": ["bc1q7cuaju9ltp5lmz3cadqgu6hhs7snx2q6fz08fd"], "asm": "0 f639d970bf5869fd8a38eb408e6af787a133281a", "type": "witness_v0_keyhash"}, "value": 0.45752827, "n": 0}, {"scriptPubKey": {"reqSigs": 1, "hex": "76a91462f9a19bb360a0c3c690c954a73ac93b0defb7bb88ac", "addresses": ["1A2LGV8JrkBhHwfUaMMLy55eF2uQ2wYnWE"], "asm": "OP_DUP OP_HASH160 62f9a19bb360a0c3c690c954a73ac93b0defb7bb OP_EQUALVERIFY OP_CHECKSIG", "type": "pubkeyhash"}, "value": 0.010552, "n": 1}], "hex": "010000000001018e565f5fd29c8343e59b9e918c7c27241fae5bc6db03a64d3b48696d83ae58260000000000ffffffff02fb21ba0200000000160014f639d970bf5869fd8a38eb408e6af787a133281ae0191000000000001976a91462f9a19bb360a0c3c690c954a73ac93b0defb7bb88ac02483045022100d3a185d323094b4d0f9f0643660d57c480ce2e4a7e811264ce75a3b6aa0073800220062dc4b4d806582d8ddadfd110ddb108815a7afa13c5d36b7f5398c3fd4517d60121029eb1d9979f38ae61063f90993ef8f8198b88d88f2962a24f0036d1d1225a1e3f00000000", "vin": [{"txinwitness": ["3045022100d3a185d323094b4d0f9f0643660d57c480ce2e4a7e811264ce75a3b6aa0073800220062dc4b4d806582d8ddadfd110ddb108815a7afa13c5d36b7f5398c3fd4517d601", "029eb1d9979f38ae61063f90993ef8f8198b88d88f2962a24f0036d1d1225a1e3f"], "sequence": 4294967295, "scriptSig": {"hex": "", "asm": ""}, "vout": 0, "txid": "2658ae836d69483b4da603dbc65bae1f24277c8c919e9be543839cd25f5f568e"}], "txid": "a869240b37cde2a30b59a891c2a37f5e74ab394c13a3b468645fc59e6436819d", "blocktime": 1537871767, "version": 1, "confirmations": 11495, "time": 1537871767, "locktime": 0, "vsize": 144, "size": 226}