{"hash": "a86b70479dd28b06afce32d52f02554d82990e0ec85a28929f611cd1ad54d89f", "blockhash": "0000000000000000000baef3f32e3676a92c3b2e5da21b426e4f302fc371ce76", "vout": [{"scriptPubKey": {"reqSigs": 1, "hex": "a9143130c75a20c533f688821fc8be1687a1616ccd9e87", "addresses": ["36B7U9YzM6TTBAwWqFUTSpDtYppUvnJw9G"], "asm": "OP_HASH160 3130c75a20c533f688821fc8be1687a1616ccd9e OP_EQUAL", "type": "scripthash"}, "value": 0.036976, "n": 0}, {"scriptPubKey": {"reqSigs": 1, "hex": "76a914665c1e2b536a0420a7e77a174729580acf5ccb1088ac", "addresses": ["1ALEH2Zw6c5yhGBQ6bx9H5V9R4jj6vLgDT"], "asm": "OP_DUP OP_HASH160 665c1e2b536a0420a7e77a174729580acf5ccb10 OP_EQUALVERIFY OP_CHECKSIG", "type": "pubkeyhash"}, "value": 10.51971392, "n": 1}], "hex": "0100000001777570d5f63671b2b950e8ea45de95e5a6cfb9b45541563948143e9844e5aadc010000006b483045022100a348497d635856dcb160de294f5d606190d4bc8a489041adf28bc8a2e80186e002201931abf26632d15b416bc9e4337b4b2460d981935e503049d9b98da554a2b6bc01210343c074b8e429db406a3cbd84df9f306f32d5c2b3764d37dff36d8f0b53ab3c09ffffffff02c06b38000000000017a9143130c75a20c533f688821fc8be1687a1616ccd9e8740cfb33e000000001976a914665c1e2b536a0420a7e77a174729580acf5ccb1088ac00000000", "vin": [{"sequence": 4294967295, "scriptSig": {"hex": "483045022100a348497d635856dcb160de294f5d606190d4bc8a489041adf28bc8a2e80186e002201931abf26632d15b416bc9e4337b4b2460d981935e503049d9b98da554a2b6bc01210343c074b8e429db406a3cbd84df9f306f32d5c2b3764d37dff36d8f0b53ab3c09", "asm": "3045022100a348497d635856dcb160de294f5d606190d4bc8a489041adf28bc8a2e80186e002201931abf26632d15b416bc9e4337b4b2460d981935e503049d9b98da554a2b6bc[ALL] 0343c074b8e429db406a3cbd84df9f306f32d5c2b3764d37dff36d8f0b53ab3c09"}, "vout": 1, "txid": "dcaae544983e144839564155b4b9cfa6e595de45eae850b9b27136f6d5707577"}], "txid": "a86b70479dd28b06afce32d52f02554d82990e0ec85a28929f611cd1ad54d89f", "blocktime": 1537876114, "version": 1, "confirmations": 11460, "time": 1537876114, "locktime": 0, "vsize": 224, "size": 224}