{"hash": "a86ea6b9415239583baaaaf7e2ae74da7051e592c11bc1ae3fff1e3ee2ab9a6e", "blockhash": "0000000000000000001cda96e906b7601b7a6fb1a3b62bca570a9e5d8f4b3de1", "vout": [{"scriptPubKey": {"reqSigs": 1, "hex": "76a914718710dbc29633fb4a97fbb1b60a752c8b052a5688ac", "addresses": ["1BMHADaU379dA4qPBTH3s9Sh8aJbrP8CHt"], "asm": "OP_DUP OP_HASH160 718710dbc29633fb4a97fbb1b60a752c8b052a56 OP_EQUALVERIFY OP_CHECKSIG", "type": "pubkeyhash"}, "value": 3.198e-05, "n": 0}, {"scriptPubKey": {"reqSigs": 1, "hex": "76a9145a4541f8e3273031c6e120d43aa6a3c61f56f82c88ac", "addresses": ["19EJnNiPNS4HBqvnAaL6amUBTFmYZWS9HJ"], "asm": "OP_DUP OP_HASH160 5a4541f8e3273031c6e120d43aa6a3c61f56f82c OP_EQUALVERIFY OP_CHECKSIG", "type": "pubkeyhash"}, "value": 0.00637, "n": 1}], "hex": "01000000025d39bdc4b3da07a69c18e79e335365cce936ae5c240bf68e54327e51be5680310b0000006a4730440220783c524dd8b275d8e94cd1cc595b287c0eb8c8fb6d2f66b6768ad11c64d2d12e0220113bf7a085eb63450dc15c647c7ebe3c447c47e4510bb649351fb5f8fb038e31012102c29f893f35764d318b57fb994ef35b428c50a4816c186450bc1c74aa463d4077ffffffff22db0a1c6b7b05f21d643483dfe4ea422718ff63d4e0569718986ffe85ededca000000006b483045022100d619b80929e2d769982f64c92e4aea7e4d9e33641602d99117adfef5221e26a302201dab1cb82a2762cc7ef3cc7f0f11d858caea6cc36168f2cce7f4c239ec2c239f0121024490a65502cc6a8e8713fcd5f04fe54b6549a83d528339e94c8e95e1a853b081ffffffff027e0c0000000000001976a914718710dbc29633fb4a97fbb1b60a752c8b052a5688ac48b80900000000001976a9145a4541f8e3273031c6e120d43aa6a3c61f56f82c88ac00000000", "vin": [{"sequence": 4294967295, "scriptSig": {"hex": "4730440220783c524dd8b275d8e94cd1cc595b287c0eb8c8fb6d2f66b6768ad11c64d2d12e0220113bf7a085eb63450dc15c647c7ebe3c447c47e4510bb649351fb5f8fb038e31012102c29f893f35764d318b57fb994ef35b428c50a4816c186450bc1c74aa463d4077", "asm": "30440220783c524dd8b275d8e94cd1cc595b287c0eb8c8fb6d2f66b6768ad11c64d2d12e0220113bf7a085eb63450dc15c647c7ebe3c447c47e4510bb649351fb5f8fb038e31[ALL] 02c29f893f35764d318b57fb994ef35b428c50a4816c186450bc1c74aa463d4077"}, "vout": 11, "txid": "318056be517e32548ef60b245cae36e9cc6553339ee7189ca607dab3c4bd395d"}, {"sequence": 4294967295, "scriptSig": {"hex": "483045022100d619b80929e2d769982f64c92e4aea7e4d9e33641602d99117adfef5221e26a302201dab1cb82a2762cc7ef3cc7f0f11d858caea6cc36168f2cce7f4c239ec2c239f0121024490a65502cc6a8e8713fcd5f04fe54b6549a83d528339e94c8e95e1a853b081", "asm": "3045022100d619b80929e2d769982f64c92e4aea7e4d9e33641602d99117adfef5221e26a302201dab1cb82a2762cc7ef3cc7f0f11d858caea6cc36168f2cce7f4c239ec2c239f[ALL] 024490a65502cc6a8e8713fcd5f04fe54b6549a83d528339e94c8e95e1a853b081"}, "vout": 0, "txid": "caeded85fe6f98189756e0d463ff182742eae4df8334641df2057b6b1c0adb22"}], "txid": "a86ea6b9415239583baaaaf7e2ae74da7051e592c11bc1ae3fff1e3ee2ab9a6e", "blocktime": 1537873282, "version": 1, "confirmations": 11484, "time": 1537873282, "locktime": 0, "vsize": 373, "size": 373}