{"hash": "f4061c78f41e4aee57045c473009a694bdddd7b996311dd3ac355155e5d732be", "blockhash": "0000000000000000000e13cef7c366c0283d82e591d1acd082e914b08063cdf1", "vout": [{"scriptPubKey": {"reqSigs": 1, "hex": "a914571451d24dbe12b8c47707e7efcfcfb726f9733987", "addresses": ["39dT44hdKB33F4tzeebMdZdSu16QTstp7f"], "asm": "OP_HASH160 571451d24dbe12b8c47707e7efcfcfb726f97339 OP_EQUAL", "type": "scripthash"}, "value": 0.00259753, "n": 0}, {"scriptPubKey": {"reqSigs": 1, "hex": "a9149a8f4cb8ffc34af191b5f5577104956cd415417687", "addresses": ["3FnFeiu6AD74aA53z6FQgD17n3anWC1gh5"], "asm": "OP_HASH160 9a8f4cb8ffc34af191b5f5577104956cd4154176 OP_EQUAL", "type": "scripthash"}, "value": 0.00998256, "n": 1}], "hex": "02000000000101ce09494749bc6065cdea6538f81ba090e3758b7a9cd8b8880c176eae0f0722860300000017160014b4240bdc3ad424a6fd27a771da921b7427368170feffffff02a9f603000000000017a914571451d24dbe12b8c47707e7efcfcfb726f9733987703b0f000000000017a9149a8f4cb8ffc34af191b5f5577104956cd415417687024830450221009d7626f4514d98732194f52b361190cb2f704dbdbb59b3b02ccc66337ed436d1022046392399bb063d5b18bcaef0b1fe5778bb68bd97eff022a1db924a1792f6077c0121032629f375ddaa54b99b08961b3e9ad74e621cbd8fdada173659f01fb8f87dafb910490800", "vin": [{"txinwitness": ["30450221009d7626f4514d98732194f52b361190cb2f704dbdbb59b3b02ccc66337ed436d1022046392399bb063d5b18bcaef0b1fe5778bb68bd97eff022a1db924a1792f6077c01", "032629f375ddaa54b99b08961b3e9ad74e621cbd8fdada173659f01fb8f87dafb9"], "sequence": 4294967294, "scriptSig": {"hex": "160014b4240bdc3ad424a6fd27a771da921b7427368170", "asm": "0014b4240bdc3ad424a6fd27a771da921b7427368170"}, "vout": 3, "txid": "8622070fae6e170c88b8d89c7a8b75e390a01bf83865eacd6560bc49474909ce"}], "txid": "a87377169b9181df155c40b807b2fe2249e830834beb6eefd78e043bcf7bec3c", "blocktime": 1537871767, "version": 2, "confirmations": 11491, "time": 1537871767, "locktime": 542992, "vsize": 166, "size": 248}