{"hash": "dd31c30b5a6b45c32dbcb083c1fa51d4c3bb8f79cb7afc79ef520b79552bfb3b", "blockhash": "00000000000000000017f5eb5941039fbcee6240d03bc1f2f8e35350df66a1d8", "vout": [{"scriptPubKey": {"reqSigs": 1, "hex": "a9141449d3cea1f8ff986424ce3e403e689f364730c287", "addresses": ["33YHszj4GEseKWrkQQC3cpKpcEmaTE2GZK"], "asm": "OP_HASH160 1449d3cea1f8ff986424ce3e403e689f364730c2 OP_EQUAL", "type": "scripthash"}, "value": 0.0099972, "n": 0}, {"scriptPubKey": {"reqSigs": 1, "hex": "76a914be5b5f1213ac6d0263325fd8c2e74e9fa40b72b088ac", "addresses": ["1JMWr3Rjp1Z1NFSnhERbVJQq9eVE1AZPDb"], "asm": "OP_DUP OP_HASH160 be5b5f1213ac6d0263325fd8c2e74e9fa40b72b0 OP_EQUALVERIFY OP_CHECKSIG", "type": "pubkeyhash"}, "value": 0.00892401, "n": 1}], "hex": "020000000001024ca7834b7613ce240acf30aeade1bdc342fa5f1ab354cf4d5d0e26203915e6d20b000000171600142a15e3060149d3e0de2488946f872f3fc7c035c0feffffff71bc9e9a52b6ea46c8049063e4890673039de51a80f9b62817f819b471c586ef0100000017160014ac37850b007f1cb199258239d9d8fde63c3be2f5feffffff0228410f000000000017a9141449d3cea1f8ff986424ce3e403e689f364730c287f19d0d00000000001976a914be5b5f1213ac6d0263325fd8c2e74e9fa40b72b088ac02483045022100a55839ebdd50c9a1e2c95669a3f0e978725cdd590a4774316026938f90388eec02201d8e2b06c2861979d83633afed1187f9013a113c8aa5f6a8872fb2b798436c4201210362101a92d87d0a254d5f70468476ba51e92ca45b1c6f19a3b5253ce56abd7b300247304402206d8b8c006a1cf16625477641bbd45847f526d6b090281d13405eb45b29354597022067f4d46b0c56bd7fe0b4ffe8e705302fc2b2c3d55fdd4cf8063e792cb1c40a6d01210367f3a13b06c63e975f43d5d3ba7b458041f3269ffa2adbaa48e56dea4beca6dd15490800", "vin": [{"txinwitness": ["3045022100a55839ebdd50c9a1e2c95669a3f0e978725cdd590a4774316026938f90388eec02201d8e2b06c2861979d83633afed1187f9013a113c8aa5f6a8872fb2b798436c4201", "0362101a92d87d0a254d5f70468476ba51e92ca45b1c6f19a3b5253ce56abd7b30"], "sequence": 4294967294, "scriptSig": {"hex": "1600142a15e3060149d3e0de2488946f872f3fc7c035c0", "asm": "00142a15e3060149d3e0de2488946f872f3fc7c035c0"}, "vout": 11, "txid": "d2e6153920260e5d4dcf54b31a5ffa42c3bde1adae30cf0a24ce13764b83a74c"}, {"txinwitness": ["304402206d8b8c006a1cf16625477641bbd45847f526d6b090281d13405eb45b29354597022067f4d46b0c56bd7fe0b4ffe8e705302fc2b2c3d55fdd4cf8063e792cb1c40a6d01", "0367f3a13b06c63e975f43d5d3ba7b458041f3269ffa2adbaa48e56dea4beca6dd"], "sequence": 4294967294, "scriptSig": {"hex": "160014ac37850b007f1cb199258239d9d8fde63c3be2f5", "asm": "0014ac37850b007f1cb199258239d9d8fde63c3be2f5"}, "vout": 1, "txid": "ef86c571b419f81728b6f9801ae59d03730689e4639004c846eab6529a9ebc71"}], "txid": "a8756527d745f9c2ef7943e7284df8c0758cc6a4551f455c54077c0c8b76d961", "blocktime": 1537874412, "version": 2, "confirmations": 11468, "time": 1537874412, "locktime": 542997, "vsize": 259, "size": 421}