{"hash": "a323768251d326f6f2a950e1fb49ac738e66ff901b13c300643b892e6d6a3263", "blockhash": "0000000000000000001f76057863aec43deb6fa401d9628bb513d65a8098bfab", "vout": [{"scriptPubKey": {"reqSigs": 1, "hex": "76a914cc3c6aedac2ba1fd74ad545f6a1704971e9d1fe388ac", "addresses": ["1KcuE2dKYdCL8ZxB4QRjc25zhpy2if9zHL"], "asm": "OP_DUP OP_HASH160 cc3c6aedac2ba1fd74ad545f6a1704971e9d1fe3 OP_EQUALVERIFY OP_CHECKSIG", "type": "pubkeyhash"}, "value": 0.00137616, "n": 0}, {"scriptPubKey": {"reqSigs": 1, "hex": "a914f5342287aaa57f5c05756dbd5ef14091cc70030f87", "addresses": ["3Q3XvwKWsx3ocmCXheK6pAo5ieooFx75hh"], "asm": "OP_HASH160 f5342287aaa57f5c05756dbd5ef14091cc70030f OP_EQUAL", "type": "scripthash"}, "value": 0.08762737, "n": 1}], "hex": "0100000000010172ccd28aed44b8543fc2ee5a65fe1f012117a53fcce62a2e9341f5f7ec012fd001000000232200204fd7968ffe15cb453352a1e9ee2915eff8b6d6252d5a351f9092b82ca10eb12cffffffff0290190200000000001976a914cc3c6aedac2ba1fd74ad545f6a1704971e9d1fe388ac71b585000000000017a914f5342287aaa57f5c05756dbd5ef14091cc70030f870400473044022010eede54bffe5ba6c1a1e62850e7a3e4d714ed7d09bac8f14a3f96673fbfdb2a022069c6c66c5cf09b7b01c77a76543755a93ed21a91fb17038aec276d09ec75792a014730440220476f237c99d9a3d53941800c886986baa1de2d350a5d4b928b65a8f03276146102203b1dd1ee686f641964a2c4d5173ad8ff5890a03bedadbb69e2ed8e1891c2a7a10147522103b70e79262cbb7310fe069dea7c473b53276b75c67fb841ff66279f152a3fe0172103871fc2ca08e6950b38867e8e6a0e94ee625223d3aa0df5c65f414c6d784467e252ae00000000", "vin": [{"txinwitness": ["", "3044022010eede54bffe5ba6c1a1e62850e7a3e4d714ed7d09bac8f14a3f96673fbfdb2a022069c6c66c5cf09b7b01c77a76543755a93ed21a91fb17038aec276d09ec75792a01", "30440220476f237c99d9a3d53941800c886986baa1de2d350a5d4b928b65a8f03276146102203b1dd1ee686f641964a2c4d5173ad8ff5890a03bedadbb69e2ed8e1891c2a7a101", "522103b70e79262cbb7310fe069dea7c473b53276b75c67fb841ff66279f152a3fe0172103871fc2ca08e6950b38867e8e6a0e94ee625223d3aa0df5c65f414c6d784467e252ae"], "sequence": 4294967295, "scriptSig": {"hex": "2200204fd7968ffe15cb453352a1e9ee2915eff8b6d6252d5a351f9092b82ca10eb12c", "asm": "00204fd7968ffe15cb453352a1e9ee2915eff8b6d6252d5a351f9092b82ca10eb12c"}, "vout": 1, "txid": "d02f01ecf7f541932e2ae6cc3fa51721011ffe655aeec23f54b844ed8ad2cc72"}], "txid": "a87668ec8ab64a56b59b9a8a97c6bf12559e5beca705fdeea0f0373a8dd3fd70", "blocktime": 1537873891, "version": 1, "confirmations": 11478, "time": 1537873891, "locktime": 0, "vsize": 207, "size": 372}