{"hash": "a87a326a8301d107649ea868f763d3cef49c9861d629f9000400de5e450c8eb2", "blockhash": "0000000000000000000e13cef7c366c0283d82e591d1acd082e914b08063cdf1", "vout": [{"scriptPubKey": {"reqSigs": 1, "hex": "76a914c3b25cb0beb39d6bd1cc9d96096a2e9e6fc21b5188ac", "addresses": ["1JqkSDpGoZxsUMdmRVizEw7BxwVdiyvyLf"], "asm": "OP_DUP OP_HASH160 c3b25cb0beb39d6bd1cc9d96096a2e9e6fc21b51 OP_EQUALVERIFY OP_CHECKSIG", "type": "pubkeyhash"}, "value": 1.223e-05, "n": 0}, {"scriptPubKey": {"reqSigs": 1, "hex": "76a914d7f36ce9ef10e1adb99c0d907a2f551e0f05de4988ac", "addresses": ["1LgqtjvALyoRnzU3taWLqQX1hLkFrqvY5d"], "asm": "OP_DUP OP_HASH160 d7f36ce9ef10e1adb99c0d907a2f551e0f05de49 OP_EQUALVERIFY OP_CHECKSIG", "type": "pubkeyhash"}, "value": 0.06830067, "n": 1}], "hex": "0100000003a07897ff825c5ad66fb712a4c60dedf829b96f3938f0cfc6328613d6c8043976000000006a47304402200ef54f799bf916623505bbab41ad9d42a3520cde3c6092bda0b9a14e84b84242022017b046a661f724330f95d57f95acdda9f2bd1674a59ca79b4d09fac069a2b83d012103cf09f62e0204a14a062a267f931e2d394f608930759c1dd62eae2dcfa5fbca47ffffffff98ef6113e1ca5499bda9429c5e294e441b2a01087c96b3256fece173cb477bc6010000006b483045022100bb17dffce015b909efd5fa35383f77aed81b5f0291c7ebe0277a33f6e94482fe022066fff50245a112a7e5e8a9698855d839356021a24f91a7223f413aa01bb9674c0121022d4582d63d72a8975b92a282b3955d090b7717c5b6ee38a36dc26c691eb7176bffffffff02d43ff66dcaffb15b3e1e7ca17d9b185cce40a8652ec609b271886e399d7fcc000000006a47304402204fe14f169209f5f674380fab4e5b7846f90d49c3de2dc488eeb79c708014fe6d02201f5cf6e5460bcd75bda69d33279a39a08017d092a98e886e7a5c821541c2aaff01210280ded59d665a3967fec34e82ca22cf4bb5fac6425ac8c081fca066cb8d9276e0ffffffff02c7040000000000001976a914c3b25cb0beb39d6bd1cc9d96096a2e9e6fc21b5188acf3376800000000001976a914d7f36ce9ef10e1adb99c0d907a2f551e0f05de4988ac00000000", "vin": [{"sequence": 4294967295, "scriptSig": {"hex": "47304402200ef54f799bf916623505bbab41ad9d42a3520cde3c6092bda0b9a14e84b84242022017b046a661f724330f95d57f95acdda9f2bd1674a59ca79b4d09fac069a2b83d012103cf09f62e0204a14a062a267f931e2d394f608930759c1dd62eae2dcfa5fbca47", "asm": "304402200ef54f799bf916623505bbab41ad9d42a3520cde3c6092bda0b9a14e84b84242022017b046a661f724330f95d57f95acdda9f2bd1674a59ca79b4d09fac069a2b83d[ALL] 03cf09f62e0204a14a062a267f931e2d394f608930759c1dd62eae2dcfa5fbca47"}, "vout": 0, "txid": "763904c8d6138632c6cff038396fb929f8ed0dc6a412b76fd65a5c82ff9778a0"}, {"sequence": 4294967295, "scriptSig": {"hex": "483045022100bb17dffce015b909efd5fa35383f77aed81b5f0291c7ebe0277a33f6e94482fe022066fff50245a112a7e5e8a9698855d839356021a24f91a7223f413aa01bb9674c0121022d4582d63d72a8975b92a282b3955d090b7717c5b6ee38a36dc26c691eb7176b", "asm": "3045022100bb17dffce015b909efd5fa35383f77aed81b5f0291c7ebe0277a33f6e94482fe022066fff50245a112a7e5e8a9698855d839356021a24f91a7223f413aa01bb9674c[ALL] 022d4582d63d72a8975b92a282b3955d090b7717c5b6ee38a36dc26c691eb7176b"}, "vout": 1, "txid": "c67b47cb73e1ec6f25b3967c08012a1b444e295e9c42a9bd9954cae11361ef98"}, {"sequence": 4294967295, "scriptSig": {"hex": "47304402204fe14f169209f5f674380fab4e5b7846f90d49c3de2dc488eeb79c708014fe6d02201f5cf6e5460bcd75bda69d33279a39a08017d092a98e886e7a5c821541c2aaff01210280ded59d665a3967fec34e82ca22cf4bb5fac6425ac8c081fca066cb8d9276e0", "asm": "304402204fe14f169209f5f674380fab4e5b7846f90d49c3de2dc488eeb79c708014fe6d02201f5cf6e5460bcd75bda69d33279a39a08017d092a98e886e7a5c821541c2aaff[ALL] 0280ded59d665a3967fec34e82ca22cf4bb5fac6425ac8c081fca066cb8d9276e0"}, "vout": 0, "txid": "cc7f9d396e8871b209c62e65a840ce5c189b7da17c1e3e5bb1ffca6df63fd402"}], "txid": "a87a326a8301d107649ea868f763d3cef49c9861d629f9000400de5e450c8eb2", "blocktime": 1537871767, "version": 1, "confirmations": 11495, "time": 1537871767, "locktime": 0, "vsize": 520, "size": 520}