{"hash": "6a9c6bcaff6209b9147f7cb03d85d16d8d8a6f549a0747ec96a0500311acaa78", "blockhash": "0000000000000000000dcc0f55137456b1a82d3642486a52398922ac4d620174", "vout": [{"scriptPubKey": {"reqSigs": 1, "hex": "a914b1276a58843db3b3f65d1058d71952468bf9326987", "addresses": ["3Hqik8R3uFRjzc5NomB4P4H2bq5HLMzH7J"], "asm": "OP_HASH160 b1276a58843db3b3f65d1058d71952468bf93269 OP_EQUAL", "type": "scripthash"}, "value": 0.01000435, "n": 0}, {"scriptPubKey": {"reqSigs": 1, "hex": "76a914c92db17d90f35f719d814d76e38dd905c21b4f6688ac", "addresses": ["1KLjZPNAZmrrtCeYz8PkrwnEuiG3vaWbdE"], "asm": "OP_DUP OP_HASH160 c92db17d90f35f719d814d76e38dd905c21b4f66 OP_EQUALVERIFY OP_CHECKSIG", "type": "pubkeyhash"}, "value": 0.00147811, "n": 1}], "hex": "02000000000106466bac0234aab9d78c34976ca077008356b9e18ba5395b5e1dd1f44eea62f06c0000000017160014d337e7e19236cad8559b062f7dea74fef126641bfeffffff98e1bc2873d042f925d83e6c049a50fc35c7944028ab902a5c1d2081dcc9ff6a000000001716001485a5e8be7fe18e62195dc1cb3e5ba7e1c1fd2de0feffffffb9a40493ba93c7eaf57b31b6017b6923e7cfb36dade48863d167a812153108590100000017160014c243d7d36770306975531b5f49e7fb06f4090098feffffffc5d1350504fcb74067d77a3a1d1740773732320212af862b37fd1fd0c9c274bc0000000017160014b2bf190a146bbf72a57d0ecc5484be19f39e0d09feffffffc7d6377f003571e86aa677365caa59cadcadd874e66d54910d14427fa53a685600000000171600141a6389dc667a0b28b6c5ccfbea65e513f5f2f5e7feffffffdc8def5153a2c69075efd37312f639250d0e3edbe6aa2a117789d5624193719d01000000171600149ead8585d1af4ca65551a9c35481dc311a849a4dfeffffff02f3430f000000000017a914b1276a58843db3b3f65d1058d71952468bf932698763410200000000001976a914c92db17d90f35f719d814d76e38dd905c21b4f6688ac02483045022100c1d2be808afc854a6762dc411575fc0d4a922817097a230e2f0bb73edf6152bc0220026606ff2d81b01b027465d64e97ff1b5ef35812bddebf53d4d57b7f9f0edfea012102bee88467505e86931e864ea28adb70a5c711d4b4d2bd100762da7eef2d33f2e402473044022075df7d0f24c8920a6b064cd34bf6e13d72484675e4863c8e349e315dbf56a225022038dc23a2f6e24dd9ce0edbb40a234f14b4b84ca13e857d1c4a73ca27fdc756540121030d7f9cc6f33687cd1454111cc0000f1930141ca4c849c0d2c45fd50d7c662dbf02483045022100dbaeb772a484a160ba9d38f9a8cfe7d440e93b4fc7efb75701a921c72865af4d0220710ddfd678256af7169cf3bb16661ebca20ad3a52b8e1f96e20e03cda667561e0121033755ee9ffabb979129bf726a557afdcb5644535aa53ded5586e5008ade9146c802473044022035ea312fb0c7a8a13372b732ba5bc5be298350a8da042c4e4b4ee3edda862902022003c06080ca9da5e65cd5c60b0fb4376f1666f847b64d10fc7fd0baa459be0bca01210240ddb1f33d7e701794d7822ea606a5ffe987a8ba8de371be47d5fd00bdff208502463043022060e91a892f4e0e16741160dce893e6d6bb803d17b36123fb34f100f181fa3208021f1b8139004e2e5592837ac9a1ec80a077fd741d0e69eef3361a802d9df688500121038aa57436dcdcdc424e6c9d845c1dd8e59f8cad0ae19bd71a365698c27098bdc602483045022100fc0831ad8faec7df87fdd431947743766b3e9415df828d51880f24001538d0d20220291b64057292f0721a36d06a269147d9966ae5b4ba24c0edab72cac3f7e3b11f0121038625a4341611e6500b19ad738cf50c1653ccf8ac7c88d8fb0a42de90cca9a9e20b490800", "vin": [{"txinwitness": ["3045022100c1d2be808afc854a6762dc411575fc0d4a922817097a230e2f0bb73edf6152bc0220026606ff2d81b01b027465d64e97ff1b5ef35812bddebf53d4d57b7f9f0edfea01", "02bee88467505e86931e864ea28adb70a5c711d4b4d2bd100762da7eef2d33f2e4"], "sequence": 4294967294, "scriptSig": {"hex": "160014d337e7e19236cad8559b062f7dea74fef126641b", "asm": "0014d337e7e19236cad8559b062f7dea74fef126641b"}, "vout": 0, "txid": "6cf062ea4ef4d11d5e5b39a58be1b956830077a06c97348cd7b9aa3402ac6b46"}, {"txinwitness": ["3044022075df7d0f24c8920a6b064cd34bf6e13d72484675e4863c8e349e315dbf56a225022038dc23a2f6e24dd9ce0edbb40a234f14b4b84ca13e857d1c4a73ca27fdc7565401", "030d7f9cc6f33687cd1454111cc0000f1930141ca4c849c0d2c45fd50d7c662dbf"], "sequence": 4294967294, "scriptSig": {"hex": "16001485a5e8be7fe18e62195dc1cb3e5ba7e1c1fd2de0", "asm": "001485a5e8be7fe18e62195dc1cb3e5ba7e1c1fd2de0"}, "vout": 0, "txid": "6affc9dc81201d5c2a90ab284094c735fc509a046c3ed825f942d07328bce198"}, {"txinwitness": ["3045022100dbaeb772a484a160ba9d38f9a8cfe7d440e93b4fc7efb75701a921c72865af4d0220710ddfd678256af7169cf3bb16661ebca20ad3a52b8e1f96e20e03cda667561e01", "033755ee9ffabb979129bf726a557afdcb5644535aa53ded5586e5008ade9146c8"], "sequence": 4294967294, "scriptSig": {"hex": "160014c243d7d36770306975531b5f49e7fb06f4090098", "asm": "0014c243d7d36770306975531b5f49e7fb06f4090098"}, "vout": 1, "txid": "5908311512a867d16388e4ad6db3cfe723697b01b6317bf5eac793ba9304a4b9"}, {"txinwitness": ["3044022035ea312fb0c7a8a13372b732ba5bc5be298350a8da042c4e4b4ee3edda862902022003c06080ca9da5e65cd5c60b0fb4376f1666f847b64d10fc7fd0baa459be0bca01", "0240ddb1f33d7e701794d7822ea606a5ffe987a8ba8de371be47d5fd00bdff2085"], "sequence": 4294967294, "scriptSig": {"hex": "160014b2bf190a146bbf72a57d0ecc5484be19f39e0d09", "asm": "0014b2bf190a146bbf72a57d0ecc5484be19f39e0d09"}, "vout": 0, "txid": "bc74c2c9d01ffd372b86af12023232377740171d3a7ad76740b7fc040535d1c5"}, {"txinwitness": ["3043022060e91a892f4e0e16741160dce893e6d6bb803d17b36123fb34f100f181fa3208021f1b8139004e2e5592837ac9a1ec80a077fd741d0e69eef3361a802d9df6885001", "038aa57436dcdcdc424e6c9d845c1dd8e59f8cad0ae19bd71a365698c27098bdc6"], "sequence": 4294967294, "scriptSig": {"hex": "1600141a6389dc667a0b28b6c5ccfbea65e513f5f2f5e7", "asm": "00141a6389dc667a0b28b6c5ccfbea65e513f5f2f5e7"}, "vout": 0, "txid": "56683aa57f42140d91546de674d8addcca59aa5c3677a66ae87135007f37d6c7"}, {"txinwitness": ["3045022100fc0831ad8faec7df87fdd431947743766b3e9415df828d51880f24001538d0d20220291b64057292f0721a36d06a269147d9966ae5b4ba24c0edab72cac3f7e3b11f01", "038625a4341611e6500b19ad738cf50c1653ccf8ac7c88d8fb0a42de90cca9a9e2"], "sequence": 4294967294, "scriptSig": {"hex": "1600149ead8585d1af4ca65551a9c35481dc311a849a4d", "asm": "00149ead8585d1af4ca65551a9c35481dc311a849a4d"}, "vout": 1, "txid": "9d71934162d58977112aaae6db3e0e0d2539f61273d3ef7590c6a25351ef8ddc"}], "txid": "a87a0a5ad2ecfd88f22be6e6c2cfdab17079782c4cd857a8c177f51ff4a9776b", "blocktime": 1537870268, "version": 2, "confirmations": 11518, "time": 1537870268, "locktime": 542987, "vsize": 622, "size": 1106}