{"hash": "a87a060b2b621650adadaae474fe74c7b45601ab3ba1b2a4fd64d76e86b93674", "blockhash": "0000000000000000001f76057863aec43deb6fa401d9628bb513d65a8098bfab", "vout": [{"scriptPubKey": {"reqSigs": 1, "hex": "76a91478909ee1deae18f2319bf9e51418bcbe1eb0e3ac88ac", "addresses": ["1BzVLSNcwznjoynyuFgMXwaGeevycLgDEN"], "asm": "OP_DUP OP_HASH160 78909ee1deae18f2319bf9e51418bcbe1eb0e3ac OP_EQUALVERIFY OP_CHECKSIG", "type": "pubkeyhash"}, "value": 9.27e-05, "n": 0}, {"scriptPubKey": {"reqSigs": 1, "hex": "76a91484e3319b76d92e7e3621f9ac60024ddac19325cd88ac", "addresses": ["1D7eN2HHoiaD7RrvcwYkGTodjVjAY2Bc6K"], "asm": "OP_DUP OP_HASH160 84e3319b76d92e7e3621f9ac60024ddac19325cd OP_EQUALVERIFY OP_CHECKSIG", "type": "pubkeyhash"}, "value": 0.01248585, "n": 1}], "hex": "01000000048aff229cec6324e7688b819109b18c6e55962b0c8c8895bb583c4d6aed9e0c61040000006a47304402205fed33491d25bbe3b59a6ce0a7a594af030992b9c9b957caa9785dd1271c384102206971b4bd4e4f113ff1d85b8c8977a45bf1686e08dc59706bbc3791c17e2928a1012103042e20f8af5078591e1f50dd0507f3f6f6df1f0a5fad588d2ff1fdd5157fe149ffffffff89bc50e8361472e66f8c4a5cdb300783bbbd6e508a95b5fc03f723573180fe81000000006b483045022100c41b66532f200ffaa814361de86ec19649aef51d07ddfcf5b4aeebe1f51bf88a02207b6c1c428e72b50220f5eb3edcede31f19ff9ff5a58c689d06e029a04ca42ac3012103042e20f8af5078591e1f50dd0507f3f6f6df1f0a5fad588d2ff1fdd5157fe149ffffffff5549e63af00324934a2ffab5396cd8c9b8d05dc4d54b00691ded0ffa628cdab4000000006a47304402204c3c5284673564fd190e3f9730f4f7b343afba23fa51159b56f7adc918522a69022031b8036bcd317aff92890d09eb99b9c9bf0be7f4f29f5c8bbb47082462bbda82012103042e20f8af5078591e1f50dd0507f3f6f6df1f0a5fad588d2ff1fdd5157fe149ffffffff8983e5b562a379603fbed1844f194eeac23314c5d527b1ea0586a2bcd9c265d6010000006b483045022100eb96712ae9332bb28896e48925e2463007480d0f54ba1c44a57392c6efc842430220717565273915af941c941681121827539a45e5bec92bc2322470a787d055823b012103042e20f8af5078591e1f50dd0507f3f6f6df1f0a5fad588d2ff1fdd5157fe149ffffffff0236240000000000001976a91478909ee1deae18f2319bf9e51418bcbe1eb0e3ac88ac490d1300000000001976a91484e3319b76d92e7e3621f9ac60024ddac19325cd88ac00000000", "vin": [{"sequence": 4294967295, "scriptSig": {"hex": "47304402205fed33491d25bbe3b59a6ce0a7a594af030992b9c9b957caa9785dd1271c384102206971b4bd4e4f113ff1d85b8c8977a45bf1686e08dc59706bbc3791c17e2928a1012103042e20f8af5078591e1f50dd0507f3f6f6df1f0a5fad588d2ff1fdd5157fe149", "asm": "304402205fed33491d25bbe3b59a6ce0a7a594af030992b9c9b957caa9785dd1271c384102206971b4bd4e4f113ff1d85b8c8977a45bf1686e08dc59706bbc3791c17e2928a1[ALL] 03042e20f8af5078591e1f50dd0507f3f6f6df1f0a5fad588d2ff1fdd5157fe149"}, "vout": 4, "txid": "610c9eed6a4d3c58bb95888c0c2b96556e8cb10991818b68e72463ec9c22ff8a"}, {"sequence": 4294967295, "scriptSig": {"hex": "483045022100c41b66532f200ffaa814361de86ec19649aef51d07ddfcf5b4aeebe1f51bf88a02207b6c1c428e72b50220f5eb3edcede31f19ff9ff5a58c689d06e029a04ca42ac3012103042e20f8af5078591e1f50dd0507f3f6f6df1f0a5fad588d2ff1fdd5157fe149", "asm": "3045022100c41b66532f200ffaa814361de86ec19649aef51d07ddfcf5b4aeebe1f51bf88a02207b6c1c428e72b50220f5eb3edcede31f19ff9ff5a58c689d06e029a04ca42ac3[ALL] 03042e20f8af5078591e1f50dd0507f3f6f6df1f0a5fad588d2ff1fdd5157fe149"}, "vout": 0, "txid": "81fe80315723f703fcb5958a506ebdbb830730db5c4a8c6fe6721436e850bc89"}, {"sequence": 4294967295, "scriptSig": {"hex": "47304402204c3c5284673564fd190e3f9730f4f7b343afba23fa51159b56f7adc918522a69022031b8036bcd317aff92890d09eb99b9c9bf0be7f4f29f5c8bbb47082462bbda82012103042e20f8af5078591e1f50dd0507f3f6f6df1f0a5fad588d2ff1fdd5157fe149", "asm": "304402204c3c5284673564fd190e3f9730f4f7b343afba23fa51159b56f7adc918522a69022031b8036bcd317aff92890d09eb99b9c9bf0be7f4f29f5c8bbb47082462bbda82[ALL] 03042e20f8af5078591e1f50dd0507f3f6f6df1f0a5fad588d2ff1fdd5157fe149"}, "vout": 0, "txid": "b4da8c62fa0fed1d69004bd5c45dd0b8c9d86c39b5fa2f4a932403f03ae64955"}, {"sequence": 4294967295, "scriptSig": {"hex": "483045022100eb96712ae9332bb28896e48925e2463007480d0f54ba1c44a57392c6efc842430220717565273915af941c941681121827539a45e5bec92bc2322470a787d055823b012103042e20f8af5078591e1f50dd0507f3f6f6df1f0a5fad588d2ff1fdd5157fe149", "asm": "3045022100eb96712ae9332bb28896e48925e2463007480d0f54ba1c44a57392c6efc842430220717565273915af941c941681121827539a45e5bec92bc2322470a787d055823b[ALL] 03042e20f8af5078591e1f50dd0507f3f6f6df1f0a5fad588d2ff1fdd5157fe149"}, "vout": 1, "txid": "d665c2d9bca28605eab127d5c51433c2ea4e194f84d1be3f6079a362b5e58389"}], "txid": "a87a060b2b621650adadaae474fe74c7b45601ab3ba1b2a4fd64d76e86b93674", "blocktime": 1537873891, "version": 1, "confirmations": 11478, "time": 1537873891, "locktime": 0, "vsize": 668, "size": 668}