{"hash": "a87f8a241f491b9820659f101e906949833d240e6ae659d1f1015cff6f2c56ac", "blockhash": "0000000000000000001f76057863aec43deb6fa401d9628bb513d65a8098bfab", "vout": [{"scriptPubKey": {"reqSigs": 1, "hex": "76a914cc2d648ecd255f7f74044656581fcdb578c2de2888ac", "addresses": ["1KcbE5gY6jMMk8r4ATiHhjGtJMsKJ86izJ"], "asm": "OP_DUP OP_HASH160 cc2d648ecd255f7f74044656581fcdb578c2de28 OP_EQUALVERIFY OP_CHECKSIG", "type": "pubkeyhash"}, "value": 0.00493846, "n": 0}, {"scriptPubKey": {"reqSigs": 1, "hex": "76a914c7d794082c9249b63998167887615a3068cda9d188ac", "addresses": ["1KDfipC5V4xDTRa7dhFzWwXVUUHndj5xaB"], "asm": "OP_DUP OP_HASH160 c7d794082c9249b63998167887615a3068cda9d1 OP_EQUALVERIFY OP_CHECKSIG", "type": "pubkeyhash"}, "value": 0.01638965, "n": 1}], "hex": "0100000002a8f9de25ac65b7198e0cf1b630c74d79f18bf6d260df181f40fbdee2d1c24b31000000006b483045022100a07813b4df4e0bc467b8afcf71741d2c71de0ba527a699eb729a09a7ec5b887c022002269feccdf2cfa41a69ae9507f1471397afbe806e325b0aa204168cc212a5f4012103d8d55b067d6431d46df6ad2e452392e04c8a2bb22af633414a2d0785422f397cffffffff3aab3bc880ba66e77e27c29f7fb339aedbfaf1ad53b6cfee387fd986d4dd3c96010000006b483045022100dcf1c8ec2f588308f39354d8523b8d66f8d59af5c08f408b4d21575fe2d84b010220446efde44f7859688e9884810f150fb9616f76e8635bcca1f1346f2f4799ff26012102f6d1e49aef9321a33599eac977957fb7b617ec91681d28c878a2974376c19cb8ffffffff0216890700000000001976a914cc2d648ecd255f7f74044656581fcdb578c2de2888ac35021900000000001976a914c7d794082c9249b63998167887615a3068cda9d188ac00000000", "vin": [{"sequence": 4294967295, "scriptSig": {"hex": "483045022100a07813b4df4e0bc467b8afcf71741d2c71de0ba527a699eb729a09a7ec5b887c022002269feccdf2cfa41a69ae9507f1471397afbe806e325b0aa204168cc212a5f4012103d8d55b067d6431d46df6ad2e452392e04c8a2bb22af633414a2d0785422f397c", "asm": "3045022100a07813b4df4e0bc467b8afcf71741d2c71de0ba527a699eb729a09a7ec5b887c022002269feccdf2cfa41a69ae9507f1471397afbe806e325b0aa204168cc212a5f4[ALL] 03d8d55b067d6431d46df6ad2e452392e04c8a2bb22af633414a2d0785422f397c"}, "vout": 0, "txid": "314bc2d1e2defb401f18df60d2f68bf1794dc730b6f10c8e19b765ac25def9a8"}, {"sequence": 4294967295, "scriptSig": {"hex": "483045022100dcf1c8ec2f588308f39354d8523b8d66f8d59af5c08f408b4d21575fe2d84b010220446efde44f7859688e9884810f150fb9616f76e8635bcca1f1346f2f4799ff26012102f6d1e49aef9321a33599eac977957fb7b617ec91681d28c878a2974376c19cb8", "asm": "3045022100dcf1c8ec2f588308f39354d8523b8d66f8d59af5c08f408b4d21575fe2d84b010220446efde44f7859688e9884810f150fb9616f76e8635bcca1f1346f2f4799ff26[ALL] 02f6d1e49aef9321a33599eac977957fb7b617ec91681d28c878a2974376c19cb8"}, "vout": 1, "txid": "963cddd486d97f38eecfb653adf1fadbae39b37f9fc2277ee766ba80c83bab3a"}], "txid": "a87f8a241f491b9820659f101e906949833d240e6ae659d1f1015cff6f2c56ac", "blocktime": 1537873891, "version": 1, "confirmations": 11475, "time": 1537873891, "locktime": 0, "vsize": 374, "size": 374}