{"hash": "5100f172451f298b7caa7bea701ae985c865005aae7c3d3068ac9c027b3673eb", "blockhash": "0000000000000000000baef3f32e3676a92c3b2e5da21b426e4f302fc371ce76", "vout": [{"scriptPubKey": {"reqSigs": 1, "hex": "a9147f4fea03b7c8934726a62b7af7e564a4ba03549a87", "addresses": ["3DJBUSGrTtDMNptGCXp3EqP5cQUPNQb1oY"], "asm": "OP_HASH160 7f4fea03b7c8934726a62b7af7e564a4ba03549a OP_EQUAL", "type": "scripthash"}, "value": 10.0, "n": 0}, {"scriptPubKey": {"reqSigs": 1, "hex": "a91481cea905d435126b826ce279d511638eca53294487", "addresses": ["3DXNfJ68N8TvvJ8zHuZ1YYdbGRqppkQjuv"], "asm": "OP_HASH160 81cea905d435126b826ce279d511638eca532944 OP_EQUAL", "type": "scripthash"}, "value": 58.95329357, "n": 1}], "hex": "0100000000010176622af08b00e355332cb992fb809c722ee24e4aee8efff06dba222efb1dc672010000001716001450927a0f0bad7ce98bfc6af027fa0f8332223004ffffffff0200ca9a3b0000000017a9147f4fea03b7c8934726a62b7af7e564a4ba03549a874d96635f0100000017a91481cea905d435126b826ce279d511638eca532944870247304402200d3a673acde6990725581fe1de564347a3d4e67d8e2060fb2944c543e857ab2f02204e1f5c39959f05c7cebd07742cf4a95085796c3eb2fc8f384a9d6568ec81a39901210281bc479d1d3aa90bc9e915405d78041b92450a9fa9dd35fba0cab342dcdbbe8f00000000", "vin": [{"txinwitness": ["304402200d3a673acde6990725581fe1de564347a3d4e67d8e2060fb2944c543e857ab2f02204e1f5c39959f05c7cebd07742cf4a95085796c3eb2fc8f384a9d6568ec81a39901", "0281bc479d1d3aa90bc9e915405d78041b92450a9fa9dd35fba0cab342dcdbbe8f"], "sequence": 4294967295, "scriptSig": {"hex": "16001450927a0f0bad7ce98bfc6af027fa0f8332223004", "asm": "001450927a0f0bad7ce98bfc6af027fa0f8332223004"}, "vout": 1, "txid": "72c61dfb2e22ba6df0ff8eee4a4ee22e729c80fb92b92c3355e3008bf02a6276"}], "txid": "a87fbdd3bcd2de5f5a521f4e4d43b46fc8b6bec5935c0ee8fa041837a47db2ee", "blocktime": 1537876114, "version": 1, "confirmations": 11460, "time": 1537876114, "locktime": 0, "vsize": 166, "size": 247}