{"hash": "a88949dd296874bc2b908198d38cbdf4b264161a6fef54d640969402120f47f7", "blockhash": "0000000000000000000e13cef7c366c0283d82e591d1acd082e914b08063cdf1", "vout": [{"scriptPubKey": {"reqSigs": 1, "hex": "76a914a6f7ac3cdf17e512590adcefa75deeab28bc9d1088ac", "addresses": ["1GDqsTDMCXkE3SiKrHc3Pdc8yY6kdGHb9e"], "asm": "OP_DUP OP_HASH160 a6f7ac3cdf17e512590adcefa75deeab28bc9d10 OP_EQUALVERIFY OP_CHECKSIG", "type": "pubkeyhash"}, "value": 0.08638984, "n": 0}, {"scriptPubKey": {"reqSigs": 1, "hex": "76a914a9bd99f8ea385b454d0fe21a409552e70157ef4888ac", "addresses": ["1GUWLAF2kvL3WN13pxwUAV9wjaPgu319gF"], "asm": "OP_DUP OP_HASH160 a9bd99f8ea385b454d0fe21a409552e70157ef48 OP_EQUALVERIFY OP_CHECKSIG", "type": "pubkeyhash"}, "value": 0.12657892, "n": 1}], "hex": "0100000001bf61646006a1d24f8372bf8ff0b806bfb4a08db8b9b24c24de7bb1b93c5cd3f1010000006a4730440220576adace7fb7ac61d3768dbdcc54d0425a5965bdab858471ba186c6771cfdb5602202e8053b80f6ad155dbcdd4f59a6bf59a4714d0e067ead550e670b82cc0444cca012102e74e5757d43872a48b3ea760076acfff3d2248d685d9514cd8b097e9994a27caffffffff0208d28300000000001976a914a6f7ac3cdf17e512590adcefa75deeab28bc9d1088ace424c100000000001976a914a9bd99f8ea385b454d0fe21a409552e70157ef4888ac00000000", "vin": [{"sequence": 4294967295, "scriptSig": {"hex": "4730440220576adace7fb7ac61d3768dbdcc54d0425a5965bdab858471ba186c6771cfdb5602202e8053b80f6ad155dbcdd4f59a6bf59a4714d0e067ead550e670b82cc0444cca012102e74e5757d43872a48b3ea760076acfff3d2248d685d9514cd8b097e9994a27ca", "asm": "30440220576adace7fb7ac61d3768dbdcc54d0425a5965bdab858471ba186c6771cfdb5602202e8053b80f6ad155dbcdd4f59a6bf59a4714d0e067ead550e670b82cc0444cca[ALL] 02e74e5757d43872a48b3ea760076acfff3d2248d685d9514cd8b097e9994a27ca"}, "vout": 1, "txid": "f1d35c3cb9b17bde244cb2b9b88da0b4bf06b8f08fbf72834fd2a106606461bf"}], "txid": "a88949dd296874bc2b908198d38cbdf4b264161a6fef54d640969402120f47f7", "blocktime": 1537871767, "version": 1, "confirmations": 11495, "time": 1537871767, "locktime": 0, "vsize": 225, "size": 225}