{"hash": "a88bb176ef06d4483e0fa047343c4583d4c7391c3718b55f0edf73d7f2b51765", "blockhash": "0000000000000000000baef3f32e3676a92c3b2e5da21b426e4f302fc371ce76", "vout": [{"scriptPubKey": {"reqSigs": 1, "hex": "76a914e8cea30989bd15530f819b766684b00dc7ba7cfa88ac", "addresses": ["1NDyJtNTjmwk5xPNhjgAMu4HDHigtobu1s"], "asm": "OP_DUP OP_HASH160 e8cea30989bd15530f819b766684b00dc7ba7cfa OP_EQUALVERIFY OP_CHECKSIG", "type": "pubkeyhash"}, "value": 5.12561911, "n": 0}, {"scriptPubKey": {"reqSigs": 1, "hex": "76a914ea26ae1e7a0f4323b8aea6dbc08bdacafd44d11f88ac", "addresses": ["1NM5TS5hkijRuZHCTtzvtN378ppuVqqydm"], "asm": "OP_DUP OP_HASH160 ea26ae1e7a0f4323b8aea6dbc08bdacafd44d11f OP_EQUALVERIFY OP_CHECKSIG", "type": "pubkeyhash"}, "value": 0.00785013, "n": 1}], "hex": "020000000e054b0ed5fffa1492ed93255c6bf3785f71e9da79c6acb3acb13d65ff261b3d09510000006a4730440220622dad2d07794df3672025c35d3f9da795f5e628becea8f7fcd72f39c1a9a82f02204424c43bc2855b530831f4b5b69012241f6c6c8af87b27bab8b8c27b779657b501210227969597734872b27e2b88328fe28d1f32f06772894cad75b32fd14b31f5ad26feffffff26adf96d28186bb56333de9fd6a76bf89c2c02dd53c8af720f015be6950a82ac010000006a47304402204396de061f9ba611238f0811c8c9d1b99b4e50f27828800fca8350c7d29417cb02202f8b7ce0653f218695cb74aa116d6b0622f932670c496da55cb1255a079f6edf0121034dab62db0201f1cdd93ca5ce20ecc8d90cdc13182fa61e8821cfa3a8ddd1841cfeffffff328bcff311540b427d4ee3c39d21edba1646962e78af63eb2f3d99a773b2e5a50a0000006a47304402204d93ffd097c925f6d9b126201d3ddb725be47074f25225a8056881c122a145f702205a8b1eed38a343a38045d6cb0aca0e9ab49d498a792f57c5a74daf277aec79d001210343dd322bc25b449ee3164de25c0c570c8ea1f19e15169e747532ee36b0b89598feffffff395ba13b73884e3dff2ef68a49af2ca7e62e290adca62942873b21de3e781a8c000000006a47304402206b75f61e0ff227a099fb234c604c33bcf72e94b94368e14807ebea85321c2ac40220204ddd6f04e3a13030af3c33524b0b4611f39984416db345ab7b3fd293ef266d01210332466ee2da013bc52c9a43689f56a98e95646a69f1ed7c47e1717f605e6d30dafeffffff3a89d6daf821aaaeb3bd0da1645b6e64b5184701d699d9a5ace7b937b2acc21a010000006a473044022041455dcc029264bd0531817f4cf8ed309be67907f81abb6ff2dba8274758c8b20220169c268be50466d5d8bf7ef366d1e71a3ff71497ac426c98e88ec964e5b06e7b01210275e4c07e3667349f3fedfe7022ed3ecdfe63003699916ada6104fd23c885df59feffffff4513dc38264fa7c3eeab15c884141c976ef791e9202f85e7caadb9b01a532eaa010000006a47304402202d03ec39d1c99b19d4b9c5a7dcc12d03ef8fc1d3fe34c3a89e8da6befa1e5940022030e159f6ccc103f9a31b3e075e2c1a962c4271d72d51850a14dcb74c219c6f07012103509baaf9c902a9a3f5dd3ea4383a964761535bfaf595379c1405ba971c6403f6feffffff684a4085897ae328a4c0adf3686c66c93ab6735c4d6551a1e618cf88bca96072050000006a4730440220639ceea98809a5535bf5d05c89887fcddd8613c47ef6a2eac42f332cfa692a0b0220027885d828818590e2c22b71caac587fa43ce78e6adff5ce35183aa31ea2bbb0012102a3cf59c71b1419e3b3ccff12b09f6f3884412b99a9abbf3a2fbdde51c678420cfeffffff8c657c8e30ea7eda4d4a22c09dbbc204ba8e59a110513ece7b79b203561ddad5150000006a473044022045e968040f4ab2d5126e081e723cdf3010ba46865db94e7e0ab60f8e1b332f370220413e353b3b344cd90f9688eb6b5f5c7f3730c3ec8e6edf14b32b0622a5f72bd8012102170fe0a7beb329ec229f064ce2f88f15f3a475fc58fa5883401aabf327573f45feffffff954e4134cd73541cf9d2e931d24dbf66f1b777fdb7f74f26db152ea9f4b977c3040000006b483045022100f5b06a5e8330f7edb7d8bd8a23c913f57d10d0d6816085a70c6a6784c09cecea022025aae38b1d14013c4b2ed2182daffdc05dfcf0da1b064cc1b52fb63202fb08c201210268b48874504be2a7eac578308e1fb67a13d3bb0bc8f36a8b0edd667833c1a000feffffffa515100d4d5a6ca4ca4702d5208f7fd6686b5c4552e072b07ce239064a15ba32010000006a473044022008c4eb0da6b93abcf538827299447f93f7e6ab406c10090a63c470f356854077022071d597210aa34d3a06b9060318b78b41ee1900f2b80547f9d2e72d53d8bc32f4012102e9f66afa32d7601728cbf35896b0c020d90ab3a11ba6194aa69b71c72724c431feffffffa8aadcf7f56354fad3784014a2012fec70372d41e0ff36c030f515794ab5d70e0a0000006a47304402203c3695d02e249ca89e27cc91c67bdb785187f357827fb717e8304fdcd88566af02201e3f487c23c74d74993acdfab9291e1d3df8bdefe33e8e0832080c7193ef59ef012103c9cb36249f2a8df9274ced7637bb848ca0d25568b6d9075a7ec9a833e9159c69feffffffc3c983f116fd2b16e44664801211e38a1157467a9c62b635a5804d102e9907dc050000006a47304402202c4ee1dd95539648ddc7ecedf94b657411be90569e60e7434fc28d408bcacc4d02205acbb22de4f2e400bad3ca1437975163fd2b2158b18d5e69b4da0d7e4d47e0d90121030eb94662e8f08a71dd1ec5680468c43d9e4cee214e7ee44117b0cebd831b50d1feffffffca659c2b4acd1e561aa5fbfd7f7ec04e436f90423c5437a77d0e073511390044000000006a473044022076012cf5528b019506c789417b07193a2d0f8db7ce1eb387420e456f4c4fa8be022004babbb520f272b07526bd9074eceb20ebf3c38e61852422a2187e5855ec28ef012103231af4b1f63f754553ecd469b5edfe0082a6e065de2b660254fa95161577eda2fefffffffffcc93717a2314c660799eb8012b23b799d22fe38b4d8fb201a0764ead6d9ea1d0000006a473044022077a74f83d6592791acb1bbc7a062c723cb602d70f8699e3a8fd338edd51cedff022016296319ed7e164ca9b590670737c19e9d8ea672fd84a77161045bdb7778d8d4012102e7fc685ead903e73c2bb47bc76ae6dc09b506734252738bf52994502b0e9795bfeffffff02f7128d1e000000001976a914e8cea30989bd15530f819b766684b00dc7ba7cfa88ac75fa0b00000000001976a914ea26ae1e7a0f4323b8aea6dbc08bdacafd44d11f88ac17490800", "vin": [{"sequence": 4294967294, "scriptSig": {"hex": "4730440220622dad2d07794df3672025c35d3f9da795f5e628becea8f7fcd72f39c1a9a82f02204424c43bc2855b530831f4b5b69012241f6c6c8af87b27bab8b8c27b779657b501210227969597734872b27e2b88328fe28d1f32f06772894cad75b32fd14b31f5ad26", "asm": "30440220622dad2d07794df3672025c35d3f9da795f5e628becea8f7fcd72f39c1a9a82f02204424c43bc2855b530831f4b5b69012241f6c6c8af87b27bab8b8c27b779657b5[ALL] 0227969597734872b27e2b88328fe28d1f32f06772894cad75b32fd14b31f5ad26"}, "vout": 81, "txid": "093d1b26ff653db1acb3acc679dae9715f78f36b5c2593ed9214faffd50e4b05"}, {"sequence": 4294967294, "scriptSig": {"hex": "47304402204396de061f9ba611238f0811c8c9d1b99b4e50f27828800fca8350c7d29417cb02202f8b7ce0653f218695cb74aa116d6b0622f932670c496da55cb1255a079f6edf0121034dab62db0201f1cdd93ca5ce20ecc8d90cdc13182fa61e8821cfa3a8ddd1841c", "asm": "304402204396de061f9ba611238f0811c8c9d1b99b4e50f27828800fca8350c7d29417cb02202f8b7ce0653f218695cb74aa116d6b0622f932670c496da55cb1255a079f6edf[ALL] 034dab62db0201f1cdd93ca5ce20ecc8d90cdc13182fa61e8821cfa3a8ddd1841c"}, "vout": 1, "txid": "ac820a95e65b010f72afc853dd022c9cf86ba7d69fde3363b56b18286df9ad26"}, {"sequence": 4294967294, "scriptSig": {"hex": "47304402204d93ffd097c925f6d9b126201d3ddb725be47074f25225a8056881c122a145f702205a8b1eed38a343a38045d6cb0aca0e9ab49d498a792f57c5a74daf277aec79d001210343dd322bc25b449ee3164de25c0c570c8ea1f19e15169e747532ee36b0b89598", "asm": "304402204d93ffd097c925f6d9b126201d3ddb725be47074f25225a8056881c122a145f702205a8b1eed38a343a38045d6cb0aca0e9ab49d498a792f57c5a74daf277aec79d0[ALL] 0343dd322bc25b449ee3164de25c0c570c8ea1f19e15169e747532ee36b0b89598"}, "vout": 10, "txid": "a5e5b273a7993d2feb63af782e964616baed219dc3e34e7d420b5411f3cf8b32"}, {"sequence": 4294967294, "scriptSig": {"hex": "47304402206b75f61e0ff227a099fb234c604c33bcf72e94b94368e14807ebea85321c2ac40220204ddd6f04e3a13030af3c33524b0b4611f39984416db345ab7b3fd293ef266d01210332466ee2da013bc52c9a43689f56a98e95646a69f1ed7c47e1717f605e6d30da", "asm": "304402206b75f61e0ff227a099fb234c604c33bcf72e94b94368e14807ebea85321c2ac40220204ddd6f04e3a13030af3c33524b0b4611f39984416db345ab7b3fd293ef266d[ALL] 0332466ee2da013bc52c9a43689f56a98e95646a69f1ed7c47e1717f605e6d30da"}, "vout": 0, "txid": "8c1a783ede213b874229a6dc0a292ee6a72caf498af62eff3d4e88733ba15b39"}, {"sequence": 4294967294, "scriptSig": {"hex": "473044022041455dcc029264bd0531817f4cf8ed309be67907f81abb6ff2dba8274758c8b20220169c268be50466d5d8bf7ef366d1e71a3ff71497ac426c98e88ec964e5b06e7b01210275e4c07e3667349f3fedfe7022ed3ecdfe63003699916ada6104fd23c885df59", "asm": "3044022041455dcc029264bd0531817f4cf8ed309be67907f81abb6ff2dba8274758c8b20220169c268be50466d5d8bf7ef366d1e71a3ff71497ac426c98e88ec964e5b06e7b[ALL] 0275e4c07e3667349f3fedfe7022ed3ecdfe63003699916ada6104fd23c885df59"}, "vout": 1, "txid": "1ac2acb237b9e7aca5d999d6014718b5646e5b64a10dbdb3aeaa21f8dad6893a"}, {"sequence": 4294967294, "scriptSig": {"hex": "47304402202d03ec39d1c99b19d4b9c5a7dcc12d03ef8fc1d3fe34c3a89e8da6befa1e5940022030e159f6ccc103f9a31b3e075e2c1a962c4271d72d51850a14dcb74c219c6f07012103509baaf9c902a9a3f5dd3ea4383a964761535bfaf595379c1405ba971c6403f6", "asm": "304402202d03ec39d1c99b19d4b9c5a7dcc12d03ef8fc1d3fe34c3a89e8da6befa1e5940022030e159f6ccc103f9a31b3e075e2c1a962c4271d72d51850a14dcb74c219c6f07[ALL] 03509baaf9c902a9a3f5dd3ea4383a964761535bfaf595379c1405ba971c6403f6"}, "vout": 1, "txid": "aa2e531ab0b9adcae7852f20e991f76e971c1484c815abeec3a74f2638dc1345"}, {"sequence": 4294967294, "scriptSig": {"hex": "4730440220639ceea98809a5535bf5d05c89887fcddd8613c47ef6a2eac42f332cfa692a0b0220027885d828818590e2c22b71caac587fa43ce78e6adff5ce35183aa31ea2bbb0012102a3cf59c71b1419e3b3ccff12b09f6f3884412b99a9abbf3a2fbdde51c678420c", "asm": "30440220639ceea98809a5535bf5d05c89887fcddd8613c47ef6a2eac42f332cfa692a0b0220027885d828818590e2c22b71caac587fa43ce78e6adff5ce35183aa31ea2bbb0[ALL] 02a3cf59c71b1419e3b3ccff12b09f6f3884412b99a9abbf3a2fbdde51c678420c"}, "vout": 5, "txid": "7260a9bc88cf18e6a151654d5c73b63ac9666c68f3adc0a428e37a8985404a68"}, {"sequence": 4294967294, "scriptSig": {"hex": "473044022045e968040f4ab2d5126e081e723cdf3010ba46865db94e7e0ab60f8e1b332f370220413e353b3b344cd90f9688eb6b5f5c7f3730c3ec8e6edf14b32b0622a5f72bd8012102170fe0a7beb329ec229f064ce2f88f15f3a475fc58fa5883401aabf327573f45", "asm": "3044022045e968040f4ab2d5126e081e723cdf3010ba46865db94e7e0ab60f8e1b332f370220413e353b3b344cd90f9688eb6b5f5c7f3730c3ec8e6edf14b32b0622a5f72bd8[ALL] 02170fe0a7beb329ec229f064ce2f88f15f3a475fc58fa5883401aabf327573f45"}, "vout": 21, "txid": "d5da1d5603b2797bce3e5110a1598eba04c2bb9dc0224a4dda7eea308e7c658c"}, {"sequence": 4294967294, "scriptSig": {"hex": "483045022100f5b06a5e8330f7edb7d8bd8a23c913f57d10d0d6816085a70c6a6784c09cecea022025aae38b1d14013c4b2ed2182daffdc05dfcf0da1b064cc1b52fb63202fb08c201210268b48874504be2a7eac578308e1fb67a13d3bb0bc8f36a8b0edd667833c1a000", "asm": "3045022100f5b06a5e8330f7edb7d8bd8a23c913f57d10d0d6816085a70c6a6784c09cecea022025aae38b1d14013c4b2ed2182daffdc05dfcf0da1b064cc1b52fb63202fb08c2[ALL] 0268b48874504be2a7eac578308e1fb67a13d3bb0bc8f36a8b0edd667833c1a000"}, "vout": 4, "txid": "c377b9f4a92e15db264ff7b7fd77b7f166bf4dd231e9d2f91c5473cd34414e95"}, {"sequence": 4294967294, "scriptSig": {"hex": "473044022008c4eb0da6b93abcf538827299447f93f7e6ab406c10090a63c470f356854077022071d597210aa34d3a06b9060318b78b41ee1900f2b80547f9d2e72d53d8bc32f4012102e9f66afa32d7601728cbf35896b0c020d90ab3a11ba6194aa69b71c72724c431", "asm": "3044022008c4eb0da6b93abcf538827299447f93f7e6ab406c10090a63c470f356854077022071d597210aa34d3a06b9060318b78b41ee1900f2b80547f9d2e72d53d8bc32f4[ALL] 02e9f66afa32d7601728cbf35896b0c020d90ab3a11ba6194aa69b71c72724c431"}, "vout": 1, "txid": "32ba154a0639e27cb072e052455c6b68d67f8f20d50247caa46c5a4d0d1015a5"}, {"sequence": 4294967294, "scriptSig": {"hex": "47304402203c3695d02e249ca89e27cc91c67bdb785187f357827fb717e8304fdcd88566af02201e3f487c23c74d74993acdfab9291e1d3df8bdefe33e8e0832080c7193ef59ef012103c9cb36249f2a8df9274ced7637bb848ca0d25568b6d9075a7ec9a833e9159c69", "asm": "304402203c3695d02e249ca89e27cc91c67bdb785187f357827fb717e8304fdcd88566af02201e3f487c23c74d74993acdfab9291e1d3df8bdefe33e8e0832080c7193ef59ef[ALL] 03c9cb36249f2a8df9274ced7637bb848ca0d25568b6d9075a7ec9a833e9159c69"}, "vout": 10, "txid": "0ed7b54a7915f530c036ffe0412d3770ec2f01a2144078d3fa5463f5f7dcaaa8"}, {"sequence": 4294967294, "scriptSig": {"hex": "47304402202c4ee1dd95539648ddc7ecedf94b657411be90569e60e7434fc28d408bcacc4d02205acbb22de4f2e400bad3ca1437975163fd2b2158b18d5e69b4da0d7e4d47e0d90121030eb94662e8f08a71dd1ec5680468c43d9e4cee214e7ee44117b0cebd831b50d1", "asm": "304402202c4ee1dd95539648ddc7ecedf94b657411be90569e60e7434fc28d408bcacc4d02205acbb22de4f2e400bad3ca1437975163fd2b2158b18d5e69b4da0d7e4d47e0d9[ALL] 030eb94662e8f08a71dd1ec5680468c43d9e4cee214e7ee44117b0cebd831b50d1"}, "vout": 5, "txid": "dc07992e104d80a535b6629c7a4657118ae31112806446e4162bfd16f183c9c3"}, {"sequence": 4294967294, "scriptSig": {"hex": "473044022076012cf5528b019506c789417b07193a2d0f8db7ce1eb387420e456f4c4fa8be022004babbb520f272b07526bd9074eceb20ebf3c38e61852422a2187e5855ec28ef012103231af4b1f63f754553ecd469b5edfe0082a6e065de2b660254fa95161577eda2", "asm": "3044022076012cf5528b019506c789417b07193a2d0f8db7ce1eb387420e456f4c4fa8be022004babbb520f272b07526bd9074eceb20ebf3c38e61852422a2187e5855ec28ef[ALL] 03231af4b1f63f754553ecd469b5edfe0082a6e065de2b660254fa95161577eda2"}, "vout": 0, "txid": "4400391135070e7da737543c42906f434ec07e7ffdfba51a561ecd4a2b9c65ca"}, {"sequence": 4294967294, "scriptSig": {"hex": "473044022077a74f83d6592791acb1bbc7a062c723cb602d70f8699e3a8fd338edd51cedff022016296319ed7e164ca9b590670737c19e9d8ea672fd84a77161045bdb7778d8d4012102e7fc685ead903e73c2bb47bc76ae6dc09b506734252738bf52994502b0e9795b", "asm": "3044022077a74f83d6592791acb1bbc7a062c723cb602d70f8699e3a8fd338edd51cedff022016296319ed7e164ca9b590670737c19e9d8ea672fd84a77161045bdb7778d8d4[ALL] 02e7fc685ead903e73c2bb47bc76ae6dc09b506734252738bf52994502b0e9795b"}, "vout": 29, "txid": "ead9d6ea64071a20fbd8b438fe229d793bb21280eb9907664c31a21737c9fcff"}], "txid": "a88bb176ef06d4483e0fa047343c4583d4c7391c3718b55f0edf73d7f2b51765", "blocktime": 1537876114, "version": 2, "confirmations": 11459, "time": 1537876114, "locktime": 542999, "vsize": 2137, "size": 2137}