{"hash": "9e5e0267ec77ef1f450f34da7e767896de5cd02501e61eb7e7c7fd621974084a", "blockhash": "00000000000000000017f5eb5941039fbcee6240d03bc1f2f8e35350df66a1d8", "vout": [{"scriptPubKey": {"reqSigs": 1, "hex": "a91474eb680685a10e4b178fba3a8edba5bda828b66b87", "addresses": ["3CMEK7gTC28WVzXLi73PKXop6Q3uvFmtTB"], "asm": "OP_HASH160 74eb680685a10e4b178fba3a8edba5bda828b66b OP_EQUAL", "type": "scripthash"}, "value": 0.0036426, "n": 0}, {"scriptPubKey": {"reqSigs": 1, "hex": "0014541ea9db3d13979132c94ea72466f6903e1bf872", "addresses": ["bc1q2s02nkeazwtezvkff6njgehkjqlph7rjyxjhk6"], "asm": "0 541ea9db3d13979132c94ea72466f6903e1bf872", "type": "witness_v0_keyhash"}, "value": 0.00026591, "n": 1}], "hex": "01000000000101970f5def131386e979e6fd37749da8874f3404886dd17146af76ac606773d3ed0000000000ffffffff02e48e05000000000017a91474eb680685a10e4b178fba3a8edba5bda828b66b87df67000000000000160014541ea9db3d13979132c94ea72466f6903e1bf87202483045022100b1b04329163c950a912f2289a01882f3157c8048eac0cd784cd7de6174dfcbc302207c54fc8accf3e387b6cddc1ea21705ad46a1f14eb6f8295345779c70492eab820121031e3abee2a892f85c2446bebbecea2fbedd0ff66b24313ad657ddec34b9919ca600000000", "vin": [{"txinwitness": ["3045022100b1b04329163c950a912f2289a01882f3157c8048eac0cd784cd7de6174dfcbc302207c54fc8accf3e387b6cddc1ea21705ad46a1f14eb6f8295345779c70492eab8201", "031e3abee2a892f85c2446bebbecea2fbedd0ff66b24313ad657ddec34b9919ca6"], "sequence": 4294967295, "scriptSig": {"hex": "", "asm": ""}, "vout": 0, "txid": "edd3736760ac76af4671d16d8804344f87a89d7437fde679e9861313ef5d0f97"}], "txid": "a895180ece159bcff2752842b4e346c4aaaabcf47a3af4b85db4cd8da124ea12", "blocktime": 1537874412, "version": 1, "confirmations": 11467, "time": 1537874412, "locktime": 0, "vsize": 142, "size": 224}