{"hash": "a898a8bd260cf12ba20eaa8a3da6c47b7059bf89e4d8cb66c63eec133d71edba", "blockhash": "0000000000000000001cda96e906b7601b7a6fb1a3b62bca570a9e5d8f4b3de1", "vout": [{"scriptPubKey": {"reqSigs": 1, "hex": "a914dd865e257764c65f9901c3767abdedcc1889e2b087", "addresses": ["3MtLDySJpaoZ3qwJYZmWghaJxAy6mouDUm"], "asm": "OP_HASH160 dd865e257764c65f9901c3767abdedcc1889e2b0 OP_EQUAL", "type": "scripthash"}, "value": 0.00343992, "n": 0}, {"scriptPubKey": {"reqSigs": 1, "hex": "76a91456b87a8507af398664888bcd80549166b7254fe088ac", "addresses": ["18uY7J6TVCNrnuq1MBdcKoeSRsvP19Ks88"], "asm": "OP_DUP OP_HASH160 56b87a8507af398664888bcd80549166b7254fe0 OP_EQUALVERIFY OP_CHECKSIG", "type": "pubkeyhash"}, "value": 0.04091399, "n": 1}], "hex": "0100000001aa15f992975f55b7f48adb4e4eb53f43d7297ca0d7ee335915bfb9659bb5178f010000006b4830450221009754deebcc65e0e344f460ef33a0e57d1047f2f0e0ca118e9a56954d72bb78fd022026018b0462af633de9d0520033fcc29952d2beb70183b53baeeec7ed728213b0012103e45d2efa450f52d3d8eb5888c7d2ad47df3222b3df7e98c7f00743a50785c1d7ffffffff02b83f05000000000017a914dd865e257764c65f9901c3767abdedcc1889e2b087076e3e00000000001976a91456b87a8507af398664888bcd80549166b7254fe088ac00000000", "vin": [{"sequence": 4294967295, "scriptSig": {"hex": "4830450221009754deebcc65e0e344f460ef33a0e57d1047f2f0e0ca118e9a56954d72bb78fd022026018b0462af633de9d0520033fcc29952d2beb70183b53baeeec7ed728213b0012103e45d2efa450f52d3d8eb5888c7d2ad47df3222b3df7e98c7f00743a50785c1d7", "asm": "30450221009754deebcc65e0e344f460ef33a0e57d1047f2f0e0ca118e9a56954d72bb78fd022026018b0462af633de9d0520033fcc29952d2beb70183b53baeeec7ed728213b0[ALL] 03e45d2efa450f52d3d8eb5888c7d2ad47df3222b3df7e98c7f00743a50785c1d7"}, "vout": 1, "txid": "8f17b59b65b9bf155933eed7a07c29d7433fb54e4edb8af4b7555f9792f915aa"}], "txid": "a898a8bd260cf12ba20eaa8a3da6c47b7059bf89e4d8cb66c63eec133d71edba", "blocktime": 1537873282, "version": 1, "confirmations": 11485, "time": 1537873282, "locktime": 0, "vsize": 224, "size": 224}