{"hash": "44f8384f5ed66a10d788a3317a13e05195024d8b96beef64894cda49c1f0b920", "blockhash": "0000000000000000000baef3f32e3676a92c3b2e5da21b426e4f302fc371ce76", "vout": [{"scriptPubKey": {"reqSigs": 1, "hex": "a9141d055e56274fff9c2ea0c010c623f602d150068b87", "addresses": ["34LTx7jWUEk3VwkfmNNGELv6oLgEFhcW53"], "asm": "OP_HASH160 1d055e56274fff9c2ea0c010c623f602d150068b OP_EQUAL", "type": "scripthash"}, "value": 0.041172, "n": 0}, {"scriptPubKey": {"reqSigs": 1, "hex": "a9144d293bcdc8b44f39bc0c92eb41ca5b5ef1480d4687", "addresses": ["38j1MGxv8M2EzE5QVWzavCTicpwByECqCv"], "asm": "OP_HASH160 4d293bcdc8b44f39bc0c92eb41ca5b5ef1480d46 OP_EQUAL", "type": "scripthash"}, "value": 8.57907022, "n": 1}], "hex": "02000000000101976d31d4288d442838327357f61d138292aca53a301a39d9268c01f21ebcba8f01000000171600143ff816c3a02e013cd7ea4b2c204674768da8a76dffffffff02d0d23e000000000017a9141d055e56274fff9c2ea0c010c623f602d150068b874e9f22330000000017a9144d293bcdc8b44f39bc0c92eb41ca5b5ef1480d468702483045022100bdbd89640f290352626a9de4919e9997342b330812d6f16975c91bd254be6cf60220239cce5db5ae8bc3d281d2f2e4f0906f40814eaf5242a41a425cc6936d17d56401210306f6e5c3dfeb94059c2c436c189768eff8f584c499fad5bb8e2f7ab65449bdeb00000000", "vin": [{"txinwitness": ["3045022100bdbd89640f290352626a9de4919e9997342b330812d6f16975c91bd254be6cf60220239cce5db5ae8bc3d281d2f2e4f0906f40814eaf5242a41a425cc6936d17d56401", "0306f6e5c3dfeb94059c2c436c189768eff8f584c499fad5bb8e2f7ab65449bdeb"], "sequence": 4294967295, "scriptSig": {"hex": "1600143ff816c3a02e013cd7ea4b2c204674768da8a76d", "asm": "00143ff816c3a02e013cd7ea4b2c204674768da8a76d"}, "vout": 1, "txid": "8fbabc1ef2018c26d9391a303aa5ac9282131df65773323828448d28d4316d97"}], "txid": "a8999d572eff666255003749db4d92a9db500810ba3ef89dba547d6fb17b2b91", "blocktime": 1537876114, "version": 2, "confirmations": 11459, "time": 1537876114, "locktime": 0, "vsize": 166, "size": 248}