{"hash": "592ce549a2a38f872f5136174b9d46f9e7bf97a8464d0d6bfb958b5a0c20db8d", "blockhash": "00000000000000000018f53835495a110e01622372bf6ae95dc86f2b0ab887b0", "vout": [{"scriptPubKey": {"reqSigs": 1, "hex": "0014bf51db53fcbcf97e39cf8e7f98d06659156c00f1", "addresses": ["bc1qhagak5luhnuhuww03ele35rxty2kcq83nazh9q"], "asm": "0 bf51db53fcbcf97e39cf8e7f98d06659156c00f1", "type": "witness_v0_keyhash"}, "value": 0.00030146, "n": 0}, {"scriptPubKey": {"reqSigs": 1, "hex": "a914ca4057325e80992fb2bb9916fc5bba74004cd6d487", "addresses": ["3L8RVktsUkrqSuxDkDbef1Wr3VKMeHJCqU"], "asm": "OP_HASH160 ca4057325e80992fb2bb9916fc5bba74004cd6d4 OP_EQUAL", "type": "scripthash"}, "value": 0.00288, "n": 1}], "hex": "01000000000101d509900776a769eb59cfd04dd147a108c4c0990fc77ff908cf2406b2b6a30d910100000000ffffffff02c275000000000000160014bf51db53fcbcf97e39cf8e7f98d06659156c00f1006504000000000017a914ca4057325e80992fb2bb9916fc5bba74004cd6d48702483045022100b0bf7256725783f301be0394b1680360446de0915b558c88e0baa3bbd31092300220164cedbd4efa0903aef77cc9370a5066507c512c65455263fc459b5e6af52a0e012102606a8cec21e23b5de45da36ea6bf1cec3e33a64bb99db554cf8f636c505d63b300000000", "vin": [{"txinwitness": ["3045022100b0bf7256725783f301be0394b1680360446de0915b558c88e0baa3bbd31092300220164cedbd4efa0903aef77cc9370a5066507c512c65455263fc459b5e6af52a0e01", "02606a8cec21e23b5de45da36ea6bf1cec3e33a64bb99db554cf8f636c505d63b3"], "sequence": 4294967295, "scriptSig": {"hex": "", "asm": ""}, "vout": 1, "txid": "910da3b6b20624cf08f97fc70f99c0c408a147d14dd0cf59eb69a776079009d5"}], "txid": "a89d40a3ec365365827ad450075a2244bc24c705ae1cd87f96b88e4c55800f79", "blocktime": 1537870928, "version": 1, "confirmations": 11514, "time": 1537870928, "locktime": 0, "vsize": 142, "size": 224}