{"hash": "e7f72a66bda09b1da86091ff47a4e6e625a961ba534eec785f21cbd1bae8e784", "blockhash": "0000000000000000001f0ddff1eddb255c1121bcd4da4f1bc9a0da00cae72433", "vout": [{"scriptPubKey": {"reqSigs": 1, "hex": "76a9149312c602317b96d03f96ea4d7b44608f8ee37da288ac", "addresses": ["1EQepbxVS5ibxLGvWwdm4S1VH3A8QDk2yA"], "asm": "OP_DUP OP_HASH160 9312c602317b96d03f96ea4d7b44608f8ee37da2 OP_EQUALVERIFY OP_CHECKSIG", "type": "pubkeyhash"}, "value": 0.03666613, "n": 0}, {"scriptPubKey": {"reqSigs": 1, "hex": "0014141d3c31bb8b69d597fe83cfade0c2ff2437661d", "addresses": ["bc1qzswncvdm3d5at9l7s086mcxzlujrwesa0ry6jd"], "asm": "0 141d3c31bb8b69d597fe83cfade0c2ff2437661d", "type": "witness_v0_keyhash"}, "value": 0.00148741, "n": 1}], "hex": "01000000000101a22169050227ebfb522aa1cbc6d378430bde5cb516702cfcd0e6abb5837473e101000000171600142579c7623ede891d3f019f290921b602d63969c3ffffffff02b5f23700000000001976a9149312c602317b96d03f96ea4d7b44608f8ee37da288ac0545020000000000160014141d3c31bb8b69d597fe83cfade0c2ff2437661d02483045022100875d674a1d3043c244a1112f84072e7abd77ffedb71be8772a98f7993084ae9b0220164be63b17d094998567b692b7cb197961a07c1c8246c8e23340a009b966906801210288994723d900d0b9c1e59af984d84201ab3b3b7c187954e9bf7c91ad9c4f30e600000000", "vin": [{"txinwitness": ["3045022100875d674a1d3043c244a1112f84072e7abd77ffedb71be8772a98f7993084ae9b0220164be63b17d094998567b692b7cb197961a07c1c8246c8e23340a009b966906801", "0288994723d900d0b9c1e59af984d84201ab3b3b7c187954e9bf7c91ad9c4f30e6"], "sequence": 4294967295, "scriptSig": {"hex": "1600142579c7623ede891d3f019f290921b602d63969c3", "asm": "00142579c7623ede891d3f019f290921b602d63969c3"}, "vout": 1, "txid": "e1737483b5abe6d0fc2c7016b55cde0b4378d3c6cba12a52fbeb2702056921a2"}], "txid": "a89dd57dea97a54bc635840022f69b3ae520a44508410f7420e22edb6eea25ea", "blocktime": 1537872018, "version": 1, "confirmations": 11489, "time": 1537872018, "locktime": 0, "vsize": 167, "size": 249}