{"hash": "b03e7fcfdebdb494b554b429127dd5875d5c828930751cb0c76e782827bef613", "blockhash": "00000000000000000004ffacab907a6b429b9a5745fa0b75af4234bf69dd7176", "vout": [{"scriptPubKey": {"reqSigs": 1, "hex": "a914ea2e193b0c76d092fbb4b3dadf105bc92fdf7ce787", "addresses": ["3P3FGR5cregPdCxEfhvpXKfvVAq3nyKRC4"], "asm": "OP_HASH160 ea2e193b0c76d092fbb4b3dadf105bc92fdf7ce7 OP_EQUAL", "type": "scripthash"}, "value": 100.0, "n": 0}, {"scriptPubKey": {"reqSigs": 1, "hex": "a914e2b92cf934e6781634c2f616b38cbd1b79e0475087", "addresses": ["3NMpU8SSMVcNfoHjkDtGnefZPd4qe2tHBQ"], "asm": "OP_HASH160 e2b92cf934e6781634c2f616b38cbd1b79e04750 OP_EQUAL", "type": "scripthash"}, "value": 91.49976165, "n": 1}], "hex": "020000000001011d8485c652140e9c036ddb6ae648e718efd5a32e95cddc21c45b2783143abc110100000017160014a604e378e72ffff8d4ce5e861436119dc52499d0ffffffff0200e40b540200000017a914ea2e193b0c76d092fbb4b3dadf105bc92fdf7ce787658e61210200000017a914e2b92cf934e6781634c2f616b38cbd1b79e047508702483045022100e38c132de5a42253eb605c390ccfd11f1421b42d28d2175be6e08a399012e163022042f8ca0712f592f467acb277e30b6313765ef2fddc791564f87231a8c1b0b67f0121024b2f803dd7d27bf901303d2fbf3f69bf5469654e5a7bd8722733b8bb8897f6f300000000", "vin": [{"txinwitness": ["3045022100e38c132de5a42253eb605c390ccfd11f1421b42d28d2175be6e08a399012e163022042f8ca0712f592f467acb277e30b6313765ef2fddc791564f87231a8c1b0b67f01", "024b2f803dd7d27bf901303d2fbf3f69bf5469654e5a7bd8722733b8bb8897f6f3"], "sequence": 4294967295, "scriptSig": {"hex": "160014a604e378e72ffff8d4ce5e861436119dc52499d0", "asm": "0014a604e378e72ffff8d4ce5e861436119dc52499d0"}, "vout": 1, "txid": "11bc3a1483275bc421dccd952ea3d5ef18e748e66adb6d039c0e1452c685841d"}], "txid": "a8a24d8d7641b64cdd446178454b510d05b2b53a88a9cc2f6e4a05be77fa056b", "blocktime": 1537875543, "version": 2, "confirmations": 11464, "time": 1537875543, "locktime": 0, "vsize": 166, "size": 248}