{"hash": "a8a724b0ff70abc5ef9b729e79f67127e45c63a5d64498cd5d8103b77d28c3ce", "blockhash": "0000000000000000001f76057863aec43deb6fa401d9628bb513d65a8098bfab", "vout": [{"scriptPubKey": {"reqSigs": 1, "hex": "76a9140b734a5c1cf6d386def0bf3155b6348cd37bf3ea88ac", "addresses": ["123YYdg1toamiWQYiyZdXSPGNx71zQ4CXc"], "asm": "OP_DUP OP_HASH160 0b734a5c1cf6d386def0bf3155b6348cd37bf3ea OP_EQUALVERIFY OP_CHECKSIG", "type": "pubkeyhash"}, "value": 9.94e-05, "n": 0}, {"scriptPubKey": {"type": "nulldata", "hex": "6a4c50000077ec00010bfa2521b752ef3a7ce7766b7af8e8e963c7cfd5b95b23cc0f42c2fc38c503919c38a803afc4f4de078971a44a4f5baa17a3061336a77aa18b180117e706f8a4c9d02528a348b20ac714", "asm": "OP_RETURN 000077ec00010bfa2521b752ef3a7ce7766b7af8e8e963c7cfd5b95b23cc0f42c2fc38c503919c38a803afc4f4de078971a44a4f5baa17a3061336a77aa18b180117e706f8a4c9d02528a348b20ac714"}, "value": 0.0, "n": 1}], "hex": "0100000001615f79d6de8c567e97c2eae10d8be2e714b70a65451ac462723499d34c40e69f010000006b483045022100d7a8cebb5a25a4303dd915a12aeeb07108d8bad0362b1d4476497c6b19fe038102205c6375b65df0c82e8fa03328bca31a64d77ea66667f15b33ec32a3bd0ed26f920121033eceaeda5d0805736b106e63a4f2ce151c28de6ceac4807754060810a093e784ffffffff02d4260000000000001976a9140b734a5c1cf6d386def0bf3155b6348cd37bf3ea88ac0000000000000000536a4c50000077ec00010bfa2521b752ef3a7ce7766b7af8e8e963c7cfd5b95b23cc0f42c2fc38c503919c38a803afc4f4de078971a44a4f5baa17a3061336a77aa18b180117e706f8a4c9d02528a348b20ac71400000000", "vin": [{"sequence": 4294967295, "scriptSig": {"hex": "483045022100d7a8cebb5a25a4303dd915a12aeeb07108d8bad0362b1d4476497c6b19fe038102205c6375b65df0c82e8fa03328bca31a64d77ea66667f15b33ec32a3bd0ed26f920121033eceaeda5d0805736b106e63a4f2ce151c28de6ceac4807754060810a093e784", "asm": "3045022100d7a8cebb5a25a4303dd915a12aeeb07108d8bad0362b1d4476497c6b19fe038102205c6375b65df0c82e8fa03328bca31a64d77ea66667f15b33ec32a3bd0ed26f92[ALL] 033eceaeda5d0805736b106e63a4f2ce151c28de6ceac4807754060810a093e784"}, "vout": 1, "txid": "9fe6404cd399347262c41a45650ab714e7e28b0de1eac2977e568cded6795f61"}], "txid": "a8a724b0ff70abc5ef9b729e79f67127e45c63a5d64498cd5d8103b77d28c3ce", "blocktime": 1537873891, "version": 1, "confirmations": 11477, "time": 1537873891, "locktime": 0, "vsize": 284, "size": 284}