{"hash": "a8aa12bc4ccc3e94a62d4864a9579224d786a28b08bcf9b820431bd6977ccdfa", "blockhash": "0000000000000000000dcc0f55137456b1a82d3642486a52398922ac4d620174", "vout": [{"scriptPubKey": {"reqSigs": 1, "hex": "76a9143e437fe9c8ad8c664914d7423c8445e78dcb1f6888ac", "addresses": ["16gDkrReMvybG2rUwzxejKn8Vs7NPcuuBK"], "asm": "OP_DUP OP_HASH160 3e437fe9c8ad8c664914d7423c8445e78dcb1f68 OP_EQUALVERIFY OP_CHECKSIG", "type": "pubkeyhash"}, "value": 0.00363229, "n": 0}, {"scriptPubKey": {"reqSigs": 1, "hex": "76a91496288c5cfcce1fec8aa434ca60940dfc4e9e4d2c88ac", "addresses": ["1Egxw7vhtV68wTA23U7K9wZMPxMiWUb6X1"], "asm": "OP_DUP OP_HASH160 96288c5cfcce1fec8aa434ca60940dfc4e9e4d2c OP_EQUALVERIFY OP_CHECKSIG", "type": "pubkeyhash"}, "value": 0.01485185, "n": 1}], "hex": "0100000001d2376e58aeccd280c39b7943b59099adf52a93f9e3eb4266424cf1383f605740010000006a473044022002509a2ba429fe5d2517f5afee42703c09fe8c0e36cee5fefb15e2082e464456022009d1da859f33e65e7993cbc5c35045131dfa20c3441091ace6a86a5236837588012103ca6b74e6129f56eefa5a0d7465ae2bc597c6e713e3b8be02598eeeee4440f28cffffffff02dd8a0500000000001976a9143e437fe9c8ad8c664914d7423c8445e78dcb1f6888ac81a91600000000001976a91496288c5cfcce1fec8aa434ca60940dfc4e9e4d2c88ac00000000", "vin": [{"sequence": 4294967295, "scriptSig": {"hex": "473044022002509a2ba429fe5d2517f5afee42703c09fe8c0e36cee5fefb15e2082e464456022009d1da859f33e65e7993cbc5c35045131dfa20c3441091ace6a86a5236837588012103ca6b74e6129f56eefa5a0d7465ae2bc597c6e713e3b8be02598eeeee4440f28c", "asm": "3044022002509a2ba429fe5d2517f5afee42703c09fe8c0e36cee5fefb15e2082e464456022009d1da859f33e65e7993cbc5c35045131dfa20c3441091ace6a86a5236837588[ALL] 03ca6b74e6129f56eefa5a0d7465ae2bc597c6e713e3b8be02598eeeee4440f28c"}, "vout": 1, "txid": "4057603f38f14c426642ebe3f9932af5ad9990b543799bc380d2ccae586e37d2"}], "txid": "a8aa12bc4ccc3e94a62d4864a9579224d786a28b08bcf9b820431bd6977ccdfa", "blocktime": 1537870268, "version": 1, "confirmations": 11516, "time": 1537870268, "locktime": 0, "vsize": 225, "size": 225}