{"hash": "51829595e51be1dee3e3e2df527aa37585cf7843f2e0423b45e3f083964107d0", "blockhash": "00000000000000000017f5eb5941039fbcee6240d03bc1f2f8e35350df66a1d8", "vout": [{"scriptPubKey": {"reqSigs": 1, "hex": "76a9145c8e89aeeafae056d82ebbb4b4759434d11015c888ac", "addresses": ["19SPvMJpCFy4yJdva35zXzPULQqfyRskbU"], "asm": "OP_DUP OP_HASH160 5c8e89aeeafae056d82ebbb4b4759434d11015c8 OP_EQUALVERIFY OP_CHECKSIG", "type": "pubkeyhash"}, "value": 0.0024646, "n": 0}, {"scriptPubKey": {"reqSigs": 1, "hex": "a91447977de6e9c1ae763cccff4dbc758f129246534587", "addresses": ["38DZNztLJbpqmybHvq8pDTqf22vFQVvH6c"], "asm": "OP_HASH160 47977de6e9c1ae763cccff4dbc758f1292465345 OP_EQUAL", "type": "scripthash"}, "value": 0.01131562, "n": 1}], "hex": "0200000000010230a3120474f5efd1dc46b9c77c3227c43455b13579b921cfcc16c02e5a2235a20200000017160014b7eca285e5aa9c465b0f3f1dce9576c0e5287109feffffffc7414c8ff6fe83666a485999c37f000e9eff85f23fd655267ffcb065232c23a00000000017160014f6105c6ebf91f525e5e49f60a026e4c0479aa932feffffff02bcc20300000000001976a9145c8e89aeeafae056d82ebbb4b4759434d11015c888ac2a4411000000000017a91447977de6e9c1ae763cccff4dbc758f12924653458702483045022100bcf41acc73cfa517c6b7659f411a294ca15a044e9f5a7ac76700258de7bd008902201433dd7abac08cefe0c93449ce99a01541dcf989254df791c0dc549d47d05fdc012103609a8cedcb2ee06e3ef505bc83b85fcb24cfd1836f59ec6024290dc6b67539d6024730440220339686e1b851b891f7d6c8ed7b0819278c9f7bfb1678133a78abe6f4ebc285a20220030ebf88a789f64fd77072272aa732bf99cf88497b5560e4e76be32ac2b834ce0121029c9764823699052d59bb44377bd6f883b5cb42dc661ea2b93f2b79c92b73d19815490800", "vin": [{"txinwitness": ["3045022100bcf41acc73cfa517c6b7659f411a294ca15a044e9f5a7ac76700258de7bd008902201433dd7abac08cefe0c93449ce99a01541dcf989254df791c0dc549d47d05fdc01", "03609a8cedcb2ee06e3ef505bc83b85fcb24cfd1836f59ec6024290dc6b67539d6"], "sequence": 4294967294, "scriptSig": {"hex": "160014b7eca285e5aa9c465b0f3f1dce9576c0e5287109", "asm": "0014b7eca285e5aa9c465b0f3f1dce9576c0e5287109"}, "vout": 2, "txid": "a235225a2ec016cccf21b97935b15534c427327cc7b946dcd1eff5740412a330"}, {"txinwitness": ["30440220339686e1b851b891f7d6c8ed7b0819278c9f7bfb1678133a78abe6f4ebc285a20220030ebf88a789f64fd77072272aa732bf99cf88497b5560e4e76be32ac2b834ce01", "029c9764823699052d59bb44377bd6f883b5cb42dc661ea2b93f2b79c92b73d198"], "sequence": 4294967294, "scriptSig": {"hex": "160014f6105c6ebf91f525e5e49f60a026e4c0479aa932", "asm": "0014f6105c6ebf91f525e5e49f60a026e4c0479aa932"}, "vout": 0, "txid": "a0232c2365b0fc7f2655d63ff285ff9e0e007fc39959486a6683fef68f4c41c7"}], "txid": "a8adb7447cac9e95a57ac74dbf3e2600ddd84f4af329ba2eb8244bc458f05aae", "blocktime": 1537874412, "version": 2, "confirmations": 11468, "time": 1537874412, "locktime": 542997, "vsize": 259, "size": 421}