{"hash": "a8b72fb7cdac2cd6a816b561432266b1f1ed0314129b287e3520a2ce5493b902", "blockhash": "00000000000000000004ffacab907a6b429b9a5745fa0b75af4234bf69dd7176", "vout": [{"scriptPubKey": {"reqSigs": 1, "hex": "a9142882e95ea56a193e06f7a200d4f45b191a4715fe87", "addresses": ["35PDn7bCTAnsA4oZRhz6fxzgrsLxHFRxTh"], "asm": "OP_HASH160 2882e95ea56a193e06f7a200d4f45b191a4715fe OP_EQUAL", "type": "scripthash"}, "value": 0.0079906, "n": 0}, {"scriptPubKey": {"reqSigs": 1, "hex": "76a914188b163f6426e2446c423ae7ca177d5eb2844c2e88ac", "addresses": ["13EmqXpworKi3LENcFtwK2o5voCddKHpN7"], "asm": "OP_DUP OP_HASH160 188b163f6426e2446c423ae7ca177d5eb2844c2e OP_EQUALVERIFY OP_CHECKSIG", "type": "pubkeyhash"}, "value": 0.03003651, "n": 1}], "hex": "0100000001643e5febd0d89213d5911875ba516aac4cfe6ddcdf213ce7386d2db30439a6e7010000006b483045022100f8614b38797b00d3602626fd78c9e75a7e057e2909bde930cb7583a213aa32dd0220684484cc8291a08dc144b9ddea10145c122a6377d9817a14f13d399c32af7558012103d88834ef967b13ecfa518f8f4ab98e9cfad2703e9469308078fe8a75beadfb50ffffffff0254310c000000000017a9142882e95ea56a193e06f7a200d4f45b191a4715fe8703d52d00000000001976a914188b163f6426e2446c423ae7ca177d5eb2844c2e88ac00000000", "vin": [{"sequence": 4294967295, "scriptSig": {"hex": "483045022100f8614b38797b00d3602626fd78c9e75a7e057e2909bde930cb7583a213aa32dd0220684484cc8291a08dc144b9ddea10145c122a6377d9817a14f13d399c32af7558012103d88834ef967b13ecfa518f8f4ab98e9cfad2703e9469308078fe8a75beadfb50", "asm": "3045022100f8614b38797b00d3602626fd78c9e75a7e057e2909bde930cb7583a213aa32dd0220684484cc8291a08dc144b9ddea10145c122a6377d9817a14f13d399c32af7558[ALL] 03d88834ef967b13ecfa518f8f4ab98e9cfad2703e9469308078fe8a75beadfb50"}, "vout": 1, "txid": "e7a63904b32d6d38e73c21dfdc6dfe4cac6a51ba751891d51392d8d0eb5f3e64"}], "txid": "a8b72fb7cdac2cd6a816b561432266b1f1ed0314129b287e3520a2ce5493b902", "blocktime": 1537875543, "version": 1, "confirmations": 11464, "time": 1537875543, "locktime": 0, "vsize": 224, "size": 224}