{"hash": "ca22ca837f66735c7793640c954ad4be047b55c59ebf60e0798bb2d89902e3e9", "blockhash": "0000000000000000001cda96e906b7601b7a6fb1a3b62bca570a9e5d8f4b3de1", "vout": [{"scriptPubKey": {"reqSigs": 1, "hex": "a91447a7a7f7f235446024e6dfb9561342ca77bd85b087", "addresses": ["38Dtk7fHMzatcmrHxDS2cPe6dcimNx8GGg"], "asm": "OP_HASH160 47a7a7f7f235446024e6dfb9561342ca77bd85b0 OP_EQUAL", "type": "scripthash"}, "value": 0.09999999, "n": 0}, {"scriptPubKey": {"reqSigs": 1, "hex": "a91430d3b3c07f91096db842c2d5304d27fe1d3e404c87", "addresses": ["369By5KX9EMGodDb1NhpbEnP4RMMkk2nwx"], "asm": "OP_HASH160 30d3b3c07f91096db842c2d5304d27fe1d3e404c OP_EQUAL", "type": "scripthash"}, "value": 0.05289418, "n": 1}], "hex": "02000000000101782dfef0d10e4faca1568d44aa90fdf79d70704ac6ba28561aa05147af60200c01000000171600147de52efb333e0d36351afed8ff4905741b4ea4a4fdffffff027f9698000000000017a91447a7a7f7f235446024e6dfb9561342ca77bd85b087cab550000000000017a91430d3b3c07f91096db842c2d5304d27fe1d3e404c8702473044022050600beec54171b8484acbb2f348a59c0bcc0196178e8d75c4a2e435698ddfd6022079005b2d817ddfb695e9b552b37bc9536e726f72f629453e01c72e7251b826d80121039c299d941de094558fa969b6e09fd63e6cc150c0e3799583f8bff05b93db2e0713490800", "vin": [{"txinwitness": ["3044022050600beec54171b8484acbb2f348a59c0bcc0196178e8d75c4a2e435698ddfd6022079005b2d817ddfb695e9b552b37bc9536e726f72f629453e01c72e7251b826d801", "039c299d941de094558fa969b6e09fd63e6cc150c0e3799583f8bff05b93db2e07"], "sequence": 4294967293, "scriptSig": {"hex": "1600147de52efb333e0d36351afed8ff4905741b4ea4a4", "asm": "00147de52efb333e0d36351afed8ff4905741b4ea4a4"}, "vout": 1, "txid": "0c2060af4751a01a5628bac64a70709df7fd90aa448d56a1ac4f0ed1f0fe2d78"}], "txid": "a8b812460e749226e866125090c7709734368eaafa39a94d5111104161e970d5", "blocktime": 1537873282, "version": 2, "confirmations": 11484, "time": 1537873282, "locktime": 542995, "vsize": 166, "size": 247}