{"hash": "a8c2919b51fb38b99274afa1a7484a2eaaf98beb206a37c05aaf0b3a193f4288", "blockhash": "0000000000000000001e0dab787dd257d1dbfcb92a98c2207d5e1078be1f4165", "vout": [{"scriptPubKey": {"reqSigs": 1, "hex": "76a91488dd5ef18b335d0716c4c06e6a52d3b96e78b22288ac", "addresses": ["1DUg6Czre2tvYXhmF6reCdScRPUwCowK4M"], "asm": "OP_DUP OP_HASH160 88dd5ef18b335d0716c4c06e6a52d3b96e78b222 OP_EQUALVERIFY OP_CHECKSIG", "type": "pubkeyhash"}, "value": 0.00276547, "n": 0}, {"scriptPubKey": {"reqSigs": 1, "hex": "76a91413c66a027c466ed7c3fbc0456e8a863a203c525888ac", "addresses": ["12oZXhVcdzKcGc9u7Fx9x4R6c3dN5f4TBo"], "asm": "OP_DUP OP_HASH160 13c66a027c466ed7c3fbc0456e8a863a203c5258 OP_EQUALVERIFY OP_CHECKSIG", "type": "pubkeyhash"}, "value": 0.0075155, "n": 1}], "hex": "0100000001dc259e626b2c0ec23420c581d5bdeabb4464dfb3b6abe32848e16f5c0d4c9c0e000000006b4830450221009b95176070145f4e9f7fe3cf48aa809897c2fcf5a3f41cb7a39de0d4af76eae7022023e204a983eea978979e2ff7c62998d25ab56b3c4adf2b7960375cced5e0229d012102ed4a0216a2ca0f5b737442692531aeae36c0cf56e2979d9c801e4938fb67ca22ffffffff0243380400000000001976a91488dd5ef18b335d0716c4c06e6a52d3b96e78b22288acbe770b00000000001976a91413c66a027c466ed7c3fbc0456e8a863a203c525888ac00000000", "vin": [{"sequence": 4294967295, "scriptSig": {"hex": "4830450221009b95176070145f4e9f7fe3cf48aa809897c2fcf5a3f41cb7a39de0d4af76eae7022023e204a983eea978979e2ff7c62998d25ab56b3c4adf2b7960375cced5e0229d012102ed4a0216a2ca0f5b737442692531aeae36c0cf56e2979d9c801e4938fb67ca22", "asm": "30450221009b95176070145f4e9f7fe3cf48aa809897c2fcf5a3f41cb7a39de0d4af76eae7022023e204a983eea978979e2ff7c62998d25ab56b3c4adf2b7960375cced5e0229d[ALL] 02ed4a0216a2ca0f5b737442692531aeae36c0cf56e2979d9c801e4938fb67ca22"}, "vout": 0, "txid": "0e9c4c0d5c6fe14828e3abb6b3df6444bbeabdd581c52034c20e2c6b629e25dc"}], "txid": "a8c2919b51fb38b99274afa1a7484a2eaaf98beb206a37c05aaf0b3a193f4288", "blocktime": 1537872475, "version": 1, "confirmations": 11487, "time": 1537872475, "locktime": 0, "vsize": 226, "size": 226}