{"hash": "a8c3fcece6456ce93dd12b7a0b8e3af5e3b6bb713edad213f06d8f21e8cc18e0", "blockhash": "0000000000000000000e13cef7c366c0283d82e591d1acd082e914b08063cdf1", "vout": [{"scriptPubKey": {"reqSigs": 1, "hex": "76a91444690ed40859b2b0e70aca0cc3d5cf315b321cd988ac", "addresses": ["17Eiobd2ziwGhEQx4QhewrPvpEvgjziDp3"], "asm": "OP_DUP OP_HASH160 44690ed40859b2b0e70aca0cc3d5cf315b321cd9 OP_EQUALVERIFY OP_CHECKSIG", "type": "pubkeyhash"}, "value": 0.00516699, "n": 0}, {"scriptPubKey": {"reqSigs": 1, "hex": "76a9142f7c8cde226c0ea9b757430d62b638f98cc300e988ac", "addresses": ["15L5xvNHZ7PPxco7ARNTY6b6crcLFBgoZA"], "asm": "OP_DUP OP_HASH160 2f7c8cde226c0ea9b757430d62b638f98cc300e9 OP_EQUALVERIFY OP_CHECKSIG", "type": "pubkeyhash"}, "value": 0.27453155, "n": 1}], "hex": "010000000144b4651d657358ad86afeedee4432eed9e9c662bf7ec3271a11c4d76491a13cf010000006a473044022003d69a5f62b11f0f739af87a231540545b68293b7e0cfacd7684ec63babe564c02205d79f96713eb21c11c628b6d7105848a8eb5c27d9146650713611d813eb83da501210397a25aadd38863e389ce89bd29e8e2e3e4170986210826b3d5c0bfa8c0af0f6affffffff025be20700000000001976a91444690ed40859b2b0e70aca0cc3d5cf315b321cd988ace3e6a201000000001976a9142f7c8cde226c0ea9b757430d62b638f98cc300e988ac00000000", "vin": [{"sequence": 4294967295, "scriptSig": {"hex": "473044022003d69a5f62b11f0f739af87a231540545b68293b7e0cfacd7684ec63babe564c02205d79f96713eb21c11c628b6d7105848a8eb5c27d9146650713611d813eb83da501210397a25aadd38863e389ce89bd29e8e2e3e4170986210826b3d5c0bfa8c0af0f6a", "asm": "3044022003d69a5f62b11f0f739af87a231540545b68293b7e0cfacd7684ec63babe564c02205d79f96713eb21c11c628b6d7105848a8eb5c27d9146650713611d813eb83da5[ALL] 0397a25aadd38863e389ce89bd29e8e2e3e4170986210826b3d5c0bfa8c0af0f6a"}, "vout": 1, "txid": "cf131a49764d1ca17132ecf72b669c9eed2e43e4deeeaf86ad5873651d65b444"}], "txid": "a8c3fcece6456ce93dd12b7a0b8e3af5e3b6bb713edad213f06d8f21e8cc18e0", "blocktime": 1537871767, "version": 1, "confirmations": 11495, "time": 1537871767, "locktime": 0, "vsize": 225, "size": 225}