{"hash": "a8c45bea8936574a75e1691dcc1d0c9756253e341b5495347ebc873f18a66cd2", "blockhash": "0000000000000000000baef3f32e3676a92c3b2e5da21b426e4f302fc371ce76", "vout": [{"scriptPubKey": {"reqSigs": 1, "hex": "76a91474d42bde7001c77cb798ef9e91edaa8de4bf3bc288ac", "addresses": ["1BejZBGeSuSVCu7NnxbdYswJRi1pyAv4vf"], "asm": "OP_DUP OP_HASH160 74d42bde7001c77cb798ef9e91edaa8de4bf3bc2 OP_EQUALVERIFY OP_CHECKSIG", "type": "pubkeyhash"}, "value": 3.532e-05, "n": 0}, {"scriptPubKey": {"reqSigs": 1, "hex": "76a9145921ec22f9230ef15ce44b191fd2afd5a3149a7888ac", "addresses": ["198Hn3WG5NMSU4dZADy9rS35TxMwrHaRRR"], "asm": "OP_DUP OP_HASH160 5921ec22f9230ef15ce44b191fd2afd5a3149a78 OP_EQUALVERIFY OP_CHECKSIG", "type": "pubkeyhash"}, "value": 0.1562666, "n": 1}], "hex": "010000000165bd9a8772635a35ec34ed67fce168a336bf405975be6a875bb75e25e0968165000000006b483045022100ffdac8690c7c7b224aef56cf64ce951093c60d2a7d0105eb05b965b45b28c6f1022053f11b7fe683ea9be81592f218dce5ad0c8af4370b0c63b725fe15def26619a001210226b6bd30d9a99550ec315ca7ed74991a130c500c7b711bd4ac5ac0e63fa97ec6ffffffff02cc0d0000000000001976a91474d42bde7001c77cb798ef9e91edaa8de4bf3bc288aca471ee00000000001976a9145921ec22f9230ef15ce44b191fd2afd5a3149a7888ac00000000", "vin": [{"sequence": 4294967295, "scriptSig": {"hex": "483045022100ffdac8690c7c7b224aef56cf64ce951093c60d2a7d0105eb05b965b45b28c6f1022053f11b7fe683ea9be81592f218dce5ad0c8af4370b0c63b725fe15def26619a001210226b6bd30d9a99550ec315ca7ed74991a130c500c7b711bd4ac5ac0e63fa97ec6", "asm": "3045022100ffdac8690c7c7b224aef56cf64ce951093c60d2a7d0105eb05b965b45b28c6f1022053f11b7fe683ea9be81592f218dce5ad0c8af4370b0c63b725fe15def26619a0[ALL] 0226b6bd30d9a99550ec315ca7ed74991a130c500c7b711bd4ac5ac0e63fa97ec6"}, "vout": 0, "txid": "658196e0255eb75b876abe755940bf36a368e1fc67ed34ec355a6372879abd65"}], "txid": "a8c45bea8936574a75e1691dcc1d0c9756253e341b5495347ebc873f18a66cd2", "blocktime": 1537876114, "version": 1, "confirmations": 11460, "time": 1537876114, "locktime": 0, "vsize": 226, "size": 226}