{"hash": "a8c779d55f1a92adcc1cd9860ca7191bd0e060d28123ede1aade5482e853224b", "blockhash": "0000000000000000000e13cef7c366c0283d82e591d1acd082e914b08063cdf1", "vout": [{"scriptPubKey": {"reqSigs": 1, "hex": "76a914a984d35327e4eac2c392483977e3c9b18c0ba0f388ac", "addresses": ["1GTLKJAngRRJpVoGjQYw6arR6dw7d2juRP"], "asm": "OP_DUP OP_HASH160 a984d35327e4eac2c392483977e3c9b18c0ba0f3 OP_EQUALVERIFY OP_CHECKSIG", "type": "pubkeyhash"}, "value": 3.242e-05, "n": 0}, {"scriptPubKey": {"reqSigs": 1, "hex": "76a914eb6cec47768b39c9a4670ff6abd91528ee87e59988ac", "addresses": ["1NTpHBU5uNrxXqQDuTVe678C7MsFWohwWu"], "asm": "OP_DUP OP_HASH160 eb6cec47768b39c9a4670ff6abd91528ee87e599 OP_EQUALVERIFY OP_CHECKSIG", "type": "pubkeyhash"}, "value": 7.809e-05, "n": 1}], "hex": "0100000002e2182703476ac87f72bd4625eb045d47f07caf709e55b62bcb876d3820afbd7f000000006b4830450221009b2b632eb7fbb319955fe2c7a401f0e93a054f9a40b09009eb3827de3eb08840022027c492fa69819f6c7209de471dccdd2ff8d21296b55c2a548973b9e01e9dd93701210203d4f69beebb56639aa4d45a8008bb45f709e4347efe0b6a93eabe1d62cc40f4ffffffff8f6625c296eaf9bb51a00ea37add9e39a4a162ad3341c9a9b96d978b75dae5dc000000006a47304402202c098d79da716a8513097fdc43fd1bb7018bc885ca19035c15055eeb32d08794022040988e10140051a5f0f1b570666f7e757fd70ac15d8f7c2c3f3fb50ce37224e0012103ed9bbb698953ea3a1972a4d15cb01b8f983304bdc033cb7bd55c6e7e3089f0acffffffff02aa0c0000000000001976a914a984d35327e4eac2c392483977e3c9b18c0ba0f388ac811e0000000000001976a914eb6cec47768b39c9a4670ff6abd91528ee87e59988ac00000000", "vin": [{"sequence": 4294967295, "scriptSig": {"hex": "4830450221009b2b632eb7fbb319955fe2c7a401f0e93a054f9a40b09009eb3827de3eb08840022027c492fa69819f6c7209de471dccdd2ff8d21296b55c2a548973b9e01e9dd93701210203d4f69beebb56639aa4d45a8008bb45f709e4347efe0b6a93eabe1d62cc40f4", "asm": "30450221009b2b632eb7fbb319955fe2c7a401f0e93a054f9a40b09009eb3827de3eb08840022027c492fa69819f6c7209de471dccdd2ff8d21296b55c2a548973b9e01e9dd937[ALL] 0203d4f69beebb56639aa4d45a8008bb45f709e4347efe0b6a93eabe1d62cc40f4"}, "vout": 0, "txid": "7fbdaf20386d87cb2bb6559e70af7cf0475d04eb2546bd727fc86a47032718e2"}, {"sequence": 4294967295, "scriptSig": {"hex": "47304402202c098d79da716a8513097fdc43fd1bb7018bc885ca19035c15055eeb32d08794022040988e10140051a5f0f1b570666f7e757fd70ac15d8f7c2c3f3fb50ce37224e0012103ed9bbb698953ea3a1972a4d15cb01b8f983304bdc033cb7bd55c6e7e3089f0ac", "asm": "304402202c098d79da716a8513097fdc43fd1bb7018bc885ca19035c15055eeb32d08794022040988e10140051a5f0f1b570666f7e757fd70ac15d8f7c2c3f3fb50ce37224e0[ALL] 03ed9bbb698953ea3a1972a4d15cb01b8f983304bdc033cb7bd55c6e7e3089f0ac"}, "vout": 0, "txid": "dce5da758b976db9a9c94133ad62a1a4399edd7aa30ea051bbf9ea96c225668f"}], "txid": "a8c779d55f1a92adcc1cd9860ca7191bd0e060d28123ede1aade5482e853224b", "blocktime": 1537871767, "version": 1, "confirmations": 11495, "time": 1537871767, "locktime": 0, "vsize": 373, "size": 373}