{"hash": "a8c731b537a69229854476ec2f7b65f95351f40ef8486c031652f110612b785f", "blockhash": "0000000000000000001f76057863aec43deb6fa401d9628bb513d65a8098bfab", "vout": [{"scriptPubKey": {"reqSigs": 1, "hex": "76a91425d0c45e20f5ea0fd4b91050353da2fbe94eff3d88ac", "addresses": ["14Sx6VGkWJQQ9Y5hyvwjcgyPttqvKpyajo"], "asm": "OP_DUP OP_HASH160 25d0c45e20f5ea0fd4b91050353da2fbe94eff3d OP_EQUALVERIFY OP_CHECKSIG", "type": "pubkeyhash"}, "value": 0.00378305, "n": 0}, {"scriptPubKey": {"reqSigs": 1, "hex": "76a914aa366ac39302702b090a54424849f4f41c6b94ac88ac", "addresses": ["1GX14aHUUwmJCnypG4FzxPaDz6Xm6NvYfC"], "asm": "OP_DUP OP_HASH160 aa366ac39302702b090a54424849f4f41c6b94ac OP_EQUALVERIFY OP_CHECKSIG", "type": "pubkeyhash"}, "value": 0.09740467, "n": 1}], "hex": "0100000001d6f24b2ae806fca86426c346a22d8e6016937f8b6034aa27667856fcb56ea4cd010000006b483045022100f616380edee767c37f3ff4183780eb33e16275beb0400a83db32a56d619c2c1e02201253c1ac16984e06c6401d773f1f4f0622096885a7b3ebb4ec77ae4172084d17012103233b249351272171298b2f61780c710511eac0d135bb1ee9f694fe36ef8598d2ffffffff02c1c50500000000001976a91425d0c45e20f5ea0fd4b91050353da2fbe94eff3d88acb3a09400000000001976a914aa366ac39302702b090a54424849f4f41c6b94ac88ac00000000", "vin": [{"sequence": 4294967295, "scriptSig": {"hex": "483045022100f616380edee767c37f3ff4183780eb33e16275beb0400a83db32a56d619c2c1e02201253c1ac16984e06c6401d773f1f4f0622096885a7b3ebb4ec77ae4172084d17012103233b249351272171298b2f61780c710511eac0d135bb1ee9f694fe36ef8598d2", "asm": "3045022100f616380edee767c37f3ff4183780eb33e16275beb0400a83db32a56d619c2c1e02201253c1ac16984e06c6401d773f1f4f0622096885a7b3ebb4ec77ae4172084d17[ALL] 03233b249351272171298b2f61780c710511eac0d135bb1ee9f694fe36ef8598d2"}, "vout": 1, "txid": "cda46eb5fc56786627aa34608b7f9316608e2da246c32664a8fc06e82a4bf2d6"}], "txid": "a8c731b537a69229854476ec2f7b65f95351f40ef8486c031652f110612b785f", "blocktime": 1537873891, "version": 1, "confirmations": 11477, "time": 1537873891, "locktime": 0, "vsize": 226, "size": 226}