{"hash": "eff6881a99b242390c02b3f38dd77c5717956e016d80a80ba9914f1bda641295", "blockhash": "0000000000000000000dcc0f55137456b1a82d3642486a52398922ac4d620174", "vout": [{"scriptPubKey": {"reqSigs": 1, "hex": "a91418a4a643883fbd7956fab9c78bdd395990c9f06e87", "addresses": ["33wKPCARyDheeEw1xHaHEXcRZc5GVigFCa"], "asm": "OP_HASH160 18a4a643883fbd7956fab9c78bdd395990c9f06e OP_EQUAL", "type": "scripthash"}, "value": 0.00999864, "n": 0}, {"scriptPubKey": {"reqSigs": 1, "hex": "76a914d84a2b7e65fe4e8219af1213b8843826cd0bf4ef88ac", "addresses": ["1LidorK3GSVhVZSoHvoeDJ7BPRPBgWdDDk"], "asm": "OP_DUP OP_HASH160 d84a2b7e65fe4e8219af1213b8843826cd0bf4ef OP_EQUALVERIFY OP_CHECKSIG", "type": "pubkeyhash"}, "value": 0.0034506, "n": 1}], "hex": "020000000001024c12b652fd7f4bbe62fb6c2ff593ef67f761d50d0f61756924a853a4fabd336501000000171600142c9e39739f9e1d6794ff3281d3f54b6b51bf7393feffffffc1f0d83f02f14b2898f0ee7302609dff259b929c9b0a52d94bb757dcb92376070900000017160014010aabbd3385f909fdb921a721224e188f48cf91feffffff02b8410f000000000017a91418a4a643883fbd7956fab9c78bdd395990c9f06e87e4430500000000001976a914d84a2b7e65fe4e8219af1213b8843826cd0bf4ef88ac02483045022100daafb55e2fb29a7ce91382bee3e3512c7ef26527bb29db7f957078686b9b7c8b0220777413d682c089ef3dd08fd5e624d74940470ada783b5f8249e406eab25a38ba0121021e2eaee85f62698498b6700c8c34316a0a6902abb630d1de0cacc602da25add702483045022100fbcc28d8a021af9b1723020e2de05fa18e39cf8f947430dc4d3269f49abe1960022013b6cd5115ea0ff5b22353ec8846fc2f48a2dbce5d3912ae7b9448c280f7783401210276b0db97f26edb5e56a1df21f78e030676b0fbd0dd9c9773e46356747cfd6d010c490800", "vin": [{"txinwitness": ["3045022100daafb55e2fb29a7ce91382bee3e3512c7ef26527bb29db7f957078686b9b7c8b0220777413d682c089ef3dd08fd5e624d74940470ada783b5f8249e406eab25a38ba01", "021e2eaee85f62698498b6700c8c34316a0a6902abb630d1de0cacc602da25add7"], "sequence": 4294967294, "scriptSig": {"hex": "1600142c9e39739f9e1d6794ff3281d3f54b6b51bf7393", "asm": "00142c9e39739f9e1d6794ff3281d3f54b6b51bf7393"}, "vout": 1, "txid": "6533bdfaa453a8246975610f0dd561f767ef93f52f6cfb62be4b7ffd52b6124c"}, {"txinwitness": ["3045022100fbcc28d8a021af9b1723020e2de05fa18e39cf8f947430dc4d3269f49abe1960022013b6cd5115ea0ff5b22353ec8846fc2f48a2dbce5d3912ae7b9448c280f7783401", "0276b0db97f26edb5e56a1df21f78e030676b0fbd0dd9c9773e46356747cfd6d01"], "sequence": 4294967294, "scriptSig": {"hex": "160014010aabbd3385f909fdb921a721224e188f48cf91", "asm": "0014010aabbd3385f909fdb921a721224e188f48cf91"}, "vout": 9, "txid": "077623b9dc57b74bd9520a9b9c929b25ff9d600273eef098284bf1023fd8f0c1"}], "txid": "a8c85f31bf2e4f44160cc4d74ec855bc3153e7cb0151f606cfda4c2087aa02d6", "blocktime": 1537870268, "version": 2, "confirmations": 11520, "time": 1537870268, "locktime": 542988, "vsize": 259, "size": 422}