{"hash": "a8d54400800620dbaab7ffddb34acf934369cb41dbf3b6a3d57032be2140139e", "blockhash": "0000000000000000001e0dab787dd257d1dbfcb92a98c2207d5e1078be1f4165", "vout": [{"scriptPubKey": {"reqSigs": 1, "hex": "76a9142d13f4c72deb57ebb1b5270caf11a6333792e4f788ac", "addresses": ["157MKDEhTaxoTumAEFBJMsCSSUg5MuoM5r"], "asm": "OP_DUP OP_HASH160 2d13f4c72deb57ebb1b5270caf11a6333792e4f7 OP_EQUALVERIFY OP_CHECKSIG", "type": "pubkeyhash"}, "value": 9.799e-05, "n": 0}, {"scriptPubKey": {"reqSigs": 1, "hex": "76a9149d976d568f5a740f2149841bc6ece00ab9cf65db88ac", "addresses": ["1FNGVTVwLyCUWqkMYyzf2rSQp2Y1dtLpGh"], "asm": "OP_DUP OP_HASH160 9d976d568f5a740f2149841bc6ece00ab9cf65db OP_EQUALVERIFY OP_CHECKSIG", "type": "pubkeyhash"}, "value": 0.01281093, "n": 1}], "hex": "01000000038a814cf7f786b92f0013f5696f9d64327dbb4fea0bd503107f8d0c4f98a38239000000006b4830450221009a38ac9c44b128fb550e654e9c0c76dd7cfded42d14dd1353eb5e1999057bd0102201b712d90bf1ba712951fb274721017ed16d0fb12f8af1de423c728143df6755401210364c73fc3e019187d615572c27c7fae6ebbc4094f6d6909c654ef07984e638021ffffffff01ecad9ecf343785c729d6d4a7663829d7aa041f847e26dba9797eb9cb71e75f010000006a473044022049a852a2b194a9b284274b8ef76c80db94ceb912a4882d1a4f05422b070d09d1022029ba68832c4c77a44bad476c174f27b37e6b996e99ac586bd8004e94ccee3eff01210364c73fc3e019187d615572c27c7fae6ebbc4094f6d6909c654ef07984e638021ffffffff83cf9ff09e561efd797351d9b76320c1a6b54894088a1600174dd50d3da4fbbd000000006b483045022100ecabe0599aca474f17c8831a85f19df40f31c032c4c6aa54a5fc5b8bd3b91851022010ed740a333a43950b722c515b0755542cde29142673a61eb27610bcdfc00ec90121039a65a51bb5a72be100b3e18509479858f9c9016c9c8fd9433eaa6e51a3049c3cffffffff0247260000000000001976a9142d13f4c72deb57ebb1b5270caf11a6333792e4f788ac458c1300000000001976a9149d976d568f5a740f2149841bc6ece00ab9cf65db88ac00000000", "vin": [{"sequence": 4294967295, "scriptSig": {"hex": "4830450221009a38ac9c44b128fb550e654e9c0c76dd7cfded42d14dd1353eb5e1999057bd0102201b712d90bf1ba712951fb274721017ed16d0fb12f8af1de423c728143df6755401210364c73fc3e019187d615572c27c7fae6ebbc4094f6d6909c654ef07984e638021", "asm": "30450221009a38ac9c44b128fb550e654e9c0c76dd7cfded42d14dd1353eb5e1999057bd0102201b712d90bf1ba712951fb274721017ed16d0fb12f8af1de423c728143df67554[ALL] 0364c73fc3e019187d615572c27c7fae6ebbc4094f6d6909c654ef07984e638021"}, "vout": 0, "txid": "3982a3984f0c8d7f1003d50bea4fbb7d32649d6f69f513002fb986f7f74c818a"}, {"sequence": 4294967295, "scriptSig": {"hex": "473044022049a852a2b194a9b284274b8ef76c80db94ceb912a4882d1a4f05422b070d09d1022029ba68832c4c77a44bad476c174f27b37e6b996e99ac586bd8004e94ccee3eff01210364c73fc3e019187d615572c27c7fae6ebbc4094f6d6909c654ef07984e638021", "asm": "3044022049a852a2b194a9b284274b8ef76c80db94ceb912a4882d1a4f05422b070d09d1022029ba68832c4c77a44bad476c174f27b37e6b996e99ac586bd8004e94ccee3eff[ALL] 0364c73fc3e019187d615572c27c7fae6ebbc4094f6d6909c654ef07984e638021"}, "vout": 1, "txid": "5fe771cbb97e79a9db267e841f04aad7293866a7d4d629c7853734cf9eadec01"}, {"sequence": 4294967295, "scriptSig": {"hex": "483045022100ecabe0599aca474f17c8831a85f19df40f31c032c4c6aa54a5fc5b8bd3b91851022010ed740a333a43950b722c515b0755542cde29142673a61eb27610bcdfc00ec90121039a65a51bb5a72be100b3e18509479858f9c9016c9c8fd9433eaa6e51a3049c3c", "asm": "3045022100ecabe0599aca474f17c8831a85f19df40f31c032c4c6aa54a5fc5b8bd3b91851022010ed740a333a43950b722c515b0755542cde29142673a61eb27610bcdfc00ec9[ALL] 039a65a51bb5a72be100b3e18509479858f9c9016c9c8fd9433eaa6e51a3049c3c"}, "vout": 0, "txid": "bdfba43d0dd54d1700168a089448b5a6c12063b7d9517379fd1e569ef09fcf83"}], "txid": "a8d54400800620dbaab7ffddb34acf934369cb41dbf3b6a3d57032be2140139e", "blocktime": 1537872475, "version": 1, "confirmations": 11487, "time": 1537872475, "locktime": 0, "vsize": 521, "size": 521}