{"hash": "a8d8e15b04cca6982c2f66cce514a24c36eb1d0fb636d18c6982a5b5d6b63251", "blockhash": "0000000000000000001f76057863aec43deb6fa401d9628bb513d65a8098bfab", "vout": [{"scriptPubKey": {"reqSigs": 1, "hex": "76a91465d0e6242de10df724bcb36c97d09f786c6ca5b688ac", "addresses": ["1AHMVw1JQ5dBE893sUvoGjRWko7NFZrQKH"], "asm": "OP_DUP OP_HASH160 65d0e6242de10df724bcb36c97d09f786c6ca5b6 OP_EQUALVERIFY OP_CHECKSIG", "type": "pubkeyhash"}, "value": 0.0015625, "n": 0}, {"scriptPubKey": {"reqSigs": 1, "hex": "76a9141c4c6b1651fa96b12d59a545dfcb3efa86838f7088ac", "addresses": ["13adU1VVF1BHDBFdq1SBgWoGX4omfqJoeS"], "asm": "OP_DUP OP_HASH160 1c4c6b1651fa96b12d59a545dfcb3efa86838f70 OP_EQUALVERIFY OP_CHECKSIG", "type": "pubkeyhash"}, "value": 0.07067093, "n": 1}], "hex": "0100000001be35b12b87cf0320ae73ae57ffb7c03d5adcf1e0b8cae8be14d11edcdbb0471a010000006b483045022100afc9ebeda7fda4e02097b30c01a3f1c9d5b646d0ed705409e1816c04a91bfaa2022052c041328e196147781163f155d02795ce0cbf0b6a0fdb432c7e7201604b69d0012103d3d59f62cba554cf64cb9a10758ae0058434077ca0bb64fd334485fef638114cffffffff025a620200000000001976a91465d0e6242de10df724bcb36c97d09f786c6ca5b688acd5d56b00000000001976a9141c4c6b1651fa96b12d59a545dfcb3efa86838f7088ac00000000", "vin": [{"sequence": 4294967295, "scriptSig": {"hex": "483045022100afc9ebeda7fda4e02097b30c01a3f1c9d5b646d0ed705409e1816c04a91bfaa2022052c041328e196147781163f155d02795ce0cbf0b6a0fdb432c7e7201604b69d0012103d3d59f62cba554cf64cb9a10758ae0058434077ca0bb64fd334485fef638114c", "asm": "3045022100afc9ebeda7fda4e02097b30c01a3f1c9d5b646d0ed705409e1816c04a91bfaa2022052c041328e196147781163f155d02795ce0cbf0b6a0fdb432c7e7201604b69d0[ALL] 03d3d59f62cba554cf64cb9a10758ae0058434077ca0bb64fd334485fef638114c"}, "vout": 1, "txid": "1a47b0dbdc1ed114bee8cab8e0f1dc5a3dc0b7ff57ae73ae2003cf872bb135be"}], "txid": "a8d8e15b04cca6982c2f66cce514a24c36eb1d0fb636d18c6982a5b5d6b63251", "blocktime": 1537873891, "version": 1, "confirmations": 11476, "time": 1537873891, "locktime": 0, "vsize": 226, "size": 226}