{"hash": "a8d94753b45a5332caa49fd81fdfc18122bd35e91ee3eb8985980b28159a8aa9", "blockhash": "0000000000000000001e0dab787dd257d1dbfcb92a98c2207d5e1078be1f4165", "vout": [{"scriptPubKey": {"reqSigs": 1, "hex": "76a9148fe061348fad9ea2ae7d758c58eb7ae452f0abea88ac", "addresses": ["1E7kRcDbzbjva8RVpfdzTPf5YxUcvY8xJn"], "asm": "OP_DUP OP_HASH160 8fe061348fad9ea2ae7d758c58eb7ae452f0abea OP_EQUALVERIFY OP_CHECKSIG", "type": "pubkeyhash"}, "value": 0.00059491, "n": 0}, {"scriptPubKey": {"reqSigs": 1, "hex": "76a914724ff2e096cac1d256c35fd44d4154d6ad4746f688ac", "addresses": ["1BRRoofEismZ2P88eRwCHSHmX4TxqM8u4f"], "asm": "OP_DUP OP_HASH160 724ff2e096cac1d256c35fd44d4154d6ad4746f6 OP_EQUALVERIFY OP_CHECKSIG", "type": "pubkeyhash"}, "value": 0.003916, "n": 1}], "hex": "01000000016ec867daa74404d033e1c7a2d6f52cc02411da6c5cc5a894ea731f47ca909766000000006b4830450221009aef7f1ad21a551e132bb6873afa171dfbc055e076fbac05f952e5ded1e50f1502207836b87e6a41f5fbd72ed5453d3f4d1ebe4eda0c58ff4e61b416c0a8b75bfb9f012102806fff7549af6dacf9ff2a6d83a2b900cc7fe85f9c4705734921273b26a2f5b1ffffffff0263e80000000000001976a9148fe061348fad9ea2ae7d758c58eb7ae452f0abea88acb0f90500000000001976a914724ff2e096cac1d256c35fd44d4154d6ad4746f688ac00000000", "vin": [{"sequence": 4294967295, "scriptSig": {"hex": "4830450221009aef7f1ad21a551e132bb6873afa171dfbc055e076fbac05f952e5ded1e50f1502207836b87e6a41f5fbd72ed5453d3f4d1ebe4eda0c58ff4e61b416c0a8b75bfb9f012102806fff7549af6dacf9ff2a6d83a2b900cc7fe85f9c4705734921273b26a2f5b1", "asm": "30450221009aef7f1ad21a551e132bb6873afa171dfbc055e076fbac05f952e5ded1e50f1502207836b87e6a41f5fbd72ed5453d3f4d1ebe4eda0c58ff4e61b416c0a8b75bfb9f[ALL] 02806fff7549af6dacf9ff2a6d83a2b900cc7fe85f9c4705734921273b26a2f5b1"}, "vout": 0, "txid": "669790ca471f73ea94a8c55c6cda1124c02cf5d6a2c7e133d00444a7da67c86e"}], "txid": "a8d94753b45a5332caa49fd81fdfc18122bd35e91ee3eb8985980b28159a8aa9", "blocktime": 1537872475, "version": 1, "confirmations": 11487, "time": 1537872475, "locktime": 0, "vsize": 226, "size": 226}