{"hash": "442ae5f76a1a8c78057c222bcb5d711bc5006217ead9ff1c296b36049258b5ad", "blockhash": "000000000000000000022b45ed06c6f4ccd3cf7fb5ba4856ebd2e58215665228", "vout": [{"scriptPubKey": {"reqSigs": 1, "hex": "a91405f1140344818194b1553a8d626d277e895e06bd87", "addresses": ["32ES6udGX7APs4EE126Ncwxtb2ezptwAT5"], "asm": "OP_HASH160 05f1140344818194b1553a8d626d277e895e06bd OP_EQUAL", "type": "scripthash"}, "value": 0.01012469, "n": 0}, {"scriptPubKey": {"reqSigs": 1, "hex": "a9148321bac2202c2b1e12fe11bf27bf5f01f34f5b0587", "addresses": ["3DeNrEzKoUdDa6m3FJvp4jPBk1JrUfuUHz"], "asm": "OP_HASH160 8321bac2202c2b1e12fe11bf27bf5f01f34f5b05 OP_EQUAL", "type": "scripthash"}, "value": 0.0041586, "n": 1}], "hex": "02000000000102c0e29227c4c9a21dd00bcce08377e7993be1bb071f28f30589e82d5649eb30bd0100000017160014812c40fc5000f6977e4a67ded8bb7f68fb752035fefffffff6281a6022c8003fb5909ba797db1d2e0386f3cccf1c777a5bddce21ab14727600000000171600145092a3600fe467734829d7134bf6b4f733178642feffffff02f5720f000000000017a91405f1140344818194b1553a8d626d277e895e06bd87745806000000000017a9148321bac2202c2b1e12fe11bf27bf5f01f34f5b0587024730440220254a32ed20a9dd3f8639fc190f3f5e4e1461688656aaeaf2eb480a77dc467c4c02207ddf7a5ac00956d02e76899a3f8a2722c17ce5be87b539aac0fab3f017506b58012102beccbae38dd2d0f0314afe6f7bdfaa7fb40d21924028f987e2a35f2e1e69f9e302473044022030ae9d8cca8c113135cb4762a3954640d2b33d870e98c29fdd67e4fd1ff9963502203e7bf7fc313d99f28517ed9856dd13dad6e9f137e4b24141d52d47b638bd3bdf012103c1937bc9fed649c372cb778b25fc122ea8e7b49b9400999f7c34ae321b80f1450b490800", "vin": [{"txinwitness": ["30440220254a32ed20a9dd3f8639fc190f3f5e4e1461688656aaeaf2eb480a77dc467c4c02207ddf7a5ac00956d02e76899a3f8a2722c17ce5be87b539aac0fab3f017506b5801", "02beccbae38dd2d0f0314afe6f7bdfaa7fb40d21924028f987e2a35f2e1e69f9e3"], "sequence": 4294967294, "scriptSig": {"hex": "160014812c40fc5000f6977e4a67ded8bb7f68fb752035", "asm": "0014812c40fc5000f6977e4a67ded8bb7f68fb752035"}, "vout": 1, "txid": "bd30eb49562de88905f3281f07bbe13b99e77783e0cc0bd01da2c9c42792e2c0"}, {"txinwitness": ["3044022030ae9d8cca8c113135cb4762a3954640d2b33d870e98c29fdd67e4fd1ff9963502203e7bf7fc313d99f28517ed9856dd13dad6e9f137e4b24141d52d47b638bd3bdf01", "03c1937bc9fed649c372cb778b25fc122ea8e7b49b9400999f7c34ae321b80f145"], "sequence": 4294967294, "scriptSig": {"hex": "1600145092a3600fe467734829d7134bf6b4f733178642", "asm": "00145092a3600fe467734829d7134bf6b4f733178642"}, "vout": 0, "txid": "767214ab21cedd5b7a771ccfccf386032e1ddb97a79b90b53f00c822601a28f6"}], "txid": "a8de80f9d4c60ebff1f1438d0bda5730753174014bd1064ab9aa966dd7253bc3", "blocktime": 1537869901, "version": 2, "confirmations": 11524, "time": 1537869901, "locktime": 542987, "vsize": 256, "size": 418}