{"hash": "066084dd8f23b264a2f8e7817d3b81ae999fb5b19e57ec838e3a29a923016192", "blockhash": "0000000000000000000dcc0f55137456b1a82d3642486a52398922ac4d620174", "vout": [{"scriptPubKey": {"reqSigs": 1, "hex": "a9146b710e8b0b2eda2e88c6f89a34cc32921e80706187", "addresses": ["3BV7fPq5shwvEJ3o5GsY5vkznzQETcJ9r4"], "asm": "OP_HASH160 6b710e8b0b2eda2e88c6f89a34cc32921e807061 OP_EQUAL", "type": "scripthash"}, "value": 0.00109084, "n": 0}, {"scriptPubKey": {"reqSigs": 1, "hex": "a9149649ad6d2730bb28020a268d9d80df10a9f74ad487", "addresses": ["3FPfYWwfMfKMGY7fuPHvz2b73RhTNGzsm3"], "asm": "OP_HASH160 9649ad6d2730bb28020a268d9d80df10a9f74ad4 OP_EQUAL", "type": "scripthash"}, "value": 13.95667689, "n": 1}], "hex": "01000000000101d8862e4635aafcf2b6afad502c46355010a0802d2195f060e572bbc8cfe421a401000000232200207768efcc1e5eb3d28410fac3f45831004c860cc24cddd940a616b34324823fceffffffff021caa01000000000017a9146b710e8b0b2eda2e88c6f89a34cc32921e80706187e93230530000000017a9149649ad6d2730bb28020a268d9d80df10a9f74ad487040047304402201550aeb5dcc12413ac65c2ebefc52328e2bcfd6b22b6212873ee0e0a2d22bbe302206b25de6696f0ee378b5a9eb7fb0040f66b64e71ffca3a866a62b364fd6c1a9b501483045022100aba62f7dd70117b9404934bb268e6d7c737c94116037254fc695eab8c44014c0022068f9a78d3f6f0cd2485b8847c86c9415e44892b3265ee6a216c91c160202cefc0147522102529d5d1f6733ab45d9d50e07db42c7f6b967ae321c38b726c2247f149959b8262103d0c936a5988dd8421c63240496b723b0ec42400c38b9350e32c2eb4f47d8796952ae00000000", "vin": [{"txinwitness": ["", "304402201550aeb5dcc12413ac65c2ebefc52328e2bcfd6b22b6212873ee0e0a2d22bbe302206b25de6696f0ee378b5a9eb7fb0040f66b64e71ffca3a866a62b364fd6c1a9b501", "3045022100aba62f7dd70117b9404934bb268e6d7c737c94116037254fc695eab8c44014c0022068f9a78d3f6f0cd2485b8847c86c9415e44892b3265ee6a216c91c160202cefc01", "522102529d5d1f6733ab45d9d50e07db42c7f6b967ae321c38b726c2247f149959b8262103d0c936a5988dd8421c63240496b723b0ec42400c38b9350e32c2eb4f47d8796952ae"], "sequence": 4294967295, "scriptSig": {"hex": "2200207768efcc1e5eb3d28410fac3f45831004c860cc24cddd940a616b34324823fce", "asm": "00207768efcc1e5eb3d28410fac3f45831004c860cc24cddd940a616b34324823fce"}, "vout": 1, "txid": "a421e4cfc8bb72e560f095212d80a0105035462c50adafb6f2fcaa35462e86d8"}], "txid": "a8e2add6a1e770fe06f5c7a3204b513ea4fee9dfa66d817f2bf49ca2b4a77ae7", "blocktime": 1537870268, "version": 1, "confirmations": 11518, "time": 1537870268, "locktime": 0, "vsize": 206, "size": 371}