{"hash": "a8e4e2ee9173117adeb321998d7bbebebbd4459519a559be5094347b03cbb306", "blockhash": "0000000000000000001e0dab787dd257d1dbfcb92a98c2207d5e1078be1f4165", "vout": [{"scriptPubKey": {"reqSigs": 1, "hex": "a914ba8c6f24d181b9470119e10a50732917a71af43787", "addresses": ["3JhPqm4EzJHfJ3A4GdunynwA4en22ocg7a"], "asm": "OP_HASH160 ba8c6f24d181b9470119e10a50732917a71af437 OP_EQUAL", "type": "scripthash"}, "value": 0.00590838, "n": 0}, {"scriptPubKey": {"reqSigs": 1, "hex": "76a914bd7bd7ea401572286ef47d0719599630fd3c27e288ac", "addresses": ["1JGu53kmRjbS2tddtChKzSXngccs3WJpp2"], "asm": "OP_DUP OP_HASH160 bd7bd7ea401572286ef47d0719599630fd3c27e2 OP_EQUALVERIFY OP_CHECKSIG", "type": "pubkeyhash"}, "value": 0.04170649, "n": 1}], "hex": "010000000179073727f47c5ebf3c87e649a0fdc9b674bc2e44bc0c291a77ef075fc4851f77010000006a47304402205ad21d762abac3c2cf7924aa9e88dc1bf034e90420d435018bdba7feeb707c6902205b41831b05ac777c78682e61f84e8c5a4a1a3a0ce8e16c63438876d2a0de93190121036612b3a16301328fde30eaff3fc88cf269e64f50d2a08f2547ec356ed8f7331affffffff02f60309000000000017a914ba8c6f24d181b9470119e10a50732917a71af4378799a33f00000000001976a914bd7bd7ea401572286ef47d0719599630fd3c27e288ac00000000", "vin": [{"sequence": 4294967295, "scriptSig": {"hex": "47304402205ad21d762abac3c2cf7924aa9e88dc1bf034e90420d435018bdba7feeb707c6902205b41831b05ac777c78682e61f84e8c5a4a1a3a0ce8e16c63438876d2a0de93190121036612b3a16301328fde30eaff3fc88cf269e64f50d2a08f2547ec356ed8f7331a", "asm": "304402205ad21d762abac3c2cf7924aa9e88dc1bf034e90420d435018bdba7feeb707c6902205b41831b05ac777c78682e61f84e8c5a4a1a3a0ce8e16c63438876d2a0de9319[ALL] 036612b3a16301328fde30eaff3fc88cf269e64f50d2a08f2547ec356ed8f7331a"}, "vout": 1, "txid": "771f85c45f07ef771a290cbc442ebc74b6c9fda049e6873cbf5e7cf427370779"}], "txid": "a8e4e2ee9173117adeb321998d7bbebebbd4459519a559be5094347b03cbb306", "blocktime": 1537872475, "version": 1, "confirmations": 11486, "time": 1537872475, "locktime": 0, "vsize": 223, "size": 223}