{"hash": "3cbde2b4133eee2337ac70c40f8c5d15c9bc27c7377a817df918e2c219e2ee98", "blockhash": "0000000000000000001f76057863aec43deb6fa401d9628bb513d65a8098bfab", "vout": [{"scriptPubKey": {"reqSigs": 1, "hex": "a914fa45e29bf88bc1923f50a75fe53af2afa9b84b0887", "addresses": ["3QWLaD7XpzMMmFLYKvXfGxqo1vi5bUZuQA"], "asm": "OP_HASH160 fa45e29bf88bc1923f50a75fe53af2afa9b84b08 OP_EQUAL", "type": "scripthash"}, "value": 0.0101413, "n": 0}, {"scriptPubKey": {"reqSigs": 1, "hex": "76a9145765d151ed725076ca70edb9a867a436b6c7233a88ac", "addresses": ["18y7m72yCMavcJEG7DPQstZkUSUV5vt2hB"], "asm": "OP_DUP OP_HASH160 5765d151ed725076ca70edb9a867a436b6c7233a OP_EQUALVERIFY OP_CHECKSIG", "type": "pubkeyhash"}, "value": 0.0024686, "n": 1}], "hex": "0200000000010282d44333666242c470a456c80241d6289a6ab634b7bb4ce4081bbddb24e7946e0100000017160014b888c2d38c8ad6a7cdd3967d4dfab07ccf741b59feffffffa7494fd7c006e0cad0afb5830dd13db3c42c1deb37ee3a1e9df134cd9e792c2d0000000017160014734efa4fd0c99291e26cbecc58711aa359800685feffffff0272790f000000000017a914fa45e29bf88bc1923f50a75fe53af2afa9b84b08874cc40300000000001976a9145765d151ed725076ca70edb9a867a436b6c7233a88ac02483045022100fa3a5ff95ed9c3f7ddbbc73f234371948df9c0aa56d122448fc431a48996685602207ba1ac14679ed51ea952ac72169451232ec9953dc1136771f61db8043bcc2a7c012102f3058df5008aa05d3da9620f876ff64a612acc876fe42ea403aa474244271ed40248304502210090efdf5bd4a4c2b5c70ea984871e2bbaffdf0b3f2632e650a2c7e829a52584190220707e872861fb8294f41c898d31320eb5c4cc26b142d736ea850e63d8a0cb8afa012103c97d46a5ae1f140cb8d0aa4b424f5af57c07b9c0a98a46af16f141774c73c7bb0c490800", "vin": [{"txinwitness": ["3045022100fa3a5ff95ed9c3f7ddbbc73f234371948df9c0aa56d122448fc431a48996685602207ba1ac14679ed51ea952ac72169451232ec9953dc1136771f61db8043bcc2a7c01", "02f3058df5008aa05d3da9620f876ff64a612acc876fe42ea403aa474244271ed4"], "sequence": 4294967294, "scriptSig": {"hex": "160014b888c2d38c8ad6a7cdd3967d4dfab07ccf741b59", "asm": "0014b888c2d38c8ad6a7cdd3967d4dfab07ccf741b59"}, "vout": 1, "txid": "6e94e724dbbd1b08e44cbbb734b66a9a28d64102c856a470c44262663343d482"}, {"txinwitness": ["304502210090efdf5bd4a4c2b5c70ea984871e2bbaffdf0b3f2632e650a2c7e829a52584190220707e872861fb8294f41c898d31320eb5c4cc26b142d736ea850e63d8a0cb8afa01", "03c97d46a5ae1f140cb8d0aa4b424f5af57c07b9c0a98a46af16f141774c73c7bb"], "sequence": 4294967294, "scriptSig": {"hex": "160014734efa4fd0c99291e26cbecc58711aa359800685", "asm": "0014734efa4fd0c99291e26cbecc58711aa359800685"}, "vout": 0, "txid": "2d2c799ecd34f19d1e3aee37eb1d2cc4b33dd10d83b5afd0cae006c0d74f49a7"}], "txid": "a8e444e2c0af8b566a690a9335f3985b2b33b2526ed5da99491306c4c5294e00", "blocktime": 1537873891, "version": 2, "confirmations": 11478, "time": 1537873891, "locktime": 542988, "vsize": 259, "size": 422}