{"hash": "a8f09ba92b79fd83b9ae57788e7e15cf1f2a0792eb936829062a04edc8b6aedd", "blockhash": "0000000000000000000e13cef7c366c0283d82e591d1acd082e914b08063cdf1", "vout": [{"scriptPubKey": {"reqSigs": 1, "hex": "76a9148b2723fc6bd6f6e7b979eaf2b173071d81fb531c88ac", "addresses": ["1DgmpCYDmjyb5SQnyxKiesWvE9uFgEYp3i"], "asm": "OP_DUP OP_HASH160 8b2723fc6bd6f6e7b979eaf2b173071d81fb531c OP_EQUALVERIFY OP_CHECKSIG", "type": "pubkeyhash"}, "value": 0.00644106, "n": 0}, {"scriptPubKey": {"type": "nulldata", "hex": "6a4c50000077960001707e7f00412517504352f169e3ef3236678a625097bcbefa6b8351586b4e56323c2670eee68107faace4a0598c885baa0d140614cf6593aac1211d100759d4ba30d2c37bb011d97e02cf", "asm": "OP_RETURN 000077960001707e7f00412517504352f169e3ef3236678a625097bcbefa6b8351586b4e56323c2670eee68107faace4a0598c885baa0d140614cf6593aac1211d100759d4ba30d2c37bb011d97e02cf"}, "value": 0.0, "n": 1}], "hex": "01000000012c5088c9123149d9baaf6214d06a3cd75bb3d658260fa2fac3a1630c59d9a80b010000006a473044022063bd08868eba0a596caeefd1dcaaf08e387a7e319405d2455fbb0141270d5e8602201cbccbbb5e4f1820ee61fee0756c4161ec2f0cdca3724fc83d728fbc42c999fd0121026ce60f83278a6d8908f01f0f33c60e7056f5271c54fbc365008b8a88088a2754ffffffff020ad40900000000001976a9148b2723fc6bd6f6e7b979eaf2b173071d81fb531c88ac0000000000000000536a4c50000077960001707e7f00412517504352f169e3ef3236678a625097bcbefa6b8351586b4e56323c2670eee68107faace4a0598c885baa0d140614cf6593aac1211d100759d4ba30d2c37bb011d97e02cf00000000", "vin": [{"sequence": 4294967295, "scriptSig": {"hex": "473044022063bd08868eba0a596caeefd1dcaaf08e387a7e319405d2455fbb0141270d5e8602201cbccbbb5e4f1820ee61fee0756c4161ec2f0cdca3724fc83d728fbc42c999fd0121026ce60f83278a6d8908f01f0f33c60e7056f5271c54fbc365008b8a88088a2754", "asm": "3044022063bd08868eba0a596caeefd1dcaaf08e387a7e319405d2455fbb0141270d5e8602201cbccbbb5e4f1820ee61fee0756c4161ec2f0cdca3724fc83d728fbc42c999fd[ALL] 026ce60f83278a6d8908f01f0f33c60e7056f5271c54fbc365008b8a88088a2754"}, "vout": 1, "txid": "0ba8d9590c63a1c3faa20f2658d6b35bd73c6ad01462afbad9493112c988502c"}], "txid": "a8f09ba92b79fd83b9ae57788e7e15cf1f2a0792eb936829062a04edc8b6aedd", "blocktime": 1537871767, "version": 1, "confirmations": 11495, "time": 1537871767, "locktime": 0, "vsize": 283, "size": 283}