{"hash": "a8f490d8fcf6b400ea405c593fcfe7b951238ce8a5c97ae381404a9fbe08560e", "blockhash": "00000000000000000004ffacab907a6b429b9a5745fa0b75af4234bf69dd7176", "vout": [{"scriptPubKey": {"reqSigs": 1, "hex": "76a914cef57666b848021ca5b58766f09ad0d92db5671d88ac", "addresses": ["1KsJFYxEGqTLPxbc4FeF9xde6WPZS862bN"], "asm": "OP_DUP OP_HASH160 cef57666b848021ca5b58766f09ad0d92db5671d OP_EQUALVERIFY OP_CHECKSIG", "type": "pubkeyhash"}, "value": 0.01563744, "n": 0}, {"scriptPubKey": {"reqSigs": 1, "hex": "76a914c195bc9cbf8d2a696788a2ede1222e78241869e988ac", "addresses": ["1Jeanv9AWMs6yiTdsAEZ2Qmp22WA4x2Bt3"], "asm": "OP_DUP OP_HASH160 c195bc9cbf8d2a696788a2ede1222e78241869e9 OP_EQUALVERIFY OP_CHECKSIG", "type": "pubkeyhash"}, "value": 0.12129252, "n": 1}], "hex": "010000000163a499ff326015e17e2da58a7bdd243ce202dedaf1d980616ab3b6b59d583202010000006a473044022017dbedeaa160ee941e15c65957607024aa8b434d1a5796631e6752db0b7efae1022079c6886b62f4d3864458090d06a25f048a7ae14beddcba280c9bf990c917086f012102c3e11568cc029e1f2f7c0f3a53b70352d05c5983c5ee4833fe0ad69ca40f1a8bffffffff0260dc1700000000001976a914cef57666b848021ca5b58766f09ad0d92db5671d88ace413b900000000001976a914c195bc9cbf8d2a696788a2ede1222e78241869e988ac00000000", "vin": [{"sequence": 4294967295, "scriptSig": {"hex": "473044022017dbedeaa160ee941e15c65957607024aa8b434d1a5796631e6752db0b7efae1022079c6886b62f4d3864458090d06a25f048a7ae14beddcba280c9bf990c917086f012102c3e11568cc029e1f2f7c0f3a53b70352d05c5983c5ee4833fe0ad69ca40f1a8b", "asm": "3044022017dbedeaa160ee941e15c65957607024aa8b434d1a5796631e6752db0b7efae1022079c6886b62f4d3864458090d06a25f048a7ae14beddcba280c9bf990c917086f[ALL] 02c3e11568cc029e1f2f7c0f3a53b70352d05c5983c5ee4833fe0ad69ca40f1a8b"}, "vout": 1, "txid": "0232589db5b6b36a6180d9f1dade02e23c24dd7b8aa52d7ee1156032ff99a463"}], "txid": "a8f490d8fcf6b400ea405c593fcfe7b951238ce8a5c97ae381404a9fbe08560e", "blocktime": 1537875543, "version": 1, "confirmations": 11464, "time": 1537875543, "locktime": 0, "vsize": 225, "size": 225}