{"hash": "a8fc9bff8a5ff33bcb085c838758cd2a061ad5c158e1e976e263a0d3bd486c77", "blockhash": "000000000000000000022b45ed06c6f4ccd3cf7fb5ba4856ebd2e58215665228", "vout": [{"scriptPubKey": {"type": "nulldata", "hex": "6a4c5000007768000194c239d3a5f2a0c06b3229de86aeaeacb577c031fc3a016b46dc7dc7d0962a9932beb338e338719ea3d50aae3e445baa0825061322343b0066701d100759d4ba30d2c37bb011d97e02cf", "asm": "OP_RETURN 00007768000194c239d3a5f2a0c06b3229de86aeaeacb577c031fc3a016b46dc7dc7d0962a9932beb338e338719ea3d50aae3e445baa0825061322343b0066701d100759d4ba30d2c37bb011d97e02cf"}, "value": 0.0, "n": 0}, {"scriptPubKey": {"reqSigs": 1, "hex": "76a9140fa266d3888e635521160fdd430c3e194af8101588ac", "addresses": ["12Rfgk6Ni1AiZK4t2k7d5xUynn8Ek3ipko"], "asm": "OP_DUP OP_HASH160 0fa266d3888e635521160fdd430c3e194af81015 OP_EQUALVERIFY OP_CHECKSIG", "type": "pubkeyhash"}, "value": 0.006073, "n": 1}], "hex": "0100000001b6bc27378730e5204748e0d854b124c58c78116d55f3da383b461aab615fa58e010000006a4730440220795f71c11d4c15da408e2eef8581e2bc1ccdca1602ff821bb2924079787ee1f902204a0fd46de7de71ec2cbf0b15146212cba89552467d977192c2066a031fdb721d0121020295f93670ce1ea30d6ceba23717e1af67634178efd07b49721ac0995615dc18ffffffff020000000000000000536a4c5000007768000194c239d3a5f2a0c06b3229de86aeaeacb577c031fc3a016b46dc7dc7d0962a9932beb338e338719ea3d50aae3e445baa0825061322343b0066701d100759d4ba30d2c37bb011d97e02cf44440900000000001976a9140fa266d3888e635521160fdd430c3e194af8101588ac00000000", "vin": [{"sequence": 4294967295, "scriptSig": {"hex": "4730440220795f71c11d4c15da408e2eef8581e2bc1ccdca1602ff821bb2924079787ee1f902204a0fd46de7de71ec2cbf0b15146212cba89552467d977192c2066a031fdb721d0121020295f93670ce1ea30d6ceba23717e1af67634178efd07b49721ac0995615dc18", "asm": "30440220795f71c11d4c15da408e2eef8581e2bc1ccdca1602ff821bb2924079787ee1f902204a0fd46de7de71ec2cbf0b15146212cba89552467d977192c2066a031fdb721d[ALL] 020295f93670ce1ea30d6ceba23717e1af67634178efd07b49721ac0995615dc18"}, "vout": 1, "txid": "8ea55f61ab1a463b38daf3556d11788cc524b154d8e0484720e530873727bcb6"}], "txid": "a8fc9bff8a5ff33bcb085c838758cd2a061ad5c158e1e976e263a0d3bd486c77", "blocktime": 1537869901, "version": 1, "confirmations": 11522, "time": 1537869901, "locktime": 0, "vsize": 283, "size": 283}