{"hash": "a8fe1ebd8368bf40738665e917cf1d3494e8f3a8716e52d86a80352a95ad6039", "blockhash": "00000000000000000017f5eb5941039fbcee6240d03bc1f2f8e35350df66a1d8", "vout": [{"scriptPubKey": {"reqSigs": 1, "hex": "76a914146a876f0f7ead82f104a2c5c577f78c31d7db4d88ac", "addresses": ["12rx8c2iU1pqy4mfZV4C6tkX6vBf1kc9tr"], "asm": "OP_DUP OP_HASH160 146a876f0f7ead82f104a2c5c577f78c31d7db4d OP_EQUALVERIFY OP_CHECKSIG", "type": "pubkeyhash"}, "value": 0.2, "n": 0}, {"scriptPubKey": {"reqSigs": 1, "hex": "76a914580167791f21e7363c05e0b835b1691dac4f975288ac", "addresses": ["192L9SsV8LjUyf67Rnf6emgeRorsSmgSWu"], "asm": "OP_DUP OP_HASH160 580167791f21e7363c05e0b835b1691dac4f9752 OP_EQUALVERIFY OP_CHECKSIG", "type": "pubkeyhash"}, "value": 4.607425, "n": 1}], "hex": "0100000001ba09ef948a42ee66bac864841051ae2ed334289193e9e47f05c2f1a872ce8896010000006b483045022100ae505d716df49209e87d23662815308b585000bdb97aec60a07adf72757400e302201e332b1bbdaa2651545a604c1f99274510907dd761bd77997022036c872684160121021c32c9586c761a459b603a884a9e7f864b165b9d5e3a87b0fc1c13851851dcd4feffffff02002d3101000000001976a914146a876f0f7ead82f104a2c5c577f78c31d7db4d88ac645f761b000000001976a914580167791f21e7363c05e0b835b1691dac4f975288ac15490800", "vin": [{"sequence": 4294967294, "scriptSig": {"hex": "483045022100ae505d716df49209e87d23662815308b585000bdb97aec60a07adf72757400e302201e332b1bbdaa2651545a604c1f99274510907dd761bd77997022036c872684160121021c32c9586c761a459b603a884a9e7f864b165b9d5e3a87b0fc1c13851851dcd4", "asm": "3045022100ae505d716df49209e87d23662815308b585000bdb97aec60a07adf72757400e302201e332b1bbdaa2651545a604c1f99274510907dd761bd77997022036c87268416[ALL] 021c32c9586c761a459b603a884a9e7f864b165b9d5e3a87b0fc1c13851851dcd4"}, "vout": 1, "txid": "9688ce72a8f1c2057fe4e993912834d32eae51108464c8ba66ee428a94ef09ba"}], "txid": "a8fe1ebd8368bf40738665e917cf1d3494e8f3a8716e52d86a80352a95ad6039", "blocktime": 1537874412, "version": 1, "confirmations": 11467, "time": 1537874412, "locktime": 542997, "vsize": 226, "size": 226}