{"hash": "a90612c34a21d7138d36e79a10e5499497054572a2fef420825df6c46e67d037", "blockhash": "00000000000000000017f5eb5941039fbcee6240d03bc1f2f8e35350df66a1d8", "vout": [{"scriptPubKey": {"reqSigs": 1, "hex": "76a914a70d857c5e98cf576c4f7e6361fc4d360b6ea8ae88ac", "addresses": ["1GEJ3XDmLFA74UDMXmAhsrWv7Q48xqPZMs"], "asm": "OP_DUP OP_HASH160 a70d857c5e98cf576c4f7e6361fc4d360b6ea8ae OP_EQUALVERIFY OP_CHECKSIG", "type": "pubkeyhash"}, "value": 0.0082, "n": 0}, {"scriptPubKey": {"reqSigs": 1, "hex": "76a914e349bc52d6b8100b58d3fce45135a91c5c128a1d88ac", "addresses": ["1MiningDkXkhKaXBTMKXfLemnk1YY5rbkT"], "asm": "OP_DUP OP_HASH160 e349bc52d6b8100b58d3fce45135a91c5c128a1d OP_EQUALVERIFY OP_CHECKSIG", "type": "pubkeyhash"}, "value": 0.01451603, "n": 1}], "hex": "0200000001a635a4aafd7c7c40807a512cc386187b7724aa6a8a05de5878eaca6f7ed7a489010000008b48304502210091bb065ce249dbed92a86403b74663f1be45b59d14a98c42365d5e3329da714f0220588173b7662447eb2f700662075e86f457143c367586e9b0e9e3997b850b6be2014104ae414abde7876c34e01694b38b2341d10b9b4c8db18a66262bd8df26bcb57893885c9fe8b79aa25330d5f05bb5aa9ab636a908a72e27956572b44190b22809beffffffff0220830c00000000001976a914a70d857c5e98cf576c4f7e6361fc4d360b6ea8ae88ac53261600000000001976a914e349bc52d6b8100b58d3fce45135a91c5c128a1d88ac00000000", "vin": [{"sequence": 4294967295, "scriptSig": {"hex": "48304502210091bb065ce249dbed92a86403b74663f1be45b59d14a98c42365d5e3329da714f0220588173b7662447eb2f700662075e86f457143c367586e9b0e9e3997b850b6be2014104ae414abde7876c34e01694b38b2341d10b9b4c8db18a66262bd8df26bcb57893885c9fe8b79aa25330d5f05bb5aa9ab636a908a72e27956572b44190b22809be", "asm": "304502210091bb065ce249dbed92a86403b74663f1be45b59d14a98c42365d5e3329da714f0220588173b7662447eb2f700662075e86f457143c367586e9b0e9e3997b850b6be2[ALL] 04ae414abde7876c34e01694b38b2341d10b9b4c8db18a66262bd8df26bcb57893885c9fe8b79aa25330d5f05bb5aa9ab636a908a72e27956572b44190b22809be"}, "vout": 1, "txid": "89a4d77e6fcaea7858de058a6aaa24777b1886c32c517a80407c7cfdaaa435a6"}], "txid": "a90612c34a21d7138d36e79a10e5499497054572a2fef420825df6c46e67d037", "blocktime": 1537874412, "version": 2, "confirmations": 11467, "time": 1537874412, "locktime": 0, "vsize": 258, "size": 258}