{"hash": "a907e253297bffc355826009f1adc829ca1ee6459f6e1cdcaa01f730100e2d70", "blockhash": "0000000000000000001f76057863aec43deb6fa401d9628bb513d65a8098bfab", "vout": [{"scriptPubKey": {"reqSigs": 1, "hex": "76a914a5b4b4826c69de6454ea1075b29f383297b40a4488ac", "addresses": ["1G7AyGHX8ZdPJfStGFqrNZVm57M5ruPLK9"], "asm": "OP_DUP OP_HASH160 a5b4b4826c69de6454ea1075b29f383297b40a44 OP_EQUALVERIFY OP_CHECKSIG", "type": "pubkeyhash"}, "value": 0.0115, "n": 0}, {"scriptPubKey": {"reqSigs": 1, "hex": "76a91412132adce17cd685c16bc46e2ba96969f1f978e988ac", "addresses": ["12ea8EK9JFVPRYV91XNgz9HoarRtXzCE6p"], "asm": "OP_DUP OP_HASH160 12132adce17cd685c16bc46e2ba96969f1f978e9 OP_EQUALVERIFY OP_CHECKSIG", "type": "pubkeyhash"}, "value": 0.01233263, "n": 1}, {"scriptPubKey": {"reqSigs": 1, "hex": "76a914d42fdecf4ae1c1e4ea3d820076ab3f25eb22aff188ac", "addresses": ["1LLwbkyyDBJv2subMjfYBicYpCMw1x6tDv"], "asm": "OP_DUP OP_HASH160 d42fdecf4ae1c1e4ea3d820076ab3f25eb22aff1 OP_EQUALVERIFY OP_CHECKSIG", "type": "pubkeyhash"}, "value": 0.006404, "n": 2}], "hex": "0200000003421b91484a00fe198ca722d2fa68b2a9a0410e6c9101a888a614396812a9808d010000006b483045022100b8aa7e49043b4d2e47cf90e2d9fd81b60855a935eaa77c21a904a67e1fb5a1ef022018466a65d043fa2b72004de33db7197c6feab1b2a5ce29693ac1f9a2d7df659f01210299597226b5fb8f3eaf03c8b718073a93d7e3ffbe09d3de233eb96e5aaf7eb16cfdffffffb6dc177922f350ba3c93d3912c7afc2bfa25ea1ef47e270ee496789d35395f03420000006b483045022100b5d8379b7ef26bf66de7fd39a73a2bee97aba526ffcd7cdd5fe4212c812bdf6702203f98cf0440d29ad0579aa0330432716555c9d3e4c71595b06826c4a4e7865da2012103d213ebaf3eb21490934d014ed275942e792a01ad6d8c1cfb87e9174f100e94e3fdffffffd1f30293d7da67c0d4ce0da5b14cb353ac8986856508289f793e5abfbac37ecf010000006b483045022100ee611d4fe39656a464a1a94f0974697f96caa65bf21a12ee214f53014ab13662022071665e7f77197bcb79c8a581551356f295541fc2c07ab2cbace3baee3c0cf40f012103978c8589b3986781e8a67001c41319c1dd15fa6e011078415dbbf247563839e0fdffffff03308c1100000000001976a914a5b4b4826c69de6454ea1075b29f383297b40a4488ac6fd11200000000001976a91412132adce17cd685c16bc46e2ba96969f1f978e988ac90c50900000000001976a914d42fdecf4ae1c1e4ea3d820076ab3f25eb22aff188acbd480800", "vin": [{"sequence": 4294967293, "scriptSig": {"hex": "483045022100b8aa7e49043b4d2e47cf90e2d9fd81b60855a935eaa77c21a904a67e1fb5a1ef022018466a65d043fa2b72004de33db7197c6feab1b2a5ce29693ac1f9a2d7df659f01210299597226b5fb8f3eaf03c8b718073a93d7e3ffbe09d3de233eb96e5aaf7eb16c", "asm": "3045022100b8aa7e49043b4d2e47cf90e2d9fd81b60855a935eaa77c21a904a67e1fb5a1ef022018466a65d043fa2b72004de33db7197c6feab1b2a5ce29693ac1f9a2d7df659f[ALL] 0299597226b5fb8f3eaf03c8b718073a93d7e3ffbe09d3de233eb96e5aaf7eb16c"}, "vout": 1, "txid": "8d80a912683914a688a801916c0e41a0a9b268fad222a78c19fe004a48911b42"}, {"sequence": 4294967293, "scriptSig": {"hex": "483045022100b5d8379b7ef26bf66de7fd39a73a2bee97aba526ffcd7cdd5fe4212c812bdf6702203f98cf0440d29ad0579aa0330432716555c9d3e4c71595b06826c4a4e7865da2012103d213ebaf3eb21490934d014ed275942e792a01ad6d8c1cfb87e9174f100e94e3", "asm": "3045022100b5d8379b7ef26bf66de7fd39a73a2bee97aba526ffcd7cdd5fe4212c812bdf6702203f98cf0440d29ad0579aa0330432716555c9d3e4c71595b06826c4a4e7865da2[ALL] 03d213ebaf3eb21490934d014ed275942e792a01ad6d8c1cfb87e9174f100e94e3"}, "vout": 66, "txid": "035f39359d7896e40e277ef41eea25fa2bfc7a2c91d3933cba50f3227917dcb6"}, {"sequence": 4294967293, "scriptSig": {"hex": "483045022100ee611d4fe39656a464a1a94f0974697f96caa65bf21a12ee214f53014ab13662022071665e7f77197bcb79c8a581551356f295541fc2c07ab2cbace3baee3c0cf40f012103978c8589b3986781e8a67001c41319c1dd15fa6e011078415dbbf247563839e0", "asm": "3045022100ee611d4fe39656a464a1a94f0974697f96caa65bf21a12ee214f53014ab13662022071665e7f77197bcb79c8a581551356f295541fc2c07ab2cbace3baee3c0cf40f[ALL] 03978c8589b3986781e8a67001c41319c1dd15fa6e011078415dbbf247563839e0"}, "vout": 1, "txid": "cf7ec3babf5a3e799f280865858689ac53b34cb1a50dced4c067dad79302f3d1"}], "txid": "a907e253297bffc355826009f1adc829ca1ee6459f6e1cdcaa01f730100e2d70", "blocktime": 1537873891, "version": 2, "confirmations": 11474, "time": 1537873891, "locktime": 542909, "vsize": 556, "size": 556}