{"hash": "a908f2ee6ad73a9ef94d06fbb11f459a30412585f6e415fe477ec51be4f3d531", "blockhash": "0000000000000000000e13cef7c366c0283d82e591d1acd082e914b08063cdf1", "vout": [{"scriptPubKey": {"reqSigs": 1, "hex": "76a914c22993ab54dedfaa7a3b72ed8dc2b510b2fb676088ac", "addresses": ["1Jhdu2Q6Wz6yEbFYHCsSdP1X5jHwVsCmLb"], "asm": "OP_DUP OP_HASH160 c22993ab54dedfaa7a3b72ed8dc2b510b2fb6760 OP_EQUALVERIFY OP_CHECKSIG", "type": "pubkeyhash"}, "value": 0.019, "n": 0}, {"scriptPubKey": {"reqSigs": 1, "hex": "76a91431ab08d2c695d2f6f0758fb4ed0b6df7af9aba9588ac", "addresses": ["15Xd15oKm7RXZYk1a8NU9rDeScLpfqpHmW"], "asm": "OP_DUP OP_HASH160 31ab08d2c695d2f6f0758fb4ed0b6df7af9aba95 OP_EQUALVERIFY OP_CHECKSIG", "type": "pubkeyhash"}, "value": 0.38631788, "n": 1}], "hex": "01000000019c0c1907771bd906490aa8962488723182f70ccebcfc2df72ea7bf4235fd195d010000006b483045022100a594a35ba26935ec31e6af0a226283805074393bd2454952e1f542241a74f226022015a2762401c6c7479a5fc2e39fefd913032702e3b549c07f3c673045476176c7012102f839736a7365dcbbf41a6988e67f88627876d06fe332827449f0783b2aef166affffffff02e0fd1c00000000001976a914c22993ab54dedfaa7a3b72ed8dc2b510b2fb676088ac6c794d02000000001976a91431ab08d2c695d2f6f0758fb4ed0b6df7af9aba9588ac00000000", "vin": [{"sequence": 4294967295, "scriptSig": {"hex": "483045022100a594a35ba26935ec31e6af0a226283805074393bd2454952e1f542241a74f226022015a2762401c6c7479a5fc2e39fefd913032702e3b549c07f3c673045476176c7012102f839736a7365dcbbf41a6988e67f88627876d06fe332827449f0783b2aef166a", "asm": "3045022100a594a35ba26935ec31e6af0a226283805074393bd2454952e1f542241a74f226022015a2762401c6c7479a5fc2e39fefd913032702e3b549c07f3c673045476176c7[ALL] 02f839736a7365dcbbf41a6988e67f88627876d06fe332827449f0783b2aef166a"}, "vout": 1, "txid": "5d19fd3542bfa72ef72dfcbcce0cf7823172882496a80a4906d91b7707190c9c"}], "txid": "a908f2ee6ad73a9ef94d06fbb11f459a30412585f6e415fe477ec51be4f3d531", "blocktime": 1537871767, "version": 1, "confirmations": 11495, "time": 1537871767, "locktime": 0, "vsize": 226, "size": 226}