{"hash": "f55b6c9ae8b047abc795761bd47477a21c2654eccf68ee0e97205d42beff696f", "blockhash": "0000000000000000001e0dab787dd257d1dbfcb92a98c2207d5e1078be1f4165", "vout": [{"scriptPubKey": {"reqSigs": 1, "hex": "0014edcbb9adc809606e17a4144be28e74a997dd72bc", "addresses": ["bc1qah9mntwgp9sxu9ayz3979rn54xta6u4u7twjzu"], "asm": "0 edcbb9adc809606e17a4144be28e74a997dd72bc", "type": "witness_v0_keyhash"}, "value": 0.02264359, "n": 0}, {"scriptPubKey": {"reqSigs": 1, "hex": "76a914252f53392d734eefcc4baf1fe44ecaa698dca4b588ac", "addresses": ["14PchJZK97iJBbLhyMChA3Q7mP2qbg68XG"], "asm": "OP_DUP OP_HASH160 252f53392d734eefcc4baf1fe44ecaa698dca4b5 OP_EQUALVERIFY OP_CHECKSIG", "type": "pubkeyhash"}, "value": 0.035, "n": 1}], "hex": "0100000000010197a191367e204e7ae1add2eaaa56091c4f703682b553eaa0512ee0fbf510d6b4520000001716001438930464180c81967bc8bb2add6acdb90e14b488ffffffff02278d220000000000160014edcbb9adc809606e17a4144be28e74a997dd72bce0673500000000001976a914252f53392d734eefcc4baf1fe44ecaa698dca4b588ac02483045022100e4a85f0f29124779718f8ae2d8855213fe4a82a6a33473f2603effe3c56ef6e102202585589428966b9f4c554b6dfec1b9d44ef68f3aedba892530ba732f69c5f53b012103b85bb72ff5a4595998353ea83864e5342ecae6175d52f2d7e78843de91629f5e00000000", "vin": [{"txinwitness": ["3045022100e4a85f0f29124779718f8ae2d8855213fe4a82a6a33473f2603effe3c56ef6e102202585589428966b9f4c554b6dfec1b9d44ef68f3aedba892530ba732f69c5f53b01", "03b85bb72ff5a4595998353ea83864e5342ecae6175d52f2d7e78843de91629f5e"], "sequence": 4294967295, "scriptSig": {"hex": "16001438930464180c81967bc8bb2add6acdb90e14b488", "asm": "001438930464180c81967bc8bb2add6acdb90e14b488"}, "vout": 82, "txid": "b4d610f5fbe02e51a0ea53b58236704f1c0956aaead2ade17a4e207e3691a197"}], "txid": "a90a0702de3ba60b273021ba1e9947e09663280b128c3dc95228c510a44d4454", "blocktime": 1537872475, "version": 1, "confirmations": 11487, "time": 1537872475, "locktime": 0, "vsize": 167, "size": 249}