{"hash": "a90c4ab315818d28247ffde2476763ace7eddb1308271fb93181ab081e2bc061", "blockhash": "0000000000000000001f76057863aec43deb6fa401d9628bb513d65a8098bfab", "vout": [{"scriptPubKey": {"reqSigs": 1, "hex": "a9148e2f3bb3f1012c8d5d3e6cc5dc01f87565e4599d87", "addresses": ["3EepTc3J2fFbT1P1psFZLbR579qBT3QwWr"], "asm": "OP_HASH160 8e2f3bb3f1012c8d5d3e6cc5dc01f87565e4599d OP_EQUAL", "type": "scripthash"}, "value": 0.0036714, "n": 0}, {"scriptPubKey": {"reqSigs": 1, "hex": "a914062b5509e2eca513bf4761665571b9bc56aa676187", "addresses": ["32FdtU52duxkwGGSRJ5NuLqYUi2qJfqot1"], "asm": "OP_HASH160 062b5509e2eca513bf4761665571b9bc56aa6761 OP_EQUAL", "type": "scripthash"}, "value": 0.11547536, "n": 1}], "hex": "01000000013550dd251c61ba01ad54150714e2e02223f65443426012ae2e8c65ec1aec4f4b01000000da00473044022070b2e89a0552bc7dc714b006ec3eaa958fc3ece4ac9991ad5c1c62858731c6ff02201c90b34d12059675d921a9d3eff35ebd0c6e9dfdf3cd6f2ec8d08b329a171ed601483045022100e2c8140e05a76116cb9ecf6e45a95e632ed3ba2289c9df7a2f437d765e4d778402206659f05ac81f436e37d4e3140f64a0e98b8fab972482fc9615d03e2a560916e20147522103abc8a801f5fbb4fd5f6510ba530d534b0efb584b4298cea1e6e2d45cd1000aef2102a29577404fa42d6d12e0d867249d4ee805afecc9e10879ed668da9958dc7b65052aeffffffff02249a05000000000017a9148e2f3bb3f1012c8d5d3e6cc5dc01f87565e4599d879033b0000000000017a914062b5509e2eca513bf4761665571b9bc56aa67618700000000", "vin": [{"sequence": 4294967295, "scriptSig": {"hex": "00473044022070b2e89a0552bc7dc714b006ec3eaa958fc3ece4ac9991ad5c1c62858731c6ff02201c90b34d12059675d921a9d3eff35ebd0c6e9dfdf3cd6f2ec8d08b329a171ed601483045022100e2c8140e05a76116cb9ecf6e45a95e632ed3ba2289c9df7a2f437d765e4d778402206659f05ac81f436e37d4e3140f64a0e98b8fab972482fc9615d03e2a560916e20147522103abc8a801f5fbb4fd5f6510ba530d534b0efb584b4298cea1e6e2d45cd1000aef2102a29577404fa42d6d12e0d867249d4ee805afecc9e10879ed668da9958dc7b65052ae", "asm": "0 3044022070b2e89a0552bc7dc714b006ec3eaa958fc3ece4ac9991ad5c1c62858731c6ff02201c90b34d12059675d921a9d3eff35ebd0c6e9dfdf3cd6f2ec8d08b329a171ed6[ALL] 3045022100e2c8140e05a76116cb9ecf6e45a95e632ed3ba2289c9df7a2f437d765e4d778402206659f05ac81f436e37d4e3140f64a0e98b8fab972482fc9615d03e2a560916e2[ALL] 522103abc8a801f5fbb4fd5f6510ba530d534b0efb584b4298cea1e6e2d45cd1000aef2102a29577404fa42d6d12e0d867249d4ee805afecc9e10879ed668da9958dc7b65052ae"}, "vout": 1, "txid": "4b4fec1aec658c2eae1260424354f62322e0e214071554ad01ba611c25dd5035"}], "txid": "a90c4ab315818d28247ffde2476763ace7eddb1308271fb93181ab081e2bc061", "blocktime": 1537873891, "version": 1, "confirmations": 11478, "time": 1537873891, "locktime": 0, "vsize": 333, "size": 333}