{"hash": "b93ee6bb9f1c8b0cf27838e233722d0011df177b2f0b0e13b4ed701ff079ca5f", "blockhash": "0000000000000000000dcc0f55137456b1a82d3642486a52398922ac4d620174", "vout": [{"scriptPubKey": {"reqSigs": 1, "hex": "76a914b8bf2cb7649a10f095d47a18f9e0a7478abc35ed88ac", "addresses": ["1HqrMM4qnGbtsTqmjKZoWwzBCQbEyseVbo"], "asm": "OP_DUP OP_HASH160 b8bf2cb7649a10f095d47a18f9e0a7478abc35ed OP_EQUALVERIFY OP_CHECKSIG", "type": "pubkeyhash"}, "value": 3.1, "n": 0}, {"scriptPubKey": {"reqSigs": 1, "hex": "a91478de10ba106475b539e3f69b02feb638b8e3590987", "addresses": ["3Ci72w764WwixxCJDAzKuoxxYVT4Lnwe99"], "asm": "OP_HASH160 78de10ba106475b539e3f69b02feb638b8e35909 OP_EQUAL", "type": "scripthash"}, "value": 0.09116197, "n": 1}], "hex": "01000000000102f693433b17eb6b5a24571bc94bd58f149e0dc0e66263872057dd2113894ba1a401000000171600147e6c2101579cc785767a00b9fc481cb7da2d82a6ffffffff7dafc53ce75ad704d37195586aa83a38b18ba12041b3fcf2334b44b29084f5fe0100000017160014a5aae3056b3155e2fc8e65659972d1a398699e36ffffffff0280397a12000000001976a914b8bf2cb7649a10f095d47a18f9e0a7478abc35ed88ac251a8b000000000017a91478de10ba106475b539e3f69b02feb638b8e359098702483045022100ec5c7720c662e8476d44486bcaa6909ce8afb5efc4b13dc9009e664ac642a85f0220790a61df4a93f7cf529ead83cc17cc7a06464b37c761930a6160174d0a44dc130121026d7035c2b5e90c9aa9c7f1d05b44f873ab71cd4ea187dee12cf1477d4e5b02d702473044022008114ca71942b3151d1d0ac5dacf1d4fa7e2bf34159f101efdfabe9bbaf3a1e10220480ef9c8163fae3ace4390b50a32c5f2264428cab0e55426e73c2d2e52343e15012102d46e1e588bb39385304b796f890946679bb8c414e0f1b31dc776b67c354ca04600000000", "vin": [{"txinwitness": ["3045022100ec5c7720c662e8476d44486bcaa6909ce8afb5efc4b13dc9009e664ac642a85f0220790a61df4a93f7cf529ead83cc17cc7a06464b37c761930a6160174d0a44dc1301", "026d7035c2b5e90c9aa9c7f1d05b44f873ab71cd4ea187dee12cf1477d4e5b02d7"], "sequence": 4294967295, "scriptSig": {"hex": "1600147e6c2101579cc785767a00b9fc481cb7da2d82a6", "asm": "00147e6c2101579cc785767a00b9fc481cb7da2d82a6"}, "vout": 1, "txid": "a4a14b891321dd5720876362e6c00d9e148fd54bc91b57245a6beb173b4393f6"}, {"txinwitness": ["3044022008114ca71942b3151d1d0ac5dacf1d4fa7e2bf34159f101efdfabe9bbaf3a1e10220480ef9c8163fae3ace4390b50a32c5f2264428cab0e55426e73c2d2e52343e1501", "02d46e1e588bb39385304b796f890946679bb8c414e0f1b31dc776b67c354ca046"], "sequence": 4294967295, "scriptSig": {"hex": "160014a5aae3056b3155e2fc8e65659972d1a398699e36", "asm": "0014a5aae3056b3155e2fc8e65659972d1a398699e36"}, "vout": 1, "txid": "fef58490b2444b33f2fcb34120a18bb1383aa86a589571d304d75ae73cc5af7d"}], "txid": "a918ceb8c21dd0b249625d0664a8866911a35976aaa26ddbd79e8722e0fffbcc", "blocktime": 1537870268, "version": 1, "confirmations": 11516, "time": 1537870268, "locktime": 0, "vsize": 259, "size": 421}