{"hash": "a9258a55fae60d1108565b2217a3002271c9178f0088e235b99e87fbf0de33aa", "blockhash": "000000000000000000022b45ed06c6f4ccd3cf7fb5ba4856ebd2e58215665228", "vout": [{"scriptPubKey": {"reqSigs": 1, "hex": "a914a709ca5314135cf5bad966329f98b5e768607e4a87", "addresses": ["3GvEVpiWPasWEjbUz4gC5huu1rTpKJpcx3"], "asm": "OP_HASH160 a709ca5314135cf5bad966329f98b5e768607e4a OP_EQUAL", "type": "scripthash"}, "value": 0.00173, "n": 0}, {"scriptPubKey": {"reqSigs": 1, "hex": "76a914d689b22568d47fab4d23b1f9f46479217618e44188ac", "addresses": ["1LZNZL78bzxaCcE2A8WHfwCgJXnSfat3vC"], "asm": "OP_DUP OP_HASH160 d689b22568d47fab4d23b1f9f46479217618e441 OP_EQUALVERIFY OP_CHECKSIG", "type": "pubkeyhash"}, "value": 0.00504438, "n": 1}], "hex": "010000000137fa1f5dd13931084f70365f3c89c6996bfce99b27d5120c2de0270683dd882d010000006b483045022100dcec3e25bf861af045140cea65f8a816500db7d73f428d8c415d7df9bd7a94aa02207f37eccefeb7eede35ca8e7d757ff26407841e6c6b3e6bea90438c920e7a626b012102d6d4f271e6e909d6edf23d460c9c4e58c880d7bdce01ad8f7927b345b872d23dffffffff02c8a302000000000017a914a709ca5314135cf5bad966329f98b5e768607e4a8776b20700000000001976a914d689b22568d47fab4d23b1f9f46479217618e44188ac00000000", "vin": [{"sequence": 4294967295, "scriptSig": {"hex": "483045022100dcec3e25bf861af045140cea65f8a816500db7d73f428d8c415d7df9bd7a94aa02207f37eccefeb7eede35ca8e7d757ff26407841e6c6b3e6bea90438c920e7a626b012102d6d4f271e6e909d6edf23d460c9c4e58c880d7bdce01ad8f7927b345b872d23d", "asm": "3045022100dcec3e25bf861af045140cea65f8a816500db7d73f428d8c415d7df9bd7a94aa02207f37eccefeb7eede35ca8e7d757ff26407841e6c6b3e6bea90438c920e7a626b[ALL] 02d6d4f271e6e909d6edf23d460c9c4e58c880d7bdce01ad8f7927b345b872d23d"}, "vout": 1, "txid": "2d88dd830627e02d0c12d5279be9fc6b99c6893c5f36704f083139d15d1ffa37"}], "txid": "a9258a55fae60d1108565b2217a3002271c9178f0088e235b99e87fbf0de33aa", "blocktime": 1537869901, "version": 1, "confirmations": 11524, "time": 1537869901, "locktime": 0, "vsize": 224, "size": 224}