{"hash": "a926fa07fe8e7c14e2d427a0aa870b9fc3ebc339f6502438afb9908bd12d8732", "blockhash": "0000000000000000000e13cef7c366c0283d82e591d1acd082e914b08063cdf1", "vout": [{"scriptPubKey": {"reqSigs": 1, "hex": "a914086abc167910e158a4b18d3df8c74a262198f44287", "addresses": ["32TXC8sormmhbbo9sEB5xPDMxwf94Yvt8h"], "asm": "OP_HASH160 086abc167910e158a4b18d3df8c74a262198f442 OP_EQUAL", "type": "scripthash"}, "value": 0.17356913, "n": 0}, {"scriptPubKey": {"reqSigs": 1, "hex": "76a914bb440fe86f5893cee12d37bb0a9fd114c716348888ac", "addresses": ["1J5AtuwMrJFFeX3rawVxh5K3w6qsG8hPjR"], "asm": "OP_DUP OP_HASH160 bb440fe86f5893cee12d37bb0a9fd114c7163488 OP_EQUALVERIFY OP_CHECKSIG", "type": "pubkeyhash"}, "value": 1.11006428, "n": 1}], "hex": "010000000114980d64b057fe96321f3578e44358e872ad9e8e7238ba694419ae65eb8b06bc000000006b483045022100d0f16a50bda52c2e0f58a6bc5fa56d3eb9d909d5d1b4d792eaac54b384788af902201d60e2fb84d5de0c45e2609d25b4fa8bb68d0a13873a8aaa120886ceabfa62050121031222b2b70a19521fd9bf2adaa797ca2006bd970157f61bd1d763af55142a8105ffffff000271d808010000000017a914086abc167910e158a4b18d3df8c74a262198f44287dcd29d06000000001976a914bb440fe86f5893cee12d37bb0a9fd114c716348888ac00000000", "vin": [{"sequence": 16777215, "scriptSig": {"hex": "483045022100d0f16a50bda52c2e0f58a6bc5fa56d3eb9d909d5d1b4d792eaac54b384788af902201d60e2fb84d5de0c45e2609d25b4fa8bb68d0a13873a8aaa120886ceabfa62050121031222b2b70a19521fd9bf2adaa797ca2006bd970157f61bd1d763af55142a8105", "asm": "3045022100d0f16a50bda52c2e0f58a6bc5fa56d3eb9d909d5d1b4d792eaac54b384788af902201d60e2fb84d5de0c45e2609d25b4fa8bb68d0a13873a8aaa120886ceabfa6205[ALL] 031222b2b70a19521fd9bf2adaa797ca2006bd970157f61bd1d763af55142a8105"}, "vout": 0, "txid": "bc068beb65ae194469ba38728e9ead72e85843e478351f3296fe57b0640d9814"}], "txid": "a926fa07fe8e7c14e2d427a0aa870b9fc3ebc339f6502438afb9908bd12d8732", "blocktime": 1537871767, "version": 1, "confirmations": 11493, "time": 1537871767, "locktime": 0, "vsize": 224, "size": 224}