{"hash": "a9272f6c1113018c8705aa5513b09761c9a4738228089193072d7c1351f199fb", "blockhash": "0000000000000000000e13cef7c366c0283d82e591d1acd082e914b08063cdf1", "vout": [{"scriptPubKey": {"reqSigs": 1, "hex": "a9146f0b7cc896708f1162422d0c8648f2f0321a938f87", "addresses": ["3BpAgzqP6GKmRU6tPeaSoF1BghTd96ZtSN"], "asm": "OP_HASH160 6f0b7cc896708f1162422d0c8648f2f0321a938f OP_EQUAL", "type": "scripthash"}, "value": 0.00379346, "n": 0}, {"scriptPubKey": {"reqSigs": 1, "hex": "76a9140591f76abef957438307d62112e363298131d64088ac", "addresses": ["1WTEtUSEY7HKFShXqGqjDiRQjQ1kFQvZV"], "asm": "OP_DUP OP_HASH160 0591f76abef957438307d62112e363298131d640 OP_EQUALVERIFY OP_CHECKSIG", "type": "pubkeyhash"}, "value": 0.07190766, "n": 1}], "hex": "010000000181f7375c007bd7a5596a745133c4b1502377e6b1b79e82f40455523d1f35ab7f010000006a47304402203640aca8ebca75fe5a0575b1a7fbaf2caf391da583e11cd7b41cab133f4ac7e4022078a7cf5db5c3e12ae1a806e49de835e275fee7dea725fa9127dd9669e4f3555a012102a8a3b38466a4383666775c001ae702fb93319ec2cd20da575ec833591b725ee6ffffffff02d2c905000000000017a9146f0b7cc896708f1162422d0c8648f2f0321a938f87eeb86d00000000001976a9140591f76abef957438307d62112e363298131d64088ac00000000", "vin": [{"sequence": 4294967295, "scriptSig": {"hex": "47304402203640aca8ebca75fe5a0575b1a7fbaf2caf391da583e11cd7b41cab133f4ac7e4022078a7cf5db5c3e12ae1a806e49de835e275fee7dea725fa9127dd9669e4f3555a012102a8a3b38466a4383666775c001ae702fb93319ec2cd20da575ec833591b725ee6", "asm": "304402203640aca8ebca75fe5a0575b1a7fbaf2caf391da583e11cd7b41cab133f4ac7e4022078a7cf5db5c3e12ae1a806e49de835e275fee7dea725fa9127dd9669e4f3555a[ALL] 02a8a3b38466a4383666775c001ae702fb93319ec2cd20da575ec833591b725ee6"}, "vout": 1, "txid": "7fab351f3d525504f4829eb7b1e6772350b1c43351746a59a5d77b005c37f781"}], "txid": "a9272f6c1113018c8705aa5513b09761c9a4738228089193072d7c1351f199fb", "blocktime": 1537871767, "version": 1, "confirmations": 11493, "time": 1537871767, "locktime": 0, "vsize": 223, "size": 223}