{"hash": "a928614f7b5dfecff9ccb31aae2fb0146ec5b01522a41fb3f5c99b6f5ca87290", "blockhash": "0000000000000000000baef3f32e3676a92c3b2e5da21b426e4f302fc371ce76", "vout": [{"scriptPubKey": {"reqSigs": 1, "hex": "76a914892f327b4591d5df473c6f040522718cc2978c8588ac", "addresses": ["1DWN7bkuwcRfJopUos65Ba7fc3VUrooeLE"], "asm": "OP_DUP OP_HASH160 892f327b4591d5df473c6f040522718cc2978c85 OP_EQUALVERIFY OP_CHECKSIG", "type": "pubkeyhash"}, "value": 0.0025, "n": 0}, {"scriptPubKey": {"reqSigs": 1, "hex": "76a914bd858cccac36ce427c9c9354e0d9ce721934271a88ac", "addresses": ["1JH6hUQTThAwmiQWmgUk48rUgHyG66kVBi"], "asm": "OP_DUP OP_HASH160 bd858cccac36ce427c9c9354e0d9ce721934271a OP_EQUALVERIFY OP_CHECKSIG", "type": "pubkeyhash"}, "value": 0.00298314, "n": 1}], "hex": "0100000001beed12d70a72c7b0f13373d29882663da88b3656efd68a6f33f8f4d57b9d3da6000000006b483045022100d7e04e43bc5cb0f0c95285d0b3e9de1e479c47d69cc16667ca4ee4dbb776ea5902206ea6d355d2b0420d619965e537284ef13a57c478af2bf6fe0305de0212e31516012102290a31cbc4058468ff3593310cd69a5f20d2e0b4e67f74bf3cab95ecb469649cffffffff0290d00300000000001976a914892f327b4591d5df473c6f040522718cc2978c8588ac4a8d0400000000001976a914bd858cccac36ce427c9c9354e0d9ce721934271a88ac00000000", "vin": [{"sequence": 4294967295, "scriptSig": {"hex": "483045022100d7e04e43bc5cb0f0c95285d0b3e9de1e479c47d69cc16667ca4ee4dbb776ea5902206ea6d355d2b0420d619965e537284ef13a57c478af2bf6fe0305de0212e31516012102290a31cbc4058468ff3593310cd69a5f20d2e0b4e67f74bf3cab95ecb469649c", "asm": "3045022100d7e04e43bc5cb0f0c95285d0b3e9de1e479c47d69cc16667ca4ee4dbb776ea5902206ea6d355d2b0420d619965e537284ef13a57c478af2bf6fe0305de0212e31516[ALL] 02290a31cbc4058468ff3593310cd69a5f20d2e0b4e67f74bf3cab95ecb469649c"}, "vout": 0, "txid": "a63d9d7bd5f4f8336f8ad6ef56368ba83d668298d27333f1b0c7720ad712edbe"}], "txid": "a928614f7b5dfecff9ccb31aae2fb0146ec5b01522a41fb3f5c99b6f5ca87290", "blocktime": 1537876114, "version": 1, "confirmations": 11460, "time": 1537876114, "locktime": 0, "vsize": 226, "size": 226}