{"hash": "a92ea51c179fe1d9664cdba85ed152be5794d5870ba1f9e7441714c79b2612ee", "blockhash": "00000000000000000018f53835495a110e01622372bf6ae95dc86f2b0ab887b0", "vout": [{"scriptPubKey": {"reqSigs": 1, "hex": "a9147ad53a370d45aa25ffaaa9fa5ca42aea3054320987", "addresses": ["3CtVoFGE6FWwuSYZhoAEwzLL7JuF5unLvT"], "asm": "OP_HASH160 7ad53a370d45aa25ffaaa9fa5ca42aea30543209 OP_EQUAL", "type": "scripthash"}, "value": 1.66756796, "n": 0}, {"scriptPubKey": {"reqSigs": 1, "hex": "76a91438670410c12412068e3f58dc7deb37dabddbf87d88ac", "addresses": ["169EFQrrvsNvAHazARM3ucf2rAU9EB1hhr"], "asm": "OP_DUP OP_HASH160 38670410c12412068e3f58dc7deb37dabddbf87d OP_EQUALVERIFY OP_CHECKSIG", "type": "pubkeyhash"}, "value": 2.50173634, "n": 1}], "hex": "01000000034ad9a32de77cf2925a3e095f4056a1b556b92740002dba285793e817e8e263a2000000006a473044022001d45c873f505997740019488883c2cdaf28021758ee4f6c5a44d1610b8f55fb02207fda15c90e2b6042b75011feff0bb52b1754b2348db708785636e2e2485e6f1b0121035f6f3fdb2b551721c95453bd75e8ee637071fa077508888f2f11448122a2591fffffffff03fd51a3c84054d93bc5017144084d29821b880e73f8a69b59b630939d2da0fd250000006a47304402207a8fcedc6e47a2ca1203770334bfa4faa43ae75d394a2930080fce7830379db702202d0a0919fe83114ef64d88798ad5e742e8ace797a50c528db5e68519784489570121035f6f3fdb2b551721c95453bd75e8ee637071fa077508888f2f11448122a2591fffffffff2f2378b6d91a2cea89b6f98746e7339d881922bb62d643788552829ffbb09ad0000000006b483045022100f4c41eb9a4501e9784173a0b58cc4f8abf9ce81040b8d0d0d7247e485f93133102200f5c4c316c1ccd87a0e5ee02a88854787dd613cc2991861703099e466c8d30900121020e595b424ad334fffa22db272577758bb2aac17725a5e8767c68011410adbf5dffffffff02bc81f0090000000017a9147ad53a370d45aa25ffaaa9fa5ca42aea3054320987c258e90e000000001976a91438670410c12412068e3f58dc7deb37dabddbf87d88ac00000000", "vin": [{"sequence": 4294967295, "scriptSig": {"hex": "473044022001d45c873f505997740019488883c2cdaf28021758ee4f6c5a44d1610b8f55fb02207fda15c90e2b6042b75011feff0bb52b1754b2348db708785636e2e2485e6f1b0121035f6f3fdb2b551721c95453bd75e8ee637071fa077508888f2f11448122a2591f", "asm": "3044022001d45c873f505997740019488883c2cdaf28021758ee4f6c5a44d1610b8f55fb02207fda15c90e2b6042b75011feff0bb52b1754b2348db708785636e2e2485e6f1b[ALL] 035f6f3fdb2b551721c95453bd75e8ee637071fa077508888f2f11448122a2591f"}, "vout": 0, "txid": "a263e2e817e8935728ba2d004027b956b5a156405f093e5a92f27ce72da3d94a"}, {"sequence": 4294967295, "scriptSig": {"hex": "47304402207a8fcedc6e47a2ca1203770334bfa4faa43ae75d394a2930080fce7830379db702202d0a0919fe83114ef64d88798ad5e742e8ace797a50c528db5e68519784489570121035f6f3fdb2b551721c95453bd75e8ee637071fa077508888f2f11448122a2591f", "asm": "304402207a8fcedc6e47a2ca1203770334bfa4faa43ae75d394a2930080fce7830379db702202d0a0919fe83114ef64d88798ad5e742e8ace797a50c528db5e6851978448957[ALL] 035f6f3fdb2b551721c95453bd75e8ee637071fa077508888f2f11448122a2591f"}, "vout": 37, "txid": "fda02d9d9330b6599ba6f8730e881b82294d08447101c53bd95440c8a351fd03"}, {"sequence": 4294967295, "scriptSig": {"hex": "483045022100f4c41eb9a4501e9784173a0b58cc4f8abf9ce81040b8d0d0d7247e485f93133102200f5c4c316c1ccd87a0e5ee02a88854787dd613cc2991861703099e466c8d30900121020e595b424ad334fffa22db272577758bb2aac17725a5e8767c68011410adbf5d", "asm": "3045022100f4c41eb9a4501e9784173a0b58cc4f8abf9ce81040b8d0d0d7247e485f93133102200f5c4c316c1ccd87a0e5ee02a88854787dd613cc2991861703099e466c8d3090[ALL] 020e595b424ad334fffa22db272577758bb2aac17725a5e8767c68011410adbf5d"}, "vout": 0, "txid": "d09ab0fb9f8252857843d662bb2219889d33e74687f9b689ea2c1ad9b678232f"}], "txid": "a92ea51c179fe1d9664cdba85ed152be5794d5870ba1f9e7441714c79b2612ee", "blocktime": 1537870928, "version": 1, "confirmations": 11514, "time": 1537870928, "locktime": 0, "vsize": 518, "size": 518}