{"hash": "37fdaf6a1f4fdc310e5c6fd12515bf367c845e9430f7693d2e0cdc0e451d2c9e", "blockhash": "000000000000000000022b45ed06c6f4ccd3cf7fb5ba4856ebd2e58215665228", "vout": [{"scriptPubKey": {"reqSigs": 1, "hex": "76a914b9d022cd04f69394232165d985b0a8817b716ebd88ac", "addresses": ["1HwVM2avYDRsyju5LWxRthaz3pBumLopCj"], "asm": "OP_DUP OP_HASH160 b9d022cd04f69394232165d985b0a8817b716ebd OP_EQUALVERIFY OP_CHECKSIG", "type": "pubkeyhash"}, "value": 0.15722509, "n": 0}], "hex": "02000000000121006b116d321d1d8023c5a58630a5dcf280d8cc370464afdf226d9d740089d7e5010000001716001434082d7e83825ca7e985c6c511e2217b59443090fdffffff015382abebb930af03ff0161b9519bc9e03b84fbf76d27764e3dae75ef1715540100000017160014159a06b2571c71b78be62ebc784f34a9fd264693fdffffff1034cdf257ea2be77c42bd238735fffeb8859a9ed5485f75e1cefcdb6c5bb3ba010000001716001434082d7e83825ca7e985c6c511e2217b59443090fdffffff13134e4f98c71f4cb8e9de206b4f759f4b80bdc3fcce8448a8f4f556b3588f43000000001716001415700045dc383705187598611a40094b7d4da5fbfdffffff13cd18f9c688bc82708dec02c381c024c56c437ece5273a6bfe86a4516e9436400000000171600142f4c1f0e356eda147718c6af41dc09d334c00c71fdffffff19e10e4eb8e2f737c945cbf9c5af63e8089cd907e46177c09ad65adce55cbae80000000017160014265fb4b3daac8c379afd38039be24bd086d26ef2fdffffff1b96cfa56090a6e789692369693f79d9a8af09128456fd7a9061425ab2ae03310f000000171600142f0f9afe080647d0f2a62e6b0130c96b0e3e9043fdffffff1c5c5e61b1990f6fb0e90b373fc2542e8dbe35e7bc5a9c9ad9e70f4dfe28add2000000001716001434082d7e83825ca7e985c6c511e2217b59443090fdffffff1daf2743716cd921bdebcadbb2bec66f86b4fb90c5675b22d60a3de8e7143dc501000000171600142e775d358b00d78dcbdd45315d5940e0e9c92850fdffffff2892247a609eeb03f668b47384d35782e46df83b9665c0415113c79a2c680c4900000000171600141ce6413aff56b2c8ec6ea1a88072b1e055863072fdffffff2cc1866623bbfdfcb9d322f157203059a0ac65195c817b441797ffbdd3e17c2e03000000171600142ba7ff54e40f64d64d3c0dd90649052275e0ca56fdffffff2d41aa49c8292982db6f400e97bc1f4e73364396530f606b1c550aa0aa4941750000000017160014327b9250a44d64b0c7da73207bdfd12cf98f3567fdffffff3100aceee4059568f6cdea7150aad73cfc07cd5b97d1604ef294181d84ac1d9d03000000171600143408923a8abf6657cc9756cf24d5ec568d7f3914fdffffff383c022eae1c7370bc382ac4eee7e63302cae5e6dd0fd7d7cb1ffbf306f219ae00000000171600141270cc543d7456e153baa9d9d400956e4b2a9d14fdffffff3d67fbae57d951b417a98eb99d9975d16ed94a88528b56d462c238f0293e785b19000000171600142f0f9afe080647d0f2a62e6b0130c96b0e3e9043fdffffff4160d0948436acd00118fca4cf8efc4dcb8ed5786c6d6949e83c39f2da189e040000000017160014183a0bd4c7b1edd7e240cc51b725e3a4e52bf1e5fdffffff4b5874f3c9912382c7d25a427d3e72744cc38138a9ab0bdb6f6ae070fc8abdfd00000000171600140c4b0b3b8072a67e46f5a2d96b6270dae57690e5fdffffff5cc153d2316367da3aa4629a9470260d95330dfa3bf67056b0ab53bb42137a93000000001716001410e9ef7be735ad67db341bb61f553632b0e4e5d6fdffffff7e4e99215a068279fca97c80339022e43a015d7d7cbda315d5e869318e2ba59800000000171600142d69e478b45351c9b16be3ee48d0a5c5409a9b3bfdffffff948f8d4182710d3d67d182ca70a70aa0c16fa6e049c825eea7bd197f3d397a160100000017160014194cd4ac416e51912001d82042fe3997c40f656efdffffffa1aa72fc30a8f145e3fe5be805f579adbacaa635fcacc360fae96ce2ae15929f0100000017160014197184a18b0a817505131cd2fe6e83020f322e0dfdffffffa60fd667f2fa402c7f67af6f814eb2df9b50f88da13b6e0464dbba5dd5c35e290d000000171600142ba7ff54e40f64d64d3c0dd90649052275e0ca56fdffffffaaf81bcbb020b579c8f4a7ec63045236625df4c75bf3c76220ce36ca64ee8e35000000001716001417bfaca760665d98dbbe0f8db9e8ddaba076fc23fdffffffac1b218223e22e2143876c5e3a988fe93214fc28e03374fc6d6536132e1706bb01000000171600142672379be50c58e77dfa34359c8968be0393bf01fdffffffb8594bb05bf2ba890fc2502f705815f83f08b60d74e49f26b1ccaddc687681c300000000171600142f4ce605b2f10a95417c943dfc4f819849d23c7dfdffffffbf1d407185af1d11eadb43403862e865795075572c5d6bc3e760df5ea16dac370000000017160014197184a18b0a817505131cd2fe6e83020f322e0dfdffffffcca2abddd21c93cb4fb8eaa7b288734991c23385da3324c33327f58aea83dcda0100000017160014005c3f9bab5e816ecee5bb29a4c7139c8a23f3a7fdffffffd6a354e8afe879fa6484321d7ebaac0371b006bf411bde99c6e805a7835032f90000000017160014159a06b2571c71b78be62ebc784f34a9fd264693fdffffffdfdef095cf0efbcc7b19fef0868581738192edaa6d36c541af1bc09173a9607500000000171600142f12e1edc6ce2d7be8b47430e3c94d897bf68193fdffffffec8a0c9af0dddfb1ed1bc06bad09296c579aee70c55dcd91909b03ecd82b2e0100000000171600142f64f861b07fbce78ea2a357ca56217b443ce74afdfffffff7303ef6e3392d54e9ec982760c392fdcd4c3c8f705461cbb86d6ce55eb7862900000000171600142d166e8198c2a6657ac5b6bfc4bed1bcbfdb1ecafdfffffffca31386ed5f6db5e5b2d9029d8cf11db616d51833cd9fe2d8044c08a33a7d67000000001716001426378b55de3aad46f2ffd8d35f472ebeb4152bcffdfffffffce4f447ff7460404267556cfdade0c364cf0f5f2091dcbecb6ee685089d55ae0000000017160014159a06b2571c71b78be62ebc784f34a9fd264693fdffffff010de8ef00000000001976a914b9d022cd04f69394232165d985b0a8817b716ebd88ac02483045022100da8927625d8cc37c71cd555ed0d436ab97423c06890dff32ed53ce92d95f8d97022039feca94358c71abb9618812ca9cdcc6a387da3c11b36425c6d470a31b8164de012102623be400f2aada587b84d4dbc122e31f97fc4c9f0f125e36715cb988b3fc17df02483045022100ef757914ffd1793350746d054b20874cc2889c493446bbbb88cd378aaad9df1002206c1b015e38b8daf5c3b58987047c2ae49b3926065f416505038d62a37442920c01210373b89e3cbf267181c6741c3d603be93bf72f09095f11c9b31a7bdded770d064a02473044022022ea44873b24cd50d41a255ca89bc59b6d3d6836c66160c50d8501addc82d5320220553e8bb646d2e475998610f9b1412aa7d06781d23b8694deb22449b5115897d5012102623be400f2aada587b84d4dbc122e31f97fc4c9f0f125e36715cb988b3fc17df02483045022100dedda9216d0361c4a5fda6bb12ba12e1ef9beb9b27c85bec4e508d745d9a0084022006e4e8439042df0b7bd73f25e849ae1ec86c8030527318c933d658fd48d2d455012103b2caad8d1953235bd2b55270e256f5ae44a8924444d4251471cfe6d03d25905d02483045022100b7cfb87152a64d20e31b29dae87c0530263d5820b175731e84138241947272aa0220432a0ebcd95c096d5bbd6778c0627aefe173b31fe4765b584cbdfdb59d8abce7012102052994c4c0001888f6a0096c3f7d4c8482f80b93b01bde208862c7b267863b5902483045022100b7b11545b63067b152b9bacb64b4e7ce7b53e7eb865d6f53c7a633698bcbdfcd02205b51ae6d844bc3e03da8a3b772ca1073e89bdc7719668bdc44795f4655d5c1dd0121024939b3640b3fb52d4dbaf3cfa934189953bbfb839b686c4da1d97b43fef5aadd02483045022100ed9062f6776d3e5f70fbd62c626ef402837dba361a0d950cc50eb9e2789cc5eb02203770f1c58c029a46e1c09865bf86b61c424db46046a2e8056367159900f1c3bb01210399f57cbe8ced2c5727eafd3c7cd8e7d424a9c514e89acb8ebb59b08f8af1c53002473044022047045d0589f2648b739c10aec08218c0132e109d23753001b0c20aaa724954c30220180e09485070180ac73fe8655c7945db3b56f0557b52f8ced2baa003f31680e6012102623be400f2aada587b84d4dbc122e31f97fc4c9f0f125e36715cb988b3fc17df024730440220715b8603ee4e87235a529504c22e1c94f54bdfdb5a40b5703690f7aa19bde6dd022046589bc457aff38953f3b61111d915877155ed29fe2b14ddae61d9b42fc8598f012102008494ddc2f9f8481908770b288cee69e9a36968a944d02e48e9e1b7bd7cc2250247304402204b60b8921fb1eafb26df44c9abf2e49f40eda155df9094070b96f27b46828329022011a031cd51767e572826773baec4a9505ffc1b883e1f84610bfa0b29161e471901210290a9a213b0150d96ce9edb98a0d8917da0b0a72fea6fe68e4857578857cbdda10247304402203f3c35d8071786f7f4d09c4be32e8b330afb570a2ce9e2c52db515fecd7a3ca102202f8d43c807e1ab62608be1c565aeacf4e409e9d8aaae3025f0b3edc5103ccd110121026a82192814944428773c672f495ab1ab129c6166c902b9f7ad3fb6b5ff9b4bd10247304402206c2e612bc218e3f24f2eae54645beddb3e31e49f8bd8ab21d0fe4261cc78336d02202bba0e52f3cf129c49540dd2c4394fdd759fb3535032b9e3e819d16bd76d678e0121028337c6f3baf17dc97ddaa2b501000ca18e07f8a50a0d1b19a8643d4d6db2d84002483045022100ddf4df865e7ee07954a89768df026715f1b58e29303942b8138225e5fba834a60220039c6325eff1e59dbfc22a96355abcca9f1847c61a4853a2931cf2577157f401012102b67446a4221742d19bea2b79c90fc345e891059779b50d15cf1dc912c225a463024730440220595e2c5aa82b5a6aeaa2a01122825fbabec07709844db95192c574551dfcb220022028060ce4a9f3c8fac4415851901945f4c244116b12edfce07704590af00012ec0121031adb40eb5d17a6cd17f8f270aa9194d3e38d22d7bbfa46ac727e16cf718529b90247304402204aab49375d4264ed042e57960de3dd5ba032f89921cefd1a6a516a29a0449bac02205f33978807be8b23847b575ca51197b37ca722f87786b2e1676e597b5d46a78701210399f57cbe8ced2c5727eafd3c7cd8e7d424a9c514e89acb8ebb59b08f8af1c5300247304402201b249b4f0b2c8baf48e5a49a4a41c67debb11d9441d63fd9978ab42b28364c2f0220753efc00ca9aa9a057fff647c77211e6cc3ae57fa005849f2a25a029dea72f4d0121035bb51b5e37eda452e58cada29e319d7a03722b3948dfdbc4d55198f14a8086b502483045022100b63b590d97cee480a1a0ca4cb6f0b81621caa9a66b2eb1418778839dd4ab7429022011db543578fc261174368b2dcbf55229125ed4c00a9820ed4de008687be0667d01210315f0c7aef2f3ca06d91a577f8fab2ab79402b302fad6803a709b852abd85496202483045022100fcda47f667cfe8c1d3ec1c24c6ae51261d86a06ad684461158b3ba1416b374b0022032eae7fd716cc0b8b06c0c0185fe9d75843320fd1287ef034a2e4d03da2c574a012103fb4d0cd0e7dc719a4749711d8976cedad1b724dd0c5ff1c671b6b97295c0774e0247304402205e808338acc6ad6241dcac77849cd5db5bca8c9539dcdc14fbd86022c8a7c658022056d962e9896ed226b75ee4551bfe2eb3277c06f52cbadcbba7589bcb1ee77a910121025271d02f0f3868a215c98ebda49e1d6cb730e0abce2f650a5ef9eaf1484387b902483045022100f02b7957e67511784fef18f059c0a9c59347de8b95cdd4ada55a030e1e8553a702203a83d06a13718b1bc57137b50565d5ba28d1079fdcc71a75fe11b2a0f3c14ce50121028f7843655b788c556d09c6b1a311cefd555ffdf96b80a0e10a388b5454cad3e5024730440220137c0666a01b9492342232d62184727c85fa41792b5d51bf36201b93e33361c102202a22cdec982f71d405dac78bf638a2789ff357c86ade7637b06b1b1421c8e1d0012102f61d4e03795a1b957591a2f47bb8031c091c6e7ac1394c995992d153639a91bf02483045022100a3ee2791f8a7eb5949ffe0b5c03832da7a6b5f5ebf73bfd01aa85de983e3013b02200fd50db175dcde0b0b60a41728ab0e36bf429c09a8c2b8f64352437e76e6bb4d0121026a82192814944428773c672f495ab1ab129c6166c902b9f7ad3fb6b5ff9b4bd102483045022100e323f4b8235ea6f3417e57148e7dbc7fdb0d4a43f56700d6cd72d6aa1aba17ae02202e17f0c1288fb7b76ff0e03846ab0d8756c39d9acc65aef2080362d4e86d97a701210239cd4b3ae180c50585eee0693c1f01e6fe48c4ccd4f93e7a6713eaf4e9d64dd50247304402205586ae81c634daa9e17b8f0a2101ab371c6bf7a23bee8cfb4d939af6f0335808022016d2e98eb760525843948b1d446216528178c879e79da30e6d65ea856f3711f30121024ce7c1f93d3c0b8d0fdc590882b6724612e3fe064add87ae2ee01a9d2d574d1202473044022058b8e27a103a65e48bc48221176a27479895fbc9070a4783a07f172b84f2751f0220075062e0e6ed9d6957b35704cbc16be1c7d57e62013b00d6f6d57c2d3ca4f81301210373e7b7505cba5078b767136d67016bf13af6356347bafb1bad848d606961e84002483045022100f0cdc438a36e72f6a69f2f07ae2bdc64e3d3ebf5133ddff13ee70ea484a1d728022036e1e34cb85ede57a86f86501b1a51b0f9874fd191ccf0e4d0607eb1cc3e0b3c012102f61d4e03795a1b957591a2f47bb8031c091c6e7ac1394c995992d153639a91bf0247304402206b36997d6c7695556eef4fca9a77730f04a3d48effd38e9e738f4f51fd7ff17b02207056b5131effa7066bce9f6aaa0a33491f5c76721f0a68ea82a88c085cf7b53b012103110ec3b7cffd393bf6e4054742e0d16bcaa2da7f94013a40fd78b88ab29127b902483045022100bf339ebc21faf701472e11275c757214daa8aab511d881a64e7bbb43cf89b921022071b56460700caaf5d056f857d620efedc1393ccd6907fb9a2c1e0c0700ca498a01210373b89e3cbf267181c6741c3d603be93bf72f09095f11c9b31a7bdded770d064a0247304402207d682301433b9e71167383c62be1d0ae2b63ded69b71a0a17cbb0704734f7fc702206a0b4c7367b0204f6eb6e334a8a5b1d5213c228339fb59428ec02437706fc3be0121029b2710fed329c18a95ecb8e92816cbfaf02368531ffd0cded9e953d98854e9f70248304502210097c6cada8eca124e80d843d730326015e32892faae51947773dbbbb095e05b8102203e05530090de8e4239baab53c0580839eab743ef6c77a1434fd014ebd48cfeb2012102212ceca1d95e538f34e59999833ff9976ca0e41bee9bc959a3917f83bf442ec202473044022031b099eb88ede145374e5078498129cdf87b3bca13fd8fb940c9505197bd994202207d808e5e8dadd54c545382242b7a5a0a43d18b9aa26e8ffd7cc1e90c2572b95e012103efb2dba7a38e8e836b3cc31cb149067102328563a7f76e1d7ea28fcc63cf317502483045022100fb5df4cda7fe0dae38c3eb215949417f33b1666403d4282e9acfa07fad02bc5a022075e2fa27638007c27b462ddac55bb837d1091709d3408b5b5dfd379ef516b7b0012102dc04e90b249d1914d5cb6f3ade0fb82825bebffb067dc174bed5b70d116fefec024730440220492a1d60e196d757641718ffee9dc968d69a27f5771da1a999914ea2242ae39a02200ba3df493b1bd8538b0dea2c3f94b61967d8ccb3a8acdb8edd90621a780da7dc01210373b89e3cbf267181c6741c3d603be93bf72f09095f11c9b31a7bdded770d064a0b490800", "vin": [{"txinwitness": ["3045022100da8927625d8cc37c71cd555ed0d436ab97423c06890dff32ed53ce92d95f8d97022039feca94358c71abb9618812ca9cdcc6a387da3c11b36425c6d470a31b8164de01", "02623be400f2aada587b84d4dbc122e31f97fc4c9f0f125e36715cb988b3fc17df"], "sequence": 4294967293, "scriptSig": {"hex": "16001434082d7e83825ca7e985c6c511e2217b59443090", "asm": "001434082d7e83825ca7e985c6c511e2217b59443090"}, "vout": 1, "txid": "e5d78900749d6d22dfaf640437ccd880f2dca53086a5c523801d1d326d116b00"}, {"txinwitness": ["3045022100ef757914ffd1793350746d054b20874cc2889c493446bbbb88cd378aaad9df1002206c1b015e38b8daf5c3b58987047c2ae49b3926065f416505038d62a37442920c01", "0373b89e3cbf267181c6741c3d603be93bf72f09095f11c9b31a7bdded770d064a"], "sequence": 4294967293, "scriptSig": {"hex": "160014159a06b2571c71b78be62ebc784f34a9fd264693", "asm": "0014159a06b2571c71b78be62ebc784f34a9fd264693"}, "vout": 1, "txid": "541517ef75ae3d4e76276df7fb843be0c99b51b96101ff03af30b9ebab825301"}, {"txinwitness": ["3044022022ea44873b24cd50d41a255ca89bc59b6d3d6836c66160c50d8501addc82d5320220553e8bb646d2e475998610f9b1412aa7d06781d23b8694deb22449b5115897d501", "02623be400f2aada587b84d4dbc122e31f97fc4c9f0f125e36715cb988b3fc17df"], "sequence": 4294967293, "scriptSig": {"hex": "16001434082d7e83825ca7e985c6c511e2217b59443090", "asm": "001434082d7e83825ca7e985c6c511e2217b59443090"}, "vout": 1, "txid": "bab35b6cdbfccee1755f48d59e9a85b8feff358723bd427ce72bea57f2cd3410"}, {"txinwitness": ["3045022100dedda9216d0361c4a5fda6bb12ba12e1ef9beb9b27c85bec4e508d745d9a0084022006e4e8439042df0b7bd73f25e849ae1ec86c8030527318c933d658fd48d2d45501", "03b2caad8d1953235bd2b55270e256f5ae44a8924444d4251471cfe6d03d25905d"], "sequence": 4294967293, "scriptSig": {"hex": "16001415700045dc383705187598611a40094b7d4da5fb", "asm": "001415700045dc383705187598611a40094b7d4da5fb"}, "vout": 0, "txid": "438f58b356f5f4a84884cefcc3bd804b9f754f6b20dee9b84c1fc7984f4e1313"}, {"txinwitness": ["3045022100b7cfb87152a64d20e31b29dae87c0530263d5820b175731e84138241947272aa0220432a0ebcd95c096d5bbd6778c0627aefe173b31fe4765b584cbdfdb59d8abce701", "02052994c4c0001888f6a0096c3f7d4c8482f80b93b01bde208862c7b267863b59"], "sequence": 4294967293, "scriptSig": {"hex": "1600142f4c1f0e356eda147718c6af41dc09d334c00c71", "asm": "00142f4c1f0e356eda147718c6af41dc09d334c00c71"}, "vout": 0, "txid": "6443e916456ae8bfa67352ce7e436cc524c081c302ec8d7082bc88c6f918cd13"}, {"txinwitness": ["3045022100b7b11545b63067b152b9bacb64b4e7ce7b53e7eb865d6f53c7a633698bcbdfcd02205b51ae6d844bc3e03da8a3b772ca1073e89bdc7719668bdc44795f4655d5c1dd01", "024939b3640b3fb52d4dbaf3cfa934189953bbfb839b686c4da1d97b43fef5aadd"], "sequence": 4294967293, "scriptSig": {"hex": "160014265fb4b3daac8c379afd38039be24bd086d26ef2", "asm": "0014265fb4b3daac8c379afd38039be24bd086d26ef2"}, "vout": 0, "txid": "e8ba5ce5dc5ad69ac07761e407d99c08e863afc5f9cb45c937f7e2b84e0ee119"}, {"txinwitness": ["3045022100ed9062f6776d3e5f70fbd62c626ef402837dba361a0d950cc50eb9e2789cc5eb02203770f1c58c029a46e1c09865bf86b61c424db46046a2e8056367159900f1c3bb01", "0399f57cbe8ced2c5727eafd3c7cd8e7d424a9c514e89acb8ebb59b08f8af1c530"], "sequence": 4294967293, "scriptSig": {"hex": "1600142f0f9afe080647d0f2a62e6b0130c96b0e3e9043", "asm": "00142f0f9afe080647d0f2a62e6b0130c96b0e3e9043"}, "vout": 15, "txid": "3103aeb25a4261907afd56841209afa8d9793f6969236989e7a69060a5cf961b"}, {"txinwitness": ["3044022047045d0589f2648b739c10aec08218c0132e109d23753001b0c20aaa724954c30220180e09485070180ac73fe8655c7945db3b56f0557b52f8ced2baa003f31680e601", "02623be400f2aada587b84d4dbc122e31f97fc4c9f0f125e36715cb988b3fc17df"], "sequence": 4294967293, "scriptSig": {"hex": "16001434082d7e83825ca7e985c6c511e2217b59443090", "asm": "001434082d7e83825ca7e985c6c511e2217b59443090"}, "vout": 0, "txid": "d2ad28fe4d0fe7d99a9c5abce735be8d2e54c23f370be9b06f0f99b1615e5c1c"}, {"txinwitness": ["30440220715b8603ee4e87235a529504c22e1c94f54bdfdb5a40b5703690f7aa19bde6dd022046589bc457aff38953f3b61111d915877155ed29fe2b14ddae61d9b42fc8598f01", "02008494ddc2f9f8481908770b288cee69e9a36968a944d02e48e9e1b7bd7cc225"], "sequence": 4294967293, "scriptSig": {"hex": "1600142e775d358b00d78dcbdd45315d5940e0e9c92850", "asm": "00142e775d358b00d78dcbdd45315d5940e0e9c92850"}, "vout": 1, "txid": "c53d14e7e83d0ad6225b67c590fbb4866fc6beb2dbcaebbd21d96c714327af1d"}, {"txinwitness": ["304402204b60b8921fb1eafb26df44c9abf2e49f40eda155df9094070b96f27b46828329022011a031cd51767e572826773baec4a9505ffc1b883e1f84610bfa0b29161e471901", "0290a9a213b0150d96ce9edb98a0d8917da0b0a72fea6fe68e4857578857cbdda1"], "sequence": 4294967293, "scriptSig": {"hex": "1600141ce6413aff56b2c8ec6ea1a88072b1e055863072", "asm": "00141ce6413aff56b2c8ec6ea1a88072b1e055863072"}, "vout": 0, "txid": "490c682c9ac7135141c065963bf86de48257d38473b468f603eb9e607a249228"}, {"txinwitness": ["304402203f3c35d8071786f7f4d09c4be32e8b330afb570a2ce9e2c52db515fecd7a3ca102202f8d43c807e1ab62608be1c565aeacf4e409e9d8aaae3025f0b3edc5103ccd1101", "026a82192814944428773c672f495ab1ab129c6166c902b9f7ad3fb6b5ff9b4bd1"], "sequence": 4294967293, "scriptSig": {"hex": "1600142ba7ff54e40f64d64d3c0dd90649052275e0ca56", "asm": "00142ba7ff54e40f64d64d3c0dd90649052275e0ca56"}, "vout": 3, "txid": "2e7ce1d3bdff9717447b815c1965aca059302057f122d3b9fcfdbb236686c12c"}, {"txinwitness": ["304402206c2e612bc218e3f24f2eae54645beddb3e31e49f8bd8ab21d0fe4261cc78336d02202bba0e52f3cf129c49540dd2c4394fdd759fb3535032b9e3e819d16bd76d678e01", "028337c6f3baf17dc97ddaa2b501000ca18e07f8a50a0d1b19a8643d4d6db2d840"], "sequence": 4294967293, "scriptSig": {"hex": "160014327b9250a44d64b0c7da73207bdfd12cf98f3567", "asm": "0014327b9250a44d64b0c7da73207bdfd12cf98f3567"}, "vout": 0, "txid": "754149aaa00a551c6b600f53964336734e1fbc970e406fdb822929c849aa412d"}, {"txinwitness": ["3045022100ddf4df865e7ee07954a89768df026715f1b58e29303942b8138225e5fba834a60220039c6325eff1e59dbfc22a96355abcca9f1847c61a4853a2931cf2577157f40101", "02b67446a4221742d19bea2b79c90fc345e891059779b50d15cf1dc912c225a463"], "sequence": 4294967293, "scriptSig": {"hex": "1600143408923a8abf6657cc9756cf24d5ec568d7f3914", "asm": "00143408923a8abf6657cc9756cf24d5ec568d7f3914"}, "vout": 3, "txid": "9d1dac841d1894f24e60d1975bcd07fc3cd7aa5071eacdf6689505e4eeac0031"}, {"txinwitness": ["30440220595e2c5aa82b5a6aeaa2a01122825fbabec07709844db95192c574551dfcb220022028060ce4a9f3c8fac4415851901945f4c244116b12edfce07704590af00012ec01", "031adb40eb5d17a6cd17f8f270aa9194d3e38d22d7bbfa46ac727e16cf718529b9"], "sequence": 4294967293, "scriptSig": {"hex": "1600141270cc543d7456e153baa9d9d400956e4b2a9d14", "asm": "00141270cc543d7456e153baa9d9d400956e4b2a9d14"}, "vout": 0, "txid": "ae19f206f3fb1fcbd7d70fdde6e5ca0233e6e7eec42a38bc70731cae2e023c38"}, {"txinwitness": ["304402204aab49375d4264ed042e57960de3dd5ba032f89921cefd1a6a516a29a0449bac02205f33978807be8b23847b575ca51197b37ca722f87786b2e1676e597b5d46a78701", "0399f57cbe8ced2c5727eafd3c7cd8e7d424a9c514e89acb8ebb59b08f8af1c530"], "sequence": 4294967293, "scriptSig": {"hex": "1600142f0f9afe080647d0f2a62e6b0130c96b0e3e9043", "asm": "00142f0f9afe080647d0f2a62e6b0130c96b0e3e9043"}, "vout": 25, "txid": "5b783e29f038c262d4568b52884ad96ed175999db98ea917b451d957aefb673d"}, {"txinwitness": ["304402201b249b4f0b2c8baf48e5a49a4a41c67debb11d9441d63fd9978ab42b28364c2f0220753efc00ca9aa9a057fff647c77211e6cc3ae57fa005849f2a25a029dea72f4d01", "035bb51b5e37eda452e58cada29e319d7a03722b3948dfdbc4d55198f14a8086b5"], "sequence": 4294967293, "scriptSig": {"hex": "160014183a0bd4c7b1edd7e240cc51b725e3a4e52bf1e5", "asm": "0014183a0bd4c7b1edd7e240cc51b725e3a4e52bf1e5"}, "vout": 0, "txid": "049e18daf2393ce849696d6c78d58ecb4dfc8ecfa4fc1801d0ac368494d06041"}, {"txinwitness": ["3045022100b63b590d97cee480a1a0ca4cb6f0b81621caa9a66b2eb1418778839dd4ab7429022011db543578fc261174368b2dcbf55229125ed4c00a9820ed4de008687be0667d01", "0315f0c7aef2f3ca06d91a577f8fab2ab79402b302fad6803a709b852abd854962"], "sequence": 4294967293, "scriptSig": {"hex": "1600140c4b0b3b8072a67e46f5a2d96b6270dae57690e5", "asm": "00140c4b0b3b8072a67e46f5a2d96b6270dae57690e5"}, "vout": 0, "txid": "fdbd8afc70e06a6fdb0baba93881c34c74723e7d425ad2c7822391c9f374584b"}, {"txinwitness": ["3045022100fcda47f667cfe8c1d3ec1c24c6ae51261d86a06ad684461158b3ba1416b374b0022032eae7fd716cc0b8b06c0c0185fe9d75843320fd1287ef034a2e4d03da2c574a01", "03fb4d0cd0e7dc719a4749711d8976cedad1b724dd0c5ff1c671b6b97295c0774e"], "sequence": 4294967293, "scriptSig": {"hex": "16001410e9ef7be735ad67db341bb61f553632b0e4e5d6", "asm": "001410e9ef7be735ad67db341bb61f553632b0e4e5d6"}, "vout": 0, "txid": "937a1342bb53abb05670f63bfa0d33950d2670949a62a43ada676331d253c15c"}, {"txinwitness": ["304402205e808338acc6ad6241dcac77849cd5db5bca8c9539dcdc14fbd86022c8a7c658022056d962e9896ed226b75ee4551bfe2eb3277c06f52cbadcbba7589bcb1ee77a9101", "025271d02f0f3868a215c98ebda49e1d6cb730e0abce2f650a5ef9eaf1484387b9"], "sequence": 4294967293, "scriptSig": {"hex": "1600142d69e478b45351c9b16be3ee48d0a5c5409a9b3b", "asm": "00142d69e478b45351c9b16be3ee48d0a5c5409a9b3b"}, "vout": 0, "txid": "98a52b8e3169e8d515a3bd7c7d5d013ae4229033807ca9fc7982065a21994e7e"}, {"txinwitness": ["3045022100f02b7957e67511784fef18f059c0a9c59347de8b95cdd4ada55a030e1e8553a702203a83d06a13718b1bc57137b50565d5ba28d1079fdcc71a75fe11b2a0f3c14ce501", "028f7843655b788c556d09c6b1a311cefd555ffdf96b80a0e10a388b5454cad3e5"], "sequence": 4294967293, "scriptSig": {"hex": "160014194cd4ac416e51912001d82042fe3997c40f656e", "asm": "0014194cd4ac416e51912001d82042fe3997c40f656e"}, "vout": 1, "txid": "167a393d7f19bda7ee25c849e0a66fc1a00aa770ca82d1673d0d7182418d8f94"}, {"txinwitness": ["30440220137c0666a01b9492342232d62184727c85fa41792b5d51bf36201b93e33361c102202a22cdec982f71d405dac78bf638a2789ff357c86ade7637b06b1b1421c8e1d001", "02f61d4e03795a1b957591a2f47bb8031c091c6e7ac1394c995992d153639a91bf"], "sequence": 4294967293, "scriptSig": {"hex": "160014197184a18b0a817505131cd2fe6e83020f322e0d", "asm": "0014197184a18b0a817505131cd2fe6e83020f322e0d"}, "vout": 1, "txid": "9f9215aee26ce9fa60c3acfc35a6cabaad79f505e85bfee345f1a830fc72aaa1"}, {"txinwitness": ["3045022100a3ee2791f8a7eb5949ffe0b5c03832da7a6b5f5ebf73bfd01aa85de983e3013b02200fd50db175dcde0b0b60a41728ab0e36bf429c09a8c2b8f64352437e76e6bb4d01", "026a82192814944428773c672f495ab1ab129c6166c902b9f7ad3fb6b5ff9b4bd1"], "sequence": 4294967293, "scriptSig": {"hex": "1600142ba7ff54e40f64d64d3c0dd90649052275e0ca56", "asm": "00142ba7ff54e40f64d64d3c0dd90649052275e0ca56"}, "vout": 13, "txid": "295ec3d55dbadb64046e3ba18df8509bdfb24e816faf677f2c40faf267d60fa6"}, {"txinwitness": ["3045022100e323f4b8235ea6f3417e57148e7dbc7fdb0d4a43f56700d6cd72d6aa1aba17ae02202e17f0c1288fb7b76ff0e03846ab0d8756c39d9acc65aef2080362d4e86d97a701", "0239cd4b3ae180c50585eee0693c1f01e6fe48c4ccd4f93e7a6713eaf4e9d64dd5"], "sequence": 4294967293, "scriptSig": {"hex": "16001417bfaca760665d98dbbe0f8db9e8ddaba076fc23", "asm": "001417bfaca760665d98dbbe0f8db9e8ddaba076fc23"}, "vout": 0, "txid": "358eee64ca36ce2062c7f35bc7f45d6236520463eca7f4c879b520b0cb1bf8aa"}, {"txinwitness": ["304402205586ae81c634daa9e17b8f0a2101ab371c6bf7a23bee8cfb4d939af6f0335808022016d2e98eb760525843948b1d446216528178c879e79da30e6d65ea856f3711f301", "024ce7c1f93d3c0b8d0fdc590882b6724612e3fe064add87ae2ee01a9d2d574d12"], "sequence": 4294967293, "scriptSig": {"hex": "1600142672379be50c58e77dfa34359c8968be0393bf01", "asm": "00142672379be50c58e77dfa34359c8968be0393bf01"}, "vout": 1, "txid": "bb06172e1336656dfc7433e028fc1432e98f983a5e6c8743212ee22382211bac"}, {"txinwitness": ["3044022058b8e27a103a65e48bc48221176a27479895fbc9070a4783a07f172b84f2751f0220075062e0e6ed9d6957b35704cbc16be1c7d57e62013b00d6f6d57c2d3ca4f81301", "0373e7b7505cba5078b767136d67016bf13af6356347bafb1bad848d606961e840"], "sequence": 4294967293, "scriptSig": {"hex": "1600142f4ce605b2f10a95417c943dfc4f819849d23c7d", "asm": "00142f4ce605b2f10a95417c943dfc4f819849d23c7d"}, "vout": 0, "txid": "c3817668dcadccb1269fe4740db6083ff81558702f50c20f89baf25bb04b59b8"}, {"txinwitness": ["3045022100f0cdc438a36e72f6a69f2f07ae2bdc64e3d3ebf5133ddff13ee70ea484a1d728022036e1e34cb85ede57a86f86501b1a51b0f9874fd191ccf0e4d0607eb1cc3e0b3c01", "02f61d4e03795a1b957591a2f47bb8031c091c6e7ac1394c995992d153639a91bf"], "sequence": 4294967293, "scriptSig": {"hex": "160014197184a18b0a817505131cd2fe6e83020f322e0d", "asm": "0014197184a18b0a817505131cd2fe6e83020f322e0d"}, "vout": 0, "txid": "37ac6da15edf60e7c36b5d2c5775507965e862384043dbea111daf8571401dbf"}, {"txinwitness": ["304402206b36997d6c7695556eef4fca9a77730f04a3d48effd38e9e738f4f51fd7ff17b02207056b5131effa7066bce9f6aaa0a33491f5c76721f0a68ea82a88c085cf7b53b01", "03110ec3b7cffd393bf6e4054742e0d16bcaa2da7f94013a40fd78b88ab29127b9"], "sequence": 4294967293, "scriptSig": {"hex": "160014005c3f9bab5e816ecee5bb29a4c7139c8a23f3a7", "asm": "0014005c3f9bab5e816ecee5bb29a4c7139c8a23f3a7"}, "vout": 1, "txid": "dadc83ea8af52733c32433da8533c291497388b2a7eab84fcb931cd2ddaba2cc"}, {"txinwitness": ["3045022100bf339ebc21faf701472e11275c757214daa8aab511d881a64e7bbb43cf89b921022071b56460700caaf5d056f857d620efedc1393ccd6907fb9a2c1e0c0700ca498a01", "0373b89e3cbf267181c6741c3d603be93bf72f09095f11c9b31a7bdded770d064a"], "sequence": 4294967293, "scriptSig": {"hex": "160014159a06b2571c71b78be62ebc784f34a9fd264693", "asm": "0014159a06b2571c71b78be62ebc784f34a9fd264693"}, "vout": 0, "txid": "f9325083a705e8c699de1b41bf06b07103acba7e1d328464fa79e8afe854a3d6"}, {"txinwitness": ["304402207d682301433b9e71167383c62be1d0ae2b63ded69b71a0a17cbb0704734f7fc702206a0b4c7367b0204f6eb6e334a8a5b1d5213c228339fb59428ec02437706fc3be01", "029b2710fed329c18a95ecb8e92816cbfaf02368531ffd0cded9e953d98854e9f7"], "sequence": 4294967293, "scriptSig": {"hex": "1600142f12e1edc6ce2d7be8b47430e3c94d897bf68193", "asm": "00142f12e1edc6ce2d7be8b47430e3c94d897bf68193"}, "vout": 0, "txid": "7560a97391c01baf41c5366daaed928173818586f0fe197bccfb0ecf95f0dedf"}, {"txinwitness": ["304502210097c6cada8eca124e80d843d730326015e32892faae51947773dbbbb095e05b8102203e05530090de8e4239baab53c0580839eab743ef6c77a1434fd014ebd48cfeb201", "02212ceca1d95e538f34e59999833ff9976ca0e41bee9bc959a3917f83bf442ec2"], "sequence": 4294967293, "scriptSig": {"hex": "1600142f64f861b07fbce78ea2a357ca56217b443ce74a", "asm": "00142f64f861b07fbce78ea2a357ca56217b443ce74a"}, "vout": 0, "txid": "012e2bd8ec039b9091cd5dc570ee9a576c2909ad6bc01bedb1dfddf09a0c8aec"}, {"txinwitness": ["3044022031b099eb88ede145374e5078498129cdf87b3bca13fd8fb940c9505197bd994202207d808e5e8dadd54c545382242b7a5a0a43d18b9aa26e8ffd7cc1e90c2572b95e01", "03efb2dba7a38e8e836b3cc31cb149067102328563a7f76e1d7ea28fcc63cf3175"], "sequence": 4294967293, "scriptSig": {"hex": "1600142d166e8198c2a6657ac5b6bfc4bed1bcbfdb1eca", "asm": "00142d166e8198c2a6657ac5b6bfc4bed1bcbfdb1eca"}, "vout": 0, "txid": "2986b75ee56c6db8cb6154708f3c4ccdfd92c3602798ece9542d39e3f63e30f7"}, {"txinwitness": ["3045022100fb5df4cda7fe0dae38c3eb215949417f33b1666403d4282e9acfa07fad02bc5a022075e2fa27638007c27b462ddac55bb837d1091709d3408b5b5dfd379ef516b7b001", "02dc04e90b249d1914d5cb6f3ade0fb82825bebffb067dc174bed5b70d116fefec"], "sequence": 4294967293, "scriptSig": {"hex": "16001426378b55de3aad46f2ffd8d35f472ebeb4152bcf", "asm": "001426378b55de3aad46f2ffd8d35f472ebeb4152bcf"}, "vout": 0, "txid": "677d3aa3084c04d8e29fcd3318d516b61df18c9d02d9b2e5b56d5fed8613a3fc"}, {"txinwitness": ["30440220492a1d60e196d757641718ffee9dc968d69a27f5771da1a999914ea2242ae39a02200ba3df493b1bd8538b0dea2c3f94b61967d8ccb3a8acdb8edd90621a780da7dc01", "0373b89e3cbf267181c6741c3d603be93bf72f09095f11c9b31a7bdded770d064a"], "sequence": 4294967293, "scriptSig": {"hex": "160014159a06b2571c71b78be62ebc784f34a9fd264693", "asm": "0014159a06b2571c71b78be62ebc784f34a9fd264693"}, "vout": 0, "txid": "ae559d0885e66ecbbedc91205f0fcf64c3e0adfd6c556742406074ff47f4e4fc"}], "txid": "a932435f6819645e1263fbff1deb38675a941524e9706400f0816099786cb681", "blocktime": 1537869901, "version": 2, "confirmations": 11524, "time": 1537869901, "locktime": 542987, "vsize": 3044, "size": 5705}