{"hash": "a9382a5ffaaaf016349a058557a9305ba19699ef2e2100af3984d76a005fc424", "blockhash": "0000000000000000001f76057863aec43deb6fa401d9628bb513d65a8098bfab", "vout": [{"scriptPubKey": {"reqSigs": 1, "hex": "76a914768cac998c8007b60af8281ee81889236f5aa74988ac", "addresses": ["1BoqFrR9tqtucUq7LsJcvSo7ULNQgkDpWb"], "asm": "OP_DUP OP_HASH160 768cac998c8007b60af8281ee81889236f5aa749 OP_EQUALVERIFY OP_CHECKSIG", "type": "pubkeyhash"}, "value": 0.04992919, "n": 0}, {"scriptPubKey": {"reqSigs": 1, "hex": "76a914fcaf019db2aa6596f23869dda2ae881702130b6588ac", "addresses": ["1Q34vzbZiGPVDtEuBC2rr59CxXGEERDHm4"], "asm": "OP_DUP OP_HASH160 fcaf019db2aa6596f23869dda2ae881702130b65 OP_EQUALVERIFY OP_CHECKSIG", "type": "pubkeyhash"}, "value": 0.04994596, "n": 1}], "hex": "01000000016edc650e0ebac121cc56b7bde2c8e66779c876ca4d5756ebd41335db2179fc81000000006946304302202b35d14414a7f405968750c599f77677be6f8d934c096fc836d5c4292c9ff879021f1eb9dd675dda0eb2ac87fcf7d0c10689d40bcfffea028418804a25be30aafa0121033f866e14832236083e8dd3da02a8e1ea751017f460eab500ccf8821067920850ffffffff02972f4c00000000001976a914768cac998c8007b60af8281ee81889236f5aa74988ac24364c00000000001976a914fcaf019db2aa6596f23869dda2ae881702130b6588ac00000000", "vin": [{"sequence": 4294967295, "scriptSig": {"hex": "46304302202b35d14414a7f405968750c599f77677be6f8d934c096fc836d5c4292c9ff879021f1eb9dd675dda0eb2ac87fcf7d0c10689d40bcfffea028418804a25be30aafa0121033f866e14832236083e8dd3da02a8e1ea751017f460eab500ccf8821067920850", "asm": "304302202b35d14414a7f405968750c599f77677be6f8d934c096fc836d5c4292c9ff879021f1eb9dd675dda0eb2ac87fcf7d0c10689d40bcfffea028418804a25be30aafa[ALL] 033f866e14832236083e8dd3da02a8e1ea751017f460eab500ccf8821067920850"}, "vout": 0, "txid": "81fc7921db3513d4eb56574dca76c87967e6c8e2bdb756cc21c1ba0e0e65dc6e"}], "txid": "a9382a5ffaaaf016349a058557a9305ba19699ef2e2100af3984d76a005fc424", "blocktime": 1537873891, "version": 1, "confirmations": 11474, "time": 1537873891, "locktime": 0, "vsize": 224, "size": 224}