{"hash": "a93da0f9b9fc3c9527b3b67aeaa4d6ce74f07d37cbb0de2dd412fbfc8665d6ea", "blockhash": "0000000000000000001f76057863aec43deb6fa401d9628bb513d65a8098bfab", "vout": [{"scriptPubKey": {"reqSigs": 1, "hex": "76a91475069c8b69ca49cdef58ca810581173f252e75eb88ac", "addresses": ["1BfmypXRxhZMjSxBPb6Bd7AgP3fodq8Rv5"], "asm": "OP_DUP OP_HASH160 75069c8b69ca49cdef58ca810581173f252e75eb OP_EQUALVERIFY OP_CHECKSIG", "type": "pubkeyhash"}, "value": 0.00558185, "n": 0}, {"scriptPubKey": {"reqSigs": 1, "hex": "76a914bf7287fb52faa41de34c2ba6fee1d5e27947849588ac", "addresses": ["1JTHGQWoj7ExxCyk5EETBzU83LcxQUR2Aj"], "asm": "OP_DUP OP_HASH160 bf7287fb52faa41de34c2ba6fee1d5e279478495 OP_EQUALVERIFY OP_CHECKSIG", "type": "pubkeyhash"}, "value": 0.130678, "n": 1}], "hex": "01000000012435a0fc44d442f2dec4b63b3dfdc84714265e91beaa46e143d998381f5fb4fc000000006b483045022100eac5593cd5ef53bbd9b4f436bd489e074e5507bef5c893d633d52cfcfa31bee502205e9d613b109cb7abf2c12565e6dca78bd33daea2a9c924f3925a7c379b3ee95e0121031a1d30f3750eb5ec81495cebf78ff5533f1099393fe4b941e55075ed772abdb6ffffffff0269840800000000001976a91475069c8b69ca49cdef58ca810581173f252e75eb88ac1866c700000000001976a914bf7287fb52faa41de34c2ba6fee1d5e27947849588ac00000000", "vin": [{"sequence": 4294967295, "scriptSig": {"hex": "483045022100eac5593cd5ef53bbd9b4f436bd489e074e5507bef5c893d633d52cfcfa31bee502205e9d613b109cb7abf2c12565e6dca78bd33daea2a9c924f3925a7c379b3ee95e0121031a1d30f3750eb5ec81495cebf78ff5533f1099393fe4b941e55075ed772abdb6", "asm": "3045022100eac5593cd5ef53bbd9b4f436bd489e074e5507bef5c893d633d52cfcfa31bee502205e9d613b109cb7abf2c12565e6dca78bd33daea2a9c924f3925a7c379b3ee95e[ALL] 031a1d30f3750eb5ec81495cebf78ff5533f1099393fe4b941e55075ed772abdb6"}, "vout": 0, "txid": "fcb45f1f3898d943e146aabe915e261447c8fd3d3bb6c4def242d444fca03524"}], "txid": "a93da0f9b9fc3c9527b3b67aeaa4d6ce74f07d37cbb0de2dd412fbfc8665d6ea", "blocktime": 1537873891, "version": 1, "confirmations": 11478, "time": 1537873891, "locktime": 0, "vsize": 226, "size": 226}