{"hash": "75d6b59b98e8b18a001de5df7f290af9acf92186a832b422b5cc18b32308eb26", "blockhash": "0000000000000000000e13cef7c366c0283d82e591d1acd082e914b08063cdf1", "vout": [{"scriptPubKey": {"reqSigs": 1, "hex": "a9143401e0f76930a382a9cbfc98bfd48fa9e284917487", "addresses": ["36S1K4M8UAKzCFxa8tGEZd9HooAYsJ6HVC"], "asm": "OP_HASH160 3401e0f76930a382a9cbfc98bfd48fa9e2849174 OP_EQUAL", "type": "scripthash"}, "value": 0.01003601, "n": 0}, {"scriptPubKey": {"reqSigs": 1, "hex": "a914748a3925bdec429363a93c40fea39f0a1fa009c387", "addresses": ["3CKDtiQEaynWF9vxRMt2MUJGrhumGAYcTG"], "asm": "OP_HASH160 748a3925bdec429363a93c40fea39f0a1fa009c3 OP_EQUAL", "type": "scripthash"}, "value": 0.0025106, "n": 1}], "hex": "02000000000102be0d502745a53f89888493ccd50fa8c336d4c0659d27570c1f887286b24f92350100000017160014a328ddcaa34b3768464c67c8313c3f94dd9f6397feffffffd80dffd4703dfd70bac1f261b0a26777ce6d37f5b7fdac3643a15a63f4325f4500000000171600143bb1b8bd3e9319490ec57192536357e125b5d905feffffff0251500f000000000017a9143401e0f76930a382a9cbfc98bfd48fa9e284917487b4d403000000000017a914748a3925bdec429363a93c40fea39f0a1fa009c38702483045022100e7fb0dbd1647ec8c04eec684e358984b2fa4214eb34a56e620be4a8d8f801c4b02201f7195d22e7080a4c7af2d84344e0c21135e6d11cd0883b707076c6b62d6ae7d012102f11a6e9727142751ba737b33553a5a5c0ad82443554d400eefc96f6d5f09e06e024730440220221255d20878f7c3ffd36b6765f18266deef697926bbb82f341b563552b11716022060b181c29d336e56bfc8b7e026b8de089c3672f3dad68f5f033041564069f4e1012103c53cec862b00672a5f6b5053bca9a427e09b8758e435030a58b420da0a29e5710f490800", "vin": [{"txinwitness": ["3045022100e7fb0dbd1647ec8c04eec684e358984b2fa4214eb34a56e620be4a8d8f801c4b02201f7195d22e7080a4c7af2d84344e0c21135e6d11cd0883b707076c6b62d6ae7d01", "02f11a6e9727142751ba737b33553a5a5c0ad82443554d400eefc96f6d5f09e06e"], "sequence": 4294967294, "scriptSig": {"hex": "160014a328ddcaa34b3768464c67c8313c3f94dd9f6397", "asm": "0014a328ddcaa34b3768464c67c8313c3f94dd9f6397"}, "vout": 1, "txid": "35924fb28672881f0c57279d65c0d436c3a80fd5cc938488893fa54527500dbe"}, {"txinwitness": ["30440220221255d20878f7c3ffd36b6765f18266deef697926bbb82f341b563552b11716022060b181c29d336e56bfc8b7e026b8de089c3672f3dad68f5f033041564069f4e101", "03c53cec862b00672a5f6b5053bca9a427e09b8758e435030a58b420da0a29e571"], "sequence": 4294967294, "scriptSig": {"hex": "1600143bb1b8bd3e9319490ec57192536357e125b5d905", "asm": "00143bb1b8bd3e9319490ec57192536357e125b5d905"}, "vout": 0, "txid": "455f32f4635aa14336acfdb7f5376dce7767a2b061f2c1ba70fd3d70d4ff0dd8"}], "txid": "a93e297b2742418ad28293707aedd337c96c6d16e8d1c28a1e6398a539003abb", "blocktime": 1537871767, "version": 2, "confirmations": 11495, "time": 1537871767, "locktime": 542991, "vsize": 257, "size": 419}