{"hash": "a950fdc00f81479563987797ebe6d26f27b9efab99d6e25875f6d6093f847969", "blockhash": "00000000000000000017f5eb5941039fbcee6240d03bc1f2f8e35350df66a1d8", "vout": [{"scriptPubKey": {"reqSigs": 1, "hex": "a9142d12d7605b7dae27f1d450f5bbc648b1ba8838a287", "addresses": ["35oLuHyqHMgoojzMbPTbWxkm3DXPZBXsfN"], "asm": "OP_HASH160 2d12d7605b7dae27f1d450f5bbc648b1ba8838a2 OP_EQUAL", "type": "scripthash"}, "value": 0.0046923, "n": 0}, {"scriptPubKey": {"reqSigs": 1, "hex": "76a91483bc4364040863f7422705ab36b87cce56183bea88ac", "addresses": ["1D1Z3taojTrrGhpSPqpUiKay8JmerHeWUR"], "asm": "OP_DUP OP_HASH160 83bc4364040863f7422705ab36b87cce56183bea OP_EQUALVERIFY OP_CHECKSIG", "type": "pubkeyhash"}, "value": 0.04104476, "n": 1}], "hex": "010000000149131c36bbd21a5625af000327df3add3aea4480a7d5926b284828e86b5de0cb010000006a47304402205e5385ffb22092f2d8b62fabac64b0906f4d231d502364c24f49fbf308792cee022051a750fa42da556a52f19ea97fb259de4be43ae43cebbc39bb2bc9556b66d28b0121033220b2693e20ed9bfc8a4f95d1f9499ea3dd26cb6f82d3c0be54aa29de41cd92ffffffff02ee2807000000000017a9142d12d7605b7dae27f1d450f5bbc648b1ba8838a2871ca13e00000000001976a91483bc4364040863f7422705ab36b87cce56183bea88ac00000000", "vin": [{"sequence": 4294967295, "scriptSig": {"hex": "47304402205e5385ffb22092f2d8b62fabac64b0906f4d231d502364c24f49fbf308792cee022051a750fa42da556a52f19ea97fb259de4be43ae43cebbc39bb2bc9556b66d28b0121033220b2693e20ed9bfc8a4f95d1f9499ea3dd26cb6f82d3c0be54aa29de41cd92", "asm": "304402205e5385ffb22092f2d8b62fabac64b0906f4d231d502364c24f49fbf308792cee022051a750fa42da556a52f19ea97fb259de4be43ae43cebbc39bb2bc9556b66d28b[ALL] 033220b2693e20ed9bfc8a4f95d1f9499ea3dd26cb6f82d3c0be54aa29de41cd92"}, "vout": 1, "txid": "cbe05d6be82848286b92d5a78044ea3add3adf270300af25561ad2bb361c1349"}], "txid": "a950fdc00f81479563987797ebe6d26f27b9efab99d6e25875f6d6093f847969", "blocktime": 1537874412, "version": 1, "confirmations": 11467, "time": 1537874412, "locktime": 0, "vsize": 223, "size": 223}