{"hash": "a951e9b5f29acc24bb7e094c2127e80a180160d823b2c49fee099aa714506680", "blockhash": "00000000000000000018f53835495a110e01622372bf6ae95dc86f2b0ab887b0", "vout": [{"scriptPubKey": {"reqSigs": 1, "hex": "76a914a520c86a08366941cd90d22e11ac1c7eefa2db3788ac", "addresses": ["1G47mSr3oANXMafVrR8UC4pzV7FEAzo3r9"], "asm": "OP_DUP OP_HASH160 a520c86a08366941cd90d22e11ac1c7eefa2db37 OP_EQUALVERIFY OP_CHECKSIG", "type": "pubkeyhash"}, "value": 1.03740308, "n": 0}, {"scriptPubKey": {"reqSigs": 1, "hex": "a914a1cb40cac72d17923d1013a85fb815ee8f8a4d1b87", "addresses": ["3GSWChcTfWJ8bZXJvno7meRcfqSeSUVoHF"], "asm": "OP_HASH160 a1cb40cac72d17923d1013a85fb815ee8f8a4d1b OP_EQUAL", "type": "scripthash"}, "value": 0.04209999, "n": 1}], "hex": "01000000014a0097f6b7a803600c65d34cefcdaefb128c48d4a2f4192de779539b85adb83d000000006b4830450221009f4e7af075c78ad47c81d66f737d6f5bb38b1196ac20fba3dfb6bebe0173c9f702207e5acdb75f7db9e471084669f46df5c5cb58a2d1e45f7c90c5dce3157ab4e460012103f3f44c9e80e2cedc1a2909631a3adea8866ee32187f74d0912387359b0ff36a2ffffffff0294f32e06000000001976a914a520c86a08366941cd90d22e11ac1c7eefa2db3788ac4f3d40000000000017a914a1cb40cac72d17923d1013a85fb815ee8f8a4d1b8700000000", "vin": [{"sequence": 4294967295, "scriptSig": {"hex": "4830450221009f4e7af075c78ad47c81d66f737d6f5bb38b1196ac20fba3dfb6bebe0173c9f702207e5acdb75f7db9e471084669f46df5c5cb58a2d1e45f7c90c5dce3157ab4e460012103f3f44c9e80e2cedc1a2909631a3adea8866ee32187f74d0912387359b0ff36a2", "asm": "30450221009f4e7af075c78ad47c81d66f737d6f5bb38b1196ac20fba3dfb6bebe0173c9f702207e5acdb75f7db9e471084669f46df5c5cb58a2d1e45f7c90c5dce3157ab4e460[ALL] 03f3f44c9e80e2cedc1a2909631a3adea8866ee32187f74d0912387359b0ff36a2"}, "vout": 0, "txid": "3db8ad859b5379e72d19f4a2d4488c12fbaecdef4cd3650c6003a8b7f697004a"}], "txid": "a951e9b5f29acc24bb7e094c2127e80a180160d823b2c49fee099aa714506680", "blocktime": 1537870928, "version": 1, "confirmations": 11512, "time": 1537870928, "locktime": 0, "vsize": 224, "size": 224}