{"hash": "a9588c334f8d0bed138f8488ac6af8a0c3acbd03c045ea6bbcc172cc0f2c22cb", "blockhash": "0000000000000000001cda96e906b7601b7a6fb1a3b62bca570a9e5d8f4b3de1", "vout": [{"scriptPubKey": {"reqSigs": 1, "hex": "76a914c44f11fd4d262f5421ddf16e589715cbb684680488ac", "addresses": ["1JtzAVrgj8mSFb8ABaJbRebnPwvta9vq5C"], "asm": "OP_DUP OP_HASH160 c44f11fd4d262f5421ddf16e589715cbb6846804 OP_EQUALVERIFY OP_CHECKSIG", "type": "pubkeyhash"}, "value": 6.176e-05, "n": 0}, {"scriptPubKey": {"reqSigs": 1, "hex": "76a9140d5d98d6e6492827d48d6ebe3888e7061b47713288ac", "addresses": ["12DfujJfCAYk5zpAwFosyL9MWjkWvYJo5P"], "asm": "OP_DUP OP_HASH160 0d5d98d6e6492827d48d6ebe3888e7061b477132 OP_EQUALVERIFY OP_CHECKSIG", "type": "pubkeyhash"}, "value": 0.02357441, "n": 1}], "hex": "01000000035dae6ea3fb4f3e8e91eefa0426f4b69cf33ace6d60ce8e801d0654d5e2591c58000000006a4730440220523cb671d3345cd8a928a1c6268bb30299dc37230a7403373c8d8c3e7e29049702204a3776b4858ae5349e20ce3a5f233179cdc12de158d98799295d6d6649905365012102af9402ed36632a0ae049dc96613e0f44c288e10f3c5a27aebcb853c438e290dbffffffff289faa16214ae522b63c2486b6c5070a93bd6942925b7257fbe41531dbbdf5cf000000006b483045022100eb52e27ed2ace6f8b0f8e6575e68ae8f380b8f37ce294f96a01b168bd6b2b32002200ba77d7a669469b5716da4a471955d471899e16c53c27fe2cbe813d35d08847b0121035c576a957903ceb1b7e503c4f8cc3ab47847c33ddbd4a0d36b50b15242fa2ac0ffffffff0a874fae3d649ba1e51217ae9728410ec483c6bfb0ed49d1586ddede1f8ac7f8000000006b483045022100fe5ee6711d45bcf96c2ff6f6b3143c62df56bbf5f6b91866663ad4adb603b81b022049219d90cd7263c811b9949603e33e6a325032c5cbe0a059e2af432f26a08a69012103d92b00a96a1f7387b07b9fc730aff34bfb8cdff56f9b3be19289df0c2b99bb83ffffffff0220180000000000001976a914c44f11fd4d262f5421ddf16e589715cbb684680488acc1f82300000000001976a9140d5d98d6e6492827d48d6ebe3888e7061b47713288ac00000000", "vin": [{"sequence": 4294967295, "scriptSig": {"hex": "4730440220523cb671d3345cd8a928a1c6268bb30299dc37230a7403373c8d8c3e7e29049702204a3776b4858ae5349e20ce3a5f233179cdc12de158d98799295d6d6649905365012102af9402ed36632a0ae049dc96613e0f44c288e10f3c5a27aebcb853c438e290db", "asm": "30440220523cb671d3345cd8a928a1c6268bb30299dc37230a7403373c8d8c3e7e29049702204a3776b4858ae5349e20ce3a5f233179cdc12de158d98799295d6d6649905365[ALL] 02af9402ed36632a0ae049dc96613e0f44c288e10f3c5a27aebcb853c438e290db"}, "vout": 0, "txid": "581c59e2d554061d808ece606dce3af39cb6f42604faee918e3e4ffba36eae5d"}, {"sequence": 4294967295, "scriptSig": {"hex": "483045022100eb52e27ed2ace6f8b0f8e6575e68ae8f380b8f37ce294f96a01b168bd6b2b32002200ba77d7a669469b5716da4a471955d471899e16c53c27fe2cbe813d35d08847b0121035c576a957903ceb1b7e503c4f8cc3ab47847c33ddbd4a0d36b50b15242fa2ac0", "asm": "3045022100eb52e27ed2ace6f8b0f8e6575e68ae8f380b8f37ce294f96a01b168bd6b2b32002200ba77d7a669469b5716da4a471955d471899e16c53c27fe2cbe813d35d08847b[ALL] 035c576a957903ceb1b7e503c4f8cc3ab47847c33ddbd4a0d36b50b15242fa2ac0"}, "vout": 0, "txid": "cff5bddb3115e4fb57725b924269bd930a07c5b686243cb622e54a2116aa9f28"}, {"sequence": 4294967295, "scriptSig": {"hex": "483045022100fe5ee6711d45bcf96c2ff6f6b3143c62df56bbf5f6b91866663ad4adb603b81b022049219d90cd7263c811b9949603e33e6a325032c5cbe0a059e2af432f26a08a69012103d92b00a96a1f7387b07b9fc730aff34bfb8cdff56f9b3be19289df0c2b99bb83", "asm": "3045022100fe5ee6711d45bcf96c2ff6f6b3143c62df56bbf5f6b91866663ad4adb603b81b022049219d90cd7263c811b9949603e33e6a325032c5cbe0a059e2af432f26a08a69[ALL] 03d92b00a96a1f7387b07b9fc730aff34bfb8cdff56f9b3be19289df0c2b99bb83"}, "vout": 0, "txid": "f8c78a1fdede6d58d149edb0bfc683c40e412897ae1712e5a19b643dae4f870a"}], "txid": "a9588c334f8d0bed138f8488ac6af8a0c3acbd03c045ea6bbcc172cc0f2c22cb", "blocktime": 1537873282, "version": 1, "confirmations": 11484, "time": 1537873282, "locktime": 0, "vsize": 521, "size": 521}