{"hash": "a958f56611685dae150b8ac7bfee5f0c393eb270689888576be01d4e4f3f23bb", "blockhash": "00000000000000000017f5eb5941039fbcee6240d03bc1f2f8e35350df66a1d8", "vout": [{"scriptPubKey": {"type": "nulldata", "hex": "6a337b42f1465fe79676262ca1f376dbec26f96ba9f6f77f6109f37d1c486e0ac020b832ff309ada3b05d51c7a58361c4338f3ca5a", "asm": "OP_RETURN 7b42f1465fe79676262ca1f376dbec26f96ba9f6f77f6109f37d1c486e0ac020b832ff309ada3b05d51c7a58361c4338f3ca5a"}, "value": 0.0, "n": 0}, {"scriptPubKey": {"reqSigs": 1, "hex": "76a914499010a96f29b1b6c6db4e0487a98f738fb96a9e88ac", "addresses": ["17hxupddtL5z3RusNNgUUmK1EQiCXUhe6z"], "asm": "OP_DUP OP_HASH160 499010a96f29b1b6c6db4e0487a98f738fb96a9e OP_EQUALVERIFY OP_CHECKSIG", "type": "pubkeyhash"}, "value": 0.0436441, "n": 1}], "hex": "01000000017fabd42a04dddf68048b57c1599c22e1c85a49db962fd1b3ee5b80feeae26aee010000006a4730440220367c8b9ecf10cd5e5c18fd8093415368180083394f84d639053dd4ec8d02b40202203e2eef5c06471a3ada0a000f121db748c731225e8985730b1f53db2b7abb3c420121034633db872615859d5a59020288d4eb58f53d7006fd14289695bfa44608b55fb1ffffffff020000000000000000356a337b42f1465fe79676262ca1f376dbec26f96ba9f6f77f6109f37d1c486e0ac020b832ff309ada3b05d51c7a58361c4338f3ca5a7a984200000000001976a914499010a96f29b1b6c6db4e0487a98f738fb96a9e88ac00000000", "vin": [{"sequence": 4294967295, "scriptSig": {"hex": "4730440220367c8b9ecf10cd5e5c18fd8093415368180083394f84d639053dd4ec8d02b40202203e2eef5c06471a3ada0a000f121db748c731225e8985730b1f53db2b7abb3c420121034633db872615859d5a59020288d4eb58f53d7006fd14289695bfa44608b55fb1", "asm": "30440220367c8b9ecf10cd5e5c18fd8093415368180083394f84d639053dd4ec8d02b40202203e2eef5c06471a3ada0a000f121db748c731225e8985730b1f53db2b7abb3c42[ALL] 034633db872615859d5a59020288d4eb58f53d7006fd14289695bfa44608b55fb1"}, "vout": 1, "txid": "ee6ae2eafe805beeb3d12f96db495ac8e1229c59c1578b0468dfdd042ad4ab7f"}], "txid": "a958f56611685dae150b8ac7bfee5f0c393eb270689888576be01d4e4f3f23bb", "blocktime": 1537874412, "version": 1, "confirmations": 11467, "time": 1537874412, "locktime": 0, "vsize": 253, "size": 253}