{"hash": "a95bab8583830105e2153a5bf829a32461cd46c4cb0c5236f3f80f686c745033", "blockhash": "00000000000000000024a2167bbff67b0be802c0b01cdd79e6331c2be6459f87", "vout": [{"scriptPubKey": {"reqSigs": 1, "hex": "a9141e683ae3cf824696c79b52675de0c77456319b0e87", "addresses": ["34To4L23395rnE2v9zKaB2uvwpsPgU78BN"], "asm": "OP_HASH160 1e683ae3cf824696c79b52675de0c77456319b0e OP_EQUAL", "type": "scripthash"}, "value": 0.02633793, "n": 0}, {"scriptPubKey": {"reqSigs": 1, "hex": "76a914f74fc2025d30d02cf83c3d15e63ac76be379b87888ac", "addresses": ["1PYfT4Ad69x2iFdH3tzwpP95AAfKDfWRKt"], "asm": "OP_DUP OP_HASH160 f74fc2025d30d02cf83c3d15e63ac76be379b878 OP_EQUALVERIFY OP_CHECKSIG", "type": "pubkeyhash"}, "value": 0.06091892, "n": 1}], "hex": "0100000001f0461d42bb977d51f785f4d3bdd80988ddd29659ead32ee330329d72e4d412fa010000006b483045022100c00cfed906987bf016a280dd1651fa9839fae99afebf3e81afd74de4f8434a6b0220674afa870793ec8e306598cc68e6d8bcfcaa0a9357f236ed0739bf3f75fa3dab0121037ba579342243fe8070e8951779ef7713d298ebc534d01a40950c133be88d05aaffffffff02413028000000000017a9141e683ae3cf824696c79b52675de0c77456319b0e8774f45c00000000001976a914f74fc2025d30d02cf83c3d15e63ac76be379b87888ac00000000", "vin": [{"sequence": 4294967295, "scriptSig": {"hex": "483045022100c00cfed906987bf016a280dd1651fa9839fae99afebf3e81afd74de4f8434a6b0220674afa870793ec8e306598cc68e6d8bcfcaa0a9357f236ed0739bf3f75fa3dab0121037ba579342243fe8070e8951779ef7713d298ebc534d01a40950c133be88d05aa", "asm": "3045022100c00cfed906987bf016a280dd1651fa9839fae99afebf3e81afd74de4f8434a6b0220674afa870793ec8e306598cc68e6d8bcfcaa0a9357f236ed0739bf3f75fa3dab[ALL] 037ba579342243fe8070e8951779ef7713d298ebc534d01a40950c133be88d05aa"}, "vout": 1, "txid": "fa12d4e4729d3230e32ed3ea5996d2dd8809d8bdd3f485f7517d97bb421d46f0"}], "txid": "a95bab8583830105e2153a5bf829a32461cd46c4cb0c5236f3f80f686c745033", "blocktime": 1537870564, "version": 1, "confirmations": 11515, "time": 1537870564, "locktime": 0, "vsize": 224, "size": 224}