{"hash": "c958b20be276bd43849c8e56f3bc86e904668b3f4dccb89eb163b299d9043614", "blockhash": "0000000000000000001f76057863aec43deb6fa401d9628bb513d65a8098bfab", "vout": [{"scriptPubKey": {"reqSigs": 1, "hex": "a91475bc512e0e1274fe648a598079e9ff2899ccf46487", "addresses": ["3CRYaVNiseDP9emC8adXRVeaJvjWTpJHUz"], "asm": "OP_HASH160 75bc512e0e1274fe648a598079e9ff2899ccf464 OP_EQUAL", "type": "scripthash"}, "value": 0.01044299, "n": 0}, {"scriptPubKey": {"reqSigs": 1, "hex": "76a914f420f5161af42ad0c7d31d8c9b750fd3e80d8b7788ac", "addresses": ["1PFqMj31Lh7EbbkWx1jXXfJ3TvSRSmRRiD"], "asm": "OP_DUP OP_HASH160 f420f5161af42ad0c7d31d8c9b750fd3e80d8b77 OP_EQUALVERIFY OP_CHECKSIG", "type": "pubkeyhash"}, "value": 0.0016836, "n": 1}], "hex": "02000000000102a5ebdbd3d98228774007ff18c5e3bbb108122c4340b92b8bea3fad0c4b670cec01000000171600142e132f8a6f6666d603e15731dc4938dcb9284f26fefffffffe8742ecab48b917172612ce666f1a4f91344fd5beb1f22351c23de88a6b1e3e00000000171600143324e0d9e0210199fd2881f8047d2730d07458b7feffffff024bef0f000000000017a91475bc512e0e1274fe648a598079e9ff2899ccf46487a8910200000000001976a914f420f5161af42ad0c7d31d8c9b750fd3e80d8b7788ac02473044022037ee7c59893b5e99fd42be3ea8b27433f364ad3499993136ac32bab4f86efd37022003b1dd3a86d0dddf5d131a8fdf3acac6fb82e836745bcc6099085fde1c965a090121023a748150fa9ce7ee75a638203051e15adc883dfc4ac66cbe783055c82e6e9885024830450221008b75e3c714434c9fbae9ca34ab8122cdcc0b9dccfe0a9194644587959ca7187702205e78a7d041ad9e2c98a289915ea5ac4e0c9ac010518e9731cf0a8f65ece64527012103371e432a09f06a43f359e9acbb655f1728b579599d480cdb42d8dfef6048046514490800", "vin": [{"txinwitness": ["3044022037ee7c59893b5e99fd42be3ea8b27433f364ad3499993136ac32bab4f86efd37022003b1dd3a86d0dddf5d131a8fdf3acac6fb82e836745bcc6099085fde1c965a0901", "023a748150fa9ce7ee75a638203051e15adc883dfc4ac66cbe783055c82e6e9885"], "sequence": 4294967294, "scriptSig": {"hex": "1600142e132f8a6f6666d603e15731dc4938dcb9284f26", "asm": "00142e132f8a6f6666d603e15731dc4938dcb9284f26"}, "vout": 1, "txid": "ec0c674b0cad3fea8b2bb940432c1208b1bbe3c518ff0740772882d9d3dbeba5"}, {"txinwitness": ["30450221008b75e3c714434c9fbae9ca34ab8122cdcc0b9dccfe0a9194644587959ca7187702205e78a7d041ad9e2c98a289915ea5ac4e0c9ac010518e9731cf0a8f65ece6452701", "03371e432a09f06a43f359e9acbb655f1728b579599d480cdb42d8dfef60480465"], "sequence": 4294967294, "scriptSig": {"hex": "1600143324e0d9e0210199fd2881f8047d2730d07458b7", "asm": "00143324e0d9e0210199fd2881f8047d2730d07458b7"}, "vout": 0, "txid": "3e1e6b8ae83dc25123f2b1bed54f34914f1a6f66ce12261717b948abec4287fe"}], "txid": "a961b73eb64e6ac6e88f5e7beb5030619595837774da3cff3bf8442c0cc0ef4a", "blocktime": 1537873891, "version": 2, "confirmations": 11478, "time": 1537873891, "locktime": 542996, "vsize": 259, "size": 421}