{"hash": "a96ecfb374e2f54ca12bdb29829cc087a5d40003fc066afb0bd34fb66557e213", "blockhash": "00000000000000000017f5eb5941039fbcee6240d03bc1f2f8e35350df66a1d8", "vout": [{"scriptPubKey": {"reqSigs": 1, "hex": "76a914f9c7ca616230c04736083d84c1af8e277555b2b388ac", "addresses": ["1PmibTUUcUEcWSzsc2mx2RsTj6VRTDPTLM"], "asm": "OP_DUP OP_HASH160 f9c7ca616230c04736083d84c1af8e277555b2b3 OP_EQUALVERIFY OP_CHECKSIG", "type": "pubkeyhash"}, "value": 0.00051577, "n": 0}, {"scriptPubKey": {"reqSigs": 1, "hex": "76a9149249d6b7d95b4827e65857adaa2b5c395628d41688ac", "addresses": ["1ELW7QxStwQDAHpEQEBi5B5eG8vpDwhwh8"], "asm": "OP_DUP OP_HASH160 9249d6b7d95b4827e65857adaa2b5c395628d416 OP_EQUALVERIFY OP_CHECKSIG", "type": "pubkeyhash"}, "value": 0.183, "n": 1}], "hex": "01000000027404cb0b59e016449d0accbc0f875c947296b95b356f42fc002c9ecbaee7596e050000006a47304402204bd6648de3987610c419dfb982120550abaad82d94c9d9c92d8bad52e11e26af02205e403e043d2c88d540b8acfc2ab8183e04fe309cde02882449dda57a3b8e4fe70121029d7198cde0f12f14e447afecac09b8c260610a604800e15bac9208e08fbf5268ffffffff77e3160c1293485a2fad4e886723a8e5e47b2de02470baa703d3474e29ac4b7a000000006a47304402205fc25774b9b1039ff5dfc00f9f614444deb29feaebb0c6ad1b266cc0769f0e560220296dfaaf71a5fde7aa3d7d7393fbebcf8f9bceafd016ef35a2a5cd97e04079740121035a27081fdec0e38827946cb7b4b04724e0be320a8218f417757113490df74159ffffffff0279c90000000000001976a914f9c7ca616230c04736083d84c1af8e277555b2b388ac603c1701000000001976a9149249d6b7d95b4827e65857adaa2b5c395628d41688ac00000000", "vin": [{"sequence": 4294967295, "scriptSig": {"hex": "47304402204bd6648de3987610c419dfb982120550abaad82d94c9d9c92d8bad52e11e26af02205e403e043d2c88d540b8acfc2ab8183e04fe309cde02882449dda57a3b8e4fe70121029d7198cde0f12f14e447afecac09b8c260610a604800e15bac9208e08fbf5268", "asm": "304402204bd6648de3987610c419dfb982120550abaad82d94c9d9c92d8bad52e11e26af02205e403e043d2c88d540b8acfc2ab8183e04fe309cde02882449dda57a3b8e4fe7[ALL] 029d7198cde0f12f14e447afecac09b8c260610a604800e15bac9208e08fbf5268"}, "vout": 5, "txid": "6e59e7aecb9e2c00fc426f355bb99672945c870fbccc0a9d4416e0590bcb0474"}, {"sequence": 4294967295, "scriptSig": {"hex": "47304402205fc25774b9b1039ff5dfc00f9f614444deb29feaebb0c6ad1b266cc0769f0e560220296dfaaf71a5fde7aa3d7d7393fbebcf8f9bceafd016ef35a2a5cd97e04079740121035a27081fdec0e38827946cb7b4b04724e0be320a8218f417757113490df74159", "asm": "304402205fc25774b9b1039ff5dfc00f9f614444deb29feaebb0c6ad1b266cc0769f0e560220296dfaaf71a5fde7aa3d7d7393fbebcf8f9bceafd016ef35a2a5cd97e0407974[ALL] 035a27081fdec0e38827946cb7b4b04724e0be320a8218f417757113490df74159"}, "vout": 0, "txid": "7a4bac294e47d303a7ba7024e02d7be4e5a82367884ead2f5a4893120c16e377"}], "txid": "a96ecfb374e2f54ca12bdb29829cc087a5d40003fc066afb0bd34fb66557e213", "blocktime": 1537874412, "version": 1, "confirmations": 11468, "time": 1537874412, "locktime": 0, "vsize": 372, "size": 372}