{"hash": "a97a60d45fdc6fc2bb9db9c19ca771cab66377775266df045b9a20f6adcf5552", "blockhash": "00000000000000000024a2167bbff67b0be802c0b01cdd79e6331c2be6459f87", "vout": [{"scriptPubKey": {"reqSigs": 1, "hex": "76a9141508276fd4193e83f5fce7a810a40e8f983c161988ac", "addresses": ["12vCxak5xc1t6T275xbm6AJ4xsZCxkTSc5"], "asm": "OP_DUP OP_HASH160 1508276fd4193e83f5fce7a810a40e8f983c1619 OP_EQUALVERIFY OP_CHECKSIG", "type": "pubkeyhash"}, "value": 2.51412431, "n": 0}, {"scriptPubKey": {"type": "nulldata", "hex": "6a146f6d6e69000000000000001f0000008bb2c97000", "asm": "OP_RETURN 6f6d6e69000000000000001f0000008bb2c97000"}, "value": 0.0, "n": 1}, {"scriptPubKey": {"reqSigs": 1, "hex": "76a9141508276fd4193e83f5fce7a810a40e8f983c161988ac", "addresses": ["12vCxak5xc1t6T275xbm6AJ4xsZCxkTSc5"], "asm": "OP_DUP OP_HASH160 1508276fd4193e83f5fce7a810a40e8f983c1619 OP_EQUALVERIFY OP_CHECKSIG", "type": "pubkeyhash"}, "value": 5.46e-06, "n": 2}], "hex": "0100000002150e57b2a616bceb3135c51c3ebee5451690a006c67f09dae0a2d3d3d151465e010000006b483045022100ce2b8a72a5c776b8322128616579d2c5872a7c94e112fe7b047f78da86c3a6c002206d5f6c84b6ce2bb15f3330b123c488934f50bd26e66bc912e12858e92f435ae20121022af47cc2c496589c33800eb42af74eeb79069d188b9ffee61c85a8f2ca5f409dffffffff62471af6b4d62c2005fd4db9f3f6a3bf8c54cd6204fa598bfd9abf64c47b4289000000006a4730440220787e1ccfed18c62b02327c387825f8f0db8089b5b4e36e8586210cec2d4ff13a022004a553b5964cd474717356958b8bc2823f0ab3825872f12b9f68b3028becde840121035bb5ec1330953265719fecb2345ebd0cd02272efa8a3a940a8a28021b37703eeffffffff03cf3ffc0e000000001976a9141508276fd4193e83f5fce7a810a40e8f983c161988ac0000000000000000166a146f6d6e69000000000000001f0000008bb2c9700022020000000000001976a9141508276fd4193e83f5fce7a810a40e8f983c161988ac00000000", "vin": [{"sequence": 4294967295, "scriptSig": {"hex": "483045022100ce2b8a72a5c776b8322128616579d2c5872a7c94e112fe7b047f78da86c3a6c002206d5f6c84b6ce2bb15f3330b123c488934f50bd26e66bc912e12858e92f435ae20121022af47cc2c496589c33800eb42af74eeb79069d188b9ffee61c85a8f2ca5f409d", "asm": "3045022100ce2b8a72a5c776b8322128616579d2c5872a7c94e112fe7b047f78da86c3a6c002206d5f6c84b6ce2bb15f3330b123c488934f50bd26e66bc912e12858e92f435ae2[ALL] 022af47cc2c496589c33800eb42af74eeb79069d188b9ffee61c85a8f2ca5f409d"}, "vout": 1, "txid": "5e4651d1d3d3a2e0da097fc606a0901645e5be3e1cc53531ebbc16a6b2570e15"}, {"sequence": 4294967295, "scriptSig": {"hex": "4730440220787e1ccfed18c62b02327c387825f8f0db8089b5b4e36e8586210cec2d4ff13a022004a553b5964cd474717356958b8bc2823f0ab3825872f12b9f68b3028becde840121035bb5ec1330953265719fecb2345ebd0cd02272efa8a3a940a8a28021b37703ee", "asm": "30440220787e1ccfed18c62b02327c387825f8f0db8089b5b4e36e8586210cec2d4ff13a022004a553b5964cd474717356958b8bc2823f0ab3825872f12b9f68b3028becde84[ALL] 035bb5ec1330953265719fecb2345ebd0cd02272efa8a3a940a8a28021b37703ee"}, "vout": 0, "txid": "89427bc464bf9afd8b59fa0462cd548cbfa3f6f3b94dfd05202cd6b4f61a4762"}], "txid": "a97a60d45fdc6fc2bb9db9c19ca771cab66377775266df045b9a20f6adcf5552", "blocktime": 1537870564, "version": 1, "confirmations": 11515, "time": 1537870564, "locktime": 0, "vsize": 404, "size": 404}