{"hash": "a98377232d34955e199302f9b062df6ad1f3abe4cad991f6f17cbb74efc5b79f", "blockhash": "0000000000000000001f76057863aec43deb6fa401d9628bb513d65a8098bfab", "vout": [{"scriptPubKey": {"reqSigs": 1, "hex": "a9140348f487212607b4dd245a721429bb0bdcae4bcc87", "addresses": ["31zPM8khk1d5XirvotHJC1xkfcGfWpzFnc"], "asm": "OP_HASH160 0348f487212607b4dd245a721429bb0bdcae4bcc OP_EQUAL", "type": "scripthash"}, "value": 0.03357684, "n": 0}, {"scriptPubKey": {"reqSigs": 1, "hex": "a91462ae5bf43b6c89c4a72504a6027bb369ecf38a4c87", "addresses": ["3Ago22qJvPYnSVPZtU4K4WtSc1ie3VJS7P"], "asm": "OP_HASH160 62ae5bf43b6c89c4a72504a6027bb369ecf38a4c OP_EQUAL", "type": "scripthash"}, "value": 0.01538408, "n": 1}, {"scriptPubKey": {"reqSigs": 1, "hex": "76a91408b22bada184681f1253439c17432e851f8157e288ac", "addresses": ["1nyr3gV1mHNGfDQ8eWsUibx1GG9mQgk4P"], "asm": "OP_DUP OP_HASH160 08b22bada184681f1253439c17432e851f8157e2 OP_EQUALVERIFY OP_CHECKSIG", "type": "pubkeyhash"}, "value": 0.00275092, "n": 2}], "hex": "010000000160ea3dbc24e75c233d3cb013746c8f08b14af1be231ec55f69a7fd61c9733a8101000000db00483045022100e371b004e518e2d9867eb30d711d9f6089e09754414c0ddcd59403b3d0b001940220359a9a4ae02831f7ba35ce66cd35bd39e3a23d0e5cae78ba969b070a5907faa801483045022100809eb354479e69aa418ab980bad32d3eb302fdc50ab38250d6095fd75a207a1802203baa1b07e01574bd47ac77be1db00a64d764c3f002d9b8daaf9905e6350e9d6a0147522102907a54bed8ad74b3f35638c60114ca240a308cb986f3f2f306178869a8880b612103b3d47c3107f638736522bdaf6876b61e24749852b869860025d2d48c9f33e78652aeffffffff03f43b33000000000017a9140348f487212607b4dd245a721429bb0bdcae4bcc87687917000000000017a91462ae5bf43b6c89c4a72504a6027bb369ecf38a4c8794320400000000001976a91408b22bada184681f1253439c17432e851f8157e288ac00000000", "vin": [{"sequence": 4294967295, "scriptSig": {"hex": "00483045022100e371b004e518e2d9867eb30d711d9f6089e09754414c0ddcd59403b3d0b001940220359a9a4ae02831f7ba35ce66cd35bd39e3a23d0e5cae78ba969b070a5907faa801483045022100809eb354479e69aa418ab980bad32d3eb302fdc50ab38250d6095fd75a207a1802203baa1b07e01574bd47ac77be1db00a64d764c3f002d9b8daaf9905e6350e9d6a0147522102907a54bed8ad74b3f35638c60114ca240a308cb986f3f2f306178869a8880b612103b3d47c3107f638736522bdaf6876b61e24749852b869860025d2d48c9f33e78652ae", "asm": "0 3045022100e371b004e518e2d9867eb30d711d9f6089e09754414c0ddcd59403b3d0b001940220359a9a4ae02831f7ba35ce66cd35bd39e3a23d0e5cae78ba969b070a5907faa8[ALL] 3045022100809eb354479e69aa418ab980bad32d3eb302fdc50ab38250d6095fd75a207a1802203baa1b07e01574bd47ac77be1db00a64d764c3f002d9b8daaf9905e6350e9d6a[ALL] 522102907a54bed8ad74b3f35638c60114ca240a308cb986f3f2f306178869a8880b612103b3d47c3107f638736522bdaf6876b61e24749852b869860025d2d48c9f33e78652ae"}, "vout": 1, "txid": "813a73c961fda7695fc51e23bef14ab1088f6c7413b03c3d235ce724bc3dea60"}], "txid": "a98377232d34955e199302f9b062df6ad1f3abe4cad991f6f17cbb74efc5b79f", "blocktime": 1537873891, "version": 1, "confirmations": 11478, "time": 1537873891, "locktime": 0, "vsize": 368, "size": 368}