{"hash": "a98341a2f1052a94021fdc8ce5dcc8186878de52a048ccfb6e47fa1c3700ab95", "blockhash": "00000000000000000017f5eb5941039fbcee6240d03bc1f2f8e35350df66a1d8", "vout": [{"scriptPubKey": {"reqSigs": 1, "hex": "a91452d09a068bb60503c6c63adaca2ba11141fac71e87", "addresses": ["39EuEAtzjFmWbcRLW4TXG2qZ1B9nQLcga6"], "asm": "OP_HASH160 52d09a068bb60503c6c63adaca2ba11141fac71e OP_EQUAL", "type": "scripthash"}, "value": 0.00014582, "n": 0}, {"scriptPubKey": {"reqSigs": 1, "hex": "a914d4de8a7844471c0849049fede301d4af634c5e3087", "addresses": ["3M6ZmdAtBJ8o4vsHoyzYGq4oDt8GTizHJW"], "asm": "OP_HASH160 d4de8a7844471c0849049fede301d4af634c5e30 OP_EQUAL", "type": "scripthash"}, "value": 0.00972115, "n": 1}, {"scriptPubKey": {"reqSigs": 1, "hex": "76a9144506b0f94a580c6cdc8ee48283a2beac5cffb34a88ac", "addresses": ["17HyeA4bmgxgR5TxCzCNFykKr3fUWKtrfb"], "asm": "OP_DUP OP_HASH160 4506b0f94a580c6cdc8ee48283a2beac5cffb34a OP_EQUALVERIFY OP_CHECKSIG", "type": "pubkeyhash"}, "value": 0.02515733, "n": 2}], "hex": "0100000001e6fea1ec2f28d94734e517ad4a8dd6c3b4121775db355b2ed6127ee99e9bbaa8000000006a4730440220152ac187e3f6185c404c14c255345f809c03dda5c2643da4de1aabf949e23c43022032ff37d8775ffb48f4948bbb87f4e82b5076118346f2382b7b09c6e1c9c36dc601210281de117736aa68eb1cc6653b6a82c9ae67c6924dd4e7762670bf4dc3cf0459f7ffffffff03f63800000000000017a91452d09a068bb60503c6c63adaca2ba11141fac71e8753d50e000000000017a914d4de8a7844471c0849049fede301d4af634c5e308715632600000000001976a9144506b0f94a580c6cdc8ee48283a2beac5cffb34a88ac00000000", "vin": [{"sequence": 4294967295, "scriptSig": {"hex": "4730440220152ac187e3f6185c404c14c255345f809c03dda5c2643da4de1aabf949e23c43022032ff37d8775ffb48f4948bbb87f4e82b5076118346f2382b7b09c6e1c9c36dc601210281de117736aa68eb1cc6653b6a82c9ae67c6924dd4e7762670bf4dc3cf0459f7", "asm": "30440220152ac187e3f6185c404c14c255345f809c03dda5c2643da4de1aabf949e23c43022032ff37d8775ffb48f4948bbb87f4e82b5076118346f2382b7b09c6e1c9c36dc6[ALL] 0281de117736aa68eb1cc6653b6a82c9ae67c6924dd4e7762670bf4dc3cf0459f7"}, "vout": 0, "txid": "a8ba9b9ee97e12d62e5b35db751712b4c3d68d4aad17e53447d9282feca1fee6"}], "txid": "a98341a2f1052a94021fdc8ce5dcc8186878de52a048ccfb6e47fa1c3700ab95", "blocktime": 1537874412, "version": 1, "confirmations": 11467, "time": 1537874412, "locktime": 0, "vsize": 255, "size": 255}