{"hash": "a993ed785070db5c5a80fcb76e917f65a5d752dd13545046e2cd0e1a490559aa", "blockhash": "0000000000000000000dcc0f55137456b1a82d3642486a52398922ac4d620174", "vout": [{"scriptPubKey": {"reqSigs": 1, "hex": "76a914f253df97584de85ad32665a79324d65fc766ab8588ac", "addresses": ["1P6K13rRKvVdSJWciRUiMCQHfPUF7PuSxX"], "asm": "OP_DUP OP_HASH160 f253df97584de85ad32665a79324d65fc766ab85 OP_EQUALVERIFY OP_CHECKSIG", "type": "pubkeyhash"}, "value": 0.03899322, "n": 0}], "hex": "010000000152c6542409d1143f229abf8424f60dbac2b342a41b46b541e01ae5b7d8b120de010000006a47304402203791671a8c158cac4d4ba5531589ee359d426163ed11720d4c256af541444cd1022023e6f6cf06b8fbefa9937046f2850b015729088ee7649dcb1c8bf1c9918d6cad012102520f61460819898f44d2b482fff8ac7f416c2d725da96cc8da110874918f3b6affffffff01ba7f3b00000000001976a914f253df97584de85ad32665a79324d65fc766ab8588ac00000000", "vin": [{"sequence": 4294967295, "scriptSig": {"hex": "47304402203791671a8c158cac4d4ba5531589ee359d426163ed11720d4c256af541444cd1022023e6f6cf06b8fbefa9937046f2850b015729088ee7649dcb1c8bf1c9918d6cad012102520f61460819898f44d2b482fff8ac7f416c2d725da96cc8da110874918f3b6a", "asm": "304402203791671a8c158cac4d4ba5531589ee359d426163ed11720d4c256af541444cd1022023e6f6cf06b8fbefa9937046f2850b015729088ee7649dcb1c8bf1c9918d6cad[ALL] 02520f61460819898f44d2b482fff8ac7f416c2d725da96cc8da110874918f3b6a"}, "vout": 1, "txid": "de20b1d8b7e51ae041b5461ba442b3c2ba0df62484bf9a223f14d1092454c652"}], "txid": "a993ed785070db5c5a80fcb76e917f65a5d752dd13545046e2cd0e1a490559aa", "blocktime": 1537870268, "version": 1, "confirmations": 11518, "time": 1537870268, "locktime": 0, "vsize": 191, "size": 191}