{"hash": "a996d5bbc96099de5c32a8ceb30c4d49d193790204ca18cf9981c72e16b904ad", "blockhash": "0000000000000000000dcc0f55137456b1a82d3642486a52398922ac4d620174", "vout": [{"scriptPubKey": {"reqSigs": 1, "hex": "a91488994983f80b67cb2ad6c19561d4654e4714d7fa87", "addresses": ["3E9HTDFLZvRdJJga7W8VaMnnaQ2Udry8pt"], "asm": "OP_HASH160 88994983f80b67cb2ad6c19561d4654e4714d7fa OP_EQUAL", "type": "scripthash"}, "value": 0.01, "n": 0}, {"scriptPubKey": {"reqSigs": 1, "hex": "76a914679692880f2fdac409146f7fee4ba819ae5634d088ac", "addresses": ["1ASiyiGVszodxYffQFqCa33pSbiv3kvLmu"], "asm": "OP_DUP OP_HASH160 679692880f2fdac409146f7fee4ba819ae5634d0 OP_EQUALVERIFY OP_CHECKSIG", "type": "pubkeyhash"}, "value": 0.01288866, "n": 1}], "hex": "0100000001ab9bf55e04e4109de78187d5eff51780d2912b0375bff2322343cc988eb824f8010000006a473044022077e05b38276170d2a45fd069885b20217195bdb54667a49a80739dcfd5ee493002203c5a120bcac96b8692435068cd4082896276b789c9ef1a39717c7ee740b019bc012103a849bf3d6f38f255e0deeb9ea4431c0df426ea6126b53e7f4967f4c9852d448cffffffff0240420f000000000017a91488994983f80b67cb2ad6c19561d4654e4714d7fa87a2aa1300000000001976a914679692880f2fdac409146f7fee4ba819ae5634d088ac00000000", "vin": [{"sequence": 4294967295, "scriptSig": {"hex": "473044022077e05b38276170d2a45fd069885b20217195bdb54667a49a80739dcfd5ee493002203c5a120bcac96b8692435068cd4082896276b789c9ef1a39717c7ee740b019bc012103a849bf3d6f38f255e0deeb9ea4431c0df426ea6126b53e7f4967f4c9852d448c", "asm": "3044022077e05b38276170d2a45fd069885b20217195bdb54667a49a80739dcfd5ee493002203c5a120bcac96b8692435068cd4082896276b789c9ef1a39717c7ee740b019bc[ALL] 03a849bf3d6f38f255e0deeb9ea4431c0df426ea6126b53e7f4967f4c9852d448c"}, "vout": 1, "txid": "f824b88e98cc432332f2bf75032b91d28017f5efd58781e79d10e4045ef59bab"}], "txid": "a996d5bbc96099de5c32a8ceb30c4d49d193790204ca18cf9981c72e16b904ad", "blocktime": 1537870268, "version": 1, "confirmations": 11518, "time": 1537870268, "locktime": 0, "vsize": 223, "size": 223}