{"hash": "a997c6a74bb54b1466f2ff53f75e393a4750cf940a80dbdad50894e2eef1be8a", "blockhash": "0000000000000000000baef3f32e3676a92c3b2e5da21b426e4f302fc371ce76", "vout": [{"scriptPubKey": {"reqSigs": 1, "hex": "76a914879ad37d5379c15fb79e3f47625c928d6be106bf88ac", "addresses": ["1DN1hQWP4Qgyo8kd9nKqEVUaqYota8qFpK"], "asm": "OP_DUP OP_HASH160 879ad37d5379c15fb79e3f47625c928d6be106bf OP_EQUALVERIFY OP_CHECKSIG", "type": "pubkeyhash"}, "value": 0.07720116, "n": 0}, {"scriptPubKey": {"reqSigs": 1, "hex": "a914cfe8066bf3e851cff1395fe1e7256ceb04655b1287", "addresses": ["3LeKkdy3CsqpK4zGm3EgLtGxwycR9oU1xc"], "asm": "OP_HASH160 cfe8066bf3e851cff1395fe1e7256ceb04655b12 OP_EQUAL", "type": "scripthash"}, "value": 0.14268243, "n": 1}], "hex": "0100000004291b227056ab21c3ef54173d4f9fdce37030be5a7ec3dece21adb80bbd84773f000000006b483045022100ed46429fc1aace225f0648bfe6b00213d6bb555ce2d7d8c431c9e62f421537ac0220709688fc6359a1a636a8341123aba8fe34c21728274838a6f220e92ede6be07a012103676ee807862e780a55bb58ad404da2296c940bd03a3e0e34cb204ffd0d5eaae6fdfffffffcc48da1c5e268293534215dd38ab6a0b48f906038afe619a574c2762e0c7297000000006a47304402201ac298815f22ce558e2c268db6e711abbef2515ea1c28fa72ad7fbd5df0d4a3f022038b192832d835546a62b5982c3263108cb0cfc1dbc397a46620bdd9e4c7b2bf1012103676ee807862e780a55bb58ad404da2296c940bd03a3e0e34cb204ffd0d5eaae6fdffffff68dfb1022394d066896ca1ee84c67a70583c1ec9aa671edbbdfb3517492866d4000000006b4830450221008a957a308956ee2d38c9fcdfb345281763fa2278b6acb4b37a74eef65737473802205ed2280c182ca31f5183d0c4184626a98a01f2d17c1908b9500c08331744e360012103676ee807862e780a55bb58ad404da2296c940bd03a3e0e34cb204ffd0d5eaae6fdffffff7220648941e17dffcddb2651edba97c51e685888f918661df52780faa00e6eee000000006b483045022100f68de50a19b23e9cac027e5fa15e91c4d8876f94d334740a84bff0cb0ee2c0dd02207b82f772d60af0f93ee80721281ddaedf73835e565973b0d80dd5f3084eab541012103676ee807862e780a55bb58ad404da2296c940bd03a3e0e34cb204ffd0d5eaae6fdffffff02b4cc7500000000001976a914879ad37d5379c15fb79e3f47625c928d6be106bf88ac53b7d9000000000017a914cfe8066bf3e851cff1395fe1e7256ceb04655b128715490800", "vin": [{"sequence": 4294967293, "scriptSig": {"hex": "483045022100ed46429fc1aace225f0648bfe6b00213d6bb555ce2d7d8c431c9e62f421537ac0220709688fc6359a1a636a8341123aba8fe34c21728274838a6f220e92ede6be07a012103676ee807862e780a55bb58ad404da2296c940bd03a3e0e34cb204ffd0d5eaae6", "asm": "3045022100ed46429fc1aace225f0648bfe6b00213d6bb555ce2d7d8c431c9e62f421537ac0220709688fc6359a1a636a8341123aba8fe34c21728274838a6f220e92ede6be07a[ALL] 03676ee807862e780a55bb58ad404da2296c940bd03a3e0e34cb204ffd0d5eaae6"}, "vout": 0, "txid": "3f7784bd0bb8ad21cedec37e5abe3070e3dc9f4f3d1754efc321ab5670221b29"}, {"sequence": 4294967293, "scriptSig": {"hex": "47304402201ac298815f22ce558e2c268db6e711abbef2515ea1c28fa72ad7fbd5df0d4a3f022038b192832d835546a62b5982c3263108cb0cfc1dbc397a46620bdd9e4c7b2bf1012103676ee807862e780a55bb58ad404da2296c940bd03a3e0e34cb204ffd0d5eaae6", "asm": "304402201ac298815f22ce558e2c268db6e711abbef2515ea1c28fa72ad7fbd5df0d4a3f022038b192832d835546a62b5982c3263108cb0cfc1dbc397a46620bdd9e4c7b2bf1[ALL] 03676ee807862e780a55bb58ad404da2296c940bd03a3e0e34cb204ffd0d5eaae6"}, "vout": 0, "txid": "97720c2e76c274a519e6af3860908fb4a0b68ad35d2134352968e2c5a18dc4fc"}, {"sequence": 4294967293, "scriptSig": {"hex": "4830450221008a957a308956ee2d38c9fcdfb345281763fa2278b6acb4b37a74eef65737473802205ed2280c182ca31f5183d0c4184626a98a01f2d17c1908b9500c08331744e360012103676ee807862e780a55bb58ad404da2296c940bd03a3e0e34cb204ffd0d5eaae6", "asm": "30450221008a957a308956ee2d38c9fcdfb345281763fa2278b6acb4b37a74eef65737473802205ed2280c182ca31f5183d0c4184626a98a01f2d17c1908b9500c08331744e360[ALL] 03676ee807862e780a55bb58ad404da2296c940bd03a3e0e34cb204ffd0d5eaae6"}, "vout": 0, "txid": "d46628491735fbbddb1e67aac91e3c58707ac684eea16c8966d0942302b1df68"}, {"sequence": 4294967293, "scriptSig": {"hex": "483045022100f68de50a19b23e9cac027e5fa15e91c4d8876f94d334740a84bff0cb0ee2c0dd02207b82f772d60af0f93ee80721281ddaedf73835e565973b0d80dd5f3084eab541012103676ee807862e780a55bb58ad404da2296c940bd03a3e0e34cb204ffd0d5eaae6", "asm": "3045022100f68de50a19b23e9cac027e5fa15e91c4d8876f94d334740a84bff0cb0ee2c0dd02207b82f772d60af0f93ee80721281ddaedf73835e565973b0d80dd5f3084eab541[ALL] 03676ee807862e780a55bb58ad404da2296c940bd03a3e0e34cb204ffd0d5eaae6"}, "vout": 0, "txid": "ee6e0ea0fa8027f51d6618f98858681ec597baed5126dbcdff7de14189642072"}], "txid": "a997c6a74bb54b1466f2ff53f75e393a4750cf940a80dbdad50894e2eef1be8a", "blocktime": 1537876114, "version": 1, "confirmations": 11460, "time": 1537876114, "locktime": 542997, "vsize": 667, "size": 667}