{"hash": "a9a50faf096e28c0111b2bbd800ea72156447dbf20005b12d7f457a26b31b15a", "blockhash": "00000000000000000017f5eb5941039fbcee6240d03bc1f2f8e35350df66a1d8", "vout": [{"scriptPubKey": {"reqSigs": 1, "hex": "0014b021b24cfd544e6b147d8fe673a063d178bddba2", "addresses": ["bc1qkqsmyn8a238xk9ra3ln88grr69utmkazss8ts4"], "asm": "0 b021b24cfd544e6b147d8fe673a063d178bddba2", "type": "witness_v0_keyhash"}, "value": 2.189e-05, "n": 0}, {"scriptPubKey": {"reqSigs": 1, "hex": "76a9144e6582a99de74d75531975fa6c4462c98ed937d588ac", "addresses": ["189XK2gkcbg6JgY5mwHARhK9rauHHKEcCX"], "asm": "OP_DUP OP_HASH160 4e6582a99de74d75531975fa6c4462c98ed937d5 OP_EQUALVERIFY OP_CHECKSIG", "type": "pubkeyhash"}, "value": 0.00219858, "n": 1}], "hex": "0100000001c13c83bcc3caff127d10030d95e98053a99ff81984d208715be68eca5949a15d590000006b483045022100cb52f41341ff8a392c4054e0675725dd9f73e01fe8b11976bc70f2a43893a77d02204cc4863af20cddf1d88926b2d2763aabd18ee014ad69305bf4eba470ff494f31012102a1363e96420f7f195b3322c00b0156bf424e1d1f0dec597e36686b584e22475dffffffff028d08000000000000160014b021b24cfd544e6b147d8fe673a063d178bddba2d25a0300000000001976a9144e6582a99de74d75531975fa6c4462c98ed937d588ac00000000", "vin": [{"sequence": 4294967295, "scriptSig": {"hex": "483045022100cb52f41341ff8a392c4054e0675725dd9f73e01fe8b11976bc70f2a43893a77d02204cc4863af20cddf1d88926b2d2763aabd18ee014ad69305bf4eba470ff494f31012102a1363e96420f7f195b3322c00b0156bf424e1d1f0dec597e36686b584e22475d", "asm": "3045022100cb52f41341ff8a392c4054e0675725dd9f73e01fe8b11976bc70f2a43893a77d02204cc4863af20cddf1d88926b2d2763aabd18ee014ad69305bf4eba470ff494f31[ALL] 02a1363e96420f7f195b3322c00b0156bf424e1d1f0dec597e36686b584e22475d"}, "vout": 89, "txid": "5da14959ca8ee65b7108d28419f89fa95380e9950d03107d12ffcac3bc833cc1"}], "txid": "a9a50faf096e28c0111b2bbd800ea72156447dbf20005b12d7f457a26b31b15a", "blocktime": 1537874412, "version": 1, "confirmations": 11467, "time": 1537874412, "locktime": 0, "vsize": 223, "size": 223}