{"hash": "a9ac951f6b9d7a3c6ea7a84f76dffd9d2e394d2f07c12d25f9f26f28d6c40f38", "blockhash": "00000000000000000004ffacab907a6b429b9a5745fa0b75af4234bf69dd7176", "vout": [{"scriptPubKey": {"reqSigs": 1, "hex": "76a914d243e6abb9a60fbff430b421d2df4b7d59ec186088ac", "addresses": ["1LAnF8h3qMGx3TSwNUHVneBZUEpwE4gu3D"], "asm": "OP_DUP OP_HASH160 d243e6abb9a60fbff430b421d2df4b7d59ec1860 OP_EQUALVERIFY OP_CHECKSIG", "type": "pubkeyhash"}, "value": 0.00076972, "n": 0}, {"scriptPubKey": {"reqSigs": 1, "hex": "76a9143851f34d13937b673a7d24a1950bb5b21ce94af388ac", "addresses": ["168o1kqNquEJeR9vosUB5fw4eAwcVAgh8P"], "asm": "OP_DUP OP_HASH160 3851f34d13937b673a7d24a1950bb5b21ce94af3 OP_EQUALVERIFY OP_CHECKSIG", "type": "pubkeyhash"}, "value": 5.46e-06, "n": 1}, {"scriptPubKey": {"type": "nulldata", "hex": "6a146f6d6e69000000000000001f0000004626e12500", "asm": "OP_RETURN 6f6d6e69000000000000001f0000004626e12500"}, "value": 0.0, "n": 2}], "hex": "01000000029e5ac42540930a43e3b53d57a736409a8b53596d53c123a2523bafcff867d65e020000006a473044022011906e3baac65e1503d298b832bdddbe442a35c99e73ed9a4b9236b896d387450220494d5c2d54393eaa87b36ed4babce4e8569f5bc79912d059ee5e7cc03c1362ab012102f445c371b5ca2bcdcda0e4234eef023f81b3f5949c1a7f1470c06e8ceee2668cffffffff94d21ecc93356f8480e59d91c8d585cda79b8bc3174c736bb796a550aeb7e516000000006b483045022100c32bb6a7dc75e3cd34a07d8a54cd99fda74a3152b7db2093a9c2ab6e6c4bfd370220500e37aeceb057fdf44577f6c5b780606cc736753cb895b6c0721189de194cdc01210271977291b74f1f5f5c42157e8aae804664eaaeccfd097918450d37f28fb94d77ffffffff03ac2c0100000000001976a914d243e6abb9a60fbff430b421d2df4b7d59ec186088ac22020000000000001976a9143851f34d13937b673a7d24a1950bb5b21ce94af388ac0000000000000000166a146f6d6e69000000000000001f0000004626e1250000000000", "vin": [{"sequence": 4294967295, "scriptSig": {"hex": "473044022011906e3baac65e1503d298b832bdddbe442a35c99e73ed9a4b9236b896d387450220494d5c2d54393eaa87b36ed4babce4e8569f5bc79912d059ee5e7cc03c1362ab012102f445c371b5ca2bcdcda0e4234eef023f81b3f5949c1a7f1470c06e8ceee2668c", "asm": "3044022011906e3baac65e1503d298b832bdddbe442a35c99e73ed9a4b9236b896d387450220494d5c2d54393eaa87b36ed4babce4e8569f5bc79912d059ee5e7cc03c1362ab[ALL] 02f445c371b5ca2bcdcda0e4234eef023f81b3f5949c1a7f1470c06e8ceee2668c"}, "vout": 2, "txid": "5ed667f8cfaf3b52a223c1536d59538b9a4036a7573db5e3430a934025c45a9e"}, {"sequence": 4294967295, "scriptSig": {"hex": "483045022100c32bb6a7dc75e3cd34a07d8a54cd99fda74a3152b7db2093a9c2ab6e6c4bfd370220500e37aeceb057fdf44577f6c5b780606cc736753cb895b6c0721189de194cdc01210271977291b74f1f5f5c42157e8aae804664eaaeccfd097918450d37f28fb94d77", "asm": "3045022100c32bb6a7dc75e3cd34a07d8a54cd99fda74a3152b7db2093a9c2ab6e6c4bfd370220500e37aeceb057fdf44577f6c5b780606cc736753cb895b6c0721189de194cdc[ALL] 0271977291b74f1f5f5c42157e8aae804664eaaeccfd097918450d37f28fb94d77"}, "vout": 0, "txid": "16e5b7ae50a596b76b734c17c38b9ba7cd85d5c8919de580846f3593cc1ed294"}], "txid": "a9ac951f6b9d7a3c6ea7a84f76dffd9d2e394d2f07c12d25f9f26f28d6c40f38", "blocktime": 1537875543, "version": 1, "confirmations": 11464, "time": 1537875543, "locktime": 0, "vsize": 404, "size": 404}