{"hash": "a9acd42addc956b476b4f5bf58f2cb5c1881bca964b1b6e0b2a473659e901904", "blockhash": "0000000000000000001cda96e906b7601b7a6fb1a3b62bca570a9e5d8f4b3de1", "vout": [{"scriptPubKey": {"reqSigs": 1, "hex": "a91469f374637fb343a9b0e8464a71fdb76fac4cda0c87", "addresses": ["3BMEXDCRVenfpw6jRpnWZrN3H2J4oUyv1s"], "asm": "OP_HASH160 69f374637fb343a9b0e8464a71fdb76fac4cda0c OP_EQUAL", "type": "scripthash"}, "value": 0.2999, "n": 0}, {"scriptPubKey": {"reqSigs": 1, "hex": "76a9142744140f0a7e9c1d53b7525be67da7155b9a2f9788ac", "addresses": ["14acuecAHtiJR23rY6p1JPXUQ39vaR5W8d"], "asm": "OP_DUP OP_HASH160 2744140f0a7e9c1d53b7525be67da7155b9a2f97 OP_EQUALVERIFY OP_CHECKSIG", "type": "pubkeyhash"}, "value": 0.60001654, "n": 1}], "hex": "0100000001004708b4d30cc8a4cc31a2a26e77871e4aff282e545c957cbcf7afdc9ae5c82c010000006a47304402201cfc3625b454b46fe222ab3e8158acfe62b723c4313a9266f774fc0d488a811e02206490d554896b5539d1b1fbb4a9827295260d7aef7c21fa19d83d4a1783cf5797012103529871707bac4a658b048a62ad7e3b1e0c01e004ec110b874b47f687aea4b212ffffffff02709cc9010000000017a91469f374637fb343a9b0e8464a71fdb76fac4cda0c87768d9303000000001976a9142744140f0a7e9c1d53b7525be67da7155b9a2f9788ac00000000", "vin": [{"sequence": 4294967295, "scriptSig": {"hex": "47304402201cfc3625b454b46fe222ab3e8158acfe62b723c4313a9266f774fc0d488a811e02206490d554896b5539d1b1fbb4a9827295260d7aef7c21fa19d83d4a1783cf5797012103529871707bac4a658b048a62ad7e3b1e0c01e004ec110b874b47f687aea4b212", "asm": "304402201cfc3625b454b46fe222ab3e8158acfe62b723c4313a9266f774fc0d488a811e02206490d554896b5539d1b1fbb4a9827295260d7aef7c21fa19d83d4a1783cf5797[ALL] 03529871707bac4a658b048a62ad7e3b1e0c01e004ec110b874b47f687aea4b212"}, "vout": 1, "txid": "2cc8e59adcaff7bc7c955c542e28ff4a1e87776ea2a231cca4c80cd3b4084700"}], "txid": "a9acd42addc956b476b4f5bf58f2cb5c1881bca964b1b6e0b2a473659e901904", "blocktime": 1537873282, "version": 1, "confirmations": 11484, "time": 1537873282, "locktime": 0, "vsize": 223, "size": 223}