{"hash": "a21b85f70b6ab6cc4c256455c78b30f8b0c6a9c1fddf765b9334ed78d1db8c2a", "blockhash": "00000000000000000018f53835495a110e01622372bf6ae95dc86f2b0ab887b0", "vout": [{"scriptPubKey": {"reqSigs": 1, "hex": "a914fd1bdcbb35fe34420b6598bc61f9a351ca10d69287", "addresses": ["3QmLFyiQG5mNvUv4a3kpaZYK3DPFncMPeu"], "asm": "OP_HASH160 fd1bdcbb35fe34420b6598bc61f9a351ca10d692 OP_EQUAL", "type": "scripthash"}, "value": 0.03549468, "n": 0}], "hex": "01000000000101233f297a3804ba6514a51f9fd0ab3e784a84052f79ef1f7bba3e3ce61a4479a80100000000ffffffff011c2936000000000017a914fd1bdcbb35fe34420b6598bc61f9a351ca10d6928702483045022100fa55bd44b774b6fcc8da128b94b9c5451f731594d93a182fc30d8cad2f4bc0ed022025606dac3546ae839bd85e59c077b1ed187e8ce8d697831bac53f33914276b960121025af6c473e51328cdb7aefa14263fbf874081a9e91449ae1708387350ea69adcd00000000", "vin": [{"txinwitness": ["3045022100fa55bd44b774b6fcc8da128b94b9c5451f731594d93a182fc30d8cad2f4bc0ed022025606dac3546ae839bd85e59c077b1ed187e8ce8d697831bac53f33914276b9601", "025af6c473e51328cdb7aefa14263fbf874081a9e91449ae1708387350ea69adcd"], "sequence": 4294967295, "scriptSig": {"hex": "", "asm": ""}, "vout": 1, "txid": "a879441ae63c3eba7b1fef792f05844a783eabd09f1fa51465ba04387a293f23"}], "txid": "a9ada705bc0a684c50572ae588aa88416851a74d0cfd3a6cf044d53d1394e739", "blocktime": 1537870928, "version": 1, "confirmations": 11514, "time": 1537870928, "locktime": 0, "vsize": 111, "size": 193}