{"hash": "a9ae4b8877f2ab7a5c64afaa0ba688f074bd1905850aa0482ce30a53f4359c52", "blockhash": "0000000000000000001cda96e906b7601b7a6fb1a3b62bca570a9e5d8f4b3de1", "vout": [{"scriptPubKey": {"reqSigs": 1, "hex": "76a914e884d2fb9737486f6acb2d6665b3c2c989c9188e88ac", "addresses": ["1NCStHjVRbPMDo3DzetAZn97rDGNMk8XZw"], "asm": "OP_DUP OP_HASH160 e884d2fb9737486f6acb2d6665b3c2c989c9188e OP_EQUALVERIFY OP_CHECKSIG", "type": "pubkeyhash"}, "value": 0.00224762, "n": 0}], "hex": "01000000011f561563b3d36259897f4540cd61b85566c6639f08900ef906910fc0db2475fd000000006a4730440220418a3cda183c2049f145badbfd1928c6b4f26d9e62ef0c5a873046fcc402a79602202bca98ef50e9b8cfc78e236b8916864d365fae5071fde4f0133a3d2c4ca2ec73012103243e45b32a89dbe1263f5e8a41aba88e23c57577348f76491b3ecb3cfd2e33fcffffffff01fa6d0300000000001976a914e884d2fb9737486f6acb2d6665b3c2c989c9188e88ac00000000", "vin": [{"sequence": 4294967295, "scriptSig": {"hex": "4730440220418a3cda183c2049f145badbfd1928c6b4f26d9e62ef0c5a873046fcc402a79602202bca98ef50e9b8cfc78e236b8916864d365fae5071fde4f0133a3d2c4ca2ec73012103243e45b32a89dbe1263f5e8a41aba88e23c57577348f76491b3ecb3cfd2e33fc", "asm": "30440220418a3cda183c2049f145badbfd1928c6b4f26d9e62ef0c5a873046fcc402a79602202bca98ef50e9b8cfc78e236b8916864d365fae5071fde4f0133a3d2c4ca2ec73[ALL] 03243e45b32a89dbe1263f5e8a41aba88e23c57577348f76491b3ecb3cfd2e33fc"}, "vout": 0, "txid": "fd7524dbc00f9106f90e90089f63c66655b861cd40457f895962d3b36315561f"}], "txid": "a9ae4b8877f2ab7a5c64afaa0ba688f074bd1905850aa0482ce30a53f4359c52", "blocktime": 1537873282, "version": 1, "confirmations": 11485, "time": 1537873282, "locktime": 0, "vsize": 191, "size": 191}