{"hash": "a9b7950941742befecbb6f0b368ba705d77c39753097eecde25a255ae0b4415c", "blockhash": "00000000000000000024a2167bbff67b0be802c0b01cdd79e6331c2be6459f87", "vout": [{"scriptPubKey": {"reqSigs": 1, "hex": "76a91433901aa5724cd0afe0f5512635411b0ec9d483c888ac", "addresses": ["15he6K2hGPq3n1SMjPrxz2WWBuDqzAdvKT"], "asm": "OP_DUP OP_HASH160 33901aa5724cd0afe0f5512635411b0ec9d483c8 OP_EQUALVERIFY OP_CHECKSIG", "type": "pubkeyhash"}, "value": 0.00183254, "n": 0}, {"scriptPubKey": {"reqSigs": 1, "hex": "76a914cb02357f2d64d88c7d97b2c63fafc07522e50f9488ac", "addresses": ["1KWQpRa5vcpbNyyNH2SmoKyN3CkwxS4gxU"], "asm": "OP_DUP OP_HASH160 cb02357f2d64d88c7d97b2c63fafc07522e50f94 OP_EQUALVERIFY OP_CHECKSIG", "type": "pubkeyhash"}, "value": 0.0001021, "n": 1}], "hex": "0100000002c027e91ff49922b6128054fb3ea9ad0662a85c469d416d31af3ae8c693e472af010000006a47304402205ac7ce342fe8b2e89a4df650c44961bb56b61ce837ba3748960f0f1f73419ee302207c41e186884e11da1843ab3a514244967af31744d94fdf3a8d5f90d2205fdb4f012103edf8f326eb0c5101833eab19b867b5b508588bc7f1bbe58147532d21ccdb8b5effffffff717dba3f6d5037fac657838da21dc1a3cf0920386067d3afafb34c0953e05886010000006b483045022100b23d91d59d9d27981728080bc52355a4ee619af33ed47d7a01c936fce310ac6402203a40fc42ab9b73602017eacbb46fd18fee75f0ce69221a1deeb7aac5b04ec62701210314278437bac80a6725ca1a5575b7ca95e721a1cfff70fef3289a46d9f8d5c5d3ffffffff02d6cb0200000000001976a91433901aa5724cd0afe0f5512635411b0ec9d483c888ace2270000000000001976a914cb02357f2d64d88c7d97b2c63fafc07522e50f9488ac00000000", "vin": [{"sequence": 4294967295, "scriptSig": {"hex": "47304402205ac7ce342fe8b2e89a4df650c44961bb56b61ce837ba3748960f0f1f73419ee302207c41e186884e11da1843ab3a514244967af31744d94fdf3a8d5f90d2205fdb4f012103edf8f326eb0c5101833eab19b867b5b508588bc7f1bbe58147532d21ccdb8b5e", "asm": "304402205ac7ce342fe8b2e89a4df650c44961bb56b61ce837ba3748960f0f1f73419ee302207c41e186884e11da1843ab3a514244967af31744d94fdf3a8d5f90d2205fdb4f[ALL] 03edf8f326eb0c5101833eab19b867b5b508588bc7f1bbe58147532d21ccdb8b5e"}, "vout": 1, "txid": "af72e493c6e83aaf316d419d465ca86206ada93efb548012b62299f41fe927c0"}, {"sequence": 4294967295, "scriptSig": {"hex": "483045022100b23d91d59d9d27981728080bc52355a4ee619af33ed47d7a01c936fce310ac6402203a40fc42ab9b73602017eacbb46fd18fee75f0ce69221a1deeb7aac5b04ec62701210314278437bac80a6725ca1a5575b7ca95e721a1cfff70fef3289a46d9f8d5c5d3", "asm": "3045022100b23d91d59d9d27981728080bc52355a4ee619af33ed47d7a01c936fce310ac6402203a40fc42ab9b73602017eacbb46fd18fee75f0ce69221a1deeb7aac5b04ec627[ALL] 0314278437bac80a6725ca1a5575b7ca95e721a1cfff70fef3289a46d9f8d5c5d3"}, "vout": 1, "txid": "8658e053094cb3afafd36760382009cfa3c11da28d8357c6fa37506d3fba7d71"}], "txid": "a9b7950941742befecbb6f0b368ba705d77c39753097eecde25a255ae0b4415c", "blocktime": 1537870564, "version": 1, "confirmations": 11515, "time": 1537870564, "locktime": 0, "vsize": 373, "size": 373}