{"hash": "08dd174353f0c2d6c7c3e5ddf932b5c5520e6bc9427917ab35fa0790c3ab5377", "blockhash": "0000000000000000001e0dab787dd257d1dbfcb92a98c2207d5e1078be1f4165", "vout": [{"scriptPubKey": {"reqSigs": 1, "hex": "a914b25b463bbc718712c3911c1872d669830d3a07d187", "addresses": ["3Hx5YYRHH4Ba8Ahf6XtVfco7mUgoCw7q6X"], "asm": "OP_HASH160 b25b463bbc718712c3911c1872d669830d3a07d1 OP_EQUAL", "type": "scripthash"}, "value": 0.66163422, "n": 0}, {"scriptPubKey": {"reqSigs": 1, "hex": "a914c48da9dfd532cf48a8dc70e1a3f84005ed2435e087", "addresses": ["3KcJ56kmXFACJhjdJwYCnYqeaGUhmvqWDc"], "asm": "OP_HASH160 c48da9dfd532cf48a8dc70e1a3f84005ed2435e0 OP_EQUAL", "type": "scripthash"}, "value": 0.00390247, "n": 1}], "hex": "01000000000101d561e3264ca60229bdbcde39c0e2b43660aa44da5c517d60c2b9db204bf6c60b010000002322002091e9a4ec46a9b5d1f248a67a4474de1a486c93f226219878a24686e2656189fdffffffff02de92f1030000000017a914b25b463bbc718712c3911c1872d669830d3a07d18767f405000000000017a914c48da9dfd532cf48a8dc70e1a3f84005ed2435e0870400483045022100b2856e2b76a7fc59514172aa08cfe30ba5f8b92d5096ad2409d69b7b952f4758022027004f28a4a0b7e07a158c3cbf269480bd33e5731ba699a78c91fec8b8ff506b01473044022007500142639afe4bd62821fe80e5653d17fe186c28c61b212062d9eb0fb6f6dd0220481124ef8aa46c7543c15eecdfcd4e6bacd57690988e18d8ca3fb90e3cc0580d01695221021a54d35118fe94624ee2b9f38bd26cc6a9254efd72eda3b7e57752d949e268f7210254b5bb5f219b606bfddf79e83eedc54e88f8d9c55ca569dbb3e322415ba4c1502102b496291d4385893501b20bc1143a531b8144670e2d9029496de74bada750b4cb53ae00000000", "vin": [{"txinwitness": ["", "3045022100b2856e2b76a7fc59514172aa08cfe30ba5f8b92d5096ad2409d69b7b952f4758022027004f28a4a0b7e07a158c3cbf269480bd33e5731ba699a78c91fec8b8ff506b01", "3044022007500142639afe4bd62821fe80e5653d17fe186c28c61b212062d9eb0fb6f6dd0220481124ef8aa46c7543c15eecdfcd4e6bacd57690988e18d8ca3fb90e3cc0580d01", "5221021a54d35118fe94624ee2b9f38bd26cc6a9254efd72eda3b7e57752d949e268f7210254b5bb5f219b606bfddf79e83eedc54e88f8d9c55ca569dbb3e322415ba4c1502102b496291d4385893501b20bc1143a531b8144670e2d9029496de74bada750b4cb53ae"], "sequence": 4294967295, "scriptSig": {"hex": "22002091e9a4ec46a9b5d1f248a67a4474de1a486c93f226219878a24686e2656189fd", "asm": "002091e9a4ec46a9b5d1f248a67a4474de1a486c93f226219878a24686e2656189fd"}, "vout": 1, "txid": "0bc6f64b20dbb9c2607d515cda44aa6036b4e2c039debcbd2902a64c26e361d5"}], "txid": "a9b74f193f1e52539c7f40eae8febf41643dfb31fce86b00e522cb992967e68b", "blocktime": 1537872475, "version": 1, "confirmations": 11486, "time": 1537872475, "locktime": 0, "vsize": 214, "size": 405}