{"hash": "08abe580976e4e62f0f3f9807df6e121c2eacc0af9724f00ce94d6fbb44dedd9", "blockhash": "00000000000000000024a2167bbff67b0be802c0b01cdd79e6331c2be6459f87", "vout": [{"scriptPubKey": {"reqSigs": 1, "hex": "a914be76dcdc28ffa8650891a0418d3afab01ebe391687", "addresses": ["3K46hifKLfCyg9s8QwsB5nAv9Hk7u6HmUY"], "asm": "OP_HASH160 be76dcdc28ffa8650891a0418d3afab01ebe3916 OP_EQUAL", "type": "scripthash"}, "value": 0.03745353, "n": 0}, {"scriptPubKey": {"reqSigs": 1, "hex": "a914e5fd545c2cc2338a91be586be3b946e3cee6129d87", "addresses": ["3Nf697kzy1Joa1nEubkLYXy2dHLtJZetd6"], "asm": "OP_HASH160 e5fd545c2cc2338a91be586be3b946e3cee6129d OP_EQUAL", "type": "scripthash"}, "value": 0.02344674, "n": 1}], "hex": "020000000001012221c27e7ed6b8a56d082929dfd04ff83123ef0083a26700e2f1df81574459d30100000017160014df11732dfb6af9b73d2bc2decad568b6876f44f0ffffffff02492639000000000017a914be76dcdc28ffa8650891a0418d3afab01ebe391687e2c623000000000017a914e5fd545c2cc2338a91be586be3b946e3cee6129d870247304402200bbc7c07db4932c51fe1383a4f7323ef6c20140ebc67de2ecf7c79cca809e029022068ac4a26169ab9012714213ad33a72631b8b3d428f7517c75ec05fb381c5d7810121036aa6fc4e7d4fd490019552bcf429dab4f79c181abbf6815c77c8571ec570c88e00000000", "vin": [{"txinwitness": ["304402200bbc7c07db4932c51fe1383a4f7323ef6c20140ebc67de2ecf7c79cca809e029022068ac4a26169ab9012714213ad33a72631b8b3d428f7517c75ec05fb381c5d78101", "036aa6fc4e7d4fd490019552bcf429dab4f79c181abbf6815c77c8571ec570c88e"], "sequence": 4294967295, "scriptSig": {"hex": "160014df11732dfb6af9b73d2bc2decad568b6876f44f0", "asm": "0014df11732dfb6af9b73d2bc2decad568b6876f44f0"}, "vout": 1, "txid": "d359445781dff1e20067a28300ef2331f84fd0df2929086da5b8d67e7ec22122"}], "txid": "a9ba3751be8ce6e9ad78b2a8586f14b13e74e62eb5454d0dc82c7bf2226edfb8", "blocktime": 1537870564, "version": 2, "confirmations": 11515, "time": 1537870564, "locktime": 0, "vsize": 166, "size": 247}