{"hash": "a9bcf1f961635325014cdebd80ac893b88260f9d0da050c0ada46ae707a11a79", "blockhash": "0000000000000000000e13cef7c366c0283d82e591d1acd082e914b08063cdf1", "vout": [{"scriptPubKey": {"type": "nulldata", "hex": "6a146f6d6e69000000000000001f00000007cf73cd2f", "asm": "OP_RETURN 6f6d6e69000000000000001f00000007cf73cd2f"}, "value": 0.0, "n": 0}, {"scriptPubKey": {"reqSigs": 1, "hex": "76a914a25dec4d0011064ef106a983c39c7a540699f22088ac", "addresses": ["1FoWyxwPXuj4C6abqwhjDWdz6D4PZgYRjA"], "asm": "OP_DUP OP_HASH160 a25dec4d0011064ef106a983c39c7a540699f220 OP_EQUALVERIFY OP_CHECKSIG", "type": "pubkeyhash"}, "value": 0.01980823, "n": 1}, {"scriptPubKey": {"reqSigs": 1, "hex": "a91425cc119adbb30f3570302f137cfebf99b532561d87", "addresses": ["358sPb4kDqtC2pnuXbTbBq8UwU7qkoQ1Xx"], "asm": "OP_HASH160 25cc119adbb30f3570302f137cfebf99b532561d OP_EQUAL", "type": "scripthash"}, "value": 5.4e-06, "n": 2}], "hex": "01000000017299c23ea640745927aebbd51d58cc763d3b79d05e44c7eb02ebf10ff35c7df4010000006a47304402207142616c0bfadd0c9ce546f22300c60d017996bf9503c5561ac1d929ad63af6a02204da379573ebc3cead3c6adc738395c8a2d0ad57bcbe7db6c9675749853897213012103da5bac7b36d5aa38f531c6b9601e21bb598a4b6716ebed38b009a55dabde9440feffffff030000000000000000166a146f6d6e69000000000000001f00000007cf73cd2f97391e00000000001976a914a25dec4d0011064ef106a983c39c7a540699f22088ac1c0200000000000017a91425cc119adbb30f3570302f137cfebf99b532561d8710490800", "vin": [{"sequence": 4294967294, "scriptSig": {"hex": "47304402207142616c0bfadd0c9ce546f22300c60d017996bf9503c5561ac1d929ad63af6a02204da379573ebc3cead3c6adc738395c8a2d0ad57bcbe7db6c9675749853897213012103da5bac7b36d5aa38f531c6b9601e21bb598a4b6716ebed38b009a55dabde9440", "asm": "304402207142616c0bfadd0c9ce546f22300c60d017996bf9503c5561ac1d929ad63af6a02204da379573ebc3cead3c6adc738395c8a2d0ad57bcbe7db6c9675749853897213[ALL] 03da5bac7b36d5aa38f531c6b9601e21bb598a4b6716ebed38b009a55dabde9440"}, "vout": 1, "txid": "f47d5cf30ff1eb02ebc7445ed0793b3d76cc581dd5bbae27597440a63ec29972"}], "txid": "a9bcf1f961635325014cdebd80ac893b88260f9d0da050c0ada46ae707a11a79", "blocktime": 1537871767, "version": 1, "confirmations": 11490, "time": 1537871767, "locktime": 542992, "vsize": 254, "size": 254}