{"hash": "a9be9ceb6de9f54b9e1e8b9995a3f6a52bea94537ccf5d966618018e2d5b4448", "blockhash": "0000000000000000000baef3f32e3676a92c3b2e5da21b426e4f302fc371ce76", "vout": [{"scriptPubKey": {"reqSigs": 1, "hex": "a9144f9cd5f046d4c18a551d523dfa74c90b8b7bf9f787", "addresses": ["38wyBqJhcJ9vBWDLKHxq33ALdytKZxXntL"], "asm": "OP_HASH160 4f9cd5f046d4c18a551d523dfa74c90b8b7bf9f7 OP_EQUAL", "type": "scripthash"}, "value": 0.00765147, "n": 0}, {"scriptPubKey": {"reqSigs": 1, "hex": "76a9140cc0134298d69feaeca21c639a79c8fc1d986e3188ac", "addresses": ["12ARCvYpmFgAPePSyMHHLcmbe2aGhBNVN1"], "asm": "OP_DUP OP_HASH160 0cc0134298d69feaeca21c639a79c8fc1d986e31 OP_EQUALVERIFY OP_CHECKSIG", "type": "pubkeyhash"}, "value": 0.03792522, "n": 1}], "hex": "01000000019bb19e341bfce4b9c5c8ff3e54757fea9de6755b81d8c768dc64c2a7932bfc42010000006b483045022100c740ea54bbdb9c1aa07ebd2553a78521ffef38f7caaa92cb0ff17244ccee968102206bcc4a1102a6c6bb72ada76c656689266fd449b324e1cefa2804e773e99d1adc0121031f07c8aaad4bdbff67fcbec5b1756227de8084bc7e3683e45b539e610ca8ce58ffffffff02dbac0b000000000017a9144f9cd5f046d4c18a551d523dfa74c90b8b7bf9f7878ade3900000000001976a9140cc0134298d69feaeca21c639a79c8fc1d986e3188ac00000000", "vin": [{"sequence": 4294967295, "scriptSig": {"hex": "483045022100c740ea54bbdb9c1aa07ebd2553a78521ffef38f7caaa92cb0ff17244ccee968102206bcc4a1102a6c6bb72ada76c656689266fd449b324e1cefa2804e773e99d1adc0121031f07c8aaad4bdbff67fcbec5b1756227de8084bc7e3683e45b539e610ca8ce58", "asm": "3045022100c740ea54bbdb9c1aa07ebd2553a78521ffef38f7caaa92cb0ff17244ccee968102206bcc4a1102a6c6bb72ada76c656689266fd449b324e1cefa2804e773e99d1adc[ALL] 031f07c8aaad4bdbff67fcbec5b1756227de8084bc7e3683e45b539e610ca8ce58"}, "vout": 1, "txid": "42fc2b93a7c264dc68c7d8815b75e69dea7f75543effc8c5b9e4fc1b349eb19b"}], "txid": "a9be9ceb6de9f54b9e1e8b9995a3f6a52bea94537ccf5d966618018e2d5b4448", "blocktime": 1537876114, "version": 1, "confirmations": 11460, "time": 1537876114, "locktime": 0, "vsize": 224, "size": 224}