{"hash": "a9c1940933b7b9f0869c50d74e55f16528d0c3caa3462c868d8a9c4100f249ea", "blockhash": "00000000000000000004ffacab907a6b429b9a5745fa0b75af4234bf69dd7176", "vout": [{"scriptPubKey": {"reqSigs": 1, "hex": "76a9144acac00c8a514b420a0dab2bc33afb575f5d3d8f88ac", "addresses": ["17pTtXVW23nzVknv1PiSAQJrhZBzwFZFjb"], "asm": "OP_DUP OP_HASH160 4acac00c8a514b420a0dab2bc33afb575f5d3d8f OP_EQUALVERIFY OP_CHECKSIG", "type": "pubkeyhash"}, "value": 1.2, "n": 0}, {"scriptPubKey": {"reqSigs": 1, "hex": "76a914f4a9bfeed72525e97403d5d6616fb7c0a4c8d61188ac", "addresses": ["1PJfEE4aFrysaHS2jc4tfdV4qNjbDkjjb7"], "asm": "OP_DUP OP_HASH160 f4a9bfeed72525e97403d5d6616fb7c0a4c8d611 OP_EQUALVERIFY OP_CHECKSIG", "type": "pubkeyhash"}, "value": 0.47384, "n": 1}], "hex": "01000000020402c31d27045c2f750ee578bdcd75018f0e45dfb9a271d86631c70320606e85010000006a47304402206938eef426696bd43b487780338aa31c9ebe0221382543e2d8517ac6f13deab9022043435aaabc4a3be62eaee51dc6b8bbfe1e47107541b87039a9289163a684dfaf012103575c3661319507f7f9cadb827388e274f25fef87e9525fdc7c328beb3d3c6ed2ffffffff0402c31d27045c2f750ee578bdcd75018f0e45dfb9a271d86631c70320606e85000000006b483045022100d59ddc4b41c5a249354f55508750aac9f78b6b3b3254e404c7a6311a4166c8f4022076a455a3ddd927192f44b57d5a7989d0c4d1c49b9ef11797935a533f89ebcbf601210324ab71fee242d92edbd6aaf7cdd3dbd7987a22718b53f2b0e04ba68ca51a96a3ffffffff02000e2707000000001976a9144acac00c8a514b420a0dab2bc33afb575f5d3d8f88acc005d302000000001976a914f4a9bfeed72525e97403d5d6616fb7c0a4c8d61188ac00000000", "vin": [{"sequence": 4294967295, "scriptSig": {"hex": "47304402206938eef426696bd43b487780338aa31c9ebe0221382543e2d8517ac6f13deab9022043435aaabc4a3be62eaee51dc6b8bbfe1e47107541b87039a9289163a684dfaf012103575c3661319507f7f9cadb827388e274f25fef87e9525fdc7c328beb3d3c6ed2", "asm": "304402206938eef426696bd43b487780338aa31c9ebe0221382543e2d8517ac6f13deab9022043435aaabc4a3be62eaee51dc6b8bbfe1e47107541b87039a9289163a684dfaf[ALL] 03575c3661319507f7f9cadb827388e274f25fef87e9525fdc7c328beb3d3c6ed2"}, "vout": 1, "txid": "856e602003c73166d871a2b9df450e8f0175cdbd78e50e752f5c04271dc30204"}, {"sequence": 4294967295, "scriptSig": {"hex": "483045022100d59ddc4b41c5a249354f55508750aac9f78b6b3b3254e404c7a6311a4166c8f4022076a455a3ddd927192f44b57d5a7989d0c4d1c49b9ef11797935a533f89ebcbf601210324ab71fee242d92edbd6aaf7cdd3dbd7987a22718b53f2b0e04ba68ca51a96a3", "asm": "3045022100d59ddc4b41c5a249354f55508750aac9f78b6b3b3254e404c7a6311a4166c8f4022076a455a3ddd927192f44b57d5a7989d0c4d1c49b9ef11797935a533f89ebcbf6[ALL] 0324ab71fee242d92edbd6aaf7cdd3dbd7987a22718b53f2b0e04ba68ca51a96a3"}, "vout": 0, "txid": "856e602003c73166d871a2b9df450e8f0175cdbd78e50e752f5c04271dc30204"}], "txid": "a9c1940933b7b9f0869c50d74e55f16528d0c3caa3462c868d8a9c4100f249ea", "blocktime": 1537875543, "version": 1, "confirmations": 11464, "time": 1537875543, "locktime": 0, "vsize": 373, "size": 373}