{"hash": "f02a93f4f0f53f4fc1d4779729817a35a2b30089cb956cc85218932c7eb81645", "blockhash": "0000000000000000000e13cef7c366c0283d82e591d1acd082e914b08063cdf1", "vout": [{"scriptPubKey": {"reqSigs": 1, "hex": "76a9142a928db9e042ea535c4b421063a76a14ccd13aec88ac", "addresses": ["14t6wnHPzr48mYvEXYicoEqoY7QAcYVeDX"], "asm": "OP_DUP OP_HASH160 2a928db9e042ea535c4b421063a76a14ccd13aec OP_EQUALVERIFY OP_CHECKSIG", "type": "pubkeyhash"}, "value": 4.0, "n": 0}, {"scriptPubKey": {"reqSigs": 1, "hex": "a914196ad98f2d210c4f8849837d6f7a0ef18f0b1c2f87", "addresses": ["341QpPxU9ZzSmURpd7XNJgF9CmZLCzpssq"], "asm": "OP_HASH160 196ad98f2d210c4f8849837d6f7a0ef18f0b1c2f OP_EQUAL", "type": "scripthash"}, "value": 0.3999934, "n": 1}], "hex": "01000000000102e99863f71096178b4371437bb1966d5170095e345ac73af97a20113394c3cd810100000017160014aa158fc604d026aea941669b7b46f8db011d2b60ffffff004092cd539bb9a71f79fc343441f2cbee28bb1c0e1d500cbb2810ad33af646cbc010000001716001401f2ec1953c84a681f7b68aec7a144575b02d2aaffffff00020084d717000000001976a9142a928db9e042ea535c4b421063a76a14ccd13aec88ac6c5762020000000017a914196ad98f2d210c4f8849837d6f7a0ef18f0b1c2f87024730440220705664c11ce06f7127b4456aa1314813a95ffa297f3ba334e1d616c7f6d79cad022074f3682b6c94d1ab57853204a7dbdceac8d721e2a2d5cd61deee14e80c32758b0121032e06c409350e2a41051cb69f5db88d4ce00530164a707040f8d306ba9e79274402483045022100e2f2deb7bd661e142be2f4b95669bcdb7a99dcc4e95d9254b3b70d0b9254f87a0220027c579dfc3ee67a77c299b4feaf236d3cb1c43b87726d81dffd5b58b27b5955012103ab185cfc214ef66bea4d90a2a79c3cb978941df92f951f38dff92cd2e3797d0900000000", "vin": [{"txinwitness": ["30440220705664c11ce06f7127b4456aa1314813a95ffa297f3ba334e1d616c7f6d79cad022074f3682b6c94d1ab57853204a7dbdceac8d721e2a2d5cd61deee14e80c32758b01", "032e06c409350e2a41051cb69f5db88d4ce00530164a707040f8d306ba9e792744"], "sequence": 16777215, "scriptSig": {"hex": "160014aa158fc604d026aea941669b7b46f8db011d2b60", "asm": "0014aa158fc604d026aea941669b7b46f8db011d2b60"}, "vout": 1, "txid": "81cdc3943311207af93ac75a345e0970516d96b17b4371438b179610f76398e9"}, {"txinwitness": ["3045022100e2f2deb7bd661e142be2f4b95669bcdb7a99dcc4e95d9254b3b70d0b9254f87a0220027c579dfc3ee67a77c299b4feaf236d3cb1c43b87726d81dffd5b58b27b595501", "03ab185cfc214ef66bea4d90a2a79c3cb978941df92f951f38dff92cd2e3797d09"], "sequence": 16777215, "scriptSig": {"hex": "16001401f2ec1953c84a681f7b68aec7a144575b02d2aa", "asm": "001401f2ec1953c84a681f7b68aec7a144575b02d2aa"}, "vout": 1, "txid": "bc6c64af33ad1028bb0c501d0e1cbb28eecbf2413434fc791fa7b99b53cd9240"}], "txid": "a9c381d04e6d11c451319fd8976dfc9f0d2a06341064185b9008c409e92b491f", "blocktime": 1537871767, "version": 1, "confirmations": 11495, "time": 1537871767, "locktime": 0, "vsize": 259, "size": 421}