{"hash": "a9c4a18f77284ea61303a2cf7eba899ef96f74d6c222c722bd1cfa7d9682a1f9", "blockhash": "0000000000000000000dcc0f55137456b1a82d3642486a52398922ac4d620174", "vout": [{"scriptPubKey": {"reqSigs": 1, "hex": "a9143febd80a6389f53b62b667d354e244c943b9548e87", "addresses": ["37X12MKPypcgjfj7BKuSjZpcmPV4yJL8d1"], "asm": "OP_HASH160 3febd80a6389f53b62b667d354e244c943b9548e OP_EQUAL", "type": "scripthash"}, "value": 0.00138811, "n": 0}, {"scriptPubKey": {"reqSigs": 1, "hex": "76a9144841703c01e6e4f52e57e9c359485a03f5ed66d788ac", "addresses": ["17b43Z41XktNMtYaQAeZcj4aAsT5d7tiVT"], "asm": "OP_DUP OP_HASH160 4841703c01e6e4f52e57e9c359485a03f5ed66d7 OP_EQUALVERIFY OP_CHECKSIG", "type": "pubkeyhash"}, "value": 0.13037475, "n": 1}], "hex": "0100000001fbd8546c188fba8efc2b566cb7327d7a9c86d3c6358df711c947e374450e7fc1010000006a473044022012a1ce5c3764c522fb116cf1640053a66dc74b1969cccc0573507ce99252f11302205a7bb43ff993b08005ca5fbe2021cb3ff97c641504e475ec9a38b5c7c926e0630121039664361c175a5b0e78ff8fc03a25c02c17ab04e5add7f83534967d3bc12c7eafffffffff023b1e02000000000017a9143febd80a6389f53b62b667d354e244c943b9548e87a3efc600000000001976a9144841703c01e6e4f52e57e9c359485a03f5ed66d788ac00000000", "vin": [{"sequence": 4294967295, "scriptSig": {"hex": "473044022012a1ce5c3764c522fb116cf1640053a66dc74b1969cccc0573507ce99252f11302205a7bb43ff993b08005ca5fbe2021cb3ff97c641504e475ec9a38b5c7c926e0630121039664361c175a5b0e78ff8fc03a25c02c17ab04e5add7f83534967d3bc12c7eaf", "asm": "3044022012a1ce5c3764c522fb116cf1640053a66dc74b1969cccc0573507ce99252f11302205a7bb43ff993b08005ca5fbe2021cb3ff97c641504e475ec9a38b5c7c926e063[ALL] 039664361c175a5b0e78ff8fc03a25c02c17ab04e5add7f83534967d3bc12c7eaf"}, "vout": 1, "txid": "c17f0e4574e347c911f78d35c6d3869c7a7d32b76c562bfc8eba8f186c54d8fb"}], "txid": "a9c4a18f77284ea61303a2cf7eba899ef96f74d6c222c722bd1cfa7d9682a1f9", "blocktime": 1537870268, "version": 1, "confirmations": 11516, "time": 1537870268, "locktime": 0, "vsize": 223, "size": 223}