{"hash": "a9c53e8214acf13b6ad160bdf60335f4f98a23625fa85132e4cebe63c3124433", "blockhash": "0000000000000000000dcc0f55137456b1a82d3642486a52398922ac4d620174", "vout": [{"scriptPubKey": {"reqSigs": 1, "hex": "a914da4977c0e836c316407f878e75aaebd1ac67655887", "addresses": ["3MbDEzcXSeU66FD88pe8YeNy3jY7ansyXb"], "asm": "OP_HASH160 da4977c0e836c316407f878e75aaebd1ac676558 OP_EQUAL", "type": "scripthash"}, "value": 0.02337606, "n": 0}, {"scriptPubKey": {"reqSigs": 1, "hex": "76a914db8252d9964e22a248d4c45be606abe3c2acb70a88ac", "addresses": ["1M1f74E3Z2eErgKHCUH9p9oAhrFtDYxVEw"], "asm": "OP_DUP OP_HASH160 db8252d9964e22a248d4c45be606abe3c2acb70a OP_EQUALVERIFY OP_CHECKSIG", "type": "pubkeyhash"}, "value": 0.02393809, "n": 1}], "hex": "01000000012ef61c0c6c4367b3cd3d741428941fa65e1503dfca9507cb3094d65c4e9942af280000006b483045022100eff083c5b5a4da18feacda7a10656761b8fd2a30b25e33d3201a9aaffd836a0302201cdcfc20e42cbf29376c3776eccefb039ae01e39c35645fc5c6d8cac3e3572c401210209bb41b89219171c45318cd5ba7cba72cf26225a5e13d2e4aa73382fb71a465affffffff0246ab23000000000017a914da4977c0e836c316407f878e75aaebd1ac67655887d1862400000000001976a914db8252d9964e22a248d4c45be606abe3c2acb70a88ac00000000", "vin": [{"sequence": 4294967295, "scriptSig": {"hex": "483045022100eff083c5b5a4da18feacda7a10656761b8fd2a30b25e33d3201a9aaffd836a0302201cdcfc20e42cbf29376c3776eccefb039ae01e39c35645fc5c6d8cac3e3572c401210209bb41b89219171c45318cd5ba7cba72cf26225a5e13d2e4aa73382fb71a465a", "asm": "3045022100eff083c5b5a4da18feacda7a10656761b8fd2a30b25e33d3201a9aaffd836a0302201cdcfc20e42cbf29376c3776eccefb039ae01e39c35645fc5c6d8cac3e3572c4[ALL] 0209bb41b89219171c45318cd5ba7cba72cf26225a5e13d2e4aa73382fb71a465a"}, "vout": 40, "txid": "af42994e5cd69430cb0795cadf03155ea61f942814743dcdb367436c0c1cf62e"}], "txid": "a9c53e8214acf13b6ad160bdf60335f4f98a23625fa85132e4cebe63c3124433", "blocktime": 1537870268, "version": 1, "confirmations": 11516, "time": 1537870268, "locktime": 0, "vsize": 224, "size": 224}