{"hash": "cd505c5541c18a9d02735cb48a1669c4f809271d5e04657ae48b30096a3c7c3f", "blockhash": "0000000000000000001f76057863aec43deb6fa401d9628bb513d65a8098bfab", "vout": [{"scriptPubKey": {"reqSigs": 1, "hex": "76a9144ad0e862490c1f7769be5121805f7582780887fe88ac", "addresses": ["17pbGMuHMgKrwKL3QeFKAvy3AmCqFHLJ4v"], "asm": "OP_DUP OP_HASH160 4ad0e862490c1f7769be5121805f7582780887fe OP_EQUALVERIFY OP_CHECKSIG", "type": "pubkeyhash"}, "value": 0.00369405, "n": 0}, {"scriptPubKey": {"reqSigs": 1, "hex": "a914a5c679defd49547b8133a1367eeadbdeaecec3da87", "addresses": ["3GoZBZ6F8g4UiCt7moPNLDX7KKwgtGgLUT"], "asm": "OP_HASH160 a5c679defd49547b8133a1367eeadbdeaecec3da OP_EQUAL", "type": "scripthash"}, "value": 0.31102199, "n": 1}], "hex": "01000000000101ff6ca05ebcbda3f95aa515864776f411f0d9bdf1b5bf2020b585b40263ecd1a601000000232200202d90cd274cea8141a030c0b79acc5b5c0b80b73d028692a1104913808bff6c09ffffffff02fda20500000000001976a9144ad0e862490c1f7769be5121805f7582780887fe88acf794da010000000017a914a5c679defd49547b8133a1367eeadbdeaecec3da87040047304402206173766962e3738fccac436f94f4ea4e3d61eda8b13d0a6d89e36627ac0f77a802201b3bd6e53bf6842f47ad18647c8c364a7dd54327fc4869d42fed54f7b422b81e014730440220168030c28198a219ec1894b2c7c9ca302194b259ea4025e1da307ae29c880733022038ad59a4699f0fa06e1ae2f234ed7bb0c0a3dd0bae5bcbf743c6078d467b7cfb014752210295d70c0f10033e6e119fdc61ddd495bfe23995150af6df4688db5bf235f2853b21023e4b58fb2a91970de56515d11487aabd364f0404f1099bef70493cc56002342352ae00000000", "vin": [{"txinwitness": ["", "304402206173766962e3738fccac436f94f4ea4e3d61eda8b13d0a6d89e36627ac0f77a802201b3bd6e53bf6842f47ad18647c8c364a7dd54327fc4869d42fed54f7b422b81e01", "30440220168030c28198a219ec1894b2c7c9ca302194b259ea4025e1da307ae29c880733022038ad59a4699f0fa06e1ae2f234ed7bb0c0a3dd0bae5bcbf743c6078d467b7cfb01", "52210295d70c0f10033e6e119fdc61ddd495bfe23995150af6df4688db5bf235f2853b21023e4b58fb2a91970de56515d11487aabd364f0404f1099bef70493cc56002342352ae"], "sequence": 4294967295, "scriptSig": {"hex": "2200202d90cd274cea8141a030c0b79acc5b5c0b80b73d028692a1104913808bff6c09", "asm": "00202d90cd274cea8141a030c0b79acc5b5c0b80b73d028692a1104913808bff6c09"}, "vout": 1, "txid": "a6d1ec6302b485b52020bfb5f1bdd9f011f476478615a55af9a3bdbc5ea06cff"}], "txid": "a9cb613d06e09fac229c41b521a3f73f3e8dcbe8e6ea604f79962d99bd005633", "blocktime": 1537873891, "version": 1, "confirmations": 11478, "time": 1537873891, "locktime": 0, "vsize": 207, "size": 372}