{"hash": "f578b8079b8d428d0a5058410a6a536df66151da6988a66276719ddc46beaec3", "blockhash": "0000000000000000001e0dab787dd257d1dbfcb92a98c2207d5e1078be1f4165", "vout": [{"scriptPubKey": {"reqSigs": 1, "hex": "a91430897cc6c9d69f6a2c2f1c651d51f22219f1a4f687", "addresses": ["367f4YWz1VCFaqBqwbTrzwi2b1h2U3w1AF"], "asm": "OP_HASH160 30897cc6c9d69f6a2c2f1c651d51f22219f1a4f6 OP_EQUAL", "type": "scripthash"}, "value": 0.0109053, "n": 0}, {"scriptPubKey": {"reqSigs": 1, "hex": "a91469f376783f6f661d40231d026357e4147f78107c87", "addresses": ["3BMEXmxUfXCJ2EuqopgvU64YnuFsEqBzwr"], "asm": "OP_HASH160 69f376783f6f661d40231d026357e4147f78107c OP_EQUAL", "type": "scripthash"}, "value": 0.00050783, "n": 1}], "hex": "01000000000102337056f1d7425d8b47cd366de05c589bf1f98a9edbc92cd6ff192ca589d9994b0000000023220020bcf9f822194145acea0f3235f4107b5bf1a91b6b9f8489f63bf79ec29b360913ffffffff556bd18080f1ecfc46cbbced931272e6bd583c6fed67b5a9a65ac3416924387e5d000000694630430220701187f83cd01b07307de11cdbb2e71f9d085c1507c44a9e0cf4d215091ecd31021f4180e88660a6baa449518c676e686e9e762cf2c079b88a216746021248f385012102745747e49b3620a36bb0e83d5403edcc0a1fc74935354a62d47642e56ee013eeffffffff02e2a310000000000017a91430897cc6c9d69f6a2c2f1c651d51f22219f1a4f6875fc600000000000017a91469f376783f6f661d40231d026357e4147f78107c870400473044022076c28dc1d2123160781a07cb28d75daa6fbdde4a70c2419bc7c716ab9802de440220464d965c3469b15b866f3fe677a8bc89fcbef75f6daf79311d83f6259c38d036014830450221009c60749f53374eac94206899978101ad59c8115b53e02534ad0d61c13d9dc067022003aa9a67a7782a220034032b1808b309202b7335993253b542a2e812255bacaa01695221026c8f72b9e63db63907115e65d4da86eaae595b22fdc85ec75301bb4adbf203582103806535be3e3920e5eedee92de5714188fd6a784f2bf7b04f87de0b9c3ae1ecdb21024b23bfdce2afcae7e28c42f7f79aa100f22931712c52d7414a526ba494d44a2553ae0000000000", "vin": [{"txinwitness": ["", "3044022076c28dc1d2123160781a07cb28d75daa6fbdde4a70c2419bc7c716ab9802de440220464d965c3469b15b866f3fe677a8bc89fcbef75f6daf79311d83f6259c38d03601", "30450221009c60749f53374eac94206899978101ad59c8115b53e02534ad0d61c13d9dc067022003aa9a67a7782a220034032b1808b309202b7335993253b542a2e812255bacaa01", "5221026c8f72b9e63db63907115e65d4da86eaae595b22fdc85ec75301bb4adbf203582103806535be3e3920e5eedee92de5714188fd6a784f2bf7b04f87de0b9c3ae1ecdb21024b23bfdce2afcae7e28c42f7f79aa100f22931712c52d7414a526ba494d44a2553ae"], "sequence": 4294967295, "scriptSig": {"hex": "220020bcf9f822194145acea0f3235f4107b5bf1a91b6b9f8489f63bf79ec29b360913", "asm": "0020bcf9f822194145acea0f3235f4107b5bf1a91b6b9f8489f63bf79ec29b360913"}, "vout": 0, "txid": "4b99d989a52c19ffd62cc9db9e8af9f19b585ce06d36cd478b5d42d7f1567033"}, {"sequence": 4294967295, "scriptSig": {"hex": "4630430220701187f83cd01b07307de11cdbb2e71f9d085c1507c44a9e0cf4d215091ecd31021f4180e88660a6baa449518c676e686e9e762cf2c079b88a216746021248f385012102745747e49b3620a36bb0e83d5403edcc0a1fc74935354a62d47642e56ee013ee", "asm": "30430220701187f83cd01b07307de11cdbb2e71f9d085c1507c44a9e0cf4d215091ecd31021f4180e88660a6baa449518c676e686e9e762cf2c079b88a216746021248f385[ALL] 02745747e49b3620a36bb0e83d5403edcc0a1fc74935354a62d47642e56ee013ee"}, "vout": 93, "txid": "7e38246941c35aa6a9b567ed6f3c58bde6721293edbccb46fcecf18080d16b55"}], "txid": "a9cf43b342b50071c8bbfcdf72e0da21bff8f446b7323ac8796595728347baa5", "blocktime": 1537872475, "version": 1, "confirmations": 11486, "time": 1537872475, "locktime": 0, "vsize": 360, "size": 552}