{"hash": "1ad13ab66a6dd1faba6158234fd2da20b002716308636815b7e93f79c6596118", "blockhash": "0000000000000000000dcc0f55137456b1a82d3642486a52398922ac4d620174", "vout": [{"scriptPubKey": {"reqSigs": 1, "hex": "001413d8b2c66eac847d858dcb0f561fe710c10f8306", "addresses": ["bc1qz0vt93nw4jz8mpvdev84v8l8zrqslqcx0mzgnl"], "asm": "0 13d8b2c66eac847d858dcb0f561fe710c10f8306", "type": "witness_v0_keyhash"}, "value": 3.991e-05, "n": 0}, {"scriptPubKey": {"reqSigs": 1, "hex": "a914c6d5f3b52b7b28b9be2fd49d6430e8a573d65fa187", "addresses": ["3KpN2Ar5zZV3KkVeV9BX7scj24kkR1U3ee"], "asm": "OP_HASH160 c6d5f3b52b7b28b9be2fd49d6430e8a573d65fa1 OP_EQUAL", "type": "scripthash"}, "value": 0.00476178, "n": 1}], "hex": "01000000000101a26ad168822fe33241ee9812d9cadc234548a71f076dd25667b7aea0ed0984ac0100000000ffffffff02970f00000000000016001413d8b2c66eac847d858dcb0f561fe710c10f8306124407000000000017a914c6d5f3b52b7b28b9be2fd49d6430e8a573d65fa18702483045022100cf2aa7723231af3e792c80633f2629bca12f8f324f258ece93565042b9262be70220188e72912fa3ab52dc6f439488f759e4a269ac7d343f2e4bdf6c8ae1248377f7012103f8bac73746bff70c4ada61bc47763dd51a9af7c16a181fb9c351767ed0a6d57800000000", "vin": [{"txinwitness": ["3045022100cf2aa7723231af3e792c80633f2629bca12f8f324f258ece93565042b9262be70220188e72912fa3ab52dc6f439488f759e4a269ac7d343f2e4bdf6c8ae1248377f701", "03f8bac73746bff70c4ada61bc47763dd51a9af7c16a181fb9c351767ed0a6d578"], "sequence": 4294967295, "scriptSig": {"hex": "", "asm": ""}, "vout": 1, "txid": "ac8409eda0aeb76756d26d071fa7484523dccad91298ee4132e32f8268d16aa2"}], "txid": "a9d4fbb3144a75296ae25b0fa7e7d2be3a1b0373bfcfe904962ee73a587a9dd0", "blocktime": 1537870268, "version": 1, "confirmations": 11518, "time": 1537870268, "locktime": 0, "vsize": 142, "size": 224}