{"hash": "951828d3a35702bbe1a5f656ddd2a67a827a973ab7b3445d6af1608a0ad0dcd9", "blockhash": "0000000000000000000e13cef7c366c0283d82e591d1acd082e914b08063cdf1", "vout": [{"scriptPubKey": {"reqSigs": 1, "hex": "002058c8797f181e000075cb9a18a9662013b795012e86acc04d56a2d229e7b8d7c4", "addresses": ["bc1qtry8jlccrcqqqawtngv2je3qzwme2qfws6kvqn2k5tfzneac6lzqpgummp"], "asm": "0 58c8797f181e000075cb9a18a9662013b795012e86acc04d56a2d229e7b8d7c4", "type": "witness_v0_scripthash"}, "value": 0.00343214, "n": 0}], "hex": "010000000001012e12fa33fb085adf5d23302db067d96462e78a3da857e34d3871b9ff3c2e4b680100000017160014fdbbbd9b4ee93d3d3476be31f96d0a6b785cd724ffffffff01ae3c05000000000022002058c8797f181e000075cb9a18a9662013b795012e86acc04d56a2d229e7b8d7c402483045022100bd7eef12d023b692c75c022e4143c9ab679a3402783dac449dc83f12e2b33b72022007e2ddc044939f00f653b8b961783241e8762a91c4335841ada4c8e9b0f40794012103a2afc13bb4e8e958054d713306fbbfd14482808be56c0fb5f4be0039b29402a300000000", "vin": [{"txinwitness": ["3045022100bd7eef12d023b692c75c022e4143c9ab679a3402783dac449dc83f12e2b33b72022007e2ddc044939f00f653b8b961783241e8762a91c4335841ada4c8e9b0f4079401", "03a2afc13bb4e8e958054d713306fbbfd14482808be56c0fb5f4be0039b29402a3"], "sequence": 4294967295, "scriptSig": {"hex": "160014fdbbbd9b4ee93d3d3476be31f96d0a6b785cd724", "asm": "0014fdbbbd9b4ee93d3d3476be31f96d0a6b785cd724"}, "vout": 1, "txid": "684b2e3cffb971384de357a83d8ae76264d967b02d30235ddf5a08fb33fa122e"}], "txid": "a9d63ade34970b46c009451d13e068215dc793a2e4ba83200e42c1f370cfd90f", "blocktime": 1537871767, "version": 1, "confirmations": 11495, "time": 1537871767, "locktime": 0, "vsize": 145, "size": 227}