{"hash": "a9da8a814fbaea51c1e01ba8bff45976623f5ea6a4fb35461e65efea59ed7a67", "blockhash": "0000000000000000001e0dab787dd257d1dbfcb92a98c2207d5e1078be1f4165", "vout": [{"scriptPubKey": {"reqSigs": 1, "hex": "76a9143cd5a4c9fdb491872108d4a21a505d7b769a28ea88ac", "addresses": ["16YfUjcyv4Nyqwd9TTy5heg6wkE6QxauEv"], "asm": "OP_DUP OP_HASH160 3cd5a4c9fdb491872108d4a21a505d7b769a28ea OP_EQUALVERIFY OP_CHECKSIG", "type": "pubkeyhash"}, "value": 0.00061659, "n": 0}, {"scriptPubKey": {"reqSigs": 1, "hex": "76a9144310289f39f65217e0926ab6dd0550dd018f3e7888ac", "addresses": ["177bdaVJgabQ9N4wMkiBaX1WjHmxAY9Aqr"], "asm": "OP_DUP OP_HASH160 4310289f39f65217e0926ab6dd0550dd018f3e78 OP_EQUALVERIFY OP_CHECKSIG", "type": "pubkeyhash"}, "value": 0.00937195, "n": 1}], "hex": "0100000001c30aa456ed9e3b8ce9accb9aeb322f555bdf87d4515142722f4aad0e2e499ebe000000008b483045022100ec4128a1df8a9eea509b69332998822770b46407a5f007454e50c9ad31f13a8e02206c58981828ec7664934761e770d1630496dc3603a16b19602d973956b0eabd410141042b1b5a1307eddbea0d229c628b33ac71e05a5a73a3798a24179a62f2bb3b845868eb63ebb6d4862c01e3577d614cf1c449e3d29a12dda32ce22b7c75ebe3ebcfffffffff02dbf00000000000001976a9143cd5a4c9fdb491872108d4a21a505d7b769a28ea88aceb4c0e00000000001976a9144310289f39f65217e0926ab6dd0550dd018f3e7888ac00000000", "vin": [{"sequence": 4294967295, "scriptSig": {"hex": "483045022100ec4128a1df8a9eea509b69332998822770b46407a5f007454e50c9ad31f13a8e02206c58981828ec7664934761e770d1630496dc3603a16b19602d973956b0eabd410141042b1b5a1307eddbea0d229c628b33ac71e05a5a73a3798a24179a62f2bb3b845868eb63ebb6d4862c01e3577d614cf1c449e3d29a12dda32ce22b7c75ebe3ebcf", "asm": "3045022100ec4128a1df8a9eea509b69332998822770b46407a5f007454e50c9ad31f13a8e02206c58981828ec7664934761e770d1630496dc3603a16b19602d973956b0eabd41[ALL] 042b1b5a1307eddbea0d229c628b33ac71e05a5a73a3798a24179a62f2bb3b845868eb63ebb6d4862c01e3577d614cf1c449e3d29a12dda32ce22b7c75ebe3ebcf"}, "vout": 0, "txid": "be9e492e0ead4a2f72425151d487df5b552f32eb9acbace98c3b9eed56a40ac3"}], "txid": "a9da8a814fbaea51c1e01ba8bff45976623f5ea6a4fb35461e65efea59ed7a67", "blocktime": 1537872475, "version": 1, "confirmations": 11486, "time": 1537872475, "locktime": 0, "vsize": 258, "size": 258}