{"hash": "380f2b249c978b5a4fc597117f5b55cad9e7a3db6466eef92a2ace7c3cad48e2", "blockhash": "0000000000000000001cda96e906b7601b7a6fb1a3b62bca570a9e5d8f4b3de1", "vout": [{"scriptPubKey": {"reqSigs": 1, "hex": "a914f3767c86efe87326d973659b638fed3283fd11c587", "addresses": ["3PtL4jte7yvfzzET5d1wgfreuAjvqaAmS1"], "asm": "OP_HASH160 f3767c86efe87326d973659b638fed3283fd11c5 OP_EQUAL", "type": "scripthash"}, "value": 0.107, "n": 0}, {"scriptPubKey": {"reqSigs": 1, "hex": "a914c1f4398b0608ac3f05f6dfee95c6005eb3cbc94787", "addresses": ["3KNYubsaTdbwVeKf6jJH2ZKn18RAsvAiP1"], "asm": "OP_HASH160 c1f4398b0608ac3f05f6dfee95c6005eb3cbc947 OP_EQUAL", "type": "scripthash"}, "value": 0.33835043, "n": 1}], "hex": "0200000000010167ac764d5b21569874883fcf9d94e024bc123c39df23e196597801ba1d3b75b90000000017160014b28347e62f739237b019b8367ae7fde05c2c2f77fdffffff02e044a3000000000017a914f3767c86efe87326d973659b638fed3283fd11c587234804020000000017a914c1f4398b0608ac3f05f6dfee95c6005eb3cbc9478702473044022076cd8810e2a5e430155ee637fd6330f531ad1e9be4e3cf773d6c34fda5a200fe02205754b4bda4b6301e8bc6c2437fbdce2ef8ba69d3347eaaa5ea2621976984e41a012102ee1f1d99c2f5acc24ec9d7b0b46f594a4c6795116dbbc3459f1826e76a370c5212490800", "vin": [{"txinwitness": ["3044022076cd8810e2a5e430155ee637fd6330f531ad1e9be4e3cf773d6c34fda5a200fe02205754b4bda4b6301e8bc6c2437fbdce2ef8ba69d3347eaaa5ea2621976984e41a01", "02ee1f1d99c2f5acc24ec9d7b0b46f594a4c6795116dbbc3459f1826e76a370c52"], "sequence": 4294967293, "scriptSig": {"hex": "160014b28347e62f739237b019b8367ae7fde05c2c2f77", "asm": "0014b28347e62f739237b019b8367ae7fde05c2c2f77"}, "vout": 0, "txid": "b9753b1dba01785996e123df393c12bc24e0949dcf3f88749856215b4d76ac67"}], "txid": "a9dc791e3b4c51d39ac47174ec6a20228c00a8777a4fca40964242d2d5c8cd82", "blocktime": 1537873282, "version": 2, "confirmations": 11484, "time": 1537873282, "locktime": 542994, "vsize": 166, "size": 247}