{"hash": "18012113fb277c11a3e787b49e0a7199469b2167ac66b6b236b7dad2c3691d90", "blockhash": "0000000000000000000baef3f32e3676a92c3b2e5da21b426e4f302fc371ce76", "vout": [{"scriptPubKey": {"reqSigs": 1, "hex": "76a9148259defaa576f549a1f52bbde267971775d36a6588ac", "addresses": ["1CtEWHYttUXzithiYy57VhQpsJzcpucUv4"], "asm": "OP_DUP OP_HASH160 8259defaa576f549a1f52bbde267971775d36a65 OP_EQUALVERIFY OP_CHECKSIG", "type": "pubkeyhash"}, "value": 0.0373, "n": 0}, {"scriptPubKey": {"reqSigs": 1, "hex": "76a9141e8a8a0a0853735e79b23bab3e9eeaa27f2bd06588ac", "addresses": ["13nVEdSpQnqS9NHJVC641JQGEBLfe9AHQg"], "asm": "OP_DUP OP_HASH160 1e8a8a0a0853735e79b23bab3e9eeaa27f2bd065 OP_EQUALVERIFY OP_CHECKSIG", "type": "pubkeyhash"}, "value": 0.0075, "n": 1}, {"scriptPubKey": {"reqSigs": 1, "hex": "76a9147ff02e7ec2314fd95c99b3c83d33a954cb5c03ab88ac", "addresses": ["1CfUYUVsc1gb9caCDQjwTwQ8jDY3B1ZRU3"], "asm": "OP_DUP OP_HASH160 7ff02e7ec2314fd95c99b3c83d33a954cb5c03ab OP_EQUALVERIFY OP_CHECKSIG", "type": "pubkeyhash"}, "value": 0.08356459, "n": 2}, {"scriptPubKey": {"reqSigs": 1, "hex": "76a9142a2c53c21db1a974e5636a5b4199742dadefd9db88ac", "addresses": ["14qzUxsqiKoeNCnwqvZGQYDRL9R8GCcgsu"], "asm": "OP_DUP OP_HASH160 2a2c53c21db1a974e5636a5b4199742dadefd9db OP_EQUALVERIFY OP_CHECKSIG", "type": "pubkeyhash"}, "value": 0.014814, "n": 3}, {"scriptPubKey": {"reqSigs": 1, "hex": "a91430b5267eaeabce3d4fe9f7523f4a21274ee2cb7387", "addresses": ["368ZNJMW796tn8qxEJXK6SXykSEXf5694L"], "asm": "OP_HASH160 30b5267eaeabce3d4fe9f7523f4a21274ee2cb73 OP_EQUAL", "type": "scripthash"}, "value": 0.003115, "n": 4}, {"scriptPubKey": {"reqSigs": 1, "hex": "a914343a312d4eecf4e7ee630551854e54e09fc2900a87", "addresses": ["36TAmn1GqqAsN7hPLF2mY8xiESa9qWGpNF"], "asm": "OP_HASH160 343a312d4eecf4e7ee630551854e54e09fc2900a OP_EQUAL", "type": "scripthash"}, "value": 0.0012, "n": 5}, {"scriptPubKey": {"reqSigs": 1, "hex": "a914c8d5028a6938965065be88c6381837e91d0e2adb87", "addresses": ["3KzvF6goaqrwGEGrYptcUB72g127jLq5PB"], "asm": "OP_HASH160 c8d5028a6938965065be88c6381837e91d0e2adb OP_EQUAL", "type": "scripthash"}, "value": 20.99957188, "n": 6}], "hex": "0200000000010115ae8062803056e1672885d7b38ee31322165b62c040174c70faafb0ab557e0a01000000171600148cb31053cf00b7aa047e7ce52ce587f4cde0651afdffffff0750ea3800000000001976a9148259defaa576f549a1f52bbde267971775d36a6588acb0710b00000000001976a9141e8a8a0a0853735e79b23bab3e9eeaa27f2bd06588ac6b827f00000000001976a9147ff02e7ec2314fd95c99b3c83d33a954cb5c03ab88acb89a1600000000001976a9142a2c53c21db1a974e5636a5b4199742dadefd9db88acccc004000000000017a91430b5267eaeabce3d4fe9f7523f4a21274ee2cb7387c0d401000000000017a914343a312d4eecf4e7ee630551854e54e09fc2900a87c4cd2a7d0000000017a914c8d5028a6938965065be88c6381837e91d0e2adb870247304402204b6dc8f9cc30ed9cbc6b2f139899a85e5c9328cdef65cd340a7032e0d6a1d947022007a1afeca89dbbadb619f6b41fec77bdf54badd76814c4c21b9fb0f4e1d75f45012102a3008b67cd150e48a7863c3bc1ca86a674c79d160cb3cbeb8c4e272ee0e2114317490800", "vin": [{"txinwitness": ["304402204b6dc8f9cc30ed9cbc6b2f139899a85e5c9328cdef65cd340a7032e0d6a1d947022007a1afeca89dbbadb619f6b41fec77bdf54badd76814c4c21b9fb0f4e1d75f4501", "02a3008b67cd150e48a7863c3bc1ca86a674c79d160cb3cbeb8c4e272ee0e21143"], "sequence": 4294967293, "scriptSig": {"hex": "1600148cb31053cf00b7aa047e7ce52ce587f4cde0651a", "asm": "00148cb31053cf00b7aa047e7ce52ce587f4cde0651a"}, "vout": 1, "txid": "0a7e55abb0affa704c1740c0625b162213e38eb3d7852867e15630806280ae15"}], "txid": "a9de3b335a3dc6fb200c7767f37750891069bfb1faa7b0c47f9cc0a2abdb6330", "blocktime": 1537876114, "version": 2, "confirmations": 11459, "time": 1537876114, "locktime": 542999, "vsize": 334, "size": 415}