{"hash": "a9e1a7d82a46e28b7b60620fbfa0e808e61d260728713b54393d960a14ab6d84", "blockhash": "0000000000000000001f0ddff1eddb255c1121bcd4da4f1bc9a0da00cae72433", "vout": [{"scriptPubKey": {"reqSigs": 1, "hex": "76a9149c9c02486291222ad3c5bd11e56271775105497988ac", "addresses": ["1FH5JcgJaLqn3xAEPMJ1Mx9tENsLvxDD6t"], "asm": "OP_DUP OP_HASH160 9c9c02486291222ad3c5bd11e562717751054979 OP_EQUALVERIFY OP_CHECKSIG", "type": "pubkeyhash"}, "value": 0.00234, "n": 0}, {"scriptPubKey": {"reqSigs": 1, "hex": "76a9145398237472f703531bd1772b714224fa3f96ccdb88ac", "addresses": ["18d1Lh1tQiAqrtSTvySiUUUQjuyrZvDQJq"], "asm": "OP_DUP OP_HASH160 5398237472f703531bd1772b714224fa3f96ccdb OP_EQUALVERIFY OP_CHECKSIG", "type": "pubkeyhash"}, "value": 0.02881005, "n": 1}], "hex": "01000000019a06a5139ddd8b3b87469a10013f5d127c84225c472d76d87b176d9c1e9f1c0d020000006b483045022100e37b915e09766eb4465cad26fc0beb1af0046dc5eb8ff497fb05fb5db667adb602200fda843ee69cd0118a2a7d1b8f1b40b043859f10f5e688fa1380f0a338024a790121031221a5a7ab2e5f50719a92d9786f96fd2a3948d5a5b53fe6c0eea0d01a0d55afffffffff0210920300000000001976a9149c9c02486291222ad3c5bd11e56271775105497988acedf52b00000000001976a9145398237472f703531bd1772b714224fa3f96ccdb88ac00000000", "vin": [{"sequence": 4294967295, "scriptSig": {"hex": "483045022100e37b915e09766eb4465cad26fc0beb1af0046dc5eb8ff497fb05fb5db667adb602200fda843ee69cd0118a2a7d1b8f1b40b043859f10f5e688fa1380f0a338024a790121031221a5a7ab2e5f50719a92d9786f96fd2a3948d5a5b53fe6c0eea0d01a0d55af", "asm": "3045022100e37b915e09766eb4465cad26fc0beb1af0046dc5eb8ff497fb05fb5db667adb602200fda843ee69cd0118a2a7d1b8f1b40b043859f10f5e688fa1380f0a338024a79[ALL] 031221a5a7ab2e5f50719a92d9786f96fd2a3948d5a5b53fe6c0eea0d01a0d55af"}, "vout": 2, "txid": "0d1c9f1e9c6d177bd8762d475c22847c125d3f01109a46873b8bdd9d13a5069a"}], "txid": "a9e1a7d82a46e28b7b60620fbfa0e808e61d260728713b54393d960a14ab6d84", "blocktime": 1537872018, "version": 1, "confirmations": 11489, "time": 1537872018, "locktime": 0, "vsize": 226, "size": 226}