{"hash": "a9f06dfdd60004e02978bb882b1ca5c254366de3881eaf70b0014ead54c7e29a", "blockhash": "0000000000000000000e13cef7c366c0283d82e591d1acd082e914b08063cdf1", "vout": [{"scriptPubKey": {"reqSigs": 1, "hex": "76a9148703cf515af1e547ac3e53c2c709a288edd1d5b988ac", "addresses": ["1DJtncKzEVCiX3GH8H258ioYqTy6feX23h"], "asm": "OP_DUP OP_HASH160 8703cf515af1e547ac3e53c2c709a288edd1d5b9 OP_EQUALVERIFY OP_CHECKSIG", "type": "pubkeyhash"}, "value": 0.00157, "n": 0}, {"scriptPubKey": {"reqSigs": 1, "hex": "76a9149a1fda7636ca40432b8a7a240b2824d33cc2eba788ac", "addresses": ["1F3wDkefX3JQ9hkJRwiZscjB6QwbeysL9o"], "asm": "OP_DUP OP_HASH160 9a1fda7636ca40432b8a7a240b2824d33cc2eba7 OP_EQUALVERIFY OP_CHECKSIG", "type": "pubkeyhash"}, "value": 0.03819271, "n": 1}], "hex": "0100000001117671f7ba4674e50cc79015ee188abf83e7b6f7439972680ee4f780b9e1d9b4010000006a4730440220573133d08282bf6f7a64b3e64c1f8afc57609b81863bdae15af437ddc88302ac0220409b46c374130e16fe10c98857357ebe991b38035a79478253dc1ef0e0c9875d0121036eba46e28dc28bc75ade3e97affdbe784054987806fcae9644a9ed9e8ae983c4ffffffff0248650200000000001976a9148703cf515af1e547ac3e53c2c709a288edd1d5b988ac07473a00000000001976a9149a1fda7636ca40432b8a7a240b2824d33cc2eba788ac00000000", "vin": [{"sequence": 4294967295, "scriptSig": {"hex": "4730440220573133d08282bf6f7a64b3e64c1f8afc57609b81863bdae15af437ddc88302ac0220409b46c374130e16fe10c98857357ebe991b38035a79478253dc1ef0e0c9875d0121036eba46e28dc28bc75ade3e97affdbe784054987806fcae9644a9ed9e8ae983c4", "asm": "30440220573133d08282bf6f7a64b3e64c1f8afc57609b81863bdae15af437ddc88302ac0220409b46c374130e16fe10c98857357ebe991b38035a79478253dc1ef0e0c9875d[ALL] 036eba46e28dc28bc75ade3e97affdbe784054987806fcae9644a9ed9e8ae983c4"}, "vout": 1, "txid": "b4d9e1b980f7e40e68729943f7b6e783bf8a18ee1590c70ce57446baf7717611"}], "txid": "a9f06dfdd60004e02978bb882b1ca5c254366de3881eaf70b0014ead54c7e29a", "blocktime": 1537871767, "version": 1, "confirmations": 11491, "time": 1537871767, "locktime": 0, "vsize": 225, "size": 225}