{"hash": "a9f1ace0de85be91c6e0c8378c75209aa5af36f5892d19b1556abcda10e66741", "blockhash": "0000000000000000001f76057863aec43deb6fa401d9628bb513d65a8098bfab", "vout": [{"scriptPubKey": {"reqSigs": 1, "hex": "76a914cc996e681f9591a9087b8d66ca0e655e5fe6c29988ac", "addresses": ["1Kepej5AT7wBPMX38kVbn1oeuXnuoTs6op"], "asm": "OP_DUP OP_HASH160 cc996e681f9591a9087b8d66ca0e655e5fe6c299 OP_EQUALVERIFY OP_CHECKSIG", "type": "pubkeyhash"}, "value": 0.00843656, "n": 0}], "hex": "0200000001dd00a33198c20d724c044efc28d5e9f7214d8d0837fa78c6d8154a937b6c84b3000000006b483045022100d52fac0d1d4aadfd4612f9aa0c377b0b537e583f90eed152b4e2b8315899e35602201be9b4d046ca9820f1f387318ced90f0e31efa4be4e6b9a2e92910fc8a494a0a012102fef4956d9ffaf35a725db048d2eaf6d4efcd156300ae245a7526f36fc21327ffffffffff0188df0c00000000001976a914cc996e681f9591a9087b8d66ca0e655e5fe6c29988ac00000000", "vin": [{"sequence": 4294967295, "scriptSig": {"hex": "483045022100d52fac0d1d4aadfd4612f9aa0c377b0b537e583f90eed152b4e2b8315899e35602201be9b4d046ca9820f1f387318ced90f0e31efa4be4e6b9a2e92910fc8a494a0a012102fef4956d9ffaf35a725db048d2eaf6d4efcd156300ae245a7526f36fc21327ff", "asm": "3045022100d52fac0d1d4aadfd4612f9aa0c377b0b537e583f90eed152b4e2b8315899e35602201be9b4d046ca9820f1f387318ced90f0e31efa4be4e6b9a2e92910fc8a494a0a[ALL] 02fef4956d9ffaf35a725db048d2eaf6d4efcd156300ae245a7526f36fc21327ff"}, "vout": 0, "txid": "b3846c7b934a15d8c678fa37088d4d21f7e9d528fc4e044c720dc29831a300dd"}], "txid": "a9f1ace0de85be91c6e0c8378c75209aa5af36f5892d19b1556abcda10e66741", "blocktime": 1537873891, "version": 2, "confirmations": 11478, "time": 1537873891, "locktime": 0, "vsize": 192, "size": 192}