{"hash": "a9fedd8bb061192d1e6ad142054779fad14b3a7be36b9ac5090666832da85a0d", "blockhash": "0000000000000000001cda96e906b7601b7a6fb1a3b62bca570a9e5d8f4b3de1", "vout": [{"scriptPubKey": {"type": "nulldata", "hex": "6a4c50000077d600013d397e1442baadab1ee11fa75b23cc0f42c2fc38c5e5bf9ae76da98a211ac24e26e5571bd9ae408f4f8470e7d7ab5baa15540612fa0ec1b9dc0fbc9a9526289ac0f6612cd74e33776ee4", "asm": "OP_RETURN 000077d600013d397e1442baadab1ee11fa75b23cc0f42c2fc38c5e5bf9ae76da98a211ac24e26e5571bd9ae408f4f8470e7d7ab5baa15540612fa0ec1b9dc0fbc9a9526289ac0f6612cd74e33776ee4"}, "value": 0.0, "n": 0}, {"scriptPubKey": {"reqSigs": 1, "hex": "76a9147e27f181daac3b8dfb3b26355f2270afb9d1a1d988ac", "addresses": ["1CW3zVBScqP66KhD7earwWkjYLZCjoF8Rq"], "asm": "OP_DUP OP_HASH160 7e27f181daac3b8dfb3b26355f2270afb9d1a1d9 OP_EQUALVERIFY OP_CHECKSIG", "type": "pubkeyhash"}, "value": 0.0221786, "n": 1}], "hex": "01000000012bb5a4ed7a7978a90057bce14363cafb71be174b32256dc91461ca44490f9749000000006a47304402207bb19c3e34b6d992b37d9ce3804a9f2a415fd210875901f1eea6d7fa696d5cfd02200e4781c163fd060bf8cb1111459ce3a1143a777bfe85d5fe37fe43a3ab97c72c012102b326b2dc467cb009927f1a0e448f890ee40520356b62f4415c15ee9ff22e79afffffffff020000000000000000536a4c50000077d600013d397e1442baadab1ee11fa75b23cc0f42c2fc38c5e5bf9ae76da98a211ac24e26e5571bd9ae408f4f8470e7d7ab5baa15540612fa0ec1b9dc0fbc9a9526289ac0f6612cd74e33776ee484d72100000000001976a9147e27f181daac3b8dfb3b26355f2270afb9d1a1d988ac00000000", "vin": [{"sequence": 4294967295, "scriptSig": {"hex": "47304402207bb19c3e34b6d992b37d9ce3804a9f2a415fd210875901f1eea6d7fa696d5cfd02200e4781c163fd060bf8cb1111459ce3a1143a777bfe85d5fe37fe43a3ab97c72c012102b326b2dc467cb009927f1a0e448f890ee40520356b62f4415c15ee9ff22e79af", "asm": "304402207bb19c3e34b6d992b37d9ce3804a9f2a415fd210875901f1eea6d7fa696d5cfd02200e4781c163fd060bf8cb1111459ce3a1143a777bfe85d5fe37fe43a3ab97c72c[ALL] 02b326b2dc467cb009927f1a0e448f890ee40520356b62f4415c15ee9ff22e79af"}, "vout": 0, "txid": "49970f4944ca6114c96d25324b17be71fbca6343e1bc5700a978797aeda4b52b"}], "txid": "a9fedd8bb061192d1e6ad142054779fad14b3a7be36b9ac5090666832da85a0d", "blocktime": 1537873282, "version": 1, "confirmations": 11484, "time": 1537873282, "locktime": 0, "vsize": 283, "size": 283}