{"hash": "aa08e571869fc77e72e970da58fc933fcb098fb60338611571520eb101529077", "blockhash": "00000000000000000017f5eb5941039fbcee6240d03bc1f2f8e35350df66a1d8", "vout": [{"scriptPubKey": {"reqSigs": 1, "hex": "76a91475e7736ebb48b636c9b6ee29733eb8c7a969c1d088ac", "addresses": ["1BkRKwF1u8bqx1weXNxeW5eWcyiKZpJH8k"], "asm": "OP_DUP OP_HASH160 75e7736ebb48b636c9b6ee29733eb8c7a969c1d0 OP_EQUALVERIFY OP_CHECKSIG", "type": "pubkeyhash"}, "value": 0.000499, "n": 0}, {"scriptPubKey": {"reqSigs": 1, "hex": "a9142b10880bda2a45c291a5680080cf5d62f8b052fb87", "addresses": ["35cinR753CbEZ6JrWCE35KtZBCsC25TLdA"], "asm": "OP_HASH160 2b10880bda2a45c291a5680080cf5d62f8b052fb OP_EQUAL", "type": "scripthash"}, "value": 0.0233, "n": 1}], "hex": "0100000002455fca6a38cd7680c11b9f09234be14b64537978c73ce4998e33dd308873e22e170000006b483045022100de2a5d7c49b173c19c42542f955c3b49996be91589d67a5c57ddf067f70f8b5502206739df96a7cae35a95c2bf44eaffa6a61841b60009924863a6e5f072c3a6c3f60121030124cd9ab790371e4edbd12fe6ef51a0424f3837c34d9e99e08fd09c9e8e86b7ffffffffee6778251313eecc38a96026f9eef779df85796f1ec57ed65be2eb6cdaaab475000000006a4730440220422696b1fb615a9f1ffdf6155f6c711f2e0152dc7c5e12d54c698a444eedc29b022059cb61b6db169e6e7f58cb377b422671bd0afe6f2fb63d90e511b67a079d765801210212c2794533b5d0ed657cb060f7467d002d212da81c485fe76bbc6befb42263d3ffffffff02ecc20000000000001976a91475e7736ebb48b636c9b6ee29733eb8c7a969c1d088ac908d23000000000017a9142b10880bda2a45c291a5680080cf5d62f8b052fb8700000000", "vin": [{"sequence": 4294967295, "scriptSig": {"hex": "483045022100de2a5d7c49b173c19c42542f955c3b49996be91589d67a5c57ddf067f70f8b5502206739df96a7cae35a95c2bf44eaffa6a61841b60009924863a6e5f072c3a6c3f60121030124cd9ab790371e4edbd12fe6ef51a0424f3837c34d9e99e08fd09c9e8e86b7", "asm": "3045022100de2a5d7c49b173c19c42542f955c3b49996be91589d67a5c57ddf067f70f8b5502206739df96a7cae35a95c2bf44eaffa6a61841b60009924863a6e5f072c3a6c3f6[ALL] 030124cd9ab790371e4edbd12fe6ef51a0424f3837c34d9e99e08fd09c9e8e86b7"}, "vout": 23, "txid": "2ee2738830dd338e99e43cc7787953644be14b23099f1bc18076cd386aca5f45"}, {"sequence": 4294967295, "scriptSig": {"hex": "4730440220422696b1fb615a9f1ffdf6155f6c711f2e0152dc7c5e12d54c698a444eedc29b022059cb61b6db169e6e7f58cb377b422671bd0afe6f2fb63d90e511b67a079d765801210212c2794533b5d0ed657cb060f7467d002d212da81c485fe76bbc6befb42263d3", "asm": "30440220422696b1fb615a9f1ffdf6155f6c711f2e0152dc7c5e12d54c698a444eedc29b022059cb61b6db169e6e7f58cb377b422671bd0afe6f2fb63d90e511b67a079d7658[ALL] 0212c2794533b5d0ed657cb060f7467d002d212da81c485fe76bbc6befb42263d3"}, "vout": 0, "txid": "75b4aada6cebe25bd67ec51e6f7985df79f7eef92660a938ccee1313257867ee"}], "txid": "aa08e571869fc77e72e970da58fc933fcb098fb60338611571520eb101529077", "blocktime": 1537874412, "version": 1, "confirmations": 11468, "time": 1537874412, "locktime": 0, "vsize": 371, "size": 371}