{"hash": "2f6f4e87b96ef74921b8d2fe7cb4cd0133c46f2728bf9f409d04a57d1e96d32e", "blockhash": "0000000000000000000dcc0f55137456b1a82d3642486a52398922ac4d620174", "vout": [{"scriptPubKey": {"reqSigs": 1, "hex": "0014e72251fd0beb796c6a5fee288adc3bf911f76e5c", "addresses": ["bc1quu39rlgtadukc6jlac5g4hpmlyglwmjurqplpa"], "asm": "0 e72251fd0beb796c6a5fee288adc3bf911f76e5c", "type": "witness_v0_keyhash"}, "value": 1.094e-05, "n": 0}, {"scriptPubKey": {"reqSigs": 1, "hex": "0014070b567bdf2d3b86bd1b835f4f5e4df8b2a1bf45", "addresses": ["bc1qqu94v77l95acd0gmsd057hjdlze2r069h9q8jv"], "asm": "0 070b567bdf2d3b86bd1b835f4f5e4df8b2a1bf45", "type": "witness_v0_keyhash"}, "value": 0.00111, "n": 1}], "hex": "01000000000101462e930ae8bfe5bf32c69d5fa294579c11bf8b6d4f905906d65a3d2ae41bedaa0100000000ffffffff024604000000000000160014e72251fd0beb796c6a5fee288adc3bf911f76e5c98b1010000000000160014070b567bdf2d3b86bd1b835f4f5e4df8b2a1bf4502473044022059f2b70c456b96f6d5e7016a5244b8425ac9810b3fc80e842f04a8f3783268400220265345d90fa85d3d34cd87421519b9f3bd62f555bb7c52c9a70f43850c99216f012103e6819e615bd18ac72eba4bd7be5496229d6464a4220ccaee0bc68595c8b4038a00000000", "vin": [{"txinwitness": ["3044022059f2b70c456b96f6d5e7016a5244b8425ac9810b3fc80e842f04a8f3783268400220265345d90fa85d3d34cd87421519b9f3bd62f555bb7c52c9a70f43850c99216f01", "03e6819e615bd18ac72eba4bd7be5496229d6464a4220ccaee0bc68595c8b4038a"], "sequence": 4294967295, "scriptSig": {"hex": "", "asm": ""}, "vout": 1, "txid": "aaed1be42a3d5ad60659904f6d8bbf119c5794a25f9dc632bfe5bfe80a932e46"}], "txid": "aa0bc89b225da82bed06638d27c9439161e489818f194af025d332b69d33b631", "blocktime": 1537870268, "version": 1, "confirmations": 11518, "time": 1537870268, "locktime": 0, "vsize": 141, "size": 222}