{"hash": "aa169ba01421d5866f884536858c28431d0fc0fd722067b2cb7e73b7135eab21", "blockhash": "0000000000000000001f76057863aec43deb6fa401d9628bb513d65a8098bfab", "vout": [{"scriptPubKey": {"reqSigs": 1, "hex": "76a9148566550aff30722c1ffef1100c2eba79f6fd7e6f88ac", "addresses": ["1DAMTgQ7i4R59nGMzNffCqujsvwrmoDXQe"], "asm": "OP_DUP OP_HASH160 8566550aff30722c1ffef1100c2eba79f6fd7e6f OP_EQUALVERIFY OP_CHECKSIG", "type": "pubkeyhash"}, "value": 0.00078084, "n": 0}, {"scriptPubKey": {"reqSigs": 1, "hex": "76a9146d908004f7d157bfefa350fbaac5b356487ae5b588ac", "addresses": ["1AzKkx9UorHZnEz4ije55xpBGJmBfWWZ1W"], "asm": "OP_DUP OP_HASH160 6d908004f7d157bfefa350fbaac5b356487ae5b5 OP_EQUALVERIFY OP_CHECKSIG", "type": "pubkeyhash"}, "value": 0.03616302, "n": 1}], "hex": "010000000185aaa296974a11f0056d2bdea7db93db3037a25beba14dcca7d5d4db9d73f6fd010000006a47304402206dd6f213726a0982b3b3e82880b70951d78dbd0e95bb45098118d41dbb71350c0220028d3f3953e2ed34e559268f50e0b5b6a4c2332a7f0deaa92065095fe63ec9d0012103f4247f0f7ecb3f18fe358f6633da16ad59f6cda5fe9cffd535a70544bf93458fffffffff0204310100000000001976a9148566550aff30722c1ffef1100c2eba79f6fd7e6f88ac2e2e3700000000001976a9146d908004f7d157bfefa350fbaac5b356487ae5b588ac00000000", "vin": [{"sequence": 4294967295, "scriptSig": {"hex": "47304402206dd6f213726a0982b3b3e82880b70951d78dbd0e95bb45098118d41dbb71350c0220028d3f3953e2ed34e559268f50e0b5b6a4c2332a7f0deaa92065095fe63ec9d0012103f4247f0f7ecb3f18fe358f6633da16ad59f6cda5fe9cffd535a70544bf93458f", "asm": "304402206dd6f213726a0982b3b3e82880b70951d78dbd0e95bb45098118d41dbb71350c0220028d3f3953e2ed34e559268f50e0b5b6a4c2332a7f0deaa92065095fe63ec9d0[ALL] 03f4247f0f7ecb3f18fe358f6633da16ad59f6cda5fe9cffd535a70544bf93458f"}, "vout": 1, "txid": "fdf6739ddbd4d5a7cc4da1eb5ba23730db93dba7de2b6d05f0114a9796a2aa85"}], "txid": "aa169ba01421d5866f884536858c28431d0fc0fd722067b2cb7e73b7135eab21", "blocktime": 1537873891, "version": 1, "confirmations": 11477, "time": 1537873891, "locktime": 0, "vsize": 225, "size": 225}