{"hash": "aa19b5d5042438d2e5b578d64e214cbd25252eeeed72c309727ca87a49fc4112", "blockhash": "00000000000000000017f5eb5941039fbcee6240d03bc1f2f8e35350df66a1d8", "vout": [{"scriptPubKey": {"reqSigs": 1, "hex": "76a914418e9465a0a2661cd13bce5f5f3043d2f77ef0fa88ac", "addresses": ["16ydj5Z9Fc8RdHmgoV7uRVCUDjSTUx3Rzw"], "asm": "OP_DUP OP_HASH160 418e9465a0a2661cd13bce5f5f3043d2f77ef0fa OP_EQUALVERIFY OP_CHECKSIG", "type": "pubkeyhash"}, "value": 0.0008698, "n": 0}, {"scriptPubKey": {"type": "nulldata", "hex": "6a4c50000077f20001596859dfde0f563f482be460d19ed074892d00f8e87af8e8e963c7cfd5b93b2237ed0cfe80dc76cc27ea3ab239d65baa1846061386fb9eb5023fbc9a9526289ac0f6612cd74e33776ee4", "asm": "OP_RETURN 000077f20001596859dfde0f563f482be460d19ed074892d00f8e87af8e8e963c7cfd5b93b2237ed0cfe80dc76cc27ea3ab239d65baa1846061386fb9eb5023fbc9a9526289ac0f6612cd74e33776ee4"}, "value": 0.0, "n": 1}], "hex": "01000000017f09e916dc9f391de7de4ecd21106d372b3cdb1485e5452f415fd56f81ac4de3010000006a47304402204adfb487e497b458a86e9d5997d2f13e968ab612006264b542b5856f32603ab402204641ce9f634c40269de357cd03fee58643a561a5fd25cb5313d378e4e5fe5565012103bac3c5774ecba4198e6dc39a4caed52468499dbedf7401ebdb38745282a2b9cbffffffff02c4530100000000001976a914418e9465a0a2661cd13bce5f5f3043d2f77ef0fa88ac0000000000000000536a4c50000077f20001596859dfde0f563f482be460d19ed074892d00f8e87af8e8e963c7cfd5b93b2237ed0cfe80dc76cc27ea3ab239d65baa1846061386fb9eb5023fbc9a9526289ac0f6612cd74e33776ee400000000", "vin": [{"sequence": 4294967295, "scriptSig": {"hex": "47304402204adfb487e497b458a86e9d5997d2f13e968ab612006264b542b5856f32603ab402204641ce9f634c40269de357cd03fee58643a561a5fd25cb5313d378e4e5fe5565012103bac3c5774ecba4198e6dc39a4caed52468499dbedf7401ebdb38745282a2b9cb", "asm": "304402204adfb487e497b458a86e9d5997d2f13e968ab612006264b542b5856f32603ab402204641ce9f634c40269de357cd03fee58643a561a5fd25cb5313d378e4e5fe5565[ALL] 03bac3c5774ecba4198e6dc39a4caed52468499dbedf7401ebdb38745282a2b9cb"}, "vout": 1, "txid": "e34dac816fd55f412f45e58514db3c2b376d1021cd4edee71d399fdc16e9097f"}], "txid": "aa19b5d5042438d2e5b578d64e214cbd25252eeeed72c309727ca87a49fc4112", "blocktime": 1537874412, "version": 1, "confirmations": 11467, "time": 1537874412, "locktime": 0, "vsize": 283, "size": 283}