{"hash": "aa1dd5d47ece212803ac8e4b73e8160f15609bffe54472bc3c147f121df869d7", "blockhash": "0000000000000000001f76057863aec43deb6fa401d9628bb513d65a8098bfab", "vout": [{"scriptPubKey": {"reqSigs": 1, "hex": "76a91426492d9f785da06a6e1458a5b6af3949ea299ae588ac", "addresses": ["14VSLoTht7tJrRbA2jeUdABchCW42kMxn7"], "asm": "OP_DUP OP_HASH160 26492d9f785da06a6e1458a5b6af3949ea299ae5 OP_EQUALVERIFY OP_CHECKSIG", "type": "pubkeyhash"}, "value": 0.01206328, "n": 0}], "hex": "010000000476ff192c31e27815bdfeb47a21bea11c19d3f7c02670011c073f6391911891460a0000006a473044022044c847d5a14484a7fd8a24ed279fc29739e25956d534fdda43cba99f280e761202200d54be807836f86d07af8341ff48de7b100dbbbff90aa08748449c4e574fc317012102d72caeca04789c64d36966f9ab2a19475c2740395e976b2e3ca72c76a2b99687ffffffff691dcc1c14dd2e938d6d666d0a2416f7a751cc8d951dc8173e2660604ed81193000000006b48304502210090edb177c7388c6f67fe05cd7fa132a5caa187ed4464ea6eeb5c4982e61164aa022026f14102a56de663bcd939029af84ad0d10bab2502b3f91e3f1780e8635ab787012103a8f928a5e452efec3944208f1adea38aa7a3378e3fdd7c95859f1b83723bfcf0ffffffffbc2d89871746fc7d49377729a300f919d91705183070fe3fd98974f7276ecdaf000000006a47304402205ed3add59f08df384b2a83c4a4cc5439a58cf58de966f69b5e9626fbac946bc30220055751d8cc6e2eafbc6a7a5ef72e3fe31cc6eac28cf48a760f5f2bb19c4ec40101210280739582961f6552ce7e3b2d81e8487b9acddf8a074864dc2a30bcb90652a07affffffff3dc82b4cb1d941916c53b61b804ba4ac08a4c6b77a41901aae085b8717f76cc7000000006a473044022037add04512fb397bda644a5ad64a6a55b9392df9a15ee9cbd9ded1df883ed4c3022049881bd67e29d2e27496aa6bac02a940ab5a29c5945c73a8bd9055c48addbe56012102e0544851fec4ac04f95668d86f7bf7e9be8069883459f75faac4374af8740998ffffffff0138681200000000001976a91426492d9f785da06a6e1458a5b6af3949ea299ae588ac00000000", "vin": [{"sequence": 4294967295, "scriptSig": {"hex": "473044022044c847d5a14484a7fd8a24ed279fc29739e25956d534fdda43cba99f280e761202200d54be807836f86d07af8341ff48de7b100dbbbff90aa08748449c4e574fc317012102d72caeca04789c64d36966f9ab2a19475c2740395e976b2e3ca72c76a2b99687", "asm": "3044022044c847d5a14484a7fd8a24ed279fc29739e25956d534fdda43cba99f280e761202200d54be807836f86d07af8341ff48de7b100dbbbff90aa08748449c4e574fc317[ALL] 02d72caeca04789c64d36966f9ab2a19475c2740395e976b2e3ca72c76a2b99687"}, "vout": 10, "txid": "4691189191633f071c017026c0f7d3191ca1be217ab4febd1578e2312c19ff76"}, {"sequence": 4294967295, "scriptSig": {"hex": "48304502210090edb177c7388c6f67fe05cd7fa132a5caa187ed4464ea6eeb5c4982e61164aa022026f14102a56de663bcd939029af84ad0d10bab2502b3f91e3f1780e8635ab787012103a8f928a5e452efec3944208f1adea38aa7a3378e3fdd7c95859f1b83723bfcf0", "asm": "304502210090edb177c7388c6f67fe05cd7fa132a5caa187ed4464ea6eeb5c4982e61164aa022026f14102a56de663bcd939029af84ad0d10bab2502b3f91e3f1780e8635ab787[ALL] 03a8f928a5e452efec3944208f1adea38aa7a3378e3fdd7c95859f1b83723bfcf0"}, "vout": 0, "txid": "9311d84e6060263e17c81d958dcc51a7f716240a6d666d8d932edd141ccc1d69"}, {"sequence": 4294967295, "scriptSig": {"hex": "47304402205ed3add59f08df384b2a83c4a4cc5439a58cf58de966f69b5e9626fbac946bc30220055751d8cc6e2eafbc6a7a5ef72e3fe31cc6eac28cf48a760f5f2bb19c4ec40101210280739582961f6552ce7e3b2d81e8487b9acddf8a074864dc2a30bcb90652a07a", "asm": "304402205ed3add59f08df384b2a83c4a4cc5439a58cf58de966f69b5e9626fbac946bc30220055751d8cc6e2eafbc6a7a5ef72e3fe31cc6eac28cf48a760f5f2bb19c4ec401[ALL] 0280739582961f6552ce7e3b2d81e8487b9acddf8a074864dc2a30bcb90652a07a"}, "vout": 0, "txid": "afcd6e27f77489d93ffe7030180517d919f900a3297737497dfc461787892dbc"}, {"sequence": 4294967295, "scriptSig": {"hex": "473044022037add04512fb397bda644a5ad64a6a55b9392df9a15ee9cbd9ded1df883ed4c3022049881bd67e29d2e27496aa6bac02a940ab5a29c5945c73a8bd9055c48addbe56012102e0544851fec4ac04f95668d86f7bf7e9be8069883459f75faac4374af8740998", "asm": "3044022037add04512fb397bda644a5ad64a6a55b9392df9a15ee9cbd9ded1df883ed4c3022049881bd67e29d2e27496aa6bac02a940ab5a29c5945c73a8bd9055c48addbe56[ALL] 02e0544851fec4ac04f95668d86f7bf7e9be8069883459f75faac4374af8740998"}, "vout": 0, "txid": "c76cf717875b08ae1a90417ab7c6a408aca44b801bb6536c9141d9b14c2bc83d"}], "txid": "aa1dd5d47ece212803ac8e4b73e8160f15609bffe54472bc3c147f121df869d7", "blocktime": 1537873891, "version": 1, "confirmations": 11475, "time": 1537873891, "locktime": 0, "vsize": 633, "size": 633}