{"hash": "2b26f3d869acf0992a49ceac462d0bc084189a1d500b099359c728f5b6d7f78b", "blockhash": "0000000000000000000e13cef7c366c0283d82e591d1acd082e914b08063cdf1", "vout": [{"scriptPubKey": {"reqSigs": 1, "hex": "76a9149a1b8f9b1fa2d2297863adb1cb11c71df455684888ac", "addresses": ["1F3r5We2zwNiSzG6GQUTTWnnPMCz2HJbJu"], "asm": "OP_DUP OP_HASH160 9a1b8f9b1fa2d2297863adb1cb11c71df4556848 OP_EQUALVERIFY OP_CHECKSIG", "type": "pubkeyhash"}, "value": 3.263e-05, "n": 0}, {"scriptPubKey": {"reqSigs": 1, "hex": "a914e8db75c900cf08f06518e96d167331f2a4abfb3387", "addresses": ["3NvFbQMAkkqEFj4i1sYPPLkSWzxTFUchjA"], "asm": "OP_HASH160 e8db75c900cf08f06518e96d167331f2a4abfb33 OP_EQUAL", "type": "scripthash"}, "value": 0.00045545, "n": 1}], "hex": "0100000000010184294fbbc858c8461133b5190478e52962dc111e6ea79c6a6b7796749dbc74340000000023220020941cfaff8837763dc1f69ff82b6d6553fdea17a41cfc29a04403293eedd8ccc7ffffffff02bf0c0000000000001976a9149a1b8f9b1fa2d2297863adb1cb11c71df455684888ace9b100000000000017a914e8db75c900cf08f06518e96d167331f2a4abfb33870400483045022100aa689781770540a3eacd248187dbdb163f9e9b53834f0d1c7c9ff772962c53d302206e75025750d205dd100c9cf7ad0cdbe20e67d5a2a87c35e12d4f89349afa401301483045022100f7f493c2a27e356b338c5bc08b4b9a886e2ffc185fad66b5dfe53c92af3d573e022043d270daf6bfef2a6f491efb58937ebc97cd3c20a0124f7a3a998a08d9287d920147522102531db3a5883f29bab4241dd0cd726936667bcda445d89bdd22244e828b6993342103148c80a5bdfddb05ff5bcffc397c8ca748d8b435ec6a175bc9d7bfc7fc6f853752ae00000000", "vin": [{"txinwitness": ["", "3045022100aa689781770540a3eacd248187dbdb163f9e9b53834f0d1c7c9ff772962c53d302206e75025750d205dd100c9cf7ad0cdbe20e67d5a2a87c35e12d4f89349afa401301", "3045022100f7f493c2a27e356b338c5bc08b4b9a886e2ffc185fad66b5dfe53c92af3d573e022043d270daf6bfef2a6f491efb58937ebc97cd3c20a0124f7a3a998a08d9287d9201", "522102531db3a5883f29bab4241dd0cd726936667bcda445d89bdd22244e828b6993342103148c80a5bdfddb05ff5bcffc397c8ca748d8b435ec6a175bc9d7bfc7fc6f853752ae"], "sequence": 4294967295, "scriptSig": {"hex": "220020941cfaff8837763dc1f69ff82b6d6553fdea17a41cfc29a04403293eedd8ccc7", "asm": "0020941cfaff8837763dc1f69ff82b6d6553fdea17a41cfc29a04403293eedd8ccc7"}, "vout": 0, "txid": "3474bc9d7496776b6a9ca76e1e11dc6229e5780419b5331146c858c8bb4f2984"}], "txid": "aa33ad94bc3c698b76027a377b99f395f9866684a92ea5c0145cad188a3c955e", "blocktime": 1537871767, "version": 1, "confirmations": 11495, "time": 1537871767, "locktime": 0, "vsize": 208, "size": 374}