{"hash": "aa355d8ef0e449a287c773b221577670d39ec318323f11fdf361553d8000c564", "blockhash": "0000000000000000000baef3f32e3676a92c3b2e5da21b426e4f302fc371ce76", "vout": [{"scriptPubKey": {"reqSigs": 1, "hex": "a914c0b1c35421233b13b1803b00fee98f93f4343ee387", "addresses": ["3KFtcZjNZQF4cX7JURLUAyDCJD3DsEqgw8"], "asm": "OP_HASH160 c0b1c35421233b13b1803b00fee98f93f4343ee3 OP_EQUAL", "type": "scripthash"}, "value": 0.001569, "n": 0}, {"scriptPubKey": {"reqSigs": 1, "hex": "76a9146d8ee9263b79ddc23a60bd61739bb9d6a76fa42b88ac", "addresses": ["1AzHrXGH7oY2vM7AA9u861VbFuKMzyDTxP"], "asm": "OP_DUP OP_HASH160 6d8ee9263b79ddc23a60bd61739bb9d6a76fa42b OP_EQUALVERIFY OP_CHECKSIG", "type": "pubkeyhash"}, "value": 0.011843, "n": 1}], "hex": "0100000002ace20d5cf4d6709fa86d1b5a69ab28324cc3293050072ccd6196543ec5b5a07a000000006a473044022079c214014a99bccb6cda913abf729e7edef492fc47591a11970679dee663e34502202dc46c7e97eaf3c0af4ec2e75df33226836acd790b8ee16dc0df4aa247532c90012103c40cee07267aafb69ecc911145de6040d09557fbca22e5c7e03d312e54d95a49ffffffffb23709bd77e3f7a7d8c73750f08874ebd690ae97f2f1e539b443d5a0ab2540fc000000006b483045022100ab863e11a45ba4e9cb6753a2ad7c57cb70fff4e07a0ac7936a511ec6dfa20d85022075d5bbd623a68fbede285be1066a739d1c1e80b45139e4d319a06b17d8d95cda0121025791055c63f20361a3f1419b837b1a9b1bd4d8eb0d501a16a3e21a28f5c0c5b6ffffffff02e46402000000000017a914c0b1c35421233b13b1803b00fee98f93f4343ee3872c121200000000001976a9146d8ee9263b79ddc23a60bd61739bb9d6a76fa42b88ac00000000", "vin": [{"sequence": 4294967295, "scriptSig": {"hex": "473044022079c214014a99bccb6cda913abf729e7edef492fc47591a11970679dee663e34502202dc46c7e97eaf3c0af4ec2e75df33226836acd790b8ee16dc0df4aa247532c90012103c40cee07267aafb69ecc911145de6040d09557fbca22e5c7e03d312e54d95a49", "asm": "3044022079c214014a99bccb6cda913abf729e7edef492fc47591a11970679dee663e34502202dc46c7e97eaf3c0af4ec2e75df33226836acd790b8ee16dc0df4aa247532c90[ALL] 03c40cee07267aafb69ecc911145de6040d09557fbca22e5c7e03d312e54d95a49"}, "vout": 0, "txid": "7aa0b5c53e549661cd2c07503029c34c3228ab695a1b6da89f70d6f45c0de2ac"}, {"sequence": 4294967295, "scriptSig": {"hex": "483045022100ab863e11a45ba4e9cb6753a2ad7c57cb70fff4e07a0ac7936a511ec6dfa20d85022075d5bbd623a68fbede285be1066a739d1c1e80b45139e4d319a06b17d8d95cda0121025791055c63f20361a3f1419b837b1a9b1bd4d8eb0d501a16a3e21a28f5c0c5b6", "asm": "3045022100ab863e11a45ba4e9cb6753a2ad7c57cb70fff4e07a0ac7936a511ec6dfa20d85022075d5bbd623a68fbede285be1066a739d1c1e80b45139e4d319a06b17d8d95cda[ALL] 025791055c63f20361a3f1419b837b1a9b1bd4d8eb0d501a16a3e21a28f5c0c5b6"}, "vout": 0, "txid": "fc4025aba0d543b439e5f1f297ae90d6eb7488f05037c7d8a7f7e377bd0937b2"}], "txid": "aa355d8ef0e449a287c773b221577670d39ec318323f11fdf361553d8000c564", "blocktime": 1537876114, "version": 1, "confirmations": 11460, "time": 1537876114, "locktime": 0, "vsize": 371, "size": 371}