{"hash": "9a1e19201af914ffdbe21c9f46190e4f67ea13709301b6d452e65c65b022fd4a", "blockhash": "0000000000000000001cda96e906b7601b7a6fb1a3b62bca570a9e5d8f4b3de1", "vout": [{"scriptPubKey": {"reqSigs": 1, "hex": "a914eeff649705f0e3573f43b70cfa2a1968fbe066b887", "addresses": ["3PUihDCoWbFhi6B3cbRKuk1dVjaRenVYtY"], "asm": "OP_HASH160 eeff649705f0e3573f43b70cfa2a1968fbe066b8 OP_EQUAL", "type": "scripthash"}, "value": 0.00998517, "n": 0}, {"scriptPubKey": {"reqSigs": 1, "hex": "a91461b3dc910744ef9f479588a7ea6787cde1256a2787", "addresses": ["3Abcw9rhqHoEs5EMoaG8BSXgNoQHhhiKUe"], "asm": "OP_HASH160 61b3dc910744ef9f479588a7ea6787cde1256a27 OP_EQUAL", "type": "scripthash"}, "value": 0.00377232, "n": 1}], "hex": "0200000000010507e38d6c2e6fc0c4adc21ceb17d8fb740ad0fe444d276f528c6606a3b02f52920000000017160014589ad7eb7cf7644f9e1dddd31720f5e06c9f8d8bfeffffff0c368d58495f958bf7926dd7dad293211ffac3ca18d68abab4e2c7cabb469c7100000000171600148d4d204de8304bad26e3d5a3be59303d89ffd2e9feffffff11970cceb5cc8d71fbab5128137e9bd9fd4efc0a9b7fe08a7071bcbd36967fcb00000000171600148019ef5af3a0237c5e92aeaec3900b940b9f5a7dfeffffffd4807781d0152fc0e0cf7371cde235977270ceebc0a508b11bd22745eccdc1700700000017160014cb22820a097a0d23b55e70f7cf9e8109434bae1dfefffffff3c4ce6c3f84ba5a904cb375ffc82ee7a25a2567c218a84fdfdacd83fadf72c4010000001716001464d7c9f7b8f44d55fe4613118bdd83e2d789bb60feffffff02753c0f000000000017a914eeff649705f0e3573f43b70cfa2a1968fbe066b88790c105000000000017a91461b3dc910744ef9f479588a7ea6787cde1256a278702483045022100ff1b814cd921f0b1d632da836d94bed212d8289765da1c6766f4166c5474a18c02207a2d79ea7b4dfd1088110355b35888a7329180d4088b64dd425fdbe5ff89be9c012103c462b3d9c7da26c65564ec6e5939530dd54a0c9e72896bcb142f127701eda73a0247304402203660fd9abed4ca0d8dbe3ade9bb0988ec39c1787e7880b53d48a6701801e3ac402207730fdc504a94fbbaec19d66b056c537d07590513ec1adf114bee4a1c2679e21012102fcd08b6eb07d57124452ae67444cf816193de7d1106830aa0187af863e1a85df02483045022100f97fe2e97fd50fcf9aa06e71087ec23294036ddffd270f5a2b5933049c9e142002206906b0605ece95142f34c5df761a959095b0caaefcc80be52029df55b848e12601210389adfa369a43d8a174d1615c849312649a54afe828bb94bfb2ada12f04e6e65502483045022100981802c6e312f6d3c87fb47010d63f15c655ffd579a622238408375bef5f9c3e02203798836de56929c8f1b7eaa4be8429bf493a6aab3edc94fa3c73e634e4fa5b9c0121020ffe95ac4e8dd8ab07db3a62d1ef819910aad8815f5c2884a5ac1fe7b352f557024830450221009a7f9c03d4679a1031b2d6ec43aae8ae9e9f939e4588b275d6e7d7f11ef2aa9902203ec2f85d4ae23f0e925e96b229ff67f008045de17796920a5aff0903f809708f012103716e5fe0923dd3989b973f96bbf8b3e107159f77c7f1c836da7947ff988dcdee13490800", "vin": [{"txinwitness": ["3045022100ff1b814cd921f0b1d632da836d94bed212d8289765da1c6766f4166c5474a18c02207a2d79ea7b4dfd1088110355b35888a7329180d4088b64dd425fdbe5ff89be9c01", "03c462b3d9c7da26c65564ec6e5939530dd54a0c9e72896bcb142f127701eda73a"], "sequence": 4294967294, "scriptSig": {"hex": "160014589ad7eb7cf7644f9e1dddd31720f5e06c9f8d8b", "asm": "0014589ad7eb7cf7644f9e1dddd31720f5e06c9f8d8b"}, "vout": 0, "txid": "92522fb0a306668c526f274d44fed00a74fbd817eb1cc2adc4c06f2e6c8de307"}, {"txinwitness": ["304402203660fd9abed4ca0d8dbe3ade9bb0988ec39c1787e7880b53d48a6701801e3ac402207730fdc504a94fbbaec19d66b056c537d07590513ec1adf114bee4a1c2679e2101", "02fcd08b6eb07d57124452ae67444cf816193de7d1106830aa0187af863e1a85df"], "sequence": 4294967294, "scriptSig": {"hex": "1600148d4d204de8304bad26e3d5a3be59303d89ffd2e9", "asm": "00148d4d204de8304bad26e3d5a3be59303d89ffd2e9"}, "vout": 0, "txid": "719c46bbcac7e2b4ba8ad618cac3fa1f2193d2dad76d92f78b955f49588d360c"}, {"txinwitness": ["3045022100f97fe2e97fd50fcf9aa06e71087ec23294036ddffd270f5a2b5933049c9e142002206906b0605ece95142f34c5df761a959095b0caaefcc80be52029df55b848e12601", "0389adfa369a43d8a174d1615c849312649a54afe828bb94bfb2ada12f04e6e655"], "sequence": 4294967294, "scriptSig": {"hex": "1600148019ef5af3a0237c5e92aeaec3900b940b9f5a7d", "asm": "00148019ef5af3a0237c5e92aeaec3900b940b9f5a7d"}, "vout": 0, "txid": "cb7f9636bdbc71708ae07f9b0afc4efdd99b7e132851abfb718dccb5ce0c9711"}, {"txinwitness": ["3045022100981802c6e312f6d3c87fb47010d63f15c655ffd579a622238408375bef5f9c3e02203798836de56929c8f1b7eaa4be8429bf493a6aab3edc94fa3c73e634e4fa5b9c01", "020ffe95ac4e8dd8ab07db3a62d1ef819910aad8815f5c2884a5ac1fe7b352f557"], "sequence": 4294967294, "scriptSig": {"hex": "160014cb22820a097a0d23b55e70f7cf9e8109434bae1d", "asm": "0014cb22820a097a0d23b55e70f7cf9e8109434bae1d"}, "vout": 7, "txid": "70c1cdec4527d21bb108a5c0ebce70729735e2cd7173cfe0c02f15d0817780d4"}, {"txinwitness": ["30450221009a7f9c03d4679a1031b2d6ec43aae8ae9e9f939e4588b275d6e7d7f11ef2aa9902203ec2f85d4ae23f0e925e96b229ff67f008045de17796920a5aff0903f809708f01", "03716e5fe0923dd3989b973f96bbf8b3e107159f77c7f1c836da7947ff988dcdee"], "sequence": 4294967294, "scriptSig": {"hex": "16001464d7c9f7b8f44d55fe4613118bdd83e2d789bb60", "asm": "001464d7c9f7b8f44d55fe4613118bdd83e2d789bb60"}, "vout": 1, "txid": "c472dffa83cddadf4fa818c267255aa2e72ec8ff75b34c905aba843f6ccec4f3"}], "txid": "aa3712eddcda707756b29df779cf76cb5b65049732cbe4859640a61cab61f43b", "blocktime": 1537873282, "version": 2, "confirmations": 11484, "time": 1537873282, "locktime": 542995, "vsize": 530, "size": 935}