{"hash": "aa3aaa59fc7b91480a193348bc0dcba3d8e7fbf40bee1895f1643c084fc3169c", "blockhash": "0000000000000000000baef3f32e3676a92c3b2e5da21b426e4f302fc371ce76", "vout": [{"scriptPubKey": {"reqSigs": 1, "hex": "76a9144473857bc0bce262f142ffdee8fd4d3ed6dea23688ac", "addresses": ["17EwLcaXhy2UqUG3odfRFLaYbggXmp3VQo"], "asm": "OP_DUP OP_HASH160 4473857bc0bce262f142ffdee8fd4d3ed6dea236 OP_EQUALVERIFY OP_CHECKSIG", "type": "pubkeyhash"}, "value": 0.00097966, "n": 0}, {"scriptPubKey": {"reqSigs": 1, "hex": "a914d564938ea1557e1b0ff4616a697319b94e8ccf2887", "addresses": ["3M9LLaFStY6QeTR3meMBAG2Q9H96uJ1Usn"], "asm": "OP_HASH160 d564938ea1557e1b0ff4616a697319b94e8ccf28 OP_EQUAL", "type": "scripthash"}, "value": 0.069, "n": 1}], "hex": "01000000018ef9d8da9ad770d92366c1e7d233ef536ab1d3b04b0108da2db84ac2f9689489000000006a47304402203c91a3965924f56ccc15b590a95bd88b5a5265f29306318f844308f9705574220220388941d0a693c80f8c4dd992abe17851c30d3c03a599789ea99c88b0f5ddf09b012102ac29956ae3cc084a9e94f84ca34f9fd0fc0a5d8b1bf823399fd90335cccbecf4ffffffff02ae7e0100000000001976a9144473857bc0bce262f142ffdee8fd4d3ed6dea23688ac204969000000000017a914d564938ea1557e1b0ff4616a697319b94e8ccf288700000000", "vin": [{"sequence": 4294967295, "scriptSig": {"hex": "47304402203c91a3965924f56ccc15b590a95bd88b5a5265f29306318f844308f9705574220220388941d0a693c80f8c4dd992abe17851c30d3c03a599789ea99c88b0f5ddf09b012102ac29956ae3cc084a9e94f84ca34f9fd0fc0a5d8b1bf823399fd90335cccbecf4", "asm": "304402203c91a3965924f56ccc15b590a95bd88b5a5265f29306318f844308f9705574220220388941d0a693c80f8c4dd992abe17851c30d3c03a599789ea99c88b0f5ddf09b[ALL] 02ac29956ae3cc084a9e94f84ca34f9fd0fc0a5d8b1bf823399fd90335cccbecf4"}, "vout": 0, "txid": "899468f9c24ab82dda08014bb0d3b16a53ef33d2e7c16623d970d79adad8f98e"}], "txid": "aa3aaa59fc7b91480a193348bc0dcba3d8e7fbf40bee1895f1643c084fc3169c", "blocktime": 1537876114, "version": 1, "confirmations": 11460, "time": 1537876114, "locktime": 0, "vsize": 223, "size": 223}