{"hash": "aa3a2342d2d2e0c182adb611a1e4395e2ec7458bd87fd35295b15d3a678baa55", "blockhash": "00000000000000000018f53835495a110e01622372bf6ae95dc86f2b0ab887b0", "vout": [{"scriptPubKey": {"reqSigs": 1, "hex": "a9146916916f4cacb8ac2b81cc143a0ca590267c670187", "addresses": ["3BGfukBakku94hzuFNZdmoyt6ssE3C35Dz"], "asm": "OP_HASH160 6916916f4cacb8ac2b81cc143a0ca590267c6701 OP_EQUAL", "type": "scripthash"}, "value": 0.0033196, "n": 0}, {"scriptPubKey": {"reqSigs": 1, "hex": "a914062b5509e2eca513bf4761665571b9bc56aa676187", "addresses": ["32FdtU52duxkwGGSRJ5NuLqYUi2qJfqot1"], "asm": "OP_HASH160 062b5509e2eca513bf4761665571b9bc56aa6761 OP_EQUAL", "type": "scripthash"}, "value": 0.50358428, "n": 1}], "hex": "01000000010413f19da8ac9f349ff92d6eea6fd00f10662d60a74f498db48d17bde6e15d9c01000000d90047304402202ad1063d789c1cf741ccdb8abcd675c2d287c57e2e75ac60e96d043a8482e6210220192376a78f1306ccee32d9c5991e62ac88a7d0ffa6b8da8a8709e8bc973c2df10147304402203d338e69e72eb4064f32153d90b61c8c230c3f58e8f6c2ef3e35988b5044e01302205154cdc25aca515fd4b9921f8f6b3db7944051094853378a6cc8adaecedc19600147522103abc8a801f5fbb4fd5f6510ba530d534b0efb584b4298cea1e6e2d45cd1000aef2102a29577404fa42d6d12e0d867249d4ee805afecc9e10879ed668da9958dc7b65052aeffffffff02b81005000000000017a9146916916f4cacb8ac2b81cc143a0ca590267c6701879c6800030000000017a914062b5509e2eca513bf4761665571b9bc56aa67618700000000", "vin": [{"sequence": 4294967295, "scriptSig": {"hex": "0047304402202ad1063d789c1cf741ccdb8abcd675c2d287c57e2e75ac60e96d043a8482e6210220192376a78f1306ccee32d9c5991e62ac88a7d0ffa6b8da8a8709e8bc973c2df10147304402203d338e69e72eb4064f32153d90b61c8c230c3f58e8f6c2ef3e35988b5044e01302205154cdc25aca515fd4b9921f8f6b3db7944051094853378a6cc8adaecedc19600147522103abc8a801f5fbb4fd5f6510ba530d534b0efb584b4298cea1e6e2d45cd1000aef2102a29577404fa42d6d12e0d867249d4ee805afecc9e10879ed668da9958dc7b65052ae", "asm": "0 304402202ad1063d789c1cf741ccdb8abcd675c2d287c57e2e75ac60e96d043a8482e6210220192376a78f1306ccee32d9c5991e62ac88a7d0ffa6b8da8a8709e8bc973c2df1[ALL] 304402203d338e69e72eb4064f32153d90b61c8c230c3f58e8f6c2ef3e35988b5044e01302205154cdc25aca515fd4b9921f8f6b3db7944051094853378a6cc8adaecedc1960[ALL] 522103abc8a801f5fbb4fd5f6510ba530d534b0efb584b4298cea1e6e2d45cd1000aef2102a29577404fa42d6d12e0d867249d4ee805afecc9e10879ed668da9958dc7b65052ae"}, "vout": 1, "txid": "9c5de1e6bd178db48d494fa7602d66100fd06fea6e2df99f349faca89df11304"}], "txid": "aa3a2342d2d2e0c182adb611a1e4395e2ec7458bd87fd35295b15d3a678baa55", "blocktime": 1537870928, "version": 1, "confirmations": 11514, "time": 1537870928, "locktime": 0, "vsize": 332, "size": 332}