{"hash": "aa3ac4643481397c14226cb2e7ce0900be94a0a56bd3a331f6e1a866307782fa", "blockhash": "0000000000000000001cda96e906b7601b7a6fb1a3b62bca570a9e5d8f4b3de1", "vout": [{"scriptPubKey": {"reqSigs": 1, "hex": "a914c6a5766d3a7d4477ced369559de79a98d40095dc87", "addresses": ["3KoMw4yvy4sS1isiUXz2cmYga4VXiecQau"], "asm": "OP_HASH160 c6a5766d3a7d4477ced369559de79a98d40095dc OP_EQUAL", "type": "scripthash"}, "value": 0.00530877, "n": 0}, {"scriptPubKey": {"reqSigs": 1, "hex": "76a914d83aa270af0a33a782607183c3391c5b686b99c288ac", "addresses": ["1LiKCSBDKTWrj1Ybb5USeDcR7f75zfnCgH"], "asm": "OP_DUP OP_HASH160 d83aa270af0a33a782607183c3391c5b686b99c2 OP_EQUALVERIFY OP_CHECKSIG", "type": "pubkeyhash"}, "value": 0.01392636, "n": 1}], "hex": "0100000001bf0e749f40f61b05782be4d9fb5e5ff43bf9dfcb37ef74f7981e1f8cf560f736000000006b483045022100846546e5d87fd7f8c9c246deb6710b59e64b12afbe38eefd2a9345ff7958aff8022049d31d3bb7aece62ca05c09b843fb325f0f4409425a6c788d7d434281b3d80330121037466734526e95ee1c7d5802c9e17de90a6f8cda391861e222d2dca7e02aa6e47ffffffff02bd1908000000000017a914c6a5766d3a7d4477ced369559de79a98d40095dc87fc3f1500000000001976a914d83aa270af0a33a782607183c3391c5b686b99c288ac00000000", "vin": [{"sequence": 4294967295, "scriptSig": {"hex": "483045022100846546e5d87fd7f8c9c246deb6710b59e64b12afbe38eefd2a9345ff7958aff8022049d31d3bb7aece62ca05c09b843fb325f0f4409425a6c788d7d434281b3d80330121037466734526e95ee1c7d5802c9e17de90a6f8cda391861e222d2dca7e02aa6e47", "asm": "3045022100846546e5d87fd7f8c9c246deb6710b59e64b12afbe38eefd2a9345ff7958aff8022049d31d3bb7aece62ca05c09b843fb325f0f4409425a6c788d7d434281b3d8033[ALL] 037466734526e95ee1c7d5802c9e17de90a6f8cda391861e222d2dca7e02aa6e47"}, "vout": 0, "txid": "36f760f58c1f1e98f774ef37cbdff93bf45f5efbd9e42b78051bf6409f740ebf"}], "txid": "aa3ac4643481397c14226cb2e7ce0900be94a0a56bd3a331f6e1a866307782fa", "blocktime": 1537873282, "version": 1, "confirmations": 11485, "time": 1537873282, "locktime": 0, "vsize": 224, "size": 224}