{"hash": "f260c34c2cdc86fb55105baf2fb010f1dae4e6c3870d5a4072f3f605643a360b", "blockhash": "0000000000000000001f0ddff1eddb255c1121bcd4da4f1bc9a0da00cae72433", "vout": [{"scriptPubKey": {"reqSigs": 1, "hex": "0014a699d91d36fb4a1f9448b04d0659440425da00ef", "addresses": ["bc1q56vaj8fkld9pl9zgkpxsvk2yqsja5q80elqsjd"], "asm": "0 a699d91d36fb4a1f9448b04d0659440425da00ef", "type": "witness_v0_keyhash"}, "value": 0.00222384, "n": 0}, {"scriptPubKey": {"reqSigs": 1, "hex": "76a9148323d87026802f0f916cc94b25423fa9e9740f0088ac", "addresses": ["1CxQTiXxECKUhv99Pc9en58JaJh7rPEZHY"], "asm": "OP_DUP OP_HASH160 8323d87026802f0f916cc94b25423fa9e9740f00 OP_EQUALVERIFY OP_CHECKSIG", "type": "pubkeyhash"}, "value": 0.08989449, "n": 1}], "hex": "01000000000101028593080687be1b6d51ce1c165aed7545b9f9a793d52e5fa63afa43c361b9fb200000001716001426222625ae46b2037bc8b68dad24dffa5c0f0952ffffffff02b064030000000000160014a699d91d36fb4a1f9448b04d0659440425da00ef092b8900000000001976a9148323d87026802f0f916cc94b25423fa9e9740f0088ac0247304402202ba9edeeb2344a06c9b88e32a70712283d463086bd24218e2a155ac3c491ab2f022007bc6fa755fd9639f5e7e499b8ecc34db36a7f7bc97b46ce39d474f4ce602ae3012102c8ac29a0a5f74a9c10bb095db56503b7b0a1adff2b5fe9ae4ec294762864c77300000000", "vin": [{"txinwitness": ["304402202ba9edeeb2344a06c9b88e32a70712283d463086bd24218e2a155ac3c491ab2f022007bc6fa755fd9639f5e7e499b8ecc34db36a7f7bc97b46ce39d474f4ce602ae301", "02c8ac29a0a5f74a9c10bb095db56503b7b0a1adff2b5fe9ae4ec294762864c773"], "sequence": 4294967295, "scriptSig": {"hex": "16001426222625ae46b2037bc8b68dad24dffa5c0f0952", "asm": "001426222625ae46b2037bc8b68dad24dffa5c0f0952"}, "vout": 32, "txid": "fbb961c343fa3aa65f2ed593a7f9b94575ed5a161cce516d1bbe870608938502"}], "txid": "aa3ba0d3b29130b0e0a9b04fdc3fe46384b7cce010b8a908b45eba49d439a9c8", "blocktime": 1537872018, "version": 1, "confirmations": 11489, "time": 1537872018, "locktime": 0, "vsize": 167, "size": 248}