{"hash": "aa3ddd148a8e015804daa75697bfb8f02c1893a8407bc25d163ae666218a94d5", "blockhash": "00000000000000000017f5eb5941039fbcee6240d03bc1f2f8e35350df66a1d8", "vout": [{"scriptPubKey": {"reqSigs": 1, "hex": "76a914ba4e66eb86bf9c453de19888f224882cee05182888ac", "addresses": ["1Hz6c9eZXvkoAbW3K1hV4ukFDUU4amQZNc"], "asm": "OP_DUP OP_HASH160 ba4e66eb86bf9c453de19888f224882cee051828 OP_EQUALVERIFY OP_CHECKSIG", "type": "pubkeyhash"}, "value": 3.162e-05, "n": 0}, {"scriptPubKey": {"reqSigs": 1, "hex": "76a91434b3418360b19480ff8f148daa2e7f103e577bf288ac", "addresses": ["15oestsAMtw6kwTHh5XhWwSCJFaVsuR8H2"], "asm": "OP_DUP OP_HASH160 34b3418360b19480ff8f148daa2e7f103e577bf2 OP_EQUALVERIFY OP_CHECKSIG", "type": "pubkeyhash"}, "value": 0.04220432, "n": 1}], "hex": "0100000004d69cb6ae92f67f79cb4c0c9f29dd2ef92a6950fbad4ca478f25706231534ff350e0000006a47304402200eff9a74c7f66ee850376302712a9e4436d78e1114a366a67b1151c05e9a442702207972c05109708a78d71a436842febfe0bcb7c4e4bc27ff36f3bece23035a3109012102f237e59e7fd6090874173aa0ee9999179a69c850ba58d4bf19f9613240fb29f5fffffffffee834a56e074b9b3a1fc48f1cd83c6199b558437ca69950daf7b7f21be75b3f000000006a47304402204b9587a155e1032aae3063fc7d35dec8c72a2733154c1261b0a5af477c757bdf0220629e98211ae535cd9adefb33801564457fe7a62e4af81a7a88662579e56dc0f80121030ac3b934f86468d8dd6626bc3ad195dbbcfd40fb1e97497fdf25223f0f00a0efffffffffba394aff81ff9a65174d570a8da6dd87998a7cdadaf2c343ff230d6ddd20bd5f000000006a47304402200b26315ab1e656a9c98922a4cfbbaf0677fcd2360e1923bcfe4f9cc79398aefe02202699b5bf8de2bc1c35714387fd6d0a048edb18f5ff7b1d8e39ceddeb88078ec5012103bb7e7334bc86f5ce061f7e4d0f30fc71a8fa1b0241d4c8a5f9dcacd65a7dced0fffffffff4452509292df6d2e2cab1b2b602a7e48185417936694c90fa611130c135d3dd000000006b483045022100fd4c894b0c30c7ac741bdadee8770f53ad55e093eb988c09573359fbfe1ff46702203c10c973de85cd0276e271068cc2647fc8c7723bb0318da4c05e1d99bb56031f012102d0e86a9dc78f74eee8b0a56b7f52a261773595c278c3a288c4c02b6f7de96d4effffffff025a0c0000000000001976a914ba4e66eb86bf9c453de19888f224882cee05182888ac10664000000000001976a91434b3418360b19480ff8f148daa2e7f103e577bf288ac00000000", "vin": [{"sequence": 4294967295, "scriptSig": {"hex": "47304402200eff9a74c7f66ee850376302712a9e4436d78e1114a366a67b1151c05e9a442702207972c05109708a78d71a436842febfe0bcb7c4e4bc27ff36f3bece23035a3109012102f237e59e7fd6090874173aa0ee9999179a69c850ba58d4bf19f9613240fb29f5", "asm": "304402200eff9a74c7f66ee850376302712a9e4436d78e1114a366a67b1151c05e9a442702207972c05109708a78d71a436842febfe0bcb7c4e4bc27ff36f3bece23035a3109[ALL] 02f237e59e7fd6090874173aa0ee9999179a69c850ba58d4bf19f9613240fb29f5"}, "vout": 14, "txid": "35ff3415230657f278a44cadfb50692af92edd299f0c4ccb797ff692aeb69cd6"}, {"sequence": 4294967295, "scriptSig": {"hex": "47304402204b9587a155e1032aae3063fc7d35dec8c72a2733154c1261b0a5af477c757bdf0220629e98211ae535cd9adefb33801564457fe7a62e4af81a7a88662579e56dc0f80121030ac3b934f86468d8dd6626bc3ad195dbbcfd40fb1e97497fdf25223f0f00a0ef", "asm": "304402204b9587a155e1032aae3063fc7d35dec8c72a2733154c1261b0a5af477c757bdf0220629e98211ae535cd9adefb33801564457fe7a62e4af81a7a88662579e56dc0f8[ALL] 030ac3b934f86468d8dd6626bc3ad195dbbcfd40fb1e97497fdf25223f0f00a0ef"}, "vout": 0, "txid": "3f5be71bf2b7f7da5099a67c4358b599613cd81c8fc41f3a9b4b076ea534e8fe"}, {"sequence": 4294967295, "scriptSig": {"hex": "47304402200b26315ab1e656a9c98922a4cfbbaf0677fcd2360e1923bcfe4f9cc79398aefe02202699b5bf8de2bc1c35714387fd6d0a048edb18f5ff7b1d8e39ceddeb88078ec5012103bb7e7334bc86f5ce061f7e4d0f30fc71a8fa1b0241d4c8a5f9dcacd65a7dced0", "asm": "304402200b26315ab1e656a9c98922a4cfbbaf0677fcd2360e1923bcfe4f9cc79398aefe02202699b5bf8de2bc1c35714387fd6d0a048edb18f5ff7b1d8e39ceddeb88078ec5[ALL] 03bb7e7334bc86f5ce061f7e4d0f30fc71a8fa1b0241d4c8a5f9dcacd65a7dced0"}, "vout": 0, "txid": "5fbd20dd6d0d23ff43c3f2dada7c8a9987dda68d0a574d17659aff81ff4a39ba"}, {"sequence": 4294967295, "scriptSig": {"hex": "483045022100fd4c894b0c30c7ac741bdadee8770f53ad55e093eb988c09573359fbfe1ff46702203c10c973de85cd0276e271068cc2647fc8c7723bb0318da4c05e1d99bb56031f012102d0e86a9dc78f74eee8b0a56b7f52a261773595c278c3a288c4c02b6f7de96d4e", "asm": "3045022100fd4c894b0c30c7ac741bdadee8770f53ad55e093eb988c09573359fbfe1ff46702203c10c973de85cd0276e271068cc2647fc8c7723bb0318da4c05e1d99bb56031f[ALL] 02d0e86a9dc78f74eee8b0a56b7f52a261773595c278c3a288c4c02b6f7de96d4e"}, "vout": 0, "txid": "ddd335c1301161fa904c693679418581e4a702b6b2b1cae2d2f62d29092545f4"}], "txid": "aa3ddd148a8e015804daa75697bfb8f02c1893a8407bc25d163ae666218a94d5", "blocktime": 1537874412, "version": 1, "confirmations": 11467, "time": 1537874412, "locktime": 0, "vsize": 667, "size": 667}