{"hash": "aa3dd07bc17446c7554ff3f2db06ee95b848bbf0b6703a53edbf5bfb1008a74f", "blockhash": "0000000000000000001cda96e906b7601b7a6fb1a3b62bca570a9e5d8f4b3de1", "vout": [{"scriptPubKey": {"type": "nulldata", "hex": "6a4c50000077c2000127bf8044c92b98c2e7e936e2e5bf9ae76da98a211aaf6c953dd567cf27e798c5eb9fa6bbd974d69c74e697ce49a45baa12ca061327b08babefeabc9a9526289ac0f6612cd74e33776ee4", "asm": "OP_RETURN 000077c2000127bf8044c92b98c2e7e936e2e5bf9ae76da98a211aaf6c953dd567cf27e798c5eb9fa6bbd974d69c74e697ce49a45baa12ca061327b08babefeabc9a9526289ac0f6612cd74e33776ee4"}, "value": 0.0, "n": 0}, {"scriptPubKey": {"reqSigs": 1, "hex": "76a9147f754596685a8f1940e088a7a214b3c152ef4b1e88ac", "addresses": ["1CcwJZ1G2dtUZVwPxSz7GxZXUoCY1Z9iKb"], "asm": "OP_DUP OP_HASH160 7f754596685a8f1940e088a7a214b3c152ef4b1e OP_EQUALVERIFY OP_CHECKSIG", "type": "pubkeyhash"}, "value": 0.0147606, "n": 1}], "hex": "0100000001acb31422369d056c80e05ecec926bc2219c35976fe96265d5774df90974a5844010000006b483045022100d1b690459be16d2c4c25d71b37e304b313dd3e1c21e8870f10320c80885dc3d90220423fbc45e9c215fbb92a9f5ef45b23c05b16c6edafa3633c6a4cc2fbcad11700012103b3340e318cc20ee595c8c981887ad2b72f21d8ed38c6237b028f63fe218ec338ffffffff020000000000000000536a4c50000077c2000127bf8044c92b98c2e7e936e2e5bf9ae76da98a211aaf6c953dd567cf27e798c5eb9fa6bbd974d69c74e697ce49a45baa12ca061327b08babefeabc9a9526289ac0f6612cd74e33776ee4dc851600000000001976a9147f754596685a8f1940e088a7a214b3c152ef4b1e88ac00000000", "vin": [{"sequence": 4294967295, "scriptSig": {"hex": "483045022100d1b690459be16d2c4c25d71b37e304b313dd3e1c21e8870f10320c80885dc3d90220423fbc45e9c215fbb92a9f5ef45b23c05b16c6edafa3633c6a4cc2fbcad11700012103b3340e318cc20ee595c8c981887ad2b72f21d8ed38c6237b028f63fe218ec338", "asm": "3045022100d1b690459be16d2c4c25d71b37e304b313dd3e1c21e8870f10320c80885dc3d90220423fbc45e9c215fbb92a9f5ef45b23c05b16c6edafa3633c6a4cc2fbcad11700[ALL] 03b3340e318cc20ee595c8c981887ad2b72f21d8ed38c6237b028f63fe218ec338"}, "vout": 1, "txid": "44584a9790df74575d2696fe7659c31922bc26c9ce5ee0806c059d362214b3ac"}], "txid": "aa3dd07bc17446c7554ff3f2db06ee95b848bbf0b6703a53edbf5bfb1008a74f", "blocktime": 1537873282, "version": 1, "confirmations": 11484, "time": 1537873282, "locktime": 0, "vsize": 284, "size": 284}