{"hash": "aa3ec7b92f2fde0a22b1e48aa1261fe78852859b503071024afa75735192f87a", "blockhash": "00000000000000000018f53835495a110e01622372bf6ae95dc86f2b0ab887b0", "vout": [{"scriptPubKey": {"reqSigs": 1, "hex": "a9145e7175e8053ea139fa0112292e35cd3c3e1abddd87", "addresses": ["3AJPMxKJWZC1kNK9CCNMCfKcvZVZGVV8hG"], "asm": "OP_HASH160 5e7175e8053ea139fa0112292e35cd3c3e1abddd OP_EQUAL", "type": "scripthash"}, "value": 0.00075394, "n": 0}], "hex": "01000000011843bc4cfcd165b90ec84ed955705bb1fb81bf2577fe2c53c8000c5a103932dd000000006b4830450221008e70f9822de94cbb0eb0565a3ac7dbb707673f8234f324164d3ddc454987346d022067536dc164534a02b672d40446d52b484eaa4ddc5613dae0d2f1dff96516212d012103c6c810f52679c94839230a364b02a29f71e2239ed70adc2c17572a9edb995503ffffffff01822601000000000017a9145e7175e8053ea139fa0112292e35cd3c3e1abddd8700000000", "vin": [{"sequence": 4294967295, "scriptSig": {"hex": "4830450221008e70f9822de94cbb0eb0565a3ac7dbb707673f8234f324164d3ddc454987346d022067536dc164534a02b672d40446d52b484eaa4ddc5613dae0d2f1dff96516212d012103c6c810f52679c94839230a364b02a29f71e2239ed70adc2c17572a9edb995503", "asm": "30450221008e70f9822de94cbb0eb0565a3ac7dbb707673f8234f324164d3ddc454987346d022067536dc164534a02b672d40446d52b484eaa4ddc5613dae0d2f1dff96516212d[ALL] 03c6c810f52679c94839230a364b02a29f71e2239ed70adc2c17572a9edb995503"}, "vout": 0, "txid": "dd3239105a0c00c8532cfe7725bf81fbb15b7055d94ec80eb965d1fc4cbc4318"}], "txid": "aa3ec7b92f2fde0a22b1e48aa1261fe78852859b503071024afa75735192f87a", "blocktime": 1537870928, "version": 1, "confirmations": 11512, "time": 1537870928, "locktime": 0, "vsize": 190, "size": 190}