{"hash": "aa3fc69e68207bd7b5561c1564e934b1ef4f021c126b9fef6d79b8f74eb7ba7a", "blockhash": "0000000000000000000e13cef7c366c0283d82e591d1acd082e914b08063cdf1", "vout": [{"scriptPubKey": {"reqSigs": 1, "hex": "76a914d9a0049d18a1c77a8b7d941377d78fc574e446d088ac", "addresses": ["1LqhKsi7wSK6pQ5MrKW35iuiePN6q6hFe6"], "asm": "OP_DUP OP_HASH160 d9a0049d18a1c77a8b7d941377d78fc574e446d0 OP_EQUALVERIFY OP_CHECKSIG", "type": "pubkeyhash"}, "value": 0.07801429, "n": 0}, {"scriptPubKey": {"reqSigs": 1, "hex": "a9140c81b91da199ee41a6d5c2e9b8ebf6dc7a7880df87", "addresses": ["32q9SAYLPb6G4TrvhpF2zZHRdYcNnuPDHg"], "asm": "OP_HASH160 0c81b91da199ee41a6d5c2e9b8ebf6dc7a7880df OP_EQUAL", "type": "scripthash"}, "value": 0.0125896, "n": 1}], "hex": "010000000187145819769b8b39d18ec09a60e634e44a94ec1a10e4ca12da6060782aefa4ba01000000fdfe000048304502210094d5fd71567251cf9c069593713f815f4028d635982239a676c489200b76bae602202bdb9552b0be6f43bca899b25d18269672a42acbdb249f2baf88dfd60eabbc8e01483045022100d4b59815de361cdbec6655064b7619818872a18d6ffcd6fad3752222309401d5022010e6c2aaffb706f94a61da00b35d4dbeb1278ef4b1654ba6ab8089f2d7f20dff014c6952210215f16b24996b4daa267af097fa84a0e5a3ef054deca0abbc37ccb2cf9a49a6412102cc98dfe92175378f7deb7059a6ae3e44082f7f4a3b9c206eddf98fffb95c7fcf2103658e7187ab03229c8c94bd55a17b9445f67072954b3e0bd3295fba7ddc16ee8953aeffffffff02550a7700000000001976a914d9a0049d18a1c77a8b7d941377d78fc574e446d088acd03513000000000017a9140c81b91da199ee41a6d5c2e9b8ebf6dc7a7880df8700000000", "vin": [{"sequence": 4294967295, "scriptSig": {"hex": "0048304502210094d5fd71567251cf9c069593713f815f4028d635982239a676c489200b76bae602202bdb9552b0be6f43bca899b25d18269672a42acbdb249f2baf88dfd60eabbc8e01483045022100d4b59815de361cdbec6655064b7619818872a18d6ffcd6fad3752222309401d5022010e6c2aaffb706f94a61da00b35d4dbeb1278ef4b1654ba6ab8089f2d7f20dff014c6952210215f16b24996b4daa267af097fa84a0e5a3ef054deca0abbc37ccb2cf9a49a6412102cc98dfe92175378f7deb7059a6ae3e44082f7f4a3b9c206eddf98fffb95c7fcf2103658e7187ab03229c8c94bd55a17b9445f67072954b3e0bd3295fba7ddc16ee8953ae", "asm": "0 304502210094d5fd71567251cf9c069593713f815f4028d635982239a676c489200b76bae602202bdb9552b0be6f43bca899b25d18269672a42acbdb249f2baf88dfd60eabbc8e[ALL] 3045022100d4b59815de361cdbec6655064b7619818872a18d6ffcd6fad3752222309401d5022010e6c2aaffb706f94a61da00b35d4dbeb1278ef4b1654ba6ab8089f2d7f20dff[ALL] 52210215f16b24996b4daa267af097fa84a0e5a3ef054deca0abbc37ccb2cf9a49a6412102cc98dfe92175378f7deb7059a6ae3e44082f7f4a3b9c206eddf98fffb95c7fcf2103658e7187ab03229c8c94bd55a17b9445f67072954b3e0bd3295fba7ddc16ee8953ae"}, "vout": 1, "txid": "baa4ef2a786060da12cae4101aec944ae434e6609ac08ed1398b9b7619581487"}], "txid": "aa3fc69e68207bd7b5561c1564e934b1ef4f021c126b9fef6d79b8f74eb7ba7a", "blocktime": 1537871767, "version": 1, "confirmations": 11491, "time": 1537871767, "locktime": 0, "vsize": 373, "size": 373}