{"hash": "aa47651bc370556dfa964a42f1bc81cbc57af947e47e57a7526a6346601fbe25", "blockhash": "000000000000000000022b45ed06c6f4ccd3cf7fb5ba4856ebd2e58215665228", "vout": [{"scriptPubKey": {"reqSigs": 1, "hex": "76a9140bfeae073df1f55e9ef1c79dd1dcd6e9f761da2688ac", "addresses": ["126RXaDdyeL9HG2cycs8m5NcWAZNnqza2H"], "asm": "OP_DUP OP_HASH160 0bfeae073df1f55e9ef1c79dd1dcd6e9f761da26 OP_EQUALVERIFY OP_CHECKSIG", "type": "pubkeyhash"}, "value": 0.0005, "n": 0}, {"scriptPubKey": {"reqSigs": 1, "hex": "76a914e349bc52d6b8100b58d3fce45135a91c5c128a1d88ac", "addresses": ["1MiningDkXkhKaXBTMKXfLemnk1YY5rbkT"], "asm": "OP_DUP OP_HASH160 e349bc52d6b8100b58d3fce45135a91c5c128a1d OP_EQUALVERIFY OP_CHECKSIG", "type": "pubkeyhash"}, "value": 0.00411416, "n": 1}], "hex": "02000000018dcc0258de71acf33a25ef5adaebafa10f9d370de2cf1612006f99c92a9d3655010000008b483045022100efcea8e6c3e3db021c2594bf46d15b0b5d6261b08a031c77e2ba0f13f8f97930022072a32554180d908e7020a69fafaec90061b3fe02dafce87d9364aed573511704014104ae414abde7876c34e01694b38b2341d10b9b4c8db18a66262bd8df26bcb57893885c9fe8b79aa25330d5f05bb5aa9ab636a908a72e27956572b44190b22809beffffffff0250c30000000000001976a9140bfeae073df1f55e9ef1c79dd1dcd6e9f761da2688ac18470600000000001976a914e349bc52d6b8100b58d3fce45135a91c5c128a1d88ac00000000", "vin": [{"sequence": 4294967295, "scriptSig": {"hex": "483045022100efcea8e6c3e3db021c2594bf46d15b0b5d6261b08a031c77e2ba0f13f8f97930022072a32554180d908e7020a69fafaec90061b3fe02dafce87d9364aed573511704014104ae414abde7876c34e01694b38b2341d10b9b4c8db18a66262bd8df26bcb57893885c9fe8b79aa25330d5f05bb5aa9ab636a908a72e27956572b44190b22809be", "asm": "3045022100efcea8e6c3e3db021c2594bf46d15b0b5d6261b08a031c77e2ba0f13f8f97930022072a32554180d908e7020a69fafaec90061b3fe02dafce87d9364aed573511704[ALL] 04ae414abde7876c34e01694b38b2341d10b9b4c8db18a66262bd8df26bcb57893885c9fe8b79aa25330d5f05bb5aa9ab636a908a72e27956572b44190b22809be"}, "vout": 1, "txid": "55369d2ac9996f001216cfe20d379d0fa1afebda5aef253af3ac71de5802cc8d"}], "txid": "aa47651bc370556dfa964a42f1bc81cbc57af947e47e57a7526a6346601fbe25", "blocktime": 1537869901, "version": 2, "confirmations": 11523, "time": 1537869901, "locktime": 0, "vsize": 258, "size": 258}