{"hash": "aa4f34a007e463fae4251e4c910f3b9d24a2775599ccc70b3ea1b118b7a528c1", "blockhash": "0000000000000000001f0ddff1eddb255c1121bcd4da4f1bc9a0da00cae72433", "vout": [{"scriptPubKey": {"reqSigs": 1, "hex": "a9149ef0059f12220a2ae125759b8f39b968eb3fe03f87", "addresses": ["3GBQDsUJnU8ZacA38eurVaYn6Mg3D3Vqc4"], "asm": "OP_HASH160 9ef0059f12220a2ae125759b8f39b968eb3fe03f OP_EQUAL", "type": "scripthash"}, "value": 0.00602682, "n": 0}], "hex": "010000000a5ba99ce2862446d627ea45f4a5620f6a52593bf405e5a7327dce68a4e9f5dd10000000006b483045022100b878cd56e71d75663333a0f3c5bb91edce47b07aa6515052d793da8009499ef702207ba89fbb6add47c28dcca68feaedf464de052df44540af8730574da5e3f8c2ee012102061839b0a418bb668a8fa6243f919c27788082a89cfb122cad55ca7f74bc4aa6ffffffff306df8c5e6672fe113834988f440cab0c233a028978a985d054adeb1eb38cb2e000000006a47304402200b4733f34ebf693b7130cb4aa23f41bd838cd5158c04fe000cc99b251311898f02204cd7bdbecd265025c907432781fcf5ab7fc97e9d85a2e4d2b8258f5ad42292b2012102061839b0a418bb668a8fa6243f919c27788082a89cfb122cad55ca7f74bc4aa6ffffffffbebb7c970acb42b358e8e1eb898b9a5a1ae26a0f80caa1138b742c281ab15531000000006b483045022100826ce47ee2f8da30792465766676139320112e3f88d40fbf7da4dc1617e463ac02205861ba75e64df3e57efaf16e2e993f580460793508ac7294095ec6836169da93012102c4f63fa9f33a32b60f7bf4a40e7b218c4a1f1e0db30635c009166f4e9b5222feffffffffcd9c47ccb8bf6fb4f13297009cfcd166370f8442890e84e35e184d101b198366000000006b483045022100f46985e9734fb59f76a56e28e8704ab792128aec366b3c131b84e93ab0bb3ba502200160f8db640c8793b32b636cf3b8a0bebbacee7a222317871e6a73f171448fde012102061839b0a418bb668a8fa6243f919c27788082a89cfb122cad55ca7f74bc4aa6ffffffffa0efb23b2b21caeb908307b15743bb8800ff9055e96ced71cdbcb3b37d7d869a000000006b4830450221008830403845ffc56b1c0ab9aaaf01eefd211c815d4aee211b29c7428119f4b4a302204cb62ac37da880c53dc9551d4efc6104cc6606185eba37fd6684a3e94bc252d6012102c4f63fa9f33a32b60f7bf4a40e7b218c4a1f1e0db30635c009166f4e9b5222feffffffff0da869d487d2a4f58e2bd01899344af7e0d37b4d9b9357779ef3042eb73252bb000000006a473044022041aab78520cd88e1216c3f6aa3347451aa2ab95c24b3de3fae90f17b1aa17521022016072428b8e13af42f0a668b57fb59f0da25abc179e070080ebfd8d358dd7286012102061839b0a418bb668a8fa6243f919c27788082a89cfb122cad55ca7f74bc4aa6ffffffff71043e09d26e10908a5525a57a4bc95f4062b6e1eea10bfc4ef8ca49cec1dacb000000006a4730440220772ce02dc42e63125c9a0a21756adb438d8427866bb0f8eb958acbbe14fe2d92022060d6c116fca56696077cbce085d653db4eba32803fecab66b83b5fd12661cb980121029cb07acabf78a476a8b5b76a7c6aa1aeeb4ed65c5dc131eb9377b0de54ee80e3ffffffff8450fdecfc9762f39d10496d8d5b79828cb20e49ca833111dca1c7a56ea56adf000000006a47304402201ceec262698138f2bbed370b2cbbb4ff9a50fcfe9c025bc2344f638786f89f8402204fae5984bbf8d5416bf154dd755e02d7724ffa58c683552a0d307588afd9157401210201caf6710096df92cd92c3b5ea23bf3cad484c18c991bc0e932da3a874e2d70fffffffff19a36b4ad76f348a4e8d7eead8f9789596825df0eda69bf7097b695e95cd29e4000000006b4830450221009f1dc33cb830239b1733bb5584e2767fc8c9ba0e583fa9c07442b38e0c08945002201ada4868df98e0ac9a61910e14e7b6b33bb5794f17e8a53d8e413122e7455cd0012102c4f63fa9f33a32b60f7bf4a40e7b218c4a1f1e0db30635c009166f4e9b5222feffffffff973952cc68799dfa62d67133c3d9d2768352ceef47287a6bd5df1ab80204d6f7000000006a4730440220272394ffb05883f615c9b4459f28ce60a815ed80e19df6c2f11fa876725cb6830220431cf472b6c5d30c30cebf0772a11e6dd955c3fbd302da2e12f879589ebab6e5012103d45223b452d58f20ae3aed0ea783b88516e1e3bf6efbba16360a674d08461e12ffffffff013a3209000000000017a9149ef0059f12220a2ae125759b8f39b968eb3fe03f8700000000", "vin": [{"sequence": 4294967295, "scriptSig": {"hex": "483045022100b878cd56e71d75663333a0f3c5bb91edce47b07aa6515052d793da8009499ef702207ba89fbb6add47c28dcca68feaedf464de052df44540af8730574da5e3f8c2ee012102061839b0a418bb668a8fa6243f919c27788082a89cfb122cad55ca7f74bc4aa6", "asm": "3045022100b878cd56e71d75663333a0f3c5bb91edce47b07aa6515052d793da8009499ef702207ba89fbb6add47c28dcca68feaedf464de052df44540af8730574da5e3f8c2ee[ALL] 02061839b0a418bb668a8fa6243f919c27788082a89cfb122cad55ca7f74bc4aa6"}, "vout": 0, "txid": "10ddf5e9a468ce7d32a7e505f43b59526a0f62a5f445ea27d6462486e29ca95b"}, {"sequence": 4294967295, "scriptSig": {"hex": "47304402200b4733f34ebf693b7130cb4aa23f41bd838cd5158c04fe000cc99b251311898f02204cd7bdbecd265025c907432781fcf5ab7fc97e9d85a2e4d2b8258f5ad42292b2012102061839b0a418bb668a8fa6243f919c27788082a89cfb122cad55ca7f74bc4aa6", "asm": "304402200b4733f34ebf693b7130cb4aa23f41bd838cd5158c04fe000cc99b251311898f02204cd7bdbecd265025c907432781fcf5ab7fc97e9d85a2e4d2b8258f5ad42292b2[ALL] 02061839b0a418bb668a8fa6243f919c27788082a89cfb122cad55ca7f74bc4aa6"}, "vout": 0, "txid": "2ecb38ebb1de4a055d988a9728a033c2b0ca40f488498313e12f67e6c5f86d30"}, {"sequence": 4294967295, "scriptSig": {"hex": "483045022100826ce47ee2f8da30792465766676139320112e3f88d40fbf7da4dc1617e463ac02205861ba75e64df3e57efaf16e2e993f580460793508ac7294095ec6836169da93012102c4f63fa9f33a32b60f7bf4a40e7b218c4a1f1e0db30635c009166f4e9b5222fe", "asm": "3045022100826ce47ee2f8da30792465766676139320112e3f88d40fbf7da4dc1617e463ac02205861ba75e64df3e57efaf16e2e993f580460793508ac7294095ec6836169da93[ALL] 02c4f63fa9f33a32b60f7bf4a40e7b218c4a1f1e0db30635c009166f4e9b5222fe"}, "vout": 0, "txid": "3155b11a282c748b13a1ca800f6ae21a5a9a8b89ebe1e858b342cb0a977cbbbe"}, {"sequence": 4294967295, "scriptSig": {"hex": "483045022100f46985e9734fb59f76a56e28e8704ab792128aec366b3c131b84e93ab0bb3ba502200160f8db640c8793b32b636cf3b8a0bebbacee7a222317871e6a73f171448fde012102061839b0a418bb668a8fa6243f919c27788082a89cfb122cad55ca7f74bc4aa6", "asm": "3045022100f46985e9734fb59f76a56e28e8704ab792128aec366b3c131b84e93ab0bb3ba502200160f8db640c8793b32b636cf3b8a0bebbacee7a222317871e6a73f171448fde[ALL] 02061839b0a418bb668a8fa6243f919c27788082a89cfb122cad55ca7f74bc4aa6"}, "vout": 0, "txid": "6683191b104d185ee3840e8942840f3766d1fc9c009732f1b46fbfb8cc479ccd"}, {"sequence": 4294967295, "scriptSig": {"hex": "4830450221008830403845ffc56b1c0ab9aaaf01eefd211c815d4aee211b29c7428119f4b4a302204cb62ac37da880c53dc9551d4efc6104cc6606185eba37fd6684a3e94bc252d6012102c4f63fa9f33a32b60f7bf4a40e7b218c4a1f1e0db30635c009166f4e9b5222fe", "asm": "30450221008830403845ffc56b1c0ab9aaaf01eefd211c815d4aee211b29c7428119f4b4a302204cb62ac37da880c53dc9551d4efc6104cc6606185eba37fd6684a3e94bc252d6[ALL] 02c4f63fa9f33a32b60f7bf4a40e7b218c4a1f1e0db30635c009166f4e9b5222fe"}, "vout": 0, "txid": "9a867d7db3b3bccd71ed6ce95590ff0088bb4357b1078390ebca212b3bb2efa0"}, {"sequence": 4294967295, "scriptSig": {"hex": "473044022041aab78520cd88e1216c3f6aa3347451aa2ab95c24b3de3fae90f17b1aa17521022016072428b8e13af42f0a668b57fb59f0da25abc179e070080ebfd8d358dd7286012102061839b0a418bb668a8fa6243f919c27788082a89cfb122cad55ca7f74bc4aa6", "asm": "3044022041aab78520cd88e1216c3f6aa3347451aa2ab95c24b3de3fae90f17b1aa17521022016072428b8e13af42f0a668b57fb59f0da25abc179e070080ebfd8d358dd7286[ALL] 02061839b0a418bb668a8fa6243f919c27788082a89cfb122cad55ca7f74bc4aa6"}, "vout": 0, "txid": "bb5232b72e04f39e7757939b4d7bd3e0f74a349918d02b8ef5a4d287d469a80d"}, {"sequence": 4294967295, "scriptSig": {"hex": "4730440220772ce02dc42e63125c9a0a21756adb438d8427866bb0f8eb958acbbe14fe2d92022060d6c116fca56696077cbce085d653db4eba32803fecab66b83b5fd12661cb980121029cb07acabf78a476a8b5b76a7c6aa1aeeb4ed65c5dc131eb9377b0de54ee80e3", "asm": "30440220772ce02dc42e63125c9a0a21756adb438d8427866bb0f8eb958acbbe14fe2d92022060d6c116fca56696077cbce085d653db4eba32803fecab66b83b5fd12661cb98[ALL] 029cb07acabf78a476a8b5b76a7c6aa1aeeb4ed65c5dc131eb9377b0de54ee80e3"}, "vout": 0, "txid": "cbdac1ce49caf84efc0ba1eee1b662405fc94b7aa525558a90106ed2093e0471"}, {"sequence": 4294967295, "scriptSig": {"hex": "47304402201ceec262698138f2bbed370b2cbbb4ff9a50fcfe9c025bc2344f638786f89f8402204fae5984bbf8d5416bf154dd755e02d7724ffa58c683552a0d307588afd9157401210201caf6710096df92cd92c3b5ea23bf3cad484c18c991bc0e932da3a874e2d70f", "asm": "304402201ceec262698138f2bbed370b2cbbb4ff9a50fcfe9c025bc2344f638786f89f8402204fae5984bbf8d5416bf154dd755e02d7724ffa58c683552a0d307588afd91574[ALL] 0201caf6710096df92cd92c3b5ea23bf3cad484c18c991bc0e932da3a874e2d70f"}, "vout": 0, "txid": "df6aa56ea5c7a1dc113183ca490eb28c82795b8d6d49109df36297fcecfd5084"}, {"sequence": 4294967295, "scriptSig": {"hex": "4830450221009f1dc33cb830239b1733bb5584e2767fc8c9ba0e583fa9c07442b38e0c08945002201ada4868df98e0ac9a61910e14e7b6b33bb5794f17e8a53d8e413122e7455cd0012102c4f63fa9f33a32b60f7bf4a40e7b218c4a1f1e0db30635c009166f4e9b5222fe", "asm": "30450221009f1dc33cb830239b1733bb5584e2767fc8c9ba0e583fa9c07442b38e0c08945002201ada4868df98e0ac9a61910e14e7b6b33bb5794f17e8a53d8e413122e7455cd0[ALL] 02c4f63fa9f33a32b60f7bf4a40e7b218c4a1f1e0db30635c009166f4e9b5222fe"}, "vout": 0, "txid": "e429cd955e697b09f79ba6edf05d82969578f9d8ea7e8d4e8a346fd74a6ba319"}, {"sequence": 4294967295, "scriptSig": {"hex": "4730440220272394ffb05883f615c9b4459f28ce60a815ed80e19df6c2f11fa876725cb6830220431cf472b6c5d30c30cebf0772a11e6dd955c3fbd302da2e12f879589ebab6e5012103d45223b452d58f20ae3aed0ea783b88516e1e3bf6efbba16360a674d08461e12", "asm": "30440220272394ffb05883f615c9b4459f28ce60a815ed80e19df6c2f11fa876725cb6830220431cf472b6c5d30c30cebf0772a11e6dd955c3fbd302da2e12f879589ebab6e5[ALL] 03d45223b452d58f20ae3aed0ea783b88516e1e3bf6efbba16360a674d08461e12"}, "vout": 0, "txid": "f7d60402b81adfd56b7a2847efce528376d2d9c33371d662fa9d7968cc523997"}], "txid": "aa4f34a007e463fae4251e4c910f3b9d24a2775599ccc70b3ea1b118b7a528c1", "blocktime": 1537872018, "version": 1, "confirmations": 11489, "time": 1537872018, "locktime": 0, "vsize": 1517, "size": 1517}