{"hash": "e3c1c56676054c79a7cd7375cf23bdeda3074687d68728cede47c583db2039fe", "blockhash": "0000000000000000000e13cef7c366c0283d82e591d1acd082e914b08063cdf1", "vout": [{"scriptPubKey": {"reqSigs": 1, "hex": "76a914b7be3e452735ba040850819d430ff8818ce1965488ac", "addresses": ["1HkYZSMkNV4ywdVnqj7msXkFFFCEFc9CtV"], "asm": "OP_DUP OP_HASH160 b7be3e452735ba040850819d430ff8818ce19654 OP_EQUALVERIFY OP_CHECKSIG", "type": "pubkeyhash"}, "value": 0.0034566, "n": 0}, {"scriptPubKey": {"reqSigs": 1, "hex": "a914dd33a93d3233a85d4f5bd9da7f1c2c5663f1574787", "addresses": ["3Mrd9Qx5Bxvzopf9akDbtUYvCxUB1faNm4"], "asm": "OP_HASH160 dd33a93d3233a85d4f5bd9da7f1c2c5663f15747 OP_EQUAL", "type": "scripthash"}, "value": 0.01001919, "n": 1}], "hex": "020000000001021a5a27cd7d9dadbab624c255c5daa595004be75b811183defdff2cb4abf08d8c01000000171600141ab20a52a1bcc5369e01ee4b5d10c8148b2a18cafeffffff337615e58211e765eda2b042007fef5064c050dc971dd7a2d61c14c54f73929c0000000017160014875f0bb09a336fd5161466ec41099b03a597dac6feffffff023c460500000000001976a914b7be3e452735ba040850819d430ff8818ce1965488acbf490f000000000017a914dd33a93d3233a85d4f5bd9da7f1c2c5663f15747870247304402204eec3118c84e2de96d7e67f621a70586c066a945a88c259783deef18509540270220591b459a1c7974a5062d47fe23b0b402ab14e44cdcda38035e2f6c0bbe855175012103678f0cb3386d05db2abf98f4e5c7566b19052138dfe1836e94e21c50b917c57a02483045022100db86d6ba50d81389e3d61c3b5069d84571986d6d5194c7ad7084a991160a112002203bdeafcc30f81435c72ebba9d32e6647dc67723c54e8fe22a75568255f7941500121034dd6a91f00a8b26c6d5499e169b06301665522a33f7d5b24aed18da79b45b5ec10490800", "vin": [{"txinwitness": ["304402204eec3118c84e2de96d7e67f621a70586c066a945a88c259783deef18509540270220591b459a1c7974a5062d47fe23b0b402ab14e44cdcda38035e2f6c0bbe85517501", "03678f0cb3386d05db2abf98f4e5c7566b19052138dfe1836e94e21c50b917c57a"], "sequence": 4294967294, "scriptSig": {"hex": "1600141ab20a52a1bcc5369e01ee4b5d10c8148b2a18ca", "asm": "00141ab20a52a1bcc5369e01ee4b5d10c8148b2a18ca"}, "vout": 1, "txid": "8c8df0abb42cfffdde8311815be74b0095a5dac555c224b6baad9d7dcd275a1a"}, {"txinwitness": ["3045022100db86d6ba50d81389e3d61c3b5069d84571986d6d5194c7ad7084a991160a112002203bdeafcc30f81435c72ebba9d32e6647dc67723c54e8fe22a75568255f79415001", "034dd6a91f00a8b26c6d5499e169b06301665522a33f7d5b24aed18da79b45b5ec"], "sequence": 4294967294, "scriptSig": {"hex": "160014875f0bb09a336fd5161466ec41099b03a597dac6", "asm": "0014875f0bb09a336fd5161466ec41099b03a597dac6"}, "vout": 0, "txid": "9c92734fc5141cd6a2d71d97dc50c06450ef7f0042b0a2ed65e71182e5157633"}], "txid": "aa551d99a301eabd2cc5cd20b15c439169b00648bea8e55269d65f1b4a60eae3", "blocktime": 1537871767, "version": 2, "confirmations": 11495, "time": 1537871767, "locktime": 542992, "vsize": 259, "size": 421}