{"hash": "aa566895d06f2406d61c846056a5a6327fa49605a749370b468d0e02a65575b4", "blockhash": "0000000000000000000dcc0f55137456b1a82d3642486a52398922ac4d620174", "vout": [{"scriptPubKey": {"reqSigs": 1, "hex": "76a9149c205b8966fc330d5ed5a9cbb4b175d05b318ced88ac", "addresses": ["1FEXBAnAr482vFzHY3Dj18h35iRNC82hhL"], "asm": "OP_DUP OP_HASH160 9c205b8966fc330d5ed5a9cbb4b175d05b318ced OP_EQUALVERIFY OP_CHECKSIG", "type": "pubkeyhash"}, "value": 0.01597756, "n": 0}, {"scriptPubKey": {"reqSigs": 1, "hex": "a9146cef589d06d784d7ab5d6bbf641986fccb86fa1487", "addresses": ["3Bd1dKhXtF9sjJZvuyoneJy75w9oPEdGnb"], "asm": "OP_HASH160 6cef589d06d784d7ab5d6bbf641986fccb86fa14 OP_EQUAL", "type": "scripthash"}, "value": 0.5, "n": 1}], "hex": "0100000002a40aa5b822592df0da7053c7fca313861e149c3d2c283ee69a9d2b74966a86e6010000006b4830450221008d3bcc106b4c82f73fcf2f2329d5b1ec914ffa1b322ab2e04ef4086116ca6916022025f0ec67bf4db76afcdb6157950a5a369d4b56871ed5440d99d2eee0c07c6a2d0121034969fe98d5c83707cb3d7a26e83565724b4c33a5dcdda34b36e16dffaf9cca9affffffff9a112b1cebc8b72976f1aa7504f4016bf0b685d55f4020055db193736e1144ee000000006b483045022100fac8c87d90182487a8be04c732d04d104ed0d7f6eb0770c86e20ab8d99059bd7022026183da81dffac4a2e19eb05f07bae3dac722fd83456351ddff7c0f51146aed50121034969fe98d5c83707cb3d7a26e83565724b4c33a5dcdda34b36e16dffaf9cca9affffffff023c611800000000001976a9149c205b8966fc330d5ed5a9cbb4b175d05b318ced88ac80f0fa020000000017a9146cef589d06d784d7ab5d6bbf641986fccb86fa148700000000", "vin": [{"sequence": 4294967295, "scriptSig": {"hex": "4830450221008d3bcc106b4c82f73fcf2f2329d5b1ec914ffa1b322ab2e04ef4086116ca6916022025f0ec67bf4db76afcdb6157950a5a369d4b56871ed5440d99d2eee0c07c6a2d0121034969fe98d5c83707cb3d7a26e83565724b4c33a5dcdda34b36e16dffaf9cca9a", "asm": "30450221008d3bcc106b4c82f73fcf2f2329d5b1ec914ffa1b322ab2e04ef4086116ca6916022025f0ec67bf4db76afcdb6157950a5a369d4b56871ed5440d99d2eee0c07c6a2d[ALL] 034969fe98d5c83707cb3d7a26e83565724b4c33a5dcdda34b36e16dffaf9cca9a"}, "vout": 1, "txid": "e6866a96742b9d9ae63e282c3d9c141e8613a3fcc75370daf02d5922b8a50aa4"}, {"sequence": 4294967295, "scriptSig": {"hex": "483045022100fac8c87d90182487a8be04c732d04d104ed0d7f6eb0770c86e20ab8d99059bd7022026183da81dffac4a2e19eb05f07bae3dac722fd83456351ddff7c0f51146aed50121034969fe98d5c83707cb3d7a26e83565724b4c33a5dcdda34b36e16dffaf9cca9a", "asm": "3045022100fac8c87d90182487a8be04c732d04d104ed0d7f6eb0770c86e20ab8d99059bd7022026183da81dffac4a2e19eb05f07bae3dac722fd83456351ddff7c0f51146aed5[ALL] 034969fe98d5c83707cb3d7a26e83565724b4c33a5dcdda34b36e16dffaf9cca9a"}, "vout": 0, "txid": "ee44116e7393b15d0520405fd585b6f06b01f40475aaf17629b7c8eb1c2b119a"}], "txid": "aa566895d06f2406d61c846056a5a6327fa49605a749370b468d0e02a65575b4", "blocktime": 1537870268, "version": 1, "confirmations": 11516, "time": 1537870268, "locktime": 0, "vsize": 372, "size": 372}