{"hash": "aa58fede881c40c97ea1404715bf8eca53c6610f819d3115c3f5b6dca4dc17e2", "blockhash": "0000000000000000001cda96e906b7601b7a6fb1a3b62bca570a9e5d8f4b3de1", "vout": [{"scriptPubKey": {"reqSigs": 1, "hex": "a9146c17f6aac35e1e21304d87606503794185bade0987", "addresses": ["3BYZcH47wdZ44mAj2tcA9cQC78wPHpZnER"], "asm": "OP_HASH160 6c17f6aac35e1e21304d87606503794185bade09 OP_EQUAL", "type": "scripthash"}, "value": 0.28720907, "n": 0}], "hex": "01000000035761c2b2164af56eea0f119fc98ba782031bc42e52af5fa395d8f1336a8ca504000000006b4830450221008db6a57d0d750ea303e0b21b95ec2bcabc8c1050ed82801209575867dab68b1d02202694d42d3e1533c27ec5001746778151e65d897f3f97e426edf9e3c046df227301210315a36b0b2da6a12bc93b853db2f53f877bf6f3b72217f7f811c26ed96530d6e1ffffffff727a1c61d4cdec4776185ba54eb69800e8820240238f21df522b32c438fd1501010000006a47304402203e9f6b3f788cb6295be912fe726d1a0a74bc854529c7fa7af00bea2379d82a490220544165140f2aa43e016afc64f31264e06fab06120e71297de8843ea02b93b1f00121028369bd5aae8220a51e50bc872a158bb5e7f6c229db063d68f32a76b93db11aa1ffffffff29986567dc6f37fda151cec5e751fd38299fcf9d03ae6d066f2a960485eaba81010000006a47304402202ed4b37a134a2d5f53bf8e2136c1ba9e4c6bbaf9fafb3cd9d983b3f6213ed5d802201a046b662cd08a0d3290b79317d26a8d3cb1920347c2fd90c687adc7c7c4371f0121030cb79d1a176ba6a5198eea96c2f43e1f0c2e5d261fae4bdbada26ba7fe496038ffffffff010b3fb6010000000017a9146c17f6aac35e1e21304d87606503794185bade098700000000", "vin": [{"sequence": 4294967295, "scriptSig": {"hex": "4830450221008db6a57d0d750ea303e0b21b95ec2bcabc8c1050ed82801209575867dab68b1d02202694d42d3e1533c27ec5001746778151e65d897f3f97e426edf9e3c046df227301210315a36b0b2da6a12bc93b853db2f53f877bf6f3b72217f7f811c26ed96530d6e1", "asm": "30450221008db6a57d0d750ea303e0b21b95ec2bcabc8c1050ed82801209575867dab68b1d02202694d42d3e1533c27ec5001746778151e65d897f3f97e426edf9e3c046df2273[ALL] 0315a36b0b2da6a12bc93b853db2f53f877bf6f3b72217f7f811c26ed96530d6e1"}, "vout": 0, "txid": "04a58c6a33f1d895a35faf522ec41b0382a78bc99f110fea6ef54a16b2c26157"}, {"sequence": 4294967295, "scriptSig": {"hex": "47304402203e9f6b3f788cb6295be912fe726d1a0a74bc854529c7fa7af00bea2379d82a490220544165140f2aa43e016afc64f31264e06fab06120e71297de8843ea02b93b1f00121028369bd5aae8220a51e50bc872a158bb5e7f6c229db063d68f32a76b93db11aa1", "asm": "304402203e9f6b3f788cb6295be912fe726d1a0a74bc854529c7fa7af00bea2379d82a490220544165140f2aa43e016afc64f31264e06fab06120e71297de8843ea02b93b1f0[ALL] 028369bd5aae8220a51e50bc872a158bb5e7f6c229db063d68f32a76b93db11aa1"}, "vout": 1, "txid": "0115fd38c4322b52df218f23400282e80098b64ea55b187647eccdd4611c7a72"}, {"sequence": 4294967295, "scriptSig": {"hex": "47304402202ed4b37a134a2d5f53bf8e2136c1ba9e4c6bbaf9fafb3cd9d983b3f6213ed5d802201a046b662cd08a0d3290b79317d26a8d3cb1920347c2fd90c687adc7c7c4371f0121030cb79d1a176ba6a5198eea96c2f43e1f0c2e5d261fae4bdbada26ba7fe496038", "asm": "304402202ed4b37a134a2d5f53bf8e2136c1ba9e4c6bbaf9fafb3cd9d983b3f6213ed5d802201a046b662cd08a0d3290b79317d26a8d3cb1920347c2fd90c687adc7c7c4371f[ALL] 030cb79d1a176ba6a5198eea96c2f43e1f0c2e5d261fae4bdbada26ba7fe496038"}, "vout": 1, "txid": "81baea8504962a6f066dae039dcf9f2938fd51e7c5ce51a1fd376fdc67659829"}], "txid": "aa58fede881c40c97ea1404715bf8eca53c6610f819d3115c3f5b6dca4dc17e2", "blocktime": 1537873282, "version": 1, "confirmations": 11481, "time": 1537873282, "locktime": 0, "vsize": 484, "size": 484}