{"hash": "aa6183d8d0d7d8b37ea41a16931e7921417483efdd7044b4add39c221866b9a2", "blockhash": "0000000000000000001cda96e906b7601b7a6fb1a3b62bca570a9e5d8f4b3de1", "vout": [{"scriptPubKey": {"reqSigs": 1, "hex": "76a914de2ac851efdb8e830e85036977ce0656c7a066a388ac", "addresses": ["1MFiGAfPXfBSvyY7KJSzp5MpUoyKQUSnws"], "asm": "OP_DUP OP_HASH160 de2ac851efdb8e830e85036977ce0656c7a066a3 OP_EQUALVERIFY OP_CHECKSIG", "type": "pubkeyhash"}, "value": 0.0222356, "n": 0}, {"scriptPubKey": {"type": "nulldata", "hex": "6a4c50000077c4000198821ccaf0374b3a05f819d1e5bf9ae76da98a211aaf6c953dd567cf27e7178290483b5de464d458b0b2bf01bb335baa12f606131900bbc36791bc9a9526289ac0f6612cd74e33776ee4", "asm": "OP_RETURN 000077c4000198821ccaf0374b3a05f819d1e5bf9ae76da98a211aaf6c953dd567cf27e7178290483b5de464d458b0b2bf01bb335baa12f606131900bbc36791bc9a9526289ac0f6612cd74e33776ee4"}, "value": 0.0, "n": 1}], "hex": "0100000001e17414689d07914531276779c38ba9ffeee871134bcbd8a394e64c05c3cab710010000006b48304502210099ed90fce377897fa09f205e0349cd15e13f3fa36d870ecb275d070e3d8baffd022031b8d4abc03f428b5d72791cf286cf37cfe0ed2d87e11add429059ea6239cbbe01210316b56a9ade1f755cb0a9aa1ba121ea305180db167a8ccbd2d6af51af47ef2736ffffffff02c8ed2100000000001976a914de2ac851efdb8e830e85036977ce0656c7a066a388ac0000000000000000536a4c50000077c4000198821ccaf0374b3a05f819d1e5bf9ae76da98a211aaf6c953dd567cf27e7178290483b5de464d458b0b2bf01bb335baa12f606131900bbc36791bc9a9526289ac0f6612cd74e33776ee400000000", "vin": [{"sequence": 4294967295, "scriptSig": {"hex": "48304502210099ed90fce377897fa09f205e0349cd15e13f3fa36d870ecb275d070e3d8baffd022031b8d4abc03f428b5d72791cf286cf37cfe0ed2d87e11add429059ea6239cbbe01210316b56a9ade1f755cb0a9aa1ba121ea305180db167a8ccbd2d6af51af47ef2736", "asm": "304502210099ed90fce377897fa09f205e0349cd15e13f3fa36d870ecb275d070e3d8baffd022031b8d4abc03f428b5d72791cf286cf37cfe0ed2d87e11add429059ea6239cbbe[ALL] 0316b56a9ade1f755cb0a9aa1ba121ea305180db167a8ccbd2d6af51af47ef2736"}, "vout": 1, "txid": "10b7cac3054ce694a3d8cb4b1371e8eeffa98bc3796727314591079d681474e1"}], "txid": "aa6183d8d0d7d8b37ea41a16931e7921417483efdd7044b4add39c221866b9a2", "blocktime": 1537873282, "version": 1, "confirmations": 11484, "time": 1537873282, "locktime": 0, "vsize": 284, "size": 284}