{"hash": "aa6db9911b1ab465db0efadf407c6b3601f1612e795a7a714548ddefac855ae5", "blockhash": "0000000000000000000baef3f32e3676a92c3b2e5da21b426e4f302fc371ce76", "vout": [{"scriptPubKey": {"reqSigs": 1, "hex": "76a914d243e6abb9a60fbff430b421d2df4b7d59ec186088ac", "addresses": ["1LAnF8h3qMGx3TSwNUHVneBZUEpwE4gu3D"], "asm": "OP_DUP OP_HASH160 d243e6abb9a60fbff430b421d2df4b7d59ec1860 OP_EQUALVERIFY OP_CHECKSIG", "type": "pubkeyhash"}, "value": 0.00076972, "n": 0}, {"scriptPubKey": {"reqSigs": 1, "hex": "76a9143851f34d13937b673a7d24a1950bb5b21ce94af388ac", "addresses": ["168o1kqNquEJeR9vosUB5fw4eAwcVAgh8P"], "asm": "OP_DUP OP_HASH160 3851f34d13937b673a7d24a1950bb5b21ce94af3 OP_EQUALVERIFY OP_CHECKSIG", "type": "pubkeyhash"}, "value": 5.46e-06, "n": 1}, {"scriptPubKey": {"type": "nulldata", "hex": "6a146f6d6e69000000000000001f00000184d3c1bc00", "asm": "OP_RETURN 6f6d6e69000000000000001f00000184d3c1bc00"}, "value": 0.0, "n": 2}], "hex": "01000000021d04abc5ec3e8f5d9a079b209063da9436868bdeafa793333d009ede6526445f020000006b483045022100e57770be320e7b17875a5fd3e58ec56eea007d98f7cade23a9f4bfb267e1049c022019c157f12d478d76dea5f41ba852f967d68ea3eca8cbcf51a1c69ff5adc87cc70121030cd15b983fc10d074e0f6ddeb5c5d1bbf7a87083b823e830f6cf995801c65ad1ffffffffb469f38316dad95c2f541795ee8c822676c8277c9c43b385e8891e0a8ab46072000000006a47304402204e30a01d71984a8c380fefab896e9b0ed7ff4366a52dbaecd661d37273c333ec022034676125fe31bfe564b6922593cc9595e16395c3bb56c4d71ebdbaed73709df801210271977291b74f1f5f5c42157e8aae804664eaaeccfd097918450d37f28fb94d77ffffffff03ac2c0100000000001976a914d243e6abb9a60fbff430b421d2df4b7d59ec186088ac22020000000000001976a9143851f34d13937b673a7d24a1950bb5b21ce94af388ac0000000000000000166a146f6d6e69000000000000001f00000184d3c1bc0000000000", "vin": [{"sequence": 4294967295, "scriptSig": {"hex": "483045022100e57770be320e7b17875a5fd3e58ec56eea007d98f7cade23a9f4bfb267e1049c022019c157f12d478d76dea5f41ba852f967d68ea3eca8cbcf51a1c69ff5adc87cc70121030cd15b983fc10d074e0f6ddeb5c5d1bbf7a87083b823e830f6cf995801c65ad1", "asm": "3045022100e57770be320e7b17875a5fd3e58ec56eea007d98f7cade23a9f4bfb267e1049c022019c157f12d478d76dea5f41ba852f967d68ea3eca8cbcf51a1c69ff5adc87cc7[ALL] 030cd15b983fc10d074e0f6ddeb5c5d1bbf7a87083b823e830f6cf995801c65ad1"}, "vout": 2, "txid": "5f442665de9e003d3393a7afde8b863694da6390209b079a5d8f3eecc5ab041d"}, {"sequence": 4294967295, "scriptSig": {"hex": "47304402204e30a01d71984a8c380fefab896e9b0ed7ff4366a52dbaecd661d37273c333ec022034676125fe31bfe564b6922593cc9595e16395c3bb56c4d71ebdbaed73709df801210271977291b74f1f5f5c42157e8aae804664eaaeccfd097918450d37f28fb94d77", "asm": "304402204e30a01d71984a8c380fefab896e9b0ed7ff4366a52dbaecd661d37273c333ec022034676125fe31bfe564b6922593cc9595e16395c3bb56c4d71ebdbaed73709df8[ALL] 0271977291b74f1f5f5c42157e8aae804664eaaeccfd097918450d37f28fb94d77"}, "vout": 0, "txid": "7260b48a0a1e89e885b3439c7c27c87626828cee9517542f5cd9da1683f369b4"}], "txid": "aa6db9911b1ab465db0efadf407c6b3601f1612e795a7a714548ddefac855ae5", "blocktime": 1537876114, "version": 1, "confirmations": 11460, "time": 1537876114, "locktime": 0, "vsize": 404, "size": 404}