{"hash": "aa6df5291643b0ca0dcdafa906118bd00f590d1835dda8348a12eb68772e5b8e", "blockhash": "0000000000000000001cda96e906b7601b7a6fb1a3b62bca570a9e5d8f4b3de1", "vout": [{"scriptPubKey": {"reqSigs": 1, "hex": "76a914fa90bc5b9d0fc2dd90ba6b0e6fb35c6140d1f87888ac", "addresses": ["1PqsKNmsY4NAyGs7YyiLMj5LuWCjTwDi5x"], "asm": "OP_DUP OP_HASH160 fa90bc5b9d0fc2dd90ba6b0e6fb35c6140d1f878 OP_EQUALVERIFY OP_CHECKSIG", "type": "pubkeyhash"}, "value": 0.00312489, "n": 0}, {"scriptPubKey": {"reqSigs": 1, "hex": "76a914fd53037fcbf5cf9c7fa302037fc48b7d648a656f88ac", "addresses": ["1Q6TQRb4y3mj1PgknwQqteLAxcYXSn6GPB"], "asm": "OP_DUP OP_HASH160 fd53037fcbf5cf9c7fa302037fc48b7d648a656f OP_EQUALVERIFY OP_CHECKSIG", "type": "pubkeyhash"}, "value": 0.05125103, "n": 1}], "hex": "01000000014c43c1ad5c0e23bef4334bbb4d320c7c3fa8bcf51ba8bb63f3f7d6e9875d3492010000006b483045022100986e7abaab5c30306ecde3fa932e54c7668bbcb1f3877883f9dda57ade1acbdb02205d6505b014877c8357084678d3aa10f624aed0af87d32002acbe260560ef0b90012103ed35a0df25ea42fbc31ff7023bd758f83ea391d7f4467356969ab7b8d82df744ffffffff02a9c40400000000001976a914fa90bc5b9d0fc2dd90ba6b0e6fb35c6140d1f87888acef334e00000000001976a914fd53037fcbf5cf9c7fa302037fc48b7d648a656f88ac00000000", "vin": [{"sequence": 4294967295, "scriptSig": {"hex": "483045022100986e7abaab5c30306ecde3fa932e54c7668bbcb1f3877883f9dda57ade1acbdb02205d6505b014877c8357084678d3aa10f624aed0af87d32002acbe260560ef0b90012103ed35a0df25ea42fbc31ff7023bd758f83ea391d7f4467356969ab7b8d82df744", "asm": "3045022100986e7abaab5c30306ecde3fa932e54c7668bbcb1f3877883f9dda57ade1acbdb02205d6505b014877c8357084678d3aa10f624aed0af87d32002acbe260560ef0b90[ALL] 03ed35a0df25ea42fbc31ff7023bd758f83ea391d7f4467356969ab7b8d82df744"}, "vout": 1, "txid": "92345d87e9d6f7f363bba81bf5bca83f7c0c324dbb4b33f4be230e5cadc1434c"}], "txid": "aa6df5291643b0ca0dcdafa906118bd00f590d1835dda8348a12eb68772e5b8e", "blocktime": 1537873282, "version": 1, "confirmations": 11484, "time": 1537873282, "locktime": 0, "vsize": 226, "size": 226}