{"hash": "aa721a4cab9636282e3ffd2e92526874c5b396c7dbcedf65e9ab5c4ac2c172b0", "blockhash": "0000000000000000000dcc0f55137456b1a82d3642486a52398922ac4d620174", "vout": [{"scriptPubKey": {"reqSigs": 1, "hex": "76a91481108e1a14d3710434728ad04239546966cd81d888ac", "addresses": ["1CmS11nr1ag2ATwutQEk95Tpc7kyFAMvan"], "asm": "OP_DUP OP_HASH160 81108e1a14d3710434728ad04239546966cd81d8 OP_EQUALVERIFY OP_CHECKSIG", "type": "pubkeyhash"}, "value": 0.03069969, "n": 0}], "hex": "010000000434b2b2879de1ed1fc0d2d82b0c5ffd2e3590f1f5fd063b1a9d4deda981993a55010000006b483045022100b700b7802661fdc1cae19ccc5bd60878df162a0655675d099f240bbfc3cf2ff00220153e9e3a75133415bcd0f98bfed8d49c8cf347490983d39fe0caf24f47f5d23101210263f6604a3f52f0b9f995eb0711b761fedeb067a8fe0c1ebd9101b5a3d7f8b0faffffffff6ebc060c93e44aff477092d605def806202acbf1360fa390942139b78540b557000000006b4830450221009588ecb97936204fec642b11910c8cd3955428f6b67c597917019b58f7b9984d02203b35cea196a4b38b4fc332217ad69d61f60be5d45d22bd057dacd7dfe38e3dcc01210249687c981b40d6ef0739acedfb0070af346a719eb2c3dff0c2b8536bda5c1d45ffffffffadc02e8072737cc222a55aaf6f542c9224e744526fe18ee925ca6488d89d7d76000000006a473044022050c550306a645c0d72b8436c4f68242c9c1630dbb5899853fa7f522ff8f0a7cd022010013ed3a3937e5c3a68127965e92d8bace2ea8f8e7078b7f065ac98eafcce46012103f19700063fcbb83ff17b36cebad6e0dde333c6fcfee3a3bc871cb5de1c39e6c6ffffffff015c232c50ac503ac5d63d777e58b80dadff99875d7a7b33505a5eda364757e4000000006b483045022100dbf85262997331457de91f75411895de477c5083c0c11cb54a1a53692820d20e0220663493294ef445ba1dc198c41b5020bffba7f9a3f8f1aa72dea70a3ab0f4ba01012102bb8f168159f7b3963bf3f45fd8149747918cd70d93ebcfd0f6f0c869b9251cdeffffffff0111d82e00000000001976a91481108e1a14d3710434728ad04239546966cd81d888ac00000000", "vin": [{"sequence": 4294967295, "scriptSig": {"hex": "483045022100b700b7802661fdc1cae19ccc5bd60878df162a0655675d099f240bbfc3cf2ff00220153e9e3a75133415bcd0f98bfed8d49c8cf347490983d39fe0caf24f47f5d23101210263f6604a3f52f0b9f995eb0711b761fedeb067a8fe0c1ebd9101b5a3d7f8b0fa", "asm": "3045022100b700b7802661fdc1cae19ccc5bd60878df162a0655675d099f240bbfc3cf2ff00220153e9e3a75133415bcd0f98bfed8d49c8cf347490983d39fe0caf24f47f5d231[ALL] 0263f6604a3f52f0b9f995eb0711b761fedeb067a8fe0c1ebd9101b5a3d7f8b0fa"}, "vout": 1, "txid": "553a9981a9ed4d9d1a3b06fdf5f190352efd5f0c2bd8d2c01fede19d87b2b234"}, {"sequence": 4294967295, "scriptSig": {"hex": "4830450221009588ecb97936204fec642b11910c8cd3955428f6b67c597917019b58f7b9984d02203b35cea196a4b38b4fc332217ad69d61f60be5d45d22bd057dacd7dfe38e3dcc01210249687c981b40d6ef0739acedfb0070af346a719eb2c3dff0c2b8536bda5c1d45", "asm": "30450221009588ecb97936204fec642b11910c8cd3955428f6b67c597917019b58f7b9984d02203b35cea196a4b38b4fc332217ad69d61f60be5d45d22bd057dacd7dfe38e3dcc[ALL] 0249687c981b40d6ef0739acedfb0070af346a719eb2c3dff0c2b8536bda5c1d45"}, "vout": 0, "txid": "57b54085b739219490a30f36f1cb2a2006f8de05d6927047ff4ae4930c06bc6e"}, {"sequence": 4294967295, "scriptSig": {"hex": "473044022050c550306a645c0d72b8436c4f68242c9c1630dbb5899853fa7f522ff8f0a7cd022010013ed3a3937e5c3a68127965e92d8bace2ea8f8e7078b7f065ac98eafcce46012103f19700063fcbb83ff17b36cebad6e0dde333c6fcfee3a3bc871cb5de1c39e6c6", "asm": "3044022050c550306a645c0d72b8436c4f68242c9c1630dbb5899853fa7f522ff8f0a7cd022010013ed3a3937e5c3a68127965e92d8bace2ea8f8e7078b7f065ac98eafcce46[ALL] 03f19700063fcbb83ff17b36cebad6e0dde333c6fcfee3a3bc871cb5de1c39e6c6"}, "vout": 0, "txid": "767d9dd88864ca25e98ee16f5244e724922c546faf5aa522c27c7372802ec0ad"}, {"sequence": 4294967295, "scriptSig": {"hex": "483045022100dbf85262997331457de91f75411895de477c5083c0c11cb54a1a53692820d20e0220663493294ef445ba1dc198c41b5020bffba7f9a3f8f1aa72dea70a3ab0f4ba01012102bb8f168159f7b3963bf3f45fd8149747918cd70d93ebcfd0f6f0c869b9251cde", "asm": "3045022100dbf85262997331457de91f75411895de477c5083c0c11cb54a1a53692820d20e0220663493294ef445ba1dc198c41b5020bffba7f9a3f8f1aa72dea70a3ab0f4ba01[ALL] 02bb8f168159f7b3963bf3f45fd8149747918cd70d93ebcfd0f6f0c869b9251cde"}, "vout": 0, "txid": "e4574736da5e5a50337b7a5d8799ffad0db8587e773dd6c53a50ac502c235c01"}], "txid": "aa721a4cab9636282e3ffd2e92526874c5b396c7dbcedf65e9ab5c4ac2c172b0", "blocktime": 1537870268, "version": 1, "confirmations": 11516, "time": 1537870268, "locktime": 0, "vsize": 635, "size": 635}