{"hash": "15dc0a9985191ed0311d05815c77694f937445e1f8ec31060370f7fdf7695ae8", "blockhash": "0000000000000000001e0dab787dd257d1dbfcb92a98c2207d5e1078be1f4165", "vout": [{"scriptPubKey": {"reqSigs": 1, "hex": "76a9142f223aa3139b19976051068a3fcdb98f7173fb1988ac", "addresses": ["15JDmHwtD82g3GZ8rapZeYWLDW5nQ9eyq6"], "asm": "OP_DUP OP_HASH160 2f223aa3139b19976051068a3fcdb98f7173fb19 OP_EQUALVERIFY OP_CHECKSIG", "type": "pubkeyhash"}, "value": 0.00919343, "n": 0}, {"scriptPubKey": {"reqSigs": 1, "hex": "a9148d3a45931073bebdd2a832e7b9340c367872711d87", "addresses": ["3EZm1PKypwtm9TJwT1nxXAZDXAdBzi1xad"], "asm": "OP_HASH160 8d3a45931073bebdd2a832e7b9340c367872711d OP_EQUAL", "type": "scripthash"}, "value": 0.1410261, "n": 1}], "hex": "010000000001012e9e2a8ca365cf88d7f46ae85234d801e79b2d8c738ba3f4e6f661e60860ad0d0100000023220020eed1574132882c59c23258424daecb96361702a4be717e97b2f70afd526bab85ffffffff022f070e00000000001976a9142f223aa3139b19976051068a3fcdb98f7173fb1988ac5230d7000000000017a9148d3a45931073bebdd2a832e7b9340c367872711d870400483045022100b2e2178dd1c7de5110da6b2ce58edfa899bceb89c11f8e63c2d594d2b9be7dcc0220509d349bba98ffbaf5c4a3805036560bedd71df3b8e342254d6f8e15e0e73ae701483045022100b62924ca5a2a7ff0823c3236e173f6c7b770f4064a4e7de10c3579e89254e9b40220399a62f8190f05362c9f780eb1e99a5f77dfdc4bc8c22582a285520f987999d80169522103f8f9a4d8b7ab8a91c4477d6d9994dad9f1ab7e56f5fd296796e5bec8ad8ccbd321021d9579a1218370ce32cf3c9457a206e6ec491f48297c0de797abf2db9591356f2102c928915759953b0a375bd3a50f6880fcca75d4aa1ebc76398e3261c083ed680c53ae00000000", "vin": [{"txinwitness": ["", "3045022100b2e2178dd1c7de5110da6b2ce58edfa899bceb89c11f8e63c2d594d2b9be7dcc0220509d349bba98ffbaf5c4a3805036560bedd71df3b8e342254d6f8e15e0e73ae701", "3045022100b62924ca5a2a7ff0823c3236e173f6c7b770f4064a4e7de10c3579e89254e9b40220399a62f8190f05362c9f780eb1e99a5f77dfdc4bc8c22582a285520f987999d801", "522103f8f9a4d8b7ab8a91c4477d6d9994dad9f1ab7e56f5fd296796e5bec8ad8ccbd321021d9579a1218370ce32cf3c9457a206e6ec491f48297c0de797abf2db9591356f2102c928915759953b0a375bd3a50f6880fcca75d4aa1ebc76398e3261c083ed680c53ae"], "sequence": 4294967295, "scriptSig": {"hex": "220020eed1574132882c59c23258424daecb96361702a4be717e97b2f70afd526bab85", "asm": "0020eed1574132882c59c23258424daecb96361702a4be717e97b2f70afd526bab85"}, "vout": 1, "txid": "0dad6008e661f6e6f4a38b738c2d9be701d83452e86af4d788cf65a38c2a9e2e"}], "txid": "aa7aada3b233e9e30c0187b91195ea8c3c59cc4c6f22c83db6636a8f94bf51a7", "blocktime": 1537872475, "version": 1, "confirmations": 11486, "time": 1537872475, "locktime": 0, "vsize": 216, "size": 408}