{"hash": "7d4704bd9c68cf5b5e3b81640604eb01c1853b567b05a04e68b77ac89211440e", "blockhash": "0000000000000000000baef3f32e3676a92c3b2e5da21b426e4f302fc371ce76", "vout": [{"scriptPubKey": {"reqSigs": 1, "hex": "76a91485db7cab769f93a69785c13cc1e0df51be1f9d8b88ac", "addresses": ["1DCmojk8DoVM3CmvYCzyJbGfcHzZstF2vU"], "asm": "OP_DUP OP_HASH160 85db7cab769f93a69785c13cc1e0df51be1f9d8b OP_EQUALVERIFY OP_CHECKSIG", "type": "pubkeyhash"}, "value": 2.295e-05, "n": 0}, {"scriptPubKey": {"reqSigs": 1, "hex": "a914e8db75c900cf08f06518e96d167331f2a4abfb3387", "addresses": ["3NvFbQMAkkqEFj4i1sYPPLkSWzxTFUchjA"], "asm": "OP_HASH160 e8db75c900cf08f06518e96d167331f2a4abfb33 OP_EQUAL", "type": "scripthash"}, "value": 0.00042394, "n": 1}], "hex": "01000000000101b576e72f8581137a11d7e09897b5238f422cd9f4f74aa7084cd3d19515e1ca8c0100000023220020941cfaff8837763dc1f69ff82b6d6553fdea17a41cfc29a04403293eedd8ccc7ffffffff02f7080000000000001976a91485db7cab769f93a69785c13cc1e0df51be1f9d8b88ac9aa500000000000017a914e8db75c900cf08f06518e96d167331f2a4abfb338704004730440220569b7bb608f2316680de1bd8e60c223f9cc5719c8e9b2970da030950a416838d022062d1cbb84aee6f78ef5d042468d69026b12be577c0b7fee3e6e745568909e1cf0147304402205a40bbbe925b8c3376d3263fd7a293ca6074f7800fe4de22728dd33216e8281302205ea066a5d3dbe248f2f0ec96bdce364771ec4dbed869bfff15384a062415f7eb0147522102531db3a5883f29bab4241dd0cd726936667bcda445d89bdd22244e828b6993342103148c80a5bdfddb05ff5bcffc397c8ca748d8b435ec6a175bc9d7bfc7fc6f853752ae00000000", "vin": [{"txinwitness": ["", "30440220569b7bb608f2316680de1bd8e60c223f9cc5719c8e9b2970da030950a416838d022062d1cbb84aee6f78ef5d042468d69026b12be577c0b7fee3e6e745568909e1cf01", "304402205a40bbbe925b8c3376d3263fd7a293ca6074f7800fe4de22728dd33216e8281302205ea066a5d3dbe248f2f0ec96bdce364771ec4dbed869bfff15384a062415f7eb01", "522102531db3a5883f29bab4241dd0cd726936667bcda445d89bdd22244e828b6993342103148c80a5bdfddb05ff5bcffc397c8ca748d8b435ec6a175bc9d7bfc7fc6f853752ae"], "sequence": 4294967295, "scriptSig": {"hex": "220020941cfaff8837763dc1f69ff82b6d6553fdea17a41cfc29a04403293eedd8ccc7", "asm": "0020941cfaff8837763dc1f69ff82b6d6553fdea17a41cfc29a04403293eedd8ccc7"}, "vout": 1, "txid": "8ccae11595d1d34c08a74af7f4d92c428f23b59798e0d7117a1381852fe776b5"}], "txid": "aa7a5a1f9e4f6b636fa6223337edb16f2d97be0ab694733370bb70cf2dab7ff6", "blocktime": 1537876114, "version": 1, "confirmations": 11460, "time": 1537876114, "locktime": 0, "vsize": 207, "size": 372}