{"hash": "aa7c84e9ccae82816a3472c3f213cd28afdd5a972f4677c702be024546a8dc44", "blockhash": "0000000000000000001cda96e906b7601b7a6fb1a3b62bca570a9e5d8f4b3de1", "vout": [{"scriptPubKey": {"reqSigs": 1, "hex": "a914353edcd14012e706ee8d3339c29f89b89b9506d587", "addresses": ["36YZ3Ui7jEwUEf9FSrwFWM3k4i3gb4csbk"], "asm": "OP_HASH160 353edcd14012e706ee8d3339c29f89b89b9506d5 OP_EQUAL", "type": "scripthash"}, "value": 0.02725132, "n": 0}, {"scriptPubKey": {"reqSigs": 1, "hex": "76a914ce5764fb4848195c3fe164c0ac8babeb907f983588ac", "addresses": ["1Kp2tnrQqckRthS44UTXuRuD9wJBSnkBBk"], "asm": "OP_DUP OP_HASH160 ce5764fb4848195c3fe164c0ac8babeb907f9835 OP_EQUALVERIFY OP_CHECKSIG", "type": "pubkeyhash"}, "value": 0.20191854, "n": 1}], "hex": "010000000121d6d076effdee1a36dec50f85b021dd090fb2148671da3c260ec9582d7240b6010000006b4830450221009abb13abb8c64831bb505ec0c9dc7c7553b73b363413f2e4224b1054fb3f6fde02203e6ad537361fcb71611c38b18795460ffc7f79bba4ec11914fcbee19ffb986590121035d6dd9d10ce110dd9bca2cd37d91b69726bc0dba212415be08029de7c3aa3d10ffffffff020c9529000000000017a914353edcd14012e706ee8d3339c29f89b89b9506d5876e1a3401000000001976a914ce5764fb4848195c3fe164c0ac8babeb907f983588ac00000000", "vin": [{"sequence": 4294967295, "scriptSig": {"hex": "4830450221009abb13abb8c64831bb505ec0c9dc7c7553b73b363413f2e4224b1054fb3f6fde02203e6ad537361fcb71611c38b18795460ffc7f79bba4ec11914fcbee19ffb986590121035d6dd9d10ce110dd9bca2cd37d91b69726bc0dba212415be08029de7c3aa3d10", "asm": "30450221009abb13abb8c64831bb505ec0c9dc7c7553b73b363413f2e4224b1054fb3f6fde02203e6ad537361fcb71611c38b18795460ffc7f79bba4ec11914fcbee19ffb98659[ALL] 035d6dd9d10ce110dd9bca2cd37d91b69726bc0dba212415be08029de7c3aa3d10"}, "vout": 1, "txid": "b640722d58c90e263cda718614b20f09dd21b0850fc5de361aeefdef76d0d621"}], "txid": "aa7c84e9ccae82816a3472c3f213cd28afdd5a972f4677c702be024546a8dc44", "blocktime": 1537873282, "version": 1, "confirmations": 11483, "time": 1537873282, "locktime": 0, "vsize": 224, "size": 224}