{"hash": "aa7c78bac745be04e411c3aed1f414299481e1718d7e89a40813cc937e5ca28a", "blockhash": "0000000000000000001f76057863aec43deb6fa401d9628bb513d65a8098bfab", "vout": [{"scriptPubKey": {"reqSigs": 1, "hex": "76a9143c0b912b3b2d59cea99b26be640104cc98136a9288ac", "addresses": ["16UVQCp6LKKAr3Bx5evSwMdC16JN9ys23o"], "asm": "OP_DUP OP_HASH160 3c0b912b3b2d59cea99b26be640104cc98136a92 OP_EQUALVERIFY OP_CHECKSIG", "type": "pubkeyhash"}, "value": 0.00204718, "n": 0}, {"scriptPubKey": {"reqSigs": 1, "hex": "76a9146f9b72d5a46393bbd3e9fa685ebab2f2a4be062c88ac", "addresses": ["1BB8E3ryVxXtESSnsqAFx5dJKP1FckVFAo"], "asm": "OP_DUP OP_HASH160 6f9b72d5a46393bbd3e9fa685ebab2f2a4be062c OP_EQUALVERIFY OP_CHECKSIG", "type": "pubkeyhash"}, "value": 0.078035, "n": 1}], "hex": "0100000002d8c0987d59036321dd0f3a1b55c17eb63586a088e5536a696ad831e708bd2e40060000006a473044022022aca6305361a163bde4fffc6f9bc4963ba6dc1ce736b29793838ea837b6932d02202d3421c1278b8ff70561e3c7caf08413c163912427d88a6e7896717498b780a9012103d594952153fd573767e96713a3cadcd992c3ffb86333cb96f9abe20cae0be209ffffffff5d2ac19d0ff32ad2a53f39700b99b8cb725c1950a37a081f4ce48eb3041dd64f010000006a47304402202b68d2c27c6de55e9b678fe32ce63470d7d0bda16ef801e89ce362fe830b461f02205bd9765c84dd192477b015f4a8349ec08695c6f2eb52dfe310920595716ae5ab012103519a757c298785ffaf56fd394a0ccb4167ca406cfeb91ec1c963478376345905ffffffff02ae1f0300000000001976a9143c0b912b3b2d59cea99b26be640104cc98136a9288ac6c127700000000001976a9146f9b72d5a46393bbd3e9fa685ebab2f2a4be062c88ac00000000", "vin": [{"sequence": 4294967295, "scriptSig": {"hex": "473044022022aca6305361a163bde4fffc6f9bc4963ba6dc1ce736b29793838ea837b6932d02202d3421c1278b8ff70561e3c7caf08413c163912427d88a6e7896717498b780a9012103d594952153fd573767e96713a3cadcd992c3ffb86333cb96f9abe20cae0be209", "asm": "3044022022aca6305361a163bde4fffc6f9bc4963ba6dc1ce736b29793838ea837b6932d02202d3421c1278b8ff70561e3c7caf08413c163912427d88a6e7896717498b780a9[ALL] 03d594952153fd573767e96713a3cadcd992c3ffb86333cb96f9abe20cae0be209"}, "vout": 6, "txid": "402ebd08e731d86a696a53e588a08635b67ec1551b3a0fdd216303597d98c0d8"}, {"sequence": 4294967295, "scriptSig": {"hex": "47304402202b68d2c27c6de55e9b678fe32ce63470d7d0bda16ef801e89ce362fe830b461f02205bd9765c84dd192477b015f4a8349ec08695c6f2eb52dfe310920595716ae5ab012103519a757c298785ffaf56fd394a0ccb4167ca406cfeb91ec1c963478376345905", "asm": "304402202b68d2c27c6de55e9b678fe32ce63470d7d0bda16ef801e89ce362fe830b461f02205bd9765c84dd192477b015f4a8349ec08695c6f2eb52dfe310920595716ae5ab[ALL] 03519a757c298785ffaf56fd394a0ccb4167ca406cfeb91ec1c963478376345905"}, "vout": 1, "txid": "4fd61d04b38ee44c1f087aa350195c72cbb8990b70393fa5d22af30f9dc12a5d"}], "txid": "aa7c78bac745be04e411c3aed1f414299481e1718d7e89a40813cc937e5ca28a", "blocktime": 1537873891, "version": 1, "confirmations": 11478, "time": 1537873891, "locktime": 0, "vsize": 372, "size": 372}