{"hash": "e55517ed47815892941e21908c816802a8e0c1c94d1928b74960dadc374f80fd", "blockhash": "0000000000000000001cda96e906b7601b7a6fb1a3b62bca570a9e5d8f4b3de1", "vout": [{"scriptPubKey": {"reqSigs": 1, "hex": "76a914739e1aec2292b96a8c2e98e0e1b08d3daf11524388ac", "addresses": ["1BYL7QCaLfDJDrFCQgehYPA6LinxcYx2jh"], "asm": "OP_DUP OP_HASH160 739e1aec2292b96a8c2e98e0e1b08d3daf115243 OP_EQUALVERIFY OP_CHECKSIG", "type": "pubkeyhash"}, "value": 0.062287, "n": 0}, {"scriptPubKey": {"reqSigs": 1, "hex": "a91408b85d3937d7681dcb72940691a3b57d652e6a2487", "addresses": ["32V8BvZyTve5q6Hgi15bu1dtmR8t73BNnJ"], "asm": "OP_HASH160 08b85d3937d7681dcb72940691a3b57d652e6a24 OP_EQUAL", "type": "scripthash"}, "value": 0.01775163, "n": 1}], "hex": "0100000000010143b9bc0c2638e51448650f2cf434c74b516341cb9035c47f0cc9b10fd4f076c50100000023220020421e679545d870c38a6fc685c848d2d2a6ec021c06f783619397be13ab782bf3fdffffff02dc0a5f00000000001976a914739e1aec2292b96a8c2e98e0e1b08d3daf11524388ac3b161b000000000017a91408b85d3937d7681dcb72940691a3b57d652e6a24870400483045022100a07e46fa0b061b2cf8daae5e8a1c05fa6d4434edce9c03301133e9b8f76e8e1202203826d154851d911b83eb139cb3925dadac3f7936c9973316697061d3a51421cd0147304402207848d5f2b72152d284fecc2d0acc8028e15e1c945d6582fd04a15293d79b003f022048e42c27924ced2ec07671286d7721851313b5f3f71fcf71bc563f9d43d8bd1c0147522103912a42adbf6b04a80bfb56bfc90d9ea29800fdc224690ef1cbcbc34ed7241230210366a320311add72d4f7241df30b470ff57733e622b4fb218f3e75f6d1aabfffbd52ae13490800", "vin": [{"txinwitness": ["", "3045022100a07e46fa0b061b2cf8daae5e8a1c05fa6d4434edce9c03301133e9b8f76e8e1202203826d154851d911b83eb139cb3925dadac3f7936c9973316697061d3a51421cd01", "304402207848d5f2b72152d284fecc2d0acc8028e15e1c945d6582fd04a15293d79b003f022048e42c27924ced2ec07671286d7721851313b5f3f71fcf71bc563f9d43d8bd1c01", "522103912a42adbf6b04a80bfb56bfc90d9ea29800fdc224690ef1cbcbc34ed7241230210366a320311add72d4f7241df30b470ff57733e622b4fb218f3e75f6d1aabfffbd52ae"], "sequence": 4294967293, "scriptSig": {"hex": "220020421e679545d870c38a6fc685c848d2d2a6ec021c06f783619397be13ab782bf3", "asm": "0020421e679545d870c38a6fc685c848d2d2a6ec021c06f783619397be13ab782bf3"}, "vout": 1, "txid": "c576f0d40fb1c90c7fc43590cb4163514bc734f42c0f654814e538260cbcb943"}], "txid": "aa7d03cb84386cf413bb2060dc22b095a1487f7ec443aab1c0aeb56ed50e33a2", "blocktime": 1537873282, "version": 1, "confirmations": 11485, "time": 1537873282, "locktime": 542995, "vsize": 208, "size": 373}