{"hash": "fd4c2ed6003c2cc02d1771862015c4df951a1516bddb0384359d07b8f6fe6a12", "blockhash": "0000000000000000001f0ddff1eddb255c1121bcd4da4f1bc9a0da00cae72433", "vout": [{"scriptPubKey": {"reqSigs": 1, "hex": "a9148b3ddb4dc3b8cbc9ca469f83f701b5e7857ba25287", "addresses": ["3EPFx5pdnMGpFgrU28abrUwtPgaugPrV8E"], "asm": "OP_HASH160 8b3ddb4dc3b8cbc9ca469f83f701b5e7857ba252 OP_EQUAL", "type": "scripthash"}, "value": 0.01003641, "n": 0}, {"scriptPubKey": {"reqSigs": 1, "hex": "a9144321b7606480c8aac6aee78a4642f0066442f9df87", "addresses": ["37oyb3gMfENWiq2BdZAKeVue7Rr1n5YJJv"], "asm": "OP_HASH160 4321b7606480c8aac6aee78a4642f0066442f9df OP_EQUAL", "type": "scripthash"}, "value": 0.01025661, "n": 1}], "hex": "020000000001028ef9d114a102444e4dfdd9cc16c5d532fa1296f5d171b3c36408cdacaf79ec9e0100000017160014681eac6187ba0b5f4eb92d6296f32a9168e652d5feffffffdee07bd5c61612aa95f9b2f799a8655bcd68cc1fc413d1f0d120143c877d46dc0000000017160014592d994734b6a1e4dcaeb1340f3c153e4dfadaccfeffffff0279500f000000000017a9148b3ddb4dc3b8cbc9ca469f83f701b5e7857ba252877da60f000000000017a9144321b7606480c8aac6aee78a4642f0066442f9df870247304402205c7c0d9ee7074e0061c6e1164d7f13ae2ca8170080882f16130a655c166db64202202d4dd078c6f655484d3e47c51e0ca45f39122fc8b8dffae763e310617f8d19b9012102262c4e102f8c4b6619d4f061dd8a6b1ae35ddbf028109843dd6e43e4db9276c50247304402200b5eaf8ce6a8f2d705333ddfdabb3781c361a39fd2bde39db5d481f2108f2bdb022033faf1f3c1a5ece9b46ee1c596ec893af6e2c0246ed63b3d2f807cc70f27eccf0121035eae6a2c20b3cca16fd532b6183e4d5d15cb875e4bfac8ce90bf8a07aa4e2b1b00000000", "vin": [{"txinwitness": ["304402205c7c0d9ee7074e0061c6e1164d7f13ae2ca8170080882f16130a655c166db64202202d4dd078c6f655484d3e47c51e0ca45f39122fc8b8dffae763e310617f8d19b901", "02262c4e102f8c4b6619d4f061dd8a6b1ae35ddbf028109843dd6e43e4db9276c5"], "sequence": 4294967294, "scriptSig": {"hex": "160014681eac6187ba0b5f4eb92d6296f32a9168e652d5", "asm": "0014681eac6187ba0b5f4eb92d6296f32a9168e652d5"}, "vout": 1, "txid": "9eec79afaccd0864c3b371d1f59612fa32d5c516ccd9fd4d4e4402a114d1f98e"}, {"txinwitness": ["304402200b5eaf8ce6a8f2d705333ddfdabb3781c361a39fd2bde39db5d481f2108f2bdb022033faf1f3c1a5ece9b46ee1c596ec893af6e2c0246ed63b3d2f807cc70f27eccf01", "035eae6a2c20b3cca16fd532b6183e4d5d15cb875e4bfac8ce90bf8a07aa4e2b1b"], "sequence": 4294967294, "scriptSig": {"hex": "160014592d994734b6a1e4dcaeb1340f3c153e4dfadacc", "asm": "0014592d994734b6a1e4dcaeb1340f3c153e4dfadacc"}, "vout": 0, "txid": "dc467d873c1420d1f0d113c41fcc68cd5b65a899f7b2f995aa1216c6d57be0de"}], "txid": "aa7e6405a390ef77b5e5ba6539caab6af9c133063bf91981b5d45742c7c8ba16", "blocktime": 1537872018, "version": 2, "confirmations": 11489, "time": 1537872018, "locktime": 0, "vsize": 256, "size": 418}