{"hash": "aa82ed5b97a80e945e68a6a04136b265ffc4084867e767a453a13945ff62b387", "blockhash": "000000000000000000022b45ed06c6f4ccd3cf7fb5ba4856ebd2e58215665228", "vout": [{"scriptPubKey": {"reqSigs": 1, "hex": "76a914a2cd19c496ced18d8c049558f4f1f99e81e3c8e988ac", "addresses": ["1FqpAikruh2BJMr8dZjaBegQ2Mehb4Jc6t"], "asm": "OP_DUP OP_HASH160 a2cd19c496ced18d8c049558f4f1f99e81e3c8e9 OP_EQUALVERIFY OP_CHECKSIG", "type": "pubkeyhash"}, "value": 0.00265809, "n": 0}], "hex": "01000000013909cc47e7d11c5a99b87eb6a3731b53ecf2291a8c35628f27efcbfbd4d3bd4a020000006b483045022100fb643fb78c851dbfad71162ed926e03133661d0f9d9f4f8f79368c7b7c3cfd51022019760d5f0cdae926a3db7fc6fd0ffb81e6601104097e639716ae6d9db1d1af4201210220016a8bfb6fa0b81237a3a0d88217cdad7019370434be270c8fdf9d536fa7efffffffff01510e0400000000001976a914a2cd19c496ced18d8c049558f4f1f99e81e3c8e988ac00000000", "vin": [{"sequence": 4294967295, "scriptSig": {"hex": "483045022100fb643fb78c851dbfad71162ed926e03133661d0f9d9f4f8f79368c7b7c3cfd51022019760d5f0cdae926a3db7fc6fd0ffb81e6601104097e639716ae6d9db1d1af4201210220016a8bfb6fa0b81237a3a0d88217cdad7019370434be270c8fdf9d536fa7ef", "asm": "3045022100fb643fb78c851dbfad71162ed926e03133661d0f9d9f4f8f79368c7b7c3cfd51022019760d5f0cdae926a3db7fc6fd0ffb81e6601104097e639716ae6d9db1d1af42[ALL] 0220016a8bfb6fa0b81237a3a0d88217cdad7019370434be270c8fdf9d536fa7ef"}, "vout": 2, "txid": "4abdd3d4fbcbef278f62358c1a29f2ec531b73a3b67eb8995a1cd1e747cc0939"}], "txid": "aa82ed5b97a80e945e68a6a04136b265ffc4084867e767a453a13945ff62b387", "blocktime": 1537869901, "version": 1, "confirmations": 11522, "time": 1537869901, "locktime": 0, "vsize": 192, "size": 192}