{"hash": "aa8a02f6ae213858be74f76043fa2e4f178c07a3ac1931106748375fa77edab9", "blockhash": "00000000000000000017f5eb5941039fbcee6240d03bc1f2f8e35350df66a1d8", "vout": [{"scriptPubKey": {"reqSigs": 1, "hex": "76a914d243e6abb9a60fbff430b421d2df4b7d59ec186088ac", "addresses": ["1LAnF8h3qMGx3TSwNUHVneBZUEpwE4gu3D"], "asm": "OP_DUP OP_HASH160 d243e6abb9a60fbff430b421d2df4b7d59ec1860 OP_EQUALVERIFY OP_CHECKSIG", "type": "pubkeyhash"}, "value": 0.00077314, "n": 0}, {"scriptPubKey": {"reqSigs": 1, "hex": "76a914e31c3dc57f6f235f0f482ae82c998b2efc08300788ac", "addresses": ["1MhrDnXycxEVHjJVkasiFnzoDTcon4mUWN"], "asm": "OP_DUP OP_HASH160 e31c3dc57f6f235f0f482ae82c998b2efc083007 OP_EQUALVERIFY OP_CHECKSIG", "type": "pubkeyhash"}, "value": 5.46e-06, "n": 1}, {"scriptPubKey": {"type": "nulldata", "hex": "6a146f6d6e69000000000000001f000007ffee5a7300", "asm": "OP_RETURN 6f6d6e69000000000000001f000007ffee5a7300"}, "value": 0.0, "n": 2}], "hex": "0100000001d23736c003ee52a7eae91e46dcb32c8de9d194d998c1b2560ca1b69d01ab0d4f000000006b483045022100fdbb03055283e8be5a510e67738f606171b3fe9fb92a6369a2a24d5ffc6f2653022034e2e4b223ac5885b5955582f78b215ad3449ca40d23786f7a40eaeab385e31701210271977291b74f1f5f5c42157e8aae804664eaaeccfd097918450d37f28fb94d77ffffffff03022e0100000000001976a914d243e6abb9a60fbff430b421d2df4b7d59ec186088ac22020000000000001976a914e31c3dc57f6f235f0f482ae82c998b2efc08300788ac0000000000000000166a146f6d6e69000000000000001f000007ffee5a730000000000", "vin": [{"sequence": 4294967295, "scriptSig": {"hex": "483045022100fdbb03055283e8be5a510e67738f606171b3fe9fb92a6369a2a24d5ffc6f2653022034e2e4b223ac5885b5955582f78b215ad3449ca40d23786f7a40eaeab385e31701210271977291b74f1f5f5c42157e8aae804664eaaeccfd097918450d37f28fb94d77", "asm": "3045022100fdbb03055283e8be5a510e67738f606171b3fe9fb92a6369a2a24d5ffc6f2653022034e2e4b223ac5885b5955582f78b215ad3449ca40d23786f7a40eaeab385e317[ALL] 0271977291b74f1f5f5c42157e8aae804664eaaeccfd097918450d37f28fb94d77"}, "vout": 0, "txid": "4f0dab019db6a10c56b2c198d994d1e98d2cb3dc461ee9eaa752ee03c03637d2"}], "txid": "aa8a02f6ae213858be74f76043fa2e4f178c07a3ac1931106748375fa77edab9", "blocktime": 1537874412, "version": 1, "confirmations": 11467, "time": 1537874412, "locktime": 0, "vsize": 257, "size": 257}