{"hash": "623389bca3115f13b5bdfe6d79418f9d72bf6f53b7a254050587d0994047a5f4", "blockhash": "0000000000000000000e13cef7c366c0283d82e591d1acd082e914b08063cdf1", "vout": [{"scriptPubKey": {"reqSigs": 1, "hex": "a914185d81a63129381a18310acd6dba60cef1bfb7a487", "addresses": ["33urA68GHJuHTbAYb7RDMC7AEVU54MdQz4"], "asm": "OP_HASH160 185d81a63129381a18310acd6dba60cef1bfb7a4 OP_EQUAL", "type": "scripthash"}, "value": 0.63405676, "n": 0}], "hex": "010000000001017bf05df85feff9baf0121b330b150cf59b08742927e4c86f708ea4cb06dad16a0100000017160014b1d66ff36f7c63bbdc13628fc2aeae4b58333ef4ffffffff016c7ec7030000000017a914185d81a63129381a18310acd6dba60cef1bfb7a487024730440220429266cd8999dfbcc80f0e679c695db5a5a4c42cbfe81e95c773577632db9c7602202c7aca049f217c5a39b476f6039b330e64de181c91356350c1ed52118db0083a01210374ec7962b42546b6b19c085070aa26fcbeb30ffd843e28ed38a025b47efd208600000000", "vin": [{"txinwitness": ["30440220429266cd8999dfbcc80f0e679c695db5a5a4c42cbfe81e95c773577632db9c7602202c7aca049f217c5a39b476f6039b330e64de181c91356350c1ed52118db0083a01", "0374ec7962b42546b6b19c085070aa26fcbeb30ffd843e28ed38a025b47efd2086"], "sequence": 4294967295, "scriptSig": {"hex": "160014b1d66ff36f7c63bbdc13628fc2aeae4b58333ef4", "asm": "0014b1d66ff36f7c63bbdc13628fc2aeae4b58333ef4"}, "vout": 1, "txid": "6ad1da06cba48e706fc8e4272974089bf50c150b331b12f0baf9ef5ff85df07b"}], "txid": "aa8c77be49f6142f34cb824e2bdc7bd5c96f26a93f8e0c10f1ce189fa7dd6846", "blocktime": 1537871767, "version": 1, "confirmations": 11495, "time": 1537871767, "locktime": 0, "vsize": 134, "size": 215}