{"hash": "0e6c5dda401e4e4f45a11bcdf78db5a6427c348d33d1474e9011ab3389161341", "blockhash": "0000000000000000000e13cef7c366c0283d82e591d1acd082e914b08063cdf1", "vout": [{"scriptPubKey": {"reqSigs": 1, "hex": "76a914574354c720cf3b720c8ee30cecbe6314e249170388ac", "addresses": ["18xQSwYqZXJWWQqE3kvgivPfAJyxZBJ5d3"], "asm": "OP_DUP OP_HASH160 574354c720cf3b720c8ee30cecbe6314e2491703 OP_EQUALVERIFY OP_CHECKSIG", "type": "pubkeyhash"}, "value": 0.01035, "n": 0}, {"scriptPubKey": {"reqSigs": 1, "hex": "a91435a9f5ac61d38eb56b4beef8e0f8b3f5abbdfe7587", "addresses": ["36amLiRnCf6rFBcvRng2bvFRxngGSFVSPq"], "asm": "OP_HASH160 35a9f5ac61d38eb56b4beef8e0f8b3f5abbdfe75 OP_EQUAL", "type": "scripthash"}, "value": 0.011582, "n": 1}], "hex": "020000000001031e68e9364bc3ee7025ddcec8d3314297186a8f8de0ae05fb1295e059c6d8e0b20300000017160014799ae17f98d02e826972ec07b3c9b41fd116913bfeffffffbd977040b03c8d7fb6db3cc1a2977f933290de03aa2fe848c798e9a598e3c57c0100000017160014dac47d308b8d30d762c2dd5b67efc1f71a2dee2ffeffffffda14313d13e12cb51678f15be2b7b5cc35b43401952d9ab33bde0ac29c90c04a01000000171600146dcddc9c6d89b2fc66d990468f3a4d95a47daee2feffffff02f8ca0f00000000001976a914574354c720cf3b720c8ee30cecbe6314e249170388ac38ac11000000000017a91435a9f5ac61d38eb56b4beef8e0f8b3f5abbdfe758702473044022016c70166edd3022b4652acd5a7d910225a2c2bbfaac2871e876aa7947fd7583e02202566e39776a13a0c963a29fcd19f6d33eda462e9ea4ce7599a913e4249c264820121022d512f7531d14af596a0bf88f8011131a81e30f8fb272e2f0ed94932a0c5a535024730440220554808c2211ca16367917432642f372f710f7ab2d02333f758bb9a6d0267c2af0220529423733f880766e7675ca88a27d6f18d9dcf457e20571707a72665e139fbdd0121026268331ea181cd93f5e9795f31ccd1b3adfcddead27e37535cc975ea0400b8130248304502210083b8be46e510c195a83c0f0ab58728d3e1e550491d89871defda73a6af44430e02204a948cd820a39931f3f5c7fc59ff7b68c27f6512bf49f2180507dd398e3198ca0121022d62d85f4fae42c4bc84b95b9ed19ac74252a4f4b687abf6ec1eb5abe23c5c3510490800", "vin": [{"txinwitness": ["3044022016c70166edd3022b4652acd5a7d910225a2c2bbfaac2871e876aa7947fd7583e02202566e39776a13a0c963a29fcd19f6d33eda462e9ea4ce7599a913e4249c2648201", "022d512f7531d14af596a0bf88f8011131a81e30f8fb272e2f0ed94932a0c5a535"], "sequence": 4294967294, "scriptSig": {"hex": "160014799ae17f98d02e826972ec07b3c9b41fd116913b", "asm": "0014799ae17f98d02e826972ec07b3c9b41fd116913b"}, "vout": 3, "txid": "b2e0d8c659e09512fb05aee08d8f6a18974231d3c8cedd2570eec34b36e9681e"}, {"txinwitness": ["30440220554808c2211ca16367917432642f372f710f7ab2d02333f758bb9a6d0267c2af0220529423733f880766e7675ca88a27d6f18d9dcf457e20571707a72665e139fbdd01", "026268331ea181cd93f5e9795f31ccd1b3adfcddead27e37535cc975ea0400b813"], "sequence": 4294967294, "scriptSig": {"hex": "160014dac47d308b8d30d762c2dd5b67efc1f71a2dee2f", "asm": "0014dac47d308b8d30d762c2dd5b67efc1f71a2dee2f"}, "vout": 1, "txid": "7cc5e398a5e998c748e82faa03de9032937f97a2c13cdbb67f8d3cb0407097bd"}, {"txinwitness": ["304502210083b8be46e510c195a83c0f0ab58728d3e1e550491d89871defda73a6af44430e02204a948cd820a39931f3f5c7fc59ff7b68c27f6512bf49f2180507dd398e3198ca01", "022d62d85f4fae42c4bc84b95b9ed19ac74252a4f4b687abf6ec1eb5abe23c5c35"], "sequence": 4294967294, "scriptSig": {"hex": "1600146dcddc9c6d89b2fc66d990468f3a4d95a47daee2", "asm": "00146dcddc9c6d89b2fc66d990468f3a4d95a47daee2"}, "vout": 1, "txid": "4ac0909cc20ade3bb39a2d950134b435ccb5b7e25bf17816b52ce1133d3114da"}], "txid": "aa9057d20603919cafba334bd5ca2ce6e245c351bb8720f7db0a314a6f2299f6", "blocktime": 1537871767, "version": 2, "confirmations": 11495, "time": 1537871767, "locktime": 542992, "vsize": 349, "size": 592}