{"hash": "aa9356ae6505eb6480f4f5ab3e67e627a071a4884b3ff0e8c3ccf52fec0e52d1", "blockhash": "0000000000000000001e0dab787dd257d1dbfcb92a98c2207d5e1078be1f4165", "vout": [{"scriptPubKey": {"reqSigs": 1, "hex": "a914277db3457acc37e67f2c935dbb29e4846f24dbca87", "addresses": ["35HprqJbdcxGcMYY8sL8MHCCZhvAwLSr6j"], "asm": "OP_HASH160 277db3457acc37e67f2c935dbb29e4846f24dbca OP_EQUAL", "type": "scripthash"}, "value": 0.00778, "n": 0}, {"scriptPubKey": {"reqSigs": 1, "hex": "76a914fc18d7ee39daa30073de2ad1faf03dfb359ef2dd88ac", "addresses": ["1Pyy3Vo1A6anB1ZqMAwEFMt2kgknLnH9dp"], "asm": "OP_DUP OP_HASH160 fc18d7ee39daa30073de2ad1faf03dfb359ef2dd OP_EQUALVERIFY OP_CHECKSIG", "type": "pubkeyhash"}, "value": 0.01958154, "n": 1}], "hex": "010000000224e5bdb9a224ad18e8aa6ffc2b63c8a94a8b6cd45df8971fe6fe990b18b64369010000006b483045022100ab4144253ca89c6ebaa432896d85518d1f1bf1111ba57f960dc14f455fe6a729022010582ac43b1a24d11313df13ff5f35a8524a7e37e906822358e5dfc339fb232d01210394b444f12fe8cd63393f54d2f1803185911021368a62a73b6a21e0c4fe2a6a51ffffffff7b5325f2f8e9ea1566ee06d8c8b1744b5cfabc3465e39e591cfd5e080529b6ab0d0000006b483045022100b318bfe11c509503e1fca38560c1a98a53894d966f637f694f7e60fcb604b9140220435f7f0c9db0229c56d9efed4639afbc290c3420cf35bffe594fedf1cdaf9edb0121036d12319562c6775f1f6c2a86e9edd7c4ad8604833db1e5f3bf5c60843c2eea73ffffffff0210df0b000000000017a914277db3457acc37e67f2c935dbb29e4846f24dbca870ae11d00000000001976a914fc18d7ee39daa30073de2ad1faf03dfb359ef2dd88ac00000000", "vin": [{"sequence": 4294967295, "scriptSig": {"hex": "483045022100ab4144253ca89c6ebaa432896d85518d1f1bf1111ba57f960dc14f455fe6a729022010582ac43b1a24d11313df13ff5f35a8524a7e37e906822358e5dfc339fb232d01210394b444f12fe8cd63393f54d2f1803185911021368a62a73b6a21e0c4fe2a6a51", "asm": "3045022100ab4144253ca89c6ebaa432896d85518d1f1bf1111ba57f960dc14f455fe6a729022010582ac43b1a24d11313df13ff5f35a8524a7e37e906822358e5dfc339fb232d[ALL] 0394b444f12fe8cd63393f54d2f1803185911021368a62a73b6a21e0c4fe2a6a51"}, "vout": 1, "txid": "6943b6180b99fee61f97f85dd46c8b4aa9c8632bfc6faae818ad24a2b9bde524"}, {"sequence": 4294967295, "scriptSig": {"hex": "483045022100b318bfe11c509503e1fca38560c1a98a53894d966f637f694f7e60fcb604b9140220435f7f0c9db0229c56d9efed4639afbc290c3420cf35bffe594fedf1cdaf9edb0121036d12319562c6775f1f6c2a86e9edd7c4ad8604833db1e5f3bf5c60843c2eea73", "asm": "3045022100b318bfe11c509503e1fca38560c1a98a53894d966f637f694f7e60fcb604b9140220435f7f0c9db0229c56d9efed4639afbc290c3420cf35bffe594fedf1cdaf9edb[ALL] 036d12319562c6775f1f6c2a86e9edd7c4ad8604833db1e5f3bf5c60843c2eea73"}, "vout": 13, "txid": "abb62905085efd1c599ee36534bcfa5c4b74b1c8d806ee6615eae9f8f225537b"}], "txid": "aa9356ae6505eb6480f4f5ab3e67e627a071a4884b3ff0e8c3ccf52fec0e52d1", "blocktime": 1537872475, "version": 1, "confirmations": 11486, "time": 1537872475, "locktime": 0, "vsize": 372, "size": 372}