{"hash": "9c710581317a1a7a4e353c725ff8a1d1bcbb0ea923d93e6005554d12dd576b03", "blockhash": "0000000000000000001e0dab787dd257d1dbfcb92a98c2207d5e1078be1f4165", "vout": [{"scriptPubKey": {"reqSigs": 1, "hex": "76a914b18853f0f2490c84ce5eb70f85e95b411de88b4388ac", "addresses": ["1HBhvBZxBNeu7cYdJTdAHiRkAjQTthrXTR"], "asm": "OP_DUP OP_HASH160 b18853f0f2490c84ce5eb70f85e95b411de88b43 OP_EQUALVERIFY OP_CHECKSIG", "type": "pubkeyhash"}, "value": 0.77586382, "n": 0}, {"scriptPubKey": {"reqSigs": 1, "hex": "0014652ed535b40ebead3a67362734ab5e32905d03e3", "addresses": ["bc1qv5hd2dd5p6l26wn8xcnnf267x2g96qlra9z59g"], "asm": "0 652ed535b40ebead3a67362734ab5e32905d03e3", "type": "witness_v0_keyhash"}, "value": 12.60175561, "n": 1}], "hex": "0200000000010127c2ed2061eea60074171e5a7b01095216d0c0c1b654b1a73077f09f33729d220100000000ffffffff02cedf9f04000000001976a914b18853f0f2490c84ce5eb70f85e95b411de88b4388acc9c01c4b00000000160014652ed535b40ebead3a67362734ab5e32905d03e30247304402204e4653c5a32a991ebe6196c13a5a0bee994aca3413462086dc8d075a74664654022050b33182b5ffa4045624a288b9809eba4ed2a7089af5c7fc9af9a5686e97b445012102907fdbb95c89d828760f069039d871b5651aab2c44fa8bd16483b76bfaac866800000000", "vin": [{"txinwitness": ["304402204e4653c5a32a991ebe6196c13a5a0bee994aca3413462086dc8d075a74664654022050b33182b5ffa4045624a288b9809eba4ed2a7089af5c7fc9af9a5686e97b44501", "02907fdbb95c89d828760f069039d871b5651aab2c44fa8bd16483b76bfaac8668"], "sequence": 4294967295, "scriptSig": {"hex": "", "asm": ""}, "vout": 1, "txid": "229d72339ff07730a7b154b6c1c0d0165209017b5a1e177400a6ee6120edc227"}], "txid": "aa99fde58a6ec8567a6e4b6070386b22041bab25c001f03f30b2fb612dfee23c", "blocktime": 1537872475, "version": 2, "confirmations": 11487, "time": 1537872475, "locktime": 0, "vsize": 144, "size": 225}