{"hash": "aa991615276b1fb8d9468c4e9571702d719a0d355a3ec00f25c8b073bd702be0", "blockhash": "0000000000000000000baef3f32e3676a92c3b2e5da21b426e4f302fc371ce76", "vout": [{"scriptPubKey": {"reqSigs": 1, "hex": "76a914648dbfd813f146e0dea57c1d63b02d7148d6799888ac", "addresses": ["1AAgP6zmmzAjB1MCPxauV9swVDhVcqnQX7"], "asm": "OP_DUP OP_HASH160 648dbfd813f146e0dea57c1d63b02d7148d67998 OP_EQUALVERIFY OP_CHECKSIG", "type": "pubkeyhash"}, "value": 0.02493, "n": 0}, {"scriptPubKey": {"reqSigs": 1, "hex": "76a914520b5f9d42abf045cabfaec817e72739166504ab88ac", "addresses": ["18Up2yWS6TQcoZt7dn26r2WkFWR2wM3JuM"], "asm": "OP_DUP OP_HASH160 520b5f9d42abf045cabfaec817e72739166504ab OP_EQUALVERIFY OP_CHECKSIG", "type": "pubkeyhash"}, "value": 0.02937346, "n": 1}], "hex": "01000000035f35eb15b6f573ebeb71668f858a090535db7af875a6b3bbc2a8dbf4c06154a1000000006a473044022048485395f3d0111515b2f0f36a442fee0a16c69b92ec730eb3471795a74131e5022063c77e13c4aceff8b9b94c4d51730bdeab86d38028e91ed3285d3f8d56261e4701210399a2da68565798506f36dcdd73e22ea802de70fe8c1ff1491064bac8af1dd770ffffffffecc31866db3f84fce44195dae13b8b3c9b10327a8b39f8d3e80f332c579798b3010000006a473044022004b4a1f7a4ddf6e95ca6ce6a2c5810f46570d7797ff8fc7fe2f43c4b3eac26de02202af4ee7a5835e1f4d93a2fc44015a7d559d1d37a5f2b6054d12b8126a43999a701210399a2da68565798506f36dcdd73e22ea802de70fe8c1ff1491064bac8af1dd770ffffffff2809f3e5a50025efbe59bd6b49a9be56d8514aef0136cc24d61b1efd9938b063010000006a47304402204dd4373450912d4f9d29783a0e45a7304058897215193a2927f63d0c48e7508802202437bff5e0304367e4967378f3420c33d94dac2eba8b8b9ab538149cc3e7db4c0121030476f74036048c9e3e02860968da0b12b2bf7d84b6149fa222f16c0cb5350987ffffffff02480a2600000000001976a914648dbfd813f146e0dea57c1d63b02d7148d6799888ac02d22c00000000001976a914520b5f9d42abf045cabfaec817e72739166504ab88ac00000000", "vin": [{"sequence": 4294967295, "scriptSig": {"hex": "473044022048485395f3d0111515b2f0f36a442fee0a16c69b92ec730eb3471795a74131e5022063c77e13c4aceff8b9b94c4d51730bdeab86d38028e91ed3285d3f8d56261e4701210399a2da68565798506f36dcdd73e22ea802de70fe8c1ff1491064bac8af1dd770", "asm": "3044022048485395f3d0111515b2f0f36a442fee0a16c69b92ec730eb3471795a74131e5022063c77e13c4aceff8b9b94c4d51730bdeab86d38028e91ed3285d3f8d56261e47[ALL] 0399a2da68565798506f36dcdd73e22ea802de70fe8c1ff1491064bac8af1dd770"}, "vout": 0, "txid": "a15461c0f4dba8c2bbb3a675f87adb3505098a858f6671ebeb73f5b615eb355f"}, {"sequence": 4294967295, "scriptSig": {"hex": "473044022004b4a1f7a4ddf6e95ca6ce6a2c5810f46570d7797ff8fc7fe2f43c4b3eac26de02202af4ee7a5835e1f4d93a2fc44015a7d559d1d37a5f2b6054d12b8126a43999a701210399a2da68565798506f36dcdd73e22ea802de70fe8c1ff1491064bac8af1dd770", "asm": "3044022004b4a1f7a4ddf6e95ca6ce6a2c5810f46570d7797ff8fc7fe2f43c4b3eac26de02202af4ee7a5835e1f4d93a2fc44015a7d559d1d37a5f2b6054d12b8126a43999a7[ALL] 0399a2da68565798506f36dcdd73e22ea802de70fe8c1ff1491064bac8af1dd770"}, "vout": 1, "txid": "b39897572c330fe8d3f8398b7a32109b3c8b3be1da9541e4fc843fdb6618c3ec"}, {"sequence": 4294967295, "scriptSig": {"hex": "47304402204dd4373450912d4f9d29783a0e45a7304058897215193a2927f63d0c48e7508802202437bff5e0304367e4967378f3420c33d94dac2eba8b8b9ab538149cc3e7db4c0121030476f74036048c9e3e02860968da0b12b2bf7d84b6149fa222f16c0cb5350987", "asm": "304402204dd4373450912d4f9d29783a0e45a7304058897215193a2927f63d0c48e7508802202437bff5e0304367e4967378f3420c33d94dac2eba8b8b9ab538149cc3e7db4c[ALL] 030476f74036048c9e3e02860968da0b12b2bf7d84b6149fa222f16c0cb5350987"}, "vout": 1, "txid": "63b03899fd1e1bd624cc3601ef4a51d856bea9496bbd59beef2500a5e5f30928"}], "txid": "aa991615276b1fb8d9468c4e9571702d719a0d355a3ec00f25c8b073bd702be0", "blocktime": 1537876114, "version": 1, "confirmations": 11460, "time": 1537876114, "locktime": 0, "vsize": 519, "size": 519}