{"hash": "aa9dc595451ebdfc35f6ae61363dc465b8b2c123bd47837e497b80643ce566bc", "blockhash": "0000000000000000001cda96e906b7601b7a6fb1a3b62bca570a9e5d8f4b3de1", "vout": [{"scriptPubKey": {"reqSigs": 1, "hex": "76a914bd20f3232ff5568b5c3f0b42cd0ebe7209c08b1c88ac", "addresses": ["1JF2BeR9Sqira6vetHjhQcn7Lpcgw9akS9"], "asm": "OP_DUP OP_HASH160 bd20f3232ff5568b5c3f0b42cd0ebe7209c08b1c OP_EQUALVERIFY OP_CHECKSIG", "type": "pubkeyhash"}, "value": 7.86e-06, "n": 0}, {"scriptPubKey": {"reqSigs": 1, "hex": "76a914cd4df8df9352c30c103268803bb7d18f65acced488ac", "addresses": ["1KiYvvi3R2p5ajdruk4CuLyGzj1sUz9rL9"], "asm": "OP_DUP OP_HASH160 cd4df8df9352c30c103268803bb7d18f65acced4 OP_EQUALVERIFY OP_CHECKSIG", "type": "pubkeyhash"}, "value": 0.00093684, "n": 1}], "hex": "01000000048fb5ad0ba6f6cd27f765ef09695b37f8ce74090f47eae5a5ad9d46fecf6e7f35000000006a473044022067a8fc1d69cc8ea4c9c30465abe1435d9bb7f28894c641dd835dbd02b0ded5a102204de2cf7a96b834311b4151855904ba1f85e66140183f56b17d8663eea324feec01210375deb377ea60cfa7a4c881d2924dbed63ace625dcb7801f0df59dea650895cacffffffff23e30a8d4bfd9d0a91954a232e8d10d575809e9992d4ca6c11f649c9cb54c955000000006b483045022100fa77d5a514ac4ea6ad5d65cca5dc6671c5ab5f714beb7266f0598c86626d1cd60220442a873c9628952ca8b7c70e9ae8d2dad37ec1378ae81133a405b5cb9d801ef20121028713ae146a95011d8734775f9f8b43796ad95c91ac0142592bcde985fd0ca5ddffffffff5e5553d66e3275605f5043ef17c76c2a95be939332832c126029a7bf28f97571000000006a473044022032f15fb075a66a346ad88f9f26d67a787e7ec9490ab41a0210d89e5ed79e536402200e2e3971ba41429383a69472bd74ed9402eb27dec579e779c80dbe24ab476bd601210325d37e8748feee44a92187cdce468ed7cf747a9126015ab6125b09d1d542461fffffffff778418b4abe5ec72151d157b52680c35d7228128a7815e2533a293c8ad00d8ce000000006a47304402204223a09f52c3c603bb62d01b9323a2c89cd932869276001f42cdf295183581ee02206d56d9fbe012c244d9950a2e05dc5642b310391f4bfb6f1fb005075d981dcdec012102134e47e3fce7440d0256d92ff19be600704ee33e17f18f47ac82fa6a8584f7daffffffff0212030000000000001976a914bd20f3232ff5568b5c3f0b42cd0ebe7209c08b1c88acf46d0100000000001976a914cd4df8df9352c30c103268803bb7d18f65acced488ac00000000", "vin": [{"sequence": 4294967295, "scriptSig": {"hex": "473044022067a8fc1d69cc8ea4c9c30465abe1435d9bb7f28894c641dd835dbd02b0ded5a102204de2cf7a96b834311b4151855904ba1f85e66140183f56b17d8663eea324feec01210375deb377ea60cfa7a4c881d2924dbed63ace625dcb7801f0df59dea650895cac", "asm": "3044022067a8fc1d69cc8ea4c9c30465abe1435d9bb7f28894c641dd835dbd02b0ded5a102204de2cf7a96b834311b4151855904ba1f85e66140183f56b17d8663eea324feec[ALL] 0375deb377ea60cfa7a4c881d2924dbed63ace625dcb7801f0df59dea650895cac"}, "vout": 0, "txid": "357f6ecffe469dada5e5ea470f0974cef8375b6909ef65f727cdf6a60badb58f"}, {"sequence": 4294967295, "scriptSig": {"hex": "483045022100fa77d5a514ac4ea6ad5d65cca5dc6671c5ab5f714beb7266f0598c86626d1cd60220442a873c9628952ca8b7c70e9ae8d2dad37ec1378ae81133a405b5cb9d801ef20121028713ae146a95011d8734775f9f8b43796ad95c91ac0142592bcde985fd0ca5dd", "asm": "3045022100fa77d5a514ac4ea6ad5d65cca5dc6671c5ab5f714beb7266f0598c86626d1cd60220442a873c9628952ca8b7c70e9ae8d2dad37ec1378ae81133a405b5cb9d801ef2[ALL] 028713ae146a95011d8734775f9f8b43796ad95c91ac0142592bcde985fd0ca5dd"}, "vout": 0, "txid": "55c954cbc949f6116ccad492999e8075d5108d2e234a95910a9dfd4b8d0ae323"}, {"sequence": 4294967295, "scriptSig": {"hex": "473044022032f15fb075a66a346ad88f9f26d67a787e7ec9490ab41a0210d89e5ed79e536402200e2e3971ba41429383a69472bd74ed9402eb27dec579e779c80dbe24ab476bd601210325d37e8748feee44a92187cdce468ed7cf747a9126015ab6125b09d1d542461f", "asm": "3044022032f15fb075a66a346ad88f9f26d67a787e7ec9490ab41a0210d89e5ed79e536402200e2e3971ba41429383a69472bd74ed9402eb27dec579e779c80dbe24ab476bd6[ALL] 0325d37e8748feee44a92187cdce468ed7cf747a9126015ab6125b09d1d542461f"}, "vout": 0, "txid": "7175f928bfa72960122c83329393be952a6cc717ef43505f6075326ed653555e"}, {"sequence": 4294967295, "scriptSig": {"hex": "47304402204223a09f52c3c603bb62d01b9323a2c89cd932869276001f42cdf295183581ee02206d56d9fbe012c244d9950a2e05dc5642b310391f4bfb6f1fb005075d981dcdec012102134e47e3fce7440d0256d92ff19be600704ee33e17f18f47ac82fa6a8584f7da", "asm": "304402204223a09f52c3c603bb62d01b9323a2c89cd932869276001f42cdf295183581ee02206d56d9fbe012c244d9950a2e05dc5642b310391f4bfb6f1fb005075d981dcdec[ALL] 02134e47e3fce7440d0256d92ff19be600704ee33e17f18f47ac82fa6a8584f7da"}, "vout": 0, "txid": "ced800adc893a233255e81a7288122d7350c68527b151d1572ece5abb4188477"}], "txid": "aa9dc595451ebdfc35f6ae61363dc465b8b2c123bd47837e497b80643ce566bc", "blocktime": 1537873282, "version": 1, "confirmations": 11485, "time": 1537873282, "locktime": 0, "vsize": 667, "size": 667}