{"hash": "b0335d5d097925f57df254d7a2823c665ae19569e17e69ae9bb87ff7bd18c62f", "blockhash": "00000000000000000017f5eb5941039fbcee6240d03bc1f2f8e35350df66a1d8", "vout": [{"scriptPubKey": {"reqSigs": 1, "hex": "76a914364e96f9b0bd97e53109afeca87bdd973f36b86688ac", "addresses": ["15x9dsUSbEtNZDGWTn6WaAMxMFrMp9Rxkn"], "asm": "OP_DUP OP_HASH160 364e96f9b0bd97e53109afeca87bdd973f36b866 OP_EQUALVERIFY OP_CHECKSIG", "type": "pubkeyhash"}, "value": 0.17712166, "n": 0}, {"scriptPubKey": {"reqSigs": 1, "hex": "a9147f4639310f7113932319b3f6e6210a48258e3b0887", "addresses": ["3DHys7ZVgFCYdCpxUUskZzdovADmqparNJ"], "asm": "OP_HASH160 7f4639310f7113932319b3f6e6210a48258e3b08 OP_EQUAL", "type": "scripthash"}, "value": 0.09431949, "n": 1}], "hex": "010000000001018add4eb7e81f322f674d5e6b88de434cac4d176bbdd5df3abae33b0c652b19ad000000002322002060bbf42238e04a4bbcc4f7769cbf5799d4593e5cd74091211bd7ba1d6ee65331ffffffff0226440e01000000001976a914364e96f9b0bd97e53109afeca87bdd973f36b86688ac8deb8f000000000017a9147f4639310f7113932319b3f6e6210a48258e3b088704004730440220370496cd66de2513221d2fd0bd88a603dbcb3fcfdc46fdedf82dfbf785c83f9902205550b6442f89cb4d98ea4047e0de97815b461c041a7eb3327b3102edfceea05001483045022100f6275b11ab09d40420a4ef7121a7b6e52d02e1e4bcb04a2fb4a3eebed994b7820220088b7a13c0105c2fec3a9b19dd16e1014a1ebdad632a1fc765280d389f443fb50169522103985735bbc8b0be05ce9f511c62bcfeb98f9870672f82a97ce6e9a8ebca6aabd9210385870a47022ae1399b95ac0476c2de4b30ef9213c0ccf47d5953cf458793ad402102bce4d69006aa4b88bddc9ffc223322a399b143aad0bb6129323b451057d9f7f353ae16490800", "vin": [{"txinwitness": ["", "30440220370496cd66de2513221d2fd0bd88a603dbcb3fcfdc46fdedf82dfbf785c83f9902205550b6442f89cb4d98ea4047e0de97815b461c041a7eb3327b3102edfceea05001", "3045022100f6275b11ab09d40420a4ef7121a7b6e52d02e1e4bcb04a2fb4a3eebed994b7820220088b7a13c0105c2fec3a9b19dd16e1014a1ebdad632a1fc765280d389f443fb501", "522103985735bbc8b0be05ce9f511c62bcfeb98f9870672f82a97ce6e9a8ebca6aabd9210385870a47022ae1399b95ac0476c2de4b30ef9213c0ccf47d5953cf458793ad402102bce4d69006aa4b88bddc9ffc223322a399b143aad0bb6129323b451057d9f7f353ae"], "sequence": 4294967295, "scriptSig": {"hex": "22002060bbf42238e04a4bbcc4f7769cbf5799d4593e5cd74091211bd7ba1d6ee65331", "asm": "002060bbf42238e04a4bbcc4f7769cbf5799d4593e5cd74091211bd7ba1d6ee65331"}, "vout": 0, "txid": "ad192b650c3be3ba3adfd5bd6b174dac4c43de886b5e4d672f321fe8b74edd8a"}], "txid": "aaa640f180dfda1d2b51a478c63673c4cddf971695c2894f8ec0e916c3cb0cb0", "blocktime": 1537874412, "version": 1, "confirmations": 11468, "time": 1537874412, "locktime": 542998, "vsize": 216, "size": 407}