{"hash": "aaa86798e2751b7fa1049a6749314526b4256d3f30d4bef909dc4713302c74ef", "blockhash": "0000000000000000000dcc0f55137456b1a82d3642486a52398922ac4d620174", "vout": [{"scriptPubKey": {"type": "nulldata", "hex": "6a146f6d6e69000000000000001f0000005f5ff758f0", "asm": "OP_RETURN 6f6d6e69000000000000001f0000005f5ff758f0"}, "value": 0.0, "n": 0}, {"scriptPubKey": {"reqSigs": 1, "hex": "76a91446a8a27a7f51f84dc75ae07019df18ca39cecd2288ac", "addresses": ["17ScKNXo4cL8DyfWfcCWu1uJySQuJm7iKC"], "asm": "OP_DUP OP_HASH160 46a8a27a7f51f84dc75ae07019df18ca39cecd22 OP_EQUALVERIFY OP_CHECKSIG", "type": "pubkeyhash"}, "value": 0.57449137, "n": 1}, {"scriptPubKey": {"reqSigs": 1, "hex": "76a9145703921e0f41a59ee186c1cd942b52505eff633488ac", "addresses": ["18w64nsB797kyPty5sUY6fHrCZuVuzziE1"], "asm": "OP_DUP OP_HASH160 5703921e0f41a59ee186c1cd942b52505eff6334 OP_EQUALVERIFY OP_CHECKSIG", "type": "pubkeyhash"}, "value": 5.46e-06, "n": 2}], "hex": "0100000001deceda15ffa66163ae25c8a734e6ff8adb3f4c41573f15e66c757369e51daeb2000000006a47304402200919a132522777877b0abce9709c5c8e6d5d516e330461e705fd4b4e8a840c8d02202bc2f218ddef9f65fe2999e7bd7887511c69247c32258f358adbf044ec9cbd56012102b7042dc82d0ecbadc24910515789f34674fe32a285676c7f7b0c64f750b10e36feffffff030000000000000000166a146f6d6e69000000000000001f0000005f5ff758f0b19a6c03000000001976a91446a8a27a7f51f84dc75ae07019df18ca39cecd2288ac22020000000000001976a9145703921e0f41a59ee186c1cd942b52505eff633488ac0c490800", "vin": [{"sequence": 4294967294, "scriptSig": {"hex": "47304402200919a132522777877b0abce9709c5c8e6d5d516e330461e705fd4b4e8a840c8d02202bc2f218ddef9f65fe2999e7bd7887511c69247c32258f358adbf044ec9cbd56012102b7042dc82d0ecbadc24910515789f34674fe32a285676c7f7b0c64f750b10e36", "asm": "304402200919a132522777877b0abce9709c5c8e6d5d516e330461e705fd4b4e8a840c8d02202bc2f218ddef9f65fe2999e7bd7887511c69247c32258f358adbf044ec9cbd56[ALL] 02b7042dc82d0ecbadc24910515789f34674fe32a285676c7f7b0c64f750b10e36"}, "vout": 0, "txid": "b2ae1de56973756ce6153f57414c3fdb8affe634a7c825ae6361a6ff15dacede"}], "txid": "aaa86798e2751b7fa1049a6749314526b4256d3f30d4bef909dc4713302c74ef", "blocktime": 1537870268, "version": 1, "confirmations": 11518, "time": 1537870268, "locktime": 542988, "vsize": 256, "size": 256}