{"hash": "a24b56173355203c2397bcb83fead096934e1a7b31f774e611720bd303a1520b", "blockhash": "0000000000000000000baef3f32e3676a92c3b2e5da21b426e4f302fc371ce76", "vout": [{"scriptPubKey": {"reqSigs": 1, "hex": "a914ad2b214ff45c648b0271e6dd418c85f70a6e2b6b87", "addresses": ["3HUeVTsa3pw1dNcqY4Tv3Lr9RMdA1WQfxa"], "asm": "OP_HASH160 ad2b214ff45c648b0271e6dd418c85f70a6e2b6b OP_EQUAL", "type": "scripthash"}, "value": 9.03e-06, "n": 0}, {"scriptPubKey": {"reqSigs": 1, "hex": "a914aadddaf784bbae36bb635f9208759f043519b68f87", "addresses": ["3HGUZw8hpCcZKnhPG4brzoPe8Wq9shd9Jb"], "asm": "OP_HASH160 aadddaf784bbae36bb635f9208759f043519b68f OP_EQUAL", "type": "scripthash"}, "value": 0.00951, "n": 1}], "hex": "010000000001018cfddd492d3bacb58521d5c8bdaa30b1b504cb3b38f67c554acdf69e863e80eb01000000171600144f3cbed35bf433fda783d2bb1b2ca0d1104bee65fdffffff02870300000000000017a914ad2b214ff45c648b0271e6dd418c85f70a6e2b6b87d8820e000000000017a914aadddaf784bbae36bb635f9208759f043519b68f87024730440220592798796061c844f449b54761f975e5574978d677b5232673786e87d7aa5a8802204efdfac2c4cf1d44179a67cc4cf2b567a17a6d739311b9b73b771a2819f7f3bc012102eee7b0832ec8aaf32c637ea27984300d233344f5a7cd5085aa69c894fba059e400000000", "vin": [{"txinwitness": ["30440220592798796061c844f449b54761f975e5574978d677b5232673786e87d7aa5a8802204efdfac2c4cf1d44179a67cc4cf2b567a17a6d739311b9b73b771a2819f7f3bc01", "02eee7b0832ec8aaf32c637ea27984300d233344f5a7cd5085aa69c894fba059e4"], "sequence": 4294967293, "scriptSig": {"hex": "1600144f3cbed35bf433fda783d2bb1b2ca0d1104bee65", "asm": "00144f3cbed35bf433fda783d2bb1b2ca0d1104bee65"}, "vout": 1, "txid": "eb803e869ef6cd4a557cf6383bcb04b5b130aabdc8d52185b5ac3b2d49ddfd8c"}], "txid": "aaaa28d64d2433d438026aad2ae8009c89b3cbf083ebd75634a794f3893cc3e8", "blocktime": 1537876114, "version": 1, "confirmations": 11459, "time": 1537876114, "locktime": 0, "vsize": 166, "size": 247}