{"hash": "aaad16945f7840d57b56af3d27184953c644cc42b16a4254a89de236a9f35f1c", "blockhash": "0000000000000000000baef3f32e3676a92c3b2e5da21b426e4f302fc371ce76", "vout": [{"scriptPubKey": {"reqSigs": 1, "hex": "76a914d243e6abb9a60fbff430b421d2df4b7d59ec186088ac", "addresses": ["1LAnF8h3qMGx3TSwNUHVneBZUEpwE4gu3D"], "asm": "OP_DUP OP_HASH160 d243e6abb9a60fbff430b421d2df4b7d59ec1860 OP_EQUALVERIFY OP_CHECKSIG", "type": "pubkeyhash"}, "value": 0.00077314, "n": 0}, {"scriptPubKey": {"reqSigs": 1, "hex": "76a914e177d40a557bfd568151a2eee8759107d7b7069888ac", "addresses": ["1MZAayfFJ9Kki2csoYjFVRKHFFSkdoMLtX"], "asm": "OP_DUP OP_HASH160 e177d40a557bfd568151a2eee8759107d7b70698 OP_EQUALVERIFY OP_CHECKSIG", "type": "pubkeyhash"}, "value": 5.46e-06, "n": 1}, {"scriptPubKey": {"type": "nulldata", "hex": "6a146f6d6e69000000000000001f00002d3b31c03340", "asm": "OP_RETURN 6f6d6e69000000000000001f00002d3b31c03340"}, "value": 0.0, "n": 2}], "hex": "010000000100177512346f578ea951e6760a6d4f233fb5fee34bceba5d91a35ce3e4f3d629000000006b483045022100a3a3c2656c958e8538632185a7bc0170c54978f03e2fa84cca0c093f65606fba022022722c40ec4356f21544a0a151b342545c5c6e0dbcf0809ff26e131403c51c7201210271977291b74f1f5f5c42157e8aae804664eaaeccfd097918450d37f28fb94d77ffffffff03022e0100000000001976a914d243e6abb9a60fbff430b421d2df4b7d59ec186088ac22020000000000001976a914e177d40a557bfd568151a2eee8759107d7b7069888ac0000000000000000166a146f6d6e69000000000000001f00002d3b31c0334000000000", "vin": [{"sequence": 4294967295, "scriptSig": {"hex": "483045022100a3a3c2656c958e8538632185a7bc0170c54978f03e2fa84cca0c093f65606fba022022722c40ec4356f21544a0a151b342545c5c6e0dbcf0809ff26e131403c51c7201210271977291b74f1f5f5c42157e8aae804664eaaeccfd097918450d37f28fb94d77", "asm": "3045022100a3a3c2656c958e8538632185a7bc0170c54978f03e2fa84cca0c093f65606fba022022722c40ec4356f21544a0a151b342545c5c6e0dbcf0809ff26e131403c51c72[ALL] 0271977291b74f1f5f5c42157e8aae804664eaaeccfd097918450d37f28fb94d77"}, "vout": 0, "txid": "29d6f3e4e35ca3915dbace4be3feb53f234f6d0a76e651a98e576f3412751700"}], "txid": "aaad16945f7840d57b56af3d27184953c644cc42b16a4254a89de236a9f35f1c", "blocktime": 1537876114, "version": 1, "confirmations": 11460, "time": 1537876114, "locktime": 0, "vsize": 257, "size": 257}