{"hash": "aaae25139e414ab8426bd7a68b1d694c32dddcb76af4c68d6cbff33dbf469b0d", "blockhash": "00000000000000000004ffacab907a6b429b9a5745fa0b75af4234bf69dd7176", "vout": [{"scriptPubKey": {"reqSigs": 1, "hex": "76a9147b7c51b76bdab6ca95d88c5640d9df7320be59d288ac", "addresses": ["1CFw3SomzRtYAHLezQtZZnXdpNFqthXBoo"], "asm": "OP_DUP OP_HASH160 7b7c51b76bdab6ca95d88c5640d9df7320be59d2 OP_EQUALVERIFY OP_CHECKSIG", "type": "pubkeyhash"}, "value": 0.02092524, "n": 0}, {"scriptPubKey": {"reqSigs": 1, "hex": "76a9146cd49dc429df53aa4fc5d522459a2a157fa3c31788ac", "addresses": ["1AvSgZDSEM33c9ytgH2zHS3YML2rtV1yMF"], "asm": "OP_DUP OP_HASH160 6cd49dc429df53aa4fc5d522459a2a157fa3c317 OP_EQUALVERIFY OP_CHECKSIG", "type": "pubkeyhash"}, "value": 0.327, "n": 1}], "hex": "0200000001c3e3fab9fe9669abf178a57ac7b5bf0d764861cea71666e42a857312b4046592000000006a473044022004a7b875019cb6ad88797416211c400cb21dee40e767af9dbe8f02f735a3caa902204c0ce3e7d19879e73c74d2c5ce68de9a719ef9bbd3e5860fee471ad00681a0820121034520fd6cc94363bc30845aa6bcb6d942e11ae9351d7ae0bf02a35e98fc5e18affeffffff02eced1f00000000001976a9147b7c51b76bdab6ca95d88c5640d9df7320be59d288ac60f6f201000000001976a9146cd49dc429df53aa4fc5d522459a2a157fa3c31788ac16490800", "vin": [{"sequence": 4294967294, "scriptSig": {"hex": "473044022004a7b875019cb6ad88797416211c400cb21dee40e767af9dbe8f02f735a3caa902204c0ce3e7d19879e73c74d2c5ce68de9a719ef9bbd3e5860fee471ad00681a0820121034520fd6cc94363bc30845aa6bcb6d942e11ae9351d7ae0bf02a35e98fc5e18af", "asm": "3044022004a7b875019cb6ad88797416211c400cb21dee40e767af9dbe8f02f735a3caa902204c0ce3e7d19879e73c74d2c5ce68de9a719ef9bbd3e5860fee471ad00681a082[ALL] 034520fd6cc94363bc30845aa6bcb6d942e11ae9351d7ae0bf02a35e98fc5e18af"}, "vout": 0, "txid": "926504b41273852ae46616a7ce6148760dbfb5c77aa578f1ab6996feb9fae3c3"}], "txid": "aaae25139e414ab8426bd7a68b1d694c32dddcb76af4c68d6cbff33dbf469b0d", "blocktime": 1537875543, "version": 2, "confirmations": 11464, "time": 1537875543, "locktime": 542998, "vsize": 225, "size": 225}