{"hash": "b4c1117c647db9c345a7423301c9d40e514e1c2797a329a58ab7cd71fd20438e", "blockhash": "0000000000000000000dcc0f55137456b1a82d3642486a52398922ac4d620174", "vout": [{"scriptPubKey": {"reqSigs": 1, "hex": "76a914c4aba6e9d54aba12e776f14a39908c36af20435788ac", "addresses": ["1Jvu5ByShFwsGG8BGUCeCFcgTUrFBPt3f6"], "asm": "OP_DUP OP_HASH160 c4aba6e9d54aba12e776f14a39908c36af204357 OP_EQUALVERIFY OP_CHECKSIG", "type": "pubkeyhash"}, "value": 0.02374342, "n": 0}, {"scriptPubKey": {"reqSigs": 1, "hex": "a91464cf0faaa49fa1abddc46843cce52b3118ac401387", "addresses": ["3At3YbESt8QcywZvF98LcBgELXRmvfuHN2"], "asm": "OP_HASH160 64cf0faaa49fa1abddc46843cce52b3118ac4013 OP_EQUAL", "type": "scripthash"}, "value": 0.0134824, "n": 1}], "hex": "02000000000101ffe309cd7111cb6dbb927b2eefc2979b731dbccc7aef2a18a745b0ead83bd47501000000171600142c5e31a2e386c224720431698ffc16d400588ca3fdffffff02c63a2400000000001976a914c4aba6e9d54aba12e776f14a39908c36af20435788ac909214000000000017a91464cf0faaa49fa1abddc46843cce52b3118ac401387024830450221009b95af8ea194abb7c121c29a7993ea3843e1e773335aea8efc6454bbe90ba86702203dfb50bf3772fcbeed74921fe882185716c472403a1952cf30071137c458fb8d01210280975bfc0b7b082894e7dd9643b683c3b7c4dcfe16906ae173c43a6f09415a0d0c490800", "vin": [{"txinwitness": ["30450221009b95af8ea194abb7c121c29a7993ea3843e1e773335aea8efc6454bbe90ba86702203dfb50bf3772fcbeed74921fe882185716c472403a1952cf30071137c458fb8d01", "0280975bfc0b7b082894e7dd9643b683c3b7c4dcfe16906ae173c43a6f09415a0d"], "sequence": 4294967293, "scriptSig": {"hex": "1600142c5e31a2e386c224720431698ffc16d400588ca3", "asm": "00142c5e31a2e386c224720431698ffc16d400588ca3"}, "vout": 1, "txid": "75d43bd8eab045a7182aef7accbc1d739b97c2ef2e7b92bb6dcb1171cd09e3ff"}], "txid": "aab02424307c02e3938f4a3fd9df89bb69dc90359b676fdc664df601bb66a2cb", "blocktime": 1537870268, "version": 2, "confirmations": 11518, "time": 1537870268, "locktime": 542988, "vsize": 168, "size": 250}