{"hash": "aab0fa589a6365f003de6558900c29d81f2abb85b01428f5d4b9168effcee2e8", "blockhash": "0000000000000000001e0dab787dd257d1dbfcb92a98c2207d5e1078be1f4165", "vout": [{"scriptPubKey": {"reqSigs": 1, "hex": "76a9142ee62aa9904a6f44c4a26246bedc6418c360e30f88ac", "addresses": ["15Gyp5qXysJscvpQoKpAdbu63256fsddhB"], "asm": "OP_DUP OP_HASH160 2ee62aa9904a6f44c4a26246bedc6418c360e30f OP_EQUALVERIFY OP_CHECKSIG", "type": "pubkeyhash"}, "value": 0.00218581, "n": 0}, {"scriptPubKey": {"reqSigs": 1, "hex": "76a914e024ae9f358d798db8b6b2c9829216eb38bdb73288ac", "addresses": ["1MSAJgv21hm64zVogCbyD9mmJTncm38o9z"], "asm": "OP_DUP OP_HASH160 e024ae9f358d798db8b6b2c9829216eb38bdb732 OP_EQUALVERIFY OP_CHECKSIG", "type": "pubkeyhash"}, "value": 0.00808068, "n": 1}], "hex": "010000000164769e6a05063c76a4a788cd2bd5cd748a7ac4a6822f76a47759e4bed243409e010000006b483045022100f60e95b099cd1f882429c5240430b7d5f76fe8f3c70f046939e5760198ceeecc022052d44b9338ba5b06b98f9ac8055c9d3b057bda7742bd0f4586b20390f7d24ad7012103651262f13217ccb2be420183f5b284ff87b2d0f5adc78a2de7b4739cc7e76a05ffffffff02d5550300000000001976a9142ee62aa9904a6f44c4a26246bedc6418c360e30f88ac84540c00000000001976a914e024ae9f358d798db8b6b2c9829216eb38bdb73288ac00000000", "vin": [{"sequence": 4294967295, "scriptSig": {"hex": "483045022100f60e95b099cd1f882429c5240430b7d5f76fe8f3c70f046939e5760198ceeecc022052d44b9338ba5b06b98f9ac8055c9d3b057bda7742bd0f4586b20390f7d24ad7012103651262f13217ccb2be420183f5b284ff87b2d0f5adc78a2de7b4739cc7e76a05", "asm": "3045022100f60e95b099cd1f882429c5240430b7d5f76fe8f3c70f046939e5760198ceeecc022052d44b9338ba5b06b98f9ac8055c9d3b057bda7742bd0f4586b20390f7d24ad7[ALL] 03651262f13217ccb2be420183f5b284ff87b2d0f5adc78a2de7b4739cc7e76a05"}, "vout": 1, "txid": "9e4043d2bee45977a4762f82a6c47a8a74cdd52bcd88a7a4763c06056a9e7664"}], "txid": "aab0fa589a6365f003de6558900c29d81f2abb85b01428f5d4b9168effcee2e8", "blocktime": 1537872475, "version": 1, "confirmations": 11487, "time": 1537872475, "locktime": 0, "vsize": 226, "size": 226}