{"hash": "aab32a991f24b4b0781e7e8fe364e37cdc356afb45d89a1378122778073be18d", "blockhash": "000000000000000000022b45ed06c6f4ccd3cf7fb5ba4856ebd2e58215665228", "vout": [{"scriptPubKey": {"reqSigs": 1, "hex": "a914794800e25008cf3f97ed3e31c1642bd0b995fefb87", "addresses": ["3CkHweEsy5sMzkqiGr71wSGz6RWKu5nBEG"], "asm": "OP_HASH160 794800e25008cf3f97ed3e31c1642bd0b995fefb OP_EQUAL", "type": "scripthash"}, "value": 0.00056811, "n": 0}, {"scriptPubKey": {"reqSigs": 1, "hex": "76a9140092101b1f714cec2fcea6546e7a6e766e7bbfa288ac", "addresses": ["1141ydVY7E3acAZ3KLojHpmoB5E2YfcCgy"], "asm": "OP_DUP OP_HASH160 0092101b1f714cec2fcea6546e7a6e766e7bbfa2 OP_EQUALVERIFY OP_CHECKSIG", "type": "pubkeyhash"}, "value": 0.05366755, "n": 1}], "hex": "01000000016f019f7c480be698b7215dea666a72743f73ecf6a0d48566125d059867db45ee010000006a4730440220557c4af61d8be14fd8f12af44c32782f8bfc141883898d3b8f546c158d7bbdb30220168bcfa3c32c298e566e8fa28d810d64f98cb446e684b95b36fabcdd85a042450121036895fa860e707705616eb6862627b9576418466e82171983a744488ae3f10ad8ffffffff02ebdd00000000000017a914794800e25008cf3f97ed3e31c1642bd0b995fefb87e3e35100000000001976a9140092101b1f714cec2fcea6546e7a6e766e7bbfa288ac00000000", "vin": [{"sequence": 4294967295, "scriptSig": {"hex": "4730440220557c4af61d8be14fd8f12af44c32782f8bfc141883898d3b8f546c158d7bbdb30220168bcfa3c32c298e566e8fa28d810d64f98cb446e684b95b36fabcdd85a042450121036895fa860e707705616eb6862627b9576418466e82171983a744488ae3f10ad8", "asm": "30440220557c4af61d8be14fd8f12af44c32782f8bfc141883898d3b8f546c158d7bbdb30220168bcfa3c32c298e566e8fa28d810d64f98cb446e684b95b36fabcdd85a04245[ALL] 036895fa860e707705616eb6862627b9576418466e82171983a744488ae3f10ad8"}, "vout": 1, "txid": "ee45db6798055d126685d4a0f6ec733f74726a66ea5d21b798e60b487c9f016f"}], "txid": "aab32a991f24b4b0781e7e8fe364e37cdc356afb45d89a1378122778073be18d", "blocktime": 1537869901, "version": 1, "confirmations": 11523, "time": 1537869901, "locktime": 0, "vsize": 223, "size": 223}