{"hash": "aab97dca760d43bc7077518bb55541a80daf4eaa396ff9a82e064527e4f5dd1b", "blockhash": "00000000000000000024a2167bbff67b0be802c0b01cdd79e6331c2be6459f87", "vout": [{"scriptPubKey": {"reqSigs": 1, "hex": "76a914df2af0ae69cf553472b557035650c14e84e7c06e88ac", "addresses": ["1MM18K9bAvsrYRDpFc2Yo4CTY5vCQQCzmi"], "asm": "OP_DUP OP_HASH160 df2af0ae69cf553472b557035650c14e84e7c06e OP_EQUALVERIFY OP_CHECKSIG", "type": "pubkeyhash"}, "value": 0.02942202, "n": 0}, {"scriptPubKey": {"reqSigs": 1, "hex": "76a9148ca1cb2cd9264651243f0816c10c260f1e4efabe88ac", "addresses": ["1DpbRUdTJKtXUbi9xa85Qm523qmZd9Xpp7"], "asm": "OP_DUP OP_HASH160 8ca1cb2cd9264651243f0816c10c260f1e4efabe OP_EQUALVERIFY OP_CHECKSIG", "type": "pubkeyhash"}, "value": 0.104446, "n": 1}], "hex": "01000000017a2b1e8cb604f83fe7a0fe4c3243276c30f408c4f08d0a188503fda756615b5a010000006b4830450221009ea0ad8d81c5d0d5dcc4dcb8efdc55a2bacb6ea30ec651f8b6ba1e8d98dc3cb002206b790b7b281ddf0f141ed228da172b8c793850aafc262512be8c7365e10930de0121029bee50a109123853368b395a1efaedbe0d53959d582d77ac8b570fbba61f5a9bffffffff02fae42c00000000001976a914df2af0ae69cf553472b557035650c14e84e7c06e88ac385f9f00000000001976a9148ca1cb2cd9264651243f0816c10c260f1e4efabe88ac00000000", "vin": [{"sequence": 4294967295, "scriptSig": {"hex": "4830450221009ea0ad8d81c5d0d5dcc4dcb8efdc55a2bacb6ea30ec651f8b6ba1e8d98dc3cb002206b790b7b281ddf0f141ed228da172b8c793850aafc262512be8c7365e10930de0121029bee50a109123853368b395a1efaedbe0d53959d582d77ac8b570fbba61f5a9b", "asm": "30450221009ea0ad8d81c5d0d5dcc4dcb8efdc55a2bacb6ea30ec651f8b6ba1e8d98dc3cb002206b790b7b281ddf0f141ed228da172b8c793850aafc262512be8c7365e10930de[ALL] 029bee50a109123853368b395a1efaedbe0d53959d582d77ac8b570fbba61f5a9b"}, "vout": 1, "txid": "5a5b6156a7fd0385180a8df0c408f4306c2743324cfea0e73ff804b68c1e2b7a"}], "txid": "aab97dca760d43bc7077518bb55541a80daf4eaa396ff9a82e064527e4f5dd1b", "blocktime": 1537870564, "version": 1, "confirmations": 11515, "time": 1537870564, "locktime": 0, "vsize": 226, "size": 226}