{"hash": "c63abd7f6ade00b1d2dc676f45d32842c1554bc0c49b077b68fc3d7582764b47", "blockhash": "0000000000000000001cda96e906b7601b7a6fb1a3b62bca570a9e5d8f4b3de1", "vout": [{"scriptPubKey": {"reqSigs": 1, "hex": "a914a8dd53094855a869e5e2cd60d0ef504f8fa8cd3887", "addresses": ["3H5taf5oYYW7fNwns3CJtw1yf3sMMPfpNv"], "asm": "OP_HASH160 a8dd53094855a869e5e2cd60d0ef504f8fa8cd38 OP_EQUAL", "type": "scripthash"}, "value": 2.70306009, "n": 0}, {"scriptPubKey": {"reqSigs": 1, "hex": "76a9141afa25c80de7e19913223c29fbebc6accd5c37ff88ac", "addresses": ["13TeEYh9cyUrCGdp5jkQZJdkNfvpH5KoXo"], "asm": "OP_DUP OP_HASH160 1afa25c80de7e19913223c29fbebc6accd5c37ff OP_EQUALVERIFY OP_CHECKSIG", "type": "pubkeyhash"}, "value": 0.0015247, "n": 1}], "hex": "020000000001019e66f63595311aa86956bf13baf78d8a56a9f321e450859a92298068146340450100000017160014b772f79f5950683a43db4462ecc12c68aa02a915feffffff02d98a1c100000000017a914a8dd53094855a869e5e2cd60d0ef504f8fa8cd388796530200000000001976a9141afa25c80de7e19913223c29fbebc6accd5c37ff88ac0247304402206fd4b2f2ce44ebe9c7050fa8b7898ab50d32c6a22b7cdf82c89e88637cbfa05c02200ceebb78a920196ecf6319a4836ce04727b60771c18544c5ed1c497b9763d2a201210224ef2d8db73c545a2e41dbf0489ff418417fc6c1e61861375b509091747176d413490800", "vin": [{"txinwitness": ["304402206fd4b2f2ce44ebe9c7050fa8b7898ab50d32c6a22b7cdf82c89e88637cbfa05c02200ceebb78a920196ecf6319a4836ce04727b60771c18544c5ed1c497b9763d2a201", "0224ef2d8db73c545a2e41dbf0489ff418417fc6c1e61861375b509091747176d4"], "sequence": 4294967294, "scriptSig": {"hex": "160014b772f79f5950683a43db4462ecc12c68aa02a915", "asm": "0014b772f79f5950683a43db4462ecc12c68aa02a915"}, "vout": 1, "txid": "45406314688029929a8550e421f3a9568a8df7ba13bf5669a81a319535f6669e"}], "txid": "aabbb90d3d286eeed842eb58fff24091d1513a6d235633aed014eaf4d0b1b0b8", "blocktime": 1537873282, "version": 2, "confirmations": 11484, "time": 1537873282, "locktime": 542995, "vsize": 168, "size": 249}