{"hash": "aabb07424698fb7844f01e7d4b57ce7dedaf1d47c252d28f728596d2300228f3", "blockhash": "00000000000000000004ffacab907a6b429b9a5745fa0b75af4234bf69dd7176", "vout": [{"scriptPubKey": {"reqSigs": 1, "hex": "76a91456c79bba3635815a12239ad54e6b86807579155388ac", "addresses": ["18urEXWGrjM1nqH1VX692133zsnfhfC9sx"], "asm": "OP_DUP OP_HASH160 56c79bba3635815a12239ad54e6b868075791553 OP_EQUALVERIFY OP_CHECKSIG", "type": "pubkeyhash"}, "value": 0.02, "n": 0}, {"scriptPubKey": {"reqSigs": 1, "hex": "a9142805d3a06f107d6fe724757dd2f98e3f0006905387", "addresses": ["35Ldw4V3DXopJSU1D85UCPdqLq1Wdbki5i"], "asm": "OP_HASH160 2805d3a06f107d6fe724757dd2f98e3f00069053 OP_EQUAL", "type": "scripthash"}, "value": 1.9328307, "n": 1}], "hex": "0200000001988dd92de114b38aadcd0e5d0f53a4347100db8f5b0336de2935f7fecf2cacd901000000fdfd000047304402201727f6e94ab3d93f6f836e670e6b4ef621c604383b2c733fc1d318b5c03c08f70220438f7ce247dc9b0affeaf5c4839c6990c7e68c48b82fa31237e1dbca019150c201483045022100d901918de6d22cf47529c93c4c5f5f47e25bf102e7b9c07aefe579759f95e444022014fe6974d39ec3189bf432aa5e71f11de926229506306185c55781de4f654b3a014c69522103a948f9e0533cb864a5a4abb407ff7f6306dd74cf69c436e347df31d71dbe1d7921036ccd87c7f19e7ec1266d0d2ecbda9ed3203f08a70bce596e1a6295fe369c0c3b2102c0b30b609b0f8b70936bf2f578d50d9337b96c7e96f405ec2e4de8598eb4a4e753ae000000000280841e00000000001976a91456c79bba3635815a12239ad54e6b86807579155388acfe43850b0000000017a9142805d3a06f107d6fe724757dd2f98e3f000690538700000000", "vin": [{"sequence": 0, "scriptSig": {"hex": "0047304402201727f6e94ab3d93f6f836e670e6b4ef621c604383b2c733fc1d318b5c03c08f70220438f7ce247dc9b0affeaf5c4839c6990c7e68c48b82fa31237e1dbca019150c201483045022100d901918de6d22cf47529c93c4c5f5f47e25bf102e7b9c07aefe579759f95e444022014fe6974d39ec3189bf432aa5e71f11de926229506306185c55781de4f654b3a014c69522103a948f9e0533cb864a5a4abb407ff7f6306dd74cf69c436e347df31d71dbe1d7921036ccd87c7f19e7ec1266d0d2ecbda9ed3203f08a70bce596e1a6295fe369c0c3b2102c0b30b609b0f8b70936bf2f578d50d9337b96c7e96f405ec2e4de8598eb4a4e753ae", "asm": "0 304402201727f6e94ab3d93f6f836e670e6b4ef621c604383b2c733fc1d318b5c03c08f70220438f7ce247dc9b0affeaf5c4839c6990c7e68c48b82fa31237e1dbca019150c2[ALL] 3045022100d901918de6d22cf47529c93c4c5f5f47e25bf102e7b9c07aefe579759f95e444022014fe6974d39ec3189bf432aa5e71f11de926229506306185c55781de4f654b3a[ALL] 522103a948f9e0533cb864a5a4abb407ff7f6306dd74cf69c436e347df31d71dbe1d7921036ccd87c7f19e7ec1266d0d2ecbda9ed3203f08a70bce596e1a6295fe369c0c3b2102c0b30b609b0f8b70936bf2f578d50d9337b96c7e96f405ec2e4de8598eb4a4e753ae"}, "vout": 1, "txid": "d9ac2ccffef73529de36035b8fdb007134a4530f5d0ecdad8ab314e12dd98d98"}], "txid": "aabb07424698fb7844f01e7d4b57ce7dedaf1d47c252d28f728596d2300228f3", "blocktime": 1537875543, "version": 2, "confirmations": 11464, "time": 1537875543, "locktime": 0, "vsize": 372, "size": 372}