{"hash": "aabddd04f4f0b51c9f090351c1664f293590125765eeac5e1c4e68ccd34ca2d6", "blockhash": "0000000000000000000e13cef7c366c0283d82e591d1acd082e914b08063cdf1", "vout": [{"scriptPubKey": {"reqSigs": 1, "hex": "76a914592872bf18b7efa31221d8895ce6a9436e46311f88ac", "addresses": ["198RbTyYuCHW6h5SX36xwpWwMSFVy7QLL8"], "asm": "OP_DUP OP_HASH160 592872bf18b7efa31221d8895ce6a9436e46311f OP_EQUALVERIFY OP_CHECKSIG", "type": "pubkeyhash"}, "value": 6.817e-05, "n": 0}, {"scriptPubKey": {"reqSigs": 1, "hex": "76a914183cb294cb67fdeb2436286e8281faea8b332e1288ac", "addresses": ["13D9vws6eCAAkDNKwS98a8QCr45foGq4mo"], "asm": "OP_DUP OP_HASH160 183cb294cb67fdeb2436286e8281faea8b332e12 OP_EQUALVERIFY OP_CHECKSIG", "type": "pubkeyhash"}, "value": 0.15811649, "n": 1}], "hex": "0100000002ca185d73b91c1b5237478e57dc6d38e74da087d257e90596e1f07114781a446a010000006a4730440220156ea6ff83f4b0f728cc46aaf6902d548c14d83eb0653979fe0d89566775626e0220464d6e5ec87fc8bdf0b552f807060fe04f1010859ac87d0360d05b2752a0000c0121021331d7d1e1f4ba16ae901e307a3a1e0acb3b86559d60fda024c4381f76c7b51bffffffff289a47923d6ed4dfc25023190c57ff12375062775e719a55554e8cee0ea798e6380000006b483045022100841d84571604276ba9314415ef41901950d978c69e803d16c438a1d27487f8840220210085b5efc40f72bb9b3a6df852c3b13570ef0fe6e1b4555b2e092e41f2f30401210390481d0235401dbced07b791c0b991e20a7952687190683ff547f80474c9df96ffffffff02a11a0000000000001976a914592872bf18b7efa31221d8895ce6a9436e46311f88ac4144f100000000001976a914183cb294cb67fdeb2436286e8281faea8b332e1288ac00000000", "vin": [{"sequence": 4294967295, "scriptSig": {"hex": "4730440220156ea6ff83f4b0f728cc46aaf6902d548c14d83eb0653979fe0d89566775626e0220464d6e5ec87fc8bdf0b552f807060fe04f1010859ac87d0360d05b2752a0000c0121021331d7d1e1f4ba16ae901e307a3a1e0acb3b86559d60fda024c4381f76c7b51b", "asm": "30440220156ea6ff83f4b0f728cc46aaf6902d548c14d83eb0653979fe0d89566775626e0220464d6e5ec87fc8bdf0b552f807060fe04f1010859ac87d0360d05b2752a0000c[ALL] 021331d7d1e1f4ba16ae901e307a3a1e0acb3b86559d60fda024c4381f76c7b51b"}, "vout": 1, "txid": "6a441a781471f0e19605e957d287a04de7386ddc578e4737521b1cb9735d18ca"}, {"sequence": 4294967295, "scriptSig": {"hex": "483045022100841d84571604276ba9314415ef41901950d978c69e803d16c438a1d27487f8840220210085b5efc40f72bb9b3a6df852c3b13570ef0fe6e1b4555b2e092e41f2f30401210390481d0235401dbced07b791c0b991e20a7952687190683ff547f80474c9df96", "asm": "3045022100841d84571604276ba9314415ef41901950d978c69e803d16c438a1d27487f8840220210085b5efc40f72bb9b3a6df852c3b13570ef0fe6e1b4555b2e092e41f2f304[ALL] 0390481d0235401dbced07b791c0b991e20a7952687190683ff547f80474c9df96"}, "vout": 56, "txid": "e698a70eee8c4e55559a715e7762503712ff570c192350c2dfd46e3d92479a28"}], "txid": "aabddd04f4f0b51c9f090351c1664f293590125765eeac5e1c4e68ccd34ca2d6", "blocktime": 1537871767, "version": 1, "confirmations": 11495, "time": 1537871767, "locktime": 0, "vsize": 373, "size": 373}