{"hash": "f8dd19f2f244bcc6b6a5facc480d1b29d39c48ef62091b6898a95f6ba021b49a", "blockhash": "00000000000000000024a2167bbff67b0be802c0b01cdd79e6331c2be6459f87", "vout": [{"scriptPubKey": {"reqSigs": 1, "hex": "76a914cefaa20c05ad41de051c51e3ca52384291a211ba88ac", "addresses": ["1KsQSoa1rNLhBQpt3P2uf952t1816yobXc"], "asm": "OP_DUP OP_HASH160 cefaa20c05ad41de051c51e3ca52384291a211ba OP_EQUALVERIFY OP_CHECKSIG", "type": "pubkeyhash"}, "value": 0.0001, "n": 0}, {"scriptPubKey": {"reqSigs": 1, "hex": "001482bbf4820edf5d4806eaf8efa369fee169a9ff14", "addresses": ["bc1qs2alfqswmaw5sph2lrh6x607u956nlc5hh4v3d"], "asm": "0 82bbf4820edf5d4806eaf8efa369fee169a9ff14", "type": "witness_v0_keyhash"}, "value": 1.339e-05, "n": 1}], "hex": "01000000000101729a9da4f898c2933d5056d9316f7f7fc39b55b22bc97a79a1e1e50a0fdb4eac0000000000ffffffff0210270000000000001976a914cefaa20c05ad41de051c51e3ca52384291a211ba88ac3b0500000000000016001482bbf4820edf5d4806eaf8efa369fee169a9ff1402483045022100f7b1a3aa4a3cac4acbb4497ab93bb68938e98063ddfecfa09f287c9767d50a91022029e8306767d0cbb704f13e49d88a33f60dc88d9cb538a0b095fb67ff49347d950121036d82aeeca93dab972603766b8849c33fe262a519771451334c4a6864a0a5812300000000", "vin": [{"txinwitness": ["3045022100f7b1a3aa4a3cac4acbb4497ab93bb68938e98063ddfecfa09f287c9767d50a91022029e8306767d0cbb704f13e49d88a33f60dc88d9cb538a0b095fb67ff49347d9501", "036d82aeeca93dab972603766b8849c33fe262a519771451334c4a6864a0a58123"], "sequence": 4294967295, "scriptSig": {"hex": "", "asm": ""}, "vout": 0, "txid": "ac4edb0f0ae5e1a1797ac92bb2559bc37f7f6f31d956503d93c298f8a49d9a72"}], "txid": "aabea7c5a8c103c0c341a707c00cc9e4213ad9ad00f4a6d50ea724726da54a44", "blocktime": 1537870564, "version": 1, "confirmations": 11515, "time": 1537870564, "locktime": 0, "vsize": 144, "size": 226}