{"hash": "aac0ca6fa02548ab9616d712714389ed6c14f73416635b72efe7799ce1d624e0", "blockhash": "0000000000000000000e13cef7c366c0283d82e591d1acd082e914b08063cdf1", "vout": [{"scriptPubKey": {"reqSigs": 1, "hex": "76a91405b19f3aa43e759c6b1de4c4402ab24fa3f6357c88ac", "addresses": ["1X7AMNh6XF7hN7mTSFM8NVwRicuPHygg4"], "asm": "OP_DUP OP_HASH160 05b19f3aa43e759c6b1de4c4402ab24fa3f6357c OP_EQUALVERIFY OP_CHECKSIG", "type": "pubkeyhash"}, "value": 0.3872, "n": 0}, {"scriptPubKey": {"reqSigs": 1, "hex": "76a91488f174288d88a6ad8d967c719c72aa6f3dee2dcd88ac", "addresses": ["1DV69bAxbj4fr7zzNzSiN4aNbnfJTu3kFn"], "asm": "OP_DUP OP_HASH160 88f174288d88a6ad8d967c719c72aa6f3dee2dcd OP_EQUALVERIFY OP_CHECKSIG", "type": "pubkeyhash"}, "value": 0.58139349, "n": 1}], "hex": "010000000160b4ba09ca24d19682c7ac899fc0d4d181dd1d64ca9e4b562362e2a7c1ff1802010000006a473044022027d01e1294a23de90b75b01ec0404d338fe71e66bd5283d86e19650e0449851102201d4806c20145e4dcf93e8f29ffdd8998409542877678eef00e45a13fd20d5aea012103e2ddbcf5f9e5c0583d314a7b8f81e5cacaf022181195496e001e726df4745fa8ffffffff0200d24e02000000001976a91405b19f3aa43e759c6b1de4c4402ab24fa3f6357c88acd5227703000000001976a91488f174288d88a6ad8d967c719c72aa6f3dee2dcd88ac00000000", "vin": [{"sequence": 4294967295, "scriptSig": {"hex": "473044022027d01e1294a23de90b75b01ec0404d338fe71e66bd5283d86e19650e0449851102201d4806c20145e4dcf93e8f29ffdd8998409542877678eef00e45a13fd20d5aea012103e2ddbcf5f9e5c0583d314a7b8f81e5cacaf022181195496e001e726df4745fa8", "asm": "3044022027d01e1294a23de90b75b01ec0404d338fe71e66bd5283d86e19650e0449851102201d4806c20145e4dcf93e8f29ffdd8998409542877678eef00e45a13fd20d5aea[ALL] 03e2ddbcf5f9e5c0583d314a7b8f81e5cacaf022181195496e001e726df4745fa8"}, "vout": 1, "txid": "0218ffc1a7e26223564b9eca641ddd81d1d4c09f89acc78296d124ca09bab460"}], "txid": "aac0ca6fa02548ab9616d712714389ed6c14f73416635b72efe7799ce1d624e0", "blocktime": 1537871767, "version": 1, "confirmations": 11491, "time": 1537871767, "locktime": 0, "vsize": 225, "size": 225}