{"hash": "aac2d31ff772e8600d1efea6159545ad162dceec4422aea2db7cb5a13bf7edd1", "blockhash": "00000000000000000017f5eb5941039fbcee6240d03bc1f2f8e35350df66a1d8", "vout": [{"scriptPubKey": {"reqSigs": 1, "hex": "76a914a959bf78bc7dee95be5b62178d7133e4d2ab604588ac", "addresses": ["1GSSiDV8P3qWt8NVuvnYwhshnzu4yfZYHC"], "asm": "OP_DUP OP_HASH160 a959bf78bc7dee95be5b62178d7133e4d2ab6045 OP_EQUALVERIFY OP_CHECKSIG", "type": "pubkeyhash"}, "value": 0.0170119, "n": 0}], "hex": "010000000187529fec7ea027f871c87663ecdef74a3899926dbb9f7278097d7be2fd03837e3a0000006b483045022100f4703f719c65c40584fbc3e281bb46bc2363592171aa19bd26dd61a09c6425f502204497330d167c8dcc6a6c0b2d763fb0d5d9ee0e6463743efbd0b3f6634a1c8dc7012102fd871becb73abd561c18b1067e7127ffbcdaa25319b6088e1e77f9976e021171ffffffff0146f51900000000001976a914a959bf78bc7dee95be5b62178d7133e4d2ab604588ac00000000", "vin": [{"sequence": 4294967295, "scriptSig": {"hex": "483045022100f4703f719c65c40584fbc3e281bb46bc2363592171aa19bd26dd61a09c6425f502204497330d167c8dcc6a6c0b2d763fb0d5d9ee0e6463743efbd0b3f6634a1c8dc7012102fd871becb73abd561c18b1067e7127ffbcdaa25319b6088e1e77f9976e021171", "asm": "3045022100f4703f719c65c40584fbc3e281bb46bc2363592171aa19bd26dd61a09c6425f502204497330d167c8dcc6a6c0b2d763fb0d5d9ee0e6463743efbd0b3f6634a1c8dc7[ALL] 02fd871becb73abd561c18b1067e7127ffbcdaa25319b6088e1e77f9976e021171"}, "vout": 58, "txid": "7e8303fde27b7d0978729fbb6d9299384af7deec6376c871f827a07eec9f5287"}], "txid": "aac2d31ff772e8600d1efea6159545ad162dceec4422aea2db7cb5a13bf7edd1", "blocktime": 1537874412, "version": 1, "confirmations": 11468, "time": 1537874412, "locktime": 0, "vsize": 192, "size": 192}