{"hash": "f799be643698a820dbae5f910722b8209039411cb077e03d41f83aaa5ddf0ae8", "blockhash": "00000000000000000004ffacab907a6b429b9a5745fa0b75af4234bf69dd7176", "vout": [{"scriptPubKey": {"reqSigs": 1, "hex": "76a9146da20d9e7b266d072e1a8b72621a7813724d1c9f88ac", "addresses": ["1AzgnZfe8htTSfUpQCSoSenN9ceTGFj9Uv"], "asm": "OP_DUP OP_HASH160 6da20d9e7b266d072e1a8b72621a7813724d1c9f OP_EQUALVERIFY OP_CHECKSIG", "type": "pubkeyhash"}, "value": 0.09783405, "n": 0}, {"scriptPubKey": {"reqSigs": 1, "hex": "a914e90e170a640691c156eec99326829d9af5cdb9be87", "addresses": ["3NwJFELYXfLKEJh5tJ3hA9sAEkCxSb9HXd"], "asm": "OP_HASH160 e90e170a640691c156eec99326829d9af5cdb9be OP_EQUAL", "type": "scripthash"}, "value": 0.00215439, "n": 1}], "hex": "020000000001019ee92977467cfb7e011ce26fb8c4bfcbff0c874f970b39b21ed7cd6ba0e8c6e80100000017160014271466a5efbe2736bb7e6fbf1e73ddfecdfeff7bffffffff026d489500000000001976a9146da20d9e7b266d072e1a8b72621a7813724d1c9f88ac8f4903000000000017a914e90e170a640691c156eec99326829d9af5cdb9be8702473044022036d81362baa2e7e00ec7d82b5ef00f4422603610fd793fed9c16bae8929acba402204769acc949a3908a628dd653a9965027a5eaeae996c867d05dcf7777448efab80121025d208e8d13c3a81d268e7ef130bce195cdd08688343e7d883ba030e62c616fe900000000", "vin": [{"txinwitness": ["3044022036d81362baa2e7e00ec7d82b5ef00f4422603610fd793fed9c16bae8929acba402204769acc949a3908a628dd653a9965027a5eaeae996c867d05dcf7777448efab801", "025d208e8d13c3a81d268e7ef130bce195cdd08688343e7d883ba030e62c616fe9"], "sequence": 4294967295, "scriptSig": {"hex": "160014271466a5efbe2736bb7e6fbf1e73ddfecdfeff7b", "asm": "0014271466a5efbe2736bb7e6fbf1e73ddfecdfeff7b"}, "vout": 1, "txid": "e8c6e8a06bcdd71eb2390b974f870cffcbbfc4b86fe21c017efb7c467729e99e"}], "txid": "aad0882cd04e40c24b22b4922937fbe720f8a2e5ebc4ce9ef1bde40c060ad034", "blocktime": 1537875543, "version": 2, "confirmations": 11464, "time": 1537875543, "locktime": 0, "vsize": 168, "size": 249}