{"hash": "aad1820305f3a003fc8fc9e1d010bd75b141e03bd9ad9307bc8368c0a6f17940", "blockhash": "0000000000000000001f76057863aec43deb6fa401d9628bb513d65a8098bfab", "vout": [{"scriptPubKey": {"reqSigs": 1, "hex": "a914e4e1f5ec3e30df3c4c37558d627a2c9d15c2fc1f87", "addresses": ["3NZEgJRtxNxKQuHBgvcYxwzKFxSwpYHhWk"], "asm": "OP_HASH160 e4e1f5ec3e30df3c4c37558d627a2c9d15c2fc1f OP_EQUAL", "type": "scripthash"}, "value": 0.005471, "n": 0}, {"scriptPubKey": {"reqSigs": 1, "hex": "76a9146841f170bd157fad366dfba392122ca62113f3ce88ac", "addresses": ["1AWGGm2fyHrDs6SRUx2818pC2UHXLXFHZp"], "asm": "OP_DUP OP_HASH160 6841f170bd157fad366dfba392122ca62113f3ce OP_EQUALVERIFY OP_CHECKSIG", "type": "pubkeyhash"}, "value": 0.59375475, "n": 1}], "hex": "01000000018be28147bbbe7d73c617a3d5f471c5149d808fbe170d4ca4b03a4abdd0c0a3e9010000006b483045022100cd8d17bd1f6dd79bb29b4c56ac79f01d917bebbaba987ac1f23eab5bd6fecdc302201afefa613fce1b951f73919487ca2f494fe1a1c35e5c6ff895c4a72c31f610bd012103414eea3b181356488e7c8bf7eb7ecacf001f58e448435de550f34e52ac920f31ffffffff021c5908000000000017a914e4e1f5ec3e30df3c4c37558d627a2c9d15c2fc1f8773ff8903000000001976a9146841f170bd157fad366dfba392122ca62113f3ce88ac00000000", "vin": [{"sequence": 4294967295, "scriptSig": {"hex": "483045022100cd8d17bd1f6dd79bb29b4c56ac79f01d917bebbaba987ac1f23eab5bd6fecdc302201afefa613fce1b951f73919487ca2f494fe1a1c35e5c6ff895c4a72c31f610bd012103414eea3b181356488e7c8bf7eb7ecacf001f58e448435de550f34e52ac920f31", "asm": "3045022100cd8d17bd1f6dd79bb29b4c56ac79f01d917bebbaba987ac1f23eab5bd6fecdc302201afefa613fce1b951f73919487ca2f494fe1a1c35e5c6ff895c4a72c31f610bd[ALL] 03414eea3b181356488e7c8bf7eb7ecacf001f58e448435de550f34e52ac920f31"}, "vout": 1, "txid": "e9a3c0d0bd4a3ab0a44c0d17be8f809d14c571f4d5a317c6737dbebb4781e28b"}], "txid": "aad1820305f3a003fc8fc9e1d010bd75b141e03bd9ad9307bc8368c0a6f17940", "blocktime": 1537873891, "version": 1, "confirmations": 11478, "time": 1537873891, "locktime": 0, "vsize": 224, "size": 224}