{"hash": "aad35f519bab4f4b10d8491e46daaceb156afaed26a4a451ef4973c84e2c8f3a", "blockhash": "0000000000000000001cda96e906b7601b7a6fb1a3b62bca570a9e5d8f4b3de1", "vout": [{"scriptPubKey": {"reqSigs": 1, "hex": "76a91410eab4c87d12b4210a05d99b4245c6501df1b89f88ac", "addresses": ["12YSyjyFPHcYaZYNuJfgcWcq24CuDEsWcH"], "asm": "OP_DUP OP_HASH160 10eab4c87d12b4210a05d99b4245c6501df1b89f OP_EQUALVERIFY OP_CHECKSIG", "type": "pubkeyhash"}, "value": 0.00343508, "n": 0}, {"scriptPubKey": {"reqSigs": 1, "hex": "76a914e3a080fbabc4ef61496dbb6bd57bf444d2b3ac9088ac", "addresses": ["1MkafYmu9WV2Q6HfyBVqmVD7NvWd1nevwr"], "asm": "OP_DUP OP_HASH160 e3a080fbabc4ef61496dbb6bd57bf444d2b3ac90 OP_EQUALVERIFY OP_CHECKSIG", "type": "pubkeyhash"}, "value": 0.01974961, "n": 1}], "hex": "0100000001700bada3f4f3537ce35b06caa351d660bb76a8c03b620d3927b70ca249f9e938010000008a47304402204fa61ee6a10d6de69d4df7d924288946a6e61abfb98b0da7052c59b3e2709e3d02203a2d5ade8e16039f4ca7ec462ae9e8991a1a2a8036820252bc6a15b3c1c0a9e801410496863885a768d78a67347b04ea8cd3c6f87c8f9f65aaa37c8ed37c86a6d66fdf620ae26ffc4004447b0b062a064c7f45b5f012d69344d953d79a9a96eae78a17ffffffff02d43d0500000000001976a91410eab4c87d12b4210a05d99b4245c6501df1b89f88acb1221e00000000001976a914e3a080fbabc4ef61496dbb6bd57bf444d2b3ac9088ac00000000", "vin": [{"sequence": 4294967295, "scriptSig": {"hex": "47304402204fa61ee6a10d6de69d4df7d924288946a6e61abfb98b0da7052c59b3e2709e3d02203a2d5ade8e16039f4ca7ec462ae9e8991a1a2a8036820252bc6a15b3c1c0a9e801410496863885a768d78a67347b04ea8cd3c6f87c8f9f65aaa37c8ed37c86a6d66fdf620ae26ffc4004447b0b062a064c7f45b5f012d69344d953d79a9a96eae78a17", "asm": "304402204fa61ee6a10d6de69d4df7d924288946a6e61abfb98b0da7052c59b3e2709e3d02203a2d5ade8e16039f4ca7ec462ae9e8991a1a2a8036820252bc6a15b3c1c0a9e8[ALL] 0496863885a768d78a67347b04ea8cd3c6f87c8f9f65aaa37c8ed37c86a6d66fdf620ae26ffc4004447b0b062a064c7f45b5f012d69344d953d79a9a96eae78a17"}, "vout": 1, "txid": "38e9f949a20cb727390d623bc0a876bb60d651a3ca065be37c53f3f4a3ad0b70"}], "txid": "aad35f519bab4f4b10d8491e46daaceb156afaed26a4a451ef4973c84e2c8f3a", "blocktime": 1537873282, "version": 1, "confirmations": 11485, "time": 1537873282, "locktime": 0, "vsize": 257, "size": 257}