{"hash": "aad8a1b8e3bb17bbe3a5543efed912866b9dcc18e4d7e8aacb816a12e1761afd", "blockhash": "00000000000000000018f53835495a110e01622372bf6ae95dc86f2b0ab887b0", "vout": [{"scriptPubKey": {"reqSigs": 1, "hex": "76a914489ee934080f32a750594958cbdc6ccec5a8c0df88ac", "addresses": ["17cz291pvx2UHiarRTHbAtgZMWNCRf3iWr"], "asm": "OP_DUP OP_HASH160 489ee934080f32a750594958cbdc6ccec5a8c0df OP_EQUALVERIFY OP_CHECKSIG", "type": "pubkeyhash"}, "value": 0.02811613, "n": 0}, {"scriptPubKey": {"reqSigs": 1, "hex": "76a914ca0d0479d0deb0bf12d81dd0ed0e32b916cea16388ac", "addresses": ["1KRM6DnLRsG8jQwjQM5pxWybRAHCzHFMH1"], "asm": "OP_DUP OP_HASH160 ca0d0479d0deb0bf12d81dd0ed0e32b916cea163 OP_EQUALVERIFY OP_CHECKSIG", "type": "pubkeyhash"}, "value": 0.17840582, "n": 1}], "hex": "0100000001c65279dd0fa7d0ed151966aa56fd1f450ba71323c1541fcdfc5ca447edaa02ef010000006b483045022100dc08e068232e7802b2b4e51c7473d69a864e25ceaede71328d139696425f712302205a2db4840e61c72824dd6e1c617d4d0d8572a5d565ceeeecf063b8f18d3f29a1012103ffeef108df060dd971dcb88e314b7356ef6f20ca4234f466cb6243ec2b2b4cdfffffffff02dde62a00000000001976a914489ee934080f32a750594958cbdc6ccec5a8c0df88acc6391001000000001976a914ca0d0479d0deb0bf12d81dd0ed0e32b916cea16388ac00000000", "vin": [{"sequence": 4294967295, "scriptSig": {"hex": "483045022100dc08e068232e7802b2b4e51c7473d69a864e25ceaede71328d139696425f712302205a2db4840e61c72824dd6e1c617d4d0d8572a5d565ceeeecf063b8f18d3f29a1012103ffeef108df060dd971dcb88e314b7356ef6f20ca4234f466cb6243ec2b2b4cdf", "asm": "3045022100dc08e068232e7802b2b4e51c7473d69a864e25ceaede71328d139696425f712302205a2db4840e61c72824dd6e1c617d4d0d8572a5d565ceeeecf063b8f18d3f29a1[ALL] 03ffeef108df060dd971dcb88e314b7356ef6f20ca4234f466cb6243ec2b2b4cdf"}, "vout": 1, "txid": "ef02aaed47a45cfccd1f54c12313a70b451ffd56aa661915edd0a70fdd7952c6"}], "txid": "aad8a1b8e3bb17bbe3a5543efed912866b9dcc18e4d7e8aacb816a12e1761afd", "blocktime": 1537870928, "version": 1, "confirmations": 11514, "time": 1537870928, "locktime": 0, "vsize": 226, "size": 226}