{"hash": "aada8a85726a9c40dc5466095ced21434e64016fc7d9f12f96f0c98b1dc01c50", "blockhash": "0000000000000000001f76057863aec43deb6fa401d9628bb513d65a8098bfab", "vout": [{"scriptPubKey": {"reqSigs": 1, "hex": "76a91415b148740e3ce60aec65f618ce7951b34543c01d88ac", "addresses": ["12yhZsPDuvJNMXdY41iXAsGqBDS5v99cem"], "asm": "OP_DUP OP_HASH160 15b148740e3ce60aec65f618ce7951b34543c01d OP_EQUALVERIFY OP_CHECKSIG", "type": "pubkeyhash"}, "value": 0.00220055, "n": 0}, {"scriptPubKey": {"reqSigs": 1, "hex": "76a914f567c42467e66fbc74c16699805f417e8e2b152e88ac", "addresses": ["1PNaroM5KaxekTtEu5EG7vJXQyinWRVcJh"], "asm": "OP_DUP OP_HASH160 f567c42467e66fbc74c16699805f417e8e2b152e OP_EQUALVERIFY OP_CHECKSIG", "type": "pubkeyhash"}, "value": 0.03080987, "n": 1}], "hex": "0100000001f468cde89615dd00c4a16e61c744875f19b4818a95a1bc7e8d5e75ee75598aee010000006b483045022100827e101d81875b1005ec8db3181a01b141197ceacd038de5702f7bc0e657641a0220718f4b20e18e9ea3dbd143255940df0b45072a611ee83e4fad20345d6bdbe4a50121031842acb82ba13549f27a6016bcfa0913de3306397fe28d1a1a67207a0772d927ffffffff02975b0300000000001976a91415b148740e3ce60aec65f618ce7951b34543c01d88ac1b032f00000000001976a914f567c42467e66fbc74c16699805f417e8e2b152e88ac00000000", "vin": [{"sequence": 4294967295, "scriptSig": {"hex": "483045022100827e101d81875b1005ec8db3181a01b141197ceacd038de5702f7bc0e657641a0220718f4b20e18e9ea3dbd143255940df0b45072a611ee83e4fad20345d6bdbe4a50121031842acb82ba13549f27a6016bcfa0913de3306397fe28d1a1a67207a0772d927", "asm": "3045022100827e101d81875b1005ec8db3181a01b141197ceacd038de5702f7bc0e657641a0220718f4b20e18e9ea3dbd143255940df0b45072a611ee83e4fad20345d6bdbe4a5[ALL] 031842acb82ba13549f27a6016bcfa0913de3306397fe28d1a1a67207a0772d927"}, "vout": 1, "txid": "ee8a5975ee755e8d7ebca1958a81b4195f8744c7616ea1c400dd1596e8cd68f4"}], "txid": "aada8a85726a9c40dc5466095ced21434e64016fc7d9f12f96f0c98b1dc01c50", "blocktime": 1537873891, "version": 1, "confirmations": 11475, "time": 1537873891, "locktime": 0, "vsize": 226, "size": 226}