{"hash": "aae19286fba67f662dceea9d649e69f58481ae77122765d7bdf2d3523a2c4a01", "blockhash": "00000000000000000024a2167bbff67b0be802c0b01cdd79e6331c2be6459f87", "vout": [{"scriptPubKey": {"reqSigs": 1, "hex": "a914094143e4f3fb78a2b991a61eceb615beafaba09a87", "addresses": ["32XxBybnzsbF3WUiizMHTgCq7cDvej73rm"], "asm": "OP_HASH160 094143e4f3fb78a2b991a61eceb615beafaba09a OP_EQUAL", "type": "scripthash"}, "value": 0.002477, "n": 0}, {"scriptPubKey": {"reqSigs": 1, "hex": "a914359613b351c383a190eca6dcadecc417595209ef87", "addresses": ["36aMXEty6RgE8Hqrnd2aDi5CxD1seK2Gsz"], "asm": "OP_HASH160 359613b351c383a190eca6dcadecc417595209ef OP_EQUAL", "type": "scripthash"}, "value": 0.03176134, "n": 1}], "hex": "0100000001cdf38727b26c9e60019ccf630c540cefdcdaafafd7cd4a884f707a8c92b4900301000000d9004730440220235fa405047e35019ce8f5eea1144c4d0f624c2190ae0ce8a2009e06bc947377022063b7a417cbc662e98492ccd3f63bf538c31c51a37d928c7eae07b54339f589df0147304402207ec10accd8404341efd58511f3a449b62cc29be7d6502cd8c39a32c78b41b184022032c63e060d9b1c62c059ab85d76cc8ab6ce0cf2891435f65085eb1d2cfb60cc7014752210296a95ef32d7485e523d928352d06e5145c00e933bf5a5aec4e5cdc8230b5b0a12103dd06b0f67ee8589bebcd5b1948003107c973f403efede6127ed16fbcd44fff1d52aeffffffff0294c703000000000017a914094143e4f3fb78a2b991a61eceb615beafaba09a87c67630000000000017a914359613b351c383a190eca6dcadecc417595209ef8700000000", "vin": [{"sequence": 4294967295, "scriptSig": {"hex": "004730440220235fa405047e35019ce8f5eea1144c4d0f624c2190ae0ce8a2009e06bc947377022063b7a417cbc662e98492ccd3f63bf538c31c51a37d928c7eae07b54339f589df0147304402207ec10accd8404341efd58511f3a449b62cc29be7d6502cd8c39a32c78b41b184022032c63e060d9b1c62c059ab85d76cc8ab6ce0cf2891435f65085eb1d2cfb60cc7014752210296a95ef32d7485e523d928352d06e5145c00e933bf5a5aec4e5cdc8230b5b0a12103dd06b0f67ee8589bebcd5b1948003107c973f403efede6127ed16fbcd44fff1d52ae", "asm": "0 30440220235fa405047e35019ce8f5eea1144c4d0f624c2190ae0ce8a2009e06bc947377022063b7a417cbc662e98492ccd3f63bf538c31c51a37d928c7eae07b54339f589df[ALL] 304402207ec10accd8404341efd58511f3a449b62cc29be7d6502cd8c39a32c78b41b184022032c63e060d9b1c62c059ab85d76cc8ab6ce0cf2891435f65085eb1d2cfb60cc7[ALL] 52210296a95ef32d7485e523d928352d06e5145c00e933bf5a5aec4e5cdc8230b5b0a12103dd06b0f67ee8589bebcd5b1948003107c973f403efede6127ed16fbcd44fff1d52ae"}, "vout": 1, "txid": "0390b4928c7a704f884acdd7afafdadcef0c540c63cf9c01609e6cb22787f3cd"}], "txid": "aae19286fba67f662dceea9d649e69f58481ae77122765d7bdf2d3523a2c4a01", "blocktime": 1537870564, "version": 1, "confirmations": 11515, "time": 1537870564, "locktime": 0, "vsize": 332, "size": 332}