{"hash": "aaeca909487cb1266e27add04fd9822965d70148e3e27da14f4c852fdd49cb44", "blockhash": "0000000000000000000baef3f32e3676a92c3b2e5da21b426e4f302fc371ce76", "vout": [{"scriptPubKey": {"reqSigs": 1, "hex": "76a914563ef0f07f1954affb4cd6df0fc33aedd817d17088ac", "addresses": ["18s2Wj98LdUUAxy1BrGscqKKQjeCZgwczw"], "asm": "OP_DUP OP_HASH160 563ef0f07f1954affb4cd6df0fc33aedd817d170 OP_EQUALVERIFY OP_CHECKSIG", "type": "pubkeyhash"}, "value": 0.00379896, "n": 0}, {"scriptPubKey": {"reqSigs": 1, "hex": "76a9146b03f63ebb2170a8bf34edf111fb201e8d88ffa988ac", "addresses": ["1Akr3oaiEGXdtQeVcg9t8p3vKo4M8RmBZo"], "asm": "OP_DUP OP_HASH160 6b03f63ebb2170a8bf34edf111fb201e8d88ffa9 OP_EQUALVERIFY OP_CHECKSIG", "type": "pubkeyhash"}, "value": 0.0125372, "n": 1}], "hex": "010000000204e0a12cd810fc57c5190d3c69317f034eb665623c57626754bd913969fbc33c010000006a47304402203b9439126ae66c727844598447b3854170482842dfa824dcbf7d1c420478678702206075705adf52640adcbdf5d527e7863eb5ef1310c70488ca1f2b978f05c85f15012103192ac93b0e1f0c8571408b8e4c0f90012c83c8433d05f5150fadc6aa3b42f164ffffffffc9167e13cd1e2121765a19fce57748c5a641b78cd98b01bc308ee99c0d99a0cb010000006a47304402201f2fa49901a6e3e700fb35585b06e2626cd52a522c953edc0f0669661f368af10220244f930c4bfe281542cbe89610521f7095064b51351a9aecf691b1af09f81ae70121023ce56f34fd235af8cd691a2aee3bca026285f17675d47148d5a3d0c5194b9c6bffffffff02f8cb0500000000001976a914563ef0f07f1954affb4cd6df0fc33aedd817d17088ac58211300000000001976a9146b03f63ebb2170a8bf34edf111fb201e8d88ffa988ac00000000", "vin": [{"sequence": 4294967295, "scriptSig": {"hex": "47304402203b9439126ae66c727844598447b3854170482842dfa824dcbf7d1c420478678702206075705adf52640adcbdf5d527e7863eb5ef1310c70488ca1f2b978f05c85f15012103192ac93b0e1f0c8571408b8e4c0f90012c83c8433d05f5150fadc6aa3b42f164", "asm": "304402203b9439126ae66c727844598447b3854170482842dfa824dcbf7d1c420478678702206075705adf52640adcbdf5d527e7863eb5ef1310c70488ca1f2b978f05c85f15[ALL] 03192ac93b0e1f0c8571408b8e4c0f90012c83c8433d05f5150fadc6aa3b42f164"}, "vout": 1, "txid": "3cc3fb693991bd546762573c6265b64e037f31693c0d19c557fc10d82ca1e004"}, {"sequence": 4294967295, "scriptSig": {"hex": "47304402201f2fa49901a6e3e700fb35585b06e2626cd52a522c953edc0f0669661f368af10220244f930c4bfe281542cbe89610521f7095064b51351a9aecf691b1af09f81ae70121023ce56f34fd235af8cd691a2aee3bca026285f17675d47148d5a3d0c5194b9c6b", "asm": "304402201f2fa49901a6e3e700fb35585b06e2626cd52a522c953edc0f0669661f368af10220244f930c4bfe281542cbe89610521f7095064b51351a9aecf691b1af09f81ae7[ALL] 023ce56f34fd235af8cd691a2aee3bca026285f17675d47148d5a3d0c5194b9c6b"}, "vout": 1, "txid": "cba0990d9ce98e30bc018bd98cb741a6c54877e5fc195a7621211ecd137e16c9"}], "txid": "aaeca909487cb1266e27add04fd9822965d70148e3e27da14f4c852fdd49cb44", "blocktime": 1537876114, "version": 1, "confirmations": 11460, "time": 1537876114, "locktime": 0, "vsize": 372, "size": 372}