{"hash": "c255f8cb1d6df100be9db275076d8c948d914c5e986dd9dd8f42ea40e6af5bf9", "blockhash": "0000000000000000001f76057863aec43deb6fa401d9628bb513d65a8098bfab", "vout": [{"scriptPubKey": {"reqSigs": 1, "hex": "a914bf5df6546b10c5a8b8f8f8cfb1fe6a48c542b89087", "addresses": ["3K8sYnxm5dUuw4zBpgEjfG4ReFbTFv8vwv"], "asm": "OP_HASH160 bf5df6546b10c5a8b8f8f8cfb1fe6a48c542b890 OP_EQUAL", "type": "scripthash"}, "value": 0.00154594, "n": 0}, {"scriptPubKey": {"reqSigs": 1, "hex": "a914f8b57a64b61407b1d56dcef3c6a95ab3c210ab1887", "addresses": ["3QN4uSJcujHa4CFGUzbAxVtQ3ANahcs7dB"], "asm": "OP_HASH160 f8b57a64b61407b1d56dcef3c6a95ab3c210ab18 OP_EQUAL", "type": "scripthash"}, "value": 0.0105925, "n": 1}], "hex": "010000000001014658d1770df2322ae27a614737b24a01a576d0315818299543f5e2aa7120e0960100000023220020cc0beed59eefd14969b15e3adfd6ed859e3fc5c106b7ed153189cbebc42dbdeeffffffff02e25b02000000000017a914bf5df6546b10c5a8b8f8f8cfb1fe6a48c542b89087b22910000000000017a914f8b57a64b61407b1d56dcef3c6a95ab3c210ab188704004730440220411eb787413ee353ff023c657dd22cc950be82a351fc8d1a818bc8bbc4ccd58702201ebbb0bfc1b9b291a43b395f9bc0c9ef138da71cfe5ba9b2671f04150b4cc5740147304402206ac83fe44c9f68b79e416f6ffec079fe94c8f161a353fa87300b256fa5c8af45022014a50c49f0074ed33e85fced1173d805c86604577b7e695877aa5aae6a9bc19a01475221025b4b7da84c94a8088f1279b8f0d1a98da3c70545697071ad69fc579a69714253210292d679353fa4a760eaad69284c09d063a1fd1a15ad8c70e83dbf86f7063f8c1852ae00000000", "vin": [{"txinwitness": ["", "30440220411eb787413ee353ff023c657dd22cc950be82a351fc8d1a818bc8bbc4ccd58702201ebbb0bfc1b9b291a43b395f9bc0c9ef138da71cfe5ba9b2671f04150b4cc57401", "304402206ac83fe44c9f68b79e416f6ffec079fe94c8f161a353fa87300b256fa5c8af45022014a50c49f0074ed33e85fced1173d805c86604577b7e695877aa5aae6a9bc19a01", "5221025b4b7da84c94a8088f1279b8f0d1a98da3c70545697071ad69fc579a69714253210292d679353fa4a760eaad69284c09d063a1fd1a15ad8c70e83dbf86f7063f8c1852ae"], "sequence": 4294967295, "scriptSig": {"hex": "220020cc0beed59eefd14969b15e3adfd6ed859e3fc5c106b7ed153189cbebc42dbdee", "asm": "0020cc0beed59eefd14969b15e3adfd6ed859e3fc5c106b7ed153189cbebc42dbdee"}, "vout": 1, "txid": "96e02071aae2f5439529185831d076a5014ab23747617ae22a32f20d77d15846"}], "txid": "aaf0a15229cfff25a7883721708a856ec938f7a4f95e4a9aa547c23ae5808641", "blocktime": 1537873891, "version": 1, "confirmations": 11475, "time": 1537873891, "locktime": 0, "vsize": 205, "size": 370}