{"hash": "aaf1eb5521dd621fd04c5449bf6cfa1d8e833dc4456b96ed10a170f66b4ca176", "blockhash": "0000000000000000001e0dab787dd257d1dbfcb92a98c2207d5e1078be1f4165", "vout": [{"scriptPubKey": {"reqSigs": 1, "hex": "76a914d3932bb39779afe496fcebc1ee8c5ac08afe332f88ac", "addresses": ["1LHht5RrXx8cGJ8AXzQs4AwpXr5xh7Q9Jk"], "asm": "OP_DUP OP_HASH160 d3932bb39779afe496fcebc1ee8c5ac08afe332f OP_EQUALVERIFY OP_CHECKSIG", "type": "pubkeyhash"}, "value": 0.00115884, "n": 0}, {"scriptPubKey": {"type": "nulldata", "hex": "6a4c50000077b80001d8782b4521fa6c105ee2d4e1e5bf9ae76da98a211aaf6c953dd567cf27e7687699f44b3929a18b4d3e54c8cd77e05baa11ea061244bbaf03be30bc9a9526289ac0f6612cd74e33776ee4", "asm": "OP_RETURN 000077b80001d8782b4521fa6c105ee2d4e1e5bf9ae76da98a211aaf6c953dd567cf27e7687699f44b3929a18b4d3e54c8cd77e05baa11ea061244bbaf03be30bc9a9526289ac0f6612cd74e33776ee4"}, "value": 0.0, "n": 1}], "hex": "0100000001e551b9e079d5b791885e7a159c749617d84fc31f1b6dbe9553b1433afa189a46010000006b4830450221008b3832d833206c074efc108098c30edc6a2e64b1119c8f7945834567733daef50220116ffb1a34c390493da516617812e4a004ea4c6c46666a5c4144ab2502699b9e012102b1347863520a3e02853698da563f6c838ad1276e957d39c2b5ab91fcf22d8282ffffffff02acc40100000000001976a914d3932bb39779afe496fcebc1ee8c5ac08afe332f88ac0000000000000000536a4c50000077b80001d8782b4521fa6c105ee2d4e1e5bf9ae76da98a211aaf6c953dd567cf27e7687699f44b3929a18b4d3e54c8cd77e05baa11ea061244bbaf03be30bc9a9526289ac0f6612cd74e33776ee400000000", "vin": [{"sequence": 4294967295, "scriptSig": {"hex": "4830450221008b3832d833206c074efc108098c30edc6a2e64b1119c8f7945834567733daef50220116ffb1a34c390493da516617812e4a004ea4c6c46666a5c4144ab2502699b9e012102b1347863520a3e02853698da563f6c838ad1276e957d39c2b5ab91fcf22d8282", "asm": "30450221008b3832d833206c074efc108098c30edc6a2e64b1119c8f7945834567733daef50220116ffb1a34c390493da516617812e4a004ea4c6c46666a5c4144ab2502699b9e[ALL] 02b1347863520a3e02853698da563f6c838ad1276e957d39c2b5ab91fcf22d8282"}, "vout": 1, "txid": "469a18fa3a43b15395be6d1b1fc34fd81796749c157a5e8891b7d579e0b951e5"}], "txid": "aaf1eb5521dd621fd04c5449bf6cfa1d8e833dc4456b96ed10a170f66b4ca176", "blocktime": 1537872475, "version": 1, "confirmations": 11486, "time": 1537872475, "locktime": 0, "vsize": 284, "size": 284}