{"hash": "95b29c6716ab70afb1242bd5f27d17d28e3a5fc923baba6b4c481cc9033346f2", "blockhash": "000000000000000000022b45ed06c6f4ccd3cf7fb5ba4856ebd2e58215665228", "vout": [{"scriptPubKey": {"reqSigs": 1, "hex": "76a9140e6f436d0af90335ad0ed7c6db19293d4afd7a0288ac", "addresses": ["12KKkQFtgMzBFNyCCyD1jypi274EDBcqSV"], "asm": "OP_DUP OP_HASH160 0e6f436d0af90335ad0ed7c6db19293d4afd7a02 OP_EQUALVERIFY OP_CHECKSIG", "type": "pubkeyhash"}, "value": 30.0, "n": 0}, {"scriptPubKey": {"reqSigs": 1, "hex": "a9141112e28c9932af742e4867d6418cf27420c3e1ee87", "addresses": ["33FJ2xL2CSih1cyjXVGak38er1MfQMUWNu"], "asm": "OP_HASH160 1112e28c9932af742e4867d6418cf27420c3e1ee OP_EQUAL", "type": "scripthash"}, "value": 2.96131347, "n": 1}], "hex": "0100000000010171e38273de608f73d2e1f610682e306fad0f6c75fc68a63883aa6ca623855c280000000017160014996734ccb1747272edc3a1fa29a3e7570ab8a56dffffff0002005ed0b2000000001976a9140e6f436d0af90335ad0ed7c6db19293d4afd7a0288ac139ba6110000000017a9141112e28c9932af742e4867d6418cf27420c3e1ee8702483045022100ffa32604cf1ca14282d1dede96c72471154d3a87f6595b4d7c28a4f217a1e0140220760e5adf3e27d3deb8d7c6cafdcc400392af8aac7ef290ce3a19314ed90fa7ea01210284b0fb48e734ca0a288628ef8f79e7f1fc3d83770a23a4b80aef49846100edb500000000", "vin": [{"txinwitness": ["3045022100ffa32604cf1ca14282d1dede96c72471154d3a87f6595b4d7c28a4f217a1e0140220760e5adf3e27d3deb8d7c6cafdcc400392af8aac7ef290ce3a19314ed90fa7ea01", "0284b0fb48e734ca0a288628ef8f79e7f1fc3d83770a23a4b80aef49846100edb5"], "sequence": 16777215, "scriptSig": {"hex": "160014996734ccb1747272edc3a1fa29a3e7570ab8a56d", "asm": "0014996734ccb1747272edc3a1fa29a3e7570ab8a56d"}, "vout": 0, "txid": "285c8523a66caa8338a668fc756c0fad6f302e6810f6e1d2738f60de7382e371"}], "txid": "aaf6ba1d2d69b842f54e85d0e60fa24eaa2a170aee2782e319f86ccab7a92d5f", "blocktime": 1537869901, "version": 1, "confirmations": 11522, "time": 1537869901, "locktime": 0, "vsize": 168, "size": 250}