{"hash": "aaf86f41f7b18feb8d2555a0bd985b26ef5baf7fee06ac0afbd64d0eafb458cb", "blockhash": "0000000000000000001cda96e906b7601b7a6fb1a3b62bca570a9e5d8f4b3de1", "vout": [{"scriptPubKey": {"reqSigs": 1, "hex": "76a9148a1fd43b6462f02fdd2049e63593ca395e4ccc4088ac", "addresses": ["1DbLNzZdpvZ9L54uUTovav9x2cTix913Q1"], "asm": "OP_DUP OP_HASH160 8a1fd43b6462f02fdd2049e63593ca395e4ccc40 OP_EQUALVERIFY OP_CHECKSIG", "type": "pubkeyhash"}, "value": 1.01e-05, "n": 0}, {"scriptPubKey": {"reqSigs": 1, "hex": "76a9148a7a70ec1bcc1adefe324e6dfaf7a5b1dc651a0688ac", "addresses": ["1DdCvq7e3TwftGS7v5rPRHjRTMAmySRz1C"], "asm": "OP_DUP OP_HASH160 8a7a70ec1bcc1adefe324e6dfaf7a5b1dc651a06 OP_EQUALVERIFY OP_CHECKSIG", "type": "pubkeyhash"}, "value": 0.29402385, "n": 1}], "hex": "0100000001ba7d798ebd65ba0a29f7abd17b0e657c832fda1bec5ea1a3ad6b06086411675c010000006a473044022036a8884c76bdc402602a75a7f1f31307a853ff02913289f36eeb6f27f09e34bf022052c0364edb71e5ba5e41bc039356de106c367f83ad1cfad0ab7fdd95548fc8d201210222e52cb60ef021bc99053248a43feed7e1b76143ce977b263c8b69aba4e1b76fffffffff02f2030000000000001976a9148a1fd43b6462f02fdd2049e63593ca395e4ccc4088ac11a5c001000000001976a9148a7a70ec1bcc1adefe324e6dfaf7a5b1dc651a0688ac00000000", "vin": [{"sequence": 4294967295, "scriptSig": {"hex": "473044022036a8884c76bdc402602a75a7f1f31307a853ff02913289f36eeb6f27f09e34bf022052c0364edb71e5ba5e41bc039356de106c367f83ad1cfad0ab7fdd95548fc8d201210222e52cb60ef021bc99053248a43feed7e1b76143ce977b263c8b69aba4e1b76f", "asm": "3044022036a8884c76bdc402602a75a7f1f31307a853ff02913289f36eeb6f27f09e34bf022052c0364edb71e5ba5e41bc039356de106c367f83ad1cfad0ab7fdd95548fc8d2[ALL] 0222e52cb60ef021bc99053248a43feed7e1b76143ce977b263c8b69aba4e1b76f"}, "vout": 1, "txid": "5c67116408066bada3a15eec1bda2f837c650e7bd1abf7290aba65bd8e797dba"}], "txid": "aaf86f41f7b18feb8d2555a0bd985b26ef5baf7fee06ac0afbd64d0eafb458cb", "blocktime": 1537873282, "version": 1, "confirmations": 11484, "time": 1537873282, "locktime": 0, "vsize": 225, "size": 225}