{"hash": "aaf90dd188e9f19722e996c4275c043d5949e7a34defe35013452e61edf92572", "blockhash": "00000000000000000004ffacab907a6b429b9a5745fa0b75af4234bf69dd7176", "vout": [{"scriptPubKey": {"reqSigs": 1, "hex": "76a914e94a0dcc415f7950594a241ff28127dccd66529188ac", "addresses": ["1NGXA3zKKJTCq8XfepSVDtrvirwhuoHqa6"], "asm": "OP_DUP OP_HASH160 e94a0dcc415f7950594a241ff28127dccd665291 OP_EQUALVERIFY OP_CHECKSIG", "type": "pubkeyhash"}, "value": 0.00460149, "n": 0}, {"scriptPubKey": {"reqSigs": 1, "hex": "76a9148bd7782d754a6318d97a72a48e5ae1640ba8b49a88ac", "addresses": ["1DkR3k9FiUriYbgEDrsnopx2ikfDs7SndX"], "asm": "OP_DUP OP_HASH160 8bd7782d754a6318d97a72a48e5ae1640ba8b49a OP_EQUALVERIFY OP_CHECKSIG", "type": "pubkeyhash"}, "value": 0.0323713, "n": 1}], "hex": "0100000001b4e557bec06c4e517f7c543c379ac97daf5a2f263cc8f3c35ce20092bd0c78e2010000006a473044022059fbf0b605aa1951379e05b7818c60ef97a1300ecdda19ee57e55a24a17b28d6022051ed9827b4fe7fa17437212b292532d63c4ce7c049ca48b0e524c89e479723d401210208d0d62c26f4c8dada0551fd99916595318f2d0394cdab6c56b5f731d0b49657ffffffff0275050700000000001976a914e94a0dcc415f7950594a241ff28127dccd66529188ac0a653100000000001976a9148bd7782d754a6318d97a72a48e5ae1640ba8b49a88ac00000000", "vin": [{"sequence": 4294967295, "scriptSig": {"hex": "473044022059fbf0b605aa1951379e05b7818c60ef97a1300ecdda19ee57e55a24a17b28d6022051ed9827b4fe7fa17437212b292532d63c4ce7c049ca48b0e524c89e479723d401210208d0d62c26f4c8dada0551fd99916595318f2d0394cdab6c56b5f731d0b49657", "asm": "3044022059fbf0b605aa1951379e05b7818c60ef97a1300ecdda19ee57e55a24a17b28d6022051ed9827b4fe7fa17437212b292532d63c4ce7c049ca48b0e524c89e479723d4[ALL] 0208d0d62c26f4c8dada0551fd99916595318f2d0394cdab6c56b5f731d0b49657"}, "vout": 1, "txid": "e2780cbd9200e25cc3f3c83c262f5aaf7dc99a373c547c7f514e6cc0be57e5b4"}], "txid": "aaf90dd188e9f19722e996c4275c043d5949e7a34defe35013452e61edf92572", "blocktime": 1537875543, "version": 1, "confirmations": 11464, "time": 1537875543, "locktime": 0, "vsize": 225, "size": 225}