{"hash": "e965eeecff4fe2806047ebcf2d9a800af559f8fad65725d83c78986287495bc8", "blockhash": "0000000000000000001f76057863aec43deb6fa401d9628bb513d65a8098bfab", "vout": [{"scriptPubKey": {"reqSigs": 1, "hex": "76a91448e7177d967105cd2cda2afd6a4cbf3678787fe288ac", "addresses": ["17eUVMEG8XC3f1X6n9nUjEvdq4QjHdBq1m"], "asm": "OP_DUP OP_HASH160 48e7177d967105cd2cda2afd6a4cbf3678787fe2 OP_EQUALVERIFY OP_CHECKSIG", "type": "pubkeyhash"}, "value": 0.001015, "n": 0}, {"scriptPubKey": {"reqSigs": 1, "hex": "a914bfe3b9b006bd60d821de4768216fbcf3cb0629a487", "addresses": ["3KBdnpNRSUC6xH7oL58GWg3f1QzPQs9FWq"], "asm": "OP_HASH160 bfe3b9b006bd60d821de4768216fbcf3cb0629a4 OP_EQUAL", "type": "scripthash"}, "value": 0.00928406, "n": 1}], "hex": "010000000001010f7bc8aa34ce693503bd213a0073d79e224b539f0b8753e47c555d3331f66d7701000000232200204ac72bc93353695ed44de9eabe5eab31fde46c3e5524f6f6c253b37df4627817ffffffff027c8c0100000000001976a91448e7177d967105cd2cda2afd6a4cbf3678787fe288ac962a0e000000000017a914bfe3b9b006bd60d821de4768216fbcf3cb0629a4870400483045022100b53fd4e3120a0ae7bc196d15249473bf2bfaa5efa5d73637aa69fccf0a9992e5022027b52c688fcf9ab1bc4e67598c094f604be64219ad4ac6b7c4e6a5ecf31d5d0101483045022100d4abe4fb644394c42299c629ba2866e9d72f09ef0fd98878deb4a17cfc28602b0220426ebbc51147a99af22e7ae34ded01725bac4ef07235b85dce482a8740977441014752210383dd989bbcdccf0b79b07f5bbd82921af5ac4762329b0aa9346994805e5cd8fc2103871fc2ca08e6950b38867e8e6a0e94ee625223d3aa0df5c65f414c6d784467e252ae00000000", "vin": [{"txinwitness": ["", "3045022100b53fd4e3120a0ae7bc196d15249473bf2bfaa5efa5d73637aa69fccf0a9992e5022027b52c688fcf9ab1bc4e67598c094f604be64219ad4ac6b7c4e6a5ecf31d5d0101", "3045022100d4abe4fb644394c42299c629ba2866e9d72f09ef0fd98878deb4a17cfc28602b0220426ebbc51147a99af22e7ae34ded01725bac4ef07235b85dce482a874097744101", "52210383dd989bbcdccf0b79b07f5bbd82921af5ac4762329b0aa9346994805e5cd8fc2103871fc2ca08e6950b38867e8e6a0e94ee625223d3aa0df5c65f414c6d784467e252ae"], "sequence": 4294967295, "scriptSig": {"hex": "2200204ac72bc93353695ed44de9eabe5eab31fde46c3e5524f6f6c253b37df4627817", "asm": "00204ac72bc93353695ed44de9eabe5eab31fde46c3e5524f6f6c253b37df4627817"}, "vout": 1, "txid": "776df631335d557ce453870b9f534b229ed773003a21bd033569ce34aac87b0f"}], "txid": "aafdfac73f1549ecfab351ed737a84e19b9874207f1a5bf04d78d9534e7200a6", "blocktime": 1537873891, "version": 1, "confirmations": 11478, "time": 1537873891, "locktime": 0, "vsize": 208, "size": 374}