{"hash": "aafeb80a9537507943de1e34037488cb6547bebfcf4565dd70510f466ee55b07", "blockhash": "0000000000000000001e0dab787dd257d1dbfcb92a98c2207d5e1078be1f4165", "vout": [{"scriptPubKey": {"reqSigs": 1, "hex": "76a9141cdfb56b28bff341a3d17f2459bb41a97763145688ac", "addresses": ["13dfuvUEP1ssVVdPeXvTTSEeGWGyHyLBMr"], "asm": "OP_DUP OP_HASH160 1cdfb56b28bff341a3d17f2459bb41a977631456 OP_EQUALVERIFY OP_CHECKSIG", "type": "pubkeyhash"}, "value": 4.358e-05, "n": 0}, {"scriptPubKey": {"reqSigs": 1, "hex": "76a914226f83ec0c148dbc60353b586a1ea62e74ac098388ac", "addresses": ["1495Zk4ugVemKGkxxtnZJB5nvuBVd1uz2g"], "asm": "OP_DUP OP_HASH160 226f83ec0c148dbc60353b586a1ea62e74ac0983 OP_EQUALVERIFY OP_CHECKSIG", "type": "pubkeyhash"}, "value": 1.0, "n": 1}], "hex": "010000000248e847fdda82baaa12a5ea68e8de0e9d6522bc69876fe7bf0252fa319923d63b000000006a47304402202de278f91a2d6b11a6951ed01cdaf61545f38c00f44742bf63347d411ce5ec66022073a2836d313e96c4eecd2c361abbb46608d32a8a50976f6b118349e352733e31012102bea0d7c6af8a52243b43fedcf1be9af0c81de07a705fbdb477adc38a12d10281ffffffffa582d282316cf86820e9a9a1479be6ec21db32ced37a0ae2a8417168630a2b6e010000006b483045022100f79367140b05c8d1d1f305edaad6e0b985a7714df45999c45a03db3fde09530102204f53f0890af218443ac209aba4528ba489baf0dda219ef41c7abe5bdd67efc7b012102a992455c9ff86f10d6faae2bb29c4548913e90bb239a083b06172ac2a0d66efaffffffff0206110000000000001976a9141cdfb56b28bff341a3d17f2459bb41a97763145688ac00e1f505000000001976a914226f83ec0c148dbc60353b586a1ea62e74ac098388ac00000000", "vin": [{"sequence": 4294967295, "scriptSig": {"hex": "47304402202de278f91a2d6b11a6951ed01cdaf61545f38c00f44742bf63347d411ce5ec66022073a2836d313e96c4eecd2c361abbb46608d32a8a50976f6b118349e352733e31012102bea0d7c6af8a52243b43fedcf1be9af0c81de07a705fbdb477adc38a12d10281", "asm": "304402202de278f91a2d6b11a6951ed01cdaf61545f38c00f44742bf63347d411ce5ec66022073a2836d313e96c4eecd2c361abbb46608d32a8a50976f6b118349e352733e31[ALL] 02bea0d7c6af8a52243b43fedcf1be9af0c81de07a705fbdb477adc38a12d10281"}, "vout": 0, "txid": "3bd6239931fa5202bfe76f8769bc22659d0edee868eaa512aaba82dafd47e848"}, {"sequence": 4294967295, "scriptSig": {"hex": "483045022100f79367140b05c8d1d1f305edaad6e0b985a7714df45999c45a03db3fde09530102204f53f0890af218443ac209aba4528ba489baf0dda219ef41c7abe5bdd67efc7b012102a992455c9ff86f10d6faae2bb29c4548913e90bb239a083b06172ac2a0d66efa", "asm": "3045022100f79367140b05c8d1d1f305edaad6e0b985a7714df45999c45a03db3fde09530102204f53f0890af218443ac209aba4528ba489baf0dda219ef41c7abe5bdd67efc7b[ALL] 02a992455c9ff86f10d6faae2bb29c4548913e90bb239a083b06172ac2a0d66efa"}, "vout": 1, "txid": "6e2b0a63687141a8e20a7ad3ce32db21ece69b47a1a9e92068f86c3182d282a5"}], "txid": "aafeb80a9537507943de1e34037488cb6547bebfcf4565dd70510f466ee55b07", "blocktime": 1537872475, "version": 1, "confirmations": 11487, "time": 1537872475, "locktime": 0, "vsize": 373, "size": 373}