{"hash": "fe588b840e4e4286cf3f50f9aec43ee17b13f28beefcc038d71430bcdf9bd25b", "blockhash": "0000000000000000001cda96e906b7601b7a6fb1a3b62bca570a9e5d8f4b3de1", "vout": [{"scriptPubKey": {"reqSigs": 1, "hex": "a9142cab7546e9c5b8ae3efb79dae60328e1b356b25e87", "addresses": ["35mD46vFxeBL8TJXVEUizVXkbdSo1XuSTC"], "asm": "OP_HASH160 2cab7546e9c5b8ae3efb79dae60328e1b356b25e OP_EQUAL", "type": "scripthash"}, "value": 0.00025603, "n": 0}, {"scriptPubKey": {"reqSigs": 1, "hex": "a91450678668ab99a763ab4d0f2dd2025c66f917770387", "addresses": ["3929zwDwM77Nd1rs1VVrEBNdgFWnLswMsG"], "asm": "OP_HASH160 50678668ab99a763ab4d0f2dd2025c66f9177703 OP_EQUAL", "type": "scripthash"}, "value": 0.02338916, "n": 1}], "hex": "010000000001015c94abd9e06c22800cf8e3b377ed26740fc8f0c380adf01b769f68da0bfd425c01000000232200201d26fb121924b578ce3226a7a6d4709ed28a2df80f20e28460a64397ad22186dffffffff02036400000000000017a9142cab7546e9c5b8ae3efb79dae60328e1b356b25e8764b023000000000017a91450678668ab99a763ab4d0f2dd2025c66f91777038704004830450221008d36a7c0730784ba8df5d2cffab80f0724e7a772c1b89c5b009333727ec71ad7022060a900ff909d15dae84dd1089c6951cd8fc68ea4ecbff5deb42d7d1fede6a19b0147304402200397090cbc668c88d266b35f562f9283bccb052d726fef7c3d929341e7baeca202206f1203ed89440b54c7edad25be1640f2022f52d0b5c12ff02712749776656ac0014752210203bec87cf8cdf8862c1604693fdf36c549ae2120d921513ba1685f581492a66e21030580d373ab00643a581abb399b43fa66d7b6fc29624eb75b2d5ec8d99faa163f52ae00000000", "vin": [{"txinwitness": ["", "30450221008d36a7c0730784ba8df5d2cffab80f0724e7a772c1b89c5b009333727ec71ad7022060a900ff909d15dae84dd1089c6951cd8fc68ea4ecbff5deb42d7d1fede6a19b01", "304402200397090cbc668c88d266b35f562f9283bccb052d726fef7c3d929341e7baeca202206f1203ed89440b54c7edad25be1640f2022f52d0b5c12ff02712749776656ac001", "52210203bec87cf8cdf8862c1604693fdf36c549ae2120d921513ba1685f581492a66e21030580d373ab00643a581abb399b43fa66d7b6fc29624eb75b2d5ec8d99faa163f52ae"], "sequence": 4294967295, "scriptSig": {"hex": "2200201d26fb121924b578ce3226a7a6d4709ed28a2df80f20e28460a64397ad22186d", "asm": "00201d26fb121924b578ce3226a7a6d4709ed28a2df80f20e28460a64397ad22186d"}, "vout": 1, "txid": "5c42fd0bda689f761bf0ad80c3f0c80f7426ed77b3e3f80c80226ce0d9ab945c"}], "txid": "ab003053299c00004e35faaabbfbe7dbe7564b2093192041ec3da610927f2de0", "blocktime": 1537873282, "version": 1, "confirmations": 11485, "time": 1537873282, "locktime": 0, "vsize": 206, "size": 371}