{"hash": "1bb30d953242e5945a4a7c962c32c5b55b7917e18b26088ce95a5eb04eed9de2", "blockhash": "00000000000000000024a2167bbff67b0be802c0b01cdd79e6331c2be6459f87", "vout": [{"scriptPubKey": {"reqSigs": 1, "hex": "76a914100d2c48608ca203247694f08a37755749907b9e88ac", "addresses": ["12TsbLx1uF81fe4fMaFUGUc8gsB4QGVyoQ"], "asm": "OP_DUP OP_HASH160 100d2c48608ca203247694f08a37755749907b9e OP_EQUALVERIFY OP_CHECKSIG", "type": "pubkeyhash"}, "value": 0.0297, "n": 0}, {"scriptPubKey": {"reqSigs": 1, "hex": "a9140155874553c527f049c0ae3d5a778b0e04e347bb87", "addresses": ["31p54MS7MSBGATPf7L9k6okpqGURCLuP5X"], "asm": "OP_HASH160 0155874553c527f049c0ae3d5a778b0e04e347bb OP_EQUAL", "type": "scripthash"}, "value": 0.31148761, "n": 1}], "hex": "0100000000010153316f3967f6a114d0dc54dff2b0e2fc79a3d4c80e783a83c5975ec7a7fff35b0100000023220020ead9813ef71a14a1fc550cfb5c5dd853d1e6bbccfde25f8f3c1124c6b47fda22ffffffff0290512d00000000001976a914100d2c48608ca203247694f08a37755749907b9e88acd94adb010000000017a9140155874553c527f049c0ae3d5a778b0e04e347bb8704004730440220758c4d619d71f4d4e09b7add95c464ebd0ac5aad264213f6aaebb9e0f131dc15022066df989c2fc7f1a65915d2aaabcadeff68c5095c417a4112ce24df8307fa2206014730440220407528ea057e342dfb0560d6268b1c05206d15c01812e392834464961f657b09022033d3cbef6dfcc1dd6c94ec14cd711c414ed39ffbde46bf2403c0de3261084b7c0147522103baf82ab85653fe1a4c26c826d6e71ff0f794cef0ba8d4b9c350b7cd8a099295c210374d34c43195a03910cd16cba2c089b5a40de35ab5857ec656bdacade80fb67c052ae00000000", "vin": [{"txinwitness": ["", "30440220758c4d619d71f4d4e09b7add95c464ebd0ac5aad264213f6aaebb9e0f131dc15022066df989c2fc7f1a65915d2aaabcadeff68c5095c417a4112ce24df8307fa220601", "30440220407528ea057e342dfb0560d6268b1c05206d15c01812e392834464961f657b09022033d3cbef6dfcc1dd6c94ec14cd711c414ed39ffbde46bf2403c0de3261084b7c01", "522103baf82ab85653fe1a4c26c826d6e71ff0f794cef0ba8d4b9c350b7cd8a099295c210374d34c43195a03910cd16cba2c089b5a40de35ab5857ec656bdacade80fb67c052ae"], "sequence": 4294967295, "scriptSig": {"hex": "220020ead9813ef71a14a1fc550cfb5c5dd853d1e6bbccfde25f8f3c1124c6b47fda22", "asm": "0020ead9813ef71a14a1fc550cfb5c5dd853d1e6bbccfde25f8f3c1124c6b47fda22"}, "vout": 1, "txid": "5bf3ffa7c75e97c5833a780ec8d4a379fce2b0f2df54dcd014a1f667396f3153"}], "txid": "ab015cf1b7483f95996be6707018a8cbedd28c215ef4efdf9d3945b2e7bcea1d", "blocktime": 1537870564, "version": 1, "confirmations": 11515, "time": 1537870564, "locktime": 0, "vsize": 207, "size": 372}