{"hash": "ab0220fef8aebaef7db175e04f38769fe7df310e5a681a4dbe4465ba3e50d8b7", "blockhash": "0000000000000000000e13cef7c366c0283d82e591d1acd082e914b08063cdf1", "vout": [{"scriptPubKey": {"reqSigs": 1, "hex": "76a914c5b5610240fa5ae6046ca19f596f54d136a8ebad88ac", "addresses": ["1K2PQDnApWCSSBv47axXUyz4jZxLor3Z72"], "asm": "OP_DUP OP_HASH160 c5b5610240fa5ae6046ca19f596f54d136a8ebad OP_EQUALVERIFY OP_CHECKSIG", "type": "pubkeyhash"}, "value": 0.00234333, "n": 0}, {"scriptPubKey": {"reqSigs": 1, "hex": "76a9142e86da831265bd6a9af7c347e8c69e65fbf9e17988ac", "addresses": ["15F1dccSs2sY7nHjrFiAueVuzqJwwpc7vr"], "asm": "OP_DUP OP_HASH160 2e86da831265bd6a9af7c347e8c69e65fbf9e179 OP_EQUALVERIFY OP_CHECKSIG", "type": "pubkeyhash"}, "value": 0.05920311, "n": 1}], "hex": "0100000001a831ae7c95bae6df5b9dd5fe717f3c9e4c1f8f63f902b445432af00f48369051010000006a47304402205b753272bd103d91c5bb96622b801a5c39f7e320339a5132fba53a7bf04de6e90220053c942d7052944d7ecad08d029b66726facac651737af2bf006fbf77a6d8db901210379ab3cf1de21b02d6202fb411196435cbab3b8de71215570f343d3685fd4ca54ffffffff025d930300000000001976a914c5b5610240fa5ae6046ca19f596f54d136a8ebad88ac37565a00000000001976a9142e86da831265bd6a9af7c347e8c69e65fbf9e17988ac00000000", "vin": [{"sequence": 4294967295, "scriptSig": {"hex": "47304402205b753272bd103d91c5bb96622b801a5c39f7e320339a5132fba53a7bf04de6e90220053c942d7052944d7ecad08d029b66726facac651737af2bf006fbf77a6d8db901210379ab3cf1de21b02d6202fb411196435cbab3b8de71215570f343d3685fd4ca54", "asm": "304402205b753272bd103d91c5bb96622b801a5c39f7e320339a5132fba53a7bf04de6e90220053c942d7052944d7ecad08d029b66726facac651737af2bf006fbf77a6d8db9[ALL] 0379ab3cf1de21b02d6202fb411196435cbab3b8de71215570f343d3685fd4ca54"}, "vout": 1, "txid": "519036480ff02a4345b402f9638f1f4c9e3c7f71fed59d5bdfe6ba957cae31a8"}], "txid": "ab0220fef8aebaef7db175e04f38769fe7df310e5a681a4dbe4465ba3e50d8b7", "blocktime": 1537871767, "version": 1, "confirmations": 11495, "time": 1537871767, "locktime": 0, "vsize": 225, "size": 225}