{"hash": "3acf2692332f00c44321c515f4423eb9a5c00a4cdc5f0a88754e7aebfd7b3ca4", "blockhash": "0000000000000000000e13cef7c366c0283d82e591d1acd082e914b08063cdf1", "vout": [{"scriptPubKey": {"reqSigs": 1, "hex": "a914c46b39645d4b11c5fae7b47a702c4eee4b4abcec87", "addresses": ["3KbapD7dkdjxFUiP7AU2mv9TeA6XHu7KmH"], "asm": "OP_HASH160 c46b39645d4b11c5fae7b47a702c4eee4b4abcec OP_EQUAL", "type": "scripthash"}, "value": 1.17996632, "n": 0}, {"scriptPubKey": {"reqSigs": 1, "hex": "76a914b73574e5808e1fd6322c6abb7573fe2b3f14e2be88ac", "addresses": ["1HhihLX4ArPfBKByWHb85VU3Grz73vBuN3"], "asm": "OP_DUP OP_HASH160 b73574e5808e1fd6322c6abb7573fe2b3f14e2be OP_EQUALVERIFY OP_CHECKSIG", "type": "pubkeyhash"}, "value": 1.5, "n": 1}], "hex": "01000000000101580858033cf4699b58a6fa510d4b0779bd26b2e85b90aef29b42ba3bd5dfbee20000000017160014c8b6915f16ed2f838b5c16c895d9cf9ff7dcc323ffffffff02587c08070000000017a914c46b39645d4b11c5fae7b47a702c4eee4b4abcec8780d1f008000000001976a914b73574e5808e1fd6322c6abb7573fe2b3f14e2be88ac024730440220605e321e33f004b460a4709731673f203989aee8b377c21bfa497cbaa7e36ad8022031347ebc4fc3fa13e87fcf17334f0b68956d042f8eb57b825a918a5941e853160121022cf7ecaa8d3d31413c908d8e867c80f7f302867b7be82e7c0c1f5a1b61a6abb500000000", "vin": [{"txinwitness": ["30440220605e321e33f004b460a4709731673f203989aee8b377c21bfa497cbaa7e36ad8022031347ebc4fc3fa13e87fcf17334f0b68956d042f8eb57b825a918a5941e8531601", "022cf7ecaa8d3d31413c908d8e867c80f7f302867b7be82e7c0c1f5a1b61a6abb5"], "sequence": 4294967295, "scriptSig": {"hex": "160014c8b6915f16ed2f838b5c16c895d9cf9ff7dcc323", "asm": "0014c8b6915f16ed2f838b5c16c895d9cf9ff7dcc323"}, "vout": 0, "txid": "e2bedfd53bba429bf2ae905be8b226bd79074b0d51faa6589b69f43c03580858"}], "txid": "ab020fa9d6c3eba644a82d9138b9f541e59af29a55a2c222fa6f4dd03c53f1f4", "blocktime": 1537871767, "version": 1, "confirmations": 11495, "time": 1537871767, "locktime": 0, "vsize": 168, "size": 249}