{"hash": "ab099fbbf4656f0ebbba77b04fd78ca2e0dc1201dd07d03244d21dfdc19f8b54", "blockhash": "0000000000000000001e0dab787dd257d1dbfcb92a98c2207d5e1078be1f4165", "vout": [{"scriptPubKey": {"type": "nulldata", "hex": "6a4c50000077b20001f55f2e9e7c2ba6271454cacfe5bf9ae76da98a211aaf6c953dd567cf27e7ae78e6ba28441bb45139250762d42b305baa11980611849f237ea4401d100759d4ba30d2c37bb011d97e02cf", "asm": "OP_RETURN 000077b20001f55f2e9e7c2ba6271454cacfe5bf9ae76da98a211aaf6c953dd567cf27e7ae78e6ba28441bb45139250762d42b305baa11980611849f237ea4401d100759d4ba30d2c37bb011d97e02cf"}, "value": 0.0, "n": 0}, {"scriptPubKey": {"reqSigs": 1, "hex": "76a914ae45a00a4ca3f5df17c85693c8efb212a137b9bb88ac", "addresses": ["1GtTz27fPvUjcsXA4kbGr1juZTpw1TURVS"], "asm": "OP_DUP OP_HASH160 ae45a00a4ca3f5df17c85693c8efb212a137b9bb OP_EQUALVERIFY OP_CHECKSIG", "type": "pubkeyhash"}, "value": 0.00641106, "n": 1}], "hex": "0100000001ad2659e21b861127f664fa8d36604281ad899509f3be785e0bd95a222a5e1087000000006a473044022021234d8d70b29455d91bd0ecf52afc81a84cfc1aca227144052456611a0ba07402203ce08ac24a6fbef8d861c228c1eb3daaa6e4e7f29d47dcdc74b18249657b816f012102c31234d1a1d43e509bc492de53a35c50798767edb8cfd25867cfa477edf5c8f5ffffffff020000000000000000536a4c50000077b20001f55f2e9e7c2ba6271454cacfe5bf9ae76da98a211aaf6c953dd567cf27e7ae78e6ba28441bb45139250762d42b305baa11980611849f237ea4401d100759d4ba30d2c37bb011d97e02cf52c80900000000001976a914ae45a00a4ca3f5df17c85693c8efb212a137b9bb88ac00000000", "vin": [{"sequence": 4294967295, "scriptSig": {"hex": "473044022021234d8d70b29455d91bd0ecf52afc81a84cfc1aca227144052456611a0ba07402203ce08ac24a6fbef8d861c228c1eb3daaa6e4e7f29d47dcdc74b18249657b816f012102c31234d1a1d43e509bc492de53a35c50798767edb8cfd25867cfa477edf5c8f5", "asm": "3044022021234d8d70b29455d91bd0ecf52afc81a84cfc1aca227144052456611a0ba07402203ce08ac24a6fbef8d861c228c1eb3daaa6e4e7f29d47dcdc74b18249657b816f[ALL] 02c31234d1a1d43e509bc492de53a35c50798767edb8cfd25867cfa477edf5c8f5"}, "vout": 0, "txid": "87105e2a225ad90b5e78bef3099589ad814260368dfa64f62711861be25926ad"}], "txid": "ab099fbbf4656f0ebbba77b04fd78ca2e0dc1201dd07d03244d21dfdc19f8b54", "blocktime": 1537872475, "version": 1, "confirmations": 11486, "time": 1537872475, "locktime": 0, "vsize": 283, "size": 283}