{"hash": "ab0d4c6b7dfda6f1ddc6a0d6afb0d4c0cbec3142cedfe393b04617a4ca387bd8", "blockhash": "000000000000000000022b45ed06c6f4ccd3cf7fb5ba4856ebd2e58215665228", "vout": [{"scriptPubKey": {"reqSigs": 1, "hex": "76a9144eba6a56d36cf1a71c280861f8bfbf3acb3ce1c588ac", "addresses": ["18BH2LCLcG1EDy9z2maAau4w7CS9QeX3oV"], "asm": "OP_DUP OP_HASH160 4eba6a56d36cf1a71c280861f8bfbf3acb3ce1c5 OP_EQUALVERIFY OP_CHECKSIG", "type": "pubkeyhash"}, "value": 0.00156034, "n": 0}, {"scriptPubKey": {"reqSigs": 1, "hex": "76a9140cc087ee4ca00d90c64a71d6c394b765de94f92388ac", "addresses": ["12ARkbAHs38gxoAGTNsNstXJRX5S4szqQh"], "asm": "OP_DUP OP_HASH160 0cc087ee4ca00d90c64a71d6c394b765de94f923 OP_EQUALVERIFY OP_CHECKSIG", "type": "pubkeyhash"}, "value": 0.06201932, "n": 1}], "hex": "0100000001c3199a7043a59b9ecf8f54c98ba40617af2c600c7ab6f6bf344ef9acdedac410010000006b4830450221008a12bc449ed4719395e991deb85783b72df06d12bf9e60ea8c80106b241372e90220090d6e98ffe71b5c580f3cbde8d82182559ac09d7a122b948278f03762c3bc6f01210278a05d60894b42039f4e08b6f18dba0e8869d502d6cba01425a94018ac8fcca8ffffffff0282610200000000001976a9144eba6a56d36cf1a71c280861f8bfbf3acb3ce1c588ac4ca25e00000000001976a9140cc087ee4ca00d90c64a71d6c394b765de94f92388ac00000000", "vin": [{"sequence": 4294967295, "scriptSig": {"hex": "4830450221008a12bc449ed4719395e991deb85783b72df06d12bf9e60ea8c80106b241372e90220090d6e98ffe71b5c580f3cbde8d82182559ac09d7a122b948278f03762c3bc6f01210278a05d60894b42039f4e08b6f18dba0e8869d502d6cba01425a94018ac8fcca8", "asm": "30450221008a12bc449ed4719395e991deb85783b72df06d12bf9e60ea8c80106b241372e90220090d6e98ffe71b5c580f3cbde8d82182559ac09d7a122b948278f03762c3bc6f[ALL] 0278a05d60894b42039f4e08b6f18dba0e8869d502d6cba01425a94018ac8fcca8"}, "vout": 1, "txid": "10c4dadeacf94e34bff6b67a0c602caf1706a48bc9548fcf9e9ba543709a19c3"}], "txid": "ab0d4c6b7dfda6f1ddc6a0d6afb0d4c0cbec3142cedfe393b04617a4ca387bd8", "blocktime": 1537869901, "version": 1, "confirmations": 11524, "time": 1537869901, "locktime": 0, "vsize": 226, "size": 226}