{"hash": "ab0d8a5dc8a5913073d941dfd5c92448dfb1a8405563fa529197c0ec648854eb", "blockhash": "0000000000000000001cda96e906b7601b7a6fb1a3b62bca570a9e5d8f4b3de1", "vout": [{"scriptPubKey": {"reqSigs": 1, "hex": "76a9144dc0c6c6553f36ea0e1ce9d378caa47e4dbd235688ac", "addresses": ["1867y7e4w1JDkeMFWZA8Ez2WksZMwMANBJ"], "asm": "OP_DUP OP_HASH160 4dc0c6c6553f36ea0e1ce9d378caa47e4dbd2356 OP_EQUALVERIFY OP_CHECKSIG", "type": "pubkeyhash"}, "value": 0.000174, "n": 0}, {"scriptPubKey": {"reqSigs": 1, "hex": "76a914eed10f487532a726c37bd7d652dbe8deb6160fa688ac", "addresses": ["1NmkGNwHLUE92CcnxAEV7fih4JX5TPc4FF"], "asm": "OP_DUP OP_HASH160 eed10f487532a726c37bd7d652dbe8deb6160fa6 OP_EQUALVERIFY OP_CHECKSIG", "type": "pubkeyhash"}, "value": 1.27243028, "n": 1}], "hex": "0100000001e82526a0d54d0669dc0e35a852a30aef7c58bbd341e6b738d1fc22c05ce499ef010000006b4830450221009dc9ada4d506ab4cebda2ad0c4088e0c4f77b68cc9e85ae4536833b16d4b876f022048f62a40c45165358dfd5ae1b2a18b1b6f32806cf2f333e377cbfa969c8d4dd401210285a4aa5fe1ac25ad6fe23691d69be27f40e38e37587b76c1af64a2985a233042ffffffff02f8430000000000001976a9144dc0c6c6553f36ea0e1ce9d378caa47e4dbd235688ac14939507000000001976a914eed10f487532a726c37bd7d652dbe8deb6160fa688ac00000000", "vin": [{"sequence": 4294967295, "scriptSig": {"hex": "4830450221009dc9ada4d506ab4cebda2ad0c4088e0c4f77b68cc9e85ae4536833b16d4b876f022048f62a40c45165358dfd5ae1b2a18b1b6f32806cf2f333e377cbfa969c8d4dd401210285a4aa5fe1ac25ad6fe23691d69be27f40e38e37587b76c1af64a2985a233042", "asm": "30450221009dc9ada4d506ab4cebda2ad0c4088e0c4f77b68cc9e85ae4536833b16d4b876f022048f62a40c45165358dfd5ae1b2a18b1b6f32806cf2f333e377cbfa969c8d4dd4[ALL] 0285a4aa5fe1ac25ad6fe23691d69be27f40e38e37587b76c1af64a2985a233042"}, "vout": 1, "txid": "ef99e45cc022fcd138b7e641d3bb587cef0aa352a8350edc69064dd5a02625e8"}], "txid": "ab0d8a5dc8a5913073d941dfd5c92448dfb1a8405563fa529197c0ec648854eb", "blocktime": 1537873282, "version": 1, "confirmations": 11485, "time": 1537873282, "locktime": 0, "vsize": 226, "size": 226}