{"hash": "ab0d674157150fb4406d5ee78efd420d4e9f3df003d669fdafd1822b31e27d47", "blockhash": "0000000000000000000dcc0f55137456b1a82d3642486a52398922ac4d620174", "vout": [{"scriptPubKey": {"reqSigs": 1, "hex": "76a914388256b4fb33f6155727017f7d5cce7e0d2a65f388ac", "addresses": ["169nyqNqauSUMcS3rAExS3rhhrwz9mVA4i"], "asm": "OP_DUP OP_HASH160 388256b4fb33f6155727017f7d5cce7e0d2a65f3 OP_EQUALVERIFY OP_CHECKSIG", "type": "pubkeyhash"}, "value": 0.00168684, "n": 0}, {"scriptPubKey": {"type": "nulldata", "hex": "6a146f6d6e69000000000000001f0000000ac5128c00", "asm": "OP_RETURN 6f6d6e69000000000000001f0000000ac5128c00"}, "value": 0.0, "n": 1}, {"scriptPubKey": {"reqSigs": 1, "hex": "76a9146f3faa96c32c771dd96425f915d874245079385c88ac", "addresses": ["1B9EGukytBkMmYoSJNcoU9PzK4WL2ypKHp"], "asm": "OP_DUP OP_HASH160 6f3faa96c32c771dd96425f915d874245079385c OP_EQUALVERIFY OP_CHECKSIG", "type": "pubkeyhash"}, "value": 5.46e-06, "n": 2}], "hex": "0100000001aa831137aba2fcd9def66b169985ad50c944032a42c7cbbcfbe6edf200127990020000006b483045022100819836b1b348c92d2a6c34e867be2e551bb95c0cc54c80be42beb399407f0d2e02204cef41d4c4aff05ee77932091ee858c965c05ff76e2def2168dc7ee6ef0dab7c012102cca43b3082ae7d70499eba1e028fba08cb647209c0be3dee55eeb6b51b623f1ffeffffff03ec920200000000001976a914388256b4fb33f6155727017f7d5cce7e0d2a65f388ac0000000000000000166a146f6d6e69000000000000001f0000000ac5128c0022020000000000001976a9146f3faa96c32c771dd96425f915d874245079385c88ac0c490800", "vin": [{"sequence": 4294967294, "scriptSig": {"hex": "483045022100819836b1b348c92d2a6c34e867be2e551bb95c0cc54c80be42beb399407f0d2e02204cef41d4c4aff05ee77932091ee858c965c05ff76e2def2168dc7ee6ef0dab7c012102cca43b3082ae7d70499eba1e028fba08cb647209c0be3dee55eeb6b51b623f1f", "asm": "3045022100819836b1b348c92d2a6c34e867be2e551bb95c0cc54c80be42beb399407f0d2e02204cef41d4c4aff05ee77932091ee858c965c05ff76e2def2168dc7ee6ef0dab7c[ALL] 02cca43b3082ae7d70499eba1e028fba08cb647209c0be3dee55eeb6b51b623f1f"}, "vout": 2, "txid": "90791200f2ede6fbbccbc7422a0344c950ad8599166bf6ded9fca2ab371183aa"}], "txid": "ab0d674157150fb4406d5ee78efd420d4e9f3df003d669fdafd1822b31e27d47", "blocktime": 1537870268, "version": 1, "confirmations": 11519, "time": 1537870268, "locktime": 542988, "vsize": 257, "size": 257}