{"hash": "ab10fe0e7330cb6d88cab0591f3f0fbae05f304c7c5c49214bb1f0ae25c4f9e1", "blockhash": "0000000000000000001f76057863aec43deb6fa401d9628bb513d65a8098bfab", "vout": [{"scriptPubKey": {"type": "nulldata", "hex": "6a4c50000077da000176de278d66a6dcee7212292e7af8e8e963c7cfd5b95b23cc0f42c2fc38c56467b3cbf6c99e7d4156eca100db08db5baa15ae061307ddf866d28bbc9a9526289ac0f6612cd74e33776ee4", "asm": "OP_RETURN 000077da000176de278d66a6dcee7212292e7af8e8e963c7cfd5b95b23cc0f42c2fc38c56467b3cbf6c99e7d4156eca100db08db5baa15ae061307ddf866d28bbc9a9526289ac0f6612cd74e33776ee4"}, "value": 0.0, "n": 0}, {"scriptPubKey": {"reqSigs": 1, "hex": "76a914ecee3e1a73f88351e0aed0349cc02ebd772a417888ac", "addresses": ["1Nbmsf8XwWs2JLbe9q4eNZG1sYTrzehQn3"], "asm": "OP_DUP OP_HASH160 ecee3e1a73f88351e0aed0349cc02ebd772a4178 OP_EQUALVERIFY OP_CHECKSIG", "type": "pubkeyhash"}, "value": 0.01392904, "n": 1}], "hex": "010000000198047b52a8b7ec75fde08b16d2f172189834abe56f740713cf2e6683dd5d343a000000006b483045022100f65de2d5f4a9f0cd785fc5764df28e7fdf19e62bdc70cc25e05565cab2e743c0022003f3c5287523fcf46d7ed4f91fe2d2b66de9dedfbba424d6d60a6b829c5153a80121034ce00ad748024e68583434ebe63a4d356a54376bcaacf4401ee99bb2da758689ffffffff020000000000000000536a4c50000077da000176de278d66a6dcee7212292e7af8e8e963c7cfd5b95b23cc0f42c2fc38c56467b3cbf6c99e7d4156eca100db08db5baa15ae061307ddf866d28bbc9a9526289ac0f6612cd74e33776ee408411500000000001976a914ecee3e1a73f88351e0aed0349cc02ebd772a417888ac00000000", "vin": [{"sequence": 4294967295, "scriptSig": {"hex": "483045022100f65de2d5f4a9f0cd785fc5764df28e7fdf19e62bdc70cc25e05565cab2e743c0022003f3c5287523fcf46d7ed4f91fe2d2b66de9dedfbba424d6d60a6b829c5153a80121034ce00ad748024e68583434ebe63a4d356a54376bcaacf4401ee99bb2da758689", "asm": "3045022100f65de2d5f4a9f0cd785fc5764df28e7fdf19e62bdc70cc25e05565cab2e743c0022003f3c5287523fcf46d7ed4f91fe2d2b66de9dedfbba424d6d60a6b829c5153a8[ALL] 034ce00ad748024e68583434ebe63a4d356a54376bcaacf4401ee99bb2da758689"}, "vout": 0, "txid": "3a345ddd83662ecf1307746fe5ab34981872f1d2168be0fd75ecb7a8527b0498"}], "txid": "ab10fe0e7330cb6d88cab0591f3f0fbae05f304c7c5c49214bb1f0ae25c4f9e1", "blocktime": 1537873891, "version": 1, "confirmations": 11478, "time": 1537873891, "locktime": 0, "vsize": 284, "size": 284}