{"hash": "a110776690d96dbba6995280dfe8286c6315b4738c2e6013fb21ff45a77cb477", "blockhash": "0000000000000000000e13cef7c366c0283d82e591d1acd082e914b08063cdf1", "vout": [{"scriptPubKey": {"reqSigs": 1, "hex": "a914b40d83dd9561398172494725505323fb7bfba81c87", "addresses": ["3J73k7qzfZhcQDt8rFU9oGL4itLU4uRryW"], "asm": "OP_HASH160 b40d83dd9561398172494725505323fb7bfba81c OP_EQUAL", "type": "scripthash"}, "value": 0.00111178, "n": 0}, {"scriptPubKey": {"reqSigs": 1, "hex": "a914494c3f0697f643627a3290262c51048ff1a25dff87", "addresses": ["38NabE3xQxgKJkxZK59PRdsj6f2VVMRkao"], "asm": "OP_HASH160 494c3f0697f643627a3290262c51048ff1a25dff OP_EQUAL", "type": "scripthash"}, "value": 0.00361266, "n": 1}], "hex": "01000000000101e1be7c3e11515f8438d7eabd2e593969534248e36eaae840156122048ce3842c0100000023220020efba633c6f0308ee88a9428e2a08379a830963806b588bf4c25f6224c4069a12fdffffff024ab201000000000017a914b40d83dd9561398172494725505323fb7bfba81c87328305000000000017a914494c3f0697f643627a3290262c51048ff1a25dff870400483045022100ba06d1d7485cf375fe698c009ec39ab09cb6f54913122d254b3a74d0209db2b102201cc092df69fbb3b8cd9633fb99019b4dadfc2462437184e99444eadec87881b501473044022038d07cde505b229a3618224ad171da4b40422af266ad53a6d06070b1b6ca922f022045b87b531178adfa00d01f26cb3fd81ad445db1bbb9585104fa1ce78b4faf5280147522103ad70d89413ae3fb590a9c3167d27e3aa4c337ae960624be74f5b7d63d0b2fac021034f77a61b2ad259dcd25fd2b41e9815fd31228244a68ca610c42e8e70aa3e668b52ae0f490800", "vin": [{"txinwitness": ["", "3045022100ba06d1d7485cf375fe698c009ec39ab09cb6f54913122d254b3a74d0209db2b102201cc092df69fbb3b8cd9633fb99019b4dadfc2462437184e99444eadec87881b501", "3044022038d07cde505b229a3618224ad171da4b40422af266ad53a6d06070b1b6ca922f022045b87b531178adfa00d01f26cb3fd81ad445db1bbb9585104fa1ce78b4faf52801", "522103ad70d89413ae3fb590a9c3167d27e3aa4c337ae960624be74f5b7d63d0b2fac021034f77a61b2ad259dcd25fd2b41e9815fd31228244a68ca610c42e8e70aa3e668b52ae"], "sequence": 4294967293, "scriptSig": {"hex": "220020efba633c6f0308ee88a9428e2a08379a830963806b588bf4c25f6224c4069a12", "asm": "0020efba633c6f0308ee88a9428e2a08379a830963806b588bf4c25f6224c4069a12"}, "vout": 1, "txid": "2c84e38c0422611540e8aa6ee34842536939592ebdead738845f51113e7cbee1"}], "txid": "ab14309b46962925b8c38f3ad5f59b19ad222461f13c73b6c66ef1ea8a6a579e", "blocktime": 1537871767, "version": 1, "confirmations": 11495, "time": 1537871767, "locktime": 542991, "vsize": 206, "size": 371}