{"hash": "ab1502a1b7794d8a7ead66133bd44fe6992360992e8fa80e86d4aa1c674e13a7", "blockhash": "0000000000000000001f0ddff1eddb255c1121bcd4da4f1bc9a0da00cae72433", "vout": [{"scriptPubKey": {"type": "nulldata", "hex": "6a146f6d6e69000000000000001f00000007c0d5ad00", "asm": "OP_RETURN 6f6d6e69000000000000001f00000007c0d5ad00"}, "value": 0.0, "n": 0}, {"scriptPubKey": {"reqSigs": 1, "hex": "76a914311501b7076dd9d5be36416376c217bafbd6bd7e88ac", "addresses": ["15UXGyJXomEF2FMFGNwa1yiBY4mRda62KQ"], "asm": "OP_DUP OP_HASH160 311501b7076dd9d5be36416376c217bafbd6bd7e OP_EQUALVERIFY OP_CHECKSIG", "type": "pubkeyhash"}, "value": 0.00365928, "n": 1}], "hex": "0100000002b051c2c13ac640ad713850155adbf16722ed6e4f3874cf6dee8f28e432055d94020000006b483045022100a0f45d5199d2ce2a1a4b9906cad80204e70dfc9b39b8e096f43943bd7d96aae902202c34156ac585e7dab7fc6f530afc901df5351f44a86b3feb4a8d967673d4797d0121029563d086f2ef4e4c71d66b395b7e0ef40ecbf1b41376c60b66387d5c0036cc80ffffffff23d67c2e5648dcb3a9066cc6367eb6984c2e7b8b62600c42285adad0f90fbe3e010000006a47304402204b743501bed502e0d879c2db94cab6d4786e119e31f67f7e27448c98a5ec1d83022020bf372e0cabc9d5844c9cfb7f5a8421dbbf7bbc1cdb8fbd15620a79807f67a5012103ace9f4487b96c5599fbcabf506252f4a3512e1c0760a70ac1ebbd1a46e8d52daffffffff020000000000000000166a146f6d6e69000000000000001f00000007c0d5ad0068950500000000001976a914311501b7076dd9d5be36416376c217bafbd6bd7e88ac00000000", "vin": [{"sequence": 4294967295, "scriptSig": {"hex": "483045022100a0f45d5199d2ce2a1a4b9906cad80204e70dfc9b39b8e096f43943bd7d96aae902202c34156ac585e7dab7fc6f530afc901df5351f44a86b3feb4a8d967673d4797d0121029563d086f2ef4e4c71d66b395b7e0ef40ecbf1b41376c60b66387d5c0036cc80", "asm": "3045022100a0f45d5199d2ce2a1a4b9906cad80204e70dfc9b39b8e096f43943bd7d96aae902202c34156ac585e7dab7fc6f530afc901df5351f44a86b3feb4a8d967673d4797d[ALL] 029563d086f2ef4e4c71d66b395b7e0ef40ecbf1b41376c60b66387d5c0036cc80"}, "vout": 2, "txid": "945d0532e4288fee6dcf74384f6eed2267f1db5a15503871ad40c63ac1c251b0"}, {"sequence": 4294967295, "scriptSig": {"hex": "47304402204b743501bed502e0d879c2db94cab6d4786e119e31f67f7e27448c98a5ec1d83022020bf372e0cabc9d5844c9cfb7f5a8421dbbf7bbc1cdb8fbd15620a79807f67a5012103ace9f4487b96c5599fbcabf506252f4a3512e1c0760a70ac1ebbd1a46e8d52da", "asm": "304402204b743501bed502e0d879c2db94cab6d4786e119e31f67f7e27448c98a5ec1d83022020bf372e0cabc9d5844c9cfb7f5a8421dbbf7bbc1cdb8fbd15620a79807f67a5[ALL] 03ace9f4487b96c5599fbcabf506252f4a3512e1c0760a70ac1ebbd1a46e8d52da"}, "vout": 1, "txid": "3ebe0ff9d0da5a28420c60628b7b2e4c98b67e36c66c06a9b3dc48562e7cd623"}], "txid": "ab1502a1b7794d8a7ead66133bd44fe6992360992e8fa80e86d4aa1c674e13a7", "blocktime": 1537872018, "version": 1, "confirmations": 11489, "time": 1537872018, "locktime": 0, "vsize": 370, "size": 370}