{"hash": "ab161a71f8bf8636c42809e1100347c7a8cb07af853b330df504106c399f80a8", "blockhash": "0000000000000000001e0dab787dd257d1dbfcb92a98c2207d5e1078be1f4165", "vout": [{"scriptPubKey": {"reqSigs": 1, "hex": "76a9146e8263ba2446a2d03de68c6b568e3adefcee37d088ac", "addresses": ["1B5KXj9jeiUDF4ov444Pm8DRVh2ucFecHB"], "asm": "OP_DUP OP_HASH160 6e8263ba2446a2d03de68c6b568e3adefcee37d0 OP_EQUALVERIFY OP_CHECKSIG", "type": "pubkeyhash"}, "value": 0.00028428, "n": 0}, {"scriptPubKey": {"reqSigs": 1, "hex": "76a914f2683678eae5480faf2d12c042337984dcd0efda88ac", "addresses": ["1P6jNFja3a3TishGAEZx4BsQ7T575Qh8RY"], "asm": "OP_DUP OP_HASH160 f2683678eae5480faf2d12c042337984dcd0efda OP_EQUALVERIFY OP_CHECKSIG", "type": "pubkeyhash"}, "value": 0.04053057, "n": 1}], "hex": "02000000013be4ef9b74bd91bbbc4bd61f68ab9d59a9a4b38b251dcfa9f80f4c90b89f2ac4010000006b483045022100f61bf9d184bd90aee3b8f73e5199ac2f0ee71ccd6307d18c035784192306d7b702206cacc7f1cfc926cba88e278323eb27fa63283a24a708baa371c9ad4d53a1a6e301210388b6ea50fa1511140e646dd25d305f994491fd0896d49b78857e57385c78476bffffffff020c6f0000000000001976a9146e8263ba2446a2d03de68c6b568e3adefcee37d088ac41d83d00000000001976a914f2683678eae5480faf2d12c042337984dcd0efda88ac00000000", "vin": [{"sequence": 4294967295, "scriptSig": {"hex": "483045022100f61bf9d184bd90aee3b8f73e5199ac2f0ee71ccd6307d18c035784192306d7b702206cacc7f1cfc926cba88e278323eb27fa63283a24a708baa371c9ad4d53a1a6e301210388b6ea50fa1511140e646dd25d305f994491fd0896d49b78857e57385c78476b", "asm": "3045022100f61bf9d184bd90aee3b8f73e5199ac2f0ee71ccd6307d18c035784192306d7b702206cacc7f1cfc926cba88e278323eb27fa63283a24a708baa371c9ad4d53a1a6e3[ALL] 0388b6ea50fa1511140e646dd25d305f994491fd0896d49b78857e57385c78476b"}, "vout": 1, "txid": "c42a9fb8904c0ff8a9cf1d258bb3a4a9599dab681fd64bbcbb91bd749befe43b"}], "txid": "ab161a71f8bf8636c42809e1100347c7a8cb07af853b330df504106c399f80a8", "blocktime": 1537872475, "version": 2, "confirmations": 11486, "time": 1537872475, "locktime": 0, "vsize": 226, "size": 226}