{"hash": "ab19def129f68c75fb0a6a02272892a72ec11bcc932a782761ff569e670267c1", "blockhash": "0000000000000000000e13cef7c366c0283d82e591d1acd082e914b08063cdf1", "vout": [{"scriptPubKey": {"reqSigs": 1, "hex": "76a9148deb555e71933286ca82be75592facd490265d7c88ac", "addresses": ["1DwQCJf1yfbF4q2dQTwZ3vwZ8qFFgg9dz4"], "asm": "OP_DUP OP_HASH160 8deb555e71933286ca82be75592facd490265d7c OP_EQUALVERIFY OP_CHECKSIG", "type": "pubkeyhash"}, "value": 0.0148062, "n": 0}, {"scriptPubKey": {"type": "nulldata", "hex": "6a4c500000778e0001621ad1827c79e0dc044e20bae3ef3236678a625097bcbefa6b8351586b4e43474b8acf76eae3b5d2c1a6d719ddd75baa0c7106139fa1dc0af1d5bc9a9526289ac0f6612cd74e33776ee4", "asm": "OP_RETURN 0000778e0001621ad1827c79e0dc044e20bae3ef3236678a625097bcbefa6b8351586b4e43474b8acf76eae3b5d2c1a6d719ddd75baa0c7106139fa1dc0af1d5bc9a9526289ac0f6612cd74e33776ee4"}, "value": 0.0, "n": 1}], "hex": "01000000015386f91a23694d3e3c78c8ea8f3fe66c29f66924dfacb55a55c37ac548f58081000000006b483045022100b8c3fd650ee6ba0757ed9f67f1af236945c2965479f46e70c1eb7472f2e4a13602201c3298e7d6c813fe0201317d204e62cc37a1310d8e8ff646102aa9a9a085962a012102c9a91f64e6ffa51d055640ef5f6657b04eb23f2368ea394be99c0c4e6a0c6cbdffffffff02ac971600000000001976a9148deb555e71933286ca82be75592facd490265d7c88ac0000000000000000536a4c500000778e0001621ad1827c79e0dc044e20bae3ef3236678a625097bcbefa6b8351586b4e43474b8acf76eae3b5d2c1a6d719ddd75baa0c7106139fa1dc0af1d5bc9a9526289ac0f6612cd74e33776ee400000000", "vin": [{"sequence": 4294967295, "scriptSig": {"hex": "483045022100b8c3fd650ee6ba0757ed9f67f1af236945c2965479f46e70c1eb7472f2e4a13602201c3298e7d6c813fe0201317d204e62cc37a1310d8e8ff646102aa9a9a085962a012102c9a91f64e6ffa51d055640ef5f6657b04eb23f2368ea394be99c0c4e6a0c6cbd", "asm": "3045022100b8c3fd650ee6ba0757ed9f67f1af236945c2965479f46e70c1eb7472f2e4a13602201c3298e7d6c813fe0201317d204e62cc37a1310d8e8ff646102aa9a9a085962a[ALL] 02c9a91f64e6ffa51d055640ef5f6657b04eb23f2368ea394be99c0c4e6a0c6cbd"}, "vout": 0, "txid": "8180f548c57ac3555ab5acdf2469f6296ce63f8feac8783c3e4d69231af98653"}], "txid": "ab19def129f68c75fb0a6a02272892a72ec11bcc932a782761ff569e670267c1", "blocktime": 1537871767, "version": 1, "confirmations": 11494, "time": 1537871767, "locktime": 0, "vsize": 284, "size": 284}