{"hash": "ab1b9582717eef3d97f8954c6f21475dc9f7d1d669ff9debfecc94f888f12690", "blockhash": "0000000000000000001f0ddff1eddb255c1121bcd4da4f1bc9a0da00cae72433", "vout": [{"scriptPubKey": {"reqSigs": 1, "hex": "a9146859436d9c76003f75a4ccc9a8e1ee182b38f88c87", "addresses": ["3BCm8d6wzEba3wcXmHRHfDFTuFxFFYi6ZP"], "asm": "OP_HASH160 6859436d9c76003f75a4ccc9a8e1ee182b38f88c OP_EQUAL", "type": "scripthash"}, "value": 4.701e-05, "n": 0}, {"scriptPubKey": {"reqSigs": 1, "hex": "76a914e5ed677881c8846aa82f3c81f91c70bd6196972388ac", "addresses": ["1Mxk94Y2hnUnuDpTqjTEagig55NM5KNXuB"], "asm": "OP_DUP OP_HASH160 e5ed677881c8846aa82f3c81f91c70bd61969723 OP_EQUALVERIFY OP_CHECKSIG", "type": "pubkeyhash"}, "value": 0.00328412, "n": 1}], "hex": "01000000011c633043b1555760a6a3004cf1ab404bd7f9939d9266537ceb9eb236a93d602801000000fdfd000047304402201e0bdb14437fa711bedb8114faeed5e9fa4d63fb7b2b37125603bf18606f3f650220377d329c8bd529694e928136a88b621abdf9d2ec12394a2691dfe3eebb58e1b701483045022100ca0dae77f2f31e8d3daa83be34579e42eacae287f34da804390c06eecea0fb030220255668f309bb977b2f29de3e06f9c7feba65c6142b1fd506126a2194ca470abe014c6952210225fd415c8d7707714de8ac3f528ff5a4051a561893d375164e1cd7acd295ce2d21027be6e90a5a353976c432b25c37c3e91db429fb7d7ebf4e04bb3a55efb5d65ac721027da1dabd441e5cb14b290c1b5b33ad25d38c304750a2b5245c72c1e63ec783cd53aeffffffff025d1200000000000017a9146859436d9c76003f75a4ccc9a8e1ee182b38f88c87dc020500000000001976a914e5ed677881c8846aa82f3c81f91c70bd6196972388ac00000000", "vin": [{"sequence": 4294967295, "scriptSig": {"hex": "0047304402201e0bdb14437fa711bedb8114faeed5e9fa4d63fb7b2b37125603bf18606f3f650220377d329c8bd529694e928136a88b621abdf9d2ec12394a2691dfe3eebb58e1b701483045022100ca0dae77f2f31e8d3daa83be34579e42eacae287f34da804390c06eecea0fb030220255668f309bb977b2f29de3e06f9c7feba65c6142b1fd506126a2194ca470abe014c6952210225fd415c8d7707714de8ac3f528ff5a4051a561893d375164e1cd7acd295ce2d21027be6e90a5a353976c432b25c37c3e91db429fb7d7ebf4e04bb3a55efb5d65ac721027da1dabd441e5cb14b290c1b5b33ad25d38c304750a2b5245c72c1e63ec783cd53ae", "asm": "0 304402201e0bdb14437fa711bedb8114faeed5e9fa4d63fb7b2b37125603bf18606f3f650220377d329c8bd529694e928136a88b621abdf9d2ec12394a2691dfe3eebb58e1b7[ALL] 3045022100ca0dae77f2f31e8d3daa83be34579e42eacae287f34da804390c06eecea0fb030220255668f309bb977b2f29de3e06f9c7feba65c6142b1fd506126a2194ca470abe[ALL] 52210225fd415c8d7707714de8ac3f528ff5a4051a561893d375164e1cd7acd295ce2d21027be6e90a5a353976c432b25c37c3e91db429fb7d7ebf4e04bb3a55efb5d65ac721027da1dabd441e5cb14b290c1b5b33ad25d38c304750a2b5245c72c1e63ec783cd53ae"}, "vout": 1, "txid": "28603da936b29eeb7c5366929d93f9d74b40abf14c00a3a6605755b14330631c"}], "txid": "ab1b9582717eef3d97f8954c6f21475dc9f7d1d669ff9debfecc94f888f12690", "blocktime": 1537872018, "version": 1, "confirmations": 11489, "time": 1537872018, "locktime": 0, "vsize": 372, "size": 372}