{"hash": "ab1bb9ccfe2fb8b06ee142f758c218eb8e9315fa1f113d7c5a87eaadcce07cb6", "blockhash": "0000000000000000001f0ddff1eddb255c1121bcd4da4f1bc9a0da00cae72433", "vout": [{"scriptPubKey": {"reqSigs": 1, "hex": "76a91434f258072150aaa774d1f1e789bd2dc97b5524ad88ac", "addresses": ["15pxTKfA1m83dEPtvt3hGVsBbGhgdh4Cv6"], "asm": "OP_DUP OP_HASH160 34f258072150aaa774d1f1e789bd2dc97b5524ad OP_EQUALVERIFY OP_CHECKSIG", "type": "pubkeyhash"}, "value": 0.02487, "n": 0}], "hex": "0100000003211b017a615977e8533aaffbe282471533f74c06513aa4c8a1e98c49a1f256761b0000006a4730440220113a0995dde2b8f8c287580bb7b981ecebd5ffb7f421c68b9059d4462d3e61ce022050ad180b537210a520dc2939c7ba5fe18eee93c89183b10da5840601c79c2f8e0121021271593b884ea2bffd097611435b2f3a09cfafe55476b6412cbbb2e77bec0d9dffffffffa6f12318c03fba26a58f29eac56479c6c0ac895f95396b2595848ec52a16029f000000006a473044022020cd95ed6f5e81ed338a91939f2bd2b3d0d6e9ec8372dd5ada247a37f6b1c8320220598259555b459480ef0038049b0413e4c27755a18b635a399dd7f188a1491df70121020b6da7beb7b361bfd84ffe7044ea0573e7555b70f28f89f2231be4770e636f52ffffffff23f8a45dff6eb699cb119f42a5ad4b23ebbe8d201602bfacf3185a79a346eaf31e0000006b483045022100b1698efca8c193f3ea3afa682bb2938a9aa3eadc37ccbebed5245b6090d5cc7e02206edf26dcfd0affcfce1e21e72ce30be6669d3027cc6a0b28f23730e1736dcec90121021ad0fb78f0d42214897b8ca8d59c4d0b00092dd5f86377f087cf6f37b5882827ffffffff01d8f22500000000001976a91434f258072150aaa774d1f1e789bd2dc97b5524ad88ac00000000", "vin": [{"sequence": 4294967295, "scriptSig": {"hex": "4730440220113a0995dde2b8f8c287580bb7b981ecebd5ffb7f421c68b9059d4462d3e61ce022050ad180b537210a520dc2939c7ba5fe18eee93c89183b10da5840601c79c2f8e0121021271593b884ea2bffd097611435b2f3a09cfafe55476b6412cbbb2e77bec0d9d", "asm": "30440220113a0995dde2b8f8c287580bb7b981ecebd5ffb7f421c68b9059d4462d3e61ce022050ad180b537210a520dc2939c7ba5fe18eee93c89183b10da5840601c79c2f8e[ALL] 021271593b884ea2bffd097611435b2f3a09cfafe55476b6412cbbb2e77bec0d9d"}, "vout": 27, "txid": "7656f2a1498ce9a1c8a43a51064cf733154782e2fbaf3a53e87759617a011b21"}, {"sequence": 4294967295, "scriptSig": {"hex": "473044022020cd95ed6f5e81ed338a91939f2bd2b3d0d6e9ec8372dd5ada247a37f6b1c8320220598259555b459480ef0038049b0413e4c27755a18b635a399dd7f188a1491df70121020b6da7beb7b361bfd84ffe7044ea0573e7555b70f28f89f2231be4770e636f52", "asm": "3044022020cd95ed6f5e81ed338a91939f2bd2b3d0d6e9ec8372dd5ada247a37f6b1c8320220598259555b459480ef0038049b0413e4c27755a18b635a399dd7f188a1491df7[ALL] 020b6da7beb7b361bfd84ffe7044ea0573e7555b70f28f89f2231be4770e636f52"}, "vout": 0, "txid": "9f02162ac58e8495256b39955f89acc0c67964c5ea298fa526ba3fc01823f1a6"}, {"sequence": 4294967295, "scriptSig": {"hex": "483045022100b1698efca8c193f3ea3afa682bb2938a9aa3eadc37ccbebed5245b6090d5cc7e02206edf26dcfd0affcfce1e21e72ce30be6669d3027cc6a0b28f23730e1736dcec90121021ad0fb78f0d42214897b8ca8d59c4d0b00092dd5f86377f087cf6f37b5882827", "asm": "3045022100b1698efca8c193f3ea3afa682bb2938a9aa3eadc37ccbebed5245b6090d5cc7e02206edf26dcfd0affcfce1e21e72ce30be6669d3027cc6a0b28f23730e1736dcec9[ALL] 021ad0fb78f0d42214897b8ca8d59c4d0b00092dd5f86377f087cf6f37b5882827"}, "vout": 30, "txid": "f3ea46a3795a18f3acbf0216208dbeeb234bada5429f11cb99b66eff5da4f823"}], "txid": "ab1bb9ccfe2fb8b06ee142f758c218eb8e9315fa1f113d7c5a87eaadcce07cb6", "blocktime": 1537872018, "version": 1, "confirmations": 11489, "time": 1537872018, "locktime": 0, "vsize": 486, "size": 486}