{"hash": "ab1d44133826fefaffb9ee8a00cbe00be982b1c567952265be260cb98c8463d7", "blockhash": "0000000000000000000e13cef7c366c0283d82e591d1acd082e914b08063cdf1", "vout": [{"scriptPubKey": {"reqSigs": 1, "hex": "76a9149c9573a93c7365a4382e82670ba631aa3155d78788ac", "addresses": ["1FGwT261YLYRmSmFVvQGTGbmGrsDrx95pB"], "asm": "OP_DUP OP_HASH160 9c9573a93c7365a4382e82670ba631aa3155d787 OP_EQUALVERIFY OP_CHECKSIG", "type": "pubkeyhash"}, "value": 0.0017935, "n": 0}, {"scriptPubKey": {"reqSigs": 1, "hex": "76a914ea9c831b52c211f357fb7c93f7c6a07475d7664888ac", "addresses": ["1NPWcYSnykbysrSwLrzjZewZHubocrJ9XZ"], "asm": "OP_DUP OP_HASH160 ea9c831b52c211f357fb7c93f7c6a07475d76648 OP_EQUALVERIFY OP_CHECKSIG", "type": "pubkeyhash"}, "value": 0.00227, "n": 1}], "hex": "0100000001075b91f2934559f2395e53b57a747fe692c7774db7e91c094e9805c7328b67d2010000006a47304402207ce6cc854b27a76fa86d307675310a4be4b383e231403de0b806a45916f144e20220182978f842cd762dcd3457d56e15dd76edf549a0160df67d8ed050c5a4027a6201210212ad890d18c26e3c6136e56969c05461e849590bd8efefebb7f244a8f8e4f707ffffffff0296bc0200000000001976a9149c9573a93c7365a4382e82670ba631aa3155d78788acb8760300000000001976a914ea9c831b52c211f357fb7c93f7c6a07475d7664888ac00000000", "vin": [{"sequence": 4294967295, "scriptSig": {"hex": "47304402207ce6cc854b27a76fa86d307675310a4be4b383e231403de0b806a45916f144e20220182978f842cd762dcd3457d56e15dd76edf549a0160df67d8ed050c5a4027a6201210212ad890d18c26e3c6136e56969c05461e849590bd8efefebb7f244a8f8e4f707", "asm": "304402207ce6cc854b27a76fa86d307675310a4be4b383e231403de0b806a45916f144e20220182978f842cd762dcd3457d56e15dd76edf549a0160df67d8ed050c5a4027a62[ALL] 0212ad890d18c26e3c6136e56969c05461e849590bd8efefebb7f244a8f8e4f707"}, "vout": 1, "txid": "d2678b32c705984e091ce9b74d77c792e67f747ab5535e39f2594593f2915b07"}], "txid": "ab1d44133826fefaffb9ee8a00cbe00be982b1c567952265be260cb98c8463d7", "blocktime": 1537871767, "version": 1, "confirmations": 11495, "time": 1537871767, "locktime": 0, "vsize": 225, "size": 225}