{"hash": "ab1e432aebde49c624a24526625c4e43942702237fbbf664088231ec2f161c11", "blockhash": "0000000000000000000dcc0f55137456b1a82d3642486a52398922ac4d620174", "vout": [{"scriptPubKey": {"type": "nulldata", "hex": "6a4c500000777400012aa17d2e0f5049a186e3222b86aeaeacb577c031fc3a016b46dc7dc7d096e02a39400554f6e38461c97c4f8427f65baa092c06144f1be050ace31d100759d4ba30d2c37bb011d97e02cf", "asm": "OP_RETURN 0000777400012aa17d2e0f5049a186e3222b86aeaeacb577c031fc3a016b46dc7dc7d096e02a39400554f6e38461c97c4f8427f65baa092c06144f1be050ace31d100759d4ba30d2c37bb011d97e02cf"}, "value": 0.0, "n": 0}, {"scriptPubKey": {"reqSigs": 1, "hex": "76a9146e9707f41d0ab1590177202591e8d6f74b40d0ef88ac", "addresses": ["1B5kFvbDLMHi4DyJ6FQMYwPmvgpsURTWHp"], "asm": "OP_DUP OP_HASH160 6e9707f41d0ab1590177202591e8d6f74b40d0ef OP_EQUALVERIFY OP_CHECKSIG", "type": "pubkeyhash"}, "value": 0.00647746, "n": 1}], "hex": "0100000001fcbd619cc00b18694304086e0ff4a1b0f1d6522a2defb8825e296a9b9bdc9895000000006b483045022100a21219aaf9e78a9eb0d4b43aadab29c8c477313e87863306c72a8e0762ae817802205b4a1ec485f0037adbf00979e17b4b464aee490683d228d940dc6cb8a77a26fc01210205a1cdf8bee7a7762c25b45aa5de7295c6c099345e48d35d88821da63a1b0f4affffffff020000000000000000536a4c500000777400012aa17d2e0f5049a186e3222b86aeaeacb577c031fc3a016b46dc7dc7d096e02a39400554f6e38461c97c4f8427f65baa092c06144f1be050ace31d100759d4ba30d2c37bb011d97e02cf42e20900000000001976a9146e9707f41d0ab1590177202591e8d6f74b40d0ef88ac00000000", "vin": [{"sequence": 4294967295, "scriptSig": {"hex": "483045022100a21219aaf9e78a9eb0d4b43aadab29c8c477313e87863306c72a8e0762ae817802205b4a1ec485f0037adbf00979e17b4b464aee490683d228d940dc6cb8a77a26fc01210205a1cdf8bee7a7762c25b45aa5de7295c6c099345e48d35d88821da63a1b0f4a", "asm": "3045022100a21219aaf9e78a9eb0d4b43aadab29c8c477313e87863306c72a8e0762ae817802205b4a1ec485f0037adbf00979e17b4b464aee490683d228d940dc6cb8a77a26fc[ALL] 0205a1cdf8bee7a7762c25b45aa5de7295c6c099345e48d35d88821da63a1b0f4a"}, "vout": 0, "txid": "9598dc9b9b6a295e82b8ef2d2a52d6f1b0a1f40f6e08044369180bc09c61bdfc"}], "txid": "ab1e432aebde49c624a24526625c4e43942702237fbbf664088231ec2f161c11", "blocktime": 1537870268, "version": 1, "confirmations": 11518, "time": 1537870268, "locktime": 0, "vsize": 284, "size": 284}