{"hash": "2823e2cc75fb422a6cde7b2fa36f162dab4c7541b1b6d4e6775ad9a1b9dd3156", "blockhash": "00000000000000000018f53835495a110e01622372bf6ae95dc86f2b0ab887b0", "vout": [{"scriptPubKey": {"reqSigs": 1, "hex": "76a91432b79320feb2c3afc4eb10ebaf95f144d0bd095088ac", "addresses": ["15dAhb36en6UB3rfY5Hjsdj823Q96vNAFC"], "asm": "OP_DUP OP_HASH160 32b79320feb2c3afc4eb10ebaf95f144d0bd0950 OP_EQUALVERIFY OP_CHECKSIG", "type": "pubkeyhash"}, "value": 0.05, "n": 0}, {"scriptPubKey": {"reqSigs": 1, "hex": "a914f6904e02b4ae380b5706d13efdce45bf857951fe87", "addresses": ["3QAj2Ch2GaZ2pqwJyr43VGVYj4Ac8e93eX"], "asm": "OP_HASH160 f6904e02b4ae380b5706d13efdce45bf857951fe OP_EQUAL", "type": "scripthash"}, "value": 0.0297959, "n": 1}], "hex": "02000000000101d9f12efa6b8e668ed6f8bbc3bd46b843ca282e93e328b0960b570f96db5f58d601000000171600147e5470238c61096cd70568e69536b0baa2168d8bfeffffff02404b4c00000000001976a91432b79320feb2c3afc4eb10ebaf95f144d0bd095088ac06772d000000000017a914f6904e02b4ae380b5706d13efdce45bf857951fe870248304502210087e338b3a6743731068c1da4769de78c43ce46b64fc2fd3d5d4637a1b46a6c370220679c7bba169439e82ad964fcd359b98c68b8df2ed494f8b7d673472641e1b5120121027ab78beb79b172941882ff5f0c02b05a9411136e18957a92c7eb953200b661300e490800", "vin": [{"txinwitness": ["304502210087e338b3a6743731068c1da4769de78c43ce46b64fc2fd3d5d4637a1b46a6c370220679c7bba169439e82ad964fcd359b98c68b8df2ed494f8b7d673472641e1b51201", "027ab78beb79b172941882ff5f0c02b05a9411136e18957a92c7eb953200b66130"], "sequence": 4294967294, "scriptSig": {"hex": "1600147e5470238c61096cd70568e69536b0baa2168d8b", "asm": "00147e5470238c61096cd70568e69536b0baa2168d8b"}, "vout": 1, "txid": "d6585fdb960f570b96b028e3932e28ca43b846bdc3bbf8d68e668e6bfa2ef1d9"}], "txid": "ab1f7f60c25c9cf39976d270853a754faee0167a7dc8c726efd28c32ee5e798e", "blocktime": 1537870928, "version": 2, "confirmations": 11514, "time": 1537870928, "locktime": 542990, "vsize": 168, "size": 250}