{"hash": "ab20db39acba4370bf0805766142477bc233aa7b38c60fd3421e040ba13ce717", "blockhash": "0000000000000000000baef3f32e3676a92c3b2e5da21b426e4f302fc371ce76", "vout": [{"scriptPubKey": {"reqSigs": 1, "hex": "a914c842b73988b9fcf07d599ec61ba527a678eb9dcd87", "addresses": ["3KwtzQ7yu4WffGdjyR9tmtCsH8ghUFD6v4"], "asm": "OP_HASH160 c842b73988b9fcf07d599ec61ba527a678eb9dcd OP_EQUAL", "type": "scripthash"}, "value": 0.00275224, "n": 0}, {"scriptPubKey": {"reqSigs": 1, "hex": "76a9147735112030097b5dbe00af834de9b94be81f3c5088ac", "addresses": ["1BsJyysNZrsqUc1x2yQxE4atLPpYXmSehq"], "asm": "OP_DUP OP_HASH160 7735112030097b5dbe00af834de9b94be81f3c50 OP_EQUALVERIFY OP_CHECKSIG", "type": "pubkeyhash"}, "value": 0.02092555, "n": 1}], "hex": "0100000001a9588b7c7b90257281f229fa2bf3901458843c7ae13d426a2004da69def710d0010000006b483045022100b622be263ff146adffbe50868b02858cdcd820a1981f2e69805d2d4d351cfeb50220168b082d7d8dec54c22418e963c2f40e570a9e98e1ba5c4343a512b2eb4f7373012102b03f58a55e65e6910a5ebcab35f37e6608f95b5621e7aa3b7915b33ecb5f64d2ffffffff02183304000000000017a914c842b73988b9fcf07d599ec61ba527a678eb9dcd870bee1f00000000001976a9147735112030097b5dbe00af834de9b94be81f3c5088ac00000000", "vin": [{"sequence": 4294967295, "scriptSig": {"hex": "483045022100b622be263ff146adffbe50868b02858cdcd820a1981f2e69805d2d4d351cfeb50220168b082d7d8dec54c22418e963c2f40e570a9e98e1ba5c4343a512b2eb4f7373012102b03f58a55e65e6910a5ebcab35f37e6608f95b5621e7aa3b7915b33ecb5f64d2", "asm": "3045022100b622be263ff146adffbe50868b02858cdcd820a1981f2e69805d2d4d351cfeb50220168b082d7d8dec54c22418e963c2f40e570a9e98e1ba5c4343a512b2eb4f7373[ALL] 02b03f58a55e65e6910a5ebcab35f37e6608f95b5621e7aa3b7915b33ecb5f64d2"}, "vout": 1, "txid": "d010f7de69da04206a423de17a3c84581490f32bfa29f2817225907b7c8b58a9"}], "txid": "ab20db39acba4370bf0805766142477bc233aa7b38c60fd3421e040ba13ce717", "blocktime": 1537876114, "version": 1, "confirmations": 11460, "time": 1537876114, "locktime": 0, "vsize": 224, "size": 224}