{"hash": "ab24bbf196407dafb06feae9aadad4e9d48a9f3264f0fe01cfc252f95ae0e8a4", "blockhash": "000000000000000000022b45ed06c6f4ccd3cf7fb5ba4856ebd2e58215665228", "vout": [{"scriptPubKey": {"reqSigs": 1, "hex": "76a9142e32d216a04c2cd65f315bad867106162425d5d188ac", "addresses": ["15DGxuWn7cYGGT5rwu6KuqAcKMB23VFWVE"], "asm": "OP_DUP OP_HASH160 2e32d216a04c2cd65f315bad867106162425d5d1 OP_EQUALVERIFY OP_CHECKSIG", "type": "pubkeyhash"}, "value": 0.01023246, "n": 0}, {"scriptPubKey": {"reqSigs": 1, "hex": "76a914b56649efa682f8784bef66f18cc44c90a7d00b0088ac", "addresses": ["1HY9qscXv5qfYi6wYst4oeH292NcFzR3Bz"], "asm": "OP_DUP OP_HASH160 b56649efa682f8784bef66f18cc44c90a7d00b00 OP_EQUALVERIFY OP_CHECKSIG", "type": "pubkeyhash"}, "value": 0.26701982, "n": 1}], "hex": "01000000013853bef92c5fec26ddcb72c5d779a489fd93d8f34e92b30e5490c734ce00737a020000006b483045022100badbc41474a48c6fca1a48960facd43c18c80e22f895d3e32b3a235338778f31022008ed6c9d2e64521d506c87b1dddb53df360db2cb7ad767f555230cef636b5eea012102b8dcffa5bec807b68f67f067361a38e4143fd10cef8a95049ca8ebd950f0a317fdffffff020e9d0f00000000001976a9142e32d216a04c2cd65f315bad867106162425d5d188ac9e709701000000001976a914b56649efa682f8784bef66f18cc44c90a7d00b0088ac0b490800", "vin": [{"sequence": 4294967293, "scriptSig": {"hex": "483045022100badbc41474a48c6fca1a48960facd43c18c80e22f895d3e32b3a235338778f31022008ed6c9d2e64521d506c87b1dddb53df360db2cb7ad767f555230cef636b5eea012102b8dcffa5bec807b68f67f067361a38e4143fd10cef8a95049ca8ebd950f0a317", "asm": "3045022100badbc41474a48c6fca1a48960facd43c18c80e22f895d3e32b3a235338778f31022008ed6c9d2e64521d506c87b1dddb53df360db2cb7ad767f555230cef636b5eea[ALL] 02b8dcffa5bec807b68f67f067361a38e4143fd10cef8a95049ca8ebd950f0a317"}, "vout": 2, "txid": "7a7300ce34c790540eb3924ef3d893fd89a479d7c572cbdd26ec5f2cf9be5338"}], "txid": "ab24bbf196407dafb06feae9aadad4e9d48a9f3264f0fe01cfc252f95ae0e8a4", "blocktime": 1537869901, "version": 1, "confirmations": 11524, "time": 1537869901, "locktime": 542987, "vsize": 226, "size": 226}