{"hash": "94397f8bd68897cc2d00ae68c9f170325f4592d7447d4a9173e317dd7d76414a", "blockhash": "0000000000000000001f76057863aec43deb6fa401d9628bb513d65a8098bfab", "vout": [{"scriptPubKey": {"reqSigs": 1, "hex": "a914b44337f216fcdcf0a5895a72e8c4169a68ef293e87", "addresses": ["3J8A5VuG2KUQmCweiwHBDfv67VqWTciCM2"], "asm": "OP_HASH160 b44337f216fcdcf0a5895a72e8c4169a68ef293e OP_EQUAL", "type": "scripthash"}, "value": 0.01170627, "n": 0}], "hex": "010000000001014079a81907d6693db4733184a403a3ad5d2f701e5eec8de6b89d664d724425600100000017160014181c301798d1c13e1e802791032b5f66ccca6e75ffffffff01c3dc11000000000017a914b44337f216fcdcf0a5895a72e8c4169a68ef293e8702483045022100898bfdd86e0c7682704f3542eb03edd57455c636adaf9ebd1b253d6fd7ab61a502203e6290dfa561fce45f0706bca2b8d18e4bf7f0b5e3dcb6e8de76a85167b843350121031d58058f4ce33acad21c20ae38de70dbe88785ee043b4122422e811d846ee22800000000", "vin": [{"txinwitness": ["3045022100898bfdd86e0c7682704f3542eb03edd57455c636adaf9ebd1b253d6fd7ab61a502203e6290dfa561fce45f0706bca2b8d18e4bf7f0b5e3dcb6e8de76a85167b8433501", "031d58058f4ce33acad21c20ae38de70dbe88785ee043b4122422e811d846ee228"], "sequence": 4294967295, "scriptSig": {"hex": "160014181c301798d1c13e1e802791032b5f66ccca6e75", "asm": "0014181c301798d1c13e1e802791032b5f66ccca6e75"}, "vout": 1, "txid": "602544724d669db8e68dec5e1e702f5dada303a4843173b43d69d60719a87940"}], "txid": "ab2d8ccbbb9294940f509bdb70c3841cd16349d3dff1473bac21b68ba3bcbed2", "blocktime": 1537873891, "version": 1, "confirmations": 11478, "time": 1537873891, "locktime": 0, "vsize": 134, "size": 216}