{"hash": "1db57fc7fe40a0d7ee987ea01a123e2622ccf8beb2e5478cabd1d8f5875f4711", "blockhash": "0000000000000000001cda96e906b7601b7a6fb1a3b62bca570a9e5d8f4b3de1", "vout": [{"scriptPubKey": {"reqSigs": 1, "hex": "00141e3195f1453e9707a8e61cddee63178f7e3b1a30", "addresses": ["bc1qrccetu2986ts028xrnw7ucch3alrkx3s57skn5"], "asm": "0 1e3195f1453e9707a8e61cddee63178f7e3b1a30", "type": "witness_v0_keyhash"}, "value": 0.00286304, "n": 0}, {"scriptPubKey": {"reqSigs": 1, "hex": "76a914a4ee6fe77398f0380167c1db8a32d009248133dc88ac", "addresses": ["1G35TN177x16MnG54F2RMDragmmDKgamT7"], "asm": "OP_DUP OP_HASH160 a4ee6fe77398f0380167c1db8a32d009248133dc OP_EQUALVERIFY OP_CHECKSIG", "type": "pubkeyhash"}, "value": 0.14999507, "n": 1}], "hex": "01000000000101c98414220d0cce075b0ea9b1f17e999b2fd5e0175cfeb0cee94124ed5e29dff90100000000ffffffff02605e0400000000001600141e3195f1453e9707a8e61cddee63178f7e3b1a30d3dfe400000000001976a914a4ee6fe77398f0380167c1db8a32d009248133dc88ac0247304402201cb7381c1363cfd4ad41b3128317bbb1a7e22e7d359655a9e930df0ba10d025c02207c4c7065c9ef2d319e7bbf9f484c6e990fbd170c8f18659931f45b1c1dec4a4b012103459427869fef0c559580b6dbfafd6942800aad51d0bfa707ed7c9303b3b2755200000000", "vin": [{"txinwitness": ["304402201cb7381c1363cfd4ad41b3128317bbb1a7e22e7d359655a9e930df0ba10d025c02207c4c7065c9ef2d319e7bbf9f484c6e990fbd170c8f18659931f45b1c1dec4a4b01", "03459427869fef0c559580b6dbfafd6942800aad51d0bfa707ed7c9303b3b27552"], "sequence": 4294967295, "scriptSig": {"hex": "", "asm": ""}, "vout": 1, "txid": "f9df295eed2441e9ceb0fe5c17e0d52f9b997ef1b1a90e5b07ce0c0d221484c9"}], "txid": "ab2eaa7bb6d072717872634b8196bca61255b6b5d6c41ccd7ae2853788d92394", "blocktime": 1537873282, "version": 1, "confirmations": 11484, "time": 1537873282, "locktime": 0, "vsize": 144, "size": 225}