{"hash": "ab2fa142f4a12974855172255a437e38a669a0fd849fa6b66e7402856b523cd9", "blockhash": "00000000000000000017f5eb5941039fbcee6240d03bc1f2f8e35350df66a1d8", "vout": [{"scriptPubKey": {"reqSigs": 1, "hex": "a9149ed4bb10aa53c2a199947d338d20c9a840624f9387", "addresses": ["3GAqXeENPbfJLyeJK9cXcLwHLyBb2bmCyy"], "asm": "OP_HASH160 9ed4bb10aa53c2a199947d338d20c9a840624f93 OP_EQUAL", "type": "scripthash"}, "value": 0.070145, "n": 0}, {"scriptPubKey": {"reqSigs": 1, "hex": "76a914a2338f37d2908379da37e6eabaeeed22a5636c3488ac", "addresses": ["1FneEVQ3KW6eZ2XNyJXiJuGrKgXwmzNNiR"], "asm": "OP_DUP OP_HASH160 a2338f37d2908379da37e6eabaeeed22a5636c34 OP_EQUALVERIFY OP_CHECKSIG", "type": "pubkeyhash"}, "value": 15.29485009, "n": 1}], "hex": "0200000001db15950a0535eae6eabe1c017c38f4faf8384b0ae58563fd533615975dd063c9010000006b483045022100d70734086d967c3728345ceb8936f0ad2bec49ed73815fdfdb94d2374ca3308602205449cdc83c06d488e2bb3cd8e89b13ce7eafdce44be85792a19deb99555b590c0121031b4699391578680a11b81277ff428cfc8d03c13369ea76f6cfa90e33bcc243a4ffffffff0264086b000000000017a9149ed4bb10aa53c2a199947d338d20c9a840624f9387d1162a5b000000001976a914a2338f37d2908379da37e6eabaeeed22a5636c3488ac00000000", "vin": [{"sequence": 4294967295, "scriptSig": {"hex": "483045022100d70734086d967c3728345ceb8936f0ad2bec49ed73815fdfdb94d2374ca3308602205449cdc83c06d488e2bb3cd8e89b13ce7eafdce44be85792a19deb99555b590c0121031b4699391578680a11b81277ff428cfc8d03c13369ea76f6cfa90e33bcc243a4", "asm": "3045022100d70734086d967c3728345ceb8936f0ad2bec49ed73815fdfdb94d2374ca3308602205449cdc83c06d488e2bb3cd8e89b13ce7eafdce44be85792a19deb99555b590c[ALL] 031b4699391578680a11b81277ff428cfc8d03c13369ea76f6cfa90e33bcc243a4"}, "vout": 1, "txid": "c963d05d97153653fd6385e50a4b38f8faf4387c011cbeeae6ea35050a9515db"}], "txid": "ab2fa142f4a12974855172255a437e38a669a0fd849fa6b66e7402856b523cd9", "blocktime": 1537874412, "version": 2, "confirmations": 11468, "time": 1537874412, "locktime": 0, "vsize": 224, "size": 224}