{"hash": "ab3af8890daf1cff481c0c1d90bc497190979f2352eb3f4d51d6e9f00f26d9f9", "blockhash": "0000000000000000000baef3f32e3676a92c3b2e5da21b426e4f302fc371ce76", "vout": [{"scriptPubKey": {"reqSigs": 1, "hex": "76a914a25dec4d0011064ef106a983c39c7a540699f22088ac", "addresses": ["1FoWyxwPXuj4C6abqwhjDWdz6D4PZgYRjA"], "asm": "OP_DUP OP_HASH160 a25dec4d0011064ef106a983c39c7a540699f220 OP_EQUALVERIFY OP_CHECKSIG", "type": "pubkeyhash"}, "value": 0.01995188, "n": 0}, {"scriptPubKey": {"type": "nulldata", "hex": "6a146f6d6e69000000000000001f00000af257b76480", "asm": "OP_RETURN 6f6d6e69000000000000001f00000af257b76480"}, "value": 0.0, "n": 1}, {"scriptPubKey": {"reqSigs": 1, "hex": "76a91433fda897bbd12696192fac4585004a19fdac148888ac", "addresses": ["15juLHnhAPQ4nwYvmLQZkqarebpA1V4oiF"], "asm": "OP_DUP OP_HASH160 33fda897bbd12696192fac4585004a19fdac1488 OP_EQUALVERIFY OP_CHECKSIG", "type": "pubkeyhash"}, "value": 5.46e-06, "n": 2}], "hex": "0100000001a44813c76173a4fe9689194c29809e35be05f1741d9b5e1e9e8bd44070ac1fea960000006a47304402204bfc2f889a35e007138ba817e3a01523c34629b041becdb15496afa64718312e02202ed68ab3f50f304b1571560b18af13d49d23482971662414ed7d891ce5e46724012103da5bac7b36d5aa38f531c6b9601e21bb598a4b6716ebed38b009a55dabde9440feffffff03b4711e00000000001976a914a25dec4d0011064ef106a983c39c7a540699f22088ac0000000000000000166a146f6d6e69000000000000001f00000af257b7648022020000000000001976a91433fda897bbd12696192fac4585004a19fdac148888ac17490800", "vin": [{"sequence": 4294967294, "scriptSig": {"hex": "47304402204bfc2f889a35e007138ba817e3a01523c34629b041becdb15496afa64718312e02202ed68ab3f50f304b1571560b18af13d49d23482971662414ed7d891ce5e46724012103da5bac7b36d5aa38f531c6b9601e21bb598a4b6716ebed38b009a55dabde9440", "asm": "304402204bfc2f889a35e007138ba817e3a01523c34629b041becdb15496afa64718312e02202ed68ab3f50f304b1571560b18af13d49d23482971662414ed7d891ce5e46724[ALL] 03da5bac7b36d5aa38f531c6b9601e21bb598a4b6716ebed38b009a55dabde9440"}, "vout": 150, "txid": "ea1fac7040d48b9e1e5e9b1d74f105be359e80294c198996fea47361c71348a4"}], "txid": "ab3af8890daf1cff481c0c1d90bc497190979f2352eb3f4d51d6e9f00f26d9f9", "blocktime": 1537876114, "version": 1, "confirmations": 11459, "time": 1537876114, "locktime": 542999, "vsize": 256, "size": 256}