{"hash": "9b37467807d3fe48889868c54cf851ed0eb21ceb48c19ccce6cc8e5e2289560f", "blockhash": "00000000000000000004ffacab907a6b429b9a5745fa0b75af4234bf69dd7176", "vout": [{"scriptPubKey": {"reqSigs": 1, "hex": "a9148ba364ec694e2ab2a690179301fc47edabd4e90787", "addresses": ["3ERMb3BgU5mBo1qCLP74RFdYt7KP6HaYoY"], "asm": "OP_HASH160 8ba364ec694e2ab2a690179301fc47edabd4e907 OP_EQUAL", "type": "scripthash"}, "value": 0.1205, "n": 0}, {"scriptPubKey": {"reqSigs": 1, "hex": "a914610b961b5bda04478cfc7d111257fb446722d01587", "addresses": ["3AY9MBhoiAgKmojfdESmcsVmYbXkujHfuZ"], "asm": "OP_HASH160 610b961b5bda04478cfc7d111257fb446722d015 OP_EQUAL", "type": "scripthash"}, "value": 0.022445, "n": 1}, {"scriptPubKey": {"reqSigs": 1, "hex": "76a9144b9d065d12509c74cfa104f2a5afddaf7a40770288ac", "addresses": ["17tonfcHaQhGNZignjabUJcxyxRkt2PExE"], "asm": "OP_DUP OP_HASH160 4b9d065d12509c74cfa104f2a5afddaf7a407702 OP_EQUALVERIFY OP_CHECKSIG", "type": "pubkeyhash"}, "value": 0.27523, "n": 2}, {"scriptPubKey": {"reqSigs": 1, "hex": "a9146c289305644c1bc476ab79e2aa0949ecfb4920a787", "addresses": ["3BYuWQvauCbGBaCQ8oGjvAUwLNnkg4pmiZ"], "asm": "OP_HASH160 6c289305644c1bc476ab79e2aa0949ecfb4920a7 OP_EQUAL", "type": "scripthash"}, "value": 0.04632208, "n": 3}, {"scriptPubKey": {"reqSigs": 1, "hex": "76a9140e0cd281c5426ac9edd6592d73e08d457e0efa8a88ac", "addresses": ["12HHpbTgK4waFWtBtahXu3XtShwBGqQoGL"], "asm": "OP_DUP OP_HASH160 0e0cd281c5426ac9edd6592d73e08d457e0efa8a OP_EQUALVERIFY OP_CHECKSIG", "type": "pubkeyhash"}, "value": 2.33736624, "n": 4}, {"scriptPubKey": {"reqSigs": 1, "hex": "a914e4cfa0e1683eb6adb10cdf17ff61109b908fa23087", "addresses": ["3NYriZKGb1x2p3uvnPKfZo7im6vq8EGMHo"], "asm": "OP_HASH160 e4cfa0e1683eb6adb10cdf17ff61109b908fa230 OP_EQUAL", "type": "scripthash"}, "value": 1.1276, "n": 5}, {"scriptPubKey": {"reqSigs": 1, "hex": "a9149c310406699ba2496a1832cb3eb519893d30348487", "addresses": ["3Fvt49A1zGTQJ51tGLdtupjyKGNCZ4fhM3"], "asm": "OP_HASH160 9c310406699ba2496a1832cb3eb519893d303484 OP_EQUAL", "type": "scripthash"}, "value": 3.91031, "n": 6}, {"scriptPubKey": {"reqSigs": 1, "hex": "76a91435bbe6968883f9619f22fb2c3d0d9e52682cce6a88ac", "addresses": ["15u7ujrjVzMgo69ef2x6UTj2jatRqGm4kK"], "asm": "OP_DUP OP_HASH160 35bbe6968883f9619f22fb2c3d0d9e52682cce6a OP_EQUALVERIFY OP_CHECKSIG", "type": "pubkeyhash"}, "value": 0.0059, "n": 7}, {"scriptPubKey": {"reqSigs": 1, "hex": "76a9144508712c8f1a911d042590e33576c74f6fb66cd788ac", "addresses": ["17J1joZP4TN9CVksCwpbXuMy4bW7AmzTHn"], "asm": "OP_DUP OP_HASH160 4508712c8f1a911d042590e33576c74f6fb66cd7 OP_EQUALVERIFY OP_CHECKSIG", "type": "pubkeyhash"}, "value": 0.0575, "n": 8}, {"scriptPubKey": {"reqSigs": 1, "hex": "a9148799987b694c70b2079121ed5659904e8e4764c187", "addresses": ["3E419TCbyKuT8MGVKfsHT5sZjQfXg3avMt"], "asm": "OP_HASH160 8799987b694c70b2079121ed5659904e8e4764c1 OP_EQUAL", "type": "scripthash"}, "value": 0.9943, "n": 9}, {"scriptPubKey": {"reqSigs": 1, "hex": "76a91487a95e6c25923dc0ab7fc107c0e31d86ecae3a1188ac", "addresses": ["1DNK7rKG26PqmNF8wnxhEa9sp24GgU4axx"], "asm": "OP_DUP OP_HASH160 87a95e6c25923dc0ab7fc107c0e31d86ecae3a11 OP_EQUALVERIFY OP_CHECKSIG", "type": "pubkeyhash"}, "value": 0.0195, "n": 10}, {"scriptPubKey": {"reqSigs": 1, "hex": "76a9140ee6fd16ac0522b19c9e73ded5a9cd5019432a3888ac", "addresses": ["12MoB4J6u23WsP3eL9xLdNVAB8DffZktkM"], "asm": "OP_DUP OP_HASH160 0ee6fd16ac0522b19c9e73ded5a9cd5019432a38 OP_EQUALVERIFY OP_CHECKSIG", "type": "pubkeyhash"}, "value": 0.02175, "n": 11}, {"scriptPubKey": {"reqSigs": 1, "hex": "76a914d0d8836f33f3b13ccded4c65743d8db52b7fa08388ac", "addresses": ["1L3GvWxkhPyVkTdHbUaEe8ukfQFohnGsMQ"], "asm": "OP_DUP OP_HASH160 d0d8836f33f3b13ccded4c65743d8db52b7fa083 OP_EQUALVERIFY OP_CHECKSIG", "type": "pubkeyhash"}, "value": 0.4995, "n": 12}, {"scriptPubKey": {"reqSigs": 1, "hex": "a9145fd3a557754d6e8774addfa191eb77e6fd11342487", "addresses": ["3ARhfBQSmVYFuDiVCTVf9kWuDktXjYfgAJ"], "asm": "OP_HASH160 5fd3a557754d6e8774addfa191eb77e6fd113424 OP_EQUAL", "type": "scripthash"}, "value": 2.75271853, "n": 13}], "hex": "0100000000010a38a61a563b0705068d9fdc9e4ce4487363c3ecc52b364f2f240b1a76bd425440000000002322002097b008509e38e950acec514d34dbc6fa93bfad2ca8265ed5330994dc6ac7d962ffffffffb505fd4a2650d069573f7997838661077d73f0cca43a0edc514c0b6eaa2ee5ae000000002322002097b008509e38e950acec514d34dbc6fa93bfad2ca8265ed5330994dc6ac7d962ffffffff4155027351b0c70960819cb1525a79c2702f9c4b48e90ec99be418ad03df5b240500000023220020444b4e515d9541893035c5ac9810c321004d47d811742ebdf777615e8b56f007ffffffffb06443c7b03bc30fae68e891bdf4f53510bde2bd8167756a0b7c94dff251fc150000000023220020be024a676705dc92eeb16db6c342c7f8a1c082d4d341b93292a72d21724efa91ffffffff38359ed80a07de2d0decd3c76ae52687a562370e2d0a06f0196214a321c4fa9301000000232200202afac2f21c1192f9c2a38a04a81c42118962e413ff26bb3d1ccd04f376ed982affffffff823ab5ba0aa52098d1a6b9ef6fdb16ecd81da45525c7bde39f0574cfd6f1bc4012000000232200205afafa23a27ad028fda830de027bf841b30dd0afd1f7ea75aff801014863a11fffffffffbb99e921058c35d3c7aca5f3cf7a7f08aa5ee614a466a2aa2a14fa79a5ebef7a00000000232200200c6f000d3fb1d1a5e0081ba02b4f92876fd4fe45eeea7b02f4299b409881720dffffffffaf33e842689f65c0827d1d9b31ca0e57847ad6b179a28cf82aa779afb74f482c2800000023220020438c47c2d63ad9c5726b238858c689ca49e6f775e0904c92f4c04494734cf1f7ffffffff2006e38f1d8d889b0d884fddb1bd9c4fead5ca3f4bbf6112f75e59b6b25a744b0100000023220020d62b692bd0874c76067ae8940621c32fe6310e2c8a7ba8ce21eff0a5053d68ebffffffffac5d709beab2b147f091b1425bdf88fe5a94fdeea24b92ba7b8b2275c10d8eb800000000232200203a37eb76d37e2f8c286ade0a7a058e9ddfd77b52a108233ffca1f42394534c90ffffffff0e50deb7000000000017a9148ba364ec694e2ab2a690179301fc47edabd4e90787943f22000000000017a914610b961b5bda04478cfc7d111257fb446722d01587b8f7a301000000001976a9144b9d065d12509c74cfa104f2a5afddaf7a40770288ac90ae46000000000017a9146c289305644c1bc476ab79e2aa0949ecfb4920a787b089ee0d000000001976a9140e0cd281c5426ac9edd6592d73e08d457e0efa8a88acc094b8060000000017a914e4cfa0e1683eb6adb10cdf17ff61109b908fa23087d8a84e170000000017a9149c310406699ba2496a1832cb3eb519893d30348487b0000900000000001976a91435bbe6968883f9619f22fb2c3d0d9e52682cce6a88acf0bc5700000000001976a9144508712c8f1a911d042590e33576c74f6fb66cd788ac702eed050000000017a9148799987b694c70b2079121ed5659904e8e4764c18730c11d00000000001976a91487a95e6c25923dc0ab7fc107c0e31d86ecae3a1188ac18302100000000001976a9140ee6fd16ac0522b19c9e73ded5a9cd5019432a3888ac302dfa02000000001976a914d0d8836f33f3b13ccded4c65743d8db52b7fa08388acad5068100000000017a9145fd3a557754d6e8774addfa191eb77e6fd1134248704004730440220068dca5e1b5113436dfb07b6a5c37cd99ca9e8ac41b78f3db4b93f707ac130e3022012fd39771ae63c2c26ba3802885c7c3fd54b96dd29c1f8a1bd3e082d7bc24b350147304402202634a4816cdc058d06d7dd27ae8958a82e78e77f796cacef046badf556d0bf6102203f7157a921166972eee0c5325374a88f688c9993a14df05b105a4291659a43c501695221036772dc6eeeeefaad8da9359d4c4dba481e71746c188e0956310354c51554f33521033eb24388b509e3b481d630b1c666430fae2dd477f29f7f989c6e733a6a6a2759210316fa477b2a4e81ef1b02670d4a37f785c672016988a646ebea108d618067cd8853ae0400483045022100ea45a497bb464f302f06f24e9f4aaf80d0d287dd4f3d03b98876d94f683d2ee302206c718a47f4505685088822210629700b9e55ba0c5ee530b25abd6f29c0603d8101483045022100cdd37b2fa81d39c2aba40854c44059719a9ee0e0648533508dd7b1061e65901c02202c9597bfad1f75387e594cef2216e15c372c8570c81cf977d5c292bf53262bc601695221036772dc6eeeeefaad8da9359d4c4dba481e71746c188e0956310354c51554f33521033eb24388b509e3b481d630b1c666430fae2dd477f29f7f989c6e733a6a6a2759210316fa477b2a4e81ef1b02670d4a37f785c672016988a646ebea108d618067cd8853ae0400483045022100ec1c83707ba88158b5ea523e6589a60a9faf8e6728ca95f7b239a8a1be60381a022058d6e5426aa172b5a09caecf6f8ce3a05510d624a42e98f398809f9995e41ec101483045022100d2f1e732af3b4b5a1bbd4da5dda9f685475d65604eae09cfab6f2b7041126e7202201cc8a00f2c0f951c2478f0accf03ff50623ae87e0e7a5de84f835e642fbf01a70169522102f961c47b2d60810d981c78214f9a40f5904a634c124ee1d918e8b6226b2774922103bd2197110c769768ec0a580c7e28353fe7e5927fd5ecd09c39463d4aebbd7ae5210242cde7c603b50241940accdd44c4dd1760dc541d2fc338ab20e73e9116b5858a53ae0400483045022100abb766c478c14838743afeb729b339ecbbe2aae30f556bbc6975ed5702f05dea0220693352ca317bf24e8f6a7845cf408bac945e4ff8b99ac0a5cf640ad876b0eac7014730440220765e979b85ebc1a76848659809a9e49324c4fa33fb07b499d428aa0b68cd53bc02200fe595b56307cc9a5779fda2927a474fb7cf4cb16b8842b8a2e27d5c790d59ad01695221025c5a6cdb357aa0327ffda54a6286a51dcd5b7e4a2d01adbb579491a31bb2e57b21032ebde16ef358f3eee2c2fb6ac2d6f2a1eef936616327713179c99a311af067b9210395eb5127a0b4a4d36331bce0bd784c6fcbde4673bfe559279d52337ec702dc5e53ae0400473044022022bf0e6a4eba26d0111d797044178c45cb40e0189498dcfc88160d4923e9a5bc02204b082ec2fd16e7147445d50dc891f20b37da67459e32e507a08d80c3b37bd63401483045022100cba4819af42c2867b1f58c0ba5ca3f2a95bbc5ecc00790fd1e302d6ed42ab0d302200ff1e7269191696b17135149702b65c15d975af5062d2456467b1b09cd8ef8610169522103471f347aec952fa8946ff59ff60acd5ee79c23f582b38b3fb862b653f623dfc92102c4f02f08776caea4b72e935078e119507ae40fa49988e9fcc7ae83367d0496c32103459e4da1272b170bad8483d688ff266e1ae10e9dda93f09798b1e4d82565a90253ae040047304402207f6aff7dc0eb6a72396b2c4ff8369c1b933e872e969097ebc6b78f687fa0dbbb02203c6fce267964100b85caa351badb5d43bc84060a788ad86163abcca4012210710148304502210082269e4e7a10ac3e83d48415e6285caf9116af27144491cc99af1405522a6f5a02204b88c6b852ec504321f68f5699d840d741b986fff138d16d6ad2f6c157860c5a0169522102dc4acc34f7795abfbc45b03fb843d838dd1e88aae6580fbe46a48db50edd2ef22102647499b90e64b06be6ae10d284062924ecc89f933f6ca8f1dafe775f717d8cef21039bce471f7fbcc19399e73af271a633a230ed374cfed15c2fee4c47a8e5192def53ae040047304402205c534ae9a6fcc6e475cff268dc305781c112e90c0ade0723433bf2cbc2c450460220432f0d865fd0daffc1adeb00b3304c3d167287a166e6ec544f39a79aa7a642e301483045022100827f86eb6175535940e236ee32590210c96503bc4ff6541c0e15673fd11a95bf022050306d3e3e224da7a31a4a8581582d3206b67a3eea3b8932e0cfc27c1b513f2f0169522103ed1a395653b4c823c9d9901c9ef754386416efbc65531dc4b7cb9a0f9e2814fc2103c166c53b3fbdca1aedda2b0467653e03658471f9d60965b12bcd95532cbd619f2102c2e98d1abf5caaa1800dfa7328b7d3d08121624ef1a116a0510346d6e3d1fb6b53ae0400483045022100e53a2d6f1ad08d19f47c96fb500e9bf48920291639f1cb6231607433bd134c0b0220452d370a973a6bb1f68b90d32c4e2d32ce5b149eeb7caac94d88c36fd8cb105f0147304402202c941d54bd721f704a31a646063cb58adfb72614afee1c6917450542e14fc5b90220087037b584fe1114945e7103062705580073269058990f79e5c48ba3473377560169522102654b9a521c26048cc3ae8e4239997c7c73dd29d10eacea6061bc07973bfaa2de2103a5555ac46d019e81bbfda2264daac72e8d4fb924a1c2e8207884d4a53d70d2722102155bbf54bc06ae9a656f2c8988a878ac0b38a567ed2b3537ad630680498b54e153ae04004830450221008ded5bd8ca876c6e6445e111decb8abf3c82703c0180e1fcf2e0d1cb112daef702205aa48b04396ed7708e3e407b08061a69500022ee09ecce773a865a3b67a83e370147304402206f2fba29f26be0b4acddf883844b93501728b6597323d8597c52b001306e62020220170e0758406666d6c451d0e42cb007d90fe2c0a917a89e67044d54f68d13befc0169522103eed1405c8022f8f0d52b352b44d0d5f6b2407ac79a7ef02eb9e76205e88b65b32103329bae350cc1807efb7d2e96cc51722fa8f967689502d2c225342eb0fa04dfbc2102eba447e4e6d4d44a0c9009e8d1f4383f844107943d996dcd948b5ff79f53b8b153ae04004830450221009a58f87e14d080280a6e6e1bfed168726eb197e4b7a13911fa002c3d2cb2355302201656782c7810f26e0aadfd209f748f8b6aebc8f6bd8ffd2d582d2fa66d1669c0014830450221009be87ba6a9247af7201854957630f49ea46c045afb5635af85ca5264a6f45dec022020b869537743675d7d83f611d1f84a33d7e9bce3aad3578e1c65cc5ad73d97740169522102b1c2263a9194b967ba4eff1b6a35041c7e784c0e2c0223717c6c6af94abd1d5a21021ce73a6e4670ef0b8acadaacaf61183abf287f7d8c5f5f3ce2e9434f6b26df262103e95c02e5a60d66ef560b60802a53c9aab33707c80f277be2c55e45e92b00bc4d53ae00000000", "vin": [{"txinwitness": ["", "30440220068dca5e1b5113436dfb07b6a5c37cd99ca9e8ac41b78f3db4b93f707ac130e3022012fd39771ae63c2c26ba3802885c7c3fd54b96dd29c1f8a1bd3e082d7bc24b3501", "304402202634a4816cdc058d06d7dd27ae8958a82e78e77f796cacef046badf556d0bf6102203f7157a921166972eee0c5325374a88f688c9993a14df05b105a4291659a43c501", "5221036772dc6eeeeefaad8da9359d4c4dba481e71746c188e0956310354c51554f33521033eb24388b509e3b481d630b1c666430fae2dd477f29f7f989c6e733a6a6a2759210316fa477b2a4e81ef1b02670d4a37f785c672016988a646ebea108d618067cd8853ae"], "sequence": 4294967295, "scriptSig": {"hex": "22002097b008509e38e950acec514d34dbc6fa93bfad2ca8265ed5330994dc6ac7d962", "asm": "002097b008509e38e950acec514d34dbc6fa93bfad2ca8265ed5330994dc6ac7d962"}, "vout": 0, "txid": "405442bd761a0b242f4f362bc5ecc3637348e44c9edc9f8d0605073b561aa638"}, {"txinwitness": ["", "3045022100ea45a497bb464f302f06f24e9f4aaf80d0d287dd4f3d03b98876d94f683d2ee302206c718a47f4505685088822210629700b9e55ba0c5ee530b25abd6f29c0603d8101", "3045022100cdd37b2fa81d39c2aba40854c44059719a9ee0e0648533508dd7b1061e65901c02202c9597bfad1f75387e594cef2216e15c372c8570c81cf977d5c292bf53262bc601", "5221036772dc6eeeeefaad8da9359d4c4dba481e71746c188e0956310354c51554f33521033eb24388b509e3b481d630b1c666430fae2dd477f29f7f989c6e733a6a6a2759210316fa477b2a4e81ef1b02670d4a37f785c672016988a646ebea108d618067cd8853ae"], "sequence": 4294967295, "scriptSig": {"hex": "22002097b008509e38e950acec514d34dbc6fa93bfad2ca8265ed5330994dc6ac7d962", "asm": "002097b008509e38e950acec514d34dbc6fa93bfad2ca8265ed5330994dc6ac7d962"}, "vout": 0, "txid": "aee52eaa6e0b4c51dc0e3aa4ccf0737d0761868397793f5769d050264afd05b5"}, {"txinwitness": ["", "3045022100ec1c83707ba88158b5ea523e6589a60a9faf8e6728ca95f7b239a8a1be60381a022058d6e5426aa172b5a09caecf6f8ce3a05510d624a42e98f398809f9995e41ec101", "3045022100d2f1e732af3b4b5a1bbd4da5dda9f685475d65604eae09cfab6f2b7041126e7202201cc8a00f2c0f951c2478f0accf03ff50623ae87e0e7a5de84f835e642fbf01a701", "522102f961c47b2d60810d981c78214f9a40f5904a634c124ee1d918e8b6226b2774922103bd2197110c769768ec0a580c7e28353fe7e5927fd5ecd09c39463d4aebbd7ae5210242cde7c603b50241940accdd44c4dd1760dc541d2fc338ab20e73e9116b5858a53ae"], "sequence": 4294967295, "scriptSig": {"hex": "220020444b4e515d9541893035c5ac9810c321004d47d811742ebdf777615e8b56f007", "asm": "0020444b4e515d9541893035c5ac9810c321004d47d811742ebdf777615e8b56f007"}, "vout": 5, "txid": "245bdf03ad18e49bc90ee9484b9c2f70c2795a52b19c816009c7b05173025541"}, {"txinwitness": ["", "3045022100abb766c478c14838743afeb729b339ecbbe2aae30f556bbc6975ed5702f05dea0220693352ca317bf24e8f6a7845cf408bac945e4ff8b99ac0a5cf640ad876b0eac701", "30440220765e979b85ebc1a76848659809a9e49324c4fa33fb07b499d428aa0b68cd53bc02200fe595b56307cc9a5779fda2927a474fb7cf4cb16b8842b8a2e27d5c790d59ad01", "5221025c5a6cdb357aa0327ffda54a6286a51dcd5b7e4a2d01adbb579491a31bb2e57b21032ebde16ef358f3eee2c2fb6ac2d6f2a1eef936616327713179c99a311af067b9210395eb5127a0b4a4d36331bce0bd784c6fcbde4673bfe559279d52337ec702dc5e53ae"], "sequence": 4294967295, "scriptSig": {"hex": "220020be024a676705dc92eeb16db6c342c7f8a1c082d4d341b93292a72d21724efa91", "asm": "0020be024a676705dc92eeb16db6c342c7f8a1c082d4d341b93292a72d21724efa91"}, "vout": 0, "txid": "15fc51f2df947c0b6a756781bde2bd1035f5f4bd91e868ae0fc33bb0c74364b0"}, {"txinwitness": ["", "3044022022bf0e6a4eba26d0111d797044178c45cb40e0189498dcfc88160d4923e9a5bc02204b082ec2fd16e7147445d50dc891f20b37da67459e32e507a08d80c3b37bd63401", "3045022100cba4819af42c2867b1f58c0ba5ca3f2a95bbc5ecc00790fd1e302d6ed42ab0d302200ff1e7269191696b17135149702b65c15d975af5062d2456467b1b09cd8ef86101", "522103471f347aec952fa8946ff59ff60acd5ee79c23f582b38b3fb862b653f623dfc92102c4f02f08776caea4b72e935078e119507ae40fa49988e9fcc7ae83367d0496c32103459e4da1272b170bad8483d688ff266e1ae10e9dda93f09798b1e4d82565a90253ae"], "sequence": 4294967295, "scriptSig": {"hex": "2200202afac2f21c1192f9c2a38a04a81c42118962e413ff26bb3d1ccd04f376ed982a", "asm": "00202afac2f21c1192f9c2a38a04a81c42118962e413ff26bb3d1ccd04f376ed982a"}, "vout": 1, "txid": "93fac421a3146219f0060a2d0e3762a58726e56ac7d3ec0d2dde070ad89e3538"}, {"txinwitness": ["", "304402207f6aff7dc0eb6a72396b2c4ff8369c1b933e872e969097ebc6b78f687fa0dbbb02203c6fce267964100b85caa351badb5d43bc84060a788ad86163abcca40122107101", "304502210082269e4e7a10ac3e83d48415e6285caf9116af27144491cc99af1405522a6f5a02204b88c6b852ec504321f68f5699d840d741b986fff138d16d6ad2f6c157860c5a01", "522102dc4acc34f7795abfbc45b03fb843d838dd1e88aae6580fbe46a48db50edd2ef22102647499b90e64b06be6ae10d284062924ecc89f933f6ca8f1dafe775f717d8cef21039bce471f7fbcc19399e73af271a633a230ed374cfed15c2fee4c47a8e5192def53ae"], "sequence": 4294967295, "scriptSig": {"hex": "2200205afafa23a27ad028fda830de027bf841b30dd0afd1f7ea75aff801014863a11f", "asm": "00205afafa23a27ad028fda830de027bf841b30dd0afd1f7ea75aff801014863a11f"}, "vout": 18, "txid": "40bcf1d6cf74059fe3bdc72555a41dd8ec16db6fefb9a6d19820a50abab53a82"}, {"txinwitness": ["", "304402205c534ae9a6fcc6e475cff268dc305781c112e90c0ade0723433bf2cbc2c450460220432f0d865fd0daffc1adeb00b3304c3d167287a166e6ec544f39a79aa7a642e301", "3045022100827f86eb6175535940e236ee32590210c96503bc4ff6541c0e15673fd11a95bf022050306d3e3e224da7a31a4a8581582d3206b67a3eea3b8932e0cfc27c1b513f2f01", "522103ed1a395653b4c823c9d9901c9ef754386416efbc65531dc4b7cb9a0f9e2814fc2103c166c53b3fbdca1aedda2b0467653e03658471f9d60965b12bcd95532cbd619f2102c2e98d1abf5caaa1800dfa7328b7d3d08121624ef1a116a0510346d6e3d1fb6b53ae"], "sequence": 4294967295, "scriptSig": {"hex": "2200200c6f000d3fb1d1a5e0081ba02b4f92876fd4fe45eeea7b02f4299b409881720d", "asm": "00200c6f000d3fb1d1a5e0081ba02b4f92876fd4fe45eeea7b02f4299b409881720d"}, "vout": 0, "txid": "7aefeba579fa142aaaa266a414e65eaa087f7acff3a5acc7d3358c0521e999bb"}, {"txinwitness": ["", "3045022100e53a2d6f1ad08d19f47c96fb500e9bf48920291639f1cb6231607433bd134c0b0220452d370a973a6bb1f68b90d32c4e2d32ce5b149eeb7caac94d88c36fd8cb105f01", "304402202c941d54bd721f704a31a646063cb58adfb72614afee1c6917450542e14fc5b90220087037b584fe1114945e7103062705580073269058990f79e5c48ba34733775601", "522102654b9a521c26048cc3ae8e4239997c7c73dd29d10eacea6061bc07973bfaa2de2103a5555ac46d019e81bbfda2264daac72e8d4fb924a1c2e8207884d4a53d70d2722102155bbf54bc06ae9a656f2c8988a878ac0b38a567ed2b3537ad630680498b54e153ae"], "sequence": 4294967295, "scriptSig": {"hex": "220020438c47c2d63ad9c5726b238858c689ca49e6f775e0904c92f4c04494734cf1f7", "asm": "0020438c47c2d63ad9c5726b238858c689ca49e6f775e0904c92f4c04494734cf1f7"}, "vout": 40, "txid": "2c484fb7af79a72af88ca279b1d67a84570eca319b1d7d82c0659f6842e833af"}, {"txinwitness": ["", "30450221008ded5bd8ca876c6e6445e111decb8abf3c82703c0180e1fcf2e0d1cb112daef702205aa48b04396ed7708e3e407b08061a69500022ee09ecce773a865a3b67a83e3701", "304402206f2fba29f26be0b4acddf883844b93501728b6597323d8597c52b001306e62020220170e0758406666d6c451d0e42cb007d90fe2c0a917a89e67044d54f68d13befc01", "522103eed1405c8022f8f0d52b352b44d0d5f6b2407ac79a7ef02eb9e76205e88b65b32103329bae350cc1807efb7d2e96cc51722fa8f967689502d2c225342eb0fa04dfbc2102eba447e4e6d4d44a0c9009e8d1f4383f844107943d996dcd948b5ff79f53b8b153ae"], "sequence": 4294967295, "scriptSig": {"hex": "220020d62b692bd0874c76067ae8940621c32fe6310e2c8a7ba8ce21eff0a5053d68eb", "asm": "0020d62b692bd0874c76067ae8940621c32fe6310e2c8a7ba8ce21eff0a5053d68eb"}, "vout": 1, "txid": "4b745ab2b6595ef71261bf4b3fcad5ea4f9cbdb1dd4f880d9b888d1d8fe30620"}, {"txinwitness": ["", "30450221009a58f87e14d080280a6e6e1bfed168726eb197e4b7a13911fa002c3d2cb2355302201656782c7810f26e0aadfd209f748f8b6aebc8f6bd8ffd2d582d2fa66d1669c001", "30450221009be87ba6a9247af7201854957630f49ea46c045afb5635af85ca5264a6f45dec022020b869537743675d7d83f611d1f84a33d7e9bce3aad3578e1c65cc5ad73d977401", "522102b1c2263a9194b967ba4eff1b6a35041c7e784c0e2c0223717c6c6af94abd1d5a21021ce73a6e4670ef0b8acadaacaf61183abf287f7d8c5f5f3ce2e9434f6b26df262103e95c02e5a60d66ef560b60802a53c9aab33707c80f277be2c55e45e92b00bc4d53ae"], "sequence": 4294967295, "scriptSig": {"hex": "2200203a37eb76d37e2f8c286ade0a7a058e9ddfd77b52a108233ffca1f42394534c90", "asm": "00203a37eb76d37e2f8c286ade0a7a058e9ddfd77b52a108233ffca1f42394534c90"}, "vout": 0, "txid": "b88e0dc175228b7bba924ba2eefd945afe88df5b42b191f047b1b2ea9b705dac"}], "txid": "ab3a400312a17318782fc0a0ed7eabe328eae29e1ca06b9306b3183f1c30c75a", "blocktime": 1537875543, "version": 1, "confirmations": 11464, "time": 1537875543, "locktime": 0, "vsize": 1866, "size": 3766}