{"hash": "ab3dbc22025f81e2c1a166fb2d5118d64048a75709bdab91bdeb1952535be760", "blockhash": "00000000000000000024a2167bbff67b0be802c0b01cdd79e6331c2be6459f87", "vout": [{"scriptPubKey": {"reqSigs": 1, "hex": "76a9146b8e76ea0be04305605dc2ad4e9ce34890e022aa88ac", "addresses": ["1Aohy8jxH8uPmy9JL7koHHmpR43uqGVvrB"], "asm": "OP_DUP OP_HASH160 6b8e76ea0be04305605dc2ad4e9ce34890e022aa OP_EQUALVERIFY OP_CHECKSIG", "type": "pubkeyhash"}, "value": 0.00646746, "n": 0}, {"scriptPubKey": {"type": "nulldata", "hex": "6a4c500000777e00011c24fedbdf501dd506080eb1bcbefa6b8351586b4e86aeaeacb577c031fce4db30e176335d260975fa9f55f60db25baa0a8f0613b1fc6a4d01231d100759d4ba30d2c37bb011d97e02cf", "asm": "OP_RETURN 0000777e00011c24fedbdf501dd506080eb1bcbefa6b8351586b4e86aeaeacb577c031fce4db30e176335d260975fa9f55f60db25baa0a8f0613b1fc6a4d01231d100759d4ba30d2c37bb011d97e02cf"}, "value": 0.0, "n": 1}], "hex": "0100000001111c162fec31820864f6bb7f23022794434e5c622645a224c649deeb2a431eab010000006b483045022100df7a9edb8a9751a752564e348baff2652d4436c6f76cd655b376193aecba742b0220336e1bbe7cd2af23fca2a097eaa2ee81e7685166f0f790720d44f8dcf738e3d1012103d03cdaeb16c5c559e03e284bff1e07b89a4c83366c49c10fb58d769d90e69e95ffffffff025ade0900000000001976a9146b8e76ea0be04305605dc2ad4e9ce34890e022aa88ac0000000000000000536a4c500000777e00011c24fedbdf501dd506080eb1bcbefa6b8351586b4e86aeaeacb577c031fce4db30e176335d260975fa9f55f60db25baa0a8f0613b1fc6a4d01231d100759d4ba30d2c37bb011d97e02cf00000000", "vin": [{"sequence": 4294967295, "scriptSig": {"hex": "483045022100df7a9edb8a9751a752564e348baff2652d4436c6f76cd655b376193aecba742b0220336e1bbe7cd2af23fca2a097eaa2ee81e7685166f0f790720d44f8dcf738e3d1012103d03cdaeb16c5c559e03e284bff1e07b89a4c83366c49c10fb58d769d90e69e95", "asm": "3045022100df7a9edb8a9751a752564e348baff2652d4436c6f76cd655b376193aecba742b0220336e1bbe7cd2af23fca2a097eaa2ee81e7685166f0f790720d44f8dcf738e3d1[ALL] 03d03cdaeb16c5c559e03e284bff1e07b89a4c83366c49c10fb58d769d90e69e95"}, "vout": 1, "txid": "ab1e432aebde49c624a24526625c4e43942702237fbbf664088231ec2f161c11"}], "txid": "ab3dbc22025f81e2c1a166fb2d5118d64048a75709bdab91bdeb1952535be760", "blocktime": 1537870564, "version": 1, "confirmations": 11515, "time": 1537870564, "locktime": 0, "vsize": 284, "size": 284}