{"hash": "67ac55c9160ac73fa2cde50a88e53a586a1a192820543067010f13a8fb96096c", "blockhash": "0000000000000000000dcc0f55137456b1a82d3642486a52398922ac4d620174", "vout": [{"scriptPubKey": {"reqSigs": 1, "hex": "76a914ea8e61560e682c861b54d22dbf70206f67d8d41988ac", "addresses": ["1NPDge5uuD2aepAWCuhBu9ZJyUbgeVKeAh"], "asm": "OP_DUP OP_HASH160 ea8e61560e682c861b54d22dbf70206f67d8d419 OP_EQUALVERIFY OP_CHECKSIG", "type": "pubkeyhash"}, "value": 0.050475, "n": 0}, {"scriptPubKey": {"reqSigs": 1, "hex": "76a9144f4b9d91c818080c7b90da7dedc0594cafa6a84b88ac", "addresses": ["18EGy1hXEYAi4t5WngsSFVyaQpcDM1dADZ"], "asm": "OP_DUP OP_HASH160 4f4b9d91c818080c7b90da7dedc0594cafa6a84b OP_EQUALVERIFY OP_CHECKSIG", "type": "pubkeyhash"}, "value": 0.00952, "n": 1}, {"scriptPubKey": {"reqSigs": 1, "hex": "a914f5d6d45d99405f28e8581fe888f9265baa72c3cc87", "addresses": ["3Q6tqAJgMXqyFqeewMvzPh1cCUYaT3KFZd"], "asm": "OP_HASH160 f5d6d45d99405f28e8581fe888f9265baa72c3cc OP_EQUAL", "type": "scripthash"}, "value": 11.08471472, "n": 2}, {"scriptPubKey": {"reqSigs": 1, "hex": "a914600a7d4bad898471c086e672c46aa545ad83eb3687", "addresses": ["3ASqMn6LRZXDruVxrjY76x1MVWqgTu9T7u"], "asm": "OP_HASH160 600a7d4bad898471c086e672c46aa545ad83eb36 OP_EQUAL", "type": "scripthash"}, "value": 0.06, "n": 3}, {"scriptPubKey": {"reqSigs": 1, "hex": "76a9145f0314077f2291664aebabc37e538cfeb252ea7288ac", "addresses": ["19fNt71tVjdgDeUXJuUDRRwoGWcf9VMSr4"], "asm": "OP_DUP OP_HASH160 5f0314077f2291664aebabc37e538cfeb252ea72 OP_EQUALVERIFY OP_CHECKSIG", "type": "pubkeyhash"}, "value": 0.05442, "n": 4}], "hex": "02000000000101b39a3e2630e43f6128d60deb02006de968ebc1d87f1e465e4476542d0dc9bd680200000017160014c90ee64a69dc7823980a96a4e04f2c527b2bebdffdffffff05cc044d00000000001976a914ea8e61560e682c861b54d22dbf70206f67d8d41988acc0860e00000000001976a9144f4b9d91c818080c7b90da7dedc0594cafa6a84b88acb0ee11420000000017a914f5d6d45d99405f28e8581fe888f9265baa72c3cc87808d5b000000000017a914600a7d4bad898471c086e672c46aa545ad83eb3687d0095300000000001976a9145f0314077f2291664aebabc37e538cfeb252ea7288ac02483045022100ca32f496fec12e37d4811e6650f971bc09739d22adfa99e7cdf50ae16fd34a8502200298eed0cf9f755b6d98bc21b0c07dd76d21e86e1bae85a8e339a1c4db140fe201210217960a86aac17e40e07a599b0f0eb283f31dda806626f2b2fb34b93e449dadf30c490800", "vin": [{"txinwitness": ["3045022100ca32f496fec12e37d4811e6650f971bc09739d22adfa99e7cdf50ae16fd34a8502200298eed0cf9f755b6d98bc21b0c07dd76d21e86e1bae85a8e339a1c4db140fe201", "0217960a86aac17e40e07a599b0f0eb283f31dda806626f2b2fb34b93e449dadf3"], "sequence": 4294967293, "scriptSig": {"hex": "160014c90ee64a69dc7823980a96a4e04f2c527b2bebdf", "asm": "0014c90ee64a69dc7823980a96a4e04f2c527b2bebdf"}, "vout": 2, "txid": "68bdc90d2d5476445e461e7fd8c1eb68e96d0002eb0dd628613fe430263e9ab3"}], "txid": "ab432b5066d8e0515c0706ea560408771cddf6a64e9fc0c8d6d55efe38baec56", "blocktime": 1537870268, "version": 2, "confirmations": 11518, "time": 1537870268, "locktime": 542988, "vsize": 268, "size": 350}