{"hash": "ab447a0b94f25f8cd7d19cdbf27e7dac1c75958d01d05a1bd099ea37f16f0ebc", "blockhash": "00000000000000000017f5eb5941039fbcee6240d03bc1f2f8e35350df66a1d8", "vout": [{"scriptPubKey": {"reqSigs": 1, "hex": "a914e19e64803e4daea150340244a0f101d53ba6ee0487", "addresses": ["3NFyi1q7q8P2kGD1zWTa7ZkLuitQxbUfkv"], "asm": "OP_HASH160 e19e64803e4daea150340244a0f101d53ba6ee04 OP_EQUAL", "type": "scripthash"}, "value": 0.01080781, "n": 0}, {"scriptPubKey": {"reqSigs": 1, "hex": "76a91449ccb5054e22902bdd16dbace4492f5e1a2167da88ac", "addresses": ["17jDZJaippW446852MS8s2TEpA8eCCTtQ7"], "asm": "OP_DUP OP_HASH160 49ccb5054e22902bdd16dbace4492f5e1a2167da OP_EQUALVERIFY OP_CHECKSIG", "type": "pubkeyhash"}, "value": 108.36700015, "n": 1}], "hex": "0100000001c3e637e6827df8e8cd11d376cae8cbafe96f0dd10d76c57a05930ff83cec1211010000006b48304502210089721b3ccbfd2309026323eba822de9b1fd83212364faabaf881657a170c1db702200d079c55141ecf51f7a9baa14363a6ce0f1a1500a7f635ecae298c913b7e4999012103fcd9afbc2470258032536d93eeaf9d979f175177bcadc0ad9e520cfe84ddeb9dffffffff02cd7d10000000000017a914e19e64803e4daea150340244a0f101d53ba6ee04876febea85020000001976a91449ccb5054e22902bdd16dbace4492f5e1a2167da88ac00000000", "vin": [{"sequence": 4294967295, "scriptSig": {"hex": "48304502210089721b3ccbfd2309026323eba822de9b1fd83212364faabaf881657a170c1db702200d079c55141ecf51f7a9baa14363a6ce0f1a1500a7f635ecae298c913b7e4999012103fcd9afbc2470258032536d93eeaf9d979f175177bcadc0ad9e520cfe84ddeb9d", "asm": "304502210089721b3ccbfd2309026323eba822de9b1fd83212364faabaf881657a170c1db702200d079c55141ecf51f7a9baa14363a6ce0f1a1500a7f635ecae298c913b7e4999[ALL] 03fcd9afbc2470258032536d93eeaf9d979f175177bcadc0ad9e520cfe84ddeb9d"}, "vout": 1, "txid": "1112ec3cf80f93057ac5760dd10d6fe9afcbe8ca76d311cde8f87d82e637e6c3"}], "txid": "ab447a0b94f25f8cd7d19cdbf27e7dac1c75958d01d05a1bd099ea37f16f0ebc", "blocktime": 1537874412, "version": 1, "confirmations": 11466, "time": 1537874412, "locktime": 0, "vsize": 224, "size": 224}