{"hash": "ab4763b01325ebb9e807512649745f577c17ee156246770ec0079b28a0843827", "blockhash": "00000000000000000024a2167bbff67b0be802c0b01cdd79e6331c2be6459f87", "vout": [{"scriptPubKey": {"reqSigs": 1, "hex": "76a9149a342b1bfbc28ff3f45035d07cbfcc97f335c10e88ac", "addresses": ["1F4MZGQNDnAMmq1tERQZsGi5EiRxSEWVf5"], "asm": "OP_DUP OP_HASH160 9a342b1bfbc28ff3f45035d07cbfcc97f335c10e OP_EQUALVERIFY OP_CHECKSIG", "type": "pubkeyhash"}, "value": 0.00795599, "n": 0}], "hex": "0100000001f6e954c8722ede6b165ab11c983908dd7fbb48616a02fd49aa977c41a02241c2000000006a47304402204ab1fdd9d02ee30681d499f41813feaf6c31921e94dc9256d72c01529cf4c23c02207445d80469f11177d4ee1f5ac2337a66f1e92ce938b0b384126244aa3c1d82b4012102cd05982eb8e1084daa862bb3b7c1a10d7254b00c07f8c3109d6f835c238f852dffffffff01cf230c00000000001976a9149a342b1bfbc28ff3f45035d07cbfcc97f335c10e88ac00000000", "vin": [{"sequence": 4294967295, "scriptSig": {"hex": "47304402204ab1fdd9d02ee30681d499f41813feaf6c31921e94dc9256d72c01529cf4c23c02207445d80469f11177d4ee1f5ac2337a66f1e92ce938b0b384126244aa3c1d82b4012102cd05982eb8e1084daa862bb3b7c1a10d7254b00c07f8c3109d6f835c238f852d", "asm": "304402204ab1fdd9d02ee30681d499f41813feaf6c31921e94dc9256d72c01529cf4c23c02207445d80469f11177d4ee1f5ac2337a66f1e92ce938b0b384126244aa3c1d82b4[ALL] 02cd05982eb8e1084daa862bb3b7c1a10d7254b00c07f8c3109d6f835c238f852d"}, "vout": 0, "txid": "c24122a0417c97aa49fd026a6148bb7fdd0839981cb15a166bde2e72c854e9f6"}], "txid": "ab4763b01325ebb9e807512649745f577c17ee156246770ec0079b28a0843827", "blocktime": 1537870564, "version": 1, "confirmations": 11515, "time": 1537870564, "locktime": 0, "vsize": 191, "size": 191}