{"hash": "ab4970f574cea4d2f780ba7c8a5a291d96cb4b49853c81cd32205ebc607d21fd", "blockhash": "0000000000000000000baef3f32e3676a92c3b2e5da21b426e4f302fc371ce76", "vout": [{"scriptPubKey": {"reqSigs": 1, "hex": "76a91414bb73745b126b7cc7a6182d2084affd21e5511488ac", "addresses": ["12td5AHJEapQwksHpeKwaYwxMS2FDN3FYg"], "asm": "OP_DUP OP_HASH160 14bb73745b126b7cc7a6182d2084affd21e55114 OP_EQUALVERIFY OP_CHECKSIG", "type": "pubkeyhash"}, "value": 0.00634865, "n": 0}, {"scriptPubKey": {"type": "nulldata", "hex": "6a4c500000782b0001f8de358aaac6e591fc828faf27b7256b4774d339f6019d6ddc0f1b8ff117d5b2fd70ce66a4e00d796535c6e327c95baa1e850614486152c16ee61d100759d4ba30d2c37bb011d97e02cf", "asm": "OP_RETURN 0000782b0001f8de358aaac6e591fc828faf27b7256b4774d339f6019d6ddc0f1b8ff117d5b2fd70ce66a4e00d796535c6e327c95baa1e850614486152c16ee61d100759d4ba30d2c37bb011d97e02cf"}, "value": 0.0, "n": 1}], "hex": "01000000014a27eed6d4d5b47c86651751699be87810599eefbd5c557e07293a62b27f8bd9010000006a47304402201df260b6c10d2799078076f4adb79d5f15c3924d119861313381576adcd5f5bf02200720f51b1669b686af66e616030d4813464a52867bb1b3823297ea2ea4f677bd01210241bb074967b2684f4fd48e25826d0c150d61ef3c74485bd52170716921feb330ffffffff02f1af0900000000001976a91414bb73745b126b7cc7a6182d2084affd21e5511488ac0000000000000000536a4c500000782b0001f8de358aaac6e591fc828faf27b7256b4774d339f6019d6ddc0f1b8ff117d5b2fd70ce66a4e00d796535c6e327c95baa1e850614486152c16ee61d100759d4ba30d2c37bb011d97e02cf00000000", "vin": [{"sequence": 4294967295, "scriptSig": {"hex": "47304402201df260b6c10d2799078076f4adb79d5f15c3924d119861313381576adcd5f5bf02200720f51b1669b686af66e616030d4813464a52867bb1b3823297ea2ea4f677bd01210241bb074967b2684f4fd48e25826d0c150d61ef3c74485bd52170716921feb330", "asm": "304402201df260b6c10d2799078076f4adb79d5f15c3924d119861313381576adcd5f5bf02200720f51b1669b686af66e616030d4813464a52867bb1b3823297ea2ea4f677bd[ALL] 0241bb074967b2684f4fd48e25826d0c150d61ef3c74485bd52170716921feb330"}, "vout": 1, "txid": "d98b7fb2623a29077e555cbdef9e591078e89b69511765867cb4d5d4d6ee274a"}], "txid": "ab4970f574cea4d2f780ba7c8a5a291d96cb4b49853c81cd32205ebc607d21fd", "blocktime": 1537876114, "version": 1, "confirmations": 11460, "time": 1537876114, "locktime": 0, "vsize": 283, "size": 283}