{"hash": "ab4e34676a062d270522c5a81ba37c303b91bae5f077555a6ad2740d09336c55", "blockhash": "00000000000000000017f5eb5941039fbcee6240d03bc1f2f8e35350df66a1d8", "vout": [{"scriptPubKey": {"reqSigs": 1, "hex": "a91487d0b8a090462176e0b9f5f7be7c5d7f6b44a8e987", "addresses": ["3E59BeJvv9dnxS8oVHxdWuXHfBLdZG2sW5"], "asm": "OP_HASH160 87d0b8a090462176e0b9f5f7be7c5d7f6b44a8e9 OP_EQUAL", "type": "scripthash"}, "value": 0.014, "n": 0}, {"scriptPubKey": {"reqSigs": 1, "hex": "76a914540a3be5c4300435529a1154b0180be27d0b279c88ac", "addresses": ["18fN2BbtJJyTHjLCGKi3gEgAezeDTZC6ik"], "asm": "OP_DUP OP_HASH160 540a3be5c4300435529a1154b0180be27d0b279c OP_EQUALVERIFY OP_CHECKSIG", "type": "pubkeyhash"}, "value": 0.02741891, "n": 1}], "hex": "0100000001d6bceea8cbf191251014365facd601d9a91b7eb92354e55181f7dc03dab809c3010000006b483045022100bd82c2c649329d3abb6408e23fbd9a3c57e9134980aec439e18110577f954afe022008fad1900db133d802fb8bf95efeca6219cdf2a1fb5b32773fcd3317bffa697901210349018434915d41804f32978c77403a0aabc053f96de46bbe3e2bd4dacab432cdffffffff02c05c15000000000017a91487d0b8a090462176e0b9f5f7be7c5d7f6b44a8e98783d62900000000001976a914540a3be5c4300435529a1154b0180be27d0b279c88ac00000000", "vin": [{"sequence": 4294967295, "scriptSig": {"hex": "483045022100bd82c2c649329d3abb6408e23fbd9a3c57e9134980aec439e18110577f954afe022008fad1900db133d802fb8bf95efeca6219cdf2a1fb5b32773fcd3317bffa697901210349018434915d41804f32978c77403a0aabc053f96de46bbe3e2bd4dacab432cd", "asm": "3045022100bd82c2c649329d3abb6408e23fbd9a3c57e9134980aec439e18110577f954afe022008fad1900db133d802fb8bf95efeca6219cdf2a1fb5b32773fcd3317bffa6979[ALL] 0349018434915d41804f32978c77403a0aabc053f96de46bbe3e2bd4dacab432cd"}, "vout": 1, "txid": "c309b8da03dcf78151e55423b97e1ba9d901d6ac5f3614102591f1cba8eebcd6"}], "txid": "ab4e34676a062d270522c5a81ba37c303b91bae5f077555a6ad2740d09336c55", "blocktime": 1537874412, "version": 1, "confirmations": 11467, "time": 1537874412, "locktime": 0, "vsize": 224, "size": 224}