{"hash": "8cbf1c93aa73e7d290c670c5fdd7f975dbefa28fc4e024ab09774f8979fd77b2", "blockhash": "0000000000000000001f0ddff1eddb255c1121bcd4da4f1bc9a0da00cae72433", "vout": [{"scriptPubKey": {"reqSigs": 1, "hex": "76a9149a1b8f9b1fa2d2297863adb1cb11c71df455684888ac", "addresses": ["1F3r5We2zwNiSzG6GQUTTWnnPMCz2HJbJu"], "asm": "OP_DUP OP_HASH160 9a1b8f9b1fa2d2297863adb1cb11c71df4556848 OP_EQUALVERIFY OP_CHECKSIG", "type": "pubkeyhash"}, "value": 2.735e-05, "n": 0}, {"scriptPubKey": {"reqSigs": 1, "hex": "a914e8db75c900cf08f06518e96d167331f2a4abfb3387", "addresses": ["3NvFbQMAkkqEFj4i1sYPPLkSWzxTFUchjA"], "asm": "OP_HASH160 e8db75c900cf08f06518e96d167331f2a4abfb33 OP_EQUAL", "type": "scripthash"}, "value": 8.073e-05, "n": 1}], "hex": "01000000000101680032c4c5317a718ddddf9a5b01d4b2840fa706ef1190118f18fbdea0ea28c80000000023220020941cfaff8837763dc1f69ff82b6d6553fdea17a41cfc29a04403293eedd8ccc7ffffffff02af0a0000000000001976a9149a1b8f9b1fa2d2297863adb1cb11c71df455684888ac891f00000000000017a914e8db75c900cf08f06518e96d167331f2a4abfb338704004730440220352a985c323ce766d73eb872998f6453b6b0bb2b91735e224e9e3c5249a3a70d02204e93cc5581eef1f7cd357758fa4f273dd5b561f9168414ef6c9ac71c328a5dc401483045022100b7882518e1984118a6c59d1d8730d721d29a011352bf0df78205e607be677a0e0220269d779492e36666cd7cdd14a4811da0ac32055f080e59c59edf7d95c9318f2f0147522102531db3a5883f29bab4241dd0cd726936667bcda445d89bdd22244e828b6993342103148c80a5bdfddb05ff5bcffc397c8ca748d8b435ec6a175bc9d7bfc7fc6f853752ae00000000", "vin": [{"txinwitness": ["", "30440220352a985c323ce766d73eb872998f6453b6b0bb2b91735e224e9e3c5249a3a70d02204e93cc5581eef1f7cd357758fa4f273dd5b561f9168414ef6c9ac71c328a5dc401", "3045022100b7882518e1984118a6c59d1d8730d721d29a011352bf0df78205e607be677a0e0220269d779492e36666cd7cdd14a4811da0ac32055f080e59c59edf7d95c9318f2f01", "522102531db3a5883f29bab4241dd0cd726936667bcda445d89bdd22244e828b6993342103148c80a5bdfddb05ff5bcffc397c8ca748d8b435ec6a175bc9d7bfc7fc6f853752ae"], "sequence": 4294967295, "scriptSig": {"hex": "220020941cfaff8837763dc1f69ff82b6d6553fdea17a41cfc29a04403293eedd8ccc7", "asm": "0020941cfaff8837763dc1f69ff82b6d6553fdea17a41cfc29a04403293eedd8ccc7"}, "vout": 0, "txid": "c828eaa0defb188f119011ef06a70f84b2d4015b9adfdd8d717a31c5c4320068"}], "txid": "ab513768e8e659879ac5685b67d2b78843192b3fa8ea1a37a45d73217cdd3f45", "blocktime": 1537872018, "version": 1, "confirmations": 11489, "time": 1537872018, "locktime": 0, "vsize": 208, "size": 373}