{"hash": "ab5aa6cb26cac5af3cfc0784b564c0e77c8b2cf1cafbf0e6c7069f57b17e0127", "blockhash": "0000000000000000000dcc0f55137456b1a82d3642486a52398922ac4d620174", "vout": [{"scriptPubKey": {"reqSigs": 1, "hex": "00149061e6733efd199c0c8b745a00c3207502576eed", "addresses": ["bc1qjps7vue7l5vecrytw3dqpseqw5p9wmhdg8a7d4"], "asm": "0 9061e6733efd199c0c8b745a00c3207502576eed", "type": "witness_v0_keyhash"}, "value": 0.07848476, "n": 0}, {"scriptPubKey": {"reqSigs": 1, "hex": "76a91452bbe91ccbd2e50020cfbf395bd6ceb8d7f276ad88ac", "addresses": ["18YTWzFqz19U45zrn3SgoJqrMhQzuN9Ddq"], "asm": "OP_DUP OP_HASH160 52bbe91ccbd2e50020cfbf395bd6ceb8d7f276ad OP_EQUALVERIFY OP_CHECKSIG", "type": "pubkeyhash"}, "value": 0.02377579, "n": 1}], "hex": "020000000131746ea08f700cf8f30c10c0e283f8d21bbd614c39f4a5982f6944d7370ecc20010000006a473044022007c1b96045c06d65a4dbea5d82f253252dcf2c26441e427a666310d4b86533580220183497bb896413c27c4a7f98e9ec288158c564d5c1b3f84c7695b226f55d39360121031dfa33d90e4f3c64450ac79db30fc226e8f047160a34277aed7621c06e6cedceffffffff021cc27700000000001600149061e6733efd199c0c8b745a00c3207502576eed6b472400000000001976a91452bbe91ccbd2e50020cfbf395bd6ceb8d7f276ad88ac00000000", "vin": [{"sequence": 4294967295, "scriptSig": {"hex": "473044022007c1b96045c06d65a4dbea5d82f253252dcf2c26441e427a666310d4b86533580220183497bb896413c27c4a7f98e9ec288158c564d5c1b3f84c7695b226f55d39360121031dfa33d90e4f3c64450ac79db30fc226e8f047160a34277aed7621c06e6cedce", "asm": "3044022007c1b96045c06d65a4dbea5d82f253252dcf2c26441e427a666310d4b86533580220183497bb896413c27c4a7f98e9ec288158c564d5c1b3f84c7695b226f55d3936[ALL] 031dfa33d90e4f3c64450ac79db30fc226e8f047160a34277aed7621c06e6cedce"}, "vout": 1, "txid": "20cc0e37d744692f98a5f4394c61bd1bd2f883e2c0100cf3f80c708fa06e7431"}], "txid": "ab5aa6cb26cac5af3cfc0784b564c0e77c8b2cf1cafbf0e6c7069f57b17e0127", "blocktime": 1537870268, "version": 2, "confirmations": 11517, "time": 1537870268, "locktime": 0, "vsize": 222, "size": 222}