{"hash": "624f1b4a37160c3e977539de9ab64f6fe53229f9eb47de49d4e2a430c6819088", "blockhash": "0000000000000000000dcc0f55137456b1a82d3642486a52398922ac4d620174", "vout": [{"scriptPubKey": {"reqSigs": 1, "hex": "76a91466ab2eb48e8cad70631f27eb9880e7611e815f3088ac", "addresses": ["1AMrzXpPYR8sQjYBh5YX8nXM6eoPfMqMkm"], "asm": "OP_DUP OP_HASH160 66ab2eb48e8cad70631f27eb9880e7611e815f30 OP_EQUALVERIFY OP_CHECKSIG", "type": "pubkeyhash"}, "value": 0.00372025, "n": 0}, {"scriptPubKey": {"reqSigs": 1, "hex": "a91408c364340a91e77e4376b26fdad3b5aedc5661f787", "addresses": ["32VMQ7Th4qGhbDYY68FZrfSF9hTbsPivgt"], "asm": "OP_HASH160 08c364340a91e77e4376b26fdad3b5aedc5661f7 OP_EQUAL", "type": "scripthash"}, "value": 0.07528299, "n": 1}], "hex": "0100000000010194c6fd17cc550870271f045b4372c3cb016bb5ee12e9a876cc3488d79366746d010000002322002027561ef61439ff4994ea3793249bbb358319edb59fff63c1eeada48f299e81b5ffffffff0239ad0500000000001976a91466ab2eb48e8cad70631f27eb9880e7611e815f3088ac6bdf72000000000017a91408c364340a91e77e4376b26fdad3b5aedc5661f787040048304502210099479cdcb18c09583dacb97a6f8f9ec56daec8fcce2f53286dd0935a9e7c764602205cfa7546fdab13d3ef2d0bd7dcfd1b5c42ab64ea0c40c3464dfbf2b63024f821014730440220206526ebe5c23511a6d8088da6520f4d784cd746227c5011376cb826a8b9e2a602201382f985b3f999eaa53a9a495ee94932bc0b62d38595be33de9f0510473d29a10147522102f484437eae67e7d1f9cf7235bd52510c99f379408a1f6fe737011d4bc259358a2103871fc2ca08e6950b38867e8e6a0e94ee625223d3aa0df5c65f414c6d784467e252ae00000000", "vin": [{"txinwitness": ["", "304502210099479cdcb18c09583dacb97a6f8f9ec56daec8fcce2f53286dd0935a9e7c764602205cfa7546fdab13d3ef2d0bd7dcfd1b5c42ab64ea0c40c3464dfbf2b63024f82101", "30440220206526ebe5c23511a6d8088da6520f4d784cd746227c5011376cb826a8b9e2a602201382f985b3f999eaa53a9a495ee94932bc0b62d38595be33de9f0510473d29a101", "522102f484437eae67e7d1f9cf7235bd52510c99f379408a1f6fe737011d4bc259358a2103871fc2ca08e6950b38867e8e6a0e94ee625223d3aa0df5c65f414c6d784467e252ae"], "sequence": 4294967295, "scriptSig": {"hex": "22002027561ef61439ff4994ea3793249bbb358319edb59fff63c1eeada48f299e81b5", "asm": "002027561ef61439ff4994ea3793249bbb358319edb59fff63c1eeada48f299e81b5"}, "vout": 1, "txid": "6d746693d78834cc76a8e912eeb56b01cbc372435b041f27700855cc17fdc694"}], "txid": "ab5faf60079689cfaf587bf1400d30b3488d09ff10768daa28db53476e8c6f6f", "blocktime": 1537870268, "version": 1, "confirmations": 11518, "time": 1537870268, "locktime": 0, "vsize": 208, "size": 373}