{"hash": "ab6935710cdd299eacf80e281e2fadd7557a8447da361776278110dba7795d50", "blockhash": "0000000000000000001e0dab787dd257d1dbfcb92a98c2207d5e1078be1f4165", "vout": [{"scriptPubKey": {"reqSigs": 1, "hex": "a9143f628b405bc0db46efca6e1fefff3abd57570d2987", "addresses": ["37UAYakp3VQ5bZaVD5ebqr2Ak77EfmFJx9"], "asm": "OP_HASH160 3f628b405bc0db46efca6e1fefff3abd57570d29 OP_EQUAL", "type": "scripthash"}, "value": 0.015227, "n": 0}, {"scriptPubKey": {"reqSigs": 1, "hex": "76a914b957342ea3e7be9e5f633ffde78cfae1baa85c9888ac", "addresses": ["1HtzUX1cAujhJpF9tujFfYEcEVqmBNExr4"], "asm": "OP_DUP OP_HASH160 b957342ea3e7be9e5f633ffde78cfae1baa85c98 OP_EQUALVERIFY OP_CHECKSIG", "type": "pubkeyhash"}, "value": 10.74959512, "n": 1}], "hex": "0100000001a194ae80234ff21ba149543f1e34814e7455f5c87ac5479fae6ba9e38bbbde44010000006b483045022100f2ee0da0b7e34414e3f1c16f89998a0b38fae6523f3e617e2d249f519cf13561022039d14fc004fecc9b730d84bca955a390258027c0385b1766a1a55822885d6877012102a63e5377f293e419d437dca9fc64b947ff476e1b9490cfcaa10333b9ad19b70cffffffff020c3c17000000000017a9143f628b405bc0db46efca6e1fefff3abd57570d298798941240000000001976a914b957342ea3e7be9e5f633ffde78cfae1baa85c9888ac00000000", "vin": [{"sequence": 4294967295, "scriptSig": {"hex": "483045022100f2ee0da0b7e34414e3f1c16f89998a0b38fae6523f3e617e2d249f519cf13561022039d14fc004fecc9b730d84bca955a390258027c0385b1766a1a55822885d6877012102a63e5377f293e419d437dca9fc64b947ff476e1b9490cfcaa10333b9ad19b70c", "asm": "3045022100f2ee0da0b7e34414e3f1c16f89998a0b38fae6523f3e617e2d249f519cf13561022039d14fc004fecc9b730d84bca955a390258027c0385b1766a1a55822885d6877[ALL] 02a63e5377f293e419d437dca9fc64b947ff476e1b9490cfcaa10333b9ad19b70c"}, "vout": 1, "txid": "44debb8be3a96bae9f47c57ac8f555744e81341e3f5449a11bf24f2380ae94a1"}], "txid": "ab6935710cdd299eacf80e281e2fadd7557a8447da361776278110dba7795d50", "blocktime": 1537872475, "version": 1, "confirmations": 11486, "time": 1537872475, "locktime": 0, "vsize": 224, "size": 224}