{"hash": "79dd4682d97d7ec42619f46b12a9b81f10ee4aa8ce5a202ca1dc18a3194cc95d", "blockhash": "0000000000000000000e13cef7c366c0283d82e591d1acd082e914b08063cdf1", "vout": [{"scriptPubKey": {"reqSigs": 1, "hex": "76a914f965890148a892dc59009c0cd77c9a17b2a4fe3688ac", "addresses": ["1PjgtZ6skNM3rx4QqCWxPA3qNZeQ4sYapj"], "asm": "OP_DUP OP_HASH160 f965890148a892dc59009c0cd77c9a17b2a4fe36 OP_EQUALVERIFY OP_CHECKSIG", "type": "pubkeyhash"}, "value": 2.0, "n": 0}, {"scriptPubKey": {"reqSigs": 1, "hex": "a914a40abc2015c881ed522cd11cb39a6fbdc010ba5587", "addresses": ["3GePbsj8aeHA5T7A7zyVSyP32yefPpgS4x"], "asm": "OP_HASH160 a40abc2015c881ed522cd11cb39a6fbdc010ba55 OP_EQUAL", "type": "scripthash"}, "value": 16.0757969, "n": 1}], "hex": "02000000000101ce2db715583e6566bb5766f2fd09eb4e955ba1c871f41b21fc24a255e9c32a8e010000001716001453fa70e5baf01de5652bbb0a335dd5b35c0d88e5feffffff0200c2eb0b000000001976a914f965890148a892dc59009c0cd77c9a17b2a4fe3688ac2ab8d15f0000000017a914a40abc2015c881ed522cd11cb39a6fbdc010ba5587024730440220632cd811f48a68d6abe1f53fddebc65a980bc72e2c5544e32354cbdd7c70651702206c1a76ac10024675f4d11bea9657b809e376db35c815bb7968407e514bc24588012102539c64fdd84ed5602389c9712cac5513723d18851825aa4cd68dc61b3f6f940f10490800", "vin": [{"txinwitness": ["30440220632cd811f48a68d6abe1f53fddebc65a980bc72e2c5544e32354cbdd7c70651702206c1a76ac10024675f4d11bea9657b809e376db35c815bb7968407e514bc2458801", "02539c64fdd84ed5602389c9712cac5513723d18851825aa4cd68dc61b3f6f940f"], "sequence": 4294967294, "scriptSig": {"hex": "16001453fa70e5baf01de5652bbb0a335dd5b35c0d88e5", "asm": "001453fa70e5baf01de5652bbb0a335dd5b35c0d88e5"}, "vout": 1, "txid": "8e2ac3e955a224fc211bf471c8a15b954eeb09fdf26657bb66653e5815b72dce"}], "txid": "ab720d6223bfa73575805f3392a2673865e2ba7e58f09a1e75204506fdf0cca5", "blocktime": 1537871767, "version": 2, "confirmations": 11491, "time": 1537871767, "locktime": 542992, "vsize": 168, "size": 249}