{"hash": "d8618909449b1cdbf1cde495de57b7c28ae8a5328a8c75d3f5e9db564ccb9978", "blockhash": "0000000000000000001f0ddff1eddb255c1121bcd4da4f1bc9a0da00cae72433", "vout": [{"scriptPubKey": {"reqSigs": 1, "hex": "76a9140a3195c50a139c1268b517078c4818eb7c3cee7288ac", "addresses": ["1vuA9XxA95fff3zonS6wemPTWBvQ16vN9"], "asm": "OP_DUP OP_HASH160 0a3195c50a139c1268b517078c4818eb7c3cee72 OP_EQUALVERIFY OP_CHECKSIG", "type": "pubkeyhash"}, "value": 0.00283282, "n": 0}, {"scriptPubKey": {"reqSigs": 1, "hex": "a91451c3a73d1fbb217f2d18955a57462ca3945b67ff87", "addresses": ["399M3Jw3oXM279DbyY7MV2axp2TJskAiB1"], "asm": "OP_HASH160 51c3a73d1fbb217f2d18955a57462ca3945b67ff OP_EQUAL", "type": "scripthash"}, "value": 0.00998439, "n": 1}], "hex": "02000000000105193aaab734fab521cb4568c459811ef84d8400d7e5585169217f679aa2a052af0100000017160014037a20167bcd9b14e54792e5abd353a6eacd25f3feffffff37dc39bad9e4b245bbc0733e0ab9302f8d4bc6f207d789f4191c0b5c2029a0c90000000017160014c232a3f7fbae5ccf20d0f619dd89ff8b724c462cfeffffff56d336ea63ebe76a73f48213722b0ae24feffe6fd210c437561797772489dede000000001716001422cdef1cd66acc9525807d281cc49d0b568c392bfeffffff7bfc0679f6228eed6d25d1c614cf31bef5f9ac26aa32ce9c0702c5dae931e01701000000171600148c25ca41e639f7a19dbec60b4002541b5362eb07fefffffffb99f151137c2d07939108288273a4c96197b01355aa05878c0113116c2f27a90000000017160014ea22eeb24ef1b0835bb2da793217c22d21f499f9feffffff0292520400000000001976a9140a3195c50a139c1268b517078c4818eb7c3cee7288ac273c0f000000000017a91451c3a73d1fbb217f2d18955a57462ca3945b67ff8702483045022100ac323916580346ed38bfaa2fb7f915d2ac1016b36851d23304df5c9c670ebd6302202a8b2bb848924552041997581bc557bd12faced634a0069448c08c72f6ebd22c012103a40942bdfa4d261b2684fabbdc5e9635a6aedfe6d40fc092fc714059770e51220247304402205377d5a0da99fa0685575e5e9c4fa75e45db0e400d2fe79fb30c0e45ce3a6db802207a15e924a53afd708de6b6c8381198f59d89f3121eca8f4f511355e6412abd19012103817b332589a637018ab2ce77ab28b26ce13c23ced3d0c99fd3e5179348726f3202483045022100abe792df75b9b70ae144759a8ab309d11ee605f12951b67c59a6512f779bb715022051a43223cd82c0d2175e27fd37fb5512c5b31af3cff1fe83e089d952417cdc750121029ec8436f9aa3fd8289a16d4dba79540301fa94e4b8d1bc314b7fbb44b8eff38402483045022100d97bb48f2068a0d5e5f8c60cf152780efd29bab5c93f4d0bc86337ba3e75d83e022007ae08de95ce6d8b432b29aa0efb4022dbdd5f1d22c7677686f11e786d127e7e01210319d44c5eb3972bffd596ca52205d5154e2f250f83e7c2174850f1695c50528430247304402204778c89f2ce23a758b8667fc7c272c9e1df5d9889f14e7ca3816573ed57c40cc02200805b007d5fb9560bc0e0800569a82af3ee475eaced9fa0be0f4fe5e0e0149f30121030d5bcf21a4259ddf910d35be49d0762fbd6573f344e9d2b002be582f77b7736311490800", "vin": [{"txinwitness": ["3045022100ac323916580346ed38bfaa2fb7f915d2ac1016b36851d23304df5c9c670ebd6302202a8b2bb848924552041997581bc557bd12faced634a0069448c08c72f6ebd22c01", "03a40942bdfa4d261b2684fabbdc5e9635a6aedfe6d40fc092fc714059770e5122"], "sequence": 4294967294, "scriptSig": {"hex": "160014037a20167bcd9b14e54792e5abd353a6eacd25f3", "asm": "0014037a20167bcd9b14e54792e5abd353a6eacd25f3"}, "vout": 1, "txid": "af52a0a29a677f21695158e5d700844df81e8159c46845cb21b5fa34b7aa3a19"}, {"txinwitness": ["304402205377d5a0da99fa0685575e5e9c4fa75e45db0e400d2fe79fb30c0e45ce3a6db802207a15e924a53afd708de6b6c8381198f59d89f3121eca8f4f511355e6412abd1901", "03817b332589a637018ab2ce77ab28b26ce13c23ced3d0c99fd3e5179348726f32"], "sequence": 4294967294, "scriptSig": {"hex": "160014c232a3f7fbae5ccf20d0f619dd89ff8b724c462c", "asm": "0014c232a3f7fbae5ccf20d0f619dd89ff8b724c462c"}, "vout": 0, "txid": "c9a029205c0b1c19f489d707f2c64b8d2f30b90a3e73c0bb45b2e4d9ba39dc37"}, {"txinwitness": ["3045022100abe792df75b9b70ae144759a8ab309d11ee605f12951b67c59a6512f779bb715022051a43223cd82c0d2175e27fd37fb5512c5b31af3cff1fe83e089d952417cdc7501", "029ec8436f9aa3fd8289a16d4dba79540301fa94e4b8d1bc314b7fbb44b8eff384"], "sequence": 4294967294, "scriptSig": {"hex": "16001422cdef1cd66acc9525807d281cc49d0b568c392b", "asm": "001422cdef1cd66acc9525807d281cc49d0b568c392b"}, "vout": 0, "txid": "dede89247797175637c410d26ffeef4fe20a2b721382f4736ae7eb63ea36d356"}, {"txinwitness": ["3045022100d97bb48f2068a0d5e5f8c60cf152780efd29bab5c93f4d0bc86337ba3e75d83e022007ae08de95ce6d8b432b29aa0efb4022dbdd5f1d22c7677686f11e786d127e7e01", "0319d44c5eb3972bffd596ca52205d5154e2f250f83e7c2174850f1695c5052843"], "sequence": 4294967294, "scriptSig": {"hex": "1600148c25ca41e639f7a19dbec60b4002541b5362eb07", "asm": "00148c25ca41e639f7a19dbec60b4002541b5362eb07"}, "vout": 1, "txid": "17e031e9dac502079cce32aa26acf9f5be31cf14c6d1256ded8e22f67906fc7b"}, {"txinwitness": ["304402204778c89f2ce23a758b8667fc7c272c9e1df5d9889f14e7ca3816573ed57c40cc02200805b007d5fb9560bc0e0800569a82af3ee475eaced9fa0be0f4fe5e0e0149f301", "030d5bcf21a4259ddf910d35be49d0762fbd6573f344e9d2b002be582f77b77363"], "sequence": 4294967294, "scriptSig": {"hex": "160014ea22eeb24ef1b0835bb2da793217c22d21f499f9", "asm": "0014ea22eeb24ef1b0835bb2da793217c22d21f499f9"}, "vout": 0, "txid": "a9272f6c1113018c8705aa5513b09761c9a4738228089193072d7c1351f199fb"}], "txid": "ab7cc65f945630e464df329d5209969251cba29e34c4ed4de09c4dcbc9c87884", "blocktime": 1537872018, "version": 2, "confirmations": 11489, "time": 1537872018, "locktime": 542993, "vsize": 531, "size": 936}