{"hash": "9e3f6bda79e203255dbbb17cbb485099f377e6154811b3fbf56864bce8a4dc15", "blockhash": "00000000000000000004ffacab907a6b429b9a5745fa0b75af4234bf69dd7176", "vout": [{"scriptPubKey": {"reqSigs": 1, "hex": "76a914c254ba40cab4449e389d169cbbe495729378a31988ac", "addresses": ["1JiXbBwKRJjk8P3XLp7jBgVCxXaRjGibrS"], "asm": "OP_DUP OP_HASH160 c254ba40cab4449e389d169cbbe495729378a319 OP_EQUALVERIFY OP_CHECKSIG", "type": "pubkeyhash"}, "value": 0.004404, "n": 0}, {"scriptPubKey": {"reqSigs": 1, "hex": "a9145df9b0173c7cd8862440510c74b5abce7a86ce7487", "addresses": ["3AFuszy8DvR7yeAgEPbHAN1a3bPgYycotf"], "asm": "OP_HASH160 5df9b0173c7cd8862440510c74b5abce7a86ce74 OP_EQUAL", "type": "scripthash"}, "value": 0.00121377, "n": 1}], "hex": "0100000000010113759169ef359d70db4cd819c1213ee3c6692b33ae48c5aa95484d37fc21ad7c0100000023220020537680b8e541c7602b2150dd669d7a0072544d1b5ced4ed38ba5eb49f7abb518ffffffff0250b80600000000001976a914c254ba40cab4449e389d169cbbe495729378a31988ac21da01000000000017a9145df9b0173c7cd8862440510c74b5abce7a86ce74870400483045022100cd11ffb0c2fba0545b34a9c30916fe63f6c89b35b0e7fcbb210c94ffebd9fc26022009bc114a969d48eadbfc5d9b215fab6ad499cda614daa3d1ff698899383a6c6001483045022100eb1df366b41725a6c7e91ba9737280cbaaea68e7eb889b0e6b310da5990996b302200d75a44b0bbd26c971b3f368e28a8c524b8efb9a13af4348fabc8a462a831fb70169522102326a20d395c08fbb4be2d85d1f5ce8487c4afd6347842da279ae69b936e39b1f2103fce3ff16a613e3a17af92060bef2b6f6fab7385b0923b5da0a64b0171177f4c921036bddea299f63335f54d38b1c8c1ebcbcac797942852e023bb63a6882e758dcb053ae17490800", "vin": [{"txinwitness": ["", "3045022100cd11ffb0c2fba0545b34a9c30916fe63f6c89b35b0e7fcbb210c94ffebd9fc26022009bc114a969d48eadbfc5d9b215fab6ad499cda614daa3d1ff698899383a6c6001", "3045022100eb1df366b41725a6c7e91ba9737280cbaaea68e7eb889b0e6b310da5990996b302200d75a44b0bbd26c971b3f368e28a8c524b8efb9a13af4348fabc8a462a831fb701", "522102326a20d395c08fbb4be2d85d1f5ce8487c4afd6347842da279ae69b936e39b1f2103fce3ff16a613e3a17af92060bef2b6f6fab7385b0923b5da0a64b0171177f4c921036bddea299f63335f54d38b1c8c1ebcbcac797942852e023bb63a6882e758dcb053ae"], "sequence": 4294967295, "scriptSig": {"hex": "220020537680b8e541c7602b2150dd669d7a0072544d1b5ced4ed38ba5eb49f7abb518", "asm": "0020537680b8e541c7602b2150dd669d7a0072544d1b5ced4ed38ba5eb49f7abb518"}, "vout": 1, "txid": "7cad21fc374d4895aac548ae332b69c6e33e21c119d84cdb709d35ef69917513"}], "txid": "ab824ba215593b41fb3a3fafba96104a8a199c6896b75efb335809ce71cf2701", "blocktime": 1537875543, "version": 1, "confirmations": 11464, "time": 1537875543, "locktime": 542999, "vsize": 216, "size": 408}