{"hash": "ab875d7ca14608825976fd09188dc8d0a3935bec8b203502fe96b5957b92df9d", "blockhash": "0000000000000000000baef3f32e3676a92c3b2e5da21b426e4f302fc371ce76", "vout": [{"scriptPubKey": {"reqSigs": 1, "hex": "a914a1c9b90003a5612352a74e88ece1c7b2c3a28cdd87", "addresses": ["3GSUNN5tVCTEfrHWi7QXY7y8CfwukJa4gu"], "asm": "OP_HASH160 a1c9b90003a5612352a74e88ece1c7b2c3a28cdd OP_EQUAL", "type": "scripthash"}, "value": 0.0001, "n": 0}, {"scriptPubKey": {"reqSigs": 1, "hex": "76a914febb659e13bd60d8b1e7da70758a4984a6776bf788ac", "addresses": ["1QDu8Hz2XggTf94V3bYKCwUU77EtmoiY8Z"], "asm": "OP_DUP OP_HASH160 febb659e13bd60d8b1e7da70758a4984a6776bf7 OP_EQUALVERIFY OP_CHECKSIG", "type": "pubkeyhash"}, "value": 0.02929768, "n": 1}], "hex": "01000000019086f4bfddc5e893096ea86d092b5698eaf200abe2cb94db2758ef81948e6c13010000006b483045022100eeb79fd2d2122422648669f0764fc8194fb61eda61451000bd8b146e7cbe7fae02200da488b1af3ae85eaae48c2a70e0e01efbe4f76d344c949ee7b85205ed0c38920121028c699ab584188c4be2fc63618ee33fd31fbf8552ed78a85e3d2943072b3a6e3effffffff02102700000000000017a914a1c9b90003a5612352a74e88ece1c7b2c3a28cdd8768b42c00000000001976a914febb659e13bd60d8b1e7da70758a4984a6776bf788ac00000000", "vin": [{"sequence": 4294967295, "scriptSig": {"hex": "483045022100eeb79fd2d2122422648669f0764fc8194fb61eda61451000bd8b146e7cbe7fae02200da488b1af3ae85eaae48c2a70e0e01efbe4f76d344c949ee7b85205ed0c38920121028c699ab584188c4be2fc63618ee33fd31fbf8552ed78a85e3d2943072b3a6e3e", "asm": "3045022100eeb79fd2d2122422648669f0764fc8194fb61eda61451000bd8b146e7cbe7fae02200da488b1af3ae85eaae48c2a70e0e01efbe4f76d344c949ee7b85205ed0c3892[ALL] 028c699ab584188c4be2fc63618ee33fd31fbf8552ed78a85e3d2943072b3a6e3e"}, "vout": 1, "txid": "136c8e9481ef5827db94cbe2ab00f2ea98562b096da86e0993e8c5ddbff48690"}], "txid": "ab875d7ca14608825976fd09188dc8d0a3935bec8b203502fe96b5957b92df9d", "blocktime": 1537876114, "version": 1, "confirmations": 11460, "time": 1537876114, "locktime": 0, "vsize": 224, "size": 224}