{"hash": "ab8d3a29181164b9c63b3cd3dfc5f0b2db99645410f7de7c09f718f6f8900df0", "blockhash": "00000000000000000017f5eb5941039fbcee6240d03bc1f2f8e35350df66a1d8", "vout": [{"scriptPubKey": {"reqSigs": 1, "hex": "76a9143838152764841256c0fb7885c7f90b696cd3cfb288ac", "addresses": ["168G2S4dATAkGqghbbA6sqXznR8cXXUfc7"], "asm": "OP_DUP OP_HASH160 3838152764841256c0fb7885c7f90b696cd3cfb2 OP_EQUALVERIFY OP_CHECKSIG", "type": "pubkeyhash"}, "value": 0.01563087, "n": 0}, {"scriptPubKey": {"reqSigs": 1, "hex": "76a914b9aa4768c83dd918925b7c2d266e0a253f23f96a88ac", "addresses": ["1HvhzgGLmjC8Wo2fmzKkaRiSMBemtzrwqq"], "asm": "OP_DUP OP_HASH160 b9aa4768c83dd918925b7c2d266e0a253f23f96a OP_EQUALVERIFY OP_CHECKSIG", "type": "pubkeyhash"}, "value": 0.2855509, "n": 1}], "hex": "0100000001ab8d119209161421d0adfc314eefc3f108b9c7f1367a74f1ef7ea95f33140c5c010000006a473044022050289bcc11eece6ae3a73aedb4174aada2a0d7935baa62ab527f962463fad6e402203d96c23a30288bbacf51ffdfb73f64f80ee6494794f1f04b1d196992b3f4b9fc0121035214feb218adea995d3d5f3f67fe63c1be987fd32456d78f72a35620bf63d268ffffffff02cfd91700000000001976a9143838152764841256c0fb7885c7f90b696cd3cfb288ac52b7b301000000001976a914b9aa4768c83dd918925b7c2d266e0a253f23f96a88ac00000000", "vin": [{"sequence": 4294967295, "scriptSig": {"hex": "473044022050289bcc11eece6ae3a73aedb4174aada2a0d7935baa62ab527f962463fad6e402203d96c23a30288bbacf51ffdfb73f64f80ee6494794f1f04b1d196992b3f4b9fc0121035214feb218adea995d3d5f3f67fe63c1be987fd32456d78f72a35620bf63d268", "asm": "3044022050289bcc11eece6ae3a73aedb4174aada2a0d7935baa62ab527f962463fad6e402203d96c23a30288bbacf51ffdfb73f64f80ee6494794f1f04b1d196992b3f4b9fc[ALL] 035214feb218adea995d3d5f3f67fe63c1be987fd32456d78f72a35620bf63d268"}, "vout": 1, "txid": "5c0c14335fa97eeff1747a36f1c7b908f1c3ef4e31fcadd02114160992118dab"}], "txid": "ab8d3a29181164b9c63b3cd3dfc5f0b2db99645410f7de7c09f718f6f8900df0", "blocktime": 1537874412, "version": 1, "confirmations": 11468, "time": 1537874412, "locktime": 0, "vsize": 225, "size": 225}