{"hash": "ab8fc1e6d11cf2393d926c77f250a6f5f50d22e65cb58b8ad108a8f2e7baaef7", "blockhash": "00000000000000000018f53835495a110e01622372bf6ae95dc86f2b0ab887b0", "vout": [{"scriptPubKey": {"reqSigs": 1, "hex": "76a914e6b17b55f9bf67bf5e7bec29e0917605cb417b7d88ac", "addresses": ["1N2o2mjfXHW3mvqZndBY2k2qRjgMqBQB3J"], "asm": "OP_DUP OP_HASH160 e6b17b55f9bf67bf5e7bec29e0917605cb417b7d OP_EQUALVERIFY OP_CHECKSIG", "type": "pubkeyhash"}, "value": 0.00233198, "n": 0}, {"scriptPubKey": {"reqSigs": 1, "hex": "76a914b9a9f2cc81a66fd2eb02c0efa84e5a3c3485e45088ac", "addresses": ["1HvhbiLkCSfMkWWmBKxWgQUdq2jXHrs2WD"], "asm": "OP_DUP OP_HASH160 b9a9f2cc81a66fd2eb02c0efa84e5a3c3485e450 OP_EQUALVERIFY OP_CHECKSIG", "type": "pubkeyhash"}, "value": 0.017156, "n": 1}], "hex": "01000000014a705e9c5eeb22e69a8d5ba2adab4837697248a67991573255d99954a2211c15000000006b483045022100a9f0baa18a62ec5b2138a2c8c31d64918ab9b5c4cf1a06286762eee11db597de02203f682a0c23095b947d6bba55204e35edc6ed7184f3fd3be4a2dd53e2465791af0121038eb1ff17d937770bf289cc9a86fa101492d17a4aef14e238c7b9eb271eaccbfbfdffffff02ee8e0300000000001976a914e6b17b55f9bf67bf5e7bec29e0917605cb417b7d88ac902d1a00000000001976a914b9a9f2cc81a66fd2eb02c0efa84e5a3c3485e45088ac0e490800", "vin": [{"sequence": 4294967293, "scriptSig": {"hex": "483045022100a9f0baa18a62ec5b2138a2c8c31d64918ab9b5c4cf1a06286762eee11db597de02203f682a0c23095b947d6bba55204e35edc6ed7184f3fd3be4a2dd53e2465791af0121038eb1ff17d937770bf289cc9a86fa101492d17a4aef14e238c7b9eb271eaccbfb", "asm": "3045022100a9f0baa18a62ec5b2138a2c8c31d64918ab9b5c4cf1a06286762eee11db597de02203f682a0c23095b947d6bba55204e35edc6ed7184f3fd3be4a2dd53e2465791af[ALL] 038eb1ff17d937770bf289cc9a86fa101492d17a4aef14e238c7b9eb271eaccbfb"}, "vout": 0, "txid": "151c21a25499d95532579179a64872693748abada25b8d9ae622eb5e9c5e704a"}], "txid": "ab8fc1e6d11cf2393d926c77f250a6f5f50d22e65cb58b8ad108a8f2e7baaef7", "blocktime": 1537870928, "version": 1, "confirmations": 11512, "time": 1537870928, "locktime": 542990, "vsize": 226, "size": 226}