{"hash": "ab9341c4dda39d18d03e200b6d8bfec3833f14000f944f61063aef3736599037", "blockhash": "00000000000000000018f53835495a110e01622372bf6ae95dc86f2b0ab887b0", "vout": [{"scriptPubKey": {"reqSigs": 1, "hex": "76a9149a5451873ce45a77b88f66eb7416e3f9c37a402488ac", "addresses": ["1F5256L4rt14eKV1HtxCc5FvGts2i4cEAh"], "asm": "OP_DUP OP_HASH160 9a5451873ce45a77b88f66eb7416e3f9c37a4024 OP_EQUALVERIFY OP_CHECKSIG", "type": "pubkeyhash"}, "value": 0.0096844, "n": 0}, {"scriptPubKey": {"reqSigs": 1, "hex": "76a9140ec5625240a594c561f31c764487626f5a49565388ac", "addresses": ["12M6vAvVCXsbwhXCxfA3FfdjQKsUmJqUmL"], "asm": "OP_DUP OP_HASH160 0ec5625240a594c561f31c764487626f5a495653 OP_EQUALVERIFY OP_CHECKSIG", "type": "pubkeyhash"}, "value": 0.01515279, "n": 1}], "hex": "01000000014c2491b55921072d7431e17fba7a11f84861faf83ce52bfb6d994c1b709a993d010000006a47304402205b88431ee65ad7740dac86430b832e220d67115c11c069e7d1220a966cd5cbf802200f86c57e4e5e44fdd17c8ec62a7a73f2de119fce736fd1d164155e65a148f7990121038e1418bfb8f4c97698388670aef6ca9fa1757139f463759a8fc6ca2abb10c9f2ffffffff02f8c60e00000000001976a9149a5451873ce45a77b88f66eb7416e3f9c37a402488ac0f1f1700000000001976a9140ec5625240a594c561f31c764487626f5a49565388ac00000000", "vin": [{"sequence": 4294967295, "scriptSig": {"hex": "47304402205b88431ee65ad7740dac86430b832e220d67115c11c069e7d1220a966cd5cbf802200f86c57e4e5e44fdd17c8ec62a7a73f2de119fce736fd1d164155e65a148f7990121038e1418bfb8f4c97698388670aef6ca9fa1757139f463759a8fc6ca2abb10c9f2", "asm": "304402205b88431ee65ad7740dac86430b832e220d67115c11c069e7d1220a966cd5cbf802200f86c57e4e5e44fdd17c8ec62a7a73f2de119fce736fd1d164155e65a148f799[ALL] 038e1418bfb8f4c97698388670aef6ca9fa1757139f463759a8fc6ca2abb10c9f2"}, "vout": 1, "txid": "3d999a701b4c996dfb2be53cf8fa6148f8117aba7fe131742d072159b591244c"}], "txid": "ab9341c4dda39d18d03e200b6d8bfec3833f14000f944f61063aef3736599037", "blocktime": 1537870928, "version": 1, "confirmations": 11514, "time": 1537870928, "locktime": 0, "vsize": 225, "size": 225}