{"hash": "ab99fd7860fbe850891496ae989dd765bae352eb119e72ed283ceb34be989569", "blockhash": "0000000000000000001f76057863aec43deb6fa401d9628bb513d65a8098bfab", "vout": [{"scriptPubKey": {"reqSigs": 1, "hex": "a9140d7e8638c2467094cb01059d0c2743d50a6c783387", "addresses": ["32vNH6mbKNi63rekd4Kv4MAiHQSRFsvtuZ"], "asm": "OP_HASH160 0d7e8638c2467094cb01059d0c2743d50a6c7833 OP_EQUAL", "type": "scripthash"}, "value": 0.00045, "n": 0}, {"scriptPubKey": {"reqSigs": 1, "hex": "76a9149de6de31619e63e6babbc8a1f828bba29f8c4e5c88ac", "addresses": ["1FPuf6ywf7WhHfsGnV1wXcwefs2bz6JWKn"], "asm": "OP_DUP OP_HASH160 9de6de31619e63e6babbc8a1f828bba29f8c4e5c OP_EQUALVERIFY OP_CHECKSIG", "type": "pubkeyhash"}, "value": 0.02470987, "n": 1}], "hex": "01000000010a4cd2dfd437df896ac58126e66ddd3f140c6bfb50ebcfdb3e5a3d3a3f029427000000006a4730440220218ffd82a62de809ae6f01a3b2918f5c142ec56451edbfe873242fce90778caf02205af42030bfda1e5398e29dddfa2dc8aee1fb1c149a9d2b15e197cf6f32a1f8890121032a1097c6fc24423d5b52c641d60b6a654ad98d272ac1e8ce0df45c0cb1946e67ffffffff02c8af00000000000017a9140d7e8638c2467094cb01059d0c2743d50a6c7833874bb42500000000001976a9149de6de31619e63e6babbc8a1f828bba29f8c4e5c88ac00000000", "vin": [{"sequence": 4294967295, "scriptSig": {"hex": "4730440220218ffd82a62de809ae6f01a3b2918f5c142ec56451edbfe873242fce90778caf02205af42030bfda1e5398e29dddfa2dc8aee1fb1c149a9d2b15e197cf6f32a1f8890121032a1097c6fc24423d5b52c641d60b6a654ad98d272ac1e8ce0df45c0cb1946e67", "asm": "30440220218ffd82a62de809ae6f01a3b2918f5c142ec56451edbfe873242fce90778caf02205af42030bfda1e5398e29dddfa2dc8aee1fb1c149a9d2b15e197cf6f32a1f889[ALL] 032a1097c6fc24423d5b52c641d60b6a654ad98d272ac1e8ce0df45c0cb1946e67"}, "vout": 0, "txid": "2794023f3a3d5a3edbcfeb50fb6b0c143fdd6de62681c56a89df37d4dfd24c0a"}], "txid": "ab99fd7860fbe850891496ae989dd765bae352eb119e72ed283ceb34be989569", "blocktime": 1537873891, "version": 1, "confirmations": 11475, "time": 1537873891, "locktime": 0, "vsize": 223, "size": 223}