{"hash": "ab998f1a4348ca2c91f3e035814323c7f62f464510ca7dc62193764788439e0e", "blockhash": "0000000000000000000baef3f32e3676a92c3b2e5da21b426e4f302fc371ce76", "vout": [{"scriptPubKey": {"reqSigs": 1, "hex": "a91419031294eb4971471273da74e684769523ecb15d87", "addresses": ["33yGVptS6C8kmooY7JVFLSqBmACs6dDYbi"], "asm": "OP_HASH160 19031294eb4971471273da74e684769523ecb15d OP_EQUAL", "type": "scripthash"}, "value": 0.009259, "n": 0}, {"scriptPubKey": {"reqSigs": 1, "hex": "76a9144657747bc542c65677efabf9ffb1daae401d2fa588ac", "addresses": ["17Qw4uit5XbJxoRqVESDFtqKrgPrCK8gCS"], "asm": "OP_DUP OP_HASH160 4657747bc542c65677efabf9ffb1daae401d2fa5 OP_EQUALVERIFY OP_CHECKSIG", "type": "pubkeyhash"}, "value": 0.153189, "n": 1}], "hex": "02000000028db32a6a6e16d6f710b320af717775c609051252e0afbf7e19b25b456be379a7020000006a473044022017ee08aa1707a79243955ec7cffb0bc16cc1ae1a73f66279cd8a3cc97e6746020220099ef8dc34fc29849a73e1e5592d04045e7bada4c43e230c74ccd1097c11836a0121035fa1cea9480e78d3566a686970812775f8535960be3eea0235d7b543fbd92efffeffffffccbe7e1da52d3d3bbdf63575f7a5f62d5abb121df03f9852fcc8bdcb3d0e45f0000000006a47304402204ef1f48d2b09767f4b57ff89d599a74d55c64c4c72366dabcf5cacba883b817802200ae313298b24977215d63e0ba52afe35bd9556c586059d18c3f7ac2413277dd3012103c506668fc9867b226c00ef1aa8fbc8252ce79a7b4a5a1a330eee08b352fd6d7bfeffffff02cc200e000000000017a91419031294eb4971471273da74e684769523ecb15d8774bfe900000000001976a9144657747bc542c65677efabf9ffb1daae401d2fa588acc0480800", "vin": [{"sequence": 4294967294, "scriptSig": {"hex": "473044022017ee08aa1707a79243955ec7cffb0bc16cc1ae1a73f66279cd8a3cc97e6746020220099ef8dc34fc29849a73e1e5592d04045e7bada4c43e230c74ccd1097c11836a0121035fa1cea9480e78d3566a686970812775f8535960be3eea0235d7b543fbd92eff", "asm": "3044022017ee08aa1707a79243955ec7cffb0bc16cc1ae1a73f66279cd8a3cc97e6746020220099ef8dc34fc29849a73e1e5592d04045e7bada4c43e230c74ccd1097c11836a[ALL] 035fa1cea9480e78d3566a686970812775f8535960be3eea0235d7b543fbd92eff"}, "vout": 2, "txid": "a779e36b455bb2197ebfafe052120509c6757771af20b310f7d6166e6a2ab38d"}, {"sequence": 4294967294, "scriptSig": {"hex": "47304402204ef1f48d2b09767f4b57ff89d599a74d55c64c4c72366dabcf5cacba883b817802200ae313298b24977215d63e0ba52afe35bd9556c586059d18c3f7ac2413277dd3012103c506668fc9867b226c00ef1aa8fbc8252ce79a7b4a5a1a330eee08b352fd6d7b", "asm": "304402204ef1f48d2b09767f4b57ff89d599a74d55c64c4c72366dabcf5cacba883b817802200ae313298b24977215d63e0ba52afe35bd9556c586059d18c3f7ac2413277dd3[ALL] 03c506668fc9867b226c00ef1aa8fbc8252ce79a7b4a5a1a330eee08b352fd6d7b"}, "vout": 0, "txid": "f0450e3dcbbdc8fc52983ff01d12bb5a2df6a5f77535f6bd3b3d2da51d7ebecc"}], "txid": "ab998f1a4348ca2c91f3e035814323c7f62f464510ca7dc62193764788439e0e", "blocktime": 1537876114, "version": 2, "confirmations": 11459, "time": 1537876114, "locktime": 542912, "vsize": 370, "size": 370}