{"hash": "ab9fe7668c057dd6774d517a10369d9c15b42a93c3f04b3ad69efabb27db7011", "blockhash": "0000000000000000001f76057863aec43deb6fa401d9628bb513d65a8098bfab", "vout": [{"scriptPubKey": {"reqSigs": 1, "hex": "76a914a52c0a66f194d8176a8bbb4a82c15a1e66dbc2cc88ac", "addresses": ["1G4MFednYKSUhvKfnYVWsH1jSDp1VsP44s"], "asm": "OP_DUP OP_HASH160 a52c0a66f194d8176a8bbb4a82c15a1e66dbc2cc OP_EQUALVERIFY OP_CHECKSIG", "type": "pubkeyhash"}, "value": 0.00154537, "n": 0}, {"scriptPubKey": {"reqSigs": 1, "hex": "76a914791f08a23626ba15c024b106e8b5345fd62ef3bc88ac", "addresses": ["1C3RwUQWcMdY6JnANXnuHwRao1NxLR14J1"], "asm": "OP_DUP OP_HASH160 791f08a23626ba15c024b106e8b5345fd62ef3bc OP_EQUALVERIFY OP_CHECKSIG", "type": "pubkeyhash"}, "value": 0.00320995, "n": 1}], "hex": "0100000001309f9cc977fc89dfa3ee0be7a9218415e406d058c3277f1a91adfba05a9357f4ac0000006a473044022070508022dc81581e1fe95c1ac640b91ebb742d6ae1bb22157e5a4690958259f10220596346d53a497e78814b6329e63916fda488993dd4206c7d4a24f552d3373713012102011a1c4fe288812ca24d4491149b3cdb4a31ce135799c4c76ac65d35aa3c0dfeffffffff02a95b0200000000001976a914a52c0a66f194d8176a8bbb4a82c15a1e66dbc2cc88ace3e50400000000001976a914791f08a23626ba15c024b106e8b5345fd62ef3bc88ac00000000", "vin": [{"sequence": 4294967295, "scriptSig": {"hex": "473044022070508022dc81581e1fe95c1ac640b91ebb742d6ae1bb22157e5a4690958259f10220596346d53a497e78814b6329e63916fda488993dd4206c7d4a24f552d3373713012102011a1c4fe288812ca24d4491149b3cdb4a31ce135799c4c76ac65d35aa3c0dfe", "asm": "3044022070508022dc81581e1fe95c1ac640b91ebb742d6ae1bb22157e5a4690958259f10220596346d53a497e78814b6329e63916fda488993dd4206c7d4a24f552d3373713[ALL] 02011a1c4fe288812ca24d4491149b3cdb4a31ce135799c4c76ac65d35aa3c0dfe"}, "vout": 172, "txid": "f457935aa0fbad911a7f27c358d006e4158421a9e70beea3df89fc77c99c9f30"}], "txid": "ab9fe7668c057dd6774d517a10369d9c15b42a93c3f04b3ad69efabb27db7011", "blocktime": 1537873891, "version": 1, "confirmations": 11475, "time": 1537873891, "locktime": 0, "vsize": 225, "size": 225}