{"hash": "aba00e35420a30f9258f64a149aae5eb49eaf5c0ea29636f97d065c0084f0077", "blockhash": "00000000000000000018f53835495a110e01622372bf6ae95dc86f2b0ab887b0", "vout": [{"scriptPubKey": {"reqSigs": 1, "hex": "76a914ac50ad9f53f7a7ab0de55f1f7bd5c146a87029e088ac", "addresses": ["1Gi7scgt19CidGz8ZpHTrtsMUfXLS6Wt8Q"], "asm": "OP_DUP OP_HASH160 ac50ad9f53f7a7ab0de55f1f7bd5c146a87029e0 OP_EQUALVERIFY OP_CHECKSIG", "type": "pubkeyhash"}, "value": 0.08588395, "n": 0}, {"scriptPubKey": {"type": "nulldata", "hex": "6a146f6d6e69000000000000001f000000f478e08400", "asm": "OP_RETURN 6f6d6e69000000000000001f000000f478e08400"}, "value": 0.0, "n": 1}, {"scriptPubKey": {"reqSigs": 1, "hex": "76a914ac50ad9f53f7a7ab0de55f1f7bd5c146a87029e088ac", "addresses": ["1Gi7scgt19CidGz8ZpHTrtsMUfXLS6Wt8Q"], "asm": "OP_DUP OP_HASH160 ac50ad9f53f7a7ab0de55f1f7bd5c146a87029e0 OP_EQUALVERIFY OP_CHECKSIG", "type": "pubkeyhash"}, "value": 5.46e-06, "n": 2}], "hex": "0100000003615105a0133be4377388cdbba92b6efccba3882787f207d5fd2511253a470d74020000006a47304402205ef9bb69db9fa674a8bd9e0b149b53f9e12911b49a4282f962b6fed104255a9b022068e2ae471b434a589cf8b1e7edbc66b7a1db300eae553f39a20af4a35c887f8c012103364dd67b21b232c876e6a935513226463f0f2f5b8b1392bda35698d6bf56c6a2ffffffff953d6c7f70281fc91eeabed451fa5883a5bd59f4954caff8e864a7fed61336ae000000006b483045022100b885fc27c04e02d3b540b6b247c26ef53dad17f2e88dc45460cdd8bd7ad6832802202e302b4db69702eb543c0f628283a8f1685bcf0e485648c792d04dee60ba2c370121035261cbee3658f2d5eda72974ecb86224ec61e3b879b7a7e0f69e87ddfd028580ffffffff953d6c7f70281fc91eeabed451fa5883a5bd59f4954caff8e864a7fed61336ae020000006a47304402201da9057be3d1063a7a9ffcdf9492c6b772b306f2fa4fbcab0def595361cf5307022045063c4003e27cc3d76d74a84dee6a0fcc03c601daac1f92a75f0cbed21058790121035261cbee3658f2d5eda72974ecb86224ec61e3b879b7a7e0f69e87ddfd028580ffffffff036b0c8300000000001976a914ac50ad9f53f7a7ab0de55f1f7bd5c146a87029e088ac0000000000000000166a146f6d6e69000000000000001f000000f478e0840022020000000000001976a914ac50ad9f53f7a7ab0de55f1f7bd5c146a87029e088ac00000000", "vin": [{"sequence": 4294967295, "scriptSig": {"hex": "47304402205ef9bb69db9fa674a8bd9e0b149b53f9e12911b49a4282f962b6fed104255a9b022068e2ae471b434a589cf8b1e7edbc66b7a1db300eae553f39a20af4a35c887f8c012103364dd67b21b232c876e6a935513226463f0f2f5b8b1392bda35698d6bf56c6a2", "asm": "304402205ef9bb69db9fa674a8bd9e0b149b53f9e12911b49a4282f962b6fed104255a9b022068e2ae471b434a589cf8b1e7edbc66b7a1db300eae553f39a20af4a35c887f8c[ALL] 03364dd67b21b232c876e6a935513226463f0f2f5b8b1392bda35698d6bf56c6a2"}, "vout": 2, "txid": "740d473a251125fdd507f2872788a3cbfc6e2ba9bbcd887337e43b13a0055161"}, {"sequence": 4294967295, "scriptSig": {"hex": "483045022100b885fc27c04e02d3b540b6b247c26ef53dad17f2e88dc45460cdd8bd7ad6832802202e302b4db69702eb543c0f628283a8f1685bcf0e485648c792d04dee60ba2c370121035261cbee3658f2d5eda72974ecb86224ec61e3b879b7a7e0f69e87ddfd028580", "asm": "3045022100b885fc27c04e02d3b540b6b247c26ef53dad17f2e88dc45460cdd8bd7ad6832802202e302b4db69702eb543c0f628283a8f1685bcf0e485648c792d04dee60ba2c37[ALL] 035261cbee3658f2d5eda72974ecb86224ec61e3b879b7a7e0f69e87ddfd028580"}, "vout": 0, "txid": "ae3613d6fea764e8f8af4c95f459bda58358fa51d4beea1ec91f28707f6c3d95"}, {"sequence": 4294967295, "scriptSig": {"hex": "47304402201da9057be3d1063a7a9ffcdf9492c6b772b306f2fa4fbcab0def595361cf5307022045063c4003e27cc3d76d74a84dee6a0fcc03c601daac1f92a75f0cbed21058790121035261cbee3658f2d5eda72974ecb86224ec61e3b879b7a7e0f69e87ddfd028580", "asm": "304402201da9057be3d1063a7a9ffcdf9492c6b772b306f2fa4fbcab0def595361cf5307022045063c4003e27cc3d76d74a84dee6a0fcc03c601daac1f92a75f0cbed2105879[ALL] 035261cbee3658f2d5eda72974ecb86224ec61e3b879b7a7e0f69e87ddfd028580"}, "vout": 2, "txid": "ae3613d6fea764e8f8af4c95f459bda58358fa51d4beea1ec91f28707f6c3d95"}], "txid": "aba00e35420a30f9258f64a149aae5eb49eaf5c0ea29636f97d065c0084f0077", "blocktime": 1537870928, "version": 1, "confirmations": 11512, "time": 1537870928, "locktime": 0, "vsize": 551, "size": 551}