{"hash": "aba2dc72d7067443c78e1f17b4d053fafd65a6aea740766b272ea9b699298cc3", "blockhash": "00000000000000000024a2167bbff67b0be802c0b01cdd79e6331c2be6459f87", "vout": [{"scriptPubKey": {"reqSigs": 1, "hex": "76a91449eed148e00dd34343aedcffd22f0c21d2f1175a88ac", "addresses": ["17jvRLUFqihZ2VRQtb4dXLGPb5ekC13fed"], "asm": "OP_DUP OP_HASH160 49eed148e00dd34343aedcffd22f0c21d2f1175a OP_EQUALVERIFY OP_CHECKSIG", "type": "pubkeyhash"}, "value": 0.44577278, "n": 0}, {"scriptPubKey": {"reqSigs": 1, "hex": "a9141ae30751f4092f5962c7fa4885389c095f3bb7ae87", "addresses": ["349BTkimzU4C7VGWoJxgZmMKdYQ2PMXFgj"], "asm": "OP_HASH160 1ae30751f4092f5962c7fa4885389c095f3bb7ae OP_EQUAL", "type": "scripthash"}, "value": 2.0, "n": 1}], "hex": "0100000003d6b7ee12f20ed81e4143939ac429a283a2dc33c84d4679b747896d630ff78018010000006a47304402202738a9b31bd844f309bad1de218a90e88f5bda6bf093a620fd4943f360796b47022036420dbfe85eedd9172506f74844cd675aa797c2628fda8c1124dfc7d4ef3ac5012102b1d17c38657e332b714d6f0936740cf14f05b960af35b1421df306a5e4b4ca42fffffffff2bbe1597a73dc6954a38906bf9369f1cb62619537a86333ebcfc2474f34a8681b0000006b483045022100dfb784882047a970832133e5f2bab23f2d78d25f8a947f51d1993fc5e7018aa00220649fe6782f32459ee18a1c142a9d9f305f0d8639dfd515b9e1bac2fc61e714ea012103c5af9880b05dad90e99970cf36feb557afc242bb5602ed13e9b28e80aabefd59fffffffff93a4c15adbcfd2f8a001d7f6ce886f894dfe85aa0265c842a702435146b13af010000006a4730440220351ac5d61fb3a26e8084c963e93bcd836b4c36670534b844834b8481884b175a0220253f4df30462be397e1f3d5d1bc78a1c30d61fa519f3da5937feca9851fbf7df012102c85406ecd38705117450ba4a87e8967e6879231c3af94de2f6d56a5416260582ffffffff02fe31a802000000001976a91449eed148e00dd34343aedcffd22f0c21d2f1175a88ac00c2eb0b0000000017a9141ae30751f4092f5962c7fa4885389c095f3bb7ae8700000000", "vin": [{"sequence": 4294967295, "scriptSig": {"hex": "47304402202738a9b31bd844f309bad1de218a90e88f5bda6bf093a620fd4943f360796b47022036420dbfe85eedd9172506f74844cd675aa797c2628fda8c1124dfc7d4ef3ac5012102b1d17c38657e332b714d6f0936740cf14f05b960af35b1421df306a5e4b4ca42", "asm": "304402202738a9b31bd844f309bad1de218a90e88f5bda6bf093a620fd4943f360796b47022036420dbfe85eedd9172506f74844cd675aa797c2628fda8c1124dfc7d4ef3ac5[ALL] 02b1d17c38657e332b714d6f0936740cf14f05b960af35b1421df306a5e4b4ca42"}, "vout": 1, "txid": "1880f70f636d8947b779464dc833dca283a229c49a9343411ed80ef212eeb7d6"}, {"sequence": 4294967295, "scriptSig": {"hex": "483045022100dfb784882047a970832133e5f2bab23f2d78d25f8a947f51d1993fc5e7018aa00220649fe6782f32459ee18a1c142a9d9f305f0d8639dfd515b9e1bac2fc61e714ea012103c5af9880b05dad90e99970cf36feb557afc242bb5602ed13e9b28e80aabefd59", "asm": "3045022100dfb784882047a970832133e5f2bab23f2d78d25f8a947f51d1993fc5e7018aa00220649fe6782f32459ee18a1c142a9d9f305f0d8639dfd515b9e1bac2fc61e714ea[ALL] 03c5af9880b05dad90e99970cf36feb557afc242bb5602ed13e9b28e80aabefd59"}, "vout": 27, "txid": "68a8344f47c2cfeb3363a837956162cbf16993bf0689a35469dc737a59e1bbf2"}, {"sequence": 4294967295, "scriptSig": {"hex": "4730440220351ac5d61fb3a26e8084c963e93bcd836b4c36670534b844834b8481884b175a0220253f4df30462be397e1f3d5d1bc78a1c30d61fa519f3da5937feca9851fbf7df012102c85406ecd38705117450ba4a87e8967e6879231c3af94de2f6d56a5416260582", "asm": "30440220351ac5d61fb3a26e8084c963e93bcd836b4c36670534b844834b8481884b175a0220253f4df30462be397e1f3d5d1bc78a1c30d61fa519f3da5937feca9851fbf7df[ALL] 02c85406ecd38705117450ba4a87e8967e6879231c3af94de2f6d56a5416260582"}, "vout": 1, "txid": "af136b143524702a845c26a05ae8df94f886e86c7f1d008a2ffdbcad154c3af9"}], "txid": "aba2dc72d7067443c78e1f17b4d053fafd65a6aea740766b272ea9b699298cc3", "blocktime": 1537870564, "version": 1, "confirmations": 11515, "time": 1537870564, "locktime": 0, "vsize": 518, "size": 518}