{"hash": "aba372ddbcbcd3e7fffe8f36a9a61e7f02b698143e4da4a8d2c6a273e271271d", "blockhash": "00000000000000000017f5eb5941039fbcee6240d03bc1f2f8e35350df66a1d8", "vout": [{"scriptPubKey": {"reqSigs": 1, "hex": "76a914657fa600e46e4048d9beb4085b255794a61c8f2e88ac", "addresses": ["1AFgAYbWseqo5pwiBk3gNap7J4g6xf2Qfn"], "asm": "OP_DUP OP_HASH160 657fa600e46e4048d9beb4085b255794a61c8f2e OP_EQUALVERIFY OP_CHECKSIG", "type": "pubkeyhash"}, "value": 0.001, "n": 0}, {"scriptPubKey": {"reqSigs": 1, "hex": "76a9140e5fb070d36e52e6c8bc3c4ae2f169b52db5badd88ac", "addresses": ["12K16HnCpPf6eSx8hJDaM9CDuQhn6NDpWr"], "asm": "OP_DUP OP_HASH160 0e5fb070d36e52e6c8bc3c4ae2f169b52db5badd OP_EQUALVERIFY OP_CHECKSIG", "type": "pubkeyhash"}, "value": 1.53179, "n": 1}], "hex": "01000000017009367872dfc09304bca8aa87d5d8d68f5f81f27ea0206dac4a19a54914c7f4180000006a473044022011ffe31eb9fb6a0cfb0ef9008f1cef1808173ea8ff38b12803fb6750a8440c620220410c93ecdc065a77d1246558ebcde06fe3c539bb9f956fb61db92f5f38645592012103d7eabda3eaba33edcfd52f715bd5cdd216a97d8400d9c89f5314e77b9a1244f8feffffff02a0860100000000001976a914657fa600e46e4048d9beb4085b255794a61c8f2e88ac78532109000000001976a9140e5fb070d36e52e6c8bc3c4ae2f169b52db5badd88ac15490800", "vin": [{"sequence": 4294967294, "scriptSig": {"hex": "473044022011ffe31eb9fb6a0cfb0ef9008f1cef1808173ea8ff38b12803fb6750a8440c620220410c93ecdc065a77d1246558ebcde06fe3c539bb9f956fb61db92f5f38645592012103d7eabda3eaba33edcfd52f715bd5cdd216a97d8400d9c89f5314e77b9a1244f8", "asm": "3044022011ffe31eb9fb6a0cfb0ef9008f1cef1808173ea8ff38b12803fb6750a8440c620220410c93ecdc065a77d1246558ebcde06fe3c539bb9f956fb61db92f5f38645592[ALL] 03d7eabda3eaba33edcfd52f715bd5cdd216a97d8400d9c89f5314e77b9a1244f8"}, "vout": 24, "txid": "f4c71449a5194aac6d20a07ef2815f8fd6d8d587aaa8bc0493c0df7278360970"}], "txid": "aba372ddbcbcd3e7fffe8f36a9a61e7f02b698143e4da4a8d2c6a273e271271d", "blocktime": 1537874412, "version": 1, "confirmations": 11467, "time": 1537874412, "locktime": 542997, "vsize": 225, "size": 225}