{"hash": "aba8464a26b71578f496c76c5e58903947bcd3440048c180606de746c9232b6f", "blockhash": "00000000000000000017f5eb5941039fbcee6240d03bc1f2f8e35350df66a1d8", "vout": [{"scriptPubKey": {"reqSigs": 1, "hex": "76a9142d97d8e3fccb9f4c0f2ac95829a7185e43dcbe5288ac", "addresses": ["15A5KASdHgmn67wBF6TngyPptitKhmx63L"], "asm": "OP_DUP OP_HASH160 2d97d8e3fccb9f4c0f2ac95829a7185e43dcbe52 OP_EQUALVERIFY OP_CHECKSIG", "type": "pubkeyhash"}, "value": 0.298, "n": 0}, {"scriptPubKey": {"reqSigs": 1, "hex": "76a914bfb9d2bdd000a3a4a15fc88d9806a4d547a7e46d88ac", "addresses": ["1JUkfs2UVfBdisGSrRKdnUm6Ud9HpcnMki"], "asm": "OP_DUP OP_HASH160 bfb9d2bdd000a3a4a15fc88d9806a4d547a7e46d OP_EQUALVERIFY OP_CHECKSIG", "type": "pubkeyhash"}, "value": 0.08398906, "n": 1}], "hex": "0100000004ca98e2b550a0c20739c2ad99556f3787ff59e335fbe0c70426e1bca6b9def1cf150000006a4730440220599a65573223e33e3c600fb416241c83296daa65a339415d5b0e78d3bd976f3e022013b32382871f97c6af0d5adf4660e2316c2a0f09e95df2258bdcc49fe9649ca1012103f6542aad339b4a4868bd1b804f0b2b610daa7726f74656b56c8a4452a22bad08ffffffffca98e2b550a0c20739c2ad99556f3787ff59e335fbe0c70426e1bca6b9def1cf220000006b483045022100921d4585449e39708b1ff0217b8f844d4da02559561b9380cc20981c598e82ac02205291092a0c2b559a85adc4380c4588b71ee1ccc3abab1560b5fc8b4c0bb968d2012103f6542aad339b4a4868bd1b804f0b2b610daa7726f74656b56c8a4452a22bad08ffffffff3a5b2a931e102c8c42a902a41561249ee119f05cad9c0b9c020112450d5720b80000000069463043022017a52941063abd7533024563c285fbcda5f6120857f4304962b6e3a88456274a021f6f58093c74cbc76591e28fc97fe6bb4a5838267aabbb971a5b6aaac44bdf7c012103f6542aad339b4a4868bd1b804f0b2b610daa7726f74656b56c8a4452a22bad08ffffffff1ec0768a87a7977304039db3243f5d480176d1c690b78e0e6da297564d169c01000000006a47304402203b826a65f05338c3372832811a2a495626aeac4bd6dc8fb1ff9aa1e7fae1ca2d02204fd12970d9b2e836f7204f708e0ee1bf4df96db13f57bc8c37fb73f2c3c87791012103f6542aad339b4a4868bd1b804f0b2b610daa7726f74656b56c8a4452a22bad08ffffffff0240b6c601000000001976a9142d97d8e3fccb9f4c0f2ac95829a7185e43dcbe5288ac3a288000000000001976a914bfb9d2bdd000a3a4a15fc88d9806a4d547a7e46d88ac00000000", "vin": [{"sequence": 4294967295, "scriptSig": {"hex": "4730440220599a65573223e33e3c600fb416241c83296daa65a339415d5b0e78d3bd976f3e022013b32382871f97c6af0d5adf4660e2316c2a0f09e95df2258bdcc49fe9649ca1012103f6542aad339b4a4868bd1b804f0b2b610daa7726f74656b56c8a4452a22bad08", "asm": "30440220599a65573223e33e3c600fb416241c83296daa65a339415d5b0e78d3bd976f3e022013b32382871f97c6af0d5adf4660e2316c2a0f09e95df2258bdcc49fe9649ca1[ALL] 03f6542aad339b4a4868bd1b804f0b2b610daa7726f74656b56c8a4452a22bad08"}, "vout": 21, "txid": "cff1deb9a6bce12604c7e0fb35e359ff87376f5599adc23907c2a050b5e298ca"}, {"sequence": 4294967295, "scriptSig": {"hex": "483045022100921d4585449e39708b1ff0217b8f844d4da02559561b9380cc20981c598e82ac02205291092a0c2b559a85adc4380c4588b71ee1ccc3abab1560b5fc8b4c0bb968d2012103f6542aad339b4a4868bd1b804f0b2b610daa7726f74656b56c8a4452a22bad08", "asm": "3045022100921d4585449e39708b1ff0217b8f844d4da02559561b9380cc20981c598e82ac02205291092a0c2b559a85adc4380c4588b71ee1ccc3abab1560b5fc8b4c0bb968d2[ALL] 03f6542aad339b4a4868bd1b804f0b2b610daa7726f74656b56c8a4452a22bad08"}, "vout": 34, "txid": "cff1deb9a6bce12604c7e0fb35e359ff87376f5599adc23907c2a050b5e298ca"}, {"sequence": 4294967295, "scriptSig": {"hex": "463043022017a52941063abd7533024563c285fbcda5f6120857f4304962b6e3a88456274a021f6f58093c74cbc76591e28fc97fe6bb4a5838267aabbb971a5b6aaac44bdf7c012103f6542aad339b4a4868bd1b804f0b2b610daa7726f74656b56c8a4452a22bad08", "asm": "3043022017a52941063abd7533024563c285fbcda5f6120857f4304962b6e3a88456274a021f6f58093c74cbc76591e28fc97fe6bb4a5838267aabbb971a5b6aaac44bdf7c[ALL] 03f6542aad339b4a4868bd1b804f0b2b610daa7726f74656b56c8a4452a22bad08"}, "vout": 0, "txid": "b820570d451201029c0b9cad5cf019e19e246115a402a9428c2c101e932a5b3a"}, {"sequence": 4294967295, "scriptSig": {"hex": "47304402203b826a65f05338c3372832811a2a495626aeac4bd6dc8fb1ff9aa1e7fae1ca2d02204fd12970d9b2e836f7204f708e0ee1bf4df96db13f57bc8c37fb73f2c3c87791012103f6542aad339b4a4868bd1b804f0b2b610daa7726f74656b56c8a4452a22bad08", "asm": "304402203b826a65f05338c3372832811a2a495626aeac4bd6dc8fb1ff9aa1e7fae1ca2d02204fd12970d9b2e836f7204f708e0ee1bf4df96db13f57bc8c37fb73f2c3c87791[ALL] 03f6542aad339b4a4868bd1b804f0b2b610daa7726f74656b56c8a4452a22bad08"}, "vout": 0, "txid": "019c164d5697a26d0e8eb790c6d17601485d3f24b39d03047397a7878a76c01e"}], "txid": "aba8464a26b71578f496c76c5e58903947bcd3440048c180606de746c9232b6f", "blocktime": 1537874412, "version": 1, "confirmations": 11467, "time": 1537874412, "locktime": 0, "vsize": 666, "size": 666}