{"hash": "aba8708412d1af5faee7f8212ce2c8dba6dc7030478fb14cde9c9b9fe863aa5c", "blockhash": "0000000000000000001cda96e906b7601b7a6fb1a3b62bca570a9e5d8f4b3de1", "vout": [{"scriptPubKey": {"reqSigs": 1, "hex": "76a9144b5021ebede966e6356cb4ba3fc9b43e85742e1f88ac", "addresses": ["17sDg6JYtkR1a6cFLhneqNALuniNupLjPz"], "asm": "OP_DUP OP_HASH160 4b5021ebede966e6356cb4ba3fc9b43e85742e1f OP_EQUALVERIFY OP_CHECKSIG", "type": "pubkeyhash"}, "value": 0.000619, "n": 0}, {"scriptPubKey": {"type": "nulldata", "hex": "6a4c50000077d600013d397e1442baadab1ee11fa75b23cc0f42c2fc38c5e5bf9ae76da98a211ac24e26e5571bd9ae408f4f8470e7d7ab5baa15540612fa0ec1b9dc0fbc9a9526289ac0f6612cd74e33776ee4", "asm": "OP_RETURN 000077d600013d397e1442baadab1ee11fa75b23cc0f42c2fc38c5e5bf9ae76da98a211ac24e26e5571bd9ae408f4f8470e7d7ab5baa15540612fa0ec1b9dc0fbc9a9526289ac0f6612cd74e33776ee4"}, "value": 0.0, "n": 1}], "hex": "01000000012ca5de25f6506b6571a74e76b91607449ca21aa8d58b3caab6ff95c982a33967000000006a4730440220596f51edf484aaff771b6c6bd56beaa2871338795271d5f723112d6f2b6df40202201fa273c2d648328a82d419de844234d26cc0ea51285c84393f4f3104969218c50121038716d2046ed960f1e68f840f0109967a9558ad856b648dfcb3800ddee3957ac3ffffffff02ccf10000000000001976a9144b5021ebede966e6356cb4ba3fc9b43e85742e1f88ac0000000000000000536a4c50000077d600013d397e1442baadab1ee11fa75b23cc0f42c2fc38c5e5bf9ae76da98a211ac24e26e5571bd9ae408f4f8470e7d7ab5baa15540612fa0ec1b9dc0fbc9a9526289ac0f6612cd74e33776ee400000000", "vin": [{"sequence": 4294967295, "scriptSig": {"hex": "4730440220596f51edf484aaff771b6c6bd56beaa2871338795271d5f723112d6f2b6df40202201fa273c2d648328a82d419de844234d26cc0ea51285c84393f4f3104969218c50121038716d2046ed960f1e68f840f0109967a9558ad856b648dfcb3800ddee3957ac3", "asm": "30440220596f51edf484aaff771b6c6bd56beaa2871338795271d5f723112d6f2b6df40202201fa273c2d648328a82d419de844234d26cc0ea51285c84393f4f3104969218c5[ALL] 038716d2046ed960f1e68f840f0109967a9558ad856b648dfcb3800ddee3957ac3"}, "vout": 0, "txid": "6739a382c995ffb6aa3c8bd5a81aa29c440716b9764ea771656b50f625dea52c"}], "txid": "aba8708412d1af5faee7f8212ce2c8dba6dc7030478fb14cde9c9b9fe863aa5c", "blocktime": 1537873282, "version": 1, "confirmations": 11484, "time": 1537873282, "locktime": 0, "vsize": 283, "size": 283}