{"hash": "76d7e1ecd3637fc2faf6cdf31e21265cb78d1093c6d376a30b71997f73c9ea23", "blockhash": "00000000000000000004ffacab907a6b429b9a5745fa0b75af4234bf69dd7176", "vout": [{"scriptPubKey": {"reqSigs": 1, "hex": "76a9148c6820c1e3466a138d9c2f6dfbc1f75bd922ff6688ac", "addresses": ["1DoQLo2qzYZaQxxZMsHYgTekon5PyMK35j"], "asm": "OP_DUP OP_HASH160 8c6820c1e3466a138d9c2f6dfbc1f75bd922ff66 OP_EQUALVERIFY OP_CHECKSIG", "type": "pubkeyhash"}, "value": 0.04526, "n": 0}, {"scriptPubKey": {"reqSigs": 1, "hex": "a914fc9607b604f0e45892de00a2e47d62311d20aa7787", "addresses": ["3QiZwAGU1Kgrn8fAPHjPbQ11Q5kDsVHVNW"], "asm": "OP_HASH160 fc9607b604f0e45892de00a2e47d62311d20aa77 OP_EQUAL", "type": "scripthash"}, "value": 0.052425, "n": 1}], "hex": "020000000001013cf383e3fb6df4cf0d10ccf35e604f06e14efb9d3412484103571b7916b7531f00000000171600147ca4c81a8652db5a62099961a5019f38bd3d5e56fdffffff02b00f4500000000001976a9148c6820c1e3466a138d9c2f6dfbc1f75bd922ff6688ac84fe4f000000000017a914fc9607b604f0e45892de00a2e47d62311d20aa778702473044022010a46e4b4096770a592ce0ed7f6ee7949af66aa3c5daf11b6abddf7f47938dfc02202a0a1af897c1881ae9f27f27d5856a70e7bab2f9993142e8c21a10271eb99396012103c67973c2302cd348abef92561d396c2b571e6aece2b678e027ff1d695e2117f4d2480800", "vin": [{"txinwitness": ["3044022010a46e4b4096770a592ce0ed7f6ee7949af66aa3c5daf11b6abddf7f47938dfc02202a0a1af897c1881ae9f27f27d5856a70e7bab2f9993142e8c21a10271eb9939601", "03c67973c2302cd348abef92561d396c2b571e6aece2b678e027ff1d695e2117f4"], "sequence": 4294967293, "scriptSig": {"hex": "1600147ca4c81a8652db5a62099961a5019f38bd3d5e56", "asm": "00147ca4c81a8652db5a62099961a5019f38bd3d5e56"}, "vout": 0, "txid": "1f53b716791b5703414812349dfb4ee1064f605ef3cc100dcff46dfbe383f33c"}], "txid": "abaa53f63fd484a58f9160143a187baa29fef307e6ff4e0b054553eaec6bab8b", "blocktime": 1537875543, "version": 2, "confirmations": 11464, "time": 1537875543, "locktime": 542930, "vsize": 168, "size": 249}