{"hash": "b9eca93bd14decdfca4f7f860681e843985c8ba8cbf4fe74a372468a70b56699", "blockhash": "00000000000000000004ffacab907a6b429b9a5745fa0b75af4234bf69dd7176", "vout": [{"scriptPubKey": {"reqSigs": 1, "hex": "a91469f3750e29fb57e84050cb206d3c881dd2620d2487", "addresses": ["3BMEXPh6sziRKsakBBEPNC5MD8jGeb8kdv"], "asm": "OP_HASH160 69f3750e29fb57e84050cb206d3c881dd2620d24 OP_EQUAL", "type": "scripthash"}, "value": 0.049, "n": 0}, {"scriptPubKey": {"reqSigs": 1, "hex": "a9148cc7ee06e47a0064285a6cd483baf45dbac628c287", "addresses": ["3EXQ2mMXZvoM13NbBqQ35p4Jhes59qPUKi"], "asm": "OP_HASH160 8cc7ee06e47a0064285a6cd483baf45dbac628c2 OP_EQUAL", "type": "scripthash"}, "value": 0.00832658, "n": 1}, {"scriptPubKey": {"reqSigs": 1, "hex": "0020701a8d401c84fb13e6baf169d59684e17abd9fa216c8cc5b9fc63d622ff8c58d", "addresses": ["bc1qwqdg6squsna38e46795at95yu9atm8azzmyvckulcc7kytlcckxswvvzej"], "asm": "0 701a8d401c84fb13e6baf169d59684e17abd9fa216c8cc5b9fc63d622ff8c58d", "type": "witness_v0_scripthash"}, "value": 0.00715512, "n": 2}], "hex": "01000000000101f3858e332b1297eefcac5a6fcb16b6faafed0926c9d7089a687b9795a08932860100000000ffffffff03a0c44a000000000017a91469f3750e29fb57e84050cb206d3c881dd2620d248792b40c000000000017a9148cc7ee06e47a0064285a6cd483baf45dbac628c287f8ea0a0000000000220020701a8d401c84fb13e6baf169d59684e17abd9fa216c8cc5b9fc63d622ff8c58d0400473044022000a5dceb8cd8277e81c58bedf5484326e6e2625c197470a8a0876708d9e31a690220480fbf8a9e3f16f8c0464867e44afb8b4e0ada60b6d46c39e90741dd034cac66014730440220658d4ee7309672891cb668e784bf521f33f8ed08f193deddbe1ac1620b5ebd3102205c75807583aecc2c84e571d4617683a331675e139da86d2bd2d3883113377c13016952210375e00eb72e29da82b89367947f29ef34afb75e8654f6ea368e0acdfd92976b7c2103a1b26313f430c4b15bb1fdce663207659d8cac749a0e53d70eff01874496feff2103c96d495bfdd5ba4145e3e046fee45e84a8a48ad05bd8dbb395c011a32cf9f88053ae00000000", "vin": [{"txinwitness": ["", "3044022000a5dceb8cd8277e81c58bedf5484326e6e2625c197470a8a0876708d9e31a690220480fbf8a9e3f16f8c0464867e44afb8b4e0ada60b6d46c39e90741dd034cac6601", "30440220658d4ee7309672891cb668e784bf521f33f8ed08f193deddbe1ac1620b5ebd3102205c75807583aecc2c84e571d4617683a331675e139da86d2bd2d3883113377c1301", "52210375e00eb72e29da82b89367947f29ef34afb75e8654f6ea368e0acdfd92976b7c2103a1b26313f430c4b15bb1fdce663207659d8cac749a0e53d70eff01874496feff2103c96d495bfdd5ba4145e3e046fee45e84a8a48ad05bd8dbb395c011a32cf9f88053ae"], "sequence": 4294967295, "scriptSig": {"hex": "", "asm": ""}, "vout": 1, "txid": "863289a095977b689a08d7c92609edaffab616cb6f5aacfcee97122b338e85f3"}], "txid": "abb2fc4ff574010e6b758882b3809774ae6f007e267ddef448fb46b78ea52e1a", "blocktime": 1537875543, "version": 1, "confirmations": 11464, "time": 1537875543, "locktime": 0, "vsize": 222, "size": 412}