{"hash": "abb2b79c9932640c2c87ef948c9ee91da084cfef7d08d2546c246f4401c92240", "blockhash": "0000000000000000001f76057863aec43deb6fa401d9628bb513d65a8098bfab", "vout": [{"scriptPubKey": {"reqSigs": 1, "hex": "a91469f37406f0dc35ef38aede7c7b81ba0bb8b8296b87", "addresses": ["3BMEX7WKB9nX3QE41c8FRnSyrKN1RBdRVE"], "asm": "OP_HASH160 69f37406f0dc35ef38aede7c7b81ba0bb8b8296b OP_EQUAL", "type": "scripthash"}, "value": 0.04336, "n": 0}, {"scriptPubKey": {"reqSigs": 1, "hex": "76a914d5ba2eb2d52670fbe9522748bf642da754eb0d6f88ac", "addresses": ["1LV5y3NkVkmdWnF6xRCEXrAnUkRgge4KSq"], "asm": "OP_DUP OP_HASH160 d5ba2eb2d52670fbe9522748bf642da754eb0d6f OP_EQUALVERIFY OP_CHECKSIG", "type": "pubkeyhash"}, "value": 0.33645439, "n": 1}], "hex": "010000000120a73fc798d3ca3362a3eb32a49b10edb9bd52cfcc3194146f36baae0a6b1b54010000006a47304402205e042c39a0dddf3bc8810f78e64b5e6417a8084acf2bba545f549c134ed6941502205f1dbba007b8517849eae353d31c395ad2ad166557a0b48d81563b3069b9e3c5012102c19ebc0e7fe714e24c55adaeebc7dbab2dc9a208b511bd1b6e83db85506d4d19ffffffff02802942000000000017a91469f37406f0dc35ef38aede7c7b81ba0bb8b8296b877f630102000000001976a914d5ba2eb2d52670fbe9522748bf642da754eb0d6f88ac00000000", "vin": [{"sequence": 4294967295, "scriptSig": {"hex": "47304402205e042c39a0dddf3bc8810f78e64b5e6417a8084acf2bba545f549c134ed6941502205f1dbba007b8517849eae353d31c395ad2ad166557a0b48d81563b3069b9e3c5012102c19ebc0e7fe714e24c55adaeebc7dbab2dc9a208b511bd1b6e83db85506d4d19", "asm": "304402205e042c39a0dddf3bc8810f78e64b5e6417a8084acf2bba545f549c134ed6941502205f1dbba007b8517849eae353d31c395ad2ad166557a0b48d81563b3069b9e3c5[ALL] 02c19ebc0e7fe714e24c55adaeebc7dbab2dc9a208b511bd1b6e83db85506d4d19"}, "vout": 1, "txid": "541b6b0aaeba366f149431cccf52bdb9ed109ba432eba36233cad398c73fa720"}], "txid": "abb2b79c9932640c2c87ef948c9ee91da084cfef7d08d2546c246f4401c92240", "blocktime": 1537873891, "version": 1, "confirmations": 11478, "time": 1537873891, "locktime": 0, "vsize": 223, "size": 223}