{"hash": "abb34d6a54d4f862a25b1cd277498e44154d7413b6b32873fb0bf08f810822d7", "blockhash": "000000000000000000205f8b0775d31398ef75b89a5e8ec8d2c57b4dc0ac4c20", "vout": [{"scriptPubKey": {"reqSigs": 1, "hex": "76a9147fab32a18413fa40f49e0b31a6d365ade6b8cd9988ac", "addresses": ["1Ce3uPmXPMPEWi57aYn1V4d3CfuctEi9dJ"], "asm": "OP_DUP OP_HASH160 7fab32a18413fa40f49e0b31a6d365ade6b8cd99 OP_EQUALVERIFY OP_CHECKSIG", "type": "pubkeyhash"}, "value": 0.01900692, "n": 0}, {"scriptPubKey": {"reqSigs": 1, "hex": "76a9144a0f1e2f2b0d7daeec5265f10bbbbe08ed725e8988ac", "addresses": ["17kb7c9ndg7ioSuzMWEHWECdEVUegNkcGc"], "asm": "OP_DUP OP_HASH160 4a0f1e2f2b0d7daeec5265f10bbbbe08ed725e89 OP_EQUALVERIFY OP_CHECKSIG", "type": "pubkeyhash"}, "value": 0.00439014, "n": 1}], "hex": "0100000001fae3302e18dfebe5dd9dc582bc5fbfef78dccde3ac72c7c3f2d34c967426cfbe010000006b483045022100a3ea6c4e1426078a01175d194aba0729f2b4ec59fe61e7fa787ec4d2f8b4b4a1022058c01a60195303fb906716abe6ae9eafa9d9579ae41c81ce1226e681e22cf6ae01210363e1776495149c5a4e92acf453a3caa19000fc804e4ba2024b600ba25e09c943ffffffff0294001d00000000001976a9147fab32a18413fa40f49e0b31a6d365ade6b8cd9988ace6b20600000000001976a9144a0f1e2f2b0d7daeec5265f10bbbbe08ed725e8988ac00000000", "vin": [{"sequence": 4294967295, "scriptSig": {"hex": "483045022100a3ea6c4e1426078a01175d194aba0729f2b4ec59fe61e7fa787ec4d2f8b4b4a1022058c01a60195303fb906716abe6ae9eafa9d9579ae41c81ce1226e681e22cf6ae01210363e1776495149c5a4e92acf453a3caa19000fc804e4ba2024b600ba25e09c943", "asm": "3045022100a3ea6c4e1426078a01175d194aba0729f2b4ec59fe61e7fa787ec4d2f8b4b4a1022058c01a60195303fb906716abe6ae9eafa9d9579ae41c81ce1226e681e22cf6ae[ALL] 0363e1776495149c5a4e92acf453a3caa19000fc804e4ba2024b600ba25e09c943"}, "vout": 1, "txid": "becf2674964cd3f2c3c772ace3cddc78efbf5fbc82c59ddde5ebdf182e30e3fa"}], "txid": "abb34d6a54d4f862a25b1cd277498e44154d7413b6b32873fb0bf08f810822d7", "blocktime": 1537871175, "version": 1, "confirmations": 11511, "time": 1537871175, "locktime": 0, "vsize": 226, "size": 226}