{"hash": "ff5b611ad4586165e1899ff4bc887547b52549fdcd76775e49a09d29338aeb2f", "blockhash": "0000000000000000001f0ddff1eddb255c1121bcd4da4f1bc9a0da00cae72433", "vout": [{"scriptPubKey": {"reqSigs": 1, "hex": "76a914750c0ae3ec25226c4aa15f4ed8f03fbac782ac5d88ac", "addresses": ["1BftVB87ncgXifn6YfSLQt8TDGiUerWEdw"], "asm": "OP_DUP OP_HASH160 750c0ae3ec25226c4aa15f4ed8f03fbac782ac5d OP_EQUALVERIFY OP_CHECKSIG", "type": "pubkeyhash"}, "value": 0.07795666, "n": 0}, {"scriptPubKey": {"reqSigs": 1, "hex": "a914ef3f4eab4b68ffdb217e1dcc94ed8c2a8578cec887", "addresses": ["3PW3G4QqvGCxKnGFAS5dBn7degfVv1RKRd"], "asm": "OP_HASH160 ef3f4eab4b68ffdb217e1dcc94ed8c2a8578cec8 OP_EQUAL", "type": "scripthash"}, "value": 0.15274131, "n": 1}], "hex": "0100000000010125c12535b970e45fc87cb5655782626b5027be528131d3bbc718f7a5eb0d1025010000001716001452afe23f7c4988a4b4fa75dc4959ef02a810ab4cffffffff02d2f37600000000001976a914750c0ae3ec25226c4aa15f4ed8f03fbac782ac5d88ac9310e9000000000017a914ef3f4eab4b68ffdb217e1dcc94ed8c2a8578cec887024730440220105449546da6b1b4f119aaad55c09224571155398da40bc8825f2c6322d9e80702206ccd78af637ba9b9594000230084b782c4e34ca58bf0307287f483a00de303510121029847e3282d04a5cf4688aeaf9a6dcd1468d8425c1ccd8ae9a160b1bcb4e4265100000000", "vin": [{"txinwitness": ["30440220105449546da6b1b4f119aaad55c09224571155398da40bc8825f2c6322d9e80702206ccd78af637ba9b9594000230084b782c4e34ca58bf0307287f483a00de3035101", "029847e3282d04a5cf4688aeaf9a6dcd1468d8425c1ccd8ae9a160b1bcb4e42651"], "sequence": 4294967295, "scriptSig": {"hex": "16001452afe23f7c4988a4b4fa75dc4959ef02a810ab4c", "asm": "001452afe23f7c4988a4b4fa75dc4959ef02a810ab4c"}, "vout": 1, "txid": "25100deba5f718c7bbd3318152be27506b62825765b57cc85fe470b93525c125"}], "txid": "abbc35696c1016582d7b1464561612147a4d3bca56243e4fb299cba540e4c5ab", "blocktime": 1537872018, "version": 1, "confirmations": 11489, "time": 1537872018, "locktime": 0, "vsize": 168, "size": 249}