{"hash": "abc37180f2bf3c167fdcf19220c14f3104db52f828e1c530cde1d31231aeed13", "blockhash": "0000000000000000000e13cef7c366c0283d82e591d1acd082e914b08063cdf1", "vout": [{"scriptPubKey": {"reqSigs": 1, "hex": "76a914403129d10790ee851d14dcb420751f1bfab83c6688ac", "addresses": ["16rR9Cxz7P9ww3bHEeG7sivHfz51UN9yjV"], "asm": "OP_DUP OP_HASH160 403129d10790ee851d14dcb420751f1bfab83c66 OP_EQUALVERIFY OP_CHECKSIG", "type": "pubkeyhash"}, "value": 9.072e-05, "n": 0}, {"scriptPubKey": {"reqSigs": 1, "hex": "76a914409316ae0f068b5d1876a3c07ef4ba2da0f2387d88ac", "addresses": ["16tSTAxtH5K8FiMcXeiTNkE8gwRpERwyKi"], "asm": "OP_DUP OP_HASH160 409316ae0f068b5d1876a3c07ef4ba2da0f2387d OP_EQUALVERIFY OP_CHECKSIG", "type": "pubkeyhash"}, "value": 0.0159457, "n": 1}], "hex": "01000000016fc3933d2f5170b435f409c495f230469356f0368692c468e32c970d7d312b27000000006b4830450221008c4b9267451d93a305a3ca5ae24532ecd0fc644bb64098f1e6aafd6cafdbe5b302205590954098c00dc80c109b86825457c209377448e01df766f1b6502b907c407e012102c57e1b2e6c444696c143b98464888d3e1ffb3b670e5c6e52f998b74455861063ffffffff0270230000000000001976a914403129d10790ee851d14dcb420751f1bfab83c6688acca541800000000001976a914409316ae0f068b5d1876a3c07ef4ba2da0f2387d88ac00000000", "vin": [{"sequence": 4294967295, "scriptSig": {"hex": "4830450221008c4b9267451d93a305a3ca5ae24532ecd0fc644bb64098f1e6aafd6cafdbe5b302205590954098c00dc80c109b86825457c209377448e01df766f1b6502b907c407e012102c57e1b2e6c444696c143b98464888d3e1ffb3b670e5c6e52f998b74455861063", "asm": "30450221008c4b9267451d93a305a3ca5ae24532ecd0fc644bb64098f1e6aafd6cafdbe5b302205590954098c00dc80c109b86825457c209377448e01df766f1b6502b907c407e[ALL] 02c57e1b2e6c444696c143b98464888d3e1ffb3b670e5c6e52f998b74455861063"}, "vout": 0, "txid": "272b317d0d972ce368c4928636f056934630f295c409f435b470512f3d93c36f"}], "txid": "abc37180f2bf3c167fdcf19220c14f3104db52f828e1c530cde1d31231aeed13", "blocktime": 1537871767, "version": 1, "confirmations": 11495, "time": 1537871767, "locktime": 0, "vsize": 226, "size": 226}