{"hash": "abcd7044ff580b83dcaca45c5e2d30357f5e9a9f8d82887d4ab0e99b55c8f644", "blockhash": "00000000000000000004ffacab907a6b429b9a5745fa0b75af4234bf69dd7176", "vout": [{"scriptPubKey": {"reqSigs": 1, "hex": "a914f3c464c5500fd3e12dcd0906ef8cd826e1478c4d87", "addresses": ["3PuwPpxEx5CpwELUBBSRrG2NMdVh4JtVSg"], "asm": "OP_HASH160 f3c464c5500fd3e12dcd0906ef8cd826e1478c4d OP_EQUAL", "type": "scripthash"}, "value": 0.00238, "n": 0}, {"scriptPubKey": {"reqSigs": 1, "hex": "76a91494fdd9836aeeec829388f97fccdf0b014de298ea88ac", "addresses": ["1Eao7B8LmoaA2wXQFXGe9PvP8egWHa3XRd"], "asm": "OP_DUP OP_HASH160 94fdd9836aeeec829388f97fccdf0b014de298ea OP_EQUALVERIFY OP_CHECKSIG", "type": "pubkeyhash"}, "value": 0.01304058, "n": 1}], "hex": "01000000015e382f8ca56c63eaa0bd91eefef042d2911c4ace5fdec35b9de20e18b3170bd5010000006a473044022046c5cef5110215f1071d81d8027f6617c6e218987054b2d354527ed284f721a702207e0d65823c99634b5b5e2bac32940cd8696b8280977a3e559d56213eafe58cf50121027dfdc6da647c36ff7dc4d2f51b283f46590f69e421d824ebb0a95fe97342ee51ffffffff02b0a103000000000017a914f3c464c5500fd3e12dcd0906ef8cd826e1478c4d87fae51300000000001976a91494fdd9836aeeec829388f97fccdf0b014de298ea88ac00000000", "vin": [{"sequence": 4294967295, "scriptSig": {"hex": "473044022046c5cef5110215f1071d81d8027f6617c6e218987054b2d354527ed284f721a702207e0d65823c99634b5b5e2bac32940cd8696b8280977a3e559d56213eafe58cf50121027dfdc6da647c36ff7dc4d2f51b283f46590f69e421d824ebb0a95fe97342ee51", "asm": "3044022046c5cef5110215f1071d81d8027f6617c6e218987054b2d354527ed284f721a702207e0d65823c99634b5b5e2bac32940cd8696b8280977a3e559d56213eafe58cf5[ALL] 027dfdc6da647c36ff7dc4d2f51b283f46590f69e421d824ebb0a95fe97342ee51"}, "vout": 1, "txid": "d50b17b3180ee29d5bc3de5fce4a1c91d242f0feee91bda0ea636ca58c2f385e"}], "txid": "abcd7044ff580b83dcaca45c5e2d30357f5e9a9f8d82887d4ab0e99b55c8f644", "blocktime": 1537875543, "version": 1, "confirmations": 11464, "time": 1537875543, "locktime": 0, "vsize": 223, "size": 223}