{"hash": "2572dc4109ffe1045b96b97faf49462a1cea75b01677ef8744e89f2e2c10420d", "blockhash": "00000000000000000017f5eb5941039fbcee6240d03bc1f2f8e35350df66a1d8", "vout": [{"scriptPubKey": {"reqSigs": 1, "hex": "a9141fe765544dcef61e398ed15c6e759b83a94f41cb87", "addresses": ["34bi59sXDfXuTHy3FCveJsJSYwiMeeUjPo"], "asm": "OP_HASH160 1fe765544dcef61e398ed15c6e759b83a94f41cb OP_EQUAL", "type": "scripthash"}, "value": 0.01078295, "n": 0}, {"scriptPubKey": {"reqSigs": 1, "hex": "76a9141fc58b08f391f17d40f70f4415b479b9d8af04b988ac", "addresses": ["13tzbUyYjJ23kwkbNU1nXUjQTayjnRtoiG"], "asm": "OP_DUP OP_HASH160 1fc58b08f391f17d40f70f4415b479b9d8af04b9 OP_EQUALVERIFY OP_CHECKSIG", "type": "pubkeyhash"}, "value": 0.02482635, "n": 1}], "hex": "0200000000010209f4aea0452dc65710272eb9a94e0f2fbe843424914d334899a574cd7eea1c3d0100000017160014c1ac9da3be988343236e35b02f846daa4190aa84fdffffffe6da90ab18c50528ad63dd548be36ac90ad1f4bc324ec1c2a20388755948eb5d0100000017160014055e5e584aa2020ff918a76afe898a8f43fd3073fdffffff02177410000000000017a9141fe765544dcef61e398ed15c6e759b83a94f41cb87cbe12500000000001976a9141fc58b08f391f17d40f70f4415b479b9d8af04b988ac02483045022100b02ac19801c51a16523b7532d267f0673b782d5920fc59080189a12429195d10022061482ca8e6179c04d1563d27e096620219f1884e3f3442fe88583200c24cfa85012102fa5fcc0faa7eb027150c790e1bfacb2d809cac73186c45842972f7d816f6a3e602473044022022924e3dd6e7e13f4bb7a4db805131fd953b95c79acb352977ab21b4119d66f4022008b5183f59bddf26be1f2d1cc6cf491ee6718c681f6bfd24b234bcfd6478e608012102fd2aac4f48b8be94257b21658d2e0c211c05415ea34413b9c77139af19c143ff15490800", "vin": [{"txinwitness": ["3045022100b02ac19801c51a16523b7532d267f0673b782d5920fc59080189a12429195d10022061482ca8e6179c04d1563d27e096620219f1884e3f3442fe88583200c24cfa8501", "02fa5fcc0faa7eb027150c790e1bfacb2d809cac73186c45842972f7d816f6a3e6"], "sequence": 4294967293, "scriptSig": {"hex": "160014c1ac9da3be988343236e35b02f846daa4190aa84", "asm": "0014c1ac9da3be988343236e35b02f846daa4190aa84"}, "vout": 1, "txid": "3d1cea7ecd74a59948334d91243484be2f0f4ea9b92e271057c62d45a0aef409"}, {"txinwitness": ["3044022022924e3dd6e7e13f4bb7a4db805131fd953b95c79acb352977ab21b4119d66f4022008b5183f59bddf26be1f2d1cc6cf491ee6718c681f6bfd24b234bcfd6478e60801", "02fd2aac4f48b8be94257b21658d2e0c211c05415ea34413b9c77139af19c143ff"], "sequence": 4294967293, "scriptSig": {"hex": "160014055e5e584aa2020ff918a76afe898a8f43fd3073", "asm": "0014055e5e584aa2020ff918a76afe898a8f43fd3073"}, "vout": 1, "txid": "5deb4859758803a2c2c14e32bcf4d10ac96ae38b54dd63ad2805c518ab90dae6"}], "txid": "abd061a20d3d9f9325ab6a612d1536fe79338840819b8d3cd825613ea86e3892", "blocktime": 1537874412, "version": 2, "confirmations": 11466, "time": 1537874412, "locktime": 542997, "vsize": 259, "size": 421}