{"hash": "2020f3fd2f0e6dadb631dfba27f810ffdaec725a2e5568af6818ab8d8b6fadaf", "blockhash": "0000000000000000000e13cef7c366c0283d82e591d1acd082e914b08063cdf1", "vout": [{"scriptPubKey": {"reqSigs": 1, "hex": "76a914875616a5ef54e2a12dbc787ec92a11b1c5f5d97a88ac", "addresses": ["1DLbMRsaZx6x1c4A1wnEHcnURxxYyhXaN2"], "asm": "OP_DUP OP_HASH160 875616a5ef54e2a12dbc787ec92a11b1c5f5d97a OP_EQUALVERIFY OP_CHECKSIG", "type": "pubkeyhash"}, "value": 0.00709956, "n": 0}, {"scriptPubKey": {"reqSigs": 1, "hex": "001450d00fcb09e689dff67f6a168a352200d74c4f50", "addresses": ["bc1q2rgqljcfu6yalanldgtg5dfzqrt5cn6s3z4jhw"], "asm": "0 50d00fcb09e689dff67f6a168a352200d74c4f50", "type": "witness_v0_keyhash"}, "value": 1.88174958, "n": 1}], "hex": "0100000000010122c6ef495cc12341c80d0c84b3c7d21b06577fc248acc3f16b9fe8b261c810050000000000ffffffff0244d50a00000000001976a914875616a5ef54e2a12dbc787ec92a11b1c5f5d97a88ac6e52370b0000000016001450d00fcb09e689dff67f6a168a352200d74c4f50024830450221008f170bb662299626002157990b5ce9c5cf2512d08aafd3867a2ab80087c706790220180e914fe5491b9553467f6e74f4158d6e5e7f09f7f82ebcda68eaff6a2390f30121020f0df1c26319b20162d223a3933dc59dbbfdbb36b6e96ff954ed9be16886b37400000000", "vin": [{"txinwitness": ["30450221008f170bb662299626002157990b5ce9c5cf2512d08aafd3867a2ab80087c706790220180e914fe5491b9553467f6e74f4158d6e5e7f09f7f82ebcda68eaff6a2390f301", "020f0df1c26319b20162d223a3933dc59dbbfdbb36b6e96ff954ed9be16886b374"], "sequence": 4294967295, "scriptSig": {"hex": "", "asm": ""}, "vout": 0, "txid": "0510c861b2e89f6bf1c3ac48c27f57061bd2c7b3840c0dc84123c15c49efc622"}], "txid": "abd159bc07c6d3224916648b84fb149b509b85db16d095146377af973a59eef6", "blocktime": 1537871767, "version": 1, "confirmations": 11495, "time": 1537871767, "locktime": 0, "vsize": 144, "size": 226}