{"hash": "7914049296fa9df75d781a5f7073cc41adb71e2882d6ea1d041cbeb62372e559", "blockhash": "00000000000000000024a2167bbff67b0be802c0b01cdd79e6331c2be6459f87", "vout": [{"scriptPubKey": {"reqSigs": 1, "hex": "a9148ea85c0da95e559ba9fbb5a5bd14f3380d97ef0c87", "addresses": ["3EhKZcV4zyATvQFwJrPFgpvu42SJjgFLkT"], "asm": "OP_HASH160 8ea85c0da95e559ba9fbb5a5bd14f3380d97ef0c OP_EQUAL", "type": "scripthash"}, "value": 0.00048588, "n": 0}, {"scriptPubKey": {"reqSigs": 1, "hex": "76a914d6fa79e11c0d64800cd369ffcb488ad2a606dab688ac", "addresses": ["1LbhfSGSc4m8bdrj5d4S7chbLxrqmirq3z"], "asm": "OP_DUP OP_HASH160 d6fa79e11c0d64800cd369ffcb488ad2a606dab6 OP_EQUALVERIFY OP_CHECKSIG", "type": "pubkeyhash"}, "value": 2.0, "n": 1}], "hex": "01000000000103e58b2b6dc9fe53801acff6add44289ce9ba54401744189c3b7636413b25e53220600000017160014d32211d1231cff35c16e259b352b21bf443ffd7afffffffff4a2470e259addf517b80678c49733fe0e1a1d8e6ec799c24f5b0c2c5a3cd58902000000171600147ccf298d96a679a89ee6bb299cd92bc2b8a7ceffffffffffbde24f4926ce599515a413d45a5429805ba5aa990e59b4774028c4ade7914ff12100000017160014995c897ce65c32862c78b7fd7d80852d42cf3295ffffffff02ccbd00000000000017a9148ea85c0da95e559ba9fbb5a5bd14f3380d97ef0c8700c2eb0b000000001976a914d6fa79e11c0d64800cd369ffcb488ad2a606dab688ac02483045022100c56b3fdbacec65fd8cd39e439bddd81bad46e5a1d05ca8b259e72257a534828f0220350a2b2e6458ea9e42999cdccd239636f67482bfa926a2fc6f72d54b4154861d0121028d3a9443b1d8852588e8c7267903b0f7327cc3957650d71ef0dd2bf5d0d4f53a02483045022100f21fb51ee8bf28c373df4768804860d6a9ce06a9dd7eefe24217121132d598bf02207a556f74938f0b795f4a6a9afd8cd112d44f4ab7467f83158254318dbab95a82012102c78a7f052812588a2f0d5c377322d232ccf900fd69b486de43945837d12f476a02483045022100bcad74b5971e0ed20de30ace1d161602acac7209f53eee0afb2c747b019c62ff0220560433169863c854ebf9f04d227ecc891a8b7593b246426c42402fe52305e3e50121034334c6667382fc5975aae036c188921975366871576a227c157eb8155587175d00000000", "vin": [{"txinwitness": ["3045022100c56b3fdbacec65fd8cd39e439bddd81bad46e5a1d05ca8b259e72257a534828f0220350a2b2e6458ea9e42999cdccd239636f67482bfa926a2fc6f72d54b4154861d01", "028d3a9443b1d8852588e8c7267903b0f7327cc3957650d71ef0dd2bf5d0d4f53a"], "sequence": 4294967295, "scriptSig": {"hex": "160014d32211d1231cff35c16e259b352b21bf443ffd7a", "asm": "0014d32211d1231cff35c16e259b352b21bf443ffd7a"}, "vout": 6, "txid": "22535eb2136463b7c38941740144a59bce8942d4adf6cf1a8053fec96d2b8be5"}, {"txinwitness": ["3045022100f21fb51ee8bf28c373df4768804860d6a9ce06a9dd7eefe24217121132d598bf02207a556f74938f0b795f4a6a9afd8cd112d44f4ab7467f83158254318dbab95a8201", "02c78a7f052812588a2f0d5c377322d232ccf900fd69b486de43945837d12f476a"], "sequence": 4294967295, "scriptSig": {"hex": "1600147ccf298d96a679a89ee6bb299cd92bc2b8a7ceff", "asm": "00147ccf298d96a679a89ee6bb299cd92bc2b8a7ceff"}, "vout": 2, "txid": "89d53c5a2c0c5b4fc299c76e8e1d1a0efe3397c47806b817f5dd9a250e47a2f4"}, {"txinwitness": ["3045022100bcad74b5971e0ed20de30ace1d161602acac7209f53eee0afb2c747b019c62ff0220560433169863c854ebf9f04d227ecc891a8b7593b246426c42402fe52305e3e501", "034334c6667382fc5975aae036c188921975366871576a227c157eb8155587175d"], "sequence": 4294967295, "scriptSig": {"hex": "160014995c897ce65c32862c78b7fd7d80852d42cf3295", "asm": "0014995c897ce65c32862c78b7fd7d80852d42cf3295"}, "vout": 33, "txid": "f14f91e7adc4284077b4590e99aaa55b8029545ad413a4159559ce26494fe2bd"}], "txid": "abd1844169670e04ea5386a9d08825e1851a7fe474cf154aed4cf430ae20fd6e", "blocktime": 1537870564, "version": 1, "confirmations": 11515, "time": 1537870564, "locktime": 0, "vsize": 350, "size": 594}