{"hash": "abd2f95f0ff202f067e1cf6541eca92de5ef951afdf8d9eb85cb9476869ced2d", "blockhash": "0000000000000000001f76057863aec43deb6fa401d9628bb513d65a8098bfab", "vout": [{"scriptPubKey": {"reqSigs": 1, "hex": "76a91401688539ac4afcc927ca1a5606c00a86e710f12e88ac", "addresses": ["18StQ3aztpVBjzNTUtKCAd1UCr6wV3qsh"], "asm": "OP_DUP OP_HASH160 01688539ac4afcc927ca1a5606c00a86e710f12e OP_EQUALVERIFY OP_CHECKSIG", "type": "pubkeyhash"}, "value": 0.002375, "n": 0}, {"scriptPubKey": {"reqSigs": 1, "hex": "76a914759c5c1a657b1d2b3e62e429e5f2edff24511f2788ac", "addresses": ["1BisNWhJEtkc7swQ3DCLPnL8qcbfkB9QKe"], "asm": "OP_DUP OP_HASH160 759c5c1a657b1d2b3e62e429e5f2edff24511f27 OP_EQUALVERIFY OP_CHECKSIG", "type": "pubkeyhash"}, "value": 0.0082886, "n": 1}], "hex": "010000000198c965807b11acbe8e1d0c51841f775532e3a7fcfab68365f19276d2ebbac7ac010000006b4830450221009616da2a1724c9079077fda714fa3fcaf06f5f6ac42f99abb23250599748d9cd022020e8aa7bedf48fea55f9244757675f950c0ca92def956dbc140358557e0048ef01210375c3a4c7faff02d909422d67276b8b7992bc0b86cb29e4a443863c1bce2e8251fdffffff02bc9f0300000000001976a91401688539ac4afcc927ca1a5606c00a86e710f12e88acbca50c00000000001976a914759c5c1a657b1d2b3e62e429e5f2edff24511f2788ac14490800", "vin": [{"sequence": 4294967293, "scriptSig": {"hex": "4830450221009616da2a1724c9079077fda714fa3fcaf06f5f6ac42f99abb23250599748d9cd022020e8aa7bedf48fea55f9244757675f950c0ca92def956dbc140358557e0048ef01210375c3a4c7faff02d909422d67276b8b7992bc0b86cb29e4a443863c1bce2e8251", "asm": "30450221009616da2a1724c9079077fda714fa3fcaf06f5f6ac42f99abb23250599748d9cd022020e8aa7bedf48fea55f9244757675f950c0ca92def956dbc140358557e0048ef[ALL] 0375c3a4c7faff02d909422d67276b8b7992bc0b86cb29e4a443863c1bce2e8251"}, "vout": 1, "txid": "acc7baebd27692f16583b6fafca7e33255771f84510c1d8ebeac117b8065c998"}], "txid": "abd2f95f0ff202f067e1cf6541eca92de5ef951afdf8d9eb85cb9476869ced2d", "blocktime": 1537873891, "version": 1, "confirmations": 11479, "time": 1537873891, "locktime": 542996, "vsize": 226, "size": 226}