{"hash": "bf97d4947393524cae3653815e57a238243ebca1091e3d684a669af3ae7752d9", "blockhash": "0000000000000000001cda96e906b7601b7a6fb1a3b62bca570a9e5d8f4b3de1", "vout": [{"scriptPubKey": {"reqSigs": 1, "hex": "76a91495c0b50eb72b89f0d615387f34bee72ff8396e7088ac", "addresses": ["1EepY7pc1jMnRoWZbXA6bdazHjXPXsF26q"], "asm": "OP_DUP OP_HASH160 95c0b50eb72b89f0d615387f34bee72ff8396e70 OP_EQUALVERIFY OP_CHECKSIG", "type": "pubkeyhash"}, "value": 0.00146296, "n": 0}, {"scriptPubKey": {"reqSigs": 1, "hex": "a914e7cd09d7737e3ae1e651c046c9d35b45ab43759087", "addresses": ["3NpfeBF4GMvpGbNTKfYzSUKi8X2YtrXyWv"], "asm": "OP_HASH160 e7cd09d7737e3ae1e651c046c9d35b45ab437590 OP_EQUAL", "type": "scripthash"}, "value": 3.935e-05, "n": 1}], "hex": "010000000001015dfa9fb2dfaddbe542ed647224da29ac722331e3596b3e07ff004cb71dd629400100000017160014f1e320e406544b1dd0092190cf4f9b30024c552affffffff02783b0200000000001976a91495c0b50eb72b89f0d615387f34bee72ff8396e7088ac5f0f00000000000017a914e7cd09d7737e3ae1e651c046c9d35b45ab4375908702473044022079c2aa94510870e5a2db7464643917cac2cbb2fb97441887e2f9751a95db879a02202bb283295beac7b8236eed56eed3c211f1c4bd4736766b8d75ba45916284222f012102efcdab9b0459f5e3064b23cb77074cb5722ad20ff8674a48acf192709284c29a00000000", "vin": [{"txinwitness": ["3044022079c2aa94510870e5a2db7464643917cac2cbb2fb97441887e2f9751a95db879a02202bb283295beac7b8236eed56eed3c211f1c4bd4736766b8d75ba45916284222f01", "02efcdab9b0459f5e3064b23cb77074cb5722ad20ff8674a48acf192709284c29a"], "sequence": 4294967295, "scriptSig": {"hex": "160014f1e320e406544b1dd0092190cf4f9b30024c552a", "asm": "0014f1e320e406544b1dd0092190cf4f9b30024c552a"}, "vout": 1, "txid": "4029d61db74c00ff073e6b59e3312372ac29da247264ed42e5dbaddfb29ffa5d"}], "txid": "abd3e89e1a3b20392490fed1e494189a18869fbd4887ca77c7093d7537f3fe28", "blocktime": 1537873282, "version": 1, "confirmations": 11480, "time": 1537873282, "locktime": 0, "vsize": 168, "size": 249}