{"hash": "abd5aca4a95000fbb7fe86c086d974a339c26ae82f72bea292aff05f02314e4b", "blockhash": "0000000000000000000dcc0f55137456b1a82d3642486a52398922ac4d620174", "vout": [{"scriptPubKey": {"reqSigs": 1, "hex": "76a9141ac3824572af48e41442ad0f0a4d43a5cecb6dd288ac", "addresses": ["13SWnBZr4oW96iVpNzzR1bNsMXcyBGWEaB"], "asm": "OP_DUP OP_HASH160 1ac3824572af48e41442ad0f0a4d43a5cecb6dd2 OP_EQUALVERIFY OP_CHECKSIG", "type": "pubkeyhash"}, "value": 0.00033258, "n": 0}, {"scriptPubKey": {"reqSigs": 1, "hex": "76a914bdd38f1cfb0bcdcf92a1232ddd7c504fb876f23b88ac", "addresses": ["1JJi9drhtbmAVZ5kVcYxoM6hPnPoKCRYVK"], "asm": "OP_DUP OP_HASH160 bdd38f1cfb0bcdcf92a1232ddd7c504fb876f23b OP_EQUALVERIFY OP_CHECKSIG", "type": "pubkeyhash"}, "value": 0.15595, "n": 1}], "hex": "010000000297d2033d9d9855f1a62b9ce1e49ace1727ecd79ede4663fd4ea137ac774fdcab000000006b483045022100ff2abf220b0043be7a58518112db0d30cdfceee4856653d3ea58d44363cf17580220012a74f7a84610fc438a434913509ac4b98341ffe0ee5c746a1ca86dbf7f742e0121022195fa107d5ecd7c50b40e5d06e6a9c41c1d2aed0d5d0c4698aee00cb3c93f30ffffffff426ad5eb8593a9c85755e15f7345889a4ee50f95aef144851ce13ac5029504dd010000006b483045022100ce4619bae9d2f656f68d3a7029bc85e197ec446c6b5cf1eb866f61fb1c7d99fe022051b772b5c7a15b2bf3d9efae09ab82c20f115ef175ca5c0fb47f43b2dd6770700121022195fa107d5ecd7c50b40e5d06e6a9c41c1d2aed0d5d0c4698aee00cb3c93f30ffffffff02ea810000000000001976a9141ac3824572af48e41442ad0f0a4d43a5cecb6dd288acf8f5ed00000000001976a914bdd38f1cfb0bcdcf92a1232ddd7c504fb876f23b88ac00000000", "vin": [{"sequence": 4294967295, "scriptSig": {"hex": "483045022100ff2abf220b0043be7a58518112db0d30cdfceee4856653d3ea58d44363cf17580220012a74f7a84610fc438a434913509ac4b98341ffe0ee5c746a1ca86dbf7f742e0121022195fa107d5ecd7c50b40e5d06e6a9c41c1d2aed0d5d0c4698aee00cb3c93f30", "asm": "3045022100ff2abf220b0043be7a58518112db0d30cdfceee4856653d3ea58d44363cf17580220012a74f7a84610fc438a434913509ac4b98341ffe0ee5c746a1ca86dbf7f742e[ALL] 022195fa107d5ecd7c50b40e5d06e6a9c41c1d2aed0d5d0c4698aee00cb3c93f30"}, "vout": 0, "txid": "abdc4f77ac37a14efd6346de9ed7ec2717ce9ae4e19c2ba6f155989d3d03d297"}, {"sequence": 4294967295, "scriptSig": {"hex": "483045022100ce4619bae9d2f656f68d3a7029bc85e197ec446c6b5cf1eb866f61fb1c7d99fe022051b772b5c7a15b2bf3d9efae09ab82c20f115ef175ca5c0fb47f43b2dd6770700121022195fa107d5ecd7c50b40e5d06e6a9c41c1d2aed0d5d0c4698aee00cb3c93f30", "asm": "3045022100ce4619bae9d2f656f68d3a7029bc85e197ec446c6b5cf1eb866f61fb1c7d99fe022051b772b5c7a15b2bf3d9efae09ab82c20f115ef175ca5c0fb47f43b2dd677070[ALL] 022195fa107d5ecd7c50b40e5d06e6a9c41c1d2aed0d5d0c4698aee00cb3c93f30"}, "vout": 1, "txid": "dd049502c53ae11c8544f1ae950fe54e9a8845735fe15557c8a99385ebd56a42"}], "txid": "abd5aca4a95000fbb7fe86c086d974a339c26ae82f72bea292aff05f02314e4b", "blocktime": 1537870268, "version": 1, "confirmations": 11518, "time": 1537870268, "locktime": 0, "vsize": 374, "size": 374}