{"hash": "ba1639286dc87fe3dcae295b5809b0832fbed2728b707eb8302fa32a329a46cd", "blockhash": "0000000000000000001f0ddff1eddb255c1121bcd4da4f1bc9a0da00cae72433", "vout": [{"scriptPubKey": {"reqSigs": 1, "hex": "a9142307d00db69da2b3480c6b062dfe2bd3ec647aa787", "addresses": ["34tEw6Rj6V41SL1J6sXGAFg58BvLo1P39M"], "asm": "OP_HASH160 2307d00db69da2b3480c6b062dfe2bd3ec647aa7 OP_EQUAL", "type": "scripthash"}, "value": 0.0116265, "n": 0}, {"scriptPubKey": {"reqSigs": 1, "hex": "0014468b0fd340600606d7430b267b42ca7092e6c69f", "addresses": ["bc1qg69sl56qvqrqd46rpvn8ksk2wzfwd35llfvv54"], "asm": "0 468b0fd340600606d7430b267b42ca7092e6c69f", "type": "witness_v0_keyhash"}, "value": 2.34745951, "n": 1}], "hex": "01000000000101625329dfaa9464be3acde5c46de040bd3ab5010dcff1849b822fcc097f0f08ac0100000000ffffffff029abd11000000000017a9142307d00db69da2b3480c6b062dfe2bd3ec647aa7875ff0fd0d00000000160014468b0fd340600606d7430b267b42ca7092e6c69f02483045022100bca243a569939dc9fa990294ecec8f24b644fc1ba488e9e84459903f0ed0116002204a4a54f330251299e1953dee7577b0a38f5bc6902526dce3ea78ea96c135d8e4012103420e76e030fd0a5cc81f7208bd3c59b05a488111fd2714e2dbefbfe8a5e88b0300000000", "vin": [{"txinwitness": ["3045022100bca243a569939dc9fa990294ecec8f24b644fc1ba488e9e84459903f0ed0116002204a4a54f330251299e1953dee7577b0a38f5bc6902526dce3ea78ea96c135d8e401", "03420e76e030fd0a5cc81f7208bd3c59b05a488111fd2714e2dbefbfe8a5e88b03"], "sequence": 4294967295, "scriptSig": {"hex": "", "asm": ""}, "vout": 1, "txid": "ac080f7f09cc2f829b84f1cf0d01b53abd40e06dc4e5cd3abe6494aadf295362"}], "txid": "abd7c83b5e0d7b12678545dda19aef91ee70fa11ecc6ebbae06423406b270c2d", "blocktime": 1537872018, "version": 1, "confirmations": 11489, "time": 1537872018, "locktime": 0, "vsize": 142, "size": 224}