{"hash": "abdc4f77ac37a14efd6346de9ed7ec2717ce9ae4e19c2ba6f155989d3d03d297", "blockhash": "0000000000000000000dcc0f55137456b1a82d3642486a52398922ac4d620174", "vout": [{"scriptPubKey": {"reqSigs": 1, "hex": "76a9141ac3824572af48e41442ad0f0a4d43a5cecb6dd288ac", "addresses": ["13SWnBZr4oW96iVpNzzR1bNsMXcyBGWEaB"], "asm": "OP_DUP OP_HASH160 1ac3824572af48e41442ad0f0a4d43a5cecb6dd2 OP_EQUALVERIFY OP_CHECKSIG", "type": "pubkeyhash"}, "value": 0.00038048, "n": 0}], "hex": "0100000001c1dbe88447c9c9ee041ef51a7773fdefea07dc23f1b4ad3ea063975708814150000000008a47304402200fcc31775b43aaf685cc760a0fd32a495f1ff84ae2a301371a6fdc5065453474022078076d93e9b29e3db71d06234b54e0632454b2e289fb2ffb783fbbd305956ccb01410477a2a1b79b83bfd6e15a8695503b5dca1ca1780a03bb0b3d06bfbd5a0097934e313d9c23016803af9a5c91261881d8de59177774011ec2ccdc12aa7c29fd59dfffffffff01a0940000000000001976a9141ac3824572af48e41442ad0f0a4d43a5cecb6dd288ac00000000", "vin": [{"sequence": 4294967295, "scriptSig": {"hex": "47304402200fcc31775b43aaf685cc760a0fd32a495f1ff84ae2a301371a6fdc5065453474022078076d93e9b29e3db71d06234b54e0632454b2e289fb2ffb783fbbd305956ccb01410477a2a1b79b83bfd6e15a8695503b5dca1ca1780a03bb0b3d06bfbd5a0097934e313d9c23016803af9a5c91261881d8de59177774011ec2ccdc12aa7c29fd59df", "asm": "304402200fcc31775b43aaf685cc760a0fd32a495f1ff84ae2a301371a6fdc5065453474022078076d93e9b29e3db71d06234b54e0632454b2e289fb2ffb783fbbd305956ccb[ALL] 0477a2a1b79b83bfd6e15a8695503b5dca1ca1780a03bb0b3d06bfbd5a0097934e313d9c23016803af9a5c91261881d8de59177774011ec2ccdc12aa7c29fd59df"}, "vout": 0, "txid": "50418108579763a03eadb4f123dc07eaeffd73771af51e04eec9c94784e8dbc1"}], "txid": "abdc4f77ac37a14efd6346de9ed7ec2717ce9ae4e19c2ba6f155989d3d03d297", "blocktime": 1537870268, "version": 1, "confirmations": 11518, "time": 1537870268, "locktime": 0, "vsize": 223, "size": 223}