{"hash": "abe7a065cbb37a0ce285b21b2f95b615805133df8b999494fe6e94ebbd086d1b", "blockhash": "0000000000000000000baef3f32e3676a92c3b2e5da21b426e4f302fc371ce76", "vout": [{"scriptPubKey": {"reqSigs": 1, "hex": "76a9142c28cc3f7adad6cf98eaff0f0454a00b79b794c688ac", "addresses": ["152Vc8DWgfcixP39C8NTRmGUaZJyWSdxCS"], "asm": "OP_DUP OP_HASH160 2c28cc3f7adad6cf98eaff0f0454a00b79b794c6 OP_EQUALVERIFY OP_CHECKSIG", "type": "pubkeyhash"}, "value": 0.01381504, "n": 0}, {"scriptPubKey": {"type": "nulldata", "hex": "6a4c50000078030001a99ec61c5201a28268bddf0c702940d64fa54d8eb2d19ed074892d00f8e815cbf327745e21a685d95b10283cbb475baa1a510613761282ee025fbc9a9526289ac0f6612cd74e33776ee4", "asm": "OP_RETURN 000078030001a99ec61c5201a28268bddf0c702940d64fa54d8eb2d19ed074892d00f8e815cbf327745e21a685d95b10283cbb475baa1a510613761282ee025fbc9a9526289ac0f6612cd74e33776ee4"}, "value": 0.0, "n": 1}], "hex": "0100000001bcbd7c6a6631b843ca8ece4770c7ad8b113b353203c18235c2199438c3464f5a010000006b483045022100bca49f39b150e5e4e57d5ed7adaa27f3de2fe21c53ec097a552be4b7193f6964022030f1cdf72c82a8978d89e84b3a3943e75ba53ff6f53fefabaff25082beddc1fa01210365a425cdd8419b485f5b8b060edcbc68440a4a5f8178aaf7fd82b80021c25f32ffffffff0280141500000000001976a9142c28cc3f7adad6cf98eaff0f0454a00b79b794c688ac0000000000000000536a4c50000078030001a99ec61c5201a28268bddf0c702940d64fa54d8eb2d19ed074892d00f8e815cbf327745e21a685d95b10283cbb475baa1a510613761282ee025fbc9a9526289ac0f6612cd74e33776ee400000000", "vin": [{"sequence": 4294967295, "scriptSig": {"hex": "483045022100bca49f39b150e5e4e57d5ed7adaa27f3de2fe21c53ec097a552be4b7193f6964022030f1cdf72c82a8978d89e84b3a3943e75ba53ff6f53fefabaff25082beddc1fa01210365a425cdd8419b485f5b8b060edcbc68440a4a5f8178aaf7fd82b80021c25f32", "asm": "3045022100bca49f39b150e5e4e57d5ed7adaa27f3de2fe21c53ec097a552be4b7193f6964022030f1cdf72c82a8978d89e84b3a3943e75ba53ff6f53fefabaff25082beddc1fa[ALL] 0365a425cdd8419b485f5b8b060edcbc68440a4a5f8178aaf7fd82b80021c25f32"}, "vout": 1, "txid": "5a4f46c3389419c23582c10332353b118badc77047ce8eca43b831666a7cbdbc"}], "txid": "abe7a065cbb37a0ce285b21b2f95b615805133df8b999494fe6e94ebbd086d1b", "blocktime": 1537876114, "version": 1, "confirmations": 11460, "time": 1537876114, "locktime": 0, "vsize": 284, "size": 284}