{"hash": "abe8f2062ccf7be03be2dd8f28374b375345abd45e417b75c99f6b69ce5f0e54", "blockhash": "0000000000000000001e0dab787dd257d1dbfcb92a98c2207d5e1078be1f4165", "vout": [{"scriptPubKey": {"reqSigs": 1, "hex": "76a914edbabfdf63131cde3bb9b04f5ce6da98f791225088ac", "addresses": ["1Nfzs3i8tKD3tfKX8gnk1gvPreuCSHqhQy"], "asm": "OP_DUP OP_HASH160 edbabfdf63131cde3bb9b04f5ce6da98f7912250 OP_EQUALVERIFY OP_CHECKSIG", "type": "pubkeyhash"}, "value": 0.003281, "n": 0}, {"scriptPubKey": {"reqSigs": 1, "hex": "00145041d5a3599848d99514ad834eb0650cdfd5655e", "addresses": ["bc1q2pqatg6enpydn9g54kp5avr9pn0a2e27hvxefh"], "asm": "0 5041d5a3599848d99514ad834eb0650cdfd5655e", "type": "witness_v0_keyhash"}, "value": 6.866e-05, "n": 1}], "hex": "01000000014f783e77eb57e4044d0cc779f2adc23be36714ab33675e519176c336fdd1454e020000006b483045022100d760e542260a0a1203595a5479381a92e30d09bbdc340e3f84544571ecb2705b022060c26d17f217c13cfa81be9a4a8593465e8ecc7f9d07d747b0caef88c286072601210358584b2db3c5558967b0ebb67d53de8853e887a514897c367fa2bb29c1e0a8ebffffffff02a4010500000000001976a914edbabfdf63131cde3bb9b04f5ce6da98f791225088acd21a0000000000001600145041d5a3599848d99514ad834eb0650cdfd5655e00000000", "vin": [{"sequence": 4294967295, "scriptSig": {"hex": "483045022100d760e542260a0a1203595a5479381a92e30d09bbdc340e3f84544571ecb2705b022060c26d17f217c13cfa81be9a4a8593465e8ecc7f9d07d747b0caef88c286072601210358584b2db3c5558967b0ebb67d53de8853e887a514897c367fa2bb29c1e0a8eb", "asm": "3045022100d760e542260a0a1203595a5479381a92e30d09bbdc340e3f84544571ecb2705b022060c26d17f217c13cfa81be9a4a8593465e8ecc7f9d07d747b0caef88c2860726[ALL] 0358584b2db3c5558967b0ebb67d53de8853e887a514897c367fa2bb29c1e0a8eb"}, "vout": 2, "txid": "4e45d1fd36c37691515e6733ab1467e33bc2adf279c70c4d04e457eb773e784f"}], "txid": "abe8f2062ccf7be03be2dd8f28374b375345abd45e417b75c99f6b69ce5f0e54", "blocktime": 1537872475, "version": 1, "confirmations": 11487, "time": 1537872475, "locktime": 0, "vsize": 223, "size": 223}