{"hash": "abf40d9e25f060ebde84ab5b5105d921b405a77924d8c59d8412c58b34f95bbb", "blockhash": "0000000000000000000baef3f32e3676a92c3b2e5da21b426e4f302fc371ce76", "vout": [{"scriptPubKey": {"reqSigs": 1, "hex": "76a91407836037a0dafa6cc55cd5e39b43009ce9ac1ee388ac", "addresses": ["1gj7VpHptCG4MbbaQZtJmo1VmPL6nMH6m"], "asm": "OP_DUP OP_HASH160 07836037a0dafa6cc55cd5e39b43009ce9ac1ee3 OP_EQUALVERIFY OP_CHECKSIG", "type": "pubkeyhash"}, "value": 0.1622112, "n": 0}, {"scriptPubKey": {"type": "nulldata", "hex": "6a146f6d6e69000000000000001f000000dd0ca65600", "asm": "OP_RETURN 6f6d6e69000000000000001f000000dd0ca65600"}, "value": 0.0, "n": 1}, {"scriptPubKey": {"reqSigs": 1, "hex": "76a914fcdce6dde45f5da1bf0861001d18f7e07adc9aaa88ac", "addresses": ["1Q41usQQYGCUawedTucMydksUyWP7AJAtz"], "asm": "OP_DUP OP_HASH160 fcdce6dde45f5da1bf0861001d18f7e07adc9aaa OP_EQUALVERIFY OP_CHECKSIG", "type": "pubkeyhash"}, "value": 5.46e-06, "n": 2}], "hex": "010000000138c12fbe344842c70ebc098e04d3d8d3579e9e98a5565b33313206646b8b0e7e020000006a47304402205f475441863e3fe943fcdcb1d262d05a9eaa629e2cfc762fac593d817fb714fe022079efeed468b8959d1af109c1454fed349e4e5cf4643bc92910cc9899adc50ad00121030f088c9e8403b7f3439de04f80afd0298bf3f4bb500e85afb7a81a3fd52110a4feffffff03c083f700000000001976a91407836037a0dafa6cc55cd5e39b43009ce9ac1ee388ac0000000000000000166a146f6d6e69000000000000001f000000dd0ca6560022020000000000001976a914fcdce6dde45f5da1bf0861001d18f7e07adc9aaa88ac17490800", "vin": [{"sequence": 4294967294, "scriptSig": {"hex": "47304402205f475441863e3fe943fcdcb1d262d05a9eaa629e2cfc762fac593d817fb714fe022079efeed468b8959d1af109c1454fed349e4e5cf4643bc92910cc9899adc50ad00121030f088c9e8403b7f3439de04f80afd0298bf3f4bb500e85afb7a81a3fd52110a4", "asm": "304402205f475441863e3fe943fcdcb1d262d05a9eaa629e2cfc762fac593d817fb714fe022079efeed468b8959d1af109c1454fed349e4e5cf4643bc92910cc9899adc50ad0[ALL] 030f088c9e8403b7f3439de04f80afd0298bf3f4bb500e85afb7a81a3fd52110a4"}, "vout": 2, "txid": "7e0e8b6b64063231335b56a5989e9e57d3d8d3048e09bc0ec7424834be2fc138"}], "txid": "abf40d9e25f060ebde84ab5b5105d921b405a77924d8c59d8412c58b34f95bbb", "blocktime": 1537876114, "version": 1, "confirmations": 11459, "time": 1537876114, "locktime": 542999, "vsize": 256, "size": 256}