{"hash": "1d894044f58add3b9a7530aefe189a1d56ff22beecc11ca1c2eb23094c41a31c", "blockhash": "0000000000000000001cda96e906b7601b7a6fb1a3b62bca570a9e5d8f4b3de1", "vout": [{"scriptPubKey": {"reqSigs": 1, "hex": "a91434775ea3b1c2c60d317f79087812426f6675f62187", "addresses": ["36US4UDaF4xjZgr1Ze1k73A9Nc8Qx7QeMP"], "asm": "OP_HASH160 34775ea3b1c2c60d317f79087812426f6675f621 OP_EQUAL", "type": "scripthash"}, "value": 0.09130844, "n": 0}, {"scriptPubKey": {"reqSigs": 1, "hex": "76a9142081c0072832754aafb11fcf41c76715ed162a9288ac", "addresses": ["13xt4LPH2Hox2bKSBaXheWNu5r8mQTXTVm"], "asm": "OP_DUP OP_HASH160 2081c0072832754aafb11fcf41c76715ed162a92 OP_EQUALVERIFY OP_CHECKSIG", "type": "pubkeyhash"}, "value": 0.00274528, "n": 1}, {"scriptPubKey": {"reqSigs": 1, "hex": "76a91475ccc15cfd51166e2a8903640162a32b2fab0e7b88ac", "addresses": ["1BjsM6RjsAsEtQiePRahQ2H46yiaN8UBCN"], "asm": "OP_DUP OP_HASH160 75ccc15cfd51166e2a8903640162a32b2fab0e7b OP_EQUALVERIFY OP_CHECKSIG", "type": "pubkeyhash"}, "value": 0.00260414, "n": 2}, {"scriptPubKey": {"reqSigs": 1, "hex": "a9149d8a2502183f3ad239313db3dd5c637d568b2d1b87", "addresses": ["3G41W7YatwK55FJaWKfQPYwDZquTzxwBDN"], "asm": "OP_HASH160 9d8a2502183f3ad239313db3dd5c637d568b2d1b OP_EQUAL", "type": "scripthash"}, "value": 0.00198828, "n": 3}, {"scriptPubKey": {"reqSigs": 1, "hex": "a914b5098bae61794b5e21be0d17d0c7ef1ffccd203387", "addresses": ["3JCFfWMuVkYrjLF1MNMiVvxtAvrqeMYsN7"], "asm": "OP_HASH160 b5098bae61794b5e21be0d17d0c7ef1ffccd2033 OP_EQUAL", "type": "scripthash"}, "value": 0.00169393, "n": 4}, {"scriptPubKey": {"reqSigs": 1, "hex": "76a91476a70618d30d6d0f71872c891eff494a786e5e8788ac", "addresses": ["1BpNpewiJQH7T9SEkxmgdckwQRUcuJyaXk"], "asm": "OP_DUP OP_HASH160 76a70618d30d6d0f71872c891eff494a786e5e87 OP_EQUALVERIFY OP_CHECKSIG", "type": "pubkeyhash"}, "value": 0.00110829, "n": 5}, {"scriptPubKey": {"reqSigs": 1, "hex": "76a914fd5a4b4cf2e2db9518c621e9dffb8929c180531c88ac", "addresses": ["1Q6c8HFMrsttDHoGn1Z73JAHVjtPETV4Y1"], "asm": "OP_DUP OP_HASH160 fd5a4b4cf2e2db9518c621e9dffb8929c180531c OP_EQUALVERIFY OP_CHECKSIG", "type": "pubkeyhash"}, "value": 0.0011037, "n": 6}, {"scriptPubKey": {"reqSigs": 1, "hex": "76a914f8533327c2fbe63d641a4ceb429cc367964d831e88ac", "addresses": ["1Pe2FQ9nJYZEXcy7RXVJH24jtNQtEs4LMF"], "asm": "OP_DUP OP_HASH160 f8533327c2fbe63d641a4ceb429cc367964d831e OP_EQUALVERIFY OP_CHECKSIG", "type": "pubkeyhash"}, "value": 0.00107662, "n": 7}, {"scriptPubKey": {"reqSigs": 1, "hex": "76a914cbfcb0bfc4982698510854de69f0c0915e8edce788ac", "addresses": ["1KbatBT8rLajhnugLehvtwAw9D8yvAwDqe"], "asm": "OP_DUP OP_HASH160 cbfcb0bfc4982698510854de69f0c0915e8edce7 OP_EQUALVERIFY OP_CHECKSIG", "type": "pubkeyhash"}, "value": 0.00106623, "n": 8}, {"scriptPubKey": {"reqSigs": 1, "hex": "a914aebf01febcdf3ed67829eac863903153c943f5a687", "addresses": ["3HczKNnQxaxBXkxKqUR8yS1RKzFq8b1ug9"], "asm": "OP_HASH160 aebf01febcdf3ed67829eac863903153c943f5a6 OP_EQUAL", "type": "scripthash"}, "value": 0.00103854, "n": 9}, {"scriptPubKey": {"reqSigs": 1, "hex": "a9144eec2ec8dd861f679c4885706da67632f1ca541687", "addresses": ["38tKZminajHnhXBMDCZPn1svDPyXzFaVE7"], "asm": "OP_HASH160 4eec2ec8dd861f679c4885706da67632f1ca5416 OP_EQUAL", "type": "scripthash"}, "value": 0.00102511, "n": 10}], "hex": "020000000001017d099556bb277154c568f44ea601e7bf4f6699b35d22146565d192c50ada831603000000171600145ce192f658a3e76196e1b81df52266dd737c1404fdffffff0b5c538b000000000017a91434775ea3b1c2c60d317f79087812426f6675f6218760300400000000001976a9142081c0072832754aafb11fcf41c76715ed162a9288ac3ef90300000000001976a91475ccc15cfd51166e2a8903640162a32b2fab0e7b88acac0803000000000017a9149d8a2502183f3ad239313db3dd5c637d568b2d1b87b19502000000000017a914b5098bae61794b5e21be0d17d0c7ef1ffccd203387edb00100000000001976a91476a70618d30d6d0f71872c891eff494a786e5e8788ac22af0100000000001976a914fd5a4b4cf2e2db9518c621e9dffb8929c180531c88ac8ea40100000000001976a914f8533327c2fbe63d641a4ceb429cc367964d831e88ac7fa00100000000001976a914cbfcb0bfc4982698510854de69f0c0915e8edce788acae9501000000000017a914aebf01febcdf3ed67829eac863903153c943f5a6876f9001000000000017a9144eec2ec8dd861f679c4885706da67632f1ca541687024630430220509a41a69a80a1bcf5f2809d7a606bde2b50dce8dc2be6df84e507ce90ce78cf021f31ead4f268953146ea6ac9275949bd63a4ca0a4023bbc8f4d59095f0f434db012102cac01c114e65899cf3e6f4b3308fc6f2631f206ab778b522a5292b8d336e609ec5480800", "vin": [{"txinwitness": ["30430220509a41a69a80a1bcf5f2809d7a606bde2b50dce8dc2be6df84e507ce90ce78cf021f31ead4f268953146ea6ac9275949bd63a4ca0a4023bbc8f4d59095f0f434db01", "02cac01c114e65899cf3e6f4b3308fc6f2631f206ab778b522a5292b8d336e609e"], "sequence": 4294967293, "scriptSig": {"hex": "1600145ce192f658a3e76196e1b81df52266dd737c1404", "asm": "00145ce192f658a3e76196e1b81df52266dd737c1404"}, "vout": 3, "txid": "1683da0ac592d1656514225db399664fbfe701a64ef468c5547127bb5695097d"}], "txid": "abf7315d6a850644e3870e28bbfb5a97af4dc37d5a4a0ecdf2b786d13883aaf2", "blocktime": 1537873282, "version": 2, "confirmations": 11485, "time": 1537873282, "locktime": 542917, "vsize": 465, "size": 546}