{"hash": "abfea66ec068b402216d1a2e8e57ae0afbb2afa472966f55f801dec81d38913b", "blockhash": "00000000000000000024a2167bbff67b0be802c0b01cdd79e6331c2be6459f87", "vout": [{"scriptPubKey": {"reqSigs": 1, "hex": "76a914d243e6abb9a60fbff430b421d2df4b7d59ec186088ac", "addresses": ["1LAnF8h3qMGx3TSwNUHVneBZUEpwE4gu3D"], "asm": "OP_DUP OP_HASH160 d243e6abb9a60fbff430b421d2df4b7d59ec1860 OP_EQUALVERIFY OP_CHECKSIG", "type": "pubkeyhash"}, "value": 0.00076972, "n": 0}, {"scriptPubKey": {"reqSigs": 1, "hex": "76a9143851f34d13937b673a7d24a1950bb5b21ce94af388ac", "addresses": ["168o1kqNquEJeR9vosUB5fw4eAwcVAgh8P"], "asm": "OP_DUP OP_HASH160 3851f34d13937b673a7d24a1950bb5b21ce94af3 OP_EQUALVERIFY OP_CHECKSIG", "type": "pubkeyhash"}, "value": 5.46e-06, "n": 1}, {"scriptPubKey": {"type": "nulldata", "hex": "6a146f6d6e69000000000000001f0000085cfe82d300", "asm": "OP_RETURN 6f6d6e69000000000000001f0000085cfe82d300"}, "value": 0.0, "n": 2}], "hex": "0100000002864eeb2b64c211cfd3faa8f2d4b0e58ecc94544147b39870231f289edeb2a0a3000000006a47304402200215bcea84fa9b0a03ef72df79d17bb4a7d2b4ab1baed7fa9019cc3d8fd7a00e02202902919c810a8d0309ac8ba92353eb91ca8fde1891a5e8cff62daf0320e6a716012102bda7a51d7e96691f8b06dbdcb5981ffab7252fad9545050ce0ad20977f353c83ffffffff7288ce572e4ffc7cfb9c2b9088918fb4c5f171d51045a777d9c5c47e1a0cf913000000006b4830450221009b8497a17d99bb499168cf8d0e50ba9057617e138f4e4844284185ea40f2c4050220179833c69d28b176f2bed2c5042fb823982e02847eb56f7bccc5122267dbac8e01210271977291b74f1f5f5c42157e8aae804664eaaeccfd097918450d37f28fb94d77ffffffff03ac2c0100000000001976a914d243e6abb9a60fbff430b421d2df4b7d59ec186088ac22020000000000001976a9143851f34d13937b673a7d24a1950bb5b21ce94af388ac0000000000000000166a146f6d6e69000000000000001f0000085cfe82d30000000000", "vin": [{"sequence": 4294967295, "scriptSig": {"hex": "47304402200215bcea84fa9b0a03ef72df79d17bb4a7d2b4ab1baed7fa9019cc3d8fd7a00e02202902919c810a8d0309ac8ba92353eb91ca8fde1891a5e8cff62daf0320e6a716012102bda7a51d7e96691f8b06dbdcb5981ffab7252fad9545050ce0ad20977f353c83", "asm": "304402200215bcea84fa9b0a03ef72df79d17bb4a7d2b4ab1baed7fa9019cc3d8fd7a00e02202902919c810a8d0309ac8ba92353eb91ca8fde1891a5e8cff62daf0320e6a716[ALL] 02bda7a51d7e96691f8b06dbdcb5981ffab7252fad9545050ce0ad20977f353c83"}, "vout": 0, "txid": "a3a0b2de9e281f237098b347415494cc8ee5b0d4f2a8fad3cf11c2642beb4e86"}, {"sequence": 4294967295, "scriptSig": {"hex": "4830450221009b8497a17d99bb499168cf8d0e50ba9057617e138f4e4844284185ea40f2c4050220179833c69d28b176f2bed2c5042fb823982e02847eb56f7bccc5122267dbac8e01210271977291b74f1f5f5c42157e8aae804664eaaeccfd097918450d37f28fb94d77", "asm": "30450221009b8497a17d99bb499168cf8d0e50ba9057617e138f4e4844284185ea40f2c4050220179833c69d28b176f2bed2c5042fb823982e02847eb56f7bccc5122267dbac8e[ALL] 0271977291b74f1f5f5c42157e8aae804664eaaeccfd097918450d37f28fb94d77"}, "vout": 0, "txid": "13f90c1a7ec4c5d977a74510d571f1c5b48f9188902b9cfb7cfc4f2e57ce8872"}], "txid": "abfea66ec068b402216d1a2e8e57ae0afbb2afa472966f55f801dec81d38913b", "blocktime": 1537870564, "version": 1, "confirmations": 11515, "time": 1537870564, "locktime": 0, "vsize": 404, "size": 404}