{"hash": "85859414e291c70d6cf20ae12bc5cbc262a7f862d9391d71077182d59aa7b2c5", "blockhash": "0000000000000000001f76057863aec43deb6fa401d9628bb513d65a8098bfab", "vout": [{"scriptPubKey": {"reqSigs": 1, "hex": "a914d001a6a800d7fb3c28a497da361f25bbb2d7f44587", "addresses": ["3LerTA7uqmDBjKvkG8JU9XxPz5LfzWFgYE"], "asm": "OP_HASH160 d001a6a800d7fb3c28a497da361f25bbb2d7f445 OP_EQUAL", "type": "scripthash"}, "value": 0.00201, "n": 0}, {"scriptPubKey": {"reqSigs": 1, "hex": "a914c50ef4f9737abbd1acd5bc56ece1b017fa1253e387", "addresses": ["3KexxZScLYVjvDh5Hw7r1FzRZUxV1ABn4y"], "asm": "OP_HASH160 c50ef4f9737abbd1acd5bc56ece1b017fa1253e3 OP_EQUAL", "type": "scripthash"}, "value": 4.14400251, "n": 1}], "hex": "02000000000101c100e7a4eca3afef2c3e9377995939542edee4d0de194817c677b2cdb166046401000000171600143ced2d24c3bd9e24c5ed5c8a1cef8b4e8bc89070feffffff02281103000000000017a914d001a6a800d7fb3c28a497da361f25bbb2d7f44587fb3eb3180000000017a914c50ef4f9737abbd1acd5bc56ece1b017fa1253e38702483045022100b9a11857cce5357835dcd09b52353a69da88964ff8481cd34c3437a0fe3a8cab02201999ee2d48285167787d076c9f037fadfe6132fc69992d9b8912b0f4ce7d3a50012102ed1e3ab3415c2bff9902235544173202c79ed65cb0b6d9568c1daeb78874f60d14490800", "vin": [{"txinwitness": ["3045022100b9a11857cce5357835dcd09b52353a69da88964ff8481cd34c3437a0fe3a8cab02201999ee2d48285167787d076c9f037fadfe6132fc69992d9b8912b0f4ce7d3a5001", "02ed1e3ab3415c2bff9902235544173202c79ed65cb0b6d9568c1daeb78874f60d"], "sequence": 4294967294, "scriptSig": {"hex": "1600143ced2d24c3bd9e24c5ed5c8a1cef8b4e8bc89070", "asm": "00143ced2d24c3bd9e24c5ed5c8a1cef8b4e8bc89070"}, "vout": 1, "txid": "640466b1cdb277c6174819ded0e4de2e5439599977933e2cefafa3eca4e700c1"}], "txid": "ac0a5a35f86804b843daf1da8a89c871540bb7028ccc795cb5c0e954bc543448", "blocktime": 1537873891, "version": 2, "confirmations": 11475, "time": 1537873891, "locktime": 542996, "vsize": 166, "size": 248}