{"hash": "235a9ff5cc694219e91c8674a2735a6f9c0d2abe49ac49e6d35c0781627451e2", "blockhash": "0000000000000000000baef3f32e3676a92c3b2e5da21b426e4f302fc371ce76", "vout": [{"scriptPubKey": {"reqSigs": 1, "hex": "a91490e99e8d26d05ead3c05430c292a887bbff695f587", "addresses": ["3EuF6KjJawxTiUsea3Sc8hsLUGmVEf7Xg5"], "asm": "OP_HASH160 90e99e8d26d05ead3c05430c292a887bbff695f5 OP_EQUAL", "type": "scripthash"}, "value": 0.00105178, "n": 0}, {"scriptPubKey": {"type": "nulldata", "hex": "6a146f6d6e69000000000000001f0000000005f5e100", "asm": "OP_RETURN 6f6d6e69000000000000001f0000000005f5e100"}, "value": 0.0, "n": 1}, {"scriptPubKey": {"reqSigs": 1, "hex": "a91490e99e8d26d05ead3c05430c292a887bbff695f587", "addresses": ["3EuF6KjJawxTiUsea3Sc8hsLUGmVEf7Xg5"], "asm": "OP_HASH160 90e99e8d26d05ead3c05430c292a887bbff695f5 OP_EQUAL", "type": "scripthash"}, "value": 5.4e-06, "n": 2}], "hex": "0100000000010242e089ae32483bbf7c0ddfe8d623f51cf101f2b568d184322526ae0f2ab22fcf0000000017160014f6e1792e7852ebd5ae795c2a25d579acdfadec2dffffffff42e089ae32483bbf7c0ddfe8d623f51cf101f2b568d184322526ae0f2ab22fcf0200000017160014f6e1792e7852ebd5ae795c2a25d579acdfadec2dffffffff03da9a01000000000017a91490e99e8d26d05ead3c05430c292a887bbff695f5870000000000000000166a146f6d6e69000000000000001f0000000005f5e1001c0200000000000017a91490e99e8d26d05ead3c05430c292a887bbff695f5870247304402205fa0c0cc8b82849f7e504a819a7e3788b8d4335e093b4164d24ad8cec65d712902204c74ad9e38057b8d740d60473ee5a97b588e07c0cc9168334edc3bffc36c15c1012103f1cf988013a33e053d1e9bd54c4798c1a6dc362a5b2798b5344049fca40e2db00247304402202162fe1dab48928590a67d57040358cdd706da68399ad99751ffd9b5c97bf4560220751aedeedc026c990836d031cdf0a2379db35836c5f51fb8cdafcd75de95f38c012103f1cf988013a33e053d1e9bd54c4798c1a6dc362a5b2798b5344049fca40e2db000000000", "vin": [{"txinwitness": ["304402205fa0c0cc8b82849f7e504a819a7e3788b8d4335e093b4164d24ad8cec65d712902204c74ad9e38057b8d740d60473ee5a97b588e07c0cc9168334edc3bffc36c15c101", "03f1cf988013a33e053d1e9bd54c4798c1a6dc362a5b2798b5344049fca40e2db0"], "sequence": 4294967295, "scriptSig": {"hex": "160014f6e1792e7852ebd5ae795c2a25d579acdfadec2d", "asm": "0014f6e1792e7852ebd5ae795c2a25d579acdfadec2d"}, "vout": 0, "txid": "cf2fb22a0fae26253284d168b5f201f11cf523d6e8df0d7cbf3b4832ae89e042"}, {"txinwitness": ["304402202162fe1dab48928590a67d57040358cdd706da68399ad99751ffd9b5c97bf4560220751aedeedc026c990836d031cdf0a2379db35836c5f51fb8cdafcd75de95f38c01", "03f1cf988013a33e053d1e9bd54c4798c1a6dc362a5b2798b5344049fca40e2db0"], "sequence": 4294967295, "scriptSig": {"hex": "160014f6e1792e7852ebd5ae795c2a25d579acdfadec2d", "asm": "0014f6e1792e7852ebd5ae795c2a25d579acdfadec2d"}, "vout": 2, "txid": "cf2fb22a0fae26253284d168b5f201f11cf523d6e8df0d7cbf3b4832ae89e042"}], "txid": "ac0a02777fd214c80d2cfe23f6d3a7ddef9792cf5914e4d994594af98066e9e1", "blocktime": 1537876114, "version": 1, "confirmations": 11460, "time": 1537876114, "locktime": 0, "vsize": 287, "size": 449}