{"hash": "ac0c8f00432ebf811c0e09405fa7aa06c8198e91f988589343cee8971b519353", "blockhash": "0000000000000000001cda96e906b7601b7a6fb1a3b62bca570a9e5d8f4b3de1", "vout": [{"scriptPubKey": {"type": "nulldata", "hex": "6a4c50000077bd0001e114dccca371221793029e86e5bf9ae76da98a211aaf6c953dd567cf27e7aabbd76bd997c85d7b94def4bd7c07605baa1258061338e3eb59029dbc9a9526289ac0f6612cd74e33776ee4", "asm": "OP_RETURN 000077bd0001e114dccca371221793029e86e5bf9ae76da98a211aaf6c953dd567cf27e7aabbd76bd997c85d7b94def4bd7c07605baa1258061338e3eb59029dbc9a9526289ac0f6612cd74e33776ee4"}, "value": 0.0, "n": 0}, {"scriptPubKey": {"reqSigs": 1, "hex": "76a9142cc81088b851424f0831befd8d64e32bfd7564f188ac", "addresses": ["155nQAxYKnVcnMaSE9Nhij4TqWTtG5Q2rn"], "asm": "OP_DUP OP_HASH160 2cc81088b851424f0831befd8d64e32bfd7564f1 OP_EQUALVERIFY OP_CHECKSIG", "type": "pubkeyhash"}, "value": 0.00114744, "n": 1}], "hex": "010000000176a14c6bf670a110ed966b45c43d838e1dfa6cbf49544cd01f62dd2155ebf1aa000000006a47304402200c976551dec09e5df667f41566ad50420ffbec45f5071db4bb38db13153e6cd102200e33846f13140f7ca560f02f9b8cdb1ee8cac18e4f58a185e17f939cdb6fdc4e012102117c8a37d71c00941c21e564070b2edc3487a213a179fc47ef2de0afc7893cd4ffffffff020000000000000000536a4c50000077bd0001e114dccca371221793029e86e5bf9ae76da98a211aaf6c953dd567cf27e7aabbd76bd997c85d7b94def4bd7c07605baa1258061338e3eb59029dbc9a9526289ac0f6612cd74e33776ee438c00100000000001976a9142cc81088b851424f0831befd8d64e32bfd7564f188ac00000000", "vin": [{"sequence": 4294967295, "scriptSig": {"hex": "47304402200c976551dec09e5df667f41566ad50420ffbec45f5071db4bb38db13153e6cd102200e33846f13140f7ca560f02f9b8cdb1ee8cac18e4f58a185e17f939cdb6fdc4e012102117c8a37d71c00941c21e564070b2edc3487a213a179fc47ef2de0afc7893cd4", "asm": "304402200c976551dec09e5df667f41566ad50420ffbec45f5071db4bb38db13153e6cd102200e33846f13140f7ca560f02f9b8cdb1ee8cac18e4f58a185e17f939cdb6fdc4e[ALL] 02117c8a37d71c00941c21e564070b2edc3487a213a179fc47ef2de0afc7893cd4"}, "vout": 0, "txid": "aaf1eb5521dd621fd04c5449bf6cfa1d8e833dc4456b96ed10a170f66b4ca176"}], "txid": "ac0c8f00432ebf811c0e09405fa7aa06c8198e91f988589343cee8971b519353", "blocktime": 1537873282, "version": 1, "confirmations": 11484, "time": 1537873282, "locktime": 0, "vsize": 283, "size": 283}