{"hash": "961df6306eb6654d0c03f1ffe49e07b8c6686f57f6cfe0826be849c0cb00cd9c", "blockhash": "0000000000000000000dcc0f55137456b1a82d3642486a52398922ac4d620174", "vout": [{"scriptPubKey": {"reqSigs": 1, "hex": "a9143871676d751f6728ca10b37aa59f63881d31093d87", "addresses": ["36qTcjbjxpTTTR5thDoBUxXhtK4wq5dvW3"], "asm": "OP_HASH160 3871676d751f6728ca10b37aa59f63881d31093d OP_EQUAL", "type": "scripthash"}, "value": 0.045, "n": 0}, {"scriptPubKey": {"reqSigs": 1, "hex": "0014e432fbd1f62ef6c319ef10294048591cedd3a3ad", "addresses": ["bc1quse0h50k9mmvxx00zq55qjzernka8gad4q74u2"], "asm": "0 e432fbd1f62ef6c319ef10294048591cedd3a3ad", "type": "witness_v0_keyhash"}, "value": 0.02797659, "n": 1}], "hex": "010000000001025d683b3968c2ec674e4faa907f3c1c5a82b32e680537c701cb5e196bf6e87b200000000017160014f06dfb9d8308b2a70845e192d9edd6a66929dc2cffffffffa78009bf7d9d7f4435734badde4a576e713c50df63d9ffc6dabbdad41cf6de1400000000171600148bdabedaceac590ef5b2940bd47c236e5a01ac24ffffffff0220aa44000000000017a9143871676d751f6728ca10b37aa59f63881d31093d875bb02a0000000000160014e432fbd1f62ef6c319ef10294048591cedd3a3ad02473044022027a3c9bf0e88bbbe3d5724385e82b2b318d2a207e653d910afd8474222ce9bc002204d563da01e67101be9dc2759d455051d20947af3d3d92c56d4b1bf9e8d2ec8e4012102d73b052666b2a5951045d726529b83c790bf52b6093b29a2c4e3ad64f306c6c502473044022077a594b4583463b92fc5da27e71c6f9e82d1f9f7450852aa8a74f93618c83893022051519b6188a3587876af582858038124b05d07d812fb3d7b94010526fa5c90d5012102dd13f8b142ce0cb7d6be9bfbb852fabd066e8f1c5066ddb8644a75d80b74e21400000000", "vin": [{"txinwitness": ["3044022027a3c9bf0e88bbbe3d5724385e82b2b318d2a207e653d910afd8474222ce9bc002204d563da01e67101be9dc2759d455051d20947af3d3d92c56d4b1bf9e8d2ec8e401", "02d73b052666b2a5951045d726529b83c790bf52b6093b29a2c4e3ad64f306c6c5"], "sequence": 4294967295, "scriptSig": {"hex": "160014f06dfb9d8308b2a70845e192d9edd6a66929dc2c", "asm": "0014f06dfb9d8308b2a70845e192d9edd6a66929dc2c"}, "vout": 0, "txid": "207be8f66b195ecb01c73705682eb3825a1c3c7f90aa4f4e67ecc268393b685d"}, {"txinwitness": ["3044022077a594b4583463b92fc5da27e71c6f9e82d1f9f7450852aa8a74f93618c83893022051519b6188a3587876af582858038124b05d07d812fb3d7b94010526fa5c90d501", "02dd13f8b142ce0cb7d6be9bfbb852fabd066e8f1c5066ddb8644a75d80b74e214"], "sequence": 4294967295, "scriptSig": {"hex": "1600148bdabedaceac590ef5b2940bd47c236e5a01ac24", "asm": "00148bdabedaceac590ef5b2940bd47c236e5a01ac24"}, "vout": 0, "txid": "14def61cd4dabbdac6ffd963df503c716e574adead4b7335447f9d7dbf0980a7"}], "txid": "ac12f2f9d40d966801842bf0397a16de795266227145b2901c565fb827d93807", "blocktime": 1537870268, "version": 1, "confirmations": 11518, "time": 1537870268, "locktime": 0, "vsize": 255, "size": 417}