{"hash": "5bf9e165b85a5a4f46279670cc137e6be9c47f64766c9b9c2aac9b7e168427ae", "blockhash": "0000000000000000000e13cef7c366c0283d82e591d1acd082e914b08063cdf1", "vout": [{"scriptPubKey": {"reqSigs": 1, "hex": "a914cc6d46eae5659a0de9f18c29ed8eb6ddf4e140bd87", "addresses": ["3LKvgNrxuiJJ6DrCNUSCXGtoQ4UjWA9E3Y"], "asm": "OP_HASH160 cc6d46eae5659a0de9f18c29ed8eb6ddf4e140bd OP_EQUAL", "type": "scripthash"}, "value": 0.0404, "n": 0}, {"scriptPubKey": {"reqSigs": 1, "hex": "a914458371a37a43f46f228aee2bb8c4e3037c8f613f87", "addresses": ["382a1fNWv9QpojpzAAeDduD6FrmozeyhBc"], "asm": "OP_HASH160 458371a37a43f46f228aee2bb8c4e3037c8f613f OP_EQUAL", "type": "scripthash"}, "value": 0.01018571, "n": 1}], "hex": "0200000000010503eaad14edda71751a6d71011a5634528f300380f26a093e61a58ac9f27a3dfe0000000017160014ff4e5cbec15a4c06f9e2aaa92bdd664c334f04ccfeffffff1c43627d1a1a032461a53016dca4c1bbe30bc32b06ac9c1953335c52387705c00100000017160014b192ef578647052535ce58ef1ebd5c613f9d93a5feffffff3426c68b8ca90e09bc017c2283bbc7771b08913309eb212242abfff643ea1324000000001716001498952714708cbd4ff860581124dd7c945289544cfeffffff6ddfeacc6e9d428683d35ddb7607124d09c671e1520d308f8165c3cf78da9c970000000017160014266d51029d6a6a1b33fde1c6cc7f1537c4b9ab1efeffffff9a28f90174d906918f0322322af9ce70fd676b546a0aa4c6e41dba13b92d45460000000017160014fca3c73bfea320a564f2834a4f57c913d89562fbfeffffff0240a53d000000000017a914cc6d46eae5659a0de9f18c29ed8eb6ddf4e140bd87cb8a0f000000000017a914458371a37a43f46f228aee2bb8c4e3037c8f613f8702473044022054a1e5120e140c751553f9f5b0323cd5bd6ff7ff58510379e408c97a69017f7f022011c7c1fcb8bb20fe390cc8a47513f52c235cbbe50a22c4b55cda50e58ba1805c012103381213e105f0462e033ad62092391b4c1743c651370622c4b0cb113bb8dba3e202483045022100d9531d1907d4fe54d6a520c9bbf684fa7df6b9cde1e6388d8653eb88e63e9a6702200e6b14e4a7d8c335968789c3a9f44322010d0fe12a9af43c25d339be22cd96e20121023ddfabfb064a99a051ee59b1e59e25085e5589ff397517aa00d5ef6d83c3afea02483045022100c0e125fd5a097fd8f8b60c1968ec000b3ab7eb0d1d18d3886621a7f592fbc05e022056739b22e97892e23d8e72ebf8b0226cfcabbca5caf84aec0f552124ffaaeaef0121028d8a75ea2c3a3aba2a4073e7d865d068398fb20670bbf9b76eb5146b72473d3c024830450221008464438cd0479c33fefd4df8022e63f6abac248077869a3e08304a187fead7350220735b02cb64676904587ba64a899ceb75db3c7729a8d3332ad136520f7e9d2d31012102400a9fd7278ff5571d76d7a4b0ced04b5a61d72705be5b91e95d9a8440d4043602483045022100a339111d4d5ba41ce13cece4f0e186c628c5996b1beae70ab26615c37ea970d802202378fde2f137e1c1199455fc3e30af7fe853568ee9a3d6b18772a6787318850e012102aea3be7a168b88b73fb5c2940cc9d2df647c9c197e4dfc0b25f8c05f2ab1b53310490800", "vin": [{"txinwitness": ["3044022054a1e5120e140c751553f9f5b0323cd5bd6ff7ff58510379e408c97a69017f7f022011c7c1fcb8bb20fe390cc8a47513f52c235cbbe50a22c4b55cda50e58ba1805c01", "03381213e105f0462e033ad62092391b4c1743c651370622c4b0cb113bb8dba3e2"], "sequence": 4294967294, "scriptSig": {"hex": "160014ff4e5cbec15a4c06f9e2aaa92bdd664c334f04cc", "asm": "0014ff4e5cbec15a4c06f9e2aaa92bdd664c334f04cc"}, "vout": 0, "txid": "fe3d7af2c98aa5613e096af28003308f5234561a01716d1a7571daed14adea03"}, {"txinwitness": ["3045022100d9531d1907d4fe54d6a520c9bbf684fa7df6b9cde1e6388d8653eb88e63e9a6702200e6b14e4a7d8c335968789c3a9f44322010d0fe12a9af43c25d339be22cd96e201", "023ddfabfb064a99a051ee59b1e59e25085e5589ff397517aa00d5ef6d83c3afea"], "sequence": 4294967294, "scriptSig": {"hex": "160014b192ef578647052535ce58ef1ebd5c613f9d93a5", "asm": "0014b192ef578647052535ce58ef1ebd5c613f9d93a5"}, "vout": 1, "txid": "c0057738525c3353199cac062bc30be3bbc1a4dc1630a56124031a1a7d62431c"}, {"txinwitness": ["3045022100c0e125fd5a097fd8f8b60c1968ec000b3ab7eb0d1d18d3886621a7f592fbc05e022056739b22e97892e23d8e72ebf8b0226cfcabbca5caf84aec0f552124ffaaeaef01", "028d8a75ea2c3a3aba2a4073e7d865d068398fb20670bbf9b76eb5146b72473d3c"], "sequence": 4294967294, "scriptSig": {"hex": "16001498952714708cbd4ff860581124dd7c945289544c", "asm": "001498952714708cbd4ff860581124dd7c945289544c"}, "vout": 0, "txid": "2413ea43f6ffab422221eb093391081b77c7bb83227c01bc090ea98c8bc62634"}, {"txinwitness": ["30450221008464438cd0479c33fefd4df8022e63f6abac248077869a3e08304a187fead7350220735b02cb64676904587ba64a899ceb75db3c7729a8d3332ad136520f7e9d2d3101", "02400a9fd7278ff5571d76d7a4b0ced04b5a61d72705be5b91e95d9a8440d40436"], "sequence": 4294967294, "scriptSig": {"hex": "160014266d51029d6a6a1b33fde1c6cc7f1537c4b9ab1e", "asm": "0014266d51029d6a6a1b33fde1c6cc7f1537c4b9ab1e"}, "vout": 0, "txid": "979cda78cfc365818f300d52e171c6094d120776db5dd38386429d6ecceadf6d"}, {"txinwitness": ["3045022100a339111d4d5ba41ce13cece4f0e186c628c5996b1beae70ab26615c37ea970d802202378fde2f137e1c1199455fc3e30af7fe853568ee9a3d6b18772a6787318850e01", "02aea3be7a168b88b73fb5c2940cc9d2df647c9c197e4dfc0b25f8c05f2ab1b533"], "sequence": 4294967294, "scriptSig": {"hex": "160014fca3c73bfea320a564f2834a4f57c913d89562fb", "asm": "0014fca3c73bfea320a564f2834a4f57c913d89562fb"}, "vout": 0, "txid": "46452db913ba1de4c6a40a6a546b67fd70cef92a3222038f9106d97401f9289a"}], "txid": "ac13976219f807100982a8a737dc109732c0d0b61bf6445446b21b2d83ad3d01", "blocktime": 1537871767, "version": 2, "confirmations": 11495, "time": 1537871767, "locktime": 542992, "vsize": 530, "size": 935}