{"hash": "5332b7fadd41e6dc0a9f2158e7874631e4c964c0d1d9479a99a28107ac461f2a", "blockhash": "000000000000000000022b45ed06c6f4ccd3cf7fb5ba4856ebd2e58215665228", "vout": [{"scriptPubKey": {"reqSigs": 1, "hex": "76a91403a18322aff7f8058890523a55f794cf46e19cad88ac", "addresses": ["1LCWeJo8QVSiEyCK4S2VmoLZ9fRAfn15C"], "asm": "OP_DUP OP_HASH160 03a18322aff7f8058890523a55f794cf46e19cad OP_EQUALVERIFY OP_CHECKSIG", "type": "pubkeyhash"}, "value": 1.79720876, "n": 0}, {"scriptPubKey": {"reqSigs": 1, "hex": "0014b283efac334c992ef97fb3c12020cbe06b9edab5", "addresses": ["bc1qk2p7ltpnfjvja7tlk0qjqgxtup4eak44utsrzl"], "asm": "0 b283efac334c992ef97fb3c12020cbe06b9edab5", "type": "witness_v0_keyhash"}, "value": 0.01904577, "n": 1}], "hex": "01000000000101da2916596e54e5ee24e4afe07bd1f635cd3c448752ed5ee6e3160d601a7d32f80100000000ffffffff02ac52b60a000000001976a91403a18322aff7f8058890523a55f794cf46e19cad88acc10f1d0000000000160014b283efac334c992ef97fb3c12020cbe06b9edab502473044022071d3005508c9dce6e68d9c7a2cdfba17f6e621c34eeacab4c3b83b51c3ce89070220653616c443e8186428829d1e9a99f5c03f776284009ab2fa64d7c135e4e2176f0121025c257316864e369c3ef863d00a2915bb16e1ff2f989b2a447992dbc40df849a200000000", "vin": [{"txinwitness": ["3044022071d3005508c9dce6e68d9c7a2cdfba17f6e621c34eeacab4c3b83b51c3ce89070220653616c443e8186428829d1e9a99f5c03f776284009ab2fa64d7c135e4e2176f01", "025c257316864e369c3ef863d00a2915bb16e1ff2f989b2a447992dbc40df849a2"], "sequence": 4294967295, "scriptSig": {"hex": "", "asm": ""}, "vout": 1, "txid": "f8327d1a600d16e3e65eed5287443ccd35f6d17be0afe424eee5546e591629da"}], "txid": "ac14eac6a8e3389c77399d77f5e0d75f0f15eba1cc112e5cd632bf1b736bf753", "blocktime": 1537869901, "version": 1, "confirmations": 11523, "time": 1537869901, "locktime": 0, "vsize": 144, "size": 225}