{"hash": "6fa4f35ca53b0cb0343b29a30e38558ff0ca4e31a4d5eb26e4dab73613f1a5a0", "blockhash": "0000000000000000000e13cef7c366c0283d82e591d1acd082e914b08063cdf1", "vout": [{"scriptPubKey": {"reqSigs": 1, "hex": "a914c7daaf8eac85ce0841ed30799de102c57b5d48f387", "addresses": ["3KukNGiPKMzejgFAKHBoV4TYLES3oic5eL"], "asm": "OP_HASH160 c7daaf8eac85ce0841ed30799de102c57b5d48f3 OP_EQUAL", "type": "scripthash"}, "value": 0.03307104, "n": 0}, {"scriptPubKey": {"reqSigs": 1, "hex": "76a914da3f5e3734ee92af5015fd73b53c6850f81f579c88ac", "addresses": ["1LtzDi18ggvzrXUzwHSvX5ykRF9Gdm1W4m"], "asm": "OP_DUP OP_HASH160 da3f5e3734ee92af5015fd73b53c6850f81f579c OP_EQUALVERIFY OP_CHECKSIG", "type": "pubkeyhash"}, "value": 0.03181195, "n": 1}], "hex": "02000000000102480b829ae563263b975b0ddb9da9b1bb6e7abad46851e319d8872d919f341d9d0100000017160014ab02ce7c340534ef14cb1a562e3f27d834b0fa0dfeffffffa85b0f391f7b829e3b93dd330d530aa9d03a2f76eac2ba5b35030823a1052c1a0100000017160014037300b75d1c6678879bfdf63507931e3c638eaafeffffff02607632000000000017a914c7daaf8eac85ce0841ed30799de102c57b5d48f3878b8a3000000000001976a914da3f5e3734ee92af5015fd73b53c6850f81f579c88ac02473044022048e2fd116381c8efc191a107679ff8c67ff7a02de84446f20ad4bd5ec49111cf02207d2a5c080e032198224232ee815fb962f822e853143d7cadcf64177d961a164b0121037e619e63adf5bc2960a26052a531e1078227cb071ced74c6cdfbfc74a6f091cb02473044022053b2d2841a02de31d53aefe9f600cfbd46de0a571030f1dcf8b78ff11c5b7dad02206b54d37fd219380ebd9dac686f0fe49281d1400336a22a8d8a7a4c88538b26b40121027fc653084e9abc2afea576937ab8c61debb3b92357d6d0b2678d7d00c4c1808b0f490800", "vin": [{"txinwitness": ["3044022048e2fd116381c8efc191a107679ff8c67ff7a02de84446f20ad4bd5ec49111cf02207d2a5c080e032198224232ee815fb962f822e853143d7cadcf64177d961a164b01", "037e619e63adf5bc2960a26052a531e1078227cb071ced74c6cdfbfc74a6f091cb"], "sequence": 4294967294, "scriptSig": {"hex": "160014ab02ce7c340534ef14cb1a562e3f27d834b0fa0d", "asm": "0014ab02ce7c340534ef14cb1a562e3f27d834b0fa0d"}, "vout": 1, "txid": "9d1d349f912d87d819e35168d4ba7a6ebbb1a99ddb0d5b973b2663e59a820b48"}, {"txinwitness": ["3044022053b2d2841a02de31d53aefe9f600cfbd46de0a571030f1dcf8b78ff11c5b7dad02206b54d37fd219380ebd9dac686f0fe49281d1400336a22a8d8a7a4c88538b26b401", "027fc653084e9abc2afea576937ab8c61debb3b92357d6d0b2678d7d00c4c1808b"], "sequence": 4294967294, "scriptSig": {"hex": "160014037300b75d1c6678879bfdf63507931e3c638eaa", "asm": "0014037300b75d1c6678879bfdf63507931e3c638eaa"}, "vout": 1, "txid": "1a2c05a1230803355bbac2ea762f3ad0a90a530d33dd933b9e827b1f390f5ba8"}], "txid": "ac14809a5797cfd03ab181a5aec8f031bcd19ee76652d175e6b61dee1ad13595", "blocktime": 1537871767, "version": 2, "confirmations": 11491, "time": 1537871767, "locktime": 542991, "vsize": 258, "size": 420}